# 17784966 - Squintrox Dryeyes

## Common Data

| Field            | Value                |
|------------------|----------------------|
| Zone             | Port Jeuno (ID: 246) |
| Block Size       | 3980 bytes           |
| Total Events     | 45                   |
| References Count | 172                  |

## List of Events

| Event ID                   | Entrypoint   |   Size |   Instructions |
|----------------------------|--------------|--------|----------------|
| [65535](#event-65535)      | 0x0000       |      1 |              1 |
| [323](#event-323)          | 0x0001       |   1851 |            444 |
| [324](#event-324)          | 0x073C       |     18 |              4 |
| [325](#event-325)          | 0x074E       |     18 |              4 |
| [327](#event-327)          | 0x0760       |     18 |              4 |
| [331](#event-331)          | 0x0772       |     18 |              4 |
| [332](#event-332)          | 0x0784       |     18 |              4 |
| [333](#event-333)          | 0x0796       |     18 |              4 |
| [334](#event-334)          | 0x07A8       |     18 |              4 |
| [335](#event-335)          | 0x07BA       |     18 |              4 |
| [336](#event-336)          | 0x07CC       |     18 |              4 |
| [337](#event-337)          | 0x07DE       |     18 |              4 |
| [338](#event-338)          | 0x07F0       |     18 |              4 |
| [340](#event-340)          | 0x0802       |     18 |              4 |
| [341](#event-341)          | 0x0814       |     18 |              4 |
| [342](#event-342)          | 0x0826       |     18 |              4 |
| [343](#event-343)          | 0x0838       |     18 |              4 |
| [344](#event-344)          | 0x084A       |     18 |              4 |
| [345](#event-345)          | 0x085C       |     18 |              4 |
| [65535.1](#event-655351)   | 0x086E       |     40 |              8 |
| [65535.2](#event-655352)   | 0x0896       |     40 |              8 |
| [65535.3](#event-655353)   | 0x08BE       |    139 |             22 |
| [65535.4](#event-655354)   | 0x0949       |     15 |              5 |
| [65535.5](#event-655355)   | 0x0958       |     15 |              5 |
| [65535.6](#event-655356)   | 0x0967       |     30 |              8 |
| [65535.7](#event-655357)   | 0x0985       |     16 |              2 |
| [65535.8](#event-655358)   | 0x0995       |     33 |              7 |
| [65535.9](#event-655359)   | 0x09B6       |     33 |              7 |
| [65535.10](#event-6553510) | 0x09D7       |     45 |             13 |
| [65535.11](#event-6553511) | 0x0A04       |    139 |             22 |
| [65535.12](#event-6553512) | 0x0A8F       |     15 |              5 |
| [65535.13](#event-6553513) | 0x0A9E       |     15 |              5 |
| [65535.14](#event-6553514) | 0x0AAD       |     15 |              5 |
| [65535.15](#event-6553515) | 0x0ABC       |     80 |             13 |
| [65535.16](#event-6553516) | 0x0B0C       |     15 |              5 |
| [65535.17](#event-6553517) | 0x0B1B       |     15 |              5 |
| [65535.18](#event-6553518) | 0x0B2A       |     15 |              5 |
| [65535.19](#event-6553519) | 0x0B39       |     15 |              5 |
| [65535.20](#event-6553520) | 0x0B48       |     15 |              5 |
| [65535.21](#event-6553521) | 0x0B57       |     53 |             10 |
| [65535.22](#event-6553522) | 0x0B8C       |     58 |             11 |
| [431](#event-431)          | 0x0BC6       |      1 |              1 |
| [434](#event-434)          | 0x0BC7       |      7 |              2 |
| [65535.23](#event-6553523) | 0x0BCE       |     14 |              4 |
| [65535.24](#event-6553524) | 0x0BDC       |     58 |             12 |

## DAT References (imed_data)

|   Index | Hex Value   |   Dec Value |
|---------|-------------|-------------|
|       0 | 0x1FF2      |        8178 |
|       1 | 0x0451      |        1105 |
|       2 | 0x0452      |        1106 |
|       3 | 0x0469      |        1129 |
|       4 | 0x046A      |        1130 |
|       5 | 0x046C      |        1132 |
|       6 | 0x04A0      |        1184 |
|       7 | 0x04A1      |        1185 |
|       8 | 0x04A3      |        1187 |
|       9 | 0x1FF3      |        8179 |
|      10 | 0x0000      |           0 |
|      11 | 0x0001      |           1 |
|      12 | 0x1FF4      |        8180 |
|      13 | 0x0AB4      |        2740 |
|      14 | 0x0AB5      |        2741 |
|      15 | 0x0AB6      |        2742 |
|      16 | 0x1FF5      |        8181 |
|      17 | 0x0002      |           2 |
|      18 | 0x0064      |         100 |
|      19 | 0x043D      |        1085 |
|      20 | 0x043E      |        1086 |
|      21 | 0x043F      |        1087 |
|      22 | 0x1FF6      |        8182 |
|      23 | 0x1FF7      |        8183 |
|      24 | 0x1FF8      |        8184 |
|      25 | 0x1FF9      |        8185 |
|      26 | 0x0003      |           3 |
|      27 | 0x0AC5      |        2757 |
|      28 | 0x0AC6      |        2758 |
|      29 | 0x0AC7      |        2759 |
|      30 | 0x0004      |           4 |
|      31 | 0x0065      |         101 |
|      32 | 0x0470      |        1136 |
|      33 | 0x0471      |        1137 |
|      34 | 0x0472      |        1138 |
|      35 | 0x0005      |           5 |
|      36 | 0x0066      |         102 |
|      37 | 0x0478      |        1144 |
|      38 | 0x1FFE      |        8190 |
|      39 | 0x1FFF      |        8191 |
|      40 | 0x0006      |           6 |
|      41 | 0x0067      |         103 |
|      42 | 0x2000      |        8192 |
|      43 | 0x0007      |           7 |
|      44 | 0x0068      |         104 |
|      45 | 0x2003      |        8195 |
|      46 | 0x2001      |        8193 |
|      47 | 0x2002      |        8194 |
|      48 | 0x0069      |         105 |
|      49 | 0x0008      |           8 |
|      50 | 0x04B4      |        1204 |
|      51 | 0x04B5      |        1205 |
|      52 | 0x04B6      |        1206 |
|      53 | 0x04B7      |        1207 |
|      54 | 0x2004      |        8196 |
|      55 | 0x04B8      |        1208 |
|      56 | 0x04B9      |        1209 |
|      57 | 0x2005      |        8197 |
|      58 | 0x2006      |        8198 |
|      59 | 0x2007      |        8199 |
|      60 | 0x0009      |           9 |
|      61 | 0x2008      |        8200 |
|      62 | 0x00CB      |         203 |
|      63 | 0x0443      |        1091 |
|      64 | 0x0450      |        1104 |
|      65 | 0x0486      |        1158 |
|      66 | 0x0487      |        1159 |
|      67 | 0x04B3      |        1203 |
|      68 | 0x2009      |        8201 |
|      69 | 0x200D      |        8205 |
|      70 | 0x01F4      |         500 |
|      71 | 0x200A      |        8202 |
|      72 | 0x00C8      |         200 |
|      73 | 0x200E      |        8206 |
|      74 | 0x012C      |         300 |
|      75 | 0x05DC      |        1500 |
|      76 | 0x000F      |          15 |
|      77 | 0x00C9      |         201 |
|      78 | 0x200F      |        8207 |
|      79 | 0x012D      |         301 |
|      80 | 0x07D0      |        2000 |
|      81 | 0x0014      |          20 |
|      82 | 0x00CA      |         202 |
|      83 | 0x012E      |         302 |
|      84 | 0x012F      |         303 |
|      85 | 0x0130      |         304 |
|      86 | 0x0131      |         305 |
|      87 | 0x0132      |         306 |
|      88 | 0x0133      |         307 |
|      89 | 0x0134      |         308 |
|      90 | 0x0015      |          21 |
|      91 | 0x005A      |          90 |
|      92 | 0x000D      |          13 |
|      93 | 0xFFFF43BD  |  4294919101 |
|      94 | 0x0E16      |        3606 |
|      95 | 0x03CD      |         973 |
|      96 | 0x0034      |          52 |
|      97 | 0x0078      |         120 |
|      98 | 0x000B      |          11 |
|      99 | 0x5D1F      |       23839 |
|     100 | 0x1781      |        6017 |
|     101 | 0x02AF      |         687 |
|     102 | 0x0051      |          81 |
|     103 | 0x002D      |          45 |
|     104 | 0x001E      |          30 |
|     105 | 0x08AE      |        2222 |
|     106 | 0x004B      |          75 |
|     107 | 0x0025      |          37 |
|     108 | 0xFFFEC504  |  4294886660 |
|     109 | 0xFFFFEAAC  |  4294961836 |
|     110 | 0x0027      |          39 |
|     111 | 0xFFFEC210  |  4294885904 |
|     112 | 0xFFFFEF62  |  4294963042 |
|     113 | 0x0029      |          41 |
|     114 | 0xFFFEBC38  |  4294884408 |
|     115 | 0xFFFFED5A  |  4294962522 |
|     116 | 0x000A      |          10 |
|     117 | 0xFFFEAFBE  |  4294881214 |
|     118 | 0xFFFFFA5E  |  4294965854 |
|     119 | 0x00D8      |         216 |
|     120 | 0x000C      |          12 |
|     121 | 0xFFFE7646  |  4294866502 |
|     122 | 0xFFFFF1A1  |  4294963617 |
|     123 | 0x003C      |          60 |
|     124 | 0x0028      |          40 |
|     125 | 0xFFFF89FB  |  4294937083 |
|     126 | 0xFFFFFA22  |  4294965794 |
|     127 | 0xFFFE86B8  |  4294870712 |
|     128 | 0xFFFFDEB9  |  4294958777 |
|     129 | 0x0E02      |        3586 |
|     130 | 0x0168      |         360 |
|     131 | 0xFFFE880F  |  4294871055 |
|     132 | 0x22A8      |        8872 |
|     133 | 0x0200      |         512 |
|     134 | 0xFFFF32B5  |  4294914741 |
|     135 | 0x079E      |        1950 |
|     136 | 0xFFFF402C  |  4294918188 |
|     137 | 0x0935      |        2357 |
|     138 | 0xFFFF35EA  |  4294915562 |
|     139 | 0x0B3F      |        2879 |
|     140 | 0xFFFF3A12  |  4294916626 |
|     141 | 0x09AA      |        2474 |
|     142 | 0xFFFE9692  |  4294874770 |
|     143 | 0xFFFFF68E  |  4294964878 |
|     144 | 0x0026      |          38 |
|     145 | 0xFFFE7DEB  |  4294868459 |
|     146 | 0xFFFFF5B0  |  4294964656 |
|     147 | 0x1387      |        4999 |
|     148 | 0xFFFFFCE1  |  4294966497 |
|     149 | 0xFFFED394  |  4294890388 |
|     150 | 0xFFFFF65F  |  4294964831 |
|     151 | 0xFFFF38F4  |  4294916340 |
|     152 | 0xFFFFF821  |  4294965281 |
|     153 | 0xFFFE5E8F  |  4294860431 |
|     154 | 0x0899      |        2201 |
|     155 | 0xFFFF7085  |  4294930565 |
|     156 | 0xFFFFF716  |  4294965014 |
|     157 | 0xFFFF1D41  |  4294909249 |
|     158 | 0x24D9      |        9433 |
|     159 | 0xFFFF236E  |  4294910830 |
|     160 | 0x2722      |       10018 |
|     161 | 0x00D7      |         215 |
|     162 | 0xFFFF34A9  |  4294915241 |
|     163 | 0x0881      |        2177 |
|     164 | 0x0013      |          19 |
|     165 | 0xFFFE7D48  |  4294868296 |
|     166 | 0x0BB8      |        3000 |
|     167 | 0x0866      |        2150 |
|     168 | 0x00B4      |         180 |
|     169 | 0x07FF      |        2047 |
|     170 | 0xFFFE5638  |  4294858296 |
|     171 | 0xFFFFFAA6  |  4294965926 |

## String References

- **8178**: Yeah? You want somethin' from me?
- **8179**: What you want? [Nothing in particular./6./$6./$6./$6./$6./$6./$6./$6./A certain something else...]
- **8180**: So you want $3...that right?
- **8181**: How you gonna make it worth my while? Eh? Bring me $0, $1, and $2 and I just might think about it...maybe. If I feel like it.
- **8182**: You gonna make it worth my while? Eh? Bring me $3, $3, and $3 and I just might think about it...maybe. If I feel like it.
- **8183**: Then you give me $3, $3, and $3 and we gotta deal. Whaddaya think?
- **8184**: Accepting the $3 will trigger a time limit for the quest, "Gatherer of Light."
- **8185**: Make the trade? [It's a deal!/On second thought...]
- **8190**: How ya gonna make it worth my while? Eh? I got it. How 'bout ya fetch me $3? Yeah, that should do the trick.
- **8191**: [$3$3e$3093516$3o$3 [$3N$3 [$3 $; [u/$3W$3$3$3O$3i[$P10X%Q/$3R$3$3V$3$5$3^$3b$3g$2$P12n/$3p$3V$3$5$3n$3E$@/$3^$3$3$3M$P11e [,$P12J/$3u$3u$3$3 $P14<$7/$3$3$3t$3@$3g$R$P12n/$P109$P12n$3WE$3^/$3$6$3^$3$3K$P11e$P10X%Q/$3%3A$3g$3 [$P11e$P10X%Q/$P10<$3A$3 [$3e$3p$;$25/$12$3A$3 [$3e$3p$;$25]E$4_=$3[$3O$3$1A)=B/Where can ya find it!? Ya need me to tell ya everything?/Bah, fine. My buddies say they saw a moogle actin' all suspicious-like over in [La Theine Plateau/Valkurm Dunes/Jugner Forest/Konschtat Highlands/Pashhow Marshlands/Tahrongi Canyon/Buburimu Peninsula/Meriphataud Mountains/The Sanctuary of Zi'Tah/Yuhtunga Jungle/Yhoator Jungle/Western Altepa Desert/Eastern Altepa Desert]./And that's the straight Gobbie dope.]
- **8192**: How you gonna make it worth my while? Eh? Bring me $0, and I just might think about it...maybe. If I feel like it.
- **8193**: You see these six magic seals? They're worthless, but the counterseals they're attached to'll fetch a good price. Get the seals off of say...three of 'em for me, and I'll give ya the goods.
- **8194**: Oho! Looks like you got $1 [counterseal/counterseals]. You wanna trade [it/'em] for $6?
- **8195**: It'll cost ya three counterseals...no wait, more! Ahhh, I'll take whatever ya got, but no less than three. Deal?
- **8196**: Then you fetch me $3, $3, $3, and $3.
- **8197**: That ain't all! I'll be needin' $3 and $3, too. Then it's a deal.
- **8198**: You give me $3, $3, $3, $3...
- **8199**: Also $3 and $3, and it's a done deal. Sound good?
- **8200**: Why, you greedier than Grand Greedalox! You want goods, you pay me both gil and beastmen's seals. Or we no do business.
- **8201**: What you want? [None of these." Seedspalls./$3./$3./4 Mana Orbs./$3./$3./$3./8 Star Tree Sap Crystals./16 Tablets of Hexes.]
- **8202**: That'll cost ya $0 gil and $1 beastmen's [seal/seals]. The seals I get straight from Shami. I got a deal goin' with him, ya see.
- **8205**: So it's the set of [three Seedspalls/four Mana Orbs/eight sap crystals/sixteen Tablets of Hexes] you want? That right?
- **8206**: Acquire a set of [three Seedspalls/four Mana Orbs/eight sap crystals/sixteen Tablets of Hexes]? [Yes, please./On second thought...]
- **8207**: Acquire $6? [Yes, please./On second thought...]

## Events

### Event 65535

#### Metadata

| Field        | Value   |
|--------------|---------|
| Entrypoint   | 0x0000  |
| Data Size    | 1 bytes |
| Instructions | 1       |

```
      00 01 02 03 04 05 06 07  08 09 0A 0B 0C 0D 0E 0F
      -- -- -- -- -- -- -- --  -- -- -- -- -- -- -- --
0000: 00                                                .               
```

#### Opcodes

```
  0: 0x0000 [0x00] END_REQSTACK()
```

### Event 323

#### Metadata

| Field        | Value      |
|--------------|------------|
| Entrypoint   | 0x0001     |
| Data Size    | 1851 bytes |
| Instructions | 444        |

```
      00 01 02 03 04 05 06 07  08 09 0A 0B 0C 0D 0E 0F
      -- -- -- -- -- -- -- --  -- -- -- -- -- -- -- --
0000:    20 01 42 1E F0 FF FF  7F 6F 70 03 00 00 02 10    .B.....op.....
0010: 1D 00 80 23 03 02 10 01  80 03 03 10 02 80 03 04  ...#............
0020: 10 03 80 03 05 10 04 80  03 06 10 05 80 03 07 10  ................
0030: 06 80 03 08 10 07 80 03  09 10 08 80 24 09 80 0A  ............$...
0040: 80 00 00 25 02 00 10 0B  80 00 70 00 03 02 10 01  ...%......p.....
0050: 80 1D 0C 80 23 03 02 10  0D 80 03 03 10 0E 80 03  ....#...........
0060: 04 10 0F 80 1D 10 80 23  03 01 10 0A 80 01 37 07  .......#......7.
0070: 02 00 10 11 80 00 E3 00  03 02 10 02 80 1D 0C 80  ................
0080: 23 03 01 10 12 80 43 00  43 01 03 02 00 02 10 03  #.....C.C.......
0090: 02 10 13 80 03 03 10 14  80 03 04 10 15 80 03 05  ................
00A0: 10 02 80 02 02 00 0A 80  00 B7 00 1D 16 80 23 03  ..............#.
00B0: 01 10 0A 80 01 E0 00 1D  17 80 23 03 02 10 02 80  ..........#.....
00C0: 48 18 80 24 19 80 0B 80  0A 80 25 02 00 10 0A 80  H..$......%.....
00D0: 00 DB 00 03 01 10 12 80  01 E0 00 03 01 10 0B 80  ................
00E0: 01 37 07 02 00 10 1A 80  00 0F 01 03 02 10 03 80  .7..............
00F0: 1D 0C 80 23 03 02 10 1B  80 03 03 10 1C 80 03 04  ...#............
0100: 10 1D 80 1D 10 80 23 03  01 10 0A 80 01 37 07 02  ......#......7..
0110: 00 10 1E 80 00 7A 01 03  02 10 04 80 1D 0C 80 23  .....z.........#
0120: 03 01 10 1F 80 43 00 43  01 03 02 00 02 10 03 02  .....C.C........
0130: 10 20 80 03 03 10 21 80  03 04 10 22 80 02 02 00  . ....!...."....
0140: 0A 80 00 51 01 1D 16 80  23 03 01 10 0A 80 01 77  ...Q....#......w
0150: 01 1D 17 80 23 03 02 10  04 80 24 19 80 0B 80 0A  ....#.....$.....
0160: 80 25 02 00 10 0A 80 00  72 01 03 01 10 1F 80 01  .%......r.......
0170: 77 01 03 01 10 0B 80 01  37 07 02 00 10 23 80 00  w.......7....#..
0180: FE 01 03 02 10 05 80 1D  0C 80 23 03 01 10 24 80  ..........#...$.
0190: 43 00 43 01 03 02 00 02  10 03 03 00 03 10 03 04  C.C.............
01A0: 00 04 10 02 02 00 0A 80  00 D0 01 03 02 10 25 80  ..............%.
01B0: 1D 26 80 23 03 03 10 04  00 02 03 00 0A 80 00 C4  .&.#............
01C0: 01 01 C8 01 1D 27 80 23  03 01 10 0A 80 01 FB 01  .....'.#........
01D0: 03 02 10 25 80 1D 26 80  23 03 02 10 05 80 24 19  ...%..&.#.....$.
01E0: 80 0B 80 0A 80 25 02 00  10 0A 80 00 F6 01 03 01  .....%..........
01F0: 10 24 80 01 FB 01 03 01  10 0B 80 01 37 07 02 00  .$..........7...
0200: 10 28 80 00 24 02 03 02  10 06 80 1D 0C 80 23 03  .(..$.........#.
0210: 01 10 29 80 43 00 43 01  1D 2A 80 23 03 01 10 0A  ..).C.C..*.#....
0220: 80 01 37 07 02 00 10 2B  80 00 B0 02 03 02 10 07  ..7....+........
0230: 80 1D 0C 80 23 03 01 10  2C 80 43 00 43 01 02 04  ....#...,.C.C...
0240: 10 0A 80 80 4E 02 03 01  10 0A 80 01 AD 02 02 04  ....N...........
0250: 10 0B 80 80 76 02 02 03  10 0A 80 01 6A 02 1D 2D  ....v.......j..-
0260: 80 23 03 01 10 0A 80 01  73 02 1D 2E 80 23 03 01  .#......s....#..
0270: 10 29 80 01 AD 02 02 04  10 11 80 80 AD 02 1D 2F  .)............./
0280: 80 23 24 19 80 0B 80 0A  80 25 02 00 10 0A 80 00  .#$......%......
0290: 9A 02 03 01 10 30 80 01  AA 02 02 00 10 0B 80 00  .....0..........
02A0: AA 02 03 01 10 0B 80 01  AA 02 01 AD 02 01 37 07  ..............7.
02B0: 02 00 10 31 80 00 3C 03  03 02 10 08 80 1D 0C 80  ...1..<.........
02C0: 23 03 01 10 30 80 43 00  43 01 03 02 00 02 10 03  #...0.C.C.......
02D0: 02 10 32 80 03 03 10 33  80 03 04 10 34 80 03 05  ..2....3....4...
02E0: 10 35 80 02 02 00 0A 80  00 05 03 1D 36 80 23 03  .5..........6.#.
02F0: 06 10 37 80 03 07 10 38  80 1D 39 80 23 03 01 10  ..7....8..9.#...
0300: 0A 80 01 39 03 1D 3A 80  23 03 06 10 37 80 03 07  ...9..:.#...7...
0310: 10 38 80 1D 3B 80 23 03  02 10 08 80 24 19 80 0B  .8..;.#.....$...
0320: 80 0A 80 25 02 00 10 0A  80 00 34 03 03 01 10 2C  ...%......4....,
0330: 80 01 39 03 03 01 10 0B  80 01 37 07 02 00 10 3C  ..9.......7....<
0340: 80 00 32 07 1D 3D 80 23  03 01 10 3E 80 43 00 43  ..2..=.#...>.C.C
0350: 01 03 01 00 02 10 03 03  10 3F 80 03 04 10 40 80  .........?....@.
0360: 03 05 10 41 80 03 06 10  42 80 03 07 10 43 80 24  ...A....B....C.$
0370: 44 80 0A 80 01 00 25 02  00 10 0A 80 00 87 03 03  D.....%.........
0380: 01 10 0B 80 01 2F 07 02  00 10 0B 80 00 EF 03 03  ...../..........
0390: 02 10 0A 80 1D 45 80 23  03 02 10 46 80 03 03 10  .....E.#...F....
03A0: 23 80 1D 47 80 23 03 01  10 48 80 43 00 43 01 02  #..G.#...H.C.C..
03B0: 02 10 0A 80 00 E7 03 03  02 10 0A 80 24 49 80 0B  ............$I..
03C0: 80 0A 80 25 02 00 10 0A  80 00 D4 03 03 01 10 4A  ...%...........J
03D0: 80 01 E4 03 02 00 10 0B  80 00 E4 03 03 01 10 0A  ................
03E0: 80 01 E4 03 01 EC 03 03  01 10 11 80 01 2F 07 02  ............./..
03F0: 00 10 11 80 00 57 04 03  02 10 3F 80 1D 0C 80 23  .....W....?....#
0400: 03 02 10 4B 80 03 03 10  4C 80 1D 47 80 23 03 01  ...K....L..G.#..
0410: 10 4D 80 43 00 43 01 02  02 10 0A 80 00 4F 04 03  .M.C.C.......O..
0420: 02 10 3F 80 24 4E 80 0B  80 0A 80 25 02 00 10 0A  ..?.$N.....%....
0430: 80 00 3C 04 03 01 10 4F  80 01 4C 04 02 00 10 0B  ..<....O..L.....
0440: 80 00 4C 04 03 01 10 0A  80 01 4C 04 01 54 04 03  ..L.......L..T..
0450: 01 10 11 80 01 2F 07 02  00 10 1A 80 00 BF 04 03  ...../..........
0460: 02 10 40 80 1D 0C 80 23  03 02 10 50 80 03 03 10  ..@....#...P....
0470: 51 80 1D 47 80 23 03 01  10 52 80 43 00 43 01 02  Q..G.#...R.C.C..
0480: 02 10 0A 80 00 B7 04 03  02 10 40 80 24 4E 80 0B  ..........@.$N..
0490: 80 0A 80 25 02 00 10 0A  80 00 A4 04 03 01 10 53  ...%...........S
04A0: 80 01 B4 04 02 00 10 0B  80 00 B4 04 03 01 10 0A  ................
04B0: 80 01 B4 04 01 BC 04 03  01 10 11 80 01 2F 07 02  ............./..
04C0: 00 10 1E 80 00 27 05 03  02 10 0B 80 1D 45 80 23  .....'.......E.#
04D0: 03 02 10 46 80 03 03 10  23 80 1D 47 80 23 03 01  ...F....#..G.#..
04E0: 10 48 80 43 00 43 01 02  02 10 0A 80 00 1F 05 03  .H.C.C..........
04F0: 02 10 0B 80 24 49 80 0B  80 0A 80 25 02 00 10 0A  ....$I.....%....
0500: 80 00 0C 05 03 01 10 54  80 01 1C 05 02 00 10 0B  .......T........
0510: 80 00 1C 05 03 01 10 0A  80 01 1C 05 01 24 05 03  .............$..
0520: 01 10 11 80 01 2F 07 02  00 10 23 80 00 8F 05 03  ...../....#.....
0530: 02 10 41 80 1D 0C 80 23  03 02 10 4B 80 03 03 10  ..A....#...K....
0540: 4C 80 1D 47 80 23 03 01  10 4D 80 43 00 43 01 02  L..G.#...M.C.C..
0550: 02 10 0A 80 00 87 05 03  02 10 41 80 24 4E 80 0B  ..........A.$N..
0560: 80 0A 80 25 02 00 10 0A  80 00 74 05 03 01 10 55  ...%......t....U
0570: 80 01 84 05 02 00 10 0B  80 00 84 05 03 01 10 0A  ................
0580: 80 01 84 05 01 8C 05 03  01 10 11 80 01 2F 07 02  ............./..
0590: 00 10 28 80 00 F7 05 03  02 10 42 80 1D 0C 80 23  ..(.......B....#
05A0: 03 02 10 50 80 03 03 10  51 80 1D 47 80 23 03 01  ...P....Q..G.#..
05B0: 10 52 80 43 00 43 01 02  02 10 0A 80 00 EF 05 03  .R.C.C..........
05C0: 02 10 42 80 24 4E 80 0B  80 0A 80 25 02 00 10 0A  ..B.$N.....%....
05D0: 80 00 DC 05 03 01 10 56  80 01 EC 05 02 00 10 0B  .......V........
05E0: 80 00 EC 05 03 01 10 0A  80 01 EC 05 01 F4 05 03  ................
05F0: 01 10 11 80 01 2F 07 02  00 10 2B 80 00 5F 06 03  ...../....+.._..
0600: 02 10 43 80 1D 0C 80 23  03 02 10 46 80 03 03 10  ..C....#...F....
0610: 23 80 1D 47 80 23 03 01  10 48 80 43 00 43 01 02  #..G.#...H.C.C..
0620: 02 10 0A 80 00 57 06 03  02 10 43 80 24 4E 80 0B  .....W....C.$N..
0630: 80 0A 80 25 02 00 10 0A  80 00 44 06 03 01 10 57  ...%......D....W
0640: 80 01 54 06 02 00 10 0B  80 00 54 06 03 01 10 0A  ..T.......T.....
0650: 80 01 54 06 01 5C 06 03  01 10 11 80 01 2F 07 02  ..T..\......./..
0660: 00 10 31 80 00 C7 06 03  02 10 11 80 1D 45 80 23  ..1..........E.#
0670: 03 02 10 4B 80 03 03 10  4C 80 1D 47 80 23 03 01  ...K....L..G.#..
0680: 10 4D 80 43 00 43 01 02  02 10 0A 80 00 BF 06 03  .M.C.C..........
0690: 02 10 11 80 24 49 80 0B  80 0A 80 25 02 00 10 0A  ....$I.....%....
06A0: 80 00 AC 06 03 01 10 58  80 01 BC 06 02 00 10 0B  .......X........
06B0: 80 00 BC 06 03 01 10 0A  80 01 BC 06 01 C4 06 03  ................
06C0: 01 10 11 80 01 2F 07 02  00 10 3C 80 00 2F 07 03  ...../....<../..
06D0: 02 10 1A 80 1D 45 80 23  03 02 10 50 80 03 03 10  .....E.#...P....
06E0: 51 80 1D 47 80 23 03 01  10 52 80 43 00 43 01 02  Q..G.#...R.C.C..
06F0: 02 10 0A 80 00 27 07 03  02 10 1A 80 24 49 80 0B  .....'......$I..
0700: 80 0A 80 25 02 00 10 0A  80 00 14 07 03 01 10 59  ...%...........Y
0710: 80 01 24 07 02 00 10 0B  80 00 24 07 03 01 10 0A  ..$.......$.....
0720: 80 01 24 07 01 2C 07 03  01 10 11 80 01 2F 07 01  ..$..,......./..
0730: 37 07 03 01 10 0B 80 2E  20 00 21 00              7....... .!.    
```

#### Opcodes

```
  0: 0x0001 [0x20] SET_CLI_EVENT_UC_FLAG: Lock player control
  1: 0x0003 [0x42] SET_CLI_EVENT_CANCEL_DATA()
  2: 0x0004 [0x1E] EventEntity looks at LocalPlayer and starts talking
  3: 0x0009 [0x6F] WAIT_FRAME_DELAY: Yield until WaitTime reaches zero
  4: 0x000A [0x70] WAIT_ENTITY_RENDER_FLAG: Wait while EventEntity->Render.Flags3 bit 2 is set (cancel turn if not)
  5: 0x000B [0x03] ExtData[1]->WorkLocal[0] = Work_Zone[2]
  6: 0x0010 [0x1D] PRINT_EVENT_MESSAGE(message_id=8178*)
    → "Yeah? You want somethin' from me?"
  7: 0x0013 [0x23] WAIT_FOR_DIALOG_INTERACTION
  8: 0x0014 [0x03] Work_Zone[2] = 1105*
  9: 0x0019 [0x03] Work_Zone[3] = 1106*
 10: 0x001E [0x03] Work_Zone[4] = 1129*
 11: 0x0023 [0x03] Work_Zone[5] = 1130*
 12: 0x0028 [0x03] Work_Zone[6] = 1132*
 13: 0x002D [0x03] Work_Zone[7] = 1184*
 14: 0x0032 [0x03] Work_Zone[8] = 1185*
 15: 0x0037 [0x03] Work_Zone[9] = 1187*
 16: 0x003C [0x24] CREATE_DIALOG(message_id=8179*, default_option=0*, option_flags=ExtData[1]->WorkLocal[0])
    → "What you want? [Nothing in particular./6./$6./$6./$6./$6./$6./$6./$6./A certain something else...]"
 17: 0x0043 [0x25] WAIT_DIALOG_SELECT()
 18: 0x0044 [0x02] IF !(Work_Zone[0] == 1*) GOTO 0x0070
 19: 0x004C [0x03] Work_Zone[2] = 1105*
 20: 0x0051 [0x1D] PRINT_EVENT_MESSAGE(message_id=8180*)
    → "So you want $3...that right?"
 21: 0x0054 [0x23] WAIT_FOR_DIALOG_INTERACTION
 22: 0x0055 [0x03] Work_Zone[2] = 2740*
 23: 0x005A [0x03] Work_Zone[3] = 2741*
 24: 0x005F [0x03] Work_Zone[4] = 2742*
 25: 0x0064 [0x1D] PRINT_EVENT_MESSAGE(message_id=8181*)
    → "How you gonna make it worth my while? Eh? Bring me $0, $1, and $2 and I just might think about it...maybe. If I feel like it."
 26: 0x0067 [0x23] WAIT_FOR_DIALOG_INTERACTION
 27: 0x0068 [0x03] Work_Zone[1] = 0*
 28: 0x006D [0x01] GOTO 0x0737
 29: 0x0070 [0x02] IF !(Work_Zone[0] == 2*) GOTO 0x00E3
 30: 0x0078 [0x03] Work_Zone[2] = 1106*
 31: 0x007D [0x1D] PRINT_EVENT_MESSAGE(message_id=8180*)
    → "So you want $3...that right?"
 32: 0x0080 [0x23] WAIT_FOR_DIALOG_INTERACTION
 33: 0x0081 [0x03] Work_Zone[1] = 100*
 34: 0x0086 [0x43] SEND_EVENT_UPDATE: Send pending tag to server (packet 0x005B)
 35: 0x0088 [0x43] SEND_EVENT_UPDATE: Check pending flag (skip if not pending)
 36: 0x008A [0x03] ExtData[1]->WorkLocal[2] = Work_Zone[2]
 37: 0x008F [0x03] Work_Zone[2] = 1085*
 38: 0x0094 [0x03] Work_Zone[3] = 1086*
 39: 0x0099 [0x03] Work_Zone[4] = 1087*
 40: 0x009E [0x03] Work_Zone[5] = 1106*
 41: 0x00A3 [0x02] IF !(ExtData[1]->WorkLocal[2] == 0*) GOTO 0x00B7
 42: 0x00AB [0x1D] PRINT_EVENT_MESSAGE(message_id=8182*)
    → "You gonna make it worth my while? Eh? Bring me $3, $3, and $3 and I just might think about it...maybe. If I feel like it."
 43: 0x00AE [0x23] WAIT_FOR_DIALOG_INTERACTION
 44: 0x00AF [0x03] Work_Zone[1] = 0*
 45: 0x00B4 [0x01] GOTO 0x00E0
 46: 0x00B7 [0x1D] PRINT_EVENT_MESSAGE(message_id=8183*)
    → "Then you give me $3, $3, and $3 and we gotta deal. Whaddaya think?"
 47: 0x00BA [0x23] WAIT_FOR_DIALOG_INTERACTION
 48: 0x00BB [0x03] Work_Zone[2] = 1106*
 49: 0x00C0 [0x48] [System] [8184*]:
    → "Accepting the $3 will trigger a time limit for the quest, "Gatherer of Light.""
 50: 0x00C3 [0x24] CREATE_DIALOG(message_id=8185*, default_option=1*, option_flags=0*)
    → "Make the trade? [It's a deal!/On second thought...]"
 51: 0x00CA [0x25] WAIT_DIALOG_SELECT()
 52: 0x00CB [0x02] IF !(Work_Zone[0] == 0*) GOTO 0x00DB
 53: 0x00D3 [0x03] Work_Zone[1] = 100*
 54: 0x00D8 [0x01] GOTO 0x00E0
 55: 0x00DB [0x03] Work_Zone[1] = 1*

SUBROUTINE_00E0:
 56: 0x00E0 [0x01] GOTO 0x0737
 57: 0x00E3 [0x02] IF !(Work_Zone[0] == 3*) GOTO 0x010F
 58: 0x00EB [0x03] Work_Zone[2] = 1129*
 59: 0x00F0 [0x1D] PRINT_EVENT_MESSAGE(message_id=8180*)
    → "So you want $3...that right?"
 60: 0x00F3 [0x23] WAIT_FOR_DIALOG_INTERACTION
 61: 0x00F4 [0x03] Work_Zone[2] = 2757*
 62: 0x00F9 [0x03] Work_Zone[3] = 2758*
 63: 0x00FE [0x03] Work_Zone[4] = 2759*
 64: 0x0103 [0x1D] PRINT_EVENT_MESSAGE(message_id=8181*)
    → "How you gonna make it worth my while? Eh? Bring me $0, $1, and $2 and I just might think about it...maybe. If I feel like it."
 65: 0x0106 [0x23] WAIT_FOR_DIALOG_INTERACTION
 66: 0x0107 [0x03] Work_Zone[1] = 0*
 67: 0x010C [0x01] GOTO 0x0737
 68: 0x010F [0x02] IF !(Work_Zone[0] == 4*) GOTO 0x017A
 69: 0x0117 [0x03] Work_Zone[2] = 1130*
 70: 0x011C [0x1D] PRINT_EVENT_MESSAGE(message_id=8180*)
    → "So you want $3...that right?"
 71: 0x011F [0x23] WAIT_FOR_DIALOG_INTERACTION
 72: 0x0120 [0x03] Work_Zone[1] = 101*
 73: 0x0125 [0x43] SEND_EVENT_UPDATE: Send pending tag to server (packet 0x005B)
 74: 0x0127 [0x43] SEND_EVENT_UPDATE: Check pending flag (skip if not pending)
 75: 0x0129 [0x03] ExtData[1]->WorkLocal[2] = Work_Zone[2]
 76: 0x012E [0x03] Work_Zone[2] = 1136*
 77: 0x0133 [0x03] Work_Zone[3] = 1137*
 78: 0x0138 [0x03] Work_Zone[4] = 1138*
 79: 0x013D [0x02] IF !(ExtData[1]->WorkLocal[2] == 0*) GOTO 0x0151
 80: 0x0145 [0x1D] PRINT_EVENT_MESSAGE(message_id=8182*)
    → "You gonna make it worth my while? Eh? Bring me $3, $3, and $3 and I just might think about it...maybe. If I feel like it."
 81: 0x0148 [0x23] WAIT_FOR_DIALOG_INTERACTION
 82: 0x0149 [0x03] Work_Zone[1] = 0*
 83: 0x014E [0x01] GOTO 0x0177
 84: 0x0151 [0x1D] PRINT_EVENT_MESSAGE(message_id=8183*)
    → "Then you give me $3, $3, and $3 and we gotta deal. Whaddaya think?"
 85: 0x0154 [0x23] WAIT_FOR_DIALOG_INTERACTION
 86: 0x0155 [0x03] Work_Zone[2] = 1130*
 87: 0x015A [0x24] CREATE_DIALOG(message_id=8185*, default_option=1*, option_flags=0*)
    → "Make the trade? [It's a deal!/On second thought...]"
 88: 0x0161 [0x25] WAIT_DIALOG_SELECT()
 89: 0x0162 [0x02] IF !(Work_Zone[0] == 0*) GOTO 0x0172
 90: 0x016A [0x03] Work_Zone[1] = 101*
 91: 0x016F [0x01] GOTO 0x0177
 92: 0x0172 [0x03] Work_Zone[1] = 1*

SUBROUTINE_0177:
 93: 0x0177 [0x01] GOTO 0x0737
 94: 0x017A [0x02] IF !(Work_Zone[0] == 5*) GOTO 0x01FE
 95: 0x0182 [0x03] Work_Zone[2] = 1132*
 96: 0x0187 [0x1D] PRINT_EVENT_MESSAGE(message_id=8180*)
    → "So you want $3...that right?"
 97: 0x018A [0x23] WAIT_FOR_DIALOG_INTERACTION
 98: 0x018B [0x03] Work_Zone[1] = 102*
 99: 0x0190 [0x43] SEND_EVENT_UPDATE: Send pending tag to server (packet 0x005B)
100: 0x0192 [0x43] SEND_EVENT_UPDATE: Check pending flag (skip if not pending)
101: 0x0194 [0x03] ExtData[1]->WorkLocal[2] = Work_Zone[2]
102: 0x0199 [0x03] ExtData[1]->WorkLocal[3] = Work_Zone[3]
103: 0x019E [0x03] ExtData[1]->WorkLocal[4] = Work_Zone[4]
104: 0x01A3 [0x02] IF !(ExtData[1]->WorkLocal[2] == 0*) GOTO 0x01D0
105: 0x01AB [0x03] Work_Zone[2] = 1144*
106: 0x01B0 [0x1D] PRINT_EVENT_MESSAGE(message_id=8190*)
    → "How ya gonna make it worth my while? Eh? I got it. How 'bout ya fetch me $3? Yeah, that should do the trick."
107: 0x01B3 [0x23] WAIT_FOR_DIALOG_INTERACTION
108: 0x01B4 [0x03] Work_Zone[3] = ExtData[1]->WorkLocal[4]
109: 0x01B9 [0x02] IF !(ExtData[1]->WorkLocal[3] == 0*) GOTO 0x01C4
110: 0x01C1 [0x01] GOTO 0x01C8
111: 0x01C4 [0x1D] PRINT_EVENT_MESSAGE(message_id=8191*)
    → "[$3$3e$3093516$3o$3 [$3N$3 [$3 $; [u/$3W$3$3$3O$3i[$P10X%Q/$3R$3$3V$3$5$3^$3b$3g$2$P12n/$3p$3V$3$5$3n$3E$@/$3^$3$3$3M$P11e [,$P12J/$3u$3u$3$3 $P14<$7/$3$3$3t$3@$3g$R$P12n/$P109$P12n$3WE$3^/$3$6$3^$3$3K$P11e$P10X%Q/$3%3A$3g$3 [$P11e$P10X%Q/$P10<$3A$3 [$3e$3p$;$25/$12$3A$3 [$3e$3p$;$25]E$4_=$3[$3O$3$1A)=B/Where can ya find it!? Ya need me to tell ya everything?/Bah, fine. My buddies say they saw a moogle actin' all suspicious-like over in [La Theine Plateau/Valkurm Dunes/Jugner Forest/Konschtat Highlands/Pashhow Marshlands/Tahrongi Canyon/Buburimu Peninsula/Meriphataud Mountains/The Sanctuary of Zi'Tah/Yuhtunga Jungle/Yhoator Jungle/Western Altepa Desert/Eastern Altepa Desert]./And that's the straight Gobbie dope.]"
112: 0x01C7 [0x23] WAIT_FOR_DIALOG_INTERACTION

SUBROUTINE_01C8:
113: 0x01C8 [0x03] Work_Zone[1] = 0*
114: 0x01CD [0x01] GOTO 0x01FB
115: 0x01D0 [0x03] Work_Zone[2] = 1144*
116: 0x01D5 [0x1D] PRINT_EVENT_MESSAGE(message_id=8190*)
    → "How ya gonna make it worth my while? Eh? I got it. How 'bout ya fetch me $3? Yeah, that should do the trick."
117: 0x01D8 [0x23] WAIT_FOR_DIALOG_INTERACTION
118: 0x01D9 [0x03] Work_Zone[2] = 1132*
119: 0x01DE [0x24] CREATE_DIALOG(message_id=8185*, default_option=1*, option_flags=0*)
    → "Make the trade? [It's a deal!/On second thought...]"
120: 0x01E5 [0x25] WAIT_DIALOG_SELECT()
121: 0x01E6 [0x02] IF !(Work_Zone[0] == 0*) GOTO 0x01F6
122: 0x01EE [0x03] Work_Zone[1] = 102*
123: 0x01F3 [0x01] GOTO 0x01FB
124: 0x01F6 [0x03] Work_Zone[1] = 1*

SUBROUTINE_01FB:
125: 0x01FB [0x01] GOTO 0x0737
126: 0x01FE [0x02] IF !(Work_Zone[0] == 6*) GOTO 0x0224
127: 0x0206 [0x03] Work_Zone[2] = 1184*
128: 0x020B [0x1D] PRINT_EVENT_MESSAGE(message_id=8180*)
    → "So you want $3...that right?"
129: 0x020E [0x23] WAIT_FOR_DIALOG_INTERACTION
130: 0x020F [0x03] Work_Zone[1] = 103*
131: 0x0214 [0x43] SEND_EVENT_UPDATE: Send pending tag to server (packet 0x005B)
132: 0x0216 [0x43] SEND_EVENT_UPDATE: Check pending flag (skip if not pending)
133: 0x0218 [0x1D] PRINT_EVENT_MESSAGE(message_id=8192*)
    → "How you gonna make it worth my while? Eh? Bring me $0, and I just might think about it...maybe. If I feel like it."
134: 0x021B [0x23] WAIT_FOR_DIALOG_INTERACTION
135: 0x021C [0x03] Work_Zone[1] = 0*
136: 0x0221 [0x01] GOTO 0x0737
137: 0x0224 [0x02] IF !(Work_Zone[0] == 7*) GOTO 0x02B0
138: 0x022C [0x03] Work_Zone[2] = 1185*
139: 0x0231 [0x1D] PRINT_EVENT_MESSAGE(message_id=8180*)
    → "So you want $3...that right?"
140: 0x0234 [0x23] WAIT_FOR_DIALOG_INTERACTION
141: 0x0235 [0x03] Work_Zone[1] = 104*
142: 0x023A [0x43] SEND_EVENT_UPDATE: Send pending tag to server (packet 0x005B)
143: 0x023C [0x43] SEND_EVENT_UPDATE: Check pending flag (skip if not pending)
144: 0x023E [0x02] IF !(Work_Zone[4] == 0*) GOTO 0x024E
145: 0x0246 [0x03] Work_Zone[1] = 0*
146: 0x024B [0x01] GOTO 0x02AD
147: 0x024E [0x02] IF !(Work_Zone[4] == 1*) GOTO 0x0276
148: 0x0256 [0x02] IF !(Work_Zone[3] == 0*) GOTO 0x026A
149: 0x025E [0x1D] PRINT_EVENT_MESSAGE(message_id=8195*)
    → "It'll cost ya three counterseals...no wait, more! Ahhh, I'll take whatever ya got, but no less than three. Deal?"
150: 0x0261 [0x23] WAIT_FOR_DIALOG_INTERACTION
151: 0x0262 [0x03] Work_Zone[1] = 0*
152: 0x0267 [0x01] GOTO 0x0273
153: 0x026A [0x1D] PRINT_EVENT_MESSAGE(message_id=8193*)
    → "You see these six magic seals? They're worthless, but the counterseals they're attached to'll fetch a good price. Get the seals off of say...three of 'em for me, and I'll give ya the goods."
154: 0x026D [0x23] WAIT_FOR_DIALOG_INTERACTION
155: 0x026E [0x03] Work_Zone[1] = 103*

SUBROUTINE_0273:
156: 0x0273 [0x01] GOTO 0x02AD
157: 0x0276 [0x02] IF !(Work_Zone[4] == 2*) GOTO 0x02AD
158: 0x027E [0x1D] PRINT_EVENT_MESSAGE(message_id=8194*)
    → "Oho! Looks like you got $1 [counterseal/counterseals]. You wanna trade [it/'em] for $6?"
159: 0x0281 [0x23] WAIT_FOR_DIALOG_INTERACTION
160: 0x0282 [0x24] CREATE_DIALOG(message_id=8185*, default_option=1*, option_flags=0*)
    → "Make the trade? [It's a deal!/On second thought...]"
161: 0x0289 [0x25] WAIT_DIALOG_SELECT()
162: 0x028A [0x02] IF !(Work_Zone[0] == 0*) GOTO 0x029A
163: 0x0292 [0x03] Work_Zone[1] = 105*
164: 0x0297 [0x01] GOTO 0x02AA
165: 0x029A [0x02] IF !(Work_Zone[0] == 1*) GOTO 0x02AA
166: 0x02A2 [0x03] Work_Zone[1] = 1*
167: 0x02A7 [0x01] GOTO 0x02AA

SUBROUTINE_02AA:
168: 0x02AA [0x01] GOTO 0x02AD

SUBROUTINE_02AD:
169: 0x02AD [0x01] GOTO 0x0737
170: 0x02B0 [0x02] IF !(Work_Zone[0] == 8*) GOTO 0x033C
171: 0x02B8 [0x03] Work_Zone[2] = 1187*
172: 0x02BD [0x1D] PRINT_EVENT_MESSAGE(message_id=8180*)
    → "So you want $3...that right?"
173: 0x02C0 [0x23] WAIT_FOR_DIALOG_INTERACTION
174: 0x02C1 [0x03] Work_Zone[1] = 105*
175: 0x02C6 [0x43] SEND_EVENT_UPDATE: Send pending tag to server (packet 0x005B)
176: 0x02C8 [0x43] SEND_EVENT_UPDATE: Check pending flag (skip if not pending)
177: 0x02CA [0x03] ExtData[1]->WorkLocal[2] = Work_Zone[2]
178: 0x02CF [0x03] Work_Zone[2] = 1204*
179: 0x02D4 [0x03] Work_Zone[3] = 1205*
180: 0x02D9 [0x03] Work_Zone[4] = 1206*
181: 0x02DE [0x03] Work_Zone[5] = 1207*
182: 0x02E3 [0x02] IF !(ExtData[1]->WorkLocal[2] == 0*) GOTO 0x0305
183: 0x02EB [0x1D] PRINT_EVENT_MESSAGE(message_id=8196*)
    → "Then you fetch me $3, $3, $3, and $3."
184: 0x02EE [0x23] WAIT_FOR_DIALOG_INTERACTION
185: 0x02EF [0x03] Work_Zone[6] = 1208*
186: 0x02F4 [0x03] Work_Zone[7] = 1209*
187: 0x02F9 [0x1D] PRINT_EVENT_MESSAGE(message_id=8197*)
    → "That ain't all! I'll be needin' $3 and $3, too. Then it's a deal."
188: 0x02FC [0x23] WAIT_FOR_DIALOG_INTERACTION
189: 0x02FD [0x03] Work_Zone[1] = 0*
190: 0x0302 [0x01] GOTO 0x0339
191: 0x0305 [0x1D] PRINT_EVENT_MESSAGE(message_id=8198*)
    → "You give me $3, $3, $3, $3..."
192: 0x0308 [0x23] WAIT_FOR_DIALOG_INTERACTION
193: 0x0309 [0x03] Work_Zone[6] = 1208*
194: 0x030E [0x03] Work_Zone[7] = 1209*
195: 0x0313 [0x1D] PRINT_EVENT_MESSAGE(message_id=8199*)
    → "Also $3 and $3, and it's a done deal. Sound good?"
196: 0x0316 [0x23] WAIT_FOR_DIALOG_INTERACTION
197: 0x0317 [0x03] Work_Zone[2] = 1187*
198: 0x031C [0x24] CREATE_DIALOG(message_id=8185*, default_option=1*, option_flags=0*)
    → "Make the trade? [It's a deal!/On second thought...]"
199: 0x0323 [0x25] WAIT_DIALOG_SELECT()
200: 0x0324 [0x02] IF !(Work_Zone[0] == 0*) GOTO 0x0334
201: 0x032C [0x03] Work_Zone[1] = 104*
202: 0x0331 [0x01] GOTO 0x0339
203: 0x0334 [0x03] Work_Zone[1] = 1*

SUBROUTINE_0339:
204: 0x0339 [0x01] GOTO 0x0737
205: 0x033C [0x02] IF !(Work_Zone[0] == 9*) GOTO 0x0732
206: 0x0344 [0x1D] PRINT_EVENT_MESSAGE(message_id=8200*)
    → "Why, you greedier than Grand Greedalox! You want goods, you pay me both gil and beastmen's seals. Or we no do business."
207: 0x0347 [0x23] WAIT_FOR_DIALOG_INTERACTION
208: 0x0348 [0x03] Work_Zone[1] = 203*
209: 0x034D [0x43] SEND_EVENT_UPDATE: Send pending tag to server (packet 0x005B)
210: 0x034F [0x43] SEND_EVENT_UPDATE: Check pending flag (skip if not pending)
211: 0x0351 [0x03] ExtData[1]->WorkLocal[1] = Work_Zone[2]
212: 0x0356 [0x03] Work_Zone[3] = 1091*
213: 0x035B [0x03] Work_Zone[4] = 1104*
214: 0x0360 [0x03] Work_Zone[5] = 1158*
215: 0x0365 [0x03] Work_Zone[6] = 1159*
216: 0x036A [0x03] Work_Zone[7] = 1203*
217: 0x036F [0x24] CREATE_DIALOG(message_id=8201*, default_option=0*, option_flags=ExtData[1]->WorkLocal[1])
    → "What you want? [None of these." Seedspalls./$3./$3./4 Mana Orbs./$3./$3./$3./8 Star Tree Sap Crystals./16 Tablets of Hexes.]"
218: 0x0376 [0x25] WAIT_DIALOG_SELECT()
219: 0x0377 [0x02] IF !(Work_Zone[0] == 0*) GOTO 0x0387
220: 0x037F [0x03] Work_Zone[1] = 1*
221: 0x0384 [0x01] GOTO 0x072F
222: 0x0387 [0x02] IF !(Work_Zone[0] == 1*) GOTO 0x03EF
223: 0x038F [0x03] Work_Zone[2] = 0*
224: 0x0394 [0x1D] PRINT_EVENT_MESSAGE(message_id=8205*)
    → "So it's the set of [three Seedspalls/four Mana Orbs/eight sap crystals/sixteen Tablets of Hexes] you want? That right?"
225: 0x0397 [0x23] WAIT_FOR_DIALOG_INTERACTION
226: 0x0398 [0x03] Work_Zone[2] = 500*
227: 0x039D [0x03] Work_Zone[3] = 5*
228: 0x03A2 [0x1D] PRINT_EVENT_MESSAGE(message_id=8202*)
    → "That'll cost ya $0 gil and $1 beastmen's [seal/seals]. The seals I get straight from Shami. I got a deal goin' with him, ya see."
229: 0x03A5 [0x23] WAIT_FOR_DIALOG_INTERACTION
230: 0x03A6 [0x03] Work_Zone[1] = 200*
231: 0x03AB [0x43] SEND_EVENT_UPDATE: Send pending tag to server (packet 0x005B)
232: 0x03AD [0x43] SEND_EVENT_UPDATE: Check pending flag (skip if not pending)
233: 0x03AF [0x02] IF !(Work_Zone[2] == 0*) GOTO 0x03E7
234: 0x03B7 [0x03] Work_Zone[2] = 0*
235: 0x03BC [0x24] CREATE_DIALOG(message_id=8206*, default_option=1*, option_flags=0*)
    → "Acquire a set of [three Seedspalls/four Mana Orbs/eight sap crystals/sixteen Tablets of Hexes]? [Yes, please./On second thought...]"
236: 0x03C3 [0x25] WAIT_DIALOG_SELECT()
237: 0x03C4 [0x02] IF !(Work_Zone[0] == 0*) GOTO 0x03D4
238: 0x03CC [0x03] Work_Zone[1] = 300*
239: 0x03D1 [0x01] GOTO 0x03E4
240: 0x03D4 [0x02] IF !(Work_Zone[0] == 1*) GOTO 0x03E4
241: 0x03DC [0x03] Work_Zone[1] = 0*
242: 0x03E1 [0x01] GOTO 0x03E4

SUBROUTINE_03E4:
243: 0x03E4 [0x01] GOTO 0x03EC
244: 0x03E7 [0x03] Work_Zone[1] = 2*

SUBROUTINE_03EC:
245: 0x03EC [0x01] GOTO 0x072F
246: 0x03EF [0x02] IF !(Work_Zone[0] == 2*) GOTO 0x0457
247: 0x03F7 [0x03] Work_Zone[2] = 1091*
248: 0x03FC [0x1D] PRINT_EVENT_MESSAGE(message_id=8180*)
    → "So you want $3...that right?"
249: 0x03FF [0x23] WAIT_FOR_DIALOG_INTERACTION
250: 0x0400 [0x03] Work_Zone[2] = 1500*
251: 0x0405 [0x03] Work_Zone[3] = 15*
252: 0x040A [0x1D] PRINT_EVENT_MESSAGE(message_id=8202*)
    → "That'll cost ya $0 gil and $1 beastmen's [seal/seals]. The seals I get straight from Shami. I got a deal goin' with him, ya see."
253: 0x040D [0x23] WAIT_FOR_DIALOG_INTERACTION
254: 0x040E [0x03] Work_Zone[1] = 201*
255: 0x0413 [0x43] SEND_EVENT_UPDATE: Send pending tag to server (packet 0x005B)
256: 0x0415 [0x43] SEND_EVENT_UPDATE: Check pending flag (skip if not pending)
257: 0x0417 [0x02] IF !(Work_Zone[2] == 0*) GOTO 0x044F
258: 0x041F [0x03] Work_Zone[2] = 1091*
259: 0x0424 [0x24] CREATE_DIALOG(message_id=8207*, default_option=1*, option_flags=0*)
    → "Acquire $6? [Yes, please./On second thought...]"
260: 0x042B [0x25] WAIT_DIALOG_SELECT()
261: 0x042C [0x02] IF !(Work_Zone[0] == 0*) GOTO 0x043C
262: 0x0434 [0x03] Work_Zone[1] = 301*
263: 0x0439 [0x01] GOTO 0x044C
264: 0x043C [0x02] IF !(Work_Zone[0] == 1*) GOTO 0x044C
265: 0x0444 [0x03] Work_Zone[1] = 0*
266: 0x0449 [0x01] GOTO 0x044C

SUBROUTINE_044C:
267: 0x044C [0x01] GOTO 0x0454
268: 0x044F [0x03] Work_Zone[1] = 2*

SUBROUTINE_0454:
269: 0x0454 [0x01] GOTO 0x072F
270: 0x0457 [0x02] IF !(Work_Zone[0] == 3*) GOTO 0x04BF
271: 0x045F [0x03] Work_Zone[2] = 1104*
272: 0x0464 [0x1D] PRINT_EVENT_MESSAGE(message_id=8180*)
    → "So you want $3...that right?"
273: 0x0467 [0x23] WAIT_FOR_DIALOG_INTERACTION
274: 0x0468 [0x03] Work_Zone[2] = 2000*
275: 0x046D [0x03] Work_Zone[3] = 20*
276: 0x0472 [0x1D] PRINT_EVENT_MESSAGE(message_id=8202*)
    → "That'll cost ya $0 gil and $1 beastmen's [seal/seals]. The seals I get straight from Shami. I got a deal goin' with him, ya see."
277: 0x0475 [0x23] WAIT_FOR_DIALOG_INTERACTION
278: 0x0476 [0x03] Work_Zone[1] = 202*
279: 0x047B [0x43] SEND_EVENT_UPDATE: Send pending tag to server (packet 0x005B)
280: 0x047D [0x43] SEND_EVENT_UPDATE: Check pending flag (skip if not pending)
281: 0x047F [0x02] IF !(Work_Zone[2] == 0*) GOTO 0x04B7
282: 0x0487 [0x03] Work_Zone[2] = 1104*
283: 0x048C [0x24] CREATE_DIALOG(message_id=8207*, default_option=1*, option_flags=0*)
    → "Acquire $6? [Yes, please./On second thought...]"
284: 0x0493 [0x25] WAIT_DIALOG_SELECT()
285: 0x0494 [0x02] IF !(Work_Zone[0] == 0*) GOTO 0x04A4
286: 0x049C [0x03] Work_Zone[1] = 302*
287: 0x04A1 [0x01] GOTO 0x04B4
288: 0x04A4 [0x02] IF !(Work_Zone[0] == 1*) GOTO 0x04B4
289: 0x04AC [0x03] Work_Zone[1] = 0*
290: 0x04B1 [0x01] GOTO 0x04B4

SUBROUTINE_04B4:
291: 0x04B4 [0x01] GOTO 0x04BC
292: 0x04B7 [0x03] Work_Zone[1] = 2*

SUBROUTINE_04BC:
293: 0x04BC [0x01] GOTO 0x072F
294: 0x04BF [0x02] IF !(Work_Zone[0] == 4*) GOTO 0x0527
295: 0x04C7 [0x03] Work_Zone[2] = 1*
296: 0x04CC [0x1D] PRINT_EVENT_MESSAGE(message_id=8205*)
    → "So it's the set of [three Seedspalls/four Mana Orbs/eight sap crystals/sixteen Tablets of Hexes] you want? That right?"
297: 0x04CF [0x23] WAIT_FOR_DIALOG_INTERACTION
298: 0x04D0 [0x03] Work_Zone[2] = 500*
299: 0x04D5 [0x03] Work_Zone[3] = 5*
300: 0x04DA [0x1D] PRINT_EVENT_MESSAGE(message_id=8202*)
    → "That'll cost ya $0 gil and $1 beastmen's [seal/seals]. The seals I get straight from Shami. I got a deal goin' with him, ya see."
301: 0x04DD [0x23] WAIT_FOR_DIALOG_INTERACTION
302: 0x04DE [0x03] Work_Zone[1] = 200*
303: 0x04E3 [0x43] SEND_EVENT_UPDATE: Send pending tag to server (packet 0x005B)
304: 0x04E5 [0x43] SEND_EVENT_UPDATE: Check pending flag (skip if not pending)
305: 0x04E7 [0x02] IF !(Work_Zone[2] == 0*) GOTO 0x051F
306: 0x04EF [0x03] Work_Zone[2] = 1*
307: 0x04F4 [0x24] CREATE_DIALOG(message_id=8206*, default_option=1*, option_flags=0*)
    → "Acquire a set of [three Seedspalls/four Mana Orbs/eight sap crystals/sixteen Tablets of Hexes]? [Yes, please./On second thought...]"
308: 0x04FB [0x25] WAIT_DIALOG_SELECT()
309: 0x04FC [0x02] IF !(Work_Zone[0] == 0*) GOTO 0x050C
310: 0x0504 [0x03] Work_Zone[1] = 303*
311: 0x0509 [0x01] GOTO 0x051C
312: 0x050C [0x02] IF !(Work_Zone[0] == 1*) GOTO 0x051C
313: 0x0514 [0x03] Work_Zone[1] = 0*
314: 0x0519 [0x01] GOTO 0x051C

SUBROUTINE_051C:
315: 0x051C [0x01] GOTO 0x0524
316: 0x051F [0x03] Work_Zone[1] = 2*

SUBROUTINE_0524:
317: 0x0524 [0x01] GOTO 0x072F
318: 0x0527 [0x02] IF !(Work_Zone[0] == 5*) GOTO 0x058F
319: 0x052F [0x03] Work_Zone[2] = 1158*
320: 0x0534 [0x1D] PRINT_EVENT_MESSAGE(message_id=8180*)
    → "So you want $3...that right?"
321: 0x0537 [0x23] WAIT_FOR_DIALOG_INTERACTION
322: 0x0538 [0x03] Work_Zone[2] = 1500*
323: 0x053D [0x03] Work_Zone[3] = 15*
324: 0x0542 [0x1D] PRINT_EVENT_MESSAGE(message_id=8202*)
    → "That'll cost ya $0 gil and $1 beastmen's [seal/seals]. The seals I get straight from Shami. I got a deal goin' with him, ya see."
325: 0x0545 [0x23] WAIT_FOR_DIALOG_INTERACTION
326: 0x0546 [0x03] Work_Zone[1] = 201*
327: 0x054B [0x43] SEND_EVENT_UPDATE: Send pending tag to server (packet 0x005B)
328: 0x054D [0x43] SEND_EVENT_UPDATE: Check pending flag (skip if not pending)
329: 0x054F [0x02] IF !(Work_Zone[2] == 0*) GOTO 0x0587
330: 0x0557 [0x03] Work_Zone[2] = 1158*
331: 0x055C [0x24] CREATE_DIALOG(message_id=8207*, default_option=1*, option_flags=0*)
    → "Acquire $6? [Yes, please./On second thought...]"
332: 0x0563 [0x25] WAIT_DIALOG_SELECT()
333: 0x0564 [0x02] IF !(Work_Zone[0] == 0*) GOTO 0x0574
334: 0x056C [0x03] Work_Zone[1] = 304*
335: 0x0571 [0x01] GOTO 0x0584
336: 0x0574 [0x02] IF !(Work_Zone[0] == 1*) GOTO 0x0584
337: 0x057C [0x03] Work_Zone[1] = 0*
338: 0x0581 [0x01] GOTO 0x0584

SUBROUTINE_0584:
339: 0x0584 [0x01] GOTO 0x058C
340: 0x0587 [0x03] Work_Zone[1] = 2*

SUBROUTINE_058C:
341: 0x058C [0x01] GOTO 0x072F
342: 0x058F [0x02] IF !(Work_Zone[0] == 6*) GOTO 0x05F7
343: 0x0597 [0x03] Work_Zone[2] = 1159*
344: 0x059C [0x1D] PRINT_EVENT_MESSAGE(message_id=8180*)
    → "So you want $3...that right?"
345: 0x059F [0x23] WAIT_FOR_DIALOG_INTERACTION
346: 0x05A0 [0x03] Work_Zone[2] = 2000*
347: 0x05A5 [0x03] Work_Zone[3] = 20*
348: 0x05AA [0x1D] PRINT_EVENT_MESSAGE(message_id=8202*)
    → "That'll cost ya $0 gil and $1 beastmen's [seal/seals]. The seals I get straight from Shami. I got a deal goin' with him, ya see."
349: 0x05AD [0x23] WAIT_FOR_DIALOG_INTERACTION
350: 0x05AE [0x03] Work_Zone[1] = 202*
351: 0x05B3 [0x43] SEND_EVENT_UPDATE: Send pending tag to server (packet 0x005B)
352: 0x05B5 [0x43] SEND_EVENT_UPDATE: Check pending flag (skip if not pending)
353: 0x05B7 [0x02] IF !(Work_Zone[2] == 0*) GOTO 0x05EF
354: 0x05BF [0x03] Work_Zone[2] = 1159*
355: 0x05C4 [0x24] CREATE_DIALOG(message_id=8207*, default_option=1*, option_flags=0*)
    → "Acquire $6? [Yes, please./On second thought...]"
356: 0x05CB [0x25] WAIT_DIALOG_SELECT()
357: 0x05CC [0x02] IF !(Work_Zone[0] == 0*) GOTO 0x05DC
358: 0x05D4 [0x03] Work_Zone[1] = 305*
359: 0x05D9 [0x01] GOTO 0x05EC
360: 0x05DC [0x02] IF !(Work_Zone[0] == 1*) GOTO 0x05EC
361: 0x05E4 [0x03] Work_Zone[1] = 0*
362: 0x05E9 [0x01] GOTO 0x05EC

SUBROUTINE_05EC:
363: 0x05EC [0x01] GOTO 0x05F4
364: 0x05EF [0x03] Work_Zone[1] = 2*

SUBROUTINE_05F4:
365: 0x05F4 [0x01] GOTO 0x072F
366: 0x05F7 [0x02] IF !(Work_Zone[0] == 7*) GOTO 0x065F
367: 0x05FF [0x03] Work_Zone[2] = 1203*
368: 0x0604 [0x1D] PRINT_EVENT_MESSAGE(message_id=8180*)
    → "So you want $3...that right?"
369: 0x0607 [0x23] WAIT_FOR_DIALOG_INTERACTION
370: 0x0608 [0x03] Work_Zone[2] = 500*
371: 0x060D [0x03] Work_Zone[3] = 5*
372: 0x0612 [0x1D] PRINT_EVENT_MESSAGE(message_id=8202*)
    → "That'll cost ya $0 gil and $1 beastmen's [seal/seals]. The seals I get straight from Shami. I got a deal goin' with him, ya see."
373: 0x0615 [0x23] WAIT_FOR_DIALOG_INTERACTION
374: 0x0616 [0x03] Work_Zone[1] = 200*
375: 0x061B [0x43] SEND_EVENT_UPDATE: Send pending tag to server (packet 0x005B)
376: 0x061D [0x43] SEND_EVENT_UPDATE: Check pending flag (skip if not pending)
377: 0x061F [0x02] IF !(Work_Zone[2] == 0*) GOTO 0x0657
378: 0x0627 [0x03] Work_Zone[2] = 1203*
379: 0x062C [0x24] CREATE_DIALOG(message_id=8207*, default_option=1*, option_flags=0*)
    → "Acquire $6? [Yes, please./On second thought...]"
380: 0x0633 [0x25] WAIT_DIALOG_SELECT()
381: 0x0634 [0x02] IF !(Work_Zone[0] == 0*) GOTO 0x0644
382: 0x063C [0x03] Work_Zone[1] = 306*
383: 0x0641 [0x01] GOTO 0x0654
384: 0x0644 [0x02] IF !(Work_Zone[0] == 1*) GOTO 0x0654
385: 0x064C [0x03] Work_Zone[1] = 0*
386: 0x0651 [0x01] GOTO 0x0654

SUBROUTINE_0654:
387: 0x0654 [0x01] GOTO 0x065C
388: 0x0657 [0x03] Work_Zone[1] = 2*

SUBROUTINE_065C:
389: 0x065C [0x01] GOTO 0x072F
390: 0x065F [0x02] IF !(Work_Zone[0] == 8*) GOTO 0x06C7
391: 0x0667 [0x03] Work_Zone[2] = 2*
392: 0x066C [0x1D] PRINT_EVENT_MESSAGE(message_id=8205*)
    → "So it's the set of [three Seedspalls/four Mana Orbs/eight sap crystals/sixteen Tablets of Hexes] you want? That right?"
393: 0x066F [0x23] WAIT_FOR_DIALOG_INTERACTION
394: 0x0670 [0x03] Work_Zone[2] = 1500*
395: 0x0675 [0x03] Work_Zone[3] = 15*
396: 0x067A [0x1D] PRINT_EVENT_MESSAGE(message_id=8202*)
    → "That'll cost ya $0 gil and $1 beastmen's [seal/seals]. The seals I get straight from Shami. I got a deal goin' with him, ya see."
397: 0x067D [0x23] WAIT_FOR_DIALOG_INTERACTION
398: 0x067E [0x03] Work_Zone[1] = 201*
399: 0x0683 [0x43] SEND_EVENT_UPDATE: Send pending tag to server (packet 0x005B)
400: 0x0685 [0x43] SEND_EVENT_UPDATE: Check pending flag (skip if not pending)
401: 0x0687 [0x02] IF !(Work_Zone[2] == 0*) GOTO 0x06BF
402: 0x068F [0x03] Work_Zone[2] = 2*
403: 0x0694 [0x24] CREATE_DIALOG(message_id=8206*, default_option=1*, option_flags=0*)
    → "Acquire a set of [three Seedspalls/four Mana Orbs/eight sap crystals/sixteen Tablets of Hexes]? [Yes, please./On second thought...]"
404: 0x069B [0x25] WAIT_DIALOG_SELECT()
405: 0x069C [0x02] IF !(Work_Zone[0] == 0*) GOTO 0x06AC
406: 0x06A4 [0x03] Work_Zone[1] = 307*
407: 0x06A9 [0x01] GOTO 0x06BC
408: 0x06AC [0x02] IF !(Work_Zone[0] == 1*) GOTO 0x06BC
409: 0x06B4 [0x03] Work_Zone[1] = 0*
410: 0x06B9 [0x01] GOTO 0x06BC

SUBROUTINE_06BC:
411: 0x06BC [0x01] GOTO 0x06C4
412: 0x06BF [0x03] Work_Zone[1] = 2*

SUBROUTINE_06C4:
413: 0x06C4 [0x01] GOTO 0x072F
414: 0x06C7 [0x02] IF !(Work_Zone[0] == 9*) GOTO 0x072F
415: 0x06CF [0x03] Work_Zone[2] = 3*
416: 0x06D4 [0x1D] PRINT_EVENT_MESSAGE(message_id=8205*)
    → "So it's the set of [three Seedspalls/four Mana Orbs/eight sap crystals/sixteen Tablets of Hexes] you want? That right?"
417: 0x06D7 [0x23] WAIT_FOR_DIALOG_INTERACTION
418: 0x06D8 [0x03] Work_Zone[2] = 2000*
419: 0x06DD [0x03] Work_Zone[3] = 20*
420: 0x06E2 [0x1D] PRINT_EVENT_MESSAGE(message_id=8202*)
    → "That'll cost ya $0 gil and $1 beastmen's [seal/seals]. The seals I get straight from Shami. I got a deal goin' with him, ya see."
421: 0x06E5 [0x23] WAIT_FOR_DIALOG_INTERACTION
422: 0x06E6 [0x03] Work_Zone[1] = 202*
423: 0x06EB [0x43] SEND_EVENT_UPDATE: Send pending tag to server (packet 0x005B)
424: 0x06ED [0x43] SEND_EVENT_UPDATE: Check pending flag (skip if not pending)
425: 0x06EF [0x02] IF !(Work_Zone[2] == 0*) GOTO 0x0727
426: 0x06F7 [0x03] Work_Zone[2] = 3*
427: 0x06FC [0x24] CREATE_DIALOG(message_id=8206*, default_option=1*, option_flags=0*)
    → "Acquire a set of [three Seedspalls/four Mana Orbs/eight sap crystals/sixteen Tablets of Hexes]? [Yes, please./On second thought...]"
428: 0x0703 [0x25] WAIT_DIALOG_SELECT()
429: 0x0704 [0x02] IF !(Work_Zone[0] == 0*) GOTO 0x0714
430: 0x070C [0x03] Work_Zone[1] = 308*
431: 0x0711 [0x01] GOTO 0x0724
432: 0x0714 [0x02] IF !(Work_Zone[0] == 1*) GOTO 0x0724
433: 0x071C [0x03] Work_Zone[1] = 0*
434: 0x0721 [0x01] GOTO 0x0724

SUBROUTINE_0724:
435: 0x0724 [0x01] GOTO 0x072C
436: 0x0727 [0x03] Work_Zone[1] = 2*

SUBROUTINE_072C:
437: 0x072C [0x01] GOTO 0x072F

SUBROUTINE_072F:
438: 0x072F [0x01] GOTO 0x0737
439: 0x0732 [0x03] Work_Zone[1] = 1*

SUBROUTINE_0737:
440: 0x0737 [0x2E] SET_CLI_EVENT_CANCEL_FLAGS()
441: 0x0738 [0x20] SET_CLI_EVENT_UC_FLAG: Unlock player control
442: 0x073A [0x21] END_EVENT
443: 0x073B [0x00] END_REQSTACK()
```

### Event 324

#### Metadata

| Field        | Value    |
|--------------|----------|
| Entrypoint   | 0x073C   |
| Data Size    | 18 bytes |
| Instructions | 4        |

```
      00 01 02 03 04 05 06 07  08 09 0A 0B 0C 0D 0E 0F
      -- -- -- -- -- -- -- --  -- -- -- -- -- -- -- --
0730:                                      92 01 F8 FF              ....
0740: FF 7F 94 01 F8 FF FF 7F  80 F8 FF FF 7F 00        ..............  
```

#### Opcodes

```
  0: 0x073C [0x92] EventEntity->Render.Flags3 ^= 0x01
  1: 0x0742 [0x94] EventEntity->Render.Flags3 ^= 0x01
  2: 0x0748 [0x80] LOAD_WAIT(entity=EventEntity)
  3: 0x074D [0x00] END_REQSTACK()
```

### Event 325

#### Metadata

| Field        | Value    |
|--------------|----------|
| Entrypoint   | 0x074E   |
| Data Size    | 18 bytes |
| Instructions | 4        |

```
      00 01 02 03 04 05 06 07  08 09 0A 0B 0C 0D 0E 0F
      -- -- -- -- -- -- -- --  -- -- -- -- -- -- -- --
0740:                                            92 01                ..
0750: F8 FF FF 7F 94 01 F8 FF  FF 7F 80 F8 FF FF 7F 00  ................
```

#### Opcodes

```
  0: 0x074E [0x92] EventEntity->Render.Flags3 ^= 0x01
  1: 0x0754 [0x94] EventEntity->Render.Flags3 ^= 0x01
  2: 0x075A [0x80] LOAD_WAIT(entity=EventEntity)
  3: 0x075F [0x00] END_REQSTACK()
```

### Event 327

#### Metadata

| Field        | Value    |
|--------------|----------|
| Entrypoint   | 0x0760   |
| Data Size    | 18 bytes |
| Instructions | 4        |

```
      00 01 02 03 04 05 06 07  08 09 0A 0B 0C 0D 0E 0F
      -- -- -- -- -- -- -- --  -- -- -- -- -- -- -- --
0760: 92 01 F8 FF FF 7F 94 01  F8 FF FF 7F 80 F8 FF FF  ................
0770: 7F 00                                             ..              
```

#### Opcodes

```
  0: 0x0760 [0x92] EventEntity->Render.Flags3 ^= 0x01
  1: 0x0766 [0x94] EventEntity->Render.Flags3 ^= 0x01
  2: 0x076C [0x80] LOAD_WAIT(entity=EventEntity)
  3: 0x0771 [0x00] END_REQSTACK()
```

### Event 331

#### Metadata

| Field        | Value    |
|--------------|----------|
| Entrypoint   | 0x0772   |
| Data Size    | 18 bytes |
| Instructions | 4        |

```
      00 01 02 03 04 05 06 07  08 09 0A 0B 0C 0D 0E 0F
      -- -- -- -- -- -- -- --  -- -- -- -- -- -- -- --
0770:       92 01 F8 FF FF 7F  94 01 F8 FF FF 7F 80 F8    ..............
0780: FF FF 7F 00                                       ....            
```

#### Opcodes

```
  0: 0x0772 [0x92] EventEntity->Render.Flags3 ^= 0x01
  1: 0x0778 [0x94] EventEntity->Render.Flags3 ^= 0x01
  2: 0x077E [0x80] LOAD_WAIT(entity=EventEntity)
  3: 0x0783 [0x00] END_REQSTACK()
```

### Event 332

#### Metadata

| Field        | Value    |
|--------------|----------|
| Entrypoint   | 0x0784   |
| Data Size    | 18 bytes |
| Instructions | 4        |

```
      00 01 02 03 04 05 06 07  08 09 0A 0B 0C 0D 0E 0F
      -- -- -- -- -- -- -- --  -- -- -- -- -- -- -- --
0780:             92 01 F8 FF  FF 7F 94 01 F8 FF FF 7F      ............
0790: 80 F8 FF FF 7F 00                                 ......          
```

#### Opcodes

```
  0: 0x0784 [0x92] EventEntity->Render.Flags3 ^= 0x01
  1: 0x078A [0x94] EventEntity->Render.Flags3 ^= 0x01
  2: 0x0790 [0x80] LOAD_WAIT(entity=EventEntity)
  3: 0x0795 [0x00] END_REQSTACK()
```

### Event 333

#### Metadata

| Field        | Value    |
|--------------|----------|
| Entrypoint   | 0x0796   |
| Data Size    | 18 bytes |
| Instructions | 4        |

```
      00 01 02 03 04 05 06 07  08 09 0A 0B 0C 0D 0E 0F
      -- -- -- -- -- -- -- --  -- -- -- -- -- -- -- --
0790:                   92 01  F8 FF FF 7F 94 01 F8 FF        ..........
07A0: FF 7F 80 F8 FF FF 7F 00                           ........        
```

#### Opcodes

```
  0: 0x0796 [0x92] EventEntity->Render.Flags3 ^= 0x01
  1: 0x079C [0x94] EventEntity->Render.Flags3 ^= 0x01
  2: 0x07A2 [0x80] LOAD_WAIT(entity=EventEntity)
  3: 0x07A7 [0x00] END_REQSTACK()
```

### Event 334

#### Metadata

| Field        | Value    |
|--------------|----------|
| Entrypoint   | 0x07A8   |
| Data Size    | 18 bytes |
| Instructions | 4        |

```
      00 01 02 03 04 05 06 07  08 09 0A 0B 0C 0D 0E 0F
      -- -- -- -- -- -- -- --  -- -- -- -- -- -- -- --
07A0:                          92 01 F8 FF FF 7F 94 01          ........
07B0: F8 FF FF 7F 80 F8 FF FF  7F 00                    ..........      
```

#### Opcodes

```
  0: 0x07A8 [0x92] EventEntity->Render.Flags3 ^= 0x01
  1: 0x07AE [0x94] EventEntity->Render.Flags3 ^= 0x01
  2: 0x07B4 [0x80] LOAD_WAIT(entity=EventEntity)
  3: 0x07B9 [0x00] END_REQSTACK()
```

### Event 335

#### Metadata

| Field        | Value    |
|--------------|----------|
| Entrypoint   | 0x07BA   |
| Data Size    | 18 bytes |
| Instructions | 4        |

```
      00 01 02 03 04 05 06 07  08 09 0A 0B 0C 0D 0E 0F
      -- -- -- -- -- -- -- --  -- -- -- -- -- -- -- --
07B0:                                92 01 F8 FF FF 7F            ......
07C0: 94 01 F8 FF FF 7F 80 F8  FF FF 7F 00              ............    
```

#### Opcodes

```
  0: 0x07BA [0x92] EventEntity->Render.Flags3 ^= 0x01
  1: 0x07C0 [0x94] EventEntity->Render.Flags3 ^= 0x01
  2: 0x07C6 [0x80] LOAD_WAIT(entity=EventEntity)
  3: 0x07CB [0x00] END_REQSTACK()
```

### Event 336

#### Metadata

| Field        | Value    |
|--------------|----------|
| Entrypoint   | 0x07CC   |
| Data Size    | 18 bytes |
| Instructions | 4        |

```
      00 01 02 03 04 05 06 07  08 09 0A 0B 0C 0D 0E 0F
      -- -- -- -- -- -- -- --  -- -- -- -- -- -- -- --
07C0:                                      92 01 F8 FF              ....
07D0: FF 7F 94 01 F8 FF FF 7F  80 F8 FF FF 7F 00        ..............  
```

#### Opcodes

```
  0: 0x07CC [0x92] EventEntity->Render.Flags3 ^= 0x01
  1: 0x07D2 [0x94] EventEntity->Render.Flags3 ^= 0x01
  2: 0x07D8 [0x80] LOAD_WAIT(entity=EventEntity)
  3: 0x07DD [0x00] END_REQSTACK()
```

### Event 337

#### Metadata

| Field        | Value    |
|--------------|----------|
| Entrypoint   | 0x07DE   |
| Data Size    | 18 bytes |
| Instructions | 4        |

```
      00 01 02 03 04 05 06 07  08 09 0A 0B 0C 0D 0E 0F
      -- -- -- -- -- -- -- --  -- -- -- -- -- -- -- --
07D0:                                            92 01                ..
07E0: F8 FF FF 7F 94 01 F8 FF  FF 7F 80 F8 FF FF 7F 00  ................
```

#### Opcodes

```
  0: 0x07DE [0x92] EventEntity->Render.Flags3 ^= 0x01
  1: 0x07E4 [0x94] EventEntity->Render.Flags3 ^= 0x01
  2: 0x07EA [0x80] LOAD_WAIT(entity=EventEntity)
  3: 0x07EF [0x00] END_REQSTACK()
```

### Event 338

#### Metadata

| Field        | Value    |
|--------------|----------|
| Entrypoint   | 0x07F0   |
| Data Size    | 18 bytes |
| Instructions | 4        |

```
      00 01 02 03 04 05 06 07  08 09 0A 0B 0C 0D 0E 0F
      -- -- -- -- -- -- -- --  -- -- -- -- -- -- -- --
07F0: 92 01 F8 FF FF 7F 94 01  F8 FF FF 7F 80 F8 FF FF  ................
0800: 7F 00                                             ..              
```

#### Opcodes

```
  0: 0x07F0 [0x92] EventEntity->Render.Flags3 ^= 0x01
  1: 0x07F6 [0x94] EventEntity->Render.Flags3 ^= 0x01
  2: 0x07FC [0x80] LOAD_WAIT(entity=EventEntity)
  3: 0x0801 [0x00] END_REQSTACK()
```

### Event 340

#### Metadata

| Field        | Value    |
|--------------|----------|
| Entrypoint   | 0x0802   |
| Data Size    | 18 bytes |
| Instructions | 4        |

```
      00 01 02 03 04 05 06 07  08 09 0A 0B 0C 0D 0E 0F
      -- -- -- -- -- -- -- --  -- -- -- -- -- -- -- --
0800:       92 01 F8 FF FF 7F  94 01 F8 FF FF 7F 80 F8    ..............
0810: FF FF 7F 00                                       ....            
```

#### Opcodes

```
  0: 0x0802 [0x92] EventEntity->Render.Flags3 ^= 0x01
  1: 0x0808 [0x94] EventEntity->Render.Flags3 ^= 0x01
  2: 0x080E [0x80] LOAD_WAIT(entity=EventEntity)
  3: 0x0813 [0x00] END_REQSTACK()
```

### Event 341

#### Metadata

| Field        | Value    |
|--------------|----------|
| Entrypoint   | 0x0814   |
| Data Size    | 18 bytes |
| Instructions | 4        |

```
      00 01 02 03 04 05 06 07  08 09 0A 0B 0C 0D 0E 0F
      -- -- -- -- -- -- -- --  -- -- -- -- -- -- -- --
0810:             92 01 F8 FF  FF 7F 94 01 F8 FF FF 7F      ............
0820: 80 F8 FF FF 7F 00                                 ......          
```

#### Opcodes

```
  0: 0x0814 [0x92] EventEntity->Render.Flags3 ^= 0x01
  1: 0x081A [0x94] EventEntity->Render.Flags3 ^= 0x01
  2: 0x0820 [0x80] LOAD_WAIT(entity=EventEntity)
  3: 0x0825 [0x00] END_REQSTACK()
```

### Event 342

#### Metadata

| Field        | Value    |
|--------------|----------|
| Entrypoint   | 0x0826   |
| Data Size    | 18 bytes |
| Instructions | 4        |

```
      00 01 02 03 04 05 06 07  08 09 0A 0B 0C 0D 0E 0F
      -- -- -- -- -- -- -- --  -- -- -- -- -- -- -- --
0820:                   92 01  F8 FF FF 7F 94 01 F8 FF        ..........
0830: FF 7F 80 F8 FF FF 7F 00                           ........        
```

#### Opcodes

```
  0: 0x0826 [0x92] EventEntity->Render.Flags3 ^= 0x01
  1: 0x082C [0x94] EventEntity->Render.Flags3 ^= 0x01
  2: 0x0832 [0x80] LOAD_WAIT(entity=EventEntity)
  3: 0x0837 [0x00] END_REQSTACK()
```

### Event 343

#### Metadata

| Field        | Value    |
|--------------|----------|
| Entrypoint   | 0x0838   |
| Data Size    | 18 bytes |
| Instructions | 4        |

```
      00 01 02 03 04 05 06 07  08 09 0A 0B 0C 0D 0E 0F
      -- -- -- -- -- -- -- --  -- -- -- -- -- -- -- --
0830:                          92 01 F8 FF FF 7F 94 01          ........
0840: F8 FF FF 7F 80 F8 FF FF  7F 00                    ..........      
```

#### Opcodes

```
  0: 0x0838 [0x92] EventEntity->Render.Flags3 ^= 0x01
  1: 0x083E [0x94] EventEntity->Render.Flags3 ^= 0x01
  2: 0x0844 [0x80] LOAD_WAIT(entity=EventEntity)
  3: 0x0849 [0x00] END_REQSTACK()
```

### Event 344

#### Metadata

| Field        | Value    |
|--------------|----------|
| Entrypoint   | 0x084A   |
| Data Size    | 18 bytes |
| Instructions | 4        |

```
      00 01 02 03 04 05 06 07  08 09 0A 0B 0C 0D 0E 0F
      -- -- -- -- -- -- -- --  -- -- -- -- -- -- -- --
0840:                                92 01 F8 FF FF 7F            ......
0850: 94 01 F8 FF FF 7F 80 F8  FF FF 7F 00              ............    
```

#### Opcodes

```
  0: 0x084A [0x92] EventEntity->Render.Flags3 ^= 0x01
  1: 0x0850 [0x94] EventEntity->Render.Flags3 ^= 0x01
  2: 0x0856 [0x80] LOAD_WAIT(entity=EventEntity)
  3: 0x085B [0x00] END_REQSTACK()
```

### Event 345

#### Metadata

| Field        | Value    |
|--------------|----------|
| Entrypoint   | 0x085C   |
| Data Size    | 18 bytes |
| Instructions | 4        |

```
      00 01 02 03 04 05 06 07  08 09 0A 0B 0C 0D 0E 0F
      -- -- -- -- -- -- -- --  -- -- -- -- -- -- -- --
0850:                                      92 01 F8 FF              ....
0860: FF 7F 94 01 F8 FF FF 7F  80 F8 FF FF 7F 00        ..............  
```

#### Opcodes

```
  0: 0x085C [0x92] EventEntity->Render.Flags3 ^= 0x01
  1: 0x0862 [0x94] EventEntity->Render.Flags3 ^= 0x01
  2: 0x0868 [0x80] LOAD_WAIT(entity=EventEntity)
  3: 0x086D [0x00] END_REQSTACK()
```

### Event 65535.1

#### Metadata

| Field        | Value    |
|--------------|----------|
| Entrypoint   | 0x086E   |
| Data Size    | 40 bytes |
| Instructions | 8        |

```
      00 01 02 03 04 05 06 07  08 09 0A 0B 0C 0D 0E 0F
      -- -- -- -- -- -- -- --  -- -- -- -- -- -- -- --
0860:                                            66 5A                fZ
0870: 80 28 60 0F 01 28 60 0F  01 64 69 73 30 1C 5B 80  .(`..(`..dis0.[.
0880: 32 5C 80 1F 00 5D 80 5E  80 0A 80 1F 01 6F 4B F8  2\...].^.....oK.
0890: FF FF 7F 5F 80 00                                 ..._..          
```

#### Opcodes

```
  0: 0x086E [0x66] LOAD_EXT_SCHEDULER_MAIN: Load scheduler "dis0" with entities [Ramicharaux (ID: 17784872/0x010F6028), Ramicharaux (ID: 17784872/0x010F6028)], work=21*
  1: 0x087D [0x1C] WAIT(90* ticks)
  2: 0x0880 [0x32] ExtData[1]->MainSpeed = 13* * 0.1
  3: 0x0883 [0x1F] MOVE_ENTITY: EventEntity moves to X=-48.195*, Z=3.606*, Y=0.000*
  4: 0x088B [0x1F] MOVE_ENTITY: Update entity position (mode=1)
  5: 0x088D [0x6F] WAIT_FRAME_DELAY: Yield until WaitTime reaches zero
  6: 0x088E [0x4B] UPDATE_ENTITY_YAW(entity=EventEntity, yaw=5.3°*)
  7: 0x0895 [0x00] END_REQSTACK()
```

### Event 65535.2

#### Metadata

| Field        | Value    |
|--------------|----------|
| Entrypoint   | 0x0896   |
| Data Size    | 40 bytes |
| Instructions | 8        |

```
      00 01 02 03 04 05 06 07  08 09 0A 0B 0C 0D 0E 0F
      -- -- -- -- -- -- -- --  -- -- -- -- -- -- -- --
0890:                   66 60  80 43 60 0F 01 43 60 0F        f`.C`..C`.
08A0: 01 64 69 73 30 1C 61 80  32 62 80 1F 00 63 80 64  .dis0.a.2b...c.d
08B0: 80 0A 80 1F 01 6F 4B F8  FF FF 7F 65 80 00        .....oK....e..  
```

#### Opcodes

```
  0: 0x0896 [0x66] LOAD_EXT_SCHEDULER_MAIN: Load scheduler "dis0" with entities [Khumo Daramasteh (ID: 17784899/0x010F6043), Khumo Daramasteh (ID: 17784899/0x010F6043)], work=52*
  1: 0x08A5 [0x1C] WAIT(120* ticks)
  2: 0x08A8 [0x32] ExtData[1]->MainSpeed = 11* * 0.1
  3: 0x08AB [0x1F] MOVE_ENTITY: EventEntity moves to X=23.839*, Z=6.017*, Y=0.000*
  4: 0x08B3 [0x1F] MOVE_ENTITY: Update entity position (mode=1)
  5: 0x08B5 [0x6F] WAIT_FRAME_DELAY: Yield until WaitTime reaches zero
  6: 0x08B6 [0x4B] UPDATE_ENTITY_YAW(entity=EventEntity, yaw=3.8°*)
  7: 0x08BD [0x00] END_REQSTACK()
```

### Event 65535.3

#### Metadata

| Field        | Value     |
|--------------|-----------|
| Entrypoint   | 0x08BE    |
| Data Size    | 139 bytes |
| Instructions | 22        |

```
      00 01 02 03 04 05 06 07  08 09 0A 0B 0C 0D 0E 0F
      -- -- -- -- -- -- -- --  -- -- -- -- -- -- -- --
08B0:                                            5B 66                [f
08C0: 80 06 60 0F 01 06 60 0F  01 68 61 69 30 1C 67 80  ..`...`..hai0.g.
08D0: 4A 04 60 0F 01 06 60 0F  01 1C 23 80 79 00 05 60  J.`...`...#.y..`
08E0: 0F 01 06 60 0F 01 1C 68  80 4B 06 60 0F 01 69 80  ...`...h.K.`..i.
08F0: 6F 76 06 60 0F 01 5B 66  80 06 60 0F 01 06 60 0F  ov.`..[f..`...`.
0900: 01 61 77 77 30 1C 67 80  5B 6A 80 04 60 0F 01 04  .aww0.g.[j..`...
0910: 60 0F 01 74 68 6B 31 1C  4C 80 5B 5B 80 05 60 0F  `..thk1.L.[[..`.
0920: 01 05 60 0F 01 74 6C 6B  30 1C 5B 80 27 10 04 60  ..`..tlk0.[.'..`
0930: 0F 01 21 27 10 05 60 0F  01 20 32 6B 80 1F 00 6C  ..!'..`.. 2k...l
0940: 80 6D 80 0A 80 1F 01 6F  00                       .m.....o.       
```

#### Opcodes

```
  0: 0x08BE [0x5B] LOAD_EXT_SCHEDULER: Load scheduler "hai0" with entities [Jaha Amariyo (ID: 17784838/0x010F6006), Jaha Amariyo (ID: 17784838/0x010F6006)], work=81*
  1: 0x08CD [0x1C] WAIT(45* ticks)
  2: 0x08D0 [0x4A] Karl (ID: 17784836/0x010F6004) looks at Jaha Amariyo (ID: 17784838/0x010F6006)
  3: 0x08D9 [0x1C] WAIT(5* ticks)
  4: 0x08DC [0x79] Buntz (ID: 17784837/0x010F6005) looks at Jaha Amariyo (ID: 17784838/0x010F6006) (Basic look)
  5: 0x08E6 [0x1C] WAIT(30* ticks)
  6: 0x08E9 [0x4B] UPDATE_ENTITY_YAW(entity=Jaha Amariyo (ID: 17784838/0x010F6006), yaw=12.2°*)
  7: 0x08F0 [0x6F] WAIT_FRAME_DELAY: Yield until WaitTime reaches zero
  8: 0x08F1 [0x76] CHECK_ENTITY_RENDER_FLAGS: Wait until Jaha Amariyo (ID: 17784838/0x010F6006) Render.Flags0 and Render.Flags3 conditions are met
  9: 0x08F6 [0x5B] LOAD_EXT_SCHEDULER: Load scheduler "aww0" with entities [Jaha Amariyo (ID: 17784838/0x010F6006), Jaha Amariyo (ID: 17784838/0x010F6006)], work=81*
 10: 0x0905 [0x1C] WAIT(45* ticks)
 11: 0x0908 [0x5B] LOAD_EXT_SCHEDULER: Load scheduler "thk1" with entities [Karl (ID: 17784836/0x010F6004), Karl (ID: 17784836/0x010F6004)], work=75*
 12: 0x0917 [0x1C] WAIT(15* ticks)
 13: 0x091A [0x5B] LOAD_EXT_SCHEDULER: Load scheduler "tlk0" with entities [Buntz (ID: 17784837/0x010F6005), Buntz (ID: 17784837/0x010F6005)], work=90*
 14: 0x0929 [0x1C] WAIT(90* ticks)
 15: 0x092C [0x27] REQ_SET(priority=0x10, entity_id=Karl (ID: 17784836/0x010F6004), tag_num=0x21)
 16: 0x0933 [0x27] REQ_SET(priority=0x10, entity_id=Buntz (ID: 17784837/0x010F6005), tag_num=0x20)
 17: 0x093A [0x32] ExtData[1]->MainSpeed = 37* * 0.1
 18: 0x093D [0x1F] MOVE_ENTITY: EventEntity moves to X=-80.636*, Z=-5.460*, Y=0.000*
 19: 0x0945 [0x1F] MOVE_ENTITY: Update entity position (mode=1)
 20: 0x0947 [0x6F] WAIT_FRAME_DELAY: Yield until WaitTime reaches zero
 21: 0x0948 [0x00] END_REQSTACK()
```

### Event 65535.4

#### Metadata

| Field        | Value    |
|--------------|----------|
| Entrypoint   | 0x0949   |
| Data Size    | 15 bytes |
| Instructions | 5        |

```
      00 01 02 03 04 05 06 07  08 09 0A 0B 0C 0D 0E 0F
      -- -- -- -- -- -- -- --  -- -- -- -- -- -- -- --
0940:                             32 6E 80 1F 00 6F 80           2n...o.
0950: 70 80 0A 80 1F 01 6F 00                           p.....o.        
```

#### Opcodes

```
  0: 0x0949 [0x32] ExtData[1]->MainSpeed = 39* * 0.1
  1: 0x094C [0x1F] MOVE_ENTITY: EventEntity moves to X=-81.392*, Z=-4.254*, Y=0.000*
  2: 0x0954 [0x1F] MOVE_ENTITY: Update entity position (mode=1)
  3: 0x0956 [0x6F] WAIT_FRAME_DELAY: Yield until WaitTime reaches zero
  4: 0x0957 [0x00] END_REQSTACK()
```

### Event 65535.5

#### Metadata

| Field        | Value    |
|--------------|----------|
| Entrypoint   | 0x0958   |
| Data Size    | 15 bytes |
| Instructions | 5        |

```
      00 01 02 03 04 05 06 07  08 09 0A 0B 0C 0D 0E 0F
      -- -- -- -- -- -- -- --  -- -- -- -- -- -- -- --
0950:                          32 71 80 1F 00 72 80 73          2q...r.s
0960: 80 0A 80 1F 01 6F 00                              .....o.         
```

#### Opcodes

```
  0: 0x0958 [0x32] ExtData[1]->MainSpeed = 41* * 0.1
  1: 0x095B [0x1F] MOVE_ENTITY: EventEntity moves to X=-82.888*, Z=-4.774*, Y=0.000*
  2: 0x0963 [0x1F] MOVE_ENTITY: Update entity position (mode=1)
  3: 0x0965 [0x6F] WAIT_FRAME_DELAY: Yield until WaitTime reaches zero
  4: 0x0966 [0x00] END_REQSTACK()
```

### Event 65535.6

#### Metadata

| Field        | Value    |
|--------------|----------|
| Entrypoint   | 0x0967   |
| Data Size    | 30 bytes |
| Instructions | 8        |

```
      00 01 02 03 04 05 06 07  08 09 0A 0B 0C 0D 0E 0F
      -- -- -- -- -- -- -- --  -- -- -- -- -- -- -- --
0960:                      6E  F8 FF FF 7F 28 80 99 F8         n....(...
0970: FF FF 7F 1C 61 80 32 74  80 1F 00 75 80 76 80 0A  ....a.2t...u.v..
0980: 80 1F 01 6F 00                                    ...o.           
```

#### Opcodes

```
  0: 0x0967 [0x6E] EventEntity uses emote 6*
  1: 0x096E [0x99] Wait for EventEntity animation to complete
  2: 0x0973 [0x1C] WAIT(120* ticks)
  3: 0x0976 [0x32] ExtData[1]->MainSpeed = 10* * 0.1
  4: 0x0979 [0x1F] MOVE_ENTITY: EventEntity moves to X=-86.082*, Z=-1.442*, Y=0.000*
  5: 0x0981 [0x1F] MOVE_ENTITY: Update entity position (mode=1)
  6: 0x0983 [0x6F] WAIT_FRAME_DELAY: Yield until WaitTime reaches zero
  7: 0x0984 [0x00] END_REQSTACK()
```

### Event 65535.7

#### Metadata

| Field        | Value    |
|--------------|----------|
| Entrypoint   | 0x0985   |
| Data Size    | 16 bytes |
| Instructions | 2        |

```
      00 01 02 03 04 05 06 07  08 09 0A 0B 0C 0D 0E 0F
      -- -- -- -- -- -- -- --  -- -- -- -- -- -- -- --
0980:                5B 77 80  86 60 0F 01 86 60 0F 01       [w..`...`..
0990: 66 75 6D 30 00                                    fum0.           
```

#### Opcodes

```
  0: 0x0985 [0x5B] LOAD_EXT_SCHEDULER: Load scheduler "fum0" with entities [Squintrox Dryeyes (ID: 17784966/0x010F6086), Squintrox Dryeyes (ID: 17784966/0x010F6086)], work=216*
  1: 0x0994 [0x00] END_REQSTACK()
```

### Event 65535.8

#### Metadata

| Field        | Value    |
|--------------|----------|
| Entrypoint   | 0x0995   |
| Data Size    | 33 bytes |
| Instructions | 7        |

```
      00 01 02 03 04 05 06 07  08 09 0A 0B 0C 0D 0E 0F
      -- -- -- -- -- -- -- --  -- -- -- -- -- -- -- --
0990:                32 78 80  1F 00 79 80 7A 80 0A 80       2x...y.z...
09A0: 1F 01 6F 1C 4C 80 66 68  80 42 60 0F 01 42 60 0F  ..o.L.fh.B`..B`.
09B0: 01 74 68 6B 31 00                                 .thk1.          
```

#### Opcodes

```
  0: 0x0995 [0x32] ExtData[1]->MainSpeed = 12* * 0.1
  1: 0x0998 [0x1F] MOVE_ENTITY: EventEntity moves to X=-100.794*, Z=-3.679*, Y=0.000*
  2: 0x09A0 [0x1F] MOVE_ENTITY: Update entity position (mode=1)
  3: 0x09A2 [0x6F] WAIT_FRAME_DELAY: Yield until WaitTime reaches zero
  4: 0x09A3 [0x1C] WAIT(15* ticks)
  5: 0x09A6 [0x66] LOAD_EXT_SCHEDULER_MAIN: Load scheduler "thk1" with entities [Naurmaire (ID: 17784898/0x010F6042), Naurmaire (ID: 17784898/0x010F6042)], work=30*
  6: 0x09B5 [0x00] END_REQSTACK()
```

### Event 65535.9

#### Metadata

| Field        | Value    |
|--------------|----------|
| Entrypoint   | 0x09B6   |
| Data Size    | 33 bytes |
| Instructions | 7        |

```
      00 01 02 03 04 05 06 07  08 09 0A 0B 0C 0D 0E 0F
      -- -- -- -- -- -- -- --  -- -- -- -- -- -- -- --
09B0:                   66 74  80 3F 60 0F 01 3F 60 0F        ft.?`..?`.
09C0: 01 74 68 6B 32 1C 7B 80  32 7C 80 1F 00 7D 80 7E  .thk2.{.2|...}.~
09D0: 80 0A 80 1F 01 6F 00                              .....o.         
```

#### Opcodes

```
  0: 0x09B6 [0x66] LOAD_EXT_SCHEDULER_MAIN: Load scheduler "thk2" with entities [Marnie (ID: 17784895/0x010F603F), Marnie (ID: 17784895/0x010F603F)], work=10*
  1: 0x09C5 [0x1C] WAIT(60* ticks)
  2: 0x09C8 [0x32] ExtData[1]->MainSpeed = 40* * 0.1
  3: 0x09CB [0x1F] MOVE_ENTITY: EventEntity moves to X=-30.213*, Z=-1.502*, Y=0.000*
  4: 0x09D3 [0x1F] MOVE_ENTITY: Update entity position (mode=1)
  5: 0x09D5 [0x6F] WAIT_FRAME_DELAY: Yield until WaitTime reaches zero
  6: 0x09D6 [0x00] END_REQSTACK()
```

### Event 65535.10

#### Metadata

| Field        | Value    |
|--------------|----------|
| Entrypoint   | 0x09D7   |
| Data Size    | 45 bytes |
| Instructions | 12       |

```
      00 01 02 03 04 05 06 07  08 09 0A 0B 0C 0D 0E 0F
      -- -- -- -- -- -- -- --  -- -- -- -- -- -- -- --
09D0:                      32  5C 80 1F 00 7F 80 80 80         2\.......
09E0: 0A 80 1F 01 1C 68 80 39  81 80 1C 82 80 1F 00 83  .....h.9........
09F0: 80 84 80 0A 80 1F 01 1C  68 80 39 85 80 1C 82 80  ........h.9.....
0A00: 01 D7 09 00                                       ....            
```

#### Opcodes

```
  0: 0x09D7 [0x32] ExtData[1]->MainSpeed = 13* * 0.1
  1: 0x09DA [0x1F] MOVE_ENTITY: EventEntity moves to X=-96.584*, Z=-8.519*, Y=0.000*
  2: 0x09E2 [0x1F] MOVE_ENTITY: Update entity position (mode=1)
  3: 0x09E4 [0x1C] WAIT(30* ticks)
  4: 0x09E7 [0x39] SET_ENTITY_DIRECTION(direction=19.7°*)
  5: 0x09EA [0x1C] WAIT(360* ticks)
  6: 0x09ED [0x1F] MOVE_ENTITY: EventEntity moves to X=-96.241*, Z=8.872*, Y=0.000*
  7: 0x09F5 [0x1F] MOVE_ENTITY: Update entity position (mode=1)
  8: 0x09F7 [0x1C] WAIT(30* ticks)
  9: 0x09FA [0x39] SET_ENTITY_DIRECTION(direction=2.8°*)
 10: 0x09FD [0x1C] WAIT(360* ticks)
 11: 0x0A00 [0x01] GOTO 0x09D7
```

#### Data or dead code:

```
# Dead code (unreachable instructions):
     0x0A03 [0x00] END_REQSTACK()
```

### Event 65535.11

#### Metadata

| Field        | Value     |
|--------------|-----------|
| Entrypoint   | 0x0A04    |
| Data Size    | 139 bytes |
| Instructions | 22        |

```
      00 01 02 03 04 05 06 07  08 09 0A 0B 0C 0D 0E 0F
      -- -- -- -- -- -- -- --  -- -- -- -- -- -- -- --
0A00:             5B 66 80 06  60 0F 01 06 60 0F 01 68      [f..`...`..h
0A10: 61 69 30 1C 67 80 4A 04  60 0F 01 06 60 0F 01 1C  ai0.g.J.`...`...
0A20: 23 80 79 00 05 60 0F 01  06 60 0F 01 1C 68 80 4B  #.y..`...`...h.K
0A30: 06 60 0F 01 69 80 6F 76  06 60 0F 01 5B 66 80 06  .`..i.ov.`..[f..
0A40: 60 0F 01 06 60 0F 01 61  77 77 30 1C 67 80 5B 6A  `...`..aww0.g.[j
0A50: 80 04 60 0F 01 04 60 0F  01 74 68 6B 31 1C 4C 80  ..`...`..thk1.L.
0A60: 5B 5B 80 05 60 0F 01 05  60 0F 01 74 6C 6B 30 1C  [[..`...`..tlk0.
0A70: 5B 80 27 10 04 60 0F 01  29 27 10 05 60 0F 01 28  [.'..`..)'..`..(
0A80: 32 6B 80 1F 00 86 80 87  80 0A 80 1F 01 6F 00     2k...........o. 
```

#### Opcodes

```
  0: 0x0A04 [0x5B] LOAD_EXT_SCHEDULER: Load scheduler "hai0" with entities [Jaha Amariyo (ID: 17784838/0x010F6006), Jaha Amariyo (ID: 17784838/0x010F6006)], work=81*
  1: 0x0A13 [0x1C] WAIT(45* ticks)
  2: 0x0A16 [0x4A] Karl (ID: 17784836/0x010F6004) looks at Jaha Amariyo (ID: 17784838/0x010F6006)
  3: 0x0A1F [0x1C] WAIT(5* ticks)
  4: 0x0A22 [0x79] Buntz (ID: 17784837/0x010F6005) looks at Jaha Amariyo (ID: 17784838/0x010F6006) (Basic look)
  5: 0x0A2C [0x1C] WAIT(30* ticks)
  6: 0x0A2F [0x4B] UPDATE_ENTITY_YAW(entity=Jaha Amariyo (ID: 17784838/0x010F6006), yaw=12.2°*)
  7: 0x0A36 [0x6F] WAIT_FRAME_DELAY: Yield until WaitTime reaches zero
  8: 0x0A37 [0x76] CHECK_ENTITY_RENDER_FLAGS: Wait until Jaha Amariyo (ID: 17784838/0x010F6006) Render.Flags0 and Render.Flags3 conditions are met
  9: 0x0A3C [0x5B] LOAD_EXT_SCHEDULER: Load scheduler "aww0" with entities [Jaha Amariyo (ID: 17784838/0x010F6006), Jaha Amariyo (ID: 17784838/0x010F6006)], work=81*
 10: 0x0A4B [0x1C] WAIT(45* ticks)
 11: 0x0A4E [0x5B] LOAD_EXT_SCHEDULER: Load scheduler "thk1" with entities [Karl (ID: 17784836/0x010F6004), Karl (ID: 17784836/0x010F6004)], work=75*
 12: 0x0A5D [0x1C] WAIT(15* ticks)
 13: 0x0A60 [0x5B] LOAD_EXT_SCHEDULER: Load scheduler "tlk0" with entities [Buntz (ID: 17784837/0x010F6005), Buntz (ID: 17784837/0x010F6005)], work=90*
 14: 0x0A6F [0x1C] WAIT(90* ticks)
 15: 0x0A72 [0x27] REQ_SET(priority=0x10, entity_id=Karl (ID: 17784836/0x010F6004), tag_num=0x29)
 16: 0x0A79 [0x27] REQ_SET(priority=0x10, entity_id=Buntz (ID: 17784837/0x010F6005), tag_num=0x28)
 17: 0x0A80 [0x32] ExtData[1]->MainSpeed = 37* * 0.1
 18: 0x0A83 [0x1F] MOVE_ENTITY: EventEntity moves to X=-52.555*, Z=1.950*, Y=0.000*
 19: 0x0A8B [0x1F] MOVE_ENTITY: Update entity position (mode=1)
 20: 0x0A8D [0x6F] WAIT_FRAME_DELAY: Yield until WaitTime reaches zero
 21: 0x0A8E [0x00] END_REQSTACK()
```

### Event 65535.12

#### Metadata

| Field        | Value    |
|--------------|----------|
| Entrypoint   | 0x0A8F   |
| Data Size    | 15 bytes |
| Instructions | 5        |

```
      00 01 02 03 04 05 06 07  08 09 0A 0B 0C 0D 0E 0F
      -- -- -- -- -- -- -- --  -- -- -- -- -- -- -- --
0A80:                                               32                 2
0A90: 6E 80 1F 00 88 80 89 80  0A 80 1F 01 6F 00        n...........o.  
```

#### Opcodes

```
  0: 0x0A8F [0x32] ExtData[1]->MainSpeed = 39* * 0.1
  1: 0x0A92 [0x1F] MOVE_ENTITY: EventEntity moves to X=-49.108*, Z=2.357*, Y=0.000*
  2: 0x0A9A [0x1F] MOVE_ENTITY: Update entity position (mode=1)
  3: 0x0A9C [0x6F] WAIT_FRAME_DELAY: Yield until WaitTime reaches zero
  4: 0x0A9D [0x00] END_REQSTACK()
```

### Event 65535.13

#### Metadata

| Field        | Value    |
|--------------|----------|
| Entrypoint   | 0x0A9E   |
| Data Size    | 15 bytes |
| Instructions | 5        |

```
      00 01 02 03 04 05 06 07  08 09 0A 0B 0C 0D 0E 0F
      -- -- -- -- -- -- -- --  -- -- -- -- -- -- -- --
0A90:                                            32 71                2q
0AA0: 80 1F 00 8A 80 8B 80 0A  80 1F 01 6F 00           ...........o.   
```

#### Opcodes

```
  0: 0x0A9E [0x32] ExtData[1]->MainSpeed = 41* * 0.1
  1: 0x0AA1 [0x1F] MOVE_ENTITY: EventEntity moves to X=-51.734*, Z=2.879*, Y=0.000*
  2: 0x0AA9 [0x1F] MOVE_ENTITY: Update entity position (mode=1)
  3: 0x0AAB [0x6F] WAIT_FRAME_DELAY: Yield until WaitTime reaches zero
  4: 0x0AAC [0x00] END_REQSTACK()
```

### Event 65535.14

#### Metadata

| Field        | Value    |
|--------------|----------|
| Entrypoint   | 0x0AAD   |
| Data Size    | 15 bytes |
| Instructions | 5        |

```
      00 01 02 03 04 05 06 07  08 09 0A 0B 0C 0D 0E 0F
      -- -- -- -- -- -- -- --  -- -- -- -- -- -- -- --
0AA0:                                         32 78 80               2x.
0AB0: 1F 00 8C 80 8D 80 0A 80  1F 01 6F 00              ..........o.    
```

#### Opcodes

```
  0: 0x0AAD [0x32] ExtData[1]->MainSpeed = 12* * 0.1
  1: 0x0AB0 [0x1F] MOVE_ENTITY: EventEntity moves to X=-50.670*, Z=2.474*, Y=0.000*
  2: 0x0AB8 [0x1F] MOVE_ENTITY: Update entity position (mode=1)
  3: 0x0ABA [0x6F] WAIT_FRAME_DELAY: Yield until WaitTime reaches zero
  4: 0x0ABB [0x00] END_REQSTACK()
```

### Event 65535.15

#### Metadata

| Field        | Value    |
|--------------|----------|
| Entrypoint   | 0x0ABC   |
| Data Size    | 80 bytes |
| Instructions | 13       |

```
      00 01 02 03 04 05 06 07  08 09 0A 0B 0C 0D 0E 0F
      -- -- -- -- -- -- -- --  -- -- -- -- -- -- -- --
0AB0:                                      32 62 80 1F              2b..
0AC0: 00 8E 80 8F 80 0A 80 1F  01 79 00 45 60 0F 01 42  .........y.E`..B
0AD0: 60 0F 01 66 68 80 42 60  0F 01 42 60 0F 01 74 68  `..fh.B`..B`..th
0AE0: 6B 32 32 90 80 4A 42 60  0F 01 45 60 0F 01 1F 00  k22..JB`..E`....
0AF0: 91 80 92 80 0A 80 1F 01  6F 1C 68 80 66 0A 80 45  ........o.h.f..E
0B00: 60 0F 01 45 60 0F 01 74  6C 6B 31 00              `..E`..tlk1.    
```

#### Opcodes

```
  0: 0x0ABC [0x32] ExtData[1]->MainSpeed = 11* * 0.1
  1: 0x0ABF [0x1F] MOVE_ENTITY: EventEntity moves to X=-92.526*, Z=-2.418*, Y=0.000*
  2: 0x0AC7 [0x1F] MOVE_ENTITY: Update entity position (mode=1)
  3: 0x0AC9 [0x79] Falak (ID: 17784901/0x010F6045) looks at Naurmaire (ID: 17784898/0x010F6042) (Basic look)
  4: 0x0AD3 [0x66] LOAD_EXT_SCHEDULER_MAIN: Load scheduler "thk2" with entities [Naurmaire (ID: 17784898/0x010F6042), Naurmaire (ID: 17784898/0x010F6042)], work=30*
  5: 0x0AE2 [0x32] ExtData[1]->MainSpeed = 38* * 0.1
  6: 0x0AE5 [0x4A] Naurmaire (ID: 17784898/0x010F6042) looks at Falak (ID: 17784901/0x010F6045)
  7: 0x0AEE [0x1F] MOVE_ENTITY: EventEntity moves to X=-98.837*, Z=-2.640*, Y=0.000*
  8: 0x0AF6 [0x1F] MOVE_ENTITY: Update entity position (mode=1)
  9: 0x0AF8 [0x6F] WAIT_FRAME_DELAY: Yield until WaitTime reaches zero
 10: 0x0AF9 [0x1C] WAIT(30* ticks)
 11: 0x0AFC [0x66] LOAD_EXT_SCHEDULER_MAIN: Load scheduler "tlk1" with entities [Falak (ID: 17784901/0x010F6045), Falak (ID: 17784901/0x010F6045)], work=0*
 12: 0x0B0B [0x00] END_REQSTACK()
```

### Event 65535.16

#### Metadata

| Field        | Value    |
|--------------|----------|
| Entrypoint   | 0x0B0C   |
| Data Size    | 15 bytes |
| Instructions | 5        |

```
      00 01 02 03 04 05 06 07  08 09 0A 0B 0C 0D 0E 0F
      -- -- -- -- -- -- -- --  -- -- -- -- -- -- -- --
0B00:                                      32 78 80 1F              2x..
0B10: 00 93 80 94 80 0A 80 1F  01 6F 00                 .........o.     
```

#### Opcodes

```
  0: 0x0B0C [0x32] ExtData[1]->MainSpeed = 12* * 0.1
  1: 0x0B0F [0x1F] MOVE_ENTITY: EventEntity moves to X=4.999*, Z=-0.799*, Y=0.000*
  2: 0x0B17 [0x1F] MOVE_ENTITY: Update entity position (mode=1)
  3: 0x0B19 [0x6F] WAIT_FRAME_DELAY: Yield until WaitTime reaches zero
  4: 0x0B1A [0x00] END_REQSTACK()
```

### Event 65535.17

#### Metadata

| Field        | Value    |
|--------------|----------|
| Entrypoint   | 0x0B1B   |
| Data Size    | 15 bytes |
| Instructions | 5        |

```
      00 01 02 03 04 05 06 07  08 09 0A 0B 0C 0D 0E 0F
      -- -- -- -- -- -- -- --  -- -- -- -- -- -- -- --
0B10:                                   32 5C 80 1F 00             2\...
0B20: 95 80 96 80 0A 80 1F 01  6F 00                    ........o.      
```

#### Opcodes

```
  0: 0x0B1B [0x32] ExtData[1]->MainSpeed = 13* * 0.1
  1: 0x0B1E [0x1F] MOVE_ENTITY: EventEntity moves to X=-76.908*, Z=-2.465*, Y=0.000*
  2: 0x0B26 [0x1F] MOVE_ENTITY: Update entity position (mode=1)
  3: 0x0B28 [0x6F] WAIT_FRAME_DELAY: Yield until WaitTime reaches zero
  4: 0x0B29 [0x00] END_REQSTACK()
```

### Event 65535.18

#### Metadata

| Field        | Value    |
|--------------|----------|
| Entrypoint   | 0x0B2A   |
| Data Size    | 15 bytes |
| Instructions | 5        |

```
      00 01 02 03 04 05 06 07  08 09 0A 0B 0C 0D 0E 0F
      -- -- -- -- -- -- -- --  -- -- -- -- -- -- -- --
0B20:                                32 62 80 1F 00 97            2b....
0B30: 80 98 80 0A 80 1F 01 6F  00                       .......o.       
```

#### Opcodes

```
  0: 0x0B2A [0x32] ExtData[1]->MainSpeed = 11* * 0.1
  1: 0x0B2D [0x1F] MOVE_ENTITY: EventEntity moves to X=-50.956*, Z=-2.015*, Y=0.000*
  2: 0x0B35 [0x1F] MOVE_ENTITY: Update entity position (mode=1)
  3: 0x0B37 [0x6F] WAIT_FRAME_DELAY: Yield until WaitTime reaches zero
  4: 0x0B38 [0x00] END_REQSTACK()
```

### Event 65535.19

#### Metadata

| Field        | Value    |
|--------------|----------|
| Entrypoint   | 0x0B39   |
| Data Size    | 15 bytes |
| Instructions | 5        |

```
      00 01 02 03 04 05 06 07  08 09 0A 0B 0C 0D 0E 0F
      -- -- -- -- -- -- -- --  -- -- -- -- -- -- -- --
0B30:                             32 62 80 1F 00 99 80           2b.....
0B40: 9A 80 0A 80 1F 01 6F 00                           ......o.        
```

#### Opcodes

```
  0: 0x0B39 [0x32] ExtData[1]->MainSpeed = 11* * 0.1
  1: 0x0B3C [0x1F] MOVE_ENTITY: EventEntity moves to X=-106.865*, Z=2.201*, Y=0.000*
  2: 0x0B44 [0x1F] MOVE_ENTITY: Update entity position (mode=1)
  3: 0x0B46 [0x6F] WAIT_FRAME_DELAY: Yield until WaitTime reaches zero
  4: 0x0B47 [0x00] END_REQSTACK()
```

### Event 65535.20

#### Metadata

| Field        | Value    |
|--------------|----------|
| Entrypoint   | 0x0B48   |
| Data Size    | 15 bytes |
| Instructions | 5        |

```
      00 01 02 03 04 05 06 07  08 09 0A 0B 0C 0D 0E 0F
      -- -- -- -- -- -- -- --  -- -- -- -- -- -- -- --
0B40:                          32 5C 80 1F 00 9B 80 9C          2\......
0B50: 80 0A 80 1F 01 6F 00                              .....o.         
```

#### Opcodes

```
  0: 0x0B48 [0x32] ExtData[1]->MainSpeed = 13* * 0.1
  1: 0x0B4B [0x1F] MOVE_ENTITY: EventEntity moves to X=-36.731*, Z=-2.282*, Y=0.000*
  2: 0x0B53 [0x1F] MOVE_ENTITY: Update entity position (mode=1)
  3: 0x0B55 [0x6F] WAIT_FRAME_DELAY: Yield until WaitTime reaches zero
  4: 0x0B56 [0x00] END_REQSTACK()
```

### Event 65535.21

#### Metadata

| Field        | Value    |
|--------------|----------|
| Entrypoint   | 0x0B57   |
| Data Size    | 53 bytes |
| Instructions | 10       |

```
      00 01 02 03 04 05 06 07  08 09 0A 0B 0C 0D 0E 0F
      -- -- -- -- -- -- -- --  -- -- -- -- -- -- -- --
0B50:                      32  5C 80 1F 00 9D 80 9E 80         2\.......
0B60: 0A 80 1F 01 1F 00 9F 80  A0 80 0A 80 1F 01 6F 1C  ..............o.
0B70: 4C 80 79 00 49 60 0F 01  86 60 0F 01 5B A1 80 86  L.y.I`...`..[...
0B80: 60 0F 01 86 60 0F 01 74  6C 6B 30 00              `...`..tlk0.    
```

#### Opcodes

```
  0: 0x0B57 [0x32] ExtData[1]->MainSpeed = 13* * 0.1
  1: 0x0B5A [0x1F] MOVE_ENTITY: EventEntity moves to X=-58.047*, Z=9.433*, Y=0.000*
  2: 0x0B62 [0x1F] MOVE_ENTITY: Update entity position (mode=1)
  3: 0x0B64 [0x1F] MOVE_ENTITY: EventEntity moves to X=-56.466*, Z=10.018*, Y=0.000*
  4: 0x0B6C [0x1F] MOVE_ENTITY: Update entity position (mode=1)
  5: 0x0B6E [0x6F] WAIT_FRAME_DELAY: Yield until WaitTime reaches zero
  6: 0x0B6F [0x1C] WAIT(15* ticks)
  7: 0x0B72 [0x79] Shami (ID: 17784905/0x010F6049) looks at Squintrox Dryeyes (ID: 17784966/0x010F6086) (Basic look)
  8: 0x0B7C [0x5B] LOAD_EXT_SCHEDULER: Load scheduler "tlk0" with entities [Squintrox Dryeyes (ID: 17784966/0x010F6086), Squintrox Dryeyes (ID: 17784966/0x010F6086)], work=215*
  9: 0x0B8B [0x00] END_REQSTACK()
```

### Event 65535.22

#### Metadata

| Field        | Value    |
|--------------|----------|
| Entrypoint   | 0x0B8C   |
| Data Size    | 58 bytes |
| Instructions | 11       |

```
      00 01 02 03 04 05 06 07  08 09 0A 0B 0C 0D 0E 0F
      -- -- -- -- -- -- -- --  -- -- -- -- -- -- -- --
0B80:                                      32 5C 80 79              2\.y
0B90: 00 3E 60 0F 01 28 60 0F  01 1F 00 A2 80 A3 80 0A  .>`..(`.........
0BA0: 80 1F 01 6F 1C 4C 80 4A  3E 60 0F 01 28 60 0F 01  ...o.L.J>`..(`..
0BB0: 6F 76 3E 60 0F 01 66 A4  80 3E 60 0F 01 3E 60 0F  ov>`..f..>`..>`.
0BC0: 01 74 6C 6B 30 00                                 .tlk0.          
```

#### Opcodes

```
  0: 0x0B8C [0x32] ExtData[1]->MainSpeed = 13* * 0.1
  1: 0x0B8F [0x79] Leffquen (ID: 17784894/0x010F603E) looks at Ramicharaux (ID: 17784872/0x010F6028) (Basic look)
  2: 0x0B99 [0x1F] MOVE_ENTITY: EventEntity moves to X=-52.055*, Z=2.177*, Y=0.000*
  3: 0x0BA1 [0x1F] MOVE_ENTITY: Update entity position (mode=1)
  4: 0x0BA3 [0x6F] WAIT_FRAME_DELAY: Yield until WaitTime reaches zero
  5: 0x0BA4 [0x1C] WAIT(15* ticks)
  6: 0x0BA7 [0x4A] Leffquen (ID: 17784894/0x010F603E) looks at Ramicharaux (ID: 17784872/0x010F6028)
  7: 0x0BB0 [0x6F] WAIT_FRAME_DELAY: Yield until WaitTime reaches zero
  8: 0x0BB1 [0x76] CHECK_ENTITY_RENDER_FLAGS: Wait until Leffquen (ID: 17784894/0x010F603E) Render.Flags0 and Render.Flags3 conditions are met
  9: 0x0BB6 [0x66] LOAD_EXT_SCHEDULER_MAIN: Load scheduler "tlk0" with entities [Leffquen (ID: 17784894/0x010F603E), Leffquen (ID: 17784894/0x010F603E)], work=19*
 10: 0x0BC5 [0x00] END_REQSTACK()
```

### Event 431

#### Metadata

| Field        | Value   |
|--------------|---------|
| Entrypoint   | 0x0BC6  |
| Data Size    | 1 bytes |
| Instructions | 1       |

```
      00 01 02 03 04 05 06 07  08 09 0A 0B 0C 0D 0E 0F
      -- -- -- -- -- -- -- --  -- -- -- -- -- -- -- --
0BC0:                   00                                    .         
```

#### Opcodes

```
  0: 0x0BC6 [0x00] END_REQSTACK()
```

### Event 434

#### Metadata

| Field        | Value   |
|--------------|---------|
| Entrypoint   | 0x0BC7  |
| Data Size    | 7 bytes |
| Instructions | 2       |

```
      00 01 02 03 04 05 06 07  08 09 0A 0B 0C 0D 0E 0F
      -- -- -- -- -- -- -- --  -- -- -- -- -- -- -- --
0BC0:                      92  01 F8 FF FF 7F 00               .......  
```

#### Opcodes

```
  0: 0x0BC7 [0x92] EventEntity->Render.Flags3 ^= 0x01
  1: 0x0BCD [0x00] END_REQSTACK()
```

### Event 65535.23

#### Metadata

| Field        | Value    |
|--------------|----------|
| Entrypoint   | 0x0BCE   |
| Data Size    | 14 bytes |
| Instructions | 4        |

```
      00 01 02 03 04 05 06 07  08 09 0A 0B 0C 0D 0E 0F
      -- -- -- -- -- -- -- --  -- -- -- -- -- -- -- --
0BC0:                                            32 5C                2\
0BD0: 80 1F 00 A5 80 A6 80 0A  80 1F 01 00              ............    
```

#### Opcodes

```
  0: 0x0BCE [0x32] ExtData[1]->MainSpeed = 13* * 0.1
  1: 0x0BD1 [0x1F] MOVE_ENTITY: EventEntity moves to X=-99.000*, Z=3.000*, Y=0.000*
  2: 0x0BD9 [0x1F] MOVE_ENTITY: Update entity position (mode=1)
  3: 0x0BDB [0x00] END_REQSTACK()
```

### Event 65535.24

#### Metadata

| Field        | Value    |
|--------------|----------|
| Entrypoint   | 0x0BDC   |
| Data Size    | 58 bytes |
| Instructions | 12       |

```
      00 01 02 03 04 05 06 07  08 09 0A 0B 0C 0D 0E 0F
      -- -- -- -- -- -- -- --  -- -- -- -- -- -- -- --
0BD0:                                      1C 4C 80 5B              .L.[
0BE0: A7 80 F8 FF FF 7F F8 FF  FF 7F 6F 64 6F 30 1C A8  ..........odo0..
0BF0: 80 5B A7 80 F8 FF FF 7F  F8 FF FF 7F 6F 64 6F 31  .[..........odo1
0C00: 1C 7B 80 39 A9 80 6F 70  32 5C 80 1F 00 AA 80 AB  .{.9..op2\......
0C10: 80 0A 80 1F 01 00                                 ......          
```

#### Opcodes

```
  0: 0x0BDC [0x1C] WAIT(15* ticks)
  1: 0x0BDF [0x5B] LOAD_EXT_SCHEDULER: Load scheduler "odo0" with entities [EventEntity, EventEntity], work=2150*
  2: 0x0BEE [0x1C] WAIT(180* ticks)
  3: 0x0BF1 [0x5B] LOAD_EXT_SCHEDULER: Load scheduler "odo1" with entities [EventEntity, EventEntity], work=2150*
  4: 0x0C00 [0x1C] WAIT(60* ticks)
  5: 0x0C03 [0x39] SET_ENTITY_DIRECTION(direction=11.2°*)
  6: 0x0C06 [0x6F] WAIT_FRAME_DELAY: Yield until WaitTime reaches zero
  7: 0x0C07 [0x70] WAIT_ENTITY_RENDER_FLAG: Wait while EventEntity->Render.Flags3 bit 2 is set (cancel turn if not)
  8: 0x0C08 [0x32] ExtData[1]->MainSpeed = 13* * 0.1
  9: 0x0C0B [0x1F] MOVE_ENTITY: EventEntity moves to X=-109.000*, Z=-1.370*, Y=0.000*
 10: 0x0C13 [0x1F] MOVE_ENTITY: Update entity position (mode=1)
 11: 0x0C15 [0x00] END_REQSTACK()
```
