# 17784997

## Common Data

| Field            | Value                |
|------------------|----------------------|
| Zone             | Port Jeuno (ID: 246) |
| Block Size       | 7268 bytes           |
| Total Events     | 4                    |
| References Count | 165                  |

## List of Events

| Event ID              | Entrypoint   |   Size |   Instructions |
|-----------------------|--------------|--------|----------------|
| [65535](#event-65535) | 0x0000       |      1 |              1 |
| [402](#event-402)     | 0x0001       |     39 |              8 |
| [400](#event-400)     | 0x0028       |      6 |              4 |
| [399](#event-399)     | 0x002E       |   6529 |            758 |

## DAT References (imed_data)

|   Index | Hex Value   |   Dec Value |
|---------|-------------|-------------|
|       0 | 0x00C8      |         200 |
|       1 | 0x0000      |           0 |
|       2 | 0x194C      |        6476 |
|       3 | 0x0001      |           1 |
|       4 | 0x001B      |          27 |
|       5 | 0x0005      |           5 |
|       6 | 0x0006      |           6 |
|       7 | 0x0007      |           7 |
|       8 | 0x0008      |           8 |
|       9 | 0xFFFFB1F5  |  4294947317 |
|      10 | 0xFFFFFDB9  |  4294966713 |
|      11 | 0x0FE5      |        4069 |
|      12 | 0xFFFFEA97  |  4294961815 |
|      13 | 0x018D      |         397 |
|      14 | 0x0811      |        2065 |
|      15 | 0xFFFFDBA6  |  4294957990 |
|      16 | 0x0219      |         537 |
|      17 | 0x07E5      |        2021 |
|      18 | 0xFFFFACDB  |  4294946011 |
|      19 | 0x01C6      |         454 |
|      20 | 0x0004      |           4 |
|      21 | 0x0003      |           3 |
|      22 | 0xFFFFDAE4  |  4294957796 |
|      23 | 0x0258      |         600 |
|      24 | 0xFFFFFB50  |  4294966096 |
|      25 | 0xFFFFFED4  |  4294966996 |
|      26 | 0xFFFFFC4A  |  4294966346 |
|      27 | 0x028A      |         650 |
|      28 | 0xFFFFFC18  |  4294966296 |
|      29 | 0xFFFFB2DC  |  4294947548 |
|      30 | 0x05E7      |        1511 |
|      31 | 0x0032      |          50 |
|      32 | 0x001E      |          30 |
|      33 | 0x0F26      |        3878 |
|      34 | 0x0002      |           2 |
|      35 | 0x003C      |          60 |
|      36 | 0x02FB      |         763 |
|      37 | 0x000F      |          15 |
|      38 | 0x0014      |          20 |
|      39 | 0x005A      |          90 |
|      40 | 0x234F      |        9039 |
|      41 | 0x2350      |        9040 |
|      42 | 0x01DB      |         475 |
|      43 | 0x2351      |        9041 |
|      44 | 0x2352      |        9042 |
|      45 | 0x0078      |         120 |
|      46 | 0x01E1      |         481 |
|      47 | 0x2353      |        9043 |
|      48 | 0x2354      |        9044 |
|      49 | 0x2355      |        9045 |
|      50 | 0x2356      |        9046 |
|      51 | 0x2357      |        9047 |
|      52 | 0x2358      |        9048 |
|      53 | 0x2359      |        9049 |
|      54 | 0x01A9      |         425 |
|      55 | 0x235A      |        9050 |
|      56 | 0x0096      |         150 |
|      57 | 0x235E      |        9054 |
|      58 | 0x235B      |        9051 |
|      59 | 0x235C      |        9052 |
|      60 | 0x235D      |        9053 |
|      61 | 0x235F      |        9055 |
|      62 | 0x2360      |        9056 |
|      63 | 0x2361      |        9057 |
|      64 | 0x2362      |        9058 |
|      65 | 0x2363      |        9059 |
|      66 | 0x2364      |        9060 |
|      67 | 0x0050      |          80 |
|      68 | 0x20CC      |        8396 |
|      69 | 0x0028      |          40 |
|      70 | 0x01DD      |         477 |
|      71 | 0x2365      |        9061 |
|      72 | 0x2366      |        9062 |
|      73 | 0x2367      |        9063 |
|      74 | 0x236D      |        9069 |
|      75 | 0x236E      |        9070 |
|      76 | 0x236F      |        9071 |
|      77 | 0x2370      |        9072 |
|      78 | 0x2368      |        9064 |
|      79 | 0x2369      |        9065 |
|      80 | 0x236A      |        9066 |
|      81 | 0x236B      |        9067 |
|      82 | 0x236C      |        9068 |
|      83 | 0x2371      |        9073 |
|      84 | 0x2372      |        9074 |
|      85 | 0x2373      |        9075 |
|      86 | 0x2374      |        9076 |
|      87 | 0x2375      |        9077 |
|      88 | 0x2376      |        9078 |
|      89 | 0x01DF      |         479 |
|      90 | 0x2377      |        9079 |
|      91 | 0x2378      |        9080 |
|      92 | 0x2379      |        9081 |
|      93 | 0x237A      |        9082 |
|      94 | 0x237B      |        9083 |
|      95 | 0x237C      |        9084 |
|      96 | 0xFFFFCC08  |  4294953992 |
|      97 | 0x07D4      |        2004 |
|      98 | 0x237D      |        9085 |
|      99 | 0x237E      |        9086 |
|     100 | 0x237F      |        9087 |
|     101 | 0x032B      |         811 |
|     102 | 0x2380      |        9088 |
|     103 | 0x2381      |        9089 |
|     104 | 0x2382      |        9090 |
|     105 | 0x2383      |        9091 |
|     106 | 0x2384      |        9092 |
|     107 | 0x2385      |        9093 |
|     108 | 0x2386      |        9094 |
|     109 | 0x2387      |        9095 |
|     110 | 0x2388      |        9096 |
|     111 | 0x2389      |        9097 |
|     112 | 0x238A      |        9098 |
|     113 | 0x238B      |        9099 |
|     114 | 0x0067      |         103 |
|     115 | 0x01AD      |         429 |
|     116 | 0x238C      |        9100 |
|     117 | 0x238D      |        9101 |
|     118 | 0x032E      |         814 |
|     119 | 0x238E      |        9102 |
|     120 | 0x2390      |        9104 |
|     121 | 0x01A4      |         420 |
|     122 | 0x238F      |        9103 |
|     123 | 0x2391      |        9105 |
|     124 | 0x007F      |         127 |
|     125 | 0x002D      |          45 |
|     126 | 0x0075      |         117 |
|     127 | 0x00C9      |         201 |
|     128 | 0x2392      |        9106 |
|     129 | 0x2393      |        9107 |
|     130 | 0xFFFFCAB7  |  4294953655 |
|     131 | 0x03B4      |         948 |
|     132 | 0x0818      |        2072 |
|     133 | 0x2394      |        9108 |
|     134 | 0x2398      |        9112 |
|     135 | 0x2395      |        9109 |
|     136 | 0x2396      |        9110 |
|     137 | 0x2397      |        9111 |
|     138 | 0x01EA      |         490 |
|     139 | 0x2399      |        9113 |
|     140 | 0x239A      |        9114 |
|     141 | 0x239B      |        9115 |
|     142 | 0x239C      |        9116 |
|     143 | 0x239D      |        9117 |
|     144 | 0x239E      |        9118 |
|     145 | 0x239F      |        9119 |
|     146 | 0x23A0      |        9120 |
|     147 | 0x23A1      |        9121 |
|     148 | 0x23A2      |        9122 |
|     149 | 0x23A3      |        9123 |
|     150 | 0x23A4      |        9124 |
|     151 | 0x23A9      |        9129 |
|     152 | 0x23A5      |        9125 |
|     153 | 0x23A6      |        9126 |
|     154 | 0x23AA      |        9130 |
|     155 | 0x23A7      |        9127 |
|     156 | 0x23A8      |        9128 |
|     157 | 0x23AB      |        9131 |
|     158 | 0x23AC      |        9132 |
|     159 | 0x23AD      |        9133 |
|     160 | 0x23AE      |        9134 |
|     161 | 0x23AF      |        9135 |
|     162 | 0x23B0      |        9136 |
|     163 | 0x23B1      |        9137 |
|     164 | 0x000A      |          10 |

## String References

- **6476**: You are unable to make further progress in Rhapsodies of Vana'diel due to an event occurring in the [Chains of Promathia/Treasures of Aht Urhgan/Wings of the Goddess/Seekers of Adoulin/Rise of the Zilart] missions.
- **8396**: @@
- **9049**: Can you save Vana'diel? [Of course./I'm not confident...]
- **9085**: How do you respond? [He was fearsome./I barely broke a sweat./He looked...amazing!]
- **9117**: What do you think? [Maybe she got lost?/She didn't seem well./Think she forgot?]

## Events

### Event 65535

#### Metadata

| Field        | Value   |
|--------------|---------|
| Entrypoint   | 0x0000  |
| Data Size    | 1 bytes |
| Instructions | 1       |

```
      00 01 02 03 04 05 06 07  08 09 0A 0B 0C 0D 0E 0F
      -- -- -- -- -- -- -- --  -- -- -- -- -- -- -- --
0000: 00                                                .               
```

#### Opcodes

```
  0: 0x0000 [0x00] END_REQSTACK()
```

### Event 402

#### Metadata

| Field        | Value    |
|--------------|----------|
| Entrypoint   | 0x0001   |
| Data Size    | 39 bytes |
| Instructions | 8        |

```
      00 01 02 03 04 05 06 07  08 09 0A 0B 0C 0D 0E 0F
      -- -- -- -- -- -- -- --  -- -- -- -- -- -- -- --
0000:    42 4E 00 F0 FF FF 7F  80 F0 FF FF 7F 45 00 80   BN..........E..
0010: F8 FF FF 7F F8 FF FF 7F  66 64 69 31 01 80 03 03  ........fdi1....
0020: 10 01 80 48 02 80 21 00                           ...H..!.        
```

#### Opcodes

```
  0: 0x0001 [0x42] SET_CLI_EVENT_CANCEL_DATA()
  1: 0x0002 [0x4E] SET_ENTITY_HIDE_FLAG: Show LocalPlayer
  2: 0x0008 [0x80] LOAD_WAIT(entity=LocalPlayer)
  3: 0x000D [0x45] LOAD_SCHEDULED_TASK: Load scheduler "fdi1" with entities [EventEntity, EventEntity], work=[200*, 0*]
  4: 0x001E [0x03] Work_Zone[3] = 0*
  5: 0x0023 [0x48] [System] [6476*]:
    → "You are unable to make further progress in Rhapsodies of Vana'diel due to an event occurring in the [Chains of Promathia/Treasures of Aht Urhgan/Wings of the Goddess/Seekers of Adoulin/Rise of the Zilart] missions."
  6: 0x0026 [0x21] END_EVENT
  7: 0x0027 [0x00] END_REQSTACK()
```

### Event 400

#### Metadata

| Field        | Value   |
|--------------|---------|
| Entrypoint   | 0x0028  |
| Data Size    | 6 bytes |
| Instructions | 4       |

```
      00 01 02 03 04 05 06 07  08 09 0A 0B 0C 0D 0E 0F
      -- -- -- -- -- -- -- --  -- -- -- -- -- -- -- --
0020:                          42 1A 3D 00 21 00                B.=.!.  
```

#### Opcodes

```
  0: 0x0028 [0x42] SET_CLI_EVENT_CANCEL_DATA()
  1: 0x0029 [0x1A] CALL_SUBROUTINE(address=0x003D)
  2: 0x002C [0x21] END_EVENT
  3: 0x002D [0x00] END_REQSTACK()
```

### Event 399

#### Metadata

| Field        | Value      |
|--------------|------------|
| Entrypoint   | 0x002E     |
| Data Size    | 6529 bytes |
| Instructions | 758        |

```
      00 01 02 03 04 05 06 07  08 09 0A 0B 0C 0D 0E 0F
      -- -- -- -- -- -- -- --  -- -- -- -- -- -- -- --
0020:                                            42 03                B.
0030: 01 10 03 80 43 00 43 01  1A 3D 00 21 00 03 00 00  ....C.C..=.!....
0040: 02 10 03 01 00 03 10 03  02 00 04 10 03 03 00 05  ................
0050: 10 45 00 80 F8 FF FF 7F  F8 FF FF 7F 66 64 6F 31  .E..........fdo1
0060: 01 80 55 00 80 F8 FF FF  7F F8 FF FF 7F 66 64 6F  ..U..........fdo
0070: 31 46 01 38 04 80 2F 00  A7 60 0F 01 2F 00 A6 60  1F.8../..`../..`
0080: 0F 01 2F 00 A9 60 0F 01  2F 00 AA 60 0F 01 4E 00  ../..`../..`..N.
0090: A7 60 0F 01 4E 00 AA 60  0F 01 4E 00 A9 60 0F 01  .`..N..`..N..`..
00A0: 4E 00 F0 FF FF 7F 4E 00  A6 60 0F 01 92 01 A7 60  N.....N..`.....`
00B0: 0F 01 92 01 A6 60 0F 01  94 01 A7 60 0F 01 94 01  .....`.....`....
00C0: A9 60 0F 01 94 01 AA 60  0F 01 94 01 F0 FF FF 7F  .`.....`........
00D0: 94 01 A6 60 0F 01 02 87  7F 05 80 80 E8 00 27 05  ...`..........'.
00E0: F0 FF FF 7F 2F 01 25 01  02 87 7F 06 80 80 FA 00  ..../.%.........
00F0: 27 05 F0 FF FF 7F 2F 01  25 01 02 87 7F 07 80 80  '...../.%.......
0100: 0C 01 27 05 F0 FF FF 7F  30 01 25 01 02 87 7F 08  ..'.....0.%.....
0110: 80 80 1E 01 27 05 F0 FF  FF 7F 31 01 25 01 27 05  ....'.....1.%.'.
0120: F0 FF FF 7F 32 02 02 00  01 80 00 34 01 27 05 A6  ....2......4.'..
0130: 60 0F 01 02 02 00 00 03  80 00 43 01 27 05 A6 60  `.........C.'..`
0140: 0F 01 03 59 05 AA 60 0F  01 01 BA A7 60 0F 01 09  ...Y..`.....`...
0150: 80 0A 80 01 80 0B 80 BA  F0 FF FF 7F 0C 80 0D 80  ................
0160: 01 80 0E 80 BA A9 60 0F  01 0F 80 10 80 01 80 11  ......`.........
0170: 80 BA A6 60 0F 01 12 80  13 80 01 80 14 80 02 87  ...`............
0180: 7F 15 80 80 96 01 BA AA  60 0F 01 16 80 17 80 18  ........`.......
0190: 80 11 80 01 1B 02 02 87  7F 14 80 80 AE 01 BA AA  ................
01A0: 60 0F 01 16 80 17 80 18  80 11 80 01 1B 02 02 87  `...............
01B0: 7F 05 80 80 C6 01 BA AA  60 0F 01 16 80 17 80 19  ........`.......
01C0: 80 11 80 01 1B 02 02 87  7F 06 80 80 DE 01 BA AA  ................
01D0: 60 0F 01 16 80 17 80 19  80 11 80 01 1B 02 02 87  `...............
01E0: 7F 07 80 80 F6 01 BA AA  60 0F 01 16 80 17 80 1A  ........`.......
01F0: 80 11 80 01 1B 02 02 87  7F 08 80 80 0E 02 BA AA  ................
0200: 60 0F 01 16 80 17 80 18  80 11 80 01 1B 02 BA AA  `...............
0210: 60 0F 01 16 80 1B 80 1C  80 11 80 80 A6 60 0F 01  `............`..
0220: 80 A7 60 0F 01 80 F0 FF  FF 7F 80 A9 60 0F 01 80  ..`.........`...
0230: AA 60 0F 01 02 03 00 03  80 00 66 02 2F 00 A8 60  .`........f./..`
0240: 0F 01 4E 00 A8 60 0F 01  92 01 A8 60 0F 01 94 01  ..N..`.....`....
0250: A8 60 0F 01 BA A8 60 0F  01 1D 80 1E 80 01 80 1F  .`....`.........
0260: 80 80 A8 60 0F 01 1C 20  80 02 87 7F 03 80 80 84  ...`... ........
0270: 02 5F 03 21 80 A9 60 0F  01 A9 60 0F 01 68 6D 6D  ._.!..`...`..hmm
0280: 6C 01 41 03 02 87 7F 22  80 80 9F 02 5F 03 21 80  l.A...."...._.!.
0290: A9 60 0F 01 A9 60 0F 01  68 66 6D 6C 01 41 03 02  .`...`..hfml.A..
02A0: 87 7F 15 80 80 BA 02 5F  03 21 80 A9 60 0F 01 A9  ......._.!..`...
02B0: 60 0F 01 65 6D 6D 6C 01  41 03 02 87 7F 14 80 80  `..emml.A.......
02C0: D5 02 5F 03 21 80 A9 60  0F 01 A9 60 0F 01 65 66  .._.!..`...`..ef
02D0: 6D 6C 01 41 03 02 87 7F  05 80 80 F0 02 5F 03 21  ml.A........._.!
02E0: 80 A9 60 0F 01 A9 60 0F  01 74 6D 61 6C 01 41 03  ..`...`..tmal.A.
02F0: 02 87 7F 06 80 80 0B 03  5F 03 21 80 A9 60 0F 01  ........_.!..`..
0300: A9 60 0F 01 74 6D 61 6C  01 41 03 02 87 7F 07 80  .`..tmal.A......
0310: 80 26 03 5F 03 21 80 A9  60 0F 01 A9 60 0F 01 6D  .&._.!..`...`..m
0320: 6D 61 6C 01 41 03 02 87  7F 08 80 80 41 03 5F 03  mal.A.......A._.
0330: 21 80 A9 60 0F 01 A9 60  0F 01 67 6D 61 6C 01 41  !..`...`..gmal.A
0340: 03 02 00 00 03 80 00 53  03 27 05 A6 60 0F 01 07  .......S.'..`...
0350: 1C 23 80 27 05 F0 FF FF  7F 36 45 24 80 F8 FF FF  .#.'.....6E$....
0360: 7F F8 FF FF 7F 73 31 30  39 01 80 1C 25 80 45 00  .....s109...%.E.
0370: 80 F8 FF FF 7F F8 FF FF  7F 66 64 69 31 01 80 1C  .........fdi1...
0380: 20 80 02 00 00 01 80 00  91 03 27 05 A6 60 0F 01   .........'..`..
0390: 06 1C 26 80 27 05 A7 60  0F 01 02 1C 05 80 02 03  ..&.'..`........
03A0: 00 03 80 00 AD 03 27 05  A8 60 0F 01 02 1C 27 80  ......'..`....'.
03B0: 52 24 80 F8 FF FF 7F F8  FF FF 7F 73 31 30 39 45  R$.........s109E
03C0: 24 80 F8 FF FF 7F F8 FF  FF 7F 73 31 31 30 01 80  $.........s110..
03D0: 02 00 00 01 80 00 E3 03  2B A6 60 0F 01 28 80 23  ........+.`..(.#
03E0: 01 EB 03 2B A6 60 0F 01  29 80 23 2A 05 A6 60 0F  ...+.`..).#*..`.
03F0: 01 52 24 80 F8 FF FF 7F  F8 FF FF 7F 73 31 31 30  .R$.........s110
0400: 45 24 80 F8 FF FF 7F F8  FF FF 7F 73 31 31 31 01  E$.........s111.
0410: 80 02 01 00 03 80 00 6F  07 02 00 00 01 80 00 9A  .......o........
0420: 04 5B 2A 80 A6 60 0F 01  A6 60 0F 01 74 6C 61 30  .[*..`...`..tla0
0430: 2B A6 60 0F 01 2B 80 23  2B A6 60 0F 01 2C 80 23  +.`..+.#+.`..,.#
0440: 5B 2A 80 A6 60 0F 01 A6  60 0F 01 74 6C 61 31 1C  [*..`...`..tla1.
0450: 2D 80 2A 05 A7 60 0F 01  52 24 80 F8 FF FF 7F F8  -.*..`..R$......
0460: FF FF 7F 73 31 31 31 45  24 80 F8 FF FF 7F F8 FF  ...s111E$.......
0470: FF 7F 73 31 31 32 01 80  5B 2E 80 A6 60 0F 01 A6  ..s112..[...`...
0480: 60 0F 01 74 62 6F 30 2B  A6 60 0F 01 2F 80 23 2B  `..tbo0+.`../.#+
0490: A6 60 0F 01 30 80 23 01  DA 04 2B A6 60 0F 01 31  .`..0.#...+.`..1
04A0: 80 23 2B A6 60 0F 01 32  80 23 52 24 80 F8 FF FF  .#+.`..2.#R$....
04B0: 7F F8 FF FF 7F 73 31 31  31 45 24 80 F8 FF FF 7F  .....s111E$.....
04C0: F8 FF FF 7F 73 31 31 32  01 80 2B A6 60 0F 01 33  ....s112..+.`..3
04D0: 80 23 2B A6 60 0F 01 34  80 23 52 24 80 F8 FF FF  .#+.`..4.#R$....
04E0: 7F F8 FF FF 7F 73 31 31  32 02 87 7F 05 80 80 05  .....s112.......
04F0: 05 45 24 80 F8 FF FF 7F  F8 FF FF 7F 73 31 31 34  .E$.........s114
0500: 01 80 01 32 05 02 87 7F  06 80 80 21 05 45 24 80  ...2.......!.E$.
0510: F8 FF FF 7F F8 FF FF 7F  73 31 31 34 01 80 01 32  ........s114...2
0520: 05 45 24 80 F8 FF FF 7F  F8 FF FF 7F 73 31 31 33  .E$.........s113
0530: 01 80 24 35 80 01 80 01  80 25 02 00 10 01 80 00  ..$5.....%......
0540: D8 05 52 24 80 F8 FF FF  7F F8 FF FF 7F 73 31 31  ..R$.........s11
0550: 33 52 24 80 F8 FF FF 7F  F8 FF FF 7F 73 31 31 34  3R$.........s114
0560: 45 24 80 F8 FF FF 7F F8  FF FF 7F 73 31 31 35 01  E$.........s115.
0570: 80 5B 36 80 A7 60 0F 01  A7 60 0F 01 74 6C 61 30  .[6..`...`..tla0
0580: 02 00 00 01 80 00 B4 05  2B A7 60 0F 01 37 80 23  ........+.`..7.#
0590: 5B 2E 80 A6 60 0F 01 A6  60 0F 01 74 62 6F 31 5B  [...`...`..tbo1[
05A0: 36 80 A7 60 0F 01 A7 60  0F 01 74 6C 61 31 1C 38  6..`...`..tla1.8
05B0: 80 01 D5 05 79 00 A7 60  0F 01 A6 60 0F 01 2B A7  ....y..`...`..+.
05C0: 60 0F 01 39 80 23 5B 36  80 A7 60 0F 01 A7 60 0F  `..9.#[6..`...`.
05D0: 01 74 6C 61 31 01 A5 06  02 00 10 03 80 00 A5 06  .tla1...........
05E0: 02 00 00 01 80 00 43 06  5B 2E 80 A6 60 0F 01 A6  ......C.[...`...
05F0: 60 0F 01 74 62 6F 31 52  24 80 F8 FF FF 7F F8 FF  `..tbo1R$.......
0600: FF 7F 73 31 31 33 52 24  80 F8 FF FF 7F F8 FF FF  ..s113R$........
0610: 7F 73 31 31 34 45 24 80  F8 FF FF 7F F8 FF FF 7F  .s114E$.........
0620: 73 31 31 35 01 80 5B 36  80 A7 60 0F 01 A7 60 0F  s115..[6..`...`.
0630: 01 74 6C 61 30 2B A7 60  0F 01 37 80 1C 38 80 23  .tla0+.`..7..8.#
0640: 01 93 06 52 24 80 F8 FF  FF 7F F8 FF FF 7F 73 31  ...R$.........s1
0650: 31 33 52 24 80 F8 FF FF  7F F8 FF FF 7F 73 31 31  13R$.........s11
0660: 34 45 24 80 F8 FF FF 7F  F8 FF FF 7F 73 31 31 35  4E$.........s115
0670: 01 80 79 00 A7 60 0F 01  A6 60 0F 01 5B 36 80 A7  ..y..`...`..[6..
0680: 60 0F 01 A7 60 0F 01 74  6C 61 30 2B A7 60 0F 01  `...`..tla0+.`..
0690: 39 80 23 5B 36 80 A7 60  0F 01 A7 60 0F 01 74 6C  9.#[6..`...`..tl
06A0: 61 31 01 A5 06 52 24 80  F8 FF FF 7F F8 FF FF 7F  a1...R$.........
06B0: 73 31 31 35 45 24 80 F8  FF FF 7F F8 FF FF 7F 73  s115E$.........s
06C0: 31 31 36 01 80 4A A6 60  0F 01 A7 60 0F 01 79 00  116..J.`...`..y.
06D0: A7 60 0F 01 A6 60 0F 01  1C 20 80 02 00 00 01 80  .`...`... ......
06E0: 00 1C 07 2B A6 60 0F 01  3A 80 23 5B 2E 80 A6 60  ...+.`..:.#[...`
06F0: 0F 01 A6 60 0F 01 73 72  61 30 2B A6 60 0F 01 3B  ...`..sra0+.`..;
0700: 80 23 2B A6 60 0F 01 3C  80 23 5B 2E 80 A6 60 0F  .#+.`..<.#[...`.
0710: 01 A6 60 0F 01 73 72 61  31 01 5D 07 2B A6 60 0F  ..`..sra1.].+.`.
0720: 01 3D 80 23 2B A6 60 0F  01 3E 80 23 2B A6 60 0F  .=.#+.`..>.#+.`.
0730: 01 3F 80 23 5B 36 80 A7  60 0F 01 A7 60 0F 01 74  .?.#[6..`...`..t
0740: 6C 62 30 2B A7 60 0F 01  40 80 23 5B 36 80 A7 60  lb0+.`..@.#[6..`
0750: 0F 01 A7 60 0F 01 74 6C  62 31 1C 2D 80 52 24 80  ...`..tlb1.-.R$.
0760: F8 FF FF 7F F8 FF FF 7F  73 31 31 36 01 D1 0A 02  ........s116....
0770: 01 00 01 80 00 C2 08 5B  2A 80 A6 60 0F 01 A6 60  .......[*..`...`
0780: 0F 01 74 6C 61 30 2B A6  60 0F 01 41 80 23 2B A6  ..tla0+.`..A.#+.
0790: 60 0F 01 42 80 23 5B 2A  80 A6 60 0F 01 A6 60 0F  `..B.#[*..`...`.
07A0: 01 74 6C 61 31 2A 05 A7  60 0F 01 52 24 80 F8 FF  .tla1*..`..R$...
07B0: FF 7F F8 FF FF 7F 73 31  31 31 45 24 80 F8 FF FF  ......s111E$....
07C0: 7F F8 FF FF 7F 73 31 31  32 01 80 27 05 F0 FF FF  .....s112..'....
07D0: 7F 24 1C 43 80 45 00 80  F8 FF FF 7F F8 FF FF 7F  .$.C.E..........
07E0: 66 64 6F 31 01 80 55 00  80 F8 FF FF 7F F8 FF FF  fdo1..U.........
07F0: 7F 66 64 6F 31 52 24 80  F8 FF FF 7F F8 FF FF 7F  .fdo1R$.........
0800: 73 31 31 32 1C 23 80 48  44 80 23 1C 23 80 45 24  s112.#.HD.#.#.E$
0810: 80 F8 FF FF 7F F8 FF FF  7F 73 31 31 35 01 80 1C  .........s115...
0820: 25 80 45 00 80 F8 FF FF  7F F8 FF FF 7F 66 64 69  %.E..........fdi
0830: 31 01 80 27 05 F0 FF FF  7F 25 1C 45 80 81 00 A6  1..'.....%.E....
0840: 60 0F 01 5B 46 80 A6 60  0F 01 A6 60 0F 01 74 68  `..[F..`...`..th
0850: 6B 30 2B A6 60 0F 01 47  80 23 52 24 80 F8 FF FF  k0+.`..G.#R$....
0860: 7F F8 FF FF 7F 73 31 31  35 45 24 80 F8 FF FF 7F  .....s115E$.....
0870: F8 FF FF 7F 73 31 31 37  01 80 79 00 A7 60 0F 01  ....s117..y..`..
0880: A6 60 0F 01 02 03 00 03  80 00 96 08 79 00 A8 60  .`..........y..`
0890: 0F 01 A6 60 0F 01 2B A6  60 0F 01 48 80 23 2B A6  ...`..+.`..H.#+.
08A0: 60 0F 01 49 80 23 79 00  A6 60 0F 01 A7 60 0F 01  `..I.#y..`...`..
08B0: 5B 46 80 A6 60 0F 01 A6  60 0F 01 74 68 6B 31 01  [F..`...`..thk1.
08C0: D1 0A 02 01 00 22 80 00  68 09 5B 2A 80 A6 60 0F  ....."..h.[*..`.
08D0: 01 A6 60 0F 01 74 6C 61  30 2B A6 60 0F 01 4A 80  ..`..tla0+.`..J.
08E0: 23 2B A6 60 0F 01 4B 80  23 5B 2A 80 A6 60 0F 01  #+.`..K.#[*..`..
08F0: A6 60 0F 01 74 6C 61 31  2A 05 A7 60 0F 01 52 24  .`..tla1*..`..R$
0900: 80 F8 FF FF 7F F8 FF FF  7F 73 31 31 31 45 24 80  .........s111E$.
0910: F8 FF FF 7F F8 FF FF 7F  73 31 31 38 01 80 79 00  ........s118..y.
0920: A7 60 0F 01 A6 60 0F 01  5B 36 80 A7 60 0F 01 A7  .`...`..[6..`...
0930: 60 0F 01 74 6C 61 30 2B  A7 60 0F 01 4C 80 23 2B  `..tla0+.`..L.#+
0940: A7 60 0F 01 4D 80 23 5B  36 80 A7 60 0F 01 A7 60  .`..M.#[6..`...`
0950: 0F 01 74 6C 61 31 52 24  80 F8 FF FF 7F F8 FF FF  ..tla1R$........
0960: 7F 73 31 31 38 01 0B 0A  5B 2A 80 A6 60 0F 01 A6  .s118...[*..`...
0970: 60 0F 01 74 6C 61 30 2B  A6 60 0F 01 4E 80 23 2B  `..tla0+.`..N.#+
0980: A6 60 0F 01 4F 80 23 2B  A6 60 0F 01 50 80 23 5B  .`..O.#+.`..P.#[
0990: 2A 80 A6 60 0F 01 A6 60  0F 01 74 6C 61 31 2A 05  *..`...`..tla1*.
09A0: A7 60 0F 01 52 24 80 F8  FF FF 7F F8 FF FF 7F 73  .`..R$.........s
09B0: 31 31 31 45 24 80 F8 FF  FF 7F F8 FF FF 7F 73 31  111E$.........s1
09C0: 31 38 01 80 79 00 A7 60  0F 01 A6 60 0F 01 5B 36  18..y..`...`..[6
09D0: 80 A7 60 0F 01 A7 60 0F  01 74 6C 61 30 2B A7 60  ..`...`..tla0+.`
09E0: 0F 01 51 80 23 2B A7 60  0F 01 52 80 23 5B 36 80  ..Q.#+.`..R.#[6.
09F0: A7 60 0F 01 A7 60 0F 01  74 6C 61 31 52 24 80 F8  .`...`..tla1R$..
0A00: FF FF 7F F8 FF FF 7F 73  31 31 38 45 24 80 F8 FF  .......s118E$...
0A10: FF 7F F8 FF FF 7F 73 31  31 36 01 80 4A A6 60 0F  ......s116..J.`.
0A20: 01 A7 60 0F 01 1C 20 80  5B 2A 80 A6 60 0F 01 A6  ..`... .[*..`...
0A30: 60 0F 01 74 6C 61 30 2B  A6 60 0F 01 53 80 23 2B  `..tla0+.`..S.#+
0A40: A6 60 0F 01 54 80 23 5B  2A 80 A6 60 0F 01 A6 60  .`..T.#[*..`...`
0A50: 0F 01 74 6C 61 31 52 24  80 F8 FF FF 7F F8 FF FF  ..tla1R$........
0A60: 7F 73 31 31 36 45 24 80  F8 FF FF 7F F8 FF FF 7F  .s116E$.........
0A70: 73 31 31 39 01 80 5B 36  80 A7 60 0F 01 A7 60 0F  s119..[6..`...`.
0A80: 01 74 6C 62 30 2B A7 60  0F 01 55 80 23 5B 36 80  .tlb0+.`..U.#[6.
0A90: A7 60 0F 01 A7 60 0F 01  74 6C 62 31 5B 2A 80 A6  .`...`..tlb1[*..
0AA0: 60 0F 01 A6 60 0F 01 74  6C 63 30 2B A6 60 0F 01  `...`..tlc0+.`..
0AB0: 56 80 23 5B 2A 80 A6 60  0F 01 A6 60 0F 01 74 6C  V.#[*..`...`..tl
0AC0: 63 31 52 24 80 F8 FF FF  7F F8 FF FF 7F 73 31 31  c1R$.........s11
0AD0: 39 45 24 80 F8 FF FF 7F  F8 FF FF 7F 73 31 32 30  9E$.........s120
0AE0: 01 80 02 03 00 03 80 00  F4 0A 79 00 A8 60 0F 01  ..........y..`..
0AF0: A7 60 0F 01 27 05 A7 60  0F 01 03 7B A7 60 0F 01  .`..'..`...{.`..
0B00: 2B A7 60 0F 01 57 80 23  2B A7 60 0F 01 58 80 23  +.`..W.#+.`..X.#
0B10: 2A 05 A7 60 0F 01 4A A6  60 0F 01 A7 60 0F 01 1C  *..`..J.`...`...
0B20: 20 80 02 00 00 01 80 00  53 0B 5B 59 80 A6 60 0F   .......S.[Y..`.
0B30: 01 A6 60 0F 01 73 74 64  30 2B A6 60 0F 01 5A 80  ..`..std0+.`..Z.
0B40: 23 5B 59 80 A6 60 0F 01  A6 60 0F 01 73 74 64 31  #[Y..`...`..std1
0B50: 01 5B 0B 2B A6 60 0F 01  5B 80 23 52 24 80 F8 FF  .[.+.`..[.#R$...
0B60: FF 7F F8 FF FF 7F 73 31  32 30 45 24 80 F8 FF FF  ......s120E$....
0B70: 7F F8 FF FF 7F 73 31 32  31 01 80 4A A7 60 0F 01  .....s121..J.`..
0B80: A6 60 0F 01 1C 20 80 5B  36 80 A7 60 0F 01 A7 60  .`... .[6..`...`
0B90: 0F 01 74 6C 61 30 2B A7  60 0F 01 5C 80 23 2B A7  ..tla0+.`..\.#+.
0BA0: 60 0F 01 5D 80 23 5B 36  80 A7 60 0F 01 A7 60 0F  `..].#[6..`...`.
0BB0: 01 74 6C 61 31 4A A6 60  0F 01 F0 FF FF 7F 1C 20  .tla1J.`....... 
0BC0: 80 02 00 00 01 80 00 D4  0B 2B A6 60 0F 01 5E 80  .........+.`..^.
0BD0: 23 01 DC 0B 2B A6 60 0F  01 5F 80 23 52 24 80 F8  #...+.`.._.#R$..
0BE0: FF FF 7F F8 FF FF 7F 73  31 32 31 02 87 7F 05 80  .......s121.....
0BF0: 80 07 0C 45 24 80 F8 FF  FF 7F F8 FF FF 7F 73 31  ...E$.........s1
0C00: 31 34 01 80 01 34 0C 02  87 7F 06 80 80 23 0C 45  14...4.......#.E
0C10: 24 80 F8 FF FF 7F F8 FF  FF 7F 73 31 31 34 01 80  $.........s114..
0C20: 01 34 0C 45 24 80 F8 FF  FF 7F F8 FF FF 7F 73 31  .4.E$.........s1
0C30: 31 33 01 80 02 03 00 03  80 00 49 0C BA A8 60 0F  13........I...`.
0C40: 01 60 80 61 80 01 80 00  80 24 62 80 01 80 01 80  .`.a.....$b.....
0C50: 25 02 00 10 01 80 00 15  0D 02 00 00 01 80 00 C1  %...............
0C60: 0C 52 24 80 F8 FF FF 7F  F8 FF FF 7F 73 31 31 33  .R$.........s113
0C70: 52 24 80 F8 FF FF 7F F8  FF FF 7F 73 31 31 34 45  R$.........s114E
0C80: 24 80 F8 FF FF 7F F8 FF  FF 7F 73 31 32 32 01 80  $.........s122..
0C90: 5B 2A 80 A6 60 0F 01 A6  60 0F 01 74 6C 64 30 2B  [*..`...`..tld0+
0CA0: A6 60 0F 01 63 80 23 2B  A6 60 0F 01 64 80 23 5B  .`..c.#+.`..d.#[
0CB0: 2A 80 A6 60 0F 01 A6 60  0F 01 74 6C 64 31 01 12  *..`...`..tld1..
0CC0: 0D 5B 65 80 A6 60 0F 01  A6 60 0F 01 6D 61 30 34  .[e..`...`..ma04
0CD0: 1C 20 80 52 24 80 F8 FF  FF 7F F8 FF FF 7F 73 31  . .R$.........s1
0CE0: 31 33 52 24 80 F8 FF FF  7F F8 FF FF 7F 73 31 31  13R$.........s11
0CF0: 34 45 24 80 F8 FF FF 7F  F8 FF FF 7F 73 31 35 35  4E$.........s155
0D00: 01 80 2B A6 60 0F 01 66  80 23 2B A6 60 0F 01 67  ..+.`..f.#+.`..g
0D10: 80 23 01 CB 0E 02 00 10  03 80 00 F8 0D 02 00 00  .#..............
0D20: 01 80 00 8D 0D 52 24 80  F8 FF FF 7F F8 FF FF 7F  .....R$.........
0D30: 73 31 31 33 52 24 80 F8  FF FF 7F F8 FF FF 7F 73  s113R$.........s
0D40: 31 31 34 45 24 80 F8 FF  FF 7F F8 FF FF 7F 73 31  114E$.........s1
0D50: 32 32 01 80 5B 2A 80 A6  60 0F 01 A6 60 0F 01 74  22..[*..`...`..t
0D60: 6C 64 30 2B A6 60 0F 01  68 80 23 2B A6 60 0F 01  ld0+.`..h.#+.`..
0D70: 69 80 23 2B A6 60 0F 01  6A 80 23 5B 2A 80 A6 60  i.#+.`..j.#[*..`
0D80: 0F 01 A6 60 0F 01 74 6C  64 31 01 F5 0D 5B 65 80  ...`..tld1...[e.
0D90: A6 60 0F 01 A6 60 0F 01  6D 61 30 34 1C 20 80 52  .`...`..ma04. .R
0DA0: 24 80 F8 FF FF 7F F8 FF  FF 7F 73 31 31 33 52 24  $.........s113R$
0DB0: 80 F8 FF FF 7F F8 FF FF  7F 73 31 31 34 45 24 80  .........s114E$.
0DC0: F8 FF FF 7F F8 FF FF 7F  73 31 35 35 01 80 5B 65  ........s155..[e
0DD0: 80 A6 60 0F 01 A6 60 0F  01 6D 61 30 34 2B A6 60  ..`...`..ma04+.`
0DE0: 0F 01 6B 80 23 2B A6 60  0F 01 6C 80 23 2B A6 60  ..k.#+.`..l.#+.`
0DF0: 0F 01 6D 80 23 01 CB 0E  02 00 10 22 80 00 CB 0E  ..m.#......"....
0E00: 02 00 00 01 80 00 68 0E  52 24 80 F8 FF FF 7F F8  ......h.R$......
0E10: FF FF 7F 73 31 31 33 52  24 80 F8 FF FF 7F F8 FF  ...s113R$.......
0E20: FF 7F 73 31 31 34 45 24  80 F8 FF FF 7F F8 FF FF  ..s114E$........
0E30: 7F 73 31 32 32 01 80 5B  2A 80 A6 60 0F 01 A6 60  .s122..[*..`...`
0E40: 0F 01 74 6C 64 30 2B A6  60 0F 01 6E 80 23 2B A6  ..tld0+.`..n.#+.
0E50: 60 0F 01 6F 80 23 5B 2A  80 A6 60 0F 01 A6 60 0F  `..o.#[*..`...`.
0E60: 01 74 6C 64 31 01 C8 0E  5B 65 80 A6 60 0F 01 A6  .tld1...[e..`...
0E70: 60 0F 01 6D 61 30 34 1C  20 80 52 24 80 F8 FF FF  `..ma04. .R$....
0E80: 7F F8 FF FF 7F 73 31 31  33 52 24 80 F8 FF FF 7F  .....s113R$.....
0E90: F8 FF FF 7F 73 31 31 34  45 24 80 F8 FF FF 7F F8  ....s114E$......
0EA0: FF FF 7F 73 31 35 35 01  80 5B 65 80 A6 60 0F 01  ...s155..[e..`..
0EB0: A6 60 0F 01 6D 61 30 34  2B A6 60 0F 01 70 80 23  .`..ma04+.`..p.#
0EC0: 2B A6 60 0F 01 71 80 23  01 CB 0E 5D 01 80 2D 80  +.`..q.#...]..-.
0ED0: 52 24 80 F8 FF FF 7F F8  FF FF 7F 73 31 32 32 02  R$.........s122.
0EE0: 87 7F 15 80 80 FB 0E 45  24 80 F8 FF FF 7F F8 FF  .......E$.......
0EF0: FF 7F 73 31 32 34 01 80  01 7C 0F 02 87 7F 14 80  ..s124...|......
0F00: 80 17 0F 45 24 80 F8 FF  FF 7F F8 FF FF 7F 73 31  ...E$.........s1
0F10: 32 34 01 80 01 7C 0F 02  87 7F 05 80 80 33 0F 45  24...|.......3.E
0F20: 24 80 F8 FF FF 7F F8 FF  FF 7F 73 31 32 35 01 80  $.........s125..
0F30: 01 7C 0F 02 87 7F 06 80  80 4F 0F 45 24 80 F8 FF  .|.......O.E$...
0F40: FF 7F F8 FF FF 7F 73 31  32 35 01 80 01 7C 0F 02  ......s125...|..
0F50: 87 7F 08 80 80 6B 0F 45  24 80 F8 FF FF 7F F8 FF  .....k.E$.......
0F60: FF 7F 73 31 32 34 01 80  01 7C 0F 45 24 80 F8 FF  ..s124...|.E$...
0F70: FF 7F F8 FF FF 7F 73 31  32 33 01 80 D0 72 80 AA  ......s123...r..
0F80: 60 0F 01 AA 60 0F 01 73  74 61 31 01 80 02 03 00  `...`..sta1.....
0F90: 03 80 00 9F 0F 79 00 A8  60 0F 01 F0 FF FF 7F 1C  .....y..`.......
0FA0: 23 80 4A A7 60 0F 01 F0  FF FF 7F 1C 20 80 5B 73  #.J.`....... .[s
0FB0: 80 A7 60 0F 01 A7 60 0F  01 63 34 30 30 1C 20 80  ..`...`..c400. .
0FC0: D0 72 80 AA 60 0F 01 AA  60 0F 01 6B 69 6C 32 01  .r..`...`..kil2.
0FD0: 80 52 24 80 F8 FF FF 7F  F8 FF FF 7F 73 31 32 33  .R$.........s123
0FE0: 52 24 80 F8 FF FF 7F F8  FF FF 7F 73 31 32 34 52  R$.........s124R
0FF0: 24 80 F8 FF FF 7F F8 FF  FF 7F 73 31 32 35 45 24  $.........s125E$
1000: 80 F8 FF FF 7F F8 FF FF  7F 73 31 32 36 01 80 2B  .........s126..+
1010: A7 60 0F 01 74 80 23 2B  A7 60 0F 01 75 80 7B F0  .`..t.#+.`..u.{.
1020: FF FF 7F 27 05 F0 FF FF  7F 33 27 05 A6 60 0F 01  ...'.....3'..`..
1030: 0B 1C 23 80 23 52 24 80  F8 FF FF 7F F8 FF FF 7F  ..#.#R$.........
1040: 73 31 32 36 02 87 7F 05  80 80 60 10 45 24 80 F8  s126......`.E$..
1050: FF FF 7F F8 FF FF 7F 73  31 36 34 01 80 01 8D 10  .......s164.....
1060: 02 87 7F 06 80 80 7C 10  45 24 80 F8 FF FF 7F F8  ......|.E$......
1070: FF FF 7F 73 31 36 34 01  80 01 8D 10 45 24 80 F8  ...s164.....E$..
1080: FF FF 7F F8 FF FF 7F 73  31 36 33 01 80 D0 38 80  .......s163...8.
1090: A9 60 0F 01 A9 60 0F 01  6D 61 78 30 01 80 1C 43  .`...`..max0...C
10A0: 80 52 24 80 F8 FF FF 7F  F8 FF FF 7F 73 31 36 33  .R$.........s163
10B0: 52 24 80 F8 FF FF 7F F8  FF FF 7F 73 31 36 34 45  R$.........s164E
10C0: 24 80 F8 FF FF 7F F8 FF  FF 7F 73 31 32 38 01 80  $.........s128..
10D0: 5B 76 80 A6 60 0F 01 A6  60 0F 01 68 61 6E 30 02  [v..`...`..han0.
10E0: 00 00 01 80 00 F1 10 2B  A6 60 0F 01 77 80 01 F8  .......+.`..w...
10F0: 10 2B A6 60 0F 01 78 80  D0 72 80 A9 60 0F 01 A9  .+.`..x..r..`...
1100: 60 0F 01 73 74 61 72 01  80 1C 20 80 02 03 00 03  `..star... .....
1110: 80 00 23 11 5B 79 80 A8  60 0F 01 A8 60 0F 01 62  ..#.[y..`...`..b
1120: 69 6B 30 52 24 80 F8 FF  FF 7F F8 FF FF 7F 73 31  ik0R$.........s1
1130: 32 38 45 24 80 F8 FF FF  7F F8 FF FF 7F 73 31 32  28E$.........s12
1140: 37 01 80 02 00 00 01 80  00 55 11 2B A6 60 0F 01  7........U.+.`..
1150: 7A 80 01 5C 11 2B A6 60  0F 01 7B 80 1C 20 80 9F  z..\.+.`..{.. ..
1160: 7C 80 F8 FF FF 7F F8 FF  FF 7F 73 74 72 30 01 80  |.........str0..
1170: 1C 7D 80 9F 7C 80 F8 FF  FF 7F F8 FF FF 7F 6B 69  .}..|.........ki
1180: 6C 6C 01 80 1C 20 80 D0  72 80 A9 60 0F 01 A9 60  ll... ..r..`...`
1190: 0F 01 6B 69 6C 6C 01 80  52 24 80 F8 FF FF 7F F8  ..kill..R$......
11A0: FF FF 7F 73 31 32 37 45  24 80 F8 FF FF 7F F8 FF  ...s127E$.......
11B0: FF 7F 73 31 32 39 01 80  D0 7E 80 F0 FF FF 7F F0  ..s129...~......
11C0: FF FF 7F 74 67 74 30 01  80 1C 00 80 45 7F 80 F0  ...tgt0.....E...
11D0: FF FF 7F F0 FF FF 7F 77  68 6F 31 01 80 55 7F 80  .......who1..U..
11E0: F0 FF FF 7F F0 FF FF 7F  77 68 6F 31 52 24 80 F8  ........who1R$..
11F0: FF FF 7F F8 FF FF 7F 73  31 32 39 D0 72 80 A9 60  .......s129.r..`
1200: 0F 01 A9 60 0F 01 73 74  61 72 01 80 27 05 F0 FF  ...`..star..'...
1210: FF 7F 34 1C 23 80 45 24  80 F8 FF FF 7F F8 FF FF  ..4.#.E$........
1220: 7F 73 31 33 30 01 80 1C  25 80 45 7F 80 F0 FF FF  .s130...%.E.....
1230: 7F F0 FF FF 7F 77 68 69  31 01 80 2B A7 60 0F 01  .....whi1..+.`..
1240: 80 80 23 2B A7 60 0F 01  81 80 23 52 24 80 F8 FF  ..#+.`....#R$...
1250: FF 7F F8 FF FF 7F 73 31  33 30 45 24 80 F8 FF FF  ......s130E$....
1260: 7F F8 FF FF 7F 73 31 33  31 01 80 27 05 F0 FF FF  .....s131..'....
1270: 7F 35 1C 2D 80 45 00 80  F8 FF FF 7F F8 FF FF 7F  .5.-.E..........
1280: 66 64 6F 31 01 80 55 00  80 F8 FF FF 7F F8 FF FF  fdo1..U.........
1290: 7F 66 64 6F 31 52 24 80  F8 FF FF 7F F8 FF FF 7F  .fdo1R$.........
12A0: 73 31 33 31 D0 72 80 A9  60 0F 01 A9 60 0F 01 6B  s131.r..`...`..k
12B0: 69 6C 6C 01 80 6B 69 64  6C 30 A6 60 0F 01 6B 69  ill..kidl0.`..ki
12C0: 64 6C 30 F0 FF FF 7F 6B  69 64 6C 30 A7 60 0F 01  dl0....kidl0.`..
12D0: 27 05 A6 60 0F 01 0C 4E  01 A9 60 0F 01 4A A7 60  '..`...N..`..J.`
12E0: 0F 01 A6 60 0F 01 02 03  00 03 80 00 1C 13 6B 69  ...`..........ki
12F0: 64 6C 30 A8 60 0F 01 BA  A8 60 0F 01 82 80 83 80  dl0.`....`......
1300: 01 80 84 80 80 A8 60 0F  01 4A A8 60 0F 01 F0 FF  ......`..J.`....
1310: FF 7F 79 00 A8 60 0F 01  A7 60 0F 01 1C 23 80 48  ..y..`...`...#.H
1320: 44 80 23 02 00 00 03 80  00 40 13 81 00 A6 60 0F  D.#......@....`.
1330: 01 5B 65 80 A6 60 0F 01  A6 60 0F 01 6D 61 30 33  .[e..`...`..ma03
1340: 1C 23 80 5D 7C 80 2D 80  02 00 00 01 80 00 A4 13  .#.]|.-.........
1350: 45 24 80 F8 FF FF 7F F8  FF FF 7F 73 31 33 32 01  E$.........s132.
1360: 80 1C 25 80 45 00 80 F8  FF FF 7F F8 FF FF 7F 66  ..%.E..........f
1370: 64 69 32 01 80 81 00 A6  60 0F 01 5B 59 80 A6 60  di2.....`..[Y..`
1380: 0F 01 A6 60 0F 01 74 68  63 30 2B A6 60 0F 01 85  ...`..thc0+.`...
1390: 80 23 52 24 80 F8 FF FF  7F F8 FF FF 7F 73 31 33  .#R$.........s13
13A0: 32 01 E0 13 45 24 80 F8  FF FF 7F F8 FF FF 7F 73  2...E$.........s
13B0: 31 35 36 01 80 1C 25 80  45 00 80 F8 FF FF 7F F8  156...%.E.......
13C0: FF FF 7F 66 64 69 32 01  80 2B A6 60 0F 01 86 80  ...fdi2..+.`....
13D0: 23 52 24 80 F8 FF FF 7F  F8 FF FF 7F 73 31 35 36  #R$.........s156
13E0: 45 24 80 F8 FF FF 7F F8  FF FF 7F 73 31 33 33 01  E$.........s133.
13F0: 80 5B 36 80 A7 60 0F 01  A7 60 0F 01 74 6C 61 30  .[6..`...`..tla0
1400: 2B A7 60 0F 01 87 80 23  5B 36 80 A7 60 0F 01 A7  +.`....#[6..`...
1410: 60 0F 01 74 6C 61 31 52  24 80 F8 FF FF 7F F8 FF  `..tla1R$.......
1420: FF 7F 73 31 33 33 45 24  80 F8 FF FF 7F F8 FF FF  ..s133E$........
1430: 7F 73 31 33 34 01 80 79  00 A6 60 0F 01 A7 60 0F  .s134..y..`...`.
1440: 01 02 00 00 01 80 00 71  14 81 01 A6 60 0F 01 5B  .......q....`..[
1450: 59 80 A6 60 0F 01 A6 60  0F 01 74 68 63 31 2B A6  Y..`...`..thc1+.
1460: 60 0F 01 88 80 23 2B A6  60 0F 01 89 80 23 01 99  `....#+.`....#..
1470: 14 81 01 A6 60 0F 01 5F  05 65 80 A6 60 0F 01 A6  ....`.._.e..`...
1480: 60 0F 01 6D 61 30 34 8A  80 2B A6 60 0F 01 8B 80  `..ma04..+.`....
1490: 23 2B A6 60 0F 01 8C 80  23 52 24 80 F8 FF FF 7F  #+.`....#R$.....
14A0: F8 FF FF 7F 73 31 33 34  45 24 80 F8 FF FF 7F F8  ....s134E$......
14B0: FF FF 7F 73 31 33 35 01  80 5B 36 80 A7 60 0F 01  ...s135..[6..`..
14C0: A7 60 0F 01 74 68 6B 30  79 00 F0 FF FF 7F A7 60  .`..thk0y......`
14D0: 0F 01 2B A7 60 0F 01 8D  80 23 2B A7 60 0F 01 8E  ..+.`....#+.`...
14E0: 80 23 52 24 80 F8 FF FF  7F F8 FF FF 7F 73 31 33  .#R$.........s13
14F0: 35 45 24 80 F8 FF FF 7F  F8 FF FF 7F 73 31 33 36  5E$.........s136
1500: 01 80 24 8F 80 01 80 01  80 25 02 00 10 01 80 00  ..$......%......
1510: 63 15 52 24 80 F8 FF FF  7F F8 FF FF 7F 73 31 33  c.R$.........s13
1520: 36 45 24 80 F8 FF FF 7F  F8 FF FF 7F 73 31 33 38  6E$.........s138
1530: 01 80 5B 36 80 A7 60 0F  01 A7 60 0F 01 74 68 6B  ..[6..`...`..thk
1540: 31 2B A7 60 0F 01 90 80  23 2B A7 60 0F 01 91 80  1+.`....#+.`....
1550: 23 52 24 80 F8 FF FF 7F  F8 FF FF 7F 73 31 33 38  #R$.........s138
1560: 01 31 18 02 00 10 03 80  00 53 16 52 24 80 F8 FF  .1.......S.R$...
1570: FF 7F F8 FF FF 7F 73 31  33 36 02 00 00 01 80 00  ......s136......
1580: D5 15 45 24 80 F8 FF FF  7F F8 FF FF 7F 73 31 33  ..E$.........s13
1590: 37 01 80 79 00 A6 60 0F  01 F0 FF FF 7F 5B 59 80  7..y..`......[Y.
15A0: A6 60 0F 01 A6 60 0F 01  74 6C 63 30 2B A6 60 0F  .`...`..tlc0+.`.
15B0: 01 92 80 23 5B 59 80 A6  60 0F 01 A6 60 0F 01 74  ...#[Y..`...`..t
15C0: 6C 63 31 52 24 80 F8 FF  FF 7F F8 FF FF 7F 73 31  lc1R$.........s1
15D0: 33 37 01 07 16 45 24 80  F8 FF FF 7F F8 FF FF 7F  37...E$.........
15E0: 73 31 35 37 01 80 79 00  A6 60 0F 01 F0 FF FF 7F  s157..y..`......
15F0: 2B A6 60 0F 01 93 80 23  52 24 80 F8 FF FF 7F F8  +.`....#R$......
1600: FF FF 7F 73 31 35 37 45  24 80 F8 FF FF 7F F8 FF  ...s157E$.......
1610: FF 7F 73 31 33 38 01 80  5B 36 80 A7 60 0F 01 A7  ..s138..[6..`...
1620: 60 0F 01 74 68 6B 31 79  00 A6 60 0F 01 A7 60 0F  `..thk1y..`...`.
1630: 01 2B A7 60 0F 01 94 80  23 2B A7 60 0F 01 95 80  .+.`....#+.`....
1640: 23 52 24 80 F8 FF FF 7F  F8 FF FF 7F 73 31 33 38  #R$.........s138
1650: 01 31 18 02 00 10 22 80  00 31 18 02 00 00 01 80  .1...."..1......
1660: 00 C5 16 52 24 80 F8 FF  FF 7F F8 FF FF 7F 73 31  ...R$.........s1
1670: 33 36 45 24 80 F8 FF FF  7F F8 FF FF 7F 73 31 33  36E$.........s13
1680: 37 01 80 79 00 A6 60 0F  01 F0 FF FF 7F 5B 59 80  7..y..`......[Y.
1690: A6 60 0F 01 A6 60 0F 01  74 6C 63 30 2B A6 60 0F  .`...`..tlc0+.`.
16A0: 01 96 80 23 5B 59 80 A6  60 0F 01 A6 60 0F 01 74  ...#[Y..`...`..t
16B0: 6C 63 31 52 24 80 F8 FF  FF 7F F8 FF FF 7F 73 31  lc1R$.........s1
16C0: 33 37 01 F7 16 45 24 80  F8 FF FF 7F F8 FF FF 7F  37...E$.........
16D0: 73 31 35 37 01 80 79 00  A6 60 0F 01 F0 FF FF 7F  s157..y..`......
16E0: 2B A6 60 0F 01 97 80 23  52 24 80 F8 FF FF 7F F8  +.`....#R$......
16F0: FF FF 7F 73 31 35 37 45  24 80 F8 FF FF 7F F8 FF  ...s157E$.......
1700: FF 7F 73 31 33 38 01 80  5B 36 80 A7 60 0F 01 A7  ..s138..[6..`...
1710: 60 0F 01 74 68 6B 31 2B  A7 60 0F 01 98 80 23 52  `..thk1+.`....#R
1720: 24 80 F8 FF FF 7F F8 FF  FF 7F 73 31 33 38 45 24  $.........s138E$
1730: 80 F8 FF FF 7F F8 FF FF  7F 73 31 33 39 01 80 02  .........s139...
1740: 00 00 01 80 00 61 17 5B  46 80 A6 60 0F 01 A6 60  .....a.[F..`...`
1750: 0F 01 74 68 6B 30 2B A6  60 0F 01 99 80 23 01 73  ..thk0+.`....#.s
1760: 17 79 00 A6 60 0F 01 A7  60 0F 01 2B A6 60 0F 01  .y..`...`..+.`..
1770: 9A 80 23 5B 36 80 A7 60  0F 01 A7 60 0F 01 74 6C  ..#[6..`...`..tl
1780: 62 30 2B A7 60 0F 01 9B  80 23 5B 36 80 A7 60 0F  b0+.`....#[6..`.
1790: 01 A7 60 0F 01 74 6C 62  31 52 24 80 F8 FF FF 7F  ..`..tlb1R$.....
17A0: F8 FF FF 7F 73 31 33 39  45 24 80 F8 FF FF 7F F8  ....s139E$......
17B0: FF FF 7F 73 31 34 30 01  80 79 00 A6 60 0F 01 A7  ...s140..y..`...
17C0: 60 0F 01 02 00 00 01 80  00 E5 17 5B 46 80 A6 60  `..........[F..`
17D0: 0F 01 A6 60 0F 01 74 68  6B 31 2B A6 60 0F 01 9C  ...`..thk1+.`...
17E0: 80 23 01 ED 17 2B A6 60  0F 01 9D 80 23 52 24 80  .#...+.`....#R$.
17F0: F8 FF FF 7F F8 FF FF 7F  73 31 34 30 45 24 80 F8  ........s140E$..
1800: FF FF 7F F8 FF FF 7F 73  31 34 31 01 80 2B A7 60  .......s141..+.`
1810: 0F 01 9E 80 1C 27 80 2B  A7 60 0F 01 9F 80 23 52  .....'.+.`....#R
1820: 24 80 F8 FF FF 7F F8 FF  FF 7F 73 31 34 31 01 31  $.........s141.1
1830: 18 45 24 80 F8 FF FF 7F  F8 FF FF 7F 73 31 34 32  .E$.........s142
1840: 01 80 27 05 A7 60 0F 01  04 1C 2D 80 52 24 80 F8  ..'..`....-.R$..
1850: FF FF 7F F8 FF FF 7F 73  31 34 32 02 00 00 01 80  .......s142.....
1860: 00 BE 18 45 24 80 F8 FF  FF 7F F8 FF FF 7F 73 31  ...E$.........s1
1870: 34 33 01 80 79 00 A6 60  0F 01 F0 FF FF 7F 5B 46  43..y..`......[F
1880: 80 A6 60 0F 01 A6 60 0F  01 74 68 6B 30 2B A6 60  ..`...`..thk0+.`
1890: 0F 01 A0 80 23 5B 46 80  A6 60 0F 01 A6 60 0F 01  ....#[F..`...`..
18A0: 74 68 6B 31 2B A6 60 0F  01 A1 80 23 52 24 80 F8  thk1+.`....#R$..
18B0: FF FF 7F F8 FF FF 7F 73  31 34 33 01 06 19 45 24  .......s143...E$
18C0: 80 F8 FF FF 7F F8 FF FF  7F 73 31 35 38 01 80 79  .........s158..y
18D0: 00 A6 60 0F 01 F0 FF FF  7F 2B A6 60 0F 01 A2 80  ..`......+.`....
18E0: 23 2B A6 60 0F 01 A3 80  23 5F 07 A6 60 0F 01 A6  #+.`....#_..`...
18F0: 60 0F 01 6D 61 30 34 52  24 80 F8 FF FF 7F F8 FF  `..ma04R$.......
1900: FF 7F 73 31 35 38 45 24  80 F8 FF FF 7F F8 FF FF  ..s158E$........
1910: 7F 73 31 34 34 01 80 02  03 00 03 80 00 29 19 27  .s144........).'
1920: 05 A8 60 0F 01 03 1C A4  80 02 00 00 01 80 00 3B  ..`............;
1930: 19 27 05 A6 60 0F 01 08  01 42 19 27 05 A6 60 0F  .'..`....B.'..`.
1940: 01 09 1C 2D 80 45 00 80  F8 FF FF 7F F8 FF FF 7F  ...-.E..........
1950: 66 64 6F 31 01 80 55 00  80 F8 FF FF 7F F8 FF FF  fdo1..U.........
1960: 7F 66 64 6F 31 52 24 80  F8 FF FF 7F F8 FF FF 7F  .fdo1R$.........
1970: 73 31 34 34 7A 00 A6 60  0F 01 02 02 00 01 80 00  s144z..`........
1980: 89 19 29 05 A6 60 0F 01  05 02 00 00 03 80 00 98  ..)..`..........
1990: 19 29 05 A6 60 0F 01 04  1C 23 80 46 00 45 00 80  .)..`....#.F.E..
19A0: F8 FF FF 7F F8 FF FF 7F  66 64 69 32 01 80 1B     ........fdi2... 
```

#### Opcodes

```
  0: 0x002E [0x42] SET_CLI_EVENT_CANCEL_DATA()
  1: 0x002F [0x03] Work_Zone[1] = 1*
  2: 0x0034 [0x43] SEND_EVENT_UPDATE: Send pending tag to server (packet 0x005B)
  3: 0x0036 [0x43] SEND_EVENT_UPDATE: Check pending flag (skip if not pending)
  4: 0x0038 [0x1A] CALL_SUBROUTINE(address=0x003D)
  5: 0x003B [0x21] END_EVENT
  6: 0x003C [0x00] END_REQSTACK()

SUBROUTINE_003D:
  7: 0x003D [0x03] ExtData[1]->WorkLocal[0] = Work_Zone[2]
  8: 0x0042 [0x03] ExtData[1]->WorkLocal[1] = Work_Zone[3]
  9: 0x0047 [0x03] ExtData[1]->WorkLocal[2] = Work_Zone[4]
 10: 0x004C [0x03] ExtData[1]->WorkLocal[3] = Work_Zone[5]
 11: 0x0051 [0x45] LOAD_SCHEDULED_TASK: Load scheduler "fdo1" with entities [EventEntity, EventEntity], work=[200*, 0*]
 12: 0x0062 [0x55] WAIT_LOAD_SCHEDULER: Wait for scheduler "fdo1" with entities [EventEntity, EventEntity], work=200*
 13: 0x0071 [0x46] CAMERA_CONTROL: Disable user control
 14: 0x0073 [0x38] SET_CLIENT_EVENT_MODE(mode=27*)
 15: 0x0076 [0x2F] Tenzen (ID: 17784999/0x010F60A7)->Render.Flags0 &= ~0x80000 // Bit 19
 16: 0x007C [0x2F] Prishe (ID: 17784998/0x010F60A6)->Render.Flags0 &= ~0x80000 // Bit 19
 17: 0x0082 [0x2F] Unnamed NPC (ID: 17785001/0x010F60A9)->Render.Flags0 &= ~0x80000 // Bit 19
 18: 0x0088 [0x2F] Unnamed NPC (ID: 17785002/0x010F60AA)->Render.Flags0 &= ~0x80000 // Bit 19
 19: 0x008E [0x4E] SET_ENTITY_HIDE_FLAG: Show Tenzen (ID: 17784999/0x010F60A7)
 20: 0x0094 [0x4E] SET_ENTITY_HIDE_FLAG: Show Unnamed NPC (ID: 17785002/0x010F60AA)
 21: 0x009A [0x4E] SET_ENTITY_HIDE_FLAG: Show Unnamed NPC (ID: 17785001/0x010F60A9)
 22: 0x00A0 [0x4E] SET_ENTITY_HIDE_FLAG: Show LocalPlayer
 23: 0x00A6 [0x4E] SET_ENTITY_HIDE_FLAG: Show Prishe (ID: 17784998/0x010F60A6)
 24: 0x00AC [0x92] Tenzen (ID: 17784999/0x010F60A7)->Render.Flags3 ^= 0x01
 25: 0x00B2 [0x92] Prishe (ID: 17784998/0x010F60A6)->Render.Flags3 ^= 0x01
 26: 0x00B8 [0x94] Tenzen (ID: 17784999/0x010F60A7)->Render.Flags3 ^= 0x01
 27: 0x00BE [0x94] Unnamed NPC (ID: 17785001/0x010F60A9)->Render.Flags3 ^= 0x01
 28: 0x00C4 [0x94] Unnamed NPC (ID: 17785002/0x010F60AA)->Render.Flags3 ^= 0x01
 29: 0x00CA [0x94] LocalPlayer->Render.Flags3 ^= 0x01
 30: 0x00D0 [0x94] Prishe (ID: 17784998/0x010F60A6)->Render.Flags3 ^= 0x01
 31: 0x00D6 [0x02] IF !(LocalPlayer->Race == 5*) GOTO 0x00E8
 32: 0x00DE [0x27] REQ_SET(priority=0x05, entity_id=LocalPlayer, tag_num=0x2F)
 33: 0x00E5 [0x01] GOTO 0x0125
 34: 0x00E8 [0x02] IF !(LocalPlayer->Race == 6*) GOTO 0x00FA
 35: 0x00F0 [0x27] REQ_SET(priority=0x05, entity_id=LocalPlayer, tag_num=0x2F)
 36: 0x00F7 [0x01] GOTO 0x0125
 37: 0x00FA [0x02] IF !(LocalPlayer->Race == 7*) GOTO 0x010C
 38: 0x0102 [0x27] REQ_SET(priority=0x05, entity_id=LocalPlayer, tag_num=0x30)
 39: 0x0109 [0x01] GOTO 0x0125
 40: 0x010C [0x02] IF !(LocalPlayer->Race == 8*) GOTO 0x011E
 41: 0x0114 [0x27] REQ_SET(priority=0x05, entity_id=LocalPlayer, tag_num=0x31)
 42: 0x011B [0x01] GOTO 0x0125
 43: 0x011E [0x27] REQ_SET(priority=0x05, entity_id=LocalPlayer, tag_num=0x32)

SUBROUTINE_0125:
 44: 0x0125 [0x02] IF !(ExtData[1]->WorkLocal[2] == 0*) GOTO 0x0134
 45: 0x012D [0x27] REQ_SET(priority=0x05, entity_id=Prishe (ID: 17784998/0x010F60A6), tag_num=0x02)
 46: 0x0134 [0x02] IF !(ExtData[1]->WorkLocal[0] == 1*) GOTO 0x0143
 47: 0x013C [0x27] REQ_SET(priority=0x05, entity_id=Prishe (ID: 17784998/0x010F60A6), tag_num=0x03)
 48: 0x0143 [0x59] UPDATE_ENTITY_DATA: Unnamed NPC (ID: 17785002/0x010F60AA)->Render.Flags0 |= 0x200000
 49: 0x014A [0xBA] SET_ENTITY_POSITION(entity_id=Tenzen (ID: 17784999/0x010F60A7), pos_x=-19.979*, pos_z=-0.583*, pos_y=0.000*, direction=357.6°*)
 50: 0x0157 [0xBA] SET_ENTITY_POSITION(entity_id=LocalPlayer, pos_x=-5.481*, pos_z=0.397*, pos_y=0.000*, direction=181.5°*)
 51: 0x0164 [0xBA] SET_ENTITY_POSITION(entity_id=Unnamed NPC (ID: 17785001/0x010F60A9), pos_x=-9.306*, pos_z=0.537*, pos_y=0.000*, direction=177.6°*)
 52: 0x0171 [0xBA] SET_ENTITY_POSITION(entity_id=Prishe (ID: 17784998/0x010F60A6), pos_x=-21.285*, pos_z=0.454*, pos_y=0.000*, direction=0.4°*)
 53: 0x017E [0x02] IF !(LocalPlayer->Race == 3*) GOTO 0x0196
 54: 0x0186 [0xBA] SET_ENTITY_POSITION(entity_id=Unnamed NPC (ID: 17785002/0x010F60AA), pos_x=-9.500*, pos_z=0.600*, pos_y=-1.200*, direction=177.6°*)
 55: 0x0193 [0x01] GOTO 0x021B
 56: 0x0196 [0x02] IF !(LocalPlayer->Race == 4*) GOTO 0x01AE
 57: 0x019E [0xBA] SET_ENTITY_POSITION(entity_id=Unnamed NPC (ID: 17785002/0x010F60AA), pos_x=-9.500*, pos_z=0.600*, pos_y=-1.200*, direction=177.6°*)
 58: 0x01AB [0x01] GOTO 0x021B
 59: 0x01AE [0x02] IF !(LocalPlayer->Race == 5*) GOTO 0x01C6
 60: 0x01B6 [0xBA] SET_ENTITY_POSITION(entity_id=Unnamed NPC (ID: 17785002/0x010F60AA), pos_x=-9.500*, pos_z=0.600*, pos_y=-0.300*, direction=177.6°*)
 61: 0x01C3 [0x01] GOTO 0x021B
 62: 0x01C6 [0x02] IF !(LocalPlayer->Race == 6*) GOTO 0x01DE
 63: 0x01CE [0xBA] SET_ENTITY_POSITION(entity_id=Unnamed NPC (ID: 17785002/0x010F60AA), pos_x=-9.500*, pos_z=0.600*, pos_y=-0.300*, direction=177.6°*)
 64: 0x01DB [0x01] GOTO 0x021B
 65: 0x01DE [0x02] IF !(LocalPlayer->Race == 7*) GOTO 0x01F6
 66: 0x01E6 [0xBA] SET_ENTITY_POSITION(entity_id=Unnamed NPC (ID: 17785002/0x010F60AA), pos_x=-9.500*, pos_z=0.600*, pos_y=-0.950*, direction=177.6°*)
 67: 0x01F3 [0x01] GOTO 0x021B
 68: 0x01F6 [0x02] IF !(LocalPlayer->Race == 8*) GOTO 0x020E
 69: 0x01FE [0xBA] SET_ENTITY_POSITION(entity_id=Unnamed NPC (ID: 17785002/0x010F60AA), pos_x=-9.500*, pos_z=0.600*, pos_y=-1.200*, direction=177.6°*)
 70: 0x020B [0x01] GOTO 0x021B
 71: 0x020E [0xBA] SET_ENTITY_POSITION(entity_id=Unnamed NPC (ID: 17785002/0x010F60AA), pos_x=-9.500*, pos_z=0.650*, pos_y=-1.000*, direction=177.6°*)

SUBROUTINE_021B:
 72: 0x021B [0x80] LOAD_WAIT(entity=Prishe (ID: 17784998/0x010F60A6))
 73: 0x0220 [0x80] LOAD_WAIT(entity=Tenzen (ID: 17784999/0x010F60A7))
 74: 0x0225 [0x80] LOAD_WAIT(entity=LocalPlayer)
 75: 0x022A [0x80] LOAD_WAIT(entity=Unnamed NPC (ID: 17785001/0x010F60A9))
 76: 0x022F [0x80] LOAD_WAIT(entity=Unnamed NPC (ID: 17785002/0x010F60AA))
 77: 0x0234 [0x02] IF !(ExtData[1]->WorkLocal[3] == 1*) GOTO 0x0266
 78: 0x023C [0x2F] Ulmia (ID: 17785000/0x010F60A8)->Render.Flags0 &= ~0x80000 // Bit 19
 79: 0x0242 [0x4E] SET_ENTITY_HIDE_FLAG: Show Ulmia (ID: 17785000/0x010F60A8)
 80: 0x0248 [0x92] Ulmia (ID: 17785000/0x010F60A8)->Render.Flags3 ^= 0x01
 81: 0x024E [0x94] Ulmia (ID: 17785000/0x010F60A8)->Render.Flags3 ^= 0x01
 82: 0x0254 [0xBA] SET_ENTITY_POSITION(entity_id=Ulmia (ID: 17785000/0x010F60A8), pos_x=-19.748*, pos_z=1.511*, pos_y=0.000*, direction=4.4°*)
 83: 0x0261 [0x80] LOAD_WAIT(entity=Ulmia (ID: 17785000/0x010F60A8))
 84: 0x0266 [0x1C] WAIT(30* ticks)
 85: 0x0269 [0x02] IF !(LocalPlayer->Race == 1*) GOTO 0x0284
 86: 0x0271 [0x5F] MULTI_HANDLER_COMPLEX(mode=0x03 - Load ext scheduler (OpCode 0x5B mode 0), ref=3878*, entity1=Unnamed NPC (ID: 17785001/0x010F60A9), entity2=Unnamed NPC (ID: 17785001/0x010F60A9), string="hmml")
 87: 0x0281 [0x01] GOTO 0x0341
 88: 0x0284 [0x02] IF !(LocalPlayer->Race == 2*) GOTO 0x029F
 89: 0x028C [0x5F] MULTI_HANDLER_COMPLEX(mode=0x03 - Load ext scheduler (OpCode 0x5B mode 0), ref=3878*, entity1=Unnamed NPC (ID: 17785001/0x010F60A9), entity2=Unnamed NPC (ID: 17785001/0x010F60A9), string="hfml")
 90: 0x029C [0x01] GOTO 0x0341
 91: 0x029F [0x02] IF !(LocalPlayer->Race == 3*) GOTO 0x02BA
 92: 0x02A7 [0x5F] MULTI_HANDLER_COMPLEX(mode=0x03 - Load ext scheduler (OpCode 0x5B mode 0), ref=3878*, entity1=Unnamed NPC (ID: 17785001/0x010F60A9), entity2=Unnamed NPC (ID: 17785001/0x010F60A9), string="emml")
 93: 0x02B7 [0x01] GOTO 0x0341
 94: 0x02BA [0x02] IF !(LocalPlayer->Race == 4*) GOTO 0x02D5
 95: 0x02C2 [0x5F] MULTI_HANDLER_COMPLEX(mode=0x03 - Load ext scheduler (OpCode 0x5B mode 0), ref=3878*, entity1=Unnamed NPC (ID: 17785001/0x010F60A9), entity2=Unnamed NPC (ID: 17785001/0x010F60A9), string="efml")
 96: 0x02D2 [0x01] GOTO 0x0341
 97: 0x02D5 [0x02] IF !(LocalPlayer->Race == 5*) GOTO 0x02F0
 98: 0x02DD [0x5F] MULTI_HANDLER_COMPLEX(mode=0x03 - Load ext scheduler (OpCode 0x5B mode 0), ref=3878*, entity1=Unnamed NPC (ID: 17785001/0x010F60A9), entity2=Unnamed NPC (ID: 17785001/0x010F60A9), string="tmal")
 99: 0x02ED [0x01] GOTO 0x0341
100: 0x02F0 [0x02] IF !(LocalPlayer->Race == 6*) GOTO 0x030B
101: 0x02F8 [0x5F] MULTI_HANDLER_COMPLEX(mode=0x03 - Load ext scheduler (OpCode 0x5B mode 0), ref=3878*, entity1=Unnamed NPC (ID: 17785001/0x010F60A9), entity2=Unnamed NPC (ID: 17785001/0x010F60A9), string="tmal")
102: 0x0308 [0x01] GOTO 0x0341
103: 0x030B [0x02] IF !(LocalPlayer->Race == 7*) GOTO 0x0326
104: 0x0313 [0x5F] MULTI_HANDLER_COMPLEX(mode=0x03 - Load ext scheduler (OpCode 0x5B mode 0), ref=3878*, entity1=Unnamed NPC (ID: 17785001/0x010F60A9), entity2=Unnamed NPC (ID: 17785001/0x010F60A9), string="mmal")
105: 0x0323 [0x01] GOTO 0x0341
106: 0x0326 [0x02] IF !(LocalPlayer->Race == 8*) GOTO 0x0341
107: 0x032E [0x5F] MULTI_HANDLER_COMPLEX(mode=0x03 - Load ext scheduler (OpCode 0x5B mode 0), ref=3878*, entity1=Unnamed NPC (ID: 17785001/0x010F60A9), entity2=Unnamed NPC (ID: 17785001/0x010F60A9), string="gmal")
108: 0x033E [0x01] GOTO 0x0341

SUBROUTINE_0341:
109: 0x0341 [0x02] IF !(ExtData[1]->WorkLocal[0] == 1*) GOTO 0x0353
110: 0x0349 [0x27] REQ_SET(priority=0x05, entity_id=Prishe (ID: 17784998/0x010F60A6), tag_num=0x07)
111: 0x0350 [0x1C] WAIT(60* ticks)
112: 0x0353 [0x27] REQ_SET(priority=0x05, entity_id=LocalPlayer, tag_num=0x36)
113: 0x035A [0x45] LOAD_SCHEDULED_TASK: Load scheduler "s109" with entities [EventEntity, EventEntity], work=[763*, 0*]
114: 0x036B [0x1C] WAIT(15* ticks)
115: 0x036E [0x45] LOAD_SCHEDULED_TASK: Load scheduler "fdi1" with entities [EventEntity, EventEntity], work=[200*, 0*]
116: 0x037F [0x1C] WAIT(30* ticks)
117: 0x0382 [0x02] IF !(ExtData[1]->WorkLocal[0] == 0*) GOTO 0x0391
118: 0x038A [0x27] REQ_SET(priority=0x05, entity_id=Prishe (ID: 17784998/0x010F60A6), tag_num=0x06)
119: 0x0391 [0x1C] WAIT(20* ticks)
120: 0x0394 [0x27] REQ_SET(priority=0x05, entity_id=Tenzen (ID: 17784999/0x010F60A7), tag_num=0x02)
121: 0x039B [0x1C] WAIT(5* ticks)
122: 0x039E [0x02] IF !(ExtData[1]->WorkLocal[3] == 1*) GOTO 0x03AD
123: 0x03A6 [0x27] REQ_SET(priority=0x05, entity_id=Ulmia (ID: 17785000/0x010F60A8), tag_num=0x02)
124: 0x03AD [0x1C] WAIT(90* ticks)
125: 0x03B0 [0x52] END_LOAD_SCHEDULER: End scheduler "s109" with entities [EventEntity, EventEntity], work=763*
126: 0x03BF [0x45] LOAD_SCHEDULED_TASK: Load scheduler "s110" with entities [EventEntity, EventEntity], work=[763*, 0*]
127: 0x03D0 [0x02] IF !(ExtData[1]->WorkLocal[0] == 0*) GOTO 0x03E3
128: 0x03D8 [0x2B] Prishe (ID: 17784998/0x010F60A6) [9039*]:
    → "Yo, <Player>, I hauled tail as soon as I heard!"
129: 0x03DF [0x23] WAIT_FOR_DIALOG_INTERACTION
130: 0x03E0 [0x01] GOTO 0x03EB
131: 0x03E3 [0x2B] Prishe (ID: 17784998/0x010F60A6) [9040*]:
    → "Oh, my! I hear things have gotten a bit rough lately!"
132: 0x03EA [0x23] WAIT_FOR_DIALOG_INTERACTION

SUBROUTINE_03EB:
133: 0x03EB [0x2A] GET_REQ_LEVEL(level=5, entity_id=Prishe (ID: 17784998/0x010F60A6))
134: 0x03F1 [0x52] END_LOAD_SCHEDULER: End scheduler "s110" with entities [EventEntity, EventEntity], work=763*
135: 0x0400 [0x45] LOAD_SCHEDULED_TASK: Load scheduler "s111" with entities [EventEntity, EventEntity], work=[763*, 0*]
136: 0x0411 [0x02] IF !(ExtData[1]->WorkLocal[1] == 1*) GOTO 0x076F
137: 0x0419 [0x02] IF !(ExtData[1]->WorkLocal[0] == 0*) GOTO 0x049A
138: 0x0421 [0x5B] LOAD_EXT_SCHEDULER: Load scheduler "tla0" with entities [Prishe (ID: 17784998/0x010F60A6), Prishe (ID: 17784998/0x010F60A6)], work=475*
139: 0x0430 [0x2B] Prishe (ID: 17784998/0x010F60A6) [9041*]:
    → "You shoulda heard Tenzen prattle on! Dying world this, dark future that...ugh. It was all I could do not to smack him right in the kisser!"
140: 0x0437 [0x23] WAIT_FOR_DIALOG_INTERACTION
141: 0x0438 [0x2B] Prishe (ID: 17784998/0x010F60A6) [9042*]:
    → "Figured the old fart was trying to pull the wool over my eyes."
142: 0x043F [0x23] WAIT_FOR_DIALOG_INTERACTION
143: 0x0440 [0x5B] LOAD_EXT_SCHEDULER: Load scheduler "tla1" with entities [Prishe (ID: 17784998/0x010F60A6), Prishe (ID: 17784998/0x010F60A6)], work=475*
144: 0x044F [0x1C] WAIT(120* ticks)
145: 0x0452 [0x2A] GET_REQ_LEVEL(level=5, entity_id=Tenzen (ID: 17784999/0x010F60A7))
146: 0x0458 [0x52] END_LOAD_SCHEDULER: End scheduler "s111" with entities [EventEntity, EventEntity], work=763*
147: 0x0467 [0x45] LOAD_SCHEDULED_TASK: Load scheduler "s112" with entities [EventEntity, EventEntity], work=[763*, 0*]
148: 0x0478 [0x5B] LOAD_EXT_SCHEDULER: Load scheduler "tbo0" with entities [Prishe (ID: 17784998/0x010F60A6), Prishe (ID: 17784998/0x010F60A6)], work=481*
149: 0x0487 [0x2B] Prishe (ID: 17784998/0x010F60A6) [9043*]:
    → "C'mon. Even if the world were really in danger, all it would take is a quick few shakes of my fist and everything'd be right as rain."
150: 0x048E [0x23] WAIT_FOR_DIALOG_INTERACTION
151: 0x048F [0x2B] Prishe (ID: 17784998/0x010F60A6) [9044*]:
    → "I mean, seriously. Right?"
152: 0x0496 [0x23] WAIT_FOR_DIALOG_INTERACTION
153: 0x0497 [0x01] GOTO 0x04DA
154: 0x049A [0x2B] Prishe (ID: 17784998/0x010F60A6) [9045*]:
    → "I admit his ominous words were a bit scary. The world is dying, the future is bleak..."
155: 0x04A1 [0x23] WAIT_FOR_DIALOG_INTERACTION
156: 0x04A2 [0x2B] Prishe (ID: 17784998/0x010F60A6) [9046*]:
    → "Now that I'm no longer able to look deeply into people's hearts, I couldn't tell if he was playing a cruel joke."
157: 0x04A9 [0x23] WAIT_FOR_DIALOG_INTERACTION
158: 0x04AA [0x52] END_LOAD_SCHEDULER: End scheduler "s111" with entities [EventEntity, EventEntity], work=763*
159: 0x04B9 [0x45] LOAD_SCHEDULED_TASK: Load scheduler "s112" with entities [EventEntity, EventEntity], work=[763*, 0*]
160: 0x04CA [0x2B] Prishe (ID: 17784998/0x010F60A6) [9047*]:
    → "But then it struck me--even if something terrible was about to happen, you'd be able to see us through it."
161: 0x04D1 [0x23] WAIT_FOR_DIALOG_INTERACTION
162: 0x04D2 [0x2B] Prishe (ID: 17784998/0x010F60A6) [9048*]:
    → "You would, wouldn't you?"
163: 0x04D9 [0x23] WAIT_FOR_DIALOG_INTERACTION

SUBROUTINE_04DA:
164: 0x04DA [0x52] END_LOAD_SCHEDULER: End scheduler "s112" with entities [EventEntity, EventEntity], work=763*
165: 0x04E9 [0x02] IF !(LocalPlayer->Race == 5*) GOTO 0x0505
166: 0x04F1 [0x45] LOAD_SCHEDULED_TASK: Load scheduler "s114" with entities [EventEntity, EventEntity], work=[763*, 0*]
167: 0x0502 [0x01] GOTO 0x0532
168: 0x0505 [0x02] IF !(LocalPlayer->Race == 6*) GOTO 0x0521
169: 0x050D [0x45] LOAD_SCHEDULED_TASK: Load scheduler "s114" with entities [EventEntity, EventEntity], work=[763*, 0*]
170: 0x051E [0x01] GOTO 0x0532
171: 0x0521 [0x45] LOAD_SCHEDULED_TASK: Load scheduler "s113" with entities [EventEntity, EventEntity], work=[763*, 0*]

SUBROUTINE_0532:
172: 0x0532 [0x24] CREATE_DIALOG(message_id=9049*, default_option=0*, option_flags=0*)
    → "Can you save Vana'diel? [Of course./I'm not confident...]"
173: 0x0539 [0x25] WAIT_DIALOG_SELECT()
174: 0x053A [0x02] IF !(Work_Zone[0] == 0*) GOTO 0x05D8
175: 0x0542 [0x52] END_LOAD_SCHEDULER: End scheduler "s113" with entities [EventEntity, EventEntity], work=763*
176: 0x0551 [0x52] END_LOAD_SCHEDULER: End scheduler "s114" with entities [EventEntity, EventEntity], work=763*
177: 0x0560 [0x45] LOAD_SCHEDULED_TASK: Load scheduler "s115" with entities [EventEntity, EventEntity], work=[763*, 0*]
178: 0x0571 [0x5B] LOAD_EXT_SCHEDULER: Load scheduler "tla0" with entities [Tenzen (ID: 17784999/0x010F60A7), Tenzen (ID: 17784999/0x010F60A7)], work=425*
179: 0x0580 [0x02] IF !(ExtData[1]->WorkLocal[0] == 0*) GOTO 0x05B4
180: 0x0588 [0x2B] Tenzen (ID: 17784999/0x010F60A7) [9050*]:
    → "Ah, Lady Prishe. 'Tis good to see you looking your usual chipper self."
181: 0x058F [0x23] WAIT_FOR_DIALOG_INTERACTION
182: 0x0590 [0x5B] LOAD_EXT_SCHEDULER: Load scheduler "tbo1" with entities [Prishe (ID: 17784998/0x010F60A6), Prishe (ID: 17784998/0x010F60A6)], work=481*
183: 0x059F [0x5B] LOAD_EXT_SCHEDULER: Load scheduler "tla1" with entities [Tenzen (ID: 17784999/0x010F60A7), Tenzen (ID: 17784999/0x010F60A7)], work=425*
184: 0x05AE [0x1C] WAIT(150* ticks)
185: 0x05B1 [0x01] GOTO 0x05D5
186: 0x05B4 [0x79] Tenzen (ID: 17784999/0x010F60A7) looks at Prishe (ID: 17784998/0x010F60A6) (Basic look)
187: 0x05BE [0x2B] Tenzen (ID: 17784999/0x010F60A7) [9054*]:
    → "Lady Prishe...? Are you feeling ill?"
188: 0x05C5 [0x23] WAIT_FOR_DIALOG_INTERACTION
189: 0x05C6 [0x5B] LOAD_EXT_SCHEDULER: Load scheduler "tla1" with entities [Tenzen (ID: 17784999/0x010F60A7), Tenzen (ID: 17784999/0x010F60A7)], work=425*

SUBROUTINE_05D5:
190: 0x05D5 [0x01] GOTO 0x06A5
191: 0x05D8 [0x02] IF !(Work_Zone[0] == 1*) GOTO 0x06A5
192: 0x05E0 [0x02] IF !(ExtData[1]->WorkLocal[0] == 0*) GOTO 0x0643
193: 0x05E8 [0x5B] LOAD_EXT_SCHEDULER: Load scheduler "tbo1" with entities [Prishe (ID: 17784998/0x010F60A6), Prishe (ID: 17784998/0x010F60A6)], work=481*
194: 0x05F7 [0x52] END_LOAD_SCHEDULER: End scheduler "s113" with entities [EventEntity, EventEntity], work=763*
195: 0x0606 [0x52] END_LOAD_SCHEDULER: End scheduler "s114" with entities [EventEntity, EventEntity], work=763*
196: 0x0615 [0x45] LOAD_SCHEDULED_TASK: Load scheduler "s115" with entities [EventEntity, EventEntity], work=[763*, 0*]
197: 0x0626 [0x5B] LOAD_EXT_SCHEDULER: Load scheduler "tla0" with entities [Tenzen (ID: 17784999/0x010F60A7), Tenzen (ID: 17784999/0x010F60A7)], work=425*
198: 0x0635 [0x2B] Tenzen (ID: 17784999/0x010F60A7) [9050*]:
    → "Ah, Lady Prishe. 'Tis good to see you looking your usual chipper self."
199: 0x063C [0x1C] WAIT(150* ticks)
200: 0x063F [0x23] WAIT_FOR_DIALOG_INTERACTION
201: 0x0640 [0x01] GOTO 0x0693
202: 0x0643 [0x52] END_LOAD_SCHEDULER: End scheduler "s113" with entities [EventEntity, EventEntity], work=763*
203: 0x0652 [0x52] END_LOAD_SCHEDULER: End scheduler "s114" with entities [EventEntity, EventEntity], work=763*
204: 0x0661 [0x45] LOAD_SCHEDULED_TASK: Load scheduler "s115" with entities [EventEntity, EventEntity], work=[763*, 0*]
205: 0x0672 [0x79] Tenzen (ID: 17784999/0x010F60A7) looks at Prishe (ID: 17784998/0x010F60A6) (Basic look)
206: 0x067C [0x5B] LOAD_EXT_SCHEDULER: Load scheduler "tla0" with entities [Tenzen (ID: 17784999/0x010F60A7), Tenzen (ID: 17784999/0x010F60A7)], work=425*
207: 0x068B [0x2B] Tenzen (ID: 17784999/0x010F60A7) [9054*]:
    → "Lady Prishe...? Are you feeling ill?"
208: 0x0692 [0x23] WAIT_FOR_DIALOG_INTERACTION

SUBROUTINE_0693:
209: 0x0693 [0x5B] LOAD_EXT_SCHEDULER: Load scheduler "tla1" with entities [Tenzen (ID: 17784999/0x010F60A7), Tenzen (ID: 17784999/0x010F60A7)], work=425*
210: 0x06A2 [0x01] GOTO 0x06A5

SUBROUTINE_06A5:
211: 0x06A5 [0x52] END_LOAD_SCHEDULER: End scheduler "s115" with entities [EventEntity, EventEntity], work=763*
212: 0x06B4 [0x45] LOAD_SCHEDULED_TASK: Load scheduler "s116" with entities [EventEntity, EventEntity], work=[763*, 0*]
213: 0x06C5 [0x4A] Prishe (ID: 17784998/0x010F60A6) looks at Tenzen (ID: 17784999/0x010F60A7)
214: 0x06CE [0x79] Tenzen (ID: 17784999/0x010F60A7) looks at Prishe (ID: 17784998/0x010F60A6) (Basic look)
215: 0x06D8 [0x1C] WAIT(30* ticks)
216: 0x06DB [0x02] IF !(ExtData[1]->WorkLocal[0] == 0*) GOTO 0x071C
217: 0x06E3 [0x2B] Prishe (ID: 17784998/0x010F60A6) [9051*]:
    → "'Course I am."
218: 0x06EA [0x23] WAIT_FOR_DIALOG_INTERACTION
219: 0x06EB [0x5B] LOAD_EXT_SCHEDULER: Load scheduler "sra0" with entities [Prishe (ID: 17784998/0x010F60A6), Prishe (ID: 17784998/0x010F60A6)], work=481*
220: 0x06FA [0x2B] Prishe (ID: 17784998/0x010F60A6) [9052*]:
    → "Gimme a break. You keep spewing a load of crap about the end of the world, so how else am I supposed to react?"
221: 0x0701 [0x23] WAIT_FOR_DIALOG_INTERACTION
222: 0x0702 [0x2B] Prishe (ID: 17784998/0x010F60A6) [9053*]:
    → "We already put a lid on that messy business, so there's nothing left to worry about!"
223: 0x0709 [0x23] WAIT_FOR_DIALOG_INTERACTION
224: 0x070A [0x5B] LOAD_EXT_SCHEDULER: Load scheduler "sra1" with entities [Prishe (ID: 17784998/0x010F60A6), Prishe (ID: 17784998/0x010F60A6)], work=481*
225: 0x0719 [0x01] GOTO 0x075D
226: 0x071C [0x2B] Prishe (ID: 17784998/0x010F60A6) [9055*]:
    → "Why, most certainly."
227: 0x0723 [0x23] WAIT_FOR_DIALOG_INTERACTION
228: 0x0724 [0x2B] Prishe (ID: 17784998/0x010F60A6) [9056*]:
    → "How else would one feel when an old friend comes bearing ill tidings about the end of the world?"
229: 0x072B [0x23] WAIT_FOR_DIALOG_INTERACTION
230: 0x072C [0x2B] Prishe (ID: 17784998/0x010F60A6) [9057*]:
    → "Have we not already solved this problem? Why would it rear its ugly head anew? It's enough to set my head swimming!"
231: 0x0733 [0x23] WAIT_FOR_DIALOG_INTERACTION
232: 0x0734 [0x5B] LOAD_EXT_SCHEDULER: Load scheduler "tlb0" with entities [Tenzen (ID: 17784999/0x010F60A7), Tenzen (ID: 17784999/0x010F60A7)], work=425*
233: 0x0743 [0x2B] Tenzen (ID: 17784999/0x010F60A7) [9058*]:
    → "Ah, that would explain it. I must confess to having difficulty discerning my right from my left as well these past weeks..."
234: 0x074A [0x23] WAIT_FOR_DIALOG_INTERACTION
235: 0x074B [0x5B] LOAD_EXT_SCHEDULER: Load scheduler "tlb1" with entities [Tenzen (ID: 17784999/0x010F60A7), Tenzen (ID: 17784999/0x010F60A7)], work=425*
236: 0x075A [0x1C] WAIT(120* ticks)

SUBROUTINE_075D:
237: 0x075D [0x52] END_LOAD_SCHEDULER: End scheduler "s116" with entities [EventEntity, EventEntity], work=763*
238: 0x076C [0x01] GOTO 0x0AD1
239: 0x076F [0x02] IF !(ExtData[1]->WorkLocal[1] == 0*) GOTO 0x08C2
240: 0x0777 [0x5B] LOAD_EXT_SCHEDULER: Load scheduler "tla0" with entities [Prishe (ID: 17784998/0x010F60A6), Prishe (ID: 17784998/0x010F60A6)], work=475*
241: 0x0786 [0x2B] Prishe (ID: 17784998/0x010F60A6) [9059*]:
    → "This creepy old coot rushes in and starts blabbing about dying world this, dark future that...ugh. It was all I could do not to smack him right in the kisser!"
242: 0x078D [0x23] WAIT_FOR_DIALOG_INTERACTION
243: 0x078E [0x2B] Prishe (ID: 17784998/0x010F60A6) [9060*]:
    → "The blood rushed to my head and now it's pounding like I just ran face-first into a wall!"
244: 0x0795 [0x23] WAIT_FOR_DIALOG_INTERACTION
245: 0x0796 [0x5B] LOAD_EXT_SCHEDULER: Load scheduler "tla1" with entities [Prishe (ID: 17784998/0x010F60A6), Prishe (ID: 17784998/0x010F60A6)], work=475*
246: 0x07A5 [0x2A] GET_REQ_LEVEL(level=5, entity_id=Tenzen (ID: 17784999/0x010F60A7))
247: 0x07AB [0x52] END_LOAD_SCHEDULER: End scheduler "s111" with entities [EventEntity, EventEntity], work=763*
248: 0x07BA [0x45] LOAD_SCHEDULED_TASK: Load scheduler "s112" with entities [EventEntity, EventEntity], work=[763*, 0*]
249: 0x07CB [0x27] REQ_SET(priority=0x05, entity_id=LocalPlayer, tag_num=0x24)
250: 0x07D2 [0x1C] WAIT(80* ticks)
251: 0x07D5 [0x45] LOAD_SCHEDULED_TASK: Load scheduler "fdo1" with entities [EventEntity, EventEntity], work=[200*, 0*]
252: 0x07E6 [0x55] WAIT_LOAD_SCHEDULER: Wait for scheduler "fdo1" with entities [EventEntity, EventEntity], work=200*
253: 0x07F5 [0x52] END_LOAD_SCHEDULER: End scheduler "s112" with entities [EventEntity, EventEntity], work=763*
254: 0x0804 [0x1C] WAIT(60* ticks)
255: 0x0807 [0x48] [System] [8396*]:
    → "@@"
256: 0x080A [0x23] WAIT_FOR_DIALOG_INTERACTION
257: 0x080B [0x1C] WAIT(60* ticks)
258: 0x080E [0x45] LOAD_SCHEDULED_TASK: Load scheduler "s115" with entities [EventEntity, EventEntity], work=[763*, 0*]
259: 0x081F [0x1C] WAIT(15* ticks)
260: 0x0822 [0x45] LOAD_SCHEDULED_TASK: Load scheduler "fdi1" with entities [EventEntity, EventEntity], work=[200*, 0*]
261: 0x0833 [0x27] REQ_SET(priority=0x05, entity_id=LocalPlayer, tag_num=0x25)
262: 0x083A [0x1C] WAIT(40* ticks)
263: 0x083D [0x81] SET_ENTITY_BLINKING(blink_flag=0x00, entity=Prishe (ID: 17784998/0x010F60A6))
264: 0x0843 [0x5B] LOAD_EXT_SCHEDULER: Load scheduler "thk0" with entities [Prishe (ID: 17784998/0x010F60A6), Prishe (ID: 17784998/0x010F60A6)], work=477*
265: 0x0852 [0x2B] Prishe (ID: 17784998/0x010F60A6) [9061*]:
    → "Ah. Well, that solves the mystery of his obnoxious prattling."
266: 0x0859 [0x23] WAIT_FOR_DIALOG_INTERACTION
267: 0x085A [0x52] END_LOAD_SCHEDULER: End scheduler "s115" with entities [EventEntity, EventEntity], work=763*
268: 0x0869 [0x45] LOAD_SCHEDULED_TASK: Load scheduler "s117" with entities [EventEntity, EventEntity], work=[763*, 0*]
269: 0x087A [0x79] Tenzen (ID: 17784999/0x010F60A7) looks at Prishe (ID: 17784998/0x010F60A6) (Basic look)
270: 0x0884 [0x02] IF !(ExtData[1]->WorkLocal[3] == 1*) GOTO 0x0896
271: 0x088C [0x79] Ulmia (ID: 17785000/0x010F60A8) looks at Prishe (ID: 17784998/0x010F60A6) (Basic look)
272: 0x0896 [0x2B] Prishe (ID: 17784998/0x010F60A6) [9062*]:
    → "Then this whole "Emptiness" thing's gotta be connected, right?"
273: 0x089D [0x23] WAIT_FOR_DIALOG_INTERACTION
274: 0x089E [0x2B] Prishe (ID: 17784998/0x010F60A6) [9063*]:
    → "And you mean to say that it's our destiny to send it packing?"
275: 0x08A5 [0x23] WAIT_FOR_DIALOG_INTERACTION
276: 0x08A6 [0x79] Prishe (ID: 17784998/0x010F60A6) looks at Tenzen (ID: 17784999/0x010F60A7) (Basic look)
277: 0x08B0 [0x5B] LOAD_EXT_SCHEDULER: Load scheduler "thk1" with entities [Prishe (ID: 17784998/0x010F60A6), Prishe (ID: 17784998/0x010F60A6)], work=477*
278: 0x08BF [0x01] GOTO 0x0AD1
279: 0x08C2 [0x02] IF !(ExtData[1]->WorkLocal[1] == 2*) GOTO 0x0968
280: 0x08CA [0x5B] LOAD_EXT_SCHEDULER: Load scheduler "tla0" with entities [Prishe (ID: 17784998/0x010F60A6), Prishe (ID: 17784998/0x010F60A6)], work=475*
281: 0x08D9 [0x2B] Prishe (ID: 17784998/0x010F60A6) [9069*]:
    → "You shoulda heard Tenzen prattle on! Dying world this, dark future that...ugh. It was all I could do not to smack him right in the kisser!"
282: 0x08E0 [0x23] WAIT_FOR_DIALOG_INTERACTION
283: 0x08E1 [0x2B] Prishe (ID: 17784998/0x010F60A6) [9070*]:
    → "Old coot is so damn noisy it was like I had those three Tarutaru dancing in my head."
284: 0x08E8 [0x23] WAIT_FOR_DIALOG_INTERACTION
285: 0x08E9 [0x5B] LOAD_EXT_SCHEDULER: Load scheduler "tla1" with entities [Prishe (ID: 17784998/0x010F60A6), Prishe (ID: 17784998/0x010F60A6)], work=475*
286: 0x08F8 [0x2A] GET_REQ_LEVEL(level=5, entity_id=Tenzen (ID: 17784999/0x010F60A7))
287: 0x08FE [0x52] END_LOAD_SCHEDULER: End scheduler "s111" with entities [EventEntity, EventEntity], work=763*
288: 0x090D [0x45] LOAD_SCHEDULED_TASK: Load scheduler "s118" with entities [EventEntity, EventEntity], work=[763*, 0*]
289: 0x091E [0x79] Tenzen (ID: 17784999/0x010F60A7) looks at Prishe (ID: 17784998/0x010F60A6) (Basic look)
290: 0x0928 [0x5B] LOAD_EXT_SCHEDULER: Load scheduler "tla0" with entities [Tenzen (ID: 17784999/0x010F60A7), Tenzen (ID: 17784999/0x010F60A7)], work=425*
291: 0x0937 [0x2B] Tenzen (ID: 17784999/0x010F60A7) [9071*]:
    → "Lady Prishe, are you not the least bit concerned!?"
292: 0x093E [0x23] WAIT_FOR_DIALOG_INTERACTION
293: 0x093F [0x2B] Tenzen (ID: 17784999/0x010F60A7) [9072*]:
    → "All those close to you, whether in Tavnazia or beyond, are in grave danger!"
294: 0x0946 [0x23] WAIT_FOR_DIALOG_INTERACTION
295: 0x0947 [0x5B] LOAD_EXT_SCHEDULER: Load scheduler "tla1" with entities [Tenzen (ID: 17784999/0x010F60A7), Tenzen (ID: 17784999/0x010F60A7)], work=425*
296: 0x0956 [0x52] END_LOAD_SCHEDULER: End scheduler "s118" with entities [EventEntity, EventEntity], work=763*
297: 0x0965 [0x01] GOTO 0x0A0B
298: 0x0968 [0x5B] LOAD_EXT_SCHEDULER: Load scheduler "tla0" with entities [Prishe (ID: 17784998/0x010F60A6), Prishe (ID: 17784998/0x010F60A6)], work=475*
299: 0x0977 [0x2B] Prishe (ID: 17784998/0x010F60A6) [9064*]:
    → "This crazy ninja lady burst into my place in Tavnazia and dragged me over here kicking and screaming."
300: 0x097E [0x23] WAIT_FOR_DIALOG_INTERACTION
301: 0x097F [0x2B] Prishe (ID: 17784998/0x010F60A6) [9065*]:
    → "She said Despachiaire would never miss me, what with the way he's got his eye on Ulmia like a hawk."
302: 0x0986 [0x23] WAIT_FOR_DIALOG_INTERACTION
303: 0x0987 [0x2B] Prishe (ID: 17784998/0x010F60A6) [9066*]:
    → "Think it's safe for me to be here?"
304: 0x098E [0x23] WAIT_FOR_DIALOG_INTERACTION
305: 0x098F [0x5B] LOAD_EXT_SCHEDULER: Load scheduler "tla1" with entities [Prishe (ID: 17784998/0x010F60A6), Prishe (ID: 17784998/0x010F60A6)], work=475*
306: 0x099E [0x2A] GET_REQ_LEVEL(level=5, entity_id=Tenzen (ID: 17784999/0x010F60A7))
307: 0x09A4 [0x52] END_LOAD_SCHEDULER: End scheduler "s111" with entities [EventEntity, EventEntity], work=763*
308: 0x09B3 [0x45] LOAD_SCHEDULED_TASK: Load scheduler "s118" with entities [EventEntity, EventEntity], work=[763*, 0*]
309: 0x09C4 [0x79] Tenzen (ID: 17784999/0x010F60A7) looks at Prishe (ID: 17784998/0x010F60A6) (Basic look)
310: 0x09CE [0x5B] LOAD_EXT_SCHEDULER: Load scheduler "tla0" with entities [Tenzen (ID: 17784999/0x010F60A7), Tenzen (ID: 17784999/0x010F60A7)], work=425*
311: 0x09DD [0x2B] Tenzen (ID: 17784999/0x010F60A7) [9067*]:
    → "Lady Prishe, surely Kagero explained to you the gravity of the situation."
312: 0x09E4 [0x23] WAIT_FOR_DIALOG_INTERACTION
313: 0x09E5 [0x2B] Tenzen (ID: 17784999/0x010F60A7) [9068*]:
    → "All those close to you, whether in Tavnazia or beyond, are in grave danger."
314: 0x09EC [0x23] WAIT_FOR_DIALOG_INTERACTION
315: 0x09ED [0x5B] LOAD_EXT_SCHEDULER: Load scheduler "tla1" with entities [Tenzen (ID: 17784999/0x010F60A7), Tenzen (ID: 17784999/0x010F60A7)], work=425*
316: 0x09FC [0x52] END_LOAD_SCHEDULER: End scheduler "s118" with entities [EventEntity, EventEntity], work=763*

SUBROUTINE_0A0B:
317: 0x0A0B [0x45] LOAD_SCHEDULED_TASK: Load scheduler "s116" with entities [EventEntity, EventEntity], work=[763*, 0*]
318: 0x0A1C [0x4A] Prishe (ID: 17784998/0x010F60A6) looks at Tenzen (ID: 17784999/0x010F60A7)
319: 0x0A25 [0x1C] WAIT(30* ticks)
320: 0x0A28 [0x5B] LOAD_EXT_SCHEDULER: Load scheduler "tla0" with entities [Prishe (ID: 17784998/0x010F60A6), Prishe (ID: 17784998/0x010F60A6)], work=475*
321: 0x0A37 [0x2B] Prishe (ID: 17784998/0x010F60A6) [9073*]:
    → "Yeah, yeah. But what good does it do any of us to sit here with our thumbs up our butts moaning about it?"
322: 0x0A3E [0x23] WAIT_FOR_DIALOG_INTERACTION
323: 0x0A3F [0x2B] Prishe (ID: 17784998/0x010F60A6) [9074*]:
    → "Less talk, more action!"
324: 0x0A46 [0x23] WAIT_FOR_DIALOG_INTERACTION
325: 0x0A47 [0x5B] LOAD_EXT_SCHEDULER: Load scheduler "tla1" with entities [Prishe (ID: 17784998/0x010F60A6), Prishe (ID: 17784998/0x010F60A6)], work=475*
326: 0x0A56 [0x52] END_LOAD_SCHEDULER: End scheduler "s116" with entities [EventEntity, EventEntity], work=763*
327: 0x0A65 [0x45] LOAD_SCHEDULED_TASK: Load scheduler "s119" with entities [EventEntity, EventEntity], work=[763*, 0*]
328: 0x0A76 [0x5B] LOAD_EXT_SCHEDULER: Load scheduler "tlb0" with entities [Tenzen (ID: 17784999/0x010F60A7), Tenzen (ID: 17784999/0x010F60A7)], work=425*
329: 0x0A85 [0x2B] Tenzen (ID: 17784999/0x010F60A7) [9075*]:
    → "A most becoming response. But how are we to act when we know so little?"
330: 0x0A8C [0x23] WAIT_FOR_DIALOG_INTERACTION
331: 0x0A8D [0x5B] LOAD_EXT_SCHEDULER: Load scheduler "tlb1" with entities [Tenzen (ID: 17784999/0x010F60A7), Tenzen (ID: 17784999/0x010F60A7)], work=425*
332: 0x0A9C [0x5B] LOAD_EXT_SCHEDULER: Load scheduler "tlc0" with entities [Prishe (ID: 17784998/0x010F60A6), Prishe (ID: 17784998/0x010F60A6)], work=475*
333: 0x0AAB [0x2B] Prishe (ID: 17784998/0x010F60A6) [9076*]:
    → "Didn't you mention something 'bout a delicate little waif from the future who had all the answers?"
334: 0x0AB2 [0x23] WAIT_FOR_DIALOG_INTERACTION
335: 0x0AB3 [0x5B] LOAD_EXT_SCHEDULER: Load scheduler "tlc1" with entities [Prishe (ID: 17784998/0x010F60A6), Prishe (ID: 17784998/0x010F60A6)], work=475*
336: 0x0AC2 [0x52] END_LOAD_SCHEDULER: End scheduler "s119" with entities [EventEntity, EventEntity], work=763*

SUBROUTINE_0AD1:
337: 0x0AD1 [0x45] LOAD_SCHEDULED_TASK: Load scheduler "s120" with entities [EventEntity, EventEntity], work=[763*, 0*]
338: 0x0AE2 [0x02] IF !(ExtData[1]->WorkLocal[3] == 1*) GOTO 0x0AF4
339: 0x0AEA [0x79] Ulmia (ID: 17785000/0x010F60A8) looks at Tenzen (ID: 17784999/0x010F60A7) (Basic look)
340: 0x0AF4 [0x27] REQ_SET(priority=0x05, entity_id=Tenzen (ID: 17784999/0x010F60A7), tag_num=0x03)
341: 0x0AFB [0x7B] Tenzen (ID: 17784999/0x010F60A7) stops talking
342: 0x0B00 [0x2B] Tenzen (ID: 17784999/0x010F60A7) [9077*]:
    → "Unfortunately, although Iroha can see the grand picture, there are many details that escape her."
343: 0x0B07 [0x23] WAIT_FOR_DIALOG_INTERACTION
344: 0x0B08 [0x2B] Tenzen (ID: 17784999/0x010F60A7) [9078*]:
    → "The one most familiar with the situation is he who came after her."
345: 0x0B0F [0x23] WAIT_FOR_DIALOG_INTERACTION
346: 0x0B10 [0x2A] GET_REQ_LEVEL(level=5, entity_id=Tenzen (ID: 17784999/0x010F60A7))
347: 0x0B16 [0x4A] Prishe (ID: 17784998/0x010F60A6) looks at Tenzen (ID: 17784999/0x010F60A7)
348: 0x0B1F [0x1C] WAIT(30* ticks)
349: 0x0B22 [0x02] IF !(ExtData[1]->WorkLocal[0] == 0*) GOTO 0x0B53
350: 0x0B2A [0x5B] LOAD_EXT_SCHEDULER: Load scheduler "std0" with entities [Prishe (ID: 17784998/0x010F60A6), Prishe (ID: 17784998/0x010F60A6)], work=479*
351: 0x0B39 [0x2B] Prishe (ID: 17784998/0x010F60A6) [9079*]:
    → "This ambassador from the void guy, yeah. I've half a mind to rip that mask from his scrawny little neck and expose him for the sham he is!"
352: 0x0B40 [0x23] WAIT_FOR_DIALOG_INTERACTION
353: 0x0B41 [0x5B] LOAD_EXT_SCHEDULER: Load scheduler "std1" with entities [Prishe (ID: 17784998/0x010F60A6), Prishe (ID: 17784998/0x010F60A6)], work=479*
354: 0x0B50 [0x01] GOTO 0x0B5B
355: 0x0B53 [0x2B] Prishe (ID: 17784998/0x010F60A6) [9080*]:
    → "And this would be your masked ambassador from the void?"
356: 0x0B5A [0x23] WAIT_FOR_DIALOG_INTERACTION

SUBROUTINE_0B5B:
357: 0x0B5B [0x52] END_LOAD_SCHEDULER: End scheduler "s120" with entities [EventEntity, EventEntity], work=763*
358: 0x0B6A [0x45] LOAD_SCHEDULED_TASK: Load scheduler "s121" with entities [EventEntity, EventEntity], work=[763*, 0*]
359: 0x0B7B [0x4A] Tenzen (ID: 17784999/0x010F60A7) looks at Prishe (ID: 17784998/0x010F60A6)
360: 0x0B84 [0x1C] WAIT(30* ticks)
361: 0x0B87 [0x5B] LOAD_EXT_SCHEDULER: Load scheduler "tla0" with entities [Tenzen (ID: 17784999/0x010F60A7), Tenzen (ID: 17784999/0x010F60A7)], work=425*
362: 0x0B96 [0x2B] Tenzen (ID: 17784999/0x010F60A7) [9081*]:
    → "Would that our paths had crossed, but I know only his name."
363: 0x0B9D [0x23] WAIT_FOR_DIALOG_INTERACTION
364: 0x0B9E [0x2B] Tenzen (ID: 17784999/0x010F60A7) [9082*]:
    → "And that [Lord/Lady] <Player> and Lady Iroha sparred with him."
365: 0x0BA5 [0x23] WAIT_FOR_DIALOG_INTERACTION
366: 0x0BA6 [0x5B] LOAD_EXT_SCHEDULER: Load scheduler "tla1" with entities [Tenzen (ID: 17784999/0x010F60A7), Tenzen (ID: 17784999/0x010F60A7)], work=425*
367: 0x0BB5 [0x4A] Prishe (ID: 17784998/0x010F60A6) looks at LocalPlayer
368: 0x0BBE [0x1C] WAIT(30* ticks)
369: 0x0BC1 [0x02] IF !(ExtData[1]->WorkLocal[0] == 0*) GOTO 0x0BD4
370: 0x0BC9 [0x2B] Prishe (ID: 17784998/0x010F60A6) [9083*]:
    → "And!? Did you pop him a new one?"
371: 0x0BD0 [0x23] WAIT_FOR_DIALOG_INTERACTION
372: 0x0BD1 [0x01] GOTO 0x0BDC
373: 0x0BD4 [0x2B] Prishe (ID: 17784998/0x010F60A6) [9084*]:
    → "What happened then?"
374: 0x0BDB [0x23] WAIT_FOR_DIALOG_INTERACTION

SUBROUTINE_0BDC:
375: 0x0BDC [0x52] END_LOAD_SCHEDULER: End scheduler "s121" with entities [EventEntity, EventEntity], work=763*
376: 0x0BEB [0x02] IF !(LocalPlayer->Race == 5*) GOTO 0x0C07
377: 0x0BF3 [0x45] LOAD_SCHEDULED_TASK: Load scheduler "s114" with entities [EventEntity, EventEntity], work=[763*, 0*]
378: 0x0C04 [0x01] GOTO 0x0C34
379: 0x0C07 [0x02] IF !(LocalPlayer->Race == 6*) GOTO 0x0C23
380: 0x0C0F [0x45] LOAD_SCHEDULED_TASK: Load scheduler "s114" with entities [EventEntity, EventEntity], work=[763*, 0*]
381: 0x0C20 [0x01] GOTO 0x0C34
382: 0x0C23 [0x45] LOAD_SCHEDULED_TASK: Load scheduler "s113" with entities [EventEntity, EventEntity], work=[763*, 0*]

SUBROUTINE_0C34:
383: 0x0C34 [0x02] IF !(ExtData[1]->WorkLocal[3] == 1*) GOTO 0x0C49
384: 0x0C3C [0xBA] SET_ENTITY_POSITION(entity_id=Ulmia (ID: 17785000/0x010F60A8), pos_x=-13.304*, pos_z=2.004*, pos_y=0.000*, direction=17.6°*)
385: 0x0C49 [0x24] CREATE_DIALOG(message_id=9085*, default_option=0*, option_flags=0*)
    → "How do you respond? [He was fearsome./I barely broke a sweat./He looked...amazing!]"
386: 0x0C50 [0x25] WAIT_DIALOG_SELECT()
387: 0x0C51 [0x02] IF !(Work_Zone[0] == 0*) GOTO 0x0D15
388: 0x0C59 [0x02] IF !(ExtData[1]->WorkLocal[0] == 0*) GOTO 0x0CC1
389: 0x0C61 [0x52] END_LOAD_SCHEDULER: End scheduler "s113" with entities [EventEntity, EventEntity], work=763*
390: 0x0C70 [0x52] END_LOAD_SCHEDULER: End scheduler "s114" with entities [EventEntity, EventEntity], work=763*
391: 0x0C7F [0x45] LOAD_SCHEDULED_TASK: Load scheduler "s122" with entities [EventEntity, EventEntity], work=[763*, 0*]
392: 0x0C90 [0x5B] LOAD_EXT_SCHEDULER: Load scheduler "tld0" with entities [Prishe (ID: 17784998/0x010F60A6), Prishe (ID: 17784998/0x010F60A6)], work=475*
393: 0x0C9F [0x2B] Prishe (ID: 17784998/0x010F60A6) [9086*]:
    → "You gotta show idiots like that who's boss!"
394: 0x0CA6 [0x23] WAIT_FOR_DIALOG_INTERACTION
395: 0x0CA7 [0x2B] Prishe (ID: 17784998/0x010F60A6) [9087*]:
    → "Next time the pounding will come right from me!"
396: 0x0CAE [0x23] WAIT_FOR_DIALOG_INTERACTION
397: 0x0CAF [0x5B] LOAD_EXT_SCHEDULER: Load scheduler "tld1" with entities [Prishe (ID: 17784998/0x010F60A6), Prishe (ID: 17784998/0x010F60A6)], work=475*
398: 0x0CBE [0x01] GOTO 0x0D12
399: 0x0CC1 [0x5B] LOAD_EXT_SCHEDULER: Load scheduler "ma04" with entities [Prishe (ID: 17784998/0x010F60A6), Prishe (ID: 17784998/0x010F60A6)], work=811*
400: 0x0CD0 [0x1C] WAIT(30* ticks)
401: 0x0CD3 [0x52] END_LOAD_SCHEDULER: End scheduler "s113" with entities [EventEntity, EventEntity], work=763*
402: 0x0CE2 [0x52] END_LOAD_SCHEDULER: End scheduler "s114" with entities [EventEntity, EventEntity], work=763*
403: 0x0CF1 [0x45] LOAD_SCHEDULED_TASK: Load scheduler "s155" with entities [EventEntity, EventEntity], work=[763*, 0*]
404: 0x0D02 [0x2B] Prishe (ID: 17784998/0x010F60A6) [9088*]:
    → "So you did not come into direct conflict?"
405: 0x0D09 [0x23] WAIT_FOR_DIALOG_INTERACTION
406: 0x0D0A [0x2B] Prishe (ID: 17784998/0x010F60A6) [9089*]:
    → "I know we can claim victory the next time if we work together!"
407: 0x0D11 [0x23] WAIT_FOR_DIALOG_INTERACTION

SUBROUTINE_0D12:
408: 0x0D12 [0x01] GOTO 0x0ECB
409: 0x0D15 [0x02] IF !(Work_Zone[0] == 1*) GOTO 0x0DF8
410: 0x0D1D [0x02] IF !(ExtData[1]->WorkLocal[0] == 0*) GOTO 0x0D8D
411: 0x0D25 [0x52] END_LOAD_SCHEDULER: End scheduler "s113" with entities [EventEntity, EventEntity], work=763*
412: 0x0D34 [0x52] END_LOAD_SCHEDULER: End scheduler "s114" with entities [EventEntity, EventEntity], work=763*
413: 0x0D43 [0x45] LOAD_SCHEDULED_TASK: Load scheduler "s122" with entities [EventEntity, EventEntity], work=[763*, 0*]
414: 0x0D54 [0x5B] LOAD_EXT_SCHEDULER: Load scheduler "tld0" with entities [Prishe (ID: 17784998/0x010F60A6), Prishe (ID: 17784998/0x010F60A6)], work=475*
415: 0x0D63 [0x2B] Prishe (ID: 17784998/0x010F60A6) [9090*]:
    → "That's the <Player> I know and love!"
416: 0x0D6A [0x23] WAIT_FOR_DIALOG_INTERACTION
417: 0x0D6B [0x2B] Prishe (ID: 17784998/0x010F60A6) [9091*]:
    → "Hang on--you didn't actually smack him around, did you!?"
418: 0x0D72 [0x23] WAIT_FOR_DIALOG_INTERACTION
419: 0x0D73 [0x2B] Prishe (ID: 17784998/0x010F60A6) [9092*]:
    → "Can't fool me! My fingers start to twitch whenever someone's trying to finagle their way out of the truth!"
420: 0x0D7A [0x23] WAIT_FOR_DIALOG_INTERACTION
421: 0x0D7B [0x5B] LOAD_EXT_SCHEDULER: Load scheduler "tld1" with entities [Prishe (ID: 17784998/0x010F60A6), Prishe (ID: 17784998/0x010F60A6)], work=475*
422: 0x0D8A [0x01] GOTO 0x0DF5
423: 0x0D8D [0x5B] LOAD_EXT_SCHEDULER: Load scheduler "ma04" with entities [Prishe (ID: 17784998/0x010F60A6), Prishe (ID: 17784998/0x010F60A6)], work=811*
424: 0x0D9C [0x1C] WAIT(30* ticks)
425: 0x0D9F [0x52] END_LOAD_SCHEDULER: End scheduler "s113" with entities [EventEntity, EventEntity], work=763*
426: 0x0DAE [0x52] END_LOAD_SCHEDULER: End scheduler "s114" with entities [EventEntity, EventEntity], work=763*
427: 0x0DBD [0x45] LOAD_SCHEDULED_TASK: Load scheduler "s155" with entities [EventEntity, EventEntity], work=[763*, 0*]
428: 0x0DCE [0x5B] LOAD_EXT_SCHEDULER: Load scheduler "ma04" with entities [Prishe (ID: 17784998/0x010F60A6), Prishe (ID: 17784998/0x010F60A6)], work=811*
429: 0x0DDD [0x2B] Prishe (ID: 17784998/0x010F60A6) [9093*]:
    → "That's wonderful news!"
430: 0x0DE4 [0x23] WAIT_FOR_DIALOG_INTERACTION
431: 0x0DE5 [0x2B] Prishe (ID: 17784998/0x010F60A6) [9094*]:
    → "Wait. Was that...a joke?"
432: 0x0DEC [0x23] WAIT_FOR_DIALOG_INTERACTION
433: 0x0DED [0x2B] Prishe (ID: 17784998/0x010F60A6) [9095*]:
    → "How undeniably cruel! Why would you get any enjoyment out of toying with me?"
434: 0x0DF4 [0x23] WAIT_FOR_DIALOG_INTERACTION

SUBROUTINE_0DF5:
435: 0x0DF5 [0x01] GOTO 0x0ECB
436: 0x0DF8 [0x02] IF !(Work_Zone[0] == 2*) GOTO 0x0ECB
437: 0x0E00 [0x02] IF !(ExtData[1]->WorkLocal[0] == 0*) GOTO 0x0E68
438: 0x0E08 [0x52] END_LOAD_SCHEDULER: End scheduler "s113" with entities [EventEntity, EventEntity], work=763*
439: 0x0E17 [0x52] END_LOAD_SCHEDULER: End scheduler "s114" with entities [EventEntity, EventEntity], work=763*
440: 0x0E26 [0x45] LOAD_SCHEDULED_TASK: Load scheduler "s122" with entities [EventEntity, EventEntity], work=[763*, 0*]
441: 0x0E37 [0x5B] LOAD_EXT_SCHEDULER: Load scheduler "tld0" with entities [Prishe (ID: 17784998/0x010F60A6), Prishe (ID: 17784998/0x010F60A6)], work=475*
442: 0x0E46 [0x2B] Prishe (ID: 17784998/0x010F60A6) [9096*]:
    → "Thinkin' he can just snatch victory like candy from a babe, no doubt!"
443: 0x0E4D [0x23] WAIT_FOR_DIALOG_INTERACTION
444: 0x0E4E [0x2B] Prishe (ID: 17784998/0x010F60A6) [9097*]:
    → "Let him do what he wants, I say! I'll mangle his face so bad he'll never dare to remove that mask!"
445: 0x0E55 [0x23] WAIT_FOR_DIALOG_INTERACTION
446: 0x0E56 [0x5B] LOAD_EXT_SCHEDULER: Load scheduler "tld1" with entities [Prishe (ID: 17784998/0x010F60A6), Prishe (ID: 17784998/0x010F60A6)], work=475*
447: 0x0E65 [0x01] GOTO 0x0EC8
448: 0x0E68 [0x5B] LOAD_EXT_SCHEDULER: Load scheduler "ma04" with entities [Prishe (ID: 17784998/0x010F60A6), Prishe (ID: 17784998/0x010F60A6)], work=811*
449: 0x0E77 [0x1C] WAIT(30* ticks)
450: 0x0E7A [0x52] END_LOAD_SCHEDULER: End scheduler "s113" with entities [EventEntity, EventEntity], work=763*
451: 0x0E89 [0x52] END_LOAD_SCHEDULER: End scheduler "s114" with entities [EventEntity, EventEntity], work=763*
452: 0x0E98 [0x45] LOAD_SCHEDULED_TASK: Load scheduler "s155" with entities [EventEntity, EventEntity], work=[763*, 0*]
453: 0x0EA9 [0x5B] LOAD_EXT_SCHEDULER: Load scheduler "ma04" with entities [Prishe (ID: 17784998/0x010F60A6), Prishe (ID: 17784998/0x010F60A6)], work=811*
454: 0x0EB8 [0x2B] Prishe (ID: 17784998/0x010F60A6) [9098*]:
    → "If he's as impressive as you claim, I would surely like to meet him."
455: 0x0EBF [0x23] WAIT_FOR_DIALOG_INTERACTION
456: 0x0EC0 [0x2B] Prishe (ID: 17784998/0x010F60A6) [9099*]:
    → "But goodness, my knees would certainly turn to jelly."
457: 0x0EC7 [0x23] WAIT_FOR_DIALOG_INTERACTION

SUBROUTINE_0EC8:
458: 0x0EC8 [0x01] GOTO 0x0ECB

SUBROUTINE_0ECB:
459: 0x0ECB [0x5D] SET_MUSIC_VOLUME(volume=0*, fade_time=120*)
460: 0x0ED0 [0x52] END_LOAD_SCHEDULER: End scheduler "s122" with entities [EventEntity, EventEntity], work=763*
461: 0x0EDF [0x02] IF !(LocalPlayer->Race == 3*) GOTO 0x0EFB
462: 0x0EE7 [0x45] LOAD_SCHEDULED_TASK: Load scheduler "s124" with entities [EventEntity, EventEntity], work=[763*, 0*]
463: 0x0EF8 [0x01] GOTO 0x0F7C
464: 0x0EFB [0x02] IF !(LocalPlayer->Race == 4*) GOTO 0x0F17
465: 0x0F03 [0x45] LOAD_SCHEDULED_TASK: Load scheduler "s124" with entities [EventEntity, EventEntity], work=[763*, 0*]
466: 0x0F14 [0x01] GOTO 0x0F7C
467: 0x0F17 [0x02] IF !(LocalPlayer->Race == 5*) GOTO 0x0F33
468: 0x0F1F [0x45] LOAD_SCHEDULED_TASK: Load scheduler "s125" with entities [EventEntity, EventEntity], work=[763*, 0*]
469: 0x0F30 [0x01] GOTO 0x0F7C
470: 0x0F33 [0x02] IF !(LocalPlayer->Race == 6*) GOTO 0x0F4F
471: 0x0F3B [0x45] LOAD_SCHEDULED_TASK: Load scheduler "s125" with entities [EventEntity, EventEntity], work=[763*, 0*]
472: 0x0F4C [0x01] GOTO 0x0F7C
473: 0x0F4F [0x02] IF !(LocalPlayer->Race == 8*) GOTO 0x0F6B
474: 0x0F57 [0x45] LOAD_SCHEDULED_TASK: Load scheduler "s124" with entities [EventEntity, EventEntity], work=[763*, 0*]
475: 0x0F68 [0x01] GOTO 0x0F7C
476: 0x0F6B [0x45] LOAD_SCHEDULED_TASK: Load scheduler "s123" with entities [EventEntity, EventEntity], work=[763*, 0*]

SUBROUTINE_0F7C:
477: 0x0F7C [0xD0] LOAD_SCHEDULED_TASK_ALT5: Load scheduler "sta1" with entities [Unnamed NPC (ID: 17785002/0x010F60AA), Unnamed NPC (ID: 17785002/0x010F60AA)], work=[103*, 0*]
478: 0x0F8D [0x02] IF !(ExtData[1]->WorkLocal[3] == 1*) GOTO 0x0F9F
479: 0x0F95 [0x79] Ulmia (ID: 17785000/0x010F60A8) looks at LocalPlayer (Basic look)
480: 0x0F9F [0x1C] WAIT(60* ticks)
481: 0x0FA2 [0x4A] Tenzen (ID: 17784999/0x010F60A7) looks at LocalPlayer
482: 0x0FAB [0x1C] WAIT(30* ticks)
483: 0x0FAE [0x5B] LOAD_EXT_SCHEDULER: Load scheduler "c400" with entities [Tenzen (ID: 17784999/0x010F60A7), Tenzen (ID: 17784999/0x010F60A7)], work=429*
484: 0x0FBD [0x1C] WAIT(30* ticks)
485: 0x0FC0 [0xD0] LOAD_SCHEDULED_TASK_ALT5: Load scheduler "kil2" with entities [Unnamed NPC (ID: 17785002/0x010F60AA), Unnamed NPC (ID: 17785002/0x010F60AA)], work=[103*, 0*]
486: 0x0FD1 [0x52] END_LOAD_SCHEDULER: End scheduler "s123" with entities [EventEntity, EventEntity], work=763*
487: 0x0FE0 [0x52] END_LOAD_SCHEDULER: End scheduler "s124" with entities [EventEntity, EventEntity], work=763*
488: 0x0FEF [0x52] END_LOAD_SCHEDULER: End scheduler "s125" with entities [EventEntity, EventEntity], work=763*
489: 0x0FFE [0x45] LOAD_SCHEDULED_TASK: Load scheduler "s126" with entities [EventEntity, EventEntity], work=[763*, 0*]
490: 0x100F [0x2B] Tenzen (ID: 17784999/0x010F60A7) [9100*]:
    → "This is no time for nonsense. That man can call forth voids at will."
491: 0x1016 [0x23] WAIT_FOR_DIALOG_INTERACTION
492: 0x1017 [0x2B] Tenzen (ID: 17784999/0x010F60A7) [9101*]:
    → "Wait...there's something desperately wrong..."
493: 0x101E [0x7B] LocalPlayer stops talking
494: 0x1023 [0x27] REQ_SET(priority=0x05, entity_id=LocalPlayer, tag_num=0x33)
495: 0x102A [0x27] REQ_SET(priority=0x05, entity_id=Prishe (ID: 17784998/0x010F60A6), tag_num=0x0B)
496: 0x1031 [0x1C] WAIT(60* ticks)
497: 0x1034 [0x23] WAIT_FOR_DIALOG_INTERACTION
498: 0x1035 [0x52] END_LOAD_SCHEDULER: End scheduler "s126" with entities [EventEntity, EventEntity], work=763*
499: 0x1044 [0x02] IF !(LocalPlayer->Race == 5*) GOTO 0x1060
500: 0x104C [0x45] LOAD_SCHEDULED_TASK: Load scheduler "s164" with entities [EventEntity, EventEntity], work=[763*, 0*]
501: 0x105D [0x01] GOTO 0x108D
502: 0x1060 [0x02] IF !(LocalPlayer->Race == 6*) GOTO 0x107C
503: 0x1068 [0x45] LOAD_SCHEDULED_TASK: Load scheduler "s164" with entities [EventEntity, EventEntity], work=[763*, 0*]
504: 0x1079 [0x01] GOTO 0x108D
505: 0x107C [0x45] LOAD_SCHEDULED_TASK: Load scheduler "s163" with entities [EventEntity, EventEntity], work=[763*, 0*]

SUBROUTINE_108D:
506: 0x108D [0xD0] LOAD_SCHEDULED_TASK_ALT5: Load scheduler "max0" with entities [Unnamed NPC (ID: 17785001/0x010F60A9), Unnamed NPC (ID: 17785001/0x010F60A9)], work=[150*, 0*]
507: 0x109E [0x1C] WAIT(80* ticks)
508: 0x10A1 [0x52] END_LOAD_SCHEDULER: End scheduler "s163" with entities [EventEntity, EventEntity], work=763*
509: 0x10B0 [0x52] END_LOAD_SCHEDULER: End scheduler "s164" with entities [EventEntity, EventEntity], work=763*
510: 0x10BF [0x45] LOAD_SCHEDULED_TASK: Load scheduler "s128" with entities [EventEntity, EventEntity], work=[763*, 0*]
511: 0x10D0 [0x5B] LOAD_EXT_SCHEDULER: Load scheduler "han0" with entities [Prishe (ID: 17784998/0x010F60A6), Prishe (ID: 17784998/0x010F60A6)], work=814*
512: 0x10DF [0x02] IF !(ExtData[1]->WorkLocal[0] == 0*) GOTO 0x10F1
513: 0x10E7 [0x2B] Prishe (ID: 17784998/0x010F60A6) [9102*]:
    → "Hm?"
514: 0x10EE [0x01] GOTO 0x10F8
515: 0x10F1 [0x2B] Prishe (ID: 17784998/0x010F60A6) [9104*]:
    → "Hm?"

SUBROUTINE_10F8:
516: 0x10F8 [0xD0] LOAD_SCHEDULED_TASK_ALT5: Load scheduler "star" with entities [Unnamed NPC (ID: 17785001/0x010F60A9), Unnamed NPC (ID: 17785001/0x010F60A9)], work=[103*, 0*]
517: 0x1109 [0x1C] WAIT(30* ticks)
518: 0x110C [0x02] IF !(ExtData[1]->WorkLocal[3] == 1*) GOTO 0x1123
519: 0x1114 [0x5B] LOAD_EXT_SCHEDULER: Load scheduler "bik0" with entities [Ulmia (ID: 17785000/0x010F60A8), Ulmia (ID: 17785000/0x010F60A8)], work=420*
520: 0x1123 [0x52] END_LOAD_SCHEDULER: End scheduler "s128" with entities [EventEntity, EventEntity], work=763*
521: 0x1132 [0x45] LOAD_SCHEDULED_TASK: Load scheduler "s127" with entities [EventEntity, EventEntity], work=[763*, 0*]
522: 0x1143 [0x02] IF !(ExtData[1]->WorkLocal[0] == 0*) GOTO 0x1155
523: 0x114B [0x2B] Prishe (ID: 17784998/0x010F60A6) [9103*]:
    → "Aaaaaah!"
524: 0x1152 [0x01] GOTO 0x115C
525: 0x1155 [0x2B] Prishe (ID: 17784998/0x010F60A6) [9105*]:
    → "Eeep!"

SUBROUTINE_115C:
526: 0x115C [0x1C] WAIT(30* ticks)
527: 0x115F [0x9F] LOAD_SCHEDULED_TASK_ALT: Load scheduler "str0" with entities [EventEntity, EventEntity], work=[127*, 0*]
528: 0x1170 [0x1C] WAIT(45* ticks)
529: 0x1173 [0x9F] LOAD_SCHEDULED_TASK_ALT: Load scheduler "kill" with entities [EventEntity, EventEntity], work=[127*, 0*]
530: 0x1184 [0x1C] WAIT(30* ticks)
531: 0x1187 [0xD0] LOAD_SCHEDULED_TASK_ALT5: Load scheduler "kill" with entities [Unnamed NPC (ID: 17785001/0x010F60A9), Unnamed NPC (ID: 17785001/0x010F60A9)], work=[103*, 0*]
532: 0x1198 [0x52] END_LOAD_SCHEDULER: End scheduler "s127" with entities [EventEntity, EventEntity], work=763*
533: 0x11A7 [0x45] LOAD_SCHEDULED_TASK: Load scheduler "s129" with entities [EventEntity, EventEntity], work=[763*, 0*]
534: 0x11B8 [0xD0] LOAD_SCHEDULED_TASK_ALT5: Load scheduler "tgt0" with entities [LocalPlayer, LocalPlayer], work=[117*, 0*]
535: 0x11C9 [0x1C] WAIT(200* ticks)
536: 0x11CC [0x45] LOAD_SCHEDULED_TASK: Load scheduler "who1" with entities [LocalPlayer, LocalPlayer], work=[201*, 0*]
537: 0x11DD [0x55] WAIT_LOAD_SCHEDULER: Wait for scheduler "who1" with entities [LocalPlayer, LocalPlayer], work=201*
538: 0x11EC [0x52] END_LOAD_SCHEDULER: End scheduler "s129" with entities [EventEntity, EventEntity], work=763*
539: 0x11FB [0xD0] LOAD_SCHEDULED_TASK_ALT5: Load scheduler "star" with entities [Unnamed NPC (ID: 17785001/0x010F60A9), Unnamed NPC (ID: 17785001/0x010F60A9)], work=[103*, 0*]
540: 0x120C [0x27] REQ_SET(priority=0x05, entity_id=LocalPlayer, tag_num=0x34)
541: 0x1213 [0x1C] WAIT(60* ticks)
542: 0x1216 [0x45] LOAD_SCHEDULED_TASK: Load scheduler "s130" with entities [EventEntity, EventEntity], work=[763*, 0*]
543: 0x1227 [0x1C] WAIT(15* ticks)
544: 0x122A [0x45] LOAD_SCHEDULED_TASK: Load scheduler "whi1" with entities [LocalPlayer, LocalPlayer], work=[201*, 0*]
545: 0x123B [0x2B] Tenzen (ID: 17784999/0x010F60A7) [9106*]:
    → "There is no need for concern, Lady Prishe."
546: 0x1242 [0x23] WAIT_FOR_DIALOG_INTERACTION
547: 0x1243 [0x2B] Tenzen (ID: 17784999/0x010F60A7) [9107*]:
    → "The same thing happened earlier. The orb filling with light--this is what Iroha was mentioning, is it not?"
548: 0x124A [0x23] WAIT_FOR_DIALOG_INTERACTION
549: 0x124B [0x52] END_LOAD_SCHEDULER: End scheduler "s130" with entities [EventEntity, EventEntity], work=763*
550: 0x125A [0x45] LOAD_SCHEDULED_TASK: Load scheduler "s131" with entities [EventEntity, EventEntity], work=[763*, 0*]
551: 0x126B [0x27] REQ_SET(priority=0x05, entity_id=LocalPlayer, tag_num=0x35)
552: 0x1272 [0x1C] WAIT(120* ticks)
553: 0x1275 [0x45] LOAD_SCHEDULED_TASK: Load scheduler "fdo1" with entities [EventEntity, EventEntity], work=[200*, 0*]
554: 0x1286 [0x55] WAIT_LOAD_SCHEDULER: Wait for scheduler "fdo1" with entities [EventEntity, EventEntity], work=200*
555: 0x1295 [0x52] END_LOAD_SCHEDULER: End scheduler "s131" with entities [EventEntity, EventEntity], work=763*
556: 0x12A4 [0xD0] LOAD_SCHEDULED_TASK_ALT5: Load scheduler "kill" with entities [Unnamed NPC (ID: 17785001/0x010F60A9), Unnamed NPC (ID: 17785001/0x010F60A9)], work=[103*, 0*]
557: 0x12B5 [0x6B] STOP_AND_IDLE: Prishe (ID: 17784998/0x010F60A6) stops current action and resets to idle (animation="idl0")
558: 0x12BE [0x6B] STOP_AND_IDLE: LocalPlayer stops current action and resets to idle (animation="idl0")
559: 0x12C7 [0x6B] STOP_AND_IDLE: Tenzen (ID: 17784999/0x010F60A7) stops current action and resets to idle (animation="idl0")
560: 0x12D0 [0x27] REQ_SET(priority=0x05, entity_id=Prishe (ID: 17784998/0x010F60A6), tag_num=0x0C)
561: 0x12D7 [0x4E] SET_ENTITY_HIDE_FLAG: Hide Unnamed NPC (ID: 17785001/0x010F60A9)
562: 0x12DD [0x4A] Tenzen (ID: 17784999/0x010F60A7) looks at Prishe (ID: 17784998/0x010F60A6)
563: 0x12E6 [0x02] IF !(ExtData[1]->WorkLocal[3] == 1*) GOTO 0x131C
564: 0x12EE [0x6B] STOP_AND_IDLE: Ulmia (ID: 17785000/0x010F60A8) stops current action and resets to idle (animation="idl0")
565: 0x12F7 [0xBA] SET_ENTITY_POSITION(entity_id=Ulmia (ID: 17785000/0x010F60A8), pos_x=-13.641*, pos_z=0.948*, pos_y=0.000*, direction=182.1°*)
566: 0x1304 [0x80] LOAD_WAIT(entity=Ulmia (ID: 17785000/0x010F60A8))
567: 0x1309 [0x4A] Ulmia (ID: 17785000/0x010F60A8) looks at LocalPlayer
568: 0x1312 [0x79] Ulmia (ID: 17785000/0x010F60A8) looks at Tenzen (ID: 17784999/0x010F60A7) (Basic look)
569: 0x131C [0x1C] WAIT(60* ticks)
570: 0x131F [0x48] [System] [8396*]:
    → "@@"
571: 0x1322 [0x23] WAIT_FOR_DIALOG_INTERACTION
572: 0x1323 [0x02] IF !(ExtData[1]->WorkLocal[0] == 1*) GOTO 0x1340
573: 0x132B [0x81] SET_ENTITY_BLINKING(blink_flag=0x00, entity=Prishe (ID: 17784998/0x010F60A6))
574: 0x1331 [0x5B] LOAD_EXT_SCHEDULER: Load scheduler "ma03" with entities [Prishe (ID: 17784998/0x010F60A6), Prishe (ID: 17784998/0x010F60A6)], work=811*
575: 0x1340 [0x1C] WAIT(60* ticks)
576: 0x1343 [0x5D] SET_MUSIC_VOLUME(volume=127*, fade_time=120*)
577: 0x1348 [0x02] IF !(ExtData[1]->WorkLocal[0] == 0*) GOTO 0x13A4
578: 0x1350 [0x45] LOAD_SCHEDULED_TASK: Load scheduler "s132" with entities [EventEntity, EventEntity], work=[763*, 0*]
579: 0x1361 [0x1C] WAIT(15* ticks)
580: 0x1364 [0x45] LOAD_SCHEDULED_TASK: Load scheduler "fdi2" with entities [EventEntity, EventEntity], work=[200*, 0*]
581: 0x1375 [0x81] SET_ENTITY_BLINKING(blink_flag=0x00, entity=Prishe (ID: 17784998/0x010F60A6))
582: 0x137B [0x5B] LOAD_EXT_SCHEDULER: Load scheduler "thc0" with entities [Prishe (ID: 17784998/0x010F60A6), Prishe (ID: 17784998/0x010F60A6)], work=479*
583: 0x138A [0x2B] Prishe (ID: 17784998/0x010F60A6) [9108*]:
    → "Urk! I thought the damn thing was trying to rip my soul from my body!"
584: 0x1391 [0x23] WAIT_FOR_DIALOG_INTERACTION
585: 0x1392 [0x52] END_LOAD_SCHEDULER: End scheduler "s132" with entities [EventEntity, EventEntity], work=763*
586: 0x13A1 [0x01] GOTO 0x13E0
587: 0x13A4 [0x45] LOAD_SCHEDULED_TASK: Load scheduler "s156" with entities [EventEntity, EventEntity], work=[763*, 0*]
588: 0x13B5 [0x1C] WAIT(15* ticks)
589: 0x13B8 [0x45] LOAD_SCHEDULED_TASK: Load scheduler "fdi2" with entities [EventEntity, EventEntity], work=[200*, 0*]
590: 0x13C9 [0x2B] Prishe (ID: 17784998/0x010F60A6) [9112*]:
    → "I...I felt like my soul was being ripped from my body!"
591: 0x13D0 [0x23] WAIT_FOR_DIALOG_INTERACTION
592: 0x13D1 [0x52] END_LOAD_SCHEDULER: End scheduler "s156" with entities [EventEntity, EventEntity], work=763*

SUBROUTINE_13E0:
593: 0x13E0 [0x45] LOAD_SCHEDULED_TASK: Load scheduler "s133" with entities [EventEntity, EventEntity], work=[763*, 0*]
594: 0x13F1 [0x5B] LOAD_EXT_SCHEDULER: Load scheduler "tla0" with entities [Tenzen (ID: 17784999/0x010F60A7), Tenzen (ID: 17784999/0x010F60A7)], work=425*
595: 0x1400 [0x2B] Tenzen (ID: 17784999/0x010F60A7) [9109*]:
    → "Lady Prishe, I assure you no such thing would occur."
596: 0x1407 [0x23] WAIT_FOR_DIALOG_INTERACTION
597: 0x1408 [0x5B] LOAD_EXT_SCHEDULER: Load scheduler "tla1" with entities [Tenzen (ID: 17784999/0x010F60A7), Tenzen (ID: 17784999/0x010F60A7)], work=425*
598: 0x1417 [0x52] END_LOAD_SCHEDULER: End scheduler "s133" with entities [EventEntity, EventEntity], work=763*
599: 0x1426 [0x45] LOAD_SCHEDULED_TASK: Load scheduler "s134" with entities [EventEntity, EventEntity], work=[763*, 0*]
600: 0x1437 [0x79] Prishe (ID: 17784998/0x010F60A6) looks at Tenzen (ID: 17784999/0x010F60A7) (Basic look)
601: 0x1441 [0x02] IF !(ExtData[1]->WorkLocal[0] == 0*) GOTO 0x1471
602: 0x1449 [0x81] SET_ENTITY_BLINKING(blink_flag=0x01, entity=Prishe (ID: 17784998/0x010F60A6))
603: 0x144F [0x5B] LOAD_EXT_SCHEDULER: Load scheduler "thc1" with entities [Prishe (ID: 17784998/0x010F60A6), Prishe (ID: 17784998/0x010F60A6)], work=479*
604: 0x145E [0x2B] Prishe (ID: 17784998/0x010F60A6) [9110*]:
    → "Hmph. Long as I'm still in one piece I couldn't give a flying fig."
605: 0x1465 [0x23] WAIT_FOR_DIALOG_INTERACTION
606: 0x1466 [0x2B] Prishe (ID: 17784998/0x010F60A6) [9111*]:
    → "But let's track back a minute to where we can find this Iroha of yours."
607: 0x146D [0x23] WAIT_FOR_DIALOG_INTERACTION
608: 0x146E [0x01] GOTO 0x1499
609: 0x1471 [0x81] SET_ENTITY_BLINKING(blink_flag=0x01, entity=Prishe (ID: 17784998/0x010F60A6))
610: 0x1477 [0x5F] MULTI_HANDLER_COMPLEX(mode=0x05 - Load ext scheduler with flag (OpCode 0x5B mode 0, flag 1), ref=811*, entity1=Prishe (ID: 17784998/0x010F60A6), entity2=Prishe (ID: 17784998/0x010F60A6), string="ma04", extra=490*)
611: 0x1489 [0x2B] Prishe (ID: 17784998/0x010F60A6) [9113*]:
    → "Thank the heavens! Hopefully my shivers will calm down..."
612: 0x1490 [0x23] WAIT_FOR_DIALOG_INTERACTION
613: 0x1491 [0x2B] Prishe (ID: 17784998/0x010F60A6) [9114*]:
    → "But wait--where can we find Iroha?"
614: 0x1498 [0x23] WAIT_FOR_DIALOG_INTERACTION

SUBROUTINE_1499:
615: 0x1499 [0x52] END_LOAD_SCHEDULER: End scheduler "s134" with entities [EventEntity, EventEntity], work=763*
616: 0x14A8 [0x45] LOAD_SCHEDULED_TASK: Load scheduler "s135" with entities [EventEntity, EventEntity], work=[763*, 0*]
617: 0x14B9 [0x5B] LOAD_EXT_SCHEDULER: Load scheduler "thk0" with entities [Tenzen (ID: 17784999/0x010F60A7), Tenzen (ID: 17784999/0x010F60A7)], work=425*
618: 0x14C8 [0x79] LocalPlayer looks at Tenzen (ID: 17784999/0x010F60A7) (Basic look)
619: 0x14D2 [0x2B] Tenzen (ID: 17784999/0x010F60A7) [9115*]:
    → "She had promised to be here..."
620: 0x14D9 [0x23] WAIT_FOR_DIALOG_INTERACTION
621: 0x14DA [0x2B] Tenzen (ID: 17784999/0x010F60A7) [9116*]:
    → "Do you suppose something happened to her?"
622: 0x14E1 [0x23] WAIT_FOR_DIALOG_INTERACTION
623: 0x14E2 [0x52] END_LOAD_SCHEDULER: End scheduler "s135" with entities [EventEntity, EventEntity], work=763*
624: 0x14F1 [0x45] LOAD_SCHEDULED_TASK: Load scheduler "s136" with entities [EventEntity, EventEntity], work=[763*, 0*]
625: 0x1502 [0x24] CREATE_DIALOG(message_id=9117*, default_option=0*, option_flags=0*)
    → "What do you think? [Maybe she got lost?/She didn't seem well./Think she forgot?]"
626: 0x1509 [0x25] WAIT_DIALOG_SELECT()
627: 0x150A [0x02] IF !(Work_Zone[0] == 0*) GOTO 0x1563
628: 0x1512 [0x52] END_LOAD_SCHEDULER: End scheduler "s136" with entities [EventEntity, EventEntity], work=763*
629: 0x1521 [0x45] LOAD_SCHEDULED_TASK: Load scheduler "s138" with entities [EventEntity, EventEntity], work=[763*, 0*]
630: 0x1532 [0x5B] LOAD_EXT_SCHEDULER: Load scheduler "thk1" with entities [Tenzen (ID: 17784999/0x010F60A7), Tenzen (ID: 17784999/0x010F60A7)], work=425*
631: 0x1541 [0x2B] Tenzen (ID: 17784999/0x010F60A7) [9118*]:
    → "Only in the most dire of circumstances is a priestess from Reisenjima Sanctorium permitted to leave the tiny island."
632: 0x1548 [0x23] WAIT_FOR_DIALOG_INTERACTION
633: 0x1549 [0x2B] Tenzen (ID: 17784999/0x010F60A7) [9119*]:
