# 17784958 - Palometa

## Common Data

| Field            | Value                |
|------------------|----------------------|
| Zone             | Port Jeuno (ID: 246) |
| Block Size       | 220 bytes            |
| Total Events     | 6                    |
| References Count | 19                   |

## List of Events

| Event ID                 | Entrypoint   |   Size |   Instructions |
|--------------------------|--------------|--------|----------------|
| [65535](#event-65535)    | 0x0000       |      1 |              1 |
| [309](#event-309)        | 0x0001       |      1 |              1 |
| [65535.1](#event-655351) | 0x0002       |     15 |              3 |
| [65535.2](#event-655352) | 0x0011       |     52 |             12 |
| [65535.3](#event-655353) | 0x0045       |     15 |              3 |
| [65535.4](#event-655354) | 0x0054       |     19 |              5 |

## DAT References (imed_data)

|   Index | Hex Value   |   Dec Value |
|---------|-------------|-------------|
|       0 | 0x0D18      |        3352 |
|       1 | 0x2098      |        8344 |
|       2 | 0x0000      |           0 |
|       3 | 0x0496      |        1174 |
|       4 | 0x000D      |          13 |
|       5 | 0x12EE      |        4846 |
|       6 | 0x225D      |        8797 |
|       7 | 0x14EB      |        5355 |
|       8 | 0x36AA      |       13994 |
|       9 | 0x03FB      |        1019 |
|      10 | 0x005A      |          90 |
|      11 | 0x003C      |          60 |
|      12 | 0x06DC      |        1756 |
|      13 | 0x3C1D      |       15389 |
|      14 | 0xFFFFBF32  |  4294950706 |
|      15 | 0x2273      |        8819 |
|      16 | 0x0806      |        2054 |
|      17 | 0xFFFFBFFD  |  4294950909 |
|      18 | 0x1FD7      |        8151 |

## Events

### Event 65535

#### Metadata

| Field        | Value   |
|--------------|---------|
| Entrypoint   | 0x0000  |
| Data Size    | 1 bytes |
| Instructions | 1       |

```
      00 01 02 03 04 05 06 07  08 09 0A 0B 0C 0D 0E 0F
      -- -- -- -- -- -- -- --  -- -- -- -- -- -- -- --
0000: 00                                                .               
```

#### Opcodes

```
  0: 0x0000 [0x00] END_REQSTACK()
```

### Event 309

#### Metadata

| Field        | Value   |
|--------------|---------|
| Entrypoint   | 0x0001  |
| Data Size    | 1 bytes |
| Instructions | 1       |

```
      00 01 02 03 04 05 06 07  08 09 0A 0B 0C 0D 0E 0F
      -- -- -- -- -- -- -- --  -- -- -- -- -- -- -- --
0000:    00                                              .              
```

#### Opcodes

```
  0: 0x0001 [0x00] END_REQSTACK()
```

### Event 65535.1

#### Metadata

| Field        | Value    |
|--------------|----------|
| Entrypoint   | 0x0002   |
| Data Size    | 15 bytes |
| Instructions | 3        |

```
      00 01 02 03 04 05 06 07  08 09 0A 0B 0C 0D 0E 0F
      -- -- -- -- -- -- -- --  -- -- -- -- -- -- -- --
0000:       37 00 80 01 80 02  80 03 80 80 F8 FF FF 7F    7.............
0010: 00                                                .               
```

#### Opcodes

```
  0: 0x0002 [0x37] UPDATE_EVENT_POSITION_AND_DIR: x=3.352*, z=8.344*, y=0.000*, direction=103.2°*
  1: 0x000B [0x80] LOAD_WAIT(entity=EventEntity)
  2: 0x0010 [0x00] END_REQSTACK()
```

### Event 65535.2

#### Metadata

| Field        | Value    |
|--------------|----------|
| Entrypoint   | 0x0011   |
| Data Size    | 52 bytes |
| Instructions | 12       |

```
      00 01 02 03 04 05 06 07  08 09 0A 0B 0C 0D 0E 0F
      -- -- -- -- -- -- -- --  -- -- -- -- -- -- -- --
0010:    32 04 80 1F 00 05 80  06 80 02 80 1F 01 1F 00   2..............
0020: 07 80 08 80 02 80 1F 01  4B 7E 60 0F 01 09 80 1C  ........K~`.....
0030: 0A 80 1E 80 60 0F 01 1C  0B 80 1F 00 0C 80 0D 80  ....`...........
0040: 02 80 1F 01 00                                    .....           
```

#### Opcodes

```
  0: 0x0011 [0x32] ExtData[1]->MainSpeed = 13* * 0.1
  1: 0x0014 [0x1F] MOVE_ENTITY: EventEntity moves to X=4.846*, Z=8.797*, Y=0.000*
  2: 0x001C [0x1F] MOVE_ENTITY: Update entity position (mode=1)
  3: 0x001E [0x1F] MOVE_ENTITY: EventEntity moves to X=5.355*, Z=13.994*, Y=0.000*
  4: 0x0026 [0x1F] MOVE_ENTITY: Update entity position (mode=1)
  5: 0x0028 [0x4B] UPDATE_ENTITY_YAW(entity=Palometa (ID: 17784958/0x010F607E), yaw=5.6°*)
  6: 0x002F [0x1C] WAIT(90* ticks)
  7: 0x0032 [0x1E] EventEntity looks at ??? (ID: 17784960/0x010F6080) and starts talking
  8: 0x0037 [0x1C] WAIT(60* ticks)
  9: 0x003A [0x1F] MOVE_ENTITY: EventEntity moves to X=1.756*, Z=15.389*, Y=0.000*
 10: 0x0042 [0x1F] MOVE_ENTITY: Update entity position (mode=1)
 11: 0x0044 [0x00] END_REQSTACK()
```

### Event 65535.3

#### Metadata

| Field        | Value    |
|--------------|----------|
| Entrypoint   | 0x0045   |
| Data Size    | 15 bytes |
| Instructions | 3        |

```
      00 01 02 03 04 05 06 07  08 09 0A 0B 0C 0D 0E 0F
      -- -- -- -- -- -- -- --  -- -- -- -- -- -- -- --
0040:                37 0E 80  0F 80 02 80 10 80 80 F8       7..........
0050: FF FF 7F 00                                       ....            
```

#### Opcodes

```
  0: 0x0045 [0x37] UPDATE_EVENT_POSITION_AND_DIR: x=-16.590*, z=8.819*, y=0.000*, direction=180.5°*
  1: 0x004E [0x80] LOAD_WAIT(entity=EventEntity)
  2: 0x0053 [0x00] END_REQSTACK()
```

### Event 65535.4

#### Metadata

| Field        | Value    |
|--------------|----------|
| Entrypoint   | 0x0054   |
| Data Size    | 19 bytes |
| Instructions | 5        |

```
      00 01 02 03 04 05 06 07  08 09 0A 0B 0C 0D 0E 0F
      -- -- -- -- -- -- -- --  -- -- -- -- -- -- -- --
0050:             32 04 80 1F  00 11 80 12 80 02 80 1F      2...........
0060: 01 1E 7F 60 0F 01 00                              ...`...         
```

#### Opcodes

```
  0: 0x0054 [0x32] ExtData[1]->MainSpeed = 13* * 0.1
  1: 0x0057 [0x1F] MOVE_ENTITY: EventEntity moves to X=-16.387*, Z=8.151*, Y=0.000*
  2: 0x005F [0x1F] MOVE_ENTITY: Update entity position (mode=1)
  3: 0x0061 [0x1E] EventEntity looks at Luto Mewrilah (ID: 17784959/0x010F607F) and starts talking
  4: 0x0066 [0x00] END_REQSTACK()
```
