# 17784953 - Guddal

## Common Data

| Field            | Value                |
|------------------|----------------------|
| Zone             | Port Jeuno (ID: 246) |
| Block Size       | 436 bytes            |
| Total Events     | 4                    |
| References Count | 27                   |

## List of Events

| Event ID              | Entrypoint   |   Size |   Instructions |
|-----------------------|--------------|--------|----------------|
| [65535](#event-65535) | 0x0000       |      1 |              1 |
| [300](#event-300)     | 0x0001       |    204 |             61 |
| [301](#event-301)     | 0x00CD       |     38 |             14 |
| [302](#event-302)     | 0x00F3       |     52 |             19 |

## DAT References (imed_data)

|   Index | Hex Value   |   Dec Value |
|---------|-------------|-------------|
|       0 | 0x0400      |        1024 |
|       1 | 0x0401      |        1025 |
|       2 | 0x0402      |        1026 |
|       3 | 0x0009      |           9 |
|       4 | 0x1CD8      |        7384 |
|       5 | 0x1CD9      |        7385 |
|       6 | 0x0000      |           0 |
|       7 | 0x1CE4      |        7396 |
|       8 | 0x0001      |           1 |
|       9 | 0x0002      |           2 |
|      10 | 0x1CDD      |        7389 |
|      11 | 0x1CDF      |        7391 |
|      12 | 0x24220     |      148000 |
|      13 | 0x1CDA      |        7386 |
|      14 | 0x1CDB      |        7387 |
|      15 | 0x1CDC      |        7388 |
|      16 | 0x0037      |          55 |
|      17 | 0x1CDE      |        7390 |
|      18 | 0x1CE7      |        7399 |
|      19 | 0x0063      |          99 |
|      20 | 0x0021      |          33 |
|      21 | 0x1CE5      |        7397 |
|      22 | 0x1CE6      |        7398 |
|      23 | 0x1CE0      |        7392 |
|      24 | 0x1CE1      |        7393 |
|      25 | 0x1CE2      |        7394 |
|      26 | 0x1CE3      |        7395 |

## String References

- **7384**: This is the counter for the Outlands air route. How may I be of assistance today?
- **7385**: What is your business here? [Just passing by./I want $6 issued./Tell me about the "adventurers' deal."]
- **7386**: Yes, with $6 you can travel freely between Jeuno and Kazham. The price is a mere $7 gil, and there is no expiration date.
- **7387**: If you cannot afford our already low price, we are offering, for a limited time, the "adventurers' deal." Would you like to hear more on this offer?
- **7388**: Listen to the explanation? [Yes./No. Buy $6.]
- **7389**: Yes, the "adventurers' deal." All you have to do is find these three keys: $1, $2, and $3.
- **7390**: The "adventurers' deal" consists of finding the following three keys: $1, $2, and $3.
- **7391**: Once you have gathered them all, give them to me and I will check to see if they are authentic.
- **7392**: $1...$2...and $3. Yes, they seem to be authentic.
- **7393**: I have issued $6 under the name of <Player>. It has been approved for immediate use.
- **7394**: I am sorry, but this is not one of the items in the deal.
- **7395**: You must bring $1, $2, and $3.
- **7396**: Yes [sir/ma'am]. If you need any information on the air routes to the Outlands, feel free to inquire at any time.
- **7397**: We hope you enjoy flying with us!
- **7398**: I am sorry, but you do not have enough gil.
- **7399**: Buy $6? [Not today./Yes.]

## Events

### Event 65535

#### Metadata

| Field        | Value   |
|--------------|---------|
| Entrypoint   | 0x0000  |
| Data Size    | 1 bytes |
| Instructions | 1       |

```
      00 01 02 03 04 05 06 07  08 09 0A 0B 0C 0D 0E 0F
      -- -- -- -- -- -- -- --  -- -- -- -- -- -- -- --
0000: 00                                                .               
```

#### Opcodes

```
  0: 0x0000 [0x00] END_REQSTACK()
```

### Event 300

#### Metadata

| Field        | Value     |
|--------------|-----------|
| Entrypoint   | 0x0001    |
| Data Size    | 204 bytes |
| Instructions | 60        |

```
      00 01 02 03 04 05 06 07  08 09 0A 0B 0C 0D 0E 0F
      -- -- -- -- -- -- -- --  -- -- -- -- -- -- -- --
0000:    42 03 03 10 00 80 03  04 10 01 80 03 05 10 02   B..............
0010: 80 03 08 10 03 80 1A 19  01 1D 04 80 23 24 05 80  ............#$..
0020: 06 80 07 10 25 02 00 10  06 80 00 34 00 1D 07 80  ....%......4....
0030: 23 01 55 00 02 00 10 08  80 00 42 00 1A 57 00 01  #.U.......B..W..
0040: 55 00 02 00 10 09 80 00  55 00 1D 0A 80 23 1D 0B  U.......U....#..
0050: 80 23 01 55 00 21 00 03  09 10 0C 80 1D 0D 80 23  .#.U.!.........#
0060: 1D 0E 80 23 24 0F 80 06  80 06 80 25 02 00 10 06  ...#$......%....
0070: 80 00 84 00 03 01 10 10  80 1D 11 80 23 1D 0B 80  ............#...
0080: 23 01 92 00 02 00 10 08  80 00 92 00 1A 93 00 01  #...............
0090: 92 00 1B 24 12 80 06 80  06 80 25 02 00 10 06 80  ...$......%.....
00A0: 00 AB 00 1D 07 80 23 1B  01 AB 00 03 01 10 13 80  ......#.........
00B0: 43 00 43 01 02 03 10 08  80 00 C8 00 03 01 10 14  C.C.............
00C0: 80 1D 15 80 23 01 CC 00  1D 16 80 23 1B           ....#......#.   
```

#### Opcodes

```
  0: 0x0001 [0x42] SET_CLI_EVENT_CANCEL_DATA()
  1: 0x0002 [0x03] Work_Zone[3] = 1024*
  2: 0x0007 [0x03] Work_Zone[4] = 1025*
  3: 0x000C [0x03] Work_Zone[5] = 1026*
  4: 0x0011 [0x03] Work_Zone[8] = 9*
  5: 0x0016 [0x1A] CALL_SUBROUTINE(address=0x0119)
  6: 0x0019 [0x1D] PRINT_EVENT_MESSAGE(message_id=7384*)
    → "This is the counter for the Outlands air route. How may I be of assistance today?"
  7: 0x001C [0x23] WAIT_FOR_DIALOG_INTERACTION
  8: 0x001D [0x24] CREATE_DIALOG(message_id=7385*, default_option=0*, option_flags=Work_Zone[7])
    → "What is your business here? [Just passing by./I want $6 issued./Tell me about the "adventurers' deal."]"
  9: 0x0024 [0x25] WAIT_DIALOG_SELECT()
 10: 0x0025 [0x02] IF !(Work_Zone[0] == 0*) GOTO 0x0034
 11: 0x002D [0x1D] PRINT_EVENT_MESSAGE(message_id=7396*)
    → "Yes [sir/ma'am]. If you need any information on the air routes to the Outlands, feel free to inquire at any time."
 12: 0x0030 [0x23] WAIT_FOR_DIALOG_INTERACTION
 13: 0x0031 [0x01] GOTO 0x0055
 14: 0x0034 [0x02] IF !(Work_Zone[0] == 1*) GOTO 0x0042
 15: 0x003C [0x1A] CALL_SUBROUTINE(address=0x0057)
 16: 0x003F [0x01] GOTO 0x0055
 17: 0x0042 [0x02] IF !(Work_Zone[0] == 2*) GOTO 0x0055
 18: 0x004A [0x1D] PRINT_EVENT_MESSAGE(message_id=7389*)
    → "Yes, the "adventurers' deal." All you have to do is find these three keys: $1, $2, and $3."
 19: 0x004D [0x23] WAIT_FOR_DIALOG_INTERACTION
 20: 0x004E [0x1D] PRINT_EVENT_MESSAGE(message_id=7391*)
    → "Once you have gathered them all, give them to me and I will check to see if they are authentic."
 21: 0x0051 [0x23] WAIT_FOR_DIALOG_INTERACTION
 22: 0x0052 [0x01] GOTO 0x0055

SUBROUTINE_0055:
 23: 0x0055 [0x21] END_EVENT
 24: 0x0056 [0x00] END_REQSTACK()

SUBROUTINE_0057:
 25: 0x0057 [0x03] Work_Zone[9] = 148000*
 26: 0x005C [0x1D] PRINT_EVENT_MESSAGE(message_id=7386*)
    → "Yes, with $6 you can travel freely between Jeuno and Kazham. The price is a mere $7 gil, and there is no expiration date."
 27: 0x005F [0x23] WAIT_FOR_DIALOG_INTERACTION
 28: 0x0060 [0x1D] PRINT_EVENT_MESSAGE(message_id=7387*)
    → "If you cannot afford our already low price, we are offering, for a limited time, the "adventurers' deal." Would you like to hear more on this offer?"
 29: 0x0063 [0x23] WAIT_FOR_DIALOG_INTERACTION
 30: 0x0064 [0x24] CREATE_DIALOG(message_id=7388*, default_option=0*, option_flags=0*)
    → "Listen to the explanation? [Yes./No. Buy $6.]"
 31: 0x006B [0x25] WAIT_DIALOG_SELECT()
 32: 0x006C [0x02] IF !(Work_Zone[0] == 0*) GOTO 0x0084
 33: 0x0074 [0x03] Work_Zone[1] = 55*
 34: 0x0079 [0x1D] PRINT_EVENT_MESSAGE(message_id=7390*)
    → "The "adventurers' deal" consists of finding the following three keys: $1, $2, and $3."
 35: 0x007C [0x23] WAIT_FOR_DIALOG_INTERACTION
 36: 0x007D [0x1D] PRINT_EVENT_MESSAGE(message_id=7391*)
    → "Once you have gathered them all, give them to me and I will check to see if they are authentic."
 37: 0x0080 [0x23] WAIT_FOR_DIALOG_INTERACTION
 38: 0x0081 [0x01] GOTO 0x0092
 39: 0x0084 [0x02] IF !(Work_Zone[0] == 1*) GOTO 0x0092
 40: 0x008C [0x1A] CALL_SUBROUTINE(address=0x0093)
 41: 0x008F [0x01] GOTO 0x0092

SUBROUTINE_0092:
 42: 0x0092 [0x1B] RETURN

SUBROUTINE_0093:
 43: 0x0093 [0x24] CREATE_DIALOG(message_id=7399*, default_option=0*, option_flags=0*)
    → "Buy $6? [Not today./Yes.]"
 44: 0x009A [0x25] WAIT_DIALOG_SELECT()
 45: 0x009B [0x02] IF !(Work_Zone[0] == 0*) GOTO 0x00AB
 46: 0x00A3 [0x1D] PRINT_EVENT_MESSAGE(message_id=7396*)
    → "Yes [sir/ma'am]. If you need any information on the air routes to the Outlands, feel free to inquire at any time."
 47: 0x00A6 [0x23] WAIT_FOR_DIALOG_INTERACTION
 48: 0x00A7 [0x1B] RETURN

SUBROUTINE_00AB:
 49: 0x00AB [0x03] Work_Zone[1] = 99*
 50: 0x00B0 [0x43] SEND_EVENT_UPDATE: Send pending tag to server (packet 0x005B)
 51: 0x00B2 [0x43] SEND_EVENT_UPDATE: Check pending flag (skip if not pending)
 52: 0x00B4 [0x02] IF !(Work_Zone[3] == 1*) GOTO 0x00C8
 53: 0x00BC [0x03] Work_Zone[1] = 33*
 54: 0x00C1 [0x1D] PRINT_EVENT_MESSAGE(message_id=7397*)
    → "We hope you enjoy flying with us!"
 55: 0x00C4 [0x23] WAIT_FOR_DIALOG_INTERACTION
 56: 0x00C5 [0x01] GOTO 0x00CC
 57: 0x00C8 [0x1D] PRINT_EVENT_MESSAGE(message_id=7398*)
    → "I am sorry, but you do not have enough gil."
 58: 0x00CB [0x23] WAIT_FOR_DIALOG_INTERACTION

SUBROUTINE_00CC:
 59: 0x00CC [0x1B] RETURN
```

#### Data or dead code:

```
# Dead code (unreachable instructions):
     0x00A8 [0x01] GOTO 0x00AB
```

### Event 301

#### Metadata

| Field        | Value    |
|--------------|----------|
| Entrypoint   | 0x00CD   |
| Data Size    | 38 bytes |
| Instructions | 14       |

```
      00 01 02 03 04 05 06 07  08 09 0A 0B 0C 0D 0E 0F
      -- -- -- -- -- -- -- --  -- -- -- -- -- -- -- --
00C0:                                         42 03 03               B..
00D0: 10 00 80 03 04 10 01 80  03 05 10 02 80 03 08 10  ................
00E0: 03 80 1A 19 01 1D 17 80  23 1D 18 80 23 1D 15 80  ........#...#...
00F0: 23 21 00                                          #!.             
```

#### Opcodes

```
  0: 0x00CD [0x42] SET_CLI_EVENT_CANCEL_DATA()
  1: 0x00CE [0x03] Work_Zone[3] = 1024*
  2: 0x00D3 [0x03] Work_Zone[4] = 1025*
  3: 0x00D8 [0x03] Work_Zone[5] = 1026*
  4: 0x00DD [0x03] Work_Zone[8] = 9*
  5: 0x00E2 [0x1A] CALL_SUBROUTINE(address=0x0119)
  6: 0x00E5 [0x1D] PRINT_EVENT_MESSAGE(message_id=7392*)
    → "$1...$2...and $3. Yes, they seem to be authentic."
  7: 0x00E8 [0x23] WAIT_FOR_DIALOG_INTERACTION
  8: 0x00E9 [0x1D] PRINT_EVENT_MESSAGE(message_id=7393*)
    → "I have issued $6 under the name of <Player>. It has been approved for immediate use."
  9: 0x00EC [0x23] WAIT_FOR_DIALOG_INTERACTION
 10: 0x00ED [0x1D] PRINT_EVENT_MESSAGE(message_id=7397*)
    → "We hope you enjoy flying with us!"
 11: 0x00F0 [0x23] WAIT_FOR_DIALOG_INTERACTION
 12: 0x00F1 [0x21] END_EVENT
 13: 0x00F2 [0x00] END_REQSTACK()
```

### Event 302

#### Metadata

| Field        | Value    |
|--------------|----------|
| Entrypoint   | 0x00F3   |
| Data Size    | 52 bytes |
| Instructions | 19       |

```
      00 01 02 03 04 05 06 07  08 09 0A 0B 0C 0D 0E 0F
      -- -- -- -- -- -- -- --  -- -- -- -- -- -- -- --
00F0:          42 03 03 10 00  80 03 04 10 01 80 03 05     B............
0100: 10 02 80 03 08 10 03 80  1A 19 01 1D 19 80 23 1D  ..............#.
0110: 1A 80 23 1D 0B 80 23 21  00 86 00 F8 FF FF 7F 1E  ..#...#!........
0120: F0 FF FF 7F 6F 70 1B                              ....op.         
```

#### Opcodes

```
  0: 0x00F3 [0x42] SET_CLI_EVENT_CANCEL_DATA()
  1: 0x00F4 [0x03] Work_Zone[3] = 1024*
  2: 0x00F9 [0x03] Work_Zone[4] = 1025*
  3: 0x00FE [0x03] Work_Zone[5] = 1026*
  4: 0x0103 [0x03] Work_Zone[8] = 9*
  5: 0x0108 [0x1A] CALL_SUBROUTINE(address=0x0119)
  6: 0x010B [0x1D] PRINT_EVENT_MESSAGE(message_id=7394*)
    → "I am sorry, but this is not one of the items in the deal."
  7: 0x010E [0x23] WAIT_FOR_DIALOG_INTERACTION
  8: 0x010F [0x1D] PRINT_EVENT_MESSAGE(message_id=7395*)
    → "You must bring $1, $2, and $3."
  9: 0x0112 [0x23] WAIT_FOR_DIALOG_INTERACTION
 10: 0x0113 [0x1D] PRINT_EVENT_MESSAGE(message_id=7391*)
    → "Once you have gathered them all, give them to me and I will check to see if they are authentic."
 11: 0x0116 [0x23] WAIT_FOR_DIALOG_INTERACTION
 12: 0x0117 [0x21] END_EVENT
 13: 0x0118 [0x00] END_REQSTACK()

SUBROUTINE_0119:
 14: 0x0119 [0x86] EventEntity->Render.Flags3 = Flags3  // No change (flag=0)
 15: 0x011F [0x1E] EventEntity looks at LocalPlayer and starts talking
 16: 0x0124 [0x6F] WAIT_FRAME_DELAY: Yield until WaitTime reaches zero
 17: 0x0125 [0x70] WAIT_ENTITY_RENDER_FLAG: Wait while EventEntity->Render.Flags3 bit 2 is set (cancel turn if not)
 18: 0x0126 [0x1B] RETURN
```
