# 17784899 - Khumo Daramasteh

## Common Data

| Field            | Value                |
|------------------|----------------------|
| Zone             | Port Jeuno (ID: 246) |
| Block Size       | 1748 bytes           |
| Total Events     | 42                   |
| References Count | 83                   |

## List of Events

| Event ID                   | Entrypoint   |   Size |   Instructions |
|----------------------------|--------------|--------|----------------|
| [65535](#event-65535)      | 0x0000       |      1 |              1 |
| [19](#event-19)            | 0x0001       |     65 |             13 |
| [309](#event-309)          | 0x0042       |      1 |              1 |
| [324](#event-324)          | 0x0043       |     18 |              4 |
| [325](#event-325)          | 0x0055       |     18 |              4 |
| [327](#event-327)          | 0x0067       |     18 |              4 |
| [331](#event-331)          | 0x0079       |     18 |              4 |
| [332](#event-332)          | 0x008B       |     18 |              4 |
| [333](#event-333)          | 0x009D       |     18 |              4 |
| [334](#event-334)          | 0x00AF       |     18 |              4 |
| [335](#event-335)          | 0x00C1       |     18 |              4 |
| [336](#event-336)          | 0x00D3       |     18 |              4 |
| [337](#event-337)          | 0x00E5       |     18 |              4 |
| [338](#event-338)          | 0x00F7       |     18 |              4 |
| [340](#event-340)          | 0x0109       |     18 |              4 |
| [341](#event-341)          | 0x011B       |     18 |              4 |
| [342](#event-342)          | 0x012D       |     18 |              4 |
| [343](#event-343)          | 0x013F       |     18 |              4 |
| [344](#event-344)          | 0x0151       |     18 |              4 |
| [345](#event-345)          | 0x0163       |     18 |              4 |
| [65535.1](#event-655351)   | 0x0175       |     40 |              8 |
| [65535.2](#event-655352)   | 0x019D       |     40 |              8 |
| [65535.3](#event-655353)   | 0x01C5       |    139 |             22 |
| [65535.4](#event-655354)   | 0x0250       |     15 |              5 |
| [65535.5](#event-655355)   | 0x025F       |     15 |              5 |
| [65535.6](#event-655356)   | 0x026E       |     30 |              8 |
| [65535.7](#event-655357)   | 0x028C       |     16 |              2 |
| [65535.8](#event-655358)   | 0x029C       |     33 |              7 |
| [65535.9](#event-655359)   | 0x02BD       |     33 |              7 |
| [65535.10](#event-6553510) | 0x02DE       |     45 |             13 |
| [65535.11](#event-6553511) | 0x030B       |    139 |             22 |
| [65535.12](#event-6553512) | 0x0396       |     15 |              5 |
| [65535.13](#event-6553513) | 0x03A5       |     15 |              5 |
| [65535.14](#event-6553514) | 0x03B4       |     15 |              5 |
| [65535.15](#event-6553515) | 0x03C3       |     80 |             13 |
| [65535.16](#event-6553516) | 0x0413       |     15 |              5 |
| [65535.17](#event-6553517) | 0x0422       |     15 |              5 |
| [65535.18](#event-6553518) | 0x0431       |     15 |              5 |
| [65535.19](#event-6553519) | 0x0440       |     15 |              5 |
| [65535.20](#event-6553520) | 0x044F       |     15 |              5 |
| [65535.21](#event-6553521) | 0x045E       |     53 |             10 |
| [65535.22](#event-6553522) | 0x0493       |     58 |             11 |

## DAT References (imed_data)

|   Index | Hex Value   |   Dec Value |
|---------|-------------|-------------|
|       0 | 0x0032      |          50 |
|       1 | 0x0008      |           8 |
|       2 | 0x1BC5      |        7109 |
|       3 | 0x1BC6      |        7110 |
|       4 | 0x0015      |          21 |
|       5 | 0x005A      |          90 |
|       6 | 0x000D      |          13 |
|       7 | 0xFFFF43BD  |  4294919101 |
|       8 | 0x0E16      |        3606 |
|       9 | 0x0000      |           0 |
|      10 | 0x03CD      |         973 |
|      11 | 0x0034      |          52 |
|      12 | 0x0078      |         120 |
|      13 | 0x000B      |          11 |
|      14 | 0x5D1F      |       23839 |
|      15 | 0x1781      |        6017 |
|      16 | 0x02AF      |         687 |
|      17 | 0x0051      |          81 |
|      18 | 0x002D      |          45 |
|      19 | 0x0005      |           5 |
|      20 | 0x001E      |          30 |
|      21 | 0x08AE      |        2222 |
|      22 | 0x004B      |          75 |
|      23 | 0x000F      |          15 |
|      24 | 0x0025      |          37 |
|      25 | 0xFFFEC504  |  4294886660 |
|      26 | 0xFFFFEAAC  |  4294961836 |
|      27 | 0x0027      |          39 |
|      28 | 0xFFFEC210  |  4294885904 |
|      29 | 0xFFFFEF62  |  4294963042 |
|      30 | 0x0029      |          41 |
|      31 | 0xFFFEBC38  |  4294884408 |
|      32 | 0xFFFFED5A  |  4294962522 |
|      33 | 0x0006      |           6 |
|      34 | 0x000A      |          10 |
|      35 | 0xFFFEAFBE  |  4294881214 |
|      36 | 0xFFFFFA5E  |  4294965854 |
|      37 | 0x00D8      |         216 |
|      38 | 0x000C      |          12 |
|      39 | 0xFFFE7646  |  4294866502 |
|      40 | 0xFFFFF1A1  |  4294963617 |
|      41 | 0x003C      |          60 |
|      42 | 0x0028      |          40 |
|      43 | 0xFFFF89FB  |  4294937083 |
|      44 | 0xFFFFFA22  |  4294965794 |
|      45 | 0xFFFE86B8  |  4294870712 |
|      46 | 0xFFFFDEB9  |  4294958777 |
|      47 | 0x0E02      |        3586 |
|      48 | 0x0168      |         360 |
|      49 | 0xFFFE880F  |  4294871055 |
|      50 | 0x22A8      |        8872 |
|      51 | 0x0200      |         512 |
|      52 | 0xFFFF32B5  |  4294914741 |
|      53 | 0x079E      |        1950 |
|      54 | 0xFFFF402C  |  4294918188 |
|      55 | 0x0935      |        2357 |
|      56 | 0xFFFF35EA  |  4294915562 |
|      57 | 0x0B3F      |        2879 |
|      58 | 0xFFFF3A12  |  4294916626 |
|      59 | 0x09AA      |        2474 |
|      60 | 0xFFFE9692  |  4294874770 |
|      61 | 0xFFFFF68E  |  4294964878 |
|      62 | 0x0026      |          38 |
|      63 | 0xFFFE7DEB  |  4294868459 |
|      64 | 0xFFFFF5B0  |  4294964656 |
|      65 | 0x1387      |        4999 |
|      66 | 0xFFFFFCE1  |  4294966497 |
|      67 | 0xFFFED394  |  4294890388 |
|      68 | 0xFFFFF65F  |  4294964831 |
|      69 | 0xFFFF38F4  |  4294916340 |
|      70 | 0xFFFFF821  |  4294965281 |
|      71 | 0xFFFE5E8F  |  4294860431 |
|      72 | 0x0899      |        2201 |
|      73 | 0xFFFF7085  |  4294930565 |
|      74 | 0xFFFFF716  |  4294965014 |
|      75 | 0xFFFF1D41  |  4294909249 |
|      76 | 0x24D9      |        9433 |
|      77 | 0xFFFF236E  |  4294910830 |
|      78 | 0x2722      |       10018 |
|      79 | 0x00D7      |         215 |
|      80 | 0xFFFF34A9  |  4294915241 |
|      81 | 0x0881      |        2177 |
|      82 | 0x0013      |          19 |

## String References

- **7109**: You can board with $6 from the Chamber of Commerce and Industry in Lower Jeuno, but they're prohibitively expensive.
- **7110**: I've heard the archduke issues them now and then, but the chances of getting one that way are slim.

## Events

### Event 65535

#### Metadata

| Field        | Value   |
|--------------|---------|
| Entrypoint   | 0x0000  |
| Data Size    | 1 bytes |
| Instructions | 1       |

```
      00 01 02 03 04 05 06 07  08 09 0A 0B 0C 0D 0E 0F
      -- -- -- -- -- -- -- --  -- -- -- -- -- -- -- --
0000: 00                                                .               
```

#### Opcodes

```
  0: 0x0000 [0x00] END_REQSTACK()
```

### Event 19

#### Metadata

| Field        | Value    |
|--------------|----------|
| Entrypoint   | 0x0001   |
| Data Size    | 65 bytes |
| Instructions | 13       |

```
      00 01 02 03 04 05 06 07  08 09 0A 0B 0C 0D 0E 0F
      -- -- -- -- -- -- -- --  -- -- -- -- -- -- -- --
0000:    1E F0 FF FF 7F 6F 70  66 00 80 F8 FF FF 7F F8   .....opf.......
0010: FF FF 7F 74 68 6B 31 03  09 10 01 80 1D 02 80 23  ...thk1........#
0020: 1D 03 80 23 66 00 80 F8  FF FF 7F F8 FF FF 7F 74  ...#f..........t
0030: 68 6B 32 53 F8 FF FF 7F  F8 FF FF 7F 74 68 6B 32  hk2S........thk2
0040: 21 00                                             !.              
```

#### Opcodes

```
  0: 0x0001 [0x1E] EventEntity looks at LocalPlayer and starts talking
  1: 0x0006 [0x6F] WAIT_FRAME_DELAY: Yield until WaitTime reaches zero
  2: 0x0007 [0x70] WAIT_ENTITY_RENDER_FLAG: Wait while EventEntity->Render.Flags3 bit 2 is set (cancel turn if not)
  3: 0x0008 [0x66] LOAD_EXT_SCHEDULER_MAIN: Load scheduler "thk1" with entities [EventEntity, EventEntity], work=50*
  4: 0x0017 [0x03] Work_Zone[9] = 8*
  5: 0x001C [0x1D] PRINT_EVENT_MESSAGE(message_id=7109*)
    → "You can board with $6 from the Chamber of Commerce and Industry in Lower Jeuno, but they're prohibitively expensive."
  6: 0x001F [0x23] WAIT_FOR_DIALOG_INTERACTION
  7: 0x0020 [0x1D] PRINT_EVENT_MESSAGE(message_id=7110*)
    → "I've heard the archduke issues them now and then, but the chances of getting one that way are slim."
  8: 0x0023 [0x23] WAIT_FOR_DIALOG_INTERACTION
  9: 0x0024 [0x66] LOAD_EXT_SCHEDULER_MAIN: Load scheduler "thk2" with entities [EventEntity, EventEntity], work=50*
 10: 0x0033 [0x53] WAIT_SCHEDULER_TASK: Wait for scheduler "thk2" with entities [EventEntity, EventEntity]
 11: 0x0040 [0x21] END_EVENT
 12: 0x0041 [0x00] END_REQSTACK()
```

### Event 309

#### Metadata

| Field        | Value   |
|--------------|---------|
| Entrypoint   | 0x0042  |
| Data Size    | 1 bytes |
| Instructions | 1       |

```
      00 01 02 03 04 05 06 07  08 09 0A 0B 0C 0D 0E 0F
      -- -- -- -- -- -- -- --  -- -- -- -- -- -- -- --
0040:       00                                            .             
```

#### Opcodes

```
  0: 0x0042 [0x00] END_REQSTACK()
```

### Event 324

#### Metadata

| Field        | Value    |
|--------------|----------|
| Entrypoint   | 0x0043   |
| Data Size    | 18 bytes |
| Instructions | 4        |

```
      00 01 02 03 04 05 06 07  08 09 0A 0B 0C 0D 0E 0F
      -- -- -- -- -- -- -- --  -- -- -- -- -- -- -- --
0040:          92 01 F8 FF FF  7F 94 01 F8 FF FF 7F 80     .............
0050: F8 FF FF 7F 00                                    .....           
```

#### Opcodes

```
  0: 0x0043 [0x92] EventEntity->Render.Flags3 ^= 0x01
  1: 0x0049 [0x94] EventEntity->Render.Flags3 ^= 0x01
  2: 0x004F [0x80] LOAD_WAIT(entity=EventEntity)
  3: 0x0054 [0x00] END_REQSTACK()
```

### Event 325

#### Metadata

| Field        | Value    |
|--------------|----------|
| Entrypoint   | 0x0055   |
| Data Size    | 18 bytes |
| Instructions | 4        |

```
      00 01 02 03 04 05 06 07  08 09 0A 0B 0C 0D 0E 0F
      -- -- -- -- -- -- -- --  -- -- -- -- -- -- -- --
0050:                92 01 F8  FF FF 7F 94 01 F8 FF FF       ...........
0060: 7F 80 F8 FF FF 7F 00                              .......         
```

#### Opcodes

```
  0: 0x0055 [0x92] EventEntity->Render.Flags3 ^= 0x01
  1: 0x005B [0x94] EventEntity->Render.Flags3 ^= 0x01
  2: 0x0061 [0x80] LOAD_WAIT(entity=EventEntity)
  3: 0x0066 [0x00] END_REQSTACK()
```

### Event 327

#### Metadata

| Field        | Value    |
|--------------|----------|
| Entrypoint   | 0x0067   |
| Data Size    | 18 bytes |
| Instructions | 4        |

```
      00 01 02 03 04 05 06 07  08 09 0A 0B 0C 0D 0E 0F
      -- -- -- -- -- -- -- --  -- -- -- -- -- -- -- --
0060:                      92  01 F8 FF FF 7F 94 01 F8         .........
0070: FF FF 7F 80 F8 FF FF 7F  00                       .........       
```

#### Opcodes

```
  0: 0x0067 [0x92] EventEntity->Render.Flags3 ^= 0x01
  1: 0x006D [0x94] EventEntity->Render.Flags3 ^= 0x01
  2: 0x0073 [0x80] LOAD_WAIT(entity=EventEntity)
  3: 0x0078 [0x00] END_REQSTACK()
```

### Event 331

#### Metadata

| Field        | Value    |
|--------------|----------|
| Entrypoint   | 0x0079   |
| Data Size    | 18 bytes |
| Instructions | 4        |

```
      00 01 02 03 04 05 06 07  08 09 0A 0B 0C 0D 0E 0F
      -- -- -- -- -- -- -- --  -- -- -- -- -- -- -- --
0070:                             92 01 F8 FF FF 7F 94           .......
0080: 01 F8 FF FF 7F 80 F8 FF  FF 7F 00                 ...........     
```

#### Opcodes

```
  0: 0x0079 [0x92] EventEntity->Render.Flags3 ^= 0x01
  1: 0x007F [0x94] EventEntity->Render.Flags3 ^= 0x01
  2: 0x0085 [0x80] LOAD_WAIT(entity=EventEntity)
  3: 0x008A [0x00] END_REQSTACK()
```

### Event 332

#### Metadata

| Field        | Value    |
|--------------|----------|
| Entrypoint   | 0x008B   |
| Data Size    | 18 bytes |
| Instructions | 4        |

```
      00 01 02 03 04 05 06 07  08 09 0A 0B 0C 0D 0E 0F
      -- -- -- -- -- -- -- --  -- -- -- -- -- -- -- --
0080:                                   92 01 F8 FF FF             .....
0090: 7F 94 01 F8 FF FF 7F 80  F8 FF FF 7F 00           .............   
```

#### Opcodes

```
  0: 0x008B [0x92] EventEntity->Render.Flags3 ^= 0x01
  1: 0x0091 [0x94] EventEntity->Render.Flags3 ^= 0x01
  2: 0x0097 [0x80] LOAD_WAIT(entity=EventEntity)
  3: 0x009C [0x00] END_REQSTACK()
```

### Event 333

#### Metadata

| Field        | Value    |
|--------------|----------|
| Entrypoint   | 0x009D   |
| Data Size    | 18 bytes |
| Instructions | 4        |

```
      00 01 02 03 04 05 06 07  08 09 0A 0B 0C 0D 0E 0F
      -- -- -- -- -- -- -- --  -- -- -- -- -- -- -- --
0090:                                         92 01 F8               ...
00A0: FF FF 7F 94 01 F8 FF FF  7F 80 F8 FF FF 7F 00     ............... 
```

#### Opcodes

```
  0: 0x009D [0x92] EventEntity->Render.Flags3 ^= 0x01
  1: 0x00A3 [0x94] EventEntity->Render.Flags3 ^= 0x01
  2: 0x00A9 [0x80] LOAD_WAIT(entity=EventEntity)
  3: 0x00AE [0x00] END_REQSTACK()
```

### Event 334

#### Metadata

| Field        | Value    |
|--------------|----------|
| Entrypoint   | 0x00AF   |
| Data Size    | 18 bytes |
| Instructions | 4        |

```
      00 01 02 03 04 05 06 07  08 09 0A 0B 0C 0D 0E 0F
      -- -- -- -- -- -- -- --  -- -- -- -- -- -- -- --
00A0:                                               92                 .
00B0: 01 F8 FF FF 7F 94 01 F8  FF FF 7F 80 F8 FF FF 7F  ................
00C0: 00                                                .               
```

#### Opcodes

```
  0: 0x00AF [0x92] EventEntity->Render.Flags3 ^= 0x01
  1: 0x00B5 [0x94] EventEntity->Render.Flags3 ^= 0x01
  2: 0x00BB [0x80] LOAD_WAIT(entity=EventEntity)
  3: 0x00C0 [0x00] END_REQSTACK()
```

### Event 335

#### Metadata

| Field        | Value    |
|--------------|----------|
| Entrypoint   | 0x00C1   |
| Data Size    | 18 bytes |
| Instructions | 4        |

```
      00 01 02 03 04 05 06 07  08 09 0A 0B 0C 0D 0E 0F
      -- -- -- -- -- -- -- --  -- -- -- -- -- -- -- --
00C0:    92 01 F8 FF FF 7F 94  01 F8 FF FF 7F 80 F8 FF   ...............
00D0: FF 7F 00                                          ...             
```

#### Opcodes

```
  0: 0x00C1 [0x92] EventEntity->Render.Flags3 ^= 0x01
  1: 0x00C7 [0x94] EventEntity->Render.Flags3 ^= 0x01
  2: 0x00CD [0x80] LOAD_WAIT(entity=EventEntity)
  3: 0x00D2 [0x00] END_REQSTACK()
```

### Event 336

#### Metadata

| Field        | Value    |
|--------------|----------|
| Entrypoint   | 0x00D3   |
| Data Size    | 18 bytes |
| Instructions | 4        |

```
      00 01 02 03 04 05 06 07  08 09 0A 0B 0C 0D 0E 0F
      -- -- -- -- -- -- -- --  -- -- -- -- -- -- -- --
00D0:          92 01 F8 FF FF  7F 94 01 F8 FF FF 7F 80     .............
00E0: F8 FF FF 7F 00                                    .....           
```

#### Opcodes

```
  0: 0x00D3 [0x92] EventEntity->Render.Flags3 ^= 0x01
  1: 0x00D9 [0x94] EventEntity->Render.Flags3 ^= 0x01
  2: 0x00DF [0x80] LOAD_WAIT(entity=EventEntity)
  3: 0x00E4 [0x00] END_REQSTACK()
```

### Event 337

#### Metadata

| Field        | Value    |
|--------------|----------|
| Entrypoint   | 0x00E5   |
| Data Size    | 18 bytes |
| Instructions | 4        |

```
      00 01 02 03 04 05 06 07  08 09 0A 0B 0C 0D 0E 0F
      -- -- -- -- -- -- -- --  -- -- -- -- -- -- -- --
00E0:                92 01 F8  FF FF 7F 94 01 F8 FF FF       ...........
00F0: 7F 80 F8 FF FF 7F 00                              .......         
```

#### Opcodes

```
  0: 0x00E5 [0x92] EventEntity->Render.Flags3 ^= 0x01
  1: 0x00EB [0x94] EventEntity->Render.Flags3 ^= 0x01
  2: 0x00F1 [0x80] LOAD_WAIT(entity=EventEntity)
  3: 0x00F6 [0x00] END_REQSTACK()
```

### Event 338

#### Metadata

| Field        | Value    |
|--------------|----------|
| Entrypoint   | 0x00F7   |
| Data Size    | 18 bytes |
| Instructions | 4        |

```
      00 01 02 03 04 05 06 07  08 09 0A 0B 0C 0D 0E 0F
      -- -- -- -- -- -- -- --  -- -- -- -- -- -- -- --
00F0:                      92  01 F8 FF FF 7F 94 01 F8         .........
0100: FF FF 7F 80 F8 FF FF 7F  00                       .........       
```

#### Opcodes

```
  0: 0x00F7 [0x92] EventEntity->Render.Flags3 ^= 0x01
  1: 0x00FD [0x94] EventEntity->Render.Flags3 ^= 0x01
  2: 0x0103 [0x80] LOAD_WAIT(entity=EventEntity)
  3: 0x0108 [0x00] END_REQSTACK()
```

### Event 340

#### Metadata

| Field        | Value    |
|--------------|----------|
| Entrypoint   | 0x0109   |
| Data Size    | 18 bytes |
| Instructions | 4        |

```
      00 01 02 03 04 05 06 07  08 09 0A 0B 0C 0D 0E 0F
      -- -- -- -- -- -- -- --  -- -- -- -- -- -- -- --
0100:                             92 01 F8 FF FF 7F 94           .......
0110: 01 F8 FF FF 7F 80 F8 FF  FF 7F 00                 ...........     
```

#### Opcodes

```
  0: 0x0109 [0x92] EventEntity->Render.Flags3 ^= 0x01
  1: 0x010F [0x94] EventEntity->Render.Flags3 ^= 0x01
  2: 0x0115 [0x80] LOAD_WAIT(entity=EventEntity)
  3: 0x011A [0x00] END_REQSTACK()
```

### Event 341

#### Metadata

| Field        | Value    |
|--------------|----------|
| Entrypoint   | 0x011B   |
| Data Size    | 18 bytes |
| Instructions | 4        |

```
      00 01 02 03 04 05 06 07  08 09 0A 0B 0C 0D 0E 0F
      -- -- -- -- -- -- -- --  -- -- -- -- -- -- -- --
0110:                                   92 01 F8 FF FF             .....
0120: 7F 94 01 F8 FF FF 7F 80  F8 FF FF 7F 00           .............   
```

#### Opcodes

```
  0: 0x011B [0x92] EventEntity->Render.Flags3 ^= 0x01
  1: 0x0121 [0x94] EventEntity->Render.Flags3 ^= 0x01
  2: 0x0127 [0x80] LOAD_WAIT(entity=EventEntity)
  3: 0x012C [0x00] END_REQSTACK()
```

### Event 342

#### Metadata

| Field        | Value    |
|--------------|----------|
| Entrypoint   | 0x012D   |
| Data Size    | 18 bytes |
| Instructions | 4        |

```
      00 01 02 03 04 05 06 07  08 09 0A 0B 0C 0D 0E 0F
      -- -- -- -- -- -- -- --  -- -- -- -- -- -- -- --
0120:                                         92 01 F8               ...
0130: FF FF 7F 94 01 F8 FF FF  7F 80 F8 FF FF 7F 00     ............... 
```

#### Opcodes

```
  0: 0x012D [0x92] EventEntity->Render.Flags3 ^= 0x01
  1: 0x0133 [0x94] EventEntity->Render.Flags3 ^= 0x01
  2: 0x0139 [0x80] LOAD_WAIT(entity=EventEntity)
  3: 0x013E [0x00] END_REQSTACK()
```

### Event 343

#### Metadata

| Field        | Value    |
|--------------|----------|
| Entrypoint   | 0x013F   |
| Data Size    | 18 bytes |
| Instructions | 4        |

```
      00 01 02 03 04 05 06 07  08 09 0A 0B 0C 0D 0E 0F
      -- -- -- -- -- -- -- --  -- -- -- -- -- -- -- --
0130:                                               92                 .
0140: 01 F8 FF FF 7F 94 01 F8  FF FF 7F 80 F8 FF FF 7F  ................
0150: 00                                                .               
```

#### Opcodes

```
  0: 0x013F [0x92] EventEntity->Render.Flags3 ^= 0x01
  1: 0x0145 [0x94] EventEntity->Render.Flags3 ^= 0x01
  2: 0x014B [0x80] LOAD_WAIT(entity=EventEntity)
  3: 0x0150 [0x00] END_REQSTACK()
```

### Event 344

#### Metadata

| Field        | Value    |
|--------------|----------|
| Entrypoint   | 0x0151   |
| Data Size    | 18 bytes |
| Instructions | 4        |

```
      00 01 02 03 04 05 06 07  08 09 0A 0B 0C 0D 0E 0F
      -- -- -- -- -- -- -- --  -- -- -- -- -- -- -- --
0150:    92 01 F8 FF FF 7F 94  01 F8 FF FF 7F 80 F8 FF   ...............
0160: FF 7F 00                                          ...             
```

#### Opcodes

```
  0: 0x0151 [0x92] EventEntity->Render.Flags3 ^= 0x01
  1: 0x0157 [0x94] EventEntity->Render.Flags3 ^= 0x01
  2: 0x015D [0x80] LOAD_WAIT(entity=EventEntity)
  3: 0x0162 [0x00] END_REQSTACK()
```

### Event 345

#### Metadata

| Field        | Value    |
|--------------|----------|
| Entrypoint   | 0x0163   |
| Data Size    | 18 bytes |
| Instructions | 4        |

```
      00 01 02 03 04 05 06 07  08 09 0A 0B 0C 0D 0E 0F
      -- -- -- -- -- -- -- --  -- -- -- -- -- -- -- --
0160:          92 01 F8 FF FF  7F 94 01 F8 FF FF 7F 80     .............
0170: F8 FF FF 7F 00                                    .....           
```

#### Opcodes

```
  0: 0x0163 [0x92] EventEntity->Render.Flags3 ^= 0x01
  1: 0x0169 [0x94] EventEntity->Render.Flags3 ^= 0x01
  2: 0x016F [0x80] LOAD_WAIT(entity=EventEntity)
  3: 0x0174 [0x00] END_REQSTACK()
```

### Event 65535.1

#### Metadata

| Field        | Value    |
|--------------|----------|
| Entrypoint   | 0x0175   |
| Data Size    | 40 bytes |
| Instructions | 8        |

```
      00 01 02 03 04 05 06 07  08 09 0A 0B 0C 0D 0E 0F
      -- -- -- -- -- -- -- --  -- -- -- -- -- -- -- --
0170:                66 04 80  28 60 0F 01 28 60 0F 01       f..(`..(`..
0180: 64 69 73 30 1C 05 80 32  06 80 1F 00 07 80 08 80  dis0...2........
0190: 09 80 1F 01 6F 4B F8 FF  FF 7F 0A 80 00           ....oK.......   
```

#### Opcodes

```
  0: 0x0175 [0x66] LOAD_EXT_SCHEDULER_MAIN: Load scheduler "dis0" with entities [Ramicharaux (ID: 17784872/0x010F6028), Ramicharaux (ID: 17784872/0x010F6028)], work=21*
  1: 0x0184 [0x1C] WAIT(90* ticks)
  2: 0x0187 [0x32] ExtData[1]->MainSpeed = 13* * 0.1
  3: 0x018A [0x1F] MOVE_ENTITY: EventEntity moves to X=-48.195*, Z=3.606*, Y=0.000*
  4: 0x0192 [0x1F] MOVE_ENTITY: Update entity position (mode=1)
  5: 0x0194 [0x6F] WAIT_FRAME_DELAY: Yield until WaitTime reaches zero
  6: 0x0195 [0x4B] UPDATE_ENTITY_YAW(entity=EventEntity, yaw=5.3°*)
  7: 0x019C [0x00] END_REQSTACK()
```

### Event 65535.2

#### Metadata

| Field        | Value    |
|--------------|----------|
| Entrypoint   | 0x019D   |
| Data Size    | 40 bytes |
| Instructions | 8        |

```
      00 01 02 03 04 05 06 07  08 09 0A 0B 0C 0D 0E 0F
      -- -- -- -- -- -- -- --  -- -- -- -- -- -- -- --
0190:                                         66 0B 80               f..
01A0: 43 60 0F 01 43 60 0F 01  64 69 73 30 1C 0C 80 32  C`..C`..dis0...2
01B0: 0D 80 1F 00 0E 80 0F 80  09 80 1F 01 6F 4B F8 FF  ............oK..
01C0: FF 7F 10 80 00                                    .....           
```

#### Opcodes

```
  0: 0x019D [0x66] LOAD_EXT_SCHEDULER_MAIN: Load scheduler "dis0" with entities [Khumo Daramasteh (ID: 17784899/0x010F6043), Khumo Daramasteh (ID: 17784899/0x010F6043)], work=52*
  1: 0x01AC [0x1C] WAIT(120* ticks)
  2: 0x01AF [0x32] ExtData[1]->MainSpeed = 11* * 0.1
  3: 0x01B2 [0x1F] MOVE_ENTITY: EventEntity moves to X=23.839*, Z=6.017*, Y=0.000*
  4: 0x01BA [0x1F] MOVE_ENTITY: Update entity position (mode=1)
  5: 0x01BC [0x6F] WAIT_FRAME_DELAY: Yield until WaitTime reaches zero
  6: 0x01BD [0x4B] UPDATE_ENTITY_YAW(entity=EventEntity, yaw=3.8°*)
  7: 0x01C4 [0x00] END_REQSTACK()
```

### Event 65535.3

#### Metadata

| Field        | Value     |
|--------------|-----------|
| Entrypoint   | 0x01C5    |
| Data Size    | 139 bytes |
| Instructions | 22        |

```
      00 01 02 03 04 05 06 07  08 09 0A 0B 0C 0D 0E 0F
      -- -- -- -- -- -- -- --  -- -- -- -- -- -- -- --
01C0:                5B 11 80  06 60 0F 01 06 60 0F 01       [...`...`..
01D0: 68 61 69 30 1C 12 80 4A  04 60 0F 01 06 60 0F 01  hai0...J.`...`..
01E0: 1C 13 80 79 00 05 60 0F  01 06 60 0F 01 1C 14 80  ...y..`...`.....
01F0: 4B 06 60 0F 01 15 80 6F  76 06 60 0F 01 5B 11 80  K.`....ov.`..[..
0200: 06 60 0F 01 06 60 0F 01  61 77 77 30 1C 12 80 5B  .`...`..aww0...[
0210: 16 80 04 60 0F 01 04 60  0F 01 74 68 6B 31 1C 17  ...`...`..thk1..
0220: 80 5B 05 80 05 60 0F 01  05 60 0F 01 74 6C 6B 30  .[...`...`..tlk0
0230: 1C 05 80 27 10 04 60 0F  01 21 27 10 05 60 0F 01  ...'..`..!'..`..
0240: 20 32 18 80 1F 00 19 80  1A 80 09 80 1F 01 6F 00   2............o.
```

#### Opcodes

```
  0: 0x01C5 [0x5B] LOAD_EXT_SCHEDULER: Load scheduler "hai0" with entities [Jaha Amariyo (ID: 17784838/0x010F6006), Jaha Amariyo (ID: 17784838/0x010F6006)], work=81*
  1: 0x01D4 [0x1C] WAIT(45* ticks)
  2: 0x01D7 [0x4A] Karl (ID: 17784836/0x010F6004) looks at Jaha Amariyo (ID: 17784838/0x010F6006)
  3: 0x01E0 [0x1C] WAIT(5* ticks)
  4: 0x01E3 [0x79] Buntz (ID: 17784837/0x010F6005) looks at Jaha Amariyo (ID: 17784838/0x010F6006) (Basic look)
  5: 0x01ED [0x1C] WAIT(30* ticks)
  6: 0x01F0 [0x4B] UPDATE_ENTITY_YAW(entity=Jaha Amariyo (ID: 17784838/0x010F6006), yaw=12.2°*)
  7: 0x01F7 [0x6F] WAIT_FRAME_DELAY: Yield until WaitTime reaches zero
  8: 0x01F8 [0x76] CHECK_ENTITY_RENDER_FLAGS: Wait until Jaha Amariyo (ID: 17784838/0x010F6006) Render.Flags0 and Render.Flags3 conditions are met
  9: 0x01FD [0x5B] LOAD_EXT_SCHEDULER: Load scheduler "aww0" with entities [Jaha Amariyo (ID: 17784838/0x010F6006), Jaha Amariyo (ID: 17784838/0x010F6006)], work=81*
 10: 0x020C [0x1C] WAIT(45* ticks)
 11: 0x020F [0x5B] LOAD_EXT_SCHEDULER: Load scheduler "thk1" with entities [Karl (ID: 17784836/0x010F6004), Karl (ID: 17784836/0x010F6004)], work=75*
 12: 0x021E [0x1C] WAIT(15* ticks)
 13: 0x0221 [0x5B] LOAD_EXT_SCHEDULER: Load scheduler "tlk0" with entities [Buntz (ID: 17784837/0x010F6005), Buntz (ID: 17784837/0x010F6005)], work=90*
 14: 0x0230 [0x1C] WAIT(90* ticks)
 15: 0x0233 [0x27] REQ_SET(priority=0x10, entity_id=Karl (ID: 17784836/0x010F6004), tag_num=0x21)
 16: 0x023A [0x27] REQ_SET(priority=0x10, entity_id=Buntz (ID: 17784837/0x010F6005), tag_num=0x20)
 17: 0x0241 [0x32] ExtData[1]->MainSpeed = 37* * 0.1
 18: 0x0244 [0x1F] MOVE_ENTITY: EventEntity moves to X=-80.636*, Z=-5.460*, Y=0.000*
 19: 0x024C [0x1F] MOVE_ENTITY: Update entity position (mode=1)
 20: 0x024E [0x6F] WAIT_FRAME_DELAY: Yield until WaitTime reaches zero
 21: 0x024F [0x00] END_REQSTACK()
```

### Event 65535.4

#### Metadata

| Field        | Value    |
|--------------|----------|
| Entrypoint   | 0x0250   |
| Data Size    | 15 bytes |
| Instructions | 5        |

```
      00 01 02 03 04 05 06 07  08 09 0A 0B 0C 0D 0E 0F
      -- -- -- -- -- -- -- --  -- -- -- -- -- -- -- --
0250: 32 1B 80 1F 00 1C 80 1D  80 09 80 1F 01 6F 00     2............o. 
```

#### Opcodes

```
  0: 0x0250 [0x32] ExtData[1]->MainSpeed = 39* * 0.1
  1: 0x0253 [0x1F] MOVE_ENTITY: EventEntity moves to X=-81.392*, Z=-4.254*, Y=0.000*
  2: 0x025B [0x1F] MOVE_ENTITY: Update entity position (mode=1)
  3: 0x025D [0x6F] WAIT_FRAME_DELAY: Yield until WaitTime reaches zero
  4: 0x025E [0x00] END_REQSTACK()
```

### Event 65535.5

#### Metadata

| Field        | Value    |
|--------------|----------|
| Entrypoint   | 0x025F   |
| Data Size    | 15 bytes |
| Instructions | 5        |

```
      00 01 02 03 04 05 06 07  08 09 0A 0B 0C 0D 0E 0F
      -- -- -- -- -- -- -- --  -- -- -- -- -- -- -- --
0250:                                               32                 2
0260: 1E 80 1F 00 1F 80 20 80  09 80 1F 01 6F 00        ...... .....o.  
```

#### Opcodes

```
  0: 0x025F [0x32] ExtData[1]->MainSpeed = 41* * 0.1
  1: 0x0262 [0x1F] MOVE_ENTITY: EventEntity moves to X=-82.888*, Z=-4.774*, Y=0.000*
  2: 0x026A [0x1F] MOVE_ENTITY: Update entity position (mode=1)
  3: 0x026C [0x6F] WAIT_FRAME_DELAY: Yield until WaitTime reaches zero
  4: 0x026D [0x00] END_REQSTACK()
```

### Event 65535.6

#### Metadata

| Field        | Value    |
|--------------|----------|
| Entrypoint   | 0x026E   |
| Data Size    | 30 bytes |
| Instructions | 8        |

```
      00 01 02 03 04 05 06 07  08 09 0A 0B 0C 0D 0E 0F
      -- -- -- -- -- -- -- --  -- -- -- -- -- -- -- --
0260:                                            6E F8                n.
0270: FF FF 7F 21 80 99 F8 FF  FF 7F 1C 0C 80 32 22 80  ...!.........2".
0280: 1F 00 23 80 24 80 09 80  1F 01 6F 00              ..#.$.....o.    
```

#### Opcodes

```
  0: 0x026E [0x6E] EventEntity uses emote 6*
  1: 0x0275 [0x99] Wait for EventEntity animation to complete
  2: 0x027A [0x1C] WAIT(120* ticks)
  3: 0x027D [0x32] ExtData[1]->MainSpeed = 10* * 0.1
  4: 0x0280 [0x1F] MOVE_ENTITY: EventEntity moves to X=-86.082*, Z=-1.442*, Y=0.000*
  5: 0x0288 [0x1F] MOVE_ENTITY: Update entity position (mode=1)
  6: 0x028A [0x6F] WAIT_FRAME_DELAY: Yield until WaitTime reaches zero
  7: 0x028B [0x00] END_REQSTACK()
```

### Event 65535.7

#### Metadata

| Field        | Value    |
|--------------|----------|
| Entrypoint   | 0x028C   |
| Data Size    | 16 bytes |
| Instructions | 2        |

```
      00 01 02 03 04 05 06 07  08 09 0A 0B 0C 0D 0E 0F
      -- -- -- -- -- -- -- --  -- -- -- -- -- -- -- --
0280:                                      5B 25 80 86              [%..
0290: 60 0F 01 86 60 0F 01 66  75 6D 30 00              `...`..fum0.    
```

#### Opcodes

```
  0: 0x028C [0x5B] LOAD_EXT_SCHEDULER: Load scheduler "fum0" with entities [Squintrox Dryeyes (ID: 17784966/0x010F6086), Squintrox Dryeyes (ID: 17784966/0x010F6086)], work=216*
  1: 0x029B [0x00] END_REQSTACK()
```

### Event 65535.8

#### Metadata

| Field        | Value    |
|--------------|----------|
| Entrypoint   | 0x029C   |
| Data Size    | 33 bytes |
| Instructions | 7        |

```
      00 01 02 03 04 05 06 07  08 09 0A 0B 0C 0D 0E 0F
      -- -- -- -- -- -- -- --  -- -- -- -- -- -- -- --
0290:                                      32 26 80 1F              2&..
02A0: 00 27 80 28 80 09 80 1F  01 6F 1C 17 80 66 14 80  .'.(.....o...f..
02B0: 42 60 0F 01 42 60 0F 01  74 68 6B 31 00           B`..B`..thk1.   
```

#### Opcodes

```
  0: 0x029C [0x32] ExtData[1]->MainSpeed = 12* * 0.1
  1: 0x029F [0x1F] MOVE_ENTITY: EventEntity moves to X=-100.794*, Z=-3.679*, Y=0.000*
  2: 0x02A7 [0x1F] MOVE_ENTITY: Update entity position (mode=1)
  3: 0x02A9 [0x6F] WAIT_FRAME_DELAY: Yield until WaitTime reaches zero
  4: 0x02AA [0x1C] WAIT(15* ticks)
  5: 0x02AD [0x66] LOAD_EXT_SCHEDULER_MAIN: Load scheduler "thk1" with entities [Naurmaire (ID: 17784898/0x010F6042), Naurmaire (ID: 17784898/0x010F6042)], work=30*
  6: 0x02BC [0x00] END_REQSTACK()
```

### Event 65535.9

#### Metadata

| Field        | Value    |
|--------------|----------|
| Entrypoint   | 0x02BD   |
| Data Size    | 33 bytes |
| Instructions | 7        |

```
      00 01 02 03 04 05 06 07  08 09 0A 0B 0C 0D 0E 0F
      -- -- -- -- -- -- -- --  -- -- -- -- -- -- -- --
02B0:                                         66 22 80               f".
02C0: 3F 60 0F 01 3F 60 0F 01  74 68 6B 32 1C 29 80 32  ?`..?`..thk2.).2
02D0: 2A 80 1F 00 2B 80 2C 80  09 80 1F 01 6F 00        *...+.,.....o.  
```

#### Opcodes

```
  0: 0x02BD [0x66] LOAD_EXT_SCHEDULER_MAIN: Load scheduler "thk2" with entities [Marnie (ID: 17784895/0x010F603F), Marnie (ID: 17784895/0x010F603F)], work=10*
  1: 0x02CC [0x1C] WAIT(60* ticks)
  2: 0x02CF [0x32] ExtData[1]->MainSpeed = 40* * 0.1
  3: 0x02D2 [0x1F] MOVE_ENTITY: EventEntity moves to X=-30.213*, Z=-1.502*, Y=0.000*
  4: 0x02DA [0x1F] MOVE_ENTITY: Update entity position (mode=1)
  5: 0x02DC [0x6F] WAIT_FRAME_DELAY: Yield until WaitTime reaches zero
  6: 0x02DD [0x00] END_REQSTACK()
```

### Event 65535.10

#### Metadata

| Field        | Value    |
|--------------|----------|
| Entrypoint   | 0x02DE   |
| Data Size    | 45 bytes |
| Instructions | 12       |

```
      00 01 02 03 04 05 06 07  08 09 0A 0B 0C 0D 0E 0F
      -- -- -- -- -- -- -- --  -- -- -- -- -- -- -- --
02D0:                                            32 06                2.
02E0: 80 1F 00 2D 80 2E 80 09  80 1F 01 1C 14 80 39 2F  ...-..........9/
02F0: 80 1C 30 80 1F 00 31 80  32 80 09 80 1F 01 1C 14  ..0...1.2.......
0300: 80 39 33 80 1C 30 80 01  DE 02 00                 .93..0.....     
```

#### Opcodes

```
  0: 0x02DE [0x32] ExtData[1]->MainSpeed = 13* * 0.1
  1: 0x02E1 [0x1F] MOVE_ENTITY: EventEntity moves to X=-96.584*, Z=-8.519*, Y=0.000*
  2: 0x02E9 [0x1F] MOVE_ENTITY: Update entity position (mode=1)
  3: 0x02EB [0x1C] WAIT(30* ticks)
  4: 0x02EE [0x39] SET_ENTITY_DIRECTION(direction=19.7°*)
  5: 0x02F1 [0x1C] WAIT(360* ticks)
  6: 0x02F4 [0x1F] MOVE_ENTITY: EventEntity moves to X=-96.241*, Z=8.872*, Y=0.000*
  7: 0x02FC [0x1F] MOVE_ENTITY: Update entity position (mode=1)
  8: 0x02FE [0x1C] WAIT(30* ticks)
  9: 0x0301 [0x39] SET_ENTITY_DIRECTION(direction=2.8°*)
 10: 0x0304 [0x1C] WAIT(360* ticks)
 11: 0x0307 [0x01] GOTO 0x02DE
```

#### Data or dead code:

```
# Dead code (unreachable instructions):
     0x030A [0x00] END_REQSTACK()
```

### Event 65535.11

#### Metadata

| Field        | Value     |
|--------------|-----------|
| Entrypoint   | 0x030B    |
| Data Size    | 139 bytes |
| Instructions | 22        |

```
      00 01 02 03 04 05 06 07  08 09 0A 0B 0C 0D 0E 0F
      -- -- -- -- -- -- -- --  -- -- -- -- -- -- -- --
0300:                                   5B 11 80 06 60             [...`
0310: 0F 01 06 60 0F 01 68 61  69 30 1C 12 80 4A 04 60  ...`..hai0...J.`
0320: 0F 01 06 60 0F 01 1C 13  80 79 00 05 60 0F 01 06  ...`.....y..`...
0330: 60 0F 01 1C 14 80 4B 06  60 0F 01 15 80 6F 76 06  `.....K.`....ov.
0340: 60 0F 01 5B 11 80 06 60  0F 01 06 60 0F 01 61 77  `..[...`...`..aw
0350: 77 30 1C 12 80 5B 16 80  04 60 0F 01 04 60 0F 01  w0...[...`...`..
0360: 74 68 6B 31 1C 17 80 5B  05 80 05 60 0F 01 05 60  thk1...[...`...`
0370: 0F 01 74 6C 6B 30 1C 05  80 27 10 04 60 0F 01 29  ..tlk0...'..`..)
0380: 27 10 05 60 0F 01 28 32  18 80 1F 00 34 80 35 80  '..`..(2....4.5.
0390: 09 80 1F 01 6F 00                                 ....o.          
```

#### Opcodes

```
  0: 0x030B [0x5B] LOAD_EXT_SCHEDULER: Load scheduler "hai0" with entities [Jaha Amariyo (ID: 17784838/0x010F6006), Jaha Amariyo (ID: 17784838/0x010F6006)], work=81*
  1: 0x031A [0x1C] WAIT(45* ticks)
  2: 0x031D [0x4A] Karl (ID: 17784836/0x010F6004) looks at Jaha Amariyo (ID: 17784838/0x010F6006)
  3: 0x0326 [0x1C] WAIT(5* ticks)
  4: 0x0329 [0x79] Buntz (ID: 17784837/0x010F6005) looks at Jaha Amariyo (ID: 17784838/0x010F6006) (Basic look)
  5: 0x0333 [0x1C] WAIT(30* ticks)
  6: 0x0336 [0x4B] UPDATE_ENTITY_YAW(entity=Jaha Amariyo (ID: 17784838/0x010F6006), yaw=12.2°*)
  7: 0x033D [0x6F] WAIT_FRAME_DELAY: Yield until WaitTime reaches zero
  8: 0x033E [0x76] CHECK_ENTITY_RENDER_FLAGS: Wait until Jaha Amariyo (ID: 17784838/0x010F6006) Render.Flags0 and Render.Flags3 conditions are met
  9: 0x0343 [0x5B] LOAD_EXT_SCHEDULER: Load scheduler "aww0" with entities [Jaha Amariyo (ID: 17784838/0x010F6006), Jaha Amariyo (ID: 17784838/0x010F6006)], work=81*
 10: 0x0352 [0x1C] WAIT(45* ticks)
 11: 0x0355 [0x5B] LOAD_EXT_SCHEDULER: Load scheduler "thk1" with entities [Karl (ID: 17784836/0x010F6004), Karl (ID: 17784836/0x010F6004)], work=75*
 12: 0x0364 [0x1C] WAIT(15* ticks)
 13: 0x0367 [0x5B] LOAD_EXT_SCHEDULER: Load scheduler "tlk0" with entities [Buntz (ID: 17784837/0x010F6005), Buntz (ID: 17784837/0x010F6005)], work=90*
 14: 0x0376 [0x1C] WAIT(90* ticks)
 15: 0x0379 [0x27] REQ_SET(priority=0x10, entity_id=Karl (ID: 17784836/0x010F6004), tag_num=0x29)
 16: 0x0380 [0x27] REQ_SET(priority=0x10, entity_id=Buntz (ID: 17784837/0x010F6005), tag_num=0x28)
 17: 0x0387 [0x32] ExtData[1]->MainSpeed = 37* * 0.1
 18: 0x038A [0x1F] MOVE_ENTITY: EventEntity moves to X=-52.555*, Z=1.950*, Y=0.000*
 19: 0x0392 [0x1F] MOVE_ENTITY: Update entity position (mode=1)
 20: 0x0394 [0x6F] WAIT_FRAME_DELAY: Yield until WaitTime reaches zero
 21: 0x0395 [0x00] END_REQSTACK()
```

### Event 65535.12

#### Metadata

| Field        | Value    |
|--------------|----------|
| Entrypoint   | 0x0396   |
| Data Size    | 15 bytes |
| Instructions | 5        |

```
      00 01 02 03 04 05 06 07  08 09 0A 0B 0C 0D 0E 0F
      -- -- -- -- -- -- -- --  -- -- -- -- -- -- -- --
0390:                   32 1B  80 1F 00 36 80 37 80 09        2....6.7..
03A0: 80 1F 01 6F 00                                    ...o.           
```

#### Opcodes

```
  0: 0x0396 [0x32] ExtData[1]->MainSpeed = 39* * 0.1
  1: 0x0399 [0x1F] MOVE_ENTITY: EventEntity moves to X=-49.108*, Z=2.357*, Y=0.000*
  2: 0x03A1 [0x1F] MOVE_ENTITY: Update entity position (mode=1)
  3: 0x03A3 [0x6F] WAIT_FRAME_DELAY: Yield until WaitTime reaches zero
  4: 0x03A4 [0x00] END_REQSTACK()
```

### Event 65535.13

#### Metadata

| Field        | Value    |
|--------------|----------|
| Entrypoint   | 0x03A5   |
| Data Size    | 15 bytes |
| Instructions | 5        |

```
      00 01 02 03 04 05 06 07  08 09 0A 0B 0C 0D 0E 0F
      -- -- -- -- -- -- -- --  -- -- -- -- -- -- -- --
03A0:                32 1E 80  1F 00 38 80 39 80 09 80       2....8.9...
03B0: 1F 01 6F 00                                       ..o.            
```

#### Opcodes

```
  0: 0x03A5 [0x32] ExtData[1]->MainSpeed = 41* * 0.1
  1: 0x03A8 [0x1F] MOVE_ENTITY: EventEntity moves to X=-51.734*, Z=2.879*, Y=0.000*
  2: 0x03B0 [0x1F] MOVE_ENTITY: Update entity position (mode=1)
  3: 0x03B2 [0x6F] WAIT_FRAME_DELAY: Yield until WaitTime reaches zero
  4: 0x03B3 [0x00] END_REQSTACK()
```

### Event 65535.14

#### Metadata

| Field        | Value    |
|--------------|----------|
| Entrypoint   | 0x03B4   |
| Data Size    | 15 bytes |
| Instructions | 5        |

```
      00 01 02 03 04 05 06 07  08 09 0A 0B 0C 0D 0E 0F
      -- -- -- -- -- -- -- --  -- -- -- -- -- -- -- --
03B0:             32 26 80 1F  00 3A 80 3B 80 09 80 1F      2&...:.;....
03C0: 01 6F 00                                          .o.             
```

#### Opcodes

```
  0: 0x03B4 [0x32] ExtData[1]->MainSpeed = 12* * 0.1
  1: 0x03B7 [0x1F] MOVE_ENTITY: EventEntity moves to X=-50.670*, Z=2.474*, Y=0.000*
  2: 0x03BF [0x1F] MOVE_ENTITY: Update entity position (mode=1)
  3: 0x03C1 [0x6F] WAIT_FRAME_DELAY: Yield until WaitTime reaches zero
  4: 0x03C2 [0x00] END_REQSTACK()
```

### Event 65535.15

#### Metadata

| Field        | Value    |
|--------------|----------|
| Entrypoint   | 0x03C3   |
| Data Size    | 80 bytes |
| Instructions | 13       |

```
      00 01 02 03 04 05 06 07  08 09 0A 0B 0C 0D 0E 0F
      -- -- -- -- -- -- -- --  -- -- -- -- -- -- -- --
03C0:          32 0D 80 1F 00  3C 80 3D 80 09 80 1F 01     2....<.=.....
03D0: 79 00 45 60 0F 01 42 60  0F 01 66 14 80 42 60 0F  y.E`..B`..f..B`.
03E0: 01 42 60 0F 01 74 68 6B  32 32 3E 80 4A 42 60 0F  .B`..thk22>.JB`.
03F0: 01 45 60 0F 01 1F 00 3F  80 40 80 09 80 1F 01 6F  .E`....?.@.....o
0400: 1C 14 80 66 09 80 45 60  0F 01 45 60 0F 01 74 6C  ...f..E`..E`..tl
0410: 6B 31 00                                          k1.             
```

#### Opcodes

```
  0: 0x03C3 [0x32] ExtData[1]->MainSpeed = 11* * 0.1
  1: 0x03C6 [0x1F] MOVE_ENTITY: EventEntity moves to X=-92.526*, Z=-2.418*, Y=0.000*
  2: 0x03CE [0x1F] MOVE_ENTITY: Update entity position (mode=1)
  3: 0x03D0 [0x79] Falak (ID: 17784901/0x010F6045) looks at Naurmaire (ID: 17784898/0x010F6042) (Basic look)
  4: 0x03DA [0x66] LOAD_EXT_SCHEDULER_MAIN: Load scheduler "thk2" with entities [Naurmaire (ID: 17784898/0x010F6042), Naurmaire (ID: 17784898/0x010F6042)], work=30*
  5: 0x03E9 [0x32] ExtData[1]->MainSpeed = 38* * 0.1
  6: 0x03EC [0x4A] Naurmaire (ID: 17784898/0x010F6042) looks at Falak (ID: 17784901/0x010F6045)
  7: 0x03F5 [0x1F] MOVE_ENTITY: EventEntity moves to X=-98.837*, Z=-2.640*, Y=0.000*
  8: 0x03FD [0x1F] MOVE_ENTITY: Update entity position (mode=1)
  9: 0x03FF [0x6F] WAIT_FRAME_DELAY: Yield until WaitTime reaches zero
 10: 0x0400 [0x1C] WAIT(30* ticks)
 11: 0x0403 [0x66] LOAD_EXT_SCHEDULER_MAIN: Load scheduler "tlk1" with entities [Falak (ID: 17784901/0x010F6045), Falak (ID: 17784901/0x010F6045)], work=0*
 12: 0x0412 [0x00] END_REQSTACK()
```

### Event 65535.16

#### Metadata

| Field        | Value    |
|--------------|----------|
| Entrypoint   | 0x0413   |
| Data Size    | 15 bytes |
| Instructions | 5        |

```
      00 01 02 03 04 05 06 07  08 09 0A 0B 0C 0D 0E 0F
      -- -- -- -- -- -- -- --  -- -- -- -- -- -- -- --
0410:          32 26 80 1F 00  41 80 42 80 09 80 1F 01     2&...A.B.....
0420: 6F 00                                             o.              
```

#### Opcodes

```
  0: 0x0413 [0x32] ExtData[1]->MainSpeed = 12* * 0.1
  1: 0x0416 [0x1F] MOVE_ENTITY: EventEntity moves to X=4.999*, Z=-0.799*, Y=0.000*
  2: 0x041E [0x1F] MOVE_ENTITY: Update entity position (mode=1)
  3: 0x0420 [0x6F] WAIT_FRAME_DELAY: Yield until WaitTime reaches zero
  4: 0x0421 [0x00] END_REQSTACK()
```

### Event 65535.17

#### Metadata

| Field        | Value    |
|--------------|----------|
| Entrypoint   | 0x0422   |
| Data Size    | 15 bytes |
| Instructions | 5        |

```
      00 01 02 03 04 05 06 07  08 09 0A 0B 0C 0D 0E 0F
      -- -- -- -- -- -- -- --  -- -- -- -- -- -- -- --
0420:       32 06 80 1F 00 43  80 44 80 09 80 1F 01 6F    2....C.D.....o
0430: 00                                                .               
```

#### Opcodes

```
  0: 0x0422 [0x32] ExtData[1]->MainSpeed = 13* * 0.1
  1: 0x0425 [0x1F] MOVE_ENTITY: EventEntity moves to X=-76.908*, Z=-2.465*, Y=0.000*
  2: 0x042D [0x1F] MOVE_ENTITY: Update entity position (mode=1)
  3: 0x042F [0x6F] WAIT_FRAME_DELAY: Yield until WaitTime reaches zero
  4: 0x0430 [0x00] END_REQSTACK()
```

### Event 65535.18

#### Metadata

| Field        | Value    |
|--------------|----------|
| Entrypoint   | 0x0431   |
| Data Size    | 15 bytes |
| Instructions | 5        |

```
      00 01 02 03 04 05 06 07  08 09 0A 0B 0C 0D 0E 0F
      -- -- -- -- -- -- -- --  -- -- -- -- -- -- -- --
0430:    32 0D 80 1F 00 45 80  46 80 09 80 1F 01 6F 00   2....E.F.....o.
```

#### Opcodes

```
  0: 0x0431 [0x32] ExtData[1]->MainSpeed = 11* * 0.1
  1: 0x0434 [0x1F] MOVE_ENTITY: EventEntity moves to X=-50.956*, Z=-2.015*, Y=0.000*
  2: 0x043C [0x1F] MOVE_ENTITY: Update entity position (mode=1)
  3: 0x043E [0x6F] WAIT_FRAME_DELAY: Yield until WaitTime reaches zero
  4: 0x043F [0x00] END_REQSTACK()
```

### Event 65535.19

#### Metadata

| Field        | Value    |
|--------------|----------|
| Entrypoint   | 0x0440   |
| Data Size    | 15 bytes |
| Instructions | 5        |

```
      00 01 02 03 04 05 06 07  08 09 0A 0B 0C 0D 0E 0F
      -- -- -- -- -- -- -- --  -- -- -- -- -- -- -- --
0440: 32 0D 80 1F 00 47 80 48  80 09 80 1F 01 6F 00     2....G.H.....o. 
```

#### Opcodes

```
  0: 0x0440 [0x32] ExtData[1]->MainSpeed = 11* * 0.1
  1: 0x0443 [0x1F] MOVE_ENTITY: EventEntity moves to X=-106.865*, Z=2.201*, Y=0.000*
  2: 0x044B [0x1F] MOVE_ENTITY: Update entity position (mode=1)
  3: 0x044D [0x6F] WAIT_FRAME_DELAY: Yield until WaitTime reaches zero
  4: 0x044E [0x00] END_REQSTACK()
```

### Event 65535.20

#### Metadata

| Field        | Value    |
|--------------|----------|
| Entrypoint   | 0x044F   |
| Data Size    | 15 bytes |
| Instructions | 5        |

```
      00 01 02 03 04 05 06 07  08 09 0A 0B 0C 0D 0E 0F
      -- -- -- -- -- -- -- --  -- -- -- -- -- -- -- --
0440:                                               32                 2
0450: 06 80 1F 00 49 80 4A 80  09 80 1F 01 6F 00        ....I.J.....o.  
```

#### Opcodes

```
  0: 0x044F [0x32] ExtData[1]->MainSpeed = 13* * 0.1
  1: 0x0452 [0x1F] MOVE_ENTITY: EventEntity moves to X=-36.731*, Z=-2.282*, Y=0.000*
  2: 0x045A [0x1F] MOVE_ENTITY: Update entity position (mode=1)
  3: 0x045C [0x6F] WAIT_FRAME_DELAY: Yield until WaitTime reaches zero
  4: 0x045D [0x00] END_REQSTACK()
```

### Event 65535.21

#### Metadata

| Field        | Value    |
|--------------|----------|
| Entrypoint   | 0x045E   |
| Data Size    | 53 bytes |
| Instructions | 10       |

```
      00 01 02 03 04 05 06 07  08 09 0A 0B 0C 0D 0E 0F
      -- -- -- -- -- -- -- --  -- -- -- -- -- -- -- --
0450:                                            32 06                2.
0460: 80 1F 00 4B 80 4C 80 09  80 1F 01 1F 00 4D 80 4E  ...K.L.......M.N
0470: 80 09 80 1F 01 6F 1C 17  80 79 00 49 60 0F 01 86  .....o...y.I`...
0480: 60 0F 01 5B 4F 80 86 60  0F 01 86 60 0F 01 74 6C  `..[O..`...`..tl
0490: 6B 30 00                                          k0.             
```

#### Opcodes

```
  0: 0x045E [0x32] ExtData[1]->MainSpeed = 13* * 0.1
  1: 0x0461 [0x1F] MOVE_ENTITY: EventEntity moves to X=-58.047*, Z=9.433*, Y=0.000*
  2: 0x0469 [0x1F] MOVE_ENTITY: Update entity position (mode=1)
  3: 0x046B [0x1F] MOVE_ENTITY: EventEntity moves to X=-56.466*, Z=10.018*, Y=0.000*
  4: 0x0473 [0x1F] MOVE_ENTITY: Update entity position (mode=1)
  5: 0x0475 [0x6F] WAIT_FRAME_DELAY: Yield until WaitTime reaches zero
  6: 0x0476 [0x1C] WAIT(15* ticks)
  7: 0x0479 [0x79] Shami (ID: 17784905/0x010F6049) looks at Squintrox Dryeyes (ID: 17784966/0x010F6086) (Basic look)
  8: 0x0483 [0x5B] LOAD_EXT_SCHEDULER: Load scheduler "tlk0" with entities [Squintrox Dryeyes (ID: 17784966/0x010F6086), Squintrox Dryeyes (ID: 17784966/0x010F6086)], work=215*
  9: 0x0492 [0x00] END_REQSTACK()
```

### Event 65535.22

#### Metadata

| Field        | Value    |
|--------------|----------|
| Entrypoint   | 0x0493   |
| Data Size    | 58 bytes |
| Instructions | 11       |

```
      00 01 02 03 04 05 06 07  08 09 0A 0B 0C 0D 0E 0F
      -- -- -- -- -- -- -- --  -- -- -- -- -- -- -- --
0490:          32 06 80 79 00  3E 60 0F 01 28 60 0F 01     2..y.>`..(`..
04A0: 1F 00 50 80 51 80 09 80  1F 01 6F 1C 17 80 4A 3E  ..P.Q.....o...J>
04B0: 60 0F 01 28 60 0F 01 6F  76 3E 60 0F 01 66 52 80  `..(`..ov>`..fR.
04C0: 3E 60 0F 01 3E 60 0F 01  74 6C 6B 30 00           >`..>`..tlk0.   
```

#### Opcodes

```
  0: 0x0493 [0x32] ExtData[1]->MainSpeed = 13* * 0.1
  1: 0x0496 [0x79] Leffquen (ID: 17784894/0x010F603E) looks at Ramicharaux (ID: 17784872/0x010F6028) (Basic look)
  2: 0x04A0 [0x1F] MOVE_ENTITY: EventEntity moves to X=-52.055*, Z=2.177*, Y=0.000*
  3: 0x04A8 [0x1F] MOVE_ENTITY: Update entity position (mode=1)
  4: 0x04AA [0x6F] WAIT_FRAME_DELAY: Yield until WaitTime reaches zero
  5: 0x04AB [0x1C] WAIT(15* ticks)
  6: 0x04AE [0x4A] Leffquen (ID: 17784894/0x010F603E) looks at Ramicharaux (ID: 17784872/0x010F6028)
  7: 0x04B7 [0x6F] WAIT_FRAME_DELAY: Yield until WaitTime reaches zero
  8: 0x04B8 [0x76] CHECK_ENTITY_RENDER_FLAGS: Wait until Leffquen (ID: 17784894/0x010F603E) Render.Flags0 and Render.Flags3 conditions are met
  9: 0x04BD [0x66] LOAD_EXT_SCHEDULER_MAIN: Load scheduler "tlk0" with entities [Leffquen (ID: 17784894/0x010F603E), Leffquen (ID: 17784894/0x010F603E)], work=19*
 10: 0x04CC [0x00] END_REQSTACK()
```
