# 17784977

## Common Data

| Field            | Value                |
|------------------|----------------------|
| Zone             | Port Jeuno (ID: 246) |
| Block Size       | 10176 bytes          |
| Total Events     | 8                    |
| References Count | 236                  |

## List of Events

| Event ID              | Entrypoint   |   Size |   Instructions |
|-----------------------|--------------|--------|----------------|
| [65535](#event-65535) | 0x0000       |      1 |              1 |
| [324](#event-324)     | 0x0001       |   3108 |            360 |
| [325](#event-325)     | 0x0C25       |   1270 |            156 |
| [326](#event-326)     | 0x111B       |    240 |             44 |
| [327](#event-327)     | 0x120B       |   1719 |            219 |
| [328](#event-328)     | 0x18C2       |    831 |            154 |
| [331](#event-331)     | 0x1C01       |    525 |             74 |
| [332](#event-332)     | 0x1E0E       |   1489 |            168 |

## DAT References (imed_data)

|   Index | Hex Value   |   Dec Value |
|---------|-------------|-------------|
|       0 | 0x00DB      |         219 |
|       1 | 0x0000      |           0 |
|       2 | 0x0013      |          19 |
|       3 | 0x2532      |        9522 |
|       4 | 0x2533      |        9523 |
|       5 | 0x0001      |           1 |
|       6 | 0x00F6      |         246 |
|       7 | 0x001E      |          30 |
|       8 | 0x0009      |           9 |
|       9 | 0xFFFDA4F2  |  4294812914 |
|      10 | 0x18E2      |        6370 |
|      11 | 0x2534      |        9524 |
|      12 | 0x00A0      |         160 |
|      13 | 0x20CC      |        8396 |
|      14 | 0xFFFF23C2  |  4294910914 |
|      15 | 0x00F7      |         247 |
|      16 | 0x0800      |        2048 |
|      17 | 0xFFFED196  |  4294889878 |
|      18 | 0x1A7B      |        6779 |
|      19 | 0x0D10      |        3344 |
|      20 | 0xFFFF47C6  |  4294920134 |
|      21 | 0x0898      |        2200 |
|      22 | 0xFFFE5884  |  4294858884 |
|      23 | 0xFFFFF8F1  |  4294965489 |
|      24 | 0x0FFF      |        4095 |
|      25 | 0xFFFE94BC  |  4294874300 |
|      26 | 0xFFFFF4B3  |  4294964403 |
|      27 | 0x07CD      |        1997 |
|      28 | 0xFFFFFEBC  |  4294966972 |
|      29 | 0x0089      |         137 |
|      30 | 0xFFFF3D03  |  4294917379 |
|      31 | 0x001C      |          28 |
|      32 | 0x0014      |          20 |
|      33 | 0x006E      |         110 |
|      34 | 0x01E8      |         488 |
|      35 | 0x00F0      |         240 |
|      36 | 0x012C      |         300 |
|      37 | 0xFFFEDC1E  |  4294892574 |
|      38 | 0x0C8D      |        3213 |
|      39 | 0x001F      |          31 |
|      40 | 0xFFFECF19  |  4294889241 |
|      41 | 0x0ED4      |        3796 |
|      42 | 0x0030      |          48 |
|      43 | 0xFFFEC764  |  4294887268 |
|      44 | 0x0893      |        2195 |
|      45 | 0x0027      |          39 |
|      46 | 0xFFFEFED0  |  4294901456 |
|      47 | 0xFFFFFB75  |  4294966133 |
|      48 | 0x0033      |          51 |
|      49 | 0x0008      |           8 |
|      50 | 0x003C      |          60 |
|      51 | 0x0400      |        1024 |
|      52 | 0x0078      |         120 |
|      53 | 0x0090      |         144 |
|      54 | 0x0032      |          50 |
|      55 | 0x00B4      |         180 |
|      56 | 0x0002      |           2 |
|      57 | 0x0003      |           3 |
|      58 | 0x0004      |           4 |
|      59 | 0x0005      |           5 |
|      60 | 0x0006      |           6 |
|      61 | 0x0007      |           7 |
|      62 | 0x0091      |         145 |
|      63 | 0x00D2      |         210 |
|      64 | 0x0096      |         150 |
|      65 | 0xFFFF1AFF  |  4294908671 |
|      66 | 0xFFFFFB33  |  4294966067 |
|      67 | 0x0A64      |        2660 |
|      68 | 0xFFFEEDF0  |  4294897136 |
|      69 | 0xFFFFF578  |  4294964600 |
|      70 | 0x0F57      |        3927 |
|      71 | 0xFFFEFC36  |  4294900790 |
|      72 | 0xFFFFFB46  |  4294966086 |
|      73 | 0x0F9A      |        3994 |
|      74 | 0xFFFF1165  |  4294906213 |
|      75 | 0xFFFFEC2D  |  4294962221 |
|      76 | 0x0CA9      |        3241 |
|      77 | 0xFFFF0D2C  |  4294905132 |
|      78 | 0xFFFFEA16  |  4294961686 |
|      79 | 0x0C87      |        3207 |
|      80 | 0xFFFF11F9  |  4294906361 |
|      81 | 0xFFFFE90E  |  4294961422 |
|      82 | 0x0C28      |        3112 |
|      83 | 0xFFFEE72D  |  4294895405 |
|      84 | 0x1401      |        5121 |
|      85 | 0x01E2      |         482 |
|      86 | 0xFFFF34B9  |  4294915257 |
|      87 | 0x0868      |        2152 |
|      88 | 0x0730      |        1840 |
|      89 | 0xFFFF483D  |  4294920253 |
|      90 | 0xFFFFFACF  |  4294965967 |
|      91 | 0x0C7E      |        3198 |
|      92 | 0xFFFF3A81  |  4294916737 |
|      93 | 0xFFFFF123  |  4294963491 |
|      94 | 0x088E      |        2190 |
|      95 | 0xFFFF5194  |  4294922644 |
|      96 | 0xFFFFF87D  |  4294965373 |
|      97 | 0x0896      |        2198 |
|      98 | 0x000A      |          10 |
|      99 | 0x0A16      |        2582 |
|     100 | 0x0A18      |        2584 |
|     101 | 0x20CD      |        8397 |
|     102 | 0x20CE      |        8398 |
|     103 | 0x20CF      |        8399 |
|     104 | 0x005A      |          90 |
|     105 | 0x20D0      |        8400 |
|     106 | 0x20D1      |        8401 |
|     107 | 0x20D2      |        8402 |
|     108 | 0xFFFE880F  |  4294871055 |
|     109 | 0x22A8      |        8872 |
|     110 | 0x0440      |        1088 |
|     111 | 0xFFFEEB06  |  4294896390 |
|     112 | 0x08A3      |        2211 |
|     113 | 0x20D3      |        8403 |
|     114 | 0xFFFF39A5  |  4294916517 |
|     115 | 0xFFFFF3CE  |  4294964174 |
|     116 | 0x20D4      |        8404 |
|     117 | 0x20D5      |        8405 |
|     118 | 0xFFFF42E8  |  4294918888 |
|     119 | 0x099B      |        2459 |
|     120 | 0x0C0B      |        3083 |
|     121 | 0x20D6      |        8406 |
|     122 | 0xFFFF97D7  |  4294940631 |
|     123 | 0xFFFFF76D  |  4294965101 |
|     124 | 0x20D7      |        8407 |
|     125 | 0x00C8      |         200 |
|     126 | 0xFFFF2F55  |  4294913877 |
|     127 | 0xFFFFE065  |  4294959205 |
|     128 | 0x0333      |         819 |
|     129 | 0x20DC      |        8412 |
|     130 | 0x20DD      |        8413 |
|     131 | 0x20DE      |        8414 |
|     132 | 0x20DF      |        8415 |
|     133 | 0x20E0      |        8416 |
|     134 | 0x20E1      |        8417 |
|     135 | 0x20E2      |        8418 |
|     136 | 0x20E3      |        8419 |
|     137 | 0x0047      |          71 |
|     138 | 0x20E4      |        8420 |
|     139 | 0x04F7      |        1271 |
|     140 | 0x20E5      |        8421 |
|     141 | 0x20E6      |        8422 |
|     142 | 0x20E7      |        8423 |
|     143 | 0x20E8      |        8424 |
|     144 | 0x20E9      |        8425 |
|     145 | 0x20EA      |        8426 |
|     146 | 0x20EB      |        8427 |
|     147 | 0x20EC      |        8428 |
|     148 | 0x20ED      |        8429 |
|     149 | 0x0510      |        1296 |
|     150 | 0x20EE      |        8430 |
|     151 | 0x20EF      |        8431 |
|     152 | 0x20F0      |        8432 |
|     153 | 0x20F1      |        8433 |
|     154 | 0x20F2      |        8434 |
|     155 | 0x20F6      |        8438 |
|     156 | 0x20F4      |        8436 |
|     157 | 0x20F5      |        8437 |
|     158 | 0x20F3      |        8435 |
|     159 | 0xFFFF30BC  |  4294914236 |
|     160 | 0xFFFFDBD2  |  4294958034 |
|     161 | 0x033F      |         831 |
|     162 | 0x0015      |          21 |
|     163 | 0x20F7      |        8439 |
|     164 | 0x20F8      |        8440 |
|     165 | 0x20F9      |        8441 |
|     166 | 0x007F      |         127 |
|     167 | 0x002D      |          45 |
|     168 | 0x20FA      |        8442 |
|     169 | 0xFFFF3356  |  4294914902 |
|     170 | 0xFFFFDDD9  |  4294958553 |
|     171 | 0xFFFFF831  |  4294965297 |
|     172 | 0x20FB      |        8443 |
|     173 | 0x0064      |         100 |
|     174 | 0x20FC      |        8444 |
|     175 | 0x20FD      |        8445 |
|     176 | 0x20FE      |        8446 |
|     177 | 0x0024      |          36 |
|     178 | 0x20FF      |        8447 |
|     179 | 0x2100      |        8448 |
|     180 | 0x2101      |        8449 |
|     181 | 0x2102      |        8450 |
|     182 | 0x2103      |        8451 |
|     183 | 0x2104      |        8452 |
|     184 | 0xFFFF2DC8  |  4294913480 |
|     185 | 0xFFFFD853  |  4294957139 |
|     186 | 0x2105      |        8453 |
|     187 | 0x2106      |        8454 |
|     188 | 0x2107      |        8455 |
|     189 | 0x2108      |        8456 |
|     190 | 0x2109      |        8457 |
|     191 | 0x0010      |          16 |
|     192 | 0x210A      |        8458 |
|     193 | 0x2111      |        8465 |
|     194 | 0x2114      |        8468 |
|     195 | 0x0020      |          32 |
|     196 | 0x2112      |        8466 |
|     197 | 0x0023      |          35 |
|     198 | 0x2113      |        8467 |
|     199 | 0x211C      |        8476 |
|     200 | 0x210E      |        8462 |
|     201 | 0x210F      |        8463 |
|     202 | 0x2110      |        8464 |
|     203 | 0x211D      |        8477 |
|     204 | 0x210C      |        8460 |
|     205 | 0x210D      |        8461 |
|     206 | 0x2115      |        8469 |
|     207 | 0x2116      |        8470 |
|     208 | 0x2117      |        8471 |
|     209 | 0x2118      |        8472 |
|     210 | 0x2119      |        8473 |
|     211 | 0x211A      |        8474 |
|     212 | 0x211B      |        8475 |
|     213 | 0x210B      |        8459 |
|     214 | 0xFFFF3035  |  4294914101 |
|     215 | 0xFFFFCC16  |  4294954006 |
|     216 | 0x2120      |        8480 |
|     217 | 0x2121      |        8481 |
|     218 | 0x2122      |        8482 |
|     219 | 0x2123      |        8483 |
|     220 | 0x2124      |        8484 |
|     221 | 0x2125      |        8485 |
|     222 | 0x0019      |          25 |
|     223 | 0x2126      |        8486 |
|     224 | 0x2127      |        8487 |
|     225 | 0x2128      |        8488 |
|     226 | 0x2129      |        8489 |
|     227 | 0x212A      |        8490 |
|     228 | 0x212B      |        8491 |
|     229 | 0xFFFF30C4  |  4294914244 |
|     230 | 0xFFFFDC4C  |  4294958156 |
|     231 | 0x212C      |        8492 |
|     232 | 0x212D      |        8493 |
|     233 | 0x212E      |        8494 |
|     234 | 0x00C9      |         201 |
|     235 | 0x00D7      |         215 |

## String References

- **8396**: @@
- **8434**: What do you want to know? [I want $6./About the cavernous maws./Nothing.]
- **8446**: Be their glimmer of hope? [You betcha!/Uhrrrm...all right.]
- **8458**: What would like to ask about? [I want $6./Learn about $5./Current $3 stock./Cavernous maw locations./Teleporting to a cavernous maw./Nothing right now.]
- **9522**: You are now able to enjoy a new storyline, Abyssea.
- **9523**: Start Abyssea? [Yes (View cutscene)./Maybe later.]
- **9524**: Examine the Tales' Beginning in Port Jeuno (F-8) when you wish to start Abyssea.

## Events

### Event 65535

#### Metadata

| Field        | Value   |
|--------------|---------|
| Entrypoint   | 0x0000  |
| Data Size    | 1 bytes |
| Instructions | 1       |

```
      00 01 02 03 04 05 06 07  08 09 0A 0B 0C 0D 0E 0F
      -- -- -- -- -- -- -- --  -- -- -- -- -- -- -- --
0000: 00                                                .               
```

#### Opcodes

```
  0: 0x0000 [0x00] END_REQSTACK()
```

### Event 324

#### Metadata

| Field        | Value      |
|--------------|------------|
| Entrypoint   | 0x0001     |
| Data Size    | 3108 bytes |
| Instructions | 359        |

```
      00 01 02 03 04 05 06 07  08 09 0A 0B 0C 0D 0E 0F
      -- -- -- -- -- -- -- --  -- -- -- -- -- -- -- --
0000:    42 9F 00 80 F0 FF FF  7F F0 FF FF 7F 6B 69 6C   B...........kil
0010: 6C 01 80 1A B1 21 46 01  38 02 80 4E 00 F0 FF FF  l....!F.8..N....
0020: 7F 43 00 43 01 03 08 00  04 10 02 05 10 01 80 00  .C.C............
0030: A1 00 48 03 80 24 04 80  05 80 01 80 25 02 00 10  ..H..$......%...
0040: 01 80 00 4D 00 03 01 10  05 80 01 A1 00 02 00 10  ...M............
0050: 05 80 00 A1 00 03 01 10  01 80 02 08 00 05 80 00  ................
0060: 85 00 8D 06 80 05 80 1C  07 80 B8 06 80 01 80 08  ................
0070: 80 09 80 0A 80 54 61 6C  65 73 27 42 65 67 69 6E  .....Tales'Begin
0080: 6E 69 6E 67 00 48 0B 80  23 1C 0C 80 02 08 00 05  ning.H..#.......
0090: 80 00 95 00 8A 1C 07 80  48 0D 80 01 07 0C 01 A1  ........H.......
00A0: 00 4E 00 90 60 0F 01 92  01 94 60 0F 01 94 01 F0  .N..`.....`.....
00B0: FF FF 7F 94 01 90 60 0F  01 94 01 94 60 0F 01 BA  ......`.....`...
00C0: F0 FF FF 7F 0E 80 0F 80  01 80 10 80 BA 28 60 0F  .............(`.
00D0: 01 11 80 12 80 01 80 13  80 BA 3E 60 0F 01 14 80  ..........>`....
00E0: 15 80 01 80 05 80 BA 43  60 0F 01 16 80 17 80 01  .......C`.......
00F0: 80 18 80 BA 45 60 0F 01  19 80 1A 80 01 80 1B 80  ....E`..........
0100: 59 05 90 60 0F 01 01 BA  90 60 0F 01 1C 80 1D 80  Y..`.....`......
0110: 1E 80 1F 80 80 F0 FF FF  7F 80 90 60 0F 01 80 94  ...........`....
0120: 60 0F 01 1C 07 80 66 20  80 28 60 0F 01 28 60 0F  `.....f .(`..(`.
0130: 01 74 6C 6B 30 5C 00 21  80 5C 01 21 80 9A 45 22  .tlk0\.!.\.!..E"
0140: 80 F0 FF FF 7F F0 FF FF  7F 61 6F 70 31 01 80 1A  .........aop1...
0150: 90 21 4A 05 60 0F 01 06  60 0F 01 27 10 06 60 0F  .!J.`...`..'..`.
0160: 01 1B 1C 23 80 27 10 45  60 0F 01 26 27 10 44 60  ...#.'.E`..&'.D`
0170: 0F 01 1F 1C 24 80 27 10  F0 FF FF 7F 2A 52 22 80  ....$.'.....*R".
0180: F0 FF FF 7F F0 FF FF 7F  61 6F 70 30 45 22 80 F0  ........aop0E"..
0190: FF FF 7F F0 FF FF 7F 61  31 31 30 01 80 7A 00 04  .......a110..z..
01A0: 60 0F 01 7A 00 05 60 0F  01 7A 00 06 60 0F 01 BA  `..z..`..z..`...
01B0: 04 60 0F 01 25 80 26 80  01 80 27 80 BA 05 60 0F  .`..%.&...'...`.
01C0: 01 28 80 29 80 01 80 2A  80 BA 06 60 0F 01 2B 80  .(.)...*...`..+.
01D0: 2C 80 01 80 2D 80 BA 01  60 0F 01 2E 80 2F 80 01  ,...-...`..../..
01E0: 80 05 80 2A 10 F0 FF FF  7F 5C 00 30 80 5C 01 30  ...*.....\.0.\.0
01F0: 80 9A CD 31 80 F0 FF FF  7F F0 FF FF 7F 73 30 30  ...1.........s00
0200: 32 01 80 27 10 43 60 0F  01 24 27 10 01 60 0F 01  2..'.C`..$'..`..
0210: 25 27 10 06 60 0F 01 23  1C 32 80 AB 09 27 10 90  %'..`..#.2...'..
0220: 60 0F 01 06 45 22 80 F0  FF FF 7F F0 FF FF 7F 73  `...E".........s
0230: 65 30 30 01 80 52 22 80  F0 FF FF 7F F0 FF FF 7F  e00..R".........
0240: 61 31 31 30 45 22 80 F0  FF FF 7F F0 FF FF 7F 61  a110E".........a
0250: 31 31 31 01 80 79 02 F0  FF FF 7F 01 80 33 80 1C  111..y.......3..
0260: 34 80 7B F0 FF FF 7F 27  10 3E 60 0F 01 25 1C 34  4.{....'.>`..%.4
0270: 80 52 22 80 F0 FF FF 7F  F0 FF FF 7F 61 31 31 31  .R".........a111
0280: 45 22 80 F0 FF FF 7F F0  FF FF 7F 61 31 31 32 01  E".........a112.
0290: 80 9F 35 80 90 60 0F 01  90 60 0F 01 6D 61 69 31  ..5..`...`..mai1
02A0: 01 80 59 01 F0 FF FF 7F  36 80 4A F0 FF FF 7F 90  ..Y.....6.J.....
02B0: 60 0F 01 6F 76 F0 FF FF  7F 1C 32 80 52 22 80 F0  `..ov.....2.R"..
02C0: FF FF 7F F0 FF FF 7F 61  31 31 32 45 22 80 F0 FF  .......a112E"...
02D0: FF 7F F0 FF FF 7F 61 31  31 33 01 80 45 22 80 90  ......a113..E"..
02E0: 60 0F 01 90 60 0F 01 30  70 72 6F 01 80 1C 37 80  `...`..0pro...7.
02F0: 7B F0 FF FF 7F 27 10 F0  FF FF 7F 29 1C 37 80 52  {....'.....).7.R
0300: 22 80 F0 FF FF 7F F0 FF  FF 7F 61 31 31 33 29 10  ".........a113).
0310: F0 FF FF 7F 20 02 02 10  05 80 80 31 03 45 22 80  .... ......1.E".
0320: F0 FF FF 7F F0 FF FF 7F  61 31 68 6D 01 80 01 F5  ........a1hm....
0330: 03 02 02 10 38 80 80 4D  03 45 22 80 F0 FF FF 7F  ....8..M.E".....
0340: F0 FF FF 7F 61 31 68 66  01 80 01 F5 03 02 02 10  ....a1hf........
0350: 39 80 80 69 03 45 22 80  F0 FF FF 7F F0 FF FF 7F  9..i.E".........
0360: 61 31 65 6D 01 80 01 F5  03 02 02 10 3A 80 80 85  a1em........:...
0370: 03 45 22 80 F0 FF FF 7F  F0 FF FF 7F 61 31 65 66  .E".........a1ef
0380: 01 80 01 F5 03 02 02 10  3B 80 80 A1 03 45 22 80  ........;....E".
0390: F0 FF FF 7F F0 FF FF 7F  61 31 74 72 01 80 01 F5  ........a1tr....
03A0: 03 02 02 10 3C 80 80 BD  03 45 22 80 F0 FF FF 7F  ....<....E".....
03B0: F0 FF FF 7F 61 31 74 72  01 80 01 F5 03 02 02 10  ....a1tr........
03C0: 3D 80 80 D9 03 45 22 80  F0 FF FF 7F F0 FF FF 7F  =....E".........
03D0: 61 31 6D 74 01 80 01 F5  03 02 02 10 31 80 80 F5  a1mt........1...
03E0: 03 45 22 80 F0 FF FF 7F  F0 FF FF 7F 61 31 67 6C  .E".........a1gl
03F0: 01 80 01 F5 03 45 22 80  F0 FF FF 7F F0 FF FF 7F  .....E".........
0400: 30 64 6B 6E 01 80 9F 35  80 90 60 0F 01 90 60 0F  0dkn...5..`...`.
0410: 01 6D 61 69 32 01 80 1C  37 80 52 22 80 F0 FF FF  .mai2...7.R"....
0420: 7F F0 FF FF 7F 61 31 68  6D 52 22 80 F0 FF FF 7F  .....a1hmR".....
0430: F0 FF FF 7F 61 31 68 66  52 22 80 F0 FF FF 7F F0  ....a1hfR"......
0440: FF FF 7F 61 31 65 6D 52  22 80 F0 FF FF 7F F0 FF  ...a1emR".......
0450: FF 7F 61 31 65 66 52 22  80 F0 FF FF 7F F0 FF FF  ..a1efR"........
0460: 7F 61 31 74 72 52 22 80  F0 FF FF 7F F0 FF FF 7F  .a1trR".........
0470: 61 31 6D 74 52 22 80 F0  FF FF 7F F0 FF FF 7F 61  a1mtR".........a
0480: 31 67 6C 45 22 80 F0 FF  FF 7F F0 FF FF 7F 61 31  1glE".........a1
0490: 32 30 01 80 1C 37 80 45  22 80 90 60 0F 01 90 60  20...7.E"..`...`
04A0: 0F 01 6B 70 72 6F 01 80  1C 23 80 52 22 80 F0 FF  ..kpro...#.R"...
04B0: FF 7F F0 FF FF 7F 61 31  32 30 45 22 80 F0 FF FF  ......a120E"....
04C0: 7F F0 FF FF 7F 61 31 31  36 01 80 9F 3E 80 F8 FF  .....a116...>...
04D0: FF 7F F8 FF FF 7F 66 61  6C 6C 01 80 45 22 80 90  ......fall..E"..
04E0: 60 0F 01 90 60 0F 01 30  72 61 6B 01 80 1C 3F 80  `...`..0rak...?.
04F0: 52 22 80 F0 FF FF 7F F0  FF FF 7F 61 31 31 36 45  R".........a116E
0500: 22 80 F0 FF FF 7F F0 FF  FF 7F 61 31 31 37 01 80  ".........a117..
0510: 9F 3E 80 F8 FF FF 7F F8  FF FF 7F 66 61 6C 6C 01  .>.........fall.
0520: 80 45 22 80 90 60 0F 01  90 60 0F 01 30 72 61 6B  .E"..`...`..0rak
0530: 01 80 1C 40 80 9F 35 80  90 60 0F 01 90 60 0F 01  ...@..5..`...`..
0540: 73 74 6F 70 01 80 1C 40  80 1A F3 21 5D 01 80 34  stop...@...!]..4
0550: 80 7A 00 44 60 0F 01 7A  00 45 60 0F 01 7A 00 3E  .z.D`..z.E`..z.>
0560: 60 0F 01 7A 00 43 60 0F  01 7A 00 01 60 0F 01 7A  `..z.C`..z..`..z
0570: 00 04 60 0F 01 7A 00 05  60 0F 01 7A 00 06 60 0F  ..`..z..`..z..`.
0580: 01 1C 07 80 45 22 80 90  60 0F 01 90 60 0F 01 6B  ....E"..`...`..k
0590: 72 61 6B 01 80 45 22 80  F0 FF FF 7F F0 FF FF 7F  rak..E".........
05A0: 6B 65 30 30 01 80 CD 31  80 F0 FF FF 7F F0 FF FF  ke00...1........
05B0: 7F 6B 69 6C 32 01 80 2C  F0 FF FF 7F F0 FF FF 7F  .kil2..,........
05C0: 63 6F 72 70 BA 94 60 0F  01 41 80 42 80 01 80 43  corp..`..A.B...C
05D0: 80 BA 3F 60 0F 01 44 80  45 80 01 80 46 80 BA 44  ..?`..D.E...F..D
05E0: 60 0F 01 47 80 48 80 01  80 49 80 BA 04 60 0F 01  `..G.H...I...`..
05F0: 4A 80 4B 80 01 80 4C 80  BA 05 60 0F 01 4D 80 4E  J.K...L...`..M.N
0600: 80 01 80 4F 80 BA 06 60  0F 01 50 80 51 80 01 80  ...O...`..P.Q...
0610: 52 80 BA 86 60 0F 01 53  80 54 80 01 80 55 80 BA  R...`..S.T...U..
0620: 28 60 0F 01 56 80 57 80  01 80 58 80 BA 45 60 0F  (`..V.W...X..E`.
0630: 01 59 80 5A 80 01 80 5B  80 BA 01 60 0F 01 59 80  .Y.Z...[...`..Y.
0640: 5A 80 01 80 5B 80 BA 42  60 0F 01 5C 80 5D 80 01  Z...[..B`..\.]..
0650: 80 5E 80 BA 43 60 0F 01  5F 80 60 80 01 80 61 80  .^..C`.._.`...a.
0660: 66 62 80 3F 60 0F 01 3F  60 0F 01 74 68 6B 31 5B  fb.?`..?`..thk1[
0670: 63 80 45 60 0F 01 45 60  0F 01 6F 70 61 30 5B 64  c.E`..E`..opa0[d
0680: 80 01 60 0F 01 01 60 0F  01 6F 70 61 30 66 20 80  ..`...`..opa0f .
0690: 28 60 0F 01 28 60 0F 01  74 68 6B 31 29 10 94 60  (`..(`..thk1)..`
06A0: 0F 01 14 1A B1 21 1A D2  21 78 1C 05 80 AB 0A 9F  .....!..!x......
06B0: 00 80 F0 FF FF 7F F0 FF  FF 7F 62 6C 30 30 01 80  ..........bl00..
06C0: 48 0D 80 23 29 10 94 60  0F 01 16 2B 94 60 0F 01  H..#)..`...+.`..
06D0: 65 80 52 22 80 F0 FF FF  7F F0 FF FF 7F 61 31 31  e.R".........a11
06E0: 37 45 22 80 F0 FF FF 7F  F0 FF FF 7F 61 31 31 39  7E".........a119
06F0: 01 80 1A 90 21 9F 00 80  F0 FF FF 7F F0 FF FF 7F  ....!...........
0700: 6F 70 65 6E 01 80 1C 37  80 9F 00 80 F0 FF FF 7F  open...7........
0710: F0 FF FF 7F 63 6C 6F 73  01 80 1C 37 80 2B 94 60  ....clos...7.+.`
0720: 0F 01 66 80 1C 32 80 1A  B1 21 1C 07 80 29 10 F0  ..f..2...!...)..
0730: FF FF 7F 22 9F 00 80 F0  FF FF 7F F0 FF FF 7F 6B  ..."...........k
0740: 69 6C 6C 01 80 52 22 80  F0 FF FF 7F F0 FF FF 7F  ill..R".........
0750: 61 31 31 39 45 22 80 F0  FF FF 7F F0 FF FF 7F 61  a119E".........a
0760: 31 32 31 01 80 48 0D 80  23 1A 90 21 2B 94 60 0F  121..H..#..!+.`.
0770: 01 67 80 23 79 00 F0 FF  FF 7F 94 60 0F 01 1C 68  .g.#y......`...h
0780: 80 52 22 80 F0 FF FF 7F  F0 FF FF 7F 61 31 32 31  .R".........a121
0790: 45 22 80 F0 FF FF 7F F0  FF FF 7F 61 31 32 32 01  E".........a122.
07A0: 80 2B 94 60 0F 01 69 80  23 5C 00 21 80 5C 01 21  .+.`..i.#\.!.\.!
07B0: 80 9A 52 22 80 F0 FF FF  7F F0 FF FF 7F 61 31 32  ..R".........a12
07C0: 32 45 22 80 F0 FF FF 7F  F0 FF FF 7F 61 31 32 33  2E".........a123
07D0: 01 80 66 20 80 28 60 0F  01 28 60 0F 01 74 68 6B  ..f .(`..(`..thk
07E0: 32 1C 07 80 2B 94 60 0F  01 6A 80 79 00 94 60 0F  2...+.`..j.y..`.
07F0: 01 F0 FF FF 7F 29 10 94  60 0F 01 15 23 27 10 86  .....)..`...#'..
0800: 60 0F 01 19 52 22 80 F0  FF FF 7F F0 FF FF 7F 61  `...R".........a
0810: 31 32 33 45 22 80 F0 FF  FF 7F F0 FF FF 7F 61 31  123E".........a1
0820: 32 37 01 80 79 00 F0 FF  FF 7F F0 FF FF 7F 1C 34  27..y..........4
0830: 80 52 22 80 F0 FF FF 7F  F0 FF FF 7F 61 31 32 37  .R".........a127
0840: 45 22 80 F0 FF FF 7F F0  FF FF 7F 61 31 32 34 01  E".........a124.
0850: 80 27 10 28 60 0F 01 13  1C 34 80 27 10 44 60 0F  .'.(`....4.'.D`.
0860: 01 1B 1C 32 80 27 10 F0  FF FF 7F 23 52 22 80 F0  ...2.'.....#R"..
0870: FF FF 7F F0 FF FF 7F 61  31 32 34 45 22 80 F0 FF  .......a124E"...
0880: FF 7F F0 FF FF 7F 61 31  32 35 01 80 27 10 06 60  ......a125..'..`
0890: 0F 01 1B 1C 23 80 52 22  80 F0 FF FF 7F F0 FF FF  ....#.R"........
08A0: 7F 61 31 32 35 45 22 80  F0 FF FF 7F F0 FF FF 7F  .a125E".........
08B0: 61 31 32 36 01 80 27 10  43 60 0F 01 15 1C 32 80  a126..'.C`....2.
08C0: 66 08 80 94 60 0F 01 94  60 0F 01 74 77 62 30 2B  f...`...`..twb0+
08D0: 94 60 0F 01 6B 80 23 4A  F0 FF FF 7F 94 60 0F 01  .`..k.#J.....`..
08E0: 6F 76 F0 FF FF 7F 27 10  42 60 0F 01 1A 29 10 F0  ov....'.B`...)..
08F0: FF FF 7F 28 7A 00 04 60  0F 01 7A 00 05 60 0F 01  ...(z..`..z..`..
0900: 7A 00 06 60 0F 01 7A 00  44 60 0F 01 BA 44 60 0F  z..`..z.D`...D`.
0910: 01 6C 80 6D 80 01 80 6E  80 BA 3E 60 0F 01 6F 80  .l.m...n..>`..o.
0920: 70 80 01 80 05 80 BA 04  60 0F 01 25 80 26 80 01  p.......`..%.&..
0930: 80 27 80 BA 05 60 0F 01  28 80 29 80 01 80 2A 80  .'...`..(.)...*.
0940: BA 06 60 0F 01 2B 80 2C  80 01 80 2D 80 52 22 80  ..`..+.,...-.R".
0950: F0 FF FF 7F F0 FF FF 7F  61 31 32 36 45 22 80 F0  ........a126E"..
0960: FF FF 7F F0 FF FF 7F 61  31 32 38 01 80 29 10 94  .......a128..)..
0970: 60 0F 01 17 66 08 80 94  60 0F 01 94 60 0F 01 74  `...f...`...`..t
0980: 77 62 31 27 10 3F 60 0F  01 1B 2B 94 60 0F 01 71  wb1'.?`...+.`..q
0990: 80 23 53 94 60 0F 01 94  60 0F 01 74 77 62 31 52  .#S.`...`..twb1R
09A0: 22 80 F0 FF FF 7F F0 FF  FF 7F 61 31 32 38 45 22  ".........a128E"
09B0: 80 F0 FF FF 7F F0 FF FF  7F 61 31 32 39 01 80 7B  .........a129..{
09C0: 94 60 0F 01 27 10 94 60  0F 01 18 1C 68 80 27 10  .`..'..`....h.'.
09D0: 44 60 0F 01 1F 27 10 86  60 0F 01 27 6E F0 FF FF  D`...'..`..'n...
09E0: 7F 3C 80 99 F0 FF FF 7F  1C 34 80 52 22 80 F0 FF  .<.......4.R"...
09F0: FF 7F F0 FF FF 7F 61 31  32 39 45 22 80 F0 FF FF  ......a129E"....
0A00: 7F F0 FF FF 7F 61 31 33  30 01 80 29 10 F0 FF FF  .....a130..)....
0A10: 7F 2B 7A 00 43 60 0F 01  1C 07 80 6B 69 64 6C 30  .+z.C`.....kidl0
0A20: 45 60 0F 01 6B 69 64 6C  30 01 60 0F 01 BA 45 60  E`..kidl0.`...E`
0A30: 0F 01 72 80 73 80 01 80  18 80 79 00 F0 FF FF 7F  ..r.s.....y.....
0A40: 90 60 0F 01 27 10 45 60  0F 01 21 27 10 01 60 0F  .`..'.E`..!'..`.
0A50: 01 23 1C 34 80 2A 10 94  60 0F 01 2B 94 60 0F 01  .#.4.*..`..+.`..
0A60: 74 80 23 27 10 3E 60 0F  01 28 27 10 06 60 0F 01  t.#'.>`..('..`..
0A70: 23 4A F0 FF FF 7F 94 60  0F 01 52 22 80 F0 FF FF  #J.....`..R"....
0A80: 7F F0 FF FF 7F 61 31 33  30 45 22 80 F0 FF FF 7F  .....a130E".....
0A90: F0 FF FF 7F 61 31 33 31  01 80 6F 76 F0 FF FF 7F  ....a131..ov....
0AA0: 1C 34 80 52 22 80 F0 FF  FF 7F F0 FF FF 7F 61 31  .4.R".........a1
0AB0: 33 31 45 22 80 F0 FF FF  7F F0 FF FF 7F 61 31 33  31E".........a13
0AC0: 32 01 80 2B 94 60 0F 01  75 80 23 BA 3F 60 0F 01  2..+.`..u.#.?`..
0AD0: 76 80 77 80 01 80 78 80  66 62 80 3F 60 0F 01 3F  v.w...x.fb.?`..?
0AE0: 60 0F 01 74 68 6B 31 79  00 28 60 0F 01 3F 60 0F  `..thk1y.(`..?`.
0AF0: 01 66 20 80 28 60 0F 01  28 60 0F 01 74 6C 6B 30  .f .(`..(`..tlk0
0B00: 7A 00 04 60 0F 01 7A 00  05 60 0F 01 7A 00 06 60  z..`..z..`..z..`
0B10: 0F 01 1C 62 80 BA 04 60  0F 01 4A 80 4B 80 01 80  ...b...`..J.K...
0B20: 4C 80 BA 05 60 0F 01 4D  80 4E 80 01 80 4F 80 BA  L...`..M.N...O..
0B30: 06 60 0F 01 50 80 51 80  01 80 52 80 6E 94 60 0F  .`..P.Q...R.n.`.
0B40: 01 01 80 99 94 60 0F 01  2B 94 60 0F 01 79 80 1C  .....`..+.`..y..
0B50: 34 80 23 52 22 80 F0 FF  FF 7F F0 FF FF 7F 61 31  4.#R".........a1
0B60: 33 32 45 22 80 F0 FF FF  7F F0 FF FF 7F 61 31 33  32E".........a13
0B70: 33 01 80 1C 32 80 BA 43  60 0F 01 7A 80 7B 80 01  3...2..C`..z.{..
0B80: 80 1B 80 2B 94 60 0F 01  7C 80 23 27 10 43 60 0F  ...+.`..|.#'.C`.
0B90: 01 24 52 22 80 F0 FF FF  7F F0 FF FF 7F 61 31 33  .$R".........a13
0BA0: 33 45 22 80 F0 FF FF 7F  F0 FF FF 7F 61 31 33 34  3E".........a134
0BB0: 01 80 27 10 94 60 0F 01  19 27 10 06 60 0F 01 1B  ..'..`...'..`...
0BC0: 1C 34 80 1A B1 21 1C 07  80 7A 00 04 60 0F 01 7A  .4...!...z..`..z
0BD0: 00 05 60 0F 01 7A 00 06  60 0F 01 7A 00 44 60 0F  ..`..z..`..z.D`.
0BE0: 01 7A 00 43 60 0F 01 52  22 80 F8 FF FF 7F F8 FF  .z.C`..R".......
0BF0: FF 7F 61 31 33 34 45 22  80 F8 FF FF 7F F8 FF FF  ..a134E"........
0C00: 7F 30 62 6C 66 01 80 5C  00 21 80 5C 01 21 80 9A  .0blf..\.!.\.!..
0C10: 46 00 45 7D 80 F0 FF FF  7F F0 FF FF 7F 66 64 69  F.E}.........fdi
0C20: 32 01 80 21 00                                    2..!.           
```

#### Opcodes

```
  0: 0x0001 [0x42] SET_CLI_EVENT_CANCEL_DATA()
  1: 0x0002 [0x9F] LOAD_SCHEDULED_TASK_ALT: Load scheduler "kill" with entities [LocalPlayer, LocalPlayer], work=[219*, 0*]
  2: 0x0013 [0x1A] CALL_SUBROUTINE(address=0x21B1)
  3: 0x0016 [0x46] CAMERA_CONTROL: Disable user control
  4: 0x0018 [0x38] SET_CLIENT_EVENT_MODE(mode=19*)
  5: 0x001B [0x4E] SET_ENTITY_HIDE_FLAG: Show LocalPlayer
  6: 0x0021 [0x43] SEND_EVENT_UPDATE: Send pending tag to server (packet 0x005B)
  7: 0x0023 [0x43] SEND_EVENT_UPDATE: Check pending flag (skip if not pending)
  8: 0x0025 [0x03] ExtData[1]->WorkLocal[8] = Work_Zone[4]
  9: 0x002A [0x02] IF !(Work_Zone[5] == 0*) GOTO 0x00A1
 10: 0x0032 [0x48] [System] [9522*]:
    → "You are now able to enjoy a new storyline, Abyssea."
 11: 0x0035 [0x24] CREATE_DIALOG(message_id=9523*, default_option=1*, option_flags=0*)
    → "Start Abyssea? [Yes (View cutscene)./Maybe later.]"
 12: 0x003C [0x25] WAIT_DIALOG_SELECT()
 13: 0x003D [0x02] IF !(Work_Zone[0] == 0*) GOTO 0x004D
 14: 0x0045 [0x03] Work_Zone[1] = 1*
 15: 0x004A [0x01] GOTO 0x00A1
 16: 0x004D [0x02] IF !(Work_Zone[0] == 1*) GOTO 0x00A1
 17: 0x0055 [0x03] Work_Zone[1] = 0*
 18: 0x005A [0x02] IF !(ExtData[1]->WorkLocal[8] == 1*) GOTO 0x0085
 19: 0x0062 [0x8D] OPEN_MAP_WITH_PROPERTIES(map_id=246*, properties=1*)
 20: 0x0067 [0x1C] WAIT(30* ticks)
 21: 0x006A [0xB8] MAP_ADD_MARKER_WITH_NAME(zone=246*, submap=0*, marker_id=9*, x_pos=-154.382*, y_pos=6.370*, marker_name="Tales'Beginning")
 22: 0x0085 [0x48] [System] [9524*]:
    → "Examine the Tales' Beginning in Port Jeuno (F-8) when you wish to start Abyssea."
 23: 0x0088 [0x23] WAIT_FOR_DIALOG_INTERACTION
 24: 0x0089 [0x1C] WAIT(160* ticks)
 25: 0x008C [0x02] IF !(ExtData[1]->WorkLocal[8] == 1*) GOTO 0x0095
 26: 0x0094 [0x8A] CLOSE_MAP()
 27: 0x0095 [0x1C] WAIT(30* ticks)
 28: 0x0098 [0x48] [System] [8396*]:
    → "@@"
 29: 0x009B [0x01] GOTO 0x0C07

SUBROUTINE_00A1:
 30: 0x00A1 [0x4E] SET_ENTITY_HIDE_FLAG: Show Unnamed NPC (ID: 17784976/0x010F6090)
 31: 0x00A7 [0x92] Joachim (ID: 17784980/0x010F6094)->Render.Flags3 ^= 0x01
 32: 0x00AD [0x94] LocalPlayer->Render.Flags3 ^= 0x01
 33: 0x00B3 [0x94] Unnamed NPC (ID: 17784976/0x010F6090)->Render.Flags3 ^= 0x01
 34: 0x00B9 [0x94] Joachim (ID: 17784980/0x010F6094)->Render.Flags3 ^= 0x01
 35: 0x00BF [0xBA] SET_ENTITY_POSITION(entity_id=LocalPlayer, pos_x=-56.382*, pos_z=0.247*, pos_y=0.000*, direction=180.0°*)
 36: 0x00CC [0xBA] SET_ENTITY_POSITION(entity_id=Ramicharaux (ID: 17784872/0x010F6028), pos_x=-77.418*, pos_z=6.779*, pos_y=0.000*, direction=293.9°*)
 37: 0x00D9 [0xBA] SET_ENTITY_POSITION(entity_id=Leffquen (ID: 17784894/0x010F603E), pos_x=-47.162*, pos_z=2.200*, pos_y=0.000*, direction=0.1°*)
 38: 0x00E6 [0xBA] SET_ENTITY_POSITION(entity_id=Khumo Daramasteh (ID: 17784899/0x010F6043), pos_x=-108.412*, pos_z=-1.807*, pos_y=0.000*, direction=359.9°*)
 39: 0x00F3 [0xBA] SET_ENTITY_POSITION(entity_id=Falak (ID: 17784901/0x010F6045), pos_x=-92.996*, pos_z=-2.893*, pos_y=0.000*, direction=175.5°*)
 40: 0x0100 [0x59] UPDATE_ENTITY_DATA: Unnamed NPC (ID: 17784976/0x010F6090)->Render.Flags0 |= 0x200000
 41: 0x0107 [0xBA] SET_ENTITY_POSITION(entity_id=Unnamed NPC (ID: 17784976/0x010F6090), pos_x=-0.324*, pos_z=0.137*, pos_y=-49.917*, direction=2.5°*)
 42: 0x0114 [0x80] LOAD_WAIT(entity=LocalPlayer)
 43: 0x0119 [0x80] LOAD_WAIT(entity=Unnamed NPC (ID: 17784976/0x010F6090))
 44: 0x011E [0x80] LOAD_WAIT(entity=Joachim (ID: 17784980/0x010F6094))
 45: 0x0123 [0x1C] WAIT(30* ticks)
 46: 0x0126 [0x66] LOAD_EXT_SCHEDULER_MAIN: Load scheduler "tlk0" with entities [Ramicharaux (ID: 17784872/0x010F6028), Ramicharaux (ID: 17784872/0x010F6028)], work=20*
 47: 0x0135 [0x5C] MUSIC_CONTROL: Set Idle (Day) music to song 110*
 48: 0x0139 [0x5C] MUSIC_CONTROL: Set Idle (Night) music to song 110*
 49: 0x013D [0x9A] WAIT_MUSIC_SERVER()
 50: 0x013E [0x45] LOAD_SCHEDULED_TASK: Load scheduler "aop1" with entities [LocalPlayer, LocalPlayer], work=[488*, 0*]
 51: 0x014F [0x1A] CALL_SUBROUTINE(address=0x2190)
 52: 0x0152 [0x4A] Buntz (ID: 17784837/0x010F6005) looks at Jaha Amariyo (ID: 17784838/0x010F6006)
 53: 0x015B [0x27] REQ_SET(priority=0x10, entity_id=Jaha Amariyo (ID: 17784838/0x010F6006), tag_num=0x1B)
 54: 0x0162 [0x1C] WAIT(240* ticks)
 55: 0x0165 [0x27] REQ_SET(priority=0x10, entity_id=Falak (ID: 17784901/0x010F6045), tag_num=0x26)
 56: 0x016C [0x27] REQ_SET(priority=0x10, entity_id=Red Ghost (ID: 17784900/0x010F6044), tag_num=0x1F)
 57: 0x0173 [0x1C] WAIT(300* ticks)
 58: 0x0176 [0x27] REQ_SET(priority=0x10, entity_id=LocalPlayer, tag_num=0x2A)
 59: 0x017D [0x52] END_LOAD_SCHEDULER: End scheduler "aop0" with entities [LocalPlayer, LocalPlayer], work=488*
 60: 0x018C [0x45] LOAD_SCHEDULED_TASK: Load scheduler "a110" with entities [LocalPlayer, LocalPlayer], work=[488*, 0*]
 61: 0x019D [0x7A] VM_CONTROL: Reset VM for Karl (ID: 17784836/0x010F6004)
 62: 0x01A3 [0x7A] VM_CONTROL: Reset VM for Buntz (ID: 17784837/0x010F6005)
 63: 0x01A9 [0x7A] VM_CONTROL: Reset VM for Jaha Amariyo (ID: 17784838/0x010F6006)
 64: 0x01AF [0xBA] SET_ENTITY_POSITION(entity_id=Karl (ID: 17784836/0x010F6004), pos_x=-74.722*, pos_z=3.213*, pos_y=0.000*, direction=2.7°*)
 65: 0x01BC [0xBA] SET_ENTITY_POSITION(entity_id=Buntz (ID: 17784837/0x010F6005), pos_x=-78.055*, pos_z=3.796*, pos_y=0.000*, direction=4.2°*)
 66: 0x01C9 [0xBA] SET_ENTITY_POSITION(entity_id=Jaha Amariyo (ID: 17784838/0x010F6006), pos_x=-80.028*, pos_z=2.195*, pos_y=0.000*, direction=3.4°*)
 67: 0x01D6 [0xBA] SET_ENTITY_POSITION(entity_id=Rinzei (ID: 17784833/0x010F6001), pos_x=-65.840*, pos_z=-1.163*, pos_y=0.000*, direction=0.1°*)
 68: 0x01E3 [0x2A] GET_REQ_LEVEL(level=16, entity_id=LocalPlayer)
 69: 0x01E9 [0x5C] MUSIC_CONTROL: Set Idle (Day) music to song 51*
 70: 0x01ED [0x5C] MUSIC_CONTROL: Set Idle (Night) music to song 51*
 71: 0x01F1 [0x9A] WAIT_MUSIC_SERVER()
 72: 0x01F2 [0xCD] LOAD_SCHEDULED_TASK_ALT4: Load scheduler "s002" with entities [LocalPlayer, LocalPlayer], work=[8*, 0*]
 73: 0x0203 [0x27] REQ_SET(priority=0x10, entity_id=Khumo Daramasteh (ID: 17784899/0x010F6043), tag_num=0x24)
 74: 0x020A [0x27] REQ_SET(priority=0x10, entity_id=Rinzei (ID: 17784833/0x010F6001), tag_num=0x25)
 75: 0x0211 [0x27] REQ_SET(priority=0x10, entity_id=Jaha Amariyo (ID: 17784838/0x010F6006), tag_num=0x23)
 76: 0x0218 [0x1C] WAIT(60* ticks)
 77: 0x021B [0xAB] EventEntity->UnknownFlag = 1 // Enable unknown flag
 78: 0x021D [0x27] REQ_SET(priority=0x10, entity_id=Unnamed NPC (ID: 17784976/0x010F6090), tag_num=0x06)
 79: 0x0224 [0x45] LOAD_SCHEDULED_TASK: Load scheduler "se00" with entities [LocalPlayer, LocalPlayer], work=[488*, 0*]
 80: 0x0235 [0x52] END_LOAD_SCHEDULER: End scheduler "a110" with entities [LocalPlayer, LocalPlayer], work=488*
 81: 0x0244 [0x45] LOAD_SCHEDULED_TASK: Load scheduler "a111" with entities [LocalPlayer, LocalPlayer], work=[488*, 0*]
 82: 0x0255 [0x79] LocalPlayer looks at Unknown NPC (ID: 2150858753/0x80338001) (Direct axis set)
 83: 0x025F [0x1C] WAIT(120* ticks)
 84: 0x0262 [0x7B] LocalPlayer stops talking
 85: 0x0267 [0x27] REQ_SET(priority=0x10, entity_id=Leffquen (ID: 17784894/0x010F603E), tag_num=0x25)
 86: 0x026E [0x1C] WAIT(120* ticks)
 87: 0x0271 [0x52] END_LOAD_SCHEDULER: End scheduler "a111" with entities [LocalPlayer, LocalPlayer], work=488*
 88: 0x0280 [0x45] LOAD_SCHEDULED_TASK: Load scheduler "a112" with entities [LocalPlayer, LocalPlayer], work=[488*, 0*]
 89: 0x0291 [0x9F] LOAD_SCHEDULED_TASK_ALT: Load scheduler "mai1" with entities [Unnamed NPC (ID: 17784976/0x010F6090), Unnamed NPC (ID: 17784976/0x010F6090)], work=[144*, 0*]
 90: 0x02A2 [0x59] UPDATE_ENTITY_DATA: Set LocalPlayer turn speed = 50*
 91: 0x02AA [0x4A] LocalPlayer looks at Unnamed NPC (ID: 17784976/0x010F6090)
 92: 0x02B3 [0x6F] WAIT_FRAME_DELAY: Yield until WaitTime reaches zero
 93: 0x02B4 [0x76] CHECK_ENTITY_RENDER_FLAGS: Wait until LocalPlayer Render.Flags0 and Render.Flags3 conditions are met
 94: 0x02B9 [0x1C] WAIT(60* ticks)
 95: 0x02BC [0x52] END_LOAD_SCHEDULER: End scheduler "a112" with entities [LocalPlayer, LocalPlayer], work=488*
 96: 0x02CB [0x45] LOAD_SCHEDULED_TASK: Load scheduler "a113" with entities [LocalPlayer, LocalPlayer], work=[488*, 0*]
 97: 0x02DC [0x45] LOAD_SCHEDULED_TASK: Load scheduler "0pro" with entities [Unnamed NPC (ID: 17784976/0x010F6090), Unnamed NPC (ID: 17784976/0x010F6090)], work=[488*, 0*]
 98: 0x02ED [0x1C] WAIT(180* ticks)
 99: 0x02F0 [0x7B] LocalPlayer stops talking
100: 0x02F5 [0x27] REQ_SET(priority=0x10, entity_id=LocalPlayer, tag_num=0x29)
101: 0x02FC [0x1C] WAIT(180* ticks)
102: 0x02FF [0x52] END_LOAD_SCHEDULER: End scheduler "a113" with entities [LocalPlayer, LocalPlayer], work=488*
103: 0x030E [0x29] REQ_SET_WAIT(priority=0x10, entity_id=LocalPlayer, tag_num=0x20)
104: 0x0315 [0x02] IF !(Work_Zone[2] == 1*) GOTO 0x0331
105: 0x031D [0x45] LOAD_SCHEDULED_TASK: Load scheduler "a1hm" with entities [LocalPlayer, LocalPlayer], work=[488*, 0*]
106: 0x032E [0x01] GOTO 0x03F5
107: 0x0331 [0x02] IF !(Work_Zone[2] == 2*) GOTO 0x034D
108: 0x0339 [0x45] LOAD_SCHEDULED_TASK: Load scheduler "a1hf" with entities [LocalPlayer, LocalPlayer], work=[488*, 0*]
109: 0x034A [0x01] GOTO 0x03F5
110: 0x034D [0x02] IF !(Work_Zone[2] == 3*) GOTO 0x0369
111: 0x0355 [0x45] LOAD_SCHEDULED_TASK: Load scheduler "a1em" with entities [LocalPlayer, LocalPlayer], work=[488*, 0*]
112: 0x0366 [0x01] GOTO 0x03F5
113: 0x0369 [0x02] IF !(Work_Zone[2] == 4*) GOTO 0x0385
114: 0x0371 [0x45] LOAD_SCHEDULED_TASK: Load scheduler "a1ef" with entities [LocalPlayer, LocalPlayer], work=[488*, 0*]
115: 0x0382 [0x01] GOTO 0x03F5
116: 0x0385 [0x02] IF !(Work_Zone[2] == 5*) GOTO 0x03A1
117: 0x038D [0x45] LOAD_SCHEDULED_TASK: Load scheduler "a1tr" with entities [LocalPlayer, LocalPlayer], work=[488*, 0*]
118: 0x039E [0x01] GOTO 0x03F5
119: 0x03A1 [0x02] IF !(Work_Zone[2] == 6*) GOTO 0x03BD
120: 0x03A9 [0x45] LOAD_SCHEDULED_TASK: Load scheduler "a1tr" with entities [LocalPlayer, LocalPlayer], work=[488*, 0*]
121: 0x03BA [0x01] GOTO 0x03F5
122: 0x03BD [0x02] IF !(Work_Zone[2] == 7*) GOTO 0x03D9
123: 0x03C5 [0x45] LOAD_SCHEDULED_TASK: Load scheduler "a1mt" with entities [LocalPlayer, LocalPlayer], work=[488*, 0*]
124: 0x03D6 [0x01] GOTO 0x03F5
125: 0x03D9 [0x02] IF !(Work_Zone[2] == 8*) GOTO 0x03F5
126: 0x03E1 [0x45] LOAD_SCHEDULED_TASK: Load scheduler "a1gl" with entities [LocalPlayer, LocalPlayer], work=[488*, 0*]
127: 0x03F2 [0x01] GOTO 0x03F5

SUBROUTINE_03F5:
128: 0x03F5 [0x45] LOAD_SCHEDULED_TASK: Load scheduler "0dkn" with entities [LocalPlayer, LocalPlayer], work=[488*, 0*]
129: 0x0406 [0x9F] LOAD_SCHEDULED_TASK_ALT: Load scheduler "mai2" with entities [Unnamed NPC (ID: 17784976/0x010F6090), Unnamed NPC (ID: 17784976/0x010F6090)], work=[144*, 0*]
130: 0x0417 [0x1C] WAIT(180* ticks)
131: 0x041A [0x52] END_LOAD_SCHEDULER: End scheduler "a1hm" with entities [LocalPlayer, LocalPlayer], work=488*
132: 0x0429 [0x52] END_LOAD_SCHEDULER: End scheduler "a1hf" with entities [LocalPlayer, LocalPlayer], work=488*
133: 0x0438 [0x52] END_LOAD_SCHEDULER: End scheduler "a1em" with entities [LocalPlayer, LocalPlayer], work=488*
134: 0x0447 [0x52] END_LOAD_SCHEDULER: End scheduler "a1ef" with entities [LocalPlayer, LocalPlayer], work=488*
135: 0x0456 [0x52] END_LOAD_SCHEDULER: End scheduler "a1tr" with entities [LocalPlayer, LocalPlayer], work=488*
136: 0x0465 [0x52] END_LOAD_SCHEDULER: End scheduler "a1mt" with entities [LocalPlayer, LocalPlayer], work=488*
137: 0x0474 [0x52] END_LOAD_SCHEDULER: End scheduler "a1gl" with entities [LocalPlayer, LocalPlayer], work=488*
138: 0x0483 [0x45] LOAD_SCHEDULED_TASK: Load scheduler "a120" with entities [LocalPlayer, LocalPlayer], work=[488*, 0*]
139: 0x0494 [0x1C] WAIT(180* ticks)
140: 0x0497 [0x45] LOAD_SCHEDULED_TASK: Load scheduler "kpro" with entities [Unnamed NPC (ID: 17784976/0x010F6090), Unnamed NPC (ID: 17784976/0x010F6090)], work=[488*, 0*]
141: 0x04A8 [0x1C] WAIT(240* ticks)
142: 0x04AB [0x52] END_LOAD_SCHEDULER: End scheduler "a120" with entities [LocalPlayer, LocalPlayer], work=488*
143: 0x04BA [0x45] LOAD_SCHEDULED_TASK: Load scheduler "a116" with entities [LocalPlayer, LocalPlayer], work=[488*, 0*]
144: 0x04CB [0x9F] LOAD_SCHEDULED_TASK_ALT: Load scheduler "fall" with entities [EventEntity, EventEntity], work=[145*, 0*]
145: 0x04DC [0x45] LOAD_SCHEDULED_TASK: Load scheduler "0rak" with entities [Unnamed NPC (ID: 17784976/0x010F6090), Unnamed NPC (ID: 17784976/0x010F6090)], work=[488*, 0*]
146: 0x04ED [0x1C] WAIT(210* ticks)
147: 0x04F0 [0x52] END_LOAD_SCHEDULER: End scheduler "a116" with entities [LocalPlayer, LocalPlayer], work=488*
148: 0x04FF [0x45] LOAD_SCHEDULED_TASK: Load scheduler "a117" with entities [LocalPlayer, LocalPlayer], work=[488*, 0*]
149: 0x0510 [0x9F] LOAD_SCHEDULED_TASK_ALT: Load scheduler "fall" with entities [EventEntity, EventEntity], work=[145*, 0*]
150: 0x0521 [0x45] LOAD_SCHEDULED_TASK: Load scheduler "0rak" with entities [Unnamed NPC (ID: 17784976/0x010F6090), Unnamed NPC (ID: 17784976/0x010F6090)], work=[488*, 0*]
151: 0x0532 [0x1C] WAIT(150* ticks)
152: 0x0535 [0x9F] LOAD_SCHEDULED_TASK_ALT: Load scheduler "stop" with entities [Unnamed NPC (ID: 17784976/0x010F6090), Unnamed NPC (ID: 17784976/0x010F6090)], work=[144*, 0*]
153: 0x0546 [0x1C] WAIT(150* ticks)
154: 0x0549 [0x1A] CALL_SUBROUTINE(address=0x21F3)
155: 0x054C [0x5D] SET_MUSIC_VOLUME(volume=0*, fade_time=120*)
156: 0x0551 [0x7A] VM_CONTROL: Reset VM for Red Ghost (ID: 17784900/0x010F6044)
157: 0x0557 [0x7A] VM_CONTROL: Reset VM for Falak (ID: 17784901/0x010F6045)
158: 0x055D [0x7A] VM_CONTROL: Reset VM for Leffquen (ID: 17784894/0x010F603E)
159: 0x0563 [0x7A] VM_CONTROL: Reset VM for Khumo Daramasteh (ID: 17784899/0x010F6043)
160: 0x0569 [0x7A] VM_CONTROL: Reset VM for Rinzei (ID: 17784833/0x010F6001)
161: 0x056F [0x7A] VM_CONTROL: Reset VM for Karl (ID: 17784836/0x010F6004)
162: 0x0575 [0x7A] VM_CONTROL: Reset VM for Buntz (ID: 17784837/0x010F6005)
163: 0x057B [0x7A] VM_CONTROL: Reset VM for Jaha Amariyo (ID: 17784838/0x010F6006)
164: 0x0581 [0x1C] WAIT(30* ticks)
165: 0x0584 [0x45] LOAD_SCHEDULED_TASK: Load scheduler "krak" with entities [Unnamed NPC (ID: 17784976/0x010F6090), Unnamed NPC (ID: 17784976/0x010F6090)], work=[488*, 0*]
166: 0x0595 [0x45] LOAD_SCHEDULED_TASK: Load scheduler "ke00" with entities [LocalPlayer, LocalPlayer], work=[488*, 0*]
167: 0x05A6 [0xCD] LOAD_SCHEDULED_TASK_ALT4: Load scheduler "kil2" with entities [LocalPlayer, LocalPlayer], work=[8*, 0*]
168: 0x05B7 [0x2C] CREATE_SCHEDULER_TASK: Create scheduler "corp" with entities [LocalPlayer, LocalPlayer]
169: 0x05C4 [0xBA] SET_ENTITY_POSITION(entity_id=Joachim (ID: 17784980/0x010F6094), pos_x=-58.625*, pos_z=-1.229*, pos_y=0.000*, direction=233.8°*)
170: 0x05D1 [0xBA] SET_ENTITY_POSITION(entity_id=Marnie (ID: 17784895/0x010F603F), pos_x=-70.160*, pos_z=-2.696*, pos_y=0.000*, direction=345.1°*)
171: 0x05DE [0xBA] SET_ENTITY_POSITION(entity_id=Red Ghost (ID: 17784900/0x010F6044), pos_x=-66.506*, pos_z=-1.210*, pos_y=0.000*, direction=351.0°*)
172: 0x05EB [0xBA] SET_ENTITY_POSITION(entity_id=Karl (ID: 17784836/0x010F6004), pos_x=-61.083*, pos_z=-5.075*, pos_y=0.000*, direction=284.8°*)
173: 0x05F8 [0xBA] SET_ENTITY_POSITION(entity_id=Buntz (ID: 17784837/0x010F6005), pos_x=-62.164*, pos_z=-5.610*, pos_y=0.000*, direction=281.9°*)
174: 0x0605 [0xBA] SET_ENTITY_POSITION(entity_id=Jaha Amariyo (ID: 17784838/0x010F6006), pos_x=-60.935*, pos_z=-5.874*, pos_y=0.000*, direction=273.5°*)
175: 0x0612 [0xBA] SET_ENTITY_POSITION(entity_id=Squintrox Dryeyes (ID: 17784966/0x010F6086), pos_x=-71.891*, pos_z=5.121*, pos_y=0.000*, direction=42.4°*)
176: 0x061F [0xBA] SET_ENTITY_POSITION(entity_id=Ramicharaux (ID: 17784872/0x010F6028), pos_x=-52.039*, pos_z=2.152*, pos_y=0.000*, direction=161.7°*)
177: 0x062C [0xBA] SET_ENTITY_POSITION(entity_id=Falak (ID: 17784901/0x010F6045), pos_x=-47.043*, pos_z=-1.329*, pos_y=0.000*, direction=281.1°*)
178: 0x0639 [0xBA] SET_ENTITY_POSITION(entity_id=Rinzei (ID: 17784833/0x010F6001), pos_x=-47.043*, pos_z=-1.329*, pos_y=0.000*, direction=281.1°*)
179: 0x0646 [0xBA] SET_ENTITY_POSITION(entity_id=Naurmaire (ID: 17784898/0x010F6042), pos_x=-50.559*, pos_z=-3.805*, pos_y=0.000*, direction=192.5°*)
180: 0x0653 [0xBA] SET_ENTITY_POSITION(entity_id=Khumo Daramasteh (ID: 17784899/0x010F6043), pos_x=-44.652*, pos_z=-1.923*, pos_y=0.000*, direction=193.2°*)
181: 0x0660 [0x66] LOAD_EXT_SCHEDULER_MAIN: Load scheduler "thk1" with entities [Marnie (ID: 17784895/0x010F603F), Marnie (ID: 17784895/0x010F603F)], work=10*
182: 0x066F [0x5B] LOAD_EXT_SCHEDULER: Load scheduler "opa0" with entities [Falak (ID: 17784901/0x010F6045), Falak (ID: 17784901/0x010F6045)], work=2582*
183: 0x067E [0x5B] LOAD_EXT_SCHEDULER: Load scheduler "opa0" with entities [Rinzei (ID: 17784833/0x010F6001), Rinzei (ID: 17784833/0x010F6001)], work=2584*
184: 0x068D [0x66] LOAD_EXT_SCHEDULER_MAIN: Load scheduler "thk1" with entities [Ramicharaux (ID: 17784872/0x010F6028), Ramicharaux (ID: 17784872/0x010F6028)], work=20*
185: 0x069C [0x29] REQ_SET_WAIT(priority=0x10, entity_id=Joachim (ID: 17784980/0x010F6094), tag_num=0x14)
186: 0x06A3 [0x1A] CALL_SUBROUTINE(address=0x21B1)
187: 0x06A6 [0x1A] CALL_SUBROUTINE(address=0x21D2)
188: 0x06A9 [0x78] ENABLE_GAME_TIMER_RESET_WEATHER()
189: 0x06AA [0x1C] WAIT(1* ticks)
190: 0x06AD [0xAB] EventEntity->UnknownFlag = 0 // Disable unknown flag
191: 0x06AF [0x9F] LOAD_SCHEDULED_TASK_ALT: Load scheduler "bl00" with entities [LocalPlayer, LocalPlayer], work=[219*, 0*]
192: 0x06C0 [0x48] [System] [8396*]:
    → "@@"
193: 0x06C3 [0x23] WAIT_FOR_DIALOG_INTERACTION
194: 0x06C4 [0x29] REQ_SET_WAIT(priority=0x10, entity_id=Joachim (ID: 17784980/0x010F6094), tag_num=0x16)
195: 0x06CB [0x2B] Joachim (ID: 17784980/0x010F6094) [8397*]:
    → "O...i...!"
196: 0x06D2 [0x52] END_LOAD_SCHEDULER: End scheduler "a117" with entities [LocalPlayer, LocalPlayer], work=488*
197: 0x06E1 [0x45] LOAD_SCHEDULED_TASK: Load scheduler "a119" with entities [LocalPlayer, LocalPlayer], work=[488*, 0*]
198: 0x06F2 [0x1A] CALL_SUBROUTINE(address=0x2190)
199: 0x06F5 [0x9F] LOAD_SCHEDULED_TASK_ALT: Load scheduler "open" with entities [LocalPlayer, LocalPlayer], work=[219*, 0*]
200: 0x0706 [0x1C] WAIT(180* ticks)
201: 0x0709 [0x9F] LOAD_SCHEDULED_TASK_ALT: Load scheduler "clos" with entities [LocalPlayer, LocalPlayer], work=[219*, 0*]
202: 0x071A [0x1C] WAIT(180* ticks)
203: 0x071D [0x2B] Joachim (ID: 17784980/0x010F6094) [8398*]:
    → "C'mon now, open yer eyes!"
204: 0x0724 [0x1C] WAIT(60* ticks)
205: 0x0727 [0x1A] CALL_SUBROUTINE(address=0x21B1)
206: 0x072A [0x1C] WAIT(30* ticks)
207: 0x072D [0x29] REQ_SET_WAIT(priority=0x10, entity_id=LocalPlayer, tag_num=0x22)
208: 0x0734 [0x9F] LOAD_SCHEDULED_TASK_ALT: Load scheduler "kill" with entities [LocalPlayer, LocalPlayer], work=[219*, 0*]
209: 0x0745 [0x52] END_LOAD_SCHEDULER: End scheduler "a119" with entities [LocalPlayer, LocalPlayer], work=488*
210: 0x0754 [0x45] LOAD_SCHEDULED_TASK: Load scheduler "a121" with entities [LocalPlayer, LocalPlayer], work=[488*, 0*]
211: 0x0765 [0x48] [System] [8396*]:
    → "@@"
212: 0x0768 [0x23] WAIT_FOR_DIALOG_INTERACTION
213: 0x0769 [0x1A] CALL_SUBROUTINE(address=0x2190)
214: 0x076C [0x2B] Joachim (ID: 17784980/0x010F6094) [8399*]:
    → "Ye all right, [mate/lass]? Gave me a right fright, crumplin' to the ground without warnin' as ye did."
215: 0x0773 [0x23] WAIT_FOR_DIALOG_INTERACTION
216: 0x0774 [0x79] LocalPlayer looks at Joachim (ID: 17784980/0x010F6094) (Basic look)
217: 0x077E [0x1C] WAIT(90* ticks)
218: 0x0781 [0x52] END_LOAD_SCHEDULER: End scheduler "a121" with entities [LocalPlayer, LocalPlayer], work=488*
219: 0x0790 [0x45] LOAD_SCHEDULED_TASK: Load scheduler "a122" with entities [LocalPlayer, LocalPlayer], work=[488*, 0*]
220: 0x07A1 [0x2B] Joachim (ID: 17784980/0x010F6094) [8400*]:
    → "Eh? A pink flash of light in the sky, ye say?"
221: 0x07A8 [0x23] WAIT_FOR_DIALOG_INTERACTION
222: 0x07A9 [0x5C] MUSIC_CONTROL: Set Idle (Day) music to song 110*
223: 0x07AD [0x5C] MUSIC_CONTROL: Set Idle (Night) music to song 110*
224: 0x07B1 [0x9A] WAIT_MUSIC_SERVER()
225: 0x07B2 [0x52] END_LOAD_SCHEDULER: End scheduler "a122" with entities [LocalPlayer, LocalPlayer], work=488*
226: 0x07C1 [0x45] LOAD_SCHEDULED_TASK: Load scheduler "a123" with entities [LocalPlayer, LocalPlayer], work=[488*, 0*]
227: 0x07D2 [0x66] LOAD_EXT_SCHEDULER_MAIN: Load scheduler "thk2" with entities [Ramicharaux (ID: 17784872/0x010F6028), Ramicharaux (ID: 17784872/0x010F6028)], work=20*
228: 0x07E1 [0x1C] WAIT(30* ticks)
229: 0x07E4 [0x2B] Joachim (ID: 17784980/0x010F6094) [8401*]:
    → "Took a knock on the ol' noggin when ye fell, most like. No one from 'round here's seen anythin' of the sort."
230: 0x07EB [0x79] Joachim (ID: 17784980/0x010F6094) looks at LocalPlayer (Basic look)
231: 0x07F5 [0x29] REQ_SET_WAIT(priority=0x10, entity_id=Joachim (ID: 17784980/0x010F6094), tag_num=0x15)
232: 0x07FC [0x23] WAIT_FOR_DIALOG_INTERACTION
233: 0x07FD [0x27] REQ_SET(priority=0x10, entity_id=Squintrox Dryeyes (ID: 17784966/0x010F6086), tag_num=0x19)
234: 0x0804 [0x52] END_LOAD_SCHEDULER: End scheduler "a123" with entities [LocalPlayer, LocalPlayer], work=488*
235: 0x0813 [0x45] LOAD_SCHEDULED_TASK: Load scheduler "a127" with entities [LocalPlayer, LocalPlayer], work=[488*, 0*]
236: 0x0824 [0x79] LocalPlayer looks at LocalPlayer (Basic look)
237: 0x082E [0x1C] WAIT(120* ticks)
238: 0x0831 [0x52] END_LOAD_SCHEDULER: End scheduler "a127" with entities [LocalPlayer, LocalPlayer], work=488*
239: 0x0840 [0x45] LOAD_SCHEDULED_TASK: Load scheduler "a124" with entities [LocalPlayer, LocalPlayer], work=[488*, 0*]
240: 0x0851 [0x27] REQ_SET(priority=0x10, entity_id=Ramicharaux (ID: 17784872/0x010F6028), tag_num=0x13)
241: 0x0858 [0x1C] WAIT(120* ticks)
242: 0x085B [0x27] REQ_SET(priority=0x10, entity_id=Red Ghost (ID: 17784900/0x010F6044), tag_num=0x1B)
243: 0x0862 [0x1C] WAIT(60* ticks)
244: 0x0865 [0x27] REQ_SET(priority=0x10, entity_id=LocalPlayer, tag_num=0x23)
245: 0x086C [0x52] END_LOAD_SCHEDULER: End scheduler "a124" with entities [LocalPlayer, LocalPlayer], work=488*
246: 0x087B [0x45] LOAD_SCHEDULED_TASK: Load scheduler "a125" with entities [LocalPlayer, LocalPlayer], work=[488*, 0*]
247: 0x088C [0x27] REQ_SET(priority=0x10, entity_id=Jaha Amariyo (ID: 17784838/0x010F6006), tag_num=0x1B)
248: 0x0893 [0x1C] WAIT(240* ticks)
249: 0x0896 [0x52] END_LOAD_SCHEDULER: End scheduler "a125" with entities [LocalPlayer, LocalPlayer], work=488*
250: 0x08A5 [0x45] LOAD_SCHEDULED_TASK: Load scheduler "a126" with entities [LocalPlayer, LocalPlayer], work=[488*, 0*]
251: 0x08B6 [0x27] REQ_SET(priority=0x10, entity_id=Khumo Daramasteh (ID: 17784899/0x010F6043), tag_num=0x15)
252: 0x08BD [0x1C] WAIT(60* ticks)
253: 0x08C0 [0x66] LOAD_EXT_SCHEDULER_MAIN: Load scheduler "twb0" with entities [Joachim (ID: 17784980/0x010F6094), Joachim (ID: 17784980/0x010F6094)], work=9*
254: 0x08CF [0x2B] Joachim (ID: 17784980/0x010F6094) [8402*]:
    → "What're ye called, if I might ask?"
255: 0x08D6 [0x23] WAIT_FOR_DIALOG_INTERACTION
256: 0x08D7 [0x4A] LocalPlayer looks at Joachim (ID: 17784980/0x010F6094)
257: 0x08E0 [0x6F] WAIT_FRAME_DELAY: Yield until WaitTime reaches zero
258: 0x08E1 [0x76] CHECK_ENTITY_RENDER_FLAGS: Wait until LocalPlayer Render.Flags0 and Render.Flags3 conditions are met
259: 0x08E6 [0x27] REQ_SET(priority=0x10, entity_id=Naurmaire (ID: 17784898/0x010F6042), tag_num=0x1A)
260: 0x08ED [0x29] REQ_SET_WAIT(priority=0x10, entity_id=LocalPlayer, tag_num=0x28)
261: 0x08F4 [0x7A] VM_CONTROL: Reset VM for Karl (ID: 17784836/0x010F6004)
262: 0x08FA [0x7A] VM_CONTROL: Reset VM for Buntz (ID: 17784837/0x010F6005)
263: 0x0900 [0x7A] VM_CONTROL: Reset VM for Jaha Amariyo (ID: 17784838/0x010F6006)
264: 0x0906 [0x7A] VM_CONTROL: Reset VM for Red Ghost (ID: 17784900/0x010F6044)
265: 0x090C [0xBA] SET_ENTITY_POSITION(entity_id=Red Ghost (ID: 17784900/0x010F6044), pos_x=-96.241*, pos_z=8.872*, pos_y=0.000*, direction=95.6°*)
266: 0x0919 [0xBA] SET_ENTITY_POSITION(entity_id=Leffquen (ID: 17784894/0x010F603E), pos_x=-70.906*, pos_z=2.211*, pos_y=0.000*, direction=0.1°*)
267: 0x0926 [0xBA] SET_ENTITY_POSITION(entity_id=Karl (ID: 17784836/0x010F6004), pos_x=-74.722*, pos_z=3.213*, pos_y=0.000*, direction=2.7°*)
268: 0x0933 [0xBA] SET_ENTITY_POSITION(entity_id=Buntz (ID: 17784837/0x010F6005), pos_x=-78.055*, pos_z=3.796*, pos_y=0.000*, direction=4.2°*)
269: 0x0940 [0xBA] SET_ENTITY_POSITION(entity_id=Jaha Amariyo (ID: 17784838/0x010F6006), pos_x=-80.028*, pos_z=2.195*, pos_y=0.000*, direction=3.4°*)
270: 0x094D [0x52] END_LOAD_SCHEDULER: End scheduler "a126" with entities [LocalPlayer, LocalPlayer], work=488*
271: 0x095C [0x45] LOAD_SCHEDULED_TASK: Load scheduler "a128" with entities [LocalPlayer, LocalPlayer], work=[488*, 0*]
272: 0x096D [0x29] REQ_SET_WAIT(priority=0x10, entity_id=Joachim (ID: 17784980/0x010F6094), tag_num=0x17)
273: 0x0974 [0x66] LOAD_EXT_SCHEDULER_MAIN: Load scheduler "twb1" with entities [Joachim (ID: 17784980/0x010F6094), Joachim (ID: 17784980/0x010F6094)], work=9*
274: 0x0983 [0x27] REQ_SET(priority=0x10, entity_id=Marnie (ID: 17784895/0x010F603F), tag_num=0x1B)
275: 0x098A [0x2B] Joachim (ID: 17784980/0x010F6094) [8403*]:
    → "<Player>, eh? Me name's Joachim, an' the fact ye remember yer own means yer wits're intact, I'd say."
276: 0x0991 [0x23] WAIT_FOR_DIALOG_INTERACTION
277: 0x0992 [0x53] WAIT_SCHEDULER_TASK: Wait for scheduler "twb1" with entities [Joachim (ID: 17784980/0x010F6094), Joachim (ID: 17784980/0x010F6094)]
278: 0x099F [0x52] END_LOAD_SCHEDULER: End scheduler "a128" with entities [LocalPlayer, LocalPlayer], work=488*
279: 0x09AE [0x45] LOAD_SCHEDULED_TASK: Load scheduler "a129" with entities [LocalPlayer, LocalPlayer], work=[488*, 0*]
280: 0x09BF [0x7B] Joachim (ID: 17784980/0x010F6094) stops talking
281: 0x09C4 [0x27] REQ_SET(priority=0x10, entity_id=Joachim (ID: 17784980/0x010F6094), tag_num=0x18)
282: 0x09CB [0x1C] WAIT(90* ticks)
283: 0x09CE [0x27] REQ_SET(priority=0x10, entity_id=Red Ghost (ID: 17784900/0x010F6044), tag_num=0x1F)
284: 0x09D5 [0x27] REQ_SET(priority=0x10, entity_id=Squintrox Dryeyes (ID: 17784966/0x010F6086), tag_num=0x27)
285: 0x09DC [0x6E] LocalPlayer uses emote 6*
286: 0x09E3 [0x99] Wait for LocalPlayer animation to complete
287: 0x09E8 [0x1C] WAIT(120* ticks)
288: 0x09EB [0x52] END_LOAD_SCHEDULER: End scheduler "a129" with entities [LocalPlayer, LocalPlayer], work=488*
289: 0x09FA [0x45] LOAD_SCHEDULED_TASK: Load scheduler "a130" with entities [LocalPlayer, LocalPlayer], work=[488*, 0*]
290: 0x0A0B [0x29] REQ_SET_WAIT(priority=0x10, entity_id=LocalPlayer, tag_num=0x2B)
291: 0x0A12 [0x7A] VM_CONTROL: Reset VM for Khumo Daramasteh (ID: 17784899/0x010F6043)
292: 0x0A18 [0x1C] WAIT(30* ticks)
293: 0x0A1B [0x6B] STOP_AND_IDLE: Falak (ID: 17784901/0x010F6045) stops current action and resets to idle (animation="idl0")
294: 0x0A24 [0x6B] STOP_AND_IDLE: Rinzei (ID: 17784833/0x010F6001) stops current action and resets to idle (animation="idl0")
295: 0x0A2D [0xBA] SET_ENTITY_POSITION(entity_id=Falak (ID: 17784901/0x010F6045), pos_x=-50.779*, pos_z=-3.122*, pos_y=0.000*, direction=359.9°*)
296: 0x0A3A [0x79] LocalPlayer looks at Unnamed NPC (ID: 17784976/0x010F6090) (Basic look)
297: 0x0A44 [0x27] REQ_SET(priority=0x10, entity_id=Falak (ID: 17784901/0x010F6045), tag_num=0x21)
298: 0x0A4B [0x27] REQ_SET(priority=0x10, entity_id=Rinzei (ID: 17784833/0x010F6001), tag_num=0x23)
299: 0x0A52 [0x1C] WAIT(120* ticks)
300: 0x0A55 [0x2A] GET_REQ_LEVEL(level=16, entity_id=Joachim (ID: 17784980/0x010F6094))
301: 0x0A5B [0x2B] Joachim (ID: 17784980/0x010F6094) [8404*]:
    → "<Player>."
302: 0x0A62 [0x23] WAIT_FOR_DIALOG_INTERACTION
303: 0x0A63 [0x27] REQ_SET(priority=0x10, entity_id=Leffquen (ID: 17784894/0x010F603E), tag_num=0x28)
304: 0x0A6A [0x27] REQ_SET(priority=0x10, entity_id=Jaha Amariyo (ID: 17784838/0x010F6006), tag_num=0x23)
305: 0x0A71 [0x4A] LocalPlayer looks at Joachim (ID: 17784980/0x010F6094)
306: 0x0A7A [0x52] END_LOAD_SCHEDULER: End scheduler "a130" with entities [LocalPlayer, LocalPlayer], work=488*
307: 0x0A89 [0x45] LOAD_SCHEDULED_TASK: Load scheduler "a131" with entities [LocalPlayer, LocalPlayer], work=[488*, 0*]
308: 0x0A9A [0x6F] WAIT_FRAME_DELAY: Yield until WaitTime reaches zero
309: 0x0A9B [0x76] CHECK_ENTITY_RENDER_FLAGS: Wait until LocalPlayer Render.Flags0 and Render.Flags3 conditions are met
310: 0x0AA0 [0x1C] WAIT(120* ticks)
311: 0x0AA3 [0x52] END_LOAD_SCHEDULER: End scheduler "a131" with entities [LocalPlayer, LocalPlayer], work=488*
312: 0x0AB2 [0x45] LOAD_SCHEDULED_TASK: Load scheduler "a132" with entities [LocalPlayer, LocalPlayer], work=[488*, 0*]
313: 0x0AC3 [0x2B] Joachim (ID: 17784980/0x010F6094) [8405*]:
    → "What ye witnessed jus' now was no trick of the mind, but as real a thing as the folk in this bustlin' port."
314: 0x0ACA [0x23] WAIT_FOR_DIALOG_INTERACTION
315: 0x0ACB [0xBA] SET_ENTITY_POSITION(entity_id=Marnie (ID: 17784895/0x010F603F), pos_x=-48.408*, pos_z=2.459*, pos_y=0.000*, direction=271.0°*)
316: 0x0AD8 [0x66] LOAD_EXT_SCHEDULER_MAIN: Load scheduler "thk1" with entities [Marnie (ID: 17784895/0x010F603F), Marnie (ID: 17784895/0x010F603F)], work=10*
317: 0x0AE7 [0x79] Ramicharaux (ID: 17784872/0x010F6028) looks at Marnie (ID: 17784895/0x010F603F) (Basic look)
318: 0x0AF1 [0x66] LOAD_EXT_SCHEDULER_MAIN: Load scheduler "tlk0" with entities [Ramicharaux (ID: 17784872/0x010F6028), Ramicharaux (ID: 17784872/0x010F6028)], work=20*
319: 0x0B00 [0x7A] VM_CONTROL: Reset VM for Karl (ID: 17784836/0x010F6004)
320: 0x0B06 [0x7A] VM_CONTROL: Reset VM for Buntz (ID: 17784837/0x010F6005)
321: 0x0B0C [0x7A] VM_CONTROL: Reset VM for Jaha Amariyo (ID: 17784838/0x010F6006)
322: 0x0B12 [0x1C] WAIT(10* ticks)
323: 0x0B15 [0xBA] SET_ENTITY_POSITION(entity_id=Karl (ID: 17784836/0x010F6004), pos_x=-61.083*, pos_z=-5.075*, pos_y=0.000*, direction=284.8°*)
324: 0x0B22 [0xBA] SET_ENTITY_POSITION(entity_id=Buntz (ID: 17784837/0x010F6005), pos_x=-62.164*, pos_z=-5.610*, pos_y=0.000*, direction=281.9°*)
325: 0x0B2F [0xBA] SET_ENTITY_POSITION(entity_id=Jaha Amariyo (ID: 17784838/0x010F6006), pos_x=-60.935*, pos_z=-5.874*, pos_y=0.000*, direction=273.5°*)
326: 0x0B3C [0x6E] Joachim (ID: 17784980/0x010F6094) uses emote 0*
327: 0x0B43 [0x99] Wait for Joachim (ID: 17784980/0x010F6094) animation to complete
328: 0x0B48 [0x2B] Joachim (ID: 17784980/0x010F6094) [8406*]:
    → "Ye saw what ye did 'cause ye've got "potential." Aye, that ye do. But whether this potential'll serve ye good or ill's not somethin' I can say."
329: 0x0B4F [0x1C] WAIT(120* ticks)
330: 0x0B52 [0x23] WAIT_FOR_DIALOG_INTERACTION
331: 0x0B53 [0x52] END_LOAD_SCHEDULER: End scheduler "a132" with entities [LocalPlayer, LocalPlayer], work=488*
332: 0x0B62 [0x45] LOAD_SCHEDULED_TASK: Load scheduler "a133" with entities [LocalPlayer, LocalPlayer], work=[488*, 0*]
333: 0x0B73 [0x1C] WAIT(60* ticks)
334: 0x0B76 [0xBA] SET_ENTITY_POSITION(entity_id=Khumo Daramasteh (ID: 17784899/0x010F6043), pos_x=-26.665*, pos_z=-2.195*, pos_y=0.000*, direction=175.5°*)
335: 0x0B83 [0x2B] Joachim (ID: 17784980/0x010F6094) [8407*]:
    → "Remember what I jus' told ye, though. An' if ye ever start wantin' answers, come an' seek me out."
336: 0x0B8A [0x23] WAIT_FOR_DIALOG_INTERACTION
337: 0x0B8B [0x27] REQ_SET(priority=0x10, entity_id=Khumo Daramasteh (ID: 17784899/0x010F6043), tag_num=0x24)
338: 0x0B92 [0x52] END_LOAD_SCHEDULER: End scheduler "a133" with entities [LocalPlayer, LocalPlayer], work=488*
339: 0x0BA1 [0x45] LOAD_SCHEDULED_TASK: Load scheduler "a134" with entities [LocalPlayer, LocalPlayer], work=[488*, 0*]
340: 0x0BB2 [0x27] REQ_SET(priority=0x10, entity_id=Joachim (ID: 17784980/0x010F6094), tag_num=0x19)
341: 0x0BB9 [0x27] REQ_SET(priority=0x10, entity_id=Jaha Amariyo (ID: 17784838/0x010F6006), tag_num=0x1B)
342: 0x0BC0 [0x1C] WAIT(120* ticks)
343: 0x0BC3 [0x1A] CALL_SUBROUTINE(address=0x21B1)
344: 0x0BC6 [0x1C] WAIT(30* ticks)
345: 0x0BC9 [0x7A] VM_CONTROL: Reset VM for Karl (ID: 17784836/0x010F6004)
346: 0x0BCF [0x7A] VM_CONTROL: Reset VM for Buntz (ID: 17784837/0x010F6005)
347: 0x0BD5 [0x7A] VM_CONTROL: Reset VM for Jaha Amariyo (ID: 17784838/0x010F6006)
348: 0x0BDB [0x7A] VM_CONTROL: Reset VM for Red Ghost (ID: 17784900/0x010F6044)
349: 0x0BE1 [0x7A] VM_CONTROL: Reset VM for Khumo Daramasteh (ID: 17784899/0x010F6043)
350: 0x0BE7 [0x52] END_LOAD_SCHEDULER: End scheduler "a134" with entities [EventEntity, EventEntity], work=488*
351: 0x0BF6 [0x45] LOAD_SCHEDULED_TASK: Load scheduler "0blf" with entities [EventEntity, EventEntity], work=[488*, 0*]

SUBROUTINE_0C07:
352: 0x0C07 [0x5C] MUSIC_CONTROL: Set Idle (Day) music to song 110*
353: 0x0C0B [0x5C] MUSIC_CONTROL: Set Idle (Night) music to song 110*
354: 0x0C0F [0x9A] WAIT_MUSIC_SERVER()
355: 0x0C10 [0x46] CAMERA_CONTROL: Restore default settings
356: 0x0C12 [0x45] LOAD_SCHEDULED_TASK: Load scheduler "fdi2" with entities [LocalPlayer, LocalPlayer], work=[200*, 0*]
357: 0x0C23 [0x21] END_EVENT
358: 0x0C24 [0x00] END_REQSTACK()
```

#### Data or dead code:

```
# Dead code (unreachable instructions):
     0x009E [0x01] GOTO 0x00A1
```

### Event 325

#### Metadata

| Field        | Value      |
|--------------|------------|
| Entrypoint   | 0x0C25     |
| Data Size    | 1270 bytes |
| Instructions | 156        |

```
      00 01 02 03 04 05 06 07  08 09 0A 0B 0C 0D 0E 0F
      -- -- -- -- -- -- -- --  -- -- -- -- -- -- -- --
0C20:                42 1A B1  21 03 04 00 06 10 03 05       B..!.......
0C30: 00 07 10 03 06 00 08 10  03 07 00 09 10 46 01 38  .............F.8
0C40: 02 80 92 01 94 60 0F 01  94 01 F0 FF FF 7F 94 01  .....`..........
0C50: 94 60 0F 01 BA F0 FF FF  7F 7E 80 7F 80 01 80 80  .`.......~......
0C60: 80 80 F0 FF FF 7F 80 94  60 0F 01 1C 07 80 4A 94  ........`.....J.
0C70: 60 0F 01 F0 FF FF 7F 4A  F0 FF FF 7F 94 60 0F 01  `......J.....`..
0C80: 6F 76 F0 FF FF 7F 45 22  80 F0 FF FF 7F F0 FF FF  ov....E"........
0C90: 7F 61 32 30 30 01 80 1A  90 21 66 08 80 94 60 0F  .a200....!f...`.
0CA0: 01 94 60 0F 01 74 77 61  30 2B 94 60 0F 01 81 80  ..`..twa0+.`....
0CB0: 23 66 08 80 94 60 0F 01  94 60 0F 01 74 77 61 31  #f...`...`..twa1
0CC0: 29 10 F0 FF FF 7F 28 52  22 80 F0 FF FF 7F F0 FF  ).....(R".......
0CD0: FF 7F 61 32 30 30 45 22  80 F0 FF FF 7F F0 FF FF  ..a200E"........
0CE0: 7F 61 32 30 31 01 80 2B  94 60 0F 01 82 80 23 6E  .a201..+.`....#n
0CF0: 94 60 0F 01 3A 80 99 94  60 0F 01 2B 94 60 0F 01  .`..:...`..+.`..
0D00: 83 80 23 52 22 80 F0 FF  FF 7F F0 FF FF 7F 61 32  ..#R".........a2
0D10: 30 31 29 10 F0 FF FF 7F  20 02 02 10 05 80 80 35  01)..... ......5
0D20: 0D 45 22 80 F0 FF FF 7F  F0 FF FF 7F 61 32 6D 64  .E".........a2md
0D30: 01 80 01 F9 0D 02 02 10  38 80 80 51 0D 45 22 80  ........8..Q.E".
0D40: F0 FF FF 7F F0 FF FF 7F  61 32 6D 64 01 80 01 F9  ........a2md....
0D50: 0D 02 02 10 39 80 80 6D  0D 45 22 80 F0 FF FF 7F  ....9..m.E".....
0D60: F0 FF FF 7F 61 32 6C 6C  01 80 01 F9 0D 02 02 10  ....a2ll........
0D70: 3A 80 80 89 0D 45 22 80  F0 FF FF 7F F0 FF FF 7F  :....E".........
0D80: 61 32 6C 6C 01 80 01 F9  0D 02 02 10 3B 80 80 A5  a2ll........;...
0D90: 0D 45 22 80 F0 FF FF 7F  F0 FF FF 7F 61 32 74 72  .E".........a2tr
0DA0: 01 80 01 F9 0D 02 02 10  3C 80 80 C1 0D 45 22 80  ........<....E".
0DB0: F0 FF FF 7F F0 FF FF 7F  61 32 74 72 01 80 01 F9  ........a2tr....
0DC0: 0D 02 02 10 3D 80 80 DD  0D 45 22 80 F0 FF FF 7F  ....=....E".....
0DD0: F0 FF FF 7F 61 32 6D 64  01 80 01 F9 0D 02 02 10  ....a2md........
0DE0: 31 80 80 F9 0D 45 22 80  F0 FF FF 7F F0 FF FF 7F  1....E".........
0DF0: 61 32 6C 6C 01 80 01 F9  0D 5D 01 80 34 80 2B 94  a2ll.....]..4.+.
0E00: 60 0F 01 84 80 23 1C 34  80 7C 00 94 60 0F 01 2B  `....#.4.|..`..+
0E10: 94 60 0F 01 85 80 23 7C  01 94 60 0F 01 5C 00 30  .`....#|..`..\.0
0E20: 80 5C 01 30 80 9A 52 22  80 F0 FF FF 7F F0 FF FF  .\.0..R"........
0E30: 7F 61 32 6D 64 52 22 80  F0 FF FF 7F F0 FF FF 7F  .a2mdR".........
0E40: 61 32 6D 64 52 22 80 F0  FF FF 7F F0 FF FF 7F 61  a2mdR".........a
0E50: 32 6C 6C 52 22 80 F0 FF  FF 7F F0 FF FF 7F 61 32  2llR".........a2
0E60: 6C 6C 52 22 80 F0 FF FF  7F F0 FF FF 7F 61 32 74  llR".........a2t
0E70: 72 52 22 80 F0 FF FF 7F  F0 FF FF 7F 61 32 74 72  rR".........a2tr
0E80: 52 22 80 F0 FF FF 7F F0  FF FF 7F 61 32 6D 64 52  R".........a2mdR
0E90: 22 80 F0 FF FF 7F F0 FF  FF 7F 61 32 6C 6C 45 22  ".........a2llE"
0EA0: 80 F0 FF FF 7F F0 FF FF  7F 61 32 30 32 01 80 66  .........a202..f
0EB0: 08 80 94 60 0F 01 94 60  0F 01 74 77 62 30 2B 94  ...`...`..twb0+.
0EC0: 60 0F 01 86 80 23 2B 94  60 0F 01 87 80 23 52 22  `....#+.`....#R"
0ED0: 80 F0 FF FF 7F F0 FF FF  7F 61 32 30 32 45 22 80  .........a202E".
0EE0: F0 FF FF 7F F0 FF FF 7F  61 32 30 33 01 80 66 08  ........a203..f.
0EF0: 80 94 60 0F 01 94 60 0F  01 74 77 62 31 2B 94 60  ..`...`..twb1+.`
0F00: 0F 01 88 80 23 53 94 60  0F 01 94 60 0F 01 74 77  ....#S.`...`..tw
0F10: 62 31 52 22 80 F0 FF FF  7F F0 FF FF 7F 61 32 30  b1R".........a20
0F20: 33 45 22 80 F0 FF FF 7F  F0 FF FF 7F 61 32 30 34  3E".........a204
0F30: 01 80 66 89 80 94 60 0F  01 94 60 0F 01 70 61 73  ..f...`...`..pas
0F40: 30 2B 94 60 0F 01 8A 80  23 53 94 60 0F 01 94 60  0+.`....#S.`...`
0F50: 0F 01 70 61 73 30 03 02  10 8B 80 2B 94 60 0F 01  ..pas0.....+.`..
0F60: 8C 80 23 6E 94 60 0F 01  01 80 99 94 60 0F 01 52  ..#n.`......`..R
0F70: 22 80 F0 FF FF 7F F0 FF  FF 7F 61 32 30 34 45 22  ".........a204E"
0F80: 80 F0 FF FF 7F F0 FF FF  7F 61 32 30 35 01 80 2B  .........a205..+
0F90: 94 60 0F 01 8D 80 23 2B  94 60 0F 01 8E 80 23 7B  .`....#+.`....#{
0FA0: 94 60 0F 01 52 22 80 F0  FF FF 7F F0 FF FF 7F 61  .`..R".........a
0FB0: 32 30 35 45 22 80 F0 FF  FF 7F F0 FF FF 7F 61 32  205E".........a2
0FC0: 30 36 01 80 66 08 80 94  60 0F 01 94 60 0F 01 74  06..f...`...`..t
0FD0: 68 6B 31 2B 94 60 0F 01  8F 80 23 02 04 00 05 80  hk1+.`....#.....
0FE0: 00 EB 0F 2B 94 60 0F 01  90 80 23 02 05 00 05 80  ...+.`....#.....
0FF0: 00 FB 0F 2B 94 60 0F 01  91 80 23 02 06 00 05 80  ...+.`....#.....
1000: 00 0B 10 2B 94 60 0F 01  92 80 23 52 22 80 F0 FF  ...+.`....#R"...
1010: FF 7F F0 FF FF 7F 61 32  30 36 45 22 80 F0 FF FF  ......a206E"....
1020: 7F F0 FF FF 7F 61 32 30  37 01 80 66 08 80 94 60  .....a207..f...`
1030: 0F 01 94 60 0F 01 74 68  6B 32 03 03 10 07 00 2B  ...`..thk2.....+
1040: 94 60 0F 01 93 80 23 5D  01 80 24 80 2B 94 60 0F  .`....#]..$.+.`.
1050: 01 94 80 23 53 94 60 0F  01 94 60 0F 01 74 68 6B  ...#S.`...`..thk
1060: 32 52 22 80 F0 FF FF 7F  F0 FF FF 7F 61 32 30 37  2R".........a207
1070: 45 22 80 F0 FF FF 7F F0  FF FF 7F 61 32 30 38 01  E".........a208.
1080: 80 5B 95 80 94 60 0F 01  94 60 0F 01 62 6F 6B 30  .[...`...`..bok0
1090: 2B 94 60 0F 01 96 80 23  2B 94 60 0F 01 97 80 23  +.`....#+.`....#
10A0: 52 22 80 F0 FF FF 7F F0  FF FF 7F 61 32 30 38 45  R".........a208E
10B0: 22 80 F0 FF FF 7F F0 FF  FF 7F 61 32 30 39 01 80  ".........a209..
10C0: 5B 95 80 94 60 0F 01 94  60 0F 01 62 6F 6B 31 2B  [...`...`..bok1+
10D0: 94 60 0F 01 98 80 23 1A  B1 21 1C 07 80 52 22 80  .`....#..!...R".
10E0: F0 FF FF 7F F0 FF FF 7F  61 32 30 39 45 22 80 F0  ........a209E"..
10F0: FF FF 7F F0 FF FF 7F 30  62 6C 66 01 80 5C 00 21  .......0blf..\.!
1100: 80 5C 01 21 80 9A 46 00  45 7D 80 F0 FF FF 7F F0  .\.!..F.E}......
1110: FF FF 7F 66 64 69 32 01  80 21 00                 ...fdi2..!.     
```

#### Opcodes

```
  0: 0x0C25 [0x42] SET_CLI_EVENT_CANCEL_DATA()
  1: 0x0C26 [0x1A] CALL_SUBROUTINE(address=0x21B1)
  2: 0x0C29 [0x03] ExtData[1]->WorkLocal[4] = Work_Zone[6]
  3: 0x0C2E [0x03] ExtData[1]->WorkLocal[5] = Work_Zone[7]
  4: 0x0C33 [0x03] ExtData[1]->WorkLocal[6] = Work_Zone[8]
  5: 0x0C38 [0x03] ExtData[1]->WorkLocal[7] = Work_Zone[9]
  6: 0x0C3D [0x46] CAMERA_CONTROL: Disable user control
  7: 0x0C3F [0x38] SET_CLIENT_EVENT_MODE(mode=19*)
  8: 0x0C42 [0x92] Joachim (ID: 17784980/0x010F6094)->Render.Flags3 ^= 0x01
  9: 0x0C48 [0x94] LocalPlayer->Render.Flags3 ^= 0x01
 10: 0x0C4E [0x94] Joachim (ID: 17784980/0x010F6094)->Render.Flags3 ^= 0x01
 11: 0x0C54 [0xBA] SET_ENTITY_POSITION(entity_id=LocalPlayer, pos_x=-53.419*, pos_z=-8.091*, pos_y=0.000*, direction=72.0°*)
 12: 0x0C61 [0x80] LOAD_WAIT(entity=LocalPlayer)
 13: 0x0C66 [0x80] LOAD_WAIT(entity=Joachim (ID: 17784980/0x010F6094))
 14: 0x0C6B [0x1C] WAIT(30* ticks)
 15: 0x0C6E [0x4A] Joachim (ID: 17784980/0x010F6094) looks at LocalPlayer
 16: 0x0C77 [0x4A] LocalPlayer looks at Joachim (ID: 17784980/0x010F6094)
 17: 0x0C80 [0x6F] WAIT_FRAME_DELAY: Yield until WaitTime reaches zero
 18: 0x0C81 [0x76] CHECK_ENTITY_RENDER_FLAGS: Wait until LocalPlayer Render.Flags0 and Render.Flags3 conditions are met
 19: 0x0C86 [0x45] LOAD_SCHEDULED_TASK: Load scheduler "a200" with entities [LocalPlayer, LocalPlayer], work=[488*, 0*]
 20: 0x0C97 [0x1A] CALL_SUBROUTINE(address=0x2190)
 21: 0x0C9A [0x66] LOAD_EXT_SCHEDULER_MAIN: Load scheduler "twa0" with entities [Joachim (ID: 17784980/0x010F6094), Joachim (ID: 17784980/0x010F6094)], work=9*
 22: 0x0CA9 [0x2B] Joachim (ID: 17784980/0x010F6094) [8412*]:
    → "Well, if it isn't <Player>. I knew ye'd come seekin' answers sooner or later."
 23: 0x0CB0 [0x23] WAIT_FOR_DIALOG_INTERACTION
 24: 0x0CB1 [0x66] LOAD_EXT_SCHEDULER_MAIN: Load scheduler "twa1" with entities [Joachim (ID: 17784980/0x010F6094), Joachim (ID: 17784980/0x010F6094)], work=9*
 25: 0x0CC0 [0x29] REQ_SET_WAIT(priority=0x10, entity_id=LocalPlayer, tag_num=0x28)
 26: 0x0CC7 [0x52] END_LOAD_SCHEDULER: End scheduler "a200" with entities [LocalPlayer, LocalPlayer], work=488*
 27: 0x0CD6 [0x45] LOAD_SCHEDULED_TASK: Load scheduler "a201" with entities [LocalPlayer, LocalPlayer], work=[488*, 0*]
 28: 0x0CE7 [0x2B] Joachim (ID: 17784980/0x010F6094) [8413*]:
    → "So ye be wantin' t' know 'bout the strange flash of light ye saw..."
 29: 0x0CEE [0x23] WAIT_FOR_DIALOG_INTERACTION
 30: 0x0CEF [0x6E] Joachim (ID: 17784980/0x010F6094) uses emote 4*
 31: 0x0CF6 [0x99] Wait for Joachim (ID: 17784980/0x010F6094) animation to complete
 32: 0x0CFB [0x2B] Joachim (ID: 17784980/0x010F6094) [8414*]:
    → "I'm not one fer beatin' 'round the bush, so I'll say it straight. What ye witnessed was a phenomenon called "noise"--the irregular brushin' of one dimension against another. Ordinary folk don't see such things, mind ye. So I s'pose that makes ye extra-ordinary."
 33: 0x0D02 [0x23] WAIT_FOR_DIALOG_INTERACTION
 34: 0x0D03 [0x52] END_LOAD_SCHEDULER: End scheduler "a201" with entities [LocalPlayer, LocalPlayer], work=488*
 35: 0x0D12 [0x29] REQ_SET_WAIT(priority=0x10, entity_id=LocalPlayer, tag_num=0x20)
 36: 0x0D19 [0x02] IF !(Work_Zone[2] == 1*) GOTO 0x0D35
 37: 0x0D21 [0x45] LOAD_SCHEDULED_TASK: Load scheduler "a2md" with entities [LocalPlayer, LocalPlayer], work=[488*, 0*]
 38: 0x0D32 [0x01] GOTO 0x0DF9
 39: 0x0D35 [0x02] IF !(Work_Zone[2] == 2*) GOTO 0x0D51
 40: 0x0D3D [0x45] LOAD_SCHEDULED_TASK: Load scheduler "a2md" with entities [LocalPlayer, LocalPlayer], work=[488*, 0*]
 41: 0x0D4E [0x01] GOTO 0x0DF9
 42: 0x0D51 [0x02] IF !(Work_Zone[2] == 3*) GOTO 0x0D6D
 43: 0x0D59 [0x45] LOAD_SCHEDULED_TASK: Load scheduler "a2ll" with entities [LocalPlayer, LocalPlayer], work=[488*, 0*]
 44: 0x0D6A [0x01] GOTO 0x0DF9
 45: 0x0D6D [0x02] IF !(Work_Zone[2] == 4*) GOTO 0x0D89
 46: 0x0D75 [0x45] LOAD_SCHEDULED_TASK: Load scheduler "a2ll" with entities [LocalPlayer, LocalPlayer], work=[488*, 0*]
 47: 0x0D86 [0x01] GOTO 0x0DF9
 48: 0x0D89 [0x02] IF !(Work_Zone[2] == 5*) GOTO 0x0DA5
 49: 0x0D91 [0x45] LOAD_SCHEDULED_TASK: Load scheduler "a2tr" with entities [LocalPlayer, LocalPlayer], work=[488*, 0*]
 50: 0x0DA2 [0x01] GOTO 0x0DF9
 51: 0x0DA5 [0x02] IF !(Work_Zone[2] == 6*) GOTO 0x0DC1
 52: 0x0DAD [0x45] LOAD_SCHEDULED_TASK: Load scheduler "a2tr" with entities [LocalPlayer, LocalPlayer], work=[488*, 0*]
 53: 0x0DBE [0x01] GOTO 0x0DF9
 54: 0x0DC1 [0x02] IF !(Work_Zone[2] == 7*) GOTO 0x0DDD
 55: 0x0DC9 [0x45] LOAD_SCHEDULED_TASK: Load scheduler "a2md" with entities [LocalPlayer, LocalPlayer], work=[488*, 0*]
 56: 0x0DDA [0x01] GOTO 0x0DF9
 57: 0x0DDD [0x02] IF !(Work_Zone[2] == 8*) GOTO 0x0DF9
 58: 0x0DE5 [0x45] LOAD_SCHEDULED_TASK: Load scheduler "a2ll" with entities [LocalPlayer, LocalPlayer], work=[488*, 0*]
 59: 0x0DF6 [0x01] GOTO 0x0DF9

SUBROUTINE_0DF9:
 60: 0x0DF9 [0x5D] SET_MUSIC_VOLUME(volume=0*, fade_time=120*)
 61: 0x0DFE [0x2B] Joachim (ID: 17784980/0x010F6094) [8415*]:
    → "Me theory's that ye've got a natural attunement t' the phasic alignment of our dimensions. That be the potential I spoke of when I found ye sprawled on the ground."
 62: 0x0E05 [0x23] WAIT_FOR_DIALOG_INTERACTION
 63: 0x0E06 [0x1C] WAIT(120* ticks)
 64: 0x0E09 [0x7C] Joachim (ID: 17784980/0x010F6094)->Render.Flags2 |= 0x00
 65: 0x0E0F [0x2B] Joachim (ID: 17784980/0x010F6094) [8416*]:
    → "..."
 66: 0x0E16 [0x23] WAIT_FOR_DIALOG_INTERACTION
 67: 0x0E17 [0x7C] Joachim (ID: 17784980/0x010F6094)->Render.Flags2 |= 0x01
 68: 0x0E1D [0x5C] MUSIC_CONTROL: Set Idle (Day) music to song 51*
 69: 0x0E21 [0x5C] MUSIC_CONTROL: Set Idle (Night) music to song 51*
 70: 0x0E25 [0x9A] WAIT_MUSIC_SERVER()
 71: 0x0E26 [0x52] END_LOAD_SCHEDULER: End scheduler "a2md" with entities [LocalPlayer, LocalPlayer], work=488*
 72: 0x0E35 [0x52] END_LOAD_SCHEDULER: End scheduler "a2md" with entities [LocalPlayer, LocalPlayer], work=488*
 73: 0x0E44 [0x52] END_LOAD_SCHEDULER: End scheduler "a2ll" with entities [LocalPlayer, LocalPlayer], work=488*
 74: 0x0E53 [0x52] END_LOAD_SCHEDULER: End scheduler "a2ll" with entities [LocalPlayer, LocalPlayer], work=488*
 75: 0x0E62 [0x52] END_LOAD_SCHEDULER: End scheduler "a2tr" with entities [LocalPlayer, LocalPlayer], work=488*
 76: 0x0E71 [0x52] END_LOAD_SCHEDULER: End scheduler "a2tr" with entities [LocalPlayer, LocalPlayer], work=488*
 77: 0x0E80 [0x52] END_LOAD_SCHEDULER: End scheduler "a2md" with entities [LocalPlayer, LocalPlayer], work=488*
 78: 0x0E8F [0x52] END_LOAD_SCHEDULER: End scheduler "a2ll" with entities [LocalPlayer, LocalPlayer], work=488*
 79: 0x0E9E [0x45] LOAD_SCHEDULED_TASK: Load scheduler "a202" with entities [LocalPlayer, LocalPlayer], work=[488*, 0*]
 80: 0x0EAF [0x66] LOAD_EXT_SCHEDULER_MAIN: Load scheduler "twb0" with entities [Joachim (ID: 17784980/0x010F6094), Joachim (ID: 17784980/0x010F6094)], work=9*
 81: 0x0EBE [0x2B] Joachim (ID: 17784980/0x010F6094) [8417*]:
    → "Ye look a bit out o' sorts, an' I don't blame ye. The truth can be a bitter draught t' swallow, I know."
 82: 0x0EC5 [0x23] WAIT_FOR_DIALOG_INTERACTION
 83: 0x0EC6 [0x2B] Joachim (ID: 17784980/0x010F6094) [8418*]:
    → "I'd love nothin' more than to say this is jus' some hearth tale, I would. We'd all be happier that way, t' be sure. But what's an adventurer if [he/she] turns [his/her] back t' reality?"
 84: 0x0ECD [0x23] WAIT_FOR_DIALOG_INTERACTION
 85: 0x0ECE [0x52] END_LOAD_SCHEDULER: End scheduler "a202" with entities [LocalPlayer, LocalPlayer], work=488*
 86: 0x0EDD [0x45] LOAD_SCHEDULED_TASK: Load scheduler "a203" with entities [LocalPlayer, LocalPlayer], work=[488*, 0*]
 87: 0x0EEE [0x66] LOAD_EXT_SCHEDULER_MAIN: Load scheduler "twb1" with entities [Joachim (ID: 17784980/0x010F6094), Joachim (ID: 17784980/0x010F6094)], work=9*
 88: 0x0EFD [0x2B] Joachim (ID: 17784980/0x010F6094) [8419*]:
    → "Now, this isn't t' say that I take ye fer a faithless type, but I've got a feelin' that simple words won't do. Some things a [man/woman]'s jus' got t' see with [his/her] own two eyes."
 89: 0x0F04 [0x23] WAIT_FOR_DIALOG_INTERACTION
 90: 0x0F05 [0x53] WAIT_SCHEDULER_TASK: Wait for scheduler "twb1" with entities [Joachim (ID: 17784980/0x010F6094), Joachim (ID: 17784980/0x010F6094)]
 91: 0x0F12 [0x52] END_LOAD_SCHEDULER: End scheduler "a203" with entities [LocalPlayer, LocalPlayer], work=488*
 92: 0x0F21 [0x45] LOAD_SCHEDULED_TASK: Load scheduler "a204" with entities [LocalPlayer, LocalPlayer], work=[488*, 0*]
 93: 0x0F32 [0x66] LOAD_EXT_SCHEDULER_MAIN: Load scheduler "pas0" with entities [Joachim (ID: 17784980/0x010F6094), Joachim (ID: 17784980/0x010F6094)], work=71*
 94: 0x0F41 [0x2B] Joachim (ID: 17784980/0x010F6094) [8420*]:
    → "So I want ye to have this."
 95: 0x0F48 [0x23] WAIT_FOR_DIALOG_INTERACTION
 96: 0x0F49 [0x53] WAIT_SCHEDULER_TASK: Wait for scheduler "pas0" with entities [Joachim (ID: 17784980/0x010F6094), Joachim (ID: 17784980/0x010F6094)]
 97: 0x0F56 [0x03] Work_Zone[2] = 1271*
 98: 0x0F5B [0x2B] Joachim (ID: 17784980/0x010F6094) [8421*]:
    → "It's $6."
 99: 0x0F62 [0x23] WAIT_FOR_DIALOG_INTERACTION
100: 0x0F63 [0x6E] Joachim (ID: 17784980/0x010F6094) uses emote 0*
101: 0x0F6A [0x99] Wait for Joachim (ID: 17784980/0x010F6094) animation to complete
102: 0x0F6F [0x52] END_LOAD_SCHEDULER: End scheduler "a204" with entities [LocalPlayer, LocalPlayer], work=488*
103: 0x0F7E [0x45] LOAD_SCHEDULED_TASK: Load scheduler "a205" with entities [LocalPlayer, LocalPlayer], work=[488*, 0*]
104: 0x0F8F [0x2B] Joachim (ID: 17784980/0x010F6094) [8422*]:
    → "If ye've truly got the potential I marked ye fer, that stone there'll guide ye on yer way. Take it with ye an' pay a visit t' one of them cavernous maws."
105: 0x0F96 [0x23] WAIT_FOR_DIALOG_INTERACTION
106: 0x0F97 [0x2B] Joachim (ID: 17784980/0x010F6094) [8423*]:
    → "Ye know of those ghastly things, aye?"
107: 0x0F9E [0x23] WAIT_FOR_DIALOG_INTERACTION
108: 0x0F9F [0x7B] Joachim (ID: 17784980/0x010F6094) stops talking
109: 0x0FA4 [0x52] END_LOAD_SCHEDULER: End scheduler "a205" with entities [LocalPlayer, LocalPlayer], work=488*
110: 0x0FB3 [0x45] LOAD_SCHEDULED_TASK: Load scheduler "a206" with entities [LocalPlayer, LocalPlayer], work=[488*, 0*]
111: 0x0FC4 [0x66] LOAD_EXT_SCHEDULER_MAIN: Load scheduler "thk1" with entities [Joachim (ID: 17784980/0x010F6094), Joachim (ID: 17784980/0x010F6094)], work=9*
112: 0x0FD3 [0x2B] Joachim (ID: 17784980/0x010F6094) [8424*]:
    → "Mind ye, the ones that're frozen like stiffs won't serve."
113: 0x0FDA [0x23] WAIT_FOR_DIALOG_INTERACTION
114: 0x0FDB [0x02] IF !(ExtData[1]->WorkLocal[4] == 1*) GOTO 0x0FEB
115: 0x0FE3 [0x2B] Joachim (ID: 17784980/0x010F6094) [8425*]:
    → "La Theine Plateau, Konschtat Highlands, Tahrongi Canyon..."
116: 0x0FEA [0x23] WAIT_FOR_DIALOG_INTERACTION
117: 0x0FEB [0x02] IF !(ExtData[1]->WorkLocal[5] == 1*) GOTO 0x0FFB
118: 0x0FF3 [0x2B] Joachim (ID: 17784980/0x010F6094) [8426*]:
    → "Jugner Forest, Valkurm Dunes, Buburimu Peninsula..."
119: 0x0FFA [0x23] WAIT_FOR_DIALOG_INTERACTION
120: 0x0FFB [0x02] IF !(ExtData[1]->WorkLocal[6] == 1*) GOTO 0x100B
121: 0x1003 [0x2B] Joachim (ID: 17784980/0x010F6094) [8427*]:
    → "Xarcabard, North Gustaberg, South Gustaberg..."
122: 0x100A [0x23] WAIT_FOR_DIALOG_INTERACTION
123: 0x100B [0x52] END_LOAD_SCHEDULER: End scheduler "a206" with entities [LocalPlayer, LocalPlayer], work=488*
124: 0x101A [0x45] LOAD_SCHEDULED_TASK: Load scheduler "a207" with entities [LocalPlayer, LocalPlayer], work=[488*, 0*]
125: 0x102B [0x66] LOAD_EXT_SCHEDULER_MAIN: Load scheduler "thk2" with entities [Joachim (ID: 17784980/0x010F6094), Joachim (ID: 17784980/0x010F6094)], work=9*
126: 0x103A [0x03] Work_Zone[3] = ExtData[1]->WorkLocal[7]
127: 0x103F [0x2B] Joachim (ID: 17784980/0x010F6094) [8428*]:
    → "There be maws in these areas what've been freed from their inanimate state. What be the reason fer this, though, yer coin's as good as mine."
128: 0x1046 [0x23] WAIT_FOR_DIALOG_INTERACTION
129: 0x1047 [0x5D] SET_MUSIC_VOLUME(volume=0*, fade_time=300*)
130: 0x104C [0x2B] Joachim (ID: 17784980/0x010F6094) [8429*]:
    → "Now that ye know where the answer awaits, the rest is in yer hands."
131: 0x1053 [0x23] WAIT_FOR_DIALOG_INTERACTION
132: 0x1054 [0x53] WAIT_SCHEDULER_TASK: Wait for scheduler "thk2" with entities [Joachim (ID: 17784980/0x010F6094), Joachim (ID: 17784980/0x010F6094)]
133: 0x1061 [0x52] END_LOAD_SCHEDULER: End scheduler "a207" with entities [LocalPlayer, LocalPlayer], work=488*
134: 0x1070 [0x45] LOAD_SCHEDULED_TASK: Load scheduler "a208" with entities [LocalPlayer, LocalPlayer], work=[488*, 0*]
135: 0x1081 [0x5B] LOAD_EXT_SCHEDULER: Load scheduler "bok0" with entities [Joachim (ID: 17784980/0x010F6094), Joachim (ID: 17784980/0x010F6094)], work=1296*
136: 0x1090 [0x2B] Joachim (ID: 17784980/0x010F6094) [8430*]:
    → "But I leave ye with a word of warnin'. Seek the truth with frivolous intent, and it'll cost ye yer life."
137: 0x1097 [0x23] WAIT_FOR_DIALOG_INTERACTION
138: 0x1098 [0x2B] Joachim (ID: 17784980/0x010F6094) [8431*]:
    → "That's no idle threat, but simply the way it is."
139: 0x109F [0x23] WAIT_FOR_DIALOG_INTERACTION
140: 0x10A0 [0x52] END_LOAD_SCHEDULER: End scheduler "a208" with entities [LocalPlayer, LocalPlayer], work=488*
141: 0x10AF [0x45] LOAD_SCHEDULED_TASK: Load scheduler "a209" with entities [LocalPlayer, LocalPlayer], work=[488*, 0*]
142: 0x10C0 [0x5B] LOAD_EXT_SCHEDULER: Load scheduler "bok1" with entities [Joachim (ID: 17784980/0x010F6094), Joachim (ID: 17784980/0x010F6094)], work=1296*
143: 0x10CF [0x2B] Joachim (ID: 17784980/0x010F6094) [8432*]:
    → "Never ye be forgettin' my words."
144: 0x10D6 [0x23] WAIT_FOR_DIALOG_INTERACTION
145: 0x10D7 [0x1A] CALL_SUBROUTINE(address=0x21B1)
146: 0x10DA [0x1C] WAIT(30* ticks)
147: 0x10DD [0x52] END_LOAD_SCHEDULER: End scheduler "a209" with entities [LocalPlayer, LocalPlayer], work=488*
148: 0x10EC [0x45] LOAD_SCHEDULED_TASK: Load scheduler "0blf" with entities [LocalPlayer, LocalPlayer], work=[488*, 0*]
149: 0x10FD [0x5C] MUSIC_CONTROL: Set Idle (Day) music to song 110*
150: 0x1101 [0x5C] MUSIC_CONTROL: Set Idle (Night) music to song 110*
151: 0x1105 [0x9A] WAIT_MUSIC_SERVER()
152: 0x1106 [0x46] CAMERA_CONTROL: Restore default settings
153: 0x1108 [0x45] LOAD_SCHEDULED_TASK: Load scheduler "fdi2" with entities [LocalPlayer, LocalPlayer], work=[200*, 0*]
154: 0x1119 [0x21] END_EVENT
155: 0x111A [0x00] END_REQSTACK()
```

### Event 326

#### Metadata

| Field        | Value     |
|--------------|-----------|
| Entrypoint   | 0x111B    |
| Data Size    | 240 bytes |
| Instructions | 44        |

```
      00 01 02 03 04 05 06 07  08 09 0A 0B 0C 0D 0E 0F
      -- -- -- -- -- -- -- --  -- -- -- -- -- -- -- --
1110:                                   03 04 00 06 10             .....
1120: 03 05 00 07 10 03 06 00  08 10 03 07 00 09 10 4A  ...............J
1130: F0 FF FF 7F 94 60 0F 01  4A 94 60 0F 01 F0 FF FF  .....`..J.`.....
1140: 7F 6F 76 94 60 0F 01 2B  94 60 0F 01 99 80 23 03  .ov.`..+.`....#.
1150: 02 10 8B 80 24 9A 80 01  80 01 80 25 02 00 10 01  ....$......%....
1160: 80 00 7B 11 6E 94 60 0F  01 01 80 99 94 60 0F 01  ..{.n.`......`..
1170: 2B 94 60 0F 01 9B 80 23  01 09 12 02 00 10 05 80  +.`....#........
1180: 00 F6 11 66 08 80 94 60  0F 01 94 60 0F 01 74 68  ...f...`...`..th
1190: 6B 31 2B 94 60 0F 01 9C  80 23 02 04 00 05 80 00  k1+.`....#......
11A0: AA 11 2B 94 60 0F 01 90  80 23 02 05 00 05 80 00  ..+.`....#......
11B0: BA 11 2B 94 60 0F 01 91  80 23 02 06 00 05 80 00  ..+.`....#......
11C0: CA 11 2B 94 60 0F 01 92  80 23 03 03 10 07 00 2B  ..+.`....#.....+
11D0: 94 60 0F 01 9D 80 23 66  08 80 94 60 0F 01 94 60  .`....#f...`...`
11E0: 0F 01 74 68 6B 32 53 94  60 0F 01 94 60 0F 01 74  ..thk2S.`...`..t
11F0: 68 6B 32 01 09 12 02 00  10 38 80 00 09 12 2B 94  hk2......8....+.
1200: 60 0F 01 9E 80 23 01 09  12 21 00                 `....#...!.     
```

#### Opcodes

```
  0: 0x111B [0x03] ExtData[1]->WorkLocal[4] = Work_Zone[6]
  1: 0x1120 [0x03] ExtData[1]->WorkLocal[5] = Work_Zone[7]
  2: 0x1125 [0x03] ExtData[1]->WorkLocal[6] = Work_Zone[8]
  3: 0x112A [0x03] ExtData[1]->WorkLocal[7] = Work_Zone[9]
  4: 0x112F [0x4A] LocalPlayer looks at Joachim (ID: 17784980/0x010F6094)
  5: 0x1138 [0x4A] Joachim (ID: 17784980/0x010F6094) looks at LocalPlayer
  6: 0x1141 [0x6F] WAIT_FRAME_DELAY: Yield until WaitTime reaches zero
  7: 0x1142 [0x76] CHECK_ENTITY_RENDER_FLAGS: Wait until Joachim (ID: 17784980/0x010F6094) Render.Flags0 and Render.Flags3 conditions are met
  8: 0x1147 [0x2B] Joachim (ID: 17784980/0x010F6094) [8433*]:
    → "Well met, <Player>. Anythin' I can help ye with?"
  9: 0x114E [0x23] WAIT_FOR_DIALOG_INTERACTION
 10: 0x114F [0x03] Work_Zone[2] = 1271*
 11: 0x1154 [0x24] CREATE_DIALOG(message_id=8434*, default_option=0*, option_flags=0*)
    → "What do you want to know? [I want $6./About the cavernous maws./Nothing.]"
 12: 0x115B [0x25] WAIT_DIALOG_SELECT()
 13: 0x115C [0x02] IF !(Work_Zone[0] == 0*) GOTO 0x117B
 14: 0x1164 [0x6E] Joachim (ID: 17784980/0x010F6094) uses emote 0*
 15: 0x116B [0x99] Wait for Joachim (ID: 17784980/0x010F6094) animation to complete
 16: 0x1170 [0x2B] Joachim (ID: 17784980/0x010F6094) [8438*]:
    → "All in good time, [mate/lass]. Whether yer potential's equal the $3's worth remains t' be seen. One should be more than enough fer the nonce."
 17: 0x1177 [0x23] WAIT_FOR_DIALOG_INTERACTION
 18: 0x1178 [0x01] GOTO 0x1209
 19: 0x117B [0x02] IF !(Work_Zone[0] == 1*) GOTO 0x11F6
 20: 0x1183 [0x66] LOAD_EXT_SCHEDULER_MAIN: Load scheduler "thk1" with entities [Joachim (ID: 17784980/0x010F6094), Joachim (ID: 17784980/0x010F6094)], work=9*
 21: 0x1192 [0x2B] Joachim (ID: 17784980/0x010F6094) [8436*]:
    → "The maws tickle yer fancy, eh?"
 22: 0x1199 [0x23] WAIT_FOR_DIALOG_INTERACTION
 23: 0x119A [0x02] IF !(ExtData[1]->WorkLocal[4] == 1*) GOTO 0x11AA
 24: 0x11A2 [0x2B] Joachim (ID: 17784980/0x010F6094) [8425*]:
    → "La Theine Plateau, Konschtat Highlands, Tahrongi Canyon..."
 25: 0x11A9 [0x23] WAIT_FOR_DIALOG_INTERACTION
 26: 0x11AA [0x02] IF !(ExtData[1]->WorkLocal[5] == 1*) GOTO 0x11BA
 27: 0x11B2 [0x2B] Joachim (ID: 17784980/0x010F6094) [8426*]:
    → "Jugner Forest, Valkurm Dunes, Buburimu Peninsula..."
 28: 0x11B9 [0x23] WAIT_FOR_DIALOG_INTERACTION
 29: 0x11BA [0x02] IF !(ExtData[1]->WorkLocal[6] == 1*) GOTO 0x11CA
 30: 0x11C2 [0x2B] Joachim (ID: 17784980/0x010F6094) [8427*]:
    → "Xarcabard, North Gustaberg, South Gustaberg..."
 31: 0x11C9 [0x23] WAIT_FOR_DIALOG_INTERACTION
 32: 0x11CA [0x03] Work_Zone[3] = ExtData[1]->WorkLocal[7]
 33: 0x11CF [0x2B] Joachim (ID: 17784980/0x010F6094) [8437*]:
    → "These [zero/three/six/nine] areas're where ye'll find the thawed maws."
 34: 0x11D6 [0x23] WAIT_FOR_DIALOG_INTERACTION
 35: 0x11D7 [0x66] LOAD_EXT_SCHEDULER_MAIN: Load scheduler "thk2" with entities [Joachim (ID: 17784980/0x010F6094), Joachim (ID: 17784980/0x010F6094)], work=9*
 36: 0x11E6 [0x53] WAIT_SCHEDULER_TASK: Wait for scheduler "thk2" with entities [Joachim (ID: 17784980/0x010F6094), Joachim (ID: 17784980/0x010F6094)]
 37: 0x11F3 [0x01] GOTO 0x1209
 38: 0x11F6 [0x02] IF !(Work_Zone[0] == 2*) GOTO 0x1209
 39: 0x11FE [0x2B] Joachim (ID: 17784980/0x010F6094) [8435*]:
    → "Nothin' I can do? I'll be right here if ye change yer mind."
 40: 0x1205 [0x23] WAIT_FOR_DIALOG_INTERACTION
 41: 0x1206 [0x01] GOTO 0x1209

SUBROUTINE_1209:
 42: 0x1209 [0x21] END_EVENT
 43: 0x120A [0x00] END_REQSTACK()
```

### Event 327

#### Metadata

| Field        | Value      |
|--------------|------------|
| Entrypoint   | 0x120B     |
| Data Size    | 1719 bytes |
| Instructions | 219        |

```
      00 01 02 03 04 05 06 07  08 09 0A 0B 0C 0D 0E 0F
      -- -- -- -- -- -- -- --  -- -- -- -- -- -- -- --
1200:                                   42 1A B1 21 46             B..!F
1210: 01 03 09 00 02 10 03 01  00 04 10 38 02 80 4E 00  ...........8..N.
1220: 90 60 0F 01 92 01 94 60  0F 01 94 01 F0 FF FF 7F  .`.....`........
1230: 94 01 94 60 0F 01 94 01  90 60 0F 01 BA F0 FF FF  ...`.....`......
1240: 7F 7E 80 7F 80 01 80 80  80 BA 90 60 0F 01 9F 80  .~.........`....
1250: A0 80 01 80 A1 80 80 F0  FF FF 7F 80 94 60 0F 01  .............`..
1260: 1C 07 80 4A 94 60 0F 01  F0 FF FF 7F 4A F0 FF FF  ...J.`......J...
1270: 7F 94 60 0F 01 6F 76 F0  FF FF 7F 29 10 F0 FF FF  ..`..ov....)....
1280: 7F 20 02 02 10 05 80 80  9E 12 45 22 80 F0 FF FF  . ........E"....
1290: 7F F0 FF FF 7F 61 33 6D  6D 01 80 01 62 13 02 02  .....a3mm...b...
12A0: 10 38 80 80 BA 12 45 22  80 F0 FF FF 7F F0 FF FF  .8....E"........
12B0: 7F 61 33 6D 6D 01 80 01  62 13 02 02 10 39 80 80  .a3mm...b....9..
12C0: D6 12 45 22 80 F0 FF FF  7F F0 FF FF 7F 61 33 6C  ..E".........a3l
12D0: 6C 01 80 01 62 13 02 02  10 3A 80 80 F2 12 45 22  l...b....:....E"
12E0: 80 F0 FF FF 7F F0 FF FF  7F 61 33 6C 6C 01 80 01  .........a3ll...
12F0: 62 13 02 02 10 3B 80 80  0E 13 45 22 80 F0 FF FF  b....;....E"....
1300: 7F F0 FF FF 7F 61 33 73  73 01 80 01 62 13 02 02  .....a3ss...b...
1310: 10 3C 80 80 2A 13 45 22  80 F0 FF FF 7F F0 FF FF  .<..*.E"........
1320: 7F 61 33 73 73 01 80 01  62 13 02 02 10 3D 80 80  .a3ss...b....=..
1330: 46 13 45 22 80 F0 FF FF  7F F0 FF FF 7F 61 33 6D  F.E".........a3m
1340: 6D 01 80 01 62 13 02 02  10 31 80 80 62 13 45 22  m...b....1..b.E"
1350: 80 F0 FF FF 7F F0 FF FF  7F 61 33 6C 6C 01 80 01  .........a3ll...
1360: 62 13 1A 90 21 5D 01 80  34 80 79 00 94 60 0F 01  b...!]..4.y..`..
1370: 90 60 0F 01 27 10 94 60  0F 01 14 1C 32 80 6E F0  .`..'..`....2.n.
1380: FF FF 7F A2 80 99 F0 FF  FF 7F 2B 94 60 0F 01 A3  ..........+.`...
1390: 80 23 2A 10 94 60 0F 01  52 22 80 F0 FF FF 7F F0  .#*..`..R"......
13A0: FF FF 7F 61 33 6D 64 52  22 80 F0 FF FF 7F F0 FF  ...a3mdR".......
13B0: FF 7F 61 33 6C 6C 52 22  80 F0 FF FF 7F F0 FF FF  ..a3llR"........
13C0: 7F 61 33 74 72 45 22 80  F0 FF FF 7F F0 FF FF 7F  .a3trE".........
13D0: 61 33 30 30 01 80 2B 94  60 0F 01 A4 80 23 2B 94  a300..+.`....#+.
13E0: 60 0F 01 A5 80 23 5C 00  A6 80 5C 01 A6 80 9A 52  `....#\...\....R
13F0: 22 80 F0 FF FF 7F F0 FF  FF 7F 61 33 30 30 45 22  ".........a300E"
1400: 80 F0 FF FF 7F F0 FF FF  7F 61 33 30 31 01 80 79  .........a301..y
1410: 00 94 60 0F 01 F0 FF FF  7F 27 10 94 60 0F 01 15  ..`......'..`...
1420: 1C A7 80 2B 94 60 0F 01  A8 80 23 2A 10 94 60 0F  ...+.`....#*..`.
1430: 01 59 05 90 60 0F 01 01  BA 90 60 0F 01 A9 80 AA  .Y..`.....`.....
1440: 80 AB 80 A1 80 52 22 80  F0 FF FF 7F F0 FF FF 7F  .....R".........
1450: 61 33 30 31 45 22 80 F0  FF FF 7F F0 FF FF 7F 61  a301E".........a
1460: 33 30 32 01 80 59 03 94  60 0F 01 36 80 79 00 94  302..Y..`..6.y..
1470: 60 0F 01 90 60 0F 01 1C  32 80 2B 94 60 0F 01 AC  `...`...2.+.`...
1480: 80 1C 34 80 23 59 03 94  60 0F 01 AD 80 7B 94 60  ..4.#Y..`....{.`
1490: 0F 01 2B 94 60 0F 01 AE  80 23 52 22 80 F0 FF FF  ..+.`....#R"....
14A0: 7F F0 FF FF 7F 61 33 30  32 45 22 80 F0 FF FF 7F  .....a302E".....
14B0: F0 FF FF 7F 61 33 30 33  01 80 6E 94 60 0F 01 3C  ....a303..n.`..<
14C0: 80 99 94 60 0F 01 2B 94  60 0F 01 AF 80 23 24 B0  ...`..+.`....#$.
14D0: 80 01 80 01 80 25 02 00  10 01 80 00 10 15 52 22  .....%........R"
14E0: 80 F0 FF FF 7F F0 FF FF  7F 61 33 30 33 45 22 80  .........a303E".
14F0: F0 FF FF 7F F0 FF FF 7F  61 33 30 34 01 80 1C 07  ........a304....
1500: 80 6E F0 FF FF 7F B1 80  99 F0 FF FF 7F 01 4A 15  .n............J.
1510: 02 00 10 05 80 00 4A 15  52 22 80 F0 FF FF 7F F0  ......J.R"......
1520: FF FF 7F 61 33 30 33 45  22 80 F0 FF FF 7F F0 FF  ...a303E".......
1530: FF 7F 61 33 30 34 01 80  1C 07 80 6E F0 FF FF 7F  ..a304.....n....
1540: 3D 80 99 F0 FF FF 7F 01  4A 15 1C 68 80 6E 94 60  =.......J..h.n.`
1550: 0F 01 05 80 99 94 60 0F  01 2B 94 60 0F 01 B2 80  ......`..+.`....
1560: 23 2B 94 60 0F 01 B3 80  23 27 10 94 60 0F 01 1A  #+.`....#'..`...
1570: 52 22 80 F0 FF FF 7F F0  FF FF 7F 61 33 30 34 45  R".........a304E
1580: 22 80 F0 FF FF 7F F0 FF  FF 7F 61 33 30 35 01 80  ".........a305..
1590: 1C 07 80 03 02 10 8B 80  2B 94 60 0F 01 B4 80 23  ........+.`....#
15A0: 2A 10 94 60 0F 01 52 22  80 F0 FF FF 7F F0 FF FF  *..`..R"........
15B0: 7F 61 33 30 35 45 22 80  F0 FF FF 7F F0 FF FF 7F  .a305E".........
15C0: 61 33 30 36 01 80 5B 95  80 94 60 0F 01 94 60 0F  a306..[...`...`.
15D0: 01 75 6C 62 30 1C 07 80  2B 94 60 0F 01 B5 80 23  .ulb0...+.`....#
15E0: 2B 94 60 0F 01 B6 80 23  03 04 10 01 00 02 09 00  +.`....#........
15F0: 01 80 02 FD 15 03 03 10  32 80 01 02 16 03 03 10  ........2.......
1600: 07 80 2B 94 60 0F 01 B7  80 23 52 22 80 F0 FF FF  ..+.`....#R"....
1610: 7F F0 FF FF 7F 61 33 30  36 29 10 F0 FF FF 7F 20  .....a306)..... 
1620: 02 02 10 05 80 80 3C 16  45 22 80 F0 FF FF 7F F0  ......<.E"......
1630: FF FF 7F 61 33 68 6D 01  80 01 00 17 02 02 10 38  ...a3hm........8
1640: 80 80 58 16 45 22 80 F0  FF FF 7F F0 FF FF 7F 61  ..X.E".........a
1650: 33 68 66 01 80 01 00 17  02 02 10 39 80 80 74 16  3hf........9..t.
1660: 45 22 80 F0 FF FF 7F F0  FF FF 7F 61 33 65 6D 01  E".........a3em.
1670: 80 01 00 17 02 02 10 3A  80 80 90 16 45 22 80 F0  .......:....E"..
1680: FF FF 7F F0 FF FF 7F 61  33 65 66 01 80 01 00 17  .......a3ef.....
1690: 02 02 10 3B 80 80 AC 16  45 22 80 F0 FF FF 7F F0  ...;....E"......
16A0: FF FF 7F 61 33 74 72 01  80 01 00 17 02 02 10 3C  ...a3tr........<
16B0: 80 80 C8 16 45 22 80 F0  FF FF 7F F0 FF FF 7F 61  ....E".........a
16C0: 33 74 72 01 80 01 00 17  02 02 10 3D 80 80 E4 16  3tr........=....
16D0: 45 22 80 F0 FF FF 7F F0  FF FF 7F 61 33 6D 74 01  E".........a3mt.
16E0: 80 01 00 17 02 02 10 31  80 80 00 17 45 22 80 F0  .......1....E"..
16F0: FF FF 7F F0 FF FF 7F 61  33 67 6C 01 80 01 00 17  .......a3gl.....
1700: 1C 07 80 6E F0 FF FF 7F  3D 80 99 F0 FF FF 7F 6B  ...n....=......k
1710: 69 64 6C 30 94 60 0F 01  1C 68 80 27 10 94 60 0F  idl0.`...h.'..`.
1720: 01 1B 52 22 80 F0 FF FF  7F F0 FF FF 7F 61 33 68  ..R".........a3h
1730: 6D 52 22 80 F0 FF FF 7F  F0 FF FF 7F 61 33 68 66  mR".........a3hf
1740: 52 22 80 F0 FF FF 7F F0  FF FF 7F 61 33 65 6D 52  R".........a3emR
1750: 22 80 F0 FF FF 7F F0 FF  FF 7F 61 33 65 66 52 22  ".........a3efR"
1760: 80 F0 FF FF 7F F0 FF FF  7F 61 63 74 72 52 22 80  .........actrR".
1770: F0 FF FF 7F F0 FF FF 7F  61 33 6D 74 52 22 80 F0  ........a3mtR"..
1780: FF FF 7F F0 FF FF 7F 61  33 67 6C 45 22 80 F0 FF  .......a3glE"...
1790: FF 7F F0 FF FF 7F 61 33  30 37 01 80 1C A7 80 BA  ......a307......
17A0: 90 60 0F 01 B8 80 B9 80  01 80 A1 80 2B 94 60 0F  .`..........+.`.
17B0: 01 BA 80 23 2A 10 94 60  0F 01 52 22 80 F0 FF FF  ...#*..`..R"....
17C0: 7F F0 FF FF 7F 61 33 30  37 45 22 80 F0 FF FF 7F  .....a307E".....
17D0: F0 FF FF 7F 61 33 30 38  01 80 5D 01 80 34 80 79  ....a308..]..4.y
17E0: 00 94 60 0F 01 90 60 0F  01 1C 68 80 2B 94 60 0F  ..`...`...h.+.`.
17F0: 01 BB 80 23 52 22 80 F0  FF FF 7F F0 FF FF 7F 61  ...#R".........a
1800: 33 30 38 45 22 80 F0 FF  FF 7F F0 FF FF 7F 61 33  308E".........a3
1810: 30 39 01 80 4A 94 60 0F  01 F0 FF FF 7F 6F 76 94  09..J.`......ov.
1820: 60 0F 01 03 02 10 8B 80  2B 94 60 0F 01 BC 80 23  `.......+.`....#
1830: 5C 00 21 80 5C 01 21 80  9A 52 22 80 F0 FF FF 7F  \.!.\.!..R".....
1840: F0 FF FF 7F 61 33 30 39  45 22 80 F0 FF FF 7F F0  ....a309E"......
1850: FF FF 7F 61 33 31 30 01  80 7B 94 60 0F 01 66 08  ...a310..{.`..f.
1860: 80 94 60 0F 01 94 60 0F  01 74 77 61 30 1C 07 80  ..`...`..twa0...
1870: 2B 94 60 0F 01 BD 80 23  66 08 80 94 60 0F 01 94  +.`....#f...`...
1880: 60 0F 01 74 77 61 31 1A  B1 21 1C 07 80 52 22 80  `..twa1..!...R".
1890: F0 FF FF 7F F0 FF FF 7F  61 33 31 30 45 22 80 F0  ........a310E"..
18A0: FF FF 7F F0 FF FF 7F 30  62 6C 66 01 80 46 00 45  .......0blf..F.E
18B0: 7D 80 F0 FF FF 7F F0 FF  FF 7F 66 64 69 32 01 80  }.........fdi2..
18C0: 21 00                                             !.              
```

#### Opcodes

```
  0: 0x120B [0x42] SET_CLI_EVENT_CANCEL_DATA()
  1: 0x120C [0x1A] CALL_SUBROUTINE(address=0x21B1)
  2: 0x120F [0x46] CAMERA_CONTROL: Disable user control
  3: 0x1211 [0x03] ExtData[1]->WorkLocal[9] = Work_Zone[2]
  4: 0x1216 [0x03] ExtData[1]->WorkLocal[1] = Work_Zone[4]
  5: 0x121B [0x38] SET_CLIENT_EVENT_MODE(mode=19*)
  6: 0x121E [0x4E] SET_ENTITY_HIDE_FLAG: Show Unnamed NPC (ID: 17784976/0x010F6090)
  7: 0x1224 [0x92] Joachim (ID: 17784980/0x010F6094)->Render.Flags3 ^= 0x01
  8: 0x122A [0x94] LocalPlayer->Render.Flags3 ^= 0x01
  9: 0x1230 [0x94] Joachim (ID: 17784980/0x010F6094)->Render.Flags3 ^= 0x01
 10: 0x1236 [0x94] Unnamed NPC (ID: 17784976/0x010F6090)->Render.Flags3 ^= 0x01
 11: 0x123C [0xBA] SET_ENTITY_POSITION(entity_id=LocalPlayer, pos_x=-53.419*, pos_z=-8.091*, pos_y=0.000*, direction=72.0°*)
 12: 0x1249 [0xBA] SET_ENTITY_POSITION(entity_id=Unnamed NPC (ID: 17784976/0x010F6090), pos_x=-53.060*, pos_z=-9.262*, pos_y=0.000*, direction=73.0°*)
 13: 0x1256 [0x80] LOAD_WAIT(entity=LocalPlayer)
 14: 0x125B [0x80] LOAD_WAIT(entity=Joachim (ID: 17784980/0x010F6094))
 15: 0x1260 [0x1C] WAIT(30* ticks)
 16: 0x1263 [0x4A] Joachim (ID: 17784980/0x010F6094) looks at LocalPlayer
 17: 0x126C [0x4A] LocalPlayer looks at Joachim (ID: 17784980/0x010F6094)
 18: 0x1275 [0x6F] WAIT_FRAME_DELAY: Yield until WaitTime reaches zero
 19: 0x1276 [0x76] CHECK_ENTITY_RENDER_FLAGS: Wait until LocalPlayer Render.Flags0 and Render.Flags3 conditions are met
 20: 0x127B [0x29] REQ_SET_WAIT(priority=0x10, entity_id=LocalPlayer, tag_num=0x20)
 21: 0x1282 [0x02] IF !(Work_Zone[2] == 1*) GOTO 0x129E
 22: 0x128A [0x45] LOAD_SCHEDULED_TASK: Load scheduler "a3mm" with entities [LocalPlayer, LocalPlayer], work=[488*, 0*]
 23: 0x129B [0x01] GOTO 0x1362
 24: 0x129E [0x02] IF !(Work_Zone[2] == 2*) GOTO 0x12BA
 25: 0x12A6 [0x45] LOAD_SCHEDULED_TASK: Load scheduler "a3mm" with entities [LocalPlayer, LocalPlayer], work=[488*, 0*]
 26: 0x12B7 [0x01] GOTO 0x1362
 27: 0x12BA [0x02] IF !(Work_Zone[2] == 3*) GOTO 0x12D6
 28: 0x12C2 [0x45] LOAD_SCHEDULED_TASK: Load scheduler "a3ll" with entities [LocalPlayer, LocalPlayer], work=[488*, 0*]
 29: 0x12D3 [0x01] GOTO 0x1362
 30: 0x12D6 [0x02] IF !(Work_Zone[2] == 4*) GOTO 0x12F2
 31: 0x12DE [0x45] LOAD_SCHEDULED_TASK: Load scheduler "a3ll" with entities [LocalPlayer, LocalPlayer], work=[488*, 0*]
 32: 0x12EF [0x01] GOTO 0x1362
 33: 0x12F2 [0x02] IF !(Work_Zone[2] == 5*) GOTO 0x130E
 34: 0x12FA [0x45] LOAD_SCHEDULED_TASK: Load scheduler "a3ss" with entities [LocalPlayer, LocalPlayer], work=[488*, 0*]
 35: 0x130B [0x01] GOTO 0x1362
 36: 0x130E [0x02] IF !(Work_Zone[2] == 6*) GOTO 0x132A
 37: 0x1316 [0x45] LOAD_SCHEDULED_TASK: Load scheduler "a3ss" with entities [LocalPlayer, LocalPlayer], work=[488*, 0*]
 38: 0x1327 [0x01] GOTO 0x1362
 39: 0x132A [0x02] IF !(Work_Zone[2] == 7*) GOTO 0x1346
 40: 0x1332 [0x45] LOAD_SCHEDULED_TASK: Load scheduler "a3mm" with entities [LocalPlayer, LocalPlayer], work=[488*, 0*]
 41: 0x1343 [0x01] GOTO 0x1362
 42: 0x1346 [0x02] IF !(Work_Zone[2] == 8*) GOTO 0x1362
 43: 0x134E [0x45] LOAD_SCHEDULED_TASK: Load scheduler "a3ll" with entities [LocalPlayer, LocalPlayer], work=[488*, 0*]
 44: 0x135F [0x01] GOTO 0x1362

SUBROUTINE_1362:
 45: 0x1362 [0x1A] CALL_SUBROUTINE(address=0x2190)
 46: 0x1365 [0x5D] SET_MUSIC_VOLUME(volume=0*, fade_time=120*)
 47: 0x136A [0x79] Joachim (ID: 17784980/0x010F6094) looks at Unnamed NPC (ID: 17784976/0x010F6090) (Basic look)
 48: 0x1374 [0x27] REQ_SET(priority=0x10, entity_id=Joachim (ID: 17784980/0x010F6094), tag_num=0x14)
 49: 0x137B [0x1C] WAIT(60* ticks)
 50: 0x137E [0x6E] LocalPlayer uses emote 21*
 51: 0x1385 [0x99] Wait for LocalPlayer animation to complete
 52: 0x138A [0x2B] Joachim (ID: 17784980/0x010F6094) [8439*]:
    → "Me apologies, [mate/lass]."
 53: 0x1391 [0x23] WAIT_FOR_DIALOG_INTERACTION
 54: 0x1392 [0x2A] GET_REQ_LEVEL(level=16, entity_id=Joachim (ID: 17784980/0x010F6094))
 55: 0x1398 [0x52] END_LOAD_SCHEDULER: End scheduler "a3md" with entities [LocalPlayer, LocalPlayer], work=488*
 56: 0x13A7 [0x52] END_LOAD_SCHEDULER: End scheduler "a3ll" with entities [LocalPlayer, LocalPlayer], work=488*
 57: 0x13B6 [0x52] END_LOAD_SCHEDULER: End scheduler "a3tr" with entities [LocalPlayer, LocalPlayer], work=488*
 58: 0x13C5 [0x45] LOAD_SCHEDULED_TASK: Load scheduler "a300" with entities [LocalPlayer, LocalPlayer], work=[488*, 0*]
 59: 0x13D6 [0x2B] Joachim (ID: 17784980/0x010F6094) [8440*]:
    → "I could've jus' told ye everythin', but there's naught quite like havin' cold, hard reality shoved in yer face."
 60: 0x13DD [0x23] WAIT_FOR_DIALOG_INTERACTION
 61: 0x13DE [0x2B] Joachim (ID: 17784980/0x010F6094) [8441*]:
    → "Ye've got a quick head restin' on yer shoulders, so no doubt ye've already pieced it together. I'm not of this world, but a visitor come from the plane ye've jus' paid visit to. "Abyssea," we call it."
 62: 0x13E5 [0x23] WAIT_FOR_DIALOG_INTERACTION
 63: 0x13E6 [0x5C] MUSIC_CONTROL: Set Idle (Day) music to song 127*
 64: 0x13EA [0x5C] MUSIC_CONTROL: Set Idle (Night) music to song 127*
 65: 0x13EE [0x9A] WAIT_MUSIC_SERVER()
 66: 0x13EF [0x52] END_LOAD_SCHEDULER: End scheduler "a300" with entities [LocalPlayer, LocalPlayer], work=488*
 67: 0x13FE [0x45] LOAD_SCHEDULED_TASK: Load scheduler "a301" with entities [LocalPlayer, LocalPlayer], work=[488*, 0*]
 68: 0x140F [0x79] Joachim (ID: 17784980/0x010F6094) looks at LocalPlayer (Basic look)
 69: 0x1419 [0x27] REQ_SET(priority=0x10, entity_id=Joachim (ID: 17784980/0x010F6094), tag_num=0x15)
 70: 0x1420 [0x1C] WAIT(45* ticks)
 71: 0x1423 [0x2B] Joachim (ID: 17784980/0x010F6094) [8442*]:
    → "Havin' now seen it with yer own two eyes, it's needless t' tell ye the shoddy state Abyssea's in. Without so much as a howl of warnin', we were overrun by fell creatures that'd put nightmares t' shame. Whole nations were reduced t' piles of rubble."
 72: 0x142A [0x23] WAIT_FOR_DIALOG_INTERACTION
 73: 0x142B [0x2A] GET_REQ_LEVEL(level=16, entity_id=Joachim (ID: 17784980/0x010F6094))
 74: 0x1431 [0x59] UPDATE_ENTITY_DATA: Unnamed NPC (ID: 17784976/0x010F6090)->Render.Flags0 |= 0x200000
 75: 0x1438 [0xBA] SET_ENTITY_POSITION(entity_id=Unnamed NPC (ID: 17784976/0x010F6090), pos_x=-52.394*, pos_z=-8.743*, pos_y=-1.999*, direction=73.0°*)
 76: 0x1445 [0x52] END_LOAD_SCHEDULER: End scheduler "a301" with entities [LocalPlayer, LocalPlayer], work=488*
 77: 0x1454 [0x45] LOAD_SCHEDULED_TASK: Load scheduler "a302" with entities [LocalPlayer, LocalPlayer], work=[488*, 0*]
 78: 0x1465 [0x59] UPDATE_ENTITY_DATA: Set Joachim (ID: 17784980/0x010F6094) turn speed head = 50*
 79: 0x146D [0x79] Joachim (ID: 17784980/0x010F6094) looks at Unnamed NPC (ID: 17784976/0x010F6090) (Basic look)
 80: 0x1477 [0x1C] WAIT(60* ticks)
 81: 0x147A [0x2B] Joachim (ID: 17784980/0x010F6094) [8443*]:
