# 17784901 - Falak

## Common Data

| Field            | Value                |
|------------------|----------------------|
| Zone             | Port Jeuno (ID: 246) |
| Block Size       | 1760 bytes           |
| Total Events     | 41                   |
| References Count | 82                   |

## List of Events

| Event ID                   | Entrypoint   |   Size |   Instructions |
|----------------------------|--------------|--------|----------------|
| [65535](#event-65535)      | 0x0000       |      1 |              1 |
| [28](#event-28)            | 0x0001       |     88 |             14 |
| [324](#event-324)          | 0x0059       |     18 |              4 |
| [325](#event-325)          | 0x006B       |     18 |              4 |
| [327](#event-327)          | 0x007D       |     18 |              4 |
| [331](#event-331)          | 0x008F       |     18 |              4 |
| [332](#event-332)          | 0x00A1       |     18 |              4 |
| [333](#event-333)          | 0x00B3       |     18 |              4 |
| [334](#event-334)          | 0x00C5       |     18 |              4 |
| [335](#event-335)          | 0x00D7       |     18 |              4 |
| [336](#event-336)          | 0x00E9       |     18 |              4 |
| [337](#event-337)          | 0x00FB       |     18 |              4 |
| [338](#event-338)          | 0x010D       |     18 |              4 |
| [340](#event-340)          | 0x011F       |     18 |              4 |
| [341](#event-341)          | 0x0131       |     18 |              4 |
| [342](#event-342)          | 0x0143       |     18 |              4 |
| [343](#event-343)          | 0x0155       |     18 |              4 |
| [344](#event-344)          | 0x0167       |     18 |              4 |
| [345](#event-345)          | 0x0179       |     18 |              4 |
| [65535.1](#event-655351)   | 0x018B       |     40 |              8 |
| [65535.2](#event-655352)   | 0x01B3       |     40 |              8 |
| [65535.3](#event-655353)   | 0x01DB       |    139 |             22 |
| [65535.4](#event-655354)   | 0x0266       |     15 |              5 |
| [65535.5](#event-655355)   | 0x0275       |     15 |              5 |
| [65535.6](#event-655356)   | 0x0284       |     30 |              8 |
| [65535.7](#event-655357)   | 0x02A2       |     16 |              2 |
| [65535.8](#event-655358)   | 0x02B2       |     33 |              7 |
| [65535.9](#event-655359)   | 0x02D3       |     33 |              7 |
| [65535.10](#event-6553510) | 0x02F4       |     45 |             13 |
| [65535.11](#event-6553511) | 0x0321       |    139 |             22 |
| [65535.12](#event-6553512) | 0x03AC       |     15 |              5 |
| [65535.13](#event-6553513) | 0x03BB       |     15 |              5 |
| [65535.14](#event-6553514) | 0x03CA       |     15 |              5 |
| [65535.15](#event-6553515) | 0x03D9       |     80 |             13 |
| [65535.16](#event-6553516) | 0x0429       |     15 |              5 |
| [65535.17](#event-6553517) | 0x0438       |     15 |              5 |
| [65535.18](#event-6553518) | 0x0447       |     15 |              5 |
| [65535.19](#event-6553519) | 0x0456       |     15 |              5 |
| [65535.20](#event-6553520) | 0x0465       |     15 |              5 |
| [65535.21](#event-6553521) | 0x0474       |     53 |             10 |
| [65535.22](#event-6553522) | 0x04A9       |     58 |             11 |

## DAT References (imed_data)

|   Index | Hex Value   |   Dec Value |
|---------|-------------|-------------|
|       0 | 0x0000      |           0 |
|       1 | 0x1BC8      |        7112 |
|       2 | 0x0003      |           3 |
|       3 | 0x1BC9      |        7113 |
|       4 | 0x0015      |          21 |
|       5 | 0x005A      |          90 |
|       6 | 0x000D      |          13 |
|       7 | 0xFFFF43BD  |  4294919101 |
|       8 | 0x0E16      |        3606 |
|       9 | 0x03CD      |         973 |
|      10 | 0x0034      |          52 |
|      11 | 0x0078      |         120 |
|      12 | 0x000B      |          11 |
|      13 | 0x5D1F      |       23839 |
|      14 | 0x1781      |        6017 |
|      15 | 0x02AF      |         687 |
|      16 | 0x0051      |          81 |
|      17 | 0x002D      |          45 |
|      18 | 0x0005      |           5 |
|      19 | 0x001E      |          30 |
|      20 | 0x08AE      |        2222 |
|      21 | 0x004B      |          75 |
|      22 | 0x000F      |          15 |
|      23 | 0x0025      |          37 |
|      24 | 0xFFFEC504  |  4294886660 |
|      25 | 0xFFFFEAAC  |  4294961836 |
|      26 | 0x0027      |          39 |
|      27 | 0xFFFEC210  |  4294885904 |
|      28 | 0xFFFFEF62  |  4294963042 |
|      29 | 0x0029      |          41 |
|      30 | 0xFFFEBC38  |  4294884408 |
|      31 | 0xFFFFED5A  |  4294962522 |
|      32 | 0x0006      |           6 |
|      33 | 0x000A      |          10 |
|      34 | 0xFFFEAFBE  |  4294881214 |
|      35 | 0xFFFFFA5E  |  4294965854 |
|      36 | 0x00D8      |         216 |
|      37 | 0x000C      |          12 |
|      38 | 0xFFFE7646  |  4294866502 |
|      39 | 0xFFFFF1A1  |  4294963617 |
|      40 | 0x003C      |          60 |
|      41 | 0x0028      |          40 |
|      42 | 0xFFFF89FB  |  4294937083 |
|      43 | 0xFFFFFA22  |  4294965794 |
|      44 | 0xFFFE86B8  |  4294870712 |
|      45 | 0xFFFFDEB9  |  4294958777 |
|      46 | 0x0E02      |        3586 |
|      47 | 0x0168      |         360 |
|      48 | 0xFFFE880F  |  4294871055 |
|      49 | 0x22A8      |        8872 |
|      50 | 0x0200      |         512 |
|      51 | 0xFFFF32B5  |  4294914741 |
|      52 | 0x079E      |        1950 |
|      53 | 0xFFFF402C  |  4294918188 |
|      54 | 0x0935      |        2357 |
|      55 | 0xFFFF35EA  |  4294915562 |
|      56 | 0x0B3F      |        2879 |
|      57 | 0xFFFF3A12  |  4294916626 |
|      58 | 0x09AA      |        2474 |
|      59 | 0xFFFE9692  |  4294874770 |
|      60 | 0xFFFFF68E  |  4294964878 |
|      61 | 0x0026      |          38 |
|      62 | 0xFFFE7DEB  |  4294868459 |
|      63 | 0xFFFFF5B0  |  4294964656 |
|      64 | 0x1387      |        4999 |
|      65 | 0xFFFFFCE1  |  4294966497 |
|      66 | 0xFFFED394  |  4294890388 |
|      67 | 0xFFFFF65F  |  4294964831 |
|      68 | 0xFFFF38F4  |  4294916340 |
|      69 | 0xFFFFF821  |  4294965281 |
|      70 | 0xFFFE5E8F  |  4294860431 |
|      71 | 0x0899      |        2201 |
|      72 | 0xFFFF7085  |  4294930565 |
|      73 | 0xFFFFF716  |  4294965014 |
|      74 | 0xFFFF1D41  |  4294909249 |
|      75 | 0x24D9      |        9433 |
|      76 | 0xFFFF236E  |  4294910830 |
|      77 | 0x2722      |       10018 |
|      78 | 0x00D7      |         215 |
|      79 | 0xFFFF34A9  |  4294915241 |
|      80 | 0x0881      |        2177 |
|      81 | 0x0013      |          19 |

## String References

- **7112**: Have you ever flown on an airship? I'm sure you'll be amazed. With the clouds at your feet, you feel like a soaring eagle.
- **7113**: All of the struggle and toil down below seem petty from such lofty heights. Oh, how I wish we were born with wings!

## Events

### Event 65535

#### Metadata

| Field        | Value   |
|--------------|---------|
| Entrypoint   | 0x0000  |
| Data Size    | 1 bytes |
| Instructions | 1       |

```
      00 01 02 03 04 05 06 07  08 09 0A 0B 0C 0D 0E 0F
      -- -- -- -- -- -- -- --  -- -- -- -- -- -- -- --
0000: 00                                                .               
```

#### Opcodes

```
  0: 0x0000 [0x00] END_REQSTACK()
```

### Event 28

#### Metadata

| Field        | Value    |
|--------------|----------|
| Entrypoint   | 0x0001   |
| Data Size    | 88 bytes |
| Instructions | 14       |

```
      00 01 02 03 04 05 06 07  08 09 0A 0B 0C 0D 0E 0F
      -- -- -- -- -- -- -- --  -- -- -- -- -- -- -- --
0000:    1E F0 FF FF 7F 6F 70  66 00 80 F8 FF FF 7F F8   .....opf.......
0010: FF FF 7F 74 6C 6B 31 1D  01 80 23 66 02 80 F8 FF  ...tlk1...#f....
0020: FF 7F F8 FF FF 7F 73 64  6F 30 1D 03 80 23 53 F8  ......sdo0...#S.
0030: FF FF 7F F8 FF FF 7F 73  64 6F 30 66 02 80 F8 FF  .......sdo0f....
0040: FF 7F F8 FF FF 7F 73 64  6F 31 53 F8 FF FF 7F F8  ......sdo1S.....
0050: FF FF 7F 73 64 6F 31 21  00                       ...sdo1!.       
```

#### Opcodes

```
  0: 0x0001 [0x1E] EventEntity looks at LocalPlayer and starts talking
  1: 0x0006 [0x6F] WAIT_FRAME_DELAY: Yield until WaitTime reaches zero
  2: 0x0007 [0x70] WAIT_ENTITY_RENDER_FLAG: Wait while EventEntity->Render.Flags3 bit 2 is set (cancel turn if not)
  3: 0x0008 [0x66] LOAD_EXT_SCHEDULER_MAIN: Load scheduler "tlk1" with entities [EventEntity, EventEntity], work=0*
  4: 0x0017 [0x1D] PRINT_EVENT_MESSAGE(message_id=7112*)
    → "Have you ever flown on an airship? I'm sure you'll be amazed. With the clouds at your feet, you feel like a soaring eagle."
  5: 0x001A [0x23] WAIT_FOR_DIALOG_INTERACTION
  6: 0x001B [0x66] LOAD_EXT_SCHEDULER_MAIN: Load scheduler "sdo0" with entities [EventEntity, EventEntity], work=3*
  7: 0x002A [0x1D] PRINT_EVENT_MESSAGE(message_id=7113*)
    → "All of the struggle and toil down below seem petty from such lofty heights. Oh, how I wish we were born with wings!"
  8: 0x002D [0x23] WAIT_FOR_DIALOG_INTERACTION
  9: 0x002E [0x53] WAIT_SCHEDULER_TASK: Wait for scheduler "sdo0" with entities [EventEntity, EventEntity]
 10: 0x003B [0x66] LOAD_EXT_SCHEDULER_MAIN: Load scheduler "sdo1" with entities [EventEntity, EventEntity], work=3*
 11: 0x004A [0x53] WAIT_SCHEDULER_TASK: Wait for scheduler "sdo1" with entities [EventEntity, EventEntity]
 12: 0x0057 [0x21] END_EVENT
 13: 0x0058 [0x00] END_REQSTACK()
```

### Event 324

#### Metadata

| Field        | Value    |
|--------------|----------|
| Entrypoint   | 0x0059   |
| Data Size    | 18 bytes |
| Instructions | 4        |

```
      00 01 02 03 04 05 06 07  08 09 0A 0B 0C 0D 0E 0F
      -- -- -- -- -- -- -- --  -- -- -- -- -- -- -- --
0050:                             92 01 F8 FF FF 7F 94           .......
0060: 01 F8 FF FF 7F 80 F8 FF  FF 7F 00                 ...........     
```

#### Opcodes

```
  0: 0x0059 [0x92] EventEntity->Render.Flags3 ^= 0x01
  1: 0x005F [0x94] EventEntity->Render.Flags3 ^= 0x01
  2: 0x0065 [0x80] LOAD_WAIT(entity=EventEntity)
  3: 0x006A [0x00] END_REQSTACK()
```

### Event 325

#### Metadata

| Field        | Value    |
|--------------|----------|
| Entrypoint   | 0x006B   |
| Data Size    | 18 bytes |
| Instructions | 4        |

```
      00 01 02 03 04 05 06 07  08 09 0A 0B 0C 0D 0E 0F
      -- -- -- -- -- -- -- --  -- -- -- -- -- -- -- --
0060:                                   92 01 F8 FF FF             .....
0070: 7F 94 01 F8 FF FF 7F 80  F8 FF FF 7F 00           .............   
```

#### Opcodes

```
  0: 0x006B [0x92] EventEntity->Render.Flags3 ^= 0x01
  1: 0x0071 [0x94] EventEntity->Render.Flags3 ^= 0x01
  2: 0x0077 [0x80] LOAD_WAIT(entity=EventEntity)
  3: 0x007C [0x00] END_REQSTACK()
```

### Event 327

#### Metadata

| Field        | Value    |
|--------------|----------|
| Entrypoint   | 0x007D   |
| Data Size    | 18 bytes |
| Instructions | 4        |

```
      00 01 02 03 04 05 06 07  08 09 0A 0B 0C 0D 0E 0F
      -- -- -- -- -- -- -- --  -- -- -- -- -- -- -- --
0070:                                         92 01 F8               ...
0080: FF FF 7F 94 01 F8 FF FF  7F 80 F8 FF FF 7F 00     ............... 
```

#### Opcodes

```
  0: 0x007D [0x92] EventEntity->Render.Flags3 ^= 0x01
  1: 0x0083 [0x94] EventEntity->Render.Flags3 ^= 0x01
  2: 0x0089 [0x80] LOAD_WAIT(entity=EventEntity)
  3: 0x008E [0x00] END_REQSTACK()
```

### Event 331

#### Metadata

| Field        | Value    |
|--------------|----------|
| Entrypoint   | 0x008F   |
| Data Size    | 18 bytes |
| Instructions | 4        |

```
      00 01 02 03 04 05 06 07  08 09 0A 0B 0C 0D 0E 0F
      -- -- -- -- -- -- -- --  -- -- -- -- -- -- -- --
0080:                                               92                 .
0090: 01 F8 FF FF 7F 94 01 F8  FF FF 7F 80 F8 FF FF 7F  ................
00A0: 00                                                .               
```

#### Opcodes

```
  0: 0x008F [0x92] EventEntity->Render.Flags3 ^= 0x01
  1: 0x0095 [0x94] EventEntity->Render.Flags3 ^= 0x01
  2: 0x009B [0x80] LOAD_WAIT(entity=EventEntity)
  3: 0x00A0 [0x00] END_REQSTACK()
```

### Event 332

#### Metadata

| Field        | Value    |
|--------------|----------|
| Entrypoint   | 0x00A1   |
| Data Size    | 18 bytes |
| Instructions | 4        |

```
      00 01 02 03 04 05 06 07  08 09 0A 0B 0C 0D 0E 0F
      -- -- -- -- -- -- -- --  -- -- -- -- -- -- -- --
00A0:    92 01 F8 FF FF 7F 94  01 F8 FF FF 7F 80 F8 FF   ...............
00B0: FF 7F 00                                          ...             
```

#### Opcodes

```
  0: 0x00A1 [0x92] EventEntity->Render.Flags3 ^= 0x01
  1: 0x00A7 [0x94] EventEntity->Render.Flags3 ^= 0x01
  2: 0x00AD [0x80] LOAD_WAIT(entity=EventEntity)
  3: 0x00B2 [0x00] END_REQSTACK()
```

### Event 333

#### Metadata

| Field        | Value    |
|--------------|----------|
| Entrypoint   | 0x00B3   |
| Data Size    | 18 bytes |
| Instructions | 4        |

```
      00 01 02 03 04 05 06 07  08 09 0A 0B 0C 0D 0E 0F
      -- -- -- -- -- -- -- --  -- -- -- -- -- -- -- --
00B0:          92 01 F8 FF FF  7F 94 01 F8 FF FF 7F 80     .............
00C0: F8 FF FF 7F 00                                    .....           
```

#### Opcodes

```
  0: 0x00B3 [0x92] EventEntity->Render.Flags3 ^= 0x01
  1: 0x00B9 [0x94] EventEntity->Render.Flags3 ^= 0x01
  2: 0x00BF [0x80] LOAD_WAIT(entity=EventEntity)
  3: 0x00C4 [0x00] END_REQSTACK()
```

### Event 334

#### Metadata

| Field        | Value    |
|--------------|----------|
| Entrypoint   | 0x00C5   |
| Data Size    | 18 bytes |
| Instructions | 4        |

```
      00 01 02 03 04 05 06 07  08 09 0A 0B 0C 0D 0E 0F
      -- -- -- -- -- -- -- --  -- -- -- -- -- -- -- --
00C0:                92 01 F8  FF FF 7F 94 01 F8 FF FF       ...........
00D0: 7F 80 F8 FF FF 7F 00                              .......         
```

#### Opcodes

```
  0: 0x00C5 [0x92] EventEntity->Render.Flags3 ^= 0x01
  1: 0x00CB [0x94] EventEntity->Render.Flags3 ^= 0x01
  2: 0x00D1 [0x80] LOAD_WAIT(entity=EventEntity)
  3: 0x00D6 [0x00] END_REQSTACK()
```

### Event 335

#### Metadata

| Field        | Value    |
|--------------|----------|
| Entrypoint   | 0x00D7   |
| Data Size    | 18 bytes |
| Instructions | 4        |

```
      00 01 02 03 04 05 06 07  08 09 0A 0B 0C 0D 0E 0F
      -- -- -- -- -- -- -- --  -- -- -- -- -- -- -- --
00D0:                      92  01 F8 FF FF 7F 94 01 F8         .........
00E0: FF FF 7F 80 F8 FF FF 7F  00                       .........       
```

#### Opcodes

```
  0: 0x00D7 [0x92] EventEntity->Render.Flags3 ^= 0x01
  1: 0x00DD [0x94] EventEntity->Render.Flags3 ^= 0x01
  2: 0x00E3 [0x80] LOAD_WAIT(entity=EventEntity)
  3: 0x00E8 [0x00] END_REQSTACK()
```

### Event 336

#### Metadata

| Field        | Value    |
|--------------|----------|
| Entrypoint   | 0x00E9   |
| Data Size    | 18 bytes |
| Instructions | 4        |

```
      00 01 02 03 04 05 06 07  08 09 0A 0B 0C 0D 0E 0F
      -- -- -- -- -- -- -- --  -- -- -- -- -- -- -- --
00E0:                             92 01 F8 FF FF 7F 94           .......
00F0: 01 F8 FF FF 7F 80 F8 FF  FF 7F 00                 ...........     
```

#### Opcodes

```
  0: 0x00E9 [0x92] EventEntity->Render.Flags3 ^= 0x01
  1: 0x00EF [0x94] EventEntity->Render.Flags3 ^= 0x01
  2: 0x00F5 [0x80] LOAD_WAIT(entity=EventEntity)
  3: 0x00FA [0x00] END_REQSTACK()
```

### Event 337

#### Metadata

| Field        | Value    |
|--------------|----------|
| Entrypoint   | 0x00FB   |
| Data Size    | 18 bytes |
| Instructions | 4        |

```
      00 01 02 03 04 05 06 07  08 09 0A 0B 0C 0D 0E 0F
      -- -- -- -- -- -- -- --  -- -- -- -- -- -- -- --
00F0:                                   92 01 F8 FF FF             .....
0100: 7F 94 01 F8 FF FF 7F 80  F8 FF FF 7F 00           .............   
```

#### Opcodes

```
  0: 0x00FB [0x92] EventEntity->Render.Flags3 ^= 0x01
  1: 0x0101 [0x94] EventEntity->Render.Flags3 ^= 0x01
  2: 0x0107 [0x80] LOAD_WAIT(entity=EventEntity)
  3: 0x010C [0x00] END_REQSTACK()
```

### Event 338

#### Metadata

| Field        | Value    |
|--------------|----------|
| Entrypoint   | 0x010D   |
| Data Size    | 18 bytes |
| Instructions | 4        |

```
      00 01 02 03 04 05 06 07  08 09 0A 0B 0C 0D 0E 0F
      -- -- -- -- -- -- -- --  -- -- -- -- -- -- -- --
0100:                                         92 01 F8               ...
0110: FF FF 7F 94 01 F8 FF FF  7F 80 F8 FF FF 7F 00     ............... 
```

#### Opcodes

```
  0: 0x010D [0x92] EventEntity->Render.Flags3 ^= 0x01
  1: 0x0113 [0x94] EventEntity->Render.Flags3 ^= 0x01
  2: 0x0119 [0x80] LOAD_WAIT(entity=EventEntity)
  3: 0x011E [0x00] END_REQSTACK()
```

### Event 340

#### Metadata

| Field        | Value    |
|--------------|----------|
| Entrypoint   | 0x011F   |
| Data Size    | 18 bytes |
| Instructions | 4        |

```
      00 01 02 03 04 05 06 07  08 09 0A 0B 0C 0D 0E 0F
      -- -- -- -- -- -- -- --  -- -- -- -- -- -- -- --
0110:                                               92                 .
0120: 01 F8 FF FF 7F 94 01 F8  FF FF 7F 80 F8 FF FF 7F  ................
0130: 00                                                .               
```

#### Opcodes

```
  0: 0x011F [0x92] EventEntity->Render.Flags3 ^= 0x01
  1: 0x0125 [0x94] EventEntity->Render.Flags3 ^= 0x01
  2: 0x012B [0x80] LOAD_WAIT(entity=EventEntity)
  3: 0x0130 [0x00] END_REQSTACK()
```

### Event 341

#### Metadata

| Field        | Value    |
|--------------|----------|
| Entrypoint   | 0x0131   |
| Data Size    | 18 bytes |
| Instructions | 4        |

```
      00 01 02 03 04 05 06 07  08 09 0A 0B 0C 0D 0E 0F
      -- -- -- -- -- -- -- --  -- -- -- -- -- -- -- --
0130:    92 01 F8 FF FF 7F 94  01 F8 FF FF 7F 80 F8 FF   ...............
0140: FF 7F 00                                          ...             
```

#### Opcodes

```
  0: 0x0131 [0x92] EventEntity->Render.Flags3 ^= 0x01
  1: 0x0137 [0x94] EventEntity->Render.Flags3 ^= 0x01
  2: 0x013D [0x80] LOAD_WAIT(entity=EventEntity)
  3: 0x0142 [0x00] END_REQSTACK()
```

### Event 342

#### Metadata

| Field        | Value    |
|--------------|----------|
| Entrypoint   | 0x0143   |
| Data Size    | 18 bytes |
| Instructions | 4        |

```
      00 01 02 03 04 05 06 07  08 09 0A 0B 0C 0D 0E 0F
      -- -- -- -- -- -- -- --  -- -- -- -- -- -- -- --
0140:          92 01 F8 FF FF  7F 94 01 F8 FF FF 7F 80     .............
0150: F8 FF FF 7F 00                                    .....           
```

#### Opcodes

```
  0: 0x0143 [0x92] EventEntity->Render.Flags3 ^= 0x01
  1: 0x0149 [0x94] EventEntity->Render.Flags3 ^= 0x01
  2: 0x014F [0x80] LOAD_WAIT(entity=EventEntity)
  3: 0x0154 [0x00] END_REQSTACK()
```

### Event 343

#### Metadata

| Field        | Value    |
|--------------|----------|
| Entrypoint   | 0x0155   |
| Data Size    | 18 bytes |
| Instructions | 4        |

```
      00 01 02 03 04 05 06 07  08 09 0A 0B 0C 0D 0E 0F
      -- -- -- -- -- -- -- --  -- -- -- -- -- -- -- --
0150:                92 01 F8  FF FF 7F 94 01 F8 FF FF       ...........
0160: 7F 80 F8 FF FF 7F 00                              .......         
```

#### Opcodes

```
  0: 0x0155 [0x92] EventEntity->Render.Flags3 ^= 0x01
  1: 0x015B [0x94] EventEntity->Render.Flags3 ^= 0x01
  2: 0x0161 [0x80] LOAD_WAIT(entity=EventEntity)
  3: 0x0166 [0x00] END_REQSTACK()
```

### Event 344

#### Metadata

| Field        | Value    |
|--------------|----------|
| Entrypoint   | 0x0167   |
| Data Size    | 18 bytes |
| Instructions | 4        |

```
      00 01 02 03 04 05 06 07  08 09 0A 0B 0C 0D 0E 0F
      -- -- -- -- -- -- -- --  -- -- -- -- -- -- -- --
0160:                      92  01 F8 FF FF 7F 94 01 F8         .........
0170: FF FF 7F 80 F8 FF FF 7F  00                       .........       
```

#### Opcodes

```
  0: 0x0167 [0x92] EventEntity->Render.Flags3 ^= 0x01
  1: 0x016D [0x94] EventEntity->Render.Flags3 ^= 0x01
  2: 0x0173 [0x80] LOAD_WAIT(entity=EventEntity)
  3: 0x0178 [0x00] END_REQSTACK()
```

### Event 345

#### Metadata

| Field        | Value    |
|--------------|----------|
| Entrypoint   | 0x0179   |
| Data Size    | 18 bytes |
| Instructions | 4        |

```
      00 01 02 03 04 05 06 07  08 09 0A 0B 0C 0D 0E 0F
      -- -- -- -- -- -- -- --  -- -- -- -- -- -- -- --
0170:                             92 01 F8 FF FF 7F 94           .......
0180: 01 F8 FF FF 7F 80 F8 FF  FF 7F 00                 ...........     
```

#### Opcodes

```
  0: 0x0179 [0x92] EventEntity->Render.Flags3 ^= 0x01
  1: 0x017F [0x94] EventEntity->Render.Flags3 ^= 0x01
  2: 0x0185 [0x80] LOAD_WAIT(entity=EventEntity)
  3: 0x018A [0x00] END_REQSTACK()
```

### Event 65535.1

#### Metadata

| Field        | Value    |
|--------------|----------|
| Entrypoint   | 0x018B   |
| Data Size    | 40 bytes |
| Instructions | 8        |

```
      00 01 02 03 04 05 06 07  08 09 0A 0B 0C 0D 0E 0F
      -- -- -- -- -- -- -- --  -- -- -- -- -- -- -- --
0180:                                   66 04 80 28 60             f..(`
0190: 0F 01 28 60 0F 01 64 69  73 30 1C 05 80 32 06 80  ..(`..dis0...2..
01A0: 1F 00 07 80 08 80 00 80  1F 01 6F 4B F8 FF FF 7F  ..........oK....
01B0: 09 80 00                                          ...             
```

#### Opcodes

```
  0: 0x018B [0x66] LOAD_EXT_SCHEDULER_MAIN: Load scheduler "dis0" with entities [Ramicharaux (ID: 17784872/0x010F6028), Ramicharaux (ID: 17784872/0x010F6028)], work=21*
  1: 0x019A [0x1C] WAIT(90* ticks)
  2: 0x019D [0x32] ExtData[1]->MainSpeed = 13* * 0.1
  3: 0x01A0 [0x1F] MOVE_ENTITY: EventEntity moves to X=-48.195*, Z=3.606*, Y=0.000*
  4: 0x01A8 [0x1F] MOVE_ENTITY: Update entity position (mode=1)
  5: 0x01AA [0x6F] WAIT_FRAME_DELAY: Yield until WaitTime reaches zero
  6: 0x01AB [0x4B] UPDATE_ENTITY_YAW(entity=EventEntity, yaw=5.3°*)
  7: 0x01B2 [0x00] END_REQSTACK()
```

### Event 65535.2

#### Metadata

| Field        | Value    |
|--------------|----------|
| Entrypoint   | 0x01B3   |
| Data Size    | 40 bytes |
| Instructions | 8        |

```
      00 01 02 03 04 05 06 07  08 09 0A 0B 0C 0D 0E 0F
      -- -- -- -- -- -- -- --  -- -- -- -- -- -- -- --
01B0:          66 0A 80 43 60  0F 01 43 60 0F 01 64 69     f..C`..C`..di
01C0: 73 30 1C 0B 80 32 0C 80  1F 00 0D 80 0E 80 00 80  s0...2..........
01D0: 1F 01 6F 4B F8 FF FF 7F  0F 80 00                 ..oK.......     
```

#### Opcodes

```
  0: 0x01B3 [0x66] LOAD_EXT_SCHEDULER_MAIN: Load scheduler "dis0" with entities [Khumo Daramasteh (ID: 17784899/0x010F6043), Khumo Daramasteh (ID: 17784899/0x010F6043)], work=52*
  1: 0x01C2 [0x1C] WAIT(120* ticks)
  2: 0x01C5 [0x32] ExtData[1]->MainSpeed = 11* * 0.1
  3: 0x01C8 [0x1F] MOVE_ENTITY: EventEntity moves to X=23.839*, Z=6.017*, Y=0.000*
  4: 0x01D0 [0x1F] MOVE_ENTITY: Update entity position (mode=1)
  5: 0x01D2 [0x6F] WAIT_FRAME_DELAY: Yield until WaitTime reaches zero
  6: 0x01D3 [0x4B] UPDATE_ENTITY_YAW(entity=EventEntity, yaw=3.8°*)
  7: 0x01DA [0x00] END_REQSTACK()
```

### Event 65535.3

#### Metadata

| Field        | Value     |
|--------------|-----------|
| Entrypoint   | 0x01DB    |
| Data Size    | 139 bytes |
| Instructions | 22        |

```
      00 01 02 03 04 05 06 07  08 09 0A 0B 0C 0D 0E 0F
      -- -- -- -- -- -- -- --  -- -- -- -- -- -- -- --
01D0:                                   5B 10 80 06 60             [...`
01E0: 0F 01 06 60 0F 01 68 61  69 30 1C 11 80 4A 04 60  ...`..hai0...J.`
01F0: 0F 01 06 60 0F 01 1C 12  80 79 00 05 60 0F 01 06  ...`.....y..`...
0200: 60 0F 01 1C 13 80 4B 06  60 0F 01 14 80 6F 76 06  `.....K.`....ov.
0210: 60 0F 01 5B 10 80 06 60  0F 01 06 60 0F 01 61 77  `..[...`...`..aw
0220: 77 30 1C 11 80 5B 15 80  04 60 0F 01 04 60 0F 01  w0...[...`...`..
0230: 74 68 6B 31 1C 16 80 5B  05 80 05 60 0F 01 05 60  thk1...[...`...`
0240: 0F 01 74 6C 6B 30 1C 05  80 27 10 04 60 0F 01 21  ..tlk0...'..`..!
0250: 27 10 05 60 0F 01 20 32  17 80 1F 00 18 80 19 80  '..`.. 2........
0260: 00 80 1F 01 6F 00                                 ....o.          
```

#### Opcodes

```
  0: 0x01DB [0x5B] LOAD_EXT_SCHEDULER: Load scheduler "hai0" with entities [Jaha Amariyo (ID: 17784838/0x010F6006), Jaha Amariyo (ID: 17784838/0x010F6006)], work=81*
  1: 0x01EA [0x1C] WAIT(45* ticks)
  2: 0x01ED [0x4A] Karl (ID: 17784836/0x010F6004) looks at Jaha Amariyo (ID: 17784838/0x010F6006)
  3: 0x01F6 [0x1C] WAIT(5* ticks)
  4: 0x01F9 [0x79] Buntz (ID: 17784837/0x010F6005) looks at Jaha Amariyo (ID: 17784838/0x010F6006) (Basic look)
  5: 0x0203 [0x1C] WAIT(30* ticks)
  6: 0x0206 [0x4B] UPDATE_ENTITY_YAW(entity=Jaha Amariyo (ID: 17784838/0x010F6006), yaw=12.2°*)
  7: 0x020D [0x6F] WAIT_FRAME_DELAY: Yield until WaitTime reaches zero
  8: 0x020E [0x76] CHECK_ENTITY_RENDER_FLAGS: Wait until Jaha Amariyo (ID: 17784838/0x010F6006) Render.Flags0 and Render.Flags3 conditions are met
  9: 0x0213 [0x5B] LOAD_EXT_SCHEDULER: Load scheduler "aww0" with entities [Jaha Amariyo (ID: 17784838/0x010F6006), Jaha Amariyo (ID: 17784838/0x010F6006)], work=81*
 10: 0x0222 [0x1C] WAIT(45* ticks)
 11: 0x0225 [0x5B] LOAD_EXT_SCHEDULER: Load scheduler "thk1" with entities [Karl (ID: 17784836/0x010F6004), Karl (ID: 17784836/0x010F6004)], work=75*
 12: 0x0234 [0x1C] WAIT(15* ticks)
 13: 0x0237 [0x5B] LOAD_EXT_SCHEDULER: Load scheduler "tlk0" with entities [Buntz (ID: 17784837/0x010F6005), Buntz (ID: 17784837/0x010F6005)], work=90*
 14: 0x0246 [0x1C] WAIT(90* ticks)
 15: 0x0249 [0x27] REQ_SET(priority=0x10, entity_id=Karl (ID: 17784836/0x010F6004), tag_num=0x21)
 16: 0x0250 [0x27] REQ_SET(priority=0x10, entity_id=Buntz (ID: 17784837/0x010F6005), tag_num=0x20)
 17: 0x0257 [0x32] ExtData[1]->MainSpeed = 37* * 0.1
 18: 0x025A [0x1F] MOVE_ENTITY: EventEntity moves to X=-80.636*, Z=-5.460*, Y=0.000*
 19: 0x0262 [0x1F] MOVE_ENTITY: Update entity position (mode=1)
 20: 0x0264 [0x6F] WAIT_FRAME_DELAY: Yield until WaitTime reaches zero
 21: 0x0265 [0x00] END_REQSTACK()
```

### Event 65535.4

#### Metadata

| Field        | Value    |
|--------------|----------|
| Entrypoint   | 0x0266   |
| Data Size    | 15 bytes |
| Instructions | 5        |

```
      00 01 02 03 04 05 06 07  08 09 0A 0B 0C 0D 0E 0F
      -- -- -- -- -- -- -- --  -- -- -- -- -- -- -- --
0260:                   32 1A  80 1F 00 1B 80 1C 80 00        2.........
0270: 80 1F 01 6F 00                                    ...o.           
```

#### Opcodes

```
  0: 0x0266 [0x32] ExtData[1]->MainSpeed = 39* * 0.1
  1: 0x0269 [0x1F] MOVE_ENTITY: EventEntity moves to X=-81.392*, Z=-4.254*, Y=0.000*
  2: 0x0271 [0x1F] MOVE_ENTITY: Update entity position (mode=1)
  3: 0x0273 [0x6F] WAIT_FRAME_DELAY: Yield until WaitTime reaches zero
  4: 0x0274 [0x00] END_REQSTACK()
```

### Event 65535.5

#### Metadata

| Field        | Value    |
|--------------|----------|
| Entrypoint   | 0x0275   |
| Data Size    | 15 bytes |
| Instructions | 5        |

```
      00 01 02 03 04 05 06 07  08 09 0A 0B 0C 0D 0E 0F
      -- -- -- -- -- -- -- --  -- -- -- -- -- -- -- --
0270:                32 1D 80  1F 00 1E 80 1F 80 00 80       2..........
0280: 1F 01 6F 00                                       ..o.            
```

#### Opcodes

```
  0: 0x0275 [0x32] ExtData[1]->MainSpeed = 41* * 0.1
  1: 0x0278 [0x1F] MOVE_ENTITY: EventEntity moves to X=-82.888*, Z=-4.774*, Y=0.000*
  2: 0x0280 [0x1F] MOVE_ENTITY: Update entity position (mode=1)
  3: 0x0282 [0x6F] WAIT_FRAME_DELAY: Yield until WaitTime reaches zero
  4: 0x0283 [0x00] END_REQSTACK()
```

### Event 65535.6

#### Metadata

| Field        | Value    |
|--------------|----------|
| Entrypoint   | 0x0284   |
| Data Size    | 30 bytes |
| Instructions | 8        |

```
      00 01 02 03 04 05 06 07  08 09 0A 0B 0C 0D 0E 0F
      -- -- -- -- -- -- -- --  -- -- -- -- -- -- -- --
0280:             6E F8 FF FF  7F 20 80 99 F8 FF FF 7F      n.... ......
0290: 1C 0B 80 32 21 80 1F 00  22 80 23 80 00 80 1F 01  ...2!...".#.....
02A0: 6F 00                                             o.              
```

#### Opcodes

```
  0: 0x0284 [0x6E] EventEntity uses emote 6*
  1: 0x028B [0x99] Wait for EventEntity animation to complete
  2: 0x0290 [0x1C] WAIT(120* ticks)
  3: 0x0293 [0x32] ExtData[1]->MainSpeed = 10* * 0.1
  4: 0x0296 [0x1F] MOVE_ENTITY: EventEntity moves to X=-86.082*, Z=-1.442*, Y=0.000*
  5: 0x029E [0x1F] MOVE_ENTITY: Update entity position (mode=1)
  6: 0x02A0 [0x6F] WAIT_FRAME_DELAY: Yield until WaitTime reaches zero
  7: 0x02A1 [0x00] END_REQSTACK()
```

### Event 65535.7

#### Metadata

| Field        | Value    |
|--------------|----------|
| Entrypoint   | 0x02A2   |
| Data Size    | 16 bytes |
| Instructions | 2        |

```
      00 01 02 03 04 05 06 07  08 09 0A 0B 0C 0D 0E 0F
      -- -- -- -- -- -- -- --  -- -- -- -- -- -- -- --
02A0:       5B 24 80 86 60 0F  01 86 60 0F 01 66 75 6D    [$..`...`..fum
02B0: 30 00                                             0.              
```

#### Opcodes

```
  0: 0x02A2 [0x5B] LOAD_EXT_SCHEDULER: Load scheduler "fum0" with entities [Squintrox Dryeyes (ID: 17784966/0x010F6086), Squintrox Dryeyes (ID: 17784966/0x010F6086)], work=216*
  1: 0x02B1 [0x00] END_REQSTACK()
```

### Event 65535.8

#### Metadata

| Field        | Value    |
|--------------|----------|
| Entrypoint   | 0x02B2   |
| Data Size    | 33 bytes |
| Instructions | 7        |

```
      00 01 02 03 04 05 06 07  08 09 0A 0B 0C 0D 0E 0F
      -- -- -- -- -- -- -- --  -- -- -- -- -- -- -- --
02B0:       32 25 80 1F 00 26  80 27 80 00 80 1F 01 6F    2%...&.'.....o
02C0: 1C 16 80 66 13 80 42 60  0F 01 42 60 0F 01 74 68  ...f..B`..B`..th
02D0: 6B 31 00                                          k1.             
```

#### Opcodes

```
  0: 0x02B2 [0x32] ExtData[1]->MainSpeed = 12* * 0.1
  1: 0x02B5 [0x1F] MOVE_ENTITY: EventEntity moves to X=-100.794*, Z=-3.679*, Y=0.000*
  2: 0x02BD [0x1F] MOVE_ENTITY: Update entity position (mode=1)
  3: 0x02BF [0x6F] WAIT_FRAME_DELAY: Yield until WaitTime reaches zero
  4: 0x02C0 [0x1C] WAIT(15* ticks)
  5: 0x02C3 [0x66] LOAD_EXT_SCHEDULER_MAIN: Load scheduler "thk1" with entities [Naurmaire (ID: 17784898/0x010F6042), Naurmaire (ID: 17784898/0x010F6042)], work=30*
  6: 0x02D2 [0x00] END_REQSTACK()
```

### Event 65535.9

#### Metadata

| Field        | Value    |
|--------------|----------|
| Entrypoint   | 0x02D3   |
| Data Size    | 33 bytes |
| Instructions | 7        |

```
      00 01 02 03 04 05 06 07  08 09 0A 0B 0C 0D 0E 0F
      -- -- -- -- -- -- -- --  -- -- -- -- -- -- -- --
02D0:          66 21 80 3F 60  0F 01 3F 60 0F 01 74 68     f!.?`..?`..th
02E0: 6B 32 1C 28 80 32 29 80  1F 00 2A 80 2B 80 00 80  k2.(.2)...*.+...
02F0: 1F 01 6F 00                                       ..o.            
```

#### Opcodes

```
  0: 0x02D3 [0x66] LOAD_EXT_SCHEDULER_MAIN: Load scheduler "thk2" with entities [Marnie (ID: 17784895/0x010F603F), Marnie (ID: 17784895/0x010F603F)], work=10*
  1: 0x02E2 [0x1C] WAIT(60* ticks)
  2: 0x02E5 [0x32] ExtData[1]->MainSpeed = 40* * 0.1
  3: 0x02E8 [0x1F] MOVE_ENTITY: EventEntity moves to X=-30.213*, Z=-1.502*, Y=0.000*
  4: 0x02F0 [0x1F] MOVE_ENTITY: Update entity position (mode=1)
  5: 0x02F2 [0x6F] WAIT_FRAME_DELAY: Yield until WaitTime reaches zero
  6: 0x02F3 [0x00] END_REQSTACK()
```

### Event 65535.10

#### Metadata

| Field        | Value    |
|--------------|----------|
| Entrypoint   | 0x02F4   |
| Data Size    | 45 bytes |
| Instructions | 12       |

```
      00 01 02 03 04 05 06 07  08 09 0A 0B 0C 0D 0E 0F
      -- -- -- -- -- -- -- --  -- -- -- -- -- -- -- --
02F0:             32 06 80 1F  00 2C 80 2D 80 00 80 1F      2....,.-....
0300: 01 1C 13 80 39 2E 80 1C  2F 80 1F 00 30 80 31 80  ....9.../...0.1.
0310: 00 80 1F 01 1C 13 80 39  32 80 1C 2F 80 01 F4 02  .......92../....
0320: 00                                                .               
```

#### Opcodes

```
  0: 0x02F4 [0x32] ExtData[1]->MainSpeed = 13* * 0.1
  1: 0x02F7 [0x1F] MOVE_ENTITY: EventEntity moves to X=-96.584*, Z=-8.519*, Y=0.000*
  2: 0x02FF [0x1F] MOVE_ENTITY: Update entity position (mode=1)
  3: 0x0301 [0x1C] WAIT(30* ticks)
  4: 0x0304 [0x39] SET_ENTITY_DIRECTION(direction=19.7°*)
  5: 0x0307 [0x1C] WAIT(360* ticks)
  6: 0x030A [0x1F] MOVE_ENTITY: EventEntity moves to X=-96.241*, Z=8.872*, Y=0.000*
  7: 0x0312 [0x1F] MOVE_ENTITY: Update entity position (mode=1)
  8: 0x0314 [0x1C] WAIT(30* ticks)
  9: 0x0317 [0x39] SET_ENTITY_DIRECTION(direction=2.8°*)
 10: 0x031A [0x1C] WAIT(360* ticks)
 11: 0x031D [0x01] GOTO 0x02F4
```

#### Data or dead code:

```
# Dead code (unreachable instructions):
     0x0320 [0x00] END_REQSTACK()
```

### Event 65535.11

#### Metadata

| Field        | Value     |
|--------------|-----------|
| Entrypoint   | 0x0321    |
| Data Size    | 139 bytes |
| Instructions | 22        |

```
      00 01 02 03 04 05 06 07  08 09 0A 0B 0C 0D 0E 0F
      -- -- -- -- -- -- -- --  -- -- -- -- -- -- -- --
0320:    5B 10 80 06 60 0F 01  06 60 0F 01 68 61 69 30   [...`...`..hai0
0330: 1C 11 80 4A 04 60 0F 01  06 60 0F 01 1C 12 80 79  ...J.`...`.....y
0340: 00 05 60 0F 01 06 60 0F  01 1C 13 80 4B 06 60 0F  ..`...`.....K.`.
0350: 01 14 80 6F 76 06 60 0F  01 5B 10 80 06 60 0F 01  ...ov.`..[...`..
0360: 06 60 0F 01 61 77 77 30  1C 11 80 5B 15 80 04 60  .`..aww0...[...`
0370: 0F 01 04 60 0F 01 74 68  6B 31 1C 16 80 5B 05 80  ...`..thk1...[..
0380: 05 60 0F 01 05 60 0F 01  74 6C 6B 30 1C 05 80 27  .`...`..tlk0...'
0390: 10 04 60 0F 01 29 27 10  05 60 0F 01 28 32 17 80  ..`..)'..`..(2..
03A0: 1F 00 33 80 34 80 00 80  1F 01 6F 00              ..3.4.....o.    
```

#### Opcodes

```
  0: 0x0321 [0x5B] LOAD_EXT_SCHEDULER: Load scheduler "hai0" with entities [Jaha Amariyo (ID: 17784838/0x010F6006), Jaha Amariyo (ID: 17784838/0x010F6006)], work=81*
  1: 0x0330 [0x1C] WAIT(45* ticks)
  2: 0x0333 [0x4A] Karl (ID: 17784836/0x010F6004) looks at Jaha Amariyo (ID: 17784838/0x010F6006)
  3: 0x033C [0x1C] WAIT(5* ticks)
  4: 0x033F [0x79] Buntz (ID: 17784837/0x010F6005) looks at Jaha Amariyo (ID: 17784838/0x010F6006) (Basic look)
  5: 0x0349 [0x1C] WAIT(30* ticks)
  6: 0x034C [0x4B] UPDATE_ENTITY_YAW(entity=Jaha Amariyo (ID: 17784838/0x010F6006), yaw=12.2°*)
  7: 0x0353 [0x6F] WAIT_FRAME_DELAY: Yield until WaitTime reaches zero
  8: 0x0354 [0x76] CHECK_ENTITY_RENDER_FLAGS: Wait until Jaha Amariyo (ID: 17784838/0x010F6006) Render.Flags0 and Render.Flags3 conditions are met
  9: 0x0359 [0x5B] LOAD_EXT_SCHEDULER: Load scheduler "aww0" with entities [Jaha Amariyo (ID: 17784838/0x010F6006), Jaha Amariyo (ID: 17784838/0x010F6006)], work=81*
 10: 0x0368 [0x1C] WAIT(45* ticks)
 11: 0x036B [0x5B] LOAD_EXT_SCHEDULER: Load scheduler "thk1" with entities [Karl (ID: 17784836/0x010F6004), Karl (ID: 17784836/0x010F6004)], work=75*
 12: 0x037A [0x1C] WAIT(15* ticks)
 13: 0x037D [0x5B] LOAD_EXT_SCHEDULER: Load scheduler "tlk0" with entities [Buntz (ID: 17784837/0x010F6005), Buntz (ID: 17784837/0x010F6005)], work=90*
 14: 0x038C [0x1C] WAIT(90* ticks)
 15: 0x038F [0x27] REQ_SET(priority=0x10, entity_id=Karl (ID: 17784836/0x010F6004), tag_num=0x29)
 16: 0x0396 [0x27] REQ_SET(priority=0x10, entity_id=Buntz (ID: 17784837/0x010F6005), tag_num=0x28)
 17: 0x039D [0x32] ExtData[1]->MainSpeed = 37* * 0.1
 18: 0x03A0 [0x1F] MOVE_ENTITY: EventEntity moves to X=-52.555*, Z=1.950*, Y=0.000*
 19: 0x03A8 [0x1F] MOVE_ENTITY: Update entity position (mode=1)
 20: 0x03AA [0x6F] WAIT_FRAME_DELAY: Yield until WaitTime reaches zero
 21: 0x03AB [0x00] END_REQSTACK()
```

### Event 65535.12

#### Metadata

| Field        | Value    |
|--------------|----------|
| Entrypoint   | 0x03AC   |
| Data Size    | 15 bytes |
| Instructions | 5        |

```
      00 01 02 03 04 05 06 07  08 09 0A 0B 0C 0D 0E 0F
      -- -- -- -- -- -- -- --  -- -- -- -- -- -- -- --
03A0:                                      32 1A 80 1F              2...
03B0: 00 35 80 36 80 00 80 1F  01 6F 00                 .5.6.....o.     
```

#### Opcodes

```
  0: 0x03AC [0x32] ExtData[1]->MainSpeed = 39* * 0.1
  1: 0x03AF [0x1F] MOVE_ENTITY: EventEntity moves to X=-49.108*, Z=2.357*, Y=0.000*
  2: 0x03B7 [0x1F] MOVE_ENTITY: Update entity position (mode=1)
  3: 0x03B9 [0x6F] WAIT_FRAME_DELAY: Yield until WaitTime reaches zero
  4: 0x03BA [0x00] END_REQSTACK()
```

### Event 65535.13

#### Metadata

| Field        | Value    |
|--------------|----------|
| Entrypoint   | 0x03BB   |
| Data Size    | 15 bytes |
| Instructions | 5        |

```
      00 01 02 03 04 05 06 07  08 09 0A 0B 0C 0D 0E 0F
      -- -- -- -- -- -- -- --  -- -- -- -- -- -- -- --
03B0:                                   32 1D 80 1F 00             2....
03C0: 37 80 38 80 00 80 1F 01  6F 00                    7.8.....o.      
```

#### Opcodes

```
  0: 0x03BB [0x32] ExtData[1]->MainSpeed = 41* * 0.1
  1: 0x03BE [0x1F] MOVE_ENTITY: EventEntity moves to X=-51.734*, Z=2.879*, Y=0.000*
  2: 0x03C6 [0x1F] MOVE_ENTITY: Update entity position (mode=1)
  3: 0x03C8 [0x6F] WAIT_FRAME_DELAY: Yield until WaitTime reaches zero
  4: 0x03C9 [0x00] END_REQSTACK()
```

### Event 65535.14

#### Metadata

| Field        | Value    |
|--------------|----------|
| Entrypoint   | 0x03CA   |
| Data Size    | 15 bytes |
| Instructions | 5        |

```
      00 01 02 03 04 05 06 07  08 09 0A 0B 0C 0D 0E 0F
      -- -- -- -- -- -- -- --  -- -- -- -- -- -- -- --
03C0:                                32 25 80 1F 00 39            2%...9
03D0: 80 3A 80 00 80 1F 01 6F  00                       .:.....o.       
```

#### Opcodes

```
  0: 0x03CA [0x32] ExtData[1]->MainSpeed = 12* * 0.1
  1: 0x03CD [0x1F] MOVE_ENTITY: EventEntity moves to X=-50.670*, Z=2.474*, Y=0.000*
  2: 0x03D5 [0x1F] MOVE_ENTITY: Update entity position (mode=1)
  3: 0x03D7 [0x6F] WAIT_FRAME_DELAY: Yield until WaitTime reaches zero
  4: 0x03D8 [0x00] END_REQSTACK()
```

### Event 65535.15

#### Metadata

| Field        | Value    |
|--------------|----------|
| Entrypoint   | 0x03D9   |
| Data Size    | 80 bytes |
| Instructions | 13       |

```
      00 01 02 03 04 05 06 07  08 09 0A 0B 0C 0D 0E 0F
      -- -- -- -- -- -- -- --  -- -- -- -- -- -- -- --
03D0:                             32 0C 80 1F 00 3B 80           2....;.
03E0: 3C 80 00 80 1F 01 79 00  45 60 0F 01 42 60 0F 01  <.....y.E`..B`..
03F0: 66 13 80 42 60 0F 01 42  60 0F 01 74 68 6B 32 32  f..B`..B`..thk22
0400: 3D 80 4A 42 60 0F 01 45  60 0F 01 1F 00 3E 80 3F  =.JB`..E`....>.?
0410: 80 00 80 1F 01 6F 1C 13  80 66 00 80 45 60 0F 01  .....o...f..E`..
0420: 45 60 0F 01 74 6C 6B 31  00                       E`..tlk1.       
```

#### Opcodes

```
  0: 0x03D9 [0x32] ExtData[1]->MainSpeed = 11* * 0.1
  1: 0x03DC [0x1F] MOVE_ENTITY: EventEntity moves to X=-92.526*, Z=-2.418*, Y=0.000*
  2: 0x03E4 [0x1F] MOVE_ENTITY: Update entity position (mode=1)
  3: 0x03E6 [0x79] Falak (ID: 17784901/0x010F6045) looks at Naurmaire (ID: 17784898/0x010F6042) (Basic look)
  4: 0x03F0 [0x66] LOAD_EXT_SCHEDULER_MAIN: Load scheduler "thk2" with entities [Naurmaire (ID: 17784898/0x010F6042), Naurmaire (ID: 17784898/0x010F6042)], work=30*
  5: 0x03FF [0x32] ExtData[1]->MainSpeed = 38* * 0.1
  6: 0x0402 [0x4A] Naurmaire (ID: 17784898/0x010F6042) looks at Falak (ID: 17784901/0x010F6045)
  7: 0x040B [0x1F] MOVE_ENTITY: EventEntity moves to X=-98.837*, Z=-2.640*, Y=0.000*
  8: 0x0413 [0x1F] MOVE_ENTITY: Update entity position (mode=1)
  9: 0x0415 [0x6F] WAIT_FRAME_DELAY: Yield until WaitTime reaches zero
 10: 0x0416 [0x1C] WAIT(30* ticks)
 11: 0x0419 [0x66] LOAD_EXT_SCHEDULER_MAIN: Load scheduler "tlk1" with entities [Falak (ID: 17784901/0x010F6045), Falak (ID: 17784901/0x010F6045)], work=0*
 12: 0x0428 [0x00] END_REQSTACK()
```

### Event 65535.16

#### Metadata

| Field        | Value    |
|--------------|----------|
| Entrypoint   | 0x0429   |
| Data Size    | 15 bytes |
| Instructions | 5        |

```
      00 01 02 03 04 05 06 07  08 09 0A 0B 0C 0D 0E 0F
      -- -- -- -- -- -- -- --  -- -- -- -- -- -- -- --
0420:                             32 25 80 1F 00 40 80           2%...@.
0430: 41 80 00 80 1F 01 6F 00                           A.....o.        
```

#### Opcodes

```
  0: 0x0429 [0x32] ExtData[1]->MainSpeed = 12* * 0.1
  1: 0x042C [0x1F] MOVE_ENTITY: EventEntity moves to X=4.999*, Z=-0.799*, Y=0.000*
  2: 0x0434 [0x1F] MOVE_ENTITY: Update entity position (mode=1)
  3: 0x0436 [0x6F] WAIT_FRAME_DELAY: Yield until WaitTime reaches zero
  4: 0x0437 [0x00] END_REQSTACK()
```

### Event 65535.17

#### Metadata

| Field        | Value    |
|--------------|----------|
| Entrypoint   | 0x0438   |
| Data Size    | 15 bytes |
| Instructions | 5        |

```
      00 01 02 03 04 05 06 07  08 09 0A 0B 0C 0D 0E 0F
      -- -- -- -- -- -- -- --  -- -- -- -- -- -- -- --
0430:                          32 06 80 1F 00 42 80 43          2....B.C
0440: 80 00 80 1F 01 6F 00                              .....o.         
```

#### Opcodes

```
  0: 0x0438 [0x32] ExtData[1]->MainSpeed = 13* * 0.1
  1: 0x043B [0x1F] MOVE_ENTITY: EventEntity moves to X=-76.908*, Z=-2.465*, Y=0.000*
  2: 0x0443 [0x1F] MOVE_ENTITY: Update entity position (mode=1)
  3: 0x0445 [0x6F] WAIT_FRAME_DELAY: Yield until WaitTime reaches zero
  4: 0x0446 [0x00] END_REQSTACK()
```

### Event 65535.18

#### Metadata

| Field        | Value    |
|--------------|----------|
| Entrypoint   | 0x0447   |
| Data Size    | 15 bytes |
| Instructions | 5        |

```
      00 01 02 03 04 05 06 07  08 09 0A 0B 0C 0D 0E 0F
      -- -- -- -- -- -- -- --  -- -- -- -- -- -- -- --
0440:                      32  0C 80 1F 00 44 80 45 80         2....D.E.
0450: 00 80 1F 01 6F 00                                 ....o.          
```

#### Opcodes

```
  0: 0x0447 [0x32] ExtData[1]->MainSpeed = 11* * 0.1
  1: 0x044A [0x1F] MOVE_ENTITY: EventEntity moves to X=-50.956*, Z=-2.015*, Y=0.000*
  2: 0x0452 [0x1F] MOVE_ENTITY: Update entity position (mode=1)
  3: 0x0454 [0x6F] WAIT_FRAME_DELAY: Yield until WaitTime reaches zero
  4: 0x0455 [0x00] END_REQSTACK()
```

### Event 65535.19

#### Metadata

| Field        | Value    |
|--------------|----------|
| Entrypoint   | 0x0456   |
| Data Size    | 15 bytes |
| Instructions | 5        |

```
      00 01 02 03 04 05 06 07  08 09 0A 0B 0C 0D 0E 0F
      -- -- -- -- -- -- -- --  -- -- -- -- -- -- -- --
0450:                   32 0C  80 1F 00 46 80 47 80 00        2....F.G..
0460: 80 1F 01 6F 00                                    ...o.           
```

#### Opcodes

```
  0: 0x0456 [0x32] ExtData[1]->MainSpeed = 11* * 0.1
  1: 0x0459 [0x1F] MOVE_ENTITY: EventEntity moves to X=-106.865*, Z=2.201*, Y=0.000*
  2: 0x0461 [0x1F] MOVE_ENTITY: Update entity position (mode=1)
  3: 0x0463 [0x6F] WAIT_FRAME_DELAY: Yield until WaitTime reaches zero
  4: 0x0464 [0x00] END_REQSTACK()
```

### Event 65535.20

#### Metadata

| Field        | Value    |
|--------------|----------|
| Entrypoint   | 0x0465   |
| Data Size    | 15 bytes |
| Instructions | 5        |

```
      00 01 02 03 04 05 06 07  08 09 0A 0B 0C 0D 0E 0F
      -- -- -- -- -- -- -- --  -- -- -- -- -- -- -- --
0460:                32 06 80  1F 00 48 80 49 80 00 80       2....H.I...
0470: 1F 01 6F 00                                       ..o.            
```

#### Opcodes

```
  0: 0x0465 [0x32] ExtData[1]->MainSpeed = 13* * 0.1
  1: 0x0468 [0x1F] MOVE_ENTITY: EventEntity moves to X=-36.731*, Z=-2.282*, Y=0.000*
  2: 0x0470 [0x1F] MOVE_ENTITY: Update entity position (mode=1)
  3: 0x0472 [0x6F] WAIT_FRAME_DELAY: Yield until WaitTime reaches zero
  4: 0x0473 [0x00] END_REQSTACK()
```

### Event 65535.21

#### Metadata

| Field        | Value    |
|--------------|----------|
| Entrypoint   | 0x0474   |
| Data Size    | 53 bytes |
| Instructions | 10       |

```
      00 01 02 03 04 05 06 07  08 09 0A 0B 0C 0D 0E 0F
      -- -- -- -- -- -- -- --  -- -- -- -- -- -- -- --
0470:             32 06 80 1F  00 4A 80 4B 80 00 80 1F      2....J.K....
0480: 01 1F 00 4C 80 4D 80 00  80 1F 01 6F 1C 16 80 79  ...L.M.....o...y
0490: 00 49 60 0F 01 86 60 0F  01 5B 4E 80 86 60 0F 01  .I`...`..[N..`..
04A0: 86 60 0F 01 74 6C 6B 30  00                       .`..tlk0.       
```

#### Opcodes

```
  0: 0x0474 [0x32] ExtData[1]->MainSpeed = 13* * 0.1
  1: 0x0477 [0x1F] MOVE_ENTITY: EventEntity moves to X=-58.047*, Z=9.433*, Y=0.000*
  2: 0x047F [0x1F] MOVE_ENTITY: Update entity position (mode=1)
  3: 0x0481 [0x1F] MOVE_ENTITY: EventEntity moves to X=-56.466*, Z=10.018*, Y=0.000*
  4: 0x0489 [0x1F] MOVE_ENTITY: Update entity position (mode=1)
  5: 0x048B [0x6F] WAIT_FRAME_DELAY: Yield until WaitTime reaches zero
  6: 0x048C [0x1C] WAIT(15* ticks)
  7: 0x048F [0x79] Shami (ID: 17784905/0x010F6049) looks at Squintrox Dryeyes (ID: 17784966/0x010F6086) (Basic look)
  8: 0x0499 [0x5B] LOAD_EXT_SCHEDULER: Load scheduler "tlk0" with entities [Squintrox Dryeyes (ID: 17784966/0x010F6086), Squintrox Dryeyes (ID: 17784966/0x010F6086)], work=215*
  9: 0x04A8 [0x00] END_REQSTACK()
```

### Event 65535.22

#### Metadata

| Field        | Value    |
|--------------|----------|
| Entrypoint   | 0x04A9   |
| Data Size    | 58 bytes |
| Instructions | 11       |

```
      00 01 02 03 04 05 06 07  08 09 0A 0B 0C 0D 0E 0F
      -- -- -- -- -- -- -- --  -- -- -- -- -- -- -- --
04A0:                             32 06 80 79 00 3E 60           2..y.>`
04B0: 0F 01 28 60 0F 01 1F 00  4F 80 50 80 00 80 1F 01  ..(`....O.P.....
04C0: 6F 1C 16 80 4A 3E 60 0F  01 28 60 0F 01 6F 76 3E  o...J>`..(`..ov>
04D0: 60 0F 01 66 51 80 3E 60  0F 01 3E 60 0F 01 74 6C  `..fQ.>`..>`..tl
04E0: 6B 30 00                                          k0.             
```

#### Opcodes

```
  0: 0x04A9 [0x32] ExtData[1]->MainSpeed = 13* * 0.1
  1: 0x04AC [0x79] Leffquen (ID: 17784894/0x010F603E) looks at Ramicharaux (ID: 17784872/0x010F6028) (Basic look)
  2: 0x04B6 [0x1F] MOVE_ENTITY: EventEntity moves to X=-52.055*, Z=2.177*, Y=0.000*
  3: 0x04BE [0x1F] MOVE_ENTITY: Update entity position (mode=1)
  4: 0x04C0 [0x6F] WAIT_FRAME_DELAY: Yield until WaitTime reaches zero
  5: 0x04C1 [0x1C] WAIT(15* ticks)
  6: 0x04C4 [0x4A] Leffquen (ID: 17784894/0x010F603E) looks at Ramicharaux (ID: 17784872/0x010F6028)
  7: 0x04CD [0x6F] WAIT_FRAME_DELAY: Yield until WaitTime reaches zero
  8: 0x04CE [0x76] CHECK_ENTITY_RENDER_FLAGS: Wait until Leffquen (ID: 17784894/0x010F603E) Render.Flags0 and Render.Flags3 conditions are met
  9: 0x04D3 [0x66] LOAD_EXT_SCHEDULER_MAIN: Load scheduler "tlk0" with entities [Leffquen (ID: 17784894/0x010F603E), Leffquen (ID: 17784894/0x010F603E)], work=19*
 10: 0x04E2 [0x00] END_REQSTACK()
```
