# 17784894 - Leffquen

## Common Data

| Field            | Value                |
|------------------|----------------------|
| Zone             | Port Jeuno (ID: 246) |
| Block Size       | 2596 bytes           |
| Total Events     | 41                   |
| References Count | 141                  |

## List of Events

| Event ID                   | Entrypoint   |   Size |   Instructions |
|----------------------------|--------------|--------|----------------|
| [65535](#event-65535)      | 0x0000       |      6 |              2 |
| [10022](#event-10022)      | 0x0006       |    683 |            150 |
| [324](#event-324)          | 0x02B1       |     18 |              4 |
| [325](#event-325)          | 0x02C3       |     18 |              4 |
| [327](#event-327)          | 0x02D5       |     18 |              4 |
| [331](#event-331)          | 0x02E7       |     18 |              4 |
| [332](#event-332)          | 0x02F9       |     18 |              4 |
| [333](#event-333)          | 0x030B       |     18 |              4 |
| [334](#event-334)          | 0x031D       |     18 |              4 |
| [335](#event-335)          | 0x032F       |     18 |              4 |
| [336](#event-336)          | 0x0341       |     18 |              4 |
| [337](#event-337)          | 0x0353       |     18 |              4 |
| [338](#event-338)          | 0x0365       |     18 |              4 |
| [340](#event-340)          | 0x0377       |     18 |              4 |
| [341](#event-341)          | 0x0389       |     18 |              4 |
| [342](#event-342)          | 0x039B       |     18 |              4 |
| [343](#event-343)          | 0x03AD       |     18 |              4 |
| [344](#event-344)          | 0x03BF       |     18 |              4 |
| [345](#event-345)          | 0x03D1       |     18 |              4 |
| [65535.1](#event-655351)   | 0x03E3       |     40 |              8 |
| [65535.2](#event-655352)   | 0x040B       |     40 |              8 |
| [65535.3](#event-655353)   | 0x0433       |    139 |             22 |
| [65535.4](#event-655354)   | 0x04BE       |     15 |              5 |
| [65535.5](#event-655355)   | 0x04CD       |     15 |              5 |
| [65535.6](#event-655356)   | 0x04DC       |     30 |              8 |
| [65535.7](#event-655357)   | 0x04FA       |     16 |              2 |
| [65535.8](#event-655358)   | 0x050A       |     33 |              7 |
| [65535.9](#event-655359)   | 0x052B       |     33 |              7 |
| [65535.10](#event-6553510) | 0x054C       |     45 |             13 |
| [65535.11](#event-6553511) | 0x0579       |    139 |             22 |
| [65535.12](#event-6553512) | 0x0604       |     15 |              5 |
| [65535.13](#event-6553513) | 0x0613       |     15 |              5 |
| [65535.14](#event-6553514) | 0x0622       |     15 |              5 |
| [65535.15](#event-6553515) | 0x0631       |     80 |             13 |
| [65535.16](#event-6553516) | 0x0681       |     15 |              5 |
| [65535.17](#event-6553517) | 0x0690       |     15 |              5 |
| [65535.18](#event-6553518) | 0x069F       |     15 |              5 |
| [65535.19](#event-6553519) | 0x06AE       |     15 |              5 |
| [65535.20](#event-6553520) | 0x06BD       |     15 |              5 |
| [65535.21](#event-6553521) | 0x06CC       |     53 |             10 |
| [65535.22](#event-6553522) | 0x0701       |     58 |             11 |

## DAT References (imed_data)

|   Index | Hex Value   |   Dec Value |
|---------|-------------|-------------|
|       0 | 0x1DD1FCC6  |   500300998 |
|       1 | 0x1AD9      |        6873 |
|       2 | 0x1ADA      |        6874 |
|       3 | 0x0000      |           0 |
|       4 | 0x0001      |           1 |
|       5 | 0x0064      |         100 |
|       6 | 0x0002      |           2 |
|       7 | 0x0066      |         102 |
|       8 | 0x0003      |           3 |
|       9 | 0x0067      |         103 |
|      10 | 0x0004      |           4 |
|      11 | 0x0068      |         104 |
|      12 | 0x0005      |           5 |
|      13 | 0x0069      |         105 |
|      14 | 0x0006      |           6 |
|      15 | 0x006A      |         106 |
|      16 | 0x0007      |           7 |
|      17 | 0x006C      |         108 |
|      18 | 0x0008      |           8 |
|      19 | 0x006D      |         109 |
|      20 | 0x0009      |           9 |
|      21 | 0x006E      |         110 |
|      22 | 0x000A      |          10 |
|      23 | 0x006F      |         111 |
|      24 | 0x000B      |          11 |
|      25 | 0x0070      |         112 |
|      26 | 0x000C      |          12 |
|      27 | 0x0071      |         113 |
|      28 | 0x000D      |          13 |
|      29 | 0x0072      |         114 |
|      30 | 0x000E      |          14 |
|      31 | 0x0073      |         115 |
|      32 | 0x000F      |          15 |
|      33 | 0x0075      |         117 |
|      34 | 0x0010      |          16 |
|      35 | 0x0076      |         118 |
|      36 | 0x0011      |          17 |
|      37 | 0x0077      |         119 |
|      38 | 0x0012      |          18 |
|      39 | 0x0078      |         120 |
|      40 | 0x0013      |          19 |
|      41 | 0x0079      |         121 |
|      42 | 0x0014      |          20 |
|      43 | 0x007B      |         123 |
|      44 | 0x0015      |          21 |
|      45 | 0x007E      |         126 |
|      46 | 0x0016      |          22 |
|      47 | 0x0082      |         130 |
|      48 | 0x0017      |          23 |
|      49 | 0x00DC      |         220 |
|      50 | 0x0018      |          24 |
|      51 | 0x00DF      |         223 |
|      52 | 0x0019      |          25 |
|      53 | 0x00F3      |         243 |
|      54 | 0x001A      |          26 |
|      55 | 0x001B      |          27 |
|      56 | 0x001C      |          28 |
|      57 | 0x001D      |          29 |
|      58 | 0x0D80      |        3456 |
|      59 | 0x00FF      |         255 |
|      60 | 0x1AE4      |        6884 |
|      61 | 0x1AE1      |        6881 |
|      62 | 0x1ADE      |        6878 |
|      63 | 0x1ADB      |        6875 |
|      64 | 0x1AE5      |        6885 |
|      65 | 0x1AE2      |        6882 |
|      66 | 0x1ADF      |        6879 |
|      67 | 0x1ADC      |        6876 |
|      68 | 0x1AE6      |        6886 |
|      69 | 0x1AE3      |        6883 |
|      70 | 0x1AE0      |        6880 |
|      71 | 0x1ADD      |        6877 |
|      72 | 0x1AE7      |        6887 |
|      73 | 0x005A      |          90 |
|      74 | 0xFFFF43BD  |  4294919101 |
|      75 | 0x0E16      |        3606 |
|      76 | 0x03CD      |         973 |
|      77 | 0x0034      |          52 |
|      78 | 0x5D1F      |       23839 |
|      79 | 0x1781      |        6017 |
|      80 | 0x02AF      |         687 |
|      81 | 0x0051      |          81 |
|      82 | 0x002D      |          45 |
|      83 | 0x001E      |          30 |
|      84 | 0x08AE      |        2222 |
|      85 | 0x004B      |          75 |
|      86 | 0x0025      |          37 |
|      87 | 0xFFFEC504  |  4294886660 |
|      88 | 0xFFFFEAAC  |  4294961836 |
|      89 | 0x0027      |          39 |
|      90 | 0xFFFEC210  |  4294885904 |
|      91 | 0xFFFFEF62  |  4294963042 |
|      92 | 0x0029      |          41 |
|      93 | 0xFFFEBC38  |  4294884408 |
|      94 | 0xFFFFED5A  |  4294962522 |
|      95 | 0xFFFEAFBE  |  4294881214 |
|      96 | 0xFFFFFA5E  |  4294965854 |
|      97 | 0x00D8      |         216 |
|      98 | 0xFFFE7646  |  4294866502 |
|      99 | 0xFFFFF1A1  |  4294963617 |
|     100 | 0x003C      |          60 |
|     101 | 0x0028      |          40 |
|     102 | 0xFFFF89FB  |  4294937083 |
|     103 | 0xFFFFFA22  |  4294965794 |
|     104 | 0xFFFE86B8  |  4294870712 |
|     105 | 0xFFFFDEB9  |  4294958777 |
|     106 | 0x0E02      |        3586 |
|     107 | 0x0168      |         360 |
|     108 | 0xFFFE880F  |  4294871055 |
|     109 | 0x22A8      |        8872 |
|     110 | 0x0200      |         512 |
|     111 | 0xFFFF32B5  |  4294914741 |
|     112 | 0x079E      |        1950 |
|     113 | 0xFFFF402C  |  4294918188 |
|     114 | 0x0935      |        2357 |
|     115 | 0xFFFF35EA  |  4294915562 |
|     116 | 0x0B3F      |        2879 |
|     117 | 0xFFFF3A12  |  4294916626 |
|     118 | 0x09AA      |        2474 |
|     119 | 0xFFFE9692  |  4294874770 |
|     120 | 0xFFFFF68E  |  4294964878 |
|     121 | 0x0026      |          38 |
|     122 | 0xFFFE7DEB  |  4294868459 |
|     123 | 0xFFFFF5B0  |  4294964656 |
|     124 | 0x1387      |        4999 |
|     125 | 0xFFFFFCE1  |  4294966497 |
|     126 | 0xFFFED394  |  4294890388 |
|     127 | 0xFFFFF65F  |  4294964831 |
|     128 | 0xFFFF38F4  |  4294916340 |
|     129 | 0xFFFFF821  |  4294965281 |
|     130 | 0xFFFE5E8F  |  4294860431 |
|     131 | 0x0899      |        2201 |
|     132 | 0xFFFF7085  |  4294930565 |
|     133 | 0xFFFFF716  |  4294965014 |
|     134 | 0xFFFF1D41  |  4294909249 |
|     135 | 0x24D9      |        9433 |
|     136 | 0xFFFF236E  |  4294910830 |
|     137 | 0x2722      |       10018 |
|     138 | 0x00D7      |         215 |
|     139 | 0xFFFF34A9  |  4294915241 |
|     140 | 0x0881      |        2177 |

## String References

- **6873**: Your fate rides on the changing winds of Vana'diel. I can give you insight on the local weather.
- **6874**: What area's weather do you wish to know? [Nowhere./Ronfaure./La Theine Plateau./Valkurm Dunes./Jugner Forest./Batallia Downs./Gustaberg./Konschtat Highlands./Pashhow Marshlands./Rolanberry Fields./Beaucedine Glacier./Xarcabard./Cape Teriggan./Altepa Desert./Sarutabaruta./Tahrongi Canyon./Buburimu Peninsula./Meriphataud Mountains./Sauromugue Champaign./The Sanctuary of Zi'Tah./Yuhtunga & Yhoator Jungles./Qufim Island./Tu'Lia./Ferry./Airship./Jeuno./Uleguerand Range./Tavnazian Archipelago./Riverne - Sites #A01 & #B01.]
- **6875**: That area's forecast for today is for $0 with occasional $1. There is also a slight chance of $2, so caution is advised.
- **6876**: The forecast for tomorrow is for $0 with occasional $1. There is also a slight chance of $2, so caution is advised.
- **6877**: And, the forecast for the day after tomorrow is for $0 with occasional $1. There is also a slight chance of $2, so caution is advised.
- **6878**: Today, that area's weather will be $0 with a chance of $1.
- **6879**: Tomorrow, the weather will be $0 with a chance of $1.
- **6880**: And, the day after tomorrow, the weather will be $0 with a chance of $1.
- **6881**: Today, the weather in that area will be $0. There is also the possibility of $2, so caution is advised.
- **6882**: Tomorrow, the weather will be $0. There is also the possibility of $2, so caution is advised.
- **6883**: And, the day after tomorrow, the weather will be $0. There is also the possibility of $2, so caution is advised.
- **6884**: The weather in that area today will be $0.
- **6885**: The weather tomorrow will be $0.
- **6886**: The weather the day after tomorrow will be $0.
- **6887**: And that's the report, straight from Vana'diel's official weather linkshell.

## Events

### Event 65535

#### Metadata

| Field        | Value   |
|--------------|---------|
| Entrypoint   | 0x0000  |
| Data Size    | 6 bytes |
| Instructions | 2       |

```
      00 01 02 03 04 05 06 07  08 09 0A 0B 0C 0D 0E 0F
      -- -- -- -- -- -- -- --  -- -- -- -- -- -- -- --
0000: 03 00 00 00 80 00                                 ......          
```

#### Opcodes

```
  0: 0x0000 [0x03] ExtData[1]->WorkLocal[0] = 500300998*
  1: 0x0005 [0x00] END_REQSTACK()
```

### Event 10022

#### Metadata

| Field        | Value     |
|--------------|-----------|
| Entrypoint   | 0x0006    |
| Data Size    | 683 bytes |
| Instructions | 63        |

```
      00 01 02 03 04 05 06 07  08 09 0A 0B 0C 0D 0E 0F
      -- -- -- -- -- -- -- --  -- -- -- -- -- -- -- --
0000:                   1E F0  FF FF 7F 1D 01 80 23 24        ........#$
0010: 02 80 03 80 00 00 25 02  00 10 03 80 00 24 00 21  ......%......$.!
0020: 00 01 E4 01 02 00 10 04  80 00 34 00 03 02 00 05  ..........4.....
0030: 80 01 E4 01 02 00 10 06  80 00 44 00 03 02 00 07  ..........D.....
0040: 80 01 E4 01 02 00 10 08  80 00 54 00 03 02 00 09  ..........T.....
0050: 80 01 E4 01 02 00 10 0A  80 00 64 00 03 02 00 0B  ..........d.....
0060: 80 01 E4 01 02 00 10 0C  80 00 74 00 03 02 00 0D  ..........t.....
0070: 80 01 E4 01 02 00 10 0E  80 00 84 00 03 02 00 0F  ................
0080: 80 01 E4 01 02 00 10 10  80 00 94 00 03 02 00 11  ................
0090: 80 01 E4 01 02 00 10 12  80 00 A4 00 03 02 00 13  ................
00A0: 80 01 E4 01 02 00 10 14  80 00 B4 00 03 02 00 15  ................
00B0: 80 01 E4 01 02 00 10 16  80 00 C4 00 03 02 00 17  ................
00C0: 80 01 E4 01 02 00 10 18  80 00 D4 00 03 02 00 19  ................
00D0: 80 01 E4 01 02 00 10 1A  80 00 E4 00 03 02 00 1B  ................
00E0: 80 01 E4 01 02 00 10 1C  80 00 F4 00 03 02 00 1D  ................
00F0: 80 01 E4 01 02 00 10 1E  80 00 04 01 03 02 00 1F  ................
0100: 80 01 E4 01 02 00 10 20  80 00 14 01 03 02 00 21  ....... .......!
0110: 80 01 E4 01 02 00 10 22  80 00 24 01 03 02 00 23  ......."..$....#
0120: 80 01 E4 01 02 00 10 24  80 00 34 01 03 02 00 25  .......$..4....%
0130: 80 01 E4 01 02 00 10 26  80 00 44 01 03 02 00 27  .......&..D....'
0140: 80 01 E4 01 02 00 10 28  80 00 54 01 03 02 00 29  .......(..T....)
0150: 80 01 E4 01 02 00 10 2A  80 00 64 01 03 02 00 2B  .......*..d....+
0160: 80 01 E4 01 02 00 10 2C  80 00 74 01 03 02 00 2D  .......,..t....-
0170: 80 01 E4 01 02 00 10 2E  80 00 84 01 03 02 00 2F  .............../
0180: 80 01 E4 01 02 00 10 30  80 00 94 01 03 02 00 31  .......0.......1
0190: 80 01 E4 01 02 00 10 32  80 00 A4 01 03 02 00 33  .......2.......3
01A0: 80 01 E4 01 02 00 10 34  80 00 B4 01 03 02 00 35  .......4.......5
01B0: 80 01 E4 01 02 00 10 36  80 00 C4 01 03 02 00 0C  .......6........
01C0: 80 01 E4 01 02 00 10 37  80 00 D4 01 03 02 00 32  .......7.......2
01D0: 80 01 E4 01 02 00 10 38  80 00 E4 01 03 02 00 39  .......8.......9
01E0: 80 01 E4 01 1A EB 01 21  00 21 00 03 01 00 09 10  .......!.!......
01F0: 15 01 00 3A 80 72 00 02  00 72 01 02 00 01 00 02  ...:.r...r......
0200: 03 10 3B 80 00 1D 02 02  04 10 3B 80 00 16 02 1D  ..;.......;.....
0210: 3C 80 23 01 1A 02 1D 3D  80 23 01 30 02 02 04 10  <.#....=.#.0....
0220: 3B 80 00 2C 02 1D 3E 80  23 01 30 02 1D 3F 80 23  ;..,..>.#.0..?.#
0230: 0B 01 00 72 00 02 00 72  01 02 00 01 00 02 03 10  ...r...r........
0240: 3B 80 00 5B 02 02 04 10  3B 80 00 54 02 1D 40 80  ;..[....;..T..@.
0250: 23 01 58 02 1D 41 80 23  01 6E 02 02 04 10 3B 80  #.X..A.#.n....;.
0260: 00 6A 02 1D 42 80 23 01  6E 02 1D 43 80 23 0B 01  .j..B.#.n..C.#..
0270: 00 72 00 02 00 72 01 02  00 01 00 02 03 10 3B 80  .r...r........;.
0280: 00 99 02 02 04 10 3B 80  00 92 02 1D 44 80 23 01  ......;.....D.#.
0290: 96 02 1D 45 80 23 01 AC  02 02 04 10 3B 80 00 A8  ...E.#......;...
02A0: 02 1D 46 80 23 01 AC 02  1D 47 80 23 1D 48 80 23  ..F.#....G.#.H.#
02B0: 1B                                                .               
```

#### Opcodes

```
  0: 0x0006 [0x1E] EventEntity looks at LocalPlayer and starts talking
  1: 0x000B [0x1D] PRINT_EVENT_MESSAGE(message_id=6873*)
    → "Your fate rides on the changing winds of Vana'diel. I can give you insight on the local weather."
  2: 0x000E [0x23] WAIT_FOR_DIALOG_INTERACTION
  3: 0x000F [0x24] CREATE_DIALOG(message_id=6874*, default_option=0*, option_flags=ExtData[1]->WorkLocal[0])
    → "What area's weather do you wish to know? [Nowhere./Ronfaure./La Theine Plateau./Valkurm Dunes./Jugner Forest./Batallia Downs./Gustaberg./Konschtat Highlands./Pashhow Marshlands./Rolanberry Fields./Beaucedine Glacier./Xarcabard./Cape Teriggan./Altepa Desert./Sarutabaruta./Tahrongi Canyon./Buburimu Peninsula./Meriphataud Mountains./Sauromugue Champaign./The Sanctuary of Zi'Tah./Yuhtunga & Yhoator Jungles./Qufim Island./Tu'Lia./Ferry./Airship./Jeuno./Uleguerand Range./Tavnazian Archipelago./Riverne - Sites #A01 & #B01.]"
  4: 0x0016 [0x25] WAIT_DIALOG_SELECT()
  5: 0x0017 [0x02] IF !(Work_Zone[0] == 0*) GOTO 0x0024
  6: 0x001F [0x21] END_EVENT
  7: 0x0020 [0x00] END_REQSTACK()

SUBROUTINE_01E4:
  8: 0x01E4 [0x1A] CALL_SUBROUTINE(address=0x01EB)
  9: 0x01E7 [0x21] END_EVENT
 10: 0x01E8 [0x00] END_REQSTACK()

SUBROUTINE_01EB:
 11: 0x01EB [0x03] ExtData[1]->WorkLocal[1] = Work_Zone[9]
 12: 0x01F0 [0x15] ExtData[1]->WorkLocal[1] /= 3456*
 13: 0x01F5 [0x72] LOAD_EVENT_WEATHER: Request weather file 7033, weather_id=ExtData[1]->WorkLocal[2], param1=0x0172, param2=0x00010002
 14: 0x01FF [0x02] IF !(Work_Zone[3] == 255*) GOTO 0x021D
 15: 0x0207 [0x02] IF !(Work_Zone[4] == 255*) GOTO 0x0216
 16: 0x020F [0x1D] PRINT_EVENT_MESSAGE(message_id=6884*)
    → "The weather in that area today will be $0."
 17: 0x0212 [0x23] WAIT_FOR_DIALOG_INTERACTION
 18: 0x0213 [0x01] GOTO 0x021A
 19: 0x0216 [0x1D] PRINT_EVENT_MESSAGE(message_id=6881*)
    → "Today, the weather in that area will be $0. There is also the possibility of $2, so caution is advised."
 20: 0x0219 [0x23] WAIT_FOR_DIALOG_INTERACTION

SUBROUTINE_021A:
 21: 0x021A [0x01] GOTO 0x0230
 22: 0x021D [0x02] IF !(Work_Zone[4] == 255*) GOTO 0x022C
 23: 0x0225 [0x1D] PRINT_EVENT_MESSAGE(message_id=6878*)
    → "Today, that area's weather will be $0 with a chance of $1."
 24: 0x0228 [0x23] WAIT_FOR_DIALOG_INTERACTION
 25: 0x0229 [0x01] GOTO 0x0230
 26: 0x022C [0x1D] PRINT_EVENT_MESSAGE(message_id=6875*)
    → "That area's forecast for today is for $0 with occasional $1. There is also a slight chance of $2, so caution is advised."
 27: 0x022F [0x23] WAIT_FOR_DIALOG_INTERACTION

SUBROUTINE_0230:
 28: 0x0230 [0x0B] ExtData[1]->WorkLocal[1]++
 29: 0x0233 [0x72] LOAD_EVENT_WEATHER: Request weather file 7033, weather_id=ExtData[1]->WorkLocal[2], param1=0x0172, param2=0x00010002
 30: 0x023D [0x02] IF !(Work_Zone[3] == 255*) GOTO 0x025B
 31: 0x0245 [0x02] IF !(Work_Zone[4] == 255*) GOTO 0x0254
 32: 0x024D [0x1D] PRINT_EVENT_MESSAGE(message_id=6885*)
    → "The weather tomorrow will be $0."
 33: 0x0250 [0x23] WAIT_FOR_DIALOG_INTERACTION
 34: 0x0251 [0x01] GOTO 0x0258
 35: 0x0254 [0x1D] PRINT_EVENT_MESSAGE(message_id=6882*)
    → "Tomorrow, the weather will be $0. There is also the possibility of $2, so caution is advised."
 36: 0x0257 [0x23] WAIT_FOR_DIALOG_INTERACTION

SUBROUTINE_0258:
 37: 0x0258 [0x01] GOTO 0x026E
 38: 0x025B [0x02] IF !(Work_Zone[4] == 255*) GOTO 0x026A
 39: 0x0263 [0x1D] PRINT_EVENT_MESSAGE(message_id=6879*)
    → "Tomorrow, the weather will be $0 with a chance of $1."
 40: 0x0266 [0x23] WAIT_FOR_DIALOG_INTERACTION
 41: 0x0267 [0x01] GOTO 0x026E
 42: 0x026A [0x1D] PRINT_EVENT_MESSAGE(message_id=6876*)
    → "The forecast for tomorrow is for $0 with occasional $1. There is also a slight chance of $2, so caution is advised."
 43: 0x026D [0x23] WAIT_FOR_DIALOG_INTERACTION

SUBROUTINE_026E:
 44: 0x026E [0x0B] ExtData[1]->WorkLocal[1]++
 45: 0x0271 [0x72] LOAD_EVENT_WEATHER: Request weather file 7033, weather_id=ExtData[1]->WorkLocal[2], param1=0x0172, param2=0x00010002
 46: 0x027B [0x02] IF !(Work_Zone[3] == 255*) GOTO 0x0299
 47: 0x0283 [0x02] IF !(Work_Zone[4] == 255*) GOTO 0x0292
 48: 0x028B [0x1D] PRINT_EVENT_MESSAGE(message_id=6886*)
    → "The weather the day after tomorrow will be $0."
 49: 0x028E [0x23] WAIT_FOR_DIALOG_INTERACTION
 50: 0x028F [0x01] GOTO 0x0296
 51: 0x0292 [0x1D] PRINT_EVENT_MESSAGE(message_id=6883*)
    → "And, the day after tomorrow, the weather will be $0. There is also the possibility of $2, so caution is advised."
 52: 0x0295 [0x23] WAIT_FOR_DIALOG_INTERACTION

SUBROUTINE_0296:
 53: 0x0296 [0x01] GOTO 0x02AC
 54: 0x0299 [0x02] IF !(Work_Zone[4] == 255*) GOTO 0x02A8
 55: 0x02A1 [0x1D] PRINT_EVENT_MESSAGE(message_id=6880*)
    → "And, the day after tomorrow, the weather will be $0 with a chance of $1."
 56: 0x02A4 [0x23] WAIT_FOR_DIALOG_INTERACTION
 57: 0x02A5 [0x01] GOTO 0x02AC
 58: 0x02A8 [0x1D] PRINT_EVENT_MESSAGE(message_id=6877*)
    → "And, the forecast for the day after tomorrow is for $0 with occasional $1. There is also a slight chance of $2, so caution is advised."
 59: 0x02AB [0x23] WAIT_FOR_DIALOG_INTERACTION

SUBROUTINE_02AC:
 60: 0x02AC [0x1D] PRINT_EVENT_MESSAGE(message_id=6887*)
    → "And that's the report, straight from Vana'diel's official weather linkshell."
 61: 0x02AF [0x23] WAIT_FOR_DIALOG_INTERACTION
 62: 0x02B0 [0x1B] RETURN
```

#### Data or dead code:

```
# Dead code (unreachable instructions):
     0x0021 [0x01] GOTO 0x01E4
# Dead code (unreachable instructions):
     0x01E9 [0x21] END_EVENT
     0x01EA [0x00] END_REQSTACK()
```

### Event 324

#### Metadata

| Field        | Value    |
|--------------|----------|
| Entrypoint   | 0x02B1   |
| Data Size    | 18 bytes |
| Instructions | 4        |

```
      00 01 02 03 04 05 06 07  08 09 0A 0B 0C 0D 0E 0F
      -- -- -- -- -- -- -- --  -- -- -- -- -- -- -- --
02B0:    92 01 F8 FF FF 7F 94  01 F8 FF FF 7F 80 F8 FF   ...............
02C0: FF 7F 00                                          ...             
```

#### Opcodes

```
  0: 0x02B1 [0x92] EventEntity->Render.Flags3 ^= 0x01
  1: 0x02B7 [0x94] EventEntity->Render.Flags3 ^= 0x01
  2: 0x02BD [0x80] LOAD_WAIT(entity=EventEntity)
  3: 0x02C2 [0x00] END_REQSTACK()
```

### Event 325

#### Metadata

| Field        | Value    |
|--------------|----------|
| Entrypoint   | 0x02C3   |
| Data Size    | 18 bytes |
| Instructions | 4        |

```
      00 01 02 03 04 05 06 07  08 09 0A 0B 0C 0D 0E 0F
      -- -- -- -- -- -- -- --  -- -- -- -- -- -- -- --
02C0:          92 01 F8 FF FF  7F 94 01 F8 FF FF 7F 80     .............
02D0: F8 FF FF 7F 00                                    .....           
```

#### Opcodes

```
  0: 0x02C3 [0x92] EventEntity->Render.Flags3 ^= 0x01
  1: 0x02C9 [0x94] EventEntity->Render.Flags3 ^= 0x01
  2: 0x02CF [0x80] LOAD_WAIT(entity=EventEntity)
  3: 0x02D4 [0x00] END_REQSTACK()
```

### Event 327

#### Metadata

| Field        | Value    |
|--------------|----------|
| Entrypoint   | 0x02D5   |
| Data Size    | 18 bytes |
| Instructions | 4        |

```
      00 01 02 03 04 05 06 07  08 09 0A 0B 0C 0D 0E 0F
      -- -- -- -- -- -- -- --  -- -- -- -- -- -- -- --
02D0:                92 01 F8  FF FF 7F 94 01 F8 FF FF       ...........
02E0: 7F 80 F8 FF FF 7F 00                              .......         
```

#### Opcodes

```
  0: 0x02D5 [0x92] EventEntity->Render.Flags3 ^= 0x01
  1: 0x02DB [0x94] EventEntity->Render.Flags3 ^= 0x01
  2: 0x02E1 [0x80] LOAD_WAIT(entity=EventEntity)
  3: 0x02E6 [0x00] END_REQSTACK()
```

### Event 331

#### Metadata

| Field        | Value    |
|--------------|----------|
| Entrypoint   | 0x02E7   |
| Data Size    | 18 bytes |
| Instructions | 4        |

```
      00 01 02 03 04 05 06 07  08 09 0A 0B 0C 0D 0E 0F
      -- -- -- -- -- -- -- --  -- -- -- -- -- -- -- --
02E0:                      92  01 F8 FF FF 7F 94 01 F8         .........
02F0: FF FF 7F 80 F8 FF FF 7F  00                       .........       
```

#### Opcodes

```
  0: 0x02E7 [0x92] EventEntity->Render.Flags3 ^= 0x01
  1: 0x02ED [0x94] EventEntity->Render.Flags3 ^= 0x01
  2: 0x02F3 [0x80] LOAD_WAIT(entity=EventEntity)
  3: 0x02F8 [0x00] END_REQSTACK()
```

### Event 332

#### Metadata

| Field        | Value    |
|--------------|----------|
| Entrypoint   | 0x02F9   |
| Data Size    | 18 bytes |
| Instructions | 4        |

```
      00 01 02 03 04 05 06 07  08 09 0A 0B 0C 0D 0E 0F
      -- -- -- -- -- -- -- --  -- -- -- -- -- -- -- --
02F0:                             92 01 F8 FF FF 7F 94           .......
0300: 01 F8 FF FF 7F 80 F8 FF  FF 7F 00                 ...........     
```

#### Opcodes

```
  0: 0x02F9 [0x92] EventEntity->Render.Flags3 ^= 0x01
  1: 0x02FF [0x94] EventEntity->Render.Flags3 ^= 0x01
  2: 0x0305 [0x80] LOAD_WAIT(entity=EventEntity)
  3: 0x030A [0x00] END_REQSTACK()
```

### Event 333

#### Metadata

| Field        | Value    |
|--------------|----------|
| Entrypoint   | 0x030B   |
| Data Size    | 18 bytes |
| Instructions | 4        |

```
      00 01 02 03 04 05 06 07  08 09 0A 0B 0C 0D 0E 0F
      -- -- -- -- -- -- -- --  -- -- -- -- -- -- -- --
0300:                                   92 01 F8 FF FF             .....
0310: 7F 94 01 F8 FF FF 7F 80  F8 FF FF 7F 00           .............   
```

#### Opcodes

```
  0: 0x030B [0x92] EventEntity->Render.Flags3 ^= 0x01
  1: 0x0311 [0x94] EventEntity->Render.Flags3 ^= 0x01
  2: 0x0317 [0x80] LOAD_WAIT(entity=EventEntity)
  3: 0x031C [0x00] END_REQSTACK()
```

### Event 334

#### Metadata

| Field        | Value    |
|--------------|----------|
| Entrypoint   | 0x031D   |
| Data Size    | 18 bytes |
| Instructions | 4        |

```
      00 01 02 03 04 05 06 07  08 09 0A 0B 0C 0D 0E 0F
      -- -- -- -- -- -- -- --  -- -- -- -- -- -- -- --
0310:                                         92 01 F8               ...
0320: FF FF 7F 94 01 F8 FF FF  7F 80 F8 FF FF 7F 00     ............... 
```

#### Opcodes

```
  0: 0x031D [0x92] EventEntity->Render.Flags3 ^= 0x01
  1: 0x0323 [0x94] EventEntity->Render.Flags3 ^= 0x01
  2: 0x0329 [0x80] LOAD_WAIT(entity=EventEntity)
  3: 0x032E [0x00] END_REQSTACK()
```

### Event 335

#### Metadata

| Field        | Value    |
|--------------|----------|
| Entrypoint   | 0x032F   |
| Data Size    | 18 bytes |
| Instructions | 4        |

```
      00 01 02 03 04 05 06 07  08 09 0A 0B 0C 0D 0E 0F
      -- -- -- -- -- -- -- --  -- -- -- -- -- -- -- --
0320:                                               92                 .
0330: 01 F8 FF FF 7F 94 01 F8  FF FF 7F 80 F8 FF FF 7F  ................
0340: 00                                                .               
```

#### Opcodes

```
  0: 0x032F [0x92] EventEntity->Render.Flags3 ^= 0x01
  1: 0x0335 [0x94] EventEntity->Render.Flags3 ^= 0x01
  2: 0x033B [0x80] LOAD_WAIT(entity=EventEntity)
  3: 0x0340 [0x00] END_REQSTACK()
```

### Event 336

#### Metadata

| Field        | Value    |
|--------------|----------|
| Entrypoint   | 0x0341   |
| Data Size    | 18 bytes |
| Instructions | 4        |

```
      00 01 02 03 04 05 06 07  08 09 0A 0B 0C 0D 0E 0F
      -- -- -- -- -- -- -- --  -- -- -- -- -- -- -- --
0340:    92 01 F8 FF FF 7F 94  01 F8 FF FF 7F 80 F8 FF   ...............
0350: FF 7F 00                                          ...             
```

#### Opcodes

```
  0: 0x0341 [0x92] EventEntity->Render.Flags3 ^= 0x01
  1: 0x0347 [0x94] EventEntity->Render.Flags3 ^= 0x01
  2: 0x034D [0x80] LOAD_WAIT(entity=EventEntity)
  3: 0x0352 [0x00] END_REQSTACK()
```

### Event 337

#### Metadata

| Field        | Value    |
|--------------|----------|
| Entrypoint   | 0x0353   |
| Data Size    | 18 bytes |
| Instructions | 4        |

```
      00 01 02 03 04 05 06 07  08 09 0A 0B 0C 0D 0E 0F
      -- -- -- -- -- -- -- --  -- -- -- -- -- -- -- --
0350:          92 01 F8 FF FF  7F 94 01 F8 FF FF 7F 80     .............
0360: F8 FF FF 7F 00                                    .....           
```

#### Opcodes

```
  0: 0x0353 [0x92] EventEntity->Render.Flags3 ^= 0x01
  1: 0x0359 [0x94] EventEntity->Render.Flags3 ^= 0x01
  2: 0x035F [0x80] LOAD_WAIT(entity=EventEntity)
  3: 0x0364 [0x00] END_REQSTACK()
```

### Event 338

#### Metadata

| Field        | Value    |
|--------------|----------|
| Entrypoint   | 0x0365   |
| Data Size    | 18 bytes |
| Instructions | 4        |

```
      00 01 02 03 04 05 06 07  08 09 0A 0B 0C 0D 0E 0F
      -- -- -- -- -- -- -- --  -- -- -- -- -- -- -- --
0360:                92 01 F8  FF FF 7F 94 01 F8 FF FF       ...........
0370: 7F 80 F8 FF FF 7F 00                              .......         
```

#### Opcodes

```
  0: 0x0365 [0x92] EventEntity->Render.Flags3 ^= 0x01
  1: 0x036B [0x94] EventEntity->Render.Flags3 ^= 0x01
  2: 0x0371 [0x80] LOAD_WAIT(entity=EventEntity)
  3: 0x0376 [0x00] END_REQSTACK()
```

### Event 340

#### Metadata

| Field        | Value    |
|--------------|----------|
| Entrypoint   | 0x0377   |
| Data Size    | 18 bytes |
| Instructions | 4        |

```
      00 01 02 03 04 05 06 07  08 09 0A 0B 0C 0D 0E 0F
      -- -- -- -- -- -- -- --  -- -- -- -- -- -- -- --
0370:                      92  01 F8 FF FF 7F 94 01 F8         .........
0380: FF FF 7F 80 F8 FF FF 7F  00                       .........       
```

#### Opcodes

```
  0: 0x0377 [0x92] EventEntity->Render.Flags3 ^= 0x01
  1: 0x037D [0x94] EventEntity->Render.Flags3 ^= 0x01
  2: 0x0383 [0x80] LOAD_WAIT(entity=EventEntity)
  3: 0x0388 [0x00] END_REQSTACK()
```

### Event 341

#### Metadata

| Field        | Value    |
|--------------|----------|
| Entrypoint   | 0x0389   |
| Data Size    | 18 bytes |
| Instructions | 4        |

```
      00 01 02 03 04 05 06 07  08 09 0A 0B 0C 0D 0E 0F
      -- -- -- -- -- -- -- --  -- -- -- -- -- -- -- --
0380:                             92 01 F8 FF FF 7F 94           .......
0390: 01 F8 FF FF 7F 80 F8 FF  FF 7F 00                 ...........     
```

#### Opcodes

```
  0: 0x0389 [0x92] EventEntity->Render.Flags3 ^= 0x01
  1: 0x038F [0x94] EventEntity->Render.Flags3 ^= 0x01
  2: 0x0395 [0x80] LOAD_WAIT(entity=EventEntity)
  3: 0x039A [0x00] END_REQSTACK()
```

### Event 342

#### Metadata

| Field        | Value    |
|--------------|----------|
| Entrypoint   | 0x039B   |
| Data Size    | 18 bytes |
| Instructions | 4        |

```
      00 01 02 03 04 05 06 07  08 09 0A 0B 0C 0D 0E 0F
      -- -- -- -- -- -- -- --  -- -- -- -- -- -- -- --
0390:                                   92 01 F8 FF FF             .....
03A0: 7F 94 01 F8 FF FF 7F 80  F8 FF FF 7F 00           .............   
```

#### Opcodes

```
  0: 0x039B [0x92] EventEntity->Render.Flags3 ^= 0x01
  1: 0x03A1 [0x94] EventEntity->Render.Flags3 ^= 0x01
  2: 0x03A7 [0x80] LOAD_WAIT(entity=EventEntity)
  3: 0x03AC [0x00] END_REQSTACK()
```

### Event 343

#### Metadata

| Field        | Value    |
|--------------|----------|
| Entrypoint   | 0x03AD   |
| Data Size    | 18 bytes |
| Instructions | 4        |

```
      00 01 02 03 04 05 06 07  08 09 0A 0B 0C 0D 0E 0F
      -- -- -- -- -- -- -- --  -- -- -- -- -- -- -- --
03A0:                                         92 01 F8               ...
03B0: FF FF 7F 94 01 F8 FF FF  7F 80 F8 FF FF 7F 00     ............... 
```

#### Opcodes

```
  0: 0x03AD [0x92] EventEntity->Render.Flags3 ^= 0x01
  1: 0x03B3 [0x94] EventEntity->Render.Flags3 ^= 0x01
  2: 0x03B9 [0x80] LOAD_WAIT(entity=EventEntity)
  3: 0x03BE [0x00] END_REQSTACK()
```

### Event 344

#### Metadata

| Field        | Value    |
|--------------|----------|
| Entrypoint   | 0x03BF   |
| Data Size    | 18 bytes |
| Instructions | 4        |

```
      00 01 02 03 04 05 06 07  08 09 0A 0B 0C 0D 0E 0F
      -- -- -- -- -- -- -- --  -- -- -- -- -- -- -- --
03B0:                                               92                 .
03C0: 01 F8 FF FF 7F 94 01 F8  FF FF 7F 80 F8 FF FF 7F  ................
03D0: 00                                                .               
```

#### Opcodes

```
  0: 0x03BF [0x92] EventEntity->Render.Flags3 ^= 0x01
  1: 0x03C5 [0x94] EventEntity->Render.Flags3 ^= 0x01
  2: 0x03CB [0x80] LOAD_WAIT(entity=EventEntity)
  3: 0x03D0 [0x00] END_REQSTACK()
```

### Event 345

#### Metadata

| Field        | Value    |
|--------------|----------|
| Entrypoint   | 0x03D1   |
| Data Size    | 18 bytes |
| Instructions | 4        |

```
      00 01 02 03 04 05 06 07  08 09 0A 0B 0C 0D 0E 0F
      -- -- -- -- -- -- -- --  -- -- -- -- -- -- -- --
03D0:    92 01 F8 FF FF 7F 94  01 F8 FF FF 7F 80 F8 FF   ...............
03E0: FF 7F 00                                          ...             
```

#### Opcodes

```
  0: 0x03D1 [0x92] EventEntity->Render.Flags3 ^= 0x01
  1: 0x03D7 [0x94] EventEntity->Render.Flags3 ^= 0x01
  2: 0x03DD [0x80] LOAD_WAIT(entity=EventEntity)
  3: 0x03E2 [0x00] END_REQSTACK()
```

### Event 65535.1

#### Metadata

| Field        | Value    |
|--------------|----------|
| Entrypoint   | 0x03E3   |
| Data Size    | 40 bytes |
| Instructions | 8        |

```
      00 01 02 03 04 05 06 07  08 09 0A 0B 0C 0D 0E 0F
      -- -- -- -- -- -- -- --  -- -- -- -- -- -- -- --
03E0:          66 2C 80 28 60  0F 01 28 60 0F 01 64 69     f,.(`..(`..di
03F0: 73 30 1C 49 80 32 1C 80  1F 00 4A 80 4B 80 03 80  s0.I.2....J.K...
0400: 1F 01 6F 4B F8 FF FF 7F  4C 80 00                 ..oK....L..     
```

#### Opcodes

```
  0: 0x03E3 [0x66] LOAD_EXT_SCHEDULER_MAIN: Load scheduler "dis0" with entities [Ramicharaux (ID: 17784872/0x010F6028), Ramicharaux (ID: 17784872/0x010F6028)], work=21*
  1: 0x03F2 [0x1C] WAIT(90* ticks)
  2: 0x03F5 [0x32] ExtData[1]->MainSpeed = 13* * 0.1
  3: 0x03F8 [0x1F] MOVE_ENTITY: EventEntity moves to X=-48.195*, Z=3.606*, Y=0.000*
  4: 0x0400 [0x1F] MOVE_ENTITY: Update entity position (mode=1)
  5: 0x0402 [0x6F] WAIT_FRAME_DELAY: Yield until WaitTime reaches zero
  6: 0x0403 [0x4B] UPDATE_ENTITY_YAW(entity=EventEntity, yaw=5.3°*)
  7: 0x040A [0x00] END_REQSTACK()
```

### Event 65535.2

#### Metadata

| Field        | Value    |
|--------------|----------|
| Entrypoint   | 0x040B   |
| Data Size    | 40 bytes |
| Instructions | 8        |

```
      00 01 02 03 04 05 06 07  08 09 0A 0B 0C 0D 0E 0F
      -- -- -- -- -- -- -- --  -- -- -- -- -- -- -- --
0400:                                   66 4D 80 43 60             fM.C`
0410: 0F 01 43 60 0F 01 64 69  73 30 1C 27 80 32 18 80  ..C`..dis0.'.2..
0420: 1F 00 4E 80 4F 80 03 80  1F 01 6F 4B F8 FF FF 7F  ..N.O.....oK....
0430: 50 80 00                                          P..             
```

#### Opcodes

```
  0: 0x040B [0x66] LOAD_EXT_SCHEDULER_MAIN: Load scheduler "dis0" with entities [Khumo Daramasteh (ID: 17784899/0x010F6043), Khumo Daramasteh (ID: 17784899/0x010F6043)], work=52*
  1: 0x041A [0x1C] WAIT(120* ticks)
  2: 0x041D [0x32] ExtData[1]->MainSpeed = 11* * 0.1
  3: 0x0420 [0x1F] MOVE_ENTITY: EventEntity moves to X=23.839*, Z=6.017*, Y=0.000*
  4: 0x0428 [0x1F] MOVE_ENTITY: Update entity position (mode=1)
  5: 0x042A [0x6F] WAIT_FRAME_DELAY: Yield until WaitTime reaches zero
  6: 0x042B [0x4B] UPDATE_ENTITY_YAW(entity=EventEntity, yaw=3.8°*)
  7: 0x0432 [0x00] END_REQSTACK()
```

### Event 65535.3

#### Metadata

| Field        | Value     |
|--------------|-----------|
| Entrypoint   | 0x0433    |
| Data Size    | 139 bytes |
| Instructions | 22        |

```
      00 01 02 03 04 05 06 07  08 09 0A 0B 0C 0D 0E 0F
      -- -- -- -- -- -- -- --  -- -- -- -- -- -- -- --
0430:          5B 51 80 06 60  0F 01 06 60 0F 01 68 61     [Q..`...`..ha
0440: 69 30 1C 52 80 4A 04 60  0F 01 06 60 0F 01 1C 0C  i0.R.J.`...`....
0450: 80 79 00 05 60 0F 01 06  60 0F 01 1C 53 80 4B 06  .y..`...`...S.K.
0460: 60 0F 01 54 80 6F 76 06  60 0F 01 5B 51 80 06 60  `..T.ov.`..[Q..`
0470: 0F 01 06 60 0F 01 61 77  77 30 1C 52 80 5B 55 80  ...`..aww0.R.[U.
0480: 04 60 0F 01 04 60 0F 01  74 68 6B 31 1C 20 80 5B  .`...`..thk1. .[
0490: 49 80 05 60 0F 01 05 60  0F 01 74 6C 6B 30 1C 49  I..`...`..tlk0.I
04A0: 80 27 10 04 60 0F 01 21  27 10 05 60 0F 01 20 32  .'..`..!'..`.. 2
04B0: 56 80 1F 00 57 80 58 80  03 80 1F 01 6F 00        V...W.X.....o.  
```

#### Opcodes

```
  0: 0x0433 [0x5B] LOAD_EXT_SCHEDULER: Load scheduler "hai0" with entities [Jaha Amariyo (ID: 17784838/0x010F6006), Jaha Amariyo (ID: 17784838/0x010F6006)], work=81*
  1: 0x0442 [0x1C] WAIT(45* ticks)
  2: 0x0445 [0x4A] Karl (ID: 17784836/0x010F6004) looks at Jaha Amariyo (ID: 17784838/0x010F6006)
  3: 0x044E [0x1C] WAIT(5* ticks)
  4: 0x0451 [0x79] Buntz (ID: 17784837/0x010F6005) looks at Jaha Amariyo (ID: 17784838/0x010F6006) (Basic look)
  5: 0x045B [0x1C] WAIT(30* ticks)
  6: 0x045E [0x4B] UPDATE_ENTITY_YAW(entity=Jaha Amariyo (ID: 17784838/0x010F6006), yaw=12.2°*)
  7: 0x0465 [0x6F] WAIT_FRAME_DELAY: Yield until WaitTime reaches zero
  8: 0x0466 [0x76] CHECK_ENTITY_RENDER_FLAGS: Wait until Jaha Amariyo (ID: 17784838/0x010F6006) Render.Flags0 and Render.Flags3 conditions are met
  9: 0x046B [0x5B] LOAD_EXT_SCHEDULER: Load scheduler "aww0" with entities [Jaha Amariyo (ID: 17784838/0x010F6006), Jaha Amariyo (ID: 17784838/0x010F6006)], work=81*
 10: 0x047A [0x1C] WAIT(45* ticks)
 11: 0x047D [0x5B] LOAD_EXT_SCHEDULER: Load scheduler "thk1" with entities [Karl (ID: 17784836/0x010F6004), Karl (ID: 17784836/0x010F6004)], work=75*
 12: 0x048C [0x1C] WAIT(15* ticks)
 13: 0x048F [0x5B] LOAD_EXT_SCHEDULER: Load scheduler "tlk0" with entities [Buntz (ID: 17784837/0x010F6005), Buntz (ID: 17784837/0x010F6005)], work=90*
 14: 0x049E [0x1C] WAIT(90* ticks)
 15: 0x04A1 [0x27] REQ_SET(priority=0x10, entity_id=Karl (ID: 17784836/0x010F6004), tag_num=0x21)
 16: 0x04A8 [0x27] REQ_SET(priority=0x10, entity_id=Buntz (ID: 17784837/0x010F6005), tag_num=0x20)
 17: 0x04AF [0x32] ExtData[1]->MainSpeed = 37* * 0.1
 18: 0x04B2 [0x1F] MOVE_ENTITY: EventEntity moves to X=-80.636*, Z=-5.460*, Y=0.000*
 19: 0x04BA [0x1F] MOVE_ENTITY: Update entity position (mode=1)
 20: 0x04BC [0x6F] WAIT_FRAME_DELAY: Yield until WaitTime reaches zero
 21: 0x04BD [0x00] END_REQSTACK()
```

### Event 65535.4

#### Metadata

| Field        | Value    |
|--------------|----------|
| Entrypoint   | 0x04BE   |
| Data Size    | 15 bytes |
| Instructions | 5        |

```
      00 01 02 03 04 05 06 07  08 09 0A 0B 0C 0D 0E 0F
      -- -- -- -- -- -- -- --  -- -- -- -- -- -- -- --
04B0:                                            32 59                2Y
04C0: 80 1F 00 5A 80 5B 80 03  80 1F 01 6F 00           ...Z.[.....o.   
```

#### Opcodes

```
  0: 0x04BE [0x32] ExtData[1]->MainSpeed = 39* * 0.1
  1: 0x04C1 [0x1F] MOVE_ENTITY: EventEntity moves to X=-81.392*, Z=-4.254*, Y=0.000*
  2: 0x04C9 [0x1F] MOVE_ENTITY: Update entity position (mode=1)
  3: 0x04CB [0x6F] WAIT_FRAME_DELAY: Yield until WaitTime reaches zero
  4: 0x04CC [0x00] END_REQSTACK()
```

### Event 65535.5

#### Metadata

| Field        | Value    |
|--------------|----------|
| Entrypoint   | 0x04CD   |
| Data Size    | 15 bytes |
| Instructions | 5        |

```
      00 01 02 03 04 05 06 07  08 09 0A 0B 0C 0D 0E 0F
      -- -- -- -- -- -- -- --  -- -- -- -- -- -- -- --
04C0:                                         32 5C 80               2\.
04D0: 1F 00 5D 80 5E 80 03 80  1F 01 6F 00              ..].^.....o.    
```

#### Opcodes

```
  0: 0x04CD [0x32] ExtData[1]->MainSpeed = 41* * 0.1
  1: 0x04D0 [0x1F] MOVE_ENTITY: EventEntity moves to X=-82.888*, Z=-4.774*, Y=0.000*
  2: 0x04D8 [0x1F] MOVE_ENTITY: Update entity position (mode=1)
  3: 0x04DA [0x6F] WAIT_FRAME_DELAY: Yield until WaitTime reaches zero
  4: 0x04DB [0x00] END_REQSTACK()
```

### Event 65535.6

#### Metadata

| Field        | Value    |
|--------------|----------|
| Entrypoint   | 0x04DC   |
| Data Size    | 30 bytes |
| Instructions | 8        |

```
      00 01 02 03 04 05 06 07  08 09 0A 0B 0C 0D 0E 0F
      -- -- -- -- -- -- -- --  -- -- -- -- -- -- -- --
04D0:                                      6E F8 FF FF              n...
04E0: 7F 0E 80 99 F8 FF FF 7F  1C 27 80 32 16 80 1F 00  .........'.2....
04F0: 5F 80 60 80 03 80 1F 01  6F 00                    _.`.....o.      
```

#### Opcodes

```
  0: 0x04DC [0x6E] EventEntity uses emote 6*
  1: 0x04E3 [0x99] Wait for EventEntity animation to complete
  2: 0x04E8 [0x1C] WAIT(120* ticks)
  3: 0x04EB [0x32] ExtData[1]->MainSpeed = 10* * 0.1
  4: 0x04EE [0x1F] MOVE_ENTITY: EventEntity moves to X=-86.082*, Z=-1.442*, Y=0.000*
  5: 0x04F6 [0x1F] MOVE_ENTITY: Update entity position (mode=1)
  6: 0x04F8 [0x6F] WAIT_FRAME_DELAY: Yield until WaitTime reaches zero
  7: 0x04F9 [0x00] END_REQSTACK()
```

### Event 65535.7

#### Metadata

| Field        | Value    |
|--------------|----------|
| Entrypoint   | 0x04FA   |
| Data Size    | 16 bytes |
| Instructions | 2        |

```
      00 01 02 03 04 05 06 07  08 09 0A 0B 0C 0D 0E 0F
      -- -- -- -- -- -- -- --  -- -- -- -- -- -- -- --
04F0:                                5B 61 80 86 60 0F            [a..`.
0500: 01 86 60 0F 01 66 75 6D  30 00                    ..`..fum0.      
```

#### Opcodes

```
  0: 0x04FA [0x5B] LOAD_EXT_SCHEDULER: Load scheduler "fum0" with entities [Squintrox Dryeyes (ID: 17784966/0x010F6086), Squintrox Dryeyes (ID: 17784966/0x010F6086)], work=216*
  1: 0x0509 [0x00] END_REQSTACK()
```

### Event 65535.8

#### Metadata

| Field        | Value    |
|--------------|----------|
| Entrypoint   | 0x050A   |
| Data Size    | 33 bytes |
| Instructions | 7        |

```
      00 01 02 03 04 05 06 07  08 09 0A 0B 0C 0D 0E 0F
      -- -- -- -- -- -- -- --  -- -- -- -- -- -- -- --
0500:                                32 1A 80 1F 00 62            2....b
0510: 80 63 80 03 80 1F 01 6F  1C 20 80 66 53 80 42 60  .c.....o. .fS.B`
0520: 0F 01 42 60 0F 01 74 68  6B 31 00                 ..B`..thk1.     
```

#### Opcodes

```
  0: 0x050A [0x32] ExtData[1]->MainSpeed = 12* * 0.1
  1: 0x050D [0x1F] MOVE_ENTITY: EventEntity moves to X=-100.794*, Z=-3.679*, Y=0.000*
  2: 0x0515 [0x1F] MOVE_ENTITY: Update entity position (mode=1)
  3: 0x0517 [0x6F] WAIT_FRAME_DELAY: Yield until WaitTime reaches zero
  4: 0x0518 [0x1C] WAIT(15* ticks)
  5: 0x051B [0x66] LOAD_EXT_SCHEDULER_MAIN: Load scheduler "thk1" with entities [Naurmaire (ID: 17784898/0x010F6042), Naurmaire (ID: 17784898/0x010F6042)], work=30*
  6: 0x052A [0x00] END_REQSTACK()
```

### Event 65535.9

#### Metadata

| Field        | Value    |
|--------------|----------|
| Entrypoint   | 0x052B   |
| Data Size    | 33 bytes |
| Instructions | 7        |

```
      00 01 02 03 04 05 06 07  08 09 0A 0B 0C 0D 0E 0F
      -- -- -- -- -- -- -- --  -- -- -- -- -- -- -- --
0520:                                   66 16 80 3F 60             f..?`
0530: 0F 01 3F 60 0F 01 74 68  6B 32 1C 64 80 32 65 80  ..?`..thk2.d.2e.
0540: 1F 00 66 80 67 80 03 80  1F 01 6F 00              ..f.g.....o.    
```

#### Opcodes

```
  0: 0x052B [0x66] LOAD_EXT_SCHEDULER_MAIN: Load scheduler "thk2" with entities [Marnie (ID: 17784895/0x010F603F), Marnie (ID: 17784895/0x010F603F)], work=10*
  1: 0x053A [0x1C] WAIT(60* ticks)
  2: 0x053D [0x32] ExtData[1]->MainSpeed = 40* * 0.1
  3: 0x0540 [0x1F] MOVE_ENTITY: EventEntity moves to X=-30.213*, Z=-1.502*, Y=0.000*
  4: 0x0548 [0x1F] MOVE_ENTITY: Update entity position (mode=1)
  5: 0x054A [0x6F] WAIT_FRAME_DELAY: Yield until WaitTime reaches zero
  6: 0x054B [0x00] END_REQSTACK()
```

### Event 65535.10

#### Metadata

| Field        | Value    |
|--------------|----------|
| Entrypoint   | 0x054C   |
| Data Size    | 45 bytes |
| Instructions | 12       |

```
      00 01 02 03 04 05 06 07  08 09 0A 0B 0C 0D 0E 0F
      -- -- -- -- -- -- -- --  -- -- -- -- -- -- -- --
0540:                                      32 1C 80 1F              2...
0550: 00 68 80 69 80 03 80 1F  01 1C 53 80 39 6A 80 1C  .h.i......S.9j..
0560: 6B 80 1F 00 6C 80 6D 80  03 80 1F 01 1C 53 80 39  k...l.m......S.9
0570: 6E 80 1C 6B 80 01 4C 05  00                       n..k..L..       
```

#### Opcodes

```
  0: 0x054C [0x32] ExtData[1]->MainSpeed = 13* * 0.1
  1: 0x054F [0x1F] MOVE_ENTITY: EventEntity moves to X=-96.584*, Z=-8.519*, Y=0.000*
  2: 0x0557 [0x1F] MOVE_ENTITY: Update entity position (mode=1)
  3: 0x0559 [0x1C] WAIT(30* ticks)
  4: 0x055C [0x39] SET_ENTITY_DIRECTION(direction=19.7°*)
  5: 0x055F [0x1C] WAIT(360* ticks)
  6: 0x0562 [0x1F] MOVE_ENTITY: EventEntity moves to X=-96.241*, Z=8.872*, Y=0.000*
  7: 0x056A [0x1F] MOVE_ENTITY: Update entity position (mode=1)
  8: 0x056C [0x1C] WAIT(30* ticks)
  9: 0x056F [0x39] SET_ENTITY_DIRECTION(direction=2.8°*)
 10: 0x0572 [0x1C] WAIT(360* ticks)
 11: 0x0575 [0x01] GOTO 0x054C
```

#### Data or dead code:

```
# Dead code (unreachable instructions):
     0x0578 [0x00] END_REQSTACK()
```

### Event 65535.11

#### Metadata

| Field        | Value     |
|--------------|-----------|
| Entrypoint   | 0x0579    |
| Data Size    | 139 bytes |
| Instructions | 22        |

```
      00 01 02 03 04 05 06 07  08 09 0A 0B 0C 0D 0E 0F
      -- -- -- -- -- -- -- --  -- -- -- -- -- -- -- --
0570:                             5B 51 80 06 60 0F 01           [Q..`..
0580: 06 60 0F 01 68 61 69 30  1C 52 80 4A 04 60 0F 01  .`..hai0.R.J.`..
0590: 06 60 0F 01 1C 0C 80 79  00 05 60 0F 01 06 60 0F  .`.....y..`...`.
05A0: 01 1C 53 80 4B 06 60 0F  01 54 80 6F 76 06 60 0F  ..S.K.`..T.ov.`.
05B0: 01 5B 51 80 06 60 0F 01  06 60 0F 01 61 77 77 30  .[Q..`...`..aww0
05C0: 1C 52 80 5B 55 80 04 60  0F 01 04 60 0F 01 74 68  .R.[U..`...`..th
05D0: 6B 31 1C 20 80 5B 49 80  05 60 0F 01 05 60 0F 01  k1. .[I..`...`..
05E0: 74 6C 6B 30 1C 49 80 27  10 04 60 0F 01 29 27 10  tlk0.I.'..`..)'.
05F0: 05 60 0F 01 28 32 56 80  1F 00 6F 80 70 80 03 80  .`..(2V...o.p...
0600: 1F 01 6F 00                                       ..o.            
```

#### Opcodes

```
  0: 0x0579 [0x5B] LOAD_EXT_SCHEDULER: Load scheduler "hai0" with entities [Jaha Amariyo (ID: 17784838/0x010F6006), Jaha Amariyo (ID: 17784838/0x010F6006)], work=81*
  1: 0x0588 [0x1C] WAIT(45* ticks)
  2: 0x058B [0x4A] Karl (ID: 17784836/0x010F6004) looks at Jaha Amariyo (ID: 17784838/0x010F6006)
  3: 0x0594 [0x1C] WAIT(5* ticks)
  4: 0x0597 [0x79] Buntz (ID: 17784837/0x010F6005) looks at Jaha Amariyo (ID: 17784838/0x010F6006) (Basic look)
  5: 0x05A1 [0x1C] WAIT(30* ticks)
  6: 0x05A4 [0x4B] UPDATE_ENTITY_YAW(entity=Jaha Amariyo (ID: 17784838/0x010F6006), yaw=12.2°*)
  7: 0x05AB [0x6F] WAIT_FRAME_DELAY: Yield until WaitTime reaches zero
  8: 0x05AC [0x76] CHECK_ENTITY_RENDER_FLAGS: Wait until Jaha Amariyo (ID: 17784838/0x010F6006) Render.Flags0 and Render.Flags3 conditions are met
  9: 0x05B1 [0x5B] LOAD_EXT_SCHEDULER: Load scheduler "aww0" with entities [Jaha Amariyo (ID: 17784838/0x010F6006), Jaha Amariyo (ID: 17784838/0x010F6006)], work=81*
 10: 0x05C0 [0x1C] WAIT(45* ticks)
 11: 0x05C3 [0x5B] LOAD_EXT_SCHEDULER: Load scheduler "thk1" with entities [Karl (ID: 17784836/0x010F6004), Karl (ID: 17784836/0x010F6004)], work=75*
 12: 0x05D2 [0x1C] WAIT(15* ticks)
 13: 0x05D5 [0x5B] LOAD_EXT_SCHEDULER: Load scheduler "tlk0" with entities [Buntz (ID: 17784837/0x010F6005), Buntz (ID: 17784837/0x010F6005)], work=90*
 14: 0x05E4 [0x1C] WAIT(90* ticks)
 15: 0x05E7 [0x27] REQ_SET(priority=0x10, entity_id=Karl (ID: 17784836/0x010F6004), tag_num=0x29)
 16: 0x05EE [0x27] REQ_SET(priority=0x10, entity_id=Buntz (ID: 17784837/0x010F6005), tag_num=0x28)
 17: 0x05F5 [0x32] ExtData[1]->MainSpeed = 37* * 0.1
 18: 0x05F8 [0x1F] MOVE_ENTITY: EventEntity moves to X=-52.555*, Z=1.950*, Y=0.000*
 19: 0x0600 [0x1F] MOVE_ENTITY: Update entity position (mode=1)
 20: 0x0602 [0x6F] WAIT_FRAME_DELAY: Yield until WaitTime reaches zero
 21: 0x0603 [0x00] END_REQSTACK()
```

### Event 65535.12

#### Metadata

| Field        | Value    |
|--------------|----------|
| Entrypoint   | 0x0604   |
| Data Size    | 15 bytes |
| Instructions | 5        |

```
      00 01 02 03 04 05 06 07  08 09 0A 0B 0C 0D 0E 0F
      -- -- -- -- -- -- -- --  -- -- -- -- -- -- -- --
0600:             32 59 80 1F  00 71 80 72 80 03 80 1F      2Y...q.r....
0610: 01 6F 00                                          .o.             
```

#### Opcodes

```
  0: 0x0604 [0x32] ExtData[1]->MainSpeed = 39* * 0.1
  1: 0x0607 [0x1F] MOVE_ENTITY: EventEntity moves to X=-49.108*, Z=2.357*, Y=0.000*
  2: 0x060F [0x1F] MOVE_ENTITY: Update entity position (mode=1)
  3: 0x0611 [0x6F] WAIT_FRAME_DELAY: Yield until WaitTime reaches zero
  4: 0x0612 [0x00] END_REQSTACK()
```

### Event 65535.13

#### Metadata

| Field        | Value    |
|--------------|----------|
| Entrypoint   | 0x0613   |
| Data Size    | 15 bytes |
| Instructions | 5        |

```
      00 01 02 03 04 05 06 07  08 09 0A 0B 0C 0D 0E 0F
      -- -- -- -- -- -- -- --  -- -- -- -- -- -- -- --
0610:          32 5C 80 1F 00  73 80 74 80 03 80 1F 01     2\...s.t.....
0620: 6F 00                                             o.              
```

#### Opcodes

```
  0: 0x0613 [0x32] ExtData[1]->MainSpeed = 41* * 0.1
  1: 0x0616 [0x1F] MOVE_ENTITY: EventEntity moves to X=-51.734*, Z=2.879*, Y=0.000*
  2: 0x061E [0x1F] MOVE_ENTITY: Update entity position (mode=1)
  3: 0x0620 [0x6F] WAIT_FRAME_DELAY: Yield until WaitTime reaches zero
  4: 0x0621 [0x00] END_REQSTACK()
```

### Event 65535.14

#### Metadata

| Field        | Value    |
|--------------|----------|
| Entrypoint   | 0x0622   |
| Data Size    | 15 bytes |
| Instructions | 5        |

```
      00 01 02 03 04 05 06 07  08 09 0A 0B 0C 0D 0E 0F
      -- -- -- -- -- -- -- --  -- -- -- -- -- -- -- --
0620:       32 1A 80 1F 00 75  80 76 80 03 80 1F 01 6F    2....u.v.....o
0630: 00                                                .               
```

#### Opcodes

```
  0: 0x0622 [0x32] ExtData[1]->MainSpeed = 12* * 0.1
  1: 0x0625 [0x1F] MOVE_ENTITY: EventEntity moves to X=-50.670*, Z=2.474*, Y=0.000*
  2: 0x062D [0x1F] MOVE_ENTITY: Update entity position (mode=1)
  3: 0x062F [0x6F] WAIT_FRAME_DELAY: Yield until WaitTime reaches zero
  4: 0x0630 [0x00] END_REQSTACK()
```

### Event 65535.15

#### Metadata

| Field        | Value    |
|--------------|----------|
| Entrypoint   | 0x0631   |
| Data Size    | 80 bytes |
| Instructions | 13       |

```
      00 01 02 03 04 05 06 07  08 09 0A 0B 0C 0D 0E 0F
      -- -- -- -- -- -- -- --  -- -- -- -- -- -- -- --
0630:    32 18 80 1F 00 77 80  78 80 03 80 1F 01 79 00   2....w.x.....y.
0640: 45 60 0F 01 42 60 0F 01  66 53 80 42 60 0F 01 42  E`..B`..fS.B`..B
0650: 60 0F 01 74 68 6B 32 32  79 80 4A 42 60 0F 01 45  `..thk22y.JB`..E
0660: 60 0F 01 1F 00 7A 80 7B  80 03 80 1F 01 6F 1C 53  `....z.{.....o.S
0670: 80 66 03 80 45 60 0F 01  45 60 0F 01 74 6C 6B 31  .f..E`..E`..tlk1
0680: 00                                                .               
```

#### Opcodes

```
  0: 0x0631 [0x32] ExtData[1]->MainSpeed = 11* * 0.1
  1: 0x0634 [0x1F] MOVE_ENTITY: EventEntity moves to X=-92.526*, Z=-2.418*, Y=0.000*
  2: 0x063C [0x1F] MOVE_ENTITY: Update entity position (mode=1)
  3: 0x063E [0x79] Falak (ID: 17784901/0x010F6045) looks at Naurmaire (ID: 17784898/0x010F6042) (Basic look)
  4: 0x0648 [0x66] LOAD_EXT_SCHEDULER_MAIN: Load scheduler "thk2" with entities [Naurmaire (ID: 17784898/0x010F6042), Naurmaire (ID: 17784898/0x010F6042)], work=30*
  5: 0x0657 [0x32] ExtData[1]->MainSpeed = 38* * 0.1
  6: 0x065A [0x4A] Naurmaire (ID: 17784898/0x010F6042) looks at Falak (ID: 17784901/0x010F6045)
  7: 0x0663 [0x1F] MOVE_ENTITY: EventEntity moves to X=-98.837*, Z=-2.640*, Y=0.000*
  8: 0x066B [0x1F] MOVE_ENTITY: Update entity position (mode=1)
  9: 0x066D [0x6F] WAIT_FRAME_DELAY: Yield until WaitTime reaches zero
 10: 0x066E [0x1C] WAIT(30* ticks)
 11: 0x0671 [0x66] LOAD_EXT_SCHEDULER_MAIN: Load scheduler "tlk1" with entities [Falak (ID: 17784901/0x010F6045), Falak (ID: 17784901/0x010F6045)], work=0*
 12: 0x0680 [0x00] END_REQSTACK()
```

### Event 65535.16

#### Metadata

| Field        | Value    |
|--------------|----------|
| Entrypoint   | 0x0681   |
| Data Size    | 15 bytes |
| Instructions | 5        |

```
      00 01 02 03 04 05 06 07  08 09 0A 0B 0C 0D 0E 0F
      -- -- -- -- -- -- -- --  -- -- -- -- -- -- -- --
0680:    32 1A 80 1F 00 7C 80  7D 80 03 80 1F 01 6F 00   2....|.}.....o.
```

#### Opcodes

```
  0: 0x0681 [0x32] ExtData[1]->MainSpeed = 12* * 0.1
  1: 0x0684 [0x1F] MOVE_ENTITY: EventEntity moves to X=4.999*, Z=-0.799*, Y=0.000*
  2: 0x068C [0x1F] MOVE_ENTITY: Update entity position (mode=1)
  3: 0x068E [0x6F] WAIT_FRAME_DELAY: Yield until WaitTime reaches zero
  4: 0x068F [0x00] END_REQSTACK()
```

### Event 65535.17

#### Metadata

| Field        | Value    |
|--------------|----------|
| Entrypoint   | 0x0690   |
| Data Size    | 15 bytes |
| Instructions | 5        |

```
      00 01 02 03 04 05 06 07  08 09 0A 0B 0C 0D 0E 0F
      -- -- -- -- -- -- -- --  -- -- -- -- -- -- -- --
0690: 32 1C 80 1F 00 7E 80 7F  80 03 80 1F 01 6F 00     2....~.......o. 
```

#### Opcodes

```
  0: 0x0690 [0x32] ExtData[1]->MainSpeed = 13* * 0.1
  1: 0x0693 [0x1F] MOVE_ENTITY: EventEntity moves to X=-76.908*, Z=-2.465*, Y=0.000*
  2: 0x069B [0x1F] MOVE_ENTITY: Update entity position (mode=1)
  3: 0x069D [0x6F] WAIT_FRAME_DELAY: Yield until WaitTime reaches zero
  4: 0x069E [0x00] END_REQSTACK()
```

### Event 65535.18

#### Metadata

| Field        | Value    |
|--------------|----------|
| Entrypoint   | 0x069F   |
| Data Size    | 15 bytes |
| Instructions | 5        |

```
      00 01 02 03 04 05 06 07  08 09 0A 0B 0C 0D 0E 0F
      -- -- -- -- -- -- -- --  -- -- -- -- -- -- -- --
0690:                                               32                 2
06A0: 18 80 1F 00 80 80 81 80  03 80 1F 01 6F 00        ............o.  
```

#### Opcodes

```
  0: 0x069F [0x32] ExtData[1]->MainSpeed = 11* * 0.1
  1: 0x06A2 [0x1F] MOVE_ENTITY: EventEntity moves to X=-50.956*, Z=-2.015*, Y=0.000*
  2: 0x06AA [0x1F] MOVE_ENTITY: Update entity position (mode=1)
  3: 0x06AC [0x6F] WAIT_FRAME_DELAY: Yield until WaitTime reaches zero
  4: 0x06AD [0x00] END_REQSTACK()
```

### Event 65535.19

#### Metadata

| Field        | Value    |
|--------------|----------|
| Entrypoint   | 0x06AE   |
| Data Size    | 15 bytes |
| Instructions | 5        |

```
      00 01 02 03 04 05 06 07  08 09 0A 0B 0C 0D 0E 0F
      -- -- -- -- -- -- -- --  -- -- -- -- -- -- -- --
06A0:                                            32 18                2.
06B0: 80 1F 00 82 80 83 80 03  80 1F 01 6F 00           ...........o.   
```

#### Opcodes

```
  0: 0x06AE [0x32] ExtData[1]->MainSpeed = 11* * 0.1
  1: 0x06B1 [0x1F] MOVE_ENTITY: EventEntity moves to X=-106.865*, Z=2.201*, Y=0.000*
  2: 0x06B9 [0x1F] MOVE_ENTITY: Update entity position (mode=1)
  3: 0x06BB [0x6F] WAIT_FRAME_DELAY: Yield until WaitTime reaches zero
  4: 0x06BC [0x00] END_REQSTACK()
```

### Event 65535.20

#### Metadata

| Field        | Value    |
|--------------|----------|
| Entrypoint   | 0x06BD   |
| Data Size    | 15 bytes |
| Instructions | 5        |

```
      00 01 02 03 04 05 06 07  08 09 0A 0B 0C 0D 0E 0F
      -- -- -- -- -- -- -- --  -- -- -- -- -- -- -- --
06B0:                                         32 1C 80               2..
06C0: 1F 00 84 80 85 80 03 80  1F 01 6F 00              ..........o.    
```

#### Opcodes

```
  0: 0x06BD [0x32] ExtData[1]->MainSpeed = 13* * 0.1
  1: 0x06C0 [0x1F] MOVE_ENTITY: EventEntity moves to X=-36.731*, Z=-2.282*, Y=0.000*
  2: 0x06C8 [0x1F] MOVE_ENTITY: Update entity position (mode=1)
  3: 0x06CA [0x6F] WAIT_FRAME_DELAY: Yield until WaitTime reaches zero
  4: 0x06CB [0x00] END_REQSTACK()
```

### Event 65535.21

#### Metadata

| Field        | Value    |
|--------------|----------|
| Entrypoint   | 0x06CC   |
| Data Size    | 53 bytes |
| Instructions | 10       |

```
      00 01 02 03 04 05 06 07  08 09 0A 0B 0C 0D 0E 0F
      -- -- -- -- -- -- -- --  -- -- -- -- -- -- -- --
06C0:                                      32 1C 80 1F              2...
06D0: 00 86 80 87 80 03 80 1F  01 1F 00 88 80 89 80 03  ................
06E0: 80 1F 01 6F 1C 20 80 79  00 49 60 0F 01 86 60 0F  ...o. .y.I`...`.
06F0: 01 5B 8A 80 86 60 0F 01  86 60 0F 01 74 6C 6B 30  .[...`...`..tlk0
0700: 00                                                .               
```

#### Opcodes

```
  0: 0x06CC [0x32] ExtData[1]->MainSpeed = 13* * 0.1
  1: 0x06CF [0x1F] MOVE_ENTITY: EventEntity moves to X=-58.047*, Z=9.433*, Y=0.000*
  2: 0x06D7 [0x1F] MOVE_ENTITY: Update entity position (mode=1)
  3: 0x06D9 [0x1F] MOVE_ENTITY: EventEntity moves to X=-56.466*, Z=10.018*, Y=0.000*
  4: 0x06E1 [0x1F] MOVE_ENTITY: Update entity position (mode=1)
  5: 0x06E3 [0x6F] WAIT_FRAME_DELAY: Yield until WaitTime reaches zero
  6: 0x06E4 [0x1C] WAIT(15* ticks)
  7: 0x06E7 [0x79] Shami (ID: 17784905/0x010F6049) looks at Squintrox Dryeyes (ID: 17784966/0x010F6086) (Basic look)
  8: 0x06F1 [0x5B] LOAD_EXT_SCHEDULER: Load scheduler "tlk0" with entities [Squintrox Dryeyes (ID: 17784966/0x010F6086), Squintrox Dryeyes (ID: 17784966/0x010F6086)], work=215*
  9: 0x0700 [0x00] END_REQSTACK()
```

### Event 65535.22

#### Metadata

| Field        | Value    |
|--------------|----------|
| Entrypoint   | 0x0701   |
| Data Size    | 58 bytes |
| Instructions | 11       |

```
      00 01 02 03 04 05 06 07  08 09 0A 0B 0C 0D 0E 0F
      -- -- -- -- -- -- -- --  -- -- -- -- -- -- -- --
0700:    32 1C 80 79 00 3E 60  0F 01 28 60 0F 01 1F 00   2..y.>`..(`....
0710: 8B 80 8C 80 03 80 1F 01  6F 1C 20 80 4A 3E 60 0F  ........o. .J>`.
0720: 01 28 60 0F 01 6F 76 3E  60 0F 01 66 28 80 3E 60  .(`..ov>`..f(.>`
0730: 0F 01 3E 60 0F 01 74 6C  6B 30 00                 ..>`..tlk0.     
```

#### Opcodes

```
  0: 0x0701 [0x32] ExtData[1]->MainSpeed = 13* * 0.1
  1: 0x0704 [0x79] Leffquen (ID: 17784894/0x010F603E) looks at Ramicharaux (ID: 17784872/0x010F6028) (Basic look)
  2: 0x070E [0x1F] MOVE_ENTITY: EventEntity moves to X=-52.055*, Z=2.177*, Y=0.000*
  3: 0x0716 [0x1F] MOVE_ENTITY: Update entity position (mode=1)
  4: 0x0718 [0x6F] WAIT_FRAME_DELAY: Yield until WaitTime reaches zero
  5: 0x0719 [0x1C] WAIT(15* ticks)
  6: 0x071C [0x4A] Leffquen (ID: 17784894/0x010F603E) looks at Ramicharaux (ID: 17784872/0x010F6028)
  7: 0x0725 [0x6F] WAIT_FRAME_DELAY: Yield until WaitTime reaches zero
  8: 0x0726 [0x76] CHECK_ENTITY_RENDER_FLAGS: Wait until Leffquen (ID: 17784894/0x010F603E) Render.Flags0 and Render.Flags3 conditions are met
  9: 0x072B [0x66] LOAD_EXT_SCHEDULER_MAIN: Load scheduler "tlk0" with entities [Leffquen (ID: 17784894/0x010F603E), Leffquen (ID: 17784894/0x010F603E)], work=19*
 10: 0x073A [0x00] END_REQSTACK()
```
