# 17784842 - Chudigrimane

## Common Data

| Field            | Value                |
|------------------|----------------------|
| Zone             | Port Jeuno (ID: 246) |
| Block Size       | 1872 bytes           |
| Total Events     | 45                   |
| References Count | 89                   |

## List of Events

| Event ID                   | Entrypoint   |   Size |   Instructions |
|----------------------------|--------------|--------|----------------|
| [65535](#event-65535)      | 0x0000       |      1 |              1 |
| [6](#event-6)              | 0x0001       |    123 |             28 |
| [324](#event-324)          | 0x007C       |     18 |              4 |
| [325](#event-325)          | 0x008E       |     18 |              4 |
| [327](#event-327)          | 0x00A0       |     18 |              4 |
| [331](#event-331)          | 0x00B2       |     18 |              4 |
| [332](#event-332)          | 0x00C4       |     18 |              4 |
| [333](#event-333)          | 0x00D6       |     18 |              4 |
| [334](#event-334)          | 0x00E8       |     18 |              4 |
| [335](#event-335)          | 0x00FA       |     18 |              4 |
| [336](#event-336)          | 0x010C       |     18 |              4 |
| [337](#event-337)          | 0x011E       |     18 |              4 |
| [338](#event-338)          | 0x0130       |     18 |              4 |
| [340](#event-340)          | 0x0142       |     18 |              4 |
| [341](#event-341)          | 0x0154       |     18 |              4 |
| [342](#event-342)          | 0x0166       |     18 |              4 |
| [343](#event-343)          | 0x0178       |     18 |              4 |
| [344](#event-344)          | 0x018A       |     18 |              4 |
| [345](#event-345)          | 0x019C       |     18 |              4 |
| [65535.1](#event-655351)   | 0x01AE       |     40 |              8 |
| [65535.2](#event-655352)   | 0x01D6       |     40 |              8 |
| [65535.3](#event-655353)   | 0x01FE       |    139 |             22 |
| [65535.4](#event-655354)   | 0x0289       |     15 |              5 |
| [65535.5](#event-655355)   | 0x0298       |     15 |              5 |
| [65535.6](#event-655356)   | 0x02A7       |     30 |              8 |
| [65535.7](#event-655357)   | 0x02C5       |     16 |              2 |
| [65535.8](#event-655358)   | 0x02D5       |     33 |              7 |
| [65535.9](#event-655359)   | 0x02F6       |     33 |              7 |
| [65535.10](#event-6553510) | 0x0317       |     45 |             13 |
| [65535.11](#event-6553511) | 0x0344       |    139 |             22 |
| [65535.12](#event-6553512) | 0x03CF       |     15 |              5 |
| [65535.13](#event-6553513) | 0x03DE       |     15 |              5 |
| [65535.14](#event-6553514) | 0x03ED       |     15 |              5 |
| [65535.15](#event-6553515) | 0x03FC       |     80 |             13 |
| [65535.16](#event-6553516) | 0x044C       |     15 |              5 |
| [65535.17](#event-6553517) | 0x045B       |     15 |              5 |
| [65535.18](#event-6553518) | 0x046A       |     15 |              5 |
| [65535.19](#event-6553519) | 0x0479       |     15 |              5 |
| [65535.20](#event-6553520) | 0x0488       |     15 |              5 |
| [65535.21](#event-6553521) | 0x0497       |     53 |             10 |
| [65535.22](#event-6553522) | 0x04CC       |     58 |             11 |
| [431](#event-431)          | 0x0506       |      1 |              1 |
| [434](#event-434)          | 0x0507       |      7 |              2 |
| [65535.23](#event-6553523) | 0x050E       |     22 |              8 |
| [443](#event-443)          | 0x0524       |      1 |              1 |

## DAT References (imed_data)

|   Index | Hex Value   |   Dec Value |
|---------|-------------|-------------|
|       0 | 0x0360      |         864 |
|       1 | 0x001A      |          26 |
|       2 | 0x0000      |           0 |
|       3 | 0x00B1      |         177 |
|       4 | 0x0001      |           1 |
|       5 | 0x037A      |         890 |
|       6 | 0x0090      |         144 |
|       7 | 0x003C      |          60 |
|       8 | 0x1BAA      |        7082 |
|       9 | 0x1BA9      |        7081 |
|      10 | 0x0015      |          21 |
|      11 | 0x005A      |          90 |
|      12 | 0x000D      |          13 |
|      13 | 0xFFFF43BD  |  4294919101 |
|      14 | 0x0E16      |        3606 |
|      15 | 0x03CD      |         973 |
|      16 | 0x0034      |          52 |
|      17 | 0x0078      |         120 |
|      18 | 0x000B      |          11 |
|      19 | 0x5D1F      |       23839 |
|      20 | 0x1781      |        6017 |
|      21 | 0x02AF      |         687 |
|      22 | 0x0051      |          81 |
|      23 | 0x002D      |          45 |
|      24 | 0x0005      |           5 |
|      25 | 0x001E      |          30 |
|      26 | 0x08AE      |        2222 |
|      27 | 0x004B      |          75 |
|      28 | 0x000F      |          15 |
|      29 | 0x0025      |          37 |
|      30 | 0xFFFEC504  |  4294886660 |
|      31 | 0xFFFFEAAC  |  4294961836 |
|      32 | 0x0027      |          39 |
|      33 | 0xFFFEC210  |  4294885904 |
|      34 | 0xFFFFEF62  |  4294963042 |
|      35 | 0x0029      |          41 |
|      36 | 0xFFFEBC38  |  4294884408 |
|      37 | 0xFFFFED5A  |  4294962522 |
|      38 | 0x0006      |           6 |
|      39 | 0x000A      |          10 |
|      40 | 0xFFFEAFBE  |  4294881214 |
|      41 | 0xFFFFFA5E  |  4294965854 |
|      42 | 0x00D8      |         216 |
|      43 | 0x000C      |          12 |
|      44 | 0xFFFE7646  |  4294866502 |
|      45 | 0xFFFFF1A1  |  4294963617 |
|      46 | 0x0028      |          40 |
|      47 | 0xFFFF89FB  |  4294937083 |
|      48 | 0xFFFFFA22  |  4294965794 |
|      49 | 0xFFFE86B8  |  4294870712 |
|      50 | 0xFFFFDEB9  |  4294958777 |
|      51 | 0x0E02      |        3586 |
|      52 | 0x0168      |         360 |
|      53 | 0xFFFE880F  |  4294871055 |
|      54 | 0x22A8      |        8872 |
|      55 | 0x0200      |         512 |
|      56 | 0xFFFF32B5  |  4294914741 |
|      57 | 0x079E      |        1950 |
|      58 | 0xFFFF402C  |  4294918188 |
|      59 | 0x0935      |        2357 |
|      60 | 0xFFFF35EA  |  4294915562 |
|      61 | 0x0B3F      |        2879 |
|      62 | 0xFFFF3A12  |  4294916626 |
|      63 | 0x09AA      |        2474 |
|      64 | 0xFFFE9692  |  4294874770 |
|      65 | 0xFFFFF68E  |  4294964878 |
|      66 | 0x0026      |          38 |
|      67 | 0xFFFE7DEB  |  4294868459 |
|      68 | 0xFFFFF5B0  |  4294964656 |
|      69 | 0x1387      |        4999 |
|      70 | 0xFFFFFCE1  |  4294966497 |
|      71 | 0xFFFED394  |  4294890388 |
|      72 | 0xFFFFF65F  |  4294964831 |
|      73 | 0xFFFF38F4  |  4294916340 |
|      74 | 0xFFFFF821  |  4294965281 |
|      75 | 0xFFFE5E8F  |  4294860431 |
|      76 | 0x0899      |        2201 |
|      77 | 0xFFFF7085  |  4294930565 |
|      78 | 0xFFFFF716  |  4294965014 |
|      79 | 0xFFFF1D41  |  4294909249 |
|      80 | 0x24D9      |        9433 |
|      81 | 0xFFFF236E  |  4294910830 |
|      82 | 0x2722      |       10018 |
|      83 | 0x00D7      |         215 |
|      84 | 0xFFFF34A9  |  4294915241 |
|      85 | 0x0881      |        2177 |
|      86 | 0x0013      |          19 |
|      87 | 0x00F0      |         240 |
|      88 | 0x03AD      |         941 |

## String References

- **7081**: The flight bound for [San d'Oria/Bastok/Windurst/Kazham] will [arrive/depart] in [less than an hour/about 1 hour/about 2 hours/about 3 hours/about 4 hours/about 5 hours/about 6 hours/about 7 hours] ($1 [minute/minutes] in Earth time).
- **7082**: The flight bound for [San d'Oria/Bastok/Windurst/Kazham] is now [arriving/departing].

## Events

### Event 65535

#### Metadata

| Field        | Value   |
|--------------|---------|
| Entrypoint   | 0x0000  |
| Data Size    | 1 bytes |
| Instructions | 1       |

```
      00 01 02 03 04 05 06 07  08 09 0A 0B 0C 0D 0E 0F
      -- -- -- -- -- -- -- --  -- -- -- -- -- -- -- --
0000: 00                                                .               
```

#### Opcodes

```
  0: 0x0000 [0x00] END_REQSTACK()
```

### Event 6

#### Metadata

| Field        | Value     |
|--------------|-----------|
| Entrypoint   | 0x0001    |
| Data Size    | 123 bytes |
| Instructions | 28        |

```
      00 01 02 03 04 05 06 07  08 09 0A 0B 0C 0D 0E 0F
      -- -- -- -- -- -- -- --  -- -- -- -- -- -- -- --
0000:    1E F0 FF FF 7F 83 02  10 3F 02 10 02 10 00 80   ........?......
0010: 02 02 10 01 80 03 2A 00  03 03 10 01 80 08 03 10  ......*.........
0020: 02 10 03 04 10 02 80 01  53 00 02 02 10 03 80 03  ........S.......
0030: 44 00 03 03 10 03 80 08  03 10 02 10 03 04 10 04  D...............
0040: 80 01 53 00 03 03 10 05  80 08 03 10 02 10 03 04  ..S.............
0050: 10 02 80 03 05 10 02 80  03 06 10 03 10 15 06 10  ................
0060: 06 80 15 03 10 07 80 02  03 10 02 80 00 76 00 1D  .............v..
0070: 08 80 23 01 7A 00 1D 09  80 23 21 00              ..#.z....#!.    
```

#### Opcodes

```
  0: 0x0001 [0x1E] EventEntity looks at LocalPlayer and starts talking
  1: 0x0006 [0x83] Work_Zone[2] = GetGameTime()
  2: 0x0009 [0x3F] Work_Zone[2] = Work_Zone[2] % 864*
  3: 0x0010 [0x02] IF !(Work_Zone[2] >= 26*) GOTO 0x002A
  4: 0x0018 [0x03] Work_Zone[3] = 26*
  5: 0x001D [0x08] Work_Zone[3] -= Work_Zone[2]
  6: 0x0022 [0x03] Work_Zone[4] = 0*
  7: 0x0027 [0x01] GOTO 0x0053
  8: 0x002A [0x02] IF !(Work_Zone[2] >= 177*) GOTO 0x0044
  9: 0x0032 [0x03] Work_Zone[3] = 177*
 10: 0x0037 [0x08] Work_Zone[3] -= Work_Zone[2]
 11: 0x003C [0x03] Work_Zone[4] = 1*
 12: 0x0041 [0x01] GOTO 0x0053
 13: 0x0044 [0x03] Work_Zone[3] = 890*
 14: 0x0049 [0x08] Work_Zone[3] -= Work_Zone[2]
 15: 0x004E [0x03] Work_Zone[4] = 0*

SUBROUTINE_0053:
 16: 0x0053 [0x03] Work_Zone[5] = 0*
 17: 0x0058 [0x03] Work_Zone[6] = Work_Zone[3]
 18: 0x005D [0x15] Work_Zone[6] /= 144*
 19: 0x0062 [0x15] Work_Zone[3] /= 60*
 20: 0x0067 [0x02] IF !(Work_Zone[3] == 0*) GOTO 0x0076
 21: 0x006F [0x1D] PRINT_EVENT_MESSAGE(message_id=7082*)
    → "The flight bound for [San d'Oria/Bastok/Windurst/Kazham] is now [arriving/departing]."
 22: 0x0072 [0x23] WAIT_FOR_DIALOG_INTERACTION
 23: 0x0073 [0x01] GOTO 0x007A
 24: 0x0076 [0x1D] PRINT_EVENT_MESSAGE(message_id=7081*)
    → "The flight bound for [San d'Oria/Bastok/Windurst/Kazham] will [arrive/depart] in [less than an hour/about 1 hour/about 2 hours/about 3 hours/about 4 hours/about 5 hours/about 6 hours/about 7 hours] ($1 [minute/minutes] in Earth time)."
 25: 0x0079 [0x23] WAIT_FOR_DIALOG_INTERACTION

SUBROUTINE_007A:
 26: 0x007A [0x21] END_EVENT
 27: 0x007B [0x00] END_REQSTACK()
```

### Event 324

#### Metadata

| Field        | Value    |
|--------------|----------|
| Entrypoint   | 0x007C   |
| Data Size    | 18 bytes |
| Instructions | 4        |

```
      00 01 02 03 04 05 06 07  08 09 0A 0B 0C 0D 0E 0F
      -- -- -- -- -- -- -- --  -- -- -- -- -- -- -- --
0070:                                      92 01 F8 FF              ....
0080: FF 7F 94 01 F8 FF FF 7F  80 F8 FF FF 7F 00        ..............  
```

#### Opcodes

```
  0: 0x007C [0x92] EventEntity->Render.Flags3 ^= 0x01
  1: 0x0082 [0x94] EventEntity->Render.Flags3 ^= 0x01
  2: 0x0088 [0x80] LOAD_WAIT(entity=EventEntity)
  3: 0x008D [0x00] END_REQSTACK()
```

### Event 325

#### Metadata

| Field        | Value    |
|--------------|----------|
| Entrypoint   | 0x008E   |
| Data Size    | 18 bytes |
| Instructions | 4        |

```
      00 01 02 03 04 05 06 07  08 09 0A 0B 0C 0D 0E 0F
      -- -- -- -- -- -- -- --  -- -- -- -- -- -- -- --
0080:                                            92 01                ..
0090: F8 FF FF 7F 94 01 F8 FF  FF 7F 80 F8 FF FF 7F 00  ................
```

#### Opcodes

```
  0: 0x008E [0x92] EventEntity->Render.Flags3 ^= 0x01
  1: 0x0094 [0x94] EventEntity->Render.Flags3 ^= 0x01
  2: 0x009A [0x80] LOAD_WAIT(entity=EventEntity)
  3: 0x009F [0x00] END_REQSTACK()
```

### Event 327

#### Metadata

| Field        | Value    |
|--------------|----------|
| Entrypoint   | 0x00A0   |
| Data Size    | 18 bytes |
| Instructions | 4        |

```
      00 01 02 03 04 05 06 07  08 09 0A 0B 0C 0D 0E 0F
      -- -- -- -- -- -- -- --  -- -- -- -- -- -- -- --
00A0: 92 01 F8 FF FF 7F 94 01  F8 FF FF 7F 80 F8 FF FF  ................
00B0: 7F 00                                             ..              
```

#### Opcodes

```
  0: 0x00A0 [0x92] EventEntity->Render.Flags3 ^= 0x01
  1: 0x00A6 [0x94] EventEntity->Render.Flags3 ^= 0x01
  2: 0x00AC [0x80] LOAD_WAIT(entity=EventEntity)
  3: 0x00B1 [0x00] END_REQSTACK()
```

### Event 331

#### Metadata

| Field        | Value    |
|--------------|----------|
| Entrypoint   | 0x00B2   |
| Data Size    | 18 bytes |
| Instructions | 4        |

```
      00 01 02 03 04 05 06 07  08 09 0A 0B 0C 0D 0E 0F
      -- -- -- -- -- -- -- --  -- -- -- -- -- -- -- --
00B0:       92 01 F8 FF FF 7F  94 01 F8 FF FF 7F 80 F8    ..............
00C0: FF FF 7F 00                                       ....            
```

#### Opcodes

```
  0: 0x00B2 [0x92] EventEntity->Render.Flags3 ^= 0x01
  1: 0x00B8 [0x94] EventEntity->Render.Flags3 ^= 0x01
  2: 0x00BE [0x80] LOAD_WAIT(entity=EventEntity)
  3: 0x00C3 [0x00] END_REQSTACK()
```

### Event 332

#### Metadata

| Field        | Value    |
|--------------|----------|
| Entrypoint   | 0x00C4   |
| Data Size    | 18 bytes |
| Instructions | 4        |

```
      00 01 02 03 04 05 06 07  08 09 0A 0B 0C 0D 0E 0F
      -- -- -- -- -- -- -- --  -- -- -- -- -- -- -- --
00C0:             92 01 F8 FF  FF 7F 94 01 F8 FF FF 7F      ............
00D0: 80 F8 FF FF 7F 00                                 ......          
```

#### Opcodes

```
  0: 0x00C4 [0x92] EventEntity->Render.Flags3 ^= 0x01
  1: 0x00CA [0x94] EventEntity->Render.Flags3 ^= 0x01
  2: 0x00D0 [0x80] LOAD_WAIT(entity=EventEntity)
  3: 0x00D5 [0x00] END_REQSTACK()
```

### Event 333

#### Metadata

| Field        | Value    |
|--------------|----------|
| Entrypoint   | 0x00D6   |
| Data Size    | 18 bytes |
| Instructions | 4        |

```
      00 01 02 03 04 05 06 07  08 09 0A 0B 0C 0D 0E 0F
      -- -- -- -- -- -- -- --  -- -- -- -- -- -- -- --
00D0:                   92 01  F8 FF FF 7F 94 01 F8 FF        ..........
00E0: FF 7F 80 F8 FF FF 7F 00                           ........        
```

#### Opcodes

```
  0: 0x00D6 [0x92] EventEntity->Render.Flags3 ^= 0x01
  1: 0x00DC [0x94] EventEntity->Render.Flags3 ^= 0x01
  2: 0x00E2 [0x80] LOAD_WAIT(entity=EventEntity)
  3: 0x00E7 [0x00] END_REQSTACK()
```

### Event 334

#### Metadata

| Field        | Value    |
|--------------|----------|
| Entrypoint   | 0x00E8   |
| Data Size    | 18 bytes |
| Instructions | 4        |

```
      00 01 02 03 04 05 06 07  08 09 0A 0B 0C 0D 0E 0F
      -- -- -- -- -- -- -- --  -- -- -- -- -- -- -- --
00E0:                          92 01 F8 FF FF 7F 94 01          ........
00F0: F8 FF FF 7F 80 F8 FF FF  7F 00                    ..........      
```

#### Opcodes

```
  0: 0x00E8 [0x92] EventEntity->Render.Flags3 ^= 0x01
  1: 0x00EE [0x94] EventEntity->Render.Flags3 ^= 0x01
  2: 0x00F4 [0x80] LOAD_WAIT(entity=EventEntity)
  3: 0x00F9 [0x00] END_REQSTACK()
```

### Event 335

#### Metadata

| Field        | Value    |
|--------------|----------|
| Entrypoint   | 0x00FA   |
| Data Size    | 18 bytes |
| Instructions | 4        |

```
      00 01 02 03 04 05 06 07  08 09 0A 0B 0C 0D 0E 0F
      -- -- -- -- -- -- -- --  -- -- -- -- -- -- -- --
00F0:                                92 01 F8 FF FF 7F            ......
0100: 94 01 F8 FF FF 7F 80 F8  FF FF 7F 00              ............    
```

#### Opcodes

```
  0: 0x00FA [0x92] EventEntity->Render.Flags3 ^= 0x01
  1: 0x0100 [0x94] EventEntity->Render.Flags3 ^= 0x01
  2: 0x0106 [0x80] LOAD_WAIT(entity=EventEntity)
  3: 0x010B [0x00] END_REQSTACK()
```

### Event 336

#### Metadata

| Field        | Value    |
|--------------|----------|
| Entrypoint   | 0x010C   |
| Data Size    | 18 bytes |
| Instructions | 4        |

```
      00 01 02 03 04 05 06 07  08 09 0A 0B 0C 0D 0E 0F
      -- -- -- -- -- -- -- --  -- -- -- -- -- -- -- --
0100:                                      92 01 F8 FF              ....
0110: FF 7F 94 01 F8 FF FF 7F  80 F8 FF FF 7F 00        ..............  
```

#### Opcodes

```
  0: 0x010C [0x92] EventEntity->Render.Flags3 ^= 0x01
  1: 0x0112 [0x94] EventEntity->Render.Flags3 ^= 0x01
  2: 0x0118 [0x80] LOAD_WAIT(entity=EventEntity)
  3: 0x011D [0x00] END_REQSTACK()
```

### Event 337

#### Metadata

| Field        | Value    |
|--------------|----------|
| Entrypoint   | 0x011E   |
| Data Size    | 18 bytes |
| Instructions | 4        |

```
      00 01 02 03 04 05 06 07  08 09 0A 0B 0C 0D 0E 0F
      -- -- -- -- -- -- -- --  -- -- -- -- -- -- -- --
0110:                                            92 01                ..
0120: F8 FF FF 7F 94 01 F8 FF  FF 7F 80 F8 FF FF 7F 00  ................
```

#### Opcodes

```
  0: 0x011E [0x92] EventEntity->Render.Flags3 ^= 0x01
  1: 0x0124 [0x94] EventEntity->Render.Flags3 ^= 0x01
  2: 0x012A [0x80] LOAD_WAIT(entity=EventEntity)
  3: 0x012F [0x00] END_REQSTACK()
```

### Event 338

#### Metadata

| Field        | Value    |
|--------------|----------|
| Entrypoint   | 0x0130   |
| Data Size    | 18 bytes |
| Instructions | 4        |

```
      00 01 02 03 04 05 06 07  08 09 0A 0B 0C 0D 0E 0F
      -- -- -- -- -- -- -- --  -- -- -- -- -- -- -- --
0130: 92 01 F8 FF FF 7F 94 01  F8 FF FF 7F 80 F8 FF FF  ................
0140: 7F 00                                             ..              
```

#### Opcodes

```
  0: 0x0130 [0x92] EventEntity->Render.Flags3 ^= 0x01
  1: 0x0136 [0x94] EventEntity->Render.Flags3 ^= 0x01
  2: 0x013C [0x80] LOAD_WAIT(entity=EventEntity)
  3: 0x0141 [0x00] END_REQSTACK()
```

### Event 340

#### Metadata

| Field        | Value    |
|--------------|----------|
| Entrypoint   | 0x0142   |
| Data Size    | 18 bytes |
| Instructions | 4        |

```
      00 01 02 03 04 05 06 07  08 09 0A 0B 0C 0D 0E 0F
      -- -- -- -- -- -- -- --  -- -- -- -- -- -- -- --
0140:       92 01 F8 FF FF 7F  94 01 F8 FF FF 7F 80 F8    ..............
0150: FF FF 7F 00                                       ....            
```

#### Opcodes

```
  0: 0x0142 [0x92] EventEntity->Render.Flags3 ^= 0x01
  1: 0x0148 [0x94] EventEntity->Render.Flags3 ^= 0x01
  2: 0x014E [0x80] LOAD_WAIT(entity=EventEntity)
  3: 0x0153 [0x00] END_REQSTACK()
```

### Event 341

#### Metadata

| Field        | Value    |
|--------------|----------|
| Entrypoint   | 0x0154   |
| Data Size    | 18 bytes |
| Instructions | 4        |

```
      00 01 02 03 04 05 06 07  08 09 0A 0B 0C 0D 0E 0F
      -- -- -- -- -- -- -- --  -- -- -- -- -- -- -- --
0150:             92 01 F8 FF  FF 7F 94 01 F8 FF FF 7F      ............
0160: 80 F8 FF FF 7F 00                                 ......          
```

#### Opcodes

```
  0: 0x0154 [0x92] EventEntity->Render.Flags3 ^= 0x01
  1: 0x015A [0x94] EventEntity->Render.Flags3 ^= 0x01
  2: 0x0160 [0x80] LOAD_WAIT(entity=EventEntity)
  3: 0x0165 [0x00] END_REQSTACK()
```

### Event 342

#### Metadata

| Field        | Value    |
|--------------|----------|
| Entrypoint   | 0x0166   |
| Data Size    | 18 bytes |
| Instructions | 4        |

```
      00 01 02 03 04 05 06 07  08 09 0A 0B 0C 0D 0E 0F
      -- -- -- -- -- -- -- --  -- -- -- -- -- -- -- --
0160:                   92 01  F8 FF FF 7F 94 01 F8 FF        ..........
0170: FF 7F 80 F8 FF FF 7F 00                           ........        
```

#### Opcodes

```
  0: 0x0166 [0x92] EventEntity->Render.Flags3 ^= 0x01
  1: 0x016C [0x94] EventEntity->Render.Flags3 ^= 0x01
  2: 0x0172 [0x80] LOAD_WAIT(entity=EventEntity)
  3: 0x0177 [0x00] END_REQSTACK()
```

### Event 343

#### Metadata

| Field        | Value    |
|--------------|----------|
| Entrypoint   | 0x0178   |
| Data Size    | 18 bytes |
| Instructions | 4        |

```
      00 01 02 03 04 05 06 07  08 09 0A 0B 0C 0D 0E 0F
      -- -- -- -- -- -- -- --  -- -- -- -- -- -- -- --
0170:                          92 01 F8 FF FF 7F 94 01          ........
0180: F8 FF FF 7F 80 F8 FF FF  7F 00                    ..........      
```

#### Opcodes

```
  0: 0x0178 [0x92] EventEntity->Render.Flags3 ^= 0x01
  1: 0x017E [0x94] EventEntity->Render.Flags3 ^= 0x01
  2: 0x0184 [0x80] LOAD_WAIT(entity=EventEntity)
  3: 0x0189 [0x00] END_REQSTACK()
```

### Event 344

#### Metadata

| Field        | Value    |
|--------------|----------|
| Entrypoint   | 0x018A   |
| Data Size    | 18 bytes |
| Instructions | 4        |

```
      00 01 02 03 04 05 06 07  08 09 0A 0B 0C 0D 0E 0F
      -- -- -- -- -- -- -- --  -- -- -- -- -- -- -- --
0180:                                92 01 F8 FF FF 7F            ......
0190: 94 01 F8 FF FF 7F 80 F8  FF FF 7F 00              ............    
```

#### Opcodes

```
  0: 0x018A [0x92] EventEntity->Render.Flags3 ^= 0x01
  1: 0x0190 [0x94] EventEntity->Render.Flags3 ^= 0x01
  2: 0x0196 [0x80] LOAD_WAIT(entity=EventEntity)
  3: 0x019B [0x00] END_REQSTACK()
```

### Event 345

#### Metadata

| Field        | Value    |
|--------------|----------|
| Entrypoint   | 0x019C   |
| Data Size    | 18 bytes |
| Instructions | 4        |

```
      00 01 02 03 04 05 06 07  08 09 0A 0B 0C 0D 0E 0F
      -- -- -- -- -- -- -- --  -- -- -- -- -- -- -- --
0190:                                      92 01 F8 FF              ....
01A0: FF 7F 94 01 F8 FF FF 7F  80 F8 FF FF 7F 00        ..............  
```

#### Opcodes

```
  0: 0x019C [0x92] EventEntity->Render.Flags3 ^= 0x01
  1: 0x01A2 [0x94] EventEntity->Render.Flags3 ^= 0x01
  2: 0x01A8 [0x80] LOAD_WAIT(entity=EventEntity)
  3: 0x01AD [0x00] END_REQSTACK()
```

### Event 65535.1

#### Metadata

| Field        | Value    |
|--------------|----------|
| Entrypoint   | 0x01AE   |
| Data Size    | 40 bytes |
| Instructions | 8        |

```
      00 01 02 03 04 05 06 07  08 09 0A 0B 0C 0D 0E 0F
      -- -- -- -- -- -- -- --  -- -- -- -- -- -- -- --
01A0:                                            66 0A                f.
01B0: 80 28 60 0F 01 28 60 0F  01 64 69 73 30 1C 0B 80  .(`..(`..dis0...
01C0: 32 0C 80 1F 00 0D 80 0E  80 02 80 1F 01 6F 4B F8  2............oK.
01D0: FF FF 7F 0F 80 00                                 ......          
```

#### Opcodes

```
  0: 0x01AE [0x66] LOAD_EXT_SCHEDULER_MAIN: Load scheduler "dis0" with entities [Ramicharaux (ID: 17784872/0x010F6028), Ramicharaux (ID: 17784872/0x010F6028)], work=21*
  1: 0x01BD [0x1C] WAIT(90* ticks)
  2: 0x01C0 [0x32] ExtData[1]->MainSpeed = 13* * 0.1
  3: 0x01C3 [0x1F] MOVE_ENTITY: EventEntity moves to X=-48.195*, Z=3.606*, Y=0.000*
  4: 0x01CB [0x1F] MOVE_ENTITY: Update entity position (mode=1)
  5: 0x01CD [0x6F] WAIT_FRAME_DELAY: Yield until WaitTime reaches zero
  6: 0x01CE [0x4B] UPDATE_ENTITY_YAW(entity=EventEntity, yaw=5.3°*)
  7: 0x01D5 [0x00] END_REQSTACK()
```

### Event 65535.2

#### Metadata

| Field        | Value    |
|--------------|----------|
| Entrypoint   | 0x01D6   |
| Data Size    | 40 bytes |
| Instructions | 8        |

```
      00 01 02 03 04 05 06 07  08 09 0A 0B 0C 0D 0E 0F
      -- -- -- -- -- -- -- --  -- -- -- -- -- -- -- --
01D0:                   66 10  80 43 60 0F 01 43 60 0F        f..C`..C`.
01E0: 01 64 69 73 30 1C 11 80  32 12 80 1F 00 13 80 14  .dis0...2.......
01F0: 80 02 80 1F 01 6F 4B F8  FF FF 7F 15 80 00        .....oK.......  
```

#### Opcodes

```
  0: 0x01D6 [0x66] LOAD_EXT_SCHEDULER_MAIN: Load scheduler "dis0" with entities [Khumo Daramasteh (ID: 17784899/0x010F6043), Khumo Daramasteh (ID: 17784899/0x010F6043)], work=52*
  1: 0x01E5 [0x1C] WAIT(120* ticks)
  2: 0x01E8 [0x32] ExtData[1]->MainSpeed = 11* * 0.1
  3: 0x01EB [0x1F] MOVE_ENTITY: EventEntity moves to X=23.839*, Z=6.017*, Y=0.000*
  4: 0x01F3 [0x1F] MOVE_ENTITY: Update entity position (mode=1)
  5: 0x01F5 [0x6F] WAIT_FRAME_DELAY: Yield until WaitTime reaches zero
  6: 0x01F6 [0x4B] UPDATE_ENTITY_YAW(entity=EventEntity, yaw=3.8°*)
  7: 0x01FD [0x00] END_REQSTACK()
```

### Event 65535.3

#### Metadata

| Field        | Value     |
|--------------|-----------|
| Entrypoint   | 0x01FE    |
| Data Size    | 139 bytes |
| Instructions | 22        |

```
      00 01 02 03 04 05 06 07  08 09 0A 0B 0C 0D 0E 0F
      -- -- -- -- -- -- -- --  -- -- -- -- -- -- -- --
01F0:                                            5B 16                [.
0200: 80 06 60 0F 01 06 60 0F  01 68 61 69 30 1C 17 80  ..`...`..hai0...
0210: 4A 04 60 0F 01 06 60 0F  01 1C 18 80 79 00 05 60  J.`...`.....y..`
0220: 0F 01 06 60 0F 01 1C 19  80 4B 06 60 0F 01 1A 80  ...`.....K.`....
0230: 6F 76 06 60 0F 01 5B 16  80 06 60 0F 01 06 60 0F  ov.`..[...`...`.
0240: 01 61 77 77 30 1C 17 80  5B 1B 80 04 60 0F 01 04  .aww0...[...`...
0250: 60 0F 01 74 68 6B 31 1C  1C 80 5B 0B 80 05 60 0F  `..thk1...[...`.
0260: 01 05 60 0F 01 74 6C 6B  30 1C 0B 80 27 10 04 60  ..`..tlk0...'..`
0270: 0F 01 21 27 10 05 60 0F  01 20 32 1D 80 1F 00 1E  ..!'..`.. 2.....
0280: 80 1F 80 02 80 1F 01 6F  00                       .......o.       
```

#### Opcodes

```
  0: 0x01FE [0x5B] LOAD_EXT_SCHEDULER: Load scheduler "hai0" with entities [Jaha Amariyo (ID: 17784838/0x010F6006), Jaha Amariyo (ID: 17784838/0x010F6006)], work=81*
  1: 0x020D [0x1C] WAIT(45* ticks)
  2: 0x0210 [0x4A] Karl (ID: 17784836/0x010F6004) looks at Jaha Amariyo (ID: 17784838/0x010F6006)
  3: 0x0219 [0x1C] WAIT(5* ticks)
  4: 0x021C [0x79] Buntz (ID: 17784837/0x010F6005) looks at Jaha Amariyo (ID: 17784838/0x010F6006) (Basic look)
  5: 0x0226 [0x1C] WAIT(30* ticks)
  6: 0x0229 [0x4B] UPDATE_ENTITY_YAW(entity=Jaha Amariyo (ID: 17784838/0x010F6006), yaw=12.2°*)
  7: 0x0230 [0x6F] WAIT_FRAME_DELAY: Yield until WaitTime reaches zero
  8: 0x0231 [0x76] CHECK_ENTITY_RENDER_FLAGS: Wait until Jaha Amariyo (ID: 17784838/0x010F6006) Render.Flags0 and Render.Flags3 conditions are met
  9: 0x0236 [0x5B] LOAD_EXT_SCHEDULER: Load scheduler "aww0" with entities [Jaha Amariyo (ID: 17784838/0x010F6006), Jaha Amariyo (ID: 17784838/0x010F6006)], work=81*
 10: 0x0245 [0x1C] WAIT(45* ticks)
 11: 0x0248 [0x5B] LOAD_EXT_SCHEDULER: Load scheduler "thk1" with entities [Karl (ID: 17784836/0x010F6004), Karl (ID: 17784836/0x010F6004)], work=75*
 12: 0x0257 [0x1C] WAIT(15* ticks)
 13: 0x025A [0x5B] LOAD_EXT_SCHEDULER: Load scheduler "tlk0" with entities [Buntz (ID: 17784837/0x010F6005), Buntz (ID: 17784837/0x010F6005)], work=90*
 14: 0x0269 [0x1C] WAIT(90* ticks)
 15: 0x026C [0x27] REQ_SET(priority=0x10, entity_id=Karl (ID: 17784836/0x010F6004), tag_num=0x21)
 16: 0x0273 [0x27] REQ_SET(priority=0x10, entity_id=Buntz (ID: 17784837/0x010F6005), tag_num=0x20)
 17: 0x027A [0x32] ExtData[1]->MainSpeed = 37* * 0.1
 18: 0x027D [0x1F] MOVE_ENTITY: EventEntity moves to X=-80.636*, Z=-5.460*, Y=0.000*
 19: 0x0285 [0x1F] MOVE_ENTITY: Update entity position (mode=1)
 20: 0x0287 [0x6F] WAIT_FRAME_DELAY: Yield until WaitTime reaches zero
 21: 0x0288 [0x00] END_REQSTACK()
```

### Event 65535.4

#### Metadata

| Field        | Value    |
|--------------|----------|
| Entrypoint   | 0x0289   |
| Data Size    | 15 bytes |
| Instructions | 5        |

```
      00 01 02 03 04 05 06 07  08 09 0A 0B 0C 0D 0E 0F
      -- -- -- -- -- -- -- --  -- -- -- -- -- -- -- --
0280:                             32 20 80 1F 00 21 80           2 ...!.
0290: 22 80 02 80 1F 01 6F 00                           ".....o.        
```

#### Opcodes

```
  0: 0x0289 [0x32] ExtData[1]->MainSpeed = 39* * 0.1
  1: 0x028C [0x1F] MOVE_ENTITY: EventEntity moves to X=-81.392*, Z=-4.254*, Y=0.000*
  2: 0x0294 [0x1F] MOVE_ENTITY: Update entity position (mode=1)
  3: 0x0296 [0x6F] WAIT_FRAME_DELAY: Yield until WaitTime reaches zero
  4: 0x0297 [0x00] END_REQSTACK()
```

### Event 65535.5

#### Metadata

| Field        | Value    |
|--------------|----------|
| Entrypoint   | 0x0298   |
| Data Size    | 15 bytes |
| Instructions | 5        |

```
      00 01 02 03 04 05 06 07  08 09 0A 0B 0C 0D 0E 0F
      -- -- -- -- -- -- -- --  -- -- -- -- -- -- -- --
0290:                          32 23 80 1F 00 24 80 25          2#...$.%
02A0: 80 02 80 1F 01 6F 00                              .....o.         
```

#### Opcodes

```
  0: 0x0298 [0x32] ExtData[1]->MainSpeed = 41* * 0.1
  1: 0x029B [0x1F] MOVE_ENTITY: EventEntity moves to X=-82.888*, Z=-4.774*, Y=0.000*
  2: 0x02A3 [0x1F] MOVE_ENTITY: Update entity position (mode=1)
  3: 0x02A5 [0x6F] WAIT_FRAME_DELAY: Yield until WaitTime reaches zero
  4: 0x02A6 [0x00] END_REQSTACK()
```

### Event 65535.6

#### Metadata

| Field        | Value    |
|--------------|----------|
| Entrypoint   | 0x02A7   |
| Data Size    | 30 bytes |
| Instructions | 8        |

```
      00 01 02 03 04 05 06 07  08 09 0A 0B 0C 0D 0E 0F
      -- -- -- -- -- -- -- --  -- -- -- -- -- -- -- --
02A0:                      6E  F8 FF FF 7F 26 80 99 F8         n....&...
02B0: FF FF 7F 1C 11 80 32 27  80 1F 00 28 80 29 80 02  ......2'...(.)..
02C0: 80 1F 01 6F 00                                    ...o.           
```

#### Opcodes

```
  0: 0x02A7 [0x6E] EventEntity uses emote 6*
  1: 0x02AE [0x99] Wait for EventEntity animation to complete
  2: 0x02B3 [0x1C] WAIT(120* ticks)
  3: 0x02B6 [0x32] ExtData[1]->MainSpeed = 10* * 0.1
  4: 0x02B9 [0x1F] MOVE_ENTITY: EventEntity moves to X=-86.082*, Z=-1.442*, Y=0.000*
  5: 0x02C1 [0x1F] MOVE_ENTITY: Update entity position (mode=1)
  6: 0x02C3 [0x6F] WAIT_FRAME_DELAY: Yield until WaitTime reaches zero
  7: 0x02C4 [0x00] END_REQSTACK()
```

### Event 65535.7

#### Metadata

| Field        | Value    |
|--------------|----------|
| Entrypoint   | 0x02C5   |
| Data Size    | 16 bytes |
| Instructions | 2        |

```
      00 01 02 03 04 05 06 07  08 09 0A 0B 0C 0D 0E 0F
      -- -- -- -- -- -- -- --  -- -- -- -- -- -- -- --
02C0:                5B 2A 80  86 60 0F 01 86 60 0F 01       [*..`...`..
02D0: 66 75 6D 30 00                                    fum0.           
```

#### Opcodes

```
  0: 0x02C5 [0x5B] LOAD_EXT_SCHEDULER: Load scheduler "fum0" with entities [Squintrox Dryeyes (ID: 17784966/0x010F6086), Squintrox Dryeyes (ID: 17784966/0x010F6086)], work=216*
  1: 0x02D4 [0x00] END_REQSTACK()
```

### Event 65535.8

#### Metadata

| Field        | Value    |
|--------------|----------|
| Entrypoint   | 0x02D5   |
| Data Size    | 33 bytes |
| Instructions | 7        |

```
      00 01 02 03 04 05 06 07  08 09 0A 0B 0C 0D 0E 0F
      -- -- -- -- -- -- -- --  -- -- -- -- -- -- -- --
02D0:                32 2B 80  1F 00 2C 80 2D 80 02 80       2+...,.-...
02E0: 1F 01 6F 1C 1C 80 66 19  80 42 60 0F 01 42 60 0F  ..o...f..B`..B`.
02F0: 01 74 68 6B 31 00                                 .thk1.          
```

#### Opcodes

```
  0: 0x02D5 [0x32] ExtData[1]->MainSpeed = 12* * 0.1
  1: 0x02D8 [0x1F] MOVE_ENTITY: EventEntity moves to X=-100.794*, Z=-3.679*, Y=0.000*
  2: 0x02E0 [0x1F] MOVE_ENTITY: Update entity position (mode=1)
  3: 0x02E2 [0x6F] WAIT_FRAME_DELAY: Yield until WaitTime reaches zero
  4: 0x02E3 [0x1C] WAIT(15* ticks)
  5: 0x02E6 [0x66] LOAD_EXT_SCHEDULER_MAIN: Load scheduler "thk1" with entities [Naurmaire (ID: 17784898/0x010F6042), Naurmaire (ID: 17784898/0x010F6042)], work=30*
  6: 0x02F5 [0x00] END_REQSTACK()
```

### Event 65535.9

#### Metadata

| Field        | Value    |
|--------------|----------|
| Entrypoint   | 0x02F6   |
| Data Size    | 33 bytes |
| Instructions | 7        |

```
      00 01 02 03 04 05 06 07  08 09 0A 0B 0C 0D 0E 0F
      -- -- -- -- -- -- -- --  -- -- -- -- -- -- -- --
02F0:                   66 27  80 3F 60 0F 01 3F 60 0F        f'.?`..?`.
0300: 01 74 68 6B 32 1C 07 80  32 2E 80 1F 00 2F 80 30  .thk2...2..../.0
0310: 80 02 80 1F 01 6F 00                              .....o.         
```

#### Opcodes

```
  0: 0x02F6 [0x66] LOAD_EXT_SCHEDULER_MAIN: Load scheduler "thk2" with entities [Marnie (ID: 17784895/0x010F603F), Marnie (ID: 17784895/0x010F603F)], work=10*
  1: 0x0305 [0x1C] WAIT(60* ticks)
  2: 0x0308 [0x32] ExtData[1]->MainSpeed = 40* * 0.1
  3: 0x030B [0x1F] MOVE_ENTITY: EventEntity moves to X=-30.213*, Z=-1.502*, Y=0.000*
  4: 0x0313 [0x1F] MOVE_ENTITY: Update entity position (mode=1)
  5: 0x0315 [0x6F] WAIT_FRAME_DELAY: Yield until WaitTime reaches zero
  6: 0x0316 [0x00] END_REQSTACK()
```

### Event 65535.10

#### Metadata

| Field        | Value    |
|--------------|----------|
| Entrypoint   | 0x0317   |
| Data Size    | 45 bytes |
| Instructions | 12       |

```
      00 01 02 03 04 05 06 07  08 09 0A 0B 0C 0D 0E 0F
      -- -- -- -- -- -- -- --  -- -- -- -- -- -- -- --
0310:                      32  0C 80 1F 00 31 80 32 80         2....1.2.
0320: 02 80 1F 01 1C 19 80 39  33 80 1C 34 80 1F 00 35  .......93..4...5
0330: 80 36 80 02 80 1F 01 1C  19 80 39 37 80 1C 34 80  .6........97..4.
0340: 01 17 03 00                                       ....            
```

#### Opcodes

```
  0: 0x0317 [0x32] ExtData[1]->MainSpeed = 13* * 0.1
  1: 0x031A [0x1F] MOVE_ENTITY: EventEntity moves to X=-96.584*, Z=-8.519*, Y=0.000*
  2: 0x0322 [0x1F] MOVE_ENTITY: Update entity position (mode=1)
  3: 0x0324 [0x1C] WAIT(30* ticks)
  4: 0x0327 [0x39] SET_ENTITY_DIRECTION(direction=19.7°*)
  5: 0x032A [0x1C] WAIT(360* ticks)
  6: 0x032D [0x1F] MOVE_ENTITY: EventEntity moves to X=-96.241*, Z=8.872*, Y=0.000*
  7: 0x0335 [0x1F] MOVE_ENTITY: Update entity position (mode=1)
  8: 0x0337 [0x1C] WAIT(30* ticks)
  9: 0x033A [0x39] SET_ENTITY_DIRECTION(direction=2.8°*)
 10: 0x033D [0x1C] WAIT(360* ticks)
 11: 0x0340 [0x01] GOTO 0x0317
```

#### Data or dead code:

```
# Dead code (unreachable instructions):
     0x0343 [0x00] END_REQSTACK()
```

### Event 65535.11

#### Metadata

| Field        | Value     |
|--------------|-----------|
| Entrypoint   | 0x0344    |
| Data Size    | 139 bytes |
| Instructions | 22        |

```
      00 01 02 03 04 05 06 07  08 09 0A 0B 0C 0D 0E 0F
      -- -- -- -- -- -- -- --  -- -- -- -- -- -- -- --
0340:             5B 16 80 06  60 0F 01 06 60 0F 01 68      [...`...`..h
0350: 61 69 30 1C 17 80 4A 04  60 0F 01 06 60 0F 01 1C  ai0...J.`...`...
0360: 18 80 79 00 05 60 0F 01  06 60 0F 01 1C 19 80 4B  ..y..`...`.....K
0370: 06 60 0F 01 1A 80 6F 76  06 60 0F 01 5B 16 80 06  .`....ov.`..[...
0380: 60 0F 01 06 60 0F 01 61  77 77 30 1C 17 80 5B 1B  `...`..aww0...[.
0390: 80 04 60 0F 01 04 60 0F  01 74 68 6B 31 1C 1C 80  ..`...`..thk1...
03A0: 5B 0B 80 05 60 0F 01 05  60 0F 01 74 6C 6B 30 1C  [...`...`..tlk0.
03B0: 0B 80 27 10 04 60 0F 01  29 27 10 05 60 0F 01 28  ..'..`..)'..`..(
03C0: 32 1D 80 1F 00 38 80 39  80 02 80 1F 01 6F 00     2....8.9.....o. 
```

#### Opcodes

```
  0: 0x0344 [0x5B] LOAD_EXT_SCHEDULER: Load scheduler "hai0" with entities [Jaha Amariyo (ID: 17784838/0x010F6006), Jaha Amariyo (ID: 17784838/0x010F6006)], work=81*
  1: 0x0353 [0x1C] WAIT(45* ticks)
  2: 0x0356 [0x4A] Karl (ID: 17784836/0x010F6004) looks at Jaha Amariyo (ID: 17784838/0x010F6006)
  3: 0x035F [0x1C] WAIT(5* ticks)
  4: 0x0362 [0x79] Buntz (ID: 17784837/0x010F6005) looks at Jaha Amariyo (ID: 17784838/0x010F6006) (Basic look)
  5: 0x036C [0x1C] WAIT(30* ticks)
  6: 0x036F [0x4B] UPDATE_ENTITY_YAW(entity=Jaha Amariyo (ID: 17784838/0x010F6006), yaw=12.2°*)
  7: 0x0376 [0x6F] WAIT_FRAME_DELAY: Yield until WaitTime reaches zero
  8: 0x0377 [0x76] CHECK_ENTITY_RENDER_FLAGS: Wait until Jaha Amariyo (ID: 17784838/0x010F6006) Render.Flags0 and Render.Flags3 conditions are met
  9: 0x037C [0x5B] LOAD_EXT_SCHEDULER: Load scheduler "aww0" with entities [Jaha Amariyo (ID: 17784838/0x010F6006), Jaha Amariyo (ID: 17784838/0x010F6006)], work=81*
 10: 0x038B [0x1C] WAIT(45* ticks)
 11: 0x038E [0x5B] LOAD_EXT_SCHEDULER: Load scheduler "thk1" with entities [Karl (ID: 17784836/0x010F6004), Karl (ID: 17784836/0x010F6004)], work=75*
 12: 0x039D [0x1C] WAIT(15* ticks)
 13: 0x03A0 [0x5B] LOAD_EXT_SCHEDULER: Load scheduler "tlk0" with entities [Buntz (ID: 17784837/0x010F6005), Buntz (ID: 17784837/0x010F6005)], work=90*
 14: 0x03AF [0x1C] WAIT(90* ticks)
 15: 0x03B2 [0x27] REQ_SET(priority=0x10, entity_id=Karl (ID: 17784836/0x010F6004), tag_num=0x29)
 16: 0x03B9 [0x27] REQ_SET(priority=0x10, entity_id=Buntz (ID: 17784837/0x010F6005), tag_num=0x28)
 17: 0x03C0 [0x32] ExtData[1]->MainSpeed = 37* * 0.1
 18: 0x03C3 [0x1F] MOVE_ENTITY: EventEntity moves to X=-52.555*, Z=1.950*, Y=0.000*
 19: 0x03CB [0x1F] MOVE_ENTITY: Update entity position (mode=1)
 20: 0x03CD [0x6F] WAIT_FRAME_DELAY: Yield until WaitTime reaches zero
 21: 0x03CE [0x00] END_REQSTACK()
```

### Event 65535.12

#### Metadata

| Field        | Value    |
|--------------|----------|
| Entrypoint   | 0x03CF   |
| Data Size    | 15 bytes |
| Instructions | 5        |

```
      00 01 02 03 04 05 06 07  08 09 0A 0B 0C 0D 0E 0F
      -- -- -- -- -- -- -- --  -- -- -- -- -- -- -- --
03C0:                                               32                 2
03D0: 20 80 1F 00 3A 80 3B 80  02 80 1F 01 6F 00         ...:.;.....o.  
```

#### Opcodes

```
  0: 0x03CF [0x32] ExtData[1]->MainSpeed = 39* * 0.1
  1: 0x03D2 [0x1F] MOVE_ENTITY: EventEntity moves to X=-49.108*, Z=2.357*, Y=0.000*
  2: 0x03DA [0x1F] MOVE_ENTITY: Update entity position (mode=1)
  3: 0x03DC [0x6F] WAIT_FRAME_DELAY: Yield until WaitTime reaches zero
  4: 0x03DD [0x00] END_REQSTACK()
```

### Event 65535.13

#### Metadata

| Field        | Value    |
|--------------|----------|
| Entrypoint   | 0x03DE   |
| Data Size    | 15 bytes |
| Instructions | 5        |

```
      00 01 02 03 04 05 06 07  08 09 0A 0B 0C 0D 0E 0F
      -- -- -- -- -- -- -- --  -- -- -- -- -- -- -- --
03D0:                                            32 23                2#
03E0: 80 1F 00 3C 80 3D 80 02  80 1F 01 6F 00           ...<.=.....o.   
```

#### Opcodes

```
  0: 0x03DE [0x32] ExtData[1]->MainSpeed = 41* * 0.1
  1: 0x03E1 [0x1F] MOVE_ENTITY: EventEntity moves to X=-51.734*, Z=2.879*, Y=0.000*
  2: 0x03E9 [0x1F] MOVE_ENTITY: Update entity position (mode=1)
  3: 0x03EB [0x6F] WAIT_FRAME_DELAY: Yield until WaitTime reaches zero
  4: 0x03EC [0x00] END_REQSTACK()
```

### Event 65535.14

#### Metadata

| Field        | Value    |
|--------------|----------|
| Entrypoint   | 0x03ED   |
| Data Size    | 15 bytes |
| Instructions | 5        |

```
      00 01 02 03 04 05 06 07  08 09 0A 0B 0C 0D 0E 0F
      -- -- -- -- -- -- -- --  -- -- -- -- -- -- -- --
03E0:                                         32 2B 80               2+.
03F0: 1F 00 3E 80 3F 80 02 80  1F 01 6F 00              ..>.?.....o.    
```

#### Opcodes

```
  0: 0x03ED [0x32] ExtData[1]->MainSpeed = 12* * 0.1
  1: 0x03F0 [0x1F] MOVE_ENTITY: EventEntity moves to X=-50.670*, Z=2.474*, Y=0.000*
  2: 0x03F8 [0x1F] MOVE_ENTITY: Update entity position (mode=1)
  3: 0x03FA [0x6F] WAIT_FRAME_DELAY: Yield until WaitTime reaches zero
  4: 0x03FB [0x00] END_REQSTACK()
```

### Event 65535.15

#### Metadata

| Field        | Value    |
|--------------|----------|
| Entrypoint   | 0x03FC   |
| Data Size    | 80 bytes |
| Instructions | 13       |

```
      00 01 02 03 04 05 06 07  08 09 0A 0B 0C 0D 0E 0F
      -- -- -- -- -- -- -- --  -- -- -- -- -- -- -- --
03F0:                                      32 12 80 1F              2...
0400: 00 40 80 41 80 02 80 1F  01 79 00 45 60 0F 01 42  .@.A.....y.E`..B
0410: 60 0F 01 66 19 80 42 60  0F 01 42 60 0F 01 74 68  `..f..B`..B`..th
0420: 6B 32 32 42 80 4A 42 60  0F 01 45 60 0F 01 1F 00  k22B.JB`..E`....
0430: 43 80 44 80 02 80 1F 01  6F 1C 19 80 66 02 80 45  C.D.....o...f..E
0440: 60 0F 01 45 60 0F 01 74  6C 6B 31 00              `..E`..tlk1.    
```

#### Opcodes

```
  0: 0x03FC [0x32] ExtData[1]->MainSpeed = 11* * 0.1
  1: 0x03FF [0x1F] MOVE_ENTITY: EventEntity moves to X=-92.526*, Z=-2.418*, Y=0.000*
  2: 0x0407 [0x1F] MOVE_ENTITY: Update entity position (mode=1)
  3: 0x0409 [0x79] Falak (ID: 17784901/0x010F6045) looks at Naurmaire (ID: 17784898/0x010F6042) (Basic look)
  4: 0x0413 [0x66] LOAD_EXT_SCHEDULER_MAIN: Load scheduler "thk2" with entities [Naurmaire (ID: 17784898/0x010F6042), Naurmaire (ID: 17784898/0x010F6042)], work=30*
  5: 0x0422 [0x32] ExtData[1]->MainSpeed = 38* * 0.1
  6: 0x0425 [0x4A] Naurmaire (ID: 17784898/0x010F6042) looks at Falak (ID: 17784901/0x010F6045)
  7: 0x042E [0x1F] MOVE_ENTITY: EventEntity moves to X=-98.837*, Z=-2.640*, Y=0.000*
  8: 0x0436 [0x1F] MOVE_ENTITY: Update entity position (mode=1)
  9: 0x0438 [0x6F] WAIT_FRAME_DELAY: Yield until WaitTime reaches zero
 10: 0x0439 [0x1C] WAIT(30* ticks)
 11: 0x043C [0x66] LOAD_EXT_SCHEDULER_MAIN: Load scheduler "tlk1" with entities [Falak (ID: 17784901/0x010F6045), Falak (ID: 17784901/0x010F6045)], work=0*
 12: 0x044B [0x00] END_REQSTACK()
```

### Event 65535.16

#### Metadata

| Field        | Value    |
|--------------|----------|
| Entrypoint   | 0x044C   |
| Data Size    | 15 bytes |
| Instructions | 5        |

```
      00 01 02 03 04 05 06 07  08 09 0A 0B 0C 0D 0E 0F
      -- -- -- -- -- -- -- --  -- -- -- -- -- -- -- --
0440:                                      32 2B 80 1F              2+..
0450: 00 45 80 46 80 02 80 1F  01 6F 00                 .E.F.....o.     
```

#### Opcodes

```
  0: 0x044C [0x32] ExtData[1]->MainSpeed = 12* * 0.1
  1: 0x044F [0x1F] MOVE_ENTITY: EventEntity moves to X=4.999*, Z=-0.799*, Y=0.000*
  2: 0x0457 [0x1F] MOVE_ENTITY: Update entity position (mode=1)
  3: 0x0459 [0x6F] WAIT_FRAME_DELAY: Yield until WaitTime reaches zero
  4: 0x045A [0x00] END_REQSTACK()
```

### Event 65535.17

#### Metadata

| Field        | Value    |
|--------------|----------|
| Entrypoint   | 0x045B   |
| Data Size    | 15 bytes |
| Instructions | 5        |

```
      00 01 02 03 04 05 06 07  08 09 0A 0B 0C 0D 0E 0F
      -- -- -- -- -- -- -- --  -- -- -- -- -- -- -- --
0450:                                   32 0C 80 1F 00             2....
0460: 47 80 48 80 02 80 1F 01  6F 00                    G.H.....o.      
```

#### Opcodes

```
  0: 0x045B [0x32] ExtData[1]->MainSpeed = 13* * 0.1
  1: 0x045E [0x1F] MOVE_ENTITY: EventEntity moves to X=-76.908*, Z=-2.465*, Y=0.000*
  2: 0x0466 [0x1F] MOVE_ENTITY: Update entity position (mode=1)
  3: 0x0468 [0x6F] WAIT_FRAME_DELAY: Yield until WaitTime reaches zero
  4: 0x0469 [0x00] END_REQSTACK()
```

### Event 65535.18

#### Metadata

| Field        | Value    |
|--------------|----------|
| Entrypoint   | 0x046A   |
| Data Size    | 15 bytes |
| Instructions | 5        |

```
      00 01 02 03 04 05 06 07  08 09 0A 0B 0C 0D 0E 0F
      -- -- -- -- -- -- -- --  -- -- -- -- -- -- -- --
0460:                                32 12 80 1F 00 49            2....I
0470: 80 4A 80 02 80 1F 01 6F  00                       .J.....o.       
```

#### Opcodes

```
  0: 0x046A [0x32] ExtData[1]->MainSpeed = 11* * 0.1
  1: 0x046D [0x1F] MOVE_ENTITY: EventEntity moves to X=-50.956*, Z=-2.015*, Y=0.000*
  2: 0x0475 [0x1F] MOVE_ENTITY: Update entity position (mode=1)
  3: 0x0477 [0x6F] WAIT_FRAME_DELAY: Yield until WaitTime reaches zero
  4: 0x0478 [0x00] END_REQSTACK()
```

### Event 65535.19

#### Metadata

| Field        | Value    |
|--------------|----------|
| Entrypoint   | 0x0479   |
| Data Size    | 15 bytes |
| Instructions | 5        |

```
      00 01 02 03 04 05 06 07  08 09 0A 0B 0C 0D 0E 0F
      -- -- -- -- -- -- -- --  -- -- -- -- -- -- -- --
0470:                             32 12 80 1F 00 4B 80           2....K.
0480: 4C 80 02 80 1F 01 6F 00                           L.....o.        
```

#### Opcodes

```
  0: 0x0479 [0x32] ExtData[1]->MainSpeed = 11* * 0.1
  1: 0x047C [0x1F] MOVE_ENTITY: EventEntity moves to X=-106.865*, Z=2.201*, Y=0.000*
  2: 0x0484 [0x1F] MOVE_ENTITY: Update entity position (mode=1)
  3: 0x0486 [0x6F] WAIT_FRAME_DELAY: Yield until WaitTime reaches zero
  4: 0x0487 [0x00] END_REQSTACK()
```

### Event 65535.20

#### Metadata

| Field        | Value    |
|--------------|----------|
| Entrypoint   | 0x0488   |
| Data Size    | 15 bytes |
| Instructions | 5        |

```
      00 01 02 03 04 05 06 07  08 09 0A 0B 0C 0D 0E 0F
      -- -- -- -- -- -- -- --  -- -- -- -- -- -- -- --
0480:                          32 0C 80 1F 00 4D 80 4E          2....M.N
0490: 80 02 80 1F 01 6F 00                              .....o.         
```

#### Opcodes

```
  0: 0x0488 [0x32] ExtData[1]->MainSpeed = 13* * 0.1
  1: 0x048B [0x1F] MOVE_ENTITY: EventEntity moves to X=-36.731*, Z=-2.282*, Y=0.000*
  2: 0x0493 [0x1F] MOVE_ENTITY: Update entity position (mode=1)
  3: 0x0495 [0x6F] WAIT_FRAME_DELAY: Yield until WaitTime reaches zero
  4: 0x0496 [0x00] END_REQSTACK()
```

### Event 65535.21

#### Metadata

| Field        | Value    |
|--------------|----------|
| Entrypoint   | 0x0497   |
| Data Size    | 53 bytes |
| Instructions | 10       |

```
      00 01 02 03 04 05 06 07  08 09 0A 0B 0C 0D 0E 0F
      -- -- -- -- -- -- -- --  -- -- -- -- -- -- -- --
0490:                      32  0C 80 1F 00 4F 80 50 80         2....O.P.
04A0: 02 80 1F 01 1F 00 51 80  52 80 02 80 1F 01 6F 1C  ......Q.R.....o.
04B0: 1C 80 79 00 49 60 0F 01  86 60 0F 01 5B 53 80 86  ..y.I`...`..[S..
04C0: 60 0F 01 86 60 0F 01 74  6C 6B 30 00              `...`..tlk0.    
```

#### Opcodes

```
  0: 0x0497 [0x32] ExtData[1]->MainSpeed = 13* * 0.1
  1: 0x049A [0x1F] MOVE_ENTITY: EventEntity moves to X=-58.047*, Z=9.433*, Y=0.000*
  2: 0x04A2 [0x1F] MOVE_ENTITY: Update entity position (mode=1)
  3: 0x04A4 [0x1F] MOVE_ENTITY: EventEntity moves to X=-56.466*, Z=10.018*, Y=0.000*
  4: 0x04AC [0x1F] MOVE_ENTITY: Update entity position (mode=1)
  5: 0x04AE [0x6F] WAIT_FRAME_DELAY: Yield until WaitTime reaches zero
  6: 0x04AF [0x1C] WAIT(15* ticks)
  7: 0x04B2 [0x79] Shami (ID: 17784905/0x010F6049) looks at Squintrox Dryeyes (ID: 17784966/0x010F6086) (Basic look)
  8: 0x04BC [0x5B] LOAD_EXT_SCHEDULER: Load scheduler "tlk0" with entities [Squintrox Dryeyes (ID: 17784966/0x010F6086), Squintrox Dryeyes (ID: 17784966/0x010F6086)], work=215*
  9: 0x04CB [0x00] END_REQSTACK()
```

### Event 65535.22

#### Metadata

| Field        | Value    |
|--------------|----------|
| Entrypoint   | 0x04CC   |
| Data Size    | 58 bytes |
| Instructions | 11       |

```
      00 01 02 03 04 05 06 07  08 09 0A 0B 0C 0D 0E 0F
      -- -- -- -- -- -- -- --  -- -- -- -- -- -- -- --
04C0:                                      32 0C 80 79              2..y
04D0: 00 3E 60 0F 01 28 60 0F  01 1F 00 54 80 55 80 02  .>`..(`....T.U..
04E0: 80 1F 01 6F 1C 1C 80 4A  3E 60 0F 01 28 60 0F 01  ...o...J>`..(`..
04F0: 6F 76 3E 60 0F 01 66 56  80 3E 60 0F 01 3E 60 0F  ov>`..fV.>`..>`.
0500: 01 74 6C 6B 30 00                                 .tlk0.          
```

#### Opcodes

```
  0: 0x04CC [0x32] ExtData[1]->MainSpeed = 13* * 0.1
  1: 0x04CF [0x79] Leffquen (ID: 17784894/0x010F603E) looks at Ramicharaux (ID: 17784872/0x010F6028) (Basic look)
  2: 0x04D9 [0x1F] MOVE_ENTITY: EventEntity moves to X=-52.055*, Z=2.177*, Y=0.000*
  3: 0x04E1 [0x1F] MOVE_ENTITY: Update entity position (mode=1)
  4: 0x04E3 [0x6F] WAIT_FRAME_DELAY: Yield until WaitTime reaches zero
  5: 0x04E4 [0x1C] WAIT(15* ticks)
  6: 0x04E7 [0x4A] Leffquen (ID: 17784894/0x010F603E) looks at Ramicharaux (ID: 17784872/0x010F6028)
  7: 0x04F0 [0x6F] WAIT_FRAME_DELAY: Yield until WaitTime reaches zero
  8: 0x04F1 [0x76] CHECK_ENTITY_RENDER_FLAGS: Wait until Leffquen (ID: 17784894/0x010F603E) Render.Flags0 and Render.Flags3 conditions are met
  9: 0x04F6 [0x66] LOAD_EXT_SCHEDULER_MAIN: Load scheduler "tlk0" with entities [Leffquen (ID: 17784894/0x010F603E), Leffquen (ID: 17784894/0x010F603E)], work=19*
 10: 0x0505 [0x00] END_REQSTACK()
```

### Event 431

#### Metadata

| Field        | Value   |
|--------------|---------|
| Entrypoint   | 0x0506  |
| Data Size    | 1 bytes |
| Instructions | 1       |

```
      00 01 02 03 04 05 06 07  08 09 0A 0B 0C 0D 0E 0F
      -- -- -- -- -- -- -- --  -- -- -- -- -- -- -- --
0500:                   00                                    .         
```

#### Opcodes

```
  0: 0x0506 [0x00] END_REQSTACK()
```

### Event 434

#### Metadata

| Field        | Value   |
|--------------|---------|
| Entrypoint   | 0x0507  |
| Data Size    | 7 bytes |
| Instructions | 2       |

```
      00 01 02 03 04 05 06 07  08 09 0A 0B 0C 0D 0E 0F
      -- -- -- -- -- -- -- --  -- -- -- -- -- -- -- --
0500:                      92  01 F8 FF FF 7F 00               .......  
```

#### Opcodes

```
  0: 0x0507 [0x92] EventEntity->Render.Flags3 ^= 0x01
  1: 0x050D [0x00] END_REQSTACK()
```

### Event 65535.23

#### Metadata

| Field        | Value    |
|--------------|----------|
| Entrypoint   | 0x050E   |
| Data Size    | 22 bytes |
| Instructions | 8        |

```
      00 01 02 03 04 05 06 07  08 09 0A 0B 0C 0D 0E 0F
      -- -- -- -- -- -- -- --  -- -- -- -- -- -- -- --
0500:                                            1E AB                ..
0510: 60 0F 01 6F 70 1C 57 80  1C 07 80 7B F8 FF FF 7F  `..op.W....{....
0520: 39 58 80 00                                       9X..            
```

#### Opcodes

```
  0: 0x050E [0x1E] EventEntity looks at Mewk Chorosap (ID: 17785003/0x010F60AB) and starts talking
  1: 0x0513 [0x6F] WAIT_FRAME_DELAY: Yield until WaitTime reaches zero
  2: 0x0514 [0x70] WAIT_ENTITY_RENDER_FLAG: Wait while EventEntity->Render.Flags3 bit 2 is set (cancel turn if not)
  3: 0x0515 [0x1C] WAIT(240* ticks)
  4: 0x0518 [0x1C] WAIT(60* ticks)
  5: 0x051B [0x7B] EventEntity stops talking
  6: 0x0520 [0x39] SET_ENTITY_DIRECTION(direction=5.2°*)
  7: 0x0523 [0x00] END_REQSTACK()
```

### Event 443

#### Metadata

| Field        | Value   |
|--------------|---------|
| Entrypoint   | 0x0524  |
| Data Size    | 1 bytes |
| Instructions | 1       |

```
      00 01 02 03 04 05 06 07  08 09 0A 0B 0C 0D 0E 0F
      -- -- -- -- -- -- -- --  -- -- -- -- -- -- -- --
0520:             00                                        .           
```

#### Opcodes

```
  0: 0x0524 [0x00] END_REQSTACK()
```
