# 17784988 - Oboro

## Common Data

| Field            | Value                |
|------------------|----------------------|
| Zone             | Port Jeuno (ID: 246) |
| Block Size       | 12084 bytes          |
| Total Events     | 40                   |
| References Count | 709                  |

## List of Events

| Event ID              | Entrypoint   |   Size |   Instructions |
|-----------------------|--------------|--------|----------------|
| [65535](#event-65535) | 0x0000       |      1 |              1 |
| [365](#event-365)     | 0x0001       |     37 |             10 |
| [367](#event-367)     | 0x0026       |    203 |             66 |
| [368](#event-368)     | 0x00F1       |     23 |              9 |
| [369](#event-369)     | 0x0108       |     72 |             24 |
| [370](#event-370)     | 0x0150       |     19 |              7 |
| [371](#event-371)     | 0x0163       |     72 |             24 |
| [372](#event-372)     | 0x01AB       |     76 |             26 |
| [373](#event-373)     | 0x01F7       |     72 |             24 |
| [374](#event-374)     | 0x023F       |     62 |             18 |
| [375](#event-375)     | 0x027D       |     66 |             20 |
| [376](#event-376)     | 0x02BF       |     62 |             18 |
| [377](#event-377)     | 0x02FD       |     23 |              9 |
| [378](#event-378)     | 0x0314       |     25 |             11 |
| [379](#event-379)     | 0x032D       |     25 |             11 |
| [380](#event-380)     | 0x0346       |     25 |             11 |
| [381](#event-381)     | 0x035F       |     41 |             11 |
| [382](#event-382)     | 0x0388       |     41 |             11 |
| [383](#event-383)     | 0x03B1       |     41 |             11 |
| [397](#event-397)     | 0x03DA       |    400 |            106 |
| [398](#event-398)     | 0x056A       |    329 |             80 |
| [396](#event-396)     | 0x06B3       |   2874 |            652 |
| [395](#event-395)     | 0x11ED       |     21 |              9 |
| [394](#event-394)     | 0x1202       |     27 |             11 |
| [403](#event-403)     | 0x121D       |     32 |             14 |
| [404](#event-404)     | 0x123D       |    184 |             49 |
| [405](#event-405)     | 0x12F5       |     41 |             14 |
| [406](#event-406)     | 0x131E       |     16 |              8 |
| [407](#event-407)     | 0x132E       |    115 |             41 |
| [408](#event-408)     | 0x13A1       |    267 |             62 |
| [409](#event-409)     | 0x14AC       |     31 |             13 |
| [410](#event-410)     | 0x14CB       |     56 |             16 |
| [411](#event-411)     | 0x1503       |     36 |             10 |
| [412](#event-412)     | 0x1527       |     40 |             12 |
| [413](#event-413)     | 0x154F       |     36 |             10 |
| [438](#event-438)     | 0x1573       |    398 |            115 |
| [439](#event-439)     | 0x1701       |     96 |             36 |
| [440](#event-440)     | 0x1761       |    521 |            121 |
| [441](#event-441)     | 0x196A       |     36 |             10 |
| [442](#event-442)     | 0x198E       |   2530 |            475 |

## DAT References (imed_data)

|   Index | Hex Value   |   Dec Value |
|---------|-------------|-------------|
|       0 | 0x0001      |           1 |
|       1 | 0x0020      |          32 |
|       2 | 0x2275      |        8821 |
|       3 | 0x0000      |           0 |
|       4 | 0x2276      |        8822 |
|       5 | 0x0015      |          21 |
|       6 | 0x2277      |        8823 |
|       7 | 0x2278      |        8824 |
|       8 | 0x22C2      |        8898 |
|       9 | 0x2279      |        8825 |
|      10 | 0x227A      |        8826 |
|      11 | 0x227B      |        8827 |
|      12 | 0x227C      |        8828 |
|      13 | 0x227D      |        8829 |
|      14 | 0x227E      |        8830 |
|      15 | 0x227F      |        8831 |
|      16 | 0x2280      |        8832 |
|      17 | 0x2281      |        8833 |
|      18 | 0x22C3      |        8899 |
|      19 | 0x2282      |        8834 |
|      20 | 0x2283      |        8835 |
|      21 | 0x2284      |        8836 |
|      22 | 0x2285      |        8837 |
|      23 | 0x2286      |        8838 |
|      24 | 0x2288      |        8840 |
|      25 | 0x2289      |        8841 |
|      26 | 0x228A      |        8842 |
|      27 | 0x0002      |           2 |
|      28 | 0x2287      |        8839 |
|      29 | 0x22A5      |        8869 |
|      30 | 0x22A6      |        8870 |
|      31 | 0x000C      |          12 |
|      32 | 0x228C      |        8844 |
|      33 | 0x228B      |        8843 |
|      34 | 0x228D      |        8845 |
|      35 | 0x228E      |        8846 |
|      36 | 0x228F      |        8847 |
|      37 | 0x22A7      |        8871 |
|      38 | 0x0003      |           3 |
|      39 | 0x22AA      |        8874 |
|      40 | 0x2290      |        8848 |
|      41 | 0x2291      |        8849 |
|      42 | 0x2292      |        8850 |
|      43 | 0x2293      |        8851 |
|      44 | 0x0004      |           4 |
|      45 | 0x2294      |        8852 |
|      46 | 0x2295      |        8853 |
|      47 | 0x2296      |        8854 |
|      48 | 0x0005      |           5 |
|      49 | 0x22A8      |        8872 |
|      50 | 0x22A9      |        8873 |
|      51 | 0x2297      |        8855 |
|      52 | 0x0009      |           9 |
|      53 | 0x229B      |        8859 |
|      54 | 0x229F      |        8863 |
|      55 | 0x22A3      |        8867 |
|      56 | 0x22A4      |        8868 |
|      57 | 0x2298      |        8856 |
|      58 | 0x2299      |        8857 |
|      59 | 0x229C      |        8860 |
|      60 | 0x229D      |        8861 |
|      61 | 0x22A0      |        8864 |
|      62 | 0x22A1      |        8865 |
|      63 | 0x229A      |        8858 |
|      64 | 0x0006      |           6 |
|      65 | 0x229E      |        8862 |
|      66 | 0x0007      |           7 |
|      67 | 0x22A2      |        8866 |
|      68 | 0x0008      |           8 |
|      69 | 0x22AB      |        8875 |
|      70 | 0x22AC      |        8876 |
|      71 | 0x22AD      |        8877 |
|      72 | 0x22AE      |        8878 |
|      73 | 0x22AF      |        8879 |
|      74 | 0x22B0      |        8880 |
|      75 | 0x22B1      |        8881 |
|      76 | 0x22B2      |        8882 |
|      77 | 0x22B3      |        8883 |
|      78 | 0x22B4      |        8884 |
|      79 | 0x22B5      |        8885 |
|      80 | 0x22B6      |        8886 |
|      81 | 0x22B7      |        8887 |
|      82 | 0x517C      |       20860 |
|      83 | 0x5036      |       20534 |
|      84 | 0x5276      |       21110 |
|      85 | 0x52B5      |       21173 |
|      86 | 0x50F0      |       20720 |
|      87 | 0x508A      |       20618 |
|      88 | 0x6FE8      |       28648 |
|      89 | 0x51A8      |       20904 |
|      90 | 0x514B      |       20811 |
|      91 | 0x539F      |       21407 |
|      92 | 0x531D      |       21277 |
|      93 | 0x522F      |       21039 |
|      94 | 0x5202      |       20994 |
|      95 | 0x51D4      |       20948 |
|      96 | 0x52B6      |       21174 |
|      97 | 0x50F1      |       20721 |
|      98 | 0x531E      |       21278 |
|      99 | 0x5037      |       20535 |
|     100 | 0x508B      |       20619 |
|     101 | 0x52B7      |       21175 |
|     102 | 0x537C      |       21372 |
|     103 | 0x5119      |       20761 |
|     104 | 0x0016      |          22 |
|     105 | 0x0017      |          23 |
|     106 | 0x22BC      |        8892 |
|     107 | 0x0018      |          24 |
|     108 | 0x000A      |          10 |
|     109 | 0x22BD      |        8893 |
|     110 | 0x0FDB      |        4059 |
|     111 | 0x0FDC      |        4060 |
|     112 | 0x0FDD      |        4061 |
|     113 | 0x0096      |         150 |
|     114 | 0x22BE      |        8894 |
|     115 | 0x22BF      |        8895 |
|     116 | 0x22B8      |        8888 |
|     117 | 0x22B9      |        8889 |
|     118 | 0x231F      |        8991 |
|     119 | 0x2320      |        8992 |
|     120 | 0x2321      |        8993 |
|     121 | 0x000F      |          15 |
|     122 | 0x2322      |        8994 |
|     123 | 0x2323      |        8995 |
|     124 | 0x2324      |        8996 |
|     125 | 0x22ED      |        8941 |
|     126 | 0x22EE      |        8942 |
|     127 | 0x22BB      |        8891 |
|     128 | 0x0B4D      |        2893 |
|     129 | 0x22E3      |        8931 |
|     130 | 0x22E4      |        8932 |
|     131 | 0x22E5      |        8933 |
|     132 | 0x000B      |          11 |
|     133 | 0x2325      |        8997 |
|     134 | 0x0064      |         100 |
|     135 | 0x22F6      |        8950 |
|     136 | 0x22F7      |        8951 |
|     137 | 0x22F8      |        8952 |
|     138 | 0x2326      |        8998 |
|     139 | 0x00C8      |         200 |
|     140 | 0x2327      |        8999 |
|     141 | 0x0010      |          16 |
|     142 | 0x001F      |          31 |
|     143 | 0x230E      |        8974 |
|     144 | 0x230F      |        8975 |
|     145 | 0x22FE      |        8958 |
|     146 | 0x22FF      |        8959 |
|     147 | 0x2300      |        8960 |
|     148 | 0x2301      |        8961 |
|     149 | 0x2302      |        8962 |
|     150 | 0x2310      |        8976 |
|     151 | 0x2311      |        8977 |
|     152 | 0x0065      |         101 |
|     153 | 0x012C      |         300 |
|     154 | 0x0066      |         102 |
|     155 | 0x0258      |         600 |
|     156 | 0x0067      |         103 |
|     157 | 0x0190      |         400 |
|     158 | 0x0068      |         104 |
|     159 | 0x01F4      |         500 |
|     160 | 0x231A      |        8986 |
|     161 | 0x231B      |        8987 |
|     162 | 0x231C      |        8988 |
|     163 | 0x22C0      |        8896 |
|     164 | 0x22C1      |        8897 |
|     165 | 0x22C4      |        8900 |
|     166 | 0x22C5      |        8901 |
|     167 | 0x22C6      |        8902 |
|     168 | 0x22C7      |        8903 |
|     169 | 0x22C8      |        8904 |
|     170 | 0x22C9      |        8905 |
|     171 | 0x22CA      |        8906 |
|     172 | 0x22CB      |        8907 |
|     173 | 0x22CC      |        8908 |
|     174 | 0x22CD      |        8909 |
|     175 | 0x22CE      |        8910 |
|     176 | 0x2710      |       10000 |
|     177 | 0x22CF      |        8911 |
|     178 | 0x22D0      |        8912 |
|     179 | 0x22D2      |        8914 |
|     180 | 0x22D1      |        8913 |
|     181 | 0x22D3      |        8915 |
|     182 | 0x22D9      |        8921 |
|     183 | 0x22DA      |        8922 |
|     184 | 0x22DB      |        8923 |
|     185 | 0x22DC      |        8924 |
|     186 | 0x22DD      |        8925 |
|     187 | 0x22DE      |        8926 |
|     188 | 0x22DF      |        8927 |
|     189 | 0x22E0      |        8928 |
|     190 | 0x22E1      |        8929 |
|     191 | 0x22E2      |        8930 |
|     192 | 0x22D4      |        8916 |
|     193 | 0x22D5      |        8917 |
|     194 | 0x22D6      |        8918 |
|     195 | 0x22D7      |        8919 |
|     196 | 0x22D8      |        8920 |
|     197 | 0x22EB      |        8939 |
|     198 | 0x22EC      |        8940 |
|     199 | 0x22E6      |        8934 |
|     200 | 0x22E7      |        8935 |
|     201 | 0x22E8      |        8936 |
|     202 | 0x22E9      |        8937 |
|     203 | 0x22EA      |        8938 |
|     204 | 0x0C57      |        3159 |
|     205 | 0x0C59      |        3161 |
|     206 | 0x0C5B      |        3163 |
|     207 | 0x0C5D      |        3165 |
|     208 | 0x22EF      |        8943 |
|     209 | 0x22F0      |        8944 |
|     210 | 0x22F1      |        8945 |
|     211 | 0x22F2      |        8946 |
|     212 | 0x22F3      |        8947 |
|     213 | 0x22F4      |        8948 |
|     214 | 0x22F5      |        8949 |
|     215 | 0x22F9      |        8953 |
|     216 | 0x22FA      |        8954 |
|     217 | 0x22FB      |        8955 |
|     218 | 0x22FC      |        8956 |
|     219 | 0x22FD      |        8957 |
|     220 | 0x2303      |        8963 |
|     221 | 0x2304      |        8964 |
|     222 | 0x2305      |        8965 |
|     223 | 0x2306      |        8966 |
|     224 | 0x2307      |        8967 |
|     225 | 0x2308      |        8968 |
|     226 | 0x2309      |        8969 |
|     227 | 0x230A      |        8970 |
|     228 | 0x230B      |        8971 |
|     229 | 0x230C      |        8972 |
|     230 | 0x230D      |        8973 |
|     231 | 0x2312      |        8978 |
|     232 | 0x2313      |        8979 |
|     233 | 0x2314      |        8980 |
|     234 | 0x2315      |        8981 |
|     235 | 0x2316      |        8982 |
|     236 | 0x2317      |        8983 |
|     237 | 0x232A      |        9002 |
|     238 | 0x2318      |        8984 |
|     239 | 0x2329      |        9001 |
|     240 | 0x2319      |        8985 |
|     241 | 0x231D      |        8989 |
|     242 | 0x231E      |        8990 |
|     243 | 0x4D22      |       19746 |
|     244 | 0x4D23      |       19747 |
|     245 | 0x4D24      |       19748 |
|     246 | 0x4D25      |       19749 |
|     247 | 0x4D26      |       19750 |
|     248 | 0x4D27      |       19751 |
|     249 | 0x4D28      |       19752 |
|     250 | 0x4D29      |       19753 |
|     251 | 0x4D2A      |       19754 |
|     252 | 0x4D2B      |       19755 |
|     253 | 0x4D2C      |       19756 |
|     254 | 0x4D2D      |       19757 |
|     255 | 0x4D2E      |       19758 |
|     256 | 0x4D2F      |       19759 |
|     257 | 0x4D7F      |       19839 |
|     258 | 0x4D80      |       19840 |
|     259 | 0x4D81      |       19841 |
|     260 | 0x4D82      |       19842 |
|     261 | 0x4D83      |       19843 |
|     262 | 0x4D84      |       19844 |
|     263 | 0x4D85      |       19845 |
|     264 | 0x4D86      |       19846 |
|     265 | 0x4D87      |       19847 |
|     266 | 0x4D88      |       19848 |
|     267 | 0x4D89      |       19849 |
|     268 | 0x4D8A      |       19850 |
|     269 | 0x4D8B      |       19851 |
|     270 | 0x4D8C      |       19852 |
|     271 | 0x5000      |       20480 |
|     272 | 0x504B      |       20555 |
|     273 | 0x50A5      |       20645 |
|     274 | 0x5109      |       20745 |
|     275 | 0x5136      |       20790 |
|     276 | 0x5163      |       20835 |
|     277 | 0x51BD      |       20925 |
|     278 | 0x5190      |       20880 |
|     279 | 0x51EA      |       20970 |
|     280 | 0x5217      |       21015 |
|     281 | 0x5244      |       21060 |
|     282 | 0x528F      |       21135 |
|     283 | 0x530C      |       21260 |
|     284 | 0x52DA      |       21210 |
|     285 | 0x5001      |       20481 |
|     286 | 0x504C      |       20556 |
|     287 | 0x50A6      |       20646 |
|     288 | 0x510A      |       20746 |
|     289 | 0x5137      |       20791 |
|     290 | 0x5164      |       20836 |
|     291 | 0x51BE      |       20926 |
|     292 | 0x5191      |       20881 |
|     293 | 0x51EB      |       20971 |
|     294 | 0x5218      |       21016 |
|     295 | 0x5245      |       21061 |
|     296 | 0x5290      |       21136 |
|     297 | 0x530D      |       21261 |
|     298 | 0x52DB      |       21211 |
|     299 | 0x4D6B      |       19819 |
|     300 | 0x4D6C      |       19820 |
|     301 | 0x4D6D      |       19821 |
|     302 | 0x4D6E      |       19822 |
|     303 | 0x4D6F      |       19823 |
|     304 | 0x4D70      |       19824 |
|     305 | 0x4D71      |       19825 |
|     306 | 0x4D72      |       19826 |
|     307 | 0x4D73      |       19827 |
|     308 | 0x4D74      |       19828 |
|     309 | 0x4D75      |       19829 |
|     310 | 0x4D76      |       19830 |
|     311 | 0x4D77      |       19831 |
|     312 | 0x4D78      |       19832 |
|     313 | 0x4D79      |       19833 |
|     314 | 0x4D7A      |       19834 |
|     315 | 0x4D7B      |       19835 |
|     316 | 0x4D7C      |       19836 |
|     317 | 0x4D7D      |       19837 |
|     318 | 0x4D7E      |       19838 |
|     319 | 0x4DEC      |       19948 |
|     320 | 0x4DED      |       19949 |
|     321 | 0x4DEE      |       19950 |
|     322 | 0x4DEF      |       19951 |
|     323 | 0x4DF0      |       19952 |
|     324 | 0x4DF1      |       19953 |
|     325 | 0x4DF2      |       19954 |
|     326 | 0x4DF3      |       19955 |
|     327 | 0x4DF4      |       19956 |
|     328 | 0x4DF5      |       19957 |
|     329 | 0x4DF6      |       19958 |
|     330 | 0x4DF7      |       19959 |
|     331 | 0x4DF8      |       19960 |
|     332 | 0x4DF9      |       19961 |
|     333 | 0x4DFA      |       19962 |
|     334 | 0x4DFB      |       19963 |
|     335 | 0x4DFC      |       19964 |
|     336 | 0x4DFD      |       19965 |
|     337 | 0x4DFE      |       19966 |
|     338 | 0x4DFF      |       19967 |
|     339 | 0x5165      |       20837 |
|     340 | 0x5002      |       20482 |
|     341 | 0x5246      |       21062 |
|     342 | 0x5293      |       21139 |
|     343 | 0x50A7      |       20647 |
|     344 | 0x504F      |       20559 |
|     345 | 0x50A9      |       20649 |
|     346 | 0x5192      |       20882 |
|     347 | 0x5138      |       20792 |
|     348 | 0x5051      |       20561 |
|     349 | 0x52FE      |       21246 |
|     350 | 0x5219      |       21017 |
|     351 | 0x51EC      |       20972 |
|     352 | 0x51BF      |       20927 |
|     353 | 0x5295      |       21141 |
|     354 | 0x50AB      |       20651 |
|     355 | 0x530E      |       21262 |
|     356 | 0x5004      |       20484 |
|     357 | 0x504D      |       20557 |
|     358 | 0x5291      |       21137 |
|     359 | 0x5166      |       20838 |
|     360 | 0x5003      |       20483 |
|     361 | 0x5247      |       21063 |
|     362 | 0x5294      |       21140 |
|     363 | 0x50A8      |       20648 |
|     364 | 0x5050      |       20560 |
|     365 | 0x50AA      |       20650 |
|     366 | 0x5193      |       20883 |
|     367 | 0x5139      |       20793 |
|     368 | 0x5052      |       20562 |
|     369 | 0x52FF      |       21247 |
|     370 | 0x521A      |       21018 |
|     371 | 0x51ED      |       20973 |
|     372 | 0x51C0      |       20928 |
|     373 | 0x5296      |       21142 |
|     374 | 0x50AC      |       20652 |
|     375 | 0x530F      |       21263 |
|     376 | 0x5005      |       20485 |
|     377 | 0x504E      |       20558 |
|     378 | 0x5292      |       21138 |
|     379 | 0x4D5D      |       19805 |
|     380 | 0x4D5E      |       19806 |
|     381 | 0x4D5F      |       19807 |
|     382 | 0x4D60      |       19808 |
|     383 | 0x4D61      |       19809 |
|     384 | 0x4D62      |       19810 |
|     385 | 0x4D63      |       19811 |
|     386 | 0x4D64      |       19812 |
|     387 | 0x4D65      |       19813 |
|     388 | 0x4D66      |       19814 |
|     389 | 0x4D67      |       19815 |
|     390 | 0x4D68      |       19816 |
|     391 | 0x4D69      |       19817 |
|     392 | 0x4D6A      |       19818 |
|     393 | 0x4D8D      |       19853 |
|     394 | 0x4D8E      |       19854 |
|     395 | 0x4D8F      |       19855 |
|     396 | 0x4D90      |       19856 |
|     397 | 0x4D91      |       19857 |
|     398 | 0x4D92      |       19858 |
|     399 | 0x4D93      |       19859 |
|     400 | 0x4D94      |       19860 |
|     401 | 0x4D95      |       19861 |
|     402 | 0x4D96      |       19862 |
|     403 | 0x4D97      |       19863 |
|     404 | 0x4D98      |       19864 |
|     405 | 0x4D99      |       19865 |
|     406 | 0x4D9A      |       19866 |
|     407 | 0x5006      |       20486 |
|     408 | 0x5053      |       20563 |
|     409 | 0x50AD      |       20653 |
|     410 | 0x510B      |       20747 |
|     411 | 0x513A      |       20794 |
|     412 | 0x5167      |       20839 |
|     413 | 0x5194      |       20884 |
|     414 | 0x51C1      |       20929 |
|     415 | 0x51EE      |       20974 |
|     416 | 0x521B      |       21019 |
|     417 | 0x5248      |       21064 |
|     418 | 0x5297      |       21143 |
|     419 | 0x52DC      |       21212 |
|     420 | 0x5310      |       21264 |
|     421 | 0x5007      |       20487 |
|     422 | 0x5054      |       20564 |
|     423 | 0x50AE      |       20654 |
|     424 | 0x510C      |       20748 |
|     425 | 0x513B      |       20795 |
|     426 | 0x5168      |       20840 |
|     427 | 0x5195      |       20885 |
|     428 | 0x51C2      |       20930 |
|     429 | 0x51EF      |       20975 |
|     430 | 0x521C      |       21020 |
|     431 | 0x5249      |       21065 |
|     432 | 0x5298      |       21144 |
|     433 | 0x52DD      |       21213 |
|     434 | 0x5311      |       21265 |
|     435 | 0x4732      |       18226 |
|     436 | 0x4024      |       16420 |
|     437 | 0x428D      |       17037 |
|     438 | 0x42CD      |       17101 |
|     439 | 0x4087      |       16519 |
|     440 | 0x4054      |       16468 |
|     441 | 0x3014      |       12308 |
|     442 | 0x4686      |       18054 |
|     443 | 0x410C      |       16652 |
|     444 | 0x43CD      |       17357 |
|     445 | 0x4363      |       17251 |
|     446 | 0x4258      |       16984 |
|     447 | 0x4572      |       17778 |
|     448 | 0x46C6      |       18118 |
|     449 | 0x42C4      |       17092 |
|     450 | 0x4525      |       17701 |
|     451 | 0x4346      |       17222 |
|     452 | 0x401D      |       16413 |
|     453 | 0x405C      |       16476 |
|     454 | 0x42CB      |       17099 |
|     455 | 0x02AE      |         686 |
|     456 | 0x40CF      |       16591 |
|     457 | 0x472F      |       18223 |
|     458 | 0x400C      |       16396 |
|     459 | 0x4296      |       17046 |
|     460 | 0x4497      |       17559 |
|     461 | 0x40A3      |       16547 |
|     462 | 0x4044      |       16452 |
|     463 | 0x3F21      |       16161 |
|     464 | 0x468A      |       18058 |
|     465 | 0x4113      |       16659 |
|     466 | 0x43D2      |       17362 |
|     467 | 0x4362      |       17250 |
|     468 | 0x47FF      |       18431 |
|     469 | 0x47ED      |       18413 |
|     470 | 0x46B9      |       18105 |
|     471 | 0x4495      |       17557 |
|     472 | 0x453F      |       17727 |
|     473 | 0x4939      |       18745 |
|     474 | 0x4667      |       18023 |
|     475 | 0x448B      |       17547 |
|     476 | 0x0937      |        2359 |
|     477 | 0x40D5      |       16597 |
|     478 | 0x2230      |        8752 |
|     479 | 0x2232      |        8754 |
|     480 | 0x524E      |       21070 |
|     481 | 0x5111      |       20753 |
|     482 | 0x501D      |       20509 |
|     483 | 0x5067      |       20583 |
|     484 | 0x50CD      |       20685 |
|     485 | 0x54B3      |       21683 |
|     486 | 0x54F6      |       21750 |
|     487 | 0x54FC      |       21756 |
|     488 | 0x5561      |       21857 |
|     489 | 0x5530      |       21808 |
|     490 | 0x5592      |       21906 |
|     491 | 0x55C2      |       21954 |
|     492 | 0x5255      |       21077 |
|     493 | 0x562C      |       22060 |
|     494 | 0x5313      |       21267 |
|     495 | 0x5663      |       22115 |
|     496 | 0x54FD      |       21757 |
|     497 | 0x501E      |       20510 |
|     498 | 0x5256      |       21078 |
|     499 | 0x562E      |       22062 |
|     500 | 0x50CE      |       20686 |
|     501 | 0x5069      |       20585 |
|     502 | 0x50CF      |       20687 |
|     503 | 0x5531      |       21809 |
|     504 | 0x54F7      |       21751 |
|     505 | 0x506A      |       20586 |
|     506 | 0x5312      |       21266 |
|     507 | 0x55C3      |       21955 |
|     508 | 0x5593      |       21907 |
|     509 | 0x5562      |       21858 |
|     510 | 0x562F      |       22063 |
|     511 | 0x50D0      |       20688 |
|     512 | 0x5314      |       21268 |
|     513 | 0x501F      |       20511 |
|     514 | 0x5068      |       20584 |
|     515 | 0x562D      |       22061 |
|     516 | 0x5020      |       20512 |
|     517 | 0x506B      |       20587 |
|     518 | 0x50D1      |       20689 |
|     519 | 0x54B4      |       21684 |
|     520 | 0x54F8      |       21752 |
|     521 | 0x54FE      |       21758 |
|     522 | 0x5532      |       21810 |
|     523 | 0x5563      |       21859 |
|     524 | 0x5594      |       21908 |
|     525 | 0x55C4      |       21956 |
|     526 | 0x5257      |       21079 |
|     527 | 0x5630      |       22064 |
|     528 | 0x5664      |       22116 |
|     529 | 0x5315      |       21269 |
|     530 | 0x5258      |       21080 |
|     531 | 0x54B5      |       21685 |
|     532 | 0x0230      |         560 |
|     533 | 0x0050      |          80 |
|     534 | 0x00C1      |         193 |
|     535 | 0x0100      |         256 |
|     536 | 0x0080      |         128 |
|     537 | 0x2000      |        8192 |
|     538 | 0x1000      |        4096 |
|     539 | 0x0800      |        2048 |
|     540 | 0x4008      |       16392 |
|     541 | 0x0400      |        1024 |
|     542 | 0x0C00      |        3072 |
|     543 | 0x20002     |      131074 |
|     544 | 0x40220     |      262688 |
|     545 | 0x8050      |       32848 |
|     546 | 0x10400     |       66560 |
|     547 | 0x00C0      |         192 |
|     548 | 0x0101      |         257 |
|     549 | 0x84008     |      540680 |
|     550 | 0x5023      |       20515 |
|     551 | 0x5072      |       20594 |
|     552 | 0x50D7      |       20695 |
|     553 | 0x54BE      |       21694 |
|     554 | 0x54F9      |       21753 |
|     555 | 0x516B      |       20843 |
|     556 | 0x519A      |       20890 |
|     557 | 0x51C7      |       20935 |
|     558 | 0x51F1      |       20977 |
|     559 | 0x5221      |       21025 |
|     560 | 0x525A      |       21082 |
|     561 | 0x529B      |       21147 |
|     562 | 0x53ED      |       21485 |
|     563 | 0x5665      |       22117 |
|     564 | 0x200000    |     2097152 |
|     565 | 0x100004    |     1048580 |
|     566 | 0x5411      |       21521 |
|     567 | 0x5414      |       21524 |
|     568 | 0x5445      |       21573 |
|     569 | 0x5448      |       21576 |
|     570 | 0x544B      |       21579 |
|     571 | 0x544E      |       21582 |
|     572 | 0x5479      |       21625 |
|     573 | 0x547C      |       21628 |
|     574 | 0x547F      |       21631 |
|     575 | 0x54A3      |       21667 |
|     576 | 0x54D3      |       21715 |
|     577 | 0x550C      |       21772 |
|     578 | 0x553F      |       21823 |
|     579 | 0x5574      |       21876 |
|     580 | 0x559B      |       21915 |
|     581 | 0x55D0      |       21968 |
|     582 | 0x5611      |       22033 |
|     583 | 0x5614      |       22036 |
|     584 | 0x564B      |       22091 |
|     585 | 0x564E      |       22094 |
|     586 | 0x5651      |       22097 |
|     587 | 0x5683      |       22147 |
|     588 | 0x5412      |       21522 |
|     589 | 0x5415      |       21525 |
|     590 | 0x5446      |       21574 |
|     591 | 0x5449      |       21577 |
|     592 | 0x544C      |       21580 |
|     593 | 0x544F      |       21583 |
|     594 | 0x547A      |       21626 |
|     595 | 0x547D      |       21629 |
|     596 | 0x5480      |       21632 |
|     597 | 0x54A4      |       21668 |
|     598 | 0x54D4      |       21716 |
|     599 | 0x550D      |       21773 |
|     600 | 0x5540      |       21824 |
|     601 | 0x5575      |       21877 |
|     602 | 0x559C      |       21916 |
|     603 | 0x55D1      |       21969 |
|     604 | 0x5612      |       22034 |
|     605 | 0x5615      |       22037 |
|     606 | 0x564C      |       22092 |
|     607 | 0x564F      |       22095 |
|     608 | 0x5652      |       22098 |
|     609 | 0x5684      |       22148 |
|     610 | 0x5413      |       21523 |
|     611 | 0x5416      |       21526 |
|     612 | 0x5447      |       21575 |
|     613 | 0x544A      |       21578 |
|     614 | 0x544D      |       21581 |
|     615 | 0x5450      |       21584 |
|     616 | 0x547B      |       21627 |
|     617 | 0x547E      |       21630 |
|     618 | 0x5481      |       21633 |
|     619 | 0x54A5      |       21669 |
|     620 | 0x54D5      |       21717 |
|     621 | 0x550E      |       21774 |
|     622 | 0x5541      |       21825 |
|     623 | 0x5576      |       21878 |
|     624 | 0x559D      |       21917 |
|     625 | 0x55D2      |       21970 |
|     626 | 0x5613      |       22035 |
|     627 | 0x5616      |       22038 |
|     628 | 0x564D      |       22093 |
|     629 | 0x5650      |       22096 |
|     630 | 0x5653      |       22099 |
|     631 | 0x5685      |       22149 |
|     632 | 0x6349      |       25417 |
|     633 | 0x634F      |       25423 |
|     634 | 0x6355      |       25429 |
|     635 | 0x635B      |       25435 |
|     636 | 0x6361      |       25441 |
|     637 | 0x6367      |       25447 |
|     638 | 0x636D      |       25453 |
|     639 | 0x6373      |       25459 |
|     640 | 0x6379      |       25465 |
|     641 | 0x637F      |       25471 |
|     642 | 0x6385      |       25477 |
|     643 | 0x638B      |       25483 |
|     644 | 0x6391      |       25489 |
|     645 | 0x6397      |       25495 |
|     646 | 0x639D      |       25501 |
|     647 | 0x63A3      |       25507 |
|     648 | 0x63A9      |       25513 |
|     649 | 0x63AF      |       25519 |
|     650 | 0x63B5      |       25525 |
|     651 | 0x63BB      |       25531 |
|     652 | 0x63C1      |       25537 |
|     653 | 0x63C7      |       25543 |
|     654 | 0x634A      |       25418 |
|     655 | 0x6350      |       25424 |
|     656 | 0x6356      |       25430 |
|     657 | 0x635C      |       25436 |
|     658 | 0x6362      |       25442 |
|     659 | 0x6368      |       25448 |
|     660 | 0x636E      |       25454 |
|     661 | 0x6374      |       25460 |
|     662 | 0x637A      |       25466 |
|     663 | 0x6380      |       25472 |
|     664 | 0x6386      |       25478 |
|     665 | 0x638C      |       25484 |
|     666 | 0x6392      |       25490 |
|     667 | 0x6398      |       25496 |
|     668 | 0x639E      |       25502 |
|     669 | 0x63A4      |       25508 |
|     670 | 0x63AA      |       25514 |
|     671 | 0x63B0      |       25520 |
|     672 | 0x63B6      |       25526 |
|     673 | 0x63BC      |       25532 |
|     674 | 0x63C2      |       25538 |
|     675 | 0x63C8      |       25544 |
|     676 | 0x634B      |       25419 |
|     677 | 0x6351      |       25425 |
|     678 | 0x6357      |       25431 |
|     679 | 0x635D      |       25437 |
|     680 | 0x6363      |       25443 |
|     681 | 0x6369      |       25449 |
|     682 | 0x636F      |       25455 |
|     683 | 0x6375      |       25461 |
|     684 | 0x637B      |       25467 |
|     685 | 0x6381      |       25473 |
|     686 | 0x6387      |       25479 |
|     687 | 0x638D      |       25485 |
|     688 | 0x6393      |       25491 |
|     689 | 0x6399      |       25497 |
|     690 | 0x639F      |       25503 |
|     691 | 0x63A5      |       25509 |
|     692 | 0x63AB      |       25515 |
|     693 | 0x63B1      |       25521 |
|     694 | 0x63B7      |       25527 |
|     695 | 0x63BD      |       25533 |
|     696 | 0x63C3      |       25539 |
|     697 | 0x63C9      |       25545 |
|     698 | 0x567C      |       22140 |
|     699 | 0x5671      |       22129 |
|     700 | 0x567B      |       22139 |
|     701 | 0x567D      |       22141 |
|     702 | 0x5672      |       22130 |
|     703 | 0x567E      |       22142 |
|     704 | 0x567F      |       22143 |
|     705 | 0x5673      |       22131 |
|     706 | 0x006E      |         110 |
|     707 | 0x006F      |         111 |
|     708 | 0x0070      |         112 |

## String References

- **8821**: Hm, I could have sworn that inscrutable aura was emanating from you, but I suppose I was mistaken. Feel free to exit my line of sight at any time, plebeian.
- **8822**: What curious ordnance you carry. My hairs are standing on end just from being in its proximity.
- **8823**: Oboro took your $0 without even asking!
- **8824**: Ahhh... Ohhh... What a positively breathtaking artifact. Now I have something else to absorb myself in other than the masterful teachings of Borghertz.
- **8825**: My apologies, [sir/madam]. Gazing upon the intricacies of well-crafted blades and staves is a truly mesmerizing experience, and I often lose myself between their individual grains and grooves. At any rate, social custom dictates that I return this to you.
- **8826**: The uncouth Hume begrudgingly hands over your $0.
- **8827**: Yes, it would certainly do you well to know my name. I go by Oboro, and as a blacksmith from the Far East, I contrive exquisite instruments of assault almost from thin air.
- **8828**: While I am undoubtedly the most accomplished smith in my homeland, I am not an arrogant Elvaan. I have heard the rumors of Borghertz's greatness and have come to broaden my horizons under his wing.
- **8829**: Know you of Borghertz, the legendary blacksmith revered throughout the Far East?
- **8830**: Do you know Borghertz? [In fact, I do...or did./Even if I did, I wouldn't tell you.]
- **8831**: What!? He has passed on and hammers away happily upon the big anvil in the sky!?
- **8832**: Of course someone of your inferior stature would not. That is all well and good, however, for we are not all destined for greatness.
- **8833**: Oh well, let us not dwell on extraneous and repugnant details. Now that I have seen the almighty armament you carry...
- **8834**: I would have you bequeath it to me.
- **8835**: If Borghertz is not available to perform this most ambitious of tasks, then I will gladly accept the challenge of eking out every last iota of might from your weapon.
- **8836**: I cannot tell a lie. I will stake my illustrious career and own life on this claim.
- **8837**: So, what say you?
- **8838**: What say you? [Fine, have my weapon./You're a jerk and I hate you.]
- **8839**: Hmph. Well, such is your loss. You will simply be unable to defend this city once the apocalypse descends upon it--which will happen sooner than you think.
- **8840**: Ah, it pleases me to know that you possess the intuition of a true combatant. No one would refuse the opportunity to increase the potency of the tool by which they make their living.
- **8841**: I would like nothing more than to start remolding this exquisite creation immediately, but I must first say that I cannot and will not work with anything less than the best. Consider the weapon you possess and bring me weapons that meet or exceed its power.
- **8842**: And let us suppose you actually procure what I ask of you. Will you even be able to grasp the degree to which your life will change, all thanks to my expertise? Heh heh heh, I can hardly wait.
- **8843**: Why the long face? Did you wet yourself at the thought of losing your closest companion? No worries, I shall be waiting in this very spot when your trousers dry and your resolve hardens.
- **8844**: Finally come to your senses and realize that leaving your weapon with me is the best option you have?
- **8845**: I was unaware that the world was still privy to superlative works of art such as this. So grandiose is its design that one must question whether or not it was fashioned by mortal hands.
- **8846**: Say nothing of the aura it exudes. I feel as if I am conversing with an old friend simply by gazing upon it. Yes, I will indeed deign to pour my soul into improving this instrument.
- **8847**: In order to do that, however, I require $1 $0 . Have fun getting intimately acquainted with them as well as the beasts from which you must procure them.
- **8848**: Well, now...if I did not so love hearing the sound of my own voice, I would be at a loss for words. To think that I would one day come across one of the Myriad Arms of Balrahn...
- **8849**: I knew it was my destiny to lay eyes upon one when I first glanced at that ledger of arcane valuables. It seems there was a purpose in coming to this backwoods province after all.
- **8850**: I cannot in good conscience turn down the chance to pour my heart and soul into this magnificent creation.
- **8851**: And to assist me in this divine mission, you will bring me $1 $0 . Now be off.
- **8852**: Egads, I thought these were merely legend... Perhaps I should give those floating furballs a tad more credit.
- **8853**: How do I improve upon perfection? Hmmm, this will prove to be quite the challenge, but overcoming it will surely prove my incomparable talents to the world.
- **8854**: Now shoo and fetch me $1 $0 posthaste if you wish to see my efforts succeed.
- **8855**: I told you already, $1 $0 . "Where can I find them?" Do I look like I have lived here the entirety of my existence? Find them yourself!
- **8856**: I would thank you for handing over your $0, but you have only done what is logical for our mutual benefit. More importantly, I can already feel the potential of this great weapon.
- **8857**: One day is but all I need to work my magic. Feel free to get your hopes up in the meantime, too.
- **8858**: Here is what I promised you, and nothing less. No need to comment upon the craftsmanship, for I already know it is flawless.
- **8859**: Prepare your body to shudder with excitement when you see the transformation your partner-in-arms has undergone. Now go about your business like a faithful servant and get me what I need.
- **8860**: Yes, this is it...this is what you have kept me waiting so long for. All is forgiven, for it is exactly as I pictured it.
- **8861**: I will need you to wait a day while I set to smithing. No need to turn red with anger. A day is but an instant when compared to your adventuring lifetime.
- **8862**: What a beautiful piece that Balrahn armament was...but it was not even half as beautiful as its current form. Take it in your hands and steel your bladder against your ensuing amazement.
- **8863**: I can do nothing until you procure me $1 $0 , so make haste to acquire them. In the meantime, I will visualize the shape on which my chef d'oeuvre shall take.
- **8864**: Ah, your $0. Very well, you are of no more use to me. Skedaddle and occupy yourself with some paltry distraction while the adults do the real work.
- **8865**: It will take approximately one day to perform my wonders upon it, so do not come pulling at my coattails asking, "Is it done yet?" until then.
- **8866**: Even I am impressed with the craftsmanship of this piece. I would be jealous of the moogles and their magic...except I know I can create even more stunning ordnance when given the chance. Here it is, in all its new splendid glory.
- **8867**: I had no idea adventurers possessed so much free time. No matter how many times you ask, it will be ready when it is ready...unless you would rather I hand you a half-finished piece of scrap.
- **8868**: Of course I could never bring myself to hand back a work in progress. You will wait your full day and you will like it, hear me?
- **8869**: I must admit that I thoroughly enjoyed working with the piece you had the sense to give me, and would not be averse to enhancing any others you may have acquired.
- **8870**: <Ahem>
- **8871**: What will you do? [Prepare the weapon!/Nothing.]
- **8872**: What is it you need from me?
- **8873**: What do you need from him? [To know what the deal is./Nothing.]
- **8874**: ...Hmph. Be that as it may, you will come crawling back for my services sooner or later.
- **8875**: Oho, was that a figment of my imagination, or did your aura just resonate with mine? Pardon me if it took a moment to realize that someone of such low station as you could possibly hope to pique my interest.
- **8876**: ...I am sorry if you have been offended by the truth, but you adventurers have given me little reason to reconsider my position. If you cannot handle the sparks that fly from my tongue, perhaps you should invest in a thicker skin before concerning yourself with weapons.
- **8877**: I grow weary of elucidating obvious information to a clodpoll such as you, but at least your skills with a weapon look to be sharper than your mind.
- **8878**: A lauded blacksmith like myself can decipher in an instant that your piece is of some merit..."some" being the operative word.
- **8879**: No need to get defensive. Yeesh, it is amazing how you were able to survive any battles with a head as hot as that.
- **8880**: What I was trying to say before I was so rudely interrupted is that even I at times require your assistance. While I may not be able to trust in your brains, I can put a modicum of faith in your brawn.
- **8881**: As for your reward, it shall be an armament more resilient than anything you have wielded previously. Do you not wish to hold in your hands greatness incarnate--fashioned by the best smithy in the land?
- **8882**: Do you want said equipment? [Do you even have to ask!?/Not if you make it.]
- **8883**: I had the utmost confidence that such talk would get you slobbering in anticipation. The best part is that you will not even have to use that pea-sized brain of yours.
- **8884**: Simply procure me a few materials that have yet to find their way to market and I will lend you my boundless prowess to create a tool of extraordinary puissance.
- **8885**: You need not even trouble yourself over sums, for they are all divvied up according to weapon.
- **8886**: As long as you can muster the determination to choose an item, I will tell you the type and number of materials you must amass for me to craft it.
- **8887**: Designate which you will from the list, which I shall show you henceforth, to begin the adventure.
- **8888**: Oh, there you are. As it so happens, I <cough> require your assistance <cough>. In return, I--in my infinite magnanimity--am willing to offer you some newly crafted ordnance.
- **8889**: Think of it...an armament the likes of which has never been seen before, fashioned by a smithy among smithies. How could you not covet so phenomenal a treasure?
- **8891**: The number of materials needed differs depending upon the weapon, a fact which you would do well to keep in mind...though I am to understand the borders of yours are quite small.
- **8892**: Which do you desire? [#./$1./$2./$3./$4./$5./$6./$7./$8./$9./$10./$11./$12./$13./$14./$15./$16./$17./$18./$19./$20./$21./About the weapons./Go back./None.]
- **8893**: $0? Very well, then. For that I require $1, $2, and $3.
- **8894**: Furthermore, I need $7 $0$4 , $0$5 , or $0$6 .
- **8895**: You would do well to remember that I am not some hack who labors in the Metalworks. I require exact numbers if I am to forge a decent piece.
- **8896**: I am happy to see that you can, at the very least, be a competent beast of burden. Feel free to go into hibernation for a day while I perform tasks that require true sentience.
- **8897**: I must say that I have certainly outdone myself this time. Enjoy this paragon of martial excellence.
- **8898**: Ahhh... Ohhh... What a positively breathtaking artifact. So it is indeed true that "a journey a day keeps one's skills from wasting away."
- **8899**: I still consider you a bit of a cur, but I also believe you could make the most of this offer I have regarding that almighty armament you carry. To cut to the quick...
- **8900**: Oh, look! It's my favorite waste of materials. Back for another... Wait. What is...?
- **8901**: You proffer your $3.
- **8902**: By Altana!
- **8903**: Despite all our one-sided dealings, <Player>, I must admit that I have misjudged you. Bring me that which I have remolded for you previously, and I shall see what I can do.
- **8904**: Ah, a fine piece of work, indeed. But tell me--are you satisfied with it? Truly, truly satisfied?
- **8905**: Well? [I suppose./Not entirely.]
- **8906**: Oho. Your tastes are as non-discerning as ever. But if you're content with eating slop out of a horse trough, then who am I to stop you?
- **8907**: Hmm... $3...
- **8908**: The perfect catalyst to add a little more oomph to the masterpiece I created for you before.
- **8909**: Oh, and lest you think it'll be destroyed in the process, let me set your mind at ease--I only need to borrow a little bit of its power.
- **8910**: Of course, I'll need more than just that--and you'll have to come up with the materials yourself.
- **8911**: Now, as for that precious implement of destruction, I'll need... $1 $0 .
- **8912**: You know where to find me once you've made the grand leap from sloth into action.
- **8913**: Back with the goods, eh? Taking into account the $1 $0 you've just given me, I'll need $2 more.
- **8914**: I've got enough $0--now all I'll need is for you to bring the weapon in question.
- **8915**: That should be all I require. I should have your new armament ready in the next couple days. A master requires time.
- **8916**: You've given me $1 $0 so far. Another $3 should do the trick for your $2.
- **8917**: If you want to halt the process, that's fine by me--but don't expect me to return any of the materials you've already delivered.
- **8918**: Really abandon the process? [Yes./No.]
- **8919**: You absolutely mean it?
- **8920**: Are you sure? [Definitely./Maybe not.]
- **8921**: What is--this clearly isn't my work!
- **8922**: But it is intruiging...permit me a closer inspection.
- **8923**: Fascinating! Fashioned with a technique that I have never seen!
- **8924**: Heh heh...I could live for ten thousand years and not have seen all the world has to offer.
- **8925**: Along with what you brought me, I'll also need $6.
- **8926**: An artisan of my caliber should find those two things sufficient.
- **8927**: The idea of bringing your weapon to even greater heights gets your blood pumping, doesn't it?
- **8928**: Is your blood pumping? [So much that I'm dizzy!/Not really.]
- **8929**: That's what a man likes to hear!
- **8930**: But that same man cannot work without his tools. And in this case, not something you can pick up in a market on the way home.
- **8931**: I should be able to work a bit of the ol' magic using that $3 you have.
- **8932**: I'll need $0, $1, and $2--but don't go around mixing them together willy-nilly, else the whole process will go up in smoke.
- **8933**: That is to say, you needn't give me all of them at once. Stop by every so often with what you've acquired.
- **8934**: Back with what I need? Good. I haven't yet used the $0. If I do, I won't be able to use any of the others. Ready?
- **8935**: Really use the $0? [You bet!/I need time to think.]
- **8936**: Hmmm... This piece might be a little bit better than the last time, but I bet I could get it to shine even brighter. Stop by later if you're interested.
- **8937**: Hmmm... Everything has its limits, and this piece is no exception. I've done all I can.
- **8938**: Let me return your materials.
- **8939**: Ha! It's as I've always said--a more competent smith you'll find nowhere else!
- **8940**: Go ahead--give it a swing!
- **8941**: Yes? Is there something you need?
- **8942**: What do you want to know about? [Show me the list./Upgrading my equipment even further./Equipment from the shrouded world./Never mind.]
- **8943**: Hm...? That $3 you're holding... Let me see it.
- **8944**: You showed Oboro the $3.
- **8945**: Yes...yes, indeed... I just might be able to... Oh, forgive me.
- **8946**: This equipment of yours... If I told you I could hone it to greater heights of power, what would you say?
- **8947**: What do you say? [Most definitely!/Maybe another time.]
- **8948**: Splendid! Then let us get right to it... Or rather, that's what I'd like to say. But I fear it's not possible at this precise moment.
- **8949**: Needless to say, it is not my prowess that is lacking, but rather that my current tools aren't sturdy enough to survive the job.
- **8950**: However, the power given off by your $3... With that, I'd surely be able to work my wonders on your [mysterious weapon/Balrahn armament/ancient weapon/secret moogle weapon/familiar weapon].
- **8951**: Don't worry, I won't be taking that $3 off your hands for good. I merely need to borrow a bit of its power.
- **8952**: What will you do? [Lend it to him./Never mind.]
- **8953**: Oboro eagerly takes hold of the $3.
- **8954**: Now wait just a moment. I'll return shortly.
- **8955**: Wonderful! Your [mysterious weapon/Balrahn armament/ancient weapon/secret moogle weapon/familiar weapon] is ready to experience my powers in all their glory... Ah, forgive me. You can have this back now.
- **8956**: Oboro relinquished the $3.
- **8957**: Do you have anything else like that $3? I would love to work my wonders on another piece of equipment for you.
- **8958**: Now I just need the necessary materials in order to work my magic. As you know, I am a smith without equal. Bring me what I need, and I'll see to the rest.
- **8959**: That said, the materials I require this time are somewhat special. Without them, I fear I won't be able to help you.
- **8960**: To be more precise, they're not "materials" as such, but rather something near and dear to you. You could even say they're like your heart and soul. Yes, that is what I need.
- **8961**: You're an experienced adventurer, so I'm sure you can figure out what I mean.
- **8962**: Anyhow, once you find that of which I speak, pray deliver it to me.
- **8963**: Hmm... Yes...in the state that you're in now, I suppose I could...
- **8964**: ...Ahem. I have a proposal for you. Are you interested?
- **8965**: Are you interested? [Sure./I think not.]
- **8966**: I can take that fancy armament of yours to even greater heights. That said, I can't do it right at this moment.
- **8967**: No...before I work my magic on your little friend there, I'll need to enhance my tools using the power of your equipment.
- **8968**: In other words, I'm asking you to help me help you.
- **8969**: By using your experience to enhance my tools, I can upgrade that equipment of yours. For that, I'll just need some of your job points.
- **8970**: Just give me your job points from jobs where you can't earn any more. I'll use them to get my tools up to snuff and forge a piece of equipment that'll knock your socks off.
- **8971**: I think 10,000 job points ought to do it. I believe you can use up to 700 job points per week (Earth time)...
- **8972**: We have to do this right though. Mess around and my tools won't be up to the job, leaving you with your boring old equipment. And none of us want that, right?
- **8973**: Lastly, I'll need to use the right tools for the job. That means you'll need enough job points to cover each type of equipment you want to augment.
- **8974**: You used $0 job [point/points] for your [mysterious weapon/Balrahn armament/ancient weapon/secret moogle weapon/familiar weapon]. You still need $2 job [point/points], and are able to use $3 more [point/points].
- **8975**: Now, I can finally get around to taking care of that [mysterious weapon/Balrahn armament/ancient weapon/secret moogle weapon/familiar weapon] for you.
- **8976**: You used $0 job [point/points] for the [mysterious weapon/Balrahn armament/ancient weapon/secret moogle weapon/familiar weapon]. I'm afraid you don't have any points left to use.
- **8977**: You can't use any more job points. I'm afraid you'll need to come back later.
- **8978**: Hm? What's that? Did you do that yourself? It looks like it's been altered somehow...
- **8979**: If I only knew more about it, I might be able to help... Would you mind telling me what you did?
- **8980**: What will you do? [Tell him about the shrouded world./Stay quiet.]
- **8981**: An hourglass? A dreamlike world shrouded in fog? Hmm... I might be able to do something with this, but not in its current state...
- **8982**: Hmm... [This is/Once again you've brought me something] most interesting... It's not much, but there would seem to be fragments of memories within the $0.
- **8983**: Make your selection and I shall extract it for you.
- **8985**: Are you sure? [Yes./On second thought...]
- **8986**: It may be a strange way of phrasing it, but it feels as if it's "alive" somehow...
- **8987**: If you equip it in that world, I daresay it should give things a nice boost.
- **8988**: Of course, you can upgrade your equipment in this world, too...provided you have a certain something. Should you find that something, pray bring it to me.
- **8989**: This equipment may yet be augmented further. Pray bring it back to me some time.
- **8990**: This equipment has reached the limit of its powers. I'm afraid I can do no more with it.
- **8991**: That equipment of yours... Let me see it.
- **8992**: Hmm... How interesting... Actually, it reminds me of the equipment of my homeland.
- **8993**: But forgive me. I wasn't expecting to see such a familiar item here. Sorry, you can have it back now.
- **8994**: Let me take another look at your equipment.
- **8995**: Truly fascinating... Ahem. Forgive me. The craftsmanship seemed unfamiliar to me, so I merely wanted to take a closer look.
- **8996**: This equipment seems to have slumbered for ages in a land far to the west.
- **8997**: What will you choose? [Mysterious weapon./Balrahn armament./Ancient weapon./Secret moogle weapon./Familiar weapon./Go back./Never mind.]
- **8998**: Use which job points? ($22 needed) [Warrior. ($0 job [point/points])/Monk. ($1 job [point/points])/White Mage. ($2 job [point/points])/Black Mage. ($3 job [point/points])/Red Mage. ($4 job [point/points])/Thief. ($5 job [point/points])/Paladin. ($6 job [point/points])/Dark Knight. ($7 job [point/points])/Beastmaster. ($8 job [point/points])/Bard. ($9 job [point/points])/Ranger. ($10 job [point/points])/Samurai. ($11 job [point/points])/Ninja. ($12 job [point/points])/Dragoon. ($13 job [point/points])/Summoner. ($14 job [point/points])/Blue Mage. ($15 job [point/points])/Corsair. ($16 job [point/points])/Puppetmaster. ($17 job [point/points])/Dancer. ($18 job [point/points])/Scholar. ($19 job [point/points])/Geomancer. ($20 job [point/points])/Rune Fencer. ($21 job [point/points])/Go back./Never mind.]
- **8999**: You can choose a range from $0 to $1.
- **9001**: You will be unable to auction this equipment if you augment it!

## Events

### Event 65535

#### Metadata

| Field        | Value   |
|--------------|---------|
| Entrypoint   | 0x0000  |
| Data Size    | 1 bytes |
| Instructions | 1       |

```
      00 01 02 03 04 05 06 07  08 09 0A 0B 0C 0D 0E 0F
      -- -- -- -- -- -- -- --  -- -- -- -- -- -- -- --
0000: 00                                                .               
```

#### Opcodes

```
  0: 0x0000 [0x00] END_REQSTACK()
```

### Event 365

#### Metadata

| Field        | Value    |
|--------------|----------|
| Entrypoint   | 0x0001   |
| Data Size    | 37 bytes |
| Instructions | 10       |

```
      00 01 02 03 04 05 06 07  08 09 0A 0B 0C 0D 0E 0F
      -- -- -- -- -- -- -- --  -- -- -- -- -- -- -- --
0000:    1E F0 FF FF 7F 1C 00  80 6E F8 FF FF 7F 01 80   ........n......
0010: 99 F8 FF FF 7F 1D 02 80  23 59 06 F8 FF FF 7F 03  ........#Y......
0020: 01 10 03 80 21 00                                 ....!.          
```

#### Opcodes

```
  0: 0x0001 [0x1E] EventEntity looks at LocalPlayer and starts talking
  1: 0x0006 [0x1C] WAIT(1* ticks)
  2: 0x0009 [0x6E] EventEntity uses emote 32*
  3: 0x0010 [0x99] Wait for EventEntity animation to complete
  4: 0x0015 [0x1D] PRINT_EVENT_MESSAGE(message_id=8821*)
     "Hm, I could have sworn that inscrutable aura was emanating from you, but I suppose I was mistaken. Feel free to exit my line of sight at any time, plebeian."
  5: 0x0018 [0x23] WAIT_FOR_DIALOG_INTERACTION
  6: 0x0019 [0x59] UPDATE_ENTITY_DATA: Check if EventEntity is performing moving action
  7: 0x001F [0x03] Work_Zone[1] = 0*
  8: 0x0024 [0x21] END_EVENT
  9: 0x0025 [0x00] END_REQSTACK()
```

### Event 367

#### Metadata

| Field        | Value     |
|--------------|-----------|
| Entrypoint   | 0x0026    |
| Data Size    | 203 bytes |
| Instructions | 66        |

```
      00 01 02 03 04 05 06 07  08 09 0A 0B 0C 0D 0E 0F
      -- -- -- -- -- -- -- --  -- -- -- -- -- -- -- --
0020:                   42 1E  F0 FF FF 7F 1C 00 80 1D        B.........
0030: 04 80 23 6E F0 FF FF 7F  05 80 99 F0 FF FF 7F 48  ..#n...........H
0040: 06 80 59 06 F0 FF FF 7F  02 03 10 03 80 00 57 00  ..Y...........W.
0050: 1D 07 80 23 01 5B 00 1D  08 80 23 1D 09 80 23 48  ...#.[....#...#H
0060: 0A 80 02 03 10 03 80 00  A3 00 1D 0B 80 23 1D 0C  .............#..
0070: 80 23 1D 0D 80 23 24 0E  80 03 80 03 80 25 02 00  .#...#$......%..
0080: 10 03 80 00 8D 00 1D 0F  80 23 01 9C 00 02 00 10  .........#......
0090: 00 80 00 9C 00 1D 10 80  23 01 9C 00 1D 11 80 23  ........#......#
00A0: 01 A7 00 1D 12 80 23 1D  13 80 23 1D 14 80 23 1D  ......#...#...#.
00B0: 15 80 23 1D 16 80 23 24  17 80 03 80 03 80 25 02  ..#...#$......%.
00C0: 00 10 03 80 00 DB 00 1D  18 80 23 1D 19 80 23 1D  ..........#...#.
00D0: 1A 80 23 03 01 10 1B 80  01 EF 00 02 00 10 00 80  ..#.............
00E0: 00 EF 00 1D 1C 80 23 03  01 10 00 80 01 EF 00 21  ......#........!
00F0: 00                                                .               
```

#### Opcodes

```
  0: 0x0026 [0x42] SET_CLI_EVENT_CANCEL_DATA()
  1: 0x0027 [0x1E] EventEntity looks at LocalPlayer and starts talking
  2: 0x002C [0x1C] WAIT(1* ticks)
  3: 0x002F [0x1D] PRINT_EVENT_MESSAGE(message_id=8822*)
     "What curious ordnance you carry. My hairs are standing on end just from being in its proximity."
  4: 0x0032 [0x23] WAIT_FOR_DIALOG_INTERACTION
  5: 0x0033 [0x6E] LocalPlayer uses emote 21*
  6: 0x003A [0x99] Wait for LocalPlayer animation to complete
  7: 0x003F [0x48] [System] [8823*]:
     "Oboro took your $0 without even asking!"
  8: 0x0042 [0x59] UPDATE_ENTITY_DATA: Check if LocalPlayer is performing moving action
  9: 0x0048 [0x02] IF !(Work_Zone[3] == 0*) GOTO 0x0057
 10: 0x0050 [0x1D] PRINT_EVENT_MESSAGE(message_id=8824*)
     "Ahhh... Ohhh... What a positively breathtaking artifact. Now I have something else to absorb myself in other than the masterful teachings of Borghertz."
 11: 0x0053 [0x23] WAIT_FOR_DIALOG_INTERACTION
 12: 0x0054 [0x01] GOTO 0x005B
 13: 0x0057 [0x1D] PRINT_EVENT_MESSAGE(message_id=8898*)
     "Ahhh... Ohhh... What a positively breathtaking artifact. So it is indeed true that "a journey a day keeps one's skills from wasting away.""
 14: 0x005A [0x23] WAIT_FOR_DIALOG_INTERACTION

SUBROUTINE_005B:
 15: 0x005B [0x1D] PRINT_EVENT_MESSAGE(message_id=8825*)
     "My apologies, [sir/madam]. Gazing upon the intricacies of well-crafted blades and staves is a truly mesmerizing experience, and I often lose myself between their individual grains and grooves. At any rate, social custom dictates that I return this to you."
 16: 0x005E [0x23] WAIT_FOR_DIALOG_INTERACTION
 17: 0x005F [0x48] [System] [8826*]:
     "The uncouth Hume begrudgingly hands over your $0."
 18: 0x0062 [0x02] IF !(Work_Zone[3] == 0*) GOTO 0x00A3
 19: 0x006A [0x1D] PRINT_EVENT_MESSAGE(message_id=8827*)
     "Yes, it would certainly do you well to know my name. I go by Oboro, and as a blacksmith from the Far East, I contrive exquisite instruments of assault almost from thin air."
 20: 0x006D [0x23] WAIT_FOR_DIALOG_INTERACTION
 21: 0x006E [0x1D] PRINT_EVENT_MESSAGE(message_id=8828*)
     "While I am undoubtedly the most accomplished smith in my homeland, I am not an arrogant Elvaan. I have heard the rumors of Borghertz's greatness and have come to broaden my horizons under his wing."
 22: 0x0071 [0x23] WAIT_FOR_DIALOG_INTERACTION
 23: 0x0072 [0x1D] PRINT_EVENT_MESSAGE(message_id=8829*)
     "Know you of Borghertz, the legendary blacksmith revered throughout the Far East?"
 24: 0x0075 [0x23] WAIT_FOR_DIALOG_INTERACTION
 25: 0x0076 [0x24] CREATE_DIALOG(message_id=8830*, default_option=0*, option_flags=0*)
     "Do you know Borghertz? [In fact, I do...or did./Even if I did, I wouldn't tell you.]"
 26: 0x007D [0x25] WAIT_DIALOG_SELECT()
 27: 0x007E [0x02] IF !(Work_Zone[0] == 0*) GOTO 0x008D
 28: 0x0086 [0x1D] PRINT_EVENT_MESSAGE(message_id=8831*)
     "What!? He has passed on and hammers away happily upon the big anvil in the sky!?"
 29: 0x0089 [0x23] WAIT_FOR_DIALOG_INTERACTION
 30: 0x008A [0x01] GOTO 0x009C
 31: 0x008D [0x02] IF !(Work_Zone[0] == 1*) GOTO 0x009C
 32: 0x0095 [0x1D] PRINT_EVENT_MESSAGE(message_id=8832*)
     "Of course someone of your inferior stature would not. That is all well and good, however, for we are not all destined for greatness."
 33: 0x0098 [0x23] WAIT_FOR_DIALOG_INTERACTION
 34: 0x0099 [0x01] GOTO 0x009C

SUBROUTINE_009C:
 35: 0x009C [0x1D] PRINT_EVENT_MESSAGE(message_id=8833*)
     "Oh well, let us not dwell on extraneous and repugnant details. Now that I have seen the almighty armament you carry..."
 36: 0x009F [0x23] WAIT_FOR_DIALOG_INTERACTION
 37: 0x00A0 [0x01] GOTO 0x00A7
 38: 0x00A3 [0x1D] PRINT_EVENT_MESSAGE(message_id=8899*)
     "I still consider you a bit of a cur, but I also believe you could make the most of this offer I have regarding that almighty armament you carry. To cut to the quick..."
 39: 0x00A6 [0x23] WAIT_FOR_DIALOG_INTERACTION

SUBROUTINE_00A7:
 40: 0x00A7 [0x1D] PRINT_EVENT_MESSAGE(message_id=8834*)
     "I would have you bequeath it to me."
 41: 0x00AA [0x23] WAIT_FOR_DIALOG_INTERACTION
 42: 0x00AB [0x1D] PRINT_EVENT_MESSAGE(message_id=8835*)
     "If Borghertz is not available to perform this most ambitious of tasks, then I will gladly accept the challenge of eking out every last iota of might from your weapon."
 43: 0x00AE [0x23] WAIT_FOR_DIALOG_INTERACTION
 44: 0x00AF [0x1D] PRINT_EVENT_MESSAGE(message_id=8836*)
     "I cannot tell a lie. I will stake my illustrious career and own life on this claim."
 45: 0x00B2 [0x23] WAIT_FOR_DIALOG_INTERACTION
 46: 0x00B3 [0x1D] PRINT_EVENT_MESSAGE(message_id=8837*)
     "So, what say you?"
 47: 0x00B6 [0x23] WAIT_FOR_DIALOG_INTERACTION
 48: 0x00B7 [0x24] CREATE_DIALOG(message_id=8838*, default_option=0*, option_flags=0*)
     "What say you? [Fine, have my weapon./You're a jerk and I hate you.]"
 49: 0x00BE [0x25] WAIT_DIALOG_SELECT()
 50: 0x00BF [0x02] IF !(Work_Zone[0] == 0*) GOTO 0x00DB
 51: 0x00C7 [0x1D] PRINT_EVENT_MESSAGE(message_id=8840*)
     "Ah, it pleases me to know that you possess the intuition of a true combatant. No one would refuse the opportunity to increase the potency of the tool by which they make their living."
 52: 0x00CA [0x23] WAIT_FOR_DIALOG_INTERACTION
 53: 0x00CB [0x1D] PRINT_EVENT_MESSAGE(message_id=8841*)
     "I would like nothing more than to start remolding this exquisite creation immediately, but I must first say that I cannot and will not work with anything less than the best. Consider the weapon you possess and bring me weapons that meet or exceed its power."
 54: 0x00CE [0x23] WAIT_FOR_DIALOG_INTERACTION
 55: 0x00CF [0x1D] PRINT_EVENT_MESSAGE(message_id=8842*)
     "And let us suppose you actually procure what I ask of you. Will you even be able to grasp the degree to which your life will change, all thanks to my expertise? Heh heh heh, I can hardly wait."
 56: 0x00D2 [0x23] WAIT_FOR_DIALOG_INTERACTION
 57: 0x00D3 [0x03] Work_Zone[1] = 2*
 58: 0x00D8 [0x01] GOTO 0x00EF
 59: 0x00DB [0x02] IF !(Work_Zone[0] == 1*) GOTO 0x00EF
 60: 0x00E3 [0x1D] PRINT_EVENT_MESSAGE(message_id=8839*)
     "Hmph. Well, such is your loss. You will simply be unable to defend this city once the apocalypse descends upon it--which will happen sooner than you think."
 61: 0x00E6 [0x23] WAIT_FOR_DIALOG_INTERACTION
 62: 0x00E7 [0x03] Work_Zone[1] = 1*
 63: 0x00EC [0x01] GOTO 0x00EF

SUBROUTINE_00EF:
 64: 0x00EF [0x21] END_EVENT
 65: 0x00F0 [0x00] END_REQSTACK()
```

### Event 368

#### Metadata

| Field        | Value    |
|--------------|----------|
| Entrypoint   | 0x00F1   |
| Data Size    | 23 bytes |
| Instructions | 9        |

```
      00 01 02 03 04 05 06 07  08 09 0A 0B 0C 0D 0E 0F
      -- -- -- -- -- -- -- --  -- -- -- -- -- -- -- --
00F0:    1E F0 FF FF 7F 1C 00  80 1D 1D 80 23 1D 1E 80   ...........#...
0100: 23 03 01 10 1F 80 21 00                           #.....!.        
```

#### Opcodes

```
  0: 0x00F1 [0x1E] EventEntity looks at LocalPlayer and starts talking
  1: 0x00F6 [0x1C] WAIT(1* ticks)
  2: 0x00F9 [0x1D] PRINT_EVENT_MESSAGE(message_id=8869*)
     "I must admit that I thoroughly enjoyed working with the piece you had the sense to give me, and would not be averse to enhancing any others you may have acquired."
  3: 0x00FC [0x23] WAIT_FOR_DIALOG_INTERACTION
  4: 0x00FD [0x1D] PRINT_EVENT_MESSAGE(message_id=8870*)
     "<Ahem>"
  5: 0x0100 [0x23] WAIT_FOR_DIALOG_INTERACTION
  6: 0x0101 [0x03] Work_Zone[1] = 12*
  7: 0x0106 [0x21] END_EVENT
  8: 0x0107 [0x00] END_REQSTACK()
```

### Event 369

#### Metadata

| Field        | Value    |
|--------------|----------|
| Entrypoint   | 0x0108   |
| Data Size    | 72 bytes |
| Instructions | 24       |

```
      00 01 02 03 04 05 06 07  08 09 0A 0B 0C 0D 0E 0F
      -- -- -- -- -- -- -- --  -- -- -- -- -- -- -- --
0100:                          42 1E F0 FF FF 7F 1C 00          B.......
0110: 80 1D 20 80 23 24 17 80  03 80 03 80 25 02 00 10  .. .#$......%...
0120: 03 80 00 39 01 1D 18 80  23 1D 19 80 23 1D 1A 80  ...9....#...#...
0130: 23 03 01 10 1B 80 01 4D  01 02 00 10 00 80 00 4D  #......M.......M
0140: 01 1D 1C 80 23 03 01 10  00 80 01 4D 01 2E 21 00  ....#......M..!.
```

#### Opcodes

```
  0: 0x0108 [0x42] SET_CLI_EVENT_CANCEL_DATA()
  1: 0x0109 [0x1E] EventEntity looks at LocalPlayer and starts talking
  2: 0x010E [0x1C] WAIT(1* ticks)
  3: 0x0111 [0x1D] PRINT_EVENT_MESSAGE(message_id=8844*)
     "Finally come to your senses and realize that leaving your weapon with me is the best option you have?"
  4: 0x0114 [0x23] WAIT_FOR_DIALOG_INTERACTION
  5: 0x0115 [0x24] CREATE_DIALOG(message_id=8838*, default_option=0*, option_flags=0*)
     "What say you? [Fine, have my weapon./You're a jerk and I hate you.]"
  6: 0x011C [0x25] WAIT_DIALOG_SELECT()
  7: 0x011D [0x02] IF !(Work_Zone[0] == 0*) GOTO 0x0139
  8: 0x0125 [0x1D] PRINT_EVENT_MESSAGE(message_id=8840*)
     "Ah, it pleases me to know that you possess the intuition of a true combatant. No one would refuse the opportunity to increase the potency of the tool by which they make their living."
  9: 0x0128 [0x23] WAIT_FOR_DIALOG_INTERACTION
 10: 0x0129 [0x1D] PRINT_EVENT_MESSAGE(message_id=8841*)
     "I would like nothing more than to start remolding this exquisite creation immediately, but I must first say that I cannot and will not work with anything less than the best. Consider the weapon you possess and bring me weapons that meet or exceed its power."
 11: 0x012C [0x23] WAIT_FOR_DIALOG_INTERACTION
 12: 0x012D [0x1D] PRINT_EVENT_MESSAGE(message_id=8842*)
     "And let us suppose you actually procure what I ask of you. Will you even be able to grasp the degree to which your life will change, all thanks to my expertise? Heh heh heh, I can hardly wait."
 13: 0x0130 [0x23] WAIT_FOR_DIALOG_INTERACTION
 14: 0x0131 [0x03] Work_Zone[1] = 2*
 15: 0x0136 [0x01] GOTO 0x014D
 16: 0x0139 [0x02] IF !(Work_Zone[0] == 1*) GOTO 0x014D
 17: 0x0141 [0x1D] PRINT_EVENT_MESSAGE(message_id=8839*)
     "Hmph. Well, such is your loss. You will simply be unable to defend this city once the apocalypse descends upon it--which will happen sooner than you think."
 18: 0x0144 [0x23] WAIT_FOR_DIALOG_INTERACTION
 19: 0x0145 [0x03] Work_Zone[1] = 1*
 20: 0x014A [0x01] GOTO 0x014D

SUBROUTINE_014D:
 21: 0x014D [0x2E] SET_CLI_EVENT_CANCEL_FLAGS()
 22: 0x014E [0x21] END_EVENT
 23: 0x014F [0x00] END_REQSTACK()
```

### Event 370

#### Metadata

| Field        | Value    |
|--------------|----------|
| Entrypoint   | 0x0150   |
| Data Size    | 19 bytes |
| Instructions | 7        |

```
      00 01 02 03 04 05 06 07  08 09 0A 0B 0C 0D 0E 0F
      -- -- -- -- -- -- -- --  -- -- -- -- -- -- -- --
0150: 1E F0 FF FF 7F 1C 00 80  1D 21 80 23 03 01 10 1F  .........!.#....
0160: 80 21 00                                          .!.             
```

#### Opcodes

```
  0: 0x0150 [0x1E] EventEntity looks at LocalPlayer and starts talking
  1: 0x0155 [0x1C] WAIT(1* ticks)
  2: 0x0158 [0x1D] PRINT_EVENT_MESSAGE(message_id=8843*)
     "Why the long face? Did you wet yourself at the thought of losing your closest companion? No worries, I shall be waiting in this very spot when your trousers dry and your resolve hardens."
  3: 0x015B [0x23] WAIT_FOR_DIALOG_INTERACTION
  4: 0x015C [0x03] Work_Zone[1] = 12*
  5: 0x0161 [0x21] END_EVENT
  6: 0x0162 [0x00] END_REQSTACK()
```

### Event 371

#### Metadata

| Field        | Value    |
|--------------|----------|
| Entrypoint   | 0x0163   |
| Data Size    | 72 bytes |
| Instructions | 24       |

```
      00 01 02 03 04 05 06 07  08 09 0A 0B 0C 0D 0E 0F
      -- -- -- -- -- -- -- --  -- -- -- -- -- -- -- --
0160:          42 1E F0 FF FF  7F 1C 00 80 1D 22 80 23     B.........".#
0170: 1D 23 80 23 1D 24 80 23  24 25 80 00 80 03 80 25  .#.#.$.#$%.....%
0180: 02 00 10 03 80 00 94 01  1D 1E 80 23 03 01 10 26  ...........#...&
0190: 80 01 A8 01 02 00 10 00  80 00 A8 01 1D 27 80 23  .............'.#
01A0: 03 01 10 03 80 01 A8 01  2E 21 00                 .........!.     
```

#### Opcodes

```
  0: 0x0163 [0x42] SET_CLI_EVENT_CANCEL_DATA()
  1: 0x0164 [0x1E] EventEntity looks at LocalPlayer and starts talking
  2: 0x0169 [0x1C] WAIT(1* ticks)
  3: 0x016C [0x1D] PRINT_EVENT_MESSAGE(message_id=8845*)
     "I was unaware that the world was still privy to superlative works of art such as this. So grandiose is its design that one must question whether or not it was fashioned by mortal hands."
  4: 0x016F [0x23] WAIT_FOR_DIALOG_INTERACTION
  5: 0x0170 [0x1D] PRINT_EVENT_MESSAGE(message_id=8846*)
     "Say nothing of the aura it exudes. I feel as if I am conversing with an old friend simply by gazing upon it. Yes, I will indeed deign to pour my soul into improving this instrument."
  6: 0x0173 [0x23] WAIT_FOR_DIALOG_INTERACTION
  7: 0x0174 [0x1D] PRINT_EVENT_MESSAGE(message_id=8847*)
     "In order to do that, however, I require $1 $0 . Have fun getting intimately acquainted with them as well as the beasts from which you must procure them."
  8: 0x0177 [0x23] WAIT_FOR_DIALOG_INTERACTION
  9: 0x0178 [0x24] CREATE_DIALOG(message_id=8871*, default_option=1*, option_flags=0*)
     "What will you do? [Prepare the weapon!/Nothing.]"
 10: 0x017F [0x25] WAIT_DIALOG_SELECT()
 11: 0x0180 [0x02] IF !(Work_Zone[0] == 0*) GOTO 0x0194
 12: 0x0188 [0x1D] PRINT_EVENT_MESSAGE(message_id=8870*)
     "<Ahem>"
 13: 0x018B [0x23] WAIT_FOR_DIALOG_INTERACTION
 14: 0x018C [0x03] Work_Zone[1] = 3*
 15: 0x0191 [0x01] GOTO 0x01A8
 16: 0x0194 [0x02] IF !(Work_Zone[0] == 1*) GOTO 0x01A8
 17: 0x019C [0x1D] PRINT_EVENT_MESSAGE(message_id=8874*)
     "...Hmph. Be that as it may, you will come crawling back for my services sooner or later."
 18: 0x019F [0x23] WAIT_FOR_DIALOG_INTERACTION
 19: 0x01A0 [0x03] Work_Zone[1] = 0*
 20: 0x01A5 [0x01] GOTO 0x01A8

SUBROUTINE_01A8:
 21: 0x01A8 [0x2E] SET_CLI_EVENT_CANCEL_FLAGS()
 22: 0x01A9 [0x21] END_EVENT
 23: 0x01AA [0x00] END_REQSTACK()
```

### Event 372

#### Metadata

| Field        | Value    |
|--------------|----------|
| Entrypoint   | 0x01AB   |
| Data Size    | 76 bytes |
| Instructions | 26       |

```
      00 01 02 03 04 05 06 07  08 09 0A 0B 0C 0D 0E 0F
      -- -- -- -- -- -- -- --  -- -- -- -- -- -- -- --
01A0:                                   42 1E F0 FF FF             B....
01B0: 7F 1C 00 80 1D 28 80 23  1D 29 80 23 1D 2A 80 23  .....(.#.).#.*.#
01C0: 1D 2B 80 23 24 25 80 00  80 03 80 25 02 00 10 03  .+.#$%.....%....
01D0: 80 00 E0 01 1D 1E 80 23  03 01 10 2C 80 01 F4 01  .......#...,....
01E0: 02 00 10 00 80 00 F4 01  1D 27 80 23 03 01 10 03  .........'.#....
01F0: 80 01 F4 01 2E 21 00                              .....!.         
```

#### Opcodes

```
  0: 0x01AB [0x42] SET_CLI_EVENT_CANCEL_DATA()
  1: 0x01AC [0x1E] EventEntity looks at LocalPlayer and starts talking
  2: 0x01B1 [0x1C] WAIT(1* ticks)
  3: 0x01B4 [0x1D] PRINT_EVENT_MESSAGE(message_id=8848*)
     "Well, now...if I did not so love hearing the sound of my own voice, I would be at a loss for words. To think that I would one day come across one of the Myriad Arms of Balrahn..."
  4: 0x01B7 [0x23] WAIT_FOR_DIALOG_INTERACTION
  5: 0x01B8 [0x1D] PRINT_EVENT_MESSAGE(message_id=8849*)
     "I knew it was my destiny to lay eyes upon one when I first glanced at that ledger of arcane valuables. It seems there was a purpose in coming to this backwoods province after all."
  6: 0x01BB [0x23] WAIT_FOR_DIALOG_INTERACTION
  7: 0x01BC [0x1D] PRINT_EVENT_MESSAGE(message_id=8850*)
     "I cannot in good conscience turn down the chance to pour my heart and soul into this magnificent creation."
  8: 0x01BF [0x23] WAIT_FOR_DIALOG_INTERACTION
  9: 0x01C0 [0x1D] PRINT_EVENT_MESSAGE(message_id=8851*)
     "And to assist me in this divine mission, you will bring me $1 $0 . Now be off."
 10: 0x01C3 [0x23] WAIT_FOR_DIALOG_INTERACTION
 11: 0x01C4 [0x24] CREATE_DIALOG(message_id=8871*, default_option=1*, option_flags=0*)
     "What will you do? [Prepare the weapon!/Nothing.]"
 12: 0x01CB [0x25] WAIT_DIALOG_SELECT()
 13: 0x01CC [0x02] IF !(Work_Zone[0] == 0*) GOTO 0x01E0
 14: 0x01D4 [0x1D] PRINT_EVENT_MESSAGE(message_id=8870*)
     "<Ahem>"
 15: 0x01D7 [0x23] WAIT_FOR_DIALOG_INTERACTION
 16: 0x01D8 [0x03] Work_Zone[1] = 4*
 17: 0x01DD [0x01] GOTO 0x01F4
 18: 0x01E0 [0x02] IF !(Work_Zone[0] == 1*) GOTO 0x01F4
 19: 0x01E8 [0x1D] PRINT_EVENT_MESSAGE(message_id=8874*)
     "...Hmph. Be that as it may, you will come crawling back for my services sooner or later."
 20: 0x01EB [0x23] WAIT_FOR_DIALOG_INTERACTION
 21: 0x01EC [0x03] Work_Zone[1] = 0*
 22: 0x01F1 [0x01] GOTO 0x01F4

SUBROUTINE_01F4:
 23: 0x01F4 [0x2E] SET_CLI_EVENT_CANCEL_FLAGS()
 24: 0x01F5 [0x21] END_EVENT
 25: 0x01F6 [0x00] END_REQSTACK()
```

### Event 373

#### Metadata

| Field        | Value    |
|--------------|----------|
| Entrypoint   | 0x01F7   |
| Data Size    | 72 bytes |
| Instructions | 24       |

```
      00 01 02 03 04 05 06 07  08 09 0A 0B 0C 0D 0E 0F
      -- -- -- -- -- -- -- --  -- -- -- -- -- -- -- --
01F0:                      42  1E F0 FF FF 7F 1C 00 80         B........
0200: 1D 2D 80 23 1D 2E 80 23  1D 2F 80 23 24 25 80 00  .-.#...#./.#$%..
0210: 80 03 80 25 02 00 10 03  80 00 28 02 1D 1E 80 23  ...%......(....#
0220: 03 01 10 30 80 01 3C 02  02 00 10 00 80 00 3C 02  ...0..<.......<.
0230: 1D 27 80 23 03 01 10 03  80 01 3C 02 2E 21 00     .'.#......<..!. 
```

#### Opcodes

```
  0: 0x01F7 [0x42] SET_CLI_EVENT_CANCEL_DATA()
  1: 0x01F8 [0x1E] EventEntity looks at LocalPlayer and starts talking
  2: 0x01FD [0x1C] WAIT(1* ticks)
  3: 0x0200 [0x1D] PRINT_EVENT_MESSAGE(message_id=8852*)
     "Egads, I thought these were merely legend... Perhaps I should give those floating furballs a tad more credit."
  4: 0x0203 [0x23] WAIT_FOR_DIALOG_INTERACTION
  5: 0x0204 [0x1D] PRINT_EVENT_MESSAGE(message_id=8853*)
     "How do I improve upon perfection? Hmmm, this will prove to be quite the challenge, but overcoming it will surely prove my incomparable talents to the world."
  6: 0x0207 [0x23] WAIT_FOR_DIALOG_INTERACTION
  7: 0x0208 [0x1D] PRINT_EVENT_MESSAGE(message_id=8854*)
     "Now shoo and fetch me $1 $0 posthaste if you wish to see my efforts succeed."
  8: 0x020B [0x23] WAIT_FOR_DIALOG_INTERACTION
  9: 0x020C [0x24] CREATE_DIALOG(message_id=8871*, default_option=1*, option_flags=0*)
     "What will you do? [Prepare the weapon!/Nothing.]"
 10: 0x0213 [0x25] WAIT_DIALOG_SELECT()
 11: 0x0214 [0x02] IF !(Work_Zone[0] == 0*) GOTO 0x0228
 12: 0x021C [0x1D] PRINT_EVENT_MESSAGE(message_id=8870*)
     "<Ahem>"
 13: 0x021F [0x23] WAIT_FOR_DIALOG_INTERACTION
 14: 0x0220 [0x03] Work_Zone[1] = 5*
 15: 0x0225 [0x01] GOTO 0x023C
 16: 0x0228 [0x02] IF !(Work_Zone[0] == 1*) GOTO 0x023C
 17: 0x0230 [0x1D] PRINT_EVENT_MESSAGE(message_id=8874*)
     "...Hmph. Be that as it may, you will come crawling back for my services sooner or later."
 18: 0x0233 [0x23] WAIT_FOR_DIALOG_INTERACTION
 19: 0x0234 [0x03] Work_Zone[1] = 0*
 20: 0x0239 [0x01] GOTO 0x023C

SUBROUTINE_023C:
 21: 0x023C [0x2E] SET_CLI_EVENT_CANCEL_FLAGS()
 22: 0x023D [0x21] END_EVENT
 23: 0x023E [0x00] END_REQSTACK()
```

### Event 374

#### Metadata

| Field        | Value    |
|--------------|----------|
| Entrypoint   | 0x023F   |
| Data Size    | 62 bytes |
| Instructions | 18       |

```
      00 01 02 03 04 05 06 07  08 09 0A 0B 0C 0D 0E 0F
      -- -- -- -- -- -- -- --  -- -- -- -- -- -- -- --
0230:                                               1E                 .
0240: F0 FF FF 7F 1C 00 80 1D  31 80 23 24 32 80 03 80  ........1.#$2...
0250: 03 80 25 02 00 10 03 80  00 67 02 1D 33 80 23 03  ..%......g..3.#.
0260: 01 10 03 80 01 7B 02 02  00 10 00 80 00 7B 02 1D  .....{.......{..
0270: 27 80 23 03 01 10 34 80  01 7B 02 21 00           '.#...4..{.!.   
```

#### Opcodes

```
  0: 0x023F [0x1E] EventEntity looks at LocalPlayer and starts talking
  1: 0x0244 [0x1C] WAIT(1* ticks)
  2: 0x0247 [0x1D] PRINT_EVENT_MESSAGE(message_id=8872*)
     "What is it you need from me?"
  3: 0x024A [0x23] WAIT_FOR_DIALOG_INTERACTION
  4: 0x024B [0x24] CREATE_DIALOG(message_id=8873*, default_option=0*, option_flags=0*)
     "What do you need from him? [To know what the deal is./Nothing.]"
  5: 0x0252 [0x25] WAIT_DIALOG_SELECT()
  6: 0x0253 [0x02] IF !(Work_Zone[0] == 0*) GOTO 0x0267
  7: 0x025B [0x1D] PRINT_EVENT_MESSAGE(message_id=8855*)
     "I told you already, $1 $0 . "Where can I find them?" Do I look like I have lived here the entirety of my existence? Find them yourself!"
  8: 0x025E [0x23] WAIT_FOR_DIALOG_INTERACTION
  9: 0x025F [0x03] Work_Zone[1] = 0*
 10: 0x0264 [0x01] GOTO 0x027B
 11: 0x0267 [0x02] IF !(Work_Zone[0] == 1*) GOTO 0x027B
 12: 0x026F [0x1D] PRINT_EVENT_MESSAGE(message_id=8874*)
     "...Hmph. Be that as it may, you will come crawling back for my services sooner or later."
 13: 0x0272 [0x23] WAIT_FOR_DIALOG_INTERACTION
 14: 0x0273 [0x03] Work_Zone[1] = 9*
 15: 0x0278 [0x01] GOTO 0x027B

SUBROUTINE_027B:
 16: 0x027B [0x21] END_EVENT
 17: 0x027C [0x00] END_REQSTACK()
```

### Event 375

#### Metadata

| Field        | Value    |
|--------------|----------|
| Entrypoint   | 0x027D   |
| Data Size    | 66 bytes |
| Instructions | 20       |

```
      00 01 02 03 04 05 06 07  08 09 0A 0B 0C 0D 0E 0F
      -- -- -- -- -- -- -- --  -- -- -- -- -- -- -- --
0270:                                         1E F0 FF               ...
0280: FF 7F 1C 00 80 1D 31 80  23 24 32 80 03 80 03 80  ......1.#$2.....
0290: 25 02 00 10 03 80 00 A9  02 1D 2B 80 23 1D 35 80  %.........+.#.5.
02A0: 23 03 01 10 03 80 01 BD  02 02 00 10 00 80 00 BD  #...............
02B0: 02 1D 27 80 23 03 01 10  34 80 01 BD 02 21 00     ..'.#...4....!. 
```

#### Opcodes

```
  0: 0x027D [0x1E] EventEntity looks at LocalPlayer and starts talking
  1: 0x0282 [0x1C] WAIT(1* ticks)
  2: 0x0285 [0x1D] PRINT_EVENT_MESSAGE(message_id=8872*)
     "What is it you need from me?"
  3: 0x0288 [0x23] WAIT_FOR_DIALOG_INTERACTION
  4: 0x0289 [0x24] CREATE_DIALOG(message_id=8873*, default_option=0*, option_flags=0*)
     "What do you need from him? [To know what the deal is./Nothing.]"
  5: 0x0290 [0x25] WAIT_DIALOG_SELECT()
  6: 0x0291 [0x02] IF !(Work_Zone[0] == 0*) GOTO 0x02A9
  7: 0x0299 [0x1D] PRINT_EVENT_MESSAGE(message_id=8851*)
     "And to assist me in this divine mission, you will bring me $1 $0 . Now be off."
  8: 0x029C [0x23] WAIT_FOR_DIALOG_INTERACTION
  9: 0x029D [0x1D] PRINT_EVENT_MESSAGE(message_id=8859*)
     "Prepare your body to shudder with excitement when you see the transformation your partner-in-arms has undergone. Now go about your business like a faithful servant and get me what I need."
 10: 0x02A0 [0x23] WAIT_FOR_DIALOG_INTERACTION
 11: 0x02A1 [0x03] Work_Zone[1] = 0*
 12: 0x02A6 [0x01] GOTO 0x02BD
 13: 0x02A9 [0x02] IF !(Work_Zone[0] == 1*) GOTO 0x02BD
 14: 0x02B1 [0x1D] PRINT_EVENT_MESSAGE(message_id=8874*)
     "...Hmph. Be that as it may, you will come crawling back for my services sooner or later."
 15: 0x02B4 [0x23] WAIT_FOR_DIALOG_INTERACTION
 16: 0x02B5 [0x03] Work_Zone[1] = 9*
 17: 0x02BA [0x01] GOTO 0x02BD

SUBROUTINE_02BD:
 18: 0x02BD [0x21] END_EVENT
 19: 0x02BE [0x00] END_REQSTACK()
```

### Event 376

#### Metadata

| Field        | Value    |
|--------------|----------|
| Entrypoint   | 0x02BF   |
| Data Size    | 62 bytes |
| Instructions | 18       |

```
      00 01 02 03 04 05 06 07  08 09 0A 0B 0C 0D 0E 0F
      -- -- -- -- -- -- -- --  -- -- -- -- -- -- -- --
02B0:                                               1E                 .
02C0: F0 FF FF 7F 1C 00 80 1D  31 80 23 24 32 80 03 80  ........1.#$2...
02D0: 03 80 25 02 00 10 03 80  00 E7 02 1D 36 80 23 03  ..%.........6.#.
02E0: 01 10 03 80 01 FB 02 02  00 10 00 80 00 FB 02 1D  ................
02F0: 27 80 23 03 01 10 34 80  01 FB 02 21 00           '.#...4....!.   
```

#### Opcodes

```
  0: 0x02BF [0x1E] EventEntity looks at LocalPlayer and starts talking
  1: 0x02C4 [0x1C] WAIT(1* ticks)
  2: 0x02C7 [0x1D] PRINT_EVENT_MESSAGE(message_id=8872*)
     "What is it you need from me?"
  3: 0x02CA [0x23] WAIT_FOR_DIALOG_INTERACTION
  4: 0x02CB [0x24] CREATE_DIALOG(message_id=8873*, default_option=0*, option_flags=0*)
     "What do you need from him? [To know what the deal is./Nothing.]"
  5: 0x02D2 [0x25] WAIT_DIALOG_SELECT()
  6: 0x02D3 [0x02] IF !(Work_Zone[0] == 0*) GOTO 0x02E7
  7: 0x02DB [0x1D] PRINT_EVENT_MESSAGE(message_id=8863*)
     "I can do nothing until you procure me $1 $0 , so make haste to acquire them. In the meantime, I will visualize the shape on which my chef d'oeuvre shall take."
  8: 0x02DE [0x23] WAIT_FOR_DIALOG_INTERACTION
  9: 0x02DF [0x03] Work_Zone[1] = 0*
 10: 0x02E4 [0x01] GOTO 0x02FB
 11: 0x02E7 [0x02] IF !(Work_Zone[0] == 1*) GOTO 0x02FB
 12: 0x02EF [0x1D] PRINT_EVENT_MESSAGE(message_id=8874*)
     "...Hmph. Be that as it may, you will come crawling back for my services sooner or later."
 13: 0x02F2 [0x23] WAIT_FOR_DIALOG_INTERACTION
 14: 0x02F3 [0x03] Work_Zone[1] = 9*
 15: 0x02F8 [0x01] GOTO 0x02FB

SUBROUTINE_02FB:
 16: 0x02FB [0x21] END_EVENT
 17: 0x02FC [0x00] END_REQSTACK()
```

### Event 377

#### Metadata

| Field        | Value    |
|--------------|----------|
| Entrypoint   | 0x02FD   |
| Data Size    | 23 bytes |
| Instructions | 9        |

```
      00 01 02 03 04 05 06 07  08 09 0A 0B 0C 0D 0E 0F
      -- -- -- -- -- -- -- --  -- -- -- -- -- -- -- --
02F0:                                         1E F0 FF               ...
0300: FF 7F 1C 00 80 1D 37 80  23 1D 38 80 23 03 01 10  ......7.#.8.#...
0310: 03 80 21 00                                       ..!.            
```

#### Opcodes

```
  0: 0x02FD [0x1E] EventEntity looks at LocalPlayer and starts talking
  1: 0x0302 [0x1C] WAIT(1* ticks)
  2: 0x0305 [0x1D] PRINT_EVENT_MESSAGE(message_id=8867*)
     "I had no idea adventurers possessed so much free time. No matter how many times you ask, it will be ready when it is ready...unless you would rather I hand you a half-finished piece of scrap."
  3: 0x0308 [0x23] WAIT_FOR_DIALOG_INTERACTION
  4: 0x0309 [0x1D] PRINT_EVENT_MESSAGE(message_id=8868*)
     "Of course I could never bring myself to hand back a work in progress. You will wait your full day and you will like it, hear me?"
  5: 0x030C [0x23] WAIT_FOR_DIALOG_INTERACTION
  6: 0x030D [0x03] Work_Zone[1] = 0*
  7: 0x0312 [0x21] END_EVENT
  8: 0x0313 [0x00] END_REQSTACK()
```

### Event 378

#### Metadata

| Field        | Value    |
|--------------|----------|
| Entrypoint   | 0x0314   |
| Data Size    | 25 bytes |
| Instructions | 11       |

```
      00 01 02 03 04 05 06 07  08 09 0A 0B 0C 0D 0E 0F
      -- -- -- -- -- -- -- --  -- -- -- -- -- -- -- --
0310:             42 1E F0 FF  FF 7F 1C 00 80 1D 39 80      B.........9.
0320: 23 1D 3A 80 23 03 01 10  03 80 2E 21 00           #.:.#......!.   
```

#### Opcodes

```
  0: 0x0314 [0x42] SET_CLI_EVENT_CANCEL_DATA()
  1: 0x0315 [0x1E] EventEntity looks at LocalPlayer and starts talking
  2: 0x031A [0x1C] WAIT(1* ticks)
  3: 0x031D [0x1D] PRINT_EVENT_MESSAGE(message_id=8856*)
     "I would thank you for handing over your $0, but you have only done what is logical for our mutual benefit. More importantly, I can already feel the potential of this great weapon."
  4: 0x0320 [0x23] WAIT_FOR_DIALOG_INTERACTION
  5: 0x0321 [0x1D] PRINT_EVENT_MESSAGE(message_id=8857*)
     "One day is but all I need to work my magic. Feel free to get your hopes up in the meantime, too."
  6: 0x0324 [0x23] WAIT_FOR_DIALOG_INTERACTION
  7: 0x0325 [0x03] Work_Zone[1] = 0*
  8: 0x032A [0x2E] SET_CLI_EVENT_CANCEL_FLAGS()
  9: 0x032B [0x21] END_EVENT
 10: 0x032C [0x00] END_REQSTACK()
```

### Event 379

#### Metadata

| Field        | Value    |
|--------------|----------|
| Entrypoint   | 0x032D   |
| Data Size    | 25 bytes |
| Instructions | 11       |

```
      00 01 02 03 04 05 06 07  08 09 0A 0B 0C 0D 0E 0F
      -- -- -- -- -- -- -- --  -- -- -- -- -- -- -- --
0320:                                         42 1E F0               B..
0330: FF FF 7F 1C 00 80 1D 3B  80 23 1D 3C 80 23 03 01  .......;.#.<.#..
0340: 10 03 80 2E 21 00                                 ....!.          
```

#### Opcodes

```
  0: 0x032D [0x42] SET_CLI_EVENT_CANCEL_DATA()
  1: 0x032E [0x1E] EventEntity looks at LocalPlayer and starts talking
  2: 0x0333 [0x1C] WAIT(1* ticks)
  3: 0x0336 [0x1D] PRINT_EVENT_MESSAGE(message_id=8860*)
     "Yes, this is it...this is what you have kept me waiting so long for. All is forgiven, for it is exactly as I pictured it."
  4: 0x0339 [0x23] WAIT_FOR_DIALOG_INTERACTION
  5: 0x033A [0x1D] PRINT_EVENT_MESSAGE(message_id=8861*)
     "I will need you to wait a day while I set to smithing. No need to turn red with anger. A day is but an instant when compared to your adventuring lifetime."
  6: 0x033D [0x23] WAIT_FOR_DIALOG_INTERACTION
  7: 0x033E [0x03] Work_Zone[1] = 0*
  8: 0x0343 [0x2E] SET_CLI_EVENT_CANCEL_FLAGS()
  9: 0x0344 [0x21] END_EVENT
 10: 0x0345 [0x00] END_REQSTACK()
```

### Event 380

#### Metadata

| Field        | Value    |
|--------------|----------|
| Entrypoint   | 0x0346   |
| Data Size    | 25 bytes |
| Instructions | 11       |

```
      00 01 02 03 04 05 06 07  08 09 0A 0B 0C 0D 0E 0F
      -- -- -- -- -- -- -- --  -- -- -- -- -- -- -- --
0340:                   42 1E  F0 FF FF 7F 1C 00 80 1D        B.........
0350: 3D 80 23 1D 3E 80 23 03  01 10 03 80 2E 21 00     =.#.>.#......!. 
```

#### Opcodes

```
  0: 0x0346 [0x42] SET_CLI_EVENT_CANCEL_DATA()
  1: 0x0347 [0x1E] EventEntity looks at LocalPlayer and starts talking
  2: 0x034C [0x1C] WAIT(1* ticks)
  3: 0x034F [0x1D] PRINT_EVENT_MESSAGE(message_id=8864*)
     "Ah, your $0. Very well, you are of no more use to me. Skedaddle and occupy yourself with some paltry distraction while the adults do the real work."
  4: 0x0352 [0x23] WAIT_FOR_DIALOG_INTERACTION
  5: 0x0353 [0x1D] PRINT_EVENT_MESSAGE(message_id=8865*)
     "It will take approximately one day to perform my wonders upon it, so do not come pulling at my coattails asking, "Is it done yet?" until then."
  6: 0x0356 [0x23] WAIT_FOR_DIALOG_INTERACTION
  7: 0x0357 [0x03] Work_Zone[1] = 0*
  8: 0x035C [0x2E] SET_CLI_EVENT_CANCEL_FLAGS()
  9: 0x035D [0x21] END_EVENT
 10: 0x035E [0x00] END_REQSTACK()
```

### Event 381

#### Metadata

| Field        | Value    |
|--------------|----------|
| Entrypoint   | 0x035F   |
| Data Size    | 41 bytes |
| Instructions | 11       |

```
      00 01 02 03 04 05 06 07  08 09 0A 0B 0C 0D 0E 0F
      -- -- -- -- -- -- -- --  -- -- -- -- -- -- -- --
0350:                                               42                 B
0360: 1E F0 FF FF 7F 1C 00 80  CC 01 02 10 03 10 04 10  ................
0370: 05 10 1D 3F 80 23 CC 01  03 80 03 10 04 10 05 10  ...?.#..........
0380: 03 01 10 40 80 2E 21 00                           ...@..!.        
```

#### Opcodes

```
  0: 0x035F [0x42] SET_CLI_EVENT_CANCEL_DATA()
  1: 0x0360 [0x1E] EventEntity looks at LocalPlayer and starts talking
  2: 0x0365 [0x1C] WAIT(1* ticks)
  3: 0x0368 [0xCC] ITEM_INFO_WINDOW_HANDLER(case=0x01 - Open item info window (with chase), check_value=Work_Zone[2], buffer1=Work_Zone[3], buffer2=Work_Zone[4], buffer3=Work_Zone[5])
  4: 0x0372 [0x1D] PRINT_EVENT_MESSAGE(message_id=8858*)
     "Here is what I promised you, and nothing less. No need to comment upon the craftsmanship, for I already know it is flawless."
  5: 0x0375 [0x23] WAIT_FOR_DIALOG_INTERACTION
  6: 0x0376 [0xCC] ITEM_INFO_WINDOW_HANDLER(case=0x01 - Open item info window (with chase), check_value=0*, buffer1=Work_Zone[3], buffer2=Work_Zone[4], buffer3=Work_Zone[5])
  7: 0x0380 [0x03] Work_Zone[1] = 6*
  8: 0x0385 [0x2E] SET_CLI_EVENT_CANCEL_FLAGS()
  9: 0x0386 [0x21] END_EVENT
 10: 0x0387 [0x00] END_REQSTACK()
```

### Event 382

#### Metadata

| Field        | Value    |
|--------------|----------|
| Entrypoint   | 0x0388   |
| Data Size    | 41 bytes |
| Instructions | 11       |

```
      00 01 02 03 04 05 06 07  08 09 0A 0B 0C 0D 0E 0F
      -- -- -- -- -- -- -- --  -- -- -- -- -- -- -- --
0380:                          42 1E F0 FF FF 7F 1C 00          B.......
0390: 80 CC 01 02 10 03 10 04  10 05 10 1D 41 80 23 CC  ............A.#.
03A0: 01 03 80 03 10 04 10 05  10 03 01 10 42 80 2E 21  ............B..!
03B0: 00                                                .               
```

#### Opcodes

```
  0: 0x0388 [0x42] SET_CLI_EVENT_CANCEL_DATA()
  1: 0x0389 [0x1E] EventEntity looks at LocalPlayer and starts talking
  2: 0x038E [0x1C] WAIT(1* ticks)
  3: 0x0391 [0xCC] ITEM_INFO_WINDOW_HANDLER(case=0x01 - Open item info window (with chase), check_value=Work_Zone[2], buffer1=Work_Zone[3], buffer2=Work_Zone[4], buffer3=Work_Zone[5])
  4: 0x039B [0x1D] PRINT_EVENT_MESSAGE(message_id=8862*)
     "What a beautiful piece that Balrahn armament was...but it was not even half as beautiful as its current form. Take it in your hands and steel your bladder against your ensuing amazement."
  5: 0x039E [0x23] WAIT_FOR_DIALOG_INTERACTION
  6: 0x039F [0xCC] ITEM_INFO_WINDOW_HANDLER(case=0x01 - Open item info window (with chase), check_value=0*, buffer1=Work_Zone[3], buffer2=Work_Zone[4], buffer3=Work_Zone[5])
  7: 0x03A9 [0x03] Work_Zone[1] = 7*
  8: 0x03AE [0x2E] SET_CLI_EVENT_CANCEL_FLAGS()
  9: 0x03AF [0x21] END_EVENT
 10: 0x03B0 [0x00] END_REQSTACK()
```

### Event 383

#### Metadata

| Field        | Value    |
|--------------|----------|
| Entrypoint   | 0x03B1   |
| Data Size    | 41 bytes |
| Instructions | 11       |

```
      00 01 02 03 04 05 06 07  08 09 0A 0B 0C 0D 0E 0F
      -- -- -- -- -- -- -- --  -- -- -- -- -- -- -- --
03B0:    42 1E F0 FF FF 7F 1C  00 80 CC 01 02 10 03 10   B..............
03C0: 04 10 05 10 1D 43 80 23  CC 01 03 80 03 10 04 10  .....C.#........
03D0: 05 10 03 01 10 44 80 2E  21 00                    .....D..!.      
```

#### Opcodes

```
  0: 0x03B1 [0x42] SET_CLI_EVENT_CANCEL_DATA()
  1: 0x03B2 [0x1E] EventEntity looks at LocalPlayer and starts talking
  2: 0x03B7 [0x1C] WAIT(1* ticks)
  3: 0x03BA [0xCC] ITEM_INFO_WINDOW_HANDLER(case=0x01 - Open item info window (with chase), check_value=Work_Zone[2], buffer1=Work_Zone[3], buffer2=Work_Zone[4], buffer3=Work_Zone[5])
  4: 0x03C4 [0x1D] PRINT_EVENT_MESSAGE(message_id=8866*)
     "Even I am impressed with the craftsmanship of this piece. I would be jealous of the moogles and their magic...except I know I can create even more stunning ordnance when given the chance. Here it is, in all its new splendid glory."
  5: 0x03C7 [0x23] WAIT_FOR_DIALOG_INTERACTION
  6: 0x03C8 [0xCC] ITEM_INFO_WINDOW_HANDLER(case=0x01 - Open item info window (with chase), check_value=0*, buffer1=Work_Zone[3], buffer2=Work_Zone[4], buffer3=Work_Zone[5])
  7: 0x03D2 [0x03] Work_Zone[1] = 8*
  8: 0x03D7 [0x2E] SET_CLI_EVENT_CANCEL_FLAGS()
  9: 0x03D8 [0x21] END_EVENT
 10: 0x03D9 [0x00] END_REQSTACK()
```

### Event 397

#### Metadata

| Field        | Value     |
|--------------|-----------|
| Entrypoint   | 0x03DA    |
| Data Size    | 400 bytes |
| Instructions | 106       |

```
      00 01 02 03 04 05 06 07  08 09 0A 0B 0C 0D 0E 0F
      -- -- -- -- -- -- -- --  -- -- -- -- -- -- -- --
03D0:                                1E F0 FF FF 7F 1C            ......
03E0: 00 80 6E F8 FF FF 7F 01  80 99 F8 FF FF 7F 1D 45  ..n............E
03F0: 80 23 59 06 F8 FF FF 7F  1D 46 80 23 1D 0B 80 23  .#Y......F.#...#
0400: 1D 0C 80 23 1D 0D 80 23  24 0E 80 03 80 03 80 25  ...#...#$......%
0410: 02 00 10 03 80 00 1F 04  1D 0F 80 23 01 2E 04 02  ...........#....
0420: 00 10 00 80 00 2E 04 1D  10 80 23 01 2E 04 1D 47  ..........#....G
0430: 80 23 1D 48 80 23 1D 49  80 23 1D 4A 80 23 1D 4B  .#.H.#.I.#.J.#.K
0440: 80 23 24 4C 80 03 80 03  80 25 02 00 10 03 80 00  .#$L.....%......
0450: 53 05 42 1D 4D 80 23 1D  4E 80 23 1D 4F 80 23 1D  S.B.M.#.N.#.O.#.
0460: 50 80 23 1D 51 80 23 03  02 10 52 80 03 03 10 53  P.#.Q.#...R....S
0470: 80 03 04 10 54 80 03 05  10 55 80 03 06 10 56 80  ....T....U....V.
0480: 03 07 10 57 80 03 08 10  58 80 03 09 10 59 80 03  ...W....X....Y..
0490: 00 17 5A 80 03 01 17 5B  80 03 02 17 5C 80 03 03  ..Z....[....\...
04A0: 17 5D 80 03 04 17 5E 80  03 05 17 5F 80 03 06 17  .]....^...._....
04B0: 60 80 03 07 17 61 80 03  08 17 62 80 03 09 17 63  `....a....b....c
04C0: 80 03 0A 17 64 80 03 0B  17 65 80 03 0C 17 66 80  ....d....e....f.
04D0: 03 0D 17 67 80 03 00 00  03 80 3C 0D 00 68 80 00  ...g......<..h..
04E0: 80 3C 0D 00 69 80 00 80  24 6A 80 03 80 0D 00 25  .<..i...$j.....%
04F0: 02 00 10 6B 80 00 00 05  03 01 10 6C 80 01 50 05  ...k.......l..P.
0500: 03 00 00 00 10 9D 00 E6  1B 02 10 00 00 9D 00 16  ................
0510: 1C 03 10 00 00 9D 00 86  1B 04 10 00 00 9D 00 B6  ................
0520: 1B 05 10 00 00 93 02 10  1D 6D 80 23 03 06 10 6E  .........m.#...n
0530: 80 03 07 10 6F 80 03 08  10 70 80 03 09 10 71 80  ....o....p....q.
0540: 1D 72 80 23 1D 73 80 23  93 03 80 03 01 10 6C 80  .r.#.s.#......l.
0550: 01 67 05 02 00 10 00 80  00 67 05 1D 27 80 23 03  .g.......g..'.#.
0560: 01 10 03 80 01 67 05 2E  21 00                    .....g..!.      
```

#### Opcodes

```
  0: 0x03DA [0x1E] EventEntity looks at LocalPlayer and starts talking
  1: 0x03DF [0x1C] WAIT(1* ticks)
  2: 0x03E2 [0x6E] EventEntity uses emote 32*
  3: 0x03E9 [0x99] Wait for EventEntity animation to complete
  4: 0x03EE [0x1D] PRINT_EVENT_MESSAGE(message_id=8875*)
     "Oho, was that a figment of my imagination, or did your aura just resonate with mine? Pardon me if it took a moment to realize that someone of such low station as you could possibly hope to pique my interest."
  5: 0x03F1 [0x23] WAIT_FOR_DIALOG_INTERACTION
  6: 0x03F2 [0x59] UPDATE_ENTITY_DATA: Check if EventEntity is performing moving action
  7: 0x03F8 [0x1D] PRINT_EVENT_MESSAGE(message_id=8876*)
     "...I am sorry if you have been offended by the truth, but you adventurers have given me little reason to reconsider my position. If you cannot handle the sparks that fly from my tongue, perhaps you should invest in a thicker skin before concerning yourself with weapons."
  8: 0x03FB [0x23] WAIT_FOR_DIALOG_INTERACTION
  9: 0x03FC [0x1D] PRINT_EVENT_MESSAGE(message_id=8827*)
     "Yes, it would certainly do you well to know my name. I go by Oboro, and as a blacksmith from the Far East, I contrive exquisite instruments of assault almost from thin air."
 10: 0x03FF [0x23] WAIT_FOR_DIALOG_INTERACTION
 11: 0x0400 [0x1D] PRINT_EVENT_MESSAGE(message_id=8828*)
     "While I am undoubtedly the most accomplished smith in my homeland, I am not an arrogant Elvaan. I have heard the rumors of Borghertz's greatness and have come to broaden my horizons under his wing."
 12: 0x0403 [0x23] WAIT_FOR_DIALOG_INTERACTION
 13: 0x0404 [0x1D] PRINT_EVENT_MESSAGE(message_id=8829*)
     "Know you of Borghertz, the legendary blacksmith revered throughout the Far East?"
 14: 0x0407 [0x23] WAIT_FOR_DIALOG_INTERACTION
 15: 0x0408 [0x24] CREATE_DIALOG(message_id=8830*, default_option=0*, option_flags=0*)
     "Do you know Borghertz? [In fact, I do...or did./Even if I did, I wouldn't tell you.]"
 16: 0x040F [0x25] WAIT_DIALOG_SELECT()
 17: 0x0410 [0x02] IF !(Work_Zone[0] == 0*) GOTO 0x041F
 18: 0x0418 [0x1D] PRINT_EVENT_MESSAGE(message_id=8831*)
     "What!? He has passed on and hammers away happily upon the big anvil in the sky!?"
 19: 0x041B [0x23] WAIT_FOR_DIALOG_INTERACTION
 20: 0x041C [0x01] GOTO 0x042E
 21: 0x041F [0x02] IF !(Work_Zone[0] == 1*) GOTO 0x042E
 22: 0x0427 [0x1D] PRINT_EVENT_MESSAGE(message_id=8832*)
     "Of course someone of your inferior stature would not. That is all well and good, however, for we are not all destined for greatness."
 23: 0x042A [0x23] WAIT_FOR_DIALOG_INTERACTION
 24: 0x042B [0x01] GOTO 0x042E

SUBROUTINE_042E:
 25: 0x042E [0x1D] PRINT_EVENT_MESSAGE(message_id=8877*)
     "I grow weary of elucidating obvious information to a clodpoll such as you, but at least your skills with a weapon look to be sharper than your mind."
 26: 0x0431 [0x23] WAIT_FOR_DIALOG_INTERACTION
 27: 0x0432 [0x1D] PRINT_EVENT_MESSAGE(message_id=8878*)
     "A lauded blacksmith like myself can decipher in an instant that your piece is of some merit..."some" being the operative word."
 28: 0x0435 [0x23] WAIT_FOR_DIALOG_INTERACTION
 29: 0x0436 [0x1D] PRINT_EVENT_MESSAGE(message_id=8879*)
     "No need to get defensive. Yeesh, it is amazing how you were able to survive any battles with a head as hot as that."
 30: 0x0439 [0x23] WAIT_FOR_DIALOG_INTERACTION
 31: 0x043A [0x1D] PRINT_EVENT_MESSAGE(message_id=8880*)
     "What I was trying to say before I was so rudely interrupted is that even I at times require your assistance. While I may not be able to trust in your brains, I can put a modicum of faith in your brawn."
 32: 0x043D [0x23] WAIT_FOR_DIALOG_INTERACTION
 33: 0x043E [0x1D] PRINT_EVENT_MESSAGE(message_id=8881*)
     "As for your reward, it shall be an armament more resilient than anything you have wielded previously. Do you not wish to hold in your hands greatness incarnate--fashioned by the best smithy in the land?"
 34: 0x0441 [0x23] WAIT_FOR_DIALOG_INTERACTION
 35: 0x0442 [0x24] CREATE_DIALOG(message_id=8882*, default_option=0*, option_flags=0*)
     "Do you want said equipment? [Do you even have to ask!?/Not if you make it.]"
 36: 0x0449 [0x25] WAIT_DIALOG_SELECT()
 37: 0x044A [0x02] IF !(Work_Zone[0] == 0*) GOTO 0x0553
 38: 0x0452 [0x42] SET_CLI_EVENT_CANCEL_DATA()
 39: 0x0453 [0x1D] PRINT_EVENT_MESSAGE(message_id=8883*)
     "I had the utmost confidence that such talk would get you slobbering in anticipation. The best part is that you will not even have to use that pea-sized brain of yours."
 40: 0x0456 [0x23] WAIT_FOR_DIALOG_INTERACTION
 41: 0x0457 [0x1D] PRINT_EVENT_MESSAGE(message_id=8884*)
     "Simply procure me a few materials that have yet to find their way to market and I will lend you my boundless prowess to create a tool of extraordinary puissance."
 42: 0x045A [0x23] WAIT_FOR_DIALOG_INTERACTION
 43: 0x045B [0x1D] PRINT_EVENT_MESSAGE(message_id=8885*)
     "You need not even trouble yourself over sums, for they are all divvied up according to weapon."
 44: 0x045E [0x23] WAIT_FOR_DIALOG_INTERACTION
 45: 0x045F [0x1D] PRINT_EVENT_MESSAGE(message_id=8886*)
     "As long as you can muster the determination to choose an item, I will tell you the type and number of materials you must amass for me to craft it."
 46: 0x0462 [0x23] WAIT_FOR_DIALOG_INTERACTION
 47: 0x0463 [0x1D] PRINT_EVENT_MESSAGE(message_id=8887*)
     "Designate which you will from the list, which I shall show you henceforth, to begin the adventure."
 48: 0x0466 [0x23] WAIT_FOR_DIALOG_INTERACTION
 49: 0x0467 [0x03] Work_Zone[2] = 20860*
 50: 0x046C [0x03] Work_Zone[3] = 20534*
 51: 0x0471 [0x03] Work_Zone[4] = 21110*
 52: 0x0476 [0x03] Work_Zone[5] = 21173*
 53: 0x047B [0x03] Work_Zone[6] = 20720*
 54: 0x0480 [0x03] Work_Zone[7] = 20618*
 55: 0x0485 [0x03] Work_Zone[8] = 28648*
 56: 0x048A [0x03] Work_Zone[9] = 20904*
 57: 0x048F [0x03] Work_Zone_1700[0] = 20811*
 58: 0x0494 [0x03] Work_Zone_1700[1] = 21407*
