# 17784872 - Ramicharaux

## Common Data

| Field            | Value                |
|------------------|----------------------|
| Zone             | Port Jeuno (ID: 246) |
| Block Size       | 1740 bytes           |
| Total Events     | 42                   |
| References Count | 82                   |

## List of Events

| Event ID                   | Entrypoint   |   Size |   Instructions |
|----------------------------|--------------|--------|----------------|
| [65535](#event-65535)      | 0x0000       |      1 |              1 |
| [60](#event-60)            | 0x0001       |     64 |             12 |
| [324](#event-324)          | 0x0041       |     18 |              4 |
| [325](#event-325)          | 0x0053       |     18 |              4 |
| [327](#event-327)          | 0x0065       |     18 |              4 |
| [331](#event-331)          | 0x0077       |     18 |              4 |
| [332](#event-332)          | 0x0089       |     18 |              4 |
| [333](#event-333)          | 0x009B       |     18 |              4 |
| [334](#event-334)          | 0x00AD       |     18 |              4 |
| [335](#event-335)          | 0x00BF       |     18 |              4 |
| [336](#event-336)          | 0x00D1       |     18 |              4 |
| [337](#event-337)          | 0x00E3       |     18 |              4 |
| [338](#event-338)          | 0x00F5       |     18 |              4 |
| [340](#event-340)          | 0x0107       |     18 |              4 |
| [341](#event-341)          | 0x0119       |     18 |              4 |
| [342](#event-342)          | 0x012B       |     18 |              4 |
| [343](#event-343)          | 0x013D       |     18 |              4 |
| [344](#event-344)          | 0x014F       |     18 |              4 |
| [345](#event-345)          | 0x0161       |     18 |              4 |
| [65535.1](#event-655351)   | 0x0173       |     40 |              8 |
| [65535.2](#event-655352)   | 0x019B       |     40 |              8 |
| [65535.3](#event-655353)   | 0x01C3       |    139 |             22 |
| [65535.4](#event-655354)   | 0x024E       |     15 |              5 |
| [65535.5](#event-655355)   | 0x025D       |     15 |              5 |
| [65535.6](#event-655356)   | 0x026C       |     30 |              8 |
| [65535.7](#event-655357)   | 0x028A       |     16 |              2 |
| [65535.8](#event-655358)   | 0x029A       |     33 |              7 |
| [65535.9](#event-655359)   | 0x02BB       |     33 |              7 |
| [65535.10](#event-6553510) | 0x02DC       |     45 |             13 |
| [65535.11](#event-6553511) | 0x0309       |    139 |             22 |
| [65535.12](#event-6553512) | 0x0394       |     15 |              5 |
| [65535.13](#event-6553513) | 0x03A3       |     15 |              5 |
| [65535.14](#event-6553514) | 0x03B2       |     15 |              5 |
| [65535.15](#event-6553515) | 0x03C1       |     80 |             13 |
| [65535.16](#event-6553516) | 0x0411       |     15 |              5 |
| [65535.17](#event-6553517) | 0x0420       |     15 |              5 |
| [65535.18](#event-6553518) | 0x042F       |     15 |              5 |
| [65535.19](#event-6553519) | 0x043E       |     15 |              5 |
| [65535.20](#event-6553520) | 0x044D       |     15 |              5 |
| [65535.21](#event-6553521) | 0x045C       |     53 |             10 |
| [65535.22](#event-6553522) | 0x0491       |     58 |             11 |
| [443](#event-443)          | 0x04CB       |      1 |              1 |

## DAT References (imed_data)

|   Index | Hex Value   |   Dec Value |
|---------|-------------|-------------|
|       0 | 0x0014      |          20 |
|       1 | 0x1BB8      |        7096 |
|       2 | 0x1BB9      |        7097 |
|       3 | 0x0015      |          21 |
|       4 | 0x005A      |          90 |
|       5 | 0x000D      |          13 |
|       6 | 0xFFFF43BD  |  4294919101 |
|       7 | 0x0E16      |        3606 |
|       8 | 0x0000      |           0 |
|       9 | 0x03CD      |         973 |
|      10 | 0x0034      |          52 |
|      11 | 0x0078      |         120 |
|      12 | 0x000B      |          11 |
|      13 | 0x5D1F      |       23839 |
|      14 | 0x1781      |        6017 |
|      15 | 0x02AF      |         687 |
|      16 | 0x0051      |          81 |
|      17 | 0x002D      |          45 |
|      18 | 0x0005      |           5 |
|      19 | 0x001E      |          30 |
|      20 | 0x08AE      |        2222 |
|      21 | 0x004B      |          75 |
|      22 | 0x000F      |          15 |
|      23 | 0x0025      |          37 |
|      24 | 0xFFFEC504  |  4294886660 |
|      25 | 0xFFFFEAAC  |  4294961836 |
|      26 | 0x0027      |          39 |
|      27 | 0xFFFEC210  |  4294885904 |
|      28 | 0xFFFFEF62  |  4294963042 |
|      29 | 0x0029      |          41 |
|      30 | 0xFFFEBC38  |  4294884408 |
|      31 | 0xFFFFED5A  |  4294962522 |
|      32 | 0x0006      |           6 |
|      33 | 0x000A      |          10 |
|      34 | 0xFFFEAFBE  |  4294881214 |
|      35 | 0xFFFFFA5E  |  4294965854 |
|      36 | 0x00D8      |         216 |
|      37 | 0x000C      |          12 |
|      38 | 0xFFFE7646  |  4294866502 |
|      39 | 0xFFFFF1A1  |  4294963617 |
|      40 | 0x003C      |          60 |
|      41 | 0x0028      |          40 |
|      42 | 0xFFFF89FB  |  4294937083 |
|      43 | 0xFFFFFA22  |  4294965794 |
|      44 | 0xFFFE86B8  |  4294870712 |
|      45 | 0xFFFFDEB9  |  4294958777 |
|      46 | 0x0E02      |        3586 |
|      47 | 0x0168      |         360 |
|      48 | 0xFFFE880F  |  4294871055 |
|      49 | 0x22A8      |        8872 |
|      50 | 0x0200      |         512 |
|      51 | 0xFFFF32B5  |  4294914741 |
|      52 | 0x079E      |        1950 |
|      53 | 0xFFFF402C  |  4294918188 |
|      54 | 0x0935      |        2357 |
|      55 | 0xFFFF35EA  |  4294915562 |
|      56 | 0x0B3F      |        2879 |
|      57 | 0xFFFF3A12  |  4294916626 |
|      58 | 0x09AA      |        2474 |
|      59 | 0xFFFE9692  |  4294874770 |
|      60 | 0xFFFFF68E  |  4294964878 |
|      61 | 0x0026      |          38 |
|      62 | 0xFFFE7DEB  |  4294868459 |
|      63 | 0xFFFFF5B0  |  4294964656 |
|      64 | 0x1387      |        4999 |
|      65 | 0xFFFFFCE1  |  4294966497 |
|      66 | 0xFFFED394  |  4294890388 |
|      67 | 0xFFFFF65F  |  4294964831 |
|      68 | 0xFFFF38F4  |  4294916340 |
|      69 | 0xFFFFF821  |  4294965281 |
|      70 | 0xFFFE5E8F  |  4294860431 |
|      71 | 0x0899      |        2201 |
|      72 | 0xFFFF7085  |  4294930565 |
|      73 | 0xFFFFF716  |  4294965014 |
|      74 | 0xFFFF1D41  |  4294909249 |
|      75 | 0x24D9      |        9433 |
|      76 | 0xFFFF236E  |  4294910830 |
|      77 | 0x2722      |       10018 |
|      78 | 0x00D7      |         215 |
|      79 | 0xFFFF34A9  |  4294915241 |
|      80 | 0x0881      |        2177 |
|      81 | 0x0013      |          19 |

## String References

- **7096**: I can't believe those boats without wings can fly. I'll never ride on such a thing, so I walk everywhere.
- **7097**: I'm sure they're a fine way to get around, but the whole concept seems fake to me.

## Events

### Event 65535

#### Metadata

| Field        | Value   |
|--------------|---------|
| Entrypoint   | 0x0000  |
| Data Size    | 1 bytes |
| Instructions | 1       |

```
      00 01 02 03 04 05 06 07  08 09 0A 0B 0C 0D 0E 0F
      -- -- -- -- -- -- -- --  -- -- -- -- -- -- -- --
0000: 00                                                .               
```

#### Opcodes

```
  0: 0x0000 [0x00] END_REQSTACK()
```

### Event 60

#### Metadata

| Field        | Value    |
|--------------|----------|
| Entrypoint   | 0x0001   |
| Data Size    | 64 bytes |
| Instructions | 12       |

```
      00 01 02 03 04 05 06 07  08 09 0A 0B 0C 0D 0E 0F
      -- -- -- -- -- -- -- --  -- -- -- -- -- -- -- --
0000:    1E F0 FF FF 7F 6F 76  F8 FF FF 7F 66 00 80 F8   .....ov....f...
0010: FF FF 7F F8 FF FF 7F 74  68 6B 31 1D 01 80 23 1D  .......thk1...#.
0020: 02 80 23 66 00 80 F8 FF  FF 7F F8 FF FF 7F 74 68  ..#f..........th
0030: 6B 32 53 F8 FF FF 7F F8  FF FF 7F 74 68 6B 32 21  k2S........thk2!
0040: 00                                                .               
```

#### Opcodes

```
  0: 0x0001 [0x1E] EventEntity looks at LocalPlayer and starts talking
  1: 0x0006 [0x6F] WAIT_FRAME_DELAY: Yield until WaitTime reaches zero
  2: 0x0007 [0x76] CHECK_ENTITY_RENDER_FLAGS: Wait until EventEntity Render.Flags0 and Render.Flags3 conditions are met
  3: 0x000C [0x66] LOAD_EXT_SCHEDULER_MAIN: Load scheduler "thk1" with entities [EventEntity, EventEntity], work=20*
  4: 0x001B [0x1D] PRINT_EVENT_MESSAGE(message_id=7096*)
    → "I can't believe those boats without wings can fly. I'll never ride on such a thing, so I walk everywhere."
  5: 0x001E [0x23] WAIT_FOR_DIALOG_INTERACTION
  6: 0x001F [0x1D] PRINT_EVENT_MESSAGE(message_id=7097*)
    → "I'm sure they're a fine way to get around, but the whole concept seems fake to me."
  7: 0x0022 [0x23] WAIT_FOR_DIALOG_INTERACTION
  8: 0x0023 [0x66] LOAD_EXT_SCHEDULER_MAIN: Load scheduler "thk2" with entities [EventEntity, EventEntity], work=20*
  9: 0x0032 [0x53] WAIT_SCHEDULER_TASK: Wait for scheduler "thk2" with entities [EventEntity, EventEntity]
 10: 0x003F [0x21] END_EVENT
 11: 0x0040 [0x00] END_REQSTACK()
```

### Event 324

#### Metadata

| Field        | Value    |
|--------------|----------|
| Entrypoint   | 0x0041   |
| Data Size    | 18 bytes |
| Instructions | 4        |

```
      00 01 02 03 04 05 06 07  08 09 0A 0B 0C 0D 0E 0F
      -- -- -- -- -- -- -- --  -- -- -- -- -- -- -- --
0040:    92 01 F8 FF FF 7F 94  01 F8 FF FF 7F 80 F8 FF   ...............
0050: FF 7F 00                                          ...             
```

#### Opcodes

```
  0: 0x0041 [0x92] EventEntity->Render.Flags3 ^= 0x01
  1: 0x0047 [0x94] EventEntity->Render.Flags3 ^= 0x01
  2: 0x004D [0x80] LOAD_WAIT(entity=EventEntity)
  3: 0x0052 [0x00] END_REQSTACK()
```

### Event 325

#### Metadata

| Field        | Value    |
|--------------|----------|
| Entrypoint   | 0x0053   |
| Data Size    | 18 bytes |
| Instructions | 4        |

```
      00 01 02 03 04 05 06 07  08 09 0A 0B 0C 0D 0E 0F
      -- -- -- -- -- -- -- --  -- -- -- -- -- -- -- --
0050:          92 01 F8 FF FF  7F 94 01 F8 FF FF 7F 80     .............
0060: F8 FF FF 7F 00                                    .....           
```

#### Opcodes

```
  0: 0x0053 [0x92] EventEntity->Render.Flags3 ^= 0x01
  1: 0x0059 [0x94] EventEntity->Render.Flags3 ^= 0x01
  2: 0x005F [0x80] LOAD_WAIT(entity=EventEntity)
  3: 0x0064 [0x00] END_REQSTACK()
```

### Event 327

#### Metadata

| Field        | Value    |
|--------------|----------|
| Entrypoint   | 0x0065   |
| Data Size    | 18 bytes |
| Instructions | 4        |

```
      00 01 02 03 04 05 06 07  08 09 0A 0B 0C 0D 0E 0F
      -- -- -- -- -- -- -- --  -- -- -- -- -- -- -- --
0060:                92 01 F8  FF FF 7F 94 01 F8 FF FF       ...........
0070: 7F 80 F8 FF FF 7F 00                              .......         
```

#### Opcodes

```
  0: 0x0065 [0x92] EventEntity->Render.Flags3 ^= 0x01
  1: 0x006B [0x94] EventEntity->Render.Flags3 ^= 0x01
  2: 0x0071 [0x80] LOAD_WAIT(entity=EventEntity)
  3: 0x0076 [0x00] END_REQSTACK()
```

### Event 331

#### Metadata

| Field        | Value    |
|--------------|----------|
| Entrypoint   | 0x0077   |
| Data Size    | 18 bytes |
| Instructions | 4        |

```
      00 01 02 03 04 05 06 07  08 09 0A 0B 0C 0D 0E 0F
      -- -- -- -- -- -- -- --  -- -- -- -- -- -- -- --
0070:                      92  01 F8 FF FF 7F 94 01 F8         .........
0080: FF FF 7F 80 F8 FF FF 7F  00                       .........       
```

#### Opcodes

```
  0: 0x0077 [0x92] EventEntity->Render.Flags3 ^= 0x01
  1: 0x007D [0x94] EventEntity->Render.Flags3 ^= 0x01
  2: 0x0083 [0x80] LOAD_WAIT(entity=EventEntity)
  3: 0x0088 [0x00] END_REQSTACK()
```

### Event 332

#### Metadata

| Field        | Value    |
|--------------|----------|
| Entrypoint   | 0x0089   |
| Data Size    | 18 bytes |
| Instructions | 4        |

```
      00 01 02 03 04 05 06 07  08 09 0A 0B 0C 0D 0E 0F
      -- -- -- -- -- -- -- --  -- -- -- -- -- -- -- --
0080:                             92 01 F8 FF FF 7F 94           .......
0090: 01 F8 FF FF 7F 80 F8 FF  FF 7F 00                 ...........     
```

#### Opcodes

```
  0: 0x0089 [0x92] EventEntity->Render.Flags3 ^= 0x01
  1: 0x008F [0x94] EventEntity->Render.Flags3 ^= 0x01
  2: 0x0095 [0x80] LOAD_WAIT(entity=EventEntity)
  3: 0x009A [0x00] END_REQSTACK()
```

### Event 333

#### Metadata

| Field        | Value    |
|--------------|----------|
| Entrypoint   | 0x009B   |
| Data Size    | 18 bytes |
| Instructions | 4        |

```
      00 01 02 03 04 05 06 07  08 09 0A 0B 0C 0D 0E 0F
      -- -- -- -- -- -- -- --  -- -- -- -- -- -- -- --
0090:                                   92 01 F8 FF FF             .....
00A0: 7F 94 01 F8 FF FF 7F 80  F8 FF FF 7F 00           .............   
```

#### Opcodes

```
  0: 0x009B [0x92] EventEntity->Render.Flags3 ^= 0x01
  1: 0x00A1 [0x94] EventEntity->Render.Flags3 ^= 0x01
  2: 0x00A7 [0x80] LOAD_WAIT(entity=EventEntity)
  3: 0x00AC [0x00] END_REQSTACK()
```

### Event 334

#### Metadata

| Field        | Value    |
|--------------|----------|
| Entrypoint   | 0x00AD   |
| Data Size    | 18 bytes |
| Instructions | 4        |

```
      00 01 02 03 04 05 06 07  08 09 0A 0B 0C 0D 0E 0F
      -- -- -- -- -- -- -- --  -- -- -- -- -- -- -- --
00A0:                                         92 01 F8               ...
00B0: FF FF 7F 94 01 F8 FF FF  7F 80 F8 FF FF 7F 00     ............... 
```

#### Opcodes

```
  0: 0x00AD [0x92] EventEntity->Render.Flags3 ^= 0x01
  1: 0x00B3 [0x94] EventEntity->Render.Flags3 ^= 0x01
  2: 0x00B9 [0x80] LOAD_WAIT(entity=EventEntity)
  3: 0x00BE [0x00] END_REQSTACK()
```

### Event 335

#### Metadata

| Field        | Value    |
|--------------|----------|
| Entrypoint   | 0x00BF   |
| Data Size    | 18 bytes |
| Instructions | 4        |

```
      00 01 02 03 04 05 06 07  08 09 0A 0B 0C 0D 0E 0F
      -- -- -- -- -- -- -- --  -- -- -- -- -- -- -- --
00B0:                                               92                 .
00C0: 01 F8 FF FF 7F 94 01 F8  FF FF 7F 80 F8 FF FF 7F  ................
00D0: 00                                                .               
```

#### Opcodes

```
  0: 0x00BF [0x92] EventEntity->Render.Flags3 ^= 0x01
  1: 0x00C5 [0x94] EventEntity->Render.Flags3 ^= 0x01
  2: 0x00CB [0x80] LOAD_WAIT(entity=EventEntity)
  3: 0x00D0 [0x00] END_REQSTACK()
```

### Event 336

#### Metadata

| Field        | Value    |
|--------------|----------|
| Entrypoint   | 0x00D1   |
| Data Size    | 18 bytes |
| Instructions | 4        |

```
      00 01 02 03 04 05 06 07  08 09 0A 0B 0C 0D 0E 0F
      -- -- -- -- -- -- -- --  -- -- -- -- -- -- -- --
00D0:    92 01 F8 FF FF 7F 94  01 F8 FF FF 7F 80 F8 FF   ...............
00E0: FF 7F 00                                          ...             
```

#### Opcodes

```
  0: 0x00D1 [0x92] EventEntity->Render.Flags3 ^= 0x01
  1: 0x00D7 [0x94] EventEntity->Render.Flags3 ^= 0x01
  2: 0x00DD [0x80] LOAD_WAIT(entity=EventEntity)
  3: 0x00E2 [0x00] END_REQSTACK()
```

### Event 337

#### Metadata

| Field        | Value    |
|--------------|----------|
| Entrypoint   | 0x00E3   |
| Data Size    | 18 bytes |
| Instructions | 4        |

```
      00 01 02 03 04 05 06 07  08 09 0A 0B 0C 0D 0E 0F
      -- -- -- -- -- -- -- --  -- -- -- -- -- -- -- --
00E0:          92 01 F8 FF FF  7F 94 01 F8 FF FF 7F 80     .............
00F0: F8 FF FF 7F 00                                    .....           
```

#### Opcodes

```
  0: 0x00E3 [0x92] EventEntity->Render.Flags3 ^= 0x01
  1: 0x00E9 [0x94] EventEntity->Render.Flags3 ^= 0x01
  2: 0x00EF [0x80] LOAD_WAIT(entity=EventEntity)
  3: 0x00F4 [0x00] END_REQSTACK()
```

### Event 338

#### Metadata

| Field        | Value    |
|--------------|----------|
| Entrypoint   | 0x00F5   |
| Data Size    | 18 bytes |
| Instructions | 4        |

```
      00 01 02 03 04 05 06 07  08 09 0A 0B 0C 0D 0E 0F
      -- -- -- -- -- -- -- --  -- -- -- -- -- -- -- --
00F0:                92 01 F8  FF FF 7F 94 01 F8 FF FF       ...........
0100: 7F 80 F8 FF FF 7F 00                              .......         
```

#### Opcodes

```
  0: 0x00F5 [0x92] EventEntity->Render.Flags3 ^= 0x01
  1: 0x00FB [0x94] EventEntity->Render.Flags3 ^= 0x01
  2: 0x0101 [0x80] LOAD_WAIT(entity=EventEntity)
  3: 0x0106 [0x00] END_REQSTACK()
```

### Event 340

#### Metadata

| Field        | Value    |
|--------------|----------|
| Entrypoint   | 0x0107   |
| Data Size    | 18 bytes |
| Instructions | 4        |

```
      00 01 02 03 04 05 06 07  08 09 0A 0B 0C 0D 0E 0F
      -- -- -- -- -- -- -- --  -- -- -- -- -- -- -- --
0100:                      92  01 F8 FF FF 7F 94 01 F8         .........
0110: FF FF 7F 80 F8 FF FF 7F  00                       .........       
```

#### Opcodes

```
  0: 0x0107 [0x92] EventEntity->Render.Flags3 ^= 0x01
  1: 0x010D [0x94] EventEntity->Render.Flags3 ^= 0x01
  2: 0x0113 [0x80] LOAD_WAIT(entity=EventEntity)
  3: 0x0118 [0x00] END_REQSTACK()
```

### Event 341

#### Metadata

| Field        | Value    |
|--------------|----------|
| Entrypoint   | 0x0119   |
| Data Size    | 18 bytes |
| Instructions | 4        |

```
      00 01 02 03 04 05 06 07  08 09 0A 0B 0C 0D 0E 0F
      -- -- -- -- -- -- -- --  -- -- -- -- -- -- -- --
0110:                             92 01 F8 FF FF 7F 94           .......
0120: 01 F8 FF FF 7F 80 F8 FF  FF 7F 00                 ...........     
```

#### Opcodes

```
  0: 0x0119 [0x92] EventEntity->Render.Flags3 ^= 0x01
  1: 0x011F [0x94] EventEntity->Render.Flags3 ^= 0x01
  2: 0x0125 [0x80] LOAD_WAIT(entity=EventEntity)
  3: 0x012A [0x00] END_REQSTACK()
```

### Event 342

#### Metadata

| Field        | Value    |
|--------------|----------|
| Entrypoint   | 0x012B   |
| Data Size    | 18 bytes |
| Instructions | 4        |

```
      00 01 02 03 04 05 06 07  08 09 0A 0B 0C 0D 0E 0F
      -- -- -- -- -- -- -- --  -- -- -- -- -- -- -- --
0120:                                   92 01 F8 FF FF             .....
0130: 7F 94 01 F8 FF FF 7F 80  F8 FF FF 7F 00           .............   
```

#### Opcodes

```
  0: 0x012B [0x92] EventEntity->Render.Flags3 ^= 0x01
  1: 0x0131 [0x94] EventEntity->Render.Flags3 ^= 0x01
  2: 0x0137 [0x80] LOAD_WAIT(entity=EventEntity)
  3: 0x013C [0x00] END_REQSTACK()
```

### Event 343

#### Metadata

| Field        | Value    |
|--------------|----------|
| Entrypoint   | 0x013D   |
| Data Size    | 18 bytes |
| Instructions | 4        |

```
      00 01 02 03 04 05 06 07  08 09 0A 0B 0C 0D 0E 0F
      -- -- -- -- -- -- -- --  -- -- -- -- -- -- -- --
0130:                                         92 01 F8               ...
0140: FF FF 7F 94 01 F8 FF FF  7F 80 F8 FF FF 7F 00     ............... 
```

#### Opcodes

```
  0: 0x013D [0x92] EventEntity->Render.Flags3 ^= 0x01
  1: 0x0143 [0x94] EventEntity->Render.Flags3 ^= 0x01
  2: 0x0149 [0x80] LOAD_WAIT(entity=EventEntity)
  3: 0x014E [0x00] END_REQSTACK()
```

### Event 344

#### Metadata

| Field        | Value    |
|--------------|----------|
| Entrypoint   | 0x014F   |
| Data Size    | 18 bytes |
| Instructions | 4        |

```
      00 01 02 03 04 05 06 07  08 09 0A 0B 0C 0D 0E 0F
      -- -- -- -- -- -- -- --  -- -- -- -- -- -- -- --
0140:                                               92                 .
0150: 01 F8 FF FF 7F 94 01 F8  FF FF 7F 80 F8 FF FF 7F  ................
0160: 00                                                .               
```

#### Opcodes

```
  0: 0x014F [0x92] EventEntity->Render.Flags3 ^= 0x01
  1: 0x0155 [0x94] EventEntity->Render.Flags3 ^= 0x01
  2: 0x015B [0x80] LOAD_WAIT(entity=EventEntity)
  3: 0x0160 [0x00] END_REQSTACK()
```

### Event 345

#### Metadata

| Field        | Value    |
|--------------|----------|
| Entrypoint   | 0x0161   |
| Data Size    | 18 bytes |
| Instructions | 4        |

```
      00 01 02 03 04 05 06 07  08 09 0A 0B 0C 0D 0E 0F
      -- -- -- -- -- -- -- --  -- -- -- -- -- -- -- --
0160:    92 01 F8 FF FF 7F 94  01 F8 FF FF 7F 80 F8 FF   ...............
0170: FF 7F 00                                          ...             
```

#### Opcodes

```
  0: 0x0161 [0x92] EventEntity->Render.Flags3 ^= 0x01
  1: 0x0167 [0x94] EventEntity->Render.Flags3 ^= 0x01
  2: 0x016D [0x80] LOAD_WAIT(entity=EventEntity)
  3: 0x0172 [0x00] END_REQSTACK()
```

### Event 65535.1

#### Metadata

| Field        | Value    |
|--------------|----------|
| Entrypoint   | 0x0173   |
| Data Size    | 40 bytes |
| Instructions | 8        |

```
      00 01 02 03 04 05 06 07  08 09 0A 0B 0C 0D 0E 0F
      -- -- -- -- -- -- -- --  -- -- -- -- -- -- -- --
0170:          66 03 80 28 60  0F 01 28 60 0F 01 64 69     f..(`..(`..di
0180: 73 30 1C 04 80 32 05 80  1F 00 06 80 07 80 08 80  s0...2..........
0190: 1F 01 6F 4B F8 FF FF 7F  09 80 00                 ..oK.......     
```

#### Opcodes

```
  0: 0x0173 [0x66] LOAD_EXT_SCHEDULER_MAIN: Load scheduler "dis0" with entities [Ramicharaux (ID: 17784872/0x010F6028), Ramicharaux (ID: 17784872/0x010F6028)], work=21*
  1: 0x0182 [0x1C] WAIT(90* ticks)
  2: 0x0185 [0x32] ExtData[1]->MainSpeed = 13* * 0.1
  3: 0x0188 [0x1F] MOVE_ENTITY: EventEntity moves to X=-48.195*, Z=3.606*, Y=0.000*
  4: 0x0190 [0x1F] MOVE_ENTITY: Update entity position (mode=1)
  5: 0x0192 [0x6F] WAIT_FRAME_DELAY: Yield until WaitTime reaches zero
  6: 0x0193 [0x4B] UPDATE_ENTITY_YAW(entity=EventEntity, yaw=5.3°*)
  7: 0x019A [0x00] END_REQSTACK()
```

### Event 65535.2

#### Metadata

| Field        | Value    |
|--------------|----------|
| Entrypoint   | 0x019B   |
| Data Size    | 40 bytes |
| Instructions | 8        |

```
      00 01 02 03 04 05 06 07  08 09 0A 0B 0C 0D 0E 0F
      -- -- -- -- -- -- -- --  -- -- -- -- -- -- -- --
0190:                                   66 0A 80 43 60             f..C`
01A0: 0F 01 43 60 0F 01 64 69  73 30 1C 0B 80 32 0C 80  ..C`..dis0...2..
01B0: 1F 00 0D 80 0E 80 08 80  1F 01 6F 4B F8 FF FF 7F  ..........oK....
01C0: 0F 80 00                                          ...             
```

#### Opcodes

```
  0: 0x019B [0x66] LOAD_EXT_SCHEDULER_MAIN: Load scheduler "dis0" with entities [Khumo Daramasteh (ID: 17784899/0x010F6043), Khumo Daramasteh (ID: 17784899/0x010F6043)], work=52*
  1: 0x01AA [0x1C] WAIT(120* ticks)
  2: 0x01AD [0x32] ExtData[1]->MainSpeed = 11* * 0.1
  3: 0x01B0 [0x1F] MOVE_ENTITY: EventEntity moves to X=23.839*, Z=6.017*, Y=0.000*
  4: 0x01B8 [0x1F] MOVE_ENTITY: Update entity position (mode=1)
  5: 0x01BA [0x6F] WAIT_FRAME_DELAY: Yield until WaitTime reaches zero
  6: 0x01BB [0x4B] UPDATE_ENTITY_YAW(entity=EventEntity, yaw=3.8°*)
  7: 0x01C2 [0x00] END_REQSTACK()
```

### Event 65535.3

#### Metadata

| Field        | Value     |
|--------------|-----------|
| Entrypoint   | 0x01C3    |
| Data Size    | 139 bytes |
| Instructions | 22        |

```
      00 01 02 03 04 05 06 07  08 09 0A 0B 0C 0D 0E 0F
      -- -- -- -- -- -- -- --  -- -- -- -- -- -- -- --
01C0:          5B 10 80 06 60  0F 01 06 60 0F 01 68 61     [...`...`..ha
01D0: 69 30 1C 11 80 4A 04 60  0F 01 06 60 0F 01 1C 12  i0...J.`...`....
01E0: 80 79 00 05 60 0F 01 06  60 0F 01 1C 13 80 4B 06  .y..`...`.....K.
01F0: 60 0F 01 14 80 6F 76 06  60 0F 01 5B 10 80 06 60  `....ov.`..[...`
0200: 0F 01 06 60 0F 01 61 77  77 30 1C 11 80 5B 15 80  ...`..aww0...[..
0210: 04 60 0F 01 04 60 0F 01  74 68 6B 31 1C 16 80 5B  .`...`..thk1...[
0220: 04 80 05 60 0F 01 05 60  0F 01 74 6C 6B 30 1C 04  ...`...`..tlk0..
0230: 80 27 10 04 60 0F 01 21  27 10 05 60 0F 01 20 32  .'..`..!'..`.. 2
0240: 17 80 1F 00 18 80 19 80  08 80 1F 01 6F 00        ............o.  
```

#### Opcodes

```
  0: 0x01C3 [0x5B] LOAD_EXT_SCHEDULER: Load scheduler "hai0" with entities [Jaha Amariyo (ID: 17784838/0x010F6006), Jaha Amariyo (ID: 17784838/0x010F6006)], work=81*
  1: 0x01D2 [0x1C] WAIT(45* ticks)
  2: 0x01D5 [0x4A] Karl (ID: 17784836/0x010F6004) looks at Jaha Amariyo (ID: 17784838/0x010F6006)
  3: 0x01DE [0x1C] WAIT(5* ticks)
  4: 0x01E1 [0x79] Buntz (ID: 17784837/0x010F6005) looks at Jaha Amariyo (ID: 17784838/0x010F6006) (Basic look)
  5: 0x01EB [0x1C] WAIT(30* ticks)
  6: 0x01EE [0x4B] UPDATE_ENTITY_YAW(entity=Jaha Amariyo (ID: 17784838/0x010F6006), yaw=12.2°*)
  7: 0x01F5 [0x6F] WAIT_FRAME_DELAY: Yield until WaitTime reaches zero
  8: 0x01F6 [0x76] CHECK_ENTITY_RENDER_FLAGS: Wait until Jaha Amariyo (ID: 17784838/0x010F6006) Render.Flags0 and Render.Flags3 conditions are met
  9: 0x01FB [0x5B] LOAD_EXT_SCHEDULER: Load scheduler "aww0" with entities [Jaha Amariyo (ID: 17784838/0x010F6006), Jaha Amariyo (ID: 17784838/0x010F6006)], work=81*
 10: 0x020A [0x1C] WAIT(45* ticks)
 11: 0x020D [0x5B] LOAD_EXT_SCHEDULER: Load scheduler "thk1" with entities [Karl (ID: 17784836/0x010F6004), Karl (ID: 17784836/0x010F6004)], work=75*
 12: 0x021C [0x1C] WAIT(15* ticks)
 13: 0x021F [0x5B] LOAD_EXT_SCHEDULER: Load scheduler "tlk0" with entities [Buntz (ID: 17784837/0x010F6005), Buntz (ID: 17784837/0x010F6005)], work=90*
 14: 0x022E [0x1C] WAIT(90* ticks)
 15: 0x0231 [0x27] REQ_SET(priority=0x10, entity_id=Karl (ID: 17784836/0x010F6004), tag_num=0x21)
 16: 0x0238 [0x27] REQ_SET(priority=0x10, entity_id=Buntz (ID: 17784837/0x010F6005), tag_num=0x20)
 17: 0x023F [0x32] ExtData[1]->MainSpeed = 37* * 0.1
 18: 0x0242 [0x1F] MOVE_ENTITY: EventEntity moves to X=-80.636*, Z=-5.460*, Y=0.000*
 19: 0x024A [0x1F] MOVE_ENTITY: Update entity position (mode=1)
 20: 0x024C [0x6F] WAIT_FRAME_DELAY: Yield until WaitTime reaches zero
 21: 0x024D [0x00] END_REQSTACK()
```

### Event 65535.4

#### Metadata

| Field        | Value    |
|--------------|----------|
| Entrypoint   | 0x024E   |
| Data Size    | 15 bytes |
| Instructions | 5        |

```
      00 01 02 03 04 05 06 07  08 09 0A 0B 0C 0D 0E 0F
      -- -- -- -- -- -- -- --  -- -- -- -- -- -- -- --
0240:                                            32 1A                2.
0250: 80 1F 00 1B 80 1C 80 08  80 1F 01 6F 00           ...........o.   
```

#### Opcodes

```
  0: 0x024E [0x32] ExtData[1]->MainSpeed = 39* * 0.1
  1: 0x0251 [0x1F] MOVE_ENTITY: EventEntity moves to X=-81.392*, Z=-4.254*, Y=0.000*
  2: 0x0259 [0x1F] MOVE_ENTITY: Update entity position (mode=1)
  3: 0x025B [0x6F] WAIT_FRAME_DELAY: Yield until WaitTime reaches zero
  4: 0x025C [0x00] END_REQSTACK()
```

### Event 65535.5

#### Metadata

| Field        | Value    |
|--------------|----------|
| Entrypoint   | 0x025D   |
| Data Size    | 15 bytes |
| Instructions | 5        |

```
      00 01 02 03 04 05 06 07  08 09 0A 0B 0C 0D 0E 0F
      -- -- -- -- -- -- -- --  -- -- -- -- -- -- -- --
0250:                                         32 1D 80               2..
0260: 1F 00 1E 80 1F 80 08 80  1F 01 6F 00              ..........o.    
```

#### Opcodes

```
  0: 0x025D [0x32] ExtData[1]->MainSpeed = 41* * 0.1
  1: 0x0260 [0x1F] MOVE_ENTITY: EventEntity moves to X=-82.888*, Z=-4.774*, Y=0.000*
  2: 0x0268 [0x1F] MOVE_ENTITY: Update entity position (mode=1)
  3: 0x026A [0x6F] WAIT_FRAME_DELAY: Yield until WaitTime reaches zero
  4: 0x026B [0x00] END_REQSTACK()
```

### Event 65535.6

#### Metadata

| Field        | Value    |
|--------------|----------|
| Entrypoint   | 0x026C   |
| Data Size    | 30 bytes |
| Instructions | 8        |

```
      00 01 02 03 04 05 06 07  08 09 0A 0B 0C 0D 0E 0F
      -- -- -- -- -- -- -- --  -- -- -- -- -- -- -- --
0260:                                      6E F8 FF FF              n...
0270: 7F 20 80 99 F8 FF FF 7F  1C 0B 80 32 21 80 1F 00  . .........2!...
0280: 22 80 23 80 08 80 1F 01  6F 00                    ".#.....o.      
```

#### Opcodes

```
  0: 0x026C [0x6E] EventEntity uses emote 6*
  1: 0x0273 [0x99] Wait for EventEntity animation to complete
  2: 0x0278 [0x1C] WAIT(120* ticks)
  3: 0x027B [0x32] ExtData[1]->MainSpeed = 10* * 0.1
  4: 0x027E [0x1F] MOVE_ENTITY: EventEntity moves to X=-86.082*, Z=-1.442*, Y=0.000*
  5: 0x0286 [0x1F] MOVE_ENTITY: Update entity position (mode=1)
  6: 0x0288 [0x6F] WAIT_FRAME_DELAY: Yield until WaitTime reaches zero
  7: 0x0289 [0x00] END_REQSTACK()
```

### Event 65535.7

#### Metadata

| Field        | Value    |
|--------------|----------|
| Entrypoint   | 0x028A   |
| Data Size    | 16 bytes |
| Instructions | 2        |

```
      00 01 02 03 04 05 06 07  08 09 0A 0B 0C 0D 0E 0F
      -- -- -- -- -- -- -- --  -- -- -- -- -- -- -- --
0280:                                5B 24 80 86 60 0F            [$..`.
0290: 01 86 60 0F 01 66 75 6D  30 00                    ..`..fum0.      
```

#### Opcodes

```
  0: 0x028A [0x5B] LOAD_EXT_SCHEDULER: Load scheduler "fum0" with entities [Squintrox Dryeyes (ID: 17784966/0x010F6086), Squintrox Dryeyes (ID: 17784966/0x010F6086)], work=216*
  1: 0x0299 [0x00] END_REQSTACK()
```

### Event 65535.8

#### Metadata

| Field        | Value    |
|--------------|----------|
| Entrypoint   | 0x029A   |
| Data Size    | 33 bytes |
| Instructions | 7        |

```
      00 01 02 03 04 05 06 07  08 09 0A 0B 0C 0D 0E 0F
      -- -- -- -- -- -- -- --  -- -- -- -- -- -- -- --
0290:                                32 25 80 1F 00 26            2%...&
02A0: 80 27 80 08 80 1F 01 6F  1C 16 80 66 13 80 42 60  .'.....o...f..B`
02B0: 0F 01 42 60 0F 01 74 68  6B 31 00                 ..B`..thk1.     
```

#### Opcodes

```
  0: 0x029A [0x32] ExtData[1]->MainSpeed = 12* * 0.1
  1: 0x029D [0x1F] MOVE_ENTITY: EventEntity moves to X=-100.794*, Z=-3.679*, Y=0.000*
  2: 0x02A5 [0x1F] MOVE_ENTITY: Update entity position (mode=1)
  3: 0x02A7 [0x6F] WAIT_FRAME_DELAY: Yield until WaitTime reaches zero
  4: 0x02A8 [0x1C] WAIT(15* ticks)
  5: 0x02AB [0x66] LOAD_EXT_SCHEDULER_MAIN: Load scheduler "thk1" with entities [Naurmaire (ID: 17784898/0x010F6042), Naurmaire (ID: 17784898/0x010F6042)], work=30*
  6: 0x02BA [0x00] END_REQSTACK()
```

### Event 65535.9

#### Metadata

| Field        | Value    |
|--------------|----------|
| Entrypoint   | 0x02BB   |
| Data Size    | 33 bytes |
| Instructions | 7        |

```
      00 01 02 03 04 05 06 07  08 09 0A 0B 0C 0D 0E 0F
      -- -- -- -- -- -- -- --  -- -- -- -- -- -- -- --
02B0:                                   66 21 80 3F 60             f!.?`
02C0: 0F 01 3F 60 0F 01 74 68  6B 32 1C 28 80 32 29 80  ..?`..thk2.(.2).
02D0: 1F 00 2A 80 2B 80 08 80  1F 01 6F 00              ..*.+.....o.    
```

#### Opcodes

```
  0: 0x02BB [0x66] LOAD_EXT_SCHEDULER_MAIN: Load scheduler "thk2" with entities [Marnie (ID: 17784895/0x010F603F), Marnie (ID: 17784895/0x010F603F)], work=10*
  1: 0x02CA [0x1C] WAIT(60* ticks)
  2: 0x02CD [0x32] ExtData[1]->MainSpeed = 40* * 0.1
  3: 0x02D0 [0x1F] MOVE_ENTITY: EventEntity moves to X=-30.213*, Z=-1.502*, Y=0.000*
  4: 0x02D8 [0x1F] MOVE_ENTITY: Update entity position (mode=1)
  5: 0x02DA [0x6F] WAIT_FRAME_DELAY: Yield until WaitTime reaches zero
  6: 0x02DB [0x00] END_REQSTACK()
```

### Event 65535.10

#### Metadata

| Field        | Value    |
|--------------|----------|
| Entrypoint   | 0x02DC   |
| Data Size    | 45 bytes |
| Instructions | 12       |

```
      00 01 02 03 04 05 06 07  08 09 0A 0B 0C 0D 0E 0F
      -- -- -- -- -- -- -- --  -- -- -- -- -- -- -- --
02D0:                                      32 05 80 1F              2...
02E0: 00 2C 80 2D 80 08 80 1F  01 1C 13 80 39 2E 80 1C  .,.-........9...
02F0: 2F 80 1F 00 30 80 31 80  08 80 1F 01 1C 13 80 39  /...0.1........9
0300: 32 80 1C 2F 80 01 DC 02  00                       2../.....       
```

#### Opcodes

```
  0: 0x02DC [0x32] ExtData[1]->MainSpeed = 13* * 0.1
  1: 0x02DF [0x1F] MOVE_ENTITY: EventEntity moves to X=-96.584*, Z=-8.519*, Y=0.000*
  2: 0x02E7 [0x1F] MOVE_ENTITY: Update entity position (mode=1)
  3: 0x02E9 [0x1C] WAIT(30* ticks)
  4: 0x02EC [0x39] SET_ENTITY_DIRECTION(direction=19.7°*)
  5: 0x02EF [0x1C] WAIT(360* ticks)
  6: 0x02F2 [0x1F] MOVE_ENTITY: EventEntity moves to X=-96.241*, Z=8.872*, Y=0.000*
  7: 0x02FA [0x1F] MOVE_ENTITY: Update entity position (mode=1)
  8: 0x02FC [0x1C] WAIT(30* ticks)
  9: 0x02FF [0x39] SET_ENTITY_DIRECTION(direction=2.8°*)
 10: 0x0302 [0x1C] WAIT(360* ticks)
 11: 0x0305 [0x01] GOTO 0x02DC
```

#### Data or dead code:

```
# Dead code (unreachable instructions):
     0x0308 [0x00] END_REQSTACK()
```

### Event 65535.11

#### Metadata

| Field        | Value     |
|--------------|-----------|
| Entrypoint   | 0x0309    |
| Data Size    | 139 bytes |
| Instructions | 22        |

```
      00 01 02 03 04 05 06 07  08 09 0A 0B 0C 0D 0E 0F
      -- -- -- -- -- -- -- --  -- -- -- -- -- -- -- --
0300:                             5B 10 80 06 60 0F 01           [...`..
0310: 06 60 0F 01 68 61 69 30  1C 11 80 4A 04 60 0F 01  .`..hai0...J.`..
0320: 06 60 0F 01 1C 12 80 79  00 05 60 0F 01 06 60 0F  .`.....y..`...`.
0330: 01 1C 13 80 4B 06 60 0F  01 14 80 6F 76 06 60 0F  ....K.`....ov.`.
0340: 01 5B 10 80 06 60 0F 01  06 60 0F 01 61 77 77 30  .[...`...`..aww0
0350: 1C 11 80 5B 15 80 04 60  0F 01 04 60 0F 01 74 68  ...[...`...`..th
0360: 6B 31 1C 16 80 5B 04 80  05 60 0F 01 05 60 0F 01  k1...[...`...`..
0370: 74 6C 6B 30 1C 04 80 27  10 04 60 0F 01 29 27 10  tlk0...'..`..)'.
0380: 05 60 0F 01 28 32 17 80  1F 00 33 80 34 80 08 80  .`..(2....3.4...
0390: 1F 01 6F 00                                       ..o.            
```

#### Opcodes

```
  0: 0x0309 [0x5B] LOAD_EXT_SCHEDULER: Load scheduler "hai0" with entities [Jaha Amariyo (ID: 17784838/0x010F6006), Jaha Amariyo (ID: 17784838/0x010F6006)], work=81*
  1: 0x0318 [0x1C] WAIT(45* ticks)
  2: 0x031B [0x4A] Karl (ID: 17784836/0x010F6004) looks at Jaha Amariyo (ID: 17784838/0x010F6006)
  3: 0x0324 [0x1C] WAIT(5* ticks)
  4: 0x0327 [0x79] Buntz (ID: 17784837/0x010F6005) looks at Jaha Amariyo (ID: 17784838/0x010F6006) (Basic look)
  5: 0x0331 [0x1C] WAIT(30* ticks)
  6: 0x0334 [0x4B] UPDATE_ENTITY_YAW(entity=Jaha Amariyo (ID: 17784838/0x010F6006), yaw=12.2°*)
  7: 0x033B [0x6F] WAIT_FRAME_DELAY: Yield until WaitTime reaches zero
  8: 0x033C [0x76] CHECK_ENTITY_RENDER_FLAGS: Wait until Jaha Amariyo (ID: 17784838/0x010F6006) Render.Flags0 and Render.Flags3 conditions are met
  9: 0x0341 [0x5B] LOAD_EXT_SCHEDULER: Load scheduler "aww0" with entities [Jaha Amariyo (ID: 17784838/0x010F6006), Jaha Amariyo (ID: 17784838/0x010F6006)], work=81*
 10: 0x0350 [0x1C] WAIT(45* ticks)
 11: 0x0353 [0x5B] LOAD_EXT_SCHEDULER: Load scheduler "thk1" with entities [Karl (ID: 17784836/0x010F6004), Karl (ID: 17784836/0x010F6004)], work=75*
 12: 0x0362 [0x1C] WAIT(15* ticks)
 13: 0x0365 [0x5B] LOAD_EXT_SCHEDULER: Load scheduler "tlk0" with entities [Buntz (ID: 17784837/0x010F6005), Buntz (ID: 17784837/0x010F6005)], work=90*
 14: 0x0374 [0x1C] WAIT(90* ticks)
 15: 0x0377 [0x27] REQ_SET(priority=0x10, entity_id=Karl (ID: 17784836/0x010F6004), tag_num=0x29)
 16: 0x037E [0x27] REQ_SET(priority=0x10, entity_id=Buntz (ID: 17784837/0x010F6005), tag_num=0x28)
 17: 0x0385 [0x32] ExtData[1]->MainSpeed = 37* * 0.1
 18: 0x0388 [0x1F] MOVE_ENTITY: EventEntity moves to X=-52.555*, Z=1.950*, Y=0.000*
 19: 0x0390 [0x1F] MOVE_ENTITY: Update entity position (mode=1)
 20: 0x0392 [0x6F] WAIT_FRAME_DELAY: Yield until WaitTime reaches zero
 21: 0x0393 [0x00] END_REQSTACK()
```

### Event 65535.12

#### Metadata

| Field        | Value    |
|--------------|----------|
| Entrypoint   | 0x0394   |
| Data Size    | 15 bytes |
| Instructions | 5        |

```
      00 01 02 03 04 05 06 07  08 09 0A 0B 0C 0D 0E 0F
      -- -- -- -- -- -- -- --  -- -- -- -- -- -- -- --
0390:             32 1A 80 1F  00 35 80 36 80 08 80 1F      2....5.6....
03A0: 01 6F 00                                          .o.             
```

#### Opcodes

```
  0: 0x0394 [0x32] ExtData[1]->MainSpeed = 39* * 0.1
  1: 0x0397 [0x1F] MOVE_ENTITY: EventEntity moves to X=-49.108*, Z=2.357*, Y=0.000*
  2: 0x039F [0x1F] MOVE_ENTITY: Update entity position (mode=1)
  3: 0x03A1 [0x6F] WAIT_FRAME_DELAY: Yield until WaitTime reaches zero
  4: 0x03A2 [0x00] END_REQSTACK()
```

### Event 65535.13

#### Metadata

| Field        | Value    |
|--------------|----------|
| Entrypoint   | 0x03A3   |
| Data Size    | 15 bytes |
| Instructions | 5        |

```
      00 01 02 03 04 05 06 07  08 09 0A 0B 0C 0D 0E 0F
      -- -- -- -- -- -- -- --  -- -- -- -- -- -- -- --
03A0:          32 1D 80 1F 00  37 80 38 80 08 80 1F 01     2....7.8.....
03B0: 6F 00                                             o.              
```

#### Opcodes

```
  0: 0x03A3 [0x32] ExtData[1]->MainSpeed = 41* * 0.1
  1: 0x03A6 [0x1F] MOVE_ENTITY: EventEntity moves to X=-51.734*, Z=2.879*, Y=0.000*
  2: 0x03AE [0x1F] MOVE_ENTITY: Update entity position (mode=1)
  3: 0x03B0 [0x6F] WAIT_FRAME_DELAY: Yield until WaitTime reaches zero
  4: 0x03B1 [0x00] END_REQSTACK()
```

### Event 65535.14

#### Metadata

| Field        | Value    |
|--------------|----------|
| Entrypoint   | 0x03B2   |
| Data Size    | 15 bytes |
| Instructions | 5        |

```
      00 01 02 03 04 05 06 07  08 09 0A 0B 0C 0D 0E 0F
      -- -- -- -- -- -- -- --  -- -- -- -- -- -- -- --
03B0:       32 25 80 1F 00 39  80 3A 80 08 80 1F 01 6F    2%...9.:.....o
03C0: 00                                                .               
```

#### Opcodes

```
  0: 0x03B2 [0x32] ExtData[1]->MainSpeed = 12* * 0.1
  1: 0x03B5 [0x1F] MOVE_ENTITY: EventEntity moves to X=-50.670*, Z=2.474*, Y=0.000*
  2: 0x03BD [0x1F] MOVE_ENTITY: Update entity position (mode=1)
  3: 0x03BF [0x6F] WAIT_FRAME_DELAY: Yield until WaitTime reaches zero
  4: 0x03C0 [0x00] END_REQSTACK()
```

### Event 65535.15

#### Metadata

| Field        | Value    |
|--------------|----------|
| Entrypoint   | 0x03C1   |
| Data Size    | 80 bytes |
| Instructions | 13       |

```
      00 01 02 03 04 05 06 07  08 09 0A 0B 0C 0D 0E 0F
      -- -- -- -- -- -- -- --  -- -- -- -- -- -- -- --
03C0:    32 0C 80 1F 00 3B 80  3C 80 08 80 1F 01 79 00   2....;.<.....y.
03D0: 45 60 0F 01 42 60 0F 01  66 13 80 42 60 0F 01 42  E`..B`..f..B`..B
03E0: 60 0F 01 74 68 6B 32 32  3D 80 4A 42 60 0F 01 45  `..thk22=.JB`..E
03F0: 60 0F 01 1F 00 3E 80 3F  80 08 80 1F 01 6F 1C 13  `....>.?.....o..
0400: 80 66 08 80 45 60 0F 01  45 60 0F 01 74 6C 6B 31  .f..E`..E`..tlk1
0410: 00                                                .               
```

#### Opcodes

```
  0: 0x03C1 [0x32] ExtData[1]->MainSpeed = 11* * 0.1
  1: 0x03C4 [0x1F] MOVE_ENTITY: EventEntity moves to X=-92.526*, Z=-2.418*, Y=0.000*
  2: 0x03CC [0x1F] MOVE_ENTITY: Update entity position (mode=1)
  3: 0x03CE [0x79] Falak (ID: 17784901/0x010F6045) looks at Naurmaire (ID: 17784898/0x010F6042) (Basic look)
  4: 0x03D8 [0x66] LOAD_EXT_SCHEDULER_MAIN: Load scheduler "thk2" with entities [Naurmaire (ID: 17784898/0x010F6042), Naurmaire (ID: 17784898/0x010F6042)], work=30*
  5: 0x03E7 [0x32] ExtData[1]->MainSpeed = 38* * 0.1
  6: 0x03EA [0x4A] Naurmaire (ID: 17784898/0x010F6042) looks at Falak (ID: 17784901/0x010F6045)
  7: 0x03F3 [0x1F] MOVE_ENTITY: EventEntity moves to X=-98.837*, Z=-2.640*, Y=0.000*
  8: 0x03FB [0x1F] MOVE_ENTITY: Update entity position (mode=1)
  9: 0x03FD [0x6F] WAIT_FRAME_DELAY: Yield until WaitTime reaches zero
 10: 0x03FE [0x1C] WAIT(30* ticks)
 11: 0x0401 [0x66] LOAD_EXT_SCHEDULER_MAIN: Load scheduler "tlk1" with entities [Falak (ID: 17784901/0x010F6045), Falak (ID: 17784901/0x010F6045)], work=0*
 12: 0x0410 [0x00] END_REQSTACK()
```

### Event 65535.16

#### Metadata

| Field        | Value    |
|--------------|----------|
| Entrypoint   | 0x0411   |
| Data Size    | 15 bytes |
| Instructions | 5        |

```
      00 01 02 03 04 05 06 07  08 09 0A 0B 0C 0D 0E 0F
      -- -- -- -- -- -- -- --  -- -- -- -- -- -- -- --
0410:    32 25 80 1F 00 40 80  41 80 08 80 1F 01 6F 00   2%...@.A.....o.
```

#### Opcodes

```
  0: 0x0411 [0x32] ExtData[1]->MainSpeed = 12* * 0.1
  1: 0x0414 [0x1F] MOVE_ENTITY: EventEntity moves to X=4.999*, Z=-0.799*, Y=0.000*
  2: 0x041C [0x1F] MOVE_ENTITY: Update entity position (mode=1)
  3: 0x041E [0x6F] WAIT_FRAME_DELAY: Yield until WaitTime reaches zero
  4: 0x041F [0x00] END_REQSTACK()
```

### Event 65535.17

#### Metadata

| Field        | Value    |
|--------------|----------|
| Entrypoint   | 0x0420   |
| Data Size    | 15 bytes |
| Instructions | 5        |

```
      00 01 02 03 04 05 06 07  08 09 0A 0B 0C 0D 0E 0F
      -- -- -- -- -- -- -- --  -- -- -- -- -- -- -- --
0420: 32 05 80 1F 00 42 80 43  80 08 80 1F 01 6F 00     2....B.C.....o. 
```

#### Opcodes

```
  0: 0x0420 [0x32] ExtData[1]->MainSpeed = 13* * 0.1
  1: 0x0423 [0x1F] MOVE_ENTITY: EventEntity moves to X=-76.908*, Z=-2.465*, Y=0.000*
  2: 0x042B [0x1F] MOVE_ENTITY: Update entity position (mode=1)
  3: 0x042D [0x6F] WAIT_FRAME_DELAY: Yield until WaitTime reaches zero
  4: 0x042E [0x00] END_REQSTACK()
```

### Event 65535.18

#### Metadata

| Field        | Value    |
|--------------|----------|
| Entrypoint   | 0x042F   |
| Data Size    | 15 bytes |
| Instructions | 5        |

```
      00 01 02 03 04 05 06 07  08 09 0A 0B 0C 0D 0E 0F
      -- -- -- -- -- -- -- --  -- -- -- -- -- -- -- --
0420:                                               32                 2
0430: 0C 80 1F 00 44 80 45 80  08 80 1F 01 6F 00        ....D.E.....o.  
```

#### Opcodes

```
  0: 0x042F [0x32] ExtData[1]->MainSpeed = 11* * 0.1
  1: 0x0432 [0x1F] MOVE_ENTITY: EventEntity moves to X=-50.956*, Z=-2.015*, Y=0.000*
  2: 0x043A [0x1F] MOVE_ENTITY: Update entity position (mode=1)
  3: 0x043C [0x6F] WAIT_FRAME_DELAY: Yield until WaitTime reaches zero
  4: 0x043D [0x00] END_REQSTACK()
```

### Event 65535.19

#### Metadata

| Field        | Value    |
|--------------|----------|
| Entrypoint   | 0x043E   |
| Data Size    | 15 bytes |
| Instructions | 5        |

```
      00 01 02 03 04 05 06 07  08 09 0A 0B 0C 0D 0E 0F
      -- -- -- -- -- -- -- --  -- -- -- -- -- -- -- --
0430:                                            32 0C                2.
0440: 80 1F 00 46 80 47 80 08  80 1F 01 6F 00           ...F.G.....o.   
```

#### Opcodes

```
  0: 0x043E [0x32] ExtData[1]->MainSpeed = 11* * 0.1
  1: 0x0441 [0x1F] MOVE_ENTITY: EventEntity moves to X=-106.865*, Z=2.201*, Y=0.000*
  2: 0x0449 [0x1F] MOVE_ENTITY: Update entity position (mode=1)
  3: 0x044B [0x6F] WAIT_FRAME_DELAY: Yield until WaitTime reaches zero
  4: 0x044C [0x00] END_REQSTACK()
```

### Event 65535.20

#### Metadata

| Field        | Value    |
|--------------|----------|
| Entrypoint   | 0x044D   |
| Data Size    | 15 bytes |
| Instructions | 5        |

```
      00 01 02 03 04 05 06 07  08 09 0A 0B 0C 0D 0E 0F
      -- -- -- -- -- -- -- --  -- -- -- -- -- -- -- --
0440:                                         32 05 80               2..
0450: 1F 00 48 80 49 80 08 80  1F 01 6F 00              ..H.I.....o.    
```

#### Opcodes

```
  0: 0x044D [0x32] ExtData[1]->MainSpeed = 13* * 0.1
  1: 0x0450 [0x1F] MOVE_ENTITY: EventEntity moves to X=-36.731*, Z=-2.282*, Y=0.000*
  2: 0x0458 [0x1F] MOVE_ENTITY: Update entity position (mode=1)
  3: 0x045A [0x6F] WAIT_FRAME_DELAY: Yield until WaitTime reaches zero
  4: 0x045B [0x00] END_REQSTACK()
```

### Event 65535.21

#### Metadata

| Field        | Value    |
|--------------|----------|
| Entrypoint   | 0x045C   |
| Data Size    | 53 bytes |
| Instructions | 10       |

```
      00 01 02 03 04 05 06 07  08 09 0A 0B 0C 0D 0E 0F
      -- -- -- -- -- -- -- --  -- -- -- -- -- -- -- --
0450:                                      32 05 80 1F              2...
0460: 00 4A 80 4B 80 08 80 1F  01 1F 00 4C 80 4D 80 08  .J.K.......L.M..
0470: 80 1F 01 6F 1C 16 80 79  00 49 60 0F 01 86 60 0F  ...o...y.I`...`.
0480: 01 5B 4E 80 86 60 0F 01  86 60 0F 01 74 6C 6B 30  .[N..`...`..tlk0
0490: 00                                                .               
```

#### Opcodes

```
  0: 0x045C [0x32] ExtData[1]->MainSpeed = 13* * 0.1
  1: 0x045F [0x1F] MOVE_ENTITY: EventEntity moves to X=-58.047*, Z=9.433*, Y=0.000*
  2: 0x0467 [0x1F] MOVE_ENTITY: Update entity position (mode=1)
  3: 0x0469 [0x1F] MOVE_ENTITY: EventEntity moves to X=-56.466*, Z=10.018*, Y=0.000*
  4: 0x0471 [0x1F] MOVE_ENTITY: Update entity position (mode=1)
  5: 0x0473 [0x6F] WAIT_FRAME_DELAY: Yield until WaitTime reaches zero
  6: 0x0474 [0x1C] WAIT(15* ticks)
  7: 0x0477 [0x79] Shami (ID: 17784905/0x010F6049) looks at Squintrox Dryeyes (ID: 17784966/0x010F6086) (Basic look)
  8: 0x0481 [0x5B] LOAD_EXT_SCHEDULER: Load scheduler "tlk0" with entities [Squintrox Dryeyes (ID: 17784966/0x010F6086), Squintrox Dryeyes (ID: 17784966/0x010F6086)], work=215*
  9: 0x0490 [0x00] END_REQSTACK()
```

### Event 65535.22

#### Metadata

| Field        | Value    |
|--------------|----------|
| Entrypoint   | 0x0491   |
| Data Size    | 58 bytes |
| Instructions | 11       |

```
      00 01 02 03 04 05 06 07  08 09 0A 0B 0C 0D 0E 0F
      -- -- -- -- -- -- -- --  -- -- -- -- -- -- -- --
0490:    32 05 80 79 00 3E 60  0F 01 28 60 0F 01 1F 00   2..y.>`..(`....
04A0: 4F 80 50 80 08 80 1F 01  6F 1C 16 80 4A 3E 60 0F  O.P.....o...J>`.
04B0: 01 28 60 0F 01 6F 76 3E  60 0F 01 66 51 80 3E 60  .(`..ov>`..fQ.>`
04C0: 0F 01 3E 60 0F 01 74 6C  6B 30 00                 ..>`..tlk0.     
```

#### Opcodes

```
  0: 0x0491 [0x32] ExtData[1]->MainSpeed = 13* * 0.1
  1: 0x0494 [0x79] Leffquen (ID: 17784894/0x010F603E) looks at Ramicharaux (ID: 17784872/0x010F6028) (Basic look)
  2: 0x049E [0x1F] MOVE_ENTITY: EventEntity moves to X=-52.055*, Z=2.177*, Y=0.000*
  3: 0x04A6 [0x1F] MOVE_ENTITY: Update entity position (mode=1)
  4: 0x04A8 [0x6F] WAIT_FRAME_DELAY: Yield until WaitTime reaches zero
  5: 0x04A9 [0x1C] WAIT(15* ticks)
  6: 0x04AC [0x4A] Leffquen (ID: 17784894/0x010F603E) looks at Ramicharaux (ID: 17784872/0x010F6028)
  7: 0x04B5 [0x6F] WAIT_FRAME_DELAY: Yield until WaitTime reaches zero
  8: 0x04B6 [0x76] CHECK_ENTITY_RENDER_FLAGS: Wait until Leffquen (ID: 17784894/0x010F603E) Render.Flags0 and Render.Flags3 conditions are met
  9: 0x04BB [0x66] LOAD_EXT_SCHEDULER_MAIN: Load scheduler "tlk0" with entities [Leffquen (ID: 17784894/0x010F603E), Leffquen (ID: 17784894/0x010F603E)], work=19*
 10: 0x04CA [0x00] END_REQSTACK()
```

### Event 443

#### Metadata

| Field        | Value   |
|--------------|---------|
| Entrypoint   | 0x04CB  |
| Data Size    | 1 bytes |
| Instructions | 1       |

```
      00 01 02 03 04 05 06 07  08 09 0A 0B 0C 0D 0E 0F
      -- -- -- -- -- -- -- --  -- -- -- -- -- -- -- --
04C0:                                   00                         .    
```

#### Opcodes

```
  0: 0x04CB [0x00] END_REQSTACK()
```
