# 17785007

## Common Data

| Field            | Value                |
|------------------|----------------------|
| Zone             | Port Jeuno (ID: 246) |
| Block Size       | 6012 bytes           |
| Total Events     | 3                    |
| References Count | 196                  |

## List of Events

| Event ID              | Entrypoint   |   Size |   Instructions |
|-----------------------|--------------|--------|----------------|
| [65535](#event-65535) | 0x0000       |      1 |              1 |
| [431](#event-431)     | 0x0001       |   3415 |            510 |
| [434](#event-434)     | 0x0D58       |   1781 |            202 |

## DAT References (imed_data)

|   Index | Hex Value   |   Dec Value |
|---------|-------------|-------------|
|       0 | 0x0007      |           7 |
|       1 | 0x243C      |        9276 |
|       2 | 0x005A      |          90 |
|       3 | 0x243D      |        9277 |
|       4 | 0x003B      |          59 |
|       5 | 0x243E      |        9278 |
|       6 | 0x243F      |        9279 |
|       7 | 0x003C      |          60 |
|       8 | 0x0028      |          40 |
|       9 | 0x2440      |        9280 |
|      10 | 0x2441      |        9281 |
|      11 | 0x2442      |        9282 |
|      12 | 0x2443      |        9283 |
|      13 | 0x2444      |        9284 |
|      14 | 0x2445      |        9285 |
|      15 | 0x2446      |        9286 |
|      16 | 0x2447      |        9287 |
|      17 | 0x2448      |        9288 |
|      18 | 0x2449      |        9289 |
|      19 | 0x244A      |        9290 |
|      20 | 0x244B      |        9291 |
|      21 | 0x244C      |        9292 |
|      22 | 0x244D      |        9293 |
|      23 | 0x244E      |        9294 |
|      24 | 0x244F      |        9295 |
|      25 | 0x2450      |        9296 |
|      26 | 0x2451      |        9297 |
|      27 | 0x001E      |          30 |
|      28 | 0x0079      |         121 |
|      29 | 0x2534      |        9524 |
|      30 | 0x2452      |        9298 |
|      31 | 0x0078      |         120 |
|      32 | 0x0000      |           0 |
|      33 | 0x1000      |        4096 |
|      34 | 0x2453      |        9299 |
|      35 | 0x2454      |        9300 |
|      36 | 0x2455      |        9301 |
|      37 | 0x2456      |        9302 |
|      38 | 0x2457      |        9303 |
|      39 | 0x2458      |        9304 |
|      40 | 0x2459      |        9305 |
|      41 | 0x245A      |        9306 |
|      42 | 0x245B      |        9307 |
|      43 | 0x245C      |        9308 |
|      44 | 0x245D      |        9309 |
|      45 | 0x245E      |        9310 |
|      46 | 0x245F      |        9311 |
|      47 | 0x2460      |        9312 |
|      48 | 0x24AF      |        9391 |
|      49 | 0x24B0      |        9392 |
|      50 | 0x24B1      |        9393 |
|      51 | 0x24B2      |        9394 |
|      52 | 0x24B3      |        9395 |
|      53 | 0x24B4      |        9396 |
|      54 | 0x24B5      |        9397 |
|      55 | 0x2461      |        9313 |
|      56 | 0x2462      |        9314 |
|      57 | 0x2463      |        9315 |
|      58 | 0x2464      |        9316 |
|      59 | 0x0016      |          22 |
|      60 | 0x2465      |        9317 |
|      61 | 0x2466      |        9318 |
|      62 | 0x2467      |        9319 |
|      63 | 0x2468      |        9320 |
|      64 | 0x2469      |        9321 |
|      65 | 0x246A      |        9322 |
|      66 | 0x0010      |          16 |
|      67 | 0x0004      |           4 |
|      68 | 0x0442      |        1090 |
|      69 | 0x0001      |           1 |
|      70 | 0x021F      |         543 |
|      71 | 0x0002      |           2 |
|      72 | 0x025F      |         607 |
|      73 | 0x0003      |           3 |
|      74 | 0x099E      |        2462 |
|      75 | 0x06B9      |        1721 |
|      76 | 0x047A      |        1146 |
|      77 | 0x0227      |         551 |
|      78 | 0x0675      |        1653 |
|      79 | 0x246B      |        9323 |
|      80 | 0x1004      |        4100 |
|      81 | 0x1002      |        4098 |
|      82 | 0x246C      |        9324 |
|      83 | 0x246D      |        9325 |
|      84 | 0x246E      |        9326 |
|      85 | 0x246F      |        9327 |
|      86 | 0x2470      |        9328 |
|      87 | 0x2471      |        9329 |
|      88 | 0x00C8      |         200 |
|      89 | 0x0013      |          19 |
|      90 | 0xFFFEB970  |  4294883696 |
|      91 | 0xFFFFDCD8  |  4294958296 |
|      92 | 0x07FF      |        2047 |
|      93 | 0xFFFE94B8  |  4294874296 |
|      94 | 0xFFFFE4A8  |  4294960296 |
|      95 | 0x087F      |        2175 |
|      96 | 0xFFFE6DA8  |  4294864296 |
|      97 | 0xFFFFF448  |  4294964296 |
|      98 | 0xFFFEFE30  |  4294901296 |
|      99 | 0xFFFE7960  |  4294867296 |
|     100 | 0xFFFFF060  |  4294963296 |
|     101 | 0xFFFE7578  |  4294866296 |
|     102 | 0xFFFFF63C  |  4294964796 |
|     103 | 0xFFFE63E4  |  4294861796 |
|     104 | 0xFFFFF254  |  4294963796 |
|     105 | 0xFFFEDEF0  |  4294893296 |
|     106 | 0x0BB8      |        3000 |
|     107 | 0x20CC      |        8396 |
|     108 | 0x032B      |         811 |
|     109 | 0x00B4      |         180 |
|     110 | 0x012C      |         300 |
|     111 | 0xFFFEAE1C  |  4294880796 |
|     112 | 0xFFFFE2B4  |  4294959796 |
|     113 | 0x2472      |        9330 |
|     114 | 0x0005      |           5 |
|     115 | 0x2473      |        9331 |
|     116 | 0x0031      |          49 |
|     117 | 0x2474      |        9332 |
|     118 | 0x2475      |        9333 |
|     119 | 0x00C7      |         199 |
|     120 | 0x2476      |        9334 |
|     121 | 0x00BD      |         189 |
|     122 | 0x2477      |        9335 |
|     123 | 0x2478      |        9336 |
|     124 | 0x2479      |        9337 |
|     125 | 0x247A      |        9338 |
|     126 | 0x247B      |        9339 |
|     127 | 0x247C      |        9340 |
|     128 | 0x000F      |          15 |
|     129 | 0x00F0      |         240 |
|     130 | 0x247D      |        9341 |
|     131 | 0x0186      |         390 |
|     132 | 0x247E      |        9342 |
|     133 | 0x247F      |        9343 |
|     134 | 0xFFFF122A  |  4294906410 |
|     135 | 0xFFFFDD33  |  4294958387 |
|     136 | 0x0DA6      |        3494 |
|     137 | 0xFFFF0B6B  |  4294904683 |
|     138 | 0xFFFFD900  |  4294957312 |
|     139 | 0x0607      |        1543 |
|     140 | 0xFFFF161E  |  4294907422 |
|     141 | 0xFFFFD853  |  4294957139 |
|     142 | 0x03CE      |         974 |
|     143 | 0xFFFE7919  |  4294867225 |
|     144 | 0x2E5D      |       11869 |
|     145 | 0x0400      |        1024 |
|     146 | 0x04D7      |        1239 |
|     147 | 0x027B      |         635 |
|     148 | 0x1172      |        4466 |
|     149 | 0x2480      |        9344 |
|     150 | 0x002D      |          45 |
|     151 | 0x0088      |         136 |
|     152 | 0x0214      |         532 |
|     153 | 0x2481      |        9345 |
|     154 | 0x2482      |        9346 |
|     155 | 0x001A      |          26 |
|     156 | 0x2483      |        9347 |
|     157 | 0x0291      |         657 |
|     158 | 0x00DB      |         219 |
|     159 | 0x2484      |        9348 |
|     160 | 0x002A      |          42 |
|     161 | 0x2485      |        9349 |
|     162 | 0x2486      |        9350 |
|     163 | 0x2487      |        9351 |
|     164 | 0x0009      |           9 |
|     165 | 0x2488      |        9352 |
|     166 | 0xFFFFFF01  |  4294967041 |
|     167 | 0x2489      |        9353 |
|     168 | 0x00BF      |         191 |
|     169 | 0x248A      |        9354 |
|     170 | 0xFFFEA458  |  4294878296 |
|     171 | 0xFFFFFAA6  |  4294965926 |
|     172 | 0x03FF      |        1023 |
|     173 | 0xFFFEB9D4  |  4294883796 |
|     174 | 0xFFFFE250  |  4294959696 |
|     175 | 0xFFFECD5C  |  4294888796 |
|     176 | 0xFFFEC974  |  4294887796 |
|     177 | 0xFFFEC58C  |  4294886796 |
|     178 | 0xFFFEA908  |  4294879496 |
|     179 | 0xFFFFE2E6  |  4294959846 |
|     180 | 0x0006      |           6 |
|     181 | 0x0008      |           8 |
|     182 | 0x24A1      |        9377 |
|     183 | 0x24A2      |        9378 |
|     184 | 0x0A94      |        2708 |
|     185 | 0x24A3      |        9379 |
|     186 | 0x0905      |        2309 |
|     187 | 0x24A4      |        9380 |
|     188 | 0x0014      |          20 |
|     189 | 0x007F      |         127 |
|     190 | 0x000A      |          10 |
|     191 | 0x0018      |          24 |
|     192 | 0x24A5      |        9381 |
|     193 | 0x24A6      |        9382 |
|     194 | 0x0096      |         150 |
|     195 | 0x24A7      |        9383 |

## String References

- **8396**: @@

## Events

### Event 65535

#### Metadata

| Field        | Value   |
|--------------|---------|
| Entrypoint   | 0x0000  |
| Data Size    | 1 bytes |
| Instructions | 1       |

```
      00 01 02 03 04 05 06 07  08 09 0A 0B 0C 0D 0E 0F
      -- -- -- -- -- -- -- --  -- -- -- -- -- -- -- --
0000: 00                                                .               
```

#### Opcodes

```
  0: 0x0000 [0x00] END_REQSTACK()
```

### Event 431

#### Metadata

| Field        | Value      |
|--------------|------------|
| Entrypoint   | 0x0001     |
| Data Size    | 3415 bytes |
| Instructions | 510        |

```
      00 01 02 03 04 05 06 07  08 09 0A 0B 0C 0D 0E 0F
      -- -- -- -- -- -- -- --  -- -- -- -- -- -- -- --
0000:    42 29 10 AC 60 0F 01  10 4A AC 60 0F 01 F0 FF   B)..`...J.`....
0010: FF 7F 6F 76 AC 60 0F 01  6E AC 60 0F 01 00 80 99  ..ov.`..n.`.....
0020: AC 60 0F 01 2B AC 60 0F  01 01 80 1C 02 80 23 2B  .`..+.`.......#+
0030: AC 60 0F 01 03 80 23 66  04 80 AC 60 0F 01 AC 60  .`....#f...`...`
0040: 0F 01 74 6C 6B 30 2B AC  60 0F 01 05 80 23 2B AC  ..tlk0+.`....#+.
0050: 60 0F 01 06 80 1C 07 80  23 66 04 80 AC 60 0F 01  `.......#f...`..
0060: AC 60 0F 01 74 6C 6B 31  1C 08 80 4A AC 60 0F 01  .`..tlk1...J.`..
0070: AD 60 0F 01 6F 76 AC 60  0F 01 2B AC 60 0F 01 09  .`..ov.`..+.`...
0080: 80 23 2B AC 60 0F 01 0A  80 1C 07 80 23 4A AC 60  .#+.`.......#J.`
0090: 0F 01 F0 FF FF 7F 6F 76  AC 60 0F 01 2B AC 60 0F  ......ov.`..+.`.
00A0: 01 0B 80 23 66 04 80 AC  60 0F 01 AC 60 0F 01 74  ...#f...`...`..t
00B0: 6C 6B 30 2B AC 60 0F 01  0C 80 23 2B AC 60 0F 01  lk0+.`....#+.`..
00C0: 0D 80 23 2B AC 60 0F 01  0E 80 23 2B AC 60 0F 01  ..#+.`....#+.`..
00D0: 0F 80 23 2B AC 60 0F 01  10 80 23 66 04 80 AC 60  ..#+.`....#f...`
00E0: 0F 01 AC 60 0F 01 74 6C  6B 31 1C 08 80 2B AC 60  ...`..tlk1...+.`
00F0: 0F 01 11 80 23 66 04 80  AC 60 0F 01 AC 60 0F 01  ....#f...`...`..
0100: 74 6C 6B 30 2B AC 60 0F  01 12 80 23 2B AC 60 0F  tlk0+.`....#+.`.
0110: 01 13 80 23 2B AC 60 0F  01 14 80 23 2B AC 60 0F  ...#+.`....#+.`.
0120: 01 15 80 23 2B AC 60 0F  01 16 80 23 2B AC 60 0F  ...#+.`....#+.`.
0130: 01 17 80 23 66 04 80 AC  60 0F 01 AC 60 0F 01 74  ...#f...`...`..t
0140: 6C 6B 31 1C 08 80 2B AC  60 0F 01 18 80 23 66 04  lk1...+.`....#f.
0150: 80 AC 60 0F 01 AC 60 0F  01 74 6C 6B 30 2B AC 60  ..`...`..tlk0+.`
0160: 0F 01 19 80 23 2B AC 60  0F 01 1A 80 1C 07 80 23  ....#+.`.......#
0170: 66 04 80 AC 60 0F 01 AC  60 0F 01 74 6C 6B 31 1C  f...`...`..tlk1.
0180: 1B 80 66 1C 80 AC 60 0F  01 AC 60 0F 01 70 61 73  ..f...`...`..pas
0190: 30 1C 07 80 03 04 10 1D  80 93 04 10 2B AC 60 0F  0...........+.`.
01A0: 01 1E 80 1C 1F 80 23 93  20 80 03 05 10 21 80 2B  ......#. ....!.+
01B0: AC 60 0F 01 22 80 1C 07  80 23 66 04 80 AC 60 0F  .`.."....#f...`.
01C0: 01 AC 60 0F 01 74 6C 6B  30 2B AC 60 0F 01 23 80  ..`..tlk0+.`..#.
01D0: 23 2B AC 60 0F 01 24 80  23 2B AC 60 0F 01 25 80  #+.`..$.#+.`..%.
01E0: 23 66 04 80 AC 60 0F 01  AC 60 0F 01 74 6C 6B 31  #f...`...`..tlk1
01F0: 1C 08 80 2B AC 60 0F 01  26 80 23 66 04 80 AC 60  ...+.`..&.#f...`
0200: 0F 01 AC 60 0F 01 74 6C  6B 30 2B AC 60 0F 01 27  ...`..tlk0+.`..'
0210: 80 23 2B AC 60 0F 01 28  80 23 2B AC 60 0F 01 29  .#+.`..(.#+.`..)
0220: 80 23 66 04 80 AC 60 0F  01 AC 60 0F 01 74 6C 6B  .#f...`...`..tlk
0230: 31 1C 1B 80 6E AC 60 0F  01 20 80 99 AC 60 0F 01  1...n.`.. ...`..
0240: 2B AC 60 0F 01 2A 80 23  2B AC 60 0F 01 2B 80 1C  +.`..*.#+.`..+..
0250: 1F 80 23 66 04 80 AC 60  0F 01 AC 60 0F 01 74 6C  ..#f...`...`..tl
0260: 6B 30 2B AC 60 0F 01 2C  80 23 2B AC 60 0F 01 2D  k0+.`..,.#+.`..-
0270: 80 23 2B AC 60 0F 01 2E  80 23 2B AC 60 0F 01 2F  .#+.`....#+.`../
0280: 80 23 2B AC 60 0F 01 30  80 23 2B AC 60 0F 01 31  .#+.`..0.#+.`..1
0290: 80 23 2B AC 60 0F 01 32  80 23 2B AC 60 0F 01 33  .#+.`..2.#+.`..3
02A0: 80 23 2B AC 60 0F 01 34  80 23 2B AC 60 0F 01 35  .#+.`..4.#+.`..5
02B0: 80 23 2B AC 60 0F 01 36  80 23 2B AC 60 0F 01 37  .#+.`..6.#+.`..7
02C0: 80 23 66 04 80 AC 60 0F  01 AC 60 0F 01 74 6C 6B  .#f...`...`..tlk
02D0: 31 1C 08 80 2B AC 60 0F  01 38 80 23 2B AC 60 0F  1...+.`..8.#+.`.
02E0: 01 39 80 23 2B AC 60 0F  01 3A 80 23 6E AC 60 0F  .9.#+.`..:.#n.`.
02F0: 01 3B 80 99 AC 60 0F 01  2B AC 60 0F 01 3C 80 23  .;...`..+.`..<.#
0300: 2B AC 60 0F 01 3D 80 1C  1F 80 23 66 04 80 AC 60  +.`..=....#f...`
0310: 0F 01 AC 60 0F 01 74 6C  6B 30 2B AC 60 0F 01 3E  ...`..tlk0+.`..>
0320: 80 1C 07 80 23 66 04 80  AC 60 0F 01 AC 60 0F 01  ....#f...`...`..
0330: 74 6C 6B 31 1C 1B 80 66  1C 80 AC 60 0F 01 AC 60  tlk1...f...`...`
0340: 0F 01 70 61 73 30 2B AC  60 0F 01 3F 80 23 2B AC  ..pas0+.`..?.#+.
0350: 60 0F 01 40 80 1C 1F 80  23 2B AC 60 0F 01 41 80  `..@....#+.`..A.
0360: 23 03 06 10 8A 7F 3F 06  10 06 10 42 80 03 07 10  #.....?....B....
0370: 06 10 15 06 10 43 80 02  06 10 20 80 80 87 03 03  .....C.... .....
0380: 06 10 44 80 01 BC 03 02  06 10 45 80 80 97 03 03  ..D.......E.....
0390: 06 10 46 80 01 BC 03 02  06 10 47 80 80 A7 03 03  ..F.......G.....
03A0: 06 10 48 80 01 BC 03 02  06 10 49 80 80 B7 03 03  ..H.......I.....
03B0: 06 10 4A 80 01 BC 03 03  06 10 44 80 3F 07 10 07  ..J.......D.?...
03C0: 10 43 80 02 07 10 20 80  80 D3 03 03 07 10 4B 80  .C.... .......K.
03D0: 01 08 04 02 07 10 45 80  80 E3 03 03 07 10 4C 80  ......E.......L.
03E0: 01 08 04 02 07 10 47 80  80 F3 03 03 07 10 4D 80  ......G.......M.
03F0: 01 08 04 02 07 10 49 80  80 03 04 03 07 10 4E 80  ......I.......N.
0400: 01 08 04 03 07 10 4B 80  66 04 80 AC 60 0F 01 AC  ......K.f...`...
0410: 60 0F 01 74 6C 6B 30 2B  AC 60 0F 01 4F 80 23 03  `..tlk0+.`..O.#.
0420: 08 10 50 80 03 09 10 51  80 2B AC 60 0F 01 52 80  ..P....Q.+.`..R.
0430: 23 2B AC 60 0F 01 53 80  23 2B AC 60 0F 01 54 80  #+.`..S.#+.`..T.
0440: 23 2B AC 60 0F 01 55 80  23 66 04 80 AC 60 0F 01  #+.`..U.#f...`..
0450: AC 60 0F 01 74 6C 6B 31  1C 1B 80 66 04 80 AC 60  .`..tlk1...f...`
0460: 0F 01 AC 60 0F 01 74 68  6B 31 2B AC 60 0F 01 56  ...`..thk1+.`..V
0470: 80 1C 02 80 23 66 04 80  AC 60 0F 01 AC 60 0F 01  ....#f...`...`..
0480: 74 68 6B 32 2B AC 60 0F  01 57 80 23 1C 1F 80 45  thk2+.`..W.#...E
0490: 58 80 F0 FF FF 7F F0 FF  FF 7F 66 64 6F 31 20 80  X.........fdo1 .
04A0: 55 58 80 F0 FF FF 7F F0  FF FF 7F 66 64 6F 31 46  UX.........fdo1F
04B0: 01 38 59 80 7B F0 FF FF  7F 92 01 AC 60 0F 01 92  .8Y.{.......`...
04C0: 01 AD 60 0F 01 92 01 04  60 0F 01 92 01 05 60 0F  ..`.....`.....`.
04D0: 01 92 01 06 60 0F 01 92  01 86 60 0F 01 92 01 3F  ....`.....`....?
04E0: 60 0F 01 92 01 18 60 0F  01 92 01 0A 60 0F 01 92  `.....`.....`...
04F0: 01 49 60 0F 01 92 01 9C  60 0F 01 2F 00 B0 60 0F  .I`.....`../..`.
0500: 01 4E 00 B0 60 0F 01 4E  01 04 60 0F 01 4E 01 05  .N..`..N..`..N..
0510: 60 0F 01 4E 01 06 60 0F  01 4E 01 86 60 0F 01 94  `..N..`..N..`...
0520: 01 B0 60 0F 01 94 01 AC  60 0F 01 94 01 F0 FF FF  ..`.....`.......
0530: 7F 94 01 AD 60 0F 01 94  01 04 60 0F 01 94 01 05  ....`.....`.....
0540: 60 0F 01 94 01 06 60 0F  01 94 01 86 60 0F 01 BA  `.....`.....`...
0550: B0 60 0F 01 5A 80 5B 80  20 80 5C 80 BA AC 60 0F  .`..Z.[. .\...`.
0560: 01 5D 80 5E 80 20 80 5F  80 BA F0 FF FF 7F 60 80  .].^. ._......`.
0570: 61 80 20 80 5C 80 BA 86  60 0F 01 62 80 61 80 20  a. .\...`..b.a. 
0580: 80 20 80 BA 04 60 0F 01  63 80 64 80 20 80 20 80  . ...`..c.d. . .
0590: BA 05 60 0F 01 65 80 66  80 20 80 20 80 BA 06 60  ..`..e.f. . ...`
05A0: 0F 01 67 80 68 80 20 80  20 80 BA 86 60 0F 01 69  ..g.h. . ...`..i
05B0: 80 6A 80 20 80 5C 80 4A  B0 60 0F 01 AC 60 0F 01  .j. .\.J.`...`..
05C0: 4A AC 60 0F 01 F0 FF FF  7F 6F 76 AC 60 0F 01 80  J.`......ov.`...
05D0: B0 60 0F 01 80 AC 60 0F  01 80 F0 FF FF 7F 80 AD  .`....`.........
05E0: 60 0F 01 80 3F 60 0F 01  80 44 60 0F 01 48 6B 80  `...?`...D`..Hk.
05F0: 27 10 F0 FF FF 7F 38 1C  07 80 45 6C 80 F8 FF FF  '.....8...El....
0600: 7F F8 FF FF 7F 73 30 30  30 20 80 45 58 80 F0 FF  .....s000 .EX...
0610: FF 7F F0 FF FF 7F 66 64  69 31 20 80 55 58 80 F0  ......fdi1 .UX..
0620: FF FF 7F F0 FF FF 7F 66  64 69 31 1C 6D 80 52 6C  .......fdi1.m.Rl
0630: 80 F8 FF FF 7F F8 FF FF  7F 73 30 30 30 45 6C 80  .........s000El.
0640: F8 FF FF 7F F8 FF FF 7F  73 30 30 31 20 80 1C 6E  ........s001 ..n
0650: 80 52 6C 80 F8 FF FF 7F  F8 FF FF 7F 73 30 30 31  .Rl.........s001
0660: 45 6C 80 F8 FF FF 7F F8  FF FF 7F 73 30 30 32 20  El.........s002 
0670: 80 BA B0 60 0F 01 6F 80  70 80 20 80 5C 80 4A B0  ...`..o.p. .\.J.
0680: 60 0F 01 AC 60 0F 01 27  10 B0 60 0F 01 03 2B B0  `...`..'..`...+.
0690: 60 0F 01 71 80 2A 10 B0  60 0F 01 4A B0 60 0F 01  `..q.*..`..J.`..
06A0: AC 60 0F 01 23 4A AC 60  0F 01 B0 60 0F 01 1C 72  .`..#J.`...`...r
06B0: 80 6F 76 AC 60 0F 01 1C  1B 80 52 6C 80 F8 FF FF  .ov.`.....Rl....
06C0: 7F F8 FF FF 7F 73 30 30  32 45 6C 80 F8 FF FF 7F  .....s002El.....
06D0: F8 FF FF 7F 73 30 30 33  20 80 2B AC 60 0F 01 73  ....s003 .+.`..s
06E0: 80 1C 1F 80 23 52 6C 80  F8 FF FF 7F F8 FF FF 7F  ....#Rl.........
06F0: 73 30 30 33 45 6C 80 F8  FF FF 7F F8 FF FF 7F 73  s003El.........s
0700: 30 30 34 20 80 66 74 80  B0 60 0F 01 B0 60 0F 01  004 .ft..`...`..
0710: 74 6C 6B 30 2B B0 60 0F  01 75 80 1C 1F 80 23 66  tlk0+.`..u....#f
0720: 74 80 B0 60 0F 01 B0 60  0F 01 74 6C 6B 31 52 6C  t..`...`..tlk1Rl
0730: 80 F8 FF FF 7F F8 FF FF  7F 73 30 30 34 45 6C 80  .........s004El.
0740: F8 FF FF 7F F8 FF FF 7F  73 30 30 35 20 80 2B AC  ........s005 .+.
0750: 60 0F 01 76 80 23 66 77  80 AC 60 0F 01 AC 60 0F  `..v.#fw..`...`.
0760: 01 74 6C 6B 30 2B AC 60  0F 01 78 80 1C 1F 80 23  .tlk0+.`..x....#
0770: 66 77 80 AC 60 0F 01 AC  60 0F 01 74 6C 6B 31 52  fw..`...`..tlk1R
0780: 6C 80 F8 FF FF 7F F8 FF  FF 7F 73 30 30 35 45 6C  l.........s005El
0790: 80 F8 FF FF 7F F8 FF FF  7F 73 30 30 36 20 80 66  .........s006 .f
07A0: 79 80 B0 60 0F 01 B0 60  0F 01 74 6C 6B 30 2B B0  y..`...`..tlk0+.
07B0: 60 0F 01 7A 80 1C 1F 80  23 66 79 80 B0 60 0F 01  `..z....#fy..`..
07C0: B0 60 0F 01 74 6C 6B 31  52 6C 80 F8 FF FF 7F F8  .`..tlk1Rl......
07D0: FF FF 7F 73 30 30 36 45  6C 80 F8 FF FF 7F F8 FF  ...s006El.......
07E0: FF 7F 73 30 30 37 20 80  2B AC 60 0F 01 7B 80 1C  ..s007 .+.`..{..
07F0: 1F 80 23 52 6C 80 F8 FF  FF 7F F8 FF FF 7F 73 30  ..#Rl.........s0
0800: 30 37 45 6C 80 F8 FF FF  7F F8 FF FF 7F 73 30 30  07El.........s00
0810: 38 20 80 66 74 80 B0 60  0F 01 B0 60 0F 01 74 6C  8 .ft..`...`..tl
0820: 6B 30 2B B0 60 0F 01 7C  80 1C 1F 80 23 66 74 80  k0+.`..|....#ft.
0830: B0 60 0F 01 B0 60 0F 01  74 6C 6B 31 6E AC 60 0F  .`...`..tlk1n.`.
0840: 01 00 80 99 AC 60 0F 01  2B AC 60 0F 01 7D 80 1C  .....`..+.`..}..
0850: 02 80 23 6E B0 60 0F 01  42 80 99 B0 60 0F 01 2B  ..#n.`..B...`..+
0860: B0 60 0F 01 7E 80 1C 1F  80 23 52 6C 80 F8 FF FF  .`..~....#Rl....
0870: 7F F8 FF FF 7F 73 30 30  38 45 6C 80 F8 FF FF 7F  .....s008El.....
0880: F8 FF FF 7F 73 30 30 39  20 80 66 77 80 AC 60 0F  ....s009 .fw..`.
0890: 01 AC 60 0F 01 74 6C 6B  30 2B AC 60 0F 01 7F 80  ..`..tlk0+.`....
08A0: 1C 1F 80 23 66 77 80 AC  60 0F 01 AC 60 0F 01 74  ...#fw..`...`..t
08B0: 6C 6B 31 1C 07 80 27 10  B0 60 0F 01 04 1C 80 80  lk1...'..`......
08C0: 52 6C 80 F8 FF FF 7F F8  FF FF 7F 73 30 30 39 45  Rl.........s009E
08D0: 6C 80 F8 FF FF 7F F8 FF  FF 7F 73 30 31 30 20 80  l.........s010 .
08E0: 2A 10 B0 60 0F 01 4A AC  60 0F 01 B0 60 0F 01 1C  *..`..J.`...`...
08F0: 07 80 4E 00 04 60 0F 01  4E 00 05 60 0F 01 4E 00  ..N..`..N..`..N.
0900: 06 60 0F 01 4E 00 86 60  0F 01 27 10 04 60 0F 01  .`..N..`..'..`..
0910: 36 27 10 05 60 0F 01 34  27 10 06 60 0F 01 31 27  6'..`..4'..`..1'
0920: 10 86 60 0F 01 2B 1C 1B  80 52 6C 80 F8 FF FF 7F  ..`..+...Rl.....
0930: F8 FF FF 7F 73 30 31 30  45 6C 80 F8 FF FF 7F F8  ....s010El......
0940: FF FF 7F 73 30 31 31 20  80 1C 81 80 2B B0 60 0F  ...s011 ....+.`.
0950: 01 82 80 1C 83 80 23 52  6C 80 F8 FF FF 7F F8 FF  ......#Rl.......
0960: FF 7F 73 30 31 31 45 6C  80 F8 FF FF 7F F8 FF FF  ..s011El........
0970: 7F 73 30 31 32 20 80 1C  1B 80 4A B0 60 0F 01 AC  .s012 ....J.`...
0980: 60 0F 01 6F 76 B0 60 0F  01 66 74 80 B0 60 0F 01  `..ov.`..ft..`..
0990: B0 60 0F 01 74 6C 6B 30  2B B0 60 0F 01 84 80 23  .`..tlk0+.`....#
09A0: 2B B0 60 0F 01 85 80 1C  1F 80 23 66 74 80 B0 60  +.`.......#ft..`
09B0: 0F 01 B0 60 0F 01 74 6C  6B 31 7A 00 04 60 0F 01  ...`..tlk1z..`..
09C0: 7A 00 05 60 0F 01 7A 00  06 60 0F 01 7A 00 86 60  z..`..z..`..z..`
09D0: 0F 01 BA 04 60 0F 01 86  80 87 80 20 80 88 80 BA  ....`...... ....
09E0: 05 60 0F 01 89 80 8A 80  20 80 8B 80 BA 06 60 0F  .`...... .....`.
09F0: 01 8C 80 8D 80 20 80 8E  80 4A 04 60 0F 01 05 60  ..... ...J.`...`
0A00: 0F 01 4A 05 60 0F 01 04  60 0F 01 4A 06 60 0F 01  ..J.`...`..J.`..
0A10: 04 60 0F 01 BA 86 60 0F  01 8F 80 90 80 20 80 91  .`....`...... ..
0A20: 80 52 6C 80 F8 FF FF 7F  F8 FF FF 7F 73 30 31 32  .Rl.........s012
0A30: 45 6C 80 F8 FF FF 7F F8  FF FF 7F 73 30 31 33 20  El.........s013 
0A40: 80 03 02 17 92 80 03 03  17 79 80 03 04 17 93 80  .........y......
0A50: 03 05 17 94 80 93 02 17  66 08 80 B0 60 0F 01 B0  ........f...`...
0A60: 60 0F 01 69 72 6F 30 2B  B0 60 0F 01 95 80 1C 07  `..iro0+.`......
0A70: 80 93 03 17 1C 96 80 66  08 80 B0 60 0F 01 B0 60  .......f...`...`
0A80: 0F 01 69 72 6F 30 93 04  17 1C 96 80 93 05 17 1C  ..iro0..........
0A90: 96 80 23 03 06 17 97 80  03 07 17 98 80 93 06 17  ..#.............
0AA0: 66 08 80 B0 60 0F 01 B0  60 0F 01 74 68 6B 31 2B  f...`...`..thk1+
0AB0: B0 60 0F 01 99 80 1C 07  80 93 07 17 1C 07 80 23  .`.............#
0AC0: 93 20 80 66 08 80 B0 60  0F 01 B0 60 0F 01 74 68  . .f...`...`..th
0AD0: 6B 32 1C 07 80 66 08 80  B0 60 0F 01 B0 60 0F 01  k2...f...`...`..
0AE0: 70 61 73 30 2B B0 60 0F  01 9A 80 1C 1F 80 23 52  pas0+.`.......#R
0AF0: 6C 80 F8 FF FF 7F F8 FF  FF 7F 73 30 31 33 45 6C  l.........s013El
0B00: 80 F8 FF FF 7F F8 FF FF  7F 73 30 31 34 20 80 6E  .........s014 .n
0B10: AC 60 0F 01 9B 80 99 AC  60 0F 01 7C 00 AC 60 0F  .`......`..|..`.
0B20: 01 2B AC 60 0F 01 9C 80  1C 1F 80 23 7C 01 AC 60  .+.`.......#|..`
0B30: 0F 01 52 6C 80 F8 FF FF  7F F8 FF FF 7F 73 30 31  ..Rl.........s01
0B40: 34 45 6C 80 F8 FF FF 7F  F8 FF FF 7F 73 30 31 35  4El.........s015
0B50: 20 80 03 08 17 9D 80 03  09 17 9E 80 93 08 17 66   ..............f
0B60: 79 80 B0 60 0F 01 B0 60  0F 01 74 6C 6B 30 2B B0  y..`...`..tlk0+.
0B70: 60 0F 01 9F 80 1C 02 80  93 09 17 1C 96 80 23 93  `.............#.
0B80: 20 80 66 A0 80 B0 60 0F  01 B0 60 0F 01 62 73 6B   .f...`...`..bsk
0B90: 30 2B B0 60 0F 01 A1 80  1C 1F 80 23 66 A0 80 B0  0+.`.......#f...
0BA0: 60 0F 01 B0 60 0F 01 62  69 6B 31 1C 1B 80 52 6C  `...`..bik1...Rl
0BB0: 80 F8 FF FF 7F F8 FF FF  7F 73 30 31 35 45 6C 80  .........s015El.
0BC0: F8 FF FF 7F F8 FF FF 7F  73 30 31 36 20 80 66 79  ........s016 .fy
0BD0: 80 B0 60 0F 01 B0 60 0F  01 74 6C 6B 30 2B B0 60  ..`...`..tlk0+.`
0BE0: 0F 01 A2 80 23 2B B0 60  0F 01 A3 80 1C 1F 80 23  ....#+.`.......#
0BF0: 66 79 80 B0 60 0F 01 B0  60 0F 01 74 6C 6B 31 1C  fy..`...`..tlk1.
0C00: 1B 80 52 6C 80 F8 FF FF  7F F8 FF FF 7F 73 30 31  ..Rl.........s01
0C10: 36 45 6C 80 F8 FF FF 7F  F8 FF FF 7F 73 30 31 37  6El.........s017
0C20: 20 80 6E B0 60 0F 01 A4  80 99 B0 60 0F 01 2B B0   .n.`......`..+.
0C30: 60 0F 01 A5 80 1C 6D 80  23 7B B0 60 0F 01 4B B0  `.....m.#{.`..K.
0C40: 60 0F 01 A6 80 1C 80 80  27 10 B0 60 0F 01 05 52  `.......'..`...R
0C50: 6C 80 F8 FF FF 7F F8 FF  FF 7F 73 30 31 37 45 6C  l.........s017El
0C60: 80 F8 FF FF 7F F8 FF FF  7F 73 30 31 38 20 80 1C  .........s018 ..
0C70: 1F 80 7B AC 60 0F 01 1C  07 80 52 6C 80 F8 FF FF  ..{.`.....Rl....
0C80: 7F F8 FF FF 7F 73 30 31  38 45 6C 80 F8 FF FF 7F  .....s018El.....
0C90: F8 FF FF 7F 73 30 31 39  20 80 66 04 80 AC 60 0F  ....s019 .f...`.
0CA0: 01 AC 60 0F 01 74 68 6B  31 2B AC 60 0F 01 A7 80  ..`..thk1+.`....
0CB0: 1C 6D 80 23 81 00 AC 60  0F 01 66 A8 80 AC 60 0F  .m.#...`..f...`.
0CC0: 01 AC 60 0F 01 6B 69 7A  6D 1C 72 80 52 6C 80 F8  ..`..kizm.r.Rl..
0CD0: FF FF 7F F8 FF FF 7F 73  30 31 39 45 6C 80 F8 FF  .......s019El...
0CE0: FF 7F F8 FF FF 7F 73 30  32 30 20 80 2B AC 60 0F  ......s020 .+.`.
0CF0: 01 A9 80 1C 1F 80 23 81  01 AC 60 0F 01 45 58 80  ......#...`..EX.
0D00: F0 FF FF 7F F0 FF FF 7F  66 64 6F 31 20 80 55 58  ........fdo1 .UX
0D10: 80 F0 FF FF 7F F0 FF FF  7F 66 64 6F 31 52 6C 80  .........fdo1Rl.
0D20: F8 FF FF 7F F8 FF FF 7F  73 30 32 30 7A 00 F0 FF  ........s020z...
0D30: FF 7F 27 13 B0 60 0F 01  01 1C 80 80 AB 11 20 80  ..'..`........ .
0D40: 1C 45 80 46 00 45 58 80  F0 FF FF 7F F0 FF FF 7F  .E.F.EX.........
0D50: 66 64 69 32 20 80 21 00                           fdi2 .!.        
```

#### Opcodes

```
  0: 0x0001 [0x42] SET_CLI_EVENT_CANCEL_DATA()
  1: 0x0002 [0x29] REQ_SET_WAIT(priority=0x10, entity_id=Mewk Chorosap (ID: 17785004/0x010F60AC), tag_num=0x10)
  2: 0x0009 [0x4A] Mewk Chorosap (ID: 17785004/0x010F60AC) looks at LocalPlayer
  3: 0x0012 [0x6F] WAIT_FRAME_DELAY: Yield until WaitTime reaches zero
  4: 0x0013 [0x76] CHECK_ENTITY_RENDER_FLAGS: Wait until Mewk Chorosap (ID: 17785004/0x010F60AC) Render.Flags0 and Render.Flags3 conditions are met
  5: 0x0018 [0x6E] Mewk Chorosap (ID: 17785004/0x010F60AC) uses emote 7*
  6: 0x001F [0x99] Wait for Mewk Chorosap (ID: 17785004/0x010F60AC) animation to complete
  7: 0x0024 [0x2B] Mewk Chorosap (ID: 17785004/0x010F60AC) [9276*]:
    → "Ahh, I see you managed to obtain the $0. Excellent work, my frrriend."
  8: 0x002B [0x1C] WAIT(90* ticks)
  9: 0x002E [0x23] WAIT_FOR_DIALOG_INTERACTION
 10: 0x002F [0x2B] Mewk Chorosap (ID: 17785004/0x010F60AC) [9277*]:
    → "Now, it's time to explain how to perrrform the activation."
 11: 0x0036 [0x23] WAIT_FOR_DIALOG_INTERACTION
 12: 0x0037 [0x66] LOAD_EXT_SCHEDULER_MAIN: Load scheduler "tlk0" with entities [Mewk Chorosap (ID: 17785004/0x010F60AC), Mewk Chorosap (ID: 17785004/0x010F60AC)], work=59*
 13: 0x0046 [0x2B] Mewk Chorosap (ID: 17785004/0x010F60AC) [9278*]:
    → "In order to activate the $0, you must firrrst imbue it with your craftsman's spirit to previously unimaginable levels."
 14: 0x004D [0x23] WAIT_FOR_DIALOG_INTERACTION
 15: 0x004E [0x2B] Mewk Chorosap (ID: 17785004/0x010F60AC) [9279*]:
    → "Using the regular methods, you'd need to craft with it several million times, but that isn't very rrrealistic, now is it?"
 16: 0x0055 [0x1C] WAIT(60* ticks)
 17: 0x0058 [0x23] WAIT_FOR_DIALOG_INTERACTION
 18: 0x0059 [0x66] LOAD_EXT_SCHEDULER_MAIN: Load scheduler "tlk1" with entities [Mewk Chorosap (ID: 17785004/0x010F60AC), Mewk Chorosap (ID: 17785004/0x010F60AC)], work=59*
 19: 0x0068 [0x1C] WAIT(40* ticks)
 20: 0x006B [0x4A] Mewk Chorosap (ID: 17785004/0x010F60AC) looks at Synthesis Focuser II (ID: 17785005/0x010F60AD)
 21: 0x0074 [0x6F] WAIT_FRAME_DELAY: Yield until WaitTime reaches zero
 22: 0x0075 [0x76] CHECK_ENTITY_RENDER_FLAGS: Wait until Mewk Chorosap (ID: 17785004/0x010F60AC) Render.Flags0 and Render.Flags3 conditions are met
 23: 0x007A [0x2B] Mewk Chorosap (ID: 17785004/0x010F60AC) [9280*]:
    → "That is why I've crrreated a special device to help assist with the crafting process."
 24: 0x0081 [0x23] WAIT_FOR_DIALOG_INTERACTION
 25: 0x0082 [0x2B] Mewk Chorosap (ID: 17785004/0x010F60AC) [9281*]:
    → "Using this "synthesis focuser" during your crafting sessions will help boost your spirit and imbue it within your $0."
 26: 0x0089 [0x1C] WAIT(60* ticks)
 27: 0x008C [0x23] WAIT_FOR_DIALOG_INTERACTION
 28: 0x008D [0x4A] Mewk Chorosap (ID: 17785004/0x010F60AC) looks at LocalPlayer
 29: 0x0096 [0x6F] WAIT_FRAME_DELAY: Yield until WaitTime reaches zero
 30: 0x0097 [0x76] CHECK_ENTITY_RENDER_FLAGS: Wait until Mewk Chorosap (ID: 17785004/0x010F60AC) Render.Flags0 and Render.Flags3 conditions are met
 31: 0x009C [0x2B] Mewk Chorosap (ID: 17785004/0x010F60AC) [9282*]:
    → "You just need to simply flip the switch and begin crafting, although some prrreparations are necessary."
 32: 0x00A3 [0x23] WAIT_FOR_DIALOG_INTERACTION
 33: 0x00A4 [0x66] LOAD_EXT_SCHEDULER_MAIN: Load scheduler "tlk0" with entities [Mewk Chorosap (ID: 17785004/0x010F60AC), Mewk Chorosap (ID: 17785004/0x010F60AC)], work=59*
 34: 0x00B3 [0x2B] Mewk Chorosap (ID: 17785004/0x010F60AC) [9283*]:
    → "You'll need to place the $0 inside the synthesis focuser, along with the crystal, crafting sphere, and catalyst needed for the crafting process."
 35: 0x00BA [0x23] WAIT_FOR_DIALOG_INTERACTION
 36: 0x00BB [0x2B] Mewk Chorosap (ID: 17785004/0x010F60AC) [9284*]:
    → "For the crystal, please note that you cannot use the high-quality crystals or analysis crystals used for the engraving prrrocess."
 37: 0x00C2 [0x23] WAIT_FOR_DIALOG_INTERACTION
 38: 0x00C3 [0x2B] Mewk Chorosap (ID: 17785004/0x010F60AC) [9285*]:
    → "I'm going to place the $0 within the synthesis focuser for now."
 39: 0x00CA [0x23] WAIT_FOR_DIALOG_INTERACTION
 40: 0x00CB [0x2B] Mewk Chorosap (ID: 17785004/0x010F60AC) [9286*]:
    → "Once the materials are set, you can begin the crafting process."
 41: 0x00D2 [0x23] WAIT_FOR_DIALOG_INTERACTION
 42: 0x00D3 [0x2B] Mewk Chorosap (ID: 17785004/0x010F60AC) [9287*]:
    → "If everything goes as planned, it will infuse your $0 with a large amount of spirit. Once a sufficient amount has been trrransferred, it will activate the $0."
 43: 0x00DA [0x23] WAIT_FOR_DIALOG_INTERACTION
 44: 0x00DB [0x66] LOAD_EXT_SCHEDULER_MAIN: Load scheduler "tlk1" with entities [Mewk Chorosap (ID: 17785004/0x010F60AC), Mewk Chorosap (ID: 17785004/0x010F60AC)], work=59*
 45: 0x00EA [0x1C] WAIT(40* ticks)
 46: 0x00ED [0x2B] Mewk Chorosap (ID: 17785004/0x010F60AC) [9288*]:
    → "Did you manage to comprrrehend all that? If so, then I shall continue..."
 47: 0x00F4 [0x23] WAIT_FOR_DIALOG_INTERACTION
 48: 0x00F5 [0x66] LOAD_EXT_SCHEDULER_MAIN: Load scheduler "tlk0" with entities [Mewk Chorosap (ID: 17785004/0x010F60AC), Mewk Chorosap (ID: 17785004/0x010F60AC)], work=59*
 49: 0x0104 [0x2B] Mewk Chorosap (ID: 17785004/0x010F60AC) [9289*]:
    → "With this parrrticular kind of crafting, you're also able to form "links" while crafting!"
 50: 0x010B [0x23] WAIT_FOR_DIALOG_INTERACTION
 51: 0x010C [0x2B] Mewk Chorosap (ID: 17785004/0x010F60AC) [9290*]:
    → "I like to call this type of link a "craftchain". I know... I know... It's nothing fancy. Mwahaha."
 52: 0x0113 [0x23] WAIT_FOR_DIALOG_INTERACTION
 53: 0x0114 [0x2B] Mewk Chorosap (ID: 17785004/0x010F60AC) [9291*]:
    → "You alrrready know about the skillchains that you use in battle. This is kind of like that."
 54: 0x011B [0x23] WAIT_FOR_DIALOG_INTERACTION
 55: 0x011C [0x2B] Mewk Chorosap (ID: 17785004/0x010F60AC) [9292*]:
    → "The skillchain is triggered when you select the appropriate weapon skills with the proper timing, right?"
 56: 0x0123 [0x23] WAIT_FOR_DIALOG_INTERACTION
 57: 0x0124 [0x2B] Mewk Chorosap (ID: 17785004/0x010F60AC) [9293*]:
    → "A craftchain is triggered when you use the proper crafting sphere and catalyst, also with the proper timing."
 58: 0x012B [0x23] WAIT_FOR_DIALOG_INTERACTION
 59: 0x012C [0x2B] Mewk Chorosap (ID: 17785004/0x010F60AC) [9294*]:
    → "Once the craftchain is triggered, it will boost your spirit by an even greater amount. You really want to use them if at all possible."
 60: 0x0133 [0x23] WAIT_FOR_DIALOG_INTERACTION
 61: 0x0134 [0x66] LOAD_EXT_SCHEDULER_MAIN: Load scheduler "tlk1" with entities [Mewk Chorosap (ID: 17785004/0x010F60AC), Mewk Chorosap (ID: 17785004/0x010F60AC)], work=59*
 62: 0x0143 [0x1C] WAIT(40* ticks)
 63: 0x0146 [0x2B] Mewk Chorosap (ID: 17785004/0x010F60AC) [9295*]:
    → "Now, allow me to explain about the crafting spheres that I mentioned prrreviously."
 64: 0x014D [0x23] WAIT_FOR_DIALOG_INTERACTION
 65: 0x014E [0x66] LOAD_EXT_SCHEDULER_MAIN: Load scheduler "tlk0" with entities [Mewk Chorosap (ID: 17785004/0x010F60AC), Mewk Chorosap (ID: 17785004/0x010F60AC)], work=59*
 66: 0x015D [0x2B] Mewk Chorosap (ID: 17785004/0x010F60AC) [9296*]:
    → "Crafting spheres are a type of material that are intricately linked with crystals and craftchains."
 67: 0x0164 [0x23] WAIT_FOR_DIALOG_INTERACTION
 68: 0x0165 [0x2B] Mewk Chorosap (ID: 17785004/0x010F60AC) [9297*]:
    → "This'll prrrobably go faster if I just show you one."
 69: 0x016C [0x1C] WAIT(60* ticks)
 70: 0x016F [0x23] WAIT_FOR_DIALOG_INTERACTION
 71: 0x0170 [0x66] LOAD_EXT_SCHEDULER_MAIN: Load scheduler "tlk1" with entities [Mewk Chorosap (ID: 17785004/0x010F60AC), Mewk Chorosap (ID: 17785004/0x010F60AC)], work=59*
 72: 0x017F [0x1C] WAIT(30* ticks)
 73: 0x0182 [0x66] LOAD_EXT_SCHEDULER_MAIN: Load scheduler "pas0" with entities [Mewk Chorosap (ID: 17785004/0x010F60AC), Mewk Chorosap (ID: 17785004/0x010F60AC)], work=121*
 74: 0x0191 [0x1C] WAIT(60* ticks)
 75: 0x0194 [0x03] Work_Zone[4] = 9524*
 76: 0x0199 [0x93] DISPLAY_ITEM_INFO(item_id=Work_Zone[4])
 77: 0x019C [0x2B] Mewk Chorosap (ID: 17785004/0x010F60AC) [9298*]:
    → "This is what we call $2."
 78: 0x01A3 [0x1C] WAIT(120* ticks)
 79: 0x01A6 [0x23] WAIT_FOR_DIALOG_INTERACTION
 80: 0x01A7 [0x93] DISPLAY_ITEM_INFO(item_id=0*)
 81: 0x01AA [0x03] Work_Zone[5] = 4096*
 82: 0x01AF [0x2B] Mewk Chorosap (ID: 17785004/0x010F60AC) [9299*]:
    → "And since Liquefaction includes a fire elemental, you will need to use $3."
 83: 0x01B6 [0x1C] WAIT(60* ticks)
 84: 0x01B9 [0x23] WAIT_FOR_DIALOG_INTERACTION
 85: 0x01BA [0x66] LOAD_EXT_SCHEDULER_MAIN: Load scheduler "tlk0" with entities [Mewk Chorosap (ID: 17785004/0x010F60AC), Mewk Chorosap (ID: 17785004/0x010F60AC)], work=59*
 86: 0x01C9 [0x2B] Mewk Chorosap (ID: 17785004/0x010F60AC) [9300*]:
    → "Be sure to keep one thing in mind. If you use a crystal that doesn't match the element, the synthesis is guaranteed to fail."
 87: 0x01D0 [0x23] WAIT_FOR_DIALOG_INTERACTION
 88: 0x01D1 [0x2B] Mewk Chorosap (ID: 17785004/0x010F60AC) [9301*]:
    → "There are 14 types of crafting sphere in all, the same number as the skillchains, with the exception of the Ultimate Skillchains of courrrse."
 89: 0x01D8 [0x23] WAIT_FOR_DIALOG_INTERACTION
 90: 0x01D9 [0x2B] Mewk Chorosap (ID: 17785004/0x010F60AC) [9302*]:
    → "However, you will need to learrrn the linking procedure for yourself."
 91: 0x01E0 [0x23] WAIT_FOR_DIALOG_INTERACTION
 92: 0x01E1 [0x66] LOAD_EXT_SCHEDULER_MAIN: Load scheduler "tlk1" with entities [Mewk Chorosap (ID: 17785004/0x010F60AC), Mewk Chorosap (ID: 17785004/0x010F60AC)], work=59*
 93: 0x01F0 [0x1C] WAIT(40* ticks)
 94: 0x01F3 [0x2B] Mewk Chorosap (ID: 17785004/0x010F60AC) [9303*]:
    → "Now I will explain about the other material in the prrrocess...the catalyst."
 95: 0x01FA [0x23] WAIT_FOR_DIALOG_INTERACTION
 96: 0x01FB [0x66] LOAD_EXT_SCHEDULER_MAIN: Load scheduler "tlk0" with entities [Mewk Chorosap (ID: 17785004/0x010F60AC), Mewk Chorosap (ID: 17785004/0x010F60AC)], work=59*
 97: 0x020A [0x2B] Mewk Chorosap (ID: 17785004/0x010F60AC) [9304*]:
    → "The catalyst is a material that has a grrreat effect on the success of your craftchain."
 98: 0x0211 [0x23] WAIT_FOR_DIALOG_INTERACTION
 99: 0x0212 [0x2B] Mewk Chorosap (ID: 17785004/0x010F60AC) [9305*]:
    → "You already know how skillchains have levels, rrright?"
100: 0x0219 [0x23] WAIT_FOR_DIALOG_INTERACTION
101: 0x021A [0x2B] Mewk Chorosap (ID: 17785004/0x010F60AC) [9306*]:
    → "Craftchains also have levels, and you will need to use a catalyst that matches the element of the crafting sphere."
102: 0x0221 [0x23] WAIT_FOR_DIALOG_INTERACTION
103: 0x0222 [0x66] LOAD_EXT_SCHEDULER_MAIN: Load scheduler "tlk1" with entities [Mewk Chorosap (ID: 17785004/0x010F60AC), Mewk Chorosap (ID: 17785004/0x010F60AC)], work=59*
104: 0x0231 [0x1C] WAIT(30* ticks)
105: 0x0234 [0x6E] Mewk Chorosap (ID: 17785004/0x010F60AC) uses emote 0*
106: 0x023B [0x99] Wait for Mewk Chorosap (ID: 17785004/0x010F60AC) animation to complete
107: 0x0240 [0x2B] Mewk Chorosap (ID: 17785004/0x010F60AC) [9307*]:
    → "I have here an example of a catalyst. It comes from the Inventors' Coalition's verrry own MC-I-SR0 series!"
108: 0x0247 [0x23] WAIT_FOR_DIALOG_INTERACTION
109: 0x0248 [0x2B] Mewk Chorosap (ID: 17785004/0x010F60AC) [9308*]:
    → "The linking process has thrrree levels, just like with skillchains. Depending on the crafting sphere you use, the catalyst will be selected automatically."
110: 0x024F [0x1C] WAIT(120* ticks)
111: 0x0252 [0x23] WAIT_FOR_DIALOG_INTERACTION
112: 0x0253 [0x66] LOAD_EXT_SCHEDULER_MAIN: Load scheduler "tlk0" with entities [Mewk Chorosap (ID: 17785004/0x010F60AC), Mewk Chorosap (ID: 17785004/0x010F60AC)], work=59*
113: 0x0262 [0x2B] Mewk Chorosap (ID: 17785004/0x010F60AC) [9309*]:
    → "Now I'd like to explain crafting failures in a bit more detail."
114: 0x0269 [0x23] WAIT_FOR_DIALOG_INTERACTION
115: 0x026A [0x2B] Mewk Chorosap (ID: 17785004/0x010F60AC) [9310*]:
    → "If your combination of crystal, crafting sphere, and catalyst are incorrect, the synthesis is guarrranteed to fail."
116: 0x0271 [0x23] WAIT_FOR_DIALOG_INTERACTION
117: 0x0272 [0x2B] Mewk Chorosap (ID: 17785004/0x010F60AC) [9311*]:
    → "And if it fails, you will lose the crystal, crafting sphere, and catalyst you used."
118: 0x0279 [0x23] WAIT_FOR_DIALOG_INTERACTION
119: 0x027A [0x2B] Mewk Chorosap (ID: 17785004/0x010F60AC) [9312*]:
    → "Additionally, you will also lose some of the spirit stored within your $0."
120: 0x0281 [0x23] WAIT_FOR_DIALOG_INTERACTION
121: 0x0282 [0x2B] Mewk Chorosap (ID: 17785004/0x010F60AC) [9391*]:
    → "There are some conditions for losing your "spirit.""
122: 0x0289 [0x23] WAIT_FOR_DIALOG_INTERACTION
123: 0x028A [0x2B] Mewk Chorosap (ID: 17785004/0x010F60AC) [9392*]:
    → "The Synthesis Focuser II will become unstable if certain things are done repeatedly."
124: 0x0291 [0x23] WAIT_FOR_DIALOG_INTERACTION
125: 0x0292 [0x2B] Mewk Chorosap (ID: 17785004/0x010F60AC) [9393*]:
    → "Those "certain things" are continuing to use the same crystal and continuing to do the same chain."
126: 0x0299 [0x23] WAIT_FOR_DIALOG_INTERACTION
127: 0x029A [0x2B] Mewk Chorosap (ID: 17785004/0x010F60AC) [9394*]:
    → "If it remains unstable for too long, the Synthesis Focuser II may explode if or when the synthesis fails, meaning that you are more likely to lose some of your spirit."
128: 0x02A1 [0x23] WAIT_FOR_DIALOG_INTERACTION
129: 0x02A2 [0x2B] Mewk Chorosap (ID: 17785004/0x010F60AC) [9395*]:
    → "Stability is restored over time or by increasing the level of your chain."
130: 0x02A9 [0x23] WAIT_FOR_DIALOG_INTERACTION
131: 0x02AA [0x2B] Mewk Chorosap (ID: 17785004/0x010F60AC) [9396*]:
    → "An explosion will also restore stability to the focuser, although I highly recommend you do not take this route."
132: 0x02B1 [0x23] WAIT_FOR_DIALOG_INTERACTION
133: 0x02B2 [0x2B] Mewk Chorosap (ID: 17785004/0x010F60AC) [9397*]:
    → "The Stability gauge displays the focuser's current stability."
134: 0x02B9 [0x23] WAIT_FOR_DIALOG_INTERACTION
135: 0x02BA [0x2B] Mewk Chorosap (ID: 17785004/0x010F60AC) [9313*]:
    → "That will mean much of your hard work will be for naught, so be especially carrreful when selecting your materials."
136: 0x02C1 [0x23] WAIT_FOR_DIALOG_INTERACTION
137: 0x02C2 [0x66] LOAD_EXT_SCHEDULER_MAIN: Load scheduler "tlk1" with entities [Mewk Chorosap (ID: 17785004/0x010F60AC), Mewk Chorosap (ID: 17785004/0x010F60AC)], work=59*
138: 0x02D1 [0x1C] WAIT(40* ticks)
139: 0x02D4 [0x2B] Mewk Chorosap (ID: 17785004/0x010F60AC) [9314*]:
    → "I rrrealize this explanation is dragging on a bit, but how's it going? Try to hang in there for just a little bit longer."
140: 0x02DB [0x23] WAIT_FOR_DIALOG_INTERACTION
141: 0x02DC [0x2B] Mewk Chorosap (ID: 17785004/0x010F60AC) [9315*]:
    → "Now I want to explain how to obtain the materials you'll rrrequire."
142: 0x02E3 [0x23] WAIT_FOR_DIALOG_INTERACTION
143: 0x02E4 [0x2B] Mewk Chorosap (ID: 17785004/0x010F60AC) [9316*]:
    → "You can get the MC-I-SR0 series catalyst from me, for the rrright price of course..."
144: 0x02EB [0x23] WAIT_FOR_DIALOG_INTERACTION
145: 0x02EC [0x6E] Mewk Chorosap (ID: 17785004/0x010F60AC) uses emote 22*
146: 0x02F3 [0x99] Wait for Mewk Chorosap (ID: 17785004/0x010F60AC) animation to complete
147: 0x02F8 [0x2B] Mewk Chorosap (ID: 17785004/0x010F60AC) [9317*]:
    → "The cost of manufacturing is rather high for this particular catalyst, so I got an earful from the coalition's accountant after I made it in bulk."
148: 0x02FF [0x23] WAIT_FOR_DIALOG_INTERACTION
149: 0x0300 [0x2B] Mewk Chorosap (ID: 17785004/0x010F60AC) [9318*]:
    → "If I don't turn a profit, it will adversely affect our rrresearch budget... So, sorry about that. I hope you understand."
150: 0x0307 [0x1C] WAIT(120* ticks)
151: 0x030A [0x23] WAIT_FOR_DIALOG_INTERACTION
152: 0x030B [0x66] LOAD_EXT_SCHEDULER_MAIN: Load scheduler "tlk0" with entities [Mewk Chorosap (ID: 17785004/0x010F60AC), Mewk Chorosap (ID: 17785004/0x010F60AC)], work=59*
153: 0x031A [0x2B] Mewk Chorosap (ID: 17785004/0x010F60AC) [9319*]:
    → "The crafting spheres are a somewhat unique item. You can obtain them by using a special technique that brrreaks down certain items into their individual components."
154: 0x0321 [0x1C] WAIT(60* ticks)
155: 0x0324 [0x23] WAIT_FOR_DIALOG_INTERACTION
156: 0x0325 [0x66] LOAD_EXT_SCHEDULER_MAIN: Load scheduler "tlk1" with entities [Mewk Chorosap (ID: 17785004/0x010F60AC), Mewk Chorosap (ID: 17785004/0x010F60AC)], work=59*
157: 0x0334 [0x1C] WAIT(30* ticks)
158: 0x0337 [0x66] LOAD_EXT_SCHEDULER_MAIN: Load scheduler "pas0" with entities [Mewk Chorosap (ID: 17785004/0x010F60AC), Mewk Chorosap (ID: 17785004/0x010F60AC)], work=121*
159: 0x0346 [0x2B] Mewk Chorosap (ID: 17785004/0x010F60AC) [9320*]:
    → "You'll need to learn the technique before you can prrroceed. This should be everything you need to master it."
160: 0x034D [0x23] WAIT_FOR_DIALOG_INTERACTION
161: 0x034E [0x2B] Mewk Chorosap (ID: 17785004/0x010F60AC) [9321*]:
    → "Mwahaha. You can have this one frrree of charge."
162: 0x0355 [0x1C] WAIT(120* ticks)
163: 0x0358 [0x23] WAIT_FOR_DIALOG_INTERACTION
164: 0x0359 [0x2B] Mewk Chorosap (ID: 17785004/0x010F60AC) [9322*]:
    → "Now, about the item to be used as a base for the technique..."
165: 0x0360 [0x23] WAIT_FOR_DIALOG_INTERACTION
166: 0x0361 [0x03] Work_Zone[6] = LocalPlayer->ServerId
167: 0x0366 [0x3F] Work_Zone[6] = Work_Zone[6] % 16*
168: 0x036D [0x03] Work_Zone[7] = Work_Zone[6]
169: 0x0372 [0x15] Work_Zone[6] /= 4*
170: 0x0377 [0x02] IF !(Work_Zone[6] == 0*) GOTO 0x0387
171: 0x037F [0x03] Work_Zone[6] = 1090*
172: 0x0384 [0x01] GOTO 0x03BC
173: 0x0387 [0x02] IF !(Work_Zone[6] == 1*) GOTO 0x0397
174: 0x038F [0x03] Work_Zone[6] = 543*
175: 0x0394 [0x01] GOTO 0x03BC
176: 0x0397 [0x02] IF !(Work_Zone[6] == 2*) GOTO 0x03A7
177: 0x039F [0x03] Work_Zone[6] = 607*
178: 0x03A4 [0x01] GOTO 0x03BC
179: 0x03A7 [0x02] IF !(Work_Zone[6] == 3*) GOTO 0x03B7
180: 0x03AF [0x03] Work_Zone[6] = 2462*
181: 0x03B4 [0x01] GOTO 0x03BC
182: 0x03B7 [0x03] Work_Zone[6] = 1090*

SUBROUTINE_03BC:
183: 0x03BC [0x3F] Work_Zone[7] = Work_Zone[7] % 4*
184: 0x03C3 [0x02] IF !(Work_Zone[7] == 0*) GOTO 0x03D3
185: 0x03CB [0x03] Work_Zone[7] = 1721*
186: 0x03D0 [0x01] GOTO 0x0408
187: 0x03D3 [0x02] IF !(Work_Zone[7] == 1*) GOTO 0x03E3
188: 0x03DB [0x03] Work_Zone[7] = 1146*
189: 0x03E0 [0x01] GOTO 0x0408
190: 0x03E3 [0x02] IF !(Work_Zone[7] == 2*) GOTO 0x03F3
191: 0x03EB [0x03] Work_Zone[7] = 551*
192: 0x03F0 [0x01] GOTO 0x0408
193: 0x03F3 [0x02] IF !(Work_Zone[7] == 3*) GOTO 0x0403
194: 0x03FB [0x03] Work_Zone[7] = 1653*
195: 0x0400 [0x01] GOTO 0x0408
196: 0x0403 [0x03] Work_Zone[7] = 1721*

SUBROUTINE_0408:
197: 0x0408 [0x66] LOAD_EXT_SCHEDULER_MAIN: Load scheduler "tlk0" with entities [Mewk Chorosap (ID: 17785004/0x010F60AC), Mewk Chorosap (ID: 17785004/0x010F60AC)], work=59*
198: 0x0417 [0x2B] Mewk Chorosap (ID: 17785004/0x010F60AC) [9323*]:
    → "The $4 and the $5..."
199: 0x041E [0x23] WAIT_FOR_DIALOG_INTERACTION
200: 0x041F [0x03] Work_Zone[8] = 4100*
201: 0x0424 [0x03] Work_Zone[9] = 4098*
202: 0x0429 [0x2B] Mewk Chorosap (ID: 17785004/0x010F60AC) [9324*]:
    → "You should be able to use the $4 with the $6, and the $5 with the $7 for the prrrocedure."
203: 0x0430 [0x23] WAIT_FOR_DIALOG_INTERACTION
204: 0x0431 [0x2B] Mewk Chorosap (ID: 17785004/0x010F60AC) [9325*]:
    → "I believe there are more items out there that can be used. The exact number is unknown, but just consider finding them yet another part of the challenge."
205: 0x0438 [0x23] WAIT_FOR_DIALOG_INTERACTION
206: 0x0439 [0x2B] Mewk Chorosap (ID: 17785004/0x010F60AC) [9326*]:
    → "You can obtain information from other adventurers, or just keep experrrimenting until you find the answers for yourself."
207: 0x0440 [0x23] WAIT_FOR_DIALOG_INTERACTION
208: 0x0441 [0x2B] Mewk Chorosap (ID: 17785004/0x010F60AC) [9327*]:
    → "However, just be careful that you don't lose any valuable items in the process, even if it is in the name of prrrogress."
209: 0x0448 [0x23] WAIT_FOR_DIALOG_INTERACTION
210: 0x0449 [0x66] LOAD_EXT_SCHEDULER_MAIN: Load scheduler "tlk1" with entities [Mewk Chorosap (ID: 17785004/0x010F60AC), Mewk Chorosap (ID: 17785004/0x010F60AC)], work=59*
211: 0x0458 [0x1C] WAIT(30* ticks)
212: 0x045B [0x66] LOAD_EXT_SCHEDULER_MAIN: Load scheduler "thk1" with entities [Mewk Chorosap (ID: 17785004/0x010F60AC), Mewk Chorosap (ID: 17785004/0x010F60AC)], work=59*
213: 0x046A [0x2B] Mewk Chorosap (ID: 17785004/0x010F60AC) [9328*]:
    → "I have a feeling that the items used to create the spheres contain some common factors. Of course, I have no evidence to back it up..."
214: 0x0471 [0x1C] WAIT(90* ticks)
215: 0x0474 [0x23] WAIT_FOR_DIALOG_INTERACTION
216: 0x0475 [0x66] LOAD_EXT_SCHEDULER_MAIN: Load scheduler "thk2" with entities [Mewk Chorosap (ID: 17785004/0x010F60AC), Mewk Chorosap (ID: 17785004/0x010F60AC)], work=59*
217: 0x0484 [0x2B] Mewk Chorosap (ID: 17785004/0x010F60AC) [9329*]:
    → "That concludes my explanation. I imagine crrreating the spheres will keep you busy for some time to come. Good luck."
218: 0x048B [0x23] WAIT_FOR_DIALOG_INTERACTION
219: 0x048C [0x1C] WAIT(120* ticks)
220: 0x048F [0x45] LOAD_SCHEDULED_TASK: Load scheduler "fdo1" with entities [LocalPlayer, LocalPlayer], work=[200*, 0*]
221: 0x04A0 [0x55] WAIT_LOAD_SCHEDULER: Wait for scheduler "fdo1" with entities [LocalPlayer, LocalPlayer], work=200*
222: 0x04AF [0x46] CAMERA_CONTROL: Disable user control
223: 0x04B1 [0x38] SET_CLIENT_EVENT_MODE(mode=19*)
224: 0x04B4 [0x7B] LocalPlayer stops talking
225: 0x04B9 [0x92] Mewk Chorosap (ID: 17785004/0x010F60AC)->Render.Flags3 ^= 0x01
226: 0x04BF [0x92] Synthesis Focuser II (ID: 17785005/0x010F60AD)->Render.Flags3 ^= 0x01
227: 0x04C5 [0x92] Karl (ID: 17784836/0x010F6004)->Render.Flags3 ^= 0x01
228: 0x04CB [0x92] Buntz (ID: 17784837/0x010F6005)->Render.Flags3 ^= 0x01
229: 0x04D1 [0x92] Jaha Amariyo (ID: 17784838/0x010F6006)->Render.Flags3 ^= 0x01
230: 0x04D7 [0x92] Squintrox Dryeyes (ID: 17784966/0x010F6086)->Render.Flags3 ^= 0x01
231: 0x04DD [0x92] Marnie (ID: 17784895/0x010F603F)->Render.Flags3 ^= 0x01
232: 0x04E3 [0x92] Raging Lion (ID: 17784856/0x010F6018)->Render.Flags3 ^= 0x01
233: 0x04E9 [0x92] Chudigrimane (ID: 17784842/0x010F600A)->Render.Flags3 ^= 0x01
234: 0x04EF [0x92] Shami (ID: 17784905/0x010F6049)->Render.Flags3 ^= 0x01
235: 0x04F5 [0x92] Shemo (ID: 17784988/0x010F609C)->Render.Flags3 ^= 0x01
236: 0x04FB [0x2F] Unnamed NPC (ID: 17785008/0x010F60B0)->Render.Flags0 &= ~0x80000 // Bit 19
237: 0x0501 [0x4E] SET_ENTITY_HIDE_FLAG: Show Unnamed NPC (ID: 17785008/0x010F60B0)
238: 0x0507 [0x4E] SET_ENTITY_HIDE_FLAG: Hide Karl (ID: 17784836/0x010F6004)
239: 0x050D [0x4E] SET_ENTITY_HIDE_FLAG: Hide Buntz (ID: 17784837/0x010F6005)
240: 0x0513 [0x4E] SET_ENTITY_HIDE_FLAG: Hide Jaha Amariyo (ID: 17784838/0x010F6006)
241: 0x0519 [0x4E] SET_ENTITY_HIDE_FLAG: Hide Squintrox Dryeyes (ID: 17784966/0x010F6086)
242: 0x051F [0x94] Unnamed NPC (ID: 17785008/0x010F60B0)->Render.Flags3 ^= 0x01
243: 0x0525 [0x94] Mewk Chorosap (ID: 17785004/0x010F60AC)->Render.Flags3 ^= 0x01
244: 0x052B [0x94] LocalPlayer->Render.Flags3 ^= 0x01
245: 0x0531 [0x94] Synthesis Focuser II (ID: 17785005/0x010F60AD)->Render.Flags3 ^= 0x01
246: 0x0537 [0x94] Karl (ID: 17784836/0x010F6004)->Render.Flags3 ^= 0x01
247: 0x053D [0x94] Buntz (ID: 17784837/0x010F6005)->Render.Flags3 ^= 0x01
248: 0x0543 [0x94] Jaha Amariyo (ID: 17784838/0x010F6006)->Render.Flags3 ^= 0x01
249: 0x0549 [0x94] Squintrox Dryeyes (ID: 17784966/0x010F6086)->Render.Flags3 ^= 0x01
250: 0x054F [0xBA] SET_ENTITY_POSITION(entity_id=Unnamed NPC (ID: 17785008/0x010F60B0), pos_x=-83.600*, pos_z=-9.000*, pos_y=0.000*, direction=179.9°*)
251: 0x055C [0xBA] SET_ENTITY_POSITION(entity_id=Mewk Chorosap (ID: 17785004/0x010F60AC), pos_x=-93.000*, pos_z=-7.000*, pos_y=0.000*, direction=191.2°*)
252: 0x0569 [0xBA] SET_ENTITY_POSITION(entity_id=LocalPlayer, pos_x=-103.000*, pos_z=-3.000*, pos_y=0.000*, direction=179.9°*)
253: 0x0576 [0xBA] SET_ENTITY_POSITION(entity_id=Squintrox Dryeyes (ID: 17784966/0x010F6086), pos_x=-66.000*, pos_z=-3.000*, pos_y=0.000*, direction=0.0°*)
254: 0x0583 [0xBA] SET_ENTITY_POSITION(entity_id=Karl (ID: 17784836/0x010F6004), pos_x=-100.000*, pos_z=-4.000*, pos_y=0.000*, direction=0.0°*)
255: 0x0590 [0xBA] SET_ENTITY_POSITION(entity_id=Buntz (ID: 17784837/0x010F6005), pos_x=-101.000*, pos_z=-2.500*, pos_y=0.000*, direction=0.0°*)
256: 0x059D [0xBA] SET_ENTITY_POSITION(entity_id=Jaha Amariyo (ID: 17784838/0x010F6006), pos_x=-105.500*, pos_z=-3.500*, pos_y=0.000*, direction=0.0°*)
257: 0x05AA [0xBA] SET_ENTITY_POSITION(entity_id=Squintrox Dryeyes (ID: 17784966/0x010F6086), pos_x=-74.000*, pos_z=3.000*, pos_y=0.000*, direction=179.9°*)
258: 0x05B7 [0x4A] Unnamed NPC (ID: 17785008/0x010F60B0) looks at Mewk Chorosap (ID: 17785004/0x010F60AC)
259: 0x05C0 [0x4A] Mewk Chorosap (ID: 17785004/0x010F60AC) looks at LocalPlayer
260: 0x05C9 [0x6F] WAIT_FRAME_DELAY: Yield until WaitTime reaches zero
261: 0x05CA [0x76] CHECK_ENTITY_RENDER_FLAGS: Wait until Mewk Chorosap (ID: 17785004/0x010F60AC) Render.Flags0 and Render.Flags3 conditions are met
262: 0x05CF [0x80] LOAD_WAIT(entity=Unnamed NPC (ID: 17785008/0x010F60B0))
263: 0x05D4 [0x80] LOAD_WAIT(entity=Mewk Chorosap (ID: 17785004/0x010F60AC))
264: 0x05D9 [0x80] LOAD_WAIT(entity=LocalPlayer)
265: 0x05DE [0x80] LOAD_WAIT(entity=Synthesis Focuser II (ID: 17785005/0x010F60AD))
266: 0x05E3 [0x80] LOAD_WAIT(entity=Marnie (ID: 17784895/0x010F603F))
267: 0x05E8 [0x80] LOAD_WAIT(entity=Red Ghost (ID: 17784900/0x010F6044))
268: 0x05ED [0x48] [System] [8396*]:
    → "@@"
269: 0x05F0 [0x27] REQ_SET(priority=0x10, entity_id=LocalPlayer, tag_num=0x38)
270: 0x05F7 [0x1C] WAIT(60* ticks)
271: 0x05FA [0x45] LOAD_SCHEDULED_TASK: Load scheduler "s000" with entities [EventEntity, EventEntity], work=[811*, 0*]
272: 0x060B [0x45] LOAD_SCHEDULED_TASK: Load scheduler "fdi1" with entities [LocalPlayer, LocalPlayer], work=[200*, 0*]
273: 0x061C [0x55] WAIT_LOAD_SCHEDULER: Wait for scheduler "fdi1" with entities [LocalPlayer, LocalPlayer], work=200*
274: 0x062B [0x1C] WAIT(180* ticks)
275: 0x062E [0x52] END_LOAD_SCHEDULER: End scheduler "s000" with entities [EventEntity, EventEntity], work=811*
276: 0x063D [0x45] LOAD_SCHEDULED_TASK: Load scheduler "s001" with entities [EventEntity, EventEntity], work=[811*, 0*]
277: 0x064E [0x1C] WAIT(300* ticks)
278: 0x0651 [0x52] END_LOAD_SCHEDULER: End scheduler "s001" with entities [EventEntity, EventEntity], work=811*
279: 0x0660 [0x45] LOAD_SCHEDULED_TASK: Load scheduler "s002" with entities [EventEntity, EventEntity], work=[811*, 0*]
280: 0x0671 [0xBA] SET_ENTITY_POSITION(entity_id=Unnamed NPC (ID: 17785008/0x010F60B0), pos_x=-86.500*, pos_z=-7.500*, pos_y=0.000*, direction=179.9°*)
281: 0x067E [0x4A] Unnamed NPC (ID: 17785008/0x010F60B0) looks at Mewk Chorosap (ID: 17785004/0x010F60AC)
282: 0x0687 [0x27] REQ_SET(priority=0x10, entity_id=Unnamed NPC (ID: 17785008/0x010F60B0), tag_num=0x03)
283: 0x068E [0x2B] Unnamed NPC (ID: 17785008/0x010F60B0) [9330*]:
    → "Ahh... So this is the one I've heard so much aboutaru..."
284: 0x0695 [0x2A] GET_REQ_LEVEL(level=16, entity_id=Unnamed NPC (ID: 17785008/0x010F60B0))
285: 0x069B [0x4A] Unnamed NPC (ID: 17785008/0x010F60B0) looks at Mewk Chorosap (ID: 17785004/0x010F60AC)
286: 0x06A4 [0x23] WAIT_FOR_DIALOG_INTERACTION
287: 0x06A5 [0x4A] Mewk Chorosap (ID: 17785004/0x010F60AC) looks at Unnamed NPC (ID: 17785008/0x010F60B0)
288: 0x06AE [0x1C] WAIT(5* ticks)
289: 0x06B1 [0x6F] WAIT_FRAME_DELAY: Yield until WaitTime reaches zero
290: 0x06B2 [0x76] CHECK_ENTITY_RENDER_FLAGS: Wait until Mewk Chorosap (ID: 17785004/0x010F60AC) Render.Flags0 and Render.Flags3 conditions are met
291: 0x06B7 [0x1C] WAIT(30* ticks)
292: 0x06BA [0x52] END_LOAD_SCHEDULER: End scheduler "s002" with entities [EventEntity, EventEntity], work=811*
293: 0x06C9 [0x45] LOAD_SCHEDULED_TASK: Load scheduler "s003" with entities [EventEntity, EventEntity], work=[811*, 0*]
294: 0x06DA [0x2B] Mewk Chorosap (ID: 17785004/0x010F60AC) [9331*]:
    → "Oh, how long have you been here?"
295: 0x06E1 [0x1C] WAIT(120* ticks)
296: 0x06E4 [0x23] WAIT_FOR_DIALOG_INTERACTION
297: 0x06E5 [0x52] END_LOAD_SCHEDULER: End scheduler "s003" with entities [EventEntity, EventEntity], work=811*
298: 0x06F4 [0x45] LOAD_SCHEDULED_TASK: Load scheduler "s004" with entities [EventEntity, EventEntity], work=[811*, 0*]
299: 0x0705 [0x66] LOAD_EXT_SCHEDULER_MAIN: Load scheduler "tlk0" with entities [Unnamed NPC (ID: 17785008/0x010F60B0), Unnamed NPC (ID: 17785008/0x010F60B0)], work=49*
300: 0x0714 [0x2B] Unnamed NPC (ID: 17785008/0x010F60B0) [9332*]:
    → "I justaru arrived."
301: 0x071B [0x1C] WAIT(120* ticks)
302: 0x071E [0x23] WAIT_FOR_DIALOG_INTERACTION
303: 0x071F [0x66] LOAD_EXT_SCHEDULER_MAIN: Load scheduler "tlk1" with entities [Unnamed NPC (ID: 17785008/0x010F60B0), Unnamed NPC (ID: 17785008/0x010F60B0)], work=49*
304: 0x072E [0x52] END_LOAD_SCHEDULER: End scheduler "s004" with entities [EventEntity, EventEntity], work=811*
305: 0x073D [0x45] LOAD_SCHEDULED_TASK: Load scheduler "s005" with entities [EventEntity, EventEntity], work=[811*, 0*]
306: 0x074E [0x2B] Mewk Chorosap (ID: 17785004/0x010F60AC) [9333*]:
    → "Mwahaha. Yes, I suppose so."
307: 0x0755 [0x23] WAIT_FOR_DIALOG_INTERACTION
308: 0x0756 [0x66] LOAD_EXT_SCHEDULER_MAIN: Load scheduler "tlk0" with entities [Mewk Chorosap (ID: 17785004/0x010F60AC), Mewk Chorosap (ID: 17785004/0x010F60AC)], work=199*
309: 0x0765 [0x2B] Mewk Chorosap (ID: 17785004/0x010F60AC) [9334*]:
    → "Although, I was not expecting you to be the one to brrring me the synthesis focuser."
310: 0x076C [0x1C] WAIT(120* ticks)
311: 0x076F [0x23] WAIT_FOR_DIALOG_INTERACTION
312: 0x0770 [0x66] LOAD_EXT_SCHEDULER_MAIN: Load scheduler "tlk1" with entities [Mewk Chorosap (ID: 17785004/0x010F60AC), Mewk Chorosap (ID: 17785004/0x010F60AC)], work=199*
313: 0x077F [0x52] END_LOAD_SCHEDULER: End scheduler "s005" with entities [EventEntity, EventEntity], work=811*
314: 0x078E [0x45] LOAD_SCHEDULED_TASK: Load scheduler "s006" with entities [EventEntity, EventEntity], work=[811*, 0*]
315: 0x079F [0x66] LOAD_EXT_SCHEDULER_MAIN: Load scheduler "tlk0" with entities [Unnamed NPC (ID: 17785008/0x010F60B0), Unnamed NPC (ID: 17785008/0x010F60B0)], work=189*
316: 0x07AE [0x2B] Unnamed NPC (ID: 17785008/0x010F60B0) [9335*]:
    → "I have my reasons-weasons. It needed a few adjustments before delivery. I know you aren't very good at that sort of thing."
317: 0x07B5 [0x1C] WAIT(120* ticks)
318: 0x07B8 [0x23] WAIT_FOR_DIALOG_INTERACTION
319: 0x07B9 [0x66] LOAD_EXT_SCHEDULER_MAIN: Load scheduler "tlk1" with entities [Unnamed NPC (ID: 17785008/0x010F60B0), Unnamed NPC (ID: 17785008/0x010F60B0)], work=189*
320: 0x07C8 [0x52] END_LOAD_SCHEDULER: End scheduler "s006" with entities [EventEntity, EventEntity], work=811*
321: 0x07D7 [0x45] LOAD_SCHEDULED_TASK: Load scheduler "s007" with entities [EventEntity, EventEntity], work=[811*, 0*]
322: 0x07E8 [0x2B] Mewk Chorosap (ID: 17785004/0x010F60AC) [9336*]:
    → "Yes, I suppose you're rrright about that. I am much better at seeing the bigger picture."
323: 0x07EF [0x1C] WAIT(120* ticks)
324: 0x07F2 [0x23] WAIT_FOR_DIALOG_INTERACTION
325: 0x07F3 [0x52] END_LOAD_SCHEDULER: End scheduler "s007" with entities [EventEntity, EventEntity], work=811*
326: 0x0802 [0x45] LOAD_SCHEDULED_TASK: Load scheduler "s008" with entities [EventEntity, EventEntity], work=[811*, 0*]
327: 0x0813 [0x66] LOAD_EXT_SCHEDULER_MAIN: Load scheduler "tlk0" with entities [Unnamed NPC (ID: 17785008/0x010F60B0), Unnamed NPC (ID: 17785008/0x010F60B0)], work=49*
328: 0x0822 [0x2B] Unnamed NPC (ID: 17785008/0x010F60B0) [9337*]:
    → "By the way, were you able to properly explain the instructions to your guestaru?"
329: 0x0829 [0x1C] WAIT(120* ticks)
330: 0x082C [0x23] WAIT_FOR_DIALOG_INTERACTION
331: 0x082D [0x66] LOAD_EXT_SCHEDULER_MAIN: Load scheduler "tlk1" with entities [Unnamed NPC (ID: 17785008/0x010F60B0), Unnamed NPC (ID: 17785008/0x010F60B0)], work=49*
332: 0x083C [0x6E] Mewk Chorosap (ID: 17785004/0x010F60AC) uses emote 7*
333: 0x0843 [0x99] Wait for Mewk Chorosap (ID: 17785004/0x010F60AC) animation to complete
334: 0x0848 [0x2B] Mewk Chorosap (ID: 17785004/0x010F60AC) [9338*]:
    → "Of course I was."
335: 0x084F [0x1C] WAIT(90* ticks)
336: 0x0852 [0x23] WAIT_FOR_DIALOG_INTERACTION
337: 0x0853 [0x6E] Unnamed NPC (ID: 17785008/0x010F60B0) uses emote 16*
338: 0x085A [0x99] Wait for Unnamed NPC (ID: 17785008/0x010F60B0) animation to complete
339: 0x085F [0x2B] Unnamed NPC (ID: 17785008/0x010F60B0) [9339*]:
    → "Really? You often tend to leave out rather important details-wetails, so I'm sure you understand my concern."
340: 0x0866 [0x1C] WAIT(120* ticks)
341: 0x0869 [0x23] WAIT_FOR_DIALOG_INTERACTION
342: 0x086A [0x52] END_LOAD_SCHEDULER: End scheduler "s008" with entities [EventEntity, EventEntity], work=811*
343: 0x0879 [0x45] LOAD_SCHEDULED_TASK: Load scheduler "s009" with entities [EventEntity, EventEntity], work=[811*, 0*]
344: 0x088A [0x66] LOAD_EXT_SCHEDULER_MAIN: Load scheduler "tlk0" with entities [Mewk Chorosap (ID: 17785004/0x010F60AC), Mewk Chorosap (ID: 17785004/0x010F60AC)], work=199*
345: 0x0899 [0x2B] Mewk Chorosap (ID: 17785004/0x010F60AC) [9340*]:
    → "E-enough about that alrrready. If you just got here, does that mean you were in Mhaura?"
346: 0x08A0 [0x1C] WAIT(120* ticks)
347: 0x08A3 [0x23] WAIT_FOR_DIALOG_INTERACTION
348: 0x08A4 [0x66] LOAD_EXT_SCHEDULER_MAIN: Load scheduler "tlk1" with entities [Mewk Chorosap (ID: 17785004/0x010F60AC), Mewk Chorosap (ID: 17785004/0x010F60AC)], work=199*
349: 0x08B3 [0x1C] WAIT(60* ticks)
350: 0x08B6 [0x27] REQ_SET(priority=0x10, entity_id=Unnamed NPC (ID: 17785008/0x010F60B0), tag_num=0x04)
351: 0x08BD [0x1C] WAIT(15* ticks)
352: 0x08C0 [0x52] END_LOAD_SCHEDULER: End scheduler "s009" with entities [EventEntity, EventEntity], work=811*
353: 0x08CF [0x45] LOAD_SCHEDULED_TASK: Load scheduler "s010" with entities [EventEntity, EventEntity], work=[811*, 0*]
354: 0x08E0 [0x2A] GET_REQ_LEVEL(level=16, entity_id=Unnamed NPC (ID: 17785008/0x010F60B0))
355: 0x08E6 [0x4A] Mewk Chorosap (ID: 17785004/0x010F60AC) looks at Unnamed NPC (ID: 17785008/0x010F60B0)
356: 0x08EF [0x1C] WAIT(60* ticks)
357: 0x08F2 [0x4E] SET_ENTITY_HIDE_FLAG: Show Karl (ID: 17784836/0x010F6004)
358: 0x08F8 [0x4E] SET_ENTITY_HIDE_FLAG: Show Buntz (ID: 17784837/0x010F6005)
359: 0x08FE [0x4E] SET_ENTITY_HIDE_FLAG: Show Jaha Amariyo (ID: 17784838/0x010F6006)
360: 0x0904 [0x4E] SET_ENTITY_HIDE_FLAG: Show Squintrox Dryeyes (ID: 17784966/0x010F6086)
361: 0x090A [0x27] REQ_SET(priority=0x10, entity_id=Karl (ID: 17784836/0x010F6004), tag_num=0x36)
362: 0x0911 [0x27] REQ_SET(priority=0x10, entity_id=Buntz (ID: 17784837/0x010F6005), tag_num=0x34)
363: 0x0918 [0x27] REQ_SET(priority=0x10, entity_id=Jaha Amariyo (ID: 17784838/0x010F6006), tag_num=0x31)
364: 0x091F [0x27] REQ_SET(priority=0x10, entity_id=Squintrox Dryeyes (ID: 17784966/0x010F6086), tag_num=0x2B)
365: 0x0926 [0x1C] WAIT(30* ticks)
366: 0x0929 [0x52] END_LOAD_SCHEDULER: End scheduler "s010" with entities [EventEntity, EventEntity], work=811*
367: 0x0938 [0x45] LOAD_SCHEDULED_TASK: Load scheduler "s011" with entities [EventEntity, EventEntity], work=[811*, 0*]
368: 0x0949 [0x1C] WAIT(240* ticks)
369: 0x094C [0x2B] Unnamed NPC (ID: 17785008/0x010F60B0) [9341*]:
    → "Mhaura... I hear it's quite a bustling place, so I have some interestaru in it, but as long as she's there, I think I'll pass."
370: 0x0953 [0x1C] WAIT(390* ticks)
371: 0x0956 [0x23] WAIT_FOR_DIALOG_INTERACTION
372: 0x0957 [0x52] END_LOAD_SCHEDULER: End scheduler "s011" with entities [EventEntity, EventEntity], work=811*
373: 0x0966 [0x45] LOAD_SCHEDULED_TASK: Load scheduler "s012" with entities [EventEntity, EventEntity], work=[811*, 0*]
374: 0x0977 [0x1C] WAIT(30* ticks)
375: 0x097A [0x4A] Unnamed NPC (ID: 17785008/0x010F60B0) looks at Mewk Chorosap (ID: 17785004/0x010F60AC)
376: 0x0983 [0x6F] WAIT_FRAME_DELAY: Yield until WaitTime reaches zero
377: 0x0984 [0x76] CHECK_ENTITY_RENDER_FLAGS: Wait until Unnamed NPC (ID: 17785008/0x010F60B0) Render.Flags0 and Render.Flags3 conditions are met
378: 0x0989 [0x66] LOAD_EXT_SCHEDULER_MAIN: Load scheduler "tlk0" with entities [Unnamed NPC (ID: 17785008/0x010F60B0), Unnamed NPC (ID: 17785008/0x010F60B0)], work=49*
379: 0x0998 [0x2B] Unnamed NPC (ID: 17785008/0x010F60B0) [9342*]:
    → "Besides, I had some minor business to attend to. I paid a visitaru to each of the three countries in the Middle Lands."
380: 0x099F [0x23] WAIT_FOR_DIALOG_INTERACTION
381: 0x09A0 [0x2B] Unnamed NPC (ID: 17785008/0x010F60B0) [9343*]:
    → "Of course, I made a pointaru to bring back some souvenirs for everybody in the coalition!"
382: 0x09A7 [0x1C] WAIT(120* ticks)
383: 0x09AA [0x23] WAIT_FOR_DIALOG_INTERACTION
384: 0x09AB [0x66] LOAD_EXT_SCHEDULER_MAIN: Load scheduler "tlk1" with entities [Unnamed NPC (ID: 17785008/0x010F60B0), Unnamed NPC (ID: 17785008/0x010F60B0)], work=49*
385: 0x09BA [0x7A] VM_CONTROL: Reset VM for Karl (ID: 17784836/0x010F6004)
386: 0x09C0 [0x7A] VM_CONTROL: Reset VM for Buntz (ID: 17784837/0x010F6005)
387: 0x09C6 [0x7A] VM_CONTROL: Reset VM for Jaha Amariyo (ID: 17784838/0x010F6006)
388: 0x09CC [0x7A] VM_CONTROL: Reset VM for Squintrox Dryeyes (ID: 17784966/0x010F6086)
389: 0x09D2 [0xBA] SET_ENTITY_POSITION(entity_id=Karl (ID: 17784836/0x010F6004), pos_x=-60.886*, pos_z=-8.909*, pos_y=0.000*, direction=307.1°*)
390: 0x09DF [0xBA] SET_ENTITY_POSITION(entity_id=Buntz (ID: 17784837/0x010F6005), pos_x=-62.613*, pos_z=-9.984*, pos_y=0.000*, direction=135.6°*)
391: 0x09EC [0xBA] SET_ENTITY_POSITION(entity_id=Jaha Amariyo (ID: 17784838/0x010F6006), pos_x=-59.874*, pos_z=-10.157*, pos_y=0.000*, direction=85.6°*)
392: 0x09F9 [0x4A] Karl (ID: 17784836/0x010F6004) looks at Buntz (ID: 17784837/0x010F6005)
393: 0x0A02 [0x4A] Buntz (ID: 17784837/0x010F6005) looks at Karl (ID: 17784836/0x010F6004)
394: 0x0A0B [0x4A] Jaha Amariyo (ID: 17784838/0x010F6006) looks at Karl (ID: 17784836/0x010F6004)
395: 0x0A14 [0xBA] SET_ENTITY_POSITION(entity_id=Squintrox Dryeyes (ID: 17784966/0x010F6086), pos_x=-100.071*, pos_z=11.869*, pos_y=0.000*, direction=90.0°*)
396: 0x0A21 [0x52] END_LOAD_SCHEDULER: End scheduler "s012" with entities [EventEntity, EventEntity], work=811*
397: 0x0A30 [0x45] LOAD_SCHEDULED_TASK: Load scheduler "s013" with entities [EventEntity, EventEntity], work=[811*, 0*]
398: 0x0A41 [0x03] Work_Zone_1700[2] = 1239*
399: 0x0A46 [0x03] Work_Zone_1700[3] = 189*
400: 0x0A4B [0x03] Work_Zone_1700[4] = 635*
401: 0x0A50 [0x03] Work_Zone_1700[5] = 4466*
402: 0x0A55 [0x93] DISPLAY_ITEM_INFO(item_id=Work_Zone_1700[2])
403: 0x0A58 [0x66] LOAD_EXT_SCHEDULER_MAIN: Load scheduler "iro0" with entities [Unnamed NPC (ID: 17785008/0x010F60B0), Unnamed NPC (ID: 17785008/0x010F60B0)], work=40*
404: 0x0A67 [0x2B] Unnamed NPC (ID: 17785008/0x010F60B0) [9344*]:
    → "Look! I purchased-wurchased $10 and $11, along with $12 and $13."
405: 0x0A6E [0x1C] WAIT(60* ticks)
406: 0x0A71 [0x93] DISPLAY_ITEM_INFO(item_id=Work_Zone_1700[3])
407: 0x0A74 [0x1C] WAIT(45* ticks)
408: 0x0A77 [0x66] LOAD_EXT_SCHEDULER_MAIN: Load scheduler "iro0" with entities [Unnamed NPC (ID: 17785008/0x010F60B0), Unnamed NPC (ID: 17785008/0x010F60B0)], work=40*
409: 0x0A86 [0x93] DISPLAY_ITEM_INFO(item_id=Work_Zone_1700[4])
410: 0x0A89 [0x1C] WAIT(45* ticks)
411: 0x0A8C [0x93] DISPLAY_ITEM_INFO(item_id=Work_Zone_1700[5])
412: 0x0A8F [0x1C] WAIT(45* ticks)
413: 0x0A92 [0x23] WAIT_FOR_DIALOG_INTERACTION
414: 0x0A93 [0x03] Work_Zone_1700[6] = 136*
415: 0x0A98 [0x03] Work_Zone_1700[7] = 532*
416: 0x0A9D [0x93] DISPLAY_ITEM_INFO(item_id=Work_Zone_1700[6])
417: 0x0AA0 [0x66] LOAD_EXT_SCHEDULER_MAIN: Load scheduler "thk1" with entities [Unnamed NPC (ID: 17785008/0x010F60B0), Unnamed NPC (ID: 17785008/0x010F60B0)], work=40*
418: 0x0AAF [0x2B] Unnamed NPC (ID: 17785008/0x010F60B0) [9345*]:
    → "There's $14 and $15... What's this thing again? I forgotaru..."
419: 0x0AB6 [0x1C] WAIT(60* ticks)
420: 0x0AB9 [0x93] DISPLAY_ITEM_INFO(item_id=Work_Zone_1700[7])
421: 0x0ABC [0x1C] WAIT(60* ticks)
422: 0x0ABF [0x23] WAIT_FOR_DIALOG_INTERACTION
423: 0x0AC0 [0x93] DISPLAY_ITEM_INFO(item_id=0*)
424: 0x0AC3 [0x66] LOAD_EXT_SCHEDULER_MAIN: Load scheduler "thk2" with entities [Unnamed NPC (ID: 17785008/0x010F60B0), Unnamed NPC (ID: 17785008/0x010F60B0)], work=40*
425: 0x0AD2 [0x1C] WAIT(60* ticks)
426: 0x0AD5 [0x66] LOAD_EXT_SCHEDULER_MAIN: Load scheduler "pas0" with entities [Unnamed NPC (ID: 17785008/0x010F60B0), Unnamed NPC (ID: 17785008/0x010F60B0)], work=40*
427: 0x0AE4 [0x2B] Unnamed NPC (ID: 17785008/0x010F60B0) [9346*]:
    → "Oh yes... This is a little-wittle trinket I picked up along the way. It's for you, Mewk."
428: 0x0AEB [0x1C] WAIT(120* ticks)
429: 0x0AEE [0x23] WAIT_FOR_DIALOG_INTERACTION
430: 0x0AEF [0x52] END_LOAD_SCHEDULER: End scheduler "s013" with entities [EventEntity, EventEntity], work=811*
431: 0x0AFE [0x45] LOAD_SCHEDULED_TASK: Load scheduler "s014" with entities [EventEntity, EventEntity], work=[811*, 0*]
432: 0x0B0F [0x6E] Mewk Chorosap (ID: 17785004/0x010F60AC) uses emote 26*
433: 0x0B16 [0x99] Wait for Mewk Chorosap (ID: 17785004/0x010F60AC) animation to complete
434: 0x0B1B [0x7C] Mewk Chorosap (ID: 17785004/0x010F60AC)->Render.Flags2 |= 0x00
435: 0x0B21 [0x2B] Mewk Chorosap (ID: 17785004/0x010F60AC) [9347*]:
    → "..."
436: 0x0B28 [0x1C] WAIT(120* ticks)
437: 0x0B2B [0x23] WAIT_FOR_DIALOG_INTERACTION
438: 0x0B2C [0x7C] Mewk Chorosap (ID: 17785004/0x010F60AC)->Render.Flags2 |= 0x01
439: 0x0B32 [0x52] END_LOAD_SCHEDULER: End scheduler "s014" with entities [EventEntity, EventEntity], work=811*
440: 0x0B41 [0x45] LOAD_SCHEDULED_TASK: Load scheduler "s015" with entities [EventEntity, EventEntity], work=[811*, 0*]
441: 0x0B52 [0x03] Work_Zone_1700[8] = 657*
442: 0x0B57 [0x03] Work_Zone_1700[9] = 219*
443: 0x0B5C [0x93] DISPLAY_ITEM_INFO(item_id=Work_Zone_1700[8])
444: 0x0B5F [0x66] LOAD_EXT_SCHEDULER_MAIN: Load scheduler "tlk0" with entities [Unnamed NPC (ID: 17785008/0x010F60B0), Unnamed NPC (ID: 17785008/0x010F60B0)], work=189*
445: 0x0B6E [0x2B] Unnamed NPC (ID: 17785008/0x010F60B0) [9348*]:
    → "There's also $16 and $17..."
446: 0x0B75 [0x1C] WAIT(90* ticks)
447: 0x0B78 [0x93] DISPLAY_ITEM_INFO(item_id=Work_Zone_1700[9])
448: 0x0B7B [0x1C] WAIT(45* ticks)
449: 0x0B7E [0x23] WAIT_FOR_DIALOG_INTERACTION
450: 0x0B7F [0x93] DISPLAY_ITEM_INFO(item_id=0*)
451: 0x0B82 [0x66] LOAD_EXT_SCHEDULER_MAIN: Load scheduler "bsk0" with entities [Unnamed NPC (ID: 17785008/0x010F60B0), Unnamed NPC (ID: 17785008/0x010F60B0)], work=42*
452: 0x0B91 [0x2B] Unnamed NPC (ID: 17785008/0x010F60B0) [9349*]:
    → "And then... Oh!"
453: 0x0B98 [0x1C] WAIT(120* ticks)
454: 0x0B9B [0x23] WAIT_FOR_DIALOG_INTERACTION
455: 0x0B9C [0x66] LOAD_EXT_SCHEDULER_MAIN: Load scheduler "bik1" with entities [Unnamed NPC (ID: 17785008/0x010F60B0), Unnamed NPC (ID: 17785008/0x010F60B0)], work=42*
456: 0x0BAB [0x1C] WAIT(30* ticks)
457: 0x0BAE [0x52] END_LOAD_SCHEDULER: End scheduler "s015" with entities [EventEntity, EventEntity], work=811*
458: 0x0BBD [0x45] LOAD_SCHEDULED_TASK: Load scheduler "s016" with entities [EventEntity, EventEntity], work=[811*, 0*]
459: 0x0BCE [0x66] LOAD_EXT_SCHEDULER_MAIN: Load scheduler "tlk0" with entities [Unnamed NPC (ID: 17785008/0x010F60B0), Unnamed NPC (ID: 17785008/0x010F60B0)], work=189*
460: 0x0BDD [0x2B] Unnamed NPC (ID: 17785008/0x010F60B0) [9350*]:
    → "I had better get going or else I won't make it in time to prepare for the nextaru investigation!"
461: 0x0BE4 [0x23] WAIT_FOR_DIALOG_INTERACTION
462: 0x0BE5 [0x2B] Unnamed NPC (ID: 17785008/0x010F60B0) [9351*]:
    → "Sorry that I'm so busy rightaru now."
463: 0x0BEC [0x1C] WAIT(120* ticks)
464: 0x0BEF [0x23] WAIT_FOR_DIALOG_INTERACTION
465: 0x0BF0 [0x66] LOAD_EXT_SCHEDULER_MAIN: Load scheduler "tlk1" with entities [Unnamed NPC (ID: 17785008/0x010F60B0), Unnamed NPC (ID: 17785008/0x010F60B0)], work=189*
466: 0x0BFF [0x1C] WAIT(30* ticks)
467: 0x0C02 [0x52] END_LOAD_SCHEDULER: End scheduler "s016" with entities [EventEntity, EventEntity], work=811*
468: 0x0C11 [0x45] LOAD_SCHEDULED_TASK: Load scheduler "s017" with entities [EventEntity, EventEntity], work=[811*, 0*]
469: 0x0C22 [0x6E] Unnamed NPC (ID: 17785008/0x010F60B0) uses emote 9*
470: 0x0C29 [0x99] Wait for Unnamed NPC (ID: 17785008/0x010F60B0) animation to complete
471: 0x0C2E [0x2B] Unnamed NPC (ID: 17785008/0x010F60B0) [9352*]:
    → "Well then, I'll waitaru until I hear from you again!"
472: 0x0C35 [0x1C] WAIT(180* ticks)
473: 0x0C38 [0x23] WAIT_FOR_DIALOG_INTERACTION
474: 0x0C39 [0x7B] Unnamed NPC (ID: 17785008/0x010F60B0) stops talking
475: 0x0C3E [0x4B] UPDATE_ENTITY_YAW(entity=Unnamed NPC (ID: 17785008/0x010F60B0), yaw=358.6°*)
476: 0x0C45 [0x1C] WAIT(15* ticks)
477: 0x0C48 [0x27] REQ_SET(priority=0x10, entity_id=Unnamed NPC (ID: 17785008/0x010F60B0), tag_num=0x05)
478: 0x0C4F [0x52] END_LOAD_SCHEDULER: End scheduler "s017" with entities [EventEntity, EventEntity], work=811*
479: 0x0C5E [0x45] LOAD_SCHEDULED_TASK: Load scheduler "s018" with entities [EventEntity, EventEntity], work=[811*, 0*]
480: 0x0C6F [0x1C] WAIT(120* ticks)
481: 0x0C72 [0x7B] Mewk Chorosap (ID: 17785004/0x010F60AC) stops talking
482: 0x0C77 [0x1C] WAIT(60* ticks)
483: 0x0C7A [0x52] END_LOAD_SCHEDULER: End scheduler "s018" with entities [EventEntity, EventEntity], work=811*
484: 0x0C89 [0x45] LOAD_SCHEDULED_TASK: Load scheduler "s019" with entities [EventEntity, EventEntity], work=[811*, 0*]
485: 0x0C9A [0x66] LOAD_EXT_SCHEDULER_MAIN: Load scheduler "thk1" with entities [Mewk Chorosap (ID: 17785004/0x010F60AC), Mewk Chorosap (ID: 17785004/0x010F60AC)], work=59*
486: 0x0CA9 [0x2B] Mewk Chorosap (ID: 17785004/0x010F60AC) [9353*]:
    → "$15... I'm not exactly sure what I'm supposed to do with this prrresent..."
487: 0x0CB0 [0x1C] WAIT(180* ticks)
488: 0x0CB3 [0x23] WAIT_FOR_DIALOG_INTERACTION
489: 0x0CB4 [0x81] SET_ENTITY_BLINKING(blink_flag=0x00, entity=Mewk Chorosap (ID: 17785004/0x010F60AC))
490: 0x0CBA [0x66] LOAD_EXT_SCHEDULER_MAIN: Load scheduler "kizm" with entities [Mewk Chorosap (ID: 17785004/0x010F60AC), Mewk Chorosap (ID: 17785004/0x010F60AC)], work=191*
491: 0x0CC9 [0x1C] WAIT(5* ticks)
492: 0x0CCC [0x52] END_LOAD_SCHEDULER: End scheduler "s019" with entities [EventEntity, EventEntity], work=811*
493: 0x0CDB [0x45] LOAD_SCHEDULED_TASK: Load scheduler "s020" with entities [EventEntity, EventEntity], work=[811*, 0*]
494: 0x0CEC [0x2B] Mewk Chorosap (ID: 17785004/0x010F60AC) [9354*]:
    → "Hm? There's something wrrritten on the back."
495: 0x0CF3 [0x1C] WAIT(120* ticks)
496: 0x0CF6 [0x23] WAIT_FOR_DIALOG_INTERACTION
497: 0x0CF7 [0x81] SET_ENTITY_BLINKING(blink_flag=0x01, entity=Mewk Chorosap (ID: 17785004/0x010F60AC))
498: 0x0CFD [0x45] LOAD_SCHEDULED_TASK: Load scheduler "fdo1" with entities [LocalPlayer, LocalPlayer], work=[200*, 0*]
499: 0x0D0E [0x55] WAIT_LOAD_SCHEDULER: Wait for scheduler "fdo1" with entities [LocalPlayer, LocalPlayer], work=200*
500: 0x0D1D [0x52] END_LOAD_SCHEDULER: End scheduler "s020" with entities [EventEntity, EventEntity], work=811*
501: 0x0D2C [0x7A] VM_CONTROL: Reset VM for LocalPlayer
502: 0x0D32 [0x27] REQ_SET(priority=0x13, entity_id=Unnamed NPC (ID: 17785008/0x010F60B0), tag_num=0x01)
503: 0x0D39 [0x1C] WAIT(15* ticks)
504: 0x0D3C [0xAB] EventEntity->DespawnValue = 0* // Set despawn value
505: 0x0D40 [0x1C] WAIT(1* ticks)
506: 0x0D43 [0x46] CAMERA_CONTROL: Restore default settings
507: 0x0D45 [0x45] LOAD_SCHEDULED_TASK: Load scheduler "fdi2" with entities [LocalPlayer, LocalPlayer], work=[200*, 0*]
508: 0x0D56 [0x21] END_EVENT
509: 0x0D57 [0x00] END_REQSTACK()
```

### Event 434

#### Metadata

| Field        | Value      |
|--------------|------------|
| Entrypoint   | 0x0D58     |
| Data Size    | 1781 bytes |
| Instructions | 202        |

```
      00 01 02 03 04 05 06 07  08 09 0A 0B 0C 0D 0E 0F
      -- -- -- -- -- -- -- --  -- -- -- -- -- -- -- --
0D50:                          42 45 58 80 F0 FF FF 7F          BEX.....
0D60: F0 FF FF 7F 66 64 6F 31  20 80 55 58 80 F0 FF FF  ....fdo1 .UX....
0D70: 7F F0 FF FF 7F 66 64 6F  31 46 01 38 59 80 4E 01  .....fdo1F.8Y.N.
0D80: 86 60 0F 01 4E 01 18 60  0F 01 4E 01 04 60 0F 01  .`..N..`..N..`..
0D90: 4E 01 05 60 0F 01 4E 01  06 60 0F 01 BA 86 60 0F  N..`..N..`....`.
0DA0: 01 AA 80 AB 80 20 80 AC  80 BA 18 60 0F 01 AD 80  ..... .....`....
0DB0: AE 80 20 80 5C 80 BA 04  60 0F 01 AF 80 64 80 20  .. .\...`....d. 
0DC0: 80 20 80 BA 05 60 0F 01  B0 80 66 80 20 80 20 80  . ...`....f. . .
0DD0: BA 06 60 0F 01 B1 80 68  80 20 80 20 80 BA F0 FF  ..`....h. . ....
0DE0: FF 7F B2 80 B3 80 20 80  AC 80 4A 86 60 0F 01 AC  ...... ...J.`...
0DF0: 60 0F 01 4A 18 60 0F 01  AC 60 0F 01 4A 04 60 0F  `..J.`...`..J.`.
0E00: 01 AC 60 0F 01 4A 05 60  0F 01 AC 60 0F 01 4A 06  ..`..J.`...`..J.
0E10: 60 0F 01 AC 60 0F 01 4A  F0 FF FF 7F AC 60 0F 01  `...`..J.....`..
0E20: 4A AC 60 0F 01 F0 FF FF  7F 6F 76 AC 60 0F 01 7B  J.`......ov.`..{
0E30: AC 60 0F 01 7B 86 60 0F  01 7B 18 60 0F 01 7B 04  .`..{.`..{.`..{.
0E40: 60 0F 01 7B 05 60 0F 01  7B 06 60 0F 01 66 A8 80  `..{.`..{.`..f..
0E50: AC 60 0F 01 AC 60 0F 01  6B 69 7A 6D 1C 07 80 02  .`...`..kizm....
0E60: 87 7F 49 80 80 7B 0E 45  6C 80 F8 FF FF 7F F8 FF  ..I..{.El.......
0E70: FF 7F 73 67 33 30 20 80  01 FC 0E 02 87 7F 43 80  ..sg30 .......C.
0E80: 80 97 0E 45 6C 80 F8 FF  FF 7F F8 FF FF 7F 73 67  ...El.........sg
0E90: 33 30 20 80 01 FC 0E 02  87 7F 72 80 80 B3 0E 45  30 .......r....E
0EA0: 6C 80 F8 FF FF 7F F8 FF  FF 7F 73 74 33 30 20 80  l.........st30 .
0EB0: 01 FC 0E 02 87 7F B4 80  80 CF 0E 45 6C 80 F8 FF  ...........El...
0EC0: FF 7F F8 FF FF 7F 73 74  33 30 20 80 01 FC 0E 02  ......st30 .....
0ED0: 87 7F B5 80 80 EB 0E 45  6C 80 F8 FF FF 7F F8 FF  .......El.......
0EE0: FF 7F 73 67 33 30 20 80  01 FC 0E 45 6C 80 F8 FF  ..sg30 ....El...
0EF0: FF 7F F8 FF FF 7F 73 30  33 30 20 80 45 58 80 F0  ......s030 .EX..
0F00: FF FF 7F F0 FF FF 7F 66  64 69 31 20 80 55 58 80  .......fdi1 .UX.
0F10: F0 FF FF 7F F0 FF FF 7F  66 64 69 31 2B AC 60 0F  ........fdi1+.`.
0F20: 01 B6 80 23 2B AC 60 0F  01 B7 80 1C 1F 80 23 5B  ...#+.`.......#[
0F30: B8 80 AC 60 0F 01 AC 60  0F 01 72 75 70 30 5D 80  ...`...`..rup0].
0F40: 80 1F 80 1C 80 80 02 87  7F 49 80 80 60 0F 52 6C  .........I..`.Rl
0F50: 80 F8 FF FF 7F F8 FF FF  7F 73 67 33 30 01 D7 0F  .........sg30...
0F60: 02 87 7F 43 80 80 7A 0F  52 6C 80 F8 FF FF 7F F8  ...C..z.Rl......
0F70: FF FF 7F 73 67 33 30 01  D7 0F 02 87 7F 72 80 80  ...sg30......r..
0F80: 94 0F 52 6C 80 F8 FF FF  7F F8 FF FF 7F 73 74 33  ..Rl.........st3
0F90: 30 01 D7 0F 02 87 7F B4  80 80 AE 0F 52 6C 80 F8  0...........Rl..
0FA0: FF FF 7F F8 FF FF 7F 73  74 33 30 01 D7 0F 02 87  .......st30.....
0FB0: 7F B5 80 80 C8 0F 52 6C  80 F8 FF FF 7F F8 FF FF  ......Rl........
0FC0: 7F 73 67 33 30 01 D7 0F  52 6C 80 F8 FF FF 7F F8  .sg30...Rl......
0FD0: FF FF 7F 73 30 33 30 45  6C 80 F8 FF FF 7F F8 FF  ...s030El.......
0FE0: FF 7F 73 30 33 31 20 80  2B AC 60 0F 01 B9 80 1C  ..s031 .+.`.....
0FF0: 6D 80 23 52 6C 80 F8 FF  FF 7F F8 FF FF 7F 73 30  m.#Rl.........s0
1000: 33 31 45 6C 80 F8 FF FF  7F F8 FF FF 7F 62 6C 6F  31El.........blo
1010: 6E 20 80 45 6C 80 F8 FF  FF 7F F8 FF FF 7F 73 30  n .El.........s0
1020: 33 32 20 80 1C 08 80 4E  00 86 60 0F 01 4E 00 18  32 ....N..`..N..
1030: 60 0F 01 4E 00 04 60 0F  01 4E 00 05 60 0F 01 4E  `..N..`..N..`..N
1040: 00 06 60 0F 01 CD 45 80  AC 60 0F 01 AC 60 0F 01  ..`...E..`...`..
1050: 6D 61 69 6E 20 80 5B BA  80 AC 60 0F 01 AC 60 0F  main .[...`...`.
1060: 01 74 77 72 31 2B AC 60  0F 01 BB 80 1C BC 80 45  .twr1+.`.......E
1070: 6C 80 F8 FF FF 7F F8 FF  FF 7F 36 30 31 35 20 80  l.........6015 .
1080: CD 00 80 F8 FF FF 7F F8  FF FF 7F 73 30 30 31 20  ...........s001 
1090: 80 1C 81 80 23 27 10 86  60 0F 01 2C 27 10 0A 60  ....#'..`..,'..`
10A0: 0F 01 2B 27 10 18 60 0F  01 2B 27 10 04 60 0F 01  ..+'..`..+'..`..
10B0: 37 27 10 05 60 0F 01 35  27 10 06 60 0F 01 32 27  7'..`..5'..`..2'
10C0: 10 49 60 0F 01 4A 27 10  9C 60 0F 01 05 52 6C 80  .I`..J'..`...Rl.
10D0: F8 FF FF 7F F8 FF FF 7F  73 30 33 32 45 6C 80 F8  ........s032El..
10E0: FF FF 7F F8 FF FF 7F 62  6C 6F 66 20 80 45 6C 80  .......blof .El.
10F0: F8 FF FF 7F F8 FF FF 7F  73 30 33 33 20 80 1C 6D  ........s033 ..m
1100: 80 5D BD 80 1F 80 1C 81  80 5B B8 80 AC 60 0F 01  .].......[...`..
1110: AC 60 0F 01 72 75 70 31  1C BE 80 52 6C 80 F8 FF  .`..rup1...Rl...
1120: FF 7F F8 FF FF 7F 73 30  33 33 02 87 7F 49 80 80  ......s033...I..
1130: 46 11 45 6C 80 F8 FF FF  7F F8 FF FF 7F 73 67 33  F.El.........sg3
1140: 34 20 80 01 C7 11 02 87  7F 43 80 80 62 11 45 6C  4 .......C..b.El
1150: 80 F8 FF FF 7F F8 FF FF  7F 73 67 33 34 20 80 01  .........sg34 ..
1160: C7 11 02 87 7F 72 80 80  7E 11 45 6C 80 F8 FF FF  .....r..~.El....
1170: 7F F8 FF FF 7F 73 74 33  34 20 80 01 C7 11 02 87  .....st34 ......
1180: 7F B4 80 80 9A 11 45 6C  80 F8 FF FF 7F F8 FF FF  ......El........
1190: 7F 73 74 33 34 20 80 01  C7 11 02 87 7F B5 80 80  .st34 ..........
11A0: B6 11 45 6C 80 F8 FF FF  7F F8 FF FF 7F 73 67 33  ..El.........sg3
11B0: 34 20 80 01 C7 11 45 6C  80 F8 FF FF 7F F8 FF FF  4 ....El........
11C0: 7F 73 30 33 34 20 80 7A  00 04 60 0F 01 7A 00 05  .s034 .z..`..z..
11D0: 60 0F 01 7A 00 06 60 0F  01 7A 00 86 60 0F 01 BA  `..z..`..z..`...
11E0: 04 60 0F 01 86 80 87 80  20 80 88 80 BA 05 60 0F  .`...... .....`.
11F0: 01 89 80 8A 80 20 80 8B  80 BA 06 60 0F 01 8C 80  ..... .....`....
1200: 8D 80 20 80 8E 80 4A 04  60 0F 01 05 60 0F 01 4A  .. ...J.`...`..J
1210: 05 60 0F 01 04 60 0F 01  4A 06 60 0F 01 04 60 0F  .`...`..J.`...`.
1220: 01 BA 86 60 0F 01 8F 80  90 80 20 80 91 80 6E AC  ...`...... ...n.
1230: 60 0F 01 BF 80 99 AC 60  0F 01 2B AC 60 0F 01 C0  `......`..+.`...
1240: 80 1C 6D 80 23 79 00 AC  60 0F 01 F0 FF FF 7F 66  ..m.#y..`......f
1250: 1C 80 AC 60 0F 01 AC 60  0F 01 70 61 73 30 2B AC  ...`...`..pas0+.
1260: 60 0F 01 C1 80 1C C2 80  23 66 77 80 AC 60 0F 01  `.......#fw..`..
1270: AC 60 0F 01 74 6C 6B 30  1C 80 80 02 87 7F 49 80  .`..tlk0......I.
1280: 80 A6 12 52 6C 80 F8 FF  FF 7F F8 FF FF 7F 73 67  ...Rl.........sg
1290: 33 34 45 6C 80 F8 FF FF  7F F8 FF FF 7F 73 67 33  34El.........sg3
12A0: 35 20 80 01 72 13 02 87  7F 43 80 80 D1 12 52 6C  5 ..r....C....Rl
12B0: 80 F8 FF FF 7F F8 FF FF  7F 73 67 33 34 45 6C 80  .........sg34El.
12C0: F8 FF FF 7F F8 FF FF 7F  73 67 33 35 20 80 01 72  ........sg35 ..r
12D0: 13 02 87 7F 72 80 80 FC  12 52 6C 80 F8 FF FF 7F  ....r....Rl.....
12E0: F8 FF FF 7F 73 74 33 34  45 6C 80 F8 FF FF 7F F8  ....st34El......
12F0: FF FF 7F 73 74 33 35 20  80 01 72 13 02 87 7F B4  ...st35 ..r.....
1300: 80 80 27 13 52 6C 80 F8  FF FF 7F F8 FF FF 7F 73  ..'.Rl.........s
1310: 74 33 34 45 6C 80 F8 FF  FF 7F F8 FF FF 7F 73 74  t34El.........st
1320: 33 35 20 80 01 72 13 02  87 7F B5 80 80 52 13 52  35 ..r.......R.R
1330: 6C 80 F8 FF FF 7F F8 FF  FF 7F 73 67 33 34 45 6C  l.........sg34El
1340: 80 F8 FF FF 7F F8 FF FF  7F 73 67 33 35 20 80 01  .........sg35 ..
1350: 72 13 52 6C 80 F8 FF FF  7F F8 FF FF 7F 73 30 33  r.Rl.........s03
1360: 34 45 6C 80 F8 FF FF 7F  F8 FF FF 7F 73 30 33 35  4El.........s035
1370: 20 80 2B AC 60 0F 01 C3  80 1C 1F 80 23 45 58 80   .+.`.......#EX.
1380: F0 FF FF 7F F0 FF FF 7F  66 64 6F 31 20 80 55 58  ........fdo1 .UX
1390: 80 F0 FF FF 7F F0 FF FF  7F 66 64 6F 31 02 87 7F  .........fdo1...
13A0: 49 80 80 B7 13 52 6C 80  F8 FF FF 7F F8 FF FF 7F  I....Rl.........
13B0: 73 67 33 35 01 2E 14 02  87 7F 43 80 80 D1 13 52  sg35......C....R
13C0: 6C 80 F8 FF FF 7F F8 FF  FF 7F 73 67 33 35 01 2E  l.........sg35..
13D0: 14 02 87 7F 72 80 80 EB  13 52 6C 80 F8 FF FF 7F  ....r....Rl.....
13E0: F8 FF FF 7F 73 74 33 35  01 2E 14 02 87 7F B4 80  ....st35........
13F0: 80 05 14 52 6C 80 F8 FF  FF 7F F8 FF FF 7F 73 74  ...Rl.........st
1400: 33 35 01 2E 14 02 87 7F  B5 80 80 1F 14 52 6C 80  35...........Rl.
1410: F8 FF FF 7F F8 FF FF 7F  73 67 33 35 01 2E 14 52  ........sg35...R
1420: 6C 80 F8 FF FF 7F F8 FF  FF 7F 73 30 33 35 1C 80  l.........s035..
1430: 80 AB 11 20 80 1C 45 80  46 00 45 58 80 F0 FF FF  ... ..E.F.EX....
1440: 7F F0 FF FF 7F 66 64 69  32 20 80 21 00           .....fdi2 .!.   
```

#### Opcodes

```
  0: 0x0D58 [0x42] SET_CLI_EVENT_CANCEL_DATA()
  1: 0x0D59 [0x45] LOAD_SCHEDULED_TASK: Load scheduler "fdo1" with entities [LocalPlayer, LocalPlayer], work=[200*, 0*]
  2: 0x0D6A [0x55] WAIT_LOAD_SCHEDULER: Wait for scheduler "fdo1" with entities [LocalPlayer, LocalPlayer], work=200*
  3: 0x0D79 [0x46] CAMERA_CONTROL: Disable user control
  4: 0x0D7B [0x38] SET_CLIENT_EVENT_MODE(mode=19*)
  5: 0x0D7E [0x4E] SET_ENTITY_HIDE_FLAG: Hide Squintrox Dryeyes (ID: 17784966/0x010F6086)
  6: 0x0D84 [0x4E] SET_ENTITY_HIDE_FLAG: Hide Raging Lion (ID: 17784856/0x010F6018)
  7: 0x0D8A [0x4E] SET_ENTITY_HIDE_FLAG: Hide Karl (ID: 17784836/0x010F6004)
  8: 0x0D90 [0x4E] SET_ENTITY_HIDE_FLAG: Hide Buntz (ID: 17784837/0x010F6005)
  9: 0x0D96 [0x4E] SET_ENTITY_HIDE_FLAG: Hide Jaha Amariyo (ID: 17784838/0x010F6006)
 10: 0x0D9C [0xBA] SET_ENTITY_POSITION(entity_id=Squintrox Dryeyes (ID: 17784966/0x010F6086), pos_x=-89.000*, pos_z=-1.370*, pos_y=0.000*, direction=89.9°*)
 11: 0x0DA9 [0xBA] SET_ENTITY_POSITION(entity_id=Raging Lion (ID: 17784856/0x010F6018), pos_x=-83.500*, pos_z=-7.600*, pos_y=0.000*, direction=179.9°*)
 12: 0x0DB6 [0xBA] SET_ENTITY_POSITION(entity_id=Karl (ID: 17784836/0x010F6004), pos_x=-78.500*, pos_z=-4.000*, pos_y=0.000*, direction=0.0°*)
 13: 0x0DC3 [0xBA] SET_ENTITY_POSITION(entity_id=Buntz (ID: 17784837/0x010F6005), pos_x=-79.500*, pos_z=-2.500*, pos_y=0.000*, direction=0.0°*)
 14: 0x0DD0 [0xBA] SET_ENTITY_POSITION(entity_id=Jaha Amariyo (ID: 17784838/0x010F6006), pos_x=-80.500*, pos_z=-3.500*, pos_y=0.000*, direction=0.0°*)
 15: 0x0DDD [0xBA] SET_ENTITY_POSITION(entity_id=LocalPlayer, pos_x=-87.800*, pos_z=-7.450*, pos_y=0.000*, direction=89.9°*)
 16: 0x0DEA [0x4A] Squintrox Dryeyes (ID: 17784966/0x010F6086) looks at Mewk Chorosap (ID: 17785004/0x010F60AC)
 17: 0x0DF3 [0x4A] Raging Lion (ID: 17784856/0x010F6018) looks at Mewk Chorosap (ID: 17785004/0x010F60AC)
 18: 0x0DFC [0x4A] Karl (ID: 17784836/0x010F6004) looks at Mewk Chorosap (ID: 17785004/0x010F60AC)
 19: 0x0E05 [0x4A] Buntz (ID: 17784837/0x010F6005) looks at Mewk Chorosap (ID: 17785004/0x010F60AC)
 20: 0x0E0E [0x4A] Jaha Amariyo (ID: 17784838/0x010F6006) looks at Mewk Chorosap (ID: 17785004/0x010F60AC)
 21: 0x0E17 [0x4A] LocalPlayer looks at Mewk Chorosap (ID: 17785004/0x010F60AC)
 22: 0x0E20 [0x4A] Mewk Chorosap (ID: 17785004/0x010F60AC) looks at LocalPlayer
 23: 0x0E29 [0x6F] WAIT_FRAME_DELAY: Yield until WaitTime reaches zero
 24: 0x0E2A [0x76] CHECK_ENTITY_RENDER_FLAGS: Wait until Mewk Chorosap (ID: 17785004/0x010F60AC) Render.Flags0 and Render.Flags3 conditions are met
 25: 0x0E2F [0x7B] Mewk Chorosap (ID: 17785004/0x010F60AC) stops talking
 26: 0x0E34 [0x7B] Squintrox Dryeyes (ID: 17784966/0x010F6086) stops talking
 27: 0x0E39 [0x7B] Raging Lion (ID: 17784856/0x010F6018) stops talking
 28: 0x0E3E [0x7B] Karl (ID: 17784836/0x010F6004) stops talking
 29: 0x0E43 [0x7B] Buntz (ID: 17784837/0x010F6005) stops talking
 30: 0x0E48 [0x7B] Jaha Amariyo (ID: 17784838/0x010F6006) stops talking
 31: 0x0E4D [0x66] LOAD_EXT_SCHEDULER_MAIN: Load scheduler "kizm" with entities [Mewk Chorosap (ID: 17785004/0x010F60AC), Mewk Chorosap (ID: 17785004/0x010F60AC)], work=191*
 32: 0x0E5C [0x1C] WAIT(60* ticks)
 33: 0x0E5F [0x02] IF !(LocalPlayer->Race == 3*) GOTO 0x0E7B
 34: 0x0E67 [0x45] LOAD_SCHEDULED_TASK: Load scheduler "sg30" with entities [EventEntity, EventEntity], work=[811*, 0*]
 35: 0x0E78 [0x01] GOTO 0x0EFC
 36: 0x0E7B [0x02] IF !(LocalPlayer->Race == 4*) GOTO 0x0E97
 37: 0x0E83 [0x45] LOAD_SCHEDULED_TASK: Load scheduler "sg30" with entities [EventEntity, EventEntity], work=[811*, 0*]
 38: 0x0E94 [0x01] GOTO 0x0EFC
 39: 0x0E97 [0x02] IF !(LocalPlayer->Race == 5*) GOTO 0x0EB3
 40: 0x0E9F [0x45] LOAD_SCHEDULED_TASK: Load scheduler "st30" with entities [EventEntity, EventEntity], work=[811*, 0*]
 41: 0x0EB0 [0x01] GOTO 0x0EFC
 42: 0x0EB3 [0x02] IF !(LocalPlayer->Race == 6*) GOTO 0x0ECF
 43: 0x0EBB [0x45] LOAD_SCHEDULED_TASK: Load scheduler "st30" with entities [EventEntity, EventEntity], work=[811*, 0*]
 44: 0x0ECC [0x01] GOTO 0x0EFC
 45: 0x0ECF [0x02] IF !(LocalPlayer->Race == 8*) GOTO 0x0EEB
 46: 0x0ED7 [0x45] LOAD_SCHEDULED_TASK: Load scheduler "sg30" with entities [EventEntity, EventEntity], work=[811*, 0*]
 47: 0x0EE8 [0x01] GOTO 0x0EFC
 48: 0x0EEB [0x45] LOAD_SCHEDULED_TASK: Load scheduler "s030" with entities [EventEntity, EventEntity], work=[811*, 0*]

SUBROUTINE_0EFC:
 49: 0x0EFC [0x45] LOAD_SCHEDULED_TASK: Load scheduler "fdi1" with entities [LocalPlayer, LocalPlayer], work=[200*, 0*]
 50: 0x0F0D [0x55] WAIT_LOAD_SCHEDULER: Wait for scheduler "fdi1" with entities [LocalPlayer, LocalPlayer], work=200*
 51: 0x0F1C [0x2B] Mewk Chorosap (ID: 17785004/0x010F60AC) [9377*]:
    → "So, this is what all of the commotion is about..."
 52: 0x0F23 [0x23] WAIT_FOR_DIALOG_INTERACTION
 53: 0x0F24 [0x2B] Mewk Chorosap (ID: 17785004/0x010F60AC) [9378*]:
    → "This is what I have spent all this time purrrsuing..."
 54: 0x0F2B [0x1C] WAIT(120* ticks)
 55: 0x0F2E [0x23] WAIT_FOR_DIALOG_INTERACTION
 56: 0x0F2F [0x5B] LOAD_EXT_SCHEDULER: Load scheduler "rup0" with entities [Mewk Chorosap (ID: 17785004/0x010F60AC), Mewk Chorosap (ID: 17785004/0x010F60AC)], work=2708*
 57: 0x0F3E [0x5D] SET_MUSIC_VOLUME(volume=15*, fade_time=120*)
 58: 0x0F43 [0x1C] WAIT(15* ticks)
 59: 0x0F46 [0x02] IF !(LocalPlayer->Race == 3*) GOTO 0x0F60
 60: 0x0F4E [0x52] END_LOAD_SCHEDULER: End scheduler "sg30" with entities [EventEntity, EventEntity], work=811*
 61: 0x0F5D [0x01] GOTO 0x0FD7
 62: 0x0F60 [0x02] IF !(LocalPlayer->Race == 4*) GOTO 0x0F7A
 63: 0x0F68 [0x52] END_LOAD_SCHEDULER: End scheduler "sg30" with entities [EventEntity, EventEntity], work=811*
 64: 0x0F77 [0x01] GOTO 0x0FD7
 65: 0x0F7A [0x02] IF !(LocalPlayer->Race == 5*) GOTO 0x0F94
 66: 0x0F82 [0x52] END_LOAD_SCHEDULER: End scheduler "st30" with entities [EventEntity, EventEntity], work=811*
 67: 0x0F91 [0x01] GOTO 0x0FD7
 68: 0x0F94 [0x02] IF !(LocalPlayer->Race == 6*) GOTO 0x0FAE
 69: 0x0F9C [0x52] END_LOAD_SCHEDULER: End scheduler "st30" with entities [EventEntity, EventEntity], work=811*
 70: 0x0FAB [0x01] GOTO 0x0FD7
 71: 0x0FAE [0x02] IF !(LocalPlayer->Race == 8*) GOTO 0x0FC8
 72: 0x0FB6 [0x52] END_LOAD_SCHEDULER: End scheduler "sg30" with entities [EventEntity, EventEntity], work=811*
 73: 0x0FC5 [0x01] GOTO 0x0FD7
 74: 0x0FC8 [0x52] END_LOAD_SCHEDULER: End scheduler "s030" with entities [EventEntity, EventEntity], work=811*

SUBROUTINE_0FD7:
 75: 0x0FD7 [0x45] LOAD_SCHEDULED_TASK: Load scheduler "s031" with entities [EventEntity, EventEntity], work=[811*, 0*]
 76: 0x0FE8 [0x2B] Mewk Chorosap (ID: 17785004/0x010F60AC) [9379*]:
    → "It's..."
 77: 0x0FEF [0x1C] WAIT(180* ticks)
 78: 0x0FF2 [0x23] WAIT_FOR_DIALOG_INTERACTION
 79: 0x0FF3 [0x52] END_LOAD_SCHEDULER: End scheduler "s031" with entities [EventEntity, EventEntity], work=811*
 80: 0x1002 [0x45] LOAD_SCHEDULED_TASK: Load scheduler "blon" with entities [EventEntity, EventEntity], work=[811*, 0*]
 81: 0x1013 [0x45] LOAD_SCHEDULED_TASK: Load scheduler "s032" with entities [EventEntity, EventEntity], work=[811*, 0*]
 82: 0x1024 [0x1C] WAIT(40* ticks)
 83: 0x1027 [0x4E] SET_ENTITY_HIDE_FLAG: Show Squintrox Dryeyes (ID: 17784966/0x010F6086)
 84: 0x102D [0x4E] SET_ENTITY_HIDE_FLAG: Show Raging Lion (ID: 17784856/0x010F6018)
 85: 0x1033 [0x4E] SET_ENTITY_HIDE_FLAG: Show Karl (ID: 17784836/0x010F6004)
 86: 0x1039 [0x4E] SET_ENTITY_HIDE_FLAG: Show Buntz (ID: 17784837/0x010F6005)
 87: 0x103F [0x4E] SET_ENTITY_HIDE_FLAG: Show Jaha Amariyo (ID: 17784838/0x010F6006)
 88: 0x1045 [0xCD] LOAD_SCHEDULED_TASK_ALT4: Load scheduler "main" with entities [Mewk Chorosap (ID: 17785004/0x010F60AC), Mewk Chorosap (ID: 17785004/0x010F60AC)], work=[1*, 0*]
 89: 0x1056 [0x5B] LOAD_EXT_SCHEDULER: Load scheduler "twr1" with entities [Mewk Chorosap (ID: 17785004/0x010F60AC), Mewk Chorosap (ID: 17785004/0x010F60AC)], work=2309*
 90: 0x1065 [0x2B] Mewk Chorosap (ID: 17785004/0x010F60AC) [9380*]:
    → "It's completed at last!"
 91: 0x106C [0x1C] WAIT(20* ticks)
 92: 0x106F [0x45] LOAD_SCHEDULED_TASK: Load scheduler "6015" with entities [EventEntity, EventEntity], work=[811*, 0*]
 93: 0x1080 [0xCD] LOAD_SCHEDULED_TASK_ALT4: Load scheduler "s001" with entities [EventEntity, EventEntity], work=[7*, 0*]
 94: 0x1091 [0x1C] WAIT(240* ticks)
 95: 0x1094 [0x23] WAIT_FOR_DIALOG_INTERACTION
 96: 0x1095 [0x27] REQ_SET(priority=0x10, entity_id=Squintrox Dryeyes (ID: 17784966/0x010F6086), tag_num=0x2C)
 97: 0x109C [0x27] REQ_SET(priority=0x10, entity_id=Chudigrimane (ID: 17784842/0x010F600A), tag_num=0x2B)
 98: 0x10A3 [0x27] REQ_SET(priority=0x10, entity_id=Raging Lion (ID: 17784856/0x010F6018), tag_num=0x2B)
 99: 0x10AA [0x27] REQ_SET(priority=0x10, entity_id=Karl (ID: 17784836/0x010F6004), tag_num=0x37)
100: 0x10B1 [0x27] REQ_SET(priority=0x10, entity_id=Buntz (ID: 17784837/0x010F6005), tag_num=0x35)
101: 0x10B8 [0x27] REQ_SET(priority=0x10, entity_id=Jaha Amariyo (ID: 17784838/0x010F6006), tag_num=0x32)
102: 0x10BF [0x27] REQ_SET(priority=0x10, entity_id=Shami (ID: 17784905/0x010F6049), tag_num=0x4A)
103: 0x10C6 [0x27] REQ_SET(priority=0x10, entity_id=Shemo (ID: 17784988/0x010F609C), tag_num=0x05)
104: 0x10CD [0x52] END_LOAD_SCHEDULER: End scheduler "s032" with entities [EventEntity, EventEntity], work=811*
105: 0x10DC [0x45] LOAD_SCHEDULED_TASK: Load scheduler "blof" with entities [EventEntity, EventEntity], work=[811*, 0*]
106: 0x10ED [0x45] LOAD_SCHEDULED_TASK: Load scheduler "s033" with entities [EventEntity, EventEntity], work=[811*, 0*]
107: 0x10FE [0x1C] WAIT(180* ticks)
108: 0x1101 [0x5D] SET_MUSIC_VOLUME(volume=127*, fade_time=120*)
109: 0x1106 [0x1C] WAIT(240* ticks)
110: 0x1109 [0x5B] LOAD_EXT_SCHEDULER: Load scheduler "rup1" with entities [Mewk Chorosap (ID: 17785004/0x010F60AC), Mewk Chorosap (ID: 17785004/0x010F60AC)], work=2708*
111: 0x1118 [0x1C] WAIT(10* ticks)
112: 0x111B [0x52] END_LOAD_SCHEDULER: End scheduler "s033" with entities [EventEntity, EventEntity], work=811*
113: 0x112A [0x02] IF !(LocalPlayer->Race == 3*) GOTO 0x1146
114: 0x1132 [0x45] LOAD_SCHEDULED_TASK: Load scheduler "sg34" with entities [EventEntity, EventEntity], work=[811*, 0*]
115: 0x1143 [0x01] GOTO 0x11C7
116: 0x1146 [0x02] IF !(LocalPlayer->Race == 4*) GOTO 0x1162
117: 0x114E [0x45] LOAD_SCHEDULED_TASK: Load scheduler "sg34" with entities [EventEntity, EventEntity], work=[811*, 0*]
118: 0x115F [0x01] GOTO 0x11C7
119: 0x1162 [0x02] IF !(LocalPlayer->Race == 5*) GOTO 0x117E
120: 0x116A [0x45] LOAD_SCHEDULED_TASK: Load scheduler "st34" with entities [EventEntity, EventEntity], work=[811*, 0*]
121: 0x117B [0x01] GOTO 0x11C7
122: 0x117E [0x02] IF !(LocalPlayer->Race == 6*) GOTO 0x119A
123: 0x1186 [0x45] LOAD_SCHEDULED_TASK: Load scheduler "st34" with entities [EventEntity, EventEntity], work=[811*, 0*]
124: 0x1197 [0x01] GOTO 0x11C7
125: 0x119A [0x02] IF !(LocalPlayer->Race == 8*) GOTO 0x11B6
126: 0x11A2 [0x45] LOAD_SCHEDULED_TASK: Load scheduler "sg34" with entities [EventEntity, EventEntity], work=[811*, 0*]
127: 0x11B3 [0x01] GOTO 0x11C7
128: 0x11B6 [0x45] LOAD_SCHEDULED_TASK: Load scheduler "s034" with entities [EventEntity, EventEntity], work=[811*, 0*]

SUBROUTINE_11C7:
129: 0x11C7 [0x7A] VM_CONTROL: Reset VM for Karl (ID: 17784836/0x010F6004)
130: 0x11CD [0x7A] VM_CONTROL: Reset VM for Buntz (ID: 17784837/0x010F6005)
131: 0x11D3 [0x7A] VM_CONTROL: Reset VM for Jaha Amariyo (ID: 17784838/0x010F6006)
132: 0x11D9 [0x7A] VM_CONTROL: Reset VM for Squintrox Dryeyes (ID: 17784966/0x010F6086)
133: 0x11DF [0xBA] SET_ENTITY_POSITION(entity_id=Karl (ID: 17784836/0x010F6004), pos_x=-60.886*, pos_z=-8.909*, pos_y=0.000*, direction=307.1°*)
134: 0x11EC [0xBA] SET_ENTITY_POSITION(entity_id=Buntz (ID: 17784837/0x010F6005), pos_x=-62.613*, pos_z=-9.984*, pos_y=0.000*, direction=135.6°*)
135: 0x11F9 [0xBA] SET_ENTITY_POSITION(entity_id=Jaha Amariyo (ID: 17784838/0x010F6006), pos_x=-59.874*, pos_z=-10.157*, pos_y=0.000*, direction=85.6°*)
136: 0x1206 [0x4A] Karl (ID: 17784836/0x010F6004) looks at Buntz (ID: 17784837/0x010F6005)
137: 0x120F [0x4A] Buntz (ID: 17784837/0x010F6005) looks at Karl (ID: 17784836/0x010F6004)
138: 0x1218 [0x4A] Jaha Amariyo (ID: 17784838/0x010F6006) looks at Karl (ID: 17784836/0x010F6004)
139: 0x1221 [0xBA] SET_ENTITY_POSITION(entity_id=Squintrox Dryeyes (ID: 17784966/0x010F6086), pos_x=-100.071*, pos_z=11.869*, pos_y=0.000*, direction=90.0°*)
140: 0x122E [0x6E] Mewk Chorosap (ID: 17785004/0x010F60AC) uses emote 24*
141: 0x1235 [0x99] Wait for Mewk Chorosap (ID: 17785004/0x010F60AC) animation to complete
142: 0x123A [0x2B] Mewk Chorosap (ID: 17785004/0x010F60AC) [9381*]:
    → "Mwahaha. I'm sorry to have frrrightened you. However, I was simply unable to contain my excitement. Mwahahaha!"
143: 0x1241 [0x1C] WAIT(180* ticks)
144: 0x1244 [0x23] WAIT_FOR_DIALOG_INTERACTION
145: 0x1245 [0x79] Mewk Chorosap (ID: 17785004/0x010F60AC) looks at LocalPlayer (Basic look)
146: 0x124F [0x66] LOAD_EXT_SCHEDULER_MAIN: Load scheduler "pas0" with entities [Mewk Chorosap (ID: 17785004/0x010F60AC), Mewk Chorosap (ID: 17785004/0x010F60AC)], work=121*
147: 0x125E [0x2B] Mewk Chorosap (ID: 17785004/0x010F60AC) [9382*]:
    → "Well, looks like I'll be having to share that with the guildmaster!"
148: 0x1265 [0x1C] WAIT(150* ticks)
149: 0x1268 [0x23] WAIT_FOR_DIALOG_INTERACTION
150: 0x1269 [0x66] LOAD_EXT_SCHEDULER_MAIN: Load scheduler "tlk0" with entities [Mewk Chorosap (ID: 17785004/0x010F60AC), Mewk Chorosap (ID: 17785004/0x010F60AC)], work=199*
151: 0x1278 [0x1C] WAIT(15* ticks)
152: 0x127B [0x02] IF !(LocalPlayer->Race == 3*) GOTO 0x12A6
153: 0x1283 [0x52] END_LOAD_SCHEDULER: End scheduler "sg34" with entities [EventEntity, EventEntity], work=811*
154: 0x1292 [0x45] LOAD_SCHEDULED_TASK: Load scheduler "sg35" with entities [EventEntity, EventEntity], work=[811*, 0*]
155: 0x12A3 [0x01] GOTO 0x1372
156: 0x12A6 [0x02] IF !(LocalPlayer->Race == 4*) GOTO 0x12D1
157: 0x12AE [0x52] END_LOAD_SCHEDULER: End scheduler "sg34" with entities [EventEntity, EventEntity], work=811*
158: 0x12BD [0x45] LOAD_SCHEDULED_TASK: Load scheduler "sg35" with entities [EventEntity, EventEntity], work=[811*, 0*]
159: 0x12CE [0x01] GOTO 0x1372
160: 0x12D1 [0x02] IF !(LocalPlayer->Race == 5*) GOTO 0x12FC
161: 0x12D9 [0x52] END_LOAD_SCHEDULER: End scheduler "st34" with entities [EventEntity, EventEntity], work=811*
162: 0x12E8 [0x45] LOAD_SCHEDULED_TASK: Load scheduler "st35" with entities [EventEntity, EventEntity], work=[811*, 0*]
163: 0x12F9 [0x01] GOTO 0x1372
164: 0x12FC [0x02] IF !(LocalPlayer->Race == 6*) GOTO 0x1327
165: 0x1304 [0x52] END_LOAD_SCHEDULER: End scheduler "st34" with entities [EventEntity, EventEntity], work=811*
166: 0x1313 [0x45] LOAD_SCHEDULED_TASK: Load scheduler "st35" with entities [EventEntity, EventEntity], work=[811*, 0*]
167: 0x1324 [0x01] GOTO 0x1372
168: 0x1327 [0x02] IF !(LocalPlayer->Race == 8*) GOTO 0x1352
169: 0x132F [0x52] END_LOAD_SCHEDULER: End scheduler "sg34" with entities [EventEntity, EventEntity], work=811*
170: 0x133E [0x45] LOAD_SCHEDULED_TASK: Load scheduler "sg35" with entities [EventEntity, EventEntity], work=[811*, 0*]
171: 0x134F [0x01] GOTO 0x1372
172: 0x1352 [0x52] END_LOAD_SCHEDULER: End scheduler "s034" with entities [EventEntity, EventEntity], work=811*
173: 0x1361 [0x45] LOAD_SCHEDULED_TASK: Load scheduler "s035" with entities [EventEntity, EventEntity], work=[811*, 0*]

SUBROUTINE_1372:
174: 0x1372 [0x2B] Mewk Chorosap (ID: 17785004/0x010F60AC) [9383*]:
    → "Yes... Go and show that shield to your guildmaster."
175: 0x1379 [0x1C] WAIT(120* ticks)
176: 0x137C [0x23] WAIT_FOR_DIALOG_INTERACTION
177: 0x137D [0x45] LOAD_SCHEDULED_TASK: Load scheduler "fdo1" with entities [LocalPlayer, LocalPlayer], work=[200*, 0*]
178: 0x138E [0x55] WAIT_LOAD_SCHEDULER: Wait for scheduler "fdo1" with entities [LocalPlayer, LocalPlayer], work=200*
179: 0x139D [0x02] IF !(LocalPlayer->Race == 3*) GOTO 0x13B7
180: 0x13A5 [0x52] END_LOAD_SCHEDULER: End scheduler "sg35" with entities [EventEntity, EventEntity], work=811*
181: 0x13B4 [0x01] GOTO 0x142E
182: 0x13B7 [0x02] IF !(LocalPlayer->Race == 4*) GOTO 0x13D1
183: 0x13BF [0x52] END_LOAD_SCHEDULER: End scheduler "sg35" with entities [EventEntity, EventEntity], work=811*
184: 0x13CE [0x01] GOTO 0x142E
185: 0x13D1 [0x02] IF !(LocalPlayer->Race == 5*) GOTO 0x13EB
186: 0x13D9 [0x52] END_LOAD_SCHEDULER: End scheduler "st35" with entities [EventEntity, EventEntity], work=811*
187: 0x13E8 [0x01] GOTO 0x142E
188: 0x13EB [0x02] IF !(LocalPlayer->Race == 6*) GOTO 0x1405
189: 0x13F3 [0x52] END_LOAD_SCHEDULER: End scheduler "st35" with entities [EventEntity, EventEntity], work=811*
190: 0x1402 [0x01] GOTO 0x142E
191: 0x1405 [0x02] IF !(LocalPlayer->Race == 8*) GOTO 0x141F
192: 0x140D [0x52] END_LOAD_SCHEDULER: End scheduler "sg35" with entities [EventEntity, EventEntity], work=811*
193: 0x141C [0x01] GOTO 0x142E
194: 0x141F [0x52] END_LOAD_SCHEDULER: End scheduler "s035" with entities [EventEntity, EventEntity], work=811*

SUBROUTINE_142E:
195: 0x142E [0x1C] WAIT(15* ticks)
196: 0x1431 [0xAB] EventEntity->DespawnValue = 0* // Set despawn value
197: 0x1435 [0x1C] WAIT(1* ticks)
198: 0x1438 [0x46] CAMERA_CONTROL: Restore default settings
199: 0x143A [0x45] LOAD_SCHEDULED_TASK: Load scheduler "fdi2" with entities [LocalPlayer, LocalPlayer], work=[200*, 0*]
200: 0x144B [0x21] END_EVENT
201: 0x144C [0x00] END_REQSTACK()
```
