# 17785003 - Mewk Chorosap

## Common Data

| Field            | Value                |
|------------------|----------------------|
| Zone             | Port Jeuno (ID: 246) |
| Block Size       | 9848 bytes           |
| Total Events     | 28                   |
| References Count | 324                  |

## List of Events

| Event ID                 | Entrypoint   |   Size |   Instructions |
|--------------------------|--------------|--------|----------------|
| [65535](#event-65535)    | 0x0000       |      1 |              1 |
| [414](#event-414)        | 0x0001       |      6 |              4 |
| [415](#event-415)        | 0x0007       |    400 |             93 |
| [416](#event-416)        | 0x0197       |   1056 |            238 |
| [417](#event-417)        | 0x05B7       |    441 |             92 |
| [420](#event-420)        | 0x0770       |     51 |             11 |
| [418](#event-418)        | 0x07A3       |    251 |             39 |
| [422](#event-422)        | 0x089E       |     51 |             11 |
| [423](#event-423)        | 0x08D1       |    160 |             37 |
| [424](#event-424)        | 0x0971       |     51 |             11 |
| [425](#event-425)        | 0x09A4       |    514 |            111 |
| [429](#event-429)        | 0x0BA6       |     51 |             11 |
| [430](#event-430)        | 0x0BD9       |    296 |             67 |
| [421](#event-421)        | 0x0D01       |    157 |             41 |
| [432](#event-432)        | 0x0D9E       |    494 |             74 |
| [431](#event-431)        | 0x0F8C       |      1 |              1 |
| [65535.1](#event-655351) | 0x0F8D       |     16 |              4 |
| [433](#event-433)        | 0x0F9D       |    130 |             38 |
| [434](#event-434)        | 0x101F       |      7 |              2 |
| [437](#event-437)        | 0x1026       |     51 |             11 |
| [435](#event-435)        | 0x1059       |    124 |             24 |
| [436](#event-436)        | 0x10D5       |     17 |              7 |
| [419](#event-419)        | 0x10E6       |    230 |             40 |
| [426](#event-426)        | 0x11CC       |      1 |              1 |
| [428](#event-428)        | 0x11CD       |      1 |              1 |
| [65535.2](#event-655352) | 0x11CE       |    285 |             43 |
| [65535.3](#event-655353) | 0x12EB       |    101 |             19 |
| [65535.4](#event-655354) | 0x1350       |   3480 |            695 |

## DAT References (imed_data)

|   Index | Hex Value   |   Dec Value |
|---------|-------------|-------------|
|       0 | 0x23B2      |        9138 |
|       1 | 0x0032      |          50 |
|       2 | 0x0008      |           8 |
|       3 | 0x23B3      |        9139 |
|       4 | 0x0033      |          51 |
|       5 | 0x23B4      |        9140 |
|       6 | 0x0034      |          52 |
|       7 | 0x23B5      |        9141 |
|       8 | 0x23B6      |        9142 |
|       9 | 0x23B7      |        9143 |
|      10 | 0x23B8      |        9144 |
|      11 | 0x23B9      |        9145 |
|      12 | 0x23BA      |        9146 |
|      13 | 0x23BB      |        9147 |
|      14 | 0x23BC      |        9148 |
|      15 | 0x0079      |         121 |
|      16 | 0x23BD      |        9149 |
|      17 | 0x23BE      |        9150 |
|      18 | 0x23BF      |        9151 |
|      19 | 0x23C0      |        9152 |
|      20 | 0x23C1      |        9153 |
|      21 | 0x23C2      |        9154 |
|      22 | 0x23C3      |        9155 |
|      23 | 0x23C4      |        9156 |
|      24 | 0x23C5      |        9157 |
|      25 | 0x23C6      |        9158 |
|      26 | 0x23C7      |        9159 |
|      27 | 0x23C8      |        9160 |
|      28 | 0x23C9      |        9161 |
|      29 | 0x23CA      |        9162 |
|      30 | 0x23CB      |        9163 |
|      31 | 0x23CC      |        9164 |
|      32 | 0x23CD      |        9165 |
|      33 | 0x0000      |           0 |
|      34 | 0x23CE      |        9166 |
|      35 | 0x23CF      |        9167 |
|      36 | 0x40000000  |  1073741824 |
|      37 | 0x23D0      |        9168 |
|      38 | 0x23D1      |        9169 |
|      39 | 0x23D2      |        9170 |
|      40 | 0x0001      |           1 |
|      41 | 0x0003      |           3 |
|      42 | 0x0007      |           7 |
|      43 | 0x000F      |          15 |
|      44 | 0x0010      |          16 |
|      45 | 0x0017      |          23 |
|      46 | 0x23D3      |        9171 |
|      47 | 0x23D4      |        9172 |
|      48 | 0x0002      |           2 |
|      49 | 0x2429      |        9257 |
|      50 | 0x1003      |        4099 |
|      51 | 0x2411      |        9233 |
|      52 | 0x2412      |        9234 |
|      53 | 0x2414      |        9236 |
|      54 | 0x003B      |          59 |
|      55 | 0x242A      |        9258 |
|      56 | 0x248F      |        9359 |
|      57 | 0x0005      |           5 |
|      58 | 0x248E      |        9358 |
|      59 | 0x2415      |        9237 |
|      60 | 0x24A0      |        9376 |
|      61 | 0x0004      |           4 |
|      62 | 0x243B      |        9275 |
|      63 | 0x24B6      |        9398 |
|      64 | 0x23D8      |        9176 |
|      65 | 0x0006      |           6 |
|      66 | 0x23DB      |        9179 |
|      67 | 0x23D9      |        9177 |
|      68 | 0x23DA      |        9178 |
|      69 | 0x23DC      |        9180 |
|      70 | 0x23DD      |        9181 |
|      71 | 0x23DF      |        9183 |
|      72 | 0x23E0      |        9184 |
|      73 | 0x23DE      |        9182 |
|      74 | 0x23E1      |        9185 |
|      75 | 0x23E2      |        9186 |
|      76 | 0x243A      |        9274 |
|      77 | 0x2499      |        9369 |
|      78 | 0x249A      |        9370 |
|      79 | 0x23D5      |        9173 |
|      80 | 0x23E3      |        9187 |
|      81 | 0x23E4      |        9188 |
|      82 | 0x001E      |          30 |
|      83 | 0x23E5      |        9189 |
|      84 | 0x23E6      |        9190 |
|      85 | 0x23E7      |        9191 |
|      86 | 0x23E8      |        9192 |
|      87 | 0x23E9      |        9193 |
|      88 | 0x23EA      |        9194 |
|      89 | 0x23EB      |        9195 |
|      90 | 0x23F7      |        9207 |
|      91 | 0x23F8      |        9208 |
|      92 | 0x23F9      |        9209 |
|      93 | 0x23FA      |        9210 |
|      94 | 0x23FB      |        9211 |
|      95 | 0x23FC      |        9212 |
|      96 | 0x2420      |        9248 |
|      97 | 0x0078      |         120 |
|      98 | 0x2421      |        9249 |
|      99 | 0x2423      |        9251 |
|     100 | 0x2424      |        9252 |
|     101 | 0x2425      |        9253 |
|     102 | 0x2426      |        9254 |
|     103 | 0x2427      |        9255 |
|     104 | 0x23D6      |        9174 |
|     105 | 0x23D7      |        9175 |
|     106 | 0x23EC      |        9196 |
|     107 | 0x23ED      |        9197 |
|     108 | 0x2405      |        9221 |
|     109 | 0x23FD      |        9213 |
|     110 | 0x2428      |        9256 |
|     111 | 0x23EE      |        9198 |
|     112 | 0x23EF      |        9199 |
|     113 | 0x23F0      |        9200 |
|     114 | 0x003C      |          60 |
|     115 | 0x23F1      |        9201 |
|     116 | 0x23F2      |        9202 |
|     117 | 0x23F3      |        9203 |
|     118 | 0x23F4      |        9204 |
|     119 | 0x23F5      |        9205 |
|     120 | 0x23F6      |        9206 |
|     121 | 0x2406      |        9222 |
|     122 | 0x2407      |        9223 |
|     123 | 0x2408      |        9224 |
|     124 | 0x2409      |        9225 |
|     125 | 0x240A      |        9226 |
|     126 | 0x240B      |        9227 |
|     127 | 0x240C      |        9228 |
|     128 | 0x240D      |        9229 |
|     129 | 0x240E      |        9230 |
|     130 | 0x240F      |        9231 |
|     131 | 0x2410      |        9232 |
|     132 | 0x2416      |        9238 |
|     133 | 0x2417      |        9239 |
|     134 | 0x2418      |        9240 |
|     135 | 0x2419      |        9241 |
|     136 | 0x241A      |        9242 |
|     137 | 0x241B      |        9243 |
|     138 | 0x241C      |        9244 |
|     139 | 0x241D      |        9245 |
|     140 | 0x241E      |        9246 |
|     141 | 0x241F      |        9247 |
|     142 | 0x242B      |        9259 |
|     143 | 0x242C      |        9260 |
|     144 | 0x242D      |        9261 |
|     145 | 0x242E      |        9262 |
|     146 | 0x242F      |        9263 |
|     147 | 0x2430      |        9264 |
|     148 | 0x2431      |        9265 |
|     149 | 0x2432      |        9266 |
|     150 | 0x2433      |        9267 |
|     151 | 0x2434      |        9268 |
|     152 | 0x2435      |        9269 |
|     153 | 0x2436      |        9270 |
|     154 | 0x2437      |        9271 |
|     155 | 0x2438      |        9272 |
|     156 | 0x2439      |        9273 |
|     157 | 0x23FE      |        9214 |
|     158 | 0x23FF      |        9215 |
|     159 | 0x2400      |        9216 |
|     160 | 0x2401      |        9217 |
|     161 | 0x2402      |        9218 |
|     162 | 0x2403      |        9219 |
|     163 | 0x2404      |        9220 |
|     164 | 0x2490      |        9360 |
|     165 | 0x2491      |        9361 |
|     166 | 0x2492      |        9362 |
|     167 | 0x2493      |        9363 |
|     168 | 0x2494      |        9364 |
|     169 | 0x2495      |        9365 |
|     170 | 0x2496      |        9366 |
|     171 | 0x2497      |        9367 |
|     172 | 0x00C9      |         201 |
|     173 | 0x00D7      |         215 |
|     174 | 0xFFFE94B8  |  4294874296 |
|     175 | 0xFFFFE4A8  |  4294960296 |
|     176 | 0x087F      |        2175 |
|     177 | 0x0013      |          19 |
|     178 | 0x005A      |          90 |
|     179 | 0x032B      |         811 |
|     180 | 0x0028      |          40 |
|     181 | 0x00A0      |         160 |
|     182 | 0xFFFEA458  |  4294878296 |
|     183 | 0xFFFFD9B8  |  4294957496 |
|     184 | 0x0C00      |        3072 |
|     185 | 0x2498      |        9368 |
|     186 | 0x249B      |        9371 |
|     187 | 0x249C      |        9372 |
|     188 | 0x249D      |        9373 |
|     189 | 0x249E      |        9374 |
|     190 | 0x249F      |        9375 |
|     191 | 0x24A6      |        9382 |
|     192 | 0x24A7      |        9383 |
|     193 | 0x24A8      |        9384 |
|     194 | 0x24A9      |        9385 |
|     195 | 0x24AA      |        9386 |
|     196 | 0x24AB      |        9387 |
|     197 | 0x24AC      |        9388 |
|     198 | 0x24AD      |        9389 |
|     199 | 0x24C0      |        9408 |
|     200 | 0x001F      |          31 |
|     201 | 0xFFFE9CEF  |  4294876399 |
|     202 | 0xFFFFE008  |  4294959112 |
|     203 | 0x0E90      |        3728 |
|     204 | 0x0333      |         819 |
|     205 | 0x000A      |          10 |
|     206 | 0x00C8      |         200 |
|     207 | 0x248B      |        9355 |
|     208 | 0x248C      |        9356 |
|     209 | 0x248D      |        9357 |
|     210 | 0x000B      |          11 |
|     211 | 0x000D      |          13 |
|     212 | 0x0024      |          36 |
|     213 | 0x000C      |          12 |
|     214 | 0x0015      |          21 |
|     215 | 0x001D      |          29 |
|     216 | 0x0020      |          32 |
|     217 | 0x012C      |         300 |
|     218 | 0x1F40      |        8000 |
|     219 | 0x9C40      |       40000 |
|     220 | 0x00FF      |         255 |
|     221 | 0x24BC      |        9404 |
|     222 | 0x24B7      |        9399 |
|     223 | 0x24B8      |        9400 |
|     224 | 0x24BB      |        9403 |
|     225 | 0x24B9      |        9401 |
|     226 | 0x24BA      |        9402 |
|     227 | 0x2534      |        9524 |
|     228 | 0x1000      |        4096 |
|     229 | 0x0442      |        1090 |
|     230 | 0x021F      |         543 |
|     231 | 0x025F      |         607 |
|     232 | 0x099E      |        2462 |
|     233 | 0x06B9      |        1721 |
|     234 | 0x047A      |        1146 |
|     235 | 0x0227      |         551 |
|     236 | 0x0675      |        1653 |
|     237 | 0x1004      |        4100 |
|     238 | 0x1002      |        4098 |
|     239 | 0x24AE      |        9390 |
|     240 | 0x243E      |        9278 |
|     241 | 0x243F      |        9279 |
|     242 | 0x2440      |        9280 |
|     243 | 0x2441      |        9281 |
|     244 | 0x2442      |        9282 |
|     245 | 0x2443      |        9283 |
|     246 | 0x2444      |        9284 |
|     247 | 0x2446      |        9286 |
|     248 | 0x2447      |        9287 |
|     249 | 0x2449      |        9289 |
|     250 | 0x244A      |        9290 |
|     251 | 0x244B      |        9291 |
|     252 | 0x244C      |        9292 |
|     253 | 0x244D      |        9293 |
|     254 | 0x244E      |        9294 |
|     255 | 0x2456      |        9302 |
|     256 | 0x2450      |        9296 |
|     257 | 0x2451      |        9297 |
|     258 | 0x2452      |        9298 |
|     259 | 0x2453      |        9299 |
|     260 | 0x2454      |        9300 |
|     261 | 0x2455      |        9301 |
|     262 | 0x2458      |        9304 |
|     263 | 0x2459      |        9305 |
|     264 | 0x245A      |        9306 |
|     265 | 0x245B      |        9307 |
|     266 | 0x245C      |        9308 |
|     267 | 0x2464      |        9316 |
|     268 | 0x2465      |        9317 |
|     269 | 0x2466      |        9318 |
|     270 | 0x2467      |        9319 |
|     271 | 0x246A      |        9322 |
|     272 | 0x246B      |        9323 |
|     273 | 0x246C      |        9324 |
|     274 | 0x246D      |        9325 |
|     275 | 0x246E      |        9326 |
|     276 | 0x246F      |        9327 |
|     277 | 0x2470      |        9328 |
|     278 | 0x245E      |        9310 |
|     279 | 0x245F      |        9311 |
|     280 | 0x2460      |        9312 |
|     281 | 0x24AF      |        9391 |
|     282 | 0x24B0      |        9392 |
|     283 | 0x24B1      |        9393 |
|     284 | 0x24B2      |        9394 |
|     285 | 0x24B3      |        9395 |
|     286 | 0x24B4      |        9396 |
|     287 | 0x24B5      |        9397 |
|     288 | 0x2461      |        9313 |
|     289 | 0x24C1      |        9409 |
|     290 | 0x24C3      |        9411 |
|     291 | 0x24C2      |        9410 |
|     292 | 0x0009      |           9 |
|     293 | 0x2469      |        9321 |
|     294 | 0x2471      |        9329 |
|     295 | 0x2473      |        9331 |
|     296 | 0x2476      |        9334 |
|     297 | 0x247A      |        9338 |
|     298 | 0x247B      |        9339 |
|     299 | 0x247E      |        9342 |
|     300 | 0x2480      |        9344 |
|     301 | 0x2483      |        9347 |
|     302 | 0x2487      |        9351 |
|     303 | 0x2488      |        9352 |
|     304 | 0x24A1      |        9377 |
|     305 | 0x24A2      |        9378 |
|     306 | 0x24A5      |        9381 |
|     307 | 0x24BF      |        9407 |
|     308 | 0x2462      |        9314 |
|     309 | 0x2472      |        9330 |
|     310 | 0x2474      |        9332 |
|     311 | 0x247F      |        9343 |
|     312 | 0x247C      |        9340 |
|     313 | 0x2481      |        9345 |
|     314 | 0x2489      |        9353 |
|     315 | 0x24A3      |        9379 |
|     316 | 0x24BD      |        9405 |
|     317 | 0x2468      |        9320 |
|     318 | 0x2475      |        9333 |
|     319 | 0x2482      |        9346 |
|     320 | 0x0800      |        2048 |
|     321 | 0x0027      |          39 |
|     322 | 0x0031      |          49 |
|     323 | 0x0045      |          69 |

## String References

- **9138**: Hmm... It seems I can never find the perrrfect person. Although, I know that one day, somebody'll come along... Mwahaha!
- **9139**: Oh! What do we have here!? Yes! You're just the perrrson I've been looking for!
- **9140**: Mwahaha. Let me guess, you're a craftsman skilled in the art of [/woodworking/smithing/goldsmithing/clothcraft/leathercraft/bonecraft/alchemy/cooking]. Am I rrright?
- **9141**: No, don't answer that, my frrriend. I can tell just by looking at you!
- **9142**: I have a favor to ask. Please, hear me out.
- **9143**: Firrrst, allow me to introduce myself. My name is Mewk Chorosap. I'm a member of the Inventors' Coalition in Adoulin.
- **9144**: See, that's where you come in. I need your help with a new item I'm worrrking on. Mwahaha.
- **9145**: Recently, I've been interrrested in crystal synthesis. In all of Vana'diel, the Middle Lands is known more than any other area for using crystal synthesis.
- **9146**: Therefore, I took a trrrip to see how the process works.
- **9147**: I'm so glad I came here! I can actually picture it now! A bright future where my technology and crystal synthesis are fused together in glorrrious harmony!
- **9148**: Mwahahaha!
- **9149**: Since you are a big part of this future, I want you to have this prrresent.
- **9150**: You see, this is a kind of item to support and even enhance your efforts when it comes to synthesizing items.
- **9151**: Of course, right now, it's just an orrrdinary shield.
- **9152**: When synthesizing crystals, one's mind plays an imporrrtant part in visualizing the finished product.
- **9153**: The power of the mind is also requirrred by this shield.
- **9154**: So when craftsmen like yourself equip this shield, and try really hard to synthesize items over and over again, your blood, sweat, tears, and your very soul itself will be poured into the shield.
- **9155**: I have coined the term "Craftsmanship" to describe the arrrt of imbuing the strength of one's mind into an object.
- **9156**: Once your Craftsmanship reaches a cerrrtain level, you will be able to synthesize a crystal.
- **9157**: You can then combine that crystal with special ingrrredients from the Inventors' Coalition to use on the shield I gave you.
- **9158**: If it all goes according to plan, you'll end up with a brrrand-new shield.
- **9159**: By crrrafting the shield over and over again, you can boost its ability to its maximum value.
- **9160**: I have left the necessary ingredients with the [/Carpenters'/Smithing/Goldsmiths'/Weavers'/Tanners'/Boneworkers'/Alchemists'/Culinarians'] Guild, so please check with your guildmaster.
- **9161**: However, I've asked them to not just give you the ingredients without worrrking for them.
- **9162**: It wouldn't be interrresting if just anybody could make such a powerful thing. Mwahaha.
- **9163**: I'll give you the shield, so what do you say? Are you interrrested in making it even more powerful? Of course, the road to its completion will be fraught with peril.
- **9164**: Once you have started to craft an escutcheon, your [/woodworking/blacksmithing/goldsmithing/weaving/leathcraft/bonecraft/alchemy/cooking] skill will not reduce until the shield is completed or you cancel the process.
- **9165**: What will you do? [Leave it to me!/I think I better pass.]
- **9166**: Really? Well, I suppose even if I did give it to somebody whose hearrrt wasn't in it, it wouldn't go very well. In that case, I'll take the shield back then.
- **9167**: If you ever feel like showing me what you're trrruly made of, I'll be here waiting for you. Mwahaha.
- **9168**: Mwahahaha. I knew you had it in you. I suppose I lit a fire within that crrraftsman's heart of yours.
- **9169**: Now then. Show that shield to your guildmaster. The path forward will be rrrevealed to you.
- **9170**: When you're finished, you'll need to receive a sign on the shield from your guildmaster that it's finished. Then brrring it back to me. I'm counting on you. Mwahaha.
- **9171**: Why hello there, my [/woodworking/smithing/goldsmithing/clothcraft/leathercraft/bonecraft/alchemy/cooking] expert. What is the prrroblem?
- **9172**: What can I do for you? [Never mind./I want to check the recipe./I want a catalyst./Tell me about these apparatuses./I want to try making the shield./I give up trying to make the shield.]
- **9173**: Mwahahaha. In that case, good luck to you, my frrriend.
- **9174**: How's that shield coming? Finished yet?
- **9175**: Good. Now let me have a look.
- **9176**: Mwahaha. It's nice to see you're up for the challenge, my frrriend.
- **9177**: In that case, I'll need to give you this.
- **9178**: In rrregards to the other ingredients, I mentioned this before, but you'll need to speak with your guildmaster.
- **9179**: At least, that's what I would say if you still didn't have that $0. Dispose of it firrrst.
- **9180**: Oh, what happened to give you a change of hearrrt? Are you sure you want to quit?
- **9181**: Note that reattempting will require you to abandon your current shield in progress.
- **9182**: Really abandon your current shield?
- **9183**: Do you really want to quit? [On second thought, I'll stick with it./Yes, I've had enough.]
- **9184**: Mwahaha. That's what I like to hear. Keep up the good worrrk.
- **9185**: Well, that is most unforrrtunate.
- **9186**: That shield will do you no good, so be surrre to get rid of it.
- **9187**: Mwahaha. I've been waiting for this. Let's see what you've brrrought me.
- **9188**: It must've been hard when you firrrst started using this shield. It is difficult to get your spirit in tune with the crystal.
- **9189**: Hmm...
- **9190**: Yes, I imagined as much, but was hoping it'd turn out better.
- **9191**: This is nowhere near the level I was expecting to see.
- **9192**: I suppose a single upgrrrade is only enough to bring it this far. Although, there is no denying that it has gained some ability.
- **9193**: Mwahaha. Can I have a little more time? It looks like I need to rrrethink the design a bit.
- **9194**: Here, take this shield. And I forrrbid you from losing it.
- **9195**: Once the prrreparations are complete, you'll need to perform the next upgrade. I hope you're looking forward to it as much as I am.
- **9196**: (Hmm... Maybe mythril alone makes the spiritual link too weak? In that case, I'll need a differrrent metal. What could I use instead...)
- **9197**: Hm? Mwahaha. I see you are eager to get starrrted. I need just a little more time.
- **9198**: I'm sorry to have kept you waiting. My prrreparations are complete. Mwahaha.
- **9199**: I'm going to get it rrready for the upgrade, so can I borrow the $0 for a moment?
- **9200**: Thank you. Okay, this won't take very long, so just wait a little longer.
- **9201**: There. That should do the trrrick.
- **9202**: Take this and trrry the synthesis again multiple times.
- **9203**: Once your spirit has been sufficiently imbued into the shield, you can try crrrafting the shield again.
- **9204**: The ingrrredients have been left with your guild, so speak to your guildmaster for more information.
- **9205**: Simply show this shield to your parrrticular guildmaster and they'll know what to do.
- **9206**: I'm interrrested to see what this shield can become. Yes, very interested indeed. Mwahaha.
- **9207**: Mwahaha... I've been anxiously awaiting your rrreturn. So, how did it turn out?
- **9208**: I see...
- **9209**: It falls within the rrrange I was expecting, based on the results of our previous attempt.
- **9210**: Splendid. I think you'll rrreally see an improvement with the next upgrade!
- **9211**: Mwahaha. I'll prrrepare the next ingredient for the Inventors' Coalition.
- **9212**: Be sure to make the next upgrade once the preparations are rrready. Mwahaha.
- **9213**: (Hmm... If I could use that sheet, it could serve as a kind of antennae... The problem is the weight... Maybe next time, I'll...)
- **9214**: Mwahaha. What can I do for you, my frrriend?
- **9215**: Hmm... There's something wrrrong with this shield. I don't think it's capable of properly channelling your spirit.
- **9216**: Although, it's still perrrfectly repairable, if you so desire.
- **9217**: However, know that repairing the $0 will reset the escutcheon's progress to when you first received the $1.
- **9218**: Do you want to repair the shield? [Sure./No thanks.]
- **9219**: Okay, I'll make the rrrepairs. Wait just a moment.
- **9220**: That should do it.
- **9221**: You must complete the Records of Eminence objective $0 to further enhance your shield.
- **9222**: Sorry to keep you waiting. The prrreparations are finally complete.
- **9223**: Hm? Is there something you'd like to ask me, frrriend?
- **9224**: There appears to be interference with the synchronicity of the crystal. Yes, it seems that it is that rrrather annoying factor once again.
- **9225**: It would appear that parrrticular factor is hounding us once again...
- **9226**: However, there's no need to let it get us down. I've learrrned a way to mitigate its effects. Mwahaha.
- **9227**: Crafting under cerrrtain conditions enables you to boost Craftsmanship more than usual, yes?
- **9228**: When you take advantage of that situation, the factor is trrriggered, making your life more difficult.
- **9229**: However, if you don't utilize this parrrticular condition, the effect of the factor grows stronger and stronger, meaning you should try to use it as much as possible.
- **9230**: Were you able to comprrrehend all that? At any rate, simply show this shield to your guildmaster like before.
- **9231**: Actually, I can't have you bothering your guildmaster all the time, so I'll explain part of the prrrocess here.
- **9232**: First, you're going to need the rrrecipe.
- **9233**: Required craft: [Fishing/Woodworking/Smithing/Goldsmithing/Clothcrafting/Leathercrafting/Bonecrafting/Alchemy/Cooking] [ /Woodworking/Smithing/Goldsmithing/Clothcrafting/Leathercrafting/Bonecrafting/Alchemy/Cooking] [ /Woodworking/Smithing/Goldsmithing/Clothcrafting/Leathercrafting/Bonecrafting/Alchemy/Cooking] [ /Woodworking/Smithing/Goldsmithing/Clothcrafting/Leathercrafting/Bonecrafting/Alchemy/Cooking]@ Required crystal: $4 Required items...
- **9234**: $4 $0 $5 $0$0 $6 $0 $7 $0$3
- **9236**: $4 $0 $5 $0$0
- **9237**: $4 $0
- **9238**: That's all of them. I hope you wrote that down?
- **9239**: Next, I'll go over how to obtain the necessary materials. I've hearrrd there are a total of three.
- **9240**: Firrrst, you'll need the old standby, $1.
- **9241**: Like usual, you'rrre going to have to boost the Craftsmanship of the $0 to 100% and show it to your guildmaster.
- **9242**: Although, this may have been the most difficult thing to incrrrease the Craftsmanship for. Remember, crafting various kinds of items is the secret to success.
- **9243**: Next, we have the $2 and $3. These too are exactly like you experrrienced before.
- **9244**: Was it a crafting set? Make your deliveries and then you can use the points earned to trrrade for the item.
- **9245**: After that, the $4 and $5 come next. Hmm... I rrrecommend you check with your guildmaster on these two.
- **9246**: That's all I have to say on the matter.
- **9247**: Mwahaha! It seems the shield is nearly finished. Don't forrrget to have your guildmaster mark the shield after it's been upgraded.
- **9248**: Mwahaha. So, how did it turn out? Allow me to take a closer look at your prrrize.
- **9249**: Hmm... This is...
- **9251**: Perrrfect!
- **9252**: This is exactly the rrresult I was hoping for!
- **9253**: Oh, please forrrgive me. I got a little carried away after seeing things turn out just as I anticipated. Mwahaha.
- **9254**: I'm finding it harrrd to contain my excitement. This means the next upgrade will be the one. Mwahahaha!
- **9255**: I'll get on the Inventors' Coalition to begin making the next set of preparations rrright away. I hope you're as excited as I am.
- **9256**: (Hmm... The ultimate synchronicity... Now, to prepare the craftsman's symbol possessed by the guild...)
- **9257**: Oh, my. I even told you to write the recipe down, too. Try to rrremember it this time.
- **9258**: Mwahaha. Are you okay? Keep up the good work out there, my frrriend.
- **9259**: Ahh, I see you've made it to the final stage at last.
- **9260**: Now then, let's get starrrted, shall we? Let me see your $0.
- **9261**: Thank you. I am extremely grrrateful for all of your hard work up to now.
- **9262**: Now then, let's rrreview the necessary materials for the procedure.
- **9263**: First, there's the $2 and the $3.
- **9264**: These two items can be exchanged for crafter points at your guild.
- **9265**: You'll need two $2 and one $3 to prrroceed.
- **9266**: Next up is the $1. You already know how it works. Although this time arrround, it can't simply be used as is.
- **9267**: The $1 is the physical manifestation of a crrraftsman's heart and soul. Although it powers the final upgrade, you will need to activate it first.
- **9268**: Once you obtain it, bring it to me. I'll tell you what you need to perrrform the activation.
- **9269**: By the way, do you rrremember how to obtain the $1?
- **9270**: You'll need the help of your guildmaster after rrraising the shield's Craftsmanship to 100%.
- **9271**: That rrreminds me... I've managed to eliminate the rather unfortunate factor that previously plagued this shield!
- **9272**: This will free you from those rather rrridiculous failures that you experienced before.
- **9273**: And so our explanation ends here!
- **9274**: Listen carefully. Once you obtain the $1, bring it to me rrright away.
- **9275**: Well, good luck to you out there. I'll be anxiously awaiting your rrreturn.
- **9278**: In order to activate the $0, you must firrrst imbue it with your craftsman's spirit to previously unimaginable levels.
- **9279**: Using the regular methods, you'd need to craft with it several million times, but that isn't very rrrealistic, now is it?
- **9280**: That is why I've crrreated a special device to help assist with the crafting process.
- **9281**: Using this "synthesis focuser" during your crafting sessions will help boost your spirit and imbue it within your $0.
- **9282**: You just need to simply flip the switch and begin crafting, although some prrreparations are necessary.
- **9283**: You'll need to place the $0 inside the synthesis focuser, along with the crystal, crafting sphere, and catalyst needed for the crafting process.
- **9284**: For the crystal, please note that you cannot use the high-quality crystals or analysis crystals used for the engraving prrrocess.
- **9286**: Once the materials are set, you can begin the crafting process.
- **9287**: If everything goes as planned, it will infuse your $0 with a large amount of spirit. Once a sufficient amount has been trrransferred, it will activate the $0.
- **9289**: With this parrrticular kind of crafting, you're also able to form "links" while crafting!
- **9290**: I like to call this type of link a "craftchain". I know... I know... It's nothing fancy. Mwahaha.
- **9291**: You alrrready know about the skillchains that you use in battle. This is kind of like that.
- **9292**: The skillchain is triggered when you select the appropriate weapon skills with the proper timing, right?
- **9293**: A craftchain is triggered when you use the proper crafting sphere and catalyst, also with the proper timing.
- **9294**: Once the craftchain is triggered, it will boost your spirit by an even greater amount. You really want to use them if at all possible.
- **9302**: However, you will need to learrrn the linking procedure for yourself.
- **9304**: The catalyst is a material that has a grrreat effect on the success of your craftchain.
- **9305**: You already know how skillchains have levels, rrright?
- **9306**: Craftchains also have levels, and you will need to use a catalyst that matches the element of the crafting sphere.
- **9307**: I have here an example of a catalyst. It comes from the Inventors' Coalition's verrry own MC-I-SR0 series!
- **9308**: The linking process has thrrree levels, just like with skillchains. Depending on the crafting sphere you use, the catalyst will be selected automatically.
- **9310**: If your combination of crystal, crafting sphere, and catalyst are incorrect, the synthesis is guarrranteed to fail.
- **9311**: And if it fails, you will lose the crystal, crafting sphere, and catalyst you used.
- **9312**: Additionally, you will also lose some of the spirit stored within your $0.
- **9313**: That will mean much of your hard work will be for naught, so be especially carrreful when selecting your materials.
- **9316**: You can get the MC-I-SR0 series catalyst from me, for the rrright price of course...
- **9317**: The cost of manufacturing is rather high for this particular catalyst, so I got an earful from the coalition's accountant after I made it in bulk.
- **9318**: If I don't turn a profit, it will adversely affect our rrresearch budget... So, sorry about that. I hope you understand.
- **9319**: The crafting spheres are a somewhat unique item. You can obtain them by using a special technique that brrreaks down certain items into their individual components.
- **9322**: Now, about the item to be used as a base for the technique...
- **9323**: The $4 and the $5...
- **9324**: You should be able to use the $4 with the $6, and the $5 with the $7 for the prrrocedure.
- **9325**: I believe there are more items out there that can be used. The exact number is unknown, but just consider finding them yet another part of the challenge.
- **9326**: You can obtain information from other adventurers, or just keep experrrimenting until you find the answers for yourself.
- **9327**: However, just be careful that you don't lose any valuable items in the process, even if it is in the name of prrrogress.
- **9355**: What's this!? You've completed the activation!
- **9356**: Yes, everything looks perrrfect. The activation is complete. You did it!
- **9357**: Mwahaha... Would you like to go over the rrrecipe?
- **9358**: I'd like to check the materials before you begin the synthesis, so would you mind showing them to me firrrst?
- **9359**: Mwahaha. Now then, let's review the rrrecipe, shall we?
- **9360**: Mwahaha. Impressive. Are you ready to perrrform the synthesis now?
- **9361**: ...
- **9362**: ...
- **9363**: Hm? What's the matter? Is something wrrrong?
- **9364**: What's that? You're trrrying to tell me the synthesis won't start!?
- **9365**: I don't get it... What could've gone wrrrong...
- **9366**: I wonder if the rrrecipe was mistaken... I don't see how though...
- **9367**: Perrrhaps you did not sufficiently activate the object? No, that can't be it!
- **9368**: Wait! That rrreminds me...
- **9369**: I'm sorry. There's one more thing you rrrequire. It should be with your guildmaster.
- **9370**: Do you think you could bring it here for me?
- **9371**: (Thanks, Mikolulu. I completely forrrgot about that note.)
- **9372**: (That note... If I had thrown it carrrelessly away without noticing, I wonder what I would have done...)
- **9373**: I'm sorry. My rrrequest was rather pointless. The thing I asked of you is already here.
- **9374**: Here you go. Mwahaha. It's a rrrather exceptional emblem.
- **9375**: Allow me to go over the rrrecipe once more.
- **9376**: Do you have all of the materials? If so, perrrform the synthesis and show me the completed shield.
- **9382**: Well, looks like I'll be having to share that with the guildmaster!
- **9383**: Yes... Go and show that shield to your guildmaster.
- **9384**: Mwahaha. Welcome back. I imagine your guildmaster was rrrather pleased, no?
- **9385**: That rrreminds me... I don't think I ever thanked you properly.
- **9386**: With this project, I started out looking for a way to rrrevolutionize the manufacturing process, but I never would've succeeded without your assistance.
- **9387**: Thank you for helping me all this time. And congrrratulations on finally completing the escutcheon.
- **9388**: I hope crrraftsmen across the land will use that shield to create higher quality goods than ever before.
- **9389**: I'll be here if you ever need me. Feel free to come ask me anything. Mwahahaha!
- **9390**: Learn about what? [Transmutation./Chains./Spheres./Catalysts./Obtaining materials./Penalties for failure./Nothing.]
- **9391**: There are some conditions for losing your "spirit."
- **9392**: The Synthesis Focuser II will become unstable if certain things are done repeatedly.
- **9393**: Those "certain things" are continuing to use the same crystal and continuing to do the same chain.
- **9394**: If it remains unstable for too long, the Synthesis Focuser II may explode if or when the synthesis fails, meaning that you are more likely to lose some of your spirit.
- **9395**: Stability is restored over time or by increasing the level of your chain.
- **9396**: An explosion will also restore stability to the focuser, although I highly recommend you do not take this route.
- **9397**: The Stability gauge displays the focuser's current stability.
- **9398**: Mwahaha! Very well. Which do you prrrefer?
- **9399**: Which catalyst do you want to buy? [MC-I-SR01 ($0 gil)/MC-I-SR02 ($1 gil)/MC-I-SR03 ($2 gil)/Never mind.]
- **9400**: How many would you like?
- **9401**: You want the [/MC-I-SR01/MC-I-SR02/MC-I-SR03]? It is going to cost you $2 for $1 of them. Please note that there are absolutely no rrreturns. Are you sure?
- **9402**: Make the purchase? (Gil: $16) [Yes./No thanks.]
- **9403**: Oh. It seems you have too many to place within the synthesis focuser. Do try to keep the limit in mind...
- **9404**: Hmm... It seems you can't place any more within the synthesis focuser.
- **9408**: Debug Menu [Crafting controls./Receive shield./Reset flag./Exit.]
- **9409**: Select Craft [Woodworking./Smithing./Goldsmithing./Clothcraft./Leathercraft./Bonecraft./Alchemy./Cooking./Exit.]
- **9410**: Crafting Level [Expert./Veteran./Adept./Artisan./Craftsman./Journeyman./Apprentice./Novice./Initiate./Recruit./Amateur./Exit.]
- **9411**: Select an upgrade level.

## Events

### Event 65535

#### Metadata

| Field        | Value   |
|--------------|---------|
| Entrypoint   | 0x0000  |
| Data Size    | 1 bytes |
| Instructions | 1       |

```
      00 01 02 03 04 05 06 07  08 09 0A 0B 0C 0D 0E 0F
      -- -- -- -- -- -- -- --  -- -- -- -- -- -- -- --
0000: 00                                                .               
```

#### Opcodes

```
  0: 0x0000 [0x00] END_REQSTACK()
```

### Event 414

#### Metadata

| Field        | Value   |
|--------------|---------|
| Entrypoint   | 0x0001  |
| Data Size    | 6 bytes |
| Instructions | 4       |

```
      00 01 02 03 04 05 06 07  08 09 0A 0B 0C 0D 0E 0F
      -- -- -- -- -- -- -- --  -- -- -- -- -- -- -- --
0000:    1D 00 80 23 21 00                               ...#!.         
```

#### Opcodes

```
  0: 0x0001 [0x1D] PRINT_EVENT_MESSAGE(message_id=9138*)
    → "Hmm... It seems I can never find the perrrfect person. Although, I know that one day, somebody'll come along... Mwahaha!"
  1: 0x0004 [0x23] WAIT_FOR_DIALOG_INTERACTION
  2: 0x0005 [0x21] END_EVENT
  3: 0x0006 [0x00] END_REQSTACK()
```

### Event 415

#### Metadata

| Field        | Value     |
|--------------|-----------|
| Entrypoint   | 0x0007    |
| Data Size    | 400 bytes |
| Instructions | 93        |

```
      00 01 02 03 04 05 06 07  08 09 0A 0B 0C 0D 0E 0F
      -- -- -- -- -- -- -- --  -- -- -- -- -- -- -- --
0000:                      03  01 00 02 10 66 01 80 F8         .....f...
0010: FF FF 7F F8 FF FF 7F 74  68 6B 31 1D 00 80 23 53  .......thk1...#S
0020: F8 FF FF 7F F8 FF FF 7F  74 68 6B 31 4A F8 FF FF  ........thk1J...
0030: 7F F0 FF FF 7F 6F 70 66  02 80 F8 FF FF 7F F8 FF  .....opf........
0040: FF 7F 75 72 65 30 1D 03  80 23 66 04 80 F8 FF FF  ..ure0...#f.....
0050: 7F F8 FF FF 7F 74 6C 6B  30 1D 05 80 23 66 06 80  .....tlk0...#f..
0060: F8 FF FF 7F F8 FF FF 7F  70 6F 69 31 1D 07 80 23  ........poi1...#
0070: 66 06 80 F8 FF FF 7F F8  FF FF 7F 70 6F 69 32 1D  f..........poi2.
0080: 08 80 23 66 04 80 F8 FF  FF 7F F8 FF FF 7F 74 6C  ..#f..........tl
0090: 6B 31 1D 09 80 23 1D 0A  80 23 1D 0B 80 23 1D 0C  k1...#...#...#..
00A0: 80 23 66 02 80 F8 FF FF  7F F8 FF FF 7F 75 72 65  .#f..........ure
00B0: 30 1D 0D 80 23 1D 0E 80  23 66 0F 80 F8 FF FF 7F  0...#...#f......
00C0: F8 FF FF 7F 70 61 73 30  1D 10 80 23 66 04 80 F8  ....pas0...#f...
00D0: FF FF 7F F8 FF FF 7F 74  6C 6B 31 1D 11 80 23 1D  .......tlk1...#.
00E0: 12 80 23 1D 13 80 23 1D  14 80 23 1D 15 80 23 1D  ..#...#...#...#.
00F0: 16 80 23 1D 17 80 23 1D  18 80 23 1D 19 80 23 1D  ..#...#...#...#.
0100: 1A 80 23 1D 1B 80 23 1D  1C 80 23 66 04 80 F8 FF  ..#...#...#f....
0110: FF 7F F8 FF FF 7F 74 6C  6B 32 1D 1D 80 23 1D 1E  ......tlk2...#..
0120: 80 23 48 1F 80 24 20 80  21 80 21 80 25 02 00 10  .#H..$ .!.!.%...
0130: 21 80 00 38 01 01 65 01  66 04 80 F8 FF FF 7F F8  !..8..e.f.......
0140: FF FF 7F 74 6C 6B 31 1D  22 80 23 1D 23 80 23 66  ...tlk1.".#.#.#f
0150: 04 80 F8 FF FF 7F F8 FF  FF 7F 74 6C 6B 32 03 01  ..........tlk2..
0160: 10 24 80 21 00 42 66 02  80 F8 FF FF 7F F8 FF FF  .$.!.Bf.........
0170: 7F 75 72 65 30 1D 25 80  23 1D 26 80 23 66 04 80  .ure0.%.#.&.#f..
0180: F8 FF FF 7F F8 FF FF 7F  74 6C 6B 31 1D 27 80 23  ........tlk1.'.#
0190: 03 01 10 28 80 21 00                              ...(.!.         
```

#### Opcodes

```
  0: 0x0007 [0x03] ExtData[1]->WorkLocal[1] = Work_Zone[2]
  1: 0x000C [0x66] LOAD_EXT_SCHEDULER_MAIN: Load scheduler "thk1" with entities [EventEntity, EventEntity], work=50*
  2: 0x001B [0x1D] PRINT_EVENT_MESSAGE(message_id=9138*)
    → "Hmm... It seems I can never find the perrrfect person. Although, I know that one day, somebody'll come along... Mwahaha!"
  3: 0x001E [0x23] WAIT_FOR_DIALOG_INTERACTION
  4: 0x001F [0x53] WAIT_SCHEDULER_TASK: Wait for scheduler "thk1" with entities [EventEntity, EventEntity]
  5: 0x002C [0x4A] EventEntity looks at LocalPlayer
  6: 0x0035 [0x6F] WAIT_FRAME_DELAY: Yield until WaitTime reaches zero
  7: 0x0036 [0x70] WAIT_ENTITY_RENDER_FLAG: Wait while EventEntity->Render.Flags3 bit 2 is set (cancel turn if not)
  8: 0x0037 [0x66] LOAD_EXT_SCHEDULER_MAIN: Load scheduler "ure0" with entities [EventEntity, EventEntity], work=8*
  9: 0x0046 [0x1D] PRINT_EVENT_MESSAGE(message_id=9139*)
    → "Oh! What do we have here!? Yes! You're just the perrrson I've been looking for!"
 10: 0x0049 [0x23] WAIT_FOR_DIALOG_INTERACTION
 11: 0x004A [0x66] LOAD_EXT_SCHEDULER_MAIN: Load scheduler "tlk0" with entities [EventEntity, EventEntity], work=51*
 12: 0x0059 [0x1D] PRINT_EVENT_MESSAGE(message_id=9140*)
    → "Mwahaha. Let me guess, you're a craftsman skilled in the art of [/woodworking/smithing/goldsmithing/clothcraft/leathercraft/bonecraft/alchemy/cooking]. Am I rrright?"
 13: 0x005C [0x23] WAIT_FOR_DIALOG_INTERACTION
 14: 0x005D [0x66] LOAD_EXT_SCHEDULER_MAIN: Load scheduler "poi1" with entities [EventEntity, EventEntity], work=52*
 15: 0x006C [0x1D] PRINT_EVENT_MESSAGE(message_id=9141*)
    → "No, don't answer that, my frrriend. I can tell just by looking at you!"
 16: 0x006F [0x23] WAIT_FOR_DIALOG_INTERACTION
 17: 0x0070 [0x66] LOAD_EXT_SCHEDULER_MAIN: Load scheduler "poi2" with entities [EventEntity, EventEntity], work=52*
 18: 0x007F [0x1D] PRINT_EVENT_MESSAGE(message_id=9142*)
    → "I have a favor to ask. Please, hear me out."
 19: 0x0082 [0x23] WAIT_FOR_DIALOG_INTERACTION
 20: 0x0083 [0x66] LOAD_EXT_SCHEDULER_MAIN: Load scheduler "tlk1" with entities [EventEntity, EventEntity], work=51*
 21: 0x0092 [0x1D] PRINT_EVENT_MESSAGE(message_id=9143*)
    → "Firrrst, allow me to introduce myself. My name is Mewk Chorosap. I'm a member of the Inventors' Coalition in Adoulin."
 22: 0x0095 [0x23] WAIT_FOR_DIALOG_INTERACTION
 23: 0x0096 [0x1D] PRINT_EVENT_MESSAGE(message_id=9144*)
    → "See, that's where you come in. I need your help with a new item I'm worrrking on. Mwahaha."
 24: 0x0099 [0x23] WAIT_FOR_DIALOG_INTERACTION
 25: 0x009A [0x1D] PRINT_EVENT_MESSAGE(message_id=9145*)
    → "Recently, I've been interrrested in crystal synthesis. In all of Vana'diel, the Middle Lands is known more than any other area for using crystal synthesis."
 26: 0x009D [0x23] WAIT_FOR_DIALOG_INTERACTION
 27: 0x009E [0x1D] PRINT_EVENT_MESSAGE(message_id=9146*)
    → "Therefore, I took a trrrip to see how the process works."
 28: 0x00A1 [0x23] WAIT_FOR_DIALOG_INTERACTION
 29: 0x00A2 [0x66] LOAD_EXT_SCHEDULER_MAIN: Load scheduler "ure0" with entities [EventEntity, EventEntity], work=8*
 30: 0x00B1 [0x1D] PRINT_EVENT_MESSAGE(message_id=9147*)
    → "I'm so glad I came here! I can actually picture it now! A bright future where my technology and crystal synthesis are fused together in glorrrious harmony!"
 31: 0x00B4 [0x23] WAIT_FOR_DIALOG_INTERACTION
 32: 0x00B5 [0x1D] PRINT_EVENT_MESSAGE(message_id=9148*)
    → "Mwahahaha!"
 33: 0x00B8 [0x23] WAIT_FOR_DIALOG_INTERACTION
 34: 0x00B9 [0x66] LOAD_EXT_SCHEDULER_MAIN: Load scheduler "pas0" with entities [EventEntity, EventEntity], work=121*
 35: 0x00C8 [0x1D] PRINT_EVENT_MESSAGE(message_id=9149*)
    → "Since you are a big part of this future, I want you to have this prrresent."
 36: 0x00CB [0x23] WAIT_FOR_DIALOG_INTERACTION
 37: 0x00CC [0x66] LOAD_EXT_SCHEDULER_MAIN: Load scheduler "tlk1" with entities [EventEntity, EventEntity], work=51*
 38: 0x00DB [0x1D] PRINT_EVENT_MESSAGE(message_id=9150*)
    → "You see, this is a kind of item to support and even enhance your efforts when it comes to synthesizing items."
 39: 0x00DE [0x23] WAIT_FOR_DIALOG_INTERACTION
 40: 0x00DF [0x1D] PRINT_EVENT_MESSAGE(message_id=9151*)
    → "Of course, right now, it's just an orrrdinary shield."
 41: 0x00E2 [0x23] WAIT_FOR_DIALOG_INTERACTION
 42: 0x00E3 [0x1D] PRINT_EVENT_MESSAGE(message_id=9152*)
    → "When synthesizing crystals, one's mind plays an imporrrtant part in visualizing the finished product."
 43: 0x00E6 [0x23] WAIT_FOR_DIALOG_INTERACTION
 44: 0x00E7 [0x1D] PRINT_EVENT_MESSAGE(message_id=9153*)
    → "The power of the mind is also requirrred by this shield."
 45: 0x00EA [0x23] WAIT_FOR_DIALOG_INTERACTION
 46: 0x00EB [0x1D] PRINT_EVENT_MESSAGE(message_id=9154*)
    → "So when craftsmen like yourself equip this shield, and try really hard to synthesize items over and over again, your blood, sweat, tears, and your very soul itself will be poured into the shield."
 47: 0x00EE [0x23] WAIT_FOR_DIALOG_INTERACTION
 48: 0x00EF [0x1D] PRINT_EVENT_MESSAGE(message_id=9155*)
    → "I have coined the term "Craftsmanship" to describe the arrrt of imbuing the strength of one's mind into an object."
 49: 0x00F2 [0x23] WAIT_FOR_DIALOG_INTERACTION
 50: 0x00F3 [0x1D] PRINT_EVENT_MESSAGE(message_id=9156*)
    → "Once your Craftsmanship reaches a cerrrtain level, you will be able to synthesize a crystal."
 51: 0x00F6 [0x23] WAIT_FOR_DIALOG_INTERACTION
 52: 0x00F7 [0x1D] PRINT_EVENT_MESSAGE(message_id=9157*)
    → "You can then combine that crystal with special ingrrredients from the Inventors' Coalition to use on the shield I gave you."
 53: 0x00FA [0x23] WAIT_FOR_DIALOG_INTERACTION
 54: 0x00FB [0x1D] PRINT_EVENT_MESSAGE(message_id=9158*)
    → "If it all goes according to plan, you'll end up with a brrrand-new shield."
 55: 0x00FE [0x23] WAIT_FOR_DIALOG_INTERACTION
 56: 0x00FF [0x1D] PRINT_EVENT_MESSAGE(message_id=9159*)
    → "By crrrafting the shield over and over again, you can boost its ability to its maximum value."
 57: 0x0102 [0x23] WAIT_FOR_DIALOG_INTERACTION
 58: 0x0103 [0x1D] PRINT_EVENT_MESSAGE(message_id=9160*)
    → "I have left the necessary ingredients with the [/Carpenters'/Smithing/Goldsmiths'/Weavers'/Tanners'/Boneworkers'/Alchemists'/Culinarians'] Guild, so please check with your guildmaster."
 59: 0x0106 [0x23] WAIT_FOR_DIALOG_INTERACTION
 60: 0x0107 [0x1D] PRINT_EVENT_MESSAGE(message_id=9161*)
    → "However, I've asked them to not just give you the ingredients without worrrking for them."
 61: 0x010A [0x23] WAIT_FOR_DIALOG_INTERACTION
 62: 0x010B [0x66] LOAD_EXT_SCHEDULER_MAIN: Load scheduler "tlk2" with entities [EventEntity, EventEntity], work=51*
 63: 0x011A [0x1D] PRINT_EVENT_MESSAGE(message_id=9162*)
    → "It wouldn't be interrresting if just anybody could make such a powerful thing. Mwahaha."
 64: 0x011D [0x23] WAIT_FOR_DIALOG_INTERACTION
 65: 0x011E [0x1D] PRINT_EVENT_MESSAGE(message_id=9163*)
    → "I'll give you the shield, so what do you say? Are you interrrested in making it even more powerful? Of course, the road to its completion will be fraught with peril."
 66: 0x0121 [0x23] WAIT_FOR_DIALOG_INTERACTION
 67: 0x0122 [0x48] [System] [9164*]:
    → "Once you have started to craft an escutcheon, your [/woodworking/blacksmithing/goldsmithing/weaving/leathcraft/bonecraft/alchemy/cooking] skill will not reduce until the shield is completed or you cancel the process."
 68: 0x0125 [0x24] CREATE_DIALOG(message_id=9165*, default_option=0*, option_flags=0*)
    → "What will you do? [Leave it to me!/I think I better pass.]"
 69: 0x012C [0x25] WAIT_DIALOG_SELECT()
 70: 0x012D [0x02] IF !(Work_Zone[0] == 0*) GOTO 0x0138
 71: 0x0135 [0x01] GOTO 0x0165
 72: 0x0138 [0x66] LOAD_EXT_SCHEDULER_MAIN: Load scheduler "tlk1" with entities [EventEntity, EventEntity], work=51*
 73: 0x0147 [0x1D] PRINT_EVENT_MESSAGE(message_id=9166*)
    → "Really? Well, I suppose even if I did give it to somebody whose hearrrt wasn't in it, it wouldn't go very well. In that case, I'll take the shield back then."
 74: 0x014A [0x23] WAIT_FOR_DIALOG_INTERACTION
 75: 0x014B [0x1D] PRINT_EVENT_MESSAGE(message_id=9167*)
    → "If you ever feel like showing me what you're trrruly made of, I'll be here waiting for you. Mwahaha."
 76: 0x014E [0x23] WAIT_FOR_DIALOG_INTERACTION
 77: 0x014F [0x66] LOAD_EXT_SCHEDULER_MAIN: Load scheduler "tlk2" with entities [EventEntity, EventEntity], work=51*
 78: 0x015E [0x03] Work_Zone[1] = 1073741824*
 79: 0x0163 [0x21] END_EVENT
 80: 0x0164 [0x00] END_REQSTACK()

SUBROUTINE_0165:
 81: 0x0165 [0x42] SET_CLI_EVENT_CANCEL_DATA()
 82: 0x0166 [0x66] LOAD_EXT_SCHEDULER_MAIN: Load scheduler "ure0" with entities [EventEntity, EventEntity], work=8*
 83: 0x0175 [0x1D] PRINT_EVENT_MESSAGE(message_id=9168*)
    → "Mwahahaha. I knew you had it in you. I suppose I lit a fire within that crrraftsman's heart of yours."
 84: 0x0178 [0x23] WAIT_FOR_DIALOG_INTERACTION
 85: 0x0179 [0x1D] PRINT_EVENT_MESSAGE(message_id=9169*)
    → "Now then. Show that shield to your guildmaster. The path forward will be rrrevealed to you."
 86: 0x017C [0x23] WAIT_FOR_DIALOG_INTERACTION
 87: 0x017D [0x66] LOAD_EXT_SCHEDULER_MAIN: Load scheduler "tlk1" with entities [EventEntity, EventEntity], work=51*
 88: 0x018C [0x1D] PRINT_EVENT_MESSAGE(message_id=9170*)
    → "When you're finished, you'll need to receive a sign on the shield from your guildmaster that it's finished. Then brrring it back to me. I'm counting on you. Mwahaha."
 89: 0x018F [0x23] WAIT_FOR_DIALOG_INTERACTION
 90: 0x0190 [0x03] Work_Zone[1] = 1*
 91: 0x0195 [0x21] END_EVENT
 92: 0x0196 [0x00] END_REQSTACK()
```

### Event 416

#### Metadata

| Field        | Value      |
|--------------|------------|
| Entrypoint   | 0x0197     |
| Data Size    | 1056 bytes |
| Instructions | 222        |

```
      00 01 02 03 04 05 06 07  08 09 0A 0B 0C 0D 0E 0F
      -- -- -- -- -- -- -- --  -- -- -- -- -- -- -- --
0190:                      03  01 00 02 10 03 02 00 03         .........
01A0: 10 03 07 00 04 10 03 03  00 04 10 03 08 00 05 10  ................
01B0: 02 03 00 29 80 00 E2 01  03 0A 00 06 10 41 21 80  ...).........A!.
01C0: 2A 80 07 10 1B 00 41 02  80 2B 80 07 10 1C 00 41  *.....A..+.....A
01D0: 2C 80 2D 80 07 10 1D 00  03 20 00 08 10 03 21 00  ,.-...... ....!.
01E0: 09 10 4A F8 FF FF 7F F0  FF FF 7F 1D 2E 80 23 24  ..J...........#$
01F0: 2F 80 21 80 02 00 25 02  00 10 28 80 00 E3 03 02  /.!...%...(.....
0200: 03 00 30 80 80 B2 02 66  01 80 F8 FF FF 7F F8 FF  ..0....f........
0210: FF 7F 74 68 6B 31 1D 31  80 23 66 01 80 F8 FF FF  ..thk1.1.#f.....
0220: 7F F8 FF FF 7F 74 68 6B  32 1A 11 1A 03 08 10 01  .....thk2.......
0230: 00 03 03 10 21 80 03 04  10 21 80 03 05 10 21 80  ....!....!....!.
0240: 03 06 10 32 80 48 33 80  23 03 02 10 08 00 03 03  ...2.H3.#.......
0250: 10 0B 00 03 04 10 0C 00  03 05 10 0D 00 03 06 10  ................
0260: 28 80 03 07 10 13 00 03  08 10 14 00 03 09 10 15  (...............
0270: 00 48 34 80 23 03 02 10  0E 00 03 03 10 0F 00 03  .H4.#...........
0280: 06 10 16 00 03 07 10 17  00 48 35 80 23 66 36 80  .........H5.#f6.
0290: F8 FF FF 7F F8 FF FF 7F  74 6C 6B 30 1D 37 80 23  ........tlk0.7.#
02A0: 66 36 80 F8 FF FF 7F F8  FF FF 7F 74 6C 6B 31 01  f6.........tlk1.
02B0: E0 03 02 03 00 29 80 80  E0 03 1D 38 80 23 02 21  .....).....8.#.!
02C0: 00 39 80 80 19 03 1A 2A  1C 03 08 10 01 00 03 03  .9.....*........
02D0: 10 21 80 03 04 10 21 80  03 05 10 21 80 03 06 10  .!....!....!....
02E0: 32 80 48 33 80 23 03 02  10 08 00 03 03 10 0B 00  2.H3.#..........
02F0: 03 04 10 0C 00 03 05 10  0D 00 03 06 10 28 80 03  .............(..
0300: 07 10 13 00 03 08 10 14  00 03 09 10 15 00 48 34  ..............H4
0310: 80 23 1D 3A 80 23 01 DD  03 02 21 00 02 80 80 82  .#.:.#....!.....
0320: 03 1A A3 1D 03 08 10 01  00 03 03 10 21 80 03 04  ............!...
0330: 10 21 80 03 05 10 21 80  03 06 10 32 80 48 33 80  .!....!....2.H3.
0340: 23 03 02 10 08 00 03 03  10 0B 00 03 04 10 0C 00  #...............
0350: 03 05 10 0D 00 03 06 10  28 80 03 07 10 13 00 03  ........(.......
0360: 08 10 14 00 03 09 10 15  00 48 34 80 23 03 02 10  .........H4.#...
0370: 0E 00 03 06 10 16 00 48  3B 80 23 1D 3C 80 23 01  .......H;.#.<.#.
0380: DD 03 02 21 00 3D 80 80  DD 03 1A 2A 1C 03 08 10  ...!.=.....*....
0390: 01 00 03 03 10 21 80 03  04 10 21 80 03 05 10 21  .....!....!....!
03A0: 80 03 06 10 32 80 48 33  80 23 03 02 10 08 00 03  ....2.H3.#......
03B0: 03 10 0B 00 03 04 10 0C  00 03 05 10 0D 00 03 06  ................
03C0: 10 28 80 03 07 10 13 00  03 08 10 14 00 03 09 10  .(..............
03D0: 15 00 48 34 80 23 1D 3E  80 23 01 DD 03 01 E0 03  ..H4.#.>.#......
03E0: 01 B5 05 02 00 10 30 80  00 13 04 66 36 80 F8 FF  ......0....f6...
03F0: FF 7F F8 FF FF 7F 74 6C  6B 30 1D 3F 80 23 66 36  ......tlk0.?.#f6
0400: 80 F8 FF FF 7F F8 FF FF  7F 74 6C 6B 31 1A B2 13  .........tlk1...
0410: 01 B5 05 02 00 10 29 80  00 21 04 1A 25 15 01 B5  ......)..!..%...
0420: 05 02 00 10 3D 80 00 7E  04 02 07 00 21 80 01 52  ....=..~....!..R
0430: 04 1D 40 80 23 6E F8 FF  FF 7F 41 80 99 F8 FF FF  ..@.#n....A.....
0440: 7F 03 02 10 07 00 1D 42  80 23 03 01 10 29 80 01  .......B.#...)..
0450: 7B 04 42 66 04 80 F8 FF  FF 7F F8 FF FF 7F 74 6C  {.Bf..........tl
0460: 6B 31 1D 40 80 23 1D 43  80 23 1D 44 80 23 1D 26  k1.@.#.C.#.D.#.&
0470: 80 23 1D 27 80 23 03 01  10 28 80 01 B5 05 02 00  .#.'.#...(......
0480: 10 39 80 00 46 05 66 01  80 F8 FF FF 7F F8 FF FF  .9..F.f.........
0490: 7F 74 68 6B 31 1D 45 80  23 48 46 80 24 47 80 21  .thk1.E.#HF.$G.!
04A0: 80 21 80 25 02 00 10 21  80 00 D4 04 42 66 04 80  .!.%...!....Bf..
04B0: F8 FF FF 7F F8 FF FF 7F  74 6C 6B 31 1D 48 80 23  ........tlk1.H.#
04C0: 02 03 00 29 80 01 CC 04  1D 27 80 23 03 01 10 24  ...).....'.#...$
04D0: 80 01 43 05 02 00 10 28  80 00 43 05 1D 49 80 23  ..C....(..C..I.#
04E0: 24 47 80 21 80 21 80 25  02 00 10 21 80 00 18 05  $G.!.!.%...!....
04F0: 42 66 04 80 F8 FF FF 7F  F8 FF FF 7F 74 6C 6B 31  Bf..........tlk1
0500: 1D 48 80 23 02 03 00 29  80 01 10 05 1D 27 80 23  .H.#...).....'.#
0510: 03 01 10 24 80 01 40 05  02 00 10 28 80 00 40 05  ...$..@....(..@.
0520: 42 66 06 80 F8 FF FF 7F  F8 FF FF 7F 64 69 73 30  Bf..........dis0
0530: 1D 4A 80 23 1D 4B 80 23  03 01 10 30 80 01 40 05  .J.#.K.#...0..@.
0540: 01 43 05 01 B5 05 66 04  80 F8 FF FF 7F F8 FF FF  .C....f.........
0550: 7F 74 6C 6B 31 02 03 00  29 80 00 AC 05 02 21 00  .tlk1...).....!.
0560: 3D 80 03 78 05 03 03 10  0A 00 1D 4C 80 23 03 01  =..x.......L.#..
0570: 10 24 80 21 00 01 A5 05  02 21 00 39 80 00 8E 05  .$.!.....!.9....
0580: 1D 3A 80 23 03 01 10 24  80 21 00 01 A5 05 02 21  .:.#...$.!.....!
0590: 00 41 80 00 A5 05 1D 4D  80 23 1D 4E 80 23 03 01  .A.....M.#.N.#..
05A0: 10 24 80 21 00 1D 3E 80  23 01 B0 05 1D 4F 80 23  .$.!..>.#....O.#
05B0: 03 01 10 24 80 21 00                              ...$.!.         
```

#### Opcodes

```
  0: 0x0197 [0x03] ExtData[1]->WorkLocal[1] = Work_Zone[2]
  1: 0x019C [0x03] ExtData[1]->WorkLocal[2] = Work_Zone[3]
  2: 0x01A1 [0x03] ExtData[1]->WorkLocal[7] = Work_Zone[4]
  3: 0x01A6 [0x03] ExtData[1]->WorkLocal[3] = Work_Zone[4]
  4: 0x01AB [0x03] ExtData[1]->WorkLocal[8] = Work_Zone[5]
  5: 0x01B0 [0x02] IF !(ExtData[1]->WorkLocal[3] == 3*) GOTO 0x01E2
  6: 0x01B8 [0x03] ExtData[1]->WorkLocal[10] = Work_Zone[6]
  7: 0x01BD [0x41] ExtData[1]->WorkLocal[27] = Work_Zone[7] (bits 0*-7*)
  8: 0x01C6 [0x41] ExtData[1]->WorkLocal[28] = Work_Zone[7] (bits 8*-15*)
  9: 0x01CF [0x41] ExtData[1]->WorkLocal[29] = Work_Zone[7] (bits 16*-23*)
 10: 0x01D8 [0x03] ExtData[1]->WorkLocal[32] = Work_Zone[8]
 11: 0x01DD [0x03] ExtData[1]->WorkLocal[33] = Work_Zone[9]
 12: 0x01E2 [0x4A] EventEntity looks at LocalPlayer
 13: 0x01EB [0x1D] PRINT_EVENT_MESSAGE(message_id=9171*)
    → "Why hello there, my [/woodworking/smithing/goldsmithing/clothcraft/leathercraft/bonecraft/alchemy/cooking] expert. What is the prrroblem?"
 14: 0x01EE [0x23] WAIT_FOR_DIALOG_INTERACTION
 15: 0x01EF [0x24] CREATE_DIALOG(message_id=9172*, default_option=0*, option_flags=ExtData[1]->WorkLocal[2])
    → "What can I do for you? [Never mind./I want to check the recipe./I want a catalyst./Tell me about these apparatuses./I want to try making the shield./I give up trying to make the shield.]"
 16: 0x01F6 [0x25] WAIT_DIALOG_SELECT()
 17: 0x01F7 [0x02] IF !(Work_Zone[0] == 1*) GOTO 0x03E3
 18: 0x01FF [0x02] IF !(ExtData[1]->WorkLocal[3] == 2*) GOTO 0x02B2
 19: 0x0207 [0x66] LOAD_EXT_SCHEDULER_MAIN: Load scheduler "thk1" with entities [EventEntity, EventEntity], work=50*
 20: 0x0216 [0x1D] PRINT_EVENT_MESSAGE(message_id=9257*)
    → "Oh, my. I even told you to write the recipe down, too. Try to rrremember it this time."
 21: 0x0219 [0x23] WAIT_FOR_DIALOG_INTERACTION
 22: 0x021A [0x66] LOAD_EXT_SCHEDULER_MAIN: Load scheduler "thk2" with entities [EventEntity, EventEntity], work=50*
 23: 0x0229 [0x1A] CALL_SUBROUTINE(address=0x1A11)
 24: 0x022C [0x03] Work_Zone[8] = ExtData[1]->WorkLocal[1]
 25: 0x0231 [0x03] Work_Zone[3] = 0*
 26: 0x0236 [0x03] Work_Zone[4] = 0*
 27: 0x023B [0x03] Work_Zone[5] = 0*
 28: 0x0240 [0x03] Work_Zone[6] = 4099*
 29: 0x0245 [0x48] [System] [9233*]:
    → "Required craft: [Fishing/Woodworking/Smithing/Goldsmithing/Clothcrafting/Leathercrafting/Bonecrafting/Alchemy/Cooking] [ /Woodworking/Smithing/Goldsmithing/Clothcrafting/Leathercrafting/Bonecrafting/Alchemy/Cooking] [ /Woodworking/Smithing/Goldsmithing/Clothcrafting/Leathercrafting/Bonecrafting/Alchemy/Cooking] [ /Woodworking/Smithing/Goldsmithing/Clothcrafting/Leathercrafting/Bonecrafting/Alchemy/Cooking]@ Required crystal: $4 Required items..."
 30: 0x0248 [0x23] WAIT_FOR_DIALOG_INTERACTION
 31: 0x0249 [0x03] Work_Zone[2] = ExtData[1]->WorkLocal[8]
 32: 0x024E [0x03] Work_Zone[3] = ExtData[1]->WorkLocal[11]
 33: 0x0253 [0x03] Work_Zone[4] = ExtData[1]->WorkLocal[12]
 34: 0x0258 [0x03] Work_Zone[5] = ExtData[1]->WorkLocal[13]
 35: 0x025D [0x03] Work_Zone[6] = 1*
 36: 0x0262 [0x03] Work_Zone[7] = ExtData[1]->WorkLocal[19]
 37: 0x0267 [0x03] Work_Zone[8] = ExtData[1]->WorkLocal[20]
 38: 0x026C [0x03] Work_Zone[9] = ExtData[1]->WorkLocal[21]
 39: 0x0271 [0x48] [System] [9234*]:
    → "$4 $0 $5 $0$0 $6 $0 $7 $0$3"
 40: 0x0274 [0x23] WAIT_FOR_DIALOG_INTERACTION
 41: 0x0275 [0x03] Work_Zone[2] = ExtData[1]->WorkLocal[14]
 42: 0x027A [0x03] Work_Zone[3] = ExtData[1]->WorkLocal[15]
 43: 0x027F [0x03] Work_Zone[6] = ExtData[1]->WorkLocal[22]
 44: 0x0284 [0x03] Work_Zone[7] = ExtData[1]->WorkLocal[23]
 45: 0x0289 [0x48] [System] [9236*]:
    → "$4 $0 $5 $0$0"
 46: 0x028C [0x23] WAIT_FOR_DIALOG_INTERACTION
 47: 0x028D [0x66] LOAD_EXT_SCHEDULER_MAIN: Load scheduler "tlk0" with entities [EventEntity, EventEntity], work=59*
 48: 0x029C [0x1D] PRINT_EVENT_MESSAGE(message_id=9258*)
    → "Mwahaha. Are you okay? Keep up the good work out there, my frrriend."
 49: 0x029F [0x23] WAIT_FOR_DIALOG_INTERACTION
 50: 0x02A0 [0x66] LOAD_EXT_SCHEDULER_MAIN: Load scheduler "tlk1" with entities [EventEntity, EventEntity], work=59*
 51: 0x02AF [0x01] GOTO 0x03E0
 52: 0x02B2 [0x02] IF !(ExtData[1]->WorkLocal[3] == 3*) GOTO 0x03E0
 53: 0x02BA [0x1D] PRINT_EVENT_MESSAGE(message_id=9359*)
    → "Mwahaha. Now then, let's review the rrrecipe, shall we?"
 54: 0x02BD [0x23] WAIT_FOR_DIALOG_INTERACTION
 55: 0x02BE [0x02] IF !(ExtData[1]->WorkLocal[33] == 5*) GOTO 0x0319
 56: 0x02C6 [0x1A] CALL_SUBROUTINE(address=0x1C2A)
 57: 0x02C9 [0x03] Work_Zone[8] = ExtData[1]->WorkLocal[1]
 58: 0x02CE [0x03] Work_Zone[3] = 0*
 59: 0x02D3 [0x03] Work_Zone[4] = 0*
 60: 0x02D8 [0x03] Work_Zone[5] = 0*
 61: 0x02DD [0x03] Work_Zone[6] = 4099*
 62: 0x02E2 [0x48] [System] [9233*]:
    → "Required craft: [Fishing/Woodworking/Smithing/Goldsmithing/Clothcrafting/Leathercrafting/Bonecrafting/Alchemy/Cooking] [ /Woodworking/Smithing/Goldsmithing/Clothcrafting/Leathercrafting/Bonecrafting/Alchemy/Cooking] [ /Woodworking/Smithing/Goldsmithing/Clothcrafting/Leathercrafting/Bonecrafting/Alchemy/Cooking] [ /Woodworking/Smithing/Goldsmithing/Clothcrafting/Leathercrafting/Bonecrafting/Alchemy/Cooking]@ Required crystal: $4 Required items..."
 63: 0x02E5 [0x23] WAIT_FOR_DIALOG_INTERACTION
 64: 0x02E6 [0x03] Work_Zone[2] = ExtData[1]->WorkLocal[8]
 65: 0x02EB [0x03] Work_Zone[3] = ExtData[1]->WorkLocal[11]
 66: 0x02F0 [0x03] Work_Zone[4] = ExtData[1]->WorkLocal[12]
 67: 0x02F5 [0x03] Work_Zone[5] = ExtData[1]->WorkLocal[13]
 68: 0x02FA [0x03] Work_Zone[6] = 1*
 69: 0x02FF [0x03] Work_Zone[7] = ExtData[1]->WorkLocal[19]
 70: 0x0304 [0x03] Work_Zone[8] = ExtData[1]->WorkLocal[20]
 71: 0x0309 [0x03] Work_Zone[9] = ExtData[1]->WorkLocal[21]
 72: 0x030E [0x48] [System] [9234*]:
    → "$4 $0 $5 $0$0 $6 $0 $7 $0$3"
 73: 0x0311 [0x23] WAIT_FOR_DIALOG_INTERACTION
 74: 0x0312 [0x1D] PRINT_EVENT_MESSAGE(message_id=9358*)
    → "I'd like to check the materials before you begin the synthesis, so would you mind showing them to me firrrst?"
 75: 0x0315 [0x23] WAIT_FOR_DIALOG_INTERACTION
 76: 0x0316 [0x01] GOTO 0x03DD
 77: 0x0319 [0x02] IF !(ExtData[1]->WorkLocal[33] == 8*) GOTO 0x0382
 78: 0x0321 [0x1A] CALL_SUBROUTINE(address=0x1DA3)
 79: 0x0324 [0x03] Work_Zone[8] = ExtData[1]->WorkLocal[1]
 80: 0x0329 [0x03] Work_Zone[3] = 0*
 81: 0x032E [0x03] Work_Zone[4] = 0*
 82: 0x0333 [0x03] Work_Zone[5] = 0*
 83: 0x0338 [0x03] Work_Zone[6] = 4099*
 84: 0x033D [0x48] [System] [9233*]:
    → "Required craft: [Fishing/Woodworking/Smithing/Goldsmithing/Clothcrafting/Leathercrafting/Bonecrafting/Alchemy/Cooking] [ /Woodworking/Smithing/Goldsmithing/Clothcrafting/Leathercrafting/Bonecrafting/Alchemy/Cooking] [ /Woodworking/Smithing/Goldsmithing/Clothcrafting/Leathercrafting/Bonecrafting/Alchemy/Cooking] [ /Woodworking/Smithing/Goldsmithing/Clothcrafting/Leathercrafting/Bonecrafting/Alchemy/Cooking]@ Required crystal: $4 Required items..."
 85: 0x0340 [0x23] WAIT_FOR_DIALOG_INTERACTION
 86: 0x0341 [0x03] Work_Zone[2] = ExtData[1]->WorkLocal[8]
 87: 0x0346 [0x03] Work_Zone[3] = ExtData[1]->WorkLocal[11]
 88: 0x034B [0x03] Work_Zone[4] = ExtData[1]->WorkLocal[12]
 89: 0x0350 [0x03] Work_Zone[5] = ExtData[1]->WorkLocal[13]
 90: 0x0355 [0x03] Work_Zone[6] = 1*
 91: 0x035A [0x03] Work_Zone[7] = ExtData[1]->WorkLocal[19]
 92: 0x035F [0x03] Work_Zone[8] = ExtData[1]->WorkLocal[20]
 93: 0x0364 [0x03] Work_Zone[9] = ExtData[1]->WorkLocal[21]
 94: 0x0369 [0x48] [System] [9234*]:
    → "$4 $0 $5 $0$0 $6 $0 $7 $0$3"
 95: 0x036C [0x23] WAIT_FOR_DIALOG_INTERACTION
 96: 0x036D [0x03] Work_Zone[2] = ExtData[1]->WorkLocal[14]
 97: 0x0372 [0x03] Work_Zone[6] = ExtData[1]->WorkLocal[22]
 98: 0x0377 [0x48] [System] [9237*]:
    → "$4 $0"
 99: 0x037A [0x23] WAIT_FOR_DIALOG_INTERACTION
100: 0x037B [0x1D] PRINT_EVENT_MESSAGE(message_id=9376*)
    → "Do you have all of the materials? If so, perrrform the synthesis and show me the completed shield."
101: 0x037E [0x23] WAIT_FOR_DIALOG_INTERACTION
102: 0x037F [0x01] GOTO 0x03DD
103: 0x0382 [0x02] IF !(ExtData[1]->WorkLocal[33] == 4*) GOTO 0x03DD
104: 0x038A [0x1A] CALL_SUBROUTINE(address=0x1C2A)
105: 0x038D [0x03] Work_Zone[8] = ExtData[1]->WorkLocal[1]
106: 0x0392 [0x03] Work_Zone[3] = 0*
107: 0x0397 [0x03] Work_Zone[4] = 0*
108: 0x039C [0x03] Work_Zone[5] = 0*
109: 0x03A1 [0x03] Work_Zone[6] = 4099*
110: 0x03A6 [0x48] [System] [9233*]:
    → "Required craft: [Fishing/Woodworking/Smithing/Goldsmithing/Clothcrafting/Leathercrafting/Bonecrafting/Alchemy/Cooking] [ /Woodworking/Smithing/Goldsmithing/Clothcrafting/Leathercrafting/Bonecrafting/Alchemy/Cooking] [ /Woodworking/Smithing/Goldsmithing/Clothcrafting/Leathercrafting/Bonecrafting/Alchemy/Cooking] [ /Woodworking/Smithing/Goldsmithing/Clothcrafting/Leathercrafting/Bonecrafting/Alchemy/Cooking]@ Required crystal: $4 Required items..."
111: 0x03A9 [0x23] WAIT_FOR_DIALOG_INTERACTION
112: 0x03AA [0x03] Work_Zone[2] = ExtData[1]->WorkLocal[8]
113: 0x03AF [0x03] Work_Zone[3] = ExtData[1]->WorkLocal[11]
114: 0x03B4 [0x03] Work_Zone[4] = ExtData[1]->WorkLocal[12]
115: 0x03B9 [0x03] Work_Zone[5] = ExtData[1]->WorkLocal[13]
116: 0x03BE [0x03] Work_Zone[6] = 1*
117: 0x03C3 [0x03] Work_Zone[7] = ExtData[1]->WorkLocal[19]
118: 0x03C8 [0x03] Work_Zone[8] = ExtData[1]->WorkLocal[20]
119: 0x03CD [0x03] Work_Zone[9] = ExtData[1]->WorkLocal[21]
120: 0x03D2 [0x48] [System] [9234*]:
    → "$4 $0 $5 $0$0 $6 $0 $7 $0$3"
121: 0x03D5 [0x23] WAIT_FOR_DIALOG_INTERACTION
122: 0x03D6 [0x1D] PRINT_EVENT_MESSAGE(message_id=9275*)
    → "Well, good luck to you out there. I'll be anxiously awaiting your rrreturn."
123: 0x03D9 [0x23] WAIT_FOR_DIALOG_INTERACTION
124: 0x03DA [0x01] GOTO 0x03DD

SUBROUTINE_03DD:
125: 0x03DD [0x01] GOTO 0x03E0

SUBROUTINE_03E0:
126: 0x03E0 [0x01] GOTO 0x05B5
127: 0x03E3 [0x02] IF !(Work_Zone[0] == 2*) GOTO 0x0413
128: 0x03EB [0x66] LOAD_EXT_SCHEDULER_MAIN: Load scheduler "tlk0" with entities [EventEntity, EventEntity], work=59*
129: 0x03FA [0x1D] PRINT_EVENT_MESSAGE(message_id=9398*)
    → "Mwahaha! Very well. Which do you prrrefer?"
130: 0x03FD [0x23] WAIT_FOR_DIALOG_INTERACTION
131: 0x03FE [0x66] LOAD_EXT_SCHEDULER_MAIN: Load scheduler "tlk1" with entities [EventEntity, EventEntity], work=59*
132: 0x040D [0x1A] CALL_SUBROUTINE(address=0x13B2)
133: 0x0410 [0x01] GOTO 0x05B5
134: 0x0413 [0x02] IF !(Work_Zone[0] == 3*) GOTO 0x0421
135: 0x041B [0x1A] CALL_SUBROUTINE(address=0x1525)
136: 0x041E [0x01] GOTO 0x05B5
137: 0x0421 [0x02] IF !(Work_Zone[0] == 4*) GOTO 0x047E
138: 0x0429 [0x02] IF !(ExtData[1]->WorkLocal[7] == 0*) GOTO 0x0452
139: 0x0431 [0x1D] PRINT_EVENT_MESSAGE(message_id=9176*)
    → "Mwahaha. It's nice to see you're up for the challenge, my frrriend."
140: 0x0434 [0x23] WAIT_FOR_DIALOG_INTERACTION
141: 0x0435 [0x6E] EventEntity uses emote 6*
142: 0x043C [0x99] Wait for EventEntity animation to complete
143: 0x0441 [0x03] Work_Zone[2] = ExtData[1]->WorkLocal[7]
144: 0x0446 [0x1D] PRINT_EVENT_MESSAGE(message_id=9179*)
    → "At least, that's what I would say if you still didn't have that $0. Dispose of it firrrst."
145: 0x0449 [0x23] WAIT_FOR_DIALOG_INTERACTION
146: 0x044A [0x03] Work_Zone[1] = 3*
147: 0x044F [0x01] GOTO 0x047B
148: 0x0452 [0x42] SET_CLI_EVENT_CANCEL_DATA()
149: 0x0453 [0x66] LOAD_EXT_SCHEDULER_MAIN: Load scheduler "tlk1" with entities [EventEntity, EventEntity], work=51*
150: 0x0462 [0x1D] PRINT_EVENT_MESSAGE(message_id=9176*)
    → "Mwahaha. It's nice to see you're up for the challenge, my frrriend."
151: 0x0465 [0x23] WAIT_FOR_DIALOG_INTERACTION
152: 0x0466 [0x1D] PRINT_EVENT_MESSAGE(message_id=9177*)
    → "In that case, I'll need to give you this."
153: 0x0469 [0x23] WAIT_FOR_DIALOG_INTERACTION
154: 0x046A [0x1D] PRINT_EVENT_MESSAGE(message_id=9178*)
    → "In rrregards to the other ingredients, I mentioned this before, but you'll need to speak with your guildmaster."
155: 0x046D [0x23] WAIT_FOR_DIALOG_INTERACTION
156: 0x046E [0x1D] PRINT_EVENT_MESSAGE(message_id=9169*)
    → "Now then. Show that shield to your guildmaster. The path forward will be rrrevealed to you."
157: 0x0471 [0x23] WAIT_FOR_DIALOG_INTERACTION
158: 0x0472 [0x1D] PRINT_EVENT_MESSAGE(message_id=9170*)
    → "When you're finished, you'll need to receive a sign on the shield from your guildmaster that it's finished. Then brrring it back to me. I'm counting on you. Mwahaha."
159: 0x0475 [0x23] WAIT_FOR_DIALOG_INTERACTION
160: 0x0476 [0x03] Work_Zone[1] = 1*

SUBROUTINE_047B:
161: 0x047B [0x01] GOTO 0x05B5
162: 0x047E [0x02] IF !(Work_Zone[0] == 5*) GOTO 0x0546
163: 0x0486 [0x66] LOAD_EXT_SCHEDULER_MAIN: Load scheduler "thk1" with entities [EventEntity, EventEntity], work=50*
164: 0x0495 [0x1D] PRINT_EVENT_MESSAGE(message_id=9180*)
    → "Oh, what happened to give you a change of hearrrt? Are you sure you want to quit?"
165: 0x0498 [0x23] WAIT_FOR_DIALOG_INTERACTION
166: 0x0499 [0x48] [System] [9181*]:
    → "Note that reattempting will require you to abandon your current shield in progress."
167: 0x049C [0x24] CREATE_DIALOG(message_id=9183*, default_option=0*, option_flags=0*)
    → "Do you really want to quit? [On second thought, I'll stick with it./Yes, I've had enough.]"
168: 0x04A3 [0x25] WAIT_DIALOG_SELECT()
169: 0x04A4 [0x02] IF !(Work_Zone[0] == 0*) GOTO 0x04D4
170: 0x04AC [0x42] SET_CLI_EVENT_CANCEL_DATA()
171: 0x04AD [0x66] LOAD_EXT_SCHEDULER_MAIN: Load scheduler "tlk1" with entities [EventEntity, EventEntity], work=51*
172: 0x04BC [0x1D] PRINT_EVENT_MESSAGE(message_id=9184*)
    → "Mwahaha. That's what I like to hear. Keep up the good worrrk."
173: 0x04BF [0x23] WAIT_FOR_DIALOG_INTERACTION
174: 0x04C0 [0x02] IF !(ExtData[1]->WorkLocal[3] == 3*) GOTO 0x04CC
175: 0x04C8 [0x1D] PRINT_EVENT_MESSAGE(message_id=9170*)
    → "When you're finished, you'll need to receive a sign on the shield from your guildmaster that it's finished. Then brrring it back to me. I'm counting on you. Mwahaha."
176: 0x04CB [0x23] WAIT_FOR_DIALOG_INTERACTION
177: 0x04CC [0x03] Work_Zone[1] = 1073741824*
178: 0x04D1 [0x01] GOTO 0x0543
179: 0x04D4 [0x02] IF !(Work_Zone[0] == 1*) GOTO 0x0543
180: 0x04DC [0x1D] PRINT_EVENT_MESSAGE(message_id=9182*)
    → "Really abandon your current shield?"
181: 0x04DF [0x23] WAIT_FOR_DIALOG_INTERACTION
182: 0x04E0 [0x24] CREATE_DIALOG(message_id=9183*, default_option=0*, option_flags=0*)
    → "Do you really want to quit? [On second thought, I'll stick with it./Yes, I've had enough.]"
183: 0x04E7 [0x25] WAIT_DIALOG_SELECT()
184: 0x04E8 [0x02] IF !(Work_Zone[0] == 0*) GOTO 0x0518
185: 0x04F0 [0x42] SET_CLI_EVENT_CANCEL_DATA()
186: 0x04F1 [0x66] LOAD_EXT_SCHEDULER_MAIN: Load scheduler "tlk1" with entities [EventEntity, EventEntity], work=51*
187: 0x0500 [0x1D] PRINT_EVENT_MESSAGE(message_id=9184*)
    → "Mwahaha. That's what I like to hear. Keep up the good worrrk."
188: 0x0503 [0x23] WAIT_FOR_DIALOG_INTERACTION
189: 0x0504 [0x02] IF !(ExtData[1]->WorkLocal[3] == 3*) GOTO 0x0510
190: 0x050C [0x1D] PRINT_EVENT_MESSAGE(message_id=9170*)
    → "When you're finished, you'll need to receive a sign on the shield from your guildmaster that it's finished. Then brrring it back to me. I'm counting on you. Mwahaha."
191: 0x050F [0x23] WAIT_FOR_DIALOG_INTERACTION
192: 0x0510 [0x03] Work_Zone[1] = 1073741824*
193: 0x0515 [0x01] GOTO 0x0540
194: 0x0518 [0x02] IF !(Work_Zone[0] == 1*) GOTO 0x0540
195: 0x0520 [0x42] SET_CLI_EVENT_CANCEL_DATA()
196: 0x0521 [0x66] LOAD_EXT_SCHEDULER_MAIN: Load scheduler "dis0" with entities [EventEntity, EventEntity], work=52*
197: 0x0530 [0x1D] PRINT_EVENT_MESSAGE(message_id=9185*)
    → "Well, that is most unforrrtunate."
198: 0x0533 [0x23] WAIT_FOR_DIALOG_INTERACTION
199: 0x0534 [0x1D] PRINT_EVENT_MESSAGE(message_id=9186*)
    → "That shield will do you no good, so be surrre to get rid of it."
200: 0x0537 [0x23] WAIT_FOR_DIALOG_INTERACTION
201: 0x0538 [0x03] Work_Zone[1] = 2*
202: 0x053D [0x01] GOTO 0x0540

SUBROUTINE_0540:
203: 0x0540 [0x01] GOTO 0x0543

SUBROUTINE_0543:
204: 0x0543 [0x01] GOTO 0x05B5
205: 0x0546 [0x66] LOAD_EXT_SCHEDULER_MAIN: Load scheduler "tlk1" with entities [EventEntity, EventEntity], work=51*
206: 0x0555 [0x02] IF !(ExtData[1]->WorkLocal[3] == 3*) GOTO 0x05AC
207: 0x055D [0x02] IF !(ExtData[1]->WorkLocal[33] >= 4*) GOTO 0x0578
208: 0x0565 [0x03] Work_Zone[3] = ExtData[1]->WorkLocal[10]
209: 0x056A [0x1D] PRINT_EVENT_MESSAGE(message_id=9274*)
    → "Listen carefully. Once you obtain the $1, bring it to me rrright away."
210: 0x056D [0x23] WAIT_FOR_DIALOG_INTERACTION
211: 0x056E [0x03] Work_Zone[1] = 1073741824*
212: 0x0573 [0x21] END_EVENT
213: 0x0574 [0x00] END_REQSTACK()

SUBROUTINE_05A5:
214: 0x05A5 [0x1D] PRINT_EVENT_MESSAGE(message_id=9275*)
    → "Well, good luck to you out there. I'll be anxiously awaiting your rrreturn."
215: 0x05A8 [0x23] WAIT_FOR_DIALOG_INTERACTION
216: 0x05A9 [0x01] GOTO 0x05B0
217: 0x05AC [0x1D] PRINT_EVENT_MESSAGE(message_id=9173*)
    → "Mwahahaha. In that case, good luck to you, my frrriend."
218: 0x05AF [0x23] WAIT_FOR_DIALOG_INTERACTION

SUBROUTINE_05B0:
219: 0x05B0 [0x03] Work_Zone[1] = 1073741824*

SUBROUTINE_05B5:
220: 0x05B5 [0x21] END_EVENT
221: 0x05B6 [0x00] END_REQSTACK()
```

#### Data or dead code:

```
# Dead code (unreachable instructions):
     0x0575 [0x01] GOTO 0x05A5
     0x058B [0x01] GOTO 0x05A5
```

### Event 417

#### Metadata

| Field        | Value     |
|--------------|-----------|
| Entrypoint   | 0x05B7    |
| Data Size    | 441 bytes |
| Instructions | 92        |

```
      00 01 02 03 04 05 06 07  08 09 0A 0B 0C 0D 0E 0F
      -- -- -- -- -- -- -- --  -- -- -- -- -- -- -- --
05B0:                      03  01 00 02 10 03 03 00 03         .........
05C0: 10 03 04 00 04 10 03 05  10 21 80 02 04 00 28 80  .........!....(.
05D0: 00 D6 05 01 6E 07 02 04  00 30 80 00 6E 07 02 03  ....n....0..n...
05E0: 00 28 80 80 79 06 42 4A  F8 FF FF 7F F0 FF FF 7F  .(..y.BJ........
05F0: 6F 70 66 04 80 F8 FF FF  7F F8 FF FF 7F 74 6C 6B  opf..........tlk
0600: 31 1D 50 80 23 1D 51 80  23 66 04 80 F8 FF FF 7F  1.P.#.Q.#f......
0610: F8 FF FF 7F 74 6C 6B 32  1C 52 80 1D 53 80 23 1C  ....tlk2.R..S.#.
0620: 52 80 66 36 80 F8 FF FF  7F F8 FF FF 7F 74 68 6B  R.f6.........thk
0630: 31 1D 54 80 23 1D 55 80  23 1D 56 80 23 66 36 80  1.T.#.U.#.V.#f6.
0640: F8 FF FF 7F F8 FF FF 7F  74 68 6B 32 1D 57 80 23  ........thk2.W.#
0650: 66 04 80 F8 FF FF 7F F8  FF FF 7F 74 6C 6B 31 1D  f..........tlk1.
0660: 58 80 23 1D 59 80 23 66  04 80 F8 FF FF 7F F8 FF  X.#.Y.#f........
0670: FF 7F 74 6C 6B 32 01 6E  07 02 03 00 30 80 80 EA  ..tlk2.n....0...
0680: 06 42 4A F8 FF FF 7F F0  FF FF 7F 6F 70 1D 5A 80  .BJ........op.Z.
0690: 23 66 36 80 F8 FF FF 7F  F8 FF FF 7F 74 68 6B 31  #f6.........thk1
06A0: 1C 52 80 1D 5B 80 23 66  36 80 F8 FF FF 7F F8 FF  .R..[.#f6.......
06B0: FF 7F 74 68 6B 32 1C 52  80 66 36 80 F8 FF FF 7F  ..thk2.R.f6.....
06C0: F8 FF FF 7F 74 6C 6B 30  1D 5C 80 23 1D 5D 80 23  ....tlk0.\.#.].#
06D0: 1D 5E 80 23 1D 5F 80 23  66 36 80 F8 FF FF 7F F8  .^.#._.#f6......
06E0: FF FF 7F 74 6C 6B 31 01  6E 07 02 03 00 29 80 80  ...tlk1.n....)..
06F0: 6E 07 42 4A F8 FF FF 7F  F0 FF FF 7F 6F 70 1D 60  n.BJ........op.`
0700: 80 23 66 36 80 F8 FF FF  7F F8 FF FF 7F 74 68 6B  .#f6.........thk
0710: 31 1C 61 80 1D 62 80 23  66 36 80 F8 FF FF 7F F8  1.a..b.#f6......
0720: FF FF 7F 74 68 6B 32 1C  52 80 66 02 80 F8 FF FF  ...thk2.R.f.....
0730: 7F F8 FF FF 7F 75 72 65  30 1D 63 80 23 1D 64 80  .....ure0.c.#.d.
0740: 23 66 36 80 F8 FF FF 7F  F8 FF FF 7F 74 6C 6B 30  #f6.........tlk0
0750: 1D 65 80 23 1D 66 80 23  1D 67 80 23 66 36 80 F8  .e.#.f.#.g.#f6..
0760: FF FF 7F F8 FF FF 7F 74  6C 6B 31 01 6E 07 21 00  .......tlk1.n.!.
```

#### Opcodes

```
  0: 0x05B7 [0x03] ExtData[1]->WorkLocal[1] = Work_Zone[2]
  1: 0x05BC [0x03] ExtData[1]->WorkLocal[3] = Work_Zone[3]
  2: 0x05C1 [0x03] ExtData[1]->WorkLocal[4] = Work_Zone[4]
  3: 0x05C6 [0x03] Work_Zone[5] = 0*
  4: 0x05CB [0x02] IF !(ExtData[1]->WorkLocal[4] == 1*) GOTO 0x05D6
  5: 0x05D3 [0x01] GOTO 0x076E
  6: 0x05D6 [0x02] IF !(ExtData[1]->WorkLocal[4] == 2*) GOTO 0x076E
  7: 0x05DE [0x02] IF !(ExtData[1]->WorkLocal[3] == 1*) GOTO 0x0679
  8: 0x05E6 [0x42] SET_CLI_EVENT_CANCEL_DATA()
  9: 0x05E7 [0x4A] EventEntity looks at LocalPlayer
 10: 0x05F0 [0x6F] WAIT_FRAME_DELAY: Yield until WaitTime reaches zero
 11: 0x05F1 [0x70] WAIT_ENTITY_RENDER_FLAG: Wait while EventEntity->Render.Flags3 bit 2 is set (cancel turn if not)
 12: 0x05F2 [0x66] LOAD_EXT_SCHEDULER_MAIN: Load scheduler "tlk1" with entities [EventEntity, EventEntity], work=51*
 13: 0x0601 [0x1D] PRINT_EVENT_MESSAGE(message_id=9187*)
    → "Mwahaha. I've been waiting for this. Let's see what you've brrrought me."
 14: 0x0604 [0x23] WAIT_FOR_DIALOG_INTERACTION
 15: 0x0605 [0x1D] PRINT_EVENT_MESSAGE(message_id=9188*)
    → "It must've been hard when you firrrst started using this shield. It is difficult to get your spirit in tune with the crystal."
 16: 0x0608 [0x23] WAIT_FOR_DIALOG_INTERACTION
 17: 0x0609 [0x66] LOAD_EXT_SCHEDULER_MAIN: Load scheduler "tlk2" with entities [EventEntity, EventEntity], work=51*
 18: 0x0618 [0x1C] WAIT(30* ticks)
 19: 0x061B [0x1D] PRINT_EVENT_MESSAGE(message_id=9189*)
    → "Hmm..."
 20: 0x061E [0x23] WAIT_FOR_DIALOG_INTERACTION
 21: 0x061F [0x1C] WAIT(30* ticks)
 22: 0x0622 [0x66] LOAD_EXT_SCHEDULER_MAIN: Load scheduler "thk1" with entities [EventEntity, EventEntity], work=59*
 23: 0x0631 [0x1D] PRINT_EVENT_MESSAGE(message_id=9190*)
    → "Yes, I imagined as much, but was hoping it'd turn out better."
 24: 0x0634 [0x23] WAIT_FOR_DIALOG_INTERACTION
 25: 0x0635 [0x1D] PRINT_EVENT_MESSAGE(message_id=9191*)
    → "This is nowhere near the level I was expecting to see."
 26: 0x0638 [0x23] WAIT_FOR_DIALOG_INTERACTION
 27: 0x0639 [0x1D] PRINT_EVENT_MESSAGE(message_id=9192*)
    → "I suppose a single upgrrrade is only enough to bring it this far. Although, there is no denying that it has gained some ability."
 28: 0x063C [0x23] WAIT_FOR_DIALOG_INTERACTION
 29: 0x063D [0x66] LOAD_EXT_SCHEDULER_MAIN: Load scheduler "thk2" with entities [EventEntity, EventEntity], work=59*
 30: 0x064C [0x1D] PRINT_EVENT_MESSAGE(message_id=9193*)
    → "Mwahaha. Can I have a little more time? It looks like I need to rrrethink the design a bit."
 31: 0x064F [0x23] WAIT_FOR_DIALOG_INTERACTION
 32: 0x0650 [0x66] LOAD_EXT_SCHEDULER_MAIN: Load scheduler "tlk1" with entities [EventEntity, EventEntity], work=51*
 33: 0x065F [0x1D] PRINT_EVENT_MESSAGE(message_id=9194*)
    → "Here, take this shield. And I forrrbid you from losing it."
 34: 0x0662 [0x23] WAIT_FOR_DIALOG_INTERACTION
 35: 0x0663 [0x1D] PRINT_EVENT_MESSAGE(message_id=9195*)
    → "Once the prrreparations are complete, you'll need to perform the next upgrade. I hope you're looking forward to it as much as I am."
 36: 0x0666 [0x23] WAIT_FOR_DIALOG_INTERACTION
 37: 0x0667 [0x66] LOAD_EXT_SCHEDULER_MAIN: Load scheduler "tlk2" with entities [EventEntity, EventEntity], work=51*
 38: 0x0676 [0x01] GOTO 0x076E
 39: 0x0679 [0x02] IF !(ExtData[1]->WorkLocal[3] == 2*) GOTO 0x06EA
 40: 0x0681 [0x42] SET_CLI_EVENT_CANCEL_DATA()
 41: 0x0682 [0x4A] EventEntity looks at LocalPlayer
 42: 0x068B [0x6F] WAIT_FRAME_DELAY: Yield until WaitTime reaches zero
 43: 0x068C [0x70] WAIT_ENTITY_RENDER_FLAG: Wait while EventEntity->Render.Flags3 bit 2 is set (cancel turn if not)
 44: 0x068D [0x1D] PRINT_EVENT_MESSAGE(message_id=9207*)
    → "Mwahaha... I've been anxiously awaiting your rrreturn. So, how did it turn out?"
 45: 0x0690 [0x23] WAIT_FOR_DIALOG_INTERACTION
 46: 0x0691 [0x66] LOAD_EXT_SCHEDULER_MAIN: Load scheduler "thk1" with entities [EventEntity, EventEntity], work=59*
 47: 0x06A0 [0x1C] WAIT(30* ticks)
 48: 0x06A3 [0x1D] PRINT_EVENT_MESSAGE(message_id=9208*)
    → "I see..."
 49: 0x06A6 [0x23] WAIT_FOR_DIALOG_INTERACTION
 50: 0x06A7 [0x66] LOAD_EXT_SCHEDULER_MAIN: Load scheduler "thk2" with entities [EventEntity, EventEntity], work=59*
 51: 0x06B6 [0x1C] WAIT(30* ticks)
 52: 0x06B9 [0x66] LOAD_EXT_SCHEDULER_MAIN: Load scheduler "tlk0" with entities [EventEntity, EventEntity], work=59*
 53: 0x06C8 [0x1D] PRINT_EVENT_MESSAGE(message_id=9209*)
    → "It falls within the rrrange I was expecting, based on the results of our previous attempt."
 54: 0x06CB [0x23] WAIT_FOR_DIALOG_INTERACTION
 55: 0x06CC [0x1D] PRINT_EVENT_MESSAGE(message_id=9210*)
    → "Splendid. I think you'll rrreally see an improvement with the next upgrade!"
 56: 0x06CF [0x23] WAIT_FOR_DIALOG_INTERACTION
 57: 0x06D0 [0x1D] PRINT_EVENT_MESSAGE(message_id=9211*)
    → "Mwahaha. I'll prrrepare the next ingredient for the Inventors' Coalition."
 58: 0x06D3 [0x23] WAIT_FOR_DIALOG_INTERACTION
 59: 0x06D4 [0x1D] PRINT_EVENT_MESSAGE(message_id=9212*)
    → "Be sure to make the next upgrade once the preparations are rrready. Mwahaha."
 60: 0x06D7 [0x23] WAIT_FOR_DIALOG_INTERACTION
 61: 0x06D8 [0x66] LOAD_EXT_SCHEDULER_MAIN: Load scheduler "tlk1" with entities [EventEntity, EventEntity], work=59*
 62: 0x06E7 [0x01] GOTO 0x076E
 63: 0x06EA [0x02] IF !(ExtData[1]->WorkLocal[3] == 3*) GOTO 0x076E
 64: 0x06F2 [0x42] SET_CLI_EVENT_CANCEL_DATA()
 65: 0x06F3 [0x4A] EventEntity looks at LocalPlayer
 66: 0x06FC [0x6F] WAIT_FRAME_DELAY: Yield until WaitTime reaches zero
 67: 0x06FD [0x70] WAIT_ENTITY_RENDER_FLAG: Wait while EventEntity->Render.Flags3 bit 2 is set (cancel turn if not)
 68: 0x06FE [0x1D] PRINT_EVENT_MESSAGE(message_id=9248*)
    → "Mwahaha. So, how did it turn out? Allow me to take a closer look at your prrrize."
 69: 0x0701 [0x23] WAIT_FOR_DIALOG_INTERACTION
 70: 0x0702 [0x66] LOAD_EXT_SCHEDULER_MAIN: Load scheduler "thk1" with entities [EventEntity, EventEntity], work=59*
 71: 0x0711 [0x1C] WAIT(120* ticks)
 72: 0x0714 [0x1D] PRINT_EVENT_MESSAGE(message_id=9249*)
    → "Hmm... This is..."
 73: 0x0717 [0x23] WAIT_FOR_DIALOG_INTERACTION
 74: 0x0718 [0x66] LOAD_EXT_SCHEDULER_MAIN: Load scheduler "thk2" with entities [EventEntity, EventEntity], work=59*
 75: 0x0727 [0x1C] WAIT(30* ticks)
 76: 0x072A [0x66] LOAD_EXT_SCHEDULER_MAIN: Load scheduler "ure0" with entities [EventEntity, EventEntity], work=8*
 77: 0x0739 [0x1D] PRINT_EVENT_MESSAGE(message_id=9251*)
    → "Perrrfect!"
 78: 0x073C [0x23] WAIT_FOR_DIALOG_INTERACTION
 79: 0x073D [0x1D] PRINT_EVENT_MESSAGE(message_id=9252*)
    → "This is exactly the rrresult I was hoping for!"
 80: 0x0740 [0x23] WAIT_FOR_DIALOG_INTERACTION
 81: 0x0741 [0x66] LOAD_EXT_SCHEDULER_MAIN: Load scheduler "tlk0" with entities [EventEntity, EventEntity], work=59*
 82: 0x0750 [0x1D] PRINT_EVENT_MESSAGE(message_id=9253*)
    → "Oh, please forrrgive me. I got a little carried away after seeing things turn out just as I anticipated. Mwahaha."
 83: 0x0753 [0x23] WAIT_FOR_DIALOG_INTERACTION
 84: 0x0754 [0x1D] PRINT_EVENT_MESSAGE(message_id=9254*)
    → "I'm finding it harrrd to contain my excitement. This means the next upgrade will be the one. Mwahahaha!"
 85: 0x0757 [0x23] WAIT_FOR_DIALOG_INTERACTION
 86: 0x0758 [0x1D] PRINT_EVENT_MESSAGE(message_id=9255*)
    → "I'll get on the Inventors' Coalition to begin making the next set of preparations rrright away. I hope you're as excited as I am."
 87: 0x075B [0x23] WAIT_FOR_DIALOG_INTERACTION
 88: 0x075C [0x66] LOAD_EXT_SCHEDULER_MAIN: Load scheduler "tlk1" with entities [EventEntity, EventEntity], work=59*
 89: 0x076B [0x01] GOTO 0x076E

SUBROUTINE_076E:
 90: 0x076E [0x21] END_EVENT
 91: 0x076F [0x00] END_REQSTACK()
```

### Event 420

#### Metadata

| Field        | Value    |
|--------------|----------|
| Entrypoint   | 0x0770   |
| Data Size    | 51 bytes |
| Instructions | 11       |

```
      00 01 02 03 04 05 06 07  08 09 0A 0B 0C 0D 0E 0F
      -- -- -- -- -- -- -- --  -- -- -- -- -- -- -- --
0770: 4A F8 FF FF 7F F0 FF FF  7F 6F 70 66 04 80 F8 FF  J........opf....
0780: FF 7F F8 FF FF 7F 74 6C  6B 31 1D 68 80 23 1D 69  ......tlk1.h.#.i
0790: 80 23 66 04 80 F8 FF FF  7F F8 FF FF 7F 74 6C 6B  .#f..........tlk
07A0: 32 21 00                                          2!.             
```

#### Opcodes

```
  0: 0x0770 [0x4A] EventEntity looks at LocalPlayer
  1: 0x0779 [0x6F] WAIT_FRAME_DELAY: Yield until WaitTime reaches zero
  2: 0x077A [0x70] WAIT_ENTITY_RENDER_FLAG: Wait while EventEntity->Render.Flags3 bit 2 is set (cancel turn if not)
  3: 0x077B [0x66] LOAD_EXT_SCHEDULER_MAIN: Load scheduler "tlk1" with entities [EventEntity, EventEntity], work=51*
  4: 0x078A [0x1D] PRINT_EVENT_MESSAGE(message_id=9174*)
    → "How's that shield coming? Finished yet?"
  5: 0x078D [0x23] WAIT_FOR_DIALOG_INTERACTION
  6: 0x078E [0x1D] PRINT_EVENT_MESSAGE(message_id=9175*)
    → "Good. Now let me have a look."
  7: 0x0791 [0x23] WAIT_FOR_DIALOG_INTERACTION
  8: 0x0792 [0x66] LOAD_EXT_SCHEDULER_MAIN: Load scheduler "tlk2" with entities [EventEntity, EventEntity], work=51*
  9: 0x07A1 [0x21] END_EVENT
 10: 0x07A2 [0x00] END_REQSTACK()
```

### Event 418

#### Metadata

| Field        | Value     |
|--------------|-----------|
| Entrypoint   | 0x07A3    |
| Data Size    | 251 bytes |
| Instructions | 39        |

```
      00 01 02 03 04 05 06 07  08 09 0A 0B 0C 0D 0E 0F
      -- -- -- -- -- -- -- --  -- -- -- -- -- -- -- --
07A0:          03 01 00 02 10  03 02 00 03 10 03 03 00     .............
07B0: 04 10 03 09 00 05 10 02  03 00 28 80 80 0E 08 66  ..........(....f
07C0: 36 80 F8 FF FF 7F F8 FF  FF 7F 74 68 6B 31 1D 6A  6.........thk1.j
07D0: 80 23 66 36 80 F8 FF FF  7F F8 FF FF 7F 74 68 6B  .#f6.........thk
07E0: 32 53 F8 FF FF 7F F8 FF  FF 7F 74 68 6B 32 4A F8  2S........thk2J.
07F0: FF FF 7F F0 FF FF 7F 1D  6B 80 23 02 09 00 21 80  ........k.#...!.
0800: 01 0B 08 03 02 10 28 80  48 6C 80 01 9C 08 02 03  ......(.Hl......
0810: 00 30 80 80 55 08 66 36  80 F8 FF FF 7F F8 FF FF  .0..U.f6........
0820: 7F 74 68 6B 31 1D 6D 80  23 66 36 80 F8 FF FF 7F  .thk1.m.#f6.....
0830: F8 FF FF 7F 74 68 6B 32  53 F8 FF FF 7F F8 FF FF  ....thk2S.......
0840: 7F 74 68 6B 32 4A F8 FF  FF 7F F0 FF FF 7F 1D 6B  .thk2J.........k
0850: 80 23 01 9C 08 02 03 00  29 80 80 9C 08 66 36 80  .#......)....f6.
0860: F8 FF FF 7F F8 FF FF 7F  74 68 6B 31 1D 6E 80 23  ........thk1.n.#
0870: 66 36 80 F8 FF FF 7F F8  FF FF 7F 74 68 6B 32 53  f6.........thk2S
0880: F8 FF FF 7F F8 FF FF 7F  74 68 6B 32 4A F8 FF FF  ........thk2J...
0890: 7F F0 FF FF 7F 1D 6B 80  23 01 9C 08 21 00        ......k.#...!.  
```

#### Opcodes

```
  0: 0x07A3 [0x03] ExtData[1]->WorkLocal[1] = Work_Zone[2]
  1: 0x07A8 [0x03] ExtData[1]->WorkLocal[2] = Work_Zone[3]
  2: 0x07AD [0x03] ExtData[1]->WorkLocal[3] = Work_Zone[4]
  3: 0x07B2 [0x03] ExtData[1]->WorkLocal[9] = Work_Zone[5]
  4: 0x07B7 [0x02] IF !(ExtData[1]->WorkLocal[3] == 1*) GOTO 0x080E
  5: 0x07BF [0x66] LOAD_EXT_SCHEDULER_MAIN: Load scheduler "thk1" with entities [EventEntity, EventEntity], work=59*
  6: 0x07CE [0x1D] PRINT_EVENT_MESSAGE(message_id=9196*)
    → "(Hmm... Maybe mythril alone makes the spiritual link too weak? In that case, I'll need a differrrent metal. What could I use instead...)"
  7: 0x07D1 [0x23] WAIT_FOR_DIALOG_INTERACTION
  8: 0x07D2 [0x66] LOAD_EXT_SCHEDULER_MAIN: Load scheduler "thk2" with entities [EventEntity, EventEntity], work=59*
  9: 0x07E1 [0x53] WAIT_SCHEDULER_TASK: Wait for scheduler "thk2" with entities [EventEntity, EventEntity]
 10: 0x07EE [0x4A] EventEntity looks at LocalPlayer
 11: 0x07F7 [0x1D] PRINT_EVENT_MESSAGE(message_id=9197*)
    → "Hm? Mwahaha. I see you are eager to get starrrted. I need just a little more time."
 12: 0x07FA [0x23] WAIT_FOR_DIALOG_INTERACTION
 13: 0x07FB [0x02] IF !(ExtData[1]->WorkLocal[9] == 0*) GOTO 0x080B
 14: 0x0803 [0x03] Work_Zone[2] = 1*
 15: 0x0808 [0x48] [System] [9221*]:
    → "You must complete the Records of Eminence objective $0 to further enhance your shield."
 16: 0x080B [0x01] GOTO 0x089C
 17: 0x080E [0x02] IF !(ExtData[1]->WorkLocal[3] == 2*) GOTO 0x0855
 18: 0x0816 [0x66] LOAD_EXT_SCHEDULER_MAIN: Load scheduler "thk1" with entities [EventEntity, EventEntity], work=59*
 19: 0x0825 [0x1D] PRINT_EVENT_MESSAGE(message_id=9213*)
    → "(Hmm... If I could use that sheet, it could serve as a kind of antennae... The problem is the weight... Maybe next time, I'll...)"
 20: 0x0828 [0x23] WAIT_FOR_DIALOG_INTERACTION
 21: 0x0829 [0x66] LOAD_EXT_SCHEDULER_MAIN: Load scheduler "thk2" with entities [EventEntity, EventEntity], work=59*
 22: 0x0838 [0x53] WAIT_SCHEDULER_TASK: Wait for scheduler "thk2" with entities [EventEntity, EventEntity]
 23: 0x0845 [0x4A] EventEntity looks at LocalPlayer
 24: 0x084E [0x1D] PRINT_EVENT_MESSAGE(message_id=9197*)
    → "Hm? Mwahaha. I see you are eager to get starrrted. I need just a little more time."
 25: 0x0851 [0x23] WAIT_FOR_DIALOG_INTERACTION
 26: 0x0852 [0x01] GOTO 0x089C
 27: 0x0855 [0x02] IF !(ExtData[1]->WorkLocal[3] == 3*) GOTO 0x089C
 28: 0x085D [0x66] LOAD_EXT_SCHEDULER_MAIN: Load scheduler "thk1" with entities [EventEntity, EventEntity], work=59*
 29: 0x086C [0x1D] PRINT_EVENT_MESSAGE(message_id=9256*)
    → "(Hmm... The ultimate synchronicity... Now, to prepare the craftsman's symbol possessed by the guild...)"
 30: 0x086F [0x23] WAIT_FOR_DIALOG_INTERACTION
 31: 0x0870 [0x66] LOAD_EXT_SCHEDULER_MAIN: Load scheduler "thk2" with entities [EventEntity, EventEntity], work=59*
 32: 0x087F [0x53] WAIT_SCHEDULER_TASK: Wait for scheduler "thk2" with entities [EventEntity, EventEntity]
 33: 0x088C [0x4A] EventEntity looks at LocalPlayer
 34: 0x0895 [0x1D] PRINT_EVENT_MESSAGE(message_id=9197*)
    → "Hm? Mwahaha. I see you are eager to get starrrted. I need just a little more time."
 35: 0x0898 [0x23] WAIT_FOR_DIALOG_INTERACTION
 36: 0x0899 [0x01] GOTO 0x089C

SUBROUTINE_089C:
 37: 0x089C [0x21] END_EVENT
 38: 0x089D [0x00] END_REQSTACK()
```

### Event 422

#### Metadata

| Field        | Value    |
|--------------|----------|
| Entrypoint   | 0x089E   |
| Data Size    | 51 bytes |
| Instructions | 11       |

```
      00 01 02 03 04 05 06 07  08 09 0A 0B 0C 0D 0E 0F
      -- -- -- -- -- -- -- --  -- -- -- -- -- -- -- --
0890:                                            4A F8                J.
08A0: FF FF 7F F0 FF FF 7F 6F  70 66 36 80 F8 FF FF 7F  .......opf6.....
08B0: F8 FF FF 7F 74 6C 6B 30  1D 6F 80 23 1D 70 80 23  ....tlk0.o.#.p.#
08C0: 66 36 80 F8 FF FF 7F F8  FF FF 7F 74 6C 6B 31 21  f6.........tlk1!
08D0: 00                                                .               
```

#### Opcodes

```
  0: 0x089E [0x4A] EventEntity looks at LocalPlayer
  1: 0x08A7 [0x6F] WAIT_FRAME_DELAY: Yield until WaitTime reaches zero
  2: 0x08A8 [0x70] WAIT_ENTITY_RENDER_FLAG: Wait while EventEntity->Render.Flags3 bit 2 is set (cancel turn if not)
  3: 0x08A9 [0x66] LOAD_EXT_SCHEDULER_MAIN: Load scheduler "tlk0" with entities [EventEntity, EventEntity], work=59*
  4: 0x08B8 [0x1D] PRINT_EVENT_MESSAGE(message_id=9198*)
    → "I'm sorry to have kept you waiting. My prrreparations are complete. Mwahaha."
  5: 0x08BB [0x23] WAIT_FOR_DIALOG_INTERACTION
  6: 0x08BC [0x1D] PRINT_EVENT_MESSAGE(message_id=9199*)
    → "I'm going to get it rrready for the upgrade, so can I borrow the $0 for a moment?"
  7: 0x08BF [0x23] WAIT_FOR_DIALOG_INTERACTION
  8: 0x08C0 [0x66] LOAD_EXT_SCHEDULER_MAIN: Load scheduler "tlk1" with entities [EventEntity, EventEntity], work=59*
  9: 0x08CF [0x21] END_EVENT
 10: 0x08D0 [0x00] END_REQSTACK()
```

### Event 423

#### Metadata

| Field        | Value     |
|--------------|-----------|
| Entrypoint   | 0x08D1    |
| Data Size    | 160 bytes |
| Instructions | 37        |

```
      00 01 02 03 04 05 06 07  08 09 0A 0B 0C 0D 0E 0F
      -- -- -- -- -- -- -- --  -- -- -- -- -- -- -- --
08D0:    42 4A F8 FF FF 7F F0  FF FF 7F 6F 70 02 03 10   BJ........op...
08E0: 21 80 00 1A 09 66 36 80  F8 FF FF 7F F8 FF FF 7F  !....f6.........
08F0: 74 6C 6B 30 1D 6F 80 23  1D 70 80 23 66 36 80 F8  tlk0.o.#.p.#f6..
0900: FF FF 7F F8 FF FF 7F 74  6C 6B 31 6E F0 FF FF 7F  .......tlk1n....
0910: 2A 80 99 F0 FF FF 7F 1C  52 80 1D 71 80 23 1A F0  *.......R..q.#..
0920: 19 1C 72 80 1A CF 19 1C  52 80 1D 73 80 23 66 0F  ..r.....R..s.#f.
0930: 80 F8 FF FF 7F F8 FF FF  7F 70 61 73 30 1D 74 80  .........pas0.t.
0940: 23 66 36 80 F8 FF FF 7F  F8 FF FF 7F 74 6C 6B 30  #f6.........tlk0
0950: 1D 75 80 23 1D 76 80 23  1D 77 80 23 1D 78 80 23  .u.#.v.#.w.#.x.#
0960: 66 36 80 F8 FF FF 7F F8  FF FF 7F 74 6C 6B 31 21  f6.........tlk1!
0970: 00                                                .               
```

#### Opcodes

```
  0: 0x08D1 [0x42] SET_CLI_EVENT_CANCEL_DATA()
  1: 0x08D2 [0x4A] EventEntity looks at LocalPlayer
  2: 0x08DB [0x6F] WAIT_FRAME_DELAY: Yield until WaitTime reaches zero
  3: 0x08DC [0x70] WAIT_ENTITY_RENDER_FLAG: Wait while EventEntity->Render.Flags3 bit 2 is set (cancel turn if not)
  4: 0x08DD [0x02] IF !(Work_Zone[3] == 0*) GOTO 0x091A
  5: 0x08E5 [0x66] LOAD_EXT_SCHEDULER_MAIN: Load scheduler "tlk0" with entities [EventEntity, EventEntity], work=59*
  6: 0x08F4 [0x1D] PRINT_EVENT_MESSAGE(message_id=9198*)
    → "I'm sorry to have kept you waiting. My prrreparations are complete. Mwahaha."
  7: 0x08F7 [0x23] WAIT_FOR_DIALOG_INTERACTION
  8: 0x08F8 [0x1D] PRINT_EVENT_MESSAGE(message_id=9199*)
    → "I'm going to get it rrready for the upgrade, so can I borrow the $0 for a moment?"
  9: 0x08FB [0x23] WAIT_FOR_DIALOG_INTERACTION
 10: 0x08FC [0x66] LOAD_EXT_SCHEDULER_MAIN: Load scheduler "tlk1" with entities [EventEntity, EventEntity], work=59*
 11: 0x090B [0x6E] LocalPlayer uses emote 7*
 12: 0x0912 [0x99] Wait for LocalPlayer animation to complete
 13: 0x0917 [0x1C] WAIT(30* ticks)
 14: 0x091A [0x1D] PRINT_EVENT_MESSAGE(message_id=9200*)
    → "Thank you. Okay, this won't take very long, so just wait a little longer."
 15: 0x091D [0x23] WAIT_FOR_DIALOG_INTERACTION
 16: 0x091E [0x1A] CALL_SUBROUTINE(address=0x19F0)
 17: 0x0921 [0x1C] WAIT(60* ticks)
 18: 0x0924 [0x1A] CALL_SUBROUTINE(address=0x19CF)
 19: 0x0927 [0x1C] WAIT(30* ticks)
 20: 0x092A [0x1D] PRINT_EVENT_MESSAGE(message_id=9201*)
    → "There. That should do the trrrick."
 21: 0x092D [0x23] WAIT_FOR_DIALOG_INTERACTION
 22: 0x092E [0x66] LOAD_EXT_SCHEDULER_MAIN: Load scheduler "pas0" with entities [EventEntity, EventEntity], work=121*
 23: 0x093D [0x1D] PRINT_EVENT_MESSAGE(message_id=9202*)
    → "Take this and trrry the synthesis again multiple times."
 24: 0x0940 [0x23] WAIT_FOR_DIALOG_INTERACTION
 25: 0x0941 [0x66] LOAD_EXT_SCHEDULER_MAIN: Load scheduler "tlk0" with entities [EventEntity, EventEntity], work=59*
 26: 0x0950 [0x1D] PRINT_EVENT_MESSAGE(message_id=9203*)
    → "Once your spirit has been sufficiently imbued into the shield, you can try crrrafting the shield again."
 27: 0x0953 [0x23] WAIT_FOR_DIALOG_INTERACTION
 28: 0x0954 [0x1D] PRINT_EVENT_MESSAGE(message_id=9204*)
    → "The ingrrredients have been left with your guild, so speak to your guildmaster for more information."
 29: 0x0957 [0x23] WAIT_FOR_DIALOG_INTERACTION
 30: 0x0958 [0x1D] PRINT_EVENT_MESSAGE(message_id=9205*)
    → "Simply show this shield to your parrrticular guildmaster and they'll know what to do."
 31: 0x095B [0x23] WAIT_FOR_DIALOG_INTERACTION
 32: 0x095C [0x1D] PRINT_EVENT_MESSAGE(message_id=9206*)
    → "I'm interrrested to see what this shield can become. Yes, very interested indeed. Mwahaha."
 33: 0x095F [0x23] WAIT_FOR_DIALOG_INTERACTION
 34: 0x0960 [0x66] LOAD_EXT_SCHEDULER_MAIN: Load scheduler "tlk1" with entities [EventEntity, EventEntity], work=59*
 35: 0x096F [0x21] END_EVENT
 36: 0x0970 [0x00] END_REQSTACK()
```

### Event 424

#### Metadata

| Field        | Value    |
|--------------|----------|
| Entrypoint   | 0x0971   |
| Data Size    | 51 bytes |
| Instructions | 11       |

```
      00 01 02 03 04 05 06 07  08 09 0A 0B 0C 0D 0E 0F
      -- -- -- -- -- -- -- --  -- -- -- -- -- -- -- --
0970:    4A F8 FF FF 7F F0 FF  FF 7F 6F 70 66 36 80 F8   J........opf6..
0980: FF FF 7F F8 FF FF 7F 74  6C 6B 30 1D 79 80 23 1D  .......tlk0.y.#.
0990: 70 80 23 66 36 80 F8 FF  FF 7F F8 FF FF 7F 74 6C  p.#f6.........tl
09A0: 6B 31 21 00                                       k1!.            
```

#### Opcodes

```
  0: 0x0971 [0x4A] EventEntity looks at LocalPlayer
  1: 0x097A [0x6F] WAIT_FRAME_DELAY: Yield until WaitTime reaches zero
  2: 0x097B [0x70] WAIT_ENTITY_RENDER_FLAG: Wait while EventEntity->Render.Flags3 bit 2 is set (cancel turn if not)
  3: 0x097C [0x66] LOAD_EXT_SCHEDULER_MAIN: Load scheduler "tlk0" with entities [EventEntity, EventEntity], work=59*
  4: 0x098B [0x1D] PRINT_EVENT_MESSAGE(message_id=9222*)
    → "Sorry to keep you waiting. The prrreparations are finally complete."
  5: 0x098E [0x23] WAIT_FOR_DIALOG_INTERACTION
  6: 0x098F [0x1D] PRINT_EVENT_MESSAGE(message_id=9199*)
    → "I'm going to get it rrready for the upgrade, so can I borrow the $0 for a moment?"
  7: 0x0992 [0x23] WAIT_FOR_DIALOG_INTERACTION
  8: 0x0993 [0x66] LOAD_EXT_SCHEDULER_MAIN: Load scheduler "tlk1" with entities [EventEntity, EventEntity], work=59*
  9: 0x09A2 [0x21] END_EVENT
 10: 0x09A3 [0x00] END_REQSTACK()
```

### Event 425

#### Metadata

| Field        | Value     |
|--------------|-----------|
| Entrypoint   | 0x09A4    |
| Data Size    | 514 bytes |
| Instructions | 111       |

```
      00 01 02 03 04 05 06 07  08 09 0A 0B 0C 0D 0E 0F
      -- -- -- -- -- -- -- --  -- -- -- -- -- -- -- --
09A0:             03 08 00 02  10 03 01 00 04 10 42 4A      ..........BJ
09B0: F8 FF FF 7F F0 FF FF 7F  6F 70 02 03 10 21 80 00  ........op...!..
09C0: F7 09 66 36 80 F8 FF FF  7F F8 FF FF 7F 74 6C 6B  ..f6.........tlk
09D0: 30 1D 79 80 23 1D 70 80  23 66 36 80 F8 FF FF 7F  0.y.#.p.#f6.....
09E0: F8 FF FF 7F 74 6C 6B 31  6E F0 FF FF 7F 2A 80 99  ....tlk1n....*..
09F0: F0 FF FF 7F 1C 52 80 1D  71 80 23 1A F0 19 1C 72  .....R..q.#....r
0A00: 80 1A CF 19 1C 52 80 1D  73 80 23 66 0F 80 F8 FF  .....R..s.#f....
0A10: FF 7F F8 FF FF 7F 70 61  73 30 1D 74 80 23 1D 7A  ......pas0.t.#.z
0A20: 80 23 66 36 80 F8 FF FF  7F F8 FF FF 7F 74 68 6B  .#f6.........thk
0A30: 31 1D 7B 80 23 66 36 80  F8 FF FF 7F F8 FF FF 7F  1.{.#f6.........
0A40: 74 68 6B 32 1D 7C 80 23  66 36 80 F8 FF FF 7F F8  thk2.|.#f6......
0A50: FF FF 7F 74 6C 6B 30 1D  7D 80 23 66 36 80 F8 FF  ...tlk0.}.#f6...
0A60: FF 7F F8 FF FF 7F 74 6C  6B 31 1D 7E 80 23 66 36  ......tlk1.~.#f6
0A70: 80 F8 FF FF 7F F8 FF FF  7F 74 6C 6B 30 1D 7F 80  .........tlk0...
0A80: 23 1D 80 80 23 1D 81 80  23 66 36 80 F8 FF FF 7F  #...#...#f6.....
0A90: F8 FF FF 7F 74 6C 6B 31  1D 82 80 23 1D 83 80 23  ....tlk1...#...#
0AA0: 1A 11 1A 03 08 10 01 00  03 03 10 21 80 03 04 10  ...........!....
0AB0: 21 80 03 05 10 21 80 03  06 10 32 80 48 33 80 23  !....!....2.H3.#
0AC0: 03 02 10 08 00 03 03 10  0B 00 03 04 10 0C 00 03  ................
0AD0: 05 10 0D 00 03 06 10 28  80 03 07 10 13 00 03 08  .......(........
0AE0: 10 14 00 03 09 10 15 00  48 34 80 23 03 02 10 0E  ........H4.#....
0AF0: 00 03 03 10 0F 00 03 06  10 16 00 03 07 10 17 00  ................
0B00: 48 35 80 23 66 36 80 F8  FF FF 7F F8 FF FF 7F 74  H5.#f6.........t
0B10: 6C 6B 30 1D 84 80 23 66  36 80 F8 FF FF 7F F8 FF  lk0...#f6.......
0B20: FF 7F 74 6C 6B 31 1D 85  80 23 66 36 80 F8 FF FF  ..tlk1...#f6....
0B30: 7F F8 FF FF 7F 74 6C 6B  30 03 02 10 08 00 03 03  .....tlk0.......
0B40: 10 0B 00 03 04 10 0C 00  03 05 10 0D 00 03 06 10  ................
0B50: 0E 00 03 07 10 0F 00 1D  86 80 23 1D 87 80 23 1D  ..........#...#.
0B60: 88 80 23 1D 89 80 23 1D  8A 80 23 1D 8B 80 23 66  ..#...#...#...#f
0B70: 36 80 F8 FF FF 7F F8 FF  FF 7F 74 6C 6B 31 1D 8C  6.........tlk1..
0B80: 80 23 66 36 80 F8 FF FF  7F F8 FF FF 7F 74 6C 6B  .#f6.........tlk
0B90: 30 1D 8D 80 23 66 36 80  F8 FF FF 7F F8 FF FF 7F  0...#f6.........
0BA0: 74 6C 6B 31 21 00                                 tlk1!.          
```

#### Opcodes

```
  0: 0x09A4 [0x03] ExtData[1]->WorkLocal[8] = Work_Zone[2]
  1: 0x09A9 [0x03] ExtData[1]->WorkLocal[1] = Work_Zone[4]
  2: 0x09AE [0x42] SET_CLI_EVENT_CANCEL_DATA()
  3: 0x09AF [0x4A] EventEntity looks at LocalPlayer
  4: 0x09B8 [0x6F] WAIT_FRAME_DELAY: Yield until WaitTime reaches zero
  5: 0x09B9 [0x70] WAIT_ENTITY_RENDER_FLAG: Wait while EventEntity->Render.Flags3 bit 2 is set (cancel turn if not)
  6: 0x09BA [0x02] IF !(Work_Zone[3] == 0*) GOTO 0x09F7
  7: 0x09C2 [0x66] LOAD_EXT_SCHEDULER_MAIN: Load scheduler "tlk0" with entities [EventEntity, EventEntity], work=59*
  8: 0x09D1 [0x1D] PRINT_EVENT_MESSAGE(message_id=9222*)
