# 17784987 - Shemo

## Common Data

| Field            | Value                |
|------------------|----------------------|
| Zone             | Port Jeuno (ID: 246) |
| Block Size       | 3700 bytes           |
| Total Events     | 42                   |
| References Count | 60                   |

## List of Events

| Event ID                   | Entrypoint   |   Size |   Instructions |
|----------------------------|--------------|--------|----------------|
| [65535](#event-65535)      | 0x0000       |      1 |              1 |
| [352](#event-352)          | 0x0001       |   2215 |            442 |
| [353](#event-353)          | 0x08A8       |    419 |             82 |
| [431](#event-431)          | 0x0A4B       |      1 |              1 |
| [434](#event-434)          | 0x0A4C       |      7 |              2 |
| [65535.1](#event-655351)   | 0x0A53       |     58 |             12 |
| [65535.2](#event-655352)   | 0x0A8D       |     16 |              2 |
| [65535.3](#event-655353)   | 0x0A9D       |     14 |              2 |
| [65535.4](#event-655354)   | 0x0AAB       |     16 |              2 |
| [65535.5](#event-655355)   | 0x0ABB       |     14 |              2 |
| [65535.6](#event-655356)   | 0x0AC9       |     16 |              2 |
| [65535.7](#event-655357)   | 0x0AD9       |     14 |              2 |
| [65535.8](#event-655358)   | 0x0AE7       |     16 |              2 |
| [65535.9](#event-655359)   | 0x0AF7       |     14 |              2 |
| [65535.10](#event-6553510) | 0x0B05       |     16 |              2 |
| [65535.11](#event-6553511) | 0x0B15       |     14 |              2 |
| [65535.12](#event-6553512) | 0x0B23       |     16 |              2 |
| [65535.13](#event-6553513) | 0x0B33       |     14 |              2 |
| [65535.14](#event-6553514) | 0x0B41       |     16 |              2 |
| [65535.15](#event-6553515) | 0x0B51       |     14 |              2 |
| [65535.16](#event-6553516) | 0x0B5F       |     16 |              2 |
| [65535.17](#event-6553517) | 0x0B6F       |     14 |              2 |
| [65535.18](#event-6553518) | 0x0B7D       |     16 |              2 |
| [65535.19](#event-6553519) | 0x0B8D       |     14 |              2 |
| [65535.20](#event-6553520) | 0x0B9B       |     16 |              2 |
| [65535.21](#event-6553521) | 0x0BAB       |     14 |              2 |
| [65535.22](#event-6553522) | 0x0BB9       |     16 |              2 |
| [65535.23](#event-6553523) | 0x0BC9       |     14 |              2 |
| [65535.24](#event-6553524) | 0x0BD7       |     16 |              2 |
| [65535.25](#event-6553525) | 0x0BE7       |     14 |              2 |
| [65535.26](#event-6553526) | 0x0BF5       |     16 |              2 |
| [65535.27](#event-6553527) | 0x0C05       |     14 |              2 |
| [65535.28](#event-6553528) | 0x0C13       |     28 |              4 |
| [65535.29](#event-6553529) | 0x0C2F       |     14 |              2 |
| [65535.30](#event-6553530) | 0x0C3D       |     16 |              2 |
| [65535.31](#event-6553531) | 0x0C4D       |     26 |              4 |
| [65535.32](#event-6553532) | 0x0C67       |     28 |              4 |
| [65535.33](#event-6553533) | 0x0C83       |     14 |              2 |
| [65535.34](#event-6553534) | 0x0C91       |     16 |              2 |
| [65535.35](#event-6553535) | 0x0CA1       |     26 |              4 |
| [443](#event-443)          | 0x0CBB       |      1 |              1 |
| [65535.36](#event-6553536) | 0x0CBC       |     15 |              5 |

## DAT References (imed_data)

|   Index | Hex Value   |   Dec Value |
|---------|-------------|-------------|
|       0 | 0x0000      |           0 |
|       1 | 0x000F      |          15 |
|       2 | 0x0010      |          16 |
|       3 | 0x001F      |          31 |
|       4 | 0x0001      |           1 |
|       5 | 0x0003      |           3 |
|       6 | 0x0002      |           2 |
|       7 | 0x270F      |        9999 |
|       8 | 0x0004      |           4 |
|       9 | 0x0005      |           5 |
|      10 | 0x0041      |          65 |
|      11 | 0x2214      |        8724 |
|      12 | 0x2215      |        8725 |
|      13 | 0x2216      |        8726 |
|      14 | 0x2217      |        8727 |
|      15 | 0x2218      |        8728 |
|      16 | 0x2219      |        8729 |
|      17 | 0x221A      |        8730 |
|      18 | 0x221B      |        8731 |
|      19 | 0x221C      |        8732 |
|      20 | 0x221D      |        8733 |
|      21 | 0x003E      |          62 |
|      22 | 0x221F      |        8735 |
|      23 | 0x0466      |        1126 |
|      24 | 0x0467      |        1127 |
|      25 | 0x0B8B      |        2955 |
|      26 | 0x0B8C      |        2956 |
|      27 | 0x0B8D      |        2957 |
|      28 | 0x2220      |        8736 |
|      29 | 0x221E      |        8734 |
|      30 | 0x222D      |        8749 |
|      31 | 0x222E      |        8750 |
|      32 | 0x2221      |        8737 |
|      33 | 0x2222      |        8738 |
|      34 | 0x2223      |        8739 |
|      35 | 0x2224      |        8740 |
|      36 | 0x2225      |        8741 |
|      37 | 0x2226      |        8742 |
|      38 | 0x0007      |           7 |
|      39 | 0x0008      |           8 |
|      40 | 0x0018      |          24 |
|      41 | 0x2231      |        8753 |
|      42 | 0x222F      |        8751 |
|      43 | 0x2230      |        8752 |
|      44 | 0x2227      |        8743 |
|      45 | 0x2228      |        8744 |
|      46 | 0x2229      |        8745 |
|      47 | 0x222A      |        8746 |
|      48 | 0xFFFFFFFF  |  4294967295 |
|      49 | 0x222B      |        8747 |
|      50 | 0x222C      |        8748 |
|      51 | 0x000A      |          10 |
|      52 | 0x00B4      |         180 |
|      53 | 0x005A      |          90 |
|      54 | 0x0078      |         120 |
|      55 | 0x0615      |        1557 |
|      56 | 0x04F6      |        1270 |
|      57 | 0x000D      |          13 |
|      58 | 0xFFFF2621  |  4294911521 |
|      59 | 0x293B      |       10555 |

## String References

- **8724**: (Psst, you. Yeah, you! You look like a [guy/gal] who can't get enough crests and seals. Am I right?)
- **8725**: Crests and seals? [Gimme more more more!/I've got enough.]
- **8726**: That's what I'm talkin' about! Now listen up, 'cause have I ever got a deal for you.
- **8727**: Now that's what I'm talkin' ab...hm? Whaddaya mean you've got enough? Way to ruin my sales pitch, [buddy/lady]. Just be quiet and listen, will ya?
- **8728**: You can call me Shemo. I'm Shami's brother. (And just between you and me, I'm the brains behind this operation.)
- **8729**: Here's the deal. Is my big bro holdin' onto any old crests or seals that ya don't need? Well, I can offer you one shiny new seal--any seal--of your choice for $4 of yours.
- **8730**: Whaddaya think of that?
- **8731**: Hm? Why three, ya ask? Hey, a trader's gotta turn a profit somehow, right?
- **8732**: So, how you doin' on seals and crests these days? If you want to make a trade, Shemo's got ya covered. Just say the word.
- **8733**: Make a trade? [Let's do it./Not today./Wait, how does this work?]
- **8734**: Hmph. And here I thought you were a [guy/gal] who knew a good deal when ya saw one. Fine, we didn't need your business anyway.
- **8735**: That's what I'm talkin' about! I knew you had an eye for business. So what seals are ya lookin' to get rid of today?
- **8736**: Trade away which seals? [None./% (You have $10)./$1 (You have $11)./$2 (You have $12)./$3 (You have $13)./$4 (You have $14).]
- **8737**: You're gonna give me $0, yeah? Got it. Now whaddaya want in return?
- **8738**: Obtain which seal(s)? [None./% (You have $10)./$1 (You have $11)./$2 (You have $12)./$3 (You have $13)./$4 (You have $14).]
- **8739**: You currently have a balance of $5 $0 and $2 $0$0 . Enter the number of $0 you wish to obtain: (Maximum: $6).
- **8740**: I'll be takin' $2 $0 off your hands to give as many $1 as ya asked for. We still have a deal?
- **8741**: That's what I'm sayin'! Another suck--ahem. Another satisfied customer!
- **8742**: That brings your total balance to $1 $0 and $3 $0 . How do ya like that!?
- **8743**: What's that? $0? Yeah, I can hold onto those for ya.
- **8744**: That brings your total balance of $0 to $1. If you're lookin' to make a trade, just talk to your buddy Shemo here.
- **8745**: Got a bunch of 'em, do ya? Lemme have a look-see.
- **8746**: Shami's holding a total of...
- **8747**: $1 $0 .
- **8748**: Should be all. Lemme know if y'need anything else.
- **8749**: By the way, I can store seals and crests for ya, too. Shami and I, we work together, y'see.
- **8750**: Don't worry, I won't be skimmin' nothin' off the top. Not with a good customer like you, at least. Heh heh heh.
- **8751**: Whoa there, now! Our Gobbiebags can't hold every seal in the realm, ya know. You're gonna have to make a trade or purchase before ya give us any more.
- **8752**: (Psst! You're an adventurer, aren't ya? If you've got any beastmen's seals, Kindred's crests, or what-have-ya, you'll want to trade 'em to me or my brother here. Trust me. We'll make it worth your while.)
- **8753**: Hey, you tryin' to pull a fast one on me? You've only got $1 $0 .

## Events

### Event 65535

#### Metadata

| Field        | Value   |
|--------------|---------|
| Entrypoint   | 0x0000  |
| Data Size    | 1 bytes |
| Instructions | 1       |

```
      00 01 02 03 04 05 06 07  08 09 0A 0B 0C 0D 0E 0F
      -- -- -- -- -- -- -- --  -- -- -- -- -- -- -- --
0000: 00                                                .               
```

#### Opcodes

```
  0: 0x0000 [0x00] END_REQSTACK()
```

### Event 352

#### Metadata

| Field        | Value      |
|--------------|------------|
| Entrypoint   | 0x0001     |
| Data Size    | 2215 bytes |
| Instructions | 350        |

```
      00 01 02 03 04 05 06 07  08 09 0A 0B 0C 0D 0E 0F
      -- -- -- -- -- -- -- --  -- -- -- -- -- -- -- --
0000:    03 01 10 00 80 41 00  80 01 80 02 10 05 00 41   .....A........A
0010: 02 80 03 80 02 10 06 00  41 00 80 01 80 03 10 07  ........A.......
0020: 00 41 02 80 03 80 03 10  08 00 41 00 80 01 80 04  .A........A.....
0030: 10 09 00 03 0D 00 04 80  03 12 00 05 10 02 12 00  ................
0040: 00 80 00 89 00 02 05 00  05 80 04 52 00 03 0D 00  ...........R....
0050: 00 80 02 06 00 05 80 04  5F 00 03 0D 00 00 80 02  ........_.......
0060: 07 00 05 80 04 6C 00 03  0D 00 00 80 02 08 00 05  .....l..........
0070: 80 04 79 00 03 0D 00 00  80 02 09 00 05 80 04 86  ..y.............
0080: 00 03 0D 00 00 80 01 CA  00 02 05 00 06 80 04 96  ................
0090: 00 03 0D 00 00 80 02 06  00 06 80 04 A3 00 03 0D  ................
00A0: 00 00 80 02 07 00 06 80  04 B0 00 03 0D 00 00 80  ................
00B0: 02 08 00 06 80 04 BD 00  03 0D 00 00 80 02 09 00  ................
00C0: 06 80 04 CA 00 03 0D 00  00 80 06 15 00 02 05 00  ................
00D0: 07 80 04 DF 00 3C 14 00  04 80 04 80 0B 15 00 02  .....<..........
00E0: 06 00 07 80 04 F1 00 3C  14 00 06 80 04 80 0B 15  .......<........
00F0: 00 02 07 00 07 80 04 03  01 3C 14 00 05 80 04 80  .........<......
0100: 0B 15 00 02 08 00 07 80  04 15 01 3C 14 00 08 80  ...........<....
0110: 04 80 0B 15 00 02 09 00  07 80 04 27 01 3C 14 00  ...........'.<..
0120: 09 80 04 80 0B 15 00 1E  F0 FF FF 7F 6F 70 02 0D  ............op..
0130: 00 00 80 00 9C 08 02 09  10 00 80 00 08 02 5B 0A  ..............[.
0140: 80 F8 FF FF 7F F8 FF FF  7F 74 6C 6B 31 1D 0B 80  .........tlk1...
0150: 23 5B 0A 80 F8 FF FF 7F  F8 FF FF 7F 74 6C 6B 31  #[..........tlk1
0160: 24 0C 80 00 80 00 80 25  02 00 10 00 80 00 86 01  $......%........
0170: 5B 0A 80 F8 FF FF 7F F8  FF FF 7F 74 6C 6B 31 1D  [..........tlk1.
0180: 0D 80 23 01 A4 01 02 00  10 04 80 00 A4 01 5B 0A  ..#...........[.
0190: 80 F8 FF FF 7F F8 FF FF  7F 74 6C 6B 31 1D 0E 80  .........tlk1...
01A0: 23 01 A4 01 5B 0A 80 F8  FF FF 7F F8 FF FF 7F 74  #...[..........t
01B0: 6C 6B 31 1D 0F 80 23 5B  0A 80 F8 FF FF 7F F8 FF  lk1...#[........
01C0: FF 7F 74 6C 6B 31 02 12  00 00 80 00 D6 01 03 06  ..tlk1..........
01D0: 10 05 80 01 DB 01 03 06  10 06 80 1D 10 80 23 5B  ..............#[
01E0: 0A 80 F8 FF FF 7F F8 FF  FF 7F 74 6C 6B 31 1D 11  ..........tlk1..
01F0: 80 23 5B 0A 80 F8 FF FF  7F F8 FF FF 7F 74 6C 6B  .#[..........tlk
0200: 31 1D 12 80 23 01 1B 02  5B 0A 80 F8 FF FF 7F F8  1...#...[.......
0210: FF FF 7F 74 6C 6B 31 1D  13 80 23 24 14 80 04 80  ...tlk1...#$....
0220: 00 80 25 02 00 10 00 80  00 6E 08 02 14 00 15 80  ..%......n......
0230: 01 61 08 03 00 00 00 80  03 01 00 00 80 02 12 00  .a..............
0240: 00 80 00 93 02 02 05 00  05 80 03 54 02 3C 00 00  ...........T.<..
0250: 04 80 04 80 02 06 00 05  80 03 63 02 3C 00 00 06  ..........c.<...
0260: 80 04 80 02 07 00 05 80  03 72 02 3C 00 00 05 80  .........r.<....
0270: 04 80 02 08 00 05 80 03  81 02 3C 00 00 08 80 04  ..........<.....
0280: 80 02 09 00 05 80 03 90  02 3C 00 00 09 80 04 80  .........<......
0290: 01 DE 02 02 05 00 06 80  03 A2 02 3C 00 00 04 80  ...........<....
02A0: 04 80 02 06 00 06 80 03  B1 02 3C 00 00 06 80 04  ..........<.....
02B0: 80 02 07 00 06 80 03 C0  02 3C 00 00 05 80 04 80  .........<......
02C0: 02 08 00 06 80 03 CF 02  3C 00 00 08 80 04 80 02  ........<.......
02D0: 09 00 06 80 03 DE 02 3C  00 00 09 80 04 80 1D 16  .......<........
02E0: 80 23 03 02 10 17 80 03  03 10 18 80 03 04 10 19  .#..............
02F0: 80 03 05 10 1A 80 03 06  10 1B 80 03 02 17 05 00  ................
0300: 03 03 17 06 00 03 04 17  07 00 03 05 17 08 00 03  ................
0310: 06 17 09 00 02 15 00 08  80 00 7B 03 03 13 00 14  ..........{.....
0320: 00 0F 13 00 15 80 3E 13  00 04 80 37 03 3C 00 00  ......>....7.<..
0330: 04 80 04 80 01 7B 03 3E  13 00 06 80 48 03 3C 00  .....{.>....H.<.
0340: 00 06 80 04 80 01 7B 03  3E 13 00 05 80 59 03 3C  ......{.>....Y.<
0350: 00 00 05 80 04 80 01 7B  03 3E 13 00 08 80 6A 03  .......{.>....j.
0360: 3C 00 00 08 80 04 80 01  7B 03 3E 13 00 09 80 7B  <.......{.>....{
0370: 03 3C 00 00 09 80 04 80  01 7B 03 03 01 00 14 00  .<.......{......
0380: 24 1C 80 00 80 00 00 25  02 00 10 00 80 00 A5 03  $......%........
0390: 1D 1D 80 23 1D 1E 80 23  1D 1F 80 23 03 01 10 00  ...#...#...#....
03A0: 80 21 01 4B 04 02 00 10  04 80 00 C5 03 03 02 10  .!.K............
03B0: 17 80 03 04 00 17 80 1D  20 80 23 3C 01 00 04 80  ........ .#<....
03C0: 04 80 01 4B 04 02 00 10  06 80 00 E5 03 03 02 10  ...K............
03D0: 18 80 03 04 00 18 80 1D  20 80 23 3C 01 00 06 80  ........ .#<....
03E0: 04 80 01 4B 04 02 00 10  05 80 00 05 04 03 02 10  ...K............
03F0: 19 80 03 04 00 19 80 1D  20 80 23 3C 01 00 05 80  ........ .#<....
0400: 04 80 01 4B 04 02 00 10  08 80 00 25 04 03 02 10  ...K.......%....
0410: 1A 80 03 04 00 1A 80 1D  20 80 23 3C 01 00 08 80  ........ .#<....
0420: 04 80 01 4B 04 02 00 10  09 80 00 45 04 03 02 10  ...K.......E....
0430: 1B 80 03 04 00 1B 80 1D  20 80 23 3C 01 00 09 80  ........ .#<....
0440: 04 80 01 4B 04 03 01 10  00 80 21 03 02 10 17 80  ...K......!.....
0450: 03 03 10 18 80 03 04 10  19 80 03 05 10 1A 80 03  ................
0460: 06 10 1B 80 03 02 17 05  00 03 03 17 06 00 03 04  ................
0470: 17 07 00 03 05 17 08 00  03 06 17 09 00 24 21 80  .............$!.
0480: 00 80 01 00 25 02 00 10  00 80 00 A2 04 1D 1D 80  ....%...........
0490: 23 1D 1E 80 23 1D 1F 80  23 03 01 10 00 80 21 01  #...#...#.....!.
04A0: 2A 05 02 00 10 04 80 00  BC 04 03 02 10 17 80 03  *...............
04B0: 03 00 17 80 03 07 10 05  00 01 2A 05 02 00 10 06  ..........*.....
04C0: 80 00 D6 04 03 03 10 18  80 03 03 00 18 80 03 07  ................
04D0: 10 06 00 01 2A 05 02 00  10 05 80 00 F0 04 03 04  ....*...........
04E0: 10 19 80 03 03 00 19 80  03 07 10 07 00 01 2A 05  ..............*.
04F0: 02 00 10 08 80 00 0A 05  03 05 10 1A 80 03 03 00  ................
0500: 1A 80 03 07 10 08 00 01  2A 05 02 00 10 09 80 00  ........*.......
0510: 24 05 03 06 10 1B 80 03  03 00 1B 80 03 07 10 09  $...............
0520: 00 01 2A 05 03 01 10 00  80 21 02 04 00 17 80 80  ..*......!......
0530: 3F 05 03 04 10 05 00 03  10 00 05 00 01 93 05 02  ?...............
0540: 04 00 18 80 80 54 05 03  04 10 06 00 03 10 00 06  .....T..........
0550: 00 01 93 05 02 04 00 19  80 80 69 05 03 04 10 07  ..........i.....
0560: 00 03 10 00 07 00 01 93  05 02 04 00 1A 80 80 7E  ...............~
0570: 05 03 04 10 08 00 03 10  00 08 00 01 93 05 02 04  ................
0580: 00 1B 80 80 93 05 03 04  10 09 00 03 10 00 09 00  ................
0590: 01 93 05 03 11 00 00 80  03 02 10 03 00 03 03 10  ................
05A0: 04 00 03 0F 00 07 80 08  0F 00 07 10 03 0E 00 10  ................
05B0: 00 02 12 00 00 80 00 C1  05 15 0E 00 05 80 01 C6  ................
05C0: 05 15 0E 00 06 80 02 0E  00 0F 00 02 D8 05 03 0E  ................
05D0: 00 0F 00 03 11 00 04 80  03 08 10 0E 00 48 22 80  .............H".
05E0: 23 71 10 04 80 71 11 02  10 02 02 10 04 80 04 4C  #q...q.........L
05F0: 08 02 02 10 0E 00 05 0B  08 03 0A 00 02 10 03 0B  ................
0600: 00 02 10 02 12 00 00 80  00 13 06 14 0B 00 05 80  ................
0610: 01 18 06 14 0B 00 06 80  03 02 10 04 00 03 03 10  ................
0620: 03 00 03 04 10 0B 00 03  02 17 0A 00 3C 02 00 06  ............<...
0630: 80 04 80 1D 23 80 23 24  14 80 04 80 02 00 25 02  ....#.#$......%.
0640: 00 10 00 80 00 EB 07 42  1D 24 80 23 02 03 00 17  .......B.$.#....
0650: 80 80 5C 06 03 0C 00 05  00 01 9C 06 02 03 00 18  ..\.............
0660: 80 80 6C 06 03 0C 00 06  00 01 9C 06 02 03 00 19  ..l.............
0670: 80 80 7C 06 03 0C 00 07  00 01 9C 06 02 03 00 1A  ..|.............
0680: 80 80 8C 06 03 0C 00 08  00 01 9C 06 02 03 00 1B  ................
0690: 80 80 9C 06 03 0C 00 09  00 01 9C 06 03 04 10 03  ................
06A0: 00 07 0C 00 0A 00 03 05  10 0C 00 02 04 00 17 80  ................
06B0: 80 BB 06 03 0C 00 05 00  01 FB 06 02 04 00 18 80  ................
06C0: 80 CB 06 03 0C 00 06 00  01 FB 06 02 04 00 19 80  ................
06D0: 80 DB 06 03 0C 00 07 00  01 FB 06 02 04 00 1A 80  ................
06E0: 80 EB 06 03 0C 00 08 00  01 FB 06 02 04 00 1B 80  ................
06F0: 80 FB 06 03 0C 00 09 00  01 FB 06 03 02 10 04 00  ................
0700: 08 0C 00 0B 00 03 03 10  0C 00 1D 25 80 23 1D 1E  ...........%.#..
0710: 80 23 1D 1F 80 23 02 03  00 17 80 80 2A 07 40 00  .#...#......*.@.
0720: 80 05 80 01 10 04 80 01  7A 07 02 03 00 18 80 80  ........z.......
0730: 3E 07 40 00 80 05 80 01  10 06 80 01 7A 07 02 03  >.@.........z...
0740: 00 19 80 80 52 07 40 00  80 05 80 01 10 05 80 01  ....R.@.........
0750: 7A 07 02 03 00 1A 80 80  66 07 40 00 80 05 80 01  z.......f.@.....
0760: 10 08 80 01 7A 07 02 03  00 1B 80 80 7A 07 40 00  ....z.......z.@.
0770: 80 05 80 01 10 09 80 01  7A 07 02 04 00 17 80 80  ........z.......
0780: 8E 07 40 08 80 26 80 01  10 04 80 01 DE 07 02 04  ..@..&..........
0790: 00 18 80 80 A2 07 40 08  80 26 80 01 10 06 80 01  ......@..&......
07A0: DE 07 02 04 00 19 80 80  B6 07 40 08 80 26 80 01  ..........@..&..
07B0: 10 05 80 01 DE 07 02 04  00 1A 80 80 CA 07 40 08  ..............@.
07C0: 80 26 80 01 10 08 80 01  DE 07 02 04 00 1B 80 80  .&..............
07D0: DE 07 40 08 80 26 80 01  10 09 80 01 DE 07 40 27  ..@..&........@'
07E0: 80 28 80 01 10 0A 00 21  01 08 08 02 00 10 04 80  .(.....!........
07F0: 00 08 08 1D 1D 80 23 1D  1E 80 23 1D 1F 80 23 03  ......#...#...#.
0800: 01 10 00 80 21 01 08 08  01 49 08 02 11 00 00 80  ....!....I......
0810: 80 2A 08 03 02 10 04 00  03 03 10 10 00 1D 29 80  .*............).
0820: 23 03 01 10 00 80 21 01  49 08 02 11 00 04 80 80  #.....!.I.......
0830: 3F 08 1D 2A 80 23 03 01  10 00 80 21 01 49 08 1D  ?..*.#.....!.I..
0840: 1D 80 23 03 01 10 00 80  21 01 5E 08 1D 1D 80 23  ..#.....!.^....#
0850: 1D 1E 80 23 1D 1F 80 23  03 01 10 00 80 21 01 6B  ...#...#.....!.k
0860: 08 1D 2A 80 23 03 01 10  00 80 21 01 99 08 02 00  ..*.#.....!.....
0870: 10 04 80 00 8B 08 1D 1D  80 23 1D 1E 80 23 1D 1F  .........#...#..
0880: 80 23 03 01 10 00 80 21  01 99 08 02 00 10 06 80  .#.....!........
0890: 00 99 08 01 A4 01 01 99  08 01 A6 08 1D 2B 80 23  .............+.#
08A0: 03 01 10 00 80 21 21 00                           .....!!.        
```

#### Opcodes

```
  0: 0x0001 [0x03] Work_Zone[1] = 0*
  1: 0x0006 [0x41] ExtData[1]->WorkLocal[5] = Work_Zone[2] (bits 0*-15*)
  2: 0x000F [0x41] ExtData[1]->WorkLocal[6] = Work_Zone[2] (bits 16*-31*)
  3: 0x0018 [0x41] ExtData[1]->WorkLocal[7] = Work_Zone[3] (bits 0*-15*)
  4: 0x0021 [0x41] ExtData[1]->WorkLocal[8] = Work_Zone[3] (bits 16*-31*)
  5: 0x002A [0x41] ExtData[1]->WorkLocal[9] = Work_Zone[4] (bits 0*-15*)
  6: 0x0033 [0x03] ExtData[1]->WorkLocal[13] = 1*
  7: 0x0038 [0x03] ExtData[1]->WorkLocal[18] = Work_Zone[5]
  8: 0x003D [0x02] IF !(ExtData[1]->WorkLocal[18] == 0*) GOTO 0x0089
  9: 0x0045 [0x02] IF !(ExtData[1]->WorkLocal[5] < 3*) GOTO 0x0052
 10: 0x004D [0x03] ExtData[1]->WorkLocal[13] = 0*
 11: 0x0052 [0x02] IF !(ExtData[1]->WorkLocal[6] < 3*) GOTO 0x005F
 12: 0x005A [0x03] ExtData[1]->WorkLocal[13] = 0*
 13: 0x005F [0x02] IF !(ExtData[1]->WorkLocal[7] < 3*) GOTO 0x006C
 14: 0x0067 [0x03] ExtData[1]->WorkLocal[13] = 0*
 15: 0x006C [0x02] IF !(ExtData[1]->WorkLocal[8] < 3*) GOTO 0x0079
 16: 0x0074 [0x03] ExtData[1]->WorkLocal[13] = 0*
 17: 0x0079 [0x02] IF !(ExtData[1]->WorkLocal[9] < 3*) GOTO 0x0086
 18: 0x0081 [0x03] ExtData[1]->WorkLocal[13] = 0*
 19: 0x0086 [0x01] GOTO 0x00CA
 20: 0x0089 [0x02] IF !(ExtData[1]->WorkLocal[5] < 2*) GOTO 0x0096
 21: 0x0091 [0x03] ExtData[1]->WorkLocal[13] = 0*
 22: 0x0096 [0x02] IF !(ExtData[1]->WorkLocal[6] < 2*) GOTO 0x00A3
 23: 0x009E [0x03] ExtData[1]->WorkLocal[13] = 0*
 24: 0x00A3 [0x02] IF !(ExtData[1]->WorkLocal[7] < 2*) GOTO 0x00B0
 25: 0x00AB [0x03] ExtData[1]->WorkLocal[13] = 0*
 26: 0x00B0 [0x02] IF !(ExtData[1]->WorkLocal[8] < 2*) GOTO 0x00BD
 27: 0x00B8 [0x03] ExtData[1]->WorkLocal[13] = 0*
 28: 0x00BD [0x02] IF !(ExtData[1]->WorkLocal[9] < 2*) GOTO 0x00CA
 29: 0x00C5 [0x03] ExtData[1]->WorkLocal[13] = 0*

SUBROUTINE_00CA:
 30: 0x00CA [0x06] ExtData[1]->WorkLocal[21] = 0
 31: 0x00CD [0x02] IF !(ExtData[1]->WorkLocal[5] < 9999*) GOTO 0x00DF
 32: 0x00D5 [0x3C] SET_BIT_FLAG_CONDITIONAL(target_work_offset=ExtData[1]->WorkLocal[20], bit_index_work_offset=1*, condition_work_offset=1*)
 33: 0x00DC [0x0B] ExtData[1]->WorkLocal[21]++
 34: 0x00DF [0x02] IF !(ExtData[1]->WorkLocal[6] < 9999*) GOTO 0x00F1
 35: 0x00E7 [0x3C] SET_BIT_FLAG_CONDITIONAL(target_work_offset=ExtData[1]->WorkLocal[20], bit_index_work_offset=2*, condition_work_offset=1*)
 36: 0x00EE [0x0B] ExtData[1]->WorkLocal[21]++
 37: 0x00F1 [0x02] IF !(ExtData[1]->WorkLocal[7] < 9999*) GOTO 0x0103
 38: 0x00F9 [0x3C] SET_BIT_FLAG_CONDITIONAL(target_work_offset=ExtData[1]->WorkLocal[20], bit_index_work_offset=3*, condition_work_offset=1*)
 39: 0x0100 [0x0B] ExtData[1]->WorkLocal[21]++
 40: 0x0103 [0x02] IF !(ExtData[1]->WorkLocal[8] < 9999*) GOTO 0x0115
 41: 0x010B [0x3C] SET_BIT_FLAG_CONDITIONAL(target_work_offset=ExtData[1]->WorkLocal[20], bit_index_work_offset=4*, condition_work_offset=1*)
 42: 0x0112 [0x0B] ExtData[1]->WorkLocal[21]++
 43: 0x0115 [0x02] IF !(ExtData[1]->WorkLocal[9] < 9999*) GOTO 0x0127
 44: 0x011D [0x3C] SET_BIT_FLAG_CONDITIONAL(target_work_offset=ExtData[1]->WorkLocal[20], bit_index_work_offset=5*, condition_work_offset=1*)
 45: 0x0124 [0x0B] ExtData[1]->WorkLocal[21]++
 46: 0x0127 [0x1E] EventEntity looks at LocalPlayer and starts talking
 47: 0x012C [0x6F] WAIT_FRAME_DELAY: Yield until WaitTime reaches zero
 48: 0x012D [0x70] WAIT_ENTITY_RENDER_FLAG: Wait while EventEntity->Render.Flags3 bit 2 is set (cancel turn if not)
 49: 0x012E [0x02] IF !(ExtData[1]->WorkLocal[13] == 0*) GOTO 0x089C
 50: 0x0136 [0x02] IF !(Work_Zone[9] == 0*) GOTO 0x0208
 51: 0x013E [0x5B] LOAD_EXT_SCHEDULER: Load scheduler "tlk1" with entities [EventEntity, EventEntity], work=65*
 52: 0x014D [0x1D] PRINT_EVENT_MESSAGE(message_id=8724*)
    → "(Psst, you. Yeah, you! You look like a [guy/gal] who can't get enough crests and seals. Am I right?)"
 53: 0x0150 [0x23] WAIT_FOR_DIALOG_INTERACTION
 54: 0x0151 [0x5B] LOAD_EXT_SCHEDULER: Load scheduler "tlk1" with entities [EventEntity, EventEntity], work=65*
 55: 0x0160 [0x24] CREATE_DIALOG(message_id=8725*, default_option=0*, option_flags=0*)
    → "Crests and seals? [Gimme more more more!/I've got enough.]"
 56: 0x0167 [0x25] WAIT_DIALOG_SELECT()
 57: 0x0168 [0x02] IF !(Work_Zone[0] == 0*) GOTO 0x0186
 58: 0x0170 [0x5B] LOAD_EXT_SCHEDULER: Load scheduler "tlk1" with entities [EventEntity, EventEntity], work=65*
 59: 0x017F [0x1D] PRINT_EVENT_MESSAGE(message_id=8726*)
    → "That's what I'm talkin' about! Now listen up, 'cause have I ever got a deal for you."
 60: 0x0182 [0x23] WAIT_FOR_DIALOG_INTERACTION
 61: 0x0183 [0x01] GOTO 0x01A4
 62: 0x0186 [0x02] IF !(Work_Zone[0] == 1*) GOTO 0x01A4
 63: 0x018E [0x5B] LOAD_EXT_SCHEDULER: Load scheduler "tlk1" with entities [EventEntity, EventEntity], work=65*
 64: 0x019D [0x1D] PRINT_EVENT_MESSAGE(message_id=8727*)
    → "Now that's what I'm talkin' ab...hm? Whaddaya mean you've got enough? Way to ruin my sales pitch, [buddy/lady]. Just be quiet and listen, will ya?"
 65: 0x01A0 [0x23] WAIT_FOR_DIALOG_INTERACTION
 66: 0x01A1 [0x01] GOTO 0x01A4

SUBROUTINE_01A4:
 67: 0x01A4 [0x5B] LOAD_EXT_SCHEDULER: Load scheduler "tlk1" with entities [EventEntity, EventEntity], work=65*
 68: 0x01B3 [0x1D] PRINT_EVENT_MESSAGE(message_id=8728*)
    → "You can call me Shemo. I'm Shami's brother. (And just between you and me, I'm the brains behind this operation.)"
 69: 0x01B6 [0x23] WAIT_FOR_DIALOG_INTERACTION
 70: 0x01B7 [0x5B] LOAD_EXT_SCHEDULER: Load scheduler "tlk1" with entities [EventEntity, EventEntity], work=65*
 71: 0x01C6 [0x02] IF !(ExtData[1]->WorkLocal[18] == 0*) GOTO 0x01D6
 72: 0x01CE [0x03] Work_Zone[6] = 3*
 73: 0x01D3 [0x01] GOTO 0x01DB
 74: 0x01D6 [0x03] Work_Zone[6] = 2*

SUBROUTINE_01DB:
 75: 0x01DB [0x1D] PRINT_EVENT_MESSAGE(message_id=8729*)
    → "Here's the deal. Is my big bro holdin' onto any old crests or seals that ya don't need? Well, I can offer you one shiny new seal--any seal--of your choice for $4 of yours."
 76: 0x01DE [0x23] WAIT_FOR_DIALOG_INTERACTION
 77: 0x01DF [0x5B] LOAD_EXT_SCHEDULER: Load scheduler "tlk1" with entities [EventEntity, EventEntity], work=65*
 78: 0x01EE [0x1D] PRINT_EVENT_MESSAGE(message_id=8730*)
    → "Whaddaya think of that?"
 79: 0x01F1 [0x23] WAIT_FOR_DIALOG_INTERACTION
 80: 0x01F2 [0x5B] LOAD_EXT_SCHEDULER: Load scheduler "tlk1" with entities [EventEntity, EventEntity], work=65*
 81: 0x0201 [0x1D] PRINT_EVENT_MESSAGE(message_id=8731*)
    → "Hm? Why three, ya ask? Hey, a trader's gotta turn a profit somehow, right?"
 82: 0x0204 [0x23] WAIT_FOR_DIALOG_INTERACTION
 83: 0x0205 [0x01] GOTO 0x021B
 84: 0x0208 [0x5B] LOAD_EXT_SCHEDULER: Load scheduler "tlk1" with entities [EventEntity, EventEntity], work=65*
 85: 0x0217 [0x1D] PRINT_EVENT_MESSAGE(message_id=8732*)
    → "So, how you doin' on seals and crests these days? If you want to make a trade, Shemo's got ya covered. Just say the word."
 86: 0x021A [0x23] WAIT_FOR_DIALOG_INTERACTION

SUBROUTINE_021B:
 87: 0x021B [0x24] CREATE_DIALOG(message_id=8733*, default_option=1*, option_flags=0*)
    → "Make a trade? [Let's do it./Not today./Wait, how does this work?]"
 88: 0x0222 [0x25] WAIT_DIALOG_SELECT()
 89: 0x0223 [0x02] IF !(Work_Zone[0] == 0*) GOTO 0x086E
 90: 0x022B [0x02] IF !(ExtData[1]->WorkLocal[20] == 62*) GOTO 0x0861
 91: 0x0233 [0x03] ExtData[1]->WorkLocal[0] = 0*
 92: 0x0238 [0x03] ExtData[1]->WorkLocal[1] = 0*
 93: 0x023D [0x02] IF !(ExtData[1]->WorkLocal[18] == 0*) GOTO 0x0293
 94: 0x0245 [0x02] IF !(ExtData[1]->WorkLocal[5] >= 3*) GOTO 0x0254
 95: 0x024D [0x3C] SET_BIT_FLAG_CONDITIONAL(target_work_offset=ExtData[1]->WorkLocal[0], bit_index_work_offset=1*, condition_work_offset=1*)
 96: 0x0254 [0x02] IF !(ExtData[1]->WorkLocal[6] >= 3*) GOTO 0x0263
 97: 0x025C [0x3C] SET_BIT_FLAG_CONDITIONAL(target_work_offset=ExtData[1]->WorkLocal[0], bit_index_work_offset=2*, condition_work_offset=1*)
 98: 0x0263 [0x02] IF !(ExtData[1]->WorkLocal[7] >= 3*) GOTO 0x0272
 99: 0x026B [0x3C] SET_BIT_FLAG_CONDITIONAL(target_work_offset=ExtData[1]->WorkLocal[0], bit_index_work_offset=3*, condition_work_offset=1*)
100: 0x0272 [0x02] IF !(ExtData[1]->WorkLocal[8] >= 3*) GOTO 0x0281
101: 0x027A [0x3C] SET_BIT_FLAG_CONDITIONAL(target_work_offset=ExtData[1]->WorkLocal[0], bit_index_work_offset=4*, condition_work_offset=1*)
102: 0x0281 [0x02] IF !(ExtData[1]->WorkLocal[9] >= 3*) GOTO 0x0290
103: 0x0289 [0x3C] SET_BIT_FLAG_CONDITIONAL(target_work_offset=ExtData[1]->WorkLocal[0], bit_index_work_offset=5*, condition_work_offset=1*)
104: 0x0290 [0x01] GOTO 0x02DE
105: 0x0293 [0x02] IF !(ExtData[1]->WorkLocal[5] >= 2*) GOTO 0x02A2
106: 0x029B [0x3C] SET_BIT_FLAG_CONDITIONAL(target_work_offset=ExtData[1]->WorkLocal[0], bit_index_work_offset=1*, condition_work_offset=1*)
107: 0x02A2 [0x02] IF !(ExtData[1]->WorkLocal[6] >= 2*) GOTO 0x02B1
108: 0x02AA [0x3C] SET_BIT_FLAG_CONDITIONAL(target_work_offset=ExtData[1]->WorkLocal[0], bit_index_work_offset=2*, condition_work_offset=1*)
109: 0x02B1 [0x02] IF !(ExtData[1]->WorkLocal[7] >= 2*) GOTO 0x02C0
110: 0x02B9 [0x3C] SET_BIT_FLAG_CONDITIONAL(target_work_offset=ExtData[1]->WorkLocal[0], bit_index_work_offset=3*, condition_work_offset=1*)
111: 0x02C0 [0x02] IF !(ExtData[1]->WorkLocal[8] >= 2*) GOTO 0x02CF
112: 0x02C8 [0x3C] SET_BIT_FLAG_CONDITIONAL(target_work_offset=ExtData[1]->WorkLocal[0], bit_index_work_offset=4*, condition_work_offset=1*)
113: 0x02CF [0x02] IF !(ExtData[1]->WorkLocal[9] >= 2*) GOTO 0x02DE
114: 0x02D7 [0x3C] SET_BIT_FLAG_CONDITIONAL(target_work_offset=ExtData[1]->WorkLocal[0], bit_index_work_offset=5*, condition_work_offset=1*)

SUBROUTINE_02DE:
115: 0x02DE [0x1D] PRINT_EVENT_MESSAGE(message_id=8735*)
    → "That's what I'm talkin' about! I knew you had an eye for business. So what seals are ya lookin' to get rid of today?"
116: 0x02E1 [0x23] WAIT_FOR_DIALOG_INTERACTION
117: 0x02E2 [0x03] Work_Zone[2] = 1126*
118: 0x02E7 [0x03] Work_Zone[3] = 1127*
119: 0x02EC [0x03] Work_Zone[4] = 2955*
120: 0x02F1 [0x03] Work_Zone[5] = 2956*
121: 0x02F6 [0x03] Work_Zone[6] = 2957*
122: 0x02FB [0x03] Work_Zone_1700[2] = ExtData[1]->WorkLocal[5]
123: 0x0300 [0x03] Work_Zone_1700[3] = ExtData[1]->WorkLocal[6]
124: 0x0305 [0x03] Work_Zone_1700[4] = ExtData[1]->WorkLocal[7]
125: 0x030A [0x03] Work_Zone_1700[5] = ExtData[1]->WorkLocal[8]
126: 0x030F [0x03] Work_Zone_1700[6] = ExtData[1]->WorkLocal[9]
127: 0x0314 [0x02] IF !(ExtData[1]->WorkLocal[21] == 4*) GOTO 0x037B
128: 0x031C [0x03] ExtData[1]->WorkLocal[19] = ExtData[1]->WorkLocal[20]
129: 0x0321 [0x0F] ExtData[1]->WorkLocal[19] ^= 62*
130: 0x0326 [0x3E] IF !(ExtData[1]->WorkLocal[19] bit 1*) GOTO 0x0337
131: 0x032D [0x3C] SET_BIT_FLAG_CONDITIONAL(target_work_offset=ExtData[1]->WorkLocal[0], bit_index_work_offset=1*, condition_work_offset=1*)
132: 0x0334 [0x01] GOTO 0x037B
133: 0x0337 [0x3E] IF !(ExtData[1]->WorkLocal[19] bit 2*) GOTO 0x0348
134: 0x033E [0x3C] SET_BIT_FLAG_CONDITIONAL(target_work_offset=ExtData[1]->WorkLocal[0], bit_index_work_offset=2*, condition_work_offset=1*)
135: 0x0345 [0x01] GOTO 0x037B
136: 0x0348 [0x3E] IF !(ExtData[1]->WorkLocal[19] bit 3*) GOTO 0x0359
137: 0x034F [0x3C] SET_BIT_FLAG_CONDITIONAL(target_work_offset=ExtData[1]->WorkLocal[0], bit_index_work_offset=3*, condition_work_offset=1*)
138: 0x0356 [0x01] GOTO 0x037B
139: 0x0359 [0x3E] IF !(ExtData[1]->WorkLocal[19] bit 4*) GOTO 0x036A
140: 0x0360 [0x3C] SET_BIT_FLAG_CONDITIONAL(target_work_offset=ExtData[1]->WorkLocal[0], bit_index_work_offset=4*, condition_work_offset=1*)
141: 0x0367 [0x01] GOTO 0x037B
142: 0x036A [0x3E] IF !(ExtData[1]->WorkLocal[19] bit 5*) GOTO 0x037B
143: 0x0371 [0x3C] SET_BIT_FLAG_CONDITIONAL(target_work_offset=ExtData[1]->WorkLocal[0], bit_index_work_offset=5*, condition_work_offset=1*)
144: 0x0378 [0x01] GOTO 0x037B

SUBROUTINE_037B:
145: 0x037B [0x03] ExtData[1]->WorkLocal[1] = ExtData[1]->WorkLocal[20]
146: 0x0380 [0x24] CREATE_DIALOG(message_id=8736*, default_option=0*, option_flags=ExtData[1]->WorkLocal[0])
    → "Trade away which seals? [None./% (You have $10)./$1 (You have $11)./$2 (You have $12)./$3 (You have $13)./$4 (You have $14).]"
147: 0x0387 [0x25] WAIT_DIALOG_SELECT()
148: 0x0388 [0x02] IF !(Work_Zone[0] == 0*) GOTO 0x03A5
149: 0x0390 [0x1D] PRINT_EVENT_MESSAGE(message_id=8734*)
    → "Hmph. And here I thought you were a [guy/gal] who knew a good deal when ya saw one. Fine, we didn't need your business anyway."
150: 0x0393 [0x23] WAIT_FOR_DIALOG_INTERACTION
151: 0x0394 [0x1D] PRINT_EVENT_MESSAGE(message_id=8749*)
    → "By the way, I can store seals and crests for ya, too. Shami and I, we work together, y'see."
152: 0x0397 [0x23] WAIT_FOR_DIALOG_INTERACTION
153: 0x0398 [0x1D] PRINT_EVENT_MESSAGE(message_id=8750*)
    → "Don't worry, I won't be skimmin' nothin' off the top. Not with a good customer like you, at least. Heh heh heh."
154: 0x039B [0x23] WAIT_FOR_DIALOG_INTERACTION
155: 0x039C [0x03] Work_Zone[1] = 0*
156: 0x03A1 [0x21] END_EVENT

SUBROUTINE_044B:
157: 0x044B [0x03] Work_Zone[2] = 1126*
158: 0x0450 [0x03] Work_Zone[3] = 1127*
159: 0x0455 [0x03] Work_Zone[4] = 2955*
160: 0x045A [0x03] Work_Zone[5] = 2956*
161: 0x045F [0x03] Work_Zone[6] = 2957*
162: 0x0464 [0x03] Work_Zone_1700[2] = ExtData[1]->WorkLocal[5]
163: 0x0469 [0x03] Work_Zone_1700[3] = ExtData[1]->WorkLocal[6]
164: 0x046E [0x03] Work_Zone_1700[4] = ExtData[1]->WorkLocal[7]
165: 0x0473 [0x03] Work_Zone_1700[5] = ExtData[1]->WorkLocal[8]
166: 0x0478 [0x03] Work_Zone_1700[6] = ExtData[1]->WorkLocal[9]
167: 0x047D [0x24] CREATE_DIALOG(message_id=8738*, default_option=0*, option_flags=ExtData[1]->WorkLocal[1])
    → "Obtain which seal(s)? [None./% (You have $10)./$1 (You have $11)./$2 (You have $12)./$3 (You have $13)./$4 (You have $14).]"
168: 0x0484 [0x25] WAIT_DIALOG_SELECT()
169: 0x0485 [0x02] IF !(Work_Zone[0] == 0*) GOTO 0x04A2
170: 0x048D [0x1D] PRINT_EVENT_MESSAGE(message_id=8734*)
    → "Hmph. And here I thought you were a [guy/gal] who knew a good deal when ya saw one. Fine, we didn't need your business anyway."
171: 0x0490 [0x23] WAIT_FOR_DIALOG_INTERACTION
172: 0x0491 [0x1D] PRINT_EVENT_MESSAGE(message_id=8749*)
    → "By the way, I can store seals and crests for ya, too. Shami and I, we work together, y'see."
173: 0x0494 [0x23] WAIT_FOR_DIALOG_INTERACTION
174: 0x0495 [0x1D] PRINT_EVENT_MESSAGE(message_id=8750*)
    → "Don't worry, I won't be skimmin' nothin' off the top. Not with a good customer like you, at least. Heh heh heh."
175: 0x0498 [0x23] WAIT_FOR_DIALOG_INTERACTION
176: 0x0499 [0x03] Work_Zone[1] = 0*
177: 0x049E [0x21] END_EVENT

SUBROUTINE_052A:
178: 0x052A [0x02] IF !(ExtData[1]->WorkLocal[4] == 1126*) GOTO 0x053F
179: 0x0532 [0x03] Work_Zone[4] = ExtData[1]->WorkLocal[5]
180: 0x0537 [0x03] ExtData[1]->WorkLocal[16] = ExtData[1]->WorkLocal[5]
181: 0x053C [0x01] GOTO 0x0593
182: 0x053F [0x02] IF !(ExtData[1]->WorkLocal[4] == 1127*) GOTO 0x0554
183: 0x0547 [0x03] Work_Zone[4] = ExtData[1]->WorkLocal[6]
184: 0x054C [0x03] ExtData[1]->WorkLocal[16] = ExtData[1]->WorkLocal[6]
185: 0x0551 [0x01] GOTO 0x0593
186: 0x0554 [0x02] IF !(ExtData[1]->WorkLocal[4] == 2955*) GOTO 0x0569
187: 0x055C [0x03] Work_Zone[4] = ExtData[1]->WorkLocal[7]
188: 0x0561 [0x03] ExtData[1]->WorkLocal[16] = ExtData[1]->WorkLocal[7]
189: 0x0566 [0x01] GOTO 0x0593
190: 0x0569 [0x02] IF !(ExtData[1]->WorkLocal[4] == 2956*) GOTO 0x057E
191: 0x0571 [0x03] Work_Zone[4] = ExtData[1]->WorkLocal[8]
192: 0x0576 [0x03] ExtData[1]->WorkLocal[16] = ExtData[1]->WorkLocal[8]
193: 0x057B [0x01] GOTO 0x0593
194: 0x057E [0x02] IF !(ExtData[1]->WorkLocal[4] == 2957*) GOTO 0x0593
195: 0x0586 [0x03] Work_Zone[4] = ExtData[1]->WorkLocal[9]
196: 0x058B [0x03] ExtData[1]->WorkLocal[16] = ExtData[1]->WorkLocal[9]
197: 0x0590 [0x01] GOTO 0x0593

SUBROUTINE_0593:
198: 0x0593 [0x03] ExtData[1]->WorkLocal[17] = 0*
199: 0x0598 [0x03] Work_Zone[2] = ExtData[1]->WorkLocal[3]
200: 0x059D [0x03] Work_Zone[3] = ExtData[1]->WorkLocal[4]
201: 0x05A2 [0x03] ExtData[1]->WorkLocal[15] = 9999*
202: 0x05A7 [0x08] ExtData[1]->WorkLocal[15] -= Work_Zone[7]
203: 0x05AC [0x03] ExtData[1]->WorkLocal[14] = ExtData[1]->WorkLocal[16]
204: 0x05B1 [0x02] IF !(ExtData[1]->WorkLocal[18] == 0*) GOTO 0x05C1
205: 0x05B9 [0x15] ExtData[1]->WorkLocal[14] /= 3*
206: 0x05BE [0x01] GOTO 0x05C6
207: 0x05C1 [0x15] ExtData[1]->WorkLocal[14] /= 2*

SUBROUTINE_05C6:
208: 0x05C6 [0x02] IF !(ExtData[1]->WorkLocal[14] <= ExtData[1]->WorkLocal[15]) GOTO 0x05D8
209: 0x05CE [0x03] ExtData[1]->WorkLocal[14] = ExtData[1]->WorkLocal[15]
210: 0x05D3 [0x03] ExtData[1]->WorkLocal[17] = 1*
211: 0x05D8 [0x03] Work_Zone[8] = ExtData[1]->WorkLocal[14]
212: 0x05DD [0x48] [System] [8739*]:
    → "You currently have a balance of $5 $0 and $2 $0$0 . Enter the number of $0 you wish to obtain: (Maximum: $6)."
213: 0x05E0 [0x23] WAIT_FOR_DIALOG_INTERACTION
214: 0x05E1 [0x71] USER_INPUT_HANDLER: Open numerical input dialog (work=1*)
215: 0x05E5 [0x71] USER_INPUT_HANDLER: Process numerical input A (work=Work_Zone[2])
216: 0x05E9 [0x02] IF !(Work_Zone[2] < 1*) GOTO 0x084C
217: 0x05F1 [0x02] IF !(Work_Zone[2] > ExtData[1]->WorkLocal[14]) GOTO 0x080B
218: 0x05F9 [0x03] ExtData[1]->WorkLocal[10] = Work_Zone[2]
219: 0x05FE [0x03] ExtData[1]->WorkLocal[11] = Work_Zone[2]
220: 0x0603 [0x02] IF !(ExtData[1]->WorkLocal[18] == 0*) GOTO 0x0613
221: 0x060B [0x14] ExtData[1]->WorkLocal[11] *= 3*
222: 0x0610 [0x01] GOTO 0x0618
223: 0x0613 [0x14] ExtData[1]->WorkLocal[11] *= 2*

SUBROUTINE_0618:
224: 0x0618 [0x03] Work_Zone[2] = ExtData[1]->WorkLocal[4]
225: 0x061D [0x03] Work_Zone[3] = ExtData[1]->WorkLocal[3]
226: 0x0622 [0x03] Work_Zone[4] = ExtData[1]->WorkLocal[11]
227: 0x0627 [0x03] Work_Zone_1700[2] = ExtData[1]->WorkLocal[10]
228: 0x062C [0x3C] SET_BIT_FLAG_CONDITIONAL(target_work_offset=ExtData[1]->WorkLocal[2], bit_index_work_offset=2*, condition_work_offset=1*)
229: 0x0633 [0x1D] PRINT_EVENT_MESSAGE(message_id=8740*)
    → "I'll be takin' $2 $0 off your hands to give as many $1 as ya asked for. We still have a deal?"
230: 0x0636 [0x23] WAIT_FOR_DIALOG_INTERACTION
231: 0x0637 [0x24] CREATE_DIALOG(message_id=8733*, default_option=1*, option_flags=ExtData[1]->WorkLocal[2])
    → "Make a trade? [Let's do it./Not today./Wait, how does this work?]"
232: 0x063E [0x25] WAIT_DIALOG_SELECT()
233: 0x063F [0x02] IF !(Work_Zone[0] == 0*) GOTO 0x07EB
234: 0x0647 [0x42] SET_CLI_EVENT_CANCEL_DATA()
235: 0x0648 [0x1D] PRINT_EVENT_MESSAGE(message_id=8741*)
    → "That's what I'm sayin'! Another suck--ahem. Another satisfied customer!"
236: 0x064B [0x23] WAIT_FOR_DIALOG_INTERACTION
237: 0x064C [0x02] IF !(ExtData[1]->WorkLocal[3] == 1126*) GOTO 0x065C
238: 0x0654 [0x03] ExtData[1]->WorkLocal[12] = ExtData[1]->WorkLocal[5]
239: 0x0659 [0x01] GOTO 0x069C
240: 0x065C [0x02] IF !(ExtData[1]->WorkLocal[3] == 1127*) GOTO 0x066C
241: 0x0664 [0x03] ExtData[1]->WorkLocal[12] = ExtData[1]->WorkLocal[6]
242: 0x0669 [0x01] GOTO 0x069C
243: 0x066C [0x02] IF !(ExtData[1]->WorkLocal[3] == 2955*) GOTO 0x067C
244: 0x0674 [0x03] ExtData[1]->WorkLocal[12] = ExtData[1]->WorkLocal[7]
245: 0x0679 [0x01] GOTO 0x069C
246: 0x067C [0x02] IF !(ExtData[1]->WorkLocal[3] == 2956*) GOTO 0x068C
247: 0x0684 [0x03] ExtData[1]->WorkLocal[12] = ExtData[1]->WorkLocal[8]
248: 0x0689 [0x01] GOTO 0x069C
249: 0x068C [0x02] IF !(ExtData[1]->WorkLocal[3] == 2957*) GOTO 0x069C
250: 0x0694 [0x03] ExtData[1]->WorkLocal[12] = ExtData[1]->WorkLocal[9]
251: 0x0699 [0x01] GOTO 0x069C

SUBROUTINE_069C:
252: 0x069C [0x03] Work_Zone[4] = ExtData[1]->WorkLocal[3]
253: 0x06A1 [0x07] ExtData[1]->WorkLocal[12] += ExtData[1]->WorkLocal[10]
254: 0x06A6 [0x03] Work_Zone[5] = ExtData[1]->WorkLocal[12]
255: 0x06AB [0x02] IF !(ExtData[1]->WorkLocal[4] == 1126*) GOTO 0x06BB
256: 0x06B3 [0x03] ExtData[1]->WorkLocal[12] = ExtData[1]->WorkLocal[5]
257: 0x06B8 [0x01] GOTO 0x06FB
258: 0x06BB [0x02] IF !(ExtData[1]->WorkLocal[4] == 1127*) GOTO 0x06CB
259: 0x06C3 [0x03] ExtData[1]->WorkLocal[12] = ExtData[1]->WorkLocal[6]
260: 0x06C8 [0x01] GOTO 0x06FB
261: 0x06CB [0x02] IF !(ExtData[1]->WorkLocal[4] == 2955*) GOTO 0x06DB
262: 0x06D3 [0x03] ExtData[1]->WorkLocal[12] = ExtData[1]->WorkLocal[7]
263: 0x06D8 [0x01] GOTO 0x06FB
264: 0x06DB [0x02] IF !(ExtData[1]->WorkLocal[4] == 2956*) GOTO 0x06EB
265: 0x06E3 [0x03] ExtData[1]->WorkLocal[12] = ExtData[1]->WorkLocal[8]
266: 0x06E8 [0x01] GOTO 0x06FB
267: 0x06EB [0x02] IF !(ExtData[1]->WorkLocal[4] == 2957*) GOTO 0x06FB
268: 0x06F3 [0x03] ExtData[1]->WorkLocal[12] = ExtData[1]->WorkLocal[9]
269: 0x06F8 [0x01] GOTO 0x06FB

SUBROUTINE_06FB:
270: 0x06FB [0x03] Work_Zone[2] = ExtData[1]->WorkLocal[4]
271: 0x0700 [0x08] ExtData[1]->WorkLocal[12] -= ExtData[1]->WorkLocal[11]
272: 0x0705 [0x03] Work_Zone[3] = ExtData[1]->WorkLocal[12]
273: 0x070A [0x1D] PRINT_EVENT_MESSAGE(message_id=8742*)
    → "That brings your total balance to $1 $0 and $3 $0 . How do ya like that!?"
274: 0x070D [0x23] WAIT_FOR_DIALOG_INTERACTION
275: 0x070E [0x1D] PRINT_EVENT_MESSAGE(message_id=8749*)
    → "By the way, I can store seals and crests for ya, too. Shami and I, we work together, y'see."
276: 0x0711 [0x23] WAIT_FOR_DIALOG_INTERACTION
277: 0x0712 [0x1D] PRINT_EVENT_MESSAGE(message_id=8750*)
    → "Don't worry, I won't be skimmin' nothin' off the top. Not with a good customer like you, at least. Heh heh heh."
278: 0x0715 [0x23] WAIT_FOR_DIALOG_INTERACTION
279: 0x0716 [0x02] IF !(ExtData[1]->WorkLocal[3] == 1126*) GOTO 0x072A
280: 0x071E [0x40] SET_BIT_WORK_RANGE(start_bit=0*, end_bit=3*, target=Work_Zone[1], source=1*)
281: 0x0727 [0x01] GOTO 0x077A
282: 0x072A [0x02] IF !(ExtData[1]->WorkLocal[3] == 1127*) GOTO 0x073E
283: 0x0732 [0x40] SET_BIT_WORK_RANGE(start_bit=0*, end_bit=3*, target=Work_Zone[1], source=2*)
284: 0x073B [0x01] GOTO 0x077A
285: 0x073E [0x02] IF !(ExtData[1]->WorkLocal[3] == 2955*) GOTO 0x0752
286: 0x0746 [0x40] SET_BIT_WORK_RANGE(start_bit=0*, end_bit=3*, target=Work_Zone[1], source=3*)
287: 0x074F [0x01] GOTO 0x077A
288: 0x0752 [0x02] IF !(ExtData[1]->WorkLocal[3] == 2956*) GOTO 0x0766
289: 0x075A [0x40] SET_BIT_WORK_RANGE(start_bit=0*, end_bit=3*, target=Work_Zone[1], source=4*)
290: 0x0763 [0x01] GOTO 0x077A
291: 0x0766 [0x02] IF !(ExtData[1]->WorkLocal[3] == 2957*) GOTO 0x077A
292: 0x076E [0x40] SET_BIT_WORK_RANGE(start_bit=0*, end_bit=3*, target=Work_Zone[1], source=5*)
293: 0x0777 [0x01] GOTO 0x077A

SUBROUTINE_077A:
294: 0x077A [0x02] IF !(ExtData[1]->WorkLocal[4] == 1126*) GOTO 0x078E
295: 0x0782 [0x40] SET_BIT_WORK_RANGE(start_bit=4*, end_bit=7*, target=Work_Zone[1], source=1*)
296: 0x078B [0x01] GOTO 0x07DE
297: 0x078E [0x02] IF !(ExtData[1]->WorkLocal[4] == 1127*) GOTO 0x07A2
298: 0x0796 [0x40] SET_BIT_WORK_RANGE(start_bit=4*, end_bit=7*, target=Work_Zone[1], source=2*)
299: 0x079F [0x01] GOTO 0x07DE
300: 0x07A2 [0x02] IF !(ExtData[1]->WorkLocal[4] == 2955*) GOTO 0x07B6
301: 0x07AA [0x40] SET_BIT_WORK_RANGE(start_bit=4*, end_bit=7*, target=Work_Zone[1], source=3*)
302: 0x07B3 [0x01] GOTO 0x07DE
303: 0x07B6 [0x02] IF !(ExtData[1]->WorkLocal[4] == 2956*) GOTO 0x07CA
304: 0x07BE [0x40] SET_BIT_WORK_RANGE(start_bit=4*, end_bit=7*, target=Work_Zone[1], source=4*)
305: 0x07C7 [0x01] GOTO 0x07DE
306: 0x07CA [0x02] IF !(ExtData[1]->WorkLocal[4] == 2957*) GOTO 0x07DE
307: 0x07D2 [0x40] SET_BIT_WORK_RANGE(start_bit=4*, end_bit=7*, target=Work_Zone[1], source=5*)
308: 0x07DB [0x01] GOTO 0x07DE

SUBROUTINE_07DE:
309: 0x07DE [0x40] SET_BIT_WORK_RANGE(start_bit=8*, end_bit=24*, target=Work_Zone[1], source=ExtData[1]->WorkLocal[10])
310: 0x07E7 [0x21] END_EVENT

SUBROUTINE_0808:
311: 0x0808 [0x01] GOTO 0x0849
312: 0x080B [0x02] IF !(ExtData[1]->WorkLocal[17] == 0*) GOTO 0x082A
313: 0x0813 [0x03] Work_Zone[2] = ExtData[1]->WorkLocal[4]
314: 0x0818 [0x03] Work_Zone[3] = ExtData[1]->WorkLocal[16]
315: 0x081D [0x1D] PRINT_EVENT_MESSAGE(message_id=8753*)
    → "Hey, you tryin' to pull a fast one on me? You've only got $1 $0 ."
316: 0x0820 [0x23] WAIT_FOR_DIALOG_INTERACTION
317: 0x0821 [0x03] Work_Zone[1] = 0*
318: 0x0826 [0x21] END_EVENT

SUBROUTINE_0849:
319: 0x0849 [0x01] GOTO 0x085E
320: 0x084C [0x1D] PRINT_EVENT_MESSAGE(message_id=8734*)
    → "Hmph. And here I thought you were a [guy/gal] who knew a good deal when ya saw one. Fine, we didn't need your business anyway."
321: 0x084F [0x23] WAIT_FOR_DIALOG_INTERACTION
322: 0x0850 [0x1D] PRINT_EVENT_MESSAGE(message_id=8749*)
    → "By the way, I can store seals and crests for ya, too. Shami and I, we work together, y'see."
323: 0x0853 [0x23] WAIT_FOR_DIALOG_INTERACTION
324: 0x0854 [0x1D] PRINT_EVENT_MESSAGE(message_id=8750*)
    → "Don't worry, I won't be skimmin' nothin' off the top. Not with a good customer like you, at least. Heh heh heh."
325: 0x0857 [0x23] WAIT_FOR_DIALOG_INTERACTION
326: 0x0858 [0x03] Work_Zone[1] = 0*
327: 0x085D [0x21] END_EVENT

SUBROUTINE_085E:
328: 0x085E [0x01] GOTO 0x086B
329: 0x0861 [0x1D] PRINT_EVENT_MESSAGE(message_id=8751*)
    → "Whoa there, now! Our Gobbiebags can't hold every seal in the realm, ya know. You're gonna have to make a trade or purchase before ya give us any more."
330: 0x0864 [0x23] WAIT_FOR_DIALOG_INTERACTION
331: 0x0865 [0x03] Work_Zone[1] = 0*
332: 0x086A [0x21] END_EVENT

SUBROUTINE_086B:
333: 0x086B [0x01] GOTO 0x0899
334: 0x086E [0x02] IF !(Work_Zone[0] == 1*) GOTO 0x088B
335: 0x0876 [0x1D] PRINT_EVENT_MESSAGE(message_id=8734*)
    → "Hmph. And here I thought you were a [guy/gal] who knew a good deal when ya saw one. Fine, we didn't need your business anyway."
336: 0x0879 [0x23] WAIT_FOR_DIALOG_INTERACTION
337: 0x087A [0x1D] PRINT_EVENT_MESSAGE(message_id=8749*)
    → "By the way, I can store seals and crests for ya, too. Shami and I, we work together, y'see."
338: 0x087D [0x23] WAIT_FOR_DIALOG_INTERACTION
339: 0x087E [0x1D] PRINT_EVENT_MESSAGE(message_id=8750*)
    → "Don't worry, I won't be skimmin' nothin' off the top. Not with a good customer like you, at least. Heh heh heh."
340: 0x0881 [0x23] WAIT_FOR_DIALOG_INTERACTION
341: 0x0882 [0x03] Work_Zone[1] = 0*
342: 0x0887 [0x21] END_EVENT

SUBROUTINE_0899:
343: 0x0899 [0x01] GOTO 0x08A6
344: 0x089C [0x1D] PRINT_EVENT_MESSAGE(message_id=8752*)
    → "(Psst! You're an adventurer, aren't ya? If you've got any beastmen's seals, Kindred's crests, or what-have-ya, you'll want to trade 'em to me or my brother here. Trust me. We'll make it worth your while.)"
345: 0x089F [0x23] WAIT_FOR_DIALOG_INTERACTION
346: 0x08A0 [0x03] Work_Zone[1] = 0*
347: 0x08A5 [0x21] END_EVENT

SUBROUTINE_08A6:
348: 0x08A6 [0x21] END_EVENT
349: 0x08A7 [0x00] END_REQSTACK()
```

#### Data or dead code:

```
# Dead code (unreachable instructions):
     0x03A2 [0x01] GOTO 0x044B
# Dead code (unreachable instructions):
     0x049F [0x01] GOTO 0x052A
# Dead code (unreachable instructions):
     0x07E8 [0x01] GOTO 0x0808
     0x0805 [0x01] GOTO 0x0808
# Dead code (unreachable instructions):
     0x0827 [0x01] GOTO 0x0849
     0x083C [0x01] GOTO 0x0849
# Dead code (unreachable instructions):
     0x0888 [0x01] GOTO 0x0899
     0x0896 [0x01] GOTO 0x0899
```

### Event 353

#### Metadata

| Field        | Value     |
|--------------|-----------|
| Entrypoint   | 0x08A8    |
| Data Size    | 419 bytes |
| Instructions | 82        |

```
      00 01 02 03 04 05 06 07  08 09 0A 0B 0C 0D 0E 0F
      -- -- -- -- -- -- -- --  -- -- -- -- -- -- -- --
08A0:                          42 1E F0 FF FF 7F 42 1E          B.....B.
08B0: F0 FF FF 7F 06 16 00 06  17 00 41 02 80 03 80 02  ..........A.....
08C0: 10 05 00 02 05 00 00 80  01 E3 08 0B 16 00 3C 17  ..............<.
08D0: 00 00 80 04 80 03 18 00  17 80 41 02 80 03 80 02  ..........A.....
08E0: 10 19 00 41 02 80 03 80  03 10 06 00 02 06 00 00  ...A............
08F0: 80 01 0C 09 0B 16 00 3C  17 00 04 80 04 80 03 18  .......<........
0900: 00 18 80 41 02 80 03 80  03 10 19 00 41 02 80 03  ...A........A...
0910: 80 04 10 07 00 02 07 00  00 80 01 35 09 0B 16 00  ...........5....
0920: 3C 17 00 06 80 04 80 03  18 00 19 80 41 02 80 03  <...........A...
0930: 80 04 10 19 00 41 02 80  03 80 05 10 08 00 02 08  .....A..........
0940: 00 00 80 01 5E 09 0B 16  00 3C 17 00 05 80 04 80  ....^....<......
0950: 03 18 00 1A 80 41 02 80  03 80 05 10 19 00 41 02  .....A........A.
0960: 80 03 80 06 10 09 00 02  09 00 00 80 01 87 09 0B  ................
0970: 16 00 3C 17 00 08 80 04  80 03 18 00 1B 80 41 02  ..<...........A.
0980: 80 03 80 06 10 19 00 02  16 00 04 80 00 A4 09 03  ................
0990: 02 10 18 00 03 03 10 19  00 1D 2C 80 23 1D 2D 80  ..........,.#.-.
09A0: 23 01 49 0A 02 16 00 04  80 02 49 0A 1D 2E 80 23  #.I.......I....#
09B0: 1D 2F 80 23 03 1A 00 00  80 02 1A 00 09 80 03 45  ./.#...........E
09C0: 0A 3E 17 00 1A 00 3F 0A  02 1A 00 00 80 80 DD 09  .>....?.........
09D0: 03 02 10 17 80 03 03 10  05 00 01 3B 0A 02 1A 00  ...........;....
09E0: 04 80 80 F2 09 03 02 10  18 80 03 03 10 06 00 01  ................
09F0: 3B 0A 02 1A 00 06 80 80  07 0A 03 02 10 19 80 03  ;...............
0A00: 03 10 07 00 01 3B 0A 02  1A 00 05 80 80 1C 0A 03  .....;..........
0A10: 02 10 1A 80 03 03 10 08  00 01 3B 0A 02 1A 00 08  ..........;.....
0A20: 80 80 31 0A 03 02 10 1B  80 03 03 10 09 00 01 3B  ..1............;
0A30: 0A 03 02 10 04 80 03 03  10 30 80 1D 31 80 23 0B  .........0..1.#.
0A40: 1A 00 01 B9 09 1D 32 80  23 21 00                 ......2.#!.     
```

#### Opcodes

```
  0: 0x08A8 [0x42] SET_CLI_EVENT_CANCEL_DATA()
  1: 0x08A9 [0x1E] EventEntity looks at LocalPlayer and starts talking
  2: 0x08AE [0x42] SET_CLI_EVENT_CANCEL_DATA()
  3: 0x08AF [0x1E] EventEntity looks at LocalPlayer and starts talking
  4: 0x08B4 [0x06] ExtData[1]->WorkLocal[22] = 0
  5: 0x08B7 [0x06] ExtData[1]->WorkLocal[23] = 0
  6: 0x08BA [0x41] ExtData[1]->WorkLocal[5] = Work_Zone[2] (bits 16*-31*)
  7: 0x08C3 [0x02] IF !(ExtData[1]->WorkLocal[5] == 0*) GOTO 0x08E3
  8: 0x08CB [0x0B] ExtData[1]->WorkLocal[22]++
  9: 0x08CE [0x3C] SET_BIT_FLAG_CONDITIONAL(target_work_offset=ExtData[1]->WorkLocal[23], bit_index_work_offset=0*, condition_work_offset=1*)
 10: 0x08D5 [0x03] ExtData[1]->WorkLocal[24] = 1126*
 11: 0x08DA [0x41] ExtData[1]->WorkLocal[25] = Work_Zone[2] (bits 16*-31*)
 12: 0x08E3 [0x41] ExtData[1]->WorkLocal[6] = Work_Zone[3] (bits 16*-31*)
 13: 0x08EC [0x02] IF !(ExtData[1]->WorkLocal[6] == 0*) GOTO 0x090C
 14: 0x08F4 [0x0B] ExtData[1]->WorkLocal[22]++
 15: 0x08F7 [0x3C] SET_BIT_FLAG_CONDITIONAL(target_work_offset=ExtData[1]->WorkLocal[23], bit_index_work_offset=1*, condition_work_offset=1*)
 16: 0x08FE [0x03] ExtData[1]->WorkLocal[24] = 1127*
 17: 0x0903 [0x41] ExtData[1]->WorkLocal[25] = Work_Zone[3] (bits 16*-31*)
 18: 0x090C [0x41] ExtData[1]->WorkLocal[7] = Work_Zone[4] (bits 16*-31*)
 19: 0x0915 [0x02] IF !(ExtData[1]->WorkLocal[7] == 0*) GOTO 0x0935
 20: 0x091D [0x0B] ExtData[1]->WorkLocal[22]++
 21: 0x0920 [0x3C] SET_BIT_FLAG_CONDITIONAL(target_work_offset=ExtData[1]->WorkLocal[23], bit_index_work_offset=2*, condition_work_offset=1*)
 22: 0x0927 [0x03] ExtData[1]->WorkLocal[24] = 2955*
 23: 0x092C [0x41] ExtData[1]->WorkLocal[25] = Work_Zone[4] (bits 16*-31*)
 24: 0x0935 [0x41] ExtData[1]->WorkLocal[8] = Work_Zone[5] (bits 16*-31*)
 25: 0x093E [0x02] IF !(ExtData[1]->WorkLocal[8] == 0*) GOTO 0x095E
 26: 0x0946 [0x0B] ExtData[1]->WorkLocal[22]++
 27: 0x0949 [0x3C] SET_BIT_FLAG_CONDITIONAL(target_work_offset=ExtData[1]->WorkLocal[23], bit_index_work_offset=3*, condition_work_offset=1*)
 28: 0x0950 [0x03] ExtData[1]->WorkLocal[24] = 2956*
 29: 0x0955 [0x41] ExtData[1]->WorkLocal[25] = Work_Zone[5] (bits 16*-31*)
 30: 0x095E [0x41] ExtData[1]->WorkLocal[9] = Work_Zone[6] (bits 16*-31*)
 31: 0x0967 [0x02] IF !(ExtData[1]->WorkLocal[9] == 0*) GOTO 0x0987
 32: 0x096F [0x0B] ExtData[1]->WorkLocal[22]++
 33: 0x0972 [0x3C] SET_BIT_FLAG_CONDITIONAL(target_work_offset=ExtData[1]->WorkLocal[23], bit_index_work_offset=4*, condition_work_offset=1*)
 34: 0x0979 [0x03] ExtData[1]->WorkLocal[24] = 2957*
 35: 0x097E [0x41] ExtData[1]->WorkLocal[25] = Work_Zone[6] (bits 16*-31*)
 36: 0x0987 [0x02] IF !(ExtData[1]->WorkLocal[22] == 1*) GOTO 0x09A4
 37: 0x098F [0x03] Work_Zone[2] = ExtData[1]->WorkLocal[24]
 38: 0x0994 [0x03] Work_Zone[3] = ExtData[1]->WorkLocal[25]
 39: 0x0999 [0x1D] PRINT_EVENT_MESSAGE(message_id=8743*)
    → "What's that? $0? Yeah, I can hold onto those for ya."
 40: 0x099C [0x23] WAIT_FOR_DIALOG_INTERACTION
 41: 0x099D [0x1D] PRINT_EVENT_MESSAGE(message_id=8744*)
    → "That brings your total balance of $0 to $1. If you're lookin' to make a trade, just talk to your buddy Shemo here."
 42: 0x09A0 [0x23] WAIT_FOR_DIALOG_INTERACTION
 43: 0x09A1 [0x01] GOTO 0x0A49
 44: 0x09A4 [0x02] IF !(ExtData[1]->WorkLocal[22] <= 1*) GOTO 0x0A49
 45: 0x09AC [0x1D] PRINT_EVENT_MESSAGE(message_id=8745*)
    → "Got a bunch of 'em, do ya? Lemme have a look-see."
 46: 0x09AF [0x23] WAIT_FOR_DIALOG_INTERACTION
 47: 0x09B0 [0x1D] PRINT_EVENT_MESSAGE(message_id=8746*)
    → "Shami's holding a total of..."
 48: 0x09B3 [0x23] WAIT_FOR_DIALOG_INTERACTION
 49: 0x09B4 [0x03] ExtData[1]->WorkLocal[26] = 0*

SUBROUTINE_09B9:
 50: 0x09B9 [0x02] IF !(ExtData[1]->WorkLocal[26] >= 5*) GOTO 0x0A45
 51: 0x09C1 [0x3E] IF !(ExtData[1]->WorkLocal[23] bit ExtData[1]->WorkLocal[26]) GOTO 0x0A3F
 52: 0x09C8 [0x02] IF !(ExtData[1]->WorkLocal[26] == 0*) GOTO 0x09DD
 53: 0x09D0 [0x03] Work_Zone[2] = 1126*
 54: 0x09D5 [0x03] Work_Zone[3] = ExtData[1]->WorkLocal[5]
 55: 0x09DA [0x01] GOTO 0x0A3B
 56: 0x09DD [0x02] IF !(ExtData[1]->WorkLocal[26] == 1*) GOTO 0x09F2
 57: 0x09E5 [0x03] Work_Zone[2] = 1127*
 58: 0x09EA [0x03] Work_Zone[3] = ExtData[1]->WorkLocal[6]
 59: 0x09EF [0x01] GOTO 0x0A3B
 60: 0x09F2 [0x02] IF !(ExtData[1]->WorkLocal[26] == 2*) GOTO 0x0A07
 61: 0x09FA [0x03] Work_Zone[2] = 2955*
 62: 0x09FF [0x03] Work_Zone[3] = ExtData[1]->WorkLocal[7]
 63: 0x0A04 [0x01] GOTO 0x0A3B
 64: 0x0A07 [0x02] IF !(ExtData[1]->WorkLocal[26] == 3*) GOTO 0x0A1C
 65: 0x0A0F [0x03] Work_Zone[2] = 2956*
 66: 0x0A14 [0x03] Work_Zone[3] = ExtData[1]->WorkLocal[8]
 67: 0x0A19 [0x01] GOTO 0x0A3B
 68: 0x0A1C [0x02] IF !(ExtData[1]->WorkLocal[26] == 4*) GOTO 0x0A31
 69: 0x0A24 [0x03] Work_Zone[2] = 2957*
 70: 0x0A29 [0x03] Work_Zone[3] = ExtData[1]->WorkLocal[9]
 71: 0x0A2E [0x01] GOTO 0x0A3B
 72: 0x0A31 [0x03] Work_Zone[2] = 1*
 73: 0x0A36 [0x03] Work_Zone[3] = 4294967295*

SUBROUTINE_0A3B:
 74: 0x0A3B [0x1D] PRINT_EVENT_MESSAGE(message_id=8747*)
    → "$1 $0 ."
 75: 0x0A3E [0x23] WAIT_FOR_DIALOG_INTERACTION
 76: 0x0A3F [0x0B] ExtData[1]->WorkLocal[26]++
 77: 0x0A42 [0x01] GOTO 0x09B9
 78: 0x0A45 [0x1D] PRINT_EVENT_MESSAGE(message_id=8748*)
    → "Should be all. Lemme know if y'need anything else."
 79: 0x0A48 [0x23] WAIT_FOR_DIALOG_INTERACTION

SUBROUTINE_0A49:
 80: 0x0A49 [0x21] END_EVENT
 81: 0x0A4A [0x00] END_REQSTACK()
```

### Event 431

#### Metadata

| Field        | Value   |
|--------------|---------|
| Entrypoint   | 0x0A4B  |
| Data Size    | 1 bytes |
| Instructions | 1       |

```
      00 01 02 03 04 05 06 07  08 09 0A 0B 0C 0D 0E 0F
      -- -- -- -- -- -- -- --  -- -- -- -- -- -- -- --
0A40:                                   00                         .    
```

#### Opcodes

```
  0: 0x0A4B [0x00] END_REQSTACK()
```

### Event 434

#### Metadata

| Field        | Value   |
|--------------|---------|
| Entrypoint   | 0x0A4C  |
| Data Size    | 7 bytes |
| Instructions | 2       |

```
      00 01 02 03 04 05 06 07  08 09 0A 0B 0C 0D 0E 0F
      -- -- -- -- -- -- -- --  -- -- -- -- -- -- -- --
0A40:                                      92 01 F8 FF              ....
0A50: FF 7F 00                                          ...             
```

#### Opcodes

```
  0: 0x0A4C [0x92] EventEntity->Render.Flags3 ^= 0x01
  1: 0x0A52 [0x00] END_REQSTACK()
```

### Event 65535.1

#### Metadata

| Field        | Value    |
|--------------|----------|
| Entrypoint   | 0x0A53   |
| Data Size    | 58 bytes |
| Instructions | 12       |

```
      00 01 02 03 04 05 06 07  08 09 0A 0B 0C 0D 0E 0F
      -- -- -- -- -- -- -- --  -- -- -- -- -- -- -- --
0A50:          1C 33 80 1E AB  60 0F 01 1C 34 80 1E 49     .3...`...4..I
0A60: 60 0F 01 6F 70 5B 0A 80  F8 FF FF 7F F8 FF FF 7F  `..op[..........
0A70: 6A 69 6D 30 1C 35 80 5B  0A 80 F8 FF FF 7F F8 FF  jim0.5.[........
0A80: FF 7F 6A 69 6D 31 1C 36  80 39 37 80 00           ..jim1.6.97..   
```

#### Opcodes

```
  0: 0x0A53 [0x1C] WAIT(10* ticks)
  1: 0x0A56 [0x1E] EventEntity looks at Mewk Chorosap (ID: 17785003/0x010F60AB) and starts talking
  2: 0x0A5B [0x1C] WAIT(180* ticks)
  3: 0x0A5E [0x1E] EventEntity looks at Shami (ID: 17784905/0x010F6049) and starts talking
  4: 0x0A63 [0x6F] WAIT_FRAME_DELAY: Yield until WaitTime reaches zero
  5: 0x0A64 [0x70] WAIT_ENTITY_RENDER_FLAG: Wait while EventEntity->Render.Flags3 bit 2 is set (cancel turn if not)
  6: 0x0A65 [0x5B] LOAD_EXT_SCHEDULER: Load scheduler "jim0" with entities [EventEntity, EventEntity], work=65*
  7: 0x0A74 [0x1C] WAIT(90* ticks)
  8: 0x0A77 [0x5B] LOAD_EXT_SCHEDULER: Load scheduler "jim1" with entities [EventEntity, EventEntity], work=65*
  9: 0x0A86 [0x1C] WAIT(120* ticks)
 10: 0x0A89 [0x39] SET_ENTITY_DIRECTION(direction=8.6°*)
 11: 0x0A8C [0x00] END_REQSTACK()
```

### Event 65535.2

#### Metadata

| Field        | Value    |
|--------------|----------|
| Entrypoint   | 0x0A8D   |
| Data Size    | 16 bytes |
| Instructions | 2        |

```
      00 01 02 03 04 05 06 07  08 09 0A 0B 0C 0D 0E 0F
      -- -- -- -- -- -- -- --  -- -- -- -- -- -- -- --
0A80:                                         5B 0A 80               [..
0A90: F8 FF FF 7F F8 FF FF 7F  67 72 65 30 00           ........gre0.   
```

#### Opcodes

```
  0: 0x0A8D [0x5B] LOAD_EXT_SCHEDULER: Load scheduler "gre0" with entities [EventEntity, EventEntity], work=65*
  1: 0x0A9C [0x00] END_REQSTACK()
```

### Event 65535.3

#### Metadata

| Field        | Value    |
|--------------|----------|
| Entrypoint   | 0x0A9D   |
| Data Size    | 14 bytes |
| Instructions | 2        |

```
      00 01 02 03 04 05 06 07  08 09 0A 0B 0C 0D 0E 0F
      -- -- -- -- -- -- -- --  -- -- -- -- -- -- -- --
0A90:                                         53 F8 FF               S..
0AA0: FF 7F F8 FF FF 7F 67 72  65 30 00                 ......gre0.     
```

#### Opcodes

```
  0: 0x0A9D [0x53] WAIT_SCHEDULER_TASK: Wait for scheduler "gre0" with entities [EventEntity, EventEntity]
  1: 0x0AAA [0x00] END_REQSTACK()
```

### Event 65535.4

#### Metadata

| Field        | Value    |
|--------------|----------|
| Entrypoint   | 0x0AAB   |
| Data Size    | 16 bytes |
| Instructions | 2        |

```
      00 01 02 03 04 05 06 07  08 09 0A 0B 0C 0D 0E 0F
      -- -- -- -- -- -- -- --  -- -- -- -- -- -- -- --
0AA0:                                   5B 0A 80 F8 FF             [....
0AB0: FF 7F F8 FF FF 7F 70 61  73 30 00                 ......pas0.     
```

#### Opcodes

```
  0: 0x0AAB [0x5B] LOAD_EXT_SCHEDULER: Load scheduler "pas0" with entities [EventEntity, EventEntity], work=65*
  1: 0x0ABA [0x00] END_REQSTACK()
```

### Event 65535.5

#### Metadata

| Field        | Value    |
|--------------|----------|
| Entrypoint   | 0x0ABB   |
| Data Size    | 14 bytes |
| Instructions | 2        |

```
      00 01 02 03 04 05 06 07  08 09 0A 0B 0C 0D 0E 0F
      -- -- -- -- -- -- -- --  -- -- -- -- -- -- -- --
0AB0:                                   53 F8 FF FF 7F             S....
0AC0: F8 FF FF 7F 70 61 73 30  00                       ....pas0.       
```

#### Opcodes

```
  0: 0x0ABB [0x53] WAIT_SCHEDULER_TASK: Wait for scheduler "pas0" with entities [EventEntity, EventEntity]
  1: 0x0AC8 [0x00] END_REQSTACK()
```

### Event 65535.6

#### Metadata

| Field        | Value    |
|--------------|----------|
| Entrypoint   | 0x0AC9   |
| Data Size    | 16 bytes |
| Instructions | 2        |

```
      00 01 02 03 04 05 06 07  08 09 0A 0B 0C 0D 0E 0F
      -- -- -- -- -- -- -- --  -- -- -- -- -- -- -- --
0AC0:                             5B 0A 80 F8 FF FF 7F           [......
0AD0: F8 FF FF 7F 74 68 6B 30  00                       ....thk0.       
```

#### Opcodes

```
  0: 0x0AC9 [0x5B] LOAD_EXT_SCHEDULER: Load scheduler "thk0" with entities [EventEntity, EventEntity], work=65*
  1: 0x0AD8 [0x00] END_REQSTACK()
```

### Event 65535.7

#### Metadata

| Field        | Value    |
|--------------|----------|
| Entrypoint   | 0x0AD9   |
| Data Size    | 14 bytes |
| Instructions | 2        |

```
      00 01 02 03 04 05 06 07  08 09 0A 0B 0C 0D 0E 0F
      -- -- -- -- -- -- -- --  -- -- -- -- -- -- -- --
0AD0:                             53 F8 FF FF 7F F8 FF           S......
0AE0: FF 7F 74 68 6B 30 00                              ..thk0.         
```

#### Opcodes

```
  0: 0x0AD9 [0x53] WAIT_SCHEDULER_TASK: Wait for scheduler "thk0" with entities [EventEntity, EventEntity]
  1: 0x0AE6 [0x00] END_REQSTACK()
```

### Event 65535.8

#### Metadata

| Field        | Value    |
|--------------|----------|
| Entrypoint   | 0x0AE7   |
| Data Size    | 16 bytes |
| Instructions | 2        |

```
      00 01 02 03 04 05 06 07  08 09 0A 0B 0C 0D 0E 0F
      -- -- -- -- -- -- -- --  -- -- -- -- -- -- -- --
0AE0:                      5B  0A 80 F8 FF FF 7F F8 FF         [........
0AF0: FF 7F 74 68 6B 31 00                              ..thk1.         
```

#### Opcodes

```
  0: 0x0AE7 [0x5B] LOAD_EXT_SCHEDULER: Load scheduler "thk1" with entities [EventEntity, EventEntity], work=65*
  1: 0x0AF6 [0x00] END_REQSTACK()
```

### Event 65535.9

#### Metadata

| Field        | Value    |
|--------------|----------|
| Entrypoint   | 0x0AF7   |
| Data Size    | 14 bytes |
| Instructions | 2        |

```
      00 01 02 03 04 05 06 07  08 09 0A 0B 0C 0D 0E 0F
      -- -- -- -- -- -- -- --  -- -- -- -- -- -- -- --
0AF0:                      53  F8 FF FF 7F F8 FF FF 7F         S........
0B00: 74 68 6B 31 00                                    thk1.           
```

#### Opcodes

```
  0: 0x0AF7 [0x53] WAIT_SCHEDULER_TASK: Wait for scheduler "thk1" with entities [EventEntity, EventEntity]
  1: 0x0B04 [0x00] END_REQSTACK()
```

### Event 65535.10

#### Metadata

| Field        | Value    |
|--------------|----------|
| Entrypoint   | 0x0B05   |
| Data Size    | 16 bytes |
| Instructions | 2        |

```
      00 01 02 03 04 05 06 07  08 09 0A 0B 0C 0D 0E 0F
      -- -- -- -- -- -- -- --  -- -- -- -- -- -- -- --
0B00:                5B 0A 80  F8 FF FF 7F F8 FF FF 7F       [..........
0B10: 74 68 6B 32 00                                    thk2.           
```

#### Opcodes

```
  0: 0x0B05 [0x5B] LOAD_EXT_SCHEDULER: Load scheduler "thk2" with entities [EventEntity, EventEntity], work=65*
  1: 0x0B14 [0x00] END_REQSTACK()
```

### Event 65535.11

#### Metadata

| Field        | Value    |
|--------------|----------|
| Entrypoint   | 0x0B15   |
| Data Size    | 14 bytes |
| Instructions | 2        |

```
      00 01 02 03 04 05 06 07  08 09 0A 0B 0C 0D 0E 0F
      -- -- -- -- -- -- -- --  -- -- -- -- -- -- -- --
0B10:                53 F8 FF  FF 7F F8 FF FF 7F 74 68       S........th
0B20: 6B 32 00                                          k2.             
```

#### Opcodes

```
  0: 0x0B15 [0x53] WAIT_SCHEDULER_TASK: Wait for scheduler "thk2" with entities [EventEntity, EventEntity]
  1: 0x0B22 [0x00] END_REQSTACK()
```

### Event 65535.12

#### Metadata

| Field        | Value    |
|--------------|----------|
| Entrypoint   | 0x0B23   |
| Data Size    | 16 bytes |
| Instructions | 2        |

```
      00 01 02 03 04 05 06 07  08 09 0A 0B 0C 0D 0E 0F
      -- -- -- -- -- -- -- --  -- -- -- -- -- -- -- --
0B20:          5B 0A 80 F8 FF  FF 7F F8 FF FF 7F 74 6C     [..........tl
0B30: 6B 30 00                                          k0.             
```

#### Opcodes

```
  0: 0x0B23 [0x5B] LOAD_EXT_SCHEDULER: Load scheduler "tlk0" with entities [EventEntity, EventEntity], work=65*
  1: 0x0B32 [0x00] END_REQSTACK()
```

### Event 65535.13

#### Metadata

| Field        | Value    |
|--------------|----------|
| Entrypoint   | 0x0B33   |
| Data Size    | 14 bytes |
| Instructions | 2        |

```
      00 01 02 03 04 05 06 07  08 09 0A 0B 0C 0D 0E 0F
      -- -- -- -- -- -- -- --  -- -- -- -- -- -- -- --
0B30:          53 F8 FF FF 7F  F8 FF FF 7F 74 6C 6B 30     S........tlk0
0B40: 00                                                .               
```

#### Opcodes

```
  0: 0x0B33 [0x53] WAIT_SCHEDULER_TASK: Wait for scheduler "tlk0" with entities [EventEntity, EventEntity]
  1: 0x0B40 [0x00] END_REQSTACK()
```

### Event 65535.14

#### Metadata

| Field        | Value    |
|--------------|----------|
| Entrypoint   | 0x0B41   |
| Data Size    | 16 bytes |
| Instructions | 2        |

```
      00 01 02 03 04 05 06 07  08 09 0A 0B 0C 0D 0E 0F
      -- -- -- -- -- -- -- --  -- -- -- -- -- -- -- --
0B40:    5B 0A 80 F8 FF FF 7F  F8 FF FF 7F 74 6C 6B 31   [..........tlk1
0B50: 00                                                .               
```

#### Opcodes

```
  0: 0x0B41 [0x5B] LOAD_EXT_SCHEDULER: Load scheduler "tlk1" with entities [EventEntity, EventEntity], work=65*
  1: 0x0B50 [0x00] END_REQSTACK()
```

### Event 65535.15

#### Metadata

| Field        | Value    |
|--------------|----------|
| Entrypoint   | 0x0B51   |
| Data Size    | 14 bytes |
| Instructions | 2        |

```
      00 01 02 03 04 05 06 07  08 09 0A 0B 0C 0D 0E 0F
      -- -- -- -- -- -- -- --  -- -- -- -- -- -- -- --
0B50:    53 F8 FF FF 7F F8 FF  FF 7F 74 6C 6B 31 00      S........tlk1. 
```

#### Opcodes

```
  0: 0x0B51 [0x53] WAIT_SCHEDULER_TASK: Wait for scheduler "tlk1" with entities [EventEntity, EventEntity]
  1: 0x0B5E [0x00] END_REQSTACK()
```

### Event 65535.16

#### Metadata

| Field        | Value    |
|--------------|----------|
| Entrypoint   | 0x0B5F   |
| Data Size    | 16 bytes |
| Instructions | 2        |

```
      00 01 02 03 04 05 06 07  08 09 0A 0B 0C 0D 0E 0F
      -- -- -- -- -- -- -- --  -- -- -- -- -- -- -- --
0B50:                                               5B                 [
0B60: 0A 80 F8 FF FF 7F F8 FF  FF 7F 63 6C 61 30 00     ..........cla0. 
```

#### Opcodes

```
  0: 0x0B5F [0x5B] LOAD_EXT_SCHEDULER: Load scheduler "cla0" with entities [EventEntity, EventEntity], work=65*
  1: 0x0B6E [0x00] END_REQSTACK()
```

### Event 65535.17

#### Metadata

| Field        | Value    |
|--------------|----------|
| Entrypoint   | 0x0B6F   |
| Data Size    | 14 bytes |
| Instructions | 2        |

```
      00 01 02 03 04 05 06 07  08 09 0A 0B 0C 0D 0E 0F
      -- -- -- -- -- -- -- --  -- -- -- -- -- -- -- --
0B60:                                               53                 S
0B70: F8 FF FF 7F F8 FF FF 7F  63 6C 61 30 00           ........cla0.   
```

#### Opcodes

```
  0: 0x0B6F [0x53] WAIT_SCHEDULER_TASK: Wait for scheduler "cla0" with entities [EventEntity, EventEntity]
  1: 0x0B7C [0x00] END_REQSTACK()
```

### Event 65535.18

#### Metadata

| Field        | Value    |
|--------------|----------|
| Entrypoint   | 0x0B7D   |
| Data Size    | 16 bytes |
| Instructions | 2        |

```
      00 01 02 03 04 05 06 07  08 09 0A 0B 0C 0D 0E 0F
      -- -- -- -- -- -- -- --  -- -- -- -- -- -- -- --
0B70:                                         5B 0A 80               [..
0B80: F8 FF FF 7F F8 FF FF 7F  68 69 73 30 00           ........his0.   
```

#### Opcodes

```
  0: 0x0B7D [0x5B] LOAD_EXT_SCHEDULER: Load scheduler "his0" with entities [EventEntity, EventEntity], work=65*
  1: 0x0B8C [0x00] END_REQSTACK()
```

### Event 65535.19

#### Metadata

| Field        | Value    |
|--------------|----------|
| Entrypoint   | 0x0B8D   |
| Data Size    | 14 bytes |
| Instructions | 2        |

```
      00 01 02 03 04 05 06 07  08 09 0A 0B 0C 0D 0E 0F
      -- -- -- -- -- -- -- --  -- -- -- -- -- -- -- --
0B80:                                         53 F8 FF               S..
0B90: FF 7F F8 FF FF 7F 68 69  73 30 00                 ......his0.     
```

#### Opcodes

```
  0: 0x0B8D [0x53] WAIT_SCHEDULER_TASK: Wait for scheduler "his0" with entities [EventEntity, EventEntity]
  1: 0x0B9A [0x00] END_REQSTACK()
```

### Event 65535.20

#### Metadata

| Field        | Value    |
|--------------|----------|
| Entrypoint   | 0x0B9B   |
| Data Size    | 16 bytes |
| Instructions | 2        |

```
      00 01 02 03 04 05 06 07  08 09 0A 0B 0C 0D 0E 0F
      -- -- -- -- -- -- -- --  -- -- -- -- -- -- -- --
0B90:                                   5B 0A 80 F8 FF             [....
0BA0: FF 7F F8 FF FF 7F 68 69  73 31 00                 ......his1.     
```

#### Opcodes

```
  0: 0x0B9B [0x5B] LOAD_EXT_SCHEDULER: Load scheduler "his1" with entities [EventEntity, EventEntity], work=65*
  1: 0x0BAA [0x00] END_REQSTACK()
```

### Event 65535.21

#### Metadata

| Field        | Value    |
|--------------|----------|
| Entrypoint   | 0x0BAB   |
| Data Size    | 14 bytes |
| Instructions | 2        |

```
      00 01 02 03 04 05 06 07  08 09 0A 0B 0C 0D 0E 0F
      -- -- -- -- -- -- -- --  -- -- -- -- -- -- -- --
0BA0:                                   53 F8 FF FF 7F             S....
0BB0: F8 FF FF 7F 68 69 73 31  00                       ....his1.       
```

#### Opcodes

```
  0: 0x0BAB [0x53] WAIT_SCHEDULER_TASK: Wait for scheduler "his1" with entities [EventEntity, EventEntity]
  1: 0x0BB8 [0x00] END_REQSTACK()
```

### Event 65535.22

#### Metadata

| Field        | Value    |
|--------------|----------|
| Entrypoint   | 0x0BB9   |
| Data Size    | 16 bytes |
| Instructions | 2        |

```
      00 01 02 03 04 05 06 07  08 09 0A 0B 0C 0D 0E 0F
      -- -- -- -- -- -- -- --  -- -- -- -- -- -- -- --
0BB0:                             5B 0A 80 F8 FF FF 7F           [......
0BC0: F8 FF FF 7F 6A 69 6D 30  00                       ....jim0.       
```

#### Opcodes

```
  0: 0x0BB9 [0x5B] LOAD_EXT_SCHEDULER: Load scheduler "jim0" with entities [EventEntity, EventEntity], work=65*
  1: 0x0BC8 [0x00] END_REQSTACK()
```

### Event 65535.23

#### Metadata

| Field        | Value    |
|--------------|----------|
| Entrypoint   | 0x0BC9   |
| Data Size    | 14 bytes |
| Instructions | 2        |

```
      00 01 02 03 04 05 06 07  08 09 0A 0B 0C 0D 0E 0F
      -- -- -- -- -- -- -- --  -- -- -- -- -- -- -- --
0BC0:                             53 F8 FF FF 7F F8 FF           S......
0BD0: FF 7F 6A 69 6D 30 00                              ..jim0.         
```

#### Opcodes

```
  0: 0x0BC9 [0x53] WAIT_SCHEDULER_TASK: Wait for scheduler "jim0" with entities [EventEntity, EventEntity]
  1: 0x0BD6 [0x00] END_REQSTACK()
```

### Event 65535.24

#### Metadata

| Field        | Value    |
|--------------|----------|
| Entrypoint   | 0x0BD7   |
| Data Size    | 16 bytes |
| Instructions | 2        |

```
      00 01 02 03 04 05 06 07  08 09 0A 0B 0C 0D 0E 0F
      -- -- -- -- -- -- -- --  -- -- -- -- -- -- -- --
0BD0:                      5B  0A 80 F8 FF FF 7F F8 FF         [........
0BE0: FF 7F 6A 69 6D 31 00                              ..jim1.         
```

#### Opcodes

```
  0: 0x0BD7 [0x5B] LOAD_EXT_SCHEDULER: Load scheduler "jim1" with entities [EventEntity, EventEntity], work=65*
  1: 0x0BE6 [0x00] END_REQSTACK()
```

### Event 65535.25

#### Metadata

| Field        | Value    |
|--------------|----------|
| Entrypoint   | 0x0BE7   |
| Data Size    | 14 bytes |
| Instructions | 2        |

```
      00 01 02 03 04 05 06 07  08 09 0A 0B 0C 0D 0E 0F
      -- -- -- -- -- -- -- --  -- -- -- -- -- -- -- --
0BE0:                      53  F8 FF FF 7F F8 FF FF 7F         S........
0BF0: 6A 69 6D 31 00                                    jim1.           
```

#### Opcodes

```
  0: 0x0BE7 [0x53] WAIT_SCHEDULER_TASK: Wait for scheduler "jim1" with entities [EventEntity, EventEntity]
  1: 0x0BF4 [0x00] END_REQSTACK()
```

### Event 65535.26

#### Metadata

| Field        | Value    |
|--------------|----------|
| Entrypoint   | 0x0BF5   |
| Data Size    | 16 bytes |
| Instructions | 2        |

```
      00 01 02 03 04 05 06 07  08 09 0A 0B 0C 0D 0E 0F
      -- -- -- -- -- -- -- --  -- -- -- -- -- -- -- --
0BF0:                5B 0A 80  F8 FF FF 7F F8 FF FF 7F       [..........
0C00: 73 74 64 30 00                                    std0.           
```

#### Opcodes

```
  0: 0x0BF5 [0x5B] LOAD_EXT_SCHEDULER: Load scheduler "std0" with entities [EventEntity, EventEntity], work=65*
  1: 0x0C04 [0x00] END_REQSTACK()
```

### Event 65535.27

#### Metadata

| Field        | Value    |
|--------------|----------|
| Entrypoint   | 0x0C05   |
| Data Size    | 14 bytes |
| Instructions | 2        |

```
      00 01 02 03 04 05 06 07  08 09 0A 0B 0C 0D 0E 0F
      -- -- -- -- -- -- -- --  -- -- -- -- -- -- -- --
0C00:                53 F8 FF  FF 7F F8 FF FF 7F 73 74       S........st
0C10: 64 30 00                                          d0.             
```

#### Opcodes

```
  0: 0x0C05 [0x53] WAIT_SCHEDULER_TASK: Wait for scheduler "std0" with entities [EventEntity, EventEntity]
  1: 0x0C12 [0x00] END_REQSTACK()
```

### Event 65535.28

#### Metadata

| Field        | Value    |
|--------------|----------|
| Entrypoint   | 0x0C13   |
| Data Size    | 28 bytes |
| Instructions | 4        |

```
      00 01 02 03 04 05 06 07  08 09 0A 0B 0C 0D 0E 0F
      -- -- -- -- -- -- -- --  -- -- -- -- -- -- -- --
0C10:          81 00 F8 FF FF  7F 7C 00 F8 FF FF 7F 5B     ......|.....[
0C20: 38 80 F8 FF FF 7F F8 FF  FF 7F 73 68 75 30 00     8.........shu0. 
```

#### Opcodes

```
  0: 0x0C13 [0x81] SET_ENTITY_BLINKING(blink_flag=0x00, entity=EventEntity)
  1: 0x0C19 [0x7C] EventEntity->Render.Flags2 |= 0x00
  2: 0x0C1F [0x5B] LOAD_EXT_SCHEDULER: Load scheduler "shu0" with entities [EventEntity, EventEntity], work=1270*
  3: 0x0C2E [0x00] END_REQSTACK()
```

### Event 65535.29

#### Metadata

| Field        | Value    |
|--------------|----------|
| Entrypoint   | 0x0C2F   |
| Data Size    | 14 bytes |
| Instructions | 2        |

```
      00 01 02 03 04 05 06 07  08 09 0A 0B 0C 0D 0E 0F
      -- -- -- -- -- -- -- --  -- -- -- -- -- -- -- --
0C20:                                               53                 S
0C30: F8 FF FF 7F F8 FF FF 7F  73 68 75 30 00           ........shu0.   
```

#### Opcodes

```
  0: 0x0C2F [0x53] WAIT_SCHEDULER_TASK: Wait for scheduler "shu0" with entities [EventEntity, EventEntity]
  1: 0x0C3C [0x00] END_REQSTACK()
```

### Event 65535.30

#### Metadata

| Field        | Value    |
|--------------|----------|
| Entrypoint   | 0x0C3D   |
| Data Size    | 16 bytes |
| Instructions | 2        |

```
      00 01 02 03 04 05 06 07  08 09 0A 0B 0C 0D 0E 0F
      -- -- -- -- -- -- -- --  -- -- -- -- -- -- -- --
0C30:                                         5B 38 80               [8.
0C40: F8 FF FF 7F F8 FF FF 7F  73 68 75 31 00           ........shu1.   
```

#### Opcodes

```
  0: 0x0C3D [0x5B] LOAD_EXT_SCHEDULER: Load scheduler "shu1" with entities [EventEntity, EventEntity], work=1270*
  1: 0x0C4C [0x00] END_REQSTACK()
```

### Event 65535.31

#### Metadata

| Field        | Value    |
|--------------|----------|
| Entrypoint   | 0x0C4D   |
| Data Size    | 26 bytes |
| Instructions | 4        |

```
      00 01 02 03 04 05 06 07  08 09 0A 0B 0C 0D 0E 0F
      -- -- -- -- -- -- -- --  -- -- -- -- -- -- -- --
0C40:                                         53 F8 FF               S..
0C50: FF 7F F8 FF FF 7F 73 68  75 31 81 01 F8 FF FF 7F  ......shu1......
0C60: 7C 01 F8 FF FF 7F 00                              |......         
```

#### Opcodes

```
  0: 0x0C4D [0x53] WAIT_SCHEDULER_TASK: Wait for scheduler "shu1" with entities [EventEntity, EventEntity]
  1: 0x0C5A [0x81] SET_ENTITY_BLINKING(blink_flag=0x01, entity=EventEntity)
  2: 0x0C60 [0x7C] EventEntity->Render.Flags2 |= 0x01
  3: 0x0C66 [0x00] END_REQSTACK()
```

### Event 65535.32

#### Metadata

| Field        | Value    |
|--------------|----------|
| Entrypoint   | 0x0C67   |
| Data Size    | 28 bytes |
| Instructions | 4        |

```
      00 01 02 03 04 05 06 07  08 09 0A 0B 0C 0D 0E 0F
      -- -- -- -- -- -- -- --  -- -- -- -- -- -- -- --
0C60:                      81  00 F8 FF FF 7F 7C 00 F8         ......|..
0C70: FF FF 7F 5B 38 80 F8 FF  FF 7F F8 FF FF 7F 72 61  ...[8.........ra
0C80: 6E 30 00                                          n0.             
```

#### Opcodes

```
  0: 0x0C67 [0x81] SET_ENTITY_BLINKING(blink_flag=0x00, entity=EventEntity)
  1: 0x0C6D [0x7C] EventEntity->Render.Flags2 |= 0x00
  2: 0x0C73 [0x5B] LOAD_EXT_SCHEDULER: Load scheduler "ran0" with entities [EventEntity, EventEntity], work=1270*
  3: 0x0C82 [0x00] END_REQSTACK()
```

### Event 65535.33

#### Metadata

| Field        | Value    |
|--------------|----------|
| Entrypoint   | 0x0C83   |
| Data Size    | 14 bytes |
| Instructions | 2        |

```
      00 01 02 03 04 05 06 07  08 09 0A 0B 0C 0D 0E 0F
      -- -- -- -- -- -- -- --  -- -- -- -- -- -- -- --
0C80:          53 F8 FF FF 7F  F8 FF FF 7F 72 61 6E 30     S........ran0
0C90: 00                                                .               
```

#### Opcodes

```
  0: 0x0C83 [0x53] WAIT_SCHEDULER_TASK: Wait for scheduler "ran0" with entities [EventEntity, EventEntity]
  1: 0x0C90 [0x00] END_REQSTACK()
```

### Event 65535.34

#### Metadata

| Field        | Value    |
|--------------|----------|
| Entrypoint   | 0x0C91   |
| Data Size    | 16 bytes |
| Instructions | 2        |

```
      00 01 02 03 04 05 06 07  08 09 0A 0B 0C 0D 0E 0F
      -- -- -- -- -- -- -- --  -- -- -- -- -- -- -- --
0C90:    5B 38 80 F8 FF FF 7F  F8 FF FF 7F 72 61 6E 31   [8.........ran1
0CA0: 00                                                .               
```

#### Opcodes

```
  0: 0x0C91 [0x5B] LOAD_EXT_SCHEDULER: Load scheduler "ran1" with entities [EventEntity, EventEntity], work=1270*
  1: 0x0CA0 [0x00] END_REQSTACK()
```

### Event 65535.35

#### Metadata

| Field        | Value    |
|--------------|----------|
| Entrypoint   | 0x0CA1   |
| Data Size    | 26 bytes |
| Instructions | 4        |

```
      00 01 02 03 04 05 06 07  08 09 0A 0B 0C 0D 0E 0F
      -- -- -- -- -- -- -- --  -- -- -- -- -- -- -- --
0CA0:    53 F8 FF FF 7F F8 FF  FF 7F 72 61 6E 31 81 01   S........ran1..
0CB0: F8 FF FF 7F 7C 01 F8 FF  FF 7F 00                 ....|......     
```

#### Opcodes

```
  0: 0x0CA1 [0x53] WAIT_SCHEDULER_TASK: Wait for scheduler "ran1" with entities [EventEntity, EventEntity]
  1: 0x0CAE [0x81] SET_ENTITY_BLINKING(blink_flag=0x01, entity=EventEntity)
  2: 0x0CB4 [0x7C] EventEntity->Render.Flags2 |= 0x01
  3: 0x0CBA [0x00] END_REQSTACK()
```

### Event 443

#### Metadata

| Field        | Value   |
|--------------|---------|
| Entrypoint   | 0x0CBB  |
| Data Size    | 1 bytes |
| Instructions | 1       |

```
      00 01 02 03 04 05 06 07  08 09 0A 0B 0C 0D 0E 0F
      -- -- -- -- -- -- -- --  -- -- -- -- -- -- -- --
0CB0:                                   00                         .    
```

#### Opcodes

```
  0: 0x0CBB [0x00] END_REQSTACK()
```

### Event 65535.36

#### Metadata

| Field        | Value    |
|--------------|----------|
| Entrypoint   | 0x0CBC   |
| Data Size    | 15 bytes |
| Instructions | 5        |

```
      00 01 02 03 04 05 06 07  08 09 0A 0B 0C 0D 0E 0F
      -- -- -- -- -- -- -- --  -- -- -- -- -- -- -- --
0CB0:                                      32 39 80 1F              29..
0CC0: 00 3A 80 3B 80 00 80 1F  01 6F 00                 .:.;.....o.     
```

#### Opcodes

```
  0: 0x0CBC [0x32] ExtData[1]->MainSpeed = 13* * 0.1
  1: 0x0CBF [0x1F] MOVE_ENTITY: EventEntity moves to X=-55.775*, Z=10.555*, Y=0.000*
  2: 0x0CC7 [0x1F] MOVE_ENTITY: Update entity position (mode=1)
  3: 0x0CC9 [0x6F] WAIT_FRAME_DELAY: Yield until WaitTime reaches zero
  4: 0x0CCA [0x00] END_REQSTACK()
```
