# 17784990 - Monisette

## Common Data

| Field            | Value                |
|------------------|----------------------|
| Zone             | Port Jeuno (ID: 246) |
| Block Size       | 17440 bytes          |
| Total Events     | 8                    |
| References Count | 1823                 |

## List of Events

| Event ID              | Entrypoint   |   Size |   Instructions |
|-----------------------|--------------|--------|----------------|
| [65535](#event-65535) | 0x0000       |      1 |              1 |
| [384](#event-384)     | 0x0001       |     14 |              6 |
| [385](#event-385)     | 0x000F       |    135 |             37 |
| [386](#event-386)     | 0x0096       |     22 |             10 |
| [393](#event-393)     | 0x00AC       |     34 |             11 |
| [387](#event-387)     | 0x00CE       |    102 |             26 |
| [388](#event-388)     | 0x0134       |     16 |              8 |
| [401](#event-401)     | 0x0144       |   9775 |           2218 |

## DAT References (imed_data)

|   Index | Hex Value   |   Dec Value |
|---------|-------------|-------------|
|       0 | 0x0001      |           1 |
|       1 | 0x232B      |        9003 |
|       2 | 0x0000      |           0 |
|       3 | 0x232C      |        9004 |
|       4 | 0x232D      |        9005 |
|       5 | 0x232E      |        9006 |
|       6 | 0x232F      |        9007 |
|       7 | 0x2330      |        9008 |
|       8 | 0x2331      |        9009 |
|       9 | 0x233B      |        9019 |
|      10 | 0x0002      |           2 |
|      11 | 0x233A      |        9018 |
|      12 | 0x2343      |        9027 |
|      13 | 0x2339      |        9017 |
|      14 | 0x0008      |           8 |
|      15 | 0x0010      |          16 |
|      16 | 0x0013      |          19 |
|      17 | 0x0007      |           7 |
|      18 | 0x000F      |          15 |
|      19 | 0x2348      |        9032 |
|      20 | 0x0012      |          18 |
|      21 | 0x2332      |        9010 |
|      22 | 0x2333      |        9011 |
|      23 | 0x0014      |          20 |
|      24 | 0x0003      |           3 |
|      25 | 0x0004      |           4 |
|      26 | 0x0005      |           5 |
|      27 | 0x2334      |        9012 |
|      28 | 0x034C      |         844 |
|      29 | 0x0FE0      |        4064 |
|      30 | 0x000A      |          10 |
|      31 | 0x2335      |        9013 |
|      32 | 0x2336      |        9014 |
|      33 | 0x2337      |        9015 |
|      34 | 0x2338      |        9016 |
|      35 | 0x0345      |         837 |
|      36 | 0x0FE1      |        4065 |
|      37 | 0x0456      |        1110 |
|      38 | 0x0FE2      |        4066 |
|      39 | 0x0344      |         836 |
|      40 | 0x0FE3      |        4067 |
|      41 | 0x051F      |        1311 |
|      42 | 0x0FE4      |        4068 |
|      43 | 0x0006      |           6 |
|      44 | 0x2210      |        8720 |
|      45 | 0x0FE5      |        4069 |
|      46 | 0x2212      |        8722 |
|      47 | 0x0FE6      |        4070 |
|      48 | 0x2214      |        8724 |
|      49 | 0x0FE7      |        4071 |
|      50 | 0x0009      |           9 |
|      51 | 0x2216      |        8726 |
|      52 | 0x0FE8      |        4072 |
|      53 | 0x2218      |        8728 |
|      54 | 0x0FE9      |        4073 |
|      55 | 0x233C      |        9020 |
|      56 | 0x0548      |        1352 |
|      57 | 0x0549      |        1353 |
|      58 | 0x233D      |        9021 |
|      59 | 0x233E      |        9022 |
|      60 | 0x233F      |        9023 |
|      61 | 0x2340      |        9024 |
|      62 | 0x2342      |        9026 |
|      63 | 0x2341      |        9025 |
|      64 | 0x054B      |        1355 |
|      65 | 0x054C      |        1356 |
|      66 | 0x0F89      |        3977 |
|      67 | 0x0FAE      |        4014 |
|      68 | 0x0F8C      |        3980 |
|      69 | 0x0FAC      |        4012 |
|      70 | 0x0F8B      |        3979 |
|      71 | 0x0015      |          21 |
|      72 | 0x0016      |          22 |
|      73 | 0x2344      |        9028 |
|      74 | 0x2345      |        9029 |
|      75 | 0x2346      |        9030 |
|      76 | 0x2366      |        9062 |
|      77 | 0x0019      |          25 |
|      78 | 0x2368      |        9064 |
|      79 | 0x232A      |        9002 |
|      80 | 0x2347      |        9031 |
|      81 | 0x2349      |        9033 |
|      82 | 0x0017      |          23 |
|      83 | 0x0018      |          24 |
|      84 | 0x001F      |          31 |
|      85 | 0x234A      |        9034 |
|      86 | 0x234B      |        9035 |
|      87 | 0x234C      |        9036 |
|      88 | 0x234D      |        9037 |
|      89 | 0x3B79      |       15225 |
|      90 | 0x3B7A      |       15226 |
|      91 | 0x3B7B      |       15227 |
|      92 | 0x3B7C      |       15228 |
|      93 | 0x3B7D      |       15229 |
|      94 | 0x3B7E      |       15230 |
|      95 | 0x3B7F      |       15231 |
|      96 | 0x3B80      |       15232 |
|      97 | 0x3B81      |       15233 |
|      98 | 0x3B82      |       15234 |
|      99 | 0x3B83      |       15235 |
|     100 | 0x3B84      |       15236 |
|     101 | 0x3B85      |       15237 |
|     102 | 0x3B86      |       15238 |
|     103 | 0x3B87      |       15239 |
|     104 | 0x2CC8      |       11464 |
|     105 | 0x2CCB      |       11467 |
|     106 | 0x2CCE      |       11470 |
|     107 | 0x2CD3      |       11475 |
|     108 | 0x2CD5      |       11477 |
|     109 | 0x30DF      |       12511 |
|     110 | 0x30E0      |       12512 |
|     111 | 0x361F      |       13855 |
|     112 | 0x3620      |       13856 |
|     113 | 0x30E1      |       12513 |
|     114 | 0x30E2      |       12514 |
|     115 | 0x30E3      |       12515 |
|     116 | 0x30E4      |       12516 |
|     117 | 0x30E5      |       12517 |
|     118 | 0x3621      |       13857 |
|     119 | 0x30E6      |       12518 |
|     120 | 0x362C      |       13868 |
|     121 | 0x362D      |       13869 |
|     122 | 0x30E7      |       12519 |
|     123 | 0x30E8      |       12520 |
|     124 | 0x3BA1      |       15265 |
|     125 | 0x3BA2      |       15266 |
|     126 | 0x3BA3      |       15267 |
|     127 | 0x3F0A      |       16138 |
|     128 | 0x3F0C      |       16140 |
|     129 | 0x6C0F      |       27663 |
|     130 | 0x6C10      |       27664 |
|     131 | 0x6C11      |       27665 |
|     132 | 0x6C12      |       27666 |
|     133 | 0x6C13      |       27667 |
|     134 | 0x6C14      |       27668 |
|     135 | 0x6C15      |       27669 |
|     136 | 0x6C16      |       27670 |
|     137 | 0x6C17      |       27671 |
|     138 | 0x6C18      |       27672 |
|     139 | 0x6C19      |       27673 |
|     140 | 0x6C1A      |       27674 |
|     141 | 0x6C1B      |       27675 |
|     142 | 0x6C1C      |       27676 |
|     143 | 0x6C1D      |       27677 |
|     144 | 0x6C1E      |       27678 |
|     145 | 0x6C1F      |       27679 |
|     146 | 0x6C20      |       27680 |
|     147 | 0x6C21      |       27681 |
|     148 | 0x6C23      |       27683 |
|     149 | 0x6C8A      |       27786 |
|     150 | 0x6C8B      |       27787 |
|     151 | 0x6C24      |       27684 |
|     152 | 0x6C25      |       27685 |
|     153 | 0x6C26      |       27686 |
|     154 | 0x6C27      |       27687 |
|     155 | 0x6C28      |       27688 |
|     156 | 0x6C29      |       27689 |
|     157 | 0x6C2A      |       27690 |
|     158 | 0x6C2B      |       27691 |
|     159 | 0x6C2C      |       27692 |
|     160 | 0x6C2D      |       27693 |
|     161 | 0x6C2E      |       27694 |
|     162 | 0x6C2F      |       27695 |
|     163 | 0x6C30      |       27696 |
|     164 | 0x6C31      |       27697 |
|     165 | 0x6C32      |       27698 |
|     166 | 0x6C33      |       27699 |
|     167 | 0x6C34      |       27700 |
|     168 | 0x6C35      |       27701 |
|     169 | 0x6C36      |       27702 |
|     170 | 0x6C38      |       27704 |
|     171 | 0x6C39      |       27705 |
|     172 | 0x6C3A      |       27706 |
|     173 | 0x3889      |       14473 |
|     174 | 0x388A      |       14474 |
|     175 | 0x388B      |       14475 |
|     176 | 0x388C      |       14476 |
|     177 | 0x388D      |       14477 |
|     178 | 0x388E      |       14478 |
|     179 | 0x388F      |       14479 |
|     180 | 0x3890      |       14480 |
|     181 | 0x3891      |       14481 |
|     182 | 0x3892      |       14482 |
|     183 | 0x3893      |       14483 |
|     184 | 0x3894      |       14484 |
|     185 | 0x3895      |       14485 |
|     186 | 0x3896      |       14486 |
|     187 | 0x3897      |       14487 |
|     188 | 0x2C1B      |       11291 |
|     189 | 0x2C1E      |       11294 |
|     190 | 0x2C21      |       11297 |
|     191 | 0x2C26      |       11302 |
|     192 | 0x2C28      |       11304 |
|     193 | 0x315E      |       12638 |
|     194 | 0x315F      |       12639 |
|     195 | 0x3160      |       12640 |
|     196 | 0x3161      |       12641 |
|     197 | 0x3162      |       12642 |
|     198 | 0x3163      |       12643 |
|     199 | 0x3164      |       12644 |
|     200 | 0x3165      |       12645 |
|     201 | 0x3166      |       12646 |
|     202 | 0x3167      |       12647 |
|     203 | 0x3168      |       12648 |
|     204 | 0x35D5      |       13781 |
|     205 | 0x35D6      |       13782 |
|     206 | 0x3169      |       12649 |
|     207 | 0x316A      |       12650 |
|     208 | 0x38B9      |       14521 |
|     209 | 0x38BA      |       14522 |
|     210 | 0x38BB      |       14523 |
|     211 | 0x38F2      |       14578 |
|     212 | 0x38F4      |       14580 |
|     213 | 0x6C9F      |       27807 |
|     214 | 0x6CA0      |       27808 |
|     215 | 0x6CA1      |       27809 |
|     216 | 0x6CA2      |       27810 |
|     217 | 0x6CA3      |       27811 |
|     218 | 0x6CA4      |       27812 |
|     219 | 0x6CA5      |       27813 |
|     220 | 0x6CA6      |       27814 |
|     221 | 0x6CA7      |       27815 |
|     222 | 0x6CA8      |       27816 |
|     223 | 0x6CA9      |       27817 |
|     224 | 0x6CAA      |       27818 |
|     225 | 0x6CAB      |       27819 |
|     226 | 0x6CAC      |       27820 |
|     227 | 0x6CAD      |       27821 |
|     228 | 0x6CAE      |       27822 |
|     229 | 0x6CAF      |       27823 |
|     230 | 0x6CB0      |       27824 |
|     231 | 0x6CB1      |       27825 |
|     232 | 0x6CB3      |       27827 |
|     233 | 0x6D16      |       27926 |
|     234 | 0x6D17      |       27927 |
|     235 | 0x6CB4      |       27828 |
|     236 | 0x6CB5      |       27829 |
|     237 | 0x6CB6      |       27830 |
|     238 | 0x6CB7      |       27831 |
|     239 | 0x6CB8      |       27832 |
|     240 | 0x6CB9      |       27833 |
|     241 | 0x6CBA      |       27834 |
|     242 | 0x6CBB      |       27835 |
|     243 | 0x6CBC      |       27836 |
|     244 | 0x6CBD      |       27837 |
|     245 | 0x6CBE      |       27838 |
|     246 | 0x6CBF      |       27839 |
|     247 | 0x6CC0      |       27840 |
|     248 | 0x6CC1      |       27841 |
|     249 | 0x6CC2      |       27842 |
|     250 | 0x6CC3      |       27843 |
|     251 | 0x6CC4      |       27844 |
|     252 | 0x6CC5      |       27845 |
|     253 | 0x6CC6      |       27846 |
|     254 | 0x6CC8      |       27848 |
|     255 | 0x6CC9      |       27849 |
|     256 | 0x6CCA      |       27850 |
|     257 | 0x3A2A      |       14890 |
|     258 | 0x3A2B      |       14891 |
|     259 | 0x3A2C      |       14892 |
|     260 | 0x3A2D      |       14893 |
|     261 | 0x3A2E      |       14894 |
|     262 | 0x3A2F      |       14895 |
|     263 | 0x3A30      |       14896 |
|     264 | 0x3A31      |       14897 |
|     265 | 0x3A32      |       14898 |
|     266 | 0x3A33      |       14899 |
|     267 | 0x3A34      |       14900 |
|     268 | 0x3A35      |       14901 |
|     269 | 0x3A36      |       14902 |
|     270 | 0x3A37      |       14903 |
|     271 | 0x3A38      |       14904 |
|     272 | 0x3AB0      |       15024 |
|     273 | 0x3AB3      |       15027 |
|     274 | 0x3AB6      |       15030 |
|     275 | 0x3ABB      |       15035 |
|     276 | 0x3ABD      |       15037 |
|     277 | 0x3689      |       13961 |
|     278 | 0x368A      |       13962 |
|     279 | 0x368B      |       13963 |
|     280 | 0x368C      |       13964 |
|     281 | 0x368D      |       13965 |
|     282 | 0x368E      |       13966 |
|     283 | 0x368F      |       13967 |
|     284 | 0x3690      |       13968 |
|     285 | 0x3691      |       13969 |
|     286 | 0x3692      |       13970 |
|     287 | 0x3693      |       13971 |
|     288 | 0x3694      |       13972 |
|     289 | 0x3695      |       13973 |
|     290 | 0x3696      |       13974 |
|     291 | 0x3697      |       13975 |
|     292 | 0x3A50      |       14928 |
|     293 | 0x3A51      |       14929 |
|     294 | 0x3A52      |       14930 |
|     295 | 0x3A9A      |       15002 |
|     296 | 0x3A9C      |       15004 |
|     297 | 0x6D27      |       27943 |
|     298 | 0x6D28      |       27944 |
|     299 | 0x6D29      |       27945 |
|     300 | 0x6D2A      |       27946 |
|     301 | 0x6D2B      |       27947 |
|     302 | 0x6D2C      |       27948 |
|     303 | 0x6D2D      |       27949 |
|     304 | 0x6D2E      |       27950 |
|     305 | 0x6D2F      |       27951 |
|     306 | 0x6D30      |       27952 |
|     307 | 0x6D31      |       27953 |
|     308 | 0x6D32      |       27954 |
|     309 | 0x6D33      |       27955 |
|     310 | 0x6D34      |       27956 |
|     311 | 0x6D35      |       27957 |
|     312 | 0x6D36      |       27958 |
|     313 | 0x6D37      |       27959 |
|     314 | 0x6D38      |       27960 |
|     315 | 0x6D39      |       27961 |
|     316 | 0x6D3B      |       27963 |
|     317 | 0x6DA2      |       28066 |
|     318 | 0x6DA3      |       28067 |
|     319 | 0x6D3C      |       27964 |
|     320 | 0x6D3D      |       27965 |
|     321 | 0x6D3E      |       27966 |
|     322 | 0x6D3F      |       27967 |
|     323 | 0x6D40      |       27968 |
|     324 | 0x6D41      |       27969 |
|     325 | 0x6D42      |       27970 |
|     326 | 0x6D43      |       27971 |
|     327 | 0x6D44      |       27972 |
|     328 | 0x6D45      |       27973 |
|     329 | 0x6D46      |       27974 |
|     330 | 0x6D47      |       27975 |
|     331 | 0x6D48      |       27976 |
|     332 | 0x6D49      |       27977 |
|     333 | 0x6D4A      |       27978 |
|     334 | 0x6D4B      |       27979 |
|     335 | 0x6D4C      |       27980 |
|     336 | 0x6D4D      |       27981 |
|     337 | 0x6D4E      |       27982 |
|     338 | 0x6D50      |       27984 |
|     339 | 0x6D51      |       27985 |
|     340 | 0x6D52      |       27986 |
|     341 | 0x3CC9      |       15561 |
|     342 | 0x3CCA      |       15562 |
|     343 | 0x3CCB      |       15563 |
|     344 | 0x3CCC      |       15564 |
|     345 | 0x3CCD      |       15565 |
|     346 | 0x3CCE      |       15566 |
|     347 | 0x3CCF      |       15567 |
|     348 | 0x3CD0      |       15568 |
|     349 | 0x3CD1      |       15569 |
|     350 | 0x3CD2      |       15570 |
|     351 | 0x3CD3      |       15571 |
|     352 | 0x3CD4      |       15572 |
|     353 | 0x3CD5      |       15573 |
|     354 | 0x3CD6      |       15574 |
|     355 | 0x3CD7      |       15575 |
|     356 | 0x3FD9      |       16345 |
|     357 | 0x3FDC      |       16348 |
|     358 | 0x3FDF      |       16351 |
|     359 | 0x3FE5      |       16357 |
|     360 | 0x3FE7      |       16359 |
|     361 | 0x3786      |       14214 |
|     362 | 0x3787      |       14215 |
|     363 | 0x3788      |       14216 |
|     364 | 0x3789      |       14217 |
|     365 | 0x378A      |       14218 |
|     366 | 0x378B      |       14219 |
|     367 | 0x378C      |       14220 |
|     368 | 0x378D      |       14221 |
|     369 | 0x378E      |       14222 |
|     370 | 0x378F      |       14223 |
|     371 | 0x3790      |       14224 |
|     372 | 0x3791      |       14225 |
|     373 | 0x3792      |       14226 |
|     374 | 0x3793      |       14227 |
|     375 | 0x3794      |       14228 |
|     376 | 0x3CF0      |       15600 |
|     377 | 0x3CF1      |       15601 |
|     378 | 0x3CF2      |       15602 |
|     379 | 0x3D2B      |       15659 |
|     380 | 0x3FB7      |       16311 |
|     381 | 0x6DBA      |       28090 |
|     382 | 0x6DBB      |       28091 |
|     383 | 0x6DBC      |       28092 |
|     384 | 0x6DBD      |       28093 |
|     385 | 0x6DBE      |       28094 |
|     386 | 0x6DBF      |       28095 |
|     387 | 0x6DC0      |       28096 |
|     388 | 0x6DC1      |       28097 |
|     389 | 0x6DC2      |       28098 |
|     390 | 0x6DC3      |       28099 |
|     391 | 0x6DC4      |       28100 |
|     392 | 0x6DC5      |       28101 |
|     393 | 0x6DC6      |       28102 |
|     394 | 0x6DC7      |       28103 |
|     395 | 0x6DC8      |       28104 |
|     396 | 0x6DC9      |       28105 |
|     397 | 0x6DCA      |       28106 |
|     398 | 0x6DCB      |       28107 |
|     399 | 0x6DCC      |       28108 |
|     400 | 0x6DCE      |       28110 |
|     401 | 0x6E2E      |       28206 |
|     402 | 0x6E2F      |       28207 |
|     403 | 0x6DCF      |       28111 |
|     404 | 0x6DD0      |       28112 |
|     405 | 0x6DD1      |       28113 |
|     406 | 0x6DD2      |       28114 |
|     407 | 0x6DD3      |       28115 |
|     408 | 0x6DD4      |       28116 |
|     409 | 0x6DD5      |       28117 |
|     410 | 0x6DD6      |       28118 |
|     411 | 0x6DD7      |       28119 |
|     412 | 0x6DD8      |       28120 |
|     413 | 0x6DD9      |       28121 |
|     414 | 0x6DDA      |       28122 |
|     415 | 0x6DDB      |       28123 |
|     416 | 0x6DDC      |       28124 |
|     417 | 0x6DDD      |       28125 |
|     418 | 0x6DDE      |       28126 |
|     419 | 0x6DDF      |       28127 |
|     420 | 0x6DE0      |       28128 |
|     421 | 0x6DE1      |       28129 |
|     422 | 0x6DE3      |       28131 |
|     423 | 0x6DE4      |       28132 |
|     424 | 0x6DE5      |       28133 |
|     425 | 0x3BF8      |       15352 |
|     426 | 0x3BF9      |       15353 |
|     427 | 0x3BFA      |       15354 |
|     428 | 0x3BFB      |       15355 |
|     429 | 0x3BFC      |       15356 |
|     430 | 0x3BFD      |       15357 |
|     431 | 0x3BFE      |       15358 |
|     432 | 0x3BFF      |       15359 |
|     433 | 0x3C00      |       15360 |
|     434 | 0x3C01      |       15361 |
|     435 | 0x3C02      |       15362 |
|     436 | 0x3C03      |       15363 |
|     437 | 0x3C04      |       15364 |
|     438 | 0x3C05      |       15365 |
|     439 | 0x3C06      |       15366 |
|     440 | 0x2C75      |       11381 |
|     441 | 0x2C78      |       11384 |
|     442 | 0x2C7B      |       11387 |
|     443 | 0x2C81      |       11393 |
|     444 | 0x2C83      |       11395 |
|     445 | 0x3709      |       14089 |
|     446 | 0x370A      |       14090 |
|     447 | 0x370B      |       14091 |
|     448 | 0x370C      |       14092 |
|     449 | 0x370D      |       14093 |
|     450 | 0x370E      |       14094 |
|     451 | 0x370F      |       14095 |
|     452 | 0x3710      |       14096 |
|     453 | 0x3711      |       14097 |
|     454 | 0x3712      |       14098 |
|     455 | 0x3713      |       14099 |
|     456 | 0x3714      |       14100 |
|     457 | 0x3715      |       14101 |
|     458 | 0x3716      |       14102 |
|     459 | 0x3717      |       14103 |
|     460 | 0x3D44      |       15684 |
|     461 | 0x3D45      |       15685 |
|     462 | 0x3D46      |       15686 |
|     463 | 0x3D82      |       15746 |
|     464 | 0x3D84      |       15748 |
|     465 | 0x6E3F      |       28223 |
|     466 | 0x6E40      |       28224 |
|     467 | 0x6E41      |       28225 |
|     468 | 0x6E42      |       28226 |
|     469 | 0x6E43      |       28227 |
|     470 | 0x6E44      |       28228 |
|     471 | 0x6E45      |       28229 |
|     472 | 0x6E46      |       28230 |
|     473 | 0x6E47      |       28231 |
|     474 | 0x6E48      |       28232 |
|     475 | 0x6E49      |       28233 |
|     476 | 0x6E4A      |       28234 |
|     477 | 0x6E4B      |       28235 |
|     478 | 0x6E4C      |       28236 |
|     479 | 0x6E4D      |       28237 |
|     480 | 0x6E4E      |       28238 |
|     481 | 0x6E4F      |       28239 |
|     482 | 0x6E50      |       28240 |
|     483 | 0x6E51      |       28241 |
|     484 | 0x6E53      |       28243 |
|     485 | 0x6EBA      |       28346 |
|     486 | 0x6EBB      |       28347 |
|     487 | 0x6E54      |       28244 |
|     488 | 0x6E55      |       28245 |
|     489 | 0x6E56      |       28246 |
|     490 | 0x6E57      |       28247 |
|     491 | 0x6E58      |       28248 |
|     492 | 0x6E59      |       28249 |
|     493 | 0x6E5A      |       28250 |
|     494 | 0x6E5B      |       28251 |
|     495 | 0x6E5C      |       28252 |
|     496 | 0x6E5D      |       28253 |
|     497 | 0x6E5E      |       28254 |
|     498 | 0x6E5F      |       28255 |
|     499 | 0x6E60      |       28256 |
|     500 | 0x6E61      |       28257 |
|     501 | 0x6E62      |       28258 |
|     502 | 0x6E63      |       28259 |
|     503 | 0x6E64      |       28260 |
|     504 | 0x6E65      |       28261 |
|     505 | 0x6E66      |       28262 |
|     506 | 0x6E68      |       28264 |
|     507 | 0x6E69      |       28265 |
|     508 | 0x6E6A      |       28266 |
|     509 | 0x0357      |         855 |
|     510 | 0x0337      |         823 |
|     511 | 0x0924      |        2340 |
|     512 | 0x08F0      |        2288 |
|     513 | 0x06A3      |        1699 |
|     514 | 0x02F0      |         752 |
|     515 | 0x0298      |         664 |
|     516 | 0x0291      |         657 |
|     517 | 0x035E      |         862 |
|     518 | 0x09AC      |        2476 |
|     519 | 0x046C      |        1132 |
|     520 | 0x0898      |        2200 |
|     521 | 0x0521      |        1313 |
|     522 | 0x029C      |         668 |
|     523 | 0x02F6      |         758 |
|     524 | 0x0292      |         658 |
|     525 | 0x299A      |       10650 |
|     526 | 0x299B      |       10651 |
|     527 | 0x299C      |       10652 |
|     528 | 0x299D      |       10653 |
|     529 | 0x299E      |       10654 |
|     530 | 0x299F      |       10655 |
|     531 | 0x29A0      |       10656 |
|     532 | 0x29A1      |       10657 |
|     533 | 0x29A2      |       10658 |
|     534 | 0x29A3      |       10659 |
|     535 | 0x29A4      |       10660 |
|     536 | 0x29A5      |       10661 |
|     537 | 0x29A6      |       10662 |
|     538 | 0x29A7      |       10663 |
|     539 | 0x29A8      |       10664 |
|     540 | 0x29A9      |       10665 |
|     541 | 0x29AA      |       10666 |
|     542 | 0x29AB      |       10667 |
|     543 | 0x29AC      |       10668 |
|     544 | 0x29AD      |       10669 |
|     545 | 0x3B8D      |       15245 |
|     546 | 0x3B8E      |       15246 |
|     547 | 0x3B8F      |       15247 |
|     548 | 0x3B90      |       15248 |
|     549 | 0x3B91      |       15249 |
|     550 | 0x3B92      |       15250 |
|     551 | 0x3B93      |       15251 |
|     552 | 0x3B94      |       15252 |
|     553 | 0x3B95      |       15253 |
|     554 | 0x3B96      |       15254 |
|     555 | 0x3B97      |       15255 |
|     556 | 0x3B98      |       15256 |
|     557 | 0x3B99      |       15257 |
|     558 | 0x3B9A      |       15258 |
|     559 | 0x3B9B      |       15259 |
|     560 | 0x2CCA      |       11466 |
|     561 | 0x2CCD      |       11469 |
|     562 | 0x2CD0      |       11472 |
|     563 | 0x2CD7      |       11479 |
|     564 | 0x2CD9      |       11481 |
|     565 | 0x3AE0      |       15072 |
|     566 | 0x3AE1      |       15073 |
|     567 | 0x3AE2      |       15074 |
|     568 | 0x3AE3      |       15075 |
|     569 | 0x3AE4      |       15076 |
|     570 | 0x3AE5      |       15077 |
|     571 | 0x3AE6      |       15078 |
|     572 | 0x3AE7      |       15079 |
|     573 | 0x3AE8      |       15080 |
|     574 | 0x3AE9      |       15081 |
|     575 | 0x3AEA      |       15082 |
|     576 | 0x3AEB      |       15083 |
|     577 | 0x3AEC      |       15084 |
|     578 | 0x3AED      |       15085 |
|     579 | 0x3AEE      |       15086 |
|     580 | 0x2CC9      |       11465 |
|     581 | 0x2CCC      |       11468 |
|     582 | 0x2CCF      |       11471 |
|     583 | 0x2CD6      |       11478 |
|     584 | 0x2CD8      |       11480 |
|     585 | 0x6800      |       26624 |
|     586 | 0x6802      |       26626 |
|     587 | 0x6804      |       26628 |
|     588 | 0x6806      |       26630 |
|     589 | 0x6808      |       26632 |
|     590 | 0x680A      |       26634 |
|     591 | 0x680C      |       26636 |
|     592 | 0x680E      |       26638 |
|     593 | 0x6810      |       26640 |
|     594 | 0x6812      |       26642 |
|     595 | 0x6814      |       26644 |
|     596 | 0x6816      |       26646 |
|     597 | 0x6818      |       26648 |
|     598 | 0x681A      |       26650 |
|     599 | 0x681C      |       26652 |
|     600 | 0x681E      |       26654 |
|     601 | 0x6820      |       26656 |
|     602 | 0x6822      |       26658 |
|     603 | 0x6824      |       26660 |
|     604 | 0x6826      |       26662 |
|     605 | 0x6828      |       26664 |
|     606 | 0x682A      |       26666 |
|     607 | 0x6801      |       26625 |
|     608 | 0x6803      |       26627 |
|     609 | 0x6805      |       26629 |
|     610 | 0x6807      |       26631 |
|     611 | 0x6809      |       26633 |
|     612 | 0x680B      |       26635 |
|     613 | 0x680D      |       26637 |
|     614 | 0x680F      |       26639 |
|     615 | 0x6811      |       26641 |
|     616 | 0x6813      |       26643 |
|     617 | 0x6815      |       26645 |
|     618 | 0x6817      |       26647 |
|     619 | 0x6819      |       26649 |
|     620 | 0x681B      |       26651 |
|     621 | 0x681D      |       26653 |
|     622 | 0x681F      |       26655 |
|     623 | 0x6821      |       26657 |
|     624 | 0x6823      |       26659 |
|     625 | 0x6825      |       26661 |
|     626 | 0x6827      |       26663 |
|     627 | 0x6829      |       26665 |
|     628 | 0x682B      |       26667 |
|     629 | 0x29AE      |       10670 |
|     630 | 0x29AF      |       10671 |
|     631 | 0x29B0      |       10672 |
|     632 | 0x29B1      |       10673 |
|     633 | 0x29B2      |       10674 |
|     634 | 0x29B3      |       10675 |
|     635 | 0x29B4      |       10676 |
|     636 | 0x29B5      |       10677 |
|     637 | 0x29B6      |       10678 |
|     638 | 0x29B7      |       10679 |
|     639 | 0x29B8      |       10680 |
|     640 | 0x29B9      |       10681 |
|     641 | 0x29BA      |       10682 |
|     642 | 0x29BB      |       10683 |
|     643 | 0x29BC      |       10684 |
|     644 | 0x29BD      |       10685 |
|     645 | 0x29BE      |       10686 |
|     646 | 0x29BF      |       10687 |
|     647 | 0x29C0      |       10688 |
|     648 | 0x29C1      |       10689 |
|     649 | 0x38A4      |       14500 |
|     650 | 0x38A5      |       14501 |
|     651 | 0x38A6      |       14502 |
|     652 | 0x38A7      |       14503 |
|     653 | 0x38A8      |       14504 |
|     654 | 0x38A9      |       14505 |
|     655 | 0x38AA      |       14506 |
|     656 | 0x38AB      |       14507 |
|     657 | 0x38AC      |       14508 |
|     658 | 0x38AD      |       14509 |
|     659 | 0x38AE      |       14510 |
|     660 | 0x38AF      |       14511 |
|     661 | 0x38B0      |       14512 |
|     662 | 0x38B1      |       14513 |
|     663 | 0x38B2      |       14514 |
|     664 | 0x2C1D      |       11293 |
|     665 | 0x2C20      |       11296 |
|     666 | 0x2C23      |       11299 |
|     667 | 0x2C2A      |       11306 |
|     668 | 0x2C2C      |       11308 |
|     669 | 0x3AEF      |       15087 |
|     670 | 0x3AF0      |       15088 |
|     671 | 0x3AF1      |       15089 |
|     672 | 0x3AF2      |       15090 |
|     673 | 0x3AF3      |       15091 |
|     674 | 0x3AF4      |       15092 |
|     675 | 0x3AF5      |       15093 |
|     676 | 0x3AF6      |       15094 |
|     677 | 0x3AF7      |       15095 |
|     678 | 0x3AF8      |       15096 |
|     679 | 0x3AF9      |       15097 |
|     680 | 0x3AFA      |       15098 |
|     681 | 0x3AFB      |       15099 |
|     682 | 0x3AFC      |       15100 |
|     683 | 0x3AFD      |       15101 |
|     684 | 0x2C1C      |       11292 |
|     685 | 0x2C1F      |       11295 |
|     686 | 0x2C22      |       11298 |
|     687 | 0x2C29      |       11305 |
|     688 | 0x2C2B      |       11307 |
|     689 | 0x68B0      |       26800 |
|     690 | 0x68B2      |       26802 |
|     691 | 0x68B4      |       26804 |
|     692 | 0x68B6      |       26806 |
|     693 | 0x68B8      |       26808 |
|     694 | 0x68BA      |       26810 |
|     695 | 0x68BC      |       26812 |
|     696 | 0x68BE      |       26814 |
|     697 | 0x68C0      |       26816 |
|     698 | 0x68C2      |       26818 |
|     699 | 0x68C4      |       26820 |
|     700 | 0x68C6      |       26822 |
|     701 | 0x68C8      |       26824 |
|     702 | 0x68CA      |       26826 |
|     703 | 0x68CC      |       26828 |
|     704 | 0x68CE      |       26830 |
|     705 | 0x68D0      |       26832 |
|     706 | 0x68D2      |       26834 |
|     707 | 0x68D4      |       26836 |
|     708 | 0x68D6      |       26838 |
|     709 | 0x68D8      |       26840 |
|     710 | 0x68DA      |       26842 |
|     711 | 0x68B1      |       26801 |
|     712 | 0x68B3      |       26803 |
|     713 | 0x68B5      |       26805 |
|     714 | 0x68B7      |       26807 |
|     715 | 0x68B9      |       26809 |
|     716 | 0x68BB      |       26811 |
|     717 | 0x68BD      |       26813 |
|     718 | 0x68BF      |       26815 |
|     719 | 0x68C1      |       26817 |
|     720 | 0x68C3      |       26819 |
|     721 | 0x68C5      |       26821 |
|     722 | 0x68C7      |       26823 |
|     723 | 0x68C9      |       26825 |
|     724 | 0x68CB      |       26827 |
|     725 | 0x68CD      |       26829 |
|     726 | 0x68CF      |       26831 |
|     727 | 0x68D1      |       26833 |
|     728 | 0x68D3      |       26835 |
|     729 | 0x68D5      |       26837 |
|     730 | 0x68D7      |       26839 |
|     731 | 0x68D9      |       26841 |
|     732 | 0x68DB      |       26843 |
|     733 | 0x29C2      |       10690 |
|     734 | 0x29C3      |       10691 |
|     735 | 0x29C4      |       10692 |
|     736 | 0x29C5      |       10693 |
|     737 | 0x29C6      |       10694 |
|     738 | 0x29C7      |       10695 |
|     739 | 0x29C8      |       10696 |
|     740 | 0x29C9      |       10697 |
|     741 | 0x29CA      |       10698 |
|     742 | 0x29CB      |       10699 |
|     743 | 0x29CC      |       10700 |
|     744 | 0x29CD      |       10701 |
|     745 | 0x29CE      |       10702 |
|     746 | 0x29CF      |       10703 |
|     747 | 0x29D0      |       10704 |
|     748 | 0x29D1      |       10705 |
|     749 | 0x29D2      |       10706 |
|     750 | 0x29D3      |       10707 |
|     751 | 0x29D4      |       10708 |
|     752 | 0x29D5      |       10709 |
|     753 | 0x3A3D      |       14909 |
|     754 | 0x3A3E      |       14910 |
|     755 | 0x3A3F      |       14911 |
|     756 | 0x3A40      |       14912 |
|     757 | 0x3A41      |       14913 |
|     758 | 0x3A42      |       14914 |
|     759 | 0x3A43      |       14915 |
|     760 | 0x3A44      |       14916 |
|     761 | 0x3A45      |       14917 |
|     762 | 0x3A46      |       14918 |
|     763 | 0x3A47      |       14919 |
|     764 | 0x3A48      |       14920 |
|     765 | 0x3A49      |       14921 |
|     766 | 0x3A4A      |       14922 |
|     767 | 0x3A4B      |       14923 |
|     768 | 0x3AB2      |       15026 |
|     769 | 0x3AB5      |       15029 |
|     770 | 0x3AB8      |       15032 |
|     771 | 0x3ABF      |       15039 |
|     772 | 0x3AC1      |       15041 |
|     773 | 0x3AFE      |       15102 |
|     774 | 0x3AFF      |       15103 |
|     775 | 0x3B00      |       15104 |
|     776 | 0x3B01      |       15105 |
|     777 | 0x3B02      |       15106 |
|     778 | 0x3B03      |       15107 |
|     779 | 0x3B04      |       15108 |
|     780 | 0x3B05      |       15109 |
|     781 | 0x3B06      |       15110 |
|     782 | 0x3B07      |       15111 |
|     783 | 0x3B08      |       15112 |
|     784 | 0x3B09      |       15113 |
|     785 | 0x3B0A      |       15114 |
|     786 | 0x3B0B      |       15115 |
|     787 | 0x3B0C      |       15116 |
|     788 | 0x3AB1      |       15025 |
|     789 | 0x3AB4      |       15028 |
|     790 | 0x3AB7      |       15031 |
|     791 | 0x3ABE      |       15038 |
|     792 | 0x3AC0      |       15040 |
|     793 | 0x6960      |       26976 |
|     794 | 0x6962      |       26978 |
|     795 | 0x6964      |       26980 |
|     796 | 0x6966      |       26982 |
|     797 | 0x6968      |       26984 |
|     798 | 0x696A      |       26986 |
|     799 | 0x696C      |       26988 |
|     800 | 0x696E      |       26990 |
|     801 | 0x6970      |       26992 |
|     802 | 0x6972      |       26994 |
|     803 | 0x6974      |       26996 |
|     804 | 0x6976      |       26998 |
|     805 | 0x6978      |       27000 |
|     806 | 0x697A      |       27002 |
|     807 | 0x697C      |       27004 |
|     808 | 0x697E      |       27006 |
|     809 | 0x6980      |       27008 |
|     810 | 0x6982      |       27010 |
|     811 | 0x6984      |       27012 |
|     812 | 0x6986      |       27014 |
|     813 | 0x6988      |       27016 |
|     814 | 0x698A      |       27018 |
|     815 | 0x6961      |       26977 |
|     816 | 0x6963      |       26979 |
|     817 | 0x6965      |       26981 |
|     818 | 0x6967      |       26983 |
|     819 | 0x6969      |       26985 |
|     820 | 0x696B      |       26987 |
|     821 | 0x696D      |       26989 |
|     822 | 0x696F      |       26991 |
|     823 | 0x6971      |       26993 |
|     824 | 0x6973      |       26995 |
|     825 | 0x6975      |       26997 |
|     826 | 0x6977      |       26999 |
|     827 | 0x6979      |       27001 |
|     828 | 0x697B      |       27003 |
|     829 | 0x697D      |       27005 |
|     830 | 0x697F      |       27007 |
|     831 | 0x6981      |       27009 |
|     832 | 0x6983      |       27011 |
|     833 | 0x6985      |       27013 |
|     834 | 0x6987      |       27015 |
|     835 | 0x6989      |       27017 |
|     836 | 0x698B      |       27019 |
|     837 | 0x29D6      |       10710 |
|     838 | 0x29D7      |       10711 |
|     839 | 0x29D8      |       10712 |
|     840 | 0x29D9      |       10713 |
|     841 | 0x29DA      |       10714 |
|     842 | 0x29DB      |       10715 |
|     843 | 0x29DC      |       10716 |
|     844 | 0x29DD      |       10717 |
|     845 | 0x29DE      |       10718 |
|     846 | 0x29DF      |       10719 |
|     847 | 0x29E0      |       10720 |
|     848 | 0x29E1      |       10721 |
|     849 | 0x29E2      |       10722 |
|     850 | 0x29E3      |       10723 |
|     851 | 0x29E4      |       10724 |
|     852 | 0x29E5      |       10725 |
|     853 | 0x29E6      |       10726 |
|     854 | 0x29E7      |       10727 |
|     855 | 0x29E8      |       10728 |
|     856 | 0x29E9      |       10729 |
|     857 | 0x3CDC      |       15580 |
|     858 | 0x3CDD      |       15581 |
|     859 | 0x3CDE      |       15582 |
|     860 | 0x3CDF      |       15583 |
|     861 | 0x3CE0      |       15584 |
|     862 | 0x3CE1      |       15585 |
|     863 | 0x3CE2      |       15586 |
|     864 | 0x3CE3      |       15587 |
|     865 | 0x3CE4      |       15588 |
|     866 | 0x3CE5      |       15589 |
|     867 | 0x3CE6      |       15590 |
|     868 | 0x3CE7      |       15591 |
|     869 | 0x3CE8      |       15592 |
|     870 | 0x3CE9      |       15593 |
|     871 | 0x3CEA      |       15594 |
|     872 | 0x3FDB      |       16347 |
|     873 | 0x3FDE      |       16350 |
|     874 | 0x3FE1      |       16353 |
|     875 | 0x3FE9      |       16361 |
|     876 | 0x3FEB      |       16363 |
|     877 | 0x3B0D      |       15117 |
|     878 | 0x3B0E      |       15118 |
|     879 | 0x3B0F      |       15119 |
|     880 | 0x3B10      |       15120 |
|     881 | 0x3B11      |       15121 |
|     882 | 0x3B12      |       15122 |
|     883 | 0x3B13      |       15123 |
|     884 | 0x3B14      |       15124 |
|     885 | 0x3B15      |       15125 |
|     886 | 0x3B16      |       15126 |
|     887 | 0x3B17      |       15127 |
|     888 | 0x3B18      |       15128 |
|     889 | 0x3B19      |       15129 |
|     890 | 0x3B1A      |       15130 |
|     891 | 0x3B1B      |       15131 |
|     892 | 0x3FDA      |       16346 |
|     893 | 0x3FDD      |       16349 |
|     894 | 0x3FE0      |       16352 |
|     895 | 0x3FE8      |       16360 |
|     896 | 0x3FEA      |       16362 |
|     897 | 0x6A10      |       27152 |
|     898 | 0x6A12      |       27154 |
|     899 | 0x6A14      |       27156 |
|     900 | 0x6A16      |       27158 |
|     901 | 0x6A18      |       27160 |
|     902 | 0x6A1A      |       27162 |
|     903 | 0x6A1C      |       27164 |
|     904 | 0x6A1E      |       27166 |
|     905 | 0x6A20      |       27168 |
|     906 | 0x6A22      |       27170 |
|     907 | 0x6A24      |       27172 |
|     908 | 0x6A26      |       27174 |
|     909 | 0x6A28      |       27176 |
|     910 | 0x6A2A      |       27178 |
|     911 | 0x6A2C      |       27180 |
|     912 | 0x6A2E      |       27182 |
|     913 | 0x6A30      |       27184 |
|     914 | 0x6A32      |       27186 |
|     915 | 0x6A34      |       27188 |
|     916 | 0x6A36      |       27190 |
|     917 | 0x6A38      |       27192 |
|     918 | 0x6A3A      |       27194 |
|     919 | 0x6A11      |       27153 |
|     920 | 0x6A13      |       27155 |
|     921 | 0x6A15      |       27157 |
|     922 | 0x6A17      |       27159 |
|     923 | 0x6A19      |       27161 |
|     924 | 0x6A1B      |       27163 |
|     925 | 0x6A1D      |       27165 |
|     926 | 0x6A1F      |       27167 |
|     927 | 0x6A21      |       27169 |
|     928 | 0x6A23      |       27171 |
|     929 | 0x6A25      |       27173 |
|     930 | 0x6A27      |       27175 |
|     931 | 0x6A29      |       27177 |
|     932 | 0x6A2B      |       27179 |
|     933 | 0x6A2D      |       27181 |
|     934 | 0x6A2F      |       27183 |
|     935 | 0x6A31      |       27185 |
|     936 | 0x6A33      |       27187 |
|     937 | 0x6A35      |       27189 |
|     938 | 0x6A37      |       27191 |
|     939 | 0x6A39      |       27193 |
|     940 | 0x6A3B      |       27195 |
|     941 | 0x29EA      |       10730 |
|     942 | 0x29EB      |       10731 |
|     943 | 0x29EC      |       10732 |
|     944 | 0x29ED      |       10733 |
|     945 | 0x29EE      |       10734 |
|     946 | 0x29EF      |       10735 |
|     947 | 0x29F0      |       10736 |
|     948 | 0x29F1      |       10737 |
|     949 | 0x29F2      |       10738 |
|     950 | 0x29F3      |       10739 |
|     951 | 0x29F4      |       10740 |
|     952 | 0x29F5      |       10741 |
|     953 | 0x29F6      |       10742 |
|     954 | 0x29F7      |       10743 |
|     955 | 0x29F8      |       10744 |
|     956 | 0x29F9      |       10745 |
|     957 | 0x29FA      |       10746 |
|     958 | 0x29FB      |       10747 |
|     959 | 0x29FC      |       10748 |
|     960 | 0x29FD      |       10749 |
|     961 | 0x3D31      |       15665 |
|     962 | 0x3D32      |       15666 |
|     963 | 0x3D33      |       15667 |
|     964 | 0x3D34      |       15668 |
|     965 | 0x3D35      |       15669 |
|     966 | 0x3D36      |       15670 |
|     967 | 0x3D37      |       15671 |
|     968 | 0x3D38      |       15672 |
|     969 | 0x3D39      |       15673 |
|     970 | 0x3D3A      |       15674 |
|     971 | 0x3D3B      |       15675 |
|     972 | 0x3D3C      |       15676 |
|     973 | 0x3D3D      |       15677 |
|     974 | 0x3D3E      |       15678 |
|     975 | 0x3D3F      |       15679 |
|     976 | 0x2C77      |       11383 |
|     977 | 0x2C7A      |       11386 |
|     978 | 0x2C7D      |       11389 |
|     979 | 0x2C85      |       11397 |
|     980 | 0x2C87      |       11399 |
|     981 | 0x3B1C      |       15132 |
|     982 | 0x3B1D      |       15133 |
|     983 | 0x3B1E      |       15134 |
|     984 | 0x3B1F      |       15135 |
|     985 | 0x3B20      |       15136 |
|     986 | 0x3B21      |       15137 |
|     987 | 0x3B22      |       15138 |
|     988 | 0x3B23      |       15139 |
|     989 | 0x3B24      |       15140 |
|     990 | 0x3B25      |       15141 |
|     991 | 0x3B26      |       15142 |
|     992 | 0x3B27      |       15143 |
|     993 | 0x3B28      |       15144 |
|     994 | 0x3B29      |       15145 |
|     995 | 0x3B2A      |       15146 |
|     996 | 0x2C76      |       11382 |
|     997 | 0x2C79      |       11385 |
|     998 | 0x2C7C      |       11388 |
|     999 | 0x2C84      |       11396 |
|    1000 | 0x2C86      |       11398 |
|    1001 | 0x6AC0      |       27328 |
|    1002 | 0x6AC2      |       27330 |
|    1003 | 0x6AC4      |       27332 |
|    1004 | 0x6AC6      |       27334 |
|    1005 | 0x6AC8      |       27336 |
|    1006 | 0x6ACA      |       27338 |
|    1007 | 0x6ACC      |       27340 |
|    1008 | 0x6ACE      |       27342 |
|    1009 | 0x6AD0      |       27344 |
|    1010 | 0x6AD2      |       27346 |
|    1011 | 0x6AD4      |       27348 |
|    1012 | 0x6AD6      |       27350 |
|    1013 | 0x6AD8      |       27352 |
|    1014 | 0x6ADA      |       27354 |
|    1015 | 0x6ADC      |       27356 |
|    1016 | 0x6ADE      |       27358 |
|    1017 | 0x6AE0      |       27360 |
|    1018 | 0x6AE2      |       27362 |
|    1019 | 0x6AE4      |       27364 |
|    1020 | 0x6AE6      |       27366 |
|    1021 | 0x6AE8      |       27368 |
|    1022 | 0x6AEA      |       27370 |
|    1023 | 0x6AC1      |       27329 |
|    1024 | 0x6AC3      |       27331 |
|    1025 | 0x6AC5      |       27333 |
|    1026 | 0x6AC7      |       27335 |
|    1027 | 0x6AC9      |       27337 |
|    1028 | 0x6ACB      |       27339 |
|    1029 | 0x6ACD      |       27341 |
|    1030 | 0x6ACF      |       27343 |
|    1031 | 0x6AD1      |       27345 |
|    1032 | 0x6AD3      |       27347 |
|    1033 | 0x6AD5      |       27349 |
|    1034 | 0x6AD7      |       27351 |
|    1035 | 0x6AD9      |       27353 |
|    1036 | 0x6ADB      |       27355 |
|    1037 | 0x6ADD      |       27357 |
|    1038 | 0x6ADF      |       27359 |
|    1039 | 0x6AE1      |       27361 |
|    1040 | 0x6AE3      |       27363 |
|    1041 | 0x6AE5      |       27365 |
|    1042 | 0x6AE7      |       27367 |
|    1043 | 0x6AE9      |       27369 |
|    1044 | 0x6AEB      |       27371 |
|    1045 | 0x05BD      |        1469 |
|    1046 | 0x05EC      |        1516 |
|    1047 | 0x05BE      |        1470 |
|    1048 | 0x05B2      |        1458 |
|    1049 | 0x05BA      |        1466 |
|    1050 | 0x05B8      |        1464 |
|    1051 | 0x05B0      |        1456 |
|    1052 | 0x05AD      |        1453 |
|    1053 | 0x05AA      |        1450 |
|    1054 | 0x0D77      |        3447 |
|    1055 | 0x0DA4      |        3492 |
|    1056 | 0x0DA3      |        3491 |
|    1057 | 0x0DA2      |        3490 |
|    1058 | 0x0D75      |        3445 |
|    1059 | 0x0D79      |        3449 |
|    1060 | 0x0530      |        1328 |
|    1061 | 0x0536      |        1334 |
|    1062 | 0x053F      |        1343 |
|    1063 | 0x0542      |        1346 |
|    1064 | 0x054E      |        1358 |
|    1065 | 0x0554      |        1364 |
|    1066 | 0x055A      |        1370 |
|    1067 | 0x0560      |        1376 |
|    1068 | 0x0566      |        1382 |
|    1069 | 0x056C      |        1388 |
|    1070 | 0x0575      |        1397 |
|    1071 | 0x0578      |        1400 |
|    1072 | 0x057E      |        1406 |
|    1073 | 0x2D0E      |       11534 |
|    1074 | 0x058A      |        1418 |
|    1075 | 0x0590      |        1424 |
|    1076 | 0x0596      |        1430 |
|    1077 | 0x1D12      |        7442 |
|    1078 | 0x05A2      |        1442 |
|    1079 | 0x05AB      |        1451 |
|    1080 | 0x05AE      |        1454 |
|    1081 | 0x0531      |        1329 |
|    1082 | 0x0537      |        1335 |
|    1083 | 0x4D02      |       19714 |
|    1084 | 0x1D03      |        7427 |
|    1085 | 0x1D04      |        7428 |
|    1086 | 0x054F      |        1359 |
|    1087 | 0x0555      |        1365 |
|    1088 | 0x0D07      |        3335 |
|    1089 | 0x0561      |        1377 |
|    1090 | 0x0567      |        1383 |
|    1091 | 0x056D      |        1389 |
|    1092 | 0x0573      |        1395 |
|    1093 | 0x0579      |        1401 |
|    1094 | 0x1D0D      |        7437 |
|    1095 | 0x0584      |        1412 |
|    1096 | 0x058B      |        1419 |
|    1097 | 0x0591      |        1425 |
|    1098 | 0x1D11      |        7441 |
|    1099 | 0x059C      |        1436 |
|    1100 | 0x05A3      |        1443 |
|    1101 | 0x2D14      |       11540 |
|    1102 | 0x0D15      |        3349 |
|    1103 | 0x1500      |        5376 |
|    1104 | 0x0538      |        1336 |
|    1105 | 0x053D      |        1341 |
|    1106 | 0x0543      |        1347 |
|    1107 | 0x054A      |        1354 |
|    1108 | 0x0D05      |        3333 |
|    1109 | 0x0556      |        1366 |
|    1110 | 0x055B      |        1371 |
|    1111 | 0x0562      |        1378 |
|    1112 | 0x0568      |        1384 |
|    1113 | 0x056E      |        1390 |
|    1114 | 0x0574      |        1396 |
|    1115 | 0x057A      |        1402 |
|    1116 | 0x057F      |        1407 |
|    1117 | 0x0585      |        1413 |
|    1118 | 0x0D0F      |        3343 |
|    1119 | 0x0592      |        1426 |
|    1120 | 0x0597      |        1431 |
|    1121 | 0x059D      |        1437 |
|    1122 | 0x05A4      |        1444 |
|    1123 | 0x05B1      |        1457 |
|    1124 | 0x0532      |        1330 |
|    1125 | 0x1501      |        5377 |
|    1126 | 0x053E      |        1342 |
|    1127 | 0x0544      |        1348 |
|    1128 | 0x0550      |        1360 |
|    1129 | 0x0D06      |        3334 |
|    1130 | 0x055C      |        1372 |
|    1131 | 0x0D08      |        3336 |
|    1132 | 0x2D09      |       11529 |
|    1133 | 0x250A      |        9482 |
|    1134 | 0x0572      |        1394 |
|    1135 | 0x4D0C      |       19724 |
|    1136 | 0x0580      |        1408 |
|    1137 | 0x0586      |        1414 |
|    1138 | 0x058C      |        1420 |
|    1139 | 0x0593      |        1427 |
|    1140 | 0x0598      |        1432 |
|    1141 | 0x059E      |        1438 |
|    1142 | 0x2D13      |       11539 |
|    1143 | 0x05A8      |        1448 |
|    1144 | 0x0533      |        1331 |
|    1145 | 0x0539      |        1337 |
|    1146 | 0x053C      |        1340 |
|    1147 | 0x0545      |        1349 |
|    1148 | 0x054D      |        1357 |
|    1149 | 0x0551      |        1361 |
|    1150 | 0x0557      |        1367 |
|    1151 | 0x055D      |        1373 |
|    1152 | 0x0563      |        1379 |
|    1153 | 0x0569      |        1385 |
|    1154 | 0x056F      |        1391 |
|    1155 | 0x050B      |        1291 |
|    1156 | 0x057B      |        1403 |
|    1157 | 0x0581      |        1409 |
|    1158 | 0x0587      |        1415 |
|    1159 | 0x058D      |        1421 |
|    1160 | 0x0510      |        1296 |
|    1161 | 0x0599      |        1433 |
|    1162 | 0x059F      |        1439 |
|    1163 | 0x05A5      |        1445 |
|    1164 | 0x05A9      |        1449 |
|    1165 | 0x05AF      |        1455 |
|    1166 | 0x1400      |        5120 |
|    1167 | 0x1405      |        5125 |
|    1168 | 0x140A      |        5130 |
|    1169 | 0x140F      |        5135 |
|    1170 | 0x1414      |        5140 |
|    1171 | 0x1419      |        5145 |
|    1172 | 0x141E      |        5150 |
|    1173 | 0x1423      |        5155 |
|    1174 | 0x1428      |        5160 |
|    1175 | 0x142D      |        5165 |
|    1176 | 0x1432      |        5170 |
|    1177 | 0x1437      |        5175 |
|    1178 | 0x143C      |        5180 |
|    1179 | 0x1441      |        5185 |
|    1180 | 0x1446      |        5190 |
|    1181 | 0x144B      |        5195 |
|    1182 | 0x1450      |        5200 |
|    1183 | 0x1455      |        5205 |
|    1184 | 0x145A      |        5210 |
|    1185 | 0x145F      |        5215 |
|    1186 | 0x1464      |        5220 |
|    1187 | 0x1469      |        5225 |
|    1188 | 0x1401      |        5121 |
|    1189 | 0x1406      |        5126 |
|    1190 | 0x140B      |        5131 |
|    1191 | 0x1410      |        5136 |
|    1192 | 0x1415      |        5141 |
|    1193 | 0x141A      |        5146 |
|    1194 | 0x141F      |        5151 |
|    1195 | 0x1424      |        5156 |
|    1196 | 0x1429      |        5161 |
|    1197 | 0x142E      |        5166 |
|    1198 | 0x1433      |        5171 |
|    1199 | 0x1438      |        5176 |
|    1200 | 0x143D      |        5181 |
|    1201 | 0x1442      |        5186 |
|    1202 | 0x1447      |        5191 |
|    1203 | 0x144C      |        5196 |
|    1204 | 0x1451      |        5201 |
|    1205 | 0x1456      |        5206 |
|    1206 | 0x145B      |        5211 |
|    1207 | 0x1460      |        5216 |
|    1208 | 0x1465      |        5221 |
|    1209 | 0x146A      |        5226 |
|    1210 | 0x1402      |        5122 |
|    1211 | 0x1407      |        5127 |
|    1212 | 0x140C      |        5132 |
|    1213 | 0x1411      |        5137 |
|    1214 | 0x1416      |        5142 |
|    1215 | 0x141B      |        5147 |
|    1216 | 0x1420      |        5152 |
|    1217 | 0x1425      |        5157 |
|    1218 | 0x142A      |        5162 |
|    1219 | 0x142F      |        5167 |
|    1220 | 0x1434      |        5172 |
|    1221 | 0x1439      |        5177 |
|    1222 | 0x143E      |        5182 |
|    1223 | 0x1443      |        5187 |
|    1224 | 0x1448      |        5192 |
|    1225 | 0x144D      |        5197 |
|    1226 | 0x1452      |        5202 |
|    1227 | 0x1457      |        5207 |
|    1228 | 0x145C      |        5212 |
|    1229 | 0x1461      |        5217 |
|    1230 | 0x1466      |        5222 |
|    1231 | 0x146B      |        5227 |
|    1232 | 0x1403      |        5123 |
|    1233 | 0x1408      |        5128 |
|    1234 | 0x140D      |        5133 |
|    1235 | 0x1412      |        5138 |
|    1236 | 0x1417      |        5143 |
|    1237 | 0x141C      |        5148 |
|    1238 | 0x1421      |        5153 |
|    1239 | 0x1426      |        5158 |
|    1240 | 0x142B      |        5163 |
|    1241 | 0x1430      |        5168 |
|    1242 | 0x1435      |        5173 |
|    1243 | 0x143A      |        5178 |
|    1244 | 0x143F      |        5183 |
|    1245 | 0x1444      |        5188 |
|    1246 | 0x1449      |        5193 |
|    1247 | 0x144E      |        5198 |
|    1248 | 0x1453      |        5203 |
|    1249 | 0x1458      |        5208 |
|    1250 | 0x145D      |        5213 |
|    1251 | 0x1462      |        5218 |
|    1252 | 0x1467      |        5223 |
|    1253 | 0x146C      |        5228 |
|    1254 | 0x1404      |        5124 |
|    1255 | 0x1409      |        5129 |
|    1256 | 0x140E      |        5134 |
|    1257 | 0x1413      |        5139 |
|    1258 | 0x1418      |        5144 |
|    1259 | 0x141D      |        5149 |
|    1260 | 0x1422      |        5154 |
|    1261 | 0x1427      |        5159 |
|    1262 | 0x142C      |        5164 |
|    1263 | 0x1431      |        5169 |
|    1264 | 0x1436      |        5174 |
|    1265 | 0x143B      |        5179 |
|    1266 | 0x1440      |        5184 |
|    1267 | 0x1445      |        5189 |
|    1268 | 0x144A      |        5194 |
|    1269 | 0x144F      |        5199 |
|    1270 | 0x1454      |        5204 |
|    1271 | 0x1459      |        5209 |
|    1272 | 0x145E      |        5214 |
|    1273 | 0x1463      |        5219 |
|    1274 | 0x1468      |        5224 |
|    1275 | 0x146D      |        5229 |
|    1276 | 0x146E      |        5230 |
|    1277 | 0x1473      |        5235 |
|    1278 | 0x1478      |        5240 |
|    1279 | 0x147D      |        5245 |
|    1280 | 0x1482      |        5250 |
|    1281 | 0x1487      |        5255 |
|    1282 | 0x148C      |        5260 |
|    1283 | 0x1491      |        5265 |
|    1284 | 0x1496      |        5270 |
|    1285 | 0x149B      |        5275 |
|    1286 | 0x14A0      |        5280 |
|    1287 | 0x14A5      |        5285 |
|    1288 | 0x14AA      |        5290 |
|    1289 | 0x14AF      |        5295 |
|    1290 | 0x14B4      |        5300 |
|    1291 | 0x14B9      |        5305 |
|    1292 | 0x14BE      |        5310 |
|    1293 | 0x14C3      |        5315 |
|    1294 | 0x14C8      |        5320 |
|    1295 | 0x14CD      |        5325 |
|    1296 | 0x14D2      |        5330 |
|    1297 | 0x14D7      |        5335 |
|    1298 | 0x146F      |        5231 |
|    1299 | 0x1474      |        5236 |
|    1300 | 0x1479      |        5241 |
|    1301 | 0x147E      |        5246 |
|    1302 | 0x1483      |        5251 |
|    1303 | 0x1488      |        5256 |
|    1304 | 0x148D      |        5261 |
|    1305 | 0x1492      |        5266 |
|    1306 | 0x1497      |        5271 |
|    1307 | 0x149C      |        5276 |
|    1308 | 0x14A1      |        5281 |
|    1309 | 0x14A6      |        5286 |
|    1310 | 0x14AB      |        5291 |
|    1311 | 0x14B0      |        5296 |
|    1312 | 0x14B5      |        5301 |
|    1313 | 0x14BA      |        5306 |
|    1314 | 0x14BF      |        5311 |
|    1315 | 0x14C4      |        5316 |
|    1316 | 0x14C9      |        5321 |
|    1317 | 0x14CE      |        5326 |
|    1318 | 0x14D3      |        5331 |
|    1319 | 0x14D8      |        5336 |
|    1320 | 0x1470      |        5232 |
|    1321 | 0x1475      |        5237 |
|    1322 | 0x147A      |        5242 |
|    1323 | 0x147F      |        5247 |
|    1324 | 0x1484      |        5252 |
|    1325 | 0x1489      |        5257 |
|    1326 | 0x148E      |        5262 |
|    1327 | 0x1493      |        5267 |
|    1328 | 0x1498      |        5272 |
|    1329 | 0x149D      |        5277 |
|    1330 | 0x14A2      |        5282 |
|    1331 | 0x14A7      |        5287 |
|    1332 | 0x14AC      |        5292 |
|    1333 | 0x14B1      |        5297 |
|    1334 | 0x14B6      |        5302 |
|    1335 | 0x14BB      |        5307 |
|    1336 | 0x14C0      |        5312 |
|    1337 | 0x14C5      |        5317 |
|    1338 | 0x14CA      |        5322 |
|    1339 | 0x14CF      |        5327 |
|    1340 | 0x14D4      |        5332 |
|    1341 | 0x14D9      |        5337 |
|    1342 | 0x1471      |        5233 |
|    1343 | 0x1476      |        5238 |
|    1344 | 0x147B      |        5243 |
|    1345 | 0x1480      |        5248 |
|    1346 | 0x1485      |        5253 |
|    1347 | 0x148A      |        5258 |
|    1348 | 0x148F      |        5263 |
|    1349 | 0x1494      |        5268 |
|    1350 | 0x1499      |        5273 |
|    1351 | 0x149E      |        5278 |
|    1352 | 0x14A3      |        5283 |
|    1353 | 0x14A8      |        5288 |
|    1354 | 0x14AD      |        5293 |
|    1355 | 0x14B2      |        5298 |
|    1356 | 0x14B7      |        5303 |
|    1357 | 0x14BC      |        5308 |
|    1358 | 0x14C1      |        5313 |
|    1359 | 0x14C6      |        5318 |
|    1360 | 0x14CB      |        5323 |
|    1361 | 0x14D0      |        5328 |
|    1362 | 0x14D5      |        5333 |
|    1363 | 0x14DA      |        5338 |
|    1364 | 0x1472      |        5234 |
|    1365 | 0x1477      |        5239 |
|    1366 | 0x147C      |        5244 |
|    1367 | 0x1481      |        5249 |
|    1368 | 0x1486      |        5254 |
|    1369 | 0x148B      |        5259 |
|    1370 | 0x1490      |        5264 |
|    1371 | 0x1495      |        5269 |
|    1372 | 0x149A      |        5274 |
|    1373 | 0x149F      |        5279 |
|    1374 | 0x14A4      |        5284 |
|    1375 | 0x14A9      |        5289 |
|    1376 | 0x14AE      |        5294 |
|    1377 | 0x14B3      |        5299 |
|    1378 | 0x14B8      |        5304 |
|    1379 | 0x14BD      |        5309 |
|    1380 | 0x14C2      |        5314 |
|    1381 | 0x14C7      |        5319 |
|    1382 | 0x14CC      |        5324 |
|    1383 | 0x14D1      |        5329 |
|    1384 | 0x14D6      |        5334 |
|    1385 | 0x14DB      |        5339 |
|    1386 | 0x2B38      |       11064 |
|    1387 | 0x2B39      |       11065 |
|    1388 | 0x2B3A      |       11066 |
|    1389 | 0x2B3B      |       11067 |
|    1390 | 0x2B3C      |       11068 |
|    1391 | 0x2B3D      |       11069 |
|    1392 | 0x2B3E      |       11070 |
|    1393 | 0x2B3F      |       11071 |
|    1394 | 0x2B40      |       11072 |
|    1395 | 0x2B41      |       11073 |
|    1396 | 0x2B42      |       11074 |
|    1397 | 0x2B43      |       11075 |
|    1398 | 0x2B44      |       11076 |
|    1399 | 0x2B45      |       11077 |
|    1400 | 0x2B46      |       11078 |
|    1401 | 0x2B47      |       11079 |
|    1402 | 0x2B48      |       11080 |
|    1403 | 0x2B49      |       11081 |
|    1404 | 0x2B4A      |       11082 |
|    1405 | 0x2B4B      |       11083 |
|    1406 | 0x2B9C      |       11164 |
|    1407 | 0x2B9D      |       11165 |
|    1408 | 0x2B9E      |       11166 |
|    1409 | 0x2B9F      |       11167 |
|    1410 | 0x2BA0      |       11168 |
|    1411 | 0x2BA1      |       11169 |
|    1412 | 0x2BA2      |       11170 |
|    1413 | 0x2BA3      |       11171 |
|    1414 | 0x2BA4      |       11172 |
|    1415 | 0x2BA5      |       11173 |
|    1416 | 0x2BA6      |       11174 |
|    1417 | 0x2BA7      |       11175 |
|    1418 | 0x2BA8      |       11176 |
|    1419 | 0x2BA9      |       11177 |
|    1420 | 0x2BAA      |       11178 |
|    1421 | 0x2BAB      |       11179 |
|    1422 | 0x2BAC      |       11180 |
|    1423 | 0x2BAD      |       11181 |
|    1424 | 0x2BAE      |       11182 |
|    1425 | 0x2BAF      |       11183 |
|    1426 | 0x6874      |       26740 |
|    1427 | 0x6876      |       26742 |
|    1428 | 0x6878      |       26744 |
|    1429 | 0x687A      |       26746 |
|    1430 | 0x687C      |       26748 |
|    1431 | 0x687E      |       26750 |
|    1432 | 0x6880      |       26752 |
|    1433 | 0x6882      |       26754 |
|    1434 | 0x6884      |       26756 |
|    1435 | 0x6886      |       26758 |
|    1436 | 0x6888      |       26760 |
|    1437 | 0x688A      |       26762 |
|    1438 | 0x688C      |       26764 |
|    1439 | 0x688E      |       26766 |
|    1440 | 0x6890      |       26768 |
|    1441 | 0x6892      |       26770 |
|    1442 | 0x6894      |       26772 |
|    1443 | 0x6896      |       26774 |
|    1444 | 0x6898      |       26776 |
|    1445 | 0x689A      |       26778 |
|    1446 | 0x689C      |       26780 |
|    1447 | 0x689E      |       26782 |
|    1448 | 0x6875      |       26741 |
|    1449 | 0x6877      |       26743 |
|    1450 | 0x6879      |       26745 |
|    1451 | 0x687B      |       26747 |
|    1452 | 0x687D      |       26749 |
|    1453 | 0x687F      |       26751 |
|    1454 | 0x6881      |       26753 |
|    1455 | 0x6883      |       26755 |
|    1456 | 0x6885      |       26757 |
|    1457 | 0x6887      |       26759 |
|    1458 | 0x6889      |       26761 |
|    1459 | 0x688B      |       26763 |
|    1460 | 0x688D      |       26765 |
|    1461 | 0x688F      |       26767 |
|    1462 | 0x6891      |       26769 |
|    1463 | 0x6893      |       26771 |
|    1464 | 0x6895      |       26773 |
|    1465 | 0x6897      |       26775 |
|    1466 | 0x6899      |       26777 |
|    1467 | 0x689B      |       26779 |
|    1468 | 0x689D      |       26781 |
|    1469 | 0x689F      |       26783 |
|    1470 | 0x2B4C      |       11084 |
|    1471 | 0x2B4D      |       11085 |
|    1472 | 0x2B4E      |       11086 |
|    1473 | 0x2B4F      |       11087 |
|    1474 | 0x2B50      |       11088 |
|    1475 | 0x2B51      |       11089 |
|    1476 | 0x2B52      |       11090 |
|    1477 | 0x2B53      |       11091 |
|    1478 | 0x2B54      |       11092 |
|    1479 | 0x2B55      |       11093 |
|    1480 | 0x2B56      |       11094 |
|    1481 | 0x2B57      |       11095 |
|    1482 | 0x2B58      |       11096 |
|    1483 | 0x2B59      |       11097 |
|    1484 | 0x2B5A      |       11098 |
|    1485 | 0x2B5B      |       11099 |
|    1486 | 0x2B5C      |       11100 |
|    1487 | 0x2B5D      |       11101 |
|    1488 | 0x2B5E      |       11102 |
|    1489 | 0x2B5F      |       11103 |
|    1490 | 0x2BB0      |       11184 |
|    1491 | 0x2BB1      |       11185 |
|    1492 | 0x2BB2      |       11186 |
|    1493 | 0x2BB3      |       11187 |
|    1494 | 0x2BB4      |       11188 |
|    1495 | 0x2BB5      |       11189 |
|    1496 | 0x2BB6      |       11190 |
|    1497 | 0x2BB7      |       11191 |
|    1498 | 0x2BB8      |       11192 |
|    1499 | 0x2BB9      |       11193 |
|    1500 | 0x2BBA      |       11194 |
|    1501 | 0x2BBB      |       11195 |
|    1502 | 0x2BBC      |       11196 |
|    1503 | 0x2BBD      |       11197 |
|    1504 | 0x2BBE      |       11198 |
|    1505 | 0x2BBF      |       11199 |
|    1506 | 0x2BC0      |       11200 |
|    1507 | 0x2BC1      |       11201 |
|    1508 | 0x2BC2      |       11202 |
|    1509 | 0x2BC3      |       11203 |
|    1510 | 0x6912      |       26898 |
|    1511 | 0x6914      |       26900 |
|    1512 | 0x6916      |       26902 |
|    1513 | 0x6918      |       26904 |
|    1514 | 0x691A      |       26906 |
|    1515 | 0x691C      |       26908 |
|    1516 | 0x691E      |       26910 |
|    1517 | 0x6920      |       26912 |
|    1518 | 0x6922      |       26914 |
|    1519 | 0x6924      |       26916 |
|    1520 | 0x6926      |       26918 |
|    1521 | 0x6928      |       26920 |
|    1522 | 0x692A      |       26922 |
|    1523 | 0x692C      |       26924 |
|    1524 | 0x692E      |       26926 |
|    1525 | 0x6930      |       26928 |
|    1526 | 0x6932      |       26930 |
|    1527 | 0x6934      |       26932 |
|    1528 | 0x6936      |       26934 |
|    1529 | 0x6938      |       26936 |
|    1530 | 0x693A      |       26938 |
|    1531 | 0x693C      |       26940 |
|    1532 | 0x6913      |       26899 |
|    1533 | 0x6915      |       26901 |
|    1534 | 0x6917      |       26903 |
|    1535 | 0x6919      |       26905 |
|    1536 | 0x691B      |       26907 |
|    1537 | 0x691D      |       26909 |
|    1538 | 0x691F      |       26911 |
|    1539 | 0x6921      |       26913 |
|    1540 | 0x6923      |       26915 |
|    1541 | 0x6925      |       26917 |
|    1542 | 0x6927      |       26919 |
|    1543 | 0x6929      |       26921 |
|    1544 | 0x692B      |       26923 |
|    1545 | 0x692D      |       26925 |
|    1546 | 0x692F      |       26927 |
|    1547 | 0x6931      |       26929 |
|    1548 | 0x6933      |       26931 |
|    1549 | 0x6935      |       26933 |
|    1550 | 0x6937      |       26935 |
|    1551 | 0x6939      |       26937 |
|    1552 | 0x693B      |       26939 |
|    1553 | 0x693D      |       26941 |
|    1554 | 0x2B60      |       11104 |
|    1555 | 0x2B61      |       11105 |
|    1556 | 0x2B62      |       11106 |
|    1557 | 0x2B63      |       11107 |
|    1558 | 0x2B64      |       11108 |
|    1559 | 0x2B65      |       11109 |
|    1560 | 0x2B66      |       11110 |
|    1561 | 0x2B67      |       11111 |
|    1562 | 0x2B68      |       11112 |
|    1563 | 0x2B69      |       11113 |
|    1564 | 0x2B6A      |       11114 |
|    1565 | 0x2B6B      |       11115 |
|    1566 | 0x2B6C      |       11116 |
|    1567 | 0x2B6D      |       11117 |
|    1568 | 0x2B6E      |       11118 |
|    1569 | 0x2B6F      |       11119 |
|    1570 | 0x2B70      |       11120 |
|    1571 | 0x2B71      |       11121 |
|    1572 | 0x2B72      |       11122 |
|    1573 | 0x2B73      |       11123 |
|    1574 | 0x2BC4      |       11204 |
|    1575 | 0x2BC5      |       11205 |
|    1576 | 0x2BC6      |       11206 |
|    1577 | 0x2BC7      |       11207 |
|    1578 | 0x2BC8      |       11208 |
|    1579 | 0x2BC9      |       11209 |
|    1580 | 0x2BCA      |       11210 |
|    1581 | 0x2BCB      |       11211 |
|    1582 | 0x2BCC      |       11212 |
|    1583 | 0x2BCD      |       11213 |
|    1584 | 0x2BCE      |       11214 |
|    1585 | 0x2BCF      |       11215 |
|    1586 | 0x2BD0      |       11216 |
|    1587 | 0x2BD1      |       11217 |
|    1588 | 0x2BD2      |       11218 |
|    1589 | 0x2BD3      |       11219 |
|    1590 | 0x2BD4      |       11220 |
|    1591 | 0x2BD5      |       11221 |
|    1592 | 0x2BD6      |       11222 |
|    1593 | 0x2BD7      |       11223 |
|    1594 | 0x69AC      |       27052 |
|    1595 | 0x69AE      |       27054 |
|    1596 | 0x69B0      |       27056 |
|    1597 | 0x69B2      |       27058 |
|    1598 | 0x69B4      |       27060 |
|    1599 | 0x69B6      |       27062 |
|    1600 | 0x69B8      |       27064 |
|    1601 | 0x69BA      |       27066 |
|    1602 | 0x69BC      |       27068 |
|    1603 | 0x69BE      |       27070 |
|    1604 | 0x69C0      |       27072 |
|    1605 | 0x69C2      |       27074 |
|    1606 | 0x69C4      |       27076 |
|    1607 | 0x69C6      |       27078 |
|    1608 | 0x69C8      |       27080 |
|    1609 | 0x69CA      |       27082 |
|    1610 | 0x69CC      |       27084 |
|    1611 | 0x69CE      |       27086 |
|    1612 | 0x69D0      |       27088 |
|    1613 | 0x69D2      |       27090 |
|    1614 | 0x69D4      |       27092 |
|    1615 | 0x69D6      |       27094 |
|    1616 | 0x69AD      |       27053 |
|    1617 | 0x69AF      |       27055 |
|    1618 | 0x69B1      |       27057 |
|    1619 | 0x69B3      |       27059 |
|    1620 | 0x69B5      |       27061 |
|    1621 | 0x69B7      |       27063 |
|    1622 | 0x69B9      |       27065 |
|    1623 | 0x69BB      |       27067 |
|    1624 | 0x69BD      |       27069 |
|    1625 | 0x69BF      |       27071 |
|    1626 | 0x69C1      |       27073 |
|    1627 | 0x69C3      |       27075 |
|    1628 | 0x69C5      |       27077 |
|    1629 | 0x69C7      |       27079 |
|    1630 | 0x69C9      |       27081 |
|    1631 | 0x69CB      |       27083 |
|    1632 | 0x69CD      |       27085 |
|    1633 | 0x69CF      |       27087 |
|    1634 | 0x69D1      |       27089 |
|    1635 | 0x69D3      |       27091 |
|    1636 | 0x69D5      |       27093 |
|    1637 | 0x69D7      |       27095 |
|    1638 | 0x2B74      |       11124 |
|    1639 | 0x2B75      |       11125 |
|    1640 | 0x2B76      |       11126 |
|    1641 | 0x2B77      |       11127 |
|    1642 | 0x2B78      |       11128 |
|    1643 | 0x2B79      |       11129 |
|    1644 | 0x2B7A      |       11130 |
|    1645 | 0x2B7B      |       11131 |
|    1646 | 0x2B7C      |       11132 |
|    1647 | 0x2B7D      |       11133 |
|    1648 | 0x2B7E      |       11134 |
|    1649 | 0x2B7F      |       11135 |
|    1650 | 0x2B80      |       11136 |
|    1651 | 0x2B81      |       11137 |
|    1652 | 0x2B82      |       11138 |
|    1653 | 0x2B83      |       11139 |
|    1654 | 0x2B84      |       11140 |
|    1655 | 0x2B85      |       11141 |
|    1656 | 0x2B86      |       11142 |
|    1657 | 0x2B87      |       11143 |
|    1658 | 0x2BD8      |       11224 |
|    1659 | 0x2BD9      |       11225 |
|    1660 | 0x2BDA      |       11226 |
|    1661 | 0x2BDB      |       11227 |
|    1662 | 0x2BDC      |       11228 |
|    1663 | 0x2BDD      |       11229 |
|    1664 | 0x2BDE      |       11230 |
|    1665 | 0x2BDF      |       11231 |
|    1666 | 0x2BE0      |       11232 |
|    1667 | 0x2BE1      |       11233 |
|    1668 | 0x2BE2      |       11234 |
|    1669 | 0x2BE3      |       11235 |
|    1670 | 0x2BE4      |       11236 |
|    1671 | 0x2BE5      |       11237 |
|    1672 | 0x2BE6      |       11238 |
|    1673 | 0x2BE7      |       11239 |
|    1674 | 0x2BE8      |       11240 |
|    1675 | 0x2BE9      |       11241 |
|    1676 | 0x2BEA      |       11242 |
|    1677 | 0x2BEB      |       11243 |
|    1678 | 0x6A65      |       27237 |
|    1679 | 0x6A67      |       27239 |
|    1680 | 0x6A69      |       27241 |
|    1681 | 0x6A6B      |       27243 |
|    1682 | 0x6A6D      |       27245 |
|    1683 | 0x6A6F      |       27247 |
|    1684 | 0x6A71      |       27249 |
|    1685 | 0x6A73      |       27251 |
|    1686 | 0x6A75      |       27253 |
|    1687 | 0x6A77      |       27255 |
|    1688 | 0x6A79      |       27257 |
|    1689 | 0x6A7B      |       27259 |
|    1690 | 0x6A7D      |       27261 |
|    1691 | 0x6A7F      |       27263 |
|    1692 | 0x6A81      |       27265 |
|    1693 | 0x6A83      |       27267 |
|    1694 | 0x6A85      |       27269 |
|    1695 | 0x6A87      |       27271 |
|    1696 | 0x6A89      |       27273 |
|    1697 | 0x6A8B      |       27275 |
|    1698 | 0x6A8D      |       27277 |
|    1699 | 0x6A8F      |       27279 |
|    1700 | 0x6A66      |       27238 |
|    1701 | 0x6A68      |       27240 |
|    1702 | 0x6A6A      |       27242 |
|    1703 | 0x6A6C      |       27244 |
|    1704 | 0x6A6E      |       27246 |
|    1705 | 0x6A70      |       27248 |
|    1706 | 0x6A72      |       27250 |
|    1707 | 0x6A74      |       27252 |
|    1708 | 0x6A76      |       27254 |
|    1709 | 0x6A78      |       27256 |
|    1710 | 0x6A7A      |       27258 |
|    1711 | 0x6A7C      |       27260 |
|    1712 | 0x6A7E      |       27262 |
|    1713 | 0x6A80      |       27264 |
|    1714 | 0x6A82      |       27266 |
|    1715 | 0x6A84      |       27268 |
|    1716 | 0x6A86      |       27270 |
|    1717 | 0x6A88      |       27272 |
|    1718 | 0x6A8A      |       27274 |
|    1719 | 0x6A8C      |       27276 |
|    1720 | 0x6A8E      |       27278 |
|    1721 | 0x6A90      |       27280 |
|    1722 | 0x2B88      |       11144 |
|    1723 | 0x2B89      |       11145 |
|    1724 | 0x2B8A      |       11146 |
|    1725 | 0x2B8B      |       11147 |
|    1726 | 0x2B8C      |       11148 |
|    1727 | 0x2B8D      |       11149 |
|    1728 | 0x2B8E      |       11150 |
|    1729 | 0x2B8F      |       11151 |
|    1730 | 0x2B90      |       11152 |
|    1731 | 0x2B91      |       11153 |
|    1732 | 0x2B92      |       11154 |
|    1733 | 0x2B93      |       11155 |
|    1734 | 0x2B94      |       11156 |
|    1735 | 0x2B95      |       11157 |
|    1736 | 0x2B96      |       11158 |
|    1737 | 0x2B97      |       11159 |
|    1738 | 0x2B98      |       11160 |
|    1739 | 0x2B99      |       11161 |
|    1740 | 0x2B9A      |       11162 |
|    1741 | 0x2B9B      |       11163 |
|    1742 | 0x2BEC      |       11244 |
|    1743 | 0x2BED      |       11245 |
|    1744 | 0x2BEE      |       11246 |
|    1745 | 0x2BEF      |       11247 |
|    1746 | 0x2BF0      |       11248 |
|    1747 | 0x2BF1      |       11249 |
|    1748 | 0x2BF2      |       11250 |
|    1749 | 0x2BF3      |       11251 |
|    1750 | 0x2BF4      |       11252 |
|    1751 | 0x2BF5      |       11253 |
|    1752 | 0x2BF6      |       11254 |
|    1753 | 0x2BF7      |       11255 |
|    1754 | 0x2BF8      |       11256 |
|    1755 | 0x2BF9      |       11257 |
|    1756 | 0x2BFA      |       11258 |
|    1757 | 0x2BFB      |       11259 |
|    1758 | 0x2BFC      |       11260 |
|    1759 | 0x2BFD      |       11261 |
|    1760 | 0x2BFE      |       11262 |
|    1761 | 0x2BFF      |       11263 |
|    1762 | 0x6B13      |       27411 |
|    1763 | 0x6B15      |       27413 |
|    1764 | 0x6B17      |       27415 |
|    1765 | 0x6B19      |       27417 |
|    1766 | 0x6B1B      |       27419 |
|    1767 | 0x6B1D      |       27421 |
|    1768 | 0x6B1F      |       27423 |
|    1769 | 0x6B21      |       27425 |
|    1770 | 0x6B23      |       27427 |
|    1771 | 0x6B25      |       27429 |
|    1772 | 0x6B27      |       27431 |
|    1773 | 0x6B29      |       27433 |
|    1774 | 0x6B2B      |       27435 |
|    1775 | 0x6B2D      |       27437 |
|    1776 | 0x6B2F      |       27439 |
|    1777 | 0x6B31      |       27441 |
|    1778 | 0x6B33      |       27443 |
|    1779 | 0x6B35      |       27445 |
|    1780 | 0x6B37      |       27447 |
|    1781 | 0x6B39      |       27449 |
|    1782 | 0x6B3B      |       27451 |
|    1783 | 0x6B3D      |       27453 |
|    1784 | 0x6B14      |       27412 |
|    1785 | 0x6B16      |       27414 |
|    1786 | 0x6B18      |       27416 |
|    1787 | 0x6B1A      |       27418 |
|    1788 | 0x6B1C      |       27420 |
|    1789 | 0x6B1E      |       27422 |
|    1790 | 0x6B20      |       27424 |
|    1791 | 0x6B22      |       27426 |
|    1792 | 0x6B24      |       27428 |
|    1793 | 0x6B26      |       27430 |
|    1794 | 0x6B28      |       27432 |
|    1795 | 0x6B2A      |       27434 |
|    1796 | 0x6B2C      |       27436 |
|    1797 | 0x6B2E      |       27438 |
|    1798 | 0x6B30      |       27440 |
|    1799 | 0x6B32      |       27442 |
|    1800 | 0x6B34      |       27444 |
|    1801 | 0x6B36      |       27446 |
|    1802 | 0x6B38      |       27448 |
|    1803 | 0x6B3A      |       27450 |
|    1804 | 0x6B3C      |       27452 |
|    1805 | 0x6B3E      |       27454 |
|    1806 | 0x0B71      |        2929 |
|    1807 | 0x0B92      |        2962 |
|    1808 | 0x0CD7      |        3287 |
|    1809 | 0x0B6F      |        2927 |
|    1810 | 0x0B95      |        2965 |
|    1811 | 0x0CDB      |        3291 |
|    1812 | 0x0B74      |        2932 |
|    1813 | 0x0B72      |        2930 |
|    1814 | 0x0CD8      |        3288 |
|    1815 | 0x0B93      |        2963 |
|    1816 | 0x0CD9      |        3289 |
|    1817 | 0x0B96      |        2966 |
|    1818 | 0x0CDC      |        3292 |
|    1819 | 0x0CDA      |        3290 |
|    1820 | 0x0B94      |        2964 |
|    1821 | 0x0B70      |        2928 |
|    1822 | 0x0B97      |        2967 |

## String References

- **9003**: Sagheera has never mentioned anyone who fits your description. How about you follow the proper protocol and speak to her first?
- **9004**: Ah, so you must be <Player>. Sagheera becomes as lyrical as a traveling minstrel when she sings your praises.
- **9005**: So you are the one that has the veritable cellar full of relic and artifact equipment? [No wonder I hear her hit the high notes when she is all alone in her room./To be honest, her songs do not nearly do you justice, dear.]
- **9006**: That aside, I have been dispatched to provide you adventurers with a slightly different type of crafting service.
- **9007**: We have scoured the land for able smiths and weavers, leaving no piece of slag or thread of cloth unaccounted for. With their unparalleled skills, we hope to extricate every last onz of potential that lays dormant within those superior examples of finery.
- **9008**: Sagheera is a trusted affiliate of ours, so do not worry about articles she has repaired or revived for you in the past. They are covered as well.
- **9009**: Have I piqued your interest? Then why not peruse the list of restoration plans we have on offer?
- **9010**: What equipment are you interested in? [None./Artifact Equipment./Relic Equipment./Empyrean Equipment./Chapters of Rem's Tale.]
- **9011**: Which set? [None./Pummeler's Armor./Anchorite's Attire./Theophany Attire./Spaekona's Attire./Atrophy Armor./Pillager's Attire./Reverence Armor./Ignominy Armor./Totemic Armor./Brioso Attire./Orion Attire./Wakido Armor./Hachiya Garb./Vishap Armor./Convoker's Attire./Assimilator's Attire./Laksamana's Attire./Foire Attire./Maxixi Attire./Academic's Attire./Geomancy Attire./Runeist Attire.]
- **9012**: Which item? [None. Go back./#./$1./$2./$3./$4./$5./$6./$7./$8./$9.]
- **9013**: In order to reforge your current piece into $0, you will have to come up with $1, $2, and $3.
- **9014**: ...And remember that the Tenshodo is no charity. We are going to need $7 $0$4 as compensation.
- **9015**: I suppose it will be sufficient if you hand over $5 instead of $1, but in that case, we shall require $8 $0$4 in payment.
- **9016**: Once our magnificent craftsmen have worked their magic, your previously pathetic duds should look something like that.
- **9017**: Thanks for actually bringing what I told you to. You cannot imagine how many imbeciles fail to listen to directions. Also remember that art takes time to create, so do not come yelling in my face if your gear is not ready yet.
- **9018**: Sorry, but our expert team of practitioners is still taking the utmost care in reconditioning your outfit. It shall be done soon enough, though.
- **9019**: Sorry for the wait, but your equipment is finally in. Are you not relieved that you did not rush our genius?
- **9020**: Which set? [None./Agoge Armor./Hesychast's Attire./Piety Attire./Archmage's Attire./Vitiation Attire./Plunderer's Attire./Caballarius Armor./Fallen's Armor./Ankusa Armor./Bihu Attire./Arcadian Armor./Sakonji Armor./Mochizuki Garb./Pteroslaver Armor./Glyphic Attire./Luhlaza Attire./Lanun Attire./Pitre Attire./Horos Attire./Pedagogy Attire./Bagua Attire./Futhark Attire.]
- **9021**: This is by no means some drunken tailor's side project, and therefore, revitalizing your current piece into $0 requires $1, $2, and $3.
- **9022**: Depending on the condition of the $1 you donate, I will consider lowering the price on our one-of-a-kind service.
- **9023**: As for the quality of your $1... If you truly covet low, low prices and bring me the best of the best, I shall be content to accept only $7 $0$4 as additional payment.
- **9024**: Should you be content with $1 that are less than the perfect but still more than worthwhile, I will ask for $8 $0$4 instead.
- **9025**: If you are comfortable providing a mere $9--and my utter disdain for your lack of ambition--then fetch me $8 $0$4 and $11 $0$0 .
- **9026**: Having $12 means that I will accept your request with the payment of $8 $0$4 and $10.
- **9027**: Or perhaps you would rather check upon the various plans we offer for our phenomenal work? Well then, be my guest.
- **9028**: Which set? [None./Boii Armor./Bhikku Attire./Ebers Attire./Wicce Attire./Lethargy Armor./Skulker's Armor./Chevalier's Armor./Heathen's Armor/Nukumi Armor./Fili Attire./Amini Attire./Kasuga Armor./Hattori Garb./Peltast's Armor./Beckoner's Attire./Hashishin Attire./Chasseur's Attire./Karagoz Attire./Maculele Attire./Arbatel Attire./Azimuth Attire./Erilaz Attire.]
- **9029**: The reforging process requires a good deal of elbow grease and very specific materials. I require $1, $2, and $4 $0$3 to craft $0.
- **9030**: And don't think I'll give away my services for a gil and a song. I require payment in the form of $6 $0$5 .
- **9031**: Say, aren't you getting tired of lugging around all those chapters of Rem's tale? I'll be happy to hold onto them for you until you need them.
- **9032**: $1 $0 ? Got it. That makes for a total of $2 that I am holding for you.
- **9033**: Interested in what I'm holding for you? Let's take a look.
- **9034**: View which item? [None./#. ($10 held)/$1. ($11 held)/$2. ($12 held)/$3. ($13 held)/$4. ($14 held)/$5. ($15 held)/$6. ($16 held)/$7. ($17 held)/$8. ($18 held)/$9. ($19 held)]
- **9035**: How many $0 would you like me to return?
- **9036**: Enter a number between 0 and $0. 0 will return to the previous selection.
- **9037**: Here you go. $1 $0 .

## Events

### Event 65535

#### Metadata

| Field        | Value   |
|--------------|---------|
| Entrypoint   | 0x0000  |
| Data Size    | 1 bytes |
| Instructions | 1       |

```
      00 01 02 03 04 05 06 07  08 09 0A 0B 0C 0D 0E 0F
      -- -- -- -- -- -- -- --  -- -- -- -- -- -- -- --
0000: 00                                                .               
```

#### Opcodes

```
  0: 0x0000 [0x00] END_REQSTACK()
```

### Event 384

#### Metadata

| Field        | Value    |
|--------------|----------|
| Entrypoint   | 0x0001   |
| Data Size    | 14 bytes |
| Instructions | 6        |

```
      00 01 02 03 04 05 06 07  08 09 0A 0B 0C 0D 0E 0F
      -- -- -- -- -- -- -- --  -- -- -- -- -- -- -- --
0000:    1E F0 FF FF 7F 1C 00  80 1D 01 80 23 21 00      ...........#!. 
```

#### Opcodes

```
  0: 0x0001 [0x1E] EventEntity looks at LocalPlayer and starts talking
  1: 0x0006 [0x1C] WAIT(1* ticks)
  2: 0x0009 [0x1D] PRINT_EVENT_MESSAGE(message_id=9003*)
     "Sagheera has never mentioned anyone who fits your description. How about you follow the proper protocol and speak to her first?"
  3: 0x000C [0x23] WAIT_FOR_DIALOG_INTERACTION
  4: 0x000D [0x21] END_EVENT
  5: 0x000E [0x00] END_REQSTACK()
```

### Event 385

#### Metadata

| Field        | Value     |
|--------------|-----------|
| Entrypoint   | 0x000F    |
| Data Size    | 135 bytes |
| Instructions | 37        |

```
      00 01 02 03 04 05 06 07  08 09 0A 0B 0C 0D 0E 0F
      -- -- -- -- -- -- -- --  -- -- -- -- -- -- -- --
0000:                                               02                 .
0010: 03 10 02 80 00 18 00 42  03 02 00 02 10 03 09 00  .......B........
0020: 04 10 03 08 00 05 10 03  05 00 06 10 03 06 00 07  ................
0030: 10 03 07 00 08 10 03 00  00 09 10 03 04 00 02 80  ................
0040: 03 0B 00 02 80 03 0C 00  02 80 03 0D 00 02 80 03  ................
0050: 0E 00 02 80 03 0F 00 02  80 03 10 00 02 80 03 11  ................
0060: 00 02 80 03 12 00 02 80  1E F0 FF FF 7F 1C 00 80  ................
0070: 02 03 10 02 80 00 8C 00  1D 03 80 23 1D 04 80 23  ...........#...#
0080: 1D 05 80 23 1D 06 80 23  1D 07 80 23 1D 08 80 23  ...#...#...#...#
0090: 1A E7 01 2E 21 00                                 ....!.          
```

#### Opcodes

```
  0: 0x000F [0x02] IF !(Work_Zone[3] == 0*) GOTO 0x0018
  1: 0x0017 [0x42] SET_CLI_EVENT_CANCEL_DATA()
  2: 0x0018 [0x03] ExtData[1]->WorkLocal[2] = Work_Zone[2]
  3: 0x001D [0x03] ExtData[1]->WorkLocal[9] = Work_Zone[4]
  4: 0x0022 [0x03] ExtData[1]->WorkLocal[8] = Work_Zone[5]
  5: 0x0027 [0x03] ExtData[1]->WorkLocal[5] = Work_Zone[6]
  6: 0x002C [0x03] ExtData[1]->WorkLocal[6] = Work_Zone[7]
  7: 0x0031 [0x03] ExtData[1]->WorkLocal[7] = Work_Zone[8]
  8: 0x0036 [0x03] ExtData[1]->WorkLocal[0] = Work_Zone[9]
  9: 0x003B [0x03] ExtData[1]->WorkLocal[4] = 0*
 10: 0x0040 [0x03] ExtData[1]->WorkLocal[11] = 0*
 11: 0x0045 [0x03] ExtData[1]->WorkLocal[12] = 0*
 12: 0x004A [0x03] ExtData[1]->WorkLocal[13] = 0*
 13: 0x004F [0x03] ExtData[1]->WorkLocal[14] = 0*
 14: 0x0054 [0x03] ExtData[1]->WorkLocal[15] = 0*
 15: 0x0059 [0x03] ExtData[1]->WorkLocal[16] = 0*
 16: 0x005E [0x03] ExtData[1]->WorkLocal[17] = 0*
 17: 0x0063 [0x03] ExtData[1]->WorkLocal[18] = 0*
 18: 0x0068 [0x1E] EventEntity looks at LocalPlayer and starts talking
 19: 0x006D [0x1C] WAIT(1* ticks)
 20: 0x0070 [0x02] IF !(Work_Zone[3] == 0*) GOTO 0x008C
 21: 0x0078 [0x1D] PRINT_EVENT_MESSAGE(message_id=9004*)
     "Ah, so you must be <Player>. Sagheera becomes as lyrical as a traveling minstrel when she sings your praises."
 22: 0x007B [0x23] WAIT_FOR_DIALOG_INTERACTION
 23: 0x007C [0x1D] PRINT_EVENT_MESSAGE(message_id=9005*)
     "So you are the one that has the veritable cellar full of relic and artifact equipment? [No wonder I hear her hit the high notes when she is all alone in her room./To be honest, her songs do not nearly do you justice, dear.]"
 24: 0x007F [0x23] WAIT_FOR_DIALOG_INTERACTION
 25: 0x0080 [0x1D] PRINT_EVENT_MESSAGE(message_id=9006*)
     "That aside, I have been dispatched to provide you adventurers with a slightly different type of crafting service."
 26: 0x0083 [0x23] WAIT_FOR_DIALOG_INTERACTION
 27: 0x0084 [0x1D] PRINT_EVENT_MESSAGE(message_id=9007*)
     "We have scoured the land for able smiths and weavers, leaving no piece of slag or thread of cloth unaccounted for. With their unparalleled skills, we hope to extricate every last onz of potential that lays dormant within those superior examples of finery."
 28: 0x0087 [0x23] WAIT_FOR_DIALOG_INTERACTION
 29: 0x0088 [0x1D] PRINT_EVENT_MESSAGE(message_id=9008*)
     "Sagheera is a trusted affiliate of ours, so do not worry about articles she has repaired or revived for you in the past. They are covered as well."
 30: 0x008B [0x23] WAIT_FOR_DIALOG_INTERACTION
 31: 0x008C [0x1D] PRINT_EVENT_MESSAGE(message_id=9009*)
     "Have I piqued your interest? Then why not peruse the list of restoration plans we have on offer?"
 32: 0x008F [0x23] WAIT_FOR_DIALOG_INTERACTION
 33: 0x0090 [0x1A] CALL_SUBROUTINE(address=0x01E7)
 34: 0x0093 [0x2E] SET_CLI_EVENT_CANCEL_FLAGS()
 35: 0x0094 [0x21] END_EVENT
 36: 0x0095 [0x00] END_REQSTACK()
```

### Event 386

#### Metadata

| Field        | Value    |
|--------------|----------|
| Entrypoint   | 0x0096   |
| Data Size    | 22 bytes |
| Instructions | 10       |

```
      00 01 02 03 04 05 06 07  08 09 0A 0B 0C 0D 0E 0F
      -- -- -- -- -- -- -- --  -- -- -- -- -- -- -- --
0090:                   42 1E  F0 FF FF 7F 1C 00 80 93        B.........
00A0: 02 10 1D 09 80 23 93 02  80 2E 21 00              .....#....!.    
```

#### Opcodes

```
  0: 0x0096 [0x42] SET_CLI_EVENT_CANCEL_DATA()
  1: 0x0097 [0x1E] EventEntity looks at LocalPlayer and starts talking
  2: 0x009C [0x1C] WAIT(1* ticks)
  3: 0x009F [0x93] DISPLAY_ITEM_INFO(item_id=Work_Zone[2])
  4: 0x00A2 [0x1D] PRINT_EVENT_MESSAGE(message_id=9019*)
     "Sorry for the wait, but your equipment is finally in. Are you not relieved that you did not rush our genius?"
  5: 0x00A5 [0x23] WAIT_FOR_DIALOG_INTERACTION
  6: 0x00A6 [0x93] DISPLAY_ITEM_INFO(item_id=0*)
  7: 0x00A9 [0x2E] SET_CLI_EVENT_CANCEL_FLAGS()
  8: 0x00AA [0x21] END_EVENT
  9: 0x00AB [0x00] END_REQSTACK()
```

### Event 393

#### Metadata

| Field        | Value    |
|--------------|----------|
| Entrypoint   | 0x00AC   |
| Data Size    | 34 bytes |
| Instructions | 11       |

```
      00 01 02 03 04 05 06 07  08 09 0A 0B 0C 0D 0E 0F
      -- -- -- -- -- -- -- --  -- -- -- -- -- -- -- --
00A0:                                      42 1E F0 FF              B...
00B0: FF 7F 1C 00 80 03 03 10  0A 80 CC 01 02 10 03 10  ................
00C0: 04 10 05 10 1D 09 80 23  93 02 80 2E 21 00        .......#....!.  
```

#### Opcodes

```
  0: 0x00AC [0x42] SET_CLI_EVENT_CANCEL_DATA()
  1: 0x00AD [0x1E] EventEntity looks at LocalPlayer and starts talking
  2: 0x00B2 [0x1C] WAIT(1* ticks)
  3: 0x00B5 [0x03] Work_Zone[3] = 2*
  4: 0x00BA [0xCC] ITEM_INFO_WINDOW_HANDLER(case=0x01 - Open item info window (with chase), check_value=Work_Zone[2], buffer1=Work_Zone[3], buffer2=Work_Zone[4], buffer3=Work_Zone[5])
  5: 0x00C4 [0x1D] PRINT_EVENT_MESSAGE(message_id=9019*)
     "Sorry for the wait, but your equipment is finally in. Are you not relieved that you did not rush our genius?"
  6: 0x00C7 [0x23] WAIT_FOR_DIALOG_INTERACTION
  7: 0x00C8 [0x93] DISPLAY_ITEM_INFO(item_id=0*)
  8: 0x00CB [0x2E] SET_CLI_EVENT_CANCEL_FLAGS()
  9: 0x00CC [0x21] END_EVENT
 10: 0x00CD [0x00] END_REQSTACK()
```

### Event 387

#### Metadata

| Field        | Value     |
|--------------|-----------|
| Entrypoint   | 0x00CE    |
| Data Size    | 102 bytes |
| Instructions | 26        |

```
      00 01 02 03 04 05 06 07  08 09 0A 0B 0C 0D 0E 0F
      -- -- -- -- -- -- -- --  -- -- -- -- -- -- -- --
00C0:                                            03 02                ..
00D0: 00 02 10 03 09 00 04 10  03 08 00 05 10 03 05 00  ................
00E0: 06 10 03 06 00 07 10 03  07 00 08 10 03 00 00 09  ................
00F0: 10 03 04 00 02 80 1E F0  FF FF 7F 1C 00 80 1D 0B  ................
0100: 80 23 1D 0C 80 23 03 0B  00 02 80 03 0C 00 02 80  .#...#..........
0110: 03 0D 00 02 80 03 0E 00  02 80 03 0F 00 02 80 03  ................
0120: 10 00 02 80 03 11 00 02  80 03 12 00 02 80 1A E7  ................
0130: 01 2E 21 00                                       ..!.            
```

#### Opcodes

```
  0: 0x00CE [0x03] ExtData[1]->WorkLocal[2] = Work_Zone[2]
  1: 0x00D3 [0x03] ExtData[1]->WorkLocal[9] = Work_Zone[4]
  2: 0x00D8 [0x03] ExtData[1]->WorkLocal[8] = Work_Zone[5]
  3: 0x00DD [0x03] ExtData[1]->WorkLocal[5] = Work_Zone[6]
  4: 0x00E2 [0x03] ExtData[1]->WorkLocal[6] = Work_Zone[7]
  5: 0x00E7 [0x03] ExtData[1]->WorkLocal[7] = Work_Zone[8]
  6: 0x00EC [0x03] ExtData[1]->WorkLocal[0] = Work_Zone[9]
  7: 0x00F1 [0x03] ExtData[1]->WorkLocal[4] = 0*
  8: 0x00F6 [0x1E] EventEntity looks at LocalPlayer and starts talking
  9: 0x00FB [0x1C] WAIT(1* ticks)
 10: 0x00FE [0x1D] PRINT_EVENT_MESSAGE(message_id=9018*)
     "Sorry, but our expert team of practitioners is still taking the utmost care in reconditioning your outfit. It shall be done soon enough, though."
 11: 0x0101 [0x23] WAIT_FOR_DIALOG_INTERACTION
 12: 0x0102 [0x1D] PRINT_EVENT_MESSAGE(message_id=9027*)
     "Or perhaps you would rather check upon the various plans we offer for our phenomenal work? Well then, be my guest."
 13: 0x0105 [0x23] WAIT_FOR_DIALOG_INTERACTION
 14: 0x0106 [0x03] ExtData[1]->WorkLocal[11] = 0*
 15: 0x010B [0x03] ExtData[1]->WorkLocal[12] = 0*
 16: 0x0110 [0x03] ExtData[1]->WorkLocal[13] = 0*
 17: 0x0115 [0x03] ExtData[1]->WorkLocal[14] = 0*
 18: 0x011A [0x03] ExtData[1]->WorkLocal[15] = 0*
 19: 0x011F [0x03] ExtData[1]->WorkLocal[16] = 0*
 20: 0x0124 [0x03] ExtData[1]->WorkLocal[17] = 0*
 21: 0x0129 [0x03] ExtData[1]->WorkLocal[18] = 0*
 22: 0x012E [0x1A] CALL_SUBROUTINE(address=0x01E7)
 23: 0x0131 [0x2E] SET_CLI_EVENT_CANCEL_FLAGS()
 24: 0x0132 [0x21] END_EVENT
 25: 0x0133 [0x00] END_REQSTACK()
```

### Event 388

#### Metadata

| Field        | Value    |
|--------------|----------|
| Entrypoint   | 0x0134   |
| Data Size    | 16 bytes |
| Instructions | 8        |

```
      00 01 02 03 04 05 06 07  08 09 0A 0B 0C 0D 0E 0F
      -- -- -- -- -- -- -- --  -- -- -- -- -- -- -- --
0130:             42 1E F0 FF  FF 7F 1C 00 80 1D 0D 80      B...........
0140: 23 2E 21 00                                       #.!.            
```

#### Opcodes

```
  0: 0x0134 [0x42] SET_CLI_EVENT_CANCEL_DATA()
  1: 0x0135 [0x1E] EventEntity looks at LocalPlayer and starts talking
  2: 0x013A [0x1C] WAIT(1* ticks)
  3: 0x013D [0x1D] PRINT_EVENT_MESSAGE(message_id=9017*)
     "Thanks for actually bringing what I told you to. You cannot imagine how many imbeciles fail to listen to directions. Also remember that art takes time to create, so do not come yelling in my face if your gear is not ready yet."
  4: 0x0140 [0x23] WAIT_FOR_DIALOG_INTERACTION
  5: 0x0141 [0x2E] SET_CLI_EVENT_CANCEL_FLAGS()
  6: 0x0142 [0x21] END_EVENT
  7: 0x0143 [0x00] END_REQSTACK()
```

### Event 401

#### Metadata

| Field        | Value      |
|--------------|------------|
| Entrypoint   | 0x0144     |
| Data Size    | 9775 bytes |
| Instructions | 29         |

```
      00 01 02 03 04 05 06 07  08 09 0A 0B 0C 0D 0E 0F
      -- -- -- -- -- -- -- --  -- -- -- -- -- -- -- --
0140:             42 1E F0 FF  FF 7F 1C 00 80 03 15 00      B...........
0150: 02 10 03 16 00 03 10 03  17 00 04 10 03 18 00 05  ................
0160: 10 03 19 00 06 10 03 1A  00 07 10 03 1B 00 08 10  ................
0170: 03 1C 00 09 10 06 13 00  02 13 00 0E 80 03 CD 01  ................
0180: 9D 00 43 27 14 00 13 00  02 14 00 02 80 00 98 01  ..C'............
0190: 03 13 00 0E 80 01 C7 01  41 0F 80 10 80 14 00 0A  ........A.......
01A0: 00 9D 00 53 27 02 10 0A  00 41 02 80 11 80 14 00  ...S'....A......
01B0: 03 10 41 0E 80 12 80 14  00 04 10 02 02 10 02 80  ..A.............
01C0: 02 C7 01 1D 13 80 23 0B  13 00 01 78 01 2E 21 00  ......#....x..!.
01D0: 02 08 17 14 80 00 E6 01  02 00 00 02 80 00 E3 01  ................
01E0: 01 E6 01 0B 0A 00 1B 24  15 80 0D 00 02 00 25 02  .......$......%.
01F0: 00 10 02 80 00 FA 01 01  22 17 02 00 10 00 80 00  ........".......
0200: 72 06 03 0D 00 00 80 03  01 00 02 80 24 16 80 0B  r...........$...
0210: 00 02 80 25 02 00 10 02  80 00 22 02 01 E7 01 01  ...%......".....
0220: 6F 06 03 08 17 00 10 02  0B 00 00 10 01 34 02 03  o............4..
0230: 0C 00 02 80 03 0B 00 00  10 08 08 17 00 80 9D 00  ................
0240: 83 17 0A 00 08 17 1A D0  01 03 02 10 0A 00 9D 00  ................
0250: 43 18 0A 00 08 17 1A D0  01 03 03 10 0A 00 9D 00  C...............
0260: 03 19 0A 00 08 17 1A D0  01 03 04 10 0A 00 9D 00  ................
0270: C3 19 0A 00 08 17 1A D0  01 03 05 10 0A 00 9D 00  ................
0280: 83 1A 0A 00 08 17 1A D0  01 03 06 10 0A 00 9D 00  ................
0290: B3 17 0A 00 08 17 1A D0  01 03 07 10 0A 00 9D 00  ................
02A0: 73 18 0A 00 08 17 1A D0  01 03 08 10 0A 00 9D 00  s...............
02B0: 33 19 0A 00 08 17 1A D0  01 03 09 10 0A 00 9D 00  3...............
02C0: F3 19 0A 00 08 17 1A D0  01 03 00 17 0A 00 9D 00  ................
02D0: B3 1A 0A 00 08 17 1A D0  01 03 01 17 0A 00 02 08  ................
02E0: 17 17 80 04 0C 03 3C 01  00 00 80 00 80 3C 01 00  ......<......<..
02F0: 0A 80 00 80 3C 01 00 18  80 00 80 3C 01 00 19 80  ....<......<....
0300: 00 80 3C 01 00 1A 80 00  80 01 2F 03 3D 01 00 00  ..<......./.=...
0310: 80 00 80 3D 01 00 0A 80  00 80 3D 01 00 18 80 00  ...=......=.....
0320: 80 3D 01 00 19 80 00 80  3D 01 00 1A 80 00 80 24  .=......=......$
0330: 1B 80 0C 00 01 00 25 02  00 10 02 80 00 45 03 01  ......%......E..
0340: 07 02 01 6F 06 02 00 10  00 80 00 9A 03 03 0C 00  ...o............
0350: 00 80 9D 00 23 17 03 10  08 17 9D 00 53 17 07 10  ....#.......S...
0360: 08 17 9D 00 E3 1A 04 10  08 17 03 05 10 1C 80 03  ................
0370: 06 10 1D 80 03 09 10 1A  80 03 00 17 1E 80 1D 1F  ................
0380: 80 23 1D 20 80 23 1D 21  80 23 93 02 10 1D 22 80  .#. .#.!.#....".
0390: 23 93 02 80 01 3E 02 01  6F 06 02 00 10 0A 80 00  #....>..o.......
03A0: F4 03 03 0C 00 0A 80 03  02 10 03 10 9D 00 E3 17  ................
03B0: 03 10 08 17 9D 00 13 18  07 10 08 17 9D 00 E3 1A  ................
03C0: 04 10 08 17 03 05 10 23  80 03 06 10 24 80 03 09  .......#....$...
03D0: 10 1A 80 03 00 17 1E 80  1D 1F 80 23 1D 20 80 23  ...........#. .#
03E0: 1D 21 80 23 93 02 10 1D  22 80 23 93 02 80 01 3E  .!.#....".#....>
03F0: 02 01 6F 06 02 00 10 18  80 00 4E 04 03 0C 00 18  ..o.......N.....
0400: 80 03 02 10 04 10 9D 00  A3 18 03 10 08 17 9D 00  ................
0410: D3 18 07 10 08 17 9D 00  E3 1A 04 10 08 17 03 05  ................
0420: 10 25 80 03 06 10 26 80  03 09 10 1A 80 03 00 17  .%....&.........
0430: 1E 80 1D 1F 80 23 1D 20  80 23 1D 21 80 23 93 02  .....#. .#.!.#..
0440: 10 1D 22 80 23 93 02 80  01 3E 02 01 6F 06 02 00  ..".#....>..o...
0450: 10 19 80 00 A8 04 03 0C  00 19 80 03 02 10 05 10  ................
0460: 9D 00 63 19 03 10 08 17  9D 00 93 19 07 10 08 17  ..c.............
0470: 9D 00 E3 1A 04 10 08 17  03 05 10 27 80 03 06 10  ...........'....
0480: 28 80 03 09 10 1A 80 03  00 17 1E 80 1D 1F 80 23  (..............#
0490: 1D 20 80 23 1D 21 80 23  93 02 10 1D 22 80 23 93  . .#.!.#....".#.
04A0: 02 80 01 3E 02 01 6F 06  02 00 10 1A 80 00 02 05  ...>..o.........
04B0: 03 0C 00 1A 80 03 02 10  06 10 9D 00 23 1A 03 10  ............#...
04C0: 08 17 9D 00 53 1A 07 10  08 17 9D 00 E3 1A 04 10  ....S...........
04D0: 08 17 03 05 10 29 80 03  06 10 2A 80 03 09 10 1A  .....)....*.....
04E0: 80 03 00 17 1E 80 1D 1F  80 23 1D 20 80 23 1D 21  .........#. .#.!
04F0: 80 23 93 02 10 1D 22 80  23 93 02 80 01 3E 02 01  .#....".#....>..
0500: 6F 06 02 00 10 2B 80 00  4B 05 03 0C 00 2B 80 03  o....+..K....+..
0510: 02 10 07 10 9D 00 83 17  03 10 08 17 9D 00 13 1B  ................
0520: 04 10 08 17 03 05 10 2C  80 03 06 10 2D 80 03 09  .......,....-...
0530: 10 0E 80 1D 1F 80 23 1D  20 80 23 93 02 10 1D 22  ......#. .#...."
0540: 80 23 93 02 80 01 3E 02  01 6F 06 02 00 10 11 80  .#....>..o......
0550: 00 94 05 03 0C 00 11 80  03 02 10 08 10 9D 00 43  ...............C
0560: 18 03 10 08 17 9D 00 13  1B 04 10 08 17 03 05 10  ................
0570: 2E 80 03 06 10 2F 80 03  09 10 0E 80 1D 1F 80 23  ...../.........#
0580: 1D 20 80 23 93 02 10 1D  22 80 23 93 02 80 01 3E  . .#....".#....>
0590: 02 01 6F 06 02 00 10 0E  80 00 DD 05 03 0C 00 0E  ..o.............
05A0: 80 03 02 10 09 10 9D 00  03 19 03 10 08 17 9D 00  ................
05B0: 13 1B 04 10 08 17 03 05  10 30 80 03 06 10 31 80  .........0....1.
05C0: 03 09 10 0E 80 1D 1F 80  23 1D 20 80 23 93 02 10  ........#. .#...
05D0: 1D 22 80 23 93 02 80 01  3E 02 01 6F 06 02 00 10  .".#....>..o....
05E0: 32 80 00 26 06 03 0C 00  32 80 03 02 10 00 17 9D  2..&....2.......
05F0: 00 C3 19 03 10 08 17 9D  00 13 1B 04 10 08 17 03  ................
0600: 05 10 33 80 03 06 10 34  80 03 09 10 0E 80 1D 1F  ..3....4........
0610: 80 23 1D 20 80 23 93 02  10 1D 22 80 23 93 02 80  .#. .#....".#...
0620: 01 3E 02 01 6F 06 02 00  10 1E 80 00 6F 06 03 0C  .>..o.......o...
0630: 00 1E 80 03 02 10 01 17  9D 00 83 1A 03 10 08 17  ................
0640: 9D 00 13 1B 04 10 08 17  03 05 10 35 80 03 06 10  ...........5....
0650: 36 80 03 09 10 0E 80 1D  1F 80 23 1D 20 80 23 93  6.........#. .#.
0660: 02 10 1D 22 80 23 93 02  80 01 3E 02 01 6F 06 01  ...".#....>..o..
0670: 22 17 02 00 10 0A 80 00  69 0C 03 0D 00 0A 80 03  ".......i.......
0680: 01 00 02 80 24 37 80 0F  00 02 80 25 02 00 10 02  ....$7.....%....
0690: 80 00 9A 06 01 E7 01 01  66 0C 03 08 17 00 10 02  ........f.......
06A0: 0F 00 00 10 01 AC 06 03  0E 00 02 80 03 0F 00 00  ................
06B0: 10 08 08 17 00 80 9D 00  D3 1B 0A 00 08 17 03 02  ................
06C0: 10 0A 00 9D 00 C3 1C 0A  00 08 17 03 03 10 0A 00  ................
06D0: 9D 00 B3 1D 0A 00 08 17  03 04 10 0A 00 9D 00 A3  ................
06E0: 1E 0A 00 08 17 03 05 10  0A 00 9D 00 93 1F 0A 00  ................
06F0: 08 17 03 06 10 0A 00 9D  00 03 1C 0A 00 08 17 03  ................
0700: 07 10 0A 00 9D 00 F3 1C  0A 00 08 17 03 08 10 0A  ................
0710: 00 9D 00 E3 1D 0A 00 08  17 03 09 10 0A 00 9D 00  ................
0720: D3 1E 0A 00 08 17 03 00  17 0A 00 9D 00 C3 1F 0A  ................
0730: 00 08 17 03 01 17 0A 00  02 08 17 17 80 04 66 07  ..............f.
0740: 3C 01 00 00 80 00 80 3C  01 00 0A 80 00 80 3C 01  <......<......<.
0750: 00 18 80 00 80 3C 01 00  19 80 00 80 3C 01 00 1A  .....<......<...
0760: 80 00 80 01 89 07 3D 01  00 00 80 00 80 3D 01 00  ......=......=..
0770: 0A 80 00 80 3D 01 00 18  80 00 80 3D 01 00 19 80  ....=......=....
0780: 00 80 3D 01 00 1A 80 00  80 24 1B 80 0E 00 01 00  ..=......$......
0790: 25 02 00 10 02 80 00 AD  07 3D 01 00 11 80 00 80  %........=......
07A0: 3D 01 00 32 80 00 80 01  7F 06 01 66 0C 02 00 10  =..2.......f....
07B0: 00 80 00 47 08 03 0E 00  00 80 9D 00 43 1B 03 10  ...G........C...
07C0: 08 17 9D 00 73 1B 04 17  08 17 9D 00 A3 1B 01 17  ....s...........
07D0: 08 17 9D 00 F3 1F 04 10  08 17 03 05 10 1C 80 03  ................
07E0: 06 10 1D 80 03 09 10 1A  80 03 00 17 1E 80 9D 00  ................
07F0: 23 20 02 17 08 17 03 03  17 0A 80 9D 00 83 20 06  # ............ .
0800: 17 08 17 02 06 17 38 80  00 13 08 03 07 17 39 80  ......8.......9.
0810: 01 18 08 03 07 17 02 80  1D 3A 80 23 1D 3B 80 23  .........:.#.;.#
0820: 1D 3C 80 23 1D 3D 80 23  1D 3E 80 23 1D 3F 80 23  .<.#.=.#.>.#.?.#
0830: CC 01 02 10 0A 80 06 17  07 17 1D 22 80 23 93 02  ...........".#..
0840: 80 01 B6 06 01 66 0C 02  00 10 0A 80 00 D1 08 03  .....f..........
0850: 0E 00 0A 80 03 02 10 03  10 9D 00 33 1C 03 10 08  ...........3....
0860: 17 9D 00 63 1C 04 17 08  17 9D 00 93 1C 01 17 08  ...c............
0870: 17 9D 00 F3 1F 04 10 08  17 03 05 10 23 80 03 06  ............#...
0880: 10 24 80 03 09 10 1A 80  03 00 17 1E 80 9D 00 23  .$.............#
0890: 20 02 17 08 17 03 03 17  0A 80 9D 00 B3 20 06 17   ............ ..
08A0: 08 17 1D 3A 80 23 1D 3B  80 23 1D 3C 80 23 1D 3D  ...:.#.;.#.<.#.=
08B0: 80 23 1D 3E 80 23 1D 3F  80 23 CC 01 02 10 0A 80  .#.>.#.?.#......
08C0: 06 17 02 80 1D 22 80 23  93 02 80 01 B6 06 01 66  .....".#.......f
08D0: 0C 02 00 10 18 80 00 5B  09 03 0E 00 18 80 03 02  .......[........
08E0: 10 04 10 9D 00 23 1D 03  10 08 17 9D 00 53 1D 04  .....#.......S..
08F0: 17 08 17 9D 00 83 1D 01  17 08 17 9D 00 F3 1F 04  ................
0900: 10 08 17 03 05 10 25 80  03 06 10 26 80 03 09 10  ......%....&....
