# 17784896 - Zona Shodhun

## Common Data

| Field            | Value                |
|------------------|----------------------|
| Zone             | Port Jeuno (ID: 246) |
| Block Size       | 2712 bytes           |
| Total Events     | 2                    |
| References Count | 191                  |

## List of Events

| Event ID              | Entrypoint   |   Size |   Instructions |
|-----------------------|--------------|--------|----------------|
| [65535](#event-65535) | 0x0000       |      2 |              2 |
| [10023](#event-10023) | 0x0002       |   1919 |            549 |

## DAT References (imed_data)

|   Index | Hex Value   |   Dec Value |
|---------|-------------|-------------|
|       0 | 0x000A      |          10 |
|       1 | 0x00E7      |         231 |
|       2 | 0x00EC      |         236 |
|       3 | 0x00EF      |         239 |
|       4 | 0x00F6      |         246 |
|       5 | 0x00FF      |         255 |
|       6 | 0x1BFB      |        7163 |
|       7 | 0x1BFC      |        7164 |
|       8 | 0x1BFD      |        7165 |
|       9 | 0x1BFE      |        7166 |
|      10 | 0x1BFF      |        7167 |
|      11 | 0x1C00      |        7168 |
|      12 | 0x1BF9      |        7161 |
|      13 | 0x1BFA      |        7162 |
|      14 | 0x1AEA      |        6890 |
|      15 | 0x1AEB      |        6891 |
|      16 | 0x0000      |           0 |
|      17 | 0x1AED      |        6893 |
|      18 | 0x0001      |           1 |
|      19 | 0x1AEC      |        6892 |
|      20 | 0x1AEE      |        6894 |
|      21 | 0x1AEF      |        6895 |
|      22 | 0x1AF1      |        6897 |
|      23 | 0x1AF2      |        6898 |
|      24 | 0x1AF3      |        6899 |
|      25 | 0x1AF4      |        6900 |
|      26 | 0x0078      |         120 |
|      27 | 0x1AF5      |        6901 |
|      28 | 0x1AF6      |        6902 |
|      29 | 0x1AF7      |        6903 |
|      30 | 0x1AF8      |        6904 |
|      31 | 0x1AF9      |        6905 |
|      32 | 0x1AFA      |        6906 |
|      33 | 0x1AFB      |        6907 |
|      34 | 0x0002      |           2 |
|      35 | 0x1AFC      |        6908 |
|      36 | 0x1AFD      |        6909 |
|      37 | 0x1AFE      |        6910 |
|      38 | 0x1AFF      |        6911 |
|      39 | 0x1B00      |        6912 |
|      40 | 0x1B01      |        6913 |
|      41 | 0x1B02      |        6914 |
|      42 | 0x0003      |           3 |
|      43 | 0x1B03      |        6915 |
|      44 | 0x1B04      |        6916 |
|      45 | 0x1B05      |        6917 |
|      46 | 0x1B06      |        6918 |
|      47 | 0x1B07      |        6919 |
|      48 | 0x1AF0      |        6896 |
|      49 | 0x03BE      |         958 |
|      50 | 0x1C6A      |        7274 |
|      51 | 0x1C6B      |        7275 |
|      52 | 0x1C6C      |        7276 |
|      53 | 0x1C6D      |        7277 |
|      54 | 0x1C6E      |        7278 |
|      55 | 0x1C6F      |        7279 |
|      56 | 0x0005      |           5 |
|      57 | 0x1C72      |        7282 |
|      58 | 0x1C73      |        7283 |
|      59 | 0x1C74      |        7284 |
|      60 | 0x1C71      |        7281 |
|      61 | 0x1C75      |        7285 |
|      62 | 0x1C70      |        7280 |
|      63 | 0x0014      |          20 |
|      64 | 0x1C76      |        7286 |
|      65 | 0x1C77      |        7287 |
|      66 | 0x1C78      |        7288 |
|      67 | 0x003C      |          60 |
|      68 | 0x1C79      |        7289 |
|      69 | 0x1C7A      |        7290 |
|      70 | 0x1C7B      |        7291 |
|      71 | 0x00C8      |         200 |
|      72 | 0x1C7C      |        7292 |
|      73 | 0x1C7D      |        7293 |
|      74 | 0x1C7F      |        7295 |
|      75 | 0x1C80      |        7296 |
|      76 | 0x1C81      |        7297 |
|      77 | 0x03E8      |        1000 |
|      78 | 0x00C9      |         201 |
|      79 | 0x1C82      |        7298 |
|      80 | 0x1C84      |        7300 |
|      81 | 0x1C85      |        7301 |
|      82 | 0x0004      |           4 |
|      83 | 0x1C83      |        7299 |
|      84 | 0x03BD      |         957 |
|      85 | 0x1C49      |        7241 |
|      86 | 0x1C4A      |        7242 |
|      87 | 0x1C4B      |        7243 |
|      88 | 0x1C4C      |        7244 |
|      89 | 0x1C4D      |        7245 |
|      90 | 0x1C4E      |        7246 |
|      91 | 0x1C4F      |        7247 |
|      92 | 0x1C50      |        7248 |
|      93 | 0x1C53      |        7251 |
|      94 | 0x1C52      |        7250 |
|      95 | 0x1C51      |        7249 |
|      96 | 0x1C54      |        7252 |
|      97 | 0x1C55      |        7253 |
|      98 | 0x1C56      |        7254 |
|      99 | 0x1C57      |        7255 |
|     100 | 0x1C58      |        7256 |
|     101 | 0x1C59      |        7257 |
|     102 | 0x1C5A      |        7258 |
|     103 | 0x1C5B      |        7259 |
|     104 | 0x1C5C      |        7260 |
|     105 | 0x1C5D      |        7261 |
|     106 | 0x1C5E      |        7262 |
|     107 | 0x1C5F      |        7263 |
|     108 | 0x1C60      |        7264 |
|     109 | 0x1C62      |        7266 |
|     110 | 0x07D0      |        2000 |
|     111 | 0x1C63      |        7267 |
|     112 | 0x1C66      |        7270 |
|     113 | 0x1C67      |        7271 |
|     114 | 0x1C64      |        7268 |
|     115 | 0x1C68      |        7272 |
|     116 | 0x1C69      |        7273 |
|     117 | 0x1C65      |        7269 |
|     118 | 0x03BC      |         956 |
|     119 | 0x1C23      |        7203 |
|     120 | 0x1C24      |        7204 |
|     121 | 0x1C25      |        7205 |
|     122 | 0x1C26      |        7206 |
|     123 | 0x1C27      |        7207 |
|     124 | 0x1C28      |        7208 |
|     125 | 0x1C2A      |        7210 |
|     126 | 0x1C29      |        7209 |
|     127 | 0x1C2B      |        7211 |
|     128 | 0x1C2C      |        7212 |
|     129 | 0x1C2D      |        7213 |
|     130 | 0x1C2E      |        7214 |
|     131 | 0x1C2F      |        7215 |
|     132 | 0x1C30      |        7216 |
|     133 | 0x1C31      |        7217 |
|     134 | 0x1C34      |        7220 |
|     135 | 0x1C35      |        7221 |
|     136 | 0x1C36      |        7222 |
|     137 | 0x1C32      |        7218 |
|     138 | 0x1C33      |        7219 |
|     139 | 0x1C37      |        7223 |
|     140 | 0x1C38      |        7224 |
|     141 | 0x1C39      |        7225 |
|     142 | 0x1C3A      |        7226 |
|     143 | 0x1C3B      |        7227 |
|     144 | 0x1C3C      |        7228 |
|     145 | 0x1C3D      |        7229 |
|     146 | 0x1C3F      |        7231 |
|     147 | 0x1C40      |        7232 |
|     148 | 0x1C41      |        7233 |
|     149 | 0x1C42      |        7234 |
|     150 | 0x0BB8      |        3000 |
|     151 | 0x1C43      |        7235 |
|     152 | 0x1C45      |        7237 |
|     153 | 0x1C46      |        7238 |
|     154 | 0x1C44      |        7236 |
|     155 | 0x1C47      |        7239 |
|     156 | 0x1C48      |        7240 |
|     157 | 0x0303      |         771 |
|     158 | 0x1C02      |        7170 |
|     159 | 0x1C03      |        7171 |
|     160 | 0x1C04      |        7172 |
|     161 | 0x1C05      |        7173 |
|     162 | 0x1C06      |        7174 |
|     163 | 0x1C07      |        7175 |
|     164 | 0x1C08      |        7176 |
|     165 | 0x1C0A      |        7178 |
|     166 | 0x1C09      |        7177 |
|     167 | 0x1C0B      |        7179 |
|     168 | 0x1C0C      |        7180 |
|     169 | 0x1C0D      |        7181 |
|     170 | 0x1C0E      |        7182 |
|     171 | 0x1C10      |        7184 |
|     172 | 0x1C12      |        7186 |
|     173 | 0x1C11      |        7185 |
|     174 | 0x1C13      |        7187 |
|     175 | 0x1C14      |        7188 |
|     176 | 0x1C15      |        7189 |
|     177 | 0x1C16      |        7190 |
|     178 | 0x1C17      |        7191 |
|     179 | 0x1C19      |        7193 |
|     180 | 0x1C1A      |        7194 |
|     181 | 0x1C1B      |        7195 |
|     182 | 0x0FA0      |        4000 |
|     183 | 0x1C1C      |        7196 |
|     184 | 0x1C1E      |        7198 |
|     185 | 0x1C1F      |        7199 |
|     186 | 0x1C20      |        7200 |
|     187 | 0x1C1D      |        7197 |
|     188 | 0x1C21      |        7201 |
|     189 | 0x1C22      |        7202 |
|     190 | 0x0051      |          81 |

## String References

- **6890**: Hey therrre, [mister/miss]! Have you heard? Have you?
- **6891**: Well, have you? [What are you talking about?/Yes, I have!]
- **6892**: Reooow. Well, I guess I don't have to tell you, then.
- **6893**: Do you rrreally wanna know? Really? Really? Listen! I know the secrets of gar-den-ing.
- **6894**: What do you wanna know? What do you wanna know?
- **6895**: What do you want to know? [What is gardening?/What do I need to start?/How do I garden?/Are there any limits?/Bye-bye!]
- **6896**: Meowww...
- **6897**: Take a seed, plant it in a flowerpot, and leave the rest to your moogle! That's garrrdening!
- **6898**: Then, after a while, a prrretty flower blooms!
- **6899**: And then, and then the flower turrrns into fruit, and you can get all kinds of neat stuff!
- **6900**: % stares off into the distance.
- **6901**: Oops! I was just thinking about all that delicious fruit. Purrrrrr...
- **6902**: Um, okay, to start off, you're gonna need a flowerrrpot and some seeds.
- **6903**: You can buy flowerrrpots in town, but you're gonna have to go out and get your seeds from plant-monsterrrs.
- **6904**: And then guess what! Guess! Guess!
- **6905**: Give your plant a crrrystal and its frrruit will change! Really!
- **6906**: % stares off into the distance.
- **6907**: Oh! I was just thinking about all the different kinds of fruit and... Purrrrrr...
- **6908**: You can sit back, relax and do all your garrrdening in your Mog House!t
- **6909**: All you have to do is tell him what to do, and your moogle will do all the worrrk!t
- **6910**: But make sure you check up on your plant sometimes, or it might...
- **6911**: % looks a little sad.
- **6912**: Well, just check up on your plant every now and then, okay? Prrromise?
- **6913**: Even if you're off on an adventurrre somewhere, your moogle will use his special powerrrs to take care of your plant!
- **6914**: Moogles are so cool!
- **6915**: Um, um, I think you can have up to ten plants in yourrr room.
- **6916**: Any morrre and your moogle won't be able to handle it! They're rrreally busy, you know!
- **6917**: And... Oh, yeah! You have to put your seeds and flowerpots in your Mog Safe beforrre you can use 'em!
- **6918**: They need to be in therrre so your moogle can use his magic on 'em!
- **6919**: Moogles are awesome!t
- **7161**: The prrretty yellow rocks go round and round, Round and round, meow meow meow.t
- **7162**: I want a rrrock that's nice and round, And a little yellow.t
- **7163**: I wish that all of San d'Oria was full of pretty flowerrrs...
- **7164**: ...I wonder if everrrybody knows about garrrdening.
- **7165**: (Nobody knows the way to a girrrl's heart anymorrre...)
- **7166**: (Now, if only somebody came along with one of those rrred beauties...)
- **7167**: This is sooo cute...but members of the Star Onion Brrrigade are supposed to do only good deeds...but this is sooo cute.
- **7168**: Meooow... Wouldn't it be grrreat if my whole house was made of flowerrrs?
- **7170**: Reooow? You'rrre giving this to me?
- **7171**: Meooow... But this...meooow...
- **7172**: % looks a little confused.
- **7173**: I only like prrretty flowerrrs and prrretty rocks. Don't need anything else.
- **7174**: Prrretty yellow rocks! That's what I'm collecting!
- **7175**: Wow! What a prrretty flowerrr! It smells sooo good!
- **7176**: Wow! What a prrretty rock! It's sooo smooth!
- **7177**: $3! I'm sooo happy! Purrrrrr...
- **7178**: Now my room will be full of prrretty rocks and flowerrrs! Heh heh!
- **7179**: %looks very happy.
- **7180**: Now, all my collection needs is $3!
- **7181**: Anyway, thanks, [misterrr/miss]t
- **7182**: Meooow! This is the one! This is the one!
- **7184**: This one is grrreat, too! You got all these forrr me?
- **7185**: % looks really happy.
- **7186**: % looks really, REALLY happy.
- **7187**: You're the grrreatest!!
- **7188**: I can't give you anything in returrrn, but I can tell you my secrrret!
- **7189**: Come closerrr...
- **7190**: (Meow meow meow meow...)
- **7191**: (Meow meow meow meow...)
- **7193**: Heh-heh...
- **7194**: % looks extremely happy.
- **7195**: Don't tell anybody I told you that! It'll be our little secrrret!
- **7196**: Wow! Thanks! My house is filled with prrretty flowers!
- **7197**: Wow! More yellow rocks! My house gets prrrettier every day!
- **7198**: But my moogle, my moogle is rrreally upset. She says we don't have any more space in my house!
- **7199**: "You have no more room, kupo!" Reooow... Give me a brrreak!
- **7200**: So, you can have that back! I guess I'll just have to give up on it this time. (Sigh)
- **7201**: Hee-hee. [Misterrr/Miss], I don't need this.
- **7202**: I'd like to keep it, too, but I'm already out of space in my room...
- **7203**: Meow? Is this for me?
- **7204**: I'm happy, but...
- **7205**: % looks a little confused.
- **7206**: But what I rrreally want is a prrretty flower to put in my vase at home...
- **7207**: Thanks for the offerrr, though, [misterrr/miss].
- **7208**: Meow? A prrresent for me? Wow! Purrrrrrr...
- **7209**: $3 prrretty flowerrrs for me? These will look grrreat in my room!
- **7210**: With all these, I won't have to pick any flowerrrs here for my rrroom.
- **7211**: I looove all kinds of flowerrrs. Especially prrretty $3!
- **7212**: % looks very happy.
- **7213**: Thank you, [misterrr/miss]!
- **7214**: ...
- **7215**: Yes?
- **7216**: Do you have anything else to say? [Bye bye!/Don't I get anything else?/...]
- **7217**: By\`e!t
- **7218**: (I wonderrr what's wrong with [him/herrr]..?)
- **7219**: (I alrrready said thank you...mew...)
- **7220**: Umm...anything...umm...else?
- **7221**: Three cheers for <Player>! Yeah! Yeah! Yeah!
- **7222**: (I hope that was enough...)
- **7223**: Is this really--Is this really? $3, forrr me? It's sooo prrretty!
- **7224**: This is my favorrrite flowerrr in the whole wide worrrld! Purrrrrrr...
- **7225**: % looks very, VERY happy.
- **7226**: OK! I'll let you in on a little secrrret...
- **7227**: % starts whispering something in your ear.
- **7228**: (But you have to prrromise not to tell anybody...)
- **7229**: iWhisper...meow...whisper)
- **7231**: Heh-heh... Pretty cool, huh?
- **7232**: % looks pleased with herself.
- **7233**: Don't forrrget, you prrromised not to tell anybody! Not even the other memberrrs of the Star Onion Brigade!
- **7234**: This is just between you and me!
- **7235**: Thank yout Thank yout Thank yout
- **7236**: Thank you for all the prrretty flowerrrs!t
- **7237**: But I've rrrun out of vases to put them in! You can have this back.
- **7238**: It's a prrresent from me to you!
- **7239**: Flowerrrs...purrrrrr...
- **7240**: % can't take her eyes off the flowers in front of her, and pays no attention to your gift.
- **7241**: Meow? For me?
- **7242**: ...
- **7243**: You, you, you...
- **7244**: You can't move the hearrrt of a lady with junk like this!
- **7245**: You'll need something more--more exciting, more excellent, more extrrravagant! Something like flowerrrs...
- **7246**: There aren't many people who can imprrress me.
- **7247**: Herrre. I don't need this, [misterrr/miss].
- **7248**: How beautiful! You really know the way to a lady's hearrrt.
- **7249**: But this is just the basics. You've still got a ways to imprrress me!
- **7250**: This tiny bouquet is cute, but you're still far from imprrressing me!
- **7251**: And a full bouquet! You're starting to catch on, but anyone can brrring me this.
- **7252**: % smiles slyly at you.
- **7253**: If you really want to melt a girls' hearrrt, you should trrry $3.
- **7254**: Well, thanks anyway for the flowerrrs! La la la la lat
- **7255**: What's this...
- **7256**: ...
- **7257**: % looks very happy!
- **7258**: This is it! The colorrr! The shape! The frrragrance! Purrrrr...
- **7259**: I have to admit it. You rrreally know how to imprrress a girl.
- **7260**: % checks the area before approaching you.
- **7261**: (Um...I just, I just wanted to say...)
- **7262**: (You can always come back to visit...if you ever have any extra flowerrrs...)
- **7263**: (Oh yeah, and I'll teach you some of the back alleys...so you can get here easily...)
- **7264**: (You just go down....)
- **7266**: <Giggle> Thank you!
- **7267**: You've rrreally touched my hearrrt.t
- **7268**: Another one! You know that this is my favorrrite! Thank you!t
- **7269**: Meow? Did you already forrrget the way to a girrrl's heart?
- **7270**: If I took all the norrrmal gifts I got from my fans, I wouldn't have any room for the rrreally nice gifts.
- **7271**: You can have this back!
- **7272**: It's tough being adorrred by hundrrreds, but I guess I'll have to get used to it.
- **7273**: You can have this flowerrr back.
- **7274**: Meow? What's this?
- **7275**: For me? Hmm...
- **7276**: % does not look that excited.
- **7277**: I'd rather have a flowerrr like the one in Queen Leaute's garrrden.
- **7278**: Here, you can have this back.
- **7279**: A flowerrr, for me? I have to show this to Mister Chalvatot!
- **7280**: You know--you know--Mister Chalvatot is always rrreally happy when I bring him flowerrrs.t
- **7281**: This little bouquet is just like the lovely bunch of flowers Mister Chalvatot gathered for me one time! Thank you so much!
- **7282**: Someday--someday--I'm gonna be just like Princess Claidie! Chalvatot said if I take rrreal good care of my flowerrrs that I could!
- **7283**: I'm gonna take these and plant them all around San d'Orrria! Thank you!!
- **7284**: If I only had $3...
- **7285**: If I ever get $3, I'm gonna plant it in Queen Leaute's garden!t
- **7286**: Meooow! $3! For me? Yeah!
- **7287**: Now--Now Queen Leaute's garden will be prrrettier than ever!
- **7288**: % looks overwhelmingly pleased.
- **7289**: You've been so nice. I wanna give you something to say thanks...
- **7290**: % has a light bulb over her head.
- **7291**: I got it! I got it! I'll tell you my secrrret!
- **7292**: (Meow meow meow meow...)
- **7293**: (Meow meow meow meow...)
- **7295**: But don't tell anyone, okay?
- **7296**: % looks very happy.
- **7297**: Secrett Secrett It's our little secret!t
- **7298**: Another one? Another one? Forrr me? Yeah!
- **7299**: Wow! I'll take this and plant it in the garden rrright now!
- **7300**: ... Umm, but I don't have anything to give you in returrrn.
- **7301**: I'm sorrry, but I can't take this. Thanks anyway! You will come and see the flowers I planted in the garden, though, won't you? Won't you?

## Events

### Event 65535

#### Metadata

| Field        | Value   |
|--------------|---------|
| Entrypoint   | 0x0000  |
| Data Size    | 2 bytes |
| Instructions | 1       |

```
      00 01 02 03 04 05 06 07  08 09 0A 0B 0C 0D 0E 0F
      -- -- -- -- -- -- -- --  -- -- -- -- -- -- -- --
0000: 00 00                                             ..              
```

#### Opcodes

```
  0: 0x0000 [0x00] END_REQSTACK()
```

#### Data or dead code:

```
# Dead code (unreachable instructions):
     0x0001 [0x00] END_REQSTACK()
```

### Event 10023

#### Metadata

| Field        | Value      |
|--------------|------------|
| Entrypoint   | 0x0002     |
| Data Size    | 1919 bytes |
| Instructions | 549        |

```
      00 01 02 03 04 05 06 07  08 09 0A 0B 0C 0D 0E 0F
      -- -- -- -- -- -- -- --  -- -- -- -- -- -- -- --
0000:       42 03 02 00 02 10  03 00 00 03 10 03 01 00    B.............
0010: 04 10 03 03 00 08 10 03  07 00 09 10 03 06 00 05  ................
0020: 10 03 04 00 06 10 03 05  00 07 10 03 01 00 04 10  ................
0030: 03 01 10 01 00 02 01 00  00 80 00 43 00 1A 80 00  ...........C....
0040: 01 7E 00 02 00 00 01 80  80 51 00 1A C0 01 01 7E  .~.......Q.....~
0050: 00 02 00 00 02 80 80 5F  00 1A F4 02 01 7E 00 02  ......._.....~..
0060: 00 00 03 80 80 6D 00 1A  31 04 01 7E 00 02 00 00  .....m..1..~....
0070: 04 80 80 7B 00 1A AB 05  01 7E 00 1A F4 02 21 00  ...{.....~....!.
0080: 02 07 00 05 80 00 8B 00  01 D7 00 02 00 00 01 80  ................
0090: 80 9E 00 1D 06 80 23 1D  07 80 23 01 D7 00 02 00  ......#...#.....
00A0: 00 02 80 80 B1 00 1D 08  80 23 1D 09 80 23 01 D7  .........#...#..
00B0: 00 02 00 00 03 80 80 C4  00 1D 0A 80 23 1D 0B 80  ............#...
00C0: 23 01 D7 00 02 00 00 04  80 80 D7 00 1D 0C 80 23  #..............#
00D0: 1D 0D 80 23 01 D7 00 4A  F8 FF FF 7F F0 FF FF 7F  ...#...J........
00E0: 1D 0E 80 23 24 0F 80 10  80 10 80 25 02 00 10 10  ...#$......%....
00F0: 80 00 FE 00 1D 11 80 23  1A 0E 01 01 0D 01 02 00  .......#........
0100: 10 12 80 00 0D 01 1D 13  80 23 01 0D 01 1B 03 09  .........#......
0110: 00 12 80 1D 14 80 23 02  09 00 10 80 02 BF 01 24  ......#........$
0120: 15 80 10 80 10 80 25 02  00 10 10 80 00 48 01 1D  ......%......H..
0130: 16 80 23 1D 17 80 23 1D  18 80 23 48 19 80 1C 1A  ..#...#...#H....
0140: 80 1D 1B 80 23 01 BC 01  02 00 10 12 80 00 6D 01  ....#.........m.
0150: 1D 1C 80 23 1D 1D 80 23  1D 1E 80 23 1D 1F 80 23  ...#...#...#...#
0160: 48 20 80 1C 1A 80 1D 21  80 23 01 BC 01 02 00 10  H .....!.#......
0170: 22 80 00 96 01 1D 23 80  23 1D 24 80 23 1D 25 80  ".....#.#.$.#.%.
0180: 23 48 26 80 1C 1A 80 1D  27 80 23 1D 28 80 23 1D  #H&.....'.#.(.#.
0190: 29 80 23 01 BC 01 02 00  10 2A 80 00 B5 01 1D 2B  ).#......*.....+
01A0: 80 23 1D 2C 80 23 1D 2D  80 23 1D 2E 80 23 1D 2F  .#.,.#.-.#...#./
01B0: 80 23 01 BC 01 1D 30 80  23 06 09 00 01 17 01 1B  .#....0.#.......
01C0: 03 08 00 31 80 03 05 10  08 00 4A F8 FF FF 7F F0  ...1......J.....
01D0: FF FF 7F 02 01 00 10 80  80 F4 01 1D 32 80 23 1D  ............2.#.
01E0: 33 80 23 48 34 80 1C 1A  80 1D 35 80 23 1D 36 80  3.#H4.....5.#.6.
01F0: 23 01 F3 02 02 01 00 12  80 80 38 02 1D 37 80 23  #.........8..7.#
0200: 1A 06 07 02 06 00 12 80  01 2D 02 02 06 00 38 80  .........-....8.
0210: 02 22 02 1D 39 80 23 1D  3A 80 23 1D 3B 80 23 01  ."..9.#.:.#.;.#.
0220: 2A 02 1D 3C 80 23 1D 3D  80 23 01 35 02 1D 3E 80  *..<.#.=.#.5..>.
0230: 23 1D 3D 80 23 01 F3 02  02 01 00 22 80 80 C5 02  #.=.#......"....
0240: 1C 3F 80 1A 3B 07 1D 40  80 23 1D 41 80 23 1A 06  .?..;..@.#.A.#..
0250: 07 48 42 80 1C 43 80 1D  44 80 23 1A 70 07 48 45  .HB..C..D.#.p.HE
0260: 80 1C 1A 80 1A 76 07 1D  46 80 23 45 47 80 F0 FF  .....v..F.#EG...
0270: FF 7F F0 FF FF 7F 66 64  6F 31 10 80 1C 43 80 1D  ......fdo1...C..
0280: 48 80 23 1D 49 80 23 45  47 80 F0 FF FF 7F F0 FF  H.#.I.#EG.......
0290: FF 7F 66 64 69 31 10 80  1C 43 80 1D 4A 80 23 1A  ..fdi1...C..J.#.
02A0: 06 07 48 4B 80 1A 06 07  1D 4C 80 23 07 01 10 4D  ..HK.....L.#...M
02B0: 80 45 4E 80 F0 FF FF 7F  F0 FF FF 7F 71 73 74 63  .EN.........qstc
02C0: 10 80 01 F3 02 02 01 00  2A 80 80 DC 02 1D 4F 80  ........*.....O.
02D0: 23 1D 50 80 23 1D 51 80  23 01 F3 02 02 01 00 52  #.P.#.Q.#......R
02E0: 80 80 F3 02 1D 53 80 23  1D 50 80 23 1D 51 80 23  .....S.#.P.#.Q.#
02F0: 01 F3 02 1B 03 08 00 54  80 03 05 10 08 00 4A F8  .......T......J.
0300: FF FF 7F F0 FF FF 7F 02  01 00 10 80 80 30 03 1D  .............0..
0310: 55 80 23 1D 56 80 23 1D  57 80 23 1D 58 80 1A 06  U.#.V.#.W.#.X...
0320: 07 1D 59 80 23 1D 5A 80  23 1D 5B 80 23 01 30 04  ..Y.#.Z.#.[.#.0.
0330: 02 01 00 12 80 80 6F 03  1D 5C 80 23 02 06 00 12  ......o..\.#....
0340: 80 02 5A 03 02 06 00 38  80 02 53 03 1D 5D 80 23  ..Z....8..S..].#
0350: 01 57 03 1D 5E 80 23 01  5E 03 1D 5F 80 23 48 60  .W..^.#.^.._.#H`
0360: 80 1C 1A 80 1D 61 80 23  1D 62 80 23 01 30 04 02  .....a.#.b.#.0..
0370: 01 00 22 80 80 E7 03 1D  63 80 1A 3B 07 1D 64 80  ..".....c..;..d.
0380: 23 48 65 80 1A 06 07 1D  66 80 23 1D 67 80 23 48  #He.....f.#.g.#H
0390: 68 80 45 47 80 F0 FF FF  7F F0 FF FF 7F 66 64 6F  h.EG.........fdo
03A0: 31 10 80 1C 1A 80 1D 69  80 23 1D 6A 80 23 1D 6B  1......i.#.j.#.k
03B0: 80 23 1D 6C 80 23 45 47  80 F0 FF FF 7F F0 FF FF  .#.l.#EG........
03C0: 7F 66 64 69 31 10 80 1C  43 80 1D 6D 80 23 07 01  .fdi1...C..m.#..
03D0: 10 6E 80 45 4E 80 F0 FF  FF 7F F0 FF FF 7F 71 73  .n.EN.........qs
03E0: 74 63 10 80 01 30 04 02  01 00 2A 80 80 FE 03 1D  tc...0....*.....
03F0: 6F 80 23 1D 70 80 23 1D  71 80 23 01 30 04 02 01  o.#.p.#.q.#.0...
0400: 00 52 80 80 19 04 1D 72  80 23 1D 70 80 23 1D 73  .R.....r.#.p.#.s
0410: 80 23 1D 74 80 23 01 30  04 02 01 00 38 80 80 30  .#.t.#.0....8..0
0420: 04 1D 75 80 23 1D 73 80  23 1D 71 80 23 01 30 04  ..u.#.s.#.q.#.0.
0430: 1B 03 08 00 76 80 03 05  10 08 00 4A F8 FF FF 7F  ....v......J....
0440: F0 FF FF 7F 02 01 00 10  80 80 65 04 1D 77 80 23  ..........e..w.#
0450: 1D 78 80 23 48 79 80 1C  1A 80 1D 7A 80 23 1D 7B  .x.#Hy.....z.#.{
0460: 80 23 01 AA 05 02 01 00  12 80 80 FA 04 1D 7C 80  .#............|.
0470: 23 02 06 00 12 80 02 96  04 02 06 00 38 80 02 88  #...........8...
0480: 04 1D 7D 80 23 01 96 04  03 05 10 06 00 1D 7E 80  ..}.#.........~.
0490: 23 03 05 10 08 00 1D 7F  80 23 48 80 80 1C 1A 80  #........#H.....
04A0: 1D 81 80 23 1C 43 80 1D  82 80 23 1D 83 80 23 24  ...#.C....#...#$
04B0: 84 80 10 80 10 80 25 02  00 10 10 80 00 C6 04 1D  ......%.........
04C0: 85 80 23 01 F7 04 02 00  10 12 80 00 E0 04 1D 86  ..#.............
04D0: 80 23 1D 87 80 23 1A 06  07 1D 88 80 23 01 F7 04  .#...#......#...
04E0: 02 00 10 22 80 00 F3 04  1D 89 80 23 1D 8A 80 23  ...".......#...#
04F0: 01 F7 04 1D 85 80 23 01  AA 05 02 01 00 22 80 80  ......#......"..
0500: 72 05 1D 8B 80 23 1D 8C  80 23 48 8D 80 1A 06 07  r....#...#H.....
0510: 1D 8E 80 23 45 47 80 F0  FF FF 7F F0 FF FF 7F 66  ...#EG.........f
0520: 64 6F 31 10 80 48 8F 80  1C 1A 80 1D 90 80 23 1D  do1..H........#.
0530: 91 80 23 45 47 80 F0 FF  FF 7F F0 FF FF 7F 66 64  ..#EG.........fd
0540: 69 31 10 80 1C 1A 80 1D  92 80 23 48 93 80 1C 1A  i1........#H....
0550: 80 1D 94 80 23 1D 95 80  23 07 01 10 96 80 45 4E  ....#...#.....EN
0560: 80 F0 FF FF 7F F0 FF FF  7F 71 73 74 63 10 80 01  .........qstc...
0570: AA 05 02 01 00 2A 80 80  89 05 1D 97 80 23 1D 98  .....*.......#..
0580: 80 23 1D 99 80 23 01 AA  05 02 01 00 52 80 80 A0  .#...#......R...
0590: 05 1D 9A 80 23 1D 98 80  23 1D 99 80 23 01 AA 05  ....#...#...#...
05A0: 1D 9B 80 23 48 9C 80 1C  43 80 1B 03 08 00 9D 80  ...#H...C.......
05B0: 03 05 10 08 00 4A F8 FF  FF 7F F0 FF FF 7F 02 01  .....J..........
05C0: 00 10 80 80 DF 05 1D 9E  80 23 1D 9F 80 23 48 A0  .........#...#H.
05D0: 80 1C 1A 80 1D A1 80 23  1D A2 80 23 01 05 07 02  .......#...#....
05E0: 01 00 12 80 80 35 06 02  04 00 10 80 01 F3 05 1D  .....5..........
05F0: A3 80 23 02 05 00 10 80  01 FF 05 1D A4 80 23 02  ..#...........#.
0600: 06 00 12 80 02 24 06 02  06 00 38 80 02 16 06 1D  .....$....8.....
0610: A5 80 23 01 24 06 03 05  10 06 00 1D A6 80 23 03  ..#.$.........#.
0620: 05 10 08 00 48 A7 80 1C  1A 80 1D A8 80 23 1D A9  ....H........#..
0630: 80 23 01 05 07 02 01 00  22 80 80 BC 06 1D AA 80  .#......".......
0640: 23 02 06 00 12 80 02 53  06 1D AB 80 23 48 AC 80  #......S....#H..
0650: 01 56 06 48 AD 80 1A 06  07 1D AE 80 23 1D AF 80  .V.H........#...
0660: 23 45 47 80 F0 FF FF 7F  F0 FF FF 7F 66 64 6F 31  #EG.........fdo1
0670: 10 80 1C 1A 80 1D B0 80  23 1D B1 80 23 1D B2 80  ........#...#...
0680: 23 45 47 80 F0 FF FF 7F  F0 FF FF 7F 66 64 69 31  #EG.........fdi1
0690: 10 80 1C 1A 80 1D B3 80  23 48 B4 80 1A 06 07 1D  ........#H......
06A0: B5 80 23 07 01 10 B6 80  45 4E 80 F0 FF FF 7F F0  ..#.....EN......
06B0: FF FF 7F 71 73 74 63 10  80 01 05 07 02 01 00 2A  ...qstc........*
06C0: 80 80 D7 06 1D B7 80 23  1D B8 80 23 1D B9 80 23  .......#...#...#
06D0: 1D BA 80 23 01 05 07 02  01 00 52 80 80 F2 06 1D  ...#......R.....
06E0: BB 80 23 1D B8 80 23 1D  B9 80 23 1D BA 80 23 01  ..#...#...#...#.
06F0: 05 07 02 01 00 38 80 80  05 07 1D BC 80 23 1D BD  .....8.......#..
0700: 80 23 01 05 07 1B 7C 00  F8 FF FF 7F 81 00 F8 FF  .#....|.........
0710: FF 7F 5B BE 80 F8 FF FF  7F F8 FF FF 7F 68 61 69  ..[..........hai
0720: 30 53 F8 FF FF 7F F8 FF  FF 7F 68 61 69 30 7C 01  0S........hai0|.
0730: F8 FF FF 7F 81 01 F8 FF  FF 7F 1B 7C 00 F8 FF FF  ...........|....
0740: 7F 81 00 F8 FF FF 7F 5B  BE 80 F8 FF FF 7F F8 FF  .......[........
0750: FF 7F 62 69 6B 30 53 F8  FF FF 7F F8 FF FF 7F 62  ..bik0S........b
0760: 69 6B 30 7C 01 F8 FF FF  7F 81 01 F8 FF FF 7F 1B  ik0|............
0770: 7B F8 FF FF 7F 1B 79 00  F8 FF FF 7F F0 FF FF 7F  {.....y.........
0780: 1B                                                .               
```

#### Opcodes

```
  0: 0x0002 [0x42] SET_CLI_EVENT_CANCEL_DATA()
  1: 0x0003 [0x03] ExtData[1]->WorkLocal[2] = Work_Zone[2]
  2: 0x0008 [0x03] ExtData[1]->WorkLocal[0] = Work_Zone[3]
  3: 0x000D [0x03] ExtData[1]->WorkLocal[1] = Work_Zone[4]
  4: 0x0012 [0x03] ExtData[1]->WorkLocal[3] = Work_Zone[8]
  5: 0x0017 [0x03] ExtData[1]->WorkLocal[7] = Work_Zone[9]
  6: 0x001C [0x03] ExtData[1]->WorkLocal[6] = Work_Zone[5]
  7: 0x0021 [0x03] ExtData[1]->WorkLocal[4] = Work_Zone[6]
  8: 0x0026 [0x03] ExtData[1]->WorkLocal[5] = Work_Zone[7]
  9: 0x002B [0x03] ExtData[1]->WorkLocal[1] = Work_Zone[4]
 10: 0x0030 [0x03] Work_Zone[1] = ExtData[1]->WorkLocal[1]
 11: 0x0035 [0x02] IF !(ExtData[1]->WorkLocal[1] == 10*) GOTO 0x0043
 12: 0x003D [0x1A] CALL_SUBROUTINE(address=0x0080)
 13: 0x0040 [0x01] GOTO 0x007E
 14: 0x0043 [0x02] IF !(ExtData[1]->WorkLocal[0] == 231*) GOTO 0x0051
 15: 0x004B [0x1A] CALL_SUBROUTINE(address=0x01C0)
 16: 0x004E [0x01] GOTO 0x007E
 17: 0x0051 [0x02] IF !(ExtData[1]->WorkLocal[0] == 236*) GOTO 0x005F
 18: 0x0059 [0x1A] CALL_SUBROUTINE(address=0x02F4)
 19: 0x005C [0x01] GOTO 0x007E
 20: 0x005F [0x02] IF !(ExtData[1]->WorkLocal[0] == 239*) GOTO 0x006D
 21: 0x0067 [0x1A] CALL_SUBROUTINE(address=0x0431)
 22: 0x006A [0x01] GOTO 0x007E
 23: 0x006D [0x02] IF !(ExtData[1]->WorkLocal[0] == 246*) GOTO 0x007B
 24: 0x0075 [0x1A] CALL_SUBROUTINE(address=0x05AB)
 25: 0x0078 [0x01] GOTO 0x007E
 26: 0x007B [0x1A] CALL_SUBROUTINE(address=0x02F4)

SUBROUTINE_007E:
 27: 0x007E [0x21] END_EVENT
 28: 0x007F [0x00] END_REQSTACK()

SUBROUTINE_0080:
 29: 0x0080 [0x02] IF !(ExtData[1]->WorkLocal[7] == 255*) GOTO 0x008B
 30: 0x0088 [0x01] GOTO 0x00D7
 31: 0x008B [0x02] IF !(ExtData[1]->WorkLocal[0] == 231*) GOTO 0x009E
 32: 0x0093 [0x1D] PRINT_EVENT_MESSAGE(message_id=7163*)
    → "I wish that all of San d'Oria was full of pretty flowerrrs..."
 33: 0x0096 [0x23] WAIT_FOR_DIALOG_INTERACTION
 34: 0x0097 [0x1D] PRINT_EVENT_MESSAGE(message_id=7164*)
    → "...I wonder if everrrybody knows about garrrdening."
 35: 0x009A [0x23] WAIT_FOR_DIALOG_INTERACTION
 36: 0x009B [0x01] GOTO 0x00D7
 37: 0x009E [0x02] IF !(ExtData[1]->WorkLocal[0] == 236*) GOTO 0x00B1
 38: 0x00A6 [0x1D] PRINT_EVENT_MESSAGE(message_id=7165*)
    → "(Nobody knows the way to a girrrl's heart anymorrre...)"
 39: 0x00A9 [0x23] WAIT_FOR_DIALOG_INTERACTION
 40: 0x00AA [0x1D] PRINT_EVENT_MESSAGE(message_id=7166*)
    → "(Now, if only somebody came along with one of those rrred beauties...)"
 41: 0x00AD [0x23] WAIT_FOR_DIALOG_INTERACTION
 42: 0x00AE [0x01] GOTO 0x00D7
 43: 0x00B1 [0x02] IF !(ExtData[1]->WorkLocal[0] == 239*) GOTO 0x00C4
 44: 0x00B9 [0x1D] PRINT_EVENT_MESSAGE(message_id=7167*)
    → "This is sooo cute...but members of the Star Onion Brrrigade are supposed to do only good deeds...but this is sooo cute."
 45: 0x00BC [0x23] WAIT_FOR_DIALOG_INTERACTION
 46: 0x00BD [0x1D] PRINT_EVENT_MESSAGE(message_id=7168*)
    → "Meooow... Wouldn't it be grrreat if my whole house was made of flowerrrs?"
 47: 0x00C0 [0x23] WAIT_FOR_DIALOG_INTERACTION
 48: 0x00C1 [0x01] GOTO 0x00D7
 49: 0x00C4 [0x02] IF !(ExtData[1]->WorkLocal[0] == 246*) GOTO 0x00D7
 50: 0x00CC [0x1D] PRINT_EVENT_MESSAGE(message_id=7161*)
    → "The prrretty yellow rocks go round and round, Round and round, meow meow meow.t"
 51: 0x00CF [0x23] WAIT_FOR_DIALOG_INTERACTION
 52: 0x00D0 [0x1D] PRINT_EVENT_MESSAGE(message_id=7162*)
    → "I want a rrrock that's nice and round, And a little yellow.t"
 53: 0x00D3 [0x23] WAIT_FOR_DIALOG_INTERACTION
 54: 0x00D4 [0x01] GOTO 0x00D7

SUBROUTINE_00D7:
 55: 0x00D7 [0x4A] EventEntity looks at LocalPlayer
 56: 0x00E0 [0x1D] PRINT_EVENT_MESSAGE(message_id=6890*)
    → "Hey therrre, [mister/miss]! Have you heard? Have you?"
 57: 0x00E3 [0x23] WAIT_FOR_DIALOG_INTERACTION
 58: 0x00E4 [0x24] CREATE_DIALOG(message_id=6891*, default_option=0*, option_flags=0*)
    → "Well, have you? [What are you talking about?/Yes, I have!]"
 59: 0x00EB [0x25] WAIT_DIALOG_SELECT()
 60: 0x00EC [0x02] IF !(Work_Zone[0] == 0*) GOTO 0x00FE
 61: 0x00F4 [0x1D] PRINT_EVENT_MESSAGE(message_id=6893*)
    → "Do you rrreally wanna know? Really? Really? Listen! I know the secrets of gar-den-ing."
 62: 0x00F7 [0x23] WAIT_FOR_DIALOG_INTERACTION
 63: 0x00F8 [0x1A] CALL_SUBROUTINE(address=0x010E)
 64: 0x00FB [0x01] GOTO 0x010D
 65: 0x00FE [0x02] IF !(Work_Zone[0] == 1*) GOTO 0x010D
 66: 0x0106 [0x1D] PRINT_EVENT_MESSAGE(message_id=6892*)
    → "Reooow. Well, I guess I don't have to tell you, then."
 67: 0x0109 [0x23] WAIT_FOR_DIALOG_INTERACTION
 68: 0x010A [0x01] GOTO 0x010D

SUBROUTINE_010D:
 69: 0x010D [0x1B] RETURN

SUBROUTINE_010E:
 70: 0x010E [0x03] ExtData[1]->WorkLocal[9] = 1*
 71: 0x0113 [0x1D] PRINT_EVENT_MESSAGE(message_id=6894*)
    → "What do you wanna know? What do you wanna know?"
 72: 0x0116 [0x23] WAIT_FOR_DIALOG_INTERACTION

SUBROUTINE_0117:
 73: 0x0117 [0x02] IF !(ExtData[1]->WorkLocal[9] <= 0*) GOTO 0x01BF
 74: 0x011F [0x24] CREATE_DIALOG(message_id=6895*, default_option=0*, option_flags=0*)
    → "What do you want to know? [What is gardening?/What do I need to start?/How do I garden?/Are there any limits?/Bye-bye!]"
 75: 0x0126 [0x25] WAIT_DIALOG_SELECT()
 76: 0x0127 [0x02] IF !(Work_Zone[0] == 0*) GOTO 0x0148
 77: 0x012F [0x1D] PRINT_EVENT_MESSAGE(message_id=6897*)
    → "Take a seed, plant it in a flowerpot, and leave the rest to your moogle! That's garrrdening!"
 78: 0x0132 [0x23] WAIT_FOR_DIALOG_INTERACTION
 79: 0x0133 [0x1D] PRINT_EVENT_MESSAGE(message_id=6898*)
    → "Then, after a while, a prrretty flower blooms!"
 80: 0x0136 [0x23] WAIT_FOR_DIALOG_INTERACTION
 81: 0x0137 [0x1D] PRINT_EVENT_MESSAGE(message_id=6899*)
    → "And then, and then the flower turrrns into fruit, and you can get all kinds of neat stuff!"
 82: 0x013A [0x23] WAIT_FOR_DIALOG_INTERACTION
 83: 0x013B [0x48] [System] [6900*]:
    → "% stares off into the distance."
 84: 0x013E [0x1C] WAIT(120* ticks)
 85: 0x0141 [0x1D] PRINT_EVENT_MESSAGE(message_id=6901*)
    → "Oops! I was just thinking about all that delicious fruit. Purrrrrr..."
 86: 0x0144 [0x23] WAIT_FOR_DIALOG_INTERACTION
 87: 0x0145 [0x01] GOTO 0x01BC
 88: 0x0148 [0x02] IF !(Work_Zone[0] == 1*) GOTO 0x016D
 89: 0x0150 [0x1D] PRINT_EVENT_MESSAGE(message_id=6902*)
    → "Um, okay, to start off, you're gonna need a flowerrrpot and some seeds."
 90: 0x0153 [0x23] WAIT_FOR_DIALOG_INTERACTION
 91: 0x0154 [0x1D] PRINT_EVENT_MESSAGE(message_id=6903*)
    → "You can buy flowerrrpots in town, but you're gonna have to go out and get your seeds from plant-monsterrrs."
 92: 0x0157 [0x23] WAIT_FOR_DIALOG_INTERACTION
 93: 0x0158 [0x1D] PRINT_EVENT_MESSAGE(message_id=6904*)
    → "And then guess what! Guess! Guess!"
 94: 0x015B [0x23] WAIT_FOR_DIALOG_INTERACTION
 95: 0x015C [0x1D] PRINT_EVENT_MESSAGE(message_id=6905*)
    → "Give your plant a crrrystal and its frrruit will change! Really!"
 96: 0x015F [0x23] WAIT_FOR_DIALOG_INTERACTION
 97: 0x0160 [0x48] [System] [6906*]:
    → "% stares off into the distance."
 98: 0x0163 [0x1C] WAIT(120* ticks)
 99: 0x0166 [0x1D] PRINT_EVENT_MESSAGE(message_id=6907*)
    → "Oh! I was just thinking about all the different kinds of fruit and... Purrrrrr..."
100: 0x0169 [0x23] WAIT_FOR_DIALOG_INTERACTION
101: 0x016A [0x01] GOTO 0x01BC
102: 0x016D [0x02] IF !(Work_Zone[0] == 2*) GOTO 0x0196
103: 0x0175 [0x1D] PRINT_EVENT_MESSAGE(message_id=6908*)
    → "You can sit back, relax and do all your garrrdening in your Mog House!t"
104: 0x0178 [0x23] WAIT_FOR_DIALOG_INTERACTION
105: 0x0179 [0x1D] PRINT_EVENT_MESSAGE(message_id=6909*)
    → "All you have to do is tell him what to do, and your moogle will do all the worrrk!t"
106: 0x017C [0x23] WAIT_FOR_DIALOG_INTERACTION
107: 0x017D [0x1D] PRINT_EVENT_MESSAGE(message_id=6910*)
    → "But make sure you check up on your plant sometimes, or it might..."
108: 0x0180 [0x23] WAIT_FOR_DIALOG_INTERACTION
109: 0x0181 [0x48] [System] [6911*]:
    → "% looks a little sad."
110: 0x0184 [0x1C] WAIT(120* ticks)
111: 0x0187 [0x1D] PRINT_EVENT_MESSAGE(message_id=6912*)
    → "Well, just check up on your plant every now and then, okay? Prrromise?"
112: 0x018A [0x23] WAIT_FOR_DIALOG_INTERACTION
113: 0x018B [0x1D] PRINT_EVENT_MESSAGE(message_id=6913*)
    → "Even if you're off on an adventurrre somewhere, your moogle will use his special powerrrs to take care of your plant!"
114: 0x018E [0x23] WAIT_FOR_DIALOG_INTERACTION
115: 0x018F [0x1D] PRINT_EVENT_MESSAGE(message_id=6914*)
    → "Moogles are so cool!"
116: 0x0192 [0x23] WAIT_FOR_DIALOG_INTERACTION
117: 0x0193 [0x01] GOTO 0x01BC
118: 0x0196 [0x02] IF !(Work_Zone[0] == 3*) GOTO 0x01B5
119: 0x019E [0x1D] PRINT_EVENT_MESSAGE(message_id=6915*)
    → "Um, um, I think you can have up to ten plants in yourrr room."
120: 0x01A1 [0x23] WAIT_FOR_DIALOG_INTERACTION
121: 0x01A2 [0x1D] PRINT_EVENT_MESSAGE(message_id=6916*)
    → "Any morrre and your moogle won't be able to handle it! They're rrreally busy, you know!"
122: 0x01A5 [0x23] WAIT_FOR_DIALOG_INTERACTION
123: 0x01A6 [0x1D] PRINT_EVENT_MESSAGE(message_id=6917*)
    → "And... Oh, yeah! You have to put your seeds and flowerpots in your Mog Safe beforrre you can use 'em!"
124: 0x01A9 [0x23] WAIT_FOR_DIALOG_INTERACTION
125: 0x01AA [0x1D] PRINT_EVENT_MESSAGE(message_id=6918*)
    → "They need to be in therrre so your moogle can use his magic on 'em!"
126: 0x01AD [0x23] WAIT_FOR_DIALOG_INTERACTION
127: 0x01AE [0x1D] PRINT_EVENT_MESSAGE(message_id=6919*)
    → "Moogles are awesome!t"
128: 0x01B1 [0x23] WAIT_FOR_DIALOG_INTERACTION
129: 0x01B2 [0x01] GOTO 0x01BC
130: 0x01B5 [0x1D] PRINT_EVENT_MESSAGE(message_id=6896*)
    → "Meowww..."
131: 0x01B8 [0x23] WAIT_FOR_DIALOG_INTERACTION
132: 0x01B9 [0x06] ExtData[1]->WorkLocal[9] = 0

SUBROUTINE_01BC:
133: 0x01BC [0x01] GOTO 0x0117
134: 0x01BF [0x1B] RETURN

SUBROUTINE_01C0:
135: 0x01C0 [0x03] ExtData[1]->WorkLocal[8] = 958*
136: 0x01C5 [0x03] Work_Zone[5] = ExtData[1]->WorkLocal[8]
137: 0x01CA [0x4A] EventEntity looks at LocalPlayer
138: 0x01D3 [0x02] IF !(ExtData[1]->WorkLocal[1] == 0*) GOTO 0x01F4
139: 0x01DB [0x1D] PRINT_EVENT_MESSAGE(message_id=7274*)
    → "Meow? What's this?"
140: 0x01DE [0x23] WAIT_FOR_DIALOG_INTERACTION
141: 0x01DF [0x1D] PRINT_EVENT_MESSAGE(message_id=7275*)
    → "For me? Hmm..."
142: 0x01E2 [0x23] WAIT_FOR_DIALOG_INTERACTION
143: 0x01E3 [0x48] [System] [7276*]:
    → "% does not look that excited."
144: 0x01E6 [0x1C] WAIT(120* ticks)
145: 0x01E9 [0x1D] PRINT_EVENT_MESSAGE(message_id=7277*)
    → "I'd rather have a flowerrr like the one in Queen Leaute's garrrden."
146: 0x01EC [0x23] WAIT_FOR_DIALOG_INTERACTION
147: 0x01ED [0x1D] PRINT_EVENT_MESSAGE(message_id=7278*)
    → "Here, you can have this back."
148: 0x01F0 [0x23] WAIT_FOR_DIALOG_INTERACTION
149: 0x01F1 [0x01] GOTO 0x02F3
150: 0x01F4 [0x02] IF !(ExtData[1]->WorkLocal[1] == 1*) GOTO 0x0238
151: 0x01FC [0x1D] PRINT_EVENT_MESSAGE(message_id=7279*)
    → "A flowerrr, for me? I have to show this to Mister Chalvatot!"
152: 0x01FF [0x23] WAIT_FOR_DIALOG_INTERACTION
153: 0x0200 [0x1A] CALL_SUBROUTINE(address=0x0706)
154: 0x0203 [0x02] IF !(ExtData[1]->WorkLocal[6] == 1*) GOTO 0x022D
155: 0x020B [0x02] IF !(ExtData[1]->WorkLocal[6] <= 5*) GOTO 0x0222
156: 0x0213 [0x1D] PRINT_EVENT_MESSAGE(message_id=7282*)
    → "Someday--someday--I'm gonna be just like Princess Claidie! Chalvatot said if I take rrreal good care of my flowerrrs that I could!"
157: 0x0216 [0x23] WAIT_FOR_DIALOG_INTERACTION
158: 0x0217 [0x1D] PRINT_EVENT_MESSAGE(message_id=7283*)
    → "I'm gonna take these and plant them all around San d'Orrria! Thank you!!"
159: 0x021A [0x23] WAIT_FOR_DIALOG_INTERACTION
160: 0x021B [0x1D] PRINT_EVENT_MESSAGE(message_id=7284*)
    → "If I only had $3..."
161: 0x021E [0x23] WAIT_FOR_DIALOG_INTERACTION
162: 0x021F [0x01] GOTO 0x022A
163: 0x0222 [0x1D] PRINT_EVENT_MESSAGE(message_id=7281*)
    → "This little bouquet is just like the lovely bunch of flowers Mister Chalvatot gathered for me one time! Thank you so much!"
164: 0x0225 [0x23] WAIT_FOR_DIALOG_INTERACTION
165: 0x0226 [0x1D] PRINT_EVENT_MESSAGE(message_id=7285*)
    → "If I ever get $3, I'm gonna plant it in Queen Leaute's garden!t"
166: 0x0229 [0x23] WAIT_FOR_DIALOG_INTERACTION

SUBROUTINE_022A:
167: 0x022A [0x01] GOTO 0x0235
168: 0x022D [0x1D] PRINT_EVENT_MESSAGE(message_id=7280*)
    → "You know--you know--Mister Chalvatot is always rrreally happy when I bring him flowerrrs.t"
169: 0x0230 [0x23] WAIT_FOR_DIALOG_INTERACTION
170: 0x0231 [0x1D] PRINT_EVENT_MESSAGE(message_id=7285*)
    → "If I ever get $3, I'm gonna plant it in Queen Leaute's garden!t"
171: 0x0234 [0x23] WAIT_FOR_DIALOG_INTERACTION

SUBROUTINE_0235:
172: 0x0235 [0x01] GOTO 0x02F3
173: 0x0238 [0x02] IF !(ExtData[1]->WorkLocal[1] == 2*) GOTO 0x02C5
174: 0x0240 [0x1C] WAIT(20* ticks)
175: 0x0243 [0x1A] CALL_SUBROUTINE(address=0x073B)
176: 0x0246 [0x1D] PRINT_EVENT_MESSAGE(message_id=7286*)
    → "Meooow! $3! For me? Yeah!"
177: 0x0249 [0x23] WAIT_FOR_DIALOG_INTERACTION
178: 0x024A [0x1D] PRINT_EVENT_MESSAGE(message_id=7287*)
    → "Now--Now Queen Leaute's garden will be prrrettier than ever!"
179: 0x024D [0x23] WAIT_FOR_DIALOG_INTERACTION
180: 0x024E [0x1A] CALL_SUBROUTINE(address=0x0706)
181: 0x0251 [0x48] [System] [7288*]:
    → "% looks overwhelmingly pleased."
182: 0x0254 [0x1C] WAIT(60* ticks)
183: 0x0257 [0x1D] PRINT_EVENT_MESSAGE(message_id=7289*)
    → "You've been so nice. I wanna give you something to say thanks..."
184: 0x025A [0x23] WAIT_FOR_DIALOG_INTERACTION
185: 0x025B [0x1A] CALL_SUBROUTINE(address=0x0770)
186: 0x025E [0x48] [System] [7290*]:
    → "% has a light bulb over her head."
187: 0x0261 [0x1C] WAIT(120* ticks)
188: 0x0264 [0x1A] CALL_SUBROUTINE(address=0x0776)
189: 0x0267 [0x1D] PRINT_EVENT_MESSAGE(message_id=7291*)
    → "I got it! I got it! I'll tell you my secrrret!"
190: 0x026A [0x23] WAIT_FOR_DIALOG_INTERACTION
191: 0x026B [0x45] LOAD_SCHEDULED_TASK: Load scheduler "fdo1" with entities [LocalPlayer, LocalPlayer], work=[200*, 0*]
192: 0x027C [0x1C] WAIT(60* ticks)
193: 0x027F [0x1D] PRINT_EVENT_MESSAGE(message_id=7292*)
    → "(Meow meow meow meow...)"
194: 0x0282 [0x23] WAIT_FOR_DIALOG_INTERACTION
195: 0x0283 [0x1D] PRINT_EVENT_MESSAGE(message_id=7293*)
    → "(Meow meow meow meow...)"
196: 0x0286 [0x23] WAIT_FOR_DIALOG_INTERACTION
197: 0x0287 [0x45] LOAD_SCHEDULED_TASK: Load scheduler "fdi1" with entities [LocalPlayer, LocalPlayer], work=[200*, 0*]
198: 0x0298 [0x1C] WAIT(60* ticks)
199: 0x029B [0x1D] PRINT_EVENT_MESSAGE(message_id=7295*)
    → "But don't tell anyone, okay?"
200: 0x029E [0x23] WAIT_FOR_DIALOG_INTERACTION
201: 0x029F [0x1A] CALL_SUBROUTINE(address=0x0706)
202: 0x02A2 [0x48] [System] [7296*]:
    → "% looks very happy."
203: 0x02A5 [0x1A] CALL_SUBROUTINE(address=0x0706)
204: 0x02A8 [0x1D] PRINT_EVENT_MESSAGE(message_id=7297*)
    → "Secrett Secrett It's our little secret!t"
205: 0x02AB [0x23] WAIT_FOR_DIALOG_INTERACTION
206: 0x02AC [0x07] Work_Zone[1] += 1000*
207: 0x02B1 [0x45] LOAD_SCHEDULED_TASK: Load scheduler "qstc" with entities [LocalPlayer, LocalPlayer], work=[201*, 0*]
208: 0x02C2 [0x01] GOTO 0x02F3
209: 0x02C5 [0x02] IF !(ExtData[1]->WorkLocal[1] == 3*) GOTO 0x02DC
210: 0x02CD [0x1D] PRINT_EVENT_MESSAGE(message_id=7298*)
    → "Another one? Another one? Forrr me? Yeah!"
211: 0x02D0 [0x23] WAIT_FOR_DIALOG_INTERACTION
212: 0x02D1 [0x1D] PRINT_EVENT_MESSAGE(message_id=7300*)
    → "... Umm, but I don't have anything to give you in returrrn."
213: 0x02D4 [0x23] WAIT_FOR_DIALOG_INTERACTION
214: 0x02D5 [0x1D] PRINT_EVENT_MESSAGE(message_id=7301*)
    → "I'm sorrry, but I can't take this. Thanks anyway! You will come and see the flowers I planted in the garden, though, won't you? Won't you?"
215: 0x02D8 [0x23] WAIT_FOR_DIALOG_INTERACTION
216: 0x02D9 [0x01] GOTO 0x02F3
217: 0x02DC [0x02] IF !(ExtData[1]->WorkLocal[1] == 4*) GOTO 0x02F3
218: 0x02E4 [0x1D] PRINT_EVENT_MESSAGE(message_id=7299*)
    → "Wow! I'll take this and plant it in the garden rrright now!"
219: 0x02E7 [0x23] WAIT_FOR_DIALOG_INTERACTION
220: 0x02E8 [0x1D] PRINT_EVENT_MESSAGE(message_id=7300*)
    → "... Umm, but I don't have anything to give you in returrrn."
221: 0x02EB [0x23] WAIT_FOR_DIALOG_INTERACTION
222: 0x02EC [0x1D] PRINT_EVENT_MESSAGE(message_id=7301*)
    → "I'm sorrry, but I can't take this. Thanks anyway! You will come and see the flowers I planted in the garden, though, won't you? Won't you?"
223: 0x02EF [0x23] WAIT_FOR_DIALOG_INTERACTION
224: 0x02F0 [0x01] GOTO 0x02F3

SUBROUTINE_02F3:
225: 0x02F3 [0x1B] RETURN

SUBROUTINE_02F4:
226: 0x02F4 [0x03] ExtData[1]->WorkLocal[8] = 957*
227: 0x02F9 [0x03] Work_Zone[5] = ExtData[1]->WorkLocal[8]
228: 0x02FE [0x4A] EventEntity looks at LocalPlayer
229: 0x0307 [0x02] IF !(ExtData[1]->WorkLocal[1] == 0*) GOTO 0x0330
230: 0x030F [0x1D] PRINT_EVENT_MESSAGE(message_id=7241*)
    → "Meow? For me?"
231: 0x0312 [0x23] WAIT_FOR_DIALOG_INTERACTION
232: 0x0313 [0x1D] PRINT_EVENT_MESSAGE(message_id=7242*)
    → "..."
233: 0x0316 [0x23] WAIT_FOR_DIALOG_INTERACTION
234: 0x0317 [0x1D] PRINT_EVENT_MESSAGE(message_id=7243*)
    → "You, you, you..."
235: 0x031A [0x23] WAIT_FOR_DIALOG_INTERACTION
236: 0x031B [0x1D] PRINT_EVENT_MESSAGE(message_id=7244*)
    → "You can't move the hearrrt of a lady with junk like this!"
237: 0x031E [0x1A] CALL_SUBROUTINE(address=0x0706)
238: 0x0321 [0x1D] PRINT_EVENT_MESSAGE(message_id=7245*)
    → "You'll need something more--more exciting, more excellent, more extrrravagant! Something like flowerrrs..."
239: 0x0324 [0x23] WAIT_FOR_DIALOG_INTERACTION
240: 0x0325 [0x1D] PRINT_EVENT_MESSAGE(message_id=7246*)
    → "There aren't many people who can imprrress me."
241: 0x0328 [0x23] WAIT_FOR_DIALOG_INTERACTION
242: 0x0329 [0x1D] PRINT_EVENT_MESSAGE(message_id=7247*)
    → "Herrre. I don't need this, [misterrr/miss]."
243: 0x032C [0x23] WAIT_FOR_DIALOG_INTERACTION
244: 0x032D [0x01] GOTO 0x0430
245: 0x0330 [0x02] IF !(ExtData[1]->WorkLocal[1] == 1*) GOTO 0x036F
246: 0x0338 [0x1D] PRINT_EVENT_MESSAGE(message_id=7248*)
    → "How beautiful! You really know the way to a lady's hearrrt."
247: 0x033B [0x23] WAIT_FOR_DIALOG_INTERACTION
248: 0x033C [0x02] IF !(ExtData[1]->WorkLocal[6] <= 1*) GOTO 0x035A
249: 0x0344 [0x02] IF !(ExtData[1]->WorkLocal[6] <= 5*) GOTO 0x0353
250: 0x034C [0x1D] PRINT_EVENT_MESSAGE(message_id=7251*)
    → "And a full bouquet! You're starting to catch on, but anyone can brrring me this."
251: 0x034F [0x23] WAIT_FOR_DIALOG_INTERACTION
252: 0x0350 [0x01] GOTO 0x0357
253: 0x0353 [0x1D] PRINT_EVENT_MESSAGE(message_id=7250*)
    → "This tiny bouquet is cute, but you're still far from imprrressing me!"
254: 0x0356 [0x23] WAIT_FOR_DIALOG_INTERACTION

SUBROUTINE_0357:
255: 0x0357 [0x01] GOTO 0x035E
256: 0x035A [0x1D] PRINT_EVENT_MESSAGE(message_id=7249*)
    → "But this is just the basics. You've still got a ways to imprrress me!"
257: 0x035D [0x23] WAIT_FOR_DIALOG_INTERACTION

SUBROUTINE_035E:
258: 0x035E [0x48] [System] [7252*]:
    → "% smiles slyly at you."
259: 0x0361 [0x1C] WAIT(120* ticks)
260: 0x0364 [0x1D] PRINT_EVENT_MESSAGE(message_id=7253*)
    → "If you really want to melt a girls' hearrrt, you should trrry $3."
261: 0x0367 [0x23] WAIT_FOR_DIALOG_INTERACTION
262: 0x0368 [0x1D] PRINT_EVENT_MESSAGE(message_id=7254*)
    → "Well, thanks anyway for the flowerrrs! La la la la lat"
263: 0x036B [0x23] WAIT_FOR_DIALOG_INTERACTION
264: 0x036C [0x01] GOTO 0x0430
265: 0x036F [0x02] IF !(ExtData[1]->WorkLocal[1] == 2*) GOTO 0x03E7
266: 0x0377 [0x1D] PRINT_EVENT_MESSAGE(message_id=7255*)
    → "What's this..."
267: 0x037A [0x1A] CALL_SUBROUTINE(address=0x073B)
268: 0x037D [0x1D] PRINT_EVENT_MESSAGE(message_id=7256*)
    → "..."
269: 0x0380 [0x23] WAIT_FOR_DIALOG_INTERACTION
270: 0x0381 [0x48] [System] [7257*]:
    → "% looks very happy!"
271: 0x0384 [0x1A] CALL_SUBROUTINE(address=0x0706)
272: 0x0387 [0x1D] PRINT_EVENT_MESSAGE(message_id=7258*)
    → "This is it! The colorrr! The shape! The frrragrance! Purrrrr..."
273: 0x038A [0x23] WAIT_FOR_DIALOG_INTERACTION
274: 0x038B [0x1D] PRINT_EVENT_MESSAGE(message_id=7259*)
    → "I have to admit it. You rrreally know how to imprrress a girl."
275: 0x038E [0x23] WAIT_FOR_DIALOG_INTERACTION
276: 0x038F [0x48] [System] [7260*]:
    → "% checks the area before approaching you."
277: 0x0392 [0x45] LOAD_SCHEDULED_TASK: Load scheduler "fdo1" with entities [LocalPlayer, LocalPlayer], work=[200*, 0*]
278: 0x03A3 [0x1C] WAIT(120* ticks)
279: 0x03A6 [0x1D] PRINT_EVENT_MESSAGE(message_id=7261*)
    → "(Um...I just, I just wanted to say...)"
280: 0x03A9 [0x23] WAIT_FOR_DIALOG_INTERACTION
281: 0x03AA [0x1D] PRINT_EVENT_MESSAGE(message_id=7262*)
    → "(You can always come back to visit...if you ever have any extra flowerrrs...)"
282: 0x03AD [0x23] WAIT_FOR_DIALOG_INTERACTION
283: 0x03AE [0x1D] PRINT_EVENT_MESSAGE(message_id=7263*)
    → "(Oh yeah, and I'll teach you some of the back alleys...so you can get here easily...)"
284: 0x03B1 [0x23] WAIT_FOR_DIALOG_INTERACTION
285: 0x03B2 [0x1D] PRINT_EVENT_MESSAGE(message_id=7264*)
    → "(You just go down....)"
286: 0x03B5 [0x23] WAIT_FOR_DIALOG_INTERACTION
287: 0x03B6 [0x45] LOAD_SCHEDULED_TASK: Load scheduler "fdi1" with entities [LocalPlayer, LocalPlayer], work=[200*, 0*]
288: 0x03C7 [0x1C] WAIT(60* ticks)
289: 0x03CA [0x1D] PRINT_EVENT_MESSAGE(message_id=7266*)
    → "<Giggle> Thank you!"
290: 0x03CD [0x23] WAIT_FOR_DIALOG_INTERACTION
291: 0x03CE [0x07] Work_Zone[1] += 2000*
292: 0x03D3 [0x45] LOAD_SCHEDULED_TASK: Load scheduler "qstc" with entities [LocalPlayer, LocalPlayer], work=[201*, 0*]
293: 0x03E4 [0x01] GOTO 0x0430
294: 0x03E7 [0x02] IF !(ExtData[1]->WorkLocal[1] == 3*) GOTO 0x03FE
295: 0x03EF [0x1D] PRINT_EVENT_MESSAGE(message_id=7267*)
    → "You've rrreally touched my hearrrt.t"
296: 0x03F2 [0x23] WAIT_FOR_DIALOG_INTERACTION
297: 0x03F3 [0x1D] PRINT_EVENT_MESSAGE(message_id=7270*)
    → "If I took all the norrrmal gifts I got from my fans, I wouldn't have any room for the rrreally nice gifts."
298: 0x03F6 [0x23] WAIT_FOR_DIALOG_INTERACTION
299: 0x03F7 [0x1D] PRINT_EVENT_MESSAGE(message_id=7271*)
    → "You can have this back!"
300: 0x03FA [0x23] WAIT_FOR_DIALOG_INTERACTION
301: 0x03FB [0x01] GOTO 0x0430
302: 0x03FE [0x02] IF !(ExtData[1]->WorkLocal[1] == 4*) GOTO 0x0419
303: 0x0406 [0x1D] PRINT_EVENT_MESSAGE(message_id=7268*)
    → "Another one! You know that this is my favorrrite! Thank you!t"
304: 0x0409 [0x23] WAIT_FOR_DIALOG_INTERACTION
305: 0x040A [0x1D] PRINT_EVENT_MESSAGE(message_id=7270*)
    → "If I took all the norrrmal gifts I got from my fans, I wouldn't have any room for the rrreally nice gifts."
306: 0x040D [0x23] WAIT_FOR_DIALOG_INTERACTION
307: 0x040E [0x1D] PRINT_EVENT_MESSAGE(message_id=7272*)
    → "It's tough being adorrred by hundrrreds, but I guess I'll have to get used to it."
308: 0x0411 [0x23] WAIT_FOR_DIALOG_INTERACTION
309: 0x0412 [0x1D] PRINT_EVENT_MESSAGE(message_id=7273*)
    → "You can have this flowerrr back."
310: 0x0415 [0x23] WAIT_FOR_DIALOG_INTERACTION
311: 0x0416 [0x01] GOTO 0x0430
312: 0x0419 [0x02] IF !(ExtData[1]->WorkLocal[1] == 5*) GOTO 0x0430
313: 0x0421 [0x1D] PRINT_EVENT_MESSAGE(message_id=7269*)
    → "Meow? Did you already forrrget the way to a girrrl's heart?"
314: 0x0424 [0x23] WAIT_FOR_DIALOG_INTERACTION
315: 0x0425 [0x1D] PRINT_EVENT_MESSAGE(message_id=7272*)
    → "It's tough being adorrred by hundrrreds, but I guess I'll have to get used to it."
316: 0x0428 [0x23] WAIT_FOR_DIALOG_INTERACTION
317: 0x0429 [0x1D] PRINT_EVENT_MESSAGE(message_id=7271*)
    → "You can have this back!"
318: 0x042C [0x23] WAIT_FOR_DIALOG_INTERACTION
319: 0x042D [0x01] GOTO 0x0430

SUBROUTINE_0430:
320: 0x0430 [0x1B] RETURN

SUBROUTINE_0431:
321: 0x0431 [0x03] ExtData[1]->WorkLocal[8] = 956*
322: 0x0436 [0x03] Work_Zone[5] = ExtData[1]->WorkLocal[8]
323: 0x043B [0x4A] EventEntity looks at LocalPlayer
324: 0x0444 [0x02] IF !(ExtData[1]->WorkLocal[1] == 0*) GOTO 0x0465
325: 0x044C [0x1D] PRINT_EVENT_MESSAGE(message_id=7203*)
    → "Meow? Is this for me?"
326: 0x044F [0x23] WAIT_FOR_DIALOG_INTERACTION
327: 0x0450 [0x1D] PRINT_EVENT_MESSAGE(message_id=7204*)
    → "I'm happy, but..."
328: 0x0453 [0x23] WAIT_FOR_DIALOG_INTERACTION
329: 0x0454 [0x48] [System] [7205*]:
    → "% looks a little confused."
330: 0x0457 [0x1C] WAIT(120* ticks)
331: 0x045A [0x1D] PRINT_EVENT_MESSAGE(message_id=7206*)
    → "But what I rrreally want is a prrretty flower to put in my vase at home..."
332: 0x045D [0x23] WAIT_FOR_DIALOG_INTERACTION
333: 0x045E [0x1D] PRINT_EVENT_MESSAGE(message_id=7207*)
    → "Thanks for the offerrr, though, [misterrr/miss]."
334: 0x0461 [0x23] WAIT_FOR_DIALOG_INTERACTION
335: 0x0462 [0x01] GOTO 0x05AA
336: 0x0465 [0x02] IF !(ExtData[1]->WorkLocal[1] == 1*) GOTO 0x04FA
337: 0x046D [0x1D] PRINT_EVENT_MESSAGE(message_id=7208*)
    → "Meow? A prrresent for me? Wow! Purrrrrrr..."
338: 0x0470 [0x23] WAIT_FOR_DIALOG_INTERACTION
339: 0x0471 [0x02] IF !(ExtData[1]->WorkLocal[6] <= 1*) GOTO 0x0496
340: 0x0479 [0x02] IF !(ExtData[1]->WorkLocal[6] <= 5*) GOTO 0x0488
341: 0x0481 [0x1D] PRINT_EVENT_MESSAGE(message_id=7210*)
    → "With all these, I won't have to pick any flowerrrs here for my rrroom."
342: 0x0484 [0x23] WAIT_FOR_DIALOG_INTERACTION
343: 0x0485 [0x01] GOTO 0x0496
344: 0x0488 [0x03] Work_Zone[5] = ExtData[1]->WorkLocal[6]
345: 0x048D [0x1D] PRINT_EVENT_MESSAGE(message_id=7209*)
    → "$3 prrretty flowerrrs for me? These will look grrreat in my room!"
346: 0x0490 [0x23] WAIT_FOR_DIALOG_INTERACTION
347: 0x0491 [0x03] Work_Zone[5] = ExtData[1]->WorkLocal[8]

SUBROUTINE_0496:
348: 0x0496 [0x1D] PRINT_EVENT_MESSAGE(message_id=7211*)
    → "I looove all kinds of flowerrrs. Especially prrretty $3!"
349: 0x0499 [0x23] WAIT_FOR_DIALOG_INTERACTION
350: 0x049A [0x48] [System] [7212*]:
    → "% looks very happy."
351: 0x049D [0x1C] WAIT(120* ticks)
352: 0x04A0 [0x1D] PRINT_EVENT_MESSAGE(message_id=7213*)
    → "Thank you, [misterrr/miss]!"
353: 0x04A3 [0x23] WAIT_FOR_DIALOG_INTERACTION
354: 0x04A4 [0x1C] WAIT(60* ticks)
355: 0x04A7 [0x1D] PRINT_EVENT_MESSAGE(message_id=7214*)
    → "..."
356: 0x04AA [0x23] WAIT_FOR_DIALOG_INTERACTION
357: 0x04AB [0x1D] PRINT_EVENT_MESSAGE(message_id=7215*)
    → "Yes?"
358: 0x04AE [0x23] WAIT_FOR_DIALOG_INTERACTION
359: 0x04AF [0x24] CREATE_DIALOG(message_id=7216*, default_option=0*, option_flags=0*)
    → "Do you have anything else to say? [Bye bye!/Don't I get anything else?/...]"
360: 0x04B6 [0x25] WAIT_DIALOG_SELECT()
361: 0x04B7 [0x02] IF !(Work_Zone[0] == 0*) GOTO 0x04C6
362: 0x04BF [0x1D] PRINT_EVENT_MESSAGE(message_id=7217*)
    → "By`e!t"
363: 0x04C2 [0x23] WAIT_FOR_DIALOG_INTERACTION
364: 0x04C3 [0x01] GOTO 0x04F7
365: 0x04C6 [0x02] IF !(Work_Zone[0] == 1*) GOTO 0x04E0
366: 0x04CE [0x1D] PRINT_EVENT_MESSAGE(message_id=7220*)
    → "Umm...anything...umm...else?"
367: 0x04D1 [0x23] WAIT_FOR_DIALOG_INTERACTION
368: 0x04D2 [0x1D] PRINT_EVENT_MESSAGE(message_id=7221*)
    → "Three cheers for <Player>! Yeah! Yeah! Yeah!"
369: 0x04D5 [0x23] WAIT_FOR_DIALOG_INTERACTION
370: 0x04D6 [0x1A] CALL_SUBROUTINE(address=0x0706)
371: 0x04D9 [0x1D] PRINT_EVENT_MESSAGE(message_id=7222*)
    → "(I hope that was enough...)"
372: 0x04DC [0x23] WAIT_FOR_DIALOG_INTERACTION
373: 0x04DD [0x01] GOTO 0x04F7
374: 0x04E0 [0x02] IF !(Work_Zone[0] == 2*) GOTO 0x04F3
375: 0x04E8 [0x1D] PRINT_EVENT_MESSAGE(message_id=7218*)
    → "(I wonderrr what's wrong with [him/herrr]..?)"
376: 0x04EB [0x23] WAIT_FOR_DIALOG_INTERACTION
377: 0x04EC [0x1D] PRINT_EVENT_MESSAGE(message_id=7219*)
    → "(I alrrready said thank you...mew...)"
378: 0x04EF [0x23] WAIT_FOR_DIALOG_INTERACTION
379: 0x04F0 [0x01] GOTO 0x04F7
380: 0x04F3 [0x1D] PRINT_EVENT_MESSAGE(message_id=7217*)
    → "By`e!t"
381: 0x04F6 [0x23] WAIT_FOR_DIALOG_INTERACTION

SUBROUTINE_04F7:
382: 0x04F7 [0x01] GOTO 0x05AA
383: 0x04FA [0x02] IF !(ExtData[1]->WorkLocal[1] == 2*) GOTO 0x0572
384: 0x0502 [0x1D] PRINT_EVENT_MESSAGE(message_id=7223*)
    → "Is this really--Is this really? $3, forrr me? It's sooo prrretty!"
385: 0x0505 [0x23] WAIT_FOR_DIALOG_INTERACTION
386: 0x0506 [0x1D] PRINT_EVENT_MESSAGE(message_id=7224*)
    → "This is my favorrrite flowerrr in the whole wide worrrld! Purrrrrrr..."
387: 0x0509 [0x23] WAIT_FOR_DIALOG_INTERACTION
388: 0x050A [0x48] [System] [7225*]:
    → "% looks very, VERY happy."
389: 0x050D [0x1A] CALL_SUBROUTINE(address=0x0706)
390: 0x0510 [0x1D] PRINT_EVENT_MESSAGE(message_id=7226*)
    → "OK! I'll let you in on a little secrrret..."
391: 0x0513 [0x23] WAIT_FOR_DIALOG_INTERACTION
392: 0x0514 [0x45] LOAD_SCHEDULED_TASK: Load scheduler "fdo1" with entities [LocalPlayer, LocalPlayer], work=[200*, 0*]
393: 0x0525 [0x48] [System] [7227*]:
    → "% starts whispering something in your ear."
394: 0x0528 [0x1C] WAIT(120* ticks)
395: 0x052B [0x1D] PRINT_EVENT_MESSAGE(message_id=7228*)
    → "(But you have to prrromise not to tell anybody...)"
396: 0x052E [0x23] WAIT_FOR_DIALOG_INTERACTION
397: 0x052F [0x1D] PRINT_EVENT_MESSAGE(message_id=7229*)
    → "iWhisper...meow...whisper)"
398: 0x0532 [0x23] WAIT_FOR_DIALOG_INTERACTION
399: 0x0533 [0x45] LOAD_SCHEDULED_TASK: Load scheduler "fdi1" with entities [LocalPlayer, LocalPlayer], work=[200*, 0*]
400: 0x0544 [0x1C] WAIT(120* ticks)
401: 0x0547 [0x1D] PRINT_EVENT_MESSAGE(message_id=7231*)
    → "Heh-heh... Pretty cool, huh?"
402: 0x054A [0x23] WAIT_FOR_DIALOG_INTERACTION
403: 0x054B [0x48] [System] [7232*]:
    → "% looks pleased with herself."
404: 0x054E [0x1C] WAIT(120* ticks)
405: 0x0551 [0x1D] PRINT_EVENT_MESSAGE(message_id=7233*)
    → "Don't forrrget, you prrromised not to tell anybody! Not even the other memberrrs of the Star Onion Brigade!"
406: 0x0554 [0x23] WAIT_FOR_DIALOG_INTERACTION
407: 0x0555 [0x1D] PRINT_EVENT_MESSAGE(message_id=7234*)
    → "This is just between you and me!"
408: 0x0558 [0x23] WAIT_FOR_DIALOG_INTERACTION
409: 0x0559 [0x07] Work_Zone[1] += 3000*
410: 0x055E [0x45] LOAD_SCHEDULED_TASK: Load scheduler "qstc" with entities [LocalPlayer, LocalPlayer], work=[201*, 0*]
411: 0x056F [0x01] GOTO 0x05AA
412: 0x0572 [0x02] IF !(ExtData[1]->WorkLocal[1] == 3*) GOTO 0x0589
413: 0x057A [0x1D] PRINT_EVENT_MESSAGE(message_id=7235*)
    → "Thank yout Thank yout Thank yout"
414: 0x057D [0x23] WAIT_FOR_DIALOG_INTERACTION
415: 0x057E [0x1D] PRINT_EVENT_MESSAGE(message_id=7237*)
    → "But I've rrrun out of vases to put them in! You can have this back."
416: 0x0581 [0x23] WAIT_FOR_DIALOG_INTERACTION
417: 0x0582 [0x1D] PRINT_EVENT_MESSAGE(message_id=7238*)
    → "It's a prrresent from me to you!"
418: 0x0585 [0x23] WAIT_FOR_DIALOG_INTERACTION
419: 0x0586 [0x01] GOTO 0x05AA
420: 0x0589 [0x02] IF !(ExtData[1]->WorkLocal[1] == 4*) GOTO 0x05A0
421: 0x0591 [0x1D] PRINT_EVENT_MESSAGE(message_id=7236*)
    → "Thank you for all the prrretty flowerrrs!t"
422: 0x0594 [0x23] WAIT_FOR_DIALOG_INTERACTION
423: 0x0595 [0x1D] PRINT_EVENT_MESSAGE(message_id=7237*)
    → "But I've rrrun out of vases to put them in! You can have this back."
424: 0x0598 [0x23] WAIT_FOR_DIALOG_INTERACTION
425: 0x0599 [0x1D] PRINT_EVENT_MESSAGE(message_id=7238*)
    → "It's a prrresent from me to you!"
426: 0x059C [0x23] WAIT_FOR_DIALOG_INTERACTION
427: 0x059D [0x01] GOTO 0x05AA
428: 0x05A0 [0x1D] PRINT_EVENT_MESSAGE(message_id=7239*)
    → "Flowerrrs...purrrrrr..."
429: 0x05A3 [0x23] WAIT_FOR_DIALOG_INTERACTION
430: 0x05A4 [0x48] [System] [7240*]:
    → "% can't take her eyes off the flowers in front of her, and pays no attention to your gift."
431: 0x05A7 [0x1C] WAIT(60* ticks)

SUBROUTINE_05AA:
432: 0x05AA [0x1B] RETURN

SUBROUTINE_05AB:
433: 0x05AB [0x03] ExtData[1]->WorkLocal[8] = 771*
434: 0x05B0 [0x03] Work_Zone[5] = ExtData[1]->WorkLocal[8]
435: 0x05B5 [0x4A] EventEntity looks at LocalPlayer
436: 0x05BE [0x02] IF !(ExtData[1]->WorkLocal[1] == 0*) GOTO 0x05DF
437: 0x05C6 [0x1D] PRINT_EVENT_MESSAGE(message_id=7170*)
    → "Reooow? You'rrre giving this to me?"
438: 0x05C9 [0x23] WAIT_FOR_DIALOG_INTERACTION
439: 0x05CA [0x1D] PRINT_EVENT_MESSAGE(message_id=7171*)
    → "Meooow... But this...meooow..."
440: 0x05CD [0x23] WAIT_FOR_DIALOG_INTERACTION
441: 0x05CE [0x48] [System] [7172*]:
    → "% looks a little confused."
442: 0x05D1 [0x1C] WAIT(120* ticks)
443: 0x05D4 [0x1D] PRINT_EVENT_MESSAGE(message_id=7173*)
    → "I only like prrretty flowerrrs and prrretty rocks. Don't need anything else."
444: 0x05D7 [0x23] WAIT_FOR_DIALOG_INTERACTION
445: 0x05D8 [0x1D] PRINT_EVENT_MESSAGE(message_id=7174*)
    → "Prrretty yellow rocks! That's what I'm collecting!"
446: 0x05DB [0x23] WAIT_FOR_DIALOG_INTERACTION
447: 0x05DC [0x01] GOTO 0x0705
448: 0x05DF [0x02] IF !(ExtData[1]->WorkLocal[1] == 1*) GOTO 0x0635
449: 0x05E7 [0x02] IF !(ExtData[1]->WorkLocal[4] == 0*) GOTO 0x05F3
450: 0x05EF [0x1D] PRINT_EVENT_MESSAGE(message_id=7175*)
    → "Wow! What a prrretty flowerrr! It smells sooo good!"
451: 0x05F2 [0x23] WAIT_FOR_DIALOG_INTERACTION
452: 0x05F3 [0x02] IF !(ExtData[1]->WorkLocal[5] == 0*) GOTO 0x05FF
453: 0x05FB [0x1D] PRINT_EVENT_MESSAGE(message_id=7176*)
    → "Wow! What a prrretty rock! It's sooo smooth!"
454: 0x05FE [0x23] WAIT_FOR_DIALOG_INTERACTION
455: 0x05FF [0x02] IF !(ExtData[1]->WorkLocal[6] <= 1*) GOTO 0x0624
456: 0x0607 [0x02] IF !(ExtData[1]->WorkLocal[6] <= 5*) GOTO 0x0616
457: 0x060F [0x1D] PRINT_EVENT_MESSAGE(message_id=7178*)
    → "Now my room will be full of prrretty rocks and flowerrrs! Heh heh!"
458: 0x0612 [0x23] WAIT_FOR_DIALOG_INTERACTION
459: 0x0613 [0x01] GOTO 0x0624
460: 0x0616 [0x03] Work_Zone[5] = ExtData[1]->WorkLocal[6]
461: 0x061B [0x1D] PRINT_EVENT_MESSAGE(message_id=7177*)
    → "$3! I'm sooo happy! Purrrrrr..."
462: 0x061E [0x23] WAIT_FOR_DIALOG_INTERACTION
463: 0x061F [0x03] Work_Zone[5] = ExtData[1]->WorkLocal[8]

SUBROUTINE_0624:
464: 0x0624 [0x48] [System] [7179*]:
    → "%looks very happy."
465: 0x0627 [0x1C] WAIT(120* ticks)
466: 0x062A [0x1D] PRINT_EVENT_MESSAGE(message_id=7180*)
    → "Now, all my collection needs is $3!"
467: 0x062D [0x23] WAIT_FOR_DIALOG_INTERACTION
468: 0x062E [0x1D] PRINT_EVENT_MESSAGE(message_id=7181*)
    → "Anyway, thanks, [misterrr/miss]t"
469: 0x0631 [0x23] WAIT_FOR_DIALOG_INTERACTION
470: 0x0632 [0x01] GOTO 0x0705
471: 0x0635 [0x02] IF !(ExtData[1]->WorkLocal[1] == 2*) GOTO 0x06BC
472: 0x063D [0x1D] PRINT_EVENT_MESSAGE(message_id=7182*)
    → "Meooow! This is the one! This is the one!"
473: 0x0640 [0x23] WAIT_FOR_DIALOG_INTERACTION
474: 0x0641 [0x02] IF !(ExtData[1]->WorkLocal[6] <= 1*) GOTO 0x0653
475: 0x0649 [0x1D] PRINT_EVENT_MESSAGE(message_id=7184*)
    → "This one is grrreat, too! You got all these forrr me?"
476: 0x064C [0x23] WAIT_FOR_DIALOG_INTERACTION
477: 0x064D [0x48] [System] [7186*]:
    → "% looks really, REALLY happy."
478: 0x0650 [0x01] GOTO 0x0656
479: 0x0653 [0x48] [System] [7185*]:
    → "% looks really happy."

SUBROUTINE_0656:
480: 0x0656 [0x1A] CALL_SUBROUTINE(address=0x0706)
481: 0x0659 [0x1D] PRINT_EVENT_MESSAGE(message_id=7187*)
    → "You're the grrreatest!!"
482: 0x065C [0x23] WAIT_FOR_DIALOG_INTERACTION
483: 0x065D [0x1D] PRINT_EVENT_MESSAGE(message_id=7188*)
    → "I can't give you anything in returrrn, but I can tell you my secrrret!"
484: 0x0660 [0x23] WAIT_FOR_DIALOG_INTERACTION
485: 0x0661 [0x45] LOAD_SCHEDULED_TASK: Load scheduler "fdo1" with entities [LocalPlayer, LocalPlayer], work=[200*, 0*]
486: 0x0672 [0x1C] WAIT(120* ticks)
487: 0x0675 [0x1D] PRINT_EVENT_MESSAGE(message_id=7189*)
    → "Come closerrr..."
488: 0x0678 [0x23] WAIT_FOR_DIALOG_INTERACTION
489: 0x0679 [0x1D] PRINT_EVENT_MESSAGE(message_id=7190*)
    → "(Meow meow meow meow...)"
490: 0x067C [0x23] WAIT_FOR_DIALOG_INTERACTION
491: 0x067D [0x1D] PRINT_EVENT_MESSAGE(message_id=7191*)
    → "(Meow meow meow meow...)"
492: 0x0680 [0x23] WAIT_FOR_DIALOG_INTERACTION
493: 0x0681 [0x45] LOAD_SCHEDULED_TASK: Load scheduler "fdi1" with entities [LocalPlayer, LocalPlayer], work=[200*, 0*]
494: 0x0692 [0x1C] WAIT(120* ticks)
495: 0x0695 [0x1D] PRINT_EVENT_MESSAGE(message_id=7193*)
    → "Heh-heh..."
496: 0x0698 [0x23] WAIT_FOR_DIALOG_INTERACTION
497: 0x0699 [0x48] [System] [7194*]:
    → "% looks extremely happy."
498: 0x069C [0x1A] CALL_SUBROUTINE(address=0x0706)
499: 0x069F [0x1D] PRINT_EVENT_MESSAGE(message_id=7195*)
    → "Don't tell anybody I told you that! It'll be our little secrrret!"
500: 0x06A2 [0x23] WAIT_FOR_DIALOG_INTERACTION
501: 0x06A3 [0x07] Work_Zone[1] += 4000*
502: 0x06A8 [0x45] LOAD_SCHEDULED_TASK: Load scheduler "qstc" with entities [LocalPlayer, LocalPlayer], work=[201*, 0*]
503: 0x06B9 [0x01] GOTO 0x0705
504: 0x06BC [0x02] IF !(ExtData[1]->WorkLocal[1] == 3*) GOTO 0x06D7
505: 0x06C4 [0x1D] PRINT_EVENT_MESSAGE(message_id=7196*)
    → "Wow! Thanks! My house is filled with prrretty flowers!"
506: 0x06C7 [0x23] WAIT_FOR_DIALOG_INTERACTION
507: 0x06C8 [0x1D] PRINT_EVENT_MESSAGE(message_id=7198*)
    → "But my moogle, my moogle is rrreally upset. She says we don't have any more space in my house!"
508: 0x06CB [0x23] WAIT_FOR_DIALOG_INTERACTION
509: 0x06CC [0x1D] PRINT_EVENT_MESSAGE(message_id=7199*)
    → ""You have no more room, kupo!" Reooow... Give me a brrreak!"
510: 0x06CF [0x23] WAIT_FOR_DIALOG_INTERACTION
511: 0x06D0 [0x1D] PRINT_EVENT_MESSAGE(message_id=7200*)
    → "So, you can have that back! I guess I'll just have to give up on it this time. (Sigh)"
512: 0x06D3 [0x23] WAIT_FOR_DIALOG_INTERACTION
513: 0x06D4 [0x01] GOTO 0x0705
514: 0x06D7 [0x02] IF !(ExtData[1]->WorkLocal[1] == 4*) GOTO 0x06F2
515: 0x06DF [0x1D] PRINT_EVENT_MESSAGE(message_id=7197*)
    → "Wow! More yellow rocks! My house gets prrrettier every day!"
516: 0x06E2 [0x23] WAIT_FOR_DIALOG_INTERACTION
517: 0x06E3 [0x1D] PRINT_EVENT_MESSAGE(message_id=7198*)
    → "But my moogle, my moogle is rrreally upset. She says we don't have any more space in my house!"
518: 0x06E6 [0x23] WAIT_FOR_DIALOG_INTERACTION
519: 0x06E7 [0x1D] PRINT_EVENT_MESSAGE(message_id=7199*)
    → ""You have no more room, kupo!" Reooow... Give me a brrreak!"
520: 0x06EA [0x23] WAIT_FOR_DIALOG_INTERACTION
521: 0x06EB [0x1D] PRINT_EVENT_MESSAGE(message_id=7200*)
    → "So, you can have that back! I guess I'll just have to give up on it this time. (Sigh)"
522: 0x06EE [0x23] WAIT_FOR_DIALOG_INTERACTION
523: 0x06EF [0x01] GOTO 0x0705
524: 0x06F2 [0x02] IF !(ExtData[1]->WorkLocal[1] == 5*) GOTO 0x0705
525: 0x06FA [0x1D] PRINT_EVENT_MESSAGE(message_id=7201*)
    → "Hee-hee. [Misterrr/Miss], I don't need this."
526: 0x06FD [0x23] WAIT_FOR_DIALOG_INTERACTION
527: 0x06FE [0x1D] PRINT_EVENT_MESSAGE(message_id=7202*)
    → "I'd like to keep it, too, but I'm already out of space in my room..."
528: 0x0701 [0x23] WAIT_FOR_DIALOG_INTERACTION
529: 0x0702 [0x01] GOTO 0x0705

SUBROUTINE_0705:
530: 0x0705 [0x1B] RETURN

SUBROUTINE_0706:
531: 0x0706 [0x7C] EventEntity->Render.Flags2 |= 0x00
532: 0x070C [0x81] SET_ENTITY_BLINKING(blink_flag=0x00, entity=EventEntity)
533: 0x0712 [0x5B] LOAD_EXT_SCHEDULER: Load scheduler "hai0" with entities [EventEntity, EventEntity], work=81*
534: 0x0721 [0x53] WAIT_SCHEDULER_TASK: Wait for scheduler "hai0" with entities [EventEntity, EventEntity]
535: 0x072E [0x7C] EventEntity->Render.Flags2 |= 0x01
536: 0x0734 [0x81] SET_ENTITY_BLINKING(blink_flag=0x01, entity=EventEntity)
537: 0x073A [0x1B] RETURN

SUBROUTINE_073B:
538: 0x073B [0x7C] EventEntity->Render.Flags2 |= 0x00
539: 0x0741 [0x81] SET_ENTITY_BLINKING(blink_flag=0x00, entity=EventEntity)
540: 0x0747 [0x5B] LOAD_EXT_SCHEDULER: Load scheduler "bik0" with entities [EventEntity, EventEntity], work=81*
541: 0x0756 [0x53] WAIT_SCHEDULER_TASK: Wait for scheduler "bik0" with entities [EventEntity, EventEntity]
542: 0x0763 [0x7C] EventEntity->Render.Flags2 |= 0x01
543: 0x0769 [0x81] SET_ENTITY_BLINKING(blink_flag=0x01, entity=EventEntity)
544: 0x076F [0x1B] RETURN

SUBROUTINE_0770:
545: 0x0770 [0x7B] EventEntity stops talking
546: 0x0775 [0x1B] RETURN

SUBROUTINE_0776:
547: 0x0776 [0x79] EventEntity looks at LocalPlayer (Basic look)
548: 0x0780 [0x1B] RETURN
```
