# 17784840 - Imasuke

## Common Data

| Field            | Value                |
|------------------|----------------------|
| Zone             | Port Jeuno (ID: 246) |
| Block Size       | 892 bytes            |
| Total Events     | 12                   |
| References Count | 36                   |

## List of Events

| Event ID              | Entrypoint   |   Size |   Instructions |
|-----------------------|--------------|--------|----------------|
| [65535](#event-65535) | 0x0000       |      1 |              1 |
| [12](#event-12)       | 0x0001       |     36 |             10 |
| [13](#event-13)       | 0x0025       |    174 |             42 |
| [14](#event-14)       | 0x00D3       |     46 |             12 |
| [15](#event-15)       | 0x0101       |     36 |             10 |
| [16](#event-16)       | 0x0125       |     71 |             14 |
| [30](#event-30)       | 0x016C       |     78 |             16 |
| [29](#event-29)       | 0x01BA       |    115 |             31 |
| [32](#event-32)       | 0x022D       |     13 |              7 |
| [33](#event-33)       | 0x023A       |     82 |             19 |
| [31](#event-31)       | 0x028C       |     13 |              7 |
| [10029](#event-10029) | 0x0299       |     19 |             10 |

## DAT References (imed_data)

|   Index | Hex Value   |   Dec Value |
|---------|-------------|-------------|
|       0 | 0x003C      |          60 |
|       1 | 0x1B97      |        7063 |
|       2 | 0x40F7      |       16631 |
|       3 | 0x019A      |         410 |
|       4 | 0x1B98      |        7064 |
|       5 | 0x1B99      |        7065 |
|       6 | 0x0001      |           1 |
|       7 | 0x0000      |           0 |
|       8 | 0x1B9B      |        7067 |
|       9 | 0x1B9C      |        7068 |
|      10 | 0x1B9D      |        7069 |
|      11 | 0x1B9E      |        7070 |
|      12 | 0x1B9F      |        7071 |
|      13 | 0x1BA0      |        7072 |
|      14 | 0x1B9A      |        7066 |
|      15 | 0x1BA1      |        7073 |
|      16 | 0x1BA2      |        7074 |
|      17 | 0x1BA3      |        7075 |
|      18 | 0x00C9      |         201 |
|      19 | 0x1C95      |        7317 |
|      20 | 0x1C96      |        7318 |
|      21 | 0x1C97      |        7319 |
|      22 | 0x1C9E      |        7326 |
|      23 | 0x1C98      |        7320 |
|      24 | 0x1C99      |        7321 |
|      25 | 0x1C9A      |        7322 |
|      26 | 0x1C9B      |        7323 |
|      27 | 0x1C9C      |        7324 |
|      28 | 0x1C9D      |        7325 |
|      29 | 0x1C9F      |        7327 |
|      30 | 0x1CA0      |        7328 |
|      31 | 0x1CA1      |        7329 |
|      32 | 0x1CA2      |        7330 |
|      33 | 0x1CA3      |        7331 |
|      34 | 0x1E71      |        7793 |
|      35 | 0x1E72      |        7794 |

## String References

- **7063**: You're off to Delkfutt's Tower, eh? You be careful, now.
- **7064**: You're off to Delkfutt's Tower, eh?
- **7065**: Are you going to Delkfutt's Tower? [That's right./No, I'm not.]
- **7066**: Oh? My mistake, then.
- **7067**: It's so confusing with all the portals and trap doors in there. Ain't no walk in the park, [sonny/kiddo]!
- **7068**: But it's smooth sailing with this here $3. I dug it up at the book fair the other day.
- **7069**: It's just another piece of paper to me, so... I know! I'll trade you $6 for it! Yeah, I love antiquities.
- **7070**: Will you bring me $6? [I'll try./Not now.]
- **7071**: Super! Hurry back with $6! And be careful!
- **7072**: Oh yeah? Well, it's your loss, [pal/sister].
- **7073**: Look, just bring me $6. And be careful, too.
- **7074**: Tread carefully, and don't forget to check the map!
- **7075**: Well, this is just super! Alrighty, here's the goods.
- **7317**: What, you have something you want appraised? I mean, seriously! These days everyone says they find treasures in the auction. Nonsense, all of it!
- **7318**: See, within antiques sleep spirits of the past! Search carefully or you'll awaken their slumber!
- **7319**: If you're ready, show me your item and I'll start the appraisal.
- **7320**: Are you ready? [You bet./Uh, give me a moment.]
- **7321**: Very well. Let's see it!
- **7322**: Why, this is quite an old ring. And the years have not been kind! Look, I've found an inscription.
- **7323**: Hmm... No, I can't make it out. It's too much for the Goldsmiths' Guild. You'll need to bury it in perennial snow to wash away the filth!
- **7324**: Deep inside Xarcabard lies a snow untouched for a thousand years. Take your ring, bury it there to clean the grime, and come back here.
- **7325**: That's fine. I'm sure your antique would appreciate the privacy.
- **7326**: What? You still thinking about that antique ring?
- **7327**: Well, look at this! Clean as a whistle! Now, let's see what we can see...
- **7328**: Say, this is written in the elder script of San d'Oria. It's a fine ring, but I wonder what it says...
- **7329**: I suggest you take it to someone of respectable age in Chateau d'Oraguille.
- **7330**: Can't give it a price till you know its value, as we say in the business!
- **7331**: Take the ring to a person of respectable age in Chateau d'Oraguille. Can't give it a price till you know its value, as we say in the business!
- **7793**: It was quite some time ago now, but I saw this young Elvaan girl heading into that cave with a fishing rod in her hand.
- **7794**: When she came back, she told me some "damn huge octopus" had whipped the rod right out of her grasp...

## Events

### Event 65535

#### Metadata

| Field        | Value   |
|--------------|---------|
| Entrypoint   | 0x0000  |
| Data Size    | 1 bytes |
| Instructions | 1       |

```
      00 01 02 03 04 05 06 07  08 09 0A 0B 0C 0D 0E 0F
      -- -- -- -- -- -- -- --  -- -- -- -- -- -- -- --
0000: 00                                                .               
```

#### Opcodes

```
  0: 0x0000 [0x00] END_REQSTACK()
```

### Event 12

#### Metadata

| Field        | Value    |
|--------------|----------|
| Entrypoint   | 0x0001   |
| Data Size    | 36 bytes |
| Instructions | 10       |

```
      00 01 02 03 04 05 06 07  08 09 0A 0B 0C 0D 0E 0F
      -- -- -- -- -- -- -- --  -- -- -- -- -- -- -- --
0000:    1E F0 FF FF 7F 6F 70  5B 00 80 F8 FF FF 7F F8   .....op[.......
0010: FF FF 7F 74 6C 6B 30 1D  01 80 23 5E 69 64 6C 30  ...tlk0...#^idl0
0020: 1C 00 80 21 00                                    ...!.           
```

#### Opcodes

```
  0: 0x0001 [0x1E] EventEntity looks at LocalPlayer and starts talking
  1: 0x0006 [0x6F] WAIT_FRAME_DELAY: Yield until WaitTime reaches zero
  2: 0x0007 [0x70] WAIT_ENTITY_RENDER_FLAG: Wait while EventEntity->Render.Flags3 bit 2 is set (cancel turn if not)
  3: 0x0008 [0x5B] LOAD_EXT_SCHEDULER: Load scheduler "tlk0" with entities [EventEntity, EventEntity], work=60*
  4: 0x0017 [0x1D] PRINT_EVENT_MESSAGE(message_id=7063*)
    → "You're off to Delkfutt's Tower, eh? You be careful, now."
  5: 0x001A [0x23] WAIT_FOR_DIALOG_INTERACTION
  6: 0x001B [0x5E] EventEntity goes idle (kills current action) (animation: "idl0")
  7: 0x0020 [0x1C] WAIT(60* ticks)
  8: 0x0023 [0x21] END_EVENT
  9: 0x0024 [0x00] END_REQSTACK()
```

### Event 13

#### Metadata

| Field        | Value     |
|--------------|-----------|
| Entrypoint   | 0x0025    |
| Data Size    | 174 bytes |
| Instructions | 42        |

```
      00 01 02 03 04 05 06 07  08 09 0A 0B 0C 0D 0E 0F
      -- -- -- -- -- -- -- --  -- -- -- -- -- -- -- --
0020:                06 01 10  03 08 10 02 80 03 09 10       ...........
0030: 03 80 1E F0 FF FF 7F 6F  70 5B 00 80 F8 FF FF 7F  .......op[......
0040: F8 FF FF 7F 74 6C 6B 30  1D 04 80 23 5E 69 64 6C  ....tlk0...#^idl
0050: 30 42 24 05 80 06 80 07  80 25 02 00 10 07 80 00  0B$......%......
0060: AB 00 5B 00 80 F8 FF FF  7F F8 FF FF 7F 74 6C 6B  ..[..........tlk
0070: 30 1D 08 80 23 1D 09 80  23 1D 0A 80 23 24 0B 80  0...#...#...#$..
0080: 06 80 07 80 25 02 00 10  07 80 00 99 00 1D 0C 80  ....%...........
0090: 23 03 01 10 06 80 01 A8  00 02 00 10 06 80 00 A8  #...............
00A0: 00 1D 0D 80 23 01 A8 00  01 C9 00 02 00 10 06 80  ....#...........
00B0: 00 C9 00 5B 00 80 F8 FF  FF 7F F8 FF FF 7F 74 6C  ...[..........tl
00C0: 6B 30 1D 0E 80 23 01 C9  00 5E 69 64 6C 30 1C 00  k0...#...^idl0..
00D0: 80 21 00                                          .!.             
```

#### Opcodes

```
  0: 0x0025 [0x06] Work_Zone[1] = 0
  1: 0x0028 [0x03] Work_Zone[8] = 16631*
  2: 0x002D [0x03] Work_Zone[9] = 410*
  3: 0x0032 [0x1E] EventEntity looks at LocalPlayer and starts talking
  4: 0x0037 [0x6F] WAIT_FRAME_DELAY: Yield until WaitTime reaches zero
  5: 0x0038 [0x70] WAIT_ENTITY_RENDER_FLAG: Wait while EventEntity->Render.Flags3 bit 2 is set (cancel turn if not)
  6: 0x0039 [0x5B] LOAD_EXT_SCHEDULER: Load scheduler "tlk0" with entities [EventEntity, EventEntity], work=60*
  7: 0x0048 [0x1D] PRINT_EVENT_MESSAGE(message_id=7064*)
    → "You're off to Delkfutt's Tower, eh?"
  8: 0x004B [0x23] WAIT_FOR_DIALOG_INTERACTION
  9: 0x004C [0x5E] EventEntity goes idle (kills current action) (animation: "idl0")
 10: 0x0051 [0x42] SET_CLI_EVENT_CANCEL_DATA()
 11: 0x0052 [0x24] CREATE_DIALOG(message_id=7065*, default_option=1*, option_flags=0*)
    → "Are you going to Delkfutt's Tower? [That's right./No, I'm not.]"
 12: 0x0059 [0x25] WAIT_DIALOG_SELECT()
 13: 0x005A [0x02] IF !(Work_Zone[0] == 0*) GOTO 0x00AB
 14: 0x0062 [0x5B] LOAD_EXT_SCHEDULER: Load scheduler "tlk0" with entities [EventEntity, EventEntity], work=60*
 15: 0x0071 [0x1D] PRINT_EVENT_MESSAGE(message_id=7067*)
    → "It's so confusing with all the portals and trap doors in there. Ain't no walk in the park, [sonny/kiddo]!"
 16: 0x0074 [0x23] WAIT_FOR_DIALOG_INTERACTION
 17: 0x0075 [0x1D] PRINT_EVENT_MESSAGE(message_id=7068*)
    → "But it's smooth sailing with this here $3. I dug it up at the book fair the other day."
 18: 0x0078 [0x23] WAIT_FOR_DIALOG_INTERACTION
 19: 0x0079 [0x1D] PRINT_EVENT_MESSAGE(message_id=7069*)
    → "It's just another piece of paper to me, so... I know! I'll trade you $6 for it! Yeah, I love antiquities."
 20: 0x007C [0x23] WAIT_FOR_DIALOG_INTERACTION
 21: 0x007D [0x24] CREATE_DIALOG(message_id=7070*, default_option=1*, option_flags=0*)
    → "Will you bring me $6? [I'll try./Not now.]"
 22: 0x0084 [0x25] WAIT_DIALOG_SELECT()
 23: 0x0085 [0x02] IF !(Work_Zone[0] == 0*) GOTO 0x0099
 24: 0x008D [0x1D] PRINT_EVENT_MESSAGE(message_id=7071*)
    → "Super! Hurry back with $6! And be careful!"
 25: 0x0090 [0x23] WAIT_FOR_DIALOG_INTERACTION
 26: 0x0091 [0x03] Work_Zone[1] = 1*
 27: 0x0096 [0x01] GOTO 0x00A8
 28: 0x0099 [0x02] IF !(Work_Zone[0] == 1*) GOTO 0x00A8
 29: 0x00A1 [0x1D] PRINT_EVENT_MESSAGE(message_id=7072*)
    → "Oh yeah? Well, it's your loss, [pal/sister]."
 30: 0x00A4 [0x23] WAIT_FOR_DIALOG_INTERACTION
 31: 0x00A5 [0x01] GOTO 0x00A8

SUBROUTINE_00A8:
 32: 0x00A8 [0x01] GOTO 0x00C9
 33: 0x00AB [0x02] IF !(Work_Zone[0] == 1*) GOTO 0x00C9
 34: 0x00B3 [0x5B] LOAD_EXT_SCHEDULER: Load scheduler "tlk0" with entities [EventEntity, EventEntity], work=60*
 35: 0x00C2 [0x1D] PRINT_EVENT_MESSAGE(message_id=7066*)
    → "Oh? My mistake, then."
 36: 0x00C5 [0x23] WAIT_FOR_DIALOG_INTERACTION
 37: 0x00C6 [0x01] GOTO 0x00C9

SUBROUTINE_00C9:
 38: 0x00C9 [0x5E] EventEntity goes idle (kills current action) (animation: "idl0")
 39: 0x00CE [0x1C] WAIT(60* ticks)
 40: 0x00D1 [0x21] END_EVENT
 41: 0x00D2 [0x00] END_REQSTACK()
```

### Event 14

#### Metadata

| Field        | Value    |
|--------------|----------|
| Entrypoint   | 0x00D3   |
| Data Size    | 46 bytes |
| Instructions | 12       |

```
      00 01 02 03 04 05 06 07  08 09 0A 0B 0C 0D 0E 0F
      -- -- -- -- -- -- -- --  -- -- -- -- -- -- -- --
00D0:          03 08 10 02 80  03 09 10 03 80 1E F0 FF     .............
00E0: FF 7F 6F 70 5B 00 80 F8  FF FF 7F F8 FF FF 7F 74  ..op[..........t
00F0: 6C 6B 30 1D 0F 80 23 5E  69 64 6C 30 1C 00 80 21  lk0...#^idl0...!
0100: 00                                                .               
```

#### Opcodes

```
  0: 0x00D3 [0x03] Work_Zone[8] = 16631*
  1: 0x00D8 [0x03] Work_Zone[9] = 410*
  2: 0x00DD [0x1E] EventEntity looks at LocalPlayer and starts talking
  3: 0x00E2 [0x6F] WAIT_FRAME_DELAY: Yield until WaitTime reaches zero
  4: 0x00E3 [0x70] WAIT_ENTITY_RENDER_FLAG: Wait while EventEntity->Render.Flags3 bit 2 is set (cancel turn if not)
  5: 0x00E4 [0x5B] LOAD_EXT_SCHEDULER: Load scheduler "tlk0" with entities [EventEntity, EventEntity], work=60*
  6: 0x00F3 [0x1D] PRINT_EVENT_MESSAGE(message_id=7073*)
    → "Look, just bring me $6. And be careful, too."
  7: 0x00F6 [0x23] WAIT_FOR_DIALOG_INTERACTION
  8: 0x00F7 [0x5E] EventEntity goes idle (kills current action) (animation: "idl0")
  9: 0x00FC [0x1C] WAIT(60* ticks)
 10: 0x00FF [0x21] END_EVENT
 11: 0x0100 [0x00] END_REQSTACK()
```

### Event 15

#### Metadata

| Field        | Value    |
|--------------|----------|
| Entrypoint   | 0x0101   |
| Data Size    | 36 bytes |
| Instructions | 10       |

```
      00 01 02 03 04 05 06 07  08 09 0A 0B 0C 0D 0E 0F
      -- -- -- -- -- -- -- --  -- -- -- -- -- -- -- --
0100:    1E F0 FF FF 7F 6F 70  5B 00 80 F8 FF FF 7F F8   .....op[.......
0110: FF FF 7F 74 6C 6B 30 1D  10 80 23 5E 69 64 6C 30  ...tlk0...#^idl0
0120: 1C 00 80 21 00                                    ...!.           
```

#### Opcodes

```
  0: 0x0101 [0x1E] EventEntity looks at LocalPlayer and starts talking
  1: 0x0106 [0x6F] WAIT_FRAME_DELAY: Yield until WaitTime reaches zero
  2: 0x0107 [0x70] WAIT_ENTITY_RENDER_FLAG: Wait while EventEntity->Render.Flags3 bit 2 is set (cancel turn if not)
  3: 0x0108 [0x5B] LOAD_EXT_SCHEDULER: Load scheduler "tlk0" with entities [EventEntity, EventEntity], work=60*
  4: 0x0117 [0x1D] PRINT_EVENT_MESSAGE(message_id=7074*)
    → "Tread carefully, and don't forget to check the map!"
  5: 0x011A [0x23] WAIT_FOR_DIALOG_INTERACTION
  6: 0x011B [0x5E] EventEntity goes idle (kills current action) (animation: "idl0")
  7: 0x0120 [0x1C] WAIT(60* ticks)
  8: 0x0123 [0x21] END_EVENT
  9: 0x0124 [0x00] END_REQSTACK()
```

### Event 16

#### Metadata

| Field        | Value    |
|--------------|----------|
| Entrypoint   | 0x0125   |
| Data Size    | 71 bytes |
| Instructions | 14       |

```
      00 01 02 03 04 05 06 07  08 09 0A 0B 0C 0D 0E 0F
      -- -- -- -- -- -- -- --  -- -- -- -- -- -- -- --
0120:                20 01 42  1E F0 FF FF 7F 6F 70 5B        .B.....op[
0130: 00 80 F8 FF FF 7F F8 FF  FF 7F 74 6C 6B 30 1D 11  ..........tlk0..
0140: 80 23 5B 00 80 F8 FF FF  7F F8 FF FF 7F 70 61 73  .#[..........pas
0150: 30 45 12 80 F0 FF FF 7F  F0 FF FF 7F 71 73 74 63  0E..........qstc
0160: 07 80 5E 69 64 6C 30 1C  00 80 21 00              ..^idl0...!.    
```

#### Opcodes

```
  0: 0x0125 [0x20] SET_CLI_EVENT_UC_FLAG: Lock player control
  1: 0x0127 [0x42] SET_CLI_EVENT_CANCEL_DATA()
  2: 0x0128 [0x1E] EventEntity looks at LocalPlayer and starts talking
  3: 0x012D [0x6F] WAIT_FRAME_DELAY: Yield until WaitTime reaches zero
  4: 0x012E [0x70] WAIT_ENTITY_RENDER_FLAG: Wait while EventEntity->Render.Flags3 bit 2 is set (cancel turn if not)
  5: 0x012F [0x5B] LOAD_EXT_SCHEDULER: Load scheduler "tlk0" with entities [EventEntity, EventEntity], work=60*
  6: 0x013E [0x1D] PRINT_EVENT_MESSAGE(message_id=7075*)
    → "Well, this is just super! Alrighty, here's the goods."
  7: 0x0141 [0x23] WAIT_FOR_DIALOG_INTERACTION
  8: 0x0142 [0x5B] LOAD_EXT_SCHEDULER: Load scheduler "pas0" with entities [EventEntity, EventEntity], work=60*
  9: 0x0151 [0x45] LOAD_SCHEDULED_TASK: Load scheduler "qstc" with entities [LocalPlayer, LocalPlayer], work=[201*, 0*]
 10: 0x0162 [0x5E] EventEntity goes idle (kills current action) (animation: "idl0")
 11: 0x0167 [0x1C] WAIT(60* ticks)
 12: 0x016A [0x21] END_EVENT
 13: 0x016B [0x00] END_REQSTACK()
```

### Event 30

#### Metadata

| Field        | Value    |
|--------------|----------|
| Entrypoint   | 0x016C   |
| Data Size    | 78 bytes |
| Instructions | 16       |

```
      00 01 02 03 04 05 06 07  08 09 0A 0B 0C 0D 0E 0F
      -- -- -- -- -- -- -- --  -- -- -- -- -- -- -- --
0160:                                      1E F0 FF FF              ....
0170: 7F 6F 70 4A F0 FF FF 7F  F8 FF FF 7F 5B 00 80 F8  .opJ........[...
0180: FF FF 7F F8 FF FF 7F 74  6C 6B 30 1D 13 80 23 5B  .......tlk0...#[
0190: 00 80 F8 FF FF 7F F8 FF  FF 7F 69 6B 61 30 1D 14  ..........ika0..
01A0: 80 23 1D 15 80 23 5B 00  80 F8 FF FF 7F F8 FF FF  .#...#[.........
01B0: 7F 69 6B 61 31 1A D3 01  21 00                    .ika1...!.      
```

#### Opcodes

```
  0: 0x016C [0x1E] EventEntity looks at LocalPlayer and starts talking
  1: 0x0171 [0x6F] WAIT_FRAME_DELAY: Yield until WaitTime reaches zero
  2: 0x0172 [0x70] WAIT_ENTITY_RENDER_FLAG: Wait while EventEntity->Render.Flags3 bit 2 is set (cancel turn if not)
  3: 0x0173 [0x4A] LocalPlayer looks at EventEntity
  4: 0x017C [0x5B] LOAD_EXT_SCHEDULER: Load scheduler "tlk0" with entities [EventEntity, EventEntity], work=60*
  5: 0x018B [0x1D] PRINT_EVENT_MESSAGE(message_id=7317*)
    → "What, you have something you want appraised? I mean, seriously! These days everyone says they find treasures in the auction. Nonsense, all of it!"
  6: 0x018E [0x23] WAIT_FOR_DIALOG_INTERACTION
  7: 0x018F [0x5B] LOAD_EXT_SCHEDULER: Load scheduler "ika0" with entities [EventEntity, EventEntity], work=60*
  8: 0x019E [0x1D] PRINT_EVENT_MESSAGE(message_id=7318*)
    → "See, within antiques sleep spirits of the past! Search carefully or you'll awaken their slumber!"
  9: 0x01A1 [0x23] WAIT_FOR_DIALOG_INTERACTION
 10: 0x01A2 [0x1D] PRINT_EVENT_MESSAGE(message_id=7319*)
    → "If you're ready, show me your item and I'll start the appraisal."
 11: 0x01A5 [0x23] WAIT_FOR_DIALOG_INTERACTION
 12: 0x01A6 [0x5B] LOAD_EXT_SCHEDULER: Load scheduler "ika1" with entities [EventEntity, EventEntity], work=60*
 13: 0x01B5 [0x1A] CALL_SUBROUTINE(address=0x01D3)
 14: 0x01B8 [0x21] END_EVENT
 15: 0x01B9 [0x00] END_REQSTACK()
```

### Event 29

#### Metadata

| Field        | Value     |
|--------------|-----------|
| Entrypoint   | 0x01BA    |
| Data Size    | 115 bytes |
| Instructions | 31        |

```
      00 01 02 03 04 05 06 07  08 09 0A 0B 0C 0D 0E 0F
      -- -- -- -- -- -- -- --  -- -- -- -- -- -- -- --
01B0:                                1E F0 FF FF 7F 6F            .....o
01C0: 70 4A F0 FF FF 7F F8 FF  FF 7F 1D 16 80 23 1A D3  pJ...........#..
01D0: 01 21 00 06 01 10 42 24  17 80 06 80 07 80 25 02  .!....B$......%.
01E0: 00 10 07 80 00 1D 02 03  01 10 06 80 1D 18 80 23  ...............#
01F0: 5B 00 80 F8 FF FF 7F F8  FF FF 7F 74 68 6B 31 1D  [..........thk1.
0200: 19 80 23 1D 1A 80 23 5B  00 80 F8 FF FF 7F F8 FF  ..#...#[........
0210: FF 7F 74 68 6B 32 1D 1B  80 23 01 2C 02 02 00 10  ..thk2...#.,....
0220: 06 80 00 2C 02 1D 1C 80  23 01 2C 02 1B           ...,....#.,..   
```

#### Opcodes

```
  0: 0x01BA [0x1E] EventEntity looks at LocalPlayer and starts talking
  1: 0x01BF [0x6F] WAIT_FRAME_DELAY: Yield until WaitTime reaches zero
  2: 0x01C0 [0x70] WAIT_ENTITY_RENDER_FLAG: Wait while EventEntity->Render.Flags3 bit 2 is set (cancel turn if not)
  3: 0x01C1 [0x4A] LocalPlayer looks at EventEntity
  4: 0x01CA [0x1D] PRINT_EVENT_MESSAGE(message_id=7326*)
    → "What? You still thinking about that antique ring?"
  5: 0x01CD [0x23] WAIT_FOR_DIALOG_INTERACTION
  6: 0x01CE [0x1A] CALL_SUBROUTINE(address=0x01D3)
  7: 0x01D1 [0x21] END_EVENT
  8: 0x01D2 [0x00] END_REQSTACK()

SUBROUTINE_01D3:
  9: 0x01D3 [0x06] Work_Zone[1] = 0
 10: 0x01D6 [0x42] SET_CLI_EVENT_CANCEL_DATA()
 11: 0x01D7 [0x24] CREATE_DIALOG(message_id=7320*, default_option=1*, option_flags=0*)
    → "Are you ready? [You bet./Uh, give me a moment.]"
 12: 0x01DE [0x25] WAIT_DIALOG_SELECT()
 13: 0x01DF [0x02] IF !(Work_Zone[0] == 0*) GOTO 0x021D
 14: 0x01E7 [0x03] Work_Zone[1] = 1*
 15: 0x01EC [0x1D] PRINT_EVENT_MESSAGE(message_id=7321*)
    → "Very well. Let's see it!"
 16: 0x01EF [0x23] WAIT_FOR_DIALOG_INTERACTION
 17: 0x01F0 [0x5B] LOAD_EXT_SCHEDULER: Load scheduler "thk1" with entities [EventEntity, EventEntity], work=60*
 18: 0x01FF [0x1D] PRINT_EVENT_MESSAGE(message_id=7322*)
    → "Why, this is quite an old ring. And the years have not been kind! Look, I've found an inscription."
 19: 0x0202 [0x23] WAIT_FOR_DIALOG_INTERACTION
 20: 0x0203 [0x1D] PRINT_EVENT_MESSAGE(message_id=7323*)
    → "Hmm... No, I can't make it out. It's too much for the Goldsmiths' Guild. You'll need to bury it in perennial snow to wash away the filth!"
 21: 0x0206 [0x23] WAIT_FOR_DIALOG_INTERACTION
 22: 0x0207 [0x5B] LOAD_EXT_SCHEDULER: Load scheduler "thk2" with entities [EventEntity, EventEntity], work=60*
 23: 0x0216 [0x1D] PRINT_EVENT_MESSAGE(message_id=7324*)
    → "Deep inside Xarcabard lies a snow untouched for a thousand years. Take your ring, bury it there to clean the grime, and come back here."
 24: 0x0219 [0x23] WAIT_FOR_DIALOG_INTERACTION
 25: 0x021A [0x01] GOTO 0x022C
 26: 0x021D [0x02] IF !(Work_Zone[0] == 1*) GOTO 0x022C
 27: 0x0225 [0x1D] PRINT_EVENT_MESSAGE(message_id=7325*)
    → "That's fine. I'm sure your antique would appreciate the privacy."
 28: 0x0228 [0x23] WAIT_FOR_DIALOG_INTERACTION
 29: 0x0229 [0x01] GOTO 0x022C

SUBROUTINE_022C:
 30: 0x022C [0x1B] RETURN
```

### Event 32

#### Metadata

| Field        | Value    |
|--------------|----------|
| Entrypoint   | 0x022D   |
| Data Size    | 13 bytes |
| Instructions | 7        |

```
      00 01 02 03 04 05 06 07  08 09 0A 0B 0C 0D 0E 0F
      -- -- -- -- -- -- -- --  -- -- -- -- -- -- -- --
0220:                                         1E F0 FF               ...
0230: FF 7F 6F 70 1D 1B 80 23  21 00                    ..op...#!.      
```

#### Opcodes

```
  0: 0x022D [0x1E] EventEntity looks at LocalPlayer and starts talking
  1: 0x0232 [0x6F] WAIT_FRAME_DELAY: Yield until WaitTime reaches zero
  2: 0x0233 [0x70] WAIT_ENTITY_RENDER_FLAG: Wait while EventEntity->Render.Flags3 bit 2 is set (cancel turn if not)
  3: 0x0234 [0x1D] PRINT_EVENT_MESSAGE(message_id=7324*)
    → "Deep inside Xarcabard lies a snow untouched for a thousand years. Take your ring, bury it there to clean the grime, and come back here."
  4: 0x0237 [0x23] WAIT_FOR_DIALOG_INTERACTION
  5: 0x0238 [0x21] END_EVENT
  6: 0x0239 [0x00] END_REQSTACK()
```

### Event 33

#### Metadata

| Field        | Value    |
|--------------|----------|
| Entrypoint   | 0x023A   |
| Data Size    | 82 bytes |
| Instructions | 19       |

```
      00 01 02 03 04 05 06 07  08 09 0A 0B 0C 0D 0E 0F
      -- -- -- -- -- -- -- --  -- -- -- -- -- -- -- --
0230:                                20 01 42 1E F0 FF             .B...
0240: FF 7F 6F 70 4A F0 FF FF  7F F8 FF FF 7F 5B 00 80  ..opJ........[..
0250: F8 FF FF 7F F8 FF FF 7F  74 6C 6B 30 1D 1D 80 23  ........tlk0...#
0260: 5B 00 80 F8 FF FF 7F F8  FF FF 7F 74 68 6B 31 1D  [..........thk1.
0270: 1E 80 23 1D 1F 80 23 5B  00 80 F8 FF FF 7F F8 FF  ..#...#[........
0280: FF 7F 74 68 6B 32 1D 20  80 23 21 00              ..thk2. .#!.    
```

#### Opcodes

```
  0: 0x023A [0x20] SET_CLI_EVENT_UC_FLAG: Lock player control
  1: 0x023C [0x42] SET_CLI_EVENT_CANCEL_DATA()
  2: 0x023D [0x1E] EventEntity looks at LocalPlayer and starts talking
  3: 0x0242 [0x6F] WAIT_FRAME_DELAY: Yield until WaitTime reaches zero
  4: 0x0243 [0x70] WAIT_ENTITY_RENDER_FLAG: Wait while EventEntity->Render.Flags3 bit 2 is set (cancel turn if not)
  5: 0x0244 [0x4A] LocalPlayer looks at EventEntity
  6: 0x024D [0x5B] LOAD_EXT_SCHEDULER: Load scheduler "tlk0" with entities [EventEntity, EventEntity], work=60*
  7: 0x025C [0x1D] PRINT_EVENT_MESSAGE(message_id=7327*)
    → "Well, look at this! Clean as a whistle! Now, let's see what we can see..."
  8: 0x025F [0x23] WAIT_FOR_DIALOG_INTERACTION
  9: 0x0260 [0x5B] LOAD_EXT_SCHEDULER: Load scheduler "thk1" with entities [EventEntity, EventEntity], work=60*
 10: 0x026F [0x1D] PRINT_EVENT_MESSAGE(message_id=7328*)
    → "Say, this is written in the elder script of San d'Oria. It's a fine ring, but I wonder what it says..."
 11: 0x0272 [0x23] WAIT_FOR_DIALOG_INTERACTION
 12: 0x0273 [0x1D] PRINT_EVENT_MESSAGE(message_id=7329*)
    → "I suggest you take it to someone of respectable age in Chateau d'Oraguille."
 13: 0x0276 [0x23] WAIT_FOR_DIALOG_INTERACTION
 14: 0x0277 [0x5B] LOAD_EXT_SCHEDULER: Load scheduler "thk2" with entities [EventEntity, EventEntity], work=60*
 15: 0x0286 [0x1D] PRINT_EVENT_MESSAGE(message_id=7330*)
    → "Can't give it a price till you know its value, as we say in the business!"
 16: 0x0289 [0x23] WAIT_FOR_DIALOG_INTERACTION
 17: 0x028A [0x21] END_EVENT
 18: 0x028B [0x00] END_REQSTACK()
```

### Event 31

#### Metadata

| Field        | Value    |
|--------------|----------|
| Entrypoint   | 0x028C   |
| Data Size    | 13 bytes |
| Instructions | 7        |

```
      00 01 02 03 04 05 06 07  08 09 0A 0B 0C 0D 0E 0F
      -- -- -- -- -- -- -- --  -- -- -- -- -- -- -- --
0280:                                      1E F0 FF FF              ....
0290: 7F 6F 70 1D 21 80 23 21  00                       .op.!.#!.       
```

#### Opcodes

```
  0: 0x028C [0x1E] EventEntity looks at LocalPlayer and starts talking
  1: 0x0291 [0x6F] WAIT_FRAME_DELAY: Yield until WaitTime reaches zero
  2: 0x0292 [0x70] WAIT_ENTITY_RENDER_FLAG: Wait while EventEntity->Render.Flags3 bit 2 is set (cancel turn if not)
  3: 0x0293 [0x1D] PRINT_EVENT_MESSAGE(message_id=7331*)
    → "Take the ring to a person of respectable age in Chateau d'Oraguille. Can't give it a price till you know its value, as we say in the business!"
  4: 0x0296 [0x23] WAIT_FOR_DIALOG_INTERACTION
  5: 0x0297 [0x21] END_EVENT
  6: 0x0298 [0x00] END_REQSTACK()
```

### Event 10029

#### Metadata

| Field        | Value    |
|--------------|----------|
| Entrypoint   | 0x0299   |
| Data Size    | 19 bytes |
| Instructions | 10       |

```
      00 01 02 03 04 05 06 07  08 09 0A 0B 0C 0D 0E 0F
      -- -- -- -- -- -- -- --  -- -- -- -- -- -- -- --
0290:                             1E F0 FF FF 7F 6F 70           .....op
02A0: 1D 22 80 23 1D 23 80 23  20 00 21 00              .".#.#.# .!.    
```

#### Opcodes

```
  0: 0x0299 [0x1E] EventEntity looks at LocalPlayer and starts talking
  1: 0x029E [0x6F] WAIT_FRAME_DELAY: Yield until WaitTime reaches zero
  2: 0x029F [0x70] WAIT_ENTITY_RENDER_FLAG: Wait while EventEntity->Render.Flags3 bit 2 is set (cancel turn if not)
  3: 0x02A0 [0x1D] PRINT_EVENT_MESSAGE(message_id=7793*)
    → "It was quite some time ago now, but I saw this young Elvaan girl heading into that cave with a fishing rod in her hand."
  4: 0x02A3 [0x23] WAIT_FOR_DIALOG_INTERACTION
  5: 0x02A4 [0x1D] PRINT_EVENT_MESSAGE(message_id=7794*)
    → "When she came back, she told me some "damn huge octopus" had whipped the rod right out of her grasp..."
  6: 0x02A7 [0x23] WAIT_FOR_DIALOG_INTERACTION
  7: 0x02A8 [0x20] SET_CLI_EVENT_UC_FLAG: Unlock player control
  8: 0x02AA [0x21] END_EVENT
  9: 0x02AB [0x00] END_REQSTACK()
```
