# 17784895 - Marnie

## Common Data

| Field            | Value                |
|------------------|----------------------|
| Zone             | Port Jeuno (ID: 246) |
| Block Size       | 1736 bytes           |
| Total Events     | 43                   |
| References Count | 84                   |

## List of Events

| Event ID                   | Entrypoint   |   Size |   Instructions |
|----------------------------|--------------|--------|----------------|
| [65535](#event-65535)      | 0x0000       |      1 |              1 |
| [51](#event-51)            | 0x0001       |     44 |             16 |
| [324](#event-324)          | 0x002D       |     18 |              4 |
| [325](#event-325)          | 0x003F       |     18 |              4 |
| [327](#event-327)          | 0x0051       |     18 |              4 |
| [331](#event-331)          | 0x0063       |     18 |              4 |
| [332](#event-332)          | 0x0075       |     18 |              4 |
| [333](#event-333)          | 0x0087       |     18 |              4 |
| [334](#event-334)          | 0x0099       |     18 |              4 |
| [335](#event-335)          | 0x00AB       |     18 |              4 |
| [336](#event-336)          | 0x00BD       |     18 |              4 |
| [337](#event-337)          | 0x00CF       |     18 |              4 |
| [338](#event-338)          | 0x00E1       |     18 |              4 |
| [340](#event-340)          | 0x00F3       |     18 |              4 |
| [341](#event-341)          | 0x0105       |     18 |              4 |
| [342](#event-342)          | 0x0117       |     18 |              4 |
| [343](#event-343)          | 0x0129       |     18 |              4 |
| [344](#event-344)          | 0x013B       |     18 |              4 |
| [345](#event-345)          | 0x014D       |     18 |              4 |
| [65535.1](#event-655351)   | 0x015F       |     40 |              8 |
| [65535.2](#event-655352)   | 0x0187       |     40 |              8 |
| [65535.3](#event-655353)   | 0x01AF       |    139 |             22 |
| [65535.4](#event-655354)   | 0x023A       |     15 |              5 |
| [65535.5](#event-655355)   | 0x0249       |     15 |              5 |
| [65535.6](#event-655356)   | 0x0258       |     30 |              8 |
| [65535.7](#event-655357)   | 0x0276       |     16 |              2 |
| [65535.8](#event-655358)   | 0x0286       |     33 |              7 |
| [65535.9](#event-655359)   | 0x02A7       |     33 |              7 |
| [65535.10](#event-6553510) | 0x02C8       |     45 |             13 |
| [65535.11](#event-6553511) | 0x02F5       |    139 |             22 |
| [65535.12](#event-6553512) | 0x0380       |     15 |              5 |
| [65535.13](#event-6553513) | 0x038F       |     15 |              5 |
| [65535.14](#event-6553514) | 0x039E       |     15 |              5 |
| [65535.15](#event-6553515) | 0x03AD       |     80 |             13 |
| [65535.16](#event-6553516) | 0x03FD       |     15 |              5 |
| [65535.17](#event-6553517) | 0x040C       |     15 |              5 |
| [65535.18](#event-6553518) | 0x041B       |     15 |              5 |
| [65535.19](#event-6553519) | 0x042A       |     15 |              5 |
| [65535.20](#event-6553520) | 0x0439       |     15 |              5 |
| [65535.21](#event-6553521) | 0x0448       |     53 |             10 |
| [65535.22](#event-6553522) | 0x047D       |     58 |             11 |
| [431](#event-431)          | 0x04B7       |      1 |              1 |
| [443](#event-443)          | 0x04B8       |      1 |              1 |

## DAT References (imed_data)

|   Index | Hex Value   |   Dec Value |
|---------|-------------|-------------|
|       0 | 0x1BBB      |        7099 |
|       1 | 0x1BBC      |        7100 |
|       2 | 0x0000      |           0 |
|       3 | 0xFFFFFFFD  |  4294967293 |
|       4 | 0x0003      |           3 |
|       5 | 0x1BBD      |        7101 |
|       6 | 0x0015      |          21 |
|       7 | 0x005A      |          90 |
|       8 | 0x000D      |          13 |
|       9 | 0xFFFF43BD  |  4294919101 |
|      10 | 0x0E16      |        3606 |
|      11 | 0x03CD      |         973 |
|      12 | 0x0034      |          52 |
|      13 | 0x0078      |         120 |
|      14 | 0x000B      |          11 |
|      15 | 0x5D1F      |       23839 |
|      16 | 0x1781      |        6017 |
|      17 | 0x02AF      |         687 |
|      18 | 0x0051      |          81 |
|      19 | 0x002D      |          45 |
|      20 | 0x0005      |           5 |
|      21 | 0x001E      |          30 |
|      22 | 0x08AE      |        2222 |
|      23 | 0x004B      |          75 |
|      24 | 0x000F      |          15 |
|      25 | 0x0025      |          37 |
|      26 | 0xFFFEC504  |  4294886660 |
|      27 | 0xFFFFEAAC  |  4294961836 |
|      28 | 0x0027      |          39 |
|      29 | 0xFFFEC210  |  4294885904 |
|      30 | 0xFFFFEF62  |  4294963042 |
|      31 | 0x0029      |          41 |
|      32 | 0xFFFEBC38  |  4294884408 |
|      33 | 0xFFFFED5A  |  4294962522 |
|      34 | 0x0006      |           6 |
|      35 | 0x000A      |          10 |
|      36 | 0xFFFEAFBE  |  4294881214 |
|      37 | 0xFFFFFA5E  |  4294965854 |
|      38 | 0x00D8      |         216 |
|      39 | 0x000C      |          12 |
|      40 | 0xFFFE7646  |  4294866502 |
|      41 | 0xFFFFF1A1  |  4294963617 |
|      42 | 0x003C      |          60 |
|      43 | 0x0028      |          40 |
|      44 | 0xFFFF89FB  |  4294937083 |
|      45 | 0xFFFFFA22  |  4294965794 |
|      46 | 0xFFFE86B8  |  4294870712 |
|      47 | 0xFFFFDEB9  |  4294958777 |
|      48 | 0x0E02      |        3586 |
|      49 | 0x0168      |         360 |
|      50 | 0xFFFE880F  |  4294871055 |
|      51 | 0x22A8      |        8872 |
|      52 | 0x0200      |         512 |
|      53 | 0xFFFF32B5  |  4294914741 |
|      54 | 0x079E      |        1950 |
|      55 | 0xFFFF402C  |  4294918188 |
|      56 | 0x0935      |        2357 |
|      57 | 0xFFFF35EA  |  4294915562 |
|      58 | 0x0B3F      |        2879 |
|      59 | 0xFFFF3A12  |  4294916626 |
|      60 | 0x09AA      |        2474 |
|      61 | 0xFFFE9692  |  4294874770 |
|      62 | 0xFFFFF68E  |  4294964878 |
|      63 | 0x0026      |          38 |
|      64 | 0xFFFE7DEB  |  4294868459 |
|      65 | 0xFFFFF5B0  |  4294964656 |
|      66 | 0x1387      |        4999 |
|      67 | 0xFFFFFCE1  |  4294966497 |
|      68 | 0xFFFED394  |  4294890388 |
|      69 | 0xFFFFF65F  |  4294964831 |
|      70 | 0xFFFF38F4  |  4294916340 |
|      71 | 0xFFFFF821  |  4294965281 |
|      72 | 0xFFFE5E8F  |  4294860431 |
|      73 | 0x0899      |        2201 |
|      74 | 0xFFFF7085  |  4294930565 |
|      75 | 0xFFFFF716  |  4294965014 |
|      76 | 0xFFFF1D41  |  4294909249 |
|      77 | 0x24D9      |        9433 |
|      78 | 0xFFFF236E  |  4294910830 |
|      79 | 0x2722      |       10018 |
|      80 | 0x00D7      |         215 |
|      81 | 0xFFFF34A9  |  4294915241 |
|      82 | 0x0881      |        2177 |
|      83 | 0x0013      |          19 |

## String References

- **7099**: Would you care to see a map of Jeuno?
- **7100**: What do you say? [Sure, show me./No, thanks.]
- **7101**: You're in Port Jeuno.

## Events

### Event 65535

#### Metadata

| Field        | Value   |
|--------------|---------|
| Entrypoint   | 0x0000  |
| Data Size    | 1 bytes |
| Instructions | 1       |

```
      00 01 02 03 04 05 06 07  08 09 0A 0B 0C 0D 0E 0F
      -- -- -- -- -- -- -- --  -- -- -- -- -- -- -- --
0000: 00                                                .               
```

#### Opcodes

```
  0: 0x0000 [0x00] END_REQSTACK()
```

### Event 51

#### Metadata

| Field        | Value    |
|--------------|----------|
| Entrypoint   | 0x0001   |
| Data Size    | 44 bytes |
| Instructions | 16       |

```
      00 01 02 03 04 05 06 07  08 09 0A 0B 0C 0D 0E 0F
      -- -- -- -- -- -- -- --  -- -- -- -- -- -- -- --
0000:    20 01 1E F0 FF FF 7F  6F 70 1D 00 80 23 24 01    ......op...#$.
0010: 80 02 80 02 80 25 02 00  10 02 80 00 2B 00 8D 03  .....%......+...
0020: 80 04 80 1D 05 80 23 8A  01 2B 00 21 00           ......#..+.!.   
```

#### Opcodes

```
  0: 0x0001 [0x20] SET_CLI_EVENT_UC_FLAG: Lock player control
  1: 0x0003 [0x1E] EventEntity looks at LocalPlayer and starts talking
  2: 0x0008 [0x6F] WAIT_FRAME_DELAY: Yield until WaitTime reaches zero
  3: 0x0009 [0x70] WAIT_ENTITY_RENDER_FLAG: Wait while EventEntity->Render.Flags3 bit 2 is set (cancel turn if not)
  4: 0x000A [0x1D] PRINT_EVENT_MESSAGE(message_id=7099*)
    → "Would you care to see a map of Jeuno?"
  5: 0x000D [0x23] WAIT_FOR_DIALOG_INTERACTION
  6: 0x000E [0x24] CREATE_DIALOG(message_id=7100*, default_option=0*, option_flags=0*)
    → "What do you say? [Sure, show me./No, thanks.]"
  7: 0x0015 [0x25] WAIT_DIALOG_SELECT()
  8: 0x0016 [0x02] IF !(Work_Zone[0] == 0*) GOTO 0x002B
  9: 0x001E [0x8D] OPEN_MAP_WITH_PROPERTIES(map_id=4294967293*, properties=3*)
 10: 0x0023 [0x1D] PRINT_EVENT_MESSAGE(message_id=7101*)
    → "You're in Port Jeuno."
 11: 0x0026 [0x23] WAIT_FOR_DIALOG_INTERACTION
 12: 0x0027 [0x8A] CLOSE_MAP()
 13: 0x0028 [0x01] GOTO 0x002B

SUBROUTINE_002B:
 14: 0x002B [0x21] END_EVENT
 15: 0x002C [0x00] END_REQSTACK()
```

### Event 324

#### Metadata

| Field        | Value    |
|--------------|----------|
| Entrypoint   | 0x002D   |
| Data Size    | 18 bytes |
| Instructions | 4        |

```
      00 01 02 03 04 05 06 07  08 09 0A 0B 0C 0D 0E 0F
      -- -- -- -- -- -- -- --  -- -- -- -- -- -- -- --
0020:                                         92 01 F8               ...
0030: FF FF 7F 94 01 F8 FF FF  7F 80 F8 FF FF 7F 00     ............... 
```

#### Opcodes

```
  0: 0x002D [0x92] EventEntity->Render.Flags3 ^= 0x01
  1: 0x0033 [0x94] EventEntity->Render.Flags3 ^= 0x01
  2: 0x0039 [0x80] LOAD_WAIT(entity=EventEntity)
  3: 0x003E [0x00] END_REQSTACK()
```

### Event 325

#### Metadata

| Field        | Value    |
|--------------|----------|
| Entrypoint   | 0x003F   |
| Data Size    | 18 bytes |
| Instructions | 4        |

```
      00 01 02 03 04 05 06 07  08 09 0A 0B 0C 0D 0E 0F
      -- -- -- -- -- -- -- --  -- -- -- -- -- -- -- --
0030:                                               92                 .
0040: 01 F8 FF FF 7F 94 01 F8  FF FF 7F 80 F8 FF FF 7F  ................
0050: 00                                                .               
```

#### Opcodes

```
  0: 0x003F [0x92] EventEntity->Render.Flags3 ^= 0x01
  1: 0x0045 [0x94] EventEntity->Render.Flags3 ^= 0x01
  2: 0x004B [0x80] LOAD_WAIT(entity=EventEntity)
  3: 0x0050 [0x00] END_REQSTACK()
```

### Event 327

#### Metadata

| Field        | Value    |
|--------------|----------|
| Entrypoint   | 0x0051   |
| Data Size    | 18 bytes |
| Instructions | 4        |

```
      00 01 02 03 04 05 06 07  08 09 0A 0B 0C 0D 0E 0F
      -- -- -- -- -- -- -- --  -- -- -- -- -- -- -- --
0050:    92 01 F8 FF FF 7F 94  01 F8 FF FF 7F 80 F8 FF   ...............
0060: FF 7F 00                                          ...             
```

#### Opcodes

```
  0: 0x0051 [0x92] EventEntity->Render.Flags3 ^= 0x01
  1: 0x0057 [0x94] EventEntity->Render.Flags3 ^= 0x01
  2: 0x005D [0x80] LOAD_WAIT(entity=EventEntity)
  3: 0x0062 [0x00] END_REQSTACK()
```

### Event 331

#### Metadata

| Field        | Value    |
|--------------|----------|
| Entrypoint   | 0x0063   |
| Data Size    | 18 bytes |
| Instructions | 4        |

```
      00 01 02 03 04 05 06 07  08 09 0A 0B 0C 0D 0E 0F
      -- -- -- -- -- -- -- --  -- -- -- -- -- -- -- --
0060:          92 01 F8 FF FF  7F 94 01 F8 FF FF 7F 80     .............
0070: F8 FF FF 7F 00                                    .....           
```

#### Opcodes

```
  0: 0x0063 [0x92] EventEntity->Render.Flags3 ^= 0x01
  1: 0x0069 [0x94] EventEntity->Render.Flags3 ^= 0x01
  2: 0x006F [0x80] LOAD_WAIT(entity=EventEntity)
  3: 0x0074 [0x00] END_REQSTACK()
```

### Event 332

#### Metadata

| Field        | Value    |
|--------------|----------|
| Entrypoint   | 0x0075   |
| Data Size    | 18 bytes |
| Instructions | 4        |

```
      00 01 02 03 04 05 06 07  08 09 0A 0B 0C 0D 0E 0F
      -- -- -- -- -- -- -- --  -- -- -- -- -- -- -- --
0070:                92 01 F8  FF FF 7F 94 01 F8 FF FF       ...........
0080: 7F 80 F8 FF FF 7F 00                              .......         
```

#### Opcodes

```
  0: 0x0075 [0x92] EventEntity->Render.Flags3 ^= 0x01
  1: 0x007B [0x94] EventEntity->Render.Flags3 ^= 0x01
  2: 0x0081 [0x80] LOAD_WAIT(entity=EventEntity)
  3: 0x0086 [0x00] END_REQSTACK()
```

### Event 333

#### Metadata

| Field        | Value    |
|--------------|----------|
| Entrypoint   | 0x0087   |
| Data Size    | 18 bytes |
| Instructions | 4        |

```
      00 01 02 03 04 05 06 07  08 09 0A 0B 0C 0D 0E 0F
      -- -- -- -- -- -- -- --  -- -- -- -- -- -- -- --
0080:                      92  01 F8 FF FF 7F 94 01 F8         .........
0090: FF FF 7F 80 F8 FF FF 7F  00                       .........       
```

#### Opcodes

```
  0: 0x0087 [0x92] EventEntity->Render.Flags3 ^= 0x01
  1: 0x008D [0x94] EventEntity->Render.Flags3 ^= 0x01
  2: 0x0093 [0x80] LOAD_WAIT(entity=EventEntity)
  3: 0x0098 [0x00] END_REQSTACK()
```

### Event 334

#### Metadata

| Field        | Value    |
|--------------|----------|
| Entrypoint   | 0x0099   |
| Data Size    | 18 bytes |
| Instructions | 4        |

```
      00 01 02 03 04 05 06 07  08 09 0A 0B 0C 0D 0E 0F
      -- -- -- -- -- -- -- --  -- -- -- -- -- -- -- --
0090:                             92 01 F8 FF FF 7F 94           .......
00A0: 01 F8 FF FF 7F 80 F8 FF  FF 7F 00                 ...........     
```

#### Opcodes

```
  0: 0x0099 [0x92] EventEntity->Render.Flags3 ^= 0x01
  1: 0x009F [0x94] EventEntity->Render.Flags3 ^= 0x01
  2: 0x00A5 [0x80] LOAD_WAIT(entity=EventEntity)
  3: 0x00AA [0x00] END_REQSTACK()
```

### Event 335

#### Metadata

| Field        | Value    |
|--------------|----------|
| Entrypoint   | 0x00AB   |
| Data Size    | 18 bytes |
| Instructions | 4        |

```
      00 01 02 03 04 05 06 07  08 09 0A 0B 0C 0D 0E 0F
      -- -- -- -- -- -- -- --  -- -- -- -- -- -- -- --
00A0:                                   92 01 F8 FF FF             .....
00B0: 7F 94 01 F8 FF FF 7F 80  F8 FF FF 7F 00           .............   
```

#### Opcodes

```
  0: 0x00AB [0x92] EventEntity->Render.Flags3 ^= 0x01
  1: 0x00B1 [0x94] EventEntity->Render.Flags3 ^= 0x01
  2: 0x00B7 [0x80] LOAD_WAIT(entity=EventEntity)
  3: 0x00BC [0x00] END_REQSTACK()
```

### Event 336

#### Metadata

| Field        | Value    |
|--------------|----------|
| Entrypoint   | 0x00BD   |
| Data Size    | 18 bytes |
| Instructions | 4        |

```
      00 01 02 03 04 05 06 07  08 09 0A 0B 0C 0D 0E 0F
      -- -- -- -- -- -- -- --  -- -- -- -- -- -- -- --
00B0:                                         92 01 F8               ...
00C0: FF FF 7F 94 01 F8 FF FF  7F 80 F8 FF FF 7F 00     ............... 
```

#### Opcodes

```
  0: 0x00BD [0x92] EventEntity->Render.Flags3 ^= 0x01
  1: 0x00C3 [0x94] EventEntity->Render.Flags3 ^= 0x01
  2: 0x00C9 [0x80] LOAD_WAIT(entity=EventEntity)
  3: 0x00CE [0x00] END_REQSTACK()
```

### Event 337

#### Metadata

| Field        | Value    |
|--------------|----------|
| Entrypoint   | 0x00CF   |
| Data Size    | 18 bytes |
| Instructions | 4        |

```
      00 01 02 03 04 05 06 07  08 09 0A 0B 0C 0D 0E 0F
      -- -- -- -- -- -- -- --  -- -- -- -- -- -- -- --
00C0:                                               92                 .
00D0: 01 F8 FF FF 7F 94 01 F8  FF FF 7F 80 F8 FF FF 7F  ................
00E0: 00                                                .               
```

#### Opcodes

```
  0: 0x00CF [0x92] EventEntity->Render.Flags3 ^= 0x01
  1: 0x00D5 [0x94] EventEntity->Render.Flags3 ^= 0x01
  2: 0x00DB [0x80] LOAD_WAIT(entity=EventEntity)
  3: 0x00E0 [0x00] END_REQSTACK()
```

### Event 338

#### Metadata

| Field        | Value    |
|--------------|----------|
| Entrypoint   | 0x00E1   |
| Data Size    | 18 bytes |
| Instructions | 4        |

```
      00 01 02 03 04 05 06 07  08 09 0A 0B 0C 0D 0E 0F
      -- -- -- -- -- -- -- --  -- -- -- -- -- -- -- --
00E0:    92 01 F8 FF FF 7F 94  01 F8 FF FF 7F 80 F8 FF   ...............
00F0: FF 7F 00                                          ...             
```

#### Opcodes

```
  0: 0x00E1 [0x92] EventEntity->Render.Flags3 ^= 0x01
  1: 0x00E7 [0x94] EventEntity->Render.Flags3 ^= 0x01
  2: 0x00ED [0x80] LOAD_WAIT(entity=EventEntity)
  3: 0x00F2 [0x00] END_REQSTACK()
```

### Event 340

#### Metadata

| Field        | Value    |
|--------------|----------|
| Entrypoint   | 0x00F3   |
| Data Size    | 18 bytes |
| Instructions | 4        |

```
      00 01 02 03 04 05 06 07  08 09 0A 0B 0C 0D 0E 0F
      -- -- -- -- -- -- -- --  -- -- -- -- -- -- -- --
00F0:          92 01 F8 FF FF  7F 94 01 F8 FF FF 7F 80     .............
0100: F8 FF FF 7F 00                                    .....           
```

#### Opcodes

```
  0: 0x00F3 [0x92] EventEntity->Render.Flags3 ^= 0x01
  1: 0x00F9 [0x94] EventEntity->Render.Flags3 ^= 0x01
  2: 0x00FF [0x80] LOAD_WAIT(entity=EventEntity)
  3: 0x0104 [0x00] END_REQSTACK()
```

### Event 341

#### Metadata

| Field        | Value    |
|--------------|----------|
| Entrypoint   | 0x0105   |
| Data Size    | 18 bytes |
| Instructions | 4        |

```
      00 01 02 03 04 05 06 07  08 09 0A 0B 0C 0D 0E 0F
      -- -- -- -- -- -- -- --  -- -- -- -- -- -- -- --
0100:                92 01 F8  FF FF 7F 94 01 F8 FF FF       ...........
0110: 7F 80 F8 FF FF 7F 00                              .......         
```

#### Opcodes

```
  0: 0x0105 [0x92] EventEntity->Render.Flags3 ^= 0x01
  1: 0x010B [0x94] EventEntity->Render.Flags3 ^= 0x01
  2: 0x0111 [0x80] LOAD_WAIT(entity=EventEntity)
  3: 0x0116 [0x00] END_REQSTACK()
```

### Event 342

#### Metadata

| Field        | Value    |
|--------------|----------|
| Entrypoint   | 0x0117   |
| Data Size    | 18 bytes |
| Instructions | 4        |

```
      00 01 02 03 04 05 06 07  08 09 0A 0B 0C 0D 0E 0F
      -- -- -- -- -- -- -- --  -- -- -- -- -- -- -- --
0110:                      92  01 F8 FF FF 7F 94 01 F8         .........
0120: FF FF 7F 80 F8 FF FF 7F  00                       .........       
```

#### Opcodes

```
  0: 0x0117 [0x92] EventEntity->Render.Flags3 ^= 0x01
  1: 0x011D [0x94] EventEntity->Render.Flags3 ^= 0x01
  2: 0x0123 [0x80] LOAD_WAIT(entity=EventEntity)
  3: 0x0128 [0x00] END_REQSTACK()
```

### Event 343

#### Metadata

| Field        | Value    |
|--------------|----------|
| Entrypoint   | 0x0129   |
| Data Size    | 18 bytes |
| Instructions | 4        |

```
      00 01 02 03 04 05 06 07  08 09 0A 0B 0C 0D 0E 0F
      -- -- -- -- -- -- -- --  -- -- -- -- -- -- -- --
0120:                             92 01 F8 FF FF 7F 94           .......
0130: 01 F8 FF FF 7F 80 F8 FF  FF 7F 00                 ...........     
```

#### Opcodes

```
  0: 0x0129 [0x92] EventEntity->Render.Flags3 ^= 0x01
  1: 0x012F [0x94] EventEntity->Render.Flags3 ^= 0x01
  2: 0x0135 [0x80] LOAD_WAIT(entity=EventEntity)
  3: 0x013A [0x00] END_REQSTACK()
```

### Event 344

#### Metadata

| Field        | Value    |
|--------------|----------|
| Entrypoint   | 0x013B   |
| Data Size    | 18 bytes |
| Instructions | 4        |

```
      00 01 02 03 04 05 06 07  08 09 0A 0B 0C 0D 0E 0F
      -- -- -- -- -- -- -- --  -- -- -- -- -- -- -- --
0130:                                   92 01 F8 FF FF             .....
0140: 7F 94 01 F8 FF FF 7F 80  F8 FF FF 7F 00           .............   
```

#### Opcodes

```
  0: 0x013B [0x92] EventEntity->Render.Flags3 ^= 0x01
  1: 0x0141 [0x94] EventEntity->Render.Flags3 ^= 0x01
  2: 0x0147 [0x80] LOAD_WAIT(entity=EventEntity)
  3: 0x014C [0x00] END_REQSTACK()
```

### Event 345

#### Metadata

| Field        | Value    |
|--------------|----------|
| Entrypoint   | 0x014D   |
| Data Size    | 18 bytes |
| Instructions | 4        |

```
      00 01 02 03 04 05 06 07  08 09 0A 0B 0C 0D 0E 0F
      -- -- -- -- -- -- -- --  -- -- -- -- -- -- -- --
0140:                                         92 01 F8               ...
0150: FF FF 7F 94 01 F8 FF FF  7F 80 F8 FF FF 7F 00     ............... 
```

#### Opcodes

```
  0: 0x014D [0x92] EventEntity->Render.Flags3 ^= 0x01
  1: 0x0153 [0x94] EventEntity->Render.Flags3 ^= 0x01
  2: 0x0159 [0x80] LOAD_WAIT(entity=EventEntity)
  3: 0x015E [0x00] END_REQSTACK()
```

### Event 65535.1

#### Metadata

| Field        | Value    |
|--------------|----------|
| Entrypoint   | 0x015F   |
| Data Size    | 40 bytes |
| Instructions | 8        |

```
      00 01 02 03 04 05 06 07  08 09 0A 0B 0C 0D 0E 0F
      -- -- -- -- -- -- -- --  -- -- -- -- -- -- -- --
0150:                                               66                 f
0160: 06 80 28 60 0F 01 28 60  0F 01 64 69 73 30 1C 07  ..(`..(`..dis0..
0170: 80 32 08 80 1F 00 09 80  0A 80 02 80 1F 01 6F 4B  .2............oK
0180: F8 FF FF 7F 0B 80 00                              .......         
```

#### Opcodes

```
  0: 0x015F [0x66] LOAD_EXT_SCHEDULER_MAIN: Load scheduler "dis0" with entities [Ramicharaux (ID: 17784872/0x010F6028), Ramicharaux (ID: 17784872/0x010F6028)], work=21*
  1: 0x016E [0x1C] WAIT(90* ticks)
  2: 0x0171 [0x32] ExtData[1]->MainSpeed = 13* * 0.1
  3: 0x0174 [0x1F] MOVE_ENTITY: EventEntity moves to X=-48.195*, Z=3.606*, Y=0.000*
  4: 0x017C [0x1F] MOVE_ENTITY: Update entity position (mode=1)
  5: 0x017E [0x6F] WAIT_FRAME_DELAY: Yield until WaitTime reaches zero
  6: 0x017F [0x4B] UPDATE_ENTITY_YAW(entity=EventEntity, yaw=5.3°*)
  7: 0x0186 [0x00] END_REQSTACK()
```

### Event 65535.2

#### Metadata

| Field        | Value    |
|--------------|----------|
| Entrypoint   | 0x0187   |
| Data Size    | 40 bytes |
| Instructions | 8        |

```
      00 01 02 03 04 05 06 07  08 09 0A 0B 0C 0D 0E 0F
      -- -- -- -- -- -- -- --  -- -- -- -- -- -- -- --
0180:                      66  0C 80 43 60 0F 01 43 60         f..C`..C`
0190: 0F 01 64 69 73 30 1C 0D  80 32 0E 80 1F 00 0F 80  ..dis0...2......
01A0: 10 80 02 80 1F 01 6F 4B  F8 FF FF 7F 11 80 00     ......oK....... 
```

#### Opcodes

```
  0: 0x0187 [0x66] LOAD_EXT_SCHEDULER_MAIN: Load scheduler "dis0" with entities [Khumo Daramasteh (ID: 17784899/0x010F6043), Khumo Daramasteh (ID: 17784899/0x010F6043)], work=52*
  1: 0x0196 [0x1C] WAIT(120* ticks)
  2: 0x0199 [0x32] ExtData[1]->MainSpeed = 11* * 0.1
  3: 0x019C [0x1F] MOVE_ENTITY: EventEntity moves to X=23.839*, Z=6.017*, Y=0.000*
  4: 0x01A4 [0x1F] MOVE_ENTITY: Update entity position (mode=1)
  5: 0x01A6 [0x6F] WAIT_FRAME_DELAY: Yield until WaitTime reaches zero
  6: 0x01A7 [0x4B] UPDATE_ENTITY_YAW(entity=EventEntity, yaw=3.8°*)
  7: 0x01AE [0x00] END_REQSTACK()
```

### Event 65535.3

#### Metadata

| Field        | Value     |
|--------------|-----------|
| Entrypoint   | 0x01AF    |
| Data Size    | 139 bytes |
| Instructions | 22        |

```
      00 01 02 03 04 05 06 07  08 09 0A 0B 0C 0D 0E 0F
      -- -- -- -- -- -- -- --  -- -- -- -- -- -- -- --
01A0:                                               5B                 [
01B0: 12 80 06 60 0F 01 06 60  0F 01 68 61 69 30 1C 13  ...`...`..hai0..
01C0: 80 4A 04 60 0F 01 06 60  0F 01 1C 14 80 79 00 05  .J.`...`.....y..
01D0: 60 0F 01 06 60 0F 01 1C  15 80 4B 06 60 0F 01 16  `...`.....K.`...
01E0: 80 6F 76 06 60 0F 01 5B  12 80 06 60 0F 01 06 60  .ov.`..[...`...`
01F0: 0F 01 61 77 77 30 1C 13  80 5B 17 80 04 60 0F 01  ..aww0...[...`..
0200: 04 60 0F 01 74 68 6B 31  1C 18 80 5B 07 80 05 60  .`..thk1...[...`
0210: 0F 01 05 60 0F 01 74 6C  6B 30 1C 07 80 27 10 04  ...`..tlk0...'..
0220: 60 0F 01 21 27 10 05 60  0F 01 20 32 19 80 1F 00  `..!'..`.. 2....
0230: 1A 80 1B 80 02 80 1F 01  6F 00                    ........o.      
```

#### Opcodes

```
  0: 0x01AF [0x5B] LOAD_EXT_SCHEDULER: Load scheduler "hai0" with entities [Jaha Amariyo (ID: 17784838/0x010F6006), Jaha Amariyo (ID: 17784838/0x010F6006)], work=81*
  1: 0x01BE [0x1C] WAIT(45* ticks)
  2: 0x01C1 [0x4A] Karl (ID: 17784836/0x010F6004) looks at Jaha Amariyo (ID: 17784838/0x010F6006)
  3: 0x01CA [0x1C] WAIT(5* ticks)
  4: 0x01CD [0x79] Buntz (ID: 17784837/0x010F6005) looks at Jaha Amariyo (ID: 17784838/0x010F6006) (Basic look)
  5: 0x01D7 [0x1C] WAIT(30* ticks)
  6: 0x01DA [0x4B] UPDATE_ENTITY_YAW(entity=Jaha Amariyo (ID: 17784838/0x010F6006), yaw=12.2°*)
  7: 0x01E1 [0x6F] WAIT_FRAME_DELAY: Yield until WaitTime reaches zero
  8: 0x01E2 [0x76] CHECK_ENTITY_RENDER_FLAGS: Wait until Jaha Amariyo (ID: 17784838/0x010F6006) Render.Flags0 and Render.Flags3 conditions are met
  9: 0x01E7 [0x5B] LOAD_EXT_SCHEDULER: Load scheduler "aww0" with entities [Jaha Amariyo (ID: 17784838/0x010F6006), Jaha Amariyo (ID: 17784838/0x010F6006)], work=81*
 10: 0x01F6 [0x1C] WAIT(45* ticks)
 11: 0x01F9 [0x5B] LOAD_EXT_SCHEDULER: Load scheduler "thk1" with entities [Karl (ID: 17784836/0x010F6004), Karl (ID: 17784836/0x010F6004)], work=75*
 12: 0x0208 [0x1C] WAIT(15* ticks)
 13: 0x020B [0x5B] LOAD_EXT_SCHEDULER: Load scheduler "tlk0" with entities [Buntz (ID: 17784837/0x010F6005), Buntz (ID: 17784837/0x010F6005)], work=90*
 14: 0x021A [0x1C] WAIT(90* ticks)
 15: 0x021D [0x27] REQ_SET(priority=0x10, entity_id=Karl (ID: 17784836/0x010F6004), tag_num=0x21)
 16: 0x0224 [0x27] REQ_SET(priority=0x10, entity_id=Buntz (ID: 17784837/0x010F6005), tag_num=0x20)
 17: 0x022B [0x32] ExtData[1]->MainSpeed = 37* * 0.1
 18: 0x022E [0x1F] MOVE_ENTITY: EventEntity moves to X=-80.636*, Z=-5.460*, Y=0.000*
 19: 0x0236 [0x1F] MOVE_ENTITY: Update entity position (mode=1)
 20: 0x0238 [0x6F] WAIT_FRAME_DELAY: Yield until WaitTime reaches zero
 21: 0x0239 [0x00] END_REQSTACK()
```

### Event 65535.4

#### Metadata

| Field        | Value    |
|--------------|----------|
| Entrypoint   | 0x023A   |
| Data Size    | 15 bytes |
| Instructions | 5        |

```
      00 01 02 03 04 05 06 07  08 09 0A 0B 0C 0D 0E 0F
      -- -- -- -- -- -- -- --  -- -- -- -- -- -- -- --
0230:                                32 1C 80 1F 00 1D            2.....
0240: 80 1E 80 02 80 1F 01 6F  00                       .......o.       
```

#### Opcodes

```
  0: 0x023A [0x32] ExtData[1]->MainSpeed = 39* * 0.1
  1: 0x023D [0x1F] MOVE_ENTITY: EventEntity moves to X=-81.392*, Z=-4.254*, Y=0.000*
  2: 0x0245 [0x1F] MOVE_ENTITY: Update entity position (mode=1)
  3: 0x0247 [0x6F] WAIT_FRAME_DELAY: Yield until WaitTime reaches zero
  4: 0x0248 [0x00] END_REQSTACK()
```

### Event 65535.5

#### Metadata

| Field        | Value    |
|--------------|----------|
| Entrypoint   | 0x0249   |
| Data Size    | 15 bytes |
| Instructions | 5        |

```
      00 01 02 03 04 05 06 07  08 09 0A 0B 0C 0D 0E 0F
      -- -- -- -- -- -- -- --  -- -- -- -- -- -- -- --
0240:                             32 1F 80 1F 00 20 80           2.... .
0250: 21 80 02 80 1F 01 6F 00                           !.....o.        
```

#### Opcodes

```
  0: 0x0249 [0x32] ExtData[1]->MainSpeed = 41* * 0.1
  1: 0x024C [0x1F] MOVE_ENTITY: EventEntity moves to X=-82.888*, Z=-4.774*, Y=0.000*
  2: 0x0254 [0x1F] MOVE_ENTITY: Update entity position (mode=1)
  3: 0x0256 [0x6F] WAIT_FRAME_DELAY: Yield until WaitTime reaches zero
  4: 0x0257 [0x00] END_REQSTACK()
```

### Event 65535.6

#### Metadata

| Field        | Value    |
|--------------|----------|
| Entrypoint   | 0x0258   |
| Data Size    | 30 bytes |
| Instructions | 8        |

```
      00 01 02 03 04 05 06 07  08 09 0A 0B 0C 0D 0E 0F
      -- -- -- -- -- -- -- --  -- -- -- -- -- -- -- --
0250:                          6E F8 FF FF 7F 22 80 99          n...."..
0260: F8 FF FF 7F 1C 0D 80 32  23 80 1F 00 24 80 25 80  .......2#...$.%.
0270: 02 80 1F 01 6F 00                                 ....o.          
```

#### Opcodes

```
  0: 0x0258 [0x6E] EventEntity uses emote 6*
  1: 0x025F [0x99] Wait for EventEntity animation to complete
  2: 0x0264 [0x1C] WAIT(120* ticks)
  3: 0x0267 [0x32] ExtData[1]->MainSpeed = 10* * 0.1
  4: 0x026A [0x1F] MOVE_ENTITY: EventEntity moves to X=-86.082*, Z=-1.442*, Y=0.000*
  5: 0x0272 [0x1F] MOVE_ENTITY: Update entity position (mode=1)
  6: 0x0274 [0x6F] WAIT_FRAME_DELAY: Yield until WaitTime reaches zero
  7: 0x0275 [0x00] END_REQSTACK()
```

### Event 65535.7

#### Metadata

| Field        | Value    |
|--------------|----------|
| Entrypoint   | 0x0276   |
| Data Size    | 16 bytes |
| Instructions | 2        |

```
      00 01 02 03 04 05 06 07  08 09 0A 0B 0C 0D 0E 0F
      -- -- -- -- -- -- -- --  -- -- -- -- -- -- -- --
0270:                   5B 26  80 86 60 0F 01 86 60 0F        [&..`...`.
0280: 01 66 75 6D 30 00                                 .fum0.          
```

#### Opcodes

```
  0: 0x0276 [0x5B] LOAD_EXT_SCHEDULER: Load scheduler "fum0" with entities [Squintrox Dryeyes (ID: 17784966/0x010F6086), Squintrox Dryeyes (ID: 17784966/0x010F6086)], work=216*
  1: 0x0285 [0x00] END_REQSTACK()
```

### Event 65535.8

#### Metadata

| Field        | Value    |
|--------------|----------|
| Entrypoint   | 0x0286   |
| Data Size    | 33 bytes |
| Instructions | 7        |

```
      00 01 02 03 04 05 06 07  08 09 0A 0B 0C 0D 0E 0F
      -- -- -- -- -- -- -- --  -- -- -- -- -- -- -- --
0280:                   32 27  80 1F 00 28 80 29 80 02        2'...(.)..
0290: 80 1F 01 6F 1C 18 80 66  15 80 42 60 0F 01 42 60  ...o...f..B`..B`
02A0: 0F 01 74 68 6B 31 00                              ..thk1.         
```

#### Opcodes

```
  0: 0x0286 [0x32] ExtData[1]->MainSpeed = 12* * 0.1
  1: 0x0289 [0x1F] MOVE_ENTITY: EventEntity moves to X=-100.794*, Z=-3.679*, Y=0.000*
  2: 0x0291 [0x1F] MOVE_ENTITY: Update entity position (mode=1)
  3: 0x0293 [0x6F] WAIT_FRAME_DELAY: Yield until WaitTime reaches zero
  4: 0x0294 [0x1C] WAIT(15* ticks)
  5: 0x0297 [0x66] LOAD_EXT_SCHEDULER_MAIN: Load scheduler "thk1" with entities [Naurmaire (ID: 17784898/0x010F6042), Naurmaire (ID: 17784898/0x010F6042)], work=30*
  6: 0x02A6 [0x00] END_REQSTACK()
```

### Event 65535.9

#### Metadata

| Field        | Value    |
|--------------|----------|
| Entrypoint   | 0x02A7   |
| Data Size    | 33 bytes |
| Instructions | 7        |

```
      00 01 02 03 04 05 06 07  08 09 0A 0B 0C 0D 0E 0F
      -- -- -- -- -- -- -- --  -- -- -- -- -- -- -- --
02A0:                      66  23 80 3F 60 0F 01 3F 60         f#.?`..?`
02B0: 0F 01 74 68 6B 32 1C 2A  80 32 2B 80 1F 00 2C 80  ..thk2.*.2+...,.
02C0: 2D 80 02 80 1F 01 6F 00                           -.....o.        
```

#### Opcodes

```
  0: 0x02A7 [0x66] LOAD_EXT_SCHEDULER_MAIN: Load scheduler "thk2" with entities [Marnie (ID: 17784895/0x010F603F), Marnie (ID: 17784895/0x010F603F)], work=10*
  1: 0x02B6 [0x1C] WAIT(60* ticks)
  2: 0x02B9 [0x32] ExtData[1]->MainSpeed = 40* * 0.1
  3: 0x02BC [0x1F] MOVE_ENTITY: EventEntity moves to X=-30.213*, Z=-1.502*, Y=0.000*
  4: 0x02C4 [0x1F] MOVE_ENTITY: Update entity position (mode=1)
  5: 0x02C6 [0x6F] WAIT_FRAME_DELAY: Yield until WaitTime reaches zero
  6: 0x02C7 [0x00] END_REQSTACK()
```

### Event 65535.10

#### Metadata

| Field        | Value    |
|--------------|----------|
| Entrypoint   | 0x02C8   |
| Data Size    | 45 bytes |
| Instructions | 12       |

```
      00 01 02 03 04 05 06 07  08 09 0A 0B 0C 0D 0E 0F
      -- -- -- -- -- -- -- --  -- -- -- -- -- -- -- --
02C0:                          32 08 80 1F 00 2E 80 2F          2....../
02D0: 80 02 80 1F 01 1C 15 80  39 30 80 1C 31 80 1F 00  ........90..1...
02E0: 32 80 33 80 02 80 1F 01  1C 15 80 39 34 80 1C 31  2.3........94..1
02F0: 80 01 C8 02 00                                    .....           
```

#### Opcodes

```
  0: 0x02C8 [0x32] ExtData[1]->MainSpeed = 13* * 0.1
  1: 0x02CB [0x1F] MOVE_ENTITY: EventEntity moves to X=-96.584*, Z=-8.519*, Y=0.000*
  2: 0x02D3 [0x1F] MOVE_ENTITY: Update entity position (mode=1)
  3: 0x02D5 [0x1C] WAIT(30* ticks)
  4: 0x02D8 [0x39] SET_ENTITY_DIRECTION(direction=19.7°*)
  5: 0x02DB [0x1C] WAIT(360* ticks)
  6: 0x02DE [0x1F] MOVE_ENTITY: EventEntity moves to X=-96.241*, Z=8.872*, Y=0.000*
  7: 0x02E6 [0x1F] MOVE_ENTITY: Update entity position (mode=1)
  8: 0x02E8 [0x1C] WAIT(30* ticks)
  9: 0x02EB [0x39] SET_ENTITY_DIRECTION(direction=2.8°*)
 10: 0x02EE [0x1C] WAIT(360* ticks)
 11: 0x02F1 [0x01] GOTO 0x02C8
```

#### Data or dead code:

```
# Dead code (unreachable instructions):
     0x02F4 [0x00] END_REQSTACK()
```

### Event 65535.11

#### Metadata

| Field        | Value     |
|--------------|-----------|
| Entrypoint   | 0x02F5    |
| Data Size    | 139 bytes |
| Instructions | 22        |

```
      00 01 02 03 04 05 06 07  08 09 0A 0B 0C 0D 0E 0F
      -- -- -- -- -- -- -- --  -- -- -- -- -- -- -- --
02F0:                5B 12 80  06 60 0F 01 06 60 0F 01       [...`...`..
0300: 68 61 69 30 1C 13 80 4A  04 60 0F 01 06 60 0F 01  hai0...J.`...`..
0310: 1C 14 80 79 00 05 60 0F  01 06 60 0F 01 1C 15 80  ...y..`...`.....
0320: 4B 06 60 0F 01 16 80 6F  76 06 60 0F 01 5B 12 80  K.`....ov.`..[..
0330: 06 60 0F 01 06 60 0F 01  61 77 77 30 1C 13 80 5B  .`...`..aww0...[
0340: 17 80 04 60 0F 01 04 60  0F 01 74 68 6B 31 1C 18  ...`...`..thk1..
0350: 80 5B 07 80 05 60 0F 01  05 60 0F 01 74 6C 6B 30  .[...`...`..tlk0
0360: 1C 07 80 27 10 04 60 0F  01 29 27 10 05 60 0F 01  ...'..`..)'..`..
0370: 28 32 19 80 1F 00 35 80  36 80 02 80 1F 01 6F 00  (2....5.6.....o.
```

#### Opcodes

```
  0: 0x02F5 [0x5B] LOAD_EXT_SCHEDULER: Load scheduler "hai0" with entities [Jaha Amariyo (ID: 17784838/0x010F6006), Jaha Amariyo (ID: 17784838/0x010F6006)], work=81*
  1: 0x0304 [0x1C] WAIT(45* ticks)
  2: 0x0307 [0x4A] Karl (ID: 17784836/0x010F6004) looks at Jaha Amariyo (ID: 17784838/0x010F6006)
  3: 0x0310 [0x1C] WAIT(5* ticks)
  4: 0x0313 [0x79] Buntz (ID: 17784837/0x010F6005) looks at Jaha Amariyo (ID: 17784838/0x010F6006) (Basic look)
  5: 0x031D [0x1C] WAIT(30* ticks)
  6: 0x0320 [0x4B] UPDATE_ENTITY_YAW(entity=Jaha Amariyo (ID: 17784838/0x010F6006), yaw=12.2°*)
  7: 0x0327 [0x6F] WAIT_FRAME_DELAY: Yield until WaitTime reaches zero
  8: 0x0328 [0x76] CHECK_ENTITY_RENDER_FLAGS: Wait until Jaha Amariyo (ID: 17784838/0x010F6006) Render.Flags0 and Render.Flags3 conditions are met
  9: 0x032D [0x5B] LOAD_EXT_SCHEDULER: Load scheduler "aww0" with entities [Jaha Amariyo (ID: 17784838/0x010F6006), Jaha Amariyo (ID: 17784838/0x010F6006)], work=81*
 10: 0x033C [0x1C] WAIT(45* ticks)
 11: 0x033F [0x5B] LOAD_EXT_SCHEDULER: Load scheduler "thk1" with entities [Karl (ID: 17784836/0x010F6004), Karl (ID: 17784836/0x010F6004)], work=75*
 12: 0x034E [0x1C] WAIT(15* ticks)
 13: 0x0351 [0x5B] LOAD_EXT_SCHEDULER: Load scheduler "tlk0" with entities [Buntz (ID: 17784837/0x010F6005), Buntz (ID: 17784837/0x010F6005)], work=90*
 14: 0x0360 [0x1C] WAIT(90* ticks)
 15: 0x0363 [0x27] REQ_SET(priority=0x10, entity_id=Karl (ID: 17784836/0x010F6004), tag_num=0x29)
 16: 0x036A [0x27] REQ_SET(priority=0x10, entity_id=Buntz (ID: 17784837/0x010F6005), tag_num=0x28)
 17: 0x0371 [0x32] ExtData[1]->MainSpeed = 37* * 0.1
 18: 0x0374 [0x1F] MOVE_ENTITY: EventEntity moves to X=-52.555*, Z=1.950*, Y=0.000*
 19: 0x037C [0x1F] MOVE_ENTITY: Update entity position (mode=1)
 20: 0x037E [0x6F] WAIT_FRAME_DELAY: Yield until WaitTime reaches zero
 21: 0x037F [0x00] END_REQSTACK()
```

### Event 65535.12

#### Metadata

| Field        | Value    |
|--------------|----------|
| Entrypoint   | 0x0380   |
| Data Size    | 15 bytes |
| Instructions | 5        |

```
      00 01 02 03 04 05 06 07  08 09 0A 0B 0C 0D 0E 0F
      -- -- -- -- -- -- -- --  -- -- -- -- -- -- -- --
0380: 32 1C 80 1F 00 37 80 38  80 02 80 1F 01 6F 00     2....7.8.....o. 
```

#### Opcodes

```
  0: 0x0380 [0x32] ExtData[1]->MainSpeed = 39* * 0.1
  1: 0x0383 [0x1F] MOVE_ENTITY: EventEntity moves to X=-49.108*, Z=2.357*, Y=0.000*
  2: 0x038B [0x1F] MOVE_ENTITY: Update entity position (mode=1)
  3: 0x038D [0x6F] WAIT_FRAME_DELAY: Yield until WaitTime reaches zero
  4: 0x038E [0x00] END_REQSTACK()
```

### Event 65535.13

#### Metadata

| Field        | Value    |
|--------------|----------|
| Entrypoint   | 0x038F   |
| Data Size    | 15 bytes |
| Instructions | 5        |

```
      00 01 02 03 04 05 06 07  08 09 0A 0B 0C 0D 0E 0F
      -- -- -- -- -- -- -- --  -- -- -- -- -- -- -- --
0380:                                               32                 2
0390: 1F 80 1F 00 39 80 3A 80  02 80 1F 01 6F 00        ....9.:.....o.  
```

#### Opcodes

```
  0: 0x038F [0x32] ExtData[1]->MainSpeed = 41* * 0.1
  1: 0x0392 [0x1F] MOVE_ENTITY: EventEntity moves to X=-51.734*, Z=2.879*, Y=0.000*
  2: 0x039A [0x1F] MOVE_ENTITY: Update entity position (mode=1)
  3: 0x039C [0x6F] WAIT_FRAME_DELAY: Yield until WaitTime reaches zero
  4: 0x039D [0x00] END_REQSTACK()
```

### Event 65535.14

#### Metadata

| Field        | Value    |
|--------------|----------|
| Entrypoint   | 0x039E   |
| Data Size    | 15 bytes |
| Instructions | 5        |

```
      00 01 02 03 04 05 06 07  08 09 0A 0B 0C 0D 0E 0F
      -- -- -- -- -- -- -- --  -- -- -- -- -- -- -- --
0390:                                            32 27                2'
03A0: 80 1F 00 3B 80 3C 80 02  80 1F 01 6F 00           ...;.<.....o.   
```

#### Opcodes

```
  0: 0x039E [0x32] ExtData[1]->MainSpeed = 12* * 0.1
  1: 0x03A1 [0x1F] MOVE_ENTITY: EventEntity moves to X=-50.670*, Z=2.474*, Y=0.000*
  2: 0x03A9 [0x1F] MOVE_ENTITY: Update entity position (mode=1)
  3: 0x03AB [0x6F] WAIT_FRAME_DELAY: Yield until WaitTime reaches zero
  4: 0x03AC [0x00] END_REQSTACK()
```

### Event 65535.15

#### Metadata

| Field        | Value    |
|--------------|----------|
| Entrypoint   | 0x03AD   |
| Data Size    | 80 bytes |
| Instructions | 13       |

```
      00 01 02 03 04 05 06 07  08 09 0A 0B 0C 0D 0E 0F
      -- -- -- -- -- -- -- --  -- -- -- -- -- -- -- --
03A0:                                         32 0E 80               2..
03B0: 1F 00 3D 80 3E 80 02 80  1F 01 79 00 45 60 0F 01  ..=.>.....y.E`..
03C0: 42 60 0F 01 66 15 80 42  60 0F 01 42 60 0F 01 74  B`..f..B`..B`..t
03D0: 68 6B 32 32 3F 80 4A 42  60 0F 01 45 60 0F 01 1F  hk22?.JB`..E`...
03E0: 00 40 80 41 80 02 80 1F  01 6F 1C 15 80 66 02 80  .@.A.....o...f..
03F0: 45 60 0F 01 45 60 0F 01  74 6C 6B 31 00           E`..E`..tlk1.   
```

#### Opcodes

```
  0: 0x03AD [0x32] ExtData[1]->MainSpeed = 11* * 0.1
  1: 0x03B0 [0x1F] MOVE_ENTITY: EventEntity moves to X=-92.526*, Z=-2.418*, Y=0.000*
  2: 0x03B8 [0x1F] MOVE_ENTITY: Update entity position (mode=1)
  3: 0x03BA [0x79] Falak (ID: 17784901/0x010F6045) looks at Naurmaire (ID: 17784898/0x010F6042) (Basic look)
  4: 0x03C4 [0x66] LOAD_EXT_SCHEDULER_MAIN: Load scheduler "thk2" with entities [Naurmaire (ID: 17784898/0x010F6042), Naurmaire (ID: 17784898/0x010F6042)], work=30*
  5: 0x03D3 [0x32] ExtData[1]->MainSpeed = 38* * 0.1
  6: 0x03D6 [0x4A] Naurmaire (ID: 17784898/0x010F6042) looks at Falak (ID: 17784901/0x010F6045)
  7: 0x03DF [0x1F] MOVE_ENTITY: EventEntity moves to X=-98.837*, Z=-2.640*, Y=0.000*
  8: 0x03E7 [0x1F] MOVE_ENTITY: Update entity position (mode=1)
  9: 0x03E9 [0x6F] WAIT_FRAME_DELAY: Yield until WaitTime reaches zero
 10: 0x03EA [0x1C] WAIT(30* ticks)
 11: 0x03ED [0x66] LOAD_EXT_SCHEDULER_MAIN: Load scheduler "tlk1" with entities [Falak (ID: 17784901/0x010F6045), Falak (ID: 17784901/0x010F6045)], work=0*
 12: 0x03FC [0x00] END_REQSTACK()
```

### Event 65535.16

#### Metadata

| Field        | Value    |
|--------------|----------|
| Entrypoint   | 0x03FD   |
| Data Size    | 15 bytes |
| Instructions | 5        |

```
      00 01 02 03 04 05 06 07  08 09 0A 0B 0C 0D 0E 0F
      -- -- -- -- -- -- -- --  -- -- -- -- -- -- -- --
03F0:                                         32 27 80               2'.
0400: 1F 00 42 80 43 80 02 80  1F 01 6F 00              ..B.C.....o.    
```

#### Opcodes

```
  0: 0x03FD [0x32] ExtData[1]->MainSpeed = 12* * 0.1
  1: 0x0400 [0x1F] MOVE_ENTITY: EventEntity moves to X=4.999*, Z=-0.799*, Y=0.000*
  2: 0x0408 [0x1F] MOVE_ENTITY: Update entity position (mode=1)
  3: 0x040A [0x6F] WAIT_FRAME_DELAY: Yield until WaitTime reaches zero
  4: 0x040B [0x00] END_REQSTACK()
```

### Event 65535.17

#### Metadata

| Field        | Value    |
|--------------|----------|
| Entrypoint   | 0x040C   |
| Data Size    | 15 bytes |
| Instructions | 5        |

```
      00 01 02 03 04 05 06 07  08 09 0A 0B 0C 0D 0E 0F
      -- -- -- -- -- -- -- --  -- -- -- -- -- -- -- --
0400:                                      32 08 80 1F              2...
0410: 00 44 80 45 80 02 80 1F  01 6F 00                 .D.E.....o.     
```

#### Opcodes

```
  0: 0x040C [0x32] ExtData[1]->MainSpeed = 13* * 0.1
  1: 0x040F [0x1F] MOVE_ENTITY: EventEntity moves to X=-76.908*, Z=-2.465*, Y=0.000*
  2: 0x0417 [0x1F] MOVE_ENTITY: Update entity position (mode=1)
  3: 0x0419 [0x6F] WAIT_FRAME_DELAY: Yield until WaitTime reaches zero
  4: 0x041A [0x00] END_REQSTACK()
```

### Event 65535.18

#### Metadata

| Field        | Value    |
|--------------|----------|
| Entrypoint   | 0x041B   |
| Data Size    | 15 bytes |
| Instructions | 5        |

```
      00 01 02 03 04 05 06 07  08 09 0A 0B 0C 0D 0E 0F
      -- -- -- -- -- -- -- --  -- -- -- -- -- -- -- --
0410:                                   32 0E 80 1F 00             2....
0420: 46 80 47 80 02 80 1F 01  6F 00                    F.G.....o.      
```

#### Opcodes

```
  0: 0x041B [0x32] ExtData[1]->MainSpeed = 11* * 0.1
  1: 0x041E [0x1F] MOVE_ENTITY: EventEntity moves to X=-50.956*, Z=-2.015*, Y=0.000*
  2: 0x0426 [0x1F] MOVE_ENTITY: Update entity position (mode=1)
  3: 0x0428 [0x6F] WAIT_FRAME_DELAY: Yield until WaitTime reaches zero
  4: 0x0429 [0x00] END_REQSTACK()
```

### Event 65535.19

#### Metadata

| Field        | Value    |
|--------------|----------|
| Entrypoint   | 0x042A   |
| Data Size    | 15 bytes |
| Instructions | 5        |

```
      00 01 02 03 04 05 06 07  08 09 0A 0B 0C 0D 0E 0F
      -- -- -- -- -- -- -- --  -- -- -- -- -- -- -- --
0420:                                32 0E 80 1F 00 48            2....H
0430: 80 49 80 02 80 1F 01 6F  00                       .I.....o.       
```

#### Opcodes

```
  0: 0x042A [0x32] ExtData[1]->MainSpeed = 11* * 0.1
  1: 0x042D [0x1F] MOVE_ENTITY: EventEntity moves to X=-106.865*, Z=2.201*, Y=0.000*
  2: 0x0435 [0x1F] MOVE_ENTITY: Update entity position (mode=1)
  3: 0x0437 [0x6F] WAIT_FRAME_DELAY: Yield until WaitTime reaches zero
  4: 0x0438 [0x00] END_REQSTACK()
```

### Event 65535.20

#### Metadata

| Field        | Value    |
|--------------|----------|
| Entrypoint   | 0x0439   |
| Data Size    | 15 bytes |
| Instructions | 5        |

```
      00 01 02 03 04 05 06 07  08 09 0A 0B 0C 0D 0E 0F
      -- -- -- -- -- -- -- --  -- -- -- -- -- -- -- --
0430:                             32 08 80 1F 00 4A 80           2....J.
0440: 4B 80 02 80 1F 01 6F 00                           K.....o.        
```

#### Opcodes

```
  0: 0x0439 [0x32] ExtData[1]->MainSpeed = 13* * 0.1
  1: 0x043C [0x1F] MOVE_ENTITY: EventEntity moves to X=-36.731*, Z=-2.282*, Y=0.000*
  2: 0x0444 [0x1F] MOVE_ENTITY: Update entity position (mode=1)
  3: 0x0446 [0x6F] WAIT_FRAME_DELAY: Yield until WaitTime reaches zero
  4: 0x0447 [0x00] END_REQSTACK()
```

### Event 65535.21

#### Metadata

| Field        | Value    |
|--------------|----------|
| Entrypoint   | 0x0448   |
| Data Size    | 53 bytes |
| Instructions | 10       |

```
      00 01 02 03 04 05 06 07  08 09 0A 0B 0C 0D 0E 0F
      -- -- -- -- -- -- -- --  -- -- -- -- -- -- -- --
0440:                          32 08 80 1F 00 4C 80 4D          2....L.M
0450: 80 02 80 1F 01 1F 00 4E  80 4F 80 02 80 1F 01 6F  .......N.O.....o
0460: 1C 18 80 79 00 49 60 0F  01 86 60 0F 01 5B 50 80  ...y.I`...`..[P.
0470: 86 60 0F 01 86 60 0F 01  74 6C 6B 30 00           .`...`..tlk0.   
```

#### Opcodes

```
  0: 0x0448 [0x32] ExtData[1]->MainSpeed = 13* * 0.1
  1: 0x044B [0x1F] MOVE_ENTITY: EventEntity moves to X=-58.047*, Z=9.433*, Y=0.000*
  2: 0x0453 [0x1F] MOVE_ENTITY: Update entity position (mode=1)
  3: 0x0455 [0x1F] MOVE_ENTITY: EventEntity moves to X=-56.466*, Z=10.018*, Y=0.000*
  4: 0x045D [0x1F] MOVE_ENTITY: Update entity position (mode=1)
  5: 0x045F [0x6F] WAIT_FRAME_DELAY: Yield until WaitTime reaches zero
  6: 0x0460 [0x1C] WAIT(15* ticks)
  7: 0x0463 [0x79] Shami (ID: 17784905/0x010F6049) looks at Squintrox Dryeyes (ID: 17784966/0x010F6086) (Basic look)
  8: 0x046D [0x5B] LOAD_EXT_SCHEDULER: Load scheduler "tlk0" with entities [Squintrox Dryeyes (ID: 17784966/0x010F6086), Squintrox Dryeyes (ID: 17784966/0x010F6086)], work=215*
  9: 0x047C [0x00] END_REQSTACK()
```

### Event 65535.22

#### Metadata

| Field        | Value    |
|--------------|----------|
| Entrypoint   | 0x047D   |
| Data Size    | 58 bytes |
| Instructions | 11       |

```
      00 01 02 03 04 05 06 07  08 09 0A 0B 0C 0D 0E 0F
      -- -- -- -- -- -- -- --  -- -- -- -- -- -- -- --
0470:                                         32 08 80               2..
0480: 79 00 3E 60 0F 01 28 60  0F 01 1F 00 51 80 52 80  y.>`..(`....Q.R.
0490: 02 80 1F 01 6F 1C 18 80  4A 3E 60 0F 01 28 60 0F  ....o...J>`..(`.
04A0: 01 6F 76 3E 60 0F 01 66  53 80 3E 60 0F 01 3E 60  .ov>`..fS.>`..>`
04B0: 0F 01 74 6C 6B 30 00                              ..tlk0.         
```

#### Opcodes

```
  0: 0x047D [0x32] ExtData[1]->MainSpeed = 13* * 0.1
  1: 0x0480 [0x79] Leffquen (ID: 17784894/0x010F603E) looks at Ramicharaux (ID: 17784872/0x010F6028) (Basic look)
  2: 0x048A [0x1F] MOVE_ENTITY: EventEntity moves to X=-52.055*, Z=2.177*, Y=0.000*
  3: 0x0492 [0x1F] MOVE_ENTITY: Update entity position (mode=1)
  4: 0x0494 [0x6F] WAIT_FRAME_DELAY: Yield until WaitTime reaches zero
  5: 0x0495 [0x1C] WAIT(15* ticks)
  6: 0x0498 [0x4A] Leffquen (ID: 17784894/0x010F603E) looks at Ramicharaux (ID: 17784872/0x010F6028)
  7: 0x04A1 [0x6F] WAIT_FRAME_DELAY: Yield until WaitTime reaches zero
  8: 0x04A2 [0x76] CHECK_ENTITY_RENDER_FLAGS: Wait until Leffquen (ID: 17784894/0x010F603E) Render.Flags0 and Render.Flags3 conditions are met
  9: 0x04A7 [0x66] LOAD_EXT_SCHEDULER_MAIN: Load scheduler "tlk0" with entities [Leffquen (ID: 17784894/0x010F603E), Leffquen (ID: 17784894/0x010F603E)], work=19*
 10: 0x04B6 [0x00] END_REQSTACK()
```

### Event 431

#### Metadata

| Field        | Value   |
|--------------|---------|
| Entrypoint   | 0x04B7  |
| Data Size    | 1 bytes |
| Instructions | 1       |

```
      00 01 02 03 04 05 06 07  08 09 0A 0B 0C 0D 0E 0F
      -- -- -- -- -- -- -- --  -- -- -- -- -- -- -- --
04B0:                      00                                  .        
```

#### Opcodes

```
  0: 0x04B7 [0x00] END_REQSTACK()
```

### Event 443

#### Metadata

| Field        | Value   |
|--------------|---------|
| Entrypoint   | 0x04B8  |
| Data Size    | 1 bytes |
| Instructions | 1       |

```
      00 01 02 03 04 05 06 07  08 09 0A 0B 0C 0D 0E 0F
      -- -- -- -- -- -- -- --  -- -- -- -- -- -- -- --
04B0:                          00                               .       
```

#### Opcodes

```
  0: 0x04B8 [0x00] END_REQSTACK()
```
