# 17784980 - Joachim

## Common Data

| Field            | Value                |
|------------------|----------------------|
| Zone             | Port Jeuno (ID: 246) |
| Block Size       | 756 bytes            |
| Total Events     | 34                   |
| References Count | 25                   |

## List of Events

| Event ID                   | Entrypoint   |   Size |   Instructions |
|----------------------------|--------------|--------|----------------|
| [65535](#event-65535)      | 0x0000       |      1 |              1 |
| [324](#event-324)          | 0x0001       |      1 |              1 |
| [325](#event-325)          | 0x0002       |      1 |              1 |
| [326](#event-326)          | 0x0003       |      1 |              1 |
| [327](#event-327)          | 0x0004       |      1 |              1 |
| [328](#event-328)          | 0x0005       |      1 |              1 |
| [331](#event-331)          | 0x0006       |      1 |              1 |
| [332](#event-332)          | 0x0007       |      1 |              1 |
| [333](#event-333)          | 0x0008       |      1 |              1 |
| [334](#event-334)          | 0x0009       |      1 |              1 |
| [335](#event-335)          | 0x000A       |      1 |              1 |
| [336](#event-336)          | 0x000B       |      1 |              1 |
| [337](#event-337)          | 0x000C       |      1 |              1 |
| [338](#event-338)          | 0x000D       |      1 |              1 |
| [340](#event-340)          | 0x000E       |      1 |              1 |
| [341](#event-341)          | 0x000F       |      1 |              1 |
| [342](#event-342)          | 0x0010       |      1 |              1 |
| [343](#event-343)          | 0x0011       |      1 |              1 |
| [344](#event-344)          | 0x0012       |      1 |              1 |
| [345](#event-345)          | 0x0013       |      1 |              1 |
| [65535.1](#event-655351)   | 0x0014       |     37 |              5 |
| [65535.2](#event-655352)   | 0x0039       |    185 |             37 |
| [65535.3](#event-655353)   | 0x00F2       |     25 |              3 |
| [65535.4](#event-655354)   | 0x010B       |     25 |              3 |
| [65535.5](#event-655355)   | 0x0124       |     20 |              6 |
| [65535.6](#event-655356)   | 0x0138       |     15 |              5 |
| [65535.7](#event-655357)   | 0x0147       |     15 |              5 |
| [65535.8](#event-655358)   | 0x0156       |     15 |              5 |
| [65535.9](#event-655359)   | 0x0165       |     15 |              5 |
| [65535.10](#event-6553510) | 0x0174       |     20 |              6 |
| [65535.11](#event-6553511) | 0x0188       |     24 |              4 |
| [65535.12](#event-6553512) | 0x01A0       |     24 |              4 |
| [65535.13](#event-6553513) | 0x01B8       |     42 |              6 |
| [65535.14](#event-6553514) | 0x01E2       |     20 |              6 |

## DAT References (imed_data)

|   Index | Hex Value   |   Dec Value |
|---------|-------------|-------------|
|       0 | 0x0005      |           5 |
|       1 | 0x0001      |           1 |
|       2 | 0x0002      |           2 |
|       3 | 0x000A      |          10 |
|       4 | 0x0009      |           9 |
|       5 | 0x0046      |          70 |
|       6 | 0x008C      |         140 |
|       7 | 0x00D2      |         210 |
|       8 | 0x000B      |          11 |
|       9 | 0xFFFEE4FF  |  4294894847 |
|      10 | 0xFFFFFD2D  |  4294966573 |
|      11 | 0x0000      |           0 |
|      12 | 0xFFFEC301  |  4294886145 |
|      13 | 0xFFFFFDC0  |  4294966720 |
|      14 | 0xFFFF38D2  |  4294916306 |
|      15 | 0xFFFFD575  |  4294956405 |
|      16 | 0xFFFF3194  |  4294914452 |
|      17 | 0xFFFFD906  |  4294957318 |
|      18 | 0xFFFF33A3  |  4294914979 |
|      19 | 0xFFFFD37D  |  4294955901 |
|      20 | 0xFFFF3075  |  4294914165 |
|      21 | 0xFFFFDAAC  |  4294957740 |
|      22 | 0x003C      |          60 |
|      23 | 0xFFFF3623  |  4294915619 |
|      24 | 0xFFFFE636  |  4294960694 |

## Events

### Event 65535

#### Metadata

| Field        | Value   |
|--------------|---------|
| Entrypoint   | 0x0000  |
| Data Size    | 1 bytes |
| Instructions | 1       |

```
      00 01 02 03 04 05 06 07  08 09 0A 0B 0C 0D 0E 0F
      -- -- -- -- -- -- -- --  -- -- -- -- -- -- -- --
0000: 00                                                .               
```

#### Opcodes

```
  0: 0x0000 [0x00] END_REQSTACK()
```

### Event 324

#### Metadata

| Field        | Value   |
|--------------|---------|
| Entrypoint   | 0x0001  |
| Data Size    | 1 bytes |
| Instructions | 1       |

```
      00 01 02 03 04 05 06 07  08 09 0A 0B 0C 0D 0E 0F
      -- -- -- -- -- -- -- --  -- -- -- -- -- -- -- --
0000:    00                                              .              
```

#### Opcodes

```
  0: 0x0001 [0x00] END_REQSTACK()
```

### Event 325

#### Metadata

| Field        | Value   |
|--------------|---------|
| Entrypoint   | 0x0002  |
| Data Size    | 1 bytes |
| Instructions | 1       |

```
      00 01 02 03 04 05 06 07  08 09 0A 0B 0C 0D 0E 0F
      -- -- -- -- -- -- -- --  -- -- -- -- -- -- -- --
0000:       00                                            .             
```

#### Opcodes

```
  0: 0x0002 [0x00] END_REQSTACK()
```

### Event 326

#### Metadata

| Field        | Value   |
|--------------|---------|
| Entrypoint   | 0x0003  |
| Data Size    | 1 bytes |
| Instructions | 1       |

```
      00 01 02 03 04 05 06 07  08 09 0A 0B 0C 0D 0E 0F
      -- -- -- -- -- -- -- --  -- -- -- -- -- -- -- --
0000:          00                                          .            
```

#### Opcodes

```
  0: 0x0003 [0x00] END_REQSTACK()
```

### Event 327

#### Metadata

| Field        | Value   |
|--------------|---------|
| Entrypoint   | 0x0004  |
| Data Size    | 1 bytes |
| Instructions | 1       |

```
      00 01 02 03 04 05 06 07  08 09 0A 0B 0C 0D 0E 0F
      -- -- -- -- -- -- -- --  -- -- -- -- -- -- -- --
0000:             00                                        .           
```

#### Opcodes

```
  0: 0x0004 [0x00] END_REQSTACK()
```

### Event 328

#### Metadata

| Field        | Value   |
|--------------|---------|
| Entrypoint   | 0x0005  |
| Data Size    | 1 bytes |
| Instructions | 1       |

```
      00 01 02 03 04 05 06 07  08 09 0A 0B 0C 0D 0E 0F
      -- -- -- -- -- -- -- --  -- -- -- -- -- -- -- --
0000:                00                                      .          
```

#### Opcodes

```
  0: 0x0005 [0x00] END_REQSTACK()
```

### Event 331

#### Metadata

| Field        | Value   |
|--------------|---------|
| Entrypoint   | 0x0006  |
| Data Size    | 1 bytes |
| Instructions | 1       |

```
      00 01 02 03 04 05 06 07  08 09 0A 0B 0C 0D 0E 0F
      -- -- -- -- -- -- -- --  -- -- -- -- -- -- -- --
0000:                   00                                    .         
```

#### Opcodes

```
  0: 0x0006 [0x00] END_REQSTACK()
```

### Event 332

#### Metadata

| Field        | Value   |
|--------------|---------|
| Entrypoint   | 0x0007  |
| Data Size    | 1 bytes |
| Instructions | 1       |

```
      00 01 02 03 04 05 06 07  08 09 0A 0B 0C 0D 0E 0F
      -- -- -- -- -- -- -- --  -- -- -- -- -- -- -- --
0000:                      00                                  .        
```

#### Opcodes

```
  0: 0x0007 [0x00] END_REQSTACK()
```

### Event 333

#### Metadata

| Field        | Value   |
|--------------|---------|
| Entrypoint   | 0x0008  |
| Data Size    | 1 bytes |
| Instructions | 1       |

```
      00 01 02 03 04 05 06 07  08 09 0A 0B 0C 0D 0E 0F
      -- -- -- -- -- -- -- --  -- -- -- -- -- -- -- --
0000:                          00                               .       
```

#### Opcodes

```
  0: 0x0008 [0x00] END_REQSTACK()
```

### Event 334

#### Metadata

| Field        | Value   |
|--------------|---------|
| Entrypoint   | 0x0009  |
| Data Size    | 1 bytes |
| Instructions | 1       |

```
      00 01 02 03 04 05 06 07  08 09 0A 0B 0C 0D 0E 0F
      -- -- -- -- -- -- -- --  -- -- -- -- -- -- -- --
0000:                             00                             .      
```

#### Opcodes

```
  0: 0x0009 [0x00] END_REQSTACK()
```

### Event 335

#### Metadata

| Field        | Value   |
|--------------|---------|
| Entrypoint   | 0x000A  |
| Data Size    | 1 bytes |
| Instructions | 1       |

```
      00 01 02 03 04 05 06 07  08 09 0A 0B 0C 0D 0E 0F
      -- -- -- -- -- -- -- --  -- -- -- -- -- -- -- --
0000:                                00                           .     
```

#### Opcodes

```
  0: 0x000A [0x00] END_REQSTACK()
```

### Event 336

#### Metadata

| Field        | Value   |
|--------------|---------|
| Entrypoint   | 0x000B  |
| Data Size    | 1 bytes |
| Instructions | 1       |

```
      00 01 02 03 04 05 06 07  08 09 0A 0B 0C 0D 0E 0F
      -- -- -- -- -- -- -- --  -- -- -- -- -- -- -- --
0000:                                   00                         .    
```

#### Opcodes

```
  0: 0x000B [0x00] END_REQSTACK()
```

### Event 337

#### Metadata

| Field        | Value   |
|--------------|---------|
| Entrypoint   | 0x000C  |
| Data Size    | 1 bytes |
| Instructions | 1       |

```
      00 01 02 03 04 05 06 07  08 09 0A 0B 0C 0D 0E 0F
      -- -- -- -- -- -- -- --  -- -- -- -- -- -- -- --
0000:                                      00                       .   
```

#### Opcodes

```
  0: 0x000C [0x00] END_REQSTACK()
```

### Event 338

#### Metadata

| Field        | Value   |
|--------------|---------|
| Entrypoint   | 0x000D  |
| Data Size    | 1 bytes |
| Instructions | 1       |

```
      00 01 02 03 04 05 06 07  08 09 0A 0B 0C 0D 0E 0F
      -- -- -- -- -- -- -- --  -- -- -- -- -- -- -- --
0000:                                         00                     .  
```

#### Opcodes

```
  0: 0x000D [0x00] END_REQSTACK()
```

### Event 340

#### Metadata

| Field        | Value   |
|--------------|---------|
| Entrypoint   | 0x000E  |
| Data Size    | 1 bytes |
| Instructions | 1       |

```
      00 01 02 03 04 05 06 07  08 09 0A 0B 0C 0D 0E 0F
      -- -- -- -- -- -- -- --  -- -- -- -- -- -- -- --
0000:                                            00                   . 
```

#### Opcodes

```
  0: 0x000E [0x00] END_REQSTACK()
```

### Event 341

#### Metadata

| Field        | Value   |
|--------------|---------|
| Entrypoint   | 0x000F  |
| Data Size    | 1 bytes |
| Instructions | 1       |

```
      00 01 02 03 04 05 06 07  08 09 0A 0B 0C 0D 0E 0F
      -- -- -- -- -- -- -- --  -- -- -- -- -- -- -- --
0000:                                               00                 .
```

#### Opcodes

```
  0: 0x000F [0x00] END_REQSTACK()
```

### Event 342

#### Metadata

| Field        | Value   |
|--------------|---------|
| Entrypoint   | 0x0010  |
| Data Size    | 1 bytes |
| Instructions | 1       |

```
      00 01 02 03 04 05 06 07  08 09 0A 0B 0C 0D 0E 0F
      -- -- -- -- -- -- -- --  -- -- -- -- -- -- -- --
0010: 00                                                .               
```

#### Opcodes

```
  0: 0x0010 [0x00] END_REQSTACK()
```

### Event 343

#### Metadata

| Field        | Value   |
|--------------|---------|
| Entrypoint   | 0x0011  |
| Data Size    | 1 bytes |
| Instructions | 1       |

```
      00 01 02 03 04 05 06 07  08 09 0A 0B 0C 0D 0E 0F
      -- -- -- -- -- -- -- --  -- -- -- -- -- -- -- --
0010:    00                                              .              
```

#### Opcodes

```
  0: 0x0011 [0x00] END_REQSTACK()
```

### Event 344

#### Metadata

| Field        | Value   |
|--------------|---------|
| Entrypoint   | 0x0012  |
| Data Size    | 1 bytes |
| Instructions | 1       |

```
      00 01 02 03 04 05 06 07  08 09 0A 0B 0C 0D 0E 0F
      -- -- -- -- -- -- -- --  -- -- -- -- -- -- -- --
0010:       00                                            .             
```

#### Opcodes

```
  0: 0x0012 [0x00] END_REQSTACK()
```

### Event 345

#### Metadata

| Field        | Value   |
|--------------|---------|
| Entrypoint   | 0x0013  |
| Data Size    | 1 bytes |
| Instructions | 1       |

```
      00 01 02 03 04 05 06 07  08 09 0A 0B 0C 0D 0E 0F
      -- -- -- -- -- -- -- --  -- -- -- -- -- -- -- --
0010:          00                                          .            
```

#### Opcodes

```
  0: 0x0013 [0x00] END_REQSTACK()
```

### Event 65535.1

#### Metadata

| Field        | Value    |
|--------------|----------|
| Entrypoint   | 0x0014   |
| Data Size    | 37 bytes |
| Instructions | 5        |

```
      00 01 02 03 04 05 06 07  08 09 0A 0B 0C 0D 0E 0F
      -- -- -- -- -- -- -- --  -- -- -- -- -- -- -- --
0010:             03 00 00 07  7F 1A 5E 00 66 01 00 F8      ......^.f...
0020: FF FF 7F F8 FF FF 7F 73  68 61 30 53 F8 FF FF 7F  .......sha0S....
0030: F8 FF FF 7F 73 68 61 30  00                       ....sha0.       
```

#### Opcodes

```
  0: 0x0014 [0x03] ExtData[1]->WorkLocal[0] = Entity->Race
  1: 0x0019 [0x1A] CALL_SUBROUTINE(address=0x005E)
  2: 0x001C [0x66] LOAD_EXT_SCHEDULER_MAIN: Load scheduler "sha0" with entities [EventEntity, EventEntity], work=ExtData[1]->WorkLocal[1]
  3: 0x002B [0x53] WAIT_SCHEDULER_TASK: Wait for scheduler "sha0" with entities [EventEntity, EventEntity]
  4: 0x0038 [0x00] END_REQSTACK()
```

### Event 65535.2

#### Metadata

| Field        | Value     |
|--------------|-----------|
| Entrypoint   | 0x0039    |
| Data Size    | 185 bytes |
| Instructions | 13        |

```
      00 01 02 03 04 05 06 07  08 09 0A 0B 0C 0D 0E 0F
      -- -- -- -- -- -- -- --  -- -- -- -- -- -- -- --
0030:                             03 00 00 07 7F 1A 5E           ......^
0040: 00 66 01 00 F8 FF FF 7F  F8 FF FF 7F 73 68 61 31  .f..........sha1
0050: 53 F8 FF FF 7F F8 FF FF  7F 73 68 61 31 00 03 01  S........sha1...
0060: 00 00 00 02 01 00 00 80  05 73 00 08 01 00 01 80  .........s......
0070: 01 78 00 08 01 00 02 80  14 01 00 03 80 07 01 00  .x..............
0080: 04 80 1B 03 01 00 00 00  02 01 00 00 80 05 98 00  ................
0090: 08 01 00 01 80 01 9D 00  08 01 00 02 80 14 01 00  ................
00A0: 03 80 07 01 00 05 80 1B  03 01 00 00 00 02 01 00  ................
00B0: 00 80 05 BD 00 08 01 00  01 80 01 C2 00 08 01 00  ................
00C0: 02 80 14 01 00 03 80 07  01 00 06 80 1B 03 01 00  ................
00D0: 00 00 02 01 00 00 80 05  E2 00 08 01 00 01 80 01  ................
00E0: E7 00 08 01 00 02 80 14  01 00 03 80 07 01 00 07  ................
00F0: 80 1B                                             ..              
```

#### Opcodes

```
  0: 0x0039 [0x03] ExtData[1]->WorkLocal[0] = Entity->Race
  1: 0x003E [0x1A] CALL_SUBROUTINE(address=0x005E)
  2: 0x0041 [0x66] LOAD_EXT_SCHEDULER_MAIN: Load scheduler "sha1" with entities [EventEntity, EventEntity], work=ExtData[1]->WorkLocal[1]
  3: 0x0050 [0x53] WAIT_SCHEDULER_TASK: Wait for scheduler "sha1" with entities [EventEntity, EventEntity]
  4: 0x005D [0x00] END_REQSTACK()

SUBROUTINE_005E:
  5: 0x005E [0x03] ExtData[1]->WorkLocal[1] = ExtData[1]->WorkLocal[0]
  6: 0x0063 [0x02] IF !(ExtData[1]->WorkLocal[1] > 5*) GOTO 0x0073
  7: 0x006B [0x08] ExtData[1]->WorkLocal[1] -= 1*
  8: 0x0070 [0x01] GOTO 0x0078
  9: 0x0073 [0x08] ExtData[1]->WorkLocal[1] -= 2*

SUBROUTINE_0078:
 10: 0x0078 [0x14] ExtData[1]->WorkLocal[1] *= 10*
 11: 0x007D [0x07] ExtData[1]->WorkLocal[1] += 9*
 12: 0x0082 [0x1B] RETURN
```

#### Data or dead code:

```
# Dead code (unreachable instructions):
     0x0083 [0x03] ExtData[1]->WorkLocal[1] = ExtData[1]->WorkLocal[0]
     0x0088 [0x02] IF !(ExtData[1]->WorkLocal[1] > 5*) GOTO 0x0098
     0x0090 [0x08] ExtData[1]->WorkLocal[1] -= 1*
     0x0095 [0x01] GOTO 0x009D
     0x0098 [0x08] ExtData[1]->WorkLocal[1] -= 2*
     0x009D [0x14] ExtData[1]->WorkLocal[1] *= 10*
     0x00A2 [0x07] ExtData[1]->WorkLocal[1] += 70*
     0x00A7 [0x1B] RETURN
     0x00A8 [0x03] ExtData[1]->WorkLocal[1] = ExtData[1]->WorkLocal[0]
     0x00AD [0x02] IF !(ExtData[1]->WorkLocal[1] > 5*) GOTO 0x00BD
     0x00B5 [0x08] ExtData[1]->WorkLocal[1] -= 1*
     0x00BA [0x01] GOTO 0x00C2
     0x00BD [0x08] ExtData[1]->WorkLocal[1] -= 2*
     0x00C2 [0x14] ExtData[1]->WorkLocal[1] *= 10*
     0x00C7 [0x07] ExtData[1]->WorkLocal[1] += 140*
     0x00CC [0x1B] RETURN
     0x00CD [0x03] ExtData[1]->WorkLocal[1] = ExtData[1]->WorkLocal[0]
     0x00D2 [0x02] IF !(ExtData[1]->WorkLocal[1] > 5*) GOTO 0x00E2
     0x00DA [0x08] ExtData[1]->WorkLocal[1] -= 1*
     0x00DF [0x01] GOTO 0x00E7
     0x00E2 [0x08] ExtData[1]->WorkLocal[1] -= 2*
     0x00E7 [0x14] ExtData[1]->WorkLocal[1] *= 10*
     0x00EC [0x07] ExtData[1]->WorkLocal[1] += 210*
     0x00F1 [0x1B] RETURN
```

### Event 65535.3

#### Metadata

| Field        | Value    |
|--------------|----------|
| Entrypoint   | 0x00F2   |
| Data Size    | 25 bytes |
| Instructions | 3        |

```
      00 01 02 03 04 05 06 07  08 09 0A 0B 0C 0D 0E 0F
      -- -- -- -- -- -- -- --  -- -- -- -- -- -- -- --
00F0:       B4 00 02 00 3F 3F  3F 00 00 00 00 00 00 00    ....???.......
0100: 00 00 00 00 00 00 B5 00  02 00 00                 ...........     
```

#### Opcodes

```
  0: 0x00F2 [0xB4] UI_WINDOW_STRING_HANDLER(case=0x00 - Copy string from opcode, work_offset=ExtData[1]->WorkLocal[2], string="???")
  1: 0x0106 [0xB5] SET_EVENT_ENTITY_NAME: Change EventEntity name to ExtData[1]->WorkLocal[2]
  2: 0x010A [0x00] END_REQSTACK()
```

### Event 65535.4

#### Metadata

| Field        | Value    |
|--------------|----------|
| Entrypoint   | 0x010B   |
| Data Size    | 25 bytes |
| Instructions | 3        |

```
      00 01 02 03 04 05 06 07  08 09 0A 0B 0C 0D 0E 0F
      -- -- -- -- -- -- -- --  -- -- -- -- -- -- -- --
0100:                                   B4 00 02 00 4A             ....J
0110: 6F 61 63 68 69 6D 00 00  00 00 00 00 00 00 00 B5  oachim..........
0120: 00 02 00 00                                       ....            
```

#### Opcodes

```
  0: 0x010B [0xB4] UI_WINDOW_STRING_HANDLER(case=0x00 - Copy string from opcode, work_offset=ExtData[1]->WorkLocal[2], string="Joachim")
  1: 0x011F [0xB5] SET_EVENT_ENTITY_NAME: Change EventEntity name to ExtData[1]->WorkLocal[2]
  2: 0x0123 [0x00] END_REQSTACK()
```

### Event 65535.5

#### Metadata

| Field        | Value    |
|--------------|----------|
| Entrypoint   | 0x0124   |
| Data Size    | 20 bytes |
| Instructions | 6        |

```
      00 01 02 03 04 05 06 07  08 09 0A 0B 0C 0D 0E 0F
      -- -- -- -- -- -- -- --  -- -- -- -- -- -- -- --
0120:             32 08 80 1F  00 09 80 0A 80 0B 80 1F      2...........
0130: 01 6F 1E F0 FF FF 7F 00                           .o......        
```

#### Opcodes

```
  0: 0x0124 [0x32] ExtData[1]->MainSpeed = 11* * 0.1
  1: 0x0127 [0x1F] MOVE_ENTITY: EventEntity moves to X=-72.449*, Z=-0.723*, Y=0.000*
  2: 0x012F [0x1F] MOVE_ENTITY: Update entity position (mode=1)
  3: 0x0131 [0x6F] WAIT_FRAME_DELAY: Yield until WaitTime reaches zero
  4: 0x0132 [0x1E] EventEntity looks at LocalPlayer and starts talking
  5: 0x0137 [0x00] END_REQSTACK()
```

### Event 65535.6

#### Metadata

| Field        | Value    |
|--------------|----------|
| Entrypoint   | 0x0138   |
| Data Size    | 15 bytes |
| Instructions | 5        |

```
      00 01 02 03 04 05 06 07  08 09 0A 0B 0C 0D 0E 0F
      -- -- -- -- -- -- -- --  -- -- -- -- -- -- -- --
0130:                          32 08 80 1F 00 0C 80 0D          2.......
0140: 80 0B 80 1F 01 6F 00                              .....o.         
```

#### Opcodes

```
  0: 0x0138 [0x32] ExtData[1]->MainSpeed = 11* * 0.1
  1: 0x013B [0x1F] MOVE_ENTITY: EventEntity moves to X=-81.151*, Z=-0.576*, Y=0.000*
  2: 0x0143 [0x1F] MOVE_ENTITY: Update entity position (mode=1)
  3: 0x0145 [0x6F] WAIT_FRAME_DELAY: Yield until WaitTime reaches zero
  4: 0x0146 [0x00] END_REQSTACK()
```

### Event 65535.7

#### Metadata

| Field        | Value    |
|--------------|----------|
| Entrypoint   | 0x0147   |
| Data Size    | 15 bytes |
| Instructions | 5        |

```
      00 01 02 03 04 05 06 07  08 09 0A 0B 0C 0D 0E 0F
      -- -- -- -- -- -- -- --  -- -- -- -- -- -- -- --
0140:                      32  08 80 1F 00 0E 80 0F 80         2........
0150: 0B 80 1F 01 6F 00                                 ....o.          
```

#### Opcodes

```
  0: 0x0147 [0x32] ExtData[1]->MainSpeed = 11* * 0.1
  1: 0x014A [0x1F] MOVE_ENTITY: EventEntity moves to X=-50.990*, Z=-10.891*, Y=0.000*
  2: 0x0152 [0x1F] MOVE_ENTITY: Update entity position (mode=1)
  3: 0x0154 [0x6F] WAIT_FRAME_DELAY: Yield until WaitTime reaches zero
  4: 0x0155 [0x00] END_REQSTACK()
```

### Event 65535.8

#### Metadata

| Field        | Value    |
|--------------|----------|
| Entrypoint   | 0x0156   |
| Data Size    | 15 bytes |
| Instructions | 5        |

```
      00 01 02 03 04 05 06 07  08 09 0A 0B 0C 0D 0E 0F
      -- -- -- -- -- -- -- --  -- -- -- -- -- -- -- --
0150:                   32 08  80 1F 00 10 80 11 80 0B        2.........
0160: 80 1F 01 6F 00                                    ...o.           
```

#### Opcodes

```
  0: 0x0156 [0x32] ExtData[1]->MainSpeed = 11* * 0.1
  1: 0x0159 [0x1F] MOVE_ENTITY: EventEntity moves to X=-52.844*, Z=-9.978*, Y=0.000*
  2: 0x0161 [0x1F] MOVE_ENTITY: Update entity position (mode=1)
  3: 0x0163 [0x6F] WAIT_FRAME_DELAY: Yield until WaitTime reaches zero
  4: 0x0164 [0x00] END_REQSTACK()
```

### Event 65535.9

#### Metadata

| Field        | Value    |
|--------------|----------|
| Entrypoint   | 0x0165   |
| Data Size    | 15 bytes |
| Instructions | 5        |

```
      00 01 02 03 04 05 06 07  08 09 0A 0B 0C 0D 0E 0F
      -- -- -- -- -- -- -- --  -- -- -- -- -- -- -- --
0160:                32 04 80  1F 00 12 80 13 80 0B 80       2..........
0170: 1F 01 6F 00                                       ..o.            
```

#### Opcodes

```
  0: 0x0165 [0x32] ExtData[1]->MainSpeed = 9* * 0.1
  1: 0x0168 [0x1F] MOVE_ENTITY: EventEntity moves to X=-52.317*, Z=-11.395*, Y=0.000*
  2: 0x0170 [0x1F] MOVE_ENTITY: Update entity position (mode=1)
  3: 0x0172 [0x6F] WAIT_FRAME_DELAY: Yield until WaitTime reaches zero
  4: 0x0173 [0x00] END_REQSTACK()
```

### Event 65535.10

#### Metadata

| Field        | Value    |
|--------------|----------|
| Entrypoint   | 0x0174   |
| Data Size    | 20 bytes |
| Instructions | 6        |

```
      00 01 02 03 04 05 06 07  08 09 0A 0B 0C 0D 0E 0F
      -- -- -- -- -- -- -- --  -- -- -- -- -- -- -- --
0170:             32 03 80 1F  00 14 80 15 80 0B 80 1F      2...........
0180: 01 6F 1E F0 FF FF 7F 00                           .o......        
```

#### Opcodes

```
  0: 0x0174 [0x32] ExtData[1]->MainSpeed = 10* * 0.1
  1: 0x0177 [0x1F] MOVE_ENTITY: EventEntity moves to X=-53.131*, Z=-9.556*, Y=0.000*
  2: 0x017F [0x1F] MOVE_ENTITY: Update entity position (mode=1)
  3: 0x0181 [0x6F] WAIT_FRAME_DELAY: Yield until WaitTime reaches zero
  4: 0x0182 [0x1E] EventEntity looks at LocalPlayer and starts talking
  5: 0x0187 [0x00] END_REQSTACK()
```

### Event 65535.11

#### Metadata

| Field        | Value    |
|--------------|----------|
| Entrypoint   | 0x0188   |
| Data Size    | 24 bytes |
| Instructions | 4        |

```
      00 01 02 03 04 05 06 07  08 09 0A 0B 0C 0D 0E 0F
      -- -- -- -- -- -- -- --  -- -- -- -- -- -- -- --
0180:                          03 00 00 07 7F 1A 5E 00          ......^.
0190: 66 01 00 F8 FF FF 7F F8  FF FF 7F 74 6C 6B 30 00  f..........tlk0.
```

#### Opcodes

```
  0: 0x0188 [0x03] ExtData[1]->WorkLocal[0] = Entity->Race
  1: 0x018D [0x1A] CALL_SUBROUTINE(address=0x005E)
  2: 0x0190 [0x66] LOAD_EXT_SCHEDULER_MAIN: Load scheduler "tlk0" with entities [EventEntity, EventEntity], work=ExtData[1]->WorkLocal[1]
  3: 0x019F [0x00] END_REQSTACK()
```

### Event 65535.12

#### Metadata

| Field        | Value    |
|--------------|----------|
| Entrypoint   | 0x01A0   |
| Data Size    | 24 bytes |
| Instructions | 4        |

```
      00 01 02 03 04 05 06 07  08 09 0A 0B 0C 0D 0E 0F
      -- -- -- -- -- -- -- --  -- -- -- -- -- -- -- --
01A0: 03 00 00 07 7F 1A 5E 00  66 01 00 F8 FF FF 7F F8  ......^.f.......
01B0: FF FF 7F 74 6C 6B 31 00                           ...tlk1.        
```

#### Opcodes

```
  0: 0x01A0 [0x03] ExtData[1]->WorkLocal[0] = Entity->Race
  1: 0x01A5 [0x1A] CALL_SUBROUTINE(address=0x005E)
  2: 0x01A8 [0x66] LOAD_EXT_SCHEDULER_MAIN: Load scheduler "tlk1" with entities [EventEntity, EventEntity], work=ExtData[1]->WorkLocal[1]
  3: 0x01B7 [0x00] END_REQSTACK()
```

### Event 65535.13

#### Metadata

| Field        | Value    |
|--------------|----------|
| Entrypoint   | 0x01B8   |
| Data Size    | 42 bytes |
| Instructions | 6        |

```
      00 01 02 03 04 05 06 07  08 09 0A 0B 0C 0D 0E 0F
      -- -- -- -- -- -- -- --  -- -- -- -- -- -- -- --
01B0:                          03 00 00 07 7F 1A 5E 00          ......^.
01C0: 66 01 00 F8 FF FF 7F F8  FF FF 7F 74 6C 6B 30 1C  f..........tlk0.
01D0: 16 80 66 01 00 F8 FF FF  7F F8 FF FF 7F 74 6C 6B  ..f..........tlk
01E0: 31 00                                             1.              
```

#### Opcodes

```
  0: 0x01B8 [0x03] ExtData[1]->WorkLocal[0] = Entity->Race
  1: 0x01BD [0x1A] CALL_SUBROUTINE(address=0x005E)
  2: 0x01C0 [0x66] LOAD_EXT_SCHEDULER_MAIN: Load scheduler "tlk0" with entities [EventEntity, EventEntity], work=ExtData[1]->WorkLocal[1]
  3: 0x01CF [0x1C] WAIT(60* ticks)
  4: 0x01D2 [0x66] LOAD_EXT_SCHEDULER_MAIN: Load scheduler "tlk1" with entities [EventEntity, EventEntity], work=ExtData[1]->WorkLocal[1]
  5: 0x01E1 [0x00] END_REQSTACK()
```

### Event 65535.14

#### Metadata

| Field        | Value    |
|--------------|----------|
| Entrypoint   | 0x01E2   |
| Data Size    | 20 bytes |
| Instructions | 6        |

```
      00 01 02 03 04 05 06 07  08 09 0A 0B 0C 0D 0E 0F
      -- -- -- -- -- -- -- --  -- -- -- -- -- -- -- --
01E0:       32 03 80 1F 00 17  80 18 80 0B 80 1F 01 6F    2............o
01F0: 1E F0 FF FF 7F 00                                 ......          
```

#### Opcodes

```
  0: 0x01E2 [0x32] ExtData[1]->MainSpeed = 10* * 0.1
  1: 0x01E5 [0x1F] MOVE_ENTITY: EventEntity moves to X=-51.677*, Z=-6.602*, Y=0.000*
  2: 0x01ED [0x1F] MOVE_ENTITY: Update entity position (mode=1)
  3: 0x01EF [0x6F] WAIT_FRAME_DELAY: Yield until WaitTime reaches zero
  4: 0x01F0 [0x1E] EventEntity looks at LocalPlayer and starts talking
  5: 0x01F5 [0x00] END_REQSTACK()
```
