# 17784838 - Jaha Amariyo

## Common Data

| Field            | Value                |
|------------------|----------------------|
| Zone             | Port Jeuno (ID: 246) |
| Block Size       | 1932 bytes           |
| Total Events     | 52                   |
| References Count | 86                   |

## List of Events

| Event ID                   | Entrypoint   |   Size |   Instructions |
|----------------------------|--------------|--------|----------------|
| [65535](#event-65535)      | 0x0000       |      1 |              1 |
| [57](#event-57)            | 0x0001       |     29 |              7 |
| [0](#event-0)              | 0x001E       |      1 |              1 |
| [65535.1](#event-655351)   | 0x001F       |     19 |              3 |
| [65535.2](#event-655352)   | 0x0032       |     19 |              3 |
| [65535.3](#event-655353)   | 0x0045       |     29 |              3 |
| [65535.4](#event-655354)   | 0x0062       |      9 |              3 |
| [316](#event-316)          | 0x006B       |      1 |              1 |
| [324](#event-324)          | 0x006C       |     18 |              4 |
| [325](#event-325)          | 0x007E       |     18 |              4 |
| [327](#event-327)          | 0x0090       |     18 |              4 |
| [331](#event-331)          | 0x00A2       |     18 |              4 |
| [332](#event-332)          | 0x00B4       |     18 |              4 |
| [333](#event-333)          | 0x00C6       |     18 |              4 |
| [334](#event-334)          | 0x00D8       |     18 |              4 |
| [335](#event-335)          | 0x00EA       |     18 |              4 |
| [336](#event-336)          | 0x00FC       |     18 |              4 |
| [337](#event-337)          | 0x010E       |     18 |              4 |
| [338](#event-338)          | 0x0120       |     18 |              4 |
| [340](#event-340)          | 0x0132       |     18 |              4 |
| [341](#event-341)          | 0x0144       |     18 |              4 |
| [342](#event-342)          | 0x0156       |     18 |              4 |
| [343](#event-343)          | 0x0168       |     18 |              4 |
| [344](#event-344)          | 0x017A       |     18 |              4 |
| [345](#event-345)          | 0x018C       |     18 |              4 |
| [65535.5](#event-655355)   | 0x019E       |     40 |              8 |
| [65535.6](#event-655356)   | 0x01C6       |     40 |              8 |
| [65535.7](#event-655357)   | 0x01EE       |    139 |             22 |
| [65535.8](#event-655358)   | 0x0279       |     15 |              5 |
| [65535.9](#event-655359)   | 0x0288       |     15 |              5 |
| [65535.10](#event-6553510) | 0x0297       |     30 |              8 |
| [65535.11](#event-6553511) | 0x02B5       |     16 |              2 |
| [65535.12](#event-6553512) | 0x02C5       |     33 |              7 |
| [65535.13](#event-6553513) | 0x02E6       |     33 |              7 |
| [65535.14](#event-6553514) | 0x0307       |     45 |             13 |
| [65535.15](#event-6553515) | 0x0334       |    139 |             22 |
| [65535.16](#event-6553516) | 0x03BF       |     15 |              5 |
| [65535.17](#event-6553517) | 0x03CE       |     15 |              5 |
| [65535.18](#event-6553518) | 0x03DD       |     15 |              5 |
| [65535.19](#event-6553519) | 0x03EC       |     80 |             13 |
| [65535.20](#event-6553520) | 0x043C       |     15 |              5 |
| [65535.21](#event-6553521) | 0x044B       |     15 |              5 |
| [65535.22](#event-6553522) | 0x045A       |     15 |              5 |
| [65535.23](#event-6553523) | 0x0469       |     15 |              5 |
| [65535.24](#event-6553524) | 0x0478       |     15 |              5 |
| [65535.25](#event-6553525) | 0x0487       |     53 |             10 |
| [65535.26](#event-6553526) | 0x04BC       |     58 |             11 |
| [431](#event-431)          | 0x04F6       |      1 |              1 |
| [434](#event-434)          | 0x04F7       |      7 |              2 |
| [65535.27](#event-6553527) | 0x04FE       |     27 |              7 |
| [65535.28](#event-6553528) | 0x0519       |     58 |             12 |
| [443](#event-443)          | 0x0553       |      1 |              1 |

## DAT References (imed_data)

|   Index | Hex Value   |   Dec Value |
|---------|-------------|-------------|
|       0 | 0x0050      |          80 |
|       1 | 0x1B89      |        7049 |
|       2 | 0x003C      |          60 |
|       3 | 0x001E      |          30 |
|       4 | 0x0015      |          21 |
|       5 | 0x005A      |          90 |
|       6 | 0x000D      |          13 |
|       7 | 0xFFFF43BD  |  4294919101 |
|       8 | 0x0E16      |        3606 |
|       9 | 0x0000      |           0 |
|      10 | 0x03CD      |         973 |
|      11 | 0x0034      |          52 |
|      12 | 0x0078      |         120 |
|      13 | 0x000B      |          11 |
|      14 | 0x5D1F      |       23839 |
|      15 | 0x1781      |        6017 |
|      16 | 0x02AF      |         687 |
|      17 | 0x0051      |          81 |
|      18 | 0x002D      |          45 |
|      19 | 0x0005      |           5 |
|      20 | 0x08AE      |        2222 |
|      21 | 0x004B      |          75 |
|      22 | 0x000F      |          15 |
|      23 | 0x0025      |          37 |
|      24 | 0xFFFEC504  |  4294886660 |
|      25 | 0xFFFFEAAC  |  4294961836 |
|      26 | 0x0027      |          39 |
|      27 | 0xFFFEC210  |  4294885904 |
|      28 | 0xFFFFEF62  |  4294963042 |
|      29 | 0x0029      |          41 |
|      30 | 0xFFFEBC38  |  4294884408 |
|      31 | 0xFFFFED5A  |  4294962522 |
|      32 | 0x0006      |           6 |
|      33 | 0x000A      |          10 |
|      34 | 0xFFFEAFBE  |  4294881214 |
|      35 | 0xFFFFFA5E  |  4294965854 |
|      36 | 0x00D8      |         216 |
|      37 | 0x000C      |          12 |
|      38 | 0xFFFE7646  |  4294866502 |
|      39 | 0xFFFFF1A1  |  4294963617 |
|      40 | 0x0028      |          40 |
|      41 | 0xFFFF89FB  |  4294937083 |
|      42 | 0xFFFFFA22  |  4294965794 |
|      43 | 0xFFFE86B8  |  4294870712 |
|      44 | 0xFFFFDEB9  |  4294958777 |
|      45 | 0x0E02      |        3586 |
|      46 | 0x0168      |         360 |
|      47 | 0xFFFE880F  |  4294871055 |
|      48 | 0x22A8      |        8872 |
|      49 | 0x0200      |         512 |
|      50 | 0xFFFF32B5  |  4294914741 |
|      51 | 0x079E      |        1950 |
|      52 | 0xFFFF402C  |  4294918188 |
|      53 | 0x0935      |        2357 |
|      54 | 0xFFFF35EA  |  4294915562 |
|      55 | 0x0B3F      |        2879 |
|      56 | 0xFFFF3A12  |  4294916626 |
|      57 | 0x09AA      |        2474 |
|      58 | 0xFFFE9692  |  4294874770 |
|      59 | 0xFFFFF68E  |  4294964878 |
|      60 | 0x0026      |          38 |
|      61 | 0xFFFE7DEB  |  4294868459 |
|      62 | 0xFFFFF5B0  |  4294964656 |
|      63 | 0x1387      |        4999 |
|      64 | 0xFFFFFCE1  |  4294966497 |
|      65 | 0xFFFED394  |  4294890388 |
|      66 | 0xFFFFF65F  |  4294964831 |
|      67 | 0xFFFF38F4  |  4294916340 |
|      68 | 0xFFFFF821  |  4294965281 |
|      69 | 0xFFFE5E8F  |  4294860431 |
|      70 | 0x0899      |        2201 |
|      71 | 0xFFFF7085  |  4294930565 |
|      72 | 0xFFFFF716  |  4294965014 |
|      73 | 0xFFFF1D41  |  4294909249 |
|      74 | 0x24D9      |        9433 |
|      75 | 0xFFFF236E  |  4294910830 |
|      76 | 0x2722      |       10018 |
|      77 | 0x00D7      |         215 |
|      78 | 0xFFFF34A9  |  4294915241 |
|      79 | 0x0881      |        2177 |
|      80 | 0x0013      |          19 |
|      81 | 0xFFFF040C  |  4294902796 |
|      82 | 0xFFFFF254  |  4294963796 |
|      83 | 0xFFFF161E  |  4294907422 |
|      84 | 0xFFFFD853  |  4294957139 |
|      85 | 0x00F0      |         240 |

## String References

- **7049**: Wow! Jeuno's a nice town, just like the postcards! I wanna live here when I grow up.

## Events

### Event 65535

#### Metadata

| Field        | Value   |
|--------------|---------|
| Entrypoint   | 0x0000  |
| Data Size    | 1 bytes |
| Instructions | 1       |

```
      00 01 02 03 04 05 06 07  08 09 0A 0B 0C 0D 0E 0F
      -- -- -- -- -- -- -- --  -- -- -- -- -- -- -- --
0000: 00                                                .               
```

#### Opcodes

```
  0: 0x0000 [0x00] END_REQSTACK()
```

### Event 57

#### Metadata

| Field        | Value    |
|--------------|----------|
| Entrypoint   | 0x0001   |
| Data Size    | 29 bytes |
| Instructions | 7        |

```
      00 01 02 03 04 05 06 07  08 09 0A 0B 0C 0D 0E 0F
      -- -- -- -- -- -- -- --  -- -- -- -- -- -- -- --
0000:    5B 00 80 F8 FF FF 7F  F8 FF FF 7F 74 6C 6B 30   [..........tlk0
0010: 1D 01 80 23 5E 69 64 6C  30 1C 02 80 21 00        ...#^idl0...!.  
```

#### Opcodes

```
  0: 0x0001 [0x5B] LOAD_EXT_SCHEDULER: Load scheduler "tlk0" with entities [EventEntity, EventEntity], work=80*
  1: 0x0010 [0x1D] PRINT_EVENT_MESSAGE(message_id=7049*)
    → "Wow! Jeuno's a nice town, just like the postcards! I wanna live here when I grow up."
  2: 0x0013 [0x23] WAIT_FOR_DIALOG_INTERACTION
  3: 0x0014 [0x5E] EventEntity goes idle (kills current action) (animation: "idl0")
  4: 0x0019 [0x1C] WAIT(60* ticks)
  5: 0x001C [0x21] END_EVENT
  6: 0x001D [0x00] END_REQSTACK()
```

### Event 0

#### Metadata

| Field        | Value   |
|--------------|---------|
| Entrypoint   | 0x001E  |
| Data Size    | 1 bytes |
| Instructions | 1       |

```
      00 01 02 03 04 05 06 07  08 09 0A 0B 0C 0D 0E 0F
      -- -- -- -- -- -- -- --  -- -- -- -- -- -- -- --
0010:                                            00                   . 
```

#### Opcodes

```
  0: 0x001E [0x00] END_REQSTACK()
```

### Event 65535.1

#### Metadata

| Field        | Value    |
|--------------|----------|
| Entrypoint   | 0x001F   |
| Data Size    | 19 bytes |
| Instructions | 3        |

```
      00 01 02 03 04 05 06 07  08 09 0A 0B 0C 0D 0E 0F
      -- -- -- -- -- -- -- --  -- -- -- -- -- -- -- --
0010:                                               5B                 [
0020: 00 80 F8 FF FF 7F F8 FF  FF 7F 74 6C 6B 30 1C 03  ..........tlk0..
0030: 80 00                                             ..              
```

#### Opcodes

```
  0: 0x001F [0x5B] LOAD_EXT_SCHEDULER: Load scheduler "tlk0" with entities [EventEntity, EventEntity], work=80*
  1: 0x002E [0x1C] WAIT(30* ticks)
  2: 0x0031 [0x00] END_REQSTACK()
```

### Event 65535.2

#### Metadata

| Field        | Value    |
|--------------|----------|
| Entrypoint   | 0x0032   |
| Data Size    | 19 bytes |
| Instructions | 3        |

```
      00 01 02 03 04 05 06 07  08 09 0A 0B 0C 0D 0E 0F
      -- -- -- -- -- -- -- --  -- -- -- -- -- -- -- --
0030:       5B 00 80 F8 FF FF  7F F8 FF FF 7F 74 68 6B    [..........thk
0040: 31 1C 03 80 00                                    1....           
```

#### Opcodes

```
  0: 0x0032 [0x5B] LOAD_EXT_SCHEDULER: Load scheduler "thk1" with entities [EventEntity, EventEntity], work=80*
  1: 0x0041 [0x1C] WAIT(30* ticks)
  2: 0x0044 [0x00] END_REQSTACK()
```

### Event 65535.3

#### Metadata

| Field        | Value    |
|--------------|----------|
| Entrypoint   | 0x0045   |
| Data Size    | 29 bytes |
| Instructions | 3        |

```
      00 01 02 03 04 05 06 07  08 09 0A 0B 0C 0D 0E 0F
      -- -- -- -- -- -- -- --  -- -- -- -- -- -- -- --
0040:                5B 00 80  F8 FF FF 7F F8 FF FF 7F       [..........
0050: 74 68 6B 32 53 F8 FF FF  7F F8 FF FF 7F 74 68 6B  thk2S........thk
0060: 32 00                                             2.              
```

#### Opcodes

```
  0: 0x0045 [0x5B] LOAD_EXT_SCHEDULER: Load scheduler "thk2" with entities [EventEntity, EventEntity], work=80*
  1: 0x0054 [0x53] WAIT_SCHEDULER_TASK: Wait for scheduler "thk2" with entities [EventEntity, EventEntity]
  2: 0x0061 [0x00] END_REQSTACK()
```

### Event 65535.4

#### Metadata

| Field        | Value   |
|--------------|---------|
| Entrypoint   | 0x0062  |
| Data Size    | 9 bytes |
| Instructions | 3       |

```
      00 01 02 03 04 05 06 07  08 09 0A 0B 0C 0D 0E 0F
      -- -- -- -- -- -- -- --  -- -- -- -- -- -- -- --
0060:       5E 69 64 6C 30 1C  02 80 00                   ^idl0....     
```

#### Opcodes

```
  0: 0x0062 [0x5E] EventEntity goes idle (kills current action) (animation: "idl0")
  1: 0x0067 [0x1C] WAIT(60* ticks)
  2: 0x006A [0x00] END_REQSTACK()
```

### Event 316

#### Metadata

| Field        | Value   |
|--------------|---------|
| Entrypoint   | 0x006B  |
| Data Size    | 1 bytes |
| Instructions | 1       |

```
      00 01 02 03 04 05 06 07  08 09 0A 0B 0C 0D 0E 0F
      -- -- -- -- -- -- -- --  -- -- -- -- -- -- -- --
0060:                                   00                         .    
```

#### Opcodes

```
  0: 0x006B [0x00] END_REQSTACK()
```

### Event 324

#### Metadata

| Field        | Value    |
|--------------|----------|
| Entrypoint   | 0x006C   |
| Data Size    | 18 bytes |
| Instructions | 4        |

```
      00 01 02 03 04 05 06 07  08 09 0A 0B 0C 0D 0E 0F
      -- -- -- -- -- -- -- --  -- -- -- -- -- -- -- --
0060:                                      92 01 F8 FF              ....
0070: FF 7F 94 01 F8 FF FF 7F  80 F8 FF FF 7F 00        ..............  
```

#### Opcodes

```
  0: 0x006C [0x92] EventEntity->Render.Flags3 ^= 0x01
  1: 0x0072 [0x94] EventEntity->Render.Flags3 ^= 0x01
  2: 0x0078 [0x80] LOAD_WAIT(entity=EventEntity)
  3: 0x007D [0x00] END_REQSTACK()
```

### Event 325

#### Metadata

| Field        | Value    |
|--------------|----------|
| Entrypoint   | 0x007E   |
| Data Size    | 18 bytes |
| Instructions | 4        |

```
      00 01 02 03 04 05 06 07  08 09 0A 0B 0C 0D 0E 0F
      -- -- -- -- -- -- -- --  -- -- -- -- -- -- -- --
0070:                                            92 01                ..
0080: F8 FF FF 7F 94 01 F8 FF  FF 7F 80 F8 FF FF 7F 00  ................
```

#### Opcodes

```
  0: 0x007E [0x92] EventEntity->Render.Flags3 ^= 0x01
  1: 0x0084 [0x94] EventEntity->Render.Flags3 ^= 0x01
  2: 0x008A [0x80] LOAD_WAIT(entity=EventEntity)
  3: 0x008F [0x00] END_REQSTACK()
```

### Event 327

#### Metadata

| Field        | Value    |
|--------------|----------|
| Entrypoint   | 0x0090   |
| Data Size    | 18 bytes |
| Instructions | 4        |

```
      00 01 02 03 04 05 06 07  08 09 0A 0B 0C 0D 0E 0F
      -- -- -- -- -- -- -- --  -- -- -- -- -- -- -- --
0090: 92 01 F8 FF FF 7F 94 01  F8 FF FF 7F 80 F8 FF FF  ................
00A0: 7F 00                                             ..              
```

#### Opcodes

```
  0: 0x0090 [0x92] EventEntity->Render.Flags3 ^= 0x01
  1: 0x0096 [0x94] EventEntity->Render.Flags3 ^= 0x01
  2: 0x009C [0x80] LOAD_WAIT(entity=EventEntity)
  3: 0x00A1 [0x00] END_REQSTACK()
```

### Event 331

#### Metadata

| Field        | Value    |
|--------------|----------|
| Entrypoint   | 0x00A2   |
| Data Size    | 18 bytes |
| Instructions | 4        |

```
      00 01 02 03 04 05 06 07  08 09 0A 0B 0C 0D 0E 0F
      -- -- -- -- -- -- -- --  -- -- -- -- -- -- -- --
00A0:       92 01 F8 FF FF 7F  94 01 F8 FF FF 7F 80 F8    ..............
00B0: FF FF 7F 00                                       ....            
```

#### Opcodes

```
  0: 0x00A2 [0x92] EventEntity->Render.Flags3 ^= 0x01
  1: 0x00A8 [0x94] EventEntity->Render.Flags3 ^= 0x01
  2: 0x00AE [0x80] LOAD_WAIT(entity=EventEntity)
  3: 0x00B3 [0x00] END_REQSTACK()
```

### Event 332

#### Metadata

| Field        | Value    |
|--------------|----------|
| Entrypoint   | 0x00B4   |
| Data Size    | 18 bytes |
| Instructions | 4        |

```
      00 01 02 03 04 05 06 07  08 09 0A 0B 0C 0D 0E 0F
      -- -- -- -- -- -- -- --  -- -- -- -- -- -- -- --
00B0:             92 01 F8 FF  FF 7F 94 01 F8 FF FF 7F      ............
00C0: 80 F8 FF FF 7F 00                                 ......          
```

#### Opcodes

```
  0: 0x00B4 [0x92] EventEntity->Render.Flags3 ^= 0x01
  1: 0x00BA [0x94] EventEntity->Render.Flags3 ^= 0x01
  2: 0x00C0 [0x80] LOAD_WAIT(entity=EventEntity)
  3: 0x00C5 [0x00] END_REQSTACK()
```

### Event 333

#### Metadata

| Field        | Value    |
|--------------|----------|
| Entrypoint   | 0x00C6   |
| Data Size    | 18 bytes |
| Instructions | 4        |

```
      00 01 02 03 04 05 06 07  08 09 0A 0B 0C 0D 0E 0F
      -- -- -- -- -- -- -- --  -- -- -- -- -- -- -- --
00C0:                   92 01  F8 FF FF 7F 94 01 F8 FF        ..........
00D0: FF 7F 80 F8 FF FF 7F 00                           ........        
```

#### Opcodes

```
  0: 0x00C6 [0x92] EventEntity->Render.Flags3 ^= 0x01
  1: 0x00CC [0x94] EventEntity->Render.Flags3 ^= 0x01
  2: 0x00D2 [0x80] LOAD_WAIT(entity=EventEntity)
  3: 0x00D7 [0x00] END_REQSTACK()
```

### Event 334

#### Metadata

| Field        | Value    |
|--------------|----------|
| Entrypoint   | 0x00D8   |
| Data Size    | 18 bytes |
| Instructions | 4        |

```
      00 01 02 03 04 05 06 07  08 09 0A 0B 0C 0D 0E 0F
      -- -- -- -- -- -- -- --  -- -- -- -- -- -- -- --
00D0:                          92 01 F8 FF FF 7F 94 01          ........
00E0: F8 FF FF 7F 80 F8 FF FF  7F 00                    ..........      
```

#### Opcodes

```
  0: 0x00D8 [0x92] EventEntity->Render.Flags3 ^= 0x01
  1: 0x00DE [0x94] EventEntity->Render.Flags3 ^= 0x01
  2: 0x00E4 [0x80] LOAD_WAIT(entity=EventEntity)
  3: 0x00E9 [0x00] END_REQSTACK()
```

### Event 335

#### Metadata

| Field        | Value    |
|--------------|----------|
| Entrypoint   | 0x00EA   |
| Data Size    | 18 bytes |
| Instructions | 4        |

```
      00 01 02 03 04 05 06 07  08 09 0A 0B 0C 0D 0E 0F
      -- -- -- -- -- -- -- --  -- -- -- -- -- -- -- --
00E0:                                92 01 F8 FF FF 7F            ......
00F0: 94 01 F8 FF FF 7F 80 F8  FF FF 7F 00              ............    
```

#### Opcodes

```
  0: 0x00EA [0x92] EventEntity->Render.Flags3 ^= 0x01
  1: 0x00F0 [0x94] EventEntity->Render.Flags3 ^= 0x01
  2: 0x00F6 [0x80] LOAD_WAIT(entity=EventEntity)
  3: 0x00FB [0x00] END_REQSTACK()
```

### Event 336

#### Metadata

| Field        | Value    |
|--------------|----------|
| Entrypoint   | 0x00FC   |
| Data Size    | 18 bytes |
| Instructions | 4        |

```
      00 01 02 03 04 05 06 07  08 09 0A 0B 0C 0D 0E 0F
      -- -- -- -- -- -- -- --  -- -- -- -- -- -- -- --
00F0:                                      92 01 F8 FF              ....
0100: FF 7F 94 01 F8 FF FF 7F  80 F8 FF FF 7F 00        ..............  
```

#### Opcodes

```
  0: 0x00FC [0x92] EventEntity->Render.Flags3 ^= 0x01
  1: 0x0102 [0x94] EventEntity->Render.Flags3 ^= 0x01
  2: 0x0108 [0x80] LOAD_WAIT(entity=EventEntity)
  3: 0x010D [0x00] END_REQSTACK()
```

### Event 337

#### Metadata

| Field        | Value    |
|--------------|----------|
| Entrypoint   | 0x010E   |
| Data Size    | 18 bytes |
| Instructions | 4        |

```
      00 01 02 03 04 05 06 07  08 09 0A 0B 0C 0D 0E 0F
      -- -- -- -- -- -- -- --  -- -- -- -- -- -- -- --
0100:                                            92 01                ..
0110: F8 FF FF 7F 94 01 F8 FF  FF 7F 80 F8 FF FF 7F 00  ................
```

#### Opcodes

```
  0: 0x010E [0x92] EventEntity->Render.Flags3 ^= 0x01
  1: 0x0114 [0x94] EventEntity->Render.Flags3 ^= 0x01
  2: 0x011A [0x80] LOAD_WAIT(entity=EventEntity)
  3: 0x011F [0x00] END_REQSTACK()
```

### Event 338

#### Metadata

| Field        | Value    |
|--------------|----------|
| Entrypoint   | 0x0120   |
| Data Size    | 18 bytes |
| Instructions | 4        |

```
      00 01 02 03 04 05 06 07  08 09 0A 0B 0C 0D 0E 0F
      -- -- -- -- -- -- -- --  -- -- -- -- -- -- -- --
0120: 92 01 F8 FF FF 7F 94 01  F8 FF FF 7F 80 F8 FF FF  ................
0130: 7F 00                                             ..              
```

#### Opcodes

```
  0: 0x0120 [0x92] EventEntity->Render.Flags3 ^= 0x01
  1: 0x0126 [0x94] EventEntity->Render.Flags3 ^= 0x01
  2: 0x012C [0x80] LOAD_WAIT(entity=EventEntity)
  3: 0x0131 [0x00] END_REQSTACK()
```

### Event 340

#### Metadata

| Field        | Value    |
|--------------|----------|
| Entrypoint   | 0x0132   |
| Data Size    | 18 bytes |
| Instructions | 4        |

```
      00 01 02 03 04 05 06 07  08 09 0A 0B 0C 0D 0E 0F
      -- -- -- -- -- -- -- --  -- -- -- -- -- -- -- --
0130:       92 01 F8 FF FF 7F  94 01 F8 FF FF 7F 80 F8    ..............
0140: FF FF 7F 00                                       ....            
```

#### Opcodes

```
  0: 0x0132 [0x92] EventEntity->Render.Flags3 ^= 0x01
  1: 0x0138 [0x94] EventEntity->Render.Flags3 ^= 0x01
  2: 0x013E [0x80] LOAD_WAIT(entity=EventEntity)
  3: 0x0143 [0x00] END_REQSTACK()
```

### Event 341

#### Metadata

| Field        | Value    |
|--------------|----------|
| Entrypoint   | 0x0144   |
| Data Size    | 18 bytes |
| Instructions | 4        |

```
      00 01 02 03 04 05 06 07  08 09 0A 0B 0C 0D 0E 0F
      -- -- -- -- -- -- -- --  -- -- -- -- -- -- -- --
0140:             92 01 F8 FF  FF 7F 94 01 F8 FF FF 7F      ............
0150: 80 F8 FF FF 7F 00                                 ......          
```

#### Opcodes

```
  0: 0x0144 [0x92] EventEntity->Render.Flags3 ^= 0x01
  1: 0x014A [0x94] EventEntity->Render.Flags3 ^= 0x01
  2: 0x0150 [0x80] LOAD_WAIT(entity=EventEntity)
  3: 0x0155 [0x00] END_REQSTACK()
```

### Event 342

#### Metadata

| Field        | Value    |
|--------------|----------|
| Entrypoint   | 0x0156   |
| Data Size    | 18 bytes |
| Instructions | 4        |

```
      00 01 02 03 04 05 06 07  08 09 0A 0B 0C 0D 0E 0F
      -- -- -- -- -- -- -- --  -- -- -- -- -- -- -- --
0150:                   92 01  F8 FF FF 7F 94 01 F8 FF        ..........
0160: FF 7F 80 F8 FF FF 7F 00                           ........        
```

#### Opcodes

```
  0: 0x0156 [0x92] EventEntity->Render.Flags3 ^= 0x01
  1: 0x015C [0x94] EventEntity->Render.Flags3 ^= 0x01
  2: 0x0162 [0x80] LOAD_WAIT(entity=EventEntity)
  3: 0x0167 [0x00] END_REQSTACK()
```

### Event 343

#### Metadata

| Field        | Value    |
|--------------|----------|
| Entrypoint   | 0x0168   |
| Data Size    | 18 bytes |
| Instructions | 4        |

```
      00 01 02 03 04 05 06 07  08 09 0A 0B 0C 0D 0E 0F
      -- -- -- -- -- -- -- --  -- -- -- -- -- -- -- --
0160:                          92 01 F8 FF FF 7F 94 01          ........
0170: F8 FF FF 7F 80 F8 FF FF  7F 00                    ..........      
```

#### Opcodes

```
  0: 0x0168 [0x92] EventEntity->Render.Flags3 ^= 0x01
  1: 0x016E [0x94] EventEntity->Render.Flags3 ^= 0x01
  2: 0x0174 [0x80] LOAD_WAIT(entity=EventEntity)
  3: 0x0179 [0x00] END_REQSTACK()
```

### Event 344

#### Metadata

| Field        | Value    |
|--------------|----------|
| Entrypoint   | 0x017A   |
| Data Size    | 18 bytes |
| Instructions | 4        |

```
      00 01 02 03 04 05 06 07  08 09 0A 0B 0C 0D 0E 0F
      -- -- -- -- -- -- -- --  -- -- -- -- -- -- -- --
0170:                                92 01 F8 FF FF 7F            ......
0180: 94 01 F8 FF FF 7F 80 F8  FF FF 7F 00              ............    
```

#### Opcodes

```
  0: 0x017A [0x92] EventEntity->Render.Flags3 ^= 0x01
  1: 0x0180 [0x94] EventEntity->Render.Flags3 ^= 0x01
  2: 0x0186 [0x80] LOAD_WAIT(entity=EventEntity)
  3: 0x018B [0x00] END_REQSTACK()
```

### Event 345

#### Metadata

| Field        | Value    |
|--------------|----------|
| Entrypoint   | 0x018C   |
| Data Size    | 18 bytes |
| Instructions | 4        |

```
      00 01 02 03 04 05 06 07  08 09 0A 0B 0C 0D 0E 0F
      -- -- -- -- -- -- -- --  -- -- -- -- -- -- -- --
0180:                                      92 01 F8 FF              ....
0190: FF 7F 94 01 F8 FF FF 7F  80 F8 FF FF 7F 00        ..............  
```

#### Opcodes

```
  0: 0x018C [0x92] EventEntity->Render.Flags3 ^= 0x01
  1: 0x0192 [0x94] EventEntity->Render.Flags3 ^= 0x01
  2: 0x0198 [0x80] LOAD_WAIT(entity=EventEntity)
  3: 0x019D [0x00] END_REQSTACK()
```

### Event 65535.5

#### Metadata

| Field        | Value    |
|--------------|----------|
| Entrypoint   | 0x019E   |
| Data Size    | 40 bytes |
| Instructions | 8        |

```
      00 01 02 03 04 05 06 07  08 09 0A 0B 0C 0D 0E 0F
      -- -- -- -- -- -- -- --  -- -- -- -- -- -- -- --
0190:                                            66 04                f.
01A0: 80 28 60 0F 01 28 60 0F  01 64 69 73 30 1C 05 80  .(`..(`..dis0...
01B0: 32 06 80 1F 00 07 80 08  80 09 80 1F 01 6F 4B F8  2............oK.
01C0: FF FF 7F 0A 80 00                                 ......          
```

#### Opcodes

```
  0: 0x019E [0x66] LOAD_EXT_SCHEDULER_MAIN: Load scheduler "dis0" with entities [Ramicharaux (ID: 17784872/0x010F6028), Ramicharaux (ID: 17784872/0x010F6028)], work=21*
  1: 0x01AD [0x1C] WAIT(90* ticks)
  2: 0x01B0 [0x32] ExtData[1]->MainSpeed = 13* * 0.1
  3: 0x01B3 [0x1F] MOVE_ENTITY: EventEntity moves to X=-48.195*, Z=3.606*, Y=0.000*
  4: 0x01BB [0x1F] MOVE_ENTITY: Update entity position (mode=1)
  5: 0x01BD [0x6F] WAIT_FRAME_DELAY: Yield until WaitTime reaches zero
  6: 0x01BE [0x4B] UPDATE_ENTITY_YAW(entity=EventEntity, yaw=5.3°*)
  7: 0x01C5 [0x00] END_REQSTACK()
```

### Event 65535.6

#### Metadata

| Field        | Value    |
|--------------|----------|
| Entrypoint   | 0x01C6   |
| Data Size    | 40 bytes |
| Instructions | 8        |

```
      00 01 02 03 04 05 06 07  08 09 0A 0B 0C 0D 0E 0F
      -- -- -- -- -- -- -- --  -- -- -- -- -- -- -- --
01C0:                   66 0B  80 43 60 0F 01 43 60 0F        f..C`..C`.
01D0: 01 64 69 73 30 1C 0C 80  32 0D 80 1F 00 0E 80 0F  .dis0...2.......
01E0: 80 09 80 1F 01 6F 4B F8  FF FF 7F 10 80 00        .....oK.......  
```

#### Opcodes

```
  0: 0x01C6 [0x66] LOAD_EXT_SCHEDULER_MAIN: Load scheduler "dis0" with entities [Khumo Daramasteh (ID: 17784899/0x010F6043), Khumo Daramasteh (ID: 17784899/0x010F6043)], work=52*
  1: 0x01D5 [0x1C] WAIT(120* ticks)
  2: 0x01D8 [0x32] ExtData[1]->MainSpeed = 11* * 0.1
  3: 0x01DB [0x1F] MOVE_ENTITY: EventEntity moves to X=23.839*, Z=6.017*, Y=0.000*
  4: 0x01E3 [0x1F] MOVE_ENTITY: Update entity position (mode=1)
  5: 0x01E5 [0x6F] WAIT_FRAME_DELAY: Yield until WaitTime reaches zero
  6: 0x01E6 [0x4B] UPDATE_ENTITY_YAW(entity=EventEntity, yaw=3.8°*)
  7: 0x01ED [0x00] END_REQSTACK()
```

### Event 65535.7

#### Metadata

| Field        | Value     |
|--------------|-----------|
| Entrypoint   | 0x01EE    |
| Data Size    | 139 bytes |
| Instructions | 22        |

```
      00 01 02 03 04 05 06 07  08 09 0A 0B 0C 0D 0E 0F
      -- -- -- -- -- -- -- --  -- -- -- -- -- -- -- --
01E0:                                            5B 11                [.
01F0: 80 06 60 0F 01 06 60 0F  01 68 61 69 30 1C 12 80  ..`...`..hai0...
0200: 4A 04 60 0F 01 06 60 0F  01 1C 13 80 79 00 05 60  J.`...`.....y..`
0210: 0F 01 06 60 0F 01 1C 03  80 4B 06 60 0F 01 14 80  ...`.....K.`....
0220: 6F 76 06 60 0F 01 5B 11  80 06 60 0F 01 06 60 0F  ov.`..[...`...`.
0230: 01 61 77 77 30 1C 12 80  5B 15 80 04 60 0F 01 04  .aww0...[...`...
0240: 60 0F 01 74 68 6B 31 1C  16 80 5B 05 80 05 60 0F  `..thk1...[...`.
0250: 01 05 60 0F 01 74 6C 6B  30 1C 05 80 27 10 04 60  ..`..tlk0...'..`
0260: 0F 01 21 27 10 05 60 0F  01 20 32 17 80 1F 00 18  ..!'..`.. 2.....
0270: 80 19 80 09 80 1F 01 6F  00                       .......o.       
```

#### Opcodes

```
  0: 0x01EE [0x5B] LOAD_EXT_SCHEDULER: Load scheduler "hai0" with entities [Jaha Amariyo (ID: 17784838/0x010F6006), Jaha Amariyo (ID: 17784838/0x010F6006)], work=81*
  1: 0x01FD [0x1C] WAIT(45* ticks)
  2: 0x0200 [0x4A] Karl (ID: 17784836/0x010F6004) looks at Jaha Amariyo (ID: 17784838/0x010F6006)
  3: 0x0209 [0x1C] WAIT(5* ticks)
  4: 0x020C [0x79] Buntz (ID: 17784837/0x010F6005) looks at Jaha Amariyo (ID: 17784838/0x010F6006) (Basic look)
  5: 0x0216 [0x1C] WAIT(30* ticks)
  6: 0x0219 [0x4B] UPDATE_ENTITY_YAW(entity=Jaha Amariyo (ID: 17784838/0x010F6006), yaw=12.2°*)
  7: 0x0220 [0x6F] WAIT_FRAME_DELAY: Yield until WaitTime reaches zero
  8: 0x0221 [0x76] CHECK_ENTITY_RENDER_FLAGS: Wait until Jaha Amariyo (ID: 17784838/0x010F6006) Render.Flags0 and Render.Flags3 conditions are met
  9: 0x0226 [0x5B] LOAD_EXT_SCHEDULER: Load scheduler "aww0" with entities [Jaha Amariyo (ID: 17784838/0x010F6006), Jaha Amariyo (ID: 17784838/0x010F6006)], work=81*
 10: 0x0235 [0x1C] WAIT(45* ticks)
 11: 0x0238 [0x5B] LOAD_EXT_SCHEDULER: Load scheduler "thk1" with entities [Karl (ID: 17784836/0x010F6004), Karl (ID: 17784836/0x010F6004)], work=75*
 12: 0x0247 [0x1C] WAIT(15* ticks)
 13: 0x024A [0x5B] LOAD_EXT_SCHEDULER: Load scheduler "tlk0" with entities [Buntz (ID: 17784837/0x010F6005), Buntz (ID: 17784837/0x010F6005)], work=90*
 14: 0x0259 [0x1C] WAIT(90* ticks)
 15: 0x025C [0x27] REQ_SET(priority=0x10, entity_id=Karl (ID: 17784836/0x010F6004), tag_num=0x21)
 16: 0x0263 [0x27] REQ_SET(priority=0x10, entity_id=Buntz (ID: 17784837/0x010F6005), tag_num=0x20)
 17: 0x026A [0x32] ExtData[1]->MainSpeed = 37* * 0.1
 18: 0x026D [0x1F] MOVE_ENTITY: EventEntity moves to X=-80.636*, Z=-5.460*, Y=0.000*
 19: 0x0275 [0x1F] MOVE_ENTITY: Update entity position (mode=1)
 20: 0x0277 [0x6F] WAIT_FRAME_DELAY: Yield until WaitTime reaches zero
 21: 0x0278 [0x00] END_REQSTACK()
```

### Event 65535.8

#### Metadata

| Field        | Value    |
|--------------|----------|
| Entrypoint   | 0x0279   |
| Data Size    | 15 bytes |
| Instructions | 5        |

```
      00 01 02 03 04 05 06 07  08 09 0A 0B 0C 0D 0E 0F
      -- -- -- -- -- -- -- --  -- -- -- -- -- -- -- --
0270:                             32 1A 80 1F 00 1B 80           2......
0280: 1C 80 09 80 1F 01 6F 00                           ......o.        
```

#### Opcodes

```
  0: 0x0279 [0x32] ExtData[1]->MainSpeed = 39* * 0.1
  1: 0x027C [0x1F] MOVE_ENTITY: EventEntity moves to X=-81.392*, Z=-4.254*, Y=0.000*
  2: 0x0284 [0x1F] MOVE_ENTITY: Update entity position (mode=1)
  3: 0x0286 [0x6F] WAIT_FRAME_DELAY: Yield until WaitTime reaches zero
  4: 0x0287 [0x00] END_REQSTACK()
```

### Event 65535.9

#### Metadata

| Field        | Value    |
|--------------|----------|
| Entrypoint   | 0x0288   |
| Data Size    | 15 bytes |
| Instructions | 5        |

```
      00 01 02 03 04 05 06 07  08 09 0A 0B 0C 0D 0E 0F
      -- -- -- -- -- -- -- --  -- -- -- -- -- -- -- --
0280:                          32 1D 80 1F 00 1E 80 1F          2.......
0290: 80 09 80 1F 01 6F 00                              .....o.         
```

#### Opcodes

```
  0: 0x0288 [0x32] ExtData[1]->MainSpeed = 41* * 0.1
  1: 0x028B [0x1F] MOVE_ENTITY: EventEntity moves to X=-82.888*, Z=-4.774*, Y=0.000*
  2: 0x0293 [0x1F] MOVE_ENTITY: Update entity position (mode=1)
  3: 0x0295 [0x6F] WAIT_FRAME_DELAY: Yield until WaitTime reaches zero
  4: 0x0296 [0x00] END_REQSTACK()
```

### Event 65535.10

#### Metadata

| Field        | Value    |
|--------------|----------|
| Entrypoint   | 0x0297   |
| Data Size    | 30 bytes |
| Instructions | 8        |

```
      00 01 02 03 04 05 06 07  08 09 0A 0B 0C 0D 0E 0F
      -- -- -- -- -- -- -- --  -- -- -- -- -- -- -- --
0290:                      6E  F8 FF FF 7F 20 80 99 F8         n.... ...
02A0: FF FF 7F 1C 0C 80 32 21  80 1F 00 22 80 23 80 09  ......2!...".#..
02B0: 80 1F 01 6F 00                                    ...o.           
```

#### Opcodes

```
  0: 0x0297 [0x6E] EventEntity uses emote 6*
  1: 0x029E [0x99] Wait for EventEntity animation to complete
  2: 0x02A3 [0x1C] WAIT(120* ticks)
  3: 0x02A6 [0x32] ExtData[1]->MainSpeed = 10* * 0.1
  4: 0x02A9 [0x1F] MOVE_ENTITY: EventEntity moves to X=-86.082*, Z=-1.442*, Y=0.000*
  5: 0x02B1 [0x1F] MOVE_ENTITY: Update entity position (mode=1)
  6: 0x02B3 [0x6F] WAIT_FRAME_DELAY: Yield until WaitTime reaches zero
  7: 0x02B4 [0x00] END_REQSTACK()
```

### Event 65535.11

#### Metadata

| Field        | Value    |
|--------------|----------|
| Entrypoint   | 0x02B5   |
| Data Size    | 16 bytes |
| Instructions | 2        |

```
      00 01 02 03 04 05 06 07  08 09 0A 0B 0C 0D 0E 0F
      -- -- -- -- -- -- -- --  -- -- -- -- -- -- -- --
02B0:                5B 24 80  86 60 0F 01 86 60 0F 01       [$..`...`..
02C0: 66 75 6D 30 00                                    fum0.           
```

#### Opcodes

```
  0: 0x02B5 [0x5B] LOAD_EXT_SCHEDULER: Load scheduler "fum0" with entities [Squintrox Dryeyes (ID: 17784966/0x010F6086), Squintrox Dryeyes (ID: 17784966/0x010F6086)], work=216*
  1: 0x02C4 [0x00] END_REQSTACK()
```

### Event 65535.12

#### Metadata

| Field        | Value    |
|--------------|----------|
| Entrypoint   | 0x02C5   |
| Data Size    | 33 bytes |
| Instructions | 7        |

```
      00 01 02 03 04 05 06 07  08 09 0A 0B 0C 0D 0E 0F
      -- -- -- -- -- -- -- --  -- -- -- -- -- -- -- --
02C0:                32 25 80  1F 00 26 80 27 80 09 80       2%...&.'...
02D0: 1F 01 6F 1C 16 80 66 03  80 42 60 0F 01 42 60 0F  ..o...f..B`..B`.
02E0: 01 74 68 6B 31 00                                 .thk1.          
```

#### Opcodes

```
  0: 0x02C5 [0x32] ExtData[1]->MainSpeed = 12* * 0.1
  1: 0x02C8 [0x1F] MOVE_ENTITY: EventEntity moves to X=-100.794*, Z=-3.679*, Y=0.000*
  2: 0x02D0 [0x1F] MOVE_ENTITY: Update entity position (mode=1)
  3: 0x02D2 [0x6F] WAIT_FRAME_DELAY: Yield until WaitTime reaches zero
  4: 0x02D3 [0x1C] WAIT(15* ticks)
  5: 0x02D6 [0x66] LOAD_EXT_SCHEDULER_MAIN: Load scheduler "thk1" with entities [Naurmaire (ID: 17784898/0x010F6042), Naurmaire (ID: 17784898/0x010F6042)], work=30*
  6: 0x02E5 [0x00] END_REQSTACK()
```

### Event 65535.13

#### Metadata

| Field        | Value    |
|--------------|----------|
| Entrypoint   | 0x02E6   |
| Data Size    | 33 bytes |
| Instructions | 7        |

```
      00 01 02 03 04 05 06 07  08 09 0A 0B 0C 0D 0E 0F
      -- -- -- -- -- -- -- --  -- -- -- -- -- -- -- --
02E0:                   66 21  80 3F 60 0F 01 3F 60 0F        f!.?`..?`.
02F0: 01 74 68 6B 32 1C 02 80  32 28 80 1F 00 29 80 2A  .thk2...2(...).*
0300: 80 09 80 1F 01 6F 00                              .....o.         
```

#### Opcodes

```
  0: 0x02E6 [0x66] LOAD_EXT_SCHEDULER_MAIN: Load scheduler "thk2" with entities [Marnie (ID: 17784895/0x010F603F), Marnie (ID: 17784895/0x010F603F)], work=10*
  1: 0x02F5 [0x1C] WAIT(60* ticks)
  2: 0x02F8 [0x32] ExtData[1]->MainSpeed = 40* * 0.1
  3: 0x02FB [0x1F] MOVE_ENTITY: EventEntity moves to X=-30.213*, Z=-1.502*, Y=0.000*
  4: 0x0303 [0x1F] MOVE_ENTITY: Update entity position (mode=1)
  5: 0x0305 [0x6F] WAIT_FRAME_DELAY: Yield until WaitTime reaches zero
  6: 0x0306 [0x00] END_REQSTACK()
```

### Event 65535.14

#### Metadata

| Field        | Value    |
|--------------|----------|
| Entrypoint   | 0x0307   |
| Data Size    | 45 bytes |
| Instructions | 12       |

```
      00 01 02 03 04 05 06 07  08 09 0A 0B 0C 0D 0E 0F
      -- -- -- -- -- -- -- --  -- -- -- -- -- -- -- --
0300:                      32  06 80 1F 00 2B 80 2C 80         2....+.,.
0310: 09 80 1F 01 1C 03 80 39  2D 80 1C 2E 80 1F 00 2F  .......9-....../
0320: 80 30 80 09 80 1F 01 1C  03 80 39 31 80 1C 2E 80  .0........91....
0330: 01 07 03 00                                       ....            
```

#### Opcodes

```
  0: 0x0307 [0x32] ExtData[1]->MainSpeed = 13* * 0.1
  1: 0x030A [0x1F] MOVE_ENTITY: EventEntity moves to X=-96.584*, Z=-8.519*, Y=0.000*
  2: 0x0312 [0x1F] MOVE_ENTITY: Update entity position (mode=1)
  3: 0x0314 [0x1C] WAIT(30* ticks)
  4: 0x0317 [0x39] SET_ENTITY_DIRECTION(direction=19.7°*)
  5: 0x031A [0x1C] WAIT(360* ticks)
  6: 0x031D [0x1F] MOVE_ENTITY: EventEntity moves to X=-96.241*, Z=8.872*, Y=0.000*
  7: 0x0325 [0x1F] MOVE_ENTITY: Update entity position (mode=1)
  8: 0x0327 [0x1C] WAIT(30* ticks)
  9: 0x032A [0x39] SET_ENTITY_DIRECTION(direction=2.8°*)
 10: 0x032D [0x1C] WAIT(360* ticks)
 11: 0x0330 [0x01] GOTO 0x0307
```

#### Data or dead code:

```
# Dead code (unreachable instructions):
     0x0333 [0x00] END_REQSTACK()
```

### Event 65535.15

#### Metadata

| Field        | Value     |
|--------------|-----------|
| Entrypoint   | 0x0334    |
| Data Size    | 139 bytes |
| Instructions | 22        |

```
      00 01 02 03 04 05 06 07  08 09 0A 0B 0C 0D 0E 0F
      -- -- -- -- -- -- -- --  -- -- -- -- -- -- -- --
0330:             5B 11 80 06  60 0F 01 06 60 0F 01 68      [...`...`..h
0340: 61 69 30 1C 12 80 4A 04  60 0F 01 06 60 0F 01 1C  ai0...J.`...`...
0350: 13 80 79 00 05 60 0F 01  06 60 0F 01 1C 03 80 4B  ..y..`...`.....K
0360: 06 60 0F 01 14 80 6F 76  06 60 0F 01 5B 11 80 06  .`....ov.`..[...
0370: 60 0F 01 06 60 0F 01 61  77 77 30 1C 12 80 5B 15  `...`..aww0...[.
0380: 80 04 60 0F 01 04 60 0F  01 74 68 6B 31 1C 16 80  ..`...`..thk1...
0390: 5B 05 80 05 60 0F 01 05  60 0F 01 74 6C 6B 30 1C  [...`...`..tlk0.
03A0: 05 80 27 10 04 60 0F 01  29 27 10 05 60 0F 01 28  ..'..`..)'..`..(
03B0: 32 17 80 1F 00 32 80 33  80 09 80 1F 01 6F 00     2....2.3.....o. 
```

#### Opcodes

```
  0: 0x0334 [0x5B] LOAD_EXT_SCHEDULER: Load scheduler "hai0" with entities [Jaha Amariyo (ID: 17784838/0x010F6006), Jaha Amariyo (ID: 17784838/0x010F6006)], work=81*
  1: 0x0343 [0x1C] WAIT(45* ticks)
  2: 0x0346 [0x4A] Karl (ID: 17784836/0x010F6004) looks at Jaha Amariyo (ID: 17784838/0x010F6006)
  3: 0x034F [0x1C] WAIT(5* ticks)
  4: 0x0352 [0x79] Buntz (ID: 17784837/0x010F6005) looks at Jaha Amariyo (ID: 17784838/0x010F6006) (Basic look)
  5: 0x035C [0x1C] WAIT(30* ticks)
  6: 0x035F [0x4B] UPDATE_ENTITY_YAW(entity=Jaha Amariyo (ID: 17784838/0x010F6006), yaw=12.2°*)
  7: 0x0366 [0x6F] WAIT_FRAME_DELAY: Yield until WaitTime reaches zero
  8: 0x0367 [0x76] CHECK_ENTITY_RENDER_FLAGS: Wait until Jaha Amariyo (ID: 17784838/0x010F6006) Render.Flags0 and Render.Flags3 conditions are met
  9: 0x036C [0x5B] LOAD_EXT_SCHEDULER: Load scheduler "aww0" with entities [Jaha Amariyo (ID: 17784838/0x010F6006), Jaha Amariyo (ID: 17784838/0x010F6006)], work=81*
 10: 0x037B [0x1C] WAIT(45* ticks)
 11: 0x037E [0x5B] LOAD_EXT_SCHEDULER: Load scheduler "thk1" with entities [Karl (ID: 17784836/0x010F6004), Karl (ID: 17784836/0x010F6004)], work=75*
 12: 0x038D [0x1C] WAIT(15* ticks)
 13: 0x0390 [0x5B] LOAD_EXT_SCHEDULER: Load scheduler "tlk0" with entities [Buntz (ID: 17784837/0x010F6005), Buntz (ID: 17784837/0x010F6005)], work=90*
 14: 0x039F [0x1C] WAIT(90* ticks)
 15: 0x03A2 [0x27] REQ_SET(priority=0x10, entity_id=Karl (ID: 17784836/0x010F6004), tag_num=0x29)
 16: 0x03A9 [0x27] REQ_SET(priority=0x10, entity_id=Buntz (ID: 17784837/0x010F6005), tag_num=0x28)
 17: 0x03B0 [0x32] ExtData[1]->MainSpeed = 37* * 0.1
 18: 0x03B3 [0x1F] MOVE_ENTITY: EventEntity moves to X=-52.555*, Z=1.950*, Y=0.000*
 19: 0x03BB [0x1F] MOVE_ENTITY: Update entity position (mode=1)
 20: 0x03BD [0x6F] WAIT_FRAME_DELAY: Yield until WaitTime reaches zero
 21: 0x03BE [0x00] END_REQSTACK()
```

### Event 65535.16

#### Metadata

| Field        | Value    |
|--------------|----------|
| Entrypoint   | 0x03BF   |
| Data Size    | 15 bytes |
| Instructions | 5        |

```
      00 01 02 03 04 05 06 07  08 09 0A 0B 0C 0D 0E 0F
      -- -- -- -- -- -- -- --  -- -- -- -- -- -- -- --
03B0:                                               32                 2
03C0: 1A 80 1F 00 34 80 35 80  09 80 1F 01 6F 00        ....4.5.....o.  
```

#### Opcodes

```
  0: 0x03BF [0x32] ExtData[1]->MainSpeed = 39* * 0.1
  1: 0x03C2 [0x1F] MOVE_ENTITY: EventEntity moves to X=-49.108*, Z=2.357*, Y=0.000*
  2: 0x03CA [0x1F] MOVE_ENTITY: Update entity position (mode=1)
  3: 0x03CC [0x6F] WAIT_FRAME_DELAY: Yield until WaitTime reaches zero
  4: 0x03CD [0x00] END_REQSTACK()
```

### Event 65535.17

#### Metadata

| Field        | Value    |
|--------------|----------|
| Entrypoint   | 0x03CE   |
| Data Size    | 15 bytes |
| Instructions | 5        |

```
      00 01 02 03 04 05 06 07  08 09 0A 0B 0C 0D 0E 0F
      -- -- -- -- -- -- -- --  -- -- -- -- -- -- -- --
03C0:                                            32 1D                2.
03D0: 80 1F 00 36 80 37 80 09  80 1F 01 6F 00           ...6.7.....o.   
```

#### Opcodes

```
  0: 0x03CE [0x32] ExtData[1]->MainSpeed = 41* * 0.1
  1: 0x03D1 [0x1F] MOVE_ENTITY: EventEntity moves to X=-51.734*, Z=2.879*, Y=0.000*
  2: 0x03D9 [0x1F] MOVE_ENTITY: Update entity position (mode=1)
  3: 0x03DB [0x6F] WAIT_FRAME_DELAY: Yield until WaitTime reaches zero
  4: 0x03DC [0x00] END_REQSTACK()
```

### Event 65535.18

#### Metadata

| Field        | Value    |
|--------------|----------|
| Entrypoint   | 0x03DD   |
| Data Size    | 15 bytes |
| Instructions | 5        |

```
      00 01 02 03 04 05 06 07  08 09 0A 0B 0C 0D 0E 0F
      -- -- -- -- -- -- -- --  -- -- -- -- -- -- -- --
03D0:                                         32 25 80               2%.
03E0: 1F 00 38 80 39 80 09 80  1F 01 6F 00              ..8.9.....o.    
```

#### Opcodes

```
  0: 0x03DD [0x32] ExtData[1]->MainSpeed = 12* * 0.1
  1: 0x03E0 [0x1F] MOVE_ENTITY: EventEntity moves to X=-50.670*, Z=2.474*, Y=0.000*
  2: 0x03E8 [0x1F] MOVE_ENTITY: Update entity position (mode=1)
  3: 0x03EA [0x6F] WAIT_FRAME_DELAY: Yield until WaitTime reaches zero
  4: 0x03EB [0x00] END_REQSTACK()
```

### Event 65535.19

#### Metadata

| Field        | Value    |
|--------------|----------|
| Entrypoint   | 0x03EC   |
| Data Size    | 80 bytes |
| Instructions | 13       |

```
      00 01 02 03 04 05 06 07  08 09 0A 0B 0C 0D 0E 0F
      -- -- -- -- -- -- -- --  -- -- -- -- -- -- -- --
03E0:                                      32 0D 80 1F              2...
03F0: 00 3A 80 3B 80 09 80 1F  01 79 00 45 60 0F 01 42  .:.;.....y.E`..B
0400: 60 0F 01 66 03 80 42 60  0F 01 42 60 0F 01 74 68  `..f..B`..B`..th
0410: 6B 32 32 3C 80 4A 42 60  0F 01 45 60 0F 01 1F 00  k22<.JB`..E`....
0420: 3D 80 3E 80 09 80 1F 01  6F 1C 03 80 66 09 80 45  =.>.....o...f..E
0430: 60 0F 01 45 60 0F 01 74  6C 6B 31 00              `..E`..tlk1.    
```

#### Opcodes

```
  0: 0x03EC [0x32] ExtData[1]->MainSpeed = 11* * 0.1
  1: 0x03EF [0x1F] MOVE_ENTITY: EventEntity moves to X=-92.526*, Z=-2.418*, Y=0.000*
  2: 0x03F7 [0x1F] MOVE_ENTITY: Update entity position (mode=1)
  3: 0x03F9 [0x79] Falak (ID: 17784901/0x010F6045) looks at Naurmaire (ID: 17784898/0x010F6042) (Basic look)
  4: 0x0403 [0x66] LOAD_EXT_SCHEDULER_MAIN: Load scheduler "thk2" with entities [Naurmaire (ID: 17784898/0x010F6042), Naurmaire (ID: 17784898/0x010F6042)], work=30*
  5: 0x0412 [0x32] ExtData[1]->MainSpeed = 38* * 0.1
  6: 0x0415 [0x4A] Naurmaire (ID: 17784898/0x010F6042) looks at Falak (ID: 17784901/0x010F6045)
  7: 0x041E [0x1F] MOVE_ENTITY: EventEntity moves to X=-98.837*, Z=-2.640*, Y=0.000*
  8: 0x0426 [0x1F] MOVE_ENTITY: Update entity position (mode=1)
  9: 0x0428 [0x6F] WAIT_FRAME_DELAY: Yield until WaitTime reaches zero
 10: 0x0429 [0x1C] WAIT(30* ticks)
 11: 0x042C [0x66] LOAD_EXT_SCHEDULER_MAIN: Load scheduler "tlk1" with entities [Falak (ID: 17784901/0x010F6045), Falak (ID: 17784901/0x010F6045)], work=0*
 12: 0x043B [0x00] END_REQSTACK()
```

### Event 65535.20

#### Metadata

| Field        | Value    |
|--------------|----------|
| Entrypoint   | 0x043C   |
| Data Size    | 15 bytes |
| Instructions | 5        |

```
      00 01 02 03 04 05 06 07  08 09 0A 0B 0C 0D 0E 0F
      -- -- -- -- -- -- -- --  -- -- -- -- -- -- -- --
0430:                                      32 25 80 1F              2%..
0440: 00 3F 80 40 80 09 80 1F  01 6F 00                 .?.@.....o.     
```

#### Opcodes

```
  0: 0x043C [0x32] ExtData[1]->MainSpeed = 12* * 0.1
  1: 0x043F [0x1F] MOVE_ENTITY: EventEntity moves to X=4.999*, Z=-0.799*, Y=0.000*
  2: 0x0447 [0x1F] MOVE_ENTITY: Update entity position (mode=1)
  3: 0x0449 [0x6F] WAIT_FRAME_DELAY: Yield until WaitTime reaches zero
  4: 0x044A [0x00] END_REQSTACK()
```

### Event 65535.21

#### Metadata

| Field        | Value    |
|--------------|----------|
| Entrypoint   | 0x044B   |
| Data Size    | 15 bytes |
| Instructions | 5        |

```
      00 01 02 03 04 05 06 07  08 09 0A 0B 0C 0D 0E 0F
      -- -- -- -- -- -- -- --  -- -- -- -- -- -- -- --
0440:                                   32 06 80 1F 00             2....
0450: 41 80 42 80 09 80 1F 01  6F 00                    A.B.....o.      
```

#### Opcodes

```
  0: 0x044B [0x32] ExtData[1]->MainSpeed = 13* * 0.1
  1: 0x044E [0x1F] MOVE_ENTITY: EventEntity moves to X=-76.908*, Z=-2.465*, Y=0.000*
  2: 0x0456 [0x1F] MOVE_ENTITY: Update entity position (mode=1)
  3: 0x0458 [0x6F] WAIT_FRAME_DELAY: Yield until WaitTime reaches zero
  4: 0x0459 [0x00] END_REQSTACK()
```

### Event 65535.22

#### Metadata

| Field        | Value    |
|--------------|----------|
| Entrypoint   | 0x045A   |
| Data Size    | 15 bytes |
| Instructions | 5        |

```
      00 01 02 03 04 05 06 07  08 09 0A 0B 0C 0D 0E 0F
      -- -- -- -- -- -- -- --  -- -- -- -- -- -- -- --
0450:                                32 0D 80 1F 00 43            2....C
0460: 80 44 80 09 80 1F 01 6F  00                       .D.....o.       
```

#### Opcodes

```
  0: 0x045A [0x32] ExtData[1]->MainSpeed = 11* * 0.1
  1: 0x045D [0x1F] MOVE_ENTITY: EventEntity moves to X=-50.956*, Z=-2.015*, Y=0.000*
  2: 0x0465 [0x1F] MOVE_ENTITY: Update entity position (mode=1)
  3: 0x0467 [0x6F] WAIT_FRAME_DELAY: Yield until WaitTime reaches zero
  4: 0x0468 [0x00] END_REQSTACK()
```

### Event 65535.23

#### Metadata

| Field        | Value    |
|--------------|----------|
| Entrypoint   | 0x0469   |
| Data Size    | 15 bytes |
| Instructions | 5        |

```
      00 01 02 03 04 05 06 07  08 09 0A 0B 0C 0D 0E 0F
      -- -- -- -- -- -- -- --  -- -- -- -- -- -- -- --
0460:                             32 0D 80 1F 00 45 80           2....E.
0470: 46 80 09 80 1F 01 6F 00                           F.....o.        
```

#### Opcodes

```
  0: 0x0469 [0x32] ExtData[1]->MainSpeed = 11* * 0.1
  1: 0x046C [0x1F] MOVE_ENTITY: EventEntity moves to X=-106.865*, Z=2.201*, Y=0.000*
  2: 0x0474 [0x1F] MOVE_ENTITY: Update entity position (mode=1)
  3: 0x0476 [0x6F] WAIT_FRAME_DELAY: Yield until WaitTime reaches zero
  4: 0x0477 [0x00] END_REQSTACK()
```

### Event 65535.24

#### Metadata

| Field        | Value    |
|--------------|----------|
| Entrypoint   | 0x0478   |
| Data Size    | 15 bytes |
| Instructions | 5        |

```
      00 01 02 03 04 05 06 07  08 09 0A 0B 0C 0D 0E 0F
      -- -- -- -- -- -- -- --  -- -- -- -- -- -- -- --
0470:                          32 06 80 1F 00 47 80 48          2....G.H
0480: 80 09 80 1F 01 6F 00                              .....o.         
```

#### Opcodes

```
  0: 0x0478 [0x32] ExtData[1]->MainSpeed = 13* * 0.1
  1: 0x047B [0x1F] MOVE_ENTITY: EventEntity moves to X=-36.731*, Z=-2.282*, Y=0.000*
  2: 0x0483 [0x1F] MOVE_ENTITY: Update entity position (mode=1)
  3: 0x0485 [0x6F] WAIT_FRAME_DELAY: Yield until WaitTime reaches zero
  4: 0x0486 [0x00] END_REQSTACK()
```

### Event 65535.25

#### Metadata

| Field        | Value    |
|--------------|----------|
| Entrypoint   | 0x0487   |
| Data Size    | 53 bytes |
| Instructions | 10       |

```
      00 01 02 03 04 05 06 07  08 09 0A 0B 0C 0D 0E 0F
      -- -- -- -- -- -- -- --  -- -- -- -- -- -- -- --
0480:                      32  06 80 1F 00 49 80 4A 80         2....I.J.
0490: 09 80 1F 01 1F 00 4B 80  4C 80 09 80 1F 01 6F 1C  ......K.L.....o.
04A0: 16 80 79 00 49 60 0F 01  86 60 0F 01 5B 4D 80 86  ..y.I`...`..[M..
04B0: 60 0F 01 86 60 0F 01 74  6C 6B 30 00              `...`..tlk0.    
```

#### Opcodes

```
  0: 0x0487 [0x32] ExtData[1]->MainSpeed = 13* * 0.1
  1: 0x048A [0x1F] MOVE_ENTITY: EventEntity moves to X=-58.047*, Z=9.433*, Y=0.000*
  2: 0x0492 [0x1F] MOVE_ENTITY: Update entity position (mode=1)
  3: 0x0494 [0x1F] MOVE_ENTITY: EventEntity moves to X=-56.466*, Z=10.018*, Y=0.000*
  4: 0x049C [0x1F] MOVE_ENTITY: Update entity position (mode=1)
  5: 0x049E [0x6F] WAIT_FRAME_DELAY: Yield until WaitTime reaches zero
  6: 0x049F [0x1C] WAIT(15* ticks)
  7: 0x04A2 [0x79] Shami (ID: 17784905/0x010F6049) looks at Squintrox Dryeyes (ID: 17784966/0x010F6086) (Basic look)
  8: 0x04AC [0x5B] LOAD_EXT_SCHEDULER: Load scheduler "tlk0" with entities [Squintrox Dryeyes (ID: 17784966/0x010F6086), Squintrox Dryeyes (ID: 17784966/0x010F6086)], work=215*
  9: 0x04BB [0x00] END_REQSTACK()
```

### Event 65535.26

#### Metadata

| Field        | Value    |
|--------------|----------|
| Entrypoint   | 0x04BC   |
| Data Size    | 58 bytes |
| Instructions | 11       |

```
      00 01 02 03 04 05 06 07  08 09 0A 0B 0C 0D 0E 0F
      -- -- -- -- -- -- -- --  -- -- -- -- -- -- -- --
04B0:                                      32 06 80 79              2..y
04C0: 00 3E 60 0F 01 28 60 0F  01 1F 00 4E 80 4F 80 09  .>`..(`....N.O..
04D0: 80 1F 01 6F 1C 16 80 4A  3E 60 0F 01 28 60 0F 01  ...o...J>`..(`..
04E0: 6F 76 3E 60 0F 01 66 50  80 3E 60 0F 01 3E 60 0F  ov>`..fP.>`..>`.
04F0: 01 74 6C 6B 30 00                                 .tlk0.          
```

#### Opcodes

```
  0: 0x04BC [0x32] ExtData[1]->MainSpeed = 13* * 0.1
  1: 0x04BF [0x79] Leffquen (ID: 17784894/0x010F603E) looks at Ramicharaux (ID: 17784872/0x010F6028) (Basic look)
  2: 0x04C9 [0x1F] MOVE_ENTITY: EventEntity moves to X=-52.055*, Z=2.177*, Y=0.000*
  3: 0x04D1 [0x1F] MOVE_ENTITY: Update entity position (mode=1)
  4: 0x04D3 [0x6F] WAIT_FRAME_DELAY: Yield until WaitTime reaches zero
  5: 0x04D4 [0x1C] WAIT(15* ticks)
  6: 0x04D7 [0x4A] Leffquen (ID: 17784894/0x010F603E) looks at Ramicharaux (ID: 17784872/0x010F6028)
  7: 0x04E0 [0x6F] WAIT_FRAME_DELAY: Yield until WaitTime reaches zero
  8: 0x04E1 [0x76] CHECK_ENTITY_RENDER_FLAGS: Wait until Leffquen (ID: 17784894/0x010F603E) Render.Flags0 and Render.Flags3 conditions are met
  9: 0x04E6 [0x66] LOAD_EXT_SCHEDULER_MAIN: Load scheduler "tlk0" with entities [Leffquen (ID: 17784894/0x010F603E), Leffquen (ID: 17784894/0x010F603E)], work=19*
 10: 0x04F5 [0x00] END_REQSTACK()
```

### Event 431

#### Metadata

| Field        | Value   |
|--------------|---------|
| Entrypoint   | 0x04F6  |
| Data Size    | 1 bytes |
| Instructions | 1       |

```
      00 01 02 03 04 05 06 07  08 09 0A 0B 0C 0D 0E 0F
      -- -- -- -- -- -- -- --  -- -- -- -- -- -- -- --
04F0:                   00                                    .         
```

#### Opcodes

```
  0: 0x04F6 [0x00] END_REQSTACK()
```

### Event 434

#### Metadata

| Field        | Value   |
|--------------|---------|
| Entrypoint   | 0x04F7  |
| Data Size    | 7 bytes |
| Instructions | 2       |

```
      00 01 02 03 04 05 06 07  08 09 0A 0B 0C 0D 0E 0F
      -- -- -- -- -- -- -- --  -- -- -- -- -- -- -- --
04F0:                      92  01 F8 FF FF 7F 00               .......  
```

#### Opcodes

```
  0: 0x04F7 [0x92] EventEntity->Render.Flags3 ^= 0x01
  1: 0x04FD [0x00] END_REQSTACK()
```

### Event 65535.27

#### Metadata

| Field        | Value    |
|--------------|----------|
| Entrypoint   | 0x04FE   |
| Data Size    | 27 bytes |
| Instructions | 7        |

```
      00 01 02 03 04 05 06 07  08 09 0A 0B 0C 0D 0E 0F
      -- -- -- -- -- -- -- --  -- -- -- -- -- -- -- --
04F0:                                            1C 2E                ..
0500: 80 32 28 80 1F 00 51 80  52 80 09 80 1F 01 1F 00  .2(...Q.R.......
0510: 53 80 54 80 09 80 1F 01  00                       S.T......       
```

#### Opcodes

```
  0: 0x04FE [0x1C] WAIT(360* ticks)
  1: 0x0501 [0x32] ExtData[1]->MainSpeed = 40* * 0.1
  2: 0x0504 [0x1F] MOVE_ENTITY: EventEntity moves to X=-64.500*, Z=-3.500*, Y=0.000*
  3: 0x050C [0x1F] MOVE_ENTITY: Update entity position (mode=1)
  4: 0x050E [0x1F] MOVE_ENTITY: EventEntity moves to X=-59.874*, Z=-10.157*, Y=0.000*
  5: 0x0516 [0x1F] MOVE_ENTITY: Update entity position (mode=1)
  6: 0x0518 [0x00] END_REQSTACK()
```

### Event 65535.28

#### Metadata

| Field        | Value    |
|--------------|----------|
| Entrypoint   | 0x0519   |
| Data Size    | 58 bytes |
| Instructions | 12       |

```
      00 01 02 03 04 05 06 07  08 09 0A 0B 0C 0D 0E 0F
      -- -- -- -- -- -- -- --  -- -- -- -- -- -- -- --
0510:                             5B 00 80 F8 FF FF 7F           [......
0520: F8 FF FF 7F 61 77 77 30  1C 55 80 5B 00 80 F8 FF  ....aww0.U.[....
0530: FF 7F F8 FF FF 7F 61 77  77 31 1C 02 80 39 09 80  ......aww1...9..
0540: 6F 70 1C 21 80 32 28 80  1F 00 51 80 52 80 09 80  op.!.2(...Q.R...
0550: 1F 01 00                                          ...             
```

#### Opcodes

```
  0: 0x0519 [0x5B] LOAD_EXT_SCHEDULER: Load scheduler "aww0" with entities [EventEntity, EventEntity], work=80*
  1: 0x0528 [0x1C] WAIT(240* ticks)
  2: 0x052B [0x5B] LOAD_EXT_SCHEDULER: Load scheduler "aww1" with entities [EventEntity, EventEntity], work=80*
  3: 0x053A [0x1C] WAIT(60* ticks)
  4: 0x053D [0x39] SET_ENTITY_DIRECTION(direction=0.0°*)
  5: 0x0540 [0x6F] WAIT_FRAME_DELAY: Yield until WaitTime reaches zero
  6: 0x0541 [0x70] WAIT_ENTITY_RENDER_FLAG: Wait while EventEntity->Render.Flags3 bit 2 is set (cancel turn if not)
  7: 0x0542 [0x1C] WAIT(10* ticks)
  8: 0x0545 [0x32] ExtData[1]->MainSpeed = 40* * 0.1
  9: 0x0548 [0x1F] MOVE_ENTITY: EventEntity moves to X=-64.500*, Z=-3.500*, Y=0.000*
 10: 0x0550 [0x1F] MOVE_ENTITY: Update entity position (mode=1)
 11: 0x0552 [0x00] END_REQSTACK()
```

### Event 443

#### Metadata

| Field        | Value   |
|--------------|---------|
| Entrypoint   | 0x0553  |
| Data Size    | 1 bytes |
| Instructions | 1       |

```
      00 01 02 03 04 05 06 07  08 09 0A 0B 0C 0D 0E 0F
      -- -- -- -- -- -- -- --  -- -- -- -- -- -- -- --
0550:          00                                          .            
```

#### Opcodes

```
  0: 0x0553 [0x00] END_REQSTACK()
```
