# 17784836 - Karl

## Common Data

| Field            | Value                |
|------------------|----------------------|
| Zone             | Port Jeuno (ID: 246) |
| Block Size       | 2352 bytes           |
| Total Events     | 57                   |
| References Count | 102                  |

## List of Events

| Event ID                   | Entrypoint   |   Size |   Instructions |
|----------------------------|--------------|--------|----------------|
| [65535](#event-65535)      | 0x0000       |      1 |              1 |
| [58](#event-58)            | 0x0001       |     53 |             15 |
| [0](#event-0)              | 0x0036       |      1 |              1 |
| [61](#event-61)            | 0x0037       |     45 |             11 |
| [1](#event-1)              | 0x0064       |     75 |             16 |
| [65535.1](#event-655351)   | 0x00AF       |     19 |              3 |
| [65535.2](#event-655352)   | 0x00C2       |     29 |              3 |
| [65535.3](#event-655353)   | 0x00DF       |     19 |              3 |
| [65535.4](#event-655354)   | 0x00F2       |     29 |              3 |
| [65535.5](#event-655355)   | 0x010F       |     29 |              3 |
| [65535.6](#event-655356)   | 0x012C       |      9 |              3 |
| [65535.7](#event-655357)   | 0x0135       |      1 |              1 |
| [316](#event-316)          | 0x0136       |     70 |             20 |
| [324](#event-324)          | 0x017C       |     18 |              4 |
| [325](#event-325)          | 0x018E       |     18 |              4 |
| [327](#event-327)          | 0x01A0       |     18 |              4 |
| [331](#event-331)          | 0x01B2       |     18 |              4 |
| [332](#event-332)          | 0x01C4       |     18 |              4 |
| [333](#event-333)          | 0x01D6       |     18 |              4 |
| [334](#event-334)          | 0x01E8       |     18 |              4 |
| [335](#event-335)          | 0x01FA       |     18 |              4 |
| [336](#event-336)          | 0x020C       |     18 |              4 |
| [337](#event-337)          | 0x021E       |     18 |              4 |
| [338](#event-338)          | 0x0230       |     18 |              4 |
| [340](#event-340)          | 0x0242       |     18 |              4 |
| [341](#event-341)          | 0x0254       |     18 |              4 |
| [342](#event-342)          | 0x0266       |     18 |              4 |
| [343](#event-343)          | 0x0278       |     18 |              4 |
| [344](#event-344)          | 0x028A       |     18 |              4 |
| [345](#event-345)          | 0x029C       |     18 |              4 |
| [65535.8](#event-655358)   | 0x02AE       |     40 |              8 |
| [65535.9](#event-655359)   | 0x02D6       |     40 |              8 |
| [65535.10](#event-6553510) | 0x02FE       |    139 |             22 |
| [65535.11](#event-6553511) | 0x0389       |     15 |              5 |
| [65535.12](#event-6553512) | 0x0398       |     15 |              5 |
| [65535.13](#event-6553513) | 0x03A7       |     30 |              8 |
| [65535.14](#event-6553514) | 0x03C5       |     16 |              2 |
| [65535.15](#event-6553515) | 0x03D5       |     33 |              7 |
| [65535.16](#event-6553516) | 0x03F6       |     33 |              7 |
| [65535.17](#event-6553517) | 0x0417       |     45 |             13 |
| [65535.18](#event-6553518) | 0x0444       |    139 |             22 |
| [65535.19](#event-6553519) | 0x04CF       |     15 |              5 |
| [65535.20](#event-6553520) | 0x04DE       |     15 |              5 |
| [65535.21](#event-6553521) | 0x04ED       |     15 |              5 |
| [65535.22](#event-6553522) | 0x04FC       |     80 |             13 |
| [65535.23](#event-6553523) | 0x054C       |     15 |              5 |
| [65535.24](#event-6553524) | 0x055B       |     15 |              5 |
| [65535.25](#event-6553525) | 0x056A       |     15 |              5 |
| [65535.26](#event-6553526) | 0x0579       |     15 |              5 |
| [65535.27](#event-6553527) | 0x0588       |     15 |              5 |
| [65535.28](#event-6553528) | 0x0597       |     53 |             10 |
| [65535.29](#event-6553529) | 0x05CC       |     58 |             11 |
| [431](#event-431)          | 0x0606       |      1 |              1 |
| [434](#event-434)          | 0x0607       |      7 |              2 |
| [65535.30](#event-6553530) | 0x060E       |     89 |             21 |
| [65535.31](#event-6553531) | 0x0667       |     58 |             12 |
| [443](#event-443)          | 0x06A1       |      1 |              1 |

## DAT References (imed_data)

|   Index | Hex Value   |   Dec Value |
|---------|-------------|-------------|
|       0 | 0x004B      |          75 |
|       1 | 0x0071      |         113 |
|       2 | 0x1B84      |        7044 |
|       3 | 0x1B85      |        7045 |
|       4 | 0x1B86      |        7046 |
|       5 | 0x003C      |          60 |
|       6 | 0x0308      |         776 |
|       7 | 0x1B95      |        7061 |
|       8 | 0x1B96      |        7062 |
|       9 | 0x00C9      |         201 |
|      10 | 0x0000      |           0 |
|      11 | 0x001E      |          30 |
|      12 | 0x004C      |          76 |
|      13 | 0x1FAD      |        8109 |
|      14 | 0x1FB6      |        8118 |
|      15 | 0x1FB7      |        8119 |
|      16 | 0x1FB8      |        8120 |
|      17 | 0x1FB9      |        8121 |
|      18 | 0x1FBA      |        8122 |
|      19 | 0x1FBB      |        8123 |
|      20 | 0x0015      |          21 |
|      21 | 0x005A      |          90 |
|      22 | 0x000D      |          13 |
|      23 | 0xFFFF43BD  |  4294919101 |
|      24 | 0x0E16      |        3606 |
|      25 | 0x03CD      |         973 |
|      26 | 0x0034      |          52 |
|      27 | 0x0078      |         120 |
|      28 | 0x000B      |          11 |
|      29 | 0x5D1F      |       23839 |
|      30 | 0x1781      |        6017 |
|      31 | 0x02AF      |         687 |
|      32 | 0x0051      |          81 |
|      33 | 0x002D      |          45 |
|      34 | 0x0005      |           5 |
|      35 | 0x08AE      |        2222 |
|      36 | 0x000F      |          15 |
|      37 | 0x0025      |          37 |
|      38 | 0xFFFEC504  |  4294886660 |
|      39 | 0xFFFFEAAC  |  4294961836 |
|      40 | 0x0027      |          39 |
|      41 | 0xFFFEC210  |  4294885904 |
|      42 | 0xFFFFEF62  |  4294963042 |
|      43 | 0x0029      |          41 |
|      44 | 0xFFFEBC38  |  4294884408 |
|      45 | 0xFFFFED5A  |  4294962522 |
|      46 | 0x0006      |           6 |
|      47 | 0x000A      |          10 |
|      48 | 0xFFFEAFBE  |  4294881214 |
|      49 | 0xFFFFFA5E  |  4294965854 |
|      50 | 0x00D8      |         216 |
|      51 | 0x000C      |          12 |
|      52 | 0xFFFE7646  |  4294866502 |
|      53 | 0xFFFFF1A1  |  4294963617 |
|      54 | 0x0028      |          40 |
|      55 | 0xFFFF89FB  |  4294937083 |
|      56 | 0xFFFFFA22  |  4294965794 |
|      57 | 0xFFFE86B8  |  4294870712 |
|      58 | 0xFFFFDEB9  |  4294958777 |
|      59 | 0x0E02      |        3586 |
|      60 | 0x0168      |         360 |
|      61 | 0xFFFE880F  |  4294871055 |
|      62 | 0x22A8      |        8872 |
|      63 | 0x0200      |         512 |
|      64 | 0xFFFF32B5  |  4294914741 |
|      65 | 0x079E      |        1950 |
|      66 | 0xFFFF402C  |  4294918188 |
|      67 | 0x0935      |        2357 |
|      68 | 0xFFFF35EA  |  4294915562 |
|      69 | 0x0B3F      |        2879 |
|      70 | 0xFFFF3A12  |  4294916626 |
|      71 | 0x09AA      |        2474 |
|      72 | 0xFFFE9692  |  4294874770 |
|      73 | 0xFFFFF68E  |  4294964878 |
|      74 | 0x0026      |          38 |
|      75 | 0xFFFE7DEB  |  4294868459 |
|      76 | 0xFFFFF5B0  |  4294964656 |
|      77 | 0x1387      |        4999 |
|      78 | 0xFFFFFCE1  |  4294966497 |
|      79 | 0xFFFED394  |  4294890388 |
|      80 | 0xFFFFF65F  |  4294964831 |
|      81 | 0xFFFF38F4  |  4294916340 |
|      82 | 0xFFFFF821  |  4294965281 |
|      83 | 0xFFFE5E8F  |  4294860431 |
|      84 | 0x0899      |        2201 |
|      85 | 0xFFFF7085  |  4294930565 |
|      86 | 0xFFFFF716  |  4294965014 |
|      87 | 0xFFFF1D41  |  4294909249 |
|      88 | 0x24D9      |        9433 |
|      89 | 0xFFFF236E  |  4294910830 |
|      90 | 0x2722      |       10018 |
|      91 | 0x00D7      |         215 |
|      92 | 0xFFFF34A9  |  4294915241 |
|      93 | 0x0881      |        2177 |
|      94 | 0x0013      |          19 |
|      95 | 0xFFFEBFB0  |  4294885296 |
|      96 | 0xFFFFF060  |  4294963296 |
|      97 | 0x07FF      |        2047 |
|      98 | 0xFFFF0DD0  |  4294905296 |
|      99 | 0xFFFF122A  |  4294906410 |
|     100 | 0xFFFFDD33  |  4294958387 |
|     101 | 0x00B4      |         180 |

## String References

- **7044**: We're globetrotting for our stamp rally! I never rode on airships before. It was so awesome!
- **7045**: You know, stamp rallies are only for kids. Grown-ups can't play, only kids can!
- **7046**: Kids love the $3 and stamp rallies more than anything! And don't you forget it!
- **7061**: I heard you can find $0 somewhere around Castle Oztroja.
- **7062**: Whoa, it's a real $0! Okay, here's your $3. And don't come back saying you want to return it!
- **8109**: <Player>'s badge flashes brightly.
- **8118**: Surprise!
- **8119**: Karl's badge flashes brightly.
- **8121**: Jaha Amariyo's badge flashes brightly.
- **8123**: Buntz's badge flashes brightly.

## Events

### Event 65535

#### Metadata

| Field        | Value   |
|--------------|---------|
| Entrypoint   | 0x0000  |
| Data Size    | 1 bytes |
| Instructions | 1       |

```
      00 01 02 03 04 05 06 07  08 09 0A 0B 0C 0D 0E 0F
      -- -- -- -- -- -- -- --  -- -- -- -- -- -- -- --
0000: 00                                                .               
```

#### Opcodes

```
  0: 0x0000 [0x00] END_REQSTACK()
```

### Event 58

#### Metadata

| Field        | Value    |
|--------------|----------|
| Entrypoint   | 0x0001   |
| Data Size    | 53 bytes |
| Instructions | 15       |

```
      00 01 02 03 04 05 06 07  08 09 0A 0B 0C 0D 0E 0F
      -- -- -- -- -- -- -- --  -- -- -- -- -- -- -- --
0000:    1E F0 FF FF 7F 6F 76  F8 FF FF 7F 5B 00 80 F8   .....ov....[...
0010: FF FF 7F F8 FF FF 7F 74  6C 6B 30 03 02 10 01 80  .......tlk0.....
0020: 1D 02 80 23 1D 03 80 23  1D 04 80 23 5E 69 64 6C  ...#...#...#^idl
0030: 30 1C 05 80 21 00                                 0...!.          
```

#### Opcodes

```
  0: 0x0001 [0x1E] EventEntity looks at LocalPlayer and starts talking
  1: 0x0006 [0x6F] WAIT_FRAME_DELAY: Yield until WaitTime reaches zero
  2: 0x0007 [0x76] CHECK_ENTITY_RENDER_FLAGS: Wait until EventEntity Render.Flags0 and Render.Flags3 conditions are met
  3: 0x000C [0x5B] LOAD_EXT_SCHEDULER: Load scheduler "tlk0" with entities [EventEntity, EventEntity], work=75*
  4: 0x001B [0x03] Work_Zone[2] = 113*
  5: 0x0020 [0x1D] PRINT_EVENT_MESSAGE(message_id=7044*)
    → "We're globetrotting for our stamp rally! I never rode on airships before. It was so awesome!"
  6: 0x0023 [0x23] WAIT_FOR_DIALOG_INTERACTION
  7: 0x0024 [0x1D] PRINT_EVENT_MESSAGE(message_id=7045*)
    → "You know, stamp rallies are only for kids. Grown-ups can't play, only kids can!"
  8: 0x0027 [0x23] WAIT_FOR_DIALOG_INTERACTION
  9: 0x0028 [0x1D] PRINT_EVENT_MESSAGE(message_id=7046*)
    → "Kids love the $3 and stamp rallies more than anything! And don't you forget it!"
 10: 0x002B [0x23] WAIT_FOR_DIALOG_INTERACTION
 11: 0x002C [0x5E] EventEntity goes idle (kills current action) (animation: "idl0")
 12: 0x0031 [0x1C] WAIT(60* ticks)
 13: 0x0034 [0x21] END_EVENT
 14: 0x0035 [0x00] END_REQSTACK()
```

### Event 0

#### Metadata

| Field        | Value   |
|--------------|---------|
| Entrypoint   | 0x0036  |
| Data Size    | 1 bytes |
| Instructions | 1       |

```
      00 01 02 03 04 05 06 07  08 09 0A 0B 0C 0D 0E 0F
      -- -- -- -- -- -- -- --  -- -- -- -- -- -- -- --
0030:                   00                                    .         
```

#### Opcodes

```
  0: 0x0036 [0x00] END_REQSTACK()
```

### Event 61

#### Metadata

| Field        | Value    |
|--------------|----------|
| Entrypoint   | 0x0037   |
| Data Size    | 45 bytes |
| Instructions | 11       |

```
      00 01 02 03 04 05 06 07  08 09 0A 0B 0C 0D 0E 0F
      -- -- -- -- -- -- -- --  -- -- -- -- -- -- -- --
0030:                      1E  F0 FF FF 7F 6F 76 F8 FF         .....ov..
0040: FF 7F 03 02 10 06 80 5B  00 80 F8 FF FF 7F F8 FF  .......[........
0050: FF 7F 74 6C 6B 30 1D 07  80 23 5E 69 64 6C 30 1C  ..tlk0...#^idl0.
0060: 05 80 21 00                                       ..!.            
```

#### Opcodes

```
  0: 0x0037 [0x1E] EventEntity looks at LocalPlayer and starts talking
  1: 0x003C [0x6F] WAIT_FRAME_DELAY: Yield until WaitTime reaches zero
  2: 0x003D [0x76] CHECK_ENTITY_RENDER_FLAGS: Wait until EventEntity Render.Flags0 and Render.Flags3 conditions are met
  3: 0x0042 [0x03] Work_Zone[2] = 776*
  4: 0x0047 [0x5B] LOAD_EXT_SCHEDULER: Load scheduler "tlk0" with entities [EventEntity, EventEntity], work=75*
  5: 0x0056 [0x1D] PRINT_EVENT_MESSAGE(message_id=7061*)
    → "I heard you can find $0 somewhere around Castle Oztroja."
  6: 0x0059 [0x23] WAIT_FOR_DIALOG_INTERACTION
  7: 0x005A [0x5E] EventEntity goes idle (kills current action) (animation: "idl0")
  8: 0x005F [0x1C] WAIT(60* ticks)
  9: 0x0062 [0x21] END_EVENT
 10: 0x0063 [0x00] END_REQSTACK()
```

### Event 1

#### Metadata

| Field        | Value    |
|--------------|----------|
| Entrypoint   | 0x0064   |
| Data Size    | 75 bytes |
| Instructions | 16       |

```
      00 01 02 03 04 05 06 07  08 09 0A 0B 0C 0D 0E 0F
      -- -- -- -- -- -- -- --  -- -- -- -- -- -- -- --
0060:             20 01 42 1E  F0 FF FF 7F 6F 76 F8 FF       .B.....ov..
0070: FF 7F 03 02 10 06 80 03  03 10 01 80 5B 00 80 F8  ............[...
0080: FF FF 7F F8 FF FF 7F 74  6C 6B 30 1D 08 80 23 5E  .......tlk0...#^
0090: 69 64 6C 30 45 09 80 F0  FF FF 7F F0 FF FF 7F 71  idl0E..........q
00A0: 73 74 63 0A 80 5E 69 64  6C 30 1C 05 80 21 00     stc..^idl0...!. 
```

#### Opcodes

```
  0: 0x0064 [0x20] SET_CLI_EVENT_UC_FLAG: Lock player control
  1: 0x0066 [0x42] SET_CLI_EVENT_CANCEL_DATA()
  2: 0x0067 [0x1E] EventEntity looks at LocalPlayer and starts talking
  3: 0x006C [0x6F] WAIT_FRAME_DELAY: Yield until WaitTime reaches zero
  4: 0x006D [0x76] CHECK_ENTITY_RENDER_FLAGS: Wait until EventEntity Render.Flags0 and Render.Flags3 conditions are met
  5: 0x0072 [0x03] Work_Zone[2] = 776*
  6: 0x0077 [0x03] Work_Zone[3] = 113*
  7: 0x007C [0x5B] LOAD_EXT_SCHEDULER: Load scheduler "tlk0" with entities [EventEntity, EventEntity], work=75*
  8: 0x008B [0x1D] PRINT_EVENT_MESSAGE(message_id=7062*)
    → "Whoa, it's a real $0! Okay, here's your $3. And don't come back saying you want to return it!"
  9: 0x008E [0x23] WAIT_FOR_DIALOG_INTERACTION
 10: 0x008F [0x5E] EventEntity goes idle (kills current action) (animation: "idl0")
 11: 0x0094 [0x45] LOAD_SCHEDULED_TASK: Load scheduler "qstc" with entities [LocalPlayer, LocalPlayer], work=[201*, 0*]
 12: 0x00A5 [0x5E] EventEntity goes idle (kills current action) (animation: "idl0")
 13: 0x00AA [0x1C] WAIT(60* ticks)
 14: 0x00AD [0x21] END_EVENT
 15: 0x00AE [0x00] END_REQSTACK()
```

### Event 65535.1

#### Metadata

| Field        | Value    |
|--------------|----------|
| Entrypoint   | 0x00AF   |
| Data Size    | 19 bytes |
| Instructions | 3        |

```
      00 01 02 03 04 05 06 07  08 09 0A 0B 0C 0D 0E 0F
      -- -- -- -- -- -- -- --  -- -- -- -- -- -- -- --
00A0:                                               5B                 [
00B0: 00 80 F8 FF FF 7F F8 FF  FF 7F 74 6C 6B 30 1C 0B  ..........tlk0..
00C0: 80 00                                             ..              
```

#### Opcodes

```
  0: 0x00AF [0x5B] LOAD_EXT_SCHEDULER: Load scheduler "tlk0" with entities [EventEntity, EventEntity], work=75*
  1: 0x00BE [0x1C] WAIT(30* ticks)
  2: 0x00C1 [0x00] END_REQSTACK()
```

### Event 65535.2

#### Metadata

| Field        | Value    |
|--------------|----------|
| Entrypoint   | 0x00C2   |
| Data Size    | 29 bytes |
| Instructions | 3        |

```
      00 01 02 03 04 05 06 07  08 09 0A 0B 0C 0D 0E 0F
      -- -- -- -- -- -- -- --  -- -- -- -- -- -- -- --
00C0:       5B 00 80 F8 FF FF  7F F8 FF FF 7F 74 68 6B    [..........thk
00D0: 31 53 F8 FF FF 7F F8 FF  FF 7F 74 68 6B 31 00     1S........thk1. 
```

#### Opcodes

```
  0: 0x00C2 [0x5B] LOAD_EXT_SCHEDULER: Load scheduler "thk1" with entities [EventEntity, EventEntity], work=75*
  1: 0x00D1 [0x53] WAIT_SCHEDULER_TASK: Wait for scheduler "thk1" with entities [EventEntity, EventEntity]
  2: 0x00DE [0x00] END_REQSTACK()
```

### Event 65535.3

#### Metadata

| Field        | Value    |
|--------------|----------|
| Entrypoint   | 0x00DF   |
| Data Size    | 19 bytes |
| Instructions | 3        |

```
      00 01 02 03 04 05 06 07  08 09 0A 0B 0C 0D 0E 0F
      -- -- -- -- -- -- -- --  -- -- -- -- -- -- -- --
00D0:                                               5B                 [
00E0: 00 80 F8 FF FF 7F F8 FF  FF 7F 74 68 6B 32 1C 0B  ..........thk2..
00F0: 80 00                                             ..              
```

#### Opcodes

```
  0: 0x00DF [0x5B] LOAD_EXT_SCHEDULER: Load scheduler "thk2" with entities [EventEntity, EventEntity], work=75*
  1: 0x00EE [0x1C] WAIT(30* ticks)
  2: 0x00F1 [0x00] END_REQSTACK()
```

### Event 65535.4

#### Metadata

| Field        | Value    |
|--------------|----------|
| Entrypoint   | 0x00F2   |
| Data Size    | 29 bytes |
| Instructions | 3        |

```
      00 01 02 03 04 05 06 07  08 09 0A 0B 0C 0D 0E 0F
      -- -- -- -- -- -- -- --  -- -- -- -- -- -- -- --
00F0:       5B 00 80 F8 FF FF  7F F8 FF FF 7F 70 61 73    [..........pas
0100: 30 53 F8 FF FF 7F F8 FF  FF 7F 70 61 73 30 00     0S........pas0. 
```

#### Opcodes

```
  0: 0x00F2 [0x5B] LOAD_EXT_SCHEDULER: Load scheduler "pas0" with entities [EventEntity, EventEntity], work=75*
  1: 0x0101 [0x53] WAIT_SCHEDULER_TASK: Wait for scheduler "pas0" with entities [EventEntity, EventEntity]
  2: 0x010E [0x00] END_REQSTACK()
```

### Event 65535.5

#### Metadata

| Field        | Value    |
|--------------|----------|
| Entrypoint   | 0x010F   |
| Data Size    | 29 bytes |
| Instructions | 3        |

```
      00 01 02 03 04 05 06 07  08 09 0A 0B 0C 0D 0E 0F
      -- -- -- -- -- -- -- --  -- -- -- -- -- -- -- --
0100:                                               5B                 [
0110: 0C 80 F8 FF FF 7F F8 FF  FF 7F 63 72 79 30 53 F8  ..........cry0S.
0120: FF FF 7F F8 FF FF 7F 63  72 79 30 00              .......cry0.    
```

#### Opcodes

```
  0: 0x010F [0x5B] LOAD_EXT_SCHEDULER: Load scheduler "cry0" with entities [EventEntity, EventEntity], work=76*
  1: 0x011E [0x53] WAIT_SCHEDULER_TASK: Wait for scheduler "cry0" with entities [EventEntity, EventEntity]
  2: 0x012B [0x00] END_REQSTACK()
```

### Event 65535.6

#### Metadata

| Field        | Value   |
|--------------|---------|
| Entrypoint   | 0x012C  |
| Data Size    | 9 bytes |
| Instructions | 3       |

```
      00 01 02 03 04 05 06 07  08 09 0A 0B 0C 0D 0E 0F
      -- -- -- -- -- -- -- --  -- -- -- -- -- -- -- --
0120:                                      5E 69 64 6C              ^idl
0130: 30 1C 05 80 00                                    0....           
```

#### Opcodes

```
  0: 0x012C [0x5E] EventEntity goes idle (kills current action) (animation: "idl0")
  1: 0x0131 [0x1C] WAIT(60* ticks)
  2: 0x0134 [0x00] END_REQSTACK()
```

### Event 65535.7

#### Metadata

| Field        | Value   |
|--------------|---------|
| Entrypoint   | 0x0135  |
| Data Size    | 1 bytes |
| Instructions | 1       |

```
      00 01 02 03 04 05 06 07  08 09 0A 0B 0C 0D 0E 0F
      -- -- -- -- -- -- -- --  -- -- -- -- -- -- -- --
0130:                00                                      .          
```

#### Opcodes

```
  0: 0x0135 [0x00] END_REQSTACK()
```

### Event 316

#### Metadata

| Field        | Value    |
|--------------|----------|
| Entrypoint   | 0x0136   |
| Data Size    | 70 bytes |
| Instructions | 20       |

```
      00 01 02 03 04 05 06 07  08 09 0A 0B 0C 0D 0E 0F
      -- -- -- -- -- -- -- --  -- -- -- -- -- -- -- --
0130:                   42 48  0D 80 1E F0 FF FF 7F 1C        BH........
0140: 0B 80 1D 0E 80 23 48 0F  80 4A 06 60 0F 01 F0 FF  .....#H..J.`....
0150: FF 7F 1C 0B 80 2B 06 60  0F 01 10 80 23 48 11 80  .....+.`....#H..
0160: 4A 05 60 0F 01 F0 FF FF  7F 1C 0B 80 2B 05 60 0F  J.`.........+.`.
0170: 01 12 80 23 48 13 80 1C  05 80 21 00              ...#H.....!.    
```

#### Opcodes

```
  0: 0x0136 [0x42] SET_CLI_EVENT_CANCEL_DATA()
  1: 0x0137 [0x48] [System] [8109*]:
    → "<Player>'s badge flashes brightly."
  2: 0x013A [0x1E] EventEntity looks at LocalPlayer and starts talking
  3: 0x013F [0x1C] WAIT(30* ticks)
  4: 0x0142 [0x1D] PRINT_EVENT_MESSAGE(message_id=8118*)
    → "Surprise!"
  5: 0x0145 [0x23] WAIT_FOR_DIALOG_INTERACTION
  6: 0x0146 [0x48] [System] [8119*]:
    → "Karl's badge flashes brightly."
  7: 0x0149 [0x4A] Jaha Amariyo (ID: 17784838/0x010F6006) looks at LocalPlayer
  8: 0x0152 [0x1C] WAIT(30* ticks)
  9: 0x0155 [0x2B] Jaha Amariyo (ID: 17784838/0x010F6006) [8120*]:
    → "Ta-da!"
 10: 0x015C [0x23] WAIT_FOR_DIALOG_INTERACTION
 11: 0x015D [0x48] [System] [8121*]:
    → "Jaha Amariyo's badge flashes brightly."
 12: 0x0160 [0x4A] Buntz (ID: 17784837/0x010F6005) looks at LocalPlayer
 13: 0x0169 [0x1C] WAIT(30* ticks)
 14: 0x016C [0x2B] Buntz (ID: 17784837/0x010F6005) [8122*]:
    → "Check it out!"
 15: 0x0173 [0x23] WAIT_FOR_DIALOG_INTERACTION
 16: 0x0174 [0x48] [System] [8123*]:
    → "Buntz's badge flashes brightly."
 17: 0x0177 [0x1C] WAIT(60* ticks)
 18: 0x017A [0x21] END_EVENT
 19: 0x017B [0x00] END_REQSTACK()
```

### Event 324

#### Metadata

| Field        | Value    |
|--------------|----------|
| Entrypoint   | 0x017C   |
| Data Size    | 18 bytes |
| Instructions | 4        |

```
      00 01 02 03 04 05 06 07  08 09 0A 0B 0C 0D 0E 0F
      -- -- -- -- -- -- -- --  -- -- -- -- -- -- -- --
0170:                                      92 01 F8 FF              ....
0180: FF 7F 94 01 F8 FF FF 7F  80 F8 FF FF 7F 00        ..............  
```

#### Opcodes

```
  0: 0x017C [0x92] EventEntity->Render.Flags3 ^= 0x01
  1: 0x0182 [0x94] EventEntity->Render.Flags3 ^= 0x01
  2: 0x0188 [0x80] LOAD_WAIT(entity=EventEntity)
  3: 0x018D [0x00] END_REQSTACK()
```

### Event 325

#### Metadata

| Field        | Value    |
|--------------|----------|
| Entrypoint   | 0x018E   |
| Data Size    | 18 bytes |
| Instructions | 4        |

```
      00 01 02 03 04 05 06 07  08 09 0A 0B 0C 0D 0E 0F
      -- -- -- -- -- -- -- --  -- -- -- -- -- -- -- --
0180:                                            92 01                ..
0190: F8 FF FF 7F 94 01 F8 FF  FF 7F 80 F8 FF FF 7F 00  ................
```

#### Opcodes

```
  0: 0x018E [0x92] EventEntity->Render.Flags3 ^= 0x01
  1: 0x0194 [0x94] EventEntity->Render.Flags3 ^= 0x01
  2: 0x019A [0x80] LOAD_WAIT(entity=EventEntity)
  3: 0x019F [0x00] END_REQSTACK()
```

### Event 327

#### Metadata

| Field        | Value    |
|--------------|----------|
| Entrypoint   | 0x01A0   |
| Data Size    | 18 bytes |
| Instructions | 4        |

```
      00 01 02 03 04 05 06 07  08 09 0A 0B 0C 0D 0E 0F
      -- -- -- -- -- -- -- --  -- -- -- -- -- -- -- --
01A0: 92 01 F8 FF FF 7F 94 01  F8 FF FF 7F 80 F8 FF FF  ................
01B0: 7F 00                                             ..              
```

#### Opcodes

```
  0: 0x01A0 [0x92] EventEntity->Render.Flags3 ^= 0x01
  1: 0x01A6 [0x94] EventEntity->Render.Flags3 ^= 0x01
  2: 0x01AC [0x80] LOAD_WAIT(entity=EventEntity)
  3: 0x01B1 [0x00] END_REQSTACK()
```

### Event 331

#### Metadata

| Field        | Value    |
|--------------|----------|
| Entrypoint   | 0x01B2   |
| Data Size    | 18 bytes |
| Instructions | 4        |

```
      00 01 02 03 04 05 06 07  08 09 0A 0B 0C 0D 0E 0F
      -- -- -- -- -- -- -- --  -- -- -- -- -- -- -- --
01B0:       92 01 F8 FF FF 7F  94 01 F8 FF FF 7F 80 F8    ..............
01C0: FF FF 7F 00                                       ....            
```

#### Opcodes

```
  0: 0x01B2 [0x92] EventEntity->Render.Flags3 ^= 0x01
  1: 0x01B8 [0x94] EventEntity->Render.Flags3 ^= 0x01
  2: 0x01BE [0x80] LOAD_WAIT(entity=EventEntity)
  3: 0x01C3 [0x00] END_REQSTACK()
```

### Event 332

#### Metadata

| Field        | Value    |
|--------------|----------|
| Entrypoint   | 0x01C4   |
| Data Size    | 18 bytes |
| Instructions | 4        |

```
      00 01 02 03 04 05 06 07  08 09 0A 0B 0C 0D 0E 0F
      -- -- -- -- -- -- -- --  -- -- -- -- -- -- -- --
01C0:             92 01 F8 FF  FF 7F 94 01 F8 FF FF 7F      ............
01D0: 80 F8 FF FF 7F 00                                 ......          
```

#### Opcodes

```
  0: 0x01C4 [0x92] EventEntity->Render.Flags3 ^= 0x01
  1: 0x01CA [0x94] EventEntity->Render.Flags3 ^= 0x01
  2: 0x01D0 [0x80] LOAD_WAIT(entity=EventEntity)
  3: 0x01D5 [0x00] END_REQSTACK()
```

### Event 333

#### Metadata

| Field        | Value    |
|--------------|----------|
| Entrypoint   | 0x01D6   |
| Data Size    | 18 bytes |
| Instructions | 4        |

```
      00 01 02 03 04 05 06 07  08 09 0A 0B 0C 0D 0E 0F
      -- -- -- -- -- -- -- --  -- -- -- -- -- -- -- --
01D0:                   92 01  F8 FF FF 7F 94 01 F8 FF        ..........
01E0: FF 7F 80 F8 FF FF 7F 00                           ........        
```

#### Opcodes

```
  0: 0x01D6 [0x92] EventEntity->Render.Flags3 ^= 0x01
  1: 0x01DC [0x94] EventEntity->Render.Flags3 ^= 0x01
  2: 0x01E2 [0x80] LOAD_WAIT(entity=EventEntity)
  3: 0x01E7 [0x00] END_REQSTACK()
```

### Event 334

#### Metadata

| Field        | Value    |
|--------------|----------|
| Entrypoint   | 0x01E8   |
| Data Size    | 18 bytes |
| Instructions | 4        |

```
      00 01 02 03 04 05 06 07  08 09 0A 0B 0C 0D 0E 0F
      -- -- -- -- -- -- -- --  -- -- -- -- -- -- -- --
01E0:                          92 01 F8 FF FF 7F 94 01          ........
01F0: F8 FF FF 7F 80 F8 FF FF  7F 00                    ..........      
```

#### Opcodes

```
  0: 0x01E8 [0x92] EventEntity->Render.Flags3 ^= 0x01
  1: 0x01EE [0x94] EventEntity->Render.Flags3 ^= 0x01
  2: 0x01F4 [0x80] LOAD_WAIT(entity=EventEntity)
  3: 0x01F9 [0x00] END_REQSTACK()
```

### Event 335

#### Metadata

| Field        | Value    |
|--------------|----------|
| Entrypoint   | 0x01FA   |
| Data Size    | 18 bytes |
| Instructions | 4        |

```
      00 01 02 03 04 05 06 07  08 09 0A 0B 0C 0D 0E 0F
      -- -- -- -- -- -- -- --  -- -- -- -- -- -- -- --
01F0:                                92 01 F8 FF FF 7F            ......
0200: 94 01 F8 FF FF 7F 80 F8  FF FF 7F 00              ............    
```

#### Opcodes

```
  0: 0x01FA [0x92] EventEntity->Render.Flags3 ^= 0x01
  1: 0x0200 [0x94] EventEntity->Render.Flags3 ^= 0x01
  2: 0x0206 [0x80] LOAD_WAIT(entity=EventEntity)
  3: 0x020B [0x00] END_REQSTACK()
```

### Event 336

#### Metadata

| Field        | Value    |
|--------------|----------|
| Entrypoint   | 0x020C   |
| Data Size    | 18 bytes |
| Instructions | 4        |

```
      00 01 02 03 04 05 06 07  08 09 0A 0B 0C 0D 0E 0F
      -- -- -- -- -- -- -- --  -- -- -- -- -- -- -- --
0200:                                      92 01 F8 FF              ....
0210: FF 7F 94 01 F8 FF FF 7F  80 F8 FF FF 7F 00        ..............  
```

#### Opcodes

```
  0: 0x020C [0x92] EventEntity->Render.Flags3 ^= 0x01
  1: 0x0212 [0x94] EventEntity->Render.Flags3 ^= 0x01
  2: 0x0218 [0x80] LOAD_WAIT(entity=EventEntity)
  3: 0x021D [0x00] END_REQSTACK()
```

### Event 337

#### Metadata

| Field        | Value    |
|--------------|----------|
| Entrypoint   | 0x021E   |
| Data Size    | 18 bytes |
| Instructions | 4        |

```
      00 01 02 03 04 05 06 07  08 09 0A 0B 0C 0D 0E 0F
      -- -- -- -- -- -- -- --  -- -- -- -- -- -- -- --
0210:                                            92 01                ..
0220: F8 FF FF 7F 94 01 F8 FF  FF 7F 80 F8 FF FF 7F 00  ................
```

#### Opcodes

```
  0: 0x021E [0x92] EventEntity->Render.Flags3 ^= 0x01
  1: 0x0224 [0x94] EventEntity->Render.Flags3 ^= 0x01
  2: 0x022A [0x80] LOAD_WAIT(entity=EventEntity)
  3: 0x022F [0x00] END_REQSTACK()
```

### Event 338

#### Metadata

| Field        | Value    |
|--------------|----------|
| Entrypoint   | 0x0230   |
| Data Size    | 18 bytes |
| Instructions | 4        |

```
      00 01 02 03 04 05 06 07  08 09 0A 0B 0C 0D 0E 0F
      -- -- -- -- -- -- -- --  -- -- -- -- -- -- -- --
0230: 92 01 F8 FF FF 7F 94 01  F8 FF FF 7F 80 F8 FF FF  ................
0240: 7F 00                                             ..              
```

#### Opcodes

```
  0: 0x0230 [0x92] EventEntity->Render.Flags3 ^= 0x01
  1: 0x0236 [0x94] EventEntity->Render.Flags3 ^= 0x01
  2: 0x023C [0x80] LOAD_WAIT(entity=EventEntity)
  3: 0x0241 [0x00] END_REQSTACK()
```

### Event 340

#### Metadata

| Field        | Value    |
|--------------|----------|
| Entrypoint   | 0x0242   |
| Data Size    | 18 bytes |
| Instructions | 4        |

```
      00 01 02 03 04 05 06 07  08 09 0A 0B 0C 0D 0E 0F
      -- -- -- -- -- -- -- --  -- -- -- -- -- -- -- --
0240:       92 01 F8 FF FF 7F  94 01 F8 FF FF 7F 80 F8    ..............
0250: FF FF 7F 00                                       ....            
```

#### Opcodes

```
  0: 0x0242 [0x92] EventEntity->Render.Flags3 ^= 0x01
  1: 0x0248 [0x94] EventEntity->Render.Flags3 ^= 0x01
  2: 0x024E [0x80] LOAD_WAIT(entity=EventEntity)
  3: 0x0253 [0x00] END_REQSTACK()
```

### Event 341

#### Metadata

| Field        | Value    |
|--------------|----------|
| Entrypoint   | 0x0254   |
| Data Size    | 18 bytes |
| Instructions | 4        |

```
      00 01 02 03 04 05 06 07  08 09 0A 0B 0C 0D 0E 0F
      -- -- -- -- -- -- -- --  -- -- -- -- -- -- -- --
0250:             92 01 F8 FF  FF 7F 94 01 F8 FF FF 7F      ............
0260: 80 F8 FF FF 7F 00                                 ......          
```

#### Opcodes

```
  0: 0x0254 [0x92] EventEntity->Render.Flags3 ^= 0x01
  1: 0x025A [0x94] EventEntity->Render.Flags3 ^= 0x01
  2: 0x0260 [0x80] LOAD_WAIT(entity=EventEntity)
  3: 0x0265 [0x00] END_REQSTACK()
```

### Event 342

#### Metadata

| Field        | Value    |
|--------------|----------|
| Entrypoint   | 0x0266   |
| Data Size    | 18 bytes |
| Instructions | 4        |

```
      00 01 02 03 04 05 06 07  08 09 0A 0B 0C 0D 0E 0F
      -- -- -- -- -- -- -- --  -- -- -- -- -- -- -- --
0260:                   92 01  F8 FF FF 7F 94 01 F8 FF        ..........
0270: FF 7F 80 F8 FF FF 7F 00                           ........        
```

#### Opcodes

```
  0: 0x0266 [0x92] EventEntity->Render.Flags3 ^= 0x01
  1: 0x026C [0x94] EventEntity->Render.Flags3 ^= 0x01
  2: 0x0272 [0x80] LOAD_WAIT(entity=EventEntity)
  3: 0x0277 [0x00] END_REQSTACK()
```

### Event 343

#### Metadata

| Field        | Value    |
|--------------|----------|
| Entrypoint   | 0x0278   |
| Data Size    | 18 bytes |
| Instructions | 4        |

```
      00 01 02 03 04 05 06 07  08 09 0A 0B 0C 0D 0E 0F
      -- -- -- -- -- -- -- --  -- -- -- -- -- -- -- --
0270:                          92 01 F8 FF FF 7F 94 01          ........
0280: F8 FF FF 7F 80 F8 FF FF  7F 00                    ..........      
```

#### Opcodes

```
  0: 0x0278 [0x92] EventEntity->Render.Flags3 ^= 0x01
  1: 0x027E [0x94] EventEntity->Render.Flags3 ^= 0x01
  2: 0x0284 [0x80] LOAD_WAIT(entity=EventEntity)
  3: 0x0289 [0x00] END_REQSTACK()
```

### Event 344

#### Metadata

| Field        | Value    |
|--------------|----------|
| Entrypoint   | 0x028A   |
| Data Size    | 18 bytes |
| Instructions | 4        |

```
      00 01 02 03 04 05 06 07  08 09 0A 0B 0C 0D 0E 0F
      -- -- -- -- -- -- -- --  -- -- -- -- -- -- -- --
0280:                                92 01 F8 FF FF 7F            ......
0290: 94 01 F8 FF FF 7F 80 F8  FF FF 7F 00              ............    
```

#### Opcodes

```
  0: 0x028A [0x92] EventEntity->Render.Flags3 ^= 0x01
  1: 0x0290 [0x94] EventEntity->Render.Flags3 ^= 0x01
  2: 0x0296 [0x80] LOAD_WAIT(entity=EventEntity)
  3: 0x029B [0x00] END_REQSTACK()
```

### Event 345

#### Metadata

| Field        | Value    |
|--------------|----------|
| Entrypoint   | 0x029C   |
| Data Size    | 18 bytes |
| Instructions | 4        |

```
      00 01 02 03 04 05 06 07  08 09 0A 0B 0C 0D 0E 0F
      -- -- -- -- -- -- -- --  -- -- -- -- -- -- -- --
0290:                                      92 01 F8 FF              ....
02A0: FF 7F 94 01 F8 FF FF 7F  80 F8 FF FF 7F 00        ..............  
```

#### Opcodes

```
  0: 0x029C [0x92] EventEntity->Render.Flags3 ^= 0x01
  1: 0x02A2 [0x94] EventEntity->Render.Flags3 ^= 0x01
  2: 0x02A8 [0x80] LOAD_WAIT(entity=EventEntity)
  3: 0x02AD [0x00] END_REQSTACK()
```

### Event 65535.8

#### Metadata

| Field        | Value    |
|--------------|----------|
| Entrypoint   | 0x02AE   |
| Data Size    | 40 bytes |
| Instructions | 8        |

```
      00 01 02 03 04 05 06 07  08 09 0A 0B 0C 0D 0E 0F
      -- -- -- -- -- -- -- --  -- -- -- -- -- -- -- --
02A0:                                            66 14                f.
02B0: 80 28 60 0F 01 28 60 0F  01 64 69 73 30 1C 15 80  .(`..(`..dis0...
02C0: 32 16 80 1F 00 17 80 18  80 0A 80 1F 01 6F 4B F8  2............oK.
02D0: FF FF 7F 19 80 00                                 ......          
```

#### Opcodes

```
  0: 0x02AE [0x66] LOAD_EXT_SCHEDULER_MAIN: Load scheduler "dis0" with entities [Ramicharaux (ID: 17784872/0x010F6028), Ramicharaux (ID: 17784872/0x010F6028)], work=21*
  1: 0x02BD [0x1C] WAIT(90* ticks)
  2: 0x02C0 [0x32] ExtData[1]->MainSpeed = 13* * 0.1
  3: 0x02C3 [0x1F] MOVE_ENTITY: EventEntity moves to X=-48.195*, Z=3.606*, Y=0.000*
  4: 0x02CB [0x1F] MOVE_ENTITY: Update entity position (mode=1)
  5: 0x02CD [0x6F] WAIT_FRAME_DELAY: Yield until WaitTime reaches zero
  6: 0x02CE [0x4B] UPDATE_ENTITY_YAW(entity=EventEntity, yaw=5.3°*)
  7: 0x02D5 [0x00] END_REQSTACK()
```

### Event 65535.9

#### Metadata

| Field        | Value    |
|--------------|----------|
| Entrypoint   | 0x02D6   |
| Data Size    | 40 bytes |
| Instructions | 8        |

```
      00 01 02 03 04 05 06 07  08 09 0A 0B 0C 0D 0E 0F
      -- -- -- -- -- -- -- --  -- -- -- -- -- -- -- --
02D0:                   66 1A  80 43 60 0F 01 43 60 0F        f..C`..C`.
02E0: 01 64 69 73 30 1C 1B 80  32 1C 80 1F 00 1D 80 1E  .dis0...2.......
02F0: 80 0A 80 1F 01 6F 4B F8  FF FF 7F 1F 80 00        .....oK.......  
```

#### Opcodes

```
  0: 0x02D6 [0x66] LOAD_EXT_SCHEDULER_MAIN: Load scheduler "dis0" with entities [Khumo Daramasteh (ID: 17784899/0x010F6043), Khumo Daramasteh (ID: 17784899/0x010F6043)], work=52*
  1: 0x02E5 [0x1C] WAIT(120* ticks)
  2: 0x02E8 [0x32] ExtData[1]->MainSpeed = 11* * 0.1
  3: 0x02EB [0x1F] MOVE_ENTITY: EventEntity moves to X=23.839*, Z=6.017*, Y=0.000*
  4: 0x02F3 [0x1F] MOVE_ENTITY: Update entity position (mode=1)
  5: 0x02F5 [0x6F] WAIT_FRAME_DELAY: Yield until WaitTime reaches zero
  6: 0x02F6 [0x4B] UPDATE_ENTITY_YAW(entity=EventEntity, yaw=3.8°*)
  7: 0x02FD [0x00] END_REQSTACK()
```

### Event 65535.10

#### Metadata

| Field        | Value     |
|--------------|-----------|
| Entrypoint   | 0x02FE    |
| Data Size    | 139 bytes |
| Instructions | 22        |

```
      00 01 02 03 04 05 06 07  08 09 0A 0B 0C 0D 0E 0F
      -- -- -- -- -- -- -- --  -- -- -- -- -- -- -- --
02F0:                                            5B 20                [ 
0300: 80 06 60 0F 01 06 60 0F  01 68 61 69 30 1C 21 80  ..`...`..hai0.!.
0310: 4A 04 60 0F 01 06 60 0F  01 1C 22 80 79 00 05 60  J.`...`...".y..`
0320: 0F 01 06 60 0F 01 1C 0B  80 4B 06 60 0F 01 23 80  ...`.....K.`..#.
0330: 6F 76 06 60 0F 01 5B 20  80 06 60 0F 01 06 60 0F  ov.`..[ ..`...`.
0340: 01 61 77 77 30 1C 21 80  5B 00 80 04 60 0F 01 04  .aww0.!.[...`...
0350: 60 0F 01 74 68 6B 31 1C  24 80 5B 15 80 05 60 0F  `..thk1.$.[...`.
0360: 01 05 60 0F 01 74 6C 6B  30 1C 15 80 27 10 04 60  ..`..tlk0...'..`
0370: 0F 01 21 27 10 05 60 0F  01 20 32 25 80 1F 00 26  ..!'..`.. 2%...&
0380: 80 27 80 0A 80 1F 01 6F  00                       .'.....o.       
```

#### Opcodes

```
  0: 0x02FE [0x5B] LOAD_EXT_SCHEDULER: Load scheduler "hai0" with entities [Jaha Amariyo (ID: 17784838/0x010F6006), Jaha Amariyo (ID: 17784838/0x010F6006)], work=81*
  1: 0x030D [0x1C] WAIT(45* ticks)
  2: 0x0310 [0x4A] Karl (ID: 17784836/0x010F6004) looks at Jaha Amariyo (ID: 17784838/0x010F6006)
  3: 0x0319 [0x1C] WAIT(5* ticks)
  4: 0x031C [0x79] Buntz (ID: 17784837/0x010F6005) looks at Jaha Amariyo (ID: 17784838/0x010F6006) (Basic look)
  5: 0x0326 [0x1C] WAIT(30* ticks)
  6: 0x0329 [0x4B] UPDATE_ENTITY_YAW(entity=Jaha Amariyo (ID: 17784838/0x010F6006), yaw=12.2°*)
  7: 0x0330 [0x6F] WAIT_FRAME_DELAY: Yield until WaitTime reaches zero
  8: 0x0331 [0x76] CHECK_ENTITY_RENDER_FLAGS: Wait until Jaha Amariyo (ID: 17784838/0x010F6006) Render.Flags0 and Render.Flags3 conditions are met
  9: 0x0336 [0x5B] LOAD_EXT_SCHEDULER: Load scheduler "aww0" with entities [Jaha Amariyo (ID: 17784838/0x010F6006), Jaha Amariyo (ID: 17784838/0x010F6006)], work=81*
 10: 0x0345 [0x1C] WAIT(45* ticks)
 11: 0x0348 [0x5B] LOAD_EXT_SCHEDULER: Load scheduler "thk1" with entities [Karl (ID: 17784836/0x010F6004), Karl (ID: 17784836/0x010F6004)], work=75*
 12: 0x0357 [0x1C] WAIT(15* ticks)
 13: 0x035A [0x5B] LOAD_EXT_SCHEDULER: Load scheduler "tlk0" with entities [Buntz (ID: 17784837/0x010F6005), Buntz (ID: 17784837/0x010F6005)], work=90*
 14: 0x0369 [0x1C] WAIT(90* ticks)
 15: 0x036C [0x27] REQ_SET(priority=0x10, entity_id=Karl (ID: 17784836/0x010F6004), tag_num=0x21)
 16: 0x0373 [0x27] REQ_SET(priority=0x10, entity_id=Buntz (ID: 17784837/0x010F6005), tag_num=0x20)
 17: 0x037A [0x32] ExtData[1]->MainSpeed = 37* * 0.1
 18: 0x037D [0x1F] MOVE_ENTITY: EventEntity moves to X=-80.636*, Z=-5.460*, Y=0.000*
 19: 0x0385 [0x1F] MOVE_ENTITY: Update entity position (mode=1)
 20: 0x0387 [0x6F] WAIT_FRAME_DELAY: Yield until WaitTime reaches zero
 21: 0x0388 [0x00] END_REQSTACK()
```

### Event 65535.11

#### Metadata

| Field        | Value    |
|--------------|----------|
| Entrypoint   | 0x0389   |
| Data Size    | 15 bytes |
| Instructions | 5        |

```
      00 01 02 03 04 05 06 07  08 09 0A 0B 0C 0D 0E 0F
      -- -- -- -- -- -- -- --  -- -- -- -- -- -- -- --
0380:                             32 28 80 1F 00 29 80           2(...).
0390: 2A 80 0A 80 1F 01 6F 00                           *.....o.        
```

#### Opcodes

```
  0: 0x0389 [0x32] ExtData[1]->MainSpeed = 39* * 0.1
  1: 0x038C [0x1F] MOVE_ENTITY: EventEntity moves to X=-81.392*, Z=-4.254*, Y=0.000*
  2: 0x0394 [0x1F] MOVE_ENTITY: Update entity position (mode=1)
  3: 0x0396 [0x6F] WAIT_FRAME_DELAY: Yield until WaitTime reaches zero
  4: 0x0397 [0x00] END_REQSTACK()
```

### Event 65535.12

#### Metadata

| Field        | Value    |
|--------------|----------|
| Entrypoint   | 0x0398   |
| Data Size    | 15 bytes |
| Instructions | 5        |

```
      00 01 02 03 04 05 06 07  08 09 0A 0B 0C 0D 0E 0F
      -- -- -- -- -- -- -- --  -- -- -- -- -- -- -- --
0390:                          32 2B 80 1F 00 2C 80 2D          2+...,.-
03A0: 80 0A 80 1F 01 6F 00                              .....o.         
```

#### Opcodes

```
  0: 0x0398 [0x32] ExtData[1]->MainSpeed = 41* * 0.1
  1: 0x039B [0x1F] MOVE_ENTITY: EventEntity moves to X=-82.888*, Z=-4.774*, Y=0.000*
  2: 0x03A3 [0x1F] MOVE_ENTITY: Update entity position (mode=1)
  3: 0x03A5 [0x6F] WAIT_FRAME_DELAY: Yield until WaitTime reaches zero
  4: 0x03A6 [0x00] END_REQSTACK()
```

### Event 65535.13

#### Metadata

| Field        | Value    |
|--------------|----------|
| Entrypoint   | 0x03A7   |
| Data Size    | 30 bytes |
| Instructions | 8        |

```
      00 01 02 03 04 05 06 07  08 09 0A 0B 0C 0D 0E 0F
      -- -- -- -- -- -- -- --  -- -- -- -- -- -- -- --
03A0:                      6E  F8 FF FF 7F 2E 80 99 F8         n........
03B0: FF FF 7F 1C 1B 80 32 2F  80 1F 00 30 80 31 80 0A  ......2/...0.1..
03C0: 80 1F 01 6F 00                                    ...o.           
```

#### Opcodes

```
  0: 0x03A7 [0x6E] EventEntity uses emote 6*
  1: 0x03AE [0x99] Wait for EventEntity animation to complete
  2: 0x03B3 [0x1C] WAIT(120* ticks)
  3: 0x03B6 [0x32] ExtData[1]->MainSpeed = 10* * 0.1
  4: 0x03B9 [0x1F] MOVE_ENTITY: EventEntity moves to X=-86.082*, Z=-1.442*, Y=0.000*
  5: 0x03C1 [0x1F] MOVE_ENTITY: Update entity position (mode=1)
  6: 0x03C3 [0x6F] WAIT_FRAME_DELAY: Yield until WaitTime reaches zero
  7: 0x03C4 [0x00] END_REQSTACK()
```

### Event 65535.14

#### Metadata

| Field        | Value    |
|--------------|----------|
| Entrypoint   | 0x03C5   |
| Data Size    | 16 bytes |
| Instructions | 2        |

```
      00 01 02 03 04 05 06 07  08 09 0A 0B 0C 0D 0E 0F
      -- -- -- -- -- -- -- --  -- -- -- -- -- -- -- --
03C0:                5B 32 80  86 60 0F 01 86 60 0F 01       [2..`...`..
03D0: 66 75 6D 30 00                                    fum0.           
```

#### Opcodes

```
  0: 0x03C5 [0x5B] LOAD_EXT_SCHEDULER: Load scheduler "fum0" with entities [Squintrox Dryeyes (ID: 17784966/0x010F6086), Squintrox Dryeyes (ID: 17784966/0x010F6086)], work=216*
  1: 0x03D4 [0x00] END_REQSTACK()
```

### Event 65535.15

#### Metadata

| Field        | Value    |
|--------------|----------|
| Entrypoint   | 0x03D5   |
| Data Size    | 33 bytes |
| Instructions | 7        |

```
      00 01 02 03 04 05 06 07  08 09 0A 0B 0C 0D 0E 0F
      -- -- -- -- -- -- -- --  -- -- -- -- -- -- -- --
03D0:                32 33 80  1F 00 34 80 35 80 0A 80       23...4.5...
03E0: 1F 01 6F 1C 24 80 66 0B  80 42 60 0F 01 42 60 0F  ..o.$.f..B`..B`.
03F0: 01 74 68 6B 31 00                                 .thk1.          
```

#### Opcodes

```
  0: 0x03D5 [0x32] ExtData[1]->MainSpeed = 12* * 0.1
  1: 0x03D8 [0x1F] MOVE_ENTITY: EventEntity moves to X=-100.794*, Z=-3.679*, Y=0.000*
  2: 0x03E0 [0x1F] MOVE_ENTITY: Update entity position (mode=1)
  3: 0x03E2 [0x6F] WAIT_FRAME_DELAY: Yield until WaitTime reaches zero
  4: 0x03E3 [0x1C] WAIT(15* ticks)
  5: 0x03E6 [0x66] LOAD_EXT_SCHEDULER_MAIN: Load scheduler "thk1" with entities [Naurmaire (ID: 17784898/0x010F6042), Naurmaire (ID: 17784898/0x010F6042)], work=30*
  6: 0x03F5 [0x00] END_REQSTACK()
```

### Event 65535.16

#### Metadata

| Field        | Value    |
|--------------|----------|
| Entrypoint   | 0x03F6   |
| Data Size    | 33 bytes |
| Instructions | 7        |

```
      00 01 02 03 04 05 06 07  08 09 0A 0B 0C 0D 0E 0F
      -- -- -- -- -- -- -- --  -- -- -- -- -- -- -- --
03F0:                   66 2F  80 3F 60 0F 01 3F 60 0F        f/.?`..?`.
0400: 01 74 68 6B 32 1C 05 80  32 36 80 1F 00 37 80 38  .thk2...26...7.8
0410: 80 0A 80 1F 01 6F 00                              .....o.         
```

#### Opcodes

```
  0: 0x03F6 [0x66] LOAD_EXT_SCHEDULER_MAIN: Load scheduler "thk2" with entities [Marnie (ID: 17784895/0x010F603F), Marnie (ID: 17784895/0x010F603F)], work=10*
  1: 0x0405 [0x1C] WAIT(60* ticks)
  2: 0x0408 [0x32] ExtData[1]->MainSpeed = 40* * 0.1
  3: 0x040B [0x1F] MOVE_ENTITY: EventEntity moves to X=-30.213*, Z=-1.502*, Y=0.000*
  4: 0x0413 [0x1F] MOVE_ENTITY: Update entity position (mode=1)
  5: 0x0415 [0x6F] WAIT_FRAME_DELAY: Yield until WaitTime reaches zero
  6: 0x0416 [0x00] END_REQSTACK()
```

### Event 65535.17

#### Metadata

| Field        | Value    |
|--------------|----------|
| Entrypoint   | 0x0417   |
| Data Size    | 45 bytes |
| Instructions | 12       |

```
      00 01 02 03 04 05 06 07  08 09 0A 0B 0C 0D 0E 0F
      -- -- -- -- -- -- -- --  -- -- -- -- -- -- -- --
0410:                      32  16 80 1F 00 39 80 3A 80         2....9.:.
0420: 0A 80 1F 01 1C 0B 80 39  3B 80 1C 3C 80 1F 00 3D  .......9;..<...=
0430: 80 3E 80 0A 80 1F 01 1C  0B 80 39 3F 80 1C 3C 80  .>........9?..<.
0440: 01 17 04 00                                       ....            
```

#### Opcodes

```
  0: 0x0417 [0x32] ExtData[1]->MainSpeed = 13* * 0.1
  1: 0x041A [0x1F] MOVE_ENTITY: EventEntity moves to X=-96.584*, Z=-8.519*, Y=0.000*
  2: 0x0422 [0x1F] MOVE_ENTITY: Update entity position (mode=1)
  3: 0x0424 [0x1C] WAIT(30* ticks)
  4: 0x0427 [0x39] SET_ENTITY_DIRECTION(direction=19.7°*)
  5: 0x042A [0x1C] WAIT(360* ticks)
  6: 0x042D [0x1F] MOVE_ENTITY: EventEntity moves to X=-96.241*, Z=8.872*, Y=0.000*
  7: 0x0435 [0x1F] MOVE_ENTITY: Update entity position (mode=1)
  8: 0x0437 [0x1C] WAIT(30* ticks)
  9: 0x043A [0x39] SET_ENTITY_DIRECTION(direction=2.8°*)
 10: 0x043D [0x1C] WAIT(360* ticks)
 11: 0x0440 [0x01] GOTO 0x0417
```

#### Data or dead code:

```
# Dead code (unreachable instructions):
     0x0443 [0x00] END_REQSTACK()
```

### Event 65535.18

#### Metadata

| Field        | Value     |
|--------------|-----------|
| Entrypoint   | 0x0444    |
| Data Size    | 139 bytes |
| Instructions | 22        |

```
      00 01 02 03 04 05 06 07  08 09 0A 0B 0C 0D 0E 0F
      -- -- -- -- -- -- -- --  -- -- -- -- -- -- -- --
0440:             5B 20 80 06  60 0F 01 06 60 0F 01 68      [ ..`...`..h
0450: 61 69 30 1C 21 80 4A 04  60 0F 01 06 60 0F 01 1C  ai0.!.J.`...`...
0460: 22 80 79 00 05 60 0F 01  06 60 0F 01 1C 0B 80 4B  ".y..`...`.....K
0470: 06 60 0F 01 23 80 6F 76  06 60 0F 01 5B 20 80 06  .`..#.ov.`..[ ..
0480: 60 0F 01 06 60 0F 01 61  77 77 30 1C 21 80 5B 00  `...`..aww0.!.[.
0490: 80 04 60 0F 01 04 60 0F  01 74 68 6B 31 1C 24 80  ..`...`..thk1.$.
04A0: 5B 15 80 05 60 0F 01 05  60 0F 01 74 6C 6B 30 1C  [...`...`..tlk0.
04B0: 15 80 27 10 04 60 0F 01  29 27 10 05 60 0F 01 28  ..'..`..)'..`..(
04C0: 32 25 80 1F 00 40 80 41  80 0A 80 1F 01 6F 00     2%...@.A.....o. 
```

#### Opcodes

```
  0: 0x0444 [0x5B] LOAD_EXT_SCHEDULER: Load scheduler "hai0" with entities [Jaha Amariyo (ID: 17784838/0x010F6006), Jaha Amariyo (ID: 17784838/0x010F6006)], work=81*
  1: 0x0453 [0x1C] WAIT(45* ticks)
  2: 0x0456 [0x4A] Karl (ID: 17784836/0x010F6004) looks at Jaha Amariyo (ID: 17784838/0x010F6006)
  3: 0x045F [0x1C] WAIT(5* ticks)
  4: 0x0462 [0x79] Buntz (ID: 17784837/0x010F6005) looks at Jaha Amariyo (ID: 17784838/0x010F6006) (Basic look)
  5: 0x046C [0x1C] WAIT(30* ticks)
  6: 0x046F [0x4B] UPDATE_ENTITY_YAW(entity=Jaha Amariyo (ID: 17784838/0x010F6006), yaw=12.2°*)
  7: 0x0476 [0x6F] WAIT_FRAME_DELAY: Yield until WaitTime reaches zero
  8: 0x0477 [0x76] CHECK_ENTITY_RENDER_FLAGS: Wait until Jaha Amariyo (ID: 17784838/0x010F6006) Render.Flags0 and Render.Flags3 conditions are met
  9: 0x047C [0x5B] LOAD_EXT_SCHEDULER: Load scheduler "aww0" with entities [Jaha Amariyo (ID: 17784838/0x010F6006), Jaha Amariyo (ID: 17784838/0x010F6006)], work=81*
 10: 0x048B [0x1C] WAIT(45* ticks)
 11: 0x048E [0x5B] LOAD_EXT_SCHEDULER: Load scheduler "thk1" with entities [Karl (ID: 17784836/0x010F6004), Karl (ID: 17784836/0x010F6004)], work=75*
 12: 0x049D [0x1C] WAIT(15* ticks)
 13: 0x04A0 [0x5B] LOAD_EXT_SCHEDULER: Load scheduler "tlk0" with entities [Buntz (ID: 17784837/0x010F6005), Buntz (ID: 17784837/0x010F6005)], work=90*
 14: 0x04AF [0x1C] WAIT(90* ticks)
 15: 0x04B2 [0x27] REQ_SET(priority=0x10, entity_id=Karl (ID: 17784836/0x010F6004), tag_num=0x29)
 16: 0x04B9 [0x27] REQ_SET(priority=0x10, entity_id=Buntz (ID: 17784837/0x010F6005), tag_num=0x28)
 17: 0x04C0 [0x32] ExtData[1]->MainSpeed = 37* * 0.1
 18: 0x04C3 [0x1F] MOVE_ENTITY: EventEntity moves to X=-52.555*, Z=1.950*, Y=0.000*
 19: 0x04CB [0x1F] MOVE_ENTITY: Update entity position (mode=1)
 20: 0x04CD [0x6F] WAIT_FRAME_DELAY: Yield until WaitTime reaches zero
 21: 0x04CE [0x00] END_REQSTACK()
```

### Event 65535.19

#### Metadata

| Field        | Value    |
|--------------|----------|
| Entrypoint   | 0x04CF   |
| Data Size    | 15 bytes |
| Instructions | 5        |

```
      00 01 02 03 04 05 06 07  08 09 0A 0B 0C 0D 0E 0F
      -- -- -- -- -- -- -- --  -- -- -- -- -- -- -- --
04C0:                                               32                 2
04D0: 28 80 1F 00 42 80 43 80  0A 80 1F 01 6F 00        (...B.C.....o.  
```

#### Opcodes

```
  0: 0x04CF [0x32] ExtData[1]->MainSpeed = 39* * 0.1
  1: 0x04D2 [0x1F] MOVE_ENTITY: EventEntity moves to X=-49.108*, Z=2.357*, Y=0.000*
  2: 0x04DA [0x1F] MOVE_ENTITY: Update entity position (mode=1)
  3: 0x04DC [0x6F] WAIT_FRAME_DELAY: Yield until WaitTime reaches zero
  4: 0x04DD [0x00] END_REQSTACK()
```

### Event 65535.20

#### Metadata

| Field        | Value    |
|--------------|----------|
| Entrypoint   | 0x04DE   |
| Data Size    | 15 bytes |
| Instructions | 5        |

```
      00 01 02 03 04 05 06 07  08 09 0A 0B 0C 0D 0E 0F
      -- -- -- -- -- -- -- --  -- -- -- -- -- -- -- --
04D0:                                            32 2B                2+
04E0: 80 1F 00 44 80 45 80 0A  80 1F 01 6F 00           ...D.E.....o.   
```

#### Opcodes

```
  0: 0x04DE [0x32] ExtData[1]->MainSpeed = 41* * 0.1
  1: 0x04E1 [0x1F] MOVE_ENTITY: EventEntity moves to X=-51.734*, Z=2.879*, Y=0.000*
  2: 0x04E9 [0x1F] MOVE_ENTITY: Update entity position (mode=1)
  3: 0x04EB [0x6F] WAIT_FRAME_DELAY: Yield until WaitTime reaches zero
  4: 0x04EC [0x00] END_REQSTACK()
```

### Event 65535.21

#### Metadata

| Field        | Value    |
|--------------|----------|
| Entrypoint   | 0x04ED   |
| Data Size    | 15 bytes |
| Instructions | 5        |

```
      00 01 02 03 04 05 06 07  08 09 0A 0B 0C 0D 0E 0F
      -- -- -- -- -- -- -- --  -- -- -- -- -- -- -- --
04E0:                                         32 33 80               23.
04F0: 1F 00 46 80 47 80 0A 80  1F 01 6F 00              ..F.G.....o.    
```

#### Opcodes

```
  0: 0x04ED [0x32] ExtData[1]->MainSpeed = 12* * 0.1
  1: 0x04F0 [0x1F] MOVE_ENTITY: EventEntity moves to X=-50.670*, Z=2.474*, Y=0.000*
  2: 0x04F8 [0x1F] MOVE_ENTITY: Update entity position (mode=1)
  3: 0x04FA [0x6F] WAIT_FRAME_DELAY: Yield until WaitTime reaches zero
  4: 0x04FB [0x00] END_REQSTACK()
```

### Event 65535.22

#### Metadata

| Field        | Value    |
|--------------|----------|
| Entrypoint   | 0x04FC   |
| Data Size    | 80 bytes |
| Instructions | 13       |

```
      00 01 02 03 04 05 06 07  08 09 0A 0B 0C 0D 0E 0F
      -- -- -- -- -- -- -- --  -- -- -- -- -- -- -- --
04F0:                                      32 1C 80 1F              2...
0500: 00 48 80 49 80 0A 80 1F  01 79 00 45 60 0F 01 42  .H.I.....y.E`..B
0510: 60 0F 01 66 0B 80 42 60  0F 01 42 60 0F 01 74 68  `..f..B`..B`..th
0520: 6B 32 32 4A 80 4A 42 60  0F 01 45 60 0F 01 1F 00  k22J.JB`..E`....
0530: 4B 80 4C 80 0A 80 1F 01  6F 1C 0B 80 66 0A 80 45  K.L.....o...f..E
0540: 60 0F 01 45 60 0F 01 74  6C 6B 31 00              `..E`..tlk1.    
```

#### Opcodes

```
  0: 0x04FC [0x32] ExtData[1]->MainSpeed = 11* * 0.1
  1: 0x04FF [0x1F] MOVE_ENTITY: EventEntity moves to X=-92.526*, Z=-2.418*, Y=0.000*
  2: 0x0507 [0x1F] MOVE_ENTITY: Update entity position (mode=1)
  3: 0x0509 [0x79] Falak (ID: 17784901/0x010F6045) looks at Naurmaire (ID: 17784898/0x010F6042) (Basic look)
  4: 0x0513 [0x66] LOAD_EXT_SCHEDULER_MAIN: Load scheduler "thk2" with entities [Naurmaire (ID: 17784898/0x010F6042), Naurmaire (ID: 17784898/0x010F6042)], work=30*
  5: 0x0522 [0x32] ExtData[1]->MainSpeed = 38* * 0.1
  6: 0x0525 [0x4A] Naurmaire (ID: 17784898/0x010F6042) looks at Falak (ID: 17784901/0x010F6045)
  7: 0x052E [0x1F] MOVE_ENTITY: EventEntity moves to X=-98.837*, Z=-2.640*, Y=0.000*
  8: 0x0536 [0x1F] MOVE_ENTITY: Update entity position (mode=1)
  9: 0x0538 [0x6F] WAIT_FRAME_DELAY: Yield until WaitTime reaches zero
 10: 0x0539 [0x1C] WAIT(30* ticks)
 11: 0x053C [0x66] LOAD_EXT_SCHEDULER_MAIN: Load scheduler "tlk1" with entities [Falak (ID: 17784901/0x010F6045), Falak (ID: 17784901/0x010F6045)], work=0*
 12: 0x054B [0x00] END_REQSTACK()
```

### Event 65535.23

#### Metadata

| Field        | Value    |
|--------------|----------|
| Entrypoint   | 0x054C   |
| Data Size    | 15 bytes |
| Instructions | 5        |

```
      00 01 02 03 04 05 06 07  08 09 0A 0B 0C 0D 0E 0F
      -- -- -- -- -- -- -- --  -- -- -- -- -- -- -- --
0540:                                      32 33 80 1F              23..
0550: 00 4D 80 4E 80 0A 80 1F  01 6F 00                 .M.N.....o.     
```

#### Opcodes

```
  0: 0x054C [0x32] ExtData[1]->MainSpeed = 12* * 0.1
  1: 0x054F [0x1F] MOVE_ENTITY: EventEntity moves to X=4.999*, Z=-0.799*, Y=0.000*
  2: 0x0557 [0x1F] MOVE_ENTITY: Update entity position (mode=1)
  3: 0x0559 [0x6F] WAIT_FRAME_DELAY: Yield until WaitTime reaches zero
  4: 0x055A [0x00] END_REQSTACK()
```

### Event 65535.24

#### Metadata

| Field        | Value    |
|--------------|----------|
| Entrypoint   | 0x055B   |
| Data Size    | 15 bytes |
| Instructions | 5        |

```
      00 01 02 03 04 05 06 07  08 09 0A 0B 0C 0D 0E 0F
      -- -- -- -- -- -- -- --  -- -- -- -- -- -- -- --
0550:                                   32 16 80 1F 00             2....
0560: 4F 80 50 80 0A 80 1F 01  6F 00                    O.P.....o.      
```

#### Opcodes

```
  0: 0x055B [0x32] ExtData[1]->MainSpeed = 13* * 0.1
  1: 0x055E [0x1F] MOVE_ENTITY: EventEntity moves to X=-76.908*, Z=-2.465*, Y=0.000*
  2: 0x0566 [0x1F] MOVE_ENTITY: Update entity position (mode=1)
  3: 0x0568 [0x6F] WAIT_FRAME_DELAY: Yield until WaitTime reaches zero
  4: 0x0569 [0x00] END_REQSTACK()
```

### Event 65535.25

#### Metadata

| Field        | Value    |
|--------------|----------|
| Entrypoint   | 0x056A   |
| Data Size    | 15 bytes |
| Instructions | 5        |

```
      00 01 02 03 04 05 06 07  08 09 0A 0B 0C 0D 0E 0F
      -- -- -- -- -- -- -- --  -- -- -- -- -- -- -- --
0560:                                32 1C 80 1F 00 51            2....Q
0570: 80 52 80 0A 80 1F 01 6F  00                       .R.....o.       
```

#### Opcodes

```
  0: 0x056A [0x32] ExtData[1]->MainSpeed = 11* * 0.1
  1: 0x056D [0x1F] MOVE_ENTITY: EventEntity moves to X=-50.956*, Z=-2.015*, Y=0.000*
  2: 0x0575 [0x1F] MOVE_ENTITY: Update entity position (mode=1)
  3: 0x0577 [0x6F] WAIT_FRAME_DELAY: Yield until WaitTime reaches zero
  4: 0x0578 [0x00] END_REQSTACK()
```

### Event 65535.26

#### Metadata

| Field        | Value    |
|--------------|----------|
| Entrypoint   | 0x0579   |
| Data Size    | 15 bytes |
| Instructions | 5        |

```
      00 01 02 03 04 05 06 07  08 09 0A 0B 0C 0D 0E 0F
      -- -- -- -- -- -- -- --  -- -- -- -- -- -- -- --
0570:                             32 1C 80 1F 00 53 80           2....S.
0580: 54 80 0A 80 1F 01 6F 00                           T.....o.        
```

#### Opcodes

```
  0: 0x0579 [0x32] ExtData[1]->MainSpeed = 11* * 0.1
  1: 0x057C [0x1F] MOVE_ENTITY: EventEntity moves to X=-106.865*, Z=2.201*, Y=0.000*
  2: 0x0584 [0x1F] MOVE_ENTITY: Update entity position (mode=1)
  3: 0x0586 [0x6F] WAIT_FRAME_DELAY: Yield until WaitTime reaches zero
  4: 0x0587 [0x00] END_REQSTACK()
```

### Event 65535.27

#### Metadata

| Field        | Value    |
|--------------|----------|
| Entrypoint   | 0x0588   |
| Data Size    | 15 bytes |
| Instructions | 5        |

```
      00 01 02 03 04 05 06 07  08 09 0A 0B 0C 0D 0E 0F
      -- -- -- -- -- -- -- --  -- -- -- -- -- -- -- --
0580:                          32 16 80 1F 00 55 80 56          2....U.V
0590: 80 0A 80 1F 01 6F 00                              .....o.         
```

#### Opcodes

```
  0: 0x0588 [0x32] ExtData[1]->MainSpeed = 13* * 0.1
  1: 0x058B [0x1F] MOVE_ENTITY: EventEntity moves to X=-36.731*, Z=-2.282*, Y=0.000*
  2: 0x0593 [0x1F] MOVE_ENTITY: Update entity position (mode=1)
  3: 0x0595 [0x6F] WAIT_FRAME_DELAY: Yield until WaitTime reaches zero
  4: 0x0596 [0x00] END_REQSTACK()
```

### Event 65535.28

#### Metadata

| Field        | Value    |
|--------------|----------|
| Entrypoint   | 0x0597   |
| Data Size    | 53 bytes |
| Instructions | 10       |

```
      00 01 02 03 04 05 06 07  08 09 0A 0B 0C 0D 0E 0F
      -- -- -- -- -- -- -- --  -- -- -- -- -- -- -- --
0590:                      32  16 80 1F 00 57 80 58 80         2....W.X.
05A0: 0A 80 1F 01 1F 00 59 80  5A 80 0A 80 1F 01 6F 1C  ......Y.Z.....o.
05B0: 24 80 79 00 49 60 0F 01  86 60 0F 01 5B 5B 80 86  $.y.I`...`..[[..
05C0: 60 0F 01 86 60 0F 01 74  6C 6B 30 00              `...`..tlk0.    
```

#### Opcodes

```
  0: 0x0597 [0x32] ExtData[1]->MainSpeed = 13* * 0.1
  1: 0x059A [0x1F] MOVE_ENTITY: EventEntity moves to X=-58.047*, Z=9.433*, Y=0.000*
  2: 0x05A2 [0x1F] MOVE_ENTITY: Update entity position (mode=1)
  3: 0x05A4 [0x1F] MOVE_ENTITY: EventEntity moves to X=-56.466*, Z=10.018*, Y=0.000*
  4: 0x05AC [0x1F] MOVE_ENTITY: Update entity position (mode=1)
  5: 0x05AE [0x6F] WAIT_FRAME_DELAY: Yield until WaitTime reaches zero
  6: 0x05AF [0x1C] WAIT(15* ticks)
  7: 0x05B2 [0x79] Shami (ID: 17784905/0x010F6049) looks at Squintrox Dryeyes (ID: 17784966/0x010F6086) (Basic look)
  8: 0x05BC [0x5B] LOAD_EXT_SCHEDULER: Load scheduler "tlk0" with entities [Squintrox Dryeyes (ID: 17784966/0x010F6086), Squintrox Dryeyes (ID: 17784966/0x010F6086)], work=215*
  9: 0x05CB [0x00] END_REQSTACK()
```

### Event 65535.29

#### Metadata

| Field        | Value    |
|--------------|----------|
| Entrypoint   | 0x05CC   |
| Data Size    | 58 bytes |
| Instructions | 11       |

```
      00 01 02 03 04 05 06 07  08 09 0A 0B 0C 0D 0E 0F
      -- -- -- -- -- -- -- --  -- -- -- -- -- -- -- --
05C0:                                      32 16 80 79              2..y
05D0: 00 3E 60 0F 01 28 60 0F  01 1F 00 5C 80 5D 80 0A  .>`..(`....\.]..
05E0: 80 1F 01 6F 1C 24 80 4A  3E 60 0F 01 28 60 0F 01  ...o.$.J>`..(`..
05F0: 6F 76 3E 60 0F 01 66 5E  80 3E 60 0F 01 3E 60 0F  ov>`..f^.>`..>`.
0600: 01 74 6C 6B 30 00                                 .tlk0.          
```

#### Opcodes

```
  0: 0x05CC [0x32] ExtData[1]->MainSpeed = 13* * 0.1
  1: 0x05CF [0x79] Leffquen (ID: 17784894/0x010F603E) looks at Ramicharaux (ID: 17784872/0x010F6028) (Basic look)
  2: 0x05D9 [0x1F] MOVE_ENTITY: EventEntity moves to X=-52.055*, Z=2.177*, Y=0.000*
  3: 0x05E1 [0x1F] MOVE_ENTITY: Update entity position (mode=1)
  4: 0x05E3 [0x6F] WAIT_FRAME_DELAY: Yield until WaitTime reaches zero
  5: 0x05E4 [0x1C] WAIT(15* ticks)
  6: 0x05E7 [0x4A] Leffquen (ID: 17784894/0x010F603E) looks at Ramicharaux (ID: 17784872/0x010F6028)
  7: 0x05F0 [0x6F] WAIT_FRAME_DELAY: Yield until WaitTime reaches zero
  8: 0x05F1 [0x76] CHECK_ENTITY_RENDER_FLAGS: Wait until Leffquen (ID: 17784894/0x010F603E) Render.Flags0 and Render.Flags3 conditions are met
  9: 0x05F6 [0x66] LOAD_EXT_SCHEDULER_MAIN: Load scheduler "tlk0" with entities [Leffquen (ID: 17784894/0x010F603E), Leffquen (ID: 17784894/0x010F603E)], work=19*
 10: 0x0605 [0x00] END_REQSTACK()
```

### Event 431

#### Metadata

| Field        | Value   |
|--------------|---------|
| Entrypoint   | 0x0606  |
| Data Size    | 1 bytes |
| Instructions | 1       |

```
      00 01 02 03 04 05 06 07  08 09 0A 0B 0C 0D 0E 0F
      -- -- -- -- -- -- -- --  -- -- -- -- -- -- -- --
0600:                   00                                    .         
```

#### Opcodes

```
  0: 0x0606 [0x00] END_REQSTACK()
```

### Event 434

#### Metadata

| Field        | Value   |
|--------------|---------|
| Entrypoint   | 0x0607  |
| Data Size    | 7 bytes |
| Instructions | 2       |

```
      00 01 02 03 04 05 06 07  08 09 0A 0B 0C 0D 0E 0F
      -- -- -- -- -- -- -- --  -- -- -- -- -- -- -- --
0600:                      92  01 F8 FF FF 7F 00               .......  
```

#### Opcodes

```
  0: 0x0607 [0x92] EventEntity->Render.Flags3 ^= 0x01
  1: 0x060D [0x00] END_REQSTACK()
```

### Event 65535.30

#### Metadata

| Field        | Value    |
|--------------|----------|
| Entrypoint   | 0x060E   |
| Data Size    | 89 bytes |
| Instructions | 21       |

```
      00 01 02 03 04 05 06 07  08 09 0A 0B 0C 0D 0E 0F
      -- -- -- -- -- -- -- --  -- -- -- -- -- -- -- --
0600:                                            32 36                26
0610: 80 1F 00 5F 80 60 80 0A  80 1F 01 1C 2F 80 39 61  ..._.`....../.9a
0620: 80 6F 70 1C 2F 80 5B 00  80 F8 FF FF 7F F8 FF FF  .op./.[.........
0630: 7F 74 6C 6B 30 1C 1B 80  5B 00 80 F8 FF FF 7F F8  .tlk0...[.......
0640: FF FF 7F 74 6C 6B 31 1C  05 80 39 0A 80 6F 70 1C  ...tlk1...9..op.
0650: 2F 80 1F 00 62 80 60 80  0A 80 1F 01 1F 00 63 80  /...b.`.......c.
0660: 64 80 0A 80 1F 01 00                              d......         
```

#### Opcodes

```
  0: 0x060E [0x32] ExtData[1]->MainSpeed = 40* * 0.1
  1: 0x0611 [0x1F] MOVE_ENTITY: EventEntity moves to X=-82.000*, Z=-4.000*, Y=0.000*
  2: 0x0619 [0x1F] MOVE_ENTITY: Update entity position (mode=1)
  3: 0x061B [0x1C] WAIT(10* ticks)
  4: 0x061E [0x39] SET_ENTITY_DIRECTION(direction=11.2°*)
  5: 0x0621 [0x6F] WAIT_FRAME_DELAY: Yield until WaitTime reaches zero
  6: 0x0622 [0x70] WAIT_ENTITY_RENDER_FLAG: Wait while EventEntity->Render.Flags3 bit 2 is set (cancel turn if not)
  7: 0x0623 [0x1C] WAIT(10* ticks)
  8: 0x0626 [0x5B] LOAD_EXT_SCHEDULER: Load scheduler "tlk0" with entities [EventEntity, EventEntity], work=75*
  9: 0x0635 [0x1C] WAIT(120* ticks)
 10: 0x0638 [0x5B] LOAD_EXT_SCHEDULER: Load scheduler "tlk1" with entities [EventEntity, EventEntity], work=75*
 11: 0x0647 [0x1C] WAIT(60* ticks)
 12: 0x064A [0x39] SET_ENTITY_DIRECTION(direction=0.0°*)
 13: 0x064D [0x6F] WAIT_FRAME_DELAY: Yield until WaitTime reaches zero
 14: 0x064E [0x70] WAIT_ENTITY_RENDER_FLAG: Wait while EventEntity->Render.Flags3 bit 2 is set (cancel turn if not)
 15: 0x064F [0x1C] WAIT(10* ticks)
 16: 0x0652 [0x1F] MOVE_ENTITY: EventEntity moves to X=-62.000*, Z=-4.000*, Y=0.000*
 17: 0x065A [0x1F] MOVE_ENTITY: Update entity position (mode=1)
 18: 0x065C [0x1F] MOVE_ENTITY: EventEntity moves to X=-60.886*, Z=-8.909*, Y=0.000*
 19: 0x0664 [0x1F] MOVE_ENTITY: Update entity position (mode=1)
 20: 0x0666 [0x00] END_REQSTACK()
```

### Event 65535.31

#### Metadata

| Field        | Value    |
|--------------|----------|
| Entrypoint   | 0x0667   |
| Data Size    | 58 bytes |
| Instructions | 12       |

```
      00 01 02 03 04 05 06 07  08 09 0A 0B 0C 0D 0E 0F
      -- -- -- -- -- -- -- --  -- -- -- -- -- -- -- --
0660:                      5B  00 80 F8 FF FF 7F F8 FF         [........
0670: FF 7F 74 68 6B 31 1C 65  80 5B 00 80 F8 FF FF 7F  ..thk1.e.[......
0680: F8 FF FF 7F 74 68 6B 32  1C 05 80 39 0A 80 6F 70  ....thk2...9..op
0690: 1C 2F 80 32 36 80 1F 00  62 80 60 80 0A 80 1F 01  ./.26...b.`.....
06A0: 00                                                .               
```

#### Opcodes

```
  0: 0x0667 [0x5B] LOAD_EXT_SCHEDULER: Load scheduler "thk1" with entities [EventEntity, EventEntity], work=75*
  1: 0x0676 [0x1C] WAIT(180* ticks)
  2: 0x0679 [0x5B] LOAD_EXT_SCHEDULER: Load scheduler "thk2" with entities [EventEntity, EventEntity], work=75*
  3: 0x0688 [0x1C] WAIT(60* ticks)
  4: 0x068B [0x39] SET_ENTITY_DIRECTION(direction=0.0°*)
  5: 0x068E [0x6F] WAIT_FRAME_DELAY: Yield until WaitTime reaches zero
  6: 0x068F [0x70] WAIT_ENTITY_RENDER_FLAG: Wait while EventEntity->Render.Flags3 bit 2 is set (cancel turn if not)
  7: 0x0690 [0x1C] WAIT(10* ticks)
  8: 0x0693 [0x32] ExtData[1]->MainSpeed = 40* * 0.1
  9: 0x0696 [0x1F] MOVE_ENTITY: EventEntity moves to X=-62.000*, Z=-4.000*, Y=0.000*
 10: 0x069E [0x1F] MOVE_ENTITY: Update entity position (mode=1)
 11: 0x06A0 [0x00] END_REQSTACK()
```

### Event 443

#### Metadata

| Field        | Value   |
|--------------|---------|
| Entrypoint   | 0x06A1  |
| Data Size    | 1 bytes |
| Instructions | 1       |

```
      00 01 02 03 04 05 06 07  08 09 0A 0B 0C 0D 0E 0F
      -- -- -- -- -- -- -- --  -- -- -- -- -- -- -- --
06A0:    00                                              .              
```

#### Opcodes

```
  0: 0x06A1 [0x00] END_REQSTACK()
```
