# 17784898 - Naurmaire

## Common Data

| Field            | Value                |
|------------------|----------------------|
| Zone             | Port Jeuno (ID: 246) |
| Block Size       | 1712 bytes           |
| Total Events     | 41                   |
| References Count | 80                   |

## List of Events

| Event ID                   | Entrypoint   |   Size |   Instructions |
|----------------------------|--------------|--------|----------------|
| [65535](#event-65535)      | 0x0000       |      1 |              1 |
| [7](#event-7)              | 0x0001       |     46 |             10 |
| [324](#event-324)          | 0x002F       |     18 |              4 |
| [325](#event-325)          | 0x0041       |     18 |              4 |
| [327](#event-327)          | 0x0053       |     18 |              4 |
| [331](#event-331)          | 0x0065       |     18 |              4 |
| [332](#event-332)          | 0x0077       |     18 |              4 |
| [333](#event-333)          | 0x0089       |     18 |              4 |
| [334](#event-334)          | 0x009B       |     18 |              4 |
| [335](#event-335)          | 0x00AD       |     18 |              4 |
| [336](#event-336)          | 0x00BF       |     18 |              4 |
| [337](#event-337)          | 0x00D1       |     18 |              4 |
| [338](#event-338)          | 0x00E3       |     18 |              4 |
| [340](#event-340)          | 0x00F5       |     18 |              4 |
| [341](#event-341)          | 0x0107       |     18 |              4 |
| [342](#event-342)          | 0x0119       |     18 |              4 |
| [343](#event-343)          | 0x012B       |     18 |              4 |
| [344](#event-344)          | 0x013D       |     18 |              4 |
| [345](#event-345)          | 0x014F       |     18 |              4 |
| [65535.1](#event-655351)   | 0x0161       |     40 |              8 |
| [65535.2](#event-655352)   | 0x0189       |     40 |              8 |
| [65535.3](#event-655353)   | 0x01B1       |    139 |             22 |
| [65535.4](#event-655354)   | 0x023C       |     15 |              5 |
| [65535.5](#event-655355)   | 0x024B       |     15 |              5 |
| [65535.6](#event-655356)   | 0x025A       |     30 |              8 |
| [65535.7](#event-655357)   | 0x0278       |     16 |              2 |
| [65535.8](#event-655358)   | 0x0288       |     33 |              7 |
| [65535.9](#event-655359)   | 0x02A9       |     33 |              7 |
| [65535.10](#event-6553510) | 0x02CA       |     45 |             13 |
| [65535.11](#event-6553511) | 0x02F7       |    139 |             22 |
| [65535.12](#event-6553512) | 0x0382       |     15 |              5 |
| [65535.13](#event-6553513) | 0x0391       |     15 |              5 |
| [65535.14](#event-6553514) | 0x03A0       |     15 |              5 |
| [65535.15](#event-6553515) | 0x03AF       |     80 |             13 |
| [65535.16](#event-6553516) | 0x03FF       |     15 |              5 |
| [65535.17](#event-6553517) | 0x040E       |     15 |              5 |
| [65535.18](#event-6553518) | 0x041D       |     15 |              5 |
| [65535.19](#event-6553519) | 0x042C       |     15 |              5 |
| [65535.20](#event-6553520) | 0x043B       |     15 |              5 |
| [65535.21](#event-6553521) | 0x044A       |     53 |             10 |
| [65535.22](#event-6553522) | 0x047F       |     58 |             11 |

## DAT References (imed_data)

|   Index | Hex Value   |   Dec Value |
|---------|-------------|-------------|
|       0 | 0x001E      |          30 |
|       1 | 0x1BC4      |        7108 |
|       2 | 0x003C      |          60 |
|       3 | 0x0015      |          21 |
|       4 | 0x005A      |          90 |
|       5 | 0x000D      |          13 |
|       6 | 0xFFFF43BD  |  4294919101 |
|       7 | 0x0E16      |        3606 |
|       8 | 0x0000      |           0 |
|       9 | 0x03CD      |         973 |
|      10 | 0x0034      |          52 |
|      11 | 0x0078      |         120 |
|      12 | 0x000B      |          11 |
|      13 | 0x5D1F      |       23839 |
|      14 | 0x1781      |        6017 |
|      15 | 0x02AF      |         687 |
|      16 | 0x0051      |          81 |
|      17 | 0x002D      |          45 |
|      18 | 0x0005      |           5 |
|      19 | 0x08AE      |        2222 |
|      20 | 0x004B      |          75 |
|      21 | 0x000F      |          15 |
|      22 | 0x0025      |          37 |
|      23 | 0xFFFEC504  |  4294886660 |
|      24 | 0xFFFFEAAC  |  4294961836 |
|      25 | 0x0027      |          39 |
|      26 | 0xFFFEC210  |  4294885904 |
|      27 | 0xFFFFEF62  |  4294963042 |
|      28 | 0x0029      |          41 |
|      29 | 0xFFFEBC38  |  4294884408 |
|      30 | 0xFFFFED5A  |  4294962522 |
|      31 | 0x0006      |           6 |
|      32 | 0x000A      |          10 |
|      33 | 0xFFFEAFBE  |  4294881214 |
|      34 | 0xFFFFFA5E  |  4294965854 |
|      35 | 0x00D8      |         216 |
|      36 | 0x000C      |          12 |
|      37 | 0xFFFE7646  |  4294866502 |
|      38 | 0xFFFFF1A1  |  4294963617 |
|      39 | 0x0028      |          40 |
|      40 | 0xFFFF89FB  |  4294937083 |
|      41 | 0xFFFFFA22  |  4294965794 |
|      42 | 0xFFFE86B8  |  4294870712 |
|      43 | 0xFFFFDEB9  |  4294958777 |
|      44 | 0x0E02      |        3586 |
|      45 | 0x0168      |         360 |
|      46 | 0xFFFE880F  |  4294871055 |
|      47 | 0x22A8      |        8872 |
|      48 | 0x0200      |         512 |
|      49 | 0xFFFF32B5  |  4294914741 |
|      50 | 0x079E      |        1950 |
|      51 | 0xFFFF402C  |  4294918188 |
|      52 | 0x0935      |        2357 |
|      53 | 0xFFFF35EA  |  4294915562 |
|      54 | 0x0B3F      |        2879 |
|      55 | 0xFFFF3A12  |  4294916626 |
|      56 | 0x09AA      |        2474 |
|      57 | 0xFFFE9692  |  4294874770 |
|      58 | 0xFFFFF68E  |  4294964878 |
|      59 | 0x0026      |          38 |
|      60 | 0xFFFE7DEB  |  4294868459 |
|      61 | 0xFFFFF5B0  |  4294964656 |
|      62 | 0x1387      |        4999 |
|      63 | 0xFFFFFCE1  |  4294966497 |
|      64 | 0xFFFED394  |  4294890388 |
|      65 | 0xFFFFF65F  |  4294964831 |
|      66 | 0xFFFF38F4  |  4294916340 |
|      67 | 0xFFFFF821  |  4294965281 |
|      68 | 0xFFFE5E8F  |  4294860431 |
|      69 | 0x0899      |        2201 |
|      70 | 0xFFFF7085  |  4294930565 |
|      71 | 0xFFFFF716  |  4294965014 |
|      72 | 0xFFFF1D41  |  4294909249 |
|      73 | 0x24D9      |        9433 |
|      74 | 0xFFFF236E  |  4294910830 |
|      75 | 0x2722      |       10018 |
|      76 | 0x00D7      |         215 |
|      77 | 0xFFFF34A9  |  4294915241 |
|      78 | 0x0881      |        2177 |
|      79 | 0x0013      |          19 |

## String References

- **7108**: Welcome to Port Jeuno, the busiest airship hub anywhere! You can't miss the awe-inspiring view of airships in flight!

## Events

### Event 65535

#### Metadata

| Field        | Value   |
|--------------|---------|
| Entrypoint   | 0x0000  |
| Data Size    | 1 bytes |
| Instructions | 1       |

```
      00 01 02 03 04 05 06 07  08 09 0A 0B 0C 0D 0E 0F
      -- -- -- -- -- -- -- --  -- -- -- -- -- -- -- --
0000: 00                                                .               
```

#### Opcodes

```
  0: 0x0000 [0x00] END_REQSTACK()
```

### Event 7

#### Metadata

| Field        | Value    |
|--------------|----------|
| Entrypoint   | 0x0001   |
| Data Size    | 46 bytes |
| Instructions | 10       |

```
      00 01 02 03 04 05 06 07  08 09 0A 0B 0C 0D 0E 0F
      -- -- -- -- -- -- -- --  -- -- -- -- -- -- -- --
0000:    1E F0 FF FF 7F 6F 70  66 00 80 F8 FF FF 7F F8   .....opf.......
0010: FF FF 7F 74 6C 6B 30 1D  01 80 23 66 00 80 F8 FF  ...tlk0...#f....
0020: FF 7F F8 FF FF 7F 74 6C  6B 31 1C 02 80 21 00     ......tlk1...!. 
```

#### Opcodes

```
  0: 0x0001 [0x1E] EventEntity looks at LocalPlayer and starts talking
  1: 0x0006 [0x6F] WAIT_FRAME_DELAY: Yield until WaitTime reaches zero
  2: 0x0007 [0x70] WAIT_ENTITY_RENDER_FLAG: Wait while EventEntity->Render.Flags3 bit 2 is set (cancel turn if not)
  3: 0x0008 [0x66] LOAD_EXT_SCHEDULER_MAIN: Load scheduler "tlk0" with entities [EventEntity, EventEntity], work=30*
  4: 0x0017 [0x1D] PRINT_EVENT_MESSAGE(message_id=7108*)
    → "Welcome to Port Jeuno, the busiest airship hub anywhere! You can't miss the awe-inspiring view of airships in flight!"
  5: 0x001A [0x23] WAIT_FOR_DIALOG_INTERACTION
  6: 0x001B [0x66] LOAD_EXT_SCHEDULER_MAIN: Load scheduler "tlk1" with entities [EventEntity, EventEntity], work=30*
  7: 0x002A [0x1C] WAIT(60* ticks)
  8: 0x002D [0x21] END_EVENT
  9: 0x002E [0x00] END_REQSTACK()
```

### Event 324

#### Metadata

| Field        | Value    |
|--------------|----------|
| Entrypoint   | 0x002F   |
| Data Size    | 18 bytes |
| Instructions | 4        |

```
      00 01 02 03 04 05 06 07  08 09 0A 0B 0C 0D 0E 0F
      -- -- -- -- -- -- -- --  -- -- -- -- -- -- -- --
0020:                                               92                 .
0030: 01 F8 FF FF 7F 94 01 F8  FF FF 7F 80 F8 FF FF 7F  ................
0040: 00                                                .               
```

#### Opcodes

```
  0: 0x002F [0x92] EventEntity->Render.Flags3 ^= 0x01
  1: 0x0035 [0x94] EventEntity->Render.Flags3 ^= 0x01
  2: 0x003B [0x80] LOAD_WAIT(entity=EventEntity)
  3: 0x0040 [0x00] END_REQSTACK()
```

### Event 325

#### Metadata

| Field        | Value    |
|--------------|----------|
| Entrypoint   | 0x0041   |
| Data Size    | 18 bytes |
| Instructions | 4        |

```
      00 01 02 03 04 05 06 07  08 09 0A 0B 0C 0D 0E 0F
      -- -- -- -- -- -- -- --  -- -- -- -- -- -- -- --
0040:    92 01 F8 FF FF 7F 94  01 F8 FF FF 7F 80 F8 FF   ...............
0050: FF 7F 00                                          ...             
```

#### Opcodes

```
  0: 0x0041 [0x92] EventEntity->Render.Flags3 ^= 0x01
  1: 0x0047 [0x94] EventEntity->Render.Flags3 ^= 0x01
  2: 0x004D [0x80] LOAD_WAIT(entity=EventEntity)
  3: 0x0052 [0x00] END_REQSTACK()
```

### Event 327

#### Metadata

| Field        | Value    |
|--------------|----------|
| Entrypoint   | 0x0053   |
| Data Size    | 18 bytes |
| Instructions | 4        |

```
      00 01 02 03 04 05 06 07  08 09 0A 0B 0C 0D 0E 0F
      -- -- -- -- -- -- -- --  -- -- -- -- -- -- -- --
0050:          92 01 F8 FF FF  7F 94 01 F8 FF FF 7F 80     .............
0060: F8 FF FF 7F 00                                    .....           
```

#### Opcodes

```
  0: 0x0053 [0x92] EventEntity->Render.Flags3 ^= 0x01
  1: 0x0059 [0x94] EventEntity->Render.Flags3 ^= 0x01
  2: 0x005F [0x80] LOAD_WAIT(entity=EventEntity)
  3: 0x0064 [0x00] END_REQSTACK()
```

### Event 331

#### Metadata

| Field        | Value    |
|--------------|----------|
| Entrypoint   | 0x0065   |
| Data Size    | 18 bytes |
| Instructions | 4        |

```
      00 01 02 03 04 05 06 07  08 09 0A 0B 0C 0D 0E 0F
      -- -- -- -- -- -- -- --  -- -- -- -- -- -- -- --
0060:                92 01 F8  FF FF 7F 94 01 F8 FF FF       ...........
0070: 7F 80 F8 FF FF 7F 00                              .......         
```

#### Opcodes

```
  0: 0x0065 [0x92] EventEntity->Render.Flags3 ^= 0x01
  1: 0x006B [0x94] EventEntity->Render.Flags3 ^= 0x01
  2: 0x0071 [0x80] LOAD_WAIT(entity=EventEntity)
  3: 0x0076 [0x00] END_REQSTACK()
```

### Event 332

#### Metadata

| Field        | Value    |
|--------------|----------|
| Entrypoint   | 0x0077   |
| Data Size    | 18 bytes |
| Instructions | 4        |

```
      00 01 02 03 04 05 06 07  08 09 0A 0B 0C 0D 0E 0F
      -- -- -- -- -- -- -- --  -- -- -- -- -- -- -- --
0070:                      92  01 F8 FF FF 7F 94 01 F8         .........
0080: FF FF 7F 80 F8 FF FF 7F  00                       .........       
```

#### Opcodes

```
  0: 0x0077 [0x92] EventEntity->Render.Flags3 ^= 0x01
  1: 0x007D [0x94] EventEntity->Render.Flags3 ^= 0x01
  2: 0x0083 [0x80] LOAD_WAIT(entity=EventEntity)
  3: 0x0088 [0x00] END_REQSTACK()
```

### Event 333

#### Metadata

| Field        | Value    |
|--------------|----------|
| Entrypoint   | 0x0089   |
| Data Size    | 18 bytes |
| Instructions | 4        |

```
      00 01 02 03 04 05 06 07  08 09 0A 0B 0C 0D 0E 0F
      -- -- -- -- -- -- -- --  -- -- -- -- -- -- -- --
0080:                             92 01 F8 FF FF 7F 94           .......
0090: 01 F8 FF FF 7F 80 F8 FF  FF 7F 00                 ...........     
```

#### Opcodes

```
  0: 0x0089 [0x92] EventEntity->Render.Flags3 ^= 0x01
  1: 0x008F [0x94] EventEntity->Render.Flags3 ^= 0x01
  2: 0x0095 [0x80] LOAD_WAIT(entity=EventEntity)
  3: 0x009A [0x00] END_REQSTACK()
```

### Event 334

#### Metadata

| Field        | Value    |
|--------------|----------|
| Entrypoint   | 0x009B   |
| Data Size    | 18 bytes |
| Instructions | 4        |

```
      00 01 02 03 04 05 06 07  08 09 0A 0B 0C 0D 0E 0F
      -- -- -- -- -- -- -- --  -- -- -- -- -- -- -- --
0090:                                   92 01 F8 FF FF             .....
00A0: 7F 94 01 F8 FF FF 7F 80  F8 FF FF 7F 00           .............   
```

#### Opcodes

```
  0: 0x009B [0x92] EventEntity->Render.Flags3 ^= 0x01
  1: 0x00A1 [0x94] EventEntity->Render.Flags3 ^= 0x01
  2: 0x00A7 [0x80] LOAD_WAIT(entity=EventEntity)
  3: 0x00AC [0x00] END_REQSTACK()
```

### Event 335

#### Metadata

| Field        | Value    |
|--------------|----------|
| Entrypoint   | 0x00AD   |
| Data Size    | 18 bytes |
| Instructions | 4        |

```
      00 01 02 03 04 05 06 07  08 09 0A 0B 0C 0D 0E 0F
      -- -- -- -- -- -- -- --  -- -- -- -- -- -- -- --
00A0:                                         92 01 F8               ...
00B0: FF FF 7F 94 01 F8 FF FF  7F 80 F8 FF FF 7F 00     ............... 
```

#### Opcodes

```
  0: 0x00AD [0x92] EventEntity->Render.Flags3 ^= 0x01
  1: 0x00B3 [0x94] EventEntity->Render.Flags3 ^= 0x01
  2: 0x00B9 [0x80] LOAD_WAIT(entity=EventEntity)
  3: 0x00BE [0x00] END_REQSTACK()
```

### Event 336

#### Metadata

| Field        | Value    |
|--------------|----------|
| Entrypoint   | 0x00BF   |
| Data Size    | 18 bytes |
| Instructions | 4        |

```
      00 01 02 03 04 05 06 07  08 09 0A 0B 0C 0D 0E 0F
      -- -- -- -- -- -- -- --  -- -- -- -- -- -- -- --
00B0:                                               92                 .
00C0: 01 F8 FF FF 7F 94 01 F8  FF FF 7F 80 F8 FF FF 7F  ................
00D0: 00                                                .               
```

#### Opcodes

```
  0: 0x00BF [0x92] EventEntity->Render.Flags3 ^= 0x01
  1: 0x00C5 [0x94] EventEntity->Render.Flags3 ^= 0x01
  2: 0x00CB [0x80] LOAD_WAIT(entity=EventEntity)
  3: 0x00D0 [0x00] END_REQSTACK()
```

### Event 337

#### Metadata

| Field        | Value    |
|--------------|----------|
| Entrypoint   | 0x00D1   |
| Data Size    | 18 bytes |
| Instructions | 4        |

```
      00 01 02 03 04 05 06 07  08 09 0A 0B 0C 0D 0E 0F
      -- -- -- -- -- -- -- --  -- -- -- -- -- -- -- --
00D0:    92 01 F8 FF FF 7F 94  01 F8 FF FF 7F 80 F8 FF   ...............
00E0: FF 7F 00                                          ...             
```

#### Opcodes

```
  0: 0x00D1 [0x92] EventEntity->Render.Flags3 ^= 0x01
  1: 0x00D7 [0x94] EventEntity->Render.Flags3 ^= 0x01
  2: 0x00DD [0x80] LOAD_WAIT(entity=EventEntity)
  3: 0x00E2 [0x00] END_REQSTACK()
```

### Event 338

#### Metadata

| Field        | Value    |
|--------------|----------|
| Entrypoint   | 0x00E3   |
| Data Size    | 18 bytes |
| Instructions | 4        |

```
      00 01 02 03 04 05 06 07  08 09 0A 0B 0C 0D 0E 0F
      -- -- -- -- -- -- -- --  -- -- -- -- -- -- -- --
00E0:          92 01 F8 FF FF  7F 94 01 F8 FF FF 7F 80     .............
00F0: F8 FF FF 7F 00                                    .....           
```

#### Opcodes

```
  0: 0x00E3 [0x92] EventEntity->Render.Flags3 ^= 0x01
  1: 0x00E9 [0x94] EventEntity->Render.Flags3 ^= 0x01
  2: 0x00EF [0x80] LOAD_WAIT(entity=EventEntity)
  3: 0x00F4 [0x00] END_REQSTACK()
```

### Event 340

#### Metadata

| Field        | Value    |
|--------------|----------|
| Entrypoint   | 0x00F5   |
| Data Size    | 18 bytes |
| Instructions | 4        |

```
      00 01 02 03 04 05 06 07  08 09 0A 0B 0C 0D 0E 0F
      -- -- -- -- -- -- -- --  -- -- -- -- -- -- -- --
00F0:                92 01 F8  FF FF 7F 94 01 F8 FF FF       ...........
0100: 7F 80 F8 FF FF 7F 00                              .......         
```

#### Opcodes

```
  0: 0x00F5 [0x92] EventEntity->Render.Flags3 ^= 0x01
  1: 0x00FB [0x94] EventEntity->Render.Flags3 ^= 0x01
  2: 0x0101 [0x80] LOAD_WAIT(entity=EventEntity)
  3: 0x0106 [0x00] END_REQSTACK()
```

### Event 341

#### Metadata

| Field        | Value    |
|--------------|----------|
| Entrypoint   | 0x0107   |
| Data Size    | 18 bytes |
| Instructions | 4        |

```
      00 01 02 03 04 05 06 07  08 09 0A 0B 0C 0D 0E 0F
      -- -- -- -- -- -- -- --  -- -- -- -- -- -- -- --
0100:                      92  01 F8 FF FF 7F 94 01 F8         .........
0110: FF FF 7F 80 F8 FF FF 7F  00                       .........       
```

#### Opcodes

```
  0: 0x0107 [0x92] EventEntity->Render.Flags3 ^= 0x01
  1: 0x010D [0x94] EventEntity->Render.Flags3 ^= 0x01
  2: 0x0113 [0x80] LOAD_WAIT(entity=EventEntity)
  3: 0x0118 [0x00] END_REQSTACK()
```

### Event 342

#### Metadata

| Field        | Value    |
|--------------|----------|
| Entrypoint   | 0x0119   |
| Data Size    | 18 bytes |
| Instructions | 4        |

```
      00 01 02 03 04 05 06 07  08 09 0A 0B 0C 0D 0E 0F
      -- -- -- -- -- -- -- --  -- -- -- -- -- -- -- --
0110:                             92 01 F8 FF FF 7F 94           .......
0120: 01 F8 FF FF 7F 80 F8 FF  FF 7F 00                 ...........     
```

#### Opcodes

```
  0: 0x0119 [0x92] EventEntity->Render.Flags3 ^= 0x01
  1: 0x011F [0x94] EventEntity->Render.Flags3 ^= 0x01
  2: 0x0125 [0x80] LOAD_WAIT(entity=EventEntity)
  3: 0x012A [0x00] END_REQSTACK()
```

### Event 343

#### Metadata

| Field        | Value    |
|--------------|----------|
| Entrypoint   | 0x012B   |
| Data Size    | 18 bytes |
| Instructions | 4        |

```
      00 01 02 03 04 05 06 07  08 09 0A 0B 0C 0D 0E 0F
      -- -- -- -- -- -- -- --  -- -- -- -- -- -- -- --
0120:                                   92 01 F8 FF FF             .....
0130: 7F 94 01 F8 FF FF 7F 80  F8 FF FF 7F 00           .............   
```

#### Opcodes

```
  0: 0x012B [0x92] EventEntity->Render.Flags3 ^= 0x01
  1: 0x0131 [0x94] EventEntity->Render.Flags3 ^= 0x01
  2: 0x0137 [0x80] LOAD_WAIT(entity=EventEntity)
  3: 0x013C [0x00] END_REQSTACK()
```

### Event 344

#### Metadata

| Field        | Value    |
|--------------|----------|
| Entrypoint   | 0x013D   |
| Data Size    | 18 bytes |
| Instructions | 4        |

```
      00 01 02 03 04 05 06 07  08 09 0A 0B 0C 0D 0E 0F
      -- -- -- -- -- -- -- --  -- -- -- -- -- -- -- --
0130:                                         92 01 F8               ...
0140: FF FF 7F 94 01 F8 FF FF  7F 80 F8 FF FF 7F 00     ............... 
```

#### Opcodes

```
  0: 0x013D [0x92] EventEntity->Render.Flags3 ^= 0x01
  1: 0x0143 [0x94] EventEntity->Render.Flags3 ^= 0x01
  2: 0x0149 [0x80] LOAD_WAIT(entity=EventEntity)
  3: 0x014E [0x00] END_REQSTACK()
```

### Event 345

#### Metadata

| Field        | Value    |
|--------------|----------|
| Entrypoint   | 0x014F   |
| Data Size    | 18 bytes |
| Instructions | 4        |

```
      00 01 02 03 04 05 06 07  08 09 0A 0B 0C 0D 0E 0F
      -- -- -- -- -- -- -- --  -- -- -- -- -- -- -- --
0140:                                               92                 .
0150: 01 F8 FF FF 7F 94 01 F8  FF FF 7F 80 F8 FF FF 7F  ................
0160: 00                                                .               
```

#### Opcodes

```
  0: 0x014F [0x92] EventEntity->Render.Flags3 ^= 0x01
  1: 0x0155 [0x94] EventEntity->Render.Flags3 ^= 0x01
  2: 0x015B [0x80] LOAD_WAIT(entity=EventEntity)
  3: 0x0160 [0x00] END_REQSTACK()
```

### Event 65535.1

#### Metadata

| Field        | Value    |
|--------------|----------|
| Entrypoint   | 0x0161   |
| Data Size    | 40 bytes |
| Instructions | 8        |

```
      00 01 02 03 04 05 06 07  08 09 0A 0B 0C 0D 0E 0F
      -- -- -- -- -- -- -- --  -- -- -- -- -- -- -- --
0160:    66 03 80 28 60 0F 01  28 60 0F 01 64 69 73 30   f..(`..(`..dis0
0170: 1C 04 80 32 05 80 1F 00  06 80 07 80 08 80 1F 01  ...2............
0180: 6F 4B F8 FF FF 7F 09 80  00                       oK.......       
```

#### Opcodes

```
  0: 0x0161 [0x66] LOAD_EXT_SCHEDULER_MAIN: Load scheduler "dis0" with entities [Ramicharaux (ID: 17784872/0x010F6028), Ramicharaux (ID: 17784872/0x010F6028)], work=21*
  1: 0x0170 [0x1C] WAIT(90* ticks)
  2: 0x0173 [0x32] ExtData[1]->MainSpeed = 13* * 0.1
  3: 0x0176 [0x1F] MOVE_ENTITY: EventEntity moves to X=-48.195*, Z=3.606*, Y=0.000*
  4: 0x017E [0x1F] MOVE_ENTITY: Update entity position (mode=1)
  5: 0x0180 [0x6F] WAIT_FRAME_DELAY: Yield until WaitTime reaches zero
  6: 0x0181 [0x4B] UPDATE_ENTITY_YAW(entity=EventEntity, yaw=5.3°*)
  7: 0x0188 [0x00] END_REQSTACK()
```

### Event 65535.2

#### Metadata

| Field        | Value    |
|--------------|----------|
| Entrypoint   | 0x0189   |
| Data Size    | 40 bytes |
| Instructions | 8        |

```
      00 01 02 03 04 05 06 07  08 09 0A 0B 0C 0D 0E 0F
      -- -- -- -- -- -- -- --  -- -- -- -- -- -- -- --
0180:                             66 0A 80 43 60 0F 01           f..C`..
0190: 43 60 0F 01 64 69 73 30  1C 0B 80 32 0C 80 1F 00  C`..dis0...2....
01A0: 0D 80 0E 80 08 80 1F 01  6F 4B F8 FF FF 7F 0F 80  ........oK......
01B0: 00                                                .               
```

#### Opcodes

```
  0: 0x0189 [0x66] LOAD_EXT_SCHEDULER_MAIN: Load scheduler "dis0" with entities [Khumo Daramasteh (ID: 17784899/0x010F6043), Khumo Daramasteh (ID: 17784899/0x010F6043)], work=52*
  1: 0x0198 [0x1C] WAIT(120* ticks)
  2: 0x019B [0x32] ExtData[1]->MainSpeed = 11* * 0.1
  3: 0x019E [0x1F] MOVE_ENTITY: EventEntity moves to X=23.839*, Z=6.017*, Y=0.000*
  4: 0x01A6 [0x1F] MOVE_ENTITY: Update entity position (mode=1)
  5: 0x01A8 [0x6F] WAIT_FRAME_DELAY: Yield until WaitTime reaches zero
  6: 0x01A9 [0x4B] UPDATE_ENTITY_YAW(entity=EventEntity, yaw=3.8°*)
  7: 0x01B0 [0x00] END_REQSTACK()
```

### Event 65535.3

#### Metadata

| Field        | Value     |
|--------------|-----------|
| Entrypoint   | 0x01B1    |
| Data Size    | 139 bytes |
| Instructions | 22        |

```
      00 01 02 03 04 05 06 07  08 09 0A 0B 0C 0D 0E 0F
      -- -- -- -- -- -- -- --  -- -- -- -- -- -- -- --
01B0:    5B 10 80 06 60 0F 01  06 60 0F 01 68 61 69 30   [...`...`..hai0
01C0: 1C 11 80 4A 04 60 0F 01  06 60 0F 01 1C 12 80 79  ...J.`...`.....y
01D0: 00 05 60 0F 01 06 60 0F  01 1C 00 80 4B 06 60 0F  ..`...`.....K.`.
01E0: 01 13 80 6F 76 06 60 0F  01 5B 10 80 06 60 0F 01  ...ov.`..[...`..
01F0: 06 60 0F 01 61 77 77 30  1C 11 80 5B 14 80 04 60  .`..aww0...[...`
0200: 0F 01 04 60 0F 01 74 68  6B 31 1C 15 80 5B 04 80  ...`..thk1...[..
0210: 05 60 0F 01 05 60 0F 01  74 6C 6B 30 1C 04 80 27  .`...`..tlk0...'
0220: 10 04 60 0F 01 21 27 10  05 60 0F 01 20 32 16 80  ..`..!'..`.. 2..
0230: 1F 00 17 80 18 80 08 80  1F 01 6F 00              ..........o.    
```

#### Opcodes

```
  0: 0x01B1 [0x5B] LOAD_EXT_SCHEDULER: Load scheduler "hai0" with entities [Jaha Amariyo (ID: 17784838/0x010F6006), Jaha Amariyo (ID: 17784838/0x010F6006)], work=81*
  1: 0x01C0 [0x1C] WAIT(45* ticks)
  2: 0x01C3 [0x4A] Karl (ID: 17784836/0x010F6004) looks at Jaha Amariyo (ID: 17784838/0x010F6006)
  3: 0x01CC [0x1C] WAIT(5* ticks)
  4: 0x01CF [0x79] Buntz (ID: 17784837/0x010F6005) looks at Jaha Amariyo (ID: 17784838/0x010F6006) (Basic look)
  5: 0x01D9 [0x1C] WAIT(30* ticks)
  6: 0x01DC [0x4B] UPDATE_ENTITY_YAW(entity=Jaha Amariyo (ID: 17784838/0x010F6006), yaw=12.2°*)
  7: 0x01E3 [0x6F] WAIT_FRAME_DELAY: Yield until WaitTime reaches zero
  8: 0x01E4 [0x76] CHECK_ENTITY_RENDER_FLAGS: Wait until Jaha Amariyo (ID: 17784838/0x010F6006) Render.Flags0 and Render.Flags3 conditions are met
  9: 0x01E9 [0x5B] LOAD_EXT_SCHEDULER: Load scheduler "aww0" with entities [Jaha Amariyo (ID: 17784838/0x010F6006), Jaha Amariyo (ID: 17784838/0x010F6006)], work=81*
 10: 0x01F8 [0x1C] WAIT(45* ticks)
 11: 0x01FB [0x5B] LOAD_EXT_SCHEDULER: Load scheduler "thk1" with entities [Karl (ID: 17784836/0x010F6004), Karl (ID: 17784836/0x010F6004)], work=75*
 12: 0x020A [0x1C] WAIT(15* ticks)
 13: 0x020D [0x5B] LOAD_EXT_SCHEDULER: Load scheduler "tlk0" with entities [Buntz (ID: 17784837/0x010F6005), Buntz (ID: 17784837/0x010F6005)], work=90*
 14: 0x021C [0x1C] WAIT(90* ticks)
 15: 0x021F [0x27] REQ_SET(priority=0x10, entity_id=Karl (ID: 17784836/0x010F6004), tag_num=0x21)
 16: 0x0226 [0x27] REQ_SET(priority=0x10, entity_id=Buntz (ID: 17784837/0x010F6005), tag_num=0x20)
 17: 0x022D [0x32] ExtData[1]->MainSpeed = 37* * 0.1
 18: 0x0230 [0x1F] MOVE_ENTITY: EventEntity moves to X=-80.636*, Z=-5.460*, Y=0.000*
 19: 0x0238 [0x1F] MOVE_ENTITY: Update entity position (mode=1)
 20: 0x023A [0x6F] WAIT_FRAME_DELAY: Yield until WaitTime reaches zero
 21: 0x023B [0x00] END_REQSTACK()
```

### Event 65535.4

#### Metadata

| Field        | Value    |
|--------------|----------|
| Entrypoint   | 0x023C   |
| Data Size    | 15 bytes |
| Instructions | 5        |

```
      00 01 02 03 04 05 06 07  08 09 0A 0B 0C 0D 0E 0F
      -- -- -- -- -- -- -- --  -- -- -- -- -- -- -- --
0230:                                      32 19 80 1F              2...
0240: 00 1A 80 1B 80 08 80 1F  01 6F 00                 .........o.     
```

#### Opcodes

```
  0: 0x023C [0x32] ExtData[1]->MainSpeed = 39* * 0.1
  1: 0x023F [0x1F] MOVE_ENTITY: EventEntity moves to X=-81.392*, Z=-4.254*, Y=0.000*
  2: 0x0247 [0x1F] MOVE_ENTITY: Update entity position (mode=1)
  3: 0x0249 [0x6F] WAIT_FRAME_DELAY: Yield until WaitTime reaches zero
  4: 0x024A [0x00] END_REQSTACK()
```

### Event 65535.5

#### Metadata

| Field        | Value    |
|--------------|----------|
| Entrypoint   | 0x024B   |
| Data Size    | 15 bytes |
| Instructions | 5        |

```
      00 01 02 03 04 05 06 07  08 09 0A 0B 0C 0D 0E 0F
      -- -- -- -- -- -- -- --  -- -- -- -- -- -- -- --
0240:                                   32 1C 80 1F 00             2....
0250: 1D 80 1E 80 08 80 1F 01  6F 00                    ........o.      
```

#### Opcodes

```
  0: 0x024B [0x32] ExtData[1]->MainSpeed = 41* * 0.1
  1: 0x024E [0x1F] MOVE_ENTITY: EventEntity moves to X=-82.888*, Z=-4.774*, Y=0.000*
  2: 0x0256 [0x1F] MOVE_ENTITY: Update entity position (mode=1)
  3: 0x0258 [0x6F] WAIT_FRAME_DELAY: Yield until WaitTime reaches zero
  4: 0x0259 [0x00] END_REQSTACK()
```

### Event 65535.6

#### Metadata

| Field        | Value    |
|--------------|----------|
| Entrypoint   | 0x025A   |
| Data Size    | 30 bytes |
| Instructions | 8        |

```
      00 01 02 03 04 05 06 07  08 09 0A 0B 0C 0D 0E 0F
      -- -- -- -- -- -- -- --  -- -- -- -- -- -- -- --
0250:                                6E F8 FF FF 7F 1F            n.....
0260: 80 99 F8 FF FF 7F 1C 0B  80 32 20 80 1F 00 21 80  .........2 ...!.
0270: 22 80 08 80 1F 01 6F 00                           ".....o.        
```

#### Opcodes

```
  0: 0x025A [0x6E] EventEntity uses emote 6*
  1: 0x0261 [0x99] Wait for EventEntity animation to complete
  2: 0x0266 [0x1C] WAIT(120* ticks)
  3: 0x0269 [0x32] ExtData[1]->MainSpeed = 10* * 0.1
  4: 0x026C [0x1F] MOVE_ENTITY: EventEntity moves to X=-86.082*, Z=-1.442*, Y=0.000*
  5: 0x0274 [0x1F] MOVE_ENTITY: Update entity position (mode=1)
  6: 0x0276 [0x6F] WAIT_FRAME_DELAY: Yield until WaitTime reaches zero
  7: 0x0277 [0x00] END_REQSTACK()
```

### Event 65535.7

#### Metadata

| Field        | Value    |
|--------------|----------|
| Entrypoint   | 0x0278   |
| Data Size    | 16 bytes |
| Instructions | 2        |

```
      00 01 02 03 04 05 06 07  08 09 0A 0B 0C 0D 0E 0F
      -- -- -- -- -- -- -- --  -- -- -- -- -- -- -- --
0270:                          5B 23 80 86 60 0F 01 86          [#..`...
0280: 60 0F 01 66 75 6D 30 00                           `..fum0.        
```

#### Opcodes

```
  0: 0x0278 [0x5B] LOAD_EXT_SCHEDULER: Load scheduler "fum0" with entities [Squintrox Dryeyes (ID: 17784966/0x010F6086), Squintrox Dryeyes (ID: 17784966/0x010F6086)], work=216*
  1: 0x0287 [0x00] END_REQSTACK()
```

### Event 65535.8

#### Metadata

| Field        | Value    |
|--------------|----------|
| Entrypoint   | 0x0288   |
| Data Size    | 33 bytes |
| Instructions | 7        |

```
      00 01 02 03 04 05 06 07  08 09 0A 0B 0C 0D 0E 0F
      -- -- -- -- -- -- -- --  -- -- -- -- -- -- -- --
0280:                          32 24 80 1F 00 25 80 26          2$...%.&
0290: 80 08 80 1F 01 6F 1C 15  80 66 00 80 42 60 0F 01  .....o...f..B`..
02A0: 42 60 0F 01 74 68 6B 31  00                       B`..thk1.       
```

#### Opcodes

```
  0: 0x0288 [0x32] ExtData[1]->MainSpeed = 12* * 0.1
  1: 0x028B [0x1F] MOVE_ENTITY: EventEntity moves to X=-100.794*, Z=-3.679*, Y=0.000*
  2: 0x0293 [0x1F] MOVE_ENTITY: Update entity position (mode=1)
  3: 0x0295 [0x6F] WAIT_FRAME_DELAY: Yield until WaitTime reaches zero
  4: 0x0296 [0x1C] WAIT(15* ticks)
  5: 0x0299 [0x66] LOAD_EXT_SCHEDULER_MAIN: Load scheduler "thk1" with entities [Naurmaire (ID: 17784898/0x010F6042), Naurmaire (ID: 17784898/0x010F6042)], work=30*
  6: 0x02A8 [0x00] END_REQSTACK()
```

### Event 65535.9

#### Metadata

| Field        | Value    |
|--------------|----------|
| Entrypoint   | 0x02A9   |
| Data Size    | 33 bytes |
| Instructions | 7        |

```
      00 01 02 03 04 05 06 07  08 09 0A 0B 0C 0D 0E 0F
      -- -- -- -- -- -- -- --  -- -- -- -- -- -- -- --
02A0:                             66 20 80 3F 60 0F 01           f .?`..
02B0: 3F 60 0F 01 74 68 6B 32  1C 02 80 32 27 80 1F 00  ?`..thk2...2'...
02C0: 28 80 29 80 08 80 1F 01  6F 00                    (.).....o.      
```

#### Opcodes

```
  0: 0x02A9 [0x66] LOAD_EXT_SCHEDULER_MAIN: Load scheduler "thk2" with entities [Marnie (ID: 17784895/0x010F603F), Marnie (ID: 17784895/0x010F603F)], work=10*
  1: 0x02B8 [0x1C] WAIT(60* ticks)
  2: 0x02BB [0x32] ExtData[1]->MainSpeed = 40* * 0.1
  3: 0x02BE [0x1F] MOVE_ENTITY: EventEntity moves to X=-30.213*, Z=-1.502*, Y=0.000*
  4: 0x02C6 [0x1F] MOVE_ENTITY: Update entity position (mode=1)
  5: 0x02C8 [0x6F] WAIT_FRAME_DELAY: Yield until WaitTime reaches zero
  6: 0x02C9 [0x00] END_REQSTACK()
```

### Event 65535.10

#### Metadata

| Field        | Value    |
|--------------|----------|
| Entrypoint   | 0x02CA   |
| Data Size    | 45 bytes |
| Instructions | 12       |

```
      00 01 02 03 04 05 06 07  08 09 0A 0B 0C 0D 0E 0F
      -- -- -- -- -- -- -- --  -- -- -- -- -- -- -- --
02C0:                                32 05 80 1F 00 2A            2....*
02D0: 80 2B 80 08 80 1F 01 1C  00 80 39 2C 80 1C 2D 80  .+........9,..-.
02E0: 1F 00 2E 80 2F 80 08 80  1F 01 1C 00 80 39 30 80  ..../........90.
02F0: 1C 2D 80 01 CA 02 00                              .-.....         
```

#### Opcodes

```
  0: 0x02CA [0x32] ExtData[1]->MainSpeed = 13* * 0.1
  1: 0x02CD [0x1F] MOVE_ENTITY: EventEntity moves to X=-96.584*, Z=-8.519*, Y=0.000*
  2: 0x02D5 [0x1F] MOVE_ENTITY: Update entity position (mode=1)
  3: 0x02D7 [0x1C] WAIT(30* ticks)
  4: 0x02DA [0x39] SET_ENTITY_DIRECTION(direction=19.7°*)
  5: 0x02DD [0x1C] WAIT(360* ticks)
  6: 0x02E0 [0x1F] MOVE_ENTITY: EventEntity moves to X=-96.241*, Z=8.872*, Y=0.000*
  7: 0x02E8 [0x1F] MOVE_ENTITY: Update entity position (mode=1)
  8: 0x02EA [0x1C] WAIT(30* ticks)
  9: 0x02ED [0x39] SET_ENTITY_DIRECTION(direction=2.8°*)
 10: 0x02F0 [0x1C] WAIT(360* ticks)
 11: 0x02F3 [0x01] GOTO 0x02CA
```

#### Data or dead code:

```
# Dead code (unreachable instructions):
     0x02F6 [0x00] END_REQSTACK()
```

### Event 65535.11

#### Metadata

| Field        | Value     |
|--------------|-----------|
| Entrypoint   | 0x02F7    |
| Data Size    | 139 bytes |
| Instructions | 22        |

```
      00 01 02 03 04 05 06 07  08 09 0A 0B 0C 0D 0E 0F
      -- -- -- -- -- -- -- --  -- -- -- -- -- -- -- --
02F0:                      5B  10 80 06 60 0F 01 06 60         [...`...`
0300: 0F 01 68 61 69 30 1C 11  80 4A 04 60 0F 01 06 60  ..hai0...J.`...`
0310: 0F 01 1C 12 80 79 00 05  60 0F 01 06 60 0F 01 1C  .....y..`...`...
0320: 00 80 4B 06 60 0F 01 13  80 6F 76 06 60 0F 01 5B  ..K.`....ov.`..[
0330: 10 80 06 60 0F 01 06 60  0F 01 61 77 77 30 1C 11  ...`...`..aww0..
0340: 80 5B 14 80 04 60 0F 01  04 60 0F 01 74 68 6B 31  .[...`...`..thk1
0350: 1C 15 80 5B 04 80 05 60  0F 01 05 60 0F 01 74 6C  ...[...`...`..tl
0360: 6B 30 1C 04 80 27 10 04  60 0F 01 29 27 10 05 60  k0...'..`..)'..`
0370: 0F 01 28 32 16 80 1F 00  31 80 32 80 08 80 1F 01  ..(2....1.2.....
0380: 6F 00                                             o.              
```

#### Opcodes

```
  0: 0x02F7 [0x5B] LOAD_EXT_SCHEDULER: Load scheduler "hai0" with entities [Jaha Amariyo (ID: 17784838/0x010F6006), Jaha Amariyo (ID: 17784838/0x010F6006)], work=81*
  1: 0x0306 [0x1C] WAIT(45* ticks)
  2: 0x0309 [0x4A] Karl (ID: 17784836/0x010F6004) looks at Jaha Amariyo (ID: 17784838/0x010F6006)
  3: 0x0312 [0x1C] WAIT(5* ticks)
  4: 0x0315 [0x79] Buntz (ID: 17784837/0x010F6005) looks at Jaha Amariyo (ID: 17784838/0x010F6006) (Basic look)
  5: 0x031F [0x1C] WAIT(30* ticks)
  6: 0x0322 [0x4B] UPDATE_ENTITY_YAW(entity=Jaha Amariyo (ID: 17784838/0x010F6006), yaw=12.2°*)
  7: 0x0329 [0x6F] WAIT_FRAME_DELAY: Yield until WaitTime reaches zero
  8: 0x032A [0x76] CHECK_ENTITY_RENDER_FLAGS: Wait until Jaha Amariyo (ID: 17784838/0x010F6006) Render.Flags0 and Render.Flags3 conditions are met
  9: 0x032F [0x5B] LOAD_EXT_SCHEDULER: Load scheduler "aww0" with entities [Jaha Amariyo (ID: 17784838/0x010F6006), Jaha Amariyo (ID: 17784838/0x010F6006)], work=81*
 10: 0x033E [0x1C] WAIT(45* ticks)
 11: 0x0341 [0x5B] LOAD_EXT_SCHEDULER: Load scheduler "thk1" with entities [Karl (ID: 17784836/0x010F6004), Karl (ID: 17784836/0x010F6004)], work=75*
 12: 0x0350 [0x1C] WAIT(15* ticks)
 13: 0x0353 [0x5B] LOAD_EXT_SCHEDULER: Load scheduler "tlk0" with entities [Buntz (ID: 17784837/0x010F6005), Buntz (ID: 17784837/0x010F6005)], work=90*
 14: 0x0362 [0x1C] WAIT(90* ticks)
 15: 0x0365 [0x27] REQ_SET(priority=0x10, entity_id=Karl (ID: 17784836/0x010F6004), tag_num=0x29)
 16: 0x036C [0x27] REQ_SET(priority=0x10, entity_id=Buntz (ID: 17784837/0x010F6005), tag_num=0x28)
 17: 0x0373 [0x32] ExtData[1]->MainSpeed = 37* * 0.1
 18: 0x0376 [0x1F] MOVE_ENTITY: EventEntity moves to X=-52.555*, Z=1.950*, Y=0.000*
 19: 0x037E [0x1F] MOVE_ENTITY: Update entity position (mode=1)
 20: 0x0380 [0x6F] WAIT_FRAME_DELAY: Yield until WaitTime reaches zero
 21: 0x0381 [0x00] END_REQSTACK()
```

### Event 65535.12

#### Metadata

| Field        | Value    |
|--------------|----------|
| Entrypoint   | 0x0382   |
| Data Size    | 15 bytes |
| Instructions | 5        |

```
      00 01 02 03 04 05 06 07  08 09 0A 0B 0C 0D 0E 0F
      -- -- -- -- -- -- -- --  -- -- -- -- -- -- -- --
0380:       32 19 80 1F 00 33  80 34 80 08 80 1F 01 6F    2....3.4.....o
0390: 00                                                .               
```

#### Opcodes

```
  0: 0x0382 [0x32] ExtData[1]->MainSpeed = 39* * 0.1
  1: 0x0385 [0x1F] MOVE_ENTITY: EventEntity moves to X=-49.108*, Z=2.357*, Y=0.000*
  2: 0x038D [0x1F] MOVE_ENTITY: Update entity position (mode=1)
  3: 0x038F [0x6F] WAIT_FRAME_DELAY: Yield until WaitTime reaches zero
  4: 0x0390 [0x00] END_REQSTACK()
```

### Event 65535.13

#### Metadata

| Field        | Value    |
|--------------|----------|
| Entrypoint   | 0x0391   |
| Data Size    | 15 bytes |
| Instructions | 5        |

```
      00 01 02 03 04 05 06 07  08 09 0A 0B 0C 0D 0E 0F
      -- -- -- -- -- -- -- --  -- -- -- -- -- -- -- --
0390:    32 1C 80 1F 00 35 80  36 80 08 80 1F 01 6F 00   2....5.6.....o.
```

#### Opcodes

```
  0: 0x0391 [0x32] ExtData[1]->MainSpeed = 41* * 0.1
  1: 0x0394 [0x1F] MOVE_ENTITY: EventEntity moves to X=-51.734*, Z=2.879*, Y=0.000*
  2: 0x039C [0x1F] MOVE_ENTITY: Update entity position (mode=1)
  3: 0x039E [0x6F] WAIT_FRAME_DELAY: Yield until WaitTime reaches zero
  4: 0x039F [0x00] END_REQSTACK()
```

### Event 65535.14

#### Metadata

| Field        | Value    |
|--------------|----------|
| Entrypoint   | 0x03A0   |
| Data Size    | 15 bytes |
| Instructions | 5        |

```
      00 01 02 03 04 05 06 07  08 09 0A 0B 0C 0D 0E 0F
      -- -- -- -- -- -- -- --  -- -- -- -- -- -- -- --
03A0: 32 24 80 1F 00 37 80 38  80 08 80 1F 01 6F 00     2$...7.8.....o. 
```

#### Opcodes

```
  0: 0x03A0 [0x32] ExtData[1]->MainSpeed = 12* * 0.1
  1: 0x03A3 [0x1F] MOVE_ENTITY: EventEntity moves to X=-50.670*, Z=2.474*, Y=0.000*
  2: 0x03AB [0x1F] MOVE_ENTITY: Update entity position (mode=1)
  3: 0x03AD [0x6F] WAIT_FRAME_DELAY: Yield until WaitTime reaches zero
  4: 0x03AE [0x00] END_REQSTACK()
```

### Event 65535.15

#### Metadata

| Field        | Value    |
|--------------|----------|
| Entrypoint   | 0x03AF   |
| Data Size    | 80 bytes |
| Instructions | 13       |

```
      00 01 02 03 04 05 06 07  08 09 0A 0B 0C 0D 0E 0F
      -- -- -- -- -- -- -- --  -- -- -- -- -- -- -- --
03A0:                                               32                 2
03B0: 0C 80 1F 00 39 80 3A 80  08 80 1F 01 79 00 45 60  ....9.:.....y.E`
03C0: 0F 01 42 60 0F 01 66 00  80 42 60 0F 01 42 60 0F  ..B`..f..B`..B`.
03D0: 01 74 68 6B 32 32 3B 80  4A 42 60 0F 01 45 60 0F  .thk22;.JB`..E`.
03E0: 01 1F 00 3C 80 3D 80 08  80 1F 01 6F 1C 00 80 66  ...<.=.....o...f
03F0: 08 80 45 60 0F 01 45 60  0F 01 74 6C 6B 31 00     ..E`..E`..tlk1. 
```

#### Opcodes

```
  0: 0x03AF [0x32] ExtData[1]->MainSpeed = 11* * 0.1
  1: 0x03B2 [0x1F] MOVE_ENTITY: EventEntity moves to X=-92.526*, Z=-2.418*, Y=0.000*
  2: 0x03BA [0x1F] MOVE_ENTITY: Update entity position (mode=1)
  3: 0x03BC [0x79] Falak (ID: 17784901/0x010F6045) looks at Naurmaire (ID: 17784898/0x010F6042) (Basic look)
  4: 0x03C6 [0x66] LOAD_EXT_SCHEDULER_MAIN: Load scheduler "thk2" with entities [Naurmaire (ID: 17784898/0x010F6042), Naurmaire (ID: 17784898/0x010F6042)], work=30*
  5: 0x03D5 [0x32] ExtData[1]->MainSpeed = 38* * 0.1
  6: 0x03D8 [0x4A] Naurmaire (ID: 17784898/0x010F6042) looks at Falak (ID: 17784901/0x010F6045)
  7: 0x03E1 [0x1F] MOVE_ENTITY: EventEntity moves to X=-98.837*, Z=-2.640*, Y=0.000*
  8: 0x03E9 [0x1F] MOVE_ENTITY: Update entity position (mode=1)
  9: 0x03EB [0x6F] WAIT_FRAME_DELAY: Yield until WaitTime reaches zero
 10: 0x03EC [0x1C] WAIT(30* ticks)
 11: 0x03EF [0x66] LOAD_EXT_SCHEDULER_MAIN: Load scheduler "tlk1" with entities [Falak (ID: 17784901/0x010F6045), Falak (ID: 17784901/0x010F6045)], work=0*
 12: 0x03FE [0x00] END_REQSTACK()
```

### Event 65535.16

#### Metadata

| Field        | Value    |
|--------------|----------|
| Entrypoint   | 0x03FF   |
| Data Size    | 15 bytes |
| Instructions | 5        |

```
      00 01 02 03 04 05 06 07  08 09 0A 0B 0C 0D 0E 0F
      -- -- -- -- -- -- -- --  -- -- -- -- -- -- -- --
03F0:                                               32                 2
0400: 24 80 1F 00 3E 80 3F 80  08 80 1F 01 6F 00        $...>.?.....o.  
```

#### Opcodes

```
  0: 0x03FF [0x32] ExtData[1]->MainSpeed = 12* * 0.1
  1: 0x0402 [0x1F] MOVE_ENTITY: EventEntity moves to X=4.999*, Z=-0.799*, Y=0.000*
  2: 0x040A [0x1F] MOVE_ENTITY: Update entity position (mode=1)
  3: 0x040C [0x6F] WAIT_FRAME_DELAY: Yield until WaitTime reaches zero
  4: 0x040D [0x00] END_REQSTACK()
```

### Event 65535.17

#### Metadata

| Field        | Value    |
|--------------|----------|
| Entrypoint   | 0x040E   |
| Data Size    | 15 bytes |
| Instructions | 5        |

```
      00 01 02 03 04 05 06 07  08 09 0A 0B 0C 0D 0E 0F
      -- -- -- -- -- -- -- --  -- -- -- -- -- -- -- --
0400:                                            32 05                2.
0410: 80 1F 00 40 80 41 80 08  80 1F 01 6F 00           ...@.A.....o.   
```

#### Opcodes

```
  0: 0x040E [0x32] ExtData[1]->MainSpeed = 13* * 0.1
  1: 0x0411 [0x1F] MOVE_ENTITY: EventEntity moves to X=-76.908*, Z=-2.465*, Y=0.000*
  2: 0x0419 [0x1F] MOVE_ENTITY: Update entity position (mode=1)
  3: 0x041B [0x6F] WAIT_FRAME_DELAY: Yield until WaitTime reaches zero
  4: 0x041C [0x00] END_REQSTACK()
```

### Event 65535.18

#### Metadata

| Field        | Value    |
|--------------|----------|
| Entrypoint   | 0x041D   |
| Data Size    | 15 bytes |
| Instructions | 5        |

```
      00 01 02 03 04 05 06 07  08 09 0A 0B 0C 0D 0E 0F
      -- -- -- -- -- -- -- --  -- -- -- -- -- -- -- --
0410:                                         32 0C 80               2..
0420: 1F 00 42 80 43 80 08 80  1F 01 6F 00              ..B.C.....o.    
```

#### Opcodes

```
  0: 0x041D [0x32] ExtData[1]->MainSpeed = 11* * 0.1
  1: 0x0420 [0x1F] MOVE_ENTITY: EventEntity moves to X=-50.956*, Z=-2.015*, Y=0.000*
  2: 0x0428 [0x1F] MOVE_ENTITY: Update entity position (mode=1)
  3: 0x042A [0x6F] WAIT_FRAME_DELAY: Yield until WaitTime reaches zero
  4: 0x042B [0x00] END_REQSTACK()
```

### Event 65535.19

#### Metadata

| Field        | Value    |
|--------------|----------|
| Entrypoint   | 0x042C   |
| Data Size    | 15 bytes |
| Instructions | 5        |

```
      00 01 02 03 04 05 06 07  08 09 0A 0B 0C 0D 0E 0F
      -- -- -- -- -- -- -- --  -- -- -- -- -- -- -- --
0420:                                      32 0C 80 1F              2...
0430: 00 44 80 45 80 08 80 1F  01 6F 00                 .D.E.....o.     
```

#### Opcodes

```
  0: 0x042C [0x32] ExtData[1]->MainSpeed = 11* * 0.1
  1: 0x042F [0x1F] MOVE_ENTITY: EventEntity moves to X=-106.865*, Z=2.201*, Y=0.000*
  2: 0x0437 [0x1F] MOVE_ENTITY: Update entity position (mode=1)
  3: 0x0439 [0x6F] WAIT_FRAME_DELAY: Yield until WaitTime reaches zero
  4: 0x043A [0x00] END_REQSTACK()
```

### Event 65535.20

#### Metadata

| Field        | Value    |
|--------------|----------|
| Entrypoint   | 0x043B   |
| Data Size    | 15 bytes |
| Instructions | 5        |

```
      00 01 02 03 04 05 06 07  08 09 0A 0B 0C 0D 0E 0F
      -- -- -- -- -- -- -- --  -- -- -- -- -- -- -- --
0430:                                   32 05 80 1F 00             2....
0440: 46 80 47 80 08 80 1F 01  6F 00                    F.G.....o.      
```

#### Opcodes

```
  0: 0x043B [0x32] ExtData[1]->MainSpeed = 13* * 0.1
  1: 0x043E [0x1F] MOVE_ENTITY: EventEntity moves to X=-36.731*, Z=-2.282*, Y=0.000*
  2: 0x0446 [0x1F] MOVE_ENTITY: Update entity position (mode=1)
  3: 0x0448 [0x6F] WAIT_FRAME_DELAY: Yield until WaitTime reaches zero
  4: 0x0449 [0x00] END_REQSTACK()
```

### Event 65535.21

#### Metadata

| Field        | Value    |
|--------------|----------|
| Entrypoint   | 0x044A   |
| Data Size    | 53 bytes |
| Instructions | 10       |

```
      00 01 02 03 04 05 06 07  08 09 0A 0B 0C 0D 0E 0F
      -- -- -- -- -- -- -- --  -- -- -- -- -- -- -- --
0440:                                32 05 80 1F 00 48            2....H
0450: 80 49 80 08 80 1F 01 1F  00 4A 80 4B 80 08 80 1F  .I.......J.K....
0460: 01 6F 1C 15 80 79 00 49  60 0F 01 86 60 0F 01 5B  .o...y.I`...`..[
0470: 4C 80 86 60 0F 01 86 60  0F 01 74 6C 6B 30 00     L..`...`..tlk0. 
```

#### Opcodes

```
  0: 0x044A [0x32] ExtData[1]->MainSpeed = 13* * 0.1
  1: 0x044D [0x1F] MOVE_ENTITY: EventEntity moves to X=-58.047*, Z=9.433*, Y=0.000*
  2: 0x0455 [0x1F] MOVE_ENTITY: Update entity position (mode=1)
  3: 0x0457 [0x1F] MOVE_ENTITY: EventEntity moves to X=-56.466*, Z=10.018*, Y=0.000*
  4: 0x045F [0x1F] MOVE_ENTITY: Update entity position (mode=1)
  5: 0x0461 [0x6F] WAIT_FRAME_DELAY: Yield until WaitTime reaches zero
  6: 0x0462 [0x1C] WAIT(15* ticks)
  7: 0x0465 [0x79] Shami (ID: 17784905/0x010F6049) looks at Squintrox Dryeyes (ID: 17784966/0x010F6086) (Basic look)
  8: 0x046F [0x5B] LOAD_EXT_SCHEDULER: Load scheduler "tlk0" with entities [Squintrox Dryeyes (ID: 17784966/0x010F6086), Squintrox Dryeyes (ID: 17784966/0x010F6086)], work=215*
  9: 0x047E [0x00] END_REQSTACK()
```

### Event 65535.22

#### Metadata

| Field        | Value    |
|--------------|----------|
| Entrypoint   | 0x047F   |
| Data Size    | 58 bytes |
| Instructions | 11       |

```
      00 01 02 03 04 05 06 07  08 09 0A 0B 0C 0D 0E 0F
      -- -- -- -- -- -- -- --  -- -- -- -- -- -- -- --
0470:                                               32                 2
0480: 05 80 79 00 3E 60 0F 01  28 60 0F 01 1F 00 4D 80  ..y.>`..(`....M.
0490: 4E 80 08 80 1F 01 6F 1C  15 80 4A 3E 60 0F 01 28  N.....o...J>`..(
04A0: 60 0F 01 6F 76 3E 60 0F  01 66 4F 80 3E 60 0F 01  `..ov>`..fO.>`..
04B0: 3E 60 0F 01 74 6C 6B 30  00                       >`..tlk0.       
```

#### Opcodes

```
  0: 0x047F [0x32] ExtData[1]->MainSpeed = 13* * 0.1
  1: 0x0482 [0x79] Leffquen (ID: 17784894/0x010F603E) looks at Ramicharaux (ID: 17784872/0x010F6028) (Basic look)
  2: 0x048C [0x1F] MOVE_ENTITY: EventEntity moves to X=-52.055*, Z=2.177*, Y=0.000*
  3: 0x0494 [0x1F] MOVE_ENTITY: Update entity position (mode=1)
  4: 0x0496 [0x6F] WAIT_FRAME_DELAY: Yield until WaitTime reaches zero
  5: 0x0497 [0x1C] WAIT(15* ticks)
  6: 0x049A [0x4A] Leffquen (ID: 17784894/0x010F603E) looks at Ramicharaux (ID: 17784872/0x010F6028)
  7: 0x04A3 [0x6F] WAIT_FRAME_DELAY: Yield until WaitTime reaches zero
  8: 0x04A4 [0x76] CHECK_ENTITY_RENDER_FLAGS: Wait until Leffquen (ID: 17784894/0x010F603E) Render.Flags0 and Render.Flags3 conditions are met
  9: 0x04A9 [0x66] LOAD_EXT_SCHEDULER_MAIN: Load scheduler "tlk0" with entities [Leffquen (ID: 17784894/0x010F603E), Leffquen (ID: 17784894/0x010F603E)], work=19*
 10: 0x04B8 [0x00] END_REQSTACK()
```
