# 17784984 - Kindlix

## Common Data

| Field            | Value                |
|------------------|----------------------|
| Zone             | Port Jeuno (ID: 246) |
| Block Size       | 284 bytes            |
| Total Events     | 3                    |
| References Count | 8                    |

## List of Events

| Event ID              | Entrypoint   |   Size |   Instructions |
|-----------------------|--------------|--------|----------------|
| [65535](#event-65535) | 0x0000       |      1 |              1 |
| [348](#event-348)     | 0x0001       |    219 |             30 |
| [349](#event-349)     | 0x00DC       |      1 |              1 |

## DAT References (imed_data)

|   Index | Hex Value   |   Dec Value |
|---------|-------------|-------------|
|       0 | 0x00D8      |         216 |
|       1 | 0x21F7      |        8695 |
|       2 | 0x00D7      |         215 |
|       3 | 0x21F8      |        8696 |
|       4 | 0x02E7      |         743 |
|       5 | 0x21F9      |        8697 |
|       6 | 0x006E      |         110 |
|       7 | 0x21FA      |        8698 |

## Events

### Event 65535

#### Metadata

| Field        | Value   |
|--------------|---------|
| Entrypoint   | 0x0000  |
| Data Size    | 1 bytes |
| Instructions | 1       |

```
      00 01 02 03 04 05 06 07  08 09 0A 0B 0C 0D 0E 0F
      -- -- -- -- -- -- -- --  -- -- -- -- -- -- -- --
0000: 00                                                .               
```

#### Opcodes

```
  0: 0x0000 [0x00] END_REQSTACK()
```

### Event 348

#### Metadata

| Field        | Value     |
|--------------|-----------|
| Entrypoint   | 0x0001    |
| Data Size    | 219 bytes |
| Instructions | 30        |

```
      00 01 02 03 04 05 06 07  08 09 0A 0B 0C 0D 0E 0F
      -- -- -- -- -- -- -- --  -- -- -- -- -- -- -- --
0000:    4A 98 60 0F 01 F0 FF  FF 7F 6F 70 5B 00 80 98   J.`......op[...
0010: 60 0F 01 98 60 0F 01 68  61 70 30 2B 98 60 0F 01  `...`..hap0+.`..
0020: 01 80 23 5B 00 80 98 60  0F 01 98 60 0F 01 68 61  ..#[...`...`..ha
0030: 70 31 4A 99 60 0F 01 F0  FF FF 7F 5B 02 80 99 60  p1J.`......[...`
0040: 0F 01 99 60 0F 01 74 6C  6B 31 2B 99 60 0F 01 03  ...`..tlk1+.`...
0050: 80 23 5B 02 80 99 60 0F  01 99 60 0F 01 74 6C 6B  .#[...`...`..tlk
0060: 65 42 4A 98 60 0F 01 99  60 0F 01 6F 70 C4 02 04  eBJ.`...`..op...
0070: 80 98 60 0F 01 99 60 0F  01 2B 98 60 0F 01 05 80  ..`...`..+.`....
0080: 1C 06 80 2E 4A 98 60 0F  01 F0 FF FF 7F 4A 99 60  ....J.`......J.`
0090: 0F 01 98 60 0F 01 5B 02  80 98 60 0F 01 98 60 0F  ...`..[...`...`.
00A0: 01 74 6C 6B 31 5B 00 80  99 60 0F 01 99 60 0F 01  .tlk1[...`...`..
00B0: 61 6E 67 30 2B 98 60 0F  01 07 80 23 5B 02 80 98  ang0+.`....#[...
00C0: 60 0F 01 98 60 0F 01 74  6C 6B 65 5B 00 80 99 60  `...`..tlke[...`
00D0: 0F 01 99 60 0F 01 61 6E  67 31 21 00              ...`..ang1!.    
```

#### Opcodes

```
  0: 0x0001 [0x4A] Kindlix (ID: 17784984/0x010F6098) looks at LocalPlayer
  1: 0x000A [0x6F] WAIT_FRAME_DELAY: Yield until WaitTime reaches zero
  2: 0x000B [0x70] WAIT_ENTITY_RENDER_FLAG: Wait while EventEntity->Render.Flags3 bit 2 is set (cancel turn if not)
  3: 0x000C [0x5B] LOAD_EXT_SCHEDULER: Load scheduler "hap0" with entities [Kindlix (ID: 17784984/0x010F6098), Kindlix (ID: 17784984/0x010F6098)], work=216*
  4: 0x001B [0x2B] Kindlix (ID: 17784984/0x010F6098) [8695*]:
    → "Our fam'ly peddle sky flowers. You want have nice scenery? Send fireworks sky high! It's great feeling. Bwee hee hee."
  5: 0x0022 [0x23] WAIT_FOR_DIALOG_INTERACTION
  6: 0x0023 [0x5B] LOAD_EXT_SCHEDULER: Load scheduler "hap1" with entities [Kindlix (ID: 17784984/0x010F6098), Kindlix (ID: 17784984/0x010F6098)], work=216*
  7: 0x0032 [0x4A] Pyropox (ID: 17784985/0x010F6099) looks at LocalPlayer
  8: 0x003B [0x5B] LOAD_EXT_SCHEDULER: Load scheduler "tlk1" with entities [Pyropox (ID: 17784985/0x010F6099), Pyropox (ID: 17784985/0x010F6099)], work=215*
  9: 0x004A [0x2B] Pyropox (ID: 17784985/0x010F6099) [8696*]:
    → "Kindlix's fireworks? No good. You want have nice scenery? Mine are best. C'mon, c'mon, have look. Which you like?"
 10: 0x0051 [0x23] WAIT_FOR_DIALOG_INTERACTION
 11: 0x0052 [0x5B] LOAD_EXT_SCHEDULER: Load scheduler "tlke" with entities [Pyropox (ID: 17784985/0x010F6099), Pyropox (ID: 17784985/0x010F6099)], work=215*
 12: 0x0061 [0x42] SET_CLI_EVENT_CANCEL_DATA()
 13: 0x0062 [0x4A] Kindlix (ID: 17784984/0x010F6098) looks at Pyropox (ID: 17784985/0x010F6099)
 14: 0x006B [0x6F] WAIT_FRAME_DELAY: Yield until WaitTime reaches zero
 15: 0x006C [0x70] WAIT_ENTITY_RENDER_FLAG: Wait while EventEntity->Render.Flags3 bit 2 is set (cancel turn if not)
 16: 0x006D [0xC4] SCHEDULE_MAGIC_CASTING_ALT (arg=18): Kindlix (ID: 17784984/0x010F6098) casts magic 743* on Pyropox (ID: 17784985/0x010F6099)
 17: 0x0079 [0x2B] Kindlix (ID: 17784984/0x010F6098) [8697*]:
    → "Pyropox, that's my cus'mer!"
 18: 0x0080 [0x1C] WAIT(110* ticks)
 19: 0x0083 [0x2E] SET_CLI_EVENT_CANCEL_FLAGS()
 20: 0x0084 [0x4A] Kindlix (ID: 17784984/0x010F6098) looks at LocalPlayer
 21: 0x008D [0x4A] Pyropox (ID: 17784985/0x010F6099) looks at Kindlix (ID: 17784984/0x010F6098)
 22: 0x0096 [0x5B] LOAD_EXT_SCHEDULER: Load scheduler "tlk1" with entities [Kindlix (ID: 17784984/0x010F6098), Kindlix (ID: 17784984/0x010F6098)], work=215*
 23: 0x00A5 [0x5B] LOAD_EXT_SCHEDULER: Load scheduler "ang0" with entities [Pyropox (ID: 17784985/0x010F6099), Pyropox (ID: 17784985/0x010F6099)], work=216*
 24: 0x00B4 [0x2B] Kindlix (ID: 17784984/0x010F6098) [8698*]:
    → "Pyropox be my twin sis'er, but she swindle you--not like me. We very much diff'rent."
 25: 0x00BB [0x23] WAIT_FOR_DIALOG_INTERACTION
 26: 0x00BC [0x5B] LOAD_EXT_SCHEDULER: Load scheduler "tlke" with entities [Kindlix (ID: 17784984/0x010F6098), Kindlix (ID: 17784984/0x010F6098)], work=215*
 27: 0x00CB [0x5B] LOAD_EXT_SCHEDULER: Load scheduler "ang1" with entities [Pyropox (ID: 17784985/0x010F6099), Pyropox (ID: 17784985/0x010F6099)], work=216*
 28: 0x00DA [0x21] END_EVENT
 29: 0x00DB [0x00] END_REQSTACK()
```

### Event 349

#### Metadata

| Field        | Value   |
|--------------|---------|
| Entrypoint   | 0x00DC  |
| Data Size    | 1 bytes |
| Instructions | 1       |

```
      00 01 02 03 04 05 06 07  08 09 0A 0B 0C 0D 0E 0F
      -- -- -- -- -- -- -- --  -- -- -- -- -- -- -- --
00D0:                                      00                       .   
```

#### Opcodes

```
  0: 0x00DC [0x00] END_REQSTACK()
```
