# 0x7FFFFFF0 - Zone Events

## Common Data

| Field            | Value                |
|------------------|----------------------|
| Zone             | Port Jeuno (ID: 246) |
| Block Size       | 27884 bytes          |
| Total Events     | 59                   |
| References Count | 474                  |

## List of Events

| Event ID                   | Entrypoint   |   Size |   Instructions |
|----------------------------|--------------|--------|----------------|
| [65535](#event-65535)      | 0x0000       |      1 |              1 |
| [65535.1](#event-655351)   | 0x0001       |     10 |              2 |
| [65534](#event-65534)      | 0x000B       |      1 |              1 |
| [21](#event-21)            | 0x000C       |      1 |              1 |
| [65535.2](#event-655352)   | 0x000D       |    132 |             20 |
| [65535.3](#event-655353)   | 0x0091       |      1 |              1 |
| [65535.4](#event-655354)   | 0x0092       |    132 |             20 |
| [65535.5](#event-655355)   | 0x0116       |      1 |              1 |
| [65535.6](#event-655356)   | 0x0117       |     99 |             13 |
| [10010](#event-10010)      | 0x017A       |     10 |              3 |
| [10014](#event-10014)      | 0x0184       |     14 |              4 |
| [10012](#event-10012)      | 0x0192       |     12 |              3 |
| [10016](#event-10016)      | 0x019E       |     14 |              4 |
| [10011](#event-10011)      | 0x01AC       |     12 |              3 |
| [10015](#event-10015)      | 0x01B8       |     14 |              4 |
| [10013](#event-10013)      | 0x01C6       |     12 |              3 |
| [10017](#event-10017)      | 0x01D2       |     14 |              4 |
| [65535.7](#event-655357)   | 0x01E0       |     38 |              7 |
| [65535.8](#event-655358)   | 0x0206       |     31 |              6 |
| [65535.9](#event-655359)   | 0x0225       |     38 |              7 |
| [65535.10](#event-6553510) | 0x024B       |     33 |              8 |
| [65535.11](#event-6553511) | 0x026C       |     38 |              7 |
| [65535.12](#event-6553512) | 0x0292       |     38 |              7 |
| [65535.13](#event-6553513) | 0x02B8       |     38 |              7 |
| [65535.14](#event-6553514) | 0x02DE       |     38 |              7 |
| [65535.15](#event-6553515) | 0x0304       |     38 |              7 |
| [65535.16](#event-6553516) | 0x032A       |     38 |              7 |
| [0](#event-0)              | 0x0350       |    397 |             76 |
| [65535.17](#event-6553517) | 0x04DD       |     10 |              2 |
| [65535.18](#event-6553518) | 0x04E7       |     14 |              4 |
| [309](#event-309)          | 0x04F5       |   3869 |            513 |
| [65535.19](#event-6553519) | 0x1412       |     19 |              5 |
| [65535.20](#event-6553520) | 0x1425       |      6 |              2 |
| [65535.21](#event-6553521) | 0x142B       |      6 |              2 |
| [65535.22](#event-6553522) | 0x1431       |     37 |              5 |
| [65535.23](#event-6553523) | 0x1456       |  18708 |           3218 |
| [65535.24](#event-6553524) | 0x5D6A       |     24 |              4 |
| [65535.25](#event-6553525) | 0x5D82       |     24 |              4 |
| [65535.26](#event-6553526) | 0x5D9A       |     37 |              5 |
| [65535.27](#event-6553527) | 0x5DBF       |     37 |              5 |
| [65535.28](#event-6553528) | 0x5DE4       |     42 |              6 |
| [65535.29](#event-6553529) | 0x5E0E       |     29 |              5 |
| [65535.30](#event-6553530) | 0x5E2B       |     15 |              5 |
| [65535.31](#event-6553531) | 0x5E3A       |     15 |              5 |
| [65535.32](#event-6553532) | 0x5E49       |     35 |              9 |
| [65535.33](#event-6553533) | 0x5E6C       |     41 |             10 |
| [65535.34](#event-6553534) | 0x5E95       |      9 |              3 |
| [65535.35](#event-6553535) | 0x5E9E       |      5 |              2 |
| [65535.36](#event-6553536) | 0x5EA3       |      5 |              2 |
| [65535.37](#event-6553537) | 0x5EA8       |      5 |              2 |
| [65535.38](#event-6553538) | 0x5EAD       |      5 |              2 |
| [65535.39](#event-6553539) | 0x5EB2       |    345 |             33 |
| [65535.40](#event-6553540) | 0x600B       |    345 |             33 |
| [65535.41](#event-6553541) | 0x6164       |    345 |             33 |
| [65535.42](#event-6553542) | 0x62BD       |     24 |              5 |
| [65535.43](#event-6553543) | 0x62D5       |    353 |             41 |
| [65535.44](#event-6553544) | 0x6436       |     54 |             12 |
| [65535.45](#event-6553545) | 0x646C       |      6 |              2 |
| [65535.46](#event-6553546) | 0x6472       |     22 |              8 |

## DAT References (imed_data)

|   Index | Hex Value   |   Dec Value |
|---------|-------------|-------------|
|       0 | 0x009A      |         154 |
|       1 | 0xFFFFF98B  |  4294965643 |
|       2 | 0x0000      |           0 |
|       3 | 0x0B83      |        2947 |
|       4 | 0x000D      |          13 |
|       5 | 0x00C8      |         200 |
|       6 | 0xFFFFF755  |  4294965077 |
|       7 | 0x0E73      |        3699 |
|       8 | 0x2007      |        8199 |
|       9 | 0x0C76      |        3190 |
|      10 | 0x0005      |           5 |
|      11 | 0x00CA      |         202 |
|      12 | 0x000A      |          10 |
|      13 | 0xFFFFF6CD  |  4294964941 |
|      14 | 0x15ED      |        5613 |
|      15 | 0xFFFFF3E1  |  4294964193 |
|      16 | 0x15AE      |        5550 |
|      17 | 0x09B9      |        2489 |
|      18 | 0x0F23      |        3875 |
|      19 | 0x0C72      |        3186 |
|      20 | 0x09A3      |        2467 |
|      21 | 0x158F      |        5519 |
|      22 | 0x077F      |        1919 |
|      23 | 0x1535      |        5429 |
|      24 | 0x001B      |          27 |
|      25 | 0xFFFFF90B  |  4294965515 |
|      26 | 0x2004      |        8196 |
|      27 | 0x002E      |          46 |
|      28 | 0x13D2      |        5074 |
|      29 | 0x22B9      |        8889 |
|      30 | 0x005A      |          90 |
|      31 | 0x0050      |          80 |
|      32 | 0x34BB      |       13499 |
|      33 | 0x22F7      |        8951 |
|      34 | 0xFFFEA942  |  4294879554 |
|      35 | 0x1C8D9     |      116953 |
|      36 | 0x2EDF      |       11999 |
|      37 | 0x0800      |        2048 |
|      38 | 0xFFFF3BB6  |  4294917046 |
|      39 | 0xFFFE38B3  |  4294850739 |
|      40 | 0x34A9      |       13481 |
|      41 | 0xFFFE37D4  |  4294850516 |
|      42 | 0xFFFFA14E  |  4294943054 |
|      43 | 0x1C8BB     |      116923 |
|      44 | 0xFFFED335  |  4294890293 |
|      45 | 0xD6F3      |       55027 |
|      46 | 0x1F40      |        8000 |
|      47 | 0x0B96      |        2966 |
|      48 | 0xFFFED2F8  |  4294890232 |
|      49 | 0xE7CD      |       59341 |
|      50 | 0x1F41      |        8001 |
|      51 | 0xFFFF11E1  |  4294906337 |
|      52 | 0xE953      |       59731 |
|      53 | 0x1F3E      |        7998 |
|      54 | 0x03F6      |        1014 |
|      55 | 0xFFFF11DB  |  4294906331 |
|      56 | 0xDFC3      |       57283 |
|      57 | 0x1EDA      |        7898 |
|      58 | 0xFFFF11C5  |  4294906309 |
|      59 | 0xD25F      |       53855 |
|      60 | 0x1F3F      |        7999 |
|      61 | 0xFFFF11BE  |  4294906302 |
|      62 | 0xFFFF2921  |  4294912289 |
|      63 | 0x0407      |        1031 |
|      64 | 0xFFFF117D  |  4294906237 |
|      65 | 0xFFFF1878  |  4294908024 |
|      66 | 0xFFFED33F  |  4294890303 |
|      67 | 0xFFFF1A2F  |  4294908463 |
|      68 | 0x0C17      |        3095 |
|      69 | 0xFFFED341  |  4294890305 |
|      70 | 0xFFFF29CB  |  4294912459 |
|      71 | 0x0B7C      |        2940 |
|      72 | 0xFFFF2A03  |  4294912515 |
|      73 | 0x03FE      |        1022 |
|      74 | 0x0BF8      |        3064 |
|      75 | 0xFFFF188E  |  4294908046 |
|      76 | 0xFFFFCD87  |  4294954375 |
|      77 | 0xFFFF1A88  |  4294908552 |
|      78 | 0x0BFC      |        3068 |
|      79 | 0xFFFFCD31  |  4294954289 |
|      80 | 0xFFFF2B29  |  4294912809 |
|      81 | 0xFFFFCD20  |  4294954272 |
|      82 | 0xFFFFCCE3  |  4294954211 |
|      83 | 0x0BCC      |        3020 |
|      84 | 0x0BB0      |        2992 |
|      85 | 0x0308      |         776 |
|      86 | 0x0071      |         113 |
|      87 | 0x001E      |          30 |
|      88 | 0x1B8A      |        7050 |
|      89 | 0x1B8B      |        7051 |
|      90 | 0x1B8C      |        7052 |
|      91 | 0x1B8D      |        7053 |
|      92 | 0x1B8E      |        7054 |
|      93 | 0x1B8F      |        7055 |
|      94 | 0x1B90      |        7056 |
|      95 | 0x1B91      |        7057 |
|      96 | 0x1B92      |        7058 |
|      97 | 0x1B93      |        7059 |
|      98 | 0x1B94      |        7060 |
|      99 | 0xFFFF3216  |  4294914582 |
|     100 | 0xFFFFEEA0  |  4294962848 |
|     101 | 0x0426      |        1062 |
|     102 | 0x003C      |          60 |
|     103 | 0x0013      |          19 |
|     104 | 0x6291      |       25233 |
|     105 | 0x0F9A      |        3994 |
|     106 | 0x0AA5      |        2725 |
|     107 | 0x00C4      |         196 |
|     108 | 0x1F00      |        7936 |
|     109 | 0x1F01      |        7937 |
|     110 | 0x1F02      |        7938 |
|     111 | 0x1F03      |        7939 |
|     112 | 0x1F04      |        7940 |
|     113 | 0x1F05      |        7941 |
|     114 | 0x1F06      |        7942 |
|     115 | 0x0078      |         120 |
|     116 | 0x000C      |          12 |
|     117 | 0x0001      |           1 |
|     118 | 0x009F      |         159 |
|     119 | 0x1F07      |        7943 |
|     120 | 0x1F08      |        7944 |
|     121 | 0x1F09      |        7945 |
|     122 | 0x1F0A      |        7946 |
|     123 | 0xFFFFC43A  |  4294951994 |
|     124 | 0x0E50      |        3664 |
|     125 | 0x0BB3      |        2995 |
|     126 | 0x1F0B      |        7947 |
|     127 | 0x1F0C      |        7948 |
|     128 | 0x1F0D      |        7949 |
|     129 | 0x0002      |           2 |
|     130 | 0x1F0E      |        7950 |
|     131 | 0x0003      |           3 |
|     132 | 0x1F0F      |        7951 |
|     133 | 0x0004      |           4 |
|     134 | 0x1F10      |        7952 |
|     135 | 0x1F13      |        7955 |
|     136 | 0x0006      |           6 |
|     137 | 0x1F14      |        7956 |
|     138 | 0x0007      |           7 |
|     139 | 0x1F15      |        7957 |
|     140 | 0x0008      |           8 |
|     141 | 0x1F16      |        7958 |
|     142 | 0x0009      |           9 |
|     143 | 0x1F17      |        7959 |
|     144 | 0x1F19      |        7961 |
|     145 | 0x1F1A      |        7962 |
|     146 | 0x1F1B      |        7963 |
|     147 | 0x1F1C      |        7964 |
|     148 | 0x1F1D      |        7965 |
|     149 | 0x1F1E      |        7966 |
|     150 | 0x1F1F      |        7967 |
|     151 | 0x1F20      |        7968 |
|     152 | 0x1F21      |        7969 |
|     153 | 0x1F22      |        7970 |
|     154 | 0x1F23      |        7971 |
|     155 | 0x1F24      |        7972 |
|     156 | 0x1F27      |        7975 |
|     157 | 0x1F28      |        7976 |
|     158 | 0x1F29      |        7977 |
|     159 | 0x1F2A      |        7978 |
|     160 | 0x1F2B      |        7979 |
|     161 | 0x1F2D      |        7981 |
|     162 | 0x1F2E      |        7982 |
|     163 | 0x1F2F      |        7983 |
|     164 | 0x1F30      |        7984 |
|     165 | 0x1F31      |        7985 |
|     166 | 0x1F32      |        7986 |
|     167 | 0x1F33      |        7987 |
|     168 | 0x1F34      |        7988 |
|     169 | 0x1F35      |        7989 |
|     170 | 0x1F36      |        7990 |
|     171 | 0x1F37      |        7991 |
|     172 | 0x1F38      |        7992 |
|     173 | 0x1F39      |        7993 |
|     174 | 0x0052      |          82 |
|     175 | 0x1F3A      |        7994 |
|     176 | 0x0030      |          48 |
|     177 | 0x1F3B      |        7995 |
|     178 | 0x1F3C      |        7996 |
|     179 | 0x1F3D      |        7997 |
|     180 | 0x1F42      |        8002 |
|     181 | 0x1F43      |        8003 |
|     182 | 0x1F44      |        8004 |
|     183 | 0x1F45      |        8005 |
|     184 | 0x1F46      |        8006 |
|     185 | 0x1F47      |        8007 |
|     186 | 0x1F48      |        8008 |
|     187 | 0x1F49      |        8009 |
|     188 | 0x1F4A      |        8010 |
|     189 | 0x1F4B      |        8011 |
|     190 | 0x0032      |          50 |
|     191 | 0x1F4C      |        8012 |
|     192 | 0x1F4D      |        8013 |
|     193 | 0x1FA0      |        8096 |
|     194 | 0x1FA1      |        8097 |
|     195 | 0x1FA2      |        8098 |
|     196 | 0x1FA3      |        8099 |
|     197 | 0x1FA4      |        8100 |
|     198 | 0x1FA7      |        8103 |
|     199 | 0x1FA8      |        8104 |
|     200 | 0x1FA9      |        8105 |
|     201 | 0x1FAA      |        8106 |
|     202 | 0x1FAB      |        8107 |
|     203 | 0x75C7      |       30151 |
|     204 | 0xFFFFF9D7  |  4294965719 |
|     205 | 0x080B      |        2059 |
|     206 | 0x0034      |          52 |
|     207 | 0x1F4E      |        8014 |
|     208 | 0x1F4F      |        8015 |
|     209 | 0x1F50      |        8016 |
|     210 | 0x1F51      |        8017 |
|     211 | 0x1F52      |        8018 |
|     212 | 0x00B4      |         180 |
|     213 | 0x1F9F      |        8095 |
|     214 | 0x00C9      |         201 |
|     215 | 0x006E      |         110 |
|     216 | 0xFFFFBC62  |  4294949986 |
|     217 | 0x194A      |        6474 |
|     218 | 0x005F      |          95 |
|     219 | 0x0064      |         100 |
|     220 | 0x0069      |         105 |
|     221 | 0x0057      |          87 |
|     222 | 0x005C      |          92 |
|     223 | 0x0059      |          89 |
|     224 | 0x005D      |          93 |
|     225 | 0x0061      |          97 |
|     226 | 0x0060      |          96 |
|     227 | 0x0012      |          18 |
|     228 | 0x0014      |          20 |
|     229 | 0x0017      |          23 |
|     230 | 0x000F      |          15 |
|     231 | 0x000E      |          14 |
|     232 | 0x000B      |          11 |
|     233 | 0x0018      |          24 |
|     234 | 0x001F      |          31 |
|     235 | 0x0010      |          16 |
|     236 | 0x0015      |          21 |
|     237 | 0x018D      |         397 |
|     238 | 0x0175      |         373 |
|     239 | 0x0170      |         368 |
|     240 | 0x0171      |         369 |
|     241 | 0x014C      |         332 |
|     242 | 0x01C1      |         449 |
|     243 | 0x027C      |         636 |
|     244 | 0x027B      |         635 |
|     245 | 0x027D      |         637 |
|     246 | 0x02D3      |         723 |
|     247 | 0x0321      |         801 |
|     248 | 0x0326      |         806 |
|     249 | 0x01E1      |         481 |
|     250 | 0x0343      |         835 |
|     251 | 0x0386      |         902 |
|     252 | 0x0388      |         904 |
|     253 | 0x0361      |         865 |
|     254 | 0x0387      |         903 |
|     255 | 0x038A      |         906 |
|     256 | 0x003F      |          63 |
|     257 | 0x0282      |         642 |
|     258 | 0x0283      |         643 |
|     259 | 0x0288      |         648 |
|     260 | 0x0289      |         649 |
|     261 | 0x028A      |         650 |
|     262 | 0x028B      |         651 |
|     263 | 0x029E      |         670 |
|     264 | 0x0019      |          25 |
|     265 | 0x00C6      |         198 |
|     266 | 0x00B5      |         181 |
|     267 | 0x008C      |         140 |
|     268 | 0x008E      |         142 |
|     269 | 0x007A      |         122 |
|     270 | 0x014B      |         331 |
|     271 | 0x0148      |         328 |
|     272 | 0x0166      |         358 |
|     273 | 0x017A      |         378 |
|     274 | 0x0182      |         386 |
|     275 | 0x0183      |         387 |
|     276 | 0x0192      |         402 |
|     277 | 0x01DF      |         479 |
|     278 | 0x01E9      |         489 |
|     279 | 0x001C      |          28 |
|     280 | 0x00E6      |         230 |
|     281 | 0x00EB      |         235 |
|     282 | 0x00F5      |         245 |
|     283 | 0x007E      |         126 |
|     284 | 0x007F      |         127 |
|     285 | 0x00F3      |         243 |
|     286 | 0x00F4      |         244 |
|     287 | 0x00E0      |         224 |
|     288 | 0x00E9      |         233 |
|     289 | 0x009E      |         158 |
|     290 | 0x009D      |         157 |
|     291 | 0x00E2      |         226 |
|     292 | 0x00E1      |         225 |
|     293 | 0x014F      |         335 |
|     294 | 0x014E      |         334 |
|     295 | 0x0167      |         359 |
|     296 | 0x00E5      |         229 |
|     297 | 0x0169      |         361 |
|     298 | 0x016A      |         362 |
|     299 | 0x0168      |         360 |
|     300 | 0x0133      |         307 |
|     301 | 0x0174      |         372 |
|     302 | 0x018C      |         396 |
|     303 | 0x0194      |         404 |
|     304 | 0x0195      |         405 |
|     305 | 0x0178      |         376 |
|     306 | 0x0240      |         576 |
|     307 | 0x0197      |         407 |
|     308 | 0x0198      |         408 |
|     309 | 0x01A3      |         419 |
|     310 | 0x019E      |         414 |
|     311 | 0x0246      |         582 |
|     312 | 0x0247      |         583 |
|     313 | 0x0248      |         584 |
|     314 | 0x024B      |         587 |
|     315 | 0x024A      |         586 |
|     316 | 0x0011      |          17 |
|     317 | 0x024F      |         591 |
|     318 | 0x01C3      |         451 |
|     319 | 0x01C4      |         452 |
|     320 | 0x01EF      |         495 |
|     321 | 0x01F0      |         496 |
|     322 | 0x001A      |          26 |
|     323 | 0x0095      |         149 |
|     324 | 0x001D      |          29 |
|     325 | 0x0073      |         115 |
|     326 | 0x0024      |          36 |
|     327 | 0x005E      |          94 |
|     328 | 0x0072      |         114 |
|     329 | 0x0031      |          49 |
|     330 | 0x006C      |         108 |
|     331 | 0x003A      |          58 |
|     332 | 0x0096      |         150 |
|     333 | 0x0016      |          22 |
|     334 | 0x0035      |          53 |
|     335 | 0x0085      |         133 |
|     336 | 0x0081      |         129 |
|     337 | 0x0023      |          35 |
|     338 | 0x0033      |          51 |
|     339 | 0x0082      |         130 |
|     340 | 0x0039      |          57 |
|     341 | 0x0020      |          32 |
|     342 | 0x0038      |          56 |
|     343 | 0x0036      |          54 |
|     344 | 0x0083      |         131 |
|     345 | 0x00A2      |         162 |
|     346 | 0x0022      |          34 |
|     347 | 0x0021      |          33 |
|     348 | 0x0065      |         101 |
|     349 | 0x0086      |         134 |
|     350 | 0x0062      |          98 |
|     351 | 0x008D      |         141 |
|     352 | 0x0037      |          55 |
|     353 | 0x008A      |         138 |
|     354 | 0x008B      |         139 |
|     355 | 0x002B      |          43 |
|     356 | 0x0067      |         103 |
|     357 | 0x002D      |          45 |
|     358 | 0x00A1      |         161 |
|     359 | 0x0066      |         102 |
|     360 | 0x0075      |         117 |
|     361 | 0x0068      |         104 |
|     362 | 0x007B      |         123 |
|     363 | 0x0077      |         119 |
|     364 | 0x01FE      |         510 |
|     365 | 0x00A4      |         164 |
|     366 | 0x00A9      |         169 |
|     367 | 0x00AC      |         172 |
|     368 | 0x00B2      |         178 |
|     369 | 0x00B0      |         176 |
|     370 | 0x013D      |         317 |
|     371 | 0x0108      |         264 |
|     372 | 0x010C      |         268 |
|     373 | 0x0100      |         256 |
|     374 | 0x00FB      |         251 |
|     375 | 0x00B8      |         184 |
|     376 | 0x011C      |         284 |
|     377 | 0x0041      |          65 |
|     378 | 0x0042      |          66 |
|     379 | 0x0047      |          71 |
|     380 | 0x0160      |         352 |
|     381 | 0x0043      |          67 |
|     382 | 0x0048      |          72 |
|     383 | 0x004B      |          75 |
|     384 | 0x004C      |          76 |
|     385 | 0x004D      |          77 |
|     386 | 0x005B      |          91 |
|     387 | 0x0058      |          88 |
|     388 | 0x0053      |          83 |
|     389 | 0x0054      |          84 |
|     390 | 0x0161      |         353 |
|     391 | 0x015C      |         348 |
|     392 | 0x016D      |         365 |
|     393 | 0x00C5      |         197 |
|     394 | 0x00C3      |         195 |
|     395 | 0x00C7      |         199 |
|     396 | 0x015E      |         350 |
|     397 | 0x016E      |         366 |
|     398 | 0x00D0      |         208 |
|     399 | 0x00CD      |         205 |
|     400 | 0x00D2      |         210 |
|     401 | 0x00D8      |         216 |
|     402 | 0x00D5      |         213 |
|     403 | 0x00D6      |         214 |
|     404 | 0x013B      |         315 |
|     405 | 0x0136      |         310 |
|     406 | 0x013A      |         314 |
|     407 | 0x0137      |         311 |
|     408 | 0x016F      |         367 |
|     409 | 0x0138      |         312 |
|     410 | 0x0139      |         313 |
|     411 | 0x0091      |         145 |
|     412 | 0x009B      |         155 |
|     413 | 0x0099      |         153 |
|     414 | 0x0093      |         147 |
|     415 | 0x0092      |         146 |
|     416 | 0x0098      |         152 |
|     417 | 0x00E8      |         232 |
|     418 | 0x00DD      |         221 |
|     419 | 0x00F8      |         248 |
|     420 | 0x00F1      |         241 |
|     421 | 0x0124      |         292 |
|     422 | 0x012E      |         302 |
|     423 | 0x0129      |         297 |
|     424 | 0x0122      |         290 |
|     425 | 0x0132      |         306 |
|     426 | 0x0126      |         294 |
|     427 | 0x0155      |         341 |
|     428 | 0x0025      |          37 |
|     429 | 0x0029      |          41 |
|     430 | 0x0028      |          40 |
|     431 | 0x007D      |         125 |
|     432 | 0x0079      |         121 |
|     433 | 0x007C      |         124 |
|     434 | 0x0074      |         116 |
|     435 | 0x00EC      |         236 |
|     436 | 0x019C      |         412 |
|     437 | 0x0193      |         403 |
|     438 | 0x01C6      |         454 |
|     439 | 0x01C7      |         455 |
|     440 | 0x0046      |          70 |
|     441 | 0xFFFF1455  |  4294906965 |
|     442 | 0x0140      |         320 |
|     443 | 0xFFFF1955  |  4294908245 |
|     444 | 0x0143      |         323 |
|     445 | 0xFFFF3967  |  4294916455 |
|     446 | 0xFFFFEE8B  |  4294962827 |
|     447 | 0xFFFF4D31  |  4294921521 |
|     448 | 0xFFFFF308  |  4294963976 |
|     449 | 0xFFFF5B31  |  4294925105 |
|     450 | 0xFFFFF3AB  |  4294964139 |
|     451 | 0x0E10      |        3600 |
|     452 | 0x0F26      |        3878 |
|     453 | 0x0097      |         151 |
|     454 | 0x00AB      |         171 |
|     455 | 0x00BF      |         191 |
|     456 | 0xFFFFDBA6  |  4294957990 |
|     457 | 0x0219      |         537 |
|     458 | 0x00B3      |         179 |
|     459 | 0x00BD      |         189 |
|     460 | 0x00D1      |         209 |
|     461 | 0xFFFE15C4  |  4294841796 |
|     462 | 0xFFFFFF9C  |  4294967196 |
|     463 | 0xFFFE0304  |  4294836996 |
|     464 | 0x122A      |        4650 |
|     465 | 0xFFFDF7E2  |  4294834146 |
|     466 | 0x1E28      |        7720 |
|     467 | 0xFFFDEB1C  |  4294830876 |
|     468 | 0x1DB0      |        7600 |
|     469 | 0xFFFFFC18  |  4294966296 |
|     470 | 0xFFFDDA3C  |  4294826556 |
|     471 | 0x03FC      |        1020 |
|     472 | 0xFFFF2353  |  4294910803 |
|     473 | 0x2315      |        8981 |

## String References

- **8095**: You feel the bonds between you and your adventuring fellow strengthen!

## Events

### Event 65535

#### Metadata

| Field        | Value   |
|--------------|---------|
| Entrypoint   | 0x0000  |
| Data Size    | 1 bytes |
| Instructions | 1       |

```
      00 01 02 03 04 05 06 07  08 09 0A 0B 0C 0D 0E 0F
      -- -- -- -- -- -- -- --  -- -- -- -- -- -- -- --
0000: 00                                                .               
```

#### Opcodes

```
  0: 0x0000 [0x00] END_REQSTACK()
```

### Event 65535.1

#### Metadata

| Field        | Value    |
|--------------|----------|
| Entrypoint   | 0x0001   |
| Data Size    | 10 bytes |
| Instructions | 2        |

```
      00 01 02 03 04 05 06 07  08 09 0A 0B 0C 0D 0E 0F
      -- -- -- -- -- -- -- --  -- -- -- -- -- -- -- --
0000:    37 00 80 01 80 02 80  03 80 00                  7.........     
```

#### Opcodes

```
  0: 0x0001 [0x37] UPDATE_EVENT_POSITION_AND_DIR: x=0.154*, z=-1.653*, y=0.000*, direction=259.0°*
  1: 0x000A [0x00] END_REQSTACK()
```

### Event 65534

#### Metadata

| Field        | Value   |
|--------------|---------|
| Entrypoint   | 0x000B  |
| Data Size    | 1 bytes |
| Instructions | 1       |

```
      00 01 02 03 04 05 06 07  08 09 0A 0B 0C 0D 0E 0F
      -- -- -- -- -- -- -- --  -- -- -- -- -- -- -- --
0000:                                   00                         .    
```

#### Opcodes

```
  0: 0x000B [0x00] END_REQSTACK()
```

### Event 21

#### Metadata

| Field        | Value   |
|--------------|---------|
| Entrypoint   | 0x000C  |
| Data Size    | 1 bytes |
| Instructions | 1       |

```
      00 01 02 03 04 05 06 07  08 09 0A 0B 0C 0D 0E 0F
      -- -- -- -- -- -- -- --  -- -- -- -- -- -- -- --
0000:                                      00                       .   
```

#### Opcodes

```
  0: 0x000C [0x00] END_REQSTACK()
```

### Event 65535.2

#### Metadata

| Field        | Value     |
|--------------|-----------|
| Entrypoint   | 0x000D    |
| Data Size    | 132 bytes |
| Instructions | 20        |

```
      00 01 02 03 04 05 06 07  08 09 0A 0B 0C 0D 0E 0F
      -- -- -- -- -- -- -- --  -- -- -- -- -- -- -- --
0000:                                         32 04 80               2..
0010: 45 05 80 F0 FF FF 7F F0  FF FF 7F 66 64 6F 31 02  E..........fdo1.
0020: 80 55 05 80 F0 FF FF 7F  F0 FF FF 7F 66 64 6F 31  .U..........fdo1
0030: 33 01 37 06 80 07 80 08  80 09 80 1C 0A 80 45 0B  3.7...........E.
0040: 80 F0 FF FF 7F F0 FF FF  7F 63 30 35 69 02 80 1C  .........c05i...
0050: 0C 80 45 05 80 F0 FF FF  7F F0 FF FF 7F 66 64 69  ..E..........fdi
0060: 31 02 80 55 05 80 F0 FF  FF 7F F0 FF FF 7F 66 64  1..U..........fd
0070: 69 31 5A 00 0D 80 0E 80  08 80 5A 01 33 00 1F 00  i1Z.......Z.3...
0080: 0F 80 10 80 08 80 1F 01  6F 1E 34 60 0F 01 6F 70  ........o.4`..op
0090: 00                                                .               
```

#### Opcodes

```
  0: 0x000D [0x32] ExtData[1]->MainSpeed = 13* * 0.1
  1: 0x0010 [0x45] LOAD_SCHEDULED_TASK: Load scheduler "fdo1" with entities [LocalPlayer, LocalPlayer], work=[200*, 0*]
  2: 0x0021 [0x55] WAIT_LOAD_SCHEDULER: Wait for scheduler "fdo1" with entities [LocalPlayer, LocalPlayer], work=200*
  3: 0x0030 [0x33] EventEntity->Render.Flags0 |= 0x200000 // Bit 21 (flag=0x01)
  4: 0x0032 [0x37] UPDATE_EVENT_POSITION_AND_DIR: x=-2.219*, z=3.699*, y=8.199*, direction=280.4°*
  5: 0x003B [0x1C] WAIT(5* ticks)
  6: 0x003E [0x45] LOAD_SCHEDULED_TASK: Load scheduler "c05i" with entities [LocalPlayer, LocalPlayer], work=[202*, 0*]
  7: 0x004F [0x1C] WAIT(10* ticks)
  8: 0x0052 [0x45] LOAD_SCHEDULED_TASK: Load scheduler "fdi1" with entities [LocalPlayer, LocalPlayer], work=[200*, 0*]
  9: 0x0063 [0x55] WAIT_LOAD_SCHEDULER: Wait for scheduler "fdi1" with entities [LocalPlayer, LocalPlayer], work=200*
 10: 0x0072 [0x5A] UPDATE_EVENT_POSITION: Set EventEntity MovePosition to X=-2.355*, Z=5.613*, Y=8.199*
 11: 0x007A [0x5A] UPDATE_EVENT_POSITION: Move EventEntity incrementally towards MovePosition
 12: 0x007C [0x33] EventEntity->Render.Flags0 &= ~ 0x200000 // Bit 21 (flag=0x00)
 13: 0x007E [0x1F] MOVE_ENTITY: EventEntity moves to X=-3.103*, Z=5.550*, Y=8.199*
 14: 0x0086 [0x1F] MOVE_ENTITY: Update entity position (mode=1)
 15: 0x0088 [0x6F] WAIT_FRAME_DELAY: Yield until WaitTime reaches zero
 16: 0x0089 [0x1E] EventEntity looks at Chocobo (ID: 17784884/0x010F6034) and starts talking
 17: 0x008E [0x6F] WAIT_FRAME_DELAY: Yield until WaitTime reaches zero
 18: 0x008F [0x70] WAIT_ENTITY_RENDER_FLAG: Wait while EventEntity->Render.Flags3 bit 2 is set (cancel turn if not)
 19: 0x0090 [0x00] END_REQSTACK()
```

### Event 65535.3

#### Metadata

| Field        | Value   |
|--------------|---------|
| Entrypoint   | 0x0091  |
| Data Size    | 1 bytes |
| Instructions | 1       |

```
      00 01 02 03 04 05 06 07  08 09 0A 0B 0C 0D 0E 0F
      -- -- -- -- -- -- -- --  -- -- -- -- -- -- -- --
0090:    00                                              .              
```

#### Opcodes

```
  0: 0x0091 [0x00] END_REQSTACK()
```

### Event 65535.4

#### Metadata

| Field        | Value     |
|--------------|-----------|
| Entrypoint   | 0x0092    |
| Data Size    | 132 bytes |
| Instructions | 20        |

```
      00 01 02 03 04 05 06 07  08 09 0A 0B 0C 0D 0E 0F
      -- -- -- -- -- -- -- --  -- -- -- -- -- -- -- --
0090:       32 04 80 45 05 80  F0 FF FF 7F F0 FF FF 7F    2..E..........
00A0: 66 64 6F 31 02 80 55 05  80 F0 FF FF 7F F0 FF FF  fdo1..U.........
00B0: 7F 66 64 6F 31 33 01 37  11 80 12 80 08 80 13 80  .fdo13.7........
00C0: 1C 0A 80 45 0B 80 F0 FF  FF 7F F0 FF FF 7F 63 30  ...E..........c0
00D0: 35 69 02 80 1C 0C 80 45  05 80 F0 FF FF 7F F0 FF  5i.....E........
00E0: FF 7F 66 64 69 31 02 80  55 05 80 F0 FF FF 7F F0  ..fdi1..U.......
00F0: FF FF 7F 66 64 69 31 5A  00 14 80 15 80 08 80 5A  ...fdi1Z.......Z
0100: 01 33 00 1F 00 16 80 17  80 08 80 1F 01 6F 1E 35  .3...........o.5
0110: 60 0F 01 6F 70 00                                 `..op.          
```

#### Opcodes

```
  0: 0x0092 [0x32] ExtData[1]->MainSpeed = 13* * 0.1
  1: 0x0095 [0x45] LOAD_SCHEDULED_TASK: Load scheduler "fdo1" with entities [LocalPlayer, LocalPlayer], work=[200*, 0*]
  2: 0x00A6 [0x55] WAIT_LOAD_SCHEDULER: Wait for scheduler "fdo1" with entities [LocalPlayer, LocalPlayer], work=200*
  3: 0x00B5 [0x33] EventEntity->Render.Flags0 |= 0x200000 // Bit 21 (flag=0x01)
  4: 0x00B7 [0x37] UPDATE_EVENT_POSITION_AND_DIR: x=2.489*, z=3.875*, y=8.199*, direction=280.0°*
  5: 0x00C0 [0x1C] WAIT(5* ticks)
  6: 0x00C3 [0x45] LOAD_SCHEDULED_TASK: Load scheduler "c05i" with entities [LocalPlayer, LocalPlayer], work=[202*, 0*]
  7: 0x00D4 [0x1C] WAIT(10* ticks)
  8: 0x00D7 [0x45] LOAD_SCHEDULED_TASK: Load scheduler "fdi1" with entities [LocalPlayer, LocalPlayer], work=[200*, 0*]
  9: 0x00E8 [0x55] WAIT_LOAD_SCHEDULER: Wait for scheduler "fdi1" with entities [LocalPlayer, LocalPlayer], work=200*
 10: 0x00F7 [0x5A] UPDATE_EVENT_POSITION: Set EventEntity MovePosition to X=2.467*, Z=5.519*, Y=8.199*
 11: 0x00FF [0x5A] UPDATE_EVENT_POSITION: Move EventEntity incrementally towards MovePosition
 12: 0x0101 [0x33] EventEntity->Render.Flags0 &= ~ 0x200000 // Bit 21 (flag=0x00)
 13: 0x0103 [0x1F] MOVE_ENTITY: EventEntity moves to X=1.919*, Z=5.429*, Y=8.199*
 14: 0x010B [0x1F] MOVE_ENTITY: Update entity position (mode=1)
 15: 0x010D [0x6F] WAIT_FRAME_DELAY: Yield until WaitTime reaches zero
 16: 0x010E [0x1E] EventEntity looks at Chocobo (ID: 17784885/0x010F6035) and starts talking
 17: 0x0113 [0x6F] WAIT_FRAME_DELAY: Yield until WaitTime reaches zero
 18: 0x0114 [0x70] WAIT_ENTITY_RENDER_FLAG: Wait while EventEntity->Render.Flags3 bit 2 is set (cancel turn if not)
 19: 0x0115 [0x00] END_REQSTACK()
```

### Event 65535.5

#### Metadata

| Field        | Value   |
|--------------|---------|
| Entrypoint   | 0x0116  |
| Data Size    | 1 bytes |
| Instructions | 1       |

```
      00 01 02 03 04 05 06 07  08 09 0A 0B 0C 0D 0E 0F
      -- -- -- -- -- -- -- --  -- -- -- -- -- -- -- --
0110:                   00                                    .         
```

#### Opcodes

```
  0: 0x0116 [0x00] END_REQSTACK()
```

### Event 65535.6

#### Metadata

| Field        | Value    |
|--------------|----------|
| Entrypoint   | 0x0117   |
| Data Size    | 99 bytes |
| Instructions | 13       |

```
      00 01 02 03 04 05 06 07  08 09 0A 0B 0C 0D 0E 0F
      -- -- -- -- -- -- -- --  -- -- -- -- -- -- -- --
0110:                      32  18 80 37 19 80 1A 80 08         2..7.....
0120: 80 1B 80 45 0B 80 F0 FF  FF 7F F0 FF FF 7F 63 30  ...E..........c0
0130: 31 69 02 80 31 00 1C 80  1D 80 08 80 1E 80 31 01  1i..1.........1.
0140: 45 05 80 F8 FF FF 7F F8  FF FF 7F 66 64 6F 31 02  E..........fdo1.
0150: 80 1F 00 1C 80 1D 80 08  80 1F 01 32 1F 80 45 0B  ...........2..E.
0160: 80 F0 FF FF 7F F0 FF FF  7F 63 30 30 69 02 80 1F  .........c00i...
0170: 00 20 80 21 80 08 80 1F  01 00                    . .!......      
```

#### Opcodes

```
  0: 0x0117 [0x32] ExtData[1]->MainSpeed = 27* * 0.1
  1: 0x011A [0x37] UPDATE_EVENT_POSITION_AND_DIR: x=-1.781*, z=8.196*, y=8.199*, direction=4.0°*
  2: 0x0123 [0x45] LOAD_SCHEDULED_TASK: Load scheduler "c01i" with entities [LocalPlayer, LocalPlayer], work=[202*, 0*]
  3: 0x0134 [0x31] UPDATE_ENTITY_POSITION: Set EventEntity goal position to X=5.074*, Z=8.889*, Y=8.199*, Time=90*
  4: 0x013E [0x31] UPDATE_ENTITY_POSITION: Move EventEntity towards goal position
  5: 0x0140 [0x45] LOAD_SCHEDULED_TASK: Load scheduler "fdo1" with entities [EventEntity, EventEntity], work=[200*, 0*]
  6: 0x0151 [0x1F] MOVE_ENTITY: EventEntity moves to X=5.074*, Z=8.889*, Y=8.199*
  7: 0x0159 [0x1F] MOVE_ENTITY: Update entity position (mode=1)
  8: 0x015B [0x32] ExtData[1]->MainSpeed = 80* * 0.1
  9: 0x015E [0x45] LOAD_SCHEDULED_TASK: Load scheduler "c00i" with entities [LocalPlayer, LocalPlayer], work=[202*, 0*]
 10: 0x016F [0x1F] MOVE_ENTITY: EventEntity moves to X=13.499*, Z=8.951*, Y=8.199*
 11: 0x0177 [0x1F] MOVE_ENTITY: Update entity position (mode=1)
 12: 0x0179 [0x00] END_REQSTACK()
```

### Event 10010

#### Metadata

| Field        | Value    |
|--------------|----------|
| Entrypoint   | 0x017A   |
| Data Size    | 10 bytes |
| Instructions | 3        |

```
      00 01 02 03 04 05 06 07  08 09 0A 0B 0C 0D 0E 0F
      -- -- -- -- -- -- -- --  -- -- -- -- -- -- -- --
0170:                                22 01 36 22 80 23            ".6".#
0180: 80 24 80 00                                       .$..            
```

#### Opcodes

```
  0: 0x017A [0x22] ENTITY_HIDE_FLAG(enabled=0x01)
  1: 0x017C [0x36] SET_ENTITY_EVENT_POSITION(pos_x=-87.742*, pos_z=116.953*, pos_y=11.999*)
  2: 0x0183 [0x00] END_REQSTACK()
```

### Event 10014

#### Metadata

| Field        | Value    |
|--------------|----------|
| Entrypoint   | 0x0184   |
| Data Size    | 14 bytes |
| Instructions | 4        |

```
      00 01 02 03 04 05 06 07  08 09 0A 0B 0C 0D 0E 0F
      -- -- -- -- -- -- -- --  -- -- -- -- -- -- -- --
0180:             47 00 22 80  23 80 24 80 25 80 47 01      G.".#.$.%.G.
0190: 21 00                                             !.              
```

#### Opcodes

```
  0: 0x0184 [0x47] UPDATE_PLAYER_POS(-87.742*, 116.953*, 11.999*, yaw=180.0°*)
  1: 0x018E [0x47] WAIT_PLAYER_POS_UPDATE
  2: 0x0190 [0x21] END_EVENT
  3: 0x0191 [0x00] END_REQSTACK()
```

### Event 10012

#### Metadata

| Field        | Value    |
|--------------|----------|
| Entrypoint   | 0x0192   |
| Data Size    | 12 bytes |
| Instructions | 3        |

```
      00 01 02 03 04 05 06 07  08 09 0A 0B 0C 0D 0E 0F
      -- -- -- -- -- -- -- --  -- -- -- -- -- -- -- --
0190:       22 01 37 26 80 27  80 24 80 02 80 00          ".7&.'.$....  
```

#### Opcodes

```
  0: 0x0192 [0x22] ENTITY_HIDE_FLAG(enabled=0x01)
  1: 0x0194 [0x37] UPDATE_EVENT_POSITION_AND_DIR: x=-50.250*, z=-116.557*, y=11.999*, direction=0.0°*
  2: 0x019D [0x00] END_REQSTACK()
```

### Event 10016

#### Metadata

| Field        | Value    |
|--------------|----------|
| Entrypoint   | 0x019E   |
| Data Size    | 14 bytes |
| Instructions | 4        |

```
      00 01 02 03 04 05 06 07  08 09 0A 0B 0C 0D 0E 0F
      -- -- -- -- -- -- -- --  -- -- -- -- -- -- -- --
0190:                                            47 00                G.
01A0: 26 80 27 80 24 80 02 80  47 01 21 00              &.'.$...G.!.    
```

#### Opcodes

```
  0: 0x019E [0x47] UPDATE_PLAYER_POS(-50.250*, -116.557*, 11.999*, yaw=0.0°*)
  1: 0x01A8 [0x47] WAIT_PLAYER_POS_UPDATE
  2: 0x01AA [0x21] END_EVENT
  3: 0x01AB [0x00] END_REQSTACK()
```

### Event 10011

#### Metadata

| Field        | Value    |
|--------------|----------|
| Entrypoint   | 0x01AC   |
| Data Size    | 12 bytes |
| Instructions | 3        |

```
      00 01 02 03 04 05 06 07  08 09 0A 0B 0C 0D 0E 0F
      -- -- -- -- -- -- -- --  -- -- -- -- -- -- -- --
01A0:                                      22 01 37 28              ".7(
01B0: 80 29 80 24 80 02 80 00                           .).$....        
```

#### Opcodes

```
  0: 0x01AC [0x22] ENTITY_HIDE_FLAG(enabled=0x01)
  1: 0x01AE [0x37] UPDATE_EVENT_POSITION_AND_DIR: x=13.481*, z=-116.780*, y=11.999*, direction=0.0°*
  2: 0x01B7 [0x00] END_REQSTACK()
```

### Event 10015

#### Metadata

| Field        | Value    |
|--------------|----------|
| Entrypoint   | 0x01B8   |
| Data Size    | 14 bytes |
| Instructions | 4        |

```
      00 01 02 03 04 05 06 07  08 09 0A 0B 0C 0D 0E 0F
      -- -- -- -- -- -- -- --  -- -- -- -- -- -- -- --
01B0:                          47 00 28 80 29 80 24 80          G.(.).$.
01C0: 02 80 47 01 21 00                                 ..G.!.          
```

#### Opcodes

```
  0: 0x01B8 [0x47] UPDATE_PLAYER_POS(13.481*, -116.780*, 11.999*, yaw=0.0°*)
  1: 0x01C2 [0x47] WAIT_PLAYER_POS_UPDATE
  2: 0x01C4 [0x21] END_EVENT
  3: 0x01C5 [0x00] END_REQSTACK()
```

### Event 10013

#### Metadata

| Field        | Value    |
|--------------|----------|
| Entrypoint   | 0x01C6   |
| Data Size    | 12 bytes |
| Instructions | 3        |

```
      00 01 02 03 04 05 06 07  08 09 0A 0B 0C 0D 0E 0F
      -- -- -- -- -- -- -- --  -- -- -- -- -- -- -- --
01C0:                   22 01  37 2A 80 2B 80 24 80 25        ".7*.+.$.%
01D0: 80 00                                             ..              
```

#### Opcodes

```
  0: 0x01C6 [0x22] ENTITY_HIDE_FLAG(enabled=0x01)
  1: 0x01C8 [0x37] UPDATE_EVENT_POSITION_AND_DIR: x=-24.242*, z=116.923*, y=11.999*, direction=180.0°*
  2: 0x01D1 [0x00] END_REQSTACK()
```

### Event 10017

#### Metadata

| Field        | Value    |
|--------------|----------|
| Entrypoint   | 0x01D2   |
| Data Size    | 14 bytes |
| Instructions | 4        |

```
      00 01 02 03 04 05 06 07  08 09 0A 0B 0C 0D 0E 0F
      -- -- -- -- -- -- -- --  -- -- -- -- -- -- -- --
01D0:       47 00 2A 80 2B 80  24 80 25 80 47 01 21 00    G.*.+.$.%.G.!.
```

#### Opcodes

```
  0: 0x01D2 [0x47] UPDATE_PLAYER_POS(-24.242*, 116.923*, 11.999*, yaw=180.0°*)
  1: 0x01DC [0x47] WAIT_PLAYER_POS_UPDATE
  2: 0x01DE [0x21] END_EVENT
  3: 0x01DF [0x00] END_REQSTACK()
```

### Event 65535.7

#### Metadata

| Field        | Value    |
|--------------|----------|
| Entrypoint   | 0x01E0   |
| Data Size    | 38 bytes |
| Instructions | 7        |

```
      00 01 02 03 04 05 06 07  08 09 0A 0B 0C 0D 0E 0F
      -- -- -- -- -- -- -- --  -- -- -- -- -- -- -- --
01E0: 79 00 F0 FF FF 7F F0 FF  FF 7F 7B F0 FF FF 7F 32  y.........{....2
01F0: 04 80 37 2C 80 2D 80 2E  80 2F 80 1F 00 30 80 31  ..7,.-.../...0.1
0200: 80 32 80 1F 01 00                                 .2....          
```

#### Opcodes

```
  0: 0x01E0 [0x79] LocalPlayer looks at LocalPlayer (Basic look)
  1: 0x01EA [0x7B] LocalPlayer stops talking
  2: 0x01EF [0x32] ExtData[1]->MainSpeed = 13* * 0.1
  3: 0x01F2 [0x37] UPDATE_EVENT_POSITION_AND_DIR: x=-77.003*, z=55.027*, y=8.000*, direction=260.7°*
  4: 0x01FB [0x1F] MOVE_ENTITY: EventEntity moves to X=-77.064*, Z=59.341*, Y=8.001*
  5: 0x0203 [0x1F] MOVE_ENTITY: Update entity position (mode=1)
  6: 0x0205 [0x00] END_REQSTACK()
```

### Event 65535.8

#### Metadata

| Field        | Value    |
|--------------|----------|
| Entrypoint   | 0x0206   |
| Data Size    | 31 bytes |
| Instructions | 6        |

```
      00 01 02 03 04 05 06 07  08 09 0A 0B 0C 0D 0E 0F
      -- -- -- -- -- -- -- --  -- -- -- -- -- -- -- --
0200:                   79 00  F0 FF FF 7F F0 FF FF 7F        y.........
0210: 7B F0 FF FF 7F 32 04 80  37 33 80 34 80 35 80 36  {....2..73.4.5.6
0220: 80 1A 61 02 00                                    ..a..           
```

#### Opcodes

```
  0: 0x0206 [0x79] LocalPlayer looks at LocalPlayer (Basic look)
  1: 0x0210 [0x7B] LocalPlayer stops talking
  2: 0x0215 [0x32] ExtData[1]->MainSpeed = 13* * 0.1
  3: 0x0218 [0x37] UPDATE_EVENT_POSITION_AND_DIR: x=-60.959*, z=59.731*, y=7.998*, direction=89.1°*
  4: 0x0221 [0x1A] CALL_SUBROUTINE(address=0x0261)
  5: 0x0224 [0x00] END_REQSTACK()
```

### Event 65535.9

#### Metadata

| Field        | Value    |
|--------------|----------|
| Entrypoint   | 0x0225   |
| Data Size    | 38 bytes |
| Instructions | 7        |

```
      00 01 02 03 04 05 06 07  08 09 0A 0B 0C 0D 0E 0F
      -- -- -- -- -- -- -- --  -- -- -- -- -- -- -- --
0220:                79 00 F0  FF FF 7F F0 FF FF 7F 7B       y.........{
0230: F0 FF FF 7F 32 04 80 37  33 80 34 80 35 80 36 80  ....2..73.4.5.6.
0240: 1F 00 37 80 38 80 39 80  1F 01 00                 ..7.8.9....     
```

#### Opcodes

```
  0: 0x0225 [0x79] LocalPlayer looks at LocalPlayer (Basic look)
  1: 0x022F [0x7B] LocalPlayer stops talking
  2: 0x0234 [0x32] ExtData[1]->MainSpeed = 13* * 0.1
  3: 0x0237 [0x37] UPDATE_EVENT_POSITION_AND_DIR: x=-60.959*, z=59.731*, y=7.998*, direction=89.1°*
  4: 0x0240 [0x1F] MOVE_ENTITY: EventEntity moves to X=-60.965*, Z=57.283*, Y=7.898*
  5: 0x0248 [0x1F] MOVE_ENTITY: Update entity position (mode=1)
  6: 0x024A [0x00] END_REQSTACK()
```

### Event 65535.10

#### Metadata

| Field        | Value    |
|--------------|----------|
| Entrypoint   | 0x024B   |
| Data Size    | 33 bytes |
| Instructions | 8        |

```
      00 01 02 03 04 05 06 07  08 09 0A 0B 0C 0D 0E 0F
      -- -- -- -- -- -- -- --  -- -- -- -- -- -- -- --
0240:                                   79 00 F0 FF FF             y....
0250: 7F F0 FF FF 7F 7B F0 FF  FF 7F 32 04 80 1A 61 02  .....{....2...a.
0260: 00 1F 00 3A 80 3B 80 3C  80 1F 01 1B              ...:.;.<....    
```

#### Opcodes

```
  0: 0x024B [0x79] LocalPlayer looks at LocalPlayer (Basic look)
  1: 0x0255 [0x7B] LocalPlayer stops talking
  2: 0x025A [0x32] ExtData[1]->MainSpeed = 13* * 0.1
  3: 0x025D [0x1A] CALL_SUBROUTINE(address=0x0261)
  4: 0x0260 [0x00] END_REQSTACK()

SUBROUTINE_0261:
  5: 0x0261 [0x1F] MOVE_ENTITY: EventEntity moves to X=-60.987*, Z=53.855*, Y=7.999*
  6: 0x0269 [0x1F] MOVE_ENTITY: Update entity position (mode=1)
  7: 0x026B [0x1B] RETURN
```

### Event 65535.11

#### Metadata

| Field        | Value    |
|--------------|----------|
| Entrypoint   | 0x026C   |
| Data Size    | 38 bytes |
| Instructions | 7        |

```
      00 01 02 03 04 05 06 07  08 09 0A 0B 0C 0D 0E 0F
      -- -- -- -- -- -- -- --  -- -- -- -- -- -- -- --
0260:                                      79 00 F0 FF              y...
0270: FF 7F F0 FF FF 7F 7B F0  FF FF 7F 32 04 80 37 3D  ......{....2..7=
0280: 80 3E 80 3C 80 3F 80 1F  00 40 80 41 80 32 80 1F  .>.<.?...@.A.2..
0290: 01 00                                             ..              
```

#### Opcodes

```
  0: 0x026C [0x79] LocalPlayer looks at LocalPlayer (Basic look)
  1: 0x0276 [0x7B] LocalPlayer stops talking
  2: 0x027B [0x32] ExtData[1]->MainSpeed = 13* * 0.1
  3: 0x027E [0x37] UPDATE_EVENT_POSITION_AND_DIR: x=-60.994*, z=-55.007*, y=7.999*, direction=90.6°*
  4: 0x0287 [0x1F] MOVE_ENTITY: EventEntity moves to X=-61.059*, Z=-59.272*, Y=8.001*
  5: 0x028F [0x1F] MOVE_ENTITY: Update entity position (mode=1)
  6: 0x0291 [0x00] END_REQSTACK()
```

### Event 65535.12

#### Metadata

| Field        | Value    |
|--------------|----------|
| Entrypoint   | 0x0292   |
| Data Size    | 38 bytes |
| Instructions | 7        |

```
      00 01 02 03 04 05 06 07  08 09 0A 0B 0C 0D 0E 0F
      -- -- -- -- -- -- -- --  -- -- -- -- -- -- -- --
0290:       79 00 F0 FF FF 7F  F0 FF FF 7F 7B F0 FF FF    y.........{...
02A0: 7F 32 04 80 37 42 80 43  80 39 80 44 80 1F 00 45  .2..7B.C.9.D...E
02B0: 80 46 80 2E 80 1F 01 00                           .F......        
```

#### Opcodes

```
  0: 0x0292 [0x79] LocalPlayer looks at LocalPlayer (Basic look)
  1: 0x029C [0x7B] LocalPlayer stops talking
  2: 0x02A1 [0x32] ExtData[1]->MainSpeed = 13* * 0.1
  3: 0x02A4 [0x37] UPDATE_EVENT_POSITION_AND_DIR: x=-76.993*, z=-58.833*, y=7.898*, direction=272.0°*
  4: 0x02AD [0x1F] MOVE_ENTITY: EventEntity moves to X=-76.991*, Z=-54.837*, Y=8.000*
  5: 0x02B5 [0x1F] MOVE_ENTITY: Update entity position (mode=1)
  6: 0x02B7 [0x00] END_REQSTACK()
```

### Event 65535.13

#### Metadata

| Field        | Value    |
|--------------|----------|
| Entrypoint   | 0x02B8   |
| Data Size    | 38 bytes |
| Instructions | 7        |

```
      00 01 02 03 04 05 06 07  08 09 0A 0B 0C 0D 0E 0F
      -- -- -- -- -- -- -- --  -- -- -- -- -- -- -- --
02B0:                          79 00 F0 FF FF 7F F0 FF          y.......
02C0: FF 7F 7B F0 FF FF 7F 32  04 80 37 47 80 48 80 3C  ..{....2..7G.H.<
02D0: 80 49 80 1F 00 4A 80 4B  80 32 80 1F 01 00        .I...J.K.2....  
```

#### Opcodes

```
  0: 0x02B8 [0x79] LocalPlayer looks at LocalPlayer (Basic look)
  1: 0x02C2 [0x7B] LocalPlayer stops talking
  2: 0x02C7 [0x32] ExtData[1]->MainSpeed = 13* * 0.1
  3: 0x02CA [0x37] UPDATE_EVENT_POSITION_AND_DIR: x=2.940*, z=-54.781*, y=7.999*, direction=89.8°*
  4: 0x02D3 [0x1F] MOVE_ENTITY: EventEntity moves to X=3.064*, Z=-59.250*, Y=8.001*
  5: 0x02DB [0x1F] MOVE_ENTITY: Update entity position (mode=1)
  6: 0x02DD [0x00] END_REQSTACK()
```

### Event 65535.14

#### Metadata

| Field        | Value    |
|--------------|----------|
| Entrypoint   | 0x02DE   |
| Data Size    | 38 bytes |
| Instructions | 7        |

```
      00 01 02 03 04 05 06 07  08 09 0A 0B 0C 0D 0E 0F
      -- -- -- -- -- -- -- --  -- -- -- -- -- -- -- --
02D0:                                            79 00                y.
02E0: F0 FF FF 7F F0 FF FF 7F  7B F0 FF FF 7F 32 04 80  ........{....2..
02F0: 37 4C 80 4D 80 39 80 4E  80 1F 00 4F 80 50 80 2E  7L.M.9.N...O.P..
0300: 80 1F 01 00                                       ....            
```

#### Opcodes

```
  0: 0x02DE [0x79] LocalPlayer looks at LocalPlayer (Basic look)
  1: 0x02E8 [0x7B] LocalPlayer stops talking
  2: 0x02ED [0x32] ExtData[1]->MainSpeed = 13* * 0.1
  3: 0x02F0 [0x37] UPDATE_EVENT_POSITION_AND_DIR: x=-12.921*, z=-58.744*, y=7.898*, direction=269.6°*
  4: 0x02F9 [0x1F] MOVE_ENTITY: EventEntity moves to X=-13.007*, Z=-54.487*, Y=8.000*
  5: 0x0301 [0x1F] MOVE_ENTITY: Update entity position (mode=1)
  6: 0x0303 [0x00] END_REQSTACK()
```

### Event 65535.15

#### Metadata

| Field        | Value    |
|--------------|----------|
| Entrypoint   | 0x0304   |
| Data Size    | 38 bytes |
| Instructions | 7        |

```
      00 01 02 03 04 05 06 07  08 09 0A 0B 0C 0D 0E 0F
      -- -- -- -- -- -- -- --  -- -- -- -- -- -- -- --
0300:             79 00 F0 FF  FF 7F F0 FF FF 7F 7B F0      y.........{.
0310: FF FF 7F 32 04 80 37 51  80 2D 80 2E 80 2F 80 1F  ...2..7Q.-.../..
0320: 00 52 80 31 80 32 80 1F  01 00                    .R.1.2....      
```

#### Opcodes

```
  0: 0x0304 [0x79] LocalPlayer looks at LocalPlayer (Basic look)
  1: 0x030E [0x7B] LocalPlayer stops talking
  2: 0x0313 [0x32] ExtData[1]->MainSpeed = 13* * 0.1
  3: 0x0316 [0x37] UPDATE_EVENT_POSITION_AND_DIR: x=-13.024*, z=55.027*, y=8.000*, direction=260.7°*
  4: 0x031F [0x1F] MOVE_ENTITY: EventEntity moves to X=-13.085*, Z=59.341*, Y=8.001*
  5: 0x0327 [0x1F] MOVE_ENTITY: Update entity position (mode=1)
  6: 0x0329 [0x00] END_REQSTACK()
```

### Event 65535.16

#### Metadata

| Field        | Value    |
|--------------|----------|
| Entrypoint   | 0x032A   |
| Data Size    | 38 bytes |
| Instructions | 7        |

```
      00 01 02 03 04 05 06 07  08 09 0A 0B 0C 0D 0E 0F
      -- -- -- -- -- -- -- --  -- -- -- -- -- -- -- --
0320:                                79 00 F0 FF FF 7F            y.....
0330: F0 FF FF 7F 7B F0 FF FF  7F 32 04 80 37 53 80 34  ....{....2..7S.4
0340: 80 35 80 36 80 1F 00 54  80 3B 80 3C 80 1F 01 00  .5.6...T.;.<....
```

#### Opcodes

```
  0: 0x032A [0x79] LocalPlayer looks at LocalPlayer (Basic look)
  1: 0x0334 [0x7B] LocalPlayer stops talking
  2: 0x0339 [0x32] ExtData[1]->MainSpeed = 13* * 0.1
  3: 0x033C [0x37] UPDATE_EVENT_POSITION_AND_DIR: x=3.020*, z=59.731*, y=7.998*, direction=89.1°*
  4: 0x0345 [0x1F] MOVE_ENTITY: EventEntity moves to X=2.992*, Z=53.855*, Y=7.999*
  5: 0x034D [0x1F] MOVE_ENTITY: Update entity position (mode=1)
  6: 0x034F [0x00] END_REQSTACK()
```

### Event 0

#### Metadata

| Field        | Value     |
|--------------|-----------|
| Entrypoint   | 0x0350    |
| Data Size    | 397 bytes |
| Instructions | 76        |

```
      00 01 02 03 04 05 06 07  08 09 0A 0B 0C 0D 0E 0F
      -- -- -- -- -- -- -- --  -- -- -- -- -- -- -- --
0350: 20 01 42 03 02 10 55 80  03 03 10 56 80 4A 04 60   .B...U....V.J.`
0360: 0F 01 F0 FF FF 7F 1C 57  80 4A 05 60 0F 01 F0 FF  .......W.J.`....
0370: FF 7F 4A 06 60 0F 01 F0  FF FF 7F 6F 76 04 60 0F  ..J.`......ov.`.
0380: 01 27 03 04 60 0F 01 05  2B 04 60 0F 01 58 80 23  .'..`...+.`..X.#
0390: 27 04 04 60 0F 01 0A 6F  76 06 60 0F 01 4A 06 60  '..`...ov.`..J.`
03A0: 0F 01 04 60 0F 01 6F 76  06 60 0F 01 27 03 06 60  ...`..ov.`..'..`
03B0: 0F 01 03 4A 04 60 0F 01  06 60 0F 01 2B 06 60 0F  ...J.`...`..+.`.
03C0: 01 59 80 23 29 04 06 60  0F 01 06 29 05 04 60 0F  .Y.#)..`...)..`.
03D0: 01 0B 27 03 05 60 0F 01  03 4A 04 60 0F 01 05 60  ..'..`...J.`...`
03E0: 0F 01 2B 05 60 0F 01 5A  80 23 27 04 05 60 0F 01  ..+.`..Z.#'..`..
03F0: 08 6F 76 04 60 0F 01 4A  04 60 0F 01 F0 FF FF 7F  .ov.`..J.`......
0400: 6F 76 04 60 0F 01 27 03  04 60 0F 01 06 2B 04 60  ov.`..'..`...+.`
0410: 0F 01 5B 80 23 4A 05 60  0F 01 04 60 0F 01 6F 76  ..[.#J.`...`..ov
0420: 05 60 0F 01 27 03 05 60  0F 01 04 2B 05 60 0F 01  .`..'..`...+.`..
0430: 5C 80 23 27 04 05 60 0F  01 05 29 04 04 60 0F 01  \.#'..`...)..`..
0440: 07 27 03 04 60 0F 01 05  2B 04 60 0F 01 5D 80 23  .'..`...+.`..].#
0450: 27 04 04 60 0F 01 0A 27  03 06 60 0F 01 04 29 05  '..`...'..`...).
0460: 04 60 0F 01 0B 2B 06 60  0F 01 5E 80 23 27 04 06  .`...+.`..^.#'..
0470: 60 0F 01 05 4A 04 60 0F  01 06 60 0F 01 2B 04 60  `...J.`...`..+.`
0480: 0F 01 5F 80 23 27 05 06  60 0F 01 03 2B 06 60 0F  .._.#'..`...+.`.
0490: 01 60 80 23 27 06 06 60  0F 01 06 4A 04 60 0F 01  .`.#'..`...J.`..
04A0: F0 FF FF 7F 6F 76 04 60  0F 01 27 03 04 60 0F 01  ....ov.`..'..`..
04B0: 06 2B 04 60 0F 01 61 80  23 27 04 04 60 0F 01 07  .+.`..a.#'..`...
04C0: 3A 05 60 0F 01 00 00 07  00 00 25 80 4B 05 60 0F  :.`.......%.K.`.
04D0: 01 00 00 2B 05 60 0F 01  62 80 23 21 00           ...+.`..b.#!.   
```

#### Opcodes

```
  0: 0x0350 [0x20] SET_CLI_EVENT_UC_FLAG: Lock player control
  1: 0x0352 [0x42] SET_CLI_EVENT_CANCEL_DATA()
  2: 0x0353 [0x03] Work_Zone[2] = 776*
  3: 0x0358 [0x03] Work_Zone[3] = 113*
  4: 0x035D [0x4A] Karl (ID: 17784836/0x010F6004) looks at LocalPlayer
  5: 0x0366 [0x1C] WAIT(30* ticks)
  6: 0x0369 [0x4A] Buntz (ID: 17784837/0x010F6005) looks at LocalPlayer
  7: 0x0372 [0x4A] Jaha Amariyo (ID: 17784838/0x010F6006) looks at LocalPlayer
  8: 0x037B [0x6F] WAIT_FRAME_DELAY: Yield until WaitTime reaches zero
  9: 0x037C [0x76] CHECK_ENTITY_RENDER_FLAGS: Wait until Karl (ID: 17784836/0x010F6004) Render.Flags0 and Render.Flags3 conditions are met
 10: 0x0381 [0x27] REQ_SET(priority=0x03, entity_id=Karl (ID: 17784836/0x010F6004), tag_num=0x05)
 11: 0x0388 [0x2B] Karl (ID: 17784836/0x010F6004) [7050*]:
    → "Did you guys hear? This grown-up said [he/she] wanted $6! Hahaha!"
 12: 0x038F [0x23] WAIT_FOR_DIALOG_INTERACTION
 13: 0x0390 [0x27] REQ_SET(priority=0x04, entity_id=Karl (ID: 17784836/0x010F6004), tag_num=0x0A)
 14: 0x0397 [0x6F] WAIT_FRAME_DELAY: Yield until WaitTime reaches zero
 15: 0x0398 [0x76] CHECK_ENTITY_RENDER_FLAGS: Wait until Jaha Amariyo (ID: 17784838/0x010F6006) Render.Flags0 and Render.Flags3 conditions are met
 16: 0x039D [0x4A] Jaha Amariyo (ID: 17784838/0x010F6006) looks at Karl (ID: 17784836/0x010F6004)
 17: 0x03A6 [0x6F] WAIT_FRAME_DELAY: Yield until WaitTime reaches zero
 18: 0x03A7 [0x76] CHECK_ENTITY_RENDER_FLAGS: Wait until Jaha Amariyo (ID: 17784838/0x010F6006) Render.Flags0 and Render.Flags3 conditions are met
 19: 0x03AC [0x27] REQ_SET(priority=0x03, entity_id=Jaha Amariyo (ID: 17784838/0x010F6006), tag_num=0x03)
 20: 0x03B3 [0x4A] Karl (ID: 17784836/0x010F6004) looks at Jaha Amariyo (ID: 17784838/0x010F6006)
 21: 0x03BC [0x2B] Jaha Amariyo (ID: 17784838/0x010F6006) [7051*]:
    → "Who cares? Even grown-ups want $6."
 22: 0x03C3 [0x23] WAIT_FOR_DIALOG_INTERACTION
 23: 0x03C4 [0x29] REQ_SET_WAIT(priority=0x04, entity_id=Jaha Amariyo (ID: 17784838/0x010F6006), tag_num=0x06)
 24: 0x03CB [0x29] REQ_SET_WAIT(priority=0x05, entity_id=Karl (ID: 17784836/0x010F6004), tag_num=0x0B)
 25: 0x03D2 [0x27] REQ_SET(priority=0x03, entity_id=Buntz (ID: 17784837/0x010F6005), tag_num=0x03)
 26: 0x03D9 [0x4A] Karl (ID: 17784836/0x010F6004) looks at Buntz (ID: 17784837/0x010F6005)
 27: 0x03E2 [0x2B] Buntz (ID: 17784837/0x010F6005) [7052*]:
    → "I took a number and stood in line, but they ran out, right before my eyes."
 28: 0x03E9 [0x23] WAIT_FOR_DIALOG_INTERACTION
 29: 0x03EA [0x27] REQ_SET(priority=0x04, entity_id=Buntz (ID: 17784837/0x010F6005), tag_num=0x08)
 30: 0x03F1 [0x6F] WAIT_FRAME_DELAY: Yield until WaitTime reaches zero
 31: 0x03F2 [0x76] CHECK_ENTITY_RENDER_FLAGS: Wait until Karl (ID: 17784836/0x010F6004) Render.Flags0 and Render.Flags3 conditions are met
 32: 0x03F7 [0x4A] Karl (ID: 17784836/0x010F6004) looks at LocalPlayer
 33: 0x0400 [0x6F] WAIT_FRAME_DELAY: Yield until WaitTime reaches zero
 34: 0x0401 [0x76] CHECK_ENTITY_RENDER_FLAGS: Wait until Karl (ID: 17784836/0x010F6004) Render.Flags0 and Render.Flags3 conditions are met
 35: 0x0406 [0x27] REQ_SET(priority=0x03, entity_id=Karl (ID: 17784836/0x010F6004), tag_num=0x06)
 36: 0x040D [0x2B] Karl (ID: 17784836/0x010F6004) [7053*]:
    → "Hmm... Yeah, that kind of thing's known to happen. Well, you don't leave me much choice. I have an extra one, so I'll let you have it."
 37: 0x0414 [0x23] WAIT_FOR_DIALOG_INTERACTION
 38: 0x0415 [0x4A] Buntz (ID: 17784837/0x010F6005) looks at Karl (ID: 17784836/0x010F6004)
 39: 0x041E [0x6F] WAIT_FRAME_DELAY: Yield until WaitTime reaches zero
 40: 0x041F [0x76] CHECK_ENTITY_RENDER_FLAGS: Wait until Buntz (ID: 17784837/0x010F6005) Render.Flags0 and Render.Flags3 conditions are met
 41: 0x0424 [0x27] REQ_SET(priority=0x03, entity_id=Buntz (ID: 17784837/0x010F6005), tag_num=0x04)
 42: 0x042B [0x2B] Buntz (ID: 17784837/0x010F6005) [7054*]:
    → "Wait... You had two this whole time? Aww, you could've at least offered me one!"
 43: 0x0432 [0x23] WAIT_FOR_DIALOG_INTERACTION
 44: 0x0433 [0x27] REQ_SET(priority=0x04, entity_id=Buntz (ID: 17784837/0x010F6005), tag_num=0x05)
 45: 0x043A [0x29] REQ_SET_WAIT(priority=0x04, entity_id=Karl (ID: 17784836/0x010F6004), tag_num=0x07)
 46: 0x0441 [0x27] REQ_SET(priority=0x03, entity_id=Karl (ID: 17784836/0x010F6004), tag_num=0x05)
 47: 0x0448 [0x2B] Karl (ID: 17784836/0x010F6004) [7055*]:
    → "But I won't give it away for nothing. Let's see... I need something from Jeuno to take home, so get me $0 and it's yours."
 48: 0x044F [0x23] WAIT_FOR_DIALOG_INTERACTION
 49: 0x0450 [0x27] REQ_SET(priority=0x04, entity_id=Karl (ID: 17784836/0x010F6004), tag_num=0x0A)
 50: 0x0457 [0x27] REQ_SET(priority=0x03, entity_id=Jaha Amariyo (ID: 17784838/0x010F6006), tag_num=0x04)
 51: 0x045E [0x29] REQ_SET_WAIT(priority=0x05, entity_id=Karl (ID: 17784836/0x010F6004), tag_num=0x0B)
 52: 0x0465 [0x2B] Jaha Amariyo (ID: 17784838/0x010F6006) [7056*]:
    → "Well, it's not like I have a choice! You are just going to give it to Melina, aren't you? Scoundrel!"
 53: 0x046C [0x23] WAIT_FOR_DIALOG_INTERACTION
 54: 0x046D [0x27] REQ_SET(priority=0x04, entity_id=Jaha Amariyo (ID: 17784838/0x010F6006), tag_num=0x05)
 55: 0x0474 [0x4A] Karl (ID: 17784836/0x010F6004) looks at Jaha Amariyo (ID: 17784838/0x010F6006)
 56: 0x047D [0x2B] Karl (ID: 17784836/0x010F6004) [7057*]:
    → "Wha... How'd you guess?"
 57: 0x0484 [0x23] WAIT_FOR_DIALOG_INTERACTION
 58: 0x0485 [0x27] REQ_SET(priority=0x05, entity_id=Jaha Amariyo (ID: 17784838/0x010F6006), tag_num=0x03)
 59: 0x048C [0x2B] Jaha Amariyo (ID: 17784838/0x010F6006) [7058*]:
    → "You can't hide anything from a woman!"
 60: 0x0493 [0x23] WAIT_FOR_DIALOG_INTERACTION
 61: 0x0494 [0x27] REQ_SET(priority=0x06, entity_id=Jaha Amariyo (ID: 17784838/0x010F6006), tag_num=0x06)
 62: 0x049B [0x4A] Karl (ID: 17784836/0x010F6004) looks at LocalPlayer
 63: 0x04A4 [0x6F] WAIT_FRAME_DELAY: Yield until WaitTime reaches zero
 64: 0x04A5 [0x76] CHECK_ENTITY_RENDER_FLAGS: Wait until Karl (ID: 17784836/0x010F6004) Render.Flags0 and Render.Flags3 conditions are met
 65: 0x04AA [0x27] REQ_SET(priority=0x03, entity_id=Karl (ID: 17784836/0x010F6004), tag_num=0x06)
 66: 0x04B1 [0x2B] Karl (ID: 17784836/0x010F6004) [7059*]:
    → "Well, at any rate... I'll trade you my $3 for $0. Better get moving before I change my mind!"
 67: 0x04B8 [0x23] WAIT_FOR_DIALOG_INTERACTION
 68: 0x04B9 [0x27] REQ_SET(priority=0x04, entity_id=Karl (ID: 17784836/0x010F6004), tag_num=0x07)
 69: 0x04C0 [0x3A] CONVERT_YAW_TO_BYTE(entity=Buntz (ID: 17784837/0x010F6005), result_destination=ExtData[1]->WorkLocal[0])
 70: 0x04C7 [0x07] ExtData[1]->WorkLocal[0] += 2048*
 71: 0x04CC [0x4B] UPDATE_ENTITY_YAW(entity=Buntz (ID: 17784837/0x010F6005), yaw=ExtData[1]->WorkLocal[0])
 72: 0x04D3 [0x2B] Buntz (ID: 17784837/0x010F6005) [7060*]:
    → "I wanted it, too. If I only had that, I wouldn't have had to..."
 73: 0x04DA [0x23] WAIT_FOR_DIALOG_INTERACTION
 74: 0x04DB [0x21] END_EVENT
 75: 0x04DC [0x00] END_REQSTACK()
```

### Event 65535.17

#### Metadata

| Field        | Value    |
|--------------|----------|
| Entrypoint   | 0x04DD   |
| Data Size    | 10 bytes |
| Instructions | 2        |

```
      00 01 02 03 04 05 06 07  08 09 0A 0B 0C 0D 0E 0F
      -- -- -- -- -- -- -- --  -- -- -- -- -- -- -- --
04D0:                                         37 63 80               7c.
04E0: 64 80 3C 80 65 80 00                              d.<.e..         
```

#### Opcodes

```
  0: 0x04DD [0x37] UPDATE_EVENT_POSITION_AND_DIR: x=-52.714*, z=-4.448*, y=7.999*, direction=93.3°*
  1: 0x04E6 [0x00] END_REQSTACK()
```

### Event 65535.18

#### Metadata

| Field        | Value    |
|--------------|----------|
| Entrypoint   | 0x04E7   |
| Data Size    | 14 bytes |
| Instructions | 4        |

```
      00 01 02 03 04 05 06 07  08 09 0A 0B 0C 0D 0E 0F
      -- -- -- -- -- -- -- --  -- -- -- -- -- -- -- --
04E0:                      1C  66 80 1E 48 60 0F 01 7B         .f..H`..{
04F0: F0 FF FF 7F 00                                    .....           
```

#### Opcodes

```
  0: 0x04E7 [0x1C] WAIT(60* ticks)
  1: 0x04EA [0x1E] EventEntity looks at Borghertz (ID: 17784904/0x010F6048) and starts talking
  2: 0x04EF [0x7B] LocalPlayer stops talking
  3: 0x04F4 [0x00] END_REQSTACK()
```

### Event 309

#### Metadata

| Field        | Value      |
|--------------|------------|
| Entrypoint   | 0x04F5     |
| Data Size    | 3869 bytes |
| Instructions | 513        |

```
      00 01 02 03 04 05 06 07  08 09 0A 0B 0C 0D 0E 0F
      -- -- -- -- -- -- -- --  -- -- -- -- -- -- -- --
04F0:                03 01 00  05 10 42 45 05 80 F8 FF       .....BE....
0500: FF 7F F8 FF FF 7F 66 64  6F 31 02 80 55 05 80 F8  ......fdo1..U...
0510: FF FF 7F F8 FF FF 7F 66  64 6F 31 46 01 92 01 7E  .......fdo1F...~
0520: 60 0F 01 92 01 80 60 0F  01 92 01 7D 60 0F 01 92  `.....`....}`...
0530: 01 7F 60 0F 01 92 01 43  60 0F 01 38 67 80 2F 00  ..`....C`..8g./.
0540: 7C 60 0F 01 29 05 7C 60  0F 01 01 4E 00 7C 60 0F  |`..).|`...N.|`.
0550: 01 29 0A 7C 60 0F 01 03  2F 00 7E 60 0F 01 4E 00  .).|`.../.~`..N.
0560: 7E 60 0F 01 2F 00 80 60  0F 01 2F 00 7D 60 0F 01  ~`../..`../.}`..
0570: 4E 00 7D 60 0F 01 2F 00  7F 60 0F 01 37 68 80 69  N.}`../..`..7h.i
0580: 80 02 80 6A 80 80 F8 FF  FF 7F 4A F0 FF FF 7F 43  ...j......J....C
0590: 60 0F 01 4A 7C 60 0F 01  43 60 0F 01 4A 43 60 0F  `..J|`..C`..JC`.
05A0: 01 F0 FF FF 7F 4A 7E 60  0F 01 7D 60 0F 01 4A 7D  .....J~`..}`..J}
05B0: 60 0F 01 7E 60 0F 01 45  6B 80 F0 FF FF 7F F0 FF  `..~`..Ek.......
05C0: FF 7F 73 30 33 34 02 80  1C 66 80 45 05 80 F8 FF  ..s034...f.E....
05D0: FF 7F F8 FF FF 7F 66 64  69 32 02 80 1C 66 80 2B  ......fdi2...f.+
05E0: 43 60 0F 01 6C 80 23 4A  43 60 0F 01 7E 60 0F 01  C`..l.#JC`..~`..
05F0: 1C 1E 80 52 6B 80 F0 FF  FF 7F F0 FF FF 7F 73 30  ...Rk.........s0
0600: 33 34 45 6B 80 F0 FF FF  7F F0 FF FF 7F 73 30 33  34Ek.........s03
0610: 35 02 80 2B 7E 60 0F 01  6D 80 23 5B 02 80 7D 60  5..+~`..m.#[..}`
0620: 0F 01 7D 60 0F 01 74 68  6B 31 2B 7D 60 0F 01 6E  ..}`..thk1+}`..n
0630: 80 23 5B 02 80 7D 60 0F  01 7D 60 0F 01 74 68 6B  .#[..}`..}`..thk
0640: 32 52 6B 80 F0 FF FF 7F  F0 FF FF 7F 73 30 33 35  2Rk.........s035
0650: 45 6B 80 F0 FF FF 7F F0  FF FF 7F 73 30 33 36 02  Ek.........s036.
0660: 80 5B 1F 80 7E 60 0F 01  7E 60 0F 01 74 6C 6B 30  .[..~`..~`..tlk0
0670: 2B 7E 60 0F 01 6F 80 23  5B 1F 80 7E 60 0F 01 7E  +~`..o.#[..~`..~
0680: 60 0F 01 74 6C 6B 31 2B  7E 60 0F 01 70 80 23 52  `..tlk1+~`..p.#R
0690: 6B 80 F0 FF FF 7F F0 FF  FF 7F 73 30 33 36 45 6B  k.........s036Ek
06A0: 80 F0 FF FF 7F F0 FF FF  7F 73 30 33 37 02 80 2B  .........s037..+
06B0: 7E 60 0F 01 71 80 23 5B  02 80 7D 60 0F 01 7D 60  ~`..q.#[..}`..}`
06C0: 0F 01 74 6C 6B 30 2B 7D  60 0F 01 72 80 23 5B 02  ..tlk0+}`..r.#[.
06D0: 80 7D 60 0F 01 7D 60 0F  01 74 6C 6B 31 5D 02 80  .}`..}`..tlk1]..
06E0: 73 80 45 05 80 F8 FF FF  7F F8 FF FF 7F 66 64 6F  s.E..........fdo
06F0: 31 02 80 55 05 80 F8 FF  FF 7F F8 FF FF 7F 66 64  1..U..........fd
0700: 6F 31 52 6B 80 F0 FF FF  7F F0 FF FF 7F 73 30 33  o1Rk.........s03
0710: 37 4E 00 80 60 0F 01 29  05 7E 60 0F 01 02 92 01  7N..`..).~`.....
0720: 80 60 0F 01 77 74 80 75  80 4A 80 60 0F 01 7E 60  .`..wt.u.J.`..~`
0730: 0F 01 4A 7E 60 0F 01 80  60 0F 01 45 6B 80 F0 FF  ..J~`...`..Ek...
0740: FF 7F F0 FF FF 7F 73 30  33 38 02 80 5C 00 76 80  ......s038..\.v.
0750: 5C 01 76 80 1C 66 80 45  05 80 F8 FF FF 7F F8 FF  \.v..f.E........
0760: FF 7F 66 64 69 32 02 80  1C 66 80 2B 7D 60 0F 01  ..fdi2...f.+}`..
0770: 77 80 23 2B 7E 60 0F 01  78 80 23 52 6B 80 F0 FF  w.#+~`..x.#Rk...
0780: FF 7F F0 FF FF 7F 73 30  33 38 45 6B 80 F0 FF FF  ......s038Ek....
0790: 7F F0 FF FF 7F 73 30 33  39 02 80 7C 00 7E 60 0F  .....s039..|.~`.
07A0: 01 66 0A 80 80 60 0F 01  80 60 0F 01 74 6C 62 30  .f...`...`..tlb0
07B0: 2B 7E 60 0F 01 79 80 23  66 0A 80 80 60 0F 01 80  +~`..y.#f...`...
07C0: 60 0F 01 74 6C 62 31 1C  66 80 27 0F 80 60 0F 01  `..tlb1.f.'..`..
07D0: 02 52 6B 80 F0 FF FF 7F  F0 FF FF 7F 73 30 33 39  .Rk.........s039
07E0: 45 6B 80 F0 FF FF 7F F0  FF FF 7F 73 30 34 30 02  Ek.........s040.
07F0: 80 1C 66 80 27 14 7E 60  0F 01 03 2B 7E 60 0F 01  ..f.'.~`...+~`..
0800: 7A 80 23 7C 01 7E 60 0F  01 1C 73 80 45 05 80 F8  z.#|.~`...s.E...
0810: FF FF 7F F8 FF FF 7F 66  64 6F 31 02 80 55 05 80  .......fdo1..U..
0820: F8 FF FF 7F F8 FF FF 7F  66 64 6F 31 52 6B 80 F0  ........fdo1Rk..
0830: FF FF 7F F0 FF FF 7F 73  30 34 30 78 37 7B 80 7C  .......s040x7{.|
0840: 80 02 80 7D 80 29 14 7C  60 0F 01 04 2A 14 7E 60  ...}.).|`...*.~`
0850: 0F 01 29 0F 7E 60 0F 01  04 4E 01 80 60 0F 01 4A  ..).~`...N..`..J
0860: 7E 60 0F 01 7D 60 0F 01  45 6B 80 F0 FF FF 7F F0  ~`..}`..Ek......
0870: FF FF 7F 73 30 34 31 02  80 1C 66 80 45 05 80 F8  ...s041...f.E...
0880: FF FF 7F F8 FF FF 7F 66  64 69 32 02 80 1C 66 80  .......fdi2...f.
0890: 2B 7E 60 0F 01 7E 80 23  5B 02 80 7D 60 0F 01 7D  +~`..~.#[..}`..}
08A0: 60 0F 01 74 6C 6B 30 2B  7D 60 0F 01 7F 80 23 5B  `..tlk0+}`....#[
08B0: 02 80 7D 60 0F 01 7D 60  0F 01 74 6C 6B 31 52 6B  ..}`..}`..tlk1Rk
08C0: 80 F0 FF FF 7F F0 FF FF  7F 73 30 34 31 45 6B 80  .........s041Ek.
08D0: F0 FF FF 7F F0 FF FF 7F  73 30 34 32 02 80 27 0F  ........s042..'.
08E0: 7C 60 0F 01 05 27 05 F0  FF FF 7F 1F 1A B1 29 02  |`...'........).
08F0: 0A 00 75 80 80 02 09 2B  7C 60 0F 01 80 80 23 01  ..u....+|`....#.
0900: 9A 09 02 0A 00 81 80 80  15 09 2B 7C 60 0F 01 82  ..........+|`...
0910: 80 23 01 9A 09 02 0A 00  83 80 80 28 09 2B 7C 60  .#.........(.+|`
0920: 0F 01 84 80 23 01 9A 09  02 0A 00 85 80 80 3B 09  ....#.........;.
0930: 2B 7C 60 0F 01 86 80 23  01 9A 09 02 0A 00 0A 80  +|`....#........
0940: 80 4E 09 2B 7C 60 0F 01  87 80 23 01 9A 09 02 0A  .N.+|`....#.....
0950: 00 88 80 80 61 09 2B 7C  60 0F 01 89 80 23 01 9A  ....a.+|`....#..
0960: 09 02 0A 00 8A 80 80 74  09 2B 7C 60 0F 01 8B 80  .......t.+|`....
0970: 23 01 9A 09 02 0A 00 8C  80 80 87 09 2B 7C 60 0F  #...........+|`.
0980: 01 8D 80 23 01 9A 09 02  0A 00 8E 80 80 9A 09 2B  ...#...........+
0990: 7C 60 0F 01 8F 80 23 01  9A 09 79 00 7D 60 0F 01  |`....#...y.}`..
09A0: 7C 60 0F 01 4A 7E 60 0F  01 7C 60 0F 01 29 0A 7C  |`..J~`..|`..).|
09B0: 60 0F 01 06 1A D0 28 02  0D 00 02 80 80 CA 09 2B  `.....(........+
09C0: 7E 60 0F 01 90 80 23 01  4F 0A 02 0D 00 75 80 80  ~`....#.O....u..
09D0: DD 09 2B 7E 60 0F 01 91  80 23 01 4F 0A 02 0D 00  ..+~`....#.O....
09E0: 81 80 80 F0 09 2B 7E 60  0F 01 92 80 23 01 4F 0A  .....+~`....#.O.
09F0: 02 0D 00 83 80 80 03 0A  2B 7E 60 0F 01 93 80 23  ........+~`....#
0A00: 01 4F 0A 02 0D 00 85 80  80 16 0A 2B 7E 60 0F 01  .O.........+~`..
0A10: 94 80 23 01 4F 0A 02 0D  00 0A 80 80 29 0A 2B 7E  ..#.O.......).+~
0A20: 60 0F 01 95 80 23 01 4F  0A 02 0D 00 88 80 80 3C  `....#.O.......<
0A30: 0A 2B 7E 60 0F 01 96 80  23 01 4F 0A 02 0D 00 8A  .+~`....#.O.....
0A40: 80 80 4F 0A 2B 7E 60 0F  01 97 80 23 01 4F 0A 52  ..O.+~`....#.O.R
0A50: 6B 80 F0 FF FF 7F F0 FF  FF 7F 73 30 34 32 1A D0  k.........s042..
0A60: 28 02 0D 00 02 80 80 7D  0A 45 6B 80 F0 FF FF 7F  (......}.Ek.....
0A70: F0 FF FF 7F 73 30 34 33  02 80 01 41 0B 02 0D 00  ....s043...A....
0A80: 75 80 80 99 0A 45 6B 80  F0 FF FF 7F F0 FF FF 7F  u....Ek.........
0A90: 73 30 34 33 02 80 01 41  0B 02 0D 00 81 80 80 B5  s043...A........
0AA0: 0A 45 6B 80 F0 FF FF 7F  F0 FF FF 7F 73 30 34 34  .Ek.........s044
0AB0: 02 80 01 41 0B 02 0D 00  83 80 80 D1 0A 45 6B 80  ...A.........Ek.
0AC0: F0 FF FF 7F F0 FF FF 7F  73 30 34 34 02 80 01 41  ........s044...A
0AD0: 0B 02 0D 00 85 80 80 ED  0A 45 6B 80 F0 FF FF 7F  .........Ek.....
0AE0: F0 FF FF 7F 73 30 34 35  02 80 01 41 0B 02 0D 00  ....s045...A....
0AF0: 0A 80 80 09 0B 45 6B 80  F0 FF FF 7F F0 FF FF 7F  .....Ek.........
0B00: 73 30 34 35 02 80 01 41  0B 02 0D 00 88 80 80 25  s045...A.......%
0B10: 0B 45 6B 80 F0 FF FF 7F  F0 FF FF 7F 73 30 34 33  .Ek.........s043
0B20: 02 80 01 41 0B 02 0D 00  8A 80 80 41 0B 45 6B 80  ...A.......A.Ek.
0B30: F0 FF FF 7F F0 FF FF 7F  73 30 34 34 02 80 01 41  ........s044...A
0B40: 0B 1A B1 29 02 0A 00 75  80 80 57 0B 2B 7C 60 0F  ...)...u..W.+|`.
0B50: 01 98 80 23 01 EF 0B 02  0A 00 81 80 80 6A 0B 2B  ...#.........j.+
0B60: 7C 60 0F 01 99 80 23 01  EF 0B 02 0A 00 83 80 80  |`....#.........
0B70: 7D 0B 2B 7C 60 0F 01 9A  80 23 01 EF 0B 02 0A 00  }.+|`....#......
0B80: 85 80 80 90 0B 2B 7C 60  0F 01 9B 80 23 01 EF 0B  .....+|`....#...
0B90: 02 0A 00 0A 80 80 A3 0B  2B 7C 60 0F 01 9C 80 23  ........+|`....#
0BA0: 01 EF 0B 02 0A 00 88 80  80 B6 0B 2B 7C 60 0F 01  ...........+|`..
0BB0: 9D 80 23 01 EF 0B 02 0A  00 8A 80 80 C9 0B 2B 7C  ..#...........+|
0BC0: 60 0F 01 9E 80 23 01 EF  0B 02 0A 00 8C 80 80 DC  `....#..........
0BD0: 0B 2B 7C 60 0F 01 9F 80  23 01 EF 0B 02 0A 00 8E  .+|`....#.......
0BE0: 80 80 EF 0B 2B 7C 60 0F  01 A0 80 23 01 EF 0B 45  ....+|`....#...E
0BF0: 05 80 F8 FF FF 7F F8 FF  FF 7F 66 64 6F 32 02 80  ..........fdo2..
0C00: 55 05 80 F8 FF FF 7F F8  FF FF 7F 66 64 6F 32 52  U..........fdo2R
0C10: 6B 80 F0 FF FF 7F F0 FF  FF 7F 73 30 34 33 52 6B  k.........s043Rk
0C20: 80 F0 FF FF 7F F0 FF FF  7F 73 30 34 34 52 6B 80  .........s044Rk.
0C30: F0 FF FF 7F F0 FF FF 7F  73 30 34 35 4E 00 7F 60  ........s045N..`
0C40: 0F 01 4A 7F 60 0F 01 7E  60 0F 01 1C 66 80 45 6B  ..J.`..~`...f.Ek
0C50: 80 F0 FF FF 7F F0 FF FF  7F 73 30 35 37 02 80 1C  .........s057...
0C60: 66 80 45 05 80 F8 FF FF  7F F8 FF FF 7F 66 64 69  f.E..........fdi
0C70: 32 02 80 5B 1F 80 7E 60  0F 01 7E 60 0F 01 74 6C  2..[..~`..~`..tl
0C80: 6B 30 2B 7E 60 0F 01 A1  80 23 5B 1F 80 7E 60 0F  k0+~`....#[..~`.
0C90: 01 7E 60 0F 01 74 6C 6B  31 2B 7E 60 0F 01 A2 80  .~`..tlk1+~`....
0CA0: 23 5B 1F 80 7E 60 0F 01  7E 60 0F 01 74 68 6B 31  #[..~`..~`..thk1
0CB0: 2B 7E 60 0F 01 A3 80 23  5B 1F 80 7E 60 0F 01 7E  +~`....#[..~`..~
0CC0: 60 0F 01 74 68 6B 32 52  6B 80 F0 FF FF 7F F0 FF  `..thk2Rk.......
0CD0: FF 7F 73 30 35 37 45 6B  80 F0 FF FF 7F F0 FF FF  ..s057Ek........
0CE0: 7F 73 30 34 36 02 80 2B  7E 60 0F 01 A4 80 23 2B  .s046..+~`....#+
0CF0: 7E 60 0F 01 A5 80 23 2B  7F 60 0F 01 A6 80 23 4A  ~`....#+.`....#J
0D00: 7E 60 0F 01 7F 60 0F 01  27 05 7F 60 0F 01 02 1C  ~`...`..'..`....
0D10: 66 80 52 6B 80 F0 FF FF  7F F0 FF FF 7F 73 30 34  f.Rk.........s04
0D20: 36 45 6B 80 F0 FF FF 7F  F0 FF FF 7F 73 30 34 37  6Ek.........s047
0D30: 02 80 2A 05 7F 60 0F 01  4A 7F 60 0F 01 7E 60 0F  ..*..`..J.`..~`.
0D40: 01 2B 7F 60 0F 01 A7 80  23 52 6B 80 F0 FF FF 7F  .+.`....#Rk.....
0D50: F0 FF FF 7F 73 30 34 37  45 6B 80 F0 FF FF 7F F0  ....s047Ek......
0D60: FF FF 7F 73 30 34 38 02  80 5B 1F 80 7E 60 0F 01  ...s048..[..~`..
0D70: 7E 60 0F 01 74 6C 6B 30  2B 7E 60 0F 01 A8 80 23  ~`..tlk0+~`....#
0D80: 2B 7F 60 0F 01 A9 80 23  52 6B 80 F0 FF FF 7F F0  +.`....#Rk......
0D90: FF FF 7F 73 30 34 38 45  6B 80 F0 FF FF 7F F0 FF  ...s048Ek.......
0DA0: FF 7F 73 30 34 39 02 80  27 05 7D 60 0F 01 02 2B  ..s049..'.}`...+
0DB0: 7E 60 0F 01 AA 80 23 5B  1F 80 7E 60 0F 01 7E 60  ~`....#[..~`..~`
0DC0: 0F 01 74 6C 6B 31 2A 05  7D 60 0F 01 79 00 7F 60  ..tlk1*.}`..y..`
0DD0: 0F 01 7D 60 0F 01 4A 7E  60 0F 01 7D 60 0F 01 1C  ..}`..J~`..}`...
0DE0: 66 80 52 6B 80 F0 FF FF  7F F0 FF FF 7F 73 30 34  f.Rk.........s04
0DF0: 39 45 6B 80 F0 FF FF 7F  F0 FF FF 7F 73 30 35 30  9Ek.........s050
0E00: 02 80 5B 02 80 7D 60 0F  01 7D 60 0F 01 74 6C 6B  ..[..}`..}`..tlk
0E10: 30 2B 7E 60 0F 01 AB 80  23 5B 02 80 7D 60 0F 01  0+~`....#[..}`..
0E20: 7D 60 0F 01 74 6C 6B 31  1C 57 80 4A 7E 60 0F 01  }`..tlk1.W.J~`..
0E30: 7F 60 0F 01 1C 57 80 79  00 7F 60 0F 01 7E 60 0F  .`...W.y..`..~`.
0E40: 01 79 00 7D 60 0F 01 7F  60 0F 01 2B 7E 60 0F 01  .y.}`...`..+~`..
0E50: AC 80 23 2B 7E 60 0F 01  AD 80 23 52 6B 80 F0 FF  ..#+~`....#Rk...
0E60: FF 7F F0 FF FF 7F 73 30  35 30 45 6B 80 F0 FF FF  ......s050Ek....
0E70: 7F F0 FF FF 7F 73 30 35  31 02 80 4A 7D 60 0F 01  .....s051..J}`..
0E80: 7F 60 0F 01 5B AE 80 7E  60 0F 01 7E 60 0F 01 69  .`..[..~`..~`..i
0E90: 6B 72 30 2B 7E 60 0F 01  AF 80 23 5B AE 80 7E 60  kr0+~`....#[..~`
0EA0: 0F 01 7E 60 0F 01 69 6B  72 31 66 B0 80 7F 60 0F  ..~`..ikr1f...`.
0EB0: 01 7F 60 0F 01 74 6C 63  30 2B 7F 60 0F 01 B1 80  ..`..tlc0+.`....
0EC0: 23 52 6B 80 F0 FF FF 7F  F0 FF FF 7F 73 30 35 31  #Rk.........s051
0ED0: 45 6B 80 F0 FF FF 7F F0  FF FF 7F 73 30 35 32 02  Ek.........s052.
0EE0: 80 2B 7F 60 0F 01 B2 80  23 52 6B 80 F0 FF FF 7F  .+.`....#Rk.....
0EF0: F0 FF FF 7F 73 30 35 32  45 6B 80 F0 FF FF 7F F0  ....s052Ek......
0F00: FF FF 7F 73 30 35 33 02  80 2B 7E 60 0F 01 B3 80  ...s053..+~`....
0F10: 23 52 6B 80 F0 FF FF 7F  F0 FF FF 7F 73 30 35 33  #Rk.........s053
0F20: 45 6B 80 F0 FF FF 7F F0  FF FF 7F 73 30 35 34 02  Ek.........s054.
0F30: 80 66 8C 80 7F 60 0F 01  7F 60 0F 01 64 69 73 30  .f...`...`..dis0
0F40: 2B 7F 60 0F 01 35 80 23  5B AE 80 7E 60 0F 01 7E  +.`..5.#[..~`..~
0F50: 60 0F 01 69 6B 72 30 2B  7E 60 0F 01 3C 80 23 5B  `..ikr0+~`..<.#[
0F60: AE 80 7E 60 0F 01 7E 60  0F 01 69 6B 72 31 52 6B  ..~`..~`..ikr1Rk
0F70: 80 F0 FF FF 7F F0 FF FF  7F 73 30 35 34 45 6B 80  .........s054Ek.
0F80: F0 FF FF 7F F0 FF FF 7F  73 30 35 35 02 80 27 0A  ........s055..'.
0F90: 7F 60 0F 01 03 2B 7F 60  0F 01 2E 80 23 2A 0A 7F  .`...+.`....#*..
0FA0: 60 0F 01 4A 7D 60 0F 01  7F 60 0F 01 4A 7E 60 0F  `..J}`...`..J~`.
0FB0: 01 7F 60 0F 01 66 B0 80  7F 60 0F 01 7F 60 0F 01  ..`..f...`...`..
0FC0: 74 6C 63 30 2B 7F 60 0F  01 32 80 23 52 6B 80 F0  tlc0+.`..2.#Rk..
0FD0: FF FF 7F F0 FF FF 7F 73  30 35 35 45 6B 80 F0 FF  .......s055Ek...
0FE0: FF 7F F0 FF FF 7F 73 30  35 36 02 80 5B 1F 80 7E  ......s056..[..~
0FF0: 60 0F 01 7E 60 0F 01 74  68 6B 31 2B 7E 60 0F 01  `..~`..thk1+~`..
1000: B4 80 23 66 B0 80 7F 60  0F 01 7F 60 0F 01 74 6C  ..#f...`...`..tl
1010: 63 30 2B 7F 60 0F 01 B5  80 23 5B 1F 80 7E 60 0F  c0+.`....#[..~`.
1020: 01 7E 60 0F 01 74 68 6B  32 1C 57 80 52 6B 80 F0  .~`..thk2.W.Rk..
1030: FF FF 7F F0 FF FF 7F 73  30 35 36 45 6B 80 F0 FF  .......s056Ek...
1040: FF 7F F0 FF FF 7F 73 30  35 38 02 80 27 05 7E 60  ......s058..'.~`
1050: 0F 01 05 2B 7E 60 0F 01  B6 80 23 52 6B 80 F0 FF  ...+~`....#Rk...
1060: FF 7F F0 FF FF 7F 73 30  35 38 45 6B 80 F0 FF FF  ......s058Ek....
1070: 7F F0 FF FF 7F 73 30 35  39 02 80 66 8C 80 7F 60  .....s059..f...`
1080: 0F 01 7F 60 0F 01 75 72  65 30 2B 7F 60 0F 01 B7  ...`..ure0+.`...
1090: 80 23 2B 7F 60 0F 01 B8  80 23 2B 7F 60 0F 01 B9  .#+.`....#+.`...
10A0: 80 23 2B 7E 60 0F 01 BA  80 23 52 6B 80 F0 FF FF  .#+~`....#Rk....
10B0: 7F F0 FF FF 7F 73 30 35  39 45 6B 80 F0 FF FF 7F  .....s059Ek.....
10C0: F0 FF FF 7F 73 30 36 30  02 80 27 19 7F 60 0F 01  ....s060..'..`..
10D0: 04 2B 7F 60 0F 01 BB 80  23 2A 19 7F 60 0F 01 66  .+.`....#*..`..f
10E0: B0 80 7F 60 0F 01 7F 60  0F 01 74 6C 63 30 2B 7F  ...`...`..tlc0+.
10F0: 60 0F 01 BC 80 23 4A 7F  60 0F 01 F0 FF FF 7F 52  `....#J.`......R
1100: 6B 80 F0 FF FF 7F F0 FF  FF 7F 73 30 36 30 45 6B  k.........s060Ek
1110: 80 F0 FF FF 7F F0 FF FF  7F 73 30 36 31 02 80 79  .........s061..y
1120: 00 7C 60 0F 01 7F 60 0F  01 4A 7F 60 0F 01 F0 FF  .|`...`..J.`....
1130: FF 7F 1C 57 80 79 00 F0  FF FF 7F 7F 60 0F 01 2B  ...W.y......`..+
1140: 7F 60 0F 01 BD 80 23 66  BE 80 7F 60 0F 01 7F 60  .`....#f...`...`
1150: 0F 01 74 6C 6B 30 2B 7F  60 0F 01 BF 80 23 2B 7F  ..tlk0+.`....#+.
1160: 60 0F 01 C0 80 23 52 6B  80 F0 FF FF 7F F0 FF FF  `....#Rk........
1170: 7F 73 30 36 31 45 6B 80  F0 FF FF 7F F0 FF FF 7F  .s061Ek.........
1180: 73 30 36 32 02 80 66 BE  80 7F 60 0F 01 7F 60 0F  s062..f...`...`.
1190: 01 74 6C 6B 32 2B 7F 60  0F 01 C1 80 23 4A 7C 60  .tlk2+.`....#J|`
11A0: 0F 01 F0 FF FF 7F 1A B1  29 02 0A 00 75 80 80 BC  ........)...u...
11B0: 11 2B 7C 60 0F 01 C2 80  23 01 54 12 02 0A 00 81  .+|`....#.T.....
11C0: 80 80 CF 11 2B 7C 60 0F  01 C3 80 23 01 54 12 02  ....+|`....#.T..
11D0: 0A 00 83 80 80 E2 11 2B  7C 60 0F 01 C4 80 23 01  .......+|`....#.
11E0: 54 12 02 0A 00 85 80 80  F5 11 2B 7C 60 0F 01 C5  T.........+|`...
11F0: 80 23 01 54 12 02 0A 00  0A 80 80 08 12 2B 7C 60  .#.T.........+|`
1200: 0F 01 C6 80 23 01 54 12  02 0A 00 88 80 80 1B 12  ....#.T.........
1210: 2B 7C 60 0F 01 C7 80 23  01 54 12 02 0A 00 8A 80  +|`....#.T......
1220: 80 2E 12 2B 7C 60 0F 01  C8 80 23 01 54 12 02 0A  ...+|`....#.T...
1230: 00 8C 80 80 41 12 2B 7C  60 0F 01 C9 80 23 01 54  ....A.+|`....#.T
1240: 12 02 0A 00 8E 80 80 54  12 2B 7C 60 0F 01 CA 80  .......T.+|`....
1250: 23 01 54 12 5D 02 80 73  80 45 05 80 F8 FF FF 7F  #.T.]..s.E......
1260: F8 FF FF 7F 66 64 6F 32  02 80 55 05 80 F8 FF FF  ....fdo2..U.....
1270: 7F F8 FF FF 7F 66 64 6F  32 52 6B 80 F0 FF FF 7F  .....fdo2Rk.....
1280: F0 FF FF 7F 73 30 36 32  4E 01 7C 60 0F 01 2F 01  ....s062N.|`../.
1290: 7C 60 0F 01 4E 01 7E 60  0F 01 2F 01 7E 60 0F 01  |`..N.~`../.~`..
12A0: 4E 01 7D 60 0F 01 2F 01  7D 60 0F 01 37 CB 80 CC  N.}`../.}`..7...
12B0: 80 02 80 CD 80 4E 00 81  60 0F 01 29 0F 7F 60 0F  .....N..`..)..`.
12C0: 01 05 45 6B 80 F0 FF FF  7F F0 FF FF 7F 73 30 36  ..Ek.........s06
12D0: 33 02 80 1C 66 80 45 05  80 F8 FF FF 7F F8 FF FF  3...f.E.........
12E0: 7F 66 64 69 32 02 80 1C  66 80 66 CE 80 7F 60 0F  .fdi2...f.f...`.
12F0: 01 7F 60 0F 01 64 69 73  30 2B 7F 60 0F 01 CF 80  ..`..dis0+.`....
1300: 23 27 14 7F 60 0F 01 06  52 6B 80 F0 FF FF 7F F0  #'..`...Rk......
1310: FF FF 7F 73 30 36 33 45  6B 80 F0 FF FF 7F F0 FF  ...s063Ek.......
1320: FF 7F 73 30 36 34 02 80  2B 7F 60 0F 01 D0 80 23  ..s064..+.`....#
1330: 2A 14 7F 60 0F 01 2B 7F  60 0F 01 D1 80 23 52 6B  *..`..+.`....#Rk
1340: 80 F0 FF FF 7F F0 FF FF  7F 73 30 36 34 45 6B 80  .........s064Ek.
1350: F0 FF FF 7F F0 FF FF 7F  73 30 36 35 02 80 79 00  ........s065..y.
1360: 7F 60 0F 01 81 60 0F 01  2B 7F 60 0F 01 D2 80 23  .`...`..+.`....#
1370: 79 00 7F 60 0F 01 F0 FF  FF 7F 2B 7F 60 0F 01 D3  y..`......+.`...
1380: 80 23 27 1E 7F 60 0F 01  07 1C D4 80 45 05 80 F8  .#'..`......E...
1390: FF FF 7F F8 FF FF 7F 66  64 6F 32 02 80 55 05 80  .......fdo2..U..
13A0: F8 FF FF 7F F8 FF FF 7F  66 64 6F 32 52 6B 80 F0  ........fdo2Rk..
13B0: FF FF 7F F0 FF FF 7F 73  30 36 35 4E 01 7F 60 0F  .......s065N..`.
13C0: 01 2F 01 7F 60 0F 01 2F  01 80 60 0F 01 4E 01 81  ./..`../..`..N..
13D0: 60 0F 01 1C 66 80 02 01  00 02 80 00 E1 13 48 D5  `...f.........H.
13E0: 80 45 D6 80 F0 FF FF 7F  F0 FF FF 7F 71 73 74 63  .E..........qstc
13F0: 02 80 5C 00 D7 80 5C 01  D7 80 1C 73 80 46 00 45  ..\...\....s.F.E
1400: 05 80 F8 FF FF 7F F8 FF  FF 7F 66 64 69 31 02 80  ..........fdi1..
1410: 21 00                                             !.              
```

#### Opcodes

```
  0: 0x04F5 [0x03] ExtData[1]->WorkLocal[1] = Work_Zone[5]
  1: 0x04FA [0x42] SET_CLI_EVENT_CANCEL_DATA()
  2: 0x04FB [0x45] LOAD_SCHEDULED_TASK: Load scheduler "fdo1" with entities [EventEntity, EventEntity], work=[200*, 0*]
  3: 0x050C [0x55] WAIT_LOAD_SCHEDULER: Wait for scheduler "fdo1" with entities [EventEntity, EventEntity], work=200*
  4: 0x051B [0x46] CAMERA_CONTROL: Disable user control
  5: 0x051D [0x92] Palometa (ID: 17784958/0x010F607E)->Render.Flags3 ^= 0x01
  6: 0x0523 [0x92] ??? (ID: 17784960/0x010F6080)->Render.Flags3 ^= 0x01
  7: 0x0529 [0x92] Laurana (ID: 17784957/0x010F607D)->Render.Flags3 ^= 0x01
  8: 0x052F [0x92] Luto Mewrilah (ID: 17784959/0x010F607F)->Render.Flags3 ^= 0x01
  9: 0x0535 [0x92] Khumo Daramasteh (ID: 17784899/0x010F6043)->Render.Flags3 ^= 0x01
 10: 0x053B [0x38] SET_CLIENT_EVENT_MODE(mode=19*)
 11: 0x053E [0x2F] Unnamed NPC (ID: 17784956/0x010F607C)->Render.Flags0 &= ~0x80000 // Bit 19
 12: 0x0544 [0x29] REQ_SET_WAIT(priority=0x05, entity_id=Unnamed NPC (ID: 17784956/0x010F607C), tag_num=0x01)
 13: 0x054B [0x4E] SET_ENTITY_HIDE_FLAG: Show Unnamed NPC (ID: 17784956/0x010F607C)
 14: 0x0551 [0x29] REQ_SET_WAIT(priority=0x0A, entity_id=Unnamed NPC (ID: 17784956/0x010F607C), tag_num=0x03)
 15: 0x0558 [0x2F] Palometa (ID: 17784958/0x010F607E)->Render.Flags0 &= ~0x80000 // Bit 19
 16: 0x055E [0x4E] SET_ENTITY_HIDE_FLAG: Show Palometa (ID: 17784958/0x010F607E)
 17: 0x0564 [0x2F] ??? (ID: 17784960/0x010F6080)->Render.Flags0 &= ~0x80000 // Bit 19
 18: 0x056A [0x2F] Laurana (ID: 17784957/0x010F607D)->Render.Flags0 &= ~0x80000 // Bit 19
 19: 0x0570 [0x4E] SET_ENTITY_HIDE_FLAG: Show Laurana (ID: 17784957/0x010F607D)
 20: 0x0576 [0x2F] Luto Mewrilah (ID: 17784959/0x010F607F)->Render.Flags0 &= ~0x80000 // Bit 19
 21: 0x057C [0x37] UPDATE_EVENT_POSITION_AND_DIR: x=25.233*, z=3.994*, y=0.000*, direction=239.5°*
 22: 0x0585 [0x80] LOAD_WAIT(entity=EventEntity)
 23: 0x058A [0x4A] LocalPlayer looks at Khumo Daramasteh (ID: 17784899/0x010F6043)
 24: 0x0593 [0x4A] Unnamed NPC (ID: 17784956/0x010F607C) looks at Khumo Daramasteh (ID: 17784899/0x010F6043)
 25: 0x059C [0x4A] Khumo Daramasteh (ID: 17784899/0x010F6043) looks at LocalPlayer
 26: 0x05A5 [0x4A] Palometa (ID: 17784958/0x010F607E) looks at Laurana (ID: 17784957/0x010F607D)
 27: 0x05AE [0x4A] Laurana (ID: 17784957/0x010F607D) looks at Palometa (ID: 17784958/0x010F607E)
 28: 0x05B7 [0x45] LOAD_SCHEDULED_TASK: Load scheduler "s034" with entities [LocalPlayer, LocalPlayer], work=[196*, 0*]
 29: 0x05C8 [0x1C] WAIT(60* ticks)
 30: 0x05CB [0x45] LOAD_SCHEDULED_TASK: Load scheduler "fdi2" with entities [EventEntity, EventEntity], work=[200*, 0*]
 31: 0x05DC [0x1C] WAIT(60* ticks)
 32: 0x05DF [0x2B] Khumo Daramasteh (ID: 17784899/0x010F6043) [7936*]:
    → "A little girl? Could that child over there be the one you're looking for?"
 33: 0x05E6 [0x23] WAIT_FOR_DIALOG_INTERACTION
 34: 0x05E7 [0x4A] Khumo Daramasteh (ID: 17784899/0x010F6043) looks at Palometa (ID: 17784958/0x010F607E)
 35: 0x05F0 [0x1C] WAIT(90* ticks)
 36: 0x05F3 [0x52] END_LOAD_SCHEDULER: End scheduler "s034" with entities [LocalPlayer, LocalPlayer], work=196*
 37: 0x0602 [0x45] LOAD_SCHEDULED_TASK: Load scheduler "s035" with entities [LocalPlayer, LocalPlayer], work=[196*, 0*]
 38: 0x0613 [0x2B] Palometa (ID: 17784958/0x010F607E) [7937*]:
    → "Mom, do you think the mirror is somewhere else after all?"
 39: 0x061A [0x23] WAIT_FOR_DIALOG_INTERACTION
 40: 0x061B [0x5B] LOAD_EXT_SCHEDULER: Load scheduler "thk1" with entities [Laurana (ID: 17784957/0x010F607D), Laurana (ID: 17784957/0x010F607D)], work=0*
 41: 0x062A [0x2B] Laurana (ID: 17784957/0x010F607D) [7938*]:
    → "Who can say, dear? The looking glass carried by the adventurer that saved you was similar, but not the one we're looking for."
 42: 0x0631 [0x23] WAIT_FOR_DIALOG_INTERACTION
 43: 0x0632 [0x5B] LOAD_EXT_SCHEDULER: Load scheduler "thk2" with entities [Laurana (ID: 17784957/0x010F607D), Laurana (ID: 17784957/0x010F607D)], work=0*
 44: 0x0641 [0x52] END_LOAD_SCHEDULER: End scheduler "s035" with entities [LocalPlayer, LocalPlayer], work=196*
 45: 0x0650 [0x45] LOAD_SCHEDULED_TASK: Load scheduler "s036" with entities [LocalPlayer, LocalPlayer], work=[196*, 0*]
 46: 0x0661 [0x5B] LOAD_EXT_SCHEDULER: Load scheduler "tlk0" with entities [Palometa (ID: 17784958/0x010F607E), Palometa (ID: 17784958/0x010F607E)], work=80*
 47: 0x0670 [0x2B] Palometa (ID: 17784958/0x010F607E) [7939*]:
    → "It's just that when the adventurer talked about using a mirror to find me, I thought we had found it..."
 48: 0x0677 [0x23] WAIT_FOR_DIALOG_INTERACTION
 49: 0x0678 [0x5B] LOAD_EXT_SCHEDULER: Load scheduler "tlk1" with entities [Palometa (ID: 17784958/0x010F607E), Palometa (ID: 17784958/0x010F607E)], work=80*
 50: 0x0687 [0x2B] Palometa (ID: 17784958/0x010F607E) [7940*]:
    → "Oh well, I guess we have to keep looking."
 51: 0x068E [0x23] WAIT_FOR_DIALOG_INTERACTION
 52: 0x068F [0x52] END_LOAD_SCHEDULER: End scheduler "s036" with entities [LocalPlayer, LocalPlayer], work=196*
 53: 0x069E [0x45] LOAD_SCHEDULED_TASK: Load scheduler "s037" with entities [LocalPlayer, LocalPlayer], work=[196*, 0*]
 54: 0x06AF [0x2B] Palometa (ID: 17784958/0x010F607E) [7941*]:
    → "I was so happy that someone came and saved me, though!"
 55: 0x06B6 [0x23] WAIT_FOR_DIALOG_INTERACTION
 56: 0x06B7 [0x5B] LOAD_EXT_SCHEDULER: Load scheduler "tlk0" with entities [Laurana (ID: 17784957/0x010F607D), Laurana (ID: 17784957/0x010F607D)], work=0*
 57: 0x06C6 [0x2B] Laurana (ID: 17784957/0x010F607D) [7942*]:
    → "Me too, sweetheart. I'm so glad you're safe."
 58: 0x06CD [0x23] WAIT_FOR_DIALOG_INTERACTION
 59: 0x06CE [0x5B] LOAD_EXT_SCHEDULER: Load scheduler "tlk1" with entities [Laurana (ID: 17784957/0x010F607D), Laurana (ID: 17784957/0x010F607D)], work=0*
 60: 0x06DD [0x5D] SET_MUSIC_VOLUME(volume=0*, fade_time=120*)
 61: 0x06E2 [0x45] LOAD_SCHEDULED_TASK: Load scheduler "fdo1" with entities [EventEntity, EventEntity], work=[200*, 0*]
 62: 0x06F3 [0x55] WAIT_LOAD_SCHEDULER: Wait for scheduler "fdo1" with entities [EventEntity, EventEntity], work=200*
 63: 0x0702 [0x52] END_LOAD_SCHEDULER: End scheduler "s037" with entities [LocalPlayer, LocalPlayer], work=196*
 64: 0x0711 [0x4E] SET_ENTITY_HIDE_FLAG: Show ??? (ID: 17784960/0x010F6080)
 65: 0x0717 [0x29] REQ_SET_WAIT(priority=0x05, entity_id=Palometa (ID: 17784958/0x010F607E), tag_num=0x02)
 66: 0x071E [0x92] ??? (ID: 17784960/0x010F6080)->Render.Flags3 ^= 0x01
 67: 0x0724 [0x77] SET_EVENT_TIME_WEATHER(hour=12*, weather=1*)
 68: 0x0729 [0x4A] ??? (ID: 17784960/0x010F6080) looks at Palometa (ID: 17784958/0x010F607E)
 69: 0x0732 [0x4A] Palometa (ID: 17784958/0x010F607E) looks at ??? (ID: 17784960/0x010F6080)
 70: 0x073B [0x45] LOAD_SCHEDULED_TASK: Load scheduler "s038" with entities [LocalPlayer, LocalPlayer], work=[196*, 0*]
 71: 0x074C [0x5C] MUSIC_CONTROL: Set Idle (Day) music to song 159*
 72: 0x0750 [0x5C] MUSIC_CONTROL: Set Idle (Night) music to song 159*
 73: 0x0754 [0x1C] WAIT(60* ticks)
 74: 0x0757 [0x45] LOAD_SCHEDULED_TASK: Load scheduler "fdi2" with entities [EventEntity, EventEntity], work=[200*, 0*]
 75: 0x0768 [0x1C] WAIT(60* ticks)
 76: 0x076B [0x2B] Laurana (ID: 17784957/0x010F607D) [7943*]:
    → "It just froze my heart when you told me about that strange man."
 77: 0x0772 [0x23] WAIT_FOR_DIALOG_INTERACTION
 78: 0x0773 [0x2B] Palometa (ID: 17784958/0x010F607E) [7944*]:
    → "I'm sorry..."
 79: 0x077A [0x23] WAIT_FOR_DIALOG_INTERACTION
 80: 0x077B [0x52] END_LOAD_SCHEDULER: End scheduler "s038" with entities [LocalPlayer, LocalPlayer], work=196*
 81: 0x078A [0x45] LOAD_SCHEDULED_TASK: Load scheduler "s039" with entities [LocalPlayer, LocalPlayer], work=[196*, 0*]
 82: 0x079B [0x7C] Palometa (ID: 17784958/0x010F607E)->Render.Flags2 |= 0x00
 83: 0x07A1 [0x66] LOAD_EXT_SCHEDULER_MAIN: Load scheduler "tlb0" with entities [??? (ID: 17784960/0x010F6080), ??? (ID: 17784960/0x010F6080)], work=5*
 84: 0x07B0 [0x2B] Palometa (ID: 17784958/0x010F607E) [7945*]:
    → "He told me that he saw someone carrying a black mirror into those horrible tunnels."
 85: 0x07B7 [0x23] WAIT_FOR_DIALOG_INTERACTION
 86: 0x07B8 [0x66] LOAD_EXT_SCHEDULER_MAIN: Load scheduler "tlb1" with entities [??? (ID: 17784960/0x010F6080), ??? (ID: 17784960/0x010F6080)], work=5*
 87: 0x07C7 [0x1C] WAIT(60* ticks)
 88: 0x07CA [0x27] REQ_SET(priority=0x0F, entity_id=??? (ID: 17784960/0x010F6080), tag_num=0x02)
 89: 0x07D1 [0x52] END_LOAD_SCHEDULER: End scheduler "s039" with entities [LocalPlayer, LocalPlayer], work=196*
 90: 0x07E0 [0x45] LOAD_SCHEDULED_TASK: Load scheduler "s040" with entities [LocalPlayer, LocalPlayer], work=[196*, 0*]
 91: 0x07F1 [0x1C] WAIT(60* ticks)
 92: 0x07F4 [0x27] REQ_SET(priority=0x14, entity_id=Palometa (ID: 17784958/0x010F607E), tag_num=0x03)
 93: 0x07FB [0x2B] Palometa (ID: 17784958/0x010F607E) [7946*]:
    → "He said he would help me look, and then disappeared once we were inside..."
 94: 0x0802 [0x23] WAIT_FOR_DIALOG_INTERACTION
 95: 0x0803 [0x7C] Palometa (ID: 17784958/0x010F607E)->Render.Flags2 |= 0x01
 96: 0x0809 [0x1C] WAIT(120* ticks)
 97: 0x080C [0x45] LOAD_SCHEDULED_TASK: Load scheduler "fdo1" with entities [EventEntity, EventEntity], work=[200*, 0*]
 98: 0x081D [0x55] WAIT_LOAD_SCHEDULER: Wait for scheduler "fdo1" with entities [EventEntity, EventEntity], work=200*
 99: 0x082C [0x52] END_LOAD_SCHEDULER: End scheduler "s040" with entities [LocalPlayer, LocalPlayer], work=196*
100: 0x083B [0x78] ENABLE_GAME_TIMER_RESET_WEATHER()
101: 0x083C [0x37] UPDATE_EVENT_POSITION_AND_DIR: x=-15.302*, z=3.664*, y=0.000*, direction=263.2°*
102: 0x0845 [0x29] REQ_SET_WAIT(priority=0x14, entity_id=Unnamed NPC (ID: 17784956/0x010F607C), tag_num=0x04)
103: 0x084C [0x2A] GET_REQ_LEVEL(level=20, entity_id=Palometa (ID: 17784958/0x010F607E))
104: 0x0852 [0x29] REQ_SET_WAIT(priority=0x0F, entity_id=Palometa (ID: 17784958/0x010F607E), tag_num=0x04)
105: 0x0859 [0x4E] SET_ENTITY_HIDE_FLAG: Hide ??? (ID: 17784960/0x010F6080)
106: 0x085F [0x4A] Palometa (ID: 17784958/0x010F607E) looks at Laurana (ID: 17784957/0x010F607D)
107: 0x0868 [0x45] LOAD_SCHEDULED_TASK: Load scheduler "s041" with entities [LocalPlayer, LocalPlayer], work=[196*, 0*]
108: 0x0879 [0x1C] WAIT(60* ticks)
109: 0x087C [0x45] LOAD_SCHEDULED_TASK: Load scheduler "fdi2" with entities [EventEntity, EventEntity], work=[200*, 0*]
110: 0x088D [0x1C] WAIT(60* ticks)
111: 0x0890 [0x2B] Palometa (ID: 17784958/0x010F607E) [7947*]:
    → "I'll never go off alone with anyone, even if they say they know about the mirror!"
112: 0x0897 [0x23] WAIT_FOR_DIALOG_INTERACTION
113: 0x0898 [0x5B] LOAD_EXT_SCHEDULER: Load scheduler "tlk0" with entities [Laurana (ID: 17784957/0x010F607D), Laurana (ID: 17784957/0x010F607D)], work=0*
114: 0x08A7 [0x2B] Laurana (ID: 17784957/0x010F607D) [7948*]:
    → "I certainly hope not. You'll make your mother sick with worry."
115: 0x08AE [0x23] WAIT_FOR_DIALOG_INTERACTION
116: 0x08AF [0x5B] LOAD_EXT_SCHEDULER: Load scheduler "tlk1" with entities [Laurana (ID: 17784957/0x010F607D), Laurana (ID: 17784957/0x010F607D)], work=0*
117: 0x08BE [0x52] END_LOAD_SCHEDULER: End scheduler "s041" with entities [LocalPlayer, LocalPlayer], work=196*
118: 0x08CD [0x45] LOAD_SCHEDULED_TASK: Load scheduler "s042" with entities [LocalPlayer, LocalPlayer], work=[196*, 0*]
119: 0x08DE [0x27] REQ_SET(priority=0x0F, entity_id=Unnamed NPC (ID: 17784956/0x010F607C), tag_num=0x05)
120: 0x08E5 [0x27] REQ_SET(priority=0x05, entity_id=LocalPlayer, tag_num=0x1F)
121: 0x08EC [0x1A] CALL_SUBROUTINE(address=0x29B1)
122: 0x08EF [0x02] IF !(ExtData[1]->WorkLocal[10] == 1*) GOTO 0x0902
123: 0x08F7 [0x2B] Unnamed NPC (ID: 17784956/0x010F607C) [7949*]:
    → "Hi, Palometa. How've you been?"
124: 0x08FE [0x23] WAIT_FOR_DIALOG_INTERACTION
125: 0x08FF [0x01] GOTO 0x099A
126: 0x0902 [0x02] IF !(ExtData[1]->WorkLocal[10] == 2*) GOTO 0x0915
127: 0x090A [0x2B] Unnamed NPC (ID: 17784956/0x010F607C) [7950*]:
    → "Palometa! How've you been?"
128: 0x0911 [0x23] WAIT_FOR_DIALOG_INTERACTION
129: 0x0912 [0x01] GOTO 0x099A
130: 0x0915 [0x02] IF !(ExtData[1]->WorkLocal[10] == 3*) GOTO 0x0928
131: 0x091D [0x2B] Unnamed NPC (ID: 17784956/0x010F607C) [7951*]:
    → "Palometa. Good to see you again."
132: 0x0924 [0x23] WAIT_FOR_DIALOG_INTERACTION
133: 0x0925 [0x01] GOTO 0x099A
134: 0x0928 [0x02] IF !(ExtData[1]->WorkLocal[10] == 4*) GOTO 0x093B
135: 0x0930 [0x2B] Unnamed NPC (ID: 17784956/0x010F607C) [7952*]:
    → "Palometa. You've been well, I trust?"
136: 0x0937 [0x23] WAIT_FOR_DIALOG_INTERACTION
137: 0x0938 [0x01] GOTO 0x099A
138: 0x093B [0x02] IF !(ExtData[1]->WorkLocal[10] == 5*) GOTO 0x094E
139: 0x0943 [0x2B] Unnamed NPC (ID: 17784956/0x010F607C) [7955*]:
    → "Little Palometa! How have you been doing?"
140: 0x094A [0x23] WAIT_FOR_DIALOG_INTERACTION
141: 0x094B [0x01] GOTO 0x099A
142: 0x094E [0x02] IF !(ExtData[1]->WorkLocal[10] == 6*) GOTO 0x0961
143: 0x0956 [0x2B] Unnamed NPC (ID: 17784956/0x010F607C) [7956*]:
    → "Palometa! Good to see you!"
144: 0x095D [0x23] WAIT_FOR_DIALOG_INTERACTION
145: 0x095E [0x01] GOTO 0x099A
146: 0x0961 [0x02] IF !(ExtData[1]->WorkLocal[10] == 7*) GOTO 0x0974
147: 0x0969 [0x2B] Unnamed NPC (ID: 17784956/0x010F607C) [7957*]:
    → "Palometa. You're looking well."
148: 0x0970 [0x23] WAIT_FOR_DIALOG_INTERACTION
149: 0x0971 [0x01] GOTO 0x099A
150: 0x0974 [0x02] IF !(ExtData[1]->WorkLocal[10] == 8*) GOTO 0x0987
151: 0x097C [0x2B] Unnamed NPC (ID: 17784956/0x010F607C) [7958*]:
    → "Little Palometa! How have you been, sweetie?"
152: 0x0983 [0x23] WAIT_FOR_DIALOG_INTERACTION
153: 0x0984 [0x01] GOTO 0x099A
154: 0x0987 [0x02] IF !(ExtData[1]->WorkLocal[10] == 9*) GOTO 0x099A
155: 0x098F [0x2B] Unnamed NPC (ID: 17784956/0x010F607C) [7959*]:
    → "Palometa. You've been well, I trust?"
156: 0x0996 [0x23] WAIT_FOR_DIALOG_INTERACTION
157: 0x0997 [0x01] GOTO 0x099A

SUBROUTINE_099A:
158: 0x099A [0x79] Laurana (ID: 17784957/0x010F607D) looks at Unnamed NPC (ID: 17784956/0x010F607C) (Basic look)
159: 0x09A4 [0x4A] Palometa (ID: 17784958/0x010F607E) looks at Unnamed NPC (ID: 17784956/0x010F607C)
160: 0x09AD [0x29] REQ_SET_WAIT(priority=0x0A, entity_id=Unnamed NPC (ID: 17784956/0x010F607C), tag_num=0x06)
161: 0x09B4 [0x1A] CALL_SUBROUTINE(address=0x28D0)
162: 0x09B7 [0x02] IF !(ExtData[1]->WorkLocal[13] == 0*) GOTO 0x09CA
163: 0x09BF [0x2B] Palometa (ID: 17784958/0x010F607E) [7961*]:
    → "[Feliz/Ferdinand/Gunnar/Massimo/Oldrich/Siegward/Theobald/Zenji]!"
164: 0x09C6 [0x23] WAIT_FOR_DIALOG_INTERACTION
165: 0x09C7 [0x01] GOTO 0x0A4F
166: 0x09CA [0x02] IF !(ExtData[1]->WorkLocal[13] == 1*) GOTO 0x09DD
167: 0x09D2 [0x2B] Palometa (ID: 17784958/0x010F607E) [7962*]:
    → "[Amerita/Beatrice/Henrietta/Jesimae/Karyn/Nanako/Sharlene/Sieghilde]!"
168: 0x09D9 [0x23] WAIT_FOR_DIALOG_INTERACTION
169: 0x09DA [0x01] GOTO 0x0A4F
170: 0x09DD [0x02] IF !(ExtData[1]->WorkLocal[13] == 2*) GOTO 0x09F0
171: 0x09E5 [0x2B] Palometa (ID: 17784958/0x010F607E) [7963*]:
    → "[Chanandit/Deulmaeux/Demresinaux/Ephealgaux/Gauldeval/Grauffemart/Migaifongut/Romidiant]!"
172: 0x09EC [0x23] WAIT_FOR_DIALOG_INTERACTION
173: 0x09ED [0x01] GOTO 0x0A4F
174: 0x09F0 [0x02] IF !(ExtData[1]->WorkLocal[13] == 3*) GOTO 0x0A03
175: 0x09F8 [0x2B] Palometa (ID: 17784958/0x010F607E) [7964*]:
    → "[Armittie/Cadepure/Clearite/Epilleve/Liabelle/Nauthima/Radille/Vimechue]!"
176: 0x09FF [0x23] WAIT_FOR_DIALOG_INTERACTION
177: 0x0A00 [0x01] GOTO 0x0A4F
178: 0x0A03 [0x02] IF !(ExtData[1]->WorkLocal[13] == 4*) GOTO 0x0A16
179: 0x0A0B [0x2B] Palometa (ID: 17784958/0x010F607E) [7965*]:
    → "[Balu-Falu/Burg-Ladarg/Ehgo-Ryuhgo/Kolui-Pelui/Nokum-Akkum/Savul-Kivul/Vinja-Kanja/Yarga-Umiga]!"
180: 0x0A12 [0x23] WAIT_FOR_DIALOG_INTERACTION
181: 0x0A13 [0x01] GOTO 0x0A4F
182: 0x0A16 [0x02] IF !(ExtData[1]->WorkLocal[13] == 5*) GOTO 0x0A29
183: 0x0A1E [0x2B] Palometa (ID: 17784958/0x010F607E) [7966*]:
    → "[Cupapa/Jajuju/Kalokoko/Mahoyaya/Pakurara/Ripokeke/Yawawa/Yufafa]!"
184: 0x0A25 [0x23] WAIT_FOR_DIALOG_INTERACTION
185: 0x0A26 [0x01] GOTO 0x0A4F
186: 0x0A29 [0x02] IF !(ExtData[1]->WorkLocal[13] == 6*) GOTO 0x0A3C
187: 0x0A31 [0x2B] Palometa (ID: 17784958/0x010F607E) [7967*]:
    → "[Fhig Lahrv/Khuma Tagyawhan/Pimy Kettihl/Raka Maimhov/Sahyu Banjyao/Sufhi Uchnouma/Tsuim Nhomango/Yoli Kohlpaka]!"
188: 0x0A38 [0x23] WAIT_FOR_DIALOG_INTERACTION
189: 0x0A39 [0x01] GOTO 0x0A4F
190: 0x0A3C [0x02] IF !(ExtData[1]->WorkLocal[13] == 7*) GOTO 0x0A4F
191: 0x0A44 [0x2B] Palometa (ID: 17784958/0x010F607E) [7968*]:
    → "[Durib/Dzapiwa/Jugowa/Mugido/Voldai/Wagwei/Zayag/Zoldof]!"
192: 0x0A4B [0x23] WAIT_FOR_DIALOG_INTERACTION
193: 0x0A4C [0x01] GOTO 0x0A4F

SUBROUTINE_0A4F:
194: 0x0A4F [0x52] END_LOAD_SCHEDULER: End scheduler "s042" with entities [LocalPlayer, LocalPlayer], work=196*
195: 0x0A5E [0x1A] CALL_SUBROUTINE(address=0x28D0)
196: 0x0A61 [0x02] IF !(ExtData[1]->WorkLocal[13] == 0*) GOTO 0x0A7D
197: 0x0A69 [0x45] LOAD_SCHEDULED_TASK: Load scheduler "s043" with entities [LocalPlayer, LocalPlayer], work=[196*, 0*]
198: 0x0A7A [0x01] GOTO 0x0B41
199: 0x0A7D [0x02] IF !(ExtData[1]->WorkLocal[13] == 1*) GOTO 0x0A99
200: 0x0A85 [0x45] LOAD_SCHEDULED_TASK: Load scheduler "s043" with entities [LocalPlayer, LocalPlayer], work=[196*, 0*]
201: 0x0A96 [0x01] GOTO 0x0B41
202: 0x0A99 [0x02] IF !(ExtData[1]->WorkLocal[13] == 2*) GOTO 0x0AB5
203: 0x0AA1 [0x45] LOAD_SCHEDULED_TASK: Load scheduler "s044" with entities [LocalPlayer, LocalPlayer], work=[196*, 0*]
204: 0x0AB2 [0x01] GOTO 0x0B41
205: 0x0AB5 [0x02] IF !(ExtData[1]->WorkLocal[13] == 3*) GOTO 0x0AD1
206: 0x0ABD [0x45] LOAD_SCHEDULED_TASK: Load scheduler "s044" with entities [LocalPlayer, LocalPlayer], work=[196*, 0*]
207: 0x0ACE [0x01] GOTO 0x0B41
208: 0x0AD1 [0x02] IF !(ExtData[1]->WorkLocal[13] == 4*) GOTO 0x0AED
209: 0x0AD9 [0x45] LOAD_SCHEDULED_TASK: Load scheduler "s045" with entities [LocalPlayer, LocalPlayer], work=[196*, 0*]
210: 0x0AEA [0x01] GOTO 0x0B41
211: 0x0AED [0x02] IF !(ExtData[1]->WorkLocal[13] == 5*) GOTO 0x0B09
212: 0x0AF5 [0x45] LOAD_SCHEDULED_TASK: Load scheduler "s045" with entities [LocalPlayer, LocalPlayer], work=[196*, 0*]
213: 0x0B06 [0x01] GOTO 0x0B41
214: 0x0B09 [0x02] IF !(ExtData[1]->WorkLocal[13] == 6*) GOTO 0x0B25
215: 0x0B11 [0x45] LOAD_SCHEDULED_TASK: Load scheduler "s043" with entities [LocalPlayer, LocalPlayer], work=[196*, 0*]
216: 0x0B22 [0x01] GOTO 0x0B41
217: 0x0B25 [0x02] IF !(ExtData[1]->WorkLocal[13] == 7*) GOTO 0x0B41
218: 0x0B2D [0x45] LOAD_SCHEDULED_TASK: Load scheduler "s044" with entities [LocalPlayer, LocalPlayer], work=[196*, 0*]
219: 0x0B3E [0x01] GOTO 0x0B41

SUBROUTINE_0B41:
220: 0x0B41 [0x1A] CALL_SUBROUTINE(address=0x29B1)
221: 0x0B44 [0x02] IF !(ExtData[1]->WorkLocal[10] == 1*) GOTO 0x0B57
222: 0x0B4C [0x2B] Unnamed NPC (ID: 17784956/0x010F607C) [7969*]:
    → "I have something I want to ask you..."
223: 0x0B53 [0x23] WAIT_FOR_DIALOG_INTERACTION
224: 0x0B54 [0x01] GOTO 0x0BEF
225: 0x0B57 [0x02] IF !(ExtData[1]->WorkLocal[10] == 2*) GOTO 0x0B6A
226: 0x0B5F [0x2B] Unnamed NPC (ID: 17784956/0x010F607C) [7970*]:
    → "I have something I want to ask you..."
227: 0x0B66 [0x23] WAIT_FOR_DIALOG_INTERACTION
228: 0x0B67 [0x01] GOTO 0x0BEF
229: 0x0B6A [0x02] IF !(ExtData[1]->WorkLocal[10] == 3*) GOTO 0x0B7D
230: 0x0B72 [0x2B] Unnamed NPC (ID: 17784956/0x010F607C) [7971*]:
    → "I have something I want to ask you..."
231: 0x0B79 [0x23] WAIT_FOR_DIALOG_INTERACTION
232: 0x0B7A [0x01] GOTO 0x0BEF
233: 0x0B7D [0x02] IF !(ExtData[1]->WorkLocal[10] == 4*) GOTO 0x0B90
234: 0x0B85 [0x2B] Unnamed NPC (ID: 17784956/0x010F607C) [7972*]:
    → "I have something I want to ask you..."
235: 0x0B8C [0x23] WAIT_FOR_DIALOG_INTERACTION
236: 0x0B8D [0x01] GOTO 0x0BEF
237: 0x0B90 [0x02] IF !(ExtData[1]->WorkLocal[10] == 5*) GOTO 0x0BA3
238: 0x0B98 [0x2B] Unnamed NPC (ID: 17784956/0x010F607C) [7975*]:
    → "I have something I want to ask you..."
239: 0x0B9F [0x23] WAIT_FOR_DIALOG_INTERACTION
240: 0x0BA0 [0x01] GOTO 0x0BEF
241: 0x0BA3 [0x02] IF !(ExtData[1]->WorkLocal[10] == 6*) GOTO 0x0BB6
242: 0x0BAB [0x2B] Unnamed NPC (ID: 17784956/0x010F607C) [7976*]:
    → "I have something I want to ask you..."
243: 0x0BB2 [0x23] WAIT_FOR_DIALOG_INTERACTION
244: 0x0BB3 [0x01] GOTO 0x0BEF
245: 0x0BB6 [0x02] IF !(ExtData[1]->WorkLocal[10] == 7*) GOTO 0x0BC9
246: 0x0BBE [0x2B] Unnamed NPC (ID: 17784956/0x010F607C) [7977*]:
    → "I have something I want to ask you..."
247: 0x0BC5 [0x23] WAIT_FOR_DIALOG_INTERACTION
248: 0x0BC6 [0x01] GOTO 0x0BEF
249: 0x0BC9 [0x02] IF !(ExtData[1]->WorkLocal[10] == 8*) GOTO 0x0BDC
250: 0x0BD1 [0x2B] Unnamed NPC (ID: 17784956/0x010F607C) [7978*]:
    → "I have something I want to ask you..."
251: 0x0BD8 [0x23] WAIT_FOR_DIALOG_INTERACTION
252: 0x0BD9 [0x01] GOTO 0x0BEF
253: 0x0BDC [0x02] IF !(ExtData[1]->WorkLocal[10] == 9*) GOTO 0x0BEF
254: 0x0BE4 [0x2B] Unnamed NPC (ID: 17784956/0x010F607C) [7979*]:
    → "I have something I want to ask you..."
255: 0x0BEB [0x23] WAIT_FOR_DIALOG_INTERACTION
256: 0x0BEC [0x01] GOTO 0x0BEF

SUBROUTINE_0BEF:
257: 0x0BEF [0x45] LOAD_SCHEDULED_TASK: Load scheduler "fdo2" with entities [EventEntity, EventEntity], work=[200*, 0*]
258: 0x0C00 [0x55] WAIT_LOAD_SCHEDULER: Wait for scheduler "fdo2" with entities [EventEntity, EventEntity], work=200*
259: 0x0C0F [0x52] END_LOAD_SCHEDULER: End scheduler "s043" with entities [LocalPlayer, LocalPlayer], work=196*
260: 0x0C1E [0x52] END_LOAD_SCHEDULER: End scheduler "s044" with entities [LocalPlayer, LocalPlayer], work=196*
261: 0x0C2D [0x52] END_LOAD_SCHEDULER: End scheduler "s045" with entities [LocalPlayer, LocalPlayer], work=196*
262: 0x0C3C [0x4E] SET_ENTITY_HIDE_FLAG: Show Luto Mewrilah (ID: 17784959/0x010F607F)
263: 0x0C42 [0x4A] Luto Mewrilah (ID: 17784959/0x010F607F) looks at Palometa (ID: 17784958/0x010F607E)
264: 0x0C4B [0x1C] WAIT(60* ticks)
265: 0x0C4E [0x45] LOAD_SCHEDULED_TASK: Load scheduler "s057" with entities [LocalPlayer, LocalPlayer], work=[196*, 0*]
266: 0x0C5F [0x1C] WAIT(60* ticks)
267: 0x0C62 [0x45] LOAD_SCHEDULED_TASK: Load scheduler "fdi2" with entities [EventEntity, EventEntity], work=[200*, 0*]
268: 0x0C73 [0x5B] LOAD_EXT_SCHEDULER: Load scheduler "tlk0" with entities [Palometa (ID: 17784958/0x010F607E), Palometa (ID: 17784958/0x010F607E)], work=80*
269: 0x0C82 [0x2B] Palometa (ID: 17784958/0x010F607E) [7981*]:
    → "How come you know about that? How do you know about the guardians?"
270: 0x0C89 [0x23] WAIT_FOR_DIALOG_INTERACTION
271: 0x0C8A [0x5B] LOAD_EXT_SCHEDULER: Load scheduler "tlk1" with entities [Palometa (ID: 17784958/0x010F607E), Palometa (ID: 17784958/0x010F607E)], work=80*
272: 0x0C99 [0x2B] Palometa (ID: 17784958/0x010F607E) [7982*]:
    → "Ah! The Glass of All-Seeing!"
273: 0x0CA0 [0x23] WAIT_FOR_DIALOG_INTERACTION
