# 16875848

## Common Data

| Field            | Value                    |
|------------------|--------------------------|
| Zone             | Lufaise Meadows (ID: 24) |
| Block Size       | 5376 bytes               |
| Total Events     | 4                        |
| References Count | 94                       |

## List of Events

| Event ID              | Entrypoint   |   Size |   Instructions |
|-----------------------|--------------|--------|----------------|
| [65535](#event-65535) | 0x0000       |      1 |              1 |
| [110](#event-110)     | 0x0001       |   1341 |            179 |
| [111](#event-111)     | 0x053E       |   1783 |            251 |
| [4](#event-4)         | 0x0C35       |   1841 |            266 |

## DAT References (imed_data)

|   Index | Hex Value   |   Dec Value |
|---------|-------------|-------------|
|       0 | 0x0000      |           0 |
|       1 | 0x003C      |          60 |
|       2 | 0x0013      |          19 |
|       3 | 0x0014      |          20 |
|       4 | 0x0002      |           2 |
|       5 | 0x0064      |         100 |
|       6 | 0x0076      |         118 |
|       7 | 0x00C8      |         200 |
|       8 | 0x0001      |           1 |
|       9 | 0x002F      |          47 |
|      10 | 0x0037      |          55 |
|      11 | 0x0003      |           3 |
|      12 | 0x0049      |          73 |
|      13 | 0x0004      |           4 |
|      14 | 0x0041      |          65 |
|      15 | 0x01F4      |         500 |
|      16 | 0x1E08      |        7688 |
|      17 | 0x00B4      |         180 |
|      18 | 0x1E09      |        7689 |
|      19 | 0xFFFF8733  |  4294936371 |
|      20 | 0xFFFB35E1  |  4294653409 |
|      21 | 0xFFFFF6B6  |  4294964918 |
|      22 | 0x09D1      |        2513 |
|      23 | 0x0040      |          64 |
|      24 | 0x001E      |          30 |
|      25 | 0x005A      |          90 |
|      26 | 0x1E0A      |        7690 |
|      27 | 0x008C      |         140 |
|      28 | 0x1E0B      |        7691 |
|      29 | 0x1E0C      |        7692 |
|      30 | 0x1E0D      |        7693 |
|      31 | 0x0078      |         120 |
|      32 | 0x1E0E      |        7694 |
|      33 | 0x012C      |         300 |
|      34 | 0x000A      |          10 |
|      35 | 0x1E0F      |        7695 |
|      36 | 0x1E10      |        7696 |
|      37 | 0x1E11      |        7697 |
|      38 | 0x1E12      |        7698 |
|      39 | 0x00E6      |         230 |
|      40 | 0x0065      |         101 |
|      41 | 0x00DB      |         219 |
|      42 | 0x0034      |          52 |
|      43 | 0x004E      |          78 |
|      44 | 0x0046      |          70 |
|      45 | 0x0244      |         580 |
|      46 | 0x0005      |           5 |
|      47 | 0x0006      |           6 |
|      48 | 0x0008      |           8 |
|      49 | 0x03E8      |        1000 |
|      50 | 0x00A3      |         163 |
|      51 | 0x1E14      |        7700 |
|      52 | 0x1E16      |        7702 |
|      53 | 0x1E15      |        7701 |
|      54 | 0x1E17      |        7703 |
|      55 | 0x1E18      |        7704 |
|      56 | 0x1E19      |        7705 |
|      57 | 0x1E1A      |        7706 |
|      58 | 0x1E1B      |        7707 |
|      59 | 0x1E1C      |        7708 |
|      60 | 0x1E1D      |        7709 |
|      61 | 0x1E1E      |        7710 |
|      62 | 0x0608      |        1544 |
|      63 | 0x1E1F      |        7711 |
|      64 | 0x1E20      |        7712 |
|      65 | 0x1E21      |        7713 |
|      66 | 0x00AF      |         175 |
|      67 | 0x1E4F      |        7759 |
|      68 | 0x1E50      |        7760 |
|      69 | 0x1E51      |        7761 |
|      70 | 0x1E52      |        7762 |
|      71 | 0x1E53      |        7763 |
|      72 | 0x1E54      |        7764 |
|      73 | 0x1E55      |        7765 |
|      74 | 0x1E56      |        7766 |
|      75 | 0x1E57      |        7767 |
|      76 | 0x1E58      |        7768 |
|      77 | 0x1E59      |        7769 |
|      78 | 0x1E5A      |        7770 |
|      79 | 0x1E5B      |        7771 |
|      80 | 0x1E5C      |        7772 |
|      81 | 0x1E5D      |        7773 |
|      82 | 0x1E5E      |        7774 |
|      83 | 0x1E5F      |        7775 |
|      84 | 0x1E60      |        7776 |
|      85 | 0x1E61      |        7777 |
|      86 | 0x1E62      |        7778 |
|      87 | 0x1E63      |        7779 |
|      88 | 0x1E64      |        7780 |
|      89 | 0x1E65      |        7781 |
|      90 | 0x1E66      |        7782 |
|      91 | 0x1E67      |        7783 |
|      92 | 0x1E68      |        7784 |
|      93 | 0x1E69      |        7785 |

## String References

- **7700**: Search their possessions? [Let's see now.../I don't know...]
- **7701**: You find $1!
- **7702**: (You're always falling victim to these three. It's about time you returned the favor!)
- **7772**: Were you searching for Sanctia? [That's why I'm here./Just passing through...]
- **7778**: Who sent you? [Chelvadurai./Zoriboh./That moogle right there.]
- **7780**: Sanctia looks at you disbelievingly.

## Events

### Event 65535

#### Metadata

| Field        | Value   |
|--------------|---------|
| Entrypoint   | 0x0000  |
| Data Size    | 1 bytes |
| Instructions | 1       |

```
      00 01 02 03 04 05 06 07  08 09 0A 0B 0C 0D 0E 0F
      -- -- -- -- -- -- -- --  -- -- -- -- -- -- -- --
0000: 00                                                .               
```

#### Opcodes

```
  0: 0x0000 [0x00] END_REQSTACK()
```

### Event 110

#### Metadata

| Field        | Value      |
|--------------|------------|
| Entrypoint   | 0x0001     |
| Data Size    | 1341 bytes |
| Instructions | 179        |

```
      00 01 02 03 04 05 06 07  08 09 0A 0B 0C 0D 0E 0F
      -- -- -- -- -- -- -- --  -- -- -- -- -- -- -- --
0000:    20 01 42 46 01 5D 00  80 01 80 1C 01 80 38 02    .BF.].......8.
0010: 80 29 0B 49 81 01 01 40  4E 01 F0 FF FF 7F 92 01  .).I...@N.......
0020: F0 FF FF 7F 4E 00 49 81  01 01 80 49 81 01 01 77  ....N.I....I...w
0030: 03 80 04 80 1C 05 80 5C  00 00 80 5C 01 00 80 29  .......\...\...)
0040: 08 F0 FF FF 7F 04 45 06  80 F8 FF FF 7F F8 FF FF  ......E.........
0050: 7F 73 30 30 34 00 80 45  07 80 F8 FF FF 7F F8 FF  .s004..E........
0060: FF 7F 66 64 69 31 00 80  1C 05 80 9C 01 00 02 01  ..fdi1..........
0070: 00 08 80 80 7C 00 7D 09  80 01 A6 00 02 01 00 04  ....|.}.........
0080: 80 80 8A 00 7D 0A 80 01  A6 00 02 01 00 0B 80 80  ....}...........
0090: 98 00 7D 0C 80 01 A6 00  02 01 00 0D 80 80 A6 00  ..}.............
00A0: 7D 0E 80 01 A6 00 1C 0F  80 52 06 80 F8 FF FF 7F  }........R......
00B0: F8 FF FF 7F 73 30 30 34  45 07 80 F0 FF FF 7F F0  ....s004E.......
00C0: FF FF 7F 6F 76 6C 31 00  80 45 06 80 F8 FF FF 7F  ...ovl1..E......
00D0: F8 FF FF 7F 73 31 33 35  00 80 1C 07 80 29 0B 49  ....s135.....).I
00E0: 81 01 01 41 29 08 49 81  01 01 3B 29 08 49 81 01  ...A).I...;).I..
00F0: 01 3C 2B 49 81 01 01 10  80 23 52 06 80 F8 FF FF  .<+I.....#R.....
0100: 7F F8 FF FF 7F 73 31 33  35 45 07 80 F0 FF FF 7F  .....s135E......
0110: F0 FF FF 7F 6F 76 6C 31  00 80 45 06 80 F8 FF FF  ....ovl1..E.....
0120: 7F F8 FF FF 7F 73 30 30  35 00 80 1C 11 80 2B 49  .....s005.....+I
0130: 81 01 01 12 80 23 37 13  80 14 80 15 80 16 80 4A  .....#7........J
0140: 49 81 01 01 48 81 01 01  45 06 80 F8 FF FF 7F F8  I...H...E.......
0150: FF FF 7F 73 65 31 31 00  80 9F 17 80 F8 FF FF 7F  ...se11.........
0160: F8 FF FF 7F 70 69 6B 61  00 80 1C 18 80 52 06 80  ....pika.....R..
0170: F8 FF FF 7F F8 FF FF 7F  73 30 30 35 45 07 80 F0  ........s005E...
0180: FF FF 7F F0 FF FF 7F 6F  76 6C 31 00 80 45 06 80  .......ovl1..E..
0190: F8 FF FF 7F F8 FF FF 7F  73 30 30 36 00 80 45 06  ........s006..E.
01A0: 80 F8 FF FF 7F F8 FF FF  7F 73 65 31 32 00 80 9F  .........se12...
01B0: 17 80 F8 FF FF 7F F8 FF  FF 7F 73 74 72 30 00 80  ..........str0..
01C0: 29 08 49 81 01 01 3D 1C  19 80 2B 49 81 01 01 1A  ).I...=...+I....
01D0: 80 23 1C 1B 80 45 07 80  F8 FF FF 7F F8 FF FF 7F  .#...E..........
01E0: 66 64 6F 31 00 80 1C 01  80 29 08 49 81 01 01 3E  fdo1.....).I...>
01F0: 29 0B F0 FF FF 7F 07 29  0B 4A 81 01 01 48 29 0B  )......).J...H).
0200: 4B 81 01 01 48 29 0B 4C  81 01 01 49 4E 00 4A 81  K...H).L...IN.J.
0210: 01 01 4E 00 4B 81 01 01  4E 00 4C 81 01 01 4E 00  ..N.K...N.L...N.
0220: F0 FF FF 7F 80 4A 81 01  01 80 4B 81 01 01 80 4C  .....J....K....L
0230: 81 01 01 80 F0 FF FF 7F  52 06 80 F8 FF FF 7F F8  ........R.......
0240: FF FF 7F 73 30 30 36 45  06 80 F8 FF FF 7F F8 FF  ...s006E........
0250: FF 7F 73 30 30 37 00 80  45 07 80 F8 FF FF 7F F8  ..s007..E.......
0260: FF FF 7F 66 64 69 31 00  80 9F 17 80 F8 FF FF 7F  ...fdi1.........
0270: F8 FF FF 7F 73 74 72 30  00 80 1C 03 80 45 06 80  ....str0.....E..
0280: F8 FF FF 7F F8 FF FF 7F  73 65 31 32 00 80 29 08  ........se12..).
0290: 4C 81 01 01 03 29 08 4B  81 01 01 0A 29 08 4C 81  L....).K....).L.
02A0: 01 01 04 2B 4C 81 01 01  1C 80 23 29 08 4B 81 01  ...+L.....#).K..
02B0: 01 0B 52 06 80 F8 FF FF  7F F8 FF FF 7F 73 30 30  ..R..........s00
02C0: 37 45 06 80 F8 FF FF 7F  F8 FF FF 7F 73 30 30 39  7E..........s009
02D0: 00 80 27 0B 4A 81 01 01  49 2B 4A 81 01 01 1D 80  ..'.J...I+J.....
02E0: 23 1C 18 80 7B 4B 81 01  01 27 0B 4B 81 01 01 49  #...{K...'.K...I
02F0: 29 08 4C 81 01 01 04 27  0D 4C 81 01 01 4A 2B 4B  ).L....'.L...J+K
0300: 81 01 01 1E 80 23 1C 19  80 45 07 80 F8 FF FF 7F  .....#...E......
0310: F8 FF FF 7F 66 64 6F 31  00 80 1C 1F 80 2A 0B 4A  ....fdo1.....*.J
0320: 81 01 01 2A 0D 4C 81 01  01 2A 0B 4B 81 01 01 29  ...*.L...*.K...)
0330: 0B 4A 81 01 01 4A 45 06  80 F8 FF FF 7F F8 FF FF  .J...JE.........
0340: 7F 73 65 30 31 00 80 29  08 4A 81 01 01 03 29 08  .se01..).J....).
0350: F0 FF FF 7F 08 2B 4A 81  01 01 20 80 23 52 06 80  .....+J... .#R..
0360: F8 FF FF 7F F8 FF FF 7F  73 30 30 39 45 06 80 F8  ........s009E...
0370: FF FF 7F F8 FF FF 7F 73  30 31 31 00 80 45 07 80  .......s011..E..
0380: F8 FF FF 7F F8 FF FF 7F  66 64 69 31 00 80 1C 21  ........fdi1...!
0390: 80 29 0B 4C 81 01 01 4B  29 0B 4B 81 01 01 4A 79  .).L...K).K...Jy
03A0: 00 4C 81 01 01 F0 FF FF  7F 79 00 4B 81 01 01 F0  .L.......y.K....
03B0: FF FF 7F 27 0B 4C 81 01  01 4C 27 0B 4B 81 01 01  ...'.L...L'.K...
03C0: 4B 1C 22 80 52 06 80 F8  FF FF 7F F8 FF FF 7F 73  K.".R..........s
03D0: 30 31 31 45 06 80 F8 FF  FF 7F F8 FF FF 7F 73 30  011E..........s0
03E0: 31 33 00 80 2A 0B 4B 81  01 01 29 08 4B 81 01 01  13..*.K...).K...
03F0: 0A 2B 4B 81 01 01 23 80  23 29 08 4B 81 01 01 0B  .+K...#.#).K....
0400: 2A 0B 4C 81 01 01 29 08  4C 81 01 01 03 2B 4C 81  *.L...).L....+L.
0410: 01 01 24 80 23 27 08 4C  81 01 01 04 29 0B 4A 81  ..$.#'.L....).J.
0420: 01 01 4C 52 06 80 F8 FF  FF 7F F8 FF FF 7F 73 30  ..LR..........s0
0430: 31 33 45 06 80 F8 FF FF  7F F8 FF FF 7F 73 30 31  13E..........s01
0440: 30 00 80 79 00 4C 81 01  01 4A 81 01 01 79 00 4B  0..y.L...J...y.K
0450: 81 01 01 4A 81 01 01 27  0B 4A 81 01 01 4B 2B 4A  ...J...'.J...K+J
0460: 81 01 01 25 80 23 2A 0B  4A 81 01 01 2A 08 4C 81  ...%.#*.J...*.L.
0470: 01 01 52 06 80 F8 FF FF  7F F8 FF FF 7F 73 30 31  ..R..........s01
0480: 30 45 06 80 F8 FF FF 7F  F8 FF FF 7F 73 30 31 32  0E..........s012
0490: 00 80 2B 4A 81 01 01 26  80 23 27 08 4A 81 01 01  ..+J...&.#'.J...
04A0: 06 79 00 4C 81 01 01 4B  81 01 01 79 00 4B 81 01  .y.L...K...y.K..
04B0: 01 4C 81 01 01 1C 19 80  7B 4C 81 01 01 7B 4B 81  .L......{L...{K.
04C0: 01 01 27 08 4B 81 01 01  4C 27 08 4C 81 01 01 4D  ..'.K...L'.L...M
04D0: 1C 07 80 45 07 80 F0 FF  FF 7F F0 FF FF 7F 66 64  ...E..........fd
04E0: 6F 31 00 80 1C 01 80 78  1C 01 80 2A 08 4A 81 01  o1.....x...*.J..
04F0: 01 2A 08 4B 81 01 01 2A  08 4C 81 01 01 52 06 80  .*.K...*.L...R..
0500: F8 FF FF 7F F8 FF FF 7F  73 30 31 32 5C 00 27 80  ........s012\.'.
0510: 5C 01 27 80 5C 02 28 80  5C 03 29 80 4E 00 F0 FF  \.'.\.(.\.).N...
0520: FF 7F 80 F0 FF FF 7F 46  00 45 07 80 F0 FF FF 7F  .......F.E......
0530: F0 FF FF 7F 66 64 69 31  00 80 20 00 21 00        ....fdi1.. .!.  
```

#### Opcodes

```
  0: 0x0001 [0x20] SET_CLI_EVENT_UC_FLAG: Lock player control
  1: 0x0003 [0x42] SET_CLI_EVENT_CANCEL_DATA()
  2: 0x0004 [0x46] CAMERA_CONTROL: Disable user control
  3: 0x0006 [0x5D] SET_MUSIC_VOLUME(volume=0*, fade_time=60*)
  4: 0x000B [0x1C] WAIT(60* ticks)
  5: 0x000E [0x38] SET_CLIENT_EVENT_MODE(mode=19*)
  6: 0x0011 [0x29] REQ_SET_WAIT(priority=0x0B, entity_id=Nag'molada (ID: 16875849/0x01018149), tag_num=0x40)
  7: 0x0018 [0x4E] SET_ENTITY_HIDE_FLAG: Hide LocalPlayer
  8: 0x001E [0x92] LocalPlayer->Render.Flags3 ^= 0x01
  9: 0x0024 [0x4E] SET_ENTITY_HIDE_FLAG: Show Nag'molada (ID: 16875849/0x01018149)
 10: 0x002A [0x80] LOAD_WAIT(entity=Nag'molada (ID: 16875849/0x01018149))
 11: 0x002F [0x77] SET_EVENT_TIME_WEATHER(hour=20*, weather=2*)
 12: 0x0034 [0x1C] WAIT(100* ticks)
 13: 0x0037 [0x5C] MUSIC_CONTROL: Set Idle (Day) music to song 0*
 14: 0x003B [0x5C] MUSIC_CONTROL: Set Idle (Night) music to song 0*
 15: 0x003F [0x29] REQ_SET_WAIT(priority=0x08, entity_id=LocalPlayer, tag_num=0x04)
 16: 0x0046 [0x45] LOAD_SCHEDULED_TASK: Load scheduler "s004" with entities [EventEntity, EventEntity], work=[118*, 0*]
 17: 0x0057 [0x45] LOAD_SCHEDULED_TASK: Load scheduler "fdi1" with entities [EventEntity, EventEntity], work=[200*, 0*]
 18: 0x0068 [0x1C] WAIT(100* ticks)
 19: 0x006B [0x9C] STORE_CLIENT_LANGUAGE_ID(result=0x01)
 20: 0x006E [0x02] IF !(ExtData[1]->WorkLocal[1] == 1*) GOTO 0x007C
 21: 0x0076 [0x7D] LOAD_START_SCHEDULER_PLAYER: Load scheduler with animation_id 32777
 22: 0x0079 [0x01] GOTO 0x00A6
 23: 0x007C [0x02] IF !(ExtData[1]->WorkLocal[1] == 2*) GOTO 0x008A
 24: 0x0084 [0x7D] LOAD_START_SCHEDULER_PLAYER: Load scheduler with animation_id 32778
 25: 0x0087 [0x01] GOTO 0x00A6
 26: 0x008A [0x02] IF !(ExtData[1]->WorkLocal[1] == 3*) GOTO 0x0098
 27: 0x0092 [0x7D] LOAD_START_SCHEDULER_PLAYER: Load scheduler with animation_id 32780
 28: 0x0095 [0x01] GOTO 0x00A6
 29: 0x0098 [0x02] IF !(ExtData[1]->WorkLocal[1] == 4*) GOTO 0x00A6
 30: 0x00A0 [0x7D] LOAD_START_SCHEDULER_PLAYER: Load scheduler with animation_id 32782
 31: 0x00A3 [0x01] GOTO 0x00A6

SUBROUTINE_00A6:
 32: 0x00A6 [0x1C] WAIT(500* ticks)
 33: 0x00A9 [0x52] END_LOAD_SCHEDULER: End scheduler "s004" with entities [EventEntity, EventEntity], work=118*
 34: 0x00B8 [0x45] LOAD_SCHEDULED_TASK: Load scheduler "ovl1" with entities [LocalPlayer, LocalPlayer], work=[200*, 0*]
 35: 0x00C9 [0x45] LOAD_SCHEDULED_TASK: Load scheduler "s135" with entities [EventEntity, EventEntity], work=[118*, 0*]
 36: 0x00DA [0x1C] WAIT(200* ticks)
 37: 0x00DD [0x29] REQ_SET_WAIT(priority=0x0B, entity_id=Nag'molada (ID: 16875849/0x01018149), tag_num=0x41)
 38: 0x00E4 [0x29] REQ_SET_WAIT(priority=0x08, entity_id=Nag'molada (ID: 16875849/0x01018149), tag_num=0x3B)
 39: 0x00EB [0x29] REQ_SET_WAIT(priority=0x08, entity_id=Nag'molada (ID: 16875849/0x01018149), tag_num=0x3C)
 40: 0x00F2 [0x2B] Nag'molada (ID: 16875849/0x01018149) [7688*]:
    → "Ugh... Where is this place?"
 41: 0x00F9 [0x23] WAIT_FOR_DIALOG_INTERACTION
 42: 0x00FA [0x52] END_LOAD_SCHEDULER: End scheduler "s135" with entities [EventEntity, EventEntity], work=118*
 43: 0x0109 [0x45] LOAD_SCHEDULED_TASK: Load scheduler "ovl1" with entities [LocalPlayer, LocalPlayer], work=[200*, 0*]
 44: 0x011A [0x45] LOAD_SCHEDULED_TASK: Load scheduler "s005" with entities [EventEntity, EventEntity], work=[118*, 0*]
 45: 0x012B [0x1C] WAIT(180* ticks)
 46: 0x012E [0x2B] Nag'molada (ID: 16875849/0x01018149) [7689*]:
    → "Somewhere far to the west, I feel..."
 47: 0x0135 [0x23] WAIT_FOR_DIALOG_INTERACTION
 48: 0x0136 [0x37] UPDATE_EVENT_POSITION_AND_DIR: x=-30.925*, z=-313.887*, y=-2.378*, direction=220.9°*
 49: 0x013F [0x4A] Nag'molada (ID: 16875849/0x01018149) looks at ??? (ID: 16875848/0x01018148)
 50: 0x0148 [0x45] LOAD_SCHEDULED_TASK: Load scheduler "se11" with entities [EventEntity, EventEntity], work=[118*, 0*]
 51: 0x0159 [0x9F] LOAD_SCHEDULED_TASK_ALT: Load scheduler "pika" with entities [EventEntity, EventEntity], work=[64*, 0*]
 52: 0x016A [0x1C] WAIT(30* ticks)
 53: 0x016D [0x52] END_LOAD_SCHEDULER: End scheduler "s005" with entities [EventEntity, EventEntity], work=118*
 54: 0x017C [0x45] LOAD_SCHEDULED_TASK: Load scheduler "ovl1" with entities [LocalPlayer, LocalPlayer], work=[200*, 0*]
 55: 0x018D [0x45] LOAD_SCHEDULED_TASK: Load scheduler "s006" with entities [EventEntity, EventEntity], work=[118*, 0*]
 56: 0x019E [0x45] LOAD_SCHEDULED_TASK: Load scheduler "se12" with entities [EventEntity, EventEntity], work=[118*, 0*]
 57: 0x01AF [0x9F] LOAD_SCHEDULED_TASK_ALT: Load scheduler "str0" with entities [EventEntity, EventEntity], work=[64*, 0*]
 58: 0x01C0 [0x29] REQ_SET_WAIT(priority=0x08, entity_id=Nag'molada (ID: 16875849/0x01018149), tag_num=0x3D)
 59: 0x01C7 [0x1C] WAIT(90* ticks)
 60: 0x01CA [0x2B] Nag'molada (ID: 16875849/0x01018149) [7690*]:
    → "What in the...!?"
 61: 0x01D1 [0x23] WAIT_FOR_DIALOG_INTERACTION
 62: 0x01D2 [0x1C] WAIT(140* ticks)
 63: 0x01D5 [0x45] LOAD_SCHEDULED_TASK: Load scheduler "fdo1" with entities [EventEntity, EventEntity], work=[200*, 0*]
 64: 0x01E6 [0x1C] WAIT(60* ticks)
 65: 0x01E9 [0x29] REQ_SET_WAIT(priority=0x08, entity_id=Nag'molada (ID: 16875849/0x01018149), tag_num=0x3E)
 66: 0x01F0 [0x29] REQ_SET_WAIT(priority=0x0B, entity_id=LocalPlayer, tag_num=0x07)
 67: 0x01F7 [0x29] REQ_SET_WAIT(priority=0x0B, entity_id=Makki-Chebukki (ID: 16875850/0x0101814A), tag_num=0x48)
 68: 0x01FE [0x29] REQ_SET_WAIT(priority=0x0B, entity_id=Kukki-Chebukki (ID: 16875851/0x0101814B), tag_num=0x48)
 69: 0x0205 [0x29] REQ_SET_WAIT(priority=0x0B, entity_id=Cherukiki (ID: 16875852/0x0101814C), tag_num=0x49)
 70: 0x020C [0x4E] SET_ENTITY_HIDE_FLAG: Show Makki-Chebukki (ID: 16875850/0x0101814A)
 71: 0x0212 [0x4E] SET_ENTITY_HIDE_FLAG: Show Kukki-Chebukki (ID: 16875851/0x0101814B)
 72: 0x0218 [0x4E] SET_ENTITY_HIDE_FLAG: Show Cherukiki (ID: 16875852/0x0101814C)
 73: 0x021E [0x4E] SET_ENTITY_HIDE_FLAG: Show LocalPlayer
 74: 0x0224 [0x80] LOAD_WAIT(entity=Makki-Chebukki (ID: 16875850/0x0101814A))
 75: 0x0229 [0x80] LOAD_WAIT(entity=Kukki-Chebukki (ID: 16875851/0x0101814B))
 76: 0x022E [0x80] LOAD_WAIT(entity=Cherukiki (ID: 16875852/0x0101814C))
 77: 0x0233 [0x80] LOAD_WAIT(entity=LocalPlayer)
 78: 0x0238 [0x52] END_LOAD_SCHEDULER: End scheduler "s006" with entities [EventEntity, EventEntity], work=118*
 79: 0x0247 [0x45] LOAD_SCHEDULED_TASK: Load scheduler "s007" with entities [EventEntity, EventEntity], work=[118*, 0*]
 80: 0x0258 [0x45] LOAD_SCHEDULED_TASK: Load scheduler "fdi1" with entities [EventEntity, EventEntity], work=[200*, 0*]
 81: 0x0269 [0x9F] LOAD_SCHEDULED_TASK_ALT: Load scheduler "str0" with entities [EventEntity, EventEntity], work=[64*, 0*]
 82: 0x027A [0x1C] WAIT(20* ticks)
 83: 0x027D [0x45] LOAD_SCHEDULED_TASK: Load scheduler "se12" with entities [EventEntity, EventEntity], work=[118*, 0*]
 84: 0x028E [0x29] REQ_SET_WAIT(priority=0x08, entity_id=Cherukiki (ID: 16875852/0x0101814C), tag_num=0x03)
 85: 0x0295 [0x29] REQ_SET_WAIT(priority=0x08, entity_id=Kukki-Chebukki (ID: 16875851/0x0101814B), tag_num=0x0A)
 86: 0x029C [0x29] REQ_SET_WAIT(priority=0x08, entity_id=Cherukiki (ID: 16875852/0x0101814C), tag_num=0x04)
 87: 0x02A3 [0x2B] Cherukiki (ID: 16875852/0x0101814C) [7691*]:
    → "Look at that!"
 88: 0x02AA [0x23] WAIT_FOR_DIALOG_INTERACTION
 89: 0x02AB [0x29] REQ_SET_WAIT(priority=0x08, entity_id=Kukki-Chebukki (ID: 16875851/0x0101814B), tag_num=0x0B)
 90: 0x02B2 [0x52] END_LOAD_SCHEDULER: End scheduler "s007" with entities [EventEntity, EventEntity], work=118*
 91: 0x02C1 [0x45] LOAD_SCHEDULED_TASK: Load scheduler "s009" with entities [EventEntity, EventEntity], work=[118*, 0*]
 92: 0x02D2 [0x27] REQ_SET(priority=0x0B, entity_id=Makki-Chebukki (ID: 16875850/0x0101814A), tag_num=0x49)
 93: 0x02D9 [0x2B] Makki-Chebukki (ID: 16875850/0x0101814A) [7692*]:
    → "Wow! Just...wow!"
 94: 0x02E0 [0x23] WAIT_FOR_DIALOG_INTERACTION
 95: 0x02E1 [0x1C] WAIT(30* ticks)
 96: 0x02E4 [0x7B] Kukki-Chebukki (ID: 16875851/0x0101814B) stops talking
 97: 0x02E9 [0x27] REQ_SET(priority=0x0B, entity_id=Kukki-Chebukki (ID: 16875851/0x0101814B), tag_num=0x49)
 98: 0x02F0 [0x29] REQ_SET_WAIT(priority=0x08, entity_id=Cherukiki (ID: 16875852/0x0101814C), tag_num=0x04)
 99: 0x02F7 [0x27] REQ_SET(priority=0x0D, entity_id=Cherukiki (ID: 16875852/0x0101814C), tag_num=0x4A)
100: 0x02FE [0x2B] Kukki-Chebukki (ID: 16875851/0x0101814B) [7693*]:
    → "The sky is tearing!"
101: 0x0305 [0x23] WAIT_FOR_DIALOG_INTERACTION
102: 0x0306 [0x1C] WAIT(90* ticks)
103: 0x0309 [0x45] LOAD_SCHEDULED_TASK: Load scheduler "fdo1" with entities [EventEntity, EventEntity], work=[200*, 0*]
104: 0x031A [0x1C] WAIT(120* ticks)
105: 0x031D [0x2A] GET_REQ_LEVEL(level=11, entity_id=Makki-Chebukki (ID: 16875850/0x0101814A))
106: 0x0323 [0x2A] GET_REQ_LEVEL(level=13, entity_id=Cherukiki (ID: 16875852/0x0101814C))
107: 0x0329 [0x2A] GET_REQ_LEVEL(level=11, entity_id=Kukki-Chebukki (ID: 16875851/0x0101814B))
108: 0x032F [0x29] REQ_SET_WAIT(priority=0x0B, entity_id=Makki-Chebukki (ID: 16875850/0x0101814A), tag_num=0x4A)
109: 0x0336 [0x45] LOAD_SCHEDULED_TASK: Load scheduler "se01" with entities [EventEntity, EventEntity], work=[118*, 0*]
110: 0x0347 [0x29] REQ_SET_WAIT(priority=0x08, entity_id=Makki-Chebukki (ID: 16875850/0x0101814A), tag_num=0x03)
111: 0x034E [0x29] REQ_SET_WAIT(priority=0x08, entity_id=LocalPlayer, tag_num=0x08)
112: 0x0355 [0x2B] Makki-Chebukki (ID: 16875850/0x0101814A) [7694*]:
    → "Ow!"
113: 0x035C [0x23] WAIT_FOR_DIALOG_INTERACTION
114: 0x035D [0x52] END_LOAD_SCHEDULER: End scheduler "s009" with entities [EventEntity, EventEntity], work=118*
115: 0x036C [0x45] LOAD_SCHEDULED_TASK: Load scheduler "s011" with entities [EventEntity, EventEntity], work=[118*, 0*]
116: 0x037D [0x45] LOAD_SCHEDULED_TASK: Load scheduler "fdi1" with entities [EventEntity, EventEntity], work=[200*, 0*]
117: 0x038E [0x1C] WAIT(300* ticks)
118: 0x0391 [0x29] REQ_SET_WAIT(priority=0x0B, entity_id=Cherukiki (ID: 16875852/0x0101814C), tag_num=0x4B)
119: 0x0398 [0x29] REQ_SET_WAIT(priority=0x0B, entity_id=Kukki-Chebukki (ID: 16875851/0x0101814B), tag_num=0x4A)
120: 0x039F [0x79] Cherukiki (ID: 16875852/0x0101814C) looks at LocalPlayer (Basic look)
121: 0x03A9 [0x79] Kukki-Chebukki (ID: 16875851/0x0101814B) looks at LocalPlayer (Basic look)
122: 0x03B3 [0x27] REQ_SET(priority=0x0B, entity_id=Cherukiki (ID: 16875852/0x0101814C), tag_num=0x4C)
123: 0x03BA [0x27] REQ_SET(priority=0x0B, entity_id=Kukki-Chebukki (ID: 16875851/0x0101814B), tag_num=0x4B)
124: 0x03C1 [0x1C] WAIT(10* ticks)
125: 0x03C4 [0x52] END_LOAD_SCHEDULER: End scheduler "s011" with entities [EventEntity, EventEntity], work=118*
126: 0x03D3 [0x45] LOAD_SCHEDULED_TASK: Load scheduler "s013" with entities [EventEntity, EventEntity], work=[118*, 0*]
127: 0x03E4 [0x2A] GET_REQ_LEVEL(level=11, entity_id=Kukki-Chebukki (ID: 16875851/0x0101814B))
128: 0x03EA [0x29] REQ_SET_WAIT(priority=0x08, entity_id=Kukki-Chebukki (ID: 16875851/0x0101814B), tag_num=0x0A)
129: 0x03F1 [0x2B] Kukki-Chebukki (ID: 16875851/0x0101814B) [7695*]:
    → "Ooh! A castaway!"
130: 0x03F8 [0x23] WAIT_FOR_DIALOG_INTERACTION
131: 0x03F9 [0x29] REQ_SET_WAIT(priority=0x08, entity_id=Kukki-Chebukki (ID: 16875851/0x0101814B), tag_num=0x0B)
132: 0x0400 [0x2A] GET_REQ_LEVEL(level=11, entity_id=Cherukiki (ID: 16875852/0x0101814C))
133: 0x0406 [0x29] REQ_SET_WAIT(priority=0x08, entity_id=Cherukiki (ID: 16875852/0x0101814C), tag_num=0x03)
134: 0x040D [0x2B] Cherukiki (ID: 16875852/0x0101814C) [7696*]:
    → "Huh? Where'd this one wash up from?"
135: 0x0414 [0x23] WAIT_FOR_DIALOG_INTERACTION
136: 0x0415 [0x27] REQ_SET(priority=0x08, entity_id=Cherukiki (ID: 16875852/0x0101814C), tag_num=0x04)
137: 0x041C [0x29] REQ_SET_WAIT(priority=0x0B, entity_id=Makki-Chebukki (ID: 16875850/0x0101814A), tag_num=0x4C)
138: 0x0423 [0x52] END_LOAD_SCHEDULER: End scheduler "s013" with entities [EventEntity, EventEntity], work=118*
139: 0x0432 [0x45] LOAD_SCHEDULED_TASK: Load scheduler "s010" with entities [EventEntity, EventEntity], work=[118*, 0*]
140: 0x0443 [0x79] Cherukiki (ID: 16875852/0x0101814C) looks at Makki-Chebukki (ID: 16875850/0x0101814A) (Basic look)
141: 0x044D [0x79] Kukki-Chebukki (ID: 16875851/0x0101814B) looks at Makki-Chebukki (ID: 16875850/0x0101814A) (Basic look)
142: 0x0457 [0x27] REQ_SET(priority=0x0B, entity_id=Makki-Chebukki (ID: 16875850/0x0101814A), tag_num=0x4B)
143: 0x045E [0x2B] Makki-Chebukki (ID: 16875850/0x0101814A) [7697*]:
    → "We gotta go tell someone!"
144: 0x0465 [0x23] WAIT_FOR_DIALOG_INTERACTION
145: 0x0466 [0x2A] GET_REQ_LEVEL(level=11, entity_id=Makki-Chebukki (ID: 16875850/0x0101814A))
146: 0x046C [0x2A] GET_REQ_LEVEL(level=8, entity_id=Cherukiki (ID: 16875852/0x0101814C))
147: 0x0472 [0x52] END_LOAD_SCHEDULER: End scheduler "s010" with entities [EventEntity, EventEntity], work=118*
148: 0x0481 [0x45] LOAD_SCHEDULED_TASK: Load scheduler "s012" with entities [EventEntity, EventEntity], work=[118*, 0*]
149: 0x0492 [0x2B] Makki-Chebukki (ID: 16875850/0x0101814A) [7698*]:
    → "But before we do... <rustle, rustle>"
150: 0x0499 [0x23] WAIT_FOR_DIALOG_INTERACTION
151: 0x049A [0x27] REQ_SET(priority=0x08, entity_id=Makki-Chebukki (ID: 16875850/0x0101814A), tag_num=0x06)
152: 0x04A1 [0x79] Cherukiki (ID: 16875852/0x0101814C) looks at Kukki-Chebukki (ID: 16875851/0x0101814B) (Basic look)
153: 0x04AB [0x79] Kukki-Chebukki (ID: 16875851/0x0101814B) looks at Cherukiki (ID: 16875852/0x0101814C) (Basic look)
154: 0x04B5 [0x1C] WAIT(90* ticks)
155: 0x04B8 [0x7B] Cherukiki (ID: 16875852/0x0101814C) stops talking
156: 0x04BD [0x7B] Kukki-Chebukki (ID: 16875851/0x0101814B) stops talking
157: 0x04C2 [0x27] REQ_SET(priority=0x08, entity_id=Kukki-Chebukki (ID: 16875851/0x0101814B), tag_num=0x4C)
158: 0x04C9 [0x27] REQ_SET(priority=0x08, entity_id=Cherukiki (ID: 16875852/0x0101814C), tag_num=0x4D)
159: 0x04D0 [0x1C] WAIT(200* ticks)
160: 0x04D3 [0x45] LOAD_SCHEDULED_TASK: Load scheduler "fdo1" with entities [LocalPlayer, LocalPlayer], work=[200*, 0*]
161: 0x04E4 [0x1C] WAIT(60* ticks)
162: 0x04E7 [0x78] ENABLE_GAME_TIMER_RESET_WEATHER()
163: 0x04E8 [0x1C] WAIT(60* ticks)
164: 0x04EB [0x2A] GET_REQ_LEVEL(level=8, entity_id=Makki-Chebukki (ID: 16875850/0x0101814A))
165: 0x04F1 [0x2A] GET_REQ_LEVEL(level=8, entity_id=Kukki-Chebukki (ID: 16875851/0x0101814B))
166: 0x04F7 [0x2A] GET_REQ_LEVEL(level=8, entity_id=Cherukiki (ID: 16875852/0x0101814C))
167: 0x04FD [0x52] END_LOAD_SCHEDULER: End scheduler "s012" with entities [EventEntity, EventEntity], work=118*
168: 0x050C [0x5C] MUSIC_CONTROL: Set Idle (Day) music to song 230*
169: 0x0510 [0x5C] MUSIC_CONTROL: Set Idle (Night) music to song 230*
170: 0x0514 [0x5C] MUSIC_CONTROL: Set Combat (Solo) music to song 101*
171: 0x0518 [0x5C] MUSIC_CONTROL: Set Combat (Party) music to song 219*
172: 0x051C [0x4E] SET_ENTITY_HIDE_FLAG: Show LocalPlayer
173: 0x0522 [0x80] LOAD_WAIT(entity=LocalPlayer)
174: 0x0527 [0x46] CAMERA_CONTROL: Restore default settings
175: 0x0529 [0x45] LOAD_SCHEDULED_TASK: Load scheduler "fdi1" with entities [LocalPlayer, LocalPlayer], work=[200*, 0*]
176: 0x053A [0x20] SET_CLI_EVENT_UC_FLAG: Unlock player control
177: 0x053C [0x21] END_EVENT
178: 0x053D [0x00] END_REQSTACK()
```

### Event 111

#### Metadata

| Field        | Value      |
|--------------|------------|
| Entrypoint   | 0x053E     |
| Data Size    | 1783 bytes |
| Instructions | 251        |

```
      00 01 02 03 04 05 06 07  08 09 0A 0B 0C 0D 0E 0F
      -- -- -- -- -- -- -- --  -- -- -- -- -- -- -- --
0530:                                            42 46                BF
0540: 01 5D 00 80 08 80 45 07  80 F8 FF FF 7F F8 FF FF  .]....E.........
0550: 7F 66 64 6F 31 00 80 1C  01 80 38 02 80 4E 00 4A  .fdo1.....8..N.J
0560: 81 01 01 4E 00 4B 81 01  01 4E 00 4C 81 01 01 4E  ...N.K...N.L...N
0570: 00 F0 FF FF 7F 80 4A 81  01 01 80 4B 81 01 01 80  ......J....K....
0580: 4C 81 01 01 80 F0 FF FF  7F 29 08 4A 81 01 01 03  L........).J....
0590: 29 08 4B 81 01 01 03 29  08 4C 81 01 01 07 29 0B  ).K....).L....).
05A0: F0 FF FF 7F 09 29 0B 4C  81 01 01 4F 29 0B 4B 81  .....).L...O).K.
05B0: 01 01 4E 29 0B 4A 81 01  01 4E 92 01 F0 FF FF 7F  ..N).J...N......
05C0: 43 00 43 01 1C 01 80 29  08 F0 FF FF 7F 04 45 06  C.C....)......E.
05D0: 80 F8 FF FF 7F F8 FF FF  7F 73 31 33 36 00 80 45  .........s136..E
05E0: 07 80 F8 FF FF 7F F8 FF  FF 7F 66 64 69 31 00 80  ..........fdi1..
05F0: 1C 05 80 9C 01 00 02 01  00 08 80 80 04 06 7D 2A  ..............}*
0600: 80 01 2E 06 02 01 00 04  80 80 12 06 7D 01 80 01  ............}...
0610: 2E 06 02 01 00 0B 80 80  20 06 7D 2B 80 01 2E 06  ........ .}+....
0620: 02 01 00 0D 80 80 2E 06  7D 2C 80 01 2E 06 1C 2D  ........},.....-
0630: 80 52 06 80 F8 FF FF 7F  F8 FF FF 7F 73 31 33 36  .R..........s136
0640: 45 07 80 F0 FF FF 7F F0  FF FF 7F 6F 76 6C 31 00  E..........ovl1.
0650: 80 45 06 80 F8 FF FF 7F  F8 FF FF 7F 73 30 31 34  .E..........s014
0660: 00 80 1C 05 80 1C 07 80  45 07 80 F8 FF FF 7F F8  ........E.......
0670: FF FF 7F 66 64 6F 31 00  80 1C 01 80 52 06 80 F8  ...fdo1.....R...
0680: FF FF 7F F8 FF FF 7F 73  30 31 34 29 08 F0 FF FF  .......s014)....
0690: 7F 0B 02 09 10 0B 80 00  AE 06 45 06 80 F8 FF FF  ..........E.....
06A0: 7F F8 FF FF 7F 73 30 32  32 00 80 01 13 07 02 09  .....s022.......
06B0: 10 2E 80 00 CA 06 45 06  80 F8 FF FF 7F F8 FF FF  ......E.........
06C0: 7F 73 30 32 34 00 80 01  13 07 02 09 10 2F 80 00  .s024......../..
06D0: E6 06 45 06 80 F8 FF FF  7F F8 FF FF 7F 73 30 32  ..E..........s02
06E0: 34 00 80 01 13 07 02 09  10 30 80 00 02 07 45 06  4........0....E.
06F0: 80 F8 FF FF 7F F8 FF FF  7F 73 30 32 33 00 80 01  .........s023...
0700: 13 07 45 06 80 F8 FF FF  7F F8 FF FF 7F 73 30 31  ..E..........s01
0710: 35 00 80 92 00 F0 FF FF  7F 45 07 80 F8 FF FF 7F  5........E......
0720: F8 FF FF 7F 66 64 69 31  00 80 1C 19 80 29 08 F0  ....fdi1.....)..
0730: FF FF 7F 0C 1C 18 80 79  00 F0 FF FF 7F 4A 81 01  .......y.....J..
0740: 01 4B F0 FF FF 7F 31 80  6F 76 F0 FF FF 7F 45 07  .K....1.ov....E.
0750: 80 F8 FF FF 7F F8 FF FF  7F 66 64 6F 31 00 80 1C  .........fdo1...
0760: 01 80 4A F0 FF FF 7F 4A  81 01 01 6F 76 F0 FF FF  ..J....J...ov...
0770: 7F 02 09 10 0B 80 00 8B  07 52 06 80 F8 FF FF 7F  .........R......
0780: F8 FF FF 7F 73 30 32 32  01 E8 07 02 09 10 2E 80  ....s022........
0790: 00 A5 07 52 06 80 F8 FF  FF 7F F8 FF FF 7F 73 30  ...R..........s0
07A0: 32 34 01 E8 07 02 09 10  2F 80 00 BF 07 52 06 80  24....../....R..
07B0: F8 FF FF 7F F8 FF FF 7F  73 30 32 34 01 E8 07 02  ........s024....
07C0: 09 10 30 80 00 D9 07 52  06 80 F8 FF FF 7F F8 FF  ..0....R........
07D0: FF 7F 73 30 32 33 01 E8  07 52 06 80 F8 FF FF 7F  ..s023...R......
07E0: F8 FF FF 7F 73 30 31 35  02 09 10 2E 80 00 04 08  ....s015........
07F0: 45 06 80 F8 FF FF 7F F8  FF FF 7F 73 30 32 35 00  E..........s025.
0800: 80 01 31 08 02 09 10 2F  80 00 20 08 45 06 80 F8  ..1..../.. .E...
0810: FF FF 7F F8 FF FF 7F 73  30 32 35 00 80 01 31 08  .......s025...1.
0820: 45 06 80 F8 FF FF 7F F8  FF FF 7F 73 30 31 37 00  E..........s017.
0830: 80 45 07 80 F8 FF FF 7F  F8 FF FF 7F 66 64 69 31  .E..........fdi1
0840: 00 80 1C 18 80 27 0B F0  FF FF 7F 0D 1C 01 80 45  .....'.........E
0850: 07 80 F8 FF FF 7F F8 FF  FF 7F 66 64 6F 31 00 80  ..........fdo1..
0860: 1C 01 80 02 09 10 2E 80  00 7D 08 52 06 80 F8 FF  .........}.R....
0870: FF 7F F8 FF FF 7F 73 30  32 35 01 A6 08 02 09 10  ......s025......
0880: 2F 80 00 97 08 52 06 80  F8 FF FF 7F F8 FF FF 7F  /....R..........
0890: 73 30 32 35 01 A6 08 52  06 80 F8 FF FF 7F F8 FF  s025...R........
08A0: FF 7F 73 30 31 37 45 06  80 F8 FF FF 7F F8 FF FF  ..s017E.........
08B0: 7F 73 30 31 36 00 80 45  07 80 F8 FF FF 7F F8 FF  .s016..E........
08C0: FF 7F 66 64 69 31 00 80  1C 21 80 52 06 80 F8 FF  ..fdi1...!.R....
08D0: FF 7F F8 FF FF 7F 73 30  31 36 45 06 80 F8 FF FF  ......s016E.....
08E0: 7F F8 FF FF 7F 73 30 30  38 00 80 5C 00 32 80 5C  .....s008..\.2.\
08F0: 01 32 80 1C 07 80 2A 0B  F0 FF FF 7F 03 00 00 00  .2....*.........
0900: 80 02 00 00 00 80 00 3D  09 24 33 80 00 80 00 80  .......=.$3.....
0910: 25 02 00 10 00 80 00 26  09 03 01 10 08 80 03 00  %......&........
0920: 00 08 80 01 3A 09 02 00  10 08 80 00 3A 09 03 01  ....:.......:...
0930: 10 04 80 48 34 80 23 01  3A 09 01 01 09 27 0B F0  ...H4.#.:....'..
0940: FF FF 7F 0E 45 07 80 F8  FF FF 7F F8 FF FF 7F 66  ....E..........f
0950: 64 6F 31 00 80 1C 01 80  52 06 80 F8 FF FF 7F F8  do1.....R.......
0960: FF FF 7F 73 30 30 38 2A  0B F0 FF FF 7F 29 08 F0  ...s008*.....)..
0970: FF FF 7F 0C 29 0B F0 FF  FF 7F 0F 48 35 80 23 29  ....)......H5.#)
0980: 0B 4B 81 01 01 4F 29 0B  4C 81 01 01 50 45 06 80  .K...O).L...PE..
0990: F8 FF FF 7F F8 FF FF 7F  73 30 31 38 00 80 45 07  ........s018..E.
09A0: 80 F8 FF FF 7F F8 FF FF  7F 66 64 69 31 00 80 1C  .........fdi1...
09B0: 18 80 29 08 4A 81 01 01  04 2B 4A 81 01 01 36 80  ..).J....+J...6.
09C0: 23 29 08 4B 81 01 01 04  2B 4B 81 01 01 37 80 23  #).K....+K...7.#
09D0: 29 08 4C 81 01 01 08 2B  4C 81 01 01 38 80 23 29  ).L....+L...8.#)
09E0: 08 4A 81 01 01 05 29 08  4B 81 01 01 05 29 08 4C  .J....).K....).L
09F0: 81 01 01 09 52 06 80 F8  FF FF 7F F8 FF FF 7F 73  ....R..........s
0A00: 30 31 38 45 06 80 F8 FF  FF 7F F8 FF FF 7F 73 30  018E..........s0
0A10: 31 39 00 80 79 00 4B 81  01 01 4A 81 01 01 79 00  19..y.K...J...y.
0A20: 4C 81 01 01 4A 81 01 01  29 08 4A 81 01 01 0A 2B  L...J...).J....+
0A30: 4A 81 01 01 39 80 23 29  08 4A 81 01 01 0B 79 00  J...9.#).J....y.
0A40: 4A 81 01 01 4B 81 01 01  79 00 4C 81 01 01 4B 81  J...K...y.L...K.
0A50: 01 01 29 08 4B 81 01 01  0A 2B 4B 81 01 01 3A 80  ..).K....+K...:.
0A60: 23 29 08 4B 81 01 01 0B  79 00 4A 81 01 01 4C 81  #).K....y.J...L.
0A70: 01 01 79 00 4B 81 01 01  4C 81 01 01 79 00 4C 81  ..y.K...L...y.L.
0A80: 01 01 F0 FF FF 7F 1C 01  80 4A 4C 81 01 01 F0 FF  .........JL.....
0A90: FF 7F 6F 76 4C 81 01 01  29 08 4C 81 01 01 03 2B  ..ovL...).L....+
0AA0: 4C 81 01 01 3B 80 23 1C  01 80 4A 4B 81 01 01 F0  L...;.#...JK....
0AB0: FF FF 7F 4A 4A 81 01 01  F0 FF FF 7F 52 06 80 F8  ...JJ.......R...
0AC0: FF FF 7F F8 FF FF 7F 73  30 31 39 45 06 80 F8 FF  .......s019E....
0AD0: FF 7F F8 FF FF 7F 73 30  32 30 00 80 27 0B F0 FF  ......s020..'...
0AE0: FF 7F 10 1C 01 80 29 08  4B 81 01 01 0C 27 0D 4C  ......).K....'.L
0AF0: 81 01 01 04 2B 4B 81 01  01 3C 80 23 29 08 4B 81  ....+K...<.#).K.
0B00: 01 01 0D 2A 0B F0 FF FF  7F 29 08 4A 81 01 01 0C  ...*.....).J....
0B10: 2B 4A 81 01 01 3D 80 23  29 08 4A 81 01 01 0D 2A  +J...=.#).J....*
0B20: 0D 4C 81 01 01 4B 4A 81  01 01 3E 80 4A 4B 81 01  .L...KJ...>.JK..
0B30: 01 4A 81 01 01 4A 4C 81  01 01 4A 81 01 01 6F 76  .J...JL...J...ov
0B40: 4A 81 01 01 6F 76 4B 81  01 01 6F 76 4C 81 01 01  J...ovK...ovL...
0B50: 52 06 80 F8 FF FF 7F F8  FF FF 7F 73 30 32 30 5D  R..........s020]
0B60: 00 80 07 80 45 06 80 F8  FF FF 7F F8 FF FF 7F 73  ....E..........s
0B70: 30 32 31 00 80 4A F0 FF  FF 7F 4A 81 01 01 4A 4A  021..J....J...JJ
0B80: 81 01 01 4C 81 01 01 7B  4B 81 01 01 27 0B 4C 81  ...L...{K...'.L.
0B90: 01 01 51 2B 4C 81 01 01  3F 80 23 1C 18 80 27 0B  ..Q+L...?.#...'.
0BA0: 4B 81 01 01 50 2B 4B 81  01 01 40 80 23 1C 18 80  K...P+K...@.#...
0BB0: 6F 76 4A 81 01 01 27 0B  4A 81 01 01 4F 1C 01 80  ovJ...'.J...O...
0BC0: 2B 4A 81 01 01 41 80 23  45 07 80 F0 FF FF 7F F0  +J...A.#E.......
0BD0: FF FF 7F 66 64 6F 31 00  80 1C 01 80 52 06 80 F8  ...fdo1.....R...
0BE0: FF FF 7F F8 FF FF 7F 73  30 32 31 2A 0B 4C 81 01  .......s021*.L..
0BF0: 01 2A 0B 4B 81 01 01 2A  0B 4A 81 01 01 6F 76 F0  .*.K...*.J...ov.
0C00: FF FF 7F 5C 00 27 80 5C  01 27 80 5C 02 28 80 5C  ...\.'.\.'.\.(.\
0C10: 03 29 80 4E 00 F0 FF FF  7F 80 F0 FF FF 7F 46 00  .).N..........F.
0C20: 45 07 80 F0 FF FF 7F F0  FF FF 7F 66 64 69 31 00  E..........fdi1.
0C30: 80 20 00 21 00                                    . .!.           
```

#### Opcodes

```
  0: 0x053E [0x42] SET_CLI_EVENT_CANCEL_DATA()
  1: 0x053F [0x46] CAMERA_CONTROL: Disable user control
  2: 0x0541 [0x5D] SET_MUSIC_VOLUME(volume=0*, fade_time=1*)
  3: 0x0546 [0x45] LOAD_SCHEDULED_TASK: Load scheduler "fdo1" with entities [EventEntity, EventEntity], work=[200*, 0*]
  4: 0x0557 [0x1C] WAIT(60* ticks)
  5: 0x055A [0x38] SET_CLIENT_EVENT_MODE(mode=19*)
  6: 0x055D [0x4E] SET_ENTITY_HIDE_FLAG: Show Makki-Chebukki (ID: 16875850/0x0101814A)
  7: 0x0563 [0x4E] SET_ENTITY_HIDE_FLAG: Show Kukki-Chebukki (ID: 16875851/0x0101814B)
  8: 0x0569 [0x4E] SET_ENTITY_HIDE_FLAG: Show Cherukiki (ID: 16875852/0x0101814C)
  9: 0x056F [0x4E] SET_ENTITY_HIDE_FLAG: Show LocalPlayer
 10: 0x0575 [0x80] LOAD_WAIT(entity=Makki-Chebukki (ID: 16875850/0x0101814A))
 11: 0x057A [0x80] LOAD_WAIT(entity=Kukki-Chebukki (ID: 16875851/0x0101814B))
 12: 0x057F [0x80] LOAD_WAIT(entity=Cherukiki (ID: 16875852/0x0101814C))
 13: 0x0584 [0x80] LOAD_WAIT(entity=LocalPlayer)
 14: 0x0589 [0x29] REQ_SET_WAIT(priority=0x08, entity_id=Makki-Chebukki (ID: 16875850/0x0101814A), tag_num=0x03)
 15: 0x0590 [0x29] REQ_SET_WAIT(priority=0x08, entity_id=Kukki-Chebukki (ID: 16875851/0x0101814B), tag_num=0x03)
 16: 0x0597 [0x29] REQ_SET_WAIT(priority=0x08, entity_id=Cherukiki (ID: 16875852/0x0101814C), tag_num=0x07)
 17: 0x059E [0x29] REQ_SET_WAIT(priority=0x0B, entity_id=LocalPlayer, tag_num=0x09)
 18: 0x05A5 [0x29] REQ_SET_WAIT(priority=0x0B, entity_id=Cherukiki (ID: 16875852/0x0101814C), tag_num=0x4F)
 19: 0x05AC [0x29] REQ_SET_WAIT(priority=0x0B, entity_id=Kukki-Chebukki (ID: 16875851/0x0101814B), tag_num=0x4E)
 20: 0x05B3 [0x29] REQ_SET_WAIT(priority=0x0B, entity_id=Makki-Chebukki (ID: 16875850/0x0101814A), tag_num=0x4E)
 21: 0x05BA [0x92] LocalPlayer->Render.Flags3 ^= 0x01
 22: 0x05C0 [0x43] SEND_EVENT_UPDATE: Send pending tag to server (packet 0x005B)
 23: 0x05C2 [0x43] SEND_EVENT_UPDATE: Check pending flag (skip if not pending)
 24: 0x05C4 [0x1C] WAIT(60* ticks)
 25: 0x05C7 [0x29] REQ_SET_WAIT(priority=0x08, entity_id=LocalPlayer, tag_num=0x04)
 26: 0x05CE [0x45] LOAD_SCHEDULED_TASK: Load scheduler "s136" with entities [EventEntity, EventEntity], work=[118*, 0*]
 27: 0x05DF [0x45] LOAD_SCHEDULED_TASK: Load scheduler "fdi1" with entities [EventEntity, EventEntity], work=[200*, 0*]
 28: 0x05F0 [0x1C] WAIT(100* ticks)
 29: 0x05F3 [0x9C] STORE_CLIENT_LANGUAGE_ID(result=0x01)
 30: 0x05F6 [0x02] IF !(ExtData[1]->WorkLocal[1] == 1*) GOTO 0x0604
 31: 0x05FE [0x7D] LOAD_START_SCHEDULER_PLAYER: Load scheduler with animation_id 32810
 32: 0x0601 [0x01] GOTO 0x062E
 33: 0x0604 [0x02] IF !(ExtData[1]->WorkLocal[1] == 2*) GOTO 0x0612
 34: 0x060C [0x7D] LOAD_START_SCHEDULER_PLAYER: Load scheduler with animation_id 32769
 35: 0x060F [0x01] GOTO 0x062E
 36: 0x0612 [0x02] IF !(ExtData[1]->WorkLocal[1] == 3*) GOTO 0x0620
 37: 0x061A [0x7D] LOAD_START_SCHEDULER_PLAYER: Load scheduler with animation_id 32811
 38: 0x061D [0x01] GOTO 0x062E
 39: 0x0620 [0x02] IF !(ExtData[1]->WorkLocal[1] == 4*) GOTO 0x062E
 40: 0x0628 [0x7D] LOAD_START_SCHEDULER_PLAYER: Load scheduler with animation_id 32812
 41: 0x062B [0x01] GOTO 0x062E

SUBROUTINE_062E:
 42: 0x062E [0x1C] WAIT(580* ticks)
 43: 0x0631 [0x52] END_LOAD_SCHEDULER: End scheduler "s136" with entities [EventEntity, EventEntity], work=118*
 44: 0x0640 [0x45] LOAD_SCHEDULED_TASK: Load scheduler "ovl1" with entities [LocalPlayer, LocalPlayer], work=[200*, 0*]
 45: 0x0651 [0x45] LOAD_SCHEDULED_TASK: Load scheduler "s014" with entities [EventEntity, EventEntity], work=[118*, 0*]
 46: 0x0662 [0x1C] WAIT(100* ticks)
 47: 0x0665 [0x1C] WAIT(200* ticks)
 48: 0x0668 [0x45] LOAD_SCHEDULED_TASK: Load scheduler "fdo1" with entities [EventEntity, EventEntity], work=[200*, 0*]
 49: 0x0679 [0x1C] WAIT(60* ticks)
 50: 0x067C [0x52] END_LOAD_SCHEDULER: End scheduler "s014" with entities [EventEntity, EventEntity], work=118*
 51: 0x068B [0x29] REQ_SET_WAIT(priority=0x08, entity_id=LocalPlayer, tag_num=0x0B)
 52: 0x0692 [0x02] IF !(Work_Zone[9] == 3*) GOTO 0x06AE
 53: 0x069A [0x45] LOAD_SCHEDULED_TASK: Load scheduler "s022" with entities [EventEntity, EventEntity], work=[118*, 0*]
 54: 0x06AB [0x01] GOTO 0x0713
 55: 0x06AE [0x02] IF !(Work_Zone[9] == 5*) GOTO 0x06CA
 56: 0x06B6 [0x45] LOAD_SCHEDULED_TASK: Load scheduler "s024" with entities [EventEntity, EventEntity], work=[118*, 0*]
 57: 0x06C7 [0x01] GOTO 0x0713
 58: 0x06CA [0x02] IF !(Work_Zone[9] == 6*) GOTO 0x06E6
 59: 0x06D2 [0x45] LOAD_SCHEDULED_TASK: Load scheduler "s024" with entities [EventEntity, EventEntity], work=[118*, 0*]
 60: 0x06E3 [0x01] GOTO 0x0713
 61: 0x06E6 [0x02] IF !(Work_Zone[9] == 8*) GOTO 0x0702
 62: 0x06EE [0x45] LOAD_SCHEDULED_TASK: Load scheduler "s023" with entities [EventEntity, EventEntity], work=[118*, 0*]
 63: 0x06FF [0x01] GOTO 0x0713
 64: 0x0702 [0x45] LOAD_SCHEDULED_TASK: Load scheduler "s015" with entities [EventEntity, EventEntity], work=[118*, 0*]

SUBROUTINE_0713:
 65: 0x0713 [0x92] LocalPlayer->Render.Flags3 = Flags3  // No change (flag=0)
 66: 0x0719 [0x45] LOAD_SCHEDULED_TASK: Load scheduler "fdi1" with entities [EventEntity, EventEntity], work=[200*, 0*]
 67: 0x072A [0x1C] WAIT(90* ticks)
 68: 0x072D [0x29] REQ_SET_WAIT(priority=0x08, entity_id=LocalPlayer, tag_num=0x0C)
 69: 0x0734 [0x1C] WAIT(30* ticks)
 70: 0x0737 [0x79] LocalPlayer looks at Makki-Chebukki (ID: 16875850/0x0101814A) (Basic look)
 71: 0x0741 [0x4B] UPDATE_ENTITY_YAW(entity=LocalPlayer, yaw=5.5°*)
 72: 0x0748 [0x6F] WAIT_FRAME_DELAY: Yield until WaitTime reaches zero
 73: 0x0749 [0x76] CHECK_ENTITY_RENDER_FLAGS: Wait until LocalPlayer Render.Flags0 and Render.Flags3 conditions are met
 74: 0x074E [0x45] LOAD_SCHEDULED_TASK: Load scheduler "fdo1" with entities [EventEntity, EventEntity], work=[200*, 0*]
 75: 0x075F [0x1C] WAIT(60* ticks)
 76: 0x0762 [0x4A] LocalPlayer looks at Makki-Chebukki (ID: 16875850/0x0101814A)
 77: 0x076B [0x6F] WAIT_FRAME_DELAY: Yield until WaitTime reaches zero
 78: 0x076C [0x76] CHECK_ENTITY_RENDER_FLAGS: Wait until LocalPlayer Render.Flags0 and Render.Flags3 conditions are met
 79: 0x0771 [0x02] IF !(Work_Zone[9] == 3*) GOTO 0x078B
 80: 0x0779 [0x52] END_LOAD_SCHEDULER: End scheduler "s022" with entities [EventEntity, EventEntity], work=118*
 81: 0x0788 [0x01] GOTO 0x07E8
 82: 0x078B [0x02] IF !(Work_Zone[9] == 5*) GOTO 0x07A5
 83: 0x0793 [0x52] END_LOAD_SCHEDULER: End scheduler "s024" with entities [EventEntity, EventEntity], work=118*
 84: 0x07A2 [0x01] GOTO 0x07E8
 85: 0x07A5 [0x02] IF !(Work_Zone[9] == 6*) GOTO 0x07BF
 86: 0x07AD [0x52] END_LOAD_SCHEDULER: End scheduler "s024" with entities [EventEntity, EventEntity], work=118*
 87: 0x07BC [0x01] GOTO 0x07E8
 88: 0x07BF [0x02] IF !(Work_Zone[9] == 8*) GOTO 0x07D9
 89: 0x07C7 [0x52] END_LOAD_SCHEDULER: End scheduler "s023" with entities [EventEntity, EventEntity], work=118*
 90: 0x07D6 [0x01] GOTO 0x07E8
 91: 0x07D9 [0x52] END_LOAD_SCHEDULER: End scheduler "s015" with entities [EventEntity, EventEntity], work=118*

SUBROUTINE_07E8:
 92: 0x07E8 [0x02] IF !(Work_Zone[9] == 5*) GOTO 0x0804
 93: 0x07F0 [0x45] LOAD_SCHEDULED_TASK: Load scheduler "s025" with entities [EventEntity, EventEntity], work=[118*, 0*]
 94: 0x0801 [0x01] GOTO 0x0831
 95: 0x0804 [0x02] IF !(Work_Zone[9] == 6*) GOTO 0x0820
 96: 0x080C [0x45] LOAD_SCHEDULED_TASK: Load scheduler "s025" with entities [EventEntity, EventEntity], work=[118*, 0*]
 97: 0x081D [0x01] GOTO 0x0831
 98: 0x0820 [0x45] LOAD_SCHEDULED_TASK: Load scheduler "s017" with entities [EventEntity, EventEntity], work=[118*, 0*]

SUBROUTINE_0831:
 99: 0x0831 [0x45] LOAD_SCHEDULED_TASK: Load scheduler "fdi1" with entities [EventEntity, EventEntity], work=[200*, 0*]
100: 0x0842 [0x1C] WAIT(30* ticks)
101: 0x0845 [0x27] REQ_SET(priority=0x0B, entity_id=LocalPlayer, tag_num=0x0D)
102: 0x084C [0x1C] WAIT(60* ticks)
103: 0x084F [0x45] LOAD_SCHEDULED_TASK: Load scheduler "fdo1" with entities [EventEntity, EventEntity], work=[200*, 0*]
104: 0x0860 [0x1C] WAIT(60* ticks)
105: 0x0863 [0x02] IF !(Work_Zone[9] == 5*) GOTO 0x087D
106: 0x086B [0x52] END_LOAD_SCHEDULER: End scheduler "s025" with entities [EventEntity, EventEntity], work=118*
107: 0x087A [0x01] GOTO 0x08A6
108: 0x087D [0x02] IF !(Work_Zone[9] == 6*) GOTO 0x0897
109: 0x0885 [0x52] END_LOAD_SCHEDULER: End scheduler "s025" with entities [EventEntity, EventEntity], work=118*
110: 0x0894 [0x01] GOTO 0x08A6
111: 0x0897 [0x52] END_LOAD_SCHEDULER: End scheduler "s017" with entities [EventEntity, EventEntity], work=118*

SUBROUTINE_08A6:
112: 0x08A6 [0x45] LOAD_SCHEDULED_TASK: Load scheduler "s016" with entities [EventEntity, EventEntity], work=[118*, 0*]
113: 0x08B7 [0x45] LOAD_SCHEDULED_TASK: Load scheduler "fdi1" with entities [EventEntity, EventEntity], work=[200*, 0*]
114: 0x08C8 [0x1C] WAIT(300* ticks)
115: 0x08CB [0x52] END_LOAD_SCHEDULER: End scheduler "s016" with entities [EventEntity, EventEntity], work=118*
116: 0x08DA [0x45] LOAD_SCHEDULED_TASK: Load scheduler "s008" with entities [EventEntity, EventEntity], work=[118*, 0*]
117: 0x08EB [0x5C] MUSIC_CONTROL: Set Idle (Day) music to song 163*
118: 0x08EF [0x5C] MUSIC_CONTROL: Set Idle (Night) music to song 163*
119: 0x08F3 [0x1C] WAIT(200* ticks)
120: 0x08F6 [0x2A] GET_REQ_LEVEL(level=11, entity_id=LocalPlayer)
121: 0x08FC [0x03] ExtData[1]->WorkLocal[0] = 0*

SUBROUTINE_0901:
122: 0x0901 [0x02] IF !(ExtData[1]->WorkLocal[0] == 0*) GOTO 0x093D
123: 0x0909 [0x24] CREATE_DIALOG(message_id=7700*, default_option=0*, option_flags=0*)
    → "Search their possessions? [Let's see now.../I don't know...]"
124: 0x0910 [0x25] WAIT_DIALOG_SELECT()
125: 0x0911 [0x02] IF !(Work_Zone[0] == 0*) GOTO 0x0926
126: 0x0919 [0x03] Work_Zone[1] = 1*
127: 0x091E [0x03] ExtData[1]->WorkLocal[0] = 1*
128: 0x0923 [0x01] GOTO 0x093A
129: 0x0926 [0x02] IF !(Work_Zone[0] == 1*) GOTO 0x093A
130: 0x092E [0x03] Work_Zone[1] = 2*
131: 0x0933 [0x48] [System] [7702*]:
    → "(You're always falling victim to these three. It's about time you returned the favor!)"
132: 0x0936 [0x23] WAIT_FOR_DIALOG_INTERACTION
133: 0x0937 [0x01] GOTO 0x093A

SUBROUTINE_093A:
134: 0x093A [0x01] GOTO 0x0901
135: 0x093D [0x27] REQ_SET(priority=0x0B, entity_id=LocalPlayer, tag_num=0x0E)
136: 0x0944 [0x45] LOAD_SCHEDULED_TASK: Load scheduler "fdo1" with entities [EventEntity, EventEntity], work=[200*, 0*]
137: 0x0955 [0x1C] WAIT(60* ticks)
138: 0x0958 [0x52] END_LOAD_SCHEDULER: End scheduler "s008" with entities [EventEntity, EventEntity], work=118*
139: 0x0967 [0x2A] GET_REQ_LEVEL(level=11, entity_id=LocalPlayer)
140: 0x096D [0x29] REQ_SET_WAIT(priority=0x08, entity_id=LocalPlayer, tag_num=0x0C)
141: 0x0974 [0x29] REQ_SET_WAIT(priority=0x0B, entity_id=LocalPlayer, tag_num=0x0F)
142: 0x097B [0x48] [System] [7701*]:
    → "You find $1!"
143: 0x097E [0x23] WAIT_FOR_DIALOG_INTERACTION
144: 0x097F [0x29] REQ_SET_WAIT(priority=0x0B, entity_id=Kukki-Chebukki (ID: 16875851/0x0101814B), tag_num=0x4F)
145: 0x0986 [0x29] REQ_SET_WAIT(priority=0x0B, entity_id=Cherukiki (ID: 16875852/0x0101814C), tag_num=0x50)
146: 0x098D [0x45] LOAD_SCHEDULED_TASK: Load scheduler "s018" with entities [EventEntity, EventEntity], work=[118*, 0*]
147: 0x099E [0x45] LOAD_SCHEDULED_TASK: Load scheduler "fdi1" with entities [EventEntity, EventEntity], work=[200*, 0*]
148: 0x09AF [0x1C] WAIT(30* ticks)
149: 0x09B2 [0x29] REQ_SET_WAIT(priority=0x08, entity_id=Makki-Chebukki (ID: 16875850/0x0101814A), tag_num=0x04)
150: 0x09B9 [0x2B] Makki-Chebukki (ID: 16875850/0x0101814A) [7703*]:
    → "Gyah!"
151: 0x09C0 [0x23] WAIT_FOR_DIALOG_INTERACTION
152: 0x09C1 [0x29] REQ_SET_WAIT(priority=0x08, entity_id=Kukki-Chebukki (ID: 16875851/0x0101814B), tag_num=0x04)
153: 0x09C8 [0x2B] Kukki-Chebukki (ID: 16875851/0x0101814B) [7704*]:
    → "Argh!"
154: 0x09CF [0x23] WAIT_FOR_DIALOG_INTERACTION
155: 0x09D0 [0x29] REQ_SET_WAIT(priority=0x08, entity_id=Cherukiki (ID: 16875852/0x0101814C), tag_num=0x08)
156: 0x09D7 [0x2B] Cherukiki (ID: 16875852/0x0101814C) [7705*]:
    → "Kyah!"
157: 0x09DE [0x23] WAIT_FOR_DIALOG_INTERACTION
158: 0x09DF [0x29] REQ_SET_WAIT(priority=0x08, entity_id=Makki-Chebukki (ID: 16875850/0x0101814A), tag_num=0x05)
159: 0x09E6 [0x29] REQ_SET_WAIT(priority=0x08, entity_id=Kukki-Chebukki (ID: 16875851/0x0101814B), tag_num=0x05)
160: 0x09ED [0x29] REQ_SET_WAIT(priority=0x08, entity_id=Cherukiki (ID: 16875852/0x0101814C), tag_num=0x09)
161: 0x09F4 [0x52] END_LOAD_SCHEDULER: End scheduler "s018" with entities [EventEntity, EventEntity], work=118*
162: 0x0A03 [0x45] LOAD_SCHEDULED_TASK: Load scheduler "s019" with entities [EventEntity, EventEntity], work=[118*, 0*]
163: 0x0A14 [0x79] Kukki-Chebukki (ID: 16875851/0x0101814B) looks at Makki-Chebukki (ID: 16875850/0x0101814A) (Basic look)
164: 0x0A1E [0x79] Cherukiki (ID: 16875852/0x0101814C) looks at Makki-Chebukki (ID: 16875850/0x0101814A) (Basic look)
165: 0x0A28 [0x29] REQ_SET_WAIT(priority=0x08, entity_id=Makki-Chebukki (ID: 16875850/0x0101814A), tag_num=0x0A)
166: 0x0A2F [0x2B] Makki-Chebukki (ID: 16875850/0x0101814A) [7706*]:
    → "Are we alive?"
167: 0x0A36 [0x23] WAIT_FOR_DIALOG_INTERACTION
168: 0x0A37 [0x29] REQ_SET_WAIT(priority=0x08, entity_id=Makki-Chebukki (ID: 16875850/0x0101814A), tag_num=0x0B)
169: 0x0A3E [0x79] Makki-Chebukki (ID: 16875850/0x0101814A) looks at Kukki-Chebukki (ID: 16875851/0x0101814B) (Basic look)
170: 0x0A48 [0x79] Cherukiki (ID: 16875852/0x0101814C) looks at Kukki-Chebukki (ID: 16875851/0x0101814B) (Basic look)
171: 0x0A52 [0x29] REQ_SET_WAIT(priority=0x08, entity_id=Kukki-Chebukki (ID: 16875851/0x0101814B), tag_num=0x0A)
172: 0x0A59 [0x2B] Kukki-Chebukki (ID: 16875851/0x0101814B) [7707*]:
    → "Are we breathing?"
173: 0x0A60 [0x23] WAIT_FOR_DIALOG_INTERACTION
174: 0x0A61 [0x29] REQ_SET_WAIT(priority=0x08, entity_id=Kukki-Chebukki (ID: 16875851/0x0101814B), tag_num=0x0B)
175: 0x0A68 [0x79] Makki-Chebukki (ID: 16875850/0x0101814A) looks at Cherukiki (ID: 16875852/0x0101814C) (Basic look)
176: 0x0A72 [0x79] Kukki-Chebukki (ID: 16875851/0x0101814B) looks at Cherukiki (ID: 16875852/0x0101814C) (Basic look)
177: 0x0A7C [0x79] Cherukiki (ID: 16875852/0x0101814C) looks at LocalPlayer (Basic look)
178: 0x0A86 [0x1C] WAIT(60* ticks)
179: 0x0A89 [0x4A] Cherukiki (ID: 16875852/0x0101814C) looks at LocalPlayer
180: 0x0A92 [0x6F] WAIT_FRAME_DELAY: Yield until WaitTime reaches zero
181: 0x0A93 [0x76] CHECK_ENTITY_RENDER_FLAGS: Wait until Cherukiki (ID: 16875852/0x0101814C) Render.Flags0 and Render.Flags3 conditions are met
182: 0x0A98 [0x29] REQ_SET_WAIT(priority=0x08, entity_id=Cherukiki (ID: 16875852/0x0101814C), tag_num=0x03)
183: 0x0A9F [0x2B] Cherukiki (ID: 16875852/0x0101814C) [7708*]:
    → "Ack!"
184: 0x0AA6 [0x23] WAIT_FOR_DIALOG_INTERACTION
185: 0x0AA7 [0x1C] WAIT(60* ticks)
186: 0x0AAA [0x4A] Kukki-Chebukki (ID: 16875851/0x0101814B) looks at LocalPlayer
187: 0x0AB3 [0x4A] Makki-Chebukki (ID: 16875850/0x0101814A) looks at LocalPlayer
188: 0x0ABC [0x52] END_LOAD_SCHEDULER: End scheduler "s019" with entities [EventEntity, EventEntity], work=118*
189: 0x0ACB [0x45] LOAD_SCHEDULED_TASK: Load scheduler "s020" with entities [EventEntity, EventEntity], work=[118*, 0*]
190: 0x0ADC [0x27] REQ_SET(priority=0x0B, entity_id=LocalPlayer, tag_num=0x10)
191: 0x0AE3 [0x1C] WAIT(60* ticks)
192: 0x0AE6 [0x29] REQ_SET_WAIT(priority=0x08, entity_id=Kukki-Chebukki (ID: 16875851/0x0101814B), tag_num=0x0C)
193: 0x0AED [0x27] REQ_SET(priority=0x0D, entity_id=Cherukiki (ID: 16875852/0x0101814C), tag_num=0x04)
194: 0x0AF4 [0x2B] Kukki-Chebukki (ID: 16875851/0x0101814B) [7709*]:
    → "You!"
195: 0x0AFB [0x23] WAIT_FOR_DIALOG_INTERACTION
196: 0x0AFC [0x29] REQ_SET_WAIT(priority=0x08, entity_id=Kukki-Chebukki (ID: 16875851/0x0101814B), tag_num=0x0D)
197: 0x0B03 [0x2A] GET_REQ_LEVEL(level=11, entity_id=LocalPlayer)
198: 0x0B09 [0x29] REQ_SET_WAIT(priority=0x08, entity_id=Makki-Chebukki (ID: 16875850/0x0101814A), tag_num=0x0C)
199: 0x0B10 [0x2B] Makki-Chebukki (ID: 16875850/0x0101814A) [7710*]:
    → "It's <Player>, the one who angered Bahamut!"
200: 0x0B17 [0x23] WAIT_FOR_DIALOG_INTERACTION
201: 0x0B18 [0x29] REQ_SET_WAIT(priority=0x08, entity_id=Makki-Chebukki (ID: 16875850/0x0101814A), tag_num=0x0D)
202: 0x0B1F [0x2A] GET_REQ_LEVEL(level=13, entity_id=Cherukiki (ID: 16875852/0x0101814C))
203: 0x0B25 [0x4B] UPDATE_ENTITY_YAW(entity=Makki-Chebukki (ID: 16875850/0x0101814A), yaw=8.5°*)
204: 0x0B2C [0x4A] Kukki-Chebukki (ID: 16875851/0x0101814B) looks at Makki-Chebukki (ID: 16875850/0x0101814A)
205: 0x0B35 [0x4A] Cherukiki (ID: 16875852/0x0101814C) looks at Makki-Chebukki (ID: 16875850/0x0101814A)
206: 0x0B3E [0x6F] WAIT_FRAME_DELAY: Yield until WaitTime reaches zero
207: 0x0B3F [0x76] CHECK_ENTITY_RENDER_FLAGS: Wait until Makki-Chebukki (ID: 16875850/0x0101814A) Render.Flags0 and Render.Flags3 conditions are met
208: 0x0B44 [0x6F] WAIT_FRAME_DELAY: Yield until WaitTime reaches zero
209: 0x0B45 [0x76] CHECK_ENTITY_RENDER_FLAGS: Wait until Kukki-Chebukki (ID: 16875851/0x0101814B) Render.Flags0 and Render.Flags3 conditions are met
210: 0x0B4A [0x6F] WAIT_FRAME_DELAY: Yield until WaitTime reaches zero
211: 0x0B4B [0x76] CHECK_ENTITY_RENDER_FLAGS: Wait until Cherukiki (ID: 16875852/0x0101814C) Render.Flags0 and Render.Flags3 conditions are met
212: 0x0B50 [0x52] END_LOAD_SCHEDULER: End scheduler "s020" with entities [EventEntity, EventEntity], work=118*
213: 0x0B5F [0x5D] SET_MUSIC_VOLUME(volume=0*, fade_time=200*)
214: 0x0B64 [0x45] LOAD_SCHEDULED_TASK: Load scheduler "s021" with entities [EventEntity, EventEntity], work=[118*, 0*]
215: 0x0B75 [0x4A] LocalPlayer looks at Makki-Chebukki (ID: 16875850/0x0101814A)
216: 0x0B7E [0x4A] Makki-Chebukki (ID: 16875850/0x0101814A) looks at Cherukiki (ID: 16875852/0x0101814C)
217: 0x0B87 [0x7B] Kukki-Chebukki (ID: 16875851/0x0101814B) stops talking
218: 0x0B8C [0x27] REQ_SET(priority=0x0B, entity_id=Cherukiki (ID: 16875852/0x0101814C), tag_num=0x51)
219: 0x0B93 [0x2B] Cherukiki (ID: 16875852/0x0101814C) [7711*]:
    → "Run!"
220: 0x0B9A [0x23] WAIT_FOR_DIALOG_INTERACTION
221: 0x0B9B [0x1C] WAIT(30* ticks)
222: 0x0B9E [0x27] REQ_SET(priority=0x0B, entity_id=Kukki-Chebukki (ID: 16875851/0x0101814B), tag_num=0x50)
223: 0x0BA5 [0x2B] Kukki-Chebukki (ID: 16875851/0x0101814B) [7712*]:
    → "Flee!"
224: 0x0BAC [0x23] WAIT_FOR_DIALOG_INTERACTION
225: 0x0BAD [0x1C] WAIT(30* ticks)
226: 0x0BB0 [0x6F] WAIT_FRAME_DELAY: Yield until WaitTime reaches zero
227: 0x0BB1 [0x76] CHECK_ENTITY_RENDER_FLAGS: Wait until Makki-Chebukki (ID: 16875850/0x0101814A) Render.Flags0 and Render.Flags3 conditions are met
228: 0x0BB6 [0x27] REQ_SET(priority=0x0B, entity_id=Makki-Chebukki (ID: 16875850/0x0101814A), tag_num=0x4F)
229: 0x0BBD [0x1C] WAIT(60* ticks)
230: 0x0BC0 [0x2B] Makki-Chebukki (ID: 16875850/0x0101814A) [7713*]:
    → "Exit stage left!"
231: 0x0BC7 [0x23] WAIT_FOR_DIALOG_INTERACTION
232: 0x0BC8 [0x45] LOAD_SCHEDULED_TASK: Load scheduler "fdo1" with entities [LocalPlayer, LocalPlayer], work=[200*, 0*]
233: 0x0BD9 [0x1C] WAIT(60* ticks)
234: 0x0BDC [0x52] END_LOAD_SCHEDULER: End scheduler "s021" with entities [EventEntity, EventEntity], work=118*
235: 0x0BEB [0x2A] GET_REQ_LEVEL(level=11, entity_id=Cherukiki (ID: 16875852/0x0101814C))
236: 0x0BF1 [0x2A] GET_REQ_LEVEL(level=11, entity_id=Kukki-Chebukki (ID: 16875851/0x0101814B))
237: 0x0BF7 [0x2A] GET_REQ_LEVEL(level=11, entity_id=Makki-Chebukki (ID: 16875850/0x0101814A))
238: 0x0BFD [0x6F] WAIT_FRAME_DELAY: Yield until WaitTime reaches zero
239: 0x0BFE [0x76] CHECK_ENTITY_RENDER_FLAGS: Wait until LocalPlayer Render.Flags0 and Render.Flags3 conditions are met
240: 0x0C03 [0x5C] MUSIC_CONTROL: Set Idle (Day) music to song 230*
241: 0x0C07 [0x5C] MUSIC_CONTROL: Set Idle (Night) music to song 230*
242: 0x0C0B [0x5C] MUSIC_CONTROL: Set Combat (Solo) music to song 101*
243: 0x0C0F [0x5C] MUSIC_CONTROL: Set Combat (Party) music to song 219*
244: 0x0C13 [0x4E] SET_ENTITY_HIDE_FLAG: Show LocalPlayer
245: 0x0C19 [0x80] LOAD_WAIT(entity=LocalPlayer)
246: 0x0C1E [0x46] CAMERA_CONTROL: Restore default settings
247: 0x0C20 [0x45] LOAD_SCHEDULED_TASK: Load scheduler "fdi1" with entities [LocalPlayer, LocalPlayer], work=[200*, 0*]
248: 0x0C31 [0x20] SET_CLI_EVENT_UC_FLAG: Unlock player control
249: 0x0C33 [0x21] END_EVENT
250: 0x0C34 [0x00] END_REQSTACK()
```

### Event 4

#### Metadata

| Field        | Value      |
|--------------|------------|
| Entrypoint   | 0x0C35     |
| Data Size    | 1841 bytes |
| Instructions | 266        |

```
      00 01 02 03 04 05 06 07  08 09 0A 0B 0C 0D 0E 0F
      -- -- -- -- -- -- -- --  -- -- -- -- -- -- -- --
0C30:                20 01 42  46 01 1C 01 80 38 02 80        .BF....8..
0C40: 29 08 F0 FF FF 7F 04 4E  00 F0 FF FF 7F 4E 00 4F  )......N.....N.O
0C50: 81 01 01 4E 00 50 81 01  01 80 F0 FF FF 7F 80 4F  ...N.P.........O
0C60: 81 01 01 80 50 81 01 01  29 0B 4F 81 01 01 36 29  ....P...).O...6)
0C70: 0B 50 81 01 01 1A 29 0B  F0 FF FF 7F 11 4E 01 F0  .P....)......N..
0C80: FF FF 7F 92 01 4F 81 01  01 92 01 50 81 01 01 27  .....O.....P...'
0C90: 0B 4F 81 01 01 37 27 0B  50 81 01 01 1B 5C 00 32  .O...7'.P....\.2
0CA0: 80 5C 01 32 80 45 42 80  F8 FF FF 7F F8 FF FF 7F  .\.2.EB.........
0CB0: 73 30 39 30 00 80 45 07  80 F8 FF FF 7F F8 FF FF  s090..E.........
0CC0: 7F 66 64 69 31 00 80 1C  07 80 52 42 80 F8 FF FF  .fdi1.....RB....
0CD0: 7F F8 FF FF 7F 73 30 39  30 45 07 80 F0 FF FF 7F  .....s090E......
0CE0: F0 FF FF 7F 6F 76 6C 31  00 80 45 42 80 F8 FF FF  ....ovl1..EB....
0CF0: 7F F8 FF FF 7F 73 30 39  31 00 80 2A 0B 4F 81 01  .....s091..*.O..
0D00: 01 4A 4F 81 01 01 50 81  01 01 6F 76 4F 81 01 01  .JO...P...ovO...
0D10: 29 08 4F 81 01 01 0D 2B  4F 81 01 01 43 80 23 29  ).O....+O...C.#)
0D20: 08 4F 81 01 01 0E 29 08  4F 81 01 01 0F 2B 4F 81  .O....).O....+O.
0D30: 01 01 44 80 23 29 08 4F  81 01 01 10 2A 0B 50 81  ..D.#).O....*.P.
0D40: 01 01 52 42 80 F8 FF FF  7F F8 FF FF 7F 73 30 39  ..RB.........s09
0D50: 31 45 42 80 F8 FF FF 7F  F8 FF FF 7F 73 30 39 32  1EB.........s092
0D60: 00 80 2B 50 81 01 01 45  80 23 29 08 50 81 01 01  ..+P...E.#).P...
0D70: 05 2B 50 81 01 01 46 80  23 29 08 50 81 01 01 06  .+P...F.#).P....
0D80: 52 42 80 F8 FF FF 7F F8  FF FF 7F 73 30 39 32 45  RB.........s092E
0D90: 42 80 F8 FF FF 7F F8 FF  FF 7F 73 30 39 33 00 80  B.........s093..
0DA0: 29 08 50 81 01 01 07 2B  50 81 01 01 47 80 23 29  ).P....+P...G.#)
0DB0: 08 50 81 01 01 08 29 08  50 81 01 01 11 2B 50 81  .P....).P....+P.
0DC0: 01 01 48 80 23 29 08 50  81 01 01 12 29 08 50 81  ..H.#).P....).P.
0DD0: 01 01 13 2B 50 81 01 01  49 80 23 29 08 50 81 01  ...+P...I.#).P..
0DE0: 01 14 52 42 80 F8 FF FF  7F F8 FF FF 7F 73 30 39  ..RB.........s09
0DF0: 33 45 42 80 F8 FF FF 7F  F8 FF FF 7F 73 30 39 34  3EB.........s094
0E00: 00 80 29 08 4F 81 01 01  23 2B 4F 81 01 01 4A 80  ..).O...#+O...J.
0E10: 23 2B 4F 81 01 01 4B 80  23 29 08 4F 81 01 01 24  #+O...K.#).O...$
0E20: 52 42 80 F8 FF FF 7F F8  FF FF 7F 73 30 39 34 45  RB.........s094E
0E30: 42 80 F8 FF FF 7F F8 FF  FF 7F 73 30 39 35 00 80  B.........s095..
0E40: 4E 00 F0 FF FF 7F 29 08  4F 81 01 01 25 2B 4F 81  N.....).O...%+O.
0E50: 01 01 4C 80 23 29 08 4F  81 01 01 26 29 08 50 81  ..L.#).O...&).P.
0E60: 01 01 01 2B 50 81 01 01  4D 80 23 2B 50 81 01 01  ...+P...M.#+P...
0E70: 4E 80 23 29 08 50 81 01  01 02 80 F0 FF FF 7F 79  N.#).P.........y
0E80: 00 F0 FF FF 7F 4F 81 01  01 27 0B F0 FF FF 7F 12  .....O...'......
0E90: 1C 18 80 52 42 80 F8 FF  FF 7F F8 FF FF 7F 73 30  ...RB.........s0
0EA0: 39 35 45 42 80 F8 FF FF  7F F8 FF FF 7F 73 30 39  95EB.........s09
0EB0: 36 00 80 79 00 4F 81 01  01 F0 FF FF 7F 29 08 50  6..y.O.......).P
0EC0: 81 01 01 03 29 08 50 81  01 01 04 4A 50 81 01 01  ....).P....JP...
0ED0: F0 FF FF 7F 6F 76 50 81  01 01 1C 05 80 4A 4F 81  ....ovP......JO.
0EE0: 01 01 F0 FF FF 7F 6F 76  4F 81 01 01 52 42 80 F8  ......ovO...RB..
0EF0: FF FF 7F F8 FF FF 7F 73  30 39 36 45 07 80 F0 FF  .......s096E....
0F00: FF 7F F0 FF FF 7F 6F 76  6C 31 00 80 02 09 10 0B  ......ovl1......
0F10: 80 00 28 0F 45 42 80 F8  FF FF 7F F8 FF FF 7F 73  ..(.EB.........s
0F20: 31 30 32 00 80 01 8D 0F  02 09 10 2E 80 00 44 0F  102...........D.
0F30: 45 42 80 F8 FF FF 7F F8  FF FF 7F 73 31 30 33 00  EB.........s103.
0F40: 80 01 8D 0F 02 09 10 2F  80 00 60 0F 45 42 80 F8  ......./..`.EB..
0F50: FF FF 7F F8 FF FF 7F 73  31 30 33 00 80 01 8D 0F  .......s103.....
0F60: 02 09 10 30 80 00 7C 0F  45 42 80 F8 FF FF 7F F8  ...0..|.EB......
0F70: FF FF 7F 73 31 30 32 00  80 01 8D 0F 45 42 80 F8  ...s102.....EB..
0F80: FF FF 7F F8 FF FF 7F 73  30 39 37 00 80 4A 50 81  .......s097..JP.
0F90: 01 01 F0 FF FF 7F 2A 0B  F0 FF FF 7F 29 08 4F 81  ......*.....).O.
0FA0: 01 01 01 2B 4F 81 01 01  4F 80 23 6F 76 50 81 01  ...+O...O.#ovP..
0FB0: 01 24 50 80 00 80 00 80  25 02 00 10 00 80 00 F3  .$P.....%.......
0FC0: 0F 03 01 10 08 80 79 00  4F 81 01 01 50 81 01 01  ......y.O...P...
0FD0: 79 00 F0 FF FF 7F 50 81  01 01 29 08 50 81 01 01  y.....P...).P...
0FE0: 11 2B 50 81 01 01 51 80  23 29 08 50 81 01 01 12  .+P...Q.#).P....
0FF0: 01 2D 10 02 00 10 08 80  00 2D 10 03 01 10 04 80  .-.......-......
1000: 79 00 4F 81 01 01 50 81  01 01 79 00 F0 FF FF 7F  y.O...P...y.....
1010: 50 81 01 01 29 08 50 81  01 01 11 2B 50 81 01 01  P...).P....+P...
1020: 52 80 23 29 08 50 81 01  01 12 01 2D 10 29 08 4F  R.#).P.....-.).O
1030: 81 01 01 02 29 08 4F 81  01 01 03 29 08 50 81 01  ....).O....).P..
1040: 01 13 2B 50 81 01 01 53  80 23 29 08 50 81 01 01  ..+P...S.#).P...
1050: 14 02 09 10 0B 80 00 6B  10 52 42 80 F8 FF FF 7F  .......k.RB.....
1060: F8 FF FF 7F 73 31 30 32  01 C8 10 02 09 10 2E 80  ....s102........
1070: 00 85 10 52 42 80 F8 FF  FF 7F F8 FF FF 7F 73 31  ...RB.........s1
1080: 30 33 01 C8 10 02 09 10  2F 80 00 9F 10 52 42 80  03....../....RB.
1090: F8 FF FF 7F F8 FF FF 7F  73 31 30 33 01 C8 10 02  ........s103....
10A0: 09 10 30 80 00 B9 10 52  42 80 F8 FF FF 7F F8 FF  ..0....RB.......
10B0: FF 7F 73 31 30 32 01 C8  10 52 42 80 F8 FF FF 7F  ..s102...RB.....
10C0: F8 FF FF 7F 73 30 39 37  45 42 80 F8 FF FF 7F F8  ....s097EB......
10D0: FF FF 7F 73 30 39 38 00  80 79 00 F0 FF FF 7F 4F  ...s098..y.....O
10E0: 81 01 01 4A 50 81 01 01  4F 81 01 01 29 08 4F 81  ...JP...O...).O.
10F0: 01 01 04 29 08 4F 81 01  01 27 2B 4F 81 01 01 54  ...).O...'+O...T
1100: 80 23 29 08 4F 81 01 01  28 79 00 4F 81 01 01 F0  .#).O...(y.O....
1110: FF FF 7F 29 08 4F 81 01  01 29 2B 4F 81 01 01 55  ...).O...)+O...U
1120: 80 23 29 08 4F 81 01 01  2A 4A 50 81 01 01 F0 FF  .#).O...*JP.....
1130: FF 7F 03 02 00 00 80 02  02 00 00 80 00 95 11 24  ...............$
1140: 56 80 00 80 00 80 25 02  00 10 00 80 00 62 11 03  V.....%......b..
1150: 01 10 08 80 2B 4F 81 01  01 57 80 23 48 58 80 01  ....+O...W.#HX..
1160: 92 11 02 00 10 08 80 00  77 11 03 01 10 04 80 03  ........w.......
1170: 02 00 08 80 01 92 11 02  00 10 04 80 00 92 11 03  ................
1180: 01 10 0B 80 2B 4F 81 01  01 57 80 23 48 58 80 01  ....+O...W.#HX..
1190: 92 11 01 37 11 6F 76 50  81 01 01 52 42 80 F8 FF  ...7.ovP...RB...
11A0: FF 7F F8 FF FF 7F 73 30  39 38 45 42 80 F8 FF FF  ......s098EB....
11B0: 7F F8 FF FF 7F 73 30 39  39 00 80 4A 50 81 01 01  .....s099..JP...
11C0: 4F 81 01 01 7B 4F 81 01  01 29 08 4F 81 01 01 2C  O...{O...).O...,
11D0: 2B 4F 81 01 01 59 80 23  29 08 4F 81 01 01 2D 29  +O...Y.#).O...-)
11E0: 08 4F 81 01 01 23 2B 4F  81 01 01 5A 80 23 29 08  .O...#+O...Z.#).
11F0: 4F 81 01 01 24 6F 76 50  81 01 01 52 42 80 F8 FF  O...$ovP...RB...
1200: FF 7F F8 FF FF 7F 73 30  39 39 45 42 80 F8 FF FF  ......s099EB....
1210: 7F F8 FF FF 7F 73 31 30  30 00 80 29 08 4F 81 01  .....s100..).O..
1220: 01 25 29 08 4F 81 01 01  26 27 0B 4F 81 01 01 38  .%).O...&'.O...8
1230: 4A 50 81 01 01 4F 81 01  01 6F 76 50 81 01 01 29  JP...O...ovP...)
1240: 08 50 81 01 01 05 1C 18  80 4A F0 FF FF 7F 4F 81  .P.......J....O.
1250: 01 01 1C 18 80 1C 18 80  2B 50 81 01 01 5B 80 23  ........+P...[.#
1260: 29 08 50 81 01 01 06 29  08 50 81 01 01 07 29 08  ).P....).P....).
1270: 50 81 01 01 08 1C 18 80  52 42 80 F8 FF FF 7F F8  P.......RB......
1280: FF FF 7F 73 31 30 30 45  42 80 F8 FF FF 7F F8 FF  ...s100EB.......
1290: FF 7F 73 31 30 31 00 80  4A 50 81 01 01 F0 FF FF  ..s101..JP......
12A0: 7F 6F 76 50 81 01 01 29  08 50 81 01 01 11 2B 50  .ovP...).P....+P
12B0: 81 01 01 5C 80 23 29 08  50 81 01 01 12 29 08 50  ...\.#).P....).P
12C0: 81 01 01 13 2B 50 81 01  01 5D 80 23 29 08 50 81  ....+P...].#).P.
12D0: 01 01 14 52 42 80 F8 FF  FF 7F F8 FF FF 7F 73 31  ...RB.........s1
12E0: 30 31 5D 00 80 07 80 45  42 80 F8 FF FF 7F F8 FF  01]....EB.......
12F0: FF 7F 73 31 30 30 00 80  1C 18 80 27 0B 50 81 01  ..s100.....'.P..
1300: 01 1C 1C 01 80 45 07 80  F0 FF FF 7F F0 FF FF 7F  .....E..........
1310: 66 64 6F 31 00 80 1C 1F  80 52 42 80 F8 FF FF 7F  fdo1.....RB.....
1320: F8 FF FF 7F 73 31 30 30  2A 0B 4F 81 01 01 2A 0B  ....s100*.O...*.
1330: 50 81 01 01 5C 00 27 80  5C 01 27 80 5C 02 28 80  P...\.'.\.'.\.(.
1340: 5C 03 29 80 4E 00 F0 FF  FF 7F 80 F0 FF FF 7F 46  \.).N..........F
1350: 00 45 07 80 F0 FF FF 7F  F0 FF FF 7F 66 64 69 31  .E..........fdi1
1360: 00 80 20 00 21 00                                 .. .!.          
```

#### Opcodes

```
  0: 0x0C35 [0x20] SET_CLI_EVENT_UC_FLAG: Lock player control
  1: 0x0C37 [0x42] SET_CLI_EVENT_CANCEL_DATA()
  2: 0x0C38 [0x46] CAMERA_CONTROL: Disable user control
  3: 0x0C3A [0x1C] WAIT(60* ticks)
  4: 0x0C3D [0x38] SET_CLIENT_EVENT_MODE(mode=19*)
  5: 0x0C40 [0x29] REQ_SET_WAIT(priority=0x08, entity_id=LocalPlayer, tag_num=0x04)
  6: 0x0C47 [0x4E] SET_ENTITY_HIDE_FLAG: Show LocalPlayer
  7: 0x0C4D [0x4E] SET_ENTITY_HIDE_FLAG: Show Sanctia (ID: 16875855/0x0101814F)
  8: 0x0C53 [0x4E] SET_ENTITY_HIDE_FLAG: Show Novice Moogle (ID: 16875856/0x01018150)
  9: 0x0C59 [0x80] LOAD_WAIT(entity=LocalPlayer)
 10: 0x0C5E [0x80] LOAD_WAIT(entity=Sanctia (ID: 16875855/0x0101814F))
 11: 0x0C63 [0x80] LOAD_WAIT(entity=Novice Moogle (ID: 16875856/0x01018150))
 12: 0x0C68 [0x29] REQ_SET_WAIT(priority=0x0B, entity_id=Sanctia (ID: 16875855/0x0101814F), tag_num=0x36)
 13: 0x0C6F [0x29] REQ_SET_WAIT(priority=0x0B, entity_id=Novice Moogle (ID: 16875856/0x01018150), tag_num=0x1A)
 14: 0x0C76 [0x29] REQ_SET_WAIT(priority=0x0B, entity_id=LocalPlayer, tag_num=0x11)
 15: 0x0C7D [0x4E] SET_ENTITY_HIDE_FLAG: Hide LocalPlayer
 16: 0x0C83 [0x92] Sanctia (ID: 16875855/0x0101814F)->Render.Flags3 ^= 0x01
 17: 0x0C89 [0x92] Novice Moogle (ID: 16875856/0x01018150)->Render.Flags3 ^= 0x01
 18: 0x0C8F [0x27] REQ_SET(priority=0x0B, entity_id=Sanctia (ID: 16875855/0x0101814F), tag_num=0x37)
 19: 0x0C96 [0x27] REQ_SET(priority=0x0B, entity_id=Novice Moogle (ID: 16875856/0x01018150), tag_num=0x1B)
 20: 0x0C9D [0x5C] MUSIC_CONTROL: Set Idle (Day) music to song 163*
 21: 0x0CA1 [0x5C] MUSIC_CONTROL: Set Idle (Night) music to song 163*
 22: 0x0CA5 [0x45] LOAD_SCHEDULED_TASK: Load scheduler "s090" with entities [EventEntity, EventEntity], work=[175*, 0*]
 23: 0x0CB6 [0x45] LOAD_SCHEDULED_TASK: Load scheduler "fdi1" with entities [EventEntity, EventEntity], work=[200*, 0*]
 24: 0x0CC7 [0x1C] WAIT(200* ticks)
 25: 0x0CCA [0x52] END_LOAD_SCHEDULER: End scheduler "s090" with entities [EventEntity, EventEntity], work=175*
 26: 0x0CD9 [0x45] LOAD_SCHEDULED_TASK: Load scheduler "ovl1" with entities [LocalPlayer, LocalPlayer], work=[200*, 0*]
 27: 0x0CEA [0x45] LOAD_SCHEDULED_TASK: Load scheduler "s091" with entities [EventEntity, EventEntity], work=[175*, 0*]
 28: 0x0CFB [0x2A] GET_REQ_LEVEL(level=11, entity_id=Sanctia (ID: 16875855/0x0101814F))
 29: 0x0D01 [0x4A] Sanctia (ID: 16875855/0x0101814F) looks at Novice Moogle (ID: 16875856/0x01018150)
 30: 0x0D0A [0x6F] WAIT_FRAME_DELAY: Yield until WaitTime reaches zero
 31: 0x0D0B [0x76] CHECK_ENTITY_RENDER_FLAGS: Wait until Sanctia (ID: 16875855/0x0101814F) Render.Flags0 and Render.Flags3 conditions are met
 32: 0x0D10 [0x29] REQ_SET_WAIT(priority=0x08, entity_id=Sanctia (ID: 16875855/0x0101814F), tag_num=0x0D)
 33: 0x0D17 [0x2B] Sanctia (ID: 16875855/0x0101814F) [7759*]:
    → "Wow, I can't believe how much time has passed already."
 34: 0x0D1E [0x23] WAIT_FOR_DIALOG_INTERACTION
 35: 0x0D1F [0x29] REQ_SET_WAIT(priority=0x08, entity_id=Sanctia (ID: 16875855/0x0101814F), tag_num=0x0E)
 36: 0x0D26 [0x29] REQ_SET_WAIT(priority=0x08, entity_id=Sanctia (ID: 16875855/0x0101814F), tag_num=0x0F)
 37: 0x0D2D [0x2B] Sanctia (ID: 16875855/0x0101814F) [7760*]:
    → "It feels like we only just jumped into that weird, swirling thingy."
 38: 0x0D34 [0x23] WAIT_FOR_DIALOG_INTERACTION
 39: 0x0D35 [0x29] REQ_SET_WAIT(priority=0x08, entity_id=Sanctia (ID: 16875855/0x0101814F), tag_num=0x10)
 40: 0x0D3C [0x2A] GET_REQ_LEVEL(level=11, entity_id=Novice Moogle (ID: 16875856/0x01018150))
 41: 0x0D42 [0x52] END_LOAD_SCHEDULER: End scheduler "s091" with entities [EventEntity, EventEntity], work=175*
 42: 0x0D51 [0x45] LOAD_SCHEDULED_TASK: Load scheduler "s092" with entities [EventEntity, EventEntity], work=[175*, 0*]
 43: 0x0D62 [0x2B] Novice Moogle (ID: 16875856/0x01018150) [7761*]:
    → "Sanctia, that "weird, swirling thingy" is a manifestation of the Emptiness, kupopo!"
 44: 0x0D69 [0x23] WAIT_FOR_DIALOG_INTERACTION
 45: 0x0D6A [0x29] REQ_SET_WAIT(priority=0x08, entity_id=Novice Moogle (ID: 16875856/0x01018150), tag_num=0x05)
 46: 0x0D71 [0x2B] Novice Moogle (ID: 16875856/0x01018150) [7762*]:
    → "If I hadn't been there, you'd still be swimming in oblivion. You have no idea how dangerous that was, kupopo!"
 47: 0x0D78 [0x23] WAIT_FOR_DIALOG_INTERACTION
 48: 0x0D79 [0x29] REQ_SET_WAIT(priority=0x08, entity_id=Novice Moogle (ID: 16875856/0x01018150), tag_num=0x06)
 49: 0x0D80 [0x52] END_LOAD_SCHEDULER: End scheduler "s092" with entities [EventEntity, EventEntity], work=175*
 50: 0x0D8F [0x45] LOAD_SCHEDULED_TASK: Load scheduler "s093" with entities [EventEntity, EventEntity], work=[175*, 0*]
 51: 0x0DA0 [0x29] REQ_SET_WAIT(priority=0x08, entity_id=Novice Moogle (ID: 16875856/0x01018150), tag_num=0x07)
 52: 0x0DA7 [0x2B] Novice Moogle (ID: 16875856/0x01018150) [7763*]:
    → "There are so many scary places in Vana'diel these days. I don't know why people leave their Mog Houses at all, kupopo!"
 53: 0x0DAE [0x23] WAIT_FOR_DIALOG_INTERACTION
 54: 0x0DAF [0x29] REQ_SET_WAIT(priority=0x08, entity_id=Novice Moogle (ID: 16875856/0x01018150), tag_num=0x08)
 55: 0x0DB6 [0x29] REQ_SET_WAIT(priority=0x08, entity_id=Novice Moogle (ID: 16875856/0x01018150), tag_num=0x11)
 56: 0x0DBD [0x2B] Novice Moogle (ID: 16875856/0x01018150) [7764*]:
    → "As thanks for helping me out in the Sea Serpent Grotto, I'll take you home to Rabao now, kupopo."
 57: 0x0DC4 [0x23] WAIT_FOR_DIALOG_INTERACTION
 58: 0x0DC5 [0x29] REQ_SET_WAIT(priority=0x08, entity_id=Novice Moogle (ID: 16875856/0x01018150), tag_num=0x12)
 59: 0x0DCC [0x29] REQ_SET_WAIT(priority=0x08, entity_id=Novice Moogle (ID: 16875856/0x01018150), tag_num=0x13)
 60: 0x0DD3 [0x2B] Novice Moogle (ID: 16875856/0x01018150) [7765*]:
    → "We should set off right away. Your mom and dad must be frantic with worry, kupopo."
 61: 0x0DDA [0x23] WAIT_FOR_DIALOG_INTERACTION
 62: 0x0DDB [0x29] REQ_SET_WAIT(priority=0x08, entity_id=Novice Moogle (ID: 16875856/0x01018150), tag_num=0x14)
 63: 0x0DE2 [0x52] END_LOAD_SCHEDULER: End scheduler "s093" with entities [EventEntity, EventEntity], work=175*
 64: 0x0DF1 [0x45] LOAD_SCHEDULED_TASK: Load scheduler "s094" with entities [EventEntity, EventEntity], work=[175*, 0*]
 65: 0x0E02 [0x29] REQ_SET_WAIT(priority=0x08, entity_id=Sanctia (ID: 16875855/0x0101814F), tag_num=0x23)
 66: 0x0E09 [0x2B] Sanctia (ID: 16875855/0x0101814F) [7766*]:
    → "I'm not going back. I've made up my mind."
 67: 0x0E10 [0x23] WAIT_FOR_DIALOG_INTERACTION
 68: 0x0E11 [0x2B] Sanctia (ID: 16875855/0x0101814F) [7767*]:
    → "I'm going to become a fearless bounty hunter, and leave the poor, fragile, little me behind forever."
 69: 0x0E18 [0x23] WAIT_FOR_DIALOG_INTERACTION
 70: 0x0E19 [0x29] REQ_SET_WAIT(priority=0x08, entity_id=Sanctia (ID: 16875855/0x0101814F), tag_num=0x24)
 71: 0x0E20 [0x52] END_LOAD_SCHEDULER: End scheduler "s094" with entities [EventEntity, EventEntity], work=175*
 72: 0x0E2F [0x45] LOAD_SCHEDULED_TASK: Load scheduler "s095" with entities [EventEntity, EventEntity], work=[175*, 0*]
 73: 0x0E40 [0x4E] SET_ENTITY_HIDE_FLAG: Show LocalPlayer
 74: 0x0E46 [0x29] REQ_SET_WAIT(priority=0x08, entity_id=Sanctia (ID: 16875855/0x0101814F), tag_num=0x25)
 75: 0x0E4D [0x2B] Sanctia (ID: 16875855/0x0101814F) [7768*]:
    → "And besides, Papa probably hasn't even noticed I'm gone. He didn't even remember my birthday."
 76: 0x0E54 [0x23] WAIT_FOR_DIALOG_INTERACTION
 77: 0x0E55 [0x29] REQ_SET_WAIT(priority=0x08, entity_id=Sanctia (ID: 16875855/0x0101814F), tag_num=0x26)
 78: 0x0E5C [0x29] REQ_SET_WAIT(priority=0x08, entity_id=Novice Moogle (ID: 16875856/0x01018150), tag_num=0x01)
 79: 0x0E63 [0x2B] Novice Moogle (ID: 16875856/0x01018150) [7769*]:
    → "That's not true, kupopo!"
 80: 0x0E6A [0x23] WAIT_FOR_DIALOG_INTERACTION
 81: 0x0E6B [0x2B] Novice Moogle (ID: 16875856/0x01018150) [7770*]:
    → "There was an adventurer in Norg who came looking for you, kupopo."
 82: 0x0E72 [0x23] WAIT_FOR_DIALOG_INTERACTION
 83: 0x0E73 [0x29] REQ_SET_WAIT(priority=0x08, entity_id=Novice Moogle (ID: 16875856/0x01018150), tag_num=0x02)
 84: 0x0E7A [0x80] LOAD_WAIT(entity=LocalPlayer)
 85: 0x0E7F [0x79] LocalPlayer looks at Sanctia (ID: 16875855/0x0101814F) (Basic look)
 86: 0x0E89 [0x27] REQ_SET(priority=0x0B, entity_id=LocalPlayer, tag_num=0x12)
 87: 0x0E90 [0x1C] WAIT(30* ticks)
 88: 0x0E93 [0x52] END_LOAD_SCHEDULER: End scheduler "s095" with entities [EventEntity, EventEntity], work=175*
 89: 0x0EA2 [0x45] LOAD_SCHEDULED_TASK: Load scheduler "s096" with entities [EventEntity, EventEntity], work=[175*, 0*]
 90: 0x0EB3 [0x79] Sanctia (ID: 16875855/0x0101814F) looks at LocalPlayer (Basic look)
 91: 0x0EBD [0x29] REQ_SET_WAIT(priority=0x08, entity_id=Novice Moogle (ID: 16875856/0x01018150), tag_num=0x03)
 92: 0x0EC4 [0x29] REQ_SET_WAIT(priority=0x08, entity_id=Novice Moogle (ID: 16875856/0x01018150), tag_num=0x04)
 93: 0x0ECB [0x4A] Novice Moogle (ID: 16875856/0x01018150) looks at LocalPlayer
 94: 0x0ED4 [0x6F] WAIT_FRAME_DELAY: Yield until WaitTime reaches zero
 95: 0x0ED5 [0x76] CHECK_ENTITY_RENDER_FLAGS: Wait until Novice Moogle (ID: 16875856/0x01018150) Render.Flags0 and Render.Flags3 conditions are met
 96: 0x0EDA [0x1C] WAIT(100* ticks)
 97: 0x0EDD [0x4A] Sanctia (ID: 16875855/0x0101814F) looks at LocalPlayer
 98: 0x0EE6 [0x6F] WAIT_FRAME_DELAY: Yield until WaitTime reaches zero
 99: 0x0EE7 [0x76] CHECK_ENTITY_RENDER_FLAGS: Wait until Sanctia (ID: 16875855/0x0101814F) Render.Flags0 and Render.Flags3 conditions are met
100: 0x0EEC [0x52] END_LOAD_SCHEDULER: End scheduler "s096" with entities [EventEntity, EventEntity], work=175*
101: 0x0EFB [0x45] LOAD_SCHEDULED_TASK: Load scheduler "ovl1" with entities [LocalPlayer, LocalPlayer], work=[200*, 0*]
102: 0x0F0C [0x02] IF !(Work_Zone[9] == 3*) GOTO 0x0F28
103: 0x0F14 [0x45] LOAD_SCHEDULED_TASK: Load scheduler "s102" with entities [EventEntity, EventEntity], work=[175*, 0*]
104: 0x0F25 [0x01] GOTO 0x0F8D
105: 0x0F28 [0x02] IF !(Work_Zone[9] == 5*) GOTO 0x0F44
106: 0x0F30 [0x45] LOAD_SCHEDULED_TASK: Load scheduler "s103" with entities [EventEntity, EventEntity], work=[175*, 0*]
107: 0x0F41 [0x01] GOTO 0x0F8D
108: 0x0F44 [0x02] IF !(Work_Zone[9] == 6*) GOTO 0x0F60
109: 0x0F4C [0x45] LOAD_SCHEDULED_TASK: Load scheduler "s103" with entities [EventEntity, EventEntity], work=[175*, 0*]
110: 0x0F5D [0x01] GOTO 0x0F8D
111: 0x0F60 [0x02] IF !(Work_Zone[9] == 8*) GOTO 0x0F7C
112: 0x0F68 [0x45] LOAD_SCHEDULED_TASK: Load scheduler "s102" with entities [EventEntity, EventEntity], work=[175*, 0*]
113: 0x0F79 [0x01] GOTO 0x0F8D
114: 0x0F7C [0x45] LOAD_SCHEDULED_TASK: Load scheduler "s097" with entities [EventEntity, EventEntity], work=[175*, 0*]

SUBROUTINE_0F8D:
115: 0x0F8D [0x4A] Novice Moogle (ID: 16875856/0x01018150) looks at LocalPlayer
116: 0x0F96 [0x2A] GET_REQ_LEVEL(level=11, entity_id=LocalPlayer)
117: 0x0F9C [0x29] REQ_SET_WAIT(priority=0x08, entity_id=Sanctia (ID: 16875855/0x0101814F), tag_num=0x01)
118: 0x0FA3 [0x2B] Sanctia (ID: 16875855/0x0101814F) [7771*]:
    → "Oh? Are you the one he's talking about?"
119: 0x0FAA [0x23] WAIT_FOR_DIALOG_INTERACTION
120: 0x0FAB [0x6F] WAIT_FRAME_DELAY: Yield until WaitTime reaches zero
121: 0x0FAC [0x76] CHECK_ENTITY_RENDER_FLAGS: Wait until Novice Moogle (ID: 16875856/0x01018150) Render.Flags0 and Render.Flags3 conditions are met
122: 0x0FB1 [0x24] CREATE_DIALOG(message_id=7772*, default_option=0*, option_flags=0*)
    → "Were you searching for Sanctia? [That's why I'm here./Just passing through...]"
123: 0x0FB8 [0x25] WAIT_DIALOG_SELECT()
124: 0x0FB9 [0x02] IF !(Work_Zone[0] == 0*) GOTO 0x0FF3
125: 0x0FC1 [0x03] Work_Zone[1] = 1*
126: 0x0FC6 [0x79] Sanctia (ID: 16875855/0x0101814F) looks at Novice Moogle (ID: 16875856/0x01018150) (Basic look)
127: 0x0FD0 [0x79] LocalPlayer looks at Novice Moogle (ID: 16875856/0x01018150) (Basic look)
128: 0x0FDA [0x29] REQ_SET_WAIT(priority=0x08, entity_id=Novice Moogle (ID: 16875856/0x01018150), tag_num=0x11)
129: 0x0FE1 [0x2B] Novice Moogle (ID: 16875856/0x01018150) [7773*]:
    → "See, I told you! What perfect timing, kupopo!"
130: 0x0FE8 [0x23] WAIT_FOR_DIALOG_INTERACTION
131: 0x0FE9 [0x29] REQ_SET_WAIT(priority=0x08, entity_id=Novice Moogle (ID: 16875856/0x01018150), tag_num=0x12)
132: 0x0FF0 [0x01] GOTO 0x102D
133: 0x0FF3 [0x02] IF !(Work_Zone[0] == 1*) GOTO 0x102D
134: 0x0FFB [0x03] Work_Zone[1] = 2*
135: 0x1000 [0x79] Sanctia (ID: 16875855/0x0101814F) looks at Novice Moogle (ID: 16875856/0x01018150) (Basic look)
136: 0x100A [0x79] LocalPlayer looks at Novice Moogle (ID: 16875856/0x01018150) (Basic look)
137: 0x1014 [0x29] REQ_SET_WAIT(priority=0x08, entity_id=Novice Moogle (ID: 16875856/0x01018150), tag_num=0x11)
138: 0x101B [0x2B] Novice Moogle (ID: 16875856/0x01018150) [7774*]:
    → "I bet [he/she] was asked to lie about [his/her] mission, kupopo!"
139: 0x1022 [0x23] WAIT_FOR_DIALOG_INTERACTION
140: 0x1023 [0x29] REQ_SET_WAIT(priority=0x08, entity_id=Novice Moogle (ID: 16875856/0x01018150), tag_num=0x12)
141: 0x102A [0x01] GOTO 0x102D

SUBROUTINE_102D:
142: 0x102D [0x29] REQ_SET_WAIT(priority=0x08, entity_id=Sanctia (ID: 16875855/0x0101814F), tag_num=0x02)
143: 0x1034 [0x29] REQ_SET_WAIT(priority=0x08, entity_id=Sanctia (ID: 16875855/0x0101814F), tag_num=0x03)
144: 0x103B [0x29] REQ_SET_WAIT(priority=0x08, entity_id=Novice Moogle (ID: 16875856/0x01018150), tag_num=0x13)
145: 0x1042 [0x2B] Novice Moogle (ID: 16875856/0x01018150) [7775*]:
    → "This is the adventurer your dad hired to find you, kupopo!"
146: 0x1049 [0x23] WAIT_FOR_DIALOG_INTERACTION
147: 0x104A [0x29] REQ_SET_WAIT(priority=0x08, entity_id=Novice Moogle (ID: 16875856/0x01018150), tag_num=0x14)
148: 0x1051 [0x02] IF !(Work_Zone[9] == 3*) GOTO 0x106B
149: 0x1059 [0x52] END_LOAD_SCHEDULER: End scheduler "s102" with entities [EventEntity, EventEntity], work=175*
150: 0x1068 [0x01] GOTO 0x10C8
151: 0x106B [0x02] IF !(Work_Zone[9] == 5*) GOTO 0x1085
152: 0x1073 [0x52] END_LOAD_SCHEDULER: End scheduler "s103" with entities [EventEntity, EventEntity], work=175*
153: 0x1082 [0x01] GOTO 0x10C8
154: 0x1085 [0x02] IF !(Work_Zone[9] == 6*) GOTO 0x109F
155: 0x108D [0x52] END_LOAD_SCHEDULER: End scheduler "s103" with entities [EventEntity, EventEntity], work=175*
156: 0x109C [0x01] GOTO 0x10C8
157: 0x109F [0x02] IF !(Work_Zone[9] == 8*) GOTO 0x10B9
158: 0x10A7 [0x52] END_LOAD_SCHEDULER: End scheduler "s102" with entities [EventEntity, EventEntity], work=175*
159: 0x10B6 [0x01] GOTO 0x10C8
160: 0x10B9 [0x52] END_LOAD_SCHEDULER: End scheduler "s097" with entities [EventEntity, EventEntity], work=175*

SUBROUTINE_10C8:
161: 0x10C8 [0x45] LOAD_SCHEDULED_TASK: Load scheduler "s098" with entities [EventEntity, EventEntity], work=[175*, 0*]
162: 0x10D9 [0x79] LocalPlayer looks at Sanctia (ID: 16875855/0x0101814F) (Basic look)
163: 0x10E3 [0x4A] Novice Moogle (ID: 16875856/0x01018150) looks at Sanctia (ID: 16875855/0x0101814F)
164: 0x10EC [0x29] REQ_SET_WAIT(priority=0x08, entity_id=Sanctia (ID: 16875855/0x0101814F), tag_num=0x04)
165: 0x10F3 [0x29] REQ_SET_WAIT(priority=0x08, entity_id=Sanctia (ID: 16875855/0x0101814F), tag_num=0x27)
166: 0x10FA [0x2B] Sanctia (ID: 16875855/0x0101814F) [7776*]:
    → "Where would Papa get the money to hire anyone?"
167: 0x1101 [0x23] WAIT_FOR_DIALOG_INTERACTION
168: 0x1102 [0x29] REQ_SET_WAIT(priority=0x08, entity_id=Sanctia (ID: 16875855/0x0101814F), tag_num=0x28)
169: 0x1109 [0x79] Sanctia (ID: 16875855/0x0101814F) looks at LocalPlayer (Basic look)
170: 0x1113 [0x29] REQ_SET_WAIT(priority=0x08, entity_id=Sanctia (ID: 16875855/0x0101814F), tag_num=0x29)
171: 0x111A [0x2B] Sanctia (ID: 16875855/0x0101814F) [7777*]:
    → "Adventurer, who sent you to find me?"
172: 0x1121 [0x23] WAIT_FOR_DIALOG_INTERACTION
173: 0x1122 [0x29] REQ_SET_WAIT(priority=0x08, entity_id=Sanctia (ID: 16875855/0x0101814F), tag_num=0x2A)
174: 0x1129 [0x4A] Novice Moogle (ID: 16875856/0x01018150) looks at LocalPlayer
175: 0x1132 [0x03] ExtData[1]->WorkLocal[2] = 0*

SUBROUTINE_1137:
176: 0x1137 [0x02] IF !(ExtData[1]->WorkLocal[2] == 0*) GOTO 0x1195
177: 0x113F [0x24] CREATE_DIALOG(message_id=7778*, default_option=0*, option_flags=0*)
    → "Who sent you? [Chelvadurai./Zoriboh./That moogle right there.]"
178: 0x1146 [0x25] WAIT_DIALOG_SELECT()
179: 0x1147 [0x02] IF !(Work_Zone[0] == 0*) GOTO 0x1162
180: 0x114F [0x03] Work_Zone[1] = 1*
181: 0x1154 [0x2B] Sanctia (ID: 16875855/0x0101814F) [7779*]:
    → "Hmmm."
182: 0x115B [0x23] WAIT_FOR_DIALOG_INTERACTION
183: 0x115C [0x48] [System] [7780*]:
    → "Sanctia looks at you disbelievingly."
184: 0x115F [0x01] GOTO 0x1192
185: 0x1162 [0x02] IF !(Work_Zone[0] == 1*) GOTO 0x1177
186: 0x116A [0x03] Work_Zone[1] = 2*
187: 0x116F [0x03] ExtData[1]->WorkLocal[2] = 1*
188: 0x1174 [0x01] GOTO 0x1192
189: 0x1177 [0x02] IF !(Work_Zone[0] == 2*) GOTO 0x1192
190: 0x117F [0x03] Work_Zone[1] = 3*
191: 0x1184 [0x2B] Sanctia (ID: 16875855/0x0101814F) [7779*]:
    → "Hmmm."
192: 0x118B [0x23] WAIT_FOR_DIALOG_INTERACTION
193: 0x118C [0x48] [System] [7780*]:
    → "Sanctia looks at you disbelievingly."
194: 0x118F [0x01] GOTO 0x1192

SUBROUTINE_1192:
195: 0x1192 [0x01] GOTO 0x1137
196: 0x1195 [0x6F] WAIT_FRAME_DELAY: Yield until WaitTime reaches zero
197: 0x1196 [0x76] CHECK_ENTITY_RENDER_FLAGS: Wait until Novice Moogle (ID: 16875856/0x01018150) Render.Flags0 and Render.Flags3 conditions are met
198: 0x119B [0x52] END_LOAD_SCHEDULER: End scheduler "s098" with entities [EventEntity, EventEntity], work=175*
199: 0x11AA [0x45] LOAD_SCHEDULED_TASK: Load scheduler "s099" with entities [EventEntity, EventEntity], work=[175*, 0*]
200: 0x11BB [0x4A] Novice Moogle (ID: 16875856/0x01018150) looks at Sanctia (ID: 16875855/0x0101814F)
201: 0x11C4 [0x7B] Sanctia (ID: 16875855/0x0101814F) stops talking
202: 0x11C9 [0x29] REQ_SET_WAIT(priority=0x08, entity_id=Sanctia (ID: 16875855/0x0101814F), tag_num=0x2C)
203: 0x11D0 [0x2B] Sanctia (ID: 16875855/0x0101814F) [7781*]:
    → "Zoriboh!? I should've known he'd be worried about me..."
204: 0x11D7 [0x23] WAIT_FOR_DIALOG_INTERACTION
205: 0x11D8 [0x29] REQ_SET_WAIT(priority=0x08, entity_id=Sanctia (ID: 16875855/0x0101814F), tag_num=0x2D)
206: 0x11DF [0x29] REQ_SET_WAIT(priority=0x08, entity_id=Sanctia (ID: 16875855/0x0101814F), tag_num=0x23)
207: 0x11E6 [0x2B] Sanctia (ID: 16875855/0x0101814F) [7782*]:
    → "But I can't go back. Please tell Zoriboh it's not his fault I left Rabao, and not to fret for me. I'll be just fine."
208: 0x11ED [0x23] WAIT_FOR_DIALOG_INTERACTION
209: 0x11EE [0x29] REQ_SET_WAIT(priority=0x08, entity_id=Sanctia (ID: 16875855/0x0101814F), tag_num=0x24)
210: 0x11F5 [0x6F] WAIT_FRAME_DELAY: Yield until WaitTime reaches zero
211: 0x11F6 [0x76] CHECK_ENTITY_RENDER_FLAGS: Wait until Novice Moogle (ID: 16875856/0x01018150) Render.Flags0 and Render.Flags3 conditions are met
212: 0x11FB [0x52] END_LOAD_SCHEDULER: End scheduler "s099" with entities [EventEntity, EventEntity], work=175*
213: 0x120A [0x45] LOAD_SCHEDULED_TASK: Load scheduler "s100" with entities [EventEntity, EventEntity], work=[175*, 0*]
214: 0x121B [0x29] REQ_SET_WAIT(priority=0x08, entity_id=Sanctia (ID: 16875855/0x0101814F), tag_num=0x25)
215: 0x1222 [0x29] REQ_SET_WAIT(priority=0x08, entity_id=Sanctia (ID: 16875855/0x0101814F), tag_num=0x26)
216: 0x1229 [0x27] REQ_SET(priority=0x0B, entity_id=Sanctia (ID: 16875855/0x0101814F), tag_num=0x38)
217: 0x1230 [0x4A] Novice Moogle (ID: 16875856/0x01018150) looks at Sanctia (ID: 16875855/0x0101814F)
218: 0x1239 [0x6F] WAIT_FRAME_DELAY: Yield until WaitTime reaches zero
219: 0x123A [0x76] CHECK_ENTITY_RENDER_FLAGS: Wait until Novice Moogle (ID: 16875856/0x01018150) Render.Flags0 and Render.Flags3 conditions are met
220: 0x123F [0x29] REQ_SET_WAIT(priority=0x08, entity_id=Novice Moogle (ID: 16875856/0x01018150), tag_num=0x05)
221: 0x1246 [0x1C] WAIT(30* ticks)
222: 0x1249 [0x4A] LocalPlayer looks at Sanctia (ID: 16875855/0x0101814F)
223: 0x1252 [0x1C] WAIT(30* ticks)
224: 0x1255 [0x1C] WAIT(30* ticks)
225: 0x1258 [0x2B] Novice Moogle (ID: 16875856/0x01018150) [7783*]:
    → ""Just fine!?" Run-ins with pirates, smugglers, and a vortex of darkness, and she says "just fine," kupopo!"
226: 0x125F [0x23] WAIT_FOR_DIALOG_INTERACTION
227: 0x1260 [0x29] REQ_SET_WAIT(priority=0x08, entity_id=Novice Moogle (ID: 16875856/0x01018150), tag_num=0x06)
228: 0x1267 [0x29] REQ_SET_WAIT(priority=0x08, entity_id=Novice Moogle (ID: 16875856/0x01018150), tag_num=0x07)
229: 0x126E [0x29] REQ_SET_WAIT(priority=0x08, entity_id=Novice Moogle (ID: 16875856/0x01018150), tag_num=0x08)
230: 0x1275 [0x1C] WAIT(30* ticks)
231: 0x1278 [0x52] END_LOAD_SCHEDULER: End scheduler "s100" with entities [EventEntity, EventEntity], work=175*
232: 0x1287 [0x45] LOAD_SCHEDULED_TASK: Load scheduler "s101" with entities [EventEntity, EventEntity], work=[175*, 0*]
233: 0x1298 [0x4A] Novice Moogle (ID: 16875856/0x01018150) looks at LocalPlayer
234: 0x12A1 [0x6F] WAIT_FRAME_DELAY: Yield until WaitTime reaches zero
235: 0x12A2 [0x76] CHECK_ENTITY_RENDER_FLAGS: Wait until Novice Moogle (ID: 16875856/0x01018150) Render.Flags0 and Render.Flags3 conditions are met
236: 0x12A7 [0x29] REQ_SET_WAIT(priority=0x08, entity_id=Novice Moogle (ID: 16875856/0x01018150), tag_num=0x11)
237: 0x12AE [0x2B] Novice Moogle (ID: 16875856/0x01018150) [7784*]:
    → "<Sigh> Please let Mister Zoriboh know that Sanctia is okay, kupopo."
238: 0x12B5 [0x23] WAIT_FOR_DIALOG_INTERACTION
239: 0x12B6 [0x29] REQ_SET_WAIT(priority=0x08, entity_id=Novice Moogle (ID: 16875856/0x01018150), tag_num=0x12)
240: 0x12BD [0x29] REQ_SET_WAIT(priority=0x08, entity_id=Novice Moogle (ID: 16875856/0x01018150), tag_num=0x13)
241: 0x12C4 [0x2B] Novice Moogle (ID: 16875856/0x01018150) [7785*]:
    → "I'll do my best to see that she stays "just fine," kupopo!"
242: 0x12CB [0x23] WAIT_FOR_DIALOG_INTERACTION
243: 0x12CC [0x29] REQ_SET_WAIT(priority=0x08, entity_id=Novice Moogle (ID: 16875856/0x01018150), tag_num=0x14)
244: 0x12D3 [0x52] END_LOAD_SCHEDULER: End scheduler "s101" with entities [EventEntity, EventEntity], work=175*
245: 0x12E2 [0x5D] SET_MUSIC_VOLUME(volume=0*, fade_time=200*)
246: 0x12E7 [0x45] LOAD_SCHEDULED_TASK: Load scheduler "s100" with entities [EventEntity, EventEntity], work=[175*, 0*]
247: 0x12F8 [0x1C] WAIT(30* ticks)
248: 0x12FB [0x27] REQ_SET(priority=0x0B, entity_id=Novice Moogle (ID: 16875856/0x01018150), tag_num=0x1C)
249: 0x1302 [0x1C] WAIT(60* ticks)
250: 0x1305 [0x45] LOAD_SCHEDULED_TASK: Load scheduler "fdo1" with entities [LocalPlayer, LocalPlayer], work=[200*, 0*]
251: 0x1316 [0x1C] WAIT(120* ticks)
252: 0x1319 [0x52] END_LOAD_SCHEDULER: End scheduler "s100" with entities [EventEntity, EventEntity], work=175*
253: 0x1328 [0x2A] GET_REQ_LEVEL(level=11, entity_id=Sanctia (ID: 16875855/0x0101814F))
254: 0x132E [0x2A] GET_REQ_LEVEL(level=11, entity_id=Novice Moogle (ID: 16875856/0x01018150))
255: 0x1334 [0x5C] MUSIC_CONTROL: Set Idle (Day) music to song 230*
256: 0x1338 [0x5C] MUSIC_CONTROL: Set Idle (Night) music to song 230*
257: 0x133C [0x5C] MUSIC_CONTROL: Set Combat (Solo) music to song 101*
258: 0x1340 [0x5C] MUSIC_CONTROL: Set Combat (Party) music to song 219*
259: 0x1344 [0x4E] SET_ENTITY_HIDE_FLAG: Show LocalPlayer
260: 0x134A [0x80] LOAD_WAIT(entity=LocalPlayer)
261: 0x134F [0x46] CAMERA_CONTROL: Restore default settings
262: 0x1351 [0x45] LOAD_SCHEDULED_TASK: Load scheduler "fdi1" with entities [LocalPlayer, LocalPlayer], work=[200*, 0*]
263: 0x1362 [0x20] SET_CLI_EVENT_UC_FLAG: Unlock player control
264: 0x1364 [0x21] END_EVENT
265: 0x1365 [0x00] END_REQSTACK()
```
