# 16875924

## Common Data

| Field            | Value                    |
|------------------|--------------------------|
| Zone             | Lufaise Meadows (ID: 24) |
| Block Size       | 96 bytes                 |
| Total Events     | 2                        |
| References Count | 7                        |

## List of Events

| Event ID              | Entrypoint   |   Size |   Instructions |
|-----------------------|--------------|--------|----------------|
| [65535](#event-65535) | 0x0000       |      1 |              1 |
| [120](#event-120)     | 0x0001       |     40 |             12 |

## DAT References (imed_data)

|   Index | Hex Value   |   Dec Value |
|---------|-------------|-------------|
|       0 | 0x5D56      |       23894 |
|       1 | 0x2289      |        8841 |
|       2 | 0x01EE      |         494 |
|       3 | 0x00B4      |         180 |
|       4 | 0x243E      |        9278 |
|       5 | 0x18F7      |        6391 |
|       6 | 0x0000      |           0 |

## String References

- **6391**: Obtained: #.
- **8841**: Four memories begin to coalesce in your $0!

## Events

### Event 65535

#### Metadata

| Field        | Value   |
|--------------|---------|
| Entrypoint   | 0x0000  |
| Data Size    | 1 bytes |
| Instructions | 1       |

```
      00 01 02 03 04 05 06 07  08 09 0A 0B 0C 0D 0E 0F
      -- -- -- -- -- -- -- --  -- -- -- -- -- -- -- --
0000: 00                                                .               
```

#### Opcodes

```
  0: 0x0000 [0x00] END_REQSTACK()
```

### Event 120

#### Metadata

| Field        | Value    |
|--------------|----------|
| Entrypoint   | 0x0001   |
| Data Size    | 40 bytes |
| Instructions | 12       |

```
      00 01 02 03 04 05 06 07  08 09 0A 0B 0C 0D 0E 0F
      -- -- -- -- -- -- -- --  -- -- -- -- -- -- -- --
0000:    42 03 02 10 00 80 48  01 80 73 02 80 F0 FF FF   B.....H..s.....
0010: 7F F0 FF FF 7F 1C 03 80  03 02 10 04 80 93 02 10  ................
0020: 48 05 80 23 93 06 80 21  00                       H..#...!.       
```

#### Opcodes

```
  0: 0x0001 [0x42] SET_CLI_EVENT_CANCEL_DATA()
  1: 0x0002 [0x03] Work_Zone[2] = 23894*
  2: 0x0007 [0x48] [System] [8841*]:
    → "Four memories begin to coalesce in your $0!"
  3: 0x000A [0x73] LocalPlayer casts magic 494* on LocalPlayer
  4: 0x0015 [0x1C] WAIT(180* ticks)
  5: 0x0018 [0x03] Work_Zone[2] = 9278*
  6: 0x001D [0x93] DISPLAY_ITEM_INFO(item_id=Work_Zone[2])
  7: 0x0020 [0x48] [System] [6391*]:
    → "Obtained: #."
  8: 0x0023 [0x23] WAIT_FOR_DIALOG_INTERACTION
  9: 0x0024 [0x93] DISPLAY_ITEM_INFO(item_id=0*)
 10: 0x0027 [0x21] END_EVENT
 11: 0x0028 [0x00] END_REQSTACK()
```
