# 16875893

## Common Data

| Field            | Value                    |
|------------------|--------------------------|
| Zone             | Lufaise Meadows (ID: 24) |
| Block Size       | 6992 bytes               |
| Total Events     | 3                        |
| References Count | 119                      |

## List of Events

| Event ID              | Entrypoint   |   Size |   Instructions |
|-----------------------|--------------|--------|----------------|
| [65535](#event-65535) | 0x0000       |      1 |              1 |
| [116](#event-116)     | 0x0001       |   2826 |            330 |
| [117](#event-117)     | 0x0B0B       |   3659 |            453 |

## DAT References (imed_data)

|   Index | Hex Value   |   Dec Value |
|---------|-------------|-------------|
|       0 | 0x0000      |           0 |
|       1 | 0x0078      |         120 |
|       2 | 0x0013      |          19 |
|       3 | 0x000F      |          15 |
|       4 | 0x031B      |         795 |
|       5 | 0x001E      |          30 |
|       6 | 0x003C      |          60 |
|       7 | 0x002D      |          45 |
|       8 | 0x1E9C      |        7836 |
|       9 | 0x01DB      |         475 |
|      10 | 0x1E9D      |        7837 |
|      11 | 0x1E9E      |        7838 |
|      12 | 0x01DF      |         479 |
|      13 | 0x1E9F      |        7839 |
|      14 | 0x1EA0      |        7840 |
|      15 | 0x007C      |         124 |
|      16 | 0x005A      |          90 |
|      17 | 0x1EA1      |        7841 |
|      18 | 0x1EA2      |        7842 |
|      19 | 0x1EA3      |        7843 |
|      20 | 0x1EA4      |        7844 |
|      21 | 0x1EA5      |        7845 |
|      22 | 0x1EA6      |        7846 |
|      23 | 0x1EA7      |        7847 |
|      24 | 0x1EA8      |        7848 |
|      25 | 0x1EA9      |        7849 |
|      26 | 0x01E1      |         481 |
|      27 | 0x012C      |         300 |
|      28 | 0x1EAA      |        7850 |
|      29 | 0x1EAB      |        7851 |
|      30 | 0x0007      |           7 |
|      31 | 0x02B8      |         696 |
|      32 | 0x1EAC      |        7852 |
|      33 | 0x0001      |           1 |
|      34 | 0x0006      |           6 |
|      35 | 0x1EAD      |        7853 |
|      36 | 0x009F      |         159 |
|      37 | 0x1EAE      |        7854 |
|      38 | 0x1EAF      |        7855 |
|      39 | 0x1EB0      |        7856 |
|      40 | 0x1EB1      |        7857 |
|      41 | 0x02B9      |         697 |
|      42 | 0x1EB2      |        7858 |
|      43 | 0x0014      |          20 |
|      44 | 0x1EB3      |        7859 |
|      45 | 0x1EB4      |        7860 |
|      46 | 0x1EB5      |        7861 |
|      47 | 0x0094      |         148 |
|      48 | 0x1EB6      |        7862 |
|      49 | 0x009A      |         154 |
|      50 | 0x00F0      |         240 |
|      51 | 0x030C      |         780 |
|      52 | 0x1EB7      |        7863 |
|      53 | 0x004B      |          75 |
|      54 | 0x1EB8      |        7864 |
|      55 | 0x1EB9      |        7865 |
|      56 | 0x030D      |         781 |
|      57 | 0x0032      |          50 |
|      58 | 0x000A      |          10 |
|      59 | 0x0099      |         153 |
|      60 | 0x1EBA      |        7866 |
|      61 | 0x1EBB      |        7867 |
|      62 | 0x1EBC      |        7868 |
|      63 | 0x1EBD      |        7869 |
|      64 | 0x1EBE      |        7870 |
|      65 | 0x0319      |         793 |
|      66 | 0x0096      |         150 |
|      67 | 0x00B4      |         180 |
|      68 | 0x1EBF      |        7871 |
|      69 | 0x1EC0      |        7872 |
|      70 | 0x1EC1      |        7873 |
|      71 | 0x1EC2      |        7874 |
|      72 | 0x031A      |         794 |
|      73 | 0x1EC3      |        7875 |
|      74 | 0x1EC4      |        7876 |
|      75 | 0x1EC5      |        7877 |
|      76 | 0x1EC6      |        7878 |
|      77 | 0x00E6      |         230 |
|      78 | 0x00C8      |         200 |
|      79 | 0x001F      |          31 |
|      80 | 0x0064      |         100 |
|      81 | 0x017C      |         380 |
|      82 | 0x0093      |         147 |
|      83 | 0x0019      |          25 |
|      84 | 0x0010      |          16 |
|      85 | 0x01ED      |         493 |
|      86 | 0x01A5      |         421 |
|      87 | 0x02D1      |         721 |
|      88 | 0x0300      |         768 |
|      89 | 0x004A      |          74 |
|      90 | 0x00C9      |         201 |
|      91 | 0x0384      |         900 |
|      92 | 0x0348      |         840 |
|      93 | 0x01E0      |         480 |
|      94 | 0x0438      |        1080 |
|      95 | 0x0069      |         105 |
|      96 | 0x0011      |          17 |
|      97 | 0x00FF      |         255 |
|      98 | 0x020D      |         525 |
|      99 | 0x0009      |           9 |
|     100 | 0x0301      |         769 |
|     101 | 0x00D2      |         210 |
|     102 | 0x0087      |         135 |
|     103 | 0x0008      |           8 |
|     104 | 0x0002      |           2 |
|     105 | 0x027F      |         639 |
|     106 | 0x013B      |         315 |
|     107 | 0x0195      |         405 |
|     108 | 0x0012      |          18 |
|     109 | 0x0168      |         360 |
|     110 | 0x000C      |          12 |
|     111 | 0x000D      |          13 |
|     112 | 0x01A4      |         420 |
|     113 | 0x0080      |         128 |
|     114 | 0x0258      |         600 |
|     115 | 0x0018      |          24 |
|     116 | 0x00A0      |         160 |
|     117 | 0x010E      |         270 |
|     118 | 0x00D7      |         215 |

## String References

- **7851**: Do you think so? [Nod./Shake your head.]

## Events

### Event 65535

#### Metadata

| Field        | Value   |
|--------------|---------|
| Entrypoint   | 0x0000  |
| Data Size    | 1 bytes |
| Instructions | 1       |

```
      00 01 02 03 04 05 06 07  08 09 0A 0B 0C 0D 0E 0F
      -- -- -- -- -- -- -- --  -- -- -- -- -- -- -- --
0000: 00                                                .               
```

#### Opcodes

```
  0: 0x0000 [0x00] END_REQSTACK()
```

### Event 116

#### Metadata

| Field        | Value      |
|--------------|------------|
| Entrypoint   | 0x0001     |
| Data Size    | 2826 bytes |
| Instructions | 324        |

```
      00 01 02 03 04 05 06 07  08 09 0A 0B 0C 0D 0E 0F
      -- -- -- -- -- -- -- --  -- -- -- -- -- -- -- --
0000:    42 03 00 00 09 10 5D  00 80 01 80 1A 28 17 46   B.....].....(.F
0010: 01 38 02 80 79 00 F0 FF  FF 7F F0 FF FF 7F 1A 4F  .8..y..........O
0020: 14 1C 03 80 5B 04 80 78  81 01 01 78 81 01 01 65  ....[..x...x...e
0030: 70 31 34 45 05 80 F0 FF  FF 7F F0 FF FF 7F 65 6E  p14E..........en
0040: 30 31 00 80 27 10 F0 FF  FF 7F 17 1A 07 17 2A 10  01..'.........*.
0050: F0 FF FF 7F 1C 05 80 52  05 80 F0 FF FF 7F F0 FF  .......R........
0060: FF 7F 65 6E 30 31 45 05  80 F0 FF FF 7F F0 FF FF  ..en01E.........
0070: 7F 65 6E 30 32 00 80 1C  06 80 5B 04 80 78 81 01  .en02.....[..x..
0080: 01 78 81 01 01 65 70 31  35 1C 07 80 2B 78 81 01  .x...ep15...+x..
0090: 01 08 80 23 5B 09 80 78  81 01 01 78 81 01 01 74  ...#[..x...x...t
00A0: 6C 63 30 2B 78 81 01 01  0A 80 23 79 00 78 81 01  lc0+x.....#y.x..
00B0: 01 76 81 01 01 5B 09 80  78 81 01 01 78 81 01 01  .v...[..x...x...
00C0: 74 6C 63 31 53 78 81 01  01 78 81 01 01 74 6C 63  tlc1Sx...x...tlc
00D0: 31 52 05 80 F0 FF FF 7F  F0 FF FF 7F 65 6E 30 32  1R..........en02
00E0: 45 05 80 F0 FF FF 7F F0  FF FF 7F 65 6E 30 33 00  E..........en03.
00F0: 80 79 00 F0 FF FF 7F 76  81 01 01 4A 78 81 01 01  .y.....v...Jx...
0100: 76 81 01 01 6F 76 78 81  01 01 55 05 80 F0 FF FF  v...ovx...U.....
0110: 7F F0 FF FF 7F 65 6E 30  33 2B 78 81 01 01 0B 80  .....en03+x.....
0120: 23 5B 0C 80 78 81 01 01  78 81 01 01 73 74 64 30  #[..x...x...std0
0130: 45 05 80 F0 FF FF 7F F0  FF FF 7F 65 6E 30 34 00  E..........en04.
0140: 80 1C 05 80 2B 78 81 01  01 0D 80 23 2B 78 81 01  ....+x.....#+x..
0150: 01 0E 80 23 5C 00 0F 80  5C 01 0F 80 9A 52 05 80  ...#\...\....R..
0160: F0 FF FF 7F F0 FF FF 7F  65 6E 30 34 45 05 80 F0  ........en04E...
0170: FF FF 7F F0 FF FF 7F 65  6E 61 34 00 80 1C 10 80  .......ena4.....
0180: 2B 78 81 01 01 11 80 23  52 05 80 F0 FF FF 7F F0  +x.....#R.......
0190: FF FF 7F 65 6E 61 34 45  05 80 F0 FF FF 7F F0 FF  ...ena4E........
01A0: FF 7F 65 6E 62 34 00 80  1C 10 80 2B 78 81 01 01  ..enb4.....+x...
01B0: 12 80 23 52 05 80 F0 FF  FF 7F F0 FF FF 7F 65 6E  ..#R..........en
01C0: 62 34 45 05 80 F0 FF FF  7F F0 FF FF 7F 65 6E 30  b4E..........en0
01D0: 35 00 80 1C 05 80 79 00  F0 FF FF 7F 78 81 01 01  5.....y.....x...
01E0: 2B 78 81 01 01 13 80 23  5B 0C 80 78 81 01 01 78  +x.....#[..x...x
01F0: 81 01 01 73 74 64 31 2B  78 81 01 01 14 80 23 53  ...std1+x.....#S
0200: 78 81 01 01 78 81 01 01  73 74 64 31 52 05 80 F0  x...x...std1R...
0210: FF FF 7F F0 FF FF 7F 65  6E 30 35 45 05 80 F0 FF  .......en05E....
0220: FF 7F F0 FF FF 7F 65 6E  30 36 00 80 4A 78 81 01  ......en06..Jx..
0230: 01 F0 FF FF 7F 6F 76 78  81 01 01 1C 05 80 2B 78  .....ovx......+x
0240: 81 01 01 15 80 23 52 05  80 F0 FF FF 7F F0 FF FF  .....#R.........
0250: 7F 65 6E 30 36 45 05 80  F0 FF FF 7F F0 FF FF 7F  .en06E..........
0260: 65 6E 30 38 00 80 81 00  78 81 01 01 5B 0C 80 78  en08....x...[..x
0270: 81 01 01 78 81 01 01 74  68 63 30 2B 78 81 01 01  ...x...thc0+x...
0280: 16 80 23 2B 78 81 01 01  17 80 23 52 05 80 F0 FF  ..#+x.....#R....
0290: FF 7F F0 FF FF 7F 65 6E  30 38 45 05 80 F0 FF FF  ......en08E.....
02A0: 7F F0 FF FF 7F 65 6E 30  37 00 80 2B 78 81 01 01  .....en07..+x...
02B0: 18 80 23 81 01 78 81 01  01 5B 0C 80 78 81 01 01  ..#..x...[..x...
02C0: 78 81 01 01 74 68 63 31  53 78 81 01 01 78 81 01  x...thc1Sx...x..
02D0: 01 74 68 63 31 2B 78 81  01 01 19 80 23 7B 78 81  .thc1+x.....#{x.
02E0: 01 01 5B 1A 80 78 81 01  01 78 81 01 01 74 62 6F  ..[..x...x...tbo
02F0: 30 1C 07 80 5D 00 80 1B  80 2B 78 81 01 01 1C 80  0...]....+x.....
0300: 23 24 1D 80 00 80 00 80  25 02 00 10 00 80 00 9D  #$......%.......
0310: 03 29 10 76 81 01 01 03  6E F0 FF FF 7F 1E 80 99  .).v....n.......
0320: F0 FF FF 7F 99 F0 FF FF  7F 5B 1A 80 78 81 01 01  .........[..x...
0330: 78 81 01 01 74 62 6F 31  1C 01 80 45 05 80 F0 FF  x...tbo1...E....
0340: FF 7F F0 FF FF 7F 65 6E  30 39 00 80 29 10 78 81  ......en09..).x.
0350: 01 01 0C 5B 1F 80 78 81  01 01 78 81 01 01 65 70  ...[..x...x...ep
0360: 30 31 53 78 81 01 01 78  81 01 01 65 70 30 31 1C  01Sx...x...ep01.
0370: 05 80 5B 1F 80 78 81 01  01 78 81 01 01 65 70 30  ..[..x...x...ep0
0380: 32 45 05 80 F0 FF FF 7F  F0 FF FF 7F 31 30 34 32  2E..........1042
0390: 00 80 2B 78 81 01 01 20  80 23 01 31 04 02 00 10  ..+x... .#.1....
03A0: 21 80 00 31 04 29 10 76  81 01 01 03 6E F0 FF FF  !..1.).v....n...
03B0: 7F 22 80 99 F0 FF FF 7F  99 F0 FF FF 7F 5B 1A 80  ."...........[..
03C0: 78 81 01 01 78 81 01 01  74 62 6F 31 1C 01 80 45  x...x...tbo1...E
03D0: 05 80 F0 FF FF 7F F0 FF  FF 7F 65 6E 30 39 00 80  ..........en09..
03E0: 29 10 78 81 01 01 0C 5B  1F 80 78 81 01 01 78 81  ).x....[..x...x.
03F0: 01 01 65 70 30 31 53 78  81 01 01 78 81 01 01 65  ..ep01Sx...x...e
0400: 70 30 31 1C 05 80 5B 1F  80 78 81 01 01 78 81 01  p01...[..x...x..
0410: 01 65 70 30 32 45 05 80  F0 FF FF 7F F0 FF FF 7F  .ep02E..........
0420: 31 30 34 32 00 80 2B 78  81 01 01 23 80 23 01 31  1042..+x...#.#.1
0430: 04 5C 00 24 80 5C 01 24  80 9A 2B 78 81 01 01 25  .\.$.\.$..+x...%
0440: 80 23 52 05 80 F0 FF FF  7F F0 FF FF 7F 65 6E 30  .#R..........en0
0450: 39 45 05 80 F0 FF FF 7F  F0 FF FF 7F 65 6E 31 35  9E..........en15
0460: 00 80 2B 78 81 01 01 26  80 23 2B 78 81 01 01 27  ..+x...&.#+x...'
0470: 80 23 53 78 81 01 01 78  81 01 01 65 70 30 32 52  .#Sx...x...ep02R
0480: 05 80 F0 FF FF 7F F0 FF  FF 7F 65 6E 31 35 45 05  ..........en15E.
0490: 80 F0 FF FF 7F F0 FF FF  7F 65 6E 31 30 00 80 5B  .........en10..[
04A0: 1F 80 78 81 01 01 78 81  01 01 65 70 30 33 2B 78  ..x...x...ep03+x
04B0: 81 01 01 28 80 23 53 78  81 01 01 78 81 01 01 65  ...(.#Sx...x...e
04C0: 70 30 33 5B 29 80 78 81  01 01 78 81 01 01 65 70  p03[).x...x...ep
04D0: 30 34 1C 03 80 45 05 80  F0 FF FF 7F F0 FF FF 7F  04...E..........
04E0: 31 30 33 36 00 80 52 05  80 F0 FF FF 7F F0 FF FF  1036..R.........
04F0: 7F 65 6E 31 30 45 05 80  F0 FF FF 7F F0 FF FF 7F  .en10E..........
0500: 65 6E 31 31 00 80 2B 78  81 01 01 2A 80 23 53 78  en11..+x...*.#Sx
0510: 81 01 01 78 81 01 01 65  70 30 34 45 05 80 F0 FF  ...x...ep04E....
0520: FF 7F F0 FF FF 7F 74 75  72 61 00 80 5B 29 80 78  ......tura..[).x
0530: 81 01 01 78 81 01 01 65  70 30 35 1C 2B 80 2B 78  ...x...ep05.+.+x
0540: 81 01 01 2C 80 23 53 78  81 01 01 78 81 01 01 65  ...,.#Sx...x...e
0550: 70 30 35 52 05 80 F0 FF  FF 7F F0 FF FF 7F 65 6E  p05R..........en
0560: 31 31 45 05 80 F0 FF FF  7F F0 FF FF 7F 65 6E 31  11E..........en1
0570: 32 00 80 5B 29 80 78 81  01 01 78 81 01 01 65 70  2..[).x...x...ep
0580: 62 35 1C 2B 80 2B 78 81  01 01 2D 80 23 52 05 80  b5.+.+x...-.#R..
0590: F0 FF FF 7F F0 FF FF 7F  65 6E 31 32 45 05 80 F0  ........en12E...
05A0: FF FF 7F F0 FF FF 7F 65  6E 31 36 00 80 5B 29 80  .......en16..[).
05B0: 78 81 01 01 78 81 01 01  65 70 62 35 1C 2B 80 2B  x...x...epb5.+.+
05C0: 78 81 01 01 2E 80 23 53  78 81 01 01 78 81 01 01  x.....#Sx...x...
05D0: 65 70 62 35 52 05 80 F0  FF FF 7F F0 FF FF 7F 65  epb5R..........e
05E0: 6E 31 36 45 05 80 F0 FF  FF 7F F0 FF FF 7F 65 6E  n16E..........en
05F0: 31 33 00 80 81 00 78 81  01 01 5B 29 80 78 81 01  13....x...[).x..
0600: 01 78 81 01 01 65 70 30  36 1C 05 80 45 05 80 F0  .x...ep06...E...
0610: FF FF 7F F0 FF FF 7F 31  61 34 30 00 80 1C 10 80  .......1a40.....
0620: 9F 2F 80 78 81 01 01 78  81 01 01 73 74 72 31 00  ./.x...x...str1.
0630: 80 2B 78 81 01 01 30 80  23 55 05 80 F0 FF FF 7F  .+x...0.#U......
0640: F0 FF FF 7F 65 6E 31 33  1C 06 80 45 05 80 F0 FF  ....en13...E....
0650: FF 7F F0 FF FF 7F 65 6E  32 36 00 80 9F 31 80 F0  ......en26...1..
0660: FF FF 7F F0 FF FF 7F 73  74 72 30 00 80 1C 32 80  .......str0...2.
0670: 53 78 81 01 01 78 81 01  01 65 70 30 36 52 05 80  Sx...x...ep06R..
0680: F0 FF FF 7F F0 FF FF 7F  65 6E 32 36 45 05 80 F0  ........en26E...
0690: FF FF 7F F0 FF FF 7F 65  6E 31 34 00 80 5B 33 80  .......en14..[3.
06A0: 78 81 01 01 78 81 01 01  65 70 30 37 5D 00 80 1B  x...x...ep07]...
06B0: 80 1C 06 80 9F 2F 80 78  81 01 01 78 81 01 01 73  ...../.x...x...s
06C0: 74 72 31 00 80 2B 78 81  01 01 34 80 23 53 78 81  tr1..+x...4.#Sx.
06D0: 01 01 78 81 01 01 65 70  30 37 1C 05 80 52 05 80  ..x...ep07...R..
06E0: F0 FF FF 7F F0 FF FF 7F  65 6E 31 34 45 05 80 F0  ........en14E...
06F0: FF FF 7F F0 FF FF 7F 65  6E 31 37 00 80 5B 33 80  .......en17..[3.
0700: 78 81 01 01 78 81 01 01  65 70 30 38 1C 03 80 45  x...x...ep08...E
0710: 05 80 F0 FF FF 7F F0 FF  FF 7F 31 30 34 30 00 80  ..........1040..
0720: 1C 35 80 2B 78 81 01 01  36 80 23 52 05 80 F0 FF  .5.+x...6.#R....
0730: FF 7F F0 FF FF 7F 65 6E  31 37 45 05 80 F0 FF FF  ......en17E.....
0740: 7F F0 FF FF 7F 65 6E 31  38 00 80 1C 01 80 2B 78  .....en18.....+x
0750: 81 01 01 37 80 23 52 05  80 F0 FF FF 7F F0 FF FF  ...7.#R.........
0760: 7F 65 6E 31 38 45 05 80  F0 FF FF 7F F0 FF FF 7F  .en18E..........
0770: 65 6E 31 39 00 80 9F 31  80 78 81 01 01 78 81 01  en19...1.x...x..
0780: 01 73 74 72 30 00 80 1C  06 80 5B 38 80 78 81 01  .str0.....[8.x..
0790: 01 78 81 01 01 65 70 30  39 45 05 80 F0 FF FF 7F  .x...ep09E......
07A0: F0 FF FF 7F 36 31 31 39  00 80 1C 39 80 45 05 80  ....6119...9.E..
07B0: F0 FF FF 7F F0 FF FF 7F  31 62 34 32 00 80 1C 3A  ........1b42...:
07C0: 80 1C 01 80 5C 00 3B 80  5C 01 3B 80 1C 06 80 45  ....\.;.\.;....E
07D0: 05 80 F0 FF FF 7F F0 FF  FF 7F 31 77 6F 73 00 80  ..........1wos..
07E0: 53 78 81 01 01 78 81 01  01 65 70 30 39 5B 38 80  Sx...x...ep09[8.
07F0: 78 81 01 01 78 81 01 01  65 70 31 30 45 05 80 F0  x...x...ep10E...
0800: FF FF 7F F0 FF FF 7F 31  30 34 37 00 80 45 05 80  .......1047..E..
0810: F0 FF FF 7F F0 FF FF 7F  31 77 69 73 00 80 1C 07  ........1wis....
0820: 80 52 05 80 F0 FF FF 7F  F0 FF FF 7F 65 6E 31 39  .R..........en19
0830: 45 05 80 F0 FF FF 7F F0  FF FF 7F 65 6E 32 30 00  E..........en20.
0840: 80 2B 78 81 01 01 3C 80  23 2B 78 81 01 01 3D 80  .+x...<.#+x...=.
0850: 23 5B 38 80 78 81 01 01  78 81 01 01 65 70 31 31  #[8.x...x...ep11
0860: 1C 03 80 52 05 80 F0 FF  FF 7F F0 FF FF 7F 65 6E  ...R..........en
0870: 32 30 45 05 80 F0 FF FF  7F F0 FF FF 7F 65 6E 32  20E..........en2
0880: 31 00 80 45 05 80 F0 FF  FF 7F F0 FF FF 7F 31 30  1..E..........10
0890: 34 36 00 80 2B 78 81 01  01 3E 80 23 2B 78 81 01  46..+x...>.#+x..
08A0: 01 3F 80 23 29 10 76 81  01 01 04 1C 06 80 29 10  .?.#).v.......).
08B0: 78 81 01 01 0D 2B 78 81  01 01 40 80 23 5B 41 80  x....+x...@.#[A.
08C0: 78 81 01 01 78 81 01 01  65 70 31 32 1C 03 80 45  x...x...ep12...E
08D0: 05 80 F0 FF FF 7F F0 FF  FF 7F 65 6E 32 32 00 80  ..........en22..
08E0: 45 05 80 F0 FF FF 7F F0  FF FF 7F 31 63 34 32 00  E..........1c42.
08F0: 80 1C 42 80 52 05 80 F0  FF FF 7F F0 FF FF 7F 65  ..B.R..........e
0900: 6E 32 32 45 05 80 F0 FF  FF 7F F0 FF FF 7F 65 6E  n22E..........en
0910: 32 33 00 80 45 05 80 F0  FF FF 7F F0 FF FF 7F 31  23..E..........1
0920: 30 34 35 00 80 1C 43 80  52 05 80 F0 FF FF 7F F0  045...C.R.......
0930: FF FF 7F 65 6E 32 33 45  05 80 F0 FF FF 7F F0 FF  ...en23E........
0940: FF 7F 65 6E 32 34 00 80  2B 78 81 01 01 44 80 23  ..en24..+x...D.#
0950: 53 78 81 01 01 78 81 01  01 65 70 31 32 52 05 80  Sx...x...ep12R..
0960: F0 FF FF 7F F0 FF FF 7F  65 6E 32 34 45 05 80 F0  ........en24E...
0970: FF FF 7F F0 FF FF 7F 65  6E 33 31 00 80 2B 78 81  .......en31..+x.
0980: 01 01 45 80 23 2B 78 81  01 01 46 80 23 52 05 80  ..E.#+x...F.#R..
0990: F0 FF FF 7F F0 FF FF 7F  65 6E 33 31 45 05 80 F0  ........en31E...
09A0: FF FF 7F F0 FF FF 7F 65  6E 33 30 00 80 2B 78 81  .......en30..+x.
09B0: 01 01 47 80 23 5B 48 80  78 81 01 01 78 81 01 01  ..G.#[H.x...x...
09C0: 65 70 31 33 1C 05 80 52  05 80 F0 FF FF 7F F0 FF  ep13...R........
09D0: FF 7F 65 6E 33 30 45 05  80 F0 FF FF 7F F0 FF FF  ..en30E.........
09E0: 7F 65 6E 32 35 00 80 53  78 81 01 01 78 81 01 01  .en25..Sx...x...
09F0: 65 70 31 33 2B 78 81 01  01 49 80 23 2B 78 81 01  ep13+x...I.#+x..
0A00: 01 4A 80 23 52 05 80 F0  FF FF 7F F0 FF FF 7F 65  .J.#R..........e
0A10: 6E 32 35 45 05 80 F0 FF  FF 7F F0 FF FF 7F 65 6E  n25E..........en
0A20: 32 37 00 80 29 10 78 81  01 01 0E 1C 05 80 2B 78  27..).x.......+x
0A30: 81 01 01 4B 80 23 6E F0  FF FF 7F 1E 80 99 F0 FF  ...K.#n.........
0A40: FF 7F 99 F0 FF FF 7F 1C  07 80 52 05 80 F0 FF FF  ..........R.....
0A50: 7F F0 FF FF 7F 65 6E 32  37 45 05 80 F0 FF FF 7F  .....en27E......
0A60: F0 FF FF 7F 65 6E 32 38  00 80 1C 03 80 2B 78 81  ....en28.....+x.
0A70: 01 01 4C 80 23 52 05 80  F0 FF FF 7F F0 FF FF 7F  ..L.#R..........
0A80: 65 6E 32 38 45 05 80 F0  FF FF 7F F0 FF FF 7F 65  en28E..........e
0A90: 6E 33 32 00 80 1C 05 80  5D 00 80 01 80 27 10 78  n32.....]....'.x
0AA0: 81 01 01 0F 1C 1B 80 1A  28 17 1C 06 80 2A 10 78  ........(....*.x
0AB0: 81 01 01 52 05 80 F0 FF  FF 7F F0 FF FF 7F 65 6E  ...R..........en
0AC0: 32 39 45 05 80 F0 FF FF  7F F0 FF FF 7F 30 62 6C  29E..........0bl
0AD0: 66 00 80 02 00 00 00 80  80 ED 0A 03 01 10 21 80  f.............!.
0AE0: 43 00 43 01 1C 03 80 01  23 0B 01 09 0B 5C 00 4D  C.C.....#....\.M
0AF0: 80 5C 01 4D 80 9A 46 00  45 4E 80 F0 FF FF 7F F0  .\.M..F.EN......
0B00: FF FF 7F 66 64 69 32 00  80 21 00                 ...fdi2..!.     
```

#### Opcodes

```
  0: 0x0001 [0x42] SET_CLI_EVENT_CANCEL_DATA()
  1: 0x0002 [0x03] ExtData[1]->WorkLocal[0] = Work_Zone[9]
  2: 0x0007 [0x5D] SET_MUSIC_VOLUME(volume=0*, fade_time=120*)
  3: 0x000C [0x1A] CALL_SUBROUTINE(address=0x1728)
  4: 0x000F [0x46] CAMERA_CONTROL: Disable user control
  5: 0x0011 [0x38] SET_CLIENT_EVENT_MODE(mode=19*)
  6: 0x0014 [0x79] LocalPlayer looks at LocalPlayer (Basic look)
  7: 0x001E [0x1A] CALL_SUBROUTINE(address=0x144F)
  8: 0x0021 [0x1C] WAIT(15* ticks)
  9: 0x0024 [0x5B] LOAD_EXT_SCHEDULER: Load scheduler "ep14" with entities [Prishe (ID: 16875896/0x01018178), Prishe (ID: 16875896/0x01018178)], work=795*
 10: 0x0033 [0x45] LOAD_SCHEDULED_TASK: Load scheduler "en01" with entities [LocalPlayer, LocalPlayer], work=[30*, 0*]
 11: 0x0044 [0x27] REQ_SET(priority=0x10, entity_id=LocalPlayer, tag_num=0x17)
 12: 0x004B [0x1A] CALL_SUBROUTINE(address=0x1707)
 13: 0x004E [0x2A] GET_REQ_LEVEL(level=16, entity_id=LocalPlayer)
 14: 0x0054 [0x1C] WAIT(30* ticks)
 15: 0x0057 [0x52] END_LOAD_SCHEDULER: End scheduler "en01" with entities [LocalPlayer, LocalPlayer], work=30*
 16: 0x0066 [0x45] LOAD_SCHEDULED_TASK: Load scheduler "en02" with entities [LocalPlayer, LocalPlayer], work=[30*, 0*]
 17: 0x0077 [0x1C] WAIT(60* ticks)
 18: 0x007A [0x5B] LOAD_EXT_SCHEDULER: Load scheduler "ep15" with entities [Prishe (ID: 16875896/0x01018178), Prishe (ID: 16875896/0x01018178)], work=795*
 19: 0x0089 [0x1C] WAIT(45* ticks)
 20: 0x008C [0x2B] Prishe (ID: 16875896/0x01018178) [7836*]:
    → "Hey, you found me!"
 21: 0x0093 [0x23] WAIT_FOR_DIALOG_INTERACTION
 22: 0x0094 [0x5B] LOAD_EXT_SCHEDULER: Load scheduler "tlc0" with entities [Prishe (ID: 16875896/0x01018178), Prishe (ID: 16875896/0x01018178)], work=475*
 23: 0x00A3 [0x2B] Prishe (ID: 16875896/0x01018178) [7837*]:
    → "Have you been here before, <Player>? You can see for malms."
 24: 0x00AA [0x23] WAIT_FOR_DIALOG_INTERACTION
 25: 0x00AB [0x79] Prishe (ID: 16875896/0x01018178) looks at Unnamed NPC (ID: 16875894/0x01018176) (Basic look)
 26: 0x00B5 [0x5B] LOAD_EXT_SCHEDULER: Load scheduler "tlc1" with entities [Prishe (ID: 16875896/0x01018178), Prishe (ID: 16875896/0x01018178)], work=475*
 27: 0x00C4 [0x53] WAIT_SCHEDULER_TASK: Wait for scheduler "tlc1" with entities [Prishe (ID: 16875896/0x01018178), Prishe (ID: 16875896/0x01018178)]
 28: 0x00D1 [0x52] END_LOAD_SCHEDULER: End scheduler "en02" with entities [LocalPlayer, LocalPlayer], work=30*
 29: 0x00E0 [0x45] LOAD_SCHEDULED_TASK: Load scheduler "en03" with entities [LocalPlayer, LocalPlayer], work=[30*, 0*]
 30: 0x00F1 [0x79] LocalPlayer looks at Unnamed NPC (ID: 16875894/0x01018176) (Basic look)
 31: 0x00FB [0x4A] Prishe (ID: 16875896/0x01018178) looks at Unnamed NPC (ID: 16875894/0x01018176)
 32: 0x0104 [0x6F] WAIT_FRAME_DELAY: Yield until WaitTime reaches zero
 33: 0x0105 [0x76] CHECK_ENTITY_RENDER_FLAGS: Wait until Prishe (ID: 16875896/0x01018178) Render.Flags0 and Render.Flags3 conditions are met
 34: 0x010A [0x55] WAIT_LOAD_SCHEDULER: Wait for scheduler "en03" with entities [LocalPlayer, LocalPlayer], work=30*
 35: 0x0119 [0x2B] Prishe (ID: 16875896/0x01018178) [7838*]:
    → "You can get a great view of the town where I was born--where the end of the world was born."
 36: 0x0120 [0x23] WAIT_FOR_DIALOG_INTERACTION
 37: 0x0121 [0x5B] LOAD_EXT_SCHEDULER: Load scheduler "std0" with entities [Prishe (ID: 16875896/0x01018178), Prishe (ID: 16875896/0x01018178)], work=479*
 38: 0x0130 [0x45] LOAD_SCHEDULED_TASK: Load scheduler "en04" with entities [LocalPlayer, LocalPlayer], work=[30*, 0*]
 39: 0x0141 [0x1C] WAIT(30* ticks)
 40: 0x0144 [0x2B] Prishe (ID: 16875896/0x01018178) [7839*]:
    → "All I've ever thought about is what the apocalypse would be like."
 41: 0x014B [0x23] WAIT_FOR_DIALOG_INTERACTION
 42: 0x014C [0x2B] Prishe (ID: 16875896/0x01018178) [7840*]:
    → "If I manage to live out this eternal life, I guess I'll eventually find out."
 43: 0x0153 [0x23] WAIT_FOR_DIALOG_INTERACTION
 44: 0x0154 [0x5C] MUSIC_CONTROL: Set Idle (Day) music to song 124*
 45: 0x0158 [0x5C] MUSIC_CONTROL: Set Idle (Night) music to song 124*
 46: 0x015C [0x9A] WAIT_MUSIC_SERVER()
 47: 0x015D [0x52] END_LOAD_SCHEDULER: End scheduler "en04" with entities [LocalPlayer, LocalPlayer], work=30*
 48: 0x016C [0x45] LOAD_SCHEDULED_TASK: Load scheduler "ena4" with entities [LocalPlayer, LocalPlayer], work=[30*, 0*]
 49: 0x017D [0x1C] WAIT(90* ticks)
 50: 0x0180 [0x2B] Prishe (ID: 16875896/0x01018178) [7841*]:
    → "It doesn't matter how--the rebirth of Promathia; the awakening of the sleeping gods; the victory of the beastmen."
 51: 0x0187 [0x23] WAIT_FOR_DIALOG_INTERACTION
 52: 0x0188 [0x52] END_LOAD_SCHEDULER: End scheduler "ena4" with entities [LocalPlayer, LocalPlayer], work=30*
 53: 0x0197 [0x45] LOAD_SCHEDULED_TASK: Load scheduler "enb4" with entities [LocalPlayer, LocalPlayer], work=[30*, 0*]
 54: 0x01A8 [0x1C] WAIT(90* ticks)
 55: 0x01AB [0x2B] Prishe (ID: 16875896/0x01018178) [7842*]:
    → "The world will end. And when that happens, even my immortal existence will be snuffed out."
 56: 0x01B2 [0x23] WAIT_FOR_DIALOG_INTERACTION
 57: 0x01B3 [0x52] END_LOAD_SCHEDULER: End scheduler "enb4" with entities [LocalPlayer, LocalPlayer], work=30*
 58: 0x01C2 [0x45] LOAD_SCHEDULED_TASK: Load scheduler "en05" with entities [LocalPlayer, LocalPlayer], work=[30*, 0*]
 59: 0x01D3 [0x1C] WAIT(30* ticks)
 60: 0x01D6 [0x79] LocalPlayer looks at Prishe (ID: 16875896/0x01018178) (Basic look)
 61: 0x01E0 [0x2B] Prishe (ID: 16875896/0x01018178) [7843*]:
    → "When I stood before that gate, Promathia promised to show me the apocalypse."
 62: 0x01E7 [0x23] WAIT_FOR_DIALOG_INTERACTION
 63: 0x01E8 [0x5B] LOAD_EXT_SCHEDULER: Load scheduler "std1" with entities [Prishe (ID: 16875896/0x01018178), Prishe (ID: 16875896/0x01018178)], work=479*
 64: 0x01F7 [0x2B] Prishe (ID: 16875896/0x01018178) [7844*]:
    → "That was when I realized who most wanted to see the end of it all--who couldn't wait for the grand finale."
 65: 0x01FE [0x23] WAIT_FOR_DIALOG_INTERACTION
 66: 0x01FF [0x53] WAIT_SCHEDULER_TASK: Wait for scheduler "std1" with entities [Prishe (ID: 16875896/0x01018178), Prishe (ID: 16875896/0x01018178)]
 67: 0x020C [0x52] END_LOAD_SCHEDULER: End scheduler "en05" with entities [LocalPlayer, LocalPlayer], work=30*
 68: 0x021B [0x45] LOAD_SCHEDULED_TASK: Load scheduler "en06" with entities [LocalPlayer, LocalPlayer], work=[30*, 0*]
 69: 0x022C [0x4A] Prishe (ID: 16875896/0x01018178) looks at LocalPlayer
 70: 0x0235 [0x6F] WAIT_FRAME_DELAY: Yield until WaitTime reaches zero
 71: 0x0236 [0x76] CHECK_ENTITY_RENDER_FLAGS: Wait until Prishe (ID: 16875896/0x01018178) Render.Flags0 and Render.Flags3 conditions are met
 72: 0x023B [0x1C] WAIT(30* ticks)
 73: 0x023E [0x2B] Prishe (ID: 16875896/0x01018178) [7845*]:
    → "That person was me."
 74: 0x0245 [0x23] WAIT_FOR_DIALOG_INTERACTION
 75: 0x0246 [0x52] END_LOAD_SCHEDULER: End scheduler "en06" with entities [LocalPlayer, LocalPlayer], work=30*
 76: 0x0255 [0x45] LOAD_SCHEDULED_TASK: Load scheduler "en08" with entities [LocalPlayer, LocalPlayer], work=[30*, 0*]
 77: 0x0266 [0x81] SET_ENTITY_BLINKING(blink_flag=0x00, entity=Prishe (ID: 16875896/0x01018178))
 78: 0x026C [0x5B] LOAD_EXT_SCHEDULER: Load scheduler "thc0" with entities [Prishe (ID: 16875896/0x01018178), Prishe (ID: 16875896/0x01018178)], work=479*
 79: 0x027B [0x2B] Prishe (ID: 16875896/0x01018178) [7846*]:
    → "That's why I hurled that black magicite into the Twilight God."
 80: 0x0282 [0x23] WAIT_FOR_DIALOG_INTERACTION
 81: 0x0283 [0x2B] Prishe (ID: 16875896/0x01018178) [7847*]:
    → "I somehow hoped that by sending it into the mothercrystal with the soul of Promathia, the Keeper of the Apocalypse would one day rise again."
 82: 0x028A [0x23] WAIT_FOR_DIALOG_INTERACTION
 83: 0x028B [0x52] END_LOAD_SCHEDULER: End scheduler "en08" with entities [LocalPlayer, LocalPlayer], work=30*
 84: 0x029A [0x45] LOAD_SCHEDULED_TASK: Load scheduler "en07" with entities [LocalPlayer, LocalPlayer], work=[30*, 0*]
 85: 0x02AB [0x2B] Prishe (ID: 16875896/0x01018178) [7848*]:
    → "Miss Mildaurion didn't yell at me."
 86: 0x02B2 [0x23] WAIT_FOR_DIALOG_INTERACTION
 87: 0x02B3 [0x81] SET_ENTITY_BLINKING(blink_flag=0x01, entity=Prishe (ID: 16875896/0x01018178))
 88: 0x02B9 [0x5B] LOAD_EXT_SCHEDULER: Load scheduler "thc1" with entities [Prishe (ID: 16875896/0x01018178), Prishe (ID: 16875896/0x01018178)], work=479*
 89: 0x02C8 [0x53] WAIT_SCHEDULER_TASK: Wait for scheduler "thc1" with entities [Prishe (ID: 16875896/0x01018178), Prishe (ID: 16875896/0x01018178)]
 90: 0x02D5 [0x2B] Prishe (ID: 16875896/0x01018178) [7849*]:
    → "She just smiled and said, "Wait until you meet [him/her].""
 91: 0x02DC [0x23] WAIT_FOR_DIALOG_INTERACTION
 92: 0x02DD [0x7B] Prishe (ID: 16875896/0x01018178) stops talking
 93: 0x02E2 [0x5B] LOAD_EXT_SCHEDULER: Load scheduler "tbo0" with entities [Prishe (ID: 16875896/0x01018178), Prishe (ID: 16875896/0x01018178)], work=481*
 94: 0x02F1 [0x1C] WAIT(45* ticks)
 95: 0x02F4 [0x5D] SET_MUSIC_VOLUME(volume=0*, fade_time=300*)
 96: 0x02F9 [0x2B] Prishe (ID: 16875896/0x01018178) [7850*]:
    → "What did she mean? Is your hatred of me meant to be my punishment?"
 97: 0x0300 [0x23] WAIT_FOR_DIALOG_INTERACTION
 98: 0x0301 [0x24] CREATE_DIALOG(message_id=7851*, default_option=0*, option_flags=0*)
    → "Do you think so? [Nod./Shake your head.]"
 99: 0x0308 [0x25] WAIT_DIALOG_SELECT()
100: 0x0309 [0x02] IF !(Work_Zone[0] == 0*) GOTO 0x039D
101: 0x0311 [0x29] REQ_SET_WAIT(priority=0x10, entity_id=Unnamed NPC (ID: 16875894/0x01018176), tag_num=0x03)
102: 0x0318 [0x6E] LocalPlayer uses emote 7*
103: 0x031F [0x99] Wait for LocalPlayer animation to complete
104: 0x0324 [0x99] Wait for LocalPlayer animation to complete
105: 0x0329 [0x5B] LOAD_EXT_SCHEDULER: Load scheduler "tbo1" with entities [Prishe (ID: 16875896/0x01018178), Prishe (ID: 16875896/0x01018178)], work=481*
106: 0x0338 [0x1C] WAIT(120* ticks)
107: 0x033B [0x45] LOAD_SCHEDULED_TASK: Load scheduler "en09" with entities [LocalPlayer, LocalPlayer], work=[30*, 0*]
108: 0x034C [0x29] REQ_SET_WAIT(priority=0x10, entity_id=Prishe (ID: 16875896/0x01018178), tag_num=0x0C)
109: 0x0353 [0x5B] LOAD_EXT_SCHEDULER: Load scheduler "ep01" with entities [Prishe (ID: 16875896/0x01018178), Prishe (ID: 16875896/0x01018178)], work=696*
110: 0x0362 [0x53] WAIT_SCHEDULER_TASK: Wait for scheduler "ep01" with entities [Prishe (ID: 16875896/0x01018178), Prishe (ID: 16875896/0x01018178)]
111: 0x036F [0x1C] WAIT(30* ticks)
112: 0x0372 [0x5B] LOAD_EXT_SCHEDULER: Load scheduler "ep02" with entities [Prishe (ID: 16875896/0x01018178), Prishe (ID: 16875896/0x01018178)], work=696*
113: 0x0381 [0x45] LOAD_SCHEDULED_TASK: Load scheduler "1042" with entities [LocalPlayer, LocalPlayer], work=[30*, 0*]
114: 0x0392 [0x2B] Prishe (ID: 16875896/0x01018178) [7852*]:
    → "I thought so. That must be why I hurt inside."
115: 0x0399 [0x23] WAIT_FOR_DIALOG_INTERACTION
116: 0x039A [0x01] GOTO 0x0431
117: 0x039D [0x02] IF !(Work_Zone[0] == 1*) GOTO 0x0431
118: 0x03A5 [0x29] REQ_SET_WAIT(priority=0x10, entity_id=Unnamed NPC (ID: 16875894/0x01018176), tag_num=0x03)
119: 0x03AC [0x6E] LocalPlayer uses emote 6*
120: 0x03B3 [0x99] Wait for LocalPlayer animation to complete
121: 0x03B8 [0x99] Wait for LocalPlayer animation to complete
122: 0x03BD [0x5B] LOAD_EXT_SCHEDULER: Load scheduler "tbo1" with entities [Prishe (ID: 16875896/0x01018178), Prishe (ID: 16875896/0x01018178)], work=481*
123: 0x03CC [0x1C] WAIT(120* ticks)
124: 0x03CF [0x45] LOAD_SCHEDULED_TASK: Load scheduler "en09" with entities [LocalPlayer, LocalPlayer], work=[30*, 0*]
125: 0x03E0 [0x29] REQ_SET_WAIT(priority=0x10, entity_id=Prishe (ID: 16875896/0x01018178), tag_num=0x0C)
126: 0x03E7 [0x5B] LOAD_EXT_SCHEDULER: Load scheduler "ep01" with entities [Prishe (ID: 16875896/0x01018178), Prishe (ID: 16875896/0x01018178)], work=696*
127: 0x03F6 [0x53] WAIT_SCHEDULER_TASK: Wait for scheduler "ep01" with entities [Prishe (ID: 16875896/0x01018178), Prishe (ID: 16875896/0x01018178)]
128: 0x0403 [0x1C] WAIT(30* ticks)
129: 0x0406 [0x5B] LOAD_EXT_SCHEDULER: Load scheduler "ep02" with entities [Prishe (ID: 16875896/0x01018178), Prishe (ID: 16875896/0x01018178)], work=696*
130: 0x0415 [0x45] LOAD_SCHEDULED_TASK: Load scheduler "1042" with entities [LocalPlayer, LocalPlayer], work=[30*, 0*]
131: 0x0426 [0x2B] Prishe (ID: 16875896/0x01018178) [7853*]:
    → "No, really. That must be why I hurt inside."
132: 0x042D [0x23] WAIT_FOR_DIALOG_INTERACTION
133: 0x042E [0x01] GOTO 0x0431

SUBROUTINE_0431:
134: 0x0431 [0x5C] MUSIC_CONTROL: Set Idle (Day) music to song 159*
135: 0x0435 [0x5C] MUSIC_CONTROL: Set Idle (Night) music to song 159*
136: 0x0439 [0x9A] WAIT_MUSIC_SERVER()
137: 0x043A [0x2B] Prishe (ID: 16875896/0x01018178) [7854*]:
    → "Why now? I've been the target of a lot of abuse over the years, and it's never bothered me."
138: 0x0441 [0x23] WAIT_FOR_DIALOG_INTERACTION
139: 0x0442 [0x52] END_LOAD_SCHEDULER: End scheduler "en09" with entities [LocalPlayer, LocalPlayer], work=30*
140: 0x0451 [0x45] LOAD_SCHEDULED_TASK: Load scheduler "en15" with entities [LocalPlayer, LocalPlayer], work=[30*, 0*]
141: 0x0462 [0x2B] Prishe (ID: 16875896/0x01018178) [7855*]:
    → "But for some reason, you just standing there quietly is more than I can bear."
142: 0x0469 [0x23] WAIT_FOR_DIALOG_INTERACTION
143: 0x046A [0x2B] Prishe (ID: 16875896/0x01018178) [7856*]:
    → "And it's not like being kicked, or punched, or stabbed."
144: 0x0471 [0x23] WAIT_FOR_DIALOG_INTERACTION
145: 0x0472 [0x53] WAIT_SCHEDULER_TASK: Wait for scheduler "ep02" with entities [Prishe (ID: 16875896/0x01018178), Prishe (ID: 16875896/0x01018178)]
146: 0x047F [0x52] END_LOAD_SCHEDULER: End scheduler "en15" with entities [LocalPlayer, LocalPlayer], work=30*
147: 0x048E [0x45] LOAD_SCHEDULED_TASK: Load scheduler "en10" with entities [LocalPlayer, LocalPlayer], work=[30*, 0*]
148: 0x049F [0x5B] LOAD_EXT_SCHEDULER: Load scheduler "ep03" with entities [Prishe (ID: 16875896/0x01018178), Prishe (ID: 16875896/0x01018178)], work=696*
149: 0x04AE [0x2B] Prishe (ID: 16875896/0x01018178) [7857*]:
    → "I can't get a handle on it. It's frightening and unnerving. I feel like I'm gonna be sick."
150: 0x04B5 [0x23] WAIT_FOR_DIALOG_INTERACTION
151: 0x04B6 [0x53] WAIT_SCHEDULER_TASK: Wait for scheduler "ep03" with entities [Prishe (ID: 16875896/0x01018178), Prishe (ID: 16875896/0x01018178)]
152: 0x04C3 [0x5B] LOAD_EXT_SCHEDULER: Load scheduler "ep04" with entities [Prishe (ID: 16875896/0x01018178), Prishe (ID: 16875896/0x01018178)], work=697*
153: 0x04D2 [0x1C] WAIT(15* ticks)
154: 0x04D5 [0x45] LOAD_SCHEDULED_TASK: Load scheduler "1036" with entities [LocalPlayer, LocalPlayer], work=[30*, 0*]
155: 0x04E6 [0x52] END_LOAD_SCHEDULER: End scheduler "en10" with entities [LocalPlayer, LocalPlayer], work=30*
156: 0x04F5 [0x45] LOAD_SCHEDULED_TASK: Load scheduler "en11" with entities [LocalPlayer, LocalPlayer], work=[30*, 0*]
157: 0x0506 [0x2B] Prishe (ID: 16875896/0x01018178) [7858*]:
    → "You're just a mortal, right?"
158: 0x050D [0x23] WAIT_FOR_DIALOG_INTERACTION
159: 0x050E [0x53] WAIT_SCHEDULER_TASK: Wait for scheduler "ep04" with entities [Prishe (ID: 16875896/0x01018178), Prishe (ID: 16875896/0x01018178)]
160: 0x051B [0x45] LOAD_SCHEDULED_TASK: Load scheduler "tura" with entities [LocalPlayer, LocalPlayer], work=[30*, 0*]
161: 0x052C [0x5B] LOAD_EXT_SCHEDULER: Load scheduler "ep05" with entities [Prishe (ID: 16875896/0x01018178), Prishe (ID: 16875896/0x01018178)], work=697*
162: 0x053B [0x1C] WAIT(20* ticks)
163: 0x053E [0x2B] Prishe (ID: 16875896/0x01018178) [7859*]:
    → "Then how can you close your heart off to me?"
164: 0x0545 [0x23] WAIT_FOR_DIALOG_INTERACTION
165: 0x0546 [0x53] WAIT_SCHEDULER_TASK: Wait for scheduler "ep05" with entities [Prishe (ID: 16875896/0x01018178), Prishe (ID: 16875896/0x01018178)]
166: 0x0553 [0x52] END_LOAD_SCHEDULER: End scheduler "en11" with entities [LocalPlayer, LocalPlayer], work=30*
167: 0x0562 [0x45] LOAD_SCHEDULED_TASK: Load scheduler "en12" with entities [LocalPlayer, LocalPlayer], work=[30*, 0*]
168: 0x0573 [0x5B] LOAD_EXT_SCHEDULER: Load scheduler "epb5" with entities [Prishe (ID: 16875896/0x01018178), Prishe (ID: 16875896/0x01018178)], work=697*
169: 0x0582 [0x1C] WAIT(20* ticks)
170: 0x0585 [0x2B] Prishe (ID: 16875896/0x01018178) [7860*]:
    → "Are you sad? Do I make you sad?"
171: 0x058C [0x23] WAIT_FOR_DIALOG_INTERACTION
172: 0x058D [0x52] END_LOAD_SCHEDULER: End scheduler "en12" with entities [LocalPlayer, LocalPlayer], work=30*
173: 0x059C [0x45] LOAD_SCHEDULED_TASK: Load scheduler "en16" with entities [LocalPlayer, LocalPlayer], work=[30*, 0*]
174: 0x05AD [0x5B] LOAD_EXT_SCHEDULER: Load scheduler "epb5" with entities [Prishe (ID: 16875896/0x01018178), Prishe (ID: 16875896/0x01018178)], work=697*
175: 0x05BC [0x1C] WAIT(20* ticks)
176: 0x05BF [0x2B] Prishe (ID: 16875896/0x01018178) [7861*]:
    → "Is it too difficult? Am I too difficult to deal with?"
177: 0x05C6 [0x23] WAIT_FOR_DIALOG_INTERACTION
178: 0x05C7 [0x53] WAIT_SCHEDULER_TASK: Wait for scheduler "epb5" with entities [Prishe (ID: 16875896/0x01018178), Prishe (ID: 16875896/0x01018178)]
179: 0x05D4 [0x52] END_LOAD_SCHEDULER: End scheduler "en16" with entities [LocalPlayer, LocalPlayer], work=30*
180: 0x05E3 [0x45] LOAD_SCHEDULED_TASK: Load scheduler "en13" with entities [LocalPlayer, LocalPlayer], work=[30*, 0*]
181: 0x05F4 [0x81] SET_ENTITY_BLINKING(blink_flag=0x00, entity=Prishe (ID: 16875896/0x01018178))
182: 0x05FA [0x5B] LOAD_EXT_SCHEDULER: Load scheduler "ep06" with entities [Prishe (ID: 16875896/0x01018178), Prishe (ID: 16875896/0x01018178)], work=697*
183: 0x0609 [0x1C] WAIT(30* ticks)
184: 0x060C [0x45] LOAD_SCHEDULED_TASK: Load scheduler "1a40" with entities [LocalPlayer, LocalPlayer], work=[30*, 0*]
185: 0x061D [0x1C] WAIT(90* ticks)
186: 0x0620 [0x9F] LOAD_SCHEDULED_TASK_ALT: Load scheduler "str1" with entities [Prishe (ID: 16875896/0x01018178), Prishe (ID: 16875896/0x01018178)], work=[148*, 0*]
187: 0x0631 [0x2B] Prishe (ID: 16875896/0x01018178) [7862*]:
    → "Don't you want to open your heart to me?"
188: 0x0638 [0x23] WAIT_FOR_DIALOG_INTERACTION
189: 0x0639 [0x55] WAIT_LOAD_SCHEDULER: Wait for scheduler "en13" with entities [LocalPlayer, LocalPlayer], work=30*
190: 0x0648 [0x1C] WAIT(60* ticks)
191: 0x064B [0x45] LOAD_SCHEDULED_TASK: Load scheduler "en26" with entities [LocalPlayer, LocalPlayer], work=[30*, 0*]
192: 0x065C [0x9F] LOAD_SCHEDULED_TASK_ALT: Load scheduler "str0" with entities [LocalPlayer, LocalPlayer], work=[154*, 0*]
193: 0x066D [0x1C] WAIT(240* ticks)
194: 0x0670 [0x53] WAIT_SCHEDULER_TASK: Wait for scheduler "ep06" with entities [Prishe (ID: 16875896/0x01018178), Prishe (ID: 16875896/0x01018178)]
195: 0x067D [0x52] END_LOAD_SCHEDULER: End scheduler "en26" with entities [LocalPlayer, LocalPlayer], work=30*
196: 0x068C [0x45] LOAD_SCHEDULED_TASK: Load scheduler "en14" with entities [LocalPlayer, LocalPlayer], work=[30*, 0*]
197: 0x069D [0x5B] LOAD_EXT_SCHEDULER: Load scheduler "ep07" with entities [Prishe (ID: 16875896/0x01018178), Prishe (ID: 16875896/0x01018178)], work=780*
198: 0x06AC [0x5D] SET_MUSIC_VOLUME(volume=0*, fade_time=300*)
199: 0x06B1 [0x1C] WAIT(60* ticks)
200: 0x06B4 [0x9F] LOAD_SCHEDULED_TASK_ALT: Load scheduler "str1" with entities [Prishe (ID: 16875896/0x01018178), Prishe (ID: 16875896/0x01018178)], work=[148*, 0*]
201: 0x06C5 [0x2B] Prishe (ID: 16875896/0x01018178) [7863*]:
    → "What the hell is this feeling? What the hell is going on...?"
202: 0x06CC [0x23] WAIT_FOR_DIALOG_INTERACTION
203: 0x06CD [0x53] WAIT_SCHEDULER_TASK: Wait for scheduler "ep07" with entities [Prishe (ID: 16875896/0x01018178), Prishe (ID: 16875896/0x01018178)]
204: 0x06DA [0x1C] WAIT(30* ticks)
205: 0x06DD [0x52] END_LOAD_SCHEDULER: End scheduler "en14" with entities [LocalPlayer, LocalPlayer], work=30*
206: 0x06EC [0x45] LOAD_SCHEDULED_TASK: Load scheduler "en17" with entities [LocalPlayer, LocalPlayer], work=[30*, 0*]
207: 0x06FD [0x5B] LOAD_EXT_SCHEDULER: Load scheduler "ep08" with entities [Prishe (ID: 16875896/0x01018178), Prishe (ID: 16875896/0x01018178)], work=780*
208: 0x070C [0x1C] WAIT(15* ticks)
209: 0x070F [0x45] LOAD_SCHEDULED_TASK: Load scheduler "1040" with entities [LocalPlayer, LocalPlayer], work=[30*, 0*]
210: 0x0720 [0x1C] WAIT(75* ticks)
211: 0x0723 [0x2B] Prishe (ID: 16875896/0x01018178) [7864*]:
    → "You and I feel the same way. That's why I can't read you. We share the same soul."
212: 0x072A [0x23] WAIT_FOR_DIALOG_INTERACTION
213: 0x072B [0x52] END_LOAD_SCHEDULER: End scheduler "en17" with entities [LocalPlayer, LocalPlayer], work=30*
214: 0x073A [0x45] LOAD_SCHEDULED_TASK: Load scheduler "en18" with entities [LocalPlayer, LocalPlayer], work=[30*, 0*]
215: 0x074B [0x1C] WAIT(120* ticks)
216: 0x074E [0x2B] Prishe (ID: 16875896/0x01018178) [7865*]:
    → "No, it's not that I can't read you, it's because I've become the same as you..."
217: 0x0755 [0x23] WAIT_FOR_DIALOG_INTERACTION
218: 0x0756 [0x52] END_LOAD_SCHEDULER: End scheduler "en18" with entities [LocalPlayer, LocalPlayer], work=30*
219: 0x0765 [0x45] LOAD_SCHEDULED_TASK: Load scheduler "en19" with entities [LocalPlayer, LocalPlayer], work=[30*, 0*]
220: 0x0776 [0x9F] LOAD_SCHEDULED_TASK_ALT: Load scheduler "str0" with entities [Prishe (ID: 16875896/0x01018178), Prishe (ID: 16875896/0x01018178)], work=[154*, 0*]
221: 0x0787 [0x1C] WAIT(60* ticks)
222: 0x078A [0x5B] LOAD_EXT_SCHEDULER: Load scheduler "ep09" with entities [Prishe (ID: 16875896/0x01018178), Prishe (ID: 16875896/0x01018178)], work=781*
223: 0x0799 [0x45] LOAD_SCHEDULED_TASK: Load scheduler "6119" with entities [LocalPlayer, LocalPlayer], work=[30*, 0*]
224: 0x07AA [0x1C] WAIT(50* ticks)
225: 0x07AD [0x45] LOAD_SCHEDULED_TASK: Load scheduler "1b42" with entities [LocalPlayer, LocalPlayer], work=[30*, 0*]
226: 0x07BE [0x1C] WAIT(10* ticks)
227: 0x07C1 [0x1C] WAIT(120* ticks)
228: 0x07C4 [0x5C] MUSIC_CONTROL: Set Idle (Day) music to song 153*
229: 0x07C8 [0x5C] MUSIC_CONTROL: Set Idle (Night) music to song 153*
230: 0x07CC [0x1C] WAIT(60* ticks)
231: 0x07CF [0x45] LOAD_SCHEDULED_TASK: Load scheduler "1wos" with entities [LocalPlayer, LocalPlayer], work=[30*, 0*]
232: 0x07E0 [0x53] WAIT_SCHEDULER_TASK: Wait for scheduler "ep09" with entities [Prishe (ID: 16875896/0x01018178), Prishe (ID: 16875896/0x01018178)]
233: 0x07ED [0x5B] LOAD_EXT_SCHEDULER: Load scheduler "ep10" with entities [Prishe (ID: 16875896/0x01018178), Prishe (ID: 16875896/0x01018178)], work=781*
234: 0x07FC [0x45] LOAD_SCHEDULED_TASK: Load scheduler "1047" with entities [LocalPlayer, LocalPlayer], work=[30*, 0*]
235: 0x080D [0x45] LOAD_SCHEDULED_TASK: Load scheduler "1wis" with entities [LocalPlayer, LocalPlayer], work=[30*, 0*]
236: 0x081E [0x1C] WAIT(45* ticks)
237: 0x0821 [0x52] END_LOAD_SCHEDULER: End scheduler "en19" with entities [LocalPlayer, LocalPlayer], work=30*
238: 0x0830 [0x45] LOAD_SCHEDULED_TASK: Load scheduler "en20" with entities [LocalPlayer, LocalPlayer], work=[30*, 0*]
239: 0x0841 [0x2B] Prishe (ID: 16875896/0x01018178) [7866*]:
    → "The magicite in my chest... It's gone..."
240: 0x0848 [0x23] WAIT_FOR_DIALOG_INTERACTION
241: 0x0849 [0x2B] Prishe (ID: 16875896/0x01018178) [7867*]:
    → "Has my magicite...melted away...?"
242: 0x0850 [0x23] WAIT_FOR_DIALOG_INTERACTION
243: 0x0851 [0x5B] LOAD_EXT_SCHEDULER: Load scheduler "ep11" with entities [Prishe (ID: 16875896/0x01018178), Prishe (ID: 16875896/0x01018178)], work=781*
244: 0x0860 [0x1C] WAIT(15* ticks)
245: 0x0863 [0x52] END_LOAD_SCHEDULER: End scheduler "en20" with entities [LocalPlayer, LocalPlayer], work=30*
246: 0x0872 [0x45] LOAD_SCHEDULED_TASK: Load scheduler "en21" with entities [LocalPlayer, LocalPlayer], work=[30*, 0*]
247: 0x0883 [0x45] LOAD_SCHEDULED_TASK: Load scheduler "1046" with entities [LocalPlayer, LocalPlayer], work=[30*, 0*]
248: 0x0894 [0x2B] Prishe (ID: 16875896/0x01018178) [7868*]:
    → "I know what's happened... I've gotten it back..."
249: 0x089B [0x23] WAIT_FOR_DIALOG_INTERACTION
250: 0x089C [0x2B] Prishe (ID: 16875896/0x01018178) [7869*]:
    → "The thing that makes us mortal... The Emptiness..."
251: 0x08A3 [0x23] WAIT_FOR_DIALOG_INTERACTION
252: 0x08A4 [0x29] REQ_SET_WAIT(priority=0x10, entity_id=Unnamed NPC (ID: 16875894/0x01018176), tag_num=0x04)
253: 0x08AB [0x1C] WAIT(60* ticks)
254: 0x08AE [0x29] REQ_SET_WAIT(priority=0x10, entity_id=Prishe (ID: 16875896/0x01018178), tag_num=0x0D)
255: 0x08B5 [0x2B] Prishe (ID: 16875896/0x01018178) [7870*]:
    → "I'm mortal again. That's why I feel so much pain."
256: 0x08BC [0x23] WAIT_FOR_DIALOG_INTERACTION
257: 0x08BD [0x5B] LOAD_EXT_SCHEDULER: Load scheduler "ep12" with entities [Prishe (ID: 16875896/0x01018178), Prishe (ID: 16875896/0x01018178)], work=793*
258: 0x08CC [0x1C] WAIT(15* ticks)
259: 0x08CF [0x45] LOAD_SCHEDULED_TASK: Load scheduler "en22" with entities [LocalPlayer, LocalPlayer], work=[30*, 0*]
260: 0x08E0 [0x45] LOAD_SCHEDULED_TASK: Load scheduler "1c42" with entities [LocalPlayer, LocalPlayer], work=[30*, 0*]
261: 0x08F1 [0x1C] WAIT(150* ticks)
262: 0x08F4 [0x52] END_LOAD_SCHEDULER: End scheduler "en22" with entities [LocalPlayer, LocalPlayer], work=30*
263: 0x0903 [0x45] LOAD_SCHEDULED_TASK: Load scheduler "en23" with entities [LocalPlayer, LocalPlayer], work=[30*, 0*]
264: 0x0914 [0x45] LOAD_SCHEDULED_TASK: Load scheduler "1045" with entities [LocalPlayer, LocalPlayer], work=[30*, 0*]
265: 0x0925 [0x1C] WAIT(180* ticks)
266: 0x0928 [0x52] END_LOAD_SCHEDULER: End scheduler "en23" with entities [LocalPlayer, LocalPlayer], work=30*
267: 0x0937 [0x45] LOAD_SCHEDULED_TASK: Load scheduler "en24" with entities [LocalPlayer, LocalPlayer], work=[30*, 0*]
268: 0x0948 [0x2B] Prishe (ID: 16875896/0x01018178) [7871*]:
    → "...Damn. Being mortal sure is complicated."
269: 0x094F [0x23] WAIT_FOR_DIALOG_INTERACTION
270: 0x0950 [0x53] WAIT_SCHEDULER_TASK: Wait for scheduler "ep12" with entities [Prishe (ID: 16875896/0x01018178), Prishe (ID: 16875896/0x01018178)]
271: 0x095D [0x52] END_LOAD_SCHEDULER: End scheduler "en24" with entities [LocalPlayer, LocalPlayer], work=30*
272: 0x096C [0x45] LOAD_SCHEDULED_TASK: Load scheduler "en31" with entities [LocalPlayer, LocalPlayer], work=[30*, 0*]
273: 0x097D [0x2B] Prishe (ID: 16875896/0x01018178) [7872*]:
    → "I'm in pain, but I'm happy."
274: 0x0984 [0x23] WAIT_FOR_DIALOG_INTERACTION
275: 0x0985 [0x2B] Prishe (ID: 16875896/0x01018178) [7873*]:
    → "It hurts, but I can smile."
276: 0x098C [0x23] WAIT_FOR_DIALOG_INTERACTION
277: 0x098D [0x52] END_LOAD_SCHEDULER: End scheduler "en31" with entities [LocalPlayer, LocalPlayer], work=30*
278: 0x099C [0x45] LOAD_SCHEDULED_TASK: Load scheduler "en30" with entities [LocalPlayer, LocalPlayer], work=[30*, 0*]
279: 0x09AD [0x2B] Prishe (ID: 16875896/0x01018178) [7874*]:
    → "That's why I can tell you from the depths of my being..."
280: 0x09B4 [0x23] WAIT_FOR_DIALOG_INTERACTION
281: 0x09B5 [0x5B] LOAD_EXT_SCHEDULER: Load scheduler "ep13" with entities [Prishe (ID: 16875896/0x01018178), Prishe (ID: 16875896/0x01018178)], work=794*
282: 0x09C4 [0x1C] WAIT(30* ticks)
283: 0x09C7 [0x52] END_LOAD_SCHEDULER: End scheduler "en30" with entities [LocalPlayer, LocalPlayer], work=30*
284: 0x09D6 [0x45] LOAD_SCHEDULED_TASK: Load scheduler "en25" with entities [LocalPlayer, LocalPlayer], work=[30*, 0*]
285: 0x09E7 [0x53] WAIT_SCHEDULER_TASK: Wait for scheduler "ep13" with entities [Prishe (ID: 16875896/0x01018178), Prishe (ID: 16875896/0x01018178)]
286: 0x09F4 [0x2B] Prishe (ID: 16875896/0x01018178) [7875*]:
    → "Thank you, <Player>."
287: 0x09FB [0x23] WAIT_FOR_DIALOG_INTERACTION
288: 0x09FC [0x2B] Prishe (ID: 16875896/0x01018178) [7876*]:
    → "I can go on now."
289: 0x0A03 [0x23] WAIT_FOR_DIALOG_INTERACTION
290: 0x0A04 [0x52] END_LOAD_SCHEDULER: End scheduler "en25" with entities [LocalPlayer, LocalPlayer], work=30*
291: 0x0A13 [0x45] LOAD_SCHEDULED_TASK: Load scheduler "en27" with entities [LocalPlayer, LocalPlayer], work=[30*, 0*]
292: 0x0A24 [0x29] REQ_SET_WAIT(priority=0x10, entity_id=Prishe (ID: 16875896/0x01018178), tag_num=0x0E)
293: 0x0A2B [0x1C] WAIT(30* ticks)
294: 0x0A2E [0x2B] Prishe (ID: 16875896/0x01018178) [7877*]:
    → "Not simply wait for the end, but be just like everyone else..."
295: 0x0A35 [0x23] WAIT_FOR_DIALOG_INTERACTION
296: 0x0A36 [0x6E] LocalPlayer uses emote 7*
297: 0x0A3D [0x99] Wait for LocalPlayer animation to complete
298: 0x0A42 [0x99] Wait for LocalPlayer animation to complete
299: 0x0A47 [0x1C] WAIT(45* ticks)
300: 0x0A4A [0x52] END_LOAD_SCHEDULER: End scheduler "en27" with entities [LocalPlayer, LocalPlayer], work=30*
301: 0x0A59 [0x45] LOAD_SCHEDULED_TASK: Load scheduler "en28" with entities [LocalPlayer, LocalPlayer], work=[30*, 0*]
302: 0x0A6A [0x1C] WAIT(15* ticks)
303: 0x0A6D [0x2B] Prishe (ID: 16875896/0x01018178) [7878*]:
    → "...and truly live."
304: 0x0A74 [0x23] WAIT_FOR_DIALOG_INTERACTION
305: 0x0A75 [0x52] END_LOAD_SCHEDULER: End scheduler "en28" with entities [LocalPlayer, LocalPlayer], work=30*
306: 0x0A84 [0x45] LOAD_SCHEDULED_TASK: Load scheduler "en32" with entities [LocalPlayer, LocalPlayer], work=[30*, 0*]
307: 0x0A95 [0x1C] WAIT(30* ticks)
308: 0x0A98 [0x5D] SET_MUSIC_VOLUME(volume=0*, fade_time=120*)
309: 0x0A9D [0x27] REQ_SET(priority=0x10, entity_id=Prishe (ID: 16875896/0x01018178), tag_num=0x0F)
310: 0x0AA4 [0x1C] WAIT(300* ticks)
311: 0x0AA7 [0x1A] CALL_SUBROUTINE(address=0x1728)
312: 0x0AAA [0x1C] WAIT(60* ticks)
313: 0x0AAD [0x2A] GET_REQ_LEVEL(level=16, entity_id=Prishe (ID: 16875896/0x01018178))
314: 0x0AB3 [0x52] END_LOAD_SCHEDULER: End scheduler "en29" with entities [LocalPlayer, LocalPlayer], work=30*
315: 0x0AC2 [0x45] LOAD_SCHEDULED_TASK: Load scheduler "0blf" with entities [LocalPlayer, LocalPlayer], work=[30*, 0*]
316: 0x0AD3 [0x02] IF !(ExtData[1]->WorkLocal[0] == 0*) GOTO 0x0AED
317: 0x0ADB [0x03] Work_Zone[1] = 1*
318: 0x0AE0 [0x43] SEND_EVENT_UPDATE: Send pending tag to server (packet 0x005B)
319: 0x0AE2 [0x43] SEND_EVENT_UPDATE: Check pending flag (skip if not pending)
320: 0x0AE4 [0x1C] WAIT(15* ticks)
321: 0x0AE7 [0x01] GOTO 0x0B23

SUBROUTINE_0B09:
322: 0x0B09 [0x21] END_EVENT
323: 0x0B0A [0x00] END_REQSTACK()
```

#### Data or dead code:

```
# Dead code (unreachable instructions):
     0x0AEA [0x01] GOTO 0x0B09
```

### Event 117

#### Metadata

| Field        | Value      |
|--------------|------------|
| Entrypoint   | 0x0B0B     |
| Data Size    | 3659 bytes |
| Instructions | 387        |

```
      00 01 02 03 04 05 06 07  08 09 0A 0B 0C 0D 0E 0F
      -- -- -- -- -- -- -- --  -- -- -- -- -- -- -- --
0B00:                                   42 5D 00 80 01             B]...
0B10: 80 1A 28 17 46 01 79 00  F0 FF FF 7F F0 FF FF 7F  ..(.F.y.........
0B20: 1C 06 80 69 01 4F 80 67  50 80 51 80 38 52 80 34  ...i.O.gP.Q.8R.4
0B30: 53 80 77 54 80 21 80 1C  05 80 AB 09 1A 8E 14 1C  S.wT.!..........
0B40: 05 80 5B 55 80 80 81 01  01 80 81 01 01 73 69 74  ..[U.........sit
0B50: 32 5B 56 80 79 81 01 01  79 81 01 01 68 72 70 30  2[V.y...y...hrp0
0B60: 5B 04 80 78 81 01 01 78  81 01 01 65 70 31 36 5B  [..x...x...ep16[
0B70: 57 80 83 81 01 01 83 81  01 01 61 33 30 30 5B 58  W.........a300[X
0B80: 80 81 81 01 01 81 81 01  01 65 64 30 33 9F 59 80  .........ed03.Y.
0B90: 7F 81 01 01 7F 81 01 01  00 FE FE FE 00 80 45 4E  ..............EN
0BA0: 80 F0 FF FF 7F F0 FF FF  7F 00 FE FE FE 00 80 45  ...............E
0BB0: 5A 80 F0 FF FF 7F F0 FF  FF 7F 00 FE FE FE 00 80  Z...............
0BC0: 45 0F 80 F0 FF FF 7F F0  FF FF 7F 66 70 73 30 00  E..........fps0.
0BD0: 80 1C 01 80 5C 00 5B 80  5C 01 5B 80 9A 1C 5C 80  ....\.[.\.[...\.
0BE0: 45 0F 80 F0 FF FF 7F F0  FF FF 7F 65 61 30 30 00  E..........ea00.
0BF0: 80 45 4E 80 F0 FF FF 7F  F0 FF FF 7F 66 64 69 32  .EN.........fdi2
0C00: 00 80 1C 5D 80 52 0F 80  F0 FF FF 7F F0 FF FF 7F  ...].R..........
0C10: 65 61 30 30 45 0F 80 F0  FF FF 7F F0 FF FF 7F 65  ea00E..........e
0C20: 61 30 32 00 80 1C 5E 80  52 0F 80 F0 FF FF 7F F0  a02...^.R.......
0C30: FF FF 7F 65 61 30 32 45  0F 80 F0 FF FF 7F F0 FF  ...ea02E........
0C40: FF 7F 65 61 30 33 00 80  1C 5F 80 45 4E 80 F0 FF  ..ea03..._.EN...
0C50: FF 7F F0 FF FF 7F 66 64  6F 31 00 80 1C 06 80 1C  ......fdo1......
0C60: 05 80 52 0F 80 F0 FF FF  7F F0 FF FF 7F 65 61 30  ..R..........ea0
0C70: 33 77 60 80 61 80 45 0F  80 F0 FF FF 7F F0 FF FF  3w`.a.E.........
0C80: 7F 65 6E 30 37 00 80 1C  3A 80 45 4E 80 F0 FF FF  .en07...:.EN....
0C90: 7F F0 FF FF 7F 66 64 69  31 00 80 1C 06 80 1C 43  .....fdi1......C
0CA0: 80 45 4E 80 F0 FF FF 7F  F0 FF FF 7F 66 64 6F 31  .EN.........fdo1
0CB0: 00 80 1C 06 80 1C 05 80  52 0F 80 F0 FF FF 7F F0  ........R.......
0CC0: FF FF 7F 65 6E 30 37 77  2B 80 61 80 45 0F 80 F0  ...en07w+.a.E...
0CD0: FF FF 7F F0 FF FF 7F 65  68 30 31 00 80 1C 3A 80  .......eh01...:.
0CE0: 45 4E 80 F0 FF FF 7F F0  FF FF 7F 66 64 69 31 00  EN.........fdi1.
0CF0: 80 1C 06 80 1C 05 80 5B  57 80 83 81 01 01 83 81  .......[W.......
0D00: 01 01 61 34 30 30 1C 5F  80 45 4E 80 F0 FF FF 7F  ..a400._.EN.....
0D10: F0 FF FF 7F 66 64 6F 31  00 80 1C 06 80 1C 05 80  ....fdo1........
0D20: 6B 69 64 6C 30 83 81 01  01 52 0F 80 F0 FF FF 7F  kidl0....R......
0D30: F0 FF FF 7F 65 68 30 31  29 10 83 81 01 01 0C 1C  ....eh01).......
0D40: 05 80 27 10 82 81 01 01  0B 27 10 83 81 01 01 0D  ..'......'......
0D50: 1C 03 80 45 0F 80 F0 FF  FF 7F F0 FF FF 7F 65 68  ...E..........eh
0D60: 30 30 00 80 1C 3A 80 45  4E 80 F0 FF FF 7F F0 FF  00...:.EN.......
0D70: FF 7F 66 64 69 31 00 80  1C 06 80 1C 32 80 52 0F  ..fdi1......2.R.
0D80: 80 F0 FF FF 7F F0 FF FF  7F 65 68 30 30 45 0F 80  .........eh00E..
0D90: F0 FF FF 7F F0 FF FF 7F  65 68 30 32 00 80 1C 62  ........eh02...b
0DA0: 80 45 4E 80 F0 FF FF 7F  F0 FF FF 7F 66 64 6F 31  .EN.........fdo1
0DB0: 00 80 1C 06 80 1C 05 80  52 0F 80 F0 FF FF 7F F0  ........R.......
0DC0: FF FF 7F 65 68 30 32 77  63 80 61 80 45 0F 80 F0  ...eh02wc.a.E...
0DD0: FF FF 7F F0 FF FF 7F 65  63 30 30 00 80 1C 3A 80  .......ec00...:.
0DE0: 45 4E 80 F0 FF FF 7F F0  FF FF 7F 66 64 69 31 00  EN.........fdi1.
0DF0: 80 1C 06 80 55 0F 80 F0  FF FF 7F F0 FF FF 7F 65  ....U..........e
0E00: 63 30 30 45 0F 80 F0 FF  FF 7F F0 FF FF 7F 65 63  c00E..........ec
0E10: 30 31 00 80 1C 07 80 5B  64 80 81 81 01 01 81 81  01.....[d.......
0E20: 01 01 65 64 30 34 1C 65  80 45 4E 80 F0 FF FF 7F  ..ed04.e.EN.....
0E30: F0 FF FF 7F 66 64 6F 31  00 80 1C 06 80 1C 05 80  ....fdo1........
0E40: 52 0F 80 F0 FF FF 7F F0  FF FF 7F 65 63 30 31 77  R..........ec01w
0E50: 22 80 61 80 45 0F 80 F0  FF FF 7F F0 FF FF 7F 65  ".a.E..........e
0E60: 6E 30 31 00 80 1C 3A 80  45 4E 80 F0 FF FF 7F F0  n01...:.EN......
0E70: FF FF 7F 66 64 69 31 00  80 1C 06 80 1C 66 80 45  ...fdi1......f.E
0E80: 4E 80 F0 FF FF 7F F0 FF  FF 7F 66 64 6F 31 00 80  N.........fdo1..
0E90: 1C 06 80 1C 05 80 52 0F  80 F0 FF FF 7F F0 FF FF  ......R.........
0EA0: 7F 65 6E 30 31 77 67 80  61 80 45 0F 80 F0 FF FF  .en01wg.a.E.....
0EB0: 7F F0 FF FF 7F 65 64 30  30 00 80 1C 3A 80 45 4E  .....ed00...:.EN
0EC0: 80 F0 FF FF 7F F0 FF FF  7F 66 64 69 31 00 80 1C  .........fdi1...
0ED0: 06 80 1C 01 80 27 10 85  81 01 01 0B 5B 55 80 80  .....'......[U..
0EE0: 81 01 01 80 81 01 01 73  69 74 31 52 0F 80 F0 FF  .......sit1R....
0EF0: FF 7F F0 FF FF 7F 65 64  30 30 45 0F 80 F0 FF FF  ......ed00E.....
0F00: 7F F0 FF FF 7F 65 64 30  31 00 80 1C 43 80 4A 80  .....ed01...C.J.
0F10: 81 01 01 85 81 01 01 1C  66 80 45 4E 80 F0 FF FF  ........f.EN....
0F20: 7F F0 FF FF 7F 66 64 6F  31 00 80 1C 06 80 1C 05  .....fdo1.......
0F30: 80 52 0F 80 F0 FF FF 7F  F0 FF FF 7F 65 64 30 31  .R..........ed01
0F40: 77 68 80 61 80 45 0F 80  F0 FF FF 7F F0 FF FF 7F  wh.a.E..........
0F50: 65 67 30 30 00 80 1C 3A  80 45 4E 80 F0 FF FF 7F  eg00...:.EN.....
0F60: F0 FF FF 7F 66 64 69 31  00 80 1C 06 80 9F 59 80  ....fdi1......Y.
0F70: 7F 81 01 01 7F 81 01 01  6D 61 69 6E 00 80 1C 10  ........main....
0F80: 80 29 10 7F 81 01 01 0C  5B 69 80 7F 81 01 01 7F  .)......[i......
0F90: 81 01 01 6C 75 70 30 1C  6A 80 45 4E 80 F0 FF FF  ...lup0.j.EN....
0FA0: 7F F0 FF FF 7F 66 64 6F  31 00 80 1C 06 80 1C 05  .....fdo1.......
0FB0: 80 77 1E 80 61 80 52 0F  80 F0 FF FF 7F F0 FF FF  .w..a.R.........
0FC0: 7F 65 67 30 30 45 0F 80  F0 FF FF 7F F0 FF FF 7F  .eg00E..........
0FD0: 65 67 30 31 00 80 1C 3A  80 45 4E 80 F0 FF FF 7F  eg01...:.EN.....
0FE0: F0 FF FF 7F 66 64 69 31  00 80 1C 06 80 1C 6B 80  ....fdi1......k.
0FF0: 45 0F 80 F0 FF FF 7F F0  FF FF 7F 65 77 6F 73 00  E..........ewos.
1000: 80 1C 10 80 52 0F 80 F0  FF FF 7F F0 FF FF 7F 65  ....R..........e
1010: 67 30 31 29 10 80 81 01  01 0B 29 10 7F 81 01 01  g01)......).....
1020: 0B 29 10 83 81 01 01 0B  29 10 81 81 01 01 0B 1C  .)......).......
1030: 05 80 77 6C 80 61 80 45  0F 80 F0 FF FF 7F F0 FF  ..wl.a.E........
1040: FF 7F 65 65 30 32 00 80  1C 3A 80 45 5A 80 F0 FF  ..ee02...:.EZ...
1050: FF 7F F0 FF FF 7F 77 68  69 31 00 80 1C 06 80 1C  ......whi1......
1060: 5D 80 52 0F 80 F0 FF FF  7F F0 FF FF 7F 65 65 30  ].R..........ee0
1070: 32 45 0F 80 F0 FF FF 7F  F0 FF FF 7F 65 65 30 30  2E..........ee00
1080: 00 80 1C 32 80 5B 04 80  78 81 01 01 78 81 01 01  ...2.[..x...x...
1090: 65 70 31 37 1C 10 80 5B  56 80 79 81 01 01 79 81  ep17...[V.y...y.
10A0: 01 01 68 72 70 31 1C 06  80 27 10 76 81 01 01 05  ..hrp1...'.v....
10B0: 1C 03 80 52 0F 80 F0 FF  FF 7F F0 FF FF 7F 65 65  ...R..........ee
10C0: 30 30 45 0F 80 F0 FF FF  7F F0 FF FF 7F 65 65 30  00E..........ee0
10D0: 31 00 80 1C 6B 80 45 4E  80 F0 FF FF 7F F0 FF FF  1...k.EN........
10E0: 7F 66 64 6F 31 00 80 1C  06 80 1C 05 80 52 0F 80  .fdo1........R..
10F0: F0 FF FF 7F F0 FF FF 7F  65 65 30 31 27 10 78 81  ........ee01'.x.
1100: 01 01 05 27 10 79 81 01  01 05 27 10 7F 81 01 01  ...'.y....'.....
1110: 05 27 10 80 81 01 01 05  27 10 81 81 01 01 05 27  .'......'......'
1120: 10 82 81 01 01 05 27 10  83 81 01 01 05 27 10 84  ......'......'..
1130: 81 01 01 05 27 10 85 81  01 01 05 1C 03 80 77 03  ....'.........w.
1140: 80 61 80 45 0F 80 F0 FF  FF 7F F0 FF FF 7F 65 6E  .a.E..........en
1150: 30 39 00 80 1C 3A 80 45  4E 80 F0 FF FF 7F F0 FF  09...:.EN.......
1160: FF 7F 66 64 69 31 00 80  1C 06 80 1C 6D 80 45 4E  ..fdi1......m.EN
1170: 80 F0 FF FF 7F F0 FF FF  7F 66 64 6F 31 00 80 1C  .........fdo1...
1180: 06 80 1C 05 80 52 0F 80  F0 FF FF 7F F0 FF FF 7F  .....R..........
1190: 65 6E 30 39 77 60 80 61  80 45 0F 80 F0 FF FF 7F  en09w`.a.E......
11A0: F0 FF FF 7F 65 6E 30 30  00 80 1C 3A 80 45 4E 80  ....en00...:.EN.
11B0: F0 FF FF 7F F0 FF FF 7F  66 64 69 31 00 80 1C 06  ........fdi1....
11C0: 80 1C 6D 80 1C 07 80 45  4E 80 F0 FF FF 7F F0 FF  ..m....EN.......
11D0: FF 7F 66 64 6F 31 00 80  1C 06 80 1C 05 80 52 0F  ..fdo1........R.
11E0: 80 F0 FF FF 7F F0 FF FF  7F 65 6E 30 30 77 6E 80  .........en00wn.
11F0: 61 80 45 0F 80 F0 FF FF  7F F0 FF FF 7F 65 6E 30  a.E..........en0
1200: 36 00 80 1C 3A 80 45 4E  80 F0 FF FF 7F F0 FF FF  6...:.EN........
1210: 7F 66 64 69 31 00 80 1C  06 80 1C 6D 80 45 4E 80  .fdi1......m.EN.
1220: F0 FF FF 7F F0 FF FF 7F  66 64 6F 31 00 80 1C 06  ........fdo1....
1230: 80 1C 05 80 52 0F 80 F0  FF FF 7F F0 FF FF 7F 65  ....R..........e
1240: 6E 30 36 77 6F 80 61 80  45 0F 80 F0 FF FF 7F F0  n06wo.a.E.......
1250: FF FF 7F 65 6E 30 34 00  80 1C 3A 80 45 4E 80 F0  ...en04...:.EN..
1260: FF FF 7F F0 FF FF 7F 66  64 69 31 00 80 1C 06 80  .......fdi1.....
1270: 1C 70 80 45 4E 80 F0 FF  FF 7F F0 FF FF 7F 66 64  .p.EN.........fd
1280: 6F 31 00 80 1C 06 80 1C  05 80 52 0F 80 F0 FF FF  o1........R.....
1290: 7F F0 FF FF 7F 65 6E 30  34 6C 86 81 01 01 71 80  .....en04l....q.
12A0: 21 80 77 6C 80 61 80 27  10 86 81 01 01 0B 45 0F  !.wl.a.'......E.
12B0: 80 F0 FF FF 7F F0 FF FF  7F 65 6E 30 38 00 80 1C  .........en08...
12C0: 3A 80 45 4E 80 F0 FF FF  7F F0 FF FF 7F 66 64 69  :.EN.........fdi
12D0: 31 00 80 1C 06 80 1C 72  80 45 4E 80 F0 FF FF 7F  1......r.EN.....
12E0: F0 FF FF 7F 66 64 6F 31  00 80 1C 06 80 1C 43 80  ....fdo1......C.
12F0: 6C 86 81 01 01 00 80 21  80 52 0F 80 F0 FF FF 7F  l......!.R......
1300: F0 FF FF 7F 65 6E 30 38  77 3A 80 61 80 45 0F 80  ....en08w:.a.E..
1310: F0 FF FF 7F F0 FF FF 7F  65 62 30 30 00 80 1C 03  ........eb00....
1320: 80 27 10 7A 81 01 01 0B  27 10 7B 81 01 01 0B 27  .'.z....'.{....'
1330: 10 7C 81 01 01 0B 45 4E  80 F0 FF FF 7F F0 FF FF  .|....EN........
1340: 7F 66 64 69 31 00 80 1C  06 80 1C 03 80 27 10 7D  .fdi1........'.}
1350: 81 01 01 0B 1C 05 80 2A  10 7C 81 01 01 1C 07 80  .......*.|......
1360: 27 10 7C 81 01 01 0C 1C  2B 80 27 10 7B 81 01 01  '.|.....+.'.{...
1370: 0D 1C 05 80 27 10 7A 81  01 01 0D 1C 35 80 52 0F  ....'.z.....5.R.
1380: 80 F0 FF FF 7F F0 FF FF  7F 65 62 30 30 45 0F 80  .........eb00E..
1390: F0 FF FF 7F F0 FF FF 7F  65 62 30 33 00 80 1C 03  ........eb03....
13A0: 80 29 10 7D 81 01 01 0C  1C 06 80 1A 28 17 1C 72  .).}........(..r
13B0: 80 52 0F 80 F0 FF FF 7F  F0 FF FF 7F 65 62 30 33  .R..........eb03
13C0: 38 02 80 35 73 80 78 1C  05 80 9F 74 80 F8 FF FF  8..5s.x....t....
13D0: 7F F8 FF FF 7F 00 FE FE  FE 00 80 AB 0A 1A 53 16  ..............S.
13E0: 1C 03 80 45 0F 80 F0 FF  FF 7F F0 FF FF 7F 65 66  ...E..........ef
13F0: 30 30 00 80 1A 07 17 1C  65 80 9F 74 80 F8 FF FF  00......e..t....
1400: 7F F8 FF FF 7F 73 74 72  30 00 80 1C 75 80 1A 28  .....str0...u..(
1410: 17 1C 06 80 68 69 00 4F  80 6C F0 FF FF 7F 71 80  ....hi.O.l....q.
1420: 21 80 52 0F 80 F0 FF FF  7F F0 FF FF 7F 65 66 30  !.R..........ef0
1430: 30 5C 00 4D 80 5C 01 4D  80 9A 46 00 45 4E 80 F0  0\.M.\.M..F.EN..
1440: FF FF 7F F0 FF FF 7F 66  64 69 32 00 80 21 00 29  .......fdi2..!.)
1450: 10 78 81 01 01 04 92 01  78 81 01 01 94 01 F0 FF  .x......x.......
1460: FF 7F 94 01 78 81 01 01  94 01 76 81 01 01 29 10  ....x.....v...).
1470: F0 FF FF 7F 15 29 10 78  81 01 01 0A 29 10 76 81  .....).x....).v.
1480: 01 01 02 80 F0 FF FF 7F  80 78 81 01 01 1B 29 10  .........x....).
1490: 78 81 01 01 04 29 10 79  81 01 01 04 29 10 7A 81  x....).y....).z.
14A0: 01 01 04 29 10 7B 81 01  01 04 29 10 7C 81 01 01  ...).{....).|...
14B0: 04 29 10 7D 81 01 01 04  29 10 7F 81 01 01 02 29  .).}....)......)
14C0: 10 80 81 01 01 04 29 10  81 81 01 01 04 29 10 82  ......)......)..
14D0: 81 01 01 04 29 10 83 81  01 01 04 29 10 84 81 01  ....)......)....
14E0: 01 04 29 10 85 81 01 01  04 29 10 86 81 01 01 02  ..)......)......
14F0: 92 01 78 81 01 01 92 01  79 81 01 01 92 01 7A 81  ..x.....y.....z.
1500: 01 01 92 01 7B 81 01 01  92 01 7C 81 01 01 92 01  ....{.....|.....
1510: 7D 81 01 01 92 01 7F 81  01 01 92 01 80 81 01 01  }...............
1520: 92 01 81 81 01 01 92 01  82 81 01 01 92 01 83 81  ................
1530: 01 01 92 01 84 81 01 01  92 01 85 81 01 01 92 01  ................
1540: 86 81 01 01 94 01 F0 FF  FF 7F 94 01 78 81 01 01  ............x...
1550: 94 01 79 81 01 01 94 01  7A 81 01 01 94 01 7B 81  ..y.....z.....{.
1560: 01 01 94 01 7C 81 01 01  94 01 7D 81 01 01 94 01  ....|.....}.....
1570: 7F 81 01 01 94 01 80 81  01 01 94 01 81 81 01 01  ................
1580: 94 01 82 81 01 01 94 01  83 81 01 01 94 01 84 81  ................
1590: 01 01 94 01 85 81 01 01  94 01 86 81 01 01 29 10  ..............).
15A0: F0 FF FF 7F 16 29 10 78  81 01 01 0B 29 10 79 81  .....).x....).y.
15B0: 01 01 0A 29 10 7A 81 01  01 0A 29 10 7B 81 01 01  ...).z....).{...
15C0: 0A 29 10 7C 81 01 01 0A  29 10 7D 81 01 01 0A 29  .).|....).}....)
15D0: 10 7F 81 01 01 0A 29 10  80 81 01 01 0A 29 10 81  ......)......)..
15E0: 81 01 01 0A 29 10 82 81  01 01 0A 29 10 83 81 01  ....)......)....
15F0: 01 0A 29 10 84 81 01 01  0A 29 10 85 81 01 01 0A  ..)......)......
1600: 29 10 86 81 01 01 0A 80  F0 FF FF 7F 80 78 81 01  )............x..
1610: 01 80 79 81 01 01 80 7A  81 01 01 80 7B 81 01 01  ..y....z....{...
1620: 80 7C 81 01 01 80 7D 81  01 01 80 7F 81 01 01 80  .|....}.........
1630: 80 81 01 01 80 81 81 01  01 80 82 81 01 01 80 83  ................
1640: 81 01 01 80 84 81 01 01  80 85 81 01 01 80 86 81  ................
1650: 01 01 1B 92 01 F0 FF FF  7F 6C F0 FF FF 7F 00 80  .........l......
1660: 21 80 27 10 78 81 01 01  05 27 10 79 81 01 01 05  !.'.x....'.y....
1670: 27 10 7A 81 01 01 05 27  10 7B 81 01 01 05 27 10  '.z....'.{....'.
1680: 7C 81 01 01 05 27 10 7D  81 01 01 05 27 10 7F 81  |....'.}....'...
1690: 01 01 05 27 10 80 81 01  01 05 27 10 81 81 01 01  ...'......'.....
16A0: 05 27 10 82 81 01 01 05  27 10 83 81 01 01 05 27  .'......'......'
16B0: 10 84 81 01 01 05 27 10  85 81 01 01 05 27 10 86  ......'......'..
16C0: 81 01 01 05 1B 45 4E 80  F0 FF FF 7F F0 FF FF 7F  .....EN.........
16D0: 66 64 69 30 00 80 55 4E  80 F0 FF FF 7F F0 FF FF  fdi0..UN........
16E0: 7F 66 64 69 30 1B 45 4E  80 F0 FF FF 7F F0 FF FF  .fdi0.EN........
16F0: 7F 66 64 6F 30 00 80 55  4E 80 F0 FF FF 7F F0 FF  .fdo0..UN.......
1700: FF 7F 66 64 6F 30 1B 45  4E 80 F0 FF FF 7F F0 FF  ..fdo0.EN.......
1710: FF 7F 66 64 69 31 00 80  55 4E 80 F0 FF FF 7F F0  ..fdi1..UN......
1720: FF FF 7F 66 64 69 31 1B  45 4E 80 F0 FF FF 7F F0  ...fdi1.EN......
1730: FF FF 7F 66 64 6F 31 00  80 55 4E 80 F0 FF FF 7F  ...fdo1..UN.....
1740: F0 FF FF 7F 66 64 6F 31  1B 45 5A 80 F0 FF FF 7F  ....fdo1.EZ.....
1750: F0 FF FF 7F 77 68 69 31  00 80 55 5A 80 F0 FF FF  ....whi1..UZ....
1760: 7F F0 FF FF 7F 77 68 69  31 1B 45 5A 80 F0 FF FF  .....whi1.EZ....
1770: 7F F0 FF FF 7F 77 68 6F  31 00 80 55 5A 80 F0 FF  .....who1..UZ...
1780: FF 7F F0 FF FF 7F 77 68  6F 31 1B 45 5A 80 F0 FF  ......who1.EZ...
1790: FF 7F F0 FF FF 7F 77 68  6F 32 00 80 55 5A 80 F0  ......who2..UZ..
17A0: FF FF 7F F0 FF FF 7F 77  68 6F 32 1B 45 5A 80 F0  .......who2.EZ..
17B0: FF FF 7F F0 FF FF 7F 77  68 6F 33 00 80 55 5A 80  .......who3..UZ.
17C0: F0 FF FF 7F F0 FF FF 7F  77 68 6F 33 1B 62 21 80  ........who3.b!.
17D0: F0 FF FF 7F F0 FF FF 7F  6D 61 69 6E 00 80 1C 07  ........main....
17E0: 80 45 4E 80 F0 FF FF 7F  F0 FF FF 7F 66 64 6F 31  .EN.........fdo1
17F0: 00 80 55 4E 80 F0 FF FF  7F F0 FF FF 7F 66 64 6F  ..UN.........fdo
1800: 31 1B 45 4E 80 F0 FF FF  7F F0 FF FF 7F 66 64 69  1.EN.........fdi
1810: 31 00 80 62 68 80 F0 FF  FF 7F F0 FF FF 7F 6D 61  1..bh.........ma
1820: 69 6E 00 80 1C 05 80 55  4E 80 F0 FF FF 7F F0 FF  in.....UN.......
1830: FF 7F 66 64 69 31 1B 45  4E 80 F0 FF FF 7F F0 FF  ..fdi1.EN.......
1840: FF 7F 62 6C 6F 6E 00 80  45 5A 80 F0 FF FF 7F F0  ..blon..EZ......
1850: FF FF 7F 62 6C 6F 6E 00  80 1B 45 5A 80 F0 FF FF  ...blon...EZ....
1860: 7F F0 FF FF 7F 77 68 69  30 00 80 55 5A 80 F0 FF  .....whi0..UZ...
1870: FF 7F F0 FF FF 7F 77 68  69 30 1B 45 5A 80 F0 FF  ......whi0.EZ...
1880: FF 7F F0 FF FF 7F 77 68  6F 30 00 80 55 5A 80 F0  ......who0..UZ..
1890: FF FF 7F F0 FF FF 7F 77  68 6F 30 1B 45 76 80 F0  .......who0.Ev..
18A0: FF FF 7F F0 FF FF 7F 65  66 6F 6E 00 80 55 76 80  .......efon..Uv.
18B0: F0 FF FF 7F F0 FF FF 7F  65 66 6F 6E 1B 45 4E 80  ........efon.EN.
18C0: F0 FF FF 7F F0 FF FF 7F  66 64 69 73 00 80 1B 45  ........fdis...E
18D0: 4E 80 F0 FF FF 7F F0 FF  FF 7F 66 64 6F 73 00 80  N.........fdos..
18E0: 55 4E 80 F0 FF FF 7F F0  FF FF 7F 66 64 6F 73 1B  UN.........fdos.
18F0: 45 4E 80 F0 FF FF 7F F0  FF FF 7F 66 64 69 66 00  EN.........fdif.
1900: 80 1B 45 4E 80 F0 FF FF  7F F0 FF FF 7F 66 64 6F  ..EN.........fdo
1910: 66 00 80 55 4E 80 F0 FF  FF 7F F0 FF FF 7F 66 64  f..UN.........fd
1920: 6F 66 1B 45 4E 80 F0 FF  FF 7F F0 FF FF 7F 66 64  of.EN.........fd
1930: 69 70 00 80 1B 45 4E 80  F0 FF FF 7F F0 FF FF 7F  ip...EN.........
1940: 66 64 6F 70 00 80 55 4E  80 F0 FF FF 7F F0 FF FF  fdop..UN........
1950: 7F 66 64 6F 70 1B                                 .fdop.          
```

#### Opcodes

```
  0: 0x0B0B [0x42] SET_CLI_EVENT_CANCEL_DATA()
  1: 0x0B0C [0x5D] SET_MUSIC_VOLUME(volume=0*, fade_time=120*)
  2: 0x0B11 [0x1A] CALL_SUBROUTINE(address=0x1728)
  3: 0x0B14 [0x46] CAMERA_CONTROL: Disable user control
  4: 0x0B16 [0x79] LocalPlayer looks at LocalPlayer (Basic look)
  5: 0x0B20 [0x1C] WAIT(60* ticks)
  6: 0x0B23 [0x69] SET_SOUND_VOLUME: Mute Effects/System/Zone/Master
  7: 0x0B27 [0x67] HIDE_HUD_ELEMENTS(param1=0x8050, param2=0x8051)
  8: 0x0B2C [0x38] SET_CLIENT_EVENT_MODE(mode=147*)
  9: 0x0B2F [0x34] LOAD_UNLOAD_ZONE(zone_id=25*)
 10: 0x0B32 [0x77] SET_EVENT_TIME_WEATHER(hour=16*, weather=1*)
 11: 0x0B37 [0x1C] WAIT(30* ticks)
 12: 0x0B3A [0xAB] EventEntity->UnknownFlag = 1 // Enable unknown flag
 13: 0x0B3C [0x1A] CALL_SUBROUTINE(address=0x148E)
 14: 0x0B3F [0x1C] WAIT(30* ticks)
 15: 0x0B42 [0x5B] LOAD_EXT_SCHEDULER: Load scheduler "sit2" with entities [Jabbos (ID: 16875904/0x01018180), Jabbos (ID: 16875904/0x01018180)], work=493*
 16: 0x0B51 [0x5B] LOAD_EXT_SCHEDULER: Load scheduler "hrp0" with entities [Ulmia (ID: 16875897/0x01018179), Ulmia (ID: 16875897/0x01018179)], work=421*
 17: 0x0B60 [0x5B] LOAD_EXT_SCHEDULER: Load scheduler "ep16" with entities [Prishe (ID: 16875896/0x01018178), Prishe (ID: 16875896/0x01018178)], work=795*
 18: 0x0B6F [0x5B] LOAD_EXT_SCHEDULER: Load scheduler "a300" with entities [Louverance (ID: 16875907/0x01018183), Louverance (ID: 16875907/0x01018183)], work=721*
 19: 0x0B7E [0x5B] LOAD_EXT_SCHEDULER: Load scheduler "ed03" with entities [Shikaree Z (ID: 16875905/0x01018181), Shikaree Z (ID: 16875905/0x01018181)], work=768*
 20: 0x0B8D [0x9F] LOAD_SCHEDULED_TASK_ALT: Load scheduler 0xFEFEFE00 with entities [Tenzen (ID: 16875903/0x0101817F), Tenzen (ID: 16875903/0x0101817F)], work=[74*, 0*]
 21: 0x0B9E [0x45] LOAD_SCHEDULED_TASK: Load scheduler 0xFEFEFE00 with entities [LocalPlayer, LocalPlayer], work=[200*, 0*]
 22: 0x0BAF [0x45] LOAD_SCHEDULED_TASK: Load scheduler 0xFEFEFE00 with entities [LocalPlayer, LocalPlayer], work=[201*, 0*]
 23: 0x0BC0 [0x45] LOAD_SCHEDULED_TASK: Load scheduler "fps0" with entities [LocalPlayer, LocalPlayer], work=[124*, 0*]
 24: 0x0BD1 [0x1C] WAIT(120* ticks)
 25: 0x0BD4 [0x5C] MUSIC_CONTROL: Set Idle (Day) music to song 900*
 26: 0x0BD8 [0x5C] MUSIC_CONTROL: Set Idle (Night) music to song 900*
 27: 0x0BDC [0x9A] WAIT_MUSIC_SERVER()
 28: 0x0BDD [0x1C] WAIT(840* ticks)
 29: 0x0BE0 [0x45] LOAD_SCHEDULED_TASK: Load scheduler "ea00" with entities [LocalPlayer, LocalPlayer], work=[124*, 0*]
 30: 0x0BF1 [0x45] LOAD_SCHEDULED_TASK: Load scheduler "fdi2" with entities [LocalPlayer, LocalPlayer], work=[200*, 0*]
 31: 0x0C02 [0x1C] WAIT(480* ticks)
 32: 0x0C05 [0x52] END_LOAD_SCHEDULER: End scheduler "ea00" with entities [LocalPlayer, LocalPlayer], work=124*
 33: 0x0C14 [0x45] LOAD_SCHEDULED_TASK: Load scheduler "ea02" with entities [LocalPlayer, LocalPlayer], work=[124*, 0*]
 34: 0x0C25 [0x1C] WAIT(1080* ticks)
 35: 0x0C28 [0x52] END_LOAD_SCHEDULER: End scheduler "ea02" with entities [LocalPlayer, LocalPlayer], work=124*
 36: 0x0C37 [0x45] LOAD_SCHEDULED_TASK: Load scheduler "ea03" with entities [LocalPlayer, LocalPlayer], work=[124*, 0*]
 37: 0x0C48 [0x1C] WAIT(105* ticks)
 38: 0x0C4B [0x45] LOAD_SCHEDULED_TASK: Load scheduler "fdo1" with entities [LocalPlayer, LocalPlayer], work=[200*, 0*]
 39: 0x0C5C [0x1C] WAIT(60* ticks)
 40: 0x0C5F [0x1C] WAIT(30* ticks)
 41: 0x0C62 [0x52] END_LOAD_SCHEDULER: End scheduler "ea03" with entities [LocalPlayer, LocalPlayer], work=124*
 42: 0x0C71 [0x77] SET_EVENT_TIME_WEATHER(hour=17*, weather=255*)
 43: 0x0C76 [0x45] LOAD_SCHEDULED_TASK: Load scheduler "en07" with entities [LocalPlayer, LocalPlayer], work=[124*, 0*]
 44: 0x0C87 [0x1C] WAIT(10* ticks)
 45: 0x0C8A [0x45] LOAD_SCHEDULED_TASK: Load scheduler "fdi1" with entities [LocalPlayer, LocalPlayer], work=[200*, 0*]
 46: 0x0C9B [0x1C] WAIT(60* ticks)
 47: 0x0C9E [0x1C] WAIT(180* ticks)
 48: 0x0CA1 [0x45] LOAD_SCHEDULED_TASK: Load scheduler "fdo1" with entities [LocalPlayer, LocalPlayer], work=[200*, 0*]
 49: 0x0CB2 [0x1C] WAIT(60* ticks)
 50: 0x0CB5 [0x1C] WAIT(30* ticks)
 51: 0x0CB8 [0x52] END_LOAD_SCHEDULER: End scheduler "en07" with entities [LocalPlayer, LocalPlayer], work=124*
 52: 0x0CC7 [0x77] SET_EVENT_TIME_WEATHER(hour=20*, weather=255*)
 53: 0x0CCC [0x45] LOAD_SCHEDULED_TASK: Load scheduler "eh01" with entities [LocalPlayer, LocalPlayer], work=[124*, 0*]
 54: 0x0CDD [0x1C] WAIT(10* ticks)
 55: 0x0CE0 [0x45] LOAD_SCHEDULED_TASK: Load scheduler "fdi1" with entities [LocalPlayer, LocalPlayer], work=[200*, 0*]
 56: 0x0CF1 [0x1C] WAIT(60* ticks)
 57: 0x0CF4 [0x1C] WAIT(30* ticks)
 58: 0x0CF7 [0x5B] LOAD_EXT_SCHEDULER: Load scheduler "a400" with entities [Louverance (ID: 16875907/0x01018183), Louverance (ID: 16875907/0x01018183)], work=721*
 59: 0x0D06 [0x1C] WAIT(105* ticks)
 60: 0x0D09 [0x45] LOAD_SCHEDULED_TASK: Load scheduler "fdo1" with entities [LocalPlayer, LocalPlayer], work=[200*, 0*]
 61: 0x0D1A [0x1C] WAIT(60* ticks)
 62: 0x0D1D [0x1C] WAIT(30* ticks)
 63: 0x0D20 [0x6B] STOP_AND_IDLE: Louverance (ID: 16875907/0x01018183) stops current action and resets to idle (animation="idl0")
 64: 0x0D29 [0x52] END_LOAD_SCHEDULER: End scheduler "eh01" with entities [LocalPlayer, LocalPlayer], work=124*
 65: 0x0D38 [0x29] REQ_SET_WAIT(priority=0x10, entity_id=Louverance (ID: 16875907/0x01018183), tag_num=0x0C)
 66: 0x0D3F [0x1C] WAIT(30* ticks)
 67: 0x0D42 [0x27] REQ_SET(priority=0x10, entity_id=Louverance (ID: 16875906/0x01018182), tag_num=0x0B)
 68: 0x0D49 [0x27] REQ_SET(priority=0x10, entity_id=Louverance (ID: 16875907/0x01018183), tag_num=0x0D)
 69: 0x0D50 [0x1C] WAIT(15* ticks)
 70: 0x0D53 [0x45] LOAD_SCHEDULED_TASK: Load scheduler "eh00" with entities [LocalPlayer, LocalPlayer], work=[124*, 0*]
 71: 0x0D64 [0x1C] WAIT(10* ticks)
 72: 0x0D67 [0x45] LOAD_SCHEDULED_TASK: Load scheduler "fdi1" with entities [LocalPlayer, LocalPlayer], work=[200*, 0*]
 73: 0x0D78 [0x1C] WAIT(60* ticks)
 74: 0x0D7B [0x1C] WAIT(240* ticks)
 75: 0x0D7E [0x52] END_LOAD_SCHEDULER: End scheduler "eh00" with entities [LocalPlayer, LocalPlayer], work=124*
 76: 0x0D8D [0x45] LOAD_SCHEDULED_TASK: Load scheduler "eh02" with entities [LocalPlayer, LocalPlayer], work=[124*, 0*]
 77: 0x0D9E [0x1C] WAIT(525* ticks)
 78: 0x0DA1 [0x45] LOAD_SCHEDULED_TASK: Load scheduler "fdo1" with entities [LocalPlayer, LocalPlayer], work=[200*, 0*]
 79: 0x0DB2 [0x1C] WAIT(60* ticks)
 80: 0x0DB5 [0x1C] WAIT(30* ticks)
 81: 0x0DB8 [0x52] END_LOAD_SCHEDULER: End scheduler "eh02" with entities [LocalPlayer, LocalPlayer], work=124*
 82: 0x0DC7 [0x77] SET_EVENT_TIME_WEATHER(hour=9*, weather=255*)
 83: 0x0DCC [0x45] LOAD_SCHEDULED_TASK: Load scheduler "ec00" with entities [LocalPlayer, LocalPlayer], work=[124*, 0*]
 84: 0x0DDD [0x1C] WAIT(10* ticks)
 85: 0x0DE0 [0x45] LOAD_SCHEDULED_TASK: Load scheduler "fdi1" with entities [LocalPlayer, LocalPlayer], work=[200*, 0*]
 86: 0x0DF1 [0x1C] WAIT(60* ticks)
 87: 0x0DF4 [0x55] WAIT_LOAD_SCHEDULER: Wait for scheduler "ec00" with entities [LocalPlayer, LocalPlayer], work=124*
 88: 0x0E03 [0x45] LOAD_SCHEDULED_TASK: Load scheduler "ec01" with entities [LocalPlayer, LocalPlayer], work=[124*, 0*]
 89: 0x0E14 [0x1C] WAIT(45* ticks)
 90: 0x0E17 [0x5B] LOAD_EXT_SCHEDULER: Load scheduler "ed04" with entities [Shikaree Z (ID: 16875905/0x01018181), Shikaree Z (ID: 16875905/0x01018181)], work=769*
 91: 0x0E26 [0x1C] WAIT(210* ticks)
 92: 0x0E29 [0x45] LOAD_SCHEDULED_TASK: Load scheduler "fdo1" with entities [LocalPlayer, LocalPlayer], work=[200*, 0*]
 93: 0x0E3A [0x1C] WAIT(60* ticks)
 94: 0x0E3D [0x1C] WAIT(30* ticks)
 95: 0x0E40 [0x52] END_LOAD_SCHEDULER: End scheduler "ec01" with entities [LocalPlayer, LocalPlayer], work=124*
 96: 0x0E4F [0x77] SET_EVENT_TIME_WEATHER(hour=6*, weather=255*)
 97: 0x0E54 [0x45] LOAD_SCHEDULED_TASK: Load scheduler "en01" with entities [LocalPlayer, LocalPlayer], work=[124*, 0*]
 98: 0x0E65 [0x1C] WAIT(10* ticks)
 99: 0x0E68 [0x45] LOAD_SCHEDULED_TASK: Load scheduler "fdi1" with entities [LocalPlayer, LocalPlayer], work=[200*, 0*]
100: 0x0E79 [0x1C] WAIT(60* ticks)
101: 0x0E7C [0x1C] WAIT(135* ticks)
102: 0x0E7F [0x45] LOAD_SCHEDULED_TASK: Load scheduler "fdo1" with entities [LocalPlayer, LocalPlayer], work=[200*, 0*]
103: 0x0E90 [0x1C] WAIT(60* ticks)
104: 0x0E93 [0x1C] WAIT(30* ticks)
105: 0x0E96 [0x52] END_LOAD_SCHEDULER: End scheduler "en01" with entities [LocalPlayer, LocalPlayer], work=124*
106: 0x0EA5 [0x77] SET_EVENT_TIME_WEATHER(hour=8*, weather=255*)
107: 0x0EAA [0x45] LOAD_SCHEDULED_TASK: Load scheduler "ed00" with entities [LocalPlayer, LocalPlayer], work=[124*, 0*]
108: 0x0EBB [0x1C] WAIT(10* ticks)
109: 0x0EBE [0x45] LOAD_SCHEDULED_TASK: Load scheduler "fdi1" with entities [LocalPlayer, LocalPlayer], work=[200*, 0*]
110: 0x0ECF [0x1C] WAIT(60* ticks)
111: 0x0ED2 [0x1C] WAIT(120* ticks)
112: 0x0ED5 [0x27] REQ_SET(priority=0x10, entity_id=Unnamed NPC (ID: 16875909/0x01018185), tag_num=0x0B)
113: 0x0EDC [0x5B] LOAD_EXT_SCHEDULER: Load scheduler "sit1" with entities [Jabbos (ID: 16875904/0x01018180), Jabbos (ID: 16875904/0x01018180)], work=493*
114: 0x0EEB [0x52] END_LOAD_SCHEDULER: End scheduler "ed00" with entities [LocalPlayer, LocalPlayer], work=124*
115: 0x0EFA [0x45] LOAD_SCHEDULED_TASK: Load scheduler "ed01" with entities [LocalPlayer, LocalPlayer], work=[124*, 0*]
116: 0x0F0B [0x1C] WAIT(180* ticks)
117: 0x0F0E [0x4A] Jabbos (ID: 16875904/0x01018180) looks at Unnamed NPC (ID: 16875909/0x01018185)
118: 0x0F17 [0x1C] WAIT(135* ticks)
119: 0x0F1A [0x45] LOAD_SCHEDULED_TASK: Load scheduler "fdo1" with entities [LocalPlayer, LocalPlayer], work=[200*, 0*]
120: 0x0F2B [0x1C] WAIT(60* ticks)
121: 0x0F2E [0x1C] WAIT(30* ticks)
122: 0x0F31 [0x52] END_LOAD_SCHEDULER: End scheduler "ed01" with entities [LocalPlayer, LocalPlayer], work=124*
123: 0x0F40 [0x77] SET_EVENT_TIME_WEATHER(hour=2*, weather=255*)
124: 0x0F45 [0x45] LOAD_SCHEDULED_TASK: Load scheduler "eg00" with entities [LocalPlayer, LocalPlayer], work=[124*, 0*]
125: 0x0F56 [0x1C] WAIT(10* ticks)
126: 0x0F59 [0x45] LOAD_SCHEDULED_TASK: Load scheduler "fdi1" with entities [LocalPlayer, LocalPlayer], work=[200*, 0*]
127: 0x0F6A [0x1C] WAIT(60* ticks)
128: 0x0F6D [0x9F] LOAD_SCHEDULED_TASK_ALT: Load scheduler "main" with entities [Tenzen (ID: 16875903/0x0101817F), Tenzen (ID: 16875903/0x0101817F)], work=[74*, 0*]
129: 0x0F7E [0x1C] WAIT(90* ticks)
130: 0x0F81 [0x29] REQ_SET_WAIT(priority=0x10, entity_id=Tenzen (ID: 16875903/0x0101817F), tag_num=0x0C)
131: 0x0F88 [0x5B] LOAD_EXT_SCHEDULER: Load scheduler "lup0" with entities [Tenzen (ID: 16875903/0x0101817F), Tenzen (ID: 16875903/0x0101817F)], work=639*
132: 0x0F97 [0x1C] WAIT(315* ticks)
133: 0x0F9A [0x45] LOAD_SCHEDULED_TASK: Load scheduler "fdo1" with entities [LocalPlayer, LocalPlayer], work=[200*, 0*]
134: 0x0FAB [0x1C] WAIT(60* ticks)
135: 0x0FAE [0x1C] WAIT(30* ticks)
136: 0x0FB1 [0x77] SET_EVENT_TIME_WEATHER(hour=7*, weather=255*)
137: 0x0FB6 [0x52] END_LOAD_SCHEDULER: End scheduler "eg00" with entities [LocalPlayer, LocalPlayer], work=124*
138: 0x0FC5 [0x45] LOAD_SCHEDULED_TASK: Load scheduler "eg01" with entities [LocalPlayer, LocalPlayer], work=[124*, 0*]
139: 0x0FD6 [0x1C] WAIT(10* ticks)
140: 0x0FD9 [0x45] LOAD_SCHEDULED_TASK: Load scheduler "fdi1" with entities [LocalPlayer, LocalPlayer], work=[200*, 0*]
141: 0x0FEA [0x1C] WAIT(60* ticks)
142: 0x0FED [0x1C] WAIT(405* ticks)
143: 0x0FF0 [0x45] LOAD_SCHEDULED_TASK: Load scheduler "ewos" with entities [LocalPlayer, LocalPlayer], work=[124*, 0*]
144: 0x1001 [0x1C] WAIT(90* ticks)
145: 0x1004 [0x52] END_LOAD_SCHEDULER: End scheduler "eg01" with entities [LocalPlayer, LocalPlayer], work=124*
146: 0x1013 [0x29] REQ_SET_WAIT(priority=0x10, entity_id=Jabbos (ID: 16875904/0x01018180), tag_num=0x0B)
147: 0x101A [0x29] REQ_SET_WAIT(priority=0x10, entity_id=Tenzen (ID: 16875903/0x0101817F), tag_num=0x0B)
148: 0x1021 [0x29] REQ_SET_WAIT(priority=0x10, entity_id=Louverance (ID: 16875907/0x01018183), tag_num=0x0B)
149: 0x1028 [0x29] REQ_SET_WAIT(priority=0x10, entity_id=Shikaree Z (ID: 16875905/0x01018181), tag_num=0x0B)
150: 0x102F [0x1C] WAIT(30* ticks)
151: 0x1032 [0x77] SET_EVENT_TIME_WEATHER(hour=18*, weather=255*)
152: 0x1037 [0x45] LOAD_SCHEDULED_TASK: Load scheduler "ee02" with entities [LocalPlayer, LocalPlayer], work=[124*, 0*]
153: 0x1048 [0x1C] WAIT(10* ticks)
154: 0x104B [0x45] LOAD_SCHEDULED_TASK: Load scheduler "whi1" with entities [LocalPlayer, LocalPlayer], work=[201*, 0*]
155: 0x105C [0x1C] WAIT(60* ticks)
156: 0x105F [0x1C] WAIT(480* ticks)
157: 0x1062 [0x52] END_LOAD_SCHEDULER: End scheduler "ee02" with entities [LocalPlayer, LocalPlayer], work=124*
158: 0x1071 [0x45] LOAD_SCHEDULED_TASK: Load scheduler "ee00" with entities [LocalPlayer, LocalPlayer], work=[124*, 0*]
159: 0x1082 [0x1C] WAIT(240* ticks)
160: 0x1085 [0x5B] LOAD_EXT_SCHEDULER: Load scheduler "ep17" with entities [Prishe (ID: 16875896/0x01018178), Prishe (ID: 16875896/0x01018178)], work=795*
161: 0x1094 [0x1C] WAIT(90* ticks)
162: 0x1097 [0x5B] LOAD_EXT_SCHEDULER: Load scheduler "hrp1" with entities [Ulmia (ID: 16875897/0x01018179), Ulmia (ID: 16875897/0x01018179)], work=421*
163: 0x10A6 [0x1C] WAIT(60* ticks)
164: 0x10A9 [0x27] REQ_SET(priority=0x10, entity_id=Unnamed NPC (ID: 16875894/0x01018176), tag_num=0x05)
165: 0x10B0 [0x1C] WAIT(15* ticks)
166: 0x10B3 [0x52] END_LOAD_SCHEDULER: End scheduler "ee00" with entities [LocalPlayer, LocalPlayer], work=124*
167: 0x10C2 [0x45] LOAD_SCHEDULED_TASK: Load scheduler "ee01" with entities [LocalPlayer, LocalPlayer], work=[124*, 0*]
168: 0x10D3 [0x1C] WAIT(405* ticks)
169: 0x10D6 [0x45] LOAD_SCHEDULED_TASK: Load scheduler "fdo1" with entities [LocalPlayer, LocalPlayer], work=[200*, 0*]
170: 0x10E7 [0x1C] WAIT(60* ticks)
171: 0x10EA [0x1C] WAIT(30* ticks)
172: 0x10ED [0x52] END_LOAD_SCHEDULER: End scheduler "ee01" with entities [LocalPlayer, LocalPlayer], work=124*
173: 0x10FC [0x27] REQ_SET(priority=0x10, entity_id=Prishe (ID: 16875896/0x01018178), tag_num=0x05)
174: 0x1103 [0x27] REQ_SET(priority=0x10, entity_id=Ulmia (ID: 16875897/0x01018179), tag_num=0x05)
175: 0x110A [0x27] REQ_SET(priority=0x10, entity_id=Tenzen (ID: 16875903/0x0101817F), tag_num=0x05)
176: 0x1111 [0x27] REQ_SET(priority=0x10, entity_id=Jabbos (ID: 16875904/0x01018180), tag_num=0x05)
177: 0x1118 [0x27] REQ_SET(priority=0x10, entity_id=Shikaree Z (ID: 16875905/0x01018181), tag_num=0x05)
178: 0x111F [0x27] REQ_SET(priority=0x10, entity_id=Louverance (ID: 16875906/0x01018182), tag_num=0x05)
179: 0x1126 [0x27] REQ_SET(priority=0x10, entity_id=Louverance (ID: 16875907/0x01018183), tag_num=0x05)
180: 0x112D [0x27] REQ_SET(priority=0x10, entity_id=Unnamed NPC (ID: 16875908/0x01018184), tag_num=0x05)
181: 0x1134 [0x27] REQ_SET(priority=0x10, entity_id=Unnamed NPC (ID: 16875909/0x01018185), tag_num=0x05)
182: 0x113B [0x1C] WAIT(15* ticks)
183: 0x113E [0x77] SET_EVENT_TIME_WEATHER(hour=15*, weather=255*)
184: 0x1143 [0x45] LOAD_SCHEDULED_TASK: Load scheduler "en09" with entities [LocalPlayer, LocalPlayer], work=[124*, 0*]
185: 0x1154 [0x1C] WAIT(10* ticks)
186: 0x1157 [0x45] LOAD_SCHEDULED_TASK: Load scheduler "fdi1" with entities [LocalPlayer, LocalPlayer], work=[200*, 0*]
187: 0x1168 [0x1C] WAIT(60* ticks)
188: 0x116B [0x1C] WAIT(360* ticks)
189: 0x116E [0x45] LOAD_SCHEDULED_TASK: Load scheduler "fdo1" with entities [LocalPlayer, LocalPlayer], work=[200*, 0*]
190: 0x117F [0x1C] WAIT(60* ticks)
191: 0x1182 [0x1C] WAIT(30* ticks)
192: 0x1185 [0x52] END_LOAD_SCHEDULER: End scheduler "en09" with entities [LocalPlayer, LocalPlayer], work=124*
193: 0x1194 [0x77] SET_EVENT_TIME_WEATHER(hour=17*, weather=255*)
194: 0x1199 [0x45] LOAD_SCHEDULED_TASK: Load scheduler "en00" with entities [LocalPlayer, LocalPlayer], work=[124*, 0*]
195: 0x11AA [0x1C] WAIT(10* ticks)
196: 0x11AD [0x45] LOAD_SCHEDULED_TASK: Load scheduler "fdi1" with entities [LocalPlayer, LocalPlayer], work=[200*, 0*]
197: 0x11BE [0x1C] WAIT(60* ticks)
198: 0x11C1 [0x1C] WAIT(360* ticks)
199: 0x11C4 [0x1C] WAIT(45* ticks)
200: 0x11C7 [0x45] LOAD_SCHEDULED_TASK: Load scheduler "fdo1" with entities [LocalPlayer, LocalPlayer], work=[200*, 0*]
201: 0x11D8 [0x1C] WAIT(60* ticks)
202: 0x11DB [0x1C] WAIT(30* ticks)
203: 0x11DE [0x52] END_LOAD_SCHEDULER: End scheduler "en00" with entities [LocalPlayer, LocalPlayer], work=124*
204: 0x11ED [0x77] SET_EVENT_TIME_WEATHER(hour=12*, weather=255*)
205: 0x11F2 [0x45] LOAD_SCHEDULED_TASK: Load scheduler "en06" with entities [LocalPlayer, LocalPlayer], work=[124*, 0*]
206: 0x1203 [0x1C] WAIT(10* ticks)
207: 0x1206 [0x45] LOAD_SCHEDULED_TASK: Load scheduler "fdi1" with entities [LocalPlayer, LocalPlayer], work=[200*, 0*]
208: 0x1217 [0x1C] WAIT(60* ticks)
209: 0x121A [0x1C] WAIT(360* ticks)
210: 0x121D [0x45] LOAD_SCHEDULED_TASK: Load scheduler "fdo1" with entities [LocalPlayer, LocalPlayer], work=[200*, 0*]
211: 0x122E [0x1C] WAIT(60* ticks)
212: 0x1231 [0x1C] WAIT(30* ticks)
213: 0x1234 [0x52] END_LOAD_SCHEDULER: End scheduler "en06" with entities [LocalPlayer, LocalPlayer], work=124*
214: 0x1243 [0x77] SET_EVENT_TIME_WEATHER(hour=13*, weather=255*)
215: 0x1248 [0x45] LOAD_SCHEDULED_TASK: Load scheduler "en04" with entities [LocalPlayer, LocalPlayer], work=[124*, 0*]
216: 0x1259 [0x1C] WAIT(10* ticks)
217: 0x125C [0x45] LOAD_SCHEDULED_TASK: Load scheduler "fdi1" with entities [LocalPlayer, LocalPlayer], work=[200*, 0*]
218: 0x126D [0x1C] WAIT(60* ticks)
219: 0x1270 [0x1C] WAIT(420* ticks)
220: 0x1273 [0x45] LOAD_SCHEDULED_TASK: Load scheduler "fdo1" with entities [LocalPlayer, LocalPlayer], work=[200*, 0*]
221: 0x1284 [0x1C] WAIT(60* ticks)
222: 0x1287 [0x1C] WAIT(30* ticks)
223: 0x128A [0x52] END_LOAD_SCHEDULER: End scheduler "en04" with entities [LocalPlayer, LocalPlayer], work=124*
224: 0x1299 [0x6C] FADE_ENTITY_COLOR(entity_id=Mildaurion (ID: 16875910/0x01018186), end_alpha=128*, fade_time=1*)
225: 0x12A2 [0x77] SET_EVENT_TIME_WEATHER(hour=18*, weather=255*)
226: 0x12A7 [0x27] REQ_SET(priority=0x10, entity_id=Mildaurion (ID: 16875910/0x01018186), tag_num=0x0B)
227: 0x12AE [0x45] LOAD_SCHEDULED_TASK: Load scheduler "en08" with entities [LocalPlayer, LocalPlayer], work=[124*, 0*]
228: 0x12BF [0x1C] WAIT(10* ticks)
229: 0x12C2 [0x45] LOAD_SCHEDULED_TASK: Load scheduler "fdi1" with entities [LocalPlayer, LocalPlayer], work=[200*, 0*]
230: 0x12D3 [0x1C] WAIT(60* ticks)
231: 0x12D6 [0x1C] WAIT(600* ticks)
232: 0x12D9 [0x45] LOAD_SCHEDULED_TASK: Load scheduler "fdo1" with entities [LocalPlayer, LocalPlayer], work=[200*, 0*]
233: 0x12EA [0x1C] WAIT(60* ticks)
234: 0x12ED [0x1C] WAIT(180* ticks)
235: 0x12F0 [0x6C] FADE_ENTITY_COLOR(entity_id=Mildaurion (ID: 16875910/0x01018186), end_alpha=0*, fade_time=1*)
236: 0x12F9 [0x52] END_LOAD_SCHEDULER: End scheduler "en08" with entities [LocalPlayer, LocalPlayer], work=124*
237: 0x1308 [0x77] SET_EVENT_TIME_WEATHER(hour=10*, weather=255*)
238: 0x130D [0x45] LOAD_SCHEDULED_TASK: Load scheduler "eb00" with entities [LocalPlayer, LocalPlayer], work=[124*, 0*]
239: 0x131E [0x1C] WAIT(15* ticks)
240: 0x1321 [0x27] REQ_SET(priority=0x10, entity_id=Makki-Chebukki (ID: 16875898/0x0101817A), tag_num=0x0B)
241: 0x1328 [0x27] REQ_SET(priority=0x10, entity_id=Kukki-Chebukki (ID: 16875899/0x0101817B), tag_num=0x0B)
242: 0x132F [0x27] REQ_SET(priority=0x10, entity_id=Cherukiki (ID: 16875900/0x0101817C), tag_num=0x0B)
243: 0x1336 [0x45] LOAD_SCHEDULED_TASK: Load scheduler "fdi1" with entities [LocalPlayer, LocalPlayer], work=[200*, 0*]
244: 0x1347 [0x1C] WAIT(60* ticks)
245: 0x134A [0x1C] WAIT(15* ticks)
246: 0x134D [0x27] REQ_SET(priority=0x10, entity_id=Vukki-Chebukki (ID: 16875901/0x0101817D), tag_num=0x0B)
247: 0x1354 [0x1C] WAIT(30* ticks)
248: 0x1357 [0x2A] GET_REQ_LEVEL(level=16, entity_id=Cherukiki (ID: 16875900/0x0101817C))
249: 0x135D [0x1C] WAIT(45* ticks)
250: 0x1360 [0x27] REQ_SET(priority=0x10, entity_id=Cherukiki (ID: 16875900/0x0101817C), tag_num=0x0C)
251: 0x1367 [0x1C] WAIT(20* ticks)
252: 0x136A [0x27] REQ_SET(priority=0x10, entity_id=Kukki-Chebukki (ID: 16875899/0x0101817B), tag_num=0x0D)
253: 0x1371 [0x1C] WAIT(30* ticks)
254: 0x1374 [0x27] REQ_SET(priority=0x10, entity_id=Makki-Chebukki (ID: 16875898/0x0101817A), tag_num=0x0D)
255: 0x137B [0x1C] WAIT(75* ticks)
256: 0x137E [0x52] END_LOAD_SCHEDULER: End scheduler "eb00" with entities [LocalPlayer, LocalPlayer], work=124*
257: 0x138D [0x45] LOAD_SCHEDULED_TASK: Load scheduler "eb03" with entities [LocalPlayer, LocalPlayer], work=[124*, 0*]
258: 0x139E [0x1C] WAIT(15* ticks)
259: 0x13A1 [0x29] REQ_SET_WAIT(priority=0x10, entity_id=Vukki-Chebukki (ID: 16875901/0x0101817D), tag_num=0x0C)
260: 0x13A8 [0x1C] WAIT(60* ticks)
261: 0x13AB [0x1A] CALL_SUBROUTINE(address=0x1728)
262: 0x13AE [0x1C] WAIT(600* ticks)
263: 0x13B1 [0x52] END_LOAD_SCHEDULER: End scheduler "eb03" with entities [LocalPlayer, LocalPlayer], work=124*
264: 0x13C0 [0x38] SET_CLIENT_EVENT_MODE(mode=19*)
265: 0x13C3 [0x35] LOAD_ZONE_NO_CLOSE(zone_id=24*)
266: 0x13C6 [0x78] ENABLE_GAME_TIMER_RESET_WEATHER()
267: 0x13C7 [0x1C] WAIT(30* ticks)
268: 0x13CA [0x9F] LOAD_SCHEDULED_TASK_ALT: Load scheduler 0xFEFEFE00 with entities [EventEntity, EventEntity], work=[160*, 0*]
269: 0x13DB [0xAB] EventEntity->UnknownFlag = 0 // Disable unknown flag
270: 0x13DD [0x1A] CALL_SUBROUTINE(address=0x1653)
271: 0x13E0 [0x1C] WAIT(15* ticks)
272: 0x13E3 [0x45] LOAD_SCHEDULED_TASK: Load scheduler "ef00" with entities [LocalPlayer, LocalPlayer], work=[124*, 0*]
273: 0x13F4 [0x1A] CALL_SUBROUTINE(address=0x1707)
274: 0x13F7 [0x1C] WAIT(210* ticks)
275: 0x13FA [0x9F] LOAD_SCHEDULED_TASK_ALT: Load scheduler "str0" with entities [EventEntity, EventEntity], work=[160*, 0*]
276: 0x140B [0x1C] WAIT(270* ticks)
277: 0x140E [0x1A] CALL_SUBROUTINE(address=0x1728)
278: 0x1411 [0x1C] WAIT(60* ticks)
279: 0x1414 [0x68] SHOW_HUD_ELEMENTS()
280: 0x1415 [0x69] SET_SOUND_VOLUME: Unmute Effects/System/Zone/Master
281: 0x1419 [0x6C] FADE_ENTITY_COLOR(entity_id=LocalPlayer, end_alpha=128*, fade_time=1*)
282: 0x1422 [0x52] END_LOAD_SCHEDULER: End scheduler "ef00" with entities [LocalPlayer, LocalPlayer], work=124*
283: 0x1431 [0x5C] MUSIC_CONTROL: Set Idle (Day) music to song 230*
284: 0x1435 [0x5C] MUSIC_CONTROL: Set Idle (Night) music to song 230*
285: 0x1439 [0x9A] WAIT_MUSIC_SERVER()
286: 0x143A [0x46] CAMERA_CONTROL: Restore default settings
287: 0x143C [0x45] LOAD_SCHEDULED_TASK: Load scheduler "fdi2" with entities [LocalPlayer, LocalPlayer], work=[200*, 0*]
288: 0x144D [0x21] END_EVENT
289: 0x144E [0x00] END_REQSTACK()

SUBROUTINE_148E:
290: 0x148E [0x29] REQ_SET_WAIT(priority=0x10, entity_id=Prishe (ID: 16875896/0x01018178), tag_num=0x04)
291: 0x1495 [0x29] REQ_SET_WAIT(priority=0x10, entity_id=Ulmia (ID: 16875897/0x01018179), tag_num=0x04)
292: 0x149C [0x29] REQ_SET_WAIT(priority=0x10, entity_id=Makki-Chebukki (ID: 16875898/0x0101817A), tag_num=0x04)
293: 0x14A3 [0x29] REQ_SET_WAIT(priority=0x10, entity_id=Kukki-Chebukki (ID: 16875899/0x0101817B), tag_num=0x04)
294: 0x14AA [0x29] REQ_SET_WAIT(priority=0x10, entity_id=Cherukiki (ID: 16875900/0x0101817C), tag_num=0x04)
295: 0x14B1 [0x29] REQ_SET_WAIT(priority=0x10, entity_id=Vukki-Chebukki (ID: 16875901/0x0101817D), tag_num=0x04)
296: 0x14B8 [0x29] REQ_SET_WAIT(priority=0x10, entity_id=Tenzen (ID: 16875903/0x0101817F), tag_num=0x02)
297: 0x14BF [0x29] REQ_SET_WAIT(priority=0x10, entity_id=Jabbos (ID: 16875904/0x01018180), tag_num=0x04)
298: 0x14C6 [0x29] REQ_SET_WAIT(priority=0x10, entity_id=Shikaree Z (ID: 16875905/0x01018181), tag_num=0x04)
299: 0x14CD [0x29] REQ_SET_WAIT(priority=0x10, entity_id=Louverance (ID: 16875906/0x01018182), tag_num=0x04)
300: 0x14D4 [0x29] REQ_SET_WAIT(priority=0x10, entity_id=Louverance (ID: 16875907/0x01018183), tag_num=0x04)
301: 0x14DB [0x29] REQ_SET_WAIT(priority=0x10, entity_id=Unnamed NPC (ID: 16875908/0x01018184), tag_num=0x04)
302: 0x14E2 [0x29] REQ_SET_WAIT(priority=0x10, entity_id=Unnamed NPC (ID: 16875909/0x01018185), tag_num=0x04)
303: 0x14E9 [0x29] REQ_SET_WAIT(priority=0x10, entity_id=Mildaurion (ID: 16875910/0x01018186), tag_num=0x02)
304: 0x14F0 [0x92] Prishe (ID: 16875896/0x01018178)->Render.Flags3 ^= 0x01
305: 0x14F6 [0x92] Ulmia (ID: 16875897/0x01018179)->Render.Flags3 ^= 0x01
306: 0x14FC [0x92] Makki-Chebukki (ID: 16875898/0x0101817A)->Render.Flags3 ^= 0x01
307: 0x1502 [0x92] Kukki-Chebukki (ID: 16875899/0x0101817B)->Render.Flags3 ^= 0x01
308: 0x1508 [0x92] Cherukiki (ID: 16875900/0x0101817C)->Render.Flags3 ^= 0x01
309: 0x150E [0x92] Vukki-Chebukki (ID: 16875901/0x0101817D)->Render.Flags3 ^= 0x01
310: 0x1514 [0x92] Tenzen (ID: 16875903/0x0101817F)->Render.Flags3 ^= 0x01
311: 0x151A [0x92] Jabbos (ID: 16875904/0x01018180)->Render.Flags3 ^= 0x01
312: 0x1520 [0x92] Shikaree Z (ID: 16875905/0x01018181)->Render.Flags3 ^= 0x01
313: 0x1526 [0x92] Louverance (ID: 16875906/0x01018182)->Render.Flags3 ^= 0x01
314: 0x152C [0x92] Louverance (ID: 16875907/0x01018183)->Render.Flags3 ^= 0x01
315: 0x1532 [0x92] Unnamed NPC (ID: 16875908/0x01018184)->Render.Flags3 ^= 0x01
316: 0x1538 [0x92] Unnamed NPC (ID: 16875909/0x01018185)->Render.Flags3 ^= 0x01
317: 0x153E [0x92] Mildaurion (ID: 16875910/0x01018186)->Render.Flags3 ^= 0x01
318: 0x1544 [0x94] LocalPlayer->Render.Flags3 ^= 0x01
319: 0x154A [0x94] Prishe (ID: 16875896/0x01018178)->Render.Flags3 ^= 0x01
320: 0x1550 [0x94] Ulmia (ID: 16875897/0x01018179)->Render.Flags3 ^= 0x01
321: 0x1556 [0x94] Makki-Chebukki (ID: 16875898/0x0101817A)->Render.Flags3 ^= 0x01
322: 0x155C [0x94] Kukki-Chebukki (ID: 16875899/0x0101817B)->Render.Flags3 ^= 0x01
323: 0x1562 [0x94] Cherukiki (ID: 16875900/0x0101817C)->Render.Flags3 ^= 0x01
324: 0x1568 [0x94] Vukki-Chebukki (ID: 16875901/0x0101817D)->Render.Flags3 ^= 0x01
325: 0x156E [0x94] Tenzen (ID: 16875903/0x0101817F)->Render.Flags3 ^= 0x01
326: 0x1574 [0x94] Jabbos (ID: 16875904/0x01018180)->Render.Flags3 ^= 0x01
327: 0x157A [0x94] Shikaree Z (ID: 16875905/0x01018181)->Render.Flags3 ^= 0x01
328: 0x1580 [0x94] Louverance (ID: 16875906/0x01018182)->Render.Flags3 ^= 0x01
329: 0x1586 [0x94] Louverance (ID: 16875907/0x01018183)->Render.Flags3 ^= 0x01
330: 0x158C [0x94] Unnamed NPC (ID: 16875908/0x01018184)->Render.Flags3 ^= 0x01
331: 0x1592 [0x94] Unnamed NPC (ID: 16875909/0x01018185)->Render.Flags3 ^= 0x01
332: 0x1598 [0x94] Mildaurion (ID: 16875910/0x01018186)->Render.Flags3 ^= 0x01
333: 0x159E [0x29] REQ_SET_WAIT(priority=0x10, entity_id=LocalPlayer, tag_num=0x16)
334: 0x15A5 [0x29] REQ_SET_WAIT(priority=0x10, entity_id=Prishe (ID: 16875896/0x01018178), tag_num=0x0B)
335: 0x15AC [0x29] REQ_SET_WAIT(priority=0x10, entity_id=Ulmia (ID: 16875897/0x01018179), tag_num=0x0A)
336: 0x15B3 [0x29] REQ_SET_WAIT(priority=0x10, entity_id=Makki-Chebukki (ID: 16875898/0x0101817A), tag_num=0x0A)
337: 0x15BA [0x29] REQ_SET_WAIT(priority=0x10, entity_id=Kukki-Chebukki (ID: 16875899/0x0101817B), tag_num=0x0A)
338: 0x15C1 [0x29] REQ_SET_WAIT(priority=0x10, entity_id=Cherukiki (ID: 16875900/0x0101817C), tag_num=0x0A)
339: 0x15C8 [0x29] REQ_SET_WAIT(priority=0x10, entity_id=Vukki-Chebukki (ID: 16875901/0x0101817D), tag_num=0x0A)
340: 0x15CF [0x29] REQ_SET_WAIT(priority=0x10, entity_id=Tenzen (ID: 16875903/0x0101817F), tag_num=0x0A)
341: 0x15D6 [0x29] REQ_SET_WAIT(priority=0x10, entity_id=Jabbos (ID: 16875904/0x01018180), tag_num=0x0A)
342: 0x15DD [0x29] REQ_SET_WAIT(priority=0x10, entity_id=Shikaree Z (ID: 16875905/0x01018181), tag_num=0x0A)
343: 0x15E4 [0x29] REQ_SET_WAIT(priority=0x10, entity_id=Louverance (ID: 16875906/0x01018182), tag_num=0x0A)
344: 0x15EB [0x29] REQ_SET_WAIT(priority=0x10, entity_id=Louverance (ID: 16875907/0x01018183), tag_num=0x0A)
345: 0x15F2 [0x29] REQ_SET_WAIT(priority=0x10, entity_id=Unnamed NPC (ID: 16875908/0x01018184), tag_num=0x0A)
346: 0x15F9 [0x29] REQ_SET_WAIT(priority=0x10, entity_id=Unnamed NPC (ID: 16875909/0x01018185), tag_num=0x0A)
347: 0x1600 [0x29] REQ_SET_WAIT(priority=0x10, entity_id=Mildaurion (ID: 16875910/0x01018186), tag_num=0x0A)
348: 0x1607 [0x80] LOAD_WAIT(entity=LocalPlayer)
349: 0x160C [0x80] LOAD_WAIT(entity=Prishe (ID: 16875896/0x01018178))
350: 0x1611 [0x80] LOAD_WAIT(entity=Ulmia (ID: 16875897/0x01018179))
351: 0x1616 [0x80] LOAD_WAIT(entity=Makki-Chebukki (ID: 16875898/0x0101817A))
352: 0x161B [0x80] LOAD_WAIT(entity=Kukki-Chebukki (ID: 16875899/0x0101817B))
353: 0x1620 [0x80] LOAD_WAIT(entity=Cherukiki (ID: 16875900/0x0101817C))
354: 0x1625 [0x80] LOAD_WAIT(entity=Vukki-Chebukki (ID: 16875901/0x0101817D))
355: 0x162A [0x80] LOAD_WAIT(entity=Tenzen (ID: 16875903/0x0101817F))
356: 0x162F [0x80] LOAD_WAIT(entity=Jabbos (ID: 16875904/0x01018180))
357: 0x1634 [0x80] LOAD_WAIT(entity=Shikaree Z (ID: 16875905/0x01018181))
358: 0x1639 [0x80] LOAD_WAIT(entity=Louverance (ID: 16875906/0x01018182))
359: 0x163E [0x80] LOAD_WAIT(entity=Louverance (ID: 16875907/0x01018183))
360: 0x1643 [0x80] LOAD_WAIT(entity=Unnamed NPC (ID: 16875908/0x01018184))
361: 0x1648 [0x80] LOAD_WAIT(entity=Unnamed NPC (ID: 16875909/0x01018185))
362: 0x164D [0x80] LOAD_WAIT(entity=Mildaurion (ID: 16875910/0x01018186))
363: 0x1652 [0x1B] RETURN

SUBROUTINE_1653:
364: 0x1653 [0x92] LocalPlayer->Render.Flags3 ^= 0x01
365: 0x1659 [0x6C] FADE_ENTITY_COLOR(entity_id=LocalPlayer, end_alpha=0*, fade_time=1*)
366: 0x1662 [0x27] REQ_SET(priority=0x10, entity_id=Prishe (ID: 16875896/0x01018178), tag_num=0x05)
367: 0x1669 [0x27] REQ_SET(priority=0x10, entity_id=Ulmia (ID: 16875897/0x01018179), tag_num=0x05)
368: 0x1670 [0x27] REQ_SET(priority=0x10, entity_id=Makki-Chebukki (ID: 16875898/0x0101817A), tag_num=0x05)
369: 0x1677 [0x27] REQ_SET(priority=0x10, entity_id=Kukki-Chebukki (ID: 16875899/0x0101817B), tag_num=0x05)
370: 0x167E [0x27] REQ_SET(priority=0x10, entity_id=Cherukiki (ID: 16875900/0x0101817C), tag_num=0x05)
371: 0x1685 [0x27] REQ_SET(priority=0x10, entity_id=Vukki-Chebukki (ID: 16875901/0x0101817D), tag_num=0x05)
372: 0x168C [0x27] REQ_SET(priority=0x10, entity_id=Tenzen (ID: 16875903/0x0101817F), tag_num=0x05)
373: 0x1693 [0x27] REQ_SET(priority=0x10, entity_id=Jabbos (ID: 16875904/0x01018180), tag_num=0x05)
374: 0x169A [0x27] REQ_SET(priority=0x10, entity_id=Shikaree Z (ID: 16875905/0x01018181), tag_num=0x05)
375: 0x16A1 [0x27] REQ_SET(priority=0x10, entity_id=Louverance (ID: 16875906/0x01018182), tag_num=0x05)
376: 0x16A8 [0x27] REQ_SET(priority=0x10, entity_id=Louverance (ID: 16875907/0x01018183), tag_num=0x05)
377: 0x16AF [0x27] REQ_SET(priority=0x10, entity_id=Unnamed NPC (ID: 16875908/0x01018184), tag_num=0x05)
378: 0x16B6 [0x27] REQ_SET(priority=0x10, entity_id=Unnamed NPC (ID: 16875909/0x01018185), tag_num=0x05)
379: 0x16BD [0x27] REQ_SET(priority=0x10, entity_id=Mildaurion (ID: 16875910/0x01018186), tag_num=0x05)
380: 0x16C4 [0x1B] RETURN

SUBROUTINE_1707:
381: 0x1707 [0x45] LOAD_SCHEDULED_TASK: Load scheduler "fdi1" with entities [LocalPlayer, LocalPlayer], work=[200*, 0*]
382: 0x1718 [0x55] WAIT_LOAD_SCHEDULER: Wait for scheduler "fdi1" with entities [LocalPlayer, LocalPlayer], work=200*
383: 0x1727 [0x1B] RETURN

SUBROUTINE_1728:
384: 0x1728 [0x45] LOAD_SCHEDULED_TASK: Load scheduler "fdo1" with entities [LocalPlayer, LocalPlayer], work=[200*, 0*]
385: 0x1739 [0x55] WAIT_LOAD_SCHEDULER: Wait for scheduler "fdo1" with entities [LocalPlayer, LocalPlayer], work=200*
386: 0x1748 [0x1B] RETURN
```

#### Data or dead code:

```
# Dead code (unreachable instructions):
     0x144F [0x29] REQ_SET_WAIT(priority=0x10, entity_id=Prishe (ID: 16875896/0x01018178), tag_num=0x04)
     0x1456 [0x92] Prishe (ID: 16875896/0x01018178)->Render.Flags3 ^= 0x01
     0x145C [0x94] LocalPlayer->Render.Flags3 ^= 0x01
     0x1462 [0x94] Prishe (ID: 16875896/0x01018178)->Render.Flags3 ^= 0x01
     0x1468 [0x94] Unnamed NPC (ID: 16875894/0x01018176)->Render.Flags3 ^= 0x01
     0x146E [0x29] REQ_SET_WAIT(priority=0x10, entity_id=LocalPlayer, tag_num=0x15)
     0x1475 [0x29] REQ_SET_WAIT(priority=0x10, entity_id=Prishe (ID: 16875896/0x01018178), tag_num=0x0A)
     0x147C [0x29] REQ_SET_WAIT(priority=0x10, entity_id=Unnamed NPC (ID: 16875894/0x01018176), tag_num=0x02)
     0x1483 [0x80] LOAD_WAIT(entity=LocalPlayer)
     0x1488 [0x80] LOAD_WAIT(entity=Prishe (ID: 16875896/0x01018178))
     0x148D [0x1B] RETURN
# Dead code (unreachable instructions):
     0x16C5 [0x45] LOAD_SCHEDULED_TASK: Load scheduler "fdi0" with entities [LocalPlayer, LocalPlayer], work=[200*, 0*]
     0x16D6 [0x55] WAIT_LOAD_SCHEDULER: Wait for scheduler "fdi0" with entities [LocalPlayer, LocalPlayer], work=200*
     0x16E5 [0x1B] RETURN
     0x16E6 [0x45] LOAD_SCHEDULED_TASK: Load scheduler "fdo0" with entities [LocalPlayer, LocalPlayer], work=[200*, 0*]
     0x16F7 [0x55] WAIT_LOAD_SCHEDULER: Wait for scheduler "fdo0" with entities [LocalPlayer, LocalPlayer], work=200*
     0x1706 [0x1B] RETURN
# Dead code (unreachable instructions):
     0x1749 [0x45] LOAD_SCHEDULED_TASK: Load scheduler "whi1" with entities [LocalPlayer, LocalPlayer], work=[201*, 0*]
     0x175A [0x55] WAIT_LOAD_SCHEDULER: Wait for scheduler "whi1" with entities [LocalPlayer, LocalPlayer], work=201*
     0x1769 [0x1B] RETURN
     0x176A [0x45] LOAD_SCHEDULED_TASK: Load scheduler "who1" with entities [LocalPlayer, LocalPlayer], work=[201*, 0*]
     0x177B [0x55] WAIT_LOAD_SCHEDULER: Wait for scheduler "who1" with entities [LocalPlayer, LocalPlayer], work=201*
     0x178A [0x1B] RETURN
