# 16875894

## Common Data

| Field            | Value                    |
|------------------|--------------------------|
| Zone             | Lufaise Meadows (ID: 24) |
| Block Size       | 892 bytes                |
| Total Events     | 6                        |
| References Count | 14                       |

## List of Events

| Event ID                 | Entrypoint   |   Size |   Instructions |
|--------------------------|--------------|--------|----------------|
| [65535](#event-65535)    | 0x0000       |      1 |              1 |
| [65534](#event-65534)    | 0x0001       |      1 |              1 |
| [65535.1](#event-655351) | 0x0002       |     12 |              3 |
| [65535.2](#event-655352) | 0x000E       |    372 |             36 |
| [65535.3](#event-655353) | 0x0182       |    372 |             36 |
| [65535.4](#event-655354) | 0x02F6       |     38 |              8 |

## DAT References (imed_data)

|   Index | Hex Value   |   Dec Value |
|---------|-------------|-------------|
|       0 | 0x309F6     |      199158 |
|       1 | 0x58BCF     |      363471 |
|       2 | 0xFFFFA252  |  4294943314 |
|       3 | 0x02E2      |         738 |
|       4 | 0x001E      |          30 |
|       5 | 0x0001      |           1 |
|       6 | 0x0000      |           0 |
|       7 | 0x0002      |           2 |
|       8 | 0x0003      |           3 |
|       9 | 0x0004      |           4 |
|      10 | 0x0005      |           5 |
|      11 | 0x0006      |           6 |
|      12 | 0x0007      |           7 |
|      13 | 0x0008      |           8 |

## Events

### Event 65535

#### Metadata

| Field        | Value   |
|--------------|---------|
| Entrypoint   | 0x0000  |
| Data Size    | 1 bytes |
| Instructions | 1       |

```
      00 01 02 03 04 05 06 07  08 09 0A 0B 0C 0D 0E 0F
      -- -- -- -- -- -- -- --  -- -- -- -- -- -- -- --
0000: 00                                                .               
```

#### Opcodes

```
  0: 0x0000 [0x00] END_REQSTACK()
```

### Event 65534

#### Metadata

| Field        | Value   |
|--------------|---------|
| Entrypoint   | 0x0001  |
| Data Size    | 1 bytes |
| Instructions | 1       |

```
      00 01 02 03 04 05 06 07  08 09 0A 0B 0C 0D 0E 0F
      -- -- -- -- -- -- -- --  -- -- -- -- -- -- -- --
0000:    00                                              .              
```

#### Opcodes

```
  0: 0x0001 [0x00] END_REQSTACK()
```

### Event 65535.1

#### Metadata

| Field        | Value    |
|--------------|----------|
| Entrypoint   | 0x0002   |
| Data Size    | 12 bytes |
| Instructions | 3        |

```
      00 01 02 03 04 05 06 07  08 09 0A 0B 0C 0D 0E 0F
      -- -- -- -- -- -- -- --  -- -- -- -- -- -- -- --
0000:       33 01 37 00 80 01  80 02 80 03 80 00          3.7.........  
```

#### Opcodes

```
  0: 0x0002 [0x33] EventEntity->Render.Flags0 |= 0x200000 // Bit 21 (flag=0x01)
  1: 0x0004 [0x37] UPDATE_EVENT_POSITION_AND_DIR: x=199.158*, z=363.471*, y=-23.982*, direction=64.9°*
  2: 0x000D [0x00] END_REQSTACK()
```

### Event 65535.2

#### Metadata

| Field        | Value     |
|--------------|-----------|
| Entrypoint   | 0x000E    |
| Data Size    | 372 bytes |
| Instructions | 36        |

```
      00 01 02 03 04 05 06 07  08 09 0A 0B 0C 0D 0E 0F
      -- -- -- -- -- -- -- --  -- -- -- -- -- -- -- --
0000:                                            29 10                ).
0010: F0 FF FF 7F 18 03 00 00  02 10 52 04 80 F0 FF FF  ..........R.....
0020: 7F F0 FF FF 7F 65 6E 30  37 02 00 00 05 80 80 54  .....en07......T
0030: 00 45 04 80 F0 FF FF 7F  F0 FF FF 7F 65 68 6D 30  .E..........ehm0
0040: 06 80 55 04 80 F0 FF FF  7F F0 FF FF 7F 65 68 6D  ..U..........ehm
0050: 30 01 81 01 02 00 00 07  80 80 7F 00 45 04 80 F0  0...........E...
0060: FF FF 7F F0 FF FF 7F 65  68 66 30 06 80 55 04 80  .......ehf0..U..
0070: F0 FF FF 7F F0 FF FF 7F  65 68 66 30 01 81 01 02  ........ehf0....
0080: 00 00 08 80 80 AA 00 45  04 80 F0 FF FF 7F F0 FF  .......E........
0090: FF 7F 65 65 6D 30 06 80  55 04 80 F0 FF FF 7F F0  ..eem0..U.......
00A0: FF FF 7F 65 65 6D 30 01  81 01 02 00 00 09 80 80  ...eem0.........
00B0: D5 00 45 04 80 F0 FF FF  7F F0 FF FF 7F 65 65 66  ..E..........eef
00C0: 30 06 80 55 04 80 F0 FF  FF 7F F0 FF FF 7F 65 65  0..U..........ee
00D0: 66 30 01 81 01 02 00 00  0A 80 80 00 01 45 04 80  f0...........E..
00E0: F0 FF FF 7F F0 FF FF 7F  65 74 72 30 06 80 55 04  ........etr0..U.
00F0: 80 F0 FF FF 7F F0 FF FF  7F 65 74 72 30 01 81 01  .........etr0...
0100: 02 00 00 0B 80 80 2B 01  45 04 80 F0 FF FF 7F F0  ......+.E.......
0110: FF FF 7F 65 74 72 30 06  80 55 04 80 F0 FF FF 7F  ...etr0..U......
0120: F0 FF FF 7F 65 74 72 30  01 81 01 02 00 00 0C 80  ....etr0........
0130: 80 56 01 45 04 80 F0 FF  FF 7F F0 FF FF 7F 65 6D  .V.E..........em
0140: 74 30 06 80 55 04 80 F0  FF FF 7F F0 FF FF 7F 65  t0..U..........e
0150: 6D 74 30 01 81 01 02 00  00 0D 80 80 81 01 45 04  mt0...........E.
0160: 80 F0 FF FF 7F F0 FF FF  7F 65 67 6C 30 06 80 55  .........egl0..U
0170: 04 80 F0 FF FF 7F F0 FF  FF 7F 65 67 6C 30 01 81  ..........egl0..
0180: 01 00                                             ..              
```

#### Opcodes

```
  0: 0x000E [0x29] REQ_SET_WAIT(priority=0x10, entity_id=LocalPlayer, tag_num=0x18)
  1: 0x0015 [0x03] ExtData[1]->WorkLocal[0] = Work_Zone[2]
  2: 0x001A [0x52] END_LOAD_SCHEDULER: End scheduler "en07" with entities [LocalPlayer, LocalPlayer], work=30*
  3: 0x0029 [0x02] IF !(ExtData[1]->WorkLocal[0] == 1*) GOTO 0x0054
  4: 0x0031 [0x45] LOAD_SCHEDULED_TASK: Load scheduler "ehm0" with entities [LocalPlayer, LocalPlayer], work=[30*, 0*]
  5: 0x0042 [0x55] WAIT_LOAD_SCHEDULER: Wait for scheduler "ehm0" with entities [LocalPlayer, LocalPlayer], work=30*
  6: 0x0051 [0x01] GOTO 0x0181
  7: 0x0054 [0x02] IF !(ExtData[1]->WorkLocal[0] == 2*) GOTO 0x007F
  8: 0x005C [0x45] LOAD_SCHEDULED_TASK: Load scheduler "ehf0" with entities [LocalPlayer, LocalPlayer], work=[30*, 0*]
  9: 0x006D [0x55] WAIT_LOAD_SCHEDULER: Wait for scheduler "ehf0" with entities [LocalPlayer, LocalPlayer], work=30*
 10: 0x007C [0x01] GOTO 0x0181
 11: 0x007F [0x02] IF !(ExtData[1]->WorkLocal[0] == 3*) GOTO 0x00AA
 12: 0x0087 [0x45] LOAD_SCHEDULED_TASK: Load scheduler "eem0" with entities [LocalPlayer, LocalPlayer], work=[30*, 0*]
 13: 0x0098 [0x55] WAIT_LOAD_SCHEDULER: Wait for scheduler "eem0" with entities [LocalPlayer, LocalPlayer], work=30*
 14: 0x00A7 [0x01] GOTO 0x0181
 15: 0x00AA [0x02] IF !(ExtData[1]->WorkLocal[0] == 4*) GOTO 0x00D5
 16: 0x00B2 [0x45] LOAD_SCHEDULED_TASK: Load scheduler "eef0" with entities [LocalPlayer, LocalPlayer], work=[30*, 0*]
 17: 0x00C3 [0x55] WAIT_LOAD_SCHEDULER: Wait for scheduler "eef0" with entities [LocalPlayer, LocalPlayer], work=30*
 18: 0x00D2 [0x01] GOTO 0x0181
 19: 0x00D5 [0x02] IF !(ExtData[1]->WorkLocal[0] == 5*) GOTO 0x0100
 20: 0x00DD [0x45] LOAD_SCHEDULED_TASK: Load scheduler "etr0" with entities [LocalPlayer, LocalPlayer], work=[30*, 0*]
 21: 0x00EE [0x55] WAIT_LOAD_SCHEDULER: Wait for scheduler "etr0" with entities [LocalPlayer, LocalPlayer], work=30*
 22: 0x00FD [0x01] GOTO 0x0181
 23: 0x0100 [0x02] IF !(ExtData[1]->WorkLocal[0] == 6*) GOTO 0x012B
 24: 0x0108 [0x45] LOAD_SCHEDULED_TASK: Load scheduler "etr0" with entities [LocalPlayer, LocalPlayer], work=[30*, 0*]
 25: 0x0119 [0x55] WAIT_LOAD_SCHEDULER: Wait for scheduler "etr0" with entities [LocalPlayer, LocalPlayer], work=30*
 26: 0x0128 [0x01] GOTO 0x0181
 27: 0x012B [0x02] IF !(ExtData[1]->WorkLocal[0] == 7*) GOTO 0x0156
 28: 0x0133 [0x45] LOAD_SCHEDULED_TASK: Load scheduler "emt0" with entities [LocalPlayer, LocalPlayer], work=[30*, 0*]
 29: 0x0144 [0x55] WAIT_LOAD_SCHEDULER: Wait for scheduler "emt0" with entities [LocalPlayer, LocalPlayer], work=30*
 30: 0x0153 [0x01] GOTO 0x0181
 31: 0x0156 [0x02] IF !(ExtData[1]->WorkLocal[0] == 8*) GOTO 0x0181
 32: 0x015E [0x45] LOAD_SCHEDULED_TASK: Load scheduler "egl0" with entities [LocalPlayer, LocalPlayer], work=[30*, 0*]
 33: 0x016F [0x55] WAIT_LOAD_SCHEDULER: Wait for scheduler "egl0" with entities [LocalPlayer, LocalPlayer], work=30*
 34: 0x017E [0x01] GOTO 0x0181

SUBROUTINE_0181:
 35: 0x0181 [0x00] END_REQSTACK()
```

### Event 65535.3

#### Metadata

| Field        | Value     |
|--------------|-----------|
| Entrypoint   | 0x0182    |
| Data Size    | 372 bytes |
| Instructions | 36        |

```
      00 01 02 03 04 05 06 07  08 09 0A 0B 0C 0D 0E 0F
      -- -- -- -- -- -- -- --  -- -- -- -- -- -- -- --
0180:       29 10 F0 FF FF 7F  18 03 00 00 02 10 52 04    )...........R.
0190: 80 F0 FF FF 7F F0 FF FF  7F 65 6E 32 31 02 00 00  .........en21...
01A0: 05 80 80 C8 01 45 04 80  F0 FF FF 7F F0 FF FF 7F  .....E..........
01B0: 65 68 6D 31 06 80 55 04  80 F0 FF FF 7F F0 FF FF  ehm1..U.........
01C0: 7F 65 68 6D 31 01 F5 02  02 00 00 07 80 80 F3 01  .ehm1...........
01D0: 45 04 80 F0 FF FF 7F F0  FF FF 7F 65 68 66 31 06  E..........ehf1.
01E0: 80 55 04 80 F0 FF FF 7F  F0 FF FF 7F 65 68 66 31  .U..........ehf1
01F0: 01 F5 02 02 00 00 08 80  80 1E 02 45 04 80 F0 FF  ...........E....
0200: FF 7F F0 FF FF 7F 65 65  6D 31 06 80 55 04 80 F0  ......eem1..U...
0210: FF FF 7F F0 FF FF 7F 65  65 6D 31 01 F5 02 02 00  .......eem1.....
0220: 00 09 80 80 49 02 45 04  80 F0 FF FF 7F F0 FF FF  ....I.E.........
0230: 7F 65 65 66 31 06 80 55  04 80 F0 FF FF 7F F0 FF  .eef1..U........
0240: FF 7F 65 65 66 31 01 F5  02 02 00 00 0A 80 80 74  ..eef1.........t
0250: 02 45 04 80 F0 FF FF 7F  F0 FF FF 7F 65 74 72 31  .E..........etr1
0260: 06 80 55 04 80 F0 FF FF  7F F0 FF FF 7F 65 74 72  ..U..........etr
0270: 31 01 F5 02 02 00 00 0B  80 80 9F 02 45 04 80 F0  1...........E...
0280: FF FF 7F F0 FF FF 7F 65  74 72 31 06 80 55 04 80  .......etr1..U..
0290: F0 FF FF 7F F0 FF FF 7F  65 74 72 31 01 F5 02 02  ........etr1....
02A0: 00 00 0C 80 80 CA 02 45  04 80 F0 FF FF 7F F0 FF  .......E........
02B0: FF 7F 65 6D 74 31 06 80  55 04 80 F0 FF FF 7F F0  ..emt1..U.......
02C0: FF FF 7F 65 6D 74 31 01  F5 02 02 00 00 0D 80 80  ...emt1.........
02D0: F5 02 45 04 80 F0 FF FF  7F F0 FF FF 7F 65 67 6C  ..E..........egl
02E0: 31 06 80 55 04 80 F0 FF  FF 7F F0 FF FF 7F 65 67  1..U..........eg
02F0: 6C 31 01 F5 02 00                                 l1....          
```

#### Opcodes

```
  0: 0x0182 [0x29] REQ_SET_WAIT(priority=0x10, entity_id=LocalPlayer, tag_num=0x18)
  1: 0x0189 [0x03] ExtData[1]->WorkLocal[0] = Work_Zone[2]
  2: 0x018E [0x52] END_LOAD_SCHEDULER: End scheduler "en21" with entities [LocalPlayer, LocalPlayer], work=30*
  3: 0x019D [0x02] IF !(ExtData[1]->WorkLocal[0] == 1*) GOTO 0x01C8
  4: 0x01A5 [0x45] LOAD_SCHEDULED_TASK: Load scheduler "ehm1" with entities [LocalPlayer, LocalPlayer], work=[30*, 0*]
  5: 0x01B6 [0x55] WAIT_LOAD_SCHEDULER: Wait for scheduler "ehm1" with entities [LocalPlayer, LocalPlayer], work=30*
  6: 0x01C5 [0x01] GOTO 0x02F5
  7: 0x01C8 [0x02] IF !(ExtData[1]->WorkLocal[0] == 2*) GOTO 0x01F3
  8: 0x01D0 [0x45] LOAD_SCHEDULED_TASK: Load scheduler "ehf1" with entities [LocalPlayer, LocalPlayer], work=[30*, 0*]
  9: 0x01E1 [0x55] WAIT_LOAD_SCHEDULER: Wait for scheduler "ehf1" with entities [LocalPlayer, LocalPlayer], work=30*
 10: 0x01F0 [0x01] GOTO 0x02F5
 11: 0x01F3 [0x02] IF !(ExtData[1]->WorkLocal[0] == 3*) GOTO 0x021E
 12: 0x01FB [0x45] LOAD_SCHEDULED_TASK: Load scheduler "eem1" with entities [LocalPlayer, LocalPlayer], work=[30*, 0*]
 13: 0x020C [0x55] WAIT_LOAD_SCHEDULER: Wait for scheduler "eem1" with entities [LocalPlayer, LocalPlayer], work=30*
 14: 0x021B [0x01] GOTO 0x02F5
 15: 0x021E [0x02] IF !(ExtData[1]->WorkLocal[0] == 4*) GOTO 0x0249
 16: 0x0226 [0x45] LOAD_SCHEDULED_TASK: Load scheduler "eef1" with entities [LocalPlayer, LocalPlayer], work=[30*, 0*]
 17: 0x0237 [0x55] WAIT_LOAD_SCHEDULER: Wait for scheduler "eef1" with entities [LocalPlayer, LocalPlayer], work=30*
 18: 0x0246 [0x01] GOTO 0x02F5
 19: 0x0249 [0x02] IF !(ExtData[1]->WorkLocal[0] == 5*) GOTO 0x0274
 20: 0x0251 [0x45] LOAD_SCHEDULED_TASK: Load scheduler "etr1" with entities [LocalPlayer, LocalPlayer], work=[30*, 0*]
 21: 0x0262 [0x55] WAIT_LOAD_SCHEDULER: Wait for scheduler "etr1" with entities [LocalPlayer, LocalPlayer], work=30*
 22: 0x0271 [0x01] GOTO 0x02F5
 23: 0x0274 [0x02] IF !(ExtData[1]->WorkLocal[0] == 6*) GOTO 0x029F
 24: 0x027C [0x45] LOAD_SCHEDULED_TASK: Load scheduler "etr1" with entities [LocalPlayer, LocalPlayer], work=[30*, 0*]
 25: 0x028D [0x55] WAIT_LOAD_SCHEDULER: Wait for scheduler "etr1" with entities [LocalPlayer, LocalPlayer], work=30*
 26: 0x029C [0x01] GOTO 0x02F5
 27: 0x029F [0x02] IF !(ExtData[1]->WorkLocal[0] == 7*) GOTO 0x02CA
 28: 0x02A7 [0x45] LOAD_SCHEDULED_TASK: Load scheduler "emt1" with entities [LocalPlayer, LocalPlayer], work=[30*, 0*]
 29: 0x02B8 [0x55] WAIT_LOAD_SCHEDULER: Wait for scheduler "emt1" with entities [LocalPlayer, LocalPlayer], work=30*
 30: 0x02C7 [0x01] GOTO 0x02F5
 31: 0x02CA [0x02] IF !(ExtData[1]->WorkLocal[0] == 8*) GOTO 0x02F5
 32: 0x02D2 [0x45] LOAD_SCHEDULED_TASK: Load scheduler "egl1" with entities [LocalPlayer, LocalPlayer], work=[30*, 0*]
 33: 0x02E3 [0x55] WAIT_LOAD_SCHEDULER: Wait for scheduler "egl1" with entities [LocalPlayer, LocalPlayer], work=30*
 34: 0x02F2 [0x01] GOTO 0x02F5

SUBROUTINE_02F5:
 35: 0x02F5 [0x00] END_REQSTACK()
```

### Event 65535.4

#### Metadata

| Field        | Value    |
|--------------|----------|
| Entrypoint   | 0x02F6   |
| Data Size    | 38 bytes |
| Instructions | 8        |

```
      00 01 02 03 04 05 06 07  08 09 0A 0B 0C 0D 0E 0F
      -- -- -- -- -- -- -- --  -- -- -- -- -- -- -- --
02F0:                   27 10  80 81 01 01 0C 1C 07 80        '.........
0300: 27 10 7F 81 01 01 0D 1C  05 80 27 10 81 81 01 01  '.........'.....
0310: 0C 1C 08 80 27 10 83 81  01 01 0E 00              ....'.......    
```

#### Opcodes

```
  0: 0x02F6 [0x27] REQ_SET(priority=0x10, entity_id=Jabbos (ID: 16875904/0x01018180), tag_num=0x0C)
  1: 0x02FD [0x1C] WAIT(2* ticks)
  2: 0x0300 [0x27] REQ_SET(priority=0x10, entity_id=Tenzen (ID: 16875903/0x0101817F), tag_num=0x0D)
  3: 0x0307 [0x1C] WAIT(1* ticks)
  4: 0x030A [0x27] REQ_SET(priority=0x10, entity_id=Shikaree Z (ID: 16875905/0x01018181), tag_num=0x0C)
  5: 0x0311 [0x1C] WAIT(3* ticks)
  6: 0x0314 [0x27] REQ_SET(priority=0x10, entity_id=Louverance (ID: 16875907/0x01018183), tag_num=0x0E)
  7: 0x031B [0x00] END_REQSTACK()
```
