# 16875854

## Common Data

| Field            | Value                    |
|------------------|--------------------------|
| Zone             | Lufaise Meadows (ID: 24) |
| Block Size       | 124 bytes                |
| Total Events     | 2                        |
| References Count | 5                        |

## List of Events

| Event ID              | Entrypoint   |   Size |   Instructions |
|-----------------------|--------------|--------|----------------|
| [65535](#event-65535) | 0x0000       |      1 |              1 |
| [114](#event-114)     | 0x0001       |     79 |             18 |

## DAT References (imed_data)

|   Index | Hex Value   |   Dec Value |
|---------|-------------|-------------|
|       0 | 0x00C8      |         200 |
|       1 | 0x0000      |           0 |
|       2 | 0x003C      |          60 |
|       3 | 0x0013      |          19 |
|       4 | 0x1E23      |        7715 |

## String References

- **7715**: <Rustle> <Rustle>

## Events

### Event 65535

#### Metadata

| Field        | Value   |
|--------------|---------|
| Entrypoint   | 0x0000  |
| Data Size    | 1 bytes |
| Instructions | 1       |

```
      00 01 02 03 04 05 06 07  08 09 0A 0B 0C 0D 0E 0F
      -- -- -- -- -- -- -- --  -- -- -- -- -- -- -- --
0000: 00                                                .               
```

#### Opcodes

```
  0: 0x0000 [0x00] END_REQSTACK()
```

### Event 114

#### Metadata

| Field        | Value    |
|--------------|----------|
| Entrypoint   | 0x0001   |
| Data Size    | 79 bytes |
| Instructions | 18       |

```
      00 01 02 03 04 05 06 07  08 09 0A 0B 0C 0D 0E 0F
      -- -- -- -- -- -- -- --  -- -- -- -- -- -- -- --
0000:    20 01 42 46 01 45 00  80 F8 FF FF 7F F8 FF FF    .BF.E.........
0010: 7F 66 64 6F 31 01 80 1C  02 80 38 03 80 29 08 F0  .fdo1.....8..)..
0020: FF FF 7F 04 1C 02 80 48  04 80 23 1C 02 80 4E 00  .......H..#...N.
0030: F0 FF FF 7F 80 F0 FF FF  7F 46 00 45 00 80 F0 FF  .........F.E....
0040: FF 7F F0 FF FF 7F 66 64  69 31 01 80 20 00 21 00  ......fdi1.. .!.
```

#### Opcodes

```
  0: 0x0001 [0x20] SET_CLI_EVENT_UC_FLAG: Lock player control
  1: 0x0003 [0x42] SET_CLI_EVENT_CANCEL_DATA()
  2: 0x0004 [0x46] CAMERA_CONTROL: Disable user control
  3: 0x0006 [0x45] LOAD_SCHEDULED_TASK: Load scheduler "fdo1" with entities [EventEntity, EventEntity], work=[200*, 0*]
  4: 0x0017 [0x1C] WAIT(60* ticks)
  5: 0x001A [0x38] SET_CLIENT_EVENT_MODE(mode=19*)
  6: 0x001D [0x29] REQ_SET_WAIT(priority=0x08, entity_id=LocalPlayer, tag_num=0x04)
  7: 0x0024 [0x1C] WAIT(60* ticks)
  8: 0x0027 [0x48] [System] [7715*]:
    → "<Rustle> <Rustle>"
  9: 0x002A [0x23] WAIT_FOR_DIALOG_INTERACTION
 10: 0x002B [0x1C] WAIT(60* ticks)
 11: 0x002E [0x4E] SET_ENTITY_HIDE_FLAG: Show LocalPlayer
 12: 0x0034 [0x80] LOAD_WAIT(entity=LocalPlayer)
 13: 0x0039 [0x46] CAMERA_CONTROL: Restore default settings
 14: 0x003B [0x45] LOAD_SCHEDULED_TASK: Load scheduler "fdi1" with entities [LocalPlayer, LocalPlayer], work=[200*, 0*]
 15: 0x004C [0x20] SET_CLI_EVENT_UC_FLAG: Unlock player control
 16: 0x004E [0x21] END_EVENT
 17: 0x004F [0x00] END_REQSTACK()
```
