# 0x7FFFFFF0 - Zone Events

## Common Data

| Field            | Value                    |
|------------------|--------------------------|
| Zone             | Lufaise Meadows (ID: 24) |
| Block Size       | 1852 bytes               |
| Total Events     | 25                       |
| References Count | 80                       |

## List of Events

| Event ID                   | Entrypoint   |   Size |   Instructions |
|----------------------------|--------------|--------|----------------|
| [65535](#event-65535)      | 0x0000       |      1 |              1 |
| [65534](#event-65534)      | 0x0001       |      1 |              1 |
| [65535.1](#event-655351)   | 0x0002       |      6 |              2 |
| [65535.2](#event-655352)   | 0x0008       |      6 |              2 |
| [65535.3](#event-655353)   | 0x000E       |      6 |              2 |
| [65535.4](#event-655354)   | 0x0014       |      6 |              2 |
| [65535.5](#event-655355)   | 0x001A       |      6 |              2 |
| [65535.6](#event-655356)   | 0x0020       |     30 |              5 |
| [65535.7](#event-655357)   | 0x003E       |     27 |              3 |
| [65535.8](#event-655358)   | 0x0059       |     36 |              4 |
| [65535.9](#event-655359)   | 0x007D       |     27 |              3 |
| [65535.10](#event-6553510) | 0x0098       |     27 |              3 |
| [65535.11](#event-6553511) | 0x00B3       |     27 |              3 |
| [65535.12](#event-6553512) | 0x00CE       |     15 |              5 |
| [65535.13](#event-6553513) | 0x00DD       |     41 |              7 |
| [65535.14](#event-6553514) | 0x0106       |     10 |              2 |
| [65535.15](#event-6553515) | 0x0110       |     15 |              5 |
| [65535.16](#event-6553516) | 0x011F       |     10 |              2 |
| [65535.17](#event-6553517) | 0x0129       |     15 |              5 |
| [113](#event-113)          | 0x0138       |    140 |             18 |
| [115](#event-115)          | 0x01C4       |    929 |            119 |
| [65535.18](#event-6553518) | 0x0565       |     10 |              2 |
| [65535.19](#event-6553519) | 0x056F       |      1 |              1 |
| [65535.20](#event-6553520) | 0x0570       |     15 |              5 |
| [65535.21](#event-6553521) | 0x057F       |      6 |              2 |

## DAT References (imed_data)

|   Index | Hex Value   |   Dec Value |
|---------|-------------|-------------|
|       0 | 0x0008      |           8 |
|       1 | 0x62AF2     |      404210 |
|       2 | 0xFFFED770  |  4294891376 |
|       3 | 0xFFFFFEA8  |  4294966952 |
|       4 | 0x0A51      |        2641 |
|       5 | 0x62A2D     |      404013 |
|       6 | 0xFFFED673  |  4294891123 |
|       7 | 0xFFFFFED9  |  4294967001 |
|       8 | 0x08A0      |        2208 |
|       9 | 0x643CC     |      410572 |
|      10 | 0xFFFEF4D2  |  4294898898 |
|      11 | 0x01AA      |         426 |
|      12 | 0x0F70      |        3952 |
|      13 | 0x000D      |          13 |
|      14 | 0x62893     |      403603 |
|      15 | 0xFFFED5EC  |  4294890988 |
|      16 | 0xFFFFFF18  |  4294967064 |
|      17 | 0x62636     |      402998 |
|      18 | 0xFFFED36D  |  4294890349 |
|      19 | 0xFFFFFF40  |  4294967104 |
|      20 | 0x62F3F     |      405311 |
|      21 | 0xFFFEE5CB  |  4294895051 |
|      22 | 0xFFFFFDCC  |  4294966732 |
|      23 | 0x05B5      |        1461 |
|      24 | 0x6252D     |      402733 |
|      25 | 0xFFFED790  |  4294891408 |
|      26 | 0xFFFFFEC1  |  4294966977 |
|      27 | 0x6A1FF     |      434687 |
|      28 | 0xFFFFB465  |  4294947941 |
|      29 | 0xFFFFFC96  |  4294966422 |
|      30 | 0x06BA      |        1722 |
|      31 | 0x68D45     |      429381 |
|      32 | 0xFFFFAAB8  |  4294945464 |
|      33 | 0xFFFFF88F  |  4294965391 |
|      34 | 0x00C8      |         200 |
|      35 | 0x0000      |           0 |
|      36 | 0x003D      |          61 |
|      37 | 0x1E40      |        7744 |
|      38 | 0x0078      |         120 |
|      39 | 0x0013      |          19 |
|      40 | 0xFFFCF339  |  4294767417 |
|      41 | 0x48965     |      297317 |
|      42 | 0xFFFFC4E8  |  4294952168 |
|      43 | 0x0BF8      |        3064 |
|      44 | 0x00F5      |         245 |
|      45 | 0x0021      |          33 |
|      46 | 0xFFFCF330  |  4294767408 |
|      47 | 0x4AED3     |      306899 |
|      48 | 0xFFFFC064  |  4294951012 |
|      49 | 0x1E6A      |        7786 |
|      50 | 0x001E      |          30 |
|      51 | 0x003C      |          60 |
|      52 | 0x1E6B      |        7787 |
|      53 | 0x005A      |          90 |
|      54 | 0x1E6C      |        7788 |
|      55 | 0xFFFCDF9E  |  4294762398 |
|      56 | 0x4B036     |      307254 |
|      57 | 0x085E      |        2142 |
|      58 | 0x0010      |          16 |
|      59 | 0x1E6D      |        7789 |
|      60 | 0x001A      |          26 |
|      61 | 0x1E6E      |        7790 |
|      62 | 0x1E6F      |        7791 |
|      63 | 0x1E70      |        7792 |
|      64 | 0xFFFCF16B  |  4294766955 |
|      65 | 0x4A4AC     |      304300 |
|      66 | 0x0588      |        1416 |
|      67 | 0x1E71      |        7793 |
|      68 | 0x1E72      |        7794 |
|      69 | 0x1E73      |        7795 |
|      70 | 0x1E74      |        7796 |
|      71 | 0x00E6      |         230 |
|      72 | 0x31864     |      202852 |
|      73 | 0x52B0C     |      338700 |
|      74 | 0xFFFFA653  |  4294944339 |
|      75 | 0x0D1C      |        3356 |
|      76 | 0x000B      |          11 |
|      77 | 0x32851     |      206929 |
|      78 | 0x54171     |      344433 |
|      79 | 0xFFFFA86D  |  4294944877 |

## Events

### Event 65535

#### Metadata

| Field        | Value   |
|--------------|---------|
| Entrypoint   | 0x0000  |
| Data Size    | 1 bytes |
| Instructions | 1       |

```
      00 01 02 03 04 05 06 07  08 09 0A 0B 0C 0D 0E 0F
      -- -- -- -- -- -- -- --  -- -- -- -- -- -- -- --
0000: 00                                                .               
```

#### Opcodes

```
  0: 0x0000 [0x00] END_REQSTACK()
```

### Event 65534

#### Metadata

| Field        | Value   |
|--------------|---------|
| Entrypoint   | 0x0001  |
| Data Size    | 1 bytes |
| Instructions | 1       |

```
      00 01 02 03 04 05 06 07  08 09 0A 0B 0C 0D 0E 0F
      -- -- -- -- -- -- -- --  -- -- -- -- -- -- -- --
0000:    00                                              .              
```

#### Opcodes

```
  0: 0x0001 [0x00] END_REQSTACK()
```

### Event 65535.1

#### Metadata

| Field        | Value   |
|--------------|---------|
| Entrypoint   | 0x0002  |
| Data Size    | 6 bytes |
| Instructions | 2       |

```
      00 01 02 03 04 05 06 07  08 09 0A 0B 0C 0D 0E 0F
      -- -- -- -- -- -- -- --  -- -- -- -- -- -- -- --
0000:       03 02 10 0B 7F 00                             ......        
```

#### Opcodes

```
  0: 0x0002 [0x03] Work_Zone[2] = (Entity->Render.Flags01 >> 25) & 1
  1: 0x0007 [0x00] END_REQSTACK()
```

### Event 65535.2

#### Metadata

| Field        | Value   |
|--------------|---------|
| Entrypoint   | 0x0008  |
| Data Size    | 6 bytes |
| Instructions | 2       |

```
      00 01 02 03 04 05 06 07  08 09 0A 0B 0C 0D 0E 0F
      -- -- -- -- -- -- -- --  -- -- -- -- -- -- -- --
0000:                          03 02 10 07 7F 00                ......  
```

#### Opcodes

```
  0: 0x0008 [0x03] Work_Zone[2] = Entity->Race
  1: 0x000D [0x00] END_REQSTACK()
```

### Event 65535.3

#### Metadata

| Field        | Value   |
|--------------|---------|
| Entrypoint   | 0x000E  |
| Data Size    | 6 bytes |
| Instructions | 2       |

```
      00 01 02 03 04 05 06 07  08 09 0A 0B 0C 0D 0E 0F
      -- -- -- -- -- -- -- --  -- -- -- -- -- -- -- --
0000:                                            03 09                ..
0010: 10 07 7F 00                                       ....            
```

#### Opcodes

```
  0: 0x000E [0x03] Work_Zone[9] = Entity->Race
  1: 0x0013 [0x00] END_REQSTACK()
```

### Event 65535.4

#### Metadata

| Field        | Value   |
|--------------|---------|
| Entrypoint   | 0x0014  |
| Data Size    | 6 bytes |
| Instructions | 2       |

```
      00 01 02 03 04 05 06 07  08 09 0A 0B 0C 0D 0E 0F
      -- -- -- -- -- -- -- --  -- -- -- -- -- -- -- --
0010:             03 02 10 06  7F 00                        ......      
```

#### Opcodes

```
  0: 0x0014 [0x03] Work_Zone[2] = Entity->JobId (if LocalPlayer)
  1: 0x0019 [0x00] END_REQSTACK()
```

### Event 65535.5

#### Metadata

| Field        | Value   |
|--------------|---------|
| Entrypoint   | 0x001A  |
| Data Size    | 6 bytes |
| Instructions | 2       |

```
      00 01 02 03 04 05 06 07  08 09 0A 0B 0C 0D 0E 0F
      -- -- -- -- -- -- -- --  -- -- -- -- -- -- -- --
0010:                                03 08 10 07 7F 00            ......
```

#### Opcodes

```
  0: 0x001A [0x03] Work_Zone[8] = Entity->Race
  1: 0x001F [0x00] END_REQSTACK()
```

### Event 65535.6

#### Metadata

| Field        | Value    |
|--------------|----------|
| Entrypoint   | 0x0020   |
| Data Size    | 30 bytes |
| Instructions | 5        |

```
      00 01 02 03 04 05 06 07  08 09 0A 0B 0C 0D 0E 0F
      -- -- -- -- -- -- -- --  -- -- -- -- -- -- -- --
0020: 02 09 10 00 80 00 34 00  37 01 80 02 80 03 80 04  ......4.7.......
0030: 80 01 3D 00 37 05 80 06  80 07 80 08 80 00        ..=.7.........  
```

#### Opcodes

```
  0: 0x0020 [0x02] IF !(Work_Zone[9] == 8*) GOTO 0x0034
  1: 0x0028 [0x37] UPDATE_EVENT_POSITION_AND_DIR: x=404.210*, z=-75.920*, y=-0.344*, direction=232.1°*
  2: 0x0031 [0x01] GOTO 0x003D
  3: 0x0034 [0x37] UPDATE_EVENT_POSITION_AND_DIR: x=404.013*, z=-76.173*, y=-0.295*, direction=194.1°*

SUBROUTINE_003D:
  4: 0x003D [0x00] END_REQSTACK()
```

### Event 65535.7

#### Metadata

| Field        | Value    |
|--------------|----------|
| Entrypoint   | 0x003E   |
| Data Size    | 27 bytes |
| Instructions | 3        |

```
      00 01 02 03 04 05 06 07  08 09 0A 0B 0C 0D 0E 0F
      -- -- -- -- -- -- -- --  -- -- -- -- -- -- -- --
0030:                                            2C F0                ,.
0040: FF FF 7F F0 FF FF 7F 63  6F 72 70 53 F0 FF FF 7F  .......corpS....
0050: F0 FF FF 7F 63 6F 72 70  00                       ....corp.       
```

#### Opcodes

```
  0: 0x003E [0x2C] CREATE_SCHEDULER_TASK: Create scheduler "corp" with entities [LocalPlayer, LocalPlayer]
  1: 0x004B [0x53] WAIT_SCHEDULER_TASK: Wait for scheduler "corp" with entities [LocalPlayer, LocalPlayer]
  2: 0x0058 [0x00] END_REQSTACK()
```

### Event 65535.8

#### Metadata

| Field        | Value    |
|--------------|----------|
| Entrypoint   | 0x0059   |
| Data Size    | 36 bytes |
| Instructions | 4        |

```
      00 01 02 03 04 05 06 07  08 09 0A 0B 0C 0D 0E 0F
      -- -- -- -- -- -- -- --  -- -- -- -- -- -- -- --
0050:                             37 09 80 0A 80 0B 80           7......
0060: 0C 80 2C F0 FF FF 7F F0  FF FF 7F 63 6F 72 70 53  ..,........corpS
0070: F0 FF FF 7F F0 FF FF 7F  63 6F 72 70 00           ........corp.   
```

#### Opcodes

```
  0: 0x0059 [0x37] UPDATE_EVENT_POSITION_AND_DIR: x=410.572*, z=-68.398*, y=0.426*, direction=347.3°*
  1: 0x0062 [0x2C] CREATE_SCHEDULER_TASK: Create scheduler "corp" with entities [LocalPlayer, LocalPlayer]
  2: 0x006F [0x53] WAIT_SCHEDULER_TASK: Wait for scheduler "corp" with entities [LocalPlayer, LocalPlayer]
  3: 0x007C [0x00] END_REQSTACK()
```

### Event 65535.9

#### Metadata

| Field        | Value    |
|--------------|----------|
| Entrypoint   | 0x007D   |
| Data Size    | 27 bytes |
| Instructions | 3        |

```
      00 01 02 03 04 05 06 07  08 09 0A 0B 0C 0D 0E 0F
      -- -- -- -- -- -- -- --  -- -- -- -- -- -- -- --
0070:                                         2C F0 FF               ,..
0080: FF 7F F0 FF FF 7F 72 65  73 30 53 F0 FF FF 7F F0  ......res0S.....
0090: FF FF 7F 72 65 73 30 00                           ...res0.        
```

#### Opcodes

```
  0: 0x007D [0x2C] CREATE_SCHEDULER_TASK: Create scheduler "res0" with entities [LocalPlayer, LocalPlayer]
  1: 0x008A [0x53] WAIT_SCHEDULER_TASK: Wait for scheduler "res0" with entities [LocalPlayer, LocalPlayer]
  2: 0x0097 [0x00] END_REQSTACK()
```

### Event 65535.10

#### Metadata

| Field        | Value    |
|--------------|----------|
| Entrypoint   | 0x0098   |
| Data Size    | 27 bytes |
| Instructions | 3        |

```
      00 01 02 03 04 05 06 07  08 09 0A 0B 0C 0D 0E 0F
      -- -- -- -- -- -- -- --  -- -- -- -- -- -- -- --
0090:                          2C F0 FF FF 7F F0 FF FF          ,.......
00A0: 7F 72 65 73 31 53 F0 FF  FF 7F F0 FF FF 7F 72 65  .res1S........re
00B0: 73 31 00                                          s1.             
```

#### Opcodes

```
  0: 0x0098 [0x2C] CREATE_SCHEDULER_TASK: Create scheduler "res1" with entities [LocalPlayer, LocalPlayer]
  1: 0x00A5 [0x53] WAIT_SCHEDULER_TASK: Wait for scheduler "res1" with entities [LocalPlayer, LocalPlayer]
  2: 0x00B2 [0x00] END_REQSTACK()
```

### Event 65535.11

#### Metadata

| Field        | Value    |
|--------------|----------|
| Entrypoint   | 0x00B3   |
| Data Size    | 27 bytes |
| Instructions | 3        |

```
      00 01 02 03 04 05 06 07  08 09 0A 0B 0C 0D 0E 0F
      -- -- -- -- -- -- -- --  -- -- -- -- -- -- -- --
00B0:          2C F0 FF FF 7F  F0 FF FF 7F 72 65 73 32     ,........res2
00C0: 53 F0 FF FF 7F F0 FF FF  7F 72 65 73 32 00        S........res2.  
```

#### Opcodes

```
  0: 0x00B3 [0x2C] CREATE_SCHEDULER_TASK: Create scheduler "res2" with entities [LocalPlayer, LocalPlayer]
  1: 0x00C0 [0x53] WAIT_SCHEDULER_TASK: Wait for scheduler "res2" with entities [LocalPlayer, LocalPlayer]
  2: 0x00CD [0x00] END_REQSTACK()
```

### Event 65535.12

#### Metadata

| Field        | Value    |
|--------------|----------|
| Entrypoint   | 0x00CE   |
| Data Size    | 15 bytes |
| Instructions | 5        |

```
      00 01 02 03 04 05 06 07  08 09 0A 0B 0C 0D 0E 0F
      -- -- -- -- -- -- -- --  -- -- -- -- -- -- -- --
00C0:                                            32 0D                2.
00D0: 80 1F 00 0E 80 0F 80 10  80 1F 01 6F 00           ...........o.   
```

#### Opcodes

```
  0: 0x00CE [0x32] ExtData[1]->MainSpeed = 13* * 0.1
  1: 0x00D1 [0x1F] MOVE_ENTITY: EventEntity moves to X=403.603*, Z=-76.308*, Y=-0.232*
  2: 0x00D9 [0x1F] MOVE_ENTITY: Update entity position (mode=1)
  3: 0x00DB [0x6F] WAIT_FRAME_DELAY: Yield until WaitTime reaches zero
  4: 0x00DC [0x00] END_REQSTACK()
```

### Event 65535.13

#### Metadata

| Field        | Value    |
|--------------|----------|
| Entrypoint   | 0x00DD   |
| Data Size    | 41 bytes |
| Instructions | 7        |

```
      00 01 02 03 04 05 06 07  08 09 0A 0B 0C 0D 0E 0F
      -- -- -- -- -- -- -- --  -- -- -- -- -- -- -- --
00D0:                                         32 0D 80               2..
00E0: 1F 00 11 80 12 80 13 80  1F 01 6F 2C F0 FF FF 7F  ..........o,....
00F0: F0 FF FF 7F 72 65 73 30  53 F0 FF FF 7F F0 FF FF  ....res0S.......
0100: 7F 72 65 73 30 00                                 .res0.          
```

#### Opcodes

```
  0: 0x00DD [0x32] ExtData[1]->MainSpeed = 13* * 0.1
  1: 0x00E0 [0x1F] MOVE_ENTITY: EventEntity moves to X=402.998*, Z=-76.947*, Y=-0.192*
  2: 0x00E8 [0x1F] MOVE_ENTITY: Update entity position (mode=1)
  3: 0x00EA [0x6F] WAIT_FRAME_DELAY: Yield until WaitTime reaches zero
  4: 0x00EB [0x2C] CREATE_SCHEDULER_TASK: Create scheduler "res0" with entities [LocalPlayer, LocalPlayer]
  5: 0x00F8 [0x53] WAIT_SCHEDULER_TASK: Wait for scheduler "res0" with entities [LocalPlayer, LocalPlayer]
  6: 0x0105 [0x00] END_REQSTACK()
```

### Event 65535.14

#### Metadata

| Field        | Value    |
|--------------|----------|
| Entrypoint   | 0x0106   |
| Data Size    | 10 bytes |
| Instructions | 2        |

```
      00 01 02 03 04 05 06 07  08 09 0A 0B 0C 0D 0E 0F
      -- -- -- -- -- -- -- --  -- -- -- -- -- -- -- --
0100:                   37 14  80 15 80 16 80 17 80 00        7.........
```

#### Opcodes

```
  0: 0x0106 [0x37] UPDATE_EVENT_POSITION_AND_DIR: x=405.311*, z=-72.245*, y=-0.564*, direction=128.4°*
  1: 0x010F [0x00] END_REQSTACK()
```

### Event 65535.15

#### Metadata

| Field        | Value    |
|--------------|----------|
| Entrypoint   | 0x0110   |
| Data Size    | 15 bytes |
| Instructions | 5        |

```
      00 01 02 03 04 05 06 07  08 09 0A 0B 0C 0D 0E 0F
      -- -- -- -- -- -- -- --  -- -- -- -- -- -- -- --
0110: 32 0D 80 1F 00 18 80 19  80 1A 80 1F 01 6F 00     2............o. 
```

#### Opcodes

```
  0: 0x0110 [0x32] ExtData[1]->MainSpeed = 13* * 0.1
  1: 0x0113 [0x1F] MOVE_ENTITY: EventEntity moves to X=402.733*, Z=-75.888*, Y=-0.319*
  2: 0x011B [0x1F] MOVE_ENTITY: Update entity position (mode=1)
  3: 0x011D [0x6F] WAIT_FRAME_DELAY: Yield until WaitTime reaches zero
  4: 0x011E [0x00] END_REQSTACK()
```

### Event 65535.16

#### Metadata

| Field        | Value    |
|--------------|----------|
| Entrypoint   | 0x011F   |
| Data Size    | 10 bytes |
| Instructions | 2        |

```
      00 01 02 03 04 05 06 07  08 09 0A 0B 0C 0D 0E 0F
      -- -- -- -- -- -- -- --  -- -- -- -- -- -- -- --
0110:                                               37                 7
0120: 1B 80 1C 80 1D 80 1E 80  00                       .........       
```

#### Opcodes

```
  0: 0x011F [0x37] UPDATE_EVENT_POSITION_AND_DIR: x=434.687*, z=-19.355*, y=-0.874*, direction=151.3°*
  1: 0x0128 [0x00] END_REQSTACK()
```

### Event 65535.17

#### Metadata

| Field        | Value    |
|--------------|----------|
| Entrypoint   | 0x0129   |
| Data Size    | 15 bytes |
| Instructions | 5        |

```
      00 01 02 03 04 05 06 07  08 09 0A 0B 0C 0D 0E 0F
      -- -- -- -- -- -- -- --  -- -- -- -- -- -- -- --
0120:                             32 0D 80 1F 00 1F 80           2......
0130: 20 80 21 80 1F 01 6F 00                            .!...o.        
```

#### Opcodes

```
  0: 0x0129 [0x32] ExtData[1]->MainSpeed = 13* * 0.1
  1: 0x012C [0x1F] MOVE_ENTITY: EventEntity moves to X=429.381*, Z=-21.832*, Y=-1.905*
  2: 0x0134 [0x1F] MOVE_ENTITY: Update entity position (mode=1)
  3: 0x0136 [0x6F] WAIT_FRAME_DELAY: Yield until WaitTime reaches zero
  4: 0x0137 [0x00] END_REQSTACK()
```

### Event 113

#### Metadata

| Field        | Value     |
|--------------|-----------|
| Entrypoint   | 0x0138    |
| Data Size    | 140 bytes |
| Instructions | 18        |

```
      00 01 02 03 04 05 06 07  08 09 0A 0B 0C 0D 0E 0F
      -- -- -- -- -- -- -- --  -- -- -- -- -- -- -- --
0130:                          42 46 01 4E 00 6B 81 01          BF.N.k..
0140: 01 80 6B 81 01 01 45 22  80 F8 FF FF 7F F8 FF FF  ..k...E"........
0150: 7F 66 64 69 32 23 80 45  24 80 F8 FF FF 7F F8 FF  .fdi2#.E$.......
0160: FF 7F 73 66 74 30 23 80  55 22 80 F8 FF FF 7F F8  ..sft0#.U"......
0170: FF FF 7F 66 64 69 32 6E  6B 81 01 01 00 80 99 6B  ...fdi2nk......k
0180: 81 01 01 2B 6B 81 01 01  25 80 23 55 24 80 F8 FF  ...+k...%.#U$...
0190: FF 7F F8 FF FF 7F 73 66  74 30 4E 01 6B 81 01 01  ......sft0N.k...
01A0: 46 00 45 22 80 F8 FF FF  7F F8 FF FF 7F 66 64 69  F.E".........fdi
01B0: 31 23 80 55 22 80 F8 FF  FF 7F F8 FF FF 7F 66 64  1#.U".........fd
01C0: 69 31 21 00                                       i1!.            
```

#### Opcodes

```
  0: 0x0138 [0x42] SET_CLI_EVENT_CANCEL_DATA()
  1: 0x0139 [0x46] CAMERA_CONTROL: Disable user control
  2: 0x013B [0x4E] SET_ENTITY_HIDE_FLAG: Show Travonce (ID: 16875883/0x0101816B)
  3: 0x0141 [0x80] LOAD_WAIT(entity=Travonce (ID: 16875883/0x0101816B))
  4: 0x0146 [0x45] LOAD_SCHEDULED_TASK: Load scheduler "fdi2" with entities [EventEntity, EventEntity], work=[200*, 0*]
  5: 0x0157 [0x45] LOAD_SCHEDULED_TASK: Load scheduler "sft0" with entities [EventEntity, EventEntity], work=[61*, 0*]
  6: 0x0168 [0x55] WAIT_LOAD_SCHEDULER: Wait for scheduler "fdi2" with entities [EventEntity, EventEntity], work=200*
  7: 0x0177 [0x6E] Travonce (ID: 16875883/0x0101816B) uses emote 8*
  8: 0x017E [0x99] Wait for Travonce (ID: 16875883/0x0101816B) animation to complete
  9: 0x0183 [0x2B] Travonce (ID: 16875883/0x0101816B) [7744*]:
    → "I was wondering when you'd finally get here. Now you know what to do: Concentrate on the monsters while I concentrate on the "big one!""
 10: 0x018A [0x23] WAIT_FOR_DIALOG_INTERACTION
 11: 0x018B [0x55] WAIT_LOAD_SCHEDULER: Wait for scheduler "sft0" with entities [EventEntity, EventEntity], work=61*
 12: 0x019A [0x4E] SET_ENTITY_HIDE_FLAG: Hide Travonce (ID: 16875883/0x0101816B)
 13: 0x01A0 [0x46] CAMERA_CONTROL: Restore default settings
 14: 0x01A2 [0x45] LOAD_SCHEDULED_TASK: Load scheduler "fdi1" with entities [EventEntity, EventEntity], work=[200*, 0*]
 15: 0x01B3 [0x55] WAIT_LOAD_SCHEDULER: Wait for scheduler "fdi1" with entities [EventEntity, EventEntity], work=200*
 16: 0x01C2 [0x21] END_EVENT
 17: 0x01C3 [0x00] END_REQSTACK()
```

### Event 115

#### Metadata

| Field        | Value     |
|--------------|-----------|
| Entrypoint   | 0x01C4    |
| Data Size    | 929 bytes |
| Instructions | 119       |

```
      00 01 02 03 04 05 06 07  08 09 0A 0B 0C 0D 0E 0F
      -- -- -- -- -- -- -- --  -- -- -- -- -- -- -- --
01C0:             42 45 22 80  F8 FF FF 7F F8 FF FF 7F      BE".........
01D0: 66 64 6F 31 23 80 55 22  80 F8 FF FF 7F F8 FF FF  fdo1#.U"........
01E0: 7F 66 64 6F 31 5D 23 80  26 80 46 01 38 27 80 37  .fdo1]#.&.F.8'.7
01F0: 28 80 29 80 2A 80 2B 80  1C 26 80 5C 00 2C 80 5C  (.).*.+..&.\.,.\
0200: 01 2C 80 45 2D 80 F0 FF  FF 7F F0 FF FF 7F 73 30  .,.E-.........s0
0210: 34 33 23 80 45 22 80 F8  FF FF 7F F8 FF FF 7F 66  43#.E".........f
0220: 64 69 31 23 80 55 22 80  F8 FF FF 7F F8 FF FF 7F  di1#.U".........
0230: 66 64 69 31 32 0D 80 1F  00 2E 80 2F 80 30 80 1F  fdi12....../.0..
0240: 01 2B 74 81 01 01 31 80  23 1C 32 80 29 0F 74 81  .+t...1.#.2.).t.
0250: 01 01 02 1E 74 81 01 01  1C 33 80 52 2D 80 F0 FF  ....t....3.R-...
0260: FF 7F F0 FF FF 7F 73 30  34 33 45 2D 80 F0 FF FF  ......s043E-....
0270: 7F F0 FF FF 7F 73 30 34  34 23 80 6E 74 81 01 01  .....s044#.nt...
0280: 00 80 99 74 81 01 01 1C  33 80 29 0F 74 81 01 01  ...t....3.).t...
0290: 03 1C 33 80 52 2D 80 F0  FF FF 7F F0 FF FF 7F 73  ..3.R-.........s
02A0: 30 34 34 45 2D 80 F0 FF  FF 7F F0 FF FF 7F 73 30  044E-.........s0
02B0: 34 35 23 80 1C 32 80 66  2D 80 74 81 01 01 74 81  45#..2.f-.t...t.
02C0: 01 01 74 6C 62 30 2B 74  81 01 01 34 80 23 66 2D  ..tlb0+t...4.#f-
02D0: 80 74 81 01 01 74 81 01  01 74 6C 62 31 1C 35 80  .t...t...tlb1.5.
02E0: 2B 74 81 01 01 36 80 23  52 2D 80 F0 FF FF 7F F0  +t...6.#R-......
02F0: FF FF 7F 73 30 34 35 37  37 80 38 80 30 80 39 80  ...s04577.8.0.9.
0300: 45 2D 80 F0 FF FF 7F F0  FF FF 7F 73 30 34 36 23  E-.........s046#
0310: 80 6E 74 81 01 01 3A 80  99 74 81 01 01 1E 74 81  .nt...:..t....t.
0320: 01 01 1C 35 80 2B 74 81  01 01 3B 80 23 45 22 80  ...5.+t...;.#E".
0330: F8 FF FF 7F F8 FF FF 7F  66 64 6F 31 23 80 55 22  ........fdo1#.U"
0340: 80 F8 FF FF 7F F8 FF FF  7F 66 64 6F 31 52 2D 80  .........fdo1R-.
0350: F0 FF FF 7F F0 FF FF 7F  73 30 34 36 45 2D 80 F0  ........s046E-..
0360: FF FF 7F F0 FF FF 7F 73  30 34 37 23 80 1C 33 80  .......s047#..3.
0370: 45 22 80 F8 FF FF 7F F8  FF FF 7F 66 64 69 31 23  E".........fdi1#
0380: 80 55 22 80 F8 FF FF 7F  F8 FF FF 7F 66 64 69 31  .U".........fdi1
0390: 1C 33 80 1E 73 81 01 01  1C 35 80 6E 74 81 01 01  .3..s....5.nt...
03A0: 3C 80 99 74 81 01 01 2B  74 81 01 01 3D 80 23 2B  <..t...+t...=.#+
03B0: 74 81 01 01 3E 80 23 1C  32 80 4A 74 81 01 01 73  t...>.#.2.Jt...s
03C0: 81 01 01 45 22 80 F8 FF  FF 7F F8 FF FF 7F 6F 76  ...E".........ov
03D0: 6C 31 23 80 52 2D 80 F0  FF FF 7F F0 FF FF 7F 73  l1#.R-.........s
03E0: 30 34 37 22 01 45 2D 80  F0 FF FF 7F F0 FF FF 7F  047".E-.........
03F0: 73 30 34 38 23 80 1C 35  80 2B 74 81 01 01 3F 80  s048#..5.+t...?.
0400: 23 1C 33 80 52 2D 80 F0  FF FF 7F F0 FF FF 7F 73  #.3.R-.........s
0410: 30 34 38 22 00 37 40 80  41 80 30 80 42 80 45 2D  048".7@.A.0.B.E-
0420: 80 F0 FF FF 7F F0 FF FF  7F 73 30 35 34 23 80 1C  .........s054#..
0430: 32 80 79 00 74 81 01 01  F0 FF FF 7F 2B 74 81 01  2.y.t.......+t..
0440: 01 43 80 23 1C 35 80 66  2D 80 74 81 01 01 74 81  .C.#.5.f-.t...t.
0450: 01 01 74 6C 62 30 1C 32  80 2B 74 81 01 01 44 80  ..tlb0.2.+t...D.
0460: 23 66 2D 80 74 81 01 01  74 81 01 01 74 6C 62 31  #f-.t...t...tlb1
0470: 1C 33 80 45 22 80 F8 FF  FF 7F F8 FF FF 7F 6F 76  .3.E".........ov
0480: 6C 31 23 80 52 2D 80 F0  FF FF 7F F0 FF FF 7F 73  l1#.R-.........s
0490: 30 35 34 37 37 80 38 80  30 80 39 80 45 2D 80 F0  05477.8.0.9.E-..
04A0: FF FF 7F F0 FF FF 7F 73  30 34 39 23 80 4A 74 81  .......s049#.Jt.
04B0: 01 01 F0 FF FF 7F 1C 33  80 66 2D 80 74 81 01 01  .......3.f-.t...
04C0: 74 81 01 01 74 6C 62 30  2B 74 81 01 01 45 80 23  t...tlb0+t...E.#
04D0: 66 2D 80 74 81 01 01 74  81 01 01 74 6C 62 31 1C  f-.t...t...tlb1.
04E0: 32 80 1E 74 81 01 01 1C  35 80 79 00 74 81 01 01  2..t....5.y.t...
04F0: 73 81 01 01 1C 33 80 2B  74 81 01 01 46 80 23 1C  s....3.+t...F.#.
0500: 33 80 45 22 80 F8 FF FF  7F F8 FF FF 7F 66 64 6F  3.E".........fdo
0510: 30 23 80 55 22 80 F8 FF  FF 7F F8 FF FF 7F 66 64  0#.U".........fd
0520: 6F 30 5D 23 80 26 80 52  2D 80 F0 FF FF 7F F0 FF  o0]#.&.R-.......
0530: FF 7F 73 30 34 39 46 00  5C 00 47 80 5C 01 47 80  ..s049F.\.G.\.G.
0540: 1C 35 80 45 22 80 F8 FF  FF 7F F8 FF FF 7F 66 64  .5.E".........fd
0550: 69 30 23 80 55 22 80 F8  FF FF 7F F8 FF FF 7F 66  i0#.U".........f
0560: 64 6F 30 21 00                                    do0!.           
```

#### Opcodes

```
  0: 0x01C4 [0x42] SET_CLI_EVENT_CANCEL_DATA()
  1: 0x01C5 [0x45] LOAD_SCHEDULED_TASK: Load scheduler "fdo1" with entities [EventEntity, EventEntity], work=[200*, 0*]
  2: 0x01D6 [0x55] WAIT_LOAD_SCHEDULER: Wait for scheduler "fdo1" with entities [EventEntity, EventEntity], work=200*
  3: 0x01E5 [0x5D] SET_MUSIC_VOLUME(volume=0*, fade_time=120*)
  4: 0x01EA [0x46] CAMERA_CONTROL: Disable user control
  5: 0x01EC [0x38] SET_CLIENT_EVENT_MODE(mode=19*)
  6: 0x01EF [0x37] UPDATE_EVENT_POSITION_AND_DIR: x=-199.879*, z=297.317*, y=-15.128*, direction=269.3°*
  7: 0x01F8 [0x1C] WAIT(120* ticks)
  8: 0x01FB [0x5C] MUSIC_CONTROL: Set Idle (Day) music to song 245*
  9: 0x01FF [0x5C] MUSIC_CONTROL: Set Idle (Night) music to song 245*
 10: 0x0203 [0x45] LOAD_SCHEDULED_TASK: Load scheduler "s043" with entities [LocalPlayer, LocalPlayer], work=[33*, 0*]
 11: 0x0214 [0x45] LOAD_SCHEDULED_TASK: Load scheduler "fdi1" with entities [EventEntity, EventEntity], work=[200*, 0*]
 12: 0x0225 [0x55] WAIT_LOAD_SCHEDULER: Wait for scheduler "fdi1" with entities [EventEntity, EventEntity], work=200*
 13: 0x0234 [0x32] ExtData[1]->MainSpeed = 13* * 0.1
 14: 0x0237 [0x1F] MOVE_ENTITY: EventEntity moves to X=-199.888*, Z=306.899*, Y=-16.284*
 15: 0x023F [0x1F] MOVE_ENTITY: Update entity position (mode=1)
 16: 0x0241 [0x2B] Chemioue (ID: 16875892/0x01018174) [7786*]:
    → "What in Altana's name are you doing here?"
 17: 0x0248 [0x23] WAIT_FOR_DIALOG_INTERACTION
 18: 0x0249 [0x1C] WAIT(30* ticks)
 19: 0x024C [0x29] REQ_SET_WAIT(priority=0x0F, entity_id=Chemioue (ID: 16875892/0x01018174), tag_num=0x02)
 20: 0x0253 [0x1E] EventEntity looks at Chemioue (ID: 16875892/0x01018174) and starts talking
 21: 0x0258 [0x1C] WAIT(60* ticks)
 22: 0x025B [0x52] END_LOAD_SCHEDULER: End scheduler "s043" with entities [LocalPlayer, LocalPlayer], work=33*
 23: 0x026A [0x45] LOAD_SCHEDULED_TASK: Load scheduler "s044" with entities [LocalPlayer, LocalPlayer], work=[33*, 0*]
 24: 0x027B [0x6E] Chemioue (ID: 16875892/0x01018174) uses emote 8*
 25: 0x0282 [0x99] Wait for Chemioue (ID: 16875892/0x01018174) animation to complete
 26: 0x0287 [0x1C] WAIT(60* ticks)
 27: 0x028A [0x29] REQ_SET_WAIT(priority=0x0F, entity_id=Chemioue (ID: 16875892/0x01018174), tag_num=0x03)
 28: 0x0291 [0x1C] WAIT(60* ticks)
 29: 0x0294 [0x52] END_LOAD_SCHEDULER: End scheduler "s044" with entities [LocalPlayer, LocalPlayer], work=33*
 30: 0x02A3 [0x45] LOAD_SCHEDULED_TASK: Load scheduler "s045" with entities [LocalPlayer, LocalPlayer], work=[33*, 0*]
 31: 0x02B4 [0x1C] WAIT(30* ticks)
 32: 0x02B7 [0x66] LOAD_EXT_SCHEDULER_MAIN: Load scheduler "tlb0" with entities [Chemioue (ID: 16875892/0x01018174), Chemioue (ID: 16875892/0x01018174)], work=33*
 33: 0x02C6 [0x2B] Chemioue (ID: 16875892/0x01018174) [7787*]:
    → "Me? I have come to collect ingredients to make medicine."
 34: 0x02CD [0x23] WAIT_FOR_DIALOG_INTERACTION
 35: 0x02CE [0x66] LOAD_EXT_SCHEDULER_MAIN: Load scheduler "tlb1" with entities [Chemioue (ID: 16875892/0x01018174), Chemioue (ID: 16875892/0x01018174)], work=33*
 36: 0x02DD [0x1C] WAIT(90* ticks)
 37: 0x02E0 [0x2B] Chemioue (ID: 16875892/0x01018174) [7788*]:
    → "You say Parelbriaux visited this spot as well?"
 38: 0x02E7 [0x23] WAIT_FOR_DIALOG_INTERACTION
 39: 0x02E8 [0x52] END_LOAD_SCHEDULER: End scheduler "s045" with entities [LocalPlayer, LocalPlayer], work=33*
 40: 0x02F7 [0x37] UPDATE_EVENT_POSITION_AND_DIR: x=-204.898*, z=307.254*, y=-16.284*, direction=188.3°*
 41: 0x0300 [0x45] LOAD_SCHEDULED_TASK: Load scheduler "s046" with entities [LocalPlayer, LocalPlayer], work=[33*, 0*]
 42: 0x0311 [0x6E] Chemioue (ID: 16875892/0x01018174) uses emote 16*
 43: 0x0318 [0x99] Wait for Chemioue (ID: 16875892/0x01018174) animation to complete
 44: 0x031D [0x1E] EventEntity looks at Chemioue (ID: 16875892/0x01018174) and starts talking
 45: 0x0322 [0x1C] WAIT(90* ticks)
 46: 0x0325 [0x2B] Chemioue (ID: 16875892/0x01018174) [7789*]:
    → "But why would he...?"
 47: 0x032C [0x23] WAIT_FOR_DIALOG_INTERACTION
 48: 0x032D [0x45] LOAD_SCHEDULED_TASK: Load scheduler "fdo1" with entities [EventEntity, EventEntity], work=[200*, 0*]
 49: 0x033E [0x55] WAIT_LOAD_SCHEDULER: Wait for scheduler "fdo1" with entities [EventEntity, EventEntity], work=200*
 50: 0x034D [0x52] END_LOAD_SCHEDULER: End scheduler "s046" with entities [LocalPlayer, LocalPlayer], work=33*
 51: 0x035C [0x45] LOAD_SCHEDULED_TASK: Load scheduler "s047" with entities [LocalPlayer, LocalPlayer], work=[33*, 0*]
 52: 0x036D [0x1C] WAIT(60* ticks)
 53: 0x0370 [0x45] LOAD_SCHEDULED_TASK: Load scheduler "fdi1" with entities [EventEntity, EventEntity], work=[200*, 0*]
 54: 0x0381 [0x55] WAIT_LOAD_SCHEDULER: Wait for scheduler "fdi1" with entities [EventEntity, EventEntity], work=200*
 55: 0x0390 [0x1C] WAIT(60* ticks)
 56: 0x0393 [0x1E] EventEntity looks at ??? (ID: 16875891/0x01018173) and starts talking
 57: 0x0398 [0x1C] WAIT(90* ticks)
 58: 0x039B [0x6E] Chemioue (ID: 16875892/0x01018174) uses emote 26*
 59: 0x03A2 [0x99] Wait for Chemioue (ID: 16875892/0x01018174) animation to complete
 60: 0x03A7 [0x2B] Chemioue (ID: 16875892/0x01018174) [7790*]:
    → "I must hurry back to the safehold!"
 61: 0x03AE [0x23] WAIT_FOR_DIALOG_INTERACTION
 62: 0x03AF [0x2B] Chemioue (ID: 16875892/0x01018174) [7791*]:
    → "Parelbriaux may be obnoxious at times but..."
 63: 0x03B6 [0x23] WAIT_FOR_DIALOG_INTERACTION
 64: 0x03B7 [0x1C] WAIT(30* ticks)
 65: 0x03BA [0x4A] Chemioue (ID: 16875892/0x01018174) looks at ??? (ID: 16875891/0x01018173)
 66: 0x03C3 [0x45] LOAD_SCHEDULED_TASK: Load scheduler "ovl1" with entities [EventEntity, EventEntity], work=[200*, 0*]
 67: 0x03D4 [0x52] END_LOAD_SCHEDULER: End scheduler "s047" with entities [LocalPlayer, LocalPlayer], work=33*
 68: 0x03E3 [0x22] ENTITY_HIDE_FLAG(enabled=0x01)
 69: 0x03E5 [0x45] LOAD_SCHEDULED_TASK: Load scheduler "s048" with entities [LocalPlayer, LocalPlayer], work=[33*, 0*]
 70: 0x03F6 [0x1C] WAIT(90* ticks)
 71: 0x03F9 [0x2B] Chemioue (ID: 16875892/0x01018174) [7792*]:
    → "...but if anything terrible were to befall him..."
 72: 0x0400 [0x23] WAIT_FOR_DIALOG_INTERACTION
 73: 0x0401 [0x1C] WAIT(60* ticks)
 74: 0x0404 [0x52] END_LOAD_SCHEDULER: End scheduler "s048" with entities [LocalPlayer, LocalPlayer], work=33*
 75: 0x0413 [0x22] ENTITY_HIDE_FLAG(enabled=0x00)
 76: 0x0415 [0x37] UPDATE_EVENT_POSITION_AND_DIR: x=-200.341*, z=304.300*, y=-16.284*, direction=124.4°*
 77: 0x041E [0x45] LOAD_SCHEDULED_TASK: Load scheduler "s054" with entities [LocalPlayer, LocalPlayer], work=[33*, 0*]
 78: 0x042F [0x1C] WAIT(30* ticks)
 79: 0x0432 [0x79] Chemioue (ID: 16875892/0x01018174) looks at LocalPlayer (Basic look)
 80: 0x043C [0x2B] Chemioue (ID: 16875892/0x01018174) [7793*]:
    → "Oh, I heard from Ondieulix that you were searching for my bag."
 81: 0x0443 [0x23] WAIT_FOR_DIALOG_INTERACTION
 82: 0x0444 [0x1C] WAIT(90* ticks)
 83: 0x0447 [0x66] LOAD_EXT_SCHEDULER_MAIN: Load scheduler "tlb0" with entities [Chemioue (ID: 16875892/0x01018174), Chemioue (ID: 16875892/0x01018174)], work=33*
 84: 0x0456 [0x1C] WAIT(30* ticks)
 85: 0x0459 [0x2B] Chemioue (ID: 16875892/0x01018174) [7794*]:
    → "... Thank you..."
 86: 0x0460 [0x23] WAIT_FOR_DIALOG_INTERACTION
 87: 0x0461 [0x66] LOAD_EXT_SCHEDULER_MAIN: Load scheduler "tlb1" with entities [Chemioue (ID: 16875892/0x01018174), Chemioue (ID: 16875892/0x01018174)], work=33*
 88: 0x0470 [0x1C] WAIT(60* ticks)
 89: 0x0473 [0x45] LOAD_SCHEDULED_TASK: Load scheduler "ovl1" with entities [EventEntity, EventEntity], work=[200*, 0*]
 90: 0x0484 [0x52] END_LOAD_SCHEDULER: End scheduler "s054" with entities [LocalPlayer, LocalPlayer], work=33*
 91: 0x0493 [0x37] UPDATE_EVENT_POSITION_AND_DIR: x=-204.898*, z=307.254*, y=-16.284*, direction=188.3°*
 92: 0x049C [0x45] LOAD_SCHEDULED_TASK: Load scheduler "s049" with entities [LocalPlayer, LocalPlayer], work=[33*, 0*]
 93: 0x04AD [0x4A] Chemioue (ID: 16875892/0x01018174) looks at LocalPlayer
 94: 0x04B6 [0x1C] WAIT(60* ticks)
 95: 0x04B9 [0x66] LOAD_EXT_SCHEDULER_MAIN: Load scheduler "tlb0" with entities [Chemioue (ID: 16875892/0x01018174), Chemioue (ID: 16875892/0x01018174)], work=33*
 96: 0x04C8 [0x2B] Chemioue (ID: 16875892/0x01018174) [7795*]:
    → "Maybe Ondieulix was right."
 97: 0x04CF [0x23] WAIT_FOR_DIALOG_INTERACTION
 98: 0x04D0 [0x66] LOAD_EXT_SCHEDULER_MAIN: Load scheduler "tlb1" with entities [Chemioue (ID: 16875892/0x01018174), Chemioue (ID: 16875892/0x01018174)], work=33*
 99: 0x04DF [0x1C] WAIT(30* ticks)
100: 0x04E2 [0x1E] EventEntity looks at Chemioue (ID: 16875892/0x01018174) and starts talking
101: 0x04E7 [0x1C] WAIT(90* ticks)
102: 0x04EA [0x79] Chemioue (ID: 16875892/0x01018174) looks at ??? (ID: 16875891/0x01018173) (Basic look)
103: 0x04F4 [0x1C] WAIT(60* ticks)
104: 0x04F7 [0x2B] Chemioue (ID: 16875892/0x01018174) [7796*]:
    → "Maybe adventurers are not all that bad..."
105: 0x04FE [0x23] WAIT_FOR_DIALOG_INTERACTION
106: 0x04FF [0x1C] WAIT(60* ticks)
107: 0x0502 [0x45] LOAD_SCHEDULED_TASK: Load scheduler "fdo0" with entities [EventEntity, EventEntity], work=[200*, 0*]
108: 0x0513 [0x55] WAIT_LOAD_SCHEDULER: Wait for scheduler "fdo0" with entities [EventEntity, EventEntity], work=200*
109: 0x0522 [0x5D] SET_MUSIC_VOLUME(volume=0*, fade_time=120*)
110: 0x0527 [0x52] END_LOAD_SCHEDULER: End scheduler "s049" with entities [LocalPlayer, LocalPlayer], work=33*
111: 0x0536 [0x46] CAMERA_CONTROL: Restore default settings
112: 0x0538 [0x5C] MUSIC_CONTROL: Set Idle (Day) music to song 230*
113: 0x053C [0x5C] MUSIC_CONTROL: Set Idle (Night) music to song 230*
114: 0x0540 [0x1C] WAIT(90* ticks)
115: 0x0543 [0x45] LOAD_SCHEDULED_TASK: Load scheduler "fdi0" with entities [EventEntity, EventEntity], work=[200*, 0*]
116: 0x0554 [0x55] WAIT_LOAD_SCHEDULER: Wait for scheduler "fdo0" with entities [EventEntity, EventEntity], work=200*
117: 0x0563 [0x21] END_EVENT
118: 0x0564 [0x00] END_REQSTACK()
```

### Event 65535.18

#### Metadata

| Field        | Value    |
|--------------|----------|
| Entrypoint   | 0x0565   |
| Data Size    | 10 bytes |
| Instructions | 2        |

```
      00 01 02 03 04 05 06 07  08 09 0A 0B 0C 0D 0E 0F
      -- -- -- -- -- -- -- --  -- -- -- -- -- -- -- --
0560:                37 48 80  49 80 4A 80 4B 80 00          7H.I.J.K.. 
```

#### Opcodes

```
  0: 0x0565 [0x37] UPDATE_EVENT_POSITION_AND_DIR: x=202.852*, z=338.700*, y=-22.957*, direction=295.0°*
  1: 0x056E [0x00] END_REQSTACK()
```

### Event 65535.19

#### Metadata

| Field        | Value   |
|--------------|---------|
| Entrypoint   | 0x056F  |
| Data Size    | 1 bytes |
| Instructions | 1       |

```
      00 01 02 03 04 05 06 07  08 09 0A 0B 0C 0D 0E 0F
      -- -- -- -- -- -- -- --  -- -- -- -- -- -- -- --
0560:                                               00                 .
```

#### Opcodes

```
  0: 0x056F [0x00] END_REQSTACK()
```

### Event 65535.20

#### Metadata

| Field        | Value    |
|--------------|----------|
| Entrypoint   | 0x0570   |
| Data Size    | 15 bytes |
| Instructions | 5        |

```
      00 01 02 03 04 05 06 07  08 09 0A 0B 0C 0D 0E 0F
      -- -- -- -- -- -- -- --  -- -- -- -- -- -- -- --
0570: 32 4C 80 1F 00 4D 80 4E  80 4F 80 1F 01 6F 00     2L...M.N.O...o. 
```

#### Opcodes

```
  0: 0x0570 [0x32] ExtData[1]->MainSpeed = 11* * 0.1
  1: 0x0573 [0x1F] MOVE_ENTITY: EventEntity moves to X=206.929*, Z=344.433*, Y=-22.419*
  2: 0x057B [0x1F] MOVE_ENTITY: Update entity position (mode=1)
  3: 0x057D [0x6F] WAIT_FRAME_DELAY: Yield until WaitTime reaches zero
  4: 0x057E [0x00] END_REQSTACK()
```

### Event 65535.21

#### Metadata

| Field        | Value   |
|--------------|---------|
| Entrypoint   | 0x057F  |
| Data Size    | 6 bytes |
| Instructions | 2       |

```
      00 01 02 03 04 05 06 07  08 09 0A 0B 0C 0D 0E 0F
      -- -- -- -- -- -- -- --  -- -- -- -- -- -- -- --
0570:                                               03                 .
0580: 02 10 07 7F 00                                    .....           
```

#### Opcodes

```
  0: 0x057F [0x03] Work_Zone[2] = Entity->Race
  1: 0x0584 [0x00] END_REQSTACK()
```
