# Event 335

## Metadata

| Field           | Value    |
|-----------------|----------|
| Event Index     | 5/5      |
| Offset          | 0x001B   |
| Data Size       | 29 bytes |
| Calculated Size | 29 bytes |
| Instructions    | 10       |

```
      00 01 02 03 04 05 06 07  08 09 0A 0B 0C 0D 0E 0F
      -- -- -- -- -- -- -- --  -- -- -- -- -- -- -- --
0010:                                   1E F0 FF FF 7F             .....
0020: 6F 70 29 0B 62 F0 0E 01  01 1D 02 80 23 29 0B 62  op).b.......#).b
0030: F0 0E 01 02 20 00 21 00                           .... .!.        
```

## Opcodes

```
  0: 0x001B [0x1E] EventEntity looks at LocalPlayer and starts talking
  1: 0x0020 [0x6F] WAIT_FRAME_DELAY: Yield until WaitTime reaches zero
  2: 0x0021 [0x70] WAIT_ENTITY_RENDER_FLAG: Wait while EventEntity->Render.Flags3 bit 2 is set (cancel turn if not)
  3: 0x0022 [0x29] REQ_SET_WAIT(priority=0x0B, entity_id=Karola (ID: 17756258/0x010EF062), tag_num=0x01)
  4: 0x0029 [0x1D] PRINT_EVENT_MESSAGE(message_id=7966*)
    → "Have you already been inside Heavens Tower? I came all the way here to see this strange spring inside. They say you can see the stars in it.\u007F1\u0000\u0007"
  5: 0x002C [0x23] WAIT_FOR_DIALOG_INTERACTION
  6: 0x002D [0x29] REQ_SET_WAIT(priority=0x0B, entity_id=Karola (ID: 17756258/0x010EF062), tag_num=0x02)
  7: 0x0034 [0x20] SET_CLI_EVENT_UC_FLAG: Unlock player control
  8: 0x0036 [0x21] END_EVENT
  9: 0x0037 [0x00] END_REQSTACK()
```
