# 17273398 - Carmelo

## Common Data

| Field            | Value                             |
|------------------|-----------------------------------|
| Zone             | The Sanctuary of Zi'Tah (ID: 121) |
| Block Size       | 172 bytes                         |
| Total Events     | 6                                 |
| References Count | 13                                |

## List of Events

| Event ID                 | Entrypoint   |   Size |   Instructions |
|--------------------------|--------------|--------|----------------|
| [65535](#event-65535)    | 0x0000       |      1 |              1 |
| [204](#event-204)        | 0x0001       |      1 |              1 |
| [65535.1](#event-655351) | 0x0002       |     25 |              6 |
| [65535.2](#event-655352) | 0x001B       |     16 |              5 |
| [65535.3](#event-655353) | 0x002B       |     16 |              5 |
| [65535.4](#event-655354) | 0x003B       |     18 |              6 |

## DAT References (imed_data)

|   Index | Hex Value   |   Dec Value |
|---------|-------------|-------------|
|       0 | 0x000D      |          13 |
|       1 | 0x562F      |       22063 |
|       2 | 0x157AE     |       87982 |
|       3 | 0x044A      |        1098 |
|       4 | 0x5D0D      |       23821 |
|       5 | 0x162FB     |       90875 |
|       6 | 0x030A      |         778 |
|       7 | 0x6855      |       26709 |
|       8 | 0x163F0     |       91120 |
|       9 | 0x03B3      |         947 |
|      10 | 0x915B      |       37211 |
|      11 | 0x1757B     |       95611 |
|      12 | 0x02F5      |         757 |

## Events

### Event 65535

#### Metadata

| Field        | Value   |
|--------------|---------|
| Entrypoint   | 0x0000  |
| Data Size    | 1 bytes |
| Instructions | 1       |

```
      00 01 02 03 04 05 06 07  08 09 0A 0B 0C 0D 0E 0F
      -- -- -- -- -- -- -- --  -- -- -- -- -- -- -- --
0000: 00                                                .               
```

#### Opcodes

```
  0: 0x0000 [0x00] END_REQSTACK()
```

### Event 204

#### Metadata

| Field        | Value   |
|--------------|---------|
| Entrypoint   | 0x0001  |
| Data Size    | 1 bytes |
| Instructions | 1       |

```
      00 01 02 03 04 05 06 07  08 09 0A 0B 0C 0D 0E 0F
      -- -- -- -- -- -- -- --  -- -- -- -- -- -- -- --
0000:    00                                              .              
```

#### Opcodes

```
  0: 0x0001 [0x00] END_REQSTACK()
```

### Event 65535.1

#### Metadata

| Field        | Value    |
|--------------|----------|
| Entrypoint   | 0x0002   |
| Data Size    | 25 bytes |
| Instructions | 6        |

```
      00 01 02 03 04 05 06 07  08 09 0A 0B 0C 0D 0E 0F
      -- -- -- -- -- -- -- --  -- -- -- -- -- -- -- --
0000:       22 00 32 00 80 1F  00 01 80 02 80 03 80 1F    ".2...........
0010: 01 4A 36 92 07 01 F0 FF  FF 7F 00                 .J6........     
```

#### Opcodes

```
  0: 0x0002 [0x22] ENTITY_HIDE_FLAG(enabled=0x00)
  1: 0x0004 [0x32] ExtData[1]->MainSpeed = 13* * 0.1
  2: 0x0007 [0x1F] MOVE_ENTITY: EventEntity moves to X=22.063*, Z=87.982*, Y=1.098*
  3: 0x000F [0x1F] MOVE_ENTITY: Update entity position (mode=1)
  4: 0x0011 [0x4A] Carmelo (ID: 17273398/0x01079236) looks at LocalPlayer
  5: 0x001A [0x00] END_REQSTACK()
```

### Event 65535.2

#### Metadata

| Field        | Value    |
|--------------|----------|
| Entrypoint   | 0x001B   |
| Data Size    | 16 bytes |
| Instructions | 5        |

```
      00 01 02 03 04 05 06 07  08 09 0A 0B 0C 0D 0E 0F
      -- -- -- -- -- -- -- --  -- -- -- -- -- -- -- --
0010:                                   22 00 32 00 80             ".2..
0020: 1F 00 04 80 05 80 06 80  1F 01 00                 ...........     
```

#### Opcodes

```
  0: 0x001B [0x22] ENTITY_HIDE_FLAG(enabled=0x00)
  1: 0x001D [0x32] ExtData[1]->MainSpeed = 13* * 0.1
  2: 0x0020 [0x1F] MOVE_ENTITY: EventEntity moves to X=23.821*, Z=90.875*, Y=0.778*
  3: 0x0028 [0x1F] MOVE_ENTITY: Update entity position (mode=1)
  4: 0x002A [0x00] END_REQSTACK()
```

### Event 65535.3

#### Metadata

| Field        | Value    |
|--------------|----------|
| Entrypoint   | 0x002B   |
| Data Size    | 16 bytes |
| Instructions | 5        |

```
      00 01 02 03 04 05 06 07  08 09 0A 0B 0C 0D 0E 0F
      -- -- -- -- -- -- -- --  -- -- -- -- -- -- -- --
0020:                                   22 00 32 00 80             ".2..
0030: 1F 00 07 80 08 80 09 80  1F 01 00                 ...........     
```

#### Opcodes

```
  0: 0x002B [0x22] ENTITY_HIDE_FLAG(enabled=0x00)
  1: 0x002D [0x32] ExtData[1]->MainSpeed = 13* * 0.1
  2: 0x0030 [0x1F] MOVE_ENTITY: EventEntity moves to X=26.709*, Z=91.120*, Y=0.947*
  3: 0x0038 [0x1F] MOVE_ENTITY: Update entity position (mode=1)
  4: 0x003A [0x00] END_REQSTACK()
```

### Event 65535.4

#### Metadata

| Field        | Value    |
|--------------|----------|
| Entrypoint   | 0x003B   |
| Data Size    | 18 bytes |
| Instructions | 6        |

```
      00 01 02 03 04 05 06 07  08 09 0A 0B 0C 0D 0E 0F
      -- -- -- -- -- -- -- --  -- -- -- -- -- -- -- --
0030:                                   22 00 32 00 80             ".2..
0040: 1F 00 0A 80 0B 80 0C 80  1F 01 22 01 00           .........."..   
```

#### Opcodes

```
  0: 0x003B [0x22] ENTITY_HIDE_FLAG(enabled=0x00)
  1: 0x003D [0x32] ExtData[1]->MainSpeed = 13* * 0.1
  2: 0x0040 [0x1F] MOVE_ENTITY: EventEntity moves to X=37.211*, Z=95.611*, Y=0.757*
  3: 0x0048 [0x1F] MOVE_ENTITY: Update entity position (mode=1)
  4: 0x004A [0x22] ENTITY_HIDE_FLAG(enabled=0x01)
  5: 0x004C [0x00] END_REQSTACK()
```
