# 17273392

## Common Data

| Field            | Value                             |
|------------------|-----------------------------------|
| Zone             | The Sanctuary of Zi'Tah (ID: 121) |
| Block Size       | 60 bytes                          |
| Total Events     | 2                                 |
| References Count | 4                                 |

## List of Events

| Event ID              | Entrypoint   |   Size |   Instructions |
|-----------------------|--------------|--------|----------------|
| [65535](#event-65535) | 0x0000       |      1 |              1 |
| [202](#event-202)     | 0x0001       |     18 |              4 |

## DAT References (imed_data)

|   Index | Hex Value   |   Dec Value |
|---------|-------------|-------------|
|       0 | 0x3AE4D     |      241229 |
|       1 | 0x44A6A     |      281194 |
|       2 | 0x0000      |           0 |
|       3 | 0x077A      |        1914 |

## Events

### Event 65535

#### Metadata

| Field        | Value   |
|--------------|---------|
| Entrypoint   | 0x0000  |
| Data Size    | 1 bytes |
| Instructions | 1       |

```
      00 01 02 03 04 05 06 07  08 09 0A 0B 0C 0D 0E 0F
      -- -- -- -- -- -- -- --  -- -- -- -- -- -- -- --
0000: 00                                                .               
```

#### Opcodes

```
  0: 0x0000 [0x00] END_REQSTACK()
```

### Event 202

#### Metadata

| Field        | Value    |
|--------------|----------|
| Entrypoint   | 0x0001   |
| Data Size    | 18 bytes |
| Instructions | 4        |

```
      00 01 02 03 04 05 06 07  08 09 0A 0B 0C 0D 0E 0F
      -- -- -- -- -- -- -- --  -- -- -- -- -- -- -- --
0000:    22 00 2F 00 F8 FF FF  7F 37 00 80 01 80 02 80   "./.....7......
0010: 03 80 00                                          ...             
```

#### Opcodes

```
  0: 0x0001 [0x22] ENTITY_HIDE_FLAG(enabled=0x00)
  1: 0x0003 [0x2F] EventEntity->Render.Flags0 &= ~0x80000 // Bit 19
  2: 0x0009 [0x37] UPDATE_EVENT_POSITION_AND_DIR: x=241.229*, z=281.194*, y=0.000*, direction=168.2°*
  3: 0x0012 [0x00] END_REQSTACK()
```
