# 17273395

## Common Data

| Field            | Value                             |
|------------------|-----------------------------------|
| Zone             | The Sanctuary of Zi'Tah (ID: 121) |
| Block Size       | 80 bytes                          |
| Total Events     | 2                                 |
| References Count | 4                                 |

## List of Events

| Event ID              | Entrypoint   |   Size |   Instructions |
|-----------------------|--------------|--------|----------------|
| [65535](#event-65535) | 0x0000       |      1 |              1 |
| [203](#event-203)     | 0x0001       |     36 |              8 |

## DAT References (imed_data)

|   Index | Hex Value   |   Dec Value |
|---------|-------------|-------------|
|       0 | 0x0003      |           3 |
|       1 | 0x0000      |           0 |
|       2 | 0x001E      |          30 |
|       3 | 0x1E73      |        7795 |

## String References

- **7795**: Something is lying by the edge of the pond.

## Events

### Event 65535

#### Metadata

| Field        | Value   |
|--------------|---------|
| Entrypoint   | 0x0000  |
| Data Size    | 1 bytes |
| Instructions | 1       |

```
      00 01 02 03 04 05 06 07  08 09 0A 0B 0C 0D 0E 0F
      -- -- -- -- -- -- -- --  -- -- -- -- -- -- -- --
0000: 00                                                .               
```

#### Opcodes

```
  0: 0x0000 [0x00] END_REQSTACK()
```

### Event 203

#### Metadata

| Field        | Value    |
|--------------|----------|
| Entrypoint   | 0x0001   |
| Data Size    | 36 bytes |
| Instructions | 8        |

```
      00 01 02 03 04 05 06 07  08 09 0A 0B 0C 0D 0E 0F
      -- -- -- -- -- -- -- --  -- -- -- -- -- -- -- --
0000:    42 4A F0 FF FF 7F F8  FF FF 7F 62 00 80 F8 FF   BJ........b....
0010: FF 7F F8 FF FF 7F 6D 61  69 6E 01 80 1C 02 80 48  ......main.....H
0020: 03 80 23 21 00                                    ..#!.           
```

#### Opcodes

```
  0: 0x0001 [0x42] SET_CLI_EVENT_CANCEL_DATA()
  1: 0x0002 [0x4A] LocalPlayer looks at EventEntity
  2: 0x000B [0x62] LOAD_EVENT_SCHEDULER: Load scheduler "main" with entities [EventEntity, EventEntity], work=[3*, 0*]
  3: 0x001C [0x1C] WAIT(30* ticks)
  4: 0x001F [0x48] [System] [7795*]:
    → "Something is lying by the edge of the pond."
  5: 0x0022 [0x23] WAIT_FOR_DIALOG_INTERACTION
  6: 0x0023 [0x21] END_EVENT
  7: 0x0024 [0x00] END_REQSTACK()
```
