# 0x7FFFFFF0 - Zone Events

## Common Data

| Field            | Value                             |
|------------------|-----------------------------------|
| Zone             | The Sanctuary of Zi'Tah (ID: 121) |
| Block Size       | 2296 bytes                        |
| Total Events     | 19                                |
| References Count | 138                               |

## List of Events

| Event ID                   | Entrypoint   |   Size |   Instructions |
|----------------------------|--------------|--------|----------------|
| [65535](#event-65535)      | 0x0000       |      1 |              1 |
| [65534](#event-65534)      | 0x0001       |      1 |              1 |
| [65535.1](#event-655351)   | 0x0002       |     10 |              2 |
| [204](#event-204)          | 0x000C       |   1490 |            236 |
| [65535.2](#event-655352)   | 0x05DE       |     10 |              2 |
| [65535.3](#event-655353)   | 0x05E8       |     10 |              2 |
| [65535.4](#event-655354)   | 0x05F2       |     10 |              2 |
| [65535.5](#event-655355)   | 0x05FC       |     10 |              2 |
| [65535.6](#event-655356)   | 0x0606       |     10 |              2 |
| [65535.7](#event-655357)   | 0x0610       |     10 |              2 |
| [65535.8](#event-655358)   | 0x061A       |     10 |              2 |
| [65535.9](#event-655359)   | 0x0624       |     10 |              2 |
| [65535.10](#event-6553510) | 0x062E       |     10 |              2 |
| [65535.11](#event-6553511) | 0x0638       |     10 |              2 |
| [65535.12](#event-6553512) | 0x0642       |     10 |              2 |
| [65535.13](#event-6553513) | 0x064C       |     10 |              2 |
| [65535.14](#event-6553514) | 0x0656       |     10 |              2 |
| [65535.15](#event-6553515) | 0x0660       |     10 |              2 |
| [65535.16](#event-6553516) | 0x066A       |     10 |              2 |

## DAT References (imed_data)

|   Index | Hex Value   |   Dec Value |
|---------|-------------|-------------|
|       0 | 0x393DD     |      234461 |
|       1 | 0x445F8     |      280056 |
|       2 | 0x004B      |          75 |
|       3 | 0x0003      |           3 |
|       4 | 0x0013      |          19 |
|       5 | 0x5840      |       22592 |
|       6 | 0x15351     |       86865 |
|       7 | 0x042E      |        1070 |
|       8 | 0x0C57      |        3159 |
|       9 | 0x00F0      |         240 |
|      10 | 0x0000      |           0 |
|      11 | 0x0011      |          17 |
|      12 | 0x0001      |           1 |
|      13 | 0x0028      |          40 |
|      14 | 0x1E81      |        7809 |
|      15 | 0x1E82      |        7810 |
|      16 | 0x0064      |         100 |
|      17 | 0x0096      |         150 |
|      18 | 0x0009      |           9 |
|      19 | 0x1E83      |        7811 |
|      20 | 0x0032      |          50 |
|      21 | 0x1E84      |        7812 |
|      22 | 0x1E85      |        7813 |
|      23 | 0x1E86      |        7814 |
|      24 | 0x008C      |         140 |
|      25 | 0x1E87      |        7815 |
|      26 | 0x1E88      |        7816 |
|      27 | 0x1E89      |        7817 |
|      28 | 0x0046      |          70 |
|      29 | 0x1E8A      |        7818 |
|      30 | 0x1E8B      |        7819 |
|      31 | 0x1E8C      |        7820 |
|      32 | 0x007C      |         124 |
|      33 | 0x003C      |          60 |
|      34 | 0x1E8D      |        7821 |
|      35 | 0x001E      |          30 |
|      36 | 0x1E8E      |        7822 |
|      37 | 0x0050      |          80 |
|      38 | 0x000A      |          10 |
|      39 | 0x1E8F      |        7823 |
|      40 | 0x1E90      |        7824 |
|      41 | 0x000B      |          11 |
|      42 | 0x1E91      |        7825 |
|      43 | 0x1E92      |        7826 |
|      44 | 0x0002      |           2 |
|      45 | 0x1E93      |        7827 |
|      46 | 0x1E94      |        7828 |
|      47 | 0x1E95      |        7829 |
|      48 | 0x1E96      |        7830 |
|      49 | 0x1E97      |        7831 |
|      50 | 0x1E98      |        7832 |
|      51 | 0x1E99      |        7833 |
|      52 | 0x1E9A      |        7834 |
|      53 | 0x1E9B      |        7835 |
|      54 | 0x1E9C      |        7836 |
|      55 | 0x1E9D      |        7837 |
|      56 | 0x1E9E      |        7838 |
|      57 | 0x1E9F      |        7839 |
|      58 | 0x1EA0      |        7840 |
|      59 | 0x0014      |          20 |
|      60 | 0x1EA1      |        7841 |
|      61 | 0x1EA2      |        7842 |
|      62 | 0x1EA3      |        7843 |
|      63 | 0x005A      |          90 |
|      64 | 0x1EA4      |        7844 |
|      65 | 0x1EA5      |        7845 |
|      66 | 0x1EA6      |        7846 |
|      67 | 0x0082      |         130 |
|      68 | 0x1EA7      |        7847 |
|      69 | 0x1EA8      |        7848 |
|      70 | 0x0104      |         260 |
|      71 | 0x1EA9      |        7849 |
|      72 | 0x1EAA      |        7850 |
|      73 | 0x1EAB      |        7851 |
|      74 | 0x1EAC      |        7852 |
|      75 | 0x00AA      |         170 |
|      76 | 0x00C9      |         201 |
|      77 | 0x00BE      |         190 |
|      78 | 0x00C8      |         200 |
|      79 | 0xFFFE6D84  |  4294864260 |
|      80 | 0x1521D     |       86557 |
|      81 | 0xFFFEE6C0  |  4294895296 |
|      82 | 0x064C      |        1612 |
|      83 | 0x9DC49     |      646217 |
|      84 | 0xFFFD6E64  |  4294798948 |
|      85 | 0x00A1      |         161 |
|      86 | 0x0C85      |        3205 |
|      87 | 0xFFFFADA3  |  4294946211 |
|      88 | 0xE9CA      |       59850 |
|      89 | 0xFFFFF799  |  4294965145 |
|      90 | 0x0D28      |        3368 |
|      91 | 0xFFFEABF4  |  4294880244 |
|      92 | 0xFFFA4EB6  |  4294594230 |
|      93 | 0x012D      |         301 |
|      94 | 0x06A4      |        1700 |
|      95 | 0xFFFDB3A7  |  4294816679 |
|      96 | 0x4EF1      |       20209 |
|      97 | 0xFFFFBFF4  |  4294950900 |
|      98 | 0x084E      |        2126 |
|      99 | 0xFFFF6A35  |  4294928949 |
|     100 | 0x2327      |        8999 |
|     101 | 0x03ED      |        1005 |
|     102 | 0xFFFCAEE9  |  4294749929 |
|     103 | 0x70C05     |      461829 |
|     104 | 0x17BF0     |       97264 |
|     105 | 0x08E7      |        2279 |
|     106 | 0xFFFC4F0B  |  4294725387 |
|     107 | 0x51564     |      333156 |
|     108 | 0xFFFFD0E8  |  4294955240 |
|     109 | 0x0278      |         632 |
|     110 | 0xFFFA9423  |  4294612003 |
|     111 | 0xFFFE6DB2  |  4294864306 |
|     112 | 0x3C71      |       15473 |
|     113 | 0x08EC      |        2284 |
|     114 | 0x6D91F     |      448799 |
|     115 | 0xFFFF8D5B  |  4294937947 |
|     116 | 0xFFFF64E1  |  4294927585 |
|     117 | 0x0240      |         576 |
|     118 | 0xFFFFBB04  |  4294949636 |
|     119 | 0xD3E9      |       54249 |
|     120 | 0xFFFFFE47  |  4294966855 |
|     121 | 0x0AC4      |        2756 |
|     122 | 0xFFFFB53C  |  4294948156 |
|     123 | 0x4B66      |       19302 |
|     124 | 0x9EA9      |       40617 |
|     125 | 0x03A7      |         935 |
|     126 | 0x11D84     |       73092 |
|     127 | 0xFFFD607B  |  4294795387 |
|     128 | 0x0F9F      |        3999 |
|     129 | 0x0402      |        1026 |
|     130 | 0xFFFFB137  |  4294947127 |
|     131 | 0x7A43      |       31299 |
|     132 | 0xFFFFD8F2  |  4294957298 |
|     133 | 0x0D4B      |        3403 |
|     134 | 0xFFFFC860  |  4294953056 |
|     135 | 0xD01B      |       53275 |
|     136 | 0xFFFFFD7F  |  4294966655 |
|     137 | 0x0BF0      |        3056 |

## Events

### Event 65535

#### Metadata

| Field        | Value   |
|--------------|---------|
| Entrypoint   | 0x0000  |
| Data Size    | 1 bytes |
| Instructions | 1       |

```
      00 01 02 03 04 05 06 07  08 09 0A 0B 0C 0D 0E 0F
      -- -- -- -- -- -- -- --  -- -- -- -- -- -- -- --
0000: 00                                                .               
```

#### Opcodes

```
  0: 0x0000 [0x00] END_REQSTACK()
```

### Event 65534

#### Metadata

| Field        | Value   |
|--------------|---------|
| Entrypoint   | 0x0001  |
| Data Size    | 1 bytes |
| Instructions | 1       |

```
      00 01 02 03 04 05 06 07  08 09 0A 0B 0C 0D 0E 0F
      -- -- -- -- -- -- -- --  -- -- -- -- -- -- -- --
0000:    00                                              .              
```

#### Opcodes

```
  0: 0x0001 [0x00] END_REQSTACK()
```

### Event 65535.1

#### Metadata

| Field        | Value    |
|--------------|----------|
| Entrypoint   | 0x0002   |
| Data Size    | 10 bytes |
| Instructions | 2        |

```
      00 01 02 03 04 05 06 07  08 09 0A 0B 0C 0D 0E 0F
      -- -- -- -- -- -- -- --  -- -- -- -- -- -- -- --
0000:       37 00 80 01 80 02  80 03 80 00                7.........    
```

#### Opcodes

```
  0: 0x0002 [0x37] UPDATE_EVENT_POSITION_AND_DIR: x=234.461*, z=280.056*, y=0.075*, direction=0.3°*
  1: 0x000B [0x00] END_REQSTACK()
```

### Event 204

#### Metadata

| Field        | Value      |
|--------------|------------|
| Entrypoint   | 0x000C     |
| Data Size    | 1490 bytes |
| Instructions | 231        |

```
      00 01 02 03 04 05 06 07  08 09 0A 0B 0C 0D 0E 0F
      -- -- -- -- -- -- -- --  -- -- -- -- -- -- -- --
0000:                                      42 1A 84 05              B...
0010: 46 01 38 04 80 37 05 80  06 80 07 80 08 80 45 09  F.8..7........E.
0020: 80 F0 FF FF 7F F0 FF FF  7F 73 30 32 32 0A 80 4A  .........s022..J
0030: 36 92 07 01 F0 FF FF 7F  77 0B 80 0C 80 1A BA 05  6.......w.......
0040: 27 0A 36 92 07 01 02 2A  0A 36 92 07 01 1C 0D 80  '.6....*.6......
0050: 2B 36 92 07 01 0E 80 23  2B 36 92 07 01 0F 80 23  +6.....#+6.....#
0060: 1C 10 80 27 0A 36 92 07  01 03 2A 0A 36 92 07 01  ...'.6....*.6...
0070: 45 09 80 F0 FF FF 7F F0  FF FF 7F 73 30 32 35 0A  E..........s025.
0080: 80 1C 11 80 66 12 80 36  92 07 01 36 92 07 01 74  ....f..6...6...t
0090: 6C 6B 30 2B 36 92 07 01  13 80 23 1C 14 80 2B 36  lk0+6.....#...+6
00A0: 92 07 01 15 80 23 1C 14  80 2B 36 92 07 01 16 80  .....#...+6.....
00B0: 23 1C 14 80 2B 36 92 07  01 17 80 23 1C 14 80 66  #...+6.....#...f
00C0: 12 80 36 92 07 01 36 92  07 01 74 6C 6B 31 1C 11  ..6...6...tlk1..
00D0: 80 52 09 80 F0 FF FF 7F  F0 FF FF 7F 73 30 32 35  .R..........s025
00E0: 45 09 80 F0 FF FF 7F F0  FF FF 7F 73 30 32 34 0A  E..........s024.
00F0: 80 1C 18 80 2B 36 92 07  01 19 80 23 2B 36 92 07  ....+6.....#+6..
0100: 01 1A 80 23 2B 36 92 07  01 1B 80 23 1C 1C 80 5D  ...#+6.....#...]
0110: 0A 80 10 80 2B 36 92 07  01 1D 80 23 1C 0D 80 2B  ....+6.....#...+
0120: 36 92 07 01 1E 80 23 1C  18 80 27 0A 37 92 07 01  6.....#...'.7...
0130: 01 2A 0A 37 92 07 01 2B  37 92 07 01 1F 80 23 5C  .*.7...+7.....#\
0140: 00 20 80 5C 01 20 80 52  09 80 F0 FF FF 7F F0 FF  . .\. .R........
0150: FF 7F 73 30 32 34 45 09  80 F0 FF FF 7F F0 FF FF  ..s024E.........
0160: 7F 73 30 32 33 0A 80 4A  36 92 07 01 37 92 07 01  .s023..J6...7...
0170: 1C 21 80 2B 37 92 07 01  22 80 23 1C 1C 80 27 0A  .!.+7...".#...'.
0180: 37 92 07 01 02 1C 23 80  45 09 80 F0 FF FF 7F F0  7.....#.E.......
0190: FF FF 7F 73 30 32 36 0A  80 2B 36 92 07 01 24 80  ...s026..+6...$.
01A0: 23 1C 25 80 55 09 80 F0  FF FF 7F F0 FF FF 7F 73  #.%.U..........s
01B0: 30 32 36 45 09 80 F0 FF  FF 7F F0 FF FF 7F 73 30  026E..........s0
01C0: 32 37 0A 80 4A 37 92 07  01 36 92 07 01 1C 0D 80  27..J7...6......
01D0: 4A 36 92 07 01 37 92 07  01 1C 18 80 66 26 80 37  J6...7......f&.7
01E0: 92 07 01 37 92 07 01 74  68 6B 30 2B 37 92 07 01  ...7...thk0+7...
01F0: 27 80 23 2B 37 92 07 01  28 80 23 66 29 80 37 92  '.#+7...(.#f).7.
0200: 07 01 37 92 07 01 6E 67  74 30 2B 37 92 07 01 2A  ..7...ngt0+7...*
0210: 80 23 2B 37 92 07 01 2B  80 23 66 2C 80 36 92 07  .#+7...+.#f,.6..
0220: 01 36 92 07 01 74 6C 64  30 2B 36 92 07 01 2D 80  .6...tld0+6...-.
0230: 23 66 29 80 37 92 07 01  37 92 07 01 6E 67 74 31  #f).7...7...ngt1
0240: 2B 37 92 07 01 2E 80 23  2B 36 92 07 01 2F 80 23  +7.....#+6.../.#
0250: 2B 36 92 07 01 30 80 23  66 2C 80 36 92 07 01 36  +6...0.#f,.6...6
0260: 92 07 01 74 6C 64 31 1C  0D 80 2B 36 92 07 01 31  ...tld1...+6...1
0270: 80 23 66 29 80 37 92 07  01 37 92 07 01 6E 67 74  .#f).7...7...ngt
0280: 30 2B 37 92 07 01 32 80  23 27 0A 36 92 07 01 04  0+7...2.#'.6....
0290: 2A 0A 36 92 07 01 45 09  80 F0 FF FF 7F F0 FF FF  *.6...E.........
02A0: 7F 73 30 32 38 0A 80 1C  0D 80 2B 36 92 07 01 33  .s028.....+6...3
02B0: 80 23 66 29 80 37 92 07  01 37 92 07 01 6E 67 74  .#f).7...7...ngt
02C0: 31 1C 14 80 2B 36 92 07  01 34 80 23 1C 14 80 2B  1...+6...4.#...+
02D0: 36 92 07 01 35 80 23 1C  21 80 2B 36 92 07 01 36  6...5.#.!.+6...6
02E0: 80 23 2B 36 92 07 01 37  80 23 1C 0D 80 2B 36 92  .#+6...7.#...+6.
02F0: 07 01 38 80 23 1C 0D 80  4A 36 92 07 01 37 92 07  ..8.#...J6...7..
0300: 01 52 09 80 F0 FF FF 7F  F0 FF FF 7F 73 30 32 38  .R..........s028
0310: 45 09 80 F0 FF FF 7F F0  FF FF 7F 73 30 32 39 0A  E..........s029.
0320: 80 1C 25 80 2B 37 92 07  01 39 80 23 66 29 80 37  ..%.+7...9.#f).7
0330: 92 07 01 37 92 07 01 75  6E 7A 30 2B 37 92 07 01  ...7...unz0+7...
0340: 3A 80 23 52 09 80 F0 FF  FF 7F F0 FF FF 7F 73 30  :.#R..........s0
0350: 32 39 45 09 80 F0 FF FF  7F F0 FF FF 7F 73 30 33  29E..........s03
0360: 31 0A 80 1C 3B 80 2B 37  92 07 01 3C 80 23 1C 0D  1...;.+7...<.#..
0370: 80 2B 37 92 07 01 3D 80  23 1C 1C 80 2B 37 92 07  .+7...=.#...+7..
0380: 01 3E 80 23 1C 3F 80 2B  37 92 07 01 40 80 23 66  .>.#.?.+7...@.#f
0390: 04 80 37 92 07 01 37 92  07 01 74 6C 6B 30 2B 37  ..7...7...tlk0+7
03A0: 92 07 01 41 80 23 1C 3F  80 66 0A 80 36 92 07 01  ...A.#.?.f..6...
03B0: 36 92 07 01 74 6C 6B 30  2B 36 92 07 01 42 80 23  6...tlk0+6...B.#
03C0: 1C 10 80 52 09 80 F0 FF  FF 7F F0 FF FF 7F 73 30  ...R..........s0
03D0: 33 31 45 09 80 F0 FF FF  7F F0 FF FF 7F 73 30 33  31E..........s03
03E0: 32 0A 80 1C 10 80 45 09  80 F0 FF FF 7F F0 FF FF  2.....E.........
03F0: 7F 73 30 33 33 0A 80 1C  10 80 66 04 80 37 92 07  .s033.....f..7..
0400: 01 37 92 07 01 74 6C 6B  31 1C 43 80 2B 37 92 07  .7...tlk1.C.+7..
0410: 01 44 80 23 45 09 80 F0  FF FF 7F F0 FF FF 7F 73  .D.#E..........s
0420: 30 33 32 0A 80 1C 10 80  66 0A 80 36 92 07 01 36  032.....f..6...6
0430: 92 07 01 74 65 6E 30 1C  10 80 45 09 80 F0 FF FF  ...ten0...E.....
0440: 7F F0 FF FF 7F 73 30 33  35 0A 80 1C 10 80 27 0A  .....s035.....'.
0450: 37 92 07 01 04 2A 0A 37  92 07 01 45 09 80 F0 FF  7....*.7...E....
0460: FF 7F F0 FF FF 7F 73 30  33 34 0A 80 1C 14 80 2B  ......s034.....+
0470: 37 92 07 01 32 80 23 55  09 80 F0 FF FF 7F F0 FF  7...2.#U........
0480: FF 7F 73 30 33 34 2B 37  92 07 01 45 80 23 1C 10  ..s034+7...E.#..
0490: 80 27 0A 37 92 07 01 05  1C 46 80 45 09 80 F0 FF  .'.7.....F.E....
04A0: FF 7F F0 FF FF 7F 73 30  33 39 0A 80 1C 1C 80 2B  ......s039.....+
04B0: 36 92 07 01 47 80 23 7B  36 92 07 01 1C 1C 80 7C  6...G.#{6......|
04C0: 00 36 92 07 01 2B 36 92  07 01 2D 80 23 1C 10 80  .6...+6...-.#...
04D0: 27 0A 36 92 07 01 02 7C  01 36 92 07 01 1C 25 80  '.6....|.6....%.
04E0: 45 09 80 F0 FF FF 7F F0  FF FF 7F 73 30 32 32 0A  E..........s022.
04F0: 80 2A 0A 36 92 07 01 1C  25 80 2B 36 92 07 01 48  .*.6....%.+6...H
0500: 80 23 2B 36 92 07 01 49  80 23 66 0A 80 36 92 07  .#+6...I.#f..6..
0510: 01 36 92 07 01 70 61 73  30 1C 10 80 4A 36 92 07  .6...pas0...J6..
0520: 01 37 92 07 01 66 0A 80  36 92 07 01 36 92 07 01  .7...f..6...6...
0530: 74 6C 6B 31 1C 10 80 2B  36 92 07 01 4A 80 23 1C  tlk1...+6...J.#.
0540: 1C 80 66 0A 80 36 92 07  01 36 92 07 01 74 65 6E  ..f..6...6...ten
0550: 31 27 0A 36 92 07 01 05  1C 4B 80 5D 0A 80 21 80  1'.6.....K.]..!.
0560: 1A 84 05 46 00 78 1A BA  05 45 4C 80 F8 FF FF 7F  ...F.x...EL.....
0570: F8 FF FF 7F 71 73 74 63  0A 80 5C 00 4D 80 5C 01  ....qstc..\.M.\.
0580: 4D 80 21 00 45 4E 80 F8  FF FF 7F F8 FF FF 7F 66  M.!.EN.........f
0590: 64 6F 30 0A 80 1C 23 80  1B 45 4E 80 F8 FF FF 7F  do0...#..EN.....
05A0: F8 FF FF 7F 66 64 6F 31  0A 80 55 4E 80 F8 FF FF  ....fdo1..UN....
05B0: 7F F8 FF FF 7F 66 64 6F  31 1B 45 4E 80 F8 FF FF  .....fdo1.EN....
05C0: 7F F8 FF FF 7F 66 64 69  31 0A 80 1B 45 4E 80 F8  .....fdi1...EN..
05D0: FF FF 7F F8 FF FF 7F 66  64 69 30 0A 80 1B        .......fdi0...  
```

#### Opcodes

```
  0: 0x000C [0x42] SET_CLI_EVENT_CANCEL_DATA()
  1: 0x000D [0x1A] CALL_SUBROUTINE(address=0x0584)
  2: 0x0010 [0x46] CAMERA_CONTROL: Disable user control
  3: 0x0012 [0x38] SET_CLIENT_EVENT_MODE(mode=19*)
  4: 0x0015 [0x37] UPDATE_EVENT_POSITION_AND_DIR: x=22.592*, z=86.865*, y=1.070*, direction=277.6°*
  5: 0x001E [0x45] LOAD_SCHEDULED_TASK: Load scheduler "s022" with entities [LocalPlayer, LocalPlayer], work=[240*, 0*]
  6: 0x002F [0x4A] Carmelo (ID: 17273398/0x01079236) looks at LocalPlayer
  7: 0x0038 [0x77] SET_EVENT_TIME_WEATHER(hour=17*, weather=1*)
  8: 0x003D [0x1A] CALL_SUBROUTINE(address=0x05BA)
  9: 0x0040 [0x27] REQ_SET(priority=0x0A, entity_id=Carmelo (ID: 17273398/0x01079236), tag_num=0x02)
 10: 0x0047 [0x2A] GET_REQ_LEVEL(level=10, entity_id=Carmelo (ID: 17273398/0x01079236))
 11: 0x004D [0x1C] WAIT(40* ticks)
 12: 0x0050 [0x2B] Carmelo (ID: 17273398/0x01079236) [7809*]:
    → "I apologize. But...I could not stop thinking about the song."
 13: 0x0057 [0x23] WAIT_FOR_DIALOG_INTERACTION
 14: 0x0058 [0x2B] Carmelo (ID: 17273398/0x01079236) [7810*]:
    → "Before you bury it...may I sing it one last time?"
 15: 0x005F [0x23] WAIT_FOR_DIALOG_INTERACTION
 16: 0x0060 [0x1C] WAIT(100* ticks)
 17: 0x0063 [0x27] REQ_SET(priority=0x0A, entity_id=Carmelo (ID: 17273398/0x01079236), tag_num=0x03)
 18: 0x006A [0x2A] GET_REQ_LEVEL(level=10, entity_id=Carmelo (ID: 17273398/0x01079236))
 19: 0x0070 [0x45] LOAD_SCHEDULED_TASK: Load scheduler "s025" with entities [LocalPlayer, LocalPlayer], work=[240*, 0*]
 20: 0x0081 [0x1C] WAIT(150* ticks)
 21: 0x0084 [0x66] LOAD_EXT_SCHEDULER_MAIN: Load scheduler "tlk0" with entities [Carmelo (ID: 17273398/0x01079236), Carmelo (ID: 17273398/0x01079236)], work=9*
 22: 0x0093 [0x2B] Carmelo (ID: 17273398/0x01079236) [7811*]:
    → "The earth does bloom with the fragrance of life, The sweet wind awakens us from our strife;"
 23: 0x009A [0x23] WAIT_FOR_DIALOG_INTERACTION
 24: 0x009B [0x1C] WAIT(50* ticks)
 25: 0x009E [0x2B] Carmelo (ID: 17273398/0x01079236) [7812*]:
    → "A miracle rides upon a gust of fate In tune with destiny, my true love awaits"
 26: 0x00A5 [0x23] WAIT_FOR_DIALOG_INTERACTION
 27: 0x00A6 [0x1C] WAIT(50* ticks)
 28: 0x00A9 [0x2B] Carmelo (ID: 17273398/0x01079236) [7813*]:
    → "The grace of the gods brings warmth to the lands And thus breathes life into its timeless sands"
 29: 0x00B0 [0x23] WAIT_FOR_DIALOG_INTERACTION
 30: 0x00B1 [0x1C] WAIT(50* ticks)
 31: 0x00B4 [0x2B] Carmelo (ID: 17273398/0x01079236) [7814*]:
    → "Miracles rain down from the heavens above And bestow their fine blessing unto my love."
 32: 0x00BB [0x23] WAIT_FOR_DIALOG_INTERACTION
 33: 0x00BC [0x1C] WAIT(50* ticks)
 34: 0x00BF [0x66] LOAD_EXT_SCHEDULER_MAIN: Load scheduler "tlk1" with entities [Carmelo (ID: 17273398/0x01079236), Carmelo (ID: 17273398/0x01079236)], work=9*
 35: 0x00CE [0x1C] WAIT(150* ticks)
 36: 0x00D1 [0x52] END_LOAD_SCHEDULER: End scheduler "s025" with entities [LocalPlayer, LocalPlayer], work=240*
 37: 0x00E0 [0x45] LOAD_SCHEDULED_TASK: Load scheduler "s024" with entities [LocalPlayer, LocalPlayer], work=[240*, 0*]
 38: 0x00F1 [0x1C] WAIT(140* ticks)
 39: 0x00F4 [0x2B] Carmelo (ID: 17273398/0x01079236) [7815*]:
    → "My travels with Dariah once brought us here..."
 40: 0x00FB [0x23] WAIT_FOR_DIALOG_INTERACTION
 41: 0x00FC [0x2B] Carmelo (ID: 17273398/0x01079236) [7816*]:
    → "I can still remember that day. The landscape..."
 42: 0x0103 [0x23] WAIT_FOR_DIALOG_INTERACTION
 43: 0x0104 [0x2B] Carmelo (ID: 17273398/0x01079236) [7817*]:
    → "The soft rustle of the leaves... The rays of light, piercing the darkness of the towering trees... The wind on our cheeks..."
 44: 0x010B [0x23] WAIT_FOR_DIALOG_INTERACTION
 45: 0x010C [0x1C] WAIT(70* ticks)
 46: 0x010F [0x5D] SET_MUSIC_VOLUME(volume=0*, fade_time=100*)
 47: 0x0114 [0x2B] Carmelo (ID: 17273398/0x01079236) [7818*]:
    → "But that has all changed. That which remains in my heart is nothing but a memory...and that is all it will ever be."
 48: 0x011B [0x23] WAIT_FOR_DIALOG_INTERACTION
 49: 0x011C [0x1C] WAIT(40* ticks)
 50: 0x011F [0x2B] Carmelo (ID: 17273398/0x01079236) [7819*]:
    → "The sands of time never stop flowing. Not for me...or anyone."
 51: 0x0126 [0x23] WAIT_FOR_DIALOG_INTERACTION
 52: 0x0127 [0x1C] WAIT(140* ticks)
 53: 0x012A [0x27] REQ_SET(priority=0x0A, entity_id=Dariah (ID: 17273399/0x01079237), tag_num=0x01)
 54: 0x0131 [0x2A] GET_REQ_LEVEL(level=10, entity_id=Dariah (ID: 17273399/0x01079237))
 55: 0x0137 [0x2B] Dariah (ID: 17273399/0x01079237) [7820*]:
    → "That is what I've been trying to tell you."
 56: 0x013E [0x23] WAIT_FOR_DIALOG_INTERACTION
 57: 0x013F [0x5C] MUSIC_CONTROL: Set Idle (Day) music to song 124*
 58: 0x0143 [0x5C] MUSIC_CONTROL: Set Idle (Night) music to song 124*
 59: 0x0147 [0x52] END_LOAD_SCHEDULER: End scheduler "s024" with entities [LocalPlayer, LocalPlayer], work=240*
 60: 0x0156 [0x45] LOAD_SCHEDULED_TASK: Load scheduler "s023" with entities [LocalPlayer, LocalPlayer], work=[240*, 0*]
 61: 0x0167 [0x4A] Carmelo (ID: 17273398/0x01079236) looks at Dariah (ID: 17273399/0x01079237)
 62: 0x0170 [0x1C] WAIT(60* ticks)
 63: 0x0173 [0x2B] Dariah (ID: 17273399/0x01079237) [7821*]:
    → "That's why we have to make the most of what we are now. Even if that means facing hard times."
 64: 0x017A [0x23] WAIT_FOR_DIALOG_INTERACTION
 65: 0x017B [0x1C] WAIT(70* ticks)
 66: 0x017E [0x27] REQ_SET(priority=0x0A, entity_id=Dariah (ID: 17273399/0x01079237), tag_num=0x02)
 67: 0x0185 [0x1C] WAIT(30* ticks)
 68: 0x0188 [0x45] LOAD_SCHEDULED_TASK: Load scheduler "s026" with entities [LocalPlayer, LocalPlayer], work=[240*, 0*]
 69: 0x0199 [0x2B] Carmelo (ID: 17273398/0x01079236) [7822*]:
    → "Dariah!?"
 70: 0x01A0 [0x23] WAIT_FOR_DIALOG_INTERACTION
 71: 0x01A1 [0x1C] WAIT(80* ticks)
 72: 0x01A4 [0x55] WAIT_LOAD_SCHEDULER: Wait for scheduler "s026" with entities [LocalPlayer, LocalPlayer], work=240*
 73: 0x01B3 [0x45] LOAD_SCHEDULED_TASK: Load scheduler "s027" with entities [LocalPlayer, LocalPlayer], work=[240*, 0*]
 74: 0x01C4 [0x4A] Dariah (ID: 17273399/0x01079237) looks at Carmelo (ID: 17273398/0x01079236)
 75: 0x01CD [0x1C] WAIT(40* ticks)
 76: 0x01D0 [0x4A] Carmelo (ID: 17273398/0x01079236) looks at Dariah (ID: 17273399/0x01079237)
 77: 0x01D9 [0x1C] WAIT(140* ticks)
 78: 0x01DC [0x66] LOAD_EXT_SCHEDULER_MAIN: Load scheduler "thk0" with entities [Dariah (ID: 17273399/0x01079237), Dariah (ID: 17273399/0x01079237)], work=10*
 79: 0x01EB [0x2B] Dariah (ID: 17273399/0x01079237) [7823*]:
    → "How many years have passed since we last met...?"
 80: 0x01F2 [0x23] WAIT_FOR_DIALOG_INTERACTION
 81: 0x01F3 [0x2B] Dariah (ID: 17273399/0x01079237) [7824*]:
    → "I heard from Gueravrel about what he made you do. I apologize for his foolishness."
 82: 0x01FA [0x23] WAIT_FOR_DIALOG_INTERACTION
 83: 0x01FB [0x66] LOAD_EXT_SCHEDULER_MAIN: Load scheduler "ngt0" with entities [Dariah (ID: 17273399/0x01079237), Dariah (ID: 17273399/0x01079237)], work=11*
 84: 0x020A [0x2B] Dariah (ID: 17273399/0x01079237) [7825*]:
    → "But, here you are."
 85: 0x0211 [0x23] WAIT_FOR_DIALOG_INTERACTION
 86: 0x0212 [0x2B] Dariah (ID: 17273399/0x01079237) [7826*]:
    → "I knew that you would try hiding the song away from the rest of the world."
 87: 0x0219 [0x23] WAIT_FOR_DIALOG_INTERACTION
 88: 0x021A [0x66] LOAD_EXT_SCHEDULER_MAIN: Load scheduler "tld0" with entities [Carmelo (ID: 17273398/0x01079236), Carmelo (ID: 17273398/0x01079236)], work=2*
 89: 0x0229 [0x2B] Carmelo (ID: 17273398/0x01079236) [7827*]:
    → "..."
 90: 0x0230 [0x23] WAIT_FOR_DIALOG_INTERACTION
 91: 0x0231 [0x66] LOAD_EXT_SCHEDULER_MAIN: Load scheduler "ngt1" with entities [Dariah (ID: 17273399/0x01079237), Dariah (ID: 17273399/0x01079237)], work=11*
 92: 0x0240 [0x2B] Dariah (ID: 17273399/0x01079237) [7828*]:
    → "It is a lovely melody. It takes me back to the time we traveled through these parts so many years ago."
 93: 0x0247 [0x23] WAIT_FOR_DIALOG_INTERACTION
 94: 0x0248 [0x2B] Carmelo (ID: 17273398/0x01079236) [7829*]:
    → "Dariah... I..."
 95: 0x024F [0x23] WAIT_FOR_DIALOG_INTERACTION
 96: 0x0250 [0x2B] Carmelo (ID: 17273398/0x01079236) [7830*]:
    → "Not a day has gone by that I did not think of you."
 97: 0x0257 [0x23] WAIT_FOR_DIALOG_INTERACTION
 98: 0x0258 [0x66] LOAD_EXT_SCHEDULER_MAIN: Load scheduler "tld1" with entities [Carmelo (ID: 17273398/0x01079236), Carmelo (ID: 17273398/0x01079236)], work=2*
 99: 0x0267 [0x1C] WAIT(40* ticks)
100: 0x026A [0x2B] Carmelo (ID: 17273398/0x01079236) [7831*]:
    → "But I have changed. Your words and the words of this adventurer have transformed me into a new man."
101: 0x0271 [0x23] WAIT_FOR_DIALOG_INTERACTION
102: 0x0272 [0x66] LOAD_EXT_SCHEDULER_MAIN: Load scheduler "ngt0" with entities [Dariah (ID: 17273399/0x01079237), Dariah (ID: 17273399/0x01079237)], work=11*
103: 0x0281 [0x2B] Dariah (ID: 17273399/0x01079237) [7832*]:
    → "Carmelo..."
104: 0x0288 [0x23] WAIT_FOR_DIALOG_INTERACTION
105: 0x0289 [0x27] REQ_SET(priority=0x0A, entity_id=Carmelo (ID: 17273398/0x01079236), tag_num=0x04)
106: 0x0290 [0x2A] GET_REQ_LEVEL(level=10, entity_id=Carmelo (ID: 17273398/0x01079236))
107: 0x0296 [0x45] LOAD_SCHEDULED_TASK: Load scheduler "s028" with entities [LocalPlayer, LocalPlayer], work=[240*, 0*]
108: 0x02A7 [0x1C] WAIT(40* ticks)
109: 0x02AA [0x2B] Carmelo (ID: 17273398/0x01079236) [7833*]:
    → "I've come to realize that even though we may be apart, you and I both breathe the same air...tread the same soil."
110: 0x02B1 [0x23] WAIT_FOR_DIALOG_INTERACTION
111: 0x02B2 [0x66] LOAD_EXT_SCHEDULER_MAIN: Load scheduler "ngt1" with entities [Dariah (ID: 17273399/0x01079237), Dariah (ID: 17273399/0x01079237)], work=11*
112: 0x02C1 [0x1C] WAIT(50* ticks)
113: 0x02C4 [0x2B] Carmelo (ID: 17273398/0x01079236) [7834*]:
    → "We must do our best to treasure the short amount of time we have been given on Vana'diel."
114: 0x02CB [0x23] WAIT_FOR_DIALOG_INTERACTION
115: 0x02CC [0x1C] WAIT(50* ticks)
116: 0x02CF [0x2B] Carmelo (ID: 17273398/0x01079236) [7835*]:
    → "The time I spent with you... That is my treasure."
117: 0x02D6 [0x23] WAIT_FOR_DIALOG_INTERACTION
118: 0x02D7 [0x1C] WAIT(60* ticks)
119: 0x02DA [0x2B] Carmelo (ID: 17273398/0x01079236) [7836*]:
    → "However, I know that many treasures await me still."
120: 0x02E1 [0x23] WAIT_FOR_DIALOG_INTERACTION
121: 0x02E2 [0x2B] Carmelo (ID: 17273398/0x01079236) [7837*]:
    → "I now know that I must not live my life within my memories. I must set out and make memories anew."
122: 0x02E9 [0x23] WAIT_FOR_DIALOG_INTERACTION
123: 0x02EA [0x1C] WAIT(40* ticks)
124: 0x02ED [0x2B] Carmelo (ID: 17273398/0x01079236) [7838*]:
    → "I am ready to wind the hands of my clock once again, so that one day, our hands may meet again."
125: 0x02F4 [0x23] WAIT_FOR_DIALOG_INTERACTION
126: 0x02F5 [0x1C] WAIT(40* ticks)
127: 0x02F8 [0x4A] Carmelo (ID: 17273398/0x01079236) looks at Dariah (ID: 17273399/0x01079237)
128: 0x0301 [0x52] END_LOAD_SCHEDULER: End scheduler "s028" with entities [LocalPlayer, LocalPlayer], work=240*
129: 0x0310 [0x45] LOAD_SCHEDULED_TASK: Load scheduler "s029" with entities [LocalPlayer, LocalPlayer], work=[240*, 0*]
130: 0x0321 [0x1C] WAIT(80* ticks)
131: 0x0324 [0x2B] Dariah (ID: 17273399/0x01079237) [7839*]:
    → "Carmelo... Thank you."
132: 0x032B [0x23] WAIT_FOR_DIALOG_INTERACTION
133: 0x032C [0x66] LOAD_EXT_SCHEDULER_MAIN: Load scheduler "unz0" with entities [Dariah (ID: 17273399/0x01079237), Dariah (ID: 17273399/0x01079237)], work=11*
134: 0x033B [0x2B] Dariah (ID: 17273399/0x01079237) [7840*]:
    → "You finally understand what I tried to tell you long ago."
135: 0x0342 [0x23] WAIT_FOR_DIALOG_INTERACTION
136: 0x0343 [0x52] END_LOAD_SCHEDULER: End scheduler "s029" with entities [LocalPlayer, LocalPlayer], work=240*
137: 0x0352 [0x45] LOAD_SCHEDULED_TASK: Load scheduler "s031" with entities [LocalPlayer, LocalPlayer], work=[240*, 0*]
138: 0x0363 [0x1C] WAIT(20* ticks)
139: 0x0366 [0x2B] Dariah (ID: 17273399/0x01079237) [7841*]:
    → "I have not forgotten the time we spent together. Those memories are my treasure as well."
140: 0x036D [0x23] WAIT_FOR_DIALOG_INTERACTION
141: 0x036E [0x1C] WAIT(40* ticks)
142: 0x0371 [0x2B] Dariah (ID: 17273399/0x01079237) [7842*]:
    → "I think that we adventurers are not meant to settle down in one place."
143: 0x0378 [0x23] WAIT_FOR_DIALOG_INTERACTION
144: 0x0379 [0x1C] WAIT(70* ticks)
145: 0x037C [0x2B] Dariah (ID: 17273399/0x01079237) [7843*]:
    → "The time we share drives us to continue on in this vast world. That is why..."
146: 0x0383 [0x23] WAIT_FOR_DIALOG_INTERACTION
147: 0x0384 [0x1C] WAIT(90* ticks)
148: 0x0387 [0x2B] Dariah (ID: 17273399/0x01079237) [7844*]:
    → "...I look forward to the day..."
149: 0x038E [0x23] WAIT_FOR_DIALOG_INTERACTION
150: 0x038F [0x66] LOAD_EXT_SCHEDULER_MAIN: Load scheduler "tlk0" with entities [Dariah (ID: 17273399/0x01079237), Dariah (ID: 17273399/0x01079237)], work=19*
151: 0x039E [0x2B] Dariah (ID: 17273399/0x01079237) [7845*]:
    → "...when the hands of our clocks come together once again."
152: 0x03A5 [0x23] WAIT_FOR_DIALOG_INTERACTION
153: 0x03A6 [0x1C] WAIT(90* ticks)
154: 0x03A9 [0x66] LOAD_EXT_SCHEDULER_MAIN: Load scheduler "tlk0" with entities [Carmelo (ID: 17273398/0x01079236), Carmelo (ID: 17273398/0x01079236)], work=0*
155: 0x03B8 [0x2B] Carmelo (ID: 17273398/0x01079236) [7846*]:
    → "And I will be waiting, Dariah. When you see me again, I will be a new man."
156: 0x03BF [0x23] WAIT_FOR_DIALOG_INTERACTION
157: 0x03C0 [0x1C] WAIT(100* ticks)
158: 0x03C3 [0x52] END_LOAD_SCHEDULER: End scheduler "s031" with entities [LocalPlayer, LocalPlayer], work=240*
159: 0x03D2 [0x45] LOAD_SCHEDULED_TASK: Load scheduler "s032" with entities [LocalPlayer, LocalPlayer], work=[240*, 0*]
160: 0x03E3 [0x1C] WAIT(100* ticks)
161: 0x03E6 [0x45] LOAD_SCHEDULED_TASK: Load scheduler "s033" with entities [LocalPlayer, LocalPlayer], work=[240*, 0*]
162: 0x03F7 [0x1C] WAIT(100* ticks)
163: 0x03FA [0x66] LOAD_EXT_SCHEDULER_MAIN: Load scheduler "tlk1" with entities [Dariah (ID: 17273399/0x01079237), Dariah (ID: 17273399/0x01079237)], work=19*
164: 0x0409 [0x1C] WAIT(130* ticks)
165: 0x040C [0x2B] Dariah (ID: 17273399/0x01079237) [7847*]:
    → "Carmelo. There is one thing I want you to know."
166: 0x0413 [0x23] WAIT_FOR_DIALOG_INTERACTION
167: 0x0414 [0x45] LOAD_SCHEDULED_TASK: Load scheduler "s032" with entities [LocalPlayer, LocalPlayer], work=[240*, 0*]
168: 0x0425 [0x1C] WAIT(100* ticks)
169: 0x0428 [0x66] LOAD_EXT_SCHEDULER_MAIN: Load scheduler "ten0" with entities [Carmelo (ID: 17273398/0x01079236), Carmelo (ID: 17273398/0x01079236)], work=0*
170: 0x0437 [0x1C] WAIT(100* ticks)
171: 0x043A [0x45] LOAD_SCHEDULED_TASK: Load scheduler "s035" with entities [LocalPlayer, LocalPlayer], work=[240*, 0*]
172: 0x044B [0x1C] WAIT(100* ticks)
173: 0x044E [0x27] REQ_SET(priority=0x0A, entity_id=Dariah (ID: 17273399/0x01079237), tag_num=0x04)
174: 0x0455 [0x2A] GET_REQ_LEVEL(level=10, entity_id=Dariah (ID: 17273399/0x01079237))
175: 0x045B [0x45] LOAD_SCHEDULED_TASK: Load scheduler "s034" with entities [LocalPlayer, LocalPlayer], work=[240*, 0*]
176: 0x046C [0x1C] WAIT(50* ticks)
177: 0x046F [0x2B] Dariah (ID: 17273399/0x01079237) [7832*]:
    → "Carmelo..."
178: 0x0476 [0x23] WAIT_FOR_DIALOG_INTERACTION
179: 0x0477 [0x55] WAIT_LOAD_SCHEDULER: Wait for scheduler "s034" with entities [LocalPlayer, LocalPlayer], work=240*
180: 0x0486 [0x2B] Dariah (ID: 17273399/0x01079237) [7848*]:
    → "No matter how far apart we may be, my heart will always be with you."
181: 0x048D [0x23] WAIT_FOR_DIALOG_INTERACTION
182: 0x048E [0x1C] WAIT(100* ticks)
183: 0x0491 [0x27] REQ_SET(priority=0x0A, entity_id=Dariah (ID: 17273399/0x01079237), tag_num=0x05)
184: 0x0498 [0x1C] WAIT(260* ticks)
185: 0x049B [0x45] LOAD_SCHEDULED_TASK: Load scheduler "s039" with entities [LocalPlayer, LocalPlayer], work=[240*, 0*]
186: 0x04AC [0x1C] WAIT(70* ticks)
187: 0x04AF [0x2B] Carmelo (ID: 17273398/0x01079236) [7849*]:
    → "Dariah..."
188: 0x04B6 [0x23] WAIT_FOR_DIALOG_INTERACTION
189: 0x04B7 [0x7B] Carmelo (ID: 17273398/0x01079236) stops talking
190: 0x04BC [0x1C] WAIT(70* ticks)
191: 0x04BF [0x7C] Carmelo (ID: 17273398/0x01079236)->Render.Flags2 |= 0x00
192: 0x04C5 [0x2B] Carmelo (ID: 17273398/0x01079236) [7827*]:
    → "..."
193: 0x04CC [0x23] WAIT_FOR_DIALOG_INTERACTION
194: 0x04CD [0x1C] WAIT(100* ticks)
195: 0x04D0 [0x27] REQ_SET(priority=0x0A, entity_id=Carmelo (ID: 17273398/0x01079236), tag_num=0x02)
196: 0x04D7 [0x7C] Carmelo (ID: 17273398/0x01079236)->Render.Flags2 |= 0x01
197: 0x04DD [0x1C] WAIT(80* ticks)
198: 0x04E0 [0x45] LOAD_SCHEDULED_TASK: Load scheduler "s022" with entities [LocalPlayer, LocalPlayer], work=[240*, 0*]
199: 0x04F1 [0x2A] GET_REQ_LEVEL(level=10, entity_id=Carmelo (ID: 17273398/0x01079236))
200: 0x04F7 [0x1C] WAIT(80* ticks)
201: 0x04FA [0x2B] Carmelo (ID: 17273398/0x01079236) [7850*]:
    → "I...I do not know how to thank you. You have brought me so much."
202: 0x0501 [0x23] WAIT_FOR_DIALOG_INTERACTION
203: 0x0502 [0x2B] Carmelo (ID: 17273398/0x01079236) [7851*]:
    → "It is not much, but please take this as a measure of my gratitude."
204: 0x0509 [0x23] WAIT_FOR_DIALOG_INTERACTION
205: 0x050A [0x66] LOAD_EXT_SCHEDULER_MAIN: Load scheduler "pas0" with entities [Carmelo (ID: 17273398/0x01079236), Carmelo (ID: 17273398/0x01079236)], work=0*
206: 0x0519 [0x1C] WAIT(100* ticks)
207: 0x051C [0x4A] Carmelo (ID: 17273398/0x01079236) looks at Dariah (ID: 17273399/0x01079237)
208: 0x0525 [0x66] LOAD_EXT_SCHEDULER_MAIN: Load scheduler "tlk1" with entities [Carmelo (ID: 17273398/0x01079236), Carmelo (ID: 17273398/0x01079236)], work=0*
209: 0x0534 [0x1C] WAIT(100* ticks)
210: 0x0537 [0x2B] Carmelo (ID: 17273398/0x01079236) [7852*]:
    → "Now I shall head back to Bastok...and the new life that awaits."
211: 0x053E [0x23] WAIT_FOR_DIALOG_INTERACTION
212: 0x053F [0x1C] WAIT(70* ticks)
213: 0x0542 [0x66] LOAD_EXT_SCHEDULER_MAIN: Load scheduler "ten1" with entities [Carmelo (ID: 17273398/0x01079236), Carmelo (ID: 17273398/0x01079236)], work=0*
214: 0x0551 [0x27] REQ_SET(priority=0x0A, entity_id=Carmelo (ID: 17273398/0x01079236), tag_num=0x05)
215: 0x0558 [0x1C] WAIT(170* ticks)
216: 0x055B [0x5D] SET_MUSIC_VOLUME(volume=0*, fade_time=60*)
217: 0x0560 [0x1A] CALL_SUBROUTINE(address=0x0584)
218: 0x0563 [0x46] CAMERA_CONTROL: Restore default settings
219: 0x0565 [0x78] ENABLE_GAME_TIMER_RESET_WEATHER()
220: 0x0566 [0x1A] CALL_SUBROUTINE(address=0x05BA)
221: 0x0569 [0x45] LOAD_SCHEDULED_TASK: Load scheduler "qstc" with entities [EventEntity, EventEntity], work=[201*, 0*]
222: 0x057A [0x5C] MUSIC_CONTROL: Set Idle (Day) music to song 190*
223: 0x057E [0x5C] MUSIC_CONTROL: Set Idle (Night) music to song 190*
224: 0x0582 [0x21] END_EVENT
225: 0x0583 [0x00] END_REQSTACK()

SUBROUTINE_0584:
226: 0x0584 [0x45] LOAD_SCHEDULED_TASK: Load scheduler "fdo0" with entities [EventEntity, EventEntity], work=[200*, 0*]
227: 0x0595 [0x1C] WAIT(30* ticks)
228: 0x0598 [0x1B] RETURN

SUBROUTINE_05BA:
229: 0x05BA [0x45] LOAD_SCHEDULED_TASK: Load scheduler "fdi1" with entities [EventEntity, EventEntity], work=[200*, 0*]
230: 0x05CB [0x1B] RETURN
```

#### Data or dead code:

```
# Dead code (unreachable instructions):
     0x0599 [0x45] LOAD_SCHEDULED_TASK: Load scheduler "fdo1" with entities [EventEntity, EventEntity], work=[200*, 0*]
     0x05AA [0x55] WAIT_LOAD_SCHEDULER: Wait for scheduler "fdo1" with entities [EventEntity, EventEntity], work=200*
     0x05B9 [0x1B] RETURN
# Dead code (unreachable instructions):
     0x05CC [0x45] LOAD_SCHEDULED_TASK: Load scheduler "fdi0" with entities [EventEntity, EventEntity], work=[200*, 0*]
     0x05DD [0x1B] RETURN
```

### Event 65535.2

#### Metadata

| Field        | Value    |
|--------------|----------|
| Entrypoint   | 0x05DE   |
| Data Size    | 10 bytes |
| Instructions | 2        |

```
      00 01 02 03 04 05 06 07  08 09 0A 0B 0C 0D 0E 0F
      -- -- -- -- -- -- -- --  -- -- -- -- -- -- -- --
05D0:                                            37 4F                7O
05E0: 80 50 80 51 80 52 80 00                           .P.Q.R..        
```

#### Opcodes

```
  0: 0x05DE [0x37] UPDATE_EVENT_POSITION_AND_DIR: x=-103.036*, z=86.557*, y=-72.000*, direction=141.7°*
  1: 0x05E7 [0x00] END_REQSTACK()
```

### Event 65535.3

#### Metadata

| Field        | Value    |
|--------------|----------|
| Entrypoint   | 0x05E8   |
| Data Size    | 10 bytes |
| Instructions | 2        |

```
      00 01 02 03 04 05 06 07  08 09 0A 0B 0C 0D 0E 0F
      -- -- -- -- -- -- -- --  -- -- -- -- -- -- -- --
05E0:                          37 53 80 54 80 55 80 56          7S.T.U.V
05F0: 80 00                                             ..              
```

#### Opcodes

```
  0: 0x05E8 [0x37] UPDATE_EVENT_POSITION_AND_DIR: x=646.217*, z=-168.348*, y=0.161*, direction=281.7°*
  1: 0x05F1 [0x00] END_REQSTACK()
```

### Event 65535.4

#### Metadata

| Field        | Value    |
|--------------|----------|
| Entrypoint   | 0x05F2   |
| Data Size    | 10 bytes |
| Instructions | 2        |

```
      00 01 02 03 04 05 06 07  08 09 0A 0B 0C 0D 0E 0F
      -- -- -- -- -- -- -- --  -- -- -- -- -- -- -- --
05F0:       37 57 80 58 80 59  80 5A 80 00                7W.X.Y.Z..    
```

#### Opcodes

```
  0: 0x05F2 [0x37] UPDATE_EVENT_POSITION_AND_DIR: x=-21.085*, z=59.850*, y=-2.151*, direction=296.0°*
  1: 0x05FB [0x00] END_REQSTACK()
```

### Event 65535.5

#### Metadata

| Field        | Value    |
|--------------|----------|
| Entrypoint   | 0x05FC   |
| Data Size    | 10 bytes |
| Instructions | 2        |

```
      00 01 02 03 04 05 06 07  08 09 0A 0B 0C 0D 0E 0F
      -- -- -- -- -- -- -- --  -- -- -- -- -- -- -- --
05F0:                                      37 5B 80 5C              7[.\
0600: 80 5D 80 5E 80 00                                 .].^..          
```

#### Opcodes

```
  0: 0x05FC [0x37] UPDATE_EVENT_POSITION_AND_DIR: x=-87.052*, z=-373.066*, y=0.301*, direction=149.4°*
  1: 0x0605 [0x00] END_REQSTACK()
```

### Event 65535.6

#### Metadata

| Field        | Value    |
|--------------|----------|
| Entrypoint   | 0x0606   |
| Data Size    | 10 bytes |
| Instructions | 2        |

```
      00 01 02 03 04 05 06 07  08 09 0A 0B 0C 0D 0E 0F
      -- -- -- -- -- -- -- --  -- -- -- -- -- -- -- --
0600:                   37 5F  80 60 80 61 80 62 80 00        7_.`.a.b..
```

#### Opcodes

```
  0: 0x0606 [0x37] UPDATE_EVENT_POSITION_AND_DIR: x=-150.617*, z=20.209*, y=-16.396*, direction=186.8°*
  1: 0x060F [0x00] END_REQSTACK()
```

### Event 65535.7

#### Metadata

| Field        | Value    |
|--------------|----------|
| Entrypoint   | 0x0610   |
| Data Size    | 10 bytes |
| Instructions | 2        |

```
      00 01 02 03 04 05 06 07  08 09 0A 0B 0C 0D 0E 0F
      -- -- -- -- -- -- -- --  -- -- -- -- -- -- -- --
0610: 37 26 80 63 80 64 80 65  80 00                    7&.c.d.e..      
```

#### Opcodes

```
  0: 0x0610 [0x37] UPDATE_EVENT_POSITION_AND_DIR: x=0.010*, z=-38.347*, y=8.999*, direction=88.3°*
  1: 0x0619 [0x00] END_REQSTACK()
```

### Event 65535.8

#### Metadata

| Field        | Value    |
|--------------|----------|
| Entrypoint   | 0x061A   |
| Data Size    | 10 bytes |
| Instructions | 2        |

```
      00 01 02 03 04 05 06 07  08 09 0A 0B 0C 0D 0E 0F
      -- -- -- -- -- -- -- --  -- -- -- -- -- -- -- --
0610:                                37 66 80 67 80 68            7f.g.h
0620: 80 69 80 00                                       .i..            
```

#### Opcodes

```
  0: 0x061A [0x37] UPDATE_EVENT_POSITION_AND_DIR: x=-217.367*, z=461.829*, y=97.264*, direction=200.3°*
  1: 0x0623 [0x00] END_REQSTACK()
```

### Event 65535.9

#### Metadata

| Field        | Value    |
|--------------|----------|
| Entrypoint   | 0x0624   |
| Data Size    | 10 bytes |
| Instructions | 2        |

```
      00 01 02 03 04 05 06 07  08 09 0A 0B 0C 0D 0E 0F
      -- -- -- -- -- -- -- --  -- -- -- -- -- -- -- --
0620:             37 6A 80 6B  80 6C 80 6D 80 00            7j.k.l.m..  
```

#### Opcodes

```
  0: 0x0624 [0x37] UPDATE_EVENT_POSITION_AND_DIR: x=-241.909*, z=333.156*, y=-12.056*, direction=55.5°*
  1: 0x062D [0x00] END_REQSTACK()
```

### Event 65535.10

#### Metadata

| Field        | Value    |
|--------------|----------|
| Entrypoint   | 0x062E   |
| Data Size    | 10 bytes |
| Instructions | 2        |

```
      00 01 02 03 04 05 06 07  08 09 0A 0B 0C 0D 0E 0F
      -- -- -- -- -- -- -- --  -- -- -- -- -- -- -- --
0620:                                            37 6E                7n
0630: 80 6F 80 70 80 71 80 00                           .o.p.q..        
```

#### Opcodes

```
  0: 0x062E [0x37] UPDATE_EVENT_POSITION_AND_DIR: x=-355.293*, z=-102.990*, y=15.473*, direction=200.7°*
  1: 0x0637 [0x00] END_REQSTACK()
```

### Event 65535.11

#### Metadata

| Field        | Value    |
|--------------|----------|
| Entrypoint   | 0x0638   |
| Data Size    | 10 bytes |
| Instructions | 2        |

```
      00 01 02 03 04 05 06 07  08 09 0A 0B 0C 0D 0E 0F
      -- -- -- -- -- -- -- --  -- -- -- -- -- -- -- --
0630:                          37 72 80 73 80 74 80 75          7r.s.t.u
0640: 80 00                                             ..              
```

#### Opcodes

```
  0: 0x0638 [0x37] UPDATE_EVENT_POSITION_AND_DIR: x=448.799*, z=-29.349*, y=-39.711*, direction=50.6°*
  1: 0x0641 [0x00] END_REQSTACK()
```

### Event 65535.12

#### Metadata

| Field        | Value    |
|--------------|----------|
| Entrypoint   | 0x0642   |
| Data Size    | 10 bytes |
| Instructions | 2        |

```
      00 01 02 03 04 05 06 07  08 09 0A 0B 0C 0D 0E 0F
      -- -- -- -- -- -- -- --  -- -- -- -- -- -- -- --
0640:       37 76 80 77 80 78  80 79 80 00                7v.w.x.y..    
```

#### Opcodes

```
  0: 0x0642 [0x37] UPDATE_EVENT_POSITION_AND_DIR: x=-17.660*, z=54.249*, y=-0.441*, direction=242.2°*
  1: 0x064B [0x00] END_REQSTACK()
```

### Event 65535.13

#### Metadata

| Field        | Value    |
|--------------|----------|
| Entrypoint   | 0x064C   |
| Data Size    | 10 bytes |
| Instructions | 2        |

```
      00 01 02 03 04 05 06 07  08 09 0A 0B 0C 0D 0E 0F
      -- -- -- -- -- -- -- --  -- -- -- -- -- -- -- --
0640:                                      37 7A 80 7B              7z.{
0650: 80 7C 80 7D 80 00                                 .|.}..          
```

#### Opcodes

```
  0: 0x064C [0x37] UPDATE_EVENT_POSITION_AND_DIR: x=-19.140*, z=19.302*, y=40.617*, direction=82.2°*
  1: 0x0655 [0x00] END_REQSTACK()
```

### Event 65535.14

#### Metadata

| Field        | Value    |
|--------------|----------|
| Entrypoint   | 0x0656   |
| Data Size    | 10 bytes |
| Instructions | 2        |

```
      00 01 02 03 04 05 06 07  08 09 0A 0B 0C 0D 0E 0F
      -- -- -- -- -- -- -- --  -- -- -- -- -- -- -- --
0650:                   37 7E  80 7F 80 80 80 81 80 00        7~........
```

#### Opcodes

```
  0: 0x0656 [0x37] UPDATE_EVENT_POSITION_AND_DIR: x=73.092*, z=-171.909*, y=3.999*, direction=90.2°*
  1: 0x065F [0x00] END_REQSTACK()
```

### Event 65535.15

#### Metadata

| Field        | Value    |
|--------------|----------|
| Entrypoint   | 0x0660   |
| Data Size    | 10 bytes |
| Instructions | 2        |

```
      00 01 02 03 04 05 06 07  08 09 0A 0B 0C 0D 0E 0F
      -- -- -- -- -- -- -- --  -- -- -- -- -- -- -- --
0660: 37 82 80 83 80 84 80 85  80 00                    7.........      
```

#### Opcodes

```
  0: 0x0660 [0x37] UPDATE_EVENT_POSITION_AND_DIR: x=-20.169*, z=31.299*, y=-9.998*, direction=299.1°*
  1: 0x0669 [0x00] END_REQSTACK()
```

### Event 65535.16

#### Metadata

| Field        | Value    |
|--------------|----------|
| Entrypoint   | 0x066A   |
| Data Size    | 10 bytes |
| Instructions | 2        |

```
      00 01 02 03 04 05 06 07  08 09 0A 0B 0C 0D 0E 0F
      -- -- -- -- -- -- -- --  -- -- -- -- -- -- -- --
0660:                                37 86 80 87 80 88            7.....
0670: 80 89 80 00                                       ....            
```

#### Opcodes

```
  0: 0x066A [0x37] UPDATE_EVENT_POSITION_AND_DIR: x=-14.240*, z=53.275*, y=-0.641*, direction=268.6°*
  1: 0x0673 [0x00] END_REQSTACK()
```
