# Event 65535

## Metadata

| Field           | Value    |
|-----------------|----------|
| Event Index     | 12/17    |
| Offset          | 0x00DC   |
| Data Size       | 66 bytes |
| Calculated Size | 66 bytes |
| Instructions    | 11       |

```
      00 01 02 03 04 05 06 07  08 09 0A 0B 0C 0D 0E 0F
      -- -- -- -- -- -- -- --  -- -- -- -- -- -- -- --
00D0:                                      32 0D 80 79              2..y
00E0: 00 F8 FF FF 7F 0A B0 0E  01 1F 00 21 80 22 80 1A  ...........!."..
00F0: 80 1F 01 1F 00 23 80 24  80 1A 80 1F 01 6F 1C 25  .....#.$.....o.%
0100: 80 5B 02 80 05 B0 0E 01  05 B0 0E 01 70 61 73 30  .[..........pas0
0110: 53 05 B0 0E 01 05 B0 0E  01 70 61 73 30 00        S........pas0.  
```

## Opcodes

```
  0: 0x00DC [0x32] ExtData[1]->MainSpeed = 40* * 0.1
  1: 0x00DF [0x79] EventEntity looks at Dalzakk (ID: 17739786/0x010EB00A) (Basic look)
  2: 0x00E9 [0x1F] MOVE_ENTITY: EventEntity moves to X=-317.623*, Z=-175.310*, Y=-15.964*
  3: 0x00F1 [0x1F] MOVE_ENTITY: Update entity position (mode=1)
  4: 0x00F3 [0x1F] MOVE_ENTITY: EventEntity moves to X=-320.017*, Z=-173.529*, Y=-15.964*
  5: 0x00FB [0x1F] MOVE_ENTITY: Update entity position (mode=1)
  6: 0x00FD [0x6F] WAIT_FRAME_DELAY: Yield until WaitTime reaches zero
  7: 0x00FE [0x1C] WAIT(10* ticks)
  8: 0x0101 [0x5B] LOAD_EXT_SCHEDULER(work_offset=90*, entity1=Gwill (ID: 17739781/0x010EB005), entity2=Gwill (ID: 17739781/0x010EB005), action="pas0")
  9: 0x0110 [0x53] WAIT_SCHEDULER_TASK(entity1=Gwill (ID: 17739781/0x010EB005), entity2=Gwill (ID: 17739781/0x010EB005), action_id="pas0")
 10: 0x011D [0x00] END_REQSTACK()
```
