# Event 51

## Metadata

| Field           | Value    |
|-----------------|----------|
| Event Index     | 46/86    |
| Offset          | 0x0378   |
| Data Size       | 33 bytes |
| Calculated Size | 33 bytes |
| Instructions    | 12       |

```
      00 01 02 03 04 05 06 07  08 09 0A 0B 0C 0D 0E 0F
      -- -- -- -- -- -- -- --  -- -- -- -- -- -- -- --
0370:                          1E F0 FF FF 7F 6F 70 29          .....op)
0380: 08 44 E0 0E 01 01 1D 17  80 23 1D 18 80 23 29 08  .D.......#...#).
0390: 44 E0 0E 01 1D 20 00 21  00                       D.... .!.       
```

## Opcodes

```
  0: 0x0378 [0x1E] EventEntity looks at LocalPlayer and starts talking
  1: 0x037D [0x6F] WAIT_FRAME_DELAY: Yield until WaitTime reaches zero
  2: 0x037E [0x70] WAIT_ENTITY_RENDER_FLAG: Wait while EventEntity->Render.Flags3 bit 2 is set (cancel turn if not)
  3: 0x037F [0x29] REQ_SET_WAIT(priority=0x08, entity_id=Baren-Moren (ID: 17752132/0x010EE044), tag_num=0x01)
  4: 0x0386 [0x1D] PRINT_EVENT_MESSAGE(message_id=7384*)
    → "If you see a potential customer, go ahead and converse with him or her as you show off my hat. People who appreciate fine headwear will surely have their interests aroused.\u007F1\u0000\u0007"
  5: 0x0389 [0x23] WAIT_FOR_DIALOG_INTERACTION
  6: 0x038A [0x1D] PRINT_EVENT_MESSAGE(message_id=7385*)
    → "I have a bet with that customer, Bondada, over how many orders we'll get from the people in this area today.\u007F1\u0000\u0007"
  7: 0x038D [0x23] WAIT_FOR_DIALOG_INTERACTION
  8: 0x038E [0x29] REQ_SET_WAIT(priority=0x08, entity_id=Baren-Moren (ID: 17752132/0x010EE044), tag_num=0x1D)
  9: 0x0395 [0x20] SET_CLI_EVENT_UC_FLAG: Unlock player control
 10: 0x0397 [0x21] END_EVENT
 11: 0x0398 [0x00] END_REQSTACK()
```
