# Event 65535

## Metadata

| Field           | Value    |
|-----------------|----------|
| Event Index     | 52/86    |
| Offset          | 0x04AD   |
| Data Size       | 24 bytes |
| Calculated Size | 24 bytes |
| Instructions    | 9        |

```
      00 01 02 03 04 05 06 07  08 09 0A 0B 0C 0D 0E 0F
      -- -- -- -- -- -- -- --  -- -- -- -- -- -- -- --
04A0:                                         1D 2A 80               .*.
04B0: 23 02 07 10 0D 80 00 C0  04 1D 2B 80 23 01 C4 04  #.........+.#...
04C0: 1D 2C 80 23 00                                    .,.#.           
```

## Opcodes

```
  0: 0x04AD [0x1D] PRINT_EVENT_MESSAGE(message_id=7418*)
    → "That's a lot of orders we've had. My new style of hat is so charming, it's a crime!\u007F1\u0000\u0007"
  1: 0x04B0 [0x23] WAIT_FOR_DIALOG_INTERACTION
  2: 0x04B1 [0x02] IF !(Work_Zone[7] == 1*) GOTO 0x04C0
  3: 0x04B9 [0x1D] PRINT_EVENT_MESSAGE(message_id=7420*)
    → "Both my workmanship and my skill in selecting hired help are spot on! I won the wager. That'll make Bondada eat her hat.\u007F1\u0000\u0007"
  4: 0x04BC [0x23] WAIT_FOR_DIALOG_INTERACTION
  5: 0x04BD [0x01] GOTO 0x04C4
  6: 0x04C0 [0x1D] PRINT_EVENT_MESSAGE(message_id=7419*)
    → "You've earned yourself quite a hefty cut of the sales, young'un. Watch you don't get cat burgled!\u0007I'll also give you one of my hats for good measure.\u007F1\u0000\u0007"
  7: 0x04C3 [0x23] WAIT_FOR_DIALOG_INTERACTION
  8: 0x04C4 [0x00] END_REQSTACK()
```
