# Event 65535

## Metadata

| Field           | Value    |
|-----------------|----------|
| Event Index     | 53/86    |
| Offset          | 0x04C5   |
| Data Size       | 24 bytes |
| Calculated Size | 24 bytes |
| Instructions    | 9        |

```
      00 01 02 03 04 05 06 07  08 09 0A 0B 0C 0D 0E 0F
      -- -- -- -- -- -- -- --  -- -- -- -- -- -- -- --
04C0:                1D 2D 80  23 02 07 10 0D 80 00 D8       .-.#.......
04D0: 04 1D 2E 80 23 01 DC 04  1D 2F 80 23 00           ....#..../.#.   
```

## Opcodes

```
  0: 0x04C5 [0x1D] PRINT_EVENT_MESSAGE(message_id=7421*)
    → "I take my hat off to you.\u0007Why, I even have orders coming in from other countries! I don't know what you did, but it worked wonders.\u007F1\u0000\u0007"
  1: 0x04C8 [0x23] WAIT_FOR_DIALOG_INTERACTION
  2: 0x04C9 [0x02] IF !(Work_Zone[7] == 1*) GOTO 0x04D8
  3: 0x04D1 [0x1D] PRINT_EVENT_MESSAGE(message_id=7423*)
    → "You seem to have a sense of business there, young'un. Perhaps you should wear two hats, and take up advertising as a side job to your adventuring?\u007F1\u0000\u0007"
  4: 0x04D4 [0x23] WAIT_FOR_DIALOG_INTERACTION
  5: 0x04D5 [0x01] GOTO 0x04DC
  6: 0x04D8 [0x1D] PRINT_EVENT_MESSAGE(message_id=7422*)
    → "Your talent in advertising is almost as brilliantaru as my talent in hatmaking. Here, take the hat as a reward.\u007F1\u0000\u0007"
  7: 0x04DB [0x23] WAIT_FOR_DIALOG_INTERACTION

SUBROUTINE_04DC:
  8: 0x04DC [0x00] END_REQSTACK()
```
