# Event 72

## Metadata

| Field           | Value    |
|-----------------|----------|
| Event Index     | 70/86    |
| Offset          | 0x068A   |
| Data Size       | 49 bytes |
| Calculated Size | 49 bytes |
| Instructions    | 13       |

```
      00 01 02 03 04 05 06 07  08 09 0A 0B 0C 0D 0E 0F
      -- -- -- -- -- -- -- --  -- -- -- -- -- -- -- --
0680:                                20 01 4A 45 E0 0E             .JE..
0690: 01 44 E0 0E 01 6F 76 45  E0 0E 01 29 0B 45 E0 0E  .D...ovE...).E..
06A0: 01 27 1E F0 FF FF 7F 6F  70 29 0B 44 E0 0E 01 46  .'.....op).D...F
06B0: 29 0B 44 E0 0E 01 47 20  00 21 00                 ).D...G .!.     
```

## Opcodes

```
  0: 0x068A [0x20] SET_CLI_EVENT_UC_FLAG: Lock player control
  1: 0x068C [0x4A] Bondada (ID: 17752133/0x010EE045) looks at Baren-Moren (ID: 17752132/0x010EE044)
  2: 0x0695 [0x6F] WAIT_FRAME_DELAY: Yield until WaitTime reaches zero
  3: 0x0696 [0x76] CHECK_ENTITY_RENDER_FLAGS: Wait until Bondada (ID: 17752133/0x010EE045) Render.Flags0 and Render.Flags3 conditions are met
  4: 0x069B [0x29] REQ_SET_WAIT(priority=0x0B, entity_id=Bondada (ID: 17752133/0x010EE045), tag_num=0x27)
  5: 0x06A2 [0x1E] EventEntity looks at LocalPlayer and starts talking
  6: 0x06A7 [0x6F] WAIT_FRAME_DELAY: Yield until WaitTime reaches zero
  7: 0x06A8 [0x70] WAIT_ENTITY_RENDER_FLAG: Wait while EventEntity->Render.Flags3 bit 2 is set (cancel turn if not)
  8: 0x06A9 [0x29] REQ_SET_WAIT(priority=0x0B, entity_id=Baren-Moren (ID: 17752132/0x010EE044), tag_num=0x46)
  9: 0x06B0 [0x29] REQ_SET_WAIT(priority=0x0B, entity_id=Baren-Moren (ID: 17752132/0x010EE044), tag_num=0x47)
 10: 0x06B7 [0x20] SET_CLI_EVENT_UC_FLAG: Unlock player control
 11: 0x06B9 [0x21] END_EVENT
 12: 0x06BA [0x00] END_REQSTACK()
```
