# 17743936 - Hilda

## Common Data

| Field            | Value                 |
|------------------|-----------------------|
| Zone             | Port Bastok (ID: 236) |
| Block Size       | 2008 bytes            |
| Total Events     | 13                    |
| References Count | 99                    |

## List of Events

| Event ID                 | Entrypoint   |   Size |   Instructions |
|--------------------------|--------------|--------|----------------|
| [65535](#event-65535)    | 0x0000       |      1 |              1 |
| [48](#event-48)          | 0x0001       |     36 |              9 |
| [132](#event-132)        | 0x0025       |     54 |             15 |
| [133](#event-133)        | 0x005B       |    453 |             73 |
| [134](#event-134)        | 0x0220       |     58 |             15 |
| [135](#event-135)        | 0x025A       |     57 |             17 |
| [136](#event-136)        | 0x0293       |    754 |            121 |
| [49](#event-49)          | 0x0585       |     11 |              5 |
| [255](#event-255)        | 0x0590       |      1 |              1 |
| [65535.1](#event-655351) | 0x0591       |     10 |              2 |
| [321](#event-321)        | 0x059B       |     49 |             11 |
| [356](#event-356)        | 0x05CC       |     52 |             12 |
| [465](#event-465)        | 0x0600       |      7 |              2 |

## DAT References (imed_data)

|   Index | Hex Value   |   Dec Value |
|---------|-------------|-------------|
|       0 | 0x1D8B      |        7563 |
|       1 | 0x0000      |           0 |
|       2 | 0x1D8C      |        7564 |
|       3 | 0x11B2      |        4530 |
|       4 | 0x1D8D      |        7565 |
|       5 | 0x1D8E      |        7566 |
|       6 | 0x1D8F      |        7567 |
|       7 | 0x1D90      |        7568 |
|       8 | 0x0008      |           8 |
|       9 | 0x013E      |         318 |
|      10 | 0x00C8      |         200 |
|      11 | 0x003C      |          60 |
|      12 | 0x0088      |         136 |
|      13 | 0xFFFD864C  |  4294805068 |
|      14 | 0x2ECA      |       11978 |
|      15 | 0xFFFFE19B  |  4294959515 |
|      16 | 0x0127      |         295 |
|      17 | 0x0003      |           3 |
|      18 | 0x1D91      |        7569 |
|      19 | 0x1D92      |        7570 |
|      20 | 0x1D93      |        7571 |
|      21 | 0x007C      |         124 |
|      22 | 0xFFFD869E  |  4294805150 |
|      23 | 0x3E9E      |       16030 |
|      24 | 0xFFFFD83D  |  4294957117 |
|      25 | 0x0F66      |        3942 |
|      26 | 0xFFFD8E33  |  4294807091 |
|      27 | 0x3FB1      |       16305 |
|      28 | 0xFFFFD710  |  4294956816 |
|      29 | 0xFFFD9379  |  4294808441 |
|      30 | 0x3C38      |       15416 |
|      31 | 0xFFFFD38E  |  4294955918 |
|      32 | 0x1D94      |        7572 |
|      33 | 0xFFFD9B4B  |  4294810443 |
|      34 | 0x3E50      |       15952 |
|      35 | 0xFFFDA049  |  4294811721 |
|      36 | 0x4A69      |       19049 |
|      37 | 0x1D95      |        7573 |
|      38 | 0x1D96      |        7574 |
|      39 | 0x1D97      |        7575 |
|      40 | 0x1D98      |        7576 |
|      41 | 0x1D99      |        7577 |
|      42 | 0x0098      |         152 |
|      43 | 0x1122      |        4386 |
|      44 | 0x1D9A      |        7578 |
|      45 | 0x1D9B      |        7579 |
|      46 | 0x1D9C      |        7580 |
|      47 | 0x1D9D      |        7581 |
|      48 | 0x1D9E      |        7582 |
|      49 | 0x1D9F      |        7583 |
|      50 | 0x1DA0      |        7584 |
|      51 | 0x001E      |          30 |
|      52 | 0xFFFD8744  |  4294805316 |
|      53 | 0x27EF      |       10223 |
|      54 | 0xFFFFE2C8  |  4294959816 |
|      55 | 0x0231      |         561 |
|      56 | 0x1DA1      |        7585 |
|      57 | 0x1DA2      |        7586 |
|      58 | 0x1DA3      |        7587 |
|      59 | 0x0078      |         120 |
|      60 | 0x005A      |          90 |
|      61 | 0x007A      |         122 |
|      62 | 0x006E      |         110 |
|      63 | 0xFFFD8D18  |  4294806808 |
|      64 | 0x269A      |        9882 |
|      65 | 0x1DA4      |        7588 |
|      66 | 0x1DA5      |        7589 |
|      67 | 0xFFFDA446  |  4294812742 |
|      68 | 0x45EB      |       17899 |
|      69 | 0x0E4C      |        3660 |
|      70 | 0x1DA6      |        7590 |
|      71 | 0x1DA7      |        7591 |
|      72 | 0x1DA8      |        7592 |
|      73 | 0x1DA9      |        7593 |
|      74 | 0x1DAA      |        7594 |
|      75 | 0x1DAB      |        7595 |
|      76 | 0x0005      |           5 |
|      77 | 0x1DAC      |        7596 |
|      78 | 0x1DAD      |        7597 |
|      79 | 0x1DAE      |        7598 |
|      80 | 0x1DAF      |        7599 |
|      81 | 0xFFFDAC96  |  4294814870 |
|      82 | 0x4128      |       16680 |
|      83 | 0x1DB0      |        7600 |
|      84 | 0x1DB1      |        7601 |
|      85 | 0x1DB2      |        7602 |
|      86 | 0x1DB3      |        7603 |
|      87 | 0x1DB4      |        7604 |
|      88 | 0x00C9      |         201 |
|      89 | 0x1E07      |        7687 |
|      90 | 0xFFFD89ED  |  4294805997 |
|      91 | 0x28FC      |       10492 |
|      92 | 0x0154      |         340 |
|      93 | 0x23C9      |        9161 |
|      94 | 0x23CA      |        9162 |
|      95 | 0x23CB      |        9163 |
|      96 | 0x2706      |        9990 |
|      97 | 0x270F      |        9999 |
|      98 | 0x2710      |       10000 |

## String References

- **7563**: Ah, I wish I had time to chat, but I'm a little busy at the moment.
- **7564**: I am the owner of this establishment, but I have yet to get used to doing all these chores...
- **7565**: Yes? If there's anything you can do to help? Well, we're running a little low on salt, and I'm having trouble with the bookkeeping, and...
- **7566**: Oh, it's no use. I've been trying to manage this restaurant ever since my husband died twenty years ago, but I still can't do anything properly...
- **7567**: The other day, a customer ordered $7, but I haven't been able to get any.
- **7568**: He was a regular customer when my husband ran this place, so I wish I could serve him the next time he comes in.
- **7569**: Isn't this...? Yes, it is $7! Thank you so much! Oh! I should pay you for your trouble...
- **7570**: You were asked to help me? But who would...? The Chief Engineer himself?
- **7571**: I see... Let us go upstairs--there are a few things I should tell you.
- **7572**: Chief Cid was a close friend of my husband's. He was the one who gave my husband his job in the Palborough Mines. Digging mythril there earned him enough gil to open this restaurant.
- **7573**: Then, twenty years ago, they discovered a new vein of mythril in the Palborough Mines, and my husband, though long retired by then, was called in to oversee the diggings.
- **7574**: Things were going smoothly until...a batch of the new type of explosives they were using went off without warning, and as if waiting for such an opportunity, the Quadav attacked.
- **7575**: You must have guessed by now--Chief Engineer Cid was the one who designed the formula for the new explosive.
- **7576**: I would be lying if I said I never blamed Cid for my husband's death...even though my husband would surely have forgiven him.
- **7577**: Give this letter to Cid for me. Tell him he doesn't have to worry about me, or this restaurant.
- **7578**: Ah, it's you. That customer I told you about came back, and I was able to serve him $6 this time, thanks to you.
- **7579**: He said he used to work with my husband in the Metalworks before he retired.
- **7580**: He wanted to have $7 the next time he comes, but I don't know where to get one...
- **7581**: Oh, my! Wherever did you find this? Thank you, you've saved me again! I must tell that customer to come back...
- **7582**: Oh, but I forgot to ask him his name! He said he still worked in the Metalworks...
- **7583**: He said he used to work with my husband there. He's a Galka, very reserved but polite. Do you know him?
- **7584**: If you do see him, could you give him this letter of invitation for me?
- **7585**: Did you give my letter to my customer? You did? Thank you. You say his name is Raibaht?
- **7586**: He works in Cid's lab as the Chief Engineer's aide? Now that you mention it, I do remember hearing his name before...
- **7587**: Oh!
- **7589**: Please, Mister Raibaht, come this way.
- **7591**: Then why...?
- **7595**: Yes, my husband was like that. He was outspoken, honest about his feelings, even childish in some ways. His wanting to open this restaurant, for example...
- **7597**: When did you decide to work for the Chief Engineer? I didn't think his kind of work was in your field of expertise.
- **7599**: What were you thinking of doing!?
- **7602**: Yes...I know.
- **7687**: Thank you very much for all of your help.
- **9161**: I must say I was quite astonished when the group of little beastmen arrived in my establishment.
- **9162**: However, to my surprise, they did not cause a single problem with any of my guests. They came in, walked over to a large Galka customer in tattered clothing, spoke with him for a few moments, and then all of them left.
- **9163**: According to the guard that arrived a few moments after the Goblins had left, the beastmen first appeared in the Mines District before coming here. I wonder if everything is all right...
- **9990**: <Player>'s badge flashes brightly.
- **9999**: I'm pretty sure someone mentioned something about a nation called the "Empire of Aht Urhgan" to me before...
- **10000**: Now who was that, again...?

## Events

### Event 65535

#### Metadata

| Field        | Value   |
|--------------|---------|
| Entrypoint   | 0x0000  |
| Data Size    | 1 bytes |
| Instructions | 1       |

```
      00 01 02 03 04 05 06 07  08 09 0A 0B 0C 0D 0E 0F
      -- -- -- -- -- -- -- --  -- -- -- -- -- -- -- --
0000: 00                                                .               
```

#### Opcodes

```
  0: 0x0000 [0x00] END_REQSTACK()
```

### Event 48

#### Metadata

| Field        | Value    |
|--------------|----------|
| Entrypoint   | 0x0001   |
| Data Size    | 36 bytes |
| Instructions | 9        |

```
      00 01 02 03 04 05 06 07  08 09 0A 0B 0C 0D 0E 0F
      -- -- -- -- -- -- -- --  -- -- -- -- -- -- -- --
0000:    86 00 F8 FF FF 7F 1E  F0 FF FF 7F 1D 00 80 23   ..............#
0010: 5B 01 80 F8 FF FF 7F F8  FF FF 7F 74 6C 6B 30 1D  [..........tlk0.
0020: 02 80 23 21 00                                    ..#!.           
```

#### Opcodes

```
  0: 0x0001 [0x86] EventEntity->Render.Flags3 = Flags3  // No change (flag=0)
  1: 0x0007 [0x1E] EventEntity looks at LocalPlayer and starts talking
  2: 0x000C [0x1D] PRINT_EVENT_MESSAGE(message_id=7563*)
    → "Ah, I wish I had time to chat, but I'm a little busy at the moment."
  3: 0x000F [0x23] WAIT_FOR_DIALOG_INTERACTION
  4: 0x0010 [0x5B] LOAD_EXT_SCHEDULER: Load scheduler "tlk0" with entities [EventEntity, EventEntity], work=0*
  5: 0x001F [0x1D] PRINT_EVENT_MESSAGE(message_id=7564*)
    → "I am the owner of this establishment, but I have yet to get used to doing all these chores..."
  6: 0x0022 [0x23] WAIT_FOR_DIALOG_INTERACTION
  7: 0x0023 [0x21] END_EVENT
  8: 0x0024 [0x00] END_REQSTACK()
```

### Event 132

#### Metadata

| Field        | Value    |
|--------------|----------|
| Entrypoint   | 0x0025   |
| Data Size    | 54 bytes |
| Instructions | 15       |

```
      00 01 02 03 04 05 06 07  08 09 0A 0B 0C 0D 0E 0F
      -- -- -- -- -- -- -- --  -- -- -- -- -- -- -- --
0020:                86 00 F8  FF FF 7F 03 09 10 03 80       ...........
0030: 1E F0 FF FF 7F 1D 04 80  23 5B 01 80 F8 FF FF 7F  ........#[......
0040: F8 FF FF 7F 74 6C 6B 30  1D 05 80 23 1D 06 80 23  ....tlk0...#...#
0050: 5E 69 64 6C 30 1D 07 80  23 21 00                 ^idl0...#!.     
```

#### Opcodes

```
  0: 0x0025 [0x86] EventEntity->Render.Flags3 = Flags3  // No change (flag=0)
  1: 0x002B [0x03] Work_Zone[9] = 4530*
  2: 0x0030 [0x1E] EventEntity looks at LocalPlayer and starts talking
  3: 0x0035 [0x1D] PRINT_EVENT_MESSAGE(message_id=7565*)
    → "Yes? If there's anything you can do to help? Well, we're running a little low on salt, and I'm having trouble with the bookkeeping, and..."
  4: 0x0038 [0x23] WAIT_FOR_DIALOG_INTERACTION
  5: 0x0039 [0x5B] LOAD_EXT_SCHEDULER: Load scheduler "tlk0" with entities [EventEntity, EventEntity], work=0*
  6: 0x0048 [0x1D] PRINT_EVENT_MESSAGE(message_id=7566*)
    → "Oh, it's no use. I've been trying to manage this restaurant ever since my husband died twenty years ago, but I still can't do anything properly..."
  7: 0x004B [0x23] WAIT_FOR_DIALOG_INTERACTION
  8: 0x004C [0x1D] PRINT_EVENT_MESSAGE(message_id=7567*)
    → "The other day, a customer ordered $7, but I haven't been able to get any."
  9: 0x004F [0x23] WAIT_FOR_DIALOG_INTERACTION
 10: 0x0050 [0x5E] EventEntity goes idle (kills current action) (animation: "idl0")
 11: 0x0055 [0x1D] PRINT_EVENT_MESSAGE(message_id=7568*)
    → "He was a regular customer when my husband ran this place, so I wish I could serve him the next time he comes in."
 12: 0x0058 [0x23] WAIT_FOR_DIALOG_INTERACTION
 13: 0x0059 [0x21] END_EVENT
 14: 0x005A [0x00] END_REQSTACK()
```

### Event 133

#### Metadata

| Field        | Value     |
|--------------|-----------|
| Entrypoint   | 0x005B    |
| Data Size    | 453 bytes |
| Instructions | 73        |

```
      00 01 02 03 04 05 06 07  08 09 0A 0B 0C 0D 0E 0F
      -- -- -- -- -- -- -- --  -- -- -- -- -- -- -- --
0050:                                   32 08 80 86 00             2....
0060: F8 FF FF 7F 42 20 01 75  00 09 80 75 01 45 0A 80  ....B .u...u.E..
0070: F8 FF FF 7F F8 FF FF 7F  66 64 6F 31 01 80 1C 0B  ........fdo1....
0080: 80 45 0C 80 F8 FF FF 7F  F8 FF FF 7F 73 30 31 38  .E..........s018
0090: 01 80 37 0D 80 0E 80 0F  80 10 80 46 01 38 11 80  ..7........F.8..
00A0: 29 0A F0 FF FF 7F 10 45  0A 80 F8 FF FF 7F F8 FF  )......E........
00B0: FF 7F 66 64 69 31 01 80  03 09 10 03 80 1E F0 FF  ..fdi1..........
00C0: FF 7F 5B 01 80 F8 FF FF  7F F8 FF FF 7F 74 6C 6B  ..[..........tlk
00D0: 30 1D 12 80 23 1D 13 80  23 5E 69 64 6C 30 1D 14  0...#...#^idl0..
00E0: 80 23 5D 01 80 0B 80 45  0A 80 F8 FF FF 7F F8 FF  .#]....E........
00F0: FF 7F 66 64 6F 31 01 80  1C 0B 80 5C 00 15 80 5C  ..fdo1.....\...\
0100: 01 15 80 45 0C 80 F8 FF  FF 7F F8 FF FF 7F 73 30  ...E..........s0
0110: 30 37 01 80 45 0A 80 F8  FF FF 7F F8 FF FF 7F 66  07..E..........f
0120: 64 69 31 01 80 27 0A F0  FF FF 7F 11 32 08 80 37  di1..'......2..7
0130: 16 80 17 80 18 80 19 80  33 01 5A 00 1A 80 1B 80  ........3.Z.....
0140: 1C 80 5A 01 5A 00 1D 80  1E 80 1F 80 5A 01 1D 20  ..Z.Z.......Z.. 
0150: 80 5A 00 21 80 22 80 1F  80 5A 01 33 00 1F 00 23  .Z.!."...Z.3...#
0160: 80 24 80 1F 80 1F 01 23  45 0C 80 F8 FF FF 7F F8  .$.....#E.......
0170: FF FF 7F 73 30 30 38 01  80 5B 01 80 F8 FF FF 7F  ...s008..[......
0180: F8 FF FF 7F 74 68 6B 31  1D 25 80 23 1D 26 80 23  ....thk1.%.#.&.#
0190: 5B 01 80 F8 FF FF 7F F8  FF FF 7F 74 68 6B 32 53  [..........thk2S
01A0: F8 FF FF 7F F8 FF FF 7F  74 68 6B 32 1E F0 FF FF  ........thk2....
01B0: 7F 1D 27 80 23 5B 01 80  F8 FF FF 7F F8 FF FF 7F  ..'.#[..........
01C0: 74 6C 6B 30 1D 28 80 23  5B 01 80 F8 FF FF 7F F8  tlk0.(.#[.......
01D0: FF FF 7F 70 61 73 30 1D  29 80 23 5D 01 80 0B 80  ...pas0.).#]....
01E0: 45 0A 80 F8 FF FF 7F F8  FF FF 7F 66 64 6F 31 01  E..........fdo1.
01F0: 80 1C 0B 80 55 0C 80 F8  FF FF 7F F8 FF FF 7F 73  ....U..........s
0200: 30 30 38 46 00 5C 00 2A  80 5C 01 2A 80 45 0A 80  008F.\.*.\.*.E..
0210: F8 FF FF 7F F8 FF FF 7F  66 64 69 32 01 80 21 00  ........fdi2..!.
```

#### Opcodes

```
  0: 0x005B [0x32] ExtData[1]->MainSpeed = 8* * 0.1
  1: 0x005E [0x86] EventEntity->Render.Flags3 = Flags3  // No change (flag=0)
  2: 0x0064 [0x42] SET_CLI_EVENT_CANCEL_DATA()
  3: 0x0065 [0x20] SET_CLI_EVENT_UC_FLAG: Lock player control
  4: 0x0067 [0x75] LOAD_ROOM(Load indoor room, room=318*)
  5: 0x006B [0x75] LOAD_ROOM(No action)
  6: 0x006D [0x45] LOAD_SCHEDULED_TASK: Load scheduler "fdo1" with entities [EventEntity, EventEntity], work=[200*, 0*]
  7: 0x007E [0x1C] WAIT(60* ticks)
  8: 0x0081 [0x45] LOAD_SCHEDULED_TASK: Load scheduler "s018" with entities [EventEntity, EventEntity], work=[136*, 0*]
  9: 0x0092 [0x37] UPDATE_EVENT_POSITION_AND_DIR: x=-162.228*, z=11.978*, y=-7.781*, direction=25.9°*
 10: 0x009B [0x46] CAMERA_CONTROL: Disable user control
 11: 0x009D [0x38] SET_CLIENT_EVENT_MODE(mode=3*)
 12: 0x00A0 [0x29] REQ_SET_WAIT(priority=0x0A, entity_id=LocalPlayer, tag_num=0x10)
 13: 0x00A7 [0x45] LOAD_SCHEDULED_TASK: Load scheduler "fdi1" with entities [EventEntity, EventEntity], work=[200*, 0*]
 14: 0x00B8 [0x03] Work_Zone[9] = 4530*
 15: 0x00BD [0x1E] EventEntity looks at LocalPlayer and starts talking
 16: 0x00C2 [0x5B] LOAD_EXT_SCHEDULER: Load scheduler "tlk0" with entities [EventEntity, EventEntity], work=0*
 17: 0x00D1 [0x1D] PRINT_EVENT_MESSAGE(message_id=7569*)
    → "Isn't this...? Yes, it is $7! Thank you so much! Oh! I should pay you for your trouble..."
 18: 0x00D4 [0x23] WAIT_FOR_DIALOG_INTERACTION
 19: 0x00D5 [0x1D] PRINT_EVENT_MESSAGE(message_id=7570*)
    → "You were asked to help me? But who would...? The Chief Engineer himself?"
 20: 0x00D8 [0x23] WAIT_FOR_DIALOG_INTERACTION
 21: 0x00D9 [0x5E] EventEntity goes idle (kills current action) (animation: "idl0")
 22: 0x00DE [0x1D] PRINT_EVENT_MESSAGE(message_id=7571*)
    → "I see... Let us go upstairs--there are a few things I should tell you."
 23: 0x00E1 [0x23] WAIT_FOR_DIALOG_INTERACTION
 24: 0x00E2 [0x5D] SET_MUSIC_VOLUME(volume=0*, fade_time=60*)
 25: 0x00E7 [0x45] LOAD_SCHEDULED_TASK: Load scheduler "fdo1" with entities [EventEntity, EventEntity], work=[200*, 0*]
 26: 0x00F8 [0x1C] WAIT(60* ticks)
 27: 0x00FB [0x5C] MUSIC_CONTROL: Set Idle (Day) music to song 124*
 28: 0x00FF [0x5C] MUSIC_CONTROL: Set Idle (Night) music to song 124*
 29: 0x0103 [0x45] LOAD_SCHEDULED_TASK: Load scheduler "s007" with entities [EventEntity, EventEntity], work=[136*, 0*]
 30: 0x0114 [0x45] LOAD_SCHEDULED_TASK: Load scheduler "fdi1" with entities [EventEntity, EventEntity], work=[200*, 0*]
 31: 0x0125 [0x27] REQ_SET(priority=0x0A, entity_id=LocalPlayer, tag_num=0x11)
 32: 0x012C [0x32] ExtData[1]->MainSpeed = 8* * 0.1
 33: 0x012F [0x37] UPDATE_EVENT_POSITION_AND_DIR: x=-162.146*, z=16.030*, y=-10.179*, direction=346.5°*
 34: 0x0138 [0x33] EventEntity->Render.Flags0 |= 0x200000 // Bit 21 (flag=0x01)
 35: 0x013A [0x5A] UPDATE_EVENT_POSITION: Set EventEntity MovePosition to X=-160.205*, Z=16.305*, Y=-10.480*
 36: 0x0142 [0x5A] UPDATE_EVENT_POSITION: Move EventEntity incrementally towards MovePosition
 37: 0x0144 [0x5A] UPDATE_EVENT_POSITION: Set EventEntity MovePosition to X=-158.855*, Z=15.416*, Y=-11.378*
 38: 0x014C [0x5A] UPDATE_EVENT_POSITION: Move EventEntity incrementally towards MovePosition
 39: 0x014E [0x1D] PRINT_EVENT_MESSAGE(message_id=7572*)
    → "Chief Cid was a close friend of my husband's. He was the one who gave my husband his job in the Palborough Mines. Digging mythril there earned him enough gil to open this restaurant."
 40: 0x0151 [0x5A] UPDATE_EVENT_POSITION: Set EventEntity MovePosition to X=-156.853*, Z=15.952*, Y=-11.378*
 41: 0x0159 [0x5A] UPDATE_EVENT_POSITION: Move EventEntity incrementally towards MovePosition
 42: 0x015B [0x33] EventEntity->Render.Flags0 &= ~ 0x200000 // Bit 21 (flag=0x00)
 43: 0x015D [0x1F] MOVE_ENTITY: EventEntity moves to X=-155.575*, Z=19.049*, Y=-11.378*
 44: 0x0165 [0x1F] MOVE_ENTITY: Update entity position (mode=1)
 45: 0x0167 [0x23] WAIT_FOR_DIALOG_INTERACTION
 46: 0x0168 [0x45] LOAD_SCHEDULED_TASK: Load scheduler "s008" with entities [EventEntity, EventEntity], work=[136*, 0*]
 47: 0x0179 [0x5B] LOAD_EXT_SCHEDULER: Load scheduler "thk1" with entities [EventEntity, EventEntity], work=0*
 48: 0x0188 [0x1D] PRINT_EVENT_MESSAGE(message_id=7573*)
    → "Then, twenty years ago, they discovered a new vein of mythril in the Palborough Mines, and my husband, though long retired by then, was called in to oversee the diggings."
 49: 0x018B [0x23] WAIT_FOR_DIALOG_INTERACTION
 50: 0x018C [0x1D] PRINT_EVENT_MESSAGE(message_id=7574*)
    → "Things were going smoothly until...a batch of the new type of explosives they were using went off without warning, and as if waiting for such an opportunity, the Quadav attacked."
 51: 0x018F [0x23] WAIT_FOR_DIALOG_INTERACTION
 52: 0x0190 [0x5B] LOAD_EXT_SCHEDULER: Load scheduler "thk2" with entities [EventEntity, EventEntity], work=0*
 53: 0x019F [0x53] WAIT_SCHEDULER_TASK: Wait for scheduler "thk2" with entities [EventEntity, EventEntity]
 54: 0x01AC [0x1E] EventEntity looks at LocalPlayer and starts talking
 55: 0x01B1 [0x1D] PRINT_EVENT_MESSAGE(message_id=7575*)
    → "You must have guessed by now--Chief Engineer Cid was the one who designed the formula for the new explosive."
 56: 0x01B4 [0x23] WAIT_FOR_DIALOG_INTERACTION
 57: 0x01B5 [0x5B] LOAD_EXT_SCHEDULER: Load scheduler "tlk0" with entities [EventEntity, EventEntity], work=0*
 58: 0x01C4 [0x1D] PRINT_EVENT_MESSAGE(message_id=7576*)
    → "I would be lying if I said I never blamed Cid for my husband's death...even though my husband would surely have forgiven him."
 59: 0x01C7 [0x23] WAIT_FOR_DIALOG_INTERACTION
 60: 0x01C8 [0x5B] LOAD_EXT_SCHEDULER: Load scheduler "pas0" with entities [EventEntity, EventEntity], work=0*
 61: 0x01D7 [0x1D] PRINT_EVENT_MESSAGE(message_id=7577*)
    → "Give this letter to Cid for me. Tell him he doesn't have to worry about me, or this restaurant."
 62: 0x01DA [0x23] WAIT_FOR_DIALOG_INTERACTION
 63: 0x01DB [0x5D] SET_MUSIC_VOLUME(volume=0*, fade_time=60*)
 64: 0x01E0 [0x45] LOAD_SCHEDULED_TASK: Load scheduler "fdo1" with entities [EventEntity, EventEntity], work=[200*, 0*]
 65: 0x01F1 [0x1C] WAIT(60* ticks)
 66: 0x01F4 [0x55] WAIT_LOAD_SCHEDULER: Wait for scheduler "s008" with entities [EventEntity, EventEntity], work=136*
 67: 0x0203 [0x46] CAMERA_CONTROL: Restore default settings
 68: 0x0205 [0x5C] MUSIC_CONTROL: Set Idle (Day) music to song 152*
 69: 0x0209 [0x5C] MUSIC_CONTROL: Set Idle (Night) music to song 152*
 70: 0x020D [0x45] LOAD_SCHEDULED_TASK: Load scheduler "fdi2" with entities [EventEntity, EventEntity], work=[200*, 0*]
 71: 0x021E [0x21] END_EVENT
 72: 0x021F [0x00] END_REQSTACK()
```

### Event 134

#### Metadata

| Field        | Value    |
|--------------|----------|
| Entrypoint   | 0x0220   |
| Data Size    | 58 bytes |
| Instructions | 15       |

```
      00 01 02 03 04 05 06 07  08 09 0A 0B 0C 0D 0E 0F
      -- -- -- -- -- -- -- --  -- -- -- -- -- -- -- --
0220: 32 08 80 86 00 F8 FF FF  7F 03 08 10 03 80 03 09  2...............
0230: 10 2B 80 1E F0 FF FF 7F  1D 2C 80 23 5B 01 80 F8  .+.......,.#[...
0240: FF FF 7F F8 FF FF 7F 74  6C 6B 30 1D 2D 80 23 5E  .......tlk0.-.#^
0250: 69 64 6C 30 1D 2E 80 23  21 00                    idl0...#!.      
```

#### Opcodes

```
  0: 0x0220 [0x32] ExtData[1]->MainSpeed = 8* * 0.1
  1: 0x0223 [0x86] EventEntity->Render.Flags3 = Flags3  // No change (flag=0)
  2: 0x0229 [0x03] Work_Zone[8] = 4530*
  3: 0x022E [0x03] Work_Zone[9] = 4386*
  4: 0x0233 [0x1E] EventEntity looks at LocalPlayer and starts talking
  5: 0x0238 [0x1D] PRINT_EVENT_MESSAGE(message_id=7578*)
    → "Ah, it's you. That customer I told you about came back, and I was able to serve him $6 this time, thanks to you."
  6: 0x023B [0x23] WAIT_FOR_DIALOG_INTERACTION
  7: 0x023C [0x5B] LOAD_EXT_SCHEDULER: Load scheduler "tlk0" with entities [EventEntity, EventEntity], work=0*
  8: 0x024B [0x1D] PRINT_EVENT_MESSAGE(message_id=7579*)
    → "He said he used to work with my husband in the Metalworks before he retired."
  9: 0x024E [0x23] WAIT_FOR_DIALOG_INTERACTION
 10: 0x024F [0x5E] EventEntity goes idle (kills current action) (animation: "idl0")
 11: 0x0254 [0x1D] PRINT_EVENT_MESSAGE(message_id=7580*)
    → "He wanted to have $7 the next time he comes, but I don't know where to get one..."
 12: 0x0257 [0x23] WAIT_FOR_DIALOG_INTERACTION
 13: 0x0258 [0x21] END_EVENT
 14: 0x0259 [0x00] END_REQSTACK()
```

### Event 135

#### Metadata

| Field        | Value    |
|--------------|----------|
| Entrypoint   | 0x025A   |
| Data Size    | 57 bytes |
| Instructions | 17       |

```
      00 01 02 03 04 05 06 07  08 09 0A 0B 0C 0D 0E 0F
      -- -- -- -- -- -- -- --  -- -- -- -- -- -- -- --
0250:                                86 00 F8 FF FF 7F            ......
0260: 20 01 42 03 09 10 2B 80  1E F0 FF FF 7F 1D 2F 80   .B...+......./.
0270: 23 5B 01 80 F8 FF FF 7F  F8 FF FF 7F 74 6C 6B 30  #[..........tlk0
0280: 1D 30 80 23 1D 31 80 23  5E 69 64 6C 30 1D 32 80  .0.#.1.#^idl0.2.
0290: 23 21 00                                          #!.             
```

#### Opcodes

```
  0: 0x025A [0x86] EventEntity->Render.Flags3 = Flags3  // No change (flag=0)
  1: 0x0260 [0x20] SET_CLI_EVENT_UC_FLAG: Lock player control
  2: 0x0262 [0x42] SET_CLI_EVENT_CANCEL_DATA()
  3: 0x0263 [0x03] Work_Zone[9] = 4386*
  4: 0x0268 [0x1E] EventEntity looks at LocalPlayer and starts talking
  5: 0x026D [0x1D] PRINT_EVENT_MESSAGE(message_id=7581*)
    → "Oh, my! Wherever did you find this? Thank you, you've saved me again! I must tell that customer to come back..."
  6: 0x0270 [0x23] WAIT_FOR_DIALOG_INTERACTION
  7: 0x0271 [0x5B] LOAD_EXT_SCHEDULER: Load scheduler "tlk0" with entities [EventEntity, EventEntity], work=0*
  8: 0x0280 [0x1D] PRINT_EVENT_MESSAGE(message_id=7582*)
    → "Oh, but I forgot to ask him his name! He said he still worked in the Metalworks..."
  9: 0x0283 [0x23] WAIT_FOR_DIALOG_INTERACTION
 10: 0x0284 [0x1D] PRINT_EVENT_MESSAGE(message_id=7583*)
    → "He said he used to work with my husband there. He's a Galka, very reserved but polite. Do you know him?"
 11: 0x0287 [0x23] WAIT_FOR_DIALOG_INTERACTION
 12: 0x0288 [0x5E] EventEntity goes idle (kills current action) (animation: "idl0")
 13: 0x028D [0x1D] PRINT_EVENT_MESSAGE(message_id=7584*)
    → "If you do see him, could you give him this letter of invitation for me?"
 14: 0x0290 [0x23] WAIT_FOR_DIALOG_INTERACTION
 15: 0x0291 [0x21] END_EVENT
 16: 0x0292 [0x00] END_REQSTACK()
```

### Event 136

#### Metadata

| Field        | Value     |
|--------------|-----------|
| Entrypoint   | 0x0293    |
| Data Size    | 754 bytes |
| Instructions | 121       |

```
      00 01 02 03 04 05 06 07  08 09 0A 0B 0C 0D 0E 0F
      -- -- -- -- -- -- -- --  -- -- -- -- -- -- -- --
0290:          42 46 01 45 0A  80 F8 FF FF 7F F8 FF FF     BF.E.........
02A0: 7F 66 64 6F 30 01 80 1C  33 80 75 00 09 80 75 01  .fdo0...3.u...u.
02B0: 45 0C 80 F8 FF FF 7F F8  FF FF 7F 73 30 31 37 01  E..........s017.
02C0: 80 38 11 80 37 34 80 35  80 36 80 37 80 45 0A 80  .8..74.5.6.7.E..
02D0: F8 FF FF 7F F8 FF FF 7F  66 64 69 31 01 80 29 0A  ........fdi1..).
02E0: F0 FF FF 7F 15 32 08 80  86 00 F8 FF FF 7F 1E F0  .....2..........
02F0: FF FF 7F 4A F0 FF FF 7F  40 C0 0E 01 1D 38 80 23  ...J....@....8.#
0300: 5B 01 80 F8 FF FF 7F F8  FF FF 7F 74 6C 6B 30 1D  [..........tlk0.
0310: 39 80 23 5E 69 64 6C 30  27 0A 4D C0 0E 01 02 1E  9.#^idl0'.M.....
0320: 44 C0 0E 01 1D 3A 80 23  5D 01 80 3B 80 45 0A 80  D....:.#]..;.E..
0330: F8 FF FF 7F F8 FF FF 7F  66 64 6F 30 01 80 1C 33  ........fdo0...3
0340: 80 45 0C 80 F8 FF FF 7F  F8 FF FF 7F 73 30 30 39  .E..........s009
0350: 01 80 45 0A 80 F8 FF FF  7F F8 FF FF 7F 66 64 69  ..E..........fdi
0360: 31 01 80 4A F0 FF FF 7F  44 C0 0E 01 27 0A 44 C0  1..J....D...'.D.
0370: 0E 01 02 1C 3C 80 5C 00  3D 80 5C 01 3D 80 1C 3E  ....<.\.=.\.=..>
0380: 80 32 08 80 1F 00 3F 80  40 80 36 80 1F 01 1E 44  .2....?.@.6....D
0390: C0 0E 01 2B 44 C0 0E 01  41 80 23 5B 01 80 F8 FF  ...+D...A.#[....
03A0: FF 7F F8 FF FF 7F 74 6C  6B 30 1D 42 80 23 45 0A  ......tlk0.B.#E.
03B0: 80 F8 FF FF 7F F8 FF FF  7F 66 64 6F 32 01 80 5E  .........fdo2..^
03C0: 69 64 6C 30 1C 33 80 7B  40 C0 0E 01 1C 33 80 1F  idl0.3.{@....3..
03D0: 00 34 80 35 80 36 80 1F  01 55 0A 80 F8 FF FF 7F  .4.5.6...U......
03E0: F8 FF FF 7F 66 64 6F 32  27 0A F0 FF FF 7F 16 27  ....fdo2'......'
03F0: 0A 44 C0 0E 01 03 37 43  80 44 80 1F 80 45 80 79  .D....7C.D...E.y
0400: 00 40 C0 0E 01 44 C0 0E  01 45 0C 80 F8 FF FF 7F  .@...D...E......
0410: F8 FF FF 7F 73 30 31 32  01 80 45 0A 80 F8 FF FF  ....s012..E.....
0420: 7F F8 FF FF 7F 66 64 69  32 01 80 1C 0B 80 2B 44  .....fdi2.....+D
0430: C0 0E 01 46 80 23 5B 01  80 F8 FF FF 7F F8 FF FF  ...F.#[.........
0440: 7F 74 6C 6B 30 1D 47 80  23 5E 69 64 6C 30 66 0B  .tlk0.G.#^idl0f.
0450: 80 44 C0 0E 01 44 C0 0E  01 74 68 6B 31 2B 44 C0  .D...D...thk1+D.
0460: 0E 01 48 80 23 2B 44 C0  0E 01 49 80 23 66 0B 80  ..H.#+D...I.#f..
0470: 44 C0 0E 01 44 C0 0E 01  74 68 6B 32 2B 44 C0 0E  D...D...thk2+D..
0480: 01 4A 80 23 7B 40 C0 0E  01 1D 4B 80 23 79 00 40  .J.#{@....K.#y.@
0490: C0 0E 01 44 C0 0E 01 7B  44 C0 0E 01 1C 4C 80 27  ...D...{D....L.'
04A0: 0A 44 C0 0E 01 04 2B 44  C0 0E 01 4D 80 23 1E 44  .D....+D...M.#.D
04B0: C0 0E 01 1D 4E 80 23 52  0C 80 F8 FF FF 7F F8 FF  ....N.#R........
04C0: FF 7F 73 30 31 32 45 0C  80 F8 FF FF 7F F8 FF FF  ..s012E.........
04D0: 7F 73 30 31 33 01 80 7B  44 C0 0E 01 2B 44 C0 0E  .s013..{D...+D..
04E0: 01 4F 80 23 1D 50 80 1F  00 51 80 52 80 1F 80 1F  .O.#.P...Q.R....
04F0: 01 1E 44 C0 0E 01 23 2B  44 C0 0E 01 53 80 23 2A  ..D...#+D...S.#*
0500: 0A 44 C0 0E 01 79 00 44  C0 0E 01 40 C0 0E 01 2B  .D...y.D...@...+
0510: 44 C0 0E 01 54 80 23 7B  40 C0 0E 01 1D 55 80 23  D...T.#{@....U.#
0520: 7B 44 C0 0E 01 2B 44 C0  0E 01 56 80 23 4A 44 C0  {D...+D...V.#JD.
0530: 0E 01 40 C0 0E 01 2B 44  C0 0E 01 57 80 23 5D 01  ..@...+D...W.#].
0540: 80 3B 80 45 0A 80 F0 FF  FF 7F F0 FF FF 7F 66 64  .;.E..........fd
0550: 6F 32 01 80 1C 3B 80 5C  00 2A 80 5C 01 2A 80 46  o2...;.\.*.\.*.F
0560: 00 45 0A 80 F0 FF FF 7F  F0 FF FF 7F 66 64 69 32  .E..........fdi2
0570: 01 80 45 58 80 F0 FF FF  7F F0 FF FF 7F 71 73 74  ..EX.........qst
0580: 63 01 80 21 00                                    c..!.           
```

#### Opcodes

```
  0: 0x0293 [0x42] SET_CLI_EVENT_CANCEL_DATA()
  1: 0x0294 [0x46] CAMERA_CONTROL: Disable user control
  2: 0x0296 [0x45] LOAD_SCHEDULED_TASK: Load scheduler "fdo0" with entities [EventEntity, EventEntity], work=[200*, 0*]
  3: 0x02A7 [0x1C] WAIT(30* ticks)
  4: 0x02AA [0x75] LOAD_ROOM(Load indoor room, room=318*)
  5: 0x02AE [0x75] LOAD_ROOM(No action)
  6: 0x02B0 [0x45] LOAD_SCHEDULED_TASK: Load scheduler "s017" with entities [EventEntity, EventEntity], work=[136*, 0*]
  7: 0x02C1 [0x38] SET_CLIENT_EVENT_MODE(mode=3*)
  8: 0x02C4 [0x37] UPDATE_EVENT_POSITION_AND_DIR: x=-161.980*, z=10.223*, y=-7.480*, direction=49.3°*
  9: 0x02CD [0x45] LOAD_SCHEDULED_TASK: Load scheduler "fdi1" with entities [EventEntity, EventEntity], work=[200*, 0*]
 10: 0x02DE [0x29] REQ_SET_WAIT(priority=0x0A, entity_id=LocalPlayer, tag_num=0x15)
 11: 0x02E5 [0x32] ExtData[1]->MainSpeed = 8* * 0.1
 12: 0x02E8 [0x86] EventEntity->Render.Flags3 = Flags3  // No change (flag=0)
 13: 0x02EE [0x1E] EventEntity looks at LocalPlayer and starts talking
 14: 0x02F3 [0x4A] LocalPlayer looks at Hilda (ID: 17743936/0x010EC040)
 15: 0x02FC [0x1D] PRINT_EVENT_MESSAGE(message_id=7585*)
    → "Did you give my letter to my customer? You did? Thank you. You say his name is Raibaht?"
 16: 0x02FF [0x23] WAIT_FOR_DIALOG_INTERACTION
 17: 0x0300 [0x5B] LOAD_EXT_SCHEDULER: Load scheduler "tlk0" with entities [EventEntity, EventEntity], work=0*
 18: 0x030F [0x1D] PRINT_EVENT_MESSAGE(message_id=7586*)
    → "He works in Cid's lab as the Chief Engineer's aide? Now that you mention it, I do remember hearing his name before..."
 19: 0x0312 [0x23] WAIT_FOR_DIALOG_INTERACTION
 20: 0x0313 [0x5E] EventEntity goes idle (kills current action) (animation: "idl0")
 21: 0x0318 [0x27] REQ_SET(priority=0x0A, entity_id=Door:"Steaming Sheep" (ID: 17743949/0x010EC04D), tag_num=0x02)
 22: 0x031F [0x1E] EventEntity looks at Raibaht (ID: 17743940/0x010EC044) and starts talking
 23: 0x0324 [0x1D] PRINT_EVENT_MESSAGE(message_id=7587*)
    → "Oh!"
 24: 0x0327 [0x23] WAIT_FOR_DIALOG_INTERACTION
 25: 0x0328 [0x5D] SET_MUSIC_VOLUME(volume=0*, fade_time=120*)
 26: 0x032D [0x45] LOAD_SCHEDULED_TASK: Load scheduler "fdo0" with entities [EventEntity, EventEntity], work=[200*, 0*]
 27: 0x033E [0x1C] WAIT(30* ticks)
 28: 0x0341 [0x45] LOAD_SCHEDULED_TASK: Load scheduler "s009" with entities [EventEntity, EventEntity], work=[136*, 0*]
 29: 0x0352 [0x45] LOAD_SCHEDULED_TASK: Load scheduler "fdi1" with entities [EventEntity, EventEntity], work=[200*, 0*]
 30: 0x0363 [0x4A] LocalPlayer looks at Raibaht (ID: 17743940/0x010EC044)
 31: 0x036C [0x27] REQ_SET(priority=0x0A, entity_id=Raibaht (ID: 17743940/0x010EC044), tag_num=0x02)
 32: 0x0373 [0x1C] WAIT(90* ticks)
 33: 0x0376 [0x5C] MUSIC_CONTROL: Set Idle (Day) music to song 122*
 34: 0x037A [0x5C] MUSIC_CONTROL: Set Idle (Night) music to song 122*
 35: 0x037E [0x1C] WAIT(110* ticks)
 36: 0x0381 [0x32] ExtData[1]->MainSpeed = 8* * 0.1
 37: 0x0384 [0x1F] MOVE_ENTITY: EventEntity moves to X=-160.488*, Z=9.882*, Y=-7.480*
 38: 0x038C [0x1F] MOVE_ENTITY: Update entity position (mode=1)
 39: 0x038E [0x1E] EventEntity looks at Raibaht (ID: 17743940/0x010EC044) and starts talking
 40: 0x0393 [0x2B] Raibaht (ID: 17743940/0x010EC044) [7588*]:
    → "Thank you for your invitation, Ms. Hilda. I must apologize for my lack of manners for ordering dishes and not even leaving my name."
 41: 0x039A [0x23] WAIT_FOR_DIALOG_INTERACTION
 42: 0x039B [0x5B] LOAD_EXT_SCHEDULER: Load scheduler "tlk0" with entities [EventEntity, EventEntity], work=0*
 43: 0x03AA [0x1D] PRINT_EVENT_MESSAGE(message_id=7589*)
    → "Please, Mister Raibaht, come this way."
 44: 0x03AD [0x23] WAIT_FOR_DIALOG_INTERACTION
 45: 0x03AE [0x45] LOAD_SCHEDULED_TASK: Load scheduler "fdo2" with entities [EventEntity, EventEntity], work=[200*, 0*]
 46: 0x03BF [0x5E] EventEntity goes idle (kills current action) (animation: "idl0")
 47: 0x03C4 [0x1C] WAIT(30* ticks)
 48: 0x03C7 [0x7B] Hilda (ID: 17743936/0x010EC040) stops talking
 49: 0x03CC [0x1C] WAIT(30* ticks)
 50: 0x03CF [0x1F] MOVE_ENTITY: EventEntity moves to X=-161.980*, Z=10.223*, Y=-7.480*
 51: 0x03D7 [0x1F] MOVE_ENTITY: Update entity position (mode=1)
 52: 0x03D9 [0x55] WAIT_LOAD_SCHEDULER: Wait for scheduler "fdo2" with entities [EventEntity, EventEntity], work=200*
 53: 0x03E8 [0x27] REQ_SET(priority=0x0A, entity_id=LocalPlayer, tag_num=0x16)
 54: 0x03EF [0x27] REQ_SET(priority=0x0A, entity_id=Raibaht (ID: 17743940/0x010EC044), tag_num=0x03)
 55: 0x03F6 [0x37] UPDATE_EVENT_POSITION_AND_DIR: x=-154.554*, z=17.899*, y=-11.378*, direction=321.7°*
 56: 0x03FF [0x79] Hilda (ID: 17743936/0x010EC040) looks at Raibaht (ID: 17743940/0x010EC044) (Basic look)
 57: 0x0409 [0x45] LOAD_SCHEDULED_TASK: Load scheduler "s012" with entities [EventEntity, EventEntity], work=[136*, 0*]
 58: 0x041A [0x45] LOAD_SCHEDULED_TASK: Load scheduler "fdi2" with entities [EventEntity, EventEntity], work=[200*, 0*]
 59: 0x042B [0x1C] WAIT(60* ticks)
 60: 0x042E [0x2B] Raibaht (ID: 17743940/0x010EC044) [7590*]:
    → "Your husband and I were hired the same year by the Metalworks Department of Mining. But we were never on good terms, to say the least."
 61: 0x0435 [0x23] WAIT_FOR_DIALOG_INTERACTION
 62: 0x0436 [0x5B] LOAD_EXT_SCHEDULER: Load scheduler "tlk0" with entities [EventEntity, EventEntity], work=0*
 63: 0x0445 [0x1D] PRINT_EVENT_MESSAGE(message_id=7591*)
    → "Then why...?"
 64: 0x0448 [0x23] WAIT_FOR_DIALOG_INTERACTION
 65: 0x0449 [0x5E] EventEntity goes idle (kills current action) (animation: "idl0")
 66: 0x044E [0x66] LOAD_EXT_SCHEDULER_MAIN: Load scheduler "thk1" with entities [Raibaht (ID: 17743940/0x010EC044), Raibaht (ID: 17743940/0x010EC044)], work=60*
 67: 0x045D [0x2B] Raibaht (ID: 17743940/0x010EC044) [7592*]:
    → "Most Humes only think of us as big brutes...but your husband was the only one to see me, a Galka, as someone worthy enough to be his rival."
 68: 0x0464 [0x23] WAIT_FOR_DIALOG_INTERACTION
 69: 0x0465 [0x2B] Raibaht (ID: 17743940/0x010EC044) [7593*]:
    → "The other Humes did not even consider me capable of being a scientist. Your husband, though, would come to me every time he made a breakthrough...and brag."
 70: 0x046C [0x23] WAIT_FOR_DIALOG_INTERACTION
 71: 0x046D [0x66] LOAD_EXT_SCHEDULER_MAIN: Load scheduler "thk2" with entities [Raibaht (ID: 17743940/0x010EC044), Raibaht (ID: 17743940/0x010EC044)], work=60*
 72: 0x047C [0x2B] Raibaht (ID: 17743940/0x010EC044) [7594*]:
    → "You may laugh, but I cannot explain how happy I was that he would come to me, and no one else."
 73: 0x0483 [0x23] WAIT_FOR_DIALOG_INTERACTION
 74: 0x0484 [0x7B] Hilda (ID: 17743936/0x010EC040) stops talking
 75: 0x0489 [0x1D] PRINT_EVENT_MESSAGE(message_id=7595*)
    → "Yes, my husband was like that. He was outspoken, honest about his feelings, even childish in some ways. His wanting to open this restaurant, for example..."
 76: 0x048C [0x23] WAIT_FOR_DIALOG_INTERACTION
 77: 0x048D [0x79] Hilda (ID: 17743936/0x010EC040) looks at Raibaht (ID: 17743940/0x010EC044) (Basic look)
 78: 0x0497 [0x7B] Raibaht (ID: 17743940/0x010EC044) stops talking
 79: 0x049C [0x1C] WAIT(5* ticks)
 80: 0x049F [0x27] REQ_SET(priority=0x0A, entity_id=Raibaht (ID: 17743940/0x010EC044), tag_num=0x04)
 81: 0x04A6 [0x2B] Raibaht (ID: 17743940/0x010EC044) [7596*]:
    → "Yes. I was dismayed at first when he decided to retire, but after seeing this place...I understand why."
 82: 0x04AD [0x23] WAIT_FOR_DIALOG_INTERACTION
 83: 0x04AE [0x1E] EventEntity looks at Raibaht (ID: 17743940/0x010EC044) and starts talking
 84: 0x04B3 [0x1D] PRINT_EVENT_MESSAGE(message_id=7597*)
    → "When did you decide to work for the Chief Engineer? I didn't think his kind of work was in your field of expertise."
 85: 0x04B6 [0x23] WAIT_FOR_DIALOG_INTERACTION
 86: 0x04B7 [0x52] END_LOAD_SCHEDULER: End scheduler "s012" with entities [EventEntity, EventEntity], work=136*
 87: 0x04C6 [0x45] LOAD_SCHEDULED_TASK: Load scheduler "s013" with entities [EventEntity, EventEntity], work=[136*, 0*]
 88: 0x04D7 [0x7B] Raibaht (ID: 17743940/0x010EC044) stops talking
 89: 0x04DC [0x2B] Raibaht (ID: 17743940/0x010EC044) [7598*]:
    → "Your husband used to tell me about him. When I learned that it was his invention that caused your husband's demise, I decided to approach him, without revealing my true intents."
 90: 0x04E3 [0x23] WAIT_FOR_DIALOG_INTERACTION
 91: 0x04E4 [0x1D] PRINT_EVENT_MESSAGE(message_id=7599*)
    → "What were you thinking of doing!?"
 92: 0x04E7 [0x1F] MOVE_ENTITY: EventEntity moves to X=-152.426*, Z=16.680*, Y=-11.378*
 93: 0x04EF [0x1F] MOVE_ENTITY: Update entity position (mode=1)
 94: 0x04F1 [0x1E] EventEntity looks at Raibaht (ID: 17743940/0x010EC044) and starts talking
 95: 0x04F6 [0x23] WAIT_FOR_DIALOG_INTERACTION
 96: 0x04F7 [0x2B] Raibaht (ID: 17743940/0x010EC044) [7600*]:
    → "I wanted to see what kind of man could live with the death of so many on his conscience...but I have yet to understand him fully. He is more complex than any equation I've had to solve."
 97: 0x04FE [0x23] WAIT_FOR_DIALOG_INTERACTION
 98: 0x04FF [0x2A] GET_REQ_LEVEL(level=10, entity_id=Raibaht (ID: 17743940/0x010EC044))
 99: 0x0505 [0x79] Raibaht (ID: 17743940/0x010EC044) looks at Hilda (ID: 17743936/0x010EC040) (Basic look)
100: 0x050F [0x2B] Raibaht (ID: 17743940/0x010EC044) [7601*]:
    → "But do not worry, madam--vengeance is long gone from my mind. I understand now why your husband was so fond of him. He and Cid are very much alike."
101: 0x0516 [0x23] WAIT_FOR_DIALOG_INTERACTION
102: 0x0517 [0x7B] Hilda (ID: 17743936/0x010EC040) stops talking
103: 0x051C [0x1D] PRINT_EVENT_MESSAGE(message_id=7602*)
    → "Yes...I know."
104: 0x051F [0x23] WAIT_FOR_DIALOG_INTERACTION
105: 0x0520 [0x7B] Raibaht (ID: 17743940/0x010EC044) stops talking
106: 0x0525 [0x2B] Raibaht (ID: 17743940/0x010EC044) [7603*]:
    → "I will study Cid's work, and when I understand it fully, I will pass that knowledge down to future generations."
107: 0x052C [0x23] WAIT_FOR_DIALOG_INTERACTION
108: 0x052D [0x4A] Raibaht (ID: 17743940/0x010EC044) looks at Hilda (ID: 17743936/0x010EC040)
109: 0x0536 [0x2B] Raibaht (ID: 17743940/0x010EC044) [7604*]:
    → "That is what your husband would have wanted me to do. I know that now."
110: 0x053D [0x23] WAIT_FOR_DIALOG_INTERACTION
111: 0x053E [0x5D] SET_MUSIC_VOLUME(volume=0*, fade_time=120*)
112: 0x0543 [0x45] LOAD_SCHEDULED_TASK: Load scheduler "fdo2" with entities [LocalPlayer, LocalPlayer], work=[200*, 0*]
113: 0x0554 [0x1C] WAIT(120* ticks)
114: 0x0557 [0x5C] MUSIC_CONTROL: Set Idle (Day) music to song 152*
115: 0x055B [0x5C] MUSIC_CONTROL: Set Idle (Night) music to song 152*
116: 0x055F [0x46] CAMERA_CONTROL: Restore default settings
117: 0x0561 [0x45] LOAD_SCHEDULED_TASK: Load scheduler "fdi2" with entities [LocalPlayer, LocalPlayer], work=[200*, 0*]
118: 0x0572 [0x45] LOAD_SCHEDULED_TASK: Load scheduler "qstc" with entities [LocalPlayer, LocalPlayer], work=[201*, 0*]
119: 0x0583 [0x21] END_EVENT
120: 0x0584 [0x00] END_REQSTACK()
```

### Event 49

#### Metadata

| Field        | Value    |
|--------------|----------|
| Entrypoint   | 0x0585   |
| Data Size    | 11 bytes |
| Instructions | 5        |

```
      00 01 02 03 04 05 06 07  08 09 0A 0B 0C 0D 0E 0F
      -- -- -- -- -- -- -- --  -- -- -- -- -- -- -- --
0580:                1E F0 FF  FF 7F 1D 59 80 23 21 00       ......Y.#!.
```

#### Opcodes

```
  0: 0x0585 [0x1E] EventEntity looks at LocalPlayer and starts talking
  1: 0x058A [0x1D] PRINT_EVENT_MESSAGE(message_id=7687*)
    → "Thank you very much for all of your help."
  2: 0x058D [0x23] WAIT_FOR_DIALOG_INTERACTION
  3: 0x058E [0x21] END_EVENT
  4: 0x058F [0x00] END_REQSTACK()
```

### Event 255

#### Metadata

| Field        | Value   |
|--------------|---------|
| Entrypoint   | 0x0590  |
| Data Size    | 1 bytes |
| Instructions | 1       |

```
      00 01 02 03 04 05 06 07  08 09 0A 0B 0C 0D 0E 0F
      -- -- -- -- -- -- -- --  -- -- -- -- -- -- -- --
0590: 00                                                .               
```

#### Opcodes

```
  0: 0x0590 [0x00] END_REQSTACK()
```

### Event 65535.1

#### Metadata

| Field        | Value    |
|--------------|----------|
| Entrypoint   | 0x0591   |
| Data Size    | 10 bytes |
| Instructions | 2        |

```
      00 01 02 03 04 05 06 07  08 09 0A 0B 0C 0D 0E 0F
      -- -- -- -- -- -- -- --  -- -- -- -- -- -- -- --
0590:    37 5A 80 5B 80 36 80  5C 80 00                  7Z.[.6.\..     
```

#### Opcodes

```
  0: 0x0591 [0x37] UPDATE_EVENT_POSITION_AND_DIR: x=-161.299*, z=10.492*, y=-7.480*, direction=29.9°*
  1: 0x059A [0x00] END_REQSTACK()
```

### Event 321

#### Metadata

| Field        | Value    |
|--------------|----------|
| Entrypoint   | 0x059B   |
| Data Size    | 49 bytes |
| Instructions | 11       |

```
      00 01 02 03 04 05 06 07  08 09 0A 0B 0C 0D 0E 0F
      -- -- -- -- -- -- -- --  -- -- -- -- -- -- -- --
0590:                                   1E F0 FF FF 7F             .....
05A0: 1D 5D 80 23 5B 01 80 40  C0 0E 01 40 C0 0E 01 74  .].#[..@...@...t
05B0: 6C 6B 30 1D 5E 80 23 5B  01 80 40 C0 0E 01 40 C0  lk0.^.#[..@...@.
05C0: 0E 01 74 6C 6B 31 1D 5F  80 23 21 00              ..tlk1._.#!.    
```

#### Opcodes

```
  0: 0x059B [0x1E] EventEntity looks at LocalPlayer and starts talking
  1: 0x05A0 [0x1D] PRINT_EVENT_MESSAGE(message_id=9161*)
    → "I must say I was quite astonished when the group of little beastmen arrived in my establishment."
  2: 0x05A3 [0x23] WAIT_FOR_DIALOG_INTERACTION
  3: 0x05A4 [0x5B] LOAD_EXT_SCHEDULER: Load scheduler "tlk0" with entities [Hilda (ID: 17743936/0x010EC040), Hilda (ID: 17743936/0x010EC040)], work=0*
  4: 0x05B3 [0x1D] PRINT_EVENT_MESSAGE(message_id=9162*)
    → "However, to my surprise, they did not cause a single problem with any of my guests. They came in, walked over to a large Galka customer in tattered clothing, spoke with him for a few moments, and then all of them left."
  5: 0x05B6 [0x23] WAIT_FOR_DIALOG_INTERACTION
  6: 0x05B7 [0x5B] LOAD_EXT_SCHEDULER: Load scheduler "tlk1" with entities [Hilda (ID: 17743936/0x010EC040), Hilda (ID: 17743936/0x010EC040)], work=0*
  7: 0x05C6 [0x1D] PRINT_EVENT_MESSAGE(message_id=9163*)
    → "According to the guard that arrived a few moments after the Goblins had left, the beastmen first appeared in the Mines District before coming here. I wonder if everything is all right..."
  8: 0x05C9 [0x23] WAIT_FOR_DIALOG_INTERACTION
  9: 0x05CA [0x21] END_EVENT
 10: 0x05CB [0x00] END_REQSTACK()
```

### Event 356

#### Metadata

| Field        | Value    |
|--------------|----------|
| Entrypoint   | 0x05CC   |
| Data Size    | 52 bytes |
| Instructions | 12       |

```
      00 01 02 03 04 05 06 07  08 09 0A 0B 0C 0D 0E 0F
      -- -- -- -- -- -- -- --  -- -- -- -- -- -- -- --
05C0:                                      42 48 60 80              BH`.
05D0: 1E F0 FF FF 7F 1C 33 80  1D 61 80 23 5B 01 80 40  ......3..a.#[..@
05E0: C0 0E 01 40 C0 0E 01 74  68 6B 31 1D 62 80 23 5B  ...@...thk1.b.#[
05F0: 01 80 40 C0 0E 01 40 C0  0E 01 74 68 6B 32 21 00  ..@...@...thk2!.
```

#### Opcodes

```
  0: 0x05CC [0x42] SET_CLI_EVENT_CANCEL_DATA()
  1: 0x05CD [0x48] [System] [9990*]:
    → "<Player>'s badge flashes brightly."
  2: 0x05D0 [0x1E] EventEntity looks at LocalPlayer and starts talking
  3: 0x05D5 [0x1C] WAIT(30* ticks)
  4: 0x05D8 [0x1D] PRINT_EVENT_MESSAGE(message_id=9999*)
    → "I'm pretty sure someone mentioned something about a nation called the "Empire of Aht Urhgan" to me before..."
  5: 0x05DB [0x23] WAIT_FOR_DIALOG_INTERACTION
  6: 0x05DC [0x5B] LOAD_EXT_SCHEDULER: Load scheduler "thk1" with entities [Hilda (ID: 17743936/0x010EC040), Hilda (ID: 17743936/0x010EC040)], work=0*
  7: 0x05EB [0x1D] PRINT_EVENT_MESSAGE(message_id=10000*)
    → "Now who was that, again...?"
  8: 0x05EE [0x23] WAIT_FOR_DIALOG_INTERACTION
  9: 0x05EF [0x5B] LOAD_EXT_SCHEDULER: Load scheduler "thk2" with entities [Hilda (ID: 17743936/0x010EC040), Hilda (ID: 17743936/0x010EC040)], work=0*
 10: 0x05FE [0x21] END_EVENT
 11: 0x05FF [0x00] END_REQSTACK()
```

### Event 465

#### Metadata

| Field        | Value   |
|--------------|---------|
| Entrypoint   | 0x0600  |
| Data Size    | 7 bytes |
| Instructions | 2       |

```
      00 01 02 03 04 05 06 07  08 09 0A 0B 0C 0D 0E 0F
      -- -- -- -- -- -- -- --  -- -- -- -- -- -- -- --
0600: 92 01 F8 FF FF 7F 00                              .......         
```

#### Opcodes

```
  0: 0x0600 [0x92] EventEntity->Render.Flags3 ^= 0x01
  1: 0x0606 [0x00] END_REQSTACK()
```
