# 17743885 - Otto

## Common Data

| Field            | Value                 |
|------------------|-----------------------|
| Zone             | Port Bastok (ID: 236) |
| Block Size       | 200 bytes             |
| Total Events     | 6                     |
| References Count | 11                    |

## List of Events

| Event ID                 | Entrypoint   |   Size |   Instructions |
|--------------------------|--------------|--------|----------------|
| [65535](#event-65535)    | 0x0000       |      1 |              1 |
| [20](#event-20)          | 0x0001       |     11 |              5 |
| [5](#event-5)            | 0x000C       |     89 |             25 |
| [465](#event-465)        | 0x0065       |      7 |              2 |
| [65535.1](#event-655351) | 0x006C       |      4 |              2 |
| [65535.2](#event-655352) | 0x0070       |      2 |              2 |

## DAT References (imed_data)

|   Index | Hex Value   |   Dec Value |
|---------|-------------|-------------|
|       0 | 0x1C87      |        7303 |
|       1 | 0x0240      |         576 |
|       2 | 0x1C75      |        7285 |
|       3 | 0x0000      |           0 |
|       4 | 0x1C76      |        7286 |
|       5 | 0x1C77      |        7287 |
|       6 | 0x1C78      |        7288 |
|       7 | 0x1C79      |        7289 |
|       8 | 0x1C7A      |        7290 |
|       9 | 0x1C7B      |        7291 |
|      10 | 0x1C7C      |        7292 |

## String References

- **7285**: Hey there! Let me guess, you're an adventurer, right?
- **7286**: I bet you came here looking for some high-paying work. Am I right again?
- **7287**: Well, it's not a bad idea, but you're out of luck. I personally haven't heard anything worthwhile lately.
- **7288**: Let me ask around, though--hey, Carmelo! You used to be an adventurer, right? Heard anything lately?
- **7289**: Oh yeah, what about that $7 job you told me about?
- **7290**: Friendly guy, huh? Anyway, the story is, he brought a thing called a "$7" back to Wahid, the gem collector, and got paid a huge bag of gil!
- **7291**: Carmelo said he just found it on the shore of a river somewhere, too!
- **7292**: Go over and talk to him if you want to know more.
- **7303**: What? You want to get rich? Hah! If I knew how to do that, I wouldn't be here now, would I?

## Events

### Event 65535

#### Metadata

| Field        | Value   |
|--------------|---------|
| Entrypoint   | 0x0000  |
| Data Size    | 1 bytes |
| Instructions | 1       |

```
      00 01 02 03 04 05 06 07  08 09 0A 0B 0C 0D 0E 0F
      -- -- -- -- -- -- -- --  -- -- -- -- -- -- -- --
0000: 00                                                .               
```

#### Opcodes

```
  0: 0x0000 [0x00] END_REQSTACK()
```

### Event 20

#### Metadata

| Field        | Value    |
|--------------|----------|
| Entrypoint   | 0x0001   |
| Data Size    | 11 bytes |
| Instructions | 5        |

```
      00 01 02 03 04 05 06 07  08 09 0A 0B 0C 0D 0E 0F
      -- -- -- -- -- -- -- --  -- -- -- -- -- -- -- --
0000:    1E F0 FF FF 7F 1D 00  80 23 21 00               ........#!.    
```

#### Opcodes

```
  0: 0x0001 [0x1E] EventEntity looks at LocalPlayer and starts talking
  1: 0x0006 [0x1D] PRINT_EVENT_MESSAGE(message_id=7303*)
    → "What? You want to get rich? Hah! If I knew how to do that, I wouldn't be here now, would I?"
  2: 0x0009 [0x23] WAIT_FOR_DIALOG_INTERACTION
  3: 0x000A [0x21] END_EVENT
  4: 0x000B [0x00] END_REQSTACK()
```

### Event 5

#### Metadata

| Field        | Value    |
|--------------|----------|
| Entrypoint   | 0x000C   |
| Data Size    | 89 bytes |
| Instructions | 25       |

```
      00 01 02 03 04 05 06 07  08 09 0A 0B 0C 0D 0E 0F
      -- -- -- -- -- -- -- --  -- -- -- -- -- -- -- --
0000:                                      03 09 10 01              ....
0010: 80 1E F0 FF FF 7F 1D 02  80 23 66 03 80 F8 FF FF  .........#f.....
0020: 7F F8 FF FF 7F 74 6C 6B  30 1D 04 80 23 5E 69 64  .....tlk0...#^id
0030: 6C 30 1D 05 80 23 1E 0C  C0 0E 01 1D 06 80 23 1D  l0...#........#.
0040: 07 80 23 1E F0 FF FF 7F  1D 08 80 23 66 03 80 F8  ..#........#f...
0050: FF FF 7F F8 FF FF 7F 74  6C 6B 30 1D 09 80 23 1D  .......tlk0...#.
0060: 0A 80 23 21 00                                    ..#!.           
```

#### Opcodes

```
  0: 0x000C [0x03] Work_Zone[9] = 576*
  1: 0x0011 [0x1E] EventEntity looks at LocalPlayer and starts talking
  2: 0x0016 [0x1D] PRINT_EVENT_MESSAGE(message_id=7285*)
    → "Hey there! Let me guess, you're an adventurer, right?"
  3: 0x0019 [0x23] WAIT_FOR_DIALOG_INTERACTION
  4: 0x001A [0x66] LOAD_EXT_SCHEDULER_MAIN: Load scheduler "tlk0" with entities [EventEntity, EventEntity], work=0*
  5: 0x0029 [0x1D] PRINT_EVENT_MESSAGE(message_id=7286*)
    → "I bet you came here looking for some high-paying work. Am I right again?"
  6: 0x002C [0x23] WAIT_FOR_DIALOG_INTERACTION
  7: 0x002D [0x5E] EventEntity goes idle (kills current action) (animation: "idl0")
  8: 0x0032 [0x1D] PRINT_EVENT_MESSAGE(message_id=7287*)
    → "Well, it's not a bad idea, but you're out of luck. I personally haven't heard anything worthwhile lately."
  9: 0x0035 [0x23] WAIT_FOR_DIALOG_INTERACTION
 10: 0x0036 [0x1E] EventEntity looks at Carmelo (ID: 17743884/0x010EC00C) and starts talking
 11: 0x003B [0x1D] PRINT_EVENT_MESSAGE(message_id=7288*)
    → "Let me ask around, though--hey, Carmelo! You used to be an adventurer, right? Heard anything lately?"
 12: 0x003E [0x23] WAIT_FOR_DIALOG_INTERACTION
 13: 0x003F [0x1D] PRINT_EVENT_MESSAGE(message_id=7289*)
    → "Oh yeah, what about that $7 job you told me about?"
 14: 0x0042 [0x23] WAIT_FOR_DIALOG_INTERACTION
 15: 0x0043 [0x1E] EventEntity looks at LocalPlayer and starts talking
 16: 0x0048 [0x1D] PRINT_EVENT_MESSAGE(message_id=7290*)
    → "Friendly guy, huh? Anyway, the story is, he brought a thing called a "$7" back to Wahid, the gem collector, and got paid a huge bag of gil!"
 17: 0x004B [0x23] WAIT_FOR_DIALOG_INTERACTION
 18: 0x004C [0x66] LOAD_EXT_SCHEDULER_MAIN: Load scheduler "tlk0" with entities [EventEntity, EventEntity], work=0*
 19: 0x005B [0x1D] PRINT_EVENT_MESSAGE(message_id=7291*)
    → "Carmelo said he just found it on the shore of a river somewhere, too!"
 20: 0x005E [0x23] WAIT_FOR_DIALOG_INTERACTION
 21: 0x005F [0x1D] PRINT_EVENT_MESSAGE(message_id=7292*)
    → "Go over and talk to him if you want to know more."
 22: 0x0062 [0x23] WAIT_FOR_DIALOG_INTERACTION
 23: 0x0063 [0x21] END_EVENT
 24: 0x0064 [0x00] END_REQSTACK()
```

### Event 465

#### Metadata

| Field        | Value   |
|--------------|---------|
| Entrypoint   | 0x0065  |
| Data Size    | 7 bytes |
| Instructions | 2       |

```
      00 01 02 03 04 05 06 07  08 09 0A 0B 0C 0D 0E 0F
      -- -- -- -- -- -- -- --  -- -- -- -- -- -- -- --
0060:                92 01 F8  FF FF 7F 00                   .......    
```

#### Opcodes

```
  0: 0x0065 [0x92] EventEntity->Render.Flags3 ^= 0x01
  1: 0x006B [0x00] END_REQSTACK()
```

### Event 65535.1

#### Metadata

| Field        | Value   |
|--------------|---------|
| Entrypoint   | 0x006C  |
| Data Size    | 4 bytes |
| Instructions | 2       |

```
      00 01 02 03 04 05 06 07  08 09 0A 0B 0C 0D 0E 0F
      -- -- -- -- -- -- -- --  -- -- -- -- -- -- -- --
0060:                                      95 03 80 00              ....
```

#### Opcodes

```
  0: 0x006C [0x95] SETUP_EVENT_NPC: Prepare NPC for event (Render.Flags3 = 0*)
  1: 0x006F [0x00] END_REQSTACK()
```

### Event 65535.2

#### Metadata

| Field        | Value   |
|--------------|---------|
| Entrypoint   | 0x0070  |
| Data Size    | 2 bytes |
| Instructions | 2       |

```
      00 01 02 03 04 05 06 07  08 09 0A 0B 0C 0D 0E 0F
      -- -- -- -- -- -- -- --  -- -- -- -- -- -- -- --
0070: 96 00                                             ..              
```

#### Opcodes

```
  0: 0x0070 [0x96] UNSET_EVENT_NPC: Restore NPC after event (removes event NPC status)
  1: 0x0071 [0x00] END_REQSTACK()
```
