# 17744169

## Common Data

| Field            | Value                 |
|------------------|-----------------------|
| Zone             | Port Bastok (ID: 236) |
| Block Size       | 160 bytes             |
| Total Events     | 3                     |
| References Count | 10                    |

## List of Events

| Event ID                 | Entrypoint   |   Size |   Instructions |
|--------------------------|--------------|--------|----------------|
| [65535](#event-65535)    | 0x0000       |      1 |              1 |
| [415](#event-415)        | 0x0001       |      1 |              1 |
| [65535.1](#event-655351) | 0x0002       |     88 |             15 |

## DAT References (imed_data)

|   Index | Hex Value   |   Dec Value |
|---------|-------------|-------------|
|       0 | 0xFFFEC780  |  4294887296 |
|       1 | 0xBF68      |       49000 |
|       2 | 0x1324      |        4900 |
|       3 | 0x07FF      |        2047 |
|       4 | 0xFFFEB204  |  4294881796 |
|       5 | 0x001E      |          30 |
|       6 | 0x02E7      |         743 |
|       7 | 0x00C8      |         200 |
|       8 | 0x00D8      |         216 |
|       9 | 0x0064      |         100 |

## Events

### Event 65535

#### Metadata

| Field        | Value   |
|--------------|---------|
| Entrypoint   | 0x0000  |
| Data Size    | 1 bytes |
| Instructions | 1       |

```
      00 01 02 03 04 05 06 07  08 09 0A 0B 0C 0D 0E 0F
      -- -- -- -- -- -- -- --  -- -- -- -- -- -- -- --
0000: 00                                                .               
```

#### Opcodes

```
  0: 0x0000 [0x00] END_REQSTACK()
```

### Event 415

#### Metadata

| Field        | Value   |
|--------------|---------|
| Entrypoint   | 0x0001  |
| Data Size    | 1 bytes |
| Instructions | 1       |

```
      00 01 02 03 04 05 06 07  08 09 0A 0B 0C 0D 0E 0F
      -- -- -- -- -- -- -- --  -- -- -- -- -- -- -- --
0000:    00                                              .              
```

#### Opcodes

```
  0: 0x0001 [0x00] END_REQSTACK()
```

### Event 65535.1

#### Metadata

| Field        | Value    |
|--------------|----------|
| Entrypoint   | 0x0002   |
| Data Size    | 88 bytes |
| Instructions | 15       |

```
      00 01 02 03 04 05 06 07  08 09 0A 0B 0C 0D 0E 0F
      -- -- -- -- -- -- -- --  -- -- -- -- -- -- -- --
0000:       61 00 37 00 80 01  80 02 80 03 80 61 01 1F    a.7........a..
0010: 00 04 80 01 80 02 80 1F  01 1C 05 80 C4 02 06 80  ................
0020: 29 C1 0E 01 2A C1 0E 01  1C 07 80 5B 08 80 2A C1  )...*......[..*.
0030: 0E 01 29 C1 0E 01 61 6E  67 30 1C 09 80 5B 08 80  ..)...ang0...[..
0040: 2A C1 0E 01 29 C1 0E 01  61 6E 67 31 1C 05 80 1F  *...)...ang1....
0050: 00 00 80 01 80 02 80 1F  01 00                    ..........      
```

#### Opcodes

```
  0: 0x0002 [0x61] EventEntity->Render.Flags2 &= ~0x00000001
  1: 0x0004 [0x37] UPDATE_EVENT_POSITION_AND_DIR: x=-80.000*, z=49.000*, y=4.900*, direction=179.9°*
  2: 0x000D [0x61] EventEntity->Render.Flags2 |= 0x00000001
  3: 0x000F [0x1F] MOVE_ENTITY: EventEntity moves to X=-85.500*, Z=49.000*, Y=4.900*
  4: 0x0017 [0x1F] MOVE_ENTITY: Update entity position (mode=1)
  5: 0x0019 [0x1C] WAIT(30* ticks)
  6: 0x001C [0xC4] SCHEDULE_MAGIC_CASTING_ALT (arg=18): Unnamed NPC (ID: 17744169/0x010EC129) casts magic 743* on Unnamed NPC (ID: 17744170/0x010EC12A)
  7: 0x0028 [0x1C] WAIT(200* ticks)
  8: 0x002B [0x5B] LOAD_EXT_SCHEDULER: Load scheduler "ang0" with entities [Unnamed NPC (ID: 17744170/0x010EC12A), Unnamed NPC (ID: 17744169/0x010EC129)], work=216*
  9: 0x003A [0x1C] WAIT(100* ticks)
 10: 0x003D [0x5B] LOAD_EXT_SCHEDULER: Load scheduler "ang1" with entities [Unnamed NPC (ID: 17744170/0x010EC12A), Unnamed NPC (ID: 17744169/0x010EC129)], work=216*
 11: 0x004C [0x1C] WAIT(30* ticks)
 12: 0x004F [0x1F] MOVE_ENTITY: EventEntity moves to X=-80.000*, Z=49.000*, Y=4.900*
 13: 0x0057 [0x1F] MOVE_ENTITY: Update entity position (mode=1)
 14: 0x0059 [0x00] END_REQSTACK()
```
