# 17743998 - Cornelia

## Common Data

| Field            | Value                 |
|------------------|-----------------------|
| Zone             | Port Bastok (ID: 236) |
| Block Size       | 236 bytes             |
| Total Events     | 5                     |
| References Count | 21                    |

## List of Events

| Event ID                 | Entrypoint   |   Size |   Instructions |
|--------------------------|--------------|--------|----------------|
| [65535](#event-65535)    | 0x0000       |      1 |              1 |
| [232](#event-232)        | 0x0001       |     10 |              2 |
| [65535.1](#event-655351) | 0x000B       |     50 |             10 |
| [234](#event-234)        | 0x003D       |     10 |              2 |
| [65535.2](#event-655352) | 0x0047       |     45 |              8 |

## DAT References (imed_data)

|   Index | Hex Value   |   Dec Value |
|---------|-------------|-------------|
|       0 | 0xFFFDAF9E  |  4294815646 |
|       1 | 0x0C72      |        3186 |
|       2 | 0xFFFFE1CE  |  4294959566 |
|       3 | 0x09E3      |        2531 |
|       4 | 0x0028      |          40 |
|       5 | 0xFFFDA45A  |  4294812762 |
|       6 | 0x17C7      |        6087 |
|       7 | 0xFFFFE2B8  |  4294959800 |
|       8 | 0xFFFD967A  |  4294809210 |
|       9 | 0x15C1      |        5569 |
|      10 | 0xFFFFE2C8  |  4294959816 |
|      11 | 0xFFFD92EA  |  4294808298 |
|      12 | 0x1237      |        4663 |
|      13 | 0x000B      |          11 |
|      14 | 0x397B8     |      235448 |
|      15 | 0xFFFC6153  |  4294730067 |
|      16 | 0x0EC5      |        3781 |
|      17 | 0x0B1D      |        2845 |
|      18 | 0x395C8     |      234952 |
|      19 | 0xFFFC58E7  |  4294727911 |
|      20 | 0x0F9F      |        3999 |

## Events

### Event 65535

#### Metadata

| Field        | Value   |
|--------------|---------|
| Entrypoint   | 0x0000  |
| Data Size    | 1 bytes |
| Instructions | 1       |

```
      00 01 02 03 04 05 06 07  08 09 0A 0B 0C 0D 0E 0F
      -- -- -- -- -- -- -- --  -- -- -- -- -- -- -- --
0000: 00                                                .               
```

#### Opcodes

```
  0: 0x0000 [0x00] END_REQSTACK()
```

### Event 232

#### Metadata

| Field        | Value    |
|--------------|----------|
| Entrypoint   | 0x0001   |
| Data Size    | 10 bytes |
| Instructions | 2        |

```
      00 01 02 03 04 05 06 07  08 09 0A 0B 0C 0D 0E 0F
      -- -- -- -- -- -- -- --  -- -- -- -- -- -- -- --
0000:    37 00 80 01 80 02 80  03 80 00                  7.........     
```

#### Opcodes

```
  0: 0x0001 [0x37] UPDATE_EVENT_POSITION_AND_DIR: x=-151.650*, z=3.186*, y=-7.730*, direction=222.4°*
  1: 0x000A [0x00] END_REQSTACK()
```

### Event 65535.1

#### Metadata

| Field        | Value    |
|--------------|----------|
| Entrypoint   | 0x000B   |
| Data Size    | 50 bytes |
| Instructions | 10       |

```
      00 01 02 03 04 05 06 07  08 09 0A 0B 0C 0D 0E 0F
      -- -- -- -- -- -- -- --  -- -- -- -- -- -- -- --
0000:                                   32 04 80 1F 00             2....
0010: 05 80 06 80 07 80 1F 01  1F 00 08 80 09 80 0A 80  ................
0020: 1F 01 1F 00 0B 80 0C 80  0A 80 1F 01 6F 66 0D 80  ............of..
0030: 7E C0 0E 01 7E C0 0E 01  6E 74 6C 30 00           ~...~...ntl0.   
```

#### Opcodes

```
  0: 0x000B [0x32] ExtData[1]->MainSpeed = 40* * 0.1
  1: 0x000E [0x1F] MOVE_ENTITY: EventEntity moves to X=-154.534*, Z=6.087*, Y=-7.496*
  2: 0x0016 [0x1F] MOVE_ENTITY: Update entity position (mode=1)
  3: 0x0018 [0x1F] MOVE_ENTITY: EventEntity moves to X=-158.086*, Z=5.569*, Y=-7.480*
  4: 0x0020 [0x1F] MOVE_ENTITY: Update entity position (mode=1)
  5: 0x0022 [0x1F] MOVE_ENTITY: EventEntity moves to X=-158.998*, Z=4.663*, Y=-7.480*
  6: 0x002A [0x1F] MOVE_ENTITY: Update entity position (mode=1)
  7: 0x002C [0x6F] WAIT_FRAME_DELAY: Yield until WaitTime reaches zero
  8: 0x002D [0x66] LOAD_EXT_SCHEDULER_MAIN: Load scheduler "ntl0" with entities [Cornelia (ID: 17743998/0x010EC07E), Cornelia (ID: 17743998/0x010EC07E)], work=11*
  9: 0x003C [0x00] END_REQSTACK()
```

### Event 234

#### Metadata

| Field        | Value    |
|--------------|----------|
| Entrypoint   | 0x003D   |
| Data Size    | 10 bytes |
| Instructions | 2        |

```
      00 01 02 03 04 05 06 07  08 09 0A 0B 0C 0D 0E 0F
      -- -- -- -- -- -- -- --  -- -- -- -- -- -- -- --
0030:                                         37 0E 80               7..
0040: 0F 80 10 80 11 80 00                              .......         
```

#### Opcodes

```
  0: 0x003D [0x37] UPDATE_EVENT_POSITION_AND_DIR: x=235.448*, z=-237.229*, y=3.781*, direction=250.0°*
  1: 0x0046 [0x00] END_REQSTACK()
```

### Event 65535.2

#### Metadata

| Field        | Value    |
|--------------|----------|
| Entrypoint   | 0x0047   |
| Data Size    | 45 bytes |
| Instructions | 8        |

```
      00 01 02 03 04 05 06 07  08 09 0A 0B 0C 0D 0E 0F
      -- -- -- -- -- -- -- --  -- -- -- -- -- -- -- --
0040:                      32  04 80 79 00 7E C0 0E 01         2..y.~...
0050: 80 C0 0E 01 1F 00 12 80  13 80 14 80 1F 01 6F 1E  ..............o.
0060: 80 C0 0E 01 66 0D 80 7E  C0 0E 01 7E C0 0E 01 6E  ....f..~...~...n
0070: 74 6C 30 00                                       tl0.            
```

#### Opcodes

```
  0: 0x0047 [0x32] ExtData[1]->MainSpeed = 40* * 0.1
  1: 0x004A [0x79] Cornelia (ID: 17743998/0x010EC07E) looks at Raogrimm (ID: 17744000/0x010EC080) (Basic look)
  2: 0x0054 [0x1F] MOVE_ENTITY: EventEntity moves to X=234.952*, Z=-239.385*, Y=3.999*
  3: 0x005C [0x1F] MOVE_ENTITY: Update entity position (mode=1)
  4: 0x005E [0x6F] WAIT_FRAME_DELAY: Yield until WaitTime reaches zero
  5: 0x005F [0x1E] EventEntity looks at Raogrimm (ID: 17744000/0x010EC080) and starts talking
  6: 0x0064 [0x66] LOAD_EXT_SCHEDULER_MAIN: Load scheduler "ntl0" with entities [Cornelia (ID: 17743998/0x010EC07E), Cornelia (ID: 17743998/0x010EC07E)], work=11*
  7: 0x0073 [0x00] END_REQSTACK()
```
