# 17743918 - Tete

## Common Data

| Field            | Value                 |
|------------------|-----------------------|
| Zone             | Port Bastok (ID: 236) |
| Block Size       | 196 bytes             |
| Total Events     | 6                     |
| References Count | 17                    |

## List of Events

| Event ID                 | Entrypoint   |   Size |   Instructions |
|--------------------------|--------------|--------|----------------|
| [65535](#event-65535)    | 0x0000       |      1 |              1 |
| [36](#event-36)          | 0x0001       |      1 |              1 |
| [35](#event-35)          | 0x0002       |     11 |              5 |
| [1](#event-1)            | 0x000D       |     10 |              2 |
| [65535.1](#event-655351) | 0x0017       |     27 |              7 |
| [175](#event-175)        | 0x0032       |     35 |              9 |

## DAT References (imed_data)

|   Index | Hex Value   |   Dec Value |
|---------|-------------|-------------|
|       0 | 0x1D2E      |        7470 |
|       1 | 0xFFFDFDA2  |  4294835618 |
|       2 | 0xFFFFFC39  |  4294966329 |
|       3 | 0xFFFFE890  |  4294961296 |
|       4 | 0x00E8      |         232 |
|       5 | 0x00B4      |         180 |
|       6 | 0x000D      |          13 |
|       7 | 0xFFFE042A  |  4294837290 |
|       8 | 0xFFFFF701  |  4294964993 |
|       9 | 0xFFFFE7EF  |  4294961135 |
|      10 | 0xFFFE2605  |  4294845957 |
|      11 | 0xFFFFD93A  |  4294957370 |
|      12 | 0xFFFFFC18  |  4294966296 |
|      13 | 0x03A0      |         928 |
|      14 | 0x1DD6      |        7638 |
|      15 | 0x003C      |          60 |
|      16 | 0x1DD7      |        7639 |

## String References

- **7470**: I'm happy that my granddaughter likes me, but I must say I have trouble keeping up with her at my age.
- **7638**: You need $7. Put some in your chimney and light a fire, then boom! Your troubles are gone.
- **7639**: I keep telling my daughter-in-law about it, but young people these days never listen to what their elders tell them.

## Events

### Event 65535

#### Metadata

| Field        | Value   |
|--------------|---------|
| Entrypoint   | 0x0000  |
| Data Size    | 1 bytes |
| Instructions | 1       |

```
      00 01 02 03 04 05 06 07  08 09 0A 0B 0C 0D 0E 0F
      -- -- -- -- -- -- -- --  -- -- -- -- -- -- -- --
0000: 00                                                .               
```

#### Opcodes

```
  0: 0x0000 [0x00] END_REQSTACK()
```

### Event 36

#### Metadata

| Field        | Value   |
|--------------|---------|
| Entrypoint   | 0x0001  |
| Data Size    | 1 bytes |
| Instructions | 1       |

```
      00 01 02 03 04 05 06 07  08 09 0A 0B 0C 0D 0E 0F
      -- -- -- -- -- -- -- --  -- -- -- -- -- -- -- --
0000:    00                                              .              
```

#### Opcodes

```
  0: 0x0001 [0x00] END_REQSTACK()
```

### Event 35

#### Metadata

| Field        | Value    |
|--------------|----------|
| Entrypoint   | 0x0002   |
| Data Size    | 11 bytes |
| Instructions | 5        |

```
      00 01 02 03 04 05 06 07  08 09 0A 0B 0C 0D 0E 0F
      -- -- -- -- -- -- -- --  -- -- -- -- -- -- -- --
0000:       1E F0 FF FF 7F 1D  00 80 23 21 00             ........#!.   
```

#### Opcodes

```
  0: 0x0002 [0x1E] EventEntity looks at LocalPlayer and starts talking
  1: 0x0007 [0x1D] PRINT_EVENT_MESSAGE(message_id=7470*)
    → "I'm happy that my granddaughter likes me, but I must say I have trouble keeping up with her at my age."
  2: 0x000A [0x23] WAIT_FOR_DIALOG_INTERACTION
  3: 0x000B [0x21] END_EVENT
  4: 0x000C [0x00] END_REQSTACK()
```

### Event 1

#### Metadata

| Field        | Value    |
|--------------|----------|
| Entrypoint   | 0x000D   |
| Data Size    | 10 bytes |
| Instructions | 2        |

```
      00 01 02 03 04 05 06 07  08 09 0A 0B 0C 0D 0E 0F
      -- -- -- -- -- -- -- --  -- -- -- -- -- -- -- --
0000:                                         37 01 80               7..
0010: 02 80 03 80 04 80 00                              .......         
```

#### Opcodes

```
  0: 0x000D [0x37] UPDATE_EVENT_POSITION_AND_DIR: x=-131.678*, z=-0.967*, y=-6.000*, direction=20.4°*
  1: 0x0016 [0x00] END_REQSTACK()
```

### Event 65535.1

#### Metadata

| Field        | Value    |
|--------------|----------|
| Entrypoint   | 0x0017   |
| Data Size    | 27 bytes |
| Instructions | 7        |

```
      00 01 02 03 04 05 06 07  08 09 0A 0B 0C 0D 0E 0F
      -- -- -- -- -- -- -- --  -- -- -- -- -- -- -- --
0010:                      1C  05 80 32 06 80 1F 00 07         ...2.....
0020: 80 08 80 09 80 1F 01 1F  00 0A 80 0B 80 0C 80 1F  ................
0030: 01 00                                             ..              
```

#### Opcodes

```
  0: 0x0017 [0x1C] WAIT(180* ticks)
  1: 0x001A [0x32] ExtData[1]->MainSpeed = 13* * 0.1
  2: 0x001D [0x1F] MOVE_ENTITY: EventEntity moves to X=-130.006*, Z=-2.303*, Y=-6.161*
  3: 0x0025 [0x1F] MOVE_ENTITY: Update entity position (mode=1)
  4: 0x0027 [0x1F] MOVE_ENTITY: EventEntity moves to X=-121.339*, Z=-9.926*, Y=-1.000*
  5: 0x002F [0x1F] MOVE_ENTITY: Update entity position (mode=1)
  6: 0x0031 [0x00] END_REQSTACK()
```

### Event 175

#### Metadata

| Field        | Value    |
|--------------|----------|
| Entrypoint   | 0x0032   |
| Data Size    | 35 bytes |
| Instructions | 9        |

```
      00 01 02 03 04 05 06 07  08 09 0A 0B 0C 0D 0E 0F
      -- -- -- -- -- -- -- --  -- -- -- -- -- -- -- --
0030:       03 09 10 0D 80 1E  F0 FF FF 7F 1D 0E 80 23    .............#
0040: 5B 0F 80 F8 FF FF 7F F8  FF FF 7F 74 6C 6B 30 1D  [..........tlk0.
0050: 10 80 23 21 00                                    ..#!.           
```

#### Opcodes

```
  0: 0x0032 [0x03] Work_Zone[9] = 928*
  1: 0x0037 [0x1E] EventEntity looks at LocalPlayer and starts talking
  2: 0x003C [0x1D] PRINT_EVENT_MESSAGE(message_id=7638*)
    → "You need $7. Put some in your chimney and light a fire, then boom! Your troubles are gone."
  3: 0x003F [0x23] WAIT_FOR_DIALOG_INTERACTION
  4: 0x0040 [0x5B] LOAD_EXT_SCHEDULER: Load scheduler "tlk0" with entities [EventEntity, EventEntity], work=60*
  5: 0x004F [0x1D] PRINT_EVENT_MESSAGE(message_id=7639*)
    → "I keep telling my daughter-in-law about it, but young people these days never listen to what their elders tell them."
  6: 0x0052 [0x23] WAIT_FOR_DIALOG_INTERACTION
  7: 0x0053 [0x21] END_EVENT
  8: 0x0054 [0x00] END_REQSTACK()
```
