# 17743962

## Common Data

| Field            | Value                 |
|------------------|-----------------------|
| Zone             | Port Bastok (ID: 236) |
| Block Size       | 220 bytes             |
| Total Events     | 5                     |
| References Count | 12                    |

## List of Events

| Event ID                 | Entrypoint   |   Size |   Instructions |
|--------------------------|--------------|--------|----------------|
| [65535](#event-65535)    | 0x0000       |      1 |              1 |
| [70](#event-70)          | 0x0001       |    128 |             27 |
| [71](#event-71)          | 0x0081       |      1 |              1 |
| [65535.1](#event-655351) | 0x0082       |      2 |              2 |
| [65535.2](#event-655352) | 0x0084       |      2 |              2 |

## DAT References (imed_data)

|   Index | Hex Value   |   Dec Value |
|---------|-------------|-------------|
|       0 | 0x1D05      |        7429 |
|       1 | 0x0023      |          35 |
|       2 | 0xFFFECF50  |  4294889296 |
|       3 | 0x008C      |         140 |
|       4 | 0xFFFD8730  |  4294805296 |
|       5 | 0x0003      |           3 |
|       6 | 0x0088      |         136 |
|       7 | 0x0000      |           0 |
|       8 | 0x000A      |          10 |
|       9 | 0x014A      |         330 |
|      10 | 0x003C      |          60 |
|      11 | 0x00C8      |         200 |

## Events

### Event 65535

#### Metadata

| Field        | Value   |
|--------------|---------|
| Entrypoint   | 0x0000  |
| Data Size    | 1 bytes |
| Instructions | 1       |

```
      00 01 02 03 04 05 06 07  08 09 0A 0B 0C 0D 0E 0F
      -- -- -- -- -- -- -- --  -- -- -- -- -- -- -- --
0000: 00                                                .               
```

#### Opcodes

```
  0: 0x0000 [0x00] END_REQSTACK()
```

### Event 70

#### Metadata

| Field        | Value     |
|--------------|-----------|
| Entrypoint   | 0x0001    |
| Data Size    | 128 bytes |
| Instructions | 27        |

```
      00 01 02 03 04 05 06 07  08 09 0A 0B 0C 0D 0E 0F
      -- -- -- -- -- -- -- --  -- -- -- -- -- -- -- --
0000:    20 01 42 2B 19 C0 0E  01 00 80 27 64 F0 FF FF    .B+......'d...
0010: 7F 0A 1C 01 80 3B F0 FF  FF 7F 00 00 02 00 01 00  .....;..........
0020: 02 02 00 02 80 02 2D 00  1C 03 80 21 00 02 02 00  ......-....!....
0030: 04 80 03 3A 00 1C 03 80  21 00 38 05 80 46 01 4E  ...:....!.8..F.N
0040: 01 F0 FF FF 7F 27 64 19  C0 0E 01 03 45 06 80 19  .....'d.....E...
0050: C0 0E 01 19 C0 0E 01 73  30 31 30 07 80 1C 08 80  .......s010.....
0060: 4D 1C 09 80 29 65 F0 FF  FF 7F 09 1C 0A 80 45 0B  M...)e........E.
0070: 80 F0 FF FF 7F F0 FF FF  7F 66 64 69 32 07 80 21  .........fdi2..!
0080: 00                                                .               
```

#### Opcodes

```
  0: 0x0001 [0x20] SET_CLI_EVENT_UC_FLAG: Lock player control
  1: 0x0003 [0x42] SET_CLI_EVENT_CANCEL_DATA()
  2: 0x0004 [0x2B] Latifah (ID: 17743897/0x010EC019) [7429*]:
    → "Incoming ship! Everyone off the bridge!"
  3: 0x000B [0x27] REQ_SET(priority=0x64, entity_id=LocalPlayer, tag_num=0x0A)
  4: 0x0012 [0x1C] WAIT(35* ticks)
  5: 0x0015 [0x3B] GET_ENTITY_POSITION(entity=LocalPlayer, x_destination=ExtData[1]->WorkLocal[0], y_destination=ExtData[1]->WorkLocal[2], z_destination=ExtData[1]->WorkLocal[1])
  6: 0x0020 [0x02] IF !(ExtData[1]->WorkLocal[2] <= 4294889296*) GOTO 0x002D
  7: 0x0028 [0x1C] WAIT(140* ticks)
  8: 0x002B [0x21] END_EVENT
  9: 0x002C [0x00] END_REQSTACK()
 10: 0x002D [0x02] IF !(ExtData[1]->WorkLocal[2] >= 4294805296*) GOTO 0x003A
 11: 0x0035 [0x1C] WAIT(140* ticks)
 12: 0x0038 [0x21] END_EVENT
 13: 0x0039 [0x00] END_REQSTACK()
 14: 0x003A [0x38] SET_CLIENT_EVENT_MODE(mode=3*)
 15: 0x003D [0x46] CAMERA_CONTROL: Disable user control
 16: 0x003F [0x4E] SET_ENTITY_HIDE_FLAG: Hide LocalPlayer
 17: 0x0045 [0x27] REQ_SET(priority=0x64, entity_id=Latifah (ID: 17743897/0x010EC019), tag_num=0x03)
 18: 0x004C [0x45] LOAD_SCHEDULED_TASK: Load scheduler "s010" with entities [Latifah (ID: 17743897/0x010EC019), Latifah (ID: 17743897/0x010EC019)], work=[136*, 0*]
 19: 0x005D [0x1C] WAIT(10* ticks)
 20: 0x0060 [0x4D] EventEntity->StatusEvent = 9 // Close door
 21: 0x0061 [0x1C] WAIT(330* ticks)
 22: 0x0064 [0x29] REQ_SET_WAIT(priority=0x65, entity_id=LocalPlayer, tag_num=0x09)
 23: 0x006B [0x1C] WAIT(60* ticks)
 24: 0x006E [0x45] LOAD_SCHEDULED_TASK: Load scheduler "fdi2" with entities [LocalPlayer, LocalPlayer], work=[200*, 0*]
 25: 0x007F [0x21] END_EVENT
 26: 0x0080 [0x00] END_REQSTACK()
```

### Event 71

#### Metadata

| Field        | Value   |
|--------------|---------|
| Entrypoint   | 0x0081  |
| Data Size    | 1 bytes |
| Instructions | 1       |

```
      00 01 02 03 04 05 06 07  08 09 0A 0B 0C 0D 0E 0F
      -- -- -- -- -- -- -- --  -- -- -- -- -- -- -- --
0080:    00                                              .              
```

#### Opcodes

```
  0: 0x0081 [0x00] END_REQSTACK()
```

### Event 65535.1

#### Metadata

| Field        | Value   |
|--------------|---------|
| Entrypoint   | 0x0082  |
| Data Size    | 2 bytes |
| Instructions | 2       |

```
      00 01 02 03 04 05 06 07  08 09 0A 0B 0C 0D 0E 0F
      -- -- -- -- -- -- -- --  -- -- -- -- -- -- -- --
0080:       4C 00                                         L.            
```

#### Opcodes

```
  0: 0x0082 [0x4C] EventEntity->StatusEvent = 8 // Open door
  1: 0x0083 [0x00] END_REQSTACK()
```

### Event 65535.2

#### Metadata

| Field        | Value   |
|--------------|---------|
| Entrypoint   | 0x0084  |
| Data Size    | 2 bytes |
| Instructions | 2       |

```
      00 01 02 03 04 05 06 07  08 09 0A 0B 0C 0D 0E 0F
      -- -- -- -- -- -- -- --  -- -- -- -- -- -- -- --
0080:             4D 00                                     M.          
```

#### Opcodes

```
  0: 0x0084 [0x4D] EventEntity->StatusEvent = 9 // Close door
  1: 0x0085 [0x00] END_REQSTACK()
```
