# 17743903 - Evi

## Common Data

| Field            | Value                 |
|------------------|-----------------------|
| Zone             | Port Bastok (ID: 236) |
| Block Size       | 340 bytes             |
| Total Events     | 6                     |
| References Count | 17                    |

## List of Events

| Event ID              | Entrypoint   |   Size |   Instructions |
|-----------------------|--------------|--------|----------------|
| [65535](#event-65535) | 0x0000       |      1 |              1 |
| [21](#event-21)       | 0x0001       |     33 |              9 |
| [104](#event-104)     | 0x0022       |     42 |             12 |
| [22](#event-22)       | 0x004C       |      9 |              3 |
| [130](#event-130)     | 0x0055       |     85 |             19 |
| [131](#event-131)     | 0x00AA       |     59 |             11 |

## DAT References (imed_data)

|   Index | Hex Value   |   Dec Value |
|---------|-------------|-------------|
|       0 | 0x0005      |           5 |
|       1 | 0x1D20      |        7456 |
|       2 | 0x0014      |          20 |
|       3 | 0x1D21      |        7457 |
|       4 | 0x1D1D      |        7453 |
|       5 | 0x1D1E      |        7454 |
|       6 | 0x1D1F      |        7455 |
|       7 | 0x001E      |          30 |
|       8 | 0x1D85      |        7557 |
|       9 | 0x1D86      |        7558 |
|      10 | 0x000A      |          10 |
|      11 | 0x1D87      |        7559 |
|      12 | 0x1D88      |        7560 |
|      13 | 0x1D89      |        7561 |
|      14 | 0x1D8A      |        7562 |
|      15 | 0x00C9      |         201 |
|      16 | 0x0000      |           0 |

## String References

- **7453**: I am from San d'Oria. Have you ever gone there? You do not want to. It is a nation trapped in old traditions and foolish rules.
- **7454**: The San d'Orian army is thought the mightiest in Vana'diel, but it is only a shadow of its past self.
- **7455**: I chose to let my soul be ravaged by the cruel wheel of time rather than spend an eternity in that timeless city. Here, at least, I feel alive.
- **7456**: Rafaela and I love taking walks along this road. The sea wind seeps deep and soothes the soul. Do you feel it as well?
- **7457**: Bastok's sea is the same shade of blue as the one near San d'Oria. They are one and the same. I do not long for my homeland anymore...I have Rafaela, now.
- **7557**: I must ask you to do something for me. You see, I was once a knight of San d'Oria. I left the Order and came here, to Bastok, when I realized the futility of their ways.
- **7558**: On my way here, I buried my mission orders for that day near the windmills in Konschtat. It was a dishonorable thing to do, and I regret doing it now...
- **7560**: Do not worry, Rafaela, I am not. That paper is a testament to my past failures... I just wish to rip it apart with my own hands, and finally start anew.
- **7561**: If you happen to go to the Konschtat Highlands, would you try retrieving it for me? Unfortunately, I cannot remember which windmill I buried it near...
- **7562**: Yes, this is it. Finally, I may start anew. Take this as a token of my gratitude. I do not need it anymore.

## Events

### Event 65535

#### Metadata

| Field        | Value   |
|--------------|---------|
| Entrypoint   | 0x0000  |
| Data Size    | 1 bytes |
| Instructions | 1       |

```
      00 01 02 03 04 05 06 07  08 09 0A 0B 0C 0D 0E 0F
      -- -- -- -- -- -- -- --  -- -- -- -- -- -- -- --
0000: 00                                                .               
```

#### Opcodes

```
  0: 0x0000 [0x00] END_REQSTACK()
```

### Event 21

#### Metadata

| Field        | Value    |
|--------------|----------|
| Entrypoint   | 0x0001   |
| Data Size    | 33 bytes |
| Instructions | 9        |

```
      00 01 02 03 04 05 06 07  08 09 0A 0B 0C 0D 0E 0F
      -- -- -- -- -- -- -- --  -- -- -- -- -- -- -- --
0000:    1E F0 FF FF 7F 1C 00  80 1D 01 80 23 66 02 80   ...........#f..
0010: F8 FF FF 7F F8 FF FF 7F  74 6C 6B 30 1D 03 80 23  ........tlk0...#
0020: 21 00                                             !.              
```

#### Opcodes

```
  0: 0x0001 [0x1E] EventEntity looks at LocalPlayer and starts talking
  1: 0x0006 [0x1C] WAIT(5* ticks)
  2: 0x0009 [0x1D] PRINT_EVENT_MESSAGE(message_id=7456*)
    → "Rafaela and I love taking walks along this road. The sea wind seeps deep and soothes the soul. Do you feel it as well?"
  3: 0x000C [0x23] WAIT_FOR_DIALOG_INTERACTION
  4: 0x000D [0x66] LOAD_EXT_SCHEDULER_MAIN: Load scheduler "tlk0" with entities [EventEntity, EventEntity], work=20*
  5: 0x001C [0x1D] PRINT_EVENT_MESSAGE(message_id=7457*)
    → "Bastok's sea is the same shade of blue as the one near San d'Oria. They are one and the same. I do not long for my homeland anymore...I have Rafaela, now."
  6: 0x001F [0x23] WAIT_FOR_DIALOG_INTERACTION
  7: 0x0020 [0x21] END_EVENT
  8: 0x0021 [0x00] END_REQSTACK()
```

### Event 104

#### Metadata

| Field        | Value    |
|--------------|----------|
| Entrypoint   | 0x0022   |
| Data Size    | 42 bytes |
| Instructions | 12       |

```
      00 01 02 03 04 05 06 07  08 09 0A 0B 0C 0D 0E 0F
      -- -- -- -- -- -- -- --  -- -- -- -- -- -- -- --
0020:       1E F0 FF FF 7F 1C  00 80 1D 04 80 23 66 02    ...........#f.
0030: 80 F8 FF FF 7F F8 FF FF  7F 74 6C 6B 30 1D 05 80  .........tlk0...
0040: 23 5E 69 64 6C 30 1D 06  80 23 21 00              #^idl0...#!.    
```

#### Opcodes

```
  0: 0x0022 [0x1E] EventEntity looks at LocalPlayer and starts talking
  1: 0x0027 [0x1C] WAIT(5* ticks)
  2: 0x002A [0x1D] PRINT_EVENT_MESSAGE(message_id=7453*)
    → "I am from San d'Oria. Have you ever gone there? You do not want to. It is a nation trapped in old traditions and foolish rules."
  3: 0x002D [0x23] WAIT_FOR_DIALOG_INTERACTION
  4: 0x002E [0x66] LOAD_EXT_SCHEDULER_MAIN: Load scheduler "tlk0" with entities [EventEntity, EventEntity], work=20*
  5: 0x003D [0x1D] PRINT_EVENT_MESSAGE(message_id=7454*)
    → "The San d'Orian army is thought the mightiest in Vana'diel, but it is only a shadow of its past self."
  6: 0x0040 [0x23] WAIT_FOR_DIALOG_INTERACTION
  7: 0x0041 [0x5E] EventEntity goes idle (kills current action) (animation: "idl0")
  8: 0x0046 [0x1D] PRINT_EVENT_MESSAGE(message_id=7455*)
    → "I chose to let my soul be ravaged by the cruel wheel of time rather than spend an eternity in that timeless city. Here, at least, I feel alive."
  9: 0x0049 [0x23] WAIT_FOR_DIALOG_INTERACTION
 10: 0x004A [0x21] END_EVENT
 11: 0x004B [0x00] END_REQSTACK()
```

### Event 22

#### Metadata

| Field        | Value   |
|--------------|---------|
| Entrypoint   | 0x004C  |
| Data Size    | 9 bytes |
| Instructions | 3       |

```
      00 01 02 03 04 05 06 07  08 09 0A 0B 0C 0D 0E 0F
      -- -- -- -- -- -- -- --  -- -- -- -- -- -- -- --
0040:                                      1C 07 80 1E              ....
0050: 20 C0 0E 01 00                                     ....           
```

#### Opcodes

```
  0: 0x004C [0x1C] WAIT(30* ticks)
  1: 0x004F [0x1E] EventEntity looks at Rafaela (ID: 17743904/0x010EC020) and starts talking
  2: 0x0054 [0x00] END_REQSTACK()
```

### Event 130

#### Metadata

| Field        | Value    |
|--------------|----------|
| Entrypoint   | 0x0055   |
| Data Size    | 85 bytes |
| Instructions | 19       |

```
      00 01 02 03 04 05 06 07  08 09 0A 0B 0C 0D 0E 0F
      -- -- -- -- -- -- -- --  -- -- -- -- -- -- -- --
0050:                1E F0 FF  FF 7F 66 02 80 F8 FF FF       .....f.....
0060: 7F F8 FF FF 7F 74 6C 6B  30 1D 08 80 23 1D 09 80  .....tlk0...#...
0070: 23 5E 69 64 6C 65 66 0A  80 20 C0 0E 01 20 C0 0E  #^idlef.. ... ..
0080: 01 74 6C 6B 30 2B 20 C0  0E 01 0B 80 23 6B 69 64  .tlk0+ .....#kid
0090: 6C 30 20 C0 0E 01 1E 20  C0 0E 01 1D 0C 80 23 1E  l0 .... ......#.
00A0: F0 FF FF 7F 1D 0D 80 23  21 00                    .......#!.      
```

#### Opcodes

```
  0: 0x0055 [0x1E] EventEntity looks at LocalPlayer and starts talking
  1: 0x005A [0x66] LOAD_EXT_SCHEDULER_MAIN: Load scheduler "tlk0" with entities [EventEntity, EventEntity], work=20*
  2: 0x0069 [0x1D] PRINT_EVENT_MESSAGE(message_id=7557*)
    → "I must ask you to do something for me. You see, I was once a knight of San d'Oria. I left the Order and came here, to Bastok, when I realized the futility of their ways."
  3: 0x006C [0x23] WAIT_FOR_DIALOG_INTERACTION
  4: 0x006D [0x1D] PRINT_EVENT_MESSAGE(message_id=7558*)
    → "On my way here, I buried my mission orders for that day near the windmills in Konschtat. It was a dishonorable thing to do, and I regret doing it now..."
  5: 0x0070 [0x23] WAIT_FOR_DIALOG_INTERACTION
  6: 0x0071 [0x5E] EventEntity goes idle (kills current action) (animation: "idle")
  7: 0x0076 [0x66] LOAD_EXT_SCHEDULER_MAIN: Load scheduler "tlk0" with entities [Rafaela (ID: 17743904/0x010EC020), Rafaela (ID: 17743904/0x010EC020)], work=10*
  8: 0x0085 [0x2B] Rafaela (ID: 17743904/0x010EC020) [7559*]:
    → "Evi? You're not going back, are you?"
  9: 0x008C [0x23] WAIT_FOR_DIALOG_INTERACTION
 10: 0x008D [0x6B] STOP_AND_IDLE: Rafaela (ID: 17743904/0x010EC020) stops current action and resets to idle (animation="idl0")
 11: 0x0096 [0x1E] EventEntity looks at Rafaela (ID: 17743904/0x010EC020) and starts talking
 12: 0x009B [0x1D] PRINT_EVENT_MESSAGE(message_id=7560*)
    → "Do not worry, Rafaela, I am not. That paper is a testament to my past failures... I just wish to rip it apart with my own hands, and finally start anew."
 13: 0x009E [0x23] WAIT_FOR_DIALOG_INTERACTION
 14: 0x009F [0x1E] EventEntity looks at LocalPlayer and starts talking
 15: 0x00A4 [0x1D] PRINT_EVENT_MESSAGE(message_id=7561*)
    → "If you happen to go to the Konschtat Highlands, would you try retrieving it for me? Unfortunately, I cannot remember which windmill I buried it near..."
 16: 0x00A7 [0x23] WAIT_FOR_DIALOG_INTERACTION
 17: 0x00A8 [0x21] END_EVENT
 18: 0x00A9 [0x00] END_REQSTACK()
```

### Event 131

#### Metadata

| Field        | Value    |
|--------------|----------|
| Entrypoint   | 0x00AA   |
| Data Size    | 59 bytes |
| Instructions | 11       |

```
      00 01 02 03 04 05 06 07  08 09 0A 0B 0C 0D 0E 0F
      -- -- -- -- -- -- -- --  -- -- -- -- -- -- -- --
00A0:                                42 1E F0 FF FF 7F            B.....
00B0: 6F 70 66 02 80 F8 FF FF  7F F8 FF FF 7F 70 61 73  opf..........pas
00C0: 30 1D 0E 80 23 53 F8 FF  FF 7F F8 FF FF 7F 70 61  0...#S........pa
00D0: 73 30 45 0F 80 F0 FF FF  7F F0 FF FF 7F 71 73 74  s0E..........qst
00E0: 63 10 80 21 00                                    c..!.           
```

#### Opcodes

```
  0: 0x00AA [0x42] SET_CLI_EVENT_CANCEL_DATA()
  1: 0x00AB [0x1E] EventEntity looks at LocalPlayer and starts talking
  2: 0x00B0 [0x6F] WAIT_FRAME_DELAY: Yield until WaitTime reaches zero
  3: 0x00B1 [0x70] WAIT_ENTITY_RENDER_FLAG: Wait while EventEntity->Render.Flags3 bit 2 is set (cancel turn if not)
  4: 0x00B2 [0x66] LOAD_EXT_SCHEDULER_MAIN: Load scheduler "pas0" with entities [EventEntity, EventEntity], work=20*
  5: 0x00C1 [0x1D] PRINT_EVENT_MESSAGE(message_id=7562*)
    → "Yes, this is it. Finally, I may start anew. Take this as a token of my gratitude. I do not need it anymore."
  6: 0x00C4 [0x23] WAIT_FOR_DIALOG_INTERACTION
  7: 0x00C5 [0x53] WAIT_SCHEDULER_TASK: Wait for scheduler "pas0" with entities [EventEntity, EventEntity]
  8: 0x00D2 [0x45] LOAD_SCHEDULED_TASK: Load scheduler "qstc" with entities [LocalPlayer, LocalPlayer], work=[201*, 0*]
  9: 0x00E3 [0x21] END_EVENT
 10: 0x00E4 [0x00] END_REQSTACK()
```
