# 17743928 - Dehlner

## Common Data

| Field            | Value                 |
|------------------|-----------------------|
| Zone             | Port Bastok (ID: 236) |
| Block Size       | 192 bytes             |
| Total Events     | 5                     |
| References Count | 11                    |

## List of Events

| Event ID                 | Entrypoint   |   Size |   Instructions |
|--------------------------|--------------|--------|----------------|
| [65535](#event-65535)    | 0x0000       |      1 |              1 |
| [46](#event-46)          | 0x0001       |     33 |              9 |
| [1](#event-1)            | 0x0022       |      1 |              1 |
| [65535.1](#event-655351) | 0x0023       |     41 |              7 |
| [111](#event-111)        | 0x004C       |     34 |             10 |

## DAT References (imed_data)

|   Index | Hex Value   |   Dec Value |
|---------|-------------|-------------|
|       0 | 0x0014      |          20 |
|       1 | 0x1C89      |        7305 |
|       2 | 0x005A      |          90 |
|       3 | 0x1C8A      |        7306 |
|       4 | 0x010E      |         270 |
|       5 | 0xFFFFA60C  |  4294944268 |
|       6 | 0xB656      |       46678 |
|       7 | 0x1322      |        4898 |
|       8 | 0x1D64      |        7524 |
|       9 | 0x1D65      |        7525 |
|      10 | 0x1D66      |        7526 |

## String References

- **7305**: I don't know why grown-ups say that this place is useless.
- **7306**: It's loads of fun! Grown-ups don't know what they're missing!
- **7524**: The foreman told me not to tell anyone, but he said he was going to the big hill in North Gustaberg.
- **7525**: He told me that he'd be gone for a while, so he asked me to take care of his dog for him while he was away.
- **7526**: But the day after the foreman left, his dog disappeared, too. I hope they're both all right...

## Events

### Event 65535

#### Metadata

| Field        | Value   |
|--------------|---------|
| Entrypoint   | 0x0000  |
| Data Size    | 1 bytes |
| Instructions | 1       |

```
      00 01 02 03 04 05 06 07  08 09 0A 0B 0C 0D 0E 0F
      -- -- -- -- -- -- -- --  -- -- -- -- -- -- -- --
0000: 00                                                .               
```

#### Opcodes

```
  0: 0x0000 [0x00] END_REQSTACK()
```

### Event 46

#### Metadata

| Field        | Value    |
|--------------|----------|
| Entrypoint   | 0x0001   |
| Data Size    | 33 bytes |
| Instructions | 9        |

```
      00 01 02 03 04 05 06 07  08 09 0A 0B 0C 0D 0E 0F
      -- -- -- -- -- -- -- --  -- -- -- -- -- -- -- --
0000:    1E F0 FF FF 7F 1C 00  80 1D 01 80 23 5B 02 80   ...........#[..
0010: F8 FF FF 7F F8 FF FF 7F  74 6C 6B 30 1D 03 80 23  ........tlk0...#
0020: 21 00                                             !.              
```

#### Opcodes

```
  0: 0x0001 [0x1E] EventEntity looks at LocalPlayer and starts talking
  1: 0x0006 [0x1C] WAIT(20* ticks)
  2: 0x0009 [0x1D] PRINT_EVENT_MESSAGE(message_id=7305*)
    → "I don't know why grown-ups say that this place is useless."
  3: 0x000C [0x23] WAIT_FOR_DIALOG_INTERACTION
  4: 0x000D [0x5B] LOAD_EXT_SCHEDULER: Load scheduler "tlk0" with entities [EventEntity, EventEntity], work=90*
  5: 0x001C [0x1D] PRINT_EVENT_MESSAGE(message_id=7306*)
    → "It's loads of fun! Grown-ups don't know what they're missing!"
  6: 0x001F [0x23] WAIT_FOR_DIALOG_INTERACTION
  7: 0x0020 [0x21] END_EVENT
  8: 0x0021 [0x00] END_REQSTACK()
```

### Event 1

#### Metadata

| Field        | Value   |
|--------------|---------|
| Entrypoint   | 0x0022  |
| Data Size    | 1 bytes |
| Instructions | 1       |

```
      00 01 02 03 04 05 06 07  08 09 0A 0B 0C 0D 0E 0F
      -- -- -- -- -- -- -- --  -- -- -- -- -- -- -- --
0020:       00                                            .             
```

#### Opcodes

```
  0: 0x0022 [0x00] END_REQSTACK()
```

### Event 65535.1

#### Metadata

| Field        | Value    |
|--------------|----------|
| Entrypoint   | 0x0023   |
| Data Size    | 41 bytes |
| Instructions | 7        |

```
      00 01 02 03 04 05 06 07  08 09 0A 0B 0C 0D 0E 0F
      -- -- -- -- -- -- -- --  -- -- -- -- -- -- -- --
0020:          1C 04 80 1F 00  05 80 06 80 07 80 1F 01     .............
0030: 4A 2A C0 0E 01 F8 FF FF  7F 1C 00 80 5B 02 80 F8  J*..........[...
0040: FF FF 7F F8 FF FF 7F 74  6C 6B 30 00              .......tlk0.    
```

#### Opcodes

```
  0: 0x0023 [0x1C] WAIT(270* ticks)
  1: 0x0026 [0x1F] MOVE_ENTITY: EventEntity moves to X=-23.028*, Z=46.678*, Y=4.898*
  2: 0x002E [0x1F] MOVE_ENTITY: Update entity position (mode=1)
  3: 0x0030 [0x4A] Zeldaff (ID: 17743914/0x010EC02A) looks at EventEntity
  4: 0x0039 [0x1C] WAIT(20* ticks)
  5: 0x003C [0x5B] LOAD_EXT_SCHEDULER: Load scheduler "tlk0" with entities [EventEntity, EventEntity], work=90*
  6: 0x004B [0x00] END_REQSTACK()
```

### Event 111

#### Metadata

| Field        | Value    |
|--------------|----------|
| Entrypoint   | 0x004C   |
| Data Size    | 34 bytes |
| Instructions | 10       |

```
      00 01 02 03 04 05 06 07  08 09 0A 0B 0C 0D 0E 0F
      -- -- -- -- -- -- -- --  -- -- -- -- -- -- -- --
0040:                                      1E F0 FF FF              ....
0050: 7F 1D 08 80 23 5B 02 80  F8 FF FF 7F F8 FF FF 7F  ....#[..........
0060: 74 6C 6B 30 1D 09 80 23  1D 0A 80 23 21 00        tlk0...#...#!.  
```

#### Opcodes

```
  0: 0x004C [0x1E] EventEntity looks at LocalPlayer and starts talking
  1: 0x0051 [0x1D] PRINT_EVENT_MESSAGE(message_id=7524*)
    → "The foreman told me not to tell anyone, but he said he was going to the big hill in North Gustaberg."
  2: 0x0054 [0x23] WAIT_FOR_DIALOG_INTERACTION
  3: 0x0055 [0x5B] LOAD_EXT_SCHEDULER: Load scheduler "tlk0" with entities [EventEntity, EventEntity], work=90*
  4: 0x0064 [0x1D] PRINT_EVENT_MESSAGE(message_id=7525*)
    → "He told me that he'd be gone for a while, so he asked me to take care of his dog for him while he was away."
  5: 0x0067 [0x23] WAIT_FOR_DIALOG_INTERACTION
  6: 0x0068 [0x1D] PRINT_EVENT_MESSAGE(message_id=7526*)
    → "But the day after the foreman left, his dog disappeared, too. I hope they're both all right..."
  7: 0x006B [0x23] WAIT_FOR_DIALOG_INTERACTION
  8: 0x006C [0x21] END_EVENT
  9: 0x006D [0x00] END_REQSTACK()
```
