# 17744155 - Klaas

## Common Data

| Field            | Value                 |
|------------------|-----------------------|
| Zone             | Port Bastok (ID: 236) |
| Block Size       | 3760 bytes            |
| Total Events     | 2                     |
| References Count | 65                    |

## List of Events

| Event ID              | Entrypoint   |   Size |   Instructions |
|-----------------------|--------------|--------|----------------|
| [65535](#event-65535) | 0x0000       |      1 |              1 |
| [415](#event-415)     | 0x0001       |   3475 |            662 |

## DAT References (imed_data)

|   Index | Hex Value   |   Dec Value |
|---------|-------------|-------------|
|       0 | 0x0000      |           0 |
|       1 | 0x0001      |           1 |
|       2 | 0x33A6      |       13222 |
|       3 | 0x33A7      |       13223 |
|       4 | 0x0002      |           2 |
|       5 | 0x0003      |           3 |
|       6 | 0x33A8      |       13224 |
|       7 | 0x33A9      |       13225 |
|       8 | 0x33AA      |       13226 |
|       9 | 0x33AB      |       13227 |
|      10 | 0x33AC      |       13228 |
|      11 | 0x000A      |          10 |
|      12 | 0x0F2E      |        3886 |
|      13 | 0x61A8      |       25000 |
|      14 | 0x33B0      |       13232 |
|      15 | 0x33B1      |       13233 |
|      16 | 0x0005      |           5 |
|      17 | 0x0009      |           9 |
|      18 | 0x33AD      |       13229 |
|      19 | 0x33AE      |       13230 |
|      20 | 0x33AF      |       13231 |
|      21 | 0x00C8      |         200 |
|      22 | 0x001B      |          27 |
|      23 | 0x000C      |          12 |
|      24 | 0x0066      |         102 |
|      25 | 0x001E      |          30 |
|      26 | 0x0088      |         136 |
|      27 | 0x003C      |          60 |
|      28 | 0x05DC      |        1500 |
|      29 | 0x15F90     |       90000 |
|      30 | 0xC76A      |       51050 |
|      31 | 0x1324      |        4900 |
|      32 | 0x03FF      |        1023 |
|      33 | 0x00B4      |         180 |
|      34 | 0x0004      |           4 |
|      35 | 0x002D      |          45 |
|      36 | 0x000F      |          15 |
|      37 | 0x0013      |          19 |
|      38 | 0x000B      |          11 |
|      39 | 0xFFFEA070  |  4294877296 |
|      40 | 0xFFFEA64C  |  4294878796 |
|      41 | 0xFFFEAC28  |  4294880296 |
|      42 | 0xFFFEB204  |  4294881796 |
|      43 | 0xFFFEB7E0  |  4294883296 |
|      44 | 0x33B2      |       13234 |
|      45 | 0x33B3      |       13235 |
|      46 | 0x0098      |         152 |
|      47 | 0x33BA      |       13242 |
|      48 | 0x0078      |         120 |
|      49 | 0x0168      |         360 |
|      50 | 0x33B5      |       13237 |
|      51 | 0x33B7      |       13239 |
|      52 | 0x01AA      |         426 |
|      53 | 0x33B6      |       13238 |
|      54 | 0x33B8      |       13240 |
|      55 | 0x33B4      |       13236 |
|      56 | 0x012C      |         300 |
|      57 | 0x33B9      |       13241 |
|      58 | 0x0010      |          16 |
|      59 | 0xCB20      |       52000 |
|      60 | 0xC738      |       51000 |
|      61 | 0x0F3C      |        3900 |
|      62 | 0xFFFFFA24  |  4294965796 |
|      63 | 0xC350      |       50000 |
|      64 | 0x0B54      |        2900 |

## String References

- **13222**: Merry Starlight! Come one, come all, and try your hand at the chocobo treasure chests!
- **13223**: Lately it's been really frigid outside, but with those hands warm and snug inside those fuzzy mittens, I'll bet you'll be seeking a more challenging level of competition!
- **13224**: What's your pleasure? [Hear an explanation of the game./[Play/Play the simple version]./[/Play the advanced version.]/I lost my synthesis materials./Not interested in playing, thank you.]
- **13225**: The goal of this parlor game is to guess which treasure chests contain the baby chocobos.
- **13226**: I'll first show you which one has our little feathered friend.
- **13227**: Then it'll be your chance to guess after I give the boxes a quick shuffle. If you're right, you win! If not, you lose.
- **13228**: In the advanced version, there are two chocobos instead of one for twice the feathery fun!
- **13229**: Each game costs $1 gil. Whaddya say?
- **13230**: Give it a go? (You currently have $1 gil.) [Let's do this!/Not right now.]
- **13231**: Perfect!
- **13232**: Well, I suppose I do have some extra $0... How does $1 gil for one sound?
- **13233**: Would you like to purchase this material? [Yes./No.]
- **13234**: So, where do you think it's hiding? [/(first)/(second)] [The far left. [/(selected)]/Second from the left. [/(selected)]/Third from the left. [/(selected)]/Fourth from the left. [/(selected)]/Fifth from the left. [/(selected)]/Stop playing.]
- **13235**: Really stop playing? [Yes./No.]
- **13236**: Well done! I could tell you had an eye for this! Take this amazing prize!
- **13237**: Outstanding! It isn't every day you see someone up to the challenge! Here, you deserve this!
- **13238**: You won't be able to accomplish a thing with just that, however. To complete the synthesis, you need to collect two other items by traveling to the other nations.
- **13239**: Oh ho, wait just a moment! Looks like you've got the three things you need. Smash these babies together and see what splurts out!
- **13240**: Let me give you a little extra something for your hard work. Once you've synthesized an $1 and placed it in your Mog House, sit back, relax, and enjoy a tune or two.
- **13241**: Better luck next time, friend!
- **13242**: A bit out of your league, I suppose. No harm in trying again later, right?

## Events

### Event 65535

#### Metadata

| Field        | Value   |
|--------------|---------|
| Entrypoint   | 0x0000  |
| Data Size    | 1 bytes |
| Instructions | 1       |

```
      00 01 02 03 04 05 06 07  08 09 0A 0B 0C 0D 0E 0F
      -- -- -- -- -- -- -- --  -- -- -- -- -- -- -- --
0000: 00                                                .               
```

#### Opcodes

```
  0: 0x0000 [0x00] END_REQSTACK()
```

### Event 415

#### Metadata

| Field        | Value      |
|--------------|------------|
| Entrypoint   | 0x0001     |
| Data Size    | 3475 bytes |
| Instructions | 633        |

```
      00 01 02 03 04 05 06 07  08 09 0A 0B 0C 0D 0E 0F
      -- -- -- -- -- -- -- --  -- -- -- -- -- -- -- --
0000:    03 0E 00 06 10 3E 02  10 00 80 13 00 05 0C 00   .....>.........
0010: 01 16 00 06 0C 00 3E 02  10 01 80 23 00 05 0D 00  ......>....#....
0020: 01 26 00 06 0D 00 1E F0  FF FF 7F 1D 02 80 23 02  .&............#.
0030: 0C 00 01 80 00 40 00 03  03 10 8B 7F 1D 03 80 23  .....@.........#
0040: 02 0C 00 00 80 00 55 00  3C 0B 00 04 80 01 80 06  ......U.<.......
0050: 02 10 01 5F 00 3D 0B 00  04 80 01 80 05 02 10 02  ..._.=..........
0060: 0D 00 00 80 00 71 00 3C  0B 00 05 80 01 80 01 78  .....q.<.......x
0070: 00 3D 0B 00 05 80 01 80  24 06 80 00 80 0B 00 25  .=......$......%
0080: 02 00 10 00 80 00 A6 00  1D 07 80 23 1D 08 80 23  ...........#...#
0090: 1D 09 80 23 02 0C 00 01  80 00 A0 00 1D 0A 80 23  ...#...........#
00A0: 01 40 00 01 17 01 02 00  10 01 80 00 BB 00 3D 01  .@............=.
00B0: 10 0B 80 01 80 1A 19 01  01 17 01 02 00 10 04 80  ................
00C0: 00 D0 00 3C 01 10 0B 80  01 80 1A 19 01 01 17 01  ...<............
00D0: 02 00 10 05 80 00 17 01  03 02 10 0C 80 03 03 10  ................
00E0: 0D 80 1D 0E 80 23 24 0F  80 01 80 00 80 25 02 00  .....#$......%..
00F0: 10 00 80 00 06 01 40 10  80 11 80 01 10 10 80 43  ......@........C
0100: 00 43 01 01 14 01 02 00  10 01 80 00 14 01 01 40  .C.............@
0110: 00 01 14 01 01 17 01 21  00 03 03 10 0B 80 1D 12  .......!........
0120: 80 23 40 10 80 11 80 01  10 01 80 43 00 43 01 24  .#@........C.C.$
0130: 13 80 01 80 00 80 25 02  00 10 01 80 00 45 01 01  ......%......E..
0140: 40 00 01 45 01 42 40 10  80 11 80 01 10 04 80 43  @..E.B@........C
0150: 00 43 01 02 03 10 01 80  00 62 01 1D 14 80 23 1A  .C.......b....#.
0160: 63 01 1B 45 15 80 F8 FF  FF 7F F8 FF FF 7F 66 64  c..E..........fd
0170: 6F 31 00 80 55 15 80 F8  FF FF 7F F8 FF FF 7F 66  o1..U..........f
0180: 64 6F 31 46 01 38 16 80  77 17 80 00 80 2F 00 1C  do1F.8..w..../..
0190: C1 0E 01 4E 00 1C C1 0E  01 2F 00 1D C1 0E 01 4E  ...N...../.....N
01A0: 00 1D C1 0E 01 2F 00 1E  C1 0E 01 4E 00 1E C1 0E  ...../.....N....
01B0: 01 2F 00 1F C1 0E 01 4E  00 1F C1 0E 01 2F 00 20  ./.....N...../. 
01C0: C1 0E 01 4E 00 20 C1 0E  01 03 06 10 0E 00 29 80  ...N. ........).
01D0: 1D C1 0E 01 03 29 80 1E  C1 0E 01 03 29 80 1F C1  .....)......)...
01E0: 0E 01 03 29 80 20 C1 0E  01 03 2F 00 24 C1 0E 01  ...). ..../.$...
01F0: 4E 00 24 C1 0E 01 2F 00  25 C1 0E 01 4E 00 25 C1  N.$.../.%...N.%.
0200: 0E 01 2F 00 26 C1 0E 01  4E 00 26 C1 0E 01 2F 00  ../.&...N.&.../.
0210: 27 C1 0E 01 4E 00 27 C1  0E 01 2F 00 28 C1 0E 01  '...N.'.../.(...
0220: 4E 00 28 C1 0E 01 2F 00  23 C1 0E 01 4E 00 23 C1  N.(.../.#...N.#.
0230: 0E 01 2F 00 29 C1 0E 01  4E 00 29 C1 0E 01 2F 00  ../.)...N.).../.
0240: 2A C1 0E 01 4E 00 2A C1  0E 01 2F 00 2B C1 0E 01  *...N.*.../.+...
0250: 4E 00 2B C1 0E 01 2F 00  2C C1 0E 01 4E 00 2C C1  N.+.../.,...N.,.
0260: 0E 01 2F 00 2D C1 0E 01  4E 00 2D C1 0E 01 2F 00  ../.-...N.-.../.
0270: 2E C1 0E 01 4E 00 2E C1  0E 01 80 1C C1 0E 01 80  ....N...........
0280: 1D C1 0E 01 80 1E C1 0E  01 80 1F C1 0E 01 80 20  ............... 
0290: C1 0E 01 2F 00 21 C1 0E  01 80 21 C1 0E 01 2F 00  .../.!....!.../.
02A0: 22 C1 0E 01 80 22 C1 0E  01 45 18 80 F8 FF FF 7F  "...."...E......
02B0: F8 FF FF 7F 73 30 30 34  00 80 1C 19 80 5C 00 1A  ....s004.....\..
02C0: 80 5C 01 1A 80 45 15 80  F8 FF FF 7F F8 FF FF 7F  .\...E..........
02D0: 66 64 69 31 00 80 1C 1B  80 06 00 00 02 00 00 10  fdi1............
02E0: 80 03 F9 02 3E 04 10 00  00 F3 02 03 04 00 00 00  ....>...........
02F0: 1A FE 08 0B 00 00 01 DC  02 06 00 00 06 07 00 02  ................
0300: 00 00 10 80 03 57 03 3E  04 10 00 00 51 03 03 01  .....W.>....Q...
0310: 00 00 00 14 01 00 1C 80  08 01 00 1D 80 02 07 00  ................
0320: 00 80 00 3E 03 BA 21 C1  0E 01 01 00 1E 80 1F 80  ...>..!.........
0330: 20 80 4E 00 21 C1 0E 01  05 07 00 01 51 03 BA 22   .N.!.......Q.."
0340: C1 0E 01 01 00 1E 80 1F  80 20 80 4E 00 22 C1 0E  ......... .N."..
0350: 01 0B 00 00 01 FF 02 1C  21 80 06 00 00 02 00 00  ........!.......
0360: 10 80 03 EA 03 3E 04 10  00 00 E4 03 02 00 00 00  .....>..........
0370: 80 80 84 03 2C 1C C1 0E  01 1C C1 0E 01 63 6C 6F  ....,........clo
0380: 73 01 E4 03 02 00 00 01  80 80 9C 03 2C 1D C1 0E  s...........,...
0390: 01 1D C1 0E 01 63 6C 6F  73 01 E4 03 02 00 00 04  .....clos.......
03A0: 80 80 B4 03 2C 1E C1 0E  01 1E C1 0E 01 63 6C 6F  ....,........clo
03B0: 73 01 E4 03 02 00 00 05  80 80 CC 03 2C 1F C1 0E  s...........,...
03C0: 01 1F C1 0E 01 63 6C 6F  73 01 E4 03 02 00 00 22  .....clos......"
03D0: 80 80 E4 03 2C 20 C1 0E  01 20 C1 0E 01 63 6C 6F  ...., ... ...clo
03E0: 73 01 E4 03 0B 00 00 01  5D 03 1C 23 80 4E 01 21  s.......]..#.N.!
03F0: C1 0E 01 3E 07 10 00 80  00 04 4E 01 22 C1 0E 01  ...>......N."...
0400: 03 0F 00 00 80 03 10 00  01 80 03 11 00 04 80 03  ................
0410: 12 00 05 80 03 13 00 22  80 40 24 80 25 80 04 10  .......".@$.%...
0420: 00 80 06 03 00 40 10 80  11 80 01 10 05 80 40 26  .....@........@&
0430: 80 24 80 01 10 03 00 43  00 43 01 41 24 80 25 80  .$.....C.C.A$.%.
0440: 04 10 03 00 03 07 00 01  80 02 07 00 04 80 05 DE  ................
0450: 04 06 08 00 06 0A 00 03  00 00 10 80 14 00 00 07  ................
0460: 00 02 08 00 10 80 03 D8  04 3E 04 10 00 00 CF 04  .........>......
0470: 02 08 00 00 80 80 83 04  03 06 00 27 80 1A 77 09  ...........'..w.
0480: 01 CF 04 02 08 00 01 80  80 96 04 03 06 00 28 80  ..............(.
0490: 1A 77 09 01 CF 04 02 08  00 04 80 80 A9 04 03 06  .w..............
04A0: 00 29 80 1A 77 09 01 CF  04 02 08 00 05 80 80 BC  .)..w...........
04B0: 04 03 06 00 2A 80 1A 77  09 01 CF 04 02 08 00 22  ....*..w......."
04C0: 80 80 CF 04 03 06 00 2B  80 1A 77 09 01 CF 04 0B  .......+..w.....
04D0: 08 00 0B 00 00 01 61 04  0B 07 00 01 49 04 3E 04  ......a.....I.>.
04E0: 10 24 80 E8 04 01 EB 04  01 25 04 40 10 80 11 80  .$.......%.@....
04F0: 01 10 22 80 06 05 17 06  06 17 06 07 17 06 08 17  ..".............
0500: 06 09 17 06 07 00 3E 07  10 00 80 18 05 03 00 00  ......>.........
0510: 04 80 05 03 10 01 20 05  03 00 00 01 80 06 03 10  ...... .........
0520: 02 07 00 00 00 03 E2 06  24 2C 80 00 80 00 80 25  ........$,.....%
0530: 02 00 10 00 80 00 65 05  02 05 17 00 80 00 4D 05  ......e.......M.
0540: 3C 01 10 00 80 01 80 05  05 17 01 62 05 3D 01 10  <..........b.=..
0550: 00 80 01 80 06 05 17 03  03 10 01 80 06 07 00 01  ................
0560: 28 05 01 D7 06 02 00 10  01 80 00 9A 05 02 06 17  (...............
0570: 00 80 00 82 05 3C 01 10  01 80 01 80 05 06 17 01  .....<..........
0580: 97 05 3D 01 10 01 80 01  80 06 06 17 03 03 10 01  ..=.............
0590: 80 06 07 00 01 28 05 01  D7 06 02 00 10 04 80 00  .....(..........
05A0: CF 05 02 07 17 00 80 00  B7 05 3C 01 10 04 80 01  ..........<.....
05B0: 80 05 07 17 01 CC 05 3D  01 10 04 80 01 80 06 07  .......=........
05C0: 17 03 03 10 01 80 06 07  00 01 28 05 01 D7 06 02  ..........(.....
05D0: 00 10 05 80 00 04 06 02  08 17 00 80 00 EC 05 3C  ...............<
05E0: 01 10 05 80 01 80 05 08  17 01 01 06 3D 01 10 05  ............=...
05F0: 80 01 80 06 08 17 03 03  10 01 80 06 07 00 01 28  ...............(
0600: 05 01 D7 06 02 00 10 22  80 00 39 06 02 09 17 00  ......."..9.....
0610: 80 00 21 06 3C 01 10 22  80 01 80 05 09 17 01 36  ..!.<..".......6
0620: 06 3D 01 10 22 80 01 80  06 09 17 03 03 10 01 80  .=.."...........
0630: 06 07 00 01 28 05 01 D7  06 02 00 10 10 80 00 D7  ....(...........
0640: 06 24 2D 80 01 80 00 80  25 02 00 10 00 80 00 C6  .$-.....%.......
0650: 06 45 15 80 F8 FF FF 7F  F8 FF FF 7F 66 64 6F 31  .E..........fdo1
0660: 00 80 55 15 80 F8 FF FF  7F F8 FF FF 7F 66 64 6F  ..U..........fdo
0670: 31 5C 00 2E 80 5C 01 2E  80 52 18 80 F8 FF FF 7F  1\...\...R......
0680: F8 FF FF 7F 73 30 30 34  78 38 00 80 46 00 1C 1B  ....s004x8..F...
0690: 80 45 15 80 F8 FF FF 7F  F8 FF FF 7F 66 64 69 30  .E..........fdi0
06A0: 00 80 55 15 80 F8 FF FF  7F F8 FF FF 7F 66 64 69  ..U..........fdi
06B0: 30 1C 1B 80 1E F0 FF FF  7F 03 03 10 8B 7F 1D 2F  0............../
06C0: 80 23 21 01 D4 06 02 00  10 01 80 00 D4 06 01 28  .#!............(
06D0: 05 01 D4 06 01 D7 06 0B  07 00 03 03 10 04 80 01  ................
06E0: 20 05 43 00 43 01 06 07  00 06 08 00 03 00 00 10   .C.C...........
06F0: 80 02 07 00 10 80 03 90  07 3E 05 10 00 00 87 07  .........>......
0700: 02 07 00 00 80 80 1B 07  03 04 00 0F 00 1A FE 08  ................
0710: 03 01 00 27 80 1A 40 0D  01 87 07 02 07 00 01 80  ...'..@.........
0720: 80 36 07 03 04 00 10 00  1A FE 08 03 01 00 28 80  .6............(.
0730: 1A 40 0D 01 87 07 02 07  00 04 80 80 51 07 03 04  .@..........Q...
0740: 00 11 00 1A FE 08 03 01  00 29 80 1A 40 0D 01 87  .........)..@...
0750: 07 02 07 00 05 80 80 6C  07 03 04 00 12 00 1A FE  .......l........
0760: 08 03 01 00 2A 80 1A 40  0D 01 87 07 02 07 00 22  ....*..@......."
0770: 80 80 87 07 03 04 00 13  00 1A FE 08 03 01 00 2B  ...............+
0780: 80 1A 40 0D 01 87 07 0B  07 00 0B 00 00 01 F1 06  ..@.............
0790: 3E 05 10 0B 80 8E 08 1C  1B 80 27 80 24 C1 0E 01  >.........'.$...
07A0: 03 27 80 25 C1 0E 01 03  27 80 26 C1 0E 01 03 27  .'.%....'.&....'
07B0: 80 27 C1 0E 01 03 1C 30  80 27 80 2B C1 0E 01 02  .'.....0.'.+....
07C0: 27 80 2C C1 0E 01 02 27  80 2D C1 0E 01 02 27 80  '.,....'.-....'.
07D0: 2E C1 0E 01 02 1C 31 80  45 15 80 F8 FF FF 7F F8  ......1.E.......
07E0: FF FF 7F 66 64 6F 31 00  80 55 15 80 F8 FF FF 7F  ...fdo1..U......
07F0: F8 FF FF 7F 66 64 6F 31  5C 00 2E 80 5C 01 2E 80  ....fdo1\...\...
0800: 52 18 80 F8 FF FF 7F F8  FF FF 7F 73 30 30 34 78  R..........s004x
0810: 38 00 80 46 00 1C 1B 80  45 15 80 F8 FF FF 7F F8  8..F....E.......
0820: FF FF 7F 66 64 69 30 00  80 55 15 80 F8 FF FF 7F  ...fdi0..U......
0830: F8 FF FF 7F 66 64 69 30  1C 1B 80 1E F0 FF FF 7F  ....fdi0........
0840: 3E 07 10 00 80 87 08 03  03 10 8B 7F 1D 32 80 23  >............2.#
0850: 3E 07 10 04 80 5A 08 01  84 08 41 01 80 05 80 07  >....Z....A.....
0860: 10 00 00 02 00 00 10 80  00 72 08 1D 33 80 23 01  .........r..3.#.
0870: 7B 08 03 03 10 34 80 1D  35 80 23 03 03 10 34 80  {....4..5.#...4.
0880: 1D 36 80 23 01 8B 08 1D  37 80 23 01 FD 08 1C 38  .6.#....7.#....8
0890: 80 45 15 80 F8 FF FF 7F  F8 FF FF 7F 66 64 6F 31  .E..........fdo1
08A0: 00 80 55 15 80 F8 FF FF  7F F8 FF FF 7F 66 64 6F  ..U..........fdo
08B0: 31 5C 00 2E 80 5C 01 2E  80 52 18 80 F8 FF FF 7F  1\...\...R......
08C0: F8 FF FF 7F 73 30 30 34  78 38 00 80 46 00 1C 1B  ....s004x8..F...
08D0: 80 45 15 80 F8 FF FF 7F  F8 FF FF 7F 66 64 69 30  .E..........fdi0
08E0: 00 80 55 15 80 F8 FF FF  7F F8 FF FF 7F 66 64 69  ..U..........fdi
08F0: 30 1C 1B 80 1E F0 FF FF  7F 1D 39 80 23 1B 02 04  0.........9.#...
0900: 00 00 80 80 16 09 2C 1C  C1 0E 01 1C C1 0E 01 6F  ......,........o
0910: 70 65 32 01 76 09 02 04  00 01 80 80 2E 09 2C 1D  pe2.v.........,.
0920: C1 0E 01 1D C1 0E 01 6F  70 65 32 01 76 09 02 04  .......ope2.v...
0930: 00 04 80 80 46 09 2C 1E  C1 0E 01 1E C1 0E 01 6F  ....F.,........o
0940: 70 65 32 01 76 09 02 04  00 05 80 80 5E 09 2C 1F  pe2.v.......^.,.
0950: C1 0E 01 1F C1 0E 01 6F  70 65 32 01 76 09 02 04  .......ope2.v...
0960: 00 22 80 80 76 09 2C 20  C1 0E 01 20 C1 0E 01 6F  ."..v., ... ...o
0970: 70 65 32 01 76 09 1B 06  09 00 03 01 00 10 80 14  pe2.v...........
0980: 01 00 07 00 02 09 00 10  80 03 78 0B 02 09 00 08  ..........x.....
0990: 00 01 6F 0B 3E 04 10 01  00 6F 0B 03 05 00 0A 00  ..o.>....o......
09A0: 14 05 00 07 00 02 05 00  04 80 00 20 0A 41 3A 80  ........... .A:.
09B0: 25 80 04 10 04 00 3E 07  10 00 80 DB 09 03 05 00  %.....>.........
09C0: 04 80 02 04 00 10 80 00  D8 09 27 80 29 C1 0E 01  ..........'.)...
09D0: 02 27 80 2A C1 0E 01 02  01 E0 09 03 05 00 10 80  .'.*............
09E0: 02 04 00 05 00 00 20 0A  27 80 24 C1 0E 01 02 27  ...... .'.$....'
09F0: 80 25 C1 0E 01 02 27 80  26 C1 0E 01 02 27 80 27  .%....'.&....'.'
0A00: C1 0E 01 02 27 80 28 C1  0E 01 02 27 80 23 C1 0E  ....'.(....'.#..
0A10: 01 02 27 80 21 C1 0E 01  03 27 80 22 C1 0E 01 03  ..'.!....'."....
0A20: 02 09 00 08 00 03 86 0A  03 00 17 06 00 02 07 00  ................
0A30: 01 80 00 42 0A 03 01 17  3B 80 03 02 17 1F 80 01  ...B....;.......
0A40: 4C 0A 03 01 17 3C 80 03  02 17 3D 80 1A 79 0B 03  L....<....=..y..
0A50: 02 00 08 00 08 02 00 09  00 03 00 17 3E 80 14 00  ............>...
0A60: 17 02 00 07 00 17 06 00  1A 79 0B 02 07 00 01 80  .........y......
0A70: 00 7B 0A 03 01 17 3C 80  01 80 0A 03 02 17 1F 80  .{....<.........
0A80: 1A 79 0B 1A 34 0C 02 09  00 08 00 02 EC 0A 03 00  .y..4...........
0A90: 17 06 00 02 07 00 01 80  00 A8 0A 03 01 17 3F 80  ..............?.
0AA0: 03 02 17 1F 80 01 B2 0A  03 01 17 3C 80 03 02 17  ...........<....
0AB0: 40 80 1A 79 0B 03 02 00  09 00 08 02 00 08 00 03  @..y............
0AC0: 00 17 1C 80 14 00 17 02  00 07 00 17 06 00 1A 79  ...............y
0AD0: 0B 02 07 00 01 80 00 E1  0A 03 01 17 3C 80 01 E6  ............<...
0AE0: 0A 03 02 17 1F 80 1A 79  0B 1A 34 0C 02 0A 00 01  .......y..4.....
0AF0: 80 00 6C 0B 02 08 00 00  80 80 0C 0B 03 04 00 0F  ..l.............
0B00: 00 1A EF 0C 03 0F 00 04  00 01 6C 0B 02 08 00 01  ..........l.....
0B10: 80 80 24 0B 03 04 00 10  00 1A EF 0C 03 10 00 04  ..$.............
0B20: 00 01 6C 0B 02 08 00 04  80 80 3C 0B 03 04 00 11  ..l.......<.....
0B30: 00 1A EF 0C 03 11 00 04  00 01 6C 0B 02 08 00 05  ..........l.....
0B40: 80 80 54 0B 03 04 00 12  00 1A EF 0C 03 12 00 04  ..T.............
0B50: 00 01 6C 0B 02 08 00 22  80 80 6C 0B 03 04 00 13  ..l...."..l.....
0B60: 00 1A EF 0C 03 13 00 04  00 01 6C 0B 05 0A 00 0B  ..........l.....
0B70: 09 00 0B 01 00 01 84 09  1B 02 08 00 00 80 80 8C  ................
0B80: 0B 03 04 00 0F 00 1A D9  0B 01 D8 0B 02 08 00 01  ................
0B90: 80 80 9F 0B 03 04 00 10  00 1A D9 0B 01 D8 0B 02  ................
0BA0: 08 00 04 80 80 B2 0B 03  04 00 11 00 1A D9 0B 01  ................
0BB0: D8 0B 02 08 00 05 80 80  C5 0B 03 04 00 12 00 1A  ................
0BC0: D9 0B 01 D8 0B 02 08 00  22 80 80 D8 0B 03 04 00  ........".......
0BD0: 13 00 1A D9 0B 01 D8 0B  1B 02 04 00 00 80 80 EB  ................
0BE0: 0B 29 80 1C C1 0E 01 02  01 33 0C 02 04 00 01 80  .).......3......
0BF0: 80 FD 0B 29 80 1D C1 0E  01 02 01 33 0C 02 04 00  ...).......3....
0C00: 04 80 80 0F 0C 29 80 1E  C1 0E 01 02 01 33 0C 02  .....).......3..
0C10: 04 00 05 80 80 21 0C 29  80 1F C1 0E 01 02 01 33  .....!.).......3
0C20: 0C 02 04 00 22 80 80 33  0C 29 80 20 C1 0E 01 02  ...."..3.). ....
0C30: 01 33 0C 1B 02 08 00 00  80 80 47 0C 03 04 00 0F  .3........G.....
0C40: 00 1A 94 0C 01 93 0C 02  08 00 01 80 80 5A 0C 03  .............Z..
0C50: 04 00 10 00 1A 94 0C 01  93 0C 02 08 00 04 80 80  ................
0C60: 6D 0C 03 04 00 11 00 1A  94 0C 01 93 0C 02 08 00  m...............
0C70: 05 80 80 80 0C 03 04 00  12 00 1A 94 0C 01 93 0C  ................
0C80: 02 08 00 22 80 80 93 0C  03 04 00 13 00 1A 94 0C  ..."............
0C90: 01 93 0C 1B 02 04 00 00  80 80 A6 0C 4B 1C C1 0E  ............K...
0CA0: 01 20 80 01 EE 0C 02 04  00 01 80 80 B8 0C 4B 1D  . ............K.
0CB0: C1 0E 01 20 80 01 EE 0C  02 04 00 04 80 80 CA 0C  ... ............
0CC0: 4B 1E C1 0E 01 20 80 01  EE 0C 02 04 00 05 80 80  K.... ..........
0CD0: DC 0C 4B 1F C1 0E 01 20  80 01 EE 0C 02 04 00 22  ..K.... ......."
0CE0: 80 80 EE 0C 4B 20 C1 0E  01 20 80 01 EE 0C 1B 02  ....K ... ......
0CF0: 09 00 00 80 80 FF 0C 19  0F 00 04 00 01 3F 0D 02  .............?..
0D00: 09 00 01 80 80 0F 0D 19  10 00 04 00 01 3F 0D 02  .............?..
0D10: 09 00 04 80 80 1F 0D 19  11 00 04 00 01 3F 0D 02  .............?..
0D20: 09 00 05 80 80 2F 0D 19  12 00 04 00 01 3F 0D 02  ...../.......?..
0D30: 09 00 22 80 80 3F 0D 19  13 00 04 00 01 3F 0D 1B  .."..?.......?..
0D40: 3E 05 10 07 00 93 0D 02  08 00 00 80 00 74 0D BA  >............t..
0D50: 21 C1 0E 01 01 00 1E 80  1F 80 20 80 4E 00 21 C1  !......... .N.!.
0D60: 0E 01 05 08 00 03 03 17  01 00 27 80 21 C1 0E 01  ..........'.!...
0D70: 02 01 93 0D BA 22 C1 0E  01 01 00 1E 80 1F 80 20  ....."......... 
0D80: 80 4E 00 22 C1 0E 01 03  04 17 01 00 27 80 22 C1  .N."........'.".
0D90: 0E 01 02 1B                                       ....            
```

#### Opcodes

```
  0: 0x0001 [0x03] ExtData[1]->WorkLocal[14] = Work_Zone[6]
  1: 0x0006 [0x3E] IF !(Work_Zone[2] bit 0*) GOTO 0x0013
  2: 0x000D [0x05] ExtData[1]->WorkLocal[12] = 1
  3: 0x0010 [0x01] GOTO 0x0016
  4: 0x0013 [0x06] ExtData[1]->WorkLocal[12] = 0

SUBROUTINE_0016:
  5: 0x0016 [0x3E] IF !(Work_Zone[2] bit 1*) GOTO 0x0023
  6: 0x001D [0x05] ExtData[1]->WorkLocal[13] = 1
  7: 0x0020 [0x01] GOTO 0x0026
  8: 0x0023 [0x06] ExtData[1]->WorkLocal[13] = 0

SUBROUTINE_0026:
  9: 0x0026 [0x1E] EventEntity looks at LocalPlayer and starts talking
 10: 0x002B [0x1D] PRINT_EVENT_MESSAGE(message_id=13222*)
    → "Merry Starlight! Come one, come all, and try your hand at the chocobo treasure chests!"
 11: 0x002E [0x23] WAIT_FOR_DIALOG_INTERACTION
 12: 0x002F [0x02] IF !(ExtData[1]->WorkLocal[12] == 1*) GOTO 0x0040
 13: 0x0037 [0x03] Work_Zone[3] = (LocalPlayer->Render.Flags01 >> 25) & 1
 14: 0x003C [0x1D] PRINT_EVENT_MESSAGE(message_id=13223*)
    → "Lately it's been really frigid outside, but with those hands warm and snug inside those fuzzy mittens, I'll bet you'll be seeking a more challenging level of competition!"
 15: 0x003F [0x23] WAIT_FOR_DIALOG_INTERACTION

SUBROUTINE_0040:
 16: 0x0040 [0x02] IF !(ExtData[1]->WorkLocal[12] == 0*) GOTO 0x0055
 17: 0x0048 [0x3C] SET_BIT_FLAG_CONDITIONAL(target_work_offset=ExtData[1]->WorkLocal[11], bit_index_work_offset=2*, condition_work_offset=1*)
 18: 0x004F [0x06] Work_Zone[2] = 0
 19: 0x0052 [0x01] GOTO 0x005F
 20: 0x0055 [0x3D] CLEAR_BIT_FLAG_CONDITIONAL(target_work_offset=ExtData[1]->WorkLocal[11], bit_index_work_offset=2*, condition_work_offset=1*)
 21: 0x005C [0x05] Work_Zone[2] = 1

SUBROUTINE_005F:
 22: 0x005F [0x02] IF !(ExtData[1]->WorkLocal[13] == 0*) GOTO 0x0071
 23: 0x0067 [0x3C] SET_BIT_FLAG_CONDITIONAL(target_work_offset=ExtData[1]->WorkLocal[11], bit_index_work_offset=3*, condition_work_offset=1*)
 24: 0x006E [0x01] GOTO 0x0078
 25: 0x0071 [0x3D] CLEAR_BIT_FLAG_CONDITIONAL(target_work_offset=ExtData[1]->WorkLocal[11], bit_index_work_offset=3*, condition_work_offset=1*)

SUBROUTINE_0078:
 26: 0x0078 [0x24] CREATE_DIALOG(message_id=13224*, default_option=0*, option_flags=ExtData[1]->WorkLocal[11])
    → "What's your pleasure? [Hear an explanation of the game./[Play/Play the simple version]./[/Play the advanced version.]/I lost my synthesis materials./Not interested in playing, thank you.]"
 27: 0x007F [0x25] WAIT_DIALOG_SELECT()
 28: 0x0080 [0x02] IF !(Work_Zone[0] == 0*) GOTO 0x00A6
 29: 0x0088 [0x1D] PRINT_EVENT_MESSAGE(message_id=13225*)
    → "The goal of this parlor game is to guess which treasure chests contain the baby chocobos."
 30: 0x008B [0x23] WAIT_FOR_DIALOG_INTERACTION
 31: 0x008C [0x1D] PRINT_EVENT_MESSAGE(message_id=13226*)
    → "I'll first show you which one has our little feathered friend."
 32: 0x008F [0x23] WAIT_FOR_DIALOG_INTERACTION
 33: 0x0090 [0x1D] PRINT_EVENT_MESSAGE(message_id=13227*)
    → "Then it'll be your chance to guess after I give the boxes a quick shuffle. If you're right, you win! If not, you lose."
 34: 0x0093 [0x23] WAIT_FOR_DIALOG_INTERACTION
 35: 0x0094 [0x02] IF !(ExtData[1]->WorkLocal[12] == 1*) GOTO 0x00A0
 36: 0x009C [0x1D] PRINT_EVENT_MESSAGE(message_id=13228*)
    → "In the advanced version, there are two chocobos instead of one for twice the feathery fun!"
 37: 0x009F [0x23] WAIT_FOR_DIALOG_INTERACTION
 38: 0x00A0 [0x01] GOTO 0x0040

SUBROUTINE_0114:
 39: 0x0114 [0x01] GOTO 0x0117

SUBROUTINE_0117:
 40: 0x0117 [0x21] END_EVENT
 41: 0x0118 [0x00] END_REQSTACK()

SUBROUTINE_0119:
 42: 0x0119 [0x03] Work_Zone[3] = 10*
 43: 0x011E [0x1D] PRINT_EVENT_MESSAGE(message_id=13229*)
    → "Each game costs $1 gil. Whaddya say?"
 44: 0x0121 [0x23] WAIT_FOR_DIALOG_INTERACTION
 45: 0x0122 [0x40] SET_BIT_WORK_RANGE(start_bit=5*, end_bit=9*, target=Work_Zone[1], source=1*)
 46: 0x012B [0x43] SEND_EVENT_UPDATE: Send pending tag to server (packet 0x005B)
 47: 0x012D [0x43] SEND_EVENT_UPDATE: Check pending flag (skip if not pending)
 48: 0x012F [0x24] CREATE_DIALOG(message_id=13230*, default_option=1*, option_flags=0*)
    → "Give it a go? (You currently have $1 gil.) [Let's do this!/Not right now.]"
 49: 0x0136 [0x25] WAIT_DIALOG_SELECT()
 50: 0x0137 [0x02] IF !(Work_Zone[0] == 1*) GOTO 0x0145
 51: 0x013F [0x01] GOTO 0x0040

SUBROUTINE_0145:
 52: 0x0145 [0x42] SET_CLI_EVENT_CANCEL_DATA()
 53: 0x0146 [0x40] SET_BIT_WORK_RANGE(start_bit=5*, end_bit=9*, target=Work_Zone[1], source=2*)
 54: 0x014F [0x43] SEND_EVENT_UPDATE: Send pending tag to server (packet 0x005B)
 55: 0x0151 [0x43] SEND_EVENT_UPDATE: Check pending flag (skip if not pending)
 56: 0x0153 [0x02] IF !(Work_Zone[3] == 1*) GOTO 0x0162
 57: 0x015B [0x1D] PRINT_EVENT_MESSAGE(message_id=13231*)
    → "Perfect!"
 58: 0x015E [0x23] WAIT_FOR_DIALOG_INTERACTION
 59: 0x015F [0x1A] CALL_SUBROUTINE(address=0x0163)
 60: 0x0162 [0x1B] RETURN

SUBROUTINE_0163:
 61: 0x0163 [0x45] LOAD_SCHEDULED_TASK: Load scheduler "fdo1" with entities [EventEntity, EventEntity], work=[200*, 0*]
 62: 0x0174 [0x55] WAIT_LOAD_SCHEDULER: Wait for scheduler "fdo1" with entities [EventEntity, EventEntity], work=200*
 63: 0x0183 [0x46] CAMERA_CONTROL: Disable user control
 64: 0x0185 [0x38] SET_CLIENT_EVENT_MODE(mode=27*)
 65: 0x0188 [0x77] SET_EVENT_TIME_WEATHER(hour=12*, weather=0*)
 66: 0x018D [0x2F] Unnamed NPC (ID: 17744156/0x010EC11C)->Render.Flags0 &= ~0x80000 // Bit 19
 67: 0x0193 [0x4E] SET_ENTITY_HIDE_FLAG: Show Unnamed NPC (ID: 17744156/0x010EC11C)
 68: 0x0199 [0x2F] Unnamed NPC (ID: 17744157/0x010EC11D)->Render.Flags0 &= ~0x80000 // Bit 19
 69: 0x019F [0x4E] SET_ENTITY_HIDE_FLAG: Show Unnamed NPC (ID: 17744157/0x010EC11D)
 70: 0x01A5 [0x2F] Unnamed NPC (ID: 17744158/0x010EC11E)->Render.Flags0 &= ~0x80000 // Bit 19
 71: 0x01AB [0x4E] SET_ENTITY_HIDE_FLAG: Show Unnamed NPC (ID: 17744158/0x010EC11E)
 72: 0x01B1 [0x2F] Unnamed NPC (ID: 17744159/0x010EC11F)->Render.Flags0 &= ~0x80000 // Bit 19
 73: 0x01B7 [0x4E] SET_ENTITY_HIDE_FLAG: Show Unnamed NPC (ID: 17744159/0x010EC11F)
 74: 0x01BD [0x2F] Unnamed NPC (ID: 17744160/0x010EC120)->Render.Flags0 &= ~0x80000 // Bit 19
 75: 0x01C3 [0x4E] SET_ENTITY_HIDE_FLAG: Show Unnamed NPC (ID: 17744160/0x010EC120)
 76: 0x01C9 [0x03] Work_Zone[6] = ExtData[1]->WorkLocal[14]
 77: 0x01CE [0x29] REQ_SET_WAIT(priority=0x80, entity_id=Unnamed NPC (ID: 17744157/0x010EC11D), tag_num=0x03)
 78: 0x01D5 [0x29] REQ_SET_WAIT(priority=0x80, entity_id=Unnamed NPC (ID: 17744158/0x010EC11E), tag_num=0x03)
 79: 0x01DC [0x29] REQ_SET_WAIT(priority=0x80, entity_id=Unnamed NPC (ID: 17744159/0x010EC11F), tag_num=0x03)
 80: 0x01E3 [0x29] REQ_SET_WAIT(priority=0x80, entity_id=Unnamed NPC (ID: 17744160/0x010EC120), tag_num=0x03)
 81: 0x01EA [0x2F] Unnamed NPC (ID: 17744164/0x010EC124)->Render.Flags0 &= ~0x80000 // Bit 19
 82: 0x01F0 [0x4E] SET_ENTITY_HIDE_FLAG: Show Unnamed NPC (ID: 17744164/0x010EC124)
 83: 0x01F6 [0x2F] Unnamed NPC (ID: 17744165/0x010EC125)->Render.Flags0 &= ~0x80000 // Bit 19
 84: 0x01FC [0x4E] SET_ENTITY_HIDE_FLAG: Show Unnamed NPC (ID: 17744165/0x010EC125)
 85: 0x0202 [0x2F] Unnamed NPC (ID: 17744166/0x010EC126)->Render.Flags0 &= ~0x80000 // Bit 19
 86: 0x0208 [0x4E] SET_ENTITY_HIDE_FLAG: Show Unnamed NPC (ID: 17744166/0x010EC126)
 87: 0x020E [0x2F] Unnamed NPC (ID: 17744167/0x010EC127)->Render.Flags0 &= ~0x80000 // Bit 19
 88: 0x0214 [0x4E] SET_ENTITY_HIDE_FLAG: Show Unnamed NPC (ID: 17744167/0x010EC127)
 89: 0x021A [0x2F] Unnamed NPC (ID: 17744168/0x010EC128)->Render.Flags0 &= ~0x80000 // Bit 19
 90: 0x0220 [0x4E] SET_ENTITY_HIDE_FLAG: Show Unnamed NPC (ID: 17744168/0x010EC128)
 91: 0x0226 [0x2F] Unnamed NPC (ID: 17744163/0x010EC123)->Render.Flags0 &= ~0x80000 // Bit 19
 92: 0x022C [0x4E] SET_ENTITY_HIDE_FLAG: Show Unnamed NPC (ID: 17744163/0x010EC123)
 93: 0x0232 [0x2F] Unnamed NPC (ID: 17744169/0x010EC129)->Render.Flags0 &= ~0x80000 // Bit 19
 94: 0x0238 [0x4E] SET_ENTITY_HIDE_FLAG: Show Unnamed NPC (ID: 17744169/0x010EC129)
 95: 0x023E [0x2F] Unnamed NPC (ID: 17744170/0x010EC12A)->Render.Flags0 &= ~0x80000 // Bit 19
 96: 0x0244 [0x4E] SET_ENTITY_HIDE_FLAG: Show Unnamed NPC (ID: 17744170/0x010EC12A)
 97: 0x024A [0x2F] Unnamed NPC (ID: 17744171/0x010EC12B)->Render.Flags0 &= ~0x80000 // Bit 19
 98: 0x0250 [0x4E] SET_ENTITY_HIDE_FLAG: Show Unnamed NPC (ID: 17744171/0x010EC12B)
 99: 0x0256 [0x2F] Unnamed NPC (ID: 17744172/0x010EC12C)->Render.Flags0 &= ~0x80000 // Bit 19
100: 0x025C [0x4E] SET_ENTITY_HIDE_FLAG: Show Unnamed NPC (ID: 17744172/0x010EC12C)
101: 0x0262 [0x2F] Unnamed NPC (ID: 17744173/0x010EC12D)->Render.Flags0 &= ~0x80000 // Bit 19
102: 0x0268 [0x4E] SET_ENTITY_HIDE_FLAG: Show Unnamed NPC (ID: 17744173/0x010EC12D)
103: 0x026E [0x2F] Unnamed NPC (ID: 17744174/0x010EC12E)->Render.Flags0 &= ~0x80000 // Bit 19
104: 0x0274 [0x4E] SET_ENTITY_HIDE_FLAG: Show Unnamed NPC (ID: 17744174/0x010EC12E)
105: 0x027A [0x80] LOAD_WAIT(entity=Unnamed NPC (ID: 17744156/0x010EC11C))
106: 0x027F [0x80] LOAD_WAIT(entity=Unnamed NPC (ID: 17744157/0x010EC11D))
107: 0x0284 [0x80] LOAD_WAIT(entity=Unnamed NPC (ID: 17744158/0x010EC11E))
108: 0x0289 [0x80] LOAD_WAIT(entity=Unnamed NPC (ID: 17744159/0x010EC11F))
109: 0x028E [0x80] LOAD_WAIT(entity=Unnamed NPC (ID: 17744160/0x010EC120))
110: 0x0293 [0x2F] Unnamed NPC (ID: 17744161/0x010EC121)->Render.Flags0 &= ~0x80000 // Bit 19
111: 0x0299 [0x80] LOAD_WAIT(entity=Unnamed NPC (ID: 17744161/0x010EC121))
112: 0x029E [0x2F] Unnamed NPC (ID: 17744162/0x010EC122)->Render.Flags0 &= ~0x80000 // Bit 19
113: 0x02A4 [0x80] LOAD_WAIT(entity=Unnamed NPC (ID: 17744162/0x010EC122))
114: 0x02A9 [0x45] LOAD_SCHEDULED_TASK: Load scheduler "s004" with entities [EventEntity, EventEntity], work=[102*, 0*]
115: 0x02BA [0x1C] WAIT(30* ticks)
116: 0x02BD [0x5C] MUSIC_CONTROL: Set Idle (Day) music to song 136*
117: 0x02C1 [0x5C] MUSIC_CONTROL: Set Idle (Night) music to song 136*
118: 0x02C5 [0x45] LOAD_SCHEDULED_TASK: Load scheduler "fdi1" with entities [EventEntity, EventEntity], work=[200*, 0*]
119: 0x02D6 [0x1C] WAIT(60* ticks)
120: 0x02D9 [0x06] ExtData[1]->WorkLocal[0] = 0

SUBROUTINE_02DC:
121: 0x02DC [0x02] IF !(ExtData[1]->WorkLocal[0] >= 5*) GOTO 0x02F9
122: 0x02E4 [0x3E] IF !(Work_Zone[4] bit ExtData[1]->WorkLocal[0]) GOTO 0x02F3
123: 0x02EB [0x03] ExtData[1]->WorkLocal[4] = ExtData[1]->WorkLocal[0]
124: 0x02F0 [0x1A] CALL_SUBROUTINE(address=0x08FE)
125: 0x02F3 [0x0B] ExtData[1]->WorkLocal[0]++
126: 0x02F6 [0x01] GOTO 0x02DC
127: 0x02F9 [0x06] ExtData[1]->WorkLocal[0] = 0
128: 0x02FC [0x06] ExtData[1]->WorkLocal[7] = 0

SUBROUTINE_02FF:
129: 0x02FF [0x02] IF !(ExtData[1]->WorkLocal[0] >= 5*) GOTO 0x0357
130: 0x0307 [0x3E] IF !(Work_Zone[4] bit ExtData[1]->WorkLocal[0]) GOTO 0x0351
131: 0x030E [0x03] ExtData[1]->WorkLocal[1] = ExtData[1]->WorkLocal[0]
132: 0x0313 [0x14] ExtData[1]->WorkLocal[1] *= 1500*
133: 0x0318 [0x08] ExtData[1]->WorkLocal[1] -= 90000*
134: 0x031D [0x02] IF !(ExtData[1]->WorkLocal[7] == 0*) GOTO 0x033E
135: 0x0325 [0xBA] SET_ENTITY_POSITION(entity_id=Unnamed NPC (ID: 17744161/0x010EC121), pos_x=ExtData[1]->WorkLocal[1], pos_z=51.050*, pos_y=4.900*, direction=89.9°*)
136: 0x0332 [0x4E] SET_ENTITY_HIDE_FLAG: Show Unnamed NPC (ID: 17744161/0x010EC121)
137: 0x0338 [0x05] ExtData[1]->WorkLocal[7] = 1
138: 0x033B [0x01] GOTO 0x0351
139: 0x033E [0xBA] SET_ENTITY_POSITION(entity_id=Unnamed NPC (ID: 17744162/0x010EC122), pos_x=ExtData[1]->WorkLocal[1], pos_z=51.050*, pos_y=4.900*, direction=89.9°*)
140: 0x034B [0x4E] SET_ENTITY_HIDE_FLAG: Show Unnamed NPC (ID: 17744162/0x010EC122)

SUBROUTINE_0351:
141: 0x0351 [0x0B] ExtData[1]->WorkLocal[0]++
142: 0x0354 [0x01] GOTO 0x02FF
143: 0x0357 [0x1C] WAIT(180* ticks)
144: 0x035A [0x06] ExtData[1]->WorkLocal[0] = 0

SUBROUTINE_035D:
145: 0x035D [0x02] IF !(ExtData[1]->WorkLocal[0] >= 5*) GOTO 0x03EA
146: 0x0365 [0x3E] IF !(Work_Zone[4] bit ExtData[1]->WorkLocal[0]) GOTO 0x03E4
147: 0x036C [0x02] IF !(ExtData[1]->WorkLocal[0] == 0*) GOTO 0x0384
148: 0x0374 [0x2C] CREATE_SCHEDULER_TASK: Create scheduler "clos" with entities [Unnamed NPC (ID: 17744156/0x010EC11C), Unnamed NPC (ID: 17744156/0x010EC11C)]
149: 0x0381 [0x01] GOTO 0x03E4
150: 0x0384 [0x02] IF !(ExtData[1]->WorkLocal[0] == 1*) GOTO 0x039C
151: 0x038C [0x2C] CREATE_SCHEDULER_TASK: Create scheduler "clos" with entities [Unnamed NPC (ID: 17744157/0x010EC11D), Unnamed NPC (ID: 17744157/0x010EC11D)]
152: 0x0399 [0x01] GOTO 0x03E4
153: 0x039C [0x02] IF !(ExtData[1]->WorkLocal[0] == 2*) GOTO 0x03B4
154: 0x03A4 [0x2C] CREATE_SCHEDULER_TASK: Create scheduler "clos" with entities [Unnamed NPC (ID: 17744158/0x010EC11E), Unnamed NPC (ID: 17744158/0x010EC11E)]
155: 0x03B1 [0x01] GOTO 0x03E4
156: 0x03B4 [0x02] IF !(ExtData[1]->WorkLocal[0] == 3*) GOTO 0x03CC
157: 0x03BC [0x2C] CREATE_SCHEDULER_TASK: Create scheduler "clos" with entities [Unnamed NPC (ID: 17744159/0x010EC11F), Unnamed NPC (ID: 17744159/0x010EC11F)]
158: 0x03C9 [0x01] GOTO 0x03E4
159: 0x03CC [0x02] IF !(ExtData[1]->WorkLocal[0] == 4*) GOTO 0x03E4
160: 0x03D4 [0x2C] CREATE_SCHEDULER_TASK: Create scheduler "clos" with entities [Unnamed NPC (ID: 17744160/0x010EC120), Unnamed NPC (ID: 17744160/0x010EC120)]
161: 0x03E1 [0x01] GOTO 0x03E4

SUBROUTINE_03E4:
162: 0x03E4 [0x0B] ExtData[1]->WorkLocal[0]++
163: 0x03E7 [0x01] GOTO 0x035D
164: 0x03EA [0x1C] WAIT(45* ticks)
165: 0x03ED [0x4E] SET_ENTITY_HIDE_FLAG: Hide Unnamed NPC (ID: 17744161/0x010EC121)
166: 0x03F3 [0x3E] IF !(Work_Zone[7] bit 0*) GOTO 0x0400
167: 0x03FA [0x4E] SET_ENTITY_HIDE_FLAG: Hide Unnamed NPC (ID: 17744162/0x010EC122)
168: 0x0400 [0x03] ExtData[1]->WorkLocal[15] = 0*
169: 0x0405 [0x03] ExtData[1]->WorkLocal[16] = 1*
170: 0x040A [0x03] ExtData[1]->WorkLocal[17] = 2*
171: 0x040F [0x03] ExtData[1]->WorkLocal[18] = 3*
172: 0x0414 [0x03] ExtData[1]->WorkLocal[19] = 4*
173: 0x0419 [0x40] SET_BIT_WORK_RANGE(start_bit=15*, end_bit=19*, target=Work_Zone[4], source=0*)
174: 0x0422 [0x06] ExtData[1]->WorkLocal[3] = 0

SUBROUTINE_0425:
175: 0x0425 [0x40] SET_BIT_WORK_RANGE(start_bit=5*, end_bit=9*, target=Work_Zone[1], source=3*)
176: 0x042E [0x40] SET_BIT_WORK_RANGE(start_bit=11*, end_bit=15*, target=Work_Zone[1], source=ExtData[1]->WorkLocal[3])
177: 0x0437 [0x43] SEND_EVENT_UPDATE: Send pending tag to server (packet 0x005B)
178: 0x0439 [0x43] SEND_EVENT_UPDATE: Check pending flag (skip if not pending)
179: 0x043B [0x41] ExtData[1]->WorkLocal[3] = Work_Zone[4] (bits 15*-19*)
180: 0x0444 [0x03] ExtData[1]->WorkLocal[7] = 1*

SUBROUTINE_0449:
181: 0x0449 [0x02] IF !(ExtData[1]->WorkLocal[7] > 2*) GOTO 0x04DE
182: 0x0451 [0x06] ExtData[1]->WorkLocal[8] = 0
183: 0x0454 [0x06] ExtData[1]->WorkLocal[10] = 0
184: 0x0457 [0x03] ExtData[1]->WorkLocal[0] = 5*
185: 0x045C [0x14] ExtData[1]->WorkLocal[0] *= ExtData[1]->WorkLocal[7]

SUBROUTINE_0461:
186: 0x0461 [0x02] IF !(ExtData[1]->WorkLocal[8] >= 5*) GOTO 0x04D8
187: 0x0469 [0x3E] IF !(Work_Zone[4] bit ExtData[1]->WorkLocal[0]) GOTO 0x04CF
188: 0x0470 [0x02] IF !(ExtData[1]->WorkLocal[8] == 0*) GOTO 0x0483
189: 0x0478 [0x03] ExtData[1]->WorkLocal[6] = 4294877296*
190: 0x047D [0x1A] CALL_SUBROUTINE(address=0x0977)
191: 0x0480 [0x01] GOTO 0x04CF
192: 0x0483 [0x02] IF !(ExtData[1]->WorkLocal[8] == 1*) GOTO 0x0496
193: 0x048B [0x03] ExtData[1]->WorkLocal[6] = 4294878796*
194: 0x0490 [0x1A] CALL_SUBROUTINE(address=0x0977)
195: 0x0493 [0x01] GOTO 0x04CF
196: 0x0496 [0x02] IF !(ExtData[1]->WorkLocal[8] == 2*) GOTO 0x04A9
197: 0x049E [0x03] ExtData[1]->WorkLocal[6] = 4294880296*
198: 0x04A3 [0x1A] CALL_SUBROUTINE(address=0x0977)
199: 0x04A6 [0x01] GOTO 0x04CF
200: 0x04A9 [0x02] IF !(ExtData[1]->WorkLocal[8] == 3*) GOTO 0x04BC
201: 0x04B1 [0x03] ExtData[1]->WorkLocal[6] = 4294881796*
202: 0x04B6 [0x1A] CALL_SUBROUTINE(address=0x0977)
203: 0x04B9 [0x01] GOTO 0x04CF
204: 0x04BC [0x02] IF !(ExtData[1]->WorkLocal[8] == 4*) GOTO 0x04CF
205: 0x04C4 [0x03] ExtData[1]->WorkLocal[6] = 4294883296*
206: 0x04C9 [0x1A] CALL_SUBROUTINE(address=0x0977)
207: 0x04CC [0x01] GOTO 0x04CF

SUBROUTINE_04CF:
208: 0x04CF [0x0B] ExtData[1]->WorkLocal[8]++
209: 0x04D2 [0x0B] ExtData[1]->WorkLocal[0]++
210: 0x04D5 [0x01] GOTO 0x0461
211: 0x04D8 [0x0B] ExtData[1]->WorkLocal[7]++
212: 0x04DB [0x01] GOTO 0x0449
213: 0x04DE [0x3E] IF !(Work_Zone[4] bit 15*) GOTO 0x04E8
214: 0x04E5 [0x01] GOTO 0x04EB
215: 0x04E8 [0x01] GOTO 0x0425

SUBROUTINE_04EB:
216: 0x04EB [0x40] SET_BIT_WORK_RANGE(start_bit=5*, end_bit=9*, target=Work_Zone[1], source=4*)
217: 0x04F4 [0x06] Work_Zone_1700[5] = 0
218: 0x04F7 [0x06] Work_Zone_1700[6] = 0
219: 0x04FA [0x06] Work_Zone_1700[7] = 0
220: 0x04FD [0x06] Work_Zone_1700[8] = 0
221: 0x0500 [0x06] Work_Zone_1700[9] = 0
222: 0x0503 [0x06] ExtData[1]->WorkLocal[7] = 0
223: 0x0506 [0x3E] IF !(Work_Zone[7] bit 0*) GOTO 0x0518
224: 0x050D [0x03] ExtData[1]->WorkLocal[0] = 2*
225: 0x0512 [0x05] Work_Zone[3] = 1
226: 0x0515 [0x01] GOTO 0x0520
227: 0x0518 [0x03] ExtData[1]->WorkLocal[0] = 1*
228: 0x051D [0x06] Work_Zone[3] = 0

SUBROUTINE_0520:
229: 0x0520 [0x02] IF !(ExtData[1]->WorkLocal[7] >= ExtData[1]->WorkLocal[0]) GOTO 0x06E2

SUBROUTINE_0528:
230: 0x0528 [0x24] CREATE_DIALOG(message_id=13234*, default_option=0*, option_flags=0*)
    → "So, where do you think it's hiding? [/(first)/(second)] [The far left. [/(selected)]/Second from the left. [/(selected)]/Third from the left. [/(selected)]/Fourth from the left. [/(selected)]/Fifth from the left. [/(selected)]/Stop playing.]"
231: 0x052F [0x25] WAIT_DIALOG_SELECT()
232: 0x0530 [0x02] IF !(Work_Zone[0] == 0*) GOTO 0x0565
233: 0x0538 [0x02] IF !(Work_Zone_1700[5] == 0*) GOTO 0x054D
234: 0x0540 [0x3C] SET_BIT_FLAG_CONDITIONAL(target_work_offset=Work_Zone[1], bit_index_work_offset=0*, condition_work_offset=1*)
235: 0x0547 [0x05] Work_Zone_1700[5] = 1
236: 0x054A [0x01] GOTO 0x0562
237: 0x054D [0x3D] CLEAR_BIT_FLAG_CONDITIONAL(target_work_offset=Work_Zone[1], bit_index_work_offset=0*, condition_work_offset=1*)
238: 0x0554 [0x06] Work_Zone_1700[5] = 0
239: 0x0557 [0x03] Work_Zone[3] = 1*
240: 0x055C [0x06] ExtData[1]->WorkLocal[7] = 0
241: 0x055F [0x01] GOTO 0x0528

SUBROUTINE_0562:
242: 0x0562 [0x01] GOTO 0x06D7
243: 0x0565 [0x02] IF !(Work_Zone[0] == 1*) GOTO 0x059A
244: 0x056D [0x02] IF !(Work_Zone_1700[6] == 0*) GOTO 0x0582
245: 0x0575 [0x3C] SET_BIT_FLAG_CONDITIONAL(target_work_offset=Work_Zone[1], bit_index_work_offset=1*, condition_work_offset=1*)
246: 0x057C [0x05] Work_Zone_1700[6] = 1
247: 0x057F [0x01] GOTO 0x0597
248: 0x0582 [0x3D] CLEAR_BIT_FLAG_CONDITIONAL(target_work_offset=Work_Zone[1], bit_index_work_offset=1*, condition_work_offset=1*)
249: 0x0589 [0x06] Work_Zone_1700[6] = 0
250: 0x058C [0x03] Work_Zone[3] = 1*
251: 0x0591 [0x06] ExtData[1]->WorkLocal[7] = 0
252: 0x0594 [0x01] GOTO 0x0528

SUBROUTINE_0597:
253: 0x0597 [0x01] GOTO 0x06D7
254: 0x059A [0x02] IF !(Work_Zone[0] == 2*) GOTO 0x05CF
255: 0x05A2 [0x02] IF !(Work_Zone_1700[7] == 0*) GOTO 0x05B7
256: 0x05AA [0x3C] SET_BIT_FLAG_CONDITIONAL(target_work_offset=Work_Zone[1], bit_index_work_offset=2*, condition_work_offset=1*)
257: 0x05B1 [0x05] Work_Zone_1700[7] = 1
258: 0x05B4 [0x01] GOTO 0x05CC
259: 0x05B7 [0x3D] CLEAR_BIT_FLAG_CONDITIONAL(target_work_offset=Work_Zone[1], bit_index_work_offset=2*, condition_work_offset=1*)
260: 0x05BE [0x06] Work_Zone_1700[7] = 0
261: 0x05C1 [0x03] Work_Zone[3] = 1*
262: 0x05C6 [0x06] ExtData[1]->WorkLocal[7] = 0
263: 0x05C9 [0x01] GOTO 0x0528

SUBROUTINE_05CC:
264: 0x05CC [0x01] GOTO 0x06D7
265: 0x05CF [0x02] IF !(Work_Zone[0] == 3*) GOTO 0x0604
266: 0x05D7 [0x02] IF !(Work_Zone_1700[8] == 0*) GOTO 0x05EC
267: 0x05DF [0x3C] SET_BIT_FLAG_CONDITIONAL(target_work_offset=Work_Zone[1], bit_index_work_offset=3*, condition_work_offset=1*)
268: 0x05E6 [0x05] Work_Zone_1700[8] = 1
269: 0x05E9 [0x01] GOTO 0x0601
270: 0x05EC [0x3D] CLEAR_BIT_FLAG_CONDITIONAL(target_work_offset=Work_Zone[1], bit_index_work_offset=3*, condition_work_offset=1*)
271: 0x05F3 [0x06] Work_Zone_1700[8] = 0
272: 0x05F6 [0x03] Work_Zone[3] = 1*
273: 0x05FB [0x06] ExtData[1]->WorkLocal[7] = 0
274: 0x05FE [0x01] GOTO 0x0528

SUBROUTINE_0601:
275: 0x0601 [0x01] GOTO 0x06D7
276: 0x0604 [0x02] IF !(Work_Zone[0] == 4*) GOTO 0x0639
277: 0x060C [0x02] IF !(Work_Zone_1700[9] == 0*) GOTO 0x0621
278: 0x0614 [0x3C] SET_BIT_FLAG_CONDITIONAL(target_work_offset=Work_Zone[1], bit_index_work_offset=4*, condition_work_offset=1*)
279: 0x061B [0x05] Work_Zone_1700[9] = 1
280: 0x061E [0x01] GOTO 0x0636
281: 0x0621 [0x3D] CLEAR_BIT_FLAG_CONDITIONAL(target_work_offset=Work_Zone[1], bit_index_work_offset=4*, condition_work_offset=1*)
282: 0x0628 [0x06] Work_Zone_1700[9] = 0
283: 0x062B [0x03] Work_Zone[3] = 1*
284: 0x0630 [0x06] ExtData[1]->WorkLocal[7] = 0
285: 0x0633 [0x01] GOTO 0x0528

SUBROUTINE_0636:
286: 0x0636 [0x01] GOTO 0x06D7
287: 0x0639 [0x02] IF !(Work_Zone[0] == 5*) GOTO 0x06D7
288: 0x0641 [0x24] CREATE_DIALOG(message_id=13235*, default_option=1*, option_flags=0*)
    → "Really stop playing? [Yes./No.]"
289: 0x0648 [0x25] WAIT_DIALOG_SELECT()
290: 0x0649 [0x02] IF !(Work_Zone[0] == 0*) GOTO 0x06C6
291: 0x0651 [0x45] LOAD_SCHEDULED_TASK: Load scheduler "fdo1" with entities [EventEntity, EventEntity], work=[200*, 0*]
292: 0x0662 [0x55] WAIT_LOAD_SCHEDULER: Wait for scheduler "fdo1" with entities [EventEntity, EventEntity], work=200*
293: 0x0671 [0x5C] MUSIC_CONTROL: Set Idle (Day) music to song 152*
294: 0x0675 [0x5C] MUSIC_CONTROL: Set Idle (Night) music to song 152*
295: 0x0679 [0x52] END_LOAD_SCHEDULER: End scheduler "s004" with entities [EventEntity, EventEntity], work=102*
296: 0x0688 [0x78] ENABLE_GAME_TIMER_RESET_WEATHER()
297: 0x0689 [0x38] SET_CLIENT_EVENT_MODE(mode=0*)
298: 0x068C [0x46] CAMERA_CONTROL: Restore default settings
299: 0x068E [0x1C] WAIT(60* ticks)
300: 0x0691 [0x45] LOAD_SCHEDULED_TASK: Load scheduler "fdi0" with entities [EventEntity, EventEntity], work=[200*, 0*]
301: 0x06A2 [0x55] WAIT_LOAD_SCHEDULER: Wait for scheduler "fdi0" with entities [EventEntity, EventEntity], work=200*
302: 0x06B1 [0x1C] WAIT(60* ticks)
303: 0x06B4 [0x1E] EventEntity looks at LocalPlayer and starts talking
304: 0x06B9 [0x03] Work_Zone[3] = (LocalPlayer->Render.Flags01 >> 25) & 1
305: 0x06BE [0x1D] PRINT_EVENT_MESSAGE(message_id=13242*)
    → "A bit out of your league, I suppose. No harm in trying again later, right?"
306: 0x06C1 [0x23] WAIT_FOR_DIALOG_INTERACTION
307: 0x06C2 [0x21] END_EVENT

SUBROUTINE_06D4:
308: 0x06D4 [0x01] GOTO 0x06D7

SUBROUTINE_06D7:
309: 0x06D7 [0x0B] ExtData[1]->WorkLocal[7]++
310: 0x06DA [0x03] Work_Zone[3] = 2*
311: 0x06DF [0x01] GOTO 0x0520
312: 0x06E2 [0x43] SEND_EVENT_UPDATE: Send pending tag to server (packet 0x005B)
313: 0x06E4 [0x43] SEND_EVENT_UPDATE: Check pending flag (skip if not pending)
314: 0x06E6 [0x06] ExtData[1]->WorkLocal[7] = 0
315: 0x06E9 [0x06] ExtData[1]->WorkLocal[8] = 0
316: 0x06EC [0x03] ExtData[1]->WorkLocal[0] = 5*

SUBROUTINE_06F1:
317: 0x06F1 [0x02] IF !(ExtData[1]->WorkLocal[7] >= 5*) GOTO 0x0790
318: 0x06F9 [0x3E] IF !(Work_Zone[5] bit ExtData[1]->WorkLocal[0]) GOTO 0x0787
319: 0x0700 [0x02] IF !(ExtData[1]->WorkLocal[7] == 0*) GOTO 0x071B
320: 0x0708 [0x03] ExtData[1]->WorkLocal[4] = ExtData[1]->WorkLocal[15]
321: 0x070D [0x1A] CALL_SUBROUTINE(address=0x08FE)
322: 0x0710 [0x03] ExtData[1]->WorkLocal[1] = 4294877296*
323: 0x0715 [0x1A] CALL_SUBROUTINE(address=0x0D40)
324: 0x0718 [0x01] GOTO 0x0787
325: 0x071B [0x02] IF !(ExtData[1]->WorkLocal[7] == 1*) GOTO 0x0736
326: 0x0723 [0x03] ExtData[1]->WorkLocal[4] = ExtData[1]->WorkLocal[16]
327: 0x0728 [0x1A] CALL_SUBROUTINE(address=0x08FE)
328: 0x072B [0x03] ExtData[1]->WorkLocal[1] = 4294878796*
329: 0x0730 [0x1A] CALL_SUBROUTINE(address=0x0D40)
330: 0x0733 [0x01] GOTO 0x0787
331: 0x0736 [0x02] IF !(ExtData[1]->WorkLocal[7] == 2*) GOTO 0x0751
332: 0x073E [0x03] ExtData[1]->WorkLocal[4] = ExtData[1]->WorkLocal[17]
333: 0x0743 [0x1A] CALL_SUBROUTINE(address=0x08FE)
334: 0x0746 [0x03] ExtData[1]->WorkLocal[1] = 4294880296*
335: 0x074B [0x1A] CALL_SUBROUTINE(address=0x0D40)
336: 0x074E [0x01] GOTO 0x0787
337: 0x0751 [0x02] IF !(ExtData[1]->WorkLocal[7] == 3*) GOTO 0x076C
338: 0x0759 [0x03] ExtData[1]->WorkLocal[4] = ExtData[1]->WorkLocal[18]
339: 0x075E [0x1A] CALL_SUBROUTINE(address=0x08FE)
340: 0x0761 [0x03] ExtData[1]->WorkLocal[1] = 4294881796*
341: 0x0766 [0x1A] CALL_SUBROUTINE(address=0x0D40)
342: 0x0769 [0x01] GOTO 0x0787
343: 0x076C [0x02] IF !(ExtData[1]->WorkLocal[7] == 4*) GOTO 0x0787
344: 0x0774 [0x03] ExtData[1]->WorkLocal[4] = ExtData[1]->WorkLocal[19]
345: 0x0779 [0x1A] CALL_SUBROUTINE(address=0x08FE)
346: 0x077C [0x03] ExtData[1]->WorkLocal[1] = 4294883296*
347: 0x0781 [0x1A] CALL_SUBROUTINE(address=0x0D40)
348: 0x0784 [0x01] GOTO 0x0787

SUBROUTINE_0787:
349: 0x0787 [0x0B] ExtData[1]->WorkLocal[7]++
350: 0x078A [0x0B] ExtData[1]->WorkLocal[0]++
351: 0x078D [0x01] GOTO 0x06F1
352: 0x0790 [0x3E] IF !(Work_Zone[5] bit 10*) GOTO 0x088E
353: 0x0797 [0x1C] WAIT(60* ticks)
354: 0x079A [0x27] REQ_SET(priority=0x80, entity_id=Unnamed NPC (ID: 17744164/0x010EC124), tag_num=0x03)
355: 0x07A1 [0x27] REQ_SET(priority=0x80, entity_id=Unnamed NPC (ID: 17744165/0x010EC125), tag_num=0x03)
356: 0x07A8 [0x27] REQ_SET(priority=0x80, entity_id=Unnamed NPC (ID: 17744166/0x010EC126), tag_num=0x03)
357: 0x07AF [0x27] REQ_SET(priority=0x80, entity_id=Unnamed NPC (ID: 17744167/0x010EC127), tag_num=0x03)
358: 0x07B6 [0x1C] WAIT(120* ticks)
359: 0x07B9 [0x27] REQ_SET(priority=0x80, entity_id=Unnamed NPC (ID: 17744171/0x010EC12B), tag_num=0x02)
360: 0x07C0 [0x27] REQ_SET(priority=0x80, entity_id=Unnamed NPC (ID: 17744172/0x010EC12C), tag_num=0x02)
361: 0x07C7 [0x27] REQ_SET(priority=0x80, entity_id=Unnamed NPC (ID: 17744173/0x010EC12D), tag_num=0x02)
362: 0x07CE [0x27] REQ_SET(priority=0x80, entity_id=Unnamed NPC (ID: 17744174/0x010EC12E), tag_num=0x02)
363: 0x07D5 [0x1C] WAIT(360* ticks)
364: 0x07D8 [0x45] LOAD_SCHEDULED_TASK: Load scheduler "fdo1" with entities [EventEntity, EventEntity], work=[200*, 0*]
365: 0x07E9 [0x55] WAIT_LOAD_SCHEDULER: Wait for scheduler "fdo1" with entities [EventEntity, EventEntity], work=200*
366: 0x07F8 [0x5C] MUSIC_CONTROL: Set Idle (Day) music to song 152*
367: 0x07FC [0x5C] MUSIC_CONTROL: Set Idle (Night) music to song 152*
368: 0x0800 [0x52] END_LOAD_SCHEDULER: End scheduler "s004" with entities [EventEntity, EventEntity], work=102*
369: 0x080F [0x78] ENABLE_GAME_TIMER_RESET_WEATHER()
370: 0x0810 [0x38] SET_CLIENT_EVENT_MODE(mode=0*)
371: 0x0813 [0x46] CAMERA_CONTROL: Restore default settings
372: 0x0815 [0x1C] WAIT(60* ticks)
373: 0x0818 [0x45] LOAD_SCHEDULED_TASK: Load scheduler "fdi0" with entities [EventEntity, EventEntity], work=[200*, 0*]
374: 0x0829 [0x55] WAIT_LOAD_SCHEDULER: Wait for scheduler "fdi0" with entities [EventEntity, EventEntity], work=200*
375: 0x0838 [0x1C] WAIT(60* ticks)
376: 0x083B [0x1E] EventEntity looks at LocalPlayer and starts talking
377: 0x0840 [0x3E] IF !(Work_Zone[7] bit 0*) GOTO 0x0887
378: 0x0847 [0x03] Work_Zone[3] = (LocalPlayer->Render.Flags01 >> 25) & 1
379: 0x084C [0x1D] PRINT_EVENT_MESSAGE(message_id=13237*)
    → "Outstanding! It isn't every day you see someone up to the challenge! Here, you deserve this!"
380: 0x084F [0x23] WAIT_FOR_DIALOG_INTERACTION
381: 0x0850 [0x3E] IF !(Work_Zone[7] bit 2*) GOTO 0x085A
382: 0x0857 [0x01] GOTO 0x0884
383: 0x085A [0x41] ExtData[1]->WorkLocal[0] = Work_Zone[7] (bits 1*-3*)
384: 0x0863 [0x02] IF !(ExtData[1]->WorkLocal[0] == 5*) GOTO 0x0872
385: 0x086B [0x1D] PRINT_EVENT_MESSAGE(message_id=13239*)
    → "Oh ho, wait just a moment! Looks like you've got the three things you need. Smash these babies together and see what splurts out!"
386: 0x086E [0x23] WAIT_FOR_DIALOG_INTERACTION
387: 0x086F [0x01] GOTO 0x087B
388: 0x0872 [0x03] Work_Zone[3] = 426*
389: 0x0877 [0x1D] PRINT_EVENT_MESSAGE(message_id=13238*)
    → "You won't be able to accomplish a thing with just that, however. To complete the synthesis, you need to collect two other items by traveling to the other nations."
390: 0x087A [0x23] WAIT_FOR_DIALOG_INTERACTION

SUBROUTINE_087B:
391: 0x087B [0x03] Work_Zone[3] = 426*
392: 0x0880 [0x1D] PRINT_EVENT_MESSAGE(message_id=13240*)
    → "Let me give you a little extra something for your hard work. Once you've synthesized an $1 and placed it in your Mog House, sit back, relax, and enjoy a tune or two."
393: 0x0883 [0x23] WAIT_FOR_DIALOG_INTERACTION

SUBROUTINE_0884:
394: 0x0884 [0x01] GOTO 0x088B
395: 0x0887 [0x1D] PRINT_EVENT_MESSAGE(message_id=13236*)
    → "Well done! I could tell you had an eye for this! Take this amazing prize!"
396: 0x088A [0x23] WAIT_FOR_DIALOG_INTERACTION

SUBROUTINE_088B:
397: 0x088B [0x01] GOTO 0x08FD
398: 0x088E [0x1C] WAIT(300* ticks)
399: 0x0891 [0x45] LOAD_SCHEDULED_TASK: Load scheduler "fdo1" with entities [EventEntity, EventEntity], work=[200*, 0*]
400: 0x08A2 [0x55] WAIT_LOAD_SCHEDULER: Wait for scheduler "fdo1" with entities [EventEntity, EventEntity], work=200*
401: 0x08B1 [0x5C] MUSIC_CONTROL: Set Idle (Day) music to song 152*
402: 0x08B5 [0x5C] MUSIC_CONTROL: Set Idle (Night) music to song 152*
403: 0x08B9 [0x52] END_LOAD_SCHEDULER: End scheduler "s004" with entities [EventEntity, EventEntity], work=102*
404: 0x08C8 [0x78] ENABLE_GAME_TIMER_RESET_WEATHER()
405: 0x08C9 [0x38] SET_CLIENT_EVENT_MODE(mode=0*)
406: 0x08CC [0x46] CAMERA_CONTROL: Restore default settings
407: 0x08CE [0x1C] WAIT(60* ticks)
408: 0x08D1 [0x45] LOAD_SCHEDULED_TASK: Load scheduler "fdi0" with entities [EventEntity, EventEntity], work=[200*, 0*]
409: 0x08E2 [0x55] WAIT_LOAD_SCHEDULER: Wait for scheduler "fdi0" with entities [EventEntity, EventEntity], work=200*
410: 0x08F1 [0x1C] WAIT(60* ticks)
411: 0x08F4 [0x1E] EventEntity looks at LocalPlayer and starts talking
412: 0x08F9 [0x1D] PRINT_EVENT_MESSAGE(message_id=13241*)
    → "Better luck next time, friend!"
413: 0x08FC [0x23] WAIT_FOR_DIALOG_INTERACTION

SUBROUTINE_08FD:
414: 0x08FD [0x1B] RETURN

SUBROUTINE_08FE:
415: 0x08FE [0x02] IF !(ExtData[1]->WorkLocal[4] == 0*) GOTO 0x0916
416: 0x0906 [0x2C] CREATE_SCHEDULER_TASK: Create scheduler "ope2" with entities [Unnamed NPC (ID: 17744156/0x010EC11C), Unnamed NPC (ID: 17744156/0x010EC11C)]
417: 0x0913 [0x01] GOTO 0x0976
418: 0x0916 [0x02] IF !(ExtData[1]->WorkLocal[4] == 1*) GOTO 0x092E
419: 0x091E [0x2C] CREATE_SCHEDULER_TASK: Create scheduler "ope2" with entities [Unnamed NPC (ID: 17744157/0x010EC11D), Unnamed NPC (ID: 17744157/0x010EC11D)]
420: 0x092B [0x01] GOTO 0x0976
421: 0x092E [0x02] IF !(ExtData[1]->WorkLocal[4] == 2*) GOTO 0x0946
422: 0x0936 [0x2C] CREATE_SCHEDULER_TASK: Create scheduler "ope2" with entities [Unnamed NPC (ID: 17744158/0x010EC11E), Unnamed NPC (ID: 17744158/0x010EC11E)]
423: 0x0943 [0x01] GOTO 0x0976
424: 0x0946 [0x02] IF !(ExtData[1]->WorkLocal[4] == 3*) GOTO 0x095E
425: 0x094E [0x2C] CREATE_SCHEDULER_TASK: Create scheduler "ope2" with entities [Unnamed NPC (ID: 17744159/0x010EC11F), Unnamed NPC (ID: 17744159/0x010EC11F)]
426: 0x095B [0x01] GOTO 0x0976
427: 0x095E [0x02] IF !(ExtData[1]->WorkLocal[4] == 4*) GOTO 0x0976
428: 0x0966 [0x2C] CREATE_SCHEDULER_TASK: Create scheduler "ope2" with entities [Unnamed NPC (ID: 17744160/0x010EC120), Unnamed NPC (ID: 17744160/0x010EC120)]
429: 0x0973 [0x01] GOTO 0x0976

SUBROUTINE_0976:
430: 0x0976 [0x1B] RETURN

SUBROUTINE_0977:
431: 0x0977 [0x06] ExtData[1]->WorkLocal[9] = 0
432: 0x097A [0x03] ExtData[1]->WorkLocal[1] = 5*
433: 0x097F [0x14] ExtData[1]->WorkLocal[1] *= ExtData[1]->WorkLocal[7]

SUBROUTINE_0984:
434: 0x0984 [0x02] IF !(ExtData[1]->WorkLocal[9] >= 5*) GOTO 0x0B78
435: 0x098C [0x02] IF !(ExtData[1]->WorkLocal[9] == ExtData[1]->WorkLocal[8]) GOTO 0x0B6F
436: 0x0994 [0x3E] IF !(Work_Zone[4] bit ExtData[1]->WorkLocal[1]) GOTO 0x0B6F
437: 0x099B [0x03] ExtData[1]->WorkLocal[5] = ExtData[1]->WorkLocal[10]
438: 0x09A0 [0x14] ExtData[1]->WorkLocal[5] *= ExtData[1]->WorkLocal[7]
439: 0x09A5 [0x02] IF !(ExtData[1]->WorkLocal[5] == 2*) GOTO 0x0A20
440: 0x09AD [0x41] ExtData[1]->WorkLocal[4] = Work_Zone[4] (bits 16*-19*)
441: 0x09B6 [0x3E] IF !(Work_Zone[7] bit 0*) GOTO 0x09DB
442: 0x09BD [0x03] ExtData[1]->WorkLocal[5] = 2*
443: 0x09C2 [0x02] IF !(ExtData[1]->WorkLocal[4] == 5*) GOTO 0x09D8
444: 0x09CA [0x27] REQ_SET(priority=0x80, entity_id=Unnamed NPC (ID: 17744169/0x010EC129), tag_num=0x02)
445: 0x09D1 [0x27] REQ_SET(priority=0x80, entity_id=Unnamed NPC (ID: 17744170/0x010EC12A), tag_num=0x02)
446: 0x09D8 [0x01] GOTO 0x09E0
447: 0x09DB [0x03] ExtData[1]->WorkLocal[5] = 5*

SUBROUTINE_09E0:
448: 0x09E0 [0x02] IF !(ExtData[1]->WorkLocal[4] == ExtData[1]->WorkLocal[5]) GOTO 0x0A20
449: 0x09E8 [0x27] REQ_SET(priority=0x80, entity_id=Unnamed NPC (ID: 17744164/0x010EC124), tag_num=0x02)
450: 0x09EF [0x27] REQ_SET(priority=0x80, entity_id=Unnamed NPC (ID: 17744165/0x010EC125), tag_num=0x02)
451: 0x09F6 [0x27] REQ_SET(priority=0x80, entity_id=Unnamed NPC (ID: 17744166/0x010EC126), tag_num=0x02)
452: 0x09FD [0x27] REQ_SET(priority=0x80, entity_id=Unnamed NPC (ID: 17744167/0x010EC127), tag_num=0x02)
453: 0x0A04 [0x27] REQ_SET(priority=0x80, entity_id=Unnamed NPC (ID: 17744168/0x010EC128), tag_num=0x02)
454: 0x0A0B [0x27] REQ_SET(priority=0x80, entity_id=Unnamed NPC (ID: 17744163/0x010EC123), tag_num=0x02)
455: 0x0A12 [0x27] REQ_SET(priority=0x80, entity_id=Unnamed NPC (ID: 17744161/0x010EC121), tag_num=0x03)
456: 0x0A19 [0x27] REQ_SET(priority=0x80, entity_id=Unnamed NPC (ID: 17744162/0x010EC122), tag_num=0x03)
457: 0x0A20 [0x02] IF !(ExtData[1]->WorkLocal[9] >= ExtData[1]->WorkLocal[8]) GOTO 0x0A86
458: 0x0A28 [0x03] Work_Zone_1700[0] = ExtData[1]->WorkLocal[6]
459: 0x0A2D [0x02] IF !(ExtData[1]->WorkLocal[7] == 1*) GOTO 0x0A42
460: 0x0A35 [0x03] Work_Zone_1700[1] = 52000*
461: 0x0A3A [0x03] Work_Zone_1700[2] = 4900*
462: 0x0A3F [0x01] GOTO 0x0A4C
463: 0x0A42 [0x03] Work_Zone_1700[1] = 51000*
464: 0x0A47 [0x03] Work_Zone_1700[2] = 3900*

SUBROUTINE_0A4C:
465: 0x0A4C [0x1A] CALL_SUBROUTINE(address=0x0B79)
466: 0x0A4F [0x03] ExtData[1]->WorkLocal[2] = ExtData[1]->WorkLocal[8]
467: 0x0A54 [0x08] ExtData[1]->WorkLocal[2] -= ExtData[1]->WorkLocal[9]
468: 0x0A59 [0x03] Work_Zone_1700[0] = 4294965796*
469: 0x0A5E [0x14] Work_Zone_1700[0] *= ExtData[1]->WorkLocal[2]
470: 0x0A63 [0x07] Work_Zone_1700[0] += ExtData[1]->WorkLocal[6]
471: 0x0A68 [0x1A] CALL_SUBROUTINE(address=0x0B79)
472: 0x0A6B [0x02] IF !(ExtData[1]->WorkLocal[7] == 1*) GOTO 0x0A7B
473: 0x0A73 [0x03] Work_Zone_1700[1] = 51000*
474: 0x0A78 [0x01] GOTO 0x0A80
475: 0x0A7B [0x03] Work_Zone_1700[2] = 4900*

SUBROUTINE_0A80:
476: 0x0A80 [0x1A] CALL_SUBROUTINE(address=0x0B79)
477: 0x0A83 [0x1A] CALL_SUBROUTINE(address=0x0C34)
478: 0x0A86 [0x02] IF !(ExtData[1]->WorkLocal[9] <= ExtData[1]->WorkLocal[8]) GOTO 0x0AEC
479: 0x0A8E [0x03] Work_Zone_1700[0] = ExtData[1]->WorkLocal[6]
480: 0x0A93 [0x02] IF !(ExtData[1]->WorkLocal[7] == 1*) GOTO 0x0AA8
481: 0x0A9B [0x03] Work_Zone_1700[1] = 50000*
482: 0x0AA0 [0x03] Work_Zone_1700[2] = 4900*
483: 0x0AA5 [0x01] GOTO 0x0AB2
484: 0x0AA8 [0x03] Work_Zone_1700[1] = 51000*
485: 0x0AAD [0x03] Work_Zone_1700[2] = 2900*

SUBROUTINE_0AB2:
486: 0x0AB2 [0x1A] CALL_SUBROUTINE(address=0x0B79)
487: 0x0AB5 [0x03] ExtData[1]->WorkLocal[2] = ExtData[1]->WorkLocal[9]
488: 0x0ABA [0x08] ExtData[1]->WorkLocal[2] -= ExtData[1]->WorkLocal[8]
489: 0x0ABF [0x03] Work_Zone_1700[0] = 1500*
490: 0x0AC4 [0x14] Work_Zone_1700[0] *= ExtData[1]->WorkLocal[2]
491: 0x0AC9 [0x07] Work_Zone_1700[0] += ExtData[1]->WorkLocal[6]
492: 0x0ACE [0x1A] CALL_SUBROUTINE(address=0x0B79)
493: 0x0AD1 [0x02] IF !(ExtData[1]->WorkLocal[7] == 1*) GOTO 0x0AE1
494: 0x0AD9 [0x03] Work_Zone_1700[1] = 51000*
495: 0x0ADE [0x01] GOTO 0x0AE6
496: 0x0AE1 [0x03] Work_Zone_1700[2] = 4900*

SUBROUTINE_0AE6:
497: 0x0AE6 [0x1A] CALL_SUBROUTINE(address=0x0B79)
498: 0x0AE9 [0x1A] CALL_SUBROUTINE(address=0x0C34)
499: 0x0AEC [0x02] IF !(ExtData[1]->WorkLocal[10] == 1*) GOTO 0x0B6C
500: 0x0AF4 [0x02] IF !(ExtData[1]->WorkLocal[8] == 0*) GOTO 0x0B0C
501: 0x0AFC [0x03] ExtData[1]->WorkLocal[4] = ExtData[1]->WorkLocal[15]
502: 0x0B01 [0x1A] CALL_SUBROUTINE(address=0x0CEF)
503: 0x0B04 [0x03] ExtData[1]->WorkLocal[15] = ExtData[1]->WorkLocal[4]
504: 0x0B09 [0x01] GOTO 0x0B6C
505: 0x0B0C [0x02] IF !(ExtData[1]->WorkLocal[8] == 1*) GOTO 0x0B24
506: 0x0B14 [0x03] ExtData[1]->WorkLocal[4] = ExtData[1]->WorkLocal[16]
507: 0x0B19 [0x1A] CALL_SUBROUTINE(address=0x0CEF)
508: 0x0B1C [0x03] ExtData[1]->WorkLocal[16] = ExtData[1]->WorkLocal[4]
509: 0x0B21 [0x01] GOTO 0x0B6C
510: 0x0B24 [0x02] IF !(ExtData[1]->WorkLocal[8] == 2*) GOTO 0x0B3C
511: 0x0B2C [0x03] ExtData[1]->WorkLocal[4] = ExtData[1]->WorkLocal[17]
512: 0x0B31 [0x1A] CALL_SUBROUTINE(address=0x0CEF)
513: 0x0B34 [0x03] ExtData[1]->WorkLocal[17] = ExtData[1]->WorkLocal[4]
514: 0x0B39 [0x01] GOTO 0x0B6C
515: 0x0B3C [0x02] IF !(ExtData[1]->WorkLocal[8] == 3*) GOTO 0x0B54
516: 0x0B44 [0x03] ExtData[1]->WorkLocal[4] = ExtData[1]->WorkLocal[18]
517: 0x0B49 [0x1A] CALL_SUBROUTINE(address=0x0CEF)
518: 0x0B4C [0x03] ExtData[1]->WorkLocal[18] = ExtData[1]->WorkLocal[4]
519: 0x0B51 [0x01] GOTO 0x0B6C
520: 0x0B54 [0x02] IF !(ExtData[1]->WorkLocal[8] == 4*) GOTO 0x0B6C
521: 0x0B5C [0x03] ExtData[1]->WorkLocal[4] = ExtData[1]->WorkLocal[19]
522: 0x0B61 [0x1A] CALL_SUBROUTINE(address=0x0CEF)
523: 0x0B64 [0x03] ExtData[1]->WorkLocal[19] = ExtData[1]->WorkLocal[4]
524: 0x0B69 [0x01] GOTO 0x0B6C

SUBROUTINE_0B6C:
525: 0x0B6C [0x05] ExtData[1]->WorkLocal[10] = 1
526: 0x0B6F [0x0B] ExtData[1]->WorkLocal[9]++
527: 0x0B72 [0x0B] ExtData[1]->WorkLocal[1]++
528: 0x0B75 [0x01] GOTO 0x0984
529: 0x0B78 [0x1B] RETURN

SUBROUTINE_0B79:
530: 0x0B79 [0x02] IF !(ExtData[1]->WorkLocal[8] == 0*) GOTO 0x0B8C
531: 0x0B81 [0x03] ExtData[1]->WorkLocal[4] = ExtData[1]->WorkLocal[15]
532: 0x0B86 [0x1A] CALL_SUBROUTINE(address=0x0BD9)
533: 0x0B89 [0x01] GOTO 0x0BD8
534: 0x0B8C [0x02] IF !(ExtData[1]->WorkLocal[8] == 1*) GOTO 0x0B9F
535: 0x0B94 [0x03] ExtData[1]->WorkLocal[4] = ExtData[1]->WorkLocal[16]
536: 0x0B99 [0x1A] CALL_SUBROUTINE(address=0x0BD9)
537: 0x0B9C [0x01] GOTO 0x0BD8
538: 0x0B9F [0x02] IF !(ExtData[1]->WorkLocal[8] == 2*) GOTO 0x0BB2
539: 0x0BA7 [0x03] ExtData[1]->WorkLocal[4] = ExtData[1]->WorkLocal[17]
540: 0x0BAC [0x1A] CALL_SUBROUTINE(address=0x0BD9)
541: 0x0BAF [0x01] GOTO 0x0BD8
542: 0x0BB2 [0x02] IF !(ExtData[1]->WorkLocal[8] == 3*) GOTO 0x0BC5
543: 0x0BBA [0x03] ExtData[1]->WorkLocal[4] = ExtData[1]->WorkLocal[18]
544: 0x0BBF [0x1A] CALL_SUBROUTINE(address=0x0BD9)
545: 0x0BC2 [0x01] GOTO 0x0BD8
546: 0x0BC5 [0x02] IF !(ExtData[1]->WorkLocal[8] == 4*) GOTO 0x0BD8
547: 0x0BCD [0x03] ExtData[1]->WorkLocal[4] = ExtData[1]->WorkLocal[19]
548: 0x0BD2 [0x1A] CALL_SUBROUTINE(address=0x0BD9)
549: 0x0BD5 [0x01] GOTO 0x0BD8

SUBROUTINE_0BD8:
550: 0x0BD8 [0x1B] RETURN

SUBROUTINE_0BD9:
551: 0x0BD9 [0x02] IF !(ExtData[1]->WorkLocal[4] == 0*) GOTO 0x0BEB
552: 0x0BE1 [0x29] REQ_SET_WAIT(priority=0x80, entity_id=Unnamed NPC (ID: 17744156/0x010EC11C), tag_num=0x02)
553: 0x0BE8 [0x01] GOTO 0x0C33
554: 0x0BEB [0x02] IF !(ExtData[1]->WorkLocal[4] == 1*) GOTO 0x0BFD
555: 0x0BF3 [0x29] REQ_SET_WAIT(priority=0x80, entity_id=Unnamed NPC (ID: 17744157/0x010EC11D), tag_num=0x02)
556: 0x0BFA [0x01] GOTO 0x0C33
557: 0x0BFD [0x02] IF !(ExtData[1]->WorkLocal[4] == 2*) GOTO 0x0C0F
558: 0x0C05 [0x29] REQ_SET_WAIT(priority=0x80, entity_id=Unnamed NPC (ID: 17744158/0x010EC11E), tag_num=0x02)
559: 0x0C0C [0x01] GOTO 0x0C33
560: 0x0C0F [0x02] IF !(ExtData[1]->WorkLocal[4] == 3*) GOTO 0x0C21
561: 0x0C17 [0x29] REQ_SET_WAIT(priority=0x80, entity_id=Unnamed NPC (ID: 17744159/0x010EC11F), tag_num=0x02)
562: 0x0C1E [0x01] GOTO 0x0C33
563: 0x0C21 [0x02] IF !(ExtData[1]->WorkLocal[4] == 4*) GOTO 0x0C33
564: 0x0C29 [0x29] REQ_SET_WAIT(priority=0x80, entity_id=Unnamed NPC (ID: 17744160/0x010EC120), tag_num=0x02)
565: 0x0C30 [0x01] GOTO 0x0C33

SUBROUTINE_0C33:
566: 0x0C33 [0x1B] RETURN

SUBROUTINE_0C34:
567: 0x0C34 [0x02] IF !(ExtData[1]->WorkLocal[8] == 0*) GOTO 0x0C47
568: 0x0C3C [0x03] ExtData[1]->WorkLocal[4] = ExtData[1]->WorkLocal[15]
569: 0x0C41 [0x1A] CALL_SUBROUTINE(address=0x0C94)
570: 0x0C44 [0x01] GOTO 0x0C93
571: 0x0C47 [0x02] IF !(ExtData[1]->WorkLocal[8] == 1*) GOTO 0x0C5A
572: 0x0C4F [0x03] ExtData[1]->WorkLocal[4] = ExtData[1]->WorkLocal[16]
573: 0x0C54 [0x1A] CALL_SUBROUTINE(address=0x0C94)
574: 0x0C57 [0x01] GOTO 0x0C93
575: 0x0C5A [0x02] IF !(ExtData[1]->WorkLocal[8] == 2*) GOTO 0x0C6D
576: 0x0C62 [0x03] ExtData[1]->WorkLocal[4] = ExtData[1]->WorkLocal[17]
577: 0x0C67 [0x1A] CALL_SUBROUTINE(address=0x0C94)
578: 0x0C6A [0x01] GOTO 0x0C93
579: 0x0C6D [0x02] IF !(ExtData[1]->WorkLocal[8] == 3*) GOTO 0x0C80
580: 0x0C75 [0x03] ExtData[1]->WorkLocal[4] = ExtData[1]->WorkLocal[18]
581: 0x0C7A [0x1A] CALL_SUBROUTINE(address=0x0C94)
582: 0x0C7D [0x01] GOTO 0x0C93
583: 0x0C80 [0x02] IF !(ExtData[1]->WorkLocal[8] == 4*) GOTO 0x0C93
584: 0x0C88 [0x03] ExtData[1]->WorkLocal[4] = ExtData[1]->WorkLocal[19]
585: 0x0C8D [0x1A] CALL_SUBROUTINE(address=0x0C94)
586: 0x0C90 [0x01] GOTO 0x0C93

SUBROUTINE_0C93:
587: 0x0C93 [0x1B] RETURN

SUBROUTINE_0C94:
588: 0x0C94 [0x02] IF !(ExtData[1]->WorkLocal[4] == 0*) GOTO 0x0CA6
589: 0x0C9C [0x4B] UPDATE_ENTITY_YAW(entity=Unnamed NPC (ID: 17744156/0x010EC11C), yaw=5.6°*)
590: 0x0CA3 [0x01] GOTO 0x0CEE
591: 0x0CA6 [0x02] IF !(ExtData[1]->WorkLocal[4] == 1*) GOTO 0x0CB8
592: 0x0CAE [0x4B] UPDATE_ENTITY_YAW(entity=Unnamed NPC (ID: 17744157/0x010EC11D), yaw=5.6°*)
593: 0x0CB5 [0x01] GOTO 0x0CEE
594: 0x0CB8 [0x02] IF !(ExtData[1]->WorkLocal[4] == 2*) GOTO 0x0CCA
595: 0x0CC0 [0x4B] UPDATE_ENTITY_YAW(entity=Unnamed NPC (ID: 17744158/0x010EC11E), yaw=5.6°*)
596: 0x0CC7 [0x01] GOTO 0x0CEE
597: 0x0CCA [0x02] IF !(ExtData[1]->WorkLocal[4] == 3*) GOTO 0x0CDC
598: 0x0CD2 [0x4B] UPDATE_ENTITY_YAW(entity=Unnamed NPC (ID: 17744159/0x010EC11F), yaw=5.6°*)
599: 0x0CD9 [0x01] GOTO 0x0CEE
600: 0x0CDC [0x02] IF !(ExtData[1]->WorkLocal[4] == 4*) GOTO 0x0CEE
601: 0x0CE4 [0x4B] UPDATE_ENTITY_YAW(entity=Unnamed NPC (ID: 17744160/0x010EC120), yaw=5.6°*)
602: 0x0CEB [0x01] GOTO 0x0CEE

SUBROUTINE_0CEE:
603: 0x0CEE [0x1B] RETURN

SUBROUTINE_0CEF:
604: 0x0CEF [0x02] IF !(ExtData[1]->WorkLocal[9] == 0*) GOTO 0x0CFF
605: 0x0CF7 [0x19] SWAP(ExtData[1]->WorkLocal[15], ExtData[1]->WorkLocal[4])
606: 0x0CFC [0x01] GOTO 0x0D3F
607: 0x0CFF [0x02] IF !(ExtData[1]->WorkLocal[9] == 1*) GOTO 0x0D0F
608: 0x0D07 [0x19] SWAP(ExtData[1]->WorkLocal[16], ExtData[1]->WorkLocal[4])
609: 0x0D0C [0x01] GOTO 0x0D3F
610: 0x0D0F [0x02] IF !(ExtData[1]->WorkLocal[9] == 2*) GOTO 0x0D1F
611: 0x0D17 [0x19] SWAP(ExtData[1]->WorkLocal[17], ExtData[1]->WorkLocal[4])
612: 0x0D1C [0x01] GOTO 0x0D3F
613: 0x0D1F [0x02] IF !(ExtData[1]->WorkLocal[9] == 3*) GOTO 0x0D2F
614: 0x0D27 [0x19] SWAP(ExtData[1]->WorkLocal[18], ExtData[1]->WorkLocal[4])
615: 0x0D2C [0x01] GOTO 0x0D3F
616: 0x0D2F [0x02] IF !(ExtData[1]->WorkLocal[9] == 4*) GOTO 0x0D3F
617: 0x0D37 [0x19] SWAP(ExtData[1]->WorkLocal[19], ExtData[1]->WorkLocal[4])
618: 0x0D3C [0x01] GOTO 0x0D3F

SUBROUTINE_0D3F:
619: 0x0D3F [0x1B] RETURN

SUBROUTINE_0D40:
620: 0x0D40 [0x3E] IF !(Work_Zone[5] bit ExtData[1]->WorkLocal[7]) GOTO 0x0D93
621: 0x0D47 [0x02] IF !(ExtData[1]->WorkLocal[8] == 0*) GOTO 0x0D74
622: 0x0D4F [0xBA] SET_ENTITY_POSITION(entity_id=Unnamed NPC (ID: 17744161/0x010EC121), pos_x=ExtData[1]->WorkLocal[1], pos_z=51.050*, pos_y=4.900*, direction=89.9°*)
623: 0x0D5C [0x4E] SET_ENTITY_HIDE_FLAG: Show Unnamed NPC (ID: 17744161/0x010EC121)
624: 0x0D62 [0x05] ExtData[1]->WorkLocal[8] = 1
625: 0x0D65 [0x03] Work_Zone_1700[3] = ExtData[1]->WorkLocal[1]
626: 0x0D6A [0x27] REQ_SET(priority=0x80, entity_id=Unnamed NPC (ID: 17744161/0x010EC121), tag_num=0x02)
627: 0x0D71 [0x01] GOTO 0x0D93
628: 0x0D74 [0xBA] SET_ENTITY_POSITION(entity_id=Unnamed NPC (ID: 17744162/0x010EC122), pos_x=ExtData[1]->WorkLocal[1], pos_z=51.050*, pos_y=4.900*, direction=89.9°*)
629: 0x0D81 [0x4E] SET_ENTITY_HIDE_FLAG: Show Unnamed NPC (ID: 17744162/0x010EC122)
630: 0x0D87 [0x03] Work_Zone_1700[4] = ExtData[1]->WorkLocal[1]
631: 0x0D8C [0x27] REQ_SET(priority=0x80, entity_id=Unnamed NPC (ID: 17744162/0x010EC122), tag_num=0x02)

SUBROUTINE_0D93:
632: 0x0D93 [0x1B] RETURN
```

#### Data or dead code:

```
# Dead code (unreachable instructions):
     0x00A3 [0x01] GOTO 0x0117
     0x0111 [0x01] GOTO 0x0114
# Dead code (unreachable instructions):
     0x0142 [0x01] GOTO 0x0145
# Dead code (unreachable instructions):
     0x06C3 [0x01] GOTO 0x06D4
     0x06D1 [0x01] GOTO 0x06D4
```
