# 17743900 - Ihsan

## Common Data

| Field            | Value                 |
|------------------|-----------------------|
| Zone             | Port Bastok (ID: 236) |
| Block Size       | 812 bytes             |
| Total Events     | 4                     |
| References Count | 36                    |

## List of Events

| Event ID                 | Entrypoint   |   Size |   Instructions |
|--------------------------|--------------|--------|----------------|
| [65535](#event-65535)    | 0x0000       |      1 |              1 |
| [16](#event-16)          | 0x0001       |    608 |             97 |
| [1](#event-1)            | 0x0261       |     10 |              2 |
| [65535.1](#event-655351) | 0x026B       |     14 |              4 |

## DAT References (imed_data)

|   Index | Hex Value   |   Dec Value |
|---------|-------------|-------------|
|       0 | 0x1D07      |        7431 |
|       1 | 0x1D08      |        7432 |
|       2 | 0x0000      |           0 |
|       3 | 0x1D09      |        7433 |
|       4 | 0x0001      |           1 |
|       5 | 0x0857      |        2135 |
|       6 | 0x00C8      |         200 |
|       7 | 0x001E      |          30 |
|       8 | 0x0088      |         136 |
|       9 | 0x000F      |          15 |
|      10 | 0x1D0A      |        7434 |
|      11 | 0x1D0B      |        7435 |
|      12 | 0x1D0C      |        7436 |
|      13 | 0x1D0D      |        7437 |
|      14 | 0x1D0E      |        7438 |
|      15 | 0x1D0F      |        7439 |
|      16 | 0x1D10      |        7440 |
|      17 | 0x1D11      |        7441 |
|      18 | 0x1D12      |        7442 |
|      19 | 0x1D1A      |        7450 |
|      20 | 0x0002      |           2 |
|      21 | 0x0F64      |        3940 |
|      22 | 0x1D13      |        7443 |
|      23 | 0x1D14      |        7444 |
|      24 | 0x1D15      |        7445 |
|      25 | 0x1D16      |        7446 |
|      26 | 0x1D17      |        7447 |
|      27 | 0x1D18      |        7448 |
|      28 | 0x1D19      |        7449 |
|      29 | 0xFFFF3C50  |  4294917200 |
|      30 | 0x454D      |       17741 |
|      31 | 0xFFFFF7CB  |  4294965195 |
|      32 | 0x0840      |        2112 |
|      33 | 0x000D      |          13 |
|      34 | 0xFFFE5675  |  4294858357 |
|      35 | 0x422C      |       16940 |

## String References

- **7431**: You lost? Where you goin'?
- **7432**: Which area do you want to ask about? [None./The western section./The eastern section.]
- **7433**: All-righty. Come back anytime. Have a nice day.
- **7434**: All right, let's see... See all those doors to the west, there?
- **7435**: The ones on the right are your run-of-the-mill warehouses. Some real shady characters've been seen going in there, so you be careful, all right?
- **7436**: On the left you've got the air travel agency, or "the door to the world," as they say. You need an airship pass to get in, though. And not through that door, either--that's the exit. Heh-heh.
- **7437**: The entrance is around the corner. Once you're in, you gotta walk down to the pier to get on airships.
- **7438**: Airships there only go to Jeuno--but of course, you knew that, right?
- **7439**: A little further on, we have Galvin's Travel Gear--a goods shop. They've got a few things adventurers like yourself might need.
- **7440**: Above Galvin's, you've got the Steaming Sheep Restaurant, which most people just call "the tavern." It's a good place if you want to eat, drink, or hear a good story or two.
- **7441**: And further down west...you'll come to a bridge. It leads to the Markets District, a nicer part of town.
- **7442**: You can get to both the Metalworks and the Mines District from the markets. It's like the crossroads of Bastok, if you know what I mean.
- **7443**: Okay, to the east--we've got a few houses on the left, a few merchant stalls on the right...
- **7444**: Oh, those merchants don't have much to sell, by the way. They're only useful if you want to sell off stuff you don't need and go back outside right away.
- **7445**: Right, further on down the stairs is...the North Gate!
- **7446**: You can get missions from the guards there or ask to join in conquests.
- **7447**: Just south of the square is one of our major landmarks, the drawbridge!
- **7448**: It's gotta be drawn up when airships come in, so be careful. The residential area on the other side is where your room is. Go there if you need to store stuff.
- **7449**: Oh, but you have to be a Bastoker or have a Rent-a-Room to do that.
- **7450**: That's about it. Come back if you have any more questions, all right?

## Events

### Event 65535

#### Metadata

| Field        | Value   |
|--------------|---------|
| Entrypoint   | 0x0000  |
| Data Size    | 1 bytes |
| Instructions | 1       |

```
      00 01 02 03 04 05 06 07  08 09 0A 0B 0C 0D 0E 0F
      -- -- -- -- -- -- -- --  -- -- -- -- -- -- -- --
0000: 00                                                .               
```

#### Opcodes

```
  0: 0x0000 [0x00] END_REQSTACK()
```

### Event 16

#### Metadata

| Field        | Value     |
|--------------|-----------|
| Entrypoint   | 0x0001    |
| Data Size    | 608 bytes |
| Instructions | 97        |

```
      00 01 02 03 04 05 06 07  08 09 0A 0B 0C 0D 0E 0F
      -- -- -- -- -- -- -- --  -- -- -- -- -- -- -- --
0000:    1E F0 FF FF 7F 1D 00  80 23 24 01 80 02 80 02   ........#$.....
0010: 80 25 02 00 10 02 80 00  21 00 1D 03 80 23 01 5F  .%......!....#._
0020: 02 02 00 10 04 80 00 74  01 42 39 05 80 45 06 80  .......t.B9..E..
0030: F8 FF FF 7F F8 FF FF 7F  66 64 6F 30 02 80 1C 07  ........fdo0....
0040: 80 46 01 45 08 80 F8 FF  FF 7F F8 FF FF 7F 73 30  .F.E..........s0
0050: 36 30 02 80 1C 09 80 45  06 80 F8 FF FF 7F F8 FF  60.....E........
0060: FF 7F 66 64 69 30 02 80  1C 09 80 55 08 80 F8 FF  ..fdi0.....U....
0070: FF 7F F8 FF FF 7F 73 30  36 30 45 08 80 F8 FF FF  ......s060E.....
0080: 7F F8 FF FF 7F 73 30 36  31 02 80 1D 0A 80 23 1D  .....s061.....#.
0090: 0B 80 23 1D 0C 80 23 55  08 80 F8 FF FF 7F F8 FF  ..#...#U........
00A0: FF 7F 73 30 36 31 45 08  80 F8 FF FF 7F F8 FF FF  ..s061E.........
00B0: 7F 73 30 36 32 02 80 1D  0D 80 23 1D 0E 80 23 55  .s062.....#...#U
00C0: 08 80 F8 FF FF 7F F8 FF  FF 7F 73 30 36 32 45 08  ..........s062E.
00D0: 80 F8 FF FF 7F F8 FF FF  7F 73 30 36 33 02 80 1D  .........s063...
00E0: 0F 80 23 55 08 80 F8 FF  FF 7F F8 FF FF 7F 73 30  ..#U..........s0
00F0: 36 33 45 08 80 F8 FF FF  7F F8 FF FF 7F 73 30 36  63E..........s06
0100: 34 02 80 1D 10 80 23 55  08 80 F8 FF FF 7F F8 FF  4.....#U........
0110: FF 7F 73 30 36 34 45 08  80 F8 FF FF 7F F8 FF FF  ..s064E.........
0120: 7F 73 30 36 35 02 80 1D  11 80 23 1D 12 80 23 55  .s065.....#...#U
0130: 08 80 F8 FF FF 7F F8 FF  FF 7F 73 30 36 35 45 06  ..........s065E.
0140: 80 F8 FF FF 7F F8 FF FF  7F 66 64 6F 30 02 80 1C  .........fdo0...
0150: 07 80 46 00 1C 07 80 45  06 80 F8 FF FF 7F F8 FF  ..F....E........
0160: FF 7F 66 64 69 30 02 80  1E F0 FF FF 7F 1D 13 80  ..fdi0..........
0170: 23 01 5F 02 02 00 10 14  80 00 5F 02 42 39 15 80  #._......._.B9..
0180: 45 06 80 F8 FF FF 7F F8  FF FF 7F 66 64 6F 30 02  E..........fdo0.
0190: 80 1C 07 80 46 01 1C 09  80 45 06 80 F8 FF FF 7F  ....F....E......
01A0: F8 FF FF 7F 66 64 69 30  02 80 45 08 80 F8 FF FF  ....fdi0..E.....
01B0: 7F F8 FF FF 7F 73 30 36  61 02 80 1C 07 80 1D 16  .....s06a.......
01C0: 80 23 1D 17 80 23 55 08  80 F8 FF FF 7F F8 FF FF  .#...#U.........
01D0: 7F 73 30 36 61 45 08 80  F8 FF FF 7F F8 FF FF 7F  .s06aE..........
01E0: 73 30 36 62 02 80 1D 18  80 23 1D 19 80 23 55 08  s06b.....#...#U.
01F0: 80 F8 FF FF 7F F8 FF FF  7F 73 30 36 62 45 08 80  .........s06bE..
0200: F8 FF FF 7F F8 FF FF 7F  73 30 36 63 02 80 1D 1A  ........s06c....
0210: 80 23 1D 1B 80 23 1D 1C  80 23 55 08 80 F8 FF FF  .#...#...#U.....
0220: 7F F8 FF FF 7F 73 30 36  63 45 06 80 F8 FF FF 7F  .....s06cE......
0230: F8 FF FF 7F 66 64 6F 30  02 80 1C 07 80 46 00 1C  ....fdo0.....F..
0240: 07 80 45 06 80 F8 FF FF  7F F8 FF FF 7F 66 64 69  ..E..........fdi
0250: 30 02 80 1E F0 FF FF 7F  1D 13 80 23 01 5F 02 21  0..........#._.!
0260: 00                                                .               
```

#### Opcodes

```
  0: 0x0001 [0x1E] EventEntity looks at LocalPlayer and starts talking
  1: 0x0006 [0x1D] PRINT_EVENT_MESSAGE(message_id=7431*)
    → "You lost? Where you goin'?"
  2: 0x0009 [0x23] WAIT_FOR_DIALOG_INTERACTION
  3: 0x000A [0x24] CREATE_DIALOG(message_id=7432*, default_option=0*, option_flags=0*)
    → "Which area do you want to ask about? [None./The western section./The eastern section.]"
  4: 0x0011 [0x25] WAIT_DIALOG_SELECT()
  5: 0x0012 [0x02] IF !(Work_Zone[0] == 0*) GOTO 0x0021
  6: 0x001A [0x1D] PRINT_EVENT_MESSAGE(message_id=7433*)
    → "All-righty. Come back anytime. Have a nice day."
  7: 0x001D [0x23] WAIT_FOR_DIALOG_INTERACTION
  8: 0x001E [0x01] GOTO 0x025F
  9: 0x0021 [0x02] IF !(Work_Zone[0] == 1*) GOTO 0x0174
 10: 0x0029 [0x42] SET_CLI_EVENT_CANCEL_DATA()
 11: 0x002A [0x39] SET_ENTITY_DIRECTION(direction=11.7°*)
 12: 0x002D [0x45] LOAD_SCHEDULED_TASK: Load scheduler "fdo0" with entities [EventEntity, EventEntity], work=[200*, 0*]
 13: 0x003E [0x1C] WAIT(30* ticks)
 14: 0x0041 [0x46] CAMERA_CONTROL: Disable user control
 15: 0x0043 [0x45] LOAD_SCHEDULED_TASK: Load scheduler "s060" with entities [EventEntity, EventEntity], work=[136*, 0*]
 16: 0x0054 [0x1C] WAIT(15* ticks)
 17: 0x0057 [0x45] LOAD_SCHEDULED_TASK: Load scheduler "fdi0" with entities [EventEntity, EventEntity], work=[200*, 0*]
 18: 0x0068 [0x1C] WAIT(15* ticks)
 19: 0x006B [0x55] WAIT_LOAD_SCHEDULER: Wait for scheduler "s060" with entities [EventEntity, EventEntity], work=136*
 20: 0x007A [0x45] LOAD_SCHEDULED_TASK: Load scheduler "s061" with entities [EventEntity, EventEntity], work=[136*, 0*]
 21: 0x008B [0x1D] PRINT_EVENT_MESSAGE(message_id=7434*)
    → "All right, let's see... See all those doors to the west, there?"
 22: 0x008E [0x23] WAIT_FOR_DIALOG_INTERACTION
 23: 0x008F [0x1D] PRINT_EVENT_MESSAGE(message_id=7435*)
    → "The ones on the right are your run-of-the-mill warehouses. Some real shady characters've been seen going in there, so you be careful, all right?"
 24: 0x0092 [0x23] WAIT_FOR_DIALOG_INTERACTION
 25: 0x0093 [0x1D] PRINT_EVENT_MESSAGE(message_id=7436*)
    → "On the left you've got the air travel agency, or "the door to the world," as they say. You need an airship pass to get in, though. And not through that door, either--that's the exit. Heh-heh."
 26: 0x0096 [0x23] WAIT_FOR_DIALOG_INTERACTION
 27: 0x0097 [0x55] WAIT_LOAD_SCHEDULER: Wait for scheduler "s061" with entities [EventEntity, EventEntity], work=136*
 28: 0x00A6 [0x45] LOAD_SCHEDULED_TASK: Load scheduler "s062" with entities [EventEntity, EventEntity], work=[136*, 0*]
 29: 0x00B7 [0x1D] PRINT_EVENT_MESSAGE(message_id=7437*)
    → "The entrance is around the corner. Once you're in, you gotta walk down to the pier to get on airships."
 30: 0x00BA [0x23] WAIT_FOR_DIALOG_INTERACTION
 31: 0x00BB [0x1D] PRINT_EVENT_MESSAGE(message_id=7438*)
    → "Airships there only go to Jeuno--but of course, you knew that, right?"
 32: 0x00BE [0x23] WAIT_FOR_DIALOG_INTERACTION
 33: 0x00BF [0x55] WAIT_LOAD_SCHEDULER: Wait for scheduler "s062" with entities [EventEntity, EventEntity], work=136*
 34: 0x00CE [0x45] LOAD_SCHEDULED_TASK: Load scheduler "s063" with entities [EventEntity, EventEntity], work=[136*, 0*]
 35: 0x00DF [0x1D] PRINT_EVENT_MESSAGE(message_id=7439*)
    → "A little further on, we have Galvin's Travel Gear--a goods shop. They've got a few things adventurers like yourself might need."
 36: 0x00E2 [0x23] WAIT_FOR_DIALOG_INTERACTION
 37: 0x00E3 [0x55] WAIT_LOAD_SCHEDULER: Wait for scheduler "s063" with entities [EventEntity, EventEntity], work=136*
 38: 0x00F2 [0x45] LOAD_SCHEDULED_TASK: Load scheduler "s064" with entities [EventEntity, EventEntity], work=[136*, 0*]
 39: 0x0103 [0x1D] PRINT_EVENT_MESSAGE(message_id=7440*)
    → "Above Galvin's, you've got the Steaming Sheep Restaurant, which most people just call "the tavern." It's a good place if you want to eat, drink, or hear a good story or two."
 40: 0x0106 [0x23] WAIT_FOR_DIALOG_INTERACTION
 41: 0x0107 [0x55] WAIT_LOAD_SCHEDULER: Wait for scheduler "s064" with entities [EventEntity, EventEntity], work=136*
 42: 0x0116 [0x45] LOAD_SCHEDULED_TASK: Load scheduler "s065" with entities [EventEntity, EventEntity], work=[136*, 0*]
 43: 0x0127 [0x1D] PRINT_EVENT_MESSAGE(message_id=7441*)
    → "And further down west...you'll come to a bridge. It leads to the Markets District, a nicer part of town."
 44: 0x012A [0x23] WAIT_FOR_DIALOG_INTERACTION
 45: 0x012B [0x1D] PRINT_EVENT_MESSAGE(message_id=7442*)
    → "You can get to both the Metalworks and the Mines District from the markets. It's like the crossroads of Bastok, if you know what I mean."
 46: 0x012E [0x23] WAIT_FOR_DIALOG_INTERACTION
 47: 0x012F [0x55] WAIT_LOAD_SCHEDULER: Wait for scheduler "s065" with entities [EventEntity, EventEntity], work=136*
 48: 0x013E [0x45] LOAD_SCHEDULED_TASK: Load scheduler "fdo0" with entities [EventEntity, EventEntity], work=[200*, 0*]
 49: 0x014F [0x1C] WAIT(30* ticks)
 50: 0x0152 [0x46] CAMERA_CONTROL: Restore default settings
 51: 0x0154 [0x1C] WAIT(30* ticks)
 52: 0x0157 [0x45] LOAD_SCHEDULED_TASK: Load scheduler "fdi0" with entities [EventEntity, EventEntity], work=[200*, 0*]
 53: 0x0168 [0x1E] EventEntity looks at LocalPlayer and starts talking
 54: 0x016D [0x1D] PRINT_EVENT_MESSAGE(message_id=7450*)
    → "That's about it. Come back if you have any more questions, all right?"
 55: 0x0170 [0x23] WAIT_FOR_DIALOG_INTERACTION
 56: 0x0171 [0x01] GOTO 0x025F
 57: 0x0174 [0x02] IF !(Work_Zone[0] == 2*) GOTO 0x025F
 58: 0x017C [0x42] SET_CLI_EVENT_CANCEL_DATA()
 59: 0x017D [0x39] SET_ENTITY_DIRECTION(direction=21.6°*)
 60: 0x0180 [0x45] LOAD_SCHEDULED_TASK: Load scheduler "fdo0" with entities [EventEntity, EventEntity], work=[200*, 0*]
 61: 0x0191 [0x1C] WAIT(30* ticks)
 62: 0x0194 [0x46] CAMERA_CONTROL: Disable user control
 63: 0x0196 [0x1C] WAIT(15* ticks)
 64: 0x0199 [0x45] LOAD_SCHEDULED_TASK: Load scheduler "fdi0" with entities [EventEntity, EventEntity], work=[200*, 0*]
 65: 0x01AA [0x45] LOAD_SCHEDULED_TASK: Load scheduler "s06a" with entities [EventEntity, EventEntity], work=[136*, 0*]
 66: 0x01BB [0x1C] WAIT(30* ticks)
 67: 0x01BE [0x1D] PRINT_EVENT_MESSAGE(message_id=7443*)
    → "Okay, to the east--we've got a few houses on the left, a few merchant stalls on the right..."
 68: 0x01C1 [0x23] WAIT_FOR_DIALOG_INTERACTION
 69: 0x01C2 [0x1D] PRINT_EVENT_MESSAGE(message_id=7444*)
    → "Oh, those merchants don't have much to sell, by the way. They're only useful if you want to sell off stuff you don't need and go back outside right away."
 70: 0x01C5 [0x23] WAIT_FOR_DIALOG_INTERACTION
 71: 0x01C6 [0x55] WAIT_LOAD_SCHEDULER: Wait for scheduler "s06a" with entities [EventEntity, EventEntity], work=136*
 72: 0x01D5 [0x45] LOAD_SCHEDULED_TASK: Load scheduler "s06b" with entities [EventEntity, EventEntity], work=[136*, 0*]
 73: 0x01E6 [0x1D] PRINT_EVENT_MESSAGE(message_id=7445*)
    → "Right, further on down the stairs is...the North Gate!"
 74: 0x01E9 [0x23] WAIT_FOR_DIALOG_INTERACTION
 75: 0x01EA [0x1D] PRINT_EVENT_MESSAGE(message_id=7446*)
    → "You can get missions from the guards there or ask to join in conquests."
 76: 0x01ED [0x23] WAIT_FOR_DIALOG_INTERACTION
 77: 0x01EE [0x55] WAIT_LOAD_SCHEDULER: Wait for scheduler "s06b" with entities [EventEntity, EventEntity], work=136*
 78: 0x01FD [0x45] LOAD_SCHEDULED_TASK: Load scheduler "s06c" with entities [EventEntity, EventEntity], work=[136*, 0*]
 79: 0x020E [0x1D] PRINT_EVENT_MESSAGE(message_id=7447*)
    → "Just south of the square is one of our major landmarks, the drawbridge!"
 80: 0x0211 [0x23] WAIT_FOR_DIALOG_INTERACTION
 81: 0x0212 [0x1D] PRINT_EVENT_MESSAGE(message_id=7448*)
    → "It's gotta be drawn up when airships come in, so be careful. The residential area on the other side is where your room is. Go there if you need to store stuff."
 82: 0x0215 [0x23] WAIT_FOR_DIALOG_INTERACTION
 83: 0x0216 [0x1D] PRINT_EVENT_MESSAGE(message_id=7449*)
    → "Oh, but you have to be a Bastoker or have a Rent-a-Room to do that."
 84: 0x0219 [0x23] WAIT_FOR_DIALOG_INTERACTION
 85: 0x021A [0x55] WAIT_LOAD_SCHEDULER: Wait for scheduler "s06c" with entities [EventEntity, EventEntity], work=136*
 86: 0x0229 [0x45] LOAD_SCHEDULED_TASK: Load scheduler "fdo0" with entities [EventEntity, EventEntity], work=[200*, 0*]
 87: 0x023A [0x1C] WAIT(30* ticks)
 88: 0x023D [0x46] CAMERA_CONTROL: Restore default settings
 89: 0x023F [0x1C] WAIT(30* ticks)
 90: 0x0242 [0x45] LOAD_SCHEDULED_TASK: Load scheduler "fdi0" with entities [EventEntity, EventEntity], work=[200*, 0*]
 91: 0x0253 [0x1E] EventEntity looks at LocalPlayer and starts talking
 92: 0x0258 [0x1D] PRINT_EVENT_MESSAGE(message_id=7450*)
    → "That's about it. Come back if you have any more questions, all right?"
 93: 0x025B [0x23] WAIT_FOR_DIALOG_INTERACTION
 94: 0x025C [0x01] GOTO 0x025F

SUBROUTINE_025F:
 95: 0x025F [0x21] END_EVENT
 96: 0x0260 [0x00] END_REQSTACK()
```

### Event 1

#### Metadata

| Field        | Value    |
|--------------|----------|
| Entrypoint   | 0x0261   |
| Data Size    | 10 bytes |
| Instructions | 2        |

```
      00 01 02 03 04 05 06 07  08 09 0A 0B 0C 0D 0E 0F
      -- -- -- -- -- -- -- --  -- -- -- -- -- -- -- --
0260:    37 1D 80 1E 80 1F 80  20 80 00                  7...... ..     
```

#### Opcodes

```
  0: 0x0261 [0x37] UPDATE_EVENT_POSITION_AND_DIR: x=-50.096*, z=17.741*, y=-2.101*, direction=185.6°*
  1: 0x026A [0x00] END_REQSTACK()
```

### Event 65535.1

#### Metadata

| Field        | Value    |
|--------------|----------|
| Entrypoint   | 0x026B   |
| Data Size    | 14 bytes |
| Instructions | 4        |

```
      00 01 02 03 04 05 06 07  08 09 0A 0B 0C 0D 0E 0F
      -- -- -- -- -- -- -- --  -- -- -- -- -- -- -- --
0260:                                   32 21 80 1F 00             2!...
0270: 22 80 23 80 1F 80 1F 01  00                       ".#......       
```

#### Opcodes

```
  0: 0x026B [0x32] ExtData[1]->MainSpeed = 13* * 0.1
  1: 0x026E [0x1F] MOVE_ENTITY: EventEntity moves to X=-108.939*, Z=16.940*, Y=-2.101*
  2: 0x0276 [0x1F] MOVE_ENTITY: Update entity position (mode=1)
  3: 0x0278 [0x00] END_REQSTACK()
```
