# 17743994 - Styi Palneh

## Common Data

| Field            | Value                 |
|------------------|-----------------------|
| Zone             | Port Bastok (ID: 236) |
| Block Size       | 2592 bytes            |
| Total Events     | 3                     |
| References Count | 161                   |

## List of Events

| Event ID              | Entrypoint   |   Size |   Instructions |
|-----------------------|--------------|--------|----------------|
| [65535](#event-65535) | 0x0000       |      1 |              1 |
| [201](#event-201)     | 0x0001       |     63 |             20 |
| [200](#event-200)     | 0x0040       |   1856 |            422 |

## DAT References (imed_data)

|   Index | Hex Value   |   Dec Value |
|---------|-------------|-------------|
|       0 | 0x001E      |          30 |
|       1 | 0x0001      |           1 |
|       2 | 0x0000      |           0 |
|       3 | 0x1E08      |        7688 |
|       4 | 0x1E09      |        7689 |
|       5 | 0x1E0D      |        7693 |
|       6 | 0x001F      |          31 |
|       7 | 0x0007      |           7 |
|       8 | 0x0002      |           2 |
|       9 | 0x0008      |           8 |
|      10 | 0x1E0A      |        7690 |
|      11 | 0x1E0B      |        7691 |
|      12 | 0xFFFFFFFE  |  4294967294 |
|      13 | 0x0003      |           3 |
|      14 | 0x0004      |           4 |
|      15 | 0x0005      |           5 |
|      16 | 0x0006      |           6 |
|      17 | 0x00C8      |         200 |
|      18 | 0x012C      |         300 |
|      19 | 0x0190      |         400 |
|      20 | 0x01F4      |         500 |
|      21 | 0x0258      |         600 |
|      22 | 0x02BC      |         700 |
|      23 | 0x1E0C      |        7692 |
|      24 | 0x40000000  |  1073741824 |
|      25 | 0x1E13      |        7699 |
|      26 | 0x1E10      |        7696 |
|      27 | 0x1E11      |        7697 |
|      28 | 0xFFFFFFFF  |  4294967295 |
|      29 | 0x0012      |          18 |
|      30 | 0x0013      |          19 |
|      31 | 0x0020      |          32 |
|      32 | 0x0021      |          33 |
|      33 | 0x0010      |          16 |
|      34 | 0x0026      |          38 |
|      35 | 0x0027      |          39 |
|      36 | 0x0028      |          40 |
|      37 | 0x0029      |          41 |
|      38 | 0x0039      |          57 |
|      39 | 0x0016      |          22 |
|      40 | 0x1E17      |        7703 |
|      41 | 0x01A6      |         422 |
|      42 | 0x017A      |         378 |
|      43 | 0x012E      |         302 |
|      44 | 0x01B1      |         433 |
|      45 | 0x01D3      |         467 |
|      46 | 0x01D4      |         468 |
|      47 | 0x00A4      |         164 |
|      48 | 0x00A6      |         166 |
|      49 | 0x00A7      |         167 |
|      50 | 0x00A8      |         168 |
|      51 | 0x00A9      |         169 |
|      52 | 0x019B      |         411 |
|      53 | 0x1E14      |        7700 |
|      54 | 0x1E16      |        7702 |
|      55 | 0x0014      |          20 |
|      56 | 0x03AF      |         943 |
|      57 | 0x008A      |         138 |
|      58 | 0x0009      |           9 |
|      59 | 0x030D      |         781 |
|      60 | 0x0313      |         787 |
|      61 | 0x0240      |         576 |
|      62 | 0x038E      |         910 |
|      63 | 0x09C4      |        2500 |
|      64 | 0x0909      |        2313 |
|      65 | 0x3CAD      |       15533 |
|      66 | 0x1E15      |        7701 |
|      67 | 0x0011      |          17 |
|      68 | 0x1E0F      |        7695 |
|      69 | 0x00CE      |         206 |
|      70 | 0x0051      |          81 |
|      71 | 0x0053      |          83 |
|      72 | 0x0054      |          84 |
|      73 | 0x0056      |          86 |
|      74 | 0x0057      |          87 |
|      75 | 0x0058      |          88 |
|      76 | 0x005C      |          92 |
|      77 | 0x0062      |          98 |
|      78 | 0x0063      |          99 |
|      79 | 0x0064      |         100 |
|      80 | 0x0067      |         103 |
|      81 | 0x006B      |         107 |
|      82 | 0x00D7      |         215 |
|      83 | 0x0123      |         291 |
|      84 | 0x012F      |         303 |
|      85 | 0x0130      |         304 |
|      86 | 0x0131      |         305 |
|      87 | 0x0176      |         374 |
|      88 | 0x037E      |         894 |
|      89 | 0x0052      |          82 |
|      90 | 0x0055      |          85 |
|      91 | 0x0059      |          89 |
|      92 | 0x0060      |          96 |
|      93 | 0x006C      |         108 |
|      94 | 0x0068      |         104 |
|      95 | 0x0120      |         288 |
|      96 | 0x00CF      |         207 |
|      97 | 0x005A      |          90 |
|      98 | 0x005B      |          91 |
|      99 | 0x005D      |          93 |
|     100 | 0x005F      |          95 |
|     101 | 0x0061      |          97 |
|     102 | 0x0065      |         101 |
|     103 | 0x006A      |         106 |
|     104 | 0x00D8      |         216 |
|     105 | 0x015A      |         346 |
|     106 | 0x005E      |          94 |
|     107 | 0x0031      |          49 |
|     108 | 0x006D      |         109 |
|     109 | 0x00D2      |         210 |
|     110 | 0x00BF      |         191 |
|     111 | 0x0066      |         102 |
|     112 | 0x0069      |         105 |
|     113 | 0x00D0      |         208 |
|     114 | 0x00D9      |         217 |
|     115 | 0x0155      |         341 |
|     116 | 0x0175      |         373 |
|     117 | 0x0173      |         371 |
|     118 | 0x0469      |        1129 |
|     119 | 0x046E      |        1134 |
|     120 | 0x0474      |        1140 |
|     121 | 0x047A      |        1146 |
|     122 | 0x047B      |        1147 |
|     123 | 0x047C      |        1148 |
|     124 | 0x00DA      |         218 |
|     125 | 0x00DB      |         219 |
|     126 | 0x00C6      |         198 |
|     127 | 0x0113      |         275 |
|     128 | 0x00E0      |         224 |
|     129 | 0x0128      |         296 |
|     130 | 0x012A      |         298 |
|     131 | 0x01EE      |         494 |
|     132 | 0x0310      |         784 |
|     133 | 0x0339      |         825 |
|     134 | 0x03D4      |         980 |
|     135 | 0x03FE      |        1022 |
|     136 | 0x03FF      |        1023 |
|     137 | 0x0400      |        1024 |
|     138 | 0x00EC      |         236 |
|     139 | 0x00ED      |         237 |
|     140 | 0x00EE      |         238 |
|     141 | 0x00EF      |         239 |
|     142 | 0x00F0      |         240 |
|     143 | 0x00F1      |         241 |
|     144 | 0x00F2      |         242 |
|     145 | 0x00F3      |         243 |
|     146 | 0x00F4      |         244 |
|     147 | 0x00F5      |         245 |
|     148 | 0x0139      |         313 |
|     149 | 0x013A      |         314 |
|     150 | 0x013B      |         315 |
|     151 | 0x0241      |         577 |
|     152 | 0x013C      |         316 |
|     153 | 0x013D      |         317 |
|     154 | 0x013E      |         318 |
|     155 | 0x0242      |         578 |
|     156 | 0x0142      |         322 |
|     157 | 0x0143      |         323 |
|     158 | 0x0144      |         324 |
|     159 | 0x0244      |         580 |
|     160 | 0x0269      |         617 |

## String References

- **7688**: $6, a hero's story! The deeds of %0, in all their gloryt
- **7689**: A traveling bard walks far and near While wand'ring this celestial sphere From bustling towns to godforsaken lands. But none I love more than the swell Inhabitants of Vana'diel, Espec'lly when their gil comes to my hands.t
- **7690**: Pay me what you think I'm worth And songs of legend may spring forth.t
- **7691**: Open your ears and take a ration Of my melodic cantillation.t
- **7692**: How much will you give the bard? [Nothing./$0 gil./$1 gil./$2 gil./$3 gil./$4 gil./$5 gil./Let the bard decide your title./Unlock achievement.]
- **7693**: I cannot weave a ballad fair Out of moonbeams and thin air.t
- **7695**: Which title do you return to? [None./$1./$2./$3./$4./$5./$6./$7./$8./$9./$10./$11./$12./$13./$14./$15./$16./$17./$18./$19./$20./$21./$22./$23./$24./$25./$26./$27./$28.]
- **7696**: I'll add you to my repertoire And sing of you! So, au revoir!t
- **7697**: The power of song, a mystical thing That comes forth only when you sing. A minstrel's job in life is never done. So sing a doodle-doodle-lay And be upon your merry way-- And check your title, too, oh worthy one.t
- **7699**: Oh, what a soul, intrepid and bold To care not how your name is toldt
- **7700**: Unlock which achievement? [None./Job Level./Synthesis Skill 100./San d'Oria Rank 10./Bastok Rank 10./Windurst Rank 10./Zilart Missions./Promathia Missions./Aht Urhgan Missions./Mercenary Rank./$27./$28./$29./$30./$31./$32./$33./$34./$35./$36./$37./$38./View next page.]
- **7701**: Unlock which achievement? [None./Artifact related Quests./Guildworkers' Union Entry./Wings of the Goddess Missions./Past Vana'diel Nation Quests./$3./$3./$3./$3./$3./$3./$3./$3./Support Jobs./Extra Jobs./$16./$17./$18.]
- **7702**: Unlock which achievement? [None./Level 75 Warrior./Level 75 Monk./Level 75 White Mage./Level 75 Black Mage./Level 75 Red Mage./Level 75 Thief./Level 75 Paladin./Level 75 Dark Knight./Level 75 Beastmaster./Level 75 Bard./Level 75 Ranger./Level 75 Samurai./Level 75 Ninja./Level 75 Dragoon./Level 75 Summoner./Level 75 Blue Mage./Level 75 Corsair./Level 75 Puppetmaster./Level 75 Dancer./Level 75 Scholar.]
- **7703**: You have no achievements to unlock.

## Events

### Event 65535

#### Metadata

| Field        | Value   |
|--------------|---------|
| Entrypoint   | 0x0000  |
| Data Size    | 1 bytes |
| Instructions | 1       |

```
      00 01 02 03 04 05 06 07  08 09 0A 0B 0C 0D 0E 0F
      -- -- -- -- -- -- -- --  -- -- -- -- -- -- -- --
0000: 00                                                .               
```

#### Opcodes

```
  0: 0x0000 [0x00] END_REQSTACK()
```

### Event 201

#### Metadata

| Field        | Value    |
|--------------|----------|
| Entrypoint   | 0x0001   |
| Data Size    | 63 bytes |
| Instructions | 20       |

```
      00 01 02 03 04 05 06 07  08 09 0A 0B 0C 0D 0E 0F
      -- -- -- -- -- -- -- --  -- -- -- -- -- -- -- --
0000:    1C 00 80 86 01 F8 FF  FF 7F 1E F0 FF FF 7F 6F   ..............o
0010: 70 3E 08 10 00 80 25 00  3D 08 10 00 80 01 80 05  p>....%.=.......
0020: 01 17 01 28 00 06 01 17  02 08 10 02 80 01 34 00  ...(..........4.
0030: 1D 03 80 23 1D 04 80 23  1D 05 80 23 20 00 21 00  ...#...#...# .!.
```

#### Opcodes

```
  0: 0x0001 [0x1C] WAIT(30* ticks)
  1: 0x0004 [0x86] EventEntity->Render.Flags3 ^= 0x01
  2: 0x000A [0x1E] EventEntity looks at LocalPlayer and starts talking
  3: 0x000F [0x6F] WAIT_FRAME_DELAY: Yield until WaitTime reaches zero
  4: 0x0010 [0x70] WAIT_ENTITY_RENDER_FLAG: Wait while EventEntity->Render.Flags3 bit 2 is set (cancel turn if not)
  5: 0x0011 [0x3E] IF !(Work_Zone[8] bit 30*) GOTO 0x0025
  6: 0x0018 [0x3D] CLEAR_BIT_FLAG_CONDITIONAL(target_work_offset=Work_Zone[8], bit_index_work_offset=30*, condition_work_offset=1*)
  7: 0x001F [0x05] Work_Zone_1700[1] = 1
  8: 0x0022 [0x01] GOTO 0x0028
  9: 0x0025 [0x06] Work_Zone_1700[1] = 0

SUBROUTINE_0028:
 10: 0x0028 [0x02] IF !(Work_Zone[8] == 0*) GOTO 0x0034
 11: 0x0030 [0x1D] PRINT_EVENT_MESSAGE(message_id=7688*)
    → "$6, a hero's story! The deeds of %0, in all their gloryt"
 12: 0x0033 [0x23] WAIT_FOR_DIALOG_INTERACTION
 13: 0x0034 [0x1D] PRINT_EVENT_MESSAGE(message_id=7689*)
    → "A traveling bard walks far and near While wand'ring this celestial sphere From bustling towns to godforsaken lands. But none I love more than the swell Inhabitants of Vana'diel, Espec'lly when their gil comes to my hands.t"
 14: 0x0037 [0x23] WAIT_FOR_DIALOG_INTERACTION
 15: 0x0038 [0x1D] PRINT_EVENT_MESSAGE(message_id=7693*)
    → "I cannot weave a ballad fair Out of moonbeams and thin air.t"
 16: 0x003B [0x23] WAIT_FOR_DIALOG_INTERACTION
 17: 0x003C [0x20] SET_CLI_EVENT_UC_FLAG: Unlock player control
 18: 0x003E [0x21] END_EVENT
 19: 0x003F [0x00] END_REQSTACK()
```

### Event 200

#### Metadata

| Field        | Value      |
|--------------|------------|
| Entrypoint   | 0x0040     |
| Data Size    | 1856 bytes |
| Instructions | 300        |

```
      00 01 02 03 04 05 06 07  08 09 0A 0B 0C 0D 0E 0F
      -- -- -- -- -- -- -- --  -- -- -- -- -- -- -- --
0040: 1C 00 80 86 01 F8 FF FF  7F 1E F0 FF FF 7F 6F 70  ..............op
0050: 3E 08 10 00 80 64 00 3D  08 10 00 80 01 80 05 01  >....d.=........
0060: 17 01 67 00 06 01 17 06  00 00 3E 08 10 06 80 7B  ..g.......>....{
0070: 00 3D 08 10 06 80 01 80  01 82 00 3C 00 00 07 80  .=.........<....
0080: 01 80 B1 02 0A 00 02 0A  00 08 80 00 98 00 3D 00  ..............=.
0090: 00 09 80 01 80 01 9F 00  3C 00 00 09 80 01 80 02  ........<.......
00A0: 08 10 02 80 01 AB 00 1D  03 80 23 1D 04 80 23 1D  ..........#...#.
00B0: 0A 80 23 1D 0B 80 23 02  02 10 0C 80 00 C6 00 3C  ..#...#........<
00C0: 00 00 01 80 01 80 02 03  10 0C 80 00 D5 00 3C 00  ..............<.
00D0: 00 08 80 01 80 02 04 10  0C 80 00 E4 00 3C 00 00  .............<..
00E0: 0D 80 01 80 02 05 10 0C  80 00 F3 00 3C 00 00 0E  ............<...
00F0: 80 01 80 02 06 10 0C 80  00 02 01 3C 00 00 0F 80  ...........<....
0100: 01 80 02 07 10 0C 80 00  11 01 3C 00 00 10 80 01  ..........<.....
0110: 80 03 01 00 02 10 03 02  00 03 10 03 03 00 04 10  ................
0120: 03 04 00 05 10 03 05 00  06 10 03 06 00 07 10 03  ................
0130: 02 10 11 80 03 03 10 12  80 03 04 10 13 80 03 05  ................
0140: 10 14 80 03 06 10 15 80  03 07 10 16 80 24 17 80  .............$..
0150: 02 80 00 00 25 02 00 10  02 80 00 67 01 03 01 10  ....%......g....
0160: 18 80 21 00 01 1E 05 02  00 10 01 80 00 95 01 02  ..!.............
0170: 09 10 11 80 03 82 01 1D  05 80 23 03 01 10 18 80  ..........#.....
0180: 21 00 03 00 00 01 00 03  08 00 02 80 1A 56 05 1A  !............V..
0190: AE 05 01 1E 05 02 00 10  08 80 00 C3 01 02 09 10  ................
01A0: 12 80 03 B0 01 1D 05 80  23 03 01 10 18 80 21 00  ........#.....!.
01B0: 03 00 00 02 00 03 08 00  01 80 1A 56 05 1A 13 06  ...........V....
01C0: 01 1E 05 02 00 10 0D 80  00 F1 01 02 09 10 13 80  ................
01D0: 03 DE 01 1D 05 80 23 03  01 10 18 80 21 00 03 00  ......#.....!...
01E0: 00 03 00 03 08 00 08 80  1A 56 05 1A 69 06 01 1E  .........V..i...
01F0: 05 02 00 10 0E 80 00 1F  02 02 09 10 14 80 03 0C  ................
0200: 02 1D 05 80 23 03 01 10  18 80 21 00 03 00 00 04  ....#.....!.....
0210: 00 03 08 00 0D 80 1A 56  05 1A C4 06 01 1E 05 02  .......V........
0220: 00 10 0F 80 00 4D 02 02  09 10 15 80 03 3A 02 1D  .....M.......:..
0230: 05 80 23 03 01 10 18 80  21 00 03 00 00 05 00 03  ..#.....!.......
0240: 08 00 0E 80 1A 56 05 1A  0B 07 01 1E 05 02 00 10  .....V..........
0250: 10 80 00 7B 02 02 09 10  16 80 03 68 02 1D 05 80  ...{.......h....
0260: 23 03 01 10 18 80 21 00  03 00 00 06 00 03 08 00  #.....!.........
0270: 0F 80 1A 56 05 1A 7A 07  01 1E 05 02 00 10 07 80  ...V..z.........
0280: 00 99 02 1D 19 80 23 1D  1A 80 23 1D 1B 80 23 03  ......#...#...#.
0290: 01 10 1C 80 21 00 01 1E  05 02 00 10 09 80 00 1E  ....!...........
02A0: 05 43 00 43 01 B1 02 0A  00 02 0A 00 08 80 00 B1  .C.C............
02B0: 03 03 0F 00 01 80 06 0B  00 02 0F 00 1D 80 05 DC  ................
02C0: 02 B1 04 0F 00 10 00 02  10 00 02 80 01 D6 02 3C  ...............<
02D0: 0B 00 0F 00 01 80 0B 0F  00 01 B9 02 06 0C 00 03  ................
02E0: 0F 00 1E 80 03 0E 00 08  80 02 0F 00 1F 80 05 0F  ................
02F0: 03 B1 04 0F 00 10 00 02  10 00 02 80 01 06 03 3C  ...............<
0300: 0C 00 0E 00 01 80 0B 0F  00 0B 0E 00 01 E9 02 03  ................
0310: 0F 00 20 80 03 0E 00 21  80 02 0F 00 22 80 05 3F  .. ....!...."..?
0320: 03 B1 04 0F 00 10 00 02  10 00 02 80 01 36 03 3C  .............6.<
0330: 0C 00 0E 00 01 80 0B 0F  00 0B 0E 00 01 19 03 03  ................
0340: 0F 00 23 80 03 0E 00 1E  80 02 0F 00 24 80 05 6F  ..#.........$..o
0350: 03 B1 04 0F 00 10 00 02  10 00 02 80 01 66 03 3C  .............f.<
0360: 0B 00 0E 00 01 80 0B 0F  00 0B 0E 00 01 49 03 06  .............I..
0370: 0D 00 03 0F 00 25 80 03  0E 00 01 80 02 0F 00 26  .....%.........&
0380: 80 05 A2 03 B1 04 0F 00  10 00 02 10 00 02 80 01  ................
0390: 99 03 3C 0D 00 0E 00 01  80 0B 0F 00 0B 0E 00 01  ..<.............
03A0: 7C 03 0E 02 10 0B 00 0E  03 10 0C 00 0E 04 10 0D  |...............
03B0: 00 02 02 10 0C 80 00 C3  03 3C 03 10 01 80 01 80  .........<......
03C0: 01 CA 03 3D 03 10 01 80  01 80 02 04 10 0C 80 00  ...=............
03D0: DC 03 3C 03 10 27 80 01  80 01 E3 03 3D 03 10 27  ..<..'......=..'
03E0: 80 01 80 02 02 10 0C 80  00 01 04 02 03 10 0C 80  ................
03F0: 00 01 04 02 04 10 0C 80  00 01 04 1D 28 80 23 21  ............(.#!
0400: 00 03 13 17 29 80 03 14  17 2A 80 03 15 17 2B 80  ....)....*....+.
0410: 03 16 17 2C 80 03 17 17  2D 80 03 18 17 2E 80 03  ...,....-.......
0420: 19 17 2F 80 03 1A 17 30  80 03 1B 17 31 80 03 1C  ../....0....1...
0430: 17 32 80 03 1D 17 33 80  03 1E 17 34 80 24 35 80  .2....3....4.$5.
0440: 02 80 03 10 25 02 00 10  02 80 00 57 04 03 01 10  ....%......W....
0450: 18 80 21 00 01 FA 04 02  00 10 01 80 00 91 04 24  ..!............$
0460: 36 80 02 80 02 10 25 02  00 10 02 80 00 79 04 03  6.....%......y..
0470: 01 10 18 80 21 00 01 79  04 03 0F 00 00 10 02 00  ....!..y........
0480: 10 1D 80 02 8B 04 07 0F  00 37 80 01 04 05 01 FA  .........7......
0490: 04 02 00 10 27 80 00 FA  04 03 00 17 38 80 03 01  ....'.......8...
04A0: 17 39 80 03 02 17 09 80  03 03 17 3A 80 03 04 17  .9.........:....
04B0: 3B 80 03 05 17 3C 80 03  06 17 3D 80 03 07 17 3E  ;....<....=....>
04C0: 80 03 08 17 3F 80 03 09  17 40 80 03 0A 17 41 80  ....?....@....A.
04D0: 24 42 80 02 80 04 10 25  02 00 10 02 80 00 EA 04  $B.....%........
04E0: 03 01 10 18 80 21 00 01  EA 04 03 0F 00 00 10 07  .....!..........
04F0: 0F 00 24 80 01 04 05 01  FA 04 03 0F 00 00 10 07  ..$.............
0500: 0F 00 43 80 B1 04 0F 00  10 00 02 10 00 02 80 00  ..C.............
0510: 19 05 B1 03 0F 00 01 A5  02 21 00 01 1E 05 24 44  .........!....$D
0520: 80 02 80 00 00 25 02 00  10 02 80 00 38 05 03 01  .....%......8...
0530: 10 18 80 21 00 01 38 05  03 07 00 00 10 03 01 10  ...!..8.........
0540: 08 00 10 01 10 09 80 07  01 10 07 00 1D 1A 80 23  ...............#
0550: 1D 1B 80 23 21 00 06 02  10 06 03 10 06 04 10 06  ...#!...........
0560: 05 10 06 06 10 06 07 10  06 08 10 06 09 10 06 00  ................
0570: 17 06 01 17 06 02 17 06  03 17 06 04 17 06 05 17  ................
0580: 06 06 17 06 07 17 06 08  17 06 09 17 06 0A 17 06  ................
0590: 0B 17 06 0C 17 06 0D 17  06 0E 17 06 0F 17 06 10  ................
05A0: 17 06 11 17 06 12 17 06  13 17 06 14 17 1B 03 03  ................
05B0: 10 45 80 03 04 10 46 80  03 05 10 47 80 03 06 10  .E....F....G....
05C0: 48 80 03 07 10 49 80 03  08 10 4A 80 03 09 10 4B  H....I....J....K
05D0: 80 03 00 17 4C 80 03 01  17 4D 80 03 02 17 4E 80  ....L....M....N.
05E0: 03 03 17 4F 80 03 04 17  50 80 03 05 17 51 80 03  ...O....P....Q..
05F0: 06 17 52 80 03 07 17 53  80 03 08 17 54 80 03 09  ..R....S....T...
0600: 17 55 80 03 0A 17 56 80  03 0B 17 57 80 03 0C 17  .U....V....W....
0610: 58 80 1B 03 03 10 59 80  03 04 10 5A 80 03 05 10  X.....Y....Z....
0620: 5B 80 03 06 10 5C 80 03  07 10 5D 80 03 08 10 5E  [....\....]....^
0630: 80 03 09 10 5F 80 03 00  17 60 80 03 01 17 61 80  ...._....`....a.
0640: 03 02 17 62 80 03 03 17  63 80 03 04 17 64 80 03  ...b....c....d..
0650: 05 17 65 80 03 06 17 66  80 03 07 17 67 80 03 08  ..e....f....g...
0660: 17 68 80 03 09 17 69 80  1B 03 03 10 6A 80 03 04  .h....i.....j...
0670: 10 6B 80 03 05 10 6C 80  03 06 10 6D 80 03 07 10  .k....l....m....
0680: 6E 80 03 08 10 6F 80 03  09 10 70 80 03 00 17 71  n....o....p....q
0690: 80 03 01 17 72 80 03 02  17 73 80 03 03 17 74 80  ....r....s....t.
06A0: 03 04 17 75 80 03 05 17  76 80 03 06 17 77 80 03  ...u....v....w..
06B0: 07 17 78 80 03 08 17 79  80 03 09 17 7A 80 03 0A  ..x....y....z...
06C0: 17 7B 80 1B 03 03 10 7C  80 03 04 10 7D 80 03 05  .{.....|....}...
06D0: 10 7E 80 03 06 10 7F 80  03 07 10 80 80 03 08 10  .~..............
06E0: 81 80 03 09 10 82 80 03  00 17 83 80 03 01 17 84  ................
06F0: 80 03 02 17 85 80 03 03  17 86 80 03 04 17 87 80  ................
0700: 03 05 17 88 80 03 06 17  89 80 1B 03 03 10 8A 80  ................
0710: 03 04 10 8B 80 03 05 10  8C 80 03 06 10 8D 80 03  ................
0720: 07 10 8E 80 03 08 10 8F  80 03 09 10 90 80 03 00  ................
0730: 17 91 80 03 01 17 92 80  03 02 17 93 80 03 03 17  ................
0740: 94 80 03 04 17 95 80 03  05 17 96 80 03 06 17 97  ................
0750: 80 03 07 17 98 80 03 08  17 99 80 03 09 17 9A 80  ................
0760: 03 0A 17 9B 80 03 0B 17  9C 80 03 0C 17 9D 80 03  ................
0770: 0D 17 9E 80 03 0E 17 9F  80 1B 03 03 10 A0 80 1B  ................
```

#### Opcodes

```
  0: 0x0040 [0x1C] WAIT(30* ticks)
  1: 0x0043 [0x86] EventEntity->Render.Flags3 ^= 0x01
  2: 0x0049 [0x1E] EventEntity looks at LocalPlayer and starts talking
  3: 0x004E [0x6F] WAIT_FRAME_DELAY: Yield until WaitTime reaches zero
  4: 0x004F [0x70] WAIT_ENTITY_RENDER_FLAG: Wait while EventEntity->Render.Flags3 bit 2 is set (cancel turn if not)
  5: 0x0050 [0x3E] IF !(Work_Zone[8] bit 30*) GOTO 0x0064
  6: 0x0057 [0x3D] CLEAR_BIT_FLAG_CONDITIONAL(target_work_offset=Work_Zone[8], bit_index_work_offset=30*, condition_work_offset=1*)
  7: 0x005E [0x05] Work_Zone_1700[1] = 1
  8: 0x0061 [0x01] GOTO 0x0067
  9: 0x0064 [0x06] Work_Zone_1700[1] = 0

SUBROUTINE_0067:
 10: 0x0067 [0x06] ExtData[1]->WorkLocal[0] = 0
 11: 0x006A [0x3E] IF !(Work_Zone[8] bit 31*) GOTO 0x007B
 12: 0x0071 [0x3D] CLEAR_BIT_FLAG_CONDITIONAL(target_work_offset=Work_Zone[8], bit_index_work_offset=31*, condition_work_offset=1*)
 13: 0x0078 [0x01] GOTO 0x0082
 14: 0x007B [0x3C] SET_BIT_FLAG_CONDITIONAL(target_work_offset=ExtData[1]->WorkLocal[0], bit_index_work_offset=7*, condition_work_offset=1*)

SUBROUTINE_0082:
 15: 0x0082 [0xB1] GET_APP_FLAG(flag_type=0x02, dest_offset=0x0A)
 16: 0x0086 [0x02] IF !(ExtData[1]->WorkLocal[10] == 2*) GOTO 0x0098
 17: 0x008E [0x3D] CLEAR_BIT_FLAG_CONDITIONAL(target_work_offset=ExtData[1]->WorkLocal[0], bit_index_work_offset=8*, condition_work_offset=1*)
 18: 0x0095 [0x01] GOTO 0x009F
 19: 0x0098 [0x3C] SET_BIT_FLAG_CONDITIONAL(target_work_offset=ExtData[1]->WorkLocal[0], bit_index_work_offset=8*, condition_work_offset=1*)

SUBROUTINE_009F:
 20: 0x009F [0x02] IF !(Work_Zone[8] == 0*) GOTO 0x00AB
 21: 0x00A7 [0x1D] PRINT_EVENT_MESSAGE(message_id=7688*)
    → "$6, a hero's story! The deeds of %0, in all their gloryt"
 22: 0x00AA [0x23] WAIT_FOR_DIALOG_INTERACTION
 23: 0x00AB [0x1D] PRINT_EVENT_MESSAGE(message_id=7689*)
    → "A traveling bard walks far and near While wand'ring this celestial sphere From bustling towns to godforsaken lands. But none I love more than the swell Inhabitants of Vana'diel, Espec'lly when their gil comes to my hands.t"
 24: 0x00AE [0x23] WAIT_FOR_DIALOG_INTERACTION
 25: 0x00AF [0x1D] PRINT_EVENT_MESSAGE(message_id=7690*)
    → "Pay me what you think I'm worth And songs of legend may spring forth.t"
 26: 0x00B2 [0x23] WAIT_FOR_DIALOG_INTERACTION
 27: 0x00B3 [0x1D] PRINT_EVENT_MESSAGE(message_id=7691*)
    → "Open your ears and take a ration Of my melodic cantillation.t"
 28: 0x00B6 [0x23] WAIT_FOR_DIALOG_INTERACTION
 29: 0x00B7 [0x02] IF !(Work_Zone[2] == 4294967294*) GOTO 0x00C6
 30: 0x00BF [0x3C] SET_BIT_FLAG_CONDITIONAL(target_work_offset=ExtData[1]->WorkLocal[0], bit_index_work_offset=1*, condition_work_offset=1*)
 31: 0x00C6 [0x02] IF !(Work_Zone[3] == 4294967294*) GOTO 0x00D5
 32: 0x00CE [0x3C] SET_BIT_FLAG_CONDITIONAL(target_work_offset=ExtData[1]->WorkLocal[0], bit_index_work_offset=2*, condition_work_offset=1*)
 33: 0x00D5 [0x02] IF !(Work_Zone[4] == 4294967294*) GOTO 0x00E4
 34: 0x00DD [0x3C] SET_BIT_FLAG_CONDITIONAL(target_work_offset=ExtData[1]->WorkLocal[0], bit_index_work_offset=3*, condition_work_offset=1*)
 35: 0x00E4 [0x02] IF !(Work_Zone[5] == 4294967294*) GOTO 0x00F3
 36: 0x00EC [0x3C] SET_BIT_FLAG_CONDITIONAL(target_work_offset=ExtData[1]->WorkLocal[0], bit_index_work_offset=4*, condition_work_offset=1*)
 37: 0x00F3 [0x02] IF !(Work_Zone[6] == 4294967294*) GOTO 0x0102
 38: 0x00FB [0x3C] SET_BIT_FLAG_CONDITIONAL(target_work_offset=ExtData[1]->WorkLocal[0], bit_index_work_offset=5*, condition_work_offset=1*)
 39: 0x0102 [0x02] IF !(Work_Zone[7] == 4294967294*) GOTO 0x0111
 40: 0x010A [0x3C] SET_BIT_FLAG_CONDITIONAL(target_work_offset=ExtData[1]->WorkLocal[0], bit_index_work_offset=6*, condition_work_offset=1*)
 41: 0x0111 [0x03] ExtData[1]->WorkLocal[1] = Work_Zone[2]
 42: 0x0116 [0x03] ExtData[1]->WorkLocal[2] = Work_Zone[3]
 43: 0x011B [0x03] ExtData[1]->WorkLocal[3] = Work_Zone[4]
 44: 0x0120 [0x03] ExtData[1]->WorkLocal[4] = Work_Zone[5]
 45: 0x0125 [0x03] ExtData[1]->WorkLocal[5] = Work_Zone[6]
 46: 0x012A [0x03] ExtData[1]->WorkLocal[6] = Work_Zone[7]
 47: 0x012F [0x03] Work_Zone[2] = 200*
 48: 0x0134 [0x03] Work_Zone[3] = 300*
 49: 0x0139 [0x03] Work_Zone[4] = 400*
 50: 0x013E [0x03] Work_Zone[5] = 500*
 51: 0x0143 [0x03] Work_Zone[6] = 600*
 52: 0x0148 [0x03] Work_Zone[7] = 700*
 53: 0x014D [0x24] CREATE_DIALOG(message_id=7692*, default_option=0*, option_flags=ExtData[1]->WorkLocal[0])
    → "How much will you give the bard? [Nothing./$0 gil./$1 gil./$2 gil./$3 gil./$4 gil./$5 gil./Let the bard decide your title./Unlock achievement.]"
 54: 0x0154 [0x25] WAIT_DIALOG_SELECT()
 55: 0x0155 [0x02] IF !(Work_Zone[0] == 0*) GOTO 0x0167
 56: 0x015D [0x03] Work_Zone[1] = 1073741824*
 57: 0x0162 [0x21] END_EVENT
 58: 0x0163 [0x00] END_REQSTACK()

SUBROUTINE_02A5:
 59: 0x02A5 [0xB1] GET_APP_FLAG(flag_type=0x02, dest_offset=0x0A)
 60: 0x02A9 [0x02] IF !(ExtData[1]->WorkLocal[10] == 2*) GOTO 0x03B1
 61: 0x02B1 [0x03] ExtData[1]->WorkLocal[15] = 1*
 62: 0x02B6 [0x06] ExtData[1]->WorkLocal[11] = 0
 63: 0x02B9 [0x02] IF !(ExtData[1]->WorkLocal[15] > 18*) GOTO 0x02DC
 64: 0x02C1 [0xB1] GET_APP_FLAG(flag_type=0x04, dest_offset=0x0F)
 65: 0x02C5 [0x10] 0x0200 <<= ExtData[1]->WorkLocal[16]
 66: 0x02CA [0x02] IF !(0x0180 UNKNOWN_COND_12 0x02D6) GOTO 0x000B
 67: 0x02D2 [0x0F] 0x0100 ^= 0x0B80
 68: 0x02D7 [0x0F] 0x0100 ^= 0x02B9
 69: 0x02DC [0x06] ExtData[1]->WorkLocal[12] = 0
 70: 0x02DF [0x03] ExtData[1]->WorkLocal[15] = 19*
 71: 0x02E4 [0x03] ExtData[1]->WorkLocal[14] = 2*

SUBROUTINE_02E9:
 72: 0x02E9 [0x02] IF !(ExtData[1]->WorkLocal[15] > 32*) GOTO 0x030F
 73: 0x02F1 [0xB1] GET_APP_FLAG(flag_type=0x04, dest_offset=0x0F)
 74: 0x02F5 [0x10] 0x0200 <<= ExtData[1]->WorkLocal[16]
 75: 0x02FA [0x02] IF !(0x0180 UNKNOWN_COND_12 0x0306) GOTO 0x000C
 76: 0x0302 [0x0E] 0x0100 |= 0x0B80
 77: 0x0307 [0x0F] 0x0B00 ^= ExtData[1]->WorkLocal[14]
 78: 0x030C [0x01] GOTO 0x02E9
 79: 0x030F [0x03] ExtData[1]->WorkLocal[15] = 33*
 80: 0x0314 [0x03] ExtData[1]->WorkLocal[14] = 16*

SUBROUTINE_0319:
 81: 0x0319 [0x02] IF !(ExtData[1]->WorkLocal[15] > 38*) GOTO 0x033F
 82: 0x0321 [0xB1] GET_APP_FLAG(flag_type=0x04, dest_offset=0x0F)
 83: 0x0325 [0x10] 0x0200 <<= ExtData[1]->WorkLocal[16]
 84: 0x032A [0x02] IF !(0x0180 UNKNOWN_COND_12 0x0336) GOTO 0x000C
 85: 0x0332 [0x0E] 0x0100 |= 0x0B80
 86: 0x0337 [0x0F] 0x0B00 ^= ExtData[1]->WorkLocal[14]
 87: 0x033C [0x01] GOTO 0x0319
 88: 0x033F [0x03] ExtData[1]->WorkLocal[15] = 39*
 89: 0x0344 [0x03] ExtData[1]->WorkLocal[14] = 19*

SUBROUTINE_0349:
 90: 0x0349 [0x02] IF !(ExtData[1]->WorkLocal[15] > 40*) GOTO 0x036F
 91: 0x0351 [0xB1] GET_APP_FLAG(flag_type=0x04, dest_offset=0x0F)
 92: 0x0355 [0x10] 0x0200 <<= ExtData[1]->WorkLocal[16]
 93: 0x035A [0x02] IF !(0x0180 UNKNOWN_COND_12 0x0366) GOTO 0x000B
 94: 0x0362 [0x0E] 0x0100 |= 0x0B80
 95: 0x0367 [0x0F] 0x0B00 ^= ExtData[1]->WorkLocal[14]
 96: 0x036C [0x01] GOTO 0x0349
 97: 0x036F [0x06] ExtData[1]->WorkLocal[13] = 0
 98: 0x0372 [0x03] ExtData[1]->WorkLocal[15] = 41*
 99: 0x0377 [0x03] ExtData[1]->WorkLocal[14] = 1*

SUBROUTINE_037C:
100: 0x037C [0x02] IF !(ExtData[1]->WorkLocal[15] > 57*) GOTO 0x03A2
101: 0x0384 [0xB1] GET_APP_FLAG(flag_type=0x04, dest_offset=0x0F)
102: 0x0388 [0x10] 0x0200 <<= ExtData[1]->WorkLocal[16]
103: 0x038D [0x02] IF !(0x0180 UNKNOWN_COND_12 0x0399) GOTO 0x000D
104: 0x0395 [0x0E] 0x0100 |= 0x0B80
105: 0x039A [0x0F] 0x0B00 ^= ExtData[1]->WorkLocal[14]
106: 0x039F [0x01] GOTO 0x037C
107: 0x03A2 [0x0E] Work_Zone[2] |= ExtData[1]->WorkLocal[11]
108: 0x03A7 [0x0E] Work_Zone[3] |= ExtData[1]->WorkLocal[12]
109: 0x03AC [0x0E] Work_Zone[4] |= ExtData[1]->WorkLocal[13]
110: 0x03B1 [0x02] IF !(Work_Zone[2] == 4294967294*) GOTO 0x03C3
111: 0x03B9 [0x3C] SET_BIT_FLAG_CONDITIONAL(target_work_offset=Work_Zone[3], bit_index_work_offset=1*, condition_work_offset=1*)
112: 0x03C0 [0x01] GOTO 0x03CA
113: 0x03C3 [0x3D] CLEAR_BIT_FLAG_CONDITIONAL(target_work_offset=Work_Zone[3], bit_index_work_offset=1*, condition_work_offset=1*)

SUBROUTINE_03CA:
114: 0x03CA [0x02] IF !(Work_Zone[4] == 4294967294*) GOTO 0x03DC
115: 0x03D2 [0x3C] SET_BIT_FLAG_CONDITIONAL(target_work_offset=Work_Zone[3], bit_index_work_offset=22*, condition_work_offset=1*)
116: 0x03D9 [0x01] GOTO 0x03E3
117: 0x03DC [0x3D] CLEAR_BIT_FLAG_CONDITIONAL(target_work_offset=Work_Zone[3], bit_index_work_offset=22*, condition_work_offset=1*)

SUBROUTINE_03E3:
118: 0x03E3 [0x02] IF !(Work_Zone[2] == 4294967294*) GOTO 0x0401
119: 0x03EB [0x02] IF !(Work_Zone[3] == 4294967294*) GOTO 0x0401
120: 0x03F3 [0x02] IF !(Work_Zone[4] == 4294967294*) GOTO 0x0401
121: 0x03FB [0x1D] PRINT_EVENT_MESSAGE(message_id=7703*)
    → "You have no achievements to unlock."
122: 0x03FE [0x23] WAIT_FOR_DIALOG_INTERACTION
123: 0x03FF [0x21] END_EVENT
124: 0x0400 [0x00] END_REQSTACK()
125: 0x0401 [0x03] Work_Zone_1700[19] = 422*
126: 0x0406 [0x03] Work_Zone_1700[20] = 378*
127: 0x040B [0x03] Work_Zone_1700[21] = 302*
128: 0x0410 [0x03] Work_Zone_1700[22] = 433*
129: 0x0415 [0x03] Work_Zone_1700[23] = 467*
130: 0x041A [0x03] Work_Zone_1700[24] = 468*
131: 0x041F [0x03] Work_Zone_1700[25] = 164*
132: 0x0424 [0x03] Work_Zone_1700[26] = 166*
133: 0x0429 [0x03] Work_Zone_1700[27] = 167*
134: 0x042E [0x03] Work_Zone_1700[28] = 168*
135: 0x0433 [0x03] Work_Zone_1700[29] = 169*
136: 0x0438 [0x03] Work_Zone_1700[30] = 411*
137: 0x043D [0x24] CREATE_DIALOG(message_id=7700*, default_option=0*, option_flags=Work_Zone[3])
    → "Unlock which achievement? [None./Job Level./Synthesis Skill 100./San d'Oria Rank 10./Bastok Rank 10./Windurst Rank 10./Zilart Missions./Promathia Missions./Aht Urhgan Missions./Mercenary Rank./$27./$28./$29./$30./$31./$32./$33./$34./$35./$36./$37./$38./View next page.]"
138: 0x0444 [0x25] WAIT_DIALOG_SELECT()
139: 0x0445 [0x02] IF !(Work_Zone[0] == 0*) GOTO 0x0457
140: 0x044D [0x03] Work_Zone[1] = 1073741824*
141: 0x0452 [0x21] END_EVENT
142: 0x0453 [0x00] END_REQSTACK()

SUBROUTINE_0479:
143: 0x0479 [0x03] ExtData[1]->WorkLocal[15] = Work_Zone[0]
144: 0x047E [0x02] IF !(Work_Zone[0] <= 18*) GOTO 0x048B
145: 0x0486 [0x07] ExtData[1]->WorkLocal[15] += 20*
146: 0x048B [0x01] GOTO 0x0504

SUBROUTINE_04EA:
147: 0x04EA [0x03] ExtData[1]->WorkLocal[15] = Work_Zone[0]
148: 0x04EF [0x07] ExtData[1]->WorkLocal[15] += 40*
149: 0x04F4 [0x01] GOTO 0x0504

SUBROUTINE_04FA:
150: 0x04FA [0x03] ExtData[1]->WorkLocal[15] = Work_Zone[0]
151: 0x04FF [0x07] ExtData[1]->WorkLocal[15] += 17*

SUBROUTINE_0504:
152: 0x0504 [0xB1] GET_APP_FLAG(flag_type=0x04, dest_offset=0x0F)
153: 0x0508 [0x10] 0x0200 <<= ExtData[1]->WorkLocal[16]
154: 0x050D [0x02] IF !(0x80 == 0x0519) GOTO 0x0F03
155: 0x0515 [0x00] END_REQSTACK()

SUBROUTINE_051E:
156: 0x051E [0x24] CREATE_DIALOG(message_id=7695*, default_option=0*, option_flags=ExtData[1]->WorkLocal[0])
    → "Which title do you return to? [None./$1./$2./$3./$4./$5./$6./$7./$8./$9./$10./$11./$12./$13./$14./$15./$16./$17./$18./$19./$20./$21./$22./$23./$24./$25./$26./$27./$28.]"
157: 0x0525 [0x25] WAIT_DIALOG_SELECT()
158: 0x0526 [0x02] IF !(Work_Zone[0] == 0*) GOTO 0x0538
159: 0x052E [0x03] Work_Zone[1] = 1073741824*
160: 0x0533 [0x21] END_EVENT
161: 0x0534 [0x00] END_REQSTACK()

SUBROUTINE_0538:
162: 0x0538 [0x03] ExtData[1]->WorkLocal[7] = Work_Zone[0]
163: 0x053D [0x03] Work_Zone[1] = ExtData[1]->WorkLocal[8]
164: 0x0542 [0x10] Work_Zone[1] <<= 8*
165: 0x0547 [0x07] Work_Zone[1] += ExtData[1]->WorkLocal[7]
166: 0x054C [0x1D] PRINT_EVENT_MESSAGE(message_id=7696*)
    → "I'll add you to my repertoire And sing of you! So, au revoir!t"
167: 0x054F [0x23] WAIT_FOR_DIALOG_INTERACTION
168: 0x0550 [0x1D] PRINT_EVENT_MESSAGE(message_id=7697*)
    → "The power of song, a mystical thing That comes forth only when you sing. A minstrel's job in life is never done. So sing a doodle-doodle-lay And be upon your merry way-- And check your title, too, oh worthy one.t"
169: 0x0553 [0x23] WAIT_FOR_DIALOG_INTERACTION
170: 0x0554 [0x21] END_EVENT
171: 0x0555 [0x00] END_REQSTACK()

SUBROUTINE_0556:
172: 0x0556 [0x06] Work_Zone[2] = 0
173: 0x0559 [0x06] Work_Zone[3] = 0
174: 0x055C [0x06] Work_Zone[4] = 0
175: 0x055F [0x06] Work_Zone[5] = 0
176: 0x0562 [0x06] Work_Zone[6] = 0
177: 0x0565 [0x06] Work_Zone[7] = 0
178: 0x0568 [0x06] Work_Zone[8] = 0
179: 0x056B [0x06] Work_Zone[9] = 0
180: 0x056E [0x06] Work_Zone_1700[0] = 0
181: 0x0571 [0x06] Work_Zone_1700[1] = 0
182: 0x0574 [0x06] Work_Zone_1700[2] = 0
183: 0x0577 [0x06] Work_Zone_1700[3] = 0
184: 0x057A [0x06] Work_Zone_1700[4] = 0
185: 0x057D [0x06] Work_Zone_1700[5] = 0
186: 0x0580 [0x06] Work_Zone_1700[6] = 0
187: 0x0583 [0x06] Work_Zone_1700[7] = 0
188: 0x0586 [0x06] Work_Zone_1700[8] = 0
189: 0x0589 [0x06] Work_Zone_1700[9] = 0
190: 0x058C [0x06] Work_Zone_1700[10] = 0
191: 0x058F [0x06] Work_Zone_1700[11] = 0
192: 0x0592 [0x06] Work_Zone_1700[12] = 0
193: 0x0595 [0x06] Work_Zone_1700[13] = 0
194: 0x0598 [0x06] Work_Zone_1700[14] = 0
195: 0x059B [0x06] Work_Zone_1700[15] = 0
196: 0x059E [0x06] Work_Zone_1700[16] = 0
197: 0x05A1 [0x06] Work_Zone_1700[17] = 0
198: 0x05A4 [0x06] Work_Zone_1700[18] = 0
199: 0x05A7 [0x06] Work_Zone_1700[19] = 0
200: 0x05AA [0x06] Work_Zone_1700[20] = 0
201: 0x05AD [0x1B] RETURN

SUBROUTINE_05AE:
202: 0x05AE [0x03] Work_Zone[3] = 206*
203: 0x05B3 [0x03] Work_Zone[4] = 81*
204: 0x05B8 [0x03] Work_Zone[5] = 83*
205: 0x05BD [0x03] Work_Zone[6] = 84*
206: 0x05C2 [0x03] Work_Zone[7] = 86*
207: 0x05C7 [0x03] Work_Zone[8] = 87*
208: 0x05CC [0x03] Work_Zone[9] = 88*
209: 0x05D1 [0x03] Work_Zone_1700[0] = 92*
210: 0x05D6 [0x03] Work_Zone_1700[1] = 98*
211: 0x05DB [0x03] Work_Zone_1700[2] = 99*
212: 0x05E0 [0x03] Work_Zone_1700[3] = 100*
213: 0x05E5 [0x03] Work_Zone_1700[4] = 103*
214: 0x05EA [0x03] Work_Zone_1700[5] = 107*
215: 0x05EF [0x03] Work_Zone_1700[6] = 215*
216: 0x05F4 [0x03] Work_Zone_1700[7] = 291*
217: 0x05F9 [0x03] Work_Zone_1700[8] = 303*
218: 0x05FE [0x03] Work_Zone_1700[9] = 304*
219: 0x0603 [0x03] Work_Zone_1700[10] = 305*
220: 0x0608 [0x03] Work_Zone_1700[11] = 374*
221: 0x060D [0x03] Work_Zone_1700[12] = 894*
222: 0x0612 [0x1B] RETURN

SUBROUTINE_0613:
223: 0x0613 [0x03] Work_Zone[3] = 82*
224: 0x0618 [0x03] Work_Zone[4] = 85*
225: 0x061D [0x03] Work_Zone[5] = 89*
226: 0x0622 [0x03] Work_Zone[6] = 96*
227: 0x0627 [0x03] Work_Zone[7] = 108*
228: 0x062C [0x03] Work_Zone[8] = 104*
229: 0x0631 [0x03] Work_Zone[9] = 288*
230: 0x0636 [0x03] Work_Zone_1700[0] = 207*
231: 0x063B [0x03] Work_Zone_1700[1] = 90*
232: 0x0640 [0x03] Work_Zone_1700[2] = 91*
233: 0x0645 [0x03] Work_Zone_1700[3] = 93*
234: 0x064A [0x03] Work_Zone_1700[4] = 95*
235: 0x064F [0x03] Work_Zone_1700[5] = 97*
236: 0x0654 [0x03] Work_Zone_1700[6] = 101*
237: 0x0659 [0x03] Work_Zone_1700[7] = 106*
238: 0x065E [0x03] Work_Zone_1700[8] = 216*
239: 0x0663 [0x03] Work_Zone_1700[9] = 346*
240: 0x0668 [0x1B] RETURN

SUBROUTINE_0669:
241: 0x0669 [0x03] Work_Zone[3] = 94*
242: 0x066E [0x03] Work_Zone[4] = 49*
243: 0x0673 [0x03] Work_Zone[5] = 109*
244: 0x0678 [0x03] Work_Zone[6] = 210*
245: 0x067D [0x03] Work_Zone[7] = 191*
246: 0x0682 [0x03] Work_Zone[8] = 102*
247: 0x0687 [0x03] Work_Zone[9] = 105*
248: 0x068C [0x03] Work_Zone_1700[0] = 208*
249: 0x0691 [0x03] Work_Zone_1700[1] = 217*
250: 0x0696 [0x03] Work_Zone_1700[2] = 341*
251: 0x069B [0x03] Work_Zone_1700[3] = 373*
252: 0x06A0 [0x03] Work_Zone_1700[4] = 371*
253: 0x06A5 [0x03] Work_Zone_1700[5] = 1129*
254: 0x06AA [0x03] Work_Zone_1700[6] = 1134*
255: 0x06AF [0x03] Work_Zone_1700[7] = 1140*
256: 0x06B4 [0x03] Work_Zone_1700[8] = 1146*
257: 0x06B9 [0x03] Work_Zone_1700[9] = 1147*
258: 0x06BE [0x03] Work_Zone_1700[10] = 1148*
259: 0x06C3 [0x1B] RETURN

SUBROUTINE_06C4:
260: 0x06C4 [0x03] Work_Zone[3] = 218*
261: 0x06C9 [0x03] Work_Zone[4] = 219*
262: 0x06CE [0x03] Work_Zone[5] = 198*
263: 0x06D3 [0x03] Work_Zone[6] = 275*
264: 0x06D8 [0x03] Work_Zone[7] = 224*
265: 0x06DD [0x03] Work_Zone[8] = 296*
266: 0x06E2 [0x03] Work_Zone[9] = 298*
267: 0x06E7 [0x03] Work_Zone_1700[0] = 494*
268: 0x06EC [0x03] Work_Zone_1700[1] = 784*
269: 0x06F1 [0x03] Work_Zone_1700[2] = 825*
270: 0x06F6 [0x03] Work_Zone_1700[3] = 980*
271: 0x06FB [0x03] Work_Zone_1700[4] = 1022*
272: 0x0700 [0x03] Work_Zone_1700[5] = 1023*
273: 0x0705 [0x03] Work_Zone_1700[6] = 1024*
274: 0x070A [0x1B] RETURN

SUBROUTINE_070B:
275: 0x070B [0x03] Work_Zone[3] = 236*
276: 0x0710 [0x03] Work_Zone[4] = 237*
277: 0x0715 [0x03] Work_Zone[5] = 238*
278: 0x071A [0x03] Work_Zone[6] = 239*
279: 0x071F [0x03] Work_Zone[7] = 240*
280: 0x0724 [0x03] Work_Zone[8] = 241*
281: 0x0729 [0x03] Work_Zone[9] = 242*
282: 0x072E [0x03] Work_Zone_1700[0] = 243*
283: 0x0733 [0x03] Work_Zone_1700[1] = 244*
284: 0x0738 [0x03] Work_Zone_1700[2] = 245*
285: 0x073D [0x03] Work_Zone_1700[3] = 313*
286: 0x0742 [0x03] Work_Zone_1700[4] = 314*
287: 0x0747 [0x03] Work_Zone_1700[5] = 315*
288: 0x074C [0x03] Work_Zone_1700[6] = 577*
289: 0x0751 [0x03] Work_Zone_1700[7] = 316*
290: 0x0756 [0x03] Work_Zone_1700[8] = 317*
291: 0x075B [0x03] Work_Zone_1700[9] = 318*
292: 0x0760 [0x03] Work_Zone_1700[10] = 578*
293: 0x0765 [0x03] Work_Zone_1700[11] = 322*
294: 0x076A [0x03] Work_Zone_1700[12] = 323*
295: 0x076F [0x03] Work_Zone_1700[13] = 324*
296: 0x0774 [0x03] Work_Zone_1700[14] = 580*
297: 0x0779 [0x1B] RETURN

SUBROUTINE_077A:
298: 0x077A [0x03] Work_Zone[3] = 617*
299: 0x077F [0x1B] RETURN
```

#### Data or dead code:

```
# Dead code (unreachable instructions):
     0x0164 [0x01] GOTO 0x051E
     0x0296 [0x01] GOTO 0x051E
# Dead code (unreachable instructions):
     0x0454 [0x01] GOTO 0x04FA
     0x0476 [0x01] GOTO 0x0479
# Dead code (unreachable instructions):
     0x048E [0x01] GOTO 0x04FA
     0x04E7 [0x01] GOTO 0x04EA
# Dead code (unreachable instructions):
     0x04F7 [0x01] GOTO 0x04FA
# Dead code (unreachable instructions):
     0x0516 [0x01] GOTO 0x02A5
     0x0519 [0x21] END_EVENT
     0x051A [0x00] END_REQSTACK()
     0x051B [0x01] GOTO 0x051E
# Dead code (unreachable instructions):
     0x0535 [0x01] GOTO 0x0538
```
