# 17744114

## Common Data

| Field            | Value                 |
|------------------|-----------------------|
| Zone             | Port Bastok (ID: 236) |
| Block Size       | 128 bytes             |
| Total Events     | 3                     |
| References Count | 8                     |

## List of Events

| Event ID                 | Entrypoint   |   Size |   Instructions |
|--------------------------|--------------|--------|----------------|
| [65535](#event-65535)    | 0x0000       |      1 |              1 |
| [387](#event-387)        | 0x0001       |      3 |              2 |
| [65535.1](#event-655351) | 0x0004       |     61 |             12 |

## DAT References (imed_data)

|   Index | Hex Value   |   Dec Value |
|---------|-------------|-------------|
|       0 | 0x0001      |           1 |
|       1 | 0xFFFFF43D  |  4294964285 |
|       2 | 0xCE0F      |       52751 |
|       3 | 0xFFFFFE78  |  4294966904 |
|       4 | 0x01A9      |         425 |
|       5 | 0x0000      |           0 |
|       6 | 0x0078      |         120 |
|       7 | 0x005A      |          90 |

## Events

### Event 65535

#### Metadata

| Field        | Value   |
|--------------|---------|
| Entrypoint   | 0x0000  |
| Data Size    | 1 bytes |
| Instructions | 1       |

```
      00 01 02 03 04 05 06 07  08 09 0A 0B 0C 0D 0E 0F
      -- -- -- -- -- -- -- --  -- -- -- -- -- -- -- --
0000: 00                                                .               
```

#### Opcodes

```
  0: 0x0000 [0x00] END_REQSTACK()
```

### Event 387

#### Metadata

| Field        | Value   |
|--------------|---------|
| Entrypoint   | 0x0001  |
| Data Size    | 3 bytes |
| Instructions | 2       |

```
      00 01 02 03 04 05 06 07  08 09 0A 0B 0C 0D 0E 0F
      -- -- -- -- -- -- -- --  -- -- -- -- -- -- -- --
0000:    A5 01 00                                        ...            
```

#### Opcodes

```
  0: 0x0001 [0xA5] EventEntity->Flags3.BallistaTeam |= 0x08  // Set bit 3 of BallistaTeam
  1: 0x0003 [0x00] END_REQSTACK()
```

### Event 65535.1

#### Metadata

| Field        | Value    |
|--------------|----------|
| Entrypoint   | 0x0004   |
| Data Size    | 61 bytes |
| Instructions | 12       |

```
      00 01 02 03 04 05 06 07  08 09 0A 0B 0C 0D 0E 0F
      -- -- -- -- -- -- -- --  -- -- -- -- -- -- -- --
0000:             03 4E 10 00  80 33 01 37 01 80 02 80      .N...3.7....
0010: 03 80 04 80 80 F8 FF FF  7F 02 59 10 05 80 00 27  ..........Y....'
0020: 00 1C 06 80 01 2A 00 1C  07 80 02 47 10 05 80 00  .....*.....G....
0030: 40 00 03 4E 10 05 80 37  05 80 05 80 05 80 05 80  @..N...7........
0040: 00                                                .               
```

#### Opcodes

```
  0: 0x0004 [0x03] Work_Zone[78] = 1*
  1: 0x0009 [0x33] EventEntity->Render.Flags0 |= 0x200000 // Bit 21 (flag=0x01)
  2: 0x000B [0x37] UPDATE_EVENT_POSITION_AND_DIR: x=-3.011*, z=52.751*, y=-0.392*, direction=37.4°*
  3: 0x0014 [0x80] LOAD_WAIT(entity=EventEntity)
  4: 0x0019 [0x02] IF !(Work_Zone[89] == 0*) GOTO 0x0027
  5: 0x0021 [0x1C] WAIT(120* ticks)
  6: 0x0024 [0x01] GOTO 0x002A
  7: 0x0027 [0x1C] WAIT(90* ticks)

SUBROUTINE_002A:
  8: 0x002A [0x02] IF !(Work_Zone[71] == 0*) GOTO 0x0040
  9: 0x0032 [0x03] Work_Zone[78] = 0*
 10: 0x0037 [0x37] UPDATE_EVENT_POSITION_AND_DIR: x=0.000*, z=0.000*, y=0.000*, direction=0.0°*
 11: 0x0040 [0x00] END_REQSTACK()
```
