# 17743977 - Yazan

## Common Data

| Field            | Value                 |
|------------------|-----------------------|
| Zone             | Port Bastok (ID: 236) |
| Block Size       | 272 bytes             |
| Total Events     | 6                     |
| References Count | 13                    |

## List of Events

| Event ID              | Entrypoint   |   Size |   Instructions |
|-----------------------|--------------|--------|----------------|
| [65535](#event-65535) | 0x0000       |      1 |              1 |
| [190](#event-190)     | 0x0001       |     11 |              5 |
| [191](#event-191)     | 0x000C       |     39 |             11 |
| [192](#event-192)     | 0x0033       |     52 |             10 |
| [193](#event-193)     | 0x0067       |     63 |             12 |
| [194](#event-194)     | 0x00A6       |     11 |              5 |

## DAT References (imed_data)

|   Index | Hex Value   |   Dec Value |
|---------|-------------|-------------|
|       0 | 0x1DFB      |        7675 |
|       1 | 0x03F7      |        1015 |
|       2 | 0x1DFC      |        7676 |
|       3 | 0x0041      |          65 |
|       4 | 0x1DFD      |        7677 |
|       5 | 0x1DFE      |        7678 |
|       6 | 0x000A      |          10 |
|       7 | 0x1DFF      |        7679 |
|       8 | 0x001E      |          30 |
|       9 | 0x1E00      |        7680 |
|      10 | 0x1E01      |        7681 |
|      11 | 0x00C9      |         201 |
|      12 | 0x0000      |           0 |

## String References

- **7675**: Have you ever been to Selbina? It's a harbor town a little way north of Bastok. Many adventurers go there to ride the ferry to Mhaura. You should go there someday.
- **7676**: I make a living trading goods with Selbina, you see. But lately, my shipments are having trouble reaching the place.
- **7677**: Apparently, an infestation of sand bats has been plaguing the trade route between Bastok and Selbina.
- **7678**: Say, could you do me a favor and beat those flying rats out of the way? If you bring me $7 as proof you did your job, I'll be more than happy to pay you!
- **7679**: I can't believe a bunch of filthy flying rodents are the cause of all my troubles...
- **7680**: Aha! You did it! Good work! Finally, I can get back to business!
- **7681**: The more I think about it, the more those sand bats infuriate me. If you bring me more trophies like this, I'll be happy to pay you!

## Events

### Event 65535

#### Metadata

| Field        | Value   |
|--------------|---------|
| Entrypoint   | 0x0000  |
| Data Size    | 1 bytes |
| Instructions | 1       |

```
      00 01 02 03 04 05 06 07  08 09 0A 0B 0C 0D 0E 0F
      -- -- -- -- -- -- -- --  -- -- -- -- -- -- -- --
0000: 00                                                .               
```

#### Opcodes

```
  0: 0x0000 [0x00] END_REQSTACK()
```

### Event 190

#### Metadata

| Field        | Value    |
|--------------|----------|
| Entrypoint   | 0x0001   |
| Data Size    | 11 bytes |
| Instructions | 5        |

```
      00 01 02 03 04 05 06 07  08 09 0A 0B 0C 0D 0E 0F
      -- -- -- -- -- -- -- --  -- -- -- -- -- -- -- --
0000:    1E F0 FF FF 7F 1D 00  80 23 21 00               ........#!.    
```

#### Opcodes

```
  0: 0x0001 [0x1E] EventEntity looks at LocalPlayer and starts talking
  1: 0x0006 [0x1D] PRINT_EVENT_MESSAGE(message_id=7675*)
    → "Have you ever been to Selbina? It's a harbor town a little way north of Bastok. Many adventurers go there to ride the ferry to Mhaura. You should go there someday."
  2: 0x0009 [0x23] WAIT_FOR_DIALOG_INTERACTION
  3: 0x000A [0x21] END_EVENT
  4: 0x000B [0x00] END_REQSTACK()
```

### Event 191

#### Metadata

| Field        | Value    |
|--------------|----------|
| Entrypoint   | 0x000C   |
| Data Size    | 39 bytes |
| Instructions | 11       |

```
      00 01 02 03 04 05 06 07  08 09 0A 0B 0C 0D 0E 0F
      -- -- -- -- -- -- -- --  -- -- -- -- -- -- -- --
0000:                                      03 09 10 01              ....
0010: 80 1E F0 FF FF 7F 1D 02  80 23 5B 03 80 F8 FF FF  .........#[.....
0020: 7F F8 FF FF 7F 74 6C 6B  30 1D 04 80 23 1D 05 80  .....tlk0...#...
0030: 23 21 00                                          #!.             
```

#### Opcodes

```
  0: 0x000C [0x03] Work_Zone[9] = 1015*
  1: 0x0011 [0x1E] EventEntity looks at LocalPlayer and starts talking
  2: 0x0016 [0x1D] PRINT_EVENT_MESSAGE(message_id=7676*)
    → "I make a living trading goods with Selbina, you see. But lately, my shipments are having trouble reaching the place."
  3: 0x0019 [0x23] WAIT_FOR_DIALOG_INTERACTION
  4: 0x001A [0x5B] LOAD_EXT_SCHEDULER: Load scheduler "tlk0" with entities [EventEntity, EventEntity], work=65*
  5: 0x0029 [0x1D] PRINT_EVENT_MESSAGE(message_id=7677*)
    → "Apparently, an infestation of sand bats has been plaguing the trade route between Bastok and Selbina."
  6: 0x002C [0x23] WAIT_FOR_DIALOG_INTERACTION
  7: 0x002D [0x1D] PRINT_EVENT_MESSAGE(message_id=7678*)
    → "Say, could you do me a favor and beat those flying rats out of the way? If you bring me $7 as proof you did your job, I'll be more than happy to pay you!"
  8: 0x0030 [0x23] WAIT_FOR_DIALOG_INTERACTION
  9: 0x0031 [0x21] END_EVENT
 10: 0x0032 [0x00] END_REQSTACK()
```

### Event 192

#### Metadata

| Field        | Value    |
|--------------|----------|
| Entrypoint   | 0x0033   |
| Data Size    | 52 bytes |
| Instructions | 10       |

```
      00 01 02 03 04 05 06 07  08 09 0A 0B 0C 0D 0E 0F
      -- -- -- -- -- -- -- --  -- -- -- -- -- -- -- --
0030:          03 09 10 01 80  1E F0 FF FF 7F 1C 06 80     .............
0040: 5B 03 80 F8 FF FF 7F F8  FF FF 7F 74 68 6B 31 1D  [..........thk1.
0050: 07 80 23 5B 03 80 F8 FF  FF 7F F8 FF FF 7F 74 68  ..#[..........th
0060: 6B 32 1C 08 80 21 00                              k2...!.         
```

#### Opcodes

```
  0: 0x0033 [0x03] Work_Zone[9] = 1015*
  1: 0x0038 [0x1E] EventEntity looks at LocalPlayer and starts talking
  2: 0x003D [0x1C] WAIT(10* ticks)
  3: 0x0040 [0x5B] LOAD_EXT_SCHEDULER: Load scheduler "thk1" with entities [EventEntity, EventEntity], work=65*
  4: 0x004F [0x1D] PRINT_EVENT_MESSAGE(message_id=7679*)
    → "I can't believe a bunch of filthy flying rodents are the cause of all my troubles..."
  5: 0x0052 [0x23] WAIT_FOR_DIALOG_INTERACTION
  6: 0x0053 [0x5B] LOAD_EXT_SCHEDULER: Load scheduler "thk2" with entities [EventEntity, EventEntity], work=65*
  7: 0x0062 [0x1C] WAIT(30* ticks)
  8: 0x0065 [0x21] END_EVENT
  9: 0x0066 [0x00] END_REQSTACK()
```

### Event 193

#### Metadata

| Field        | Value    |
|--------------|----------|
| Entrypoint   | 0x0067   |
| Data Size    | 63 bytes |
| Instructions | 12       |

```
      00 01 02 03 04 05 06 07  08 09 0A 0B 0C 0D 0E 0F
      -- -- -- -- -- -- -- --  -- -- -- -- -- -- -- --
0060:                      42  20 01 1E F0 FF FF 7F 1D         B .......
0070: 09 80 23 5B 03 80 F8 FF  FF 7F F8 FF FF 7F 70 61  ..#[..........pa
0080: 73 30 1D 0A 80 23 45 0B  80 F0 FF FF 7F F0 FF FF  s0...#E.........
0090: 7F 71 73 74 63 0C 80 53  F8 FF FF 7F F8 FF FF 7F  .qstc..S........
00A0: 70 61 73 30 21 00                                 pas0!.          
```

#### Opcodes

```
  0: 0x0067 [0x42] SET_CLI_EVENT_CANCEL_DATA()
  1: 0x0068 [0x20] SET_CLI_EVENT_UC_FLAG: Lock player control
  2: 0x006A [0x1E] EventEntity looks at LocalPlayer and starts talking
  3: 0x006F [0x1D] PRINT_EVENT_MESSAGE(message_id=7680*)
    → "Aha! You did it! Good work! Finally, I can get back to business!"
  4: 0x0072 [0x23] WAIT_FOR_DIALOG_INTERACTION
  5: 0x0073 [0x5B] LOAD_EXT_SCHEDULER: Load scheduler "pas0" with entities [EventEntity, EventEntity], work=65*
  6: 0x0082 [0x1D] PRINT_EVENT_MESSAGE(message_id=7681*)
    → "The more I think about it, the more those sand bats infuriate me. If you bring me more trophies like this, I'll be happy to pay you!"
  7: 0x0085 [0x23] WAIT_FOR_DIALOG_INTERACTION
  8: 0x0086 [0x45] LOAD_SCHEDULED_TASK: Load scheduler "qstc" with entities [LocalPlayer, LocalPlayer], work=[201*, 0*]
  9: 0x0097 [0x53] WAIT_SCHEDULER_TASK: Wait for scheduler "pas0" with entities [EventEntity, EventEntity]
 10: 0x00A4 [0x21] END_EVENT
 11: 0x00A5 [0x00] END_REQSTACK()
```

### Event 194

#### Metadata

| Field        | Value    |
|--------------|----------|
| Entrypoint   | 0x00A6   |
| Data Size    | 11 bytes |
| Instructions | 5        |

```
      00 01 02 03 04 05 06 07  08 09 0A 0B 0C 0D 0E 0F
      -- -- -- -- -- -- -- --  -- -- -- -- -- -- -- --
00A0:                   1E F0  FF FF 7F 1D 0A 80 23 21        ........#!
00B0: 00                                                .               
```

#### Opcodes

```
  0: 0x00A6 [0x1E] EventEntity looks at LocalPlayer and starts talking
  1: 0x00AB [0x1D] PRINT_EVENT_MESSAGE(message_id=7681*)
    → "The more I think about it, the more those sand bats infuriate me. If you bring me more trophies like this, I'll be happy to pay you!"
  2: 0x00AE [0x23] WAIT_FOR_DIALOG_INTERACTION
  3: 0x00AF [0x21] END_EVENT
  4: 0x00B0 [0x00] END_REQSTACK()
```
