# 17743873 - Argus

## Common Data

| Field            | Value                 |
|------------------|-----------------------|
| Zone             | Port Bastok (ID: 236) |
| Block Size       | 3796 bytes            |
| Total Events     | 13                    |
| References Count | 138                   |

## List of Events

| Event ID              | Entrypoint   |   Size |   Instructions |
|-----------------------|--------------|--------|----------------|
| [65535](#event-65535) | 0x0000       |      1 |              1 |
| [1000](#event-1000)   | 0x0001       |    116 |             26 |
| [1001](#event-1001)   | 0x0075       |   1028 |            194 |
| [1002](#event-1002)   | 0x0479       |     11 |              5 |
| [1003](#event-1003)   | 0x0484       |     11 |              5 |
| [1004](#event-1004)   | 0x048F       |    122 |             27 |
| [1005](#event-1005)   | 0x0509       |     31 |              8 |
| [1006](#event-1006)   | 0x0528       |     36 |              9 |
| [1007](#event-1007)   | 0x054C       |     11 |              5 |
| [1011](#event-1011)   | 0x0557       |     16 |              6 |
| [1008](#event-1008)   | 0x0567       |    208 |             33 |
| [1009](#event-1009)   | 0x0637       |    437 |             70 |
| [1010](#event-1010)   | 0x07EC       |   1148 |            133 |

## DAT References (imed_data)

|   Index | Hex Value   |   Dec Value |
|---------|-------------|-------------|
|       0 | 0x1CD0      |        7376 |
|       1 | 0x1CD1      |        7377 |
|       2 | 0x0000      |           0 |
|       3 | 0x1CD5      |        7381 |
|       4 | 0x1CD6      |        7382 |
|       5 | 0x1CD7      |        7383 |
|       6 | 0x1CD8      |        7384 |
|       7 | 0x0001      |           1 |
|       8 | 0x1CD4      |        7380 |
|       9 | 0x1CCE      |        7374 |
|      10 | 0x1CCF      |        7375 |
|      11 | 0x001F      |          31 |
|      12 | 0x1CD9      |        7385 |
|      13 | 0x1CDA      |        7386 |
|      14 | 0x1CDB      |        7387 |
|      15 | 0x0002      |           2 |
|      16 | 0x025E      |         606 |
|      17 | 0x025F      |         607 |
|      18 | 0x0260      |         608 |
|      19 | 0x0261      |         609 |
|      20 | 0x1CDC      |        7388 |
|      21 | 0x1CDD      |        7389 |
|      22 | 0x1CDE      |        7390 |
|      23 | 0x0003      |           3 |
|      24 | 0x1CE7      |        7399 |
|      25 | 0x1CE8      |        7400 |
|      26 | 0x1CE9      |        7401 |
|      27 | 0x1CEA      |        7402 |
|      28 | 0x1CEB      |        7403 |
|      29 | 0x0004      |           4 |
|      30 | 0x110A      |        4362 |
|      31 | 0x1CEC      |        7404 |
|      32 | 0x1CED      |        7405 |
|      33 | 0x0005      |           5 |
|      34 | 0x1CEE      |        7406 |
|      35 | 0x1CEF      |        7407 |
|      36 | 0x000A      |          10 |
|      37 | 0x1CF0      |        7408 |
|      38 | 0x1CF1      |        7409 |
|      39 | 0x1CF2      |        7410 |
|      40 | 0x1CF3      |        7411 |
|      41 | 0x000B      |          11 |
|      42 | 0x0233      |         563 |
|      43 | 0x1CF4      |        7412 |
|      44 | 0x1CF5      |        7413 |
|      45 | 0x1CF6      |        7414 |
|      46 | 0x1CF7      |        7415 |
|      47 | 0x000C      |          12 |
|      48 | 0x1CF9      |        7417 |
|      49 | 0x1CFA      |        7418 |
|      50 | 0x1CFB      |        7419 |
|      51 | 0x000E      |          14 |
|      52 | 0x1CFC      |        7420 |
|      53 | 0x1CFD      |        7421 |
|      54 | 0x000F      |          15 |
|      55 | 0x1CFE      |        7422 |
|      56 | 0x1CFF      |        7423 |
|      57 | 0x0010      |          16 |
|      58 | 0x2136      |        8502 |
|      59 | 0x2137      |        8503 |
|      60 | 0x2138      |        8504 |
|      61 | 0x0011      |          17 |
|      62 | 0x2139      |        8505 |
|      63 | 0x213A      |        8506 |
|      64 | 0x213B      |        8507 |
|      65 | 0x0012      |          18 |
|      66 | 0x213C      |        8508 |
|      67 | 0x213D      |        8509 |
|      68 | 0x0013      |          19 |
|      69 | 0x213E      |        8510 |
|      70 | 0x213F      |        8511 |
|      71 | 0x0014      |          20 |
|      72 | 0x2141      |        8513 |
|      73 | 0x2142      |        8514 |
|      74 | 0x0015      |          21 |
|      75 | 0x2143      |        8515 |
|      76 | 0x2144      |        8516 |
|      77 | 0x0016      |          22 |
|      78 | 0x2145      |        8517 |
|      79 | 0x2146      |        8518 |
|      80 | 0x2147      |        8519 |
|      81 | 0x0017      |          23 |
|      82 | 0x2148      |        8520 |
|      83 | 0x2149      |        8521 |
|      84 | 0x214A      |        8522 |
|      85 | 0x214B      |        8523 |
|      86 | 0x1CD2      |        7378 |
|      87 | 0x1CCD      |        7373 |
|      88 | 0x1CCC      |        7372 |
|      89 | 0x1CDF      |        7391 |
|      90 | 0x1CE0      |        7392 |
|      91 | 0x1CE1      |        7393 |
|      92 | 0x1CE2      |        7394 |
|      93 | 0x1CE3      |        7395 |
|      94 | 0x1CE4      |        7396 |
|      95 | 0x1CE5      |        7397 |
|      96 | 0x1CE6      |        7398 |
|      97 | 0x00C9      |         201 |
|      98 | 0x1CF8      |        7416 |
|      99 | 0x1D00      |        7424 |
|     100 | 0x0122      |         290 |
|     101 | 0x2140      |        8512 |
|     102 | 0x00D7      |         215 |
|     103 | 0x00C8      |         200 |
|     104 | 0x006E      |         110 |
|     105 | 0x20B4      |        8372 |
|     106 | 0x003C      |          60 |
|     107 | 0x202B2     |      131762 |
|     108 | 0xFFFFF7A8  |  4294965160 |
|     109 | 0x2133      |        8499 |
|     110 | 0x20B5      |        8373 |
|     111 | 0x20B6      |        8374 |
|     112 | 0x20B7      |        8375 |
|     113 | 0x20B8      |        8376 |
|     114 | 0x20B9      |        8377 |
|     115 | 0x20BA      |        8378 |
|     116 | 0x20BB      |        8379 |
|     117 | 0x20BC      |        8380 |
|     118 | 0x20BD      |        8381 |
|     119 | 0x20BE      |        8382 |
|     120 | 0x20BF      |        8383 |
|     121 | 0x20C0      |        8384 |
|     122 | 0x20C1      |        8385 |
|     123 | 0x20C2      |        8386 |
|     124 | 0x000D      |          13 |
|     125 | 0x201AB     |      131499 |
|     126 | 0xFFFFF7E5  |  4294965221 |
|     127 | 0x20C3      |        8387 |
|     128 | 0x20C4      |        8388 |
|     129 | 0x20C5      |        8389 |
|     130 | 0x20C6      |        8390 |
|     131 | 0x20C7      |        8391 |
|     132 | 0x20C8      |        8392 |
|     133 | 0x001E      |          30 |
|     134 | 0x20C9      |        8393 |
|     135 | 0x20CA      |        8394 |
|     136 | 0x20CB      |        8395 |
|     137 | 0x002D      |          45 |

## String References

- **7372**: I am in charge of assigning missions, but I am only allowed to do so to those whose allegiance is to Bastok.
- **7373**: You cannot undertake two missions at the same time. Finish the one you are on now before asking for a new one.
- **7374**: Missions currently available are as follows:
- **7375**: Which mission will you undertake? [The Zeruhn Report./A Geological Survey./Fetichism./The Crystal Line./Wading Beasts./The Emissary."-3-1A."-3-1B."-3-2A."-3-2B./The Four Musketeers./To the Forsaken Mines./Jeuno./$3_$3~[./Darkness Rising./Xarcabard, Land of Truths./Return of the Talekeeper./The Pirates' Cove./The Final Image./On My Way./The Chains That Bind Us./Enter the Talekeeper./The Salt of the Earth./Where Two Paths Converge./$3_$3~$470607$3_$3~$470608$3_$3~$470609$3_$3~$470610$3_$3~$470611$3_$3~$470612$3_$3~$470613None.]
- **7376**: I am in charge of assigning missions to Bastokers who wish to serve their country. Are you one of them?
- **7377**: Have you come to undertake a mission? [Yes, I have./No, maybe later.]
- **7378**: Will you accept this mission? [Yes./No.]
- **7380**: Then move along.
- **7381**: Good. This is your first time going on a mission, is it not?
- **7382**: Your first assignment is not a difficult one. The details are as follows:
- **7383**: You must go to the Zeruhn Mines in the western section of the Mines District. Once there, you are to collect a report from the overseer.
- **7384**: You can consult the "Mission" section of the main menu to review your objectives. Speed and efficiency are your priorities. Dismissed.
- **7385**: The Chief Engineer is conducting new research, and has asked for someone to assist him. He can be found in the Metalworks, to the east of the administrative section.
- **7386**: The Chief Engineer's laboratory is on the second floor of the Metalworks. You don't know his name!? And you call yourself a Bastoker!
- **7387**: The Chief Engineer's name is Cid. Any Bastoker would know that! Now go and see him. He will give you the details of your mission.
- **7388**: The Palborough Mines, once our main source of mythril, have been under beastman control for some time.
- **7389**: We want you to hunt these beastmen, the Quadav, and bring back $4, $5, $6, and $7 as proof of your accomplishments.
- **7390**: You must present all four items to me or one of my colleagues in order to complete this mission.
- **7391**: Good, you've brought all four parts of the doll.
- **7392**: I am raising your rank to 2 for completing this mission. Congratulations.
- **7393**: If you've been to the Palborough Mines, you must know now the serious nature of the threat these beastmen pose to our civilization.
- **7394**: As a Bastoker, you are expected to take on more missions and go on conquests to preserve Bastok's brilliant future!
- **7395**: But I cannot give you a new mission at this time.
- **7396**: You need to collect rank points before taking on new missions.
- **7397**: You can receive rank points by participating in conquests and donating the crystals you acquire to guards, or by undertaking missions you've previously completed.
- **7398**: Ask the High Guard near the gatehouse if you wish to hear more about conquests.
- **7399**: Have you heard of a strange structure called the Crag of Dem? It is on the Konschtat Highlands, north of the Gustaberg Mountains.
- **7400**: They say that crystals are drained of their power if you take them to a certain section of that structure.
- **7401**: Chief Cid is currently investigating this strange phenomenon, and is asking for someone to bring back a faded crystal.
- **7402**: Go see him for a more detailed explanation of your objectives.
- **7403**: You want a crystal to use for this experiment? Are you not an adventurer? It should be easy for you to procure one.
- **7404**: You are to collect $7 from beasts in the Dangruf Wadi.
- **7405**: Senator Alois is in need of some. Do not ask me why. He can be found in the President's Office.
- **7406**: You've acquired quite a reputation. There is a new mission for you to tackle.
- **7407**: First, speak to Sir Naji of the Mythril Musketeers at the President's Office. This mission is of great import to the welfare of our nation.
- **7408**: I see you've made it back safely from your journey to Windurst and San d'Oria. This new mission should not be hard for an experienced adventurer like you.
- **7409**: The Mythril Musketeers are planning an offensive on the Quadav stronghold.
- **7410**: Adventurers, including yourself, have been asked to join them on this operation.
- **7411**: You are to go meet Iron Eater, one of the Mythril Musketeers, to receive a full briefing.
- **7412**: The Gusgen Mines in the Konschtat Highlands have been dug to the bare rock and abandoned for some time...
- **7413**: But lately, there have been reports that a rare ore can be found in them. No one has claimed this new vein yet.
- **7414**: You are to bring back a sample of the ore to confirm these reports. A Galka adventurer named Davyad should be able to help you. He is said to have acquired a chunk of the ore when he was there last.
- **7415**: The item that Davyad brought back was $7. That is what you should seek as well. Once you have the ore, hand them over to me or one of my colleagues.
- **7416**: You have succeeded in bringing back $7. Good work, adventurer. This discovery may help rejuvenate Bastok's economy!
- **7417**: You have heard of Jeuno, have you not? The Bastokan government is currently looking for someone to send there, and your name is on the list of candidates.
- **7418**: The presidential aide, Sir Lucius himself, recommended you. It is a great honor--you should be proud!
- **7419**: Sir Lucius wishes to see you as soon as possible. Go meet him in his office in the administrative section at the top of the Metalworks.
- **7420**: I have orders for you from the president himself. You must have heard already, but he wants you to go to Fei'Yin.
- **7421**: Go speak to Sir Naji at the President's Office. He will show you in.
- **7422**: So, it has finally come to this... You are to infiltrate the Kindred's main stronghold of Zvahl.
- **7423**: The president will brief you himself in his office. Good luck, adventurer!
- **7424**: Ah, you have returned from Jeuno. Go to the President's Office right away. Sir Naji will show you in.
- **8373**: Ch...Chief Cid!
- **8375**: No sir! There has been an increase in the number of adventurers using the airship, as well as an all-around increase in exports, but no signs of any disturbances.
- **8376**: Truly, Chief Cid's wonderful innovations have brought wealth and prosperity to the Port Distr--
- **8381**: Sir? I stop in every day after my duties are complete, and business seems decent as usual...
- **8383**: I wonder what's wrong with Chief Cid.
- **8385**: Wow. Maybe Chief Cid's got a soft spot after all.
- **8387**: Lady Ayame! What brings you to this area?
- **8389**: Chief Cid asked us the same question earlier... But there is nothing out of the ordinary, and Port Bastok is safe as long as we are here, Lady Ayame!
- **8391**: I have heard that Milady conducted her training in Norg. I am grateful for this important piece of information. I will reinforce the number of guards I have patrolling the area.
- **8393**: <Sigh>... Surely there isn't another woman as beautiful as Lady Ayame. In the desert of Musketeers, she's a garden of roses. But I wonder why she was all the way out here.
- **8395**: Wow... I bet her whole family is as beautiful and valiant as she is.
- **8502**: There has been some commotion in the Mines District near Ore Street. People are saying that a new Talekeeper has appeared.
- **8503**: It sounds fishy to me, but with the disappearance of their elder, Werei, anything could be possible. And the last thing we want is an uprising by the Galka.
- **8504**: Go to Ore Street and talk to Medicine Eagle. He says he was there when the commotion started.
- **8505**: I assume an adventurer of your caliber has heard of Norg.
- **8506**: Well, the place is a haven for pirates. They even have ties with the Tenshodo. In any case, it's an area that cannot be looked upon lightly.
- **8507**: That is why we want you to travel there as an emissary. Report to Sir Naji in the President's Office for details.
- **8508**: Currently, Chief Engineer Cid is conducting research on the architecture in Ro'Maeve near the Sanctuary of Zi'Tah. Your next mission is to travel there and assist him.
- **8509**: Report to the Chief Engineer in the Metalworks for further details.
- **8510**: We are searching for an adventurer holding vital information dealing with a certain national investigation.
- **8511**: The president himself has expressed great interest in this case. Proceed to the President's Office for the details of this mission.
- **8512**: You've been ordered by the president to deliver that $3. When you have completed that task, you can return here for your next mission.
- **8513**: It looks like Bastok is really going to begin an investigation of the Galka homeland of Altepa.
- **8514**: Your role in this investigation will have you traveling to the Quicksand Caves. Get the details of this mission from Iron Eater in the President's Office.
- **8515**: As a continuation of Bastok's investigation of Altepa, this time you will be traveling to Zepwell Island.
- **8516**: You will be carrying out your part of the investigation in the Kuftal Tunnel, which connects Cape Teriggan to Zepwell Island. Report to Drake Fang in the Zeruhn Mines for details.
- **8517**: Senator Alois has asked for your assistance.
- **8518**: It is something about an expedition to Vollbow...
- **8519**: I just hope he's not asking you to go get lizard eggs again... Wait, you didn't hear me say that.
- **8520**: Recently, an adventurer who was sent to investigate the Northlands has been attacked.
- **8521**: According to her report, the attacker resembled the dark knight Zeid.
- **8522**: The strange thing is that the attacker passed a letter to the adventurer before letting her go. Now, this letter's content is causing quite a commotion in the President's Office.
- **8523**: You have been asked to report directly to President Karst for further details.

## Events

### Event 65535

#### Metadata

| Field        | Value   |
|--------------|---------|
| Entrypoint   | 0x0000  |
| Data Size    | 1 bytes |
| Instructions | 1       |

```
      00 01 02 03 04 05 06 07  08 09 0A 0B 0C 0D 0E 0F
      -- -- -- -- -- -- -- --  -- -- -- -- -- -- -- --
0000: 00                                                .               
```

#### Opcodes

```
  0: 0x0000 [0x00] END_REQSTACK()
```

### Event 1000

#### Metadata

| Field        | Value     |
|--------------|-----------|
| Entrypoint   | 0x0001    |
| Data Size    | 116 bytes |
| Instructions | 26        |

```
      00 01 02 03 04 05 06 07  08 09 0A 0B 0C 0D 0E 0F
      -- -- -- -- -- -- -- --  -- -- -- -- -- -- -- --
0000:    1E F0 FF FF 7F 1D 00  80 23 24 01 80 02 80 02   ........#$.....
0010: 80 25 02 00 10 02 80 00  50 00 66 02 80 F8 FF FF  .%......P.f.....
0020: 7F F8 FF FF 7F 74 6C 6B  30 1D 03 80 23 1D 04 80  .....tlk0...#...
0030: 23 1D 05 80 23 66 02 80  F8 FF FF 7F F8 FF FF 7F  #...#f..........
0040: 74 65 6E 30 1D 06 80 23  03 01 10 02 80 01 73 00  ten0...#......s.
0050: 02 00 10 07 80 00 73 00  66 02 80 F8 FF FF 7F F8  ......s.f.......
0060: FF FF 7F 74 6C 6B 30 1D  08 80 23 03 01 10 07 80  ...tlk0...#.....
0070: 01 73 00 21 00                                    .s.!.           
```

#### Opcodes

```
  0: 0x0001 [0x1E] EventEntity looks at LocalPlayer and starts talking
  1: 0x0006 [0x1D] PRINT_EVENT_MESSAGE(message_id=7376*)
    → "I am in charge of assigning missions to Bastokers who wish to serve their country. Are you one of them?"
  2: 0x0009 [0x23] WAIT_FOR_DIALOG_INTERACTION
  3: 0x000A [0x24] CREATE_DIALOG(message_id=7377*, default_option=0*, option_flags=0*)
    → "Have you come to undertake a mission? [Yes, I have./No, maybe later.]"
  4: 0x0011 [0x25] WAIT_DIALOG_SELECT()
  5: 0x0012 [0x02] IF !(Work_Zone[0] == 0*) GOTO 0x0050
  6: 0x001A [0x66] LOAD_EXT_SCHEDULER_MAIN: Load scheduler "tlk0" with entities [EventEntity, EventEntity], work=0*
  7: 0x0029 [0x1D] PRINT_EVENT_MESSAGE(message_id=7381*)
    → "Good. This is your first time going on a mission, is it not?"
  8: 0x002C [0x23] WAIT_FOR_DIALOG_INTERACTION
  9: 0x002D [0x1D] PRINT_EVENT_MESSAGE(message_id=7382*)
    → "Your first assignment is not a difficult one. The details are as follows:"
 10: 0x0030 [0x23] WAIT_FOR_DIALOG_INTERACTION
 11: 0x0031 [0x1D] PRINT_EVENT_MESSAGE(message_id=7383*)
    → "You must go to the Zeruhn Mines in the western section of the Mines District. Once there, you are to collect a report from the overseer."
 12: 0x0034 [0x23] WAIT_FOR_DIALOG_INTERACTION
 13: 0x0035 [0x66] LOAD_EXT_SCHEDULER_MAIN: Load scheduler "ten0" with entities [EventEntity, EventEntity], work=0*
 14: 0x0044 [0x1D] PRINT_EVENT_MESSAGE(message_id=7384*)
    → "You can consult the "Mission" section of the main menu to review your objectives. Speed and efficiency are your priorities. Dismissed."
 15: 0x0047 [0x23] WAIT_FOR_DIALOG_INTERACTION
 16: 0x0048 [0x03] Work_Zone[1] = 0*
 17: 0x004D [0x01] GOTO 0x0073
 18: 0x0050 [0x02] IF !(Work_Zone[0] == 1*) GOTO 0x0073
 19: 0x0058 [0x66] LOAD_EXT_SCHEDULER_MAIN: Load scheduler "tlk0" with entities [EventEntity, EventEntity], work=0*
 20: 0x0067 [0x1D] PRINT_EVENT_MESSAGE(message_id=7380*)
    → "Then move along."
 21: 0x006A [0x23] WAIT_FOR_DIALOG_INTERACTION
 22: 0x006B [0x03] Work_Zone[1] = 1*
 23: 0x0070 [0x01] GOTO 0x0073

SUBROUTINE_0073:
 24: 0x0073 [0x21] END_EVENT
 25: 0x0074 [0x00] END_REQSTACK()
```

### Event 1001

#### Metadata

| Field        | Value      |
|--------------|------------|
| Entrypoint   | 0x0075     |
| Data Size    | 1028 bytes |
| Instructions | 194        |

```
      00 01 02 03 04 05 06 07  08 09 0A 0B 0C 0D 0E 0F
      -- -- -- -- -- -- -- --  -- -- -- -- -- -- -- --
0070:                1E F0 FF  FF 7F 1D 09 80 23 24 0A       ........#$.
0080: 80 0B 80 02 10 25 02 00  10 07 80 00 BB 00 66 02  .....%........f.
0090: 80 F8 FF FF 7F F8 FF FF  7F 74 6C 6B 30 1D 0C 80  .........tlk0...
00A0: 23 1D 0D 80 23 66 02 80  F8 FF FF 7F F8 FF FF 7F  #...#f..........
00B0: 74 65 6E 30 1D 0E 80 23  01 52 04 02 00 10 0F 80  ten0...#.R......
00C0: 00 04 01 03 06 10 10 80  03 07 10 11 80 03 08 10  ................
00D0: 12 80 03 09 10 13 80 66  02 80 F8 FF FF 7F F8 FF  .......f........
00E0: FF 7F 74 6C 6B 30 1D 14  80 23 1D 15 80 23 66 02  ..tlk0...#...#f.
00F0: 80 F8 FF FF 7F F8 FF FF  7F 74 65 6E 30 1D 16 80  .........ten0...
0100: 23 01 52 04 02 00 10 17  80 00 41 01 66 02 80 F8  #.R.......A.f...
0110: FF FF 7F F8 FF FF 7F 74  6C 6B 30 1D 18 80 23 1D  .......tlk0...#.
0120: 19 80 23 1D 1A 80 23 1D  1B 80 23 66 02 80 F8 FF  ..#...#...#f....
0130: FF 7F F8 FF FF 7F 74 65  6E 30 1D 1C 80 23 01 52  ......ten0...#.R
0140: 04 02 00 10 1D 80 00 77  01 03 09 10 1E 80 66 02  .......w......f.
0150: 80 F8 FF FF 7F F8 FF FF  7F 74 6C 6B 30 1D 1F 80  .........tlk0...
0160: 23 66 02 80 F8 FF FF 7F  F8 FF FF 7F 74 65 6E 30  #f..........ten0
0170: 1D 20 80 23 01 52 04 02  00 10 21 80 00 A8 01 66  . .#.R....!....f
0180: 02 80 F8 FF FF 7F F8 FF  FF 7F 74 6C 6B 30 1D 22  ..........tlk0."
0190: 80 23 66 02 80 F8 FF FF  7F F8 FF FF 7F 74 65 6E  .#f..........ten
01A0: 30 1D 23 80 23 01 52 04  02 00 10 24 80 00 E1 01  0.#.#.R....$....
01B0: 66 02 80 F8 FF FF 7F F8  FF FF 7F 74 6C 6B 30 1D  f..........tlk0.
01C0: 25 80 23 1D 26 80 23 1D  27 80 23 66 02 80 F8 FF  %.#.&.#.'.#f....
01D0: FF 7F F8 FF FF 7F 74 65  6E 30 1D 28 80 23 01 52  ......ten0.(.#.R
01E0: 04 02 00 10 29 80 00 1F  02 03 09 10 2A 80 66 02  ....).......*.f.
01F0: 80 F8 FF FF 7F F8 FF FF  7F 74 6C 6B 30 1D 2B 80  .........tlk0.+.
0200: 23 1D 2C 80 23 1D 2D 80  23 66 02 80 F8 FF FF 7F  #.,.#.-.#f......
0210: F8 FF FF 7F 74 65 6E 30  1D 2E 80 23 01 52 04 02  ....ten0...#.R..
0220: 00 10 2F 80 00 54 02 66  02 80 F8 FF FF 7F F8 FF  ../..T.f........
0230: FF 7F 74 6C 6B 30 1D 30  80 23 1D 31 80 23 66 02  ..tlk0.0.#.1.#f.
0240: 80 F8 FF FF 7F F8 FF FF  7F 74 65 6E 30 1D 32 80  .........ten0.2.
0250: 23 01 52 04 02 00 10 33  80 00 85 02 66 02 80 F8  #.R....3....f...
0260: FF FF 7F F8 FF FF 7F 74  6C 6B 30 1D 34 80 23 66  .......tlk0.4.#f
0270: 02 80 F8 FF FF 7F F8 FF  FF 7F 74 65 6E 30 1D 35  ..........ten0.5
0280: 80 23 01 52 04 02 00 10  36 80 00 B6 02 66 02 80  .#.R....6....f..
0290: F8 FF FF 7F F8 FF FF 7F  74 6C 6B 30 1D 37 80 23  ........tlk0.7.#
02A0: 66 02 80 F8 FF FF 7F F8  FF FF 7F 74 65 6E 30 1D  f..........ten0.
02B0: 38 80 23 01 52 04 02 00  10 39 80 00 EB 02 66 02  8.#.R....9....f.
02C0: 80 F8 FF FF 7F F8 FF FF  7F 74 6C 6B 30 1D 3A 80  .........tlk0.:.
02D0: 23 1D 3B 80 23 66 02 80  F8 FF FF 7F F8 FF FF 7F  #.;.#f..........
02E0: 74 65 6E 30 1D 3C 80 23  01 52 04 02 00 10 3D 80  ten0.<.#.R....=.
02F0: 00 20 03 66 02 80 F8 FF  FF 7F F8 FF FF 7F 74 6C  . .f..........tl
0300: 6B 30 1D 3E 80 23 1D 3F  80 23 66 02 80 F8 FF FF  k0.>.#.?.#f.....
0310: 7F F8 FF FF 7F 74 65 6E  30 1D 40 80 23 01 52 04  .....ten0.@.#.R.
0320: 02 00 10 41 80 00 51 03  66 02 80 F8 FF FF 7F F8  ...A..Q.f.......
0330: FF FF 7F 74 6C 6B 30 1D  42 80 23 66 02 80 F8 FF  ...tlk0.B.#f....
0340: FF 7F F8 FF FF 7F 74 65  6E 30 1D 43 80 23 01 52  ......ten0.C.#.R
0350: 04 02 00 10 44 80 00 82  03 66 02 80 F8 FF FF 7F  ....D....f......
0360: F8 FF FF 7F 74 6C 6B 30  1D 45 80 23 66 02 80 F8  ....tlk0.E.#f...
0370: FF FF 7F F8 FF FF 7F 74  65 6E 30 1D 46 80 23 01  .......ten0.F.#.
0380: 52 04 02 00 10 47 80 00  B3 03 66 02 80 F8 FF FF  R....G....f.....
0390: 7F F8 FF FF 7F 74 6C 6B  30 1D 48 80 23 66 02 80  .....tlk0.H.#f..
03A0: F8 FF FF 7F F8 FF FF 7F  74 65 6E 30 1D 49 80 23  ........ten0.I.#
03B0: 01 52 04 02 00 10 4A 80  00 E4 03 66 02 80 F8 FF  .R....J....f....
03C0: FF 7F F8 FF FF 7F 74 6C  6B 30 1D 4B 80 23 66 02  ......tlk0.K.#f.
03D0: 80 F8 FF FF 7F F8 FF FF  7F 74 65 6E 30 1D 4C 80  .........ten0.L.
03E0: 23 01 52 04 02 00 10 4D  80 00 19 04 66 02 80 F8  #.R....M....f...
03F0: FF FF 7F F8 FF FF 7F 74  6C 6B 30 1D 4E 80 23 1D  .......tlk0.N.#.
0400: 4F 80 23 66 02 80 F8 FF  FF 7F F8 FF FF 7F 74 65  O.#f..........te
0410: 6E 30 1D 50 80 23 01 52  04 02 00 10 51 80 00 52  n0.P.#.R....Q..R
0420: 04 66 02 80 F8 FF FF 7F  F8 FF FF 7F 74 6C 6B 30  .f..........tlk0
0430: 1D 52 80 23 1D 53 80 23  1D 54 80 23 66 02 80 F8  .R.#.S.#.T.#f...
0440: FF FF 7F F8 FF FF 7F 74  65 6E 30 1D 55 80 23 01  .......ten0.U.#.
0450: 52 04 03 01 10 00 10 02  01 10 0B 80 01 77 04 24  R............w.$
0460: 56 80 02 80 02 80 25 02  00 10 07 80 00 77 04 03  V.....%......w..
0470: 01 10 0B 80 01 77 04 21  00                       .....w.!.       
```

#### Opcodes

```
  0: 0x0075 [0x1E] EventEntity looks at LocalPlayer and starts talking
  1: 0x007A [0x1D] PRINT_EVENT_MESSAGE(message_id=7374*)
    → "Missions currently available are as follows:"
  2: 0x007D [0x23] WAIT_FOR_DIALOG_INTERACTION
  3: 0x007E [0x24] CREATE_DIALOG(message_id=7375*, default_option=31*, option_flags=Work_Zone[2])
    → "Which mission will you undertake? [The Zeruhn Report./A Geological Survey./Fetichism./The Crystal Line./Wading Beasts./The Emissary."-3-1A."-3-1B."-3-2A."-3-2B./The Four Musketeers./To the Forsaken Mines./Jeuno./$3_$3~[./Darkness Rising./Xarcabard, Land of Truths./Return of the Talekeeper./The Pirates' Cove./The Final Image./On My Way./The Chains That Bind Us./Enter the Talekeeper./The Salt of the Earth./Where Two Paths Converge./$3_$3~$470607$3_$3~$470608$3_$3~$470609$3_$3~$470610$3_$3~$470611$3_$3~$470612$3_$3~$470613None.]"
  4: 0x0085 [0x25] WAIT_DIALOG_SELECT()
  5: 0x0086 [0x02] IF !(Work_Zone[0] == 1*) GOTO 0x00BB
  6: 0x008E [0x66] LOAD_EXT_SCHEDULER_MAIN: Load scheduler "tlk0" with entities [EventEntity, EventEntity], work=0*
  7: 0x009D [0x1D] PRINT_EVENT_MESSAGE(message_id=7385*)
    → "The Chief Engineer is conducting new research, and has asked for someone to assist him. He can be found in the Metalworks, to the east of the administrative section."
  8: 0x00A0 [0x23] WAIT_FOR_DIALOG_INTERACTION
  9: 0x00A1 [0x1D] PRINT_EVENT_MESSAGE(message_id=7386*)
    → "The Chief Engineer's laboratory is on the second floor of the Metalworks. You don't know his name!? And you call yourself a Bastoker!"
 10: 0x00A4 [0x23] WAIT_FOR_DIALOG_INTERACTION
 11: 0x00A5 [0x66] LOAD_EXT_SCHEDULER_MAIN: Load scheduler "ten0" with entities [EventEntity, EventEntity], work=0*
 12: 0x00B4 [0x1D] PRINT_EVENT_MESSAGE(message_id=7387*)
    → "The Chief Engineer's name is Cid. Any Bastoker would know that! Now go and see him. He will give you the details of your mission."
 13: 0x00B7 [0x23] WAIT_FOR_DIALOG_INTERACTION
 14: 0x00B8 [0x01] GOTO 0x0452
 15: 0x00BB [0x02] IF !(Work_Zone[0] == 2*) GOTO 0x0104
 16: 0x00C3 [0x03] Work_Zone[6] = 606*
 17: 0x00C8 [0x03] Work_Zone[7] = 607*
 18: 0x00CD [0x03] Work_Zone[8] = 608*
 19: 0x00D2 [0x03] Work_Zone[9] = 609*
 20: 0x00D7 [0x66] LOAD_EXT_SCHEDULER_MAIN: Load scheduler "tlk0" with entities [EventEntity, EventEntity], work=0*
 21: 0x00E6 [0x1D] PRINT_EVENT_MESSAGE(message_id=7388*)
    → "The Palborough Mines, once our main source of mythril, have been under beastman control for some time."
 22: 0x00E9 [0x23] WAIT_FOR_DIALOG_INTERACTION
 23: 0x00EA [0x1D] PRINT_EVENT_MESSAGE(message_id=7389*)
    → "We want you to hunt these beastmen, the Quadav, and bring back $4, $5, $6, and $7 as proof of your accomplishments."
 24: 0x00ED [0x23] WAIT_FOR_DIALOG_INTERACTION
 25: 0x00EE [0x66] LOAD_EXT_SCHEDULER_MAIN: Load scheduler "ten0" with entities [EventEntity, EventEntity], work=0*
 26: 0x00FD [0x1D] PRINT_EVENT_MESSAGE(message_id=7390*)
    → "You must present all four items to me or one of my colleagues in order to complete this mission."
 27: 0x0100 [0x23] WAIT_FOR_DIALOG_INTERACTION
 28: 0x0101 [0x01] GOTO 0x0452
 29: 0x0104 [0x02] IF !(Work_Zone[0] == 3*) GOTO 0x0141
 30: 0x010C [0x66] LOAD_EXT_SCHEDULER_MAIN: Load scheduler "tlk0" with entities [EventEntity, EventEntity], work=0*
 31: 0x011B [0x1D] PRINT_EVENT_MESSAGE(message_id=7399*)
    → "Have you heard of a strange structure called the Crag of Dem? It is on the Konschtat Highlands, north of the Gustaberg Mountains."
 32: 0x011E [0x23] WAIT_FOR_DIALOG_INTERACTION
 33: 0x011F [0x1D] PRINT_EVENT_MESSAGE(message_id=7400*)
    → "They say that crystals are drained of their power if you take them to a certain section of that structure."
 34: 0x0122 [0x23] WAIT_FOR_DIALOG_INTERACTION
 35: 0x0123 [0x1D] PRINT_EVENT_MESSAGE(message_id=7401*)
    → "Chief Cid is currently investigating this strange phenomenon, and is asking for someone to bring back a faded crystal."
 36: 0x0126 [0x23] WAIT_FOR_DIALOG_INTERACTION
 37: 0x0127 [0x1D] PRINT_EVENT_MESSAGE(message_id=7402*)
    → "Go see him for a more detailed explanation of your objectives."
 38: 0x012A [0x23] WAIT_FOR_DIALOG_INTERACTION
 39: 0x012B [0x66] LOAD_EXT_SCHEDULER_MAIN: Load scheduler "ten0" with entities [EventEntity, EventEntity], work=0*
 40: 0x013A [0x1D] PRINT_EVENT_MESSAGE(message_id=7403*)
    → "You want a crystal to use for this experiment? Are you not an adventurer? It should be easy for you to procure one."
 41: 0x013D [0x23] WAIT_FOR_DIALOG_INTERACTION
 42: 0x013E [0x01] GOTO 0x0452
 43: 0x0141 [0x02] IF !(Work_Zone[0] == 4*) GOTO 0x0177
 44: 0x0149 [0x03] Work_Zone[9] = 4362*
 45: 0x014E [0x66] LOAD_EXT_SCHEDULER_MAIN: Load scheduler "tlk0" with entities [EventEntity, EventEntity], work=0*
 46: 0x015D [0x1D] PRINT_EVENT_MESSAGE(message_id=7404*)
    → "You are to collect $7 from beasts in the Dangruf Wadi."
 47: 0x0160 [0x23] WAIT_FOR_DIALOG_INTERACTION
 48: 0x0161 [0x66] LOAD_EXT_SCHEDULER_MAIN: Load scheduler "ten0" with entities [EventEntity, EventEntity], work=0*
 49: 0x0170 [0x1D] PRINT_EVENT_MESSAGE(message_id=7405*)
    → "Senator Alois is in need of some. Do not ask me why. He can be found in the President's Office."
 50: 0x0173 [0x23] WAIT_FOR_DIALOG_INTERACTION
 51: 0x0174 [0x01] GOTO 0x0452
 52: 0x0177 [0x02] IF !(Work_Zone[0] == 5*) GOTO 0x01A8
 53: 0x017F [0x66] LOAD_EXT_SCHEDULER_MAIN: Load scheduler "tlk0" with entities [EventEntity, EventEntity], work=0*
 54: 0x018E [0x1D] PRINT_EVENT_MESSAGE(message_id=7406*)
    → "You've acquired quite a reputation. There is a new mission for you to tackle."
 55: 0x0191 [0x23] WAIT_FOR_DIALOG_INTERACTION
 56: 0x0192 [0x66] LOAD_EXT_SCHEDULER_MAIN: Load scheduler "ten0" with entities [EventEntity, EventEntity], work=0*
 57: 0x01A1 [0x1D] PRINT_EVENT_MESSAGE(message_id=7407*)
    → "First, speak to Sir Naji of the Mythril Musketeers at the President's Office. This mission is of great import to the welfare of our nation."
 58: 0x01A4 [0x23] WAIT_FOR_DIALOG_INTERACTION
 59: 0x01A5 [0x01] GOTO 0x0452
 60: 0x01A8 [0x02] IF !(Work_Zone[0] == 10*) GOTO 0x01E1
 61: 0x01B0 [0x66] LOAD_EXT_SCHEDULER_MAIN: Load scheduler "tlk0" with entities [EventEntity, EventEntity], work=0*
 62: 0x01BF [0x1D] PRINT_EVENT_MESSAGE(message_id=7408*)
    → "I see you've made it back safely from your journey to Windurst and San d'Oria. This new mission should not be hard for an experienced adventurer like you."
 63: 0x01C2 [0x23] WAIT_FOR_DIALOG_INTERACTION
 64: 0x01C3 [0x1D] PRINT_EVENT_MESSAGE(message_id=7409*)
    → "The Mythril Musketeers are planning an offensive on the Quadav stronghold."
 65: 0x01C6 [0x23] WAIT_FOR_DIALOG_INTERACTION
 66: 0x01C7 [0x1D] PRINT_EVENT_MESSAGE(message_id=7410*)
    → "Adventurers, including yourself, have been asked to join them on this operation."
 67: 0x01CA [0x23] WAIT_FOR_DIALOG_INTERACTION
 68: 0x01CB [0x66] LOAD_EXT_SCHEDULER_MAIN: Load scheduler "ten0" with entities [EventEntity, EventEntity], work=0*
 69: 0x01DA [0x1D] PRINT_EVENT_MESSAGE(message_id=7411*)
    → "You are to go meet Iron Eater, one of the Mythril Musketeers, to receive a full briefing."
 70: 0x01DD [0x23] WAIT_FOR_DIALOG_INTERACTION
 71: 0x01DE [0x01] GOTO 0x0452
 72: 0x01E1 [0x02] IF !(Work_Zone[0] == 11*) GOTO 0x021F
 73: 0x01E9 [0x03] Work_Zone[9] = 563*
 74: 0x01EE [0x66] LOAD_EXT_SCHEDULER_MAIN: Load scheduler "tlk0" with entities [EventEntity, EventEntity], work=0*
 75: 0x01FD [0x1D] PRINT_EVENT_MESSAGE(message_id=7412*)
    → "The Gusgen Mines in the Konschtat Highlands have been dug to the bare rock and abandoned for some time..."
 76: 0x0200 [0x23] WAIT_FOR_DIALOG_INTERACTION
 77: 0x0201 [0x1D] PRINT_EVENT_MESSAGE(message_id=7413*)
    → "But lately, there have been reports that a rare ore can be found in them. No one has claimed this new vein yet."
 78: 0x0204 [0x23] WAIT_FOR_DIALOG_INTERACTION
 79: 0x0205 [0x1D] PRINT_EVENT_MESSAGE(message_id=7414*)
    → "You are to bring back a sample of the ore to confirm these reports. A Galka adventurer named Davyad should be able to help you. He is said to have acquired a chunk of the ore when he was there last."
 80: 0x0208 [0x23] WAIT_FOR_DIALOG_INTERACTION
 81: 0x0209 [0x66] LOAD_EXT_SCHEDULER_MAIN: Load scheduler "ten0" with entities [EventEntity, EventEntity], work=0*
 82: 0x0218 [0x1D] PRINT_EVENT_MESSAGE(message_id=7415*)
    → "The item that Davyad brought back was $7. That is what you should seek as well. Once you have the ore, hand them over to me or one of my colleagues."
 83: 0x021B [0x23] WAIT_FOR_DIALOG_INTERACTION
 84: 0x021C [0x01] GOTO 0x0452
 85: 0x021F [0x02] IF !(Work_Zone[0] == 12*) GOTO 0x0254
 86: 0x0227 [0x66] LOAD_EXT_SCHEDULER_MAIN: Load scheduler "tlk0" with entities [EventEntity, EventEntity], work=0*
 87: 0x0236 [0x1D] PRINT_EVENT_MESSAGE(message_id=7417*)
    → "You have heard of Jeuno, have you not? The Bastokan government is currently looking for someone to send there, and your name is on the list of candidates."
 88: 0x0239 [0x23] WAIT_FOR_DIALOG_INTERACTION
 89: 0x023A [0x1D] PRINT_EVENT_MESSAGE(message_id=7418*)
    → "The presidential aide, Sir Lucius himself, recommended you. It is a great honor--you should be proud!"
 90: 0x023D [0x23] WAIT_FOR_DIALOG_INTERACTION
 91: 0x023E [0x66] LOAD_EXT_SCHEDULER_MAIN: Load scheduler "ten0" with entities [EventEntity, EventEntity], work=0*
 92: 0x024D [0x1D] PRINT_EVENT_MESSAGE(message_id=7419*)
    → "Sir Lucius wishes to see you as soon as possible. Go meet him in his office in the administrative section at the top of the Metalworks."
 93: 0x0250 [0x23] WAIT_FOR_DIALOG_INTERACTION
 94: 0x0251 [0x01] GOTO 0x0452
 95: 0x0254 [0x02] IF !(Work_Zone[0] == 14*) GOTO 0x0285
 96: 0x025C [0x66] LOAD_EXT_SCHEDULER_MAIN: Load scheduler "tlk0" with entities [EventEntity, EventEntity], work=0*
 97: 0x026B [0x1D] PRINT_EVENT_MESSAGE(message_id=7420*)
    → "I have orders for you from the president himself. You must have heard already, but he wants you to go to Fei'Yin."
 98: 0x026E [0x23] WAIT_FOR_DIALOG_INTERACTION
 99: 0x026F [0x66] LOAD_EXT_SCHEDULER_MAIN: Load scheduler "ten0" with entities [EventEntity, EventEntity], work=0*
100: 0x027E [0x1D] PRINT_EVENT_MESSAGE(message_id=7421*)
    → "Go speak to Sir Naji at the President's Office. He will show you in."
101: 0x0281 [0x23] WAIT_FOR_DIALOG_INTERACTION
102: 0x0282 [0x01] GOTO 0x0452
103: 0x0285 [0x02] IF !(Work_Zone[0] == 15*) GOTO 0x02B6
104: 0x028D [0x66] LOAD_EXT_SCHEDULER_MAIN: Load scheduler "tlk0" with entities [EventEntity, EventEntity], work=0*
105: 0x029C [0x1D] PRINT_EVENT_MESSAGE(message_id=7422*)
    → "So, it has finally come to this... You are to infiltrate the Kindred's main stronghold of Zvahl."
106: 0x029F [0x23] WAIT_FOR_DIALOG_INTERACTION
107: 0x02A0 [0x66] LOAD_EXT_SCHEDULER_MAIN: Load scheduler "ten0" with entities [EventEntity, EventEntity], work=0*
108: 0x02AF [0x1D] PRINT_EVENT_MESSAGE(message_id=7423*)
    → "The president will brief you himself in his office. Good luck, adventurer!"
109: 0x02B2 [0x23] WAIT_FOR_DIALOG_INTERACTION
110: 0x02B3 [0x01] GOTO 0x0452
111: 0x02B6 [0x02] IF !(Work_Zone[0] == 16*) GOTO 0x02EB
112: 0x02BE [0x66] LOAD_EXT_SCHEDULER_MAIN: Load scheduler "tlk0" with entities [EventEntity, EventEntity], work=0*
113: 0x02CD [0x1D] PRINT_EVENT_MESSAGE(message_id=8502*)
    → "There has been some commotion in the Mines District near Ore Street. People are saying that a new Talekeeper has appeared."
114: 0x02D0 [0x23] WAIT_FOR_DIALOG_INTERACTION
115: 0x02D1 [0x1D] PRINT_EVENT_MESSAGE(message_id=8503*)
    → "It sounds fishy to me, but with the disappearance of their elder, Werei, anything could be possible. And the last thing we want is an uprising by the Galka."
116: 0x02D4 [0x23] WAIT_FOR_DIALOG_INTERACTION
117: 0x02D5 [0x66] LOAD_EXT_SCHEDULER_MAIN: Load scheduler "ten0" with entities [EventEntity, EventEntity], work=0*
118: 0x02E4 [0x1D] PRINT_EVENT_MESSAGE(message_id=8504*)
    → "Go to Ore Street and talk to Medicine Eagle. He says he was there when the commotion started."
119: 0x02E7 [0x23] WAIT_FOR_DIALOG_INTERACTION
120: 0x02E8 [0x01] GOTO 0x0452
121: 0x02EB [0x02] IF !(Work_Zone[0] == 17*) GOTO 0x0320
122: 0x02F3 [0x66] LOAD_EXT_SCHEDULER_MAIN: Load scheduler "tlk0" with entities [EventEntity, EventEntity], work=0*
123: 0x0302 [0x1D] PRINT_EVENT_MESSAGE(message_id=8505*)
    → "I assume an adventurer of your caliber has heard of Norg."
124: 0x0305 [0x23] WAIT_FOR_DIALOG_INTERACTION
125: 0x0306 [0x1D] PRINT_EVENT_MESSAGE(message_id=8506*)
    → "Well, the place is a haven for pirates. They even have ties with the Tenshodo. In any case, it's an area that cannot be looked upon lightly."
126: 0x0309 [0x23] WAIT_FOR_DIALOG_INTERACTION
127: 0x030A [0x66] LOAD_EXT_SCHEDULER_MAIN: Load scheduler "ten0" with entities [EventEntity, EventEntity], work=0*
128: 0x0319 [0x1D] PRINT_EVENT_MESSAGE(message_id=8507*)
    → "That is why we want you to travel there as an emissary. Report to Sir Naji in the President's Office for details."
129: 0x031C [0x23] WAIT_FOR_DIALOG_INTERACTION
130: 0x031D [0x01] GOTO 0x0452
131: 0x0320 [0x02] IF !(Work_Zone[0] == 18*) GOTO 0x0351
132: 0x0328 [0x66] LOAD_EXT_SCHEDULER_MAIN: Load scheduler "tlk0" with entities [EventEntity, EventEntity], work=0*
133: 0x0337 [0x1D] PRINT_EVENT_MESSAGE(message_id=8508*)
    → "Currently, Chief Engineer Cid is conducting research on the architecture in Ro'Maeve near the Sanctuary of Zi'Tah. Your next mission is to travel there and assist him."
134: 0x033A [0x23] WAIT_FOR_DIALOG_INTERACTION
135: 0x033B [0x66] LOAD_EXT_SCHEDULER_MAIN: Load scheduler "ten0" with entities [EventEntity, EventEntity], work=0*
136: 0x034A [0x1D] PRINT_EVENT_MESSAGE(message_id=8509*)
    → "Report to the Chief Engineer in the Metalworks for further details."
137: 0x034D [0x23] WAIT_FOR_DIALOG_INTERACTION
138: 0x034E [0x01] GOTO 0x0452
139: 0x0351 [0x02] IF !(Work_Zone[0] == 19*) GOTO 0x0382
140: 0x0359 [0x66] LOAD_EXT_SCHEDULER_MAIN: Load scheduler "tlk0" with entities [EventEntity, EventEntity], work=0*
141: 0x0368 [0x1D] PRINT_EVENT_MESSAGE(message_id=8510*)
    → "We are searching for an adventurer holding vital information dealing with a certain national investigation."
142: 0x036B [0x23] WAIT_FOR_DIALOG_INTERACTION
143: 0x036C [0x66] LOAD_EXT_SCHEDULER_MAIN: Load scheduler "ten0" with entities [EventEntity, EventEntity], work=0*
144: 0x037B [0x1D] PRINT_EVENT_MESSAGE(message_id=8511*)
    → "The president himself has expressed great interest in this case. Proceed to the President's Office for the details of this mission."
145: 0x037E [0x23] WAIT_FOR_DIALOG_INTERACTION
146: 0x037F [0x01] GOTO 0x0452
147: 0x0382 [0x02] IF !(Work_Zone[0] == 20*) GOTO 0x03B3
148: 0x038A [0x66] LOAD_EXT_SCHEDULER_MAIN: Load scheduler "tlk0" with entities [EventEntity, EventEntity], work=0*
149: 0x0399 [0x1D] PRINT_EVENT_MESSAGE(message_id=8513*)
    → "It looks like Bastok is really going to begin an investigation of the Galka homeland of Altepa."
150: 0x039C [0x23] WAIT_FOR_DIALOG_INTERACTION
151: 0x039D [0x66] LOAD_EXT_SCHEDULER_MAIN: Load scheduler "ten0" with entities [EventEntity, EventEntity], work=0*
152: 0x03AC [0x1D] PRINT_EVENT_MESSAGE(message_id=8514*)
    → "Your role in this investigation will have you traveling to the Quicksand Caves. Get the details of this mission from Iron Eater in the President's Office."
153: 0x03AF [0x23] WAIT_FOR_DIALOG_INTERACTION
154: 0x03B0 [0x01] GOTO 0x0452
155: 0x03B3 [0x02] IF !(Work_Zone[0] == 21*) GOTO 0x03E4
156: 0x03BB [0x66] LOAD_EXT_SCHEDULER_MAIN: Load scheduler "tlk0" with entities [EventEntity, EventEntity], work=0*
157: 0x03CA [0x1D] PRINT_EVENT_MESSAGE(message_id=8515*)
    → "As a continuation of Bastok's investigation of Altepa, this time you will be traveling to Zepwell Island."
158: 0x03CD [0x23] WAIT_FOR_DIALOG_INTERACTION
159: 0x03CE [0x66] LOAD_EXT_SCHEDULER_MAIN: Load scheduler "ten0" with entities [EventEntity, EventEntity], work=0*
160: 0x03DD [0x1D] PRINT_EVENT_MESSAGE(message_id=8516*)
    → "You will be carrying out your part of the investigation in the Kuftal Tunnel, which connects Cape Teriggan to Zepwell Island. Report to Drake Fang in the Zeruhn Mines for details."
161: 0x03E0 [0x23] WAIT_FOR_DIALOG_INTERACTION
162: 0x03E1 [0x01] GOTO 0x0452
163: 0x03E4 [0x02] IF !(Work_Zone[0] == 22*) GOTO 0x0419
164: 0x03EC [0x66] LOAD_EXT_SCHEDULER_MAIN: Load scheduler "tlk0" with entities [EventEntity, EventEntity], work=0*
165: 0x03FB [0x1D] PRINT_EVENT_MESSAGE(message_id=8517*)
    → "Senator Alois has asked for your assistance."
166: 0x03FE [0x23] WAIT_FOR_DIALOG_INTERACTION
167: 0x03FF [0x1D] PRINT_EVENT_MESSAGE(message_id=8518*)
    → "It is something about an expedition to Vollbow..."
168: 0x0402 [0x23] WAIT_FOR_DIALOG_INTERACTION
169: 0x0403 [0x66] LOAD_EXT_SCHEDULER_MAIN: Load scheduler "ten0" with entities [EventEntity, EventEntity], work=0*
170: 0x0412 [0x1D] PRINT_EVENT_MESSAGE(message_id=8519*)
    → "I just hope he's not asking you to go get lizard eggs again... Wait, you didn't hear me say that."
171: 0x0415 [0x23] WAIT_FOR_DIALOG_INTERACTION
172: 0x0416 [0x01] GOTO 0x0452
173: 0x0419 [0x02] IF !(Work_Zone[0] == 23*) GOTO 0x0452
174: 0x0421 [0x66] LOAD_EXT_SCHEDULER_MAIN: Load scheduler "tlk0" with entities [EventEntity, EventEntity], work=0*
175: 0x0430 [0x1D] PRINT_EVENT_MESSAGE(message_id=8520*)
    → "Recently, an adventurer who was sent to investigate the Northlands has been attacked."
176: 0x0433 [0x23] WAIT_FOR_DIALOG_INTERACTION
177: 0x0434 [0x1D] PRINT_EVENT_MESSAGE(message_id=8521*)
    → "According to her report, the attacker resembled the dark knight Zeid."
178: 0x0437 [0x23] WAIT_FOR_DIALOG_INTERACTION
179: 0x0438 [0x1D] PRINT_EVENT_MESSAGE(message_id=8522*)
    → "The strange thing is that the attacker passed a letter to the adventurer before letting her go. Now, this letter's content is causing quite a commotion in the President's Office."
180: 0x043B [0x23] WAIT_FOR_DIALOG_INTERACTION
181: 0x043C [0x66] LOAD_EXT_SCHEDULER_MAIN: Load scheduler "ten0" with entities [EventEntity, EventEntity], work=0*
182: 0x044B [0x1D] PRINT_EVENT_MESSAGE(message_id=8523*)
    → "You have been asked to report directly to President Karst for further details."
183: 0x044E [0x23] WAIT_FOR_DIALOG_INTERACTION
184: 0x044F [0x01] GOTO 0x0452

SUBROUTINE_0452:
185: 0x0452 [0x03] Work_Zone[1] = Work_Zone[0]
186: 0x0457 [0x02] IF !(Work_Zone[1] == 31*) GOTO 0x0477
187: 0x045F [0x24] CREATE_DIALOG(message_id=7378*, default_option=0*, option_flags=0*)
    → "Will you accept this mission? [Yes./No.]"
188: 0x0466 [0x25] WAIT_DIALOG_SELECT()
189: 0x0467 [0x02] IF !(Work_Zone[0] == 1*) GOTO 0x0477
190: 0x046F [0x03] Work_Zone[1] = 31*
191: 0x0474 [0x01] GOTO 0x0477

SUBROUTINE_0477:
192: 0x0477 [0x21] END_EVENT
193: 0x0478 [0x00] END_REQSTACK()
```

### Event 1002

#### Metadata

| Field        | Value    |
|--------------|----------|
| Entrypoint   | 0x0479   |
| Data Size    | 11 bytes |
| Instructions | 5        |

```
      00 01 02 03 04 05 06 07  08 09 0A 0B 0C 0D 0E 0F
      -- -- -- -- -- -- -- --  -- -- -- -- -- -- -- --
0470:                             1E F0 FF FF 7F 1D 57           ......W
0480: 80 23 21 00                                       .#!.            
```

#### Opcodes

```
  0: 0x0479 [0x1E] EventEntity looks at LocalPlayer and starts talking
  1: 0x047E [0x1D] PRINT_EVENT_MESSAGE(message_id=7373*)
    → "You cannot undertake two missions at the same time. Finish the one you are on now before asking for a new one."
  2: 0x0481 [0x23] WAIT_FOR_DIALOG_INTERACTION
  3: 0x0482 [0x21] END_EVENT
  4: 0x0483 [0x00] END_REQSTACK()
```

### Event 1003

#### Metadata

| Field        | Value    |
|--------------|----------|
| Entrypoint   | 0x0484   |
| Data Size    | 11 bytes |
| Instructions | 5        |

```
      00 01 02 03 04 05 06 07  08 09 0A 0B 0C 0D 0E 0F
      -- -- -- -- -- -- -- --  -- -- -- -- -- -- -- --
0480:             1E F0 FF FF  7F 1D 58 80 23 21 00         ......X.#!. 
```

#### Opcodes

```
  0: 0x0484 [0x1E] EventEntity looks at LocalPlayer and starts talking
  1: 0x0489 [0x1D] PRINT_EVENT_MESSAGE(message_id=7372*)
    → "I am in charge of assigning missions, but I am only allowed to do so to those whose allegiance is to Bastok."
  2: 0x048C [0x23] WAIT_FOR_DIALOG_INTERACTION
  3: 0x048D [0x21] END_EVENT
  4: 0x048E [0x00] END_REQSTACK()
```

### Event 1004

#### Metadata

| Field        | Value     |
|--------------|-----------|
| Entrypoint   | 0x048F    |
| Data Size    | 122 bytes |
| Instructions | 27        |

```
      00 01 02 03 04 05 06 07  08 09 0A 0B 0C 0D 0E 0F
      -- -- -- -- -- -- -- --  -- -- -- -- -- -- -- --
0480:                                               42                 B
0490: 20 01 1E F0 FF FF 7F 1D  59 80 23 66 02 80 F8 FF   .......Y.#f....
04A0: FF 7F F8 FF FF 7F 74 6C  6B 30 1D 5A 80 23 1D 5B  ......tlk0.Z.#.[
04B0: 80 23 66 02 80 F8 FF FF  7F F8 FF FF 7F 74 65 6E  .#f..........ten
04C0: 30 1D 5C 80 23 66 02 80  F8 FF FF 7F F8 FF FF 7F  0.\.#f..........
04D0: 74 6C 6B 31 1D 5D 80 23  1D 5E 80 23 1D 5F 80 23  tlk1.].#.^.#._.#
04E0: 66 02 80 F8 FF FF 7F F8  FF FF 7F 74 65 6E 31 1D  f..........ten1.
04F0: 60 80 23 7D 0F 80 45 61  80 F0 FF FF 7F F0 FF FF  `.#}..Ea........
0500: 7F 71 73 74 63 02 80 21  00                       .qstc..!.       
```

#### Opcodes

```
  0: 0x048F [0x42] SET_CLI_EVENT_CANCEL_DATA()
  1: 0x0490 [0x20] SET_CLI_EVENT_UC_FLAG: Lock player control
  2: 0x0492 [0x1E] EventEntity looks at LocalPlayer and starts talking
  3: 0x0497 [0x1D] PRINT_EVENT_MESSAGE(message_id=7391*)
    → "Good, you've brought all four parts of the doll."
  4: 0x049A [0x23] WAIT_FOR_DIALOG_INTERACTION
  5: 0x049B [0x66] LOAD_EXT_SCHEDULER_MAIN: Load scheduler "tlk0" with entities [EventEntity, EventEntity], work=0*
  6: 0x04AA [0x1D] PRINT_EVENT_MESSAGE(message_id=7392*)
    → "I am raising your rank to 2 for completing this mission. Congratulations."
  7: 0x04AD [0x23] WAIT_FOR_DIALOG_INTERACTION
  8: 0x04AE [0x1D] PRINT_EVENT_MESSAGE(message_id=7393*)
    → "If you've been to the Palborough Mines, you must know now the serious nature of the threat these beastmen pose to our civilization."
  9: 0x04B1 [0x23] WAIT_FOR_DIALOG_INTERACTION
 10: 0x04B2 [0x66] LOAD_EXT_SCHEDULER_MAIN: Load scheduler "ten0" with entities [EventEntity, EventEntity], work=0*
 11: 0x04C1 [0x1D] PRINT_EVENT_MESSAGE(message_id=7394*)
    → "As a Bastoker, you are expected to take on more missions and go on conquests to preserve Bastok's brilliant future!"
 12: 0x04C4 [0x23] WAIT_FOR_DIALOG_INTERACTION
 13: 0x04C5 [0x66] LOAD_EXT_SCHEDULER_MAIN: Load scheduler "tlk1" with entities [EventEntity, EventEntity], work=0*
 14: 0x04D4 [0x1D] PRINT_EVENT_MESSAGE(message_id=7395*)
    → "But I cannot give you a new mission at this time."
 15: 0x04D7 [0x23] WAIT_FOR_DIALOG_INTERACTION
 16: 0x04D8 [0x1D] PRINT_EVENT_MESSAGE(message_id=7396*)
    → "You need to collect rank points before taking on new missions."
 17: 0x04DB [0x23] WAIT_FOR_DIALOG_INTERACTION
 18: 0x04DC [0x1D] PRINT_EVENT_MESSAGE(message_id=7397*)
    → "You can receive rank points by participating in conquests and donating the crystals you acquire to guards, or by undertaking missions you've previously completed."
 19: 0x04DF [0x23] WAIT_FOR_DIALOG_INTERACTION
 20: 0x04E0 [0x66] LOAD_EXT_SCHEDULER_MAIN: Load scheduler "ten1" with entities [EventEntity, EventEntity], work=0*
 21: 0x04EF [0x1D] PRINT_EVENT_MESSAGE(message_id=7398*)
    → "Ask the High Guard near the gatehouse if you wish to hear more about conquests."
 22: 0x04F2 [0x23] WAIT_FOR_DIALOG_INTERACTION
 23: 0x04F3 [0x7D] LOAD_START_SCHEDULER_PLAYER: Load scheduler with animation_id 32783
 24: 0x04F6 [0x45] LOAD_SCHEDULED_TASK: Load scheduler "qstc" with entities [LocalPlayer, LocalPlayer], work=[201*, 0*]
 25: 0x0507 [0x21] END_EVENT
 26: 0x0508 [0x00] END_REQSTACK()
```

### Event 1005

#### Metadata

| Field        | Value    |
|--------------|----------|
| Entrypoint   | 0x0509   |
| Data Size    | 31 bytes |
| Instructions | 8        |

```
      00 01 02 03 04 05 06 07  08 09 0A 0B 0C 0D 0E 0F
      -- -- -- -- -- -- -- --  -- -- -- -- -- -- -- --
0500:                             42 20 01 1E F0 FF FF           B .....
0510: 7F 1D 59 80 23 45 61 80  F0 FF FF 7F F0 FF FF 7F  ..Y.#Ea.........
0520: 71 73 74 63 02 80 21 00                           qstc..!.        
```

#### Opcodes

```
  0: 0x0509 [0x42] SET_CLI_EVENT_CANCEL_DATA()
  1: 0x050A [0x20] SET_CLI_EVENT_UC_FLAG: Lock player control
  2: 0x050C [0x1E] EventEntity looks at LocalPlayer and starts talking
  3: 0x0511 [0x1D] PRINT_EVENT_MESSAGE(message_id=7391*)
    → "Good, you've brought all four parts of the doll."
  4: 0x0514 [0x23] WAIT_FOR_DIALOG_INTERACTION
  5: 0x0515 [0x45] LOAD_SCHEDULED_TASK: Load scheduler "qstc" with entities [LocalPlayer, LocalPlayer], work=[201*, 0*]
  6: 0x0526 [0x21] END_EVENT
  7: 0x0527 [0x00] END_REQSTACK()
```

### Event 1006

#### Metadata

| Field        | Value    |
|--------------|----------|
| Entrypoint   | 0x0528   |
| Data Size    | 36 bytes |
| Instructions | 9        |

```
      00 01 02 03 04 05 06 07  08 09 0A 0B 0C 0D 0E 0F
      -- -- -- -- -- -- -- --  -- -- -- -- -- -- -- --
0520:                          42 20 01 1E F0 FF FF 7F          B ......
0530: 03 09 10 2A 80 1D 62 80  23 45 61 80 F0 FF FF 7F  ...*..b.#Ea.....
0540: F0 FF FF 7F 71 73 74 63  02 80 21 00              ....qstc..!.    
```

#### Opcodes

```
  0: 0x0528 [0x42] SET_CLI_EVENT_CANCEL_DATA()
  1: 0x0529 [0x20] SET_CLI_EVENT_UC_FLAG: Lock player control
  2: 0x052B [0x1E] EventEntity looks at LocalPlayer and starts talking
  3: 0x0530 [0x03] Work_Zone[9] = 563*
  4: 0x0535 [0x1D] PRINT_EVENT_MESSAGE(message_id=7416*)
    → "You have succeeded in bringing back $7. Good work, adventurer. This discovery may help rejuvenate Bastok's economy!"
  5: 0x0538 [0x23] WAIT_FOR_DIALOG_INTERACTION
  6: 0x0539 [0x45] LOAD_SCHEDULED_TASK: Load scheduler "qstc" with entities [LocalPlayer, LocalPlayer], work=[201*, 0*]
  7: 0x054A [0x21] END_EVENT
  8: 0x054B [0x00] END_REQSTACK()
```

### Event 1007

#### Metadata

| Field        | Value    |
|--------------|----------|
| Entrypoint   | 0x054C   |
| Data Size    | 11 bytes |
| Instructions | 5        |

```
      00 01 02 03 04 05 06 07  08 09 0A 0B 0C 0D 0E 0F
      -- -- -- -- -- -- -- --  -- -- -- -- -- -- -- --
0540:                                      1E F0 FF FF              ....
0550: 7F 1D 63 80 23 21 00                              ..c.#!.         
```

#### Opcodes

```
  0: 0x054C [0x1E] EventEntity looks at LocalPlayer and starts talking
  1: 0x0551 [0x1D] PRINT_EVENT_MESSAGE(message_id=7424*)
    → "Ah, you have returned from Jeuno. Go to the President's Office right away. Sir Naji will show you in."
  2: 0x0554 [0x23] WAIT_FOR_DIALOG_INTERACTION
  3: 0x0555 [0x21] END_EVENT
  4: 0x0556 [0x00] END_REQSTACK()
```

### Event 1011

#### Metadata

| Field        | Value    |
|--------------|----------|
| Entrypoint   | 0x0557   |
| Data Size    | 16 bytes |
| Instructions | 6        |

```
      00 01 02 03 04 05 06 07  08 09 0A 0B 0C 0D 0E 0F
      -- -- -- -- -- -- -- --  -- -- -- -- -- -- -- --
0550:                      03  09 10 64 80 1E F0 FF FF         ...d.....
0560: 7F 1D 65 80 23 21 00                              ..e.#!.         
```

#### Opcodes

```
  0: 0x0557 [0x03] Work_Zone[9] = 290*
  1: 0x055C [0x1E] EventEntity looks at LocalPlayer and starts talking
  2: 0x0561 [0x1D] PRINT_EVENT_MESSAGE(message_id=8512*)
    → "You've been ordered by the president to deliver that $3. When you have completed that task, you can return here for your next mission."
  3: 0x0564 [0x23] WAIT_FOR_DIALOG_INTERACTION
  4: 0x0565 [0x21] END_EVENT
  5: 0x0566 [0x00] END_REQSTACK()
```

### Event 1008

#### Metadata

| Field        | Value     |
|--------------|-----------|
| Entrypoint   | 0x0567    |
| Data Size    | 208 bytes |
| Instructions | 33        |

```
      00 01 02 03 04 05 06 07  08 09 0A 0B 0C 0D 0E 0F
      -- -- -- -- -- -- -- --  -- -- -- -- -- -- -- --
0560:                      1A  9C 09 1D 59 80 23 66 02         ....Y.#f.
0570: 80 F8 FF FF 7F F8 FF FF  7F 74 6C 6B 30 1D 5A 80  .........tlk0.Z.
0580: 23 1D 5B 80 23 66 02 80  F8 FF FF 7F F8 FF FF 7F  #.[.#f..........
0590: 74 65 6E 30 1D 5C 80 23  45 66 80 F0 FF FF 7F F0  ten0.\.#Ef......
05A0: FF FF 7F 68 73 30 32 02  80 66 02 80 F8 FF FF 7F  ...hs02..f......
05B0: F8 FF FF 7F 74 6C 6B 31  1D 5D 80 23 1D 5E 80 23  ....tlk1.].#.^.#
05C0: 1D 5F 80 23 45 66 80 F0  FF FF 7F F0 FF FF 7F 68  ._.#Ef.........h
05D0: 73 30 33 02 80 66 02 80  F8 FF FF 7F F8 FF FF 7F  s03..f..........
05E0: 74 65 6E 31 1D 60 80 23  45 66 80 F0 FF FF 7F F0  ten1.`.#Ef......
05F0: FF FF 7F 68 73 30 34 02  80 7D 0F 80 55 66 80 F0  ...hs04..}..Uf..
0600: FF FF 7F F0 FF FF 7F 68  73 30 34 1A 6A 06 45 61  .......hs04.j.Ea
0610: 80 F0 FF FF 7F F0 FF FF  7F 71 73 74 63 02 80 1A  .........qstc...
0620: 3A 0A 46 00 45 67 80 F0  FF FF 7F F0 FF FF 7F 66  :.F.Eg.........f
0630: 64 69 32 02 80 21 00                              di2..!.         
```

#### Opcodes

```
  0: 0x0567 [0x1A] CALL_SUBROUTINE(address=0x099C)
  1: 0x056A [0x1D] PRINT_EVENT_MESSAGE(message_id=7391*)
    → "Good, you've brought all four parts of the doll."
  2: 0x056D [0x23] WAIT_FOR_DIALOG_INTERACTION
  3: 0x056E [0x66] LOAD_EXT_SCHEDULER_MAIN: Load scheduler "tlk0" with entities [EventEntity, EventEntity], work=0*
  4: 0x057D [0x1D] PRINT_EVENT_MESSAGE(message_id=7392*)
    → "I am raising your rank to 2 for completing this mission. Congratulations."
  5: 0x0580 [0x23] WAIT_FOR_DIALOG_INTERACTION
  6: 0x0581 [0x1D] PRINT_EVENT_MESSAGE(message_id=7393*)
    → "If you've been to the Palborough Mines, you must know now the serious nature of the threat these beastmen pose to our civilization."
  7: 0x0584 [0x23] WAIT_FOR_DIALOG_INTERACTION
  8: 0x0585 [0x66] LOAD_EXT_SCHEDULER_MAIN: Load scheduler "ten0" with entities [EventEntity, EventEntity], work=0*
  9: 0x0594 [0x1D] PRINT_EVENT_MESSAGE(message_id=7394*)
    → "As a Bastoker, you are expected to take on more missions and go on conquests to preserve Bastok's brilliant future!"
 10: 0x0597 [0x23] WAIT_FOR_DIALOG_INTERACTION
 11: 0x0598 [0x45] LOAD_SCHEDULED_TASK: Load scheduler "hs02" with entities [LocalPlayer, LocalPlayer], work=[215*, 0*]
 12: 0x05A9 [0x66] LOAD_EXT_SCHEDULER_MAIN: Load scheduler "tlk1" with entities [EventEntity, EventEntity], work=0*
 13: 0x05B8 [0x1D] PRINT_EVENT_MESSAGE(message_id=7395*)
    → "But I cannot give you a new mission at this time."
 14: 0x05BB [0x23] WAIT_FOR_DIALOG_INTERACTION
 15: 0x05BC [0x1D] PRINT_EVENT_MESSAGE(message_id=7396*)
    → "You need to collect rank points before taking on new missions."
 16: 0x05BF [0x23] WAIT_FOR_DIALOG_INTERACTION
 17: 0x05C0 [0x1D] PRINT_EVENT_MESSAGE(message_id=7397*)
    → "You can receive rank points by participating in conquests and donating the crystals you acquire to guards, or by undertaking missions you've previously completed."
 18: 0x05C3 [0x23] WAIT_FOR_DIALOG_INTERACTION
 19: 0x05C4 [0x45] LOAD_SCHEDULED_TASK: Load scheduler "hs03" with entities [LocalPlayer, LocalPlayer], work=[215*, 0*]
 20: 0x05D5 [0x66] LOAD_EXT_SCHEDULER_MAIN: Load scheduler "ten1" with entities [EventEntity, EventEntity], work=0*
 21: 0x05E4 [0x1D] PRINT_EVENT_MESSAGE(message_id=7398*)
    → "Ask the High Guard near the gatehouse if you wish to hear more about conquests."
 22: 0x05E7 [0x23] WAIT_FOR_DIALOG_INTERACTION
 23: 0x05E8 [0x45] LOAD_SCHEDULED_TASK: Load scheduler "hs04" with entities [LocalPlayer, LocalPlayer], work=[215*, 0*]
 24: 0x05F9 [0x7D] LOAD_START_SCHEDULER_PLAYER: Load scheduler with animation_id 32783
 25: 0x05FC [0x55] WAIT_LOAD_SCHEDULER: Wait for scheduler "hs04" with entities [LocalPlayer, LocalPlayer], work=215*
 26: 0x060B [0x1A] CALL_SUBROUTINE(address=0x066A)
 27: 0x060E [0x45] LOAD_SCHEDULED_TASK: Load scheduler "qstc" with entities [LocalPlayer, LocalPlayer], work=[201*, 0*]
 28: 0x061F [0x1A] CALL_SUBROUTINE(address=0x0A3A)
 29: 0x0622 [0x46] CAMERA_CONTROL: Restore default settings
 30: 0x0624 [0x45] LOAD_SCHEDULED_TASK: Load scheduler "fdi2" with entities [LocalPlayer, LocalPlayer], work=[200*, 0*]
 31: 0x0635 [0x21] END_EVENT
 32: 0x0636 [0x00] END_REQSTACK()
```

### Event 1009

#### Metadata

| Field        | Value     |
|--------------|-----------|
| Entrypoint   | 0x0637    |
| Data Size    | 437 bytes |
| Instructions | 70        |

```
      00 01 02 03 04 05 06 07  08 09 0A 0B 0C 0D 0E 0F
      -- -- -- -- -- -- -- --  -- -- -- -- -- -- -- --
0630:                      1A  9C 09 1D 59 80 23 1A 6A         ....Y.#.j
0640: 06 45 61 80 F0 FF FF 7F  F0 FF FF 7F 71 73 74 63  .Ea.........qstc
0650: 02 80 1A 3A 0A 46 00 45  67 80 F0 FF FF 7F F0 FF  ...:.F.Eg.......
0660: FF 7F 66 64 69 32 02 80  21 00 5B 68 80 82 C0 0E  ..fdi2..!.[h....
0670: 01 82 C0 0E 01 00 FE FE  FE 2B 82 C0 0E 01 69 80  .........+....i.
0680: 23 45 66 80 F0 FF FF 7F  F0 FF FF 7F 68 73 30 35  #Ef.........hs05
0690: 02 80 27 10 82 C0 0E 01  03 79 00 F8 FF FF 7F 82  ..'......y......
06A0: C0 0E 01 4A F0 FF FF 7F  82 C0 0E 01 1C 6A 80 32  ...J.........j.2
06B0: 36 80 1F 00 6B 80 6C 80  6D 80 1F 01 1D 6E 80 23  6...k.l.m....n.#
06C0: 2A 10 82 C0 0E 01 2B 82  C0 0E 01 6F 80 23 1D 70  *.....+....o.#.p
06D0: 80 23 1D 71 80 23 55 66  80 F0 FF FF 7F F0 FF FF  .#.q.#Uf........
06E0: 7F 68 73 30 35 45 66 80  F0 FF FF 7F F0 FF FF 7F  .hs05Ef.........
06F0: 68 73 30 36 02 80 5B 68  80 82 C0 0E 01 82 C0 0E  hs06..[h........
0700: 01 74 65 66 30 2B 82 C0  0E 01 72 80 23 2B 82 C0  .tef0+....r.#+..
0710: 0E 01 73 80 23 2B 82 C0  0E 01 74 80 23 7B 82 C0  ..s.#+....t.#{..
0720: 0E 01 81 00 82 C0 0E 01  5B 68 80 82 C0 0E 01 82  ........[h......
0730: C0 0E 01 6B 61 6B 30 2B  82 C0 0E 01 75 80 23 27  ...kak0+....u.#'
0740: 10 06 C0 0E 01 08 66 02  80 F8 FF FF 7F F8 FF FF  ......f.........
0750: 7F 74 6C 6B 30 45 66 80  F0 FF FF 7F F0 FF FF 7F  .tlk0Ef.........
0760: 68 73 30 37 02 80 1D 76  80 23 66 02 80 F8 FF FF  hs07...v.#f.....
0770: 7F F8 FF FF 7F 74 65 6E  30 5B 68 80 82 C0 0E 01  .....ten0[h.....
0780: 82 C0 0E 01 6B 61 6B 31  81 01 82 C0 0E 01 2B 82  ....kak1......+.
0790: C0 0E 01 77 80 23 53 82  C0 0E 01 82 C0 0E 01 6B  ...w.#S........k
07A0: 61 6B 31 1C 36 80 29 10  82 C0 0E 01 04 1D 78 80  ak1.6.).......x.
07B0: 23 45 66 80 F0 FF FF 7F  F0 FF FF 7F 68 73 30 38  #Ef.........hs08
07C0: 02 80 1E 06 C0 0E 01 27  10 F0 FF FF 7F 22 2B 06  .......'....."+.
07D0: C0 0E 01 79 80 23 6F 70  66 02 80 F8 FF FF 7F F8  ...y.#opf.......
07E0: FF FF 7F 74 6C 6B 31 1D  7A 80 23 1B              ...tlk1.z.#.    
```

#### Opcodes

```
  0: 0x0637 [0x1A] CALL_SUBROUTINE(address=0x099C)
  1: 0x063A [0x1D] PRINT_EVENT_MESSAGE(message_id=7391*)
    → "Good, you've brought all four parts of the doll."
  2: 0x063D [0x23] WAIT_FOR_DIALOG_INTERACTION
  3: 0x063E [0x1A] CALL_SUBROUTINE(address=0x066A)
  4: 0x0641 [0x45] LOAD_SCHEDULED_TASK: Load scheduler "qstc" with entities [LocalPlayer, LocalPlayer], work=[201*, 0*]
  5: 0x0652 [0x1A] CALL_SUBROUTINE(address=0x0A3A)
  6: 0x0655 [0x46] CAMERA_CONTROL: Restore default settings
  7: 0x0657 [0x45] LOAD_SCHEDULED_TASK: Load scheduler "fdi2" with entities [LocalPlayer, LocalPlayer], work=[200*, 0*]
  8: 0x0668 [0x21] END_EVENT
  9: 0x0669 [0x00] END_REQSTACK()

SUBROUTINE_066A:
 10: 0x066A [0x5B] LOAD_EXT_SCHEDULER: Load scheduler 0xFEFEFE00 with entities [Cid (ID: 17744002/0x010EC082), Cid (ID: 17744002/0x010EC082)], work=110*
 11: 0x0679 [0x2B] Cid (ID: 17744002/0x010EC082) [8372*]:
    → "I see you're working hard."
 12: 0x0680 [0x23] WAIT_FOR_DIALOG_INTERACTION
 13: 0x0681 [0x45] LOAD_SCHEDULED_TASK: Load scheduler "hs05" with entities [LocalPlayer, LocalPlayer], work=[215*, 0*]
 14: 0x0692 [0x27] REQ_SET(priority=0x10, entity_id=Cid (ID: 17744002/0x010EC082), tag_num=0x03)
 15: 0x0699 [0x79] EventEntity looks at Cid (ID: 17744002/0x010EC082) (Basic look)
 16: 0x06A3 [0x4A] LocalPlayer looks at Cid (ID: 17744002/0x010EC082)
 17: 0x06AC [0x1C] WAIT(60* ticks)
 18: 0x06AF [0x32] ExtData[1]->MainSpeed = 15* * 0.1
 19: 0x06B2 [0x1F] MOVE_ENTITY: EventEntity moves to X=131.762*, Z=-2.136*, Y=8.499*
 20: 0x06BA [0x1F] MOVE_ENTITY: Update entity position (mode=1)
 21: 0x06BC [0x1D] PRINT_EVENT_MESSAGE(message_id=8373*)
    → "Ch...Chief Cid!"
 22: 0x06BF [0x23] WAIT_FOR_DIALOG_INTERACTION
 23: 0x06C0 [0x2A] GET_REQ_LEVEL(level=16, entity_id=Cid (ID: 17744002/0x010EC082))
 24: 0x06C6 [0x2B] Cid (ID: 17744002/0x010EC082) [8374*]:
    → "Oh, you don't have to go and be all formal. Have there been any changes around here?"
 25: 0x06CD [0x23] WAIT_FOR_DIALOG_INTERACTION
 26: 0x06CE [0x1D] PRINT_EVENT_MESSAGE(message_id=8375*)
    → "No sir! There has been an increase in the number of adventurers using the airship, as well as an all-around increase in exports, but no signs of any disturbances."
 27: 0x06D1 [0x23] WAIT_FOR_DIALOG_INTERACTION
 28: 0x06D2 [0x1D] PRINT_EVENT_MESSAGE(message_id=8376*)
    → "Truly, Chief Cid's wonderful innovations have brought wealth and prosperity to the Port Distr--"
 29: 0x06D5 [0x23] WAIT_FOR_DIALOG_INTERACTION
 30: 0x06D6 [0x55] WAIT_LOAD_SCHEDULER: Wait for scheduler "hs05" with entities [LocalPlayer, LocalPlayer], work=215*
 31: 0x06E5 [0x45] LOAD_SCHEDULED_TASK: Load scheduler "hs06" with entities [LocalPlayer, LocalPlayer], work=[215*, 0*]
 32: 0x06F6 [0x5B] LOAD_EXT_SCHEDULER: Load scheduler "tef0" with entities [Cid (ID: 17744002/0x010EC082), Cid (ID: 17744002/0x010EC082)], work=110*
 33: 0x0705 [0x2B] Cid (ID: 17744002/0x010EC082) [8377*]:
    → "Enough with the flattery! That airship was just one invention, like many others."
 34: 0x070C [0x23] WAIT_FOR_DIALOG_INTERACTION
 35: 0x070D [0x2B] Cid (ID: 17744002/0x010EC082) [8378*]:
    → "What we need to worry about is the unrest in the Mines District. I'm concerned that the trouble down there is going to spill over into Port Bastok."
 36: 0x0714 [0x23] WAIT_FOR_DIALOG_INTERACTION
 37: 0x0715 [0x2B] Cid (ID: 17744002/0x010EC082) [8379*]:
    → "The escalation in activity around Norg also troubles me. Soon there will be airships going to the Outlands. Who knows what those adventurers will be up to when that starts?"
 38: 0x071C [0x23] WAIT_FOR_DIALOG_INTERACTION
 39: 0x071D [0x7B] Cid (ID: 17744002/0x010EC082) stops talking
 40: 0x0722 [0x81] SET_ENTITY_BLINKING(blink_flag=0x00, entity=Cid (ID: 17744002/0x010EC082))
 41: 0x0728 [0x5B] LOAD_EXT_SCHEDULER: Load scheduler "kak0" with entities [Cid (ID: 17744002/0x010EC082), Cid (ID: 17744002/0x010EC082)], work=110*
 42: 0x0737 [0x2B] Cid (ID: 17744002/0x010EC082) [8380*]:
    → "Ah, and what about the Steaming Sheep Restaurant? That old place still doing fine? I mean...it's making money, right? There aren't any strange guys hanging around the proprietor...are there?"
 43: 0x073E [0x23] WAIT_FOR_DIALOG_INTERACTION
 44: 0x073F [0x27] REQ_SET(priority=0x10, entity_id=Tiger Tooth (ID: 17743878/0x010EC006), tag_num=0x08)
 45: 0x0746 [0x66] LOAD_EXT_SCHEDULER_MAIN: Load scheduler "tlk0" with entities [EventEntity, EventEntity], work=0*
 46: 0x0755 [0x45] LOAD_SCHEDULED_TASK: Load scheduler "hs07" with entities [LocalPlayer, LocalPlayer], work=[215*, 0*]
 47: 0x0766 [0x1D] PRINT_EVENT_MESSAGE(message_id=8381*)
    → "Sir? I stop in every day after my duties are complete, and business seems decent as usual..."
 48: 0x0769 [0x23] WAIT_FOR_DIALOG_INTERACTION
 49: 0x076A [0x66] LOAD_EXT_SCHEDULER_MAIN: Load scheduler "ten0" with entities [EventEntity, EventEntity], work=0*
 50: 0x0779 [0x5B] LOAD_EXT_SCHEDULER: Load scheduler "kak1" with entities [Cid (ID: 17744002/0x010EC082), Cid (ID: 17744002/0x010EC082)], work=110*
 51: 0x0788 [0x81] SET_ENTITY_BLINKING(blink_flag=0x01, entity=Cid (ID: 17744002/0x010EC082))
 52: 0x078E [0x2B] Cid (ID: 17744002/0x010EC082) [8382*]:
    → "Good...good. Forget what I said."
 53: 0x0795 [0x23] WAIT_FOR_DIALOG_INTERACTION
 54: 0x0796 [0x53] WAIT_SCHEDULER_TASK: Wait for scheduler "kak1" with entities [Cid (ID: 17744002/0x010EC082), Cid (ID: 17744002/0x010EC082)]
 55: 0x07A3 [0x1C] WAIT(15* ticks)
 56: 0x07A6 [0x29] REQ_SET_WAIT(priority=0x10, entity_id=Cid (ID: 17744002/0x010EC082), tag_num=0x04)
 57: 0x07AD [0x1D] PRINT_EVENT_MESSAGE(message_id=8383*)
    → "I wonder what's wrong with Chief Cid."
 58: 0x07B0 [0x23] WAIT_FOR_DIALOG_INTERACTION
 59: 0x07B1 [0x45] LOAD_SCHEDULED_TASK: Load scheduler "hs08" with entities [LocalPlayer, LocalPlayer], work=[215*, 0*]
 60: 0x07C2 [0x1E] EventEntity looks at Tiger Tooth (ID: 17743878/0x010EC006) and starts talking
 61: 0x07C7 [0x27] REQ_SET(priority=0x10, entity_id=LocalPlayer, tag_num=0x22)
 62: 0x07CE [0x2B] Tiger Tooth (ID: 17743878/0x010EC006) [8384*]:
    → "You mean you haven't heard? Cid's got the hots for the lady at the tavern. Word has it that she's a widow..."
 63: 0x07D5 [0x23] WAIT_FOR_DIALOG_INTERACTION
 64: 0x07D6 [0x6F] WAIT_FRAME_DELAY: Yield until WaitTime reaches zero
 65: 0x07D7 [0x70] WAIT_ENTITY_RENDER_FLAG: Wait while EventEntity->Render.Flags3 bit 2 is set (cancel turn if not)
 66: 0x07D8 [0x66] LOAD_EXT_SCHEDULER_MAIN: Load scheduler "tlk1" with entities [EventEntity, EventEntity], work=0*
 67: 0x07E7 [0x1D] PRINT_EVENT_MESSAGE(message_id=8385*)
    → "Wow. Maybe Chief Cid's got a soft spot after all."
 68: 0x07EA [0x23] WAIT_FOR_DIALOG_INTERACTION
 69: 0x07EB [0x1B] RETURN
```

### Event 1010

#### Metadata

| Field        | Value      |
|--------------|------------|
| Entrypoint   | 0x07EC     |
| Data Size    | 1148 bytes |
| Instructions | 81         |

```
      00 01 02 03 04 05 06 07  08 09 0A 0B 0C 0D 0E 0F
      -- -- -- -- -- -- -- --  -- -- -- -- -- -- -- --
07E0:                                      1A 9C 09 66              ...f
07F0: 24 80 83 C0 0E 01 83 C0  0E 01 00 FE FE FE 66 29  $.............f)
0800: 80 83 C0 0E 01 83 C0 0E  01 00 FE FE FE 66 0F 80  .............f..
0810: F8 FF FF 7F F8 FF FF 7F  00 FE FE FE 03 09 10 2A  ...............*
0820: 80 1D 62 80 23 2B 83 C0  0E 01 7B 80 23 45 66 80  ..b.#+....{.#Ef.
0830: F0 FF FF 7F F0 FF FF 7F  68 73 30 39 02 80 27 10  ........hs09..'.
0840: 83 C0 0E 01 02 79 00 F8  FF FF 7F 83 C0 0E 01 27  .....y.........'
0850: 10 F0 FF FF 7F 23 1C 6A  80 32 7C 80 1F 00 7D 80  .....#.j.2|...}.
0860: 7E 80 6D 80 1F 01 1D 7F  80 23 2A 10 83 C0 0E 01  ~.m......#*.....
0870: 2B 83 C0 0E 01 80 80 23  1D 81 80 23 45 66 80 F0  +......#...#Ef..
0880: FF FF 7F F0 FF FF 7F 68  73 31 30 02 80 7B 83 C0  .......hs10..{..
0890: 0E 01 66 24 80 83 C0 0E  01 83 C0 0E 01 74 68 6B  ..f$.........thk
08A0: 31 2B 83 C0 0E 01 82 80  23 66 24 80 83 C0 0E 01  1+......#f$.....
08B0: 83 C0 0E 01 74 68 6B 32  1C 36 80 45 66 80 F0 FF  ....thk2.6.Ef...
08C0: FF 7F F0 FF FF 7F 68 73  31 31 02 80 66 02 80 F8  ......hs11..f...
08D0: FF FF 7F F8 FF FF 7F 74  6C 6B 30 1D 83 80 23 66  .......tlk0...#f
08E0: 02 80 F8 FF FF 7F F8 FF  FF 7F 74 65 6E 30 2B 83  ..........ten0+.
08F0: C0 0E 01 84 80 23 27 10  06 C0 0E 01 09 45 66 80  .....#'......Ef.
0900: F0 FF FF 7F F0 FF FF 7F  68 73 31 32 02 80 66 29  ........hs12..f)
0910: 80 83 C0 0E 01 83 C0 0E  01 62 6B 65 30 1C 85 80  .........bke0...
0920: 66 0F 80 F8 FF FF 7F F8  FF FF 7F 6B 62 61 32 53  f..........kba2S
0930: 83 C0 0E 01 83 C0 0E 01  62 6B 65 30 1C 36 80 29  ........bke0.6.)
0940: 10 83 C0 0E 01 03 1D 86  80 23 45 66 80 F0 FF FF  .........#Ef....
0950: 7F F0 FF FF 7F 68 73 30  38 02 80 1E 06 C0 0E 01  .....hs08.......
0960: 27 10 F0 FF FF 7F 22 2B  06 C0 0E 01 87 80 23 1D  '....."+......#.
0970: 88 80 23 45 61 80 F0 FF  FF 7F F0 FF FF 7F 71 73  ..#Ea.........qs
0980: 74 63 02 80 1A 3A 0A 46  00 45 67 80 F0 FF FF 7F  tc...:.F.Eg.....
0990: F0 FF FF 7F 66 64 69 32  02 80 21 00 42 20 01 1A  ....fdi2..!.B ..
09A0: F8 09 38 17 80 46 01 29  10 F0 FF FF 7F 21 66 02  ..8..F.).....!f.
09B0: 80 F8 FF FF 7F F8 FF FF  7F 00 FE FE FE 45 66 80  .............Ef.
09C0: F0 FF FF 7F F0 FF FF 7F  68 73 30 31 02 80 1E F0  ........hs01....
09D0: FF FF 7F 1A 19 0A 1B 45  67 80 F0 FF FF 7F F0 FF  .......Eg.......
09E0: FF 7F 66 64 69 30 02 80  55 67 80 F0 FF FF 7F F0  ..fdi0..Ug......
09F0: FF FF 7F 66 64 69 30 1B  45 67 80 F0 FF FF 7F F0  ...fdi0.Eg......
0A00: FF FF 7F 66 64 6F 30 02  80 55 67 80 F0 FF FF 7F  ...fdo0..Ug.....
0A10: F0 FF FF 7F 66 64 6F 30  1B 45 67 80 F0 FF FF 7F  ....fdo0.Eg.....
0A20: F0 FF FF 7F 66 64 69 31  02 80 55 67 80 F0 FF FF  ....fdi1..Ug....
0A30: 7F F0 FF FF 7F 66 64 69  31 1B 45 67 80 F0 FF FF  .....fdi1.Eg....
0A40: 7F F0 FF FF 7F 66 64 6F  31 02 80 55 67 80 F0 FF  .....fdo1..Ug...
0A50: FF 7F F0 FF FF 7F 66 64  6F 31 1B 45 61 80 F0 FF  ......fdo1.Ea...
0A60: FF 7F F0 FF FF 7F 77 68  69 31 02 80 55 61 80 F0  ......whi1..Ua..
0A70: FF FF 7F F0 FF FF 7F 77  68 69 31 1B 45 61 80 F0  .......whi1.Ea..
0A80: FF FF 7F F0 FF FF 7F 77  68 6F 31 02 80 55 61 80  .......who1..Ua.
0A90: F0 FF FF 7F F0 FF FF 7F  77 68 6F 31 1B 45 61 80  ........who1.Ea.
0AA0: F0 FF FF 7F F0 FF FF 7F  77 68 6F 32 02 80 55 61  ........who2..Ua
0AB0: 80 F0 FF FF 7F F0 FF FF  7F 77 68 6F 32 1B 45 61  .........who2.Ea
0AC0: 80 F0 FF FF 7F F0 FF FF  7F 77 68 6F 33 02 80 55  .........who3..U
0AD0: 61 80 F0 FF FF 7F F0 FF  FF 7F 77 68 6F 33 1B 62  a.........who3.b
0AE0: 07 80 F0 FF FF 7F F0 FF  FF 7F 6D 61 69 6E 02 80  ..........main..
0AF0: 1C 89 80 45 67 80 F0 FF  FF 7F F0 FF FF 7F 66 64  ...Eg.........fd
0B00: 6F 31 02 80 55 67 80 F0  FF FF 7F F0 FF FF 7F 66  o1..Ug.........f
0B10: 64 6F 31 1B 45 67 80 F0  FF FF 7F F0 FF FF 7F 66  do1.Eg.........f
0B20: 64 69 31 02 80 62 0F 80  F0 FF FF 7F F0 FF FF 7F  di1..b..........
0B30: 6D 61 69 6E 02 80 1C 85  80 55 67 80 F0 FF FF 7F  main.....Ug.....
0B40: F0 FF FF 7F 66 64 69 31  1B 45 67 80 F0 FF FF 7F  ....fdi1.Eg.....
0B50: F0 FF FF 7F 62 6C 6F 6E  02 80 45 61 80 F0 FF FF  ....blon..Ea....
0B60: 7F F0 FF FF 7F 62 6C 6F  6E 02 80 1B 45 61 80 F0  .....blon...Ea..
0B70: FF FF 7F F0 FF FF 7F 77  68 69 30 02 80 55 61 80  .......whi0..Ua.
0B80: F0 FF FF 7F F0 FF FF 7F  77 68 69 30 1B 45 61 80  ........whi0.Ea.
0B90: F0 FF FF 7F F0 FF FF 7F  77 68 6F 30 02 80 55 61  ........who0..Ua
0BA0: 80 F0 FF FF 7F F0 FF FF  7F 77 68 6F 30 1B 45 66  .........who0.Ef
0BB0: 80 F0 FF FF 7F F0 FF FF  7F 65 66 6F 6E 02 80 55  .........efon..U
0BC0: 66 80 F0 FF FF 7F F0 FF  FF 7F 65 66 6F 6E 1B 45  f.........efon.E
0BD0: 67 80 F0 FF FF 7F F0 FF  FF 7F 66 64 69 73 02 80  g.........fdis..
0BE0: 1B 45 67 80 F0 FF FF 7F  F0 FF FF 7F 66 64 6F 73  .Eg.........fdos
0BF0: 02 80 55 67 80 F0 FF FF  7F F0 FF FF 7F 66 64 6F  ..Ug.........fdo
0C00: 73 1B 45 67 80 F0 FF FF  7F F0 FF FF 7F 66 64 69  s.Eg.........fdi
0C10: 66 02 80 1B 45 67 80 F0  FF FF 7F F0 FF FF 7F 66  f...Eg.........f
0C20: 64 6F 66 02 80 55 67 80  F0 FF FF 7F F0 FF FF 7F  dof..Ug.........
0C30: 66 64 6F 66 1B 45 67 80  F0 FF FF 7F F0 FF FF 7F  fdof.Eg.........
0C40: 66 64 69 70 02 80 1B 45  67 80 F0 FF FF 7F F0 FF  fdip...Eg.......
0C50: FF 7F 66 64 6F 70 02 80  55 67 80 F0 FF FF 7F F0  ..fdop..Ug......
0C60: FF FF 7F 66 64 6F 70 1B                           ...fdop.        
```

#### Opcodes

```
  0: 0x07EC [0x1A] CALL_SUBROUTINE(address=0x099C)
  1: 0x07EF [0x66] LOAD_EXT_SCHEDULER_MAIN: Load scheduler 0xFEFEFE00 with entities [Ayame (ID: 17744003/0x010EC083), Ayame (ID: 17744003/0x010EC083)], work=10*
  2: 0x07FE [0x66] LOAD_EXT_SCHEDULER_MAIN: Load scheduler 0xFEFEFE00 with entities [Ayame (ID: 17744003/0x010EC083), Ayame (ID: 17744003/0x010EC083)], work=11*
  3: 0x080D [0x66] LOAD_EXT_SCHEDULER_MAIN: Load scheduler 0xFEFEFE00 with entities [EventEntity, EventEntity], work=2*
  4: 0x081C [0x03] Work_Zone[9] = 563*
  5: 0x0821 [0x1D] PRINT_EVENT_MESSAGE(message_id=7416*)
    → "You have succeeded in bringing back $7. Good work, adventurer. This discovery may help rejuvenate Bastok's economy!"
  6: 0x0824 [0x23] WAIT_FOR_DIALOG_INTERACTION
  7: 0x0825 [0x2B] Ayame (ID: 17744003/0x010EC083) [8386*]:
    → "Welcome back. How are the adventurers faring?"
  8: 0x082C [0x23] WAIT_FOR_DIALOG_INTERACTION
  9: 0x082D [0x45] LOAD_SCHEDULED_TASK: Load scheduler "hs09" with entities [LocalPlayer, LocalPlayer], work=[215*, 0*]
 10: 0x083E [0x27] REQ_SET(priority=0x10, entity_id=Ayame (ID: 17744003/0x010EC083), tag_num=0x02)
 11: 0x0845 [0x79] EventEntity looks at Ayame (ID: 17744003/0x010EC083) (Basic look)
 12: 0x084F [0x27] REQ_SET(priority=0x10, entity_id=LocalPlayer, tag_num=0x23)
 13: 0x0856 [0x1C] WAIT(60* ticks)
 14: 0x0859 [0x32] ExtData[1]->MainSpeed = 13* * 0.1
 15: 0x085C [0x1F] MOVE_ENTITY: EventEntity moves to X=131.499*, Z=-2.075*, Y=8.499*
 16: 0x0864 [0x1F] MOVE_ENTITY: Update entity position (mode=1)
 17: 0x0866 [0x1D] PRINT_EVENT_MESSAGE(message_id=8387*)
    → "Lady Ayame! What brings you to this area?"
 18: 0x0869 [0x23] WAIT_FOR_DIALOG_INTERACTION
 19: 0x086A [0x2A] GET_REQ_LEVEL(level=16, entity_id=Ayame (ID: 17744003/0x010EC083))
 20: 0x0870 [0x2B] Ayame (ID: 17744003/0x010EC083) [8388*]:
    → "I was just on my way to another appointment and decided to stop by. What is the status of Port Bastok? Is everything all right?"
 21: 0x0877 [0x23] WAIT_FOR_DIALOG_INTERACTION
 22: 0x0878 [0x1D] PRINT_EVENT_MESSAGE(message_id=8389*)
    → "Chief Cid asked us the same question earlier... But there is nothing out of the ordinary, and Port Bastok is safe as long as we are here, Lady Ayame!"
 23: 0x087B [0x23] WAIT_FOR_DIALOG_INTERACTION
 24: 0x087C [0x45] LOAD_SCHEDULED_TASK: Load scheduler "hs10" with entities [LocalPlayer, LocalPlayer], work=[215*, 0*]
 25: 0x088D [0x7B] Ayame (ID: 17744003/0x010EC083) stops talking
 26: 0x0892 [0x66] LOAD_EXT_SCHEDULER_MAIN: Load scheduler "thk1" with entities [Ayame (ID: 17744003/0x010EC083), Ayame (ID: 17744003/0x010EC083)], work=10*
 27: 0x08A1 [0x2B] Ayame (ID: 17744003/0x010EC083) [8390*]:
    → "Very well. The one thing that concerns me, though, is the recent activity of the Tenshodo. Now that the airship will be making trips to the Outlands, I feel that they may team up with the pirates in Norg for another one of their get-rich-quick schemes."
 28: 0x08A8 [0x23] WAIT_FOR_DIALOG_INTERACTION
 29: 0x08A9 [0x66] LOAD_EXT_SCHEDULER_MAIN: Load scheduler "thk2" with entities [Ayame (ID: 17744003/0x010EC083), Ayame (ID: 17744003/0x010EC083)], work=10*
 30: 0x08B8 [0x1C] WAIT(15* ticks)
 31: 0x08BB [0x45] LOAD_SCHEDULED_TASK: Load scheduler "hs11" with entities [LocalPlayer, LocalPlayer], work=[215*, 0*]
 32: 0x08CC [0x66] LOAD_EXT_SCHEDULER_MAIN: Load scheduler "tlk0" with entities [EventEntity, EventEntity], work=0*
 33: 0x08DB [0x1D] PRINT_EVENT_MESSAGE(message_id=8391*)
    → "I have heard that Milady conducted her training in Norg. I am grateful for this important piece of information. I will reinforce the number of guards I have patrolling the area."
 34: 0x08DE [0x23] WAIT_FOR_DIALOG_INTERACTION
 35: 0x08DF [0x66] LOAD_EXT_SCHEDULER_MAIN: Load scheduler "ten0" with entities [EventEntity, EventEntity], work=0*
 36: 0x08EE [0x2B] Ayame (ID: 17744003/0x010EC083) [8392*]:
    → "Understood. Carry on."
 37: 0x08F5 [0x23] WAIT_FOR_DIALOG_INTERACTION
 38: 0x08F6 [0x27] REQ_SET(priority=0x10, entity_id=Tiger Tooth (ID: 17743878/0x010EC006), tag_num=0x09)
 39: 0x08FD [0x45] LOAD_SCHEDULED_TASK: Load scheduler "hs12" with entities [LocalPlayer, LocalPlayer], work=[215*, 0*]
 40: 0x090E [0x66] LOAD_EXT_SCHEDULER_MAIN: Load scheduler "bke0" with entities [Ayame (ID: 17744003/0x010EC083), Ayame (ID: 17744003/0x010EC083)], work=11*
 41: 0x091D [0x1C] WAIT(30* ticks)
 42: 0x0920 [0x66] LOAD_EXT_SCHEDULER_MAIN: Load scheduler "kba2" with entities [EventEntity, EventEntity], work=2*
 43: 0x092F [0x53] WAIT_SCHEDULER_TASK: Wait for scheduler "bke0" with entities [Ayame (ID: 17744003/0x010EC083), Ayame (ID: 17744003/0x010EC083)]
 44: 0x093C [0x1C] WAIT(15* ticks)
 45: 0x093F [0x29] REQ_SET_WAIT(priority=0x10, entity_id=Ayame (ID: 17744003/0x010EC083), tag_num=0x03)
 46: 0x0946 [0x1D] PRINT_EVENT_MESSAGE(message_id=8393*)
    → "<Sigh>... Surely there isn't another woman as beautiful as Lady Ayame. In the desert of Musketeers, she's a garden of roses. But I wonder why she was all the way out here."
 47: 0x0949 [0x23] WAIT_FOR_DIALOG_INTERACTION
 48: 0x094A [0x45] LOAD_SCHEDULED_TASK: Load scheduler "hs08" with entities [LocalPlayer, LocalPlayer], work=[215*, 0*]
 49: 0x095B [0x1E] EventEntity looks at Tiger Tooth (ID: 17743878/0x010EC006) and starts talking
 50: 0x0960 [0x27] REQ_SET(priority=0x10, entity_id=LocalPlayer, tag_num=0x22)
 51: 0x0967 [0x2B] Tiger Tooth (ID: 17743878/0x010EC006) [8394*]:
    → "You didn't know? Lady Ayame grew up here in Port Bastok. Right over there."
 52: 0x096E [0x23] WAIT_FOR_DIALOG_INTERACTION
 53: 0x096F [0x1D] PRINT_EVENT_MESSAGE(message_id=8395*)
    → "Wow... I bet her whole family is as beautiful and valiant as she is."
 54: 0x0972 [0x23] WAIT_FOR_DIALOG_INTERACTION
 55: 0x0973 [0x45] LOAD_SCHEDULED_TASK: Load scheduler "qstc" with entities [LocalPlayer, LocalPlayer], work=[201*, 0*]
 56: 0x0984 [0x1A] CALL_SUBROUTINE(address=0x0A3A)
 57: 0x0987 [0x46] CAMERA_CONTROL: Restore default settings
 58: 0x0989 [0x45] LOAD_SCHEDULED_TASK: Load scheduler "fdi2" with entities [LocalPlayer, LocalPlayer], work=[200*, 0*]
 59: 0x099A [0x21] END_EVENT
 60: 0x099B [0x00] END_REQSTACK()

SUBROUTINE_099C:
 61: 0x099C [0x42] SET_CLI_EVENT_CANCEL_DATA()
 62: 0x099D [0x20] SET_CLI_EVENT_UC_FLAG: Lock player control
 63: 0x099F [0x1A] CALL_SUBROUTINE(address=0x09F8)
 64: 0x09A2 [0x38] SET_CLIENT_EVENT_MODE(mode=3*)
 65: 0x09A5 [0x46] CAMERA_CONTROL: Disable user control
 66: 0x09A7 [0x29] REQ_SET_WAIT(priority=0x10, entity_id=LocalPlayer, tag_num=0x21)
 67: 0x09AE [0x66] LOAD_EXT_SCHEDULER_MAIN: Load scheduler 0xFEFEFE00 with entities [EventEntity, EventEntity], work=0*
 68: 0x09BD [0x45] LOAD_SCHEDULED_TASK: Load scheduler "hs01" with entities [LocalPlayer, LocalPlayer], work=[215*, 0*]
 69: 0x09CE [0x1E] EventEntity looks at LocalPlayer and starts talking
 70: 0x09D3 [0x1A] CALL_SUBROUTINE(address=0x0A19)
 71: 0x09D6 [0x1B] RETURN

SUBROUTINE_09F8:
 72: 0x09F8 [0x45] LOAD_SCHEDULED_TASK: Load scheduler "fdo0" with entities [LocalPlayer, LocalPlayer], work=[200*, 0*]
 73: 0x0A09 [0x55] WAIT_LOAD_SCHEDULER: Wait for scheduler "fdo0" with entities [LocalPlayer, LocalPlayer], work=200*
 74: 0x0A18 [0x1B] RETURN

SUBROUTINE_0A19:
 75: 0x0A19 [0x45] LOAD_SCHEDULED_TASK: Load scheduler "fdi1" with entities [LocalPlayer, LocalPlayer], work=[200*, 0*]
 76: 0x0A2A [0x55] WAIT_LOAD_SCHEDULER: Wait for scheduler "fdi1" with entities [LocalPlayer, LocalPlayer], work=200*
 77: 0x0A39 [0x1B] RETURN

SUBROUTINE_0A3A:
 78: 0x0A3A [0x45] LOAD_SCHEDULED_TASK: Load scheduler "fdo1" with entities [LocalPlayer, LocalPlayer], work=[200*, 0*]
 79: 0x0A4B [0x55] WAIT_LOAD_SCHEDULER: Wait for scheduler "fdo1" with entities [LocalPlayer, LocalPlayer], work=200*
 80: 0x0A5A [0x1B] RETURN
```

#### Data or dead code:

```
# Dead code (unreachable instructions):
     0x09D7 [0x45] LOAD_SCHEDULED_TASK: Load scheduler "fdi0" with entities [LocalPlayer, LocalPlayer], work=[200*, 0*]
     0x09E8 [0x55] WAIT_LOAD_SCHEDULER: Wait for scheduler "fdi0" with entities [LocalPlayer, LocalPlayer], work=200*
     0x09F7 [0x1B] RETURN
# Dead code (unreachable instructions):
     0x0A5B [0x45] LOAD_SCHEDULED_TASK: Load scheduler "whi1" with entities [LocalPlayer, LocalPlayer], work=[201*, 0*]
     0x0A6C [0x55] WAIT_LOAD_SCHEDULER: Wait for scheduler "whi1" with entities [LocalPlayer, LocalPlayer], work=201*
     0x0A7B [0x1B] RETURN
     0x0A7C [0x45] LOAD_SCHEDULED_TASK: Load scheduler "who1" with entities [LocalPlayer, LocalPlayer], work=[201*, 0*]
     0x0A8D [0x55] WAIT_LOAD_SCHEDULER: Wait for scheduler "who1" with entities [LocalPlayer, LocalPlayer], work=201*
     0x0A9C [0x1B] RETURN
     0x0A9D [0x45] LOAD_SCHEDULED_TASK: Load scheduler "who2" with entities [LocalPlayer, LocalPlayer], work=[201*, 0*]
     0x0AAE [0x55] WAIT_LOAD_SCHEDULER: Wait for scheduler "who2" with entities [LocalPlayer, LocalPlayer], work=201*
     0x0ABD [0x1B] RETURN
     0x0ABE [0x45] LOAD_SCHEDULED_TASK: Load scheduler "who3" with entities [LocalPlayer, LocalPlayer], work=[201*, 0*]
     0x0ACF [0x55] WAIT_LOAD_SCHEDULER: Wait for scheduler "who3" with entities [LocalPlayer, LocalPlayer], work=201*
     0x0ADE [0x1B] RETURN
     0x0ADF [0x62] LOAD_EVENT_SCHEDULER: Load scheduler "main" with entities [LocalPlayer, LocalPlayer], work=[1*, 0*]
     0x0AF0 [0x1C] WAIT(45* ticks)
     0x0AF3 [0x45] LOAD_SCHEDULED_TASK: Load scheduler "fdo1" with entities [LocalPlayer, LocalPlayer], work=[200*, 0*]
     0x0B04 [0x55] WAIT_LOAD_SCHEDULER: Wait for scheduler "fdo1" with entities [LocalPlayer, LocalPlayer], work=200*
     0x0B13 [0x1B] RETURN
     0x0B14 [0x45] LOAD_SCHEDULED_TASK: Load scheduler "fdi1" with entities [LocalPlayer, LocalPlayer], work=[200*, 0*]
     0x0B25 [0x62] LOAD_EVENT_SCHEDULER: Load scheduler "main" with entities [LocalPlayer, LocalPlayer], work=[2*, 0*]
     0x0B36 [0x1C] WAIT(30* ticks)
     0x0B39 [0x55] WAIT_LOAD_SCHEDULER: Wait for scheduler "fdi1" with entities [LocalPlayer, LocalPlayer], work=200*
     0x0B48 [0x1B] RETURN
     0x0B49 [0x45] LOAD_SCHEDULED_TASK: Load scheduler "blon" with entities [LocalPlayer, LocalPlayer], work=[200*, 0*]
     0x0B5A [0x45] LOAD_SCHEDULED_TASK: Load scheduler "blon" with entities [LocalPlayer, LocalPlayer], work=[201*, 0*]
     0x0B6B [0x1B] RETURN
     0x0B6C [0x45] LOAD_SCHEDULED_TASK: Load scheduler "whi0" with entities [LocalPlayer, LocalPlayer], work=[201*, 0*]
     0x0B7D [0x55] WAIT_LOAD_SCHEDULER: Wait for scheduler "whi0" with entities [LocalPlayer, LocalPlayer], work=201*
     0x0B8C [0x1B] RETURN
     0x0B8D [0x45] LOAD_SCHEDULED_TASK: Load scheduler "who0" with entities [LocalPlayer, LocalPlayer], work=[201*, 0*]
     0x0B9E [0x55] WAIT_LOAD_SCHEDULER: Wait for scheduler "who0" with entities [LocalPlayer, LocalPlayer], work=201*
     0x0BAD [0x1B] RETURN
     0x0BAE [0x45] LOAD_SCHEDULED_TASK: Load scheduler "efon" with entities [LocalPlayer, LocalPlayer], work=[215*, 0*]
     0x0BBF [0x55] WAIT_LOAD_SCHEDULER: Wait for scheduler "efon" with entities [LocalPlayer, LocalPlayer], work=215*
     0x0BCE [0x1B] RETURN
     0x0BCF [0x45] LOAD_SCHEDULED_TASK: Load scheduler "fdis" with entities [LocalPlayer, LocalPlayer], work=[200*, 0*]
     0x0BE0 [0x1B] RETURN
     0x0BE1 [0x45] LOAD_SCHEDULED_TASK: Load scheduler "fdos" with entities [LocalPlayer, LocalPlayer], work=[200*, 0*]
     0x0BF2 [0x55] WAIT_LOAD_SCHEDULER: Wait for scheduler "fdos" with entities [LocalPlayer, LocalPlayer], work=200*
     0x0C01 [0x1B] RETURN
     0x0C02 [0x45] LOAD_SCHEDULED_TASK: Load scheduler "fdif" with entities [LocalPlayer, LocalPlayer], work=[200*, 0*]
     0x0C13 [0x1B] RETURN
     0x0C14 [0x45] LOAD_SCHEDULED_TASK: Load scheduler "fdof" with entities [LocalPlayer, LocalPlayer], work=[200*, 0*]
     0x0C25 [0x55] WAIT_LOAD_SCHEDULER: Wait for scheduler "fdof" with entities [LocalPlayer, LocalPlayer], work=200*
     0x0C34 [0x1B] RETURN
     0x0C35 [0x45] LOAD_SCHEDULED_TASK: Load scheduler "fdip" with entities [LocalPlayer, LocalPlayer], work=[200*, 0*]
     0x0C46 [0x1B] RETURN
     0x0C47 [0x45] LOAD_SCHEDULED_TASK: Load scheduler "fdop" with entities [LocalPlayer, LocalPlayer], work=[200*, 0*]
     0x0C58 [0x55] WAIT_LOAD_SCHEDULER: Wait for scheduler "fdop" with entities [LocalPlayer, LocalPlayer], work=200*
     0x0C67 [0x1B] RETURN
```
