# 17744222

## Common Data

| Field            | Value                 |
|------------------|-----------------------|
| Zone             | Port Bastok (ID: 236) |
| Block Size       | 212 bytes             |
| Total Events     | 5                     |
| References Count | 7                     |

## List of Events

| Event ID                 | Entrypoint   |   Size |   Instructions |
|--------------------------|--------------|--------|----------------|
| [65535](#event-65535)    | 0x0000       |      1 |              1 |
| [465](#event-465)        | 0x0001       |      7 |              2 |
| [65535.1](#event-655351) | 0x0008       |     45 |              4 |
| [65535.2](#event-655352) | 0x0035       |     48 |              5 |
| [65535.3](#event-655353) | 0x0065       |     46 |              5 |

## DAT References (imed_data)

|   Index | Hex Value   |   Dec Value |
|---------|-------------|-------------|
|       0 | 0x0008      |           8 |
|       1 | 0x0000      |           0 |
|       2 | 0x004E      |          78 |
|       3 | 0x004A      |          74 |
|       4 | 0x0001      |           1 |
|       5 | 0x0007      |           7 |
|       6 | 0x0015      |          21 |

## Events

### Event 65535

#### Metadata

| Field        | Value   |
|--------------|---------|
| Entrypoint   | 0x0000  |
| Data Size    | 1 bytes |
| Instructions | 1       |

```
      00 01 02 03 04 05 06 07  08 09 0A 0B 0C 0D 0E 0F
      -- -- -- -- -- -- -- --  -- -- -- -- -- -- -- --
0000: 00                                                .               
```

#### Opcodes

```
  0: 0x0000 [0x00] END_REQSTACK()
```

### Event 465

#### Metadata

| Field        | Value   |
|--------------|---------|
| Entrypoint   | 0x0001  |
| Data Size    | 7 bytes |
| Instructions | 2       |

```
      00 01 02 03 04 05 06 07  08 09 0A 0B 0C 0D 0E 0F
      -- -- -- -- -- -- -- --  -- -- -- -- -- -- -- --
0000:    92 01 F8 FF FF 7F 00                            .......        
```

#### Opcodes

```
  0: 0x0001 [0x92] EventEntity->Render.Flags3 ^= 0x01
  1: 0x0007 [0x00] END_REQSTACK()
```

### Event 65535.1

#### Metadata

| Field        | Value    |
|--------------|----------|
| Entrypoint   | 0x0008   |
| Data Size    | 45 bytes |
| Instructions | 4        |

```
      00 01 02 03 04 05 06 07  08 09 0A 0B 0C 0D 0E 0F
      -- -- -- -- -- -- -- --  -- -- -- -- -- -- -- --
0000:                          B4 13 00 00 52 61 6B 69          ....Raki
0010: 73 68 40 4B 61 79 61 6B  00 00 00 00 B5 00 00 00  sh@Kayak........
0020: B6 0B 00 80 01 80 01 80  02 80 02 80 01 80 01 80  ................
0030: 03 80 01 80 00                                    .....           
```

#### Opcodes

```
  0: 0x0008 [0xB4] UI_WINDOW_STRING_HANDLER(case=0x13 - Copy string and replace @ with space, work_offset=ExtData[1]->WorkLocal[0], string="Rakish@Kayak")
  1: 0x001C [0xB5] SET_EVENT_ENTITY_NAME: Change EventEntity name to ExtData[1]->WorkLocal[0]
  2: 0x0020 [0xB6] ENTITY_APPEARANCE_HANDLER(case=Full entity look, race=8*, hair=0*, head=0*, body=78*, hands=78*, legs=0*, feet=0*, main=74*, sub=0*)
  3: 0x0034 [0x00] END_REQSTACK()
```

### Event 65535.2

#### Metadata

| Field        | Value    |
|--------------|----------|
| Entrypoint   | 0x0035   |
| Data Size    | 48 bytes |
| Instructions | 5        |

```
      00 01 02 03 04 05 06 07  08 09 0A 0B 0C 0D 0E 0F
      -- -- -- -- -- -- -- --  -- -- -- -- -- -- -- --
0030:                B4 00 00  00 46 6C 61 63 6F 00 00       ....Flaco..
0040: 00 00 00 00 00 00 00 00  00 B5 00 00 00 B6 0B 04  ................
0050: 80 05 80 01 80 06 80 06  80 06 80 01 80 01 80 01  ................
0060: 80 95 04 80 00                                    .....           
```

#### Opcodes

```
  0: 0x0035 [0xB4] UI_WINDOW_STRING_HANDLER(case=0x00 - Copy string from opcode, work_offset=ExtData[1]->WorkLocal[0], string="Flaco")
  1: 0x0049 [0xB5] SET_EVENT_ENTITY_NAME: Change EventEntity name to ExtData[1]->WorkLocal[0]
  2: 0x004D [0xB6] ENTITY_APPEARANCE_HANDLER(case=Full entity look, race=1*, hair=7*, head=0*, body=21*, hands=21*, legs=21*, feet=0*, main=0*, sub=0*)
  3: 0x0061 [0x95] SETUP_EVENT_NPC: Prepare NPC for event (Render.Flags3 = 1*)
  4: 0x0064 [0x00] END_REQSTACK()
```

### Event 65535.3

#### Metadata

| Field        | Value    |
|--------------|----------|
| Entrypoint   | 0x0065   |
| Data Size    | 46 bytes |
| Instructions | 5        |

```
      00 01 02 03 04 05 06 07  08 09 0A 0B 0C 0D 0E 0F
      -- -- -- -- -- -- -- --  -- -- -- -- -- -- -- --
0060:                B4 00 00  00 00 00 00 00 00 00 00       ...........
0070: 00 00 00 00 00 00 00 00  00 B5 00 00 00 B6 0B 04  ................
0080: 80 01 80 01 80 01 80 01  80 01 80 01 80 01 80 01  ................
0090: 80 96 00                                          ...             
```

#### Opcodes

```
  0: 0x0065 [0xB4] UI_WINDOW_STRING_HANDLER(case=0x00 - Copy string from opcode, work_offset=ExtData[1]->WorkLocal[0], string="")
  1: 0x0079 [0xB5] SET_EVENT_ENTITY_NAME: Change EventEntity name to ExtData[1]->WorkLocal[0]
  2: 0x007D [0xB6] ENTITY_APPEARANCE_HANDLER(case=Full entity look, race=1*, hair=0*, head=0*, body=0*, hands=0*, legs=0*, feet=0*, main=0*, sub=0*)
  3: 0x0091 [0x96] UNSET_EVENT_NPC: Restore NPC after event (removes event NPC status)
  4: 0x0092 [0x00] END_REQSTACK()
```
