# 17743884 - Carmelo

## Common Data

| Field            | Value                 |
|------------------|-----------------------|
| Zone             | Port Bastok (ID: 236) |
| Block Size       | 1028 bytes            |
| Total Events     | 19                    |
| References Count | 40                    |

## List of Events

| Event ID                 | Entrypoint   |   Size |   Instructions |
|--------------------------|--------------|--------|----------------|
| [65535](#event-65535)    | 0x0000       |      1 |              1 |
| [19](#event-19)          | 0x0001       |     11 |              5 |
| [6](#event-6)            | 0x000C       |    147 |             37 |
| [5](#event-5)            | 0x009F       |      1 |              1 |
| [182](#event-182)        | 0x00A0       |     11 |              5 |
| [187](#event-187)        | 0x00AB       |     11 |              5 |
| [185](#event-185)        | 0x00B6       |    296 |             44 |
| [186](#event-186)        | 0x01DE       |    226 |             30 |
| [270](#event-270)        | 0x02C0       |      1 |              1 |
| [271](#event-271)        | 0x02C1       |     11 |              5 |
| [272](#event-272)        | 0x02CC       |      1 |              1 |
| [273](#event-273)        | 0x02CD       |     20 |              8 |
| [274](#event-274)        | 0x02E1       |      1 |              1 |
| [275](#event-275)        | 0x02E2       |      1 |              1 |
| [276](#event-276)        | 0x02E3       |     11 |              5 |
| [277](#event-277)        | 0x02EE       |     11 |              5 |
| [465](#event-465)        | 0x02F9       |      7 |              2 |
| [65535.1](#event-655351) | 0x0300       |      4 |              2 |
| [65535.2](#event-655352) | 0x0304       |      2 |              2 |

## DAT References (imed_data)

|   Index | Hex Value   |   Dec Value |
|---------|-------------|-------------|
|       0 | 0x0240      |         576 |
|       1 | 0x1C88      |        7304 |
|       2 | 0x1C7D      |        7293 |
|       3 | 0x1C7E      |        7294 |
|       4 | 0x0000      |           0 |
|       5 | 0x1C7F      |        7295 |
|       6 | 0x1C80      |        7296 |
|       7 | 0x1C81      |        7297 |
|       8 | 0x1C82      |        7298 |
|       9 | 0x1C83      |        7299 |
|      10 | 0x1C84      |        7300 |
|      11 | 0x1C85      |        7301 |
|      12 | 0x1C86      |        7302 |
|      13 | 0x0001      |           1 |
|      14 | 0x1DDE      |        7646 |
|      15 | 0x1DE1      |        7649 |
|      16 | 0x013E      |         318 |
|      17 | 0x00C8      |         200 |
|      18 | 0x0003      |           3 |
|      19 | 0x0088      |         136 |
|      20 | 0x00A2      |         162 |
|      21 | 0x1DE2      |        7650 |
|      22 | 0x1DE3      |        7651 |
|      23 | 0x1DE4      |        7652 |
|      24 | 0x1DE5      |        7653 |
|      25 | 0x1DE6      |        7654 |
|      26 | 0x1DE7      |        7655 |
|      27 | 0x1DE8      |        7656 |
|      28 | 0x1DE9      |        7657 |
|      29 | 0x1DEA      |        7658 |
|      30 | 0x1DEB      |        7659 |
|      31 | 0x1DEC      |        7660 |
|      32 | 0x1DED      |        7661 |
|      33 | 0x1DEE      |        7662 |
|      34 | 0x00C9      |         201 |
|      35 | 0x2237      |        8759 |
|      36 | 0x223A      |        8762 |
|      37 | 0x223B      |        8763 |
|      38 | 0x225E      |        8798 |
|      39 | 0x225F      |        8799 |

## String References

- **7293**: You came to ask me about the $7, yes?
- **7294**: Ask about $7? [Yes./No.]
- **7295**: Memories of the deep, like ephemeral dew, A flickering light on the shores of dust, Suddenly gone in the whispering blue, The wrathful hand broke the sirens' trust.
- **7296**: ...Ah, my apologies. You came not here to listen to my word-weaving.
- **7297**: This saying you must remember: "Sirens shun the eager warrior."
- **7298**: When you find the gem, if you still bear arms with hostile intent...
- **7299**: The $7 will escape your grasp and flow down the river once more.
- **7300**: Even for a moment, you must put away all tools of war and show your true self to the sirens of Gustaberg.
- **7301**: As for myself... "My tear I let go for a bagful of gil, A part of me ended, and it pains me still."
- **7302**: ...I pray your tear gives you a new beginning.
- **7304**: And once again, $7 floats down the river, seeking shelter from the tides of war...
- **7646**: "A ship that flies toward the stars of Ifrit"? Interesting imagery, but I've written better prose in my sleep.
- **7649**: My name, on some love letter? Are you sure? There must be some mistake.
- **7650**: $6... Yes, I am the one who wrote it. I have also been sending the birds, hoping she might get it.
- **7651**: I met her on the shores of the Gustaberg river. She was an adventurer, as I was in those days. She was...as beautiful as a siren.
- **7652**: We promised each other we would travel to the Northlands together someday. When we went, we would board the ship that flies toward the stars of Ifrit...
- **7653**: But in order to do that, I needed money. So I sold the $6 that had brought us together.
- **7654**: By letting it go, our bond was weakened. We started to slowly drift apart...and one day, she was gone.
- **7655**: I was hoping that she would board that airship to go to the Northlands someday, and find my letter waiting for her. It was a long shot, but I had to try.
- **7656**: I had written a song about the Northlands as well, but...this has gone on long enough. It is time to end it.
- **7657**: Have you ever been to the Mirror Pond, at the southeastern edge of the Beaucedine Glacier? She and I were supposed to go there together.
- **7658**: They say that when the snow stops falling and the pond freezes, even the lightest piece of parchment sinks slowly to the bottom. I want you to put this, the testament of our pledge, in that pond.
- **7659**: You're back... What!? You've seen her? What did she say!?
- **7660**: Yes, I would have sacrificed everything to be with her. Maybe I was trying to stop time...my time.
- **7661**: But the hands of the clock would break... I suppose she is right.
- **7662**: Thank you. I can see things more clearly now... I will keep my clock wound so that when I see her, our times will be the same. Here, take this as a token of my gratitude.
- **8759**: It is not an easy task, but I feel your just heart will guide you on your journey.
- **8762**: I apologize, but the translation will require more time.
- **8763**: Hold on, Dariah... I swear on my life that I will save yours.
- **8798**: The road before you is long, but I know you will succeed in your task. I thank you from the bottom of my heart for all you have done for me.
- **8799**: <Player>... You have done so much for me. I am forever in your debt.

## Events

### Event 65535

#### Metadata

| Field        | Value   |
|--------------|---------|
| Entrypoint   | 0x0000  |
| Data Size    | 1 bytes |
| Instructions | 1       |

```
      00 01 02 03 04 05 06 07  08 09 0A 0B 0C 0D 0E 0F
      -- -- -- -- -- -- -- --  -- -- -- -- -- -- -- --
0000: 00                                                .               
```

#### Opcodes

```
  0: 0x0000 [0x00] END_REQSTACK()
```

### Event 19

#### Metadata

| Field        | Value    |
|--------------|----------|
| Entrypoint   | 0x0001   |
| Data Size    | 11 bytes |
| Instructions | 5        |

```
      00 01 02 03 04 05 06 07  08 09 0A 0B 0C 0D 0E 0F
      -- -- -- -- -- -- -- --  -- -- -- -- -- -- -- --
0000:    03 09 10 00 80 1D 01  80 23 21 00               ........#!.    
```

#### Opcodes

```
  0: 0x0001 [0x03] Work_Zone[9] = 576*
  1: 0x0006 [0x1D] PRINT_EVENT_MESSAGE(message_id=7304*)
    → "And once again, $7 floats down the river, seeking shelter from the tides of war..."
  2: 0x0009 [0x23] WAIT_FOR_DIALOG_INTERACTION
  3: 0x000A [0x21] END_EVENT
  4: 0x000B [0x00] END_REQSTACK()
```

### Event 6

#### Metadata

| Field        | Value     |
|--------------|-----------|
| Entrypoint   | 0x000C    |
| Data Size    | 147 bytes |
| Instructions | 37        |

```
      00 01 02 03 04 05 06 07  08 09 0A 0B 0C 0D 0E 0F
      -- -- -- -- -- -- -- --  -- -- -- -- -- -- -- --
0000:                                      03 09 10 00              ....
0010: 80 1D 02 80 23 24 03 80  04 80 04 80 25 02 00 10  ....#$......%...
0020: 04 80 00 89 00 66 04 80  F8 FF FF 7F F8 FF FF 7F  .....f..........
0030: 74 6C 6B 30 1D 05 80 23  5E 69 64 6C 30 1D 06 80  tlk0...#^idl0...
0040: 23 1E F0 FF FF 7F 1D 07  80 23 66 04 80 F8 FF FF  #........#f.....
0050: 7F F8 FF FF 7F 74 6C 6B  30 1D 08 80 23 1D 09 80  .....tlk0...#...
0060: 23 66 04 80 F8 FF FF 7F  F8 FF FF 7F 74 6C 6B 32  #f..........tlk2
0070: 1D 0A 80 23 1D 0B 80 23  5E 69 64 6C 30 1D 0C 80  ...#...#^idl0...
0080: 23 03 01 10 04 80 01 9D  00 02 00 10 0D 80 00 9D  #...............
0090: 00 1D 01 80 23 03 01 10  0D 80 01 9D 00 21 00     ....#........!. 
```

#### Opcodes

```
  0: 0x000C [0x03] Work_Zone[9] = 576*
  1: 0x0011 [0x1D] PRINT_EVENT_MESSAGE(message_id=7293*)
    → "You came to ask me about the $7, yes?"
  2: 0x0014 [0x23] WAIT_FOR_DIALOG_INTERACTION
  3: 0x0015 [0x24] CREATE_DIALOG(message_id=7294*, default_option=0*, option_flags=0*)
    → "Ask about $7? [Yes./No.]"
  4: 0x001C [0x25] WAIT_DIALOG_SELECT()
  5: 0x001D [0x02] IF !(Work_Zone[0] == 0*) GOTO 0x0089
  6: 0x0025 [0x66] LOAD_EXT_SCHEDULER_MAIN: Load scheduler "tlk0" with entities [EventEntity, EventEntity], work=0*
  7: 0x0034 [0x1D] PRINT_EVENT_MESSAGE(message_id=7295*)
    → "Memories of the deep, like ephemeral dew, A flickering light on the shores of dust, Suddenly gone in the whispering blue, The wrathful hand broke the sirens' trust."
  8: 0x0037 [0x23] WAIT_FOR_DIALOG_INTERACTION
  9: 0x0038 [0x5E] EventEntity goes idle (kills current action) (animation: "idl0")
 10: 0x003D [0x1D] PRINT_EVENT_MESSAGE(message_id=7296*)
    → "...Ah, my apologies. You came not here to listen to my word-weaving."
 11: 0x0040 [0x23] WAIT_FOR_DIALOG_INTERACTION
 12: 0x0041 [0x1E] EventEntity looks at LocalPlayer and starts talking
 13: 0x0046 [0x1D] PRINT_EVENT_MESSAGE(message_id=7297*)
    → "This saying you must remember: "Sirens shun the eager warrior.""
 14: 0x0049 [0x23] WAIT_FOR_DIALOG_INTERACTION
 15: 0x004A [0x66] LOAD_EXT_SCHEDULER_MAIN: Load scheduler "tlk0" with entities [EventEntity, EventEntity], work=0*
 16: 0x0059 [0x1D] PRINT_EVENT_MESSAGE(message_id=7298*)
    → "When you find the gem, if you still bear arms with hostile intent..."
 17: 0x005C [0x23] WAIT_FOR_DIALOG_INTERACTION
 18: 0x005D [0x1D] PRINT_EVENT_MESSAGE(message_id=7299*)
    → "The $7 will escape your grasp and flow down the river once more."
 19: 0x0060 [0x23] WAIT_FOR_DIALOG_INTERACTION
 20: 0x0061 [0x66] LOAD_EXT_SCHEDULER_MAIN: Load scheduler "tlk2" with entities [EventEntity, EventEntity], work=0*
 21: 0x0070 [0x1D] PRINT_EVENT_MESSAGE(message_id=7300*)
    → "Even for a moment, you must put away all tools of war and show your true self to the sirens of Gustaberg."
 22: 0x0073 [0x23] WAIT_FOR_DIALOG_INTERACTION
 23: 0x0074 [0x1D] PRINT_EVENT_MESSAGE(message_id=7301*)
    → "As for myself... "My tear I let go for a bagful of gil, A part of me ended, and it pains me still.""
 24: 0x0077 [0x23] WAIT_FOR_DIALOG_INTERACTION
 25: 0x0078 [0x5E] EventEntity goes idle (kills current action) (animation: "idl0")
 26: 0x007D [0x1D] PRINT_EVENT_MESSAGE(message_id=7302*)
    → "...I pray your tear gives you a new beginning."
 27: 0x0080 [0x23] WAIT_FOR_DIALOG_INTERACTION
 28: 0x0081 [0x03] Work_Zone[1] = 0*
 29: 0x0086 [0x01] GOTO 0x009D
 30: 0x0089 [0x02] IF !(Work_Zone[0] == 1*) GOTO 0x009D
 31: 0x0091 [0x1D] PRINT_EVENT_MESSAGE(message_id=7304*)
    → "And once again, $7 floats down the river, seeking shelter from the tides of war..."
 32: 0x0094 [0x23] WAIT_FOR_DIALOG_INTERACTION
 33: 0x0095 [0x03] Work_Zone[1] = 1*
 34: 0x009A [0x01] GOTO 0x009D

SUBROUTINE_009D:
 35: 0x009D [0x21] END_EVENT
 36: 0x009E [0x00] END_REQSTACK()
```

### Event 5

#### Metadata

| Field        | Value   |
|--------------|---------|
| Entrypoint   | 0x009F  |
| Data Size    | 1 bytes |
| Instructions | 1       |

```
      00 01 02 03 04 05 06 07  08 09 0A 0B 0C 0D 0E 0F
      -- -- -- -- -- -- -- --  -- -- -- -- -- -- -- --
0090:                                               00                 .
```

#### Opcodes

```
  0: 0x009F [0x00] END_REQSTACK()
```

### Event 182

#### Metadata

| Field        | Value    |
|--------------|----------|
| Entrypoint   | 0x00A0   |
| Data Size    | 11 bytes |
| Instructions | 5        |

```
      00 01 02 03 04 05 06 07  08 09 0A 0B 0C 0D 0E 0F
      -- -- -- -- -- -- -- --  -- -- -- -- -- -- -- --
00A0: 1E F0 FF FF 7F 1D 0E 80  23 21 00                 ........#!.     
```

#### Opcodes

```
  0: 0x00A0 [0x1E] EventEntity looks at LocalPlayer and starts talking
  1: 0x00A5 [0x1D] PRINT_EVENT_MESSAGE(message_id=7646*)
    → ""A ship that flies toward the stars of Ifrit"? Interesting imagery, but I've written better prose in my sleep."
  2: 0x00A8 [0x23] WAIT_FOR_DIALOG_INTERACTION
  3: 0x00A9 [0x21] END_EVENT
  4: 0x00AA [0x00] END_REQSTACK()
```

### Event 187

#### Metadata

| Field        | Value    |
|--------------|----------|
| Entrypoint   | 0x00AB   |
| Data Size    | 11 bytes |
| Instructions | 5        |

```
      00 01 02 03 04 05 06 07  08 09 0A 0B 0C 0D 0E 0F
      -- -- -- -- -- -- -- --  -- -- -- -- -- -- -- --
00A0:                                   1E F0 FF FF 7F             .....
00B0: 1D 0F 80 23 21 00                                 ...#!.          
```

#### Opcodes

```
  0: 0x00AB [0x1E] EventEntity looks at LocalPlayer and starts talking
  1: 0x00B0 [0x1D] PRINT_EVENT_MESSAGE(message_id=7649*)
    → "My name, on some love letter? Are you sure? There must be some mistake."
  2: 0x00B3 [0x23] WAIT_FOR_DIALOG_INTERACTION
  3: 0x00B4 [0x21] END_EVENT
  4: 0x00B5 [0x00] END_REQSTACK()
```

### Event 185

#### Metadata

| Field        | Value     |
|--------------|-----------|
| Entrypoint   | 0x00B6    |
| Data Size    | 296 bytes |
| Instructions | 44        |

```
      00 01 02 03 04 05 06 07  08 09 0A 0B 0C 0D 0E 0F
      -- -- -- -- -- -- -- --  -- -- -- -- -- -- -- --
00B0:                   42 75  00 10 80 75 01 46 01 45        Bu...u.F.E
00C0: 11 80 F8 FF FF 7F F8 FF  FF 7F 66 64 6F 30 04 80  ..........fdo0..
00D0: 55 11 80 F8 FF FF 7F F8  FF FF 7F 66 64 6F 30 38  U..........fdo08
00E0: 12 80 29 0A F0 FF FF 7F  17 45 13 80 F8 FF FF 7F  ..)......E......
00F0: F8 FF FF 7F 73 30 31 35  04 80 45 11 80 F8 FF FF  ....s015..E.....
0100: 7F F8 FF FF 7F 66 64 69  30 04 80 03 09 10 14 80  .....fdi0.......
0110: 03 08 10 00 80 1E F0 FF  FF 7F 1D 15 80 23 66 04  .............#f.
0120: 80 F8 FF FF 7F F8 FF FF  7F 74 6C 6B 31 1D 16 80  .........tlk1...
0130: 23 1D 17 80 23 66 04 80  F8 FF FF 7F F8 FF FF 7F  #...#f..........
0140: 74 65 6E 31 1D 18 80 23  66 04 80 F8 FF FF 7F F8  ten1...#f.......
0150: FF FF 7F 74 6C 6B 30 1D  19 80 23 45 13 80 F8 FF  ...tlk0...#E....
0160: FF 7F F8 FF FF 7F 73 30  31 36 04 80 1D 1A 80 23  ......s016.....#
0170: 66 04 80 F8 FF FF 7F F8  FF FF 7F 74 65 6E 30 1D  f..........ten0.
0180: 1B 80 23 66 04 80 F8 FF  FF 7F F8 FF FF 7F 70 61  ..#f..........pa
0190: 73 30 1D 1C 80 23 1D 1D  80 23 45 11 80 F8 FF FF  s0...#...#E.....
01A0: 7F F8 FF FF 7F 66 64 6F  31 04 80 55 11 80 F8 FF  .....fdo1..U....
01B0: FF 7F F8 FF FF 7F 66 64  6F 31 52 13 80 F8 FF FF  ......fdo1R.....
01C0: 7F F8 FF FF 7F 73 30 31  36 46 00 45 11 80 F8 FF  .....s016F.E....
01D0: FF 7F F8 FF FF 7F 66 64  69 31 04 80 21 00        ......fdi1..!.  
```

#### Opcodes

```
  0: 0x00B6 [0x42] SET_CLI_EVENT_CANCEL_DATA()
  1: 0x00B7 [0x75] LOAD_ROOM(Load indoor room, room=318*)
  2: 0x00BB [0x75] LOAD_ROOM(No action)
  3: 0x00BD [0x46] CAMERA_CONTROL: Disable user control
  4: 0x00BF [0x45] LOAD_SCHEDULED_TASK: Load scheduler "fdo0" with entities [EventEntity, EventEntity], work=[200*, 0*]
  5: 0x00D0 [0x55] WAIT_LOAD_SCHEDULER: Wait for scheduler "fdo0" with entities [EventEntity, EventEntity], work=200*
  6: 0x00DF [0x38] SET_CLIENT_EVENT_MODE(mode=3*)
  7: 0x00E2 [0x29] REQ_SET_WAIT(priority=0x0A, entity_id=LocalPlayer, tag_num=0x17)
  8: 0x00E9 [0x45] LOAD_SCHEDULED_TASK: Load scheduler "s015" with entities [EventEntity, EventEntity], work=[136*, 0*]
  9: 0x00FA [0x45] LOAD_SCHEDULED_TASK: Load scheduler "fdi0" with entities [EventEntity, EventEntity], work=[200*, 0*]
 10: 0x010B [0x03] Work_Zone[9] = 162*
 11: 0x0110 [0x03] Work_Zone[8] = 576*
 12: 0x0115 [0x1E] EventEntity looks at LocalPlayer and starts talking
 13: 0x011A [0x1D] PRINT_EVENT_MESSAGE(message_id=7650*)
    → "$6... Yes, I am the one who wrote it. I have also been sending the birds, hoping she might get it."
 14: 0x011D [0x23] WAIT_FOR_DIALOG_INTERACTION
 15: 0x011E [0x66] LOAD_EXT_SCHEDULER_MAIN: Load scheduler "tlk1" with entities [EventEntity, EventEntity], work=0*
 16: 0x012D [0x1D] PRINT_EVENT_MESSAGE(message_id=7651*)
    → "I met her on the shores of the Gustaberg river. She was an adventurer, as I was in those days. She was...as beautiful as a siren."
 17: 0x0130 [0x23] WAIT_FOR_DIALOG_INTERACTION
 18: 0x0131 [0x1D] PRINT_EVENT_MESSAGE(message_id=7652*)
    → "We promised each other we would travel to the Northlands together someday. When we went, we would board the ship that flies toward the stars of Ifrit..."
 19: 0x0134 [0x23] WAIT_FOR_DIALOG_INTERACTION
 20: 0x0135 [0x66] LOAD_EXT_SCHEDULER_MAIN: Load scheduler "ten1" with entities [EventEntity, EventEntity], work=0*
 21: 0x0144 [0x1D] PRINT_EVENT_MESSAGE(message_id=7653*)
    → "But in order to do that, I needed money. So I sold the $6 that had brought us together."
 22: 0x0147 [0x23] WAIT_FOR_DIALOG_INTERACTION
 23: 0x0148 [0x66] LOAD_EXT_SCHEDULER_MAIN: Load scheduler "tlk0" with entities [EventEntity, EventEntity], work=0*
 24: 0x0157 [0x1D] PRINT_EVENT_MESSAGE(message_id=7654*)
    → "By letting it go, our bond was weakened. We started to slowly drift apart...and one day, she was gone."
 25: 0x015A [0x23] WAIT_FOR_DIALOG_INTERACTION
 26: 0x015B [0x45] LOAD_SCHEDULED_TASK: Load scheduler "s016" with entities [EventEntity, EventEntity], work=[136*, 0*]
 27: 0x016C [0x1D] PRINT_EVENT_MESSAGE(message_id=7655*)
    → "I was hoping that she would board that airship to go to the Northlands someday, and find my letter waiting for her. It was a long shot, but I had to try."
 28: 0x016F [0x23] WAIT_FOR_DIALOG_INTERACTION
 29: 0x0170 [0x66] LOAD_EXT_SCHEDULER_MAIN: Load scheduler "ten0" with entities [EventEntity, EventEntity], work=0*
 30: 0x017F [0x1D] PRINT_EVENT_MESSAGE(message_id=7656*)
    → "I had written a song about the Northlands as well, but...this has gone on long enough. It is time to end it."
 31: 0x0182 [0x23] WAIT_FOR_DIALOG_INTERACTION
 32: 0x0183 [0x66] LOAD_EXT_SCHEDULER_MAIN: Load scheduler "pas0" with entities [EventEntity, EventEntity], work=0*
 33: 0x0192 [0x1D] PRINT_EVENT_MESSAGE(message_id=7657*)
    → "Have you ever been to the Mirror Pond, at the southeastern edge of the Beaucedine Glacier? She and I were supposed to go there together."
 34: 0x0195 [0x23] WAIT_FOR_DIALOG_INTERACTION
 35: 0x0196 [0x1D] PRINT_EVENT_MESSAGE(message_id=7658*)
    → "They say that when the snow stops falling and the pond freezes, even the lightest piece of parchment sinks slowly to the bottom. I want you to put this, the testament of our pledge, in that pond."
 36: 0x0199 [0x23] WAIT_FOR_DIALOG_INTERACTION
 37: 0x019A [0x45] LOAD_SCHEDULED_TASK: Load scheduler "fdo1" with entities [EventEntity, EventEntity], work=[200*, 0*]
 38: 0x01AB [0x55] WAIT_LOAD_SCHEDULER: Wait for scheduler "fdo1" with entities [EventEntity, EventEntity], work=200*
 39: 0x01BA [0x52] END_LOAD_SCHEDULER: End scheduler "s016" with entities [EventEntity, EventEntity], work=136*
 40: 0x01C9 [0x46] CAMERA_CONTROL: Restore default settings
 41: 0x01CB [0x45] LOAD_SCHEDULED_TASK: Load scheduler "fdi1" with entities [EventEntity, EventEntity], work=[200*, 0*]
 42: 0x01DC [0x21] END_EVENT
 43: 0x01DD [0x00] END_REQSTACK()
```

### Event 186

#### Metadata

| Field        | Value     |
|--------------|-----------|
| Entrypoint   | 0x01DE    |
| Data Size    | 226 bytes |
| Instructions | 30        |

```
      00 01 02 03 04 05 06 07  08 09 0A 0B 0C 0D 0E 0F
      -- -- -- -- -- -- -- --  -- -- -- -- -- -- -- --
01D0:                                            42 75                Bu
01E0: 00 10 80 75 01 46 01 45  11 80 F8 FF FF 7F F8 FF  ...u.F.E........
01F0: FF 7F 66 64 6F 30 04 80  55 11 80 F8 FF FF 7F F8  ..fdo0..U.......
0200: FF FF 7F 66 64 6F 30 38  12 80 29 0A F0 FF FF 7F  ...fdo08..).....
0210: 17 45 13 80 F8 FF FF 7F  F8 FF FF 7F 73 30 31 36  .E..........s016
0220: 04 80 45 11 80 F8 FF FF  7F F8 FF FF 7F 66 64 69  ..E..........fdi
0230: 30 04 80 1E F0 FF FF 7F  1D 1E 80 23 66 04 80 F8  0..........#f...
0240: FF FF 7F F8 FF FF 7F 74  6C 6B 30 1D 1F 80 23 5E  .......tlk0...#^
0250: 69 64 6C 30 1D 20 80 23  66 04 80 F8 FF FF 7F F8  idl0. .#f.......
0260: FF FF 7F 70 61 73 30 1D  21 80 23 45 11 80 F8 FF  ...pas0.!.#E....
0270: FF 7F F8 FF FF 7F 66 64  6F 31 04 80 55 11 80 F8  ......fdo1..U...
0280: FF FF 7F F8 FF FF 7F 66  64 6F 31 52 13 80 F8 FF  .......fdo1R....
0290: FF 7F F8 FF FF 7F 73 30  31 36 45 22 80 F0 FF FF  ......s016E"....
02A0: 7F F0 FF FF 7F 71 73 74  63 04 80 46 00 45 11 80  .....qstc..F.E..
02B0: F8 FF FF 7F F8 FF FF 7F  66 64 69 31 04 80 21 00  ........fdi1..!.
```

#### Opcodes

```
  0: 0x01DE [0x42] SET_CLI_EVENT_CANCEL_DATA()
  1: 0x01DF [0x75] LOAD_ROOM(Load indoor room, room=318*)
  2: 0x01E3 [0x75] LOAD_ROOM(No action)
  3: 0x01E5 [0x46] CAMERA_CONTROL: Disable user control
  4: 0x01E7 [0x45] LOAD_SCHEDULED_TASK: Load scheduler "fdo0" with entities [EventEntity, EventEntity], work=[200*, 0*]
  5: 0x01F8 [0x55] WAIT_LOAD_SCHEDULER: Wait for scheduler "fdo0" with entities [EventEntity, EventEntity], work=200*
  6: 0x0207 [0x38] SET_CLIENT_EVENT_MODE(mode=3*)
  7: 0x020A [0x29] REQ_SET_WAIT(priority=0x0A, entity_id=LocalPlayer, tag_num=0x17)
  8: 0x0211 [0x45] LOAD_SCHEDULED_TASK: Load scheduler "s016" with entities [EventEntity, EventEntity], work=[136*, 0*]
  9: 0x0222 [0x45] LOAD_SCHEDULED_TASK: Load scheduler "fdi0" with entities [EventEntity, EventEntity], work=[200*, 0*]
 10: 0x0233 [0x1E] EventEntity looks at LocalPlayer and starts talking
 11: 0x0238 [0x1D] PRINT_EVENT_MESSAGE(message_id=7659*)
    → "You're back... What!? You've seen her? What did she say!?"
 12: 0x023B [0x23] WAIT_FOR_DIALOG_INTERACTION
 13: 0x023C [0x66] LOAD_EXT_SCHEDULER_MAIN: Load scheduler "tlk0" with entities [EventEntity, EventEntity], work=0*
 14: 0x024B [0x1D] PRINT_EVENT_MESSAGE(message_id=7660*)
    → "Yes, I would have sacrificed everything to be with her. Maybe I was trying to stop time...my time."
 15: 0x024E [0x23] WAIT_FOR_DIALOG_INTERACTION
 16: 0x024F [0x5E] EventEntity goes idle (kills current action) (animation: "idl0")
 17: 0x0254 [0x1D] PRINT_EVENT_MESSAGE(message_id=7661*)
    → "But the hands of the clock would break... I suppose she is right."
 18: 0x0257 [0x23] WAIT_FOR_DIALOG_INTERACTION
 19: 0x0258 [0x66] LOAD_EXT_SCHEDULER_MAIN: Load scheduler "pas0" with entities [EventEntity, EventEntity], work=0*
 20: 0x0267 [0x1D] PRINT_EVENT_MESSAGE(message_id=7662*)
    → "Thank you. I can see things more clearly now... I will keep my clock wound so that when I see her, our times will be the same. Here, take this as a token of my gratitude."
 21: 0x026A [0x23] WAIT_FOR_DIALOG_INTERACTION
 22: 0x026B [0x45] LOAD_SCHEDULED_TASK: Load scheduler "fdo1" with entities [EventEntity, EventEntity], work=[200*, 0*]
 23: 0x027C [0x55] WAIT_LOAD_SCHEDULER: Wait for scheduler "fdo1" with entities [EventEntity, EventEntity], work=200*
 24: 0x028B [0x52] END_LOAD_SCHEDULER: End scheduler "s016" with entities [EventEntity, EventEntity], work=136*
 25: 0x029A [0x45] LOAD_SCHEDULED_TASK: Load scheduler "qstc" with entities [LocalPlayer, LocalPlayer], work=[201*, 0*]
 26: 0x02AB [0x46] CAMERA_CONTROL: Restore default settings
 27: 0x02AD [0x45] LOAD_SCHEDULED_TASK: Load scheduler "fdi1" with entities [EventEntity, EventEntity], work=[200*, 0*]
 28: 0x02BE [0x21] END_EVENT
 29: 0x02BF [0x00] END_REQSTACK()
```

### Event 270

#### Metadata

| Field        | Value   |
|--------------|---------|
| Entrypoint   | 0x02C0  |
| Data Size    | 1 bytes |
| Instructions | 1       |

```
      00 01 02 03 04 05 06 07  08 09 0A 0B 0C 0D 0E 0F
      -- -- -- -- -- -- -- --  -- -- -- -- -- -- -- --
02C0: 00                                                .               
```

#### Opcodes

```
  0: 0x02C0 [0x00] END_REQSTACK()
```

### Event 271

#### Metadata

| Field        | Value    |
|--------------|----------|
| Entrypoint   | 0x02C1   |
| Data Size    | 11 bytes |
| Instructions | 5        |

```
      00 01 02 03 04 05 06 07  08 09 0A 0B 0C 0D 0E 0F
      -- -- -- -- -- -- -- --  -- -- -- -- -- -- -- --
02C0:    1E F0 FF FF 7F 1D 23  80 23 21 00               ......#.#!.    
```

#### Opcodes

```
  0: 0x02C1 [0x1E] EventEntity looks at LocalPlayer and starts talking
  1: 0x02C6 [0x1D] PRINT_EVENT_MESSAGE(message_id=8759*)
    → "It is not an easy task, but I feel your just heart will guide you on your journey."
  2: 0x02C9 [0x23] WAIT_FOR_DIALOG_INTERACTION
  3: 0x02CA [0x21] END_EVENT
  4: 0x02CB [0x00] END_REQSTACK()
```

### Event 272

#### Metadata

| Field        | Value   |
|--------------|---------|
| Entrypoint   | 0x02CC  |
| Data Size    | 1 bytes |
| Instructions | 1       |

```
      00 01 02 03 04 05 06 07  08 09 0A 0B 0C 0D 0E 0F
      -- -- -- -- -- -- -- --  -- -- -- -- -- -- -- --
02C0:                                      00                       .   
```

#### Opcodes

```
  0: 0x02CC [0x00] END_REQSTACK()
```

### Event 273

#### Metadata

| Field        | Value    |
|--------------|----------|
| Entrypoint   | 0x02CD   |
| Data Size    | 20 bytes |
| Instructions | 8        |

```
      00 01 02 03 04 05 06 07  08 09 0A 0B 0C 0D 0E 0F
      -- -- -- -- -- -- -- --  -- -- -- -- -- -- -- --
02C0:                                         1E F0 FF               ...
02D0: FF 7F 1D 24 80 23 7B 0C  C0 0E 01 1D 25 80 23 21  ...$.#{.....%.#!
02E0: 00                                                .               
```

#### Opcodes

```
  0: 0x02CD [0x1E] EventEntity looks at LocalPlayer and starts talking
  1: 0x02D2 [0x1D] PRINT_EVENT_MESSAGE(message_id=8762*)
    → "I apologize, but the translation will require more time."
  2: 0x02D5 [0x23] WAIT_FOR_DIALOG_INTERACTION
  3: 0x02D6 [0x7B] Carmelo (ID: 17743884/0x010EC00C) stops talking
  4: 0x02DB [0x1D] PRINT_EVENT_MESSAGE(message_id=8763*)
    → "Hold on, Dariah... I swear on my life that I will save yours."
  5: 0x02DE [0x23] WAIT_FOR_DIALOG_INTERACTION
  6: 0x02DF [0x21] END_EVENT
  7: 0x02E0 [0x00] END_REQSTACK()
```

### Event 274

#### Metadata

| Field        | Value   |
|--------------|---------|
| Entrypoint   | 0x02E1  |
| Data Size    | 1 bytes |
| Instructions | 1       |

```
      00 01 02 03 04 05 06 07  08 09 0A 0B 0C 0D 0E 0F
      -- -- -- -- -- -- -- --  -- -- -- -- -- -- -- --
02E0:    00                                              .              
```

#### Opcodes

```
  0: 0x02E1 [0x00] END_REQSTACK()
```

### Event 275

#### Metadata

| Field        | Value   |
|--------------|---------|
| Entrypoint   | 0x02E2  |
| Data Size    | 1 bytes |
| Instructions | 1       |

```
      00 01 02 03 04 05 06 07  08 09 0A 0B 0C 0D 0E 0F
      -- -- -- -- -- -- -- --  -- -- -- -- -- -- -- --
02E0:       00                                            .             
```

#### Opcodes

```
  0: 0x02E2 [0x00] END_REQSTACK()
```

### Event 276

#### Metadata

| Field        | Value    |
|--------------|----------|
| Entrypoint   | 0x02E3   |
| Data Size    | 11 bytes |
| Instructions | 5        |

```
      00 01 02 03 04 05 06 07  08 09 0A 0B 0C 0D 0E 0F
      -- -- -- -- -- -- -- --  -- -- -- -- -- -- -- --
02E0:          1E F0 FF FF 7F  1D 26 80 23 21 00           ......&.#!.  
```

#### Opcodes

```
  0: 0x02E3 [0x1E] EventEntity looks at LocalPlayer and starts talking
  1: 0x02E8 [0x1D] PRINT_EVENT_MESSAGE(message_id=8798*)
    → "The road before you is long, but I know you will succeed in your task. I thank you from the bottom of my heart for all you have done for me."
  2: 0x02EB [0x23] WAIT_FOR_DIALOG_INTERACTION
  3: 0x02EC [0x21] END_EVENT
  4: 0x02ED [0x00] END_REQSTACK()
```

### Event 277

#### Metadata

| Field        | Value    |
|--------------|----------|
| Entrypoint   | 0x02EE   |
| Data Size    | 11 bytes |
| Instructions | 5        |

```
      00 01 02 03 04 05 06 07  08 09 0A 0B 0C 0D 0E 0F
      -- -- -- -- -- -- -- --  -- -- -- -- -- -- -- --
02E0:                                            1E F0                ..
02F0: FF FF 7F 1D 27 80 23 21  00                       ....'.#!.       
```

#### Opcodes

```
  0: 0x02EE [0x1E] EventEntity looks at LocalPlayer and starts talking
  1: 0x02F3 [0x1D] PRINT_EVENT_MESSAGE(message_id=8799*)
    → "<Player>... You have done so much for me. I am forever in your debt."
  2: 0x02F6 [0x23] WAIT_FOR_DIALOG_INTERACTION
  3: 0x02F7 [0x21] END_EVENT
  4: 0x02F8 [0x00] END_REQSTACK()
```

### Event 465

#### Metadata

| Field        | Value   |
|--------------|---------|
| Entrypoint   | 0x02F9  |
| Data Size    | 7 bytes |
| Instructions | 2       |

```
      00 01 02 03 04 05 06 07  08 09 0A 0B 0C 0D 0E 0F
      -- -- -- -- -- -- -- --  -- -- -- -- -- -- -- --
02F0:                             92 01 F8 FF FF 7F 00           .......
```

#### Opcodes

```
  0: 0x02F9 [0x92] EventEntity->Render.Flags3 ^= 0x01
  1: 0x02FF [0x00] END_REQSTACK()
```

### Event 65535.1

#### Metadata

| Field        | Value   |
|--------------|---------|
| Entrypoint   | 0x0300  |
| Data Size    | 4 bytes |
| Instructions | 2       |

```
      00 01 02 03 04 05 06 07  08 09 0A 0B 0C 0D 0E 0F
      -- -- -- -- -- -- -- --  -- -- -- -- -- -- -- --
0300: 95 04 80 00                                       ....            
```

#### Opcodes

```
  0: 0x0300 [0x95] SETUP_EVENT_NPC: Prepare NPC for event (Render.Flags3 = 0*)
  1: 0x0303 [0x00] END_REQSTACK()
```

### Event 65535.2

#### Metadata

| Field        | Value   |
|--------------|---------|
| Entrypoint   | 0x0304  |
| Data Size    | 2 bytes |
| Instructions | 2       |

```
      00 01 02 03 04 05 06 07  08 09 0A 0B 0C 0D 0E 0F
      -- -- -- -- -- -- -- --  -- -- -- -- -- -- -- --
0300:             96 00                                     ..          
```

#### Opcodes

```
  0: 0x0304 [0x96] UNSET_EVENT_NPC: Restore NPC after event (removes event NPC status)
  1: 0x0305 [0x00] END_REQSTACK()
```
