# 17743905 - Kurando

## Common Data

| Field            | Value                 |
|------------------|-----------------------|
| Zone             | Port Bastok (ID: 236) |
| Block Size       | 312 bytes             |
| Total Events     | 8                     |
| References Count | 20                    |

## List of Events

| Event ID                 | Entrypoint   |   Size |   Instructions |
|--------------------------|--------------|--------|----------------|
| [65535](#event-65535)    | 0x0000       |      1 |              1 |
| [28](#event-28)          | 0x0001       |     11 |              5 |
| [170](#event-170)        | 0x000C       |     39 |             11 |
| [171](#event-171)        | 0x0033       |     63 |             12 |
| [172](#event-172)        | 0x0072       |     35 |              9 |
| [173](#event-173)        | 0x0095       |     11 |              5 |
| [1](#event-1)            | 0x00A0       |     10 |              2 |
| [65535.1](#event-655351) | 0x00AA       |     14 |              4 |

## DAT References (imed_data)

|   Index | Hex Value   |   Dec Value |
|---------|-------------|-------------|
|       0 | 0x1DCB      |        7627 |
|       1 | 0x0005      |           5 |
|       2 | 0x1DCC      |        7628 |
|       3 | 0x1DCD      |        7629 |
|       4 | 0x1DCE      |        7630 |
|       5 | 0x1DCF      |        7631 |
|       6 | 0x00C9      |         201 |
|       7 | 0x0000      |           0 |
|       8 | 0x11AE      |        4526 |
|       9 | 0x1DD0      |        7632 |
|      10 | 0x1DD1      |        7633 |
|      11 | 0x1DD2      |        7634 |
|      12 | 0xFFFF0346  |  4294902598 |
|      13 | 0x28E3      |       10467 |
|      14 | 0xFFFFF7CB  |  4294965195 |
|      15 | 0x0FE5      |        4069 |
|      16 | 0x000D      |          13 |
|      17 | 0xFFFF8849  |  4294936649 |
|      18 | 0x2B04      |       11012 |
|      19 | 0xFFFFF31C  |  4294963996 |

## String References

- **7627**: Do I like airships? Are you crazy!? They're a menace!
- **7628**: I hear that every time an airship passes overhead, a terrible beast appears and destroys everything!
- **7629**: It's true! The monster was sighted on the Rolanberry Fields! Please...I need to convince people that airships are dangerous. I need to get my hands on whatever that monster drops--that way, I can prove it to them!
- **7630**: You got it! Magnificent! But wasn't the beast horrible, as I said it would be? There's no time to waste. Now that I have proof, I have to warn everyone about the airship menace!!!
- **7631**: Oh, and here. Take this.
- **7632**: Oh, you again. What? Airships are scary? What are you talking about? They're the most marvelous things on earth...er, I mean, in the sky.
- **7633**: Airships bring the most delicious things I've ever tasted! Remember the $7 you brought back? It was great!
- **7634**: Why am I here? To watch those majestic airships cut through the clouds, of course!

## Events

### Event 65535

#### Metadata

| Field        | Value   |
|--------------|---------|
| Entrypoint   | 0x0000  |
| Data Size    | 1 bytes |
| Instructions | 1       |

```
      00 01 02 03 04 05 06 07  08 09 0A 0B 0C 0D 0E 0F
      -- -- -- -- -- -- -- --  -- -- -- -- -- -- -- --
0000: 00                                                .               
```

#### Opcodes

```
  0: 0x0000 [0x00] END_REQSTACK()
```

### Event 28

#### Metadata

| Field        | Value    |
|--------------|----------|
| Entrypoint   | 0x0001   |
| Data Size    | 11 bytes |
| Instructions | 5        |

```
      00 01 02 03 04 05 06 07  08 09 0A 0B 0C 0D 0E 0F
      -- -- -- -- -- -- -- --  -- -- -- -- -- -- -- --
0000:    1E F0 FF FF 7F 1D 00  80 23 21 00               ........#!.    
```

#### Opcodes

```
  0: 0x0001 [0x1E] EventEntity looks at LocalPlayer and starts talking
  1: 0x0006 [0x1D] PRINT_EVENT_MESSAGE(message_id=7627*)
    → "Do I like airships? Are you crazy!? They're a menace!"
  2: 0x0009 [0x23] WAIT_FOR_DIALOG_INTERACTION
  3: 0x000A [0x21] END_EVENT
  4: 0x000B [0x00] END_REQSTACK()
```

### Event 170

#### Metadata

| Field        | Value    |
|--------------|----------|
| Entrypoint   | 0x000C   |
| Data Size    | 39 bytes |
| Instructions | 11       |

```
      00 01 02 03 04 05 06 07  08 09 0A 0B 0C 0D 0E 0F
      -- -- -- -- -- -- -- --  -- -- -- -- -- -- -- --
0000:                                      1E F0 FF FF              ....
0010: 7F 1D 00 80 23 5B 01 80  F8 FF FF 7F F8 FF FF 7F  ....#[..........
0020: 74 6C 6B 30 1D 02 80 23  5E 69 64 6C 30 1D 03 80  tlk0...#^idl0...
0030: 23 21 00                                          #!.             
```

#### Opcodes

```
  0: 0x000C [0x1E] EventEntity looks at LocalPlayer and starts talking
  1: 0x0011 [0x1D] PRINT_EVENT_MESSAGE(message_id=7627*)
    → "Do I like airships? Are you crazy!? They're a menace!"
  2: 0x0014 [0x23] WAIT_FOR_DIALOG_INTERACTION
  3: 0x0015 [0x5B] LOAD_EXT_SCHEDULER: Load scheduler "tlk0" with entities [EventEntity, EventEntity], work=5*
  4: 0x0024 [0x1D] PRINT_EVENT_MESSAGE(message_id=7628*)
    → "I hear that every time an airship passes overhead, a terrible beast appears and destroys everything!"
  5: 0x0027 [0x23] WAIT_FOR_DIALOG_INTERACTION
  6: 0x0028 [0x5E] EventEntity goes idle (kills current action) (animation: "idl0")
  7: 0x002D [0x1D] PRINT_EVENT_MESSAGE(message_id=7629*)
    → "It's true! The monster was sighted on the Rolanberry Fields! Please...I need to convince people that airships are dangerous. I need to get my hands on whatever that monster drops--that way, I can prove it to them!"
  8: 0x0030 [0x23] WAIT_FOR_DIALOG_INTERACTION
  9: 0x0031 [0x21] END_EVENT
 10: 0x0032 [0x00] END_REQSTACK()
```

### Event 171

#### Metadata

| Field        | Value    |
|--------------|----------|
| Entrypoint   | 0x0033   |
| Data Size    | 63 bytes |
| Instructions | 12       |

```
      00 01 02 03 04 05 06 07  08 09 0A 0B 0C 0D 0E 0F
      -- -- -- -- -- -- -- --  -- -- -- -- -- -- -- --
0030:          42 20 01 1E F0  FF FF 7F 1D 04 80 23 5B     B .........#[
0040: 01 80 F8 FF FF 7F F8 FF  FF 7F 70 61 73 30 1D 05  ..........pas0..
0050: 80 23 53 F8 FF FF 7F F8  FF FF 7F 70 61 73 30 45  .#S........pas0E
0060: 06 80 F0 FF FF 7F F0 FF  FF 7F 71 73 74 63 07 80  ..........qstc..
0070: 21 00                                             !.              
```

#### Opcodes

```
  0: 0x0033 [0x42] SET_CLI_EVENT_CANCEL_DATA()
  1: 0x0034 [0x20] SET_CLI_EVENT_UC_FLAG: Lock player control
  2: 0x0036 [0x1E] EventEntity looks at LocalPlayer and starts talking
  3: 0x003B [0x1D] PRINT_EVENT_MESSAGE(message_id=7630*)
    → "You got it! Magnificent! But wasn't the beast horrible, as I said it would be? There's no time to waste. Now that I have proof, I have to warn everyone about the airship menace!!!"
  4: 0x003E [0x23] WAIT_FOR_DIALOG_INTERACTION
  5: 0x003F [0x5B] LOAD_EXT_SCHEDULER: Load scheduler "pas0" with entities [EventEntity, EventEntity], work=5*
  6: 0x004E [0x1D] PRINT_EVENT_MESSAGE(message_id=7631*)
    → "Oh, and here. Take this."
  7: 0x0051 [0x23] WAIT_FOR_DIALOG_INTERACTION
  8: 0x0052 [0x53] WAIT_SCHEDULER_TASK: Wait for scheduler "pas0" with entities [EventEntity, EventEntity]
  9: 0x005F [0x45] LOAD_SCHEDULED_TASK: Load scheduler "qstc" with entities [LocalPlayer, LocalPlayer], work=[201*, 0*]
 10: 0x0070 [0x21] END_EVENT
 11: 0x0071 [0x00] END_REQSTACK()
```

### Event 172

#### Metadata

| Field        | Value    |
|--------------|----------|
| Entrypoint   | 0x0072   |
| Data Size    | 35 bytes |
| Instructions | 9        |

```
      00 01 02 03 04 05 06 07  08 09 0A 0B 0C 0D 0E 0F
      -- -- -- -- -- -- -- --  -- -- -- -- -- -- -- --
0070:       03 09 10 08 80 1E  F0 FF FF 7F 1D 09 80 23    .............#
0080: 5B 01 80 F8 FF FF 7F F8  FF FF 7F 74 6C 6B 30 1D  [..........tlk0.
0090: 0A 80 23 21 00                                    ..#!.           
```

#### Opcodes

```
  0: 0x0072 [0x03] Work_Zone[9] = 4526*
  1: 0x0077 [0x1E] EventEntity looks at LocalPlayer and starts talking
  2: 0x007C [0x1D] PRINT_EVENT_MESSAGE(message_id=7632*)
    → "Oh, you again. What? Airships are scary? What are you talking about? They're the most marvelous things on earth...er, I mean, in the sky."
  3: 0x007F [0x23] WAIT_FOR_DIALOG_INTERACTION
  4: 0x0080 [0x5B] LOAD_EXT_SCHEDULER: Load scheduler "tlk0" with entities [EventEntity, EventEntity], work=5*
  5: 0x008F [0x1D] PRINT_EVENT_MESSAGE(message_id=7633*)
    → "Airships bring the most delicious things I've ever tasted! Remember the $7 you brought back? It was great!"
  6: 0x0092 [0x23] WAIT_FOR_DIALOG_INTERACTION
  7: 0x0093 [0x21] END_EVENT
  8: 0x0094 [0x00] END_REQSTACK()
```

### Event 173

#### Metadata

| Field        | Value    |
|--------------|----------|
| Entrypoint   | 0x0095   |
| Data Size    | 11 bytes |
| Instructions | 5        |

```
      00 01 02 03 04 05 06 07  08 09 0A 0B 0C 0D 0E 0F
      -- -- -- -- -- -- -- --  -- -- -- -- -- -- -- --
0090:                1E F0 FF  FF 7F 1D 0B 80 23 21 00       ........#!.
```

#### Opcodes

```
  0: 0x0095 [0x1E] EventEntity looks at LocalPlayer and starts talking
  1: 0x009A [0x1D] PRINT_EVENT_MESSAGE(message_id=7634*)
    → "Why am I here? To watch those majestic airships cut through the clouds, of course!"
  2: 0x009D [0x23] WAIT_FOR_DIALOG_INTERACTION
  3: 0x009E [0x21] END_EVENT
  4: 0x009F [0x00] END_REQSTACK()
```

### Event 1

#### Metadata

| Field        | Value    |
|--------------|----------|
| Entrypoint   | 0x00A0   |
| Data Size    | 10 bytes |
| Instructions | 2        |

```
      00 01 02 03 04 05 06 07  08 09 0A 0B 0C 0D 0E 0F
      -- -- -- -- -- -- -- --  -- -- -- -- -- -- -- --
00A0: 37 0C 80 0D 80 0E 80 0F  80 00                    7.........      
```

#### Opcodes

```
  0: 0x00A0 [0x37] UPDATE_EVENT_POSITION_AND_DIR: x=-64.698*, z=10.467*, y=-2.101*, direction=357.6°*
  1: 0x00A9 [0x00] END_REQSTACK()
```

### Event 65535.1

#### Metadata

| Field        | Value    |
|--------------|----------|
| Entrypoint   | 0x00AA   |
| Data Size    | 14 bytes |
| Instructions | 4        |

```
      00 01 02 03 04 05 06 07  08 09 0A 0B 0C 0D 0E 0F
      -- -- -- -- -- -- -- --  -- -- -- -- -- -- -- --
00A0:                                32 10 80 1F 00 11            2.....
00B0: 80 12 80 13 80 1F 01 00                           ........        
```

#### Opcodes

```
  0: 0x00AA [0x32] ExtData[1]->MainSpeed = 13* * 0.1
  1: 0x00AD [0x1F] MOVE_ENTITY: EventEntity moves to X=-30.647*, Z=11.012*, Y=-3.300*
  2: 0x00B5 [0x1F] MOVE_ENTITY: Update entity position (mode=1)
  3: 0x00B7 [0x00] END_REQSTACK()
```
