# 17743897 - Latifah

## Common Data

| Field            | Value                 |
|------------------|-----------------------|
| Zone             | Port Bastok (ID: 236) |
| Block Size       | 196 bytes             |
| Total Events     | 5                     |
| References Count | 15                    |

## List of Events

| Event ID                 | Entrypoint   |   Size |   Instructions |
|--------------------------|--------------|--------|----------------|
| [65535](#event-65535)    | 0x0000       |      1 |              1 |
| [13](#event-13)          | 0x0001       |     40 |              8 |
| [70](#event-70)          | 0x0029       |      6 |              2 |
| [65535.1](#event-655351) | 0x002F       |     34 |              8 |
| [120](#event-120)        | 0x0051       |     16 |              8 |

## DAT References (imed_data)

|   Index | Hex Value   |   Dec Value |
|---------|-------------|-------------|
|       0 | 0x029D      |         669 |
|       1 | 0x0014      |          20 |
|       2 | 0x000A      |          10 |
|       3 | 0x1D04      |        7428 |
|       4 | 0xBFA1      |       49057 |
|       5 | 0xFFFF28F1  |  4294912241 |
|       6 | 0x1D4B      |        7499 |
|       7 | 0x003C      |          60 |
|       8 | 0xD27B      |       53883 |
|       9 | 0xFFFF1CB5  |  4294909109 |
|      10 | 0xD5B9      |       54713 |
|      11 | 0xFFFF0BAD  |  4294904749 |
|      12 | 0x1AB7      |        6839 |
|      13 | 0x1D6D      |        7533 |
|      14 | 0x1D6E      |        7534 |

## String References

- **7428**: The residential area is on the other side of this drawbridge. Cross it while it's down if you need to go to your Mog House.
- **7533**: The stamp hunt, right? Yes, you're not the first adventurer who has come to me asking for it. Here you go.
- **7534**: You received a stamp!

## Events

### Event 65535

#### Metadata

| Field        | Value   |
|--------------|---------|
| Entrypoint   | 0x0000  |
| Data Size    | 1 bytes |
| Instructions | 1       |

```
      00 01 02 03 04 05 06 07  08 09 0A 0B 0C 0D 0E 0F
      -- -- -- -- -- -- -- --  -- -- -- -- -- -- -- --
0000: 00                                                .               
```

#### Opcodes

```
  0: 0x0000 [0x00] END_REQSTACK()
```

### Event 13

#### Metadata

| Field        | Value    |
|--------------|----------|
| Entrypoint   | 0x0001   |
| Data Size    | 40 bytes |
| Instructions | 8        |

```
      00 01 02 03 04 05 06 07  08 09 0A 0B 0C 0D 0E 0F
      -- -- -- -- -- -- -- --  -- -- -- -- -- -- -- --
0000:    39 00 80 1C 01 80 66  02 80 F8 FF FF 7F F8 FF   9.....f........
0010: FF 7F 70 6F 69 30 1D 03  80 23 53 F8 FF FF 7F F8  ..poi0...#S.....
0020: FF FF 7F 70 6F 69 30 21  00                       ...poi0!.       
```

#### Opcodes

```
  0: 0x0001 [0x39] SET_ENTITY_DIRECTION(direction=3.7°*)
  1: 0x0004 [0x1C] WAIT(20* ticks)
  2: 0x0007 [0x66] LOAD_EXT_SCHEDULER_MAIN: Load scheduler "poi0" with entities [EventEntity, EventEntity], work=10*
  3: 0x0016 [0x1D] PRINT_EVENT_MESSAGE(message_id=7428*)
    → "The residential area is on the other side of this drawbridge. Cross it while it's down if you need to go to your Mog House."
  4: 0x0019 [0x23] WAIT_FOR_DIALOG_INTERACTION
  5: 0x001A [0x53] WAIT_SCHEDULER_TASK: Wait for scheduler "poi0" with entities [EventEntity, EventEntity]
  6: 0x0027 [0x21] END_EVENT
  7: 0x0028 [0x00] END_REQSTACK()
```

### Event 70

#### Metadata

| Field        | Value   |
|--------------|---------|
| Entrypoint   | 0x0029  |
| Data Size    | 6 bytes |
| Instructions | 2       |

```
      00 01 02 03 04 05 06 07  08 09 0A 0B 0C 0D 0E 0F
      -- -- -- -- -- -- -- --  -- -- -- -- -- -- -- --
0020:                             1E F0 FF FF 7F 00              ...... 
```

#### Opcodes

```
  0: 0x0029 [0x1E] EventEntity looks at LocalPlayer and starts talking
  1: 0x002E [0x00] END_REQSTACK()
```

### Event 65535.1

#### Metadata

| Field        | Value    |
|--------------|----------|
| Entrypoint   | 0x002F   |
| Data Size    | 34 bytes |
| Instructions | 8        |

```
      00 01 02 03 04 05 06 07  08 09 0A 0B 0C 0D 0E 0F
      -- -- -- -- -- -- -- --  -- -- -- -- -- -- -- --
0020:                                               1F                 .
0030: 00 04 80 05 80 06 80 1F  01 1C 07 80 1F 00 08 80  ................
0040: 09 80 06 80 1F 01 1F 00  0A 80 0B 80 0C 80 1F 01  ................
0050: 00                                                .               
```

#### Opcodes

```
  0: 0x002F [0x1F] MOVE_ENTITY: EventEntity moves to X=49.057*, Z=-55.055*, Y=7.499*
  1: 0x0037 [0x1F] MOVE_ENTITY: Update entity position (mode=1)
  2: 0x0039 [0x1C] WAIT(60* ticks)
  3: 0x003C [0x1F] MOVE_ENTITY: EventEntity moves to X=53.883*, Z=-58.187*, Y=7.499*
  4: 0x0044 [0x1F] MOVE_ENTITY: Update entity position (mode=1)
  5: 0x0046 [0x1F] MOVE_ENTITY: EventEntity moves to X=54.713*, Z=-62.547*, Y=6.839*
  6: 0x004E [0x1F] MOVE_ENTITY: Update entity position (mode=1)
  7: 0x0050 [0x00] END_REQSTACK()
```

### Event 120

#### Metadata

| Field        | Value    |
|--------------|----------|
| Entrypoint   | 0x0051   |
| Data Size    | 16 bytes |
| Instructions | 8        |

```
      00 01 02 03 04 05 06 07  08 09 0A 0B 0C 0D 0E 0F
      -- -- -- -- -- -- -- --  -- -- -- -- -- -- -- --
0050:    42 1E F0 FF FF 7F 1D  0D 80 23 48 0E 80 23 21   B........#H..#!
0060: 00                                                .               
```

#### Opcodes

```
  0: 0x0051 [0x42] SET_CLI_EVENT_CANCEL_DATA()
  1: 0x0052 [0x1E] EventEntity looks at LocalPlayer and starts talking
  2: 0x0057 [0x1D] PRINT_EVENT_MESSAGE(message_id=7533*)
    → "The stamp hunt, right? Yes, you're not the first adventurer who has come to me asking for it. Here you go."
  3: 0x005A [0x23] WAIT_FOR_DIALOG_INTERACTION
  4: 0x005B [0x48] [System] [7534*]:
    → "You received a stamp!"
  5: 0x005E [0x23] WAIT_FOR_DIALOG_INTERACTION
  6: 0x005F [0x21] END_EVENT
  7: 0x0060 [0x00] END_REQSTACK()
```
