# 17743892 - Carey

## Common Data

| Field            | Value                 |
|------------------|-----------------------|
| Zone             | Port Bastok (ID: 236) |
| Block Size       | 172 bytes             |
| Total Events     | 4                     |
| References Count | 10                    |

## List of Events

| Event ID              | Entrypoint   |   Size |   Instructions |
|-----------------------|--------------|--------|----------------|
| [65535](#event-65535) | 0x0000       |      1 |              1 |
| [305](#event-305)     | 0x0001       |     18 |              4 |
| [315](#event-315)     | 0x0013       |     30 |              8 |
| [316](#event-316)     | 0x0031       |     49 |             11 |

## DAT References (imed_data)

|   Index | Hex Value   |   Dec Value |
|---------|-------------|-------------|
|       0 | 0xFFFE6D71  |  4294864241 |
|       1 | 0xFFFFE19D  |  4294959517 |
|       2 | 0xFFFFF7CB  |  4294965195 |
|       3 | 0x07BD      |        1981 |
|       4 | 0x2395      |        9109 |
|       5 | 0x000A      |          10 |
|       6 | 0x2396      |        9110 |
|       7 | 0x23A2      |        9122 |
|       8 | 0x23A3      |        9123 |
|       9 | 0x23A4      |        9124 |

## String References

- **9109**: Who was that girl? It was like a hurricane hit the agency!
- **9110**: I just wanted to get rid of her, so I told her where the Metalworks was. I hope that Cid doesn't get too mad at me...
- **9122**: Oh, why does Cid always have to go off and make things hectic for everyone?
- **9123**: I mean, taking that airship to the skies while still in its testing phase...without even a single member of the repair crew...
- **9124**: Ah! You didn't happen to hear me just now...did you?

## Events

### Event 65535

#### Metadata

| Field        | Value   |
|--------------|---------|
| Entrypoint   | 0x0000  |
| Data Size    | 1 bytes |
| Instructions | 1       |

```
      00 01 02 03 04 05 06 07  08 09 0A 0B 0C 0D 0E 0F
      -- -- -- -- -- -- -- --  -- -- -- -- -- -- -- --
0000: 00                                                .               
```

#### Opcodes

```
  0: 0x0000 [0x00] END_REQSTACK()
```

### Event 305

#### Metadata

| Field        | Value    |
|--------------|----------|
| Entrypoint   | 0x0001   |
| Data Size    | 18 bytes |
| Instructions | 4        |

```
      00 01 02 03 04 05 06 07  08 09 0A 0B 0C 0D 0E 0F
      -- -- -- -- -- -- -- --  -- -- -- -- -- -- -- --
0000:    92 01 F8 FF FF 7F 22  01 37 00 80 01 80 02 80   ......".7......
0010: 03 80 00                                          ...             
```

#### Opcodes

```
  0: 0x0001 [0x92] EventEntity->Render.Flags3 ^= 0x01
  1: 0x0007 [0x22] ENTITY_HIDE_FLAG(enabled=0x01)
  2: 0x0009 [0x37] UPDATE_EVENT_POSITION_AND_DIR: x=-103.055*, z=-7.779*, y=-2.101*, direction=174.1°*
  3: 0x0012 [0x00] END_REQSTACK()
```

### Event 315

#### Metadata

| Field        | Value    |
|--------------|----------|
| Entrypoint   | 0x0013   |
| Data Size    | 30 bytes |
| Instructions | 8        |

```
      00 01 02 03 04 05 06 07  08 09 0A 0B 0C 0D 0E 0F
      -- -- -- -- -- -- -- --  -- -- -- -- -- -- -- --
0010:          1E F0 FF FF 7F  1D 04 80 23 66 05 80 14     ........#f...
0020: C0 0E 01 14 C0 0E 01 74  6C 6B 30 1D 06 80 23 21  .......tlk0...#!
0030: 00                                                .               
```

#### Opcodes

```
  0: 0x0013 [0x1E] EventEntity looks at LocalPlayer and starts talking
  1: 0x0018 [0x1D] PRINT_EVENT_MESSAGE(message_id=9109*)
    → "Who was that girl? It was like a hurricane hit the agency!"
  2: 0x001B [0x23] WAIT_FOR_DIALOG_INTERACTION
  3: 0x001C [0x66] LOAD_EXT_SCHEDULER_MAIN: Load scheduler "tlk0" with entities [Carey (ID: 17743892/0x010EC014), Carey (ID: 17743892/0x010EC014)], work=10*
  4: 0x002B [0x1D] PRINT_EVENT_MESSAGE(message_id=9110*)
    → "I just wanted to get rid of her, so I told her where the Metalworks was. I hope that Cid doesn't get too mad at me..."
  5: 0x002E [0x23] WAIT_FOR_DIALOG_INTERACTION
  6: 0x002F [0x21] END_EVENT
  7: 0x0030 [0x00] END_REQSTACK()
```

### Event 316

#### Metadata

| Field        | Value    |
|--------------|----------|
| Entrypoint   | 0x0031   |
| Data Size    | 49 bytes |
| Instructions | 11       |

```
      00 01 02 03 04 05 06 07  08 09 0A 0B 0C 0D 0E 0F
      -- -- -- -- -- -- -- --  -- -- -- -- -- -- -- --
0030:    1E F0 FF FF 7F 1D 07  80 23 66 05 80 14 C0 0E   ........#f.....
0040: 01 14 C0 0E 01 74 6C 6B  30 1D 08 80 23 66 05 80  .....tlk0...#f..
0050: 14 C0 0E 01 14 C0 0E 01  74 6C 6B 31 1D 09 80 23  ........tlk1...#
0060: 21 00                                             !.              
```

#### Opcodes

```
  0: 0x0031 [0x1E] EventEntity looks at LocalPlayer and starts talking
  1: 0x0036 [0x1D] PRINT_EVENT_MESSAGE(message_id=9122*)
    → "Oh, why does Cid always have to go off and make things hectic for everyone?"
  2: 0x0039 [0x23] WAIT_FOR_DIALOG_INTERACTION
  3: 0x003A [0x66] LOAD_EXT_SCHEDULER_MAIN: Load scheduler "tlk0" with entities [Carey (ID: 17743892/0x010EC014), Carey (ID: 17743892/0x010EC014)], work=10*
  4: 0x0049 [0x1D] PRINT_EVENT_MESSAGE(message_id=9123*)
    → "I mean, taking that airship to the skies while still in its testing phase...without even a single member of the repair crew..."
  5: 0x004C [0x23] WAIT_FOR_DIALOG_INTERACTION
  6: 0x004D [0x66] LOAD_EXT_SCHEDULER_MAIN: Load scheduler "tlk1" with entities [Carey (ID: 17743892/0x010EC014), Carey (ID: 17743892/0x010EC014)], work=10*
  7: 0x005C [0x1D] PRINT_EVENT_MESSAGE(message_id=9124*)
    → "Ah! You didn't happen to hear me just now...did you?"
  8: 0x005F [0x23] WAIT_FOR_DIALOG_INTERACTION
  9: 0x0060 [0x21] END_EVENT
 10: 0x0061 [0x00] END_REQSTACK()
```
