# 17743876 - Cornelia

## Common Data

| Field            | Value                 |
|------------------|-----------------------|
| Zone             | Port Bastok (ID: 236) |
| Block Size       | 580 bytes             |
| Total Events     | 15                    |
| References Count | 52                    |

## List of Events

| Event ID                   | Entrypoint   |   Size |   Instructions |
|----------------------------|--------------|--------|----------------|
| [65535](#event-65535)      | 0x0000       |      1 |              1 |
| [1](#event-1)              | 0x0001       |      1 |              1 |
| [2](#event-2)              | 0x0002       |     12 |              3 |
| [65535.1](#event-655351)   | 0x000E       |     28 |              7 |
| [65535.2](#event-655352)   | 0x002A       |     16 |              5 |
| [65535.3](#event-655353)   | 0x003A       |     73 |             16 |
| [65535.4](#event-655354)   | 0x0083       |     33 |              7 |
| [65535.5](#event-655355)   | 0x00A4       |     19 |              5 |
| [65535.6](#event-655356)   | 0x00B7       |      6 |              2 |
| [65535.7](#event-655357)   | 0x00BD       |     40 |              8 |
| [231](#event-231)          | 0x00E5       |     10 |              2 |
| [65535.8](#event-655358)   | 0x00EF       |     34 |              8 |
| [465](#event-465)          | 0x0111       |      7 |              2 |
| [65535.9](#event-655359)   | 0x0118       |      2 |              2 |
| [65535.10](#event-6553510) | 0x011A       |     14 |              4 |

## DAT References (imed_data)

|   Index | Hex Value   |   Dec Value |
|---------|-------------|-------------|
|       0 | 0xFFFE61EE  |  4294861294 |
|       1 | 0x7D3E      |       32062 |
|       2 | 0x0B53      |        2899 |
|       3 | 0x0D64      |        3428 |
|       4 | 0x1FE03     |      130563 |
|       5 | 0xFFFFDFFC  |  4294959100 |
|       6 | 0x2133      |        8499 |
|       7 | 0x005A      |          90 |
|       8 | 0x0028      |          40 |
|       9 | 0xFFFE7D47  |  4294868295 |
|      10 | 0x998A      |       39306 |
|      11 | 0x1229      |        4649 |
|      12 | 0xFFFE669B  |  4294862491 |
|      13 | 0x78DF      |       30943 |
|      14 | 0x0739      |        1849 |
|      15 | 0x0D7F      |        3455 |
|      16 | 0xFFFE66C8  |  4294862536 |
|      17 | 0x8687      |       34439 |
|      18 | 0xFFFE6A58  |  4294863448 |
|      19 | 0x89BB      |       35259 |
|      20 | 0xFFFE73F2  |  4294865906 |
|      21 | 0x84F6      |       34038 |
|      22 | 0xFFFE73D4  |  4294865876 |
|      23 | 0x7FE2      |       32738 |
|      24 | 0x000D      |          13 |
|      25 | 0xFFFE73BB  |  4294865851 |
|      26 | 0x7617      |       30231 |
|      27 | 0x1EF8C     |      126860 |
|      28 | 0xFFFFD30F  |  4294955791 |
|      29 | 0x0094      |         148 |
|      30 | 0x0078      |         120 |
|      31 | 0x1DABD     |      121533 |
|      32 | 0xFFFFC8A7  |  4294953127 |
|      33 | 0x2130      |        8496 |
|      34 | 0x003C      |          60 |
|      35 | 0xFFFE7832  |  4294866994 |
|      36 | 0x7779      |       30585 |
|      37 | 0xFFFDAF9E  |  4294815646 |
|      38 | 0x0C72      |        3186 |
|      39 | 0xFFFFE1CE  |  4294959566 |
|      40 | 0x09E3      |        2531 |
|      41 | 0xFFFDA45A  |  4294812762 |
|      42 | 0x17C7      |        6087 |
|      43 | 0xFFFFE2B8  |  4294959800 |
|      44 | 0xFFFD967A  |  4294809210 |
|      45 | 0x15C1      |        5569 |
|      46 | 0xFFFFE2C8  |  4294959816 |
|      47 | 0xFFFD92EA  |  4294808298 |
|      48 | 0x1237      |        4663 |
|      49 | 0xFFFDB96C  |  4294818156 |
|      50 | 0xFFFFCF36  |  4294954806 |
|      51 | 0xFFFFE890  |  4294961296 |

## Events

### Event 65535

#### Metadata

| Field        | Value   |
|--------------|---------|
| Entrypoint   | 0x0000  |
| Data Size    | 1 bytes |
| Instructions | 1       |

```
      00 01 02 03 04 05 06 07  08 09 0A 0B 0C 0D 0E 0F
      -- -- -- -- -- -- -- --  -- -- -- -- -- -- -- --
0000: 00                                                .               
```

#### Opcodes

```
  0: 0x0000 [0x00] END_REQSTACK()
```

### Event 1

#### Metadata

| Field        | Value   |
|--------------|---------|
| Entrypoint   | 0x0001  |
| Data Size    | 1 bytes |
| Instructions | 1       |

```
      00 01 02 03 04 05 06 07  08 09 0A 0B 0C 0D 0E 0F
      -- -- -- -- -- -- -- --  -- -- -- -- -- -- -- --
0000:    00                                              .              
```

#### Opcodes

```
  0: 0x0001 [0x00] END_REQSTACK()
```

### Event 2

#### Metadata

| Field        | Value    |
|--------------|----------|
| Entrypoint   | 0x0002   |
| Data Size    | 12 bytes |
| Instructions | 3        |

```
      00 01 02 03 04 05 06 07  08 09 0A 0B 0C 0D 0E 0F
      -- -- -- -- -- -- -- --  -- -- -- -- -- -- -- --
0000:       37 00 80 01 80 02  80 03 80 22 01 00          7........"..  
```

#### Opcodes

```
  0: 0x0002 [0x37] UPDATE_EVENT_POSITION_AND_DIR: x=-106.002*, z=32.062*, y=2.899*, direction=301.3°*
  1: 0x000B [0x22] ENTITY_HIDE_FLAG(enabled=0x01)
  2: 0x000D [0x00] END_REQSTACK()
```

### Event 65535.1

#### Metadata

| Field        | Value    |
|--------------|----------|
| Entrypoint   | 0x000E   |
| Data Size    | 28 bytes |
| Instructions | 7        |

```
      00 01 02 03 04 05 06 07  08 09 0A 0B 0C 0D 0E 0F
      -- -- -- -- -- -- -- --  -- -- -- -- -- -- -- --
0000:                                            36 04                6.
0010: 80 05 80 06 80 1E 03 C0  0E 01 7B F8 FF FF 7F 22  ..........{...."
0020: 00 1C 07 80 7B F8 FF FF  7F 00                    ....{.....      
```

#### Opcodes

```
  0: 0x000E [0x36] SET_ENTITY_EVENT_POSITION(pos_x=130.563*, pos_z=-8.196*, pos_y=8.499*)
  1: 0x0015 [0x1E] EventEntity looks at Nicadio (ID: 17743875/0x010EC003) and starts talking
  2: 0x001A [0x7B] EventEntity stops talking
  3: 0x001F [0x22] ENTITY_HIDE_FLAG(enabled=0x00)
  4: 0x0021 [0x1C] WAIT(90* ticks)
  5: 0x0024 [0x7B] EventEntity stops talking
  6: 0x0029 [0x00] END_REQSTACK()
```

### Event 65535.2

#### Metadata

| Field        | Value    |
|--------------|----------|
| Entrypoint   | 0x002A   |
| Data Size    | 16 bytes |
| Instructions | 5        |

```
      00 01 02 03 04 05 06 07  08 09 0A 0B 0C 0D 0E 0F
      -- -- -- -- -- -- -- --  -- -- -- -- -- -- -- --
0020:                                32 08 80 1F 00 09            2.....
0030: 80 0A 80 0B 80 1F 01 22  01 00                    ......."..      
```

#### Opcodes

```
  0: 0x002A [0x32] ExtData[1]->MainSpeed = 40* * 0.1
  1: 0x002D [0x1F] MOVE_ENTITY: EventEntity moves to X=-99.001*, Z=39.306*, Y=4.649*
  2: 0x0035 [0x1F] MOVE_ENTITY: Update entity position (mode=1)
  3: 0x0037 [0x22] ENTITY_HIDE_FLAG(enabled=0x01)
  4: 0x0039 [0x00] END_REQSTACK()
```

### Event 65535.3

#### Metadata

| Field        | Value    |
|--------------|----------|
| Entrypoint   | 0x003A   |
| Data Size    | 73 bytes |
| Instructions | 16       |

```
      00 01 02 03 04 05 06 07  08 09 0A 0B 0C 0D 0E 0F
      -- -- -- -- -- -- -- --  -- -- -- -- -- -- -- --
0030:                                22 00 37 0C 80 0D            ".7...
0040: 80 0E 80 0F 80 32 08 80  80 F8 FF FF 7F 1F 00 10  .....2..........
0050: 80 11 80 0B 80 1F 01 1F  00 12 80 13 80 0B 80 1F  ................
0060: 01 1F 00 14 80 15 80 0B  80 1F 01 1F 00 16 80 17  ................
0070: 80 0B 80 1F 01 32 18 80  1F 00 19 80 1A 80 0B 80  .....2..........
0080: 1F 01 00                                          ...             
```

#### Opcodes

```
  0: 0x003A [0x22] ENTITY_HIDE_FLAG(enabled=0x00)
  1: 0x003C [0x37] UPDATE_EVENT_POSITION_AND_DIR: x=-104.805*, z=30.943*, y=1.849*, direction=303.7°*
  2: 0x0045 [0x32] ExtData[1]->MainSpeed = 40* * 0.1
  3: 0x0048 [0x80] LOAD_WAIT(entity=EventEntity)
  4: 0x004D [0x1F] MOVE_ENTITY: EventEntity moves to X=-104.760*, Z=34.439*, Y=4.649*
  5: 0x0055 [0x1F] MOVE_ENTITY: Update entity position (mode=1)
  6: 0x0057 [0x1F] MOVE_ENTITY: EventEntity moves to X=-103.848*, Z=35.259*, Y=4.649*
  7: 0x005F [0x1F] MOVE_ENTITY: Update entity position (mode=1)
  8: 0x0061 [0x1F] MOVE_ENTITY: EventEntity moves to X=-101.390*, Z=34.038*, Y=4.649*
  9: 0x0069 [0x1F] MOVE_ENTITY: Update entity position (mode=1)
 10: 0x006B [0x1F] MOVE_ENTITY: EventEntity moves to X=-101.420*, Z=32.738*, Y=4.649*
 11: 0x0073 [0x1F] MOVE_ENTITY: Update entity position (mode=1)
 12: 0x0075 [0x32] ExtData[1]->MainSpeed = 13* * 0.1
 13: 0x0078 [0x1F] MOVE_ENTITY: EventEntity moves to X=-101.445*, Z=30.231*, Y=4.649*
 14: 0x0080 [0x1F] MOVE_ENTITY: Update entity position (mode=1)
 15: 0x0082 [0x00] END_REQSTACK()
```

### Event 65535.4

#### Metadata

| Field        | Value    |
|--------------|----------|
| Entrypoint   | 0x0083   |
| Data Size    | 33 bytes |
| Instructions | 7        |

```
      00 01 02 03 04 05 06 07  08 09 0A 0B 0C 0D 0E 0F
      -- -- -- -- -- -- -- --  -- -- -- -- -- -- -- --
0080:          32 18 80 1F 00  1B 80 1C 80 06 80 1F 01     2............
0090: 6F 5B 1D 80 04 C0 0E 01  04 C0 0E 01 75 74 75 30  o[..........utu0
00A0: 1C 1E 80 00                                       ....            
```

#### Opcodes

```
  0: 0x0083 [0x32] ExtData[1]->MainSpeed = 13* * 0.1
  1: 0x0086 [0x1F] MOVE_ENTITY: EventEntity moves to X=126.860*, Z=-11.505*, Y=8.499*
  2: 0x008E [0x1F] MOVE_ENTITY: Update entity position (mode=1)
  3: 0x0090 [0x6F] WAIT_FRAME_DELAY: Yield until WaitTime reaches zero
  4: 0x0091 [0x5B] LOAD_EXT_SCHEDULER: Load scheduler "utu0" with entities [Cornelia (ID: 17743876/0x010EC004), Cornelia (ID: 17743876/0x010EC004)], work=148*
  5: 0x00A0 [0x1C] WAIT(120* ticks)
  6: 0x00A3 [0x00] END_REQSTACK()
```

### Event 65535.5

#### Metadata

| Field        | Value    |
|--------------|----------|
| Entrypoint   | 0x00A4   |
| Data Size    | 19 bytes |
| Instructions | 5        |

```
      00 01 02 03 04 05 06 07  08 09 0A 0B 0C 0D 0E 0F
      -- -- -- -- -- -- -- --  -- -- -- -- -- -- -- --
00A0:             7B F8 FF FF  7F 32 08 80 1F 00 1F 80      {....2......
00B0: 20 80 21 80 1F 01 00                               .!....         
```

#### Opcodes

```
  0: 0x00A4 [0x7B] EventEntity stops talking
  1: 0x00A9 [0x32] ExtData[1]->MainSpeed = 40* * 0.1
  2: 0x00AC [0x1F] MOVE_ENTITY: EventEntity moves to X=121.533*, Z=-14.169*, Y=8.496*
  3: 0x00B4 [0x1F] MOVE_ENTITY: Update entity position (mode=1)
  4: 0x00B6 [0x00] END_REQSTACK()
```

### Event 65535.6

#### Metadata

| Field        | Value   |
|--------------|---------|
| Entrypoint   | 0x00B7  |
| Data Size    | 6 bytes |
| Instructions | 2       |

```
      00 01 02 03 04 05 06 07  08 09 0A 0B 0C 0D 0E 0F
      -- -- -- -- -- -- -- --  -- -- -- -- -- -- -- --
00B0:                      5E  69 64 6C 30 00                  ^idl0.   
```

#### Opcodes

```
  0: 0x00B7 [0x5E] EventEntity goes idle (kills current action) (animation: "idl0")
  1: 0x00BC [0x00] END_REQSTACK()
```

### Event 65535.7

#### Metadata

| Field        | Value    |
|--------------|----------|
| Entrypoint   | 0x00BD   |
| Data Size    | 40 bytes |
| Instructions | 8        |

```
      00 01 02 03 04 05 06 07  08 09 0A 0B 0C 0D 0E 0F
      -- -- -- -- -- -- -- --  -- -- -- -- -- -- -- --
00B0:                                         1E F0 FF               ...
00C0: FF 7F 1C 22 80 32 18 80  1F 00 23 80 24 80 0B 80  ...".2....#.$...
00D0: 1F 01 4A 08 C0 0E 01 04  C0 0E 01 4A F0 FF FF 7F  ..J........J....
00E0: 04 C0 0E 01 00                                    .....           
```

#### Opcodes

```
  0: 0x00BD [0x1E] EventEntity looks at LocalPlayer and starts talking
  1: 0x00C2 [0x1C] WAIT(60* ticks)
  2: 0x00C5 [0x32] ExtData[1]->MainSpeed = 13* * 0.1
  3: 0x00C8 [0x1F] MOVE_ENTITY: EventEntity moves to X=-100.302*, Z=30.585*, Y=4.649*
  4: 0x00D0 [0x1F] MOVE_ENTITY: Update entity position (mode=1)
  5: 0x00D2 [0x4A] Talib (ID: 17743880/0x010EC008) looks at Cornelia (ID: 17743876/0x010EC004)
  6: 0x00DB [0x4A] LocalPlayer looks at Cornelia (ID: 17743876/0x010EC004)
  7: 0x00E4 [0x00] END_REQSTACK()
```

### Event 231

#### Metadata

| Field        | Value    |
|--------------|----------|
| Entrypoint   | 0x00E5   |
| Data Size    | 10 bytes |
| Instructions | 2        |

```
      00 01 02 03 04 05 06 07  08 09 0A 0B 0C 0D 0E 0F
      -- -- -- -- -- -- -- --  -- -- -- -- -- -- -- --
00E0:                37 25 80  26 80 27 80 28 80 00          7%.&.'.(.. 
```

#### Opcodes

```
  0: 0x00E5 [0x37] UPDATE_EVENT_POSITION_AND_DIR: x=-151.650*, z=3.186*, y=-7.730*, direction=222.4°*
  1: 0x00EE [0x00] END_REQSTACK()
```

### Event 65535.8

#### Metadata

| Field        | Value    |
|--------------|----------|
| Entrypoint   | 0x00EF   |
| Data Size    | 34 bytes |
| Instructions | 8        |

```
      00 01 02 03 04 05 06 07  08 09 0A 0B 0C 0D 0E 0F
      -- -- -- -- -- -- -- --  -- -- -- -- -- -- -- --
00E0:                                               32                 2
00F0: 08 80 1F 00 29 80 2A 80  2B 80 1F 01 1F 00 2C 80  ....).*.+.....,.
0100: 2D 80 2E 80 1F 01 1F 00  2F 80 30 80 2E 80 1F 01  -......./.0.....
0110: 00                                                .               
```

#### Opcodes

```
  0: 0x00EF [0x32] ExtData[1]->MainSpeed = 40* * 0.1
  1: 0x00F2 [0x1F] MOVE_ENTITY: EventEntity moves to X=-154.534*, Z=6.087*, Y=-7.496*
  2: 0x00FA [0x1F] MOVE_ENTITY: Update entity position (mode=1)
  3: 0x00FC [0x1F] MOVE_ENTITY: EventEntity moves to X=-158.086*, Z=5.569*, Y=-7.480*
  4: 0x0104 [0x1F] MOVE_ENTITY: Update entity position (mode=1)
  5: 0x0106 [0x1F] MOVE_ENTITY: EventEntity moves to X=-158.998*, Z=4.663*, Y=-7.480*
  6: 0x010E [0x1F] MOVE_ENTITY: Update entity position (mode=1)
  7: 0x0110 [0x00] END_REQSTACK()
```

### Event 465

#### Metadata

| Field        | Value   |
|--------------|---------|
| Entrypoint   | 0x0111  |
| Data Size    | 7 bytes |
| Instructions | 2       |

```
      00 01 02 03 04 05 06 07  08 09 0A 0B 0C 0D 0E 0F
      -- -- -- -- -- -- -- --  -- -- -- -- -- -- -- --
0110:    92 01 F8 FF FF 7F 00                            .......        
```

#### Opcodes

```
  0: 0x0111 [0x92] EventEntity->Render.Flags3 ^= 0x01
  1: 0x0117 [0x00] END_REQSTACK()
```

### Event 65535.9

#### Metadata

| Field        | Value   |
|--------------|---------|
| Entrypoint   | 0x0118  |
| Data Size    | 2 bytes |
| Instructions | 2       |

```
      00 01 02 03 04 05 06 07  08 09 0A 0B 0C 0D 0E 0F
      -- -- -- -- -- -- -- --  -- -- -- -- -- -- -- --
0110:                          84 00                            ..      
```

#### Opcodes

```
  0: 0x0118 [0x84] ADJUST_RENDER_FLAGS3_BIT0()
  1: 0x0119 [0x00] END_REQSTACK()
```

### Event 65535.10

#### Metadata

| Field        | Value    |
|--------------|----------|
| Entrypoint   | 0x011A   |
| Data Size    | 14 bytes |
| Instructions | 4        |

```
      00 01 02 03 04 05 06 07  08 09 0A 0B 0C 0D 0E 0F
      -- -- -- -- -- -- -- --  -- -- -- -- -- -- -- --
0110:                                32 18 80 1F 00 31            2....1
0120: 80 32 80 33 80 1F 01 00                           .2.3....        
```

#### Opcodes

```
  0: 0x011A [0x32] ExtData[1]->MainSpeed = 13* * 0.1
  1: 0x011D [0x1F] MOVE_ENTITY: EventEntity moves to X=-149.140*, Z=-12.490*, Y=-6.000*
  2: 0x0125 [0x1F] MOVE_ENTITY: Update entity position (mode=1)
  3: 0x0127 [0x00] END_REQSTACK()
```
