# 17743880 - Talib

## Common Data

| Field            | Value                 |
|------------------|-----------------------|
| Zone             | Port Bastok (ID: 236) |
| Block Size       | 248 bytes             |
| Total Events     | 8                     |
| References Count | 13                    |

## List of Events

| Event ID                 | Entrypoint   |   Size |   Instructions |
|--------------------------|--------------|--------|----------------|
| [65535](#event-65535)    | 0x0000       |      1 |              1 |
| [2](#event-2)            | 0x0001       |      1 |              1 |
| [4](#event-4)            | 0x0002       |     34 |             10 |
| [3](#event-3)            | 0x0024       |     51 |             16 |
| [90](#event-90)          | 0x0057       |     16 |              6 |
| [91](#event-91)          | 0x0067       |     36 |              9 |
| [65535.1](#event-655351) | 0x008B       |      6 |              2 |
| [296](#event-296)        | 0x0091       |      1 |              1 |

## DAT References (imed_data)

|   Index | Hex Value   |   Dec Value |
|---------|-------------|-------------|
|       0 | 0x1CBE      |        7358 |
|       1 | 0x0000      |           0 |
|       2 | 0x1CBF      |        7359 |
|       3 | 0x1CC0      |        7360 |
|       4 | 0x0282      |         642 |
|       5 | 0x0002      |           2 |
|       6 | 0x1CC1      |        7361 |
|       7 | 0x1CC2      |        7362 |
|       8 | 0x1CC3      |        7363 |
|       9 | 0x1CC4      |        7364 |
|      10 | 0x1CAB      |        7339 |
|      11 | 0x1CAC      |        7340 |
|      12 | 0x00C9      |         201 |

## String References

- **7339**: Oh, you again. If you find any more of those $7--say, four more of them--bring them here. I'll give you a good price for them. Deal?
- **7340**: Good, you brought the $7 I asked for. Here's your money.
- **7358**: That feisty girl, Cornelia? I hear she hangs out in the Mines District, where all the Galka are. Why anyone would is beyond me.
- **7359**: Parraggoh lives there, by the way. When he got hurt and couldn't deliver the goods to us, she must've volunteered herself to help out. She's like that.
- **7360**: Parraggoh's place is the first house down through the big arch to the mining town. It's a rough neighborhood, but Cornelia won't stay out of there.
- **7361**: Hey, $7! I can't believe you'd do this for a guy like Parraggoh.
- **7362**: More people like you and Cornelia, and I'd be out of business...
- **7363**: Here, take these $3 to Parraggoh. They're the reward he asked for.
- **7364**: You know where he lives, right? It's the first house you see when you go down to the lower level of the Mines District.

## Events

### Event 65535

#### Metadata

| Field        | Value   |
|--------------|---------|
| Entrypoint   | 0x0000  |
| Data Size    | 1 bytes |
| Instructions | 1       |

```
      00 01 02 03 04 05 06 07  08 09 0A 0B 0C 0D 0E 0F
      -- -- -- -- -- -- -- --  -- -- -- -- -- -- -- --
0000: 00                                                .               
```

#### Opcodes

```
  0: 0x0000 [0x00] END_REQSTACK()
```

### Event 2

#### Metadata

| Field        | Value   |
|--------------|---------|
| Entrypoint   | 0x0001  |
| Data Size    | 1 bytes |
| Instructions | 1       |

```
      00 01 02 03 04 05 06 07  08 09 0A 0B 0C 0D 0E 0F
      -- -- -- -- -- -- -- --  -- -- -- -- -- -- -- --
0000:    00                                              .              
```

#### Opcodes

```
  0: 0x0001 [0x00] END_REQSTACK()
```

### Event 4

#### Metadata

| Field        | Value    |
|--------------|----------|
| Entrypoint   | 0x0002   |
| Data Size    | 34 bytes |
| Instructions | 10       |

```
      00 01 02 03 04 05 06 07  08 09 0A 0B 0C 0D 0E 0F
      -- -- -- -- -- -- -- --  -- -- -- -- -- -- -- --
0000:       1E F0 FF FF 7F 1D  00 80 23 66 01 80 F8 FF    ........#f....
0010: FF 7F F8 FF FF 7F 74 6C  6B 30 1D 02 80 23 1D 03  ......tlk0...#..
0020: 80 23 21 00                                       .#!.            
```

#### Opcodes

```
  0: 0x0002 [0x1E] EventEntity looks at LocalPlayer and starts talking
  1: 0x0007 [0x1D] PRINT_EVENT_MESSAGE(message_id=7358*)
    → "That feisty girl, Cornelia? I hear she hangs out in the Mines District, where all the Galka are. Why anyone would is beyond me."
  2: 0x000A [0x23] WAIT_FOR_DIALOG_INTERACTION
  3: 0x000B [0x66] LOAD_EXT_SCHEDULER_MAIN: Load scheduler "tlk0" with entities [EventEntity, EventEntity], work=0*
  4: 0x001A [0x1D] PRINT_EVENT_MESSAGE(message_id=7359*)
    → "Parraggoh lives there, by the way. When he got hurt and couldn't deliver the goods to us, she must've volunteered herself to help out. She's like that."
  5: 0x001D [0x23] WAIT_FOR_DIALOG_INTERACTION
  6: 0x001E [0x1D] PRINT_EVENT_MESSAGE(message_id=7360*)
    → "Parraggoh's place is the first house down through the big arch to the mining town. It's a rough neighborhood, but Cornelia won't stay out of there."
  7: 0x0021 [0x23] WAIT_FOR_DIALOG_INTERACTION
  8: 0x0022 [0x21] END_EVENT
  9: 0x0023 [0x00] END_REQSTACK()
```

### Event 3

#### Metadata

| Field        | Value    |
|--------------|----------|
| Entrypoint   | 0x0024   |
| Data Size    | 51 bytes |
| Instructions | 16       |

```
      00 01 02 03 04 05 06 07  08 09 0A 0B 0C 0D 0E 0F
      -- -- -- -- -- -- -- --  -- -- -- -- -- -- -- --
0020:             42 20 01 1E  F0 FF FF 7F 03 09 10 04      B ..........
0030: 80 03 08 10 05 80 1D 06  80 23 1D 07 80 23 66 01  .........#...#f.
0040: 80 F8 FF FF 7F F8 FF FF  7F 70 61 73 30 1D 08 80  .........pas0...
0050: 23 1D 09 80 23 21 00                              #...#!.         
```

#### Opcodes

```
  0: 0x0024 [0x42] SET_CLI_EVENT_CANCEL_DATA()
  1: 0x0025 [0x20] SET_CLI_EVENT_UC_FLAG: Lock player control
  2: 0x0027 [0x1E] EventEntity looks at LocalPlayer and starts talking
  3: 0x002C [0x03] Work_Zone[9] = 642*
  4: 0x0031 [0x03] Work_Zone[8] = 2*
  5: 0x0036 [0x1D] PRINT_EVENT_MESSAGE(message_id=7361*)
    → "Hey, $7! I can't believe you'd do this for a guy like Parraggoh."
  6: 0x0039 [0x23] WAIT_FOR_DIALOG_INTERACTION
  7: 0x003A [0x1D] PRINT_EVENT_MESSAGE(message_id=7362*)
    → "More people like you and Cornelia, and I'd be out of business..."
  8: 0x003D [0x23] WAIT_FOR_DIALOG_INTERACTION
  9: 0x003E [0x66] LOAD_EXT_SCHEDULER_MAIN: Load scheduler "pas0" with entities [EventEntity, EventEntity], work=0*
 10: 0x004D [0x1D] PRINT_EVENT_MESSAGE(message_id=7363*)
    → "Here, take these $3 to Parraggoh. They're the reward he asked for."
 11: 0x0050 [0x23] WAIT_FOR_DIALOG_INTERACTION
 12: 0x0051 [0x1D] PRINT_EVENT_MESSAGE(message_id=7364*)
    → "You know where he lives, right? It's the first house you see when you go down to the lower level of the Mines District."
 13: 0x0054 [0x23] WAIT_FOR_DIALOG_INTERACTION
 14: 0x0055 [0x21] END_EVENT
 15: 0x0056 [0x00] END_REQSTACK()
```

### Event 90

#### Metadata

| Field        | Value    |
|--------------|----------|
| Entrypoint   | 0x0057   |
| Data Size    | 16 bytes |
| Instructions | 6        |

```
      00 01 02 03 04 05 06 07  08 09 0A 0B 0C 0D 0E 0F
      -- -- -- -- -- -- -- --  -- -- -- -- -- -- -- --
0050:                      1E  F0 FF FF 7F 03 09 10 04         .........
0060: 80 1D 0A 80 23 21 00                              ....#!.         
```

#### Opcodes

```
  0: 0x0057 [0x1E] EventEntity looks at LocalPlayer and starts talking
  1: 0x005C [0x03] Work_Zone[9] = 642*
  2: 0x0061 [0x1D] PRINT_EVENT_MESSAGE(message_id=7339*)
    → "Oh, you again. If you find any more of those $7--say, four more of them--bring them here. I'll give you a good price for them. Deal?"
  3: 0x0064 [0x23] WAIT_FOR_DIALOG_INTERACTION
  4: 0x0065 [0x21] END_EVENT
  5: 0x0066 [0x00] END_REQSTACK()
```

### Event 91

#### Metadata

| Field        | Value    |
|--------------|----------|
| Entrypoint   | 0x0067   |
| Data Size    | 36 bytes |
| Instructions | 9        |

```
      00 01 02 03 04 05 06 07  08 09 0A 0B 0C 0D 0E 0F
      -- -- -- -- -- -- -- --  -- -- -- -- -- -- -- --
0060:                      42  20 01 1E F0 FF FF 7F 03         B .......
0070: 09 10 04 80 1D 0B 80 23  45 0C 80 F0 FF FF 7F F0  .......#E.......
0080: FF FF 7F 71 73 74 63 01  80 21 00                 ...qstc..!.     
```

#### Opcodes

```
  0: 0x0067 [0x42] SET_CLI_EVENT_CANCEL_DATA()
  1: 0x0068 [0x20] SET_CLI_EVENT_UC_FLAG: Lock player control
  2: 0x006A [0x1E] EventEntity looks at LocalPlayer and starts talking
  3: 0x006F [0x03] Work_Zone[9] = 642*
  4: 0x0074 [0x1D] PRINT_EVENT_MESSAGE(message_id=7340*)
    → "Good, you brought the $7 I asked for. Here's your money."
  5: 0x0077 [0x23] WAIT_FOR_DIALOG_INTERACTION
  6: 0x0078 [0x45] LOAD_SCHEDULED_TASK: Load scheduler "qstc" with entities [LocalPlayer, LocalPlayer], work=[201*, 0*]
  7: 0x0089 [0x21] END_EVENT
  8: 0x008A [0x00] END_REQSTACK()
```

### Event 65535.1

#### Metadata

| Field        | Value   |
|--------------|---------|
| Entrypoint   | 0x008B  |
| Data Size    | 6 bytes |
| Instructions | 2       |

```
      00 01 02 03 04 05 06 07  08 09 0A 0B 0C 0D 0E 0F
      -- -- -- -- -- -- -- --  -- -- -- -- -- -- -- --
0080:                                   5E 69 64 6C 30             ^idl0
0090: 00                                                .               
```

#### Opcodes

```
  0: 0x008B [0x5E] EventEntity goes idle (kills current action) (animation: "idl0")
  1: 0x0090 [0x00] END_REQSTACK()
```

### Event 296

#### Metadata

| Field        | Value   |
|--------------|---------|
| Entrypoint   | 0x0091  |
| Data Size    | 1 bytes |
| Instructions | 1       |

```
      00 01 02 03 04 05 06 07  08 09 0A 0B 0C 0D 0E 0F
      -- -- -- -- -- -- -- --  -- -- -- -- -- -- -- --
0090:    00                                              .              
```

#### Opcodes

```
  0: 0x0091 [0x00] END_REQSTACK()
```
