# 17744029 - Prishe

## Common Data

| Field            | Value                 |
|------------------|-----------------------|
| Zone             | Port Bastok (ID: 236) |
| Block Size       | 348 bytes             |
| Total Events     | 8                     |
| References Count | 37                    |

## List of Events

| Event ID                 | Entrypoint   |   Size |   Instructions |
|--------------------------|--------------|--------|----------------|
| [65535](#event-65535)    | 0x0000       |      7 |              2 |
| [305](#event-305)        | 0x0007       |     10 |              2 |
| [65535.1](#event-655351) | 0x0011       |     14 |              4 |
| [65535.2](#event-655352) | 0x001F       |     43 |              9 |
| [306](#event-306)        | 0x004A       |     10 |              2 |
| [65535.3](#event-655353) | 0x0054       |     18 |              6 |
| [65535.4](#event-655354) | 0x0066       |     24 |              6 |
| [65535.5](#event-655355) | 0x007E       |     24 |              6 |

## DAT References (imed_data)

|   Index | Hex Value   |   Dec Value |
|---------|-------------|-------------|
|       0 | 0xFFFE658F  |  4294862223 |
|       1 | 0xFFFFE538  |  4294960440 |
|       2 | 0xFFFFF7CB  |  4294965195 |
|       3 | 0x006D      |         109 |
|       4 | 0x0012      |          18 |
|       5 | 0xFFFE6018  |  4294860824 |
|       6 | 0xFFFFE297  |  4294959767 |
|       7 | 0x0036      |          54 |
|       8 | 0xFFFE5B05  |  4294859525 |
|       9 | 0xFFFFBCC1  |  4294950081 |
|      10 | 0x062D      |        1581 |
|      11 | 0xFFFE47C7  |  4294854599 |
|      12 | 0xFFFFAF8B  |  4294946699 |
|      13 | 0xFFFFFC18  |  4294966296 |
|      14 | 0xFFFE1291  |  4294840977 |
|      15 | 0xFFFF8A84  |  4294937220 |
|      16 | 0xFFFD88A1  |  4294805665 |
|      17 | 0xFFFF49AA  |  4294920618 |
|      18 | 0xFFFEC528  |  4294886696 |
|      19 | 0xFFFF995B  |  4294941019 |
|      20 | 0x074C      |        1868 |
|      21 | 0x0B80      |        2944 |
|      22 | 0x00F0      |         240 |
|      23 | 0xFFFEC3DD  |  4294886365 |
|      24 | 0xFFFFE496  |  4294960278 |
|      25 | 0x0773      |        1907 |
|      26 | 0xFFFEC5A1  |  4294886817 |
|      27 | 0x0925      |        2341 |
|      28 | 0xFFFFF5CD  |  4294964685 |
|      29 | 0x0C35      |        3125 |
|      30 | 0xFFFEC52B  |  4294886699 |
|      31 | 0x19A7      |        6567 |
|      32 | 0xFFFFF5C9  |  4294964681 |
|      33 | 0xFFFEB56B  |  4294882667 |
|      34 | 0x2685      |        9861 |
|      35 | 0xFFFE5A4F  |  4294859343 |
|      36 | 0x0CF0      |        3312 |

## Events

### Event 65535

#### Metadata

| Field        | Value   |
|--------------|---------|
| Entrypoint   | 0x0000  |
| Data Size    | 7 bytes |
| Instructions | 2       |

```
      00 01 02 03 04 05 06 07  08 09 0A 0B 0C 0D 0E 0F
      -- -- -- -- -- -- -- --  -- -- -- -- -- -- -- --
0000: 92 01 F8 FF FF 7F 00                              .......         
```

#### Opcodes

```
  0: 0x0000 [0x92] EventEntity->Render.Flags3 ^= 0x01
  1: 0x0006 [0x00] END_REQSTACK()
```

### Event 305

#### Metadata

| Field        | Value    |
|--------------|----------|
| Entrypoint   | 0x0007   |
| Data Size    | 10 bytes |
| Instructions | 2        |

```
      00 01 02 03 04 05 06 07  08 09 0A 0B 0C 0D 0E 0F
      -- -- -- -- -- -- -- --  -- -- -- -- -- -- -- --
0000:                      37  00 80 01 80 02 80 03 80         7........
0010: 00                                                .               
```

#### Opcodes

```
  0: 0x0007 [0x37] UPDATE_EVENT_POSITION_AND_DIR: x=-105.073*, z=-6.856*, y=-2.101*, direction=9.6째*
  1: 0x0010 [0x00] END_REQSTACK()
```

### Event 65535.1

#### Metadata

| Field        | Value    |
|--------------|----------|
| Entrypoint   | 0x0011   |
| Data Size    | 14 bytes |
| Instructions | 4        |

```
      00 01 02 03 04 05 06 07  08 09 0A 0B 0C 0D 0E 0F
      -- -- -- -- -- -- -- --  -- -- -- -- -- -- -- --
0010:    32 04 80 1F 00 05 80  06 80 02 80 1F 01 00      2............. 
```

#### Opcodes

```
  0: 0x0011 [0x32] ExtData[1]->MainSpeed = 18* * 0.1
  1: 0x0014 [0x1F] MOVE_ENTITY: EventEntity moves to X=-106.472*, Z=-7.529*, Y=-2.101*
  2: 0x001C [0x1F] MOVE_ENTITY: Update entity position (mode=1)
  3: 0x001E [0x00] END_REQSTACK()
```

### Event 65535.2

#### Metadata

| Field        | Value    |
|--------------|----------|
| Entrypoint   | 0x001F   |
| Data Size    | 43 bytes |
| Instructions | 9        |

```
      00 01 02 03 04 05 06 07  08 09 0A 0B 0C 0D 0E 0F
      -- -- -- -- -- -- -- --  -- -- -- -- -- -- -- --
0010:                                               32                 2
0020: 07 80 37 08 80 09 80 02  80 0A 80 1F 00 0B 80 0C  ..7.............
0030: 80 0D 80 1F 01 1F 00 0E  80 0F 80 0D 80 1F 01 1F  ................
0040: 00 10 80 11 80 0D 80 1F  01 00                    ..........      
```

#### Opcodes

```
  0: 0x001F [0x32] ExtData[1]->MainSpeed = 54* * 0.1
  1: 0x0022 [0x37] UPDATE_EVENT_POSITION_AND_DIR: x=-107.771*, z=-17.215*, y=-2.101*, direction=139.0째*
  2: 0x002B [0x1F] MOVE_ENTITY: EventEntity moves to X=-112.697*, Z=-20.597*, Y=-1.000*
  3: 0x0033 [0x1F] MOVE_ENTITY: Update entity position (mode=1)
  4: 0x0035 [0x1F] MOVE_ENTITY: EventEntity moves to X=-126.319*, Z=-30.076*, Y=-1.000*
  5: 0x003D [0x1F] MOVE_ENTITY: Update entity position (mode=1)
  6: 0x003F [0x1F] MOVE_ENTITY: EventEntity moves to X=-161.631*, Z=-46.678*, Y=-1.000*
  7: 0x0047 [0x1F] MOVE_ENTITY: Update entity position (mode=1)
  8: 0x0049 [0x00] END_REQSTACK()
```

### Event 306

#### Metadata

| Field        | Value    |
|--------------|----------|
| Entrypoint   | 0x004A   |
| Data Size    | 10 bytes |
| Instructions | 2        |

```
      00 01 02 03 04 05 06 07  08 09 0A 0B 0C 0D 0E 0F
      -- -- -- -- -- -- -- --  -- -- -- -- -- -- -- --
0040:                                37 12 80 13 80 14            7.....
0050: 80 15 80 00                                       ....            
```

#### Opcodes

```
  0: 0x004A [0x37] UPDATE_EVENT_POSITION_AND_DIR: x=-80.600*, z=-26.277*, y=1.868*, direction=258.7째*
  1: 0x0053 [0x00] END_REQSTACK()
```

### Event 65535.3

#### Metadata

| Field        | Value    |
|--------------|----------|
| Entrypoint   | 0x0054   |
| Data Size    | 18 bytes |
| Instructions | 6        |

```
      00 01 02 03 04 05 06 07  08 09 0A 0B 0C 0D 0E 0F
      -- -- -- -- -- -- -- --  -- -- -- -- -- -- -- --
0050:             1C 16 80 32  04 80 1F 00 17 80 18 80      ...2........
0060: 19 80 1F 01 6F 00                                 ....o.          
```

#### Opcodes

```
  0: 0x0054 [0x1C] WAIT(240* ticks)
  1: 0x0057 [0x32] ExtData[1]->MainSpeed = 18* * 0.1
  2: 0x005A [0x1F] MOVE_ENTITY: EventEntity moves to X=-80.931*, Z=-7.018*, Y=1.907*
  3: 0x0062 [0x1F] MOVE_ENTITY: Update entity position (mode=1)
  4: 0x0064 [0x6F] WAIT_FRAME_DELAY: Yield until WaitTime reaches zero
  5: 0x0065 [0x00] END_REQSTACK()
```

### Event 65535.4

#### Metadata

| Field        | Value    |
|--------------|----------|
| Entrypoint   | 0x0066   |
| Data Size    | 24 bytes |
| Instructions | 6        |

```
      00 01 02 03 04 05 06 07  08 09 0A 0B 0C 0D 0E 0F
      -- -- -- -- -- -- -- --  -- -- -- -- -- -- -- --
0060:                   32 04  80 37 1A 80 1B 80 1C 80        2..7......
0070: 1D 80 1F 00 1E 80 1F 80  20 80 1F 01 6F 00        ........ ...o.  
```

#### Opcodes

```
  0: 0x0066 [0x32] ExtData[1]->MainSpeed = 18* * 0.1
  1: 0x0069 [0x37] UPDATE_EVENT_POSITION_AND_DIR: x=-80.479*, z=2.341*, y=-2.611*, direction=274.7째*
  2: 0x0072 [0x1F] MOVE_ENTITY: EventEntity moves to X=-80.597*, Z=6.567*, Y=-2.615*
  3: 0x007A [0x1F] MOVE_ENTITY: Update entity position (mode=1)
  4: 0x007C [0x6F] WAIT_FRAME_DELAY: Yield until WaitTime reaches zero
  5: 0x007D [0x00] END_REQSTACK()
```

### Event 65535.5

#### Metadata

| Field        | Value    |
|--------------|----------|
| Entrypoint   | 0x007E   |
| Data Size    | 24 bytes |
| Instructions | 6        |

```
      00 01 02 03 04 05 06 07  08 09 0A 0B 0C 0D 0E 0F
      -- -- -- -- -- -- -- --  -- -- -- -- -- -- -- --
0070:                                            32 04                2.
0080: 80 1F 00 21 80 22 80 02  80 1F 01 1F 00 23 80 24  ...!.".......#.$
0090: 80 02 80 1F 01 00                                 ......          
```

#### Opcodes

```
  0: 0x007E [0x32] ExtData[1]->MainSpeed = 18* * 0.1
  1: 0x0081 [0x1F] MOVE_ENTITY: EventEntity moves to X=-84.629*, Z=9.861*, Y=-2.101*
  2: 0x0089 [0x1F] MOVE_ENTITY: Update entity position (mode=1)
  3: 0x008B [0x1F] MOVE_ENTITY: EventEntity moves to X=-107.953*, Z=3.312*, Y=-2.101*
  4: 0x0093 [0x1F] MOVE_ENTITY: Update entity position (mode=1)
  5: 0x0095 [0x00] END_REQSTACK()
```
