# 17744188 - Clarion Star

## Common Data

| Field            | Value                 |
|------------------|-----------------------|
| Zone             | Port Bastok (ID: 236) |
| Block Size       | 5260 bytes            |
| Total Events     | 32                    |
| References Count | 147                   |

## List of Events

| Event ID                   | Entrypoint   |   Size |   Instructions |
|----------------------------|--------------|--------|----------------|
| [65535](#event-65535)      | 0x0000       |      1 |              1 |
| [65535.1](#event-655351)   | 0x0001       |     16 |              2 |
| [65535.2](#event-655352)   | 0x0011       |     14 |              2 |
| [65535.3](#event-655353)   | 0x001F       |     16 |              2 |
| [65535.4](#event-655354)   | 0x002F       |     14 |              2 |
| [65535.5](#event-655355)   | 0x003D       |     16 |              2 |
| [65535.6](#event-655356)   | 0x004D       |     14 |              2 |
| [65535.7](#event-655357)   | 0x005B       |     16 |              2 |
| [65535.8](#event-655358)   | 0x006B       |     14 |              2 |
| [65535.9](#event-655359)   | 0x0079       |     16 |              2 |
| [65535.10](#event-6553510) | 0x0089       |     14 |              2 |
| [65535.11](#event-6553511) | 0x0097       |     16 |              4 |
| [65535.12](#event-6553512) | 0x00A7       |     16 |              4 |
| [65535.13](#event-6553513) | 0x00B7       |     16 |              4 |
| [65535.14](#event-6553514) | 0x00C7       |     16 |              4 |
| [65535.15](#event-6553515) | 0x00D7       |     16 |              4 |
| [65535.16](#event-6553516) | 0x00E7       |     16 |              4 |
| [65535.17](#event-6553517) | 0x00F7       |     16 |              4 |
| [65535.18](#event-6553518) | 0x0107       |     16 |              4 |
| [65535.19](#event-6553519) | 0x0117       |     16 |              4 |
| [65535.20](#event-6553520) | 0x0127       |     16 |              4 |
| [65535.21](#event-6553521) | 0x0137       |      9 |              3 |
| [442](#event-442)          | 0x0140       |     29 |             10 |
| [434](#event-434)          | 0x015D       |    402 |            101 |
| [435](#event-435)          | 0x02EF       |     51 |             16 |
| [436](#event-436)          | 0x0322       |    882 |            192 |
| [437](#event-437)          | 0x0694       |    357 |             73 |
| [457](#event-457)          | 0x07F9       |     47 |             15 |
| [458](#event-458)          | 0x0828       |    267 |             42 |
| [464](#event-464)          | 0x0933       |    212 |             41 |
| [438](#event-438)          | 0x0A07       |    207 |             55 |
| [443](#event-443)          | 0x0AD6       |   1751 |            208 |

## DAT References (imed_data)

|   Index | Hex Value   |   Dec Value |
|---------|-------------|-------------|
|       0 | 0x0045      |          69 |
|       1 | 0x0083      |         131 |
|       2 | 0x0015      |          21 |
|       3 | 0x003C      |          60 |
|       4 | 0x0007      |           7 |
|       5 | 0x0006      |           6 |
|       6 | 0x000B      |          11 |
|       7 | 0x000E      |          14 |
|       8 | 0x0004      |           4 |
|       9 | 0x0013      |          19 |
|      10 | 0x000C      |          12 |
|      11 | 0x001D      |          29 |
|      12 | 0x347A      |       13434 |
|      13 | 0x0001      |           1 |
|      14 | 0x3479      |       13433 |
|      15 | 0x347B      |       13435 |
|      16 | 0x347C      |       13436 |
|      17 | 0x347D      |       13437 |
|      18 | 0x347E      |       13438 |
|      19 | 0x347F      |       13439 |
|      20 | 0x3480      |       13440 |
|      21 | 0x3481      |       13441 |
|      22 | 0x0000      |           0 |
|      23 | 0x3483      |       13443 |
|      24 | 0x3484      |       13444 |
|      25 | 0x3485      |       13445 |
|      26 | 0x3486      |       13446 |
|      27 | 0x3487      |       13447 |
|      28 | 0x3488      |       13448 |
|      29 | 0x3489      |       13449 |
|      30 | 0x348A      |       13450 |
|      31 | 0x348B      |       13451 |
|      32 | 0x348D      |       13453 |
|      33 | 0x348E      |       13454 |
|      34 | 0x348F      |       13455 |
|      35 | 0x3490      |       13456 |
|      36 | 0x3491      |       13457 |
|      37 | 0x0002      |           2 |
|      38 | 0x348C      |       13452 |
|      39 | 0x3482      |       13442 |
|      40 | 0x3492      |       13458 |
|      41 | 0x3493      |       13459 |
|      42 | 0x3494      |       13460 |
|      43 | 0x3495      |       13461 |
|      44 | 0x3496      |       13462 |
|      45 | 0x3497      |       13463 |
|      46 | 0x3498      |       13464 |
|      47 | 0x3499      |       13465 |
|      48 | 0x349A      |       13466 |
|      49 | 0x349B      |       13467 |
|      50 | 0x349C      |       13468 |
|      51 | 0x349D      |       13469 |
|      52 | 0x349E      |       13470 |
|      53 | 0x349F      |       13471 |
|      54 | 0x34A0      |       13472 |
|      55 | 0x34A1      |       13473 |
|      56 | 0x34A2      |       13474 |
|      57 | 0x34A3      |       13475 |
|      58 | 0x0003      |           3 |
|      59 | 0x0064      |         100 |
|      60 | 0x34A6      |       13478 |
|      61 | 0x34A4      |       13476 |
|      62 | 0x0009      |           9 |
|      63 | 0x0005      |           5 |
|      64 | 0x0008      |           8 |
|      65 | 0x000A      |          10 |
|      66 | 0x000D      |          13 |
|      67 | 0x000F      |          15 |
|      68 | 0x0010      |          16 |
|      69 | 0x0011      |          17 |
|      70 | 0x0012      |          18 |
|      71 | 0x0014      |          20 |
|      72 | 0x34A5      |       13477 |
|      73 | 0x34A7      |       13479 |
|      74 | 0x34A8      |       13480 |
|      75 | 0x34A9      |       13481 |
|      76 | 0x34AA      |       13482 |
|      77 | 0x34B6      |       13494 |
|      78 | 0x34AB      |       13483 |
|      79 | 0x34AC      |       13484 |
|      80 | 0x34AD      |       13485 |
|      81 | 0x34AE      |       13486 |
|      82 | 0x34AF      |       13487 |
|      83 | 0x34B7      |       13495 |
|      84 | 0x00C8      |         200 |
|      85 | 0x00AE      |         174 |
|      86 | 0x00B0      |         176 |
|      87 | 0x012C      |         300 |
|      88 | 0x34B8      |       13496 |
|      89 | 0x34B9      |       13497 |
|      90 | 0x00C9      |         201 |
|      91 | 0x34B0      |       13488 |
|      92 | 0x34B1      |       13489 |
|      93 | 0x34B2      |       13490 |
|      94 | 0x34B3      |       13491 |
|      95 | 0x145EB     |       83435 |
|      96 | 0xFFFF96EE  |  4294940398 |
|      97 | 0x1D4B      |        7499 |
|      98 | 0x0A6B      |        2667 |
|      99 | 0x0065      |         101 |
|     100 | 0x001E      |          30 |
|     101 | 0x34B4      |       13492 |
|     102 | 0x34B5      |       13493 |
|     103 | 0x0078      |         120 |
|     104 | 0x34BC      |       13500 |
|     105 | 0x34BD      |       13501 |
|     106 | 0x34BE      |       13502 |
|     107 | 0x34BF      |       13503 |
|     108 | 0x34C0      |       13504 |
|     109 | 0x34C1      |       13505 |
|     110 | 0x34C2      |       13506 |
|     111 | 0x34BA      |       13498 |
|     112 | 0x34BB      |       13499 |
|     113 | 0x06C3      |        1731 |
|     114 | 0x2396D     |      145773 |
|     115 | 0xFFFCCBB0  |  4294757296 |
|     116 | 0x086E      |        2158 |
|     117 | 0xFFFFF52C  |  4294964524 |
|     118 | 0x23A64     |      146020 |
|     119 | 0xFFFCCF98  |  4294758296 |
|     120 | 0x006D      |         109 |
|     121 | 0x0DAC      |        3500 |
|     122 | 0x24205     |      147973 |
|     123 | 0xFFFCC9BC  |  4294756796 |
|     124 | 0x077A      |        1914 |
|     125 | 0x15B8      |        5560 |
|     126 | 0x240FF     |      147711 |
|     127 | 0x06C7      |        1735 |
|     128 | 0x13A5      |        5029 |
|     129 | 0x2456B     |      148843 |
|     130 | 0x0DAE      |        3502 |
|     131 | 0x22D3A     |      142650 |
|     132 | 0x0992      |        2450 |
|     133 | 0x0C76      |        3190 |
|     134 | 0x2323C     |      143932 |
|     135 | 0x093B      |        2363 |
|     136 | 0x00A1      |         161 |
|     137 | 0x00E8      |         232 |
|     138 | 0x27CE      |       10190 |
|     139 | 0x27CD      |       10189 |
|     140 | 0x27D0      |       10192 |
|     141 | 0x27CC      |       10188 |
|     142 | 0x27CF      |       10191 |
|     143 | 0x0FE2      |        4066 |
|     144 | 0x23C29     |      146473 |
|     145 | 0x0018      |          24 |
|     146 | 0x007F      |         127 |

## String References

- **13433**: Hey! You there! I've got a proposition of sorts for [a fresh-faced/an able-bodied/a world-class] adventurer such as yourself!
- **13434**: You can call me Clarion Star. I've come from Jeuno, the lovely city in the northeast that connects the Quon and Mindartia continents.
- **13435**: Specifically, I'm a representative of sorts from the Jeuno Institute of Magical Studies. You could call me a headhunter!
- **13436**: Bwahaha! And the heads I am hunting today are those of bright-eyed explorers like yourself!
- **13437**: So here's the deal. Not too long ago, the institute held an international symposium of sorts, at which we announced the development of a fascinatingly useful new type of magic.
- **13438**: We made it available for everyone to utilize, and so we are trying it out here in Bastok and other places throughout Vana'diel.
- **13439**: We've chosen to call the new magic "Trust," and as an official delegate of the institute, I want adventurers of your caliber to be the lucky first participants.
- **13440**: So? What about it? Want to try it out?
- **13441**: Try out the new magic? [What have I got to lose?/Magic scares me.]
- **13442**: An adventurer of sorts scared of magic? Pffft. Your loss, bud.
- **13443**: That's the kind of spunk I like!
- **13444**: You're surely aware that Bastok is no stranger to developing new technologies, and as such Cid and the Mythril Musketeers are conducting research of sorts into the application of this new magic.
- **13445**: You know how they are--always at odds with the Beastman Confederate. They think that Trust might be able to help "bolster their forces," they say.
- **13446**: However! Not just anyone can use Trust.
- **13447**: As you can imagine, the institute is thus collecting data of sorts in San d'Oria and Windurst, too, trying to get as many people as possible to participate.
- **13448**: It should come as no surprise, then, that we have other representatives in those two nations. If you'd rather head over there, then we've got nothing more to discuss...
- **13449**: But I'm sure the Mythril Musketeers here would appreciate any help you could give 'em.
- **13450**: Let's cut to the quick. Helping them earns you the aid of a powerful warrior of sorts, which can only help you in your travels.
- **13451**: Assist in Trust endeavors in Bastok? [Of course./No, thank you.]
- **13452**: If you're dead set on going elsewhere, I can't stop you...but I'm right here, and surely you'd rather not take a long journey.
- **13453**: Bwahaha! Perfect response!
- **13454**: [If that's the case,/Okay! So] let's get right to it. Before we go any further, let me give you this.
- **13455**: Your first task of sorts is to speak with Naji of the Mythril Musketeers, in the Metalworks. He can guide you further.
- **13456**: Do you know where it is? Just head up the staircase behind me and cross the bridge to the west. Someone in the markets just past there can guide you further.
- **13457**: Take the lift up to the second floor, where you'll find him waiting by the staircase that leads to the president's office. No one across the land is as faithful or skilled a guard as he.
- **13458**: How are you finding those alter egos? Need an explanation of sorts as to how they work?
- **13459**: Inquire about what? [What Trust is./What happens when one uses Trust./How to learn new Trust spells./Whereabouts of Trust participants./Nothing at the moment.]
- **13460**: Trust is a new category of magic developed and announced by the Jeuno Institute for Magical Studies.
- **13461**: Though it is a magic of sorts, unlike ordinary spells it does not require mana. Instead, it draws on the power of trust, friendship, and [brotherly/sisterly] love.
- **13462**: Friendship, of course, crosses all boundaries, so Trust magic can be used regardless of your job.
- **13463**: But for the love of all that is holy, don't go around bonding with alter egos in cities. It'll confuse everyone.
- **13464**: Using Trust magic calls forth an alter ego of someone you have formed a strong personal bond with.
- **13465**: They say friendships work best as a relationship between equals. Thus, the alter ego is only as strong as the person who willed it into existence.
- **13466**: The alter ego will gladly fight by your side, but you will be unable to issue it direct orders.
- **13467**: Research of sorts is ongoing, but it might take a while for any concrete progress to be made.
- **13468**: When you wish to release an alter ego from service, you only need speak to it.
- **13469**: It goes without saying that if an alter ego falls in battle, it will vanish into thin air. But don't fret--you can summon it again once a certain period of time has passed.
- **13470**: Trust magic is quite aptly named. It calls forth an alter ego of sorts using the power of trust, friendship, and [brotherly/sisterly] love.
- **13471**: To employ its powers, you must first find and befriend one who is allowed to harness them.
- **13472**: If they do not listen to your request, then perhaps they don't think highly enough of you. Get the town talking about your deeds and I'm sure they'll give you another chance. If they still won't listen--well, you just come back to me.
- **13473**: Of course, they still might not want to be friends. Maybe you're like me and doomed to be forever alone! Bwahaha! <Sob>
- **13474**: Oh ho[/, I almost forgot]! There is another way to utilize this magic. There are ongoing investigations of sorts into how to call forth an alter ego without directly meeting the person.
- **13475**: It takes a little something special, but if you find a scroll with this exceptional ability, all you need do is give it to me.
- **13476**: Hang on just a tick. Let's take a look...
- **13477**: [Excenmille/Naji/Kupipi/Curilla/Ayame/Nanaa Mihgo/Trion/Volker/Ajido-Marujido/Iron Eater/Prishe/Ulmia/Shikaree Z/Cherukiki/Gadalar/Zazarg/Nashmeira/Gessho/Ingrid/Maat/Arciela/Chacharoon] can be found in [San d'Oria/Bastok/Windurst/Jeuno/Tavnazia/Aht Urhgan/Adoulin/the Mog Gardens].
- **13478**: Wish I had new information of sorts to share with you, but I don't!
- **13479**: I can't believe that you got your hands on $3! Amazing!
- **13480**: I can't believe such a celebrity would want to participate!
- **13481**: This is all thanks to people like you who have succeeded in calling forth alter egos.
- **13482**: Just let me analyze this data for a...what do you mean, "hurry up"?
- **13483**: The Trust initiative has seen some outstanding breakthroughs in recent days thanks to the tireless dedication of those like yourself.
- **13484**: Your bonds with that person far exceed anything we have ever seen!
- **13485**: I could espouse for hours about how lucky...what do you mean, "hurry up"?
- **13486**: Who on Vana'diel is this person? I've never heard of... Ugh. And to think I call myself a fine representative of the institute.
- **13487**: Hmmmmmm? Okay, okay, I'll make it snappy!
- **13488**: A curious case, this one...
- **13489**: Some ethereal force is preventing the cipher from displaying its true potential.
- **13490**: You cannot read this cipher due to an event occurring in Rhapsodies of Vana'diel.
- **13491**: This cipher appears to be the real deal, but damned if I know who it'll actually call forth. Let's give it a try!
- **13492**: ...An apparition, you say?
- **13493**: Ah, the fresh face of youth as they acquire a new alter ego. Never shall I tire of it.
- **13494**: I'll let you in on something--the Trust initiative is being spread beyond the five races...with some very interesting results.
- **13495**: Close your eyes and go to your happy place, where trust and friendship and [brotherly/sisterly] love blossom like flax flowers in a meadow.
- **13496**: What an amazing success of sorts!
- **13497**: So many of our trials ended in failure. I kept hoping it might work...but this--this is beyond my wildest dreams!
- **13498**: H-how did you know that it's called "Trust"!? Were you at the symposium?
- **13499**: Ohhh, I see. You got a lesson of sorts in one of the other nations. This makes it simple. How's about undertaking Trust experiments here in Bastok?
- **13500**: Impressive! It's no small feat to acquire $3!
- **13501**: Doctor Monberaux is a powerful person of sorts in Jeuno. Having an alter ego of him will make your journey that much easier.
- **13502**: The good doctor was a bit surprised to be paid a visit by the Jeuno Institute of Magical Studies. I think he expected a high-ranking friend of his to be chosen first.
- **13503**: You see, his friend Wolf... No, I don't suppose it's our place to talk about that.
- **13504**: Close your eyes while picturing Doctor Monberaux and go to your happy place, where trust and friendship and [brotherly/sisterly] love blossom like flax flowers in a meadow.
- **13505**: It's a smashing success!
- **13506**: Just as the Institute of Magical Studies suspected, Doctor Monberaux is an excellent candidate of sorts for using Trust magic. This is excellent news!

## Events

### Event 65535

#### Metadata

| Field        | Value   |
|--------------|---------|
| Entrypoint   | 0x0000  |
| Data Size    | 1 bytes |
| Instructions | 1       |

```
      00 01 02 03 04 05 06 07  08 09 0A 0B 0C 0D 0E 0F
      -- -- -- -- -- -- -- --  -- -- -- -- -- -- -- --
0000: 00                                                .               
```

#### Opcodes

```
  0: 0x0000 [0x00] END_REQSTACK()
```

### Event 65535.1

#### Metadata

| Field        | Value    |
|--------------|----------|
| Entrypoint   | 0x0001   |
| Data Size    | 16 bytes |
| Instructions | 2        |

```
      00 01 02 03 04 05 06 07  08 09 0A 0B 0C 0D 0E 0F
      -- -- -- -- -- -- -- --  -- -- -- -- -- -- -- --
0000:    66 00 80 F8 FF FF 7F  F8 FF FF 7F 74 6C 6B 30   f..........tlk0
0010: 00                                                .               
```

#### Opcodes

```
  0: 0x0001 [0x66] LOAD_EXT_SCHEDULER_MAIN: Load scheduler "tlk0" with entities [EventEntity, EventEntity], work=69*
  1: 0x0010 [0x00] END_REQSTACK()
```

### Event 65535.2

#### Metadata

| Field        | Value    |
|--------------|----------|
| Entrypoint   | 0x0011   |
| Data Size    | 14 bytes |
| Instructions | 2        |

```
      00 01 02 03 04 05 06 07  08 09 0A 0B 0C 0D 0E 0F
      -- -- -- -- -- -- -- --  -- -- -- -- -- -- -- --
0010:    53 F8 FF FF 7F F8 FF  FF 7F 74 6C 6B 30 00      S........tlk0. 
```

#### Opcodes

```
  0: 0x0011 [0x53] WAIT_SCHEDULER_TASK: Wait for scheduler "tlk0" with entities [EventEntity, EventEntity]
  1: 0x001E [0x00] END_REQSTACK()
```

### Event 65535.3

#### Metadata

| Field        | Value    |
|--------------|----------|
| Entrypoint   | 0x001F   |
| Data Size    | 16 bytes |
| Instructions | 2        |

```
      00 01 02 03 04 05 06 07  08 09 0A 0B 0C 0D 0E 0F
      -- -- -- -- -- -- -- --  -- -- -- -- -- -- -- --
0010:                                               66                 f
0020: 00 80 F8 FF FF 7F F8 FF  FF 7F 74 6C 6B 31 00     ..........tlk1. 
```

#### Opcodes

```
  0: 0x001F [0x66] LOAD_EXT_SCHEDULER_MAIN: Load scheduler "tlk1" with entities [EventEntity, EventEntity], work=69*
  1: 0x002E [0x00] END_REQSTACK()
```

### Event 65535.4

#### Metadata

| Field        | Value    |
|--------------|----------|
| Entrypoint   | 0x002F   |
| Data Size    | 14 bytes |
| Instructions | 2        |

```
      00 01 02 03 04 05 06 07  08 09 0A 0B 0C 0D 0E 0F
      -- -- -- -- -- -- -- --  -- -- -- -- -- -- -- --
0020:                                               53                 S
0030: F8 FF FF 7F F8 FF FF 7F  74 6C 6B 31 00           ........tlk1.   
```

#### Opcodes

```
  0: 0x002F [0x53] WAIT_SCHEDULER_TASK: Wait for scheduler "tlk1" with entities [EventEntity, EventEntity]
  1: 0x003C [0x00] END_REQSTACK()
```

### Event 65535.5

#### Metadata

| Field        | Value    |
|--------------|----------|
| Entrypoint   | 0x003D   |
| Data Size    | 16 bytes |
| Instructions | 2        |

```
      00 01 02 03 04 05 06 07  08 09 0A 0B 0C 0D 0E 0F
      -- -- -- -- -- -- -- --  -- -- -- -- -- -- -- --
0030:                                         66 01 80               f..
0040: F8 FF FF 7F F8 FF FF 7F  70 61 73 30 00           ........pas0.   
```

#### Opcodes

```
  0: 0x003D [0x66] LOAD_EXT_SCHEDULER_MAIN: Load scheduler "pas0" with entities [EventEntity, EventEntity], work=131*
  1: 0x004C [0x00] END_REQSTACK()
```

### Event 65535.6

#### Metadata

| Field        | Value    |
|--------------|----------|
| Entrypoint   | 0x004D   |
| Data Size    | 14 bytes |
| Instructions | 2        |

```
      00 01 02 03 04 05 06 07  08 09 0A 0B 0C 0D 0E 0F
      -- -- -- -- -- -- -- --  -- -- -- -- -- -- -- --
0040:                                         53 F8 FF               S..
0050: FF 7F F8 FF FF 7F 70 61  73 30 00                 ......pas0.     
```

#### Opcodes

```
  0: 0x004D [0x53] WAIT_SCHEDULER_TASK: Wait for scheduler "pas0" with entities [EventEntity, EventEntity]
  1: 0x005A [0x00] END_REQSTACK()
```

### Event 65535.7

#### Metadata

| Field        | Value    |
|--------------|----------|
| Entrypoint   | 0x005B   |
| Data Size    | 16 bytes |
| Instructions | 2        |

```
      00 01 02 03 04 05 06 07  08 09 0A 0B 0C 0D 0E 0F
      -- -- -- -- -- -- -- --  -- -- -- -- -- -- -- --
0050:                                   66 00 80 F8 FF             f....
0060: FF 7F F8 FF FF 7F 74 68  6B 31 00                 ......thk1.     
```

#### Opcodes

```
  0: 0x005B [0x66] LOAD_EXT_SCHEDULER_MAIN: Load scheduler "thk1" with entities [EventEntity, EventEntity], work=69*
  1: 0x006A [0x00] END_REQSTACK()
```

### Event 65535.8

#### Metadata

| Field        | Value    |
|--------------|----------|
| Entrypoint   | 0x006B   |
| Data Size    | 14 bytes |
| Instructions | 2        |

```
      00 01 02 03 04 05 06 07  08 09 0A 0B 0C 0D 0E 0F
      -- -- -- -- -- -- -- --  -- -- -- -- -- -- -- --
0060:                                   53 F8 FF FF 7F             S....
0070: F8 FF FF 7F 74 68 6B 31  00                       ....thk1.       
```

#### Opcodes

```
  0: 0x006B [0x53] WAIT_SCHEDULER_TASK: Wait for scheduler "thk1" with entities [EventEntity, EventEntity]
  1: 0x0078 [0x00] END_REQSTACK()
```

### Event 65535.9

#### Metadata

| Field        | Value    |
|--------------|----------|
| Entrypoint   | 0x0079   |
| Data Size    | 16 bytes |
| Instructions | 2        |

```
      00 01 02 03 04 05 06 07  08 09 0A 0B 0C 0D 0E 0F
      -- -- -- -- -- -- -- --  -- -- -- -- -- -- -- --
0070:                             66 00 80 F8 FF FF 7F           f......
0080: F8 FF FF 7F 74 68 6B 32  00                       ....thk2.       
```

#### Opcodes

```
  0: 0x0079 [0x66] LOAD_EXT_SCHEDULER_MAIN: Load scheduler "thk2" with entities [EventEntity, EventEntity], work=69*
  1: 0x0088 [0x00] END_REQSTACK()
```

### Event 65535.10

#### Metadata

| Field        | Value    |
|--------------|----------|
| Entrypoint   | 0x0089   |
| Data Size    | 14 bytes |
| Instructions | 2        |

```
      00 01 02 03 04 05 06 07  08 09 0A 0B 0C 0D 0E 0F
      -- -- -- -- -- -- -- --  -- -- -- -- -- -- -- --
0080:                             53 F8 FF FF 7F F8 FF           S......
0090: FF 7F 74 68 6B 32 00                              ..thk2.         
```

#### Opcodes

```
  0: 0x0089 [0x53] WAIT_SCHEDULER_TASK: Wait for scheduler "thk2" with entities [EventEntity, EventEntity]
  1: 0x0096 [0x00] END_REQSTACK()
```

### Event 65535.11

#### Metadata

| Field        | Value    |
|--------------|----------|
| Entrypoint   | 0x0097   |
| Data Size    | 16 bytes |
| Instructions | 4        |

```
      00 01 02 03 04 05 06 07  08 09 0A 0B 0C 0D 0E 0F
      -- -- -- -- -- -- -- --  -- -- -- -- -- -- -- --
0090:                      6E  F8 FF FF 7F 02 80 99 F8         n........
00A0: FF FF 7F 1C 03 80 00                              .......         
```

#### Opcodes

```
  0: 0x0097 [0x6E] EventEntity uses emote 21*
  1: 0x009E [0x99] Wait for EventEntity animation to complete
  2: 0x00A3 [0x1C] WAIT(60* ticks)
  3: 0x00A6 [0x00] END_REQSTACK()
```

### Event 65535.12

#### Metadata

| Field        | Value    |
|--------------|----------|
| Entrypoint   | 0x00A7   |
| Data Size    | 16 bytes |
| Instructions | 4        |

```
      00 01 02 03 04 05 06 07  08 09 0A 0B 0C 0D 0E 0F
      -- -- -- -- -- -- -- --  -- -- -- -- -- -- -- --
00A0:                      6E  F8 FF FF 7F 04 80 99 F8         n........
00B0: FF FF 7F 1C 03 80 00                              .......         
```

#### Opcodes

```
  0: 0x00A7 [0x6E] EventEntity uses emote 7*
  1: 0x00AE [0x99] Wait for EventEntity animation to complete
  2: 0x00B3 [0x1C] WAIT(60* ticks)
  3: 0x00B6 [0x00] END_REQSTACK()
```

### Event 65535.13

#### Metadata

| Field        | Value    |
|--------------|----------|
| Entrypoint   | 0x00B7   |
| Data Size    | 16 bytes |
| Instructions | 4        |

```
      00 01 02 03 04 05 06 07  08 09 0A 0B 0C 0D 0E 0F
      -- -- -- -- -- -- -- --  -- -- -- -- -- -- -- --
00B0:                      6E  F8 FF FF 7F 05 80 99 F8         n........
00C0: FF FF 7F 1C 03 80 00                              .......         
```

#### Opcodes

```
  0: 0x00B7 [0x6E] EventEntity uses emote 6*
  1: 0x00BE [0x99] Wait for EventEntity animation to complete
  2: 0x00C3 [0x1C] WAIT(60* ticks)
  3: 0x00C6 [0x00] END_REQSTACK()
```

### Event 65535.14

#### Metadata

| Field        | Value    |
|--------------|----------|
| Entrypoint   | 0x00C7   |
| Data Size    | 16 bytes |
| Instructions | 4        |

```
      00 01 02 03 04 05 06 07  08 09 0A 0B 0C 0D 0E 0F
      -- -- -- -- -- -- -- --  -- -- -- -- -- -- -- --
00C0:                      6E  F8 FF FF 7F 06 80 99 F8         n........
00D0: FF FF 7F 1C 03 80 00                              .......         
```

#### Opcodes

```
  0: 0x00C7 [0x6E] EventEntity uses emote 11*
  1: 0x00CE [0x99] Wait for EventEntity animation to complete
  2: 0x00D3 [0x1C] WAIT(60* ticks)
  3: 0x00D6 [0x00] END_REQSTACK()
```

### Event 65535.15

#### Metadata

| Field        | Value    |
|--------------|----------|
| Entrypoint   | 0x00D7   |
| Data Size    | 16 bytes |
| Instructions | 4        |

```
      00 01 02 03 04 05 06 07  08 09 0A 0B 0C 0D 0E 0F
      -- -- -- -- -- -- -- --  -- -- -- -- -- -- -- --
00D0:                      6E  F8 FF FF 7F 07 80 99 F8         n........
00E0: FF FF 7F 1C 03 80 00                              .......         
```

#### Opcodes

```
  0: 0x00D7 [0x6E] EventEntity uses emote 14*
  1: 0x00DE [0x99] Wait for EventEntity animation to complete
  2: 0x00E3 [0x1C] WAIT(60* ticks)
  3: 0x00E6 [0x00] END_REQSTACK()
```

### Event 65535.16

#### Metadata

| Field        | Value    |
|--------------|----------|
| Entrypoint   | 0x00E7   |
| Data Size    | 16 bytes |
| Instructions | 4        |

```
      00 01 02 03 04 05 06 07  08 09 0A 0B 0C 0D 0E 0F
      -- -- -- -- -- -- -- --  -- -- -- -- -- -- -- --
00E0:                      6E  F8 FF FF 7F 08 80 99 F8         n........
00F0: FF FF 7F 1C 03 80 00                              .......         
```

#### Opcodes

```
  0: 0x00E7 [0x6E] EventEntity uses emote 4*
  1: 0x00EE [0x99] Wait for EventEntity animation to complete
  2: 0x00F3 [0x1C] WAIT(60* ticks)
  3: 0x00F6 [0x00] END_REQSTACK()
```

### Event 65535.17

#### Metadata

| Field        | Value    |
|--------------|----------|
| Entrypoint   | 0x00F7   |
| Data Size    | 16 bytes |
| Instructions | 4        |

```
      00 01 02 03 04 05 06 07  08 09 0A 0B 0C 0D 0E 0F
      -- -- -- -- -- -- -- --  -- -- -- -- -- -- -- --
00F0:                      6E  F8 FF FF 7F 09 80 99 F8         n........
0100: FF FF 7F 1C 03 80 00                              .......         
```

#### Opcodes

```
  0: 0x00F7 [0x6E] EventEntity uses emote 19*
  1: 0x00FE [0x99] Wait for EventEntity animation to complete
  2: 0x0103 [0x1C] WAIT(60* ticks)
  3: 0x0106 [0x00] END_REQSTACK()
```

### Event 65535.18

#### Metadata

| Field        | Value    |
|--------------|----------|
| Entrypoint   | 0x0107   |
| Data Size    | 16 bytes |
| Instructions | 4        |

```
      00 01 02 03 04 05 06 07  08 09 0A 0B 0C 0D 0E 0F
      -- -- -- -- -- -- -- --  -- -- -- -- -- -- -- --
0100:                      6E  F8 FF FF 7F 0A 80 99 F8         n........
0110: FF FF 7F 1C 03 80 00                              .......         
```

#### Opcodes

```
  0: 0x0107 [0x6E] EventEntity uses emote 12*
  1: 0x010E [0x99] Wait for EventEntity animation to complete
  2: 0x0113 [0x1C] WAIT(60* ticks)
  3: 0x0116 [0x00] END_REQSTACK()
```

### Event 65535.19

#### Metadata

| Field        | Value    |
|--------------|----------|
| Entrypoint   | 0x0117   |
| Data Size    | 16 bytes |
| Instructions | 4        |

```
      00 01 02 03 04 05 06 07  08 09 0A 0B 0C 0D 0E 0F
      -- -- -- -- -- -- -- --  -- -- -- -- -- -- -- --
0110:                      6E  F8 FF FF 7F 0A 80 99 F8         n........
0120: FF FF 7F 1C 03 80 00                              .......         
```

#### Opcodes

```
  0: 0x0117 [0x6E] EventEntity uses emote 12*
  1: 0x011E [0x99] Wait for EventEntity animation to complete
  2: 0x0123 [0x1C] WAIT(60* ticks)
  3: 0x0126 [0x00] END_REQSTACK()
```

### Event 65535.20

#### Metadata

| Field        | Value    |
|--------------|----------|
| Entrypoint   | 0x0127   |
| Data Size    | 16 bytes |
| Instructions | 4        |

```
      00 01 02 03 04 05 06 07  08 09 0A 0B 0C 0D 0E 0F
      -- -- -- -- -- -- -- --  -- -- -- -- -- -- -- --
0120:                      6E  F8 FF FF 7F 0B 80 99 F8         n........
0130: FF FF 7F 1C 03 80 00                              .......         
```

#### Opcodes

```
  0: 0x0127 [0x6E] EventEntity uses emote 29*
  1: 0x012E [0x99] Wait for EventEntity animation to complete
  2: 0x0133 [0x1C] WAIT(60* ticks)
  3: 0x0136 [0x00] END_REQSTACK()
```

### Event 65535.21

#### Metadata

| Field        | Value   |
|--------------|---------|
| Entrypoint   | 0x0137  |
| Data Size    | 9 bytes |
| Instructions | 3       |

```
      00 01 02 03 04 05 06 07  08 09 0A 0B 0C 0D 0E 0F
      -- -- -- -- -- -- -- --  -- -- -- -- -- -- -- --
0130:                      5E  69 64 6C 30 1C 03 80 00         ^idl0....
```

#### Opcodes

```
  0: 0x0137 [0x5E] EventEntity goes idle (kills current action) (animation: "idl0")
  1: 0x013C [0x1C] WAIT(60* ticks)
  2: 0x013F [0x00] END_REQSTACK()
```

### Event 442

#### Metadata

| Field        | Value    |
|--------------|----------|
| Entrypoint   | 0x0140   |
| Data Size    | 29 bytes |
| Instructions | 10       |

```
      00 01 02 03 04 05 06 07  08 09 0A 0B 0C 0D 0E 0F
      -- -- -- -- -- -- -- --  -- -- -- -- -- -- -- --
0140: 1E F0 FF FF 7F 6F 70 29  08 3C C1 0E 01 01 1D 0C  .....op).<......
0150: 80 23 29 08 3C C1 0E 01  02 20 00 21 00           .#).<.... .!.   
```

#### Opcodes

```
  0: 0x0140 [0x1E] EventEntity looks at LocalPlayer and starts talking
  1: 0x0145 [0x6F] WAIT_FRAME_DELAY: Yield until WaitTime reaches zero
  2: 0x0146 [0x70] WAIT_ENTITY_RENDER_FLAG: Wait while EventEntity->Render.Flags3 bit 2 is set (cancel turn if not)
  3: 0x0147 [0x29] REQ_SET_WAIT(priority=0x08, entity_id=Clarion Star (ID: 17744188/0x010EC13C), tag_num=0x01)
  4: 0x014E [0x1D] PRINT_EVENT_MESSAGE(message_id=13434*)
    → "You can call me Clarion Star. I've come from Jeuno, the lovely city in the northeast that connects the Quon and Mindartia continents."
  5: 0x0151 [0x23] WAIT_FOR_DIALOG_INTERACTION
  6: 0x0152 [0x29] REQ_SET_WAIT(priority=0x08, entity_id=Clarion Star (ID: 17744188/0x010EC13C), tag_num=0x02)
  7: 0x0159 [0x20] SET_CLI_EVENT_UC_FLAG: Unlock player control
  8: 0x015B [0x21] END_EVENT
  9: 0x015C [0x00] END_REQSTACK()
```

### Event 434

#### Metadata

| Field        | Value     |
|--------------|-----------|
| Entrypoint   | 0x015D    |
| Data Size    | 402 bytes |
| Instructions | 101       |

```
      00 01 02 03 04 05 06 07  08 09 0A 0B 0C 0D 0E 0F
      -- -- -- -- -- -- -- --  -- -- -- -- -- -- -- --
0150:                                         1E F0 FF               ...
0160: FF 7F 4A F0 FF FF 7F F8  FF FF 7F 6F 70 03 01 10  ..J........op...
0170: 0D 80 29 08 3C C1 0E 01  01 1D 0E 80 23 1D 0C 80  ..).<.......#...
0180: 23 29 08 3C C1 0E 01 02  29 08 3C C1 0E 01 03 1D  #).<....).<.....
0190: 0F 80 23 29 08 3C C1 0E  01 04 27 08 3C C1 0E 01  ..#).<....'.<...
01A0: 10 1D 10 80 23 2A 08 3C  C1 0E 01 29 08 3C C1 0E  ....#*.<...).<..
01B0: 01 07 1D 11 80 23 1D 12  80 23 29 08 3C C1 0E 01  .....#...#).<...
01C0: 08 29 08 3C C1 0E 01 09  1D 13 80 23 1D 14 80 23  .).<.......#...#
01D0: 29 08 3C C1 0E 01 0A 24  15 80 16 80 16 80 25 02  ).<....$......%.
01E0: 00 10 16 80 00 CA 02 27  08 3C C1 0E 01 0F 1D 17  .......'.<......
01F0: 80 23 1D 18 80 23 2A 08  3C C1 0E 01 1D 19 80 23  .#...#*.<......#
0200: 27 08 3C C1 0E 01 0D 1D  1A 80 23 1D 1B 80 23 2A  '.<.......#...#*
0210: 08 3C C1 0E 01 29 08 3C  C1 0E 01 07 1D 1C 80 23  .<...).<.......#
0220: 29 08 3C C1 0E 01 08 29  08 3C C1 0E 01 09 1D 1D  ).<....).<......
0230: 80 23 1D 1E 80 23 29 08  3C C1 0E 01 0A 24 1F 80  .#...#).<....$..
0240: 16 80 16 80 25 02 00 10  16 80 00 A6 02 42 27 08  ....%........B'.
0250: 3C C1 0E 01 10 1D 20 80  23 2A 08 3C C1 0E 01 03  <..... .#*.<....
0260: 04 10 16 80 29 08 3C C1  0E 01 05 1D 21 80 23 29  ....).<.....!.#)
0270: 08 3C C1 0E 01 06 29 08  3C C1 0E 01 01 1D 22 80  .<....).<.....".
0280: 23 1D 23 80 23 29 08 3C  C1 0E 01 02 29 08 3C C1  #.#.#).<....).<.
0290: 0E 01 03 1D 24 80 23 29  08 3C C1 0E 01 04 03 01  ....$.#).<......
02A0: 10 25 80 01 C7 02 02 00  10 0D 80 00 C7 02 27 08  .%............'.
02B0: 3C C1 0E 01 11 1D 26 80  23 2A 08 3C C1 0E 01 03  <.....&.#*.<....
02C0: 01 10 0D 80 01 C7 02 01  EB 02 02 00 10 0D 80 00  ................
02D0: EB 02 27 08 3C C1 0E 01  11 1D 27 80 23 2A 08 3C  ..'.<.....'.#*.<
02E0: C1 0E 01 03 01 10 0D 80  01 EB 02 20 00 21 00     ........... .!. 
```

#### Opcodes

```
  0: 0x015D [0x1E] EventEntity looks at LocalPlayer and starts talking
  1: 0x0162 [0x4A] LocalPlayer looks at EventEntity
  2: 0x016B [0x6F] WAIT_FRAME_DELAY: Yield until WaitTime reaches zero
  3: 0x016C [0x70] WAIT_ENTITY_RENDER_FLAG: Wait while EventEntity->Render.Flags3 bit 2 is set (cancel turn if not)
  4: 0x016D [0x03] Work_Zone[1] = 1*
  5: 0x0172 [0x29] REQ_SET_WAIT(priority=0x08, entity_id=Clarion Star (ID: 17744188/0x010EC13C), tag_num=0x01)
  6: 0x0179 [0x1D] PRINT_EVENT_MESSAGE(message_id=13433*)
    → "Hey! You there! I've got a proposition of sorts for [a fresh-faced/an able-bodied/a world-class] adventurer such as yourself!"
  7: 0x017C [0x23] WAIT_FOR_DIALOG_INTERACTION
  8: 0x017D [0x1D] PRINT_EVENT_MESSAGE(message_id=13434*)
    → "You can call me Clarion Star. I've come from Jeuno, the lovely city in the northeast that connects the Quon and Mindartia continents."
  9: 0x0180 [0x23] WAIT_FOR_DIALOG_INTERACTION
 10: 0x0181 [0x29] REQ_SET_WAIT(priority=0x08, entity_id=Clarion Star (ID: 17744188/0x010EC13C), tag_num=0x02)
 11: 0x0188 [0x29] REQ_SET_WAIT(priority=0x08, entity_id=Clarion Star (ID: 17744188/0x010EC13C), tag_num=0x03)
 12: 0x018F [0x1D] PRINT_EVENT_MESSAGE(message_id=13435*)
    → "Specifically, I'm a representative of sorts from the Jeuno Institute of Magical Studies. You could call me a headhunter!"
 13: 0x0192 [0x23] WAIT_FOR_DIALOG_INTERACTION
 14: 0x0193 [0x29] REQ_SET_WAIT(priority=0x08, entity_id=Clarion Star (ID: 17744188/0x010EC13C), tag_num=0x04)
 15: 0x019A [0x27] REQ_SET(priority=0x08, entity_id=Clarion Star (ID: 17744188/0x010EC13C), tag_num=0x10)
 16: 0x01A1 [0x1D] PRINT_EVENT_MESSAGE(message_id=13436*)
    → "Bwahaha! And the heads I am hunting today are those of bright-eyed explorers like yourself!"
 17: 0x01A4 [0x23] WAIT_FOR_DIALOG_INTERACTION
 18: 0x01A5 [0x2A] GET_REQ_LEVEL(level=8, entity_id=Clarion Star (ID: 17744188/0x010EC13C))
 19: 0x01AB [0x29] REQ_SET_WAIT(priority=0x08, entity_id=Clarion Star (ID: 17744188/0x010EC13C), tag_num=0x07)
 20: 0x01B2 [0x1D] PRINT_EVENT_MESSAGE(message_id=13437*)
    → "So here's the deal. Not too long ago, the institute held an international symposium of sorts, at which we announced the development of a fascinatingly useful new type of magic."
 21: 0x01B5 [0x23] WAIT_FOR_DIALOG_INTERACTION
 22: 0x01B6 [0x1D] PRINT_EVENT_MESSAGE(message_id=13438*)
    → "We made it available for everyone to utilize, and so we are trying it out here in Bastok and other places throughout Vana'diel."
 23: 0x01B9 [0x23] WAIT_FOR_DIALOG_INTERACTION
 24: 0x01BA [0x29] REQ_SET_WAIT(priority=0x08, entity_id=Clarion Star (ID: 17744188/0x010EC13C), tag_num=0x08)
 25: 0x01C1 [0x29] REQ_SET_WAIT(priority=0x08, entity_id=Clarion Star (ID: 17744188/0x010EC13C), tag_num=0x09)
 26: 0x01C8 [0x1D] PRINT_EVENT_MESSAGE(message_id=13439*)
    → "We've chosen to call the new magic "Trust," and as an official delegate of the institute, I want adventurers of your caliber to be the lucky first participants."
 27: 0x01CB [0x23] WAIT_FOR_DIALOG_INTERACTION
 28: 0x01CC [0x1D] PRINT_EVENT_MESSAGE(message_id=13440*)
    → "So? What about it? Want to try it out?"
 29: 0x01CF [0x23] WAIT_FOR_DIALOG_INTERACTION
 30: 0x01D0 [0x29] REQ_SET_WAIT(priority=0x08, entity_id=Clarion Star (ID: 17744188/0x010EC13C), tag_num=0x0A)
 31: 0x01D7 [0x24] CREATE_DIALOG(message_id=13441*, default_option=0*, option_flags=0*)
    → "Try out the new magic? [What have I got to lose?/Magic scares me.]"
 32: 0x01DE [0x25] WAIT_DIALOG_SELECT()
 33: 0x01DF [0x02] IF !(Work_Zone[0] == 0*) GOTO 0x02CA
 34: 0x01E7 [0x27] REQ_SET(priority=0x08, entity_id=Clarion Star (ID: 17744188/0x010EC13C), tag_num=0x0F)
 35: 0x01EE [0x1D] PRINT_EVENT_MESSAGE(message_id=13443*)
    → "That's the kind of spunk I like!"
 36: 0x01F1 [0x23] WAIT_FOR_DIALOG_INTERACTION
 37: 0x01F2 [0x1D] PRINT_EVENT_MESSAGE(message_id=13444*)
    → "You're surely aware that Bastok is no stranger to developing new technologies, and as such Cid and the Mythril Musketeers are conducting research of sorts into the application of this new magic."
 38: 0x01F5 [0x23] WAIT_FOR_DIALOG_INTERACTION
 39: 0x01F6 [0x2A] GET_REQ_LEVEL(level=8, entity_id=Clarion Star (ID: 17744188/0x010EC13C))
 40: 0x01FC [0x1D] PRINT_EVENT_MESSAGE(message_id=13445*)
    → "You know how they are--always at odds with the Beastman Confederate. They think that Trust might be able to help "bolster their forces," they say."
 41: 0x01FF [0x23] WAIT_FOR_DIALOG_INTERACTION
 42: 0x0200 [0x27] REQ_SET(priority=0x08, entity_id=Clarion Star (ID: 17744188/0x010EC13C), tag_num=0x0D)
 43: 0x0207 [0x1D] PRINT_EVENT_MESSAGE(message_id=13446*)
    → "However! Not just anyone can use Trust."
 44: 0x020A [0x23] WAIT_FOR_DIALOG_INTERACTION
 45: 0x020B [0x1D] PRINT_EVENT_MESSAGE(message_id=13447*)
    → "As you can imagine, the institute is thus collecting data of sorts in San d'Oria and Windurst, too, trying to get as many people as possible to participate."
 46: 0x020E [0x23] WAIT_FOR_DIALOG_INTERACTION
 47: 0x020F [0x2A] GET_REQ_LEVEL(level=8, entity_id=Clarion Star (ID: 17744188/0x010EC13C))
 48: 0x0215 [0x29] REQ_SET_WAIT(priority=0x08, entity_id=Clarion Star (ID: 17744188/0x010EC13C), tag_num=0x07)
 49: 0x021C [0x1D] PRINT_EVENT_MESSAGE(message_id=13448*)
    → "It should come as no surprise, then, that we have other representatives in those two nations. If you'd rather head over there, then we've got nothing more to discuss..."
 50: 0x021F [0x23] WAIT_FOR_DIALOG_INTERACTION
 51: 0x0220 [0x29] REQ_SET_WAIT(priority=0x08, entity_id=Clarion Star (ID: 17744188/0x010EC13C), tag_num=0x08)
 52: 0x0227 [0x29] REQ_SET_WAIT(priority=0x08, entity_id=Clarion Star (ID: 17744188/0x010EC13C), tag_num=0x09)
 53: 0x022E [0x1D] PRINT_EVENT_MESSAGE(message_id=13449*)
    → "But I'm sure the Mythril Musketeers here would appreciate any help you could give 'em."
 54: 0x0231 [0x23] WAIT_FOR_DIALOG_INTERACTION
 55: 0x0232 [0x1D] PRINT_EVENT_MESSAGE(message_id=13450*)
    → "Let's cut to the quick. Helping them earns you the aid of a powerful warrior of sorts, which can only help you in your travels."
 56: 0x0235 [0x23] WAIT_FOR_DIALOG_INTERACTION
 57: 0x0236 [0x29] REQ_SET_WAIT(priority=0x08, entity_id=Clarion Star (ID: 17744188/0x010EC13C), tag_num=0x0A)
 58: 0x023D [0x24] CREATE_DIALOG(message_id=13451*, default_option=0*, option_flags=0*)
    → "Assist in Trust endeavors in Bastok? [Of course./No, thank you.]"
 59: 0x0244 [0x25] WAIT_DIALOG_SELECT()
 60: 0x0245 [0x02] IF !(Work_Zone[0] == 0*) GOTO 0x02A6
 61: 0x024D [0x42] SET_CLI_EVENT_CANCEL_DATA()
 62: 0x024E [0x27] REQ_SET(priority=0x08, entity_id=Clarion Star (ID: 17744188/0x010EC13C), tag_num=0x10)
 63: 0x0255 [0x1D] PRINT_EVENT_MESSAGE(message_id=13453*)
    → "Bwahaha! Perfect response!"
 64: 0x0258 [0x23] WAIT_FOR_DIALOG_INTERACTION
 65: 0x0259 [0x2A] GET_REQ_LEVEL(level=8, entity_id=Clarion Star (ID: 17744188/0x010EC13C))
 66: 0x025F [0x03] Work_Zone[4] = 0*
 67: 0x0264 [0x29] REQ_SET_WAIT(priority=0x08, entity_id=Clarion Star (ID: 17744188/0x010EC13C), tag_num=0x05)
 68: 0x026B [0x1D] PRINT_EVENT_MESSAGE(message_id=13454*)
    → "[If that's the case,/Okay! So] let's get right to it. Before we go any further, let me give you this."
 69: 0x026E [0x23] WAIT_FOR_DIALOG_INTERACTION
 70: 0x026F [0x29] REQ_SET_WAIT(priority=0x08, entity_id=Clarion Star (ID: 17744188/0x010EC13C), tag_num=0x06)
 71: 0x0276 [0x29] REQ_SET_WAIT(priority=0x08, entity_id=Clarion Star (ID: 17744188/0x010EC13C), tag_num=0x01)
 72: 0x027D [0x1D] PRINT_EVENT_MESSAGE(message_id=13455*)
    → "Your first task of sorts is to speak with Naji of the Mythril Musketeers, in the Metalworks. He can guide you further."
 73: 0x0280 [0x23] WAIT_FOR_DIALOG_INTERACTION
 74: 0x0281 [0x1D] PRINT_EVENT_MESSAGE(message_id=13456*)
    → "Do you know where it is? Just head up the staircase behind me and cross the bridge to the west. Someone in the markets just past there can guide you further."
 75: 0x0284 [0x23] WAIT_FOR_DIALOG_INTERACTION
 76: 0x0285 [0x29] REQ_SET_WAIT(priority=0x08, entity_id=Clarion Star (ID: 17744188/0x010EC13C), tag_num=0x02)
 77: 0x028C [0x29] REQ_SET_WAIT(priority=0x08, entity_id=Clarion Star (ID: 17744188/0x010EC13C), tag_num=0x03)
 78: 0x0293 [0x1D] PRINT_EVENT_MESSAGE(message_id=13457*)
    → "Take the lift up to the second floor, where you'll find him waiting by the staircase that leads to the president's office. No one across the land is as faithful or skilled a guard as he."
 79: 0x0296 [0x23] WAIT_FOR_DIALOG_INTERACTION
 80: 0x0297 [0x29] REQ_SET_WAIT(priority=0x08, entity_id=Clarion Star (ID: 17744188/0x010EC13C), tag_num=0x04)
 81: 0x029E [0x03] Work_Zone[1] = 2*
 82: 0x02A3 [0x01] GOTO 0x02C7
 83: 0x02A6 [0x02] IF !(Work_Zone[0] == 1*) GOTO 0x02C7
 84: 0x02AE [0x27] REQ_SET(priority=0x08, entity_id=Clarion Star (ID: 17744188/0x010EC13C), tag_num=0x11)
 85: 0x02B5 [0x1D] PRINT_EVENT_MESSAGE(message_id=13452*)
    → "If you're dead set on going elsewhere, I can't stop you...but I'm right here, and surely you'd rather not take a long journey."
 86: 0x02B8 [0x23] WAIT_FOR_DIALOG_INTERACTION
 87: 0x02B9 [0x2A] GET_REQ_LEVEL(level=8, entity_id=Clarion Star (ID: 17744188/0x010EC13C))
 88: 0x02BF [0x03] Work_Zone[1] = 1*
 89: 0x02C4 [0x01] GOTO 0x02C7

SUBROUTINE_02C7:
 90: 0x02C7 [0x01] GOTO 0x02EB
 91: 0x02CA [0x02] IF !(Work_Zone[0] == 1*) GOTO 0x02EB
 92: 0x02D2 [0x27] REQ_SET(priority=0x08, entity_id=Clarion Star (ID: 17744188/0x010EC13C), tag_num=0x11)
 93: 0x02D9 [0x1D] PRINT_EVENT_MESSAGE(message_id=13442*)
    → "An adventurer of sorts scared of magic? Pffft. Your loss, bud."
 94: 0x02DC [0x23] WAIT_FOR_DIALOG_INTERACTION
 95: 0x02DD [0x2A] GET_REQ_LEVEL(level=8, entity_id=Clarion Star (ID: 17744188/0x010EC13C))
 96: 0x02E3 [0x03] Work_Zone[1] = 1*
 97: 0x02E8 [0x01] GOTO 0x02EB

SUBROUTINE_02EB:
 98: 0x02EB [0x20] SET_CLI_EVENT_UC_FLAG: Unlock player control
 99: 0x02ED [0x21] END_EVENT
100: 0x02EE [0x00] END_REQSTACK()
```

### Event 435

#### Metadata

| Field        | Value    |
|--------------|----------|
| Entrypoint   | 0x02EF   |
| Data Size    | 51 bytes |
| Instructions | 16       |

```
      00 01 02 03 04 05 06 07  08 09 0A 0B 0C 0D 0E 0F
      -- -- -- -- -- -- -- --  -- -- -- -- -- -- -- --
02E0:                                               1E                 .
02F0: F0 FF FF 7F 6F 70 29 08  3C C1 0E 01 01 1D 22 80  ....op).<.....".
0300: 23 1D 23 80 23 29 08 3C  C1 0E 01 02 29 08 3C C1  #.#.#).<....).<.
0310: 0E 01 03 1D 24 80 23 29  08 3C C1 0E 01 04 20 00  ....$.#).<.... .
0320: 21 00                                             !.              
```

#### Opcodes

```
  0: 0x02EF [0x1E] EventEntity looks at LocalPlayer and starts talking
  1: 0x02F4 [0x6F] WAIT_FRAME_DELAY: Yield until WaitTime reaches zero
  2: 0x02F5 [0x70] WAIT_ENTITY_RENDER_FLAG: Wait while EventEntity->Render.Flags3 bit 2 is set (cancel turn if not)
  3: 0x02F6 [0x29] REQ_SET_WAIT(priority=0x08, entity_id=Clarion Star (ID: 17744188/0x010EC13C), tag_num=0x01)
  4: 0x02FD [0x1D] PRINT_EVENT_MESSAGE(message_id=13455*)
    → "Your first task of sorts is to speak with Naji of the Mythril Musketeers, in the Metalworks. He can guide you further."
  5: 0x0300 [0x23] WAIT_FOR_DIALOG_INTERACTION
  6: 0x0301 [0x1D] PRINT_EVENT_MESSAGE(message_id=13456*)
    → "Do you know where it is? Just head up the staircase behind me and cross the bridge to the west. Someone in the markets just past there can guide you further."
  7: 0x0304 [0x23] WAIT_FOR_DIALOG_INTERACTION
  8: 0x0305 [0x29] REQ_SET_WAIT(priority=0x08, entity_id=Clarion Star (ID: 17744188/0x010EC13C), tag_num=0x02)
  9: 0x030C [0x29] REQ_SET_WAIT(priority=0x08, entity_id=Clarion Star (ID: 17744188/0x010EC13C), tag_num=0x03)
 10: 0x0313 [0x1D] PRINT_EVENT_MESSAGE(message_id=13457*)
    → "Take the lift up to the second floor, where you'll find him waiting by the staircase that leads to the president's office. No one across the land is as faithful or skilled a guard as he."
 11: 0x0316 [0x23] WAIT_FOR_DIALOG_INTERACTION
 12: 0x0317 [0x29] REQ_SET_WAIT(priority=0x08, entity_id=Clarion Star (ID: 17744188/0x010EC13C), tag_num=0x04)
 13: 0x031E [0x20] SET_CLI_EVENT_UC_FLAG: Unlock player control
 14: 0x0320 [0x21] END_EVENT
 15: 0x0321 [0x00] END_REQSTACK()
```

### Event 436

#### Metadata

| Field        | Value     |
|--------------|-----------|
| Entrypoint   | 0x0322    |
| Data Size    | 882 bytes |
| Instructions | 40        |

```
      00 01 02 03 04 05 06 07  08 09 0A 0B 0C 0D 0E 0F
      -- -- -- -- -- -- -- --  -- -- -- -- -- -- -- --
0320:       1E F0 FF FF 7F 4A  F0 FF FF 7F F8 FF FF 7F    .....J........
0330: 6F 70 03 02 00 06 10 03  03 00 02 10 1D 28 80 23  op...........(.#
0340: 02 03 00 0D 80 00 50 03  03 03 00 16 80 01 55 03  ......P.......U.
0350: 03 03 00 0A 80 24 29 80  16 80 03 00 25 02 00 10  .....$).....%...
0360: 16 80 00 B1 03 29 08 3C  C1 0E 01 01 1D 2A 80 23  .....).<.....*.#
0370: 29 08 3C C1 0E 01 02 29  08 3C C1 0E 01 03 1D 2B  ).<....).<.....+
0380: 80 23 29 08 3C C1 0E 01  04 27 08 3C C1 0E 01 10  .#).<....'.<....
0390: 1D 2C 80 23 2A 08 3C C1  0E 01 27 08 3C C1 0E 01  .,.#*.<...'.<...
03A0: 0C 1D 2D 80 23 2A 08 3C  C1 0E 01 01 55 03 01 90  ..-.#*.<....U...
03B0: 06 02 00 10 0D 80 00 0F  04 29 08 3C C1 0E 01 01  .........).<....
03C0: 1D 2E 80 23 1D 2F 80 23  29 08 3C C1 0E 01 02 29  ...#./.#).<....)
03D0: 08 3C C1 0E 01 03 1D 30  80 23 29 08 3C C1 0E 01  .<.....0.#).<...
03E0: 04 29 08 3C C1 0E 01 07  1D 31 80 23 29 08 3C C1  .).<.....1.#).<.
03F0: 0E 01 08 29 08 3C C1 0E  01 09 1D 32 80 23 29 08  ...).<.....2.#).
0400: 3C C1 0E 01 0A 1D 33 80  23 01 55 03 01 90 06 02  <.....3.#.U.....
0410: 00 10 25 80 00 7F 04 29  08 3C C1 0E 01 01 1D 34  ..%....).<.....4
0420: 80 23 1D 35 80 23 29 08  3C C1 0E 01 02 29 08 3C  .#.5.#).<....).<
0430: C1 0E 01 03 1D 36 80 23  29 08 3C C1 0E 01 04 27  .....6.#).<....'
0440: 08 3C C1 0E 01 12 1D 37  80 23 2A 08 3C C1 0E 01  .<.....7.#*.<...
0450: 03 07 10 16 80 29 08 3C  C1 0E 01 07 1D 38 80 23  .....).<.....8.#
0460: 29 08 3C C1 0E 01 08 29  08 3C C1 0E 01 09 1D 39  ).<....).<.....9
0470: 80 23 29 08 3C C1 0E 01  0A 01 55 03 01 90 06 02  .#).<.....U.....
0480: 00 10 3A 80 00 85 06 03  04 10 3B 80 03 05 10 3B  ..:.......;....;
0490: 80 02 02 00 16 80 00 AD  04 27 08 3C C1 0E 01 0D  .........'.<....
04A0: 1D 3C 80 23 2A 08 3C C1  0E 01 01 7F 06 29 08 3C  .<.#*.<......).<
04B0: C1 0E 01 07 1D 3D 80 23  3E 02 00 16 80 CC 04 03  .....=.#>.......
04C0: 04 10 0D 80 03 05 10 0D  80 01 6D 06 3E 02 00 0D  ..........m.>...
04D0: 80 E0 04 03 04 10 0D 80  03 05 10 08 80 01 6D 06  ..............m.
04E0: 3E 02 00 25 80 F4 04 03  04 10 0D 80 03 05 10 04  >..%............
04F0: 80 01 6D 06 3E 02 00 3E  80 08 05 03 04 10 0D 80  ..m.>..>........
0500: 03 05 10 3E 80 01 6D 06  3E 02 00 3A 80 1C 05 03  ...>..m.>..:....
0510: 04 10 16 80 03 05 10 16  80 01 6D 06 3E 02 00 08  ..........m.>...
0520: 80 30 05 03 04 10 16 80  03 05 10 3A 80 01 6D 06  .0.........:..m.
0530: 3E 02 00 3F 80 44 05 03  04 10 16 80 03 05 10 05  >..?.D..........
0540: 80 01 6D 06 3E 02 00 05  80 58 05 03 04 10 25 80  ..m.>....X....%.
0550: 03 05 10 25 80 01 6D 06  3E 02 00 04 80 6C 05 03  ...%..m.>....l..
0560: 04 10 25 80 03 05 10 3F  80 01 6D 06 3E 02 00 40  ..%....?..m.>..@
0570: 80 80 05 03 04 10 25 80  03 05 10 40 80 01 6D 06  ......%....@..m.
0580: 3E 02 00 09 80 94 05 03  04 10 3A 80 03 05 10 09  >.........:.....
0590: 80 01 6D 06 3E 02 00 41  80 A8 05 03 04 10 08 80  ..m.>..A........
05A0: 03 05 10 41 80 01 6D 06  3E 02 00 06 80 BC 05 03  ...A..m.>.......
05B0: 04 10 08 80 03 05 10 06  80 01 6D 06 3E 02 00 0A  ..........m.>...
05C0: 80 D0 05 03 04 10 25 80  03 05 10 0A 80 01 6D 06  ......%.......m.
05D0: 3E 02 00 42 80 E4 05 03  04 10 3A 80 03 05 10 42  >..B......:....B
05E0: 80 01 6D 06 3E 02 00 43  80 F8 05 03 04 10 3F 80  ..m.>..C......?.
05F0: 03 05 10 43 80 01 6D 06  3E 02 00 07 80 0C 06 03  ...C..m.>.......
0600: 04 10 3F 80 03 05 10 07  80 01 6D 06 3E 02 00 44  ..?.......m.>..D
0610: 80 20 06 03 04 10 3F 80  03 05 10 44 80 01 6D 06  . ....?....D..m.
0620: 3E 02 00 45 80 34 06 03  04 10 3F 80 03 05 10 45  >..E.4....?....E
0630: 80 01 6D 06 3E 02 00 46  80 48 06 03 04 10 05 80  ..m.>..F.H......
0640: 03 05 10 46 80 01 6D 06  3E 02 00 47 80 5C 06 03  ...F..m.>..G.\..
0650: 04 10 05 80 03 05 10 47  80 01 6D 06 3E 02 00 02  .......G..m.>...
0660: 80 6D 06 03 04 10 04 80  03 05 10 02 80 1D 48 80  .m............H.
0670: 23 29 08 3C C1 0E 01 08  29 08 3C C1 0E 01 09 01  #).<....).<.....
0680: 55 03 01 90 06 02 00 10  08 80 00 90 06 01 90 06  U...............
0690: 20 00 21 00                                        .!.            
```

#### Opcodes

```
  0: 0x0322 [0x1E] EventEntity looks at LocalPlayer and starts talking
  1: 0x0327 [0x4A] LocalPlayer looks at EventEntity
  2: 0x0330 [0x6F] WAIT_FRAME_DELAY: Yield until WaitTime reaches zero
  3: 0x0331 [0x70] WAIT_ENTITY_RENDER_FLAG: Wait while EventEntity->Render.Flags3 bit 2 is set (cancel turn if not)
  4: 0x0332 [0x03] ExtData[1]->WorkLocal[2] = Work_Zone[6]
  5: 0x0337 [0x03] ExtData[1]->WorkLocal[3] = Work_Zone[2]
  6: 0x033C [0x1D] PRINT_EVENT_MESSAGE(message_id=13458*)
    → "How are you finding those alter egos? Need an explanation of sorts as to how they work?"
  7: 0x033F [0x23] WAIT_FOR_DIALOG_INTERACTION
  8: 0x0340 [0x02] IF !(ExtData[1]->WorkLocal[3] == 1*) GOTO 0x0350
  9: 0x0348 [0x03] ExtData[1]->WorkLocal[3] = 0*
 10: 0x034D [0x01] GOTO 0x0355
 11: 0x0350 [0x03] ExtData[1]->WorkLocal[3] = 12*

SUBROUTINE_0355:
 12: 0x0355 [0x24] CREATE_DIALOG(message_id=13459*, default_option=0*, option_flags=ExtData[1]->WorkLocal[3])
    → "Inquire about what? [What Trust is./What happens when one uses Trust./How to learn new Trust spells./Whereabouts of Trust participants./Nothing at the moment.]"
 13: 0x035C [0x25] WAIT_DIALOG_SELECT()
 14: 0x035D [0x02] IF !(Work_Zone[0] == 0*) GOTO 0x03B1
 15: 0x0365 [0x29] REQ_SET_WAIT(priority=0x08, entity_id=Clarion Star (ID: 17744188/0x010EC13C), tag_num=0x01)
 16: 0x036C [0x1D] PRINT_EVENT_MESSAGE(message_id=13460*)
    → "Trust is a new category of magic developed and announced by the Jeuno Institute for Magical Studies."
 17: 0x036F [0x23] WAIT_FOR_DIALOG_INTERACTION
 18: 0x0370 [0x29] REQ_SET_WAIT(priority=0x08, entity_id=Clarion Star (ID: 17744188/0x010EC13C), tag_num=0x02)
 19: 0x0377 [0x29] REQ_SET_WAIT(priority=0x08, entity_id=Clarion Star (ID: 17744188/0x010EC13C), tag_num=0x03)
 20: 0x037E [0x1D] PRINT_EVENT_MESSAGE(message_id=13461*)
    → "Though it is a magic of sorts, unlike ordinary spells it does not require mana. Instead, it draws on the power of trust, friendship, and [brotherly/sisterly] love."
 21: 0x0381 [0x23] WAIT_FOR_DIALOG_INTERACTION
 22: 0x0382 [0x29] REQ_SET_WAIT(priority=0x08, entity_id=Clarion Star (ID: 17744188/0x010EC13C), tag_num=0x04)
 23: 0x0389 [0x27] REQ_SET(priority=0x08, entity_id=Clarion Star (ID: 17744188/0x010EC13C), tag_num=0x10)
 24: 0x0390 [0x1D] PRINT_EVENT_MESSAGE(message_id=13462*)
    → "Friendship, of course, crosses all boundaries, so Trust magic can be used regardless of your job."
 25: 0x0393 [0x23] WAIT_FOR_DIALOG_INTERACTION
 26: 0x0394 [0x2A] GET_REQ_LEVEL(level=8, entity_id=Clarion Star (ID: 17744188/0x010EC13C))
 27: 0x039A [0x27] REQ_SET(priority=0x08, entity_id=Clarion Star (ID: 17744188/0x010EC13C), tag_num=0x0C)
 28: 0x03A1 [0x1D] PRINT_EVENT_MESSAGE(message_id=13463*)
    → "But for the love of all that is holy, don't go around bonding with alter egos in cities. It'll confuse everyone."
 29: 0x03A4 [0x23] WAIT_FOR_DIALOG_INTERACTION
 30: 0x03A5 [0x2A] GET_REQ_LEVEL(level=8, entity_id=Clarion Star (ID: 17744188/0x010EC13C))
 31: 0x03AB [0x01] GOTO 0x0355

SUBROUTINE_066D:
 32: 0x066D [0x1D] PRINT_EVENT_MESSAGE(message_id=13477*)
    → "[Excenmille/Naji/Kupipi/Curilla/Ayame/Nanaa Mihgo/Trion/Volker/Ajido-Marujido/Iron Eater/Prishe/Ulmia/Shikaree Z/Cherukiki/Gadalar/Zazarg/Nashmeira/Gessho/Ingrid/Maat/Arciela/Chacharoon] can be found in [San d'Oria/Bastok/Windurst/Jeuno/Tavnazia/Aht Urhgan/Adoulin/the Mog Gardens]."
 33: 0x0670 [0x23] WAIT_FOR_DIALOG_INTERACTION
 34: 0x0671 [0x29] REQ_SET_WAIT(priority=0x08, entity_id=Clarion Star (ID: 17744188/0x010EC13C), tag_num=0x08)
 35: 0x0678 [0x29] REQ_SET_WAIT(priority=0x08, entity_id=Clarion Star (ID: 17744188/0x010EC13C), tag_num=0x09)

SUBROUTINE_067F:
 36: 0x067F [0x01] GOTO 0x0355

SUBROUTINE_0690:
 37: 0x0690 [0x20] SET_CLI_EVENT_UC_FLAG: Unlock player control
 38: 0x0692 [0x21] END_EVENT
 39: 0x0693 [0x00] END_REQSTACK()
```

#### Data or dead code:

```
# Dead code (unreachable instructions):
     0x03AE [0x01] GOTO 0x0690
     0x040C [0x01] GOTO 0x0690
     0x047C [0x01] GOTO 0x0690
# Dead code (unreachable instructions):
     0x0682 [0x01] GOTO 0x0690
```

### Event 437

#### Metadata

| Field        | Value     |
|--------------|-----------|
| Entrypoint   | 0x0694    |
| Data Size    | 357 bytes |
| Instructions | 73        |

```
      00 01 02 03 04 05 06 07  08 09 0A 0B 0C 0D 0E 0F
      -- -- -- -- -- -- -- --  -- -- -- -- -- -- -- --
0690:             42 03 00 00  03 10 03 01 00 04 10 1E      B...........
06A0: F0 FF FF 7F 4A F0 FF FF  7F F8 FF FF 7F 6F 70 27  ....J........op'
06B0: 08 3C C1 0E 01 0F 1D 49  80 23 2A 08 3C C1 0E 01  .<.....I.#*.<...
06C0: 02 01 00 16 80 00 F3 06  1D 4A 80 23 29 08 3C C1  .........J.#).<.
06D0: 0E 01 01 1D 4B 80 23 29  08 3C C1 0E 01 02 29 08  ....K.#).<....).
06E0: 3C C1 0E 01 03 1D 4C 80  23 29 08 3C C1 0E 01 04  <.....L.#).<....
06F0: 01 79 07 02 01 00 25 80  00 22 07 29 08 3C C1 0E  .y....%..".).<..
0700: 01 01 1D 4D 80 23 29 08  3C C1 0E 01 02 29 08 3C  ...M.#).<....).<
0710: C1 0E 01 03 1D 4C 80 23  29 08 3C C1 0E 01 04 01  .....L.#).<.....
0720: 79 07 02 01 00 08 80 00  55 07 1D 4E 80 23 29 08  y.......U..N.#).
0730: 3C C1 0E 01 01 1D 4F 80  23 29 08 3C C1 0E 01 02  <.....O.#).<....
0740: 29 08 3C C1 0E 01 03 1D  50 80 23 29 08 3C C1 0E  ).<.....P.#).<..
0750: 01 04 01 79 07 29 08 3C  C1 0E 01 07 1D 51 80 23  ...y.).<.....Q.#
0760: 29 08 3C C1 0E 01 08 29  08 3C C1 0E 01 09 1D 52  ).<....).<.....R
0770: 80 23 29 08 3C C1 0E 01  0A 1D 53 80 23 45 54 80  .#).<.....S.#ET.
0780: F8 FF FF 7F F8 FF FF 7F  66 64 6F 31 16 80 1C 03  ........fdo1....
0790: 80 CD 55 80 F0 FF FF 7F  F0 FF FF 7F 73 74 61 72  ..U.........star
07A0: 16 80 1C 56 80 CD 55 80  F0 FF FF 7F F0 FF FF 7F  ...V..U.........
07B0: 73 74 6F 70 16 80 1C 57  80 45 54 80 F8 FF FF 7F  stop...W.ET.....
07C0: F8 FF FF 7F 66 64 69 31  16 80 27 08 3C C1 0E 01  ....fdi1..'.<...
07D0: 0E 1D 58 80 23 1D 59 80  23 2A 08 3C C1 0E 01 45  ..X.#.Y.#*.<...E
07E0: 5A 80 F8 FF FF 7F F8 FF  FF 7F 71 73 74 63 16 80  Z.........qstc..
07F0: 03 01 10 00 00 20 00 21  00                       ..... .!.       
```

#### Opcodes

```
  0: 0x0694 [0x42] SET_CLI_EVENT_CANCEL_DATA()
  1: 0x0695 [0x03] ExtData[1]->WorkLocal[0] = Work_Zone[3]
  2: 0x069A [0x03] ExtData[1]->WorkLocal[1] = Work_Zone[4]
  3: 0x069F [0x1E] EventEntity looks at LocalPlayer and starts talking
  4: 0x06A4 [0x4A] LocalPlayer looks at EventEntity
  5: 0x06AD [0x6F] WAIT_FRAME_DELAY: Yield until WaitTime reaches zero
  6: 0x06AE [0x70] WAIT_ENTITY_RENDER_FLAG: Wait while EventEntity->Render.Flags3 bit 2 is set (cancel turn if not)
  7: 0x06AF [0x27] REQ_SET(priority=0x08, entity_id=Clarion Star (ID: 17744188/0x010EC13C), tag_num=0x0F)
  8: 0x06B6 [0x1D] PRINT_EVENT_MESSAGE(message_id=13479*)
    → "I can't believe that you got your hands on $3! Amazing!"
  9: 0x06B9 [0x23] WAIT_FOR_DIALOG_INTERACTION
 10: 0x06BA [0x2A] GET_REQ_LEVEL(level=8, entity_id=Clarion Star (ID: 17744188/0x010EC13C))
 11: 0x06C0 [0x02] IF !(ExtData[1]->WorkLocal[1] == 0*) GOTO 0x06F3
 12: 0x06C8 [0x1D] PRINT_EVENT_MESSAGE(message_id=13480*)
    → "I can't believe such a celebrity would want to participate!"
 13: 0x06CB [0x23] WAIT_FOR_DIALOG_INTERACTION
 14: 0x06CC [0x29] REQ_SET_WAIT(priority=0x08, entity_id=Clarion Star (ID: 17744188/0x010EC13C), tag_num=0x01)
 15: 0x06D3 [0x1D] PRINT_EVENT_MESSAGE(message_id=13481*)
    → "This is all thanks to people like you who have succeeded in calling forth alter egos."
 16: 0x06D6 [0x23] WAIT_FOR_DIALOG_INTERACTION
 17: 0x06D7 [0x29] REQ_SET_WAIT(priority=0x08, entity_id=Clarion Star (ID: 17744188/0x010EC13C), tag_num=0x02)
 18: 0x06DE [0x29] REQ_SET_WAIT(priority=0x08, entity_id=Clarion Star (ID: 17744188/0x010EC13C), tag_num=0x03)
 19: 0x06E5 [0x1D] PRINT_EVENT_MESSAGE(message_id=13482*)
    → "Just let me analyze this data for a...what do you mean, "hurry up"?"
 20: 0x06E8 [0x23] WAIT_FOR_DIALOG_INTERACTION
 21: 0x06E9 [0x29] REQ_SET_WAIT(priority=0x08, entity_id=Clarion Star (ID: 17744188/0x010EC13C), tag_num=0x04)
 22: 0x06F0 [0x01] GOTO 0x0779
 23: 0x06F3 [0x02] IF !(ExtData[1]->WorkLocal[1] == 2*) GOTO 0x0722
 24: 0x06FB [0x29] REQ_SET_WAIT(priority=0x08, entity_id=Clarion Star (ID: 17744188/0x010EC13C), tag_num=0x01)
 25: 0x0702 [0x1D] PRINT_EVENT_MESSAGE(message_id=13494*)
    → "I'll let you in on something--the Trust initiative is being spread beyond the five races...with some very interesting results."
 26: 0x0705 [0x23] WAIT_FOR_DIALOG_INTERACTION
 27: 0x0706 [0x29] REQ_SET_WAIT(priority=0x08, entity_id=Clarion Star (ID: 17744188/0x010EC13C), tag_num=0x02)
 28: 0x070D [0x29] REQ_SET_WAIT(priority=0x08, entity_id=Clarion Star (ID: 17744188/0x010EC13C), tag_num=0x03)
 29: 0x0714 [0x1D] PRINT_EVENT_MESSAGE(message_id=13482*)
    → "Just let me analyze this data for a...what do you mean, "hurry up"?"
 30: 0x0717 [0x23] WAIT_FOR_DIALOG_INTERACTION
 31: 0x0718 [0x29] REQ_SET_WAIT(priority=0x08, entity_id=Clarion Star (ID: 17744188/0x010EC13C), tag_num=0x04)
 32: 0x071F [0x01] GOTO 0x0779
 33: 0x0722 [0x02] IF !(ExtData[1]->WorkLocal[1] == 4*) GOTO 0x0755
 34: 0x072A [0x1D] PRINT_EVENT_MESSAGE(message_id=13483*)
    → "The Trust initiative has seen some outstanding breakthroughs in recent days thanks to the tireless dedication of those like yourself."
 35: 0x072D [0x23] WAIT_FOR_DIALOG_INTERACTION
 36: 0x072E [0x29] REQ_SET_WAIT(priority=0x08, entity_id=Clarion Star (ID: 17744188/0x010EC13C), tag_num=0x01)
 37: 0x0735 [0x1D] PRINT_EVENT_MESSAGE(message_id=13484*)
    → "Your bonds with that person far exceed anything we have ever seen!"
 38: 0x0738 [0x23] WAIT_FOR_DIALOG_INTERACTION
 39: 0x0739 [0x29] REQ_SET_WAIT(priority=0x08, entity_id=Clarion Star (ID: 17744188/0x010EC13C), tag_num=0x02)
 40: 0x0740 [0x29] REQ_SET_WAIT(priority=0x08, entity_id=Clarion Star (ID: 17744188/0x010EC13C), tag_num=0x03)
 41: 0x0747 [0x1D] PRINT_EVENT_MESSAGE(message_id=13485*)
    → "I could espouse for hours about how lucky...what do you mean, "hurry up"?"
 42: 0x074A [0x23] WAIT_FOR_DIALOG_INTERACTION
 43: 0x074B [0x29] REQ_SET_WAIT(priority=0x08, entity_id=Clarion Star (ID: 17744188/0x010EC13C), tag_num=0x04)
 44: 0x0752 [0x01] GOTO 0x0779
 45: 0x0755 [0x29] REQ_SET_WAIT(priority=0x08, entity_id=Clarion Star (ID: 17744188/0x010EC13C), tag_num=0x07)
 46: 0x075C [0x1D] PRINT_EVENT_MESSAGE(message_id=13486*)
    → "Who on Vana'diel is this person? I've never heard of... Ugh. And to think I call myself a fine representative of the institute."
 47: 0x075F [0x23] WAIT_FOR_DIALOG_INTERACTION
 48: 0x0760 [0x29] REQ_SET_WAIT(priority=0x08, entity_id=Clarion Star (ID: 17744188/0x010EC13C), tag_num=0x08)
 49: 0x0767 [0x29] REQ_SET_WAIT(priority=0x08, entity_id=Clarion Star (ID: 17744188/0x010EC13C), tag_num=0x09)
 50: 0x076E [0x1D] PRINT_EVENT_MESSAGE(message_id=13487*)
    → "Hmmmmmm? Okay, okay, I'll make it snappy!"
 51: 0x0771 [0x23] WAIT_FOR_DIALOG_INTERACTION
 52: 0x0772 [0x29] REQ_SET_WAIT(priority=0x08, entity_id=Clarion Star (ID: 17744188/0x010EC13C), tag_num=0x0A)

SUBROUTINE_0779:
 53: 0x0779 [0x1D] PRINT_EVENT_MESSAGE(message_id=13495*)
    → "Close your eyes and go to your happy place, where trust and friendship and [brotherly/sisterly] love blossom like flax flowers in a meadow."
 54: 0x077C [0x23] WAIT_FOR_DIALOG_INTERACTION
 55: 0x077D [0x45] LOAD_SCHEDULED_TASK: Load scheduler "fdo1" with entities [EventEntity, EventEntity], work=[200*, 0*]
 56: 0x078E [0x1C] WAIT(60* ticks)
 57: 0x0791 [0xCD] LOAD_SCHEDULED_TASK_ALT4: Load scheduler "star" with entities [LocalPlayer, LocalPlayer], work=[174*, 0*]
 58: 0x07A2 [0x1C] WAIT(176* ticks)
 59: 0x07A5 [0xCD] LOAD_SCHEDULED_TASK_ALT4: Load scheduler "stop" with entities [LocalPlayer, LocalPlayer], work=[174*, 0*]
 60: 0x07B6 [0x1C] WAIT(300* ticks)
 61: 0x07B9 [0x45] LOAD_SCHEDULED_TASK: Load scheduler "fdi1" with entities [EventEntity, EventEntity], work=[200*, 0*]
 62: 0x07CA [0x27] REQ_SET(priority=0x08, entity_id=Clarion Star (ID: 17744188/0x010EC13C), tag_num=0x0E)
 63: 0x07D1 [0x1D] PRINT_EVENT_MESSAGE(message_id=13496*)
    → "What an amazing success of sorts!"
 64: 0x07D4 [0x23] WAIT_FOR_DIALOG_INTERACTION
 65: 0x07D5 [0x1D] PRINT_EVENT_MESSAGE(message_id=13497*)
    → "So many of our trials ended in failure. I kept hoping it might work...but this--this is beyond my wildest dreams!"
 66: 0x07D8 [0x23] WAIT_FOR_DIALOG_INTERACTION
 67: 0x07D9 [0x2A] GET_REQ_LEVEL(level=8, entity_id=Clarion Star (ID: 17744188/0x010EC13C))
 68: 0x07DF [0x45] LOAD_SCHEDULED_TASK: Load scheduler "qstc" with entities [EventEntity, EventEntity], work=[201*, 0*]
 69: 0x07F0 [0x03] Work_Zone[1] = ExtData[1]->WorkLocal[0]
 70: 0x07F5 [0x20] SET_CLI_EVENT_UC_FLAG: Unlock player control
 71: 0x07F7 [0x21] END_EVENT
 72: 0x07F8 [0x00] END_REQSTACK()
```

### Event 457

#### Metadata

| Field        | Value    |
|--------------|----------|
| Entrypoint   | 0x07F9   |
| Data Size    | 47 bytes |
| Instructions | 15       |

```
      00 01 02 03 04 05 06 07  08 09 0A 0B 0C 0D 0E 0F
      -- -- -- -- -- -- -- --  -- -- -- -- -- -- -- --
07F0:                             1E F0 FF FF 7F 4A F0           .....J.
0800: FF FF 7F F8 FF FF 7F 6F  70 27 08 3C C1 0E 01 11  .......op'.<....
0810: 1C 47 80 1D 5B 80 23 1D  5C 80 23 2A 08 3C C1 0E  .G..[.#.\.#*.<..
0820: 01 48 5D 80 20 00 21 00                           .H]. .!.        
```

#### Opcodes

```
  0: 0x07F9 [0x1E] EventEntity looks at LocalPlayer and starts talking
  1: 0x07FE [0x4A] LocalPlayer looks at EventEntity
  2: 0x0807 [0x6F] WAIT_FRAME_DELAY: Yield until WaitTime reaches zero
  3: 0x0808 [0x70] WAIT_ENTITY_RENDER_FLAG: Wait while EventEntity->Render.Flags3 bit 2 is set (cancel turn if not)
  4: 0x0809 [0x27] REQ_SET(priority=0x08, entity_id=Clarion Star (ID: 17744188/0x010EC13C), tag_num=0x11)
  5: 0x0810 [0x1C] WAIT(20* ticks)
  6: 0x0813 [0x1D] PRINT_EVENT_MESSAGE(message_id=13488*)
    → "A curious case, this one..."
  7: 0x0816 [0x23] WAIT_FOR_DIALOG_INTERACTION
  8: 0x0817 [0x1D] PRINT_EVENT_MESSAGE(message_id=13489*)
    → "Some ethereal force is preventing the cipher from displaying its true potential."
  9: 0x081A [0x23] WAIT_FOR_DIALOG_INTERACTION
 10: 0x081B [0x2A] GET_REQ_LEVEL(level=8, entity_id=Clarion Star (ID: 17744188/0x010EC13C))
 11: 0x0821 [0x48] [System] [13490*]:
    → "You cannot read this cipher due to an event occurring in Rhapsodies of Vana'diel."
 12: 0x0824 [0x20] SET_CLI_EVENT_UC_FLAG: Unlock player control
 13: 0x0826 [0x21] END_EVENT
 14: 0x0827 [0x00] END_REQSTACK()
```

### Event 458

#### Metadata

| Field        | Value     |
|--------------|-----------|
| Entrypoint   | 0x0828    |
| Data Size    | 267 bytes |
| Instructions | 42        |

```
      00 01 02 03 04 05 06 07  08 09 0A 0B 0C 0D 0E 0F
      -- -- -- -- -- -- -- --  -- -- -- -- -- -- -- --
0820:                          42 03 00 00 03 10 1E F0          B.......
0830: FF FF 7F 4A F0 FF FF 7F  F8 FF FF 7F 6F 70 29 08  ...J........op).
0840: 3C C1 0E 01 01 1D 5E 80  23 29 08 3C C1 0E 01 02  <.....^.#).<....
0850: 29 08 3C C1 0E 01 03 1A  D7 0A BA F0 FF FF 7F 5F  ).<............_
0860: 80 60 80 61 80 62 80 79  00 F0 FF FF 7F F8 FF FF  .`.a.b.y........
0870: 7F 79 00 F8 FF FF 7F F0  FF FF 7F 92 01 F8 FF FF  .y..............
0880: 7F 4A F8 FF FF 7F F0 FF  FF 7F 6F 76 F8 FF FF 7F  .J........ov....
0890: 45 63 80 F8 FF FF 7F F8  FF FF 7F 73 30 30 34 16  Ec.........s004.
08A0: 80 45 54 80 F8 FF FF 7F  F8 FF FF 7F 66 64 69 31  .ET.........fdi1
08B0: 16 80 29 08 F0 FF FF 7F  41 1C 64 80 29 08 3C C1  ..).....A.d.).<.
08C0: 0E 01 07 1D 65 80 1C 64  80 23 29 08 3C C1 0E 01  ....e..d.#).<...
08D0: 08 29 08 3C C1 0E 01 09  1D 66 80 23 45 54 80 F8  .).<.....f.#ET..
08E0: FF FF 7F F8 FF FF 7F 66  64 6F 31 16 80 1C 67 80  .......fdo1...g.
08F0: 29 08 3C C1 0E 01 0A 52  63 80 F8 FF FF 7F F8 FF  ).<....Rc.......
0900: FF 7F 73 30 30 34 45 5A  80 F8 FF FF 7F F8 FF FF  ..s004EZ........
0910: 7F 71 73 74 63 16 80 03  01 10 00 00 46 00 45 54  .qstc.......F.ET
0920: 80 F8 FF FF 7F F8 FF FF  7F 66 64 69 31 16 80 20  .........fdi1.. 
0930: 00 21 00                                          .!.             
```

#### Opcodes

```
  0: 0x0828 [0x42] SET_CLI_EVENT_CANCEL_DATA()
  1: 0x0829 [0x03] ExtData[1]->WorkLocal[0] = Work_Zone[3]
  2: 0x082E [0x1E] EventEntity looks at LocalPlayer and starts talking
  3: 0x0833 [0x4A] LocalPlayer looks at EventEntity
  4: 0x083C [0x6F] WAIT_FRAME_DELAY: Yield until WaitTime reaches zero
  5: 0x083D [0x70] WAIT_ENTITY_RENDER_FLAG: Wait while EventEntity->Render.Flags3 bit 2 is set (cancel turn if not)
  6: 0x083E [0x29] REQ_SET_WAIT(priority=0x08, entity_id=Clarion Star (ID: 17744188/0x010EC13C), tag_num=0x01)
  7: 0x0845 [0x1D] PRINT_EVENT_MESSAGE(message_id=13491*)
    → "This cipher appears to be the real deal, but damned if I know who it'll actually call forth. Let's give it a try!"
  8: 0x0848 [0x23] WAIT_FOR_DIALOG_INTERACTION
  9: 0x0849 [0x29] REQ_SET_WAIT(priority=0x08, entity_id=Clarion Star (ID: 17744188/0x010EC13C), tag_num=0x02)
 10: 0x0850 [0x29] REQ_SET_WAIT(priority=0x08, entity_id=Clarion Star (ID: 17744188/0x010EC13C), tag_num=0x03)
 11: 0x0857 [0x1A] CALL_SUBROUTINE(address=0x0AD7)
 12: 0x085A [0xBA] SET_ENTITY_POSITION(entity_id=LocalPlayer, pos_x=83.435*, pos_z=-26.898*, pos_y=7.499*, direction=234.4°*)
 13: 0x0867 [0x79] LocalPlayer looks at EventEntity (Basic look)
 14: 0x0871 [0x79] EventEntity looks at LocalPlayer (Basic look)
 15: 0x087B [0x92] EventEntity->Render.Flags3 ^= 0x01
 16: 0x0881 [0x4A] EventEntity looks at LocalPlayer
 17: 0x088A [0x6F] WAIT_FRAME_DELAY: Yield until WaitTime reaches zero
 18: 0x088B [0x76] CHECK_ENTITY_RENDER_FLAGS: Wait until EventEntity Render.Flags0 and Render.Flags3 conditions are met
 19: 0x0890 [0x45] LOAD_SCHEDULED_TASK: Load scheduler "s004" with entities [EventEntity, EventEntity], work=[101*, 0*]
 20: 0x08A1 [0x45] LOAD_SCHEDULED_TASK: Load scheduler "fdi1" with entities [EventEntity, EventEntity], work=[200*, 0*]
 21: 0x08B2 [0x29] REQ_SET_WAIT(priority=0x08, entity_id=LocalPlayer, tag_num=0x41)
 22: 0x08B9 [0x1C] WAIT(30* ticks)
 23: 0x08BC [0x29] REQ_SET_WAIT(priority=0x08, entity_id=Clarion Star (ID: 17744188/0x010EC13C), tag_num=0x07)
 24: 0x08C3 [0x1D] PRINT_EVENT_MESSAGE(message_id=13492*)
    → "...An apparition, you say?"
 25: 0x08C6 [0x1C] WAIT(30* ticks)
 26: 0x08C9 [0x23] WAIT_FOR_DIALOG_INTERACTION
 27: 0x08CA [0x29] REQ_SET_WAIT(priority=0x08, entity_id=Clarion Star (ID: 17744188/0x010EC13C), tag_num=0x08)
 28: 0x08D1 [0x29] REQ_SET_WAIT(priority=0x08, entity_id=Clarion Star (ID: 17744188/0x010EC13C), tag_num=0x09)
 29: 0x08D8 [0x1D] PRINT_EVENT_MESSAGE(message_id=13493*)
    → "Ah, the fresh face of youth as they acquire a new alter ego. Never shall I tire of it."
 30: 0x08DB [0x23] WAIT_FOR_DIALOG_INTERACTION
 31: 0x08DC [0x45] LOAD_SCHEDULED_TASK: Load scheduler "fdo1" with entities [EventEntity, EventEntity], work=[200*, 0*]
 32: 0x08ED [0x1C] WAIT(120* ticks)
 33: 0x08F0 [0x29] REQ_SET_WAIT(priority=0x08, entity_id=Clarion Star (ID: 17744188/0x010EC13C), tag_num=0x0A)
 34: 0x08F7 [0x52] END_LOAD_SCHEDULER: End scheduler "s004" with entities [EventEntity, EventEntity], work=101*
 35: 0x0906 [0x45] LOAD_SCHEDULED_TASK: Load scheduler "qstc" with entities [EventEntity, EventEntity], work=[201*, 0*]
 36: 0x0917 [0x03] Work_Zone[1] = ExtData[1]->WorkLocal[0]
 37: 0x091C [0x46] CAMERA_CONTROL: Restore default settings
 38: 0x091E [0x45] LOAD_SCHEDULED_TASK: Load scheduler "fdi1" with entities [EventEntity, EventEntity], work=[200*, 0*]
 39: 0x092F [0x20] SET_CLI_EVENT_UC_FLAG: Unlock player control
 40: 0x0931 [0x21] END_EVENT
 41: 0x0932 [0x00] END_REQSTACK()
```

### Event 464

#### Metadata

| Field        | Value     |
|--------------|-----------|
| Entrypoint   | 0x0933    |
| Data Size    | 212 bytes |
| Instructions | 41        |

```
      00 01 02 03 04 05 06 07  08 09 0A 0B 0C 0D 0E 0F
      -- -- -- -- -- -- -- --  -- -- -- -- -- -- -- --
0930:          42 03 00 00 03  10 03 01 00 04 10 1E F0     B............
0940: FF FF 7F 4A F0 FF FF 7F  F8 FF FF 7F 6F 70 27 08  ...J........op'.
0950: 3C C1 0E 01 0F 1D 68 80  23 2A 08 3C C1 0E 01 1D  <.....h.#*.<....
0960: 69 80 23 29 08 3C C1 0E  01 01 1D 6A 80 23 29 08  i.#).<.....j.#).
0970: 3C C1 0E 01 02 29 08 3C  C1 0E 01 03 1D 6B 80 23  <....).<.....k.#
0980: 29 08 3C C1 0E 01 04 1D  6C 80 23 45 54 80 F8 FF  ).<.....l.#ET...
0990: FF 7F F8 FF FF 7F 66 64  6F 31 16 80 1C 03 80 CD  ......fdo1......
09A0: 55 80 F0 FF FF 7F F0 FF  FF 7F 73 74 61 72 16 80  U.........star..
09B0: 1C 56 80 CD 55 80 F0 FF  FF 7F F0 FF FF 7F 73 74  .V..U.........st
09C0: 6F 70 16 80 1C 57 80 45  54 80 F8 FF FF 7F F8 FF  op...W.ET.......
09D0: FF 7F 66 64 69 31 16 80  27 08 3C C1 0E 01 0E 1D  ..fdi1..'.<.....
09E0: 6D 80 23 1D 6E 80 23 2A  08 3C C1 0E 01 45 5A 80  m.#.n.#*.<...EZ.
09F0: F8 FF FF 7F F8 FF FF 7F  71 73 74 63 16 80 03 01  ........qstc....
0A00: 10 00 00 20 00 21 00                              ... .!.         
```

#### Opcodes

```
  0: 0x0933 [0x42] SET_CLI_EVENT_CANCEL_DATA()
  1: 0x0934 [0x03] ExtData[1]->WorkLocal[0] = Work_Zone[3]
  2: 0x0939 [0x03] ExtData[1]->WorkLocal[1] = Work_Zone[4]
  3: 0x093E [0x1E] EventEntity looks at LocalPlayer and starts talking
  4: 0x0943 [0x4A] LocalPlayer looks at EventEntity
  5: 0x094C [0x6F] WAIT_FRAME_DELAY: Yield until WaitTime reaches zero
  6: 0x094D [0x70] WAIT_ENTITY_RENDER_FLAG: Wait while EventEntity->Render.Flags3 bit 2 is set (cancel turn if not)
  7: 0x094E [0x27] REQ_SET(priority=0x08, entity_id=Clarion Star (ID: 17744188/0x010EC13C), tag_num=0x0F)
  8: 0x0955 [0x1D] PRINT_EVENT_MESSAGE(message_id=13500*)
    → "Impressive! It's no small feat to acquire $3!"
  9: 0x0958 [0x23] WAIT_FOR_DIALOG_INTERACTION
 10: 0x0959 [0x2A] GET_REQ_LEVEL(level=8, entity_id=Clarion Star (ID: 17744188/0x010EC13C))
 11: 0x095F [0x1D] PRINT_EVENT_MESSAGE(message_id=13501*)
    → "Doctor Monberaux is a powerful person of sorts in Jeuno. Having an alter ego of him will make your journey that much easier."
 12: 0x0962 [0x23] WAIT_FOR_DIALOG_INTERACTION
 13: 0x0963 [0x29] REQ_SET_WAIT(priority=0x08, entity_id=Clarion Star (ID: 17744188/0x010EC13C), tag_num=0x01)
 14: 0x096A [0x1D] PRINT_EVENT_MESSAGE(message_id=13502*)
    → "The good doctor was a bit surprised to be paid a visit by the Jeuno Institute of Magical Studies. I think he expected a high-ranking friend of his to be chosen first."
 15: 0x096D [0x23] WAIT_FOR_DIALOG_INTERACTION
 16: 0x096E [0x29] REQ_SET_WAIT(priority=0x08, entity_id=Clarion Star (ID: 17744188/0x010EC13C), tag_num=0x02)
 17: 0x0975 [0x29] REQ_SET_WAIT(priority=0x08, entity_id=Clarion Star (ID: 17744188/0x010EC13C), tag_num=0x03)
 18: 0x097C [0x1D] PRINT_EVENT_MESSAGE(message_id=13503*)
    → "You see, his friend Wolf... No, I don't suppose it's our place to talk about that."
 19: 0x097F [0x23] WAIT_FOR_DIALOG_INTERACTION
 20: 0x0980 [0x29] REQ_SET_WAIT(priority=0x08, entity_id=Clarion Star (ID: 17744188/0x010EC13C), tag_num=0x04)
 21: 0x0987 [0x1D] PRINT_EVENT_MESSAGE(message_id=13504*)
    → "Close your eyes while picturing Doctor Monberaux and go to your happy place, where trust and friendship and [brotherly/sisterly] love blossom like flax flowers in a meadow."
 22: 0x098A [0x23] WAIT_FOR_DIALOG_INTERACTION
 23: 0x098B [0x45] LOAD_SCHEDULED_TASK: Load scheduler "fdo1" with entities [EventEntity, EventEntity], work=[200*, 0*]
 24: 0x099C [0x1C] WAIT(60* ticks)
 25: 0x099F [0xCD] LOAD_SCHEDULED_TASK_ALT4: Load scheduler "star" with entities [LocalPlayer, LocalPlayer], work=[174*, 0*]
 26: 0x09B0 [0x1C] WAIT(176* ticks)
 27: 0x09B3 [0xCD] LOAD_SCHEDULED_TASK_ALT4: Load scheduler "stop" with entities [LocalPlayer, LocalPlayer], work=[174*, 0*]
 28: 0x09C4 [0x1C] WAIT(300* ticks)
 29: 0x09C7 [0x45] LOAD_SCHEDULED_TASK: Load scheduler "fdi1" with entities [EventEntity, EventEntity], work=[200*, 0*]
 30: 0x09D8 [0x27] REQ_SET(priority=0x08, entity_id=Clarion Star (ID: 17744188/0x010EC13C), tag_num=0x0E)
 31: 0x09DF [0x1D] PRINT_EVENT_MESSAGE(message_id=13505*)
    → "It's a smashing success!"
 32: 0x09E2 [0x23] WAIT_FOR_DIALOG_INTERACTION
 33: 0x09E3 [0x1D] PRINT_EVENT_MESSAGE(message_id=13506*)
    → "Just as the Institute of Magical Studies suspected, Doctor Monberaux is an excellent candidate of sorts for using Trust magic. This is excellent news!"
 34: 0x09E6 [0x23] WAIT_FOR_DIALOG_INTERACTION
 35: 0x09E7 [0x2A] GET_REQ_LEVEL(level=8, entity_id=Clarion Star (ID: 17744188/0x010EC13C))
 36: 0x09ED [0x45] LOAD_SCHEDULED_TASK: Load scheduler "qstc" with entities [EventEntity, EventEntity], work=[201*, 0*]
 37: 0x09FE [0x03] Work_Zone[1] = ExtData[1]->WorkLocal[0]
 38: 0x0A03 [0x20] SET_CLI_EVENT_UC_FLAG: Unlock player control
 39: 0x0A05 [0x21] END_EVENT
 40: 0x0A06 [0x00] END_REQSTACK()
```

### Event 438

#### Metadata

| Field        | Value     |
|--------------|-----------|
| Entrypoint   | 0x0A07    |
| Data Size    | 207 bytes |
| Instructions | 55        |

```
      00 01 02 03 04 05 06 07  08 09 0A 0B 0C 0D 0E 0F
      -- -- -- -- -- -- -- --  -- -- -- -- -- -- -- --
0A00:                      1E  F0 FF FF 7F 4A F0 FF FF         .....J...
0A10: 7F F8 FF FF 7F 6F 70 03  01 10 0D 80 29 08 3C C1  .....op.....).<.
0A20: 0E 01 01 1D 0C 80 23 29  08 3C C1 0E 01 02 29 08  ......#).<....).
0A30: 3C C1 0E 01 03 1D 11 80  23 27 08 3C C1 0E 01 0B  <.......#'.<....
0A40: 1D 6F 80 23 1D 70 80 23  2A 08 3C C1 0E 01 24 15  .o.#.p.#*.<...$.
0A50: 80 16 80 16 80 25 02 00  10 16 80 00 B1 0A 42 27  .....%........B'
0A60: 08 3C C1 0E 01 0F 1D 17  80 23 1D 18 80 23 2A 08  .<.......#...#*.
0A70: 3C C1 0E 01 29 08 3C C1  0E 01 01 1D 19 80 23 03  <...).<.......#.
0A80: 04 10 0D 80 1D 21 80 23  1D 22 80 23 29 08 3C C1  .....!.#.".#).<.
0A90: 0E 01 02 29 08 3C C1 0E  01 03 1D 23 80 23 29 08  ...).<.....#.#).
0AA0: 3C C1 0E 01 04 1D 24 80  23 03 01 10 25 80 01 D2  <.....$.#...%...
0AB0: 0A 02 00 10 0D 80 00 D2  0A 27 08 3C C1 0E 01 11  .........'.<....
0AC0: 1D 27 80 23 2A 08 3C C1  0E 01 03 01 10 0D 80 01  .'.#*.<.........
0AD0: D2 0A 20 00 21 00                                 .. .!.          
```

#### Opcodes

```
  0: 0x0A07 [0x1E] EventEntity looks at LocalPlayer and starts talking
  1: 0x0A0C [0x4A] LocalPlayer looks at EventEntity
  2: 0x0A15 [0x6F] WAIT_FRAME_DELAY: Yield until WaitTime reaches zero
  3: 0x0A16 [0x70] WAIT_ENTITY_RENDER_FLAG: Wait while EventEntity->Render.Flags3 bit 2 is set (cancel turn if not)
  4: 0x0A17 [0x03] Work_Zone[1] = 1*
  5: 0x0A1C [0x29] REQ_SET_WAIT(priority=0x08, entity_id=Clarion Star (ID: 17744188/0x010EC13C), tag_num=0x01)
  6: 0x0A23 [0x1D] PRINT_EVENT_MESSAGE(message_id=13434*)
    → "You can call me Clarion Star. I've come from Jeuno, the lovely city in the northeast that connects the Quon and Mindartia continents."
  7: 0x0A26 [0x23] WAIT_FOR_DIALOG_INTERACTION
  8: 0x0A27 [0x29] REQ_SET_WAIT(priority=0x08, entity_id=Clarion Star (ID: 17744188/0x010EC13C), tag_num=0x02)
  9: 0x0A2E [0x29] REQ_SET_WAIT(priority=0x08, entity_id=Clarion Star (ID: 17744188/0x010EC13C), tag_num=0x03)
 10: 0x0A35 [0x1D] PRINT_EVENT_MESSAGE(message_id=13437*)
    → "So here's the deal. Not too long ago, the institute held an international symposium of sorts, at which we announced the development of a fascinatingly useful new type of magic."
 11: 0x0A38 [0x23] WAIT_FOR_DIALOG_INTERACTION
 12: 0x0A39 [0x27] REQ_SET(priority=0x08, entity_id=Clarion Star (ID: 17744188/0x010EC13C), tag_num=0x0B)
 13: 0x0A40 [0x1D] PRINT_EVENT_MESSAGE(message_id=13498*)
    → "H-how did you know that it's called "Trust"!? Were you at the symposium?"
 14: 0x0A43 [0x23] WAIT_FOR_DIALOG_INTERACTION
 15: 0x0A44 [0x1D] PRINT_EVENT_MESSAGE(message_id=13499*)
    → "Ohhh, I see. You got a lesson of sorts in one of the other nations. This makes it simple. How's about undertaking Trust experiments here in Bastok?"
 16: 0x0A47 [0x23] WAIT_FOR_DIALOG_INTERACTION
 17: 0x0A48 [0x2A] GET_REQ_LEVEL(level=8, entity_id=Clarion Star (ID: 17744188/0x010EC13C))
 18: 0x0A4E [0x24] CREATE_DIALOG(message_id=13441*, default_option=0*, option_flags=0*)
    → "Try out the new magic? [What have I got to lose?/Magic scares me.]"
 19: 0x0A55 [0x25] WAIT_DIALOG_SELECT()
 20: 0x0A56 [0x02] IF !(Work_Zone[0] == 0*) GOTO 0x0AB1
 21: 0x0A5E [0x42] SET_CLI_EVENT_CANCEL_DATA()
 22: 0x0A5F [0x27] REQ_SET(priority=0x08, entity_id=Clarion Star (ID: 17744188/0x010EC13C), tag_num=0x0F)
 23: 0x0A66 [0x1D] PRINT_EVENT_MESSAGE(message_id=13443*)
    → "That's the kind of spunk I like!"
 24: 0x0A69 [0x23] WAIT_FOR_DIALOG_INTERACTION
 25: 0x0A6A [0x1D] PRINT_EVENT_MESSAGE(message_id=13444*)
    → "You're surely aware that Bastok is no stranger to developing new technologies, and as such Cid and the Mythril Musketeers are conducting research of sorts into the application of this new magic."
 26: 0x0A6D [0x23] WAIT_FOR_DIALOG_INTERACTION
 27: 0x0A6E [0x2A] GET_REQ_LEVEL(level=8, entity_id=Clarion Star (ID: 17744188/0x010EC13C))
 28: 0x0A74 [0x29] REQ_SET_WAIT(priority=0x08, entity_id=Clarion Star (ID: 17744188/0x010EC13C), tag_num=0x01)
 29: 0x0A7B [0x1D] PRINT_EVENT_MESSAGE(message_id=13445*)
    → "You know how they are--always at odds with the Beastman Confederate. They think that Trust might be able to help "bolster their forces," they say."
 30: 0x0A7E [0x23] WAIT_FOR_DIALOG_INTERACTION
 31: 0x0A7F [0x03] Work_Zone[4] = 1*
 32: 0x0A84 [0x1D] PRINT_EVENT_MESSAGE(message_id=13454*)
    → "[If that's the case,/Okay! So] let's get right to it. Before we go any further, let me give you this."
 33: 0x0A87 [0x23] WAIT_FOR_DIALOG_INTERACTION
 34: 0x0A88 [0x1D] PRINT_EVENT_MESSAGE(message_id=13455*)
    → "Your first task of sorts is to speak with Naji of the Mythril Musketeers, in the Metalworks. He can guide you further."
 35: 0x0A8B [0x23] WAIT_FOR_DIALOG_INTERACTION
 36: 0x0A8C [0x29] REQ_SET_WAIT(priority=0x08, entity_id=Clarion Star (ID: 17744188/0x010EC13C), tag_num=0x02)
 37: 0x0A93 [0x29] REQ_SET_WAIT(priority=0x08, entity_id=Clarion Star (ID: 17744188/0x010EC13C), tag_num=0x03)
 38: 0x0A9A [0x1D] PRINT_EVENT_MESSAGE(message_id=13456*)
    → "Do you know where it is? Just head up the staircase behind me and cross the bridge to the west. Someone in the markets just past there can guide you further."
 39: 0x0A9D [0x23] WAIT_FOR_DIALOG_INTERACTION
 40: 0x0A9E [0x29] REQ_SET_WAIT(priority=0x08, entity_id=Clarion Star (ID: 17744188/0x010EC13C), tag_num=0x04)
 41: 0x0AA5 [0x1D] PRINT_EVENT_MESSAGE(message_id=13457*)
    → "Take the lift up to the second floor, where you'll find him waiting by the staircase that leads to the president's office. No one across the land is as faithful or skilled a guard as he."
 42: 0x0AA8 [0x23] WAIT_FOR_DIALOG_INTERACTION
 43: 0x0AA9 [0x03] Work_Zone[1] = 2*
 44: 0x0AAE [0x01] GOTO 0x0AD2
 45: 0x0AB1 [0x02] IF !(Work_Zone[0] == 1*) GOTO 0x0AD2
 46: 0x0AB9 [0x27] REQ_SET(priority=0x08, entity_id=Clarion Star (ID: 17744188/0x010EC13C), tag_num=0x11)
 47: 0x0AC0 [0x1D] PRINT_EVENT_MESSAGE(message_id=13442*)
    → "An adventurer of sorts scared of magic? Pffft. Your loss, bud."
 48: 0x0AC3 [0x23] WAIT_FOR_DIALOG_INTERACTION
 49: 0x0AC4 [0x2A] GET_REQ_LEVEL(level=8, entity_id=Clarion Star (ID: 17744188/0x010EC13C))
 50: 0x0ACA [0x03] Work_Zone[1] = 1*
 51: 0x0ACF [0x01] GOTO 0x0AD2

SUBROUTINE_0AD2:
 52: 0x0AD2 [0x20] SET_CLI_EVENT_UC_FLAG: Unlock player control
 53: 0x0AD4 [0x21] END_EVENT
 54: 0x0AD5 [0x00] END_REQSTACK()
```

### Event 443

#### Metadata

| Field        | Value      |
|--------------|------------|
| Entrypoint   | 0x0AD6     |
| Data Size    | 1751 bytes |
| Instructions | 1          |

```
      00 01 02 03 04 05 06 07  08 09 0A 0B 0C 0D 0E 0F
      -- -- -- -- -- -- -- --  -- -- -- -- -- -- -- --
0AD0:                   00 42  46 01 5D 16 80 67 80 45        .BF.]..g.E
0AE0: 5A 80 F0 FF FF 7F F0 FF  FF 7F 77 68 6F 31 16 80  Z.........who1..
0AF0: 55 5A 80 F0 FF FF 7F F0  FF FF 7F 77 68 6F 31 38  UZ.........who18
0B00: 09 80 4E 00 41 C1 0E 01  BA 41 C1 0E 01 71 80 72  ..N.A....A...q.r
0B10: 80 73 80 74 80 BA F0 FF  FF 7F 75 80 76 80 77 80  .s.t......u.v.w.
0B20: 78 80 2F 00 42 C1 0E 01  29 08 42 C1 0E 01 1E 4E  x./.B...).B....N
0B30: 00 42 C1 0E 01 BA 42 C1  0E 01 79 80 7A 80 7B 80  .B....B...y.z.{.
0B40: 7C 80 4A 42 C1 0E 01 F0  FF FF 7F 2F 00 43 C1 0E  |.JB......./.C..
0B50: 01 29 08 43 C1 0E 01 09  4E 00 43 C1 0E 01 BA 43  .).C....N.C....C
0B60: C1 0E 01 7D 80 7E 80 7B  80 7F 80 4A 43 C1 0E 01  ...}.~.{...JC...
0B70: F0 FF FF 7F 2F 00 46 C1  0E 01 29 08 46 C1 0E 01  ..../.F...).F...
0B80: 05 4E 00 46 C1 0E 01 BA  46 C1 0E 01 80 80 81 80  .N.F....F.......
0B90: 7B 80 7F 80 4A 46 C1 0E  01 F0 FF FF 7F 2F 00 45  {...JF......./.E
0BA0: C1 0E 01 29 08 45 C1 0E  01 0F 4E 00 45 C1 0E 01  ...).E....N.E...
0BB0: BA 45 C1 0E 01 82 80 83  80 7B 80 84 80 4A 45 C1  .E.......{...JE.
0BC0: 0E 01 F0 FF FF 7F 2F 00  44 C1 0E 01 29 08 44 C1  ....../.D...).D.
0BD0: 0E 01 06 4E 00 44 C1 0E  01 BA 44 C1 0E 01 85 80  ...N.D....D.....
0BE0: 86 80 7B 80 87 80 4A 44  C1 0E 01 F0 FF FF 7F 80  ..{...JD........
0BF0: 42 C1 0E 01 92 01 42 C1  0E 01 6F 76 42 C1 0E 01  B.....B...ovB...
0C00: 80 43 C1 0E 01 92 01 43  C1 0E 01 6F 76 43 C1 0E  .C.....C...ovC..
0C10: 01 80 46 C1 0E 01 92 01  46 C1 0E 01 6F 76 46 C1  ..F.....F...ovF.
0C20: 0E 01 80 45 C1 0E 01 92  01 45 C1 0E 01 6F 76 45  ...E.....E...ovE
0C30: C1 0E 01 80 44 C1 0E 01  92 01 44 C1 0E 01 6F 76  ....D.....D...ov
0C40: 44 C1 0E 01 7B 42 C1 0E  01 7B 43 C1 0E 01 7B 44  D...{B...{C...{D
0C50: C1 0E 01 1C 64 80 80 41  C1 0E 01 D0 88 80 41 C1  ....d..A......A.
0C60: 0E 01 41 C1 0E 01 6D 61  69 6E 16 80 D0 89 80 41  ..A...main.....A
0C70: C1 0E 01 41 C1 0E 01 73  74 72 30 16 80 1C 64 80  ...A...str0...d.
0C80: 02 05 10 8A 80 00 9F 0C  79 00 46 C1 0E 01 F0 FF  ........y.F.....
0C90: FF 7F 79 00 F0 FF FF 7F  46 C1 0E 01 01 D0 0C 02  ..y.....F.......
0CA0: 05 10 8B 80 00 BE 0C 79  00 45 C1 0E 01 F0 FF FF  .......y.E......
0CB0: 7F 79 00 F0 FF FF 7F 45  C1 0E 01 01 D0 0C 02 05  .y.....E........
0CC0: 10 8C 80 00 D0 0C 79 00  F0 FF FF 7F 44 C1 0E 01  ......y.....D...
0CD0: 02 05 10 8D 80 00 EC 0C  45 63 80 F8 FF FF 7F F8  ........Ec......
0CE0: FF FF 7F 73 30 30 39 16  80 01 59 0D 02 05 10 8E  ...s009...Y.....
0CF0: 80 00 08 0D 45 63 80 F8  FF FF 7F F8 FF FF 7F 73  ....Ec.........s
0D00: 31 33 33 16 80 01 59 0D  02 05 10 8A 80 00 24 0D  133...Y.......$.
0D10: 45 63 80 F8 FF FF 7F F8  FF FF 7F 73 31 33 33 16  Ec.........s133.
0D20: 80 01 59 0D 02 05 10 8B  80 00 40 0D 45 63 80 F8  ..Y.......@.Ec..
0D30: FF FF 7F F8 FF FF 7F 73  31 33 33 16 80 01 59 0D  .......s133...Y.
0D40: 02 05 10 8C 80 00 59 0D  45 63 80 F8 FF FF 7F F8  ......Y.Ec......
0D50: FF FF 7F 73 31 33 33 16  80 45 54 80 F8 FF FF 7F  ...s133..ET.....
0D60: F8 FF FF 7F 66 64 69 31  16 80 45 5A 80 F0 FF FF  ....fdi1..EZ....
0D70: 7F F0 FF FF 7F 77 68 69  31 16 80 55 5A 80 F0 FF  .....whi1..UZ...
0D80: FF 7F F0 FF FF 7F 77 68  69 31 3E 07 10 16 80 94  ......whi1>.....
0D90: 0D 01 9B 0D 27 08 42 C1  0E 01 20 3E 07 10 0D 80  ....'.B... >....
0DA0: A5 0D 01 AC 0D 27 08 43  C1 0E 01 0B 3E 07 10 25  .....'.C....>..%
0DB0: 80 B6 0D 01 BD 0D 27 08  46 C1 0E 01 07 1C 67 80  ......'.F.....g.
0DC0: 02 05 10 8D 80 00 DA 0D  52 63 80 F8 FF FF 7F F8  ........Rc......
0DD0: FF FF 7F 73 30 30 39 01  3F 0E 02 05 10 8E 80 00  ...s009.?.......
0DE0: F4 0D 52 63 80 F8 FF FF  7F F8 FF FF 7F 73 31 33  ..Rc.........s13
0DF0: 33 01 3F 0E 02 05 10 8A  80 00 0E 0E 52 63 80 F8  3.?.........Rc..
0E00: FF FF 7F F8 FF FF 7F 73  31 33 33 01 3F 0E 02 05  .......s133.?...
0E10: 10 8B 80 00 28 0E 52 63  80 F8 FF FF 7F F8 FF FF  ....(.Rc........
0E20: 7F 73 31 33 33 01 3F 0E  02 05 10 8C 80 00 3F 0E  .s133.?.......?.
0E30: 52 63 80 F8 FF FF 7F F8  FF FF 7F 73 31 33 33 45  Rc.........s133E
0E40: 63 80 F8 FF FF 7F F8 FF  FF 7F 73 31 33 34 16 80  c.........s134..
0E50: 3E 07 10 3A 80 5A 0E 01  61 0E 27 08 45 C1 0E 01  >..:.Z..a.'.E...
0E60: 11 3E 07 10 08 80 6B 0E  01 72 0E 27 08 44 C1 0E  .>....k..r.'.D..
0E70: 01 08 1C 67 80 2A 08 42  C1 0E 01 BA 42 C1 0E 01  ...g.*.B....B...
0E80: 8F 80 90 80 7B 80 7C 80  52 63 80 F8 FF FF 7F F8  ....{.|.Rc......
0E90: FF FF 7F 73 31 33 34 02  05 10 8D 80 00 B3 0E 45  ...s134........E
0EA0: 63 80 F8 FF FF 7F F8 FF  FF 7F 73 30 30 36 16 80  c.........s006..
0EB0: 01 00 10 02 05 10 8E 80  00 CF 0E 45 63 80 F8 FF  ...........Ec...
0EC0: FF 7F F8 FF FF 7F 73 30  30 36 16 80 01 00 10 02  ......s006......
0ED0: 05 10 8A 80 00 EB 0E 45  63 80 F8 FF FF 7F F8 FF  .......Ec.......
0EE0: FF 7F 73 30 30 36 16 80  01 00 10 02 05 10 8B 80  ..s006..........
0EF0: 00 77 0F 02 87 7F 3F 80  80 0F 0F 45 63 80 F8 FF  .w....?....Ec...
0F00: FF 7F F8 FF FF 7F 73 30  30 37 16 80 01 74 0F 02  ......s007...t..
0F10: 87 7F 05 80 80 2B 0F 45  63 80 F8 FF FF 7F F8 FF  .....+.Ec.......
0F20: FF 7F 73 30 30 37 16 80  01 74 0F 02 07 10 44 80  ..s007...t....D.
0F30: 00 47 0F 45 63 80 F8 FF  FF 7F F8 FF FF 7F 73 31  .G.Ec.........s1
0F40: 35 39 16 80 01 74 0F 02  07 10 91 80 00 63 0F 45  59...t.......c.E
0F50: 63 80 F8 FF FF 7F F8 FF  FF 7F 73 31 35 39 16 80  c.........s159..
0F60: 01 74 0F 45 63 80 F8 FF  FF 7F F8 FF FF 7F 73 31  .t.Ec.........s1
0F70: 33 31 16 80 01 00 10 02  05 10 8C 80 00 00 10 02  31..............
0F80: 87 7F 3F 80 80 9B 0F 45  63 80 F8 FF FF 7F F8 FF  ..?....Ec.......
0F90: FF 7F 73 30 30 37 16 80  01 00 10 02 87 7F 05 80  ..s007..........
0FA0: 80 B7 0F 45 63 80 F8 FF  FF 7F F8 FF FF 7F 73 30  ...Ec.........s0
0FB0: 30 37 16 80 01 00 10 02  07 10 44 80 00 D3 0F 45  07........D....E
0FC0: 63 80 F8 FF FF 7F F8 FF  FF 7F 73 31 35 39 16 80  c.........s159..
0FD0: 01 00 10 02 07 10 91 80  00 EF 0F 45 63 80 F8 FF  ...........Ec...
0FE0: FF 7F F8 FF FF 7F 73 31  35 39 16 80 01 00 10 45  ......s159.....E
0FF0: 63 80 F8 FF FF 7F F8 FF  FF 7F 73 31 33 31 16 80  c.........s131..
1000: 02 05 10 8D 80 00 15 10  79 00 F0 FF FF 7F 42 C1  ........y.....B.
1010: 0E 01 01 27 10 02 05 10  8E 80 00 27 10 79 00 F0  ...'.......'.y..
1020: FF FF 7F 43 C1 0E 01 CD  55 80 F0 FF FF 7F F0 FF  ...C....U.......
1030: FF 7F 73 74 61 72 16 80  1C 3B 80 CD 55 80 F0 FF  ..star...;..U...
1040: FF 7F F0 FF FF 7F 73 74  6F 70 16 80 1C 3B 80 45  ......stop...;.E
1050: 5A 80 F0 FF FF 7F F0 FF  FF 7F 77 68 6F 31 16 80  Z.........who1..
1060: 55 5A 80 F0 FF FF 7F F0  FF FF 7F 77 68 6F 31 52  UZ.........who1R
1070: 63 80 F8 FF FF 7F F8 FF  FF 7F 73 31 35 39 52 63  c.........s159Rc
1080: 80 F8 FF FF 7F F8 FF FF  7F 73 31 33 31 52 63 80  .........s131Rc.
1090: F8 FF FF 7F F8 FF FF 7F  73 30 30 35 52 63 80 F8  ........s005Rc..
10A0: FF FF 7F F8 FF FF 7F 73  30 30 32 52 63 80 F8 FF  .......s002Rc...
10B0: FF 7F F8 FF FF 7F 73 30  30 36 52 63 80 F8 FF FF  ......s006Rc....
10C0: 7F F8 FF FF 7F 73 30 30  37 52 63 80 F8 FF FF 7F  .....s007Rc.....
10D0: F8 FF FF 7F 73 30 30 38  45 63 80 F8 FF FF 7F F8  ....s008Ec......
10E0: FF FF 7F 73 62 6F 66 16  80 1C 64 80 2A 08 43 C1  ...sbof...d.*.C.
10F0: 0E 01 2A 08 46 C1 0E 01  2A 08 45 C1 0E 01 2A 08  ..*.F...*.E...*.
1100: 44 C1 0E 01 29 08 42 C1  0E 01 17 29 08 43 C1 0E  D...).B....).C..
1110: 01 07 29 08 46 C1 0E 01  03 29 08 45 C1 0E 01 02  ..).F....).E....
1120: 29 08 44 C1 0E 01 04 4E  01 42 C1 0E 01 4E 01 43  ).D....N.B...N.C
1130: C1 0E 01 4E 01 46 C1 0E  01 4E 01 45 C1 0E 01 4E  ...N.F...N.E...N
1140: 01 44 C1 0E 01 5D 92 80  67 80 1C 64 80 D0 88 80  .D...]..g..d....
1150: 41 C1 0E 01 41 C1 0E 01  6B 6C 61 6C 16 80 D0 89  A...A...klal....
1160: 80 41 C1 0E 01 41 C1 0E  01 6B 69 6C 6C 16 80 1C  .A...A...kill...
1170: 0D 80 4E 01 41 C1 0E 01  45 54 80 F8 FF FF 7F F8  ..N.A...ET......
1180: FF FF 7F 66 64 6F 31 16  80 1C 67 80 45 5A 80 F0  ...fdo1...g.EZ..
1190: FF FF 7F F0 FF FF 7F 77  68 69 31 16 80 55 5A 80  .......whi1..UZ.
11A0: F0 FF FF 7F F0 FF FF 7F  77 68 69 31 1B           ........whi1.   
```

#### Opcodes

```
  0: 0x0AD6 [0x00] END_REQSTACK()
```

#### Data or dead code:

```
# Dead code (unreachable instructions):
     0x0AD7 [0x42] SET_CLI_EVENT_CANCEL_DATA()
     0x0AD8 [0x46] CAMERA_CONTROL: Disable user control
     0x0ADA [0x5D] SET_MUSIC_VOLUME(volume=0*, fade_time=120*)
     0x0ADF [0x45] LOAD_SCHEDULED_TASK: Load scheduler "who1" with entities [LocalPlayer, LocalPlayer], work=[201*, 0*]
     0x0AF0 [0x55] WAIT_LOAD_SCHEDULER: Wait for scheduler "who1" with entities [LocalPlayer, LocalPlayer], work=201*
     0x0AFF [0x38] SET_CLIENT_EVENT_MODE(mode=19*)
     0x0B02 [0x4E] SET_ENTITY_HIDE_FLAG: Show Unnamed NPC (ID: 17744193/0x010EC141)
     0x0B08 [0xBA] SET_ENTITY_POSITION(entity_id=Unnamed NPC (ID: 17744193/0x010EC141), pos_x=1.731*, pos_z=145.773*, pos_y=-210.000*, direction=189.7°*)
     0x0B15 [0xBA] SET_ENTITY_POSITION(entity_id=LocalPlayer, pos_x=-2.772*, pos_z=146.020*, pos_y=-209.000*, direction=9.6°*)
     0x0B22 [0x2F] Iroha (ID: 17744194/0x010EC142)->Render.Flags0 &= ~0x80000 // Bit 19
     0x0B28 [0x29] REQ_SET_WAIT(priority=0x08, entity_id=Iroha (ID: 17744194/0x010EC142), tag_num=0x1E)
     0x0B2F [0x4E] SET_ENTITY_HIDE_FLAG: Show Iroha (ID: 17744194/0x010EC142)
     0x0B35 [0xBA] SET_ENTITY_POSITION(entity_id=Iroha (ID: 17744194/0x010EC142), pos_x=3.500*, pos_z=147.973*, pos_y=-210.500*, direction=168.2°*)
     0x0B42 [0x4A] Iroha (ID: 17744194/0x010EC142) looks at LocalPlayer
     0x0B4B [0x2F] Lion (ID: 17744195/0x010EC143)->Render.Flags0 &= ~0x80000 // Bit 19
     0x0B51 [0x29] REQ_SET_WAIT(priority=0x08, entity_id=Lion (ID: 17744195/0x010EC143), tag_num=0x09)
     0x0B58 [0x4E] SET_ENTITY_HIDE_FLAG: Show Lion (ID: 17744195/0x010EC143)
     0x0B5E [0xBA] SET_ENTITY_POSITION(entity_id=Lion (ID: 17744195/0x010EC143), pos_x=5.560*, pos_z=147.711*, pos_y=-210.500*, direction=152.5°*)
     0x0B6B [0x4A] Lion (ID: 17744195/0x010EC143) looks at LocalPlayer
     0x0B74 [0x2F] Selh'teus (ID: 17744198/0x010EC146)->Render.Flags0 &= ~0x80000 // Bit 19
     0x0B7A [0x29] REQ_SET_WAIT(priority=0x08, entity_id=Selh'teus (ID: 17744198/0x010EC146), tag_num=0x05)
     0x0B81 [0x4E] SET_ENTITY_HIDE_FLAG: Show Selh'teus (ID: 17744198/0x010EC146)
     0x0B87 [0xBA] SET_ENTITY_POSITION(entity_id=Selh'teus (ID: 17744198/0x010EC146), pos_x=5.029*, pos_z=148.843*, pos_y=-210.500*, direction=152.5°*)
     0x0B94 [0x4A] Selh'teus (ID: 17744198/0x010EC146) looks at LocalPlayer
     0x0B9D [0x2F] Unnamed NPC (ID: 17744197/0x010EC145)->Render.Flags0 &= ~0x80000 // Bit 19
     0x0BA3 [0x29] REQ_SET_WAIT(priority=0x08, entity_id=Unnamed NPC (ID: 17744197/0x010EC145), tag_num=0x0F)
     0x0BAA [0x4E] SET_ENTITY_HIDE_FLAG: Show Unnamed NPC (ID: 17744197/0x010EC145)
     0x0BB0 [0xBA] SET_ENTITY_POSITION(entity_id=Unnamed NPC (ID: 17744197/0x010EC145), pos_x=3.502*, pos_z=142.650*, pos_y=-210.500*, direction=215.3°*)
     0x0BBD [0x4A] Unnamed NPC (ID: 17744197/0x010EC145) looks at LocalPlayer
     0x0BC6 [0x2F] Zeid (ID: 17744196/0x010EC144)->Render.Flags0 &= ~0x80000 // Bit 19
     0x0BCC [0x29] REQ_SET_WAIT(priority=0x08, entity_id=Zeid (ID: 17744196/0x010EC144), tag_num=0x06)
     0x0BD3 [0x4E] SET_ENTITY_HIDE_FLAG: Show Zeid (ID: 17744196/0x010EC144)
     0x0BD9 [0xBA] SET_ENTITY_POSITION(entity_id=Zeid (ID: 17744196/0x010EC144), pos_x=3.190*, pos_z=143.932*, pos_y=-210.500*, direction=207.7°*)
     0x0BE6 [0x4A] Zeid (ID: 17744196/0x010EC144) looks at LocalPlayer
     0x0BEF [0x80] LOAD_WAIT(entity=Iroha (ID: 17744194/0x010EC142))
     0x0BF4 [0x92] Iroha (ID: 17744194/0x010EC142)->Render.Flags3 ^= 0x01
     0x0BFA [0x6F] WAIT_FRAME_DELAY: Yield until WaitTime reaches zero
     0x0BFB [0x76] CHECK_ENTITY_RENDER_FLAGS: Wait until Iroha (ID: 17744194/0x010EC142) Render.Flags0 and Render.Flags3 conditions are met
     0x0C00 [0x80] LOAD_WAIT(entity=Lion (ID: 17744195/0x010EC143))
     0x0C05 [0x92] Lion (ID: 17744195/0x010EC143)->Render.Flags3 ^= 0x01
     0x0C0B [0x6F] WAIT_FRAME_DELAY: Yield until WaitTime reaches zero
     0x0C0C [0x76] CHECK_ENTITY_RENDER_FLAGS: Wait until Lion (ID: 17744195/0x010EC143) Render.Flags0 and Render.Flags3 conditions are met
     0x0C11 [0x80] LOAD_WAIT(entity=Selh'teus (ID: 17744198/0x010EC146))
     0x0C16 [0x92] Selh'teus (ID: 17744198/0x010EC146)->Render.Flags3 ^= 0x01
     0x0C1C [0x6F] WAIT_FRAME_DELAY: Yield until WaitTime reaches zero
     0x0C1D [0x76] CHECK_ENTITY_RENDER_FLAGS: Wait until Selh'teus (ID: 17744198/0x010EC146) Render.Flags0 and Render.Flags3 conditions are met
     0x0C22 [0x80] LOAD_WAIT(entity=Unnamed NPC (ID: 17744197/0x010EC145))
     0x0C27 [0x92] Unnamed NPC (ID: 17744197/0x010EC145)->Render.Flags3 ^= 0x01
     0x0C2D [0x6F] WAIT_FRAME_DELAY: Yield until WaitTime reaches zero
     0x0C2E [0x76] CHECK_ENTITY_RENDER_FLAGS: Wait until Unnamed NPC (ID: 17744197/0x010EC145) Render.Flags0 and Render.Flags3 conditions are met
     0x0C33 [0x80] LOAD_WAIT(entity=Zeid (ID: 17744196/0x010EC144))
     0x0C38 [0x92] Zeid (ID: 17744196/0x010EC144)->Render.Flags3 ^= 0x01
     0x0C3E [0x6F] WAIT_FRAME_DELAY: Yield until WaitTime reaches zero
     0x0C3F [0x76] CHECK_ENTITY_RENDER_FLAGS: Wait until Zeid (ID: 17744196/0x010EC144) Render.Flags0 and Render.Flags3 conditions are met
     0x0C44 [0x7B] Iroha (ID: 17744194/0x010EC142) stops talking
     0x0C49 [0x7B] Lion (ID: 17744195/0x010EC143) stops talking
     0x0C4E [0x7B] Zeid (ID: 17744196/0x010EC144) stops talking
     0x0C53 [0x1C] WAIT(30* ticks)
     0x0C56 [0x80] LOAD_WAIT(entity=Unnamed NPC (ID: 17744193/0x010EC141))
     0x0C5B [0xD0] LOAD_SCHEDULED_TASK_ALT5: Load scheduler "main" with entities [Unnamed NPC (ID: 17744193/0x010EC141), Unnamed NPC (ID: 17744193/0x010EC141)], work=[161*, 0*]
     0x0C6C [0xD0] LOAD_SCHEDULED_TASK_ALT5: Load scheduler "str0" with entities [Unnamed NPC (ID: 17744193/0x010EC141), Unnamed NPC (ID: 17744193/0x010EC141)], work=[232*, 0*]
     0x0C7D [0x1C] WAIT(30* ticks)
     0x0C80 [0x02] IF !(Work_Zone[5] == 10190*) GOTO 0x0C9F
     0x0C88 [0x79] Selh'teus (ID: 17744198/0x010EC146) looks at LocalPlayer (Basic look)
     0x0C92 [0x79] LocalPlayer looks at Selh'teus (ID: 17744198/0x010EC146) (Basic look)
     0x0C9C [0x01] GOTO 0x0CD0
     0x0C9F [0x02] IF !(Work_Zone[5] == 10189*) GOTO 0x0CBE
     0x0CA7 [0x79] Unnamed NPC (ID: 17744197/0x010EC145) looks at LocalPlayer (Basic look)
     0x0CB1 [0x79] LocalPlayer looks at Unnamed NPC (ID: 17744197/0x010EC145) (Basic look)
     0x0CBB [0x01] GOTO 0x0CD0
     0x0CBE [0x02] IF !(Work_Zone[5] == 10192*) GOTO 0x0CD0
     0x0CC6 [0x79] LocalPlayer looks at Zeid (ID: 17744196/0x010EC144) (Basic look)
     0x0CD0 [0x02] IF !(Work_Zone[5] == 10188*) GOTO 0x0CEC
     0x0CD8 [0x45] LOAD_SCHEDULED_TASK: Load scheduler "s009" with entities [EventEntity, EventEntity], work=[101*, 0*]
     0x0CE9 [0x01] GOTO 0x0D59
     0x0CEC [0x02] IF !(Work_Zone[5] == 10191*) GOTO 0x0D08
     0x0CF4 [0x45] LOAD_SCHEDULED_TASK: Load scheduler "s133" with entities [EventEntity, EventEntity], work=[101*, 0*]
     0x0D05 [0x01] GOTO 0x0D59
     0x0D08 [0x02] IF !(Work_Zone[5] == 10190*) GOTO 0x0D24
     0x0D10 [0x45] LOAD_SCHEDULED_TASK: Load scheduler "s133" with entities [EventEntity, EventEntity], work=[101*, 0*]
     0x0D21 [0x01] GOTO 0x0D59
     0x0D24 [0x02] IF !(Work_Zone[5] == 10189*) GOTO 0x0D40
     0x0D2C [0x45] LOAD_SCHEDULED_TASK: Load scheduler "s133" with entities [EventEntity, EventEntity], work=[101*, 0*]
     0x0D3D [0x01] GOTO 0x0D59
     0x0D40 [0x02] IF !(Work_Zone[5] == 10192*) GOTO 0x0D59
     0x0D48 [0x45] LOAD_SCHEDULED_TASK: Load scheduler "s133" with entities [EventEntity, EventEntity], work=[101*, 0*]
     0x0D59 [0x45] LOAD_SCHEDULED_TASK: Load scheduler "fdi1" with entities [EventEntity, EventEntity], work=[200*, 0*]
     0x0D6A [0x45] LOAD_SCHEDULED_TASK: Load scheduler "whi1" with entities [LocalPlayer, LocalPlayer], work=[201*, 0*]
     0x0D7B [0x55] WAIT_LOAD_SCHEDULER: Wait for scheduler "whi1" with entities [LocalPlayer, LocalPlayer], work=201*
     0x0D8A [0x3E] IF !(Work_Zone[7] bit 0*) GOTO 0x0D94
     0x0D91 [0x01] GOTO 0x0D9B
     0x0D94 [0x27] REQ_SET(priority=0x08, entity_id=Iroha (ID: 17744194/0x010EC142), tag_num=0x20)
     0x0D9B [0x3E] IF !(Work_Zone[7] bit 1*) GOTO 0x0DA5
     0x0DA2 [0x01] GOTO 0x0DAC
     0x0DA5 [0x27] REQ_SET(priority=0x08, entity_id=Lion (ID: 17744195/0x010EC143), tag_num=0x0B)
     0x0DAC [0x3E] IF !(Work_Zone[7] bit 2*) GOTO 0x0DB6
     0x0DB3 [0x01] GOTO 0x0DBD
     0x0DB6 [0x27] REQ_SET(priority=0x08, entity_id=Selh'teus (ID: 17744198/0x010EC146), tag_num=0x07)
     0x0DBD [0x1C] WAIT(120* ticks)
     0x0DC0 [0x02] IF !(Work_Zone[5] == 10188*) GOTO 0x0DDA
     0x0DC8 [0x52] END_LOAD_SCHEDULER: End scheduler "s009" with entities [EventEntity, EventEntity], work=101*
     0x0DD7 [0x01] GOTO 0x0E3F
     0x0DDA [0x02] IF !(Work_Zone[5] == 10191*) GOTO 0x0DF4
