# 17744161

## Common Data

| Field            | Value                 |
|------------------|-----------------------|
| Zone             | Port Bastok (ID: 236) |
| Block Size       | 160 bytes             |
| Total Events     | 4                     |
| References Count | 12                    |

## List of Events

| Event ID                 | Entrypoint   |   Size |   Instructions |
|--------------------------|--------------|--------|----------------|
| [65535](#event-65535)    | 0x0000       |      1 |              1 |
| [415](#event-415)        | 0x0001       |      1 |              1 |
| [65535.1](#event-655351) | 0x0002       |     46 |             10 |
| [65535.2](#event-655352) | 0x0030       |     31 |              9 |

## DAT References (imed_data)

|   Index | Hex Value   |   Dec Value |
|---------|-------------|-------------|
|       0 | 0x0078      |         120 |
|       1 | 0xC738      |       51000 |
|       2 | 0x1068      |        4200 |
|       3 | 0xC350      |       50000 |
|       4 | 0x1324      |        4900 |
|       5 | 0x003C      |          60 |
|       6 | 0x0368      |         872 |
|       7 | 0xFFFEC780  |  4294887296 |
|       8 | 0xC15C      |       49500 |
|       9 | 0x07FD      |        2045 |
|      10 | 0x0005      |           5 |
|      11 | 0xFFFE7960  |  4294867296 |

## Events

### Event 65535

#### Metadata

| Field        | Value   |
|--------------|---------|
| Entrypoint   | 0x0000  |
| Data Size    | 1 bytes |
| Instructions | 1       |

```
      00 01 02 03 04 05 06 07  08 09 0A 0B 0C 0D 0E 0F
      -- -- -- -- -- -- -- --  -- -- -- -- -- -- -- --
0000: 00                                                .               
```

#### Opcodes

```
  0: 0x0000 [0x00] END_REQSTACK()
```

### Event 415

#### Metadata

| Field        | Value   |
|--------------|---------|
| Entrypoint   | 0x0001  |
| Data Size    | 1 bytes |
| Instructions | 1       |

```
      00 01 02 03 04 05 06 07  08 09 0A 0B 0C 0D 0E 0F
      -- -- -- -- -- -- -- --  -- -- -- -- -- -- -- --
0000:    00                                              .              
```

#### Opcodes

```
  0: 0x0001 [0x00] END_REQSTACK()
```

### Event 65535.1

#### Metadata

| Field        | Value    |
|--------------|----------|
| Entrypoint   | 0x0002   |
| Data Size    | 46 bytes |
| Instructions | 10       |

```
      00 01 02 03 04 05 06 07  08 09 0A 0B 0C 0D 0E 0F
      -- -- -- -- -- -- -- --  -- -- -- -- -- -- -- --
0000:       1C 00 80 33 01 5A  00 03 17 01 80 02 80 5A    ...3.Z.......Z
0010: 01 5A 00 03 17 03 80 04  80 5A 01 33 00 1C 05 80  .Z.......Z.3....
0020: 5B 06 80 F8 FF FF 7F F8  FF FF 7F 68 69 30 37 00  [..........hi07.
```

#### Opcodes

```
  0: 0x0002 [0x1C] WAIT(120* ticks)
  1: 0x0005 [0x33] EventEntity->Render.Flags0 |= 0x200000 // Bit 21 (flag=0x01)
  2: 0x0007 [0x5A] UPDATE_EVENT_POSITION: Set EventEntity MovePosition to X=Work_Zone_1700[3], Z=51.000*, Y=4.200*
  3: 0x000F [0x5A] UPDATE_EVENT_POSITION: Move EventEntity incrementally towards MovePosition
  4: 0x0011 [0x5A] UPDATE_EVENT_POSITION: Set EventEntity MovePosition to X=Work_Zone_1700[3], Z=50.000*, Y=4.900*
  5: 0x0019 [0x5A] UPDATE_EVENT_POSITION: Move EventEntity incrementally towards MovePosition
  6: 0x001B [0x33] EventEntity->Render.Flags0 &= ~ 0x200000 // Bit 21 (flag=0x00)
  7: 0x001D [0x1C] WAIT(60* ticks)
  8: 0x0020 [0x5B] LOAD_EXT_SCHEDULER: Load scheduler "hi07" with entities [EventEntity, EventEntity], work=872*
  9: 0x002F [0x00] END_REQSTACK()
```

### Event 65535.2

#### Metadata

| Field        | Value    |
|--------------|----------|
| Entrypoint   | 0x0030   |
| Data Size    | 31 bytes |
| Instructions | 9        |

```
      00 01 02 03 04 05 06 07  08 09 0A 0B 0C 0D 0E 0F
      -- -- -- -- -- -- -- --  -- -- -- -- -- -- -- --
0030: 22 00 61 00 37 07 80 08  80 04 80 09 80 61 01 1C  ".a.7........a..
0040: 0A 80 1F 00 0B 80 08 80  04 80 1F 01 22 01 00     ............".. 
```

#### Opcodes

```
  0: 0x0030 [0x22] ENTITY_HIDE_FLAG(enabled=0x00)
  1: 0x0032 [0x61] EventEntity->Render.Flags2 &= ~0x00000001
  2: 0x0034 [0x37] UPDATE_EVENT_POSITION_AND_DIR: x=-80.000*, z=49.500*, y=4.900*, direction=179.7°*
  3: 0x003D [0x61] EventEntity->Render.Flags2 |= 0x00000001
  4: 0x003F [0x1C] WAIT(5* ticks)
  5: 0x0042 [0x1F] MOVE_ENTITY: EventEntity moves to X=-100.000*, Z=49.500*, Y=4.900*
  6: 0x004A [0x1F] MOVE_ENTITY: Update entity position (mode=1)
  7: 0x004C [0x22] ENTITY_HIDE_FLAG(enabled=0x01)
  8: 0x004E [0x00] END_REQSTACK()
```
