# 17743902 - Agapito

## Common Data

| Field            | Value                 |
|------------------|-----------------------|
| Zone             | Port Bastok (ID: 236) |
| Block Size       | 236 bytes             |
| Total Events     | 6                     |
| References Count | 15                    |

## List of Events

| Event ID              | Entrypoint   |   Size |   Instructions |
|-----------------------|--------------|--------|----------------|
| [65535](#event-65535) | 0x0000       |      1 |              1 |
| [17](#event-17)       | 0x0001       |     11 |              5 |
| [1](#event-1)         | 0x000C       |     25 |              3 |
| [180](#event-180)     | 0x0025       |     48 |             14 |
| [181](#event-181)     | 0x0055       |     48 |             10 |
| [306](#event-306)     | 0x0085       |      1 |              1 |

## DAT References (imed_data)

|   Index | Hex Value   |   Dec Value |
|---------|-------------|-------------|
|       0 | 0x1D1C      |        7452 |
|       1 | 0xFFFEE88A  |  4294895754 |
|       2 | 0x22AB      |        8875 |
|       3 | 0xFFFFF7CB  |  4294965195 |
|       4 | 0x0CB7      |        3255 |
|       5 | 0x0041      |          65 |
|       6 | 0x0008      |           8 |
|       7 | 0x1DDA      |        7642 |
|       8 | 0x1DDB      |        7643 |
|       9 | 0x1DDC      |        7644 |
|      10 | 0x1DDD      |        7645 |
|      11 | 0x1DDF      |        7647 |
|      12 | 0x1DE0      |        7648 |
|      13 | 0x00C9      |         201 |
|      14 | 0x0000      |           0 |

## String References

- **7452**: Traveling on airships is a right only given to those who've proven themselves worthy. It's still a little early for you, I would think.
- **7642**: Ah! An adventurer! And I see you've also earned your $3! I need your help!
- **7643**: You see, these words have been bothering me for some time: "Under a full moon, toward the stars of Ifrit, a bird brings a letter to the ship in the sky."
- **7644**: I don't remember where I heard it. I woke up this morning with those words...and a whopping headache...as the only clues to where I was last night.
- **7645**: Could you try finding this "letter" for me? I fancy it might be a clue that leads to great treasure! What? Yes, of course, I will give you a share!
- **7647**: Ah! Let me see! Let me see! What? It's just a wishy-washy love letter. What's it doing on an airship?
- **7648**: Here, take it back. It gives me the creeps! Oh, and here's something for you. Now, go away!

## Events

### Event 65535

#### Metadata

| Field        | Value   |
|--------------|---------|
| Entrypoint   | 0x0000  |
| Data Size    | 1 bytes |
| Instructions | 1       |

```
      00 01 02 03 04 05 06 07  08 09 0A 0B 0C 0D 0E 0F
      -- -- -- -- -- -- -- --  -- -- -- -- -- -- -- --
0000: 00                                                .               
```

#### Opcodes

```
  0: 0x0000 [0x00] END_REQSTACK()
```

### Event 17

#### Metadata

| Field        | Value    |
|--------------|----------|
| Entrypoint   | 0x0001   |
| Data Size    | 11 bytes |
| Instructions | 5        |

```
      00 01 02 03 04 05 06 07  08 09 0A 0B 0C 0D 0E 0F
      -- -- -- -- -- -- -- --  -- -- -- -- -- -- -- --
0000:    1E F0 FF FF 7F 1D 00  80 23 21 00               ........#!.    
```

#### Opcodes

```
  0: 0x0001 [0x1E] EventEntity looks at LocalPlayer and starts talking
  1: 0x0006 [0x1D] PRINT_EVENT_MESSAGE(message_id=7452*)
    → "Traveling on airships is a right only given to those who've proven themselves worthy. It's still a little early for you, I would think."
  2: 0x0009 [0x23] WAIT_FOR_DIALOG_INTERACTION
  3: 0x000A [0x21] END_EVENT
  4: 0x000B [0x00] END_REQSTACK()
```

### Event 1

#### Metadata

| Field        | Value    |
|--------------|----------|
| Entrypoint   | 0x000C   |
| Data Size    | 25 bytes |
| Instructions | 3        |

```
      00 01 02 03 04 05 06 07  08 09 0A 0B 0C 0D 0E 0F
      -- -- -- -- -- -- -- --  -- -- -- -- -- -- -- --
0000:                                      37 01 80 02              7...
0010: 80 03 80 04 80 5B 05 80  F8 FF FF 7F F8 FF FF 7F  .....[..........
0020: 74 6C 6B 30 00                                    tlk0.           
```

#### Opcodes

```
  0: 0x000C [0x37] UPDATE_EVENT_POSITION_AND_DIR: x=-71.542*, z=8.875*, y=-2.101*, direction=286.1°*
  1: 0x0015 [0x5B] LOAD_EXT_SCHEDULER: Load scheduler "tlk0" with entities [EventEntity, EventEntity], work=65*
  2: 0x0024 [0x00] END_REQSTACK()
```

### Event 180

#### Metadata

| Field        | Value    |
|--------------|----------|
| Entrypoint   | 0x0025   |
| Data Size    | 48 bytes |
| Instructions | 14       |

```
      00 01 02 03 04 05 06 07  08 09 0A 0B 0C 0D 0E 0F
      -- -- -- -- -- -- -- --  -- -- -- -- -- -- -- --
0020:                1E F0 FF  FF 7F 03 09 10 06 80 1D       ...........
0030: 07 80 23 5B 05 80 F8 FF  FF 7F F8 FF FF 7F 74 6C  ..#[..........tl
0040: 6B 30 1D 08 80 23 1D 09  80 23 5E 69 64 6C 30 1D  k0...#...#^idl0.
0050: 0A 80 23 21 00                                    ..#!.           
```

#### Opcodes

```
  0: 0x0025 [0x1E] EventEntity looks at LocalPlayer and starts talking
  1: 0x002A [0x03] Work_Zone[9] = 8*
  2: 0x002F [0x1D] PRINT_EVENT_MESSAGE(message_id=7642*)
    → "Ah! An adventurer! And I see you've also earned your $3! I need your help!"
  3: 0x0032 [0x23] WAIT_FOR_DIALOG_INTERACTION
  4: 0x0033 [0x5B] LOAD_EXT_SCHEDULER: Load scheduler "tlk0" with entities [EventEntity, EventEntity], work=65*
  5: 0x0042 [0x1D] PRINT_EVENT_MESSAGE(message_id=7643*)
    → "You see, these words have been bothering me for some time: "Under a full moon, toward the stars of Ifrit, a bird brings a letter to the ship in the sky.""
  6: 0x0045 [0x23] WAIT_FOR_DIALOG_INTERACTION
  7: 0x0046 [0x1D] PRINT_EVENT_MESSAGE(message_id=7644*)
    → "I don't remember where I heard it. I woke up this morning with those words...and a whopping headache...as the only clues to where I was last night."
  8: 0x0049 [0x23] WAIT_FOR_DIALOG_INTERACTION
  9: 0x004A [0x5E] EventEntity goes idle (kills current action) (animation: "idl0")
 10: 0x004F [0x1D] PRINT_EVENT_MESSAGE(message_id=7645*)
    → "Could you try finding this "letter" for me? I fancy it might be a clue that leads to great treasure! What? Yes, of course, I will give you a share!"
 11: 0x0052 [0x23] WAIT_FOR_DIALOG_INTERACTION
 12: 0x0053 [0x21] END_EVENT
 13: 0x0054 [0x00] END_REQSTACK()
```

### Event 181

#### Metadata

| Field        | Value    |
|--------------|----------|
| Entrypoint   | 0x0055   |
| Data Size    | 48 bytes |
| Instructions | 10       |

```
      00 01 02 03 04 05 06 07  08 09 0A 0B 0C 0D 0E 0F
      -- -- -- -- -- -- -- --  -- -- -- -- -- -- -- --
0050:                42 1E F0  FF FF 7F 1D 0B 80 23 5B       B........#[
0060: 05 80 F8 FF FF 7F F8 FF  FF 7F 70 61 73 30 1D 0C  ..........pas0..
0070: 80 23 45 0D 80 F0 FF FF  7F F0 FF FF 7F 71 73 74  .#E..........qst
0080: 63 0E 80 21 00                                    c..!.           
```

#### Opcodes

```
  0: 0x0055 [0x42] SET_CLI_EVENT_CANCEL_DATA()
  1: 0x0056 [0x1E] EventEntity looks at LocalPlayer and starts talking
  2: 0x005B [0x1D] PRINT_EVENT_MESSAGE(message_id=7647*)
    → "Ah! Let me see! Let me see! What? It's just a wishy-washy love letter. What's it doing on an airship?"
  3: 0x005E [0x23] WAIT_FOR_DIALOG_INTERACTION
  4: 0x005F [0x5B] LOAD_EXT_SCHEDULER: Load scheduler "pas0" with entities [EventEntity, EventEntity], work=65*
  5: 0x006E [0x1D] PRINT_EVENT_MESSAGE(message_id=7648*)
    → "Here, take it back. It gives me the creeps! Oh, and here's something for you. Now, go away!"
  6: 0x0071 [0x23] WAIT_FOR_DIALOG_INTERACTION
  7: 0x0072 [0x45] LOAD_SCHEDULED_TASK: Load scheduler "qstc" with entities [LocalPlayer, LocalPlayer], work=[201*, 0*]
  8: 0x0083 [0x21] END_EVENT
  9: 0x0084 [0x00] END_REQSTACK()
```

### Event 306

#### Metadata

| Field        | Value   |
|--------------|---------|
| Entrypoint   | 0x0085  |
| Data Size    | 1 bytes |
| Instructions | 1       |

```
      00 01 02 03 04 05 06 07  08 09 0A 0B 0C 0D 0E 0F
      -- -- -- -- -- -- -- --  -- -- -- -- -- -- -- --
0080:                00                                      .          
```

#### Opcodes

```
  0: 0x0085 [0x00] END_REQSTACK()
```
