# 17744059 - Ake

## Common Data

| Field            | Value                 |
|------------------|-----------------------|
| Zone             | Port Bastok (ID: 236) |
| Block Size       | 152 bytes             |
| Total Events     | 2                     |
| References Count | 6                     |

## List of Events

| Event ID              | Entrypoint   |   Size |   Instructions |
|-----------------------|--------------|--------|----------------|
| [65535](#event-65535) | 0x0000       |      1 |              1 |
| [452](#event-452)     | 0x0001       |    103 |             18 |

## DAT References (imed_data)

|   Index | Hex Value   |   Dec Value |
|---------|-------------|-------------|
|       0 | 0x0000      |           0 |
|       1 | 0x0871      |        2161 |
|       2 | 0x3598      |       13720 |
|       3 | 0x002D      |          45 |
|       4 | 0x0096      |         150 |
|       5 | 0x00B4      |         180 |

## String References

- **13720**: The mandragora surreptitiously hands you something.

## Events

### Event 65535

#### Metadata

| Field        | Value   |
|--------------|---------|
| Entrypoint   | 0x0000  |
| Data Size    | 1 bytes |
| Instructions | 1       |

```
      00 01 02 03 04 05 06 07  08 09 0A 0B 0C 0D 0E 0F
      -- -- -- -- -- -- -- --  -- -- -- -- -- -- -- --
0000: 00                                                .               
```

#### Opcodes

```
  0: 0x0000 [0x00] END_REQSTACK()
```

### Event 452

#### Metadata

| Field        | Value     |
|--------------|-----------|
| Entrypoint   | 0x0001    |
| Data Size    | 103 bytes |
| Instructions | 18        |

```
      00 01 02 03 04 05 06 07  08 09 0A 0B 0C 0D 0E 0F
      -- -- -- -- -- -- -- --  -- -- -- -- -- -- -- --
0000:    42 1E F0 FF FF 7F 4A  BC C0 0E 01 F0 FF FF 7F   B.....J........
0010: 6F 76 BC C0 0E 01 02 03  10 00 80 00 45 00 5B 01  ov..........E.[.
0020: 80 F8 FF FF 7F F8 FF FF  7F 74 6C 6B 30 5B 01 80  .........tlk0[..
0030: BC C0 0E 01 BC C0 0E 01  74 6C 6B 30 48 02 80 05  ........tlk0H...
0040: 01 10 01 63 00 C4 02 03  80 F8 FF FF 7F F0 FF FF  ...c............
0050: 7F C4 02 03 80 BC C0 0E  01 F0 FF FF 7F 1C 04 80  ................
0060: 06 01 10 1C 05 80 21 00                           ......!.        
```

#### Opcodes

```
  0: 0x0001 [0x42] SET_CLI_EVENT_CANCEL_DATA()
  1: 0x0002 [0x1E] EventEntity looks at LocalPlayer and starts talking
  2: 0x0007 [0x4A] Ome (ID: 17744060/0x010EC0BC) looks at LocalPlayer
  3: 0x0010 [0x6F] WAIT_FRAME_DELAY: Yield until WaitTime reaches zero
  4: 0x0011 [0x76] CHECK_ENTITY_RENDER_FLAGS: Wait until Ome (ID: 17744060/0x010EC0BC) Render.Flags0 and Render.Flags3 conditions are met
  5: 0x0016 [0x02] IF !(Work_Zone[3] == 0*) GOTO 0x0045
  6: 0x001E [0x5B] LOAD_EXT_SCHEDULER: Load scheduler "tlk0" with entities [EventEntity, EventEntity], work=2161*
  7: 0x002D [0x5B] LOAD_EXT_SCHEDULER: Load scheduler "tlk0" with entities [Ome (ID: 17744060/0x010EC0BC), Ome (ID: 17744060/0x010EC0BC)], work=2161*
  8: 0x003C [0x48] [System] [13720*]:
    → "The mandragora surreptitiously hands you something."
  9: 0x003F [0x05] Work_Zone[1] = 1
 10: 0x0042 [0x01] GOTO 0x0063
 11: 0x0045 [0xC4] SCHEDULE_MAGIC_CASTING_ALT (arg=18): EventEntity casts magic 45* on LocalPlayer
 12: 0x0051 [0xC4] SCHEDULE_MAGIC_CASTING_ALT (arg=18): Ome (ID: 17744060/0x010EC0BC) casts magic 45* on LocalPlayer
 13: 0x005D [0x1C] WAIT(150* ticks)
 14: 0x0060 [0x06] Work_Zone[1] = 0

SUBROUTINE_0063:
 15: 0x0063 [0x1C] WAIT(180* ticks)
 16: 0x0066 [0x21] END_EVENT
 17: 0x0067 [0x00] END_REQSTACK()
```
