# 17743995 - Flaco

## Common Data

| Field            | Value                 |
|------------------|-----------------------|
| Zone             | Port Bastok (ID: 236) |
| Block Size       | 420 bytes             |
| Total Events     | 10                    |
| References Count | 21                    |

## List of Events

| Event ID              | Entrypoint   |   Size |   Instructions |
|-----------------------|--------------|--------|----------------|
| [65535](#event-65535) | 0x0000       |      1 |              1 |
| [211](#event-211)     | 0x0001       |     34 |             10 |
| [212](#event-212)     | 0x0023       |     30 |              8 |
| [213](#event-213)     | 0x0041       |     30 |              8 |
| [214](#event-214)     | 0x005F       |     30 |              8 |
| [215](#event-215)     | 0x007D       |     30 |              8 |
| [216](#event-216)     | 0x009B       |     30 |              8 |
| [217](#event-217)     | 0x00B9       |     30 |              8 |
| [218](#event-218)     | 0x00D7       |     30 |              8 |
| [219](#event-219)     | 0x00F5       |     34 |             10 |

## DAT References (imed_data)

|   Index | Hex Value   |   Dec Value |
|---------|-------------|-------------|
|       0 | 0x1E67      |        7783 |
|       1 | 0x0000      |           0 |
|       2 | 0x1E68      |        7784 |
|       3 | 0x1E69      |        7785 |
|       4 | 0x1E65      |        7781 |
|       5 | 0x1E66      |        7782 |
|       6 | 0x1E63      |        7779 |
|       7 | 0x1E64      |        7780 |
|       8 | 0x1E61      |        7777 |
|       9 | 0x1E62      |        7778 |
|      10 | 0x1E5F      |        7775 |
|      11 | 0x1E60      |        7776 |
|      12 | 0x1E5D      |        7773 |
|      13 | 0x1E5E      |        7774 |
|      14 | 0x1E5B      |        7771 |
|      15 | 0x1E5C      |        7772 |
|      16 | 0x1E59      |        7769 |
|      17 | 0x1E5A      |        7770 |
|      18 | 0x1E56      |        7766 |
|      19 | 0x1E57      |        7767 |
|      20 | 0x1E58      |        7768 |

## String References

- **7766**: Oh, it's you, <Player>. I've known you since you started off here in Bastok, but I never thought you'd come this far.
- **7767**: You've become a household name in these parts. You're even considered a hero by some...like me!
- **7768**: I pray that the Goddess Altana looks down upon you favorably in your journeys!
- **7769**: Master <Player>! You are a hero to the people of Bastok! Everyone here knows your name and what you've done for us!
- **7770**: You are the example every Bastoker should follow!
- **7771**: You must be <Player>. Don't look so surprised, as everyone knows your name and what you've done for Bastok.
- **7772**: <Player>, we're very proud to have someone like you in our city.
- **7773**: Most everyone in this country knows your name by now, <Player>!
- **7774**: People are saying great things about you. You don't know how proud that makes me feel--I've been following your progress ever since you came to Bastok!
- **7775**: Hello there, <Player>. A lot of people know about what you've done for Bastok.
- **7776**: People are saying good things about you. Keep up the good work!
- **7777**: Hello there, <Player>. Quite a few people are talking about the things you've done for Bastok.
- **7778**: You're becoming quite famous. Keep on doing whatever you're doing!
- **7779**: Oh, you're <Player>. Yeah, I've heard of you. You're not doing too bad for an adventurer.
- **7780**: Keep working hard, and the people of Bastok will come to recognize your efforts.
- **7781**: <Player>? Hmm...sounds familiar. Who was it again? Oh.
- **7782**: Well, uh...not many people know who you are, but if you work hard enough, word will get around about your good deeds.
- **7783**: <Player>? What is that, some kind of snail? Oh, that's your name. You must be a rookie adventurer, right?
- **7784**: If you want the people of Bastok to know who you are, you're going to have to start helping them out.
- **7785**: Earn their trust, and they will come to count on you to do more things for them.

## Events

### Event 65535

#### Metadata

| Field        | Value   |
|--------------|---------|
| Entrypoint   | 0x0000  |
| Data Size    | 1 bytes |
| Instructions | 1       |

```
      00 01 02 03 04 05 06 07  08 09 0A 0B 0C 0D 0E 0F
      -- -- -- -- -- -- -- --  -- -- -- -- -- -- -- --
0000: 00                                                .               
```

#### Opcodes

```
  0: 0x0000 [0x00] END_REQSTACK()
```

### Event 211

#### Metadata

| Field        | Value    |
|--------------|----------|
| Entrypoint   | 0x0001   |
| Data Size    | 34 bytes |
| Instructions | 10       |

```
      00 01 02 03 04 05 06 07  08 09 0A 0B 0C 0D 0E 0F
      -- -- -- -- -- -- -- --  -- -- -- -- -- -- -- --
0000:    1E F0 FF FF 7F 1D 00  80 23 66 01 80 F8 FF FF   ........#f.....
0010: 7F F8 FF FF 7F 74 6C 6B  30 1D 02 80 23 1D 03 80  .....tlk0...#...
0020: 23 21 00                                          #!.             
```

#### Opcodes

```
  0: 0x0001 [0x1E] EventEntity looks at LocalPlayer and starts talking
  1: 0x0006 [0x1D] PRINT_EVENT_MESSAGE(message_id=7783*)
    → "<Player>? What is that, some kind of snail? Oh, that's your name. You must be a rookie adventurer, right?"
  2: 0x0009 [0x23] WAIT_FOR_DIALOG_INTERACTION
  3: 0x000A [0x66] LOAD_EXT_SCHEDULER_MAIN: Load scheduler "tlk0" with entities [EventEntity, EventEntity], work=0*
  4: 0x0019 [0x1D] PRINT_EVENT_MESSAGE(message_id=7784*)
    → "If you want the people of Bastok to know who you are, you're going to have to start helping them out."
  5: 0x001C [0x23] WAIT_FOR_DIALOG_INTERACTION
  6: 0x001D [0x1D] PRINT_EVENT_MESSAGE(message_id=7785*)
    → "Earn their trust, and they will come to count on you to do more things for them."
  7: 0x0020 [0x23] WAIT_FOR_DIALOG_INTERACTION
  8: 0x0021 [0x21] END_EVENT
  9: 0x0022 [0x00] END_REQSTACK()
```

### Event 212

#### Metadata

| Field        | Value    |
|--------------|----------|
| Entrypoint   | 0x0023   |
| Data Size    | 30 bytes |
| Instructions | 8        |

```
      00 01 02 03 04 05 06 07  08 09 0A 0B 0C 0D 0E 0F
      -- -- -- -- -- -- -- --  -- -- -- -- -- -- -- --
0020:          1E F0 FF FF 7F  1D 04 80 23 66 01 80 F8     ........#f...
0030: FF FF 7F F8 FF FF 7F 74  6C 6B 30 1D 05 80 23 21  .......tlk0...#!
0040: 00                                                .               
```

#### Opcodes

```
  0: 0x0023 [0x1E] EventEntity looks at LocalPlayer and starts talking
  1: 0x0028 [0x1D] PRINT_EVENT_MESSAGE(message_id=7781*)
    → "<Player>? Hmm...sounds familiar. Who was it again? Oh."
  2: 0x002B [0x23] WAIT_FOR_DIALOG_INTERACTION
  3: 0x002C [0x66] LOAD_EXT_SCHEDULER_MAIN: Load scheduler "tlk0" with entities [EventEntity, EventEntity], work=0*
  4: 0x003B [0x1D] PRINT_EVENT_MESSAGE(message_id=7782*)
    → "Well, uh...not many people know who you are, but if you work hard enough, word will get around about your good deeds."
  5: 0x003E [0x23] WAIT_FOR_DIALOG_INTERACTION
  6: 0x003F [0x21] END_EVENT
  7: 0x0040 [0x00] END_REQSTACK()
```

### Event 213

#### Metadata

| Field        | Value    |
|--------------|----------|
| Entrypoint   | 0x0041   |
| Data Size    | 30 bytes |
| Instructions | 8        |

```
      00 01 02 03 04 05 06 07  08 09 0A 0B 0C 0D 0E 0F
      -- -- -- -- -- -- -- --  -- -- -- -- -- -- -- --
0040:    1E F0 FF FF 7F 1D 06  80 23 66 01 80 F8 FF FF   ........#f.....
0050: 7F F8 FF FF 7F 74 6C 6B  30 1D 07 80 23 21 00     .....tlk0...#!. 
```

#### Opcodes

```
  0: 0x0041 [0x1E] EventEntity looks at LocalPlayer and starts talking
  1: 0x0046 [0x1D] PRINT_EVENT_MESSAGE(message_id=7779*)
    → "Oh, you're <Player>. Yeah, I've heard of you. You're not doing too bad for an adventurer."
  2: 0x0049 [0x23] WAIT_FOR_DIALOG_INTERACTION
  3: 0x004A [0x66] LOAD_EXT_SCHEDULER_MAIN: Load scheduler "tlk0" with entities [EventEntity, EventEntity], work=0*
  4: 0x0059 [0x1D] PRINT_EVENT_MESSAGE(message_id=7780*)
    → "Keep working hard, and the people of Bastok will come to recognize your efforts."
  5: 0x005C [0x23] WAIT_FOR_DIALOG_INTERACTION
  6: 0x005D [0x21] END_EVENT
  7: 0x005E [0x00] END_REQSTACK()
```

### Event 214

#### Metadata

| Field        | Value    |
|--------------|----------|
| Entrypoint   | 0x005F   |
| Data Size    | 30 bytes |
| Instructions | 8        |

```
      00 01 02 03 04 05 06 07  08 09 0A 0B 0C 0D 0E 0F
      -- -- -- -- -- -- -- --  -- -- -- -- -- -- -- --
0050:                                               1E                 .
0060: F0 FF FF 7F 1D 08 80 23  66 01 80 F8 FF FF 7F F8  .......#f.......
0070: FF FF 7F 74 6C 6B 30 1D  09 80 23 21 00           ...tlk0...#!.   
```

#### Opcodes

```
  0: 0x005F [0x1E] EventEntity looks at LocalPlayer and starts talking
  1: 0x0064 [0x1D] PRINT_EVENT_MESSAGE(message_id=7777*)
    → "Hello there, <Player>. Quite a few people are talking about the things you've done for Bastok."
  2: 0x0067 [0x23] WAIT_FOR_DIALOG_INTERACTION
  3: 0x0068 [0x66] LOAD_EXT_SCHEDULER_MAIN: Load scheduler "tlk0" with entities [EventEntity, EventEntity], work=0*
  4: 0x0077 [0x1D] PRINT_EVENT_MESSAGE(message_id=7778*)
    → "You're becoming quite famous. Keep on doing whatever you're doing!"
  5: 0x007A [0x23] WAIT_FOR_DIALOG_INTERACTION
  6: 0x007B [0x21] END_EVENT
  7: 0x007C [0x00] END_REQSTACK()
```

### Event 215

#### Metadata

| Field        | Value    |
|--------------|----------|
| Entrypoint   | 0x007D   |
| Data Size    | 30 bytes |
| Instructions | 8        |

```
      00 01 02 03 04 05 06 07  08 09 0A 0B 0C 0D 0E 0F
      -- -- -- -- -- -- -- --  -- -- -- -- -- -- -- --
0070:                                         1E F0 FF               ...
0080: FF 7F 1D 0A 80 23 66 01  80 F8 FF FF 7F F8 FF FF  .....#f.........
0090: 7F 74 6C 6B 30 1D 0B 80  23 21 00                 .tlk0...#!.     
```

#### Opcodes

```
  0: 0x007D [0x1E] EventEntity looks at LocalPlayer and starts talking
  1: 0x0082 [0x1D] PRINT_EVENT_MESSAGE(message_id=7775*)
    → "Hello there, <Player>. A lot of people know about what you've done for Bastok."
  2: 0x0085 [0x23] WAIT_FOR_DIALOG_INTERACTION
  3: 0x0086 [0x66] LOAD_EXT_SCHEDULER_MAIN: Load scheduler "tlk0" with entities [EventEntity, EventEntity], work=0*
  4: 0x0095 [0x1D] PRINT_EVENT_MESSAGE(message_id=7776*)
    → "People are saying good things about you. Keep up the good work!"
  5: 0x0098 [0x23] WAIT_FOR_DIALOG_INTERACTION
  6: 0x0099 [0x21] END_EVENT
  7: 0x009A [0x00] END_REQSTACK()
```

### Event 216

#### Metadata

| Field        | Value    |
|--------------|----------|
| Entrypoint   | 0x009B   |
| Data Size    | 30 bytes |
| Instructions | 8        |

```
      00 01 02 03 04 05 06 07  08 09 0A 0B 0C 0D 0E 0F
      -- -- -- -- -- -- -- --  -- -- -- -- -- -- -- --
0090:                                   1E F0 FF FF 7F             .....
00A0: 1D 0C 80 23 66 01 80 F8  FF FF 7F F8 FF FF 7F 74  ...#f..........t
00B0: 6C 6B 30 1D 0D 80 23 21  00                       lk0...#!.       
```

#### Opcodes

```
  0: 0x009B [0x1E] EventEntity looks at LocalPlayer and starts talking
  1: 0x00A0 [0x1D] PRINT_EVENT_MESSAGE(message_id=7773*)
    → "Most everyone in this country knows your name by now, <Player>!"
  2: 0x00A3 [0x23] WAIT_FOR_DIALOG_INTERACTION
  3: 0x00A4 [0x66] LOAD_EXT_SCHEDULER_MAIN: Load scheduler "tlk0" with entities [EventEntity, EventEntity], work=0*
  4: 0x00B3 [0x1D] PRINT_EVENT_MESSAGE(message_id=7774*)
    → "People are saying great things about you. You don't know how proud that makes me feel--I've been following your progress ever since you came to Bastok!"
  5: 0x00B6 [0x23] WAIT_FOR_DIALOG_INTERACTION
  6: 0x00B7 [0x21] END_EVENT
  7: 0x00B8 [0x00] END_REQSTACK()
```

### Event 217

#### Metadata

| Field        | Value    |
|--------------|----------|
| Entrypoint   | 0x00B9   |
| Data Size    | 30 bytes |
| Instructions | 8        |

```
      00 01 02 03 04 05 06 07  08 09 0A 0B 0C 0D 0E 0F
      -- -- -- -- -- -- -- --  -- -- -- -- -- -- -- --
00B0:                             1E F0 FF FF 7F 1D 0E           .......
00C0: 80 23 66 01 80 F8 FF FF  7F F8 FF FF 7F 74 6C 6B  .#f..........tlk
00D0: 30 1D 0F 80 23 21 00                              0...#!.         
```

#### Opcodes

```
  0: 0x00B9 [0x1E] EventEntity looks at LocalPlayer and starts talking
  1: 0x00BE [0x1D] PRINT_EVENT_MESSAGE(message_id=7771*)
    → "You must be <Player>. Don't look so surprised, as everyone knows your name and what you've done for Bastok."
  2: 0x00C1 [0x23] WAIT_FOR_DIALOG_INTERACTION
  3: 0x00C2 [0x66] LOAD_EXT_SCHEDULER_MAIN: Load scheduler "tlk0" with entities [EventEntity, EventEntity], work=0*
  4: 0x00D1 [0x1D] PRINT_EVENT_MESSAGE(message_id=7772*)
    → "<Player>, we're very proud to have someone like you in our city."
  5: 0x00D4 [0x23] WAIT_FOR_DIALOG_INTERACTION
  6: 0x00D5 [0x21] END_EVENT
  7: 0x00D6 [0x00] END_REQSTACK()
```

### Event 218

#### Metadata

| Field        | Value    |
|--------------|----------|
| Entrypoint   | 0x00D7   |
| Data Size    | 30 bytes |
| Instructions | 8        |

```
      00 01 02 03 04 05 06 07  08 09 0A 0B 0C 0D 0E 0F
      -- -- -- -- -- -- -- --  -- -- -- -- -- -- -- --
00D0:                      1E  F0 FF FF 7F 1D 10 80 23         ........#
00E0: 66 01 80 F8 FF FF 7F F8  FF FF 7F 74 6C 6B 30 1D  f..........tlk0.
00F0: 11 80 23 21 00                                    ..#!.           
```

#### Opcodes

```
  0: 0x00D7 [0x1E] EventEntity looks at LocalPlayer and starts talking
  1: 0x00DC [0x1D] PRINT_EVENT_MESSAGE(message_id=7769*)
    → "Master <Player>! You are a hero to the people of Bastok! Everyone here knows your name and what you've done for us!"
  2: 0x00DF [0x23] WAIT_FOR_DIALOG_INTERACTION
  3: 0x00E0 [0x66] LOAD_EXT_SCHEDULER_MAIN: Load scheduler "tlk0" with entities [EventEntity, EventEntity], work=0*
  4: 0x00EF [0x1D] PRINT_EVENT_MESSAGE(message_id=7770*)
    → "You are the example every Bastoker should follow!"
  5: 0x00F2 [0x23] WAIT_FOR_DIALOG_INTERACTION
  6: 0x00F3 [0x21] END_EVENT
  7: 0x00F4 [0x00] END_REQSTACK()
```

### Event 219

#### Metadata

| Field        | Value    |
|--------------|----------|
| Entrypoint   | 0x00F5   |
| Data Size    | 34 bytes |
| Instructions | 10       |

```
      00 01 02 03 04 05 06 07  08 09 0A 0B 0C 0D 0E 0F
      -- -- -- -- -- -- -- --  -- -- -- -- -- -- -- --
00F0:                1E F0 FF  FF 7F 1D 12 80 23 66 01       ........#f.
0100: 80 F8 FF FF 7F F8 FF FF  7F 74 6C 6B 30 1D 13 80  .........tlk0...
0110: 23 1D 14 80 23 21 00                              #...#!.         
```

#### Opcodes

```
  0: 0x00F5 [0x1E] EventEntity looks at LocalPlayer and starts talking
  1: 0x00FA [0x1D] PRINT_EVENT_MESSAGE(message_id=7766*)
    → "Oh, it's you, <Player>. I've known you since you started off here in Bastok, but I never thought you'd come this far."
  2: 0x00FD [0x23] WAIT_FOR_DIALOG_INTERACTION
  3: 0x00FE [0x66] LOAD_EXT_SCHEDULER_MAIN: Load scheduler "tlk0" with entities [EventEntity, EventEntity], work=0*
  4: 0x010D [0x1D] PRINT_EVENT_MESSAGE(message_id=7767*)
    → "You've become a household name in these parts. You're even considered a hero by some...like me!"
  5: 0x0110 [0x23] WAIT_FOR_DIALOG_INTERACTION
  6: 0x0111 [0x1D] PRINT_EVENT_MESSAGE(message_id=7768*)
    → "I pray that the Goddess Altana looks down upon you favorably in your journeys!"
  7: 0x0114 [0x23] WAIT_FOR_DIALOG_INTERACTION
  8: 0x0115 [0x21] END_EVENT
  9: 0x0116 [0x00] END_REQSTACK()
```
