# 17744014

## Common Data

| Field            | Value                 |
|------------------|-----------------------|
| Zone             | Port Bastok (ID: 236) |
| Block Size       | 3044 bytes            |
| Total Events     | 5                     |
| References Count | 55                    |

## List of Events

| Event ID              | Entrypoint   |   Size |   Instructions |
|-----------------------|--------------|--------|----------------|
| [65535](#event-65535) | 0x0000       |      1 |              1 |
| [256](#event-256)     | 0x0001       |    839 |            112 |
| [258](#event-258)     | 0x0348       |    534 |             78 |
| [307](#event-307)     | 0x055E       |    605 |             86 |
| [309](#event-309)     | 0x07BB       |    808 |            127 |

## DAT References (imed_data)

|   Index | Hex Value   |   Dec Value |
|---------|-------------|-------------|
|       0 | 0x0000      |           0 |
|       1 | 0x00C8      |         200 |
|       2 | 0x003C      |          60 |
|       3 | 0x0013      |          19 |
|       4 | 0x007B      |         123 |
|       5 | 0x0064      |         100 |
|       6 | 0x00F9      |         249 |
|       7 | 0x00FA      |         250 |
|       8 | 0x2180      |        8576 |
|       9 | 0x0096      |         150 |
|      10 | 0x2181      |        8577 |
|      11 | 0x2184      |        8580 |
|      12 | 0x2187      |        8583 |
|      13 | 0x0008      |           8 |
|      14 | 0x2188      |        8584 |
|      15 | 0x2189      |        8585 |
|      16 | 0x0078      |         120 |
|      17 | 0x0098      |         152 |
|      18 | 0x2194      |        8596 |
|      19 | 0x2195      |        8597 |
|      20 | 0x2196      |        8598 |
|      21 | 0x2197      |        8599 |
|      22 | 0x23A5      |        9125 |
|      23 | 0x23A6      |        9126 |
|      24 | 0x0003      |           3 |
|      25 | 0x007E      |         126 |
|      26 | 0x23A7      |        9127 |
|      27 | 0x23A8      |        9128 |
|      28 | 0x23A9      |        9129 |
|      29 | 0x23AA      |        9130 |
|      30 | 0x0005      |           5 |
|      31 | 0x0006      |           6 |
|      32 | 0x23AB      |        9131 |
|      33 | 0x23AC      |        9132 |
|      34 | 0x23AD      |        9133 |
|      35 | 0x23B0      |        9136 |
|      36 | 0x0001      |           1 |
|      37 | 0x23B1      |        9137 |
|      38 | 0x23B2      |        9138 |
|      39 | 0x23B3      |        9139 |
|      40 | 0x0002      |           2 |
|      41 | 0x23B4      |        9140 |
|      42 | 0x23B5      |        9141 |
|      43 | 0x23B6      |        9142 |
|      44 | 0x23B7      |        9143 |
|      45 | 0x0004      |           4 |
|      46 | 0x23B8      |        9144 |
|      47 | 0x23B9      |        9145 |
|      48 | 0x23BA      |        9146 |
|      49 | 0x23BB      |        9147 |
|      50 | 0x23BC      |        9148 |
|      51 | 0x23BD      |        9149 |
|      52 | 0x23BE      |        9150 |
|      53 | 0x23BF      |        9151 |
|      54 | 0x23C0      |        9152 |

## Events

### Event 65535

#### Metadata

| Field        | Value   |
|--------------|---------|
| Entrypoint   | 0x0000  |
| Data Size    | 1 bytes |
| Instructions | 1       |

```
      00 01 02 03 04 05 06 07  08 09 0A 0B 0C 0D 0E 0F
      -- -- -- -- -- -- -- --  -- -- -- -- -- -- -- --
0000: 00                                                .               
```

#### Opcodes

```
  0: 0x0000 [0x00] END_REQSTACK()
```

### Event 256

#### Metadata

| Field        | Value     |
|--------------|-----------|
| Entrypoint   | 0x0001    |
| Data Size    | 839 bytes |
| Instructions | 110       |

```
      00 01 02 03 04 05 06 07  08 09 0A 0B 0C 0D 0E 0F
      -- -- -- -- -- -- -- --  -- -- -- -- -- -- -- --
0000:    46 01 42 4A 88 C0 0E  01 F0 FF FF 7F 6F 76 88   F.BJ........ov.
0010: C0 0E 01 5D 00 80 01 80  45 01 80 F8 FF FF 7F F8  ...]....E.......
0020: FF FF 7F 66 64 6F 31 00  80 1C 02 80 38 03 80 29  ...fdo1.....8..)
0030: 0B F0 FF FF 7F 2D 29 0B  8D C0 0E 01 20 29 0B F0  .....-)..... )..
0040: FF FF 7F 2C 4E 00 8D C0  0E 01 80 8D C0 0E 01 4A  ...,N..........J
0050: 89 C0 0E 01 88 C0 0E 01  4A F0 FF FF 7F 88 C0 0E  ........J.......
0060: 01 4A 88 C0 0E 01 F0 FF  FF 7F 6F 76 88 C0 0E 01  .J........ov....
0070: 1E F0 FF FF 7F 6F 70 5C  00 04 80 5C 01 04 80 1C  .....op\...\....
0080: 05 80 45 06 80 F8 FF FF  7F F8 FF FF 7F 73 30 32  ..E..........s02
0090: 36 00 80 45 01 80 F8 FF  FF 7F F8 FF FF 7F 66 64  6..E..........fd
00A0: 69 31 00 80 29 0B 88 C0  0E 01 01 29 0C 88 C0 0E  i1..)......)....
00B0: 01 2A 29 0B 88 C0 0E 01  02 52 06 80 F8 FF FF 7F  .*)......R......
00C0: F8 FF FF 7F 73 30 32 36  45 07 80 F8 FF FF 7F F8  ....s026E.......
00D0: FF FF 7F 73 30 30 34 00  80 79 00 88 C0 0E 01 8D  ...s004..y......
00E0: C0 0E 01 4A 89 C0 0E 01  8D C0 0E 01 27 0C 8D C0  ...J........'...
00F0: 0E 01 22 2B 8D C0 0E 01  08 80 23 4A F0 FF FF 7F  .."+......#J....
0100: 8D C0 0E 01 1C 09 80 52  07 80 F8 FF FF 7F F8 FF  .......R........
0110: FF 7F 73 30 30 34 45 07  80 F8 FF FF 7F F8 FF FF  ..s004E.........
0120: 7F 73 30 30 35 00 80 22  01 4A F0 FF FF 7F 8D C0  .s005..".J......
0130: 0E 01 27 0C 88 C0 0E 01  29 2B 88 C0 0E 01 0A 80  ..'.....)+......
0140: 23 2A 0C 88 C0 0E 01 4A  F0 FF FF 7F 8D C0 0E 01  #*.....J........
0150: 2A 0C 8D C0 0E 01 4A F0  FF FF 7F 8D C0 0E 01 4A  *.....J........J
0160: 88 C0 0E 01 8D C0 0E 01  52 07 80 F8 FF FF 7F F8  ........R.......
0170: FF FF 7F 73 30 30 35 45  07 80 F8 FF FF 7F F8 FF  ...s005E........
0180: FF 7F 73 30 30 36 00 80  29 0C 8D C0 0E 01 27 52  ..s006..).....'R
0190: 07 80 F8 FF FF 7F F8 FF  FF 7F 73 30 30 36 45 07  ..........s006E.
01A0: 80 F8 FF FF 7F F8 FF FF  7F 73 30 30 37 00 80 4E  .........s007..N
01B0: 00 89 C0 0E 01 6F 76 88  C0 0E 01 29 0C 88 C0 0E  .....ov....)....
01C0: 01 2C 29 0B 88 C0 0E 01  03 2B 88 C0 0E 01 0B 80  .,)......+......
01D0: 23 29 0B 88 C0 0E 01 04  29 0B 8D C0 0E 01 0B 29  #)......)......)
01E0: 0C 8D C0 0E 01 28 29 0B  8D C0 0E 01 0C 52 07 80  .....()......R..
01F0: F8 FF FF 7F F8 FF FF 7F  73 30 30 37 45 07 80 F8  ........s007E...
0200: FF FF 7F F8 FF FF 7F 73  30 30 38 00 80 29 0B 88  .......s008..)..
0210: C0 0E 01 05 29 0C 88 C0  0E 01 2D 29 0B 88 C0 0E  ....).....-)....
0220: 01 06 52 07 80 F8 FF FF  7F F8 FF FF 7F 73 30 30  ..R..........s00
0230: 38 45 07 80 F8 FF FF 7F  F8 FF FF 7F 73 30 30 39  8E..........s009
0240: 00 80 27 0C 8D C0 0E 01  23 2B 8D C0 0E 01 0C 80  ..'.....#+......
0250: 23 2A 0C 8D C0 0E 01 52  07 80 F8 FF FF 7F F8 FF  #*.....R........
0260: FF 7F 73 30 30 39 02 09  10 0D 80 00 82 02 45 07  ..s009........E.
0270: 80 F8 FF FF 7F F8 FF FF  7F 73 31 31 31 00 80 01  .........s111...
0280: 93 02 45 07 80 F8 FF FF  7F F8 FF FF 7F 73 30 31  ..E..........s01
0290: 30 00 80 4A F0 FF FF 7F  8D C0 0E 01 4A 8D C0 0E  0..J........J...
02A0: 01 F0 FF FF 7F 6F 76 8D  C0 0E 01 29 0B 88 C0 0E  .....ov....)....
02B0: 01 1D 2B 8D C0 0E 01 0E  80 23 29 0B 88 C0 0E 01  ..+......#).....
02C0: 1E 29 0B 88 C0 0E 01 01  2B 8D C0 0E 01 0F 80 23  .)......+......#
02D0: 29 0B 88 C0 0E 01 02 02  09 10 0D 80 00 F1 02 52  )..............R
02E0: 07 80 F8 FF FF 7F F8 FF  FF 7F 73 31 31 31 01 00  ..........s111..
02F0: 03 52 07 80 F8 FF FF 7F  F8 FF FF 7F 73 30 31 30  .R..........s010
0300: 27 0C 8D C0 0E 01 24 5D  00 80 01 80 45 01 80 F8  '.....$]....E...
0310: FF FF 7F F8 FF FF 7F 66  64 6F 31 00 80 1C 10 80  .......fdo1.....
0320: 2A 0C 8D C0 0E 01 46 00  5C 00 11 80 5C 01 11 80  *.....F.\...\...
0330: 1C 01 80 45 01 80 F8 FF  FF 7F F8 FF FF 7F 66 64  ...E..........fd
0340: 69 31 00 80 21 20 00 00                           i1..! ..        
```

#### Opcodes

```
  0: 0x0001 [0x46] CAMERA_CONTROL: Disable user control
  1: 0x0003 [0x42] SET_CLI_EVENT_CANCEL_DATA()
  2: 0x0004 [0x4A] Juroro (ID: 17744008/0x010EC088) looks at LocalPlayer
  3: 0x000D [0x6F] WAIT_FRAME_DELAY: Yield until WaitTime reaches zero
  4: 0x000E [0x76] CHECK_ENTITY_RENDER_FLAGS: Wait until Juroro (ID: 17744008/0x010EC088) Render.Flags0 and Render.Flags3 conditions are met
  5: 0x0013 [0x5D] SET_MUSIC_VOLUME(volume=0*, fade_time=200*)
  6: 0x0018 [0x45] LOAD_SCHEDULED_TASK: Load scheduler "fdo1" with entities [EventEntity, EventEntity], work=[200*, 0*]
  7: 0x0029 [0x1C] WAIT(60* ticks)
  8: 0x002C [0x38] SET_CLIENT_EVENT_MODE(mode=19*)
  9: 0x002F [0x29] REQ_SET_WAIT(priority=0x0B, entity_id=LocalPlayer, tag_num=0x2D)
 10: 0x0036 [0x29] REQ_SET_WAIT(priority=0x0B, entity_id=Ildy-Goldy (ID: 17744013/0x010EC08D), tag_num=0x20)
 11: 0x003D [0x29] REQ_SET_WAIT(priority=0x0B, entity_id=LocalPlayer, tag_num=0x2C)
 12: 0x0044 [0x4E] SET_ENTITY_HIDE_FLAG: Show Ildy-Goldy (ID: 17744013/0x010EC08D)
 13: 0x004A [0x80] LOAD_WAIT(entity=Ildy-Goldy (ID: 17744013/0x010EC08D))
 14: 0x004F [0x4A] Ferrol (ID: 17744009/0x010EC089) looks at Juroro (ID: 17744008/0x010EC088)
 15: 0x0058 [0x4A] LocalPlayer looks at Juroro (ID: 17744008/0x010EC088)
 16: 0x0061 [0x4A] Juroro (ID: 17744008/0x010EC088) looks at LocalPlayer
 17: 0x006A [0x6F] WAIT_FRAME_DELAY: Yield until WaitTime reaches zero
 18: 0x006B [0x76] CHECK_ENTITY_RENDER_FLAGS: Wait until Juroro (ID: 17744008/0x010EC088) Render.Flags0 and Render.Flags3 conditions are met
 19: 0x0070 [0x1E] EventEntity looks at LocalPlayer and starts talking
 20: 0x0075 [0x6F] WAIT_FRAME_DELAY: Yield until WaitTime reaches zero
 21: 0x0076 [0x70] WAIT_ENTITY_RENDER_FLAG: Wait while EventEntity->Render.Flags3 bit 2 is set (cancel turn if not)
 22: 0x0077 [0x5C] MUSIC_CONTROL: Set Idle (Day) music to song 123*
 23: 0x007B [0x5C] MUSIC_CONTROL: Set Idle (Night) music to song 123*
 24: 0x007F [0x1C] WAIT(100* ticks)
 25: 0x0082 [0x45] LOAD_SCHEDULED_TASK: Load scheduler "s026" with entities [EventEntity, EventEntity], work=[249*, 0*]
 26: 0x0093 [0x45] LOAD_SCHEDULED_TASK: Load scheduler "fdi1" with entities [EventEntity, EventEntity], work=[200*, 0*]
 27: 0x00A4 [0x29] REQ_SET_WAIT(priority=0x0B, entity_id=Juroro (ID: 17744008/0x010EC088), tag_num=0x01)
 28: 0x00AB [0x29] REQ_SET_WAIT(priority=0x0C, entity_id=Juroro (ID: 17744008/0x010EC088), tag_num=0x2A)
 29: 0x00B2 [0x29] REQ_SET_WAIT(priority=0x0B, entity_id=Juroro (ID: 17744008/0x010EC088), tag_num=0x02)
 30: 0x00B9 [0x52] END_LOAD_SCHEDULER: End scheduler "s026" with entities [EventEntity, EventEntity], work=249*
 31: 0x00C8 [0x45] LOAD_SCHEDULED_TASK: Load scheduler "s004" with entities [EventEntity, EventEntity], work=[250*, 0*]
 32: 0x00D9 [0x79] Juroro (ID: 17744008/0x010EC088) looks at Ildy-Goldy (ID: 17744013/0x010EC08D) (Basic look)
 33: 0x00E3 [0x4A] Ferrol (ID: 17744009/0x010EC089) looks at Ildy-Goldy (ID: 17744013/0x010EC08D)
 34: 0x00EC [0x27] REQ_SET(priority=0x0C, entity_id=Ildy-Goldy (ID: 17744013/0x010EC08D), tag_num=0x22)
 35: 0x00F3 [0x2B] Ildy-Goldy (ID: 17744013/0x010EC08D) [8576*]:
    → "Hey, Juroro!"
 36: 0x00FA [0x23] WAIT_FOR_DIALOG_INTERACTION
 37: 0x00FB [0x4A] LocalPlayer looks at Ildy-Goldy (ID: 17744013/0x010EC08D)
 38: 0x0104 [0x1C] WAIT(150* ticks)
 39: 0x0107 [0x52] END_LOAD_SCHEDULER: End scheduler "s004" with entities [EventEntity, EventEntity], work=250*
 40: 0x0116 [0x45] LOAD_SCHEDULED_TASK: Load scheduler "s005" with entities [EventEntity, EventEntity], work=[250*, 0*]
 41: 0x0127 [0x22] ENTITY_HIDE_FLAG(enabled=0x01)
 42: 0x0129 [0x4A] LocalPlayer looks at Ildy-Goldy (ID: 17744013/0x010EC08D)
 43: 0x0132 [0x27] REQ_SET(priority=0x0C, entity_id=Juroro (ID: 17744008/0x010EC088), tag_num=0x29)
 44: 0x0139 [0x2B] Juroro (ID: 17744008/0x010EC088) [8577*]:
    → "Oh, it's Ildy-Goldy!"
 45: 0x0140 [0x23] WAIT_FOR_DIALOG_INTERACTION
 46: 0x0141 [0x2A] GET_REQ_LEVEL(level=12, entity_id=Juroro (ID: 17744008/0x010EC088))
 47: 0x0147 [0x4A] LocalPlayer looks at Ildy-Goldy (ID: 17744013/0x010EC08D)
 48: 0x0150 [0x2A] GET_REQ_LEVEL(level=12, entity_id=Ildy-Goldy (ID: 17744013/0x010EC08D))
 49: 0x0156 [0x4A] LocalPlayer looks at Ildy-Goldy (ID: 17744013/0x010EC08D)
 50: 0x015F [0x4A] Juroro (ID: 17744008/0x010EC088) looks at Ildy-Goldy (ID: 17744013/0x010EC08D)
 51: 0x0168 [0x52] END_LOAD_SCHEDULER: End scheduler "s005" with entities [EventEntity, EventEntity], work=250*
 52: 0x0177 [0x45] LOAD_SCHEDULED_TASK: Load scheduler "s006" with entities [EventEntity, EventEntity], work=[250*, 0*]
 53: 0x0188 [0x29] REQ_SET_WAIT(priority=0x0C, entity_id=Ildy-Goldy (ID: 17744013/0x010EC08D), tag_num=0x27)
 54: 0x018F [0x52] END_LOAD_SCHEDULER: End scheduler "s006" with entities [EventEntity, EventEntity], work=250*
 55: 0x019E [0x45] LOAD_SCHEDULED_TASK: Load scheduler "s007" with entities [EventEntity, EventEntity], work=[250*, 0*]
 56: 0x01AF [0x4E] SET_ENTITY_HIDE_FLAG: Show Ferrol (ID: 17744009/0x010EC089)
 57: 0x01B5 [0x6F] WAIT_FRAME_DELAY: Yield until WaitTime reaches zero
 58: 0x01B6 [0x76] CHECK_ENTITY_RENDER_FLAGS: Wait until Juroro (ID: 17744008/0x010EC088) Render.Flags0 and Render.Flags3 conditions are met
 59: 0x01BB [0x29] REQ_SET_WAIT(priority=0x0C, entity_id=Juroro (ID: 17744008/0x010EC088), tag_num=0x2C)
 60: 0x01C2 [0x29] REQ_SET_WAIT(priority=0x0B, entity_id=Juroro (ID: 17744008/0x010EC088), tag_num=0x03)
 61: 0x01C9 [0x2B] Juroro (ID: 17744008/0x010EC088) [8580*]:
    → "...Wait. Did [he/she] come back already? ...Or did I even ask [him/her] to do that yet?"
 62: 0x01D0 [0x23] WAIT_FOR_DIALOG_INTERACTION
 63: 0x01D1 [0x29] REQ_SET_WAIT(priority=0x0B, entity_id=Juroro (ID: 17744008/0x010EC088), tag_num=0x04)
 64: 0x01D8 [0x29] REQ_SET_WAIT(priority=0x0B, entity_id=Ildy-Goldy (ID: 17744013/0x010EC08D), tag_num=0x0B)
 65: 0x01DF [0x29] REQ_SET_WAIT(priority=0x0C, entity_id=Ildy-Goldy (ID: 17744013/0x010EC08D), tag_num=0x28)
 66: 0x01E6 [0x29] REQ_SET_WAIT(priority=0x0B, entity_id=Ildy-Goldy (ID: 17744013/0x010EC08D), tag_num=0x0C)
 67: 0x01ED [0x52] END_LOAD_SCHEDULER: End scheduler "s007" with entities [EventEntity, EventEntity], work=250*
 68: 0x01FC [0x45] LOAD_SCHEDULED_TASK: Load scheduler "s008" with entities [EventEntity, EventEntity], work=[250*, 0*]
 69: 0x020D [0x29] REQ_SET_WAIT(priority=0x0B, entity_id=Juroro (ID: 17744008/0x010EC088), tag_num=0x05)
 70: 0x0214 [0x29] REQ_SET_WAIT(priority=0x0C, entity_id=Juroro (ID: 17744008/0x010EC088), tag_num=0x2D)
 71: 0x021B [0x29] REQ_SET_WAIT(priority=0x0B, entity_id=Juroro (ID: 17744008/0x010EC088), tag_num=0x06)
 72: 0x0222 [0x52] END_LOAD_SCHEDULER: End scheduler "s008" with entities [EventEntity, EventEntity], work=250*
 73: 0x0231 [0x45] LOAD_SCHEDULED_TASK: Load scheduler "s009" with entities [EventEntity, EventEntity], work=[250*, 0*]
 74: 0x0242 [0x27] REQ_SET(priority=0x0C, entity_id=Ildy-Goldy (ID: 17744013/0x010EC08D), tag_num=0x23)
 75: 0x0249 [0x2B] Ildy-Goldy (ID: 17744013/0x010EC08D) [8583*]:
    → "Vell, no mattaru. I'll go take a look. I've been asked to carry out an experiment with the new version of the $3, the improved tuning fork of earth."
 76: 0x0250 [0x23] WAIT_FOR_DIALOG_INTERACTION
 77: 0x0251 [0x2A] GET_REQ_LEVEL(level=12, entity_id=Ildy-Goldy (ID: 17744013/0x010EC08D))
 78: 0x0257 [0x52] END_LOAD_SCHEDULER: End scheduler "s009" with entities [EventEntity, EventEntity], work=250*
 79: 0x0266 [0x02] IF !(Work_Zone[9] == 8*) GOTO 0x0282
 80: 0x026E [0x45] LOAD_SCHEDULED_TASK: Load scheduler "s111" with entities [EventEntity, EventEntity], work=[250*, 0*]
 81: 0x027F [0x01] GOTO 0x0293
 82: 0x0282 [0x45] LOAD_SCHEDULED_TASK: Load scheduler "s010" with entities [EventEntity, EventEntity], work=[250*, 0*]

SUBROUTINE_0293:
 83: 0x0293 [0x4A] LocalPlayer looks at Ildy-Goldy (ID: 17744013/0x010EC08D)
 84: 0x029C [0x4A] Ildy-Goldy (ID: 17744013/0x010EC08D) looks at LocalPlayer
 85: 0x02A5 [0x6F] WAIT_FRAME_DELAY: Yield until WaitTime reaches zero
 86: 0x02A6 [0x76] CHECK_ENTITY_RENDER_FLAGS: Wait until Ildy-Goldy (ID: 17744013/0x010EC08D) Render.Flags0 and Render.Flags3 conditions are met
 87: 0x02AB [0x29] REQ_SET_WAIT(priority=0x0B, entity_id=Juroro (ID: 17744008/0x010EC088), tag_num=0x1D)
 88: 0x02B2 [0x2B] Ildy-Goldy (ID: 17744013/0x010EC08D) [8584*]:
    → "Hey [Mister/Miss] Adventurer, you look like the reliable-viable type. Maybe you can help me out here. Take this $3 to the Quicksand Caves in the Eastern Altepa Desert."
 89: 0x02B9 [0x23] WAIT_FOR_DIALOG_INTERACTION
 90: 0x02BA [0x29] REQ_SET_WAIT(priority=0x0B, entity_id=Juroro (ID: 17744008/0x010EC088), tag_num=0x1E)
 91: 0x02C1 [0x29] REQ_SET_WAIT(priority=0x0B, entity_id=Juroro (ID: 17744008/0x010EC088), tag_num=0x01)
 92: 0x02C8 [0x2B] Ildy-Goldy (ID: 17744013/0x010EC08D) [8585*]:
    → "Using my improved tuning fork of earth along with the $3, should allow more people to be drawn into the crystal than using the regular $3."
 93: 0x02CF [0x23] WAIT_FOR_DIALOG_INTERACTION
 94: 0x02D0 [0x29] REQ_SET_WAIT(priority=0x0B, entity_id=Juroro (ID: 17744008/0x010EC088), tag_num=0x02)
 95: 0x02D7 [0x02] IF !(Work_Zone[9] == 8*) GOTO 0x02F1
 96: 0x02DF [0x52] END_LOAD_SCHEDULER: End scheduler "s111" with entities [EventEntity, EventEntity], work=250*
 97: 0x02EE [0x01] GOTO 0x0300
 98: 0x02F1 [0x52] END_LOAD_SCHEDULER: End scheduler "s010" with entities [EventEntity, EventEntity], work=250*

SUBROUTINE_0300:
 99: 0x0300 [0x27] REQ_SET(priority=0x0C, entity_id=Ildy-Goldy (ID: 17744013/0x010EC08D), tag_num=0x24)
100: 0x0307 [0x5D] SET_MUSIC_VOLUME(volume=0*, fade_time=200*)
101: 0x030C [0x45] LOAD_SCHEDULED_TASK: Load scheduler "fdo1" with entities [EventEntity, EventEntity], work=[200*, 0*]
102: 0x031D [0x1C] WAIT(120* ticks)
103: 0x0320 [0x2A] GET_REQ_LEVEL(level=12, entity_id=Ildy-Goldy (ID: 17744013/0x010EC08D))
104: 0x0326 [0x46] CAMERA_CONTROL: Restore default settings
105: 0x0328 [0x5C] MUSIC_CONTROL: Set Idle (Day) music to song 152*
106: 0x032C [0x5C] MUSIC_CONTROL: Set Idle (Night) music to song 152*
107: 0x0330 [0x1C] WAIT(200* ticks)
108: 0x0333 [0x45] LOAD_SCHEDULED_TASK: Load scheduler "fdi1" with entities [EventEntity, EventEntity], work=[200*, 0*]
109: 0x0344 [0x21] END_EVENT
```

#### Data or dead code:

```
# Dead code (unreachable instructions):
     0x0345 [0x20] SET_CLI_EVENT_UC_FLAG: Unlock player control
     0x0347 [0x00] END_REQSTACK()
```

### Event 258

#### Metadata

| Field        | Value     |
|--------------|-----------|
| Entrypoint   | 0x0348    |
| Data Size    | 534 bytes |
| Instructions | 76        |

```
      00 01 02 03 04 05 06 07  08 09 0A 0B 0C 0D 0E 0F
      -- -- -- -- -- -- -- --  -- -- -- -- -- -- -- --
0340:                          46 01 42 4A 88 C0 0E 01          F.BJ....
0350: F0 FF FF 7F 6F 76 88 C0  0E 01 5D 00 80 01 80 45  ....ov....]....E
0360: 01 80 F8 FF FF 7F F8 FF  FF 7F 66 64 6F 31 00 80  ..........fdo1..
0370: 1C 02 80 38 03 80 29 0B  F0 FF FF 7F 2D 29 0B 8D  ...8..).....-)..
0380: C0 0E 01 21 4E 00 8D C0  0E 01 80 8D C0 0E 01 4A  ...!N..........J
0390: 89 C0 0E 01 88 C0 0E 01  4A F0 FF FF 7F 88 C0 0E  ........J.......
03A0: 01 4A 88 C0 0E 01 F0 FF  FF 7F 6F 76 88 C0 0E 01  .J........ov....
03B0: 1E F0 FF FF 7F 6F 70 5C  00 04 80 5C 01 04 80 1C  .....op\...\....
03C0: 05 80 45 06 80 F8 FF FF  7F F8 FF FF 7F 73 30 32  ..E..........s02
03D0: 36 00 80 45 01 80 F8 FF  FF 7F F8 FF FF 7F 66 64  6..E..........fd
03E0: 69 31 00 80 29 0B 88 C0  0E 01 01 29 0C 88 C0 0E  i1..)......)....
03F0: 01 2F 29 0B 88 C0 0E 01  02 52 06 80 F8 FF FF 7F  ./)......R......
0400: F8 FF FF 7F 73 30 32 36  45 07 80 F8 FF FF 7F F8  ....s026E.......
0410: FF FF 7F 73 30 31 31 00  80 1E 8D C0 0E 01 4A F0  ...s011.......J.
0420: FF FF 7F 8D C0 0E 01 4A  89 C0 0E 01 8D C0 0E 01  .......J........
0430: 4A 88 C0 0E 01 8D C0 0E  01 27 0C 8D C0 0E 01 25  J........'.....%
0440: 2B 8D C0 0E 01 12 80 23  2A 0C 8D C0 0E 01 52 07  +......#*.....R.
0450: 80 F8 FF FF 7F F8 FF FF  7F 73 30 31 31 45 07 80  .........s011E..
0460: F8 FF FF 7F F8 FF FF 7F  73 30 31 32 00 80 29 0B  ........s012..).
0470: 8D C0 0E 01 03 2B 8D C0  0E 01 13 80 23 29 0B 8D  .....+......#)..
0480: C0 0E 01 04 29 0B 8D C0  0E 01 05 2B 8D C0 0E 01  ....)......+....
0490: 14 80 23 29 0B 8D C0 0E  01 06 52 07 80 F8 FF FF  ..#)......R.....
04A0: 7F F8 FF FF 7F 73 30 31  32 45 07 80 F8 FF FF 7F  .....s012E......
04B0: F8 FF FF 7F 73 30 31 33  00 80 4B 8D C0 0E 01 00  ....s013..K.....
04C0: 80 6F 76 8D C0 0E 01 2B  8D C0 0E 01 15 80 23 1C  .ov....+......#.
04D0: 02 80 52 07 80 F8 FF FF  7F F8 FF FF 7F 73 30 31  ..R..........s01
04E0: 33 45 07 80 F8 FF FF 7F  F8 FF FF 7F 73 30 31 32  3E..........s012
04F0: 00 80 4A 8D C0 0E 01 F0  FF FF 7F 6F 76 8D C0 0E  ..J........ov...
0500: 01 29 0B 8D C0 0E 01 01  29 0C 8D C0 0E 01 2B 29  .)......).....+)
0510: 0B 8D C0 0E 01 02 27 0C  8D C0 0E 01 24 5D 00 80  ......'.....$]..
0520: 01 80 45 01 80 F8 FF FF  7F F8 FF FF 7F 66 64 6F  ..E..........fdo
0530: 31 00 80 1C 10 80 2A 0C  8D C0 0E 01 46 00 5C 00  1.....*.....F.\.
0540: 11 80 5C 01 11 80 1C 01  80 45 01 80 F8 FF FF 7F  ..\......E......
0550: F8 FF FF 7F 66 64 69 31  00 80 21 20 00 00        ....fdi1..! ..  
```

#### Opcodes

```
  0: 0x0348 [0x46] CAMERA_CONTROL: Disable user control
  1: 0x034A [0x42] SET_CLI_EVENT_CANCEL_DATA()
  2: 0x034B [0x4A] Juroro (ID: 17744008/0x010EC088) looks at LocalPlayer
  3: 0x0354 [0x6F] WAIT_FRAME_DELAY: Yield until WaitTime reaches zero
  4: 0x0355 [0x76] CHECK_ENTITY_RENDER_FLAGS: Wait until Juroro (ID: 17744008/0x010EC088) Render.Flags0 and Render.Flags3 conditions are met
  5: 0x035A [0x5D] SET_MUSIC_VOLUME(volume=0*, fade_time=200*)
  6: 0x035F [0x45] LOAD_SCHEDULED_TASK: Load scheduler "fdo1" with entities [EventEntity, EventEntity], work=[200*, 0*]
  7: 0x0370 [0x1C] WAIT(60* ticks)
  8: 0x0373 [0x38] SET_CLIENT_EVENT_MODE(mode=19*)
  9: 0x0376 [0x29] REQ_SET_WAIT(priority=0x0B, entity_id=LocalPlayer, tag_num=0x2D)
 10: 0x037D [0x29] REQ_SET_WAIT(priority=0x0B, entity_id=Ildy-Goldy (ID: 17744013/0x010EC08D), tag_num=0x21)
 11: 0x0384 [0x4E] SET_ENTITY_HIDE_FLAG: Show Ildy-Goldy (ID: 17744013/0x010EC08D)
 12: 0x038A [0x80] LOAD_WAIT(entity=Ildy-Goldy (ID: 17744013/0x010EC08D))
 13: 0x038F [0x4A] Ferrol (ID: 17744009/0x010EC089) looks at Juroro (ID: 17744008/0x010EC088)
 14: 0x0398 [0x4A] LocalPlayer looks at Juroro (ID: 17744008/0x010EC088)
 15: 0x03A1 [0x4A] Juroro (ID: 17744008/0x010EC088) looks at LocalPlayer
 16: 0x03AA [0x6F] WAIT_FRAME_DELAY: Yield until WaitTime reaches zero
 17: 0x03AB [0x76] CHECK_ENTITY_RENDER_FLAGS: Wait until Juroro (ID: 17744008/0x010EC088) Render.Flags0 and Render.Flags3 conditions are met
 18: 0x03B0 [0x1E] EventEntity looks at LocalPlayer and starts talking
 19: 0x03B5 [0x6F] WAIT_FRAME_DELAY: Yield until WaitTime reaches zero
 20: 0x03B6 [0x70] WAIT_ENTITY_RENDER_FLAG: Wait while EventEntity->Render.Flags3 bit 2 is set (cancel turn if not)
 21: 0x03B7 [0x5C] MUSIC_CONTROL: Set Idle (Day) music to song 123*
 22: 0x03BB [0x5C] MUSIC_CONTROL: Set Idle (Night) music to song 123*
 23: 0x03BF [0x1C] WAIT(100* ticks)
 24: 0x03C2 [0x45] LOAD_SCHEDULED_TASK: Load scheduler "s026" with entities [EventEntity, EventEntity], work=[249*, 0*]
 25: 0x03D3 [0x45] LOAD_SCHEDULED_TASK: Load scheduler "fdi1" with entities [EventEntity, EventEntity], work=[200*, 0*]
 26: 0x03E4 [0x29] REQ_SET_WAIT(priority=0x0B, entity_id=Juroro (ID: 17744008/0x010EC088), tag_num=0x01)
 27: 0x03EB [0x29] REQ_SET_WAIT(priority=0x0C, entity_id=Juroro (ID: 17744008/0x010EC088), tag_num=0x2F)
 28: 0x03F2 [0x29] REQ_SET_WAIT(priority=0x0B, entity_id=Juroro (ID: 17744008/0x010EC088), tag_num=0x02)
 29: 0x03F9 [0x52] END_LOAD_SCHEDULER: End scheduler "s026" with entities [EventEntity, EventEntity], work=249*
 30: 0x0408 [0x45] LOAD_SCHEDULED_TASK: Load scheduler "s011" with entities [EventEntity, EventEntity], work=[250*, 0*]
 31: 0x0419 [0x1E] EventEntity looks at Ildy-Goldy (ID: 17744013/0x010EC08D) and starts talking
 32: 0x041E [0x4A] LocalPlayer looks at Ildy-Goldy (ID: 17744013/0x010EC08D)
 33: 0x0427 [0x4A] Ferrol (ID: 17744009/0x010EC089) looks at Ildy-Goldy (ID: 17744013/0x010EC08D)
 34: 0x0430 [0x4A] Juroro (ID: 17744008/0x010EC088) looks at Ildy-Goldy (ID: 17744013/0x010EC08D)
 35: 0x0439 [0x27] REQ_SET(priority=0x0C, entity_id=Ildy-Goldy (ID: 17744013/0x010EC08D), tag_num=0x25)
 36: 0x0440 [0x2B] Ildy-Goldy (ID: 17744013/0x010EC08D) [8596*]:
    → "Oh good, you made it back in one piece. I'm sorry about before, I was completely-vetely caught up with chasing down Uran-Mafran."
 37: 0x0447 [0x23] WAIT_FOR_DIALOG_INTERACTION
 38: 0x0448 [0x2A] GET_REQ_LEVEL(level=12, entity_id=Ildy-Goldy (ID: 17744013/0x010EC08D))
 39: 0x044E [0x52] END_LOAD_SCHEDULER: End scheduler "s011" with entities [EventEntity, EventEntity], work=250*
 40: 0x045D [0x45] LOAD_SCHEDULED_TASK: Load scheduler "s012" with entities [EventEntity, EventEntity], work=[250*, 0*]
 41: 0x046E [0x29] REQ_SET_WAIT(priority=0x0B, entity_id=Ildy-Goldy (ID: 17744013/0x010EC08D), tag_num=0x03)
 42: 0x0475 [0x2B] Ildy-Goldy (ID: 17744013/0x010EC08D) [8597*]:
    → "I didn't end up collaring him, though. Those mages can be a slippery-vippery bunch..."
 43: 0x047C [0x23] WAIT_FOR_DIALOG_INTERACTION
 44: 0x047D [0x29] REQ_SET_WAIT(priority=0x0B, entity_id=Ildy-Goldy (ID: 17744013/0x010EC08D), tag_num=0x04)
 45: 0x0484 [0x29] REQ_SET_WAIT(priority=0x0B, entity_id=Ildy-Goldy (ID: 17744013/0x010EC08D), tag_num=0x05)
 46: 0x048B [0x2B] Ildy-Goldy (ID: 17744013/0x010EC08D) [8598*]:
    → "...But at least ve know the reason vhy the researchers have been acting so odd-voddly lately."
 47: 0x0492 [0x23] WAIT_FOR_DIALOG_INTERACTION
 48: 0x0493 [0x29] REQ_SET_WAIT(priority=0x0B, entity_id=Ildy-Goldy (ID: 17744013/0x010EC08D), tag_num=0x06)
 49: 0x049A [0x52] END_LOAD_SCHEDULER: End scheduler "s012" with entities [EventEntity, EventEntity], work=250*
 50: 0x04A9 [0x45] LOAD_SCHEDULED_TASK: Load scheduler "s013" with entities [EventEntity, EventEntity], work=[250*, 0*]
 51: 0x04BA [0x4B] UPDATE_ENTITY_YAW(entity=Ildy-Goldy (ID: 17744013/0x010EC08D), yaw=0.0°*)
 52: 0x04C1 [0x6F] WAIT_FRAME_DELAY: Yield until WaitTime reaches zero
 53: 0x04C2 [0x76] CHECK_ENTITY_RENDER_FLAGS: Wait until Ildy-Goldy (ID: 17744013/0x010EC08D) Render.Flags0 and Render.Flags3 conditions are met
 54: 0x04C7 [0x2B] Ildy-Goldy (ID: 17744013/0x010EC08D) [8599*]:
    → "It vas all his doing. Uran-Mafran... He's been erasing everybody's memories."
 55: 0x04CE [0x23] WAIT_FOR_DIALOG_INTERACTION
 56: 0x04CF [0x1C] WAIT(60* ticks)
 57: 0x04D2 [0x52] END_LOAD_SCHEDULER: End scheduler "s013" with entities [EventEntity, EventEntity], work=250*
 58: 0x04E1 [0x45] LOAD_SCHEDULED_TASK: Load scheduler "s012" with entities [EventEntity, EventEntity], work=[250*, 0*]
 59: 0x04F2 [0x4A] Ildy-Goldy (ID: 17744013/0x010EC08D) looks at LocalPlayer
 60: 0x04FB [0x6F] WAIT_FRAME_DELAY: Yield until WaitTime reaches zero
 61: 0x04FC [0x76] CHECK_ENTITY_RENDER_FLAGS: Wait until Ildy-Goldy (ID: 17744013/0x010EC08D) Render.Flags0 and Render.Flags3 conditions are met
 62: 0x0501 [0x29] REQ_SET_WAIT(priority=0x0B, entity_id=Ildy-Goldy (ID: 17744013/0x010EC08D), tag_num=0x01)
 63: 0x0508 [0x29] REQ_SET_WAIT(priority=0x0C, entity_id=Ildy-Goldy (ID: 17744013/0x010EC08D), tag_num=0x2B)
 64: 0x050F [0x29] REQ_SET_WAIT(priority=0x0B, entity_id=Ildy-Goldy (ID: 17744013/0x010EC08D), tag_num=0x02)
 65: 0x0516 [0x27] REQ_SET(priority=0x0C, entity_id=Ildy-Goldy (ID: 17744013/0x010EC08D), tag_num=0x24)
 66: 0x051D [0x5D] SET_MUSIC_VOLUME(volume=0*, fade_time=200*)
 67: 0x0522 [0x45] LOAD_SCHEDULED_TASK: Load scheduler "fdo1" with entities [EventEntity, EventEntity], work=[200*, 0*]
 68: 0x0533 [0x1C] WAIT(120* ticks)
 69: 0x0536 [0x2A] GET_REQ_LEVEL(level=12, entity_id=Ildy-Goldy (ID: 17744013/0x010EC08D))
 70: 0x053C [0x46] CAMERA_CONTROL: Restore default settings
 71: 0x053E [0x5C] MUSIC_CONTROL: Set Idle (Day) music to song 152*
 72: 0x0542 [0x5C] MUSIC_CONTROL: Set Idle (Night) music to song 152*
 73: 0x0546 [0x1C] WAIT(200* ticks)
 74: 0x0549 [0x45] LOAD_SCHEDULED_TASK: Load scheduler "fdi1" with entities [EventEntity, EventEntity], work=[200*, 0*]
 75: 0x055A [0x21] END_EVENT
```

#### Data or dead code:

```
# Dead code (unreachable instructions):
     0x055B [0x20] SET_CLI_EVENT_UC_FLAG: Unlock player control
     0x055D [0x00] END_REQSTACK()
```

### Event 307

#### Metadata

| Field        | Value     |
|--------------|-----------|
| Entrypoint   | 0x055E    |
| Data Size    | 605 bytes |
| Instructions | 86        |

```
      00 01 02 03 04 05 06 07  08 09 0A 0B 0C 0D 0E 0F
      -- -- -- -- -- -- -- --  -- -- -- -- -- -- -- --
0550:                                            20 01                 .
0560: 42 46 01 4A 8F C0 0E 01  F0 FF FF 7F 6F 76 8F C0  BF.J........ov..
0570: 0E 01 29 08 8F C0 0E 01  01 2B 8F C0 0E 01 16 80  ..)......+......
0580: 23 2B 8F C0 0E 01 17 80  23 29 08 8F C0 0E 01 02  #+......#)......
0590: 45 01 80 F8 FF FF 7F F8  FF FF 7F 66 64 6F 31 00  E..........fdo1.
05A0: 80 1C 02 80 38 18 80 29  08 F0 FF FF 7F 3B 29 0B  ....8..).....;).
05B0: F0 FF FF 7F 3D 4A 8F C0  0E 01 F0 FF FF 7F 4A F0  ....=J........J.
05C0: FF FF 7F 8F C0 0E 01 6F  76 8F C0 0E 01 6F 76 F0  .......ov....ov.
05D0: FF FF 7F 92 01 8F C0 0E  01 45 19 80 F8 FF FF 7F  .........E......
05E0: F8 FF FF 7F 73 30 31 35  00 80 45 01 80 F8 FF FF  ....s015..E.....
05F0: 7F F8 FF FF 7F 66 64 69  31 00 80 2B 8F C0 0E 01  .....fdi1..+....
0600: 1A 80 23 27 08 8F C0 0E  01 2E 2B 8F C0 0E 01 1B  ..#'......+.....
0610: 80 23 2A 08 8F C0 0E 01  52 19 80 F8 FF FF 7F F8  .#*.....R.......
0620: FF FF 7F 73 30 31 35 45  19 80 F8 FF FF 7F F8 FF  ...s015E........
0630: FF 7F 73 30 31 36 00 80  7B 8F C0 0E 01 27 0B 8F  ..s016..{....'..
0640: C0 0E 01 49 2B 8F C0 0E  01 1C 80 23 2A 0B 8F C0  ...I+......#*...
0650: 0E 01 4A F0 FF FF 7F 8F  C0 0E 01 27 08 8F C0 0E  ..J........'....
0660: 01 30 2B 8F C0 0E 01 1D  80 23 2A 08 8F C0 0E 01  .0+......#*.....
0670: 6F 76 F0 FF FF 7F 52 19  80 F8 FF FF 7F F8 FF FF  ov....R.........
0680: 7F 73 30 31 36 02 09 10  1E 80 00 A1 06 45 19 80  .s016........E..
0690: F8 FF FF 7F F8 FF FF 7F  73 30 31 39 00 80 01 CE  ........s019....
06A0: 06 02 09 10 1F 80 00 BD  06 45 19 80 F8 FF FF 7F  .........E......
06B0: F8 FF FF 7F 73 30 31 39  00 80 01 CE 06 45 19 80  ....s019.....E..
06C0: F8 FF FF 7F F8 FF FF 7F  73 30 31 37 00 80 4A 8F  ........s017..J.
06D0: C0 0E 01 F0 FF FF 7F 2B  8F C0 0E 01 20 80 23 6F  .......+.... .#o
06E0: 76 8F C0 0E 01 29 08 8F  C0 0E 01 0B 2B 8F C0 0E  v....)......+...
06F0: 01 21 80 23 29 08 8F C0  0E 01 0C 02 09 10 1E 80  .!.#)...........
0700: 00 15 07 52 19 80 F8 FF  FF 7F F8 FF FF 7F 73 30  ...R..........s0
0710: 31 39 01 3E 07 02 09 10  1F 80 00 2F 07 52 19 80  19.>......./.R..
0720: F8 FF FF 7F F8 FF FF 7F  73 30 31 39 01 3E 07 52  ........s019.>.R
0730: 19 80 F8 FF FF 7F F8 FF  FF 7F 73 30 31 37 45 01  ..........s017E.
0740: 80 F0 FF FF 7F F0 FF FF  7F 6F 76 6C 31 00 80 45  .........ovl1..E
0750: 19 80 F8 FF FF 7F F8 FF  FF 7F 73 30 31 38 00 80  ..........s018..
0760: 29 08 8F C0 0E 01 01 2B  8F C0 0E 01 22 80 23 45  )......+....".#E
0770: 01 80 F0 FF FF 7F F0 FF  FF 7F 66 64 6F 31 00 80  ..........fdo1..
0780: 1C 02 80 52 19 80 F8 FF  FF 7F F8 FF FF 7F 73 30  ...R..........s0
0790: 31 38 29 08 8F C0 0E 01  02 4E 00 F0 FF FF 7F 80  18)......N......
07A0: F0 FF FF 7F 46 00 45 01  80 F0 FF FF 7F F0 FF FF  ....F.E.........
07B0: 7F 66 64 69 31 00 80 20  00 21 00                 .fdi1.. .!.     
```

#### Opcodes

```
  0: 0x055E [0x20] SET_CLI_EVENT_UC_FLAG: Lock player control
  1: 0x0560 [0x42] SET_CLI_EVENT_CANCEL_DATA()
  2: 0x0561 [0x46] CAMERA_CONTROL: Disable user control
  3: 0x0563 [0x4A] Ravorara (ID: 17744015/0x010EC08F) looks at LocalPlayer
  4: 0x056C [0x6F] WAIT_FRAME_DELAY: Yield until WaitTime reaches zero
  5: 0x056D [0x76] CHECK_ENTITY_RENDER_FLAGS: Wait until Ravorara (ID: 17744015/0x010EC08F) Render.Flags0 and Render.Flags3 conditions are met
  6: 0x0572 [0x29] REQ_SET_WAIT(priority=0x08, entity_id=Ravorara (ID: 17744015/0x010EC08F), tag_num=0x01)
  7: 0x0579 [0x2B] Ravorara (ID: 17744015/0x010EC08F) [9125*]:
    → "Adventurers, one and all! Your help is needed to investimigate the Moblin settlement that has appeared in North Gustaberg!"
  8: 0x0580 [0x23] WAIT_FOR_DIALOG_INTERACTION
  9: 0x0581 [0x2B] Ravorara (ID: 17744015/0x010EC08F) [9126*]:
    → "Reportificate to Mythril Musketeer Ayame for the details!"
 10: 0x0588 [0x23] WAIT_FOR_DIALOG_INTERACTION
 11: 0x0589 [0x29] REQ_SET_WAIT(priority=0x08, entity_id=Ravorara (ID: 17744015/0x010EC08F), tag_num=0x02)
 12: 0x0590 [0x45] LOAD_SCHEDULED_TASK: Load scheduler "fdo1" with entities [EventEntity, EventEntity], work=[200*, 0*]
 13: 0x05A1 [0x1C] WAIT(60* ticks)
 14: 0x05A4 [0x38] SET_CLIENT_EVENT_MODE(mode=3*)
 15: 0x05A7 [0x29] REQ_SET_WAIT(priority=0x08, entity_id=LocalPlayer, tag_num=0x3B)
 16: 0x05AE [0x29] REQ_SET_WAIT(priority=0x0B, entity_id=LocalPlayer, tag_num=0x3D)
 17: 0x05B5 [0x4A] Ravorara (ID: 17744015/0x010EC08F) looks at LocalPlayer
 18: 0x05BE [0x4A] LocalPlayer looks at Ravorara (ID: 17744015/0x010EC08F)
 19: 0x05C7 [0x6F] WAIT_FRAME_DELAY: Yield until WaitTime reaches zero
 20: 0x05C8 [0x76] CHECK_ENTITY_RENDER_FLAGS: Wait until Ravorara (ID: 17744015/0x010EC08F) Render.Flags0 and Render.Flags3 conditions are met
 21: 0x05CD [0x6F] WAIT_FRAME_DELAY: Yield until WaitTime reaches zero
 22: 0x05CE [0x76] CHECK_ENTITY_RENDER_FLAGS: Wait until LocalPlayer Render.Flags0 and Render.Flags3 conditions are met
 23: 0x05D3 [0x92] Ravorara (ID: 17744015/0x010EC08F)->Render.Flags3 ^= 0x01
 24: 0x05D9 [0x45] LOAD_SCHEDULED_TASK: Load scheduler "s015" with entities [EventEntity, EventEntity], work=[126*, 0*]
 25: 0x05EA [0x45] LOAD_SCHEDULED_TASK: Load scheduler "fdi1" with entities [EventEntity, EventEntity], work=[200*, 0*]
 26: 0x05FB [0x2B] Ravorara (ID: 17744015/0x010EC08F) [9127*]:
    → "Yes? Oh, you've decidified to undertake the task from Mythril Musketeer Ayame?"
 27: 0x0602 [0x23] WAIT_FOR_DIALOG_INTERACTION
 28: 0x0603 [0x27] REQ_SET(priority=0x08, entity_id=Ravorara (ID: 17744015/0x010EC08F), tag_num=0x2E)
 29: 0x060A [0x2B] Ravorara (ID: 17744015/0x010EC08F) [9128*]:
    → "Welcome aboard. I am a researcher affilimiated with the Rhinostery in Windurst."
 30: 0x0611 [0x23] WAIT_FOR_DIALOG_INTERACTION
 31: 0x0612 [0x2A] GET_REQ_LEVEL(level=8, entity_id=Ravorara (ID: 17744015/0x010EC08F))
 32: 0x0618 [0x52] END_LOAD_SCHEDULER: End scheduler "s015" with entities [EventEntity, EventEntity], work=126*
 33: 0x0627 [0x45] LOAD_SCHEDULED_TASK: Load scheduler "s016" with entities [EventEntity, EventEntity], work=[126*, 0*]
 34: 0x0638 [0x7B] Ravorara (ID: 17744015/0x010EC08F) stops talking
 35: 0x063D [0x27] REQ_SET(priority=0x0B, entity_id=Ravorara (ID: 17744015/0x010EC08F), tag_num=0x49)
 36: 0x0644 [0x2B] Ravorara (ID: 17744015/0x010EC08F) [9129*]:
    → "I must warn you, this investimigation will be rather difficult."
 37: 0x064B [0x23] WAIT_FOR_DIALOG_INTERACTION
 38: 0x064C [0x2A] GET_REQ_LEVEL(level=11, entity_id=Ravorara (ID: 17744015/0x010EC08F))
 39: 0x0652 [0x4A] LocalPlayer looks at Ravorara (ID: 17744015/0x010EC08F)
 40: 0x065B [0x27] REQ_SET(priority=0x08, entity_id=Ravorara (ID: 17744015/0x010EC08F), tag_num=0x30)
 41: 0x0662 [0x2B] Ravorara (ID: 17744015/0x010EC08F) [9130*]:
    → "Other adventurers who have returned from the Moblin settlement so far have reportificated Bastok's new neighbors to be extremely unwelcoming."
 42: 0x0669 [0x23] WAIT_FOR_DIALOG_INTERACTION
 43: 0x066A [0x2A] GET_REQ_LEVEL(level=8, entity_id=Ravorara (ID: 17744015/0x010EC08F))
 44: 0x0670 [0x6F] WAIT_FRAME_DELAY: Yield until WaitTime reaches zero
 45: 0x0671 [0x76] CHECK_ENTITY_RENDER_FLAGS: Wait until LocalPlayer Render.Flags0 and Render.Flags3 conditions are met
 46: 0x0676 [0x52] END_LOAD_SCHEDULER: End scheduler "s016" with entities [EventEntity, EventEntity], work=126*
 47: 0x0685 [0x02] IF !(Work_Zone[9] == 5*) GOTO 0x06A1
 48: 0x068D [0x45] LOAD_SCHEDULED_TASK: Load scheduler "s019" with entities [EventEntity, EventEntity], work=[126*, 0*]
 49: 0x069E [0x01] GOTO 0x06CE
 50: 0x06A1 [0x02] IF !(Work_Zone[9] == 6*) GOTO 0x06BD
 51: 0x06A9 [0x45] LOAD_SCHEDULED_TASK: Load scheduler "s019" with entities [EventEntity, EventEntity], work=[126*, 0*]
 52: 0x06BA [0x01] GOTO 0x06CE
 53: 0x06BD [0x45] LOAD_SCHEDULED_TASK: Load scheduler "s017" with entities [EventEntity, EventEntity], work=[126*, 0*]

SUBROUTINE_06CE:
 54: 0x06CE [0x4A] Ravorara (ID: 17744015/0x010EC08F) looks at LocalPlayer
 55: 0x06D7 [0x2B] Ravorara (ID: 17744015/0x010EC08F) [9131*]:
    → "I supposify we are the intruders from the Moblins' point of view. If only we could communificate with them somehow..."
 56: 0x06DE [0x23] WAIT_FOR_DIALOG_INTERACTION
 57: 0x06DF [0x6F] WAIT_FRAME_DELAY: Yield until WaitTime reaches zero
 58: 0x06E0 [0x76] CHECK_ENTITY_RENDER_FLAGS: Wait until Ravorara (ID: 17744015/0x010EC08F) Render.Flags0 and Render.Flags3 conditions are met
 59: 0x06E5 [0x29] REQ_SET_WAIT(priority=0x08, entity_id=Ravorara (ID: 17744015/0x010EC08F), tag_num=0x0B)
 60: 0x06EC [0x2B] Ravorara (ID: 17744015/0x010EC08F) [9132*]:
    → "But putting that aside, your task will be to acquiremirize any unusual Moblin-type objects you come across."
 61: 0x06F3 [0x23] WAIT_FOR_DIALOG_INTERACTION
 62: 0x06F4 [0x29] REQ_SET_WAIT(priority=0x08, entity_id=Ravorara (ID: 17744015/0x010EC08F), tag_num=0x0C)
 63: 0x06FB [0x02] IF !(Work_Zone[9] == 5*) GOTO 0x0715
 64: 0x0703 [0x52] END_LOAD_SCHEDULER: End scheduler "s019" with entities [EventEntity, EventEntity], work=126*
 65: 0x0712 [0x01] GOTO 0x073E
 66: 0x0715 [0x02] IF !(Work_Zone[9] == 6*) GOTO 0x072F
 67: 0x071D [0x52] END_LOAD_SCHEDULER: End scheduler "s019" with entities [EventEntity, EventEntity], work=126*
 68: 0x072C [0x01] GOTO 0x073E
 69: 0x072F [0x52] END_LOAD_SCHEDULER: End scheduler "s017" with entities [EventEntity, EventEntity], work=126*

SUBROUTINE_073E:
 70: 0x073E [0x45] LOAD_SCHEDULED_TASK: Load scheduler "ovl1" with entities [LocalPlayer, LocalPlayer], work=[200*, 0*]
 71: 0x074F [0x45] LOAD_SCHEDULED_TASK: Load scheduler "s018" with entities [EventEntity, EventEntity], work=[126*, 0*]
 72: 0x0760 [0x29] REQ_SET_WAIT(priority=0x08, entity_id=Ravorara (ID: 17744015/0x010EC08F), tag_num=0x01)
 73: 0x0767 [0x2B] Ravorara (ID: 17744015/0x010EC08F) [9133*]:
    → "And that doesn't mean pilferizing them from the inhabitants of Movalpolos! You are to find some friendly Moblins and obtainify items through your might of negotiation. Take care, bye bye now!"
 74: 0x076E [0x23] WAIT_FOR_DIALOG_INTERACTION
 75: 0x076F [0x45] LOAD_SCHEDULED_TASK: Load scheduler "fdo1" with entities [LocalPlayer, LocalPlayer], work=[200*, 0*]
 76: 0x0780 [0x1C] WAIT(60* ticks)
 77: 0x0783 [0x52] END_LOAD_SCHEDULER: End scheduler "s018" with entities [EventEntity, EventEntity], work=126*
 78: 0x0792 [0x29] REQ_SET_WAIT(priority=0x08, entity_id=Ravorara (ID: 17744015/0x010EC08F), tag_num=0x02)
 79: 0x0799 [0x4E] SET_ENTITY_HIDE_FLAG: Show LocalPlayer
 80: 0x079F [0x80] LOAD_WAIT(entity=LocalPlayer)
 81: 0x07A4 [0x46] CAMERA_CONTROL: Restore default settings
 82: 0x07A6 [0x45] LOAD_SCHEDULED_TASK: Load scheduler "fdi1" with entities [LocalPlayer, LocalPlayer], work=[200*, 0*]
 83: 0x07B7 [0x20] SET_CLI_EVENT_UC_FLAG: Unlock player control
 84: 0x07B9 [0x21] END_EVENT
 85: 0x07BA [0x00] END_REQSTACK()
```

### Event 309

#### Metadata

| Field        | Value     |
|--------------|-----------|
| Entrypoint   | 0x07BB    |
| Data Size    | 808 bytes |
| Instructions | 127       |

```
      00 01 02 03 04 05 06 07  08 09 0A 0B 0C 0D 0E 0F
      -- -- -- -- -- -- -- --  -- -- -- -- -- -- -- --
07B0:                                   20 01 42 46 01              .BF.
07C0: 4A 8F C0 0E 01 F0 FF FF  7F 6F 76 8F C0 0E 01 29  J........ov....)
07D0: 08 8F C0 0E 01 01 2B 8F  C0 0E 01 23 80 23 29 08  ......+....#.#).
07E0: 8F C0 0E 01 02 02 03 10  1E 80 03 12 08 45 01 80  .............E..
07F0: F8 FF FF 7F F8 FF FF 7F  66 64 6F 31 00 80 1C 10  ........fdo1....
0800: 80 45 01 80 F8 FF FF 7F  F8 FF FF 7F 66 64 69 31  .E..........fdi1
0810: 00 80 02 03 10 24 80 80  56 08 03 01 10 24 80 29  .....$..V....$.)
0820: 08 8F C0 0E 01 21 2B 8F  C0 0E 01 25 80 23 29 08  .....!+....%.#).
0830: 8F C0 0E 01 22 29 08 8F  C0 0E 01 23 2B 8F C0 0E  ....").....#+...
0840: 01 26 80 23 29 08 8F C0  0E 01 24 2B 8F C0 0E 01  .&.#).....$+....
0850: 27 80 23 01 AD 0A 02 03  10 28 80 80 92 08 03 01  '.#......(......
0860: 10 28 80 29 08 8F C0 0E  01 03 2B 8F C0 0E 01 29  .(.)......+....)
0870: 80 23 29 08 8F C0 0E 01  04 29 08 8F C0 0E 01 05  .#)......)......
0880: 2B 8F C0 0E 01 2A 80 23  29 08 8F C0 0E 01 06 01  +....*.#).......
0890: AD 0A 02 03 10 18 80 80  CE 08 03 01 10 18 80 29  ...............)
08A0: 08 8F C0 0E 01 03 2B 8F  C0 0E 01 2B 80 23 29 08  ......+....+.#).
08B0: 8F C0 0E 01 04 29 08 8F  C0 0E 01 05 2B 8F C0 0E  .....)......+...
08C0: 01 2C 80 23 29 08 8F C0  0E 01 06 01 AD 0A 02 03  .,.#)...........
08D0: 10 2D 80 80 09 09 03 01  10 2D 80 27 08 8F C0 0E  .-.......-.'....
08E0: 01 30 2B 8F C0 0E 01 2E  80 23 2A 08 8F C0 0E 01  .0+......#*.....
08F0: 29 08 8F C0 0E 01 01 2B  8F C0 0E 01 2F 80 23 29  )......+..../.#)
0900: 08 8F C0 0E 01 02 01 AD  0A 02 03 10 1E 80 80 AD  ................
0910: 0A 03 01 10 1E 80 45 01  80 F8 FF FF 7F F8 FF FF  ......E.........
0920: 7F 66 64 6F 31 00 80 1C  02 80 38 18 80 29 08 F0  .fdo1.....8..)..
0930: FF FF 7F 3B 29 0B F0 FF  FF 7F 3D 4A 8F C0 0E 01  ...;).....=J....
0940: F0 FF FF 7F 4A F0 FF FF  7F 8F C0 0E 01 6F 76 8F  ....J........ov.
0950: C0 0E 01 6F 76 F0 FF FF  7F 92 01 8F C0 0E 01 45  ...ov..........E
0960: 19 80 F8 FF FF 7F F8 FF  FF 7F 73 30 31 35 00 80  ..........s015..
0970: 45 01 80 F8 FF FF 7F F8  FF FF 7F 66 64 69 31 00  E..........fdi1.
0980: 80 29 08 8F C0 0E 01 07  2B 8F C0 0E 01 30 80 23  .)......+....0.#
0990: 29 08 8F C0 0E 01 08 29  08 8F C0 0E 01 03 2B 8F  )......)......+.
09A0: C0 0E 01 31 80 23 29 08  8F C0 0E 01 04 29 08 8F  ...1.#)......)..
09B0: C0 0E 01 05 29 08 8F C0  0E 01 06 52 19 80 F8 FF  ....)......R....
09C0: FF 7F F8 FF FF 7F 73 30  31 35 45 19 80 F8 FF FF  ......s015E.....
09D0: 7F F8 FF FF 7F 73 30 32  31 00 80 92 01 F0 FF FF  .....s021.......
09E0: 7F 7B 8F C0 0E 01 27 0B  8F C0 0E 01 49 27 0B F0  .{....'.....I'..
09F0: FF FF 7F 3E 2B 8F C0 0E  01 32 80 23 2A 0B F0 FF  ...>+....2.#*...
0A00: FF 7F 2A 0B 8F C0 0E 01  2B 8F C0 0E 01 33 80 23  ..*.....+....3.#
0A10: 52 19 80 F8 FF FF 7F F8  FF FF 7F 73 30 32 31 45  R..........s021E
0A20: 19 80 F8 FF FF 7F F8 FF  FF 7F 73 30 32 30 00 80  ..........s020..
0A30: 4A 8F C0 0E 01 F0 FF FF  7F 6F 76 8F C0 0E 01 29  J........ov....)
0A40: 08 8F C0 0E 01 1D 2B 8F  C0 0E 01 34 80 23 29 08  ......+....4.#).
0A50: 8F C0 0E 01 1E 92 00 F0  FF FF 7F 52 19 80 F8 FF  ...........R....
0A60: FF 7F F8 FF FF 7F 73 30  32 30 45 19 80 F8 FF FF  ......s020E.....
0A70: 7F F8 FF FF 7F 73 30 32  32 00 80 4A F0 FF FF 7F  .....s022..J....
0A80: 8F C0 0E 01 29 08 8F C0  0E 01 45 2B 8F C0 0E 01  ....).....E+....
0A90: 35 80 23 2B 8F C0 0E 01  36 80 23 52 19 80 F8 FF  5.#+....6.#R....
0AA0: FF 7F F8 FF FF 7F 73 30  32 32 01 AD 0A 45 01 80  ......s022...E..
0AB0: F0 FF FF 7F F0 FF FF 7F  66 64 6F 31 00 80 1C 02  ........fdo1....
0AC0: 80 4E 00 F0 FF FF 7F 80  F0 FF FF 7F 46 00 45 01  .N..........F.E.
0AD0: 80 F0 FF FF 7F F0 FF FF  7F 66 64 69 31 00 80 20  .........fdi1.. 
0AE0: 00 21 00                                          .!.             
```

#### Opcodes

```
  0: 0x07BB [0x20] SET_CLI_EVENT_UC_FLAG: Lock player control
  1: 0x07BD [0x42] SET_CLI_EVENT_CANCEL_DATA()
  2: 0x07BE [0x46] CAMERA_CONTROL: Disable user control
  3: 0x07C0 [0x4A] Ravorara (ID: 17744015/0x010EC08F) looks at LocalPlayer
  4: 0x07C9 [0x6F] WAIT_FRAME_DELAY: Yield until WaitTime reaches zero
  5: 0x07CA [0x76] CHECK_ENTITY_RENDER_FLAGS: Wait until Ravorara (ID: 17744015/0x010EC08F) Render.Flags0 and Render.Flags3 conditions are met
  6: 0x07CF [0x29] REQ_SET_WAIT(priority=0x08, entity_id=Ravorara (ID: 17744015/0x010EC08F), tag_num=0x01)
  7: 0x07D6 [0x2B] Ravorara (ID: 17744015/0x010EC08F) [9136*]:
    → "You obtainified $6? Let me see..."
  8: 0x07DD [0x23] WAIT_FOR_DIALOG_INTERACTION
  9: 0x07DE [0x29] REQ_SET_WAIT(priority=0x08, entity_id=Ravorara (ID: 17744015/0x010EC08F), tag_num=0x02)
 10: 0x07E5 [0x02] IF !(Work_Zone[3] >= 5*) GOTO 0x0812
 11: 0x07ED [0x45] LOAD_SCHEDULED_TASK: Load scheduler "fdo1" with entities [EventEntity, EventEntity], work=[200*, 0*]
 12: 0x07FE [0x1C] WAIT(120* ticks)
 13: 0x0801 [0x45] LOAD_SCHEDULED_TASK: Load scheduler "fdi1" with entities [EventEntity, EventEntity], work=[200*, 0*]
 14: 0x0812 [0x02] IF !(Work_Zone[3] == 1*) GOTO 0x0856
 15: 0x081A [0x03] Work_Zone[1] = 1*
 16: 0x081F [0x29] REQ_SET_WAIT(priority=0x08, entity_id=Ravorara (ID: 17744015/0x010EC08F), tag_num=0x21)
 17: 0x0826 [0x2B] Ravorara (ID: 17744015/0x010EC08F) [9137*]:
    → "Well, this is most surprisifying! This looks like a book of worshipification!"
 18: 0x082D [0x23] WAIT_FOR_DIALOG_INTERACTION
 19: 0x082E [0x29] REQ_SET_WAIT(priority=0x08, entity_id=Ravorara (ID: 17744015/0x010EC08F), tag_num=0x22)
 20: 0x0835 [0x29] REQ_SET_WAIT(priority=0x08, entity_id=Ravorara (ID: 17744015/0x010EC08F), tag_num=0x23)
 21: 0x083C [0x2B] Ravorara (ID: 17744015/0x010EC08F) [9138*]:
    → "Is it possible that the Moblins worshipify the same Dawn Goddess as the Kingdom of San d'Oria?"
 22: 0x0843 [0x23] WAIT_FOR_DIALOG_INTERACTION
 23: 0x0844 [0x29] REQ_SET_WAIT(priority=0x08, entity_id=Ravorara (ID: 17744015/0x010EC08F), tag_num=0x24)
 24: 0x084B [0x2B] Ravorara (ID: 17744015/0x010EC08F) [9139*]:
    → "This discovery may help us to avoidimirize a conflict altogether."
 25: 0x0852 [0x23] WAIT_FOR_DIALOG_INTERACTION
 26: 0x0853 [0x01] GOTO 0x0AAD
 27: 0x0856 [0x02] IF !(Work_Zone[3] == 2*) GOTO 0x0892
 28: 0x085E [0x03] Work_Zone[1] = 2*
 29: 0x0863 [0x29] REQ_SET_WAIT(priority=0x08, entity_id=Ravorara (ID: 17744015/0x010EC08F), tag_num=0x03)
 30: 0x086A [0x2B] Ravorara (ID: 17744015/0x010EC08F) [9140*]:
    → "I'm not entirely sure what this is, but the smell is horrendificacious."
 31: 0x0871 [0x23] WAIT_FOR_DIALOG_INTERACTION
 32: 0x0872 [0x29] REQ_SET_WAIT(priority=0x08, entity_id=Ravorara (ID: 17744015/0x010EC08F), tag_num=0x04)
 33: 0x0879 [0x29] REQ_SET_WAIT(priority=0x08, entity_id=Ravorara (ID: 17744015/0x010EC08F), tag_num=0x05)
 34: 0x0880 [0x2B] Ravorara (ID: 17744015/0x010EC08F) [9141*]:
    → "Could this be some variety of Moblin beverage? I would like to transportimize this to the Rhinostery for further investimigation, but I doubt I'd be allowed on the airship!"
 35: 0x0887 [0x23] WAIT_FOR_DIALOG_INTERACTION
 36: 0x0888 [0x29] REQ_SET_WAIT(priority=0x08, entity_id=Ravorara (ID: 17744015/0x010EC08F), tag_num=0x06)
 37: 0x088F [0x01] GOTO 0x0AAD
 38: 0x0892 [0x02] IF !(Work_Zone[3] == 3*) GOTO 0x08CE
 39: 0x089A [0x03] Work_Zone[1] = 3*
 40: 0x089F [0x29] REQ_SET_WAIT(priority=0x08, entity_id=Ravorara (ID: 17744015/0x010EC08F), tag_num=0x03)
 41: 0x08A6 [0x2B] Ravorara (ID: 17744015/0x010EC08F) [9142*]:
    → "This is not a Moblin weapon as far as I can ascertainify. The style is closer to something producimicated in Bastok..."
 42: 0x08AD [0x23] WAIT_FOR_DIALOG_INTERACTION
 43: 0x08AE [0x29] REQ_SET_WAIT(priority=0x08, entity_id=Ravorara (ID: 17744015/0x010EC08F), tag_num=0x04)
 44: 0x08B5 [0x29] REQ_SET_WAIT(priority=0x08, entity_id=Ravorara (ID: 17744015/0x010EC08F), tag_num=0x05)
 45: 0x08BC [0x2B] Ravorara (ID: 17744015/0x010EC08F) [9143*]:
    → "It appears to be constructimified with a mineral that is rarely found these days."
 46: 0x08C3 [0x23] WAIT_FOR_DIALOG_INTERACTION
 47: 0x08C4 [0x29] REQ_SET_WAIT(priority=0x08, entity_id=Ravorara (ID: 17744015/0x010EC08F), tag_num=0x06)
 48: 0x08CB [0x01] GOTO 0x0AAD
 49: 0x08CE [0x02] IF !(Work_Zone[3] == 4*) GOTO 0x0909
 50: 0x08D6 [0x03] Work_Zone[1] = 4*
 51: 0x08DB [0x27] REQ_SET(priority=0x08, entity_id=Ravorara (ID: 17744015/0x010EC08F), tag_num=0x30)
 52: 0x08E2 [0x2B] Ravorara (ID: 17744015/0x010EC08F) [9144*]:
    → "The engravimication on this piece is masterful. This must be the work of a talented goldsmith."
 53: 0x08E9 [0x23] WAIT_FOR_DIALOG_INTERACTION
 54: 0x08EA [0x2A] GET_REQ_LEVEL(level=8, entity_id=Ravorara (ID: 17744015/0x010EC08F))
 55: 0x08F0 [0x29] REQ_SET_WAIT(priority=0x08, entity_id=Ravorara (ID: 17744015/0x010EC08F), tag_num=0x01)
 56: 0x08F7 [0x2B] Ravorara (ID: 17744015/0x010EC08F) [9145*]:
    → "Do the Moblins have goldsmiths, I wonder? Or could this be from..."
 57: 0x08FE [0x23] WAIT_FOR_DIALOG_INTERACTION
 58: 0x08FF [0x29] REQ_SET_WAIT(priority=0x08, entity_id=Ravorara (ID: 17744015/0x010EC08F), tag_num=0x02)
 59: 0x0906 [0x01] GOTO 0x0AAD
 60: 0x0909 [0x02] IF !(Work_Zone[3] == 5*) GOTO 0x0AAD
 61: 0x0911 [0x03] Work_Zone[1] = 5*
 62: 0x0916 [0x45] LOAD_SCHEDULED_TASK: Load scheduler "fdo1" with entities [EventEntity, EventEntity], work=[200*, 0*]
 63: 0x0927 [0x1C] WAIT(60* ticks)
 64: 0x092A [0x38] SET_CLIENT_EVENT_MODE(mode=3*)
 65: 0x092D [0x29] REQ_SET_WAIT(priority=0x08, entity_id=LocalPlayer, tag_num=0x3B)
 66: 0x0934 [0x29] REQ_SET_WAIT(priority=0x0B, entity_id=LocalPlayer, tag_num=0x3D)
 67: 0x093B [0x4A] Ravorara (ID: 17744015/0x010EC08F) looks at LocalPlayer
 68: 0x0944 [0x4A] LocalPlayer looks at Ravorara (ID: 17744015/0x010EC08F)
 69: 0x094D [0x6F] WAIT_FRAME_DELAY: Yield until WaitTime reaches zero
 70: 0x094E [0x76] CHECK_ENTITY_RENDER_FLAGS: Wait until Ravorara (ID: 17744015/0x010EC08F) Render.Flags0 and Render.Flags3 conditions are met
 71: 0x0953 [0x6F] WAIT_FRAME_DELAY: Yield until WaitTime reaches zero
 72: 0x0954 [0x76] CHECK_ENTITY_RENDER_FLAGS: Wait until LocalPlayer Render.Flags0 and Render.Flags3 conditions are met
 73: 0x0959 [0x92] Ravorara (ID: 17744015/0x010EC08F)->Render.Flags3 ^= 0x01
 74: 0x095F [0x45] LOAD_SCHEDULED_TASK: Load scheduler "s015" with entities [EventEntity, EventEntity], work=[126*, 0*]
 75: 0x0970 [0x45] LOAD_SCHEDULED_TASK: Load scheduler "fdi1" with entities [EventEntity, EventEntity], work=[200*, 0*]
 76: 0x0981 [0x29] REQ_SET_WAIT(priority=0x08, entity_id=Ravorara (ID: 17744015/0x010EC08F), tag_num=0x07)
 77: 0x0988 [0x2B] Ravorara (ID: 17744015/0x010EC08F) [9146*]:
    → "This is an identifimication tag worn by workers in Bastok's mines..."
 78: 0x098F [0x23] WAIT_FOR_DIALOG_INTERACTION
 79: 0x0990 [0x29] REQ_SET_WAIT(priority=0x08, entity_id=Ravorara (ID: 17744015/0x010EC08F), tag_num=0x08)
 80: 0x0997 [0x29] REQ_SET_WAIT(priority=0x08, entity_id=Ravorara (ID: 17744015/0x010EC08F), tag_num=0x03)
 81: 0x099E [0x2B] Ravorara (ID: 17744015/0x010EC08F) [9147*]:
    → "It appears to be of significant age. The Moblins must have discoverified it in a tunnel somewhere."
 82: 0x09A5 [0x23] WAIT_FOR_DIALOG_INTERACTION
 83: 0x09A6 [0x29] REQ_SET_WAIT(priority=0x08, entity_id=Ravorara (ID: 17744015/0x010EC08F), tag_num=0x04)
 84: 0x09AD [0x29] REQ_SET_WAIT(priority=0x08, entity_id=Ravorara (ID: 17744015/0x010EC08F), tag_num=0x05)
 85: 0x09B4 [0x29] REQ_SET_WAIT(priority=0x08, entity_id=Ravorara (ID: 17744015/0x010EC08F), tag_num=0x06)
 86: 0x09BB [0x52] END_LOAD_SCHEDULER: End scheduler "s015" with entities [EventEntity, EventEntity], work=126*
 87: 0x09CA [0x45] LOAD_SCHEDULED_TASK: Load scheduler "s021" with entities [EventEntity, EventEntity], work=[126*, 0*]
 88: 0x09DB [0x92] LocalPlayer->Render.Flags3 ^= 0x01
 89: 0x09E1 [0x7B] Ravorara (ID: 17744015/0x010EC08F) stops talking
 90: 0x09E6 [0x27] REQ_SET(priority=0x0B, entity_id=Ravorara (ID: 17744015/0x010EC08F), tag_num=0x49)
 91: 0x09ED [0x27] REQ_SET(priority=0x0B, entity_id=LocalPlayer, tag_num=0x3E)
 92: 0x09F4 [0x2B] Ravorara (ID: 17744015/0x010EC08F) [9148*]:
    → "Hmmm. Please indulgify my cogimitation a moment. I feel a hypothesis hatching from my subconscious ruminifications..."
 93: 0x09FB [0x23] WAIT_FOR_DIALOG_INTERACTION
 94: 0x09FC [0x2A] GET_REQ_LEVEL(level=11, entity_id=LocalPlayer)
 95: 0x0A02 [0x2A] GET_REQ_LEVEL(level=11, entity_id=Ravorara (ID: 17744015/0x010EC08F))
 96: 0x0A08 [0x2B] Ravorara (ID: 17744015/0x010EC08F) [9149*]:
    → "There is a name engravimified on that old tag you brought me."
 97: 0x0A0F [0x23] WAIT_FOR_DIALOG_INTERACTION
 98: 0x0A10 [0x52] END_LOAD_SCHEDULER: End scheduler "s021" with entities [EventEntity, EventEntity], work=126*
 99: 0x0A1F [0x45] LOAD_SCHEDULED_TASK: Load scheduler "s020" with entities [EventEntity, EventEntity], work=[126*, 0*]
100: 0x0A30 [0x4A] Ravorara (ID: 17744015/0x010EC08F) looks at LocalPlayer
101: 0x0A39 [0x6F] WAIT_FRAME_DELAY: Yield until WaitTime reaches zero
102: 0x0A3A [0x76] CHECK_ENTITY_RENDER_FLAGS: Wait until Ravorara (ID: 17744015/0x010EC08F) Render.Flags0 and Render.Flags3 conditions are met
103: 0x0A3F [0x29] REQ_SET_WAIT(priority=0x08, entity_id=Ravorara (ID: 17744015/0x010EC08F), tag_num=0x1D)
104: 0x0A46 [0x2B] Ravorara (ID: 17744015/0x010EC08F) [9150*]:
    → "If we imposify upon the person to whom this name belongs, we can determinate the accuracy of my hypothesis."
105: 0x0A4D [0x23] WAIT_FOR_DIALOG_INTERACTION
106: 0x0A4E [0x29] REQ_SET_WAIT(priority=0x08, entity_id=Ravorara (ID: 17744015/0x010EC08F), tag_num=0x1E)
107: 0x0A55 [0x92] LocalPlayer->Render.Flags3 = Flags3  // No change (flag=0)
108: 0x0A5B [0x52] END_LOAD_SCHEDULER: End scheduler "s020" with entities [EventEntity, EventEntity], work=126*
109: 0x0A6A [0x45] LOAD_SCHEDULED_TASK: Load scheduler "s022" with entities [EventEntity, EventEntity], work=[126*, 0*]
110: 0x0A7B [0x4A] LocalPlayer looks at Ravorara (ID: 17744015/0x010EC08F)
111: 0x0A84 [0x29] REQ_SET_WAIT(priority=0x08, entity_id=Ravorara (ID: 17744015/0x010EC08F), tag_num=0x45)
112: 0x0A8B [0x2B] Ravorara (ID: 17744015/0x010EC08F) [9151*]:
    → "Let's see... Pa...Pav...vke?"
113: 0x0A92 [0x23] WAIT_FOR_DIALOG_INTERACTION
114: 0x0A93 [0x2B] Ravorara (ID: 17744015/0x010EC08F) [9152*]:
    → "I can decipherify this, I know I can... Pa...v...vke?"
115: 0x0A9A [0x23] WAIT_FOR_DIALOG_INTERACTION
116: 0x0A9B [0x52] END_LOAD_SCHEDULER: End scheduler "s022" with entities [EventEntity, EventEntity], work=126*
117: 0x0AAA [0x01] GOTO 0x0AAD

SUBROUTINE_0AAD:
118: 0x0AAD [0x45] LOAD_SCHEDULED_TASK: Load scheduler "fdo1" with entities [LocalPlayer, LocalPlayer], work=[200*, 0*]
119: 0x0ABE [0x1C] WAIT(60* ticks)
120: 0x0AC1 [0x4E] SET_ENTITY_HIDE_FLAG: Show LocalPlayer
121: 0x0AC7 [0x80] LOAD_WAIT(entity=LocalPlayer)
122: 0x0ACC [0x46] CAMERA_CONTROL: Restore default settings
123: 0x0ACE [0x45] LOAD_SCHEDULED_TASK: Load scheduler "fdi1" with entities [LocalPlayer, LocalPlayer], work=[200*, 0*]
124: 0x0ADF [0x20] SET_CLI_EVENT_UC_FLAG: Unlock player control
125: 0x0AE1 [0x21] END_EVENT
126: 0x0AE2 [0x00] END_REQSTACK()
```
