# 17743893 - Klaus

## Common Data

| Field            | Value                 |
|------------------|-----------------------|
| Zone             | Port Bastok (ID: 236) |
| Block Size       | 148 bytes             |
| Total Events     | 4                     |
| References Count | 9                     |

## List of Events

| Event ID              | Entrypoint   |   Size |   Instructions |
|-----------------------|--------------|--------|----------------|
| [65535](#event-65535) | 0x0000       |      1 |              1 |
| [305](#event-305)     | 0x0001       |     18 |              4 |
| [317](#event-317)     | 0x0013       |     30 |              8 |
| [318](#event-318)     | 0x0031       |     30 |              8 |

## DAT References (imed_data)

|   Index | Hex Value   |   Dec Value |
|---------|-------------|-------------|
|       0 | 0xFFFE6D1B  |  4294864155 |
|       1 | 0xFFFFE918  |  4294961432 |
|       2 | 0xFFFFF7CB  |  4294965195 |
|       3 | 0x0621      |        1569 |
|       4 | 0x2397      |        9111 |
|       5 | 0x0000      |           0 |
|       6 | 0x2398      |        9112 |
|       7 | 0x23A0      |        9120 |
|       8 | 0x23A1      |        9121 |

## String References

- **9111**: Recently there have been reports of airships colliding with large, unidentified objects in the sky.
- **9112**: Luckily, these incidents have been isolated and have not involved any commercial flights. However, if something is not done immediately, a terrible accident is bound to occur.
- **9120**: How did that party arrive in Bastok?
- **9121**: Why, by airship, of course! They took the commercial flight out of Jeuno like the rest of the adventurers. Yes...the commercial flight... Ha ha ha...

## Events

### Event 65535

#### Metadata

| Field        | Value   |
|--------------|---------|
| Entrypoint   | 0x0000  |
| Data Size    | 1 bytes |
| Instructions | 1       |

```
      00 01 02 03 04 05 06 07  08 09 0A 0B 0C 0D 0E 0F
      -- -- -- -- -- -- -- --  -- -- -- -- -- -- -- --
0000: 00                                                .               
```

#### Opcodes

```
  0: 0x0000 [0x00] END_REQSTACK()
```

### Event 305

#### Metadata

| Field        | Value    |
|--------------|----------|
| Entrypoint   | 0x0001   |
| Data Size    | 18 bytes |
| Instructions | 4        |

```
      00 01 02 03 04 05 06 07  08 09 0A 0B 0C 0D 0E 0F
      -- -- -- -- -- -- -- --  -- -- -- -- -- -- -- --
0000:    92 01 F8 FF FF 7F 22  01 37 00 80 01 80 02 80   ......".7......
0010: 03 80 00                                          ...             
```

#### Opcodes

```
  0: 0x0001 [0x92] EventEntity->Render.Flags3 ^= 0x01
  1: 0x0007 [0x22] ENTITY_HIDE_FLAG(enabled=0x01)
  2: 0x0009 [0x37] UPDATE_EVENT_POSITION_AND_DIR: x=-103.141*, z=-5.864*, y=-2.101*, direction=137.9°*
  3: 0x0012 [0x00] END_REQSTACK()
```

### Event 317

#### Metadata

| Field        | Value    |
|--------------|----------|
| Entrypoint   | 0x0013   |
| Data Size    | 30 bytes |
| Instructions | 8        |

```
      00 01 02 03 04 05 06 07  08 09 0A 0B 0C 0D 0E 0F
      -- -- -- -- -- -- -- --  -- -- -- -- -- -- -- --
0010:          1E F0 FF FF 7F  1D 04 80 23 66 05 80 15     ........#f...
0020: C0 0E 01 15 C0 0E 01 74  6C 6B 31 1D 06 80 23 21  .......tlk1...#!
0030: 00                                                .               
```

#### Opcodes

```
  0: 0x0013 [0x1E] EventEntity looks at LocalPlayer and starts talking
  1: 0x0018 [0x1D] PRINT_EVENT_MESSAGE(message_id=9111*)
    → "Recently there have been reports of airships colliding with large, unidentified objects in the sky."
  2: 0x001B [0x23] WAIT_FOR_DIALOG_INTERACTION
  3: 0x001C [0x66] LOAD_EXT_SCHEDULER_MAIN: Load scheduler "tlk1" with entities [Klaus (ID: 17743893/0x010EC015), Klaus (ID: 17743893/0x010EC015)], work=0*
  4: 0x002B [0x1D] PRINT_EVENT_MESSAGE(message_id=9112*)
    → "Luckily, these incidents have been isolated and have not involved any commercial flights. However, if something is not done immediately, a terrible accident is bound to occur."
  5: 0x002E [0x23] WAIT_FOR_DIALOG_INTERACTION
  6: 0x002F [0x21] END_EVENT
  7: 0x0030 [0x00] END_REQSTACK()
```

### Event 318

#### Metadata

| Field        | Value    |
|--------------|----------|
| Entrypoint   | 0x0031   |
| Data Size    | 30 bytes |
| Instructions | 8        |

```
      00 01 02 03 04 05 06 07  08 09 0A 0B 0C 0D 0E 0F
      -- -- -- -- -- -- -- --  -- -- -- -- -- -- -- --
0030:    1E F0 FF FF 7F 1D 07  80 23 66 05 80 15 C0 0E   ........#f.....
0040: 01 15 C0 0E 01 74 6C 6B  31 1D 08 80 23 21 00     .....tlk1...#!. 
```

#### Opcodes

```
  0: 0x0031 [0x1E] EventEntity looks at LocalPlayer and starts talking
  1: 0x0036 [0x1D] PRINT_EVENT_MESSAGE(message_id=9120*)
    → "How did that party arrive in Bastok?"
  2: 0x0039 [0x23] WAIT_FOR_DIALOG_INTERACTION
  3: 0x003A [0x66] LOAD_EXT_SCHEDULER_MAIN: Load scheduler "tlk1" with entities [Klaus (ID: 17743893/0x010EC015), Klaus (ID: 17743893/0x010EC015)], work=0*
  4: 0x0049 [0x1D] PRINT_EVENT_MESSAGE(message_id=9121*)
    → "Why, by airship, of course! They took the commercial flight out of Jeuno like the rest of the adventurers. Yes...the commercial flight... Ha ha ha..."
  5: 0x004C [0x23] WAIT_FOR_DIALOG_INTERACTION
  6: 0x004D [0x21] END_EVENT
  7: 0x004E [0x00] END_REQSTACK()
```
