# 17744165

## Common Data

| Field            | Value                 |
|------------------|-----------------------|
| Zone             | Port Bastok (ID: 236) |
| Block Size       | 148 bytes             |
| Total Events     | 4                     |
| References Count | 10                    |

## List of Events

| Event ID                 | Entrypoint   |   Size |   Instructions |
|--------------------------|--------------|--------|----------------|
| [65535](#event-65535)    | 0x0000       |      1 |              1 |
| [415](#event-415)        | 0x0001       |      1 |              1 |
| [65535.1](#event-655351) | 0x0002       |     27 |              7 |
| [65535.2](#event-655352) | 0x001D       |     45 |             11 |

## DAT References (imed_data)

|   Index | Hex Value   |   Dec Value |
|---------|-------------|-------------|
|       0 | 0xFFFEC780  |  4294887296 |
|       1 | 0xC15C      |       49500 |
|       2 | 0x1324      |        4900 |
|       3 | 0x07FF      |        2047 |
|       4 | 0x001E      |          30 |
|       5 | 0xFFFE7960  |  4294867296 |
|       6 | 0xFFFECF50  |  4294889296 |
|       7 | 0xFFFEB3F8  |  4294882296 |
|       8 | 0x03FF      |        1023 |
|       9 | 0x002B      |          43 |

## Events

### Event 65535

#### Metadata

| Field        | Value   |
|--------------|---------|
| Entrypoint   | 0x0000  |
| Data Size    | 1 bytes |
| Instructions | 1       |

```
      00 01 02 03 04 05 06 07  08 09 0A 0B 0C 0D 0E 0F
      -- -- -- -- -- -- -- --  -- -- -- -- -- -- -- --
0000: 00                                                .               
```

#### Opcodes

```
  0: 0x0000 [0x00] END_REQSTACK()
```

### Event 415

#### Metadata

| Field        | Value   |
|--------------|---------|
| Entrypoint   | 0x0001  |
| Data Size    | 1 bytes |
| Instructions | 1       |

```
      00 01 02 03 04 05 06 07  08 09 0A 0B 0C 0D 0E 0F
      -- -- -- -- -- -- -- --  -- -- -- -- -- -- -- --
0000:    00                                              .              
```

#### Opcodes

```
  0: 0x0001 [0x00] END_REQSTACK()
```

### Event 65535.1

#### Metadata

| Field        | Value    |
|--------------|----------|
| Entrypoint   | 0x0002   |
| Data Size    | 27 bytes |
| Instructions | 7        |

```
      00 01 02 03 04 05 06 07  08 09 0A 0B 0C 0D 0E 0F
      -- -- -- -- -- -- -- --  -- -- -- -- -- -- -- --
0000:       61 00 37 00 80 01  80 02 80 03 80 61 01 1C    a.7........a..
0010: 04 80 1F 00 05 80 01 80  02 80 1F 01 00           .............   
```

#### Opcodes

```
  0: 0x0002 [0x61] EventEntity->Render.Flags2 &= ~0x00000001
  1: 0x0004 [0x37] UPDATE_EVENT_POSITION_AND_DIR: x=-80.000*, z=49.500*, y=4.900*, direction=179.9°*
  2: 0x000D [0x61] EventEntity->Render.Flags2 |= 0x00000001
  3: 0x000F [0x1C] WAIT(30* ticks)
  4: 0x0012 [0x1F] MOVE_ENTITY: EventEntity moves to X=-100.000*, Z=49.500*, Y=4.900*
  5: 0x001A [0x1F] MOVE_ENTITY: Update entity position (mode=1)
  6: 0x001C [0x00] END_REQSTACK()
```

### Event 65535.2

#### Metadata

| Field        | Value    |
|--------------|----------|
| Entrypoint   | 0x001D   |
| Data Size    | 45 bytes |
| Instructions | 11       |

```
      00 01 02 03 04 05 06 07  08 09 0A 0B 0C 0D 0E 0F
      -- -- -- -- -- -- -- --  -- -- -- -- -- -- -- --
0010:                                         61 00 37               a.7
0020: 06 80 01 80 02 80 03 80  61 01 1F 00 07 80 01 80  ........a.......
0030: 02 80 1F 01 4B F8 FF FF  7F 08 80 6F 70 6E F8 FF  ....K......opn..
0040: FF 7F 09 80 99 F8 FF FF  7F 00                    ..........      
```

#### Opcodes

```
  0: 0x001D [0x61] EventEntity->Render.Flags2 &= ~0x00000001
  1: 0x001F [0x37] UPDATE_EVENT_POSITION_AND_DIR: x=-78.000*, z=49.500*, y=4.900*, direction=179.9°*
  2: 0x0028 [0x61] EventEntity->Render.Flags2 |= 0x00000001
  3: 0x002A [0x1F] MOVE_ENTITY: EventEntity moves to X=-85.000*, Z=49.500*, Y=4.900*
  4: 0x0032 [0x1F] MOVE_ENTITY: Update entity position (mode=1)
  5: 0x0034 [0x4B] UPDATE_ENTITY_YAW(entity=EventEntity, yaw=5.6°*)
  6: 0x003B [0x6F] WAIT_FRAME_DELAY: Yield until WaitTime reaches zero
  7: 0x003C [0x70] WAIT_ENTITY_RENDER_FLAG: Wait while EventEntity->Render.Flags3 bit 2 is set (cancel turn if not)
  8: 0x003D [0x6E] EventEntity uses emote 43*
  9: 0x0044 [0x99] Wait for EventEntity animation to complete
 10: 0x0049 [0x00] END_REQSTACK()
```
