# 17744175

## Common Data

| Field            | Value                 |
|------------------|-----------------------|
| Zone             | Port Bastok (ID: 236) |
| Block Size       | 7472 bytes            |
| Total Events     | 9                     |
| References Count | 142                   |

## List of Events

| Event ID              | Entrypoint   |   Size |   Instructions |
|-----------------------|--------------|--------|----------------|
| [65535](#event-65535) | 0x0000       |      1 |              1 |
| [443](#event-443)     | 0x0001       |   3556 |            450 |
| [444](#event-444)     | 0x0DE5       |   2695 |            400 |
| [445](#event-445)     | 0x186C       |     38 |              9 |
| [446](#event-446)     | 0x1892       |    151 |             35 |
| [447](#event-447)     | 0x1929       |     38 |              9 |
| [448](#event-448)     | 0x194F       |    151 |             35 |
| [449](#event-449)     | 0x19E6       |     38 |              9 |
| [450](#event-450)     | 0x1A0C       |    183 |             44 |

## DAT References (imed_data)

|   Index | Hex Value   |   Dec Value |
|---------|-------------|-------------|
|       0 | 0x00C8      |         200 |
|       1 | 0x0000      |           0 |
|       2 | 0x0013      |          19 |
|       3 | 0x1750C     |       95500 |
|       4 | 0xFFFFB690  |  4294948496 |
|       5 | 0x2134      |        8500 |
|       6 | 0xFFFFFC01  |  4294966273 |
|       7 | 0x0081      |         129 |
|       8 | 0x17ED0     |       98000 |
|       9 | 0xFFFFD508  |  4294956296 |
|      10 | 0x027F      |         639 |
|      11 | 0x00D2      |         210 |
|      12 | 0x0005      |           5 |
|      13 | 0x000A      |          10 |
|      14 | 0x000F      |          15 |
|      15 | 0x001E      |          30 |
|      16 | 0x0006      |           6 |
|      17 | 0x0014      |          20 |
|      18 | 0x3431      |       13361 |
|      19 | 0x0060      |          96 |
|      20 | 0x17534     |       95540 |
|      21 | 0xFFFFDC60  |  4294958176 |
|      22 | 0x2023      |        8227 |
|      23 | 0x0384      |         900 |
|      24 | 0x0244      |         580 |
|      25 | 0x0500      |        1280 |
|      26 | 0x3432      |       13362 |
|      27 | 0x0003      |           3 |
|      28 | 0x003C      |          60 |
|      29 | 0x17511     |       95505 |
|      30 | 0xFFFFDC5B  |  4294958171 |
|      31 | 0x2071      |        8305 |
|      32 | 0x0334      |         820 |
|      33 | 0x0258      |         600 |
|      34 | 0x0064      |         100 |
|      35 | 0x0514      |        1300 |
|      36 | 0x3433      |       13363 |
|      37 | 0x002D      |          45 |
|      38 | 0x0007      |           7 |
|      39 | 0x3434      |       13364 |
|      40 | 0x3435      |       13365 |
|      41 | 0x3436      |       13366 |
|      42 | 0x3437      |       13367 |
|      43 | 0x3438      |       13368 |
|      44 | 0x3439      |       13369 |
|      45 | 0x343A      |       13370 |
|      46 | 0x343B      |       13371 |
|      47 | 0x343C      |       13372 |
|      48 | 0x343D      |       13373 |
|      49 | 0x343E      |       13374 |
|      50 | 0x343F      |       13375 |
|      51 | 0x3440      |       13376 |
|      52 | 0x3441      |       13377 |
|      53 | 0x3442      |       13378 |
|      54 | 0x3443      |       13379 |
|      55 | 0x3444      |       13380 |
|      56 | 0x3445      |       13381 |
|      57 | 0x3446      |       13382 |
|      58 | 0x3447      |       13383 |
|      59 | 0x3448      |       13384 |
|      60 | 0x3449      |       13385 |
|      61 | 0x344A      |       13386 |
|      62 | 0x0857      |        2135 |
|      63 | 0x344B      |       13387 |
|      64 | 0x0088      |         136 |
|      65 | 0x344C      |       13388 |
|      66 | 0x344D      |       13389 |
|      67 | 0x344E      |       13390 |
|      68 | 0x344F      |       13391 |
|      69 | 0x0078      |         120 |
|      70 | 0x3450      |       13392 |
|      71 | 0x3451      |       13393 |
|      72 | 0x3452      |       13394 |
|      73 | 0x3453      |       13395 |
|      74 | 0x3454      |       13396 |
|      75 | 0x3455      |       13397 |
|      76 | 0x3456      |       13398 |
|      77 | 0x16E68     |       93800 |
|      78 | 0xFFFFD760  |  4294956896 |
|      79 | 0x203A      |        8250 |
|      80 | 0x0016      |          22 |
|      81 | 0x3457      |       13399 |
|      82 | 0x3458      |       13400 |
|      83 | 0x3459      |       13401 |
|      84 | 0x345A      |       13402 |
|      85 | 0x345B      |       13403 |
|      86 | 0x345C      |       13404 |
|      87 | 0x345D      |       13405 |
|      88 | 0x345E      |       13406 |
|      89 | 0x007A      |         122 |
|      90 | 0x010E      |         270 |
|      91 | 0x0001      |           1 |
|      92 | 0x345F      |       13407 |
|      93 | 0x0098      |         152 |
|      94 | 0x0009      |           9 |
|      95 | 0x001D      |          29 |
|      96 | 0x346C      |       13420 |
|      97 | 0x3463      |       13411 |
|      98 | 0x3464      |       13412 |
|      99 | 0x3465      |       13413 |
|     100 | 0x3460      |       13408 |
|     101 | 0x3461      |       13409 |
|     102 | 0x0002      |           2 |
|     103 | 0x3462      |       13410 |
|     104 | 0x0004      |           4 |
|     105 | 0x3466      |       13414 |
|     106 | 0x3468      |       13416 |
|     107 | 0x3469      |       13417 |
|     108 | 0x346B      |       13419 |
|     109 | 0x01E0      |         480 |
|     110 | 0x00B4      |         180 |
|     111 | 0x346A      |       13418 |
|     112 | 0x3467      |       13415 |
|     113 | 0x0008      |           8 |
|     114 | 0x003F      |          63 |
|     115 | 0x346D      |       13421 |
|     116 | 0x3470      |       13424 |
|     117 | 0x346E      |       13422 |
|     118 | 0x346F      |       13423 |
|     119 | 0xFFFFFFFF  |  4294967295 |
|     120 | 0x3473      |       13427 |
|     121 | 0x3474      |       13428 |
|     122 | 0x3471      |       13425 |
|     123 | 0x03FC      |        1020 |
|     124 | 0x03F3      |        1011 |
|     125 | 0x03CF      |         975 |
|     126 | 0x3472      |       13426 |
|     127 | 0x3476      |       13430 |
|     128 | 0x3475      |       13429 |
|     129 | 0x3479      |       13433 |
|     130 | 0x3477      |       13431 |
|     131 | 0x3478      |       13432 |
|     132 | 0x6CE0      |       27872 |
|     133 | 0x6CE1      |       27873 |
|     134 | 0x5279      |       21113 |
|     135 | 0x527A      |       21114 |
|     136 | 0x6CFE      |       27902 |
|     137 | 0x527E      |       21118 |
|     138 | 0x1831      |        6193 |
|     139 | 0x1830      |        6192 |
|     140 | 0x182F      |        6191 |
|     141 | 0x182E      |        6190 |

## String References

- **13405**: Be teleported outside of town? [You bet!/I don't think so.]
- **13409**: What will you do? [Spin the wheel! ($0 chartruese shard[/s])/Spin the wheel! ($1 vermilion shard[/s])/Spin the wheel! ($2 mauve shard[/s])/Check the item list./Warp outside town./Nothing.]
- **13414**: You are on a hot streak!
- **13415**: Your hot streak has burned out.
- **13421**: [What would you like/View which item]? [$1./$2./$3./$4./$5./$6./$7./$8./$9./$10./[I'll decide later/I'm done].]
- **13423**: Really select that item? [Undoubtedly./Let me think on it.]
- **13425**: View which category? [First prize./Second prize./Third prize./Booby prize./None for now.]

## Events

### Event 65535

#### Metadata

| Field        | Value   |
|--------------|---------|
| Entrypoint   | 0x0000  |
| Data Size    | 1 bytes |
| Instructions | 1       |

```
      00 01 02 03 04 05 06 07  08 09 0A 0B 0C 0D 0E 0F
      -- -- -- -- -- -- -- --  -- -- -- -- -- -- -- --
0000: 00                                                .               
```

#### Opcodes

```
  0: 0x0000 [0x00] END_REQSTACK()
```

### Event 443

#### Metadata

| Field        | Value      |
|--------------|------------|
| Entrypoint   | 0x0001     |
| Data Size    | 3556 bytes |
| Instructions | 450        |

```
      00 01 02 03 04 05 06 07  08 09 0A 0B 0C 0D 0E 0F
      -- -- -- -- -- -- -- --  -- -- -- -- -- -- -- --
0000:    03 00 00 02 10 42 45  00 80 F0 FF FF 7F F0 FF   .....BE........
0010: FF 7F 66 64 6F 31 01 80  55 00 80 F0 FF FF 7F F0  ..fdo1..U.......
0020: FF FF 7F 66 64 6F 31 46  01 38 02 80 2F 00 34 C1  ...fdo1F.8../.4.
0030: 0E 01 2F 00 35 C1 0E 01  4E 00 34 C1 0E 01 4E 00  ../.5...N.4...N.
0040: 35 C1 0E 01 92 01 30 C1  0E 01 92 01 31 C1 0E 01  5.....0.....1...
0050: 92 01 32 C1 0E 01 92 01  33 C1 0E 01 94 01 30 C1  ..2.....3.....0.
0060: 0E 01 94 01 31 C1 0E 01  94 01 32 C1 0E 01 94 01  ....1.....2.....
0070: 33 C1 0E 01 94 01 F0 FF  FF 7F 4A F0 FF FF 7F F0  3.........J.....
0080: FF FF 7F BA F0 FF FF 7F  03 80 04 80 05 80 06 80  ................
0090: 4A 30 C1 0E 01 31 C1 0E  01 4A 31 C1 0E 01 30 C1  J0...1...J1...0.
00A0: 0E 01 4A 32 C1 0E 01 30  C1 0E 01 4A 33 C1 0E 01  ..J2...0...J3...
00B0: 30 C1 0E 01 6F 76 30 C1  0E 01 6F 76 31 C1 0E 01  0...ov0...ov1...
00C0: 6F 76 32 C1 0E 01 6F 76  33 C1 0E 01 80 30 C1 0E  ov2...ov3....0..
00D0: 01 80 31 C1 0E 01 80 32  C1 0E 01 80 33 C1 0E 01  ..1....2....3...
00E0: 80 F0 FF FF 7F 92 01 A7  C0 0E 01 92 01 47 C0 0E  .............G..
00F0: 01 92 01 3C C1 0E 01 92  01 03 C0 0E 01 5C 00 07  ...<.........\..
0100: 80 5C 01 07 80 9A 03 0B  17 08 80 03 0C 17 09 80  .\..............
0110: 03 0D 17 05 80 27 10 F0  FF FF 7F 47 2C 30 C1 0E  .....'.....G,0..
0120: 01 30 C1 0E 01 65 78 70  30 45 0A 80 F8 FF FF 7F  .0...exp0E......
0130: F8 FF FF 7F 73 36 33 36  01 80 45 00 80 F0 FF FF  ....s636..E.....
0140: 7F F0 FF FF 7F 66 64 69  31 01 80 1C 0B 80 2C 30  .....fdi1.....,0
0150: C1 0E 01 30 C1 0E 01 65  78 70 31 53 30 C1 0E 01  ...0...exp1S0...
0160: 30 C1 0E 01 65 78 70 31  4A 31 C1 0E 01 F0 FF FF  0...exp1J1......
0170: 7F 1C 0C 80 4A 32 C1 0E  01 F0 FF FF 7F 1C 0D 80  ....J2..........
0180: 4A 33 C1 0E 01 F0 FF FF  7F 1C 0E 80 4A 30 C1 0E  J3..........J0..
0190: 01 F0 FF FF 7F 6F 76 30  C1 0E 01 1C 0F 80 52 0A  .....ov0......R.
01A0: 80 F8 FF FF 7F F8 FF FF  7F 73 36 33 36 02 87 7F  .........s636...
01B0: 0C 80 80 C9 01 45 0A 80  F8 FF FF 7F F8 FF FF 7F  .....E..........
01C0: 73 36 33 38 01 80 01 F6  01 02 87 7F 10 80 80 E5  s638............
01D0: 01 45 0A 80 F8 FF FF 7F  F8 FF FF 7F 73 36 33 38  .E..........s638
01E0: 01 80 01 F6 01 45 0A 80  F8 FF FF 7F F8 FF FF 7F  .....E..........
01F0: 73 36 33 37 01 80 2A 10  F0 FF FF 7F 4A 30 C1 0E  s637..*.....J0..
0200: 01 F0 FF FF 7F 1C 11 80  4A 31 C1 0E 01 F0 FF FF  ........J1......
0210: 7F 1C 0D 80 4A 32 C1 0E  01 F0 FF FF 7F 4A 33 C1  ....J2.......J3.
0220: 0E 01 F0 FF FF 7F 4A F0  FF FF 7F 30 C1 0E 01 6F  ......J....0...o
0230: 76 F0 FF FF 7F 4A 31 C1  0E 01 F0 FF FF 7F 4A 32  v....J1.......J2
0240: C1 0E 01 F0 FF FF 7F 4A  33 C1 0E 01 F0 FF FF 7F  .......J3.......
0250: 2C 30 C1 0E 01 30 C1 0E  01 6E 65 77 30 2B 30 C1  ,0...0...new0+0.
0260: 0E 01 12 80 23 2C 30 C1  0E 01 30 C1 0E 01 6E 65  ....#,0...0...ne
0270: 77 31 53 30 C1 0E 01 30  C1 0E 01 6E 65 77 31 4A  w1S0...0...new1J
0280: F0 FF FF 7F 31 C1 0E 01  02 87 7F 0C 80 80 A2 02  ....1...........
0290: 52 0A 80 F8 FF FF 7F F8  FF FF 7F 73 36 33 38 01  R..........s638.
02A0: CB 02 02 87 7F 10 80 80  BC 02 52 0A 80 F8 FF FF  ..........R.....
02B0: 7F F8 FF FF 7F 73 36 33  38 01 CB 02 52 0A 80 F8  .....s638...R...
02C0: FF FF 7F F8 FF FF 7F 73  36 33 37 45 0A 80 F8 FF  .......s637E....
02D0: FF 7F F8 FF FF 7F 73 36  32 38 01 80 9F 13 80 F8  ......s628......
02E0: FF FF 7F F8 FF FF 7F 6D  61 69 6E 01 80 33 01 A4  .......main..3..
02F0: 01 36 14 80 15 80 16 80  59 05 34 C1 0E 01 01 59  .6......Y.4....Y
0300: 05 35 C1 0E 01 01 03 01  00 14 80 03 02 00 15 80  .5..............
0310: 08 01 00 17 80 08 02 00  18 80 BA 34 C1 0E 01 01  ...........4....
0320: 00 02 00 16 80 01 80 07  01 00 00 80 07 02 00 19  ................
0330: 80 BA 35 C1 0E 01 01 00  02 00 16 80 01 80 1C 0F  ..5.............
0340: 80 2B 30 C1 0E 01 1A 80  23 62 1B 80 F8 FF FF 7F  .+0.....#b......
0350: F8 FF FF 7F 6D 61 69 6E  01 80 62 1B 80 34 C1 0E  ....main..b..4..
0360: 01 34 C1 0E 01 6D 61 69  6E 01 80 62 1B 80 35 C1  .4...main..b..5.
0370: 0E 01 35 C1 0E 01 6D 61  69 6E 01 80 1C 1C 80 52  ..5...main.....R
0380: 0A 80 F8 FF FF 7F F8 FF  FF 7F 73 36 32 38 45 0A  ..........s628E.
0390: 80 F8 FF FF 7F F8 FF FF  7F 73 36 32 39 01 80 36  .........s629..6
03A0: 1D 80 1E 80 1F 80 03 01  00 1D 80 03 02 00 1E 80  ................
03B0: 08 01 00 20 80 08 02 00  21 80 BA 34 C1 0E 01 01  ... ....!..4....
03C0: 00 02 00 1F 80 01 80 07  01 00 22 80 07 02 00 23  .........."....#
03D0: 80 BA 35 C1 0E 01 01 00  02 00 1F 80 01 80 1C 0F  ..5.............
03E0: 80 2B 30 C1 0E 01 24 80  23 62 1B 80 F8 FF FF 7F  .+0...$.#b......
03F0: F8 FF FF 7F 6D 61 69 6E  01 80 62 1B 80 34 C1 0E  ....main..b..4..
0400: 01 34 C1 0E 01 6D 61 69  6E 01 80 62 1B 80 35 C1  .4...main..b..5.
0410: 0E 01 35 C1 0E 01 6D 61  69 6E 01 80 1C 1C 80 9F  ..5...main......
0420: 13 80 F8 FF FF 7F F8 FF  FF 7F 6B 69 6C 6C 01 80  ..........kill..
0430: A2 13 80 F8 FF FF 7F F8  FF FF 7F 6B 69 6C 6C 1C  ...........kill.
0440: 25 80 52 0A 80 F8 FF FF  7F F8 FF FF 7F 73 36 32  %.R..........s62
0450: 39 45 0A 80 F8 FF FF 7F  F8 FF FF 7F 73 36 33 39  9E..........s639
0460: 01 80 1C 0E 80 4A F0 FF  FF 7F 30 C1 0E 01 6F 76  .....J....0...ov
0470: F0 FF FF 7F 02 00 00 26  80 00 DC 04 27 10 F0 FF  .......&....'...
0480: FF 7F 46 2A 10 F0 FF FF  7F 1C 0E 80 2C 30 C1 0E  ..F*........,0..
0490: 01 30 C1 0E 01 74 6C 6B  30 2B 30 C1 0E 01 27 80  .0...tlk0+0...'.
04A0: 23 2B 30 C1 0E 01 28 80  23 2B 30 C1 0E 01 29 80  #+0...(.#+0...).
04B0: 23 2B 30 C1 0E 01 2A 80  23 52 0A 80 F8 FF FF 7F  #+0...*.#R......
04C0: F8 FF FF 7F 73 36 33 39  45 0A 80 F8 FF FF 7F F8  ....s639E.......
04D0: FF FF 7F 73 36 32 35 01  80 01 6E 05 2C 30 C1 0E  ...s625...n.,0..
04E0: 01 30 C1 0E 01 74 6C 6B  30 2B 30 C1 0E 01 2B 80  .0...tlk0+0...+.
04F0: 23 2B 30 C1 0E 01 2C 80  23 2B 30 C1 0E 01 2D 80  #+0...,.#+0...-.
0500: 23 2B 30 C1 0E 01 2E 80  23 52 0A 80 F8 FF FF 7F  #+0.....#R......
0510: F8 FF FF 7F 73 36 33 39  45 0A 80 F8 FF FF 7F F8  ....s639E.......
0520: FF FF 7F 73 36 32 34 01  80 2C 30 C1 0E 01 30 C1  ...s624..,0...0.
0530: 0E 01 74 6C 6B 30 2B 30  C1 0E 01 2F 80 23 2B 30  ..tlk0+0.../.#+0
0540: C1 0E 01 30 80 23 2B 30  C1 0E 01 31 80 23 52 0A  ...0.#+0...1.#R.
0550: 80 F8 FF FF 7F F8 FF FF  7F 73 36 32 34 45 0A 80  .........s624E..
0560: F8 FF FF 7F F8 FF FF 7F  73 36 32 35 01 80 2C 30  ........s625..,0
0570: C1 0E 01 30 C1 0E 01 65  78 70 30 2B 30 C1 0E 01  ...0...exp0+0...
0580: 32 80 23 2B 30 C1 0E 01  33 80 23 2C 30 C1 0E 01  2.#+0...3.#,0...
0590: 30 C1 0E 01 68 61 70 30  2B 30 C1 0E 01 34 80 23  0...hap0+0...4.#
05A0: 2C 30 C1 0E 01 30 C1 0E  01 68 61 70 31 4E 01 31  ,0...0...hap1N.1
05B0: C1 0E 01 4E 01 32 C1 0E  01 4E 01 33 C1 0E 01 52  ...N.2...N.3...R
05C0: 0A 80 F8 FF FF 7F F8 FF  FF 7F 73 36 32 35 02 87  ..........s625..
05D0: 7F 0C 80 80 EA 05 45 0A  80 F8 FF FF 7F F8 FF FF  ......E.........
05E0: 7F 73 36 30 37 01 80 01  17 06 02 87 7F 10 80 80  .s607...........
05F0: 06 06 45 0A 80 F8 FF FF  7F F8 FF FF 7F 73 36 30  ..E..........s60
0600: 37 01 80 01 17 06 45 0A  80 F8 FF FF 7F F8 FF FF  7.....E.........
0610: 7F 73 36 30 36 01 80 27  10 F0 FF FF 7F 46 2A 10  .s606..'.....F*.
0620: F0 FF FF 7F 1C 0E 80 2C  30 C1 0E 01 30 C1 0E 01  .......,0...0...
0630: 74 6C 6B 30 2B 30 C1 0E  01 35 80 23 2B 30 C1 0E  tlk0+0...5.#+0..
0640: 01 36 80 23 1C 0F 80 4E  00 31 C1 0E 01 4E 00 32  .6.#...N.1...N.2
0650: C1 0E 01 4E 00 33 C1 0E  01 02 87 7F 0C 80 80 73  ...N.3.........s
0660: 06 52 0A 80 F8 FF FF 7F  F8 FF FF 7F 73 36 30 37  .R..........s607
0670: 01 9C 06 02 87 7F 10 80  80 8D 06 52 0A 80 F8 FF  ...........R....
0680: FF 7F F8 FF FF 7F 73 36  30 37 01 9C 06 52 0A 80  ......s607...R..
0690: F8 FF FF 7F F8 FF FF 7F  73 36 30 36 45 0A 80 F8  ........s606E...
06A0: FF FF 7F F8 FF FF 7F 73  36 32 38 01 80 9F 13 80  .......s628.....
06B0: F8 FF FF 7F F8 FF FF 7F  6D 61 69 6E 01 80 33 01  ........main..3.
06C0: A4 01 36 14 80 15 80 16  80 03 01 00 14 80 03 02  ..6.............
06D0: 00 15 80 08 01 00 17 80  08 02 00 18 80 BA 34 C1  ..............4.
06E0: 0E 01 01 00 02 00 16 80  01 80 07 01 00 00 80 07  ................
06F0: 02 00 19 80 BA 35 C1 0E  01 01 00 02 00 16 80 01  .....5..........
0700: 80 1C 0F 80 2B 30 C1 0E  01 1A 80 23 62 1B 80 F8  ....+0.....#b...
0710: FF FF 7F F8 FF FF 7F 6D  61 69 6E 01 80 62 1B 80  .......main..b..
0720: 34 C1 0E 01 34 C1 0E 01  6D 61 69 6E 01 80 62 1B  4...4...main..b.
0730: 80 35 C1 0E 01 35 C1 0E  01 6D 61 69 6E 01 80 1C  .5...5...main...
0740: 1C 80 52 0A 80 F8 FF FF  7F F8 FF FF 7F 73 36 32  ..R..........s62
0750: 38 45 0A 80 F8 FF FF 7F  F8 FF FF 7F 73 36 32 39  8E..........s629
0760: 01 80 36 1D 80 1E 80 1F  80 03 01 00 1D 80 03 02  ..6.............
0770: 00 1E 80 08 01 00 20 80  08 02 00 21 80 BA 34 C1  ...... ....!..4.
0780: 0E 01 01 00 02 00 1F 80  01 80 07 01 00 22 80 07  ............."..
0790: 02 00 23 80 BA 35 C1 0E  01 01 00 02 00 1F 80 01  ..#..5..........
07A0: 80 1C 0F 80 2B 30 C1 0E  01 24 80 23 62 1B 80 F8  ....+0...$.#b...
07B0: FF FF 7F F8 FF FF 7F 6D  61 69 6E 01 80 62 1B 80  .......main..b..
07C0: 34 C1 0E 01 34 C1 0E 01  6D 61 69 6E 01 80 62 1B  4...4...main..b.
07D0: 80 35 C1 0E 01 35 C1 0E  01 6D 61 69 6E 01 80 1C  .5...5...main...
07E0: 1C 80 9F 13 80 F8 FF FF  7F F8 FF FF 7F 6B 69 6C  .............kil
07F0: 6C 01 80 A2 13 80 F8 FF  FF 7F F8 FF FF 7F 6B 69  l.............ki
0800: 6C 6C 1C 25 80 52 0A 80  F8 FF FF 7F F8 FF FF 7F  ll.%.R..........
0810: 73 36 32 39 45 0A 80 F8  FF FF 7F F8 FF FF 7F 73  s629E..........s
0820: 36 32 36 01 80 4A 30 C1  0E 01 31 C1 0E 01 6F 76  626..J0...1...ov
0830: 30 C1 0E 01 2C 30 C1 0E  01 30 C1 0E 01 74 6C 6B  0...,0...0...tlk
0840: 30 2B 30 C1 0E 01 37 80  23 4A 30 C1 0E 01 31 C1  0+0...7.#J0...1.
0850: 0E 01 6F 76 30 C1 0E 01  2B 30 C1 0E 01 38 80 23  ..ov0...+0...8.#
0860: 2C 30 C1 0E 01 30 C1 0E  01 68 61 70 30 2B 30 C1  ,0...0...hap0+0.
0870: 0E 01 39 80 23 2C 30 C1  0E 01 30 C1 0E 01 68 61  ..9.#,0...0...ha
0880: 70 31 4A 30 C1 0E 01 F0  FF FF 7F 52 0A 80 F8 FF  p1J0.......R....
0890: FF 7F F8 FF FF 7F 73 36  32 36 45 0A 80 F8 FF FF  ......s626E.....
08A0: 7F F8 FF FF 7F 73 36 32  37 01 80 1C 11 80 6F 76  .....s627.....ov
08B0: 30 C1 0E 01 2C 30 C1 0E  01 30 C1 0E 01 74 6C 6B  0...,0...0...tlk
08C0: 30 2B 30 C1 0E 01 3A 80  23 1C 0F 80 52 0A 80 F8  0+0...:.#...R...
08D0: FF FF 7F F8 FF FF 7F 73  36 32 37 45 0A 80 F8 FF  .......s627E....
08E0: FF 7F F8 FF FF 7F 73 36  32 30 01 80 4A 30 C1 0E  ......s620..J0..
08F0: 01 31 C1 0E 01 6F 76 30  C1 0E 01 2C 30 C1 0E 01  .1...ov0...,0...
0900: 30 C1 0E 01 74 6C 6B 30  2B 30 C1 0E 01 3B 80 23  0...tlk0+0...;.#
0910: 4A 31 C1 0E 01 30 C1 0E  01 6F 76 30 C1 0E 01 2B  J1...0...ov0...+
0920: 30 C1 0E 01 3C 80 23 2C  30 C1 0E 01 30 C1 0E 01  0...<.#,0...0...
0930: 74 6C 6B 30 2B 30 C1 0E  01 3D 80 23 2C 30 C1 0E  tlk0+0...=.#,0..
0940: 01 30 C1 0E 01 74 6C 6B  31 53 30 C1 0E 01 30 C1  .0...tlk1S0...0.
0950: 0E 01 74 6C 6B 31 52 0A  80 F8 FF FF 7F F8 FF FF  ..tlk1R.........
0960: 7F 73 36 32 30 45 0A 80  F8 FF FF 7F F8 FF FF 7F  .s620E..........
0970: 73 36 32 31 01 80 1C 11  80 03 03 17 3E 80 7B 30  s621........>.{0
0980: C1 0E 01 1C 0D 80 4A 31  C1 0E 01 F0 FF FF 7F 29  ......J1.......)
0990: 10 30 C1 0E 01 03 2C 30  C1 0E 01 30 C1 0E 01 74  .0....,0...0...t
09A0: 6C 6B 30 2B 30 C1 0E 01  3F 80 23 1C 1C 80 5C 00  lk0+0...?.#...\.
09B0: 40 80 5C 01 40 80 9A 52  0A 80 F8 FF FF 7F F8 FF  @.\.@..R........
09C0: FF 7F 73 36 32 31 45 0A  80 F8 FF FF 7F F8 FF FF  ..s621E.........
09D0: 7F 73 36 31 32 01 80 4E  01 31 C1 0E 01 4E 01 32  .s612..N.1...N.2
09E0: C1 0E 01 4E 01 33 C1 0E  01 2C 30 C1 0E 01 30 C1  ...N.3...,0...0.
09F0: 0E 01 68 61 70 30 2B 30  C1 0E 01 41 80 23 2B 30  ..hap0+0...A.#+0
0A00: C1 0E 01 42 80 23 2C 30  C1 0E 01 30 C1 0E 01 68  ...B.#,0...0...h
0A10: 61 70 31 53 30 C1 0E 01  30 C1 0E 01 68 61 70 31  ap1S0...0...hap1
0A20: 52 0A 80 F8 FF FF 7F F8  FF FF 7F 73 36 31 32 45  R..........s612E
0A30: 0A 80 F8 FF FF 7F F8 FF  FF 7F 73 36 32 32 01 80  ..........s622..
0A40: 45 0A 80 F8 FF FF 7F F8  FF FF 7F 62 6F 66 66 01  E..........boff.
0A50: 80 A0 0A 80 F8 FF FF 7F  F8 FF FF 7F 62 6F 66 66  ............boff
0A60: 2B 30 C1 0E 01 43 80 23  2B 30 C1 0E 01 44 80 23  +0...C.#+0...D.#
0A70: 1C 45 80 52 0A 80 F8 FF  FF 7F F8 FF FF 7F 73 36  .E.R..........s6
0A80: 32 32 45 0A 80 F8 FF FF  7F F8 FF FF 7F 73 36 32  22E..........s62
0A90: 33 01 80 2C 30 C1 0E 01  30 C1 0E 01 68 61 70 30  3..,0...0...hap0
0AA0: 2B 30 C1 0E 01 46 80 23  2B 30 C1 0E 01 47 80 23  +0...F.#+0...G.#
0AB0: 2B 30 C1 0E 01 48 80 23  2C 30 C1 0E 01 30 C1 0E  +0...H.#,0...0..
0AC0: 01 68 61 70 31 53 30 C1  0E 01 30 C1 0E 01 68 61  .hap1S0...0...ha
0AD0: 70 31 4A 30 C1 0E 01 F0  FF FF 7F 52 0A 80 F8 FF  p1J0.......R....
0AE0: FF 7F F8 FF FF 7F 73 36  32 33 45 0A 80 F8 FF FF  ......s623E.....
0AF0: 7F F8 FF FF 7F 73 36 31  35 01 80 45 0A 80 F8 FF  .....s615..E....
0B00: FF 7F F8 FF FF 7F 62 6F  66 66 01 80 A0 0A 80 F8  ......boff......
0B10: FF FF 7F F8 FF FF 7F 62  6F 66 66 6F 76 30 C1 0E  .......boffov0..
0B20: 01 1C 0D 80 2C 30 C1 0E  01 30 C1 0E 01 74 6C 6B  ....,0...0...tlk
0B30: 30 2B 30 C1 0E 01 49 80  23 2C 30 C1 0E 01 30 C1  0+0...I.#,0...0.
0B40: 0E 01 67 61 6B 30 2B 30  C1 0E 01 4A 80 23 53 30  ..gak0+0...J.#S0
0B50: C1 0E 01 30 C1 0E 01 67  61 6B 30 2C 30 C1 0E 01  ...0...gak0,0...
0B60: 30 C1 0E 01 67 61 6B 31  53 30 C1 0E 01 30 C1 0E  0...gak1S0...0..
0B70: 01 67 61 6B 31 52 0A 80  F8 FF FF 7F F8 FF FF 7F  .gak1R..........
0B80: 73 36 31 35 45 0A 80 F8  FF FF 7F F8 FF FF 7F 73  s615E..........s
0B90: 36 31 36 01 80 4E 00 31  C1 0E 01 4E 00 32 C1 0E  616..N.1...N.2..
0BA0: 01 4E 00 33 C1 0E 01 2C  30 C1 0E 01 30 C1 0E 01  .N.3...,0...0...
0BB0: 65 78 70 30 2B 30 C1 0E  01 4B 80 23 2B 30 C1 0E  exp0+0...K.#+0..
0BC0: 01 4C 80 23 36 4D 80 4E  80 4F 80 BB 50 80 F8 FF  .L.#6M.N.O..P...
0BD0: FF 7F F8 FF FF 7F 6D 61  69 6E 01 80 2C 30 C1 0E  ......main..,0..
0BE0: 01 30 C1 0E 01 68 61 70  30 2B 30 C1 0E 01 51 80  .0...hap0+0...Q.
0BF0: 23 BC 50 80 F8 FF FF 7F  F8 FF FF 7F 6D 61 69 6E  #.P.........main
0C00: 1C 0D 80 52 0A 80 F8 FF  FF 7F F8 FF FF 7F 73 36  ...R..........s6
0C10: 31 36 02 87 7F 0C 80 80  2E 0C 45 0A 80 F8 FF FF  16........E.....
0C20: 7F F8 FF FF 7F 73 36 31  34 01 80 01 5B 0C 02 87  .....s614...[...
0C30: 7F 10 80 80 4A 0C 45 0A  80 F8 FF FF 7F F8 FF FF  ....J.E.........
0C40: 7F 73 36 31 34 01 80 01  5B 0C 45 0A 80 F8 FF FF  .s614...[.E.....
0C50: 7F F8 FF FF 7F 73 36 31  33 01 80 2C 30 C1 0E 01  .....s613..,0...
0C60: 30 C1 0E 01 65 78 70 30  2B 30 C1 0E 01 52 80 23  0...exp0+0...R.#
0C70: 2B 30 C1 0E 01 53 80 23  2B 30 C1 0E 01 54 80 23  +0...S.#+0...T.#
0C80: 2B 30 C1 0E 01 55 80 23  7B 30 C1 0E 01 02 87 7F  +0...U.#{0......
0C90: 0C 80 80 A7 0C 52 0A 80  F8 FF FF 7F F8 FF FF 7F  .....R..........
0CA0: 73 36 31 34 01 D0 0C 02  87 7F 10 80 80 C1 0C 52  s614...........R
0CB0: 0A 80 F8 FF FF 7F F8 FF  FF 7F 73 36 31 34 01 D0  ..........s614..
0CC0: 0C 52 0A 80 F8 FF FF 7F  F8 FF FF 7F 73 36 31 33  .R..........s613
0CD0: 45 0A 80 F8 FF FF 7F F8  FF FF 7F 73 36 31 38 01  E..........s618.
0CE0: 80 2B 30 C1 0E 01 56 80  23 2C 30 C1 0E 01 30 C1  .+0...V.#,0...0.
0CF0: 0E 01 65 78 70 31 53 30  C1 0E 01 30 C1 0E 01 65  ..exp1S0...0...e
0D00: 78 70 31 24 57 80 01 80  01 80 25 02 00 10 01 80  xp1$W.....%.....
0D10: 00 5F 0D 52 0A 80 F8 FF  FF 7F F8 FF FF 7F 73 36  ._.R..........s6
0D20: 31 38 45 0A 80 F8 FF FF  7F F8 FF FF 7F 73 36 34  18E..........s64
0D30: 30 01 80 2C 30 C1 0E 01  30 C1 0E 01 6A 6F 62 30  0..,0...0...job0
0D40: 2B 30 C1 0E 01 58 80 23  03 01 10 01 80 73 59 80  +0...X.#.....sY.
0D50: 30 C1 0E 01 F0 FF FF 7F  1C 5A 80 30 01 91 0D 02  0........Z.0....
0D60: 00 10 5B 80 00 91 0D 2C  30 C1 0E 01 30 C1 0E 01  ..[....,0...0...
0D70: 65 78 70 30 2B 30 C1 0E  01 5C 80 23 2C 30 C1 0E  exp0+0...\.#,0..
0D80: 01 30 C1 0E 01 65 78 70  31 03 01 10 5B 80 01 91  .0...exp1...[...
0D90: 0D 45 00 80 F0 FF FF 7F  F0 FF FF 7F 66 64 6F 31  .E..........fdo1
0DA0: 01 80 55 00 80 F0 FF FF  7F F0 FF FF 7F 66 64 6F  ..U..........fdo
0DB0: 31 02 01 10 01 80 01 E3  0D 5C 00 5D 80 5C 01 5D  1........\.].\.]
0DC0: 80 52 0A 80 F8 FF FF 7F  F8 FF FF 7F 73 36 31 38  .R..........s618
0DD0: 46 00 45 00 80 F0 FF FF  7F F0 FF FF 7F 66 64 69  F.E..........fdi
0DE0: 31 01 80 21 00                                    1..!.           
```

#### Opcodes

```
  0: 0x0001 [0x03] ExtData[1]->WorkLocal[0] = Work_Zone[2]
  1: 0x0006 [0x42] SET_CLI_EVENT_CANCEL_DATA()
  2: 0x0007 [0x45] LOAD_SCHEDULED_TASK: Load scheduler "fdo1" with entities [LocalPlayer, LocalPlayer], work=[200*, 0*]
  3: 0x0018 [0x55] WAIT_LOAD_SCHEDULER: Wait for scheduler "fdo1" with entities [LocalPlayer, LocalPlayer], work=200*
  4: 0x0027 [0x46] CAMERA_CONTROL: Disable user control
  5: 0x0029 [0x38] SET_CLIENT_EVENT_MODE(mode=19*)
  6: 0x002C [0x2F] Unnamed NPC (ID: 17744180/0x010EC134)->Render.Flags0 &= ~0x80000 // Bit 19
  7: 0x0032 [0x2F] Unnamed NPC (ID: 17744181/0x010EC135)->Render.Flags0 &= ~0x80000 // Bit 19
  8: 0x0038 [0x4E] SET_ENTITY_HIDE_FLAG: Show Unnamed NPC (ID: 17744180/0x010EC134)
  9: 0x003E [0x4E] SET_ENTITY_HIDE_FLAG: Show Unnamed NPC (ID: 17744181/0x010EC135)
 10: 0x0044 [0x92] Moogle (ID: 17744176/0x010EC130)->Render.Flags3 ^= 0x01
 11: 0x004A [0x92] Spriggan Sifter (ID: 17744177/0x010EC131)->Render.Flags3 ^= 0x01
 12: 0x0050 [0x92] Spriggan Crier (ID: 17744178/0x010EC132)->Render.Flags3 ^= 0x01
 13: 0x0056 [0x92] Spriggan Graverobber (ID: 17744179/0x010EC133)->Render.Flags3 ^= 0x01
 14: 0x005C [0x94] Moogle (ID: 17744176/0x010EC130)->Render.Flags3 ^= 0x01
 15: 0x0062 [0x94] Spriggan Sifter (ID: 17744177/0x010EC131)->Render.Flags3 ^= 0x01
 16: 0x0068 [0x94] Spriggan Crier (ID: 17744178/0x010EC132)->Render.Flags3 ^= 0x01
 17: 0x006E [0x94] Spriggan Graverobber (ID: 17744179/0x010EC133)->Render.Flags3 ^= 0x01
 18: 0x0074 [0x94] LocalPlayer->Render.Flags3 ^= 0x01
 19: 0x007A [0x4A] LocalPlayer looks at LocalPlayer
 20: 0x0083 [0xBA] SET_ENTITY_POSITION(entity_id=LocalPlayer, pos_x=95.500*, pos_z=-18.800*, pos_y=8.500*, direction=377476129.3°*)
 21: 0x0090 [0x4A] Moogle (ID: 17744176/0x010EC130) looks at Spriggan Sifter (ID: 17744177/0x010EC131)
 22: 0x0099 [0x4A] Spriggan Sifter (ID: 17744177/0x010EC131) looks at Moogle (ID: 17744176/0x010EC130)
 23: 0x00A2 [0x4A] Spriggan Crier (ID: 17744178/0x010EC132) looks at Moogle (ID: 17744176/0x010EC130)
 24: 0x00AB [0x4A] Spriggan Graverobber (ID: 17744179/0x010EC133) looks at Moogle (ID: 17744176/0x010EC130)
 25: 0x00B4 [0x6F] WAIT_FRAME_DELAY: Yield until WaitTime reaches zero
 26: 0x00B5 [0x76] CHECK_ENTITY_RENDER_FLAGS: Wait until Moogle (ID: 17744176/0x010EC130) Render.Flags0 and Render.Flags3 conditions are met
 27: 0x00BA [0x6F] WAIT_FRAME_DELAY: Yield until WaitTime reaches zero
 28: 0x00BB [0x76] CHECK_ENTITY_RENDER_FLAGS: Wait until Spriggan Sifter (ID: 17744177/0x010EC131) Render.Flags0 and Render.Flags3 conditions are met
 29: 0x00C0 [0x6F] WAIT_FRAME_DELAY: Yield until WaitTime reaches zero
 30: 0x00C1 [0x76] CHECK_ENTITY_RENDER_FLAGS: Wait until Spriggan Crier (ID: 17744178/0x010EC132) Render.Flags0 and Render.Flags3 conditions are met
 31: 0x00C6 [0x6F] WAIT_FRAME_DELAY: Yield until WaitTime reaches zero
 32: 0x00C7 [0x76] CHECK_ENTITY_RENDER_FLAGS: Wait until Spriggan Graverobber (ID: 17744179/0x010EC133) Render.Flags0 and Render.Flags3 conditions are met
 33: 0x00CC [0x80] LOAD_WAIT(entity=Moogle (ID: 17744176/0x010EC130))
 34: 0x00D1 [0x80] LOAD_WAIT(entity=Spriggan Sifter (ID: 17744177/0x010EC131))
 35: 0x00D6 [0x80] LOAD_WAIT(entity=Spriggan Crier (ID: 17744178/0x010EC132))
 36: 0x00DB [0x80] LOAD_WAIT(entity=Spriggan Graverobber (ID: 17744179/0x010EC133))
 37: 0x00E0 [0x80] LOAD_WAIT(entity=LocalPlayer)
 38: 0x00E5 [0x92] Alib-Mufalib (ID: 17744039/0x010EC0A7)->Render.Flags3 ^= 0x01
 39: 0x00EB [0x92] Dulsie (ID: 17743943/0x010EC047)->Render.Flags3 ^= 0x01
 40: 0x00F1 [0x92] Clarion Star (ID: 17744188/0x010EC13C)->Render.Flags3 ^= 0x01
 41: 0x00F7 [0x92] Nicadio (ID: 17743875/0x010EC003)->Render.Flags3 ^= 0x01
 42: 0x00FD [0x5C] MUSIC_CONTROL: Set Idle (Day) music to song 129*
 43: 0x0101 [0x5C] MUSIC_CONTROL: Set Idle (Night) music to song 129*
 44: 0x0105 [0x9A] WAIT_MUSIC_SERVER()
 45: 0x0106 [0x03] Work_Zone_1700[11] = 98000*
 46: 0x010B [0x03] Work_Zone_1700[12] = 4294956296*
 47: 0x0110 [0x03] Work_Zone_1700[13] = 8500*
 48: 0x0115 [0x27] REQ_SET(priority=0x10, entity_id=LocalPlayer, tag_num=0x47)
 49: 0x011C [0x2C] CREATE_SCHEDULER_TASK: Create scheduler "exp0" with entities [Moogle (ID: 17744176/0x010EC130), Moogle (ID: 17744176/0x010EC130)]
 50: 0x0129 [0x45] LOAD_SCHEDULED_TASK: Load scheduler "s636" with entities [EventEntity, EventEntity], work=[639*, 0*]
 51: 0x013A [0x45] LOAD_SCHEDULED_TASK: Load scheduler "fdi1" with entities [LocalPlayer, LocalPlayer], work=[200*, 0*]
 52: 0x014B [0x1C] WAIT(210* ticks)
 53: 0x014E [0x2C] CREATE_SCHEDULER_TASK: Create scheduler "exp1" with entities [Moogle (ID: 17744176/0x010EC130), Moogle (ID: 17744176/0x010EC130)]
 54: 0x015B [0x53] WAIT_SCHEDULER_TASK: Wait for scheduler "exp1" with entities [Moogle (ID: 17744176/0x010EC130), Moogle (ID: 17744176/0x010EC130)]
 55: 0x0168 [0x4A] Spriggan Sifter (ID: 17744177/0x010EC131) looks at LocalPlayer
 56: 0x0171 [0x1C] WAIT(5* ticks)
 57: 0x0174 [0x4A] Spriggan Crier (ID: 17744178/0x010EC132) looks at LocalPlayer
 58: 0x017D [0x1C] WAIT(10* ticks)
 59: 0x0180 [0x4A] Spriggan Graverobber (ID: 17744179/0x010EC133) looks at LocalPlayer
 60: 0x0189 [0x1C] WAIT(15* ticks)
 61: 0x018C [0x4A] Moogle (ID: 17744176/0x010EC130) looks at LocalPlayer
 62: 0x0195 [0x6F] WAIT_FRAME_DELAY: Yield until WaitTime reaches zero
 63: 0x0196 [0x76] CHECK_ENTITY_RENDER_FLAGS: Wait until Moogle (ID: 17744176/0x010EC130) Render.Flags0 and Render.Flags3 conditions are met
 64: 0x019B [0x1C] WAIT(30* ticks)
 65: 0x019E [0x52] END_LOAD_SCHEDULER: End scheduler "s636" with entities [EventEntity, EventEntity], work=639*
 66: 0x01AD [0x02] IF !(LocalPlayer->Race == 5*) GOTO 0x01C9
 67: 0x01B5 [0x45] LOAD_SCHEDULED_TASK: Load scheduler "s638" with entities [EventEntity, EventEntity], work=[639*, 0*]
 68: 0x01C6 [0x01] GOTO 0x01F6
 69: 0x01C9 [0x02] IF !(LocalPlayer->Race == 6*) GOTO 0x01E5
 70: 0x01D1 [0x45] LOAD_SCHEDULED_TASK: Load scheduler "s638" with entities [EventEntity, EventEntity], work=[639*, 0*]
 71: 0x01E2 [0x01] GOTO 0x01F6
 72: 0x01E5 [0x45] LOAD_SCHEDULED_TASK: Load scheduler "s637" with entities [EventEntity, EventEntity], work=[639*, 0*]

SUBROUTINE_01F6:
 73: 0x01F6 [0x2A] GET_REQ_LEVEL(level=16, entity_id=LocalPlayer)
 74: 0x01FC [0x4A] Moogle (ID: 17744176/0x010EC130) looks at LocalPlayer
 75: 0x0205 [0x1C] WAIT(20* ticks)
 76: 0x0208 [0x4A] Spriggan Sifter (ID: 17744177/0x010EC131) looks at LocalPlayer
 77: 0x0211 [0x1C] WAIT(10* ticks)
 78: 0x0214 [0x4A] Spriggan Crier (ID: 17744178/0x010EC132) looks at LocalPlayer
 79: 0x021D [0x4A] Spriggan Graverobber (ID: 17744179/0x010EC133) looks at LocalPlayer
 80: 0x0226 [0x4A] LocalPlayer looks at Moogle (ID: 17744176/0x010EC130)
 81: 0x022F [0x6F] WAIT_FRAME_DELAY: Yield until WaitTime reaches zero
 82: 0x0230 [0x76] CHECK_ENTITY_RENDER_FLAGS: Wait until LocalPlayer Render.Flags0 and Render.Flags3 conditions are met
 83: 0x0235 [0x4A] Spriggan Sifter (ID: 17744177/0x010EC131) looks at LocalPlayer
 84: 0x023E [0x4A] Spriggan Crier (ID: 17744178/0x010EC132) looks at LocalPlayer
 85: 0x0247 [0x4A] Spriggan Graverobber (ID: 17744179/0x010EC133) looks at LocalPlayer
 86: 0x0250 [0x2C] CREATE_SCHEDULER_TASK: Create scheduler "new0" with entities [Moogle (ID: 17744176/0x010EC130), Moogle (ID: 17744176/0x010EC130)]
 87: 0x025D [0x2B] Moogle (ID: 17744176/0x010EC130) [13361*]:
    → "Hey, you--able adventurer! Cast your gaze on the countenance of this misbegotten mutant."
 88: 0x0264 [0x23] WAIT_FOR_DIALOG_INTERACTION
 89: 0x0265 [0x2C] CREATE_SCHEDULER_TASK: Create scheduler "new1" with entities [Moogle (ID: 17744176/0x010EC130), Moogle (ID: 17744176/0x010EC130)]
 90: 0x0272 [0x53] WAIT_SCHEDULER_TASK: Wait for scheduler "new1" with entities [Moogle (ID: 17744176/0x010EC130), Moogle (ID: 17744176/0x010EC130)]
 91: 0x027F [0x4A] LocalPlayer looks at Spriggan Sifter (ID: 17744177/0x010EC131)
 92: 0x0288 [0x02] IF !(LocalPlayer->Race == 5*) GOTO 0x02A2
 93: 0x0290 [0x52] END_LOAD_SCHEDULER: End scheduler "s638" with entities [EventEntity, EventEntity], work=639*
 94: 0x029F [0x01] GOTO 0x02CB
 95: 0x02A2 [0x02] IF !(LocalPlayer->Race == 6*) GOTO 0x02BC
 96: 0x02AA [0x52] END_LOAD_SCHEDULER: End scheduler "s638" with entities [EventEntity, EventEntity], work=639*
 97: 0x02B9 [0x01] GOTO 0x02CB
 98: 0x02BC [0x52] END_LOAD_SCHEDULER: End scheduler "s637" with entities [EventEntity, EventEntity], work=639*

SUBROUTINE_02CB:
 99: 0x02CB [0x45] LOAD_SCHEDULED_TASK: Load scheduler "s628" with entities [EventEntity, EventEntity], work=[639*, 0*]
100: 0x02DC [0x9F] LOAD_SCHEDULED_TASK_ALT: Load scheduler "main" with entities [EventEntity, EventEntity], work=[96*, 0*]
101: 0x02ED [0x33] EventEntity->Render.Flags0 |= 0x200000 // Bit 21 (flag=0x01)
102: 0x02EF [0xA4] EventEntity->Flags3.unknown_3_2 = 1
103: 0x02F1 [0x36] SET_ENTITY_EVENT_POSITION(pos_x=95.540*, pos_z=-9.120*, pos_y=8.227*)
104: 0x02F8 [0x59] UPDATE_ENTITY_DATA: Unnamed NPC (ID: 17744180/0x010EC134)->Render.Flags0 |= 0x200000
105: 0x02FF [0x59] UPDATE_ENTITY_DATA: Unnamed NPC (ID: 17744181/0x010EC135)->Render.Flags0 |= 0x200000
106: 0x0306 [0x03] ExtData[1]->WorkLocal[1] = 95540*
107: 0x030B [0x03] ExtData[1]->WorkLocal[2] = 4294958176*
108: 0x0310 [0x08] ExtData[1]->WorkLocal[1] -= 900*
109: 0x0315 [0x08] ExtData[1]->WorkLocal[2] -= 580*
110: 0x031A [0xBA] SET_ENTITY_POSITION(entity_id=Unnamed NPC (ID: 17744180/0x010EC134), pos_x=ExtData[1]->WorkLocal[1], pos_z=ExtData[1]->WorkLocal[2], pos_y=8.227*, direction=0.0°*)
111: 0x0327 [0x07] ExtData[1]->WorkLocal[1] += 200*
112: 0x032C [0x07] ExtData[1]->WorkLocal[2] += 1280*
113: 0x0331 [0xBA] SET_ENTITY_POSITION(entity_id=Unnamed NPC (ID: 17744181/0x010EC135), pos_x=ExtData[1]->WorkLocal[1], pos_z=ExtData[1]->WorkLocal[2], pos_y=8.227*, direction=0.0°*)
114: 0x033E [0x1C] WAIT(30* ticks)
115: 0x0341 [0x2B] Moogle (ID: 17744176/0x010EC130) [13362*]:
    → "Glance at the good-natured glimmer in his eyes!"
116: 0x0348 [0x23] WAIT_FOR_DIALOG_INTERACTION
117: 0x0349 [0x62] LOAD_EVENT_SCHEDULER: Load scheduler "main" with entities [EventEntity, EventEntity], work=[3*, 0*]
118: 0x035A [0x62] LOAD_EVENT_SCHEDULER: Load scheduler "main" with entities [Unnamed NPC (ID: 17744180/0x010EC134), Unnamed NPC (ID: 17744180/0x010EC134)], work=[3*, 0*]
119: 0x036B [0x62] LOAD_EVENT_SCHEDULER: Load scheduler "main" with entities [Unnamed NPC (ID: 17744181/0x010EC135), Unnamed NPC (ID: 17744181/0x010EC135)], work=[3*, 0*]
120: 0x037C [0x1C] WAIT(60* ticks)
121: 0x037F [0x52] END_LOAD_SCHEDULER: End scheduler "s628" with entities [EventEntity, EventEntity], work=639*
122: 0x038E [0x45] LOAD_SCHEDULED_TASK: Load scheduler "s629" with entities [EventEntity, EventEntity], work=[639*, 0*]
123: 0x039F [0x36] SET_ENTITY_EVENT_POSITION(pos_x=95.505*, pos_z=-9.125*, pos_y=8.305*)
124: 0x03A6 [0x03] ExtData[1]->WorkLocal[1] = 95505*
125: 0x03AB [0x03] ExtData[1]->WorkLocal[2] = 4294958171*
126: 0x03B0 [0x08] ExtData[1]->WorkLocal[1] -= 820*
127: 0x03B5 [0x08] ExtData[1]->WorkLocal[2] -= 600*
128: 0x03BA [0xBA] SET_ENTITY_POSITION(entity_id=Unnamed NPC (ID: 17744180/0x010EC134), pos_x=ExtData[1]->WorkLocal[1], pos_z=ExtData[1]->WorkLocal[2], pos_y=8.305*, direction=0.0°*)
129: 0x03C7 [0x07] ExtData[1]->WorkLocal[1] += 100*
130: 0x03CC [0x07] ExtData[1]->WorkLocal[2] += 1300*
131: 0x03D1 [0xBA] SET_ENTITY_POSITION(entity_id=Unnamed NPC (ID: 17744181/0x010EC135), pos_x=ExtData[1]->WorkLocal[1], pos_z=ExtData[1]->WorkLocal[2], pos_y=8.305*, direction=0.0°*)
132: 0x03DE [0x1C] WAIT(30* ticks)
133: 0x03E1 [0x2B] Moogle (ID: 17744176/0x010EC130) [13363*]:
    → "Take in his tiny teeth scintillating in the sunlight, kupo!"
134: 0x03E8 [0x23] WAIT_FOR_DIALOG_INTERACTION
135: 0x03E9 [0x62] LOAD_EVENT_SCHEDULER: Load scheduler "main" with entities [EventEntity, EventEntity], work=[3*, 0*]
136: 0x03FA [0x62] LOAD_EVENT_SCHEDULER: Load scheduler "main" with entities [Unnamed NPC (ID: 17744180/0x010EC134), Unnamed NPC (ID: 17744180/0x010EC134)], work=[3*, 0*]
137: 0x040B [0x62] LOAD_EVENT_SCHEDULER: Load scheduler "main" with entities [Unnamed NPC (ID: 17744181/0x010EC135), Unnamed NPC (ID: 17744181/0x010EC135)], work=[3*, 0*]
138: 0x041C [0x1C] WAIT(60* ticks)
139: 0x041F [0x9F] LOAD_SCHEDULED_TASK_ALT: Load scheduler "kill" with entities [EventEntity, EventEntity], work=[96*, 0*]
140: 0x0430 [0xA2] WAIT_LOAD_SCHEDULER_MAIN: Wait for scheduler "kill" with entities [EventEntity, EventEntity], work=96*
141: 0x043F [0x1C] WAIT(45* ticks)
142: 0x0442 [0x52] END_LOAD_SCHEDULER: End scheduler "s629" with entities [EventEntity, EventEntity], work=639*
143: 0x0451 [0x45] LOAD_SCHEDULED_TASK: Load scheduler "s639" with entities [EventEntity, EventEntity], work=[639*, 0*]
144: 0x0462 [0x1C] WAIT(15* ticks)
145: 0x0465 [0x4A] LocalPlayer looks at Moogle (ID: 17744176/0x010EC130)
146: 0x046E [0x6F] WAIT_FRAME_DELAY: Yield until WaitTime reaches zero
147: 0x046F [0x76] CHECK_ENTITY_RENDER_FLAGS: Wait until LocalPlayer Render.Flags0 and Render.Flags3 conditions are met
148: 0x0474 [0x02] IF !(ExtData[1]->WorkLocal[0] == 7*) GOTO 0x04DC
149: 0x047C [0x27] REQ_SET(priority=0x10, entity_id=LocalPlayer, tag_num=0x46)
150: 0x0483 [0x2A] GET_REQ_LEVEL(level=16, entity_id=LocalPlayer)
151: 0x0489 [0x1C] WAIT(15* ticks)
152: 0x048C [0x2C] CREATE_SCHEDULER_TASK: Create scheduler "tlk0" with entities [Moogle (ID: 17744176/0x010EC130), Moogle (ID: 17744176/0x010EC130)]
153: 0x0499 [0x2B] Moogle (ID: 17744176/0x010EC130) [13364*]:
    → "You mean...you're familiar with its furry form?"
154: 0x04A0 [0x23] WAIT_FOR_DIALOG_INTERACTION
155: 0x04A1 [0x2B] Moogle (ID: 17744176/0x010EC130) [13365*]:
    → "Oh hush, hustler. Listen to the lowdown before you loosen your lips."
156: 0x04A8 [0x23] WAIT_FOR_DIALOG_INTERACTION
157: 0x04A9 [0x2B] Moogle (ID: 17744176/0x010EC130) [13366*]:
    → "Remember the gristly green gobs who came before? Now its mauve and maroon mates have come to wreak wrongdoings upon our realm!"
158: 0x04B0 [0x23] WAIT_FOR_DIALOG_INTERACTION
159: 0x04B1 [0x2B] Moogle (ID: 17744176/0x010EC130) [13367*]:
    → "At least, I suppose so. They haven't lifted a limb of late, so maybe there should be nothing nagging at my noggin after all..."
160: 0x04B8 [0x23] WAIT_FOR_DIALOG_INTERACTION
161: 0x04B9 [0x52] END_LOAD_SCHEDULER: End scheduler "s639" with entities [EventEntity, EventEntity], work=639*
162: 0x04C8 [0x45] LOAD_SCHEDULED_TASK: Load scheduler "s625" with entities [EventEntity, EventEntity], work=[639*, 0*]
163: 0x04D9 [0x01] GOTO 0x056E
164: 0x04DC [0x2C] CREATE_SCHEDULER_TASK: Create scheduler "tlk0" with entities [Moogle (ID: 17744176/0x010EC130), Moogle (ID: 17744176/0x010EC130)]
165: 0x04E9 [0x2B] Moogle (ID: 17744176/0x010EC130) [13368*]:
    → "Let me tell you a troubled tale. Not long ago, some grisly green gobs came to Vana'diel, and we amassed a fabulous fortune crafting countless curios in their likeness."
166: 0x04F0 [0x23] WAIT_FOR_DIALOG_INTERACTION
167: 0x04F1 [0x2B] Moogle (ID: 17744176/0x010EC130) [13369*]:
    → "But there was an--inconsequential?--issue with them consuming crystals like crunchy candies."
168: 0x04F8 [0x23] WAIT_FOR_DIALOG_INTERACTION
169: 0x04F9 [0x2B] Moogle (ID: 17744176/0x010EC130) [13370*]:
    → "Thanks to hardy heroes and moogle magic, we turned them into cerulean stone shards and sent them scurrying home, kupo."
170: 0x0500 [0x23] WAIT_FOR_DIALOG_INTERACTION
171: 0x0501 [0x2B] Moogle (ID: 17744176/0x010EC130) [13371*]:
    → "But we gave the victors great gifts resembling those rowdy ruffians, so our profits plummeted and we had to cancel our tropical travel plans..."
172: 0x0508 [0x23] WAIT_FOR_DIALOG_INTERACTION
173: 0x0509 [0x52] END_LOAD_SCHEDULER: End scheduler "s639" with entities [EventEntity, EventEntity], work=639*
174: 0x0518 [0x45] LOAD_SCHEDULED_TASK: Load scheduler "s624" with entities [EventEntity, EventEntity], work=[639*, 0*]
175: 0x0529 [0x2C] CREATE_SCHEDULER_TASK: Create scheduler "tlk0" with entities [Moogle (ID: 17744176/0x010EC130), Moogle (ID: 17744176/0x010EC130)]
176: 0x0536 [0x2B] Moogle (ID: 17744176/0x010EC130) [13372*]:
    → "But the past is in the past. We must make the most of the moment!"
177: 0x053D [0x23] WAIT_FOR_DIALOG_INTERACTION
178: 0x053E [0x2B] Moogle (ID: 17744176/0x010EC130) [13373*]:
    → "And so! With the multicolored monsters now manifesting themselves, we found our next best chance!"
179: 0x0545 [0x23] WAIT_FOR_DIALOG_INTERACTION
180: 0x0546 [0x2B] Moogle (ID: 17744176/0x010EC130) [13374*]:
    → "They haven't lifted a limb of late, so maybe there's nothing to knock my noggin over..."
181: 0x054D [0x23] WAIT_FOR_DIALOG_INTERACTION
182: 0x054E [0x52] END_LOAD_SCHEDULER: End scheduler "s624" with entities [EventEntity, EventEntity], work=639*
183: 0x055D [0x45] LOAD_SCHEDULED_TASK: Load scheduler "s625" with entities [EventEntity, EventEntity], work=[639*, 0*]

SUBROUTINE_056E:
184: 0x056E [0x2C] CREATE_SCHEDULER_TASK: Create scheduler "exp0" with entities [Moogle (ID: 17744176/0x010EC130), Moogle (ID: 17744176/0x010EC130)]
185: 0x057B [0x2B] Moogle (ID: 17744176/0x010EC130) [13375*]:
    → "Thus, we have an ostensibly outstanding opportunity to manufacture new knickknacks, kupo!"
186: 0x0582 [0x23] WAIT_FOR_DIALOG_INTERACTION
187: 0x0583 [0x2B] Moogle (ID: 17744176/0x010EC130) [13376*]:
    → "Part of the proceeds will be diverted to do up dilapidated Mog Houses, with the rest funding our jovial jaunts!"
188: 0x058A [0x23] WAIT_FOR_DIALOG_INTERACTION
189: 0x058B [0x2C] CREATE_SCHEDULER_TASK: Create scheduler "hap0" with entities [Moogle (ID: 17744176/0x010EC130), Moogle (ID: 17744176/0x010EC130)]
190: 0x0598 [0x2B] Moogle (ID: 17744176/0x010EC130) [13377*]:
    → "Kupopopo! How magnificently marvelous!"
191: 0x059F [0x23] WAIT_FOR_DIALOG_INTERACTION
192: 0x05A0 [0x2C] CREATE_SCHEDULER_TASK: Create scheduler "hap1" with entities [Moogle (ID: 17744176/0x010EC130), Moogle (ID: 17744176/0x010EC130)]
193: 0x05AD [0x4E] SET_ENTITY_HIDE_FLAG: Hide Spriggan Sifter (ID: 17744177/0x010EC131)
194: 0x05B3 [0x4E] SET_ENTITY_HIDE_FLAG: Hide Spriggan Crier (ID: 17744178/0x010EC132)
195: 0x05B9 [0x4E] SET_ENTITY_HIDE_FLAG: Hide Spriggan Graverobber (ID: 17744179/0x010EC133)
196: 0x05BF [0x52] END_LOAD_SCHEDULER: End scheduler "s625" with entities [EventEntity, EventEntity], work=639*
197: 0x05CE [0x02] IF !(LocalPlayer->Race == 5*) GOTO 0x05EA
198: 0x05D6 [0x45] LOAD_SCHEDULED_TASK: Load scheduler "s607" with entities [EventEntity, EventEntity], work=[639*, 0*]
199: 0x05E7 [0x01] GOTO 0x0617
200: 0x05EA [0x02] IF !(LocalPlayer->Race == 6*) GOTO 0x0606
201: 0x05F2 [0x45] LOAD_SCHEDULED_TASK: Load scheduler "s607" with entities [EventEntity, EventEntity], work=[639*, 0*]
202: 0x0603 [0x01] GOTO 0x0617
203: 0x0606 [0x45] LOAD_SCHEDULED_TASK: Load scheduler "s606" with entities [EventEntity, EventEntity], work=[639*, 0*]

SUBROUTINE_0617:
204: 0x0617 [0x27] REQ_SET(priority=0x10, entity_id=LocalPlayer, tag_num=0x46)
205: 0x061E [0x2A] GET_REQ_LEVEL(level=16, entity_id=LocalPlayer)
206: 0x0624 [0x1C] WAIT(15* ticks)
207: 0x0627 [0x2C] CREATE_SCHEDULER_TASK: Create scheduler "tlk0" with entities [Moogle (ID: 17744176/0x010EC130), Moogle (ID: 17744176/0x010EC130)]
208: 0x0634 [0x2B] Moogle (ID: 17744176/0x010EC130) [13378*]:
    → "You can't discern the difference between the dimensional delegates?"
209: 0x063B [0x23] WAIT_FOR_DIALOG_INTERACTION
210: 0x063C [0x2B] Moogle (ID: 17744176/0x010EC130) [13379*]:
    → "Give them a good glance!"
211: 0x0643 [0x23] WAIT_FOR_DIALOG_INTERACTION
212: 0x0644 [0x1C] WAIT(30* ticks)
213: 0x0647 [0x4E] SET_ENTITY_HIDE_FLAG: Show Spriggan Sifter (ID: 17744177/0x010EC131)
214: 0x064D [0x4E] SET_ENTITY_HIDE_FLAG: Show Spriggan Crier (ID: 17744178/0x010EC132)
215: 0x0653 [0x4E] SET_ENTITY_HIDE_FLAG: Show Spriggan Graverobber (ID: 17744179/0x010EC133)
216: 0x0659 [0x02] IF !(LocalPlayer->Race == 5*) GOTO 0x0673
217: 0x0661 [0x52] END_LOAD_SCHEDULER: End scheduler "s607" with entities [EventEntity, EventEntity], work=639*
218: 0x0670 [0x01] GOTO 0x069C
219: 0x0673 [0x02] IF !(LocalPlayer->Race == 6*) GOTO 0x068D
220: 0x067B [0x52] END_LOAD_SCHEDULER: End scheduler "s607" with entities [EventEntity, EventEntity], work=639*
221: 0x068A [0x01] GOTO 0x069C
222: 0x068D [0x52] END_LOAD_SCHEDULER: End scheduler "s606" with entities [EventEntity, EventEntity], work=639*

SUBROUTINE_069C:
223: 0x069C [0x45] LOAD_SCHEDULED_TASK: Load scheduler "s628" with entities [EventEntity, EventEntity], work=[639*, 0*]
224: 0x06AD [0x9F] LOAD_SCHEDULED_TASK_ALT: Load scheduler "main" with entities [EventEntity, EventEntity], work=[96*, 0*]
225: 0x06BE [0x33] EventEntity->Render.Flags0 |= 0x200000 // Bit 21 (flag=0x01)
226: 0x06C0 [0xA4] EventEntity->Flags3.unknown_3_2 = 1
227: 0x06C2 [0x36] SET_ENTITY_EVENT_POSITION(pos_x=95.540*, pos_z=-9.120*, pos_y=8.227*)
228: 0x06C9 [0x03] ExtData[1]->WorkLocal[1] = 95540*
229: 0x06CE [0x03] ExtData[1]->WorkLocal[2] = 4294958176*
230: 0x06D3 [0x08] ExtData[1]->WorkLocal[1] -= 900*
231: 0x06D8 [0x08] ExtData[1]->WorkLocal[2] -= 580*
232: 0x06DD [0xBA] SET_ENTITY_POSITION(entity_id=Unnamed NPC (ID: 17744180/0x010EC134), pos_x=ExtData[1]->WorkLocal[1], pos_z=ExtData[1]->WorkLocal[2], pos_y=8.227*, direction=0.0°*)
233: 0x06EA [0x07] ExtData[1]->WorkLocal[1] += 200*
234: 0x06EF [0x07] ExtData[1]->WorkLocal[2] += 1280*
235: 0x06F4 [0xBA] SET_ENTITY_POSITION(entity_id=Unnamed NPC (ID: 17744181/0x010EC135), pos_x=ExtData[1]->WorkLocal[1], pos_z=ExtData[1]->WorkLocal[2], pos_y=8.227*, direction=0.0°*)
236: 0x0701 [0x1C] WAIT(30* ticks)
237: 0x0704 [0x2B] Moogle (ID: 17744176/0x010EC130) [13362*]:
    → "Glance at the good-natured glimmer in his eyes!"
238: 0x070B [0x23] WAIT_FOR_DIALOG_INTERACTION
239: 0x070C [0x62] LOAD_EVENT_SCHEDULER: Load scheduler "main" with entities [EventEntity, EventEntity], work=[3*, 0*]
240: 0x071D [0x62] LOAD_EVENT_SCHEDULER: Load scheduler "main" with entities [Unnamed NPC (ID: 17744180/0x010EC134), Unnamed NPC (ID: 17744180/0x010EC134)], work=[3*, 0*]
241: 0x072E [0x62] LOAD_EVENT_SCHEDULER: Load scheduler "main" with entities [Unnamed NPC (ID: 17744181/0x010EC135), Unnamed NPC (ID: 17744181/0x010EC135)], work=[3*, 0*]
242: 0x073F [0x1C] WAIT(60* ticks)
243: 0x0742 [0x52] END_LOAD_SCHEDULER: End scheduler "s628" with entities [EventEntity, EventEntity], work=639*
244: 0x0751 [0x45] LOAD_SCHEDULED_TASK: Load scheduler "s629" with entities [EventEntity, EventEntity], work=[639*, 0*]
245: 0x0762 [0x36] SET_ENTITY_EVENT_POSITION(pos_x=95.505*, pos_z=-9.125*, pos_y=8.305*)
246: 0x0769 [0x03] ExtData[1]->WorkLocal[1] = 95505*
247: 0x076E [0x03] ExtData[1]->WorkLocal[2] = 4294958171*
248: 0x0773 [0x08] ExtData[1]->WorkLocal[1] -= 820*
249: 0x0778 [0x08] ExtData[1]->WorkLocal[2] -= 600*
250: 0x077D [0xBA] SET_ENTITY_POSITION(entity_id=Unnamed NPC (ID: 17744180/0x010EC134), pos_x=ExtData[1]->WorkLocal[1], pos_z=ExtData[1]->WorkLocal[2], pos_y=8.305*, direction=0.0°*)
251: 0x078A [0x07] ExtData[1]->WorkLocal[1] += 100*
252: 0x078F [0x07] ExtData[1]->WorkLocal[2] += 1300*
253: 0x0794 [0xBA] SET_ENTITY_POSITION(entity_id=Unnamed NPC (ID: 17744181/0x010EC135), pos_x=ExtData[1]->WorkLocal[1], pos_z=ExtData[1]->WorkLocal[2], pos_y=8.305*, direction=0.0°*)
254: 0x07A1 [0x1C] WAIT(30* ticks)
255: 0x07A4 [0x2B] Moogle (ID: 17744176/0x010EC130) [13363*]:
    → "Take in his tiny teeth scintillating in the sunlight, kupo!"
256: 0x07AB [0x23] WAIT_FOR_DIALOG_INTERACTION
257: 0x07AC [0x62] LOAD_EVENT_SCHEDULER: Load scheduler "main" with entities [EventEntity, EventEntity], work=[3*, 0*]
258: 0x07BD [0x62] LOAD_EVENT_SCHEDULER: Load scheduler "main" with entities [Unnamed NPC (ID: 17744180/0x010EC134), Unnamed NPC (ID: 17744180/0x010EC134)], work=[3*, 0*]
259: 0x07CE [0x62] LOAD_EVENT_SCHEDULER: Load scheduler "main" with entities [Unnamed NPC (ID: 17744181/0x010EC135), Unnamed NPC (ID: 17744181/0x010EC135)], work=[3*, 0*]
260: 0x07DF [0x1C] WAIT(60* ticks)
261: 0x07E2 [0x9F] LOAD_SCHEDULED_TASK_ALT: Load scheduler "kill" with entities [EventEntity, EventEntity], work=[96*, 0*]
262: 0x07F3 [0xA2] WAIT_LOAD_SCHEDULER_MAIN: Wait for scheduler "kill" with entities [EventEntity, EventEntity], work=96*
263: 0x0802 [0x1C] WAIT(45* ticks)
264: 0x0805 [0x52] END_LOAD_SCHEDULER: End scheduler "s629" with entities [EventEntity, EventEntity], work=639*
265: 0x0814 [0x45] LOAD_SCHEDULED_TASK: Load scheduler "s626" with entities [EventEntity, EventEntity], work=[639*, 0*]
266: 0x0825 [0x4A] Moogle (ID: 17744176/0x010EC130) looks at Spriggan Sifter (ID: 17744177/0x010EC131)
267: 0x082E [0x6F] WAIT_FRAME_DELAY: Yield until WaitTime reaches zero
268: 0x082F [0x76] CHECK_ENTITY_RENDER_FLAGS: Wait until Moogle (ID: 17744176/0x010EC130) Render.Flags0 and Render.Flags3 conditions are met
269: 0x0834 [0x2C] CREATE_SCHEDULER_TASK: Create scheduler "tlk0" with entities [Moogle (ID: 17744176/0x010EC130), Moogle (ID: 17744176/0x010EC130)]
270: 0x0841 [0x2B] Moogle (ID: 17744176/0x010EC130) [13380*]:
    → "I guess their terrible teeth and enchanting eyes do look alike..."
271: 0x0848 [0x23] WAIT_FOR_DIALOG_INTERACTION
272: 0x0849 [0x4A] Moogle (ID: 17744176/0x010EC130) looks at Spriggan Sifter (ID: 17744177/0x010EC131)
273: 0x0852 [0x6F] WAIT_FRAME_DELAY: Yield until WaitTime reaches zero
274: 0x0853 [0x76] CHECK_ENTITY_RENDER_FLAGS: Wait until Moogle (ID: 17744176/0x010EC130) Render.Flags0 and Render.Flags3 conditions are met
275: 0x0858 [0x2B] Moogle (ID: 17744176/0x010EC130) [13381*]:
    → "But the metal in their mitts and trinkets on their waists! Those are different, kupo!"
276: 0x085F [0x23] WAIT_FOR_DIALOG_INTERACTION
277: 0x0860 [0x2C] CREATE_SCHEDULER_TASK: Create scheduler "hap0" with entities [Moogle (ID: 17744176/0x010EC130), Moogle (ID: 17744176/0x010EC130)]
278: 0x086D [0x2B] Moogle (ID: 17744176/0x010EC130) [13382*]:
    → "Wonderful! We can cut down on costs and rake in the revenue! Vivacious vacations for all!"
279: 0x0874 [0x23] WAIT_FOR_DIALOG_INTERACTION
280: 0x0875 [0x2C] CREATE_SCHEDULER_TASK: Create scheduler "hap1" with entities [Moogle (ID: 17744176/0x010EC130), Moogle (ID: 17744176/0x010EC130)]
281: 0x0882 [0x4A] Moogle (ID: 17744176/0x010EC130) looks at LocalPlayer
282: 0x088B [0x52] END_LOAD_SCHEDULER: End scheduler "s626" with entities [EventEntity, EventEntity], work=639*
283: 0x089A [0x45] LOAD_SCHEDULED_TASK: Load scheduler "s627" with entities [EventEntity, EventEntity], work=[639*, 0*]
284: 0x08AB [0x1C] WAIT(20* ticks)
285: 0x08AE [0x6F] WAIT_FRAME_DELAY: Yield until WaitTime reaches zero
286: 0x08AF [0x76] CHECK_ENTITY_RENDER_FLAGS: Wait until Moogle (ID: 17744176/0x010EC130) Render.Flags0 and Render.Flags3 conditions are met
287: 0x08B4 [0x2C] CREATE_SCHEDULER_TASK: Create scheduler "tlk0" with entities [Moogle (ID: 17744176/0x010EC130), Moogle (ID: 17744176/0x010EC130)]
288: 0x08C1 [0x2B] Moogle (ID: 17744176/0x010EC130) [13383*]:
    → "A-ah! Forget my frivolous fettering."
289: 0x08C8 [0x23] WAIT_FOR_DIALOG_INTERACTION
290: 0x08C9 [0x1C] WAIT(30* ticks)
291: 0x08CC [0x52] END_LOAD_SCHEDULER: End scheduler "s627" with entities [EventEntity, EventEntity], work=639*
292: 0x08DB [0x45] LOAD_SCHEDULED_TASK: Load scheduler "s620" with entities [EventEntity, EventEntity], work=[639*, 0*]
293: 0x08EC [0x4A] Moogle (ID: 17744176/0x010EC130) looks at Spriggan Sifter (ID: 17744177/0x010EC131)
294: 0x08F5 [0x6F] WAIT_FRAME_DELAY: Yield until WaitTime reaches zero
295: 0x08F6 [0x76] CHECK_ENTITY_RENDER_FLAGS: Wait until Moogle (ID: 17744176/0x010EC130) Render.Flags0 and Render.Flags3 conditions are met
296: 0x08FB [0x2C] CREATE_SCHEDULER_TASK: Create scheduler "tlk0" with entities [Moogle (ID: 17744176/0x010EC130), Moogle (ID: 17744176/0x010EC130)]
297: 0x0908 [0x2B] Moogle (ID: 17744176/0x010EC130) [13384*]:
    → "But if we captured the cerulean creatures before, then how did they surreptitiously scuttle back?"
298: 0x090F [0x23] WAIT_FOR_DIALOG_INTERACTION
299: 0x0910 [0x4A] Spriggan Sifter (ID: 17744177/0x010EC131) looks at Moogle (ID: 17744176/0x010EC130)
300: 0x0919 [0x6F] WAIT_FRAME_DELAY: Yield until WaitTime reaches zero
301: 0x091A [0x76] CHECK_ENTITY_RENDER_FLAGS: Wait until Moogle (ID: 17744176/0x010EC130) Render.Flags0 and Render.Flags3 conditions are met
302: 0x091F [0x2B] Moogle (ID: 17744176/0x010EC130) [13385*]:
    → "Undeniably unimportant. What matters most is the moment!"
303: 0x0926 [0x23] WAIT_FOR_DIALOG_INTERACTION
304: 0x0927 [0x2C] CREATE_SCHEDULER_TASK: Create scheduler "tlk0" with entities [Moogle (ID: 17744176/0x010EC130), Moogle (ID: 17744176/0x010EC130)]
305: 0x0934 [0x2B] Moogle (ID: 17744176/0x010EC130) [13386*]:
    → "Oh ho? A covert communique from my cohort in charge of the stone shard storage."
306: 0x093B [0x23] WAIT_FOR_DIALOG_INTERACTION
307: 0x093C [0x2C] CREATE_SCHEDULER_TASK: Create scheduler "tlk1" with entities [Moogle (ID: 17744176/0x010EC130), Moogle (ID: 17744176/0x010EC130)]
308: 0x0949 [0x53] WAIT_SCHEDULER_TASK: Wait for scheduler "tlk1" with entities [Moogle (ID: 17744176/0x010EC130), Moogle (ID: 17744176/0x010EC130)]
309: 0x0956 [0x52] END_LOAD_SCHEDULER: End scheduler "s620" with entities [EventEntity, EventEntity], work=639*
310: 0x0965 [0x45] LOAD_SCHEDULED_TASK: Load scheduler "s621" with entities [EventEntity, EventEntity], work=[639*, 0*]
311: 0x0976 [0x1C] WAIT(20* ticks)
312: 0x0979 [0x03] Work_Zone_1700[3] = 2135*
313: 0x097E [0x7B] Moogle (ID: 17744176/0x010EC130) stops talking
314: 0x0983 [0x1C] WAIT(10* ticks)
315: 0x0986 [0x4A] Spriggan Sifter (ID: 17744177/0x010EC131) looks at LocalPlayer
316: 0x098F [0x29] REQ_SET_WAIT(priority=0x10, entity_id=Moogle (ID: 17744176/0x010EC130), tag_num=0x03)
317: 0x0996 [0x2C] CREATE_SCHEDULER_TASK: Create scheduler "tlk0" with entities [Moogle (ID: 17744176/0x010EC130), Moogle (ID: 17744176/0x010EC130)]
318: 0x09A3 [0x2B] Moogle (ID: 17744176/0x010EC130) [13387*]:
    → "Yes? Mm hmm... Mm hmm..."
319: 0x09AA [0x23] WAIT_FOR_DIALOG_INTERACTION
320: 0x09AB [0x1C] WAIT(60* ticks)
321: 0x09AE [0x5C] MUSIC_CONTROL: Set Idle (Day) music to song 136*
322: 0x09B2 [0x5C] MUSIC_CONTROL: Set Idle (Night) music to song 136*
323: 0x09B6 [0x9A] WAIT_MUSIC_SERVER()
324: 0x09B7 [0x52] END_LOAD_SCHEDULER: End scheduler "s621" with entities [EventEntity, EventEntity], work=639*
325: 0x09C6 [0x45] LOAD_SCHEDULED_TASK: Load scheduler "s612" with entities [EventEntity, EventEntity], work=[639*, 0*]
326: 0x09D7 [0x4E] SET_ENTITY_HIDE_FLAG: Hide Spriggan Sifter (ID: 17744177/0x010EC131)
327: 0x09DD [0x4E] SET_ENTITY_HIDE_FLAG: Hide Spriggan Crier (ID: 17744178/0x010EC132)
328: 0x09E3 [0x4E] SET_ENTITY_HIDE_FLAG: Hide Spriggan Graverobber (ID: 17744179/0x010EC133)
329: 0x09E9 [0x2C] CREATE_SCHEDULER_TASK: Create scheduler "hap0" with entities [Moogle (ID: 17744176/0x010EC130), Moogle (ID: 17744176/0x010EC130)]
330: 0x09F6 [0x2B] Moogle (ID: 17744176/0x010EC130) [13388*]:
    → "Altana kupo it all!"
331: 0x09FD [0x23] WAIT_FOR_DIALOG_INTERACTION
332: 0x09FE [0x2B] Moogle (ID: 17744176/0x010EC130) [13389*]:
    → "The ones we previously petrified have escaped, and they're traipsing outside town!"
333: 0x0A05 [0x23] WAIT_FOR_DIALOG_INTERACTION
334: 0x0A06 [0x2C] CREATE_SCHEDULER_TASK: Create scheduler "hap1" with entities [Moogle (ID: 17744176/0x010EC130), Moogle (ID: 17744176/0x010EC130)]
335: 0x0A13 [0x53] WAIT_SCHEDULER_TASK: Wait for scheduler "hap1" with entities [Moogle (ID: 17744176/0x010EC130), Moogle (ID: 17744176/0x010EC130)]
336: 0x0A20 [0x52] END_LOAD_SCHEDULER: End scheduler "s612" with entities [EventEntity, EventEntity], work=639*
337: 0x0A2F [0x45] LOAD_SCHEDULED_TASK: Load scheduler "s622" with entities [EventEntity, EventEntity], work=[639*, 0*]
338: 0x0A40 [0x45] LOAD_SCHEDULED_TASK: Load scheduler "boff" with entities [EventEntity, EventEntity], work=[639*, 0*]
339: 0x0A51 [0xA0] WAIT_LOAD_SCHEDULER_MAIN_ALT2: Wait for scheduler "boff" with entities [EventEntity, EventEntity], work=639*
340: 0x0A60 [0x2B] Moogle (ID: 17744176/0x010EC130) [13390*]:
    → "Then again, the clock was ticking on the enchantment expiring."
341: 0x0A67 [0x23] WAIT_FOR_DIALOG_INTERACTION
342: 0x0A68 [0x2B] Moogle (ID: 17744176/0x010EC130) [13391*]:
    → "...And now a nuanced notification from outside town? Oh, dear."
343: 0x0A6F [0x23] WAIT_FOR_DIALOG_INTERACTION
344: 0x0A70 [0x1C] WAIT(120* ticks)
345: 0x0A73 [0x52] END_LOAD_SCHEDULER: End scheduler "s622" with entities [EventEntity, EventEntity], work=639*
346: 0x0A82 [0x45] LOAD_SCHEDULED_TASK: Load scheduler "s623" with entities [EventEntity, EventEntity], work=[639*, 0*]
347: 0x0A93 [0x2C] CREATE_SCHEDULER_TASK: Create scheduler "hap0" with entities [Moogle (ID: 17744176/0x010EC130), Moogle (ID: 17744176/0x010EC130)]
348: 0x0AA0 [0x2B] Moogle (ID: 17744176/0x010EC130) [13392*]:
    → "Th-then it's true, kupo!"
349: 0x0AA7 [0x23] WAIT_FOR_DIALOG_INTERACTION
350: 0x0AA8 [0x2B] Moogle (ID: 17744176/0x010EC130) [13393*]:
    → "Great gasping Goblins! Those furry freaks are capturing crystals again!"
351: 0x0AAF [0x23] WAIT_FOR_DIALOG_INTERACTION
352: 0x0AB0 [0x2B] Moogle (ID: 17744176/0x010EC130) [13394*]:
    → "And their bespeckled brethren are helping, kupo!"
353: 0x0AB7 [0x23] WAIT_FOR_DIALOG_INTERACTION
354: 0x0AB8 [0x2C] CREATE_SCHEDULER_TASK: Create scheduler "hap1" with entities [Moogle (ID: 17744176/0x010EC130), Moogle (ID: 17744176/0x010EC130)]
355: 0x0AC5 [0x53] WAIT_SCHEDULER_TASK: Wait for scheduler "hap1" with entities [Moogle (ID: 17744176/0x010EC130), Moogle (ID: 17744176/0x010EC130)]
356: 0x0AD2 [0x4A] Moogle (ID: 17744176/0x010EC130) looks at LocalPlayer
357: 0x0ADB [0x52] END_LOAD_SCHEDULER: End scheduler "s623" with entities [EventEntity, EventEntity], work=639*
358: 0x0AEA [0x45] LOAD_SCHEDULED_TASK: Load scheduler "s615" with entities [EventEntity, EventEntity], work=[639*, 0*]
359: 0x0AFB [0x45] LOAD_SCHEDULED_TASK: Load scheduler "boff" with entities [EventEntity, EventEntity], work=[639*, 0*]
360: 0x0B0C [0xA0] WAIT_LOAD_SCHEDULER_MAIN_ALT2: Wait for scheduler "boff" with entities [EventEntity, EventEntity], work=639*
361: 0x0B1B [0x6F] WAIT_FRAME_DELAY: Yield until WaitTime reaches zero
362: 0x0B1C [0x76] CHECK_ENTITY_RENDER_FLAGS: Wait until Moogle (ID: 17744176/0x010EC130) Render.Flags0 and Render.Flags3 conditions are met
363: 0x0B21 [0x1C] WAIT(10* ticks)
364: 0x0B24 [0x2C] CREATE_SCHEDULER_TASK: Create scheduler "tlk0" with entities [Moogle (ID: 17744176/0x010EC130), Moogle (ID: 17744176/0x010EC130)]
365: 0x0B31 [0x2B] Moogle (ID: 17744176/0x010EC130) [13395*]:
    → "If they succeed in pilfering our precious prizes, Vana'diel will descend into a desolate decay!"
366: 0x0B38 [0x23] WAIT_FOR_DIALOG_INTERACTION
367: 0x0B39 [0x2C] CREATE_SCHEDULER_TASK: Create scheduler "gak0" with entities [Moogle (ID: 17744176/0x010EC130), Moogle (ID: 17744176/0x010EC130)]
368: 0x0B46 [0x2B] Moogle (ID: 17744176/0x010EC130) [13396*]:
    → "And worse, snafu will surely stain the M.H.M.U.'s resplendent reputation!"
369: 0x0B4D [0x23] WAIT_FOR_DIALOG_INTERACTION
370: 0x0B4E [0x53] WAIT_SCHEDULER_TASK: Wait for scheduler "gak0" with entities [Moogle (ID: 17744176/0x010EC130), Moogle (ID: 17744176/0x010EC130)]
371: 0x0B5B [0x2C] CREATE_SCHEDULER_TASK: Create scheduler "gak1" with entities [Moogle (ID: 17744176/0x010EC130), Moogle (ID: 17744176/0x010EC130)]
372: 0x0B68 [0x53] WAIT_SCHEDULER_TASK: Wait for scheduler "gak1" with entities [Moogle (ID: 17744176/0x010EC130), Moogle (ID: 17744176/0x010EC130)]
373: 0x0B75 [0x52] END_LOAD_SCHEDULER: End scheduler "s615" with entities [EventEntity, EventEntity], work=639*
374: 0x0B84 [0x45] LOAD_SCHEDULED_TASK: Load scheduler "s616" with entities [EventEntity, EventEntity], work=[639*, 0*]
375: 0x0B95 [0x4E] SET_ENTITY_HIDE_FLAG: Show Spriggan Sifter (ID: 17744177/0x010EC131)
376: 0x0B9B [0x4E] SET_ENTITY_HIDE_FLAG: Show Spriggan Crier (ID: 17744178/0x010EC132)
377: 0x0BA1 [0x4E] SET_ENTITY_HIDE_FLAG: Show Spriggan Graverobber (ID: 17744179/0x010EC133)
378: 0x0BA7 [0x2C] CREATE_SCHEDULER_TASK: Create scheduler "exp0" with entities [Moogle (ID: 17744176/0x010EC130), Moogle (ID: 17744176/0x010EC130)]
379: 0x0BB4 [0x2B] Moogle (ID: 17744176/0x010EC130) [13397*]:
    → "Most excellent explorer, please travel outside town and round up these recidivist reprobates!"
380: 0x0BBB [0x23] WAIT_FOR_DIALOG_INTERACTION
381: 0x0BBC [0x2B] Moogle (ID: 17744176/0x010EC130) [13398*]:
    → "A mixture of moogle magic will enable you to ensconce the evildoers by subjugating them into stone shards."
382: 0x0BC3 [0x23] WAIT_FOR_DIALOG_INTERACTION
383: 0x0BC4 [0x36] SET_ENTITY_EVENT_POSITION(pos_x=93.800*, pos_z=-10.400*, pos_y=8.250*)
384: 0x0BCB [0xBB] LOAD_EVENT_SCHEDULER_ALT: Load scheduler "main" with entities [EventEntity, EventEntity], work=[22*, 0*]
385: 0x0BDC [0x2C] CREATE_SCHEDULER_TASK: Create scheduler "hap0" with entities [Moogle (ID: 17744176/0x010EC130), Moogle (ID: 17744176/0x010EC130)]
386: 0x0BE9 [0x2B] Moogle (ID: 17744176/0x010EC130) [13399*]:
    → "Of course, I'll reward your righteousness with the requisite remuneration, kupo."
387: 0x0BF0 [0x23] WAIT_FOR_DIALOG_INTERACTION
388: 0x0BF1 [0xBC] WAIT_LOAD_SCHEDULER_ALT2: Wait for scheduler "main" with entities [EventEntity, EventEntity], work=22*
389: 0x0C00 [0x1C] WAIT(10* ticks)
390: 0x0C03 [0x52] END_LOAD_SCHEDULER: End scheduler "s616" with entities [EventEntity, EventEntity], work=639*
391: 0x0C12 [0x02] IF !(LocalPlayer->Race == 5*) GOTO 0x0C2E
392: 0x0C1A [0x45] LOAD_SCHEDULED_TASK: Load scheduler "s614" with entities [EventEntity, EventEntity], work=[639*, 0*]
393: 0x0C2B [0x01] GOTO 0x0C5B
394: 0x0C2E [0x02] IF !(LocalPlayer->Race == 6*) GOTO 0x0C4A
395: 0x0C36 [0x45] LOAD_SCHEDULED_TASK: Load scheduler "s614" with entities [EventEntity, EventEntity], work=[639*, 0*]
396: 0x0C47 [0x01] GOTO 0x0C5B
397: 0x0C4A [0x45] LOAD_SCHEDULED_TASK: Load scheduler "s613" with entities [EventEntity, EventEntity], work=[639*, 0*]

SUBROUTINE_0C5B:
398: 0x0C5B [0x2C] CREATE_SCHEDULER_TASK: Create scheduler "exp0" with entities [Moogle (ID: 17744176/0x010EC130), Moogle (ID: 17744176/0x010EC130)]
399: 0x0C68 [0x2B] Moogle (ID: 17744176/0x010EC130) [13400*]:
    → "But since we have such a short supply of stuff, I have to let Lady Luck look upon you with...a lottery!"
400: 0x0C6F [0x23] WAIT_FOR_DIALOG_INTERACTION
401: 0x0C70 [0x2B] Moogle (ID: 17744176/0x010EC130) [13401*]:
    → "The most prestigious prizes are awarded in the order of mauve, vermilion, and chartruese stone shards."
402: 0x0C77 [0x23] WAIT_FOR_DIALOG_INTERACTION
403: 0x0C78 [0x2B] Moogle (ID: 17744176/0x010EC130) [13402*]:
    → "The goods we've gathered can be chosen from a long list that lengthens depending on your success."
404: 0x0C7F [0x23] WAIT_FOR_DIALOG_INTERACTION
405: 0x0C80 [0x2B] Moogle (ID: 17744176/0x010EC130) [13403*]:
    → "Simply stated, if you procure first prize, you can select spoils from lower levels should you deign to do so. And so on."
406: 0x0C87 [0x23] WAIT_FOR_DIALOG_INTERACTION
407: 0x0C88 [0x7B] Moogle (ID: 17744176/0x010EC130) stops talking
408: 0x0C8D [0x02] IF !(LocalPlayer->Race == 5*) GOTO 0x0CA7
409: 0x0C95 [0x52] END_LOAD_SCHEDULER: End scheduler "s614" with entities [EventEntity, EventEntity], work=639*
410: 0x0CA4 [0x01] GOTO 0x0CD0
411: 0x0CA7 [0x02] IF !(LocalPlayer->Race == 6*) GOTO 0x0CC1
412: 0x0CAF [0x52] END_LOAD_SCHEDULER: End scheduler "s614" with entities [EventEntity, EventEntity], work=639*
413: 0x0CBE [0x01] GOTO 0x0CD0
414: 0x0CC1 [0x52] END_LOAD_SCHEDULER: End scheduler "s613" with entities [EventEntity, EventEntity], work=639*

SUBROUTINE_0CD0:
415: 0x0CD0 [0x45] LOAD_SCHEDULED_TASK: Load scheduler "s618" with entities [EventEntity, EventEntity], work=[639*, 0*]
416: 0x0CE1 [0x2B] Moogle (ID: 17744176/0x010EC130) [13404*]:
    → "This is a dire dilemma, so I shall send you off to the outskirts immediately. Are you ready, kupo?"
417: 0x0CE8 [0x23] WAIT_FOR_DIALOG_INTERACTION
418: 0x0CE9 [0x2C] CREATE_SCHEDULER_TASK: Create scheduler "exp1" with entities [Moogle (ID: 17744176/0x010EC130), Moogle (ID: 17744176/0x010EC130)]
419: 0x0CF6 [0x53] WAIT_SCHEDULER_TASK: Wait for scheduler "exp1" with entities [Moogle (ID: 17744176/0x010EC130), Moogle (ID: 17744176/0x010EC130)]
420: 0x0D03 [0x24] CREATE_DIALOG(message_id=13405*, default_option=0*, option_flags=0*)
    → "Be teleported outside of town? [You bet!/I don't think so.]"
421: 0x0D0A [0x25] WAIT_DIALOG_SELECT()
422: 0x0D0B [0x02] IF !(Work_Zone[0] == 0*) GOTO 0x0D5F
423: 0x0D13 [0x52] END_LOAD_SCHEDULER: End scheduler "s618" with entities [EventEntity, EventEntity], work=639*
424: 0x0D22 [0x45] LOAD_SCHEDULED_TASK: Load scheduler "s640" with entities [EventEntity, EventEntity], work=[639*, 0*]
425: 0x0D33 [0x2C] CREATE_SCHEDULER_TASK: Create scheduler "job0" with entities [Moogle (ID: 17744176/0x010EC130), Moogle (ID: 17744176/0x010EC130)]
426: 0x0D40 [0x2B] Moogle (ID: 17744176/0x010EC130) [13406*]:
    → "Ready and raring to go! The M.H.M.U.--and all Vana'diel--appreciates your assistance!"
427: 0x0D47 [0x23] WAIT_FOR_DIALOG_INTERACTION
428: 0x0D48 [0x03] Work_Zone[1] = 0*
429: 0x0D4D [0x73] Moogle (ID: 17744176/0x010EC130) casts magic 122* on LocalPlayer
430: 0x0D58 [0x1C] WAIT(270* ticks)
431: 0x0D5B [0x30] SET_UCOFF_CONTINUE_ZERO()
432: 0x0D5C [0x01] GOTO 0x0D91
433: 0x0D5F [0x02] IF !(Work_Zone[0] == 1*) GOTO 0x0D91
434: 0x0D67 [0x2C] CREATE_SCHEDULER_TASK: Create scheduler "exp0" with entities [Moogle (ID: 17744176/0x010EC130), Moogle (ID: 17744176/0x010EC130)]
435: 0x0D74 [0x2B] Moogle (ID: 17744176/0x010EC130) [13407*]:
    → "O-oh dear, kupo... But we really require reinforcements! Please reconsider, kupo!"
436: 0x0D7B [0x23] WAIT_FOR_DIALOG_INTERACTION
437: 0x0D7C [0x2C] CREATE_SCHEDULER_TASK: Create scheduler "exp1" with entities [Moogle (ID: 17744176/0x010EC130), Moogle (ID: 17744176/0x010EC130)]
438: 0x0D89 [0x03] Work_Zone[1] = 1*
439: 0x0D8E [0x01] GOTO 0x0D91

SUBROUTINE_0D91:
440: 0x0D91 [0x45] LOAD_SCHEDULED_TASK: Load scheduler "fdo1" with entities [LocalPlayer, LocalPlayer], work=[200*, 0*]
441: 0x0DA2 [0x55] WAIT_LOAD_SCHEDULER: Wait for scheduler "fdo1" with entities [LocalPlayer, LocalPlayer], work=200*
442: 0x0DB1 [0x02] IF !(Work_Zone[1] == 0*) GOTO 0x0DE3
443: 0x0DB9 [0x5C] MUSIC_CONTROL: Set Idle (Day) music to song 152*
444: 0x0DBD [0x5C] MUSIC_CONTROL: Set Idle (Night) music to song 152*
445: 0x0DC1 [0x52] END_LOAD_SCHEDULER: End scheduler "s618" with entities [EventEntity, EventEntity], work=639*
446: 0x0DD0 [0x46] CAMERA_CONTROL: Restore default settings
447: 0x0DD2 [0x45] LOAD_SCHEDULED_TASK: Load scheduler "fdi1" with entities [LocalPlayer, LocalPlayer], work=[200*, 0*]
448: 0x0DE3 [0x21] END_EVENT
449: 0x0DE4 [0x00] END_REQSTACK()
```

### Event 444

#### Metadata

| Field        | Value      |
|--------------|------------|
| Entrypoint   | 0x0DE5     |
| Data Size    | 2695 bytes |
| Instructions | 372        |

```
      00 01 02 03 04 05 06 07  08 09 0A 0B 0C 0D 0E 0F
      -- -- -- -- -- -- -- --  -- -- -- -- -- -- -- --
0DE0:                41 01 80  5E 80 02 10 05 00 41 0D       A..^.....A.
0DF0: 80 02 80 02 10 06 00 41  11 80 5F 80 02 10 07 00  .......A.._.....
0E00: 03 08 00 03 10 03 11 00  05 10 02 04 10 5B 80 00  .............[..
0E10: 1F 0E 42 4A 30 C1 0E 01  F0 FF FF 7F 01 27 13 4A  ..BJ0........'.J
0E20: 30 C1 0E 01 F0 FF FF 7F  6F 76 30 C1 0E 01 02 08  0.......ov0.....
0E30: 00 01 80 01 6D 0E 03 02  10 5B 80 2C 30 C1 0E 01  ....m....[.,0...
0E40: 30 C1 0E 01 65 78 70 30  2B 30 C1 0E 01 60 80 23  0...exp0+0...`.#
0E50: 2C 30 C1 0E 01 30 C1 0E  01 65 78 70 31 53 30 C1  ,0...0...exp1S0.
0E60: 0E 01 30 C1 0E 01 65 78  70 31 01 A7 11 02 11 00  ..0...exp1......
0E70: 5B 80 00 A7 0E 2C 30 C1  0E 01 30 C1 0E 01 65 78  [....,0...0...ex
0E80: 70 30 2B 30 C1 0E 01 61  80 23 2B 30 C1 0E 01 62  p0+0...a.#+0...b
0E90: 80 23 2B 30 C1 0E 01 63  80 23 2C 30 C1 0E 01 30  .#+0...c.#,0...0
0EA0: C1 0E 01 65 78 70 31 2C  30 C1 0E 01 30 C1 0E 01  ...exp1,0...0...
0EB0: 74 6C 6B 30 03 02 10 05  00 03 03 10 06 00 03 04  tlk0............
0EC0: 10 07 00 2B 30 C1 0E 01  64 80 23 2C 30 C1 0E 01  ...+0...d.#,0...
0ED0: 30 C1 0E 01 74 6C 6B 31  06 0D 00 06 0E 00 06 09  0...tlk1........
0EE0: 00 06 0A 00 06 0F 00 06  13 00 03 02 10 05 00 03  ................
0EF0: 03 10 06 00 03 04 10 07  00 24 65 80 09 00 01 80  .........$e.....
0F00: 25 02 00 10 01 80 00 48  16 02 05 00 01 80 05 44  %......H.......D
0F10: 0F 2C 30 C1 0E 01 30 C1  0E 01 65 78 70 30 03 05  .,0...0...exp0..
0F20: 10 66 80 2B 30 C1 0E 01  67 80 23 2C 30 C1 0E 01  .f.+0...g.#,0...
0F30: 30 C1 0E 01 65 78 70 31  40 01 80 66 80 01 10 01  0...exp1@..f....
0F40: 80 01 45 16 42 40 1B 80  68 80 01 10 01 80 03 09  ..E.B@..h.......
0F50: 00 00 10 40 01 80 66 80  01 10 66 80 43 00 43 01  ...@..f...f.C.C.
0F60: 41 01 80 5E 80 02 10 05  00 41 0D 80 02 80 02 10  A..^.....A......
0F70: 06 00 41 11 80 5F 80 02  10 07 00 03 08 00 03 10  ..A.._..........
0F80: 03 12 00 04 10 02 12 00  5B 80 04 B1 0F 02 13 00  ........[.......
0F90: 01 80 00 B1 0F 03 13 00  5B 80 45 00 80 F0 FF FF  ........[.E.....
0FA0: 7F F0 FF FF 7F 73 30 33  33 01 80 1C 0F 80 48 69  .....s033.....Hi
0FB0: 80 2C 30 C1 0E 01 30 C1  0E 01 74 6C 6B 30 02 0E  .,0...0...tlk0..
0FC0: 00 01 80 00 CE 0F 2B 30  C1 0E 01 6A 80 23 2B 30  ......+0...j.#+0
0FD0: C1 0E 01 6B 80 23 2C 30  C1 0E 01 30 C1 0E 01 74  ...k.#,0...0...t
0FE0: 6C 6B 31 02 0E 00 01 80  00 EE 0F 1C 1C 80 02 08  lk1.............
0FF0: 00 68 80 00 1B 10 2C 30  C1 0E 01 30 C1 0E 01 74  .h....,0...0...t
1000: 6C 6B 30 2B 30 C1 0E 01  6C 80 23 2C 30 C1 0E 01  lk0+0...l.#,0...
1010: 30 C1 0E 01 74 6C 6B 31  01 74 11 02 08 00 5B 80  0...tlk1.t....[.
1020: 80 50 10 2C 30 C1 0E 01  30 C1 0E 01 68 61 70 30  .P.,0...0...hap0
1030: 45 00 80 F0 FF FF 7F F0  FF FF 7F 66 61 6E 31 01  E..........fan1.
1040: 80 03 07 17 6D 80 27 10  31 C1 0E 01 05 01 BA 10  ....m.'.1.......
1050: 02 08 00 66 80 80 85 10  2C 30 C1 0E 01 30 C1 0E  ...f....,0...0..
1060: 01 68 61 70 30 45 00 80  F0 FF FF 7F F0 FF FF 7F  .hap0E..........
1070: 66 61 6E 33 01 80 03 07  17 6E 80 27 10 31 C1 0E  fan3.....n.'.1..
1080: 01 05 01 BA 10 02 08 00  1B 80 80 BA 10 2C 30 C1  .............,0.
1090: 0E 01 30 C1 0E 01 68 61  70 30 45 00 80 F0 FF FF  ..0...hap0E.....
10A0: 7F F0 FF FF 7F 66 61 6E  34 01 80 03 07 17 45 80  .....fan4.....E.
10B0: 27 10 31 C1 0E 01 05 01  BA 10 03 02 10 08 00 2B  '.1............+
10C0: 30 C1 0E 01 6F 80 23 02  08 00 5B 80 80 F2 10 2A  0...o.#...[....*
10D0: 10 31 C1 0E 01 2C 30 C1  0E 01 30 C1 0E 01 68 61  .1...,0...0...ha
10E0: 70 31 53 30 C1 0E 01 30  C1 0E 01 68 61 70 31 01  p1S0...0...hap1.
10F0: 48 11 02 08 00 66 80 80  1D 11 2A 10 31 C1 0E 01  H....f....*.1...
1100: 2C 30 C1 0E 01 30 C1 0E  01 68 61 70 31 53 30 C1  ,0...0...hap1S0.
1110: 0E 01 30 C1 0E 01 68 61  70 31 01 48 11 02 08 00  ..0...hap1.H....
1120: 1B 80 80 48 11 2A 10 31  C1 0E 01 2C 30 C1 0E 01  ...H.*.1...,0...
1130: 30 C1 0E 01 68 61 70 31  53 30 C1 0E 01 30 C1 0E  0...hap1S0...0..
1140: 01 68 61 70 31 01 48 11  02 12 00 66 80 00 74 11  .hap1.H....f..t.
1150: 02 13 00 5B 80 00 74 11  03 13 00 01 80 45 00 80  ...[..t......E..
1160: F0 FF FF 7F F0 FF FF 7F  73 30 33 34 01 80 1C 0F  ........s034....
1170: 80 48 70 80 03 02 10 01  80 02 0E 00 01 80 00 A6  .Hp.............
1180: 11 2C 30 C1 0E 01 30 C1  0E 01 65 78 70 30 2B 30  .,0...0...exp0+0
1190: C1 0E 01 60 80 23 2C 30  C1 0E 01 30 C1 0E 01 65  ...`.#,0...0...e
11A0: 78 70 31 05 0E 00 2E 9D  00 A3 1A 03 10 01 80 9D  xp1.............
11B0: 00 A3 1A 04 10 5B 80 9D  00 A3 1A 05 10 66 80 9D  .....[.......f..
11C0: 00 A3 1A 06 10 1B 80 9D  00 A3 1A 07 10 68 80 9D  .............h..
11D0: 00 A3 1A 08 10 0C 80 9D  00 A3 1A 09 10 10 80 9D  ................
11E0: 00 A3 1A 00 17 26 80 9D  00 A3 1A 01 17 71 80 9D  .....&.......q..
11F0: 00 A3 1A 02 17 5E 80 02  08 00 5B 80 80 07 12 03  .....^....[.....
1200: 14 00 01 80 01 37 12 02  08 00 66 80 80 17 12 03  .....7....f.....
1210: 14 00 1B 80 01 37 12 02  08 00 1B 80 80 27 12 03  .....7.......'..
1220: 14 00 0E 80 01 37 12 02  08 00 68 80 80 37 12 03  .....7....h..7..
1230: 14 00 72 80 01 37 12 02  0D 00 08 00 01 47 12 06  ..r..7.......G..
1240: 0A 00 03 0D 00 08 00 24  73 80 0A 00 14 00 25 02  .......$s.....%.
1250: 00 10 0D 80 00 86 12 2C  30 C1 0E 01 30 C1 0E 01  .......,0...0...
1260: 65 78 70 30 2B 30 C1 0E  01 74 80 23 2C 30 C1 0E  exp0+0...t.#,0..
1270: 01 30 C1 0E 01 65 78 70  31 40 01 80 66 80 01 10  .0...exp1@..f...
1280: 01 80 21 01 8B 12 03 0A  00 00 10 06 10 00 05 0C  ..!.............
1290: 00 3E 0F 00 0A 00 9E 12  05 10 00 06 0C 00 9D 00  .>..............
12A0: A3 1A 03 17 0A 00 02 10  00 01 80 00 E3 12 93 03  ................
12B0: 17 2C 30 C1 0E 01 30 C1  0E 01 65 78 70 30 2B 30  .,0...0...exp0+0
12C0: C1 0E 01 75 80 23 2C 30  C1 0E 01 30 C1 0E 01 65  ...u.#,0...0...e
12D0: 78 70 31 53 30 C1 0E 01  30 C1 0E 01 65 78 70 31  xp1S0...0...exp1
12E0: 93 01 80 24 76 80 0C 00  01 80 25 02 00 10 01 80  ...$v.....%.....
12F0: 00 37 16 42 40 01 80 66  80 01 10 1B 80 40 0C 80  .7.B@..f.....@..
1300: 71 80 01 10 0A 00 43 00  43 01 02 02 10 77 80 00  q.....C.C....w..
1310: 1F 13 40 01 80 66 80 01  10 01 80 21 01 34 16 02  ..@..f.....!.4..
1320: 03 10 5B 80 00 0E 16 45  00 80 F0 FF FF 7F F0 FF  ..[....E........
1330: FF 7F 66 64 6F 31 01 80  55 00 80 F0 FF FF 7F F0  ..fdo1..U.......
1340: FF FF 7F 66 64 6F 31 46  01 38 02 80 2F 00 34 C1  ...fdo1F.8../.4.
1350: 0E 01 2F 00 35 C1 0E 01  4E 00 34 C1 0E 01 4E 00  ../.5...N.4...N.
1360: 35 C1 0E 01 92 01 30 C1  0E 01 92 01 31 C1 0E 01  5.....0.....1...
1370: 92 01 32 C1 0E 01 92 01  33 C1 0E 01 94 01 30 C1  ..2.....3.....0.
1380: 0E 01 94 01 31 C1 0E 01  94 01 32 C1 0E 01 94 01  ....1.....2.....
1390: 33 C1 0E 01 94 01 F0 FF  FF 7F BA F0 FF FF 7F 08  3...............
13A0: 80 09 80 05 80 3E 80 4A  F0 FF FF 7F 30 C1 0E 01  .....>.J....0...
13B0: 4A 30 C1 0E 01 F0 FF FF  7F 4A 31 C1 0E 01 F0 FF  J0.......J1.....
13C0: FF 7F 4A 32 C1 0E 01 F0  FF FF 7F 4A 33 C1 0E 01  ..J2.......J3...
13D0: F0 FF FF 7F 6F 76 F0 FF  FF 7F 6F 76 30 C1 0E 01  ....ov....ov0...
13E0: 6F 76 31 C1 0E 01 6F 76  32 C1 0E 01 6F 76 33 C1  ov1...ov2...ov3.
13F0: 0E 01 80 F0 FF FF 7F 80  30 C1 0E 01 80 31 C1 0E  ........0....1..
1400: 01 80 32 C1 0E 01 80 33  C1 0E 01 5C 00 07 80 5C  ..2....3...\...\
1410: 01 07 80 9A 02 87 7F 0C  80 80 30 14 45 0A 80 F8  ..........0.E...
1420: FF FF 7F F8 FF FF 7F 73  36 33 34 01 80 01 5D 14  .......s634...].
1430: 02 87 7F 10 80 80 4C 14  45 0A 80 F8 FF FF 7F F8  ......L.E.......
1440: FF FF 7F 73 36 33 34 01  80 01 5D 14 45 0A 80 F8  ...s634...].E...
1450: FF FF 7F F8 FF FF 7F 73  36 33 33 01 80 45 00 80  .......s633..E..
1460: F0 FF FF 7F F0 FF FF 7F  66 64 69 31 01 80 1C 1C  ........fdi1....
1470: 80 2C 30 C1 0E 01 30 C1  0E 01 74 6C 6B 30 2B 30  .,0...0...tlk0+0
1480: C1 0E 01 78 80 23 2C 30  C1 0E 01 30 C1 0E 01 65  ...x.#,0...0...e
1490: 78 70 30 2B 30 C1 0E 01  79 80 23 2C 30 C1 0E 01  xp0+0...y.#,0...
14A0: 30 C1 0E 01 65 78 70 31  02 87 7F 0C 80 80 C2 14  0...exp1........
14B0: 52 0A 80 F8 FF FF 7F F8  FF FF 7F 73 36 33 34 01  R..........s634.
14C0: EB 14 02 87 7F 10 80 80  DC 14 52 0A 80 F8 FF FF  ..........R.....
14D0: 7F F8 FF FF 7F 73 36 33  34 01 EB 14 52 0A 80 F8  .....s634...R...
14E0: FF FF 7F F8 FF FF 7F 73  36 33 33 45 0A 80 F8 FF  .......s633E....
14F0: FF 7F F8 FF FF 7F 73 36  33 35 01 80 9F 13 80 F8  ......s635......
1500: FF FF 7F F8 FF FF 7F 6D  61 69 6E 01 80 33 01 A4  .......main..3..
1510: 01 36 14 80 15 80 16 80  59 05 34 C1 0E 01 01 59  .6......Y.4....Y
1520: 05 35 C1 0E 01 01 03 01  00 14 80 03 02 00 15 80  .5..............
1530: 08 01 00 17 80 08 02 00  18 80 BA 34 C1 0E 01 01  ...........4....
1540: 00 02 00 16 80 01 80 07  01 00 00 80 07 02 00 19  ................
1550: 80 BA 35 C1 0E 01 01 00  02 00 16 80 01 80 1C 45  ..5............E
1560: 80 62 1B 80 F8 FF FF 7F  F8 FF FF 7F 6D 61 69 6E  .b..........main
1570: 01 80 62 1B 80 34 C1 0E  01 34 C1 0E 01 6D 61 69  ..b..4...4...mai
1580: 6E 01 80 62 1B 80 35 C1  0E 01 35 C1 0E 01 6D 61  n..b..5...5...ma
1590: 69 6E 01 80 1C 45 80 40  01 80 66 80 01 10 68 80  in...E.@..f...h.
15A0: 45 00 80 F0 FF FF 7F F0  FF FF 7F 66 64 6F 31 01  E..........fdo1.
15B0: 80 55 00 80 F0 FF FF 7F  F0 FF FF 7F 66 64 6F 31  .U..........fdo1
15C0: 9F 13 80 F8 FF FF 7F F8  FF FF 7F 6B 69 6C 6C 01  ...........kill.
15D0: 80 A2 13 80 F8 FF FF 7F  F8 FF FF 7F 6B 69 6C 6C  ............kill
15E0: 1C 0F 80 5C 00 5D 80 5C  01 5D 80 52 0A 80 F8 FF  ...\.].\.].R....
15F0: FF 7F F8 FF FF 7F 73 36  33 32 46 00 45 00 80 F0  ......s632F.E...
1600: FF FF 7F F0 FF FF 7F 66  64 69 31 01 80 21 3C 0F  .......fdi1..!<.
1610: 00 0A 00 5B 80 2E 41 01  80 5E 80 02 10 05 00 41  ...[..A..^.....A
1620: 0D 80 02 80 02 10 06 00  41 11 80 5F 80 02 10 07  ........A.._....
1630: 00 01 EA 0E 01 45 16 02  00 10 5B 80 00 45 16 01  .....E....[..E..
1640: 37 12 01 45 16 01 6A 18  02 00 10 5B 80 00 9B 16  7..E..j....[....
1650: 02 06 00 01 80 05 8B 16  2C 30 C1 0E 01 30 C1 0E  ........,0...0..
1660: 01 65 78 70 30 03 05 10  5B 80 2B 30 C1 0E 01 67  .exp0...[.+0...g
1670: 80 23 2C 30 C1 0E 01 30  C1 0E 01 65 78 70 31 40  .#,0...0...exp1@
1680: 01 80 66 80 01 10 01 80  01 98 16 42 40 1B 80 68  ..f........B@..h
1690: 80 01 10 5B 80 01 4E 0F  01 6A 18 02 00 10 66 80  ...[..N..j....f.
16A0: 00 EE 16 02 07 00 01 80  05 DE 16 2C 30 C1 0E 01  ...........,0...
16B0: 30 C1 0E 01 65 78 70 30  03 05 10 01 80 2B 30 C1  0...exp0.....+0.
16C0: 0E 01 67 80 23 2C 30 C1  0E 01 30 C1 0E 01 65 78  ..g.#,0...0...ex
16D0: 70 31 40 01 80 66 80 01  10 01 80 01 EB 16 42 40  p1@..f........B@
16E0: 1B 80 68 80 01 10 66 80  01 4E 0F 01 6A 18 02 00  ..h...f..N..j...
16F0: 10 1B 80 00 0C 18 06 0A  00 9D 00 A3 1A 03 10 01  ................
1700: 80 9D 00 A3 1A 04 10 5B  80 9D 00 A3 1A 05 10 66  .......[.......f
1710: 80 9D 00 A3 1A 06 10 1B  80 9D 00 A3 1A 07 10 68  ...............h
1720: 80 9D 00 A3 1A 08 10 0C  80 9D 00 A3 1A 09 10 10  ................
1730: 80 9D 00 A3 1A 00 17 26  80 9D 00 A3 1A 01 17 71  .......&.......q
1740: 80 9D 00 A3 1A 02 17 5E  80 24 7A 80 0A 00 01 80  .......^.$z.....
1750: 25 02 00 10 01 80 00 66  17 03 14 00 7B 80 03 0A  %......f....{...
1760: 00 00 10 01 B3 17 02 00  10 5B 80 00 7B 17 03 14  .........[..{...
1770: 00 7C 80 03 0A 00 00 10  01 B3 17 02 00 10 66 80  .|............f.
1780: 00 90 17 03 14 00 7D 80  03 0A 00 00 10 01 B3 17  ......}.........
1790: 02 00 10 1B 80 00 A5 17  03 14 00 72 80 03 0A 00  ...........r....
17A0: 00 10 01 B3 17 02 00 10  68 80 00 B3 17 01 EA 0E  ........h.......
17B0: 01 B3 17 06 0B 00 03 02  10 5B 80 24 73 80 0B 00  .........[.$s...
17C0: 14 00 25 02 00 10 0D 80  00 D1 17 01 F9 16 01 E1  ..%.............
17D0: 17 03 0B 00 00 10 9D 00  A3 1A 03 17 0B 00 93 03  ................
17E0: 17 2C 30 C1 0E 01 30 C1  0E 01 65 78 70 30 2B 30  .,0...0...exp0+0
17F0: C1 0E 01 7E 80 23 2C 30  C1 0E 01 30 C1 0E 01 65  ...~.#,0...0...e
1800: 78 70 31 93 01 80 01 B6  17 01 6A 18 02 00 10 68  xp1.......j....h
1810: 80 00 56 18 42 2C 30 C1  0E 01 30 C1 0E 01 6A 6F  ..V.B,0...0...jo
1820: 62 30 2B 30 C1 0E 01 58  80 23 40 01 80 66 80 01  b0+0...X.#@..f..
1830: 10 5B 80 73 59 80 30 C1  0E 01 F0 FF FF 7F 1C 5A  .[.sY.0........Z
1840: 80 45 00 80 F0 FF FF 7F  F0 FF FF 7F 66 64 6F 31  .E..........fdo1
1850: 01 80 30 01 6A 18 02 00  10 0C 80 00 6A 18 40 01  ..0.j.......j.@.
1860: 80 66 80 01 10 01 80 01  6A 18 21 00              .f......j.!.    
```

#### Opcodes

```
  0: 0x0DE5 [0x41] ExtData[1]->WorkLocal[5] = Work_Zone[2] (bits 0*-9*)
  1: 0x0DEE [0x41] ExtData[1]->WorkLocal[6] = Work_Zone[2] (bits 10*-19*)
  2: 0x0DF7 [0x41] ExtData[1]->WorkLocal[7] = Work_Zone[2] (bits 20*-29*)
  3: 0x0E00 [0x03] ExtData[1]->WorkLocal[8] = Work_Zone[3]
  4: 0x0E05 [0x03] ExtData[1]->WorkLocal[17] = Work_Zone[5]
  5: 0x0E0A [0x02] IF !(Work_Zone[4] == 1*) GOTO 0x0E1F
  6: 0x0E12 [0x42] SET_CLI_EVENT_CANCEL_DATA()
  7: 0x0E13 [0x4A] Moogle (ID: 17744176/0x010EC130) looks at LocalPlayer
  8: 0x0E1C [0x01] GOTO 0x1327
  9: 0x0E1F [0x4A] Moogle (ID: 17744176/0x010EC130) looks at LocalPlayer
 10: 0x0E28 [0x6F] WAIT_FRAME_DELAY: Yield until WaitTime reaches zero
 11: 0x0E29 [0x76] CHECK_ENTITY_RENDER_FLAGS: Wait until Moogle (ID: 17744176/0x010EC130) Render.Flags0 and Render.Flags3 conditions are met
 12: 0x0E2E [0x02] IF !(ExtData[1]->WorkLocal[8] == 0*) GOTO 0x0E6D
 13: 0x0E36 [0x03] Work_Zone[2] = 1*
 14: 0x0E3B [0x2C] CREATE_SCHEDULER_TASK: Create scheduler "exp0" with entities [Moogle (ID: 17744176/0x010EC130), Moogle (ID: 17744176/0x010EC130)]
 15: 0x0E48 [0x2B] Moogle (ID: 17744176/0x010EC130) [13420*]:
    → "Select your prize from the long list I'm about to lay upon you, kupo!"
 16: 0x0E4F [0x23] WAIT_FOR_DIALOG_INTERACTION
 17: 0x0E50 [0x2C] CREATE_SCHEDULER_TASK: Create scheduler "exp1" with entities [Moogle (ID: 17744176/0x010EC130), Moogle (ID: 17744176/0x010EC130)]
 18: 0x0E5D [0x53] WAIT_SCHEDULER_TASK: Wait for scheduler "exp1" with entities [Moogle (ID: 17744176/0x010EC130), Moogle (ID: 17744176/0x010EC130)]
 19: 0x0E6A [0x01] GOTO 0x11A7
 20: 0x0E6D [0x02] IF !(ExtData[1]->WorkLocal[17] == 1*) GOTO 0x0EA7
 21: 0x0E75 [0x2C] CREATE_SCHEDULER_TASK: Create scheduler "exp0" with entities [Moogle (ID: 17744176/0x010EC130), Moogle (ID: 17744176/0x010EC130)]
 22: 0x0E82 [0x2B] Moogle (ID: 17744176/0x010EC130) [13411*]:
    → "Altana above, kupo!"
 23: 0x0E89 [0x23] WAIT_FOR_DIALOG_INTERACTION
 24: 0x0E8A [0x2B] Moogle (ID: 17744176/0x010EC130) [13412*]:
    → "Congratulations!"
 25: 0x0E91 [0x23] WAIT_FOR_DIALOG_INTERACTION
 26: 0x0E92 [0x2B] Moogle (ID: 17744176/0x010EC130) [13413*]:
    → "You're more likely to get on a hot streak thanks to the intricacies of that item!"
 27: 0x0E99 [0x23] WAIT_FOR_DIALOG_INTERACTION
 28: 0x0E9A [0x2C] CREATE_SCHEDULER_TASK: Create scheduler "exp1" with entities [Moogle (ID: 17744176/0x010EC130), Moogle (ID: 17744176/0x010EC130)]
 29: 0x0EA7 [0x2C] CREATE_SCHEDULER_TASK: Create scheduler "tlk0" with entities [Moogle (ID: 17744176/0x010EC130), Moogle (ID: 17744176/0x010EC130)]
 30: 0x0EB4 [0x03] Work_Zone[2] = ExtData[1]->WorkLocal[5]
 31: 0x0EB9 [0x03] Work_Zone[3] = ExtData[1]->WorkLocal[6]
 32: 0x0EBE [0x03] Work_Zone[4] = ExtData[1]->WorkLocal[7]
 33: 0x0EC3 [0x2B] Moogle (ID: 17744176/0x010EC130) [13408*]:
    → "You have phenomenally procured a prodigious amount of $0 chartruese stone shard[/s], $1 vermilion stone shard[/s], and $2 mauve stone shard[/s]. What would you like, kupo?"
 34: 0x0ECA [0x23] WAIT_FOR_DIALOG_INTERACTION
 35: 0x0ECB [0x2C] CREATE_SCHEDULER_TASK: Create scheduler "tlk1" with entities [Moogle (ID: 17744176/0x010EC130), Moogle (ID: 17744176/0x010EC130)]
 36: 0x0ED8 [0x06] ExtData[1]->WorkLocal[13] = 0
 37: 0x0EDB [0x06] ExtData[1]->WorkLocal[14] = 0
 38: 0x0EDE [0x06] ExtData[1]->WorkLocal[9] = 0
 39: 0x0EE1 [0x06] ExtData[1]->WorkLocal[10] = 0
 40: 0x0EE4 [0x06] ExtData[1]->WorkLocal[15] = 0
 41: 0x0EE7 [0x06] ExtData[1]->WorkLocal[19] = 0

SUBROUTINE_0EEA:
 42: 0x0EEA [0x03] Work_Zone[2] = ExtData[1]->WorkLocal[5]
 43: 0x0EEF [0x03] Work_Zone[3] = ExtData[1]->WorkLocal[6]
 44: 0x0EF4 [0x03] Work_Zone[4] = ExtData[1]->WorkLocal[7]
 45: 0x0EF9 [0x24] CREATE_DIALOG(message_id=13409*, default_option=ExtData[1]->WorkLocal[9], option_flags=0*)
    → "What will you do? [Spin the wheel! ($0 chartruese shard[/s])/Spin the wheel! ($1 vermilion shard[/s])/Spin the wheel! ($2 mauve shard[/s])/Check the item list./Warp outside town./Nothing.]"
 46: 0x0F00 [0x25] WAIT_DIALOG_SELECT()
 47: 0x0F01 [0x02] IF !(Work_Zone[0] == 0*) GOTO 0x1648
 48: 0x0F09 [0x02] IF !(ExtData[1]->WorkLocal[5] > 0*) GOTO 0x0F44
 49: 0x0F11 [0x2C] CREATE_SCHEDULER_TASK: Create scheduler "exp0" with entities [Moogle (ID: 17744176/0x010EC130), Moogle (ID: 17744176/0x010EC130)]
 50: 0x0F1E [0x03] Work_Zone[5] = 2*
 51: 0x0F23 [0x2B] Moogle (ID: 17744176/0x010EC130) [13410*]:
    → "You have not harvested a sufficient supply of [mauve stone shards/vermilion stone shards/chartruese stone shards], kupo! Clobber more critters and come back later!"
 52: 0x0F2A [0x23] WAIT_FOR_DIALOG_INTERACTION
 53: 0x0F2B [0x2C] CREATE_SCHEDULER_TASK: Create scheduler "exp1" with entities [Moogle (ID: 17744176/0x010EC130), Moogle (ID: 17744176/0x010EC130)]
 54: 0x0F38 [0x40] SET_BIT_WORK_RANGE(start_bit=0*, end_bit=2*, target=Work_Zone[1], source=0*)
 55: 0x0F41 [0x01] GOTO 0x1645
 56: 0x0F44 [0x42] SET_CLI_EVENT_CANCEL_DATA()
 57: 0x0F45 [0x40] SET_BIT_WORK_RANGE(start_bit=3*, end_bit=4*, target=Work_Zone[1], source=0*)

SUBROUTINE_0F4E:
 58: 0x0F4E [0x03] ExtData[1]->WorkLocal[9] = Work_Zone[0]
 59: 0x0F53 [0x40] SET_BIT_WORK_RANGE(start_bit=0*, end_bit=2*, target=Work_Zone[1], source=2*)
 60: 0x0F5C [0x43] SEND_EVENT_UPDATE: Send pending tag to server (packet 0x005B)
 61: 0x0F5E [0x43] SEND_EVENT_UPDATE: Check pending flag (skip if not pending)
 62: 0x0F60 [0x41] ExtData[1]->WorkLocal[5] = Work_Zone[2] (bits 0*-9*)
 63: 0x0F69 [0x41] ExtData[1]->WorkLocal[6] = Work_Zone[2] (bits 10*-19*)
 64: 0x0F72 [0x41] ExtData[1]->WorkLocal[7] = Work_Zone[2] (bits 20*-29*)
 65: 0x0F7B [0x03] ExtData[1]->WorkLocal[8] = Work_Zone[3]
 66: 0x0F80 [0x03] ExtData[1]->WorkLocal[18] = Work_Zone[4]
 67: 0x0F85 [0x02] IF !(ExtData[1]->WorkLocal[18] < 1*) GOTO 0x0FB1
 68: 0x0F8D [0x02] IF !(ExtData[1]->WorkLocal[19] == 0*) GOTO 0x0FB1
 69: 0x0F95 [0x03] ExtData[1]->WorkLocal[19] = 1*
 70: 0x0F9A [0x45] LOAD_SCHEDULED_TASK: Load scheduler "s033" with entities [LocalPlayer, LocalPlayer], work=[200*, 0*]
 71: 0x0FAB [0x1C] WAIT(30* ticks)
 72: 0x0FAE [0x48] [System] [13414*]:
    → "You are on a hot streak!"
 73: 0x0FB1 [0x2C] CREATE_SCHEDULER_TASK: Create scheduler "tlk0" with entities [Moogle (ID: 17744176/0x010EC130), Moogle (ID: 17744176/0x010EC130)]
 74: 0x0FBE [0x02] IF !(ExtData[1]->WorkLocal[14] == 0*) GOTO 0x0FCE
 75: 0x0FC6 [0x2B] Moogle (ID: 17744176/0x010EC130) [13416*]:
    → "Roll them bones, kupo!"
 76: 0x0FCD [0x23] WAIT_FOR_DIALOG_INTERACTION
 77: 0x0FCE [0x2B] Moogle (ID: 17744176/0x010EC130) [13417*]:
    → "And the outstanding outcome is..."
 78: 0x0FD5 [0x23] WAIT_FOR_DIALOG_INTERACTION
 79: 0x0FD6 [0x2C] CREATE_SCHEDULER_TASK: Create scheduler "tlk1" with entities [Moogle (ID: 17744176/0x010EC130), Moogle (ID: 17744176/0x010EC130)]
 80: 0x0FE3 [0x02] IF !(ExtData[1]->WorkLocal[14] == 0*) GOTO 0x0FEE
 81: 0x0FEB [0x1C] WAIT(60* ticks)
 82: 0x0FEE [0x02] IF !(ExtData[1]->WorkLocal[8] == 4*) GOTO 0x101B
 83: 0x0FF6 [0x2C] CREATE_SCHEDULER_TASK: Create scheduler "tlk0" with entities [Moogle (ID: 17744176/0x010EC130), Moogle (ID: 17744176/0x010EC130)]
 84: 0x1003 [0x2B] Moogle (ID: 17744176/0x010EC130) [13419*]:
    → "...the booby prize, kupo..."
 85: 0x100A [0x23] WAIT_FOR_DIALOG_INTERACTION
 86: 0x100B [0x2C] CREATE_SCHEDULER_TASK: Create scheduler "tlk1" with entities [Moogle (ID: 17744176/0x010EC130), Moogle (ID: 17744176/0x010EC130)]
 87: 0x1018 [0x01] GOTO 0x1174
 88: 0x101B [0x02] IF !(ExtData[1]->WorkLocal[8] == 1*) GOTO 0x1050
 89: 0x1023 [0x2C] CREATE_SCHEDULER_TASK: Create scheduler "hap0" with entities [Moogle (ID: 17744176/0x010EC130), Moogle (ID: 17744176/0x010EC130)]
 90: 0x1030 [0x45] LOAD_SCHEDULED_TASK: Load scheduler "fan1" with entities [LocalPlayer, LocalPlayer], work=[200*, 0*]
 91: 0x1041 [0x03] Work_Zone_1700[7] = 480*
 92: 0x1046 [0x27] REQ_SET(priority=0x10, entity_id=Spriggan Sifter (ID: 17744177/0x010EC131), tag_num=0x05)
 93: 0x104D [0x01] GOTO 0x10BA
 94: 0x1050 [0x02] IF !(ExtData[1]->WorkLocal[8] == 2*) GOTO 0x1085
 95: 0x1058 [0x2C] CREATE_SCHEDULER_TASK: Create scheduler "hap0" with entities [Moogle (ID: 17744176/0x010EC130), Moogle (ID: 17744176/0x010EC130)]
 96: 0x1065 [0x45] LOAD_SCHEDULED_TASK: Load scheduler "fan3" with entities [LocalPlayer, LocalPlayer], work=[200*, 0*]
 97: 0x1076 [0x03] Work_Zone_1700[7] = 180*
 98: 0x107B [0x27] REQ_SET(priority=0x10, entity_id=Spriggan Sifter (ID: 17744177/0x010EC131), tag_num=0x05)
 99: 0x1082 [0x01] GOTO 0x10BA
100: 0x1085 [0x02] IF !(ExtData[1]->WorkLocal[8] == 3*) GOTO 0x10BA
101: 0x108D [0x2C] CREATE_SCHEDULER_TASK: Create scheduler "hap0" with entities [Moogle (ID: 17744176/0x010EC130), Moogle (ID: 17744176/0x010EC130)]
102: 0x109A [0x45] LOAD_SCHEDULED_TASK: Load scheduler "fan4" with entities [LocalPlayer, LocalPlayer], work=[200*, 0*]
103: 0x10AB [0x03] Work_Zone_1700[7] = 120*
104: 0x10B0 [0x27] REQ_SET(priority=0x10, entity_id=Spriggan Sifter (ID: 17744177/0x010EC131), tag_num=0x05)
105: 0x10B7 [0x01] GOTO 0x10BA

SUBROUTINE_10BA:
106: 0x10BA [0x03] Work_Zone[2] = ExtData[1]->WorkLocal[8]
107: 0x10BF [0x2B] Moogle (ID: 17744176/0x010EC130) [13418*]:
    → "[.../First prize! Absolutely amazing!/Second prize! Emphatically excellent!/Third prize! Positively peachy!]"
108: 0x10C6 [0x23] WAIT_FOR_DIALOG_INTERACTION
109: 0x10C7 [0x02] IF !(ExtData[1]->WorkLocal[8] == 1*) GOTO 0x10F2
110: 0x10CF [0x2A] GET_REQ_LEVEL(level=16, entity_id=Spriggan Sifter (ID: 17744177/0x010EC131))
111: 0x10D5 [0x2C] CREATE_SCHEDULER_TASK: Create scheduler "hap1" with entities [Moogle (ID: 17744176/0x010EC130), Moogle (ID: 17744176/0x010EC130)]
112: 0x10E2 [0x53] WAIT_SCHEDULER_TASK: Wait for scheduler "hap1" with entities [Moogle (ID: 17744176/0x010EC130), Moogle (ID: 17744176/0x010EC130)]
113: 0x10EF [0x01] GOTO 0x1148
114: 0x10F2 [0x02] IF !(ExtData[1]->WorkLocal[8] == 2*) GOTO 0x111D
115: 0x10FA [0x2A] GET_REQ_LEVEL(level=16, entity_id=Spriggan Sifter (ID: 17744177/0x010EC131))
116: 0x1100 [0x2C] CREATE_SCHEDULER_TASK: Create scheduler "hap1" with entities [Moogle (ID: 17744176/0x010EC130), Moogle (ID: 17744176/0x010EC130)]
117: 0x110D [0x53] WAIT_SCHEDULER_TASK: Wait for scheduler "hap1" with entities [Moogle (ID: 17744176/0x010EC130), Moogle (ID: 17744176/0x010EC130)]
118: 0x111A [0x01] GOTO 0x1148
119: 0x111D [0x02] IF !(ExtData[1]->WorkLocal[8] == 3*) GOTO 0x1148
120: 0x1125 [0x2A] GET_REQ_LEVEL(level=16, entity_id=Spriggan Sifter (ID: 17744177/0x010EC131))
121: 0x112B [0x2C] CREATE_SCHEDULER_TASK: Create scheduler "hap1" with entities [Moogle (ID: 17744176/0x010EC130), Moogle (ID: 17744176/0x010EC130)]
122: 0x1138 [0x53] WAIT_SCHEDULER_TASK: Wait for scheduler "hap1" with entities [Moogle (ID: 17744176/0x010EC130), Moogle (ID: 17744176/0x010EC130)]
123: 0x1145 [0x01] GOTO 0x1148

SUBROUTINE_1148:
124: 0x1148 [0x02] IF !(ExtData[1]->WorkLocal[18] == 2*) GOTO 0x1174
125: 0x1150 [0x02] IF !(ExtData[1]->WorkLocal[19] == 1*) GOTO 0x1174
126: 0x1158 [0x03] ExtData[1]->WorkLocal[19] = 0*
127: 0x115D [0x45] LOAD_SCHEDULED_TASK: Load scheduler "s034" with entities [LocalPlayer, LocalPlayer], work=[200*, 0*]
128: 0x116E [0x1C] WAIT(30* ticks)
129: 0x1171 [0x48] [System] [13415*]:
    → "Your hot streak has burned out."

SUBROUTINE_1174:
130: 0x1174 [0x03] Work_Zone[2] = 0*
131: 0x1179 [0x02] IF !(ExtData[1]->WorkLocal[14] == 0*) GOTO 0x11A6
132: 0x1181 [0x2C] CREATE_SCHEDULER_TASK: Create scheduler "exp0" with entities [Moogle (ID: 17744176/0x010EC130), Moogle (ID: 17744176/0x010EC130)]
133: 0x118E [0x2B] Moogle (ID: 17744176/0x010EC130) [13420*]:
    → "Select your prize from the long list I'm about to lay upon you, kupo!"
134: 0x1195 [0x23] WAIT_FOR_DIALOG_INTERACTION
135: 0x1196 [0x2C] CREATE_SCHEDULER_TASK: Create scheduler "exp1" with entities [Moogle (ID: 17744176/0x010EC130), Moogle (ID: 17744176/0x010EC130)]
136: 0x11A3 [0x05] ExtData[1]->WorkLocal[14] = 1
137: 0x11A6 [0x2E] SET_CLI_EVENT_CANCEL_FLAGS()

SUBROUTINE_11A7:
138: 0x11A7 [0x9D] Work_Zone[3] = 0x1AA3[0*] // Read WORD
139: 0x11AF [0x9D] Work_Zone[4] = 0x1AA3[1*] // Read WORD
140: 0x11B7 [0x9D] Work_Zone[5] = 0x1AA3[2*] // Read WORD
141: 0x11BF [0x9D] Work_Zone[6] = 0x1AA3[3*] // Read WORD
142: 0x11C7 [0x9D] Work_Zone[7] = 0x1AA3[4*] // Read WORD
143: 0x11CF [0x9D] Work_Zone[8] = 0x1AA3[5*] // Read WORD
144: 0x11D7 [0x9D] Work_Zone[9] = 0x1AA3[6*] // Read WORD
145: 0x11DF [0x9D] Work_Zone_1700[0] = 0x1AA3[7*] // Read WORD
146: 0x11E7 [0x9D] Work_Zone_1700[1] = 0x1AA3[8*] // Read WORD
147: 0x11EF [0x9D] Work_Zone_1700[2] = 0x1AA3[9*] // Read WORD
148: 0x11F7 [0x02] IF !(ExtData[1]->WorkLocal[8] == 1*) GOTO 0x1207
149: 0x11FF [0x03] ExtData[1]->WorkLocal[20] = 0*
150: 0x1204 [0x01] GOTO 0x1237
151: 0x1207 [0x02] IF !(ExtData[1]->WorkLocal[8] == 2*) GOTO 0x1217
152: 0x120F [0x03] ExtData[1]->WorkLocal[20] = 3*
153: 0x1214 [0x01] GOTO 0x1237
154: 0x1217 [0x02] IF !(ExtData[1]->WorkLocal[8] == 3*) GOTO 0x1227
155: 0x121F [0x03] ExtData[1]->WorkLocal[20] = 15*
156: 0x1224 [0x01] GOTO 0x1237
157: 0x1227 [0x02] IF !(ExtData[1]->WorkLocal[8] == 4*) GOTO 0x1237
158: 0x122F [0x03] ExtData[1]->WorkLocal[20] = 63*
159: 0x1234 [0x01] GOTO 0x1237

SUBROUTINE_1237:
160: 0x1237 [0x02] IF !(ExtData[1]->WorkLocal[13] == ExtData[1]->WorkLocal[8]) GOTO 0x1247
161: 0x123F [0x06] ExtData[1]->WorkLocal[10] = 0
162: 0x1242 [0x03] ExtData[1]->WorkLocal[13] = ExtData[1]->WorkLocal[8]
163: 0x1247 [0x24] CREATE_DIALOG(message_id=13421*, default_option=ExtData[1]->WorkLocal[10], option_flags=ExtData[1]->WorkLocal[20])
    → "[What would you like/View which item]? [$1./$2./$3./$4./$5./$6./$7./$8./$9./$10./[I'll decide later/I'm done].]"
164: 0x124E [0x25] WAIT_DIALOG_SELECT()
165: 0x124F [0x02] IF !(Work_Zone[0] == 10*) GOTO 0x1286
166: 0x1257 [0x2C] CREATE_SCHEDULER_TASK: Create scheduler "exp0" with entities [Moogle (ID: 17744176/0x010EC130), Moogle (ID: 17744176/0x010EC130)]
167: 0x1264 [0x2B] Moogle (ID: 17744176/0x010EC130) [13424*]:
    → "Come back and call upon me when you determine which doodad you desire!"
168: 0x126B [0x23] WAIT_FOR_DIALOG_INTERACTION
169: 0x126C [0x2C] CREATE_SCHEDULER_TASK: Create scheduler "exp1" with entities [Moogle (ID: 17744176/0x010EC130), Moogle (ID: 17744176/0x010EC130)]
170: 0x1279 [0x40] SET_BIT_WORK_RANGE(start_bit=0*, end_bit=2*, target=Work_Zone[1], source=0*)
171: 0x1282 [0x21] END_EVENT

SUBROUTINE_128B:
172: 0x128B [0x06] ExtData[1]->WorkLocal[16] = 0
173: 0x128E [0x05] ExtData[1]->WorkLocal[12] = 1
174: 0x1291 [0x3E] IF !(ExtData[1]->WorkLocal[15] bit ExtData[1]->WorkLocal[10]) GOTO 0x129E
175: 0x1298 [0x05] ExtData[1]->WorkLocal[16] = 1
176: 0x129B [0x06] ExtData[1]->WorkLocal[12] = 0
177: 0x129E [0x9D] Work_Zone_1700[3] = 0x1AA3[ExtData[1]->WorkLocal[10]] // Read WORD
178: 0x12A6 [0x02] IF !(ExtData[1]->WorkLocal[16] == 0*) GOTO 0x12E3
179: 0x12AE [0x93] DISPLAY_ITEM_INFO(item_id=Work_Zone_1700[3])
180: 0x12B1 [0x2C] CREATE_SCHEDULER_TASK: Create scheduler "exp0" with entities [Moogle (ID: 17744176/0x010EC130), Moogle (ID: 17744176/0x010EC130)]
181: 0x12BE [0x2B] Moogle (ID: 17744176/0x010EC130) [13422*]:
    → "Would you like this item, kupo?"
182: 0x12C5 [0x23] WAIT_FOR_DIALOG_INTERACTION
183: 0x12C6 [0x2C] CREATE_SCHEDULER_TASK: Create scheduler "exp1" with entities [Moogle (ID: 17744176/0x010EC130), Moogle (ID: 17744176/0x010EC130)]
184: 0x12D3 [0x53] WAIT_SCHEDULER_TASK: Wait for scheduler "exp1" with entities [Moogle (ID: 17744176/0x010EC130), Moogle (ID: 17744176/0x010EC130)]
185: 0x12E0 [0x93] DISPLAY_ITEM_INFO(item_id=0*)
186: 0x12E3 [0x24] CREATE_DIALOG(message_id=13423*, default_option=ExtData[1]->WorkLocal[12], option_flags=0*)
    → "Really select that item? [Undoubtedly./Let me think on it.]"
187: 0x12EA [0x25] WAIT_DIALOG_SELECT()
188: 0x12EB [0x02] IF !(Work_Zone[0] == 0*) GOTO 0x1637
189: 0x12F3 [0x42] SET_CLI_EVENT_CANCEL_DATA()
190: 0x12F4 [0x40] SET_BIT_WORK_RANGE(start_bit=0*, end_bit=2*, target=Work_Zone[1], source=3*)
191: 0x12FD [0x40] SET_BIT_WORK_RANGE(start_bit=5*, end_bit=8*, target=Work_Zone[1], source=ExtData[1]->WorkLocal[10])
192: 0x1306 [0x43] SEND_EVENT_UPDATE: Send pending tag to server (packet 0x005B)
193: 0x1308 [0x43] SEND_EVENT_UPDATE: Check pending flag (skip if not pending)
194: 0x130A [0x02] IF !(Work_Zone[2] == 4294967295*) GOTO 0x131F
195: 0x1312 [0x40] SET_BIT_WORK_RANGE(start_bit=0*, end_bit=2*, target=Work_Zone[1], source=0*)
196: 0x131B [0x21] END_EVENT

SUBROUTINE_1327:
197: 0x1327 [0x45] LOAD_SCHEDULED_TASK: Load scheduler "fdo1" with entities [LocalPlayer, LocalPlayer], work=[200*, 0*]
198: 0x1338 [0x55] WAIT_LOAD_SCHEDULER: Wait for scheduler "fdo1" with entities [LocalPlayer, LocalPlayer], work=200*
199: 0x1347 [0x46] CAMERA_CONTROL: Disable user control
200: 0x1349 [0x38] SET_CLIENT_EVENT_MODE(mode=19*)
201: 0x134C [0x2F] Unnamed NPC (ID: 17744180/0x010EC134)->Render.Flags0 &= ~0x80000 // Bit 19
202: 0x1352 [0x2F] Unnamed NPC (ID: 17744181/0x010EC135)->Render.Flags0 &= ~0x80000 // Bit 19
203: 0x1358 [0x4E] SET_ENTITY_HIDE_FLAG: Show Unnamed NPC (ID: 17744180/0x010EC134)
204: 0x135E [0x4E] SET_ENTITY_HIDE_FLAG: Show Unnamed NPC (ID: 17744181/0x010EC135)
205: 0x1364 [0x92] Moogle (ID: 17744176/0x010EC130)->Render.Flags3 ^= 0x01
206: 0x136A [0x92] Spriggan Sifter (ID: 17744177/0x010EC131)->Render.Flags3 ^= 0x01
207: 0x1370 [0x92] Spriggan Crier (ID: 17744178/0x010EC132)->Render.Flags3 ^= 0x01
208: 0x1376 [0x92] Spriggan Graverobber (ID: 17744179/0x010EC133)->Render.Flags3 ^= 0x01
209: 0x137C [0x94] Moogle (ID: 17744176/0x010EC130)->Render.Flags3 ^= 0x01
210: 0x1382 [0x94] Spriggan Sifter (ID: 17744177/0x010EC131)->Render.Flags3 ^= 0x01
211: 0x1388 [0x94] Spriggan Crier (ID: 17744178/0x010EC132)->Render.Flags3 ^= 0x01
212: 0x138E [0x94] Spriggan Graverobber (ID: 17744179/0x010EC133)->Render.Flags3 ^= 0x01
213: 0x1394 [0x94] LocalPlayer->Render.Flags3 ^= 0x01
214: 0x139A [0xBA] SET_ENTITY_POSITION(entity_id=LocalPlayer, pos_x=98.000*, pos_z=-11.000*, pos_y=8.500*, direction=187.6°*)
215: 0x13A7 [0x4A] LocalPlayer looks at Moogle (ID: 17744176/0x010EC130)
216: 0x13B0 [0x4A] Moogle (ID: 17744176/0x010EC130) looks at LocalPlayer
217: 0x13B9 [0x4A] Spriggan Sifter (ID: 17744177/0x010EC131) looks at LocalPlayer
218: 0x13C2 [0x4A] Spriggan Crier (ID: 17744178/0x010EC132) looks at LocalPlayer
219: 0x13CB [0x4A] Spriggan Graverobber (ID: 17744179/0x010EC133) looks at LocalPlayer
220: 0x13D4 [0x6F] WAIT_FRAME_DELAY: Yield until WaitTime reaches zero
221: 0x13D5 [0x76] CHECK_ENTITY_RENDER_FLAGS: Wait until LocalPlayer Render.Flags0 and Render.Flags3 conditions are met
222: 0x13DA [0x6F] WAIT_FRAME_DELAY: Yield until WaitTime reaches zero
223: 0x13DB [0x76] CHECK_ENTITY_RENDER_FLAGS: Wait until Moogle (ID: 17744176/0x010EC130) Render.Flags0 and Render.Flags3 conditions are met
224: 0x13E0 [0x6F] WAIT_FRAME_DELAY: Yield until WaitTime reaches zero
225: 0x13E1 [0x76] CHECK_ENTITY_RENDER_FLAGS: Wait until Spriggan Sifter (ID: 17744177/0x010EC131) Render.Flags0 and Render.Flags3 conditions are met
226: 0x13E6 [0x6F] WAIT_FRAME_DELAY: Yield until WaitTime reaches zero
227: 0x13E7 [0x76] CHECK_ENTITY_RENDER_FLAGS: Wait until Spriggan Crier (ID: 17744178/0x010EC132) Render.Flags0 and Render.Flags3 conditions are met
228: 0x13EC [0x6F] WAIT_FRAME_DELAY: Yield until WaitTime reaches zero
229: 0x13ED [0x76] CHECK_ENTITY_RENDER_FLAGS: Wait until Spriggan Graverobber (ID: 17744179/0x010EC133) Render.Flags0 and Render.Flags3 conditions are met
230: 0x13F2 [0x80] LOAD_WAIT(entity=LocalPlayer)
231: 0x13F7 [0x80] LOAD_WAIT(entity=Moogle (ID: 17744176/0x010EC130))
232: 0x13FC [0x80] LOAD_WAIT(entity=Spriggan Sifter (ID: 17744177/0x010EC131))
233: 0x1401 [0x80] LOAD_WAIT(entity=Spriggan Crier (ID: 17744178/0x010EC132))
234: 0x1406 [0x80] LOAD_WAIT(entity=Spriggan Graverobber (ID: 17744179/0x010EC133))
235: 0x140B [0x5C] MUSIC_CONTROL: Set Idle (Day) music to song 129*
236: 0x140F [0x5C] MUSIC_CONTROL: Set Idle (Night) music to song 129*
237: 0x1413 [0x9A] WAIT_MUSIC_SERVER()
238: 0x1414 [0x02] IF !(LocalPlayer->Race == 5*) GOTO 0x1430
239: 0x141C [0x45] LOAD_SCHEDULED_TASK: Load scheduler "s634" with entities [EventEntity, EventEntity], work=[639*, 0*]
