# 17744034

## Common Data

| Field            | Value                 |
|------------------|-----------------------|
| Zone             | Port Bastok (ID: 236) |
| Block Size       | 2448 bytes            |
| Total Events     | 3                     |
| References Count | 50                    |

## List of Events

| Event ID              | Entrypoint   |   Size |   Instructions |
|-----------------------|--------------|--------|----------------|
| [65535](#event-65535) | 0x0000       |      1 |              1 |
| [322](#event-322)     | 0x0001       |    792 |            102 |
| [323](#event-323)     | 0x0319       |   1426 |            175 |

## DAT References (imed_data)

|   Index | Hex Value   |   Dec Value |
|---------|-------------|-------------|
|       0 | 0x0013      |          19 |
|       1 | 0x013D      |         317 |
|       2 | 0x000F      |          15 |
|       3 | 0x009C      |         156 |
|       4 | 0x0000      |           0 |
|       5 | 0x23CE      |        9166 |
|       6 | 0x23CF      |        9167 |
|       7 | 0x23D0      |        9168 |
|       8 | 0x23D1      |        9169 |
|       9 | 0x23D2      |        9170 |
|      10 | 0x23D3      |        9171 |
|      11 | 0x23D4      |        9172 |
|      12 | 0x23D5      |        9173 |
|      13 | 0x23D6      |        9174 |
|      14 | 0x003C      |          60 |
|      15 | 0x23D7      |        9175 |
|      16 | 0x23D8      |        9176 |
|      17 | 0x23D9      |        9177 |
|      18 | 0x23DA      |        9178 |
|      19 | 0x0CE3      |        3299 |
|      20 | 0x23DB      |        9179 |
|      21 | 0x23DC      |        9180 |
|      22 | 0x001E      |          30 |
|      23 | 0x00C8      |         200 |
|      24 | 0x23DF      |        9183 |
|      25 | 0x23E0      |        9184 |
|      26 | 0x23EE      |        9198 |
|      27 | 0x0007      |           7 |
|      28 | 0x23E1      |        9185 |
|      29 | 0x0001      |           1 |
|      30 | 0x0006      |           6 |
|      31 | 0x23E2      |        9186 |
|      32 | 0x23E3      |        9187 |
|      33 | 0x23E4      |        9188 |
|      34 | 0x23E5      |        9189 |
|      35 | 0x23E6      |        9190 |
|      36 | 0x23E7      |        9191 |
|      37 | 0x23E8      |        9192 |
|      38 | 0x23E9      |        9193 |
|      39 | 0x0067      |         103 |
|      40 | 0x0010      |          16 |
|      41 | 0x23EA      |        9194 |
|      42 | 0x23EB      |        9195 |
|      43 | 0x23EC      |        9196 |
|      44 | 0x00EC      |         236 |
|      45 | 0x23ED      |        9197 |
|      46 | 0x00C9      |         201 |
|      47 | 0x002D      |          45 |
|      48 | 0x0002      |           2 |
|      49 | 0x00D7      |         215 |

## String References

- **9198**: What do you say? [I don't need them./I want some information.]

## Events

### Event 65535

#### Metadata

| Field        | Value   |
|--------------|---------|
| Entrypoint   | 0x0000  |
| Data Size    | 1 bytes |
| Instructions | 1       |

```
      00 01 02 03 04 05 06 07  08 09 0A 0B 0C 0D 0E 0F
      -- -- -- -- -- -- -- --  -- -- -- -- -- -- -- --
0000: 00                                                .               
```

#### Opcodes

```
  0: 0x0000 [0x00] END_REQSTACK()
```

### Event 322

#### Metadata

| Field        | Value     |
|--------------|-----------|
| Entrypoint   | 0x0001    |
| Data Size    | 792 bytes |
| Instructions | 102       |

```
      00 01 02 03 04 05 06 07  08 09 0A 0B 0C 0D 0E 0F
      -- -- -- -- -- -- -- --  -- -- -- -- -- -- -- --
0000:    42 03 00 00 03 10 1A  7D 06 46 01 38 00 80 79   B......}.F.8..y
0010: 00 F0 FF FF 7F F0 FF FF  7F 92 01 07 C0 0E 01 92  ................
0020: 01 A1 C0 0E 01 75 00 01  80 75 01 75 02 27 10 A1  .....u...u.u.'..
0030: C0 0E 01 07 29 10 F0 FF  FF 7F 3F 80 F0 FF FF 7F  ....).....?.....
0040: 1C 02 80 79 00 F0 FF FF  7F 07 C0 0E 01 45 03 80  ...y.........E..
0050: F0 FF FF 7F F0 FF FF 7F  62 74 30 30 04 80 1A 5C  ........bt00...\
0060: 06 66 04 80 07 C0 0E 01  07 C0 0E 01 64 69 73 30  .f..........dis0
0070: 2B 07 C0 0E 01 05 80 23  53 07 C0 0E 01 07 C0 0E  +......#S.......
0080: 01 64 69 73 30 4A 07 C0  0E 01 F0 FF FF 7F 6F 76  .dis0J........ov
0090: 07 C0 0E 01 66 04 80 07  C0 0E 01 07 C0 0E 01 74  ....f..........t
00A0: 6C 6B 30 2B 07 C0 0E 01  06 80 23 52 03 80 F0 FF  lk0+......#R....
00B0: FF 7F F0 FF FF 7F 62 74  30 30 45 03 80 F0 FF FF  ......bt00E.....
00C0: 7F F0 FF FF 7F 62 74 30  31 04 80 2B 07 C0 0E 01  .....bt01..+....
00D0: 07 80 23 2B 07 C0 0E 01  08 80 23 2B 07 C0 0E 01  ..#+......#+....
00E0: 09 80 23 66 04 80 07 C0  0E 01 07 C0 0E 01 74 65  ..#f..........te
00F0: 6E 30 53 07 C0 0E 01 07  C0 0E 01 74 65 6E 30 52  n0S........ten0R
0100: 03 80 F0 FF FF 7F F0 FF  FF 7F 62 74 30 31 45 03  ..........bt01E.
0110: 80 F0 FF FF 7F F0 FF FF  7F 62 74 30 32 04 80 81  .........bt02...
0120: 00 07 C0 0E 01 66 04 80  07 C0 0E 01 07 C0 0E 01  .....f..........
0130: 74 68 6B 31 2B 07 C0 0E  01 0A 80 23 2B 07 C0 0E  thk1+......#+...
0140: 01 0B 80 23 81 01 07 C0  0E 01 66 04 80 07 C0 0E  ...#......f.....
0150: 01 07 C0 0E 01 74 68 6B  32 53 07 C0 0E 01 07 C0  .....thk2S......
0160: 0E 01 74 68 6B 32 2B 07  C0 0E 01 0C 80 23 27 10  ..thk2+......#'.
0170: A1 C0 0E 01 08 4A 07 C0  0E 01 A1 C0 0E 01 1C 02  .....J..........
0180: 80 4A F0 FF FF 7F A1 C0  0E 01 52 03 80 F0 FF FF  .J........R.....
0190: 7F F0 FF FF 7F 62 74 30  32 45 03 80 F0 FF FF 7F  .....bt02E......
01A0: F0 FF FF 7F 62 74 30 33  04 80 2B A1 C0 0E 01 0D  ....bt03..+.....
01B0: 80 23 2A 10 A1 C0 0E 01  66 0E 80 A1 C0 0E 01 A1  .#*.....f.......
01C0: C0 0E 01 74 6C 6B 30 03  03 10 00 00 2B A1 C0 0E  ...tlk0.....+...
01D0: 01 0F 80 23 66 0E 80 A1  C0 0E 01 A1 C0 0E 01 74  ...#f..........t
01E0: 6C 6B 31 52 03 80 F0 FF  FF 7F F0 FF FF 7F 62 74  lk1R..........bt
01F0: 30 33 45 03 80 F0 FF FF  7F F0 FF FF 7F 62 74 30  03E..........bt0
0200: 34 04 80 66 04 80 07 C0  0E 01 07 C0 0E 01 74 6C  4..f..........tl
0210: 6B 30 2B 07 C0 0E 01 10  80 23 03 03 10 00 00 2B  k0+......#.....+
0220: 07 C0 0E 01 11 80 23 66  04 80 07 C0 0E 01 07 C0  ......#f........
0230: 0E 01 74 65 6E 30 52 03  80 F0 FF FF 7F F0 FF FF  ..ten0R.........
0240: 7F 62 74 30 34 45 03 80  F0 FF FF 7F F0 FF FF 7F  .bt04E..........
0250: 62 74 30 35 04 80 2B A1  C0 0E 01 12 80 23 52 03  bt05..+......#R.
0260: 80 F0 FF FF 7F F0 FF FF  7F 62 74 30 35 45 03 80  .........bt05E..
0270: F0 FF FF 7F F0 FF FF 7F  62 74 30 36 04 80 29 10  ........bt06..).
0280: A1 C0 0E 01 09 52 03 80  F0 FF FF 7F F0 FF FF 7F  .....R..........
0290: 62 74 30 36 45 03 80 F0  FF FF 7F F0 FF FF 7F 62  bt06E..........b
02A0: 74 30 37 04 80 4B 07 C0  0E 01 13 80 6F 76 07 C0  t07..K......ov..
02B0: 0E 01 1C 02 80 4A F0 FF  FF 7F 07 C0 0E 01 66 04  .....J........f.
02C0: 80 07 C0 0E 01 07 C0 0E  01 74 68 6B 31 2B 07 C0  .........thk1+..
02D0: 0E 01 14 80 23 2B 07 C0  0E 01 15 80 23 66 04 80  ....#+......#f..
02E0: 07 C0 0E 01 07 C0 0E 01  74 68 6B 32 1C 16 80 1A  ........thk2....
02F0: 7D 06 1C 16 80 52 03 80  F0 FF FF 7F F0 FF FF 7F  }....R..........
0300: 62 74 30 37 46 00 45 17  80 F0 FF FF 7F F0 FF FF  bt07F.E.........
0310: 7F 66 64 69 32 04 80 21  00                       .fdi2..!.       
```

#### Opcodes

```
  0: 0x0001 [0x42] SET_CLI_EVENT_CANCEL_DATA()
  1: 0x0002 [0x03] ExtData[1]->WorkLocal[0] = Work_Zone[3]
  2: 0x0007 [0x1A] CALL_SUBROUTINE(address=0x067D)
  3: 0x000A [0x46] CAMERA_CONTROL: Disable user control
  4: 0x000C [0x38] SET_CLIENT_EVENT_MODE(mode=19*)
  5: 0x000F [0x79] LocalPlayer looks at LocalPlayer (Basic look)
  6: 0x0019 [0x92] Kagetora (ID: 17743879/0x010EC007)->Render.Flags3 ^= 0x01
  7: 0x001F [0x92] Patient Wheel (ID: 17744033/0x010EC0A1)->Render.Flags3 ^= 0x01
  8: 0x0025 [0x75] LOAD_ROOM(Load indoor room, room=317*)
  9: 0x0029 [0x75] LOAD_ROOM(No action)
 10: 0x002B [0x75] LOAD_ROOM(Change sub-map, room=Work_Zone[39])
 11: 0x002F [0xA1] END_LOAD_SCHEDULER_MAIN: End scheduler 0xFFF0803F with entities [Unknown NPC (ID: 271124225/0x10290701), LocalPlayer], work=0x0EC0
 12: 0x003E [0xFF] UNKNOWN_OPCODE_0xFF
 13: 0x003F [0x7F] WAIT_DIALOG_SELECT_ALT()
 14: 0x0040 [0x1C] WAIT(15* ticks)
 15: 0x0043 [0x79] LocalPlayer looks at Kagetora (ID: 17743879/0x010EC007) (Basic look)
 16: 0x004D [0x45] LOAD_SCHEDULED_TASK: Load scheduler "bt00" with entities [LocalPlayer, LocalPlayer], work=[156*, 0*]
 17: 0x005E [0x1A] CALL_SUBROUTINE(address=0x065C)
 18: 0x0061 [0x66] LOAD_EXT_SCHEDULER_MAIN: Load scheduler "dis0" with entities [Kagetora (ID: 17743879/0x010EC007), Kagetora (ID: 17743879/0x010EC007)], work=0*
 19: 0x0070 [0x2B] Kagetora (ID: 17743879/0x010EC007) [9166*]:
    → "Captain Chieka was even more volatile than usual today. What a character..."
 20: 0x0077 [0x23] WAIT_FOR_DIALOG_INTERACTION
 21: 0x0078 [0x53] WAIT_SCHEDULER_TASK: Wait for scheduler "dis0" with entities [Kagetora (ID: 17743879/0x010EC007), Kagetora (ID: 17743879/0x010EC007)]
 22: 0x0085 [0x4A] Kagetora (ID: 17743879/0x010EC007) looks at LocalPlayer
 23: 0x008E [0x6F] WAIT_FRAME_DELAY: Yield until WaitTime reaches zero
 24: 0x008F [0x76] CHECK_ENTITY_RENDER_FLAGS: Wait until Kagetora (ID: 17743879/0x010EC007) Render.Flags0 and Render.Flags3 conditions are met
 25: 0x0094 [0x66] LOAD_EXT_SCHEDULER_MAIN: Load scheduler "tlk0" with entities [Kagetora (ID: 17743879/0x010EC007), Kagetora (ID: 17743879/0x010EC007)], work=0*
 26: 0x00A3 [0x2B] Kagetora (ID: 17743879/0x010EC007) [9167*]:
    → "Hm? What do you want?"
 27: 0x00AA [0x23] WAIT_FOR_DIALOG_INTERACTION
 28: 0x00AB [0x52] END_LOAD_SCHEDULER: End scheduler "bt00" with entities [LocalPlayer, LocalPlayer], work=156*
 29: 0x00BA [0x45] LOAD_SCHEDULED_TASK: Load scheduler "bt01" with entities [LocalPlayer, LocalPlayer], work=[156*, 0*]
 30: 0x00CB [0x2B] Kagetora (ID: 17743879/0x010EC007) [9168*]:
    → "You're looking for a girl called Sanctia?"
 31: 0x00D2 [0x23] WAIT_FOR_DIALOG_INTERACTION
 32: 0x00D3 [0x2B] Kagetora (ID: 17743879/0x010EC007) [9169*]:
    → "From what I heard, Chieka bundled her into a box and threw her into the sea."
 33: 0x00DA [0x23] WAIT_FOR_DIALOG_INTERACTION
 34: 0x00DB [0x2B] Kagetora (ID: 17743879/0x010EC007) [9170*]:
    → "Since the young lady was making such a fuss about getting to the Marquisate, she was dropped into the water off the coast of Tavnazia."
 35: 0x00E2 [0x23] WAIT_FOR_DIALOG_INTERACTION
 36: 0x00E3 [0x66] LOAD_EXT_SCHEDULER_MAIN: Load scheduler "ten0" with entities [Kagetora (ID: 17743879/0x010EC007), Kagetora (ID: 17743879/0x010EC007)], work=0*
 37: 0x00F2 [0x53] WAIT_SCHEDULER_TASK: Wait for scheduler "ten0" with entities [Kagetora (ID: 17743879/0x010EC007), Kagetora (ID: 17743879/0x010EC007)]
 38: 0x00FF [0x52] END_LOAD_SCHEDULER: End scheduler "bt01" with entities [LocalPlayer, LocalPlayer], work=156*
 39: 0x010E [0x45] LOAD_SCHEDULED_TASK: Load scheduler "bt02" with entities [LocalPlayer, LocalPlayer], work=[156*, 0*]
 40: 0x011F [0x81] SET_ENTITY_BLINKING(blink_flag=0x00, entity=Kagetora (ID: 17743879/0x010EC007))
 41: 0x0125 [0x66] LOAD_EXT_SCHEDULER_MAIN: Load scheduler "thk1" with entities [Kagetora (ID: 17743879/0x010EC007), Kagetora (ID: 17743879/0x010EC007)], work=0*
 42: 0x0134 [0x2B] Kagetora (ID: 17743879/0x010EC007) [9171*]:
    → "If she had just kept her tongue still about Atarefaunet, Captain Chieka might have had pity on her."
 43: 0x013B [0x23] WAIT_FOR_DIALOG_INTERACTION
 44: 0x013C [0x2B] Kagetora (ID: 17743879/0x010EC007) [9172*]:
    → "When Chieka was young and working on her she-devil reputation, she was chewed up and spit out by Atarefaunet."
 45: 0x0143 [0x23] WAIT_FOR_DIALOG_INTERACTION
 46: 0x0144 [0x81] SET_ENTITY_BLINKING(blink_flag=0x01, entity=Kagetora (ID: 17743879/0x010EC007))
 47: 0x014A [0x66] LOAD_EXT_SCHEDULER_MAIN: Load scheduler "thk2" with entities [Kagetora (ID: 17743879/0x010EC007), Kagetora (ID: 17743879/0x010EC007)], work=0*
 48: 0x0159 [0x53] WAIT_SCHEDULER_TASK: Wait for scheduler "thk2" with entities [Kagetora (ID: 17743879/0x010EC007), Kagetora (ID: 17743879/0x010EC007)]
 49: 0x0166 [0x2B] Kagetora (ID: 17743879/0x010EC007) [9173*]:
    → "Anyway, Sanctia's probably feeding the fishes by now, and I don't mean by hand."
 50: 0x016D [0x23] WAIT_FOR_DIALOG_INTERACTION
 51: 0x016E [0x27] REQ_SET(priority=0x10, entity_id=Patient Wheel (ID: 17744033/0x010EC0A1), tag_num=0x08)
 52: 0x0175 [0x4A] Kagetora (ID: 17743879/0x010EC007) looks at Patient Wheel (ID: 17744033/0x010EC0A1)
 53: 0x017E [0x1C] WAIT(15* ticks)
 54: 0x0181 [0x4A] LocalPlayer looks at Patient Wheel (ID: 17744033/0x010EC0A1)
 55: 0x018A [0x52] END_LOAD_SCHEDULER: End scheduler "bt02" with entities [LocalPlayer, LocalPlayer], work=156*
 56: 0x0199 [0x45] LOAD_SCHEDULED_TASK: Load scheduler "bt03" with entities [LocalPlayer, LocalPlayer], work=[156*, 0*]
 57: 0x01AA [0x2B] Patient Wheel (ID: 17744033/0x010EC0A1) [9174*]:
    → "Excuse me, Boss, but one of the boxes we unloaded from Captain Chieka's ship was empty."
 58: 0x01B1 [0x23] WAIT_FOR_DIALOG_INTERACTION
 59: 0x01B2 [0x2A] GET_REQ_LEVEL(level=16, entity_id=Patient Wheel (ID: 17744033/0x010EC0A1))
 60: 0x01B8 [0x66] LOAD_EXT_SCHEDULER_MAIN: Load scheduler "tlk0" with entities [Patient Wheel (ID: 17744033/0x010EC0A1), Patient Wheel (ID: 17744033/0x010EC0A1)], work=60*
 61: 0x01C7 [0x03] Work_Zone[3] = ExtData[1]->WorkLocal[0]
 62: 0x01CC [0x2B] Patient Wheel (ID: 17744033/0x010EC0A1) [9175*]:
    → "It was supposed to be filled with $1..."
 63: 0x01D3 [0x23] WAIT_FOR_DIALOG_INTERACTION
 64: 0x01D4 [0x66] LOAD_EXT_SCHEDULER_MAIN: Load scheduler "tlk1" with entities [Patient Wheel (ID: 17744033/0x010EC0A1), Patient Wheel (ID: 17744033/0x010EC0A1)], work=60*
 65: 0x01E3 [0x52] END_LOAD_SCHEDULER: End scheduler "bt03" with entities [LocalPlayer, LocalPlayer], work=156*
 66: 0x01F2 [0x45] LOAD_SCHEDULED_TASK: Load scheduler "bt04" with entities [LocalPlayer, LocalPlayer], work=[156*, 0*]
 67: 0x0203 [0x66] LOAD_EXT_SCHEDULER_MAIN: Load scheduler "tlk0" with entities [Kagetora (ID: 17743879/0x010EC007), Kagetora (ID: 17743879/0x010EC007)], work=0*
 68: 0x0212 [0x2B] Kagetora (ID: 17743879/0x010EC007) [9176*]:
    → "What? Weren't you supposed to check everything before the ship left?"
 69: 0x0219 [0x23] WAIT_FOR_DIALOG_INTERACTION
 70: 0x021A [0x03] Work_Zone[3] = ExtData[1]->WorkLocal[0]
 71: 0x021F [0x2B] Kagetora (ID: 17743879/0x010EC007) [9177*]:
    → "This is your responsibility! We need at least five $1 for a waiting customer. You'd better start looking!"
 72: 0x0226 [0x23] WAIT_FOR_DIALOG_INTERACTION
 73: 0x0227 [0x66] LOAD_EXT_SCHEDULER_MAIN: Load scheduler "ten0" with entities [Kagetora (ID: 17743879/0x010EC007), Kagetora (ID: 17743879/0x010EC007)], work=0*
 74: 0x0236 [0x52] END_LOAD_SCHEDULER: End scheduler "bt04" with entities [LocalPlayer, LocalPlayer], work=156*
 75: 0x0245 [0x45] LOAD_SCHEDULED_TASK: Load scheduler "bt05" with entities [LocalPlayer, LocalPlayer], work=[156*, 0*]
 76: 0x0256 [0x2B] Patient Wheel (ID: 17744033/0x010EC0A1) [9178*]:
    → "I'll do my best, Boss."
 77: 0x025D [0x23] WAIT_FOR_DIALOG_INTERACTION
 78: 0x025E [0x52] END_LOAD_SCHEDULER: End scheduler "bt05" with entities [LocalPlayer, LocalPlayer], work=156*
 79: 0x026D [0x45] LOAD_SCHEDULED_TASK: Load scheduler "bt06" with entities [LocalPlayer, LocalPlayer], work=[156*, 0*]
 80: 0x027E [0x29] REQ_SET_WAIT(priority=0x10, entity_id=Patient Wheel (ID: 17744033/0x010EC0A1), tag_num=0x09)
 81: 0x0285 [0x52] END_LOAD_SCHEDULER: End scheduler "bt06" with entities [LocalPlayer, LocalPlayer], work=156*
 82: 0x0294 [0x45] LOAD_SCHEDULED_TASK: Load scheduler "bt07" with entities [LocalPlayer, LocalPlayer], work=[156*, 0*]
 83: 0x02A5 [0x4B] UPDATE_ENTITY_YAW(entity=Kagetora (ID: 17743879/0x010EC007), yaw=18.1°*)
 84: 0x02AC [0x6F] WAIT_FRAME_DELAY: Yield until WaitTime reaches zero
 85: 0x02AD [0x76] CHECK_ENTITY_RENDER_FLAGS: Wait until Kagetora (ID: 17743879/0x010EC007) Render.Flags0 and Render.Flags3 conditions are met
 86: 0x02B2 [0x1C] WAIT(15* ticks)
 87: 0x02B5 [0x4A] LocalPlayer looks at Kagetora (ID: 17743879/0x010EC007)
 88: 0x02BE [0x66] LOAD_EXT_SCHEDULER_MAIN: Load scheduler "thk1" with entities [Kagetora (ID: 17743879/0x010EC007), Kagetora (ID: 17743879/0x010EC007)], work=0*
 89: 0x02CD [0x2B] Kagetora (ID: 17743879/0x010EC007) [9179*]:
    → "Unbelievable. There's no way an old sea dog like Chieka would waste her time with empty cargo."
 90: 0x02D4 [0x23] WAIT_FOR_DIALOG_INTERACTION
 91: 0x02D5 [0x2B] Kagetora (ID: 17743879/0x010EC007) [9180*]:
    → "Where could the box have been emptied? Things just aren't going my way today..."
 92: 0x02DC [0x23] WAIT_FOR_DIALOG_INTERACTION
 93: 0x02DD [0x66] LOAD_EXT_SCHEDULER_MAIN: Load scheduler "thk2" with entities [Kagetora (ID: 17743879/0x010EC007), Kagetora (ID: 17743879/0x010EC007)], work=0*
 94: 0x02EC [0x1C] WAIT(30* ticks)
 95: 0x02EF [0x1A] CALL_SUBROUTINE(address=0x067D)
 96: 0x02F2 [0x1C] WAIT(30* ticks)
 97: 0x02F5 [0x52] END_LOAD_SCHEDULER: End scheduler "bt07" with entities [LocalPlayer, LocalPlayer], work=156*
 98: 0x0304 [0x46] CAMERA_CONTROL: Restore default settings
 99: 0x0306 [0x45] LOAD_SCHEDULED_TASK: Load scheduler "fdi2" with entities [LocalPlayer, LocalPlayer], work=[200*, 0*]
100: 0x0317 [0x21] END_EVENT
101: 0x0318 [0x00] END_REQSTACK()
```

### Event 323

#### Metadata

| Field        | Value      |
|--------------|------------|
| Entrypoint   | 0x0319     |
| Data Size    | 1426 bytes |
| Instructions | 120        |

```
      00 01 02 03 04 05 06 07  08 09 0A 0B 0C 0D 0E 0F
      -- -- -- -- -- -- -- --  -- -- -- -- -- -- -- --
0310:                             42 1A 7D 06 46 01 38           B.}.F.8
0320: 00 80 79 00 F0 FF FF 7F  F0 FF FF 7F 92 01 A1 C0  ..y.............
0330: 0E 01 29 10 F0 FF FF 7F  40 80 F0 FF FF 7F 1C 02  ..).....@.......
0340: 80 79 00 F0 FF FF 7F A1  C0 0E 01 45 03 80 F0 FF  .y.........E....
0350: FF 7F F0 FF FF 7F 62 74  32 30 04 80 1A 5C 06 4A  ......bt20...\.J
0360: A1 C0 0E 01 F0 FF FF 7F  6F 76 A1 C0 0E 01 7C 00  ........ov....|.
0370: A1 C0 0E 01 2B A1 C0 0E  01 18 80 23 66 0E 80 A1  ....+......#f...
0380: C0 0E 01 A1 C0 0E 01 74  6C 6B 30 7C 01 A1 C0 0E  .......tlk0|....
0390: 01 2B A1 C0 0E 01 19 80  23 66 0E 80 A1 C0 0E 01  .+......#f......
03A0: A1 C0 0E 01 74 6C 6B 31  24 1A 80 04 80 04 80 25  ....tlk1$......%
03B0: 02 00 10 04 80 00 D7 03  6E F0 FF FF 7F 1B 80 99  ........n.......
03C0: F0 FF FF 7F 99 F0 FF FF  7F 1C 02 80 2B A1 C0 0E  ............+...
03D0: 01 1C 80 23 01 F6 03 02  00 10 1D 80 00 F6 03 6E  ...#...........n
03E0: F0 FF FF 7F 1E 80 99 F0  FF FF 7F 99 F0 FF FF 7F  ................
03F0: 1C 02 80 01 F6 03 52 03  80 F0 FF FF 7F F0 FF FF  ......R.........
0400: 7F 62 74 32 30 45 03 80  F0 FF FF 7F F0 FF FF 7F  .bt20E..........
0410: 62 74 32 31 04 80 66 0E  80 A1 C0 0E 01 A1 C0 0E  bt21..f.........
0420: 01 74 6C 6B 30 2B A1 C0  0E 01 1F 80 23 2B A1 C0  .tlk0+......#+..
0430: 0E 01 20 80 23 66 0E 80  A1 C0 0E 01 A1 C0 0E 01  .. .#f..........
0440: 74 6C 6B 31 53 A1 C0 0E  01 A1 C0 0E 01 74 6C 6B  tlk1S........tlk
0450: 31 52 03 80 F0 FF FF 7F  F0 FF FF 7F 62 74 32 31  1R..........bt21
0460: 45 03 80 F0 FF FF 7F F0  FF FF 7F 62 74 32 32 04  E..........bt22.
0470: 80 2B A1 C0 0E 01 21 80  23 2B A1 C0 0E 01 22 80  .+....!.#+....".
0480: 23 2B A1 C0 0E 01 23 80  23 52 03 80 F0 FF FF 7F  #+....#.#R......
0490: F0 FF FF 7F 62 74 32 32  45 03 80 F0 FF FF 7F F0  ....bt22E.......
04A0: FF FF 7F 62 74 32 33 04  80 66 0E 80 A1 C0 0E 01  ...bt23..f......
04B0: A1 C0 0E 01 74 68 6B 31  2B A1 C0 0E 01 24 80 23  ....thk1+....$.#
04C0: 2B A1 C0 0E 01 25 80 23  66 0E 80 A1 C0 0E 01 A1  +....%.#f.......
04D0: C0 0E 01 74 68 6B 32 53  A1 C0 0E 01 A1 C0 0E 01  ...thk2S........
04E0: 74 68 6B 32 2B A1 C0 0E  01 26 80 23 1A 7D 06 1C  thk2+....&.#.}..
04F0: 16 80 52 03 80 F0 FF FF  7F F0 FF FF 7F 62 74 32  ..R..........bt2
0500: 33 34 27 80 77 28 80 1D  80 1C 02 80 4E 01 63 C0  34'.w(......N.c.
0510: 0E 01 45 03 80 F0 FF FF  7F F0 FF FF 7F 62 74 32  ..E..........bt2
0520: 35 04 80 1A 5C 06 2B A1  C0 0E 01 29 80 23 2B A1  5...\.+....).#+.
0530: C0 0E 01 2A 80 23 52 03  80 F0 FF FF 7F F0 FF FF  ...*.#R.........
0540: 7F 62 74 32 35 45 03 80  F0 FF FF 7F F0 FF FF 7F  .bt25E..........
0550: 62 74 32 34 04 80 2B A1  C0 0E 01 2B 80 23 1A 7D  bt24..+....+.#.}
0560: 06 1C 16 80 4E 00 63 C0  0E 01 52 03 80 F0 FF FF  ....N.c...R.....
0570: 7F F0 FF FF 7F 62 74 32  34 35 2C 80 78 1C 02 80  .....bt245,.x...
0580: 92 01 A1 C0 0E 01 29 10  F0 FF FF 7F 40 80 F0 FF  ......).....@...
0590: FF 7F 80 A1 C0 0E 01 4A  A1 C0 0E 01 F0 FF FF 7F  .......J........
05A0: 6F 76 A1 C0 0E 01 1C 02  80 79 00 F0 FF FF 7F A1  ov.......y......
05B0: C0 0E 01 45 03 80 F0 FF  FF 7F F0 FF FF 7F 62 74  ...E..........bt
05C0: 32 36 04 80 1A 5C 06 66  0E 80 A1 C0 0E 01 A1 C0  26...\.f........
05D0: 0E 01 74 6C 6B 30 2B A1  C0 0E 01 2D 80 23 66 0E  ..tlk0+....-.#f.
05E0: 80 A1 C0 0E 01 A1 C0 0E  01 74 6C 6B 31 1C 16 80  .........tlk1...
05F0: 1A 7D 06 1C 16 80 52 03  80 F0 FF FF 7F F0 FF FF  .}....R.........
0600: 7F 62 74 32 36 46 00 45  17 80 F0 FF FF 7F F0 FF  .bt26F.E........
0610: FF 7F 66 64 69 32 04 80  21 00 45 17 80 F0 FF FF  ..fdi2..!.E.....
0620: 7F F0 FF FF 7F 66 64 69  30 04 80 55 17 80 F0 FF  .....fdi0..U....
0630: FF 7F F0 FF FF 7F 66 64  69 30 1B 45 17 80 F0 FF  ......fdi0.E....
0640: FF 7F F0 FF FF 7F 66 64  6F 30 04 80 55 17 80 F0  ......fdo0..U...
0650: FF FF 7F F0 FF FF 7F 66  64 6F 30 1B 45 17 80 F0  .......fdo0.E...
0660: FF FF 7F F0 FF FF 7F 66  64 69 31 04 80 55 17 80  .......fdi1..U..
0670: F0 FF FF 7F F0 FF FF 7F  66 64 69 31 1B 45 17 80  ........fdi1.E..
0680: F0 FF FF 7F F0 FF FF 7F  66 64 6F 31 04 80 55 17  ........fdo1..U.
0690: 80 F0 FF FF 7F F0 FF FF  7F 66 64 6F 31 1B 45 2E  .........fdo1.E.
06A0: 80 F0 FF FF 7F F0 FF FF  7F 77 68 69 31 04 80 55  .........whi1..U
06B0: 2E 80 F0 FF FF 7F F0 FF  FF 7F 77 68 69 31 1B 45  ..........whi1.E
06C0: 2E 80 F0 FF FF 7F F0 FF  FF 7F 77 68 6F 31 04 80  ..........who1..
06D0: 55 2E 80 F0 FF FF 7F F0  FF FF 7F 77 68 6F 31 1B  U..........who1.
06E0: 45 2E 80 F0 FF FF 7F F0  FF FF 7F 77 68 6F 32 04  E..........who2.
06F0: 80 55 2E 80 F0 FF FF 7F  F0 FF FF 7F 77 68 6F 32  .U..........who2
0700: 1B 45 2E 80 F0 FF FF 7F  F0 FF FF 7F 77 68 6F 33  .E..........who3
0710: 04 80 55 2E 80 F0 FF FF  7F F0 FF FF 7F 77 68 6F  ..U..........who
0720: 33 1B 62 1D 80 F0 FF FF  7F F0 FF FF 7F 6D 61 69  3.b..........mai
0730: 6E 04 80 1C 2F 80 45 17  80 F0 FF FF 7F F0 FF FF  n.../.E.........
0740: 7F 66 64 6F 31 04 80 55  17 80 F0 FF FF 7F F0 FF  .fdo1..U........
0750: FF 7F 66 64 6F 31 1B 45  17 80 F0 FF FF 7F F0 FF  ..fdo1.E........
0760: FF 7F 66 64 69 31 04 80  62 30 80 F0 FF FF 7F F0  ..fdi1..b0......
0770: FF FF 7F 6D 61 69 6E 04  80 1C 16 80 55 17 80 F0  ...main.....U...
0780: FF FF 7F F0 FF FF 7F 66  64 69 31 1B 45 17 80 F0  .......fdi1.E...
0790: FF FF 7F F0 FF FF 7F 62  6C 6F 6E 04 80 45 2E 80  .......blon..E..
07A0: F0 FF FF 7F F0 FF FF 7F  62 6C 6F 6E 04 80 1B 45  ........blon...E
07B0: 2E 80 F0 FF FF 7F F0 FF  FF 7F 77 68 69 30 04 80  ..........whi0..
07C0: 55 2E 80 F0 FF FF 7F F0  FF FF 7F 77 68 69 30 1B  U..........whi0.
07D0: 45 2E 80 F0 FF FF 7F F0  FF FF 7F 77 68 6F 30 04  E..........who0.
07E0: 80 55 2E 80 F0 FF FF 7F  F0 FF FF 7F 77 68 6F 30  .U..........who0
07F0: 1B 45 31 80 F0 FF FF 7F  F0 FF FF 7F 65 66 6F 6E  .E1.........efon
0800: 04 80 55 31 80 F0 FF FF  7F F0 FF FF 7F 65 66 6F  ..U1.........efo
0810: 6E 1B 45 17 80 F0 FF FF  7F F0 FF FF 7F 66 64 69  n.E..........fdi
0820: 73 04 80 1B 45 17 80 F0  FF FF 7F F0 FF FF 7F 66  s...E..........f
0830: 64 6F 73 04 80 55 17 80  F0 FF FF 7F F0 FF FF 7F  dos..U..........
0840: 66 64 6F 73 1B 45 17 80  F0 FF FF 7F F0 FF FF 7F  fdos.E..........
0850: 66 64 69 66 04 80 1B 45  17 80 F0 FF FF 7F F0 FF  fdif...E........
0860: FF 7F 66 64 6F 66 04 80  55 17 80 F0 FF FF 7F F0  ..fdof..U.......
0870: FF FF 7F 66 64 6F 66 1B  45 17 80 F0 FF FF 7F F0  ...fdof.E.......
0880: FF FF 7F 66 64 69 70 04  80 1B 45 17 80 F0 FF FF  ...fdip...E.....
0890: 7F F0 FF FF 7F 66 64 6F  70 04 80 55 17 80 F0 FF  .....fdop..U....
08A0: FF 7F F0 FF FF 7F 66 64  6F 70 1B                 ......fdop.     
```

#### Opcodes

```
  0: 0x0319 [0x42] SET_CLI_EVENT_CANCEL_DATA()
  1: 0x031A [0x1A] CALL_SUBROUTINE(address=0x067D)
  2: 0x031D [0x46] CAMERA_CONTROL: Disable user control
  3: 0x031F [0x38] SET_CLIENT_EVENT_MODE(mode=19*)
  4: 0x0322 [0x79] LocalPlayer looks at LocalPlayer (Basic look)
  5: 0x032C [0x92] Patient Wheel (ID: 17744033/0x010EC0A1)->Render.Flags3 ^= 0x01
  6: 0x0332 [0x29] REQ_SET_WAIT(priority=0x10, entity_id=LocalPlayer, tag_num=0x40)
  7: 0x0339 [0x80] LOAD_WAIT(entity=LocalPlayer)
  8: 0x033E [0x1C] WAIT(15* ticks)
  9: 0x0341 [0x79] LocalPlayer looks at Patient Wheel (ID: 17744033/0x010EC0A1) (Basic look)
 10: 0x034B [0x45] LOAD_SCHEDULED_TASK: Load scheduler "bt20" with entities [LocalPlayer, LocalPlayer], work=[156*, 0*]
 11: 0x035C [0x1A] CALL_SUBROUTINE(address=0x065C)
 12: 0x035F [0x4A] Patient Wheel (ID: 17744033/0x010EC0A1) looks at LocalPlayer
 13: 0x0368 [0x6F] WAIT_FRAME_DELAY: Yield until WaitTime reaches zero
 14: 0x0369 [0x76] CHECK_ENTITY_RENDER_FLAGS: Wait until Patient Wheel (ID: 17744033/0x010EC0A1) Render.Flags0 and Render.Flags3 conditions are met
 15: 0x036E [0x7C] Patient Wheel (ID: 17744033/0x010EC0A1)->Render.Flags2 |= 0x00
 16: 0x0374 [0x2B] Patient Wheel (ID: 17744033/0x010EC0A1) [9183*]:
    → "!"
 17: 0x037B [0x23] WAIT_FOR_DIALOG_INTERACTION
 18: 0x037C [0x66] LOAD_EXT_SCHEDULER_MAIN: Load scheduler "tlk0" with entities [Patient Wheel (ID: 17744033/0x010EC0A1), Patient Wheel (ID: 17744033/0x010EC0A1)], work=60*
 19: 0x038B [0x7C] Patient Wheel (ID: 17744033/0x010EC0A1)->Render.Flags2 |= 0x01
 20: 0x0391 [0x2B] Patient Wheel (ID: 17744033/0x010EC0A1) [9184*]:
    → "You're an adventurer, you say? Are you sure it's okay for me to have these? I have no way to pay you..."
 21: 0x0398 [0x23] WAIT_FOR_DIALOG_INTERACTION
 22: 0x0399 [0x66] LOAD_EXT_SCHEDULER_MAIN: Load scheduler "tlk1" with entities [Patient Wheel (ID: 17744033/0x010EC0A1), Patient Wheel (ID: 17744033/0x010EC0A1)], work=60*
 23: 0x03A8 [0x24] CREATE_DIALOG(message_id=9198*, default_option=0*, option_flags=0*)
    → "What do you say? [I don't need them./I want some information.]"
 24: 0x03AF [0x25] WAIT_DIALOG_SELECT()
 25: 0x03B0 [0x02] IF !(Work_Zone[0] == 0*) GOTO 0x03D7
 26: 0x03B8 [0x6E] LocalPlayer uses emote 7*
 27: 0x03BF [0x99] Wait for LocalPlayer animation to complete
 28: 0x03C4 [0x99] Wait for LocalPlayer animation to complete
 29: 0x03C9 [0x1C] WAIT(15* ticks)
 30: 0x03CC [0x2B] Patient Wheel (ID: 17744033/0x010EC0A1) [9185*]:
    → "Thank you. You've saved me a lot of trouble."
 31: 0x03D3 [0x23] WAIT_FOR_DIALOG_INTERACTION
 32: 0x03D4 [0x01] GOTO 0x03F6
 33: 0x03D7 [0x02] IF !(Work_Zone[0] == 1*) GOTO 0x03F6
 34: 0x03DF [0x6E] LocalPlayer uses emote 6*
 35: 0x03E6 [0x99] Wait for LocalPlayer animation to complete
 36: 0x03EB [0x99] Wait for LocalPlayer animation to complete
 37: 0x03F0 [0x1C] WAIT(15* ticks)
 38: 0x03F3 [0x01] GOTO 0x03F6

SUBROUTINE_03F6:
 39: 0x03F6 [0x52] END_LOAD_SCHEDULER: End scheduler "bt20" with entities [LocalPlayer, LocalPlayer], work=156*
 40: 0x0405 [0x45] LOAD_SCHEDULED_TASK: Load scheduler "bt21" with entities [LocalPlayer, LocalPlayer], work=[156*, 0*]
 41: 0x0416 [0x66] LOAD_EXT_SCHEDULER_MAIN: Load scheduler "tlk0" with entities [Patient Wheel (ID: 17744033/0x010EC0A1), Patient Wheel (ID: 17744033/0x010EC0A1)], work=60*
 42: 0x0425 [0x2B] Patient Wheel (ID: 17744033/0x010EC0A1) [9186*]:
    → "I wanna tell you something. When I was unloading the cargo, I noticed this box wasn't filled with Tenshodo goods."
 43: 0x042C [0x23] WAIT_FOR_DIALOG_INTERACTION
 44: 0x042D [0x2B] Patient Wheel (ID: 17744033/0x010EC0A1) [9187*]:
    → "Instead, there was a pretty young girl inside."
 45: 0x0434 [0x23] WAIT_FOR_DIALOG_INTERACTION
 46: 0x0435 [0x66] LOAD_EXT_SCHEDULER_MAIN: Load scheduler "tlk1" with entities [Patient Wheel (ID: 17744033/0x010EC0A1), Patient Wheel (ID: 17744033/0x010EC0A1)], work=60*
 47: 0x0444 [0x53] WAIT_SCHEDULER_TASK: Wait for scheduler "tlk1" with entities [Patient Wheel (ID: 17744033/0x010EC0A1), Patient Wheel (ID: 17744033/0x010EC0A1)]
 48: 0x0451 [0x52] END_LOAD_SCHEDULER: End scheduler "bt21" with entities [LocalPlayer, LocalPlayer], work=156*
 49: 0x0460 [0x45] LOAD_SCHEDULED_TASK: Load scheduler "bt22" with entities [LocalPlayer, LocalPlayer], work=[156*, 0*]
 50: 0x0471 [0x2B] Patient Wheel (ID: 17744033/0x010EC0A1) [9188*]:
    → "Well, since she was invisible, I'm not really sure if she was pretty or not."
 51: 0x0478 [0x23] WAIT_FOR_DIALOG_INTERACTION
 52: 0x0479 [0x2B] Patient Wheel (ID: 17744033/0x010EC0A1) [9189*]:
    → "In any case, I guessed it must have been the lass that Captain Chieka said she dumped into the ocean."
 53: 0x0480 [0x23] WAIT_FOR_DIALOG_INTERACTION
 54: 0x0481 [0x2B] Patient Wheel (ID: 17744033/0x010EC0A1) [9190*]:
    → "I don't know if someone helped her out, or if she managed to escape herself, but thankfully she seemed okay."
 55: 0x0488 [0x23] WAIT_FOR_DIALOG_INTERACTION
 56: 0x0489 [0x52] END_LOAD_SCHEDULER: End scheduler "bt22" with entities [LocalPlayer, LocalPlayer], work=156*
 57: 0x0498 [0x45] LOAD_SCHEDULED_TASK: Load scheduler "bt23" with entities [LocalPlayer, LocalPlayer], work=[156*, 0*]
 58: 0x04A9 [0x66] LOAD_EXT_SCHEDULER_MAIN: Load scheduler "thk1" with entities [Patient Wheel (ID: 17744033/0x010EC0A1), Patient Wheel (ID: 17744033/0x010EC0A1)], work=60*
 59: 0x04B8 [0x2B] Patient Wheel (ID: 17744033/0x010EC0A1) [9191*]:
    → "Hm? You're looking for this girl? Did she tell me her name was Sanctia?"
 60: 0x04BF [0x23] WAIT_FOR_DIALOG_INTERACTION
 61: 0x04C0 [0x2B] Patient Wheel (ID: 17744033/0x010EC0A1) [9192*]:
    → "With all the people around, we didn't have much chance for conversation."
 62: 0x04C7 [0x23] WAIT_FOR_DIALOG_INTERACTION
 63: 0x04C8 [0x66] LOAD_EXT_SCHEDULER_MAIN: Load scheduler "thk2" with entities [Patient Wheel (ID: 17744033/0x010EC0A1), Patient Wheel (ID: 17744033/0x010EC0A1)], work=60*
 64: 0x04D7 [0x53] WAIT_SCHEDULER_TASK: Wait for scheduler "thk2" with entities [Patient Wheel (ID: 17744033/0x010EC0A1), Patient Wheel (ID: 17744033/0x010EC0A1)]
 65: 0x04E4 [0x2B] Patient Wheel (ID: 17744033/0x010EC0A1) [9193*]:
    → "But I'm sure she was headed for Selbina. Probably looking for another ship to Tavnazia, from what you tell me. Unless..."
 66: 0x04EB [0x23] WAIT_FOR_DIALOG_INTERACTION
 67: 0x04EC [0x1A] CALL_SUBROUTINE(address=0x067D)
 68: 0x04EF [0x1C] WAIT(30* ticks)
 69: 0x04F2 [0x52] END_LOAD_SCHEDULER: End scheduler "bt23" with entities [LocalPlayer, LocalPlayer], work=156*
 70: 0x0501 [0x34] LOAD_UNLOAD_ZONE(zone_id=103*)
 71: 0x0504 [0x77] SET_EVENT_TIME_WEATHER(hour=16*, weather=1*)
 72: 0x0509 [0x1C] WAIT(15* ticks)
 73: 0x050C [0x4E] SET_ENTITY_HIDE_FLAG: Hide Unnamed NPC (ID: 17743971/0x010EC063)
 74: 0x0512 [0x45] LOAD_SCHEDULED_TASK: Load scheduler "bt25" with entities [LocalPlayer, LocalPlayer], work=[156*, 0*]
 75: 0x0523 [0x1A] CALL_SUBROUTINE(address=0x065C)
 76: 0x0526 [0x2B] Patient Wheel (ID: 17744033/0x010EC0A1) [9194*]:
    → "There have been rumors of some weird eddy of darkness in a cave near Selbina that can take you to the Tavnazian Archipelago..."
 77: 0x052D [0x23] WAIT_FOR_DIALOG_INTERACTION
 78: 0x052E [0x2B] Patient Wheel (ID: 17744033/0x010EC0A1) [9195*]:
    → "They say a guy who entered that patch of Emptiness never returned."
 79: 0x0535 [0x23] WAIT_FOR_DIALOG_INTERACTION
 80: 0x0536 [0x52] END_LOAD_SCHEDULER: End scheduler "bt25" with entities [LocalPlayer, LocalPlayer], work=156*
 81: 0x0545 [0x45] LOAD_SCHEDULED_TASK: Load scheduler "bt24" with entities [LocalPlayer, LocalPlayer], work=[156*, 0*]
 82: 0x0556 [0x2B] Patient Wheel (ID: 17744033/0x010EC0A1) [9196*]:
    → "That story is still the talk of the town in Selbina. When your friend hears how dangerous it is, she'll give up on the idea, I'd say."
 83: 0x055D [0x23] WAIT_FOR_DIALOG_INTERACTION
 84: 0x055E [0x1A] CALL_SUBROUTINE(address=0x067D)
 85: 0x0561 [0x1C] WAIT(30* ticks)
 86: 0x0564 [0x4E] SET_ENTITY_HIDE_FLAG: Show Unnamed NPC (ID: 17743971/0x010EC063)
 87: 0x056A [0x52] END_LOAD_SCHEDULER: End scheduler "bt24" with entities [LocalPlayer, LocalPlayer], work=156*
 88: 0x0579 [0x35] LOAD_ZONE_NO_CLOSE(zone_id=236*)
 89: 0x057C [0x78] ENABLE_GAME_TIMER_RESET_WEATHER()
 90: 0x057D [0x1C] WAIT(15* ticks)
 91: 0x0580 [0x92] Patient Wheel (ID: 17744033/0x010EC0A1)->Render.Flags3 ^= 0x01
 92: 0x0586 [0x29] REQ_SET_WAIT(priority=0x10, entity_id=LocalPlayer, tag_num=0x40)
 93: 0x058D [0x80] LOAD_WAIT(entity=LocalPlayer)
 94: 0x0592 [0x80] LOAD_WAIT(entity=Patient Wheel (ID: 17744033/0x010EC0A1))
 95: 0x0597 [0x4A] Patient Wheel (ID: 17744033/0x010EC0A1) looks at LocalPlayer
 96: 0x05A0 [0x6F] WAIT_FRAME_DELAY: Yield until WaitTime reaches zero
 97: 0x05A1 [0x76] CHECK_ENTITY_RENDER_FLAGS: Wait until Patient Wheel (ID: 17744033/0x010EC0A1) Render.Flags0 and Render.Flags3 conditions are met
 98: 0x05A6 [0x1C] WAIT(15* ticks)
 99: 0x05A9 [0x79] LocalPlayer looks at Patient Wheel (ID: 17744033/0x010EC0A1) (Basic look)
100: 0x05B3 [0x45] LOAD_SCHEDULED_TASK: Load scheduler "bt26" with entities [LocalPlayer, LocalPlayer], work=[156*, 0*]
101: 0x05C4 [0x1A] CALL_SUBROUTINE(address=0x065C)
102: 0x05C7 [0x66] LOAD_EXT_SCHEDULER_MAIN: Load scheduler "tlk0" with entities [Patient Wheel (ID: 17744033/0x010EC0A1), Patient Wheel (ID: 17744033/0x010EC0A1)], work=60*
103: 0x05D6 [0x2B] Patient Wheel (ID: 17744033/0x010EC0A1) [9197*]:
    → "Oh, if you manage to catch up with Sanctia in Selbina, please tell her that Patient Wheel said hello, and to take care."
104: 0x05DD [0x23] WAIT_FOR_DIALOG_INTERACTION
105: 0x05DE [0x66] LOAD_EXT_SCHEDULER_MAIN: Load scheduler "tlk1" with entities [Patient Wheel (ID: 17744033/0x010EC0A1), Patient Wheel (ID: 17744033/0x010EC0A1)], work=60*
106: 0x05ED [0x1C] WAIT(30* ticks)
107: 0x05F0 [0x1A] CALL_SUBROUTINE(address=0x067D)
108: 0x05F3 [0x1C] WAIT(30* ticks)
109: 0x05F6 [0x52] END_LOAD_SCHEDULER: End scheduler "bt26" with entities [LocalPlayer, LocalPlayer], work=156*
110: 0x0605 [0x46] CAMERA_CONTROL: Restore default settings
111: 0x0607 [0x45] LOAD_SCHEDULED_TASK: Load scheduler "fdi2" with entities [LocalPlayer, LocalPlayer], work=[200*, 0*]
112: 0x0618 [0x21] END_EVENT
113: 0x0619 [0x00] END_REQSTACK()

SUBROUTINE_065C:
114: 0x065C [0x45] LOAD_SCHEDULED_TASK: Load scheduler "fdi1" with entities [LocalPlayer, LocalPlayer], work=[200*, 0*]
115: 0x066D [0x55] WAIT_LOAD_SCHEDULER: Wait for scheduler "fdi1" with entities [LocalPlayer, LocalPlayer], work=200*
116: 0x067C [0x1B] RETURN

SUBROUTINE_067D:
117: 0x067D [0x45] LOAD_SCHEDULED_TASK: Load scheduler "fdo1" with entities [LocalPlayer, LocalPlayer], work=[200*, 0*]
118: 0x068E [0x55] WAIT_LOAD_SCHEDULER: Wait for scheduler "fdo1" with entities [LocalPlayer, LocalPlayer], work=200*
119: 0x069D [0x1B] RETURN
```

#### Data or dead code:

```
# Dead code (unreachable instructions):
     0x061A [0x45] LOAD_SCHEDULED_TASK: Load scheduler "fdi0" with entities [LocalPlayer, LocalPlayer], work=[200*, 0*]
     0x062B [0x55] WAIT_LOAD_SCHEDULER: Wait for scheduler "fdi0" with entities [LocalPlayer, LocalPlayer], work=200*
     0x063A [0x1B] RETURN
     0x063B [0x45] LOAD_SCHEDULED_TASK: Load scheduler "fdo0" with entities [LocalPlayer, LocalPlayer], work=[200*, 0*]
     0x064C [0x55] WAIT_LOAD_SCHEDULER: Wait for scheduler "fdo0" with entities [LocalPlayer, LocalPlayer], work=200*
     0x065B [0x1B] RETURN
# Dead code (unreachable instructions):
     0x069E [0x45] LOAD_SCHEDULED_TASK: Load scheduler "whi1" with entities [LocalPlayer, LocalPlayer], work=[201*, 0*]
     0x06AF [0x55] WAIT_LOAD_SCHEDULER: Wait for scheduler "whi1" with entities [LocalPlayer, LocalPlayer], work=201*
     0x06BE [0x1B] RETURN
     0x06BF [0x45] LOAD_SCHEDULED_TASK: Load scheduler "who1" with entities [LocalPlayer, LocalPlayer], work=[201*, 0*]
     0x06D0 [0x55] WAIT_LOAD_SCHEDULER: Wait for scheduler "who1" with entities [LocalPlayer, LocalPlayer], work=201*
     0x06DF [0x1B] RETURN
     0x06E0 [0x45] LOAD_SCHEDULED_TASK: Load scheduler "who2" with entities [LocalPlayer, LocalPlayer], work=[201*, 0*]
     0x06F1 [0x55] WAIT_LOAD_SCHEDULER: Wait for scheduler "who2" with entities [LocalPlayer, LocalPlayer], work=201*
     0x0700 [0x1B] RETURN
     0x0701 [0x45] LOAD_SCHEDULED_TASK: Load scheduler "who3" with entities [LocalPlayer, LocalPlayer], work=[201*, 0*]
     0x0712 [0x55] WAIT_LOAD_SCHEDULER: Wait for scheduler "who3" with entities [LocalPlayer, LocalPlayer], work=201*
     0x0721 [0x1B] RETURN
     0x0722 [0x62] LOAD_EVENT_SCHEDULER: Load scheduler "main" with entities [LocalPlayer, LocalPlayer], work=[1*, 0*]
     0x0733 [0x1C] WAIT(45* ticks)
     0x0736 [0x45] LOAD_SCHEDULED_TASK: Load scheduler "fdo1" with entities [LocalPlayer, LocalPlayer], work=[200*, 0*]
     0x0747 [0x55] WAIT_LOAD_SCHEDULER: Wait for scheduler "fdo1" with entities [LocalPlayer, LocalPlayer], work=200*
     0x0756 [0x1B] RETURN
     0x0757 [0x45] LOAD_SCHEDULED_TASK: Load scheduler "fdi1" with entities [LocalPlayer, LocalPlayer], work=[200*, 0*]
     0x0768 [0x62] LOAD_EVENT_SCHEDULER: Load scheduler "main" with entities [LocalPlayer, LocalPlayer], work=[2*, 0*]
     0x0779 [0x1C] WAIT(30* ticks)
     0x077C [0x55] WAIT_LOAD_SCHEDULER: Wait for scheduler "fdi1" with entities [LocalPlayer, LocalPlayer], work=200*
     0x078B [0x1B] RETURN
     0x078C [0x45] LOAD_SCHEDULED_TASK: Load scheduler "blon" with entities [LocalPlayer, LocalPlayer], work=[200*, 0*]
     0x079D [0x45] LOAD_SCHEDULED_TASK: Load scheduler "blon" with entities [LocalPlayer, LocalPlayer], work=[201*, 0*]
     0x07AE [0x1B] RETURN
     0x07AF [0x45] LOAD_SCHEDULED_TASK: Load scheduler "whi0" with entities [LocalPlayer, LocalPlayer], work=[201*, 0*]
     0x07C0 [0x55] WAIT_LOAD_SCHEDULER: Wait for scheduler "whi0" with entities [LocalPlayer, LocalPlayer], work=201*
     0x07CF [0x1B] RETURN
     0x07D0 [0x45] LOAD_SCHEDULED_TASK: Load scheduler "who0" with entities [LocalPlayer, LocalPlayer], work=[201*, 0*]
     0x07E1 [0x55] WAIT_LOAD_SCHEDULER: Wait for scheduler "who0" with entities [LocalPlayer, LocalPlayer], work=201*
     0x07F0 [0x1B] RETURN
     0x07F1 [0x45] LOAD_SCHEDULED_TASK: Load scheduler "efon" with entities [LocalPlayer, LocalPlayer], work=[215*, 0*]
     0x0802 [0x55] WAIT_LOAD_SCHEDULER: Wait for scheduler "efon" with entities [LocalPlayer, LocalPlayer], work=215*
     0x0811 [0x1B] RETURN
     0x0812 [0x45] LOAD_SCHEDULED_TASK: Load scheduler "fdis" with entities [LocalPlayer, LocalPlayer], work=[200*, 0*]
     0x0823 [0x1B] RETURN
     0x0824 [0x45] LOAD_SCHEDULED_TASK: Load scheduler "fdos" with entities [LocalPlayer, LocalPlayer], work=[200*, 0*]
     0x0835 [0x55] WAIT_LOAD_SCHEDULER: Wait for scheduler "fdos" with entities [LocalPlayer, LocalPlayer], work=200*
     0x0844 [0x1B] RETURN
     0x0845 [0x45] LOAD_SCHEDULED_TASK: Load scheduler "fdif" with entities [LocalPlayer, LocalPlayer], work=[200*, 0*]
     0x0856 [0x1B] RETURN
     0x0857 [0x45] LOAD_SCHEDULED_TASK: Load scheduler "fdof" with entities [LocalPlayer, LocalPlayer], work=[200*, 0*]
     0x0868 [0x55] WAIT_LOAD_SCHEDULER: Wait for scheduler "fdof" with entities [LocalPlayer, LocalPlayer], work=200*
     0x0877 [0x1B] RETURN
     0x0878 [0x45] LOAD_SCHEDULED_TASK: Load scheduler "fdip" with entities [LocalPlayer, LocalPlayer], work=[200*, 0*]
     0x0889 [0x1B] RETURN
     0x088A [0x45] LOAD_SCHEDULED_TASK: Load scheduler "fdop" with entities [LocalPlayer, LocalPlayer], work=[200*, 0*]
     0x089B [0x55] WAIT_LOAD_SCHEDULER: Wait for scheduler "fdop" with entities [LocalPlayer, LocalPlayer], work=200*
     0x08AA [0x1B] RETURN
```
