# 17743919 - Rin

## Common Data

| Field            | Value                 |
|------------------|-----------------------|
| Zone             | Port Bastok (ID: 236) |
| Block Size       | 116 bytes             |
| Total Events     | 4                     |
| References Count | 10                    |

## List of Events

| Event ID                 | Entrypoint   |   Size |   Instructions |
|--------------------------|--------------|--------|----------------|
| [65535](#event-65535)    | 0x0000       |      1 |              1 |
| [36](#event-36)          | 0x0001       |     11 |              5 |
| [1](#event-1)            | 0x000C       |     10 |              2 |
| [65535.1](#event-655351) | 0x0016       |     22 |              6 |

## DAT References (imed_data)

|   Index | Hex Value   |   Dec Value |
|---------|-------------|-------------|
|       0 | 0x1D2F      |        7471 |
|       1 | 0xFFFE042A  |  4294837290 |
|       2 | 0xFFFFF701  |  4294964993 |
|       3 | 0xFFFFE7EF  |  4294961135 |
|       4 | 0x01FF      |         511 |
|       5 | 0x00B4      |         180 |
|       6 | 0x0028      |          40 |
|       7 | 0xFFFE285D  |  4294846557 |
|       8 | 0xFFFFD6E2  |  4294956770 |
|       9 | 0xFFFFFC18  |  4294966296 |

## String References

- **7471**: C'mon, Grandma! Over here!

## Events

### Event 65535

#### Metadata

| Field        | Value   |
|--------------|---------|
| Entrypoint   | 0x0000  |
| Data Size    | 1 bytes |
| Instructions | 1       |

```
      00 01 02 03 04 05 06 07  08 09 0A 0B 0C 0D 0E 0F
      -- -- -- -- -- -- -- --  -- -- -- -- -- -- -- --
0000: 00                                                .               
```

#### Opcodes

```
  0: 0x0000 [0x00] END_REQSTACK()
```

### Event 36

#### Metadata

| Field        | Value    |
|--------------|----------|
| Entrypoint   | 0x0001   |
| Data Size    | 11 bytes |
| Instructions | 5        |

```
      00 01 02 03 04 05 06 07  08 09 0A 0B 0C 0D 0E 0F
      -- -- -- -- -- -- -- --  -- -- -- -- -- -- -- --
0000:    1E 2E C0 0E 01 1D 00  80 23 21 00               ........#!.    
```

#### Opcodes

```
  0: 0x0001 [0x1E] EventEntity looks at Tete (ID: 17743918/0x010EC02E) and starts talking
  1: 0x0006 [0x1D] PRINT_EVENT_MESSAGE(message_id=7471*)
    → "C'mon, Grandma! Over here!"
  2: 0x0009 [0x23] WAIT_FOR_DIALOG_INTERACTION
  3: 0x000A [0x21] END_EVENT
  4: 0x000B [0x00] END_REQSTACK()
```

### Event 1

#### Metadata

| Field        | Value    |
|--------------|----------|
| Entrypoint   | 0x000C   |
| Data Size    | 10 bytes |
| Instructions | 2        |

```
      00 01 02 03 04 05 06 07  08 09 0A 0B 0C 0D 0E 0F
      -- -- -- -- -- -- -- --  -- -- -- -- -- -- -- --
0000:                                      37 01 80 02              7...
0010: 80 03 80 04 80 00                                 ......          
```

#### Opcodes

```
  0: 0x000C [0x37] UPDATE_EVENT_POSITION_AND_DIR: x=-130.006*, z=-2.303*, y=-6.161*, direction=44.9°*
  1: 0x0015 [0x00] END_REQSTACK()
```

### Event 65535.1

#### Metadata

| Field        | Value    |
|--------------|----------|
| Entrypoint   | 0x0016   |
| Data Size    | 22 bytes |
| Instructions | 6        |

```
      00 01 02 03 04 05 06 07  08 09 0A 0B 0C 0D 0E 0F
      -- -- -- -- -- -- -- --  -- -- -- -- -- -- -- --
0010:                   1C 05  80 32 06 80 1F 00 07 80        ...2......
0020: 08 80 09 80 1F 01 1E 2E  C0 0E 01 00              ............    
```

#### Opcodes

```
  0: 0x0016 [0x1C] WAIT(180* ticks)
  1: 0x0019 [0x32] ExtData[1]->MainSpeed = 40* * 0.1
  2: 0x001C [0x1F] MOVE_ENTITY: EventEntity moves to X=-120.739*, Z=-10.526*, Y=-1.000*
  3: 0x0024 [0x1F] MOVE_ENTITY: Update entity position (mode=1)
  4: 0x0026 [0x1E] EventEntity looks at Tete (ID: 17743918/0x010EC02E) and starts talking
  5: 0x002B [0x00] END_REQSTACK()
```
