# 17744238 - Ancestry Moogle

## Common Data

| Field            | Value                 |
|------------------|-----------------------|
| Zone             | Port Bastok (ID: 236) |
| Block Size       | 5524 bytes            |
| Total Events     | 3                     |
| References Count | 93                    |

## List of Events

| Event ID              | Entrypoint   |   Size |   Instructions |
|-----------------------|--------------|--------|----------------|
| [65535](#event-65535) | 0x0000       |      1 |              1 |
| [480](#event-480)     | 0x0001       |     75 |             24 |
| [479](#event-479)     | 0x004C       |   5046 |            904 |

## DAT References (imed_data)

|   Index | Hex Value   |   Dec Value |
|---------|-------------|-------------|
|       0 | 0x374E      |       14158 |
|       1 | 0x0000      |           0 |
|       2 | 0x374F      |       14159 |
|       3 | 0x0003      |           3 |
|       4 | 0x262C      |        9772 |
|       5 | 0x3756      |       14166 |
|       6 | 0x0002      |           2 |
|       7 | 0x3750      |       14160 |
|       8 | 0x376D      |       14189 |
|       9 | 0x3757      |       14167 |
|      10 | 0x3758      |       14168 |
|      11 | 0xFFFFFFFF  |  4294967295 |
|      12 | 0x0007      |           7 |
|      13 | 0x0078      |         120 |
|      14 | 0x0013      |          19 |
|      15 | 0x00A9      |         169 |
|      16 | 0x02E8      |         744 |
|      17 | 0x001E      |          30 |
|      18 | 0x000B      |          11 |
|      19 | 0x0001      |           1 |
|      20 | 0x05DC      |        1500 |
|      21 | 0x00C0      |         192 |
|      22 | 0x003C      |          60 |
|      23 | 0x0098      |         152 |
|      24 | 0x00EC      |         236 |
|      25 | 0x40000000  |  1073741824 |
|      26 | 0x00C8      |         200 |
|      27 | 0x00C9      |         201 |
|      28 | 0x3759      |       14169 |
|      29 | 0x0004      |           4 |
|      30 | 0x375A      |       14170 |
|      31 | 0x0FA0      |        4000 |
|      32 | 0xFFFFFB50  |  4294966096 |
|      33 | 0x0005      |           5 |
|      34 | 0x0006      |           6 |
|      35 | 0x3763      |       14179 |
|      36 | 0x3765      |       14181 |
|      37 | 0x3766      |       14182 |
|      38 | 0x3767      |       14183 |
|      39 | 0x3768      |       14184 |
|      40 | 0x376A      |       14186 |
|      41 | 0x376B      |       14187 |
|      42 | 0x376C      |       14188 |
|      43 | 0x001A      |          26 |
|      44 | 0x0008      |           8 |
|      45 | 0x000D      |          13 |
|      46 | 0x000F      |          15 |
|      47 | 0x000C      |          12 |
|      48 | 0x0010      |          16 |
|      49 | 0x0011      |          17 |
|      50 | 0x3762      |       14178 |
|      51 | 0x03E7      |         999 |
|      52 | 0x375D      |       14173 |
|      53 | 0x375E      |       14174 |
|      54 | 0x375F      |       14175 |
|      55 | 0x3760      |       14176 |
|      56 | 0x3761      |       14177 |
|      57 | 0x0080      |         128 |
|      58 | 0x0030      |          48 |
|      59 | 0x15180     |       86400 |
|      60 | 0x3752      |       14162 |
|      61 | 0x0E10      |        3600 |
|      62 | 0x3753      |       14163 |
|      63 | 0x3754      |       14164 |
|      64 | 0x3755      |       14165 |
|      65 | 0x375B      |       14171 |
|      66 | 0x375C      |       14172 |
|      67 | 0x0085      |         133 |
|      68 | 0x00A8      |         168 |
|      69 | 0x0084      |         132 |
|      70 | 0x0083      |         131 |
|      71 | 0x00A7      |         167 |
|      72 | 0x0082      |         130 |
|      73 | 0x00A6      |         166 |
|      74 | 0x00A5      |         165 |
|      75 | 0x1000      |        4096 |
|      76 | 0x005F      |          95 |
|      77 | 0x0064      |         100 |
|      78 | 0x0069      |         105 |
|      79 | 0x0052      |          82 |
|      80 | 0x0057      |          87 |
|      81 | 0x005C      |          92 |
|      82 | 0x0059      |          89 |
|      83 | 0x005D      |          93 |
|      84 | 0x0061      |          97 |
|      85 | 0x0060      |          96 |
|      86 | 0x0335      |         821 |
|      87 | 0x376E      |       14190 |
|      88 | 0x376F      |       14191 |
|      89 | 0x3770      |       14192 |
|      90 | 0x3771      |       14193 |
|      91 | 0x3774      |       14196 |
|      92 | 0x3775      |       14197 |

## String References

- **14158**: Welcome to the Race Change service, kupo!
- **14159**: Please check the official website for more details regarding our service.
- **14160**: Thank you for using the Race Change service, adventurer!
- **14162**: You have $0 more day[/s] to use this service, kupo.
- **14163**: You have $0 hour[/s] $1 minute[/s] $2 second[/s] remaining to use this service, kupo.
- **14164**: You have $1 minute[/s] $2 second[/s] remaining to use this service, kupo.
- **14165**: You have $2 second[/s] remaining to use this service, kupo.
- **14166**: Please make sure to exchange your $3 while it is still valid, kupo.
- **14167**: Careful though! If your service period expires while you're still making changes, you'll lose any changes you've made!
- **14168**: Also, as a general rule, we are unable to guarantee service in the event of any unexpected issues such as network problems. Therefore, it's wise to make your changes with plenty of time to spare, kupo!
- **14169**: Character Race Change Service Menu [Select race. [/$26Changing]/Select face type. [/$26Changing]/Select hair color. [/$26Changing]/Select size. [/$26Changing]/Enable camera movement./View current appearance./Change to specified appearance./Exit.]
- **14170**: You can move the camera to check your character's appearance. If using a keyboard, hold down the shift key and press the camera key in order to move the camera.
- **14171**: You will lose your character's current appearance. Are you sure you want to exit the process?
- **14172**: Are you finished making changes? [Yes./No.]
- **14173**: Choose your character's race and gender. [Hume (male). [/$26Selected/(race before change)]/Hume (female). [/$26Selected/(race before change)]/Elvaan (male).@@ [/$26Selected/(race before change)]/Elvaan (female). @[/$26Selected/(race before change)]/Tarutaru (male).@ [/$26Selected/(race before change)]/Tarutaru (female). [/$26Selected/(race before change)]/Mithra. [/$26Selected/(race before change)]/Galka. [/$26Selected/(race before change)]/Back.]
- **14174**: Choose your character's face type. [Face type 1.@[/$26Selected/(face before change)]/Face type 2.@[/$26Selected/(face before change)]/Face type 3.@[/$26Selected/(face before change)]/Face type 4.@[/$26Selected/(face before change)]/Face type 5.@[/$26Selected/(face before change)]/Face type 6.@[/$26Selected/(face before change)]/Face type 7.@[/$26Selected/(face before change)]/Face type 8.@[/$26Selected/(face before change)]/Back.]
- **14175**: Choose your character's hair color. [Hair A. [/$26Selected/(hair before change)]/Hair B. [/$26Selected/(hair before change)]/Back.]
- **14176**: Choose your character's size. [Small. [/$26Selected/(size before change)]/Medium. [/$26Selected/(size before change)]/Large. [/$26Selected/(size before change)]/Back.]
- **14177**: Character display settings. [([$26/@])Display edits./([@/$26])Display translucently./([@/@/$26])Don't display old./([$26/@/@])Display old./([@/$26/@])Display old translucently./([@/$26])Display overlap./([$26/@])Display old to the side./Back.]
- **14178**: You have not edited any character attributes. Select Exit from the menu if you wish to exit this mode without making any changes.
- **14179**: If you change your character to the specified race, it will lose its previous race as well as any gender-specific equipment.
- **14181**: Certain items can be exchanged for equippable ones by speaking with %.
- **14182**: Applicable items can be checked with % after changing races.
- **14183**: In addition, the following stats may be adjusted depending on your character's new race: HP, MP, STR, DEX, VIT, AGI, INT, MND, CHR
- **14184**: ---------------------------------------------- Race (after change): [None/Hume (male)/Hume (female)/Elvaan (male)/Elvaan (female)/Tarutaru (male)/Tarutaru (female)/Mithra/Galka] Face type: $11@Hair color: [A/B]@Size: [S/M/L] ----------------------------------------------
- **14186**: Change your character to this appearance? [Yes./No.]
- **14187**: Are you absolutely sure? [Yes./No.]
- **14188**: May Altana bless you as you begin your new life, kupo!
- **14189**: You can trade me certain items that you can no longer use because of your race or gender change, kupo!
- **14190**: Let me see if you have any.
- **14191**: Items held by NPCs or stored with storage slips are ineligible.
- **14192**: Have the moogle check? [Yes, please./No, thank you.]
- **14193**: Let's get down to business, kupo.
- **14196**: That should cover it!
- **14197**: Wait...I can't take anything you have.

## Events

### Event 65535

#### Metadata

| Field        | Value   |
|--------------|---------|
| Entrypoint   | 0x0000  |
| Data Size    | 1 bytes |
| Instructions | 1       |

```
      00 01 02 03 04 05 06 07  08 09 0A 0B 0C 0D 0E 0F
      -- -- -- -- -- -- -- --  -- -- -- -- -- -- -- --
0000: 00                                                .               
```

#### Opcodes

```
  0: 0x0000 [0x00] END_REQSTACK()
```

### Event 480

#### Metadata

| Field        | Value    |
|--------------|----------|
| Entrypoint   | 0x0001   |
| Data Size    | 75 bytes |
| Instructions | 24       |

```
      00 01 02 03 04 05 06 07  08 09 0A 0B 0C 0D 0E 0F
      -- -- -- -- -- -- -- --  -- -- -- -- -- -- -- --
0000:    1E F0 FF FF 7F 6F 70  1D 00 80 23 02 07 10 01   .....op...#....
0010: 80 00 1B 00 1D 02 80 23  01 4A 00 3E 07 10 03 80  .......#.J.>....
0020: 31 00 1A 05 0B 03 05 10  04 80 1D 05 80 23 01 4A  1............#.J
0030: 00 3E 07 10 06 80 3C 00  1D 07 80 23 1D 08 80 23  .>....<....#...#
0040: 3E 07 10 01 80 4A 00 1A  DF 0F 21 00              >....J....!.    
```

#### Opcodes

```
  0: 0x0001 [0x1E] EventEntity looks at LocalPlayer and starts talking
  1: 0x0006 [0x6F] WAIT_FRAME_DELAY: Yield until WaitTime reaches zero
  2: 0x0007 [0x70] WAIT_ENTITY_RENDER_FLAG: Wait while EventEntity->Render.Flags3 bit 2 is set (cancel turn if not)
  3: 0x0008 [0x1D] PRINT_EVENT_MESSAGE(message_id=14158*)
    → "Welcome to the Race Change service, kupo!"
  4: 0x000B [0x23] WAIT_FOR_DIALOG_INTERACTION
  5: 0x000C [0x02] IF !(Work_Zone[7] == 0*) GOTO 0x001B
  6: 0x0014 [0x1D] PRINT_EVENT_MESSAGE(message_id=14159*)
    → "Please check the official website for more details regarding our service."
  7: 0x0017 [0x23] WAIT_FOR_DIALOG_INTERACTION
  8: 0x0018 [0x01] GOTO 0x004A
  9: 0x001B [0x3E] IF !(Work_Zone[7] bit 3*) GOTO 0x0031
 10: 0x0022 [0x1A] CALL_SUBROUTINE(address=0x0B05)
 11: 0x0025 [0x03] Work_Zone[5] = 9772*
 12: 0x002A [0x1D] PRINT_EVENT_MESSAGE(message_id=14166*)
    → "Please make sure to exchange your $3 while it is still valid, kupo."
 13: 0x002D [0x23] WAIT_FOR_DIALOG_INTERACTION
 14: 0x002E [0x01] GOTO 0x004A
 15: 0x0031 [0x3E] IF !(Work_Zone[7] bit 2*) GOTO 0x003C
 16: 0x0038 [0x1D] PRINT_EVENT_MESSAGE(message_id=14160*)
    → "Thank you for using the Race Change service, adventurer!"
 17: 0x003B [0x23] WAIT_FOR_DIALOG_INTERACTION
 18: 0x003C [0x1D] PRINT_EVENT_MESSAGE(message_id=14189*)
    → "You can trade me certain items that you can no longer use because of your race or gender change, kupo!"
 19: 0x003F [0x23] WAIT_FOR_DIALOG_INTERACTION
 20: 0x0040 [0x3E] IF !(Work_Zone[7] bit 0*) GOTO 0x004A
 21: 0x0047 [0x1A] CALL_SUBROUTINE(address=0x0FDF)

SUBROUTINE_004A:
 22: 0x004A [0x21] END_EVENT
 23: 0x004B [0x00] END_REQSTACK()
```

### Event 479

#### Metadata

| Field        | Value      |
|--------------|------------|
| Entrypoint   | 0x004C     |
| Data Size    | 5046 bytes |
| Instructions | 654        |

```
      00 01 02 03 04 05 06 07  08 09 0A 0B 0C 0D 0E 0F
      -- -- -- -- -- -- -- --  -- -- -- -- -- -- -- --
0040:                                      42 03 00 00              B...
0050: 02 10 03 01 00 03 10 03  03 00 04 10 03 02 00 05  ................
0060: 10 03 04 00 00 00 03 05  00 01 00 03 06 00 02 00  ................
0070: 03 07 00 03 00 03 5B 10  00 00 03 5C 10 01 00 03  ......[....\....
0080: 5E 10 03 00 03 5D 10 02  00 03 0B 00 07 10 1E F0  ^....]..........
0090: FF FF 7F 6F 70 1D 00 80  23 02 06 10 01 80 02 AF  ...op...#.......
00A0: 00 1A 05 0B 1D 09 80 23  1D 0A 80 23 01 D0 00 02  .......#...#....
00B0: 06 10 0B 80 00 BA 00 01  D0 00 3E 0B 00 01 80 CB  ..........>.....
00C0: 00 1D 08 80 23 1A DF 0F  01 CF 00 1D 02 80 23 21  ....#.........#!
00D0: 1A BE 0F 03 01 10 01 80  40 01 80 0C 80 01 10 06  ........@.......
00E0: 80 43 00 43 01 03 0C 00  02 10 03 0D 00 03 10 03  .C.C............
00F0: 0E 00 04 10 03 0F 00 05  10 03 10 00 06 10 03 11  ................
0100: 00 07 10 03 12 00 08 10  03 13 00 09 10 4E 01 63  .............N.c
0110: C0 0E 01 46 01 1C 0D 80  38 0E 80 03 5A 10 0F 80  ...F....8...Z...
0120: 34 10 80 1C 11 80 77 12  80 13 80 4E 01 F8 FF FF  4.....w....N....
0130: 7F BA F0 FF FF 7F 01 80  01 80 01 80 01 80 4E 00  ..............N.
0140: F0 FF FF 7F 03 15 00 14  80 03 14 00 15 80 2F 00  ............../.
0150: 70 C1 0E 01 29 10 70 C1  0E 01 02 BA 70 C1 0E 01  p...).p.....p...
0160: 01 80 15 00 01 80 14 00  80 70 C1 0E 01 03 17 00  .........p......
0170: 06 80 4E 01 70 C1 0E 01  1C 16 80 2F 00 6F C1 0E  ..N.p....../.o..
0180: 01 1C 16 80 03 18 00 01  80 1A 57 0C 1A 13 0D 03  ..........W.....
0190: 19 00 01 80 03 1A 00 01  80 1A 72 0D 1A 92 0E 1A  ..........r.....
01A0: 9D 0F 1A 01 02 1A BE 0F  1C 0D 80 1A AA 0C 46 00  ..............F.
01B0: 5C 00 17 80 5C 01 17 80  35 18 80 B6 10 4E 00 63  \...\...5....N.c
01C0: C0 0E 01 AB 11 01 80 AB  0A 78 1C 16 80 02 01 10  .........x......
01D0: 19 80 00 EC 01 1C 16 80  45 1A 80 F0 FF FF 7F F0  ........E.......
01E0: FF FF 7F 66 64 69 32 01  80 01 FD 01 45 1B 80 F0  ...fdi2.....E...
01F0: FF FF 7F F0 FF FF 7F 77  68 69 31 01 80 46 00 21  .......whi1..F.!
0200: 00 05 1E 00 02 1E 00 01  80 01 E0 04 03 20 00 01  ............. ..
0210: 80 02 04 00 00 00 00 21  02 03 02 17 01 80 01 2D  .......!.......-
0220: 02 03 02 17 13 80 3C 20  00 01 80 13 80 02 05 00  ......< ........
0230: 01 00 00 3D 02 03 03 17  01 80 01 49 02 03 03 17  ...=.......I....
0240: 13 80 3C 20 00 13 80 13  80 02 06 00 02 00 00 59  ..< ...........Y
0250: 02 03 04 17 01 80 01 65  02 03 04 17 13 80 3C 20  .......e......< 
0260: 00 06 80 13 80 02 07 00  03 00 00 75 02 03 05 17  ...........u....
0270: 01 80 01 81 02 03 05 17  13 80 3C 20 00 03 80 13  ..........< ....
0280: 80 02 19 00 0B 80 00 91  02 03 06 17 13 80 01 96  ................
0290: 02 03 06 17 01 80 24 1C  80 1F 00 01 80 25 02 00  ......$......%..
02A0: 10 01 80 00 C4 02 03 1F  00 01 80 02 19 00 0B 80  ................
02B0: 01 BB 02 03 19 00 01 80  1A 72 0D 1A 72 0D 1A E1  .........r..r...
02C0: 04 01 DD 04 02 00 10 13  80 00 E7 02 03 1F 00 13  ................
02D0: 80 02 19 00 0B 80 01 E1  02 03 19 00 13 80 1A 72  ...............r
02E0: 0D 1A C9 06 01 DD 04 02  00 10 06 80 00 0D 03 03  ................
02F0: 1F 00 06 80 02 19 00 0B  80 01 04 03 03 19 00 13  ................
0300: 80 1A 72 0D 1A 72 0D 1A  B1 08 01 DD 04 02 00 10  ..r..r..........
0310: 03 80 00 30 03 03 1F 00  03 80 02 19 00 0B 80 01  ...0............
0320: 2A 03 03 19 00 01 80 1A  72 0D 1A 49 09 01 DD 04  *.......r..I....
0330: 02 00 10 1D 80 00 77 03  03 1F 00 1D 80 1A BE 0F  ......w.........
0340: 02 19 00 0B 80 01 61 03  48 1E 80 23 1C 16 80 46  ......a.H..#...F
0350: 00 46 03 1F 80 20 80 01  80 03 19 00 0B 80 01 71  .F... .........q
0360: 03 1C 16 80 46 01 03 19  00 01 80 1A 72 0D 1A 92  ....F.......r...
0370: 0E 1A 9D 0F 01 DD 04 02  00 10 21 80 00 8A 03 03  ..........!.....
0380: 1F 00 21 80 1A 19 0A 01  DD 04 02 00 10 22 80 00  ..!.........."..
0390: AB 04 03 1F 00 22 80 02  20 00 01 80 01 A4 04 02  .....".. .......
03A0: 19 00 0B 80 01 B2 03 03  19 00 01 80 1A 72 0D 1A  .............r..
03B0: 92 0E 03 5A 10 0F 80 02  04 00 00 00 01 CF 03 48  ...Z...........H
03C0: 23 80 23 48 24 80 23 48  25 80 23 48 26 80 23 03  #.#H$.#H%.#H&.#.
03D0: 02 17 04 00 03 03 17 05  00 0B 03 17 03 04 17 06  ................
03E0: 00 03 05 17 07 00 48 27  80 23 24 28 80 13 80 01  ......H'.#$(....
03F0: 80 25 02 00 10 01 80 00  A1 04 1C 16 80 24 29 80  .%...........$).
0400: 13 80 01 80 25 02 00 10  01 80 00 9E 04 1D 2A 80  ....%.........*.
0410: 23 6E F0 FF FF 7F 12 80  99 F0 FF FF 7F 99 F0 FF  #n..............
0420: FF 7F 45 1B 80 F0 FF FF  7F F0 FF FF 7F 77 68 6F  ..E..........who
0430: 31 01 80 55 1B 80 F0 FF  FF 7F F0 FF FF 7F 77 68  1..U..........wh
0440: 6F 31 1C 16 80 62 2B 80  F0 FF FF 7F F0 FF FF 7F  o1...b+.........
0450: 6D 61 69 6E 01 80 A0 2B  80 F0 FF FF 7F F0 FF FF  main...+........
0460: 7F 6D 61 69 6E 06 1E 00  03 01 10 01 80 40 01 80  .main........@..
0470: 0C 80 01 10 13 80 40 2C  80 12 80 01 10 04 00 40  ......@,.......@
0480: 2D 80 2E 80 01 10 05 00  40 2F 80 2F 80 01 10 06  -.......@/./....
0490: 00 40 30 80 31 80 01 10  07 00 1B 01 9E 04 01 A1  .@0.1...........
04A0: 04 01 A8 04 48 32 80 23  01 DD 04 02 00 10 33 80  ....H2.#......3.
04B0: 00 B6 04 01 DD 04 03 1F  00 00 10 1A 63 0B 02 1C  ............c...
04C0: 00 01 80 01 DD 04 1A BE  0F 1C 0D 80 03 5A 10 01  .............Z..
04D0: 80 1C 16 80 06 1E 00 03  01 10 19 80 1B 01 04 02  ................
04E0: 1B 05 21 00 02 21 00 01  80 01 C8 06 1A BE 0B 03  ..!..!..........
04F0: 03 17 01 80 03 04 17 01  80 03 05 17 01 80 03 06  ................
0500: 17 01 80 03 07 17 01 80  03 08 17 01 80 03 09 17  ................
0510: 01 80 03 0A 17 01 80 02  00 00 13 80 80 27 05 03  .............'..
0520: 03 17 06 80 01 97 05 02  00 00 06 80 80 37 05 03  .............7..
0530: 04 17 06 80 01 97 05 02  00 00 03 80 80 47 05 03  .............G..
0540: 05 17 06 80 01 97 05 02  00 00 1D 80 80 57 05 03  .............W..
0550: 06 17 06 80 01 97 05 02  00 00 21 80 80 67 05 03  ..........!..g..
0560: 07 17 06 80 01 97 05 02  00 00 22 80 80 77 05 03  .........."..w..
0570: 08 17 06 80 01 97 05 02  00 00 0C 80 80 87 05 03  ................
0580: 09 17 06 80 01 97 05 02  00 00 2C 80 80 97 05 03  ..........,.....
0590: 0A 17 06 80 01 97 05 02  04 00 00 00 01 1F 06 02  ................
05A0: 04 00 13 80 80 AF 05 03  03 17 13 80 01 1F 06 02  ................
05B0: 04 00 06 80 80 BF 05 03  04 17 13 80 01 1F 06 02  ................
05C0: 04 00 03 80 80 CF 05 03  05 17 13 80 01 1F 06 02  ................
05D0: 04 00 1D 80 80 DF 05 03  06 17 13 80 01 1F 06 02  ................
05E0: 04 00 21 80 80 EF 05 03  07 17 13 80 01 1F 06 02  ..!.............
05F0: 04 00 22 80 80 FF 05 03  08 17 13 80 01 1F 06 02  ..".............
0600: 04 00 0C 80 80 0F 06 03  09 17 13 80 01 1F 06 02  ................
0610: 04 00 2C 80 80 1F 06 03  0A 17 13 80 01 1F 06 24  ..,............$
0620: 34 80 22 00 01 80 25 02  00 10 01 80 00 3A 06 03  4."...%......:..
0630: 04 00 13 80 1A 44 0C 01  C0 06 02 00 10 13 80 00  .....D..........
0640: 4D 06 03 04 00 06 80 1A  44 0C 01 C0 06 02 00 10  M.......D.......
0650: 06 80 00 60 06 03 04 00  03 80 1A 44 0C 01 C0 06  ...`.......D....
0660: 02 00 10 03 80 00 73 06  03 04 00 1D 80 1A 44 0C  ......s.......D.
0670: 01 C0 06 02 00 10 1D 80  00 86 06 03 04 00 21 80  ..............!.
0680: 1A 44 0C 01 C0 06 02 00  10 21 80 00 99 06 03 04  .D.......!......
0690: 00 22 80 1A 44 0C 01 C0  06 02 00 10 22 80 00 AC  ."..D......."...
06A0: 06 03 04 00 0C 80 1A 44  0C 01 C0 06 02 00 10 0C  .......D........
06B0: 80 00 BF 06 03 04 00 2C  80 1A 44 0C 01 C0 06 1B  .......,..D.....
06C0: 03 22 00 00 10 01 E4 04  1B 05 23 00 02 23 00 01  ."........#..#..
06D0: 80 01 B0 08 1A BE 0B 03  03 17 01 80 03 04 17 01  ................
06E0: 80 03 05 17 01 80 03 06  17 01 80 03 07 17 01 80  ................
06F0: 03 08 17 01 80 03 09 17  01 80 03 0A 17 01 80 02  ................
0700: 01 00 01 80 80 0F 07 03  03 17 06 80 01 7F 07 02  ................
0710: 01 00 13 80 80 1F 07 03  04 17 06 80 01 7F 07 02  ................
0720: 01 00 06 80 80 2F 07 03  05 17 06 80 01 7F 07 02  ...../..........
0730: 01 00 03 80 80 3F 07 03  06 17 06 80 01 7F 07 02  .....?..........
0740: 01 00 1D 80 80 4F 07 03  07 17 06 80 01 7F 07 02  .....O..........
0750: 01 00 21 80 80 5F 07 03  08 17 06 80 01 7F 07 02  ..!.._..........
0760: 01 00 22 80 80 6F 07 03  09 17 06 80 01 7F 07 02  .."..o..........
0770: 01 00 0C 80 80 7F 07 03  0A 17 06 80 01 7F 07 02  ................
0780: 05 00 01 00 01 07 08 02  05 00 01 80 80 97 07 03  ................
0790: 03 17 13 80 01 07 08 02  05 00 13 80 80 A7 07 03  ................
07A0: 04 17 13 80 01 07 08 02  05 00 06 80 80 B7 07 03  ................
07B0: 05 17 13 80 01 07 08 02  05 00 03 80 80 C7 07 03  ................
07C0: 06 17 13 80 01 07 08 02  05 00 1D 80 80 D7 07 03  ................
07D0: 07 17 13 80 01 07 08 02  05 00 21 80 80 E7 07 03  ..........!.....
07E0: 08 17 13 80 01 07 08 02  05 00 22 80 80 F7 07 03  ..........".....
07F0: 09 17 13 80 01 07 08 02  05 00 0C 80 80 07 08 03  ................
0800: 0A 17 13 80 01 07 08 24  35 80 24 00 01 80 25 02  .......$5.$...%.
0810: 00 10 01 80 00 22 08 03  05 00 01 80 1A 57 0C 01  .....".......W..
0820: A8 08 02 00 10 13 80 00  35 08 03 05 00 13 80 1A  ........5.......
0830: 57 0C 01 A8 08 02 00 10  06 80 00 48 08 03 05 00  W..........H....
0840: 06 80 1A 57 0C 01 A8 08  02 00 10 03 80 00 5B 08  ...W..........[.
0850: 03 05 00 03 80 1A 57 0C  01 A8 08 02 00 10 1D 80  ......W.........
0860: 00 6E 08 03 05 00 1D 80  1A 57 0C 01 A8 08 02 00  .n.......W......
0870: 10 21 80 00 81 08 03 05  00 21 80 1A 57 0C 01 A8  .!.......!..W...
0880: 08 02 00 10 22 80 00 94  08 03 05 00 22 80 1A 57  ...."......."..W
0890: 0C 01 A8 08 02 00 10 0C  80 00 A7 08 03 05 00 0C  ................
08A0: 80 1A 57 0C 01 A8 08 1B  03 24 00 00 10 01 CC 06  ..W......$......
08B0: 1B 05 25 00 02 25 00 01  80 01 48 09 1A BE 0B 03  ..%..%....H.....
08C0: 03 17 01 80 03 04 17 01  80 02 02 00 01 80 80 D9  ................
08D0: 08 03 03 17 06 80 01 E9  08 02 02 00 13 80 80 E9  ................
08E0: 08 03 04 17 06 80 01 E9  08 02 06 00 02 00 01 11  ................
08F0: 09 02 06 00 01 80 80 01  09 03 03 17 13 80 01 11  ................
0900: 09 02 06 00 13 80 80 11  09 03 04 17 13 80 01 11  ................
0910: 09 24 36 80 26 00 01 80  25 02 00 10 01 80 00 2C  .$6.&...%......,
0920: 09 03 06 00 01 80 1A 57  0C 01 40 09 02 00 10 13  .......W..@.....
0930: 80 00 3F 09 03 06 00 13  80 1A 57 0C 01 40 09 1B  ..?.......W..@..
0940: 03 26 00 00 10 01 B4 08  1B 05 27 00 02 27 00 01  .&........'..'..
0950: 80 01 18 0A 1A BE 0B 03  03 17 01 80 03 04 17 01  ................
0960: 80 03 05 17 01 80 02 03  00 01 80 80 76 09 03 03  ............v...
0970: 17 06 80 01 96 09 02 03  00 13 80 80 86 09 03 04  ................
0980: 17 06 80 01 96 09 02 03  00 06 80 80 96 09 03 05  ................
0990: 17 06 80 01 96 09 02 07  00 03 00 01 CE 09 02 07  ................
09A0: 00 01 80 80 AE 09 03 03  17 13 80 01 CE 09 02 07  ................
09B0: 00 13 80 80 BE 09 03 04  17 13 80 01 CE 09 02 07  ................
09C0: 00 06 80 80 CE 09 03 05  17 13 80 01 CE 09 24 37  ..............$7
09D0: 80 28 00 01 80 25 02 00  10 01 80 00 E9 09 03 07  .(...%..........
09E0: 00 01 80 1A 13 0D 01 10  0A 02 00 10 13 80 00 FC  ................
09F0: 09 03 07 00 13 80 1A 13  0D 01 10 0A 02 00 10 06  ................
0A00: 80 00 0F 0A 03 07 00 06  80 1A 13 0D 01 10 0A 1B  ................
0A10: 03 28 00 00 10 01 4C 09  1B 05 29 00 02 29 00 01  .(....L...)..)..
0A20: 80 01 04 0B 03 03 17 16  00 03 04 17 17 00 03 05  ................
0A30: 17 18 00 24 38 80 2A 00  01 80 25 02 00 10 01 80  ...$8.*...%.....
0A40: 00 54 0A 03 18 00 01 80  6C F0 FF FF 7F 39 80 11  .T......l....9..
0A50: 80 01 FC 0A 02 00 10 13  80 00 6D 0A 03 18 00 13  ..........m.....
0A60: 80 6C F0 FF FF 7F 3A 80  11 80 01 FC 0A 02 00 10  .l....:.........
0A70: 06 80 00 83 0A 03 17 00  06 80 4E 01 70 C1 0E 01  ..........N.p...
0A80: 01 FC 0A 02 00 10 03 80  00 A2 0A 03 17 00 01 80  ................
0A90: 4E 00 70 C1 0E 01 6C 70  C1 0E 01 39 80 11 80 01  N.p...lp...9....
0AA0: FC 0A 02 00 10 1D 80 00  C1 0A 03 17 00 13 80 4E  ...............N
0AB0: 00 70 C1 0E 01 6C 70 C1  0E 01 3A 80 11 80 01 FC  .p...lp...:.....
0AC0: 0A 02 00 10 21 80 00 DE  0A 03 16 00 13 80 BA 70  ....!..........p
0AD0: C1 0E 01 01 80 01 80 01  80 01 80 01 FC 0A 02 00  ................
0AE0: 10 22 80 00 FB 0A 03 16  00 01 80 BA 70 C1 0E 01  ."..........p...
0AF0: 01 80 15 00 01 80 14 00  01 FC 0A 1B 03 2A 00 00  .............*..
0B00: 10 01 1C 0A 1B 03 1D 00  06 10 15 1D 00 3B 80 02  .............;..
0B10: 1D 00 13 80 04 23 0B 03  02 10 1D 00 1D 3C 80 23  .....#.......<.#
0B20: 01 62 0B 03 02 10 06 10  15 02 10 3D 80 3F 03 10  .b.........=.?..
0B30: 06 10 3D 80 15 03 10 16  80 3F 04 10 06 10 16 80  ..=......?......
0B40: 02 02 10 13 80 04 4F 0B  1D 3E 80 23 01 62 0B 02  ......O..>.#.b..
0B50: 03 10 13 80 04 5E 0B 1D  3F 80 23 01 62 0B 1D 40  .....^..?.#.b..@
0B60: 80 23 1B 06 2B 00 02 04  00 00 00 01 71 0B 05 2B  .#..+.......q..+
0B70: 00 02 05 00 01 00 01 7C  0B 05 2B 00 02 06 00 02  .......|..+.....
0B80: 00 01 87 0B 05 2B 00 02  07 00 03 00 01 92 0B 05  .....+..........
0B90: 2B 00 02 2B 00 01 80 01  BA 0B 48 41 80 23 24 42  +..+......HA.#$B
0BA0: 80 13 80 01 80 25 02 00  10 01 80 00 B4 0B 05 1C  .....%..........
0BB0: 00 01 B7 0B 06 1C 00 01  BD 0B 05 1C 00 1B 02 04  ................
0BC0: 00 13 80 80 CE 0B 03 5A  10 43 80 01 43 0C 02 04  .......Z.C..C...
0BD0: 00 06 80 80 DE 0B 03 5A  10 44 80 01 43 0C 02 04  .......Z.D..C...
0BE0: 00 03 80 80 EE 0B 03 5A  10 45 80 01 43 0C 02 04  .......Z.E..C...
0BF0: 00 1D 80 80 FE 0B 03 5A  10 46 80 01 43 0C 02 04  .......Z.F..C...
0C00: 00 21 80 80 0E 0C 03 5A  10 47 80 01 43 0C 02 04  .!.....Z.G..C...
0C10: 00 22 80 80 1E 0C 03 5A  10 48 80 01 43 0C 02 04  .".....Z.H..C...
0C20: 00 0C 80 80 2E 0C 03 5A  10 49 80 01 43 0C 02 04  .......Z.I..C...
0C30: 00 2C 80 80 3E 0C 03 5A  10 4A 80 01 43 0C 03 5A  .,..>..Z.J..C..Z
0C40: 10 01 80 1B 1A 57 0C 1A  13 0D 1A 72 0D 1A BE 0B  .....W.....r....
0C50: 1C 11 80 1A 92 0E 1B 03  08 00 05 00 14 08 00 06  ................
0C60: 80 07 08 00 06 00 B6 16  04 00 08 00 2C 80 2C 80  ............,.,.
0C70: 2C 80 2C 80 2C 80 01 80  01 80 01 80 80 F0 FF FF  ,.,.,...........
0C80: 7F 03 02 17 04 00 03 03  17 05 00 0B 03 17 03 04  ................
0C90: 17 06 00 03 05 17 07 00  02 18 00 13 80 00 A9 0C  ................
0CA0: 6C F0 FF FF 7F 3A 80 11  80 1B 03 08 00 01 00 14  l....:..........
0CB0: 08 00 06 80 07 08 00 02  00 3E 0B 00 13 80 D9 0C  .........>......
0CC0: B6 16 00 00 08 00 4B 80  0D 00 0E 00 0F 00 10 00  ......K.........
0CD0: 11 00 12 00 13 00 01 EF  0C B6 16 00 00 08 00 0C  ................
0CE0: 00 0D 00 0E 00 0F 00 10  00 11 00 12 00 13 00 80  ................
0CF0: F0 FF FF 7F 03 09 00 00  00 0C 09 00 14 09 00 1D  ................
0D00: 80 07 09 00 03 00 9D 00  32 0D 0A 00 09 00 B6 17  ........2.......
0D10: 0A 00 1B 03 09 00 04 00  0C 09 00 14 09 00 1D 80  ................
0D20: 07 09 00 07 00 9D 00 32  0D 0A 00 09 00 B6 17 0A  .......2........
0D30: 00 1B 4C 80 4D 80 4E 80  01 80 4C 80 4D 80 4E 80  ..L.M.N...L.M.N.
0D40: 01 80 4C 80 4D 80 4E 80  01 80 4C 80 4D 80 4E 80  ..L.M.N...L.M.N.
0D50: 01 80 4F 80 50 80 51 80  01 80 4F 80 50 80 51 80  ..O.P.Q...O.P.Q.
0D60: 01 80 52 80 53 80 54 80  01 80 51 80 55 80 4D 80  ..R.S.T...Q.U.M.
0D70: 01 80 03 02 10 19 00 03  03 10 1A 00 03 04 10 04  ................
0D80: 00 03 05 10 01 80 02 19  00 01 80 80 71 0E 02 04  ............q...
0D90: 00 13 80 80 AA 0D 45 56  80 F0 FF FF 7F F0 FF FF  ......EV........
0DA0: 7F 73 68 6D 30 1A 00 01  6E 0E 02 04 00 06 80 80  .shm0...n.......
0DB0: C6 0D 45 56 80 F0 FF FF  7F F0 FF FF 7F 73 68 66  ..EV.........shf
0DC0: 30 1A 00 01 6E 0E 02 04  00 03 80 80 E2 0D 45 56  0...n.........EV
0DD0: 80 F0 FF FF 7F F0 FF FF  7F 73 65 6D 30 1A 00 01  .........sem0...
0DE0: 6E 0E 02 04 00 1D 80 80  FE 0D 45 56 80 F0 FF FF  n.........EV....
0DF0: 7F F0 FF FF 7F 73 65 66  30 1A 00 01 6E 0E 02 04  .....sef0...n...
0E00: 00 21 80 80 1A 0E 45 56  80 F0 FF FF 7F F0 FF FF  .!....EV........
0E10: 7F 73 74 6D 30 1A 00 01  6E 0E 02 04 00 22 80 80  .stm0...n...."..
0E20: 36 0E 45 56 80 F0 FF FF  7F F0 FF FF 7F 73 74 6D  6.EV.........stm
0E30: 30 1A 00 01 6E 0E 02 04  00 0C 80 80 52 0E 45 56  0...n.......R.EV
0E40: 80 F0 FF FF 7F F0 FF FF  7F 73 6D 66 30 1A 00 01  .........smf0...
0E50: 6E 0E 02 04 00 2C 80 80  6E 0E 45 56 80 F0 FF FF  n....,..n.EV....
0E60: 7F F0 FF FF 7F 73 67 6D  30 1A 00 01 6E 0E 01 91  .....sgm0...n...
0E70: 0E 02 19 00 13 80 80 91  0E 03 1B 00 04 00 14 1B  ................
0E80: 00 1D 80 07 1B 00 07 00  9D 07 20 10 1B 00 01 91  .......... .....
0E90: 0E 1B 02 19 00 01 80 80  6D 0F 02 04 00 13 80 80  ........m.......
0EA0: B4 0E 55 56 80 F0 FF FF  7F F0 FF FF 7F 73 68 6D  ..UV.........shm
0EB0: 30 01 6A 0F 02 04 00 06  80 80 CE 0E 55 56 80 F0  0.j.........UV..
0EC0: FF FF 7F F0 FF FF 7F 73  68 66 30 01 6A 0F 02 04  .......shf0.j...
0ED0: 00 03 80 80 E8 0E 55 56  80 F0 FF FF 7F F0 FF FF  ......UV........
0EE0: 7F 73 65 6D 30 01 6A 0F  02 04 00 1D 80 80 02 0F  .sem0.j.........
0EF0: 55 56 80 F0 FF FF 7F F0  FF FF 7F 73 65 66 30 01  UV.........sef0.
0F00: 6A 0F 02 04 00 21 80 80  1C 0F 55 56 80 F0 FF FF  j....!....UV....
0F10: 7F F0 FF FF 7F 73 74 6D  30 01 6A 0F 02 04 00 22  .....stm0.j...."
0F20: 80 80 36 0F 55 56 80 F0  FF FF 7F F0 FF FF 7F 73  ..6.UV.........s
0F30: 74 6D 30 01 6A 0F 02 04  00 0C 80 80 50 0F 55 56  tm0.j.......P.UV
0F40: 80 F0 FF FF 7F F0 FF FF  7F 73 6D 66 30 01 6A 0F  .........smf0.j.
0F50: 02 04 00 2C 80 80 6A 0F  55 56 80 F0 FF FF 7F F0  ...,..j.UV......
0F60: FF FF 7F 73 67 6D 30 01  6A 0F 01 8D 0F 02 19 00  ...sgm0.j.......
0F70: 13 80 80 8D 0F 03 1B 00  04 00 14 1B 00 1D 80 07  ................
0F80: 1B 00 07 00 9D 07 70 10  1B 00 01 8D 0F 1B 02 5F  ......p........_
0F90: 10 01 80 00 9C 0F 1C 13  80 01 8E 0F 1B 45 1A 80  .............E..
0FA0: F8 FF FF 7F F8 FF FF 7F  66 64 69 31 01 80 55 1A  ........fdi1..U.
0FB0: 80 F8 FF FF 7F F8 FF FF  7F 66 64 69 31 1B 45 1A  .........fdi1.E.
0FC0: 80 F8 FF FF 7F F8 FF FF  7F 66 64 6F 31 01 80 55  .........fdo1..U
0FD0: 1A 80 F8 FF FF 7F F8 FF  FF 7F 66 64 6F 31 1B 1D  ..........fdo1..
0FE0: 57 80 23 48 58 80 24 59  80 01 80 01 80 25 02 00  W.#HX.$Y.....%..
0FF0: 10 01 80 00 1F 10 42 1D  5A 80 23 40 01 80 0C 80  ......B.Z.#@....
1000: 01 10 03 80 43 00 43 01  02 02 10 01 80 02 17 10  ....C.C.........
1010: 1D 5B 80 23 01 1B 10 1D  5C 80 23 2E 01 1F 10 1B  .[.#....\.#.....
1020: C0 10 C0 10 C0 10 C0 10  D2 10 E4 10 F6 10 C0 10  ................
1030: 08 11 1A 11 2C 11 C0 10  3E 11 50 11 62 11 C0 10  ....,...>.P.b...
1040: 74 11 86 11 98 11 C0 10  AA 11 BC 11 CE 11 C0 10  t...............
1050: E0 11 F2 11 04 12 C0 10  16 12 28 12 3A 12 C0 10  ..........(.:...
1060: 4C 12 5E 12 70 12 C0 10  C0 10 C0 10 C0 10 C0 10  L.^.p...........
1070: C0 10 C0 10 C0 10 C0 10  82 12 92 12 A2 12 C0 10  ................
1080: B2 12 C2 12 D2 12 C0 10  E2 12 F2 12 02 13 C0 10  ................
1090: 12 13 22 13 32 13 C0 10  42 13 52 13 62 13 C0 10  ..".2...B.R.b...
10A0: 72 13 82 13 92 13 C0 10  A2 13 B2 13 C2 13 C0 10  r...............
10B0: D2 13 E2 13 F2 13 C0 10  C0 10 C0 10 C0 10 C0 10  ................
10C0: 45 1A 80 F0 FF FF 7F F0  FF FF 7F 63 30 36 69 1A  E..........c06i.
10D0: 00 1B 45 56 80 F0 FF FF  7F F0 FF FF 7F 73 68 6D  ..EV.........shm
10E0: 31 1A 00 1B 45 56 80 F0  FF FF 7F F0 FF FF 7F 73  1...EV.........s
10F0: 68 6D 32 1A 00 1B 45 56  80 F0 FF FF 7F F0 FF FF  hm2...EV........
1100: 7F 73 68 6D 33 1A 00 1B  45 56 80 F0 FF FF 7F F0  .shm3...EV......
1110: FF FF 7F 73 68 66 31 1A  00 1B 45 56 80 F0 FF FF  ...shf1...EV....
1120: 7F F0 FF FF 7F 73 68 66  32 1A 00 1B 45 56 80 F0  .....shf2...EV..
1130: FF FF 7F F0 FF FF 7F 73  68 66 33 1A 00 1B 45 56  .......shf3...EV
1140: 80 F0 FF FF 7F F0 FF FF  7F 73 65 6D 31 1A 00 1B  .........sem1...
1150: 45 56 80 F0 FF FF 7F F0  FF FF 7F 73 65 6D 32 1A  EV.........sem2.
1160: 00 1B 45 56 80 F0 FF FF  7F F0 FF FF 7F 73 65 6D  ..EV.........sem
1170: 33 1A 00 1B 45 56 80 F0  FF FF 7F F0 FF FF 7F 73  3...EV.........s
1180: 65 66 31 1A 00 1B 45 56  80 F0 FF FF 7F F0 FF FF  ef1...EV........
1190: 7F 73 65 66 32 1A 00 1B  45 56 80 F0 FF FF 7F F0  .sef2...EV......
11A0: FF FF 7F 73 65 66 33 1A  00 1B 45 56 80 F0 FF FF  ...sef3...EV....
11B0: 7F F0 FF FF 7F 73 74 6D  31 1A 00 1B 45 56 80 F0  .....stm1...EV..
11C0: FF FF 7F F0 FF FF 7F 73  74 6D 32 1A 00 1B 45 56  .......stm2...EV
11D0: 80 F0 FF FF 7F F0 FF FF  7F 73 74 6D 33 1A 00 1B  .........stm3...
11E0: 45 56 80 F0 FF FF 7F F0  FF FF 7F 73 74 6D 31 1A  EV.........stm1.
11F0: 00 1B 45 56 80 F0 FF FF  7F F0 FF FF 7F 73 74 6D  ..EV.........stm
1200: 32 1A 00 1B 45 56 80 F0  FF FF 7F F0 FF FF 7F 73  2...EV.........s
1210: 74 6D 33 1A 00 1B 45 56  80 F0 FF FF 7F F0 FF FF  tm3...EV........
1220: 7F 73 6D 66 31 1A 00 1B  45 56 80 F0 FF FF 7F F0  .smf1...EV......
1230: FF FF 7F 73 6D 66 32 1A  00 1B 45 56 80 F0 FF FF  ...smf2...EV....
1240: 7F F0 FF FF 7F 73 6D 66  33 1A 00 1B 45 56 80 F0  .....smf3...EV..
1250: FF FF 7F F0 FF FF 7F 73  67 6D 31 1A 00 1B 45 56  .......sgm1...EV
1260: 80 F0 FF FF 7F F0 FF FF  7F 73 67 6D 32 1A 00 1B  .........sgm2...
1270: 45 56 80 F0 FF FF 7F F0  FF FF 7F 73 67 6D 33 1A  EV.........sgm3.
1280: 00 1B 55 56 80 F0 FF FF  7F F0 FF FF 7F 73 68 6D  ..UV.........shm
1290: 31 1B 55 56 80 F0 FF FF  7F F0 FF FF 7F 73 68 6D  1.UV.........shm
12A0: 32 1B 55 56 80 F0 FF FF  7F F0 FF FF 7F 73 68 6D  2.UV.........shm
12B0: 33 1B 55 56 80 F0 FF FF  7F F0 FF FF 7F 73 68 66  3.UV.........shf
12C0: 31 1B 55 56 80 F0 FF FF  7F F0 FF FF 7F 73 68 66  1.UV.........shf
12D0: 32 1B 55 56 80 F0 FF FF  7F F0 FF FF 7F 73 68 66  2.UV.........shf
12E0: 33 1B 55 56 80 F0 FF FF  7F F0 FF FF 7F 73 65 6D  3.UV.........sem
12F0: 31 1B 55 56 80 F0 FF FF  7F F0 FF FF 7F 73 65 6D  1.UV.........sem
1300: 32 1B 55 56 80 F0 FF FF  7F F0 FF FF 7F 73 65 6D  2.UV.........sem
1310: 33 1B 55 56 80 F0 FF FF  7F F0 FF FF 7F 73 65 66  3.UV.........sef
1320: 31 1B 55 56 80 F0 FF FF  7F F0 FF FF 7F 73 65 66  1.UV.........sef
1330: 32 1B 55 56 80 F0 FF FF  7F F0 FF FF 7F 73 65 66  2.UV.........sef
1340: 33 1B 55 56 80 F0 FF FF  7F F0 FF FF 7F 73 74 6D  3.UV.........stm
1350: 31 1B 55 56 80 F0 FF FF  7F F0 FF FF 7F 73 74 6D  1.UV.........stm
1360: 32 1B 55 56 80 F0 FF FF  7F F0 FF FF 7F 73 74 6D  2.UV.........stm
1370: 33 1B 55 56 80 F0 FF FF  7F F0 FF FF 7F 73 74 6D  3.UV.........stm
1380: 31 1B 55 56 80 F0 FF FF  7F F0 FF FF 7F 73 74 6D  1.UV.........stm
1390: 32 1B 55 56 80 F0 FF FF  7F F0 FF FF 7F 73 74 6D  2.UV.........stm
13A0: 33 1B 55 56 80 F0 FF FF  7F F0 FF FF 7F 73 6D 66  3.UV.........smf
13B0: 31 1B 55 56 80 F0 FF FF  7F F0 FF FF 7F 73 6D 66  1.UV.........smf
13C0: 32 1B 55 56 80 F0 FF FF  7F F0 FF FF 7F 73 6D 66  2.UV.........smf
13D0: 33 1B 55 56 80 F0 FF FF  7F F0 FF FF 7F 73 67 6D  3.UV.........sgm
13E0: 31 1B 55 56 80 F0 FF FF  7F F0 FF FF 7F 73 67 6D  1.UV.........sgm
13F0: 32 1B 55 56 80 F0 FF FF  7F F0 FF FF 7F 73 67 6D  2.UV.........sgm
1400: 33 1B                                             3.              
```

#### Opcodes

```
  0: 0x004C [0x42] SET_CLI_EVENT_CANCEL_DATA()
  1: 0x004D [0x03] ExtData[1]->WorkLocal[0] = Work_Zone[2]
  2: 0x0052 [0x03] ExtData[1]->WorkLocal[1] = Work_Zone[3]
  3: 0x0057 [0x03] ExtData[1]->WorkLocal[3] = Work_Zone[4]
  4: 0x005C [0x03] ExtData[1]->WorkLocal[2] = Work_Zone[5]
  5: 0x0061 [0x03] ExtData[1]->WorkLocal[4] = ExtData[1]->WorkLocal[0]
  6: 0x0066 [0x03] ExtData[1]->WorkLocal[5] = ExtData[1]->WorkLocal[1]
  7: 0x006B [0x03] ExtData[1]->WorkLocal[6] = ExtData[1]->WorkLocal[2]
  8: 0x0070 [0x03] ExtData[1]->WorkLocal[7] = ExtData[1]->WorkLocal[3]
  9: 0x0075 [0x03] Work_Zone[91] = ExtData[1]->WorkLocal[0]
 10: 0x007A [0x03] Work_Zone[92] = ExtData[1]->WorkLocal[1]
 11: 0x007F [0x03] Work_Zone[94] = ExtData[1]->WorkLocal[3]
 12: 0x0084 [0x03] Work_Zone[93] = ExtData[1]->WorkLocal[2]
 13: 0x0089 [0x03] ExtData[1]->WorkLocal[11] = Work_Zone[7]
 14: 0x008E [0x1E] EventEntity looks at LocalPlayer and starts talking
 15: 0x0093 [0x6F] WAIT_FRAME_DELAY: Yield until WaitTime reaches zero
 16: 0x0094 [0x70] WAIT_ENTITY_RENDER_FLAG: Wait while EventEntity->Render.Flags3 bit 2 is set (cancel turn if not)
 17: 0x0095 [0x1D] PRINT_EVENT_MESSAGE(message_id=14158*)
    → "Welcome to the Race Change service, kupo!"
 18: 0x0098 [0x23] WAIT_FOR_DIALOG_INTERACTION
 19: 0x0099 [0x02] IF !(Work_Zone[6] <= 0*) GOTO 0x00AF
 20: 0x00A1 [0x1A] CALL_SUBROUTINE(address=0x0B05)
 21: 0x00A4 [0x1D] PRINT_EVENT_MESSAGE(message_id=14167*)
    → "Careful though! If your service period expires while you're still making changes, you'll lose any changes you've made!"
 22: 0x00A7 [0x23] WAIT_FOR_DIALOG_INTERACTION
 23: 0x00A8 [0x1D] PRINT_EVENT_MESSAGE(message_id=14168*)
    → "Also, as a general rule, we are unable to guarantee service in the event of any unexpected issues such as network problems. Therefore, it's wise to make your changes with plenty of time to spare, kupo!"
 24: 0x00AB [0x23] WAIT_FOR_DIALOG_INTERACTION
 25: 0x00AC [0x01] GOTO 0x00D0
 26: 0x00AF [0x02] IF !(Work_Zone[6] == 4294967295*) GOTO 0x00BA
 27: 0x00B7 [0x01] GOTO 0x00D0
 28: 0x00BA [0x3E] IF !(ExtData[1]->WorkLocal[11] bit 0*) GOTO 0x00CB
 29: 0x00C1 [0x1D] PRINT_EVENT_MESSAGE(message_id=14189*)
    → "You can trade me certain items that you can no longer use because of your race or gender change, kupo!"
 30: 0x00C4 [0x23] WAIT_FOR_DIALOG_INTERACTION
 31: 0x00C5 [0x1A] CALL_SUBROUTINE(address=0x0FDF)
 32: 0x00C8 [0x01] GOTO 0x00CF
 33: 0x00CB [0x1D] PRINT_EVENT_MESSAGE(message_id=14159*)
    → "Please check the official website for more details regarding our service."
 34: 0x00CE [0x23] WAIT_FOR_DIALOG_INTERACTION

SUBROUTINE_00CF:
 35: 0x00CF [0x21] END_EVENT

SUBROUTINE_00D0:
 36: 0x00D0 [0x1A] CALL_SUBROUTINE(address=0x0FBE)
 37: 0x00D3 [0x03] Work_Zone[1] = 0*
 38: 0x00D8 [0x40] SET_BIT_WORK_RANGE(start_bit=0*, end_bit=7*, target=Work_Zone[1], source=2*)
 39: 0x00E1 [0x43] SEND_EVENT_UPDATE: Send pending tag to server (packet 0x005B)
 40: 0x00E3 [0x43] SEND_EVENT_UPDATE: Check pending flag (skip if not pending)
 41: 0x00E5 [0x03] ExtData[1]->WorkLocal[12] = Work_Zone[2]
 42: 0x00EA [0x03] ExtData[1]->WorkLocal[13] = Work_Zone[3]
 43: 0x00EF [0x03] ExtData[1]->WorkLocal[14] = Work_Zone[4]
 44: 0x00F4 [0x03] ExtData[1]->WorkLocal[15] = Work_Zone[5]
 45: 0x00F9 [0x03] ExtData[1]->WorkLocal[16] = Work_Zone[6]
 46: 0x00FE [0x03] ExtData[1]->WorkLocal[17] = Work_Zone[7]
 47: 0x0103 [0x03] ExtData[1]->WorkLocal[18] = Work_Zone[8]
 48: 0x0108 [0x03] ExtData[1]->WorkLocal[19] = Work_Zone[9]
 49: 0x010D [0x4E] SET_ENTITY_HIDE_FLAG: Hide Unnamed NPC (ID: 17743971/0x010EC063)
 50: 0x0113 [0x46] CAMERA_CONTROL: Disable user control
 51: 0x0115 [0x1C] WAIT(120* ticks)
 52: 0x0118 [0x38] SET_CLIENT_EVENT_MODE(mode=19*)
 53: 0x011B [0x03] Work_Zone[90] = 169*
 54: 0x0120 [0x34] LOAD_UNLOAD_ZONE(zone_id=744*)
 55: 0x0123 [0x1C] WAIT(30* ticks)
 56: 0x0126 [0x77] SET_EVENT_TIME_WEATHER(hour=11*, weather=1*)
 57: 0x012B [0x4E] SET_ENTITY_HIDE_FLAG: Hide EventEntity
 58: 0x0131 [0xBA] SET_ENTITY_POSITION(entity_id=LocalPlayer, pos_x=0.000*, pos_z=0.000*, pos_y=0.000*, direction=0.0°*)
 59: 0x013E [0x4E] SET_ENTITY_HIDE_FLAG: Show LocalPlayer
 60: 0x0144 [0x03] ExtData[1]->WorkLocal[21] = 1500*
 61: 0x0149 [0x03] ExtData[1]->WorkLocal[20] = 192*
 62: 0x014E [0x2F] Previous Race (ID: 17744240/0x010EC170)->Render.Flags0 &= ~0x80000 // Bit 19
 63: 0x0154 [0x29] REQ_SET_WAIT(priority=0x10, entity_id=Previous Race (ID: 17744240/0x010EC170), tag_num=0x02)
 64: 0x015B [0xBA] SET_ENTITY_POSITION(entity_id=Previous Race (ID: 17744240/0x010EC170), pos_x=0.000*, pos_z=ExtData[1]->WorkLocal[21], pos_y=0.000*, direction=ExtData[1]->WorkLocal[20])
 65: 0x0168 [0x80] LOAD_WAIT(entity=Previous Race (ID: 17744240/0x010EC170))
 66: 0x016D [0x03] ExtData[1]->WorkLocal[23] = 2*
 67: 0x0172 [0x4E] SET_ENTITY_HIDE_FLAG: Hide Previous Race (ID: 17744240/0x010EC170)
 68: 0x0178 [0x1C] WAIT(60* ticks)
 69: 0x017B [0x2F] Unknown NPC (ID: 17744239/0x010EC16F)->Render.Flags0 &= ~0x80000 // Bit 19
 70: 0x0181 [0x1C] WAIT(60* ticks)
 71: 0x0184 [0x03] ExtData[1]->WorkLocal[24] = 0*
 72: 0x0189 [0x1A] CALL_SUBROUTINE(address=0x0C57)
 73: 0x018C [0x1A] CALL_SUBROUTINE(address=0x0D13)
 74: 0x018F [0x03] ExtData[1]->WorkLocal[25] = 0*
 75: 0x0194 [0x03] ExtData[1]->WorkLocal[26] = 0*
 76: 0x0199 [0x1A] CALL_SUBROUTINE(address=0x0D72)
 77: 0x019C [0x1A] CALL_SUBROUTINE(address=0x0E92)
 78: 0x019F [0x1A] CALL_SUBROUTINE(address=0x0F9D)
 79: 0x01A2 [0x1A] CALL_SUBROUTINE(address=0x0201)
 80: 0x01A5 [0x1A] CALL_SUBROUTINE(address=0x0FBE)
 81: 0x01A8 [0x1C] WAIT(120* ticks)
 82: 0x01AB [0x1A] CALL_SUBROUTINE(address=0x0CAA)
 83: 0x01AE [0x46] CAMERA_CONTROL: Restore default settings
 84: 0x01B0 [0x5C] MUSIC_CONTROL: Set Idle (Day) music to song 152*
 85: 0x01B4 [0x5C] MUSIC_CONTROL: Set Idle (Night) music to song 152*
 86: 0x01B8 [0x35] LOAD_ZONE_NO_CLOSE(zone_id=236*)
 87: 0x01BB [0xB6] ENTITY_APPEARANCE_HANDLER(case=Test validity)
 88: 0x01BD [0x4E] SET_ENTITY_HIDE_FLAG: Show Unnamed NPC (ID: 17743971/0x010EC063)
 89: 0x01C3 [0xAB] EventEntity->DespawnValue = 0* // Set despawn value
 90: 0x01C7 [0xAB] EventEntity->UnknownFlag = 0 // Disable unknown flag
 91: 0x01C9 [0x78] ENABLE_GAME_TIMER_RESET_WEATHER()
 92: 0x01CA [0x1C] WAIT(60* ticks)
 93: 0x01CD [0x02] IF !(Work_Zone[1] == 1073741824*) GOTO 0x01EC
 94: 0x01D5 [0x1C] WAIT(60* ticks)
 95: 0x01D8 [0x45] LOAD_SCHEDULED_TASK: Load scheduler "fdi2" with entities [LocalPlayer, LocalPlayer], work=[200*, 0*]
 96: 0x01E9 [0x01] GOTO 0x01FD
 97: 0x01EC [0x45] LOAD_SCHEDULED_TASK: Load scheduler "whi1" with entities [LocalPlayer, LocalPlayer], work=[201*, 0*]

SUBROUTINE_01FD:
 98: 0x01FD [0x46] CAMERA_CONTROL: Restore default settings
 99: 0x01FF [0x21] END_EVENT
100: 0x0200 [0x00] END_REQSTACK()

SUBROUTINE_0201:
101: 0x0201 [0x05] ExtData[1]->WorkLocal[30] = 1

SUBROUTINE_0204:
102: 0x0204 [0x02] IF !(ExtData[1]->WorkLocal[30] == 0*) GOTO 0x04E0
103: 0x020C [0x03] ExtData[1]->WorkLocal[32] = 0*
104: 0x0211 [0x02] IF !(ExtData[1]->WorkLocal[4] == ExtData[1]->WorkLocal[0]) GOTO 0x0221
105: 0x0219 [0x03] Work_Zone_1700[2] = 0*
106: 0x021E [0x01] GOTO 0x022D
107: 0x0221 [0x03] Work_Zone_1700[2] = 1*
108: 0x0226 [0x3C] SET_BIT_FLAG_CONDITIONAL(target_work_offset=ExtData[1]->WorkLocal[32], bit_index_work_offset=0*, condition_work_offset=1*)

SUBROUTINE_022D:
109: 0x022D [0x02] IF !(ExtData[1]->WorkLocal[5] == ExtData[1]->WorkLocal[1]) GOTO 0x023D
110: 0x0235 [0x03] Work_Zone_1700[3] = 0*
111: 0x023A [0x01] GOTO 0x0249
112: 0x023D [0x03] Work_Zone_1700[3] = 1*
113: 0x0242 [0x3C] SET_BIT_FLAG_CONDITIONAL(target_work_offset=ExtData[1]->WorkLocal[32], bit_index_work_offset=1*, condition_work_offset=1*)

SUBROUTINE_0249:
114: 0x0249 [0x02] IF !(ExtData[1]->WorkLocal[6] == ExtData[1]->WorkLocal[2]) GOTO 0x0259
115: 0x0251 [0x03] Work_Zone_1700[4] = 0*
116: 0x0256 [0x01] GOTO 0x0265
117: 0x0259 [0x03] Work_Zone_1700[4] = 1*
118: 0x025E [0x3C] SET_BIT_FLAG_CONDITIONAL(target_work_offset=ExtData[1]->WorkLocal[32], bit_index_work_offset=2*, condition_work_offset=1*)

SUBROUTINE_0265:
119: 0x0265 [0x02] IF !(ExtData[1]->WorkLocal[7] == ExtData[1]->WorkLocal[3]) GOTO 0x0275
120: 0x026D [0x03] Work_Zone_1700[5] = 0*
121: 0x0272 [0x01] GOTO 0x0281
122: 0x0275 [0x03] Work_Zone_1700[5] = 1*
123: 0x027A [0x3C] SET_BIT_FLAG_CONDITIONAL(target_work_offset=ExtData[1]->WorkLocal[32], bit_index_work_offset=3*, condition_work_offset=1*)

SUBROUTINE_0281:
124: 0x0281 [0x02] IF !(ExtData[1]->WorkLocal[25] == 4294967295*) GOTO 0x0291
125: 0x0289 [0x03] Work_Zone_1700[6] = 1*
126: 0x028E [0x01] GOTO 0x0296
127: 0x0291 [0x03] Work_Zone_1700[6] = 0*

SUBROUTINE_0296:
128: 0x0296 [0x24] CREATE_DIALOG(message_id=14169*, default_option=ExtData[1]->WorkLocal[31], option_flags=0*)
    → "Character Race Change Service Menu [Select race. [/$26Changing]/Select face type. [/$26Changing]/Select hair color. [/$26Changing]/Select size. [/$26Changing]/Enable camera movement./View current appearance./Change to specified appearance./Exit.]"
129: 0x029D [0x25] WAIT_DIALOG_SELECT()
130: 0x029E [0x02] IF !(Work_Zone[0] == 0*) GOTO 0x02C4
131: 0x02A6 [0x03] ExtData[1]->WorkLocal[31] = 0*
132: 0x02AB [0x02] IF !(ExtData[1]->WorkLocal[25] == 4294967295*) GOTO 0x02BB
133: 0x02B3 [0x03] ExtData[1]->WorkLocal[25] = 0*
134: 0x02B8 [0x1A] CALL_SUBROUTINE(address=0x0D72)
135: 0x02BB [0x1A] CALL_SUBROUTINE(address=0x0D72)
136: 0x02BE [0x1A] CALL_SUBROUTINE(address=0x04E1)
137: 0x02C1 [0x01] GOTO 0x04DD
138: 0x02C4 [0x02] IF !(Work_Zone[0] == 1*) GOTO 0x02E7
139: 0x02CC [0x03] ExtData[1]->WorkLocal[31] = 1*
140: 0x02D1 [0x02] IF !(ExtData[1]->WorkLocal[25] == 4294967295*) GOTO 0x02E1
141: 0x02D9 [0x03] ExtData[1]->WorkLocal[25] = 1*
142: 0x02DE [0x1A] CALL_SUBROUTINE(address=0x0D72)
143: 0x02E1 [0x1A] CALL_SUBROUTINE(address=0x06C9)
144: 0x02E4 [0x01] GOTO 0x04DD
145: 0x02E7 [0x02] IF !(Work_Zone[0] == 2*) GOTO 0x030D
146: 0x02EF [0x03] ExtData[1]->WorkLocal[31] = 2*
147: 0x02F4 [0x02] IF !(ExtData[1]->WorkLocal[25] == 4294967295*) GOTO 0x0304
148: 0x02FC [0x03] ExtData[1]->WorkLocal[25] = 1*
149: 0x0301 [0x1A] CALL_SUBROUTINE(address=0x0D72)
150: 0x0304 [0x1A] CALL_SUBROUTINE(address=0x0D72)
151: 0x0307 [0x1A] CALL_SUBROUTINE(address=0x08B1)
152: 0x030A [0x01] GOTO 0x04DD
153: 0x030D [0x02] IF !(Work_Zone[0] == 3*) GOTO 0x0330
154: 0x0315 [0x03] ExtData[1]->WorkLocal[31] = 3*
155: 0x031A [0x02] IF !(ExtData[1]->WorkLocal[25] == 4294967295*) GOTO 0x032A
156: 0x0322 [0x03] ExtData[1]->WorkLocal[25] = 0*
157: 0x0327 [0x1A] CALL_SUBROUTINE(address=0x0D72)
158: 0x032A [0x1A] CALL_SUBROUTINE(address=0x0949)
159: 0x032D [0x01] GOTO 0x04DD
160: 0x0330 [0x02] IF !(Work_Zone[0] == 4*) GOTO 0x0377
161: 0x0338 [0x03] ExtData[1]->WorkLocal[31] = 4*
162: 0x033D [0x1A] CALL_SUBROUTINE(address=0x0FBE)
163: 0x0340 [0x02] IF !(ExtData[1]->WorkLocal[25] == 4294967295*) GOTO 0x0361
164: 0x0348 [0x48] [System] [14170*]:
    → "You can move the camera to check your character's appearance. If using a keyboard, hold down the shift key and press the camera key in order to move the camera."
165: 0x034B [0x23] WAIT_FOR_DIALOG_INTERACTION
166: 0x034C [0x1C] WAIT(60* ticks)
167: 0x034F [0x46] CAMERA_CONTROL: Restore default settings
168: 0x0351 [0x46] CAMERA_CONTROL: Unknown mode 0x3
169: 0x0353 [0x1F] MOVE_ENTITY: Update entity position (mode=128)
170: 0x0355 [0x20] SET_CLI_EVENT_UC_FLAG: Unknown flag value 0x80
171: 0x0357 [0x01] GOTO 0x0380

SUBROUTINE_049E:
172: 0x049E [0x01] GOTO 0x04A1

SUBROUTINE_04A1:
173: 0x04A1 [0x01] GOTO 0x04A8
174: 0x04A4 [0x48] [System] [14178*]:
    → "You have not edited any character attributes. Select Exit from the menu if you wish to exit this mode without making any changes."
175: 0x04A7 [0x23] WAIT_FOR_DIALOG_INTERACTION

SUBROUTINE_04A8:
176: 0x04A8 [0x01] GOTO 0x04DD
177: 0x04AB [0x02] IF !(Work_Zone[0] == 999*) GOTO 0x04B6
178: 0x04B3 [0x01] GOTO 0x04DD
179: 0x04B6 [0x03] ExtData[1]->WorkLocal[31] = Work_Zone[0]
180: 0x04BB [0x1A] CALL_SUBROUTINE(address=0x0B63)
181: 0x04BE [0x02] IF !(ExtData[1]->WorkLocal[28] == 0*) GOTO 0x04DD
182: 0x04C6 [0x1A] CALL_SUBROUTINE(address=0x0FBE)
183: 0x04C9 [0x1C] WAIT(120* ticks)
184: 0x04CC [0x03] Work_Zone[90] = 0*
185: 0x04D1 [0x1C] WAIT(60* ticks)
186: 0x04D4 [0x06] ExtData[1]->WorkLocal[30] = 0
187: 0x04D7 [0x03] Work_Zone[1] = 1073741824*
188: 0x04DC [0x1B] RETURN

SUBROUTINE_04DD:
189: 0x04DD [0x01] GOTO 0x0204
190: 0x04E0 [0x1B] RETURN

SUBROUTINE_04E1:
191: 0x04E1 [0x05] ExtData[1]->WorkLocal[33] = 1

SUBROUTINE_04E4:
192: 0x04E4 [0x02] IF !(ExtData[1]->WorkLocal[33] == 0*) GOTO 0x06C8
193: 0x04EC [0x1A] CALL_SUBROUTINE(address=0x0BBE)
194: 0x04EF [0x03] Work_Zone_1700[3] = 0*
195: 0x04F4 [0x03] Work_Zone_1700[4] = 0*
196: 0x04F9 [0x03] Work_Zone_1700[5] = 0*
197: 0x04FE [0x03] Work_Zone_1700[6] = 0*
198: 0x0503 [0x03] Work_Zone_1700[7] = 0*
199: 0x0508 [0x03] Work_Zone_1700[8] = 0*
200: 0x050D [0x03] Work_Zone_1700[9] = 0*
201: 0x0512 [0x03] Work_Zone_1700[10] = 0*
202: 0x0517 [0x02] IF !(ExtData[1]->WorkLocal[0] == 1*) GOTO 0x0527
203: 0x051F [0x03] Work_Zone_1700[3] = 2*
204: 0x0524 [0x01] GOTO 0x0597
205: 0x0527 [0x02] IF !(ExtData[1]->WorkLocal[0] == 2*) GOTO 0x0537
206: 0x052F [0x03] Work_Zone_1700[4] = 2*
207: 0x0534 [0x01] GOTO 0x0597
208: 0x0537 [0x02] IF !(ExtData[1]->WorkLocal[0] == 3*) GOTO 0x0547
209: 0x053F [0x03] Work_Zone_1700[5] = 2*
210: 0x0544 [0x01] GOTO 0x0597
211: 0x0547 [0x02] IF !(ExtData[1]->WorkLocal[0] == 4*) GOTO 0x0557
212: 0x054F [0x03] Work_Zone_1700[6] = 2*
213: 0x0554 [0x01] GOTO 0x0597
214: 0x0557 [0x02] IF !(ExtData[1]->WorkLocal[0] == 5*) GOTO 0x0567
215: 0x055F [0x03] Work_Zone_1700[7] = 2*
216: 0x0564 [0x01] GOTO 0x0597
217: 0x0567 [0x02] IF !(ExtData[1]->WorkLocal[0] == 6*) GOTO 0x0577
218: 0x056F [0x03] Work_Zone_1700[8] = 2*
219: 0x0574 [0x01] GOTO 0x0597
220: 0x0577 [0x02] IF !(ExtData[1]->WorkLocal[0] == 7*) GOTO 0x0587
221: 0x057F [0x03] Work_Zone_1700[9] = 2*
222: 0x0584 [0x01] GOTO 0x0597
223: 0x0587 [0x02] IF !(ExtData[1]->WorkLocal[0] == 8*) GOTO 0x0597
224: 0x058F [0x03] Work_Zone_1700[10] = 2*
225: 0x0594 [0x01] GOTO 0x0597

SUBROUTINE_0597:
226: 0x0597 [0x02] IF !(ExtData[1]->WorkLocal[4] == ExtData[1]->WorkLocal[0]) GOTO 0x061F
227: 0x059F [0x02] IF !(ExtData[1]->WorkLocal[4] == 1*) GOTO 0x05AF
228: 0x05A7 [0x03] Work_Zone_1700[3] = 1*
229: 0x05AC [0x01] GOTO 0x061F
230: 0x05AF [0x02] IF !(ExtData[1]->WorkLocal[4] == 2*) GOTO 0x05BF
231: 0x05B7 [0x03] Work_Zone_1700[4] = 1*
232: 0x05BC [0x01] GOTO 0x061F
233: 0x05BF [0x02] IF !(ExtData[1]->WorkLocal[4] == 3*) GOTO 0x05CF
234: 0x05C7 [0x03] Work_Zone_1700[5] = 1*
235: 0x05CC [0x01] GOTO 0x061F
236: 0x05CF [0x02] IF !(ExtData[1]->WorkLocal[4] == 4*) GOTO 0x05DF
237: 0x05D7 [0x03] Work_Zone_1700[6] = 1*
238: 0x05DC [0x01] GOTO 0x061F
239: 0x05DF [0x02] IF !(ExtData[1]->WorkLocal[4] == 5*) GOTO 0x05EF
240: 0x05E7 [0x03] Work_Zone_1700[7] = 1*
241: 0x05EC [0x01] GOTO 0x061F
242: 0x05EF [0x02] IF !(ExtData[1]->WorkLocal[4] == 6*) GOTO 0x05FF
243: 0x05F7 [0x03] Work_Zone_1700[8] = 1*
244: 0x05FC [0x01] GOTO 0x061F
245: 0x05FF [0x02] IF !(ExtData[1]->WorkLocal[4] == 7*) GOTO 0x060F
246: 0x0607 [0x03] Work_Zone_1700[9] = 1*
247: 0x060C [0x01] GOTO 0x061F
248: 0x060F [0x02] IF !(ExtData[1]->WorkLocal[4] == 8*) GOTO 0x061F
249: 0x0617 [0x03] Work_Zone_1700[10] = 1*
250: 0x061C [0x01] GOTO 0x061F

SUBROUTINE_061F:
251: 0x061F [0x24] CREATE_DIALOG(message_id=14173*, default_option=ExtData[1]->WorkLocal[34], option_flags=0*)
    → "Choose your character's race and gender. [Hume (male). [/$26Selected/(race before change)]/Hume (female). [/$26Selected/(race before change)]/Elvaan (male).@@ [/$26Selected/(race before change)]/Elvaan (female). @[/$26Selected/(race before change)]/Tarutaru (male).@ [/$26Selected/(race before change)]/Tarutaru (female). [/$26Selected/(race before change)]/Mithra. [/$26Selected/(race before change)]/Galka. [/$26Selected/(race before change)]/Back.]"
252: 0x0626 [0x25] WAIT_DIALOG_SELECT()
253: 0x0627 [0x02] IF !(Work_Zone[0] == 0*) GOTO 0x063A
254: 0x062F [0x03] ExtData[1]->WorkLocal[4] = 1*
255: 0x0634 [0x1A] CALL_SUBROUTINE(address=0x0C44)
256: 0x0637 [0x01] GOTO 0x06C0
257: 0x063A [0x02] IF !(Work_Zone[0] == 1*) GOTO 0x064D
258: 0x0642 [0x03] ExtData[1]->WorkLocal[4] = 2*
259: 0x0647 [0x1A] CALL_SUBROUTINE(address=0x0C44)
260: 0x064A [0x01] GOTO 0x06C0
261: 0x064D [0x02] IF !(Work_Zone[0] == 2*) GOTO 0x0660
262: 0x0655 [0x03] ExtData[1]->WorkLocal[4] = 3*
263: 0x065A [0x1A] CALL_SUBROUTINE(address=0x0C44)
264: 0x065D [0x01] GOTO 0x06C0
265: 0x0660 [0x02] IF !(Work_Zone[0] == 3*) GOTO 0x0673
266: 0x0668 [0x03] ExtData[1]->WorkLocal[4] = 4*
267: 0x066D [0x1A] CALL_SUBROUTINE(address=0x0C44)
268: 0x0670 [0x01] GOTO 0x06C0
269: 0x0673 [0x02] IF !(Work_Zone[0] == 4*) GOTO 0x0686
270: 0x067B [0x03] ExtData[1]->WorkLocal[4] = 5*
271: 0x0680 [0x1A] CALL_SUBROUTINE(address=0x0C44)
272: 0x0683 [0x01] GOTO 0x06C0
273: 0x0686 [0x02] IF !(Work_Zone[0] == 5*) GOTO 0x0699
274: 0x068E [0x03] ExtData[1]->WorkLocal[4] = 6*
275: 0x0693 [0x1A] CALL_SUBROUTINE(address=0x0C44)
276: 0x0696 [0x01] GOTO 0x06C0
277: 0x0699 [0x02] IF !(Work_Zone[0] == 6*) GOTO 0x06AC
278: 0x06A1 [0x03] ExtData[1]->WorkLocal[4] = 7*
279: 0x06A6 [0x1A] CALL_SUBROUTINE(address=0x0C44)
280: 0x06A9 [0x01] GOTO 0x06C0
281: 0x06AC [0x02] IF !(Work_Zone[0] == 7*) GOTO 0x06BF
282: 0x06B4 [0x03] ExtData[1]->WorkLocal[4] = 8*
283: 0x06B9 [0x1A] CALL_SUBROUTINE(address=0x0C44)
284: 0x06BC [0x01] GOTO 0x06C0
285: 0x06BF [0x1B] RETURN

SUBROUTINE_06C0:
286: 0x06C0 [0x03] ExtData[1]->WorkLocal[34] = Work_Zone[0]
287: 0x06C5 [0x01] GOTO 0x04E4
288: 0x06C8 [0x1B] RETURN

SUBROUTINE_06C9:
289: 0x06C9 [0x05] ExtData[1]->WorkLocal[35] = 1

SUBROUTINE_06CC:
290: 0x06CC [0x02] IF !(ExtData[1]->WorkLocal[35] == 0*) GOTO 0x08B0
291: 0x06D4 [0x1A] CALL_SUBROUTINE(address=0x0BBE)
292: 0x06D7 [0x03] Work_Zone_1700[3] = 0*
293: 0x06DC [0x03] Work_Zone_1700[4] = 0*
294: 0x06E1 [0x03] Work_Zone_1700[5] = 0*
295: 0x06E6 [0x03] Work_Zone_1700[6] = 0*
296: 0x06EB [0x03] Work_Zone_1700[7] = 0*
297: 0x06F0 [0x03] Work_Zone_1700[8] = 0*
298: 0x06F5 [0x03] Work_Zone_1700[9] = 0*
299: 0x06FA [0x03] Work_Zone_1700[10] = 0*
300: 0x06FF [0x02] IF !(ExtData[1]->WorkLocal[1] == 0*) GOTO 0x070F
301: 0x0707 [0x03] Work_Zone_1700[3] = 2*
302: 0x070C [0x01] GOTO 0x077F
303: 0x070F [0x02] IF !(ExtData[1]->WorkLocal[1] == 1*) GOTO 0x071F
304: 0x0717 [0x03] Work_Zone_1700[4] = 2*
305: 0x071C [0x01] GOTO 0x077F
306: 0x071F [0x02] IF !(ExtData[1]->WorkLocal[1] == 2*) GOTO 0x072F
307: 0x0727 [0x03] Work_Zone_1700[5] = 2*
308: 0x072C [0x01] GOTO 0x077F
309: 0x072F [0x02] IF !(ExtData[1]->WorkLocal[1] == 3*) GOTO 0x073F
310: 0x0737 [0x03] Work_Zone_1700[6] = 2*
311: 0x073C [0x01] GOTO 0x077F
312: 0x073F [0x02] IF !(ExtData[1]->WorkLocal[1] == 4*) GOTO 0x074F
313: 0x0747 [0x03] Work_Zone_1700[7] = 2*
314: 0x074C [0x01] GOTO 0x077F
315: 0x074F [0x02] IF !(ExtData[1]->WorkLocal[1] == 5*) GOTO 0x075F
316: 0x0757 [0x03] Work_Zone_1700[8] = 2*
317: 0x075C [0x01] GOTO 0x077F
318: 0x075F [0x02] IF !(ExtData[1]->WorkLocal[1] == 6*) GOTO 0x076F
319: 0x0767 [0x03] Work_Zone_1700[9] = 2*
320: 0x076C [0x01] GOTO 0x077F
321: 0x076F [0x02] IF !(ExtData[1]->WorkLocal[1] == 7*) GOTO 0x077F
322: 0x0777 [0x03] Work_Zone_1700[10] = 2*
323: 0x077C [0x01] GOTO 0x077F

SUBROUTINE_077F:
324: 0x077F [0x02] IF !(ExtData[1]->WorkLocal[5] == ExtData[1]->WorkLocal[1]) GOTO 0x0807
325: 0x0787 [0x02] IF !(ExtData[1]->WorkLocal[5] == 0*) GOTO 0x0797
326: 0x078F [0x03] Work_Zone_1700[3] = 1*
327: 0x0794 [0x01] GOTO 0x0807
328: 0x0797 [0x02] IF !(ExtData[1]->WorkLocal[5] == 1*) GOTO 0x07A7
329: 0x079F [0x03] Work_Zone_1700[4] = 1*
330: 0x07A4 [0x01] GOTO 0x0807
331: 0x07A7 [0x02] IF !(ExtData[1]->WorkLocal[5] == 2*) GOTO 0x07B7
332: 0x07AF [0x03] Work_Zone_1700[5] = 1*
333: 0x07B4 [0x01] GOTO 0x0807
334: 0x07B7 [0x02] IF !(ExtData[1]->WorkLocal[5] == 3*) GOTO 0x07C7
335: 0x07BF [0x03] Work_Zone_1700[6] = 1*
336: 0x07C4 [0x01] GOTO 0x0807
337: 0x07C7 [0x02] IF !(ExtData[1]->WorkLocal[5] == 4*) GOTO 0x07D7
338: 0x07CF [0x03] Work_Zone_1700[7] = 1*
339: 0x07D4 [0x01] GOTO 0x0807
340: 0x07D7 [0x02] IF !(ExtData[1]->WorkLocal[5] == 5*) GOTO 0x07E7
341: 0x07DF [0x03] Work_Zone_1700[8] = 1*
342: 0x07E4 [0x01] GOTO 0x0807
343: 0x07E7 [0x02] IF !(ExtData[1]->WorkLocal[5] == 6*) GOTO 0x07F7
344: 0x07EF [0x03] Work_Zone_1700[9] = 1*
345: 0x07F4 [0x01] GOTO 0x0807
346: 0x07F7 [0x02] IF !(ExtData[1]->WorkLocal[5] == 7*) GOTO 0x0807
347: 0x07FF [0x03] Work_Zone_1700[10] = 1*
348: 0x0804 [0x01] GOTO 0x0807

SUBROUTINE_0807:
349: 0x0807 [0x24] CREATE_DIALOG(message_id=14174*, default_option=ExtData[1]->WorkLocal[36], option_flags=0*)
    → "Choose your character's face type. [Face type 1.@[/$26Selected/(face before change)]/Face type 2.@[/$26Selected/(face before change)]/Face type 3.@[/$26Selected/(face before change)]/Face type 4.@[/$26Selected/(face before change)]/Face type 5.@[/$26Selected/(face before change)]/Face type 6.@[/$26Selected/(face before change)]/Face type 7.@[/$26Selected/(face before change)]/Face type 8.@[/$26Selected/(face before change)]/Back.]"
350: 0x080E [0x25] WAIT_DIALOG_SELECT()
351: 0x080F [0x02] IF !(Work_Zone[0] == 0*) GOTO 0x0822
352: 0x0817 [0x03] ExtData[1]->WorkLocal[5] = 0*
353: 0x081C [0x1A] CALL_SUBROUTINE(address=0x0C57)
354: 0x081F [0x01] GOTO 0x08A8
355: 0x0822 [0x02] IF !(Work_Zone[0] == 1*) GOTO 0x0835
356: 0x082A [0x03] ExtData[1]->WorkLocal[5] = 1*
357: 0x082F [0x1A] CALL_SUBROUTINE(address=0x0C57)
358: 0x0832 [0x01] GOTO 0x08A8
359: 0x0835 [0x02] IF !(Work_Zone[0] == 2*) GOTO 0x0848
360: 0x083D [0x03] ExtData[1]->WorkLocal[5] = 2*
361: 0x0842 [0x1A] CALL_SUBROUTINE(address=0x0C57)
362: 0x0845 [0x01] GOTO 0x08A8
363: 0x0848 [0x02] IF !(Work_Zone[0] == 3*) GOTO 0x085B
364: 0x0850 [0x03] ExtData[1]->WorkLocal[5] = 3*
365: 0x0855 [0x1A] CALL_SUBROUTINE(address=0x0C57)
366: 0x0858 [0x01] GOTO 0x08A8
367: 0x085B [0x02] IF !(Work_Zone[0] == 4*) GOTO 0x086E
368: 0x0863 [0x03] ExtData[1]->WorkLocal[5] = 4*
369: 0x0868 [0x1A] CALL_SUBROUTINE(address=0x0C57)
370: 0x086B [0x01] GOTO 0x08A8
371: 0x086E [0x02] IF !(Work_Zone[0] == 5*) GOTO 0x0881
372: 0x0876 [0x03] ExtData[1]->WorkLocal[5] = 5*
373: 0x087B [0x1A] CALL_SUBROUTINE(address=0x0C57)
374: 0x087E [0x01] GOTO 0x08A8
375: 0x0881 [0x02] IF !(Work_Zone[0] == 6*) GOTO 0x0894
376: 0x0889 [0x03] ExtData[1]->WorkLocal[5] = 6*
377: 0x088E [0x1A] CALL_SUBROUTINE(address=0x0C57)
378: 0x0891 [0x01] GOTO 0x08A8
379: 0x0894 [0x02] IF !(Work_Zone[0] == 7*) GOTO 0x08A7
380: 0x089C [0x03] ExtData[1]->WorkLocal[5] = 7*
381: 0x08A1 [0x1A] CALL_SUBROUTINE(address=0x0C57)
382: 0x08A4 [0x01] GOTO 0x08A8
383: 0x08A7 [0x1B] RETURN

SUBROUTINE_08A8:
384: 0x08A8 [0x03] ExtData[1]->WorkLocal[36] = Work_Zone[0]
385: 0x08AD [0x01] GOTO 0x06CC
386: 0x08B0 [0x1B] RETURN

SUBROUTINE_08B1:
387: 0x08B1 [0x05] ExtData[1]->WorkLocal[37] = 1

SUBROUTINE_08B4:
388: 0x08B4 [0x02] IF !(ExtData[1]->WorkLocal[37] == 0*) GOTO 0x0948
389: 0x08BC [0x1A] CALL_SUBROUTINE(address=0x0BBE)
390: 0x08BF [0x03] Work_Zone_1700[3] = 0*
391: 0x08C4 [0x03] Work_Zone_1700[4] = 0*
392: 0x08C9 [0x02] IF !(ExtData[1]->WorkLocal[2] == 0*) GOTO 0x08D9
393: 0x08D1 [0x03] Work_Zone_1700[3] = 2*
394: 0x08D6 [0x01] GOTO 0x08E9
395: 0x08D9 [0x02] IF !(ExtData[1]->WorkLocal[2] == 1*) GOTO 0x08E9
396: 0x08E1 [0x03] Work_Zone_1700[4] = 2*
397: 0x08E6 [0x01] GOTO 0x08E9

SUBROUTINE_08E9:
398: 0x08E9 [0x02] IF !(ExtData[1]->WorkLocal[6] == ExtData[1]->WorkLocal[2]) GOTO 0x0911
399: 0x08F1 [0x02] IF !(ExtData[1]->WorkLocal[6] == 0*) GOTO 0x0901
400: 0x08F9 [0x03] Work_Zone_1700[3] = 1*
401: 0x08FE [0x01] GOTO 0x0911
402: 0x0901 [0x02] IF !(ExtData[1]->WorkLocal[6] == 1*) GOTO 0x0911
403: 0x0909 [0x03] Work_Zone_1700[4] = 1*
404: 0x090E [0x01] GOTO 0x0911

SUBROUTINE_0911:
405: 0x0911 [0x24] CREATE_DIALOG(message_id=14175*, default_option=ExtData[1]->WorkLocal[38], option_flags=0*)
    → "Choose your character's hair color. [Hair A. [/$26Selected/(hair before change)]/Hair B. [/$26Selected/(hair before change)]/Back.]"
406: 0x0918 [0x25] WAIT_DIALOG_SELECT()
407: 0x0919 [0x02] IF !(Work_Zone[0] == 0*) GOTO 0x092C
408: 0x0921 [0x03] ExtData[1]->WorkLocal[6] = 0*
409: 0x0926 [0x1A] CALL_SUBROUTINE(address=0x0C57)
410: 0x0929 [0x01] GOTO 0x0940
411: 0x092C [0x02] IF !(Work_Zone[0] == 1*) GOTO 0x093F
412: 0x0934 [0x03] ExtData[1]->WorkLocal[6] = 1*
413: 0x0939 [0x1A] CALL_SUBROUTINE(address=0x0C57)
414: 0x093C [0x01] GOTO 0x0940
415: 0x093F [0x1B] RETURN

SUBROUTINE_0940:
416: 0x0940 [0x03] ExtData[1]->WorkLocal[38] = Work_Zone[0]
417: 0x0945 [0x01] GOTO 0x08B4
418: 0x0948 [0x1B] RETURN

SUBROUTINE_0949:
419: 0x0949 [0x05] ExtData[1]->WorkLocal[39] = 1

SUBROUTINE_094C:
420: 0x094C [0x02] IF !(ExtData[1]->WorkLocal[39] == 0*) GOTO 0x0A18
421: 0x0954 [0x1A] CALL_SUBROUTINE(address=0x0BBE)
422: 0x0957 [0x03] Work_Zone_1700[3] = 0*
423: 0x095C [0x03] Work_Zone_1700[4] = 0*
424: 0x0961 [0x03] Work_Zone_1700[5] = 0*
425: 0x0966 [0x02] IF !(ExtData[1]->WorkLocal[3] == 0*) GOTO 0x0976
426: 0x096E [0x03] Work_Zone_1700[3] = 2*
427: 0x0973 [0x01] GOTO 0x0996
428: 0x0976 [0x02] IF !(ExtData[1]->WorkLocal[3] == 1*) GOTO 0x0986
429: 0x097E [0x03] Work_Zone_1700[4] = 2*
430: 0x0983 [0x01] GOTO 0x0996
431: 0x0986 [0x02] IF !(ExtData[1]->WorkLocal[3] == 2*) GOTO 0x0996
432: 0x098E [0x03] Work_Zone_1700[5] = 2*
433: 0x0993 [0x01] GOTO 0x0996

SUBROUTINE_0996:
434: 0x0996 [0x02] IF !(ExtData[1]->WorkLocal[7] == ExtData[1]->WorkLocal[3]) GOTO 0x09CE
435: 0x099E [0x02] IF !(ExtData[1]->WorkLocal[7] == 0*) GOTO 0x09AE
436: 0x09A6 [0x03] Work_Zone_1700[3] = 1*
437: 0x09AB [0x01] GOTO 0x09CE
438: 0x09AE [0x02] IF !(ExtData[1]->WorkLocal[7] == 1*) GOTO 0x09BE
439: 0x09B6 [0x03] Work_Zone_1700[4] = 1*
440: 0x09BB [0x01] GOTO 0x09CE
441: 0x09BE [0x02] IF !(ExtData[1]->WorkLocal[7] == 2*) GOTO 0x09CE
442: 0x09C6 [0x03] Work_Zone_1700[5] = 1*
443: 0x09CB [0x01] GOTO 0x09CE

SUBROUTINE_09CE:
444: 0x09CE [0x24] CREATE_DIALOG(message_id=14176*, default_option=ExtData[1]->WorkLocal[40], option_flags=0*)
    → "Choose your character's size. [Small. [/$26Selected/(size before change)]/Medium. [/$26Selected/(size before change)]/Large. [/$26Selected/(size before change)]/Back.]"
445: 0x09D5 [0x25] WAIT_DIALOG_SELECT()
446: 0x09D6 [0x02] IF !(Work_Zone[0] == 0*) GOTO 0x09E9
447: 0x09DE [0x03] ExtData[1]->WorkLocal[7] = 0*
448: 0x09E3 [0x1A] CALL_SUBROUTINE(address=0x0D13)
449: 0x09E6 [0x01] GOTO 0x0A10
450: 0x09E9 [0x02] IF !(Work_Zone[0] == 1*) GOTO 0x09FC
451: 0x09F1 [0x03] ExtData[1]->WorkLocal[7] = 1*
452: 0x09F6 [0x1A] CALL_SUBROUTINE(address=0x0D13)
453: 0x09F9 [0x01] GOTO 0x0A10
454: 0x09FC [0x02] IF !(Work_Zone[0] == 2*) GOTO 0x0A0F
455: 0x0A04 [0x03] ExtData[1]->WorkLocal[7] = 2*
456: 0x0A09 [0x1A] CALL_SUBROUTINE(address=0x0D13)
457: 0x0A0C [0x01] GOTO 0x0A10
458: 0x0A0F [0x1B] RETURN

SUBROUTINE_0A10:
459: 0x0A10 [0x03] ExtData[1]->WorkLocal[40] = Work_Zone[0]
460: 0x0A15 [0x01] GOTO 0x094C
461: 0x0A18 [0x1B] RETURN
462: 0x0A19 [0x05] ExtData[1]->WorkLocal[41] = 1

SUBROUTINE_0A1C:
463: 0x0A1C [0x02] IF !(ExtData[1]->WorkLocal[41] == 0*) GOTO 0x0B04
464: 0x0A24 [0x03] Work_Zone_1700[3] = ExtData[1]->WorkLocal[22]
465: 0x0A29 [0x03] Work_Zone_1700[4] = ExtData[1]->WorkLocal[23]
466: 0x0A2E [0x03] Work_Zone_1700[5] = ExtData[1]->WorkLocal[24]
467: 0x0A33 [0x24] CREATE_DIALOG(message_id=14177*, default_option=ExtData[1]->WorkLocal[42], option_flags=0*)
    → "Character display settings. [([$26/@])Display edits./([@/$26])Display translucently./([@/@/$26])Don't display old./([$26/@/@])Display old./([@/$26/@])Display old translucently./([@/$26])Display overlap./([$26/@])Display old to the side./Back.]"
468: 0x0A3A [0x25] WAIT_DIALOG_SELECT()
469: 0x0A3B [0x02] IF !(Work_Zone[0] == 0*) GOTO 0x0A54
470: 0x0A43 [0x03] ExtData[1]->WorkLocal[24] = 0*
471: 0x0A48 [0x6C] FADE_ENTITY_COLOR(entity_id=LocalPlayer, end_alpha=128*, fade_time=30*)
472: 0x0A51 [0x01] GOTO 0x0AFC
473: 0x0A54 [0x02] IF !(Work_Zone[0] == 1*) GOTO 0x0A6D
474: 0x0A5C [0x03] ExtData[1]->WorkLocal[24] = 1*
475: 0x0A61 [0x6C] FADE_ENTITY_COLOR(entity_id=LocalPlayer, end_alpha=48*, fade_time=30*)
476: 0x0A6A [0x01] GOTO 0x0AFC
477: 0x0A6D [0x02] IF !(Work_Zone[0] == 2*) GOTO 0x0A83
478: 0x0A75 [0x03] ExtData[1]->WorkLocal[23] = 2*
479: 0x0A7A [0x4E] SET_ENTITY_HIDE_FLAG: Hide Previous Race (ID: 17744240/0x010EC170)
480: 0x0A80 [0x01] GOTO 0x0AFC
481: 0x0A83 [0x02] IF !(Work_Zone[0] == 3*) GOTO 0x0AA2
482: 0x0A8B [0x03] ExtData[1]->WorkLocal[23] = 0*
483: 0x0A90 [0x4E] SET_ENTITY_HIDE_FLAG: Show Previous Race (ID: 17744240/0x010EC170)
484: 0x0A96 [0x6C] FADE_ENTITY_COLOR(entity_id=Previous Race (ID: 17744240/0x010EC170), end_alpha=128*, fade_time=30*)
485: 0x0A9F [0x01] GOTO 0x0AFC
486: 0x0AA2 [0x02] IF !(Work_Zone[0] == 4*) GOTO 0x0AC1
487: 0x0AAA [0x03] ExtData[1]->WorkLocal[23] = 1*
488: 0x0AAF [0x4E] SET_ENTITY_HIDE_FLAG: Show Previous Race (ID: 17744240/0x010EC170)
489: 0x0AB5 [0x6C] FADE_ENTITY_COLOR(entity_id=Previous Race (ID: 17744240/0x010EC170), end_alpha=48*, fade_time=30*)
490: 0x0ABE [0x01] GOTO 0x0AFC
491: 0x0AC1 [0x02] IF !(Work_Zone[0] == 5*) GOTO 0x0ADE
492: 0x0AC9 [0x03] ExtData[1]->WorkLocal[22] = 1*
493: 0x0ACE [0xBA] SET_ENTITY_POSITION(entity_id=Previous Race (ID: 17744240/0x010EC170), pos_x=0.000*, pos_z=0.000*, pos_y=0.000*, direction=0.0°*)
494: 0x0ADB [0x01] GOTO 0x0AFC
495: 0x0ADE [0x02] IF !(Work_Zone[0] == 6*) GOTO 0x0AFB
496: 0x0AE6 [0x03] ExtData[1]->WorkLocal[22] = 0*
497: 0x0AEB [0xBA] SET_ENTITY_POSITION(entity_id=Previous Race (ID: 17744240/0x010EC170), pos_x=0.000*, pos_z=ExtData[1]->WorkLocal[21], pos_y=0.000*, direction=ExtData[1]->WorkLocal[20])
498: 0x0AF8 [0x01] GOTO 0x0AFC
499: 0x0AFB [0x1B] RETURN

SUBROUTINE_0AFC:
500: 0x0AFC [0x03] ExtData[1]->WorkLocal[42] = Work_Zone[0]
501: 0x0B01 [0x01] GOTO 0x0A1C
502: 0x0B04 [0x1B] RETURN

SUBROUTINE_0B05:
503: 0x0B05 [0x03] ExtData[1]->WorkLocal[29] = Work_Zone[6]
504: 0x0B0A [0x15] ExtData[1]->WorkLocal[29] /= 86400*
505: 0x0B0F [0x02] IF !(ExtData[1]->WorkLocal[29] < 1*) GOTO 0x0B23
506: 0x0B17 [0x03] Work_Zone[2] = ExtData[1]->WorkLocal[29]
507: 0x0B1C [0x1D] PRINT_EVENT_MESSAGE(message_id=14162*)
    → "You have $0 more day[/s] to use this service, kupo."
508: 0x0B1F [0x23] WAIT_FOR_DIALOG_INTERACTION
509: 0x0B20 [0x01] GOTO 0x0B62
510: 0x0B23 [0x03] Work_Zone[2] = Work_Zone[6]
511: 0x0B28 [0x15] Work_Zone[2] /= 3600*
512: 0x0B2D [0x3F] Work_Zone[3] = Work_Zone[6] % 3600*
513: 0x0B34 [0x15] Work_Zone[3] /= 60*
514: 0x0B39 [0x3F] Work_Zone[4] = Work_Zone[6] % 60*
515: 0x0B40 [0x02] IF !(Work_Zone[2] < 1*) GOTO 0x0B4F
516: 0x0B48 [0x1D] PRINT_EVENT_MESSAGE(message_id=14163*)
    → "You have $0 hour[/s] $1 minute[/s] $2 second[/s] remaining to use this service, kupo."
517: 0x0B4B [0x23] WAIT_FOR_DIALOG_INTERACTION
518: 0x0B4C [0x01] GOTO 0x0B62
519: 0x0B4F [0x02] IF !(Work_Zone[3] < 1*) GOTO 0x0B5E
520: 0x0B57 [0x1D] PRINT_EVENT_MESSAGE(message_id=14164*)
    → "You have $1 minute[/s] $2 second[/s] remaining to use this service, kupo."
521: 0x0B5A [0x23] WAIT_FOR_DIALOG_INTERACTION
522: 0x0B5B [0x01] GOTO 0x0B62
523: 0x0B5E [0x1D] PRINT_EVENT_MESSAGE(message_id=14165*)
    → "You have $2 second[/s] remaining to use this service, kupo."
524: 0x0B61 [0x23] WAIT_FOR_DIALOG_INTERACTION

SUBROUTINE_0B62:
525: 0x0B62 [0x1B] RETURN

SUBROUTINE_0B63:
526: 0x0B63 [0x06] ExtData[1]->WorkLocal[43] = 0
527: 0x0B66 [0x02] IF !(ExtData[1]->WorkLocal[4] == ExtData[1]->WorkLocal[0]) GOTO 0x0B71
528: 0x0B6E [0x05] ExtData[1]->WorkLocal[43] = 1
529: 0x0B71 [0x02] IF !(ExtData[1]->WorkLocal[5] == ExtData[1]->WorkLocal[1]) GOTO 0x0B7C
530: 0x0B79 [0x05] ExtData[1]->WorkLocal[43] = 1
531: 0x0B7C [0x02] IF !(ExtData[1]->WorkLocal[6] == ExtData[1]->WorkLocal[2]) GOTO 0x0B87
532: 0x0B84 [0x05] ExtData[1]->WorkLocal[43] = 1
533: 0x0B87 [0x02] IF !(ExtData[1]->WorkLocal[7] == ExtData[1]->WorkLocal[3]) GOTO 0x0B92
534: 0x0B8F [0x05] ExtData[1]->WorkLocal[43] = 1
535: 0x0B92 [0x02] IF !(ExtData[1]->WorkLocal[43] == 0*) GOTO 0x0BBA
536: 0x0B9A [0x48] [System] [14171*]:
    → "You will lose your character's current appearance. Are you sure you want to exit the process?"
537: 0x0B9D [0x23] WAIT_FOR_DIALOG_INTERACTION
538: 0x0B9E [0x24] CREATE_DIALOG(message_id=14172*, default_option=1*, option_flags=0*)
    → "Are you finished making changes? [Yes./No.]"
539: 0x0BA5 [0x25] WAIT_DIALOG_SELECT()
540: 0x0BA6 [0x02] IF !(Work_Zone[0] == 0*) GOTO 0x0BB4
541: 0x0BAE [0x05] ExtData[1]->WorkLocal[28] = 1
542: 0x0BB1 [0x01] GOTO 0x0BB7
543: 0x0BB4 [0x06] ExtData[1]->WorkLocal[28] = 0

SUBROUTINE_0BB7:
544: 0x0BB7 [0x01] GOTO 0x0BBD
545: 0x0BBA [0x05] ExtData[1]->WorkLocal[28] = 1

SUBROUTINE_0BBD:
546: 0x0BBD [0x1B] RETURN

SUBROUTINE_0BBE:
547: 0x0BBE [0x02] IF !(ExtData[1]->WorkLocal[4] == 1*) GOTO 0x0BCE
548: 0x0BC6 [0x03] Work_Zone[90] = 133*
549: 0x0BCB [0x01] GOTO 0x0C43
550: 0x0BCE [0x02] IF !(ExtData[1]->WorkLocal[4] == 2*) GOTO 0x0BDE
551: 0x0BD6 [0x03] Work_Zone[90] = 168*
552: 0x0BDB [0x01] GOTO 0x0C43
553: 0x0BDE [0x02] IF !(ExtData[1]->WorkLocal[4] == 3*) GOTO 0x0BEE
554: 0x0BE6 [0x03] Work_Zone[90] = 132*
555: 0x0BEB [0x01] GOTO 0x0C43
556: 0x0BEE [0x02] IF !(ExtData[1]->WorkLocal[4] == 4*) GOTO 0x0BFE
557: 0x0BF6 [0x03] Work_Zone[90] = 131*
558: 0x0BFB [0x01] GOTO 0x0C43
559: 0x0BFE [0x02] IF !(ExtData[1]->WorkLocal[4] == 5*) GOTO 0x0C0E
560: 0x0C06 [0x03] Work_Zone[90] = 167*
561: 0x0C0B [0x01] GOTO 0x0C43
562: 0x0C0E [0x02] IF !(ExtData[1]->WorkLocal[4] == 6*) GOTO 0x0C1E
563: 0x0C16 [0x03] Work_Zone[90] = 130*
564: 0x0C1B [0x01] GOTO 0x0C43
565: 0x0C1E [0x02] IF !(ExtData[1]->WorkLocal[4] == 7*) GOTO 0x0C2E
566: 0x0C26 [0x03] Work_Zone[90] = 166*
567: 0x0C2B [0x01] GOTO 0x0C43
568: 0x0C2E [0x02] IF !(ExtData[1]->WorkLocal[4] == 8*) GOTO 0x0C3E
569: 0x0C36 [0x03] Work_Zone[90] = 165*
570: 0x0C3B [0x01] GOTO 0x0C43
571: 0x0C3E [0x03] Work_Zone[90] = 0*

SUBROUTINE_0C43:
572: 0x0C43 [0x1B] RETURN

SUBROUTINE_0C44:
573: 0x0C44 [0x1A] CALL_SUBROUTINE(address=0x0C57)
574: 0x0C47 [0x1A] CALL_SUBROUTINE(address=0x0D13)
575: 0x0C4A [0x1A] CALL_SUBROUTINE(address=0x0D72)
576: 0x0C4D [0x1A] CALL_SUBROUTINE(address=0x0BBE)
577: 0x0C50 [0x1C] WAIT(30* ticks)
578: 0x0C53 [0x1A] CALL_SUBROUTINE(address=0x0E92)
579: 0x0C56 [0x1B] RETURN

SUBROUTINE_0C57:
580: 0x0C57 [0x03] ExtData[1]->WorkLocal[8] = ExtData[1]->WorkLocal[5]
581: 0x0C5C [0x14] ExtData[1]->WorkLocal[8] *= 2*
582: 0x0C61 [0x07] ExtData[1]->WorkLocal[8] += ExtData[1]->WorkLocal[6]
583: 0x0C66 [0xB6] ENTITY_APPEARANCE_HANDLER(case=Unknown 0x16)
584: 0x0C68 [0x04] DEPRECATED_NOP(unused=0x0800)
585: 0x0C6B [0x00] END_REQSTACK()

SUBROUTINE_0CAA:
586: 0x0CAA [0x03] ExtData[1]->WorkLocal[8] = ExtData[1]->WorkLocal[1]
587: 0x0CAF [0x14] ExtData[1]->WorkLocal[8] *= 2*
588: 0x0CB4 [0x07] ExtData[1]->WorkLocal[8] += ExtData[1]->WorkLocal[2]
589: 0x0CB9 [0x3E] IF !(ExtData[1]->WorkLocal[11] bit 1*) GOTO 0x0CD9
590: 0x0CC0 [0xB6] ENTITY_APPEARANCE_HANDLER(case=Unknown 0x16)
591: 0x0CC2 [0x00] END_REQSTACK()

SUBROUTINE_0D72:
592: 0x0D72 [0x03] Work_Zone[2] = ExtData[1]->WorkLocal[25]
593: 0x0D77 [0x03] Work_Zone[3] = ExtData[1]->WorkLocal[26]

SUBROUTINE_0E92:
594: 0x0E92 [0x02] IF !(ExtData[1]->WorkLocal[25] == 0*) GOTO 0x0F6D
595: 0x0E9A [0x02] IF !(ExtData[1]->WorkLocal[4] == 1*) GOTO 0x0EB4
596: 0x0EA2 [0x55] WAIT_LOAD_SCHEDULER: Wait for scheduler "shm0" with entities [LocalPlayer, LocalPlayer], work=821*
597: 0x0EB1 [0x01] GOTO 0x0F6A
598: 0x0EB4 [0x02] IF !(ExtData[1]->WorkLocal[4] == 2*) GOTO 0x0ECE
599: 0x0EBC [0x55] WAIT_LOAD_SCHEDULER: Wait for scheduler "shf0" with entities [LocalPlayer, LocalPlayer], work=821*
600: 0x0ECB [0x01] GOTO 0x0F6A
601: 0x0ECE [0x02] IF !(ExtData[1]->WorkLocal[4] == 3*) GOTO 0x0EE8
602: 0x0ED6 [0x55] WAIT_LOAD_SCHEDULER: Wait for scheduler "sem0" with entities [LocalPlayer, LocalPlayer], work=821*
603: 0x0EE5 [0x01] GOTO 0x0F6A
604: 0x0EE8 [0x02] IF !(ExtData[1]->WorkLocal[4] == 4*) GOTO 0x0F02
605: 0x0EF0 [0x55] WAIT_LOAD_SCHEDULER: Wait for scheduler "sef0" with entities [LocalPlayer, LocalPlayer], work=821*
606: 0x0EFF [0x01] GOTO 0x0F6A
607: 0x0F02 [0x02] IF !(ExtData[1]->WorkLocal[4] == 5*) GOTO 0x0F1C
608: 0x0F0A [0x55] WAIT_LOAD_SCHEDULER: Wait for scheduler "stm0" with entities [LocalPlayer, LocalPlayer], work=821*
609: 0x0F19 [0x01] GOTO 0x0F6A
610: 0x0F1C [0x02] IF !(ExtData[1]->WorkLocal[4] == 6*) GOTO 0x0F36
611: 0x0F24 [0x55] WAIT_LOAD_SCHEDULER: Wait for scheduler "stm0" with entities [LocalPlayer, LocalPlayer], work=821*
612: 0x0F33 [0x01] GOTO 0x0F6A
613: 0x0F36 [0x02] IF !(ExtData[1]->WorkLocal[4] == 7*) GOTO 0x0F50
614: 0x0F3E [0x55] WAIT_LOAD_SCHEDULER: Wait for scheduler "smf0" with entities [LocalPlayer, LocalPlayer], work=821*
615: 0x0F4D [0x01] GOTO 0x0F6A
616: 0x0F50 [0x02] IF !(ExtData[1]->WorkLocal[4] == 8*) GOTO 0x0F6A
617: 0x0F58 [0x55] WAIT_LOAD_SCHEDULER: Wait for scheduler "sgm0" with entities [LocalPlayer, LocalPlayer], work=821*
618: 0x0F67 [0x01] GOTO 0x0F6A

SUBROUTINE_0F6A:
619: 0x0F6A [0x01] GOTO 0x0F8D
620: 0x0F6D [0x02] IF !(ExtData[1]->WorkLocal[25] == 1*) GOTO 0x0F8D
621: 0x0F75 [0x03] ExtData[1]->WorkLocal[27] = ExtData[1]->WorkLocal[4]
622: 0x0F7A [0x14] ExtData[1]->WorkLocal[27] *= 4*
623: 0x0F7F [0x07] ExtData[1]->WorkLocal[27] += ExtData[1]->WorkLocal[7]
624: 0x0F84 [0x9D] CALL 0x1070[ExtData[1]->WorkLocal[27]] // Jump table
625: 0x0F8A [0x01] GOTO 0x0F8D

SUBROUTINE_0F8D:
626: 0x0F8D [0x1B] RETURN

SUBROUTINE_0F9D:
627: 0x0F9D [0x45] LOAD_SCHEDULED_TASK: Load scheduler "fdi1" with entities [EventEntity, EventEntity], work=[200*, 0*]
628: 0x0FAE [0x55] WAIT_LOAD_SCHEDULER: Wait for scheduler "fdi1" with entities [EventEntity, EventEntity], work=200*
629: 0x0FBD [0x1B] RETURN

SUBROUTINE_0FBE:
630: 0x0FBE [0x45] LOAD_SCHEDULED_TASK: Load scheduler "fdo1" with entities [EventEntity, EventEntity], work=[200*, 0*]
631: 0x0FCF [0x55] WAIT_LOAD_SCHEDULER: Wait for scheduler "fdo1" with entities [EventEntity, EventEntity], work=200*
632: 0x0FDE [0x1B] RETURN

SUBROUTINE_0FDF:
633: 0x0FDF [0x1D] PRINT_EVENT_MESSAGE(message_id=14190*)
    → "Let me see if you have any."
634: 0x0FE2 [0x23] WAIT_FOR_DIALOG_INTERACTION
635: 0x0FE3 [0x48] [System] [14191*]:
    → "Items held by NPCs or stored with storage slips are ineligible."
636: 0x0FE6 [0x24] CREATE_DIALOG(message_id=14192*, default_option=0*, option_flags=0*)
    → "Have the moogle check? [Yes, please./No, thank you.]"
637: 0x0FED [0x25] WAIT_DIALOG_SELECT()
638: 0x0FEE [0x02] IF !(Work_Zone[0] == 0*) GOTO 0x101F
639: 0x0FF6 [0x42] SET_CLI_EVENT_CANCEL_DATA()
640: 0x0FF7 [0x1D] PRINT_EVENT_MESSAGE(message_id=14193*)
    → "Let's get down to business, kupo."
641: 0x0FFA [0x23] WAIT_FOR_DIALOG_INTERACTION
642: 0x0FFB [0x40] SET_BIT_WORK_RANGE(start_bit=0*, end_bit=7*, target=Work_Zone[1], source=3*)
643: 0x1004 [0x43] SEND_EVENT_UPDATE: Send pending tag to server (packet 0x005B)
644: 0x1006 [0x43] SEND_EVENT_UPDATE: Check pending flag (skip if not pending)
645: 0x1008 [0x02] IF !(Work_Zone[2] <= 0*) GOTO 0x1017
646: 0x1010 [0x1D] PRINT_EVENT_MESSAGE(message_id=14196*)
    → "That should cover it!"
647: 0x1013 [0x23] WAIT_FOR_DIALOG_INTERACTION
648: 0x1014 [0x01] GOTO 0x101B
649: 0x1017 [0x1D] PRINT_EVENT_MESSAGE(message_id=14197*)
    → "Wait...I can't take anything you have."
650: 0x101A [0x23] WAIT_FOR_DIALOG_INTERACTION

SUBROUTINE_101B:
651: 0x101B [0x2E] SET_CLI_EVENT_CANCEL_FLAGS()
652: 0x101C [0x01] GOTO 0x101F

SUBROUTINE_101F:
653: 0x101F [0x1B] RETURN
```

#### Data or dead code:

```
# Data Section: 0x0D32 (64 bytes)
     0x0D32: 4C 80 4D 80 4E 80 01 80 4C 80 4D 80 4E 80 01 80
     0x0D42: 4C 80 4D 80 4E 80 01 80 4C 80 4D 80 4E 80 01 80
     0x0D52: 4F 80 50 80 51 80 01 80 4F 80 50 80 51 80 01 80
     0x0D62: 52 80 53 80 54 80 01 80 51 80 55 80 4D 80 01 80
# Data Section: 0x1070 (258 bytes)
     0x1070: C0 10 C0 10 C0 10 C0 10 82 12 92 12 A2 12 C0 10
     0x1080: B2 12 C2 12 D2 12 C0 10 E2 12 F2 12 02 13 C0 10
     0x1090: 12 13 22 13 32 13 C0 10 42 13 52 13 62 13 C0 10
     0x10A0: 72 13 82 13 92 13 C0 10 A2 13 B2 13 C2 13 C0 10
     0x10B0: D2 13 E2 13 F2 13 C0 10 C0 10 C0 10 C0 10 C0 10
     0x10C0: 45 1A 80 F0 FF FF 7F F0 FF FF 7F 63 30 36 69 1A
     0x10D0: 00 1B 45 56 80 F0 FF FF 7F F0 FF FF 7F 73 68 6D
     0x10E0: 31 1A 00 1B 45 56 80 F0 FF FF 7F F0 FF FF 7F 73
     0x10F0: 68 6D 32 1A 00 1B 45 56 80 F0 FF FF 7F F0 FF FF
     0x1100: 7F 73 68 6D 33 1A 00 1B 45 56 80 F0 FF FF 7F F0
     0x1110: FF FF 7F 73 68 66 31 1A 00 1B 45 56 80 F0 FF FF
     0x1120: 7F F0 FF FF 7F 73 68 66 32 1A 00 1B 45 56 80 F0
     0x1130: FF FF 7F F0 FF FF 7F 73 68 66 33 1A 00 1B 45 56
     0x1140: 80 F0 FF FF 7F F0 FF FF 7F 73 65 6D 31 1A 00 1B
     0x1150: 45 56 80 F0 FF FF 7F F0 FF FF 7F 73 65 6D 32 1A
     0x1160: 00 1B 45 56 80 F0 FF FF 7F F0 FF FF 7F 73 65 6D
     0x1170: 33 1A
# Dead code (unreachable instructions):
     0x035A [0x19] SWAP(0x0B00, 0x0180)
     0x035F [0x71] USER_INPUT_HANDLER: Check vulgar filter (work=0x161C)
     0x036C [0x72] LOAD_EVENT_WEATHER: Unknown mode 13, weather_id=0x921A
     0x0370 [0x0E] 0x9D1A |= 0x010F
     0x0375 [0xDD] UNKNOWN_0xDD
     0x0376 [0x04] DEPRECATED_NOP(unused=0x02)
     0x049B [0x01] GOTO 0x049E
# Dead code (unreachable instructions):
     0x0C6C [0x2C] CREATE_SCHEDULER_TASK: Create scheduler 0x01800180 with entities [Unknown NPC (ID: 746597504/0x2C802C80), Unknown NPC (ID: 746597504/0x2C802C80)]
     0x0C79 [0x80] LOAD_WAIT(entity=Unknown NPC (ID: 4034953217/0xF0808001))
     0x0C7E [0xFF] UNKNOWN_0xFF
     0x0C7F [0xFF] UNKNOWN_0xFF
     0x0C80 [0x7F] WAIT_DIALOG_SELECT_ALT()
     0x0C81 [0x03] Work_Zone_1700[2] = ExtData[1]->WorkLocal[4]
     0x0C86 [0x03] Work_Zone_1700[3] = ExtData[1]->WorkLocal[5]
     0x0C8B [0x0B] Work_Zone_1700[3]++
     0x0C8E [0x03] Work_Zone_1700[4] = ExtData[1]->WorkLocal[6]
     0x0C93 [0x03] Work_Zone_1700[5] = ExtData[1]->WorkLocal[7]
     0x0C98 [0x02] IF !(ExtData[1]->WorkLocal[24] == 1*) GOTO 0x0CA9
     0x0CA0 [0x6C] FADE_ENTITY_COLOR(entity_id=LocalPlayer, end_alpha=48*, fade_time=30*)
     0x0CA9 [0x1B] RETURN
# Dead code (unreachable instructions):
     0x0CC3 [0x00] END_REQSTACK()
     0x0CC4 [0x08] 0x4B00 -= 0x0D80
     0x0CC9 [0x00] END_REQSTACK()
     0x0CCA [0x0E] 0x0F00 |= Work_Zone[0]
     0x0CCF [0x00] END_REQSTACK()
     0x0CD0 [0x11] 0x1200 >>= 0x1300
     0x0CD5 [0x00] END_REQSTACK()
     0x0CD6 [0x01] GOTO 0x0CEF
     0x0CDC [0x00] END_REQSTACK()
     0x0CDD [0x08] 0x0C00 -= 0x0D00
     0x0CE2 [0x00] END_REQSTACK()
     0x0CE3 [0x0E] 0x0F00 |= Work_Zone[0]
     0x0CE8 [0x00] END_REQSTACK()
     0x0CE9 [0x11] 0x1200 >>= 0x1300
     0x0CEE [0x00] END_REQSTACK()
     0x0CEF [0x80] LOAD_WAIT(entity=LocalPlayer)
     0x0CF4 [0x03] ExtData[1]->WorkLocal[9] = ExtData[1]->WorkLocal[0]
     0x0CF9 [0x0C] ExtData[1]->WorkLocal[9]--
     0x0CFC [0x14] ExtData[1]->WorkLocal[9] *= 4*
     0x0D01 [0x07] ExtData[1]->WorkLocal[9] += ExtData[1]->WorkLocal[3]
     0x0D06 [0x9D] ExtData[1]->WorkLocal[10] = 0x0D32[ExtData[1]->WorkLocal[9]] // Read WORD
     0x0D0E [0xB6] ENTITY_APPEARANCE_HANDLER(case=Unknown 0x17)
     0x0D10 [0x0A] 0x1B00 &= ~(1 << 0x0903)
     0x0D27 [0x32] ExtData[1]->MainSpeed = 0x0A0D * 0.1
     0x0D2A [0x00] END_REQSTACK()
     0x0D2B [0x09] 0xB600 |= (1 << 0x0A17)
     0x0D30 [0x00] END_REQSTACK()
     0x0D31 [0x1B] RETURN
# Dead code (unreachable instructions):
     0x0D7C [0x03] Work_Zone[4] = ExtData[1]->WorkLocal[4]
     0x0D81 [0x03] Work_Zone[5] = 0*
     0x0D86 [0x02] IF !(ExtData[1]->WorkLocal[25] == 0*) GOTO 0x0E71
     0x0D8E [0x02] IF !(ExtData[1]->WorkLocal[4] == 1*) GOTO 0x0DAA
     0x0D96 [0x45] LOAD_SCHEDULED_TASK: Load scheduler "shm0" with entities [LocalPlayer, LocalPlayer], work=[821*, ExtData[1]->WorkLocal[26]]
     0x0DA7 [0x01] GOTO 0x0E6E
     0x0DAA [0x02] IF !(ExtData[1]->WorkLocal[4] == 2*) GOTO 0x0DC6
     0x0DB2 [0x45] LOAD_SCHEDULED_TASK: Load scheduler "shf0" with entities [LocalPlayer, LocalPlayer], work=[821*, ExtData[1]->WorkLocal[26]]
     0x0DC3 [0x01] GOTO 0x0E6E
     0x0DC6 [0x02] IF !(ExtData[1]->WorkLocal[4] == 3*) GOTO 0x0DE2
     0x0DCE [0x45] LOAD_SCHEDULED_TASK: Load scheduler "sem0" with entities [LocalPlayer, LocalPlayer], work=[821*, ExtData[1]->WorkLocal[26]]
     0x0DDF [0x01] GOTO 0x0E6E
     0x0DE2 [0x02] IF !(ExtData[1]->WorkLocal[4] == 4*) GOTO 0x0DFE
     0x0DEA [0x45] LOAD_SCHEDULED_TASK: Load scheduler "sef0" with entities [LocalPlayer, LocalPlayer], work=[821*, ExtData[1]->WorkLocal[26]]
     0x0DFB [0x01] GOTO 0x0E6E
     0x0DFE [0x02] IF !(ExtData[1]->WorkLocal[4] == 5*) GOTO 0x0E1A
     0x0E06 [0x45] LOAD_SCHEDULED_TASK: Load scheduler "stm0" with entities [LocalPlayer, LocalPlayer], work=[821*, ExtData[1]->WorkLocal[26]]
     0x0E17 [0x01] GOTO 0x0E6E
     0x0E1A [0x02] IF !(ExtData[1]->WorkLocal[4] == 6*) GOTO 0x0E36
     0x0E22 [0x45] LOAD_SCHEDULED_TASK: Load scheduler "stm0" with entities [LocalPlayer, LocalPlayer], work=[821*, ExtData[1]->WorkLocal[26]]
     0x0E33 [0x01] GOTO 0x0E6E
     0x0E36 [0x02] IF !(ExtData[1]->WorkLocal[4] == 7*) GOTO 0x0E52
     0x0E3E [0x45] LOAD_SCHEDULED_TASK: Load scheduler "smf0" with entities [LocalPlayer, LocalPlayer], work=[821*, ExtData[1]->WorkLocal[26]]
     0x0E4F [0x01] GOTO 0x0E6E
     0x0E52 [0x02] IF !(ExtData[1]->WorkLocal[4] == 8*) GOTO 0x0E6E
     0x0E5A [0x45] LOAD_SCHEDULED_TASK: Load scheduler "sgm0" with entities [LocalPlayer, LocalPlayer], work=[821*, ExtData[1]->WorkLocal[26]]
     0x0E6B [0x01] GOTO 0x0E6E
     0x0E6E [0x01] GOTO 0x0E91
     0x0E71 [0x02] IF !(ExtData[1]->WorkLocal[25] == 1*) GOTO 0x0E91
     0x0E79 [0x03] ExtData[1]->WorkLocal[27] = ExtData[1]->WorkLocal[4]
     0x0E7E [0x14] ExtData[1]->WorkLocal[27] *= 4*
     0x0E83 [0x07] ExtData[1]->WorkLocal[27] += ExtData[1]->WorkLocal[7]
     0x0E88 [0x9D] CALL 0x1020[ExtData[1]->WorkLocal[27]] // Jump table
     0x0E8E [0x01] GOTO 0x0E91
     0x0E91 [0x1B] RETURN
# Dead code (unreachable instructions):
     0x0F8E [0x02] IF !(Work_Zone[95] == 0*) GOTO 0x0F9C
     0x0F96 [0x1C] WAIT(1* ticks)
     0x0F99 [0x01] GOTO 0x0F8E
     0x0F9C [0x1B] RETURN
# Dead code (unreachable instructions):
     0x1020 [0xC0] EventEntity->Render.Flags3 &= ~0x1000 // Clear bit 12
     0x1023 [0x10] 0x10C0 <<= 0x10C0
     0x1028 [0xD2] END_LOAD_SCHEDULER_MAIN_ALT7: End scheduler 0x00002C11 with entities [Unknown NPC (ID: 3222337040/0xC010F610), Unknown NPC (ID: 437323792/0x1A110810)], work=0xC0
     0x1037 [0x10] Work_Zone_Memorize[62] <<= Work_Zone_Memorize[80]
     0x103C [0x62] LOAD_EVENT_SCHEDULER: Load scheduler 0xBC11AA10 with entities [Unknown NPC (ID: 2249290768/0x86117410), Unknown NPC (ID: 3222378513/0xC0119811)], work=[0xC011, 0xCE11]
     0x104D [0x11] 0x10C0 >>= 0x11E0
     0x1052 [0xF2] UNKNOWN_0xF2
     0x1053 [0x11] 0x1204 >>= 0x10C0
     0x1058 [0x16] 0x2812 = sin(0x3A12) * 0xC012
     0x105F [0x10] 0x124C <<= 0x125E
     0x1064 [0x70] WAIT_ENTITY_RENDER_FLAG: Wait while EventEntity->Render.Flags3 bit 2 is set (cancel turn if not)
     0x1065 [0x12] 0x10C0 = rand()
     0x1068 [0xC0] EventEntity->Render.Flags3 &= ~0x1000 // Clear bit 12
     0x106B [0x10] 0x10C0 <<= 0x10C0
# Dead code (unreachable instructions):
     0x1172 [0x00] END_REQSTACK()
     0x1173 [0x1B] RETURN
     0x1174 [0x45] LOAD_SCHEDULED_TASK: Load scheduler "sef1" with entities [LocalPlayer, LocalPlayer], work=[821*, ExtData[1]->WorkLocal[26]]
     0x1185 [0x1B] RETURN
     0x1186 [0x45] LOAD_SCHEDULED_TASK: Load scheduler "sef2" with entities [LocalPlayer, LocalPlayer], work=[821*, ExtData[1]->WorkLocal[26]]
     0x1197 [0x1B] RETURN
     0x1198 [0x45] LOAD_SCHEDULED_TASK: Load scheduler "sef3" with entities [LocalPlayer, LocalPlayer], work=[821*, ExtData[1]->WorkLocal[26]]
     0x11A9 [0x1B] RETURN
     0x11AA [0x45] LOAD_SCHEDULED_TASK: Load scheduler "stm1" with entities [LocalPlayer, LocalPlayer], work=[821*, ExtData[1]->WorkLocal[26]]
     0x11BB [0x1B] RETURN
     0x11BC [0x45] LOAD_SCHEDULED_TASK: Load scheduler "stm2" with entities [LocalPlayer, LocalPlayer], work=[821*, ExtData[1]->WorkLocal[26]]
     0x11CD [0x1B] RETURN
     0x11CE [0x45] LOAD_SCHEDULED_TASK: Load scheduler "stm3" with entities [LocalPlayer, LocalPlayer], work=[821*, ExtData[1]->WorkLocal[26]]
     0x11DF [0x1B] RETURN
     0x11E0 [0x45] LOAD_SCHEDULED_TASK: Load scheduler "stm1" with entities [LocalPlayer, LocalPlayer], work=[821*, ExtData[1]->WorkLocal[26]]
     0x11F1 [0x1B] RETURN
     0x11F2 [0x45] LOAD_SCHEDULED_TASK: Load scheduler "stm2" with entities [LocalPlayer, LocalPlayer], work=[821*, ExtData[1]->WorkLocal[26]]
     0x1203 [0x1B] RETURN
     0x1204 [0x45] LOAD_SCHEDULED_TASK: Load scheduler "stm3" with entities [LocalPlayer, LocalPlayer], work=[821*, ExtData[1]->WorkLocal[26]]
     0x1215 [0x1B] RETURN
     0x1216 [0x45] LOAD_SCHEDULED_TASK: Load scheduler "smf1" with entities [LocalPlayer, LocalPlayer], work=[821*, ExtData[1]->WorkLocal[26]]
     0x1227 [0x1B] RETURN
     0x1228 [0x45] LOAD_SCHEDULED_TASK: Load scheduler "smf2" with entities [LocalPlayer, LocalPlayer], work=[821*, ExtData[1]->WorkLocal[26]]
     0x1239 [0x1B] RETURN
     0x123A [0x45] LOAD_SCHEDULED_TASK: Load scheduler "smf3" with entities [LocalPlayer, LocalPlayer], work=[821*, ExtData[1]->WorkLocal[26]]
     0x124B [0x1B] RETURN
     0x124C [0x45] LOAD_SCHEDULED_TASK: Load scheduler "sgm1" with entities [LocalPlayer, LocalPlayer], work=[821*, ExtData[1]->WorkLocal[26]]
     0x125D [0x1B] RETURN
     0x125E [0x45] LOAD_SCHEDULED_TASK: Load scheduler "sgm2" with entities [LocalPlayer, LocalPlayer], work=[821*, ExtData[1]->WorkLocal[26]]
     0x126F [0x1B] RETURN
     0x1270 [0x45] LOAD_SCHEDULED_TASK: Load scheduler "sgm3" with entities [LocalPlayer, LocalPlayer], work=[821*, ExtData[1]->WorkLocal[26]]
     0x1281 [0x1B] RETURN
     0x1282 [0x55] WAIT_LOAD_SCHEDULER: Wait for scheduler "shm1" with entities [LocalPlayer, LocalPlayer], work=821*
     0x1291 [0x1B] RETURN
     0x1292 [0x55] WAIT_LOAD_SCHEDULER: Wait for scheduler "shm2" with entities [LocalPlayer, LocalPlayer], work=821*
     0x12A1 [0x1B] RETURN
     0x12A2 [0x55] WAIT_LOAD_SCHEDULER: Wait for scheduler "shm3" with entities [LocalPlayer, LocalPlayer], work=821*
     0x12B1 [0x1B] RETURN
     0x12B2 [0x55] WAIT_LOAD_SCHEDULER: Wait for scheduler "shf1" with entities [LocalPlayer, LocalPlayer], work=821*
     0x12C1 [0x1B] RETURN
     0x12C2 [0x55] WAIT_LOAD_SCHEDULER: Wait for scheduler "shf2" with entities [LocalPlayer, LocalPlayer], work=821*
     0x12D1 [0x1B] RETURN
     0x12D2 [0x55] WAIT_LOAD_SCHEDULER: Wait for scheduler "shf3" with entities [LocalPlayer, LocalPlayer], work=821*
     0x12E1 [0x1B] RETURN
     0x12E2 [0x55] WAIT_LOAD_SCHEDULER: Wait for scheduler "sem1" with entities [LocalPlayer, LocalPlayer], work=821*
     0x12F1 [0x1B] RETURN
     0x12F2 [0x55] WAIT_LOAD_SCHEDULER: Wait for scheduler "sem2" with entities [LocalPlayer, LocalPlayer], work=821*
     0x1301 [0x1B] RETURN
     0x1302 [0x55] WAIT_LOAD_SCHEDULER: Wait for scheduler "sem3" with entities [LocalPlayer, LocalPlayer], work=821*
     0x1311 [0x1B] RETURN
     0x1312 [0x55] WAIT_LOAD_SCHEDULER: Wait for scheduler "sef1" with entities [LocalPlayer, LocalPlayer], work=821*
     0x1321 [0x1B] RETURN
     0x1322 [0x55] WAIT_LOAD_SCHEDULER: Wait for scheduler "sef2" with entities [LocalPlayer, LocalPlayer], work=821*
     0x1331 [0x1B] RETURN
     0x1332 [0x55] WAIT_LOAD_SCHEDULER: Wait for scheduler "sef3" with entities [LocalPlayer, LocalPlayer], work=821*
     0x1341 [0x1B] RETURN
     0x1342 [0x55] WAIT_LOAD_SCHEDULER: Wait for scheduler "stm1" with entities [LocalPlayer, LocalPlayer], work=821*
     0x1351 [0x1B] RETURN
     0x1352 [0x55] WAIT_LOAD_SCHEDULER: Wait for scheduler "stm2" with entities [LocalPlayer, LocalPlayer], work=821*
     0x1361 [0x1B] RETURN
     0x1362 [0x55] WAIT_LOAD_SCHEDULER: Wait for scheduler "stm3" with entities [LocalPlayer, LocalPlayer], work=821*
     0x1371 [0x1B] RETURN
     0x1372 [0x55] WAIT_LOAD_SCHEDULER: Wait for scheduler "stm1" with entities [LocalPlayer, LocalPlayer], work=821*
     0x1381 [0x1B] RETURN
     0x1382 [0x55] WAIT_LOAD_SCHEDULER: Wait for scheduler "stm2" with entities [LocalPlayer, LocalPlayer], work=821*
     0x1391 [0x1B] RETURN
     0x1392 [0x55] WAIT_LOAD_SCHEDULER: Wait for scheduler "stm3" with entities [LocalPlayer, LocalPlayer], work=821*
     0x13A1 [0x1B] RETURN
     0x13A2 [0x55] WAIT_LOAD_SCHEDULER: Wait for scheduler "smf1" with entities [LocalPlayer, LocalPlayer], work=821*
     0x13B1 [0x1B] RETURN
     0x13B2 [0x55] WAIT_LOAD_SCHEDULER: Wait for scheduler "smf2" with entities [LocalPlayer, LocalPlayer], work=821*
     0x13C1 [0x1B] RETURN
     0x13C2 [0x55] WAIT_LOAD_SCHEDULER: Wait for scheduler "smf3" with entities [LocalPlayer, LocalPlayer], work=821*
     0x13D1 [0x1B] RETURN
     0x13D2 [0x55] WAIT_LOAD_SCHEDULER: Wait for scheduler "sgm1" with entities [LocalPlayer, LocalPlayer], work=821*
     0x13E1 [0x1B] RETURN
     0x13E2 [0x55] WAIT_LOAD_SCHEDULER: Wait for scheduler "sgm2" with entities [LocalPlayer, LocalPlayer], work=821*
     0x13F1 [0x1B] RETURN
     0x13F2 [0x55] WAIT_LOAD_SCHEDULER: Wait for scheduler "sgm3" with entities [LocalPlayer, LocalPlayer], work=821*
     0x1401 [0x1B] RETURN
```
