# 17744220

## Common Data

| Field            | Value                 |
|------------------|-----------------------|
| Zone             | Port Bastok (ID: 236) |
| Block Size       | 576 bytes             |
| Total Events     | 14                    |
| References Count | 31                    |

## List of Events

| Event ID                   | Entrypoint   |   Size |   Instructions |
|----------------------------|--------------|--------|----------------|
| [65535](#event-65535)      | 0x0000       |      1 |              1 |
| [465](#event-465)          | 0x0001       |      7 |              2 |
| [65535.1](#event-655351)   | 0x0008       |     45 |              4 |
| [65535.2](#event-655352)   | 0x0035       |     45 |              4 |
| [65535.3](#event-655353)   | 0x0062       |     45 |              4 |
| [65535.4](#event-655354)   | 0x008F       |     45 |              4 |
| [65535.5](#event-655355)   | 0x00BC       |     45 |              4 |
| [65535.6](#event-655356)   | 0x00E9       |     45 |              4 |
| [65535.7](#event-655357)   | 0x0116       |     45 |              4 |
| [65535.8](#event-655358)   | 0x0143       |      7 |              3 |
| [65535.9](#event-655359)   | 0x014A       |      7 |              3 |
| [65535.10](#event-6553510) | 0x0151       |     14 |              4 |
| [65535.11](#event-6553511) | 0x015F       |     14 |              4 |
| [65535.12](#event-6553512) | 0x016D       |     14 |              4 |

## DAT References (imed_data)

|   Index | Hex Value   |   Dec Value |
|---------|-------------|-------------|
|       0 | 0x0002      |           2 |
|       1 | 0x0005      |           5 |
|       2 | 0x005F      |          95 |
|       3 | 0x0101      |         257 |
|       4 | 0x016A      |         362 |
|       5 | 0x0000      |           0 |
|       6 | 0x0007      |           7 |
|       7 | 0x0011      |          17 |
|       8 | 0x0009      |           9 |
|       9 | 0x0004      |           4 |
|      10 | 0x000C      |          12 |
|      11 | 0x00B5      |         181 |
|      12 | 0x00B9      |         185 |
|      13 | 0x0047      |          71 |
|      14 | 0x0123      |         291 |
|      15 | 0x0008      |           8 |
|      16 | 0x0006      |           6 |
|      17 | 0x0012      |          18 |
|      18 | 0x0015      |          21 |
|      19 | 0x0014      |          20 |
|      20 | 0x0017      |          23 |
|      21 | 0x001D      |          29 |
|      22 | 0x0001      |           1 |
|      23 | 0x0028      |          40 |
|      24 | 0xFFFDAE40  |  4294815296 |
|      25 | 0x0FA0      |        4000 |
|      26 | 0xFFFFE2C8  |  4294959816 |
|      27 | 0x000D      |          13 |
|      28 | 0xFFFD998C  |  4294809996 |
|      29 | 0x2648      |        9800 |
|      30 | 0x000A      |          10 |

## Events

### Event 65535

#### Metadata

| Field        | Value   |
|--------------|---------|
| Entrypoint   | 0x0000  |
| Data Size    | 1 bytes |
| Instructions | 1       |

```
      00 01 02 03 04 05 06 07  08 09 0A 0B 0C 0D 0E 0F
      -- -- -- -- -- -- -- --  -- -- -- -- -- -- -- --
0000: 00                                                .               
```

#### Opcodes

```
  0: 0x0000 [0x00] END_REQSTACK()
```

### Event 465

#### Metadata

| Field        | Value   |
|--------------|---------|
| Entrypoint   | 0x0001  |
| Data Size    | 7 bytes |
| Instructions | 2       |

```
      00 01 02 03 04 05 06 07  08 09 0A 0B 0C 0D 0E 0F
      -- -- -- -- -- -- -- --  -- -- -- -- -- -- -- --
0000:    92 01 F8 FF FF 7F 00                            .......        
```

#### Opcodes

```
  0: 0x0001 [0x92] EventEntity->Render.Flags3 ^= 0x01
  1: 0x0007 [0x00] END_REQSTACK()
```

### Event 65535.1

#### Metadata

| Field        | Value    |
|--------------|----------|
| Entrypoint   | 0x0008   |
| Data Size    | 45 bytes |
| Instructions | 4        |

```
      00 01 02 03 04 05 06 07  08 09 0A 0B 0C 0D 0E 0F
      -- -- -- -- -- -- -- --  -- -- -- -- -- -- -- --
0000:                          B4 00 00 00 42 61 6C 74          ....Balt
0010: 68 69 6C 64 61 00 00 00  00 00 00 00 B5 00 00 00  hilda...........
0020: B6 0B 00 80 01 80 02 80  03 80 02 80 02 80 02 80  ................
0030: 04 80 05 80 00                                    .....           
```

#### Opcodes

```
  0: 0x0008 [0xB4] UI_WINDOW_STRING_HANDLER(case=0x00 - Copy string from opcode, work_offset=ExtData[1]->WorkLocal[0], string="Balthilda")
  1: 0x001C [0xB5] SET_EVENT_ENTITY_NAME: Change EventEntity name to ExtData[1]->WorkLocal[0]
  2: 0x0020 [0xB6] ENTITY_APPEARANCE_HANDLER(case=Full entity look, race=2*, hair=5*, head=95*, body=257*, hands=95*, legs=95*, feet=95*, main=362*, sub=0*)
  3: 0x0034 [0x00] END_REQSTACK()
```

### Event 65535.2

#### Metadata

| Field        | Value    |
|--------------|----------|
| Entrypoint   | 0x0035   |
| Data Size    | 45 bytes |
| Instructions | 4        |

```
      00 01 02 03 04 05 06 07  08 09 0A 0B 0C 0D 0E 0F
      -- -- -- -- -- -- -- --  -- -- -- -- -- -- -- --
0030:                B4 00 00  00 52 61 66 61 65 6C 61       ....Rafaela
0040: 00 00 00 00 00 00 00 00  00 B5 00 00 00 B6 0B 00  ................
0050: 80 06 80 07 80 08 80 09  80 09 80 08 80 05 80 05  ................
0060: 80 00                                             ..              
```

#### Opcodes

```
  0: 0x0035 [0xB4] UI_WINDOW_STRING_HANDLER(case=0x00 - Copy string from opcode, work_offset=ExtData[1]->WorkLocal[0], string="Rafaela")
  1: 0x0049 [0xB5] SET_EVENT_ENTITY_NAME: Change EventEntity name to ExtData[1]->WorkLocal[0]
  2: 0x004D [0xB6] ENTITY_APPEARANCE_HANDLER(case=Full entity look, race=2*, hair=7*, head=17*, body=9*, hands=4*, legs=4*, feet=9*, main=0*, sub=0*)
  3: 0x0061 [0x00] END_REQSTACK()
```

### Event 65535.3

#### Metadata

| Field        | Value    |
|--------------|----------|
| Entrypoint   | 0x0062   |
| Data Size    | 45 bytes |
| Instructions | 4        |

```
      00 01 02 03 04 05 06 07  08 09 0A 0B 0C 0D 0E 0F
      -- -- -- -- -- -- -- --  -- -- -- -- -- -- -- --
0060:       B4 00 00 00 41 7A  69 6D 61 00 00 00 00 00    ....Azima.....
0070: 00 00 00 00 00 00 B5 00  00 00 B6 0B 00 80 0A 80  ................
0080: 0B 80 0C 80 0C 80 0C 80  0D 80 0E 80 05 80 00     ............... 
```

#### Opcodes

```
  0: 0x0062 [0xB4] UI_WINDOW_STRING_HANDLER(case=0x00 - Copy string from opcode, work_offset=ExtData[1]->WorkLocal[0], string="Azima")
  1: 0x0076 [0xB5] SET_EVENT_ENTITY_NAME: Change EventEntity name to ExtData[1]->WorkLocal[0]
  2: 0x007A [0xB6] ENTITY_APPEARANCE_HANDLER(case=Full entity look, race=2*, hair=12*, head=181*, body=185*, hands=185*, legs=185*, feet=71*, main=291*, sub=0*)
  3: 0x008E [0x00] END_REQSTACK()
```

### Event 65535.4

#### Metadata

| Field        | Value    |
|--------------|----------|
| Entrypoint   | 0x008F   |
| Data Size    | 45 bytes |
| Instructions | 4        |

```
      00 01 02 03 04 05 06 07  08 09 0A 0B 0C 0D 0E 0F
      -- -- -- -- -- -- -- --  -- -- -- -- -- -- -- --
0080:                                               B4                 .
0090: 13 00 00 42 6C 61 63 6B  40 4D 75 64 00 00 00 00  ...Black@Mud....
00A0: 00 00 00 B5 00 00 00 B6  0B 0F 80 10 80 11 80 12  ................
00B0: 80 05 80 13 80 13 80 05  80 05 80 00              ............    
```

#### Opcodes

```
  0: 0x008F [0xB4] UI_WINDOW_STRING_HANDLER(case=0x13 - Copy string and replace @ with space, work_offset=ExtData[1]->WorkLocal[0], string="Black@Mud")
  1: 0x00A3 [0xB5] SET_EVENT_ENTITY_NAME: Change EventEntity name to ExtData[1]->WorkLocal[0]
  2: 0x00A7 [0xB6] ENTITY_APPEARANCE_HANDLER(case=Full entity look, race=8*, hair=6*, head=18*, body=21*, hands=0*, legs=20*, feet=20*, main=0*, sub=0*)
  3: 0x00BB [0x00] END_REQSTACK()
```

### Event 65535.5

#### Metadata

| Field        | Value    |
|--------------|----------|
| Entrypoint   | 0x00BC   |
| Data Size    | 45 bytes |
| Instructions | 4        |

```
      00 01 02 03 04 05 06 07  08 09 0A 0B 0C 0D 0E 0F
      -- -- -- -- -- -- -- --  -- -- -- -- -- -- -- --
00B0:                                      B4 00 00 00              ....
00C0: 4D 69 63 68 65 61 00 00  00 00 00 00 00 00 00 00  Michea..........
00D0: B5 00 00 00 B6 0B 09 80  06 80 05 80 14 80 05 80  ................
00E0: 12 80 12 80 05 80 05 80  00                       .........       
```

#### Opcodes

```
  0: 0x00BC [0xB4] UI_WINDOW_STRING_HANDLER(case=0x00 - Copy string from opcode, work_offset=ExtData[1]->WorkLocal[0], string="Michea")
  1: 0x00D0 [0xB5] SET_EVENT_ENTITY_NAME: Change EventEntity name to ExtData[1]->WorkLocal[0]
  2: 0x00D4 [0xB6] ENTITY_APPEARANCE_HANDLER(case=Full entity look, race=4*, hair=7*, head=0*, body=23*, hands=0*, legs=21*, feet=21*, main=0*, sub=0*)
  3: 0x00E8 [0x00] END_REQSTACK()
```

### Event 65535.6

#### Metadata

| Field        | Value    |
|--------------|----------|
| Entrypoint   | 0x00E9   |
| Data Size    | 45 bytes |
| Instructions | 4        |

```
      00 01 02 03 04 05 06 07  08 09 0A 0B 0C 0D 0E 0F
      -- -- -- -- -- -- -- --  -- -- -- -- -- -- -- --
00E0:                             B4 13 00 00 52 6F 68           ....Roh
00F0: 40 4C 61 74 74 65 68 00  00 00 00 00 00 B5 00 00  @Latteh.........
0100: 00 B6 0B 15 80 05 80 05  80 06 80 05 80 05 80 05  ................
0110: 80 05 80 05 80 00                                 ......          
```

#### Opcodes

```
  0: 0x00E9 [0xB4] UI_WINDOW_STRING_HANDLER(case=0x13 - Copy string and replace @ with space, work_offset=ExtData[1]->WorkLocal[0], string="Roh@Latteh")
  1: 0x00FD [0xB5] SET_EVENT_ENTITY_NAME: Change EventEntity name to ExtData[1]->WorkLocal[0]
  2: 0x0101 [0xB6] ENTITY_APPEARANCE_HANDLER(case=Full entity look, race=29*, hair=0*, head=0*, body=7*, hands=0*, legs=0*, feet=0*, main=0*, sub=0*)
  3: 0x0115 [0x00] END_REQSTACK()
```

### Event 65535.7

#### Metadata

| Field        | Value    |
|--------------|----------|
| Entrypoint   | 0x0116   |
| Data Size    | 45 bytes |
| Instructions | 4        |

```
      00 01 02 03 04 05 06 07  08 09 0A 0B 0C 0D 0E 0F
      -- -- -- -- -- -- -- --  -- -- -- -- -- -- -- --
0110:                   B4 00  00 00 00 00 00 00 00 00        ..........
0120: 00 00 00 00 00 00 00 00  00 00 B5 00 00 00 B6 0B  ................
0130: 16 80 05 80 05 80 05 80  05 80 05 80 05 80 05 80  ................
0140: 05 80 00                                          ...             
```

#### Opcodes

```
  0: 0x0116 [0xB4] UI_WINDOW_STRING_HANDLER(case=0x00 - Copy string from opcode, work_offset=ExtData[1]->WorkLocal[0], string="")
  1: 0x012A [0xB5] SET_EVENT_ENTITY_NAME: Change EventEntity name to ExtData[1]->WorkLocal[0]
  2: 0x012E [0xB6] ENTITY_APPEARANCE_HANDLER(case=Full entity look, race=1*, hair=0*, head=0*, body=0*, hands=0*, legs=0*, feet=0*, main=0*, sub=0*)
  3: 0x0142 [0x00] END_REQSTACK()
```

### Event 65535.8

#### Metadata

| Field        | Value   |
|--------------|---------|
| Entrypoint   | 0x0143  |
| Data Size    | 7 bytes |
| Instructions | 3       |

```
      00 01 02 03 04 05 06 07  08 09 0A 0B 0C 0D 0E 0F
      -- -- -- -- -- -- -- --  -- -- -- -- -- -- -- --
0140:          AB 03 AC 01 16  80 00                       .......      
```

#### Opcodes

```
  0: 0x0143 [0xAB] EventEntity->Render.Flags0 ^= 0x20000 // Toggle bit 17
  1: 0x0145 [0xAC] EventEntity->StatusEvent = 1*
  2: 0x0149 [0x00] END_REQSTACK()
```

### Event 65535.9

#### Metadata

| Field        | Value   |
|--------------|---------|
| Entrypoint   | 0x014A  |
| Data Size    | 7 bytes |
| Instructions | 3       |

```
      00 01 02 03 04 05 06 07  08 09 0A 0B 0C 0D 0E 0F
      -- -- -- -- -- -- -- --  -- -- -- -- -- -- -- --
0140:                                AC 01 05 80 AB 04            ......
0150: 00                                                .               
```

#### Opcodes

```
  0: 0x014A [0xAC] EventEntity->StatusEvent = 0*
  1: 0x014E [0xAB] EventEntity->Render.Flags0 |= 0x40000 // Set bit 18
  2: 0x0150 [0x00] END_REQSTACK()
```

### Event 65535.10

#### Metadata

| Field        | Value    |
|--------------|----------|
| Entrypoint   | 0x0151   |
| Data Size    | 14 bytes |
| Instructions | 4        |

```
      00 01 02 03 04 05 06 07  08 09 0A 0B 0C 0D 0E 0F
      -- -- -- -- -- -- -- --  -- -- -- -- -- -- -- --
0150:    32 17 80 1F 00 18 80  19 80 1A 80 1F 01 00      2............. 
```

#### Opcodes

```
  0: 0x0151 [0x32] ExtData[1]->MainSpeed = 40* * 0.1
  1: 0x0154 [0x1F] MOVE_ENTITY: EventEntity moves to X=-152.000*, Z=4.000*, Y=-7.480*
  2: 0x015C [0x1F] MOVE_ENTITY: Update entity position (mode=1)
  3: 0x015E [0x00] END_REQSTACK()
```

### Event 65535.11

#### Metadata

| Field        | Value    |
|--------------|----------|
| Entrypoint   | 0x015F   |
| Data Size    | 14 bytes |
| Instructions | 4        |

```
      00 01 02 03 04 05 06 07  08 09 0A 0B 0C 0D 0E 0F
      -- -- -- -- -- -- -- --  -- -- -- -- -- -- -- --
0150:                                               32                 2
0160: 1B 80 1F 00 1C 80 1D 80  1A 80 1F 01 00           .............   
```

#### Opcodes

```
  0: 0x015F [0x32] ExtData[1]->MainSpeed = 13* * 0.1
  1: 0x0162 [0x1F] MOVE_ENTITY: EventEntity moves to X=-157.300*, Z=9.800*, Y=-7.480*
  2: 0x016A [0x1F] MOVE_ENTITY: Update entity position (mode=1)
  3: 0x016C [0x00] END_REQSTACK()
```

### Event 65535.12

#### Metadata

| Field        | Value    |
|--------------|----------|
| Entrypoint   | 0x016D   |
| Data Size    | 14 bytes |
| Instructions | 4        |

```
      00 01 02 03 04 05 06 07  08 09 0A 0B 0C 0D 0E 0F
      -- -- -- -- -- -- -- --  -- -- -- -- -- -- -- --
0160:                                         32 1E 80               2..
0170: 1F 00 1C 80 1D 80 1A 80  1F 01 00                 ...........     
```

#### Opcodes

```
  0: 0x016D [0x32] ExtData[1]->MainSpeed = 10* * 0.1
  1: 0x0170 [0x1F] MOVE_ENTITY: EventEntity moves to X=-157.300*, Z=9.800*, Y=-7.480*
  2: 0x0178 [0x1F] MOVE_ENTITY: Update entity position (mode=1)
  3: 0x017A [0x00] END_REQSTACK()
```
