# 17743896 - Bruno

## Common Data

| Field            | Value                 |
|------------------|-----------------------|
| Zone             | Port Bastok (ID: 236) |
| Block Size       | 200 bytes             |
| Total Events     | 2                     |
| References Count | 9                     |

## List of Events

| Event ID              | Entrypoint   |   Size |   Instructions |
|-----------------------|--------------|--------|----------------|
| [65535](#event-65535) | 0x0000       |      1 |              1 |
| [364](#event-364)     | 0x0001       |    138 |             31 |

## DAT References (imed_data)

|   Index | Hex Value   |   Dec Value |
|---------|-------------|-------------|
|       0 | 0x001E      |          30 |
|       1 | 0x0090      |         144 |
|       2 | 0x003C      |          60 |
|       3 | 0x0000      |           0 |
|       4 | 0x00AD      |         173 |
|       5 | 0x0001      |           1 |
|       6 | 0x037E      |         894 |
|       7 | 0x1C41      |        7233 |
|       8 | 0x1C40      |        7232 |

## String References

- **7232**: The airship will [arrive/depart] in [less than an hour/about 1 hour/about 2 hours/about 3 hours/about 4 hours/about 5 hours/about 6 hours/about 7 hours] ($1 [minute/minutes] in Earth time).
- **7233**: The airship will [arrive/depart] soon.

## Events

### Event 65535

#### Metadata

| Field        | Value   |
|--------------|---------|
| Entrypoint   | 0x0000  |
| Data Size    | 1 bytes |
| Instructions | 1       |

```
      00 01 02 03 04 05 06 07  08 09 0A 0B 0C 0D 0E 0F
      -- -- -- -- -- -- -- --  -- -- -- -- -- -- -- --
0000: 00                                                .               
```

#### Opcodes

```
  0: 0x0000 [0x00] END_REQSTACK()
```

### Event 364

#### Metadata

| Field        | Value     |
|--------------|-----------|
| Entrypoint   | 0x0001    |
| Data Size    | 138 bytes |
| Instructions | 31        |

```
      00 01 02 03 04 05 06 07  08 09 0A 0B 0C 0D 0E 0F
      -- -- -- -- -- -- -- --  -- -- -- -- -- -- -- --
0000:    1E F0 FF FF 7F 02 02  10 00 80 03 2F 00 03 03   .........../...
0010: 10 00 80 08 03 10 02 10  03 05 10 03 10 15 05 10  ................
0020: 01 80 15 03 10 02 80 03  04 10 03 80 01 76 00 02  .............v..
0030: 02 10 04 80 03 58 00 03  03 10 04 80 08 03 10 02  .....X..........
0040: 10 03 05 10 03 10 15 05  10 01 80 15 03 10 02 80  ................
0050: 03 04 10 05 80 01 76 00  03 03 10 06 80 08 03 10  ......v.........
0060: 02 10 03 05 10 03 10 15  05 10 01 80 15 03 10 02  ................
0070: 80 03 04 10 03 80 02 03  10 03 80 00 85 00 1D 07  ................
0080: 80 23 01 89 00 1D 08 80  23 21 00                 .#......#!.     
```

#### Opcodes

```
  0: 0x0001 [0x1E] EventEntity looks at LocalPlayer and starts talking
  1: 0x0006 [0x02] IF !(Work_Zone[2] >= 30*) GOTO 0x002F
  2: 0x000E [0x03] Work_Zone[3] = 30*
  3: 0x0013 [0x08] Work_Zone[3] -= Work_Zone[2]
  4: 0x0018 [0x03] Work_Zone[5] = Work_Zone[3]
  5: 0x001D [0x15] Work_Zone[5] /= 144*
  6: 0x0022 [0x15] Work_Zone[3] /= 60*
  7: 0x0027 [0x03] Work_Zone[4] = 0*
  8: 0x002C [0x01] GOTO 0x0076
  9: 0x002F [0x02] IF !(Work_Zone[2] >= 173*) GOTO 0x0058
 10: 0x0037 [0x03] Work_Zone[3] = 173*
 11: 0x003C [0x08] Work_Zone[3] -= Work_Zone[2]
 12: 0x0041 [0x03] Work_Zone[5] = Work_Zone[3]
 13: 0x0046 [0x15] Work_Zone[5] /= 144*
 14: 0x004B [0x15] Work_Zone[3] /= 60*
 15: 0x0050 [0x03] Work_Zone[4] = 1*
 16: 0x0055 [0x01] GOTO 0x0076
 17: 0x0058 [0x03] Work_Zone[3] = 894*
 18: 0x005D [0x08] Work_Zone[3] -= Work_Zone[2]
 19: 0x0062 [0x03] Work_Zone[5] = Work_Zone[3]
 20: 0x0067 [0x15] Work_Zone[5] /= 144*
 21: 0x006C [0x15] Work_Zone[3] /= 60*
 22: 0x0071 [0x03] Work_Zone[4] = 0*

SUBROUTINE_0076:
 23: 0x0076 [0x02] IF !(Work_Zone[3] == 0*) GOTO 0x0085
 24: 0x007E [0x1D] PRINT_EVENT_MESSAGE(message_id=7233*)
    → "The airship will [arrive/depart] soon."
 25: 0x0081 [0x23] WAIT_FOR_DIALOG_INTERACTION
 26: 0x0082 [0x01] GOTO 0x0089
 27: 0x0085 [0x1D] PRINT_EVENT_MESSAGE(message_id=7232*)
    → "The airship will [arrive/depart] in [less than an hour/about 1 hour/about 2 hours/about 3 hours/about 4 hours/about 5 hours/about 6 hours/about 7 hours] ($1 [minute/minutes] in Earth time)."
 28: 0x0088 [0x23] WAIT_FOR_DIALOG_INTERACTION

SUBROUTINE_0089:
 29: 0x0089 [0x21] END_EVENT
 30: 0x008A [0x00] END_REQSTACK()
```
