# 17743904 - Rafaela

## Common Data

| Field            | Value                 |
|------------------|-----------------------|
| Zone             | Port Bastok (ID: 236) |
| Block Size       | 136 bytes             |
| Total Events     | 6                     |
| References Count | 6                     |

## List of Events

| Event ID              | Entrypoint   |   Size |   Instructions |
|-----------------------|--------------|--------|----------------|
| [65535](#event-65535) | 0x0000       |      1 |              1 |
| [21](#event-21)       | 0x0001       |      9 |              3 |
| [104](#event-104)     | 0x000A       |      9 |              3 |
| [22](#event-22)       | 0x0013       |     33 |              9 |
| [130](#event-130)     | 0x0034       |      9 |              3 |
| [131](#event-131)     | 0x003D       |      9 |              3 |

## DAT References (imed_data)

|   Index | Hex Value   |   Dec Value |
|---------|-------------|-------------|
|       0 | 0x001E      |          30 |
|       1 | 0x0005      |           5 |
|       2 | 0x1D22      |        7458 |
|       3 | 0x000A      |          10 |
|       4 | 0x1D23      |        7459 |
|       5 | 0x0014      |          20 |

## String References

- **7458**: Sometimes, as we look at the sea together, Evi gets this real sad look on his face...
- **7459**: And I think, maybe he was never meant to be one of us, and that he should not stay here in Bastok.

## Events

### Event 65535

#### Metadata

| Field        | Value   |
|--------------|---------|
| Entrypoint   | 0x0000  |
| Data Size    | 1 bytes |
| Instructions | 1       |

```
      00 01 02 03 04 05 06 07  08 09 0A 0B 0C 0D 0E 0F
      -- -- -- -- -- -- -- --  -- -- -- -- -- -- -- --
0000: 00                                                .               
```

#### Opcodes

```
  0: 0x0000 [0x00] END_REQSTACK()
```

### Event 21

#### Metadata

| Field        | Value   |
|--------------|---------|
| Entrypoint   | 0x0001  |
| Data Size    | 9 bytes |
| Instructions | 3       |

```
      00 01 02 03 04 05 06 07  08 09 0A 0B 0C 0D 0E 0F
      -- -- -- -- -- -- -- --  -- -- -- -- -- -- -- --
0000:    1C 00 80 1E 1F C0 0E  01 00                     .........      
```

#### Opcodes

```
  0: 0x0001 [0x1C] WAIT(30* ticks)
  1: 0x0004 [0x1E] EventEntity looks at Evi (ID: 17743903/0x010EC01F) and starts talking
  2: 0x0009 [0x00] END_REQSTACK()
```

### Event 104

#### Metadata

| Field        | Value   |
|--------------|---------|
| Entrypoint   | 0x000A  |
| Data Size    | 9 bytes |
| Instructions | 3       |

```
      00 01 02 03 04 05 06 07  08 09 0A 0B 0C 0D 0E 0F
      -- -- -- -- -- -- -- --  -- -- -- -- -- -- -- --
0000:                                1C 00 80 1E 1F C0            ......
0010: 0E 01 00                                          ...             
```

#### Opcodes

```
  0: 0x000A [0x1C] WAIT(30* ticks)
  1: 0x000D [0x1E] EventEntity looks at Evi (ID: 17743903/0x010EC01F) and starts talking
  2: 0x0012 [0x00] END_REQSTACK()
```

### Event 22

#### Metadata

| Field        | Value    |
|--------------|----------|
| Entrypoint   | 0x0013   |
| Data Size    | 33 bytes |
| Instructions | 9        |

```
      00 01 02 03 04 05 06 07  08 09 0A 0B 0C 0D 0E 0F
      -- -- -- -- -- -- -- --  -- -- -- -- -- -- -- --
0010:          1E F0 FF FF 7F  1C 01 80 1D 02 80 23 66     ...........#f
0020: 03 80 F8 FF FF 7F F8 FF  FF 7F 74 6C 6B 30 1D 04  ..........tlk0..
0030: 80 23 21 00                                       .#!.            
```

#### Opcodes

```
  0: 0x0013 [0x1E] EventEntity looks at LocalPlayer and starts talking
  1: 0x0018 [0x1C] WAIT(5* ticks)
  2: 0x001B [0x1D] PRINT_EVENT_MESSAGE(message_id=7458*)
    → "Sometimes, as we look at the sea together, Evi gets this real sad look on his face..."
  3: 0x001E [0x23] WAIT_FOR_DIALOG_INTERACTION
  4: 0x001F [0x66] LOAD_EXT_SCHEDULER_MAIN: Load scheduler "tlk0" with entities [EventEntity, EventEntity], work=10*
  5: 0x002E [0x1D] PRINT_EVENT_MESSAGE(message_id=7459*)
    → "And I think, maybe he was never meant to be one of us, and that he should not stay here in Bastok."
  6: 0x0031 [0x23] WAIT_FOR_DIALOG_INTERACTION
  7: 0x0032 [0x21] END_EVENT
  8: 0x0033 [0x00] END_REQSTACK()
```

### Event 130

#### Metadata

| Field        | Value   |
|--------------|---------|
| Entrypoint   | 0x0034  |
| Data Size    | 9 bytes |
| Instructions | 3       |

```
      00 01 02 03 04 05 06 07  08 09 0A 0B 0C 0D 0E 0F
      -- -- -- -- -- -- -- --  -- -- -- -- -- -- -- --
0030:             1C 05 80 1E  1F C0 0E 01 00               .........   
```

#### Opcodes

```
  0: 0x0034 [0x1C] WAIT(20* ticks)
  1: 0x0037 [0x1E] EventEntity looks at Evi (ID: 17743903/0x010EC01F) and starts talking
  2: 0x003C [0x00] END_REQSTACK()
```

### Event 131

#### Metadata

| Field        | Value   |
|--------------|---------|
| Entrypoint   | 0x003D  |
| Data Size    | 9 bytes |
| Instructions | 3       |

```
      00 01 02 03 04 05 06 07  08 09 0A 0B 0C 0D 0E 0F
      -- -- -- -- -- -- -- --  -- -- -- -- -- -- -- --
0030:                                         1C 05 80               ...
0040: 1E 1F C0 0E 01 00                                 ......          
```

#### Opcodes

```
  0: 0x003D [0x1C] WAIT(20* ticks)
  1: 0x0040 [0x1E] EventEntity looks at Evi (ID: 17743903/0x010EC01F) and starts talking
  2: 0x0045 [0x00] END_REQSTACK()
```
