# 17743910 - Kaede

## Common Data

| Field            | Value                 |
|------------------|-----------------------|
| Zone             | Port Bastok (ID: 236) |
| Block Size       | 292 bytes             |
| Total Events     | 9                     |
| References Count | 21                    |

## List of Events

| Event ID                 | Entrypoint   |   Size |   Instructions |
|--------------------------|--------------|--------|----------------|
| [65535](#event-65535)    | 0x0000       |      1 |              1 |
| [26](#event-26)          | 0x0001       |     30 |              8 |
| [240](#event-240)        | 0x001F       |      1 |              1 |
| [242](#event-242)        | 0x0020       |      1 |              1 |
| [246](#event-246)        | 0x0021       |      1 |              1 |
| [248](#event-248)        | 0x0022       |     15 |              7 |
| [65535.1](#event-655351) | 0x0031       |     44 |              9 |
| [65535.2](#event-655352) | 0x005D       |     24 |              6 |
| [352](#event-352)        | 0x0075       |     37 |             11 |

## DAT References (imed_data)

|   Index | Hex Value   |   Dec Value |
|---------|-------------|-------------|
|       0 | 0x1D26      |        7462 |
|       1 | 0x0050      |          80 |
|       2 | 0x1D27      |        7463 |
|       3 | 0x2114      |        8468 |
|       4 | 0x2115      |        8469 |
|       5 | 0x0028      |          40 |
|       6 | 0x98B8      |       39096 |
|       7 | 0x10016     |       65558 |
|       8 | 0xFFFFE58D  |  4294960525 |
|       9 | 0x0864      |        2148 |
|      10 | 0x8E2E      |       36398 |
|      11 | 0x100EE     |       65774 |
|      12 | 0x8A03      |       35331 |
|      13 | 0x103AA     |       66474 |
|      14 | 0xFFFFE56F  |  4294960495 |
|      15 | 0xAE67      |       44647 |
|      16 | 0xFFEB      |       65515 |
|      17 | 0x2706      |        9990 |
|      18 | 0x001E      |          30 |
|      19 | 0x2707      |        9991 |
|      20 | 0x2708      |        9992 |

## String References

- **7462**: Everyone says that they're all proud of sis.
- **7463**: I am, too--she's strong, cool, and smart. I'm not any of those...I can never be like her.
- **8468**: I'm going to take good care of my mom's katana. I, too, will learn to be strong like her.
- **8469**: I remember my sister talking about how the strongest warriors are the ones who draw their blades the least. I think I know what she was talking about now...
- **9990**: <Player>'s badge flashes brightly.
- **9991**: I heard somebody at the warehouse saying that the people from Aht Urhgan are sneaky.
- **9992**: I wonder if that's true...

## Events

### Event 65535

#### Metadata

| Field        | Value   |
|--------------|---------|
| Entrypoint   | 0x0000  |
| Data Size    | 1 bytes |
| Instructions | 1       |

```
      00 01 02 03 04 05 06 07  08 09 0A 0B 0C 0D 0E 0F
      -- -- -- -- -- -- -- --  -- -- -- -- -- -- -- --
0000: 00                                                .               
```

#### Opcodes

```
  0: 0x0000 [0x00] END_REQSTACK()
```

### Event 26

#### Metadata

| Field        | Value    |
|--------------|----------|
| Entrypoint   | 0x0001   |
| Data Size    | 30 bytes |
| Instructions | 8        |

```
      00 01 02 03 04 05 06 07  08 09 0A 0B 0C 0D 0E 0F
      -- -- -- -- -- -- -- --  -- -- -- -- -- -- -- --
0000:    1E F0 FF FF 7F 1D 00  80 23 5B 01 80 F8 FF FF   ........#[.....
0010: 7F F8 FF FF 7F 74 6C 6B  30 1D 02 80 23 21 00     .....tlk0...#!. 
```

#### Opcodes

```
  0: 0x0001 [0x1E] EventEntity looks at LocalPlayer and starts talking
  1: 0x0006 [0x1D] PRINT_EVENT_MESSAGE(message_id=7462*)
    → "Everyone says that they're all proud of sis."
  2: 0x0009 [0x23] WAIT_FOR_DIALOG_INTERACTION
  3: 0x000A [0x5B] LOAD_EXT_SCHEDULER: Load scheduler "tlk0" with entities [EventEntity, EventEntity], work=80*
  4: 0x0019 [0x1D] PRINT_EVENT_MESSAGE(message_id=7463*)
    → "I am, too--she's strong, cool, and smart. I'm not any of those...I can never be like her."
  5: 0x001C [0x23] WAIT_FOR_DIALOG_INTERACTION
  6: 0x001D [0x21] END_EVENT
  7: 0x001E [0x00] END_REQSTACK()
```

### Event 240

#### Metadata

| Field        | Value   |
|--------------|---------|
| Entrypoint   | 0x001F  |
| Data Size    | 1 bytes |
| Instructions | 1       |

```
      00 01 02 03 04 05 06 07  08 09 0A 0B 0C 0D 0E 0F
      -- -- -- -- -- -- -- --  -- -- -- -- -- -- -- --
0010:                                               00                 .
```

#### Opcodes

```
  0: 0x001F [0x00] END_REQSTACK()
```

### Event 242

#### Metadata

| Field        | Value   |
|--------------|---------|
| Entrypoint   | 0x0020  |
| Data Size    | 1 bytes |
| Instructions | 1       |

```
      00 01 02 03 04 05 06 07  08 09 0A 0B 0C 0D 0E 0F
      -- -- -- -- -- -- -- --  -- -- -- -- -- -- -- --
0020: 00                                                .               
```

#### Opcodes

```
  0: 0x0020 [0x00] END_REQSTACK()
```

### Event 246

#### Metadata

| Field        | Value   |
|--------------|---------|
| Entrypoint   | 0x0021  |
| Data Size    | 1 bytes |
| Instructions | 1       |

```
      00 01 02 03 04 05 06 07  08 09 0A 0B 0C 0D 0E 0F
      -- -- -- -- -- -- -- --  -- -- -- -- -- -- -- --
0020:    00                                              .              
```

#### Opcodes

```
  0: 0x0021 [0x00] END_REQSTACK()
```

### Event 248

#### Metadata

| Field        | Value    |
|--------------|----------|
| Entrypoint   | 0x0022   |
| Data Size    | 15 bytes |
| Instructions | 7        |

```
      00 01 02 03 04 05 06 07  08 09 0A 0B 0C 0D 0E 0F
      -- -- -- -- -- -- -- --  -- -- -- -- -- -- -- --
0020:       1E F0 FF FF 7F 1D  03 80 23 1D 04 80 23 21    ........#...#!
0030: 00                                                .               
```

#### Opcodes

```
  0: 0x0022 [0x1E] EventEntity looks at LocalPlayer and starts talking
  1: 0x0027 [0x1D] PRINT_EVENT_MESSAGE(message_id=8468*)
    → "I'm going to take good care of my mom's katana. I, too, will learn to be strong like her."
  2: 0x002A [0x23] WAIT_FOR_DIALOG_INTERACTION
  3: 0x002B [0x1D] PRINT_EVENT_MESSAGE(message_id=8469*)
    → "I remember my sister talking about how the strongest warriors are the ones who draw their blades the least. I think I know what she was talking about now..."
  4: 0x002E [0x23] WAIT_FOR_DIALOG_INTERACTION
  5: 0x002F [0x21] END_EVENT
  6: 0x0030 [0x00] END_REQSTACK()
```

### Event 65535.1

#### Metadata

| Field        | Value    |
|--------------|----------|
| Entrypoint   | 0x0031   |
| Data Size    | 44 bytes |
| Instructions | 9        |

```
      00 01 02 03 04 05 06 07  08 09 0A 0B 0C 0D 0E 0F
      -- -- -- -- -- -- -- --  -- -- -- -- -- -- -- --
0030:    79 00 F8 FF FF 7F 25  C0 0E 01 32 05 80 37 06   y.....%...2..7.
0040: 80 07 80 08 80 09 80 1F  00 0A 80 0B 80 08 80 1F  ................
0050: 01 1F 00 0C 80 0D 80 0E  80 1F 01 6F 00           ...........o.   
```

#### Opcodes

```
  0: 0x0031 [0x79] EventEntity looks at Ensetsu (ID: 17743909/0x010EC025) (Basic look)
  1: 0x003B [0x32] ExtData[1]->MainSpeed = 40* * 0.1
  2: 0x003E [0x37] UPDATE_EVENT_POSITION_AND_DIR: x=39.096*, z=65.558*, y=-6.771*, direction=188.8°*
  3: 0x0047 [0x1F] MOVE_ENTITY: EventEntity moves to X=36.398*, Z=65.774*, Y=-6.771*
  4: 0x004F [0x1F] MOVE_ENTITY: Update entity position (mode=1)
  5: 0x0051 [0x1F] MOVE_ENTITY: EventEntity moves to X=35.331*, Z=66.474*, Y=-6.801*
  6: 0x0059 [0x1F] MOVE_ENTITY: Update entity position (mode=1)
  7: 0x005B [0x6F] WAIT_FRAME_DELAY: Yield until WaitTime reaches zero
  8: 0x005C [0x00] END_REQSTACK()
```

### Event 65535.2

#### Metadata

| Field        | Value    |
|--------------|----------|
| Entrypoint   | 0x005D   |
| Data Size    | 24 bytes |
| Instructions | 6        |

```
      00 01 02 03 04 05 06 07  08 09 0A 0B 0C 0D 0E 0F
      -- -- -- -- -- -- -- --  -- -- -- -- -- -- -- --
0050:                                         32 05 80               2..
0060: 1F 00 0A 80 0B 80 08 80  1F 01 1F 00 0F 80 10 80  ................
0070: 08 80 1F 01 00                                    .....           
```

#### Opcodes

```
  0: 0x005D [0x32] ExtData[1]->MainSpeed = 40* * 0.1
  1: 0x0060 [0x1F] MOVE_ENTITY: EventEntity moves to X=36.398*, Z=65.774*, Y=-6.771*
  2: 0x0068 [0x1F] MOVE_ENTITY: Update entity position (mode=1)
  3: 0x006A [0x1F] MOVE_ENTITY: EventEntity moves to X=44.647*, Z=65.515*, Y=-6.771*
  4: 0x0072 [0x1F] MOVE_ENTITY: Update entity position (mode=1)
  5: 0x0074 [0x00] END_REQSTACK()
```

### Event 352

#### Metadata

| Field        | Value    |
|--------------|----------|
| Entrypoint   | 0x0075   |
| Data Size    | 37 bytes |
| Instructions | 11       |

```
      00 01 02 03 04 05 06 07  08 09 0A 0B 0C 0D 0E 0F
      -- -- -- -- -- -- -- --  -- -- -- -- -- -- -- --
0070:                42 48 11  80 1E F0 FF FF 7F 1C 12       BH.........
0080: 80 1D 13 80 23 5B 01 80  F8 FF FF 7F F8 FF FF 7F  ....#[..........
0090: 74 68 6B 30 1D 14 80 23  21 00                    thk0...#!.      
```

#### Opcodes

```
  0: 0x0075 [0x42] SET_CLI_EVENT_CANCEL_DATA()
  1: 0x0076 [0x48] [System] [9990*]:
    → "<Player>'s badge flashes brightly."
  2: 0x0079 [0x1E] EventEntity looks at LocalPlayer and starts talking
  3: 0x007E [0x1C] WAIT(30* ticks)
  4: 0x0081 [0x1D] PRINT_EVENT_MESSAGE(message_id=9991*)
    → "I heard somebody at the warehouse saying that the people from Aht Urhgan are sneaky."
  5: 0x0084 [0x23] WAIT_FOR_DIALOG_INTERACTION
  6: 0x0085 [0x5B] LOAD_EXT_SCHEDULER: Load scheduler "thk0" with entities [EventEntity, EventEntity], work=80*
  7: 0x0094 [0x1D] PRINT_EVENT_MESSAGE(message_id=9992*)
    → "I wonder if that's true..."
  8: 0x0097 [0x23] WAIT_FOR_DIALOG_INTERACTION
  9: 0x0098 [0x21] END_EVENT
 10: 0x0099 [0x00] END_REQSTACK()
```
