# 17744002 - Cid

## Common Data

| Field            | Value                 |
|------------------|-----------------------|
| Zone             | Port Bastok (ID: 236) |
| Block Size       | 224 bytes             |
| Total Events     | 6                     |
| References Count | 13                    |

## List of Events

| Event ID                 | Entrypoint   |   Size |   Instructions |
|--------------------------|--------------|--------|----------------|
| [65535](#event-65535)    | 0x0000       |      1 |              1 |
| [1008](#event-1008)      | 0x0001       |     33 |              6 |
| [1009](#event-1009)      | 0x0022       |     33 |              6 |
| [65535.1](#event-655351) | 0x0043       |     40 |              8 |
| [65535.2](#event-655352) | 0x006B       |     15 |              5 |
| [465](#event-465)        | 0x007A       |      7 |              2 |

## DAT References (imed_data)

|   Index | Hex Value   |   Dec Value |
|---------|-------------|-------------|
|       0 | 0x0000      |           0 |
|       1 | 0x0001      |           1 |
|       2 | 0x1ED88     |      126344 |
|       3 | 0xFFFFF9EE  |  4294965742 |
|       4 | 0x2133      |        8499 |
|       5 | 0x0084      |         132 |
|       6 | 0x0080      |         128 |
|       7 | 0x000B      |          11 |
|       8 | 0x1FABD     |      129725 |
|       9 | 0xFFFFF7B9  |  4294965177 |
|      10 | 0x000D      |          13 |
|      11 | 0x1E7E6     |      124902 |
|      12 | 0xFFFFF436  |  4294964278 |

## Events

### Event 65535

#### Metadata

| Field        | Value   |
|--------------|---------|
| Entrypoint   | 0x0000  |
| Data Size    | 1 bytes |
| Instructions | 1       |

```
      00 01 02 03 04 05 06 07  08 09 0A 0B 0C 0D 0E 0F
      -- -- -- -- -- -- -- --  -- -- -- -- -- -- -- --
0000: 00                                                .               
```

#### Opcodes

```
  0: 0x0000 [0x00] END_REQSTACK()
```

### Event 1008

#### Metadata

| Field        | Value    |
|--------------|----------|
| Entrypoint   | 0x0001   |
| Data Size    | 33 bytes |
| Instructions | 6        |

```
      00 01 02 03 04 05 06 07  08 09 0A 0B 0C 0D 0E 0F
      -- -- -- -- -- -- -- --  -- -- -- -- -- -- -- --
0000:    22 00 2F 00 F8 FF FF  7F 92 01 F8 FF FF 7F 6C   "./...........l
0010: F8 FF FF 7F 00 80 01 80  37 02 80 03 80 04 80 05  ........7.......
0020: 80 00                                             ..              
```

#### Opcodes

```
  0: 0x0001 [0x22] ENTITY_HIDE_FLAG(enabled=0x00)
  1: 0x0003 [0x2F] EventEntity->Render.Flags0 &= ~0x80000 // Bit 19
  2: 0x0009 [0x92] EventEntity->Render.Flags3 ^= 0x01
  3: 0x000F [0x6C] FADE_ENTITY_COLOR(entity_id=EventEntity, end_alpha=0*, fade_time=1*)
  4: 0x0018 [0x37] UPDATE_EVENT_POSITION_AND_DIR: x=126.344*, z=-1.554*, y=8.499*, direction=11.6°*
  5: 0x0021 [0x00] END_REQSTACK()
```

### Event 1009

#### Metadata

| Field        | Value    |
|--------------|----------|
| Entrypoint   | 0x0022   |
| Data Size    | 33 bytes |
| Instructions | 6        |

```
      00 01 02 03 04 05 06 07  08 09 0A 0B 0C 0D 0E 0F
      -- -- -- -- -- -- -- --  -- -- -- -- -- -- -- --
0020:       22 00 2F 00 F8 FF  FF 7F 92 01 F8 FF FF 7F    "./...........
0030: 6C F8 FF FF 7F 00 80 01  80 37 02 80 03 80 04 80  l........7......
0040: 05 80 00                                          ...             
```

#### Opcodes

```
  0: 0x0022 [0x22] ENTITY_HIDE_FLAG(enabled=0x00)
  1: 0x0024 [0x2F] EventEntity->Render.Flags0 &= ~0x80000 // Bit 19
  2: 0x002A [0x92] EventEntity->Render.Flags3 ^= 0x01
  3: 0x0030 [0x6C] FADE_ENTITY_COLOR(entity_id=EventEntity, end_alpha=0*, fade_time=1*)
  4: 0x0039 [0x37] UPDATE_EVENT_POSITION_AND_DIR: x=126.344*, z=-1.554*, y=8.499*, direction=11.6°*
  5: 0x0042 [0x00] END_REQSTACK()
```

### Event 65535.1

#### Metadata

| Field        | Value    |
|--------------|----------|
| Entrypoint   | 0x0043   |
| Data Size    | 40 bytes |
| Instructions | 8        |

```
      00 01 02 03 04 05 06 07  08 09 0A 0B 0C 0D 0E 0F
      -- -- -- -- -- -- -- --  -- -- -- -- -- -- -- --
0040:          92 00 F8 FF FF  7F 6C F8 FF FF 7F 06 80     ......l......
0050: 01 80 32 07 80 1F 00 08  80 09 80 04 80 1F 01 6F  ..2............o
0060: 79 00 F8 FF FF 7F 01 C0  0E 01 00                 y..........     
```

#### Opcodes

```
  0: 0x0043 [0x92] EventEntity->Render.Flags3 = Flags3  // No change (flag=0)
  1: 0x0049 [0x6C] FADE_ENTITY_COLOR(entity_id=EventEntity, end_alpha=128*, fade_time=1*)
  2: 0x0052 [0x32] ExtData[1]->MainSpeed = 11* * 0.1
  3: 0x0055 [0x1F] MOVE_ENTITY: EventEntity moves to X=129.725*, Z=-2.119*, Y=8.499*
  4: 0x005D [0x1F] MOVE_ENTITY: Update entity position (mode=1)
  5: 0x005F [0x6F] WAIT_FRAME_DELAY: Yield until WaitTime reaches zero
  6: 0x0060 [0x79] EventEntity looks at Argus (ID: 17743873/0x010EC001) (Basic look)
  7: 0x006A [0x00] END_REQSTACK()
```

### Event 65535.2

#### Metadata

| Field        | Value    |
|--------------|----------|
| Entrypoint   | 0x006B   |
| Data Size    | 15 bytes |
| Instructions | 5        |

```
      00 01 02 03 04 05 06 07  08 09 0A 0B 0C 0D 0E 0F
      -- -- -- -- -- -- -- --  -- -- -- -- -- -- -- --
0060:                                   32 0A 80 1F 00             2....
0070: 0B 80 0C 80 04 80 1F 01  6F 00                    ........o.      
```

#### Opcodes

```
  0: 0x006B [0x32] ExtData[1]->MainSpeed = 13* * 0.1
  1: 0x006E [0x1F] MOVE_ENTITY: EventEntity moves to X=124.902*, Z=-3.018*, Y=8.499*
  2: 0x0076 [0x1F] MOVE_ENTITY: Update entity position (mode=1)
  3: 0x0078 [0x6F] WAIT_FRAME_DELAY: Yield until WaitTime reaches zero
  4: 0x0079 [0x00] END_REQSTACK()
```

### Event 465

#### Metadata

| Field        | Value   |
|--------------|---------|
| Entrypoint   | 0x007A  |
| Data Size    | 7 bytes |
| Instructions | 2       |

```
      00 01 02 03 04 05 06 07  08 09 0A 0B 0C 0D 0E 0F
      -- -- -- -- -- -- -- --  -- -- -- -- -- -- -- --
0070:                                92 01 F8 FF FF 7F            ......
0080: 00                                                .               
```

#### Opcodes

```
  0: 0x007A [0x92] EventEntity->Render.Flags3 ^= 0x01
  1: 0x0080 [0x00] END_REQSTACK()
```
