# 17743920 - Ronan

## Common Data

| Field            | Value                 |
|------------------|-----------------------|
| Zone             | Port Bastok (ID: 236) |
| Block Size       | 228 bytes             |
| Total Events     | 7                     |
| References Count | 12                    |

## List of Events

| Event ID              | Entrypoint   |   Size |   Instructions |
|-----------------------|--------------|--------|----------------|
| [65535](#event-65535) | 0x0000       |      1 |              1 |
| [37](#event-37)       | 0x0001       |     11 |              5 |
| [82](#event-82)       | 0x000C       |     34 |             10 |
| [84](#event-84)       | 0x002E       |     38 |             11 |
| [85](#event-85)       | 0x0054       |     11 |              5 |
| [86](#event-86)       | 0x005F       |     29 |              7 |
| [89](#event-89)       | 0x007C       |     11 |              5 |

## DAT References (imed_data)

|   Index | Hex Value   |   Dec Value |
|---------|-------------|-------------|
|       0 | 0x1D30      |        7472 |
|       1 | 0x1D44      |        7492 |
|       2 | 0x003C      |          60 |
|       3 | 0x1D45      |        7493 |
|       4 | 0x1D46      |        7494 |
|       5 | 0x43F5      |       17397 |
|       6 | 0x1D4B      |        7499 |
|       7 | 0x1D4C      |        7500 |
|       8 | 0x1D4F      |        7503 |
|       9 | 0x00C9      |         201 |
|      10 | 0x0000      |           0 |
|      11 | 0x1D50      |        7504 |

## String References

- **7472**: I don't know what's wrong with my son. He stays home all day and does nothing. I wish there were something I could do.
- **7492**: You! You're the one who gave my son that cursed thing, aren't you!?
- **7493**: Thanks to you, not only does he never go out, he stays in that shell all day!
- **7494**: Do something! Isn't there anything you can do to make him come out of his shell?
- **7499**: What is this? Ah, of course! "Putting $7 in a Quadav shell!" All I have to do is put this nasty little thing in my son's shell, right?
- **7500**: I'll go do it right away! Come back later--I'll give you a reward if it works!
- **7503**: Oh, there you are! That trick of yours worked! Now, if only my son would go out... Anyway, here's something for your trouble.
- **7504**: I'm telling you, it's those Quadav. They must've put some kind of curse on him!

## Events

### Event 65535

#### Metadata

| Field        | Value   |
|--------------|---------|
| Entrypoint   | 0x0000  |
| Data Size    | 1 bytes |
| Instructions | 1       |

```
      00 01 02 03 04 05 06 07  08 09 0A 0B 0C 0D 0E 0F
      -- -- -- -- -- -- -- --  -- -- -- -- -- -- -- --
0000: 00                                                .               
```

#### Opcodes

```
  0: 0x0000 [0x00] END_REQSTACK()
```

### Event 37

#### Metadata

| Field        | Value    |
|--------------|----------|
| Entrypoint   | 0x0001   |
| Data Size    | 11 bytes |
| Instructions | 5        |

```
      00 01 02 03 04 05 06 07  08 09 0A 0B 0C 0D 0E 0F
      -- -- -- -- -- -- -- --  -- -- -- -- -- -- -- --
0000:    1E F0 FF FF 7F 1D 00  80 23 21 00               ........#!.    
```

#### Opcodes

```
  0: 0x0001 [0x1E] EventEntity looks at LocalPlayer and starts talking
  1: 0x0006 [0x1D] PRINT_EVENT_MESSAGE(message_id=7472*)
    → "I don't know what's wrong with my son. He stays home all day and does nothing. I wish there were something I could do."
  2: 0x0009 [0x23] WAIT_FOR_DIALOG_INTERACTION
  3: 0x000A [0x21] END_EVENT
  4: 0x000B [0x00] END_REQSTACK()
```

### Event 82

#### Metadata

| Field        | Value    |
|--------------|----------|
| Entrypoint   | 0x000C   |
| Data Size    | 34 bytes |
| Instructions | 10       |

```
      00 01 02 03 04 05 06 07  08 09 0A 0B 0C 0D 0E 0F
      -- -- -- -- -- -- -- --  -- -- -- -- -- -- -- --
0000:                                      1E F0 FF FF              ....
0010: 7F 1D 01 80 23 5B 02 80  F8 FF FF 7F F8 FF FF 7F  ....#[..........
0020: 74 6C 6B 30 1D 03 80 23  1D 04 80 23 21 00        tlk0...#...#!.  
```

#### Opcodes

```
  0: 0x000C [0x1E] EventEntity looks at LocalPlayer and starts talking
  1: 0x0011 [0x1D] PRINT_EVENT_MESSAGE(message_id=7492*)
    → "You! You're the one who gave my son that cursed thing, aren't you!?"
  2: 0x0014 [0x23] WAIT_FOR_DIALOG_INTERACTION
  3: 0x0015 [0x5B] LOAD_EXT_SCHEDULER: Load scheduler "tlk0" with entities [EventEntity, EventEntity], work=60*
  4: 0x0024 [0x1D] PRINT_EVENT_MESSAGE(message_id=7493*)
    → "Thanks to you, not only does he never go out, he stays in that shell all day!"
  5: 0x0027 [0x23] WAIT_FOR_DIALOG_INTERACTION
  6: 0x0028 [0x1D] PRINT_EVENT_MESSAGE(message_id=7494*)
    → "Do something! Isn't there anything you can do to make him come out of his shell?"
  7: 0x002B [0x23] WAIT_FOR_DIALOG_INTERACTION
  8: 0x002C [0x21] END_EVENT
  9: 0x002D [0x00] END_REQSTACK()
```

### Event 84

#### Metadata

| Field        | Value    |
|--------------|----------|
| Entrypoint   | 0x002E   |
| Data Size    | 38 bytes |
| Instructions | 11       |

```
      00 01 02 03 04 05 06 07  08 09 0A 0B 0C 0D 0E 0F
      -- -- -- -- -- -- -- --  -- -- -- -- -- -- -- --
0020:                                            03 09                ..
0030: 10 05 80 20 01 42 1E F0  FF FF 7F 1D 06 80 23 5B  ... .B........#[
0040: 02 80 F8 FF FF 7F F8 FF  FF 7F 74 6C 6B 30 1D 07  ..........tlk0..
0050: 80 23 21 00                                       .#!.            
```

#### Opcodes

```
  0: 0x002E [0x03] Work_Zone[9] = 17397*
  1: 0x0033 [0x20] SET_CLI_EVENT_UC_FLAG: Lock player control
  2: 0x0035 [0x42] SET_CLI_EVENT_CANCEL_DATA()
  3: 0x0036 [0x1E] EventEntity looks at LocalPlayer and starts talking
  4: 0x003B [0x1D] PRINT_EVENT_MESSAGE(message_id=7499*)
    → "What is this? Ah, of course! "Putting $7 in a Quadav shell!" All I have to do is put this nasty little thing in my son's shell, right?"
  5: 0x003E [0x23] WAIT_FOR_DIALOG_INTERACTION
  6: 0x003F [0x5B] LOAD_EXT_SCHEDULER: Load scheduler "tlk0" with entities [EventEntity, EventEntity], work=60*
  7: 0x004E [0x1D] PRINT_EVENT_MESSAGE(message_id=7500*)
    → "I'll go do it right away! Come back later--I'll give you a reward if it works!"
  8: 0x0051 [0x23] WAIT_FOR_DIALOG_INTERACTION
  9: 0x0052 [0x21] END_EVENT
 10: 0x0053 [0x00] END_REQSTACK()
```

### Event 85

#### Metadata

| Field        | Value    |
|--------------|----------|
| Entrypoint   | 0x0054   |
| Data Size    | 11 bytes |
| Instructions | 5        |

```
      00 01 02 03 04 05 06 07  08 09 0A 0B 0C 0D 0E 0F
      -- -- -- -- -- -- -- --  -- -- -- -- -- -- -- --
0050:             1E F0 FF FF  7F 1D 07 80 23 21 00         ........#!. 
```

#### Opcodes

```
  0: 0x0054 [0x1E] EventEntity looks at LocalPlayer and starts talking
  1: 0x0059 [0x1D] PRINT_EVENT_MESSAGE(message_id=7500*)
    → "I'll go do it right away! Come back later--I'll give you a reward if it works!"
  2: 0x005C [0x23] WAIT_FOR_DIALOG_INTERACTION
  3: 0x005D [0x21] END_EVENT
  4: 0x005E [0x00] END_REQSTACK()
```

### Event 86

#### Metadata

| Field        | Value    |
|--------------|----------|
| Entrypoint   | 0x005F   |
| Data Size    | 29 bytes |
| Instructions | 7        |

```
      00 01 02 03 04 05 06 07  08 09 0A 0B 0C 0D 0E 0F
      -- -- -- -- -- -- -- --  -- -- -- -- -- -- -- --
0050:                                               42                 B
0060: 1E F0 FF FF 7F 1D 08 80  23 45 09 80 F0 FF FF 7F  ........#E......
0070: F0 FF FF 7F 71 73 74 63  0A 80 21 00              ....qstc..!.    
```

#### Opcodes

```
  0: 0x005F [0x42] SET_CLI_EVENT_CANCEL_DATA()
  1: 0x0060 [0x1E] EventEntity looks at LocalPlayer and starts talking
  2: 0x0065 [0x1D] PRINT_EVENT_MESSAGE(message_id=7503*)
    → "Oh, there you are! That trick of yours worked! Now, if only my son would go out... Anyway, here's something for your trouble."
  3: 0x0068 [0x23] WAIT_FOR_DIALOG_INTERACTION
  4: 0x0069 [0x45] LOAD_SCHEDULED_TASK: Load scheduler "qstc" with entities [LocalPlayer, LocalPlayer], work=[201*, 0*]
  5: 0x007A [0x21] END_EVENT
  6: 0x007B [0x00] END_REQSTACK()
```

### Event 89

#### Metadata

| Field        | Value    |
|--------------|----------|
| Entrypoint   | 0x007C   |
| Data Size    | 11 bytes |
| Instructions | 5        |

```
      00 01 02 03 04 05 06 07  08 09 0A 0B 0C 0D 0E 0F
      -- -- -- -- -- -- -- --  -- -- -- -- -- -- -- --
0070:                                      1E F0 FF FF              ....
0080: 7F 1D 0B 80 23 21 00                              ....#!.         
```

#### Opcodes

```
  0: 0x007C [0x1E] EventEntity looks at LocalPlayer and starts talking
  1: 0x0081 [0x1D] PRINT_EVENT_MESSAGE(message_id=7504*)
    → "I'm telling you, it's those Quadav. They must've put some kind of curse on him!"
  2: 0x0084 [0x23] WAIT_FOR_DIALOG_INTERACTION
  3: 0x0085 [0x21] END_EVENT
  4: 0x0086 [0x00] END_REQSTACK()
```
