# 17744117

## Common Data

| Field            | Value                 |
|------------------|-----------------------|
| Zone             | Port Bastok (ID: 236) |
| Block Size       | 136 bytes             |
| Total Events     | 3                     |
| References Count | 9                     |

## List of Events

| Event ID                 | Entrypoint   |   Size |   Instructions |
|--------------------------|--------------|--------|----------------|
| [65535](#event-65535)    | 0x0000       |      1 |              1 |
| [387](#event-387)        | 0x0001       |      7 |              3 |
| [65535.1](#event-655351) | 0x0008       |     61 |             12 |

## DAT References (imed_data)

|   Index | Hex Value   |   Dec Value |
|---------|-------------|-------------|
|       0 | 0x0041      |          65 |
|       1 | 0x0001      |           1 |
|       2 | 0xFFFFF43D  |  4294964285 |
|       3 | 0xCE0F      |       52751 |
|       4 | 0xFFFFFE78  |  4294966904 |
|       5 | 0x01A9      |         425 |
|       6 | 0x0000      |           0 |
|       7 | 0x0078      |         120 |
|       8 | 0x005A      |          90 |

## Events

### Event 65535

#### Metadata

| Field        | Value   |
|--------------|---------|
| Entrypoint   | 0x0000  |
| Data Size    | 1 bytes |
| Instructions | 1       |

```
      00 01 02 03 04 05 06 07  08 09 0A 0B 0C 0D 0E 0F
      -- -- -- -- -- -- -- --  -- -- -- -- -- -- -- --
0000: 00                                                .               
```

#### Opcodes

```
  0: 0x0000 [0x00] END_REQSTACK()
```

### Event 387

#### Metadata

| Field        | Value   |
|--------------|---------|
| Entrypoint   | 0x0001  |
| Data Size    | 7 bytes |
| Instructions | 3       |

```
      00 01 02 03 04 05 06 07  08 09 0A 0B 0C 0D 0E 0F
      -- -- -- -- -- -- -- --  -- -- -- -- -- -- -- --
0000:    B6 0F 00 80 A5 01 00                            .......        
```

#### Opcodes

```
  0: 0x0001 [0xB6] ENTITY_APPEARANCE_HANDLER(case=Model size, value=65*)
  1: 0x0005 [0xA5] EventEntity->Flags3.BallistaTeam |= 0x08  // Set bit 3 of BallistaTeam
  2: 0x0007 [0x00] END_REQSTACK()
```

### Event 65535.1

#### Metadata

| Field        | Value    |
|--------------|----------|
| Entrypoint   | 0x0008   |
| Data Size    | 61 bytes |
| Instructions | 12       |

```
      00 01 02 03 04 05 06 07  08 09 0A 0B 0C 0D 0E 0F
      -- -- -- -- -- -- -- --  -- -- -- -- -- -- -- --
0000:                          03 4E 10 01 80 33 01 37          .N...3.7
0010: 02 80 03 80 04 80 05 80  80 F8 FF FF 7F 02 59 10  ..............Y.
0020: 06 80 00 2B 00 1C 07 80  01 2E 00 1C 08 80 02 47  ...+...........G
0030: 10 06 80 00 44 00 03 4E  10 06 80 37 06 80 06 80  ....D..N...7....
0040: 06 80 06 80 00                                    .....           
```

#### Opcodes

```
  0: 0x0008 [0x03] Work_Zone[78] = 1*
  1: 0x000D [0x33] EventEntity->Render.Flags0 |= 0x200000 // Bit 21 (flag=0x01)
  2: 0x000F [0x37] UPDATE_EVENT_POSITION_AND_DIR: x=-3.011*, z=52.751*, y=-0.392*, direction=37.4°*
  3: 0x0018 [0x80] LOAD_WAIT(entity=EventEntity)
  4: 0x001D [0x02] IF !(Work_Zone[89] == 0*) GOTO 0x002B
  5: 0x0025 [0x1C] WAIT(120* ticks)
  6: 0x0028 [0x01] GOTO 0x002E
  7: 0x002B [0x1C] WAIT(90* ticks)

SUBROUTINE_002E:
  8: 0x002E [0x02] IF !(Work_Zone[71] == 0*) GOTO 0x0044
  9: 0x0036 [0x03] Work_Zone[78] = 0*
 10: 0x003B [0x37] UPDATE_EVENT_POSITION_AND_DIR: x=0.000*, z=0.000*, y=0.000*, direction=0.0°*
 11: 0x0044 [0x00] END_REQSTACK()
```
