# 17744020 - Raifa

## Common Data

| Field            | Value                 |
|------------------|-----------------------|
| Zone             | Port Bastok (ID: 236) |
| Block Size       | 752 bytes             |
| Total Events     | 8                     |
| References Count | 22                    |

## List of Events

| Event ID              | Entrypoint   |   Size |   Instructions |
|-----------------------|--------------|--------|----------------|
| [65535](#event-65535) | 0x0000       |      1 |              1 |
| [278](#event-278)     | 0x0001       |    314 |             59 |
| [279](#event-279)     | 0x013B       |     46 |             11 |
| [280](#event-280)     | 0x0169       |     46 |             11 |
| [281](#event-281)     | 0x0197       |     46 |             11 |
| [282](#event-282)     | 0x01C5       |    107 |             18 |
| [283](#event-283)     | 0x0230       |     46 |             11 |
| [465](#event-465)     | 0x025E       |      7 |              2 |

## DAT References (imed_data)

|   Index | Hex Value   |   Dec Value |
|---------|-------------|-------------|
|       0 | 0x0013      |          19 |
|       1 | 0x2263      |        8803 |
|       2 | 0x2264      |        8804 |
|       3 | 0x0001      |           1 |
|       4 | 0x0000      |           0 |
|       5 | 0x2265      |        8805 |
|       6 | 0x2266      |        8806 |
|       7 | 0x2267      |        8807 |
|       8 | 0x2268      |        8808 |
|       9 | 0x2269      |        8809 |
|      10 | 0x226A      |        8810 |
|      11 | 0x226B      |        8811 |
|      12 | 0x000B      |          11 |
|      13 | 0x001E      |          30 |
|      14 | 0x226C      |        8812 |
|      15 | 0x2260      |        8800 |
|      16 | 0x226D      |        8813 |
|      17 | 0x01D9      |         473 |
|      18 | 0x226E      |        8814 |
|      19 | 0x000A      |          10 |
|      20 | 0x00C9      |         201 |
|      21 | 0x2261      |        8801 |

## String References

- **8800**: I can't believe there are people who throw away the skins of baked popotoes! They're so tasty and so good for you!
- **8801**: Can I have a moment of your time? Oh...you seem a little preoccupied. Maybe when you're not so busy.
- **8803**: Can I have a moment of your time? Are you interested in the protection of Vana'diel's environment?
- **8804**: Listen to what she has to say? [Lend her an ear./Uh, I have a thing to go to...]
- **8805**: Do you know of the Gusgen Mines?
- **8806**: Yes, the abandoned mines in the east of the Konschtat Highlands. A frightening place in the midst of an ecological crisis.
- **8807**: We've heard reports about the scrap materials that have been dumped there. Evidently, they've become the breeding ground for fearsome monsters!
- **8808**: We are asking environmentally conscious adventurers like yourself to help by exterminating these hazardous creatures. Can we count on your cooperation?
- **8809**: Take on the task? [You can count on me!/I have to clean my Mog House...]
- **8810**: I knew you would help! Bring me evidence that you've defeated these creatures, and I'll pay you a reward from the Vana'diel Environmental Resource Management Initiative Network fund.
- **8811**: Just head to the mines, and Degga, one of our V.E.R.M.I.N. field agents, will give you further instructions. Take care, now!
- **8812**: Well, that is a disappointment...I guess I'll just have to ask another concerned citizen.
- **8813**: You can get the details of your assignment from Degga, our V.E.R.M.I.N. field agent in the mines.
- **8814**: Oh! 6 from the creatures! I knew you were committed to our cause! Here is your reward, as promised.

## Events

### Event 65535

#### Metadata

| Field        | Value   |
|--------------|---------|
| Entrypoint   | 0x0000  |
| Data Size    | 1 bytes |
| Instructions | 1       |

```
      00 01 02 03 04 05 06 07  08 09 0A 0B 0C 0D 0E 0F
      -- -- -- -- -- -- -- --  -- -- -- -- -- -- -- --
0000: 00                                                .               
```

#### Opcodes

```
  0: 0x0000 [0x00] END_REQSTACK()
```

### Event 278

#### Metadata

| Field        | Value     |
|--------------|-----------|
| Entrypoint   | 0x0001    |
| Data Size    | 314 bytes |
| Instructions | 59        |

```
      00 01 02 03 04 05 06 07  08 09 0A 0B 0C 0D 0E 0F
      -- -- -- -- -- -- -- --  -- -- -- -- -- -- -- --
0000:    42 1E F0 FF FF 7F 6F  70 66 00 80 F8 FF FF 7F   B.....opf......
0010: F8 FF FF 7F 74 6C 6B 30  1D 01 80 23 24 02 80 03  ....tlk0...#$...
0020: 80 04 80 25 02 00 10 04  80 00 F4 00 1D 05 80 23  ...%...........#
0030: 1D 06 80 23 1D 07 80 23  1D 08 80 23 66 00 80 F8  ...#...#...#f...
0040: FF FF 7F F8 FF FF 7F 74  6C 6B 31 24 09 80 03 80  .......tlk1$....
0050: 04 80 25 02 00 10 04 80  00 AE 00 42 66 00 80 F8  ..%........Bf...
0060: FF FF 7F F8 FF FF 7F 74  6C 6B 30 1D 0A 80 23 03  .......tlk0...#.
0070: 01 10 03 80 66 00 80 F8  FF FF 7F F8 FF FF 7F 74  ....f..........t
0080: 6C 6B 31 1D 0B 80 23 66  0C 80 F8 FF FF 7F F8 FF  lk1...#f........
0090: FF 7F 6B 61 73 30 53 F8  FF FF 7F F8 FF FF 7F 6B  ..kas0S........k
00A0: 61 73 30 5E 69 64 6C 30  1C 0D 80 01 F1 00 02 00  as0^idl0........
00B0: 10 03 80 00 F1 00 42 66  00 80 F8 FF FF 7F F8 FF  ......Bf........
00C0: FF 7F 74 68 6B 31 1D 0E  80 23 66 00 80 F8 FF FF  ..thk1...#f.....
00D0: 7F F8 FF FF 7F 74 68 6B  32 53 F8 FF FF 7F F8 FF  .....thk2S......
00E0: FF 7F 74 68 6B 32 5E 69  64 6C 30 1C 0D 80 01 F1  ..thk2^idl0.....
00F0: 00 01 37 01 02 00 10 03  80 00 37 01 42 66 00 80  ..7.......7.Bf..
0100: F8 FF FF 7F F8 FF FF 7F  74 68 6B 31 1D 0E 80 23  ........thk1...#
0110: 66 00 80 F8 FF FF 7F F8  FF FF 7F 74 68 6B 32 53  f..........thk2S
0120: F8 FF FF 7F F8 FF FF 7F  74 68 6B 32 5E 69 64 6C  ........thk2^idl
0130: 30 1C 0D 80 01 37 01 20  00 21 00                 0....7. .!.     
```

#### Opcodes

```
  0: 0x0001 [0x42] SET_CLI_EVENT_CANCEL_DATA()
  1: 0x0002 [0x1E] EventEntity looks at LocalPlayer and starts talking
  2: 0x0007 [0x6F] WAIT_FRAME_DELAY: Yield until WaitTime reaches zero
  3: 0x0008 [0x70] WAIT_ENTITY_RENDER_FLAG: Wait while EventEntity->Render.Flags3 bit 2 is set (cancel turn if not)
  4: 0x0009 [0x66] LOAD_EXT_SCHEDULER_MAIN: Load scheduler "tlk0" with entities [EventEntity, EventEntity], work=19*
  5: 0x0018 [0x1D] PRINT_EVENT_MESSAGE(message_id=8803*)
    → "Can I have a moment of your time? Are you interested in the protection of Vana'diel's environment?"
  6: 0x001B [0x23] WAIT_FOR_DIALOG_INTERACTION
  7: 0x001C [0x24] CREATE_DIALOG(message_id=8804*, default_option=1*, option_flags=0*)
    → "Listen to what she has to say? [Lend her an ear./Uh, I have a thing to go to...]"
  8: 0x0023 [0x25] WAIT_DIALOG_SELECT()
  9: 0x0024 [0x02] IF !(Work_Zone[0] == 0*) GOTO 0x00F4
 10: 0x002C [0x1D] PRINT_EVENT_MESSAGE(message_id=8805*)
    → "Do you know of the Gusgen Mines?"
 11: 0x002F [0x23] WAIT_FOR_DIALOG_INTERACTION
 12: 0x0030 [0x1D] PRINT_EVENT_MESSAGE(message_id=8806*)
    → "Yes, the abandoned mines in the east of the Konschtat Highlands. A frightening place in the midst of an ecological crisis."
 13: 0x0033 [0x23] WAIT_FOR_DIALOG_INTERACTION
 14: 0x0034 [0x1D] PRINT_EVENT_MESSAGE(message_id=8807*)
    → "We've heard reports about the scrap materials that have been dumped there. Evidently, they've become the breeding ground for fearsome monsters!"
 15: 0x0037 [0x23] WAIT_FOR_DIALOG_INTERACTION
 16: 0x0038 [0x1D] PRINT_EVENT_MESSAGE(message_id=8808*)
    → "We are asking environmentally conscious adventurers like yourself to help by exterminating these hazardous creatures. Can we count on your cooperation?"
 17: 0x003B [0x23] WAIT_FOR_DIALOG_INTERACTION
 18: 0x003C [0x66] LOAD_EXT_SCHEDULER_MAIN: Load scheduler "tlk1" with entities [EventEntity, EventEntity], work=19*
 19: 0x004B [0x24] CREATE_DIALOG(message_id=8809*, default_option=1*, option_flags=0*)
    → "Take on the task? [You can count on me!/I have to clean my Mog House...]"
 20: 0x0052 [0x25] WAIT_DIALOG_SELECT()
 21: 0x0053 [0x02] IF !(Work_Zone[0] == 0*) GOTO 0x00AE
 22: 0x005B [0x42] SET_CLI_EVENT_CANCEL_DATA()
 23: 0x005C [0x66] LOAD_EXT_SCHEDULER_MAIN: Load scheduler "tlk0" with entities [EventEntity, EventEntity], work=19*
 24: 0x006B [0x1D] PRINT_EVENT_MESSAGE(message_id=8810*)
    → "I knew you would help! Bring me evidence that you've defeated these creatures, and I'll pay you a reward from the Vana'diel Environmental Resource Management Initiative Network fund."
 25: 0x006E [0x23] WAIT_FOR_DIALOG_INTERACTION
 26: 0x006F [0x03] Work_Zone[1] = 1*
 27: 0x0074 [0x66] LOAD_EXT_SCHEDULER_MAIN: Load scheduler "tlk1" with entities [EventEntity, EventEntity], work=19*
 28: 0x0083 [0x1D] PRINT_EVENT_MESSAGE(message_id=8811*)
    → "Just head to the mines, and Degga, one of our V.E.R.M.I.N. field agents, will give you further instructions. Take care, now!"
 29: 0x0086 [0x23] WAIT_FOR_DIALOG_INTERACTION
 30: 0x0087 [0x66] LOAD_EXT_SCHEDULER_MAIN: Load scheduler "kas0" with entities [EventEntity, EventEntity], work=11*
 31: 0x0096 [0x53] WAIT_SCHEDULER_TASK: Wait for scheduler "kas0" with entities [EventEntity, EventEntity]
 32: 0x00A3 [0x5E] EventEntity goes idle (kills current action) (animation: "idl0")
 33: 0x00A8 [0x1C] WAIT(30* ticks)
 34: 0x00AB [0x01] GOTO 0x00F1
 35: 0x00AE [0x02] IF !(Work_Zone[0] == 1*) GOTO 0x00F1
 36: 0x00B6 [0x42] SET_CLI_EVENT_CANCEL_DATA()
 37: 0x00B7 [0x66] LOAD_EXT_SCHEDULER_MAIN: Load scheduler "thk1" with entities [EventEntity, EventEntity], work=19*
 38: 0x00C6 [0x1D] PRINT_EVENT_MESSAGE(message_id=8812*)
    → "Well, that is a disappointment...I guess I'll just have to ask another concerned citizen."
 39: 0x00C9 [0x23] WAIT_FOR_DIALOG_INTERACTION
 40: 0x00CA [0x66] LOAD_EXT_SCHEDULER_MAIN: Load scheduler "thk2" with entities [EventEntity, EventEntity], work=19*
 41: 0x00D9 [0x53] WAIT_SCHEDULER_TASK: Wait for scheduler "thk2" with entities [EventEntity, EventEntity]
 42: 0x00E6 [0x5E] EventEntity goes idle (kills current action) (animation: "idl0")
 43: 0x00EB [0x1C] WAIT(30* ticks)
 44: 0x00EE [0x01] GOTO 0x00F1

SUBROUTINE_00F1:
 45: 0x00F1 [0x01] GOTO 0x0137
 46: 0x00F4 [0x02] IF !(Work_Zone[0] == 1*) GOTO 0x0137
 47: 0x00FC [0x42] SET_CLI_EVENT_CANCEL_DATA()
 48: 0x00FD [0x66] LOAD_EXT_SCHEDULER_MAIN: Load scheduler "thk1" with entities [EventEntity, EventEntity], work=19*
 49: 0x010C [0x1D] PRINT_EVENT_MESSAGE(message_id=8812*)
    → "Well, that is a disappointment...I guess I'll just have to ask another concerned citizen."
 50: 0x010F [0x23] WAIT_FOR_DIALOG_INTERACTION
 51: 0x0110 [0x66] LOAD_EXT_SCHEDULER_MAIN: Load scheduler "thk2" with entities [EventEntity, EventEntity], work=19*
 52: 0x011F [0x53] WAIT_SCHEDULER_TASK: Wait for scheduler "thk2" with entities [EventEntity, EventEntity]
 53: 0x012C [0x5E] EventEntity goes idle (kills current action) (animation: "idl0")
 54: 0x0131 [0x1C] WAIT(30* ticks)
 55: 0x0134 [0x01] GOTO 0x0137

SUBROUTINE_0137:
 56: 0x0137 [0x20] SET_CLI_EVENT_UC_FLAG: Unlock player control
 57: 0x0139 [0x21] END_EVENT
 58: 0x013A [0x00] END_REQSTACK()
```

### Event 279

#### Metadata

| Field        | Value    |
|--------------|----------|
| Entrypoint   | 0x013B   |
| Data Size    | 46 bytes |
| Instructions | 11       |

```
      00 01 02 03 04 05 06 07  08 09 0A 0B 0C 0D 0E 0F
      -- -- -- -- -- -- -- --  -- -- -- -- -- -- -- --
0130:                                   42 1E F0 FF FF             B....
0140: 7F 6F 70 66 00 80 F8 FF  FF 7F F8 FF FF 7F 74 6C  .opf..........tl
0150: 6B 30 1D 0F 80 23 66 00  80 F8 FF FF 7F F8 FF FF  k0...#f.........
0160: 7F 74 6C 6B 31 20 00 21  00                       .tlk1 .!.       
```

#### Opcodes

```
  0: 0x013B [0x42] SET_CLI_EVENT_CANCEL_DATA()
  1: 0x013C [0x1E] EventEntity looks at LocalPlayer and starts talking
  2: 0x0141 [0x6F] WAIT_FRAME_DELAY: Yield until WaitTime reaches zero
  3: 0x0142 [0x70] WAIT_ENTITY_RENDER_FLAG: Wait while EventEntity->Render.Flags3 bit 2 is set (cancel turn if not)
  4: 0x0143 [0x66] LOAD_EXT_SCHEDULER_MAIN: Load scheduler "tlk0" with entities [EventEntity, EventEntity], work=19*
  5: 0x0152 [0x1D] PRINT_EVENT_MESSAGE(message_id=8800*)
    → "I can't believe there are people who throw away the skins of baked popotoes! They're so tasty and so good for you!"
  6: 0x0155 [0x23] WAIT_FOR_DIALOG_INTERACTION
  7: 0x0156 [0x66] LOAD_EXT_SCHEDULER_MAIN: Load scheduler "tlk1" with entities [EventEntity, EventEntity], work=19*
  8: 0x0165 [0x20] SET_CLI_EVENT_UC_FLAG: Unlock player control
  9: 0x0167 [0x21] END_EVENT
 10: 0x0168 [0x00] END_REQSTACK()
```

### Event 280

#### Metadata

| Field        | Value    |
|--------------|----------|
| Entrypoint   | 0x0169   |
| Data Size    | 46 bytes |
| Instructions | 11       |

```
      00 01 02 03 04 05 06 07  08 09 0A 0B 0C 0D 0E 0F
      -- -- -- -- -- -- -- --  -- -- -- -- -- -- -- --
0160:                             42 1E F0 FF FF 7F 6F           B.....o
0170: 70 66 00 80 F8 FF FF 7F  F8 FF FF 7F 74 6C 6B 30  pf..........tlk0
0180: 1D 10 80 23 66 00 80 F8  FF FF 7F F8 FF FF 7F 74  ...#f..........t
0190: 6C 6B 31 20 00 21 00                              lk1 .!.         
```

#### Opcodes

```
  0: 0x0169 [0x42] SET_CLI_EVENT_CANCEL_DATA()
  1: 0x016A [0x1E] EventEntity looks at LocalPlayer and starts talking
  2: 0x016F [0x6F] WAIT_FRAME_DELAY: Yield until WaitTime reaches zero
  3: 0x0170 [0x70] WAIT_ENTITY_RENDER_FLAG: Wait while EventEntity->Render.Flags3 bit 2 is set (cancel turn if not)
  4: 0x0171 [0x66] LOAD_EXT_SCHEDULER_MAIN: Load scheduler "tlk0" with entities [EventEntity, EventEntity], work=19*
  5: 0x0180 [0x1D] PRINT_EVENT_MESSAGE(message_id=8813*)
    → "You can get the details of your assignment from Degga, our V.E.R.M.I.N. field agent in the mines."
  6: 0x0183 [0x23] WAIT_FOR_DIALOG_INTERACTION
  7: 0x0184 [0x66] LOAD_EXT_SCHEDULER_MAIN: Load scheduler "tlk1" with entities [EventEntity, EventEntity], work=19*
  8: 0x0193 [0x20] SET_CLI_EVENT_UC_FLAG: Unlock player control
  9: 0x0195 [0x21] END_EVENT
 10: 0x0196 [0x00] END_REQSTACK()
```

### Event 281

#### Metadata

| Field        | Value    |
|--------------|----------|
| Entrypoint   | 0x0197   |
| Data Size    | 46 bytes |
| Instructions | 11       |

```
      00 01 02 03 04 05 06 07  08 09 0A 0B 0C 0D 0E 0F
      -- -- -- -- -- -- -- --  -- -- -- -- -- -- -- --
0190:                      42  1E F0 FF FF 7F 6F 70 66         B.....opf
01A0: 00 80 F8 FF FF 7F F8 FF  FF 7F 74 6C 6B 30 1D 0F  ..........tlk0..
01B0: 80 23 66 00 80 F8 FF FF  7F F8 FF FF 7F 74 6C 6B  .#f..........tlk
01C0: 31 20 00 21 00                                    1 .!.           
```

#### Opcodes

```
  0: 0x0197 [0x42] SET_CLI_EVENT_CANCEL_DATA()
  1: 0x0198 [0x1E] EventEntity looks at LocalPlayer and starts talking
  2: 0x019D [0x6F] WAIT_FRAME_DELAY: Yield until WaitTime reaches zero
  3: 0x019E [0x70] WAIT_ENTITY_RENDER_FLAG: Wait while EventEntity->Render.Flags3 bit 2 is set (cancel turn if not)
  4: 0x019F [0x66] LOAD_EXT_SCHEDULER_MAIN: Load scheduler "tlk0" with entities [EventEntity, EventEntity], work=19*
  5: 0x01AE [0x1D] PRINT_EVENT_MESSAGE(message_id=8800*)
    → "I can't believe there are people who throw away the skins of baked popotoes! They're so tasty and so good for you!"
  6: 0x01B1 [0x23] WAIT_FOR_DIALOG_INTERACTION
  7: 0x01B2 [0x66] LOAD_EXT_SCHEDULER_MAIN: Load scheduler "tlk1" with entities [EventEntity, EventEntity], work=19*
  8: 0x01C1 [0x20] SET_CLI_EVENT_UC_FLAG: Unlock player control
  9: 0x01C3 [0x21] END_EVENT
 10: 0x01C4 [0x00] END_REQSTACK()
```

### Event 282

#### Metadata

| Field        | Value     |
|--------------|-----------|
| Entrypoint   | 0x01C5    |
| Data Size    | 107 bytes |
| Instructions | 18        |

```
      00 01 02 03 04 05 06 07  08 09 0A 0B 0C 0D 0E 0F
      -- -- -- -- -- -- -- --  -- -- -- -- -- -- -- --
01C0:                42 1E F0  FF FF 7F 6F 70 66 00 80       B.....opf..
01D0: F8 FF FF 7F F8 FF FF 7F  74 6C 6B 30 03 02 10 11  ........tlk0....
01E0: 80 1D 12 80 23 66 00 80  F8 FF FF 7F F8 FF FF 7F  ....#f..........
01F0: 74 6C 6B 31 66 13 80 F8  FF FF 7F F8 FF FF 7F 70  tlk1f..........p
0200: 61 73 30 53 F8 FF FF 7F  F8 FF FF 7F 70 61 73 30  as0S........pas0
0210: 5E 69 64 6C 30 1C 0D 80  45 14 80 F0 FF FF 7F F0  ^idl0...E.......
0220: FF FF 7F 71 73 74 63 04  80 1C 0D 80 20 00 21 00  ...qstc..... .!.
```

#### Opcodes

```
  0: 0x01C5 [0x42] SET_CLI_EVENT_CANCEL_DATA()
  1: 0x01C6 [0x1E] EventEntity looks at LocalPlayer and starts talking
  2: 0x01CB [0x6F] WAIT_FRAME_DELAY: Yield until WaitTime reaches zero
  3: 0x01CC [0x70] WAIT_ENTITY_RENDER_FLAG: Wait while EventEntity->Render.Flags3 bit 2 is set (cancel turn if not)
  4: 0x01CD [0x66] LOAD_EXT_SCHEDULER_MAIN: Load scheduler "tlk0" with entities [EventEntity, EventEntity], work=19*
  5: 0x01DC [0x03] Work_Zone[2] = 473*
  6: 0x01E1 [0x1D] PRINT_EVENT_MESSAGE(message_id=8814*)
    → "Oh! 6 from the creatures! I knew you were committed to our cause! Here is your reward, as promised."
  7: 0x01E4 [0x23] WAIT_FOR_DIALOG_INTERACTION
  8: 0x01E5 [0x66] LOAD_EXT_SCHEDULER_MAIN: Load scheduler "tlk1" with entities [EventEntity, EventEntity], work=19*
  9: 0x01F4 [0x66] LOAD_EXT_SCHEDULER_MAIN: Load scheduler "pas0" with entities [EventEntity, EventEntity], work=10*
 10: 0x0203 [0x53] WAIT_SCHEDULER_TASK: Wait for scheduler "pas0" with entities [EventEntity, EventEntity]
 11: 0x0210 [0x5E] EventEntity goes idle (kills current action) (animation: "idl0")
 12: 0x0215 [0x1C] WAIT(30* ticks)
 13: 0x0218 [0x45] LOAD_SCHEDULED_TASK: Load scheduler "qstc" with entities [LocalPlayer, LocalPlayer], work=[201*, 0*]
 14: 0x0229 [0x1C] WAIT(30* ticks)
 15: 0x022C [0x20] SET_CLI_EVENT_UC_FLAG: Unlock player control
 16: 0x022E [0x21] END_EVENT
 17: 0x022F [0x00] END_REQSTACK()
```

### Event 283

#### Metadata

| Field        | Value    |
|--------------|----------|
| Entrypoint   | 0x0230   |
| Data Size    | 46 bytes |
| Instructions | 11       |

```
      00 01 02 03 04 05 06 07  08 09 0A 0B 0C 0D 0E 0F
      -- -- -- -- -- -- -- --  -- -- -- -- -- -- -- --
0230: 42 1E F0 FF FF 7F 6F 70  66 00 80 F8 FF FF 7F F8  B.....opf.......
0240: FF FF 7F 74 6C 6B 30 1D  15 80 23 66 00 80 F8 FF  ...tlk0...#f....
0250: FF 7F F8 FF FF 7F 74 6C  6B 31 20 00 21 00        ......tlk1 .!.  
```

#### Opcodes

```
  0: 0x0230 [0x42] SET_CLI_EVENT_CANCEL_DATA()
  1: 0x0231 [0x1E] EventEntity looks at LocalPlayer and starts talking
  2: 0x0236 [0x6F] WAIT_FRAME_DELAY: Yield until WaitTime reaches zero
  3: 0x0237 [0x70] WAIT_ENTITY_RENDER_FLAG: Wait while EventEntity->Render.Flags3 bit 2 is set (cancel turn if not)
  4: 0x0238 [0x66] LOAD_EXT_SCHEDULER_MAIN: Load scheduler "tlk0" with entities [EventEntity, EventEntity], work=19*
  5: 0x0247 [0x1D] PRINT_EVENT_MESSAGE(message_id=8801*)
    → "Can I have a moment of your time? Oh...you seem a little preoccupied. Maybe when you're not so busy."
  6: 0x024A [0x23] WAIT_FOR_DIALOG_INTERACTION
  7: 0x024B [0x66] LOAD_EXT_SCHEDULER_MAIN: Load scheduler "tlk1" with entities [EventEntity, EventEntity], work=19*
  8: 0x025A [0x20] SET_CLI_EVENT_UC_FLAG: Unlock player control
  9: 0x025C [0x21] END_EVENT
 10: 0x025D [0x00] END_REQSTACK()
```

### Event 465

#### Metadata

| Field        | Value   |
|--------------|---------|
| Entrypoint   | 0x025E  |
| Data Size    | 7 bytes |
| Instructions | 2       |

```
      00 01 02 03 04 05 06 07  08 09 0A 0B 0C 0D 0E 0F
      -- -- -- -- -- -- -- --  -- -- -- -- -- -- -- --
0250:                                            92 01                ..
0260: F8 FF FF 7F 00                                    .....           
```

#### Opcodes

```
  0: 0x025E [0x92] EventEntity->Render.Flags3 ^= 0x01
  1: 0x0264 [0x00] END_REQSTACK()
```
