# 17744221

## Common Data

| Field            | Value                 |
|------------------|-----------------------|
| Zone             | Port Bastok (ID: 236) |
| Block Size       | 272 bytes             |
| Total Events     | 6                     |
| References Count | 11                    |

## List of Events

| Event ID                 | Entrypoint   |   Size |   Instructions |
|--------------------------|--------------|--------|----------------|
| [65535](#event-65535)    | 0x0000       |      1 |              1 |
| [465](#event-465)        | 0x0001       |      7 |              2 |
| [65535.1](#event-655351) | 0x0008       |     45 |              4 |
| [65535.2](#event-655352) | 0x0035       |     45 |              4 |
| [65535.3](#event-655353) | 0x0062       |     45 |              4 |
| [65535.4](#event-655354) | 0x008F       |     45 |              4 |

## DAT References (imed_data)

|   Index | Hex Value   |   Dec Value |
|---------|-------------|-------------|
|       0 | 0x0001      |           1 |
|       1 | 0x0004      |           4 |
|       2 | 0x0000      |           0 |
|       3 | 0x001C      |          28 |
|       4 | 0x000C      |          12 |
|       5 | 0x0018      |          24 |
|       6 | 0x0008      |           8 |
|       7 | 0x0037      |          55 |
|       8 | 0x0019      |          25 |
|       9 | 0x0006      |           6 |
|      10 | 0x0003      |           3 |

## Events

### Event 65535

#### Metadata

| Field        | Value   |
|--------------|---------|
| Entrypoint   | 0x0000  |
| Data Size    | 1 bytes |
| Instructions | 1       |

```
      00 01 02 03 04 05 06 07  08 09 0A 0B 0C 0D 0E 0F
      -- -- -- -- -- -- -- --  -- -- -- -- -- -- -- --
0000: 00                                                .               
```

#### Opcodes

```
  0: 0x0000 [0x00] END_REQSTACK()
```

### Event 465

#### Metadata

| Field        | Value   |
|--------------|---------|
| Entrypoint   | 0x0001  |
| Data Size    | 7 bytes |
| Instructions | 2       |

```
      00 01 02 03 04 05 06 07  08 09 0A 0B 0C 0D 0E 0F
      -- -- -- -- -- -- -- --  -- -- -- -- -- -- -- --
0000:    92 01 F8 FF FF 7F 00                            .......        
```

#### Opcodes

```
  0: 0x0001 [0x92] EventEntity->Render.Flags3 ^= 0x01
  1: 0x0007 [0x00] END_REQSTACK()
```

### Event 65535.1

#### Metadata

| Field        | Value    |
|--------------|----------|
| Entrypoint   | 0x0008   |
| Data Size    | 45 bytes |
| Instructions | 4        |

```
      00 01 02 03 04 05 06 07  08 09 0A 0B 0C 0D 0E 0F
      -- -- -- -- -- -- -- --  -- -- -- -- -- -- -- --
0000:                          B4 00 00 00 57 69 6C 64          ....Wild
0010: 6F 6E 00 00 00 00 00 00  00 00 00 00 B5 00 00 00  on..............
0020: B6 0B 00 80 01 80 02 80  03 80 02 80 04 80 05 80  ................
0030: 02 80 02 80 00                                    .....           
```

#### Opcodes

```
  0: 0x0008 [0xB4] UI_WINDOW_STRING_HANDLER(case=0x00 - Copy string from opcode, work_offset=ExtData[1]->WorkLocal[0], string="Wildon")
  1: 0x001C [0xB5] SET_EVENT_ENTITY_NAME: Change EventEntity name to ExtData[1]->WorkLocal[0]
  2: 0x0020 [0xB6] ENTITY_APPEARANCE_HANDLER(case=Full entity look, race=1*, hair=4*, head=0*, body=28*, hands=0*, legs=12*, feet=24*, main=0*, sub=0*)
  3: 0x0034 [0x00] END_REQSTACK()
```

### Event 65535.2

#### Metadata

| Field        | Value    |
|--------------|----------|
| Entrypoint   | 0x0035   |
| Data Size    | 45 bytes |
| Instructions | 4        |

```
      00 01 02 03 04 05 06 07  08 09 0A 0B 0C 0D 0E 0F
      -- -- -- -- -- -- -- --  -- -- -- -- -- -- -- --
0030:                B4 00 00  00 57 69 6C 64 6F 6E 00       ....Wildon.
0040: 00 00 00 00 00 00 00 00  00 B5 00 00 00 B6 0B 06  ................
0050: 80 04 80 00 80 07 80 07  80 08 80 04 80 02 80 02  ................
0060: 80 00                                             ..              
```

#### Opcodes

```
  0: 0x0035 [0xB4] UI_WINDOW_STRING_HANDLER(case=0x00 - Copy string from opcode, work_offset=ExtData[1]->WorkLocal[0], string="Wildon")
  1: 0x0049 [0xB5] SET_EVENT_ENTITY_NAME: Change EventEntity name to ExtData[1]->WorkLocal[0]
  2: 0x004D [0xB6] ENTITY_APPEARANCE_HANDLER(case=Full entity look, race=8*, hair=12*, head=1*, body=55*, hands=55*, legs=25*, feet=12*, main=0*, sub=0*)
  3: 0x0061 [0x00] END_REQSTACK()
```

### Event 65535.3

#### Metadata

| Field        | Value    |
|--------------|----------|
| Entrypoint   | 0x0062   |
| Data Size    | 45 bytes |
| Instructions | 4        |

```
      00 01 02 03 04 05 06 07  08 09 0A 0B 0C 0D 0E 0F
      -- -- -- -- -- -- -- --  -- -- -- -- -- -- -- --
0060:       B4 00 00 00 52 61  76 6F 72 61 72 61 00 00    ....Ravorara..
0070: 00 00 00 00 00 00 B5 00  00 00 B6 0B 09 80 02 80  ................
0080: 0A 80 0A 80 0A 80 0A 80  0A 80 02 80 02 80 00     ............... 
```

#### Opcodes

```
  0: 0x0062 [0xB4] UI_WINDOW_STRING_HANDLER(case=0x00 - Copy string from opcode, work_offset=ExtData[1]->WorkLocal[0], string="Ravorara")
  1: 0x0076 [0xB5] SET_EVENT_ENTITY_NAME: Change EventEntity name to ExtData[1]->WorkLocal[0]
  2: 0x007A [0xB6] ENTITY_APPEARANCE_HANDLER(case=Full entity look, race=6*, hair=0*, head=3*, body=3*, hands=3*, legs=3*, feet=3*, main=0*, sub=0*)
  3: 0x008E [0x00] END_REQSTACK()
```

### Event 65535.4

#### Metadata

| Field        | Value    |
|--------------|----------|
| Entrypoint   | 0x008F   |
| Data Size    | 45 bytes |
| Instructions | 4        |

```
      00 01 02 03 04 05 06 07  08 09 0A 0B 0C 0D 0E 0F
      -- -- -- -- -- -- -- --  -- -- -- -- -- -- -- --
0080:                                               B4                 .
0090: 00 00 00 00 00 00 00 00  00 00 00 00 00 00 00 00  ................
00A0: 00 00 00 B5 00 00 00 B6  0B 00 80 02 80 02 80 02  ................
00B0: 80 02 80 02 80 02 80 02  80 02 80 00              ............    
```

#### Opcodes

```
  0: 0x008F [0xB4] UI_WINDOW_STRING_HANDLER(case=0x00 - Copy string from opcode, work_offset=ExtData[1]->WorkLocal[0], string="")
  1: 0x00A3 [0xB5] SET_EVENT_ENTITY_NAME: Change EventEntity name to ExtData[1]->WorkLocal[0]
  2: 0x00A7 [0xB6] ENTITY_APPEARANCE_HANDLER(case=Full entity look, race=1*, hair=0*, head=0*, body=0*, hands=0*, legs=0*, feet=0*, main=0*, sub=0*)
  3: 0x00BB [0x00] END_REQSTACK()
```
