# 0x7FFFFFF0 - Zone Events

## Common Data

| Field            | Value                 |
|------------------|-----------------------|
| Zone             | Port Bastok (ID: 236) |
| Block Size       | 20964 bytes           |
| Total Events     | 81                    |
| References Count | 658                   |

## List of Events

| Event ID                   | Entrypoint   |   Size |   Instructions |
|----------------------------|--------------|--------|----------------|
| [65535](#event-65535)      | 0x0000       |      1 |              1 |
| [1](#event-1)              | 0x0001       |   1781 |            278 |
| [2](#event-2)              | 0x06F6       |    662 |             96 |
| [65535.1](#event-655351)   | 0x098C       |      8 |              2 |
| [60](#event-60)            | 0x0994       |    122 |             25 |
| [70](#event-70)            | 0x0A0E       |      1 |              1 |
| [71](#event-71)            | 0x0A0F       |     12 |              3 |
| [73](#event-73)            | 0x0A1B       |     83 |             12 |
| [72](#event-72)            | 0x0A6E       |     19 |              7 |
| [65535.2](#event-655352)   | 0x0A81       |    142 |             22 |
| [65535.3](#event-655353)   | 0x0B0F       |     53 |             10 |
| [83](#event-83)            | 0x0B44       |     72 |             14 |
| [52](#event-52)            | 0x0B8C       |      1 |              1 |
| [65535.4](#event-655354)   | 0x0B8D       |     10 |              2 |
| [57](#event-57)            | 0x0B97       |      1 |              1 |
| [65535.5](#event-655355)   | 0x0B98       |     10 |              2 |
| [65535.6](#event-655356)   | 0x0BA2       |     10 |              2 |
| [65535.7](#event-655357)   | 0x0BAC       |     78 |             16 |
| [65534](#event-65534)      | 0x0BFA       |      1 |              1 |
| [65535.8](#event-655358)   | 0x0BFB       |     23 |              5 |
| [65535.9](#event-655359)   | 0x0C12       |     23 |              5 |
| [65535.10](#event-6553510) | 0x0C29       |     10 |              2 |
| [65535.11](#event-6553511) | 0x0C33       |     10 |              2 |
| [65535.12](#event-6553512) | 0x0C3D       |     10 |              2 |
| [65535.13](#event-6553513) | 0x0C47       |     10 |              2 |
| [231](#event-231)          | 0x0C51       |    715 |             97 |
| [232](#event-232)          | 0x0F1C       |    901 |            118 |
| [233](#event-233)          | 0x12A1       |    542 |             77 |
| [234](#event-234)          | 0x14BF       |   1018 |            144 |
| [270](#event-270)          | 0x18B9       |   1556 |            231 |
| [272](#event-272)          | 0x1ECD       |    176 |             32 |
| [274](#event-274)          | 0x1F7D       |    896 |            146 |
| [275](#event-275)          | 0x22FD       |    385 |             53 |
| [65535.14](#event-6553514) | 0x247E       |     20 |              3 |
| [65535.15](#event-6553515) | 0x2492       |     20 |              5 |
| [65535.16](#event-6553516) | 0x24A6       |     20 |              5 |
| [240](#event-240)          | 0x24BA       |    257 |             45 |
| [241](#event-241)          | 0x25BB       |    158 |             28 |
| [242](#event-242)          | 0x2659       |    579 |             81 |
| [245](#event-245)          | 0x289C       |    148 |             28 |
| [246](#event-246)          | 0x2930       |   1051 |            146 |
| [65535.17](#event-6553517) | 0x2D4B       |    121 |             19 |
| [65535.18](#event-6553518) | 0x2DC4       |     10 |              2 |
| [65535.19](#event-6553519) | 0x2DCE       |     27 |              6 |
| [65535.20](#event-6553520) | 0x2DE9       |      6 |              2 |
| [65535.21](#event-6553521) | 0x2DEF       |     10 |              2 |
| [65535.22](#event-6553522) | 0x2DF9       |     10 |              2 |
| [65535.23](#event-6553523) | 0x2E03       |     10 |              2 |
| [255](#event-255)          | 0x2E0D       |    144 |             28 |
| [261](#event-261)          | 0x2E9D       |    602 |            102 |
| [262](#event-262)          | 0x30F7       |    194 |             34 |
| [264](#event-264)          | 0x31B9       |    194 |             34 |
| [286](#event-286)          | 0x327B       |    112 |             23 |
| [289](#event-289)          | 0x32EB       |    121 |             23 |
| [290](#event-290)          | 0x3364       |    119 |             24 |
| [296](#event-296)          | 0x33DB       |   1855 |            251 |
| [305](#event-305)          | 0x3B1A       |    768 |             93 |
| [306](#event-306)          | 0x3E1A       |    756 |            105 |
| [65535.24](#event-6553524) | 0x410E       |      6 |              2 |
| [65535.25](#event-6553525) | 0x4114       |      6 |              2 |
| [65535.26](#event-6553526) | 0x411A       |      6 |              2 |
| [65535.27](#event-6553527) | 0x4120       |     10 |              2 |
| [65535.28](#event-6553528) | 0x412A       |     11 |              5 |
| [65535.29](#event-6553529) | 0x4135       |     10 |              2 |
| [65535.30](#event-6553530) | 0x413F       |     10 |              2 |
| [65535.31](#event-6553531) | 0x4149       |     42 |              6 |
| [65535.32](#event-6553532) | 0x4173       |     37 |              5 |
| [65535.33](#event-6553533) | 0x4198       |    185 |             37 |
| [65535.34](#event-6553534) | 0x4251       |     41 |             10 |
| [65535.35](#event-6553535) | 0x427A       |      9 |              3 |
| [65535.36](#event-6553536) | 0x4283       |    353 |             41 |
| [65535.37](#event-6553537) | 0x43E4       |     14 |              4 |
| [65535.38](#event-6553538) | 0x43F2       |      4 |              2 |
| [65535.39](#event-6553539) | 0x43F6       |     15 |              5 |
| [65535.40](#event-6553540) | 0x4405       |     41 |              9 |
| [65535.41](#event-6553541) | 0x442E       |     29 |              5 |
| [65535.42](#event-6553542) | 0x444B       |     24 |              4 |
| [65535.43](#event-6553543) | 0x4463       |     24 |              4 |
| [65535.44](#event-6553544) | 0x447B       |     14 |              4 |
| [65535.45](#event-6553545) | 0x4489       |    222 |             26 |
| [65535.46](#event-6553546) | 0x4567       |    222 |             26 |

## DAT References (imed_data)

|   Index | Hex Value   |   Dec Value |
|---------|-------------|-------------|
|       0 | 0x0010      |          16 |
|       1 | 0x0001      |           1 |
|       2 | 0x0005      |           5 |
|       3 | 0x0098      |         152 |
|       4 | 0x0050      |          80 |
|       5 | 0x0154      |         340 |
|       6 | 0x0088      |         136 |
|       7 | 0x0000      |           0 |
|       8 | 0x24EF8     |      151288 |
|       9 | 0x1C20      |        7200 |
|      10 | 0x1F56      |        8022 |
|      11 | 0x0DAB      |        3499 |
|      12 | 0x00A0      |         160 |
|      13 | 0x000D      |          13 |
|      14 | 0x22965     |      141669 |
|      15 | 0xFFFFF8CD  |  4294965453 |
|      16 | 0x005A      |          90 |
|      17 | 0x00C8      |         200 |
|      18 | 0x1C44      |        7236 |
|      19 | 0x1C45      |        7237 |
|      20 | 0x1C46      |        7238 |
|      21 | 0x001E      |          30 |
|      22 | 0x1C47      |        7239 |
|      23 | 0x003C      |          60 |
|      24 | 0x1C48      |        7240 |
|      25 | 0x1C49      |        7241 |
|      26 | 0x1C4A      |        7242 |
|      27 | 0x21DBE     |      138686 |
|      28 | 0xFFFFE5D5  |  4294960597 |
|      29 | 0x2133      |        8499 |
|      30 | 0x1C4B      |        7243 |
|      31 | 0x1C4C      |        7244 |
|      32 | 0x0014      |          20 |
|      33 | 0x1C4D      |        7245 |
|      34 | 0x0092      |         146 |
|      35 | 0x1C4E      |        7246 |
|      36 | 0x1C4F      |        7247 |
|      37 | 0x000A      |          10 |
|      38 | 0x1C50      |        7248 |
|      39 | 0x1C51      |        7249 |
|      40 | 0x1C52      |        7250 |
|      41 | 0x0094      |         148 |
|      42 | 0x1C53      |        7251 |
|      43 | 0x1C54      |        7252 |
|      44 | 0x1C55      |        7253 |
|      45 | 0x0064      |         100 |
|      46 | 0x1F740     |      128832 |
|      47 | 0xFFFFC692  |  4294952594 |
|      48 | 0x0977      |        2423 |
|      49 | 0x1C56      |        7254 |
|      50 | 0x1F2D3     |      127699 |
|      51 | 0xFFFFCDC7  |  4294954439 |
|      52 | 0x0078      |         120 |
|      53 | 0x0093      |         147 |
|      54 | 0x002D      |          45 |
|      55 | 0x1C57      |        7255 |
|      56 | 0x0091      |         145 |
|      57 | 0x1C58      |        7256 |
|      58 | 0x1C59      |        7257 |
|      59 | 0x1C5A      |        7258 |
|      60 | 0x1C5B      |        7259 |
|      61 | 0x1C5C      |        7260 |
|      62 | 0x1C5D      |        7261 |
|      63 | 0x1C5E      |        7262 |
|      64 | 0x1C5F      |        7263 |
|      65 | 0x1C60      |        7264 |
|      66 | 0x1C61      |        7265 |
|      67 | 0x1C62      |        7266 |
|      68 | 0x1C63      |        7267 |
|      69 | 0x1C64      |        7268 |
|      70 | 0x0002      |           2 |
|      71 | 0x1C65      |        7269 |
|      72 | 0x1C66      |        7270 |
|      73 | 0x1C67      |        7271 |
|      74 | 0x1C68      |        7272 |
|      75 | 0x1C69      |        7273 |
|      76 | 0x1C6A      |        7274 |
|      77 | 0x1C6B      |        7275 |
|      78 | 0x1C6C      |        7276 |
|      79 | 0x1C6D      |        7277 |
|      80 | 0x1C6E      |        7278 |
|      81 | 0x1C6F      |        7279 |
|      82 | 0x0218      |         536 |
|      83 | 0x1C70      |        7280 |
|      84 | 0x1C71      |        7281 |
|      85 | 0x00EC      |         236 |
|      86 | 0x1126F     |       70255 |
|      87 | 0xFFFF2AE5  |  4294912741 |
|      88 | 0x1C72      |        7282 |
|      89 | 0x1BCF      |        7119 |
|      90 | 0x1C73      |        7283 |
|      91 | 0x1C74      |        7284 |
|      92 | 0x013D      |         317 |
|      93 | 0x0282      |         642 |
|      94 | 0x0003      |           3 |
|      95 | 0xFFFE7E0F  |  4294868495 |
|      96 | 0x788B      |       30859 |
|      97 | 0x1229      |        4649 |
|      98 | 0x05D8      |        1496 |
|      99 | 0x000F      |          15 |
|     100 | 0x1CAD      |        7341 |
|     101 | 0x1CAE      |        7342 |
|     102 | 0x1CAF      |        7343 |
|     103 | 0x1CB0      |        7344 |
|     104 | 0x1CB1      |        7345 |
|     105 | 0x1CB2      |        7346 |
|     106 | 0x1CB3      |        7347 |
|     107 | 0x1CB4      |        7348 |
|     108 | 0x1CB5      |        7349 |
|     109 | 0x1CB6      |        7350 |
|     110 | 0x1CB7      |        7351 |
|     111 | 0x1CB8      |        7352 |
|     112 | 0x0200      |         512 |
|     113 | 0x1CB9      |        7353 |
|     114 | 0x1CBA      |        7354 |
|     115 | 0x1CBB      |        7355 |
|     116 | 0x1CBC      |        7356 |
|     117 | 0x1CBD      |        7357 |
|     118 | 0x0096      |         150 |
|     119 | 0x25A31     |      154161 |
|     120 | 0xFFFFD9EE  |  4294957550 |
|     121 | 0x2130      |        8496 |
|     122 | 0x1C3F      |        7231 |
|     123 | 0x0004      |           4 |
|     124 | 0x0006      |           6 |
|     125 | 0xFFFF71BC  |  4294930876 |
|     126 | 0xFFFF1FE2  |  4294909922 |
|     127 | 0x1CC3      |        7363 |
|     128 | 0x0B94      |        2964 |
|     129 | 0x0258      |         600 |
|     130 | 0x021C      |         540 |
|     131 | 0xFFFE2B40  |  4294847296 |
|     132 | 0xFFFD8730  |  4294805296 |
|     133 | 0x157B      |        5499 |
|     134 | 0x0400      |        1024 |
|     135 | 0x00D2      |         210 |
|     136 | 0xFFFECF50  |  4294889296 |
|     137 | 0x0C00      |        3072 |
|     138 | 0x07D0      |        2000 |
|     139 | 0x43F5      |       17397 |
|     140 | 0x1D47      |        7495 |
|     141 | 0x1D48      |        7496 |
|     142 | 0x0028      |          40 |
|     143 | 0x1D49      |        7497 |
|     144 | 0x1D4A      |        7498 |
|     145 | 0xFFFEBC2D  |  4294884397 |
|     146 | 0xFFFFBA0F  |  4294949391 |
|     147 | 0x0773      |        1907 |
|     148 | 0x06A3      |        1699 |
|     149 | 0xFFFD229D  |  4294779549 |
|     150 | 0xFFFF244D  |  4294911053 |
|     151 | 0x07CF      |        1999 |
|     152 | 0x018D      |         397 |
|     153 | 0xFFFD8ADD  |  4294806237 |
|     154 | 0x27D6      |       10198 |
|     155 | 0xFFFFE2C8  |  4294959816 |
|     156 | 0x0A37      |        2615 |
|     157 | 0x000C      |          12 |
|     158 | 0xFFFD82EB  |  4294804203 |
|     159 | 0x2D68      |       11624 |
|     160 | 0xFFFFE06E  |  4294959214 |
|     161 | 0x0A25      |        2597 |
|     162 | 0xFFFD8131  |  4294803761 |
|     163 | 0x3A1A      |       14874 |
|     164 | 0xFFFFDBBF  |  4294958015 |
|     165 | 0xFFFD869E  |  4294805150 |
|     166 | 0x3E9E      |       16030 |
|     167 | 0xFFFFD83D  |  4294957117 |
|     168 | 0xFFFD8E33  |  4294807091 |
|     169 | 0x3FB1      |       16305 |
|     170 | 0xFFFFD710  |  4294956816 |
|     171 | 0xFFFD9379  |  4294808441 |
|     172 | 0x3C38      |       15416 |
|     173 | 0xFFFFD38E  |  4294955918 |
|     174 | 0xFFFD9B4B  |  4294810443 |
|     175 | 0x3E50      |       15952 |
|     176 | 0xFFFD9A47  |  4294810183 |
|     177 | 0x44AA      |       17578 |
|     178 | 0xFFFEC780  |  4294887296 |
|     179 | 0xFFFF9A70  |  4294941296 |
|     180 | 0x0768      |        1896 |
|     181 | 0xFFFFA81C  |  4294944796 |
|     182 | 0xFFFF15AB  |  4294907307 |
|     183 | 0xFFFFE10F  |  4294959375 |
|     184 | 0xFFFF1E66  |  4294909542 |
|     185 | 0xFFFD8A8F  |  4294806159 |
|     186 | 0x2A7D      |       10877 |
|     187 | 0x04CF      |        1231 |
|     188 | 0xFFFD8ED7  |  4294807255 |
|     189 | 0x4A93      |       19091 |
|     190 | 0x0008      |           8 |
|     191 | 0xFFFDBF66  |  4294819686 |
|     192 | 0x257B      |        9595 |
|     193 | 0x0D01      |        3329 |
|     194 | 0x009A      |         154 |
|     195 | 0xFFFFF98B  |  4294965643 |
|     196 | 0x0B83      |        2947 |
|     197 | 0x3342      |       13122 |
|     198 | 0x025D      |         605 |
|     199 | 0x013E      |         318 |
|     200 | 0x00CD      |         205 |
|     201 | 0xFFFD8B82  |  4294806402 |
|     202 | 0x172B      |        5931 |
|     203 | 0x0339      |         825 |
|     204 | 0x1E82      |        7810 |
|     205 | 0x1E83      |        7811 |
|     206 | 0x1E84      |        7812 |
|     207 | 0x1E85      |        7813 |
|     208 | 0x1E86      |        7814 |
|     209 | 0x1E87      |        7815 |
|     210 | 0x1E88      |        7816 |
|     211 | 0x1E89      |        7817 |
|     212 | 0x1E8A      |        7818 |
|     213 | 0x1E8B      |        7819 |
|     214 | 0x1E8C      |        7820 |
|     215 | 0x1E8D      |        7821 |
|     216 | 0x1E8E      |        7822 |
|     217 | 0x1E8F      |        7823 |
|     218 | 0x1E90      |        7824 |
|     219 | 0x1E91      |        7825 |
|     220 | 0x007C      |         124 |
|     221 | 0x1E92      |        7826 |
|     222 | 0x1E93      |        7827 |
|     223 | 0x1E94      |        7828 |
|     224 | 0x1E95      |        7829 |
|     225 | 0x1E96      |        7830 |
|     226 | 0x1E97      |        7831 |
|     227 | 0x00C9      |         201 |
|     228 | 0x0013      |          19 |
|     229 | 0x1E98      |        7832 |
|     230 | 0x1E99      |        7833 |
|     231 | 0x000B      |          11 |
|     232 | 0x1E9A      |        7834 |
|     233 | 0x1E9B      |        7835 |
|     234 | 0x1E9C      |        7836 |
|     235 | 0x1E9D      |        7837 |
|     236 | 0x1E9E      |        7838 |
|     237 | 0x1E9F      |        7839 |
|     238 | 0x1EA0      |        7840 |
|     239 | 0x1EA1      |        7841 |
|     240 | 0x1EA2      |        7842 |
|     241 | 0x1EA3      |        7843 |
|     242 | 0x1EA4      |        7844 |
|     243 | 0x1EA5      |        7845 |
|     244 | 0x1EA6      |        7846 |
|     245 | 0x1EA7      |        7847 |
|     246 | 0x1EA8      |        7848 |
|     247 | 0x1EA9      |        7849 |
|     248 | 0x1EAA      |        7850 |
|     249 | 0x1EAB      |        7851 |
|     250 | 0x1EAC      |        7852 |
|     251 | 0x1EAD      |        7853 |
|     252 | 0x1EAE      |        7854 |
|     253 | 0x1EAF      |        7855 |
|     254 | 0x1EB0      |        7856 |
|     255 | 0x1EB1      |        7857 |
|     256 | 0x00C0      |         192 |
|     257 | 0x1EB2      |        7858 |
|     258 | 0x1EB3      |        7859 |
|     259 | 0x1EB4      |        7860 |
|     260 | 0x1EB5      |        7861 |
|     261 | 0x1EB6      |        7862 |
|     262 | 0x1EB7      |        7863 |
|     263 | 0x1EB8      |        7864 |
|     264 | 0x1EB9      |        7865 |
|     265 | 0x1EBA      |        7866 |
|     266 | 0x0095      |         149 |
|     267 | 0x1EBB      |        7867 |
|     268 | 0x1EBC      |        7868 |
|     269 | 0x1EBD      |        7869 |
|     270 | 0x0045      |          69 |
|     271 | 0x1EBE      |        7870 |
|     272 | 0x1EBF      |        7871 |
|     273 | 0x1EC0      |        7872 |
|     274 | 0x1EC1      |        7873 |
|     275 | 0x1EC2      |        7874 |
|     276 | 0x1EC3      |        7875 |
|     277 | 0x1EC4      |        7876 |
|     278 | 0x1EC5      |        7877 |
|     279 | 0x1EC6      |        7878 |
|     280 | 0x0153      |         339 |
|     281 | 0x0155      |         341 |
|     282 | 0xFFFDC99D  |  4294822301 |
|     283 | 0x32AF      |       12975 |
|     284 | 0x0475      |        1141 |
|     285 | 0x00F0      |         240 |
|     286 | 0x2204      |        8708 |
|     287 | 0x00A3      |         163 |
|     288 | 0x0015      |          21 |
|     289 | 0x2205      |        8709 |
|     290 | 0x2206      |        8710 |
|     291 | 0x2207      |        8711 |
|     292 | 0x2208      |        8712 |
|     293 | 0x2209      |        8713 |
|     294 | 0x220A      |        8714 |
|     295 | 0x220B      |        8715 |
|     296 | 0x220D      |        8717 |
|     297 | 0x001D      |          29 |
|     298 | 0x220E      |        8718 |
|     299 | 0x220F      |        8719 |
|     300 | 0x220C      |        8716 |
|     301 | 0x2210      |        8720 |
|     302 | 0x2211      |        8721 |
|     303 | 0x2212      |        8722 |
|     304 | 0x2213      |        8723 |
|     305 | 0x2214      |        8724 |
|     306 | 0x2215      |        8725 |
|     307 | 0x2216      |        8726 |
|     308 | 0x2217      |        8727 |
|     309 | 0x2218      |        8728 |
|     310 | 0x2219      |        8729 |
|     311 | 0x221A      |        8730 |
|     312 | 0x221B      |        8731 |
|     313 | 0x221C      |        8732 |
|     314 | 0x221D      |        8733 |
|     315 | 0x0046      |          70 |
|     316 | 0x221E      |        8734 |
|     317 | 0x221F      |        8735 |
|     318 | 0x2220      |        8736 |
|     319 | 0x2221      |        8737 |
|     320 | 0x2222      |        8738 |
|     321 | 0x2223      |        8739 |
|     322 | 0x2224      |        8740 |
|     323 | 0x2225      |        8741 |
|     324 | 0x2226      |        8742 |
|     325 | 0x2227      |        8743 |
|     326 | 0x2228      |        8744 |
|     327 | 0x2229      |        8745 |
|     328 | 0x222A      |        8746 |
|     329 | 0x222B      |        8747 |
|     330 | 0x222C      |        8748 |
|     331 | 0x222D      |        8749 |
|     332 | 0x222E      |        8750 |
|     333 | 0x222F      |        8751 |
|     334 | 0x2230      |        8752 |
|     335 | 0x2231      |        8753 |
|     336 | 0x2232      |        8754 |
|     337 | 0x2233      |        8755 |
|     338 | 0x2234      |        8756 |
|     339 | 0x2235      |        8757 |
|     340 | 0x2236      |        8758 |
|     341 | 0x2237      |        8759 |
|     342 | 0x0009      |           9 |
|     343 | 0x2238      |        8760 |
|     344 | 0x2239      |        8761 |
|     345 | 0x223A      |        8762 |
|     346 | 0x223B      |        8763 |
|     347 | 0x223C      |        8764 |
|     348 | 0x223D      |        8765 |
|     349 | 0x223E      |        8766 |
|     350 | 0x223F      |        8767 |
|     351 | 0x2240      |        8768 |
|     352 | 0x2241      |        8769 |
|     353 | 0x009F      |         159 |
|     354 | 0x2242      |        8770 |
|     355 | 0x2243      |        8771 |
|     356 | 0x2244      |        8772 |
|     357 | 0x2245      |        8773 |
|     358 | 0x2246      |        8774 |
|     359 | 0x2247      |        8775 |
|     360 | 0x2248      |        8776 |
|     361 | 0x2249      |        8777 |
|     362 | 0x224A      |        8778 |
|     363 | 0x224B      |        8779 |
|     364 | 0x224C      |        8780 |
|     365 | 0x224D      |        8781 |
|     366 | 0x0032      |          50 |
|     367 | 0x224E      |        8782 |
|     368 | 0x224F      |        8783 |
|     369 | 0x2251      |        8785 |
|     370 | 0x2252      |        8786 |
|     371 | 0x2253      |        8787 |
|     372 | 0x2254      |        8788 |
|     373 | 0x2255      |        8789 |
|     374 | 0x2256      |        8790 |
|     375 | 0x2257      |        8791 |
|     376 | 0x2258      |        8792 |
|     377 | 0x2259      |        8793 |
|     378 | 0x225A      |        8794 |
|     379 | 0x225B      |        8795 |
|     380 | 0x225C      |        8796 |
|     381 | 0x225D      |        8797 |
|     382 | 0x225E      |        8798 |
|     383 | 0x20195     |      131477 |
|     384 | 0xFFFFF315  |  4294963989 |
|     385 | 0x0D64      |        3428 |
|     386 | 0x0F2E      |        3886 |
|     387 | 0x0A44      |        2628 |
|     388 | 0x0142      |         322 |
|     389 | 0xC2FF      |       49919 |
|     390 | 0x10D7A     |       68986 |
|     391 | 0xFFFFE56F  |  4294960495 |
|     392 | 0x0811      |        2065 |
|     393 | 0x20D4      |        8404 |
|     394 | 0x20D5      |        8405 |
|     395 | 0x20D6      |        8406 |
|     396 | 0x20D7      |        8407 |
|     397 | 0x04BC      |        1212 |
|     398 | 0x20D8      |        8408 |
|     399 | 0x0B11      |        2833 |
|     400 | 0x20D9      |        8409 |
|     401 | 0xFFFE8EAB  |  4294872747 |
|     402 | 0x7040      |       28736 |
|     403 | 0xFFFFF705  |  4294964997 |
|     404 | 0x0C39      |        3129 |
|     405 | 0x20DA      |        8410 |
|     406 | 0x20DB      |        8411 |
|     407 | 0x20DC      |        8412 |
|     408 | 0x20DD      |        8413 |
|     409 | 0x0101      |         257 |
|     410 | 0x830B      |       33547 |
|     411 | 0x10DAE     |       69038 |
|     412 | 0x07F8      |        2040 |
|     413 | 0x20DE      |        8414 |
|     414 | 0x20DF      |        8415 |
|     415 | 0x20E0      |        8416 |
|     416 | 0x0052      |          82 |
|     417 | 0x20E1      |        8417 |
|     418 | 0x20E2      |        8418 |
|     419 | 0x20E3      |        8419 |
|     420 | 0x20E4      |        8420 |
|     421 | 0x20E5      |        8421 |
|     422 | 0x20E6      |        8422 |
|     423 | 0x00B4      |         180 |
|     424 | 0x20E7      |        8423 |
|     425 | 0x20E8      |        8424 |
|     426 | 0x20E9      |        8425 |
|     427 | 0x20EA      |        8426 |
|     428 | 0x20EB      |        8427 |
|     429 | 0x20EC      |        8428 |
|     430 | 0x20ED      |        8429 |
|     431 | 0x20EE      |        8430 |
|     432 | 0x20EF      |        8431 |
|     433 | 0x20F0      |        8432 |
|     434 | 0x20F3      |        8435 |
|     435 | 0x20F4      |        8436 |
|     436 | 0x20F5      |        8437 |
|     437 | 0x20F6      |        8438 |
|     438 | 0x20F7      |        8439 |
|     439 | 0x20F8      |        8440 |
|     440 | 0x20F9      |        8441 |
|     441 | 0x20FA      |        8442 |
|     442 | 0x20FB      |        8443 |
|     443 | 0x20FC      |        8444 |
|     444 | 0x20FD      |        8445 |
|     445 | 0x20FE      |        8446 |
|     446 | 0x20FF      |        8447 |
|     447 | 0x2100      |        8448 |
|     448 | 0x2101      |        8449 |
|     449 | 0x2102      |        8450 |
|     450 | 0x2103      |        8451 |
|     451 | 0x2104      |        8452 |
|     452 | 0x2105      |        8453 |
|     453 | 0x2106      |        8454 |
|     454 | 0x2107      |        8455 |
|     455 | 0x2108      |        8456 |
|     456 | 0x2109      |        8457 |
|     457 | 0x210A      |        8458 |
|     458 | 0x210B      |        8459 |
|     459 | 0x210C      |        8460 |
|     460 | 0x210D      |        8461 |
|     461 | 0x210E      |        8462 |
|     462 | 0x210F      |        8463 |
|     463 | 0x2110      |        8464 |
|     464 | 0x2111      |        8465 |
|     465 | 0x17FB2     |       98226 |
|     466 | 0xFFFE8427  |  4294870055 |
|     467 | 0xFFFFC951  |  4294953297 |
|     468 | 0x00D1      |         209 |
|     469 | 0x8A3C      |       35388 |
|     470 | 0xFFFF5FB6  |  4294926262 |
|     471 | 0x1D4B      |        7499 |
|     472 | 0x07D5      |        2005 |
|     473 | 0xFFFFC977  |  4294953335 |
|     474 | 0xFFFFAF27  |  4294946599 |
|     475 | 0x0449      |        1097 |
|     476 | 0x0FC1      |        4033 |
|     477 | 0xFFFFBA31  |  4294949425 |
|     478 | 0xFFFFD2B5  |  4294955701 |
|     479 | 0x1DE4      |        7652 |
|     480 | 0x0108      |         264 |
|     481 | 0xFFFD2886  |  4294781062 |
|     482 | 0x1A773     |      108403 |
|     483 | 0x095F      |        2399 |
|     484 | 0x72BA      |       29370 |
|     485 | 0xDF91      |       57233 |
|     486 | 0xFFFFC246  |  4294951494 |
|     487 | 0x0314      |         788 |
|     488 | 0x55DE      |       21982 |
|     489 | 0x7561      |       30049 |
|     490 | 0xFFFFB926  |  4294949158 |
|     491 | 0x0D48      |        3400 |
|     492 | 0xFFFFBA9A  |  4294949530 |
|     493 | 0xFFFFD177  |  4294955383 |
|     494 | 0x1DDD      |        7645 |
|     495 | 0xFFFD8ED3  |  4294807251 |
|     496 | 0x2365      |        9061 |
|     497 | 0x0AF7      |        2807 |
|     498 | 0x2116      |        8470 |
|     499 | 0x2117      |        8471 |
|     500 | 0x2118      |        8472 |
|     501 | 0x2119      |        8473 |
|     502 | 0x211A      |        8474 |
|     503 | 0x211B      |        8475 |
|     504 | 0x211C      |        8476 |
|     505 | 0x00FC      |         252 |
|     506 | 0x007B      |         123 |
|     507 | 0x211D      |        8477 |
|     508 | 0x211E      |        8478 |
|     509 | 0x211F      |        8479 |
|     510 | 0x2120      |        8480 |
|     511 | 0x2121      |        8481 |
|     512 | 0x2122      |        8482 |
|     513 | 0x2123      |        8483 |
|     514 | 0x2124      |        8484 |
|     515 | 0x2125      |        8485 |
|     516 | 0x2126      |        8486 |
|     517 | 0x2127      |        8487 |
|     518 | 0x2128      |        8488 |
|     519 | 0x01CC      |         460 |
|     520 | 0x2129      |        8489 |
|     521 | 0x212A      |        8490 |
|     522 | 0x212B      |        8491 |
|     523 | 0x212C      |        8492 |
|     524 | 0x212D      |        8493 |
|     525 | 0x212E      |        8494 |
|     526 | 0x2131      |        8497 |
|     527 | 0x2132      |        8498 |
|     528 | 0x2134      |        8500 |
|     529 | 0x2135      |        8501 |
|     530 | 0x2285      |        8837 |
|     531 | 0x2286      |        8838 |
|     532 | 0x2287      |        8839 |
|     533 | 0x228F      |        8847 |
|     534 | 0x2290      |        8848 |
|     535 | 0x2291      |        8849 |
|     536 | 0x2292      |        8850 |
|     537 | 0x2293      |        8851 |
|     538 | 0xFFFE8CE8  |  4294872296 |
|     539 | 0x7148      |       29000 |
|     540 | 0xFFFFF830  |  4294965296 |
|     541 | 0x22B2      |        8882 |
|     542 | 0x22B3      |        8883 |
|     543 | 0xFFFE8518  |  4294870296 |
|     544 | 0x6D60      |       28000 |
|     545 | 0x22B4      |        8884 |
|     546 | 0x22B5      |        8885 |
|     547 | 0xFFFE65D8  |  4294862296 |
|     548 | 0x7724      |       30500 |
|     549 | 0x88B8      |       35000 |
|     550 | 0x1388      |        5000 |
|     551 | 0xFFFE7578  |  4294866296 |
|     552 | 0x8CA0      |       36000 |
|     553 | 0xFFFE7D48  |  4294868296 |
|     554 | 0x7D00      |       32000 |
|     555 | 0x22B6      |        8886 |
|     556 | 0x22B7      |        8887 |
|     557 | 0x22B8      |        8888 |
|     558 | 0x22B9      |        8889 |
|     559 | 0x22BA      |        8890 |
|     560 | 0x22BB      |        8891 |
|     561 | 0x22BC      |        8892 |
|     562 | 0x22BD      |        8893 |
|     563 | 0x22BE      |        8894 |
|     564 | 0x22BF      |        8895 |
|     565 | 0x22C0      |        8896 |
|     566 | 0x22C1      |        8897 |
|     567 | 0x22C2      |        8898 |
|     568 | 0x22C3      |        8899 |
|     569 | 0x22C4      |        8900 |
|     570 | 0x22C5      |        8901 |
|     571 | 0x22C6      |        8902 |
|     572 | 0x22C7      |        8903 |
|     573 | 0x22C8      |        8904 |
|     574 | 0x22C9      |        8905 |
|     575 | 0x22CA      |        8906 |
|     576 | 0x22CB      |        8907 |
|     577 | 0x22CC      |        8908 |
|     578 | 0x22CD      |        8909 |
|     579 | 0xFFFE8130  |  4294869296 |
|     580 | 0x80E8      |       33000 |
|     581 | 0x22CE      |        8910 |
|     582 | 0x22CF      |        8911 |
|     583 | 0x22D0      |        8912 |
|     584 | 0x22D1      |        8913 |
|     585 | 0x22D2      |        8914 |
|     586 | 0x22D3      |        8915 |
|     587 | 0x22D4      |        8916 |
|     588 | 0x22D5      |        8917 |
|     589 | 0x22D6      |        8918 |
|     590 | 0x22D7      |        8919 |
|     591 | 0xFFFE74B9  |  4294866105 |
|     592 | 0xFFFFAF69  |  4294946665 |
|     593 | 0xFFFFF7CB  |  4294965195 |
|     594 | 0x02AB      |         683 |
|     595 | 0x0070      |         112 |
|     596 | 0xFFFE7F6D  |  4294868845 |
|     597 | 0xFFFFA073  |  4294942835 |
|     598 | 0x01DB      |         475 |
|     599 | 0x238B      |        9099 |
|     600 | 0x238C      |        9100 |
|     601 | 0x238D      |        9101 |
|     602 | 0x238E      |        9102 |
|     603 | 0x238F      |        9103 |
|     604 | 0x2390      |        9104 |
|     605 | 0x2391      |        9105 |
|     606 | 0x2392      |        9106 |
|     607 | 0x2393      |        9107 |
|     608 | 0x01E3      |         483 |
|     609 | 0x2394      |        9108 |
|     610 | 0xFFFF550C  |  4294923532 |
|     611 | 0xFFFF1EC7  |  4294909639 |
|     612 | 0x0149      |         329 |
|     613 | 0x013C      |         316 |
|     614 | 0x003A      |          58 |
|     615 | 0x004C      |          76 |
|     616 | 0x0044      |          68 |
|     617 | 0x01A4      |         420 |
|     618 | 0x2399      |        9113 |
|     619 | 0x01E2      |         482 |
|     620 | 0x239A      |        9114 |
|     621 | 0x01DF      |         479 |
|     622 | 0x239B      |        9115 |
|     623 | 0x239C      |        9116 |
|     624 | 0x239D      |        9117 |
|     625 | 0x239E      |        9118 |
|     626 | 0x239F      |        9119 |
|     627 | 0x0069      |         105 |
|     628 | 0xFFFDB38F  |  4294816655 |
|     629 | 0xFFFFDD79  |  4294958457 |
|     630 | 0xFFFFE891  |  4294961297 |
|     631 | 0x0B84      |        2948 |
|     632 | 0xFFFE8D6B  |  4294872427 |
|     633 | 0x70AC      |       28844 |
|     634 | 0x0C42      |        3138 |
|     635 | 0xFFFE5FD5  |  4294860757 |
|     636 | 0xC705      |       50949 |
|     637 | 0x1322      |        4898 |
|     638 | 0x0A24      |        2596 |
|     639 | 0x008C      |         140 |
|     640 | 0x0E10      |        3600 |
|     641 | 0x0027      |          39 |
|     642 | 0x0031      |          49 |
|     643 | 0x0007      |           7 |
|     644 | 0x003B      |          59 |
|     645 | 0x2814C     |      164172 |
|     646 | 0x5118B     |      332171 |
|     647 | 0xFFFEA992  |  4294879634 |
|     648 | 0x27951     |      162129 |
|     649 | 0x510CC     |      331980 |
|     650 | 0xFFFEA9CB  |  4294879691 |
|     651 | 0xFFFDC484  |  4294820996 |
|     652 | 0xFFFFF768  |  4294965096 |
|     653 | 0xFFFFE890  |  4294961296 |
|     654 | 0x00A9      |         169 |
|     655 | 0x00B3      |         179 |
|     656 | 0x00BD      |         189 |
|     657 | 0x00C7      |         199 |

## String References

- **7231**: Go where?(+List scrolls down) [Stay here./San d'Oria./Windurst./Ghelsba lift./Valley of hot springs./Ronfaure Forest.]
- **7236**: Compared to San d'Oria, with its legendary orders of knights, or Windurst, with its ancient institutes of magic, Bastok is still but a newborn nation.
- **7237**: But advanced technology and near limitless underground resources have allowed Bastok to rival the other two nations in power.
- **7238**: Innovative and adaptable Humes make up more than half the population of Bastok.
- **7239**: With their flair for industry, economy, and politics, they were the driving force behind Bastok's rapid growth. Even now, Humes hold key positions in those areas.
- **7240**: The Galka, a race of hulking humanoids, comprise a third of Bastok's population. Originally hailing from Zepwell, they came to this land over six hundred years ago.
- **7241**: Without their incomparable strength, the countless ore mines that drive Bastok's economy would never have been dug.
- **7242**: Adventurers seeking fame and fortune flock to rising nations like Bastok. You are one of them.
- **7243**: Your story begins here, amid the smoke and bustle of the industrial city of Bastok.
- **7257**: First time in Bastok? [Yes./No.]
- **7264**: What do you want to do? [Fight monsters!/Go shopping./Find some work.]
- **7270**: What do you want to do? [Serve Bastok./Help people./Get rich, quick.]
- **7352**: Go find $7 for her? [Yes./No.]

## Events

### Event 65535

#### Metadata

| Field        | Value   |
|--------------|---------|
| Entrypoint   | 0x0000  |
| Data Size    | 1 bytes |
| Instructions | 1       |

```
      00 01 02 03 04 05 06 07  08 09 0A 0B 0C 0D 0E 0F
      -- -- -- -- -- -- -- --  -- -- -- -- -- -- -- --
0000: 00                                                .               
```

#### Opcodes

```
  0: 0x0000 [0x00] END_REQSTACK()
```

### Event 1

#### Metadata

| Field        | Value      |
|--------------|------------|
| Entrypoint   | 0x0001     |
| Data Size    | 1781 bytes |
| Instructions | 278        |

```
      00 01 02 03 04 05 06 07  08 09 0A 0B 0C 0D 0E 0F
      -- -- -- -- -- -- -- --  -- -- -- -- -- -- -- --
0000:    22 00 77 00 80 01 80  46 01 42 69 01 02 80 5C   ".w....F.Bi...\
0010: 00 03 80 5C 01 03 80 67  04 80 05 80 45 06 80 F0  ...\...g....E...
0020: FF FF 7F F0 FF FF 7F 73  30 30 73 07 80 27 0A 03  .......s00s..'..
0030: C0 0E 01 03 27 0A 04 C0  0E 01 03 1C 02 80 4E 01  ....'.........N.
0040: 03 C0 0E 01 4E 01 04 C0  0E 01 4E 01 06 C0 0E 01  ....N.....N.....
0050: 36 08 80 09 80 0A 80 39  0B 80 1C 0C 80 32 0D 80  6......9.....2..
0060: 27 0A 03 C0 0E 01 06 1F  00 0E 80 0F 80 0A 80 1F  '...............
0070: 01 55 06 80 06 C0 0E 01  06 C0 0E 01 73 30 30 73  .U..........s00s
0080: 1C 10 80 45 11 80 F0 FF  FF 7F F0 FF FF 7F 6F 76  ...E..........ov
0090: 6C 31 07 80 45 06 80 06  C0 0E 01 06 C0 0E 01 73  l1..E..........s
00A0: 30 30 31 07 80 4E 00 03  C0 0E 01 4E 00 04 C0 0E  001..N.....N....
00B0: 01 4E 00 06 C0 0E 01 1C  02 80 1C 04 80 48 12 80  .N...........H..
00C0: 23 1C 04 80 48 13 80 23  55 06 80 06 C0 0E 01 06  #...H..#U.......
00D0: C0 0E 01 73 30 30 31 1C  01 80 45 11 80 F0 FF FF  ...s001...E.....
00E0: 7F F0 FF FF 7F 6F 76 6C  31 07 80 45 06 80 06 C0  .....ovl1..E....
00F0: 0E 01 06 C0 0E 01 73 30  30 32 07 80 1C 02 80 27  ......s002.....'
0100: 64 21 C0 0E 01 07 27 64  1C C0 0E 01 03 27 64 11  d!....'d.....'d.
0110: C0 0E 01 03 1C 04 80 48  14 80 23 1C 15 80 27 64  .......H..#...'d
0120: 2F C0 0E 01 03 27 64 2E  C0 0E 01 04 48 16 80 23  /....'d.....H..#
0130: 55 06 80 06 C0 0E 01 06  C0 0E 01 73 30 30 32 1C  U..........s002.
0140: 17 80 45 11 80 F0 FF FF  7F F0 FF FF 7F 6F 76 6C  ..E..........ovl
0150: 31 07 80 45 06 80 06 C0  0E 01 06 C0 0E 01 73 30  1..E..........s0
0160: 30 33 07 80 1C 02 80 27  64 2B C0 0E 01 03 1C 10  03.....'d+......
0170: 80 27 64 38 C0 0E 01 03  27 64 32 C0 0E 01 03 48  .'d8....'d2....H
0180: 18 80 23 1C 15 80 48 19  80 23 55 06 80 06 C0 0E  ..#...H..#U.....
0190: 01 06 C0 0E 01 73 30 30  33 1C 01 80 45 11 80 F0  .....s003...E...
01A0: FF FF 7F F0 FF FF 7F 6F  76 6C 31 07 80 45 06 80  .......ovl1..E..
01B0: 06 C0 0E 01 06 C0 0E 01  73 30 30 34 07 80 1C 02  ........s004....
01C0: 80 1C 17 80 48 1A 80 32  0D 80 1F 00 1B 80 1C 80  ....H..2........
01D0: 1D 80 1F 01 23 1C 15 80  48 1E 80 23 68 69 00 02  ....#...H..#hi..
01E0: 80 27 0A 06 C0 0E 01 02  1C 17 80 55 06 80 06 C0  .'.........U....
01F0: 0E 01 06 C0 0E 01 73 30  30 34 7B 04 C0 0E 01 2B  ......s004{....+
0200: 04 C0 0E 01 1F 80 23 79  00 F8 FF FF 7F 04 C0 0E  ......#y........
0210: 01 1C 15 80 45 06 80 06  C0 0E 01 06 C0 0E 01 73  ....E..........s
0220: 30 30 35 07 80 4A 03 C0  0E 01 04 C0 0E 01 1C 20  005..J......... 
0230: 80 66 07 80 03 C0 0E 01  03 C0 0E 01 74 6C 6B 30  .f..........tlk0
0240: 2B 03 C0 0E 01 21 80 23  5B 22 80 04 C0 0E 01 04  +....!.#["......
0250: C0 0E 01 69 74 6C 30 2B  04 C0 0E 01 23 80 23 2B  ...itl0+....#.#+
0260: 03 C0 0E 01 24 80 23 27  64 03 C0 0E 01 05 1C 25  ....$.#'d......%
0270: 80 5B 22 80 04 C0 0E 01  04 C0 0E 01 69 74 6C 31  .[".........itl1
0280: 2A 0A 06 C0 0E 01 5B 22  80 04 C0 0E 01 04 C0 0E  *.....["........
0290: 01 69 74 6C 31 66 17 80  06 C0 0E 01 06 C0 0E 01  .itl1f..........
02A0: 64 69 73 30 2B 06 C0 0E  01 26 80 23 79 00 04 C0  dis0+....&.#y...
02B0: 0E 01 06 C0 0E 01 2B 04  C0 0E 01 27 80 23 53 06  ......+....'.#S.
02C0: C0 0E 01 06 C0 0E 01 64  69 73 30 66 17 80 06 C0  .......dis0f....
02D0: 0E 01 06 C0 0E 01 74 6C  6B 30 2B 06 C0 0E 01 28  ......tlk0+....(
02E0: 80 23 27 0A 06 C0 0E 01  03 7B 04 C0 0E 01 5B 29  .#'......{....[)
02F0: 80 04 C0 0E 01 04 C0 0E  01 75 74 75 30 2B 04 C0  .........utu0+..
0300: 0E 01 2A 80 23 66 17 80  06 C0 0E 01 06 C0 0E 01  ..*.#f..........
0310: 6B 75 64 30 2B 06 C0 0E  01 2B 80 23 5B 29 80 04  kud0+....+.#[)..
0320: C0 0E 01 04 C0 0E 01 75  74 75 31 2B 04 C0 0E 01  .......utu1+....
0330: 2C 80 23 53 04 C0 0E 01  04 C0 0E 01 74 68 6B 31  ,.#S........thk1
0340: 27 0A 04 C0 0E 01 06 1C  2D 80 79 00 03 C0 0E 01  '.......-.y.....
0350: 06 C0 0E 01 37 2E 80 2F  80 1D 80 30 80 1C 02 80  ....7../...0....
0360: 2B 03 C0 0E 01 31 80 23  45 06 80 06 C0 0E 01 06  +....1.#E.......
0370: C0 0E 01 73 30 30 36 07  80 1C 04 80 32 0D 80 1F  ...s006.....2...
0380: 00 32 80 33 80 1D 80 1F  01 79 00 03 C0 0E 01 F0  .2.3.....y......
0390: FF FF 7F 1C 34 80 2A 0A  04 C0 0E 01 5B 35 80 04  ....4.*.....[5..
03A0: C0 0E 01 04 C0 0E 01 75  74 75 31 1C 36 80 4A 04  .......utu1.6.J.
03B0: C0 0E 01 F0 FF FF 7F 2B  04 C0 0E 01 37 80 23 5B  .......+....7.#[
03C0: 38 80 04 C0 0E 01 04 C0  0E 01 74 6C 61 30 2B 04  8.........tla0+.
03D0: C0 0E 01 39 80 23 24 3A  80 07 80 07 80 25 02 00  ...9.#$:.....%..
03E0: 10 07 80 00 F1 03 2B 04  C0 0E 01 3B 80 23 01 04  ......+....;.#..
03F0: 04 02 00 10 01 80 00 04  04 2B 04 C0 0E 01 3C 80  .........+....<.
0400: 23 01 04 04 6B 69 64 6C  30 04 C0 0E 01 1C 25 80  #...kidl0.....%.
0410: 5B 38 80 04 C0 0E 01 04  C0 0E 01 77 61 76 30 2B  [8.........wav0+
0420: 04 C0 0E 01 3D 80 23 53  04 C0 0E 01 04 C0 0E 01  ....=.#S........
0430: 77 61 76 30 27 0A 04 C0  0E 01 07 79 00 03 C0 0E  wav0'......y....
0440: 01 04 C0 0E 01 27 0A 03  C0 0E 01 04 1C 2D 80 2B  .....'.......-.+
0450: 03 C0 0E 01 3E 80 23 2A  0A 03 C0 0E 01 79 00 F8  ....>.#*.....y..
0460: FF FF 7F 03 C0 0E 01 1C  15 80 4A 03 C0 0E 01 F0  ..........J.....
0470: FF FF 7F 2B 03 C0 0E 01  3F 80 23 66 07 80 03 C0  ...+....?.#f....
0480: 0E 01 03 C0 0E 01 74 6C  6B 30 2B 03 C0 0E 01 40  ......tlk0+....@
0490: 80 23 6B 69 64 31 30 03  C0 0E 01 24 41 80 07 80  .#kid10....$A...
04A0: 07 80 25 02 00 10 07 80  00 D4 04 66 07 80 03 C0  ..%........f....
04B0: 0E 01 03 C0 0E 01 74 6C  6B 30 2B 03 C0 0E 01 42  ......tlk0+....B
04C0: 80 23 27 0A 03 C0 0E 01  05 2B 03 C0 0E 01 43 80  .#'......+....C.
04D0: 23 01 FD 05 02 00 10 01  80 00 05 05 66 07 80 03  #...........f...
04E0: C0 0E 01 03 C0 0E 01 74  6C 6B 30 2B 03 C0 0E 01  .......tlk0+....
04F0: 44 80 23 27 0A 03 C0 0E  01 05 2B 03 C0 0E 01 45  D.#'......+....E
0500: 80 23 01 FD 05 02 00 10  46 80 00 FD 05 66 07 80  .#......F....f..
0510: 03 C0 0E 01 03 C0 0E 01  74 6C 6B 30 2B 03 C0 0E  ........tlk0+...
0520: 01 47 80 23 27 0A 03 C0  0E 01 05 24 48 80 07 80  .G.#'......$H...
0530: 07 80 25 02 00 10 07 80  00 90 05 66 07 80 03 C0  ..%........f....
0540: 0E 01 03 C0 0E 01 74 6C  6B 31 2B 03 C0 0E 01 49  ......tlk1+....I
0550: 80 23 2B 03 C0 0E 01 4A  80 23 66 07 80 03 C0 0E  .#+....J.#f.....
0560: 01 03 C0 0E 01 74 6C 6B  30 2B 03 C0 0E 01 4B 80  .....tlk0+....K.
0570: 23 66 07 80 03 C0 0E 01  03 C0 0E 01 74 65 6E 30  #f..........ten0
0580: 2B 03 C0 0E 01 4C 80 23  03 01 10 01 80 01 FA 05  +....L.#........
0590: 02 00 10 01 80 00 C9 05  66 07 80 03 C0 0E 01 03  ........f.......
05A0: C0 0E 01 74 6C 6B 30 2B  03 C0 0E 01 4D 80 23 2B  ...tlk0+....M.#+
05B0: 03 C0 0E 01 4E 80 23 27  0A 03 C0 0E 01 05 2B 03  ....N.#'......+.
05C0: C0 0E 01 4F 80 23 01 FA  05 02 00 10 46 80 00 FA  ...O.#......F...
05D0: 05 66 07 80 03 C0 0E 01  03 C0 0E 01 74 6C 6B 30  .f..........tlk0
05E0: 2B 03 C0 0E 01 50 80 23  27 0A 03 C0 0E 01 05 2B  +....P.#'......+
05F0: 03 C0 0E 01 51 80 23 01  FA 05 01 FD 05 66 07 80  ....Q.#......f..
0600: 03 C0 0E 01 03 C0 0E 01  70 61 73 30 03 09 10 52  ........pas0...R
0610: 80 2B 03 C0 0E 01 53 80  23 2B 03 C0 0E 01 54 80  .+....S.#+....T.
0620: C8 55 80 07 80 01 80 8B  55 80 07 80 56 80 57 80  .U......U...V.W.
0630: 44 75 6C 73 69 65 00 00  00 00 00 00 00 00 00 00  Dulsie..........
0640: 1C 10 80 23 2B 03 C0 0E  01 58 80 23 4E 00 47 C0  ...#+....X.#N.G.
0650: 0E 01 8A 1C 17 80 80 47  C0 0E 01 45 06 80 06 C0  .......G...E....
0660: 0E 01 06 C0 0E 01 73 30  31 39 07 80 2B 03 C0 0E  ......s019..+...
0670: 01 59 80 23 52 06 80 06  C0 0E 01 06 C0 0E 01 73  .Y.#R..........s
0680: 30 31 39 45 06 80 06 C0  0E 01 06 C0 0E 01 73 30  019E..........s0
0690: 32 33 07 80 2B 03 C0 0E  01 5A 80 23 53 03 C0 0E  23..+....Z.#S...
06A0: 01 03 C0 0E 01 70 61 73  30 66 07 80 03 C0 0E 01  .....pas0f......
06B0: 03 C0 0E 01 74 6C 6B 31  2B 03 C0 0E 01 5B 80 23  ....tlk1+....[.#
06C0: 6B 69 64 31 30 03 C0 0E  01 45 11 80 F8 FF FF 7F  kid10....E......
06D0: F8 FF FF 7F 66 64 6F 32  07 80 1C 34 80 46 00 78  ....fdo2...4.F.x
06E0: 1C 34 80 45 11 80 F8 FF  FF 7F F8 FF FF 7F 66 64  .4.E..........fd
06F0: 69 32 07 80 21 00                                 i2..!.          
```

#### Opcodes

```
  0: 0x0001 [0x22] ENTITY_HIDE_FLAG(enabled=0x00)
  1: 0x0003 [0x77] SET_EVENT_TIME_WEATHER(hour=16*, weather=1*)
  2: 0x0008 [0x46] CAMERA_CONTROL: Disable user control
  3: 0x000A [0x42] SET_CLI_EVENT_CANCEL_DATA()
  4: 0x000B [0x69] SET_SOUND_VOLUME: Mute System
  5: 0x000F [0x5C] MUSIC_CONTROL: Set Idle (Day) music to song 152*
  6: 0x0013 [0x5C] MUSIC_CONTROL: Set Idle (Night) music to song 152*
  7: 0x0017 [0x67] HIDE_HUD_ELEMENTS(param1=0x8004, param2=0x8005)
  8: 0x001C [0x45] LOAD_SCHEDULED_TASK: Load scheduler "s00s" with entities [LocalPlayer, LocalPlayer], work=[136*, 0*]
  9: 0x002D [0x27] REQ_SET(priority=0x0A, entity_id=Nicadio (ID: 17743875/0x010EC003), tag_num=0x03)
 10: 0x0034 [0x27] REQ_SET(priority=0x0A, entity_id=Cornelia (ID: 17743876/0x010EC004), tag_num=0x03)
 11: 0x003B [0x1C] WAIT(5* ticks)
 12: 0x003E [0x4E] SET_ENTITY_HIDE_FLAG: Hide Nicadio (ID: 17743875/0x010EC003)
 13: 0x0044 [0x4E] SET_ENTITY_HIDE_FLAG: Hide Cornelia (ID: 17743876/0x010EC004)
 14: 0x004A [0x4E] SET_ENTITY_HIDE_FLAG: Hide Tiger Tooth (ID: 17743878/0x010EC006)
 15: 0x0050 [0x36] SET_ENTITY_EVENT_POSITION(pos_x=151.288*, pos_z=7.200*, pos_y=8.022*)
 16: 0x0057 [0x39] SET_ENTITY_DIRECTION(direction=19.2°*)
 17: 0x005A [0x1C] WAIT(160* ticks)
 18: 0x005D [0x32] ExtData[1]->MainSpeed = 13* * 0.1
 19: 0x0060 [0x27] REQ_SET(priority=0x0A, entity_id=Nicadio (ID: 17743875/0x010EC003), tag_num=0x06)
 20: 0x0067 [0x1F] MOVE_ENTITY: EventEntity moves to X=141.669*, Z=-1.843*, Y=8.022*
 21: 0x006F [0x1F] MOVE_ENTITY: Update entity position (mode=1)
 22: 0x0071 [0x55] WAIT_LOAD_SCHEDULER: Wait for scheduler "s00s" with entities [Tiger Tooth (ID: 17743878/0x010EC006), Tiger Tooth (ID: 17743878/0x010EC006)], work=136*
 23: 0x0080 [0x1C] WAIT(90* ticks)
 24: 0x0083 [0x45] LOAD_SCHEDULED_TASK: Load scheduler "ovl1" with entities [LocalPlayer, LocalPlayer], work=[200*, 0*]
 25: 0x0094 [0x45] LOAD_SCHEDULED_TASK: Load scheduler "s001" with entities [Tiger Tooth (ID: 17743878/0x010EC006), Tiger Tooth (ID: 17743878/0x010EC006)], work=[136*, 0*]
 26: 0x00A5 [0x4E] SET_ENTITY_HIDE_FLAG: Show Nicadio (ID: 17743875/0x010EC003)
 27: 0x00AB [0x4E] SET_ENTITY_HIDE_FLAG: Show Cornelia (ID: 17743876/0x010EC004)
 28: 0x00B1 [0x4E] SET_ENTITY_HIDE_FLAG: Show Tiger Tooth (ID: 17743878/0x010EC006)
 29: 0x00B7 [0x1C] WAIT(5* ticks)
 30: 0x00BA [0x1C] WAIT(80* ticks)
 31: 0x00BD [0x48] [System] [7236*]:
    → "Compared to San d'Oria, with its legendary orders of knights, or Windurst, with its ancient institutes of magic, Bastok is still but a newborn nation."
 32: 0x00C0 [0x23] WAIT_FOR_DIALOG_INTERACTION
 33: 0x00C1 [0x1C] WAIT(80* ticks)
 34: 0x00C4 [0x48] [System] [7237*]:
    → "But advanced technology and near limitless underground resources have allowed Bastok to rival the other two nations in power."
 35: 0x00C7 [0x23] WAIT_FOR_DIALOG_INTERACTION
 36: 0x00C8 [0x55] WAIT_LOAD_SCHEDULER: Wait for scheduler "s001" with entities [Tiger Tooth (ID: 17743878/0x010EC006), Tiger Tooth (ID: 17743878/0x010EC006)], work=136*
 37: 0x00D7 [0x1C] WAIT(1* ticks)
 38: 0x00DA [0x45] LOAD_SCHEDULED_TASK: Load scheduler "ovl1" with entities [LocalPlayer, LocalPlayer], work=[200*, 0*]
 39: 0x00EB [0x45] LOAD_SCHEDULED_TASK: Load scheduler "s002" with entities [Tiger Tooth (ID: 17743878/0x010EC006), Tiger Tooth (ID: 17743878/0x010EC006)], work=[136*, 0*]
 40: 0x00FC [0x1C] WAIT(5* ticks)
 41: 0x00FF [0x27] REQ_SET(priority=0x64, entity_id=Kurando (ID: 17743905/0x010EC021), tag_num=0x07)
 42: 0x0106 [0x27] REQ_SET(priority=0x64, entity_id=Ihsan (ID: 17743900/0x010EC01C), tag_num=0x03)
 43: 0x010D [0x27] REQ_SET(priority=0x64, entity_id=Trilok (ID: 17743889/0x010EC011), tag_num=0x03)
 44: 0x0114 [0x1C] WAIT(80* ticks)
 45: 0x0117 [0x48] [System] [7238*]:
    → "Innovative and adaptable Humes make up more than half the population of Bastok."
 46: 0x011A [0x23] WAIT_FOR_DIALOG_INTERACTION
 47: 0x011B [0x1C] WAIT(30* ticks)
 48: 0x011E [0x27] REQ_SET(priority=0x64, entity_id=Rin (ID: 17743919/0x010EC02F), tag_num=0x03)
 49: 0x0125 [0x27] REQ_SET(priority=0x64, entity_id=Tete (ID: 17743918/0x010EC02E), tag_num=0x04)
 50: 0x012C [0x48] [System] [7239*]:
    → "With their flair for industry, economy, and politics, they were the driving force behind Bastok's rapid growth. Even now, Humes hold key positions in those areas."
 51: 0x012F [0x23] WAIT_FOR_DIALOG_INTERACTION
 52: 0x0130 [0x55] WAIT_LOAD_SCHEDULER: Wait for scheduler "s002" with entities [Tiger Tooth (ID: 17743878/0x010EC006), Tiger Tooth (ID: 17743878/0x010EC006)], work=136*
 53: 0x013F [0x1C] WAIT(60* ticks)
 54: 0x0142 [0x45] LOAD_SCHEDULED_TASK: Load scheduler "ovl1" with entities [LocalPlayer, LocalPlayer], work=[200*, 0*]
 55: 0x0153 [0x45] LOAD_SCHEDULED_TASK: Load scheduler "s003" with entities [Tiger Tooth (ID: 17743878/0x010EC006), Tiger Tooth (ID: 17743878/0x010EC006)], work=[136*, 0*]
 56: 0x0164 [0x1C] WAIT(5* ticks)
 57: 0x0167 [0x27] REQ_SET(priority=0x64, entity_id=Gudav (ID: 17743915/0x010EC02B), tag_num=0x03)
 58: 0x016E [0x1C] WAIT(90* ticks)
 59: 0x0171 [0x27] REQ_SET(priority=0x64, entity_id=Dehlner (ID: 17743928/0x010EC038), tag_num=0x03)
 60: 0x0178 [0x27] REQ_SET(priority=0x64, entity_id=Lone Horn (ID: 17743922/0x010EC032), tag_num=0x03)
 61: 0x017F [0x48] [System] [7240*]:
    → "The Galka, a race of hulking humanoids, comprise a third of Bastok's population. Originally hailing from Zepwell, they came to this land over six hundred years ago."
 62: 0x0182 [0x23] WAIT_FOR_DIALOG_INTERACTION
 63: 0x0183 [0x1C] WAIT(30* ticks)
 64: 0x0186 [0x48] [System] [7241*]:
    → "Without their incomparable strength, the countless ore mines that drive Bastok's economy would never have been dug."
 65: 0x0189 [0x23] WAIT_FOR_DIALOG_INTERACTION
 66: 0x018A [0x55] WAIT_LOAD_SCHEDULER: Wait for scheduler "s003" with entities [Tiger Tooth (ID: 17743878/0x010EC006), Tiger Tooth (ID: 17743878/0x010EC006)], work=136*
 67: 0x0199 [0x1C] WAIT(1* ticks)
 68: 0x019C [0x45] LOAD_SCHEDULED_TASK: Load scheduler "ovl1" with entities [LocalPlayer, LocalPlayer], work=[200*, 0*]
 69: 0x01AD [0x45] LOAD_SCHEDULED_TASK: Load scheduler "s004" with entities [Tiger Tooth (ID: 17743878/0x010EC006), Tiger Tooth (ID: 17743878/0x010EC006)], work=[136*, 0*]
 70: 0x01BE [0x1C] WAIT(5* ticks)
 71: 0x01C1 [0x1C] WAIT(60* ticks)
 72: 0x01C4 [0x48] [System] [7242*]:
    → "Adventurers seeking fame and fortune flock to rising nations like Bastok. You are one of them."
 73: 0x01C7 [0x32] ExtData[1]->MainSpeed = 13* * 0.1
 74: 0x01CA [0x1F] MOVE_ENTITY: EventEntity moves to X=138.686*, Z=-6.699*, Y=8.499*
 75: 0x01D2 [0x1F] MOVE_ENTITY: Update entity position (mode=1)
 76: 0x01D4 [0x23] WAIT_FOR_DIALOG_INTERACTION
 77: 0x01D5 [0x1C] WAIT(30* ticks)
 78: 0x01D8 [0x48] [System] [7243*]:
    → "Your story begins here, amid the smoke and bustle of the industrial city of Bastok."
 79: 0x01DB [0x23] WAIT_FOR_DIALOG_INTERACTION
 80: 0x01DC [0x68] SHOW_HUD_ELEMENTS()
 81: 0x01DD [0x69] SET_SOUND_VOLUME: Unmute System
 82: 0x01E1 [0x27] REQ_SET(priority=0x0A, entity_id=Tiger Tooth (ID: 17743878/0x010EC006), tag_num=0x02)
 83: 0x01E8 [0x1C] WAIT(60* ticks)
 84: 0x01EB [0x55] WAIT_LOAD_SCHEDULER: Wait for scheduler "s004" with entities [Tiger Tooth (ID: 17743878/0x010EC006), Tiger Tooth (ID: 17743878/0x010EC006)], work=136*
 85: 0x01FA [0x7B] Cornelia (ID: 17743876/0x010EC004) stops talking
 86: 0x01FF [0x2B] Cornelia (ID: 17743876/0x010EC004) [7244*]:
    → "Why!? Why won't you let me go outside!?"
 87: 0x0206 [0x23] WAIT_FOR_DIALOG_INTERACTION
 88: 0x0207 [0x79] EventEntity looks at Cornelia (ID: 17743876/0x010EC004) (Basic look)
 89: 0x0211 [0x1C] WAIT(30* ticks)
 90: 0x0214 [0x45] LOAD_SCHEDULED_TASK: Load scheduler "s005" with entities [Tiger Tooth (ID: 17743878/0x010EC006), Tiger Tooth (ID: 17743878/0x010EC006)], work=[136*, 0*]
 91: 0x0225 [0x4A] Nicadio (ID: 17743875/0x010EC003) looks at Cornelia (ID: 17743876/0x010EC004)
 92: 0x022E [0x1C] WAIT(20* ticks)
 93: 0x0231 [0x66] LOAD_EXT_SCHEDULER_MAIN: Load scheduler "tlk0" with entities [Nicadio (ID: 17743875/0x010EC003), Nicadio (ID: 17743875/0x010EC003)], work=0*
 94: 0x0240 [0x2B] Nicadio (ID: 17743875/0x010EC003) [7245*]:
    → "As I've said, we have strict orders not to let you pass, Milady. It'll mean our heads if we let you go outside!"
 95: 0x0247 [0x23] WAIT_FOR_DIALOG_INTERACTION
 96: 0x0248 [0x5B] LOAD_EXT_SCHEDULER: Load scheduler "itl0" with entities [Cornelia (ID: 17743876/0x010EC004), Cornelia (ID: 17743876/0x010EC004)], work=146*
 97: 0x0257 [0x2B] Cornelia (ID: 17743876/0x010EC004) [7246*]:
    → "But why!?"
 98: 0x025E [0x23] WAIT_FOR_DIALOG_INTERACTION
 99: 0x025F [0x2B] Nicadio (ID: 17743875/0x010EC003) [7247*]:
    → "Well, uh..."
100: 0x0266 [0x23] WAIT_FOR_DIALOG_INTERACTION
101: 0x0267 [0x27] REQ_SET(priority=0x64, entity_id=Nicadio (ID: 17743875/0x010EC003), tag_num=0x05)
102: 0x026E [0x1C] WAIT(10* ticks)
103: 0x0271 [0x5B] LOAD_EXT_SCHEDULER: Load scheduler "itl1" with entities [Cornelia (ID: 17743876/0x010EC004), Cornelia (ID: 17743876/0x010EC004)], work=146*
104: 0x0280 [0x2A] GET_REQ_LEVEL(level=10, entity_id=Tiger Tooth (ID: 17743878/0x010EC006))
105: 0x0286 [0x5B] LOAD_EXT_SCHEDULER: Load scheduler "itl1" with entities [Cornelia (ID: 17743876/0x010EC004), Cornelia (ID: 17743876/0x010EC004)], work=146*
106: 0x0295 [0x66] LOAD_EXT_SCHEDULER_MAIN: Load scheduler "dis0" with entities [Tiger Tooth (ID: 17743878/0x010EC006), Tiger Tooth (ID: 17743878/0x010EC006)], work=60*
107: 0x02A4 [0x2B] Tiger Tooth (ID: 17743878/0x010EC006) [7248*]:
    → "You know as well as we do, Milady."
108: 0x02AB [0x23] WAIT_FOR_DIALOG_INTERACTION
109: 0x02AC [0x79] Cornelia (ID: 17743876/0x010EC004) looks at Tiger Tooth (ID: 17743878/0x010EC006) (Basic look)
110: 0x02B6 [0x2B] Cornelia (ID: 17743876/0x010EC004) [7249*]:
    → "Please, I'll only be gone a second! I have to help a friend!"
111: 0x02BD [0x23] WAIT_FOR_DIALOG_INTERACTION
112: 0x02BE [0x53] WAIT_SCHEDULER_TASK: Wait for scheduler "dis0" with entities [Tiger Tooth (ID: 17743878/0x010EC006), Tiger Tooth (ID: 17743878/0x010EC006)]
113: 0x02CB [0x66] LOAD_EXT_SCHEDULER_MAIN: Load scheduler "tlk0" with entities [Tiger Tooth (ID: 17743878/0x010EC006), Tiger Tooth (ID: 17743878/0x010EC006)], work=60*
114: 0x02DA [0x2B] Tiger Tooth (ID: 17743878/0x010EC006) [7250*]:
    → "Did this friend of yours ask you to risk your life? You know how dangerous it is outside."
115: 0x02E1 [0x23] WAIT_FOR_DIALOG_INTERACTION
116: 0x02E2 [0x27] REQ_SET(priority=0x0A, entity_id=Tiger Tooth (ID: 17743878/0x010EC006), tag_num=0x03)
117: 0x02E9 [0x7B] Cornelia (ID: 17743876/0x010EC004) stops talking
118: 0x02EE [0x5B] LOAD_EXT_SCHEDULER: Load scheduler "utu0" with entities [Cornelia (ID: 17743876/0x010EC004), Cornelia (ID: 17743876/0x010EC004)], work=148*
119: 0x02FD [0x2B] Cornelia (ID: 17743876/0x010EC004) [7251*]:
    → "Well, no, but..."
120: 0x0304 [0x23] WAIT_FOR_DIALOG_INTERACTION
121: 0x0305 [0x66] LOAD_EXT_SCHEDULER_MAIN: Load scheduler "kud0" with entities [Tiger Tooth (ID: 17743878/0x010EC006), Tiger Tooth (ID: 17743878/0x010EC006)], work=60*
122: 0x0314 [0x2B] Tiger Tooth (ID: 17743878/0x010EC006) [7252*]:
    → "That's what I thought. You should know better than to go meddling in other people's affairs, Milady."
123: 0x031B [0x23] WAIT_FOR_DIALOG_INTERACTION
124: 0x031C [0x5B] LOAD_EXT_SCHEDULER: Load scheduler "utu1" with entities [Cornelia (ID: 17743876/0x010EC004), Cornelia (ID: 17743876/0x010EC004)], work=148*
125: 0x032B [0x2B] Cornelia (ID: 17743876/0x010EC004) [7253*]:
    → "..."
126: 0x0332 [0x23] WAIT_FOR_DIALOG_INTERACTION
127: 0x0333 [0x53] WAIT_SCHEDULER_TASK: Wait for scheduler "thk1" with entities [Cornelia (ID: 17743876/0x010EC004), Cornelia (ID: 17743876/0x010EC004)]
128: 0x0340 [0x27] REQ_SET(priority=0x0A, entity_id=Cornelia (ID: 17743876/0x010EC004), tag_num=0x06)
129: 0x0347 [0x1C] WAIT(100* ticks)
130: 0x034A [0x79] Nicadio (ID: 17743875/0x010EC003) looks at Tiger Tooth (ID: 17743878/0x010EC006) (Basic look)
131: 0x0354 [0x37] UPDATE_EVENT_POSITION_AND_DIR: x=128.832*, z=-14.702*, y=8.499*, direction=213.0°*
132: 0x035D [0x1C] WAIT(5* ticks)
133: 0x0360 [0x2B] Nicadio (ID: 17743875/0x010EC003) [7254*]:
    → "Hey, what'd you go and upset her for? What if she tells the boss?"
134: 0x0367 [0x23] WAIT_FOR_DIALOG_INTERACTION
135: 0x0368 [0x45] LOAD_SCHEDULED_TASK: Load scheduler "s006" with entities [Tiger Tooth (ID: 17743878/0x010EC006), Tiger Tooth (ID: 17743878/0x010EC006)], work=[136*, 0*]
136: 0x0379 [0x1C] WAIT(80* ticks)
137: 0x037C [0x32] ExtData[1]->MainSpeed = 13* * 0.1
138: 0x037F [0x1F] MOVE_ENTITY: EventEntity moves to X=127.699*, Z=-12.857*, Y=8.499*
139: 0x0387 [0x1F] MOVE_ENTITY: Update entity position (mode=1)
140: 0x0389 [0x79] Nicadio (ID: 17743875/0x010EC003) looks at LocalPlayer (Basic look)
141: 0x0393 [0x1C] WAIT(120* ticks)
142: 0x0396 [0x2A] GET_REQ_LEVEL(level=10, entity_id=Cornelia (ID: 17743876/0x010EC004))
143: 0x039C [0x5B] LOAD_EXT_SCHEDULER: Load scheduler "utu1" with entities [Cornelia (ID: 17743876/0x010EC004), Cornelia (ID: 17743876/0x010EC004)], work=147*
144: 0x03AB [0x1C] WAIT(45* ticks)
145: 0x03AE [0x4A] Cornelia (ID: 17743876/0x010EC004) looks at LocalPlayer
146: 0x03B7 [0x2B] Cornelia (ID: 17743876/0x010EC004) [7255*]:
    → "Oh... Hi there. Were you there the whole time? Aren't I pitiful? Not even allowed out of the city gates by myself..."
147: 0x03BE [0x23] WAIT_FOR_DIALOG_INTERACTION
148: 0x03BF [0x5B] LOAD_EXT_SCHEDULER: Load scheduler "tla0" with entities [Cornelia (ID: 17743876/0x010EC004), Cornelia (ID: 17743876/0x010EC004)], work=145*
149: 0x03CE [0x2B] Cornelia (ID: 17743876/0x010EC004) [7256*]:
    → "I'm sorry, I didn't mean to gripe. You look like a fledgling adventurer. Is this your first time in Bastok?"
150: 0x03D5 [0x23] WAIT_FOR_DIALOG_INTERACTION
151: 0x03D6 [0x24] CREATE_DIALOG(message_id=7257*, default_option=0*, option_flags=0*)
    → "First time in Bastok? [Yes./No.]"
152: 0x03DD [0x25] WAIT_DIALOG_SELECT()
153: 0x03DE [0x02] IF !(Work_Zone[0] == 0*) GOTO 0x03F1
154: 0x03E6 [0x2B] Cornelia (ID: 17743876/0x010EC004) [7258*]:
    → "Welcome to Bastok, then. I'd show you around, but I'm a little busy right now..."
155: 0x03ED [0x23] WAIT_FOR_DIALOG_INTERACTION
156: 0x03EE [0x01] GOTO 0x0404
157: 0x03F1 [0x02] IF !(Work_Zone[0] == 1*) GOTO 0x0404
158: 0x03F9 [0x2B] Cornelia (ID: 17743876/0x010EC004) [7259*]:
    → "Really? I thought you were a newcomer, the way you dress and talk..."
159: 0x0400 [0x23] WAIT_FOR_DIALOG_INTERACTION
160: 0x0401 [0x01] GOTO 0x0404

SUBROUTINE_0404:
161: 0x0404 [0x6B] STOP_AND_IDLE: Cornelia (ID: 17743876/0x010EC004) stops current action and resets to idle (animation="idl0")
162: 0x040D [0x1C] WAIT(10* ticks)
163: 0x0410 [0x5B] LOAD_EXT_SCHEDULER: Load scheduler "wav0" with entities [Cornelia (ID: 17743876/0x010EC004), Cornelia (ID: 17743876/0x010EC004)], work=145*
164: 0x041F [0x2B] Cornelia (ID: 17743876/0x010EC004) [7260*]:
    → "Well, I've gotta go. I have to find a way to get outside these walls!"
165: 0x0426 [0x23] WAIT_FOR_DIALOG_INTERACTION
166: 0x0427 [0x53] WAIT_SCHEDULER_TASK: Wait for scheduler "wav0" with entities [Cornelia (ID: 17743876/0x010EC004), Cornelia (ID: 17743876/0x010EC004)]
167: 0x0434 [0x27] REQ_SET(priority=0x0A, entity_id=Cornelia (ID: 17743876/0x010EC004), tag_num=0x07)
168: 0x043B [0x79] Nicadio (ID: 17743875/0x010EC003) looks at Cornelia (ID: 17743876/0x010EC004) (Basic look)
169: 0x0445 [0x27] REQ_SET(priority=0x0A, entity_id=Nicadio (ID: 17743875/0x010EC003), tag_num=0x04)
170: 0x044C [0x1C] WAIT(100* ticks)
171: 0x044F [0x2B] Nicadio (ID: 17743875/0x010EC003) [7261*]:
    → "Phew... She's finally gone."
172: 0x0456 [0x23] WAIT_FOR_DIALOG_INTERACTION
173: 0x0457 [0x2A] GET_REQ_LEVEL(level=10, entity_id=Nicadio (ID: 17743875/0x010EC003))
174: 0x045D [0x79] EventEntity looks at Nicadio (ID: 17743875/0x010EC003) (Basic look)
175: 0x0467 [0x1C] WAIT(30* ticks)
176: 0x046A [0x4A] Nicadio (ID: 17743875/0x010EC003) looks at LocalPlayer
177: 0x0473 [0x2B] Nicadio (ID: 17743875/0x010EC003) [7262*]:
    → "Why won't we let her go outside, you ask? Oh, you'll find out soon enough."
178: 0x047A [0x23] WAIT_FOR_DIALOG_INTERACTION
179: 0x047B [0x66] LOAD_EXT_SCHEDULER_MAIN: Load scheduler "tlk0" with entities [Nicadio (ID: 17743875/0x010EC003), Nicadio (ID: 17743875/0x010EC003)], work=0*
180: 0x048A [0x2B] Nicadio (ID: 17743875/0x010EC003) [7263*]:
    → "So, you're new in Bastok, huh? What are you thinking of doing first?"
181: 0x0491 [0x23] WAIT_FOR_DIALOG_INTERACTION
182: 0x0492 [0x6B] STOP_AND_IDLE: Nicadio (ID: 17743875/0x010EC003) stops current action and resets to idle (animation="id10")
183: 0x049B [0x24] CREATE_DIALOG(message_id=7264*, default_option=0*, option_flags=0*)
    → "What do you want to do? [Fight monsters!/Go shopping./Find some work.]"
184: 0x04A2 [0x25] WAIT_DIALOG_SELECT()
185: 0x04A3 [0x02] IF !(Work_Zone[0] == 0*) GOTO 0x04D4
186: 0x04AB [0x66] LOAD_EXT_SCHEDULER_MAIN: Load scheduler "tlk0" with entities [Nicadio (ID: 17743875/0x010EC003), Nicadio (ID: 17743875/0x010EC003)], work=0*
187: 0x04BA [0x2B] Nicadio (ID: 17743875/0x010EC003) [7265*]:
    → "Hey, not so fast! It's dangerous out there! Well, if you really want to go outside, you can go back the way you came, through the gate. But don't come complaining to me if you get hurt."
188: 0x04C1 [0x23] WAIT_FOR_DIALOG_INTERACTION
189: 0x04C2 [0x27] REQ_SET(priority=0x0A, entity_id=Nicadio (ID: 17743875/0x010EC003), tag_num=0x05)
190: 0x04C9 [0x2B] Nicadio (ID: 17743875/0x010EC003) [7266*]:
    → "If you do go, one piece of advice: "check" your target before fighting it, and only fight creatures you're sure you can beat. Got that?"
191: 0x04D0 [0x23] WAIT_FOR_DIALOG_INTERACTION
192: 0x04D1 [0x01] GOTO 0x05FD
193: 0x04D4 [0x02] IF !(Work_Zone[0] == 1*) GOTO 0x0505
194: 0x04DC [0x66] LOAD_EXT_SCHEDULER_MAIN: Load scheduler "tlk0" with entities [Nicadio (ID: 17743875/0x010EC003), Nicadio (ID: 17743875/0x010EC003)], work=0*
195: 0x04EB [0x2B] Nicadio (ID: 17743875/0x010EC003) [7267*]:
    → "Well, there are a few street vendors around...but if you want better stuff, you should go to the Markets District."
196: 0x04F2 [0x23] WAIT_FOR_DIALOG_INTERACTION
197: 0x04F3 [0x27] REQ_SET(priority=0x0A, entity_id=Nicadio (ID: 17743875/0x010EC003), tag_num=0x05)
198: 0x04FA [0x2B] Nicadio (ID: 17743875/0x010EC003) [7268*]:
    → "The stores there have a pretty good selection, but you don't look like you can afford to buy much from them now."
199: 0x0501 [0x23] WAIT_FOR_DIALOG_INTERACTION
200: 0x0502 [0x01] GOTO 0x05FD
201: 0x0505 [0x02] IF !(Work_Zone[0] == 2*) GOTO 0x05FD
202: 0x050D [0x66] LOAD_EXT_SCHEDULER_MAIN: Load scheduler "tlk0" with entities [Nicadio (ID: 17743875/0x010EC003), Nicadio (ID: 17743875/0x010EC003)], work=0*
203: 0x051C [0x2B] Nicadio (ID: 17743875/0x010EC003) [7269*]:
    → "That's very vague. What kind of work are you looking for?"
204: 0x0523 [0x23] WAIT_FOR_DIALOG_INTERACTION
205: 0x0524 [0x27] REQ_SET(priority=0x0A, entity_id=Nicadio (ID: 17743875/0x010EC003), tag_num=0x05)
206: 0x052B [0x24] CREATE_DIALOG(message_id=7270*, default_option=0*, option_flags=0*)
    → "What do you want to do? [Serve Bastok./Help people./Get rich, quick.]"
207: 0x0532 [0x25] WAIT_DIALOG_SELECT()
208: 0x0533 [0x02] IF !(Work_Zone[0] == 0*) GOTO 0x0590
209: 0x053B [0x66] LOAD_EXT_SCHEDULER_MAIN: Load scheduler "tlk1" with entities [Nicadio (ID: 17743875/0x010EC003), Nicadio (ID: 17743875/0x010EC003)], work=0*
210: 0x054A [0x2B] Nicadio (ID: 17743875/0x010EC003) [7271*]:
    → "Ah, good! You've come to the right person. I'm the guard in charge of assigning missions--there's one of us at each gate. Since you seem so eager, I'll assign you one."
211: 0x0551 [0x23] WAIT_FOR_DIALOG_INTERACTION
212: 0x0552 [0x2B] Nicadio (ID: 17743875/0x010EC003) [7272*]:
    → "Don't worry, it's an easy one, even for a tenderfoot like you. All you have to do is collect a report from the overseer of the Zeruhn Mines."
213: 0x0559 [0x23] WAIT_FOR_DIALOG_INTERACTION
214: 0x055A [0x66] LOAD_EXT_SCHEDULER_MAIN: Load scheduler "tlk0" with entities [Nicadio (ID: 17743875/0x010EC003), Nicadio (ID: 17743875/0x010EC003)], work=0*
215: 0x0569 [0x2B] Nicadio (ID: 17743875/0x010EC003) [7273*]:
    → "Let me give you the directions: Cross the bridge southwest of here and go to the Bastok Markets. Once there, head south, and you'll be in the Mines District. The Zeruhn Mines are in the western section."
216: 0x0570 [0x23] WAIT_FOR_DIALOG_INTERACTION
217: 0x0571 [0x66] LOAD_EXT_SCHEDULER_MAIN: Load scheduler "ten0" with entities [Nicadio (ID: 17743875/0x010EC003), Nicadio (ID: 17743875/0x010EC003)], work=0*
218: 0x0580 [0x2B] Nicadio (ID: 17743875/0x010EC003) [7274*]:
    → "Did you get all that? If you get lost, just ask people along the way."
219: 0x0587 [0x23] WAIT_FOR_DIALOG_INTERACTION
220: 0x0588 [0x03] Work_Zone[1] = 1*
221: 0x058D [0x01] GOTO 0x05FA
222: 0x0590 [0x02] IF !(Work_Zone[0] == 1*) GOTO 0x05C9
223: 0x0598 [0x66] LOAD_EXT_SCHEDULER_MAIN: Load scheduler "tlk0" with entities [Nicadio (ID: 17743875/0x010EC003), Nicadio (ID: 17743875/0x010EC003)], work=0*
224: 0x05A7 [0x2B] Nicadio (ID: 17743875/0x010EC003) [7275*]:
    → "Ah, that's very commendable! There aren't enough people like you these days."
225: 0x05AE [0x23] WAIT_FOR_DIALOG_INTERACTION
226: 0x05AF [0x2B] Nicadio (ID: 17743875/0x010EC003) [7276*]:
    → "Why don't you start by helping that girl who was here earlier?"
227: 0x05B6 [0x23] WAIT_FOR_DIALOG_INTERACTION
228: 0x05B7 [0x27] REQ_SET(priority=0x0A, entity_id=Nicadio (ID: 17743875/0x010EC003), tag_num=0x05)
229: 0x05BE [0x2B] Nicadio (ID: 17743875/0x010EC003) [7277*]:
    → "She's been frequently seen going to the Tenshodo warehouse west of here. I hope she doesn't get into trouble with them."
230: 0x05C5 [0x23] WAIT_FOR_DIALOG_INTERACTION
231: 0x05C6 [0x01] GOTO 0x05FA
232: 0x05C9 [0x02] IF !(Work_Zone[0] == 2*) GOTO 0x05FA
233: 0x05D1 [0x66] LOAD_EXT_SCHEDULER_MAIN: Load scheduler "tlk0" with entities [Nicadio (ID: 17743875/0x010EC003), Nicadio (ID: 17743875/0x010EC003)], work=0*
234: 0x05E0 [0x2B] Nicadio (ID: 17743875/0x010EC003) [7278*]:
    → "Money, huh? You might want to try the Steaming Sheep Restaurant, a tavern that caters to all sorts. One of their patrons might know something useful."
235: 0x05E7 [0x23] WAIT_FOR_DIALOG_INTERACTION
236: 0x05E8 [0x27] REQ_SET(priority=0x0A, entity_id=Nicadio (ID: 17743875/0x010EC003), tag_num=0x05)
237: 0x05EF [0x2B] Nicadio (ID: 17743875/0x010EC003) [7279*]:
    → "The tavern's a little ways west of here. You can't miss it."
238: 0x05F6 [0x23] WAIT_FOR_DIALOG_INTERACTION
239: 0x05F7 [0x01] GOTO 0x05FA

SUBROUTINE_05FA:
240: 0x05FA [0x01] GOTO 0x05FD

SUBROUTINE_05FD:
241: 0x05FD [0x66] LOAD_EXT_SCHEDULER_MAIN: Load scheduler "pas0" with entities [Nicadio (ID: 17743875/0x010EC003), Nicadio (ID: 17743875/0x010EC003)], work=0*
242: 0x060C [0x03] Work_Zone[9] = 536*
243: 0x0611 [0x2B] Nicadio (ID: 17743875/0x010EC003) [7280*]:
    → "Oh, and take this $7. Bring it to Dulsie. You can find her in front of the drawbridge. She'll help you out."
244: 0x0618 [0x23] WAIT_FOR_DIALOG_INTERACTION
245: 0x0619 [0x2B] Nicadio (ID: 17743875/0x010EC003) [7281*]:
    → "The drawbridge is right over there. Here, on your map."
246: 0x0620 [0xC8] OPEN_MAP_WINDOW(zone=0x8055, submap=0x8007, flag=0x8001)
247: 0x0627 [0x8B] SET_EVENT_MARK: Add/update map marker on map 236* at (70.255*, -54.555*), index=0*, name=(no name)
248: 0x0630 [0x44] IF_ENTITY_VALID(Unknown NPC (ID: 27765/0x00006C75) valid ? continue : jump_to=0x6973)
249: 0x0635 [0x65] CALCULATE_3D_DISTANCE(result=ExtData[1]->WorkLocal[0], entity1=Unknown NPC (ID: 0/0x00000000), entity2=Unknown NPC (ID: 0/0x00000000))
250: 0x0640 [0x1C] WAIT(90* ticks)
251: 0x0643 [0x23] WAIT_FOR_DIALOG_INTERACTION
252: 0x0644 [0x2B] Nicadio (ID: 17743875/0x010EC003) [7282*]:
    → "And this is where Dulsie is. Open the "Map" from the main menu on the right if you want to check it again."
253: 0x064B [0x23] WAIT_FOR_DIALOG_INTERACTION
254: 0x064C [0x4E] SET_ENTITY_HIDE_FLAG: Show Dulsie (ID: 17743943/0x010EC047)
255: 0x0652 [0x8A] CLOSE_MAP()
256: 0x0653 [0x1C] WAIT(60* ticks)
257: 0x0656 [0x80] LOAD_WAIT(entity=Dulsie (ID: 17743943/0x010EC047))
258: 0x065B [0x45] LOAD_SCHEDULED_TASK: Load scheduler "s019" with entities [Tiger Tooth (ID: 17743878/0x010EC006), Tiger Tooth (ID: 17743878/0x010EC006)], work=[136*, 0*]
259: 0x066C [0x2B] Nicadio (ID: 17743875/0x010EC003) [7119*]:
    → "How? After opening "Map" from the main menu, select "Markers," and press the right arrow key."
260: 0x0673 [0x23] WAIT_FOR_DIALOG_INTERACTION
261: 0x0674 [0x52] END_LOAD_SCHEDULER: End scheduler "s019" with entities [Tiger Tooth (ID: 17743878/0x010EC006), Tiger Tooth (ID: 17743878/0x010EC006)], work=136*
262: 0x0683 [0x45] LOAD_SCHEDULED_TASK: Load scheduler "s023" with entities [Tiger Tooth (ID: 17743878/0x010EC006), Tiger Tooth (ID: 17743878/0x010EC006)], work=[136*, 0*]
263: 0x0694 [0x2B] Nicadio (ID: 17743875/0x010EC003) [7283*]:
    → "Remember, if you want to give an item to someone, use "Trade" from the main menu."
264: 0x069B [0x23] WAIT_FOR_DIALOG_INTERACTION
265: 0x069C [0x53] WAIT_SCHEDULER_TASK: Wait for scheduler "pas0" with entities [Nicadio (ID: 17743875/0x010EC003), Nicadio (ID: 17743875/0x010EC003)]
266: 0x06A9 [0x66] LOAD_EXT_SCHEDULER_MAIN: Load scheduler "tlk1" with entities [Nicadio (ID: 17743875/0x010EC003), Nicadio (ID: 17743875/0x010EC003)], work=0*
267: 0x06B8 [0x2B] Nicadio (ID: 17743875/0x010EC003) [7284*]:
    → "That's it. I guess I'll be seeing you around!"
268: 0x06BF [0x23] WAIT_FOR_DIALOG_INTERACTION
269: 0x06C0 [0x6B] STOP_AND_IDLE: Nicadio (ID: 17743875/0x010EC003) stops current action and resets to idle (animation="id10")
270: 0x06C9 [0x45] LOAD_SCHEDULED_TASK: Load scheduler "fdo2" with entities [EventEntity, EventEntity], work=[200*, 0*]
271: 0x06DA [0x1C] WAIT(120* ticks)
272: 0x06DD [0x46] CAMERA_CONTROL: Restore default settings
273: 0x06DF [0x78] ENABLE_GAME_TIMER_RESET_WEATHER()
274: 0x06E0 [0x1C] WAIT(120* ticks)
275: 0x06E3 [0x45] LOAD_SCHEDULED_TASK: Load scheduler "fdi2" with entities [EventEntity, EventEntity], work=[200*, 0*]
276: 0x06F4 [0x21] END_EVENT
277: 0x06F5 [0x00] END_REQSTACK()
```

### Event 2

#### Metadata

| Field        | Value     |
|--------------|-----------|
| Entrypoint   | 0x06F6    |
| Data Size    | 662 bytes |
| Instructions | 91        |

```
      00 01 02 03 04 05 06 07  08 09 0A 0B 0C 0D 0E 0F
      -- -- -- -- -- -- -- --  -- -- -- -- -- -- -- --
06F0:                   42 20  01 75 00 5C 80 75 01 03        B .u.\.u..
0700: 09 10 5D 80 03 08 10 46  80 46 01 45 11 80 F8 FF  ..]....F.F.E....
0710: FF 7F F8 FF FF 7F 66 64  6F 30 07 80 1C 15 80 38  ......fdo0.....8
0720: 5E 80 45 06 80 F8 FF FF  7F F8 FF FF 7F 73 30 33  ^.E..........s03
0730: 30 07 80 37 5F 80 60 80  61 80 62 80 1C 63 80 45  0..7_.`.a.b..c.E
0740: 11 80 F8 FF FF 7F F8 FF  FF 7F 66 64 69 31 07 80  ..........fdi1..
0750: 4A 08 C0 0E 01 F0 FF FF  7F 2B 08 C0 0E 01 64 80  J........+....d.
0760: 23 52 06 80 F8 FF FF 7F  F8 FF FF 7F 73 30 33 30  #R..........s030
0770: 45 06 80 F8 FF FF 7F F8  FF FF 7F 73 30 33 31 07  E..........s031.
0780: 80 27 0A 04 C0 0E 01 05  2B 04 C0 0E 01 65 80 23  .'......+....e.#
0790: 2A 0A 04 C0 0E 01 4A 08  C0 0E 01 04 C0 0E 01 2B  *.....J........+
07A0: 08 C0 0E 01 66 80 23 5B  35 80 04 C0 0E 01 04 C0  ....f.#[5.......
07B0: 0E 01 74 6C 63 30 2B 04  C0 0E 01 67 80 23 66 07  ..tlc0+....g.#f.
07C0: 80 08 C0 0E 01 08 C0 0E  01 74 6C 6B 30 2B 08 C0  .........tlk0+..
07D0: 0E 01 68 80 23 2B 08 C0  0E 01 69 80 23 6B 69 64  ..h.#+....i.#kid
07E0: 6C 30 08 C0 0E 01 5B 22  80 04 C0 0E 01 04 C0 0E  l0....["........
07F0: 01 69 6B 72 30 2B 04 C0  0E 01 6A 80 23 5B 22 80  .ikr0+....j.#[".
0800: 04 C0 0E 01 04 C0 0E 01  69 6B 72 31 52 06 80 F8  ........ikr1R...
0810: FF FF 7F F8 FF FF 7F 73  30 33 31 45 06 80 F8 FF  .......s031E....
0820: FF 7F F8 FF FF 7F 73 30  31 34 07 80 27 0A 04 C0  ......s014..'...
0830: 0E 01 09 02 02 10 01 80  00 4E 08 2B 04 C0 0E 01  .........N.+....
0840: 6B 80 23 2B 04 C0 0E 01  6C 80 23 01 56 08 2B 04  k.#+....l.#.V.+.
0850: C0 0E 01 6D 80 23 2A 0A  04 C0 0E 01 5B 22 80 04  ...m.#*.....["..
0860: C0 0E 01 04 C0 0E 01 74  6C 63 30 2B 04 C0 0E 01  .......tlc0+....
0870: 6E 80 23 5B 22 80 04 C0  0E 01 04 C0 0E 01 6B 6F  n.#[".........ko
0880: 75 30 24 6F 80 07 80 07  80 25 02 00 10 07 80 00  u0$o.....%......
0890: 05 09 5B 22 80 04 C0 0E  01 04 C0 0E 01 6B 6F 75  ..[".........kou
08A0: 31 1C 25 80 4B 04 C0 0E  01 70 80 79 00 04 C0 0E  1.%.K....p.y....
08B0: 01 08 C0 0E 01 2B 04 C0  0E 01 71 80 23 66 07 80  .....+....q.#f..
08C0: 08 C0 0E 01 08 C0 0E 01  74 6C 6B 30 2B 08 C0 0E  ........tlk0+...
08D0: 01 72 80 23 6B 69 64 6C  30 08 C0 0E 01 4A 04 C0  .r.#kidl0....J..
08E0: 0E 01 F0 FF FF 7F 5B 38  80 04 C0 0E 01 04 C0 0E  ......[8........
08F0: 01 77 61 76 30 2B 04 C0  0E 01 73 80 23 03 01 10  .wav0+....s.#...
0900: 07 80 01 45 09 02 00 10  01 80 00 45 09 02 01 00  ...E.......E....
0910: 07 80 00 26 09 2B 04 C0  0E 01 74 80 23 05 01 00  ...&.+....t.#...
0920: 01 82 08 01 42 09 5B 22  80 04 C0 0E 01 04 C0 0E  ....B.["........
0930: 01 6B 6F 75 31 2B 04 C0  0E 01 75 80 23 03 01 10  .kou1+....u.#...
0940: 01 80 01 45 09 79 00 F0  FF FF 7F 04 C0 0E 01 79  ...E.y.........y
0950: 00 08 C0 0E 01 04 C0 0E  01 27 0A 04 C0 0E 01 04  .........'......
0960: 1C 76 80 45 11 80 F8 FF  FF 7F F8 FF FF 7F 66 64  .v.E..........fd
0970: 6F 30 07 80 1C 15 80 46  00 45 11 80 F8 FF FF 7F  o0.....F.E......
0980: F8 FF FF 7F 66 64 69 31  07 80 21 00              ....fdi1..!.    
```

#### Opcodes

```
  0: 0x06F6 [0x42] SET_CLI_EVENT_CANCEL_DATA()
  1: 0x06F7 [0x20] SET_CLI_EVENT_UC_FLAG: Lock player control
  2: 0x06F9 [0x75] LOAD_ROOM(Load indoor room, room=317*)
  3: 0x06FD [0x75] LOAD_ROOM(No action)
  4: 0x06FF [0x03] Work_Zone[9] = 642*
  5: 0x0704 [0x03] Work_Zone[8] = 2*
  6: 0x0709 [0x46] CAMERA_CONTROL: Disable user control
  7: 0x070B [0x45] LOAD_SCHEDULED_TASK: Load scheduler "fdo0" with entities [EventEntity, EventEntity], work=[200*, 0*]
  8: 0x071C [0x1C] WAIT(30* ticks)
  9: 0x071F [0x38] SET_CLIENT_EVENT_MODE(mode=3*)
 10: 0x0722 [0x45] LOAD_SCHEDULED_TASK: Load scheduler "s030" with entities [EventEntity, EventEntity], work=[136*, 0*]
 11: 0x0733 [0x37] UPDATE_EVENT_POSITION_AND_DIR: x=-98.801*, z=30.859*, y=4.649*, direction=131.5°*
 12: 0x073C [0x1C] WAIT(15* ticks)
 13: 0x073F [0x45] LOAD_SCHEDULED_TASK: Load scheduler "fdi1" with entities [EventEntity, EventEntity], work=[200*, 0*]
 14: 0x0750 [0x4A] Talib (ID: 17743880/0x010EC008) looks at LocalPlayer
 15: 0x0759 [0x2B] Talib (ID: 17743880/0x010EC008) [7341*]:
    → "Hmm? What's a rookie like you doing in here?"
 16: 0x0760 [0x23] WAIT_FOR_DIALOG_INTERACTION
 17: 0x0761 [0x52] END_LOAD_SCHEDULER: End scheduler "s030" with entities [EventEntity, EventEntity], work=136*
 18: 0x0770 [0x45] LOAD_SCHEDULED_TASK: Load scheduler "s031" with entities [EventEntity, EventEntity], work=[136*, 0*]
 19: 0x0781 [0x27] REQ_SET(priority=0x0A, entity_id=Cornelia (ID: 17743876/0x010EC004), tag_num=0x05)
 20: 0x0788 [0x2B] Cornelia (ID: 17743876/0x010EC004) [7342*]:
    → "Hey!"
 21: 0x078F [0x23] WAIT_FOR_DIALOG_INTERACTION
 22: 0x0790 [0x2A] GET_REQ_LEVEL(level=10, entity_id=Cornelia (ID: 17743876/0x010EC004))
 23: 0x0796 [0x4A] Talib (ID: 17743880/0x010EC008) looks at Cornelia (ID: 17743876/0x010EC004)
 24: 0x079F [0x2B] Talib (ID: 17743880/0x010EC008) [7343*]:
    → "Oh, no. Not you again..."
 25: 0x07A6 [0x23] WAIT_FOR_DIALOG_INTERACTION
 26: 0x07A7 [0x5B] LOAD_EXT_SCHEDULER: Load scheduler "tlc0" with entities [Cornelia (ID: 17743876/0x010EC004), Cornelia (ID: 17743876/0x010EC004)], work=147*
 27: 0x07B6 [0x2B] Cornelia (ID: 17743876/0x010EC004) [7344*]:
    → "Parraggoh's already given you three out of the four you asked for! Why aren't you giving him his reward!?"
 28: 0x07BD [0x23] WAIT_FOR_DIALOG_INTERACTION
 29: 0x07BE [0x66] LOAD_EXT_SCHEDULER_MAIN: Load scheduler "tlk0" with entities [Talib (ID: 17743880/0x010EC008), Talib (ID: 17743880/0x010EC008)], work=0*
 30: 0x07CD [0x2B] Talib (ID: 17743880/0x010EC008) [7345*]:
    → "As I've said, business is business. Nothing personal."
 31: 0x07D4 [0x23] WAIT_FOR_DIALOG_INTERACTION
 32: 0x07D5 [0x2B] Talib (ID: 17743880/0x010EC008) [7346*]:
    → "There's only one of these, and I can't give it to him unless he brings me the four he promised me. If you want to help him, go and bring me the last one."
 33: 0x07DC [0x23] WAIT_FOR_DIALOG_INTERACTION
 34: 0x07DD [0x6B] STOP_AND_IDLE: Talib (ID: 17743880/0x010EC008) stops current action and resets to idle (animation="idl0")
 35: 0x07E6 [0x5B] LOAD_EXT_SCHEDULER: Load scheduler "ikr0" with entities [Cornelia (ID: 17743876/0x010EC004), Cornelia (ID: 17743876/0x010EC004)], work=146*
 36: 0x07F5 [0x2B] Cornelia (ID: 17743876/0x010EC004) [7347*]:
    → "I told you I can't!"
 37: 0x07FC [0x23] WAIT_FOR_DIALOG_INTERACTION
 38: 0x07FD [0x5B] LOAD_EXT_SCHEDULER: Load scheduler "ikr1" with entities [Cornelia (ID: 17743876/0x010EC004), Cornelia (ID: 17743876/0x010EC004)], work=146*
 39: 0x080C [0x52] END_LOAD_SCHEDULER: End scheduler "s031" with entities [EventEntity, EventEntity], work=136*
 40: 0x081B [0x45] LOAD_SCHEDULED_TASK: Load scheduler "s014" with entities [EventEntity, EventEntity], work=[136*, 0*]
 41: 0x082C [0x27] REQ_SET(priority=0x0A, entity_id=Cornelia (ID: 17743876/0x010EC004), tag_num=0x09)
 42: 0x0833 [0x02] IF !(Work_Zone[2] == 1*) GOTO 0x084E
 43: 0x083B [0x2B] Cornelia (ID: 17743876/0x010EC004) [7348*]:
    → "Hey, haven't I seen you somewhere..."
 44: 0x0842 [0x23] WAIT_FOR_DIALOG_INTERACTION
 45: 0x0843 [0x2B] Cornelia (ID: 17743876/0x010EC004) [7349*]:
    → "I remember now, you're the adventurer! Can I ask you a favor?"
 46: 0x084A [0x23] WAIT_FOR_DIALOG_INTERACTION
 47: 0x084B [0x01] GOTO 0x0856
 48: 0x084E [0x2B] Cornelia (ID: 17743876/0x010EC004) [7350*]:
    → "Hey, you look like...you're an adventurer, right? Can I ask you a favor?"
 49: 0x0855 [0x23] WAIT_FOR_DIALOG_INTERACTION

SUBROUTINE_0856:
 50: 0x0856 [0x2A] GET_REQ_LEVEL(level=10, entity_id=Cornelia (ID: 17743876/0x010EC004))
 51: 0x085C [0x5B] LOAD_EXT_SCHEDULER: Load scheduler "tlc0" with entities [Cornelia (ID: 17743876/0x010EC004), Cornelia (ID: 17743876/0x010EC004)], work=146*
 52: 0x086B [0x2B] Cornelia (ID: 17743876/0x010EC004) [7351*]:
    → "Can you go get me $7? I've heard that monsters in Gustaberg drop them."
 53: 0x0872 [0x23] WAIT_FOR_DIALOG_INTERACTION
 54: 0x0873 [0x5B] LOAD_EXT_SCHEDULER: Load scheduler "kou0" with entities [Cornelia (ID: 17743876/0x010EC004), Cornelia (ID: 17743876/0x010EC004)], work=146*

SUBROUTINE_0882:
 55: 0x0882 [0x24] CREATE_DIALOG(message_id=7352*, default_option=0*, option_flags=0*)
    → "Go find $7 for her? [Yes./No.]"
 56: 0x0889 [0x25] WAIT_DIALOG_SELECT()
 57: 0x088A [0x02] IF !(Work_Zone[0] == 0*) GOTO 0x0905
 58: 0x0892 [0x5B] LOAD_EXT_SCHEDULER: Load scheduler "kou1" with entities [Cornelia (ID: 17743876/0x010EC004), Cornelia (ID: 17743876/0x010EC004)], work=146*
 59: 0x08A1 [0x1C] WAIT(10* ticks)
 60: 0x08A4 [0x4B] UPDATE_ENTITY_YAW(entity=Cornelia (ID: 17743876/0x010EC004), yaw=2.8°*)
 61: 0x08AB [0x79] Cornelia (ID: 17743876/0x010EC004) looks at Talib (ID: 17743880/0x010EC008) (Basic look)
 62: 0x08B5 [0x2B] Cornelia (ID: 17743876/0x010EC004) [7353*]:
    → "Thanks! Talib, this person will bring you the last one, okay?"
 63: 0x08BC [0x23] WAIT_FOR_DIALOG_INTERACTION
 64: 0x08BD [0x66] LOAD_EXT_SCHEDULER_MAIN: Load scheduler "tlk0" with entities [Talib (ID: 17743880/0x010EC008), Talib (ID: 17743880/0x010EC008)], work=0*
 65: 0x08CC [0x2B] Talib (ID: 17743880/0x010EC008) [7354*]:
    → "All right, that's fine by me. I don't know why anyone would bother helping a Galka, but...it's your life."
 66: 0x08D3 [0x23] WAIT_FOR_DIALOG_INTERACTION
 67: 0x08D4 [0x6B] STOP_AND_IDLE: Talib (ID: 17743880/0x010EC008) stops current action and resets to idle (animation="idl0")
 68: 0x08DD [0x4A] Cornelia (ID: 17743876/0x010EC004) looks at LocalPlayer
 69: 0x08E6 [0x5B] LOAD_EXT_SCHEDULER: Load scheduler "wav0" with entities [Cornelia (ID: 17743876/0x010EC004), Cornelia (ID: 17743876/0x010EC004)], work=145*
 70: 0x08F5 [0x2B] Cornelia (ID: 17743876/0x010EC004) [7355*]:
    → "Thanks! I'll see you!"
 71: 0x08FC [0x23] WAIT_FOR_DIALOG_INTERACTION
 72: 0x08FD [0x03] Work_Zone[1] = 0*
 73: 0x0902 [0x01] GOTO 0x0945
 74: 0x0905 [0x02] IF !(Work_Zone[0] == 1*) GOTO 0x0945
 75: 0x090D [0x02] IF !(ExtData[1]->WorkLocal[1] == 0*) GOTO 0x0926
 76: 0x0915 [0x2B] Cornelia (ID: 17743876/0x010EC004) [7356*]:
    → "Oh, come on! Please?"
 77: 0x091C [0x23] WAIT_FOR_DIALOG_INTERACTION
 78: 0x091D [0x05] ExtData[1]->WorkLocal[1] = 1
 79: 0x0920 [0x01] GOTO 0x0882

SUBROUTINE_0942:
 80: 0x0942 [0x01] GOTO 0x0945

SUBROUTINE_0945:
 81: 0x0945 [0x79] LocalPlayer looks at Cornelia (ID: 17743876/0x010EC004) (Basic look)
 82: 0x094F [0x79] Talib (ID: 17743880/0x010EC008) looks at Cornelia (ID: 17743876/0x010EC004) (Basic look)
 83: 0x0959 [0x27] REQ_SET(priority=0x0A, entity_id=Cornelia (ID: 17743876/0x010EC004), tag_num=0x04)
 84: 0x0960 [0x1C] WAIT(150* ticks)
 85: 0x0963 [0x45] LOAD_SCHEDULED_TASK: Load scheduler "fdo0" with entities [EventEntity, EventEntity], work=[200*, 0*]
 86: 0x0974 [0x1C] WAIT(30* ticks)
 87: 0x0977 [0x46] CAMERA_CONTROL: Restore default settings
 88: 0x0979 [0x45] LOAD_SCHEDULED_TASK: Load scheduler "fdi1" with entities [EventEntity, EventEntity], work=[200*, 0*]
 89: 0x098A [0x21] END_EVENT
 90: 0x098B [0x00] END_REQSTACK()
```

#### Data or dead code:

```
# Dead code (unreachable instructions):
     0x0923 [0x01] GOTO 0x0942
```

### Event 65535.1

#### Metadata

| Field        | Value   |
|--------------|---------|
| Entrypoint   | 0x098C  |
| Data Size    | 8 bytes |
| Instructions | 2       |

```
      00 01 02 03 04 05 06 07  08 09 0A 0B 0C 0D 0E 0F
      -- -- -- -- -- -- -- --  -- -- -- -- -- -- -- --
0980:                                      36 77 80 78              6w.x
0990: 80 79 80 00                                       .y..            
```

#### Opcodes

```
  0: 0x098C [0x36] SET_ENTITY_EVENT_POSITION(pos_x=154.161*, pos_z=-9.746*, pos_y=8.496*)
  1: 0x0993 [0x00] END_REQSTACK()
```

### Event 60

#### Metadata

| Field        | Value     |
|--------------|-----------|
| Entrypoint   | 0x0994    |
| Data Size    | 122 bytes |
| Instructions | 25        |

```
      00 01 02 03 04 05 06 07  08 09 0A 0B 0C 0D 0E 0F
      -- -- -- -- -- -- -- --  -- -- -- -- -- -- -- --
0990:             24 7A 80 07  80 07 80 25 02 00 10 07      $z.....%....
09A0: 80 00 AC 09 03 01 10 07  80 01 0C 0A 02 00 10 01  ................
09B0: 80 00 BC 09 03 01 10 01  80 01 0C 0A 02 00 10 46  ...............F
09C0: 80 00 CC 09 03 01 10 46  80 01 0C 0A 02 00 10 5E  .......F.......^
09D0: 80 00 DC 09 03 01 10 5E  80 01 0C 0A 02 00 10 7B  .......^.......{
09E0: 80 00 EC 09 03 01 10 7B  80 01 0C 0A 02 00 10 02  .......{........
09F0: 80 00 FC 09 03 01 10 02  80 01 0C 0A 02 00 10 7C  ...............|
0A00: 80 00 0C 0A 03 01 10 7C  80 01 0C 0A 21 00        .......|....!.  
```

#### Opcodes

```
  0: 0x0994 [0x24] CREATE_DIALOG(message_id=7231*, default_option=0*, option_flags=0*)
    → "Go where?(+List scrolls down) [Stay here./San d'Oria./Windurst./Ghelsba lift./Valley of hot springs./Ronfaure Forest.]"
  1: 0x099B [0x25] WAIT_DIALOG_SELECT()
  2: 0x099C [0x02] IF !(Work_Zone[0] == 0*) GOTO 0x09AC
  3: 0x09A4 [0x03] Work_Zone[1] = 0*
  4: 0x09A9 [0x01] GOTO 0x0A0C
  5: 0x09AC [0x02] IF !(Work_Zone[0] == 1*) GOTO 0x09BC
  6: 0x09B4 [0x03] Work_Zone[1] = 1*
  7: 0x09B9 [0x01] GOTO 0x0A0C
  8: 0x09BC [0x02] IF !(Work_Zone[0] == 2*) GOTO 0x09CC
  9: 0x09C4 [0x03] Work_Zone[1] = 2*
 10: 0x09C9 [0x01] GOTO 0x0A0C
 11: 0x09CC [0x02] IF !(Work_Zone[0] == 3*) GOTO 0x09DC
 12: 0x09D4 [0x03] Work_Zone[1] = 3*
 13: 0x09D9 [0x01] GOTO 0x0A0C
 14: 0x09DC [0x02] IF !(Work_Zone[0] == 4*) GOTO 0x09EC
 15: 0x09E4 [0x03] Work_Zone[1] = 4*
 16: 0x09E9 [0x01] GOTO 0x0A0C
 17: 0x09EC [0x02] IF !(Work_Zone[0] == 5*) GOTO 0x09FC
 18: 0x09F4 [0x03] Work_Zone[1] = 5*
 19: 0x09F9 [0x01] GOTO 0x0A0C
 20: 0x09FC [0x02] IF !(Work_Zone[0] == 6*) GOTO 0x0A0C
 21: 0x0A04 [0x03] Work_Zone[1] = 6*
 22: 0x0A09 [0x01] GOTO 0x0A0C

SUBROUTINE_0A0C:
 23: 0x0A0C [0x21] END_EVENT
 24: 0x0A0D [0x00] END_REQSTACK()
```

### Event 70

#### Metadata

| Field        | Value   |
|--------------|---------|
| Entrypoint   | 0x0A0E  |
| Data Size    | 1 bytes |
| Instructions | 1       |

```
      00 01 02 03 04 05 06 07  08 09 0A 0B 0C 0D 0E 0F
      -- -- -- -- -- -- -- --  -- -- -- -- -- -- -- --
0A00:                                            00                   . 
```

#### Opcodes

```
  0: 0x0A0E [0x00] END_REQSTACK()
```

### Event 71

#### Metadata

| Field        | Value    |
|--------------|----------|
| Entrypoint   | 0x0A0F   |
| Data Size    | 12 bytes |
| Instructions | 3        |

```
      00 01 02 03 04 05 06 07  08 09 0A 0B 0C 0D 0E 0F
      -- -- -- -- -- -- -- --  -- -- -- -- -- -- -- --
0A00:                                               22                 "
0A10: 01 37 7D 80 7E 80 7F 80  80 80 00                 .7}.~......     
```

#### Opcodes

```
  0: 0x0A0F [0x22] ENTITY_HIDE_FLAG(enabled=0x01)
  1: 0x0A11 [0x37] UPDATE_EVENT_POSITION_AND_DIR: x=-36.420*, z=-57.374*, y=7.363*, direction=260.5°*
  2: 0x0A1A [0x00] END_REQSTACK()
```

### Event 73

#### Metadata

| Field        | Value    |
|--------------|----------|
| Entrypoint   | 0x0A1B   |
| Data Size    | 83 bytes |
| Instructions | 12       |

```
      00 01 02 03 04 05 06 07  08 09 0A 0B 0C 0D 0E 0F
      -- -- -- -- -- -- -- --  -- -- -- -- -- -- -- --
0A10:                                   20 01 42 45 11              .BE.
0A20: 80 F0 FF FF 7F F0 FF FF  7F 66 64 69 32 07 80 46  .........fdi2..F
0A30: 01 45 06 80 F0 FF FF 7F  F0 FF FF 7F 73 73 63 62  .E..........sscb
0A40: 81 80 1C 82 80 45 11 80  F0 FF FF 7F F0 FF FF 7F  .....E..........
0A50: 66 64 6F 31 07 80 1C 17  80 45 11 80 F0 FF FF 7F  fdo1.....E......
0A60: F0 FF FF 7F 66 64 69 31  07 80 46 00 21 00        ....fdi1..F.!.  
```

#### Opcodes

```
  0: 0x0A1B [0x20] SET_CLI_EVENT_UC_FLAG: Lock player control
  1: 0x0A1D [0x42] SET_CLI_EVENT_CANCEL_DATA()
  2: 0x0A1E [0x45] LOAD_SCHEDULED_TASK: Load scheduler "fdi2" with entities [LocalPlayer, LocalPlayer], work=[200*, 0*]
  3: 0x0A2F [0x46] CAMERA_CONTROL: Disable user control
  4: 0x0A31 [0x45] LOAD_SCHEDULED_TASK: Load scheduler "sscb" with entities [LocalPlayer, LocalPlayer], work=[136*, 600*]
  5: 0x0A42 [0x1C] WAIT(540* ticks)
  6: 0x0A45 [0x45] LOAD_SCHEDULED_TASK: Load scheduler "fdo1" with entities [LocalPlayer, LocalPlayer], work=[200*, 0*]
  7: 0x0A56 [0x1C] WAIT(60* ticks)
  8: 0x0A59 [0x45] LOAD_SCHEDULED_TASK: Load scheduler "fdi1" with entities [LocalPlayer, LocalPlayer], work=[200*, 0*]
  9: 0x0A6A [0x46] CAMERA_CONTROL: Restore default settings
 10: 0x0A6C [0x21] END_EVENT
 11: 0x0A6D [0x00] END_REQSTACK()
```

### Event 72

#### Metadata

| Field        | Value    |
|--------------|----------|
| Entrypoint   | 0x0A6E   |
| Data Size    | 19 bytes |
| Instructions | 7        |

```
      00 01 02 03 04 05 06 07  08 09 0A 0B 0C 0D 0E 0F
      -- -- -- -- -- -- -- --  -- -- -- -- -- -- -- --
0A60:                                            20 01                 .
0A70: 42 47 00 7D 80 7E 80 7F  80 80 80 47 01 46 00 21  BG.}.~.....G.F.!
0A80: 00                                                .               
```

#### Opcodes

```
  0: 0x0A6E [0x20] SET_CLI_EVENT_UC_FLAG: Lock player control
  1: 0x0A70 [0x42] SET_CLI_EVENT_CANCEL_DATA()
  2: 0x0A71 [0x47] UPDATE_PLAYER_POS(-36.420*, -57.374*, 7.363*, yaw=260.5°*)
  3: 0x0A7B [0x47] WAIT_PLAYER_POS_UPDATE
  4: 0x0A7D [0x46] CAMERA_CONTROL: Restore default settings
  5: 0x0A7F [0x21] END_EVENT
  6: 0x0A80 [0x00] END_REQSTACK()
```

### Event 65535.2

#### Metadata

| Field        | Value     |
|--------------|-----------|
| Entrypoint   | 0x0A81    |
| Data Size    | 142 bytes |
| Instructions | 22        |

```
      00 01 02 03 04 05 06 07  08 09 0A 0B 0C 0D 0E 0F
      -- -- -- -- -- -- -- --  -- -- -- -- -- -- -- --
0A80:    3B F0 FF FF 7F 03 00  04 00 02 00 02 04 00 83   ;..............
0A90: 80 03 D0 0A 47 00 03 00  84 80 85 80 86 80 47 01  ....G.........G.
0AA0: 22 00 1C 87 80 45 11 80  19 C0 0E 01 19 C0 0E 01  "....E..........
0AB0: 66 64 6F 30 07 80 1C 15  80 45 06 80 F0 FF FF 7F  fdo0.....E......
0AC0: F0 FF FF 7F 73 30 31 73  07 80 39 86 80 01 09 0B  ....s01s..9.....
0AD0: 47 00 03 00 88 80 85 80  89 80 47 01 22 00 1C 87  G.........G."...
0AE0: 80 45 11 80 19 C0 0E 01  19 C0 0E 01 66 64 6F 30  .E..........fdo0
0AF0: 07 80 1C 15 80 45 06 80  F0 FF FF 7F F0 FF FF 7F  .....E..........
0B00: 73 30 31 6E 07 80 39 89  80 1C 15 80 46 00 00     s01n..9.....F.. 
```

#### Opcodes

```
  0: 0x0A81 [0x3B] GET_ENTITY_POSITION(entity=LocalPlayer, x_destination=ExtData[1]->WorkLocal[3], y_destination=ExtData[1]->WorkLocal[4], z_destination=ExtData[1]->WorkLocal[2])
  1: 0x0A8C [0x02] IF !(ExtData[1]->WorkLocal[4] >= 4294847296*) GOTO 0x0AD0
  2: 0x0A94 [0x47] UPDATE_PLAYER_POS(ExtData[1]->WorkLocal[3], -162.000*, 5.499*, yaw=90.0°*)
  3: 0x0A9E [0x47] WAIT_PLAYER_POS_UPDATE
  4: 0x0AA0 [0x22] ENTITY_HIDE_FLAG(enabled=0x00)
  5: 0x0AA2 [0x1C] WAIT(210* ticks)
  6: 0x0AA5 [0x45] LOAD_SCHEDULED_TASK: Load scheduler "fdo0" with entities [Latifah (ID: 17743897/0x010EC019), Latifah (ID: 17743897/0x010EC019)], work=[200*, 0*]
  7: 0x0AB6 [0x1C] WAIT(30* ticks)
  8: 0x0AB9 [0x45] LOAD_SCHEDULED_TASK: Load scheduler "s01s" with entities [LocalPlayer, LocalPlayer], work=[136*, 0*]
  9: 0x0ACA [0x39] SET_ENTITY_DIRECTION(direction=5.6°*)
 10: 0x0ACD [0x01] GOTO 0x0B09
 11: 0x0AD0 [0x47] UPDATE_PLAYER_POS(ExtData[1]->WorkLocal[3], -78.000*, 5.499*, yaw=270.0°*)
 12: 0x0ADA [0x47] WAIT_PLAYER_POS_UPDATE
 13: 0x0ADC [0x22] ENTITY_HIDE_FLAG(enabled=0x00)
 14: 0x0ADE [0x1C] WAIT(210* ticks)
 15: 0x0AE1 [0x45] LOAD_SCHEDULED_TASK: Load scheduler "fdo0" with entities [Latifah (ID: 17743897/0x010EC019), Latifah (ID: 17743897/0x010EC019)], work=[200*, 0*]
 16: 0x0AF2 [0x1C] WAIT(30* ticks)
 17: 0x0AF5 [0x45] LOAD_SCHEDULED_TASK: Load scheduler "s01n" with entities [LocalPlayer, LocalPlayer], work=[136*, 0*]
 18: 0x0B06 [0x39] SET_ENTITY_DIRECTION(direction=16.9°*)

SUBROUTINE_0B09:
 19: 0x0B09 [0x1C] WAIT(30* ticks)
 20: 0x0B0C [0x46] CAMERA_CONTROL: Restore default settings
 21: 0x0B0E [0x00] END_REQSTACK()
```

### Event 65535.3

#### Metadata

| Field        | Value    |
|--------------|----------|
| Entrypoint   | 0x0B0F   |
| Data Size    | 53 bytes |
| Instructions | 10       |

```
      00 01 02 03 04 05 06 07  08 09 0A 0B 0C 0D 0E 0F
      -- -- -- -- -- -- -- --  -- -- -- -- -- -- -- --
0B00:                                               3B                 ;
0B10: F0 FF FF 7F 03 00 04 00  02 00 02 04 00 83 80 03  ................
0B20: 34 0B 08 04 00 8A 80 1F  00 03 00 04 00 85 80 1F  4...............
0B30: 01 01 43 0B 07 04 00 8A  80 1F 00 03 00 04 00 85  ..C.............
0B40: 80 1F 01 00                                       ....            
```

#### Opcodes

```
  0: 0x0B0F [0x3B] GET_ENTITY_POSITION(entity=LocalPlayer, x_destination=ExtData[1]->WorkLocal[3], y_destination=ExtData[1]->WorkLocal[4], z_destination=ExtData[1]->WorkLocal[2])
  1: 0x0B1A [0x02] IF !(ExtData[1]->WorkLocal[4] >= 4294847296*) GOTO 0x0B34
  2: 0x0B22 [0x08] ExtData[1]->WorkLocal[4] -= 2000*
  3: 0x0B27 [0x1F] MOVE_ENTITY: EventEntity moves to X=ExtData[1]->WorkLocal[3], Z=ExtData[1]->WorkLocal[4], Y=5.499*
  4: 0x0B2F [0x1F] MOVE_ENTITY: Update entity position (mode=1)
  5: 0x0B31 [0x01] GOTO 0x0B43
  6: 0x0B34 [0x07] ExtData[1]->WorkLocal[4] += 2000*
  7: 0x0B39 [0x1F] MOVE_ENTITY: EventEntity moves to X=ExtData[1]->WorkLocal[3], Z=ExtData[1]->WorkLocal[4], Y=5.499*
  8: 0x0B41 [0x1F] MOVE_ENTITY: Update entity position (mode=1)

SUBROUTINE_0B43:
  9: 0x0B43 [0x00] END_REQSTACK()
```

### Event 83

#### Metadata

| Field        | Value    |
|--------------|----------|
| Entrypoint   | 0x0B44   |
| Data Size    | 72 bytes |
| Instructions | 14       |

```
      00 01 02 03 04 05 06 07  08 09 0A 0B 0C 0D 0E 0F
      -- -- -- -- -- -- -- --  -- -- -- -- -- -- -- --
0B40:             03 09 10 8B  80 4A 36 C0 0E 01 37 C0      .....J6...7.
0B50: 0E 01 2B 36 C0 0E 01 8C  80 23 4A 37 C0 0E 01 36  ..+6.....#J7...6
0B60: C0 0E 01 2B 37 C0 0E 01  8D 80 23 66 8E 80 37 C0  ...+7.....#f..7.
0B70: 0E 01 37 C0 0E 01 74 6C  6B 30 2B 37 C0 0E 01 8F  ..7...tlk0+7....
0B80: 80 23 2B 37 C0 0E 01 90  80 23 21 00              .#+7.....#!.    
```

#### Opcodes

```
  0: 0x0B44 [0x03] Work_Zone[9] = 17397*
  1: 0x0B49 [0x4A] Mine Konte (ID: 17743926/0x010EC036) looks at Panana (ID: 17743927/0x010EC037)
  2: 0x0B52 [0x2B] Mine Konte (ID: 17743926/0x010EC036) [7495*]:
    → "It's your fault, Panana! I knew I shouldn't have let you talk me into going to Beadeaux! Now I've got these itchy bugs all over me!"
  3: 0x0B59 [0x23] WAIT_FOR_DIALOG_INTERACTION
  4: 0x0B5A [0x4A] Panana (ID: 17743927/0x010EC037) looks at Mine Konte (ID: 17743926/0x010EC036)
  5: 0x0B63 [0x2B] Panana (ID: 17743927/0x010EC037) [7496*]:
    → "That's not my fault! I did warn you about looking for treasure-pleasure inside Quadav shells!"
  6: 0x0B6A [0x23] WAIT_FOR_DIALOG_INTERACTION
  7: 0x0B6B [0x66] LOAD_EXT_SCHEDULER_MAIN: Load scheduler "tlk0" with entities [Panana (ID: 17743927/0x010EC037), Panana (ID: 17743927/0x010EC037)], work=40*
  8: 0x0B7A [0x2B] Panana (ID: 17743927/0x010EC037) [7497*]:
    → "Everyone knows they're full of $7! You have to be careful when you touch them!"
  9: 0x0B81 [0x23] WAIT_FOR_DIALOG_INTERACTION
 10: 0x0B82 [0x2B] Panana (ID: 17743927/0x010EC037) [7498*]:
    → "Don't you know the saying, "putting $7 in a Quadav shell"? It means, "stirring up trouble!""
 11: 0x0B89 [0x23] WAIT_FOR_DIALOG_INTERACTION
 12: 0x0B8A [0x21] END_EVENT
 13: 0x0B8B [0x00] END_REQSTACK()
```

### Event 52

#### Metadata

| Field        | Value   |
|--------------|---------|
| Entrypoint   | 0x0B8C  |
| Data Size    | 1 bytes |
| Instructions | 1       |

```
      00 01 02 03 04 05 06 07  08 09 0A 0B 0C 0D 0E 0F
      -- -- -- -- -- -- -- --  -- -- -- -- -- -- -- --
0B80:                                      00                       .   
```

#### Opcodes

```
  0: 0x0B8C [0x00] END_REQSTACK()
```

### Event 65535.4

#### Metadata

| Field        | Value    |
|--------------|----------|
| Entrypoint   | 0x0B8D   |
| Data Size    | 10 bytes |
| Instructions | 2        |

```
      00 01 02 03 04 05 06 07  08 09 0A 0B 0C 0D 0E 0F
      -- -- -- -- -- -- -- --  -- -- -- -- -- -- -- --
0B80:                                         37 91 80               7..
0B90: 92 80 93 80 94 80 00                              .......         
```

#### Opcodes

```
  0: 0x0B8D [0x37] UPDATE_EVENT_POSITION_AND_DIR: x=-82.899*, z=-17.905*, y=1.907*, direction=149.3°*
  1: 0x0B96 [0x00] END_REQSTACK()
```

### Event 57

#### Metadata

| Field        | Value   |
|--------------|---------|
| Entrypoint   | 0x0B97  |
| Data Size    | 1 bytes |
| Instructions | 1       |

```
      00 01 02 03 04 05 06 07  08 09 0A 0B 0C 0D 0E 0F
      -- -- -- -- -- -- -- --  -- -- -- -- -- -- -- --
0B90:                      00                                  .        
```

#### Opcodes

```
  0: 0x0B97 [0x00] END_REQSTACK()
```

### Event 65535.5

#### Metadata

| Field        | Value    |
|--------------|----------|
| Entrypoint   | 0x0B98   |
| Data Size    | 10 bytes |
| Instructions | 2        |

```
      00 01 02 03 04 05 06 07  08 09 0A 0B 0C 0D 0E 0F
      -- -- -- -- -- -- -- --  -- -- -- -- -- -- -- --
0B90:                          37 95 80 96 80 97 80 98          7.......
0BA0: 80 00                                             ..              
```

#### Opcodes

```
  0: 0x0B98 [0x37] UPDATE_EVENT_POSITION_AND_DIR: x=-187.747*, z=-56.243*, y=1.999*, direction=34.9°*
  1: 0x0BA1 [0x00] END_REQSTACK()
```

### Event 65535.6

#### Metadata

| Field        | Value    |
|--------------|----------|
| Entrypoint   | 0x0BA2   |
| Data Size    | 10 bytes |
| Instructions | 2        |

```
      00 01 02 03 04 05 06 07  08 09 0A 0B 0C 0D 0E 0F
      -- -- -- -- -- -- -- --  -- -- -- -- -- -- -- --
0BA0:       37 99 80 9A 80 9B  80 9C 80 00                7.........    
```

#### Opcodes

```
  0: 0x0BA2 [0x37] UPDATE_EVENT_POSITION_AND_DIR: x=-161.059*, z=10.198*, y=-7.480*, direction=229.8°*
  1: 0x0BAB [0x00] END_REQSTACK()
```

### Event 65535.7

#### Metadata

| Field        | Value    |
|--------------|----------|
| Entrypoint   | 0x0BAC   |
| Data Size    | 78 bytes |
| Instructions | 16       |

```
      00 01 02 03 04 05 06 07  08 09 0A 0B 0C 0D 0E 0F
      -- -- -- -- -- -- -- --  -- -- -- -- -- -- -- --
0BA0:                                      32 9D 80 37              2..7
0BB0: 9E 80 9F 80 A0 80 A1 80  1F 00 A2 80 A3 80 A4 80  ................
0BC0: 1F 01 1F 00 A5 80 A6 80  A7 80 1F 01 1F 00 A8 80  ................
0BD0: A9 80 AA 80 1F 01 1F 00  AB 80 AC 80 AD 80 1F 01  ................
0BE0: 1F 00 AE 80 AF 80 AD 80  1F 01 1F 00 B0 80 B1 80  ................
0BF0: AD 80 1F 01 1E 40 C0 0E  01 00                    .....@....      
```

#### Opcodes

```
  0: 0x0BAC [0x32] ExtData[1]->MainSpeed = 12* * 0.1
  1: 0x0BAF [0x37] UPDATE_EVENT_POSITION_AND_DIR: x=-163.093*, z=11.624*, y=-8.082*, direction=228.2°*
  2: 0x0BB8 [0x1F] MOVE_ENTITY: EventEntity moves to X=-163.535*, Z=14.874*, Y=-9.281*
  3: 0x0BC0 [0x1F] MOVE_ENTITY: Update entity position (mode=1)
  4: 0x0BC2 [0x1F] MOVE_ENTITY: EventEntity moves to X=-162.146*, Z=16.030*, Y=-10.179*
  5: 0x0BCA [0x1F] MOVE_ENTITY: Update entity position (mode=1)
  6: 0x0BCC [0x1F] MOVE_ENTITY: EventEntity moves to X=-160.205*, Z=16.305*, Y=-10.480*
  7: 0x0BD4 [0x1F] MOVE_ENTITY: Update entity position (mode=1)
  8: 0x0BD6 [0x1F] MOVE_ENTITY: EventEntity moves to X=-158.855*, Z=15.416*, Y=-11.378*
  9: 0x0BDE [0x1F] MOVE_ENTITY: Update entity position (mode=1)
 10: 0x0BE0 [0x1F] MOVE_ENTITY: EventEntity moves to X=-156.853*, Z=15.952*, Y=-11.378*
 11: 0x0BE8 [0x1F] MOVE_ENTITY: Update entity position (mode=1)
 12: 0x0BEA [0x1F] MOVE_ENTITY: EventEntity moves to X=-157.113*, Z=17.578*, Y=-11.378*
 13: 0x0BF2 [0x1F] MOVE_ENTITY: Update entity position (mode=1)
 14: 0x0BF4 [0x1E] EventEntity looks at Hilda (ID: 17743936/0x010EC040) and starts talking
 15: 0x0BF9 [0x00] END_REQSTACK()
```

### Event 65534

#### Metadata

| Field        | Value   |
|--------------|---------|
| Entrypoint   | 0x0BFA  |
| Data Size    | 1 bytes |
| Instructions | 1       |

```
      00 01 02 03 04 05 06 07  08 09 0A 0B 0C 0D 0E 0F
      -- -- -- -- -- -- -- --  -- -- -- -- -- -- -- --
0BF0:                                00                           .     
```

#### Opcodes

```
  0: 0x0BFA [0x00] END_REQSTACK()
```

### Event 65535.8

#### Metadata

| Field        | Value    |
|--------------|----------|
| Entrypoint   | 0x0BFB   |
| Data Size    | 23 bytes |
| Instructions | 5        |

```
      00 01 02 03 04 05 06 07  08 09 0A 0B 0C 0D 0E 0F
      -- -- -- -- -- -- -- --  -- -- -- -- -- -- -- --
0BF0:                                   32 0D 80 37 B2             2..7.
0C00: 80 B3 80 B4 80 89 80 1F  00 B2 80 B5 80 93 80 1F  ................
0C10: 01 00                                             ..              
```

#### Opcodes

```
  0: 0x0BFB [0x32] ExtData[1]->MainSpeed = 13* * 0.1
  1: 0x0BFE [0x37] UPDATE_EVENT_POSITION_AND_DIR: x=-80.000*, z=-26.000*, y=1.896*, direction=270.0°*
  2: 0x0C07 [0x1F] MOVE_ENTITY: EventEntity moves to X=-80.000*, Z=-22.500*, Y=1.907*
  3: 0x0C0F [0x1F] MOVE_ENTITY: Update entity position (mode=1)
  4: 0x0C11 [0x00] END_REQSTACK()
```

### Event 65535.9

#### Metadata

| Field        | Value    |
|--------------|----------|
| Entrypoint   | 0x0C12   |
| Data Size    | 23 bytes |
| Instructions | 5        |

```
      00 01 02 03 04 05 06 07  08 09 0A 0B 0C 0D 0E 0F
      -- -- -- -- -- -- -- --  -- -- -- -- -- -- -- --
0C10:       32 0D 80 37 B6 80  B7 80 93 80 07 80 1F 00    2..7..........
0C20: B8 80 B7 80 B4 80 1F 01  00                       .........       
```

#### Opcodes

```
  0: 0x0C12 [0x32] ExtData[1]->MainSpeed = 13* * 0.1
  1: 0x0C15 [0x37] UPDATE_EVENT_POSITION_AND_DIR: x=-59.989*, z=-7.921*, y=1.907*, direction=0.0°*
  2: 0x0C1E [0x1F] MOVE_ENTITY: EventEntity moves to X=-57.754*, Z=-7.921*, Y=1.896*
  3: 0x0C26 [0x1F] MOVE_ENTITY: Update entity position (mode=1)
  4: 0x0C28 [0x00] END_REQSTACK()
```

### Event 65535.10

#### Metadata

| Field        | Value    |
|--------------|----------|
| Entrypoint   | 0x0C29   |
| Data Size    | 10 bytes |
| Instructions | 2        |
