# 17265245 - Rahal

## Common Data

| Field            | Value                           |
|------------------|---------------------------------|
| Zone             | Meriphataud Mountains (ID: 119) |
| Block Size       | 324 bytes                       |
| Total Events     | 10                              |
| References Count | 23                              |

## List of Events

| Event ID                 | Entrypoint   |   Size |   Instructions |
|--------------------------|--------------|--------|----------------|
| [65535](#event-65535)    | 0x0000       |      1 |              1 |
| [33](#event-33)          | 0x0001       |     10 |              2 |
| [65535.1](#event-655351) | 0x000B       |     33 |              6 |
| [65535.2](#event-655352) | 0x002C       |     14 |              4 |
| [65535.3](#event-655353) | 0x003A       |     14 |              4 |
| [65535.4](#event-655354) | 0x0048       |     10 |              2 |
| [65535.5](#event-655355) | 0x0052       |     25 |              6 |
| [65535.6](#event-655356) | 0x006B       |     16 |              2 |
| [65535.7](#event-655357) | 0x007B       |     34 |              4 |
| [65535.8](#event-655358) | 0x009D       |     17 |              4 |

## DAT References (imed_data)

|   Index | Hex Value   |   Dec Value |
|---------|-------------|-------------|
|       0 | 0x9ACF3     |      634099 |
|       1 | 0x0E1D      |        3613 |
|       2 | 0xFFFFBFB5  |  4294950837 |
|       3 | 0x0E0F      |        3599 |
|       4 | 0x0028      |          40 |
|       5 | 0x9BB96     |      637846 |
|       6 | 0x1641      |        5697 |
|       7 | 0xFFFFC1D4  |  4294951380 |
|       8 | 0x0014      |          20 |
|       9 | 0x9C504     |      640260 |
|      10 | 0x16A2      |        5794 |
|      11 | 0xFFFFC1D9  |  4294951385 |
|      12 | 0x000D      |          13 |
|      13 | 0x9CC29     |      642089 |
|      14 | 0x18D3      |        6355 |
|      15 | 0xFFFFC1DF  |  4294951391 |
|      16 | 0x0EA9      |        3753 |
|      17 | 0x9C7A9     |      640937 |
|      18 | 0x2331      |        9009 |
|      19 | 0xFFFFC249  |  4294951497 |
|      20 | 0x0018      |          24 |
|      21 | 0x00B7      |         183 |
|      22 | 0x005A      |          90 |

## Events

### Event 65535

#### Metadata

| Field        | Value   |
|--------------|---------|
| Entrypoint   | 0x0000  |
| Data Size    | 1 bytes |
| Instructions | 1       |

```
      00 01 02 03 04 05 06 07  08 09 0A 0B 0C 0D 0E 0F
      -- -- -- -- -- -- -- --  -- -- -- -- -- -- -- --
0000: 00                                                .               
```

#### Opcodes

```
  0: 0x0000 [0x00] END_REQSTACK()
```

### Event 33

#### Metadata

| Field        | Value    |
|--------------|----------|
| Entrypoint   | 0x0001   |
| Data Size    | 10 bytes |
| Instructions | 2        |

```
      00 01 02 03 04 05 06 07  08 09 0A 0B 0C 0D 0E 0F
      -- -- -- -- -- -- -- --  -- -- -- -- -- -- -- --
0000:    37 00 80 01 80 02 80  03 80 00                  7.........     
```

#### Opcodes

```
  0: 0x0001 [0x37] UPDATE_EVENT_POSITION_AND_DIR: x=634.099*, z=3.613*, y=-16.459*, direction=316.3°*
  1: 0x000A [0x00] END_REQSTACK()
```

### Event 65535.1

#### Metadata

| Field        | Value    |
|--------------|----------|
| Entrypoint   | 0x000B   |
| Data Size    | 33 bytes |
| Instructions | 6        |

```
      00 01 02 03 04 05 06 07  08 09 0A 0B 0C 0D 0E 0F
      -- -- -- -- -- -- -- --  -- -- -- -- -- -- -- --
0000:                                   32 04 80 79 00             2..y.
0010: 5D 72 07 01 5F 72 07 01  1F 00 05 80 06 80 07 80  ]r.._r..........
0020: 1F 01 4A F0 FF FF 7F 5D  72 07 01 00              ..J....]r...    
```

#### Opcodes

```
  0: 0x000B [0x32] ExtData[1]->MainSpeed = 40* * 0.1
  1: 0x000E [0x79] Rahal (ID: 17265245/0x0107725D) looks at Yachemidot (ID: 17265247/0x0107725F) (Basic look)
  2: 0x0018 [0x1F] MOVE_ENTITY: EventEntity moves to X=637.846*, Z=5.697*, Y=-15.916*
  3: 0x0020 [0x1F] MOVE_ENTITY: Update entity position (mode=1)
  4: 0x0022 [0x4A] LocalPlayer looks at Rahal (ID: 17265245/0x0107725D)
  5: 0x002B [0x00] END_REQSTACK()
```

### Event 65535.2

#### Metadata

| Field        | Value    |
|--------------|----------|
| Entrypoint   | 0x002C   |
| Data Size    | 14 bytes |
| Instructions | 4        |

```
      00 01 02 03 04 05 06 07  08 09 0A 0B 0C 0D 0E 0F
      -- -- -- -- -- -- -- --  -- -- -- -- -- -- -- --
0020:                                      1C 08 80 1F              ....
0030: 00 09 80 0A 80 0B 80 1F  01 00                    ..........      
```

#### Opcodes

```
  0: 0x002C [0x1C] WAIT(20* ticks)
  1: 0x002F [0x1F] MOVE_ENTITY: EventEntity moves to X=640.260*, Z=5.794*, Y=-15.911*
  2: 0x0037 [0x1F] MOVE_ENTITY: Update entity position (mode=1)
  3: 0x0039 [0x00] END_REQSTACK()
```

### Event 65535.3

#### Metadata

| Field        | Value    |
|--------------|----------|
| Entrypoint   | 0x003A   |
| Data Size    | 14 bytes |
| Instructions | 4        |

```
      00 01 02 03 04 05 06 07  08 09 0A 0B 0C 0D 0E 0F
      -- -- -- -- -- -- -- --  -- -- -- -- -- -- -- --
0030:                                32 0C 80 1F 00 0D            2.....
0040: 80 0E 80 0F 80 1F 01 00                           ........        
```

#### Opcodes

```
  0: 0x003A [0x32] ExtData[1]->MainSpeed = 13* * 0.1
  1: 0x003D [0x1F] MOVE_ENTITY: EventEntity moves to X=642.089*, Z=6.355*, Y=-15.905*
  2: 0x0045 [0x1F] MOVE_ENTITY: Update entity position (mode=1)
  3: 0x0047 [0x00] END_REQSTACK()
```

### Event 65535.4

#### Metadata

| Field        | Value    |
|--------------|----------|
| Entrypoint   | 0x0048   |
| Data Size    | 10 bytes |
| Instructions | 2        |

```
      00 01 02 03 04 05 06 07  08 09 0A 0B 0C 0D 0E 0F
      -- -- -- -- -- -- -- --  -- -- -- -- -- -- -- --
0040:                          37 0D 80 0E 80 0F 80 10          7.......
0050: 80 00                                             ..              
```

#### Opcodes

```
  0: 0x0048 [0x37] UPDATE_EVENT_POSITION_AND_DIR: x=642.089*, z=6.355*, y=-15.905*, direction=329.8°*
  1: 0x0051 [0x00] END_REQSTACK()
```

### Event 65535.5

#### Metadata

| Field        | Value    |
|--------------|----------|
| Entrypoint   | 0x0052   |
| Data Size    | 25 bytes |
| Instructions | 6        |

```
      00 01 02 03 04 05 06 07  08 09 0A 0B 0C 0D 0E 0F
      -- -- -- -- -- -- -- --  -- -- -- -- -- -- -- --
0050:       32 0C 80 1F 00 11  80 12 80 13 80 1F 01 6F    2............o
0060: 79 00 5D 72 07 01 60 72  07 01 00                 y.]r..`r...     
```

#### Opcodes

```
  0: 0x0052 [0x32] ExtData[1]->MainSpeed = 13* * 0.1
  1: 0x0055 [0x1F] MOVE_ENTITY: EventEntity moves to X=640.937*, Z=9.009*, Y=-15.799*
  2: 0x005D [0x1F] MOVE_ENTITY: Update entity position (mode=1)
  3: 0x005F [0x6F] WAIT_FRAME_DELAY: Yield until WaitTime reaches zero
  4: 0x0060 [0x79] Rahal (ID: 17265245/0x0107725D) looks at Unnamed NPC (ID: 17265248/0x01077260) (Basic look)
  5: 0x006A [0x00] END_REQSTACK()
```

### Event 65535.6

#### Metadata

| Field        | Value    |
|--------------|----------|
| Entrypoint   | 0x006B   |
| Data Size    | 16 bytes |
| Instructions | 2        |

```
      00 01 02 03 04 05 06 07  08 09 0A 0B 0C 0D 0E 0F
      -- -- -- -- -- -- -- --  -- -- -- -- -- -- -- --
0060:                                   66 14 80 F8 FF             f....
0070: FF 7F F8 FF FF 7F 31 72  64 79 00                 ......1rdy.     
```

#### Opcodes

```
  0: 0x006B [0x66] LOAD_EXT_SCHEDULER_MAIN: Load scheduler "1rdy" with entities [EventEntity, EventEntity], work=24*
  1: 0x007A [0x00] END_REQSTACK()
```

### Event 65535.7

#### Metadata

| Field        | Value    |
|--------------|----------|
| Entrypoint   | 0x007B   |
| Data Size    | 34 bytes |
| Instructions | 4        |

```
      00 01 02 03 04 05 06 07  08 09 0A 0B 0C 0D 0E 0F
      -- -- -- -- -- -- -- --  -- -- -- -- -- -- -- --
0070:                                   7B F8 FF FF 7F             {....
0080: 66 14 80 F8 FF FF 7F F8  FF FF 7F 31 72 74 6E 53  f..........1rtnS
0090: F8 FF FF 7F F8 FF FF 7F  31 72 74 6E 00           ........1rtn.   
```

#### Opcodes

```
  0: 0x007B [0x7B] EventEntity stops talking
  1: 0x0080 [0x66] LOAD_EXT_SCHEDULER_MAIN: Load scheduler "1rtn" with entities [EventEntity, EventEntity], work=24*
  2: 0x008F [0x53] WAIT_SCHEDULER_TASK: Wait for scheduler "1rtn" with entities [EventEntity, EventEntity]
  3: 0x009C [0x00] END_REQSTACK()
```

### Event 65535.8

#### Metadata

| Field        | Value    |
|--------------|----------|
| Entrypoint   | 0x009D   |
| Data Size    | 17 bytes |
| Instructions | 4        |

```
      00 01 02 03 04 05 06 07  08 09 0A 0B 0C 0D 0E 0F
      -- -- -- -- -- -- -- --  -- -- -- -- -- -- -- --
0090:                                         39 15 80               9..
00A0: 1C 16 80 79 00 5D 72 07  01 5E 72 07 01 00        ...y.]r..^r...  
```

#### Opcodes

```
  0: 0x009D [0x39] SET_ENTITY_DIRECTION(direction=1.0°*)
  1: 0x00A0 [0x1C] WAIT(90* ticks)
  2: 0x00A3 [0x79] Rahal (ID: 17265245/0x0107725D) looks at Cyranuce (ID: 17265246/0x0107725E) (Basic look)
  3: 0x00AD [0x00] END_REQSTACK()
```
