# 17265305

## Common Data

| Field            | Value                           |
|------------------|---------------------------------|
| Zone             | Meriphataud Mountains (ID: 119) |
| Block Size       | 660 bytes                       |
| Total Events     | 2                               |
| References Count | 22                              |

## List of Events

| Event ID              | Entrypoint   |   Size |   Instructions |
|-----------------------|--------------|--------|----------------|
| [65535](#event-65535) | 0x0000       |      1 |              1 |
| [56](#event-56)       | 0x0001       |    547 |             65 |

## DAT References (imed_data)

|   Index | Hex Value   |   Dec Value |
|---------|-------------|-------------|
|       0 | 0x00C8      |         200 |
|       1 | 0x0000      |           0 |
|       2 | 0x003C      |          60 |
|       3 | 0x0013      |          19 |
|       4 | 0x9C5B6     |      640438 |
|       5 | 0x1887      |        6279 |
|       6 | 0xFFFFC1F1  |  4294951409 |
|       7 | 0x0B9E      |        2974 |
|       8 | 0x0001      |           1 |
|       9 | 0x9BF84     |      638852 |
|      10 | 0x1C5E      |        7262 |
|      11 | 0xFFFFC222  |  4294951458 |
|      12 | 0x0240      |         576 |
|      13 | 0x0014      |          20 |
|      14 | 0x000A      |          10 |
|      15 | 0x06E2      |        1762 |
|      16 | 0x2063      |        8291 |
|      17 | 0x00B4      |         180 |
|      18 | 0x0028      |          40 |
|      19 | 0x0096      |         150 |
|      20 | 0x0078      |         120 |
|      21 | 0x0140      |         320 |

## String References

- **8291**: <Player> gently lays the $3 to rest in the earth...

## Events

### Event 65535

#### Metadata

| Field        | Value   |
|--------------|---------|
| Entrypoint   | 0x0000  |
| Data Size    | 1 bytes |
| Instructions | 1       |

```
      00 01 02 03 04 05 06 07  08 09 0A 0B 0C 0D 0E 0F
      -- -- -- -- -- -- -- --  -- -- -- -- -- -- -- --
0000: 00                                                .               
```

#### Opcodes

```
  0: 0x0000 [0x00] END_REQSTACK()
```

### Event 56

#### Metadata

| Field        | Value     |
|--------------|-----------|
| Entrypoint   | 0x0001    |
| Data Size    | 547 bytes |
| Instructions | 65        |

```
      00 01 02 03 04 05 06 07  08 09 0A 0B 0C 0D 0E 0F
      -- -- -- -- -- -- -- --  -- -- -- -- -- -- -- --
0000:    03 00 00 09 10 42 45  00 80 F0 FF FF 7F F0 FF   .....BE........
0010: FF 7F 66 64 6F 31 01 80  1C 02 80 46 01 38 03 80  ..fdo1.....F.8..
0020: 2F 00 5C 72 07 01 4E 00  5C 72 07 01 92 01 5C 72  /.\r..N.\r....\r
0030: 07 01 94 01 5C 72 07 01  94 01 F0 FF FF 7F 80 5C  ....\r.........\
0040: 72 07 01 80 F0 FF FF 7F  BA F0 FF FF 7F 04 80 05  r...............
0050: 80 06 80 07 80 02 00 00  08 80 00 8A 00 2F 00 9B  ............./..
0060: 72 07 01 4E 00 9B 72 07  01 92 01 9B 72 07 01 94  r..N..r.....r...
0070: 01 9B 72 07 01 80 9B 72  07 01 BA 9B 72 07 01 09  ..r....r....r...
0080: 80 0A 80 0B 80 07 80 01  9E 00 59 05 9B 72 07 01  ..........Y..r..
0090: 01 BA 9B 72 07 01 01 80  01 80 01 80 01 80 45 0C  ...r..........E.
00A0: 80 F8 FF FF 7F F8 FF FF  7F 79 30 30 30 01 80 45  .........y000..E
00B0: 00 80 F0 FF FF 7F F0 FF  FF 7F 66 64 69 31 01 80  ..........fdi1..
00C0: 27 10 F0 FF FF 7F 04 2A  10 F0 FF FF 7F 1C 0D 80  '......*........
00D0: 27 10 9B 72 07 01 02 52  0C 80 F8 FF FF 7F F8 FF  '..r...R........
00E0: FF 7F 79 30 30 30 45 0C  80 F8 FF FF 7F F8 FF FF  ..y000E.........
00F0: 7F 6F 76 34 30 01 80 45  0C 80 F8 FF FF 7F F8 FF  .ov40..E........
0100: FF 7F 79 30 30 31 01 80  1C 0E 80 28 10 F0 FF FF  ..y001.....(....
0110: 7F 05 1C 02 80 03 02 10  0F 80 48 10 80 1C 11 80  ..........H.....
0120: 52 0C 80 F8 FF FF 7F F8  FF FF 7F 79 30 30 31 45  R..........y001E
0130: 0C 80 F8 FF FF 7F F8 FF  FF 7F 79 30 30 32 01 80  ..........y002..
0140: 1C 12 80 27 10 5C 72 07  01 02 1C 13 80 02 00 00  ...'.\r.........
0150: 08 80 00 AC 01 52 0C 80  F8 FF FF 7F F8 FF FF 7F  .....R..........
0160: 79 30 30 32 45 0C 80 F8  FF FF 7F F8 FF FF 7F 79  y002E..........y
0170: 30 30 33 01 80 1C 14 80  52 0C 80 F8 FF FF 7F F8  003.....R.......
0180: FF FF 7F 79 30 30 33 45  0C 80 F8 FF FF 7F F8 FF  ...y003E........
0190: FF 7F 6F 76 33 30 01 80  45 0C 80 F8 FF FF 7F F8  ..ov30..E.......
01A0: FF FF 7F 79 30 30 34 01  80 01 DD 01 52 0C 80 F8  ...y004.....R...
01B0: FF FF 7F F8 FF FF 7F 79  30 30 32 45 0C 80 F8 FF  .......y002E....
01C0: FF 7F F8 FF FF 7F 6F 76  33 30 01 80 45 0C 80 F8  ......ov30..E...
01D0: FF FF 7F F8 FF FF 7F 79  30 30 34 01 80 1C 15 80  .......y004.....
01E0: 45 00 80 F0 FF FF 7F F0  FF FF 7F 66 64 6F 31 01  E..........fdo1.
01F0: 80 1C 02 80 52 0C 80 F8  FF FF 7F F8 FF FF 7F 79  ....R..........y
0200: 30 30 34 6B 69 64 6C 30  F0 FF FF 7F 46 00 1C 02  004kidl0....F...
0210: 80 45 00 80 F0 FF FF 7F  F0 FF FF 7F 66 64 69 32  .E..........fdi2
0220: 01 80 21 00                                       ..!.            
```

#### Opcodes

```
  0: 0x0001 [0x03] ExtData[1]->WorkLocal[0] = Work_Zone[9]
  1: 0x0006 [0x42] SET_CLI_EVENT_CANCEL_DATA()
  2: 0x0007 [0x45] LOAD_SCHEDULED_TASK: Load scheduler "fdo1" with entities [LocalPlayer, LocalPlayer], work=[200*, 0*]
  3: 0x0018 [0x1C] WAIT(60* ticks)
  4: 0x001B [0x46] CAMERA_CONTROL: Disable user control
  5: 0x001D [0x38] SET_CLIENT_EVENT_MODE(mode=19*)
  6: 0x0020 [0x2F] ??? (ID: 17265244/0x0107725C)->Render.Flags0 &= ~0x80000 // Bit 19
  7: 0x0026 [0x4E] SET_ENTITY_HIDE_FLAG: Show ??? (ID: 17265244/0x0107725C)
  8: 0x002C [0x92] ??? (ID: 17265244/0x0107725C)->Render.Flags3 ^= 0x01
  9: 0x0032 [0x94] ??? (ID: 17265244/0x0107725C)->Render.Flags3 ^= 0x01
 10: 0x0038 [0x94] LocalPlayer->Render.Flags3 ^= 0x01
 11: 0x003E [0x80] LOAD_WAIT(entity=??? (ID: 17265244/0x0107725C))
 12: 0x0043 [0x80] LOAD_WAIT(entity=LocalPlayer)
 13: 0x0048 [0xBA] SET_ENTITY_POSITION(entity_id=LocalPlayer, pos_x=640.438*, pos_z=6.279*, pos_y=-15.887*, direction=261.4°*)
 14: 0x0055 [0x02] IF !(ExtData[1]->WorkLocal[0] == 1*) GOTO 0x008A
 15: 0x005D [0x2F] Unnamed NPC (ID: 17265307/0x0107729B)->Render.Flags0 &= ~0x80000 // Bit 19
 16: 0x0063 [0x4E] SET_ENTITY_HIDE_FLAG: Show Unnamed NPC (ID: 17265307/0x0107729B)
 17: 0x0069 [0x92] Unnamed NPC (ID: 17265307/0x0107729B)->Render.Flags3 ^= 0x01
 18: 0x006F [0x94] Unnamed NPC (ID: 17265307/0x0107729B)->Render.Flags3 ^= 0x01
 19: 0x0075 [0x80] LOAD_WAIT(entity=Unnamed NPC (ID: 17265307/0x0107729B))
 20: 0x007A [0xBA] SET_ENTITY_POSITION(entity_id=Unnamed NPC (ID: 17265307/0x0107729B), pos_x=638.852*, pos_z=7.262*, pos_y=-15.838*, direction=261.4°*)
 21: 0x0087 [0x01] GOTO 0x009E
 22: 0x008A [0x59] UPDATE_ENTITY_DATA: Unnamed NPC (ID: 17265307/0x0107729B)->Render.Flags0 |= 0x200000
 23: 0x0091 [0xBA] SET_ENTITY_POSITION(entity_id=Unnamed NPC (ID: 17265307/0x0107729B), pos_x=0.000*, pos_z=0.000*, pos_y=0.000*, direction=0.0°*)

SUBROUTINE_009E:
 24: 0x009E [0x45] LOAD_SCHEDULED_TASK: Load scheduler "y000" with entities [EventEntity, EventEntity], work=[576*, 0*]
 25: 0x00AF [0x45] LOAD_SCHEDULED_TASK: Load scheduler "fdi1" with entities [LocalPlayer, LocalPlayer], work=[200*, 0*]
 26: 0x00C0 [0x27] REQ_SET(priority=0x10, entity_id=LocalPlayer, tag_num=0x04)
 27: 0x00C7 [0x2A] GET_REQ_LEVEL(level=16, entity_id=LocalPlayer)
 28: 0x00CD [0x1C] WAIT(20* ticks)
 29: 0x00D0 [0x27] REQ_SET(priority=0x10, entity_id=Unnamed NPC (ID: 17265307/0x0107729B), tag_num=0x02)
 30: 0x00D7 [0x52] END_LOAD_SCHEDULER: End scheduler "y000" with entities [EventEntity, EventEntity], work=576*
 31: 0x00E6 [0x45] LOAD_SCHEDULED_TASK: Load scheduler "ov40" with entities [EventEntity, EventEntity], work=[576*, 0*]
 32: 0x00F7 [0x45] LOAD_SCHEDULED_TASK: Load scheduler "y001" with entities [EventEntity, EventEntity], work=[576*, 0*]
 33: 0x0108 [0x1C] WAIT(10* ticks)
 34: 0x010B [0x28] REQ_SET_WITH_CONDITIONS(priority=0x10, target_entity=LocalPlayer, tag_num=0x05)
 35: 0x0112 [0x1C] WAIT(60* ticks)
 36: 0x0115 [0x03] Work_Zone[2] = 1762*
 37: 0x011A [0x48] [System] [8291*]:
    → "<Player> gently lays the $3 to rest in the earth..."
 38: 0x011D [0x1C] WAIT(180* ticks)
 39: 0x0120 [0x52] END_LOAD_SCHEDULER: End scheduler "y001" with entities [EventEntity, EventEntity], work=576*
 40: 0x012F [0x45] LOAD_SCHEDULED_TASK: Load scheduler "y002" with entities [EventEntity, EventEntity], work=[576*, 0*]
 41: 0x0140 [0x1C] WAIT(40* ticks)
 42: 0x0143 [0x27] REQ_SET(priority=0x10, entity_id=??? (ID: 17265244/0x0107725C), tag_num=0x02)
 43: 0x014A [0x1C] WAIT(150* ticks)
 44: 0x014D [0x02] IF !(ExtData[1]->WorkLocal[0] == 1*) GOTO 0x01AC
 45: 0x0155 [0x52] END_LOAD_SCHEDULER: End scheduler "y002" with entities [EventEntity, EventEntity], work=576*
 46: 0x0164 [0x45] LOAD_SCHEDULED_TASK: Load scheduler "y003" with entities [EventEntity, EventEntity], work=[576*, 0*]
 47: 0x0175 [0x1C] WAIT(120* ticks)
 48: 0x0178 [0x52] END_LOAD_SCHEDULER: End scheduler "y003" with entities [EventEntity, EventEntity], work=576*
 49: 0x0187 [0x45] LOAD_SCHEDULED_TASK: Load scheduler "ov30" with entities [EventEntity, EventEntity], work=[576*, 0*]
 50: 0x0198 [0x45] LOAD_SCHEDULED_TASK: Load scheduler "y004" with entities [EventEntity, EventEntity], work=[576*, 0*]
 51: 0x01A9 [0x01] GOTO 0x01DD
 52: 0x01AC [0x52] END_LOAD_SCHEDULER: End scheduler "y002" with entities [EventEntity, EventEntity], work=576*
 53: 0x01BB [0x45] LOAD_SCHEDULED_TASK: Load scheduler "ov30" with entities [EventEntity, EventEntity], work=[576*, 0*]
 54: 0x01CC [0x45] LOAD_SCHEDULED_TASK: Load scheduler "y004" with entities [EventEntity, EventEntity], work=[576*, 0*]

SUBROUTINE_01DD:
 55: 0x01DD [0x1C] WAIT(320* ticks)
 56: 0x01E0 [0x45] LOAD_SCHEDULED_TASK: Load scheduler "fdo1" with entities [LocalPlayer, LocalPlayer], work=[200*, 0*]
 57: 0x01F1 [0x1C] WAIT(60* ticks)
 58: 0x01F4 [0x52] END_LOAD_SCHEDULER: End scheduler "y004" with entities [EventEntity, EventEntity], work=576*
 59: 0x0203 [0x6B] STOP_AND_IDLE: LocalPlayer stops current action and resets to idle (animation="idl0")
 60: 0x020C [0x46] CAMERA_CONTROL: Restore default settings
 61: 0x020E [0x1C] WAIT(60* ticks)
 62: 0x0211 [0x45] LOAD_SCHEDULED_TASK: Load scheduler "fdi2" with entities [LocalPlayer, LocalPlayer], work=[200*, 0*]
 63: 0x0222 [0x21] END_EVENT
 64: 0x0223 [0x00] END_REQSTACK()
```
