# 17265246 - Cyranuce

## Common Data

| Field            | Value                           |
|------------------|---------------------------------|
| Zone             | Meriphataud Mountains (ID: 119) |
| Block Size       | 472 bytes                       |
| Total Events     | 7                               |
| References Count | 25                              |

## List of Events

| Event ID                 | Entrypoint   |   Size |   Instructions |
|--------------------------|--------------|--------|----------------|
| [65535](#event-65535)    | 0x0000       |      1 |              1 |
| [33](#event-33)          | 0x0001       |      1 |              1 |
| [65535.1](#event-655351) | 0x0002       |     62 |              9 |
| [65535.2](#event-655352) | 0x0040       |    185 |             37 |
| [65535.3](#event-655353) | 0x00F9       |     29 |              3 |
| [65535.4](#event-655354) | 0x0116       |     14 |              4 |
| [65535.5](#event-655355) | 0x0124       |     33 |              9 |

## DAT References (imed_data)

|   Index | Hex Value   |   Dec Value |
|---------|-------------|-------------|
|       0 | 0x0000      |           0 |
|       1 | 0x0001      |           1 |
|       2 | 0x0003      |           3 |
|       3 | 0x0005      |           5 |
|       4 | 0x0002      |           2 |
|       5 | 0x000A      |          10 |
|       6 | 0x0009      |           9 |
|       7 | 0x0046      |          70 |
|       8 | 0x008C      |         140 |
|       9 | 0x00D2      |         210 |
|      10 | 0x000C      |          12 |
|      11 | 0x0028      |          40 |
|      12 | 0x9D69C     |      644764 |
|      13 | 0x1648      |        5704 |
|      14 | 0xFFFFC11A  |  4294951194 |
|      15 | 0x000D      |          13 |
|      16 | 0x9DEBB     |      646843 |
|      17 | 0x18FF      |        6399 |
|      18 | 0xFFFFBBCE  |  4294949838 |
|      19 | 0x0B2C      |        2860 |
|      20 | 0x9DC22     |      646178 |
|      21 | 0x20DC      |        8412 |
|      22 | 0xFFFFB9B0  |  4294949296 |
|      23 | 0x0711      |        1809 |
|      24 | 0x003C      |          60 |

## Events

### Event 65535

#### Metadata

| Field        | Value   |
|--------------|---------|
| Entrypoint   | 0x0000  |
| Data Size    | 1 bytes |
| Instructions | 1       |

```
      00 01 02 03 04 05 06 07  08 09 0A 0B 0C 0D 0E 0F
      -- -- -- -- -- -- -- --  -- -- -- -- -- -- -- --
0000: 00                                                .               
```

#### Opcodes

```
  0: 0x0000 [0x00] END_REQSTACK()
```

### Event 33

#### Metadata

| Field        | Value   |
|--------------|---------|
| Entrypoint   | 0x0001  |
| Data Size    | 1 bytes |
| Instructions | 1       |

```
      00 01 02 03 04 05 06 07  08 09 0A 0B 0C 0D 0E 0F
      -- -- -- -- -- -- -- --  -- -- -- -- -- -- -- --
0000:    00                                              .              
```

#### Opcodes

```
  0: 0x0001 [0x00] END_REQSTACK()
```

### Event 65535.1

#### Metadata

| Field        | Value    |
|--------------|----------|
| Entrypoint   | 0x0002   |
| Data Size    | 62 bytes |
| Instructions | 9        |

```
      00 01 02 03 04 05 06 07  08 09 0A 0B 0C 0D 0E 0F
      -- -- -- -- -- -- -- --  -- -- -- -- -- -- -- --
0000:       22 01 6C 5E 72 07  01 00 80 01 80 3B 5F 72    ".l^r......;_r
0010: 07 01 00 00 01 00 02 00  3A 5F 72 07 01 03 00 37  ........:_r....7
0020: 00 00 01 00 02 00 03 00  03 04 00 02 80 1A 65 00  ..............e.
0030: 66 05 00 F8 FF FF 7F F8  FF FF 7F 73 69 72 30 00  f..........sir0.
```

#### Opcodes

```
  0: 0x0002 [0x22] ENTITY_HIDE_FLAG(enabled=0x01)
  1: 0x0004 [0x6C] FADE_ENTITY_COLOR(entity_id=Cyranuce (ID: 17265246/0x0107725E), end_alpha=0*, fade_time=1*)
  2: 0x000D [0x3B] GET_ENTITY_POSITION(entity=Yachemidot (ID: 17265247/0x0107725F), x_destination=ExtData[1]->WorkLocal[0], y_destination=ExtData[1]->WorkLocal[1], z_destination=ExtData[1]->WorkLocal[2])
  3: 0x0018 [0x3A] CONVERT_YAW_TO_BYTE(entity=Yachemidot (ID: 17265247/0x0107725F), result_destination=ExtData[1]->WorkLocal[3])
  4: 0x001F [0x37] UPDATE_EVENT_POSITION_AND_DIR: x=ExtData[1]->WorkLocal[0], z=ExtData[1]->WorkLocal[1], y=ExtData[1]->WorkLocal[2], direction=ExtData[1]->WorkLocal[3]
  5: 0x0028 [0x03] ExtData[1]->WorkLocal[4] = 3*
  6: 0x002D [0x1A] CALL_SUBROUTINE(address=0x0065)
  7: 0x0030 [0x66] LOAD_EXT_SCHEDULER_MAIN: Load scheduler "sir0" with entities [EventEntity, EventEntity], work=ExtData[1]->WorkLocal[5]
  8: 0x003F [0x00] END_REQSTACK()
```

### Event 65535.2

#### Metadata

| Field        | Value     |
|--------------|-----------|
| Entrypoint   | 0x0040    |
| Data Size    | 185 bytes |
| Instructions | 13        |

```
      00 01 02 03 04 05 06 07  08 09 0A 0B 0C 0D 0E 0F
      -- -- -- -- -- -- -- --  -- -- -- -- -- -- -- --
0040: 03 04 00 02 80 1A 65 00  66 05 00 F8 FF FF 7F F8  ......e.f.......
0050: FF FF 7F 73 68 61 31 53  F8 FF FF 7F F8 FF FF 7F  ...sha1S........
0060: 73 68 61 31 00 03 05 00  04 00 02 05 00 03 80 05  sha1............
0070: 7A 00 08 05 00 01 80 01  7F 00 08 05 00 04 80 14  z...............
0080: 05 00 05 80 07 05 00 06  80 1B 03 05 00 04 00 02  ................
0090: 05 00 03 80 05 9F 00 08  05 00 01 80 01 A4 00 08  ................
00A0: 05 00 04 80 14 05 00 05  80 07 05 00 07 80 1B 03  ................
00B0: 05 00 04 00 02 05 00 03  80 05 C4 00 08 05 00 01  ................
00C0: 80 01 C9 00 08 05 00 04  80 14 05 00 05 80 07 05  ................
00D0: 00 08 80 1B 03 05 00 04  00 02 05 00 03 80 05 E9  ................
00E0: 00 08 05 00 01 80 01 EE  00 08 05 00 04 80 14 05  ................
00F0: 00 05 80 07 05 00 09 80  1B                       .........       
```

#### Opcodes

```
  0: 0x0040 [0x03] ExtData[1]->WorkLocal[4] = 3*
  1: 0x0045 [0x1A] CALL_SUBROUTINE(address=0x0065)
  2: 0x0048 [0x66] LOAD_EXT_SCHEDULER_MAIN: Load scheduler "sha1" with entities [EventEntity, EventEntity], work=ExtData[1]->WorkLocal[5]
  3: 0x0057 [0x53] WAIT_SCHEDULER_TASK: Wait for scheduler "sha1" with entities [EventEntity, EventEntity]
  4: 0x0064 [0x00] END_REQSTACK()

SUBROUTINE_0065:
  5: 0x0065 [0x03] ExtData[1]->WorkLocal[5] = ExtData[1]->WorkLocal[4]
  6: 0x006A [0x02] IF !(ExtData[1]->WorkLocal[5] > 5*) GOTO 0x007A
  7: 0x0072 [0x08] ExtData[1]->WorkLocal[5] -= 1*
  8: 0x0077 [0x01] GOTO 0x007F
  9: 0x007A [0x08] ExtData[1]->WorkLocal[5] -= 2*

SUBROUTINE_007F:
 10: 0x007F [0x14] ExtData[1]->WorkLocal[5] *= 10*
 11: 0x0084 [0x07] ExtData[1]->WorkLocal[5] += 9*
 12: 0x0089 [0x1B] RETURN
```

#### Data or dead code:

```
# Dead code (unreachable instructions):
     0x008A [0x03] ExtData[1]->WorkLocal[5] = ExtData[1]->WorkLocal[4]
     0x008F [0x02] IF !(ExtData[1]->WorkLocal[5] > 5*) GOTO 0x009F
     0x0097 [0x08] ExtData[1]->WorkLocal[5] -= 1*
     0x009C [0x01] GOTO 0x00A4
     0x009F [0x08] ExtData[1]->WorkLocal[5] -= 2*
     0x00A4 [0x14] ExtData[1]->WorkLocal[5] *= 10*
     0x00A9 [0x07] ExtData[1]->WorkLocal[5] += 70*
     0x00AE [0x1B] RETURN
     0x00AF [0x03] ExtData[1]->WorkLocal[5] = ExtData[1]->WorkLocal[4]
     0x00B4 [0x02] IF !(ExtData[1]->WorkLocal[5] > 5*) GOTO 0x00C4
     0x00BC [0x08] ExtData[1]->WorkLocal[5] -= 1*
     0x00C1 [0x01] GOTO 0x00C9
     0x00C4 [0x08] ExtData[1]->WorkLocal[5] -= 2*
     0x00C9 [0x14] ExtData[1]->WorkLocal[5] *= 10*
     0x00CE [0x07] ExtData[1]->WorkLocal[5] += 140*
     0x00D3 [0x1B] RETURN
     0x00D4 [0x03] ExtData[1]->WorkLocal[5] = ExtData[1]->WorkLocal[4]
     0x00D9 [0x02] IF !(ExtData[1]->WorkLocal[5] > 5*) GOTO 0x00E9
     0x00E1 [0x08] ExtData[1]->WorkLocal[5] -= 1*
     0x00E6 [0x01] GOTO 0x00EE
     0x00E9 [0x08] ExtData[1]->WorkLocal[5] -= 2*
     0x00EE [0x14] ExtData[1]->WorkLocal[5] *= 10*
     0x00F3 [0x07] ExtData[1]->WorkLocal[5] += 210*
     0x00F8 [0x1B] RETURN
```

### Event 65535.3

#### Metadata

| Field        | Value    |
|--------------|----------|
| Entrypoint   | 0x00F9   |
| Data Size    | 29 bytes |
| Instructions | 3        |

```
      00 01 02 03 04 05 06 07  08 09 0A 0B 0C 0D 0E 0F
      -- -- -- -- -- -- -- --  -- -- -- -- -- -- -- --
00F0:                             5B 0A 80 F8 FF FF 7F           [......
0100: F8 FF FF 7F 74 6C 6B 30  53 F8 FF FF 7F F8 FF FF  ....tlk0S.......
0110: 7F 74 6C 6B 30 00                                 .tlk0.          
```

#### Opcodes

```
  0: 0x00F9 [0x5B] LOAD_EXT_SCHEDULER: Load scheduler "tlk0" with entities [EventEntity, EventEntity], work=12*
  1: 0x0108 [0x53] WAIT_SCHEDULER_TASK: Wait for scheduler "tlk0" with entities [EventEntity, EventEntity]
  2: 0x0115 [0x00] END_REQSTACK()
```

### Event 65535.4

#### Metadata

| Field        | Value    |
|--------------|----------|
| Entrypoint   | 0x0116   |
| Data Size    | 14 bytes |
| Instructions | 4        |

```
      00 01 02 03 04 05 06 07  08 09 0A 0B 0C 0D 0E 0F
      -- -- -- -- -- -- -- --  -- -- -- -- -- -- -- --
0110:                   32 0B  80 1F 00 0C 80 0D 80 0E        2.........
0120: 80 1F 01 00                                       ....            
```

#### Opcodes

```
  0: 0x0116 [0x32] ExtData[1]->MainSpeed = 40* * 0.1
  1: 0x0119 [0x1F] MOVE_ENTITY: EventEntity moves to X=644.764*, Z=5.704*, Y=-16.102*
  2: 0x0121 [0x1F] MOVE_ENTITY: Update entity position (mode=1)
  3: 0x0123 [0x00] END_REQSTACK()
```

### Event 65535.5

#### Metadata

| Field        | Value    |
|--------------|----------|
| Entrypoint   | 0x0124   |
| Data Size    | 33 bytes |
| Instructions | 9        |

```
      00 01 02 03 04 05 06 07  08 09 0A 0B 0C 0D 0E 0F
      -- -- -- -- -- -- -- --  -- -- -- -- -- -- -- --
0120:             32 0F 80 37  10 80 11 80 12 80 13 80      2..7........
0130: 1F 00 14 80 15 80 16 80  1F 01 6F 1C 03 80 39 17  ..........o...9.
0140: 80 1C 18 80 00                                    .....           
```

#### Opcodes

```
  0: 0x0124 [0x32] ExtData[1]->MainSpeed = 13* * 0.1
  1: 0x0127 [0x37] UPDATE_EVENT_POSITION_AND_DIR: x=646.843*, z=6.399*, y=-17.458*, direction=251.4°*
  2: 0x0130 [0x1F] MOVE_ENTITY: EventEntity moves to X=646.178*, Z=8.412*, Y=-18.000*
  3: 0x0138 [0x1F] MOVE_ENTITY: Update entity position (mode=1)
  4: 0x013A [0x6F] WAIT_FRAME_DELAY: Yield until WaitTime reaches zero
  5: 0x013B [0x1C] WAIT(5* ticks)
  6: 0x013E [0x39] SET_ENTITY_DIRECTION(direction=9.9°*)
  7: 0x0141 [0x1C] WAIT(60* ticks)
  8: 0x0144 [0x00] END_REQSTACK()
```
