# 17265309 - Moogle

## Common Data

| Field            | Value                           |
|------------------|---------------------------------|
| Zone             | Meriphataud Mountains (ID: 119) |
| Block Size       | 300 bytes                       |
| Total Events     | 4                               |
| References Count | 16                              |

## List of Events

| Event ID              | Entrypoint   |   Size |   Instructions |
|-----------------------|--------------|--------|----------------|
| [65535](#event-65535) | 0x0000       |      1 |              1 |
| [906](#event-906)     | 0x0001       |     25 |             11 |
| [907](#event-907)     | 0x001A       |     21 |              9 |
| [908](#event-908)     | 0x002F       |    154 |             31 |

## DAT References (imed_data)

|   Index | Hex Value   |   Dec Value |
|---------|-------------|-------------|
|       0 | 0x4554      |       17748 |
|       1 | 0x1EB6      |        7862 |
|       2 | 0x1EB7      |        7863 |
|       3 | 0x1EB8      |        7864 |
|       4 | 0x1EB9      |        7865 |
|       5 | 0x1EBA      |        7866 |
|       6 | 0x1EC2      |        7874 |
|       7 | 0x0000      |           0 |
|       8 | 0x0008      |           8 |
|       9 | 0x0001      |           1 |
|      10 | 0x0007      |           7 |
|      11 | 0x0002      |           2 |
|      12 | 0x0006      |           6 |
|      13 | 0x0003      |           3 |
|      14 | 0x0005      |           5 |
|      15 | 0x0004      |           4 |

## String References

- **7862**: You have $0 equipped! Great! Now, hold still while I cast miraculously marvelous moogle magic on it, kupo.
- **7863**: After you've taken care of the armor wearer, plant your $0 into the ground near the fallen fiend. You'll get a reward that matches the amount of malice absorbed, kupo.
- **7864**: The malice absorption magic will lose effect if you move to another area, so come back here if you want me to cast it again, kupo.
- **7865**: You have $0 equipped! I like your enthusiasm! Now, hold still while I cast miraculously marvelous moogle magic on it, kupo.
- **7866**: After you've seen to the wretched rogue inside the armor, plant your $0 into the ground near the fallen fiend. You'll get a reward that matches the amount of malice absorbed, kupo.
- **7874**: Please select absorption value. [8/7/6/5/4""/1/0]

## Events

### Event 65535

#### Metadata

| Field        | Value   |
|--------------|---------|
| Entrypoint   | 0x0000  |
| Data Size    | 1 bytes |
| Instructions | 1       |

```
      00 01 02 03 04 05 06 07  08 09 0A 0B 0C 0D 0E 0F
      -- -- -- -- -- -- -- --  -- -- -- -- -- -- -- --
0000: 00                                                .               
```

#### Opcodes

```
  0: 0x0000 [0x00] END_REQSTACK()
```

### Event 906

#### Metadata

| Field        | Value    |
|--------------|----------|
| Entrypoint   | 0x0001   |
| Data Size    | 25 bytes |
| Instructions | 11       |

```
      00 01 02 03 04 05 06 07  08 09 0A 0B 0C 0D 0E 0F
      -- -- -- -- -- -- -- --  -- -- -- -- -- -- -- --
0000:    42 1E F0 FF FF 7F 03  02 10 00 80 1D 01 80 23   B.............#
0010: 1D 02 80 23 1D 03 80 23  21 00                    ...#...#!.      
```

#### Opcodes

```
  0: 0x0001 [0x42] SET_CLI_EVENT_CANCEL_DATA()
  1: 0x0002 [0x1E] EventEntity looks at LocalPlayer and starts talking
  2: 0x0007 [0x03] Work_Zone[2] = 17748*
  3: 0x000C [0x1D] PRINT_EVENT_MESSAGE(message_id=7862*)
    → "You have $0 equipped! Great! Now, hold still while I cast miraculously marvelous moogle magic on it, kupo."
  4: 0x000F [0x23] WAIT_FOR_DIALOG_INTERACTION
  5: 0x0010 [0x1D] PRINT_EVENT_MESSAGE(message_id=7863*)
    → "After you've taken care of the armor wearer, plant your $0 into the ground near the fallen fiend. You'll get a reward that matches the amount of malice absorbed, kupo."
  6: 0x0013 [0x23] WAIT_FOR_DIALOG_INTERACTION
  7: 0x0014 [0x1D] PRINT_EVENT_MESSAGE(message_id=7864*)
    → "The malice absorption magic will lose effect if you move to another area, so come back here if you want me to cast it again, kupo."
  8: 0x0017 [0x23] WAIT_FOR_DIALOG_INTERACTION
  9: 0x0018 [0x21] END_EVENT
 10: 0x0019 [0x00] END_REQSTACK()
```

### Event 907

#### Metadata

| Field        | Value    |
|--------------|----------|
| Entrypoint   | 0x001A   |
| Data Size    | 21 bytes |
| Instructions | 9        |

```
      00 01 02 03 04 05 06 07  08 09 0A 0B 0C 0D 0E 0F
      -- -- -- -- -- -- -- --  -- -- -- -- -- -- -- --
0010:                                42 1E F0 FF FF 7F            B.....
0020: 03 02 10 00 80 1D 04 80  23 1D 05 80 23 21 00     ........#...#!. 
```

#### Opcodes

```
  0: 0x001A [0x42] SET_CLI_EVENT_CANCEL_DATA()
  1: 0x001B [0x1E] EventEntity looks at LocalPlayer and starts talking
  2: 0x0020 [0x03] Work_Zone[2] = 17748*
  3: 0x0025 [0x1D] PRINT_EVENT_MESSAGE(message_id=7865*)
    → "You have $0 equipped! I like your enthusiasm! Now, hold still while I cast miraculously marvelous moogle magic on it, kupo."
  4: 0x0028 [0x23] WAIT_FOR_DIALOG_INTERACTION
  5: 0x0029 [0x1D] PRINT_EVENT_MESSAGE(message_id=7866*)
    → "After you've seen to the wretched rogue inside the armor, plant your $0 into the ground near the fallen fiend. You'll get a reward that matches the amount of malice absorbed, kupo."
  6: 0x002C [0x23] WAIT_FOR_DIALOG_INTERACTION
  7: 0x002D [0x21] END_EVENT
  8: 0x002E [0x00] END_REQSTACK()
```

### Event 908

#### Metadata

| Field        | Value     |
|--------------|-----------|
| Entrypoint   | 0x002F    |
| Data Size    | 154 bytes |
| Instructions | 31        |

```
      00 01 02 03 04 05 06 07  08 09 0A 0B 0C 0D 0E 0F
      -- -- -- -- -- -- -- --  -- -- -- -- -- -- -- --
0020:                                               24                 $
0030: 06 80 07 80 07 80 25 02  00 10 07 80 00 47 00 03  ......%......G..
0040: 01 10 08 80 01 C7 00 02  00 10 09 80 00 57 00 03  .............W..
0050: 01 10 0A 80 01 C7 00 02  00 10 0B 80 00 67 00 03  .............g..
0060: 01 10 0C 80 01 C7 00 02  00 10 0D 80 00 77 00 03  .............w..
0070: 01 10 0E 80 01 C7 00 02  00 10 0F 80 00 87 00 03  ................
0080: 01 10 0F 80 01 C7 00 02  00 10 0E 80 00 97 00 03  ................
0090: 01 10 0D 80 01 C7 00 02  00 10 0C 80 00 A7 00 03  ................
00A0: 01 10 0B 80 01 C7 00 02  00 10 0A 80 00 B7 00 03  ................
00B0: 01 10 09 80 01 C7 00 02  00 10 08 80 00 C7 00 03  ................
00C0: 01 10 07 80 01 C7 00 21  00                       .......!.       
```

#### Opcodes

```
  0: 0x002F [0x24] CREATE_DIALOG(message_id=7874*, default_option=0*, option_flags=0*)
    → "Please select absorption value. [8/7/6/5/4""/1/0]"
  1: 0x0036 [0x25] WAIT_DIALOG_SELECT()
  2: 0x0037 [0x02] IF !(Work_Zone[0] == 0*) GOTO 0x0047
  3: 0x003F [0x03] Work_Zone[1] = 8*
  4: 0x0044 [0x01] GOTO 0x00C7
  5: 0x0047 [0x02] IF !(Work_Zone[0] == 1*) GOTO 0x0057
  6: 0x004F [0x03] Work_Zone[1] = 7*
  7: 0x0054 [0x01] GOTO 0x00C7
  8: 0x0057 [0x02] IF !(Work_Zone[0] == 2*) GOTO 0x0067
  9: 0x005F [0x03] Work_Zone[1] = 6*
 10: 0x0064 [0x01] GOTO 0x00C7
 11: 0x0067 [0x02] IF !(Work_Zone[0] == 3*) GOTO 0x0077
 12: 0x006F [0x03] Work_Zone[1] = 5*
 13: 0x0074 [0x01] GOTO 0x00C7
 14: 0x0077 [0x02] IF !(Work_Zone[0] == 4*) GOTO 0x0087
 15: 0x007F [0x03] Work_Zone[1] = 4*
 16: 0x0084 [0x01] GOTO 0x00C7
 17: 0x0087 [0x02] IF !(Work_Zone[0] == 5*) GOTO 0x0097
 18: 0x008F [0x03] Work_Zone[1] = 3*
 19: 0x0094 [0x01] GOTO 0x00C7
 20: 0x0097 [0x02] IF !(Work_Zone[0] == 6*) GOTO 0x00A7
 21: 0x009F [0x03] Work_Zone[1] = 2*
 22: 0x00A4 [0x01] GOTO 0x00C7
 23: 0x00A7 [0x02] IF !(Work_Zone[0] == 7*) GOTO 0x00B7
 24: 0x00AF [0x03] Work_Zone[1] = 1*
 25: 0x00B4 [0x01] GOTO 0x00C7
 26: 0x00B7 [0x02] IF !(Work_Zone[0] == 8*) GOTO 0x00C7
 27: 0x00BF [0x03] Work_Zone[1] = 0*
 28: 0x00C4 [0x01] GOTO 0x00C7

SUBROUTINE_00C7:
 29: 0x00C7 [0x21] END_EVENT
 30: 0x00C8 [0x00] END_REQSTACK()
```
