# 17265248

## Common Data

| Field            | Value                           |
|------------------|---------------------------------|
| Zone             | Meriphataud Mountains (ID: 119) |
| Block Size       | 220 bytes                       |
| Total Events     | 5                               |
| References Count | 10                              |

## List of Events

| Event ID                 | Entrypoint   |   Size |   Instructions |
|--------------------------|--------------|--------|----------------|
| [65535](#event-65535)    | 0x0000       |      1 |              1 |
| [33](#event-33)          | 0x0001       |     32 |              4 |
| [65535.1](#event-655351) | 0x0021       |     46 |              5 |
| [65535.2](#event-655352) | 0x004F       |     44 |              4 |
| [65535.3](#event-655353) | 0x007B       |     19 |              3 |

## DAT References (imed_data)

|   Index | Hex Value   |   Dec Value |
|---------|-------------|-------------|
|       0 | 0x9C43E     |      640062 |
|       1 | 0x2328      |        9000 |
|       2 | 0xFFFFC297  |  4294951575 |
|       3 | 0x0389      |         905 |
|       4 | 0x0000      |           0 |
|       5 | 0x0001      |           1 |
|       6 | 0x002B      |          43 |
|       7 | 0x0080      |         128 |
|       8 | 0x00B4      |         180 |
|       9 | 0x00D2      |         210 |

## Events

### Event 65535

#### Metadata

| Field        | Value   |
|--------------|---------|
| Entrypoint   | 0x0000  |
| Data Size    | 1 bytes |
| Instructions | 1       |

```
      00 01 02 03 04 05 06 07  08 09 0A 0B 0C 0D 0E 0F
      -- -- -- -- -- -- -- --  -- -- -- -- -- -- -- --
0000: 00                                                .               
```

#### Opcodes

```
  0: 0x0000 [0x00] END_REQSTACK()
```

### Event 33

#### Metadata

| Field        | Value    |
|--------------|----------|
| Entrypoint   | 0x0001   |
| Data Size    | 32 bytes |
| Instructions | 4        |

```
      00 01 02 03 04 05 06 07  08 09 0A 0B 0C 0D 0E 0F
      -- -- -- -- -- -- -- --  -- -- -- -- -- -- -- --
0000:    37 00 80 01 80 02 80  03 80 6C F8 FF FF 7F 04   7........l.....
0010: 80 05 80 2C F8 FF FF 7F  F8 FF FF 7F 72 65 73 31  ...,........res1
0020: 00                                                .               
```

#### Opcodes

```
  0: 0x0001 [0x37] UPDATE_EVENT_POSITION_AND_DIR: x=640.062*, z=9.000*, y=-15.721*, direction=79.5°*
  1: 0x000A [0x6C] FADE_ENTITY_COLOR(entity_id=EventEntity, end_alpha=0*, fade_time=1*)
  2: 0x0013 [0x2C] CREATE_SCHEDULER_TASK: Create scheduler "res1" with entities [EventEntity, EventEntity]
  3: 0x0020 [0x00] END_REQSTACK()
```

### Event 65535.1

#### Metadata

| Field        | Value    |
|--------------|----------|
| Entrypoint   | 0x0021   |
| Data Size    | 46 bytes |
| Instructions | 5        |

```
      00 01 02 03 04 05 06 07  08 09 0A 0B 0C 0D 0E 0F
      -- -- -- -- -- -- -- --  -- -- -- -- -- -- -- --
0020:    4E 00 60 72 07 01 62  06 80 F8 FF FF 7F F8 FF   N.`r..b........
0030: FF 7F 6D 61 69 6E 04 80  2C F8 FF FF 7F F8 FF FF  ..main..,.......
0040: 7F 72 65 73 32 6C F8 FF  FF 7F 07 80 08 80 00     .res2l......... 
```

#### Opcodes

```
  0: 0x0021 [0x4E] SET_ENTITY_HIDE_FLAG: Show Unnamed NPC (ID: 17265248/0x01077260)
  1: 0x0027 [0x62] LOAD_EVENT_SCHEDULER: Load scheduler "main" with entities [EventEntity, EventEntity], work=[43*, 0*]
  2: 0x0038 [0x2C] CREATE_SCHEDULER_TASK: Create scheduler "res2" with entities [EventEntity, EventEntity]
  3: 0x0045 [0x6C] FADE_ENTITY_COLOR(entity_id=EventEntity, end_alpha=128*, fade_time=180*)
  4: 0x004E [0x00] END_REQSTACK()
```

### Event 65535.2

#### Metadata

| Field        | Value    |
|--------------|----------|
| Entrypoint   | 0x004F   |
| Data Size    | 44 bytes |
| Instructions | 4        |

```
      00 01 02 03 04 05 06 07  08 09 0A 0B 0C 0D 0E 0F
      -- -- -- -- -- -- -- --  -- -- -- -- -- -- -- --
0040:                                               2C                 ,
0050: F8 FF FF 7F F8 FF FF 7F  73 68 6F 74 45 09 80 5C  ........shotE..\
0060: 72 07 01 5C 72 07 01 63  72 79 30 04 80 53 F8 FF  r..\r..cry0..S..
0070: FF 7F F8 FF FF 7F 73 68  6F 74 00                 ......shot.     
```

#### Opcodes

```
  0: 0x004F [0x2C] CREATE_SCHEDULER_TASK: Create scheduler "shot" with entities [EventEntity, EventEntity]
  1: 0x005C [0x45] LOAD_SCHEDULED_TASK: Load scheduler "cry0" with entities [??? (ID: 17265244/0x0107725C), ??? (ID: 17265244/0x0107725C)], work=[210*, 0*]
  2: 0x006D [0x53] WAIT_SCHEDULER_TASK: Wait for scheduler "shot" with entities [EventEntity, EventEntity]
  3: 0x007A [0x00] END_REQSTACK()
```

### Event 65535.3

#### Metadata

| Field        | Value    |
|--------------|----------|
| Entrypoint   | 0x007B   |
| Data Size    | 19 bytes |
| Instructions | 3        |

```
      00 01 02 03 04 05 06 07  08 09 0A 0B 0C 0D 0E 0F
      -- -- -- -- -- -- -- --  -- -- -- -- -- -- -- --
0070:                                   80 F8 FF FF 7F             .....
0080: 2C F8 FF FF 7F F8 FF FF  7F 63 6F 72 70 00        ,........corp.  
```

#### Opcodes

```
  0: 0x007B [0x80] LOAD_WAIT(entity=EventEntity)
  1: 0x0080 [0x2C] CREATE_SCHEDULER_TASK: Create scheduler "corp" with entities [EventEntity, EventEntity]
  2: 0x008D [0x00] END_REQSTACK()
```
