# 17265243

## Common Data

| Field            | Value                           |
|------------------|---------------------------------|
| Zone             | Meriphataud Mountains (ID: 119) |
| Block Size       | 2172 bytes                      |
| Total Events     | 4                               |
| References Count | 36                              |

## List of Events

| Event ID                 | Entrypoint   |   Size |   Instructions |
|--------------------------|--------------|--------|----------------|
| [65535](#event-65535)    | 0x0000       |      1 |              1 |
| [56](#event-56)          | 0x0001       |     10 |              2 |
| [65535.1](#event-655351) | 0x000B       |     21 |              3 |
| [33](#event-33)          | 0x0020       |   1963 |            220 |

## DAT References (imed_data)

|   Index | Hex Value   |   Dec Value |
|---------|-------------|-------------|
|       0 | 0x0000      |           0 |
|       1 | 0x0001      |           1 |
|       2 | 0x0003      |           3 |
|       3 | 0x003C      |          60 |
|       4 | 0x00C8      |         200 |
|       5 | 0x0013      |          19 |
|       6 | 0x00D2      |         210 |
|       7 | 0x0078      |         120 |
|       8 | 0x204F      |        8271 |
|       9 | 0x2050      |        8272 |
|      10 | 0x001E      |          30 |
|      11 | 0x0028      |          40 |
|      12 | 0x2051      |        8273 |
|      13 | 0x2052      |        8274 |
|      14 | 0x000A      |          10 |
|      15 | 0x00A1      |         161 |
|      16 | 0x2053      |        8275 |
|      17 | 0x005A      |          90 |
|      18 | 0x2054      |        8276 |
|      19 | 0x0080      |         128 |
|      20 | 0x2055      |        8277 |
|      21 | 0x2056      |        8278 |
|      22 | 0x2057      |        8279 |
|      23 | 0x2058      |        8280 |
|      24 | 0x00B4      |         180 |
|      25 | 0x000F      |          15 |
|      26 | 0x2059      |        8281 |
|      27 | 0x205A      |        8282 |
|      28 | 0x205B      |        8283 |
|      29 | 0x205C      |        8284 |
|      30 | 0x205D      |        8285 |
|      31 | 0x205E      |        8286 |
|      32 | 0x205F      |        8287 |
|      33 | 0x2060      |        8288 |
|      34 | 0x2061      |        8289 |
|      35 | 0x2062      |        8290 |

## Events

### Event 65535

#### Metadata

| Field        | Value   |
|--------------|---------|
| Entrypoint   | 0x0000  |
| Data Size    | 1 bytes |
| Instructions | 1       |

```
      00 01 02 03 04 05 06 07  08 09 0A 0B 0C 0D 0E 0F
      -- -- -- -- -- -- -- --  -- -- -- -- -- -- -- --
0000: 00                                                .               
```

#### Opcodes

```
  0: 0x0000 [0x00] END_REQSTACK()
```

### Event 56

#### Metadata

| Field        | Value    |
|--------------|----------|
| Entrypoint   | 0x0001   |
| Data Size    | 10 bytes |
| Instructions | 2        |

```
      00 01 02 03 04 05 06 07  08 09 0A 0B 0C 0D 0E 0F
      -- -- -- -- -- -- -- --  -- -- -- -- -- -- -- --
0000:    6C F8 FF FF 7F 00 80  01 80 00                  l.........     
```

#### Opcodes

```
  0: 0x0001 [0x6C] FADE_ENTITY_COLOR(entity_id=EventEntity, end_alpha=0*, fade_time=1*)
  1: 0x000A [0x00] END_REQSTACK()
```

### Event 65535.1

#### Metadata

| Field        | Value    |
|--------------|----------|
| Entrypoint   | 0x000B   |
| Data Size    | 21 bytes |
| Instructions | 3        |

```
      00 01 02 03 04 05 06 07  08 09 0A 0B 0C 0D 0E 0F
      -- -- -- -- -- -- -- --  -- -- -- -- -- -- -- --
0000:                                   62 02 80 5B 72             b..[r
0010: 07 01 5B 72 07 01 6D 61  69 6E 00 80 1C 03 80 00  ..[r..main......
```

#### Opcodes

```
  0: 0x000B [0x62] LOAD_EVENT_SCHEDULER: Load scheduler "main" with entities [??? (ID: 17265243/0x0107725B), ??? (ID: 17265243/0x0107725B)], work=[3*, 0*]
  1: 0x001C [0x1C] WAIT(60* ticks)
  2: 0x001F [0x00] END_REQSTACK()
```

### Event 33

#### Metadata

| Field        | Value      |
|--------------|------------|
| Entrypoint   | 0x0020     |
| Data Size    | 1963 bytes |
| Instructions | 220        |

```
      00 01 02 03 04 05 06 07  08 09 0A 0B 0C 0D 0E 0F
      -- -- -- -- -- -- -- --  -- -- -- -- -- -- -- --
0020: 20 01 46 01 42 45 04 80  F0 FF FF 7F F0 FF FF 7F   .F.BE..........
0030: 66 64 6F 31 00 80 55 04  80 F0 FF FF 7F F0 FF FF  fdo1..U.........
0040: 7F 66 64 6F 31 38 05 80  79 00 F0 FF FF 7F F0 FF  .fdo18..y.......
0050: FF 7F 27 03 F0 FF FF 7F  09 45 06 80 F0 FF FF 7F  ..'......E......
0060: F0 FF FF 7F 79 30 30 30  00 80 55 06 80 F0 FF FF  ....y000..U.....
0070: 7F F0 FF FF 7F 79 30 30  30 5C 00 07 80 5C 01 07  .....y000\...\..
0080: 80 45 04 80 F0 FF FF 7F  F0 FF FF 7F 66 64 69 31  .E..........fdi1
0090: 00 80 55 04 80 F0 FF FF  7F F0 FF FF 7F 66 64 69  ..U..........fdi
00A0: 31 62 02 80 5B 72 07 01  5B 72 07 01 6D 61 69 6E  1b..[r..[r..main
00B0: 00 80 1C 03 80 4E 00 5E  72 07 01 27 03 5E 72 07  .....N.^r..'.^r.
00C0: 01 02 27 03 F0 FF FF 7F  0A 2B 5E 72 07 01 08 80  ..'......+^r....
00D0: 23 2A 03 5E 72 07 01 45  06 80 F0 FF FF 7F F0 FF  #*.^r..E........
00E0: FF 7F 79 30 30 31 00 80  2B 5E 72 07 01 09 80 23  ..y001..+^r....#
00F0: 55 06 80 F0 FF FF 7F F0  FF FF 7F 79 30 30 31 45  U..........y001E
0100: 04 80 F0 FF FF 7F F0 FF  FF 7F 6F 76 6C 31 00 80  ..........ovl1..
0110: 45 06 80 F0 FF FF 7F F0  FF FF 7F 79 30 30 32 00  E..........y002.
0120: 80 55 06 80 F0 FF FF 7F  F0 FF FF 7F 79 30 30 32  .U..........y002
0130: 27 03 5F 72 07 01 02 79  00 F0 FF FF 7F 5F 72 07  '._r...y....._r.
0140: 01 1C 0A 80 45 06 80 F0  FF FF 7F F0 FF FF 7F 79  ....E..........y
0150: 30 30 33 00 80 2A 03 5F  72 07 01 55 06 80 F0 FF  003..*._r..U....
0160: FF 7F F0 FF FF 7F 79 30  30 33 27 04 5F 72 07 01  ......y003'._r..
0170: 03 1C 0B 80 45 06 80 F0  FF FF 7F F0 FF FF 7F 79  ....E..........y
0180: 30 30 61 00 80 45 04 80  F0 FF FF 7F F0 FF FF 7F  00a..E..........
0190: 62 6C 6F 6E 00 80 2A 04  5F 72 07 01 55 06 80 F0  blon..*._r..U...
01A0: FF FF 7F F0 FF FF 7F 79  30 30 61 45 04 80 F0 FF  .......y00aE....
01B0: FF 7F F0 FF FF 7F 62 6C  6F 66 00 80 45 06 80 F0  ......blof..E...
01C0: FF FF 7F F0 FF FF 7F 79  30 30 34 00 80 27 03 5E  .......y004..'.^
01D0: 72 07 01 03 2B 5E 72 07  01 0C 80 23 2A 03 5E 72  r...+^r....#*.^r
01E0: 07 01 29 03 F0 FF FF 7F  0B 55 06 80 F0 FF FF 7F  ..)......U......
01F0: F0 FF FF 7F 79 30 30 34  45 06 80 F0 FF FF 7F F0  ....y004E.......
0200: FF FF 7F 79 30 30 35 00  80 55 06 80 F0 FF FF 7F  ...y005..U......
0210: F0 FF FF 7F 79 30 30 35  5D 00 80 07 80 29 03 5E  ....y005]....).^
0220: 72 07 01 04 2B 5E 72 07  01 0D 80 23 27 03 5E 72  r...+^r....#'.^r
0230: 07 01 05 1C 0A 80 2C 5F  72 07 01 5F 72 07 01 64  ......,_r.._r..d
0240: 61 6D 67 1C 0E 80 2C 5F  72 07 01 5F 72 07 01 64  amg...,_r.._r..d
0250: 65 61 64 1C 03 80 45 06  80 F0 FF FF 7F F0 FF FF  ead...E.........
0260: 7F 79 30 30 36 00 80 2A  03 5E 72 07 01 27 03 5E  .y006..*.^r..'.^
0270: 72 07 01 06 27 03 5D 72  07 01 02 55 06 80 F0 FF  r...'.]r...U....
0280: FF 7F F0 FF FF 7F 79 30  30 36 45 06 80 F0 FF FF  ......y006E.....
0290: 7F F0 FF FF 7F 79 30 30  37 00 80 55 06 80 F0 FF  .....y007..U....
02A0: FF 7F F0 FF FF 7F 79 30  30 37 27 04 F0 FF FF 7F  ......y007'.....
02B0: 0C 5C 00 0F 80 5C 01 0F  80 2B 5E 72 07 01 10 80  .\...\...+^r....
02C0: 23 2A 03 5E 72 07 01 45  06 80 F0 FF FF 7F F0 FF  #*.^r..E........
02D0: FF 7F 79 30 30 38 00 80  4E 00 5C 72 07 01 55 06  ..y008..N.\r..U.
02E0: 80 F0 FF FF 7F F0 FF FF  7F 79 30 30 38 27 03 5C  .........y008'.\
02F0: 72 07 01 02 1C 11 80 2B  5C 72 07 01 12 80 23 2A  r......+\r....#*
0300: 03 5C 72 07 01 45 06 80  F0 FF FF 7F F0 FF FF 7F  .\r..E..........
0310: 79 30 30 39 00 80 55 06  80 F0 FF FF 7F F0 FF FF  y009..U.........
0320: 7F 79 30 30 39 79 00 5C  72 07 01 5D 72 07 01 27  .y009y.\r..]r..'
0330: 03 F0 FF FF 7F 0D 6C 5E  72 07 01 00 80 03 80 4E  ......l^r......N
0340: 01 5E 72 07 01 4E 00 5D  72 07 01 6C 5D 72 07 01  .^r..N.]r..l]r..
0350: 13 80 03 80 1C 03 80 27  03 5D 72 07 01 03 1C 0E  .......'.]r.....
0360: 80 45 06 80 F0 FF FF 7F  F0 FF FF 7F 79 30 31 30  .E..........y010
0370: 00 80 55 06 80 F0 FF FF  7F F0 FF FF 7F 79 30 31  ..U..........y01
0380: 30 2A 03 5D 72 07 01 4A  5D 72 07 01 5C 72 07 01  0*.]r..J]r..\r..
0390: 6F 76 5D 72 07 01 2B 5D  72 07 01 14 80 23 45 06  ov]r..+]r....#E.
03A0: 80 F0 FF FF 7F F0 FF FF  7F 79 30 31 31 00 80 55  .........y011..U
03B0: 06 80 F0 FF FF 7F F0 FF  FF 7F 79 30 31 31 4A F0  ..........y011J.
03C0: FF FF 7F 5D 72 07 01 2B  5C 72 07 01 15 80 23 2B  ...]r..+\r....#+
03D0: 5D 72 07 01 16 80 23 29  03 5D 72 07 01 05 27 03  ]r....#).]r...'.
03E0: 5C 72 07 01 03 27 03 5D  72 07 01 06 1C 0A 80 45  \r...'.]r......E
03F0: 06 80 F0 FF FF 7F F0 FF  FF 7F 79 30 31 33 00 80  ..........y013..
0400: 55 06 80 F0 FF FF 7F F0  FF FF 7F 79 30 31 33 2A  U..........y013*
0410: 03 5C 72 07 01 1C 0A 80  27 03 5D 72 07 01 04 1C  .\r.....'.]r....
0420: 03 80 45 06 80 F0 FF FF  7F F0 FF FF 7F 79 30 31  ..E..........y01
0430: 32 00 80 2B 5D 72 07 01  17 80 23 55 06 80 F0 FF  2..+]r....#U....
0440: FF 7F F0 FF FF 7F 79 30  31 32 45 06 80 F0 FF FF  ......y012E.....
0450: 7F F0 FF FF 7F 79 30 31  34 00 80 55 06 80 F0 FF  .....y014..U....
0460: FF 7F F0 FF FF 7F 79 30  31 34 62 01 80 5D 72 07  ......y014b..]r.
0470: 01 5D 72 07 01 6D 61 69  6E 00 80 1C 18 80 4E 01  .]r..main.....N.
0480: 5D 72 07 01 1C 0A 80 27  03 5C 72 07 01 04 1C 19  ]r.....'.\r.....
0490: 80 45 06 80 F0 FF FF 7F  F0 FF FF 7F 79 30 31 35  .E..........y015
04A0: 00 80 79 00 5C 72 07 01  5D 72 07 01 2B 5C 72 07  ..y.\r..]r..+\r.
04B0: 01 1A 80 23 1C 03 80 2A  03 5C 72 07 01 55 06 80  ...#...*.\r..U..
04C0: F0 FF FF 7F F0 FF FF 7F  79 30 31 35 27 03 5C 72  ........y015'.\r
04D0: 07 01 06 1C 0A 80 45 06  80 F0 FF FF 7F F0 FF FF  ......E.........
04E0: 7F 78 30 30 30 00 80 55  06 80 F0 FF FF 7F F0 FF  .x000..U........
04F0: FF 7F 78 30 30 30 2A 03  5C 72 07 01 27 03 5C 72  ..x000*.\r..'.\r
0500: 07 01 07 1C 0B 80 4A F0  FF FF 7F 5C 72 07 01 45  ......J....\r..E
0510: 06 80 F0 FF FF 7F F0 FF  FF 7F 78 30 30 31 00 80  ..........x001..
0520: 2B 5C 72 07 01 1B 80 23  55 06 80 F0 FF FF 7F F0  +\r....#U.......
0530: FF FF 7F 78 30 30 31 1C  0E 80 45 06 80 F0 FF FF  ...x001...E.....
0540: 7F F0 FF FF 7F 78 30 30  32 00 80 55 06 80 F0 FF  .....x002..U....
0550: FF 7F F0 FF FF 7F 78 30  30 32 1C 0E 80 2B 5C 72  ......x002...+\r
0560: 07 01 1C 80 23 45 04 80  F0 FF FF 7F F0 FF FF 7F  ....#E..........
0570: 6F 76 6C 31 00 80 45 06  80 F0 FF FF 7F F0 FF FF  ovl1..E.........
0580: 7F 78 30 30 33 00 80 1C  0E 80 2B 5C 72 07 01 1D  .x003.....+\r...
0590: 80 23 52 06 80 F0 FF FF  7F F0 FF FF 7F 78 30 30  .#R..........x00
05A0: 33 45 04 80 F0 FF FF 7F  F0 FF FF 7F 6F 76 6C 31  3E..........ovl1
05B0: 00 80 45 06 80 F0 FF FF  7F F0 FF FF 7F 78 30 30  ..E..........x00
05C0: 34 00 80 1C 0E 80 2B 5C  72 07 01 1E 80 23 52 06  4.....+\r....#R.
05D0: 80 F0 FF FF 7F F0 FF FF  7F 78 30 30 34 45 04 80  .........x004E..
05E0: F0 FF FF 7F F0 FF FF 7F  6F 76 6C 31 00 80 45 06  ........ovl1..E.
05F0: 80 F0 FF FF 7F F0 FF FF  7F 78 30 30 35 00 80 55  .........x005..U
0600: 06 80 F0 FF FF 7F F0 FF  FF 7F 78 30 30 35 1C 0E  ..........x005..
0610: 80 2B 5C 72 07 01 1F 80  23 45 06 80 F0 FF FF 7F  .+\r....#E......
0620: F0 FF FF 7F 78 30 30 36  00 80 2B 5C 72 07 01 20  ....x006..+\r.. 
0630: 80 23 55 06 80 F0 FF FF  7F F0 FF FF 7F 78 30 30  .#U..........x00
0640: 36 1C 0E 80 45 06 80 F0  FF FF 7F F0 FF FF 7F 78  6...E..........x
0650: 30 30 38 00 80 55 06 80  F0 FF FF 7F F0 FF FF 7F  008..U..........
0660: 78 30 30 38 1C 07 80 45  06 80 F0 FF FF 7F F0 FF  x008...E........
0670: FF 7F 78 30 30 37 00 80  55 06 80 F0 FF FF 7F F0  ..x007..U.......
0680: FF FF 7F 78 30 30 37 1C  07 80 45 06 80 F0 FF FF  ...x007...E.....
0690: 7F F0 FF FF 7F 78 30 31  30 00 80 55 06 80 F0 FF  .....x010..U....
06A0: FF 7F F0 FF FF 7F 78 30  31 30 45 06 80 F0 FF FF  ......x010E.....
06B0: 7F F0 FF FF 7F 78 30 30  39 00 80 55 06 80 F0 FF  .....x009..U....
06C0: FF 7F F0 FF FF 7F 78 30  30 39 1C 07 80 45 06 80  ......x009...E..
06D0: F0 FF FF 7F F0 FF FF 7F  78 30 31 31 00 80 55 06  ........x011..U.
06E0: 80 F0 FF FF 7F F0 FF FF  7F 78 30 31 31 1C 07 80  .........x011...
06F0: 29 03 5C 72 07 01 08 2B  5C 72 07 01 21 80 23 4A  ).\r...+\r..!.#J
0700: 5C 72 07 01 F0 FF FF 7F  1C 0E 80 45 06 80 F0 FF  \r.........E....
0710: FF 7F F0 FF FF 7F 78 30  31 32 00 80 6F 76 5C 72  ......x012..ov\r
0720: 07 01 55 06 80 F0 FF FF  7F F0 FF FF 7F 78 30 31  ..U..........x01
0730: 32 2B 5C 72 07 01 22 80  23 1C 0E 80 45 06 80 F0  2+\r..".#...E...
0740: FF FF 7F F0 FF FF 7F 78  30 31 33 00 80 55 06 80  .......x013..U..
0750: F0 FF FF 7F F0 FF FF 7F  78 30 31 33 29 03 5C 72  ........x013).\r
0760: 07 01 09 2B 5C 72 07 01  23 80 23 45 06 80 F0 FF  ...+\r..#.#E....
0770: FF 7F F0 FF FF 7F 78 30  31 34 00 80 1C 11 80 45  ......x014.....E
0780: 04 80 F0 FF FF 7F F0 FF  FF 7F 66 64 6F 32 00 80  ..........fdo2..
0790: 55 04 80 F0 FF FF 7F F0  FF FF 7F 66 64 6F 32 52  U..........fdo2R
07A0: 06 80 F0 FF FF 7F F0 FF  FF 7F 78 30 31 34 5C 00  ..........x014\.
07B0: 00 80 5C 01 00 80 46 00  45 04 80 F0 FF FF 7F F0  ..\...F.E.......
07C0: FF FF 7F 66 64 69 32 00  80 21 00                 ...fdi2..!.     
```

#### Opcodes

```
  0: 0x0020 [0x20] SET_CLI_EVENT_UC_FLAG: Lock player control
  1: 0x0022 [0x46] CAMERA_CONTROL: Disable user control
  2: 0x0024 [0x42] SET_CLI_EVENT_CANCEL_DATA()
  3: 0x0025 [0x45] LOAD_SCHEDULED_TASK: Load scheduler "fdo1" with entities [LocalPlayer, LocalPlayer], work=[200*, 0*]
  4: 0x0036 [0x55] WAIT_LOAD_SCHEDULER: Wait for scheduler "fdo1" with entities [LocalPlayer, LocalPlayer], work=200*
  5: 0x0045 [0x38] SET_CLIENT_EVENT_MODE(mode=19*)
  6: 0x0048 [0x79] LocalPlayer looks at LocalPlayer (Basic look)
  7: 0x0052 [0x27] REQ_SET(priority=0x03, entity_id=LocalPlayer, tag_num=0x09)
  8: 0x0059 [0x45] LOAD_SCHEDULED_TASK: Load scheduler "y000" with entities [LocalPlayer, LocalPlayer], work=[210*, 0*]
  9: 0x006A [0x55] WAIT_LOAD_SCHEDULER: Wait for scheduler "y000" with entities [LocalPlayer, LocalPlayer], work=210*
 10: 0x0079 [0x5C] MUSIC_CONTROL: Set Idle (Day) music to song 120*
 11: 0x007D [0x5C] MUSIC_CONTROL: Set Idle (Night) music to song 120*
 12: 0x0081 [0x45] LOAD_SCHEDULED_TASK: Load scheduler "fdi1" with entities [LocalPlayer, LocalPlayer], work=[200*, 0*]
 13: 0x0092 [0x55] WAIT_LOAD_SCHEDULER: Wait for scheduler "fdi1" with entities [LocalPlayer, LocalPlayer], work=200*
 14: 0x00A1 [0x62] LOAD_EVENT_SCHEDULER: Load scheduler "main" with entities [??? (ID: 17265243/0x0107725B), ??? (ID: 17265243/0x0107725B)], work=[3*, 0*]
 15: 0x00B2 [0x1C] WAIT(60* ticks)
 16: 0x00B5 [0x4E] SET_ENTITY_HIDE_FLAG: Show Yachemidot (ID: 17265246/0x0107725E)
 17: 0x00BB [0x27] REQ_SET(priority=0x03, entity_id=Yachemidot (ID: 17265246/0x0107725E), tag_num=0x02)
 18: 0x00C2 [0x27] REQ_SET(priority=0x03, entity_id=LocalPlayer, tag_num=0x0A)
 19: 0x00C9 [0x2B] Yachemidot (ID: 17265246/0x0107725E) [8271*]:
    → "<Player>, is this not amazing?"
 20: 0x00D0 [0x23] WAIT_FOR_DIALOG_INTERACTION
 21: 0x00D1 [0x2A] GET_REQ_LEVEL(level=3, entity_id=Yachemidot (ID: 17265246/0x0107725E))
 22: 0x00D7 [0x45] LOAD_SCHEDULED_TASK: Load scheduler "y001" with entities [LocalPlayer, LocalPlayer], work=[210*, 0*]
 23: 0x00E8 [0x2B] Yachemidot (ID: 17265246/0x0107725E) [8272*]:
    → "Behold! A dragon, after all this time..."
 24: 0x00EF [0x23] WAIT_FOR_DIALOG_INTERACTION
 25: 0x00F0 [0x55] WAIT_LOAD_SCHEDULER: Wait for scheduler "y001" with entities [LocalPlayer, LocalPlayer], work=210*
 26: 0x00FF [0x45] LOAD_SCHEDULED_TASK: Load scheduler "ovl1" with entities [LocalPlayer, LocalPlayer], work=[200*, 0*]
 27: 0x0110 [0x45] LOAD_SCHEDULED_TASK: Load scheduler "y002" with entities [LocalPlayer, LocalPlayer], work=[210*, 0*]
 28: 0x0121 [0x55] WAIT_LOAD_SCHEDULER: Wait for scheduler "y002" with entities [LocalPlayer, LocalPlayer], work=210*
 29: 0x0130 [0x27] REQ_SET(priority=0x03, entity_id=Unnamed NPC (ID: 17265247/0x0107725F), tag_num=0x02)
 30: 0x0137 [0x79] LocalPlayer looks at Unnamed NPC (ID: 17265247/0x0107725F) (Basic look)
 31: 0x0141 [0x1C] WAIT(30* ticks)
 32: 0x0144 [0x45] LOAD_SCHEDULED_TASK: Load scheduler "y003" with entities [LocalPlayer, LocalPlayer], work=[210*, 0*]
 33: 0x0155 [0x2A] GET_REQ_LEVEL(level=3, entity_id=Unnamed NPC (ID: 17265247/0x0107725F))
 34: 0x015B [0x55] WAIT_LOAD_SCHEDULER: Wait for scheduler "y003" with entities [LocalPlayer, LocalPlayer], work=210*
 35: 0x016A [0x27] REQ_SET(priority=0x04, entity_id=Unnamed NPC (ID: 17265247/0x0107725F), tag_num=0x03)
 36: 0x0171 [0x1C] WAIT(40* ticks)
 37: 0x0174 [0x45] LOAD_SCHEDULED_TASK: Load scheduler "y00a" with entities [LocalPlayer, LocalPlayer], work=[210*, 0*]
 38: 0x0185 [0x45] LOAD_SCHEDULED_TASK: Load scheduler "blon" with entities [LocalPlayer, LocalPlayer], work=[200*, 0*]
 39: 0x0196 [0x2A] GET_REQ_LEVEL(level=4, entity_id=Unnamed NPC (ID: 17265247/0x0107725F))
 40: 0x019C [0x55] WAIT_LOAD_SCHEDULER: Wait for scheduler "y00a" with entities [LocalPlayer, LocalPlayer], work=210*
 41: 0x01AB [0x45] LOAD_SCHEDULED_TASK: Load scheduler "blof" with entities [LocalPlayer, LocalPlayer], work=[200*, 0*]
 42: 0x01BC [0x45] LOAD_SCHEDULED_TASK: Load scheduler "y004" with entities [LocalPlayer, LocalPlayer], work=[210*, 0*]
 43: 0x01CD [0x27] REQ_SET(priority=0x03, entity_id=Yachemidot (ID: 17265246/0x0107725E), tag_num=0x03)
 44: 0x01D4 [0x2B] Yachemidot (ID: 17265246/0x0107725E) [8273*]:
    → "You have done well, <Player>. Now step back."
 45: 0x01DB [0x23] WAIT_FOR_DIALOG_INTERACTION
 46: 0x01DC [0x2A] GET_REQ_LEVEL(level=3, entity_id=Yachemidot (ID: 17265246/0x0107725E))
 47: 0x01E2 [0x29] REQ_SET_WAIT(priority=0x03, entity_id=LocalPlayer, tag_num=0x0B)
 48: 0x01E9 [0x55] WAIT_LOAD_SCHEDULER: Wait for scheduler "y004" with entities [LocalPlayer, LocalPlayer], work=210*
 49: 0x01F8 [0x45] LOAD_SCHEDULED_TASK: Load scheduler "y005" with entities [LocalPlayer, LocalPlayer], work=[210*, 0*]
 50: 0x0209 [0x55] WAIT_LOAD_SCHEDULER: Wait for scheduler "y005" with entities [LocalPlayer, LocalPlayer], work=210*
 51: 0x0218 [0x5D] SET_MUSIC_VOLUME(volume=0*, fade_time=120*)
 52: 0x021D [0x29] REQ_SET_WAIT(priority=0x03, entity_id=Yachemidot (ID: 17265246/0x0107725E), tag_num=0x04)
 53: 0x0224 [0x2B] Yachemidot (ID: 17265246/0x0107725E) [8274*]:
    → "You are about to witness the rebirth of a true dragoon!"
 54: 0x022B [0x23] WAIT_FOR_DIALOG_INTERACTION
 55: 0x022C [0x27] REQ_SET(priority=0x03, entity_id=Yachemidot (ID: 17265246/0x0107725E), tag_num=0x05)
 56: 0x0233 [0x1C] WAIT(30* ticks)
 57: 0x0236 [0x2C] CREATE_SCHEDULER_TASK: Create scheduler "damg" with entities [Unnamed NPC (ID: 17265247/0x0107725F), Unnamed NPC (ID: 17265247/0x0107725F)]
 58: 0x0243 [0x1C] WAIT(10* ticks)
 59: 0x0246 [0x2C] CREATE_SCHEDULER_TASK: Create scheduler "dead" with entities [Unnamed NPC (ID: 17265247/0x0107725F), Unnamed NPC (ID: 17265247/0x0107725F)]
 60: 0x0253 [0x1C] WAIT(60* ticks)
 61: 0x0256 [0x45] LOAD_SCHEDULED_TASK: Load scheduler "y006" with entities [LocalPlayer, LocalPlayer], work=[210*, 0*]
 62: 0x0267 [0x2A] GET_REQ_LEVEL(level=3, entity_id=Yachemidot (ID: 17265246/0x0107725E))
 63: 0x026D [0x27] REQ_SET(priority=0x03, entity_id=Yachemidot (ID: 17265246/0x0107725E), tag_num=0x06)
 64: 0x0274 [0x27] REQ_SET(priority=0x03, entity_id=Cyranuce (ID: 17265245/0x0107725D), tag_num=0x02)
 65: 0x027B [0x55] WAIT_LOAD_SCHEDULER: Wait for scheduler "y006" with entities [LocalPlayer, LocalPlayer], work=210*
 66: 0x028A [0x45] LOAD_SCHEDULED_TASK: Load scheduler "y007" with entities [LocalPlayer, LocalPlayer], work=[210*, 0*]
 67: 0x029B [0x55] WAIT_LOAD_SCHEDULER: Wait for scheduler "y007" with entities [LocalPlayer, LocalPlayer], work=210*
 68: 0x02AA [0x27] REQ_SET(priority=0x04, entity_id=LocalPlayer, tag_num=0x0C)
 69: 0x02B1 [0x5C] MUSIC_CONTROL: Set Idle (Day) music to song 161*
 70: 0x02B5 [0x5C] MUSIC_CONTROL: Set Idle (Night) music to song 161*
 71: 0x02B9 [0x2B] Yachemidot (ID: 17265246/0x0107725E) [8275*]:
    → "Stay where you are! Take a single step, and this dragon's life is forfeit..."
 72: 0x02C0 [0x23] WAIT_FOR_DIALOG_INTERACTION
 73: 0x02C1 [0x2A] GET_REQ_LEVEL(level=3, entity_id=Yachemidot (ID: 17265246/0x0107725E))
 74: 0x02C7 [0x45] LOAD_SCHEDULED_TASK: Load scheduler "y008" with entities [LocalPlayer, LocalPlayer], work=[210*, 0*]
 75: 0x02D8 [0x4E] SET_ENTITY_HIDE_FLAG: Show Rahal (ID: 17265244/0x0107725C)
 76: 0x02DE [0x55] WAIT_LOAD_SCHEDULER: Wait for scheduler "y008" with entities [LocalPlayer, LocalPlayer], work=210*
 77: 0x02ED [0x27] REQ_SET(priority=0x03, entity_id=Rahal (ID: 17265244/0x0107725C), tag_num=0x02)
 78: 0x02F4 [0x1C] WAIT(90* ticks)
 79: 0x02F7 [0x2B] Rahal (ID: 17265244/0x0107725C) [8276*]:
    → "Cyranuce! I've come too late...!"
 80: 0x02FE [0x23] WAIT_FOR_DIALOG_INTERACTION
 81: 0x02FF [0x2A] GET_REQ_LEVEL(level=3, entity_id=Rahal (ID: 17265244/0x0107725C))
 82: 0x0305 [0x45] LOAD_SCHEDULED_TASK: Load scheduler "y009" with entities [LocalPlayer, LocalPlayer], work=[210*, 0*]
 83: 0x0316 [0x55] WAIT_LOAD_SCHEDULER: Wait for scheduler "y009" with entities [LocalPlayer, LocalPlayer], work=210*
 84: 0x0325 [0x79] Rahal (ID: 17265244/0x0107725C) looks at Cyranuce (ID: 17265245/0x0107725D) (Basic look)
 85: 0x032F [0x27] REQ_SET(priority=0x03, entity_id=LocalPlayer, tag_num=0x0D)
 86: 0x0336 [0x6C] FADE_ENTITY_COLOR(entity_id=Yachemidot (ID: 17265246/0x0107725E), end_alpha=0*, fade_time=60*)
 87: 0x033F [0x4E] SET_ENTITY_HIDE_FLAG: Hide Yachemidot (ID: 17265246/0x0107725E)
 88: 0x0345 [0x4E] SET_ENTITY_HIDE_FLAG: Show Cyranuce (ID: 17265245/0x0107725D)
 89: 0x034B [0x6C] FADE_ENTITY_COLOR(entity_id=Cyranuce (ID: 17265245/0x0107725D), end_alpha=128*, fade_time=60*)
 90: 0x0354 [0x1C] WAIT(60* ticks)
 91: 0x0357 [0x27] REQ_SET(priority=0x03, entity_id=Cyranuce (ID: 17265245/0x0107725D), tag_num=0x03)
 92: 0x035E [0x1C] WAIT(10* ticks)
 93: 0x0361 [0x45] LOAD_SCHEDULED_TASK: Load scheduler "y010" with entities [LocalPlayer, LocalPlayer], work=[210*, 0*]
 94: 0x0372 [0x55] WAIT_LOAD_SCHEDULER: Wait for scheduler "y010" with entities [LocalPlayer, LocalPlayer], work=210*
 95: 0x0381 [0x2A] GET_REQ_LEVEL(level=3, entity_id=Cyranuce (ID: 17265245/0x0107725D))
 96: 0x0387 [0x4A] Cyranuce (ID: 17265245/0x0107725D) looks at Rahal (ID: 17265244/0x0107725C)
 97: 0x0390 [0x6F] WAIT_FRAME_DELAY: Yield until WaitTime reaches zero
 98: 0x0391 [0x76] CHECK_ENTITY_RENDER_FLAGS: Wait until Cyranuce (ID: 17265245/0x0107725D) Render.Flags0 and Render.Flags3 conditions are met
 99: 0x0396 [0x2B] Cyranuce (ID: 17265245/0x0107725D) [8277*]:
    → "Ahahaha...! How I've waited for this! The seal you have placed upon me is broken, Rahal Dragonslayer."
100: 0x039D [0x23] WAIT_FOR_DIALOG_INTERACTION
101: 0x039E [0x45] LOAD_SCHEDULED_TASK: Load scheduler "y011" with entities [LocalPlayer, LocalPlayer], work=[210*, 0*]
102: 0x03AF [0x55] WAIT_LOAD_SCHEDULER: Wait for scheduler "y011" with entities [LocalPlayer, LocalPlayer], work=210*
103: 0x03BE [0x4A] LocalPlayer looks at Cyranuce (ID: 17265245/0x0107725D)
104: 0x03C7 [0x2B] Rahal (ID: 17265244/0x0107725C) [8278*]:
    → "So you still walk among us, Cyranuce!"
105: 0x03CE [0x23] WAIT_FOR_DIALOG_INTERACTION
106: 0x03CF [0x2B] Cyranuce (ID: 17265245/0x0107725D) [8279*]:
    → "Hah! That half-witted beastmaster was the one crushed to death in the cell."
107: 0x03D6 [0x23] WAIT_FOR_DIALOG_INTERACTION
108: 0x03D7 [0x29] REQ_SET_WAIT(priority=0x03, entity_id=Cyranuce (ID: 17265245/0x0107725D), tag_num=0x05)
109: 0x03DE [0x27] REQ_SET(priority=0x03, entity_id=Rahal (ID: 17265244/0x0107725C), tag_num=0x03)
110: 0x03E5 [0x27] REQ_SET(priority=0x03, entity_id=Cyranuce (ID: 17265245/0x0107725D), tag_num=0x06)
111: 0x03EC [0x1C] WAIT(30* ticks)
112: 0x03EF [0x45] LOAD_SCHEDULED_TASK: Load scheduler "y013" with entities [LocalPlayer, LocalPlayer], work=[210*, 0*]
113: 0x0400 [0x55] WAIT_LOAD_SCHEDULER: Wait for scheduler "y013" with entities [LocalPlayer, LocalPlayer], work=210*
114: 0x040F [0x2A] GET_REQ_LEVEL(level=3, entity_id=Rahal (ID: 17265244/0x0107725C))
115: 0x0415 [0x1C] WAIT(30* ticks)
116: 0x0418 [0x27] REQ_SET(priority=0x03, entity_id=Cyranuce (ID: 17265245/0x0107725D), tag_num=0x04)
117: 0x041F [0x1C] WAIT(60* ticks)
118: 0x0422 [0x45] LOAD_SCHEDULED_TASK: Load scheduler "y012" with entities [LocalPlayer, LocalPlayer], work=[210*, 0*]
119: 0x0433 [0x2B] Cyranuce (ID: 17265245/0x0107725D) [8280*]:
    → "With the blood of this infant wyrm, my transformation into full dragon form will be complete!"
120: 0x043A [0x23] WAIT_FOR_DIALOG_INTERACTION
121: 0x043B [0x55] WAIT_LOAD_SCHEDULER: Wait for scheduler "y012" with entities [LocalPlayer, LocalPlayer], work=210*
122: 0x044A [0x45] LOAD_SCHEDULED_TASK: Load scheduler "y014" with entities [LocalPlayer, LocalPlayer], work=[210*, 0*]
123: 0x045B [0x55] WAIT_LOAD_SCHEDULER: Wait for scheduler "y014" with entities [LocalPlayer, LocalPlayer], work=210*
124: 0x046A [0x62] LOAD_EVENT_SCHEDULER: Load scheduler "main" with entities [Cyranuce (ID: 17265245/0x0107725D), Cyranuce (ID: 17265245/0x0107725D)], work=[1*, 0*]
125: 0x047B [0x1C] WAIT(180* ticks)
126: 0x047E [0x4E] SET_ENTITY_HIDE_FLAG: Hide Cyranuce (ID: 17265245/0x0107725D)
127: 0x0484 [0x1C] WAIT(30* ticks)
128: 0x0487 [0x27] REQ_SET(priority=0x03, entity_id=Rahal (ID: 17265244/0x0107725C), tag_num=0x04)
129: 0x048E [0x1C] WAIT(15* ticks)
130: 0x0491 [0x45] LOAD_SCHEDULED_TASK: Load scheduler "y015" with entities [LocalPlayer, LocalPlayer], work=[210*, 0*]
131: 0x04A2 [0x79] Rahal (ID: 17265244/0x0107725C) looks at Cyranuce (ID: 17265245/0x0107725D) (Basic look)
132: 0x04AC [0x2B] Rahal (ID: 17265244/0x0107725C) [8281*]:
    → "Cyranuce... You will not become the dragon. The dragon will consume you...!"
133: 0x04B3 [0x23] WAIT_FOR_DIALOG_INTERACTION
134: 0x04B4 [0x1C] WAIT(60* ticks)
135: 0x04B7 [0x2A] GET_REQ_LEVEL(level=3, entity_id=Rahal (ID: 17265244/0x0107725C))
136: 0x04BD [0x55] WAIT_LOAD_SCHEDULER: Wait for scheduler "y015" with entities [LocalPlayer, LocalPlayer], work=210*
137: 0x04CC [0x27] REQ_SET(priority=0x03, entity_id=Rahal (ID: 17265244/0x0107725C), tag_num=0x06)
138: 0x04D3 [0x1C] WAIT(30* ticks)
139: 0x04D6 [0x45] LOAD_SCHEDULED_TASK: Load scheduler "x000" with entities [LocalPlayer, LocalPlayer], work=[210*, 0*]
140: 0x04E7 [0x55] WAIT_LOAD_SCHEDULER: Wait for scheduler "x000" with entities [LocalPlayer, LocalPlayer], work=210*
141: 0x04F6 [0x2A] GET_REQ_LEVEL(level=3, entity_id=Rahal (ID: 17265244/0x0107725C))
142: 0x04FC [0x27] REQ_SET(priority=0x03, entity_id=Rahal (ID: 17265244/0x0107725C), tag_num=0x07)
143: 0x0503 [0x1C] WAIT(40* ticks)
144: 0x0506 [0x4A] LocalPlayer looks at Rahal (ID: 17265244/0x0107725C)
145: 0x050F [0x45] LOAD_SCHEDULED_TASK: Load scheduler "x001" with entities [LocalPlayer, LocalPlayer], work=[210*, 0*]
146: 0x0520 [0x2B] Rahal (ID: 17265244/0x0107725C) [8282*]:
    → "Stay back! This wyvern will grow to maturity knowing only the need for revenge in its heart..."
147: 0x0527 [0x23] WAIT_FOR_DIALOG_INTERACTION
148: 0x0528 [0x55] WAIT_LOAD_SCHEDULER: Wait for scheduler "x001" with entities [LocalPlayer, LocalPlayer], work=210*
149: 0x0537 [0x1C] WAIT(10* ticks)
150: 0x053A [0x45] LOAD_SCHEDULED_TASK: Load scheduler "x002" with entities [LocalPlayer, LocalPlayer], work=[210*, 0*]
151: 0x054B [0x55] WAIT_LOAD_SCHEDULER: Wait for scheduler "x002" with entities [LocalPlayer, LocalPlayer], work=210*
152: 0x055A [0x1C] WAIT(10* ticks)
153: 0x055D [0x2B] Rahal (ID: 17265244/0x0107725C) [8283*]:
    → "Even though it has committed no sin, it is my duty as a dragonslayer to exterminate wyverns that bear the unholy sign."
154: 0x0564 [0x23] WAIT_FOR_DIALOG_INTERACTION
155: 0x0565 [0x45] LOAD_SCHEDULED_TASK: Load scheduler "ovl1" with entities [LocalPlayer, LocalPlayer], work=[200*, 0*]
156: 0x0576 [0x45] LOAD_SCHEDULED_TASK: Load scheduler "x003" with entities [LocalPlayer, LocalPlayer], work=[210*, 0*]
157: 0x0587 [0x1C] WAIT(10* ticks)
158: 0x058A [0x2B] Rahal (ID: 17265244/0x0107725C) [8284*]:
    → "Hmm, this wyvern is rare, for it bears neither mark. ...However, it is not the only one I have encountered."
159: 0x0591 [0x23] WAIT_FOR_DIALOG_INTERACTION
160: 0x0592 [0x52] END_LOAD_SCHEDULER: End scheduler "x003" with entities [LocalPlayer, LocalPlayer], work=210*
161: 0x05A1 [0x45] LOAD_SCHEDULED_TASK: Load scheduler "ovl1" with entities [LocalPlayer, LocalPlayer], work=[200*, 0*]
162: 0x05B2 [0x45] LOAD_SCHEDULED_TASK: Load scheduler "x004" with entities [LocalPlayer, LocalPlayer], work=[210*, 0*]
163: 0x05C3 [0x1C] WAIT(10* ticks)
164: 0x05C6 [0x2B] Rahal (ID: 17265244/0x0107725C) [8285*]:
    → "I once witnessed the birth of a wyvern that was free of either sign. And the person who forged a pact with that wyvern was my friend...Cyranuce."
165: 0x05CD [0x23] WAIT_FOR_DIALOG_INTERACTION
166: 0x05CE [0x52] END_LOAD_SCHEDULER: End scheduler "x004" with entities [LocalPlayer, LocalPlayer], work=210*
167: 0x05DD [0x45] LOAD_SCHEDULED_TASK: Load scheduler "ovl1" with entities [LocalPlayer, LocalPlayer], work=[200*, 0*]
168: 0x05EE [0x45] LOAD_SCHEDULED_TASK: Load scheduler "x005" with entities [LocalPlayer, LocalPlayer], work=[210*, 0*]
169: 0x05FF [0x55] WAIT_LOAD_SCHEDULER: Wait for scheduler "x005" with entities [LocalPlayer, LocalPlayer], work=210*
170: 0x060E [0x1C] WAIT(10* ticks)
171: 0x0611 [0x2B] Rahal (ID: 17265244/0x0107725C) [8286*]:
    → "But as it grew, the unholy sign began to emerge. I stripped Cyranuce of his powers and locked him in the oubliette, hoping it would slow down the wyvern's increasing hold on his spirit."
172: 0x0618 [0x23] WAIT_FOR_DIALOG_INTERACTION
173: 0x0619 [0x45] LOAD_SCHEDULED_TASK: Load scheduler "x006" with entities [LocalPlayer, LocalPlayer], work=[210*, 0*]
174: 0x062A [0x2B] Rahal (ID: 17265244/0x0107725C) [8287*]:
    → "It was all in vain... If only I had slain that wyvern when I had the chance! Now, I must finish off this creature to prevent the same tragedy from happening again!"
175: 0x0631 [0x23] WAIT_FOR_DIALOG_INTERACTION
176: 0x0632 [0x55] WAIT_LOAD_SCHEDULER: Wait for scheduler "x006" with entities [LocalPlayer, LocalPlayer], work=210*
177: 0x0641 [0x1C] WAIT(10* ticks)
178: 0x0644 [0x45] LOAD_SCHEDULED_TASK: Load scheduler "x008" with entities [LocalPlayer, LocalPlayer], work=[210*, 0*]
179: 0x0655 [0x55] WAIT_LOAD_SCHEDULER: Wait for scheduler "x008" with entities [LocalPlayer, LocalPlayer], work=210*
180: 0x0664 [0x1C] WAIT(120* ticks)
181: 0x0667 [0x45] LOAD_SCHEDULED_TASK: Load scheduler "x007" with entities [LocalPlayer, LocalPlayer], work=[210*, 0*]
182: 0x0678 [0x55] WAIT_LOAD_SCHEDULER: Wait for scheduler "x007" with entities [LocalPlayer, LocalPlayer], work=210*
183: 0x0687 [0x1C] WAIT(120* ticks)
184: 0x068A [0x45] LOAD_SCHEDULED_TASK: Load scheduler "x010" with entities [LocalPlayer, LocalPlayer], work=[210*, 0*]
185: 0x069B [0x55] WAIT_LOAD_SCHEDULER: Wait for scheduler "x010" with entities [LocalPlayer, LocalPlayer], work=210*
186: 0x06AA [0x45] LOAD_SCHEDULED_TASK: Load scheduler "x009" with entities [LocalPlayer, LocalPlayer], work=[210*, 0*]
187: 0x06BB [0x55] WAIT_LOAD_SCHEDULER: Wait for scheduler "x009" with entities [LocalPlayer, LocalPlayer], work=210*
188: 0x06CA [0x1C] WAIT(120* ticks)
189: 0x06CD [0x45] LOAD_SCHEDULED_TASK: Load scheduler "x011" with entities [LocalPlayer, LocalPlayer], work=[210*, 0*]
190: 0x06DE [0x55] WAIT_LOAD_SCHEDULER: Wait for scheduler "x011" with entities [LocalPlayer, LocalPlayer], work=210*
191: 0x06ED [0x1C] WAIT(120* ticks)
192: 0x06F0 [0x29] REQ_SET_WAIT(priority=0x03, entity_id=Rahal (ID: 17265244/0x0107725C), tag_num=0x08)
193: 0x06F7 [0x2B] Rahal (ID: 17265244/0x0107725C) [8288*]:
    → "...We may need its power in our search for Cyranuce."
194: 0x06FE [0x23] WAIT_FOR_DIALOG_INTERACTION
195: 0x06FF [0x4A] Rahal (ID: 17265244/0x0107725C) looks at LocalPlayer
196: 0x0708 [0x1C] WAIT(10* ticks)
197: 0x070B [0x45] LOAD_SCHEDULED_TASK: Load scheduler "x012" with entities [LocalPlayer, LocalPlayer], work=[210*, 0*]
198: 0x071C [0x6F] WAIT_FRAME_DELAY: Yield until WaitTime reaches zero
199: 0x071D [0x76] CHECK_ENTITY_RENDER_FLAGS: Wait until Rahal (ID: 17265244/0x0107725C) Render.Flags0 and Render.Flags3 conditions are met
200: 0x0722 [0x55] WAIT_LOAD_SCHEDULER: Wait for scheduler "x012" with entities [LocalPlayer, LocalPlayer], work=210*
201: 0x0731 [0x2B] Rahal (ID: 17265244/0x0107725C) [8289*]:
    → "For the moment, I will give the care of this wyvern over to a friend of mine. He will nurse it back to health. But once we have tracked down Cyranuce, it dies by my hand. Understood?"
202: 0x0738 [0x23] WAIT_FOR_DIALOG_INTERACTION
203: 0x0739 [0x1C] WAIT(10* ticks)
204: 0x073C [0x45] LOAD_SCHEDULED_TASK: Load scheduler "x013" with entities [LocalPlayer, LocalPlayer], work=[210*, 0*]
205: 0x074D [0x55] WAIT_LOAD_SCHEDULER: Wait for scheduler "x013" with entities [LocalPlayer, LocalPlayer], work=210*
206: 0x075C [0x29] REQ_SET_WAIT(priority=0x03, entity_id=Rahal (ID: 17265244/0x0107725C), tag_num=0x09)
207: 0x0763 [0x2B] Rahal (ID: 17265244/0x0107725C) [8290*]:
    → "Cyranuce, I still believe in you... You must believe in me, too."
208: 0x076A [0x23] WAIT_FOR_DIALOG_INTERACTION
209: 0x076B [0x45] LOAD_SCHEDULED_TASK: Load scheduler "x014" with entities [LocalPlayer, LocalPlayer], work=[210*, 0*]
210: 0x077C [0x1C] WAIT(90* ticks)
211: 0x077F [0x45] LOAD_SCHEDULED_TASK: Load scheduler "fdo2" with entities [LocalPlayer, LocalPlayer], work=[200*, 0*]
212: 0x0790 [0x55] WAIT_LOAD_SCHEDULER: Wait for scheduler "fdo2" with entities [LocalPlayer, LocalPlayer], work=200*
213: 0x079F [0x52] END_LOAD_SCHEDULER: End scheduler "x014" with entities [LocalPlayer, LocalPlayer], work=210*
214: 0x07AE [0x5C] MUSIC_CONTROL: Set Idle (Day) music to song 0*
215: 0x07B2 [0x5C] MUSIC_CONTROL: Set Idle (Night) music to song 0*
216: 0x07B6 [0x46] CAMERA_CONTROL: Restore default settings
217: 0x07B8 [0x45] LOAD_SCHEDULED_TASK: Load scheduler "fdi2" with entities [LocalPlayer, LocalPlayer], work=[200*, 0*]
218: 0x07C9 [0x21] END_EVENT
219: 0x07CA [0x00] END_REQSTACK()
```
