# Event 171

## Metadata

| Field           | Value    |
|-----------------|----------|
| Event Index     | 13/28    |
| Offset          | 0x0114   |
| Data Size       | 29 bytes |
| Calculated Size | 29 bytes |
| Instructions    | 10       |

```
      00 01 02 03 04 05 06 07  08 09 0A 0B 0C 0D 0E 0F
      -- -- -- -- -- -- -- --  -- -- -- -- -- -- -- --
0110:             1E F0 FF FF  7F 6F 70 29 08 73 10 0F      .....op).s..
0120: 01 01 1D 0F 80 23 29 08  73 10 0F 01 05 20 00 21  .....#).s.... .!
0130: 00                                                .               
```

## Opcodes

```
  0: 0x0114 [0x1E] EventEntity looks at LocalPlayer and starts talking
  1: 0x0119 [0x6F] WAIT_FRAME_DELAY: Yield until WaitTime reaches zero
  2: 0x011A [0x70] WAIT_ENTITY_RENDER_FLAG: Wait while EventEntity->Render.Flags3 bit 2 is set (cancel turn if not)
  3: 0x011B [0x29] REQ_SET_WAIT(priority=0x08, entity_id=Bopa Greso (ID: 17764467/0x010F1073), tag_num=0x01)
  4: 0x0122 [0x1D] PRINT_EVENT_MESSAGE(message_id=7843*)
    → "I'm surprrrised you were able to find what we wanted. Now I can harrrdly wait to join the top cat in making the deal with you. Heh-heh-heh...\u007F1\u0000\u0007"
  5: 0x0125 [0x23] WAIT_FOR_DIALOG_INTERACTION
  6: 0x0126 [0x29] REQ_SET_WAIT(priority=0x08, entity_id=Bopa Greso (ID: 17764467/0x010F1073), tag_num=0x05)
  7: 0x012D [0x20] SET_CLI_EVENT_UC_FLAG: Unlock player control
  8: 0x012F [0x21] END_EVENT
  9: 0x0130 [0x00] END_REQSTACK()
```
