# Event 174

## Metadata

| Field           | Value    |
|-----------------|----------|
| Event Index     | 14/28    |
| Offset          | 0x0131   |
| Data Size       | 33 bytes |
| Calculated Size | 33 bytes |
| Instructions    | 12       |

```
      00 01 02 03 04 05 06 07  08 09 0A 0B 0C 0D 0E 0F
      -- -- -- -- -- -- -- --  -- -- -- -- -- -- -- --
0130:    1E F0 FF FF 7F 6F 70  29 08 73 10 0F 01 01 1D   .....op).s.....
0140: 10 80 23 1D 11 80 23 29  08 73 10 0F 01 05 20 00  ..#...#).s.... .
0150: 21 00                                             !.              
```

## Opcodes

```
  0: 0x0131 [0x1E] EventEntity looks at LocalPlayer and starts talking
  1: 0x0136 [0x6F] WAIT_FRAME_DELAY: Yield until WaitTime reaches zero
  2: 0x0137 [0x70] WAIT_ENTITY_RENDER_FLAG: Wait while EventEntity->Render.Flags3 bit 2 is set (cancel turn if not)
  3: 0x0138 [0x29] REQ_SET_WAIT(priority=0x08, entity_id=Bopa Greso (ID: 17764467/0x010F1073), tag_num=0x01)
  4: 0x013F [0x1D] PRINT_EVENT_MESSAGE(message_id=7846*)
    → "Some Carrrdians were carrying several larrrge boxes out of the Priming Gate in Windurst Walls.\u007F1\u0000\u0007"
  5: 0x0142 [0x23] WAIT_FOR_DIALOG_INTERACTION
  6: 0x0143 [0x1D] PRINT_EVENT_MESSAGE(message_id=7847*)
    → "It was fun pulling a swift one on them, but it wasn't worrrth the trouble. Don't you darrre say crime doesn't pay!\u007F1\u0000\u0007"
  7: 0x0146 [0x23] WAIT_FOR_DIALOG_INTERACTION
  8: 0x0147 [0x29] REQ_SET_WAIT(priority=0x08, entity_id=Bopa Greso (ID: 17764467/0x010F1073), tag_num=0x05)
  9: 0x014E [0x20] SET_CLI_EVENT_UC_FLAG: Unlock player control
 10: 0x0150 [0x21] END_EVENT
 11: 0x0151 [0x00] END_REQSTACK()
```
