# Event 181

## Metadata

| Field           | Value    |
|-----------------|----------|
| Event Index     | 4/4      |
| Offset          | 0x04A4   |
| Data Size       | 71 bytes |
| Calculated Size | 71 bytes |
| Instructions    | 11       |

```
      00 01 02 03 04 05 06 07  08 09 0A 0B 0C 0D 0E 0F
      -- -- -- -- -- -- -- --  -- -- -- -- -- -- -- --
04A0:             4A F0 FF FF  7F 0F 80 0F 01 4A 0F 80      J........J..
04B0: 0F 01 F0 FF FF 7F 5B 23  80 0F 80 0F 01 0F 80 0F  ......[#........
04C0: 01 74 6C 6B 30 03 03 10  28 80 2B 0F 80 0F 01 2C  .tlk0...(.+....,
04D0: 80 23 2B 0F 80 0F 01 2D  80 23 5B 23 80 0F 80 0F  .#+....-.#[#....
04E0: 01 0F 80 0F 01 74 6C 6B  31 21 00                 .....tlk1!.     
```

## Opcodes

```
  0: 0x04A4 [0x4A] LocalPlayer looks at Abelard (ID: 17793039/0x010F800F)
  1: 0x04AD [0x4A] Abelard (ID: 17793039/0x010F800F) looks at LocalPlayer
  2: 0x04B6 [0x5B] LOAD_EXT_SCHEDULER: Load scheduler "tlk0" with entities [Abelard (ID: 17793039/0x010F800F), Abelard (ID: 17793039/0x010F800F)], work=60*
  3: 0x04C5 [0x03] Work_Zone[3] = 9082*
  4: 0x04CA [0x2B] Abelard (ID: 17793039/0x010F800F) [8001*]:
    → "Wrest three \u0001\u0005%\u0002\u0001\u0000\u0000 from those buzzing menaces located around either of the two aforementioned crags.\u007F1\u0000\u0007"
  5: 0x04D1 [0x23] WAIT_FOR_DIALOG_INTERACTION
  6: 0x04D2 [0x2B] Abelard (ID: 17793039/0x010F800F) [8002*]:
    → "Of course, your efforts will be duly rewarded.\u007F1\u0000\u0007"
  7: 0x04D9 [0x23] WAIT_FOR_DIALOG_INTERACTION
  8: 0x04DA [0x5B] LOAD_EXT_SCHEDULER: Load scheduler "tlk1" with entities [Abelard (ID: 17793039/0x010F800F), Abelard (ID: 17793039/0x010F800F)], work=60*
  9: 0x04E9 [0x21] END_EVENT
 10: 0x04EA [0x00] END_REQSTACK()
```
