# Event 126

## Metadata

| Field           | Value    |
|-----------------|----------|
| Event Index     | 10/16    |
| Offset          | 0x0324   |
| Data Size       | 37 bytes |
| Calculated Size | 37 bytes |
| Instructions    | 15       |

```
      00 01 02 03 04 05 06 07  08 09 0A 0B 0C 0D 0E 0F
      -- -- -- -- -- -- -- --  -- -- -- -- -- -- -- --
0320:             20 01 42 1E  F0 FF FF 7F 1D 5D 80 23       .B......].#
0330: 1D 5E 80 23 02 02 10 00  80 00 43 03 48 5F 80 23  .^.#......C.H_.#
0340: 01 47 03 48 60 80 23 21  00                       .G.H`.#!.       
```

## Opcodes

```
  0: 0x0324 [0x20] SET_CLI_EVENT_UC_FLAG: Lock player control
  1: 0x0326 [0x42] SET_CLI_EVENT_CANCEL_DATA()
  2: 0x0327 [0x1E] EventEntity looks at LocalPlayer and starts talking
  3: 0x032C [0x1D] PRINT_EVENT_MESSAGE(message_id=7560*)
    → "Huh? A petition to save the clock tower? Where do I sign? So this is why Galmut looked so worried when he stopped by a while ago.\u007F1\u0000\u0007"
  4: 0x032F [0x23] WAIT_FOR_DIALOG_INTERACTION
  5: 0x0330 [0x1D] PRINT_EVENT_MESSAGE(message_id=7561*)
    → "That Galmut... He's always pestering us to have a clock workers' day. I tell him nobody would come except for him and Mr. Narihira.\u007F1\u0000\u0007"
  6: 0x0333 [0x23] WAIT_FOR_DIALOG_INTERACTION
  7: 0x0334 [0x02] IF !(Work_Zone[2] == 0*) GOTO 0x0343
  8: 0x033C [0x48] [System] [7005*]:
    → "The petition is complete!\u007F1\u0000\u0007"
  9: 0x033F [0x23] WAIT_FOR_DIALOG_INTERACTION
 10: 0x0340 [0x01] GOTO 0x0347

SUBROUTINE_0343:
 11: 0x0343 [0x48] [System] [7006*]:
    → "You have 
\u0000 more \u007F\u0012\u0000[signature/signatures] to go.\u007F1\u0000\u0007"
 12: 0x0346 [0x23] WAIT_FOR_DIALOG_INTERACTION
 13: 0x0347 [0x21] END_EVENT
 14: 0x0348 [0x00] END_REQSTACK()
```
