# Event 65535

## Metadata

| Field           | Value    |
|-----------------|----------|
| Event Index     | 7/16     |
| Offset          | 0x02DE   |
| Data Size       | 53 bytes |
| Calculated Size | 53 bytes |
| Instructions    | 10       |

```
      00 01 02 03 04 05 06 07  08 09 0A 0B 0C 0D 0E 0F
      -- -- -- -- -- -- -- --  -- -- -- -- -- -- -- --
02D0:                                            22 00                ".
02E0: 32 2B 80 1F 00 56 80 57  80 00 80 1F 01 39 58 80  2+...V.W.....9X.
02F0: 6F 76 F8 FF FF 7F 5B 59  80 F8 FF FF 7F F8 FF FF  ov....[Y........
0300: 7F 67 72 65 30 53 F8 FF  FF 7F F8 FF FF 7F 67 72  .gre0S........gr
0310: 65 30 00                                          e0.             
```

## Opcodes

```
  0: 0x02DE [0x22] ENTITY_HIDE_FLAG(enabled=0x00)
  1: 0x02E0 [0x32] ExtData[1]->MainSpeed = 13* * 0.1
  2: 0x02E3 [0x1F] MOVE_ENTITY: EventEntity moves to X=-62.869*, Z=78.998*, Y=0.000*
  3: 0x02EB [0x1F] MOVE_ENTITY: Update entity position (mode=1)
  4: 0x02ED [0x39] SET_ENTITY_DIRECTION(direction=20.5°*)
  5: 0x02F0 [0x6F] WAIT_FRAME_DELAY: Yield until WaitTime reaches zero
  6: 0x02F1 [0x76] CHECK_ENTITY_RENDER_FLAGS: Wait until EventEntity Render.Flags0 and Render.Flags3 conditions are met
  7: 0x02F6 [0x5B] LOAD_EXT_SCHEDULER(work_offset=65*, entity1=EventEntity, entity2=EventEntity, action="gre0")
  8: 0x0305 [0x53] WAIT_SCHEDULER_TASK(entity1=EventEntity, entity2=EventEntity, action_id="gre0")
  9: 0x0312 [0x00] END_REQSTACK()
```
