# Event 65535

## Metadata

| Field           | Value    |
|-----------------|----------|
| Event Index     | 26/60    |
| Offset          | 0x030E   |
| Data Size       | 58 bytes |
| Calculated Size | 58 bytes |
| Instructions    | 12       |

```
      00 01 02 03 04 05 06 07  08 09 0A 0B 0C 0D 0E 0F
      -- -- -- -- -- -- -- --  -- -- -- -- -- -- -- --
0300:                                            BA F8                ..
0310: FF FF 7F 52 80 53 80 54  80 55 80 1C 43 80 1F 00  ...R.S.T.U..C...
0320: 56 80 57 80 58 80 1F 01  1F 00 59 80 5A 80 5B 80  V.W.X.....Y.Z.[.
0330: 1F 01 1F 00 5C 80 5D 80  5E 80 1F 01 1F 00 5F 80  ....\.].^....._.
0340: 60 80 61 80 1F 01 6F 00                           `.a...o.        
```

## Opcodes

```
  0: 0x030E [0xBA] SET_ENTITY_POSITION(entity_id=EventEntity, pos_x=18.739*, pos_z=-24.986*, pos_y=-20.249*, direction=313.8°*)
  1: 0x031B [0x1C] WAIT(30* ticks)
  2: 0x031E [0x1F] MOVE_ENTITY: EventEntity moves to X=23.135*, Z=-20.854*, Y=-21.499*
  3: 0x0326 [0x1F] MOVE_ENTITY: Update entity position (mode=1)
  4: 0x0328 [0x1F] MOVE_ENTITY: EventEntity moves to X=27.346*, Z=-14.785*, Y=-22.999*
  5: 0x0330 [0x1F] MOVE_ENTITY: Update entity position (mode=1)
  6: 0x0332 [0x1F] MOVE_ENTITY: EventEntity moves to X=30.028*, Z=-9.171*, Y=-24.249*
  7: 0x033A [0x1F] MOVE_ENTITY: Update entity position (mode=1)
  8: 0x033C [0x1F] MOVE_ENTITY: EventEntity moves to X=31.255*, Z=-0.260*, Y=-25.999*
  9: 0x0344 [0x1F] MOVE_ENTITY: Update entity position (mode=1)
 10: 0x0346 [0x6F] WAIT_FRAME_DELAY: Yield until WaitTime reaches zero
 11: 0x0347 [0x00] END_REQSTACK()
```
