# Event 65535

## Metadata

| Field           | Value    |
|-----------------|----------|
| Event Index     | 21/60    |
| Offset          | 0x01FE   |
| Data Size       | 62 bytes |
| Calculated Size | 62 bytes |
| Instructions    | 11       |

```
      00 01 02 03 04 05 06 07  08 09 0A 0B 0C 0D 0E 0F
      -- -- -- -- -- -- -- --  -- -- -- -- -- -- -- --
01F0:                                            1C 27                .'
0200: 80 1F 00 3B 80 3C 80 34  80 1F 01 1F 00 3D 80 3E  ...;.<.4.....=.>
0210: 80 34 80 1F 01 6F 4A 03  E3 05 01 36 E2 05 01 79  .4...oJ....6...y
0220: 00 03 E3 05 01 36 E2 05  01 1C 27 80 5B 3F 80 03  .....6....'.[?..
0230: E3 05 01 03 E3 05 01 68  61 69 30 00              .......hai0.    
```

## Opcodes

```
  0: 0x01FE [0x1C] WAIT(60* ticks)
  1: 0x0201 [0x1F] MOVE_ENTITY: EventEntity moves to X=-0.292*, Z=27.769*, Y=0.499*
  2: 0x0209 [0x1F] MOVE_ENTITY: Update entity position (mode=1)
  3: 0x020B [0x1F] MOVE_ENTITY: EventEntity moves to X=0.130*, Z=28.511*, Y=0.499*
  4: 0x0213 [0x1F] MOVE_ENTITY: Update entity position (mode=1)
  5: 0x0215 [0x6F] WAIT_FRAME_DELAY: Yield until WaitTime reaches zero
  6: 0x0216 [0x4A] Syu Befrathi (ID: 17163011/0x0105E303) looks at Lehko Habhoka (ID: 17162806/0x0105E236)
  7: 0x021F [0x79] Syu Befrathi (ID: 17163011/0x0105E303) looks at Lehko Habhoka (ID: 17162806/0x0105E236) (Basic look)
  8: 0x0229 [0x1C] WAIT(60* ticks)
  9: 0x022C [0x5B] LOAD_EXT_SCHEDULER(work_offset=81*, entity1=Syu Befrathi (ID: 17163011/0x0105E303), entity2=Syu Befrathi (ID: 17163011/0x0105E303), action="hai0")
 10: 0x023B [0x00] END_REQSTACK()
```
