# Event 65535

## Metadata

| Field           | Value    |
|-----------------|----------|
| Event Index     | 158/160  |
| Offset          | 0x09AE   |
| Data Size       | 40 bytes |
| Calculated Size | 40 bytes |
| Instructions    | 10       |

```
      00 01 02 03 04 05 06 07  08 09 0A 0B 0C 0D 0E 0F
      -- -- -- -- -- -- -- --  -- -- -- -- -- -- -- --
09A0:                                            32 18                2.
09B0: 80 1F 00 3D 80 3E 80 2A  80 1F 01 6F 1F 00 3F 80  ...=.>.*...o..?.
09C0: 40 80 41 80 1F 01 6F 29  08 76 60 00 01 7B 29 08  @.A...o).v`..{).
09D0: 76 60 00 01 7C 00                                 v`..|.          
```

## Opcodes

```
  0: 0x09AE [0x32] ExtData[1]->MainSpeed = 54* * 0.1
  1: 0x09B1 [0x1F] MOVE_ENTITY: EventEntity moves to X=-461.472*, Z=-215.020*, Y=0.749*
  2: 0x09B9 [0x1F] MOVE_ENTITY: Update entity position (mode=1)
  3: 0x09BB [0x6F] WAIT_FRAME_DELAY: Yield until WaitTime reaches zero
  4: 0x09BC [0x1F] MOVE_ENTITY: EventEntity moves to X=-462.582*, Z=-209.857*, Y=0.851*
  5: 0x09C4 [0x1F] MOVE_ENTITY: Update entity position (mode=1)
  6: 0x09C6 [0x6F] WAIT_FRAME_DELAY: Yield until WaitTime reaches zero
  7: 0x09C7 [0x29] REQ_SET_WAIT(priority=0x08, entity_id=Prishe (ID: 16801910/0x01006076), tag_num=0x7B)
  8: 0x09CE [0x29] REQ_SET_WAIT(priority=0x08, entity_id=Prishe (ID: 16801910/0x01006076), tag_num=0x7C)
  9: 0x09D5 [0x00] END_REQSTACK()
```
