# Event 65535

## Metadata

| Field           | Value    |
|-----------------|----------|
| Event Index     | 40/47    |
| Offset          | 0x023A   |
| Data Size       | 61 bytes |
| Calculated Size | 61 bytes |
| Instructions    | 5        |

```
      00 01 02 03 04 05 06 07  08 09 0A 0B 0C 0D 0E 0F
      -- -- -- -- -- -- -- --  -- -- -- -- -- -- -- --
0230:                                5B 11 80 FA 51 10            [...Q.
0240: 01 FA 51 10 01 78 78 78  78 5B 12 80 FC 51 10 01  ..Q..xxxx[...Q..
0250: FC 51 10 01 78 78 78 78  5B 12 80 FD 51 10 01 FD  .Q..xxxx[...Q...
0260: 51 10 01 78 78 78 78 5B  13 80 FE 51 10 01 FE 51  Q..xxxx[...Q...Q
0270: 10 01 78 78 78 78 00                              ..xxxx.         
```

## Opcodes

```
  0: 0x023A [0x5B] LOAD_EXT_SCHEDULER(work_offset=3607*, entity1=Unnamed NPC (ID: 17846778/0x011051FA), entity2=Unnamed NPC (ID: 17846778/0x011051FA), action="xxxx")
  1: 0x0249 [0x5B] LOAD_EXT_SCHEDULER(work_offset=3758*, entity1=Unnamed NPC (ID: 17846780/0x011051FC), entity2=Unnamed NPC (ID: 17846780/0x011051FC), action="xxxx")
  2: 0x0258 [0x5B] LOAD_EXT_SCHEDULER(work_offset=3758*, entity1=Unnamed NPC (ID: 17846781/0x011051FD), entity2=Unnamed NPC (ID: 17846781/0x011051FD), action="xxxx")
  3: 0x0267 [0x5B] LOAD_EXT_SCHEDULER(work_offset=3844*, entity1=Unnamed NPC (ID: 17846782/0x011051FE), entity2=Unnamed NPC (ID: 17846782/0x011051FE), action="xxxx")
  4: 0x0276 [0x00] END_REQSTACK()
```
