# Event 2514

## Metadata

| Field           | Value    |
|-----------------|----------|
| Event Index     | 4/4      |
| Offset          | 0x0082   |
| Data Size       | 37 bytes |
| Calculated Size | 37 bytes |
| Instructions    | 13       |

```
      00 01 02 03 04 05 06 07  08 09 0A 0B 0C 0D 0E 0F
      -- -- -- -- -- -- -- --  -- -- -- -- -- -- -- --
0080:       1E F0 FF FF 7F 42  6F 70 5B 00 80 F8 FF FF    .....Bop[.....
0090: 7F F8 FF FF 7F 74 6C 6B  30 1D 08 80 23 1D 09 80  .....tlk0...#...
00A0: 23 1D 0A 80 23 21 00                              #...#!.         
```

## Opcodes

```
  0: 0x0082 [0x1E] EventEntity looks at LocalPlayer and starts talking
  1: 0x0087 [0x42] SET_CLI_EVENT_CANCEL_DATA()
  2: 0x0088 [0x6F] WAIT_FRAME_DELAY: Yield until WaitTime reaches zero
  3: 0x0089 [0x70] WAIT_ENTITY_RENDER_FLAG: Wait while EventEntity->Render.Flags3 bit 2 is set (cancel turn if not)
  4: 0x008A [0x5B] LOAD_EXT_SCHEDULER(work_offset=65*, entity1=EventEntity, entity2=EventEntity, action="tlk0")
  5: 0x0099 [0x1D] PRINT_EVENT_MESSAGE(message_id=7885*)
    → "Hey, whippersnapper, you preparin' for your trip to the Yahse Hunting Grounds?\u007F1\u0000\u0007"
  6: 0x009C [0x23] WAIT_FOR_DIALOG_INTERACTION
  7: 0x009D [0x1D] PRINT_EVENT_MESSAGE(message_id=7886*)
    → "\u00072Not today\u00073? I can barely hear you!\u0007Oh ho, so you're checking things out here in Eastern Adoulin!\u007F1\u0000\u0007"
  8: 0x00A0 [0x23] WAIT_FOR_DIALOG_INTERACTION
  9: 0x00A1 [0x1D] PRINT_EVENT_MESSAGE(message_id=7887*)
    → "Everythin' here's shipshape! Hohoho!\u0007Let me know if you ever want to head to Yahse!\u007F1\u0000\u0007"
 10: 0x00A4 [0x23] WAIT_FOR_DIALOG_INTERACTION
 11: 0x00A5 [0x21] END_EVENT
 12: 0x00A6 [0x00] END_REQSTACK()
```
