# Event 67

## Metadata

| Field           | Value    |
|-----------------|----------|
| Event Index     | 11/11    |
| Offset          | 0x01F9   |
| Data Size       | 37 bytes |
| Calculated Size | 37 bytes |
| Instructions    | 11       |

```
      00 01 02 03 04 05 06 07  08 09 0A 0B 0C 0D 0E 0F
      -- -- -- -- -- -- -- --  -- -- -- -- -- -- -- --
01F0:                             1E F0 FF FF 7F 6F 70           .....op
0200: 5B 00 80 F8 FF FF 7F F8  FF FF 7F 74 6C 6B 30 1D  [..........tlk0.
0210: 19 80 23 1D 1A 80 23 03  01 10 1B 80 21 00        ..#...#.....!.  
```

## Opcodes

```
  0: 0x01F9 [0x1E] EventEntity looks at LocalPlayer and starts talking
  1: 0x01FE [0x6F] WAIT_FRAME_DELAY: Yield until WaitTime reaches zero
  2: 0x01FF [0x70] WAIT_ENTITY_RENDER_FLAG: Wait while EventEntity->Render.Flags3 bit 2 is set (cancel turn if not)
  3: 0x0200 [0x5B] LOAD_EXT_SCHEDULER(work_offset=70*, entity1=EventEntity, entity2=EventEntity, action="tlk0")
  4: 0x020F [0x1D] PRINT_EVENT_MESSAGE(message_id=6956*)
    → "Have you seen Rycharde lately? He seems changed. He has this look of determination I've never seen before.\u007F1\u0000\u0007"
  5: 0x0212 [0x23] WAIT_FOR_DIALOG_INTERACTION
  6: 0x0213 [0x1D] PRINT_EVENT_MESSAGE(message_id=6957*)
    → "He must've rediscovered something deep inside...something he had long forgotten. I'm glad for him, and it's all thanks to you.\u007F1\u0000\u0007"
  7: 0x0216 [0x23] WAIT_FOR_DIALOG_INTERACTION
  8: 0x0217 [0x03] Work_Zone[1] = 4*
  9: 0x021C [0x21] END_EVENT
 10: 0x021D [0x00] END_REQSTACK()
```
