# 16879960 - Kuno1

## Common Data

| Field            | Value                    |
|------------------|--------------------------|
| Zone             | Misareaux Coast (ID: 25) |
| Block Size       | 156 bytes                |
| Total Events     | 7                        |
| References Count | 5                        |

## List of Events

| Event ID                 | Entrypoint   |   Size |   Instructions |
|--------------------------|--------------|--------|----------------|
| [65535](#event-65535)    | 0x0000       |      1 |              1 |
| [65535.1](#event-655351) | 0x0001       |     22 |              3 |
| [65535.2](#event-655352) | 0x0017       |     14 |              2 |
| [65535.3](#event-655353) | 0x0025       |     16 |              2 |
| [65535.4](#event-655354) | 0x0035       |     20 |              3 |
| [12](#event-12)          | 0x0049       |      7 |              2 |
| [65535.5](#event-655355) | 0x0050       |     10 |              2 |

## DAT References (imed_data)

|   Index | Hex Value   |   Dec Value |
|---------|-------------|-------------|
|       0 | 0x0013      |          19 |
|       1 | 0xFFF8ABA8  |  4294486952 |
|       2 | 0x5059B     |      329115 |
|       3 | 0xFFFF840A  |  4294935562 |
|       4 | 0x08E9      |        2281 |

## Events

### Event 65535

#### Metadata

| Field        | Value   |
|--------------|---------|
| Entrypoint   | 0x0000  |
| Data Size    | 1 bytes |
| Instructions | 1       |

```
      00 01 02 03 04 05 06 07  08 09 0A 0B 0C 0D 0E 0F
      -- -- -- -- -- -- -- --  -- -- -- -- -- -- -- --
0000: 00                                                .               
```

#### Opcodes

```
  0: 0x0000 [0x00] END_REQSTACK()
```

### Event 65535.1

#### Metadata

| Field        | Value    |
|--------------|----------|
| Entrypoint   | 0x0001   |
| Data Size    | 22 bytes |
| Instructions | 3        |

```
      00 01 02 03 04 05 06 07  08 09 0A 0B 0C 0D 0E 0F
      -- -- -- -- -- -- -- --  -- -- -- -- -- -- -- --
0000:    81 00 F8 FF FF 7F 66  00 80 F8 FF FF 7F F8 FF   ......f........
0010: FF 7F 6E 69 6E 30 00                              ..nin0.         
```

#### Opcodes

```
  0: 0x0001 [0x81] SET_ENTITY_BLINKING(blink_flag=0x00, entity=EventEntity)
  1: 0x0007 [0x66] LOAD_EXT_SCHEDULER_MAIN: Load scheduler "nin0" with entities [EventEntity, EventEntity], work=19*
  2: 0x0016 [0x00] END_REQSTACK()
```

### Event 65535.2

#### Metadata

| Field        | Value    |
|--------------|----------|
| Entrypoint   | 0x0017   |
| Data Size    | 14 bytes |
| Instructions | 2        |

```
      00 01 02 03 04 05 06 07  08 09 0A 0B 0C 0D 0E 0F
      -- -- -- -- -- -- -- --  -- -- -- -- -- -- -- --
0010:                      53  F8 FF FF 7F F8 FF FF 7F         S........
0020: 6E 69 6E 30 00                                    nin0.           
```

#### Opcodes

```
  0: 0x0017 [0x53] WAIT_SCHEDULER_TASK: Wait for scheduler "nin0" with entities [EventEntity, EventEntity]
  1: 0x0024 [0x00] END_REQSTACK()
```

### Event 65535.3

#### Metadata

| Field        | Value    |
|--------------|----------|
| Entrypoint   | 0x0025   |
| Data Size    | 16 bytes |
| Instructions | 2        |

```
      00 01 02 03 04 05 06 07  08 09 0A 0B 0C 0D 0E 0F
      -- -- -- -- -- -- -- --  -- -- -- -- -- -- -- --
0020:                66 00 80  F8 FF FF 7F F8 FF FF 7F       f..........
0030: 6E 69 6E 31 00                                    nin1.           
```

#### Opcodes

```
  0: 0x0025 [0x66] LOAD_EXT_SCHEDULER_MAIN: Load scheduler "nin1" with entities [EventEntity, EventEntity], work=19*
  1: 0x0034 [0x00] END_REQSTACK()
```

### Event 65535.4

#### Metadata

| Field        | Value    |
|--------------|----------|
| Entrypoint   | 0x0035   |
| Data Size    | 20 bytes |
| Instructions | 3        |

```
      00 01 02 03 04 05 06 07  08 09 0A 0B 0C 0D 0E 0F
      -- -- -- -- -- -- -- --  -- -- -- -- -- -- -- --
0030:                53 F8 FF  FF 7F F8 FF FF 7F 6E 69       S........ni
0040: 6E 31 81 01 F8 FF FF 7F  00                       n1.......       
```

#### Opcodes

```
  0: 0x0035 [0x53] WAIT_SCHEDULER_TASK: Wait for scheduler "nin1" with entities [EventEntity, EventEntity]
  1: 0x0042 [0x81] SET_ENTITY_BLINKING(blink_flag=0x01, entity=EventEntity)
  2: 0x0048 [0x00] END_REQSTACK()
```

### Event 12

#### Metadata

| Field        | Value   |
|--------------|---------|
| Entrypoint   | 0x0049  |
| Data Size    | 7 bytes |
| Instructions | 2       |

```
      00 01 02 03 04 05 06 07  08 09 0A 0B 0C 0D 0E 0F
      -- -- -- -- -- -- -- --  -- -- -- -- -- -- -- --
0040:                             92 01 F8 FF FF 7F 00           .......
```

#### Opcodes

```
  0: 0x0049 [0x92] EventEntity->Render.Flags3 ^= 0x01
  1: 0x004F [0x00] END_REQSTACK()
```

### Event 65535.5

#### Metadata

| Field        | Value    |
|--------------|----------|
| Entrypoint   | 0x0050   |
| Data Size    | 10 bytes |
| Instructions | 2        |

```
      00 01 02 03 04 05 06 07  08 09 0A 0B 0C 0D 0E 0F
      -- -- -- -- -- -- -- --  -- -- -- -- -- -- -- --
0050: 37 01 80 02 80 03 80 04  80 00                    7.........      
```

#### Opcodes

```
  0: 0x0050 [0x37] UPDATE_EVENT_POSITION_AND_DIR: x=-480.344*, z=329.115*, y=-31.734*, direction=200.5°*
  1: 0x0059 [0x00] END_REQSTACK()
```
