# 16879959 - Selhteus

## Common Data

| Field            | Value                    |
|------------------|--------------------------|
| Zone             | Misareaux Coast (ID: 25) |
| Block Size       | 1088 bytes               |
| Total Events     | 53                       |
| References Count | 18                       |

## List of Events

| Event ID                   | Entrypoint   |   Size |   Instructions |
|----------------------------|--------------|--------|----------------|
| [65535](#event-65535)      | 0x0000       |      1 |              1 |
| [65535.1](#event-655351)   | 0x0001       |     16 |              2 |
| [65535.2](#event-655352)   | 0x0011       |     14 |              2 |
| [65535.3](#event-655353)   | 0x001F       |     16 |              2 |
| [65535.4](#event-655354)   | 0x002F       |     14 |              2 |
| [65535.5](#event-655355)   | 0x003D       |     16 |              2 |
| [65535.6](#event-655356)   | 0x004D       |     14 |              2 |
| [65535.7](#event-655357)   | 0x005B       |     22 |              3 |
| [65535.8](#event-655358)   | 0x0071       |     14 |              2 |
| [65535.9](#event-655359)   | 0x007F       |     16 |              2 |
| [65535.10](#event-6553510) | 0x008F       |     20 |              3 |
| [65535.11](#event-6553511) | 0x00A3       |     16 |              2 |
| [65535.12](#event-6553512) | 0x00B3       |     14 |              2 |
| [65535.13](#event-6553513) | 0x00C1       |     16 |              2 |
| [65535.14](#event-6553514) | 0x00D1       |     14 |              2 |
| [65535.15](#event-6553515) | 0x00DF       |     22 |              3 |
| [65535.16](#event-6553516) | 0x00F5       |     14 |              2 |
| [65535.17](#event-6553517) | 0x0103       |     16 |              2 |
| [65535.18](#event-6553518) | 0x0113       |     20 |              3 |
| [65535.19](#event-6553519) | 0x0127       |     16 |              2 |
| [65535.20](#event-6553520) | 0x0137       |     14 |              2 |
| [65535.21](#event-6553521) | 0x0145       |     16 |              2 |
| [65535.22](#event-6553522) | 0x0155       |     14 |              2 |
| [65535.23](#event-6553523) | 0x0163       |     16 |              2 |
| [65535.24](#event-6553524) | 0x0173       |     14 |              2 |
| [65535.25](#event-6553525) | 0x0181       |     16 |              2 |
| [65535.26](#event-6553526) | 0x0191       |     14 |              2 |
| [65535.27](#event-6553527) | 0x019F       |     16 |              2 |
| [65535.28](#event-6553528) | 0x01AF       |     14 |              2 |
| [65535.29](#event-6553529) | 0x01BD       |     16 |              2 |
| [65535.30](#event-6553530) | 0x01CD       |     14 |              2 |
| [65535.31](#event-6553531) | 0x01DB       |     16 |              2 |
| [65535.32](#event-6553532) | 0x01EB       |     14 |              2 |
| [65535.33](#event-6553533) | 0x01F9       |     16 |              2 |
| [65535.34](#event-6553534) | 0x0209       |     14 |              2 |
| [65535.35](#event-6553535) | 0x0217       |     16 |              2 |
| [65535.36](#event-6553536) | 0x0227       |     14 |              2 |
| [65535.37](#event-6553537) | 0x0235       |     16 |              2 |
| [65535.38](#event-6553538) | 0x0245       |     14 |              2 |
| [65535.39](#event-6553539) | 0x0253       |     16 |              2 |
| [65535.40](#event-6553540) | 0x0263       |     14 |              2 |
| [65535.41](#event-6553541) | 0x0271       |     16 |              2 |
| [65535.42](#event-6553542) | 0x0281       |     14 |              2 |
| [65535.43](#event-6553543) | 0x028F       |     16 |              2 |
| [65535.44](#event-6553544) | 0x029F       |     14 |              2 |
| [65535.45](#event-6553545) | 0x02AD       |     16 |              2 |
| [65535.46](#event-6553546) | 0x02BD       |     14 |              2 |
| [65535.47](#event-6553547) | 0x02CB       |      9 |              3 |
| [10](#event-10)            | 0x02D4       |     13 |              3 |
| [65535.48](#event-6553548) | 0x02E1       |     10 |              2 |
| [65535.49](#event-6553549) | 0x02EB       |     15 |              5 |
| [11](#event-11)            | 0x02FA       |     13 |              3 |
| [65535.50](#event-6553550) | 0x0307       |     10 |              2 |

## DAT References (imed_data)

|   Index | Hex Value   |   Dec Value |
|---------|-------------|-------------|
|       0 | 0x01C9      |         457 |
|       1 | 0x01C8      |         456 |
|       2 | 0x01C7      |         455 |
|       3 | 0x01CA      |         458 |
|       4 | 0x01CD      |         461 |
|       5 | 0x001E      |          30 |
|       6 | 0xFFFDB320  |  4294816544 |
|       7 | 0xFFFB2142  |  4294648130 |
|       8 | 0xFFFF8422  |  4294935586 |
|       9 | 0x0809      |        2057 |
|      10 | 0x000D      |          13 |
|      11 | 0xFFFD96E5  |  4294809317 |
|      12 | 0xFFFB22E0  |  4294648544 |
|      13 | 0xFFFF83A2  |  4294935458 |
|      14 | 0xFFFD91C9  |  4294808009 |
|      15 | 0xFFFB23FF  |  4294648831 |
|      16 | 0xFFFF840F  |  4294935567 |
|      17 | 0x00FD      |         253 |

## Events

### Event 65535

#### Metadata

| Field        | Value   |
|--------------|---------|
| Entrypoint   | 0x0000  |
| Data Size    | 1 bytes |
| Instructions | 1       |

```
      00 01 02 03 04 05 06 07  08 09 0A 0B 0C 0D 0E 0F
      -- -- -- -- -- -- -- --  -- -- -- -- -- -- -- --
0000: 00                                                .               
```

#### Opcodes

```
  0: 0x0000 [0x00] END_REQSTACK()
```

### Event 65535.1

#### Metadata

| Field        | Value    |
|--------------|----------|
| Entrypoint   | 0x0001   |
| Data Size    | 16 bytes |
| Instructions | 2        |

```
      00 01 02 03 04 05 06 07  08 09 0A 0B 0C 0D 0E 0F
      -- -- -- -- -- -- -- --  -- -- -- -- -- -- -- --
0000:    5B 00 80 F8 FF FF 7F  F8 FF FF 7F 64 6D 61 30   [..........dma0
0010: 00                                                .               
```

#### Opcodes

```
  0: 0x0001 [0x5B] LOAD_EXT_SCHEDULER: Load scheduler "dma0" with entities [EventEntity, EventEntity], work=457*
  1: 0x0010 [0x00] END_REQSTACK()
```

### Event 65535.2

#### Metadata

| Field        | Value    |
|--------------|----------|
| Entrypoint   | 0x0011   |
| Data Size    | 14 bytes |
| Instructions | 2        |

```
      00 01 02 03 04 05 06 07  08 09 0A 0B 0C 0D 0E 0F
      -- -- -- -- -- -- -- --  -- -- -- -- -- -- -- --
0010:    53 F8 FF FF 7F F8 FF  FF 7F 64 6D 61 30 00      S........dma0. 
```

#### Opcodes

```
  0: 0x0011 [0x53] WAIT_SCHEDULER_TASK: Wait for scheduler "dma0" with entities [EventEntity, EventEntity]
  1: 0x001E [0x00] END_REQSTACK()
```

### Event 65535.3

#### Metadata

| Field        | Value    |
|--------------|----------|
| Entrypoint   | 0x001F   |
| Data Size    | 16 bytes |
| Instructions | 2        |

```
      00 01 02 03 04 05 06 07  08 09 0A 0B 0C 0D 0E 0F
      -- -- -- -- -- -- -- --  -- -- -- -- -- -- -- --
0010:                                               5B                 [
0020: 00 80 F8 FF FF 7F F8 FF  FF 7F 64 6D 61 31 00     ..........dma1. 
```

#### Opcodes

```
  0: 0x001F [0x5B] LOAD_EXT_SCHEDULER: Load scheduler "dma1" with entities [EventEntity, EventEntity], work=457*
  1: 0x002E [0x00] END_REQSTACK()
```

### Event 65535.4

#### Metadata

| Field        | Value    |
|--------------|----------|
| Entrypoint   | 0x002F   |
| Data Size    | 14 bytes |
| Instructions | 2        |

```
      00 01 02 03 04 05 06 07  08 09 0A 0B 0C 0D 0E 0F
      -- -- -- -- -- -- -- --  -- -- -- -- -- -- -- --
0020:                                               53                 S
0030: F8 FF FF 7F F8 FF FF 7F  64 6D 61 31 00           ........dma1.   
```

#### Opcodes

```
  0: 0x002F [0x53] WAIT_SCHEDULER_TASK: Wait for scheduler "dma1" with entities [EventEntity, EventEntity]
  1: 0x003C [0x00] END_REQSTACK()
```

### Event 65535.5

#### Metadata

| Field        | Value    |
|--------------|----------|
| Entrypoint   | 0x003D   |
| Data Size    | 16 bytes |
| Instructions | 2        |

```
      00 01 02 03 04 05 06 07  08 09 0A 0B 0C 0D 0E 0F
      -- -- -- -- -- -- -- --  -- -- -- -- -- -- -- --
0030:                                         5B 00 80               [..
0040: F8 FF FF 7F F8 FF FF 7F  64 6D 61 32 00           ........dma2.   
```

#### Opcodes

```
  0: 0x003D [0x5B] LOAD_EXT_SCHEDULER: Load scheduler "dma2" with entities [EventEntity, EventEntity], work=457*
  1: 0x004C [0x00] END_REQSTACK()
```

### Event 65535.6

#### Metadata

| Field        | Value    |
|--------------|----------|
| Entrypoint   | 0x004D   |
| Data Size    | 14 bytes |
| Instructions | 2        |

```
      00 01 02 03 04 05 06 07  08 09 0A 0B 0C 0D 0E 0F
      -- -- -- -- -- -- -- --  -- -- -- -- -- -- -- --
0040:                                         53 F8 FF               S..
0050: FF 7F F8 FF FF 7F 64 6D  61 32 00                 ......dma2.     
```

#### Opcodes

```
  0: 0x004D [0x53] WAIT_SCHEDULER_TASK: Wait for scheduler "dma2" with entities [EventEntity, EventEntity]
  1: 0x005A [0x00] END_REQSTACK()
```

### Event 65535.7

#### Metadata

| Field        | Value    |
|--------------|----------|
| Entrypoint   | 0x005B   |
| Data Size    | 22 bytes |
| Instructions | 3        |

```
      00 01 02 03 04 05 06 07  08 09 0A 0B 0C 0D 0E 0F
      -- -- -- -- -- -- -- --  -- -- -- -- -- -- -- --
0050:                                   81 00 F8 FF FF             .....
0060: 7F 5B 00 80 F8 FF FF 7F  F8 FF FF 7F 62 79 65 30  .[..........bye0
0070: 00                                                .               
```

#### Opcodes

```
  0: 0x005B [0x81] SET_ENTITY_BLINKING(blink_flag=0x00, entity=EventEntity)
  1: 0x0061 [0x5B] LOAD_EXT_SCHEDULER: Load scheduler "bye0" with entities [EventEntity, EventEntity], work=457*
  2: 0x0070 [0x00] END_REQSTACK()
```

### Event 65535.8

#### Metadata

| Field        | Value    |
|--------------|----------|
| Entrypoint   | 0x0071   |
| Data Size    | 14 bytes |
| Instructions | 2        |

```
      00 01 02 03 04 05 06 07  08 09 0A 0B 0C 0D 0E 0F
      -- -- -- -- -- -- -- --  -- -- -- -- -- -- -- --
0070:    53 F8 FF FF 7F F8 FF  FF 7F 62 79 65 30 00      S........bye0. 
```

#### Opcodes

```
  0: 0x0071 [0x53] WAIT_SCHEDULER_TASK: Wait for scheduler "bye0" with entities [EventEntity, EventEntity]
  1: 0x007E [0x00] END_REQSTACK()
```

### Event 65535.9

#### Metadata

| Field        | Value    |
|--------------|----------|
| Entrypoint   | 0x007F   |
| Data Size    | 16 bytes |
| Instructions | 2        |

```
      00 01 02 03 04 05 06 07  08 09 0A 0B 0C 0D 0E 0F
      -- -- -- -- -- -- -- --  -- -- -- -- -- -- -- --
0070:                                               5B                 [
0080: 00 80 F8 FF FF 7F F8 FF  FF 7F 62 79 65 31 00     ..........bye1. 
```

#### Opcodes

```
  0: 0x007F [0x5B] LOAD_EXT_SCHEDULER: Load scheduler "bye1" with entities [EventEntity, EventEntity], work=457*
  1: 0x008E [0x00] END_REQSTACK()
```

### Event 65535.10

#### Metadata

| Field        | Value    |
|--------------|----------|
| Entrypoint   | 0x008F   |
| Data Size    | 20 bytes |
| Instructions | 3        |

```
      00 01 02 03 04 05 06 07  08 09 0A 0B 0C 0D 0E 0F
      -- -- -- -- -- -- -- --  -- -- -- -- -- -- -- --
0080:                                               53                 S
0090: F8 FF FF 7F F8 FF FF 7F  62 79 65 31 81 01 F8 FF  ........bye1....
00A0: FF 7F 00                                          ...             
```

#### Opcodes

```
  0: 0x008F [0x53] WAIT_SCHEDULER_TASK: Wait for scheduler "bye1" with entities [EventEntity, EventEntity]
  1: 0x009C [0x81] SET_ENTITY_BLINKING(blink_flag=0x01, entity=EventEntity)
  2: 0x00A2 [0x00] END_REQSTACK()
```

### Event 65535.11

#### Metadata

| Field        | Value    |
|--------------|----------|
| Entrypoint   | 0x00A3   |
| Data Size    | 16 bytes |
| Instructions | 2        |

```
      00 01 02 03 04 05 06 07  08 09 0A 0B 0C 0D 0E 0F
      -- -- -- -- -- -- -- --  -- -- -- -- -- -- -- --
00A0:          5B 01 80 F8 FF  FF 7F F8 FF FF 7F 68 64     [..........hd
00B0: 62 30 00                                          b0.             
```

#### Opcodes

```
  0: 0x00A3 [0x5B] LOAD_EXT_SCHEDULER: Load scheduler "hdb0" with entities [EventEntity, EventEntity], work=456*
  1: 0x00B2 [0x00] END_REQSTACK()
```

### Event 65535.12

#### Metadata

| Field        | Value    |
|--------------|----------|
| Entrypoint   | 0x00B3   |
| Data Size    | 14 bytes |
| Instructions | 2        |

```
      00 01 02 03 04 05 06 07  08 09 0A 0B 0C 0D 0E 0F
      -- -- -- -- -- -- -- --  -- -- -- -- -- -- -- --
00B0:          53 F8 FF FF 7F  F8 FF FF 7F 68 64 62 30     S........hdb0
00C0: 00                                                .               
```

#### Opcodes

```
  0: 0x00B3 [0x53] WAIT_SCHEDULER_TASK: Wait for scheduler "hdb0" with entities [EventEntity, EventEntity]
  1: 0x00C0 [0x00] END_REQSTACK()
```

### Event 65535.13

#### Metadata

| Field        | Value    |
|--------------|----------|
| Entrypoint   | 0x00C1   |
| Data Size    | 16 bytes |
| Instructions | 2        |

```
      00 01 02 03 04 05 06 07  08 09 0A 0B 0C 0D 0E 0F
      -- -- -- -- -- -- -- --  -- -- -- -- -- -- -- --
00C0:    5B 01 80 F8 FF FF 7F  F8 FF FF 7F 68 64 62 31   [..........hdb1
00D0: 00                                                .               
```

#### Opcodes

```
  0: 0x00C1 [0x5B] LOAD_EXT_SCHEDULER: Load scheduler "hdb1" with entities [EventEntity, EventEntity], work=456*
  1: 0x00D0 [0x00] END_REQSTACK()
```

### Event 65535.14

#### Metadata

| Field        | Value    |
|--------------|----------|
| Entrypoint   | 0x00D1   |
| Data Size    | 14 bytes |
| Instructions | 2        |

```
      00 01 02 03 04 05 06 07  08 09 0A 0B 0C 0D 0E 0F
      -- -- -- -- -- -- -- --  -- -- -- -- -- -- -- --
00D0:    53 F8 FF FF 7F F8 FF  FF 7F 68 64 62 31 00      S........hdb1. 
```

#### Opcodes

```
  0: 0x00D1 [0x53] WAIT_SCHEDULER_TASK: Wait for scheduler "hdb1" with entities [EventEntity, EventEntity]
  1: 0x00DE [0x00] END_REQSTACK()
```

### Event 65535.15

#### Metadata

| Field        | Value    |
|--------------|----------|
| Entrypoint   | 0x00DF   |
| Data Size    | 22 bytes |
| Instructions | 3        |

```
      00 01 02 03 04 05 06 07  08 09 0A 0B 0C 0D 0E 0F
      -- -- -- -- -- -- -- --  -- -- -- -- -- -- -- --
00D0:                                               81                 .
00E0: 00 F8 FF FF 7F 5B 02 80  F8 FF FF 7F F8 FF FF 7F  .....[..........
00F0: 74 68 6B 30 00                                    thk0.           
```

#### Opcodes

```
  0: 0x00DF [0x81] SET_ENTITY_BLINKING(blink_flag=0x00, entity=EventEntity)
  1: 0x00E5 [0x5B] LOAD_EXT_SCHEDULER: Load scheduler "thk0" with entities [EventEntity, EventEntity], work=455*
  2: 0x00F4 [0x00] END_REQSTACK()
```

### Event 65535.16

#### Metadata

| Field        | Value    |
|--------------|----------|
| Entrypoint   | 0x00F5   |
| Data Size    | 14 bytes |
| Instructions | 2        |

```
      00 01 02 03 04 05 06 07  08 09 0A 0B 0C 0D 0E 0F
      -- -- -- -- -- -- -- --  -- -- -- -- -- -- -- --
00F0:                53 F8 FF  FF 7F F8 FF FF 7F 74 68       S........th
0100: 6B 30 00                                          k0.             
```

#### Opcodes

```
  0: 0x00F5 [0x53] WAIT_SCHEDULER_TASK: Wait for scheduler "thk0" with entities [EventEntity, EventEntity]
  1: 0x0102 [0x00] END_REQSTACK()
```

### Event 65535.17

#### Metadata

| Field        | Value    |
|--------------|----------|
| Entrypoint   | 0x0103   |
| Data Size    | 16 bytes |
| Instructions | 2        |

```
      00 01 02 03 04 05 06 07  08 09 0A 0B 0C 0D 0E 0F
      -- -- -- -- -- -- -- --  -- -- -- -- -- -- -- --
0100:          5B 02 80 F8 FF  FF 7F F8 FF FF 7F 74 68     [..........th
0110: 6B 31 00                                          k1.             
```

#### Opcodes

```
  0: 0x0103 [0x5B] LOAD_EXT_SCHEDULER: Load scheduler "thk1" with entities [EventEntity, EventEntity], work=455*
  1: 0x0112 [0x00] END_REQSTACK()
```

### Event 65535.18

#### Metadata

| Field        | Value    |
|--------------|----------|
| Entrypoint   | 0x0113   |
| Data Size    | 20 bytes |
| Instructions | 3        |

```
      00 01 02 03 04 05 06 07  08 09 0A 0B 0C 0D 0E 0F
      -- -- -- -- -- -- -- --  -- -- -- -- -- -- -- --
0110:          53 F8 FF FF 7F  F8 FF FF 7F 74 68 6B 31     S........thk1
0120: 81 01 F8 FF FF 7F 00                              .......         
```

#### Opcodes

```
  0: 0x0113 [0x53] WAIT_SCHEDULER_TASK: Wait for scheduler "thk1" with entities [EventEntity, EventEntity]
  1: 0x0120 [0x81] SET_ENTITY_BLINKING(blink_flag=0x01, entity=EventEntity)
  2: 0x0126 [0x00] END_REQSTACK()
```

### Event 65535.19

#### Metadata

| Field        | Value    |
|--------------|----------|
| Entrypoint   | 0x0127   |
| Data Size    | 16 bytes |
| Instructions | 2        |

```
      00 01 02 03 04 05 06 07  08 09 0A 0B 0C 0D 0E 0F
      -- -- -- -- -- -- -- --  -- -- -- -- -- -- -- --
0120:                      5B  02 80 F8 FF FF 7F F8 FF         [........
0130: FF 7F 73 74 64 30 00                              ..std0.         
```

#### Opcodes

```
  0: 0x0127 [0x5B] LOAD_EXT_SCHEDULER: Load scheduler "std0" with entities [EventEntity, EventEntity], work=455*
  1: 0x0136 [0x00] END_REQSTACK()
```

### Event 65535.20

#### Metadata

| Field        | Value    |
|--------------|----------|
| Entrypoint   | 0x0137   |
| Data Size    | 14 bytes |
| Instructions | 2        |

```
      00 01 02 03 04 05 06 07  08 09 0A 0B 0C 0D 0E 0F
      -- -- -- -- -- -- -- --  -- -- -- -- -- -- -- --
0130:                      53  F8 FF FF 7F F8 FF FF 7F         S........
0140: 73 74 64 30 00                                    std0.           
```

#### Opcodes

```
  0: 0x0137 [0x53] WAIT_SCHEDULER_TASK: Wait for scheduler "std0" with entities [EventEntity, EventEntity]
  1: 0x0144 [0x00] END_REQSTACK()
```

### Event 65535.21

#### Metadata

| Field        | Value    |
|--------------|----------|
| Entrypoint   | 0x0145   |
| Data Size    | 16 bytes |
| Instructions | 2        |

```
      00 01 02 03 04 05 06 07  08 09 0A 0B 0C 0D 0E 0F
      -- -- -- -- -- -- -- --  -- -- -- -- -- -- -- --
0140:                5B 02 80  F8 FF FF 7F F8 FF FF 7F       [..........
0150: 73 74 64 31 00                                    std1.           
```

#### Opcodes

```
  0: 0x0145 [0x5B] LOAD_EXT_SCHEDULER: Load scheduler "std1" with entities [EventEntity, EventEntity], work=455*
  1: 0x0154 [0x00] END_REQSTACK()
```

### Event 65535.22

#### Metadata

| Field        | Value    |
|--------------|----------|
| Entrypoint   | 0x0155   |
| Data Size    | 14 bytes |
| Instructions | 2        |

```
      00 01 02 03 04 05 06 07  08 09 0A 0B 0C 0D 0E 0F
      -- -- -- -- -- -- -- --  -- -- -- -- -- -- -- --
0150:                53 F8 FF  FF 7F F8 FF FF 7F 73 74       S........st
0160: 64 31 00                                          d1.             
```

#### Opcodes

```
  0: 0x0155 [0x53] WAIT_SCHEDULER_TASK: Wait for scheduler "std1" with entities [EventEntity, EventEntity]
  1: 0x0162 [0x00] END_REQSTACK()
```

### Event 65535.23

#### Metadata

| Field        | Value    |
|--------------|----------|
| Entrypoint   | 0x0163   |
| Data Size    | 16 bytes |
| Instructions | 2        |

```
      00 01 02 03 04 05 06 07  08 09 0A 0B 0C 0D 0E 0F
      -- -- -- -- -- -- -- --  -- -- -- -- -- -- -- --
0160:          5B 02 80 F8 FF  FF 7F F8 FF FF 7F 74 32     [..........t2
0170: 74 68 00                                          th.             
```

#### Opcodes

```
  0: 0x0163 [0x5B] LOAD_EXT_SCHEDULER: Load scheduler "t2th" with entities [EventEntity, EventEntity], work=455*
  1: 0x0172 [0x00] END_REQSTACK()
```

### Event 65535.24

#### Metadata

| Field        | Value    |
|--------------|----------|
| Entrypoint   | 0x0173   |
| Data Size    | 14 bytes |
| Instructions | 2        |

```
      00 01 02 03 04 05 06 07  08 09 0A 0B 0C 0D 0E 0F
      -- -- -- -- -- -- -- --  -- -- -- -- -- -- -- --
0170:          53 F8 FF FF 7F  F8 FF FF 7F 74 32 74 68     S........t2th
0180: 00                                                .               
```

#### Opcodes

```
  0: 0x0173 [0x53] WAIT_SCHEDULER_TASK: Wait for scheduler "t2th" with entities [EventEntity, EventEntity]
  1: 0x0180 [0x00] END_REQSTACK()
```

### Event 65535.25

#### Metadata

| Field        | Value    |
|--------------|----------|
| Entrypoint   | 0x0181   |
| Data Size    | 16 bytes |
| Instructions | 2        |

```
      00 01 02 03 04 05 06 07  08 09 0A 0B 0C 0D 0E 0F
      -- -- -- -- -- -- -- --  -- -- -- -- -- -- -- --
0180:    5B 02 80 F8 FF FF 7F  F8 FF FF 7F 74 68 74 32   [..........tht2
0190: 00                                                .               
```

#### Opcodes

```
  0: 0x0181 [0x5B] LOAD_EXT_SCHEDULER: Load scheduler "tht2" with entities [EventEntity, EventEntity], work=455*
  1: 0x0190 [0x00] END_REQSTACK()
```

### Event 65535.26

#### Metadata

| Field        | Value    |
|--------------|----------|
| Entrypoint   | 0x0191   |
| Data Size    | 14 bytes |
| Instructions | 2        |

```
      00 01 02 03 04 05 06 07  08 09 0A 0B 0C 0D 0E 0F
      -- -- -- -- -- -- -- --  -- -- -- -- -- -- -- --
0190:    53 F8 FF FF 7F F8 FF  FF 7F 74 68 74 32 00      S........tht2. 
```

#### Opcodes

```
  0: 0x0191 [0x53] WAIT_SCHEDULER_TASK: Wait for scheduler "tht2" with entities [EventEntity, EventEntity]
  1: 0x019E [0x00] END_REQSTACK()
```

### Event 65535.27

#### Metadata

| Field        | Value    |
|--------------|----------|
| Entrypoint   | 0x019F   |
| Data Size    | 16 bytes |
| Instructions | 2        |

```
      00 01 02 03 04 05 06 07  08 09 0A 0B 0C 0D 0E 0F
      -- -- -- -- -- -- -- --  -- -- -- -- -- -- -- --
0190:                                               5B                 [
01A0: 01 80 F8 FF FF 7F F8 FF  FF 7F 68 64 61 30 00     ..........hda0. 
```

#### Opcodes

```
  0: 0x019F [0x5B] LOAD_EXT_SCHEDULER: Load scheduler "hda0" with entities [EventEntity, EventEntity], work=456*
  1: 0x01AE [0x00] END_REQSTACK()
```

### Event 65535.28

#### Metadata

| Field        | Value    |
|--------------|----------|
| Entrypoint   | 0x01AF   |
| Data Size    | 14 bytes |
| Instructions | 2        |

```
      00 01 02 03 04 05 06 07  08 09 0A 0B 0C 0D 0E 0F
      -- -- -- -- -- -- -- --  -- -- -- -- -- -- -- --
01A0:                                               53                 S
01B0: F8 FF FF 7F F8 FF FF 7F  68 64 61 30 00           ........hda0.   
```

#### Opcodes

```
  0: 0x01AF [0x53] WAIT_SCHEDULER_TASK: Wait for scheduler "hda0" with entities [EventEntity, EventEntity]
  1: 0x01BC [0x00] END_REQSTACK()
```

### Event 65535.29

#### Metadata

| Field        | Value    |
|--------------|----------|
| Entrypoint   | 0x01BD   |
| Data Size    | 16 bytes |
| Instructions | 2        |

```
      00 01 02 03 04 05 06 07  08 09 0A 0B 0C 0D 0E 0F
      -- -- -- -- -- -- -- --  -- -- -- -- -- -- -- --
01B0:                                         5B 01 80               [..
01C0: F8 FF FF 7F F8 FF FF 7F  68 64 61 31 00           ........hda1.   
```

#### Opcodes

```
  0: 0x01BD [0x5B] LOAD_EXT_SCHEDULER: Load scheduler "hda1" with entities [EventEntity, EventEntity], work=456*
  1: 0x01CC [0x00] END_REQSTACK()
```

### Event 65535.30

#### Metadata

| Field        | Value    |
|--------------|----------|
| Entrypoint   | 0x01CD   |
| Data Size    | 14 bytes |
| Instructions | 2        |

```
      00 01 02 03 04 05 06 07  08 09 0A 0B 0C 0D 0E 0F
      -- -- -- -- -- -- -- --  -- -- -- -- -- -- -- --
01C0:                                         53 F8 FF               S..
01D0: FF 7F F8 FF FF 7F 68 64  61 31 00                 ......hda1.     
```

#### Opcodes

```
  0: 0x01CD [0x53] WAIT_SCHEDULER_TASK: Wait for scheduler "hda1" with entities [EventEntity, EventEntity]
  1: 0x01DA [0x00] END_REQSTACK()
```

### Event 65535.31

#### Metadata

| Field        | Value    |
|--------------|----------|
| Entrypoint   | 0x01DB   |
| Data Size    | 16 bytes |
| Instructions | 2        |

```
      00 01 02 03 04 05 06 07  08 09 0A 0B 0C 0D 0E 0F
      -- -- -- -- -- -- -- --  -- -- -- -- -- -- -- --
01D0:                                   5B 03 80 F8 FF             [....
01E0: FF 7F F8 FF FF 7F 63 34  30 31 00                 ......c401.     
```

#### Opcodes

```
  0: 0x01DB [0x5B] LOAD_EXT_SCHEDULER: Load scheduler "c401" with entities [EventEntity, EventEntity], work=458*
  1: 0x01EA [0x00] END_REQSTACK()
```

### Event 65535.32

#### Metadata

| Field        | Value    |
|--------------|----------|
| Entrypoint   | 0x01EB   |
| Data Size    | 14 bytes |
| Instructions | 2        |

```
      00 01 02 03 04 05 06 07  08 09 0A 0B 0C 0D 0E 0F
      -- -- -- -- -- -- -- --  -- -- -- -- -- -- -- --
01E0:                                   53 F8 FF FF 7F             S....
01F0: F8 FF FF 7F 63 34 30 31  00                       ....c401.       
```

#### Opcodes

```
  0: 0x01EB [0x53] WAIT_SCHEDULER_TASK: Wait for scheduler "c401" with entities [EventEntity, EventEntity]
  1: 0x01F8 [0x00] END_REQSTACK()
```

### Event 65535.33

#### Metadata

| Field        | Value    |
|--------------|----------|
| Entrypoint   | 0x01F9   |
| Data Size    | 16 bytes |
| Instructions | 2        |

```
      00 01 02 03 04 05 06 07  08 09 0A 0B 0C 0D 0E 0F
      -- -- -- -- -- -- -- --  -- -- -- -- -- -- -- --
01F0:                             5B 03 80 F8 FF FF 7F           [......
0200: F8 FF FF 7F 63 34 30 32  00                       ....c402.       
```

#### Opcodes

```
  0: 0x01F9 [0x5B] LOAD_EXT_SCHEDULER: Load scheduler "c402" with entities [EventEntity, EventEntity], work=458*
  1: 0x0208 [0x00] END_REQSTACK()
```

### Event 65535.34

#### Metadata

| Field        | Value    |
|--------------|----------|
| Entrypoint   | 0x0209   |
| Data Size    | 14 bytes |
| Instructions | 2        |

```
      00 01 02 03 04 05 06 07  08 09 0A 0B 0C 0D 0E 0F
      -- -- -- -- -- -- -- --  -- -- -- -- -- -- -- --
0200:                             53 F8 FF FF 7F F8 FF           S......
0210: FF 7F 63 34 30 32 00                              ..c402.         
```

#### Opcodes

```
  0: 0x0209 [0x53] WAIT_SCHEDULER_TASK: Wait for scheduler "c402" with entities [EventEntity, EventEntity]
  1: 0x0216 [0x00] END_REQSTACK()
```

### Event 65535.35

#### Metadata

| Field        | Value    |
|--------------|----------|
| Entrypoint   | 0x0217   |
| Data Size    | 16 bytes |
| Instructions | 2        |

```
      00 01 02 03 04 05 06 07  08 09 0A 0B 0C 0D 0E 0F
      -- -- -- -- -- -- -- --  -- -- -- -- -- -- -- --
0210:                      5B  04 80 F8 FF FF 7F F8 FF         [........
0220: FF 7F 73 65 6C 30 00                              ..sel0.         
```

#### Opcodes

```
  0: 0x0217 [0x5B] LOAD_EXT_SCHEDULER: Load scheduler "sel0" with entities [EventEntity, EventEntity], work=461*
  1: 0x0226 [0x00] END_REQSTACK()
```

### Event 65535.36

#### Metadata

| Field        | Value    |
|--------------|----------|
| Entrypoint   | 0x0227   |
| Data Size    | 14 bytes |
| Instructions | 2        |

```
      00 01 02 03 04 05 06 07  08 09 0A 0B 0C 0D 0E 0F
      -- -- -- -- -- -- -- --  -- -- -- -- -- -- -- --
0220:                      53  F8 FF FF 7F F8 FF FF 7F         S........
0230: 73 65 6C 30 00                                    sel0.           
```

#### Opcodes

```
  0: 0x0227 [0x53] WAIT_SCHEDULER_TASK: Wait for scheduler "sel0" with entities [EventEntity, EventEntity]
  1: 0x0234 [0x00] END_REQSTACK()
```

### Event 65535.37

#### Metadata

| Field        | Value    |
|--------------|----------|
| Entrypoint   | 0x0235   |
| Data Size    | 16 bytes |
| Instructions | 2        |

```
      00 01 02 03 04 05 06 07  08 09 0A 0B 0C 0D 0E 0F
      -- -- -- -- -- -- -- --  -- -- -- -- -- -- -- --
0230:                5B 04 80  F8 FF FF 7F F8 FF FF 7F       [..........
0240: 73 65 6C 31 00                                    sel1.           
```

#### Opcodes

```
  0: 0x0235 [0x5B] LOAD_EXT_SCHEDULER: Load scheduler "sel1" with entities [EventEntity, EventEntity], work=461*
  1: 0x0244 [0x00] END_REQSTACK()
```

### Event 65535.38

#### Metadata

| Field        | Value    |
|--------------|----------|
| Entrypoint   | 0x0245   |
| Data Size    | 14 bytes |
| Instructions | 2        |

```
      00 01 02 03 04 05 06 07  08 09 0A 0B 0C 0D 0E 0F
      -- -- -- -- -- -- -- --  -- -- -- -- -- -- -- --
0240:                53 F8 FF  FF 7F F8 FF FF 7F 73 65       S........se
0250: 6C 31 00                                          l1.             
```

#### Opcodes

```
  0: 0x0245 [0x53] WAIT_SCHEDULER_TASK: Wait for scheduler "sel1" with entities [EventEntity, EventEntity]
  1: 0x0252 [0x00] END_REQSTACK()
```

### Event 65535.39

#### Metadata

| Field        | Value    |
|--------------|----------|
| Entrypoint   | 0x0253   |
| Data Size    | 16 bytes |
| Instructions | 2        |

```
      00 01 02 03 04 05 06 07  08 09 0A 0B 0C 0D 0E 0F
      -- -- -- -- -- -- -- --  -- -- -- -- -- -- -- --
0250:          5B 04 80 F8 FF  FF 7F F8 FF FF 7F 73 65     [..........se
0260: 6C 32 00                                          l2.             
```

#### Opcodes

```
  0: 0x0253 [0x5B] LOAD_EXT_SCHEDULER: Load scheduler "sel2" with entities [EventEntity, EventEntity], work=461*
  1: 0x0262 [0x00] END_REQSTACK()
```

### Event 65535.40

#### Metadata

| Field        | Value    |
|--------------|----------|
| Entrypoint   | 0x0263   |
| Data Size    | 14 bytes |
| Instructions | 2        |

```
      00 01 02 03 04 05 06 07  08 09 0A 0B 0C 0D 0E 0F
      -- -- -- -- -- -- -- --  -- -- -- -- -- -- -- --
0260:          53 F8 FF FF 7F  F8 FF FF 7F 73 65 6C 32     S........sel2
0270: 00                                                .               
```

#### Opcodes

```
  0: 0x0263 [0x53] WAIT_SCHEDULER_TASK: Wait for scheduler "sel2" with entities [EventEntity, EventEntity]
  1: 0x0270 [0x00] END_REQSTACK()
```

### Event 65535.41

#### Metadata

| Field        | Value    |
|--------------|----------|
| Entrypoint   | 0x0271   |
| Data Size    | 16 bytes |
| Instructions | 2        |

```
      00 01 02 03 04 05 06 07  08 09 0A 0B 0C 0D 0E 0F
      -- -- -- -- -- -- -- --  -- -- -- -- -- -- -- --
0270:    5B 04 80 F8 FF FF 7F  F8 FF FF 7F 73 65 6C 33   [..........sel3
0280: 00                                                .               
```

#### Opcodes

```
  0: 0x0271 [0x5B] LOAD_EXT_SCHEDULER: Load scheduler "sel3" with entities [EventEntity, EventEntity], work=461*
  1: 0x0280 [0x00] END_REQSTACK()
```

### Event 65535.42

#### Metadata

| Field        | Value    |
|--------------|----------|
| Entrypoint   | 0x0281   |
| Data Size    | 14 bytes |
| Instructions | 2        |

```
      00 01 02 03 04 05 06 07  08 09 0A 0B 0C 0D 0E 0F
      -- -- -- -- -- -- -- --  -- -- -- -- -- -- -- --
0280:    53 F8 FF FF 7F F8 FF  FF 7F 73 65 6C 33 00      S........sel3. 
```

#### Opcodes

```
  0: 0x0281 [0x53] WAIT_SCHEDULER_TASK: Wait for scheduler "sel3" with entities [EventEntity, EventEntity]
  1: 0x028E [0x00] END_REQSTACK()
```

### Event 65535.43

#### Metadata

| Field        | Value    |
|--------------|----------|
| Entrypoint   | 0x028F   |
| Data Size    | 16 bytes |
| Instructions | 2        |

```
      00 01 02 03 04 05 06 07  08 09 0A 0B 0C 0D 0E 0F
      -- -- -- -- -- -- -- --  -- -- -- -- -- -- -- --
0280:                                               5B                 [
0290: 04 80 F8 FF FF 7F F8 FF  FF 7F 73 65 6C 34 00     ..........sel4. 
```

#### Opcodes

```
  0: 0x028F [0x5B] LOAD_EXT_SCHEDULER: Load scheduler "sel4" with entities [EventEntity, EventEntity], work=461*
  1: 0x029E [0x00] END_REQSTACK()
```

### Event 65535.44

#### Metadata

| Field        | Value    |
|--------------|----------|
| Entrypoint   | 0x029F   |
| Data Size    | 14 bytes |
| Instructions | 2        |

```
      00 01 02 03 04 05 06 07  08 09 0A 0B 0C 0D 0E 0F
      -- -- -- -- -- -- -- --  -- -- -- -- -- -- -- --
0290:                                               53                 S
02A0: F8 FF FF 7F F8 FF FF 7F  73 65 6C 34 00           ........sel4.   
```

#### Opcodes

```
  0: 0x029F [0x53] WAIT_SCHEDULER_TASK: Wait for scheduler "sel4" with entities [EventEntity, EventEntity]
  1: 0x02AC [0x00] END_REQSTACK()
```

### Event 65535.45

#### Metadata

| Field        | Value    |
|--------------|----------|
| Entrypoint   | 0x02AD   |
| Data Size    | 16 bytes |
| Instructions | 2        |

```
      00 01 02 03 04 05 06 07  08 09 0A 0B 0C 0D 0E 0F
      -- -- -- -- -- -- -- --  -- -- -- -- -- -- -- --
02A0:                                         5B 04 80               [..
02B0: F8 FF FF 7F F8 FF FF 7F  6C 75 70 30 00           ........lup0.   
```

#### Opcodes

```
  0: 0x02AD [0x5B] LOAD_EXT_SCHEDULER: Load scheduler "lup0" with entities [EventEntity, EventEntity], work=461*
  1: 0x02BC [0x00] END_REQSTACK()
```

### Event 65535.46

#### Metadata

| Field        | Value    |
|--------------|----------|
| Entrypoint   | 0x02BD   |
| Data Size    | 14 bytes |
| Instructions | 2        |

```
      00 01 02 03 04 05 06 07  08 09 0A 0B 0C 0D 0E 0F
      -- -- -- -- -- -- -- --  -- -- -- -- -- -- -- --
02B0:                                         53 F8 FF               S..
02C0: FF 7F F8 FF FF 7F 6C 75  70 30 00                 ......lup0.     
```

#### Opcodes

```
  0: 0x02BD [0x53] WAIT_SCHEDULER_TASK: Wait for scheduler "lup0" with entities [EventEntity, EventEntity]
  1: 0x02CA [0x00] END_REQSTACK()
```

### Event 65535.47

#### Metadata

| Field        | Value   |
|--------------|---------|
| Entrypoint   | 0x02CB  |
| Data Size    | 9 bytes |
| Instructions | 3       |

```
      00 01 02 03 04 05 06 07  08 09 0A 0B 0C 0D 0E 0F
      -- -- -- -- -- -- -- --  -- -- -- -- -- -- -- --
02C0:                                   5E 69 64 6C 30             ^idl0
02D0: 1C 05 80 00                                       ....            
```

#### Opcodes

```
  0: 0x02CB [0x5E] EventEntity goes idle (kills current action) (animation: "idl0")
  1: 0x02D0 [0x1C] WAIT(30* ticks)
  2: 0x02D3 [0x00] END_REQSTACK()
```

### Event 10

#### Metadata

| Field        | Value    |
|--------------|----------|
| Entrypoint   | 0x02D4   |
| Data Size    | 13 bytes |
| Instructions | 3        |

```
      00 01 02 03 04 05 06 07  08 09 0A 0B 0C 0D 0E 0F
      -- -- -- -- -- -- -- --  -- -- -- -- -- -- -- --
02D0:             92 01 F8 FF  FF 7F 94 01 F8 FF FF 7F      ............
02E0: 00                                                .               
```

#### Opcodes

```
  0: 0x02D4 [0x92] EventEntity->Render.Flags3 ^= 0x01
  1: 0x02DA [0x94] EventEntity->Render.Flags3 ^= 0x01
  2: 0x02E0 [0x00] END_REQSTACK()
```

### Event 65535.48

#### Metadata

| Field        | Value    |
|--------------|----------|
| Entrypoint   | 0x02E1   |
| Data Size    | 10 bytes |
| Instructions | 2        |

```
      00 01 02 03 04 05 06 07  08 09 0A 0B 0C 0D 0E 0F
      -- -- -- -- -- -- -- --  -- -- -- -- -- -- -- --
02E0:    37 06 80 07 80 08 80  09 80 00                  7.........     
```

#### Opcodes

```
  0: 0x02E1 [0x37] UPDATE_EVENT_POSITION_AND_DIR: x=-150.752*, z=-319.166*, y=-31.710*, direction=180.8°*
  1: 0x02EA [0x00] END_REQSTACK()
```

### Event 65535.49

#### Metadata

| Field        | Value    |
|--------------|----------|
| Entrypoint   | 0x02EB   |
| Data Size    | 15 bytes |
| Instructions | 5        |

```
      00 01 02 03 04 05 06 07  08 09 0A 0B 0C 0D 0E 0F
      -- -- -- -- -- -- -- --  -- -- -- -- -- -- -- --
02E0:                                   32 0A 80 1F 00             2....
02F0: 0B 80 0C 80 0D 80 1F 01  6F 00                    ........o.      
```

#### Opcodes

```
  0: 0x02EB [0x32] ExtData[1]->MainSpeed = 13* * 0.1
  1: 0x02EE [0x1F] MOVE_ENTITY: EventEntity moves to X=-157.979*, Z=-318.752*, Y=-31.838*
  2: 0x02F6 [0x1F] MOVE_ENTITY: Update entity position (mode=1)
  3: 0x02F8 [0x6F] WAIT_FRAME_DELAY: Yield until WaitTime reaches zero
  4: 0x02F9 [0x00] END_REQSTACK()
```

### Event 11

#### Metadata

| Field        | Value    |
|--------------|----------|
| Entrypoint   | 0x02FA   |
| Data Size    | 13 bytes |
| Instructions | 3        |

```
      00 01 02 03 04 05 06 07  08 09 0A 0B 0C 0D 0E 0F
      -- -- -- -- -- -- -- --  -- -- -- -- -- -- -- --
02F0:                                92 01 F8 FF FF 7F            ......
0300: 94 01 F8 FF FF 7F 00                              .......         
```

#### Opcodes

```
  0: 0x02FA [0x92] EventEntity->Render.Flags3 ^= 0x01
  1: 0x0300 [0x94] EventEntity->Render.Flags3 ^= 0x01
  2: 0x0306 [0x00] END_REQSTACK()
```

### Event 65535.50

#### Metadata

| Field        | Value    |
|--------------|----------|
| Entrypoint   | 0x0307   |
| Data Size    | 10 bytes |
| Instructions | 2        |

```
      00 01 02 03 04 05 06 07  08 09 0A 0B 0C 0D 0E 0F
      -- -- -- -- -- -- -- --  -- -- -- -- -- -- -- --
0300:                      37  0E 80 0F 80 10 80 11 80         7........
0310: 00                                                .               
```

#### Opcodes

```
  0: 0x0307 [0x37] UPDATE_EVENT_POSITION_AND_DIR: x=-159.287*, z=-318.465*, y=-31.729*, direction=22.2°*
  1: 0x0310 [0x00] END_REQSTACK()
```
