# 16879983 - Alsha

## Common Data

| Field            | Value                    |
|------------------|--------------------------|
| Zone             | Misareaux Coast (ID: 25) |
| Block Size       | 212 bytes                |
| Total Events     | 5                        |
| References Count | 9                        |

## List of Events

| Event ID                 | Entrypoint   |   Size |   Instructions |
|--------------------------|--------------|--------|----------------|
| [65535](#event-65535)    | 0x0000       |      1 |              1 |
| [558](#event-558)        | 0x0001       |      1 |              1 |
| [65535.1](#event-655351) | 0x0002       |     18 |              2 |
| [65535.2](#event-655352) | 0x0014       |     93 |             11 |
| [65535.3](#event-655353) | 0x0071       |     25 |              6 |

## DAT References (imed_data)

|   Index | Hex Value   |   Dec Value |
|---------|-------------|-------------|
|       0 | 0x000A      |          10 |
|       1 | 0x0000      |           0 |
|       2 | 0x001E      |          30 |
|       3 | 0x001B      |          27 |
|       4 | 0x0005      |           5 |
|       5 | 0x0078      |         120 |
|       6 | 0x005A      |          90 |
|       7 | 0x01A4      |         420 |
|       8 | 0x00B4      |         180 |

## Events

### Event 65535

#### Metadata

| Field        | Value   |
|--------------|---------|
| Entrypoint   | 0x0000  |
| Data Size    | 1 bytes |
| Instructions | 1       |

```
      00 01 02 03 04 05 06 07  08 09 0A 0B 0C 0D 0E 0F
      -- -- -- -- -- -- -- --  -- -- -- -- -- -- -- --
0000: 00                                                .               
```

#### Opcodes

```
  0: 0x0000 [0x00] END_REQSTACK()
```

### Event 558

#### Metadata

| Field        | Value   |
|--------------|---------|
| Entrypoint   | 0x0001  |
| Data Size    | 1 bytes |
| Instructions | 1       |

```
      00 01 02 03 04 05 06 07  08 09 0A 0B 0C 0D 0E 0F
      -- -- -- -- -- -- -- --  -- -- -- -- -- -- -- --
0000:    00                                              .              
```

#### Opcodes

```
  0: 0x0001 [0x00] END_REQSTACK()
```

### Event 65535.1

#### Metadata

| Field        | Value    |
|--------------|----------|
| Entrypoint   | 0x0002   |
| Data Size    | 18 bytes |
| Instructions | 2        |

```
      00 01 02 03 04 05 06 07  08 09 0A 0B 0C 0D 0E 0F
      -- -- -- -- -- -- -- --  -- -- -- -- -- -- -- --
0000:       62 00 80 6F 91 01  01 6F 91 01 01 6D 61 69    b..o...o...mai
0010: 6E 01 80 00                                       n...            
```

#### Opcodes

```
  0: 0x0002 [0x62] LOAD_EVENT_SCHEDULER: Load scheduler "main" with entities [Alsha (ID: 16879983/0x0101916F), Alsha (ID: 16879983/0x0101916F)], work=[10*, 0*]
  1: 0x0013 [0x00] END_REQSTACK()
```

### Event 65535.2

#### Metadata

| Field        | Value    |
|--------------|----------|
| Entrypoint   | 0x0014   |
| Data Size    | 93 bytes |
| Instructions | 11       |

```
      00 01 02 03 04 05 06 07  08 09 0A 0B 0C 0D 0E 0F
      -- -- -- -- -- -- -- --  -- -- -- -- -- -- -- --
0010:             6E 6F 91 01  01 00 80 99 6F 91 01 01      no......o...
0020: 1C 02 80 62 03 80 6F 91  01 01 6F 91 01 01 6D 61  ...b..o...o...ma
0030: 69 6E 01 80 62 02 80 6F  91 01 01 6F 91 01 01 6D  in..b..o...o...m
0040: 61 69 6E 01 80 1C 04 80  62 03 80 6F 91 01 01 6F  ain.....b..o...o
0050: 91 01 01 6D 61 69 6E 01  80 1C 00 80 62 02 80 6F  ...main.....b..o
0060: 91 01 01 6F 91 01 01 6D  61 69 6E 01 80 1C 05 80  ...o...main.....
0070: 00                                                .               
```

#### Opcodes

```
  0: 0x0014 [0x6E] Alsha (ID: 16879983/0x0101916F) uses emote 10*
  1: 0x001B [0x99] Wait for Alsha (ID: 16879983/0x0101916F) animation to complete
  2: 0x0020 [0x1C] WAIT(30* ticks)
  3: 0x0023 [0x62] LOAD_EVENT_SCHEDULER: Load scheduler "main" with entities [Alsha (ID: 16879983/0x0101916F), Alsha (ID: 16879983/0x0101916F)], work=[27*, 0*]
  4: 0x0034 [0x62] LOAD_EVENT_SCHEDULER: Load scheduler "main" with entities [Alsha (ID: 16879983/0x0101916F), Alsha (ID: 16879983/0x0101916F)], work=[30*, 0*]
  5: 0x0045 [0x1C] WAIT(5* ticks)
  6: 0x0048 [0x62] LOAD_EVENT_SCHEDULER: Load scheduler "main" with entities [Alsha (ID: 16879983/0x0101916F), Alsha (ID: 16879983/0x0101916F)], work=[27*, 0*]
  7: 0x0059 [0x1C] WAIT(10* ticks)
  8: 0x005C [0x62] LOAD_EVENT_SCHEDULER: Load scheduler "main" with entities [Alsha (ID: 16879983/0x0101916F), Alsha (ID: 16879983/0x0101916F)], work=[30*, 0*]
  9: 0x006D [0x1C] WAIT(120* ticks)
 10: 0x0070 [0x00] END_REQSTACK()
```

### Event 65535.3

#### Metadata

| Field        | Value    |
|--------------|----------|
| Entrypoint   | 0x0071   |
| Data Size    | 25 bytes |
| Instructions | 6        |

```
      00 01 02 03 04 05 06 07  08 09 0A 0B 0C 0D 0E 0F
      -- -- -- -- -- -- -- --  -- -- -- -- -- -- -- --
0070:    1C 06 80 6C 6F 91 01  01 01 80 07 80 1C 08 80   ...lo..........
0080: 33 01 36 01 80 01 80 01  80 00                    3.6.......      
```

#### Opcodes

```
  0: 0x0071 [0x1C] WAIT(90* ticks)
  1: 0x0074 [0x6C] FADE_ENTITY_COLOR(entity_id=Alsha (ID: 16879983/0x0101916F), end_alpha=0*, fade_time=420*)
  2: 0x007D [0x1C] WAIT(180* ticks)
  3: 0x0080 [0x33] EventEntity->Render.Flags0 |= 0x200000 // Bit 21 (flag=0x01)
  4: 0x0082 [0x36] SET_ENTITY_EVENT_POSITION(pos_x=0.000*, pos_z=0.000*, pos_y=0.000*)
  5: 0x0089 [0x00] END_REQSTACK()
```
