# 16879948 - Nagmolada

## Common Data

| Field            | Value                    |
|------------------|--------------------------|
| Zone             | Misareaux Coast (ID: 25) |
| Block Size       | 1772 bytes               |
| Total Events     | 79                       |
| References Count | 46                       |

## List of Events

| Event ID                   | Entrypoint   |   Size |   Instructions |
|----------------------------|--------------|--------|----------------|
| [65535](#event-65535)      | 0x0000       |      1 |              1 |
| [65535.1](#event-655351)   | 0x0001       |     22 |              3 |
| [65535.2](#event-655352)   | 0x0017       |     14 |              2 |
| [65535.3](#event-655353)   | 0x0025       |     16 |              2 |
| [65535.4](#event-655354)   | 0x0035       |     20 |              3 |
| [65535.5](#event-655355)   | 0x0049       |     16 |              2 |
| [65535.6](#event-655356)   | 0x0059       |     14 |              2 |
| [65535.7](#event-655357)   | 0x0067       |     16 |              2 |
| [65535.8](#event-655358)   | 0x0077       |     14 |              2 |
| [65535.9](#event-655359)   | 0x0085       |     16 |              2 |
| [65535.10](#event-6553510) | 0x0095       |     14 |              2 |
| [65535.11](#event-6553511) | 0x00A3       |     16 |              2 |
| [65535.12](#event-6553512) | 0x00B3       |     14 |              2 |
| [65535.13](#event-6553513) | 0x00C1       |     16 |              2 |
| [65535.14](#event-6553514) | 0x00D1       |     14 |              2 |
| [65535.15](#event-6553515) | 0x00DF       |     16 |              2 |
| [65535.16](#event-6553516) | 0x00EF       |     14 |              2 |
| [65535.17](#event-6553517) | 0x00FD       |     16 |              2 |
| [65535.18](#event-6553518) | 0x010D       |     14 |              2 |
| [65535.19](#event-6553519) | 0x011B       |     16 |              2 |
| [65535.20](#event-6553520) | 0x012B       |     14 |              2 |
| [65535.21](#event-6553521) | 0x0139       |     16 |              2 |
| [65535.22](#event-6553522) | 0x0149       |     14 |              2 |
| [65535.23](#event-6553523) | 0x0157       |     16 |              2 |
| [65535.24](#event-6553524) | 0x0167       |     14 |              2 |
| [65535.25](#event-6553525) | 0x0175       |     16 |              2 |
| [65535.26](#event-6553526) | 0x0185       |     14 |              2 |
| [65535.27](#event-6553527) | 0x0193       |     16 |              2 |
| [65535.28](#event-6553528) | 0x01A3       |     14 |              2 |
| [65535.29](#event-6553529) | 0x01B1       |     16 |              2 |
| [65535.30](#event-6553530) | 0x01C1       |     14 |              2 |
| [65535.31](#event-6553531) | 0x01CF       |     16 |              2 |
| [65535.32](#event-6553532) | 0x01DF       |     14 |              2 |
| [65535.33](#event-6553533) | 0x01ED       |     16 |              2 |
| [65535.34](#event-6553534) | 0x01FD       |     14 |              2 |
| [65535.35](#event-6553535) | 0x020B       |     22 |              3 |
| [65535.36](#event-6553536) | 0x0221       |     20 |              3 |
| [65535.37](#event-6553537) | 0x0235       |     16 |              2 |
| [65535.38](#event-6553538) | 0x0245       |     14 |              2 |
| [65535.39](#event-6553539) | 0x0253       |     16 |              2 |
| [65535.40](#event-6553540) | 0x0263       |     14 |              2 |
| [65535.41](#event-6553541) | 0x0271       |     57 |              5 |
| [65535.42](#event-6553542) | 0x02AA       |     16 |              2 |
| [65535.43](#event-6553543) | 0x02BA       |     14 |              2 |
| [65535.44](#event-6553544) | 0x02C8       |     16 |              2 |
| [65535.45](#event-6553545) | 0x02D8       |     14 |              2 |
| [65535.46](#event-6553546) | 0x02E6       |     16 |              2 |
| [65535.47](#event-6553547) | 0x02F6       |     14 |              2 |
| [65535.48](#event-6553548) | 0x0304       |     16 |              2 |
| [65535.49](#event-6553549) | 0x0314       |     14 |              2 |
| [65535.50](#event-6553550) | 0x0322       |     16 |              2 |
| [65535.51](#event-6553551) | 0x0332       |     14 |              2 |
| [65535.52](#event-6553552) | 0x0340       |     16 |              2 |
| [65535.53](#event-6553553) | 0x0350       |     14 |              2 |
| [65535.54](#event-6553554) | 0x035E       |      9 |              3 |
| [65535.55](#event-6553555) | 0x0367       |     22 |              3 |
| [65535.56](#event-6553556) | 0x037D       |     14 |              2 |
| [65535.57](#event-6553557) | 0x038B       |     22 |              3 |
| [65535.58](#event-6553558) | 0x03A1       |     14 |              2 |
| [65535.59](#event-6553559) | 0x03AF       |     22 |              3 |
| [65535.60](#event-6553560) | 0x03C5       |     14 |              2 |
| [65535.61](#event-6553561) | 0x03D3       |     22 |              3 |
| [65535.62](#event-6553562) | 0x03E9       |     14 |              2 |
| [5](#event-5)              | 0x03F7       |      7 |              2 |
| [65535.63](#event-6553563) | 0x03FE       |     10 |              2 |
| [65535.64](#event-6553564) | 0x0408       |     15 |              5 |
| [65535.65](#event-6553565) | 0x0417       |     15 |              5 |
| [65535.66](#event-6553566) | 0x0426       |     45 |             11 |
| [65535.67](#event-6553567) | 0x0453       |     15 |              5 |
| [65535.68](#event-6553568) | 0x0462       |     15 |              5 |
| [65535.69](#event-6553569) | 0x0471       |     15 |              5 |
| [10](#event-10)            | 0x0480       |      9 |              3 |
| [11](#event-11)            | 0x0489       |      9 |              3 |
| [65535.70](#event-6553570) | 0x0492       |     10 |              2 |
| [65535.71](#event-6553571) | 0x049C       |     15 |              5 |
| [65535.72](#event-6553572) | 0x04AB       |     15 |              5 |
| [65535.73](#event-6553573) | 0x04BA       |     15 |              5 |
| [65535.74](#event-6553574) | 0x04C9       |     15 |              5 |
| [65535.75](#event-6553575) | 0x04D8       |     14 |              4 |

## DAT References (imed_data)

|   Index | Hex Value   |   Dec Value |
|---------|-------------|-------------|
|       0 | 0x01D2      |         466 |
|       1 | 0x01D1      |         465 |
|       2 | 0x01D3      |         467 |
|       3 | 0x01D7      |         471 |
|       4 | 0x01D4      |         468 |
|       5 | 0x01D5      |         469 |
|       6 | 0x01D6      |         470 |
|       7 | 0x001E      |          30 |
|       8 | 0x01D8      |         472 |
|       9 | 0xFFFDCD0F  |  4294823183 |
|      10 | 0xFFFB159A  |  4294645146 |
|      11 | 0xFFFF8637  |  4294936119 |
|      12 | 0x0876      |        2166 |
|      13 | 0x000D      |          13 |
|      14 | 0xFFFDB5D2  |  4294817234 |
|      15 | 0xFFFB1A34  |  4294646324 |
|      16 | 0xFFFF8431  |  4294935601 |
|      17 | 0xFFFDA72A  |  4294813482 |
|      18 | 0xFFFB1C74  |  4294646900 |
|      19 | 0xFFFF8383  |  4294935427 |
|      20 | 0xFFFDAF11  |  4294815505 |
|      21 | 0xFFFB0CAE  |  4294642862 |
|      22 | 0xFFFF84E1  |  4294935777 |
|      23 | 0xFFFDAC3C  |  4294814780 |
|      24 | 0xFFFB11A8  |  4294644136 |
|      25 | 0xFFFF845A  |  4294935642 |
|      26 | 0xFFFDC17D  |  4294820221 |
|      27 | 0xFFFB0CC2  |  4294642882 |
|      28 | 0xFFFF8523  |  4294935843 |
|      29 | 0xFFFDE70B  |  4294829835 |
|      30 | 0xFFFB05CE  |  4294641102 |
|      31 | 0xFFFF878C  |  4294936460 |
|      32 | 0xFFFDBADC  |  4294818524 |
|      33 | 0xFFFB1A9C  |  4294646428 |
|      34 | 0xFFFF8470  |  4294935664 |
|      35 | 0x0812      |        2066 |
|      36 | 0xFFFDAA9D  |  4294814365 |
|      37 | 0xFFFB1C37  |  4294646839 |
|      38 | 0xFFFF83B3  |  4294935475 |
|      39 | 0xFFFDA175  |  4294812021 |
|      40 | 0xFFFB1D63  |  4294647139 |
|      41 | 0xFFFF8310  |  4294935312 |
|      42 | 0xFFFD9DB1  |  4294811057 |
|      43 | 0xFFFB1D8C  |  4294647180 |
|      44 | 0xFFFF82E9  |  4294935273 |
|      45 | 0x00D0      |         208 |

## Events

### Event 65535

#### Metadata

| Field        | Value   |
|--------------|---------|
| Entrypoint   | 0x0000  |
| Data Size    | 1 bytes |
| Instructions | 1       |

```
      00 01 02 03 04 05 06 07  08 09 0A 0B 0C 0D 0E 0F
      -- -- -- -- -- -- -- --  -- -- -- -- -- -- -- --
0000: 00                                                .               
```

#### Opcodes

```
  0: 0x0000 [0x00] END_REQSTACK()
```

### Event 65535.1

#### Metadata

| Field        | Value    |
|--------------|----------|
| Entrypoint   | 0x0001   |
| Data Size    | 22 bytes |
| Instructions | 3        |

```
      00 01 02 03 04 05 06 07  08 09 0A 0B 0C 0D 0E 0F
      -- -- -- -- -- -- -- --  -- -- -- -- -- -- -- --
0000:    81 00 F8 FF FF 7F 5B  00 80 F8 FF FF 7F F8 FF   ......[........
0010: FF 7F 63 6F 6E 30 00                              ..con0.         
```

#### Opcodes

```
  0: 0x0001 [0x81] SET_ENTITY_BLINKING(blink_flag=0x00, entity=EventEntity)
  1: 0x0007 [0x5B] LOAD_EXT_SCHEDULER: Load scheduler "con0" with entities [EventEntity, EventEntity], work=466*
  2: 0x0016 [0x00] END_REQSTACK()
```

### Event 65535.2

#### Metadata

| Field        | Value    |
|--------------|----------|
| Entrypoint   | 0x0017   |
| Data Size    | 14 bytes |
| Instructions | 2        |

```
      00 01 02 03 04 05 06 07  08 09 0A 0B 0C 0D 0E 0F
      -- -- -- -- -- -- -- --  -- -- -- -- -- -- -- --
0010:                      53  F8 FF FF 7F F8 FF FF 7F         S........
0020: 63 6F 6E 30 00                                    con0.           
```

#### Opcodes

```
  0: 0x0017 [0x53] WAIT_SCHEDULER_TASK: Wait for scheduler "con0" with entities [EventEntity, EventEntity]
  1: 0x0024 [0x00] END_REQSTACK()
```

### Event 65535.3

#### Metadata

| Field        | Value    |
|--------------|----------|
| Entrypoint   | 0x0025   |
| Data Size    | 16 bytes |
| Instructions | 2        |

```
      00 01 02 03 04 05 06 07  08 09 0A 0B 0C 0D 0E 0F
      -- -- -- -- -- -- -- --  -- -- -- -- -- -- -- --
0020:                5B 00 80  F8 FF FF 7F F8 FF FF 7F       [..........
0030: 63 6F 6E 31 00                                    con1.           
```

#### Opcodes

```
  0: 0x0025 [0x5B] LOAD_EXT_SCHEDULER: Load scheduler "con1" with entities [EventEntity, EventEntity], work=466*
  1: 0x0034 [0x00] END_REQSTACK()
```

### Event 65535.4

#### Metadata

| Field        | Value    |
|--------------|----------|
| Entrypoint   | 0x0035   |
| Data Size    | 20 bytes |
| Instructions | 3        |

```
      00 01 02 03 04 05 06 07  08 09 0A 0B 0C 0D 0E 0F
      -- -- -- -- -- -- -- --  -- -- -- -- -- -- -- --
0030:                53 F8 FF  FF 7F F8 FF FF 7F 63 6F       S........co
0040: 6E 31 81 01 F8 FF FF 7F  00                       n1.......       
```

#### Opcodes

```
  0: 0x0035 [0x53] WAIT_SCHEDULER_TASK: Wait for scheduler "con1" with entities [EventEntity, EventEntity]
  1: 0x0042 [0x81] SET_ENTITY_BLINKING(blink_flag=0x01, entity=EventEntity)
  2: 0x0048 [0x00] END_REQSTACK()
```

### Event 65535.5

#### Metadata

| Field        | Value    |
|--------------|----------|
| Entrypoint   | 0x0049   |
| Data Size    | 16 bytes |
| Instructions | 2        |

```
      00 01 02 03 04 05 06 07  08 09 0A 0B 0C 0D 0E 0F
      -- -- -- -- -- -- -- --  -- -- -- -- -- -- -- --
0040:                             5B 01 80 F8 FF FF 7F           [......
0050: F8 FF FF 7F 74 6C 61 30  00                       ....tla0.       
```

#### Opcodes

```
  0: 0x0049 [0x5B] LOAD_EXT_SCHEDULER: Load scheduler "tla0" with entities [EventEntity, EventEntity], work=465*
  1: 0x0058 [0x00] END_REQSTACK()
```

### Event 65535.6

#### Metadata

| Field        | Value    |
|--------------|----------|
| Entrypoint   | 0x0059   |
| Data Size    | 14 bytes |
| Instructions | 2        |

```
      00 01 02 03 04 05 06 07  08 09 0A 0B 0C 0D 0E 0F
      -- -- -- -- -- -- -- --  -- -- -- -- -- -- -- --
0050:                             53 F8 FF FF 7F F8 FF           S......
0060: FF 7F 74 6C 61 30 00                              ..tla0.         
```

#### Opcodes

```
  0: 0x0059 [0x53] WAIT_SCHEDULER_TASK: Wait for scheduler "tla0" with entities [EventEntity, EventEntity]
  1: 0x0066 [0x00] END_REQSTACK()
```

### Event 65535.7

#### Metadata

| Field        | Value    |
|--------------|----------|
| Entrypoint   | 0x0067   |
| Data Size    | 16 bytes |
| Instructions | 2        |

```
      00 01 02 03 04 05 06 07  08 09 0A 0B 0C 0D 0E 0F
      -- -- -- -- -- -- -- --  -- -- -- -- -- -- -- --
0060:                      5B  01 80 F8 FF FF 7F F8 FF         [........
0070: FF 7F 74 6C 61 31 00                              ..tla1.         
```

#### Opcodes

```
  0: 0x0067 [0x5B] LOAD_EXT_SCHEDULER: Load scheduler "tla1" with entities [EventEntity, EventEntity], work=465*
  1: 0x0076 [0x00] END_REQSTACK()
```

### Event 65535.8

#### Metadata

| Field        | Value    |
|--------------|----------|
| Entrypoint   | 0x0077   |
| Data Size    | 14 bytes |
| Instructions | 2        |

```
      00 01 02 03 04 05 06 07  08 09 0A 0B 0C 0D 0E 0F
      -- -- -- -- -- -- -- --  -- -- -- -- -- -- -- --
0070:                      53  F8 FF FF 7F F8 FF FF 7F         S........
0080: 74 6C 61 31 00                                    tla1.           
```

#### Opcodes

```
  0: 0x0077 [0x53] WAIT_SCHEDULER_TASK: Wait for scheduler "tla1" with entities [EventEntity, EventEntity]
  1: 0x0084 [0x00] END_REQSTACK()
```

### Event 65535.9

#### Metadata

| Field        | Value    |
|--------------|----------|
| Entrypoint   | 0x0085   |
| Data Size    | 16 bytes |
| Instructions | 2        |

```
      00 01 02 03 04 05 06 07  08 09 0A 0B 0C 0D 0E 0F
      -- -- -- -- -- -- -- --  -- -- -- -- -- -- -- --
0080:                5B 01 80  F8 FF FF 7F F8 FF FF 7F       [..........
0090: 74 61 62 30 00                                    tab0.           
```

#### Opcodes

```
  0: 0x0085 [0x5B] LOAD_EXT_SCHEDULER: Load scheduler "tab0" with entities [EventEntity, EventEntity], work=465*
  1: 0x0094 [0x00] END_REQSTACK()
```

### Event 65535.10

#### Metadata

| Field        | Value    |
|--------------|----------|
| Entrypoint   | 0x0095   |
| Data Size    | 14 bytes |
| Instructions | 2        |

```
      00 01 02 03 04 05 06 07  08 09 0A 0B 0C 0D 0E 0F
      -- -- -- -- -- -- -- --  -- -- -- -- -- -- -- --
0090:                53 F8 FF  FF 7F F8 FF FF 7F 74 61       S........ta
00A0: 62 30 00                                          b0.             
```

#### Opcodes

```
  0: 0x0095 [0x53] WAIT_SCHEDULER_TASK: Wait for scheduler "tab0" with entities [EventEntity, EventEntity]
  1: 0x00A2 [0x00] END_REQSTACK()
```

### Event 65535.11

#### Metadata

| Field        | Value    |
|--------------|----------|
| Entrypoint   | 0x00A3   |
| Data Size    | 16 bytes |
| Instructions | 2        |

```
      00 01 02 03 04 05 06 07  08 09 0A 0B 0C 0D 0E 0F
      -- -- -- -- -- -- -- --  -- -- -- -- -- -- -- --
00A0:          5B 01 80 F8 FF  FF 7F F8 FF FF 7F 74 62     [..........tb
00B0: 61 30 00                                          a0.             
```

#### Opcodes

```
  0: 0x00A3 [0x5B] LOAD_EXT_SCHEDULER: Load scheduler "tba0" with entities [EventEntity, EventEntity], work=465*
  1: 0x00B2 [0x00] END_REQSTACK()
```

### Event 65535.12

#### Metadata

| Field        | Value    |
|--------------|----------|
| Entrypoint   | 0x00B3   |
| Data Size    | 14 bytes |
| Instructions | 2        |

```
      00 01 02 03 04 05 06 07  08 09 0A 0B 0C 0D 0E 0F
      -- -- -- -- -- -- -- --  -- -- -- -- -- -- -- --
00B0:          53 F8 FF FF 7F  F8 FF FF 7F 74 62 61 30     S........tba0
00C0: 00                                                .               
```

#### Opcodes

```
  0: 0x00B3 [0x53] WAIT_SCHEDULER_TASK: Wait for scheduler "tba0" with entities [EventEntity, EventEntity]
  1: 0x00C0 [0x00] END_REQSTACK()
```

### Event 65535.13

#### Metadata

| Field        | Value    |
|--------------|----------|
| Entrypoint   | 0x00C1   |
| Data Size    | 16 bytes |
| Instructions | 2        |

```
      00 01 02 03 04 05 06 07  08 09 0A 0B 0C 0D 0E 0F
      -- -- -- -- -- -- -- --  -- -- -- -- -- -- -- --
00C0:    5B 01 80 F8 FF FF 7F  F8 FF FF 7F 74 6C 62 30   [..........tlb0
00D0: 00                                                .               
```

#### Opcodes

```
  0: 0x00C1 [0x5B] LOAD_EXT_SCHEDULER: Load scheduler "tlb0" with entities [EventEntity, EventEntity], work=465*
  1: 0x00D0 [0x00] END_REQSTACK()
```

### Event 65535.14

#### Metadata

| Field        | Value    |
|--------------|----------|
| Entrypoint   | 0x00D1   |
| Data Size    | 14 bytes |
| Instructions | 2        |

```
      00 01 02 03 04 05 06 07  08 09 0A 0B 0C 0D 0E 0F
      -- -- -- -- -- -- -- --  -- -- -- -- -- -- -- --
00D0:    53 F8 FF FF 7F F8 FF  FF 7F 74 6C 62 30 00      S........tlb0. 
```

#### Opcodes

```
  0: 0x00D1 [0x53] WAIT_SCHEDULER_TASK: Wait for scheduler "tlb0" with entities [EventEntity, EventEntity]
  1: 0x00DE [0x00] END_REQSTACK()
```

### Event 65535.15

#### Metadata

| Field        | Value    |
|--------------|----------|
| Entrypoint   | 0x00DF   |
| Data Size    | 16 bytes |
| Instructions | 2        |

```
      00 01 02 03 04 05 06 07  08 09 0A 0B 0C 0D 0E 0F
      -- -- -- -- -- -- -- --  -- -- -- -- -- -- -- --
00D0:                                               5B                 [
00E0: 01 80 F8 FF FF 7F F8 FF  FF 7F 74 6C 62 31 00     ..........tlb1. 
```

#### Opcodes

```
  0: 0x00DF [0x5B] LOAD_EXT_SCHEDULER: Load scheduler "tlb1" with entities [EventEntity, EventEntity], work=465*
  1: 0x00EE [0x00] END_REQSTACK()
```

### Event 65535.16

#### Metadata

| Field        | Value    |
|--------------|----------|
| Entrypoint   | 0x00EF   |
| Data Size    | 14 bytes |
| Instructions | 2        |

```
      00 01 02 03 04 05 06 07  08 09 0A 0B 0C 0D 0E 0F
      -- -- -- -- -- -- -- --  -- -- -- -- -- -- -- --
00E0:                                               53                 S
00F0: F8 FF FF 7F F8 FF FF 7F  74 6C 62 31 00           ........tlb1.   
```

#### Opcodes

```
  0: 0x00EF [0x53] WAIT_SCHEDULER_TASK: Wait for scheduler "tlb1" with entities [EventEntity, EventEntity]
  1: 0x00FC [0x00] END_REQSTACK()
```

### Event 65535.17

#### Metadata

| Field        | Value    |
|--------------|----------|
| Entrypoint   | 0x00FD   |
| Data Size    | 16 bytes |
| Instructions | 2        |

```
      00 01 02 03 04 05 06 07  08 09 0A 0B 0C 0D 0E 0F
      -- -- -- -- -- -- -- --  -- -- -- -- -- -- -- --
00F0:                                         5B 01 80               [..
0100: F8 FF FF 7F F8 FF FF 7F  74 62 68 62 00           ........tbhb.   
```

#### Opcodes

```
  0: 0x00FD [0x5B] LOAD_EXT_SCHEDULER: Load scheduler "tbhb" with entities [EventEntity, EventEntity], work=465*
  1: 0x010C [0x00] END_REQSTACK()
```

### Event 65535.18

#### Metadata

| Field        | Value    |
|--------------|----------|
| Entrypoint   | 0x010D   |
| Data Size    | 14 bytes |
| Instructions | 2        |

```
      00 01 02 03 04 05 06 07  08 09 0A 0B 0C 0D 0E 0F
      -- -- -- -- -- -- -- --  -- -- -- -- -- -- -- --
0100:                                         53 F8 FF               S..
0110: FF 7F F8 FF FF 7F 74 62  68 62 00                 ......tbhb.     
```

#### Opcodes

```
  0: 0x010D [0x53] WAIT_SCHEDULER_TASK: Wait for scheduler "tbhb" with entities [EventEntity, EventEntity]
  1: 0x011A [0x00] END_REQSTACK()
```

### Event 65535.19

#### Metadata

| Field        | Value    |
|--------------|----------|
| Entrypoint   | 0x011B   |
| Data Size    | 16 bytes |
| Instructions | 2        |

```
      00 01 02 03 04 05 06 07  08 09 0A 0B 0C 0D 0E 0F
      -- -- -- -- -- -- -- --  -- -- -- -- -- -- -- --
0110:                                   5B 01 80 F8 FF             [....
0120: FF 7F F8 FF FF 7F 74 68  61 30 00                 ......tha0.     
```

#### Opcodes

```
  0: 0x011B [0x5B] LOAD_EXT_SCHEDULER: Load scheduler "tha0" with entities [EventEntity, EventEntity], work=465*
  1: 0x012A [0x00] END_REQSTACK()
```

### Event 65535.20

#### Metadata

| Field        | Value    |
|--------------|----------|
| Entrypoint   | 0x012B   |
| Data Size    | 14 bytes |
| Instructions | 2        |

```
      00 01 02 03 04 05 06 07  08 09 0A 0B 0C 0D 0E 0F
      -- -- -- -- -- -- -- --  -- -- -- -- -- -- -- --
0120:                                   53 F8 FF FF 7F             S....
0130: F8 FF FF 7F 74 68 61 30  00                       ....tha0.       
```

#### Opcodes

```
  0: 0x012B [0x53] WAIT_SCHEDULER_TASK: Wait for scheduler "tha0" with entities [EventEntity, EventEntity]
  1: 0x0138 [0x00] END_REQSTACK()
```

### Event 65535.21

#### Metadata

| Field        | Value    |
|--------------|----------|
| Entrypoint   | 0x0139   |
| Data Size    | 16 bytes |
| Instructions | 2        |

```
      00 01 02 03 04 05 06 07  08 09 0A 0B 0C 0D 0E 0F
      -- -- -- -- -- -- -- --  -- -- -- -- -- -- -- --
0130:                             5B 01 80 F8 FF FF 7F           [......
0140: F8 FF FF 7F 74 68 61 31  00                       ....tha1.       
```

#### Opcodes

```
  0: 0x0139 [0x5B] LOAD_EXT_SCHEDULER: Load scheduler "tha1" with entities [EventEntity, EventEntity], work=465*
  1: 0x0148 [0x00] END_REQSTACK()
```

### Event 65535.22

#### Metadata

| Field        | Value    |
|--------------|----------|
| Entrypoint   | 0x0149   |
| Data Size    | 14 bytes |
| Instructions | 2        |

```
      00 01 02 03 04 05 06 07  08 09 0A 0B 0C 0D 0E 0F
      -- -- -- -- -- -- -- --  -- -- -- -- -- -- -- --
0140:                             53 F8 FF FF 7F F8 FF           S......
0150: FF 7F 74 68 61 31 00                              ..tha1.         
```

#### Opcodes

```
  0: 0x0149 [0x53] WAIT_SCHEDULER_TASK: Wait for scheduler "tha1" with entities [EventEntity, EventEntity]
  1: 0x0156 [0x00] END_REQSTACK()
```

### Event 65535.23

#### Metadata

| Field        | Value    |
|--------------|----------|
| Entrypoint   | 0x0157   |
| Data Size    | 16 bytes |
| Instructions | 2        |

```
      00 01 02 03 04 05 06 07  08 09 0A 0B 0C 0D 0E 0F
      -- -- -- -- -- -- -- --  -- -- -- -- -- -- -- --
0150:                      5B  01 80 F8 FF FF 7F F8 FF         [........
0160: FF 7F 74 68 62 30 00                              ..thb0.         
```

#### Opcodes

```
  0: 0x0157 [0x5B] LOAD_EXT_SCHEDULER: Load scheduler "thb0" with entities [EventEntity, EventEntity], work=465*
  1: 0x0166 [0x00] END_REQSTACK()
```

### Event 65535.24

#### Metadata

| Field        | Value    |
|--------------|----------|
| Entrypoint   | 0x0167   |
| Data Size    | 14 bytes |
| Instructions | 2        |

```
      00 01 02 03 04 05 06 07  08 09 0A 0B 0C 0D 0E 0F
      -- -- -- -- -- -- -- --  -- -- -- -- -- -- -- --
0160:                      53  F8 FF FF 7F F8 FF FF 7F         S........
0170: 74 68 62 30 00                                    thb0.           
```

#### Opcodes

```
  0: 0x0167 [0x53] WAIT_SCHEDULER_TASK: Wait for scheduler "thb0" with entities [EventEntity, EventEntity]
  1: 0x0174 [0x00] END_REQSTACK()
```

### Event 65535.25

#### Metadata

| Field        | Value    |
|--------------|----------|
| Entrypoint   | 0x0175   |
| Data Size    | 16 bytes |
| Instructions | 2        |

```
      00 01 02 03 04 05 06 07  08 09 0A 0B 0C 0D 0E 0F
      -- -- -- -- -- -- -- --  -- -- -- -- -- -- -- --
0170:                5B 01 80  F8 FF FF 7F F8 FF FF 7F       [..........
0180: 74 68 62 31 00                                    thb1.           
```

#### Opcodes

```
  0: 0x0175 [0x5B] LOAD_EXT_SCHEDULER: Load scheduler "thb1" with entities [EventEntity, EventEntity], work=465*
  1: 0x0184 [0x00] END_REQSTACK()
```

### Event 65535.26

#### Metadata

| Field        | Value    |
|--------------|----------|
| Entrypoint   | 0x0185   |
| Data Size    | 14 bytes |
| Instructions | 2        |

```
      00 01 02 03 04 05 06 07  08 09 0A 0B 0C 0D 0E 0F
      -- -- -- -- -- -- -- --  -- -- -- -- -- -- -- --
0180:                53 F8 FF  FF 7F F8 FF FF 7F 74 68       S........th
0190: 62 31 00                                          b1.             
```

#### Opcodes

```
  0: 0x0185 [0x53] WAIT_SCHEDULER_TASK: Wait for scheduler "thb1" with entities [EventEntity, EventEntity]
  1: 0x0192 [0x00] END_REQSTACK()
```

### Event 65535.27

#### Metadata

| Field        | Value    |
|--------------|----------|
| Entrypoint   | 0x0193   |
| Data Size    | 16 bytes |
| Instructions | 2        |

```
      00 01 02 03 04 05 06 07  08 09 0A 0B 0C 0D 0E 0F
      -- -- -- -- -- -- -- --  -- -- -- -- -- -- -- --
0190:          5B 02 80 F8 FF  FF 7F F8 FF FF 7F 6D 67     [..........mg
01A0: 69 30 00                                          i0.             
```

#### Opcodes

```
  0: 0x0193 [0x5B] LOAD_EXT_SCHEDULER: Load scheduler "mgi0" with entities [EventEntity, EventEntity], work=467*
  1: 0x01A2 [0x00] END_REQSTACK()
```

### Event 65535.28

#### Metadata

| Field        | Value    |
|--------------|----------|
| Entrypoint   | 0x01A3   |
| Data Size    | 14 bytes |
| Instructions | 2        |

```
      00 01 02 03 04 05 06 07  08 09 0A 0B 0C 0D 0E 0F
      -- -- -- -- -- -- -- --  -- -- -- -- -- -- -- --
01A0:          53 F8 FF FF 7F  F8 FF FF 7F 6D 67 69 30     S........mgi0
01B0: 00                                                .               
```

#### Opcodes

```
  0: 0x01A3 [0x53] WAIT_SCHEDULER_TASK: Wait for scheduler "mgi0" with entities [EventEntity, EventEntity]
  1: 0x01B0 [0x00] END_REQSTACK()
```

### Event 65535.29

#### Metadata

| Field        | Value    |
|--------------|----------|
| Entrypoint   | 0x01B1   |
| Data Size    | 16 bytes |
| Instructions | 2        |

```
      00 01 02 03 04 05 06 07  08 09 0A 0B 0C 0D 0E 0F
      -- -- -- -- -- -- -- --  -- -- -- -- -- -- -- --
01B0:    5B 00 80 F8 FF FF 7F  F8 FF FF 7F 6D 67 63 30   [..........mgc0
01C0: 00                                                .               
```

#### Opcodes

```
  0: 0x01B1 [0x5B] LOAD_EXT_SCHEDULER: Load scheduler "mgc0" with entities [EventEntity, EventEntity], work=466*
  1: 0x01C0 [0x00] END_REQSTACK()
```

### Event 65535.30

#### Metadata

| Field        | Value    |
|--------------|----------|
| Entrypoint   | 0x01C1   |
| Data Size    | 14 bytes |
| Instructions | 2        |

```
      00 01 02 03 04 05 06 07  08 09 0A 0B 0C 0D 0E 0F
      -- -- -- -- -- -- -- --  -- -- -- -- -- -- -- --
01C0:    53 F8 FF FF 7F F8 FF  FF 7F 6D 67 63 30 00      S........mgc0. 
```

#### Opcodes

```
  0: 0x01C1 [0x53] WAIT_SCHEDULER_TASK: Wait for scheduler "mgc0" with entities [EventEntity, EventEntity]
  1: 0x01CE [0x00] END_REQSTACK()
```

### Event 65535.31

#### Metadata

| Field        | Value    |
|--------------|----------|
| Entrypoint   | 0x01CF   |
| Data Size    | 16 bytes |
| Instructions | 2        |

```
      00 01 02 03 04 05 06 07  08 09 0A 0B 0C 0D 0E 0F
      -- -- -- -- -- -- -- --  -- -- -- -- -- -- -- --
01C0:                                               5B                 [
01D0: 00 80 F8 FF FF 7F F8 FF  FF 7F 6D 67 63 31 00     ..........mgc1. 
```

#### Opcodes

```
  0: 0x01CF [0x5B] LOAD_EXT_SCHEDULER: Load scheduler "mgc1" with entities [EventEntity, EventEntity], work=466*
  1: 0x01DE [0x00] END_REQSTACK()
```

### Event 65535.32

#### Metadata

| Field        | Value    |
|--------------|----------|
| Entrypoint   | 0x01DF   |
| Data Size    | 14 bytes |
| Instructions | 2        |

```
      00 01 02 03 04 05 06 07  08 09 0A 0B 0C 0D 0E 0F
      -- -- -- -- -- -- -- --  -- -- -- -- -- -- -- --
01D0:                                               53                 S
01E0: F8 FF FF 7F F8 FF FF 7F  6D 67 63 31 00           ........mgc1.   
```

#### Opcodes

```
  0: 0x01DF [0x53] WAIT_SCHEDULER_TASK: Wait for scheduler "mgc1" with entities [EventEntity, EventEntity]
  1: 0x01EC [0x00] END_REQSTACK()
```

### Event 65535.33

#### Metadata

| Field        | Value    |
|--------------|----------|
| Entrypoint   | 0x01ED   |
| Data Size    | 16 bytes |
| Instructions | 2        |

```
      00 01 02 03 04 05 06 07  08 09 0A 0B 0C 0D 0E 0F
      -- -- -- -- -- -- -- --  -- -- -- -- -- -- -- --
01E0:                                         5B 03 80               [..
01F0: F8 FF FF 7F F8 FF FF 7F  76 73 30 30 00           ........vs00.   
```

#### Opcodes

```
  0: 0x01ED [0x5B] LOAD_EXT_SCHEDULER: Load scheduler "vs00" with entities [EventEntity, EventEntity], work=471*
  1: 0x01FC [0x00] END_REQSTACK()
```

### Event 65535.34

#### Metadata

| Field        | Value    |
|--------------|----------|
| Entrypoint   | 0x01FD   |
| Data Size    | 14 bytes |
| Instructions | 2        |

```
      00 01 02 03 04 05 06 07  08 09 0A 0B 0C 0D 0E 0F
      -- -- -- -- -- -- -- --  -- -- -- -- -- -- -- --
01F0:                                         53 F8 FF               S..
0200: FF 7F F8 FF FF 7F 76 73  30 30 00                 ......vs00.     
```

#### Opcodes

```
  0: 0x01FD [0x53] WAIT_SCHEDULER_TASK: Wait for scheduler "vs00" with entities [EventEntity, EventEntity]
  1: 0x020A [0x00] END_REQSTACK()
```

### Event 65535.35

#### Metadata

| Field        | Value    |
|--------------|----------|
| Entrypoint   | 0x020B   |
| Data Size    | 22 bytes |
| Instructions | 3        |

```
      00 01 02 03 04 05 06 07  08 09 0A 0B 0C 0D 0E 0F
      -- -- -- -- -- -- -- --  -- -- -- -- -- -- -- --
0200:                                   7C 00 F8 FF FF             |....
0210: 7F 5B 03 80 F8 FF FF 7F  F8 FF FF 7F 76 73 30 31  .[..........vs01
0220: 00                                                .               
```

#### Opcodes

```
  0: 0x020B [0x7C] EventEntity->Render.Flags2 |= 0x00
  1: 0x0211 [0x5B] LOAD_EXT_SCHEDULER: Load scheduler "vs01" with entities [EventEntity, EventEntity], work=471*
  2: 0x0220 [0x00] END_REQSTACK()
```

### Event 65535.36

#### Metadata

| Field        | Value    |
|--------------|----------|
| Entrypoint   | 0x0221   |
| Data Size    | 20 bytes |
| Instructions | 3        |

```
      00 01 02 03 04 05 06 07  08 09 0A 0B 0C 0D 0E 0F
      -- -- -- -- -- -- -- --  -- -- -- -- -- -- -- --
0220:    53 F8 FF FF 7F F8 FF  FF 7F 76 73 30 31 7C 01   S........vs01|.
0230: F8 FF FF 7F 00                                    .....           
```

#### Opcodes

```
  0: 0x0221 [0x53] WAIT_SCHEDULER_TASK: Wait for scheduler "vs01" with entities [EventEntity, EventEntity]
  1: 0x022E [0x7C] EventEntity->Render.Flags2 |= 0x01
  2: 0x0234 [0x00] END_REQSTACK()
```

### Event 65535.37

#### Metadata

| Field        | Value    |
|--------------|----------|
| Entrypoint   | 0x0235   |
| Data Size    | 16 bytes |
| Instructions | 2        |

```
      00 01 02 03 04 05 06 07  08 09 0A 0B 0C 0D 0E 0F
      -- -- -- -- -- -- -- --  -- -- -- -- -- -- -- --
0230:                5B 03 80  F8 FF FF 7F F8 FF FF 7F       [..........
0240: 76 73 30 32 00                                    vs02.           
```

#### Opcodes

```
  0: 0x0235 [0x5B] LOAD_EXT_SCHEDULER: Load scheduler "vs02" with entities [EventEntity, EventEntity], work=471*
  1: 0x0244 [0x00] END_REQSTACK()
```

### Event 65535.38

#### Metadata

| Field        | Value    |
|--------------|----------|
| Entrypoint   | 0x0245   |
| Data Size    | 14 bytes |
| Instructions | 2        |

```
      00 01 02 03 04 05 06 07  08 09 0A 0B 0C 0D 0E 0F
      -- -- -- -- -- -- -- --  -- -- -- -- -- -- -- --
0240:                53 F8 FF  FF 7F F8 FF FF 7F 76 73       S........vs
0250: 30 32 00                                          02.             
```

#### Opcodes

```
  0: 0x0245 [0x53] WAIT_SCHEDULER_TASK: Wait for scheduler "vs02" with entities [EventEntity, EventEntity]
  1: 0x0252 [0x00] END_REQSTACK()
```

### Event 65535.39

#### Metadata

| Field        | Value    |
|--------------|----------|
| Entrypoint   | 0x0253   |
| Data Size    | 16 bytes |
| Instructions | 2        |

```
      00 01 02 03 04 05 06 07  08 09 0A 0B 0C 0D 0E 0F
      -- -- -- -- -- -- -- --  -- -- -- -- -- -- -- --
0250:          5B 03 80 F8 FF  FF 7F F8 FF FF 7F 76 73     [..........vs
0260: 30 33 00                                          03.             
```

#### Opcodes

```
  0: 0x0253 [0x5B] LOAD_EXT_SCHEDULER: Load scheduler "vs03" with entities [EventEntity, EventEntity], work=471*
  1: 0x0262 [0x00] END_REQSTACK()
```

### Event 65535.40

#### Metadata

| Field        | Value    |
|--------------|----------|
| Entrypoint   | 0x0263   |
| Data Size    | 14 bytes |
| Instructions | 2        |

```
      00 01 02 03 04 05 06 07  08 09 0A 0B 0C 0D 0E 0F
      -- -- -- -- -- -- -- --  -- -- -- -- -- -- -- --
0260:          53 F8 FF FF 7F  F8 FF FF 7F 76 73 30 33     S........vs03
0270: 00                                                .               
```

#### Opcodes

```
  0: 0x0263 [0x53] WAIT_SCHEDULER_TASK: Wait for scheduler "vs03" with entities [EventEntity, EventEntity]
  1: 0x0270 [0x00] END_REQSTACK()
```

### Event 65535.41

#### Metadata

| Field        | Value    |
|--------------|----------|
| Entrypoint   | 0x0271   |
| Data Size    | 57 bytes |
| Instructions | 5        |

```
      00 01 02 03 04 05 06 07  08 09 0A 0B 0C 0D 0E 0F
      -- -- -- -- -- -- -- --  -- -- -- -- -- -- -- --
0270:    5B 03 80 F8 FF FF 7F  F8 FF FF 7F 76 73 30 32   [..........vs02
0280: 53 F8 FF FF 7F F8 FF FF  7F 76 73 30 32 5B 03 80  S........vs02[..
0290: F8 FF FF 7F F8 FF FF 7F  76 73 30 33 53 F8 FF FF  ........vs03S...
02A0: 7F F8 FF FF 7F 76 73 30  33 00                    .....vs03.      
```

#### Opcodes

```
  0: 0x0271 [0x5B] LOAD_EXT_SCHEDULER: Load scheduler "vs02" with entities [EventEntity, EventEntity], work=471*
  1: 0x0280 [0x53] WAIT_SCHEDULER_TASK: Wait for scheduler "vs02" with entities [EventEntity, EventEntity]
  2: 0x028D [0x5B] LOAD_EXT_SCHEDULER: Load scheduler "vs03" with entities [EventEntity, EventEntity], work=471*
  3: 0x029C [0x53] WAIT_SCHEDULER_TASK: Wait for scheduler "vs03" with entities [EventEntity, EventEntity]
  4: 0x02A9 [0x00] END_REQSTACK()
```

### Event 65535.42

#### Metadata

| Field        | Value    |
|--------------|----------|
| Entrypoint   | 0x02AA   |
| Data Size    | 16 bytes |
| Instructions | 2        |

```
      00 01 02 03 04 05 06 07  08 09 0A 0B 0C 0D 0E 0F
      -- -- -- -- -- -- -- --  -- -- -- -- -- -- -- --
02A0:                                5B 04 80 F8 FF FF            [.....
02B0: 7F F8 FF FF 7F 63 34 30  30 00                    .....c400.      
```

#### Opcodes

```
  0: 0x02AA [0x5B] LOAD_EXT_SCHEDULER: Load scheduler "c400" with entities [EventEntity, EventEntity], work=468*
  1: 0x02B9 [0x00] END_REQSTACK()
```

### Event 65535.43

#### Metadata

| Field        | Value    |
|--------------|----------|
| Entrypoint   | 0x02BA   |
| Data Size    | 14 bytes |
| Instructions | 2        |

```
      00 01 02 03 04 05 06 07  08 09 0A 0B 0C 0D 0E 0F
      -- -- -- -- -- -- -- --  -- -- -- -- -- -- -- --
02B0:                                53 F8 FF FF 7F F8            S.....
02C0: FF FF 7F 63 34 30 30 00                           ...c400.        
```

#### Opcodes

```
  0: 0x02BA [0x53] WAIT_SCHEDULER_TASK: Wait for scheduler "c400" with entities [EventEntity, EventEntity]
  1: 0x02C7 [0x00] END_REQSTACK()
```

### Event 65535.44

#### Metadata

| Field        | Value    |
|--------------|----------|
| Entrypoint   | 0x02C8   |
| Data Size    | 16 bytes |
| Instructions | 2        |

```
      00 01 02 03 04 05 06 07  08 09 0A 0B 0C 0D 0E 0F
      -- -- -- -- -- -- -- --  -- -- -- -- -- -- -- --
02C0:                          5B 04 80 F8 FF FF 7F F8          [.......
02D0: FF FF 7F 63 34 30 31 00                           ...c401.        
```

#### Opcodes

```
  0: 0x02C8 [0x5B] LOAD_EXT_SCHEDULER: Load scheduler "c401" with entities [EventEntity, EventEntity], work=468*
  1: 0x02D7 [0x00] END_REQSTACK()
```

### Event 65535.45

#### Metadata

| Field        | Value    |
|--------------|----------|
| Entrypoint   | 0x02D8   |
| Data Size    | 14 bytes |
| Instructions | 2        |

```
      00 01 02 03 04 05 06 07  08 09 0A 0B 0C 0D 0E 0F
      -- -- -- -- -- -- -- --  -- -- -- -- -- -- -- --
02D0:                          53 F8 FF FF 7F F8 FF FF          S.......
02E0: 7F 63 34 30 31 00                                 .c401.          
```

#### Opcodes

```
  0: 0x02D8 [0x53] WAIT_SCHEDULER_TASK: Wait for scheduler "c401" with entities [EventEntity, EventEntity]
  1: 0x02E5 [0x00] END_REQSTACK()
```

### Event 65535.46

#### Metadata

| Field        | Value    |
|--------------|----------|
| Entrypoint   | 0x02E6   |
| Data Size    | 16 bytes |
| Instructions | 2        |

```
      00 01 02 03 04 05 06 07  08 09 0A 0B 0C 0D 0E 0F
      -- -- -- -- -- -- -- --  -- -- -- -- -- -- -- --
02E0:                   5B 05  80 F8 FF FF 7F F8 FF FF        [.........
02F0: 7F 63 34 30 38 00                                 .c408.          
```

#### Opcodes

```
  0: 0x02E6 [0x5B] LOAD_EXT_SCHEDULER: Load scheduler "c408" with entities [EventEntity, EventEntity], work=469*
  1: 0x02F5 [0x00] END_REQSTACK()
```

### Event 65535.47

#### Metadata

| Field        | Value    |
|--------------|----------|
| Entrypoint   | 0x02F6   |
| Data Size    | 14 bytes |
| Instructions | 2        |

```
      00 01 02 03 04 05 06 07  08 09 0A 0B 0C 0D 0E 0F
      -- -- -- -- -- -- -- --  -- -- -- -- -- -- -- --
02F0:                   53 F8  FF FF 7F F8 FF FF 7F 63        S........c
0300: 34 30 38 00                                       408.            
```

#### Opcodes

```
  0: 0x02F6 [0x53] WAIT_SCHEDULER_TASK: Wait for scheduler "c408" with entities [EventEntity, EventEntity]
  1: 0x0303 [0x00] END_REQSTACK()
```

### Event 65535.48

#### Metadata

| Field        | Value    |
|--------------|----------|
| Entrypoint   | 0x0304   |
| Data Size    | 16 bytes |
| Instructions | 2        |

```
      00 01 02 03 04 05 06 07  08 09 0A 0B 0C 0D 0E 0F
      -- -- -- -- -- -- -- --  -- -- -- -- -- -- -- --
0300:             5B 05 80 F8  FF FF 7F F8 FF FF 7F 63      [..........c
0310: 34 30 39 00                                       409.            
```

#### Opcodes

```
  0: 0x0304 [0x5B] LOAD_EXT_SCHEDULER: Load scheduler "c409" with entities [EventEntity, EventEntity], work=469*
  1: 0x0313 [0x00] END_REQSTACK()
```

### Event 65535.49

#### Metadata

| Field        | Value    |
|--------------|----------|
| Entrypoint   | 0x0314   |
| Data Size    | 14 bytes |
| Instructions | 2        |

```
      00 01 02 03 04 05 06 07  08 09 0A 0B 0C 0D 0E 0F
      -- -- -- -- -- -- -- --  -- -- -- -- -- -- -- --
0310:             53 F8 FF FF  7F F8 FF FF 7F 63 34 30      S........c40
0320: 39 00                                             9.              
```

#### Opcodes

```
  0: 0x0314 [0x53] WAIT_SCHEDULER_TASK: Wait for scheduler "c409" with entities [EventEntity, EventEntity]
  1: 0x0321 [0x00] END_REQSTACK()
```

### Event 65535.50

#### Metadata

| Field        | Value    |
|--------------|----------|
| Entrypoint   | 0x0322   |
| Data Size    | 16 bytes |
| Instructions | 2        |

```
      00 01 02 03 04 05 06 07  08 09 0A 0B 0C 0D 0E 0F
      -- -- -- -- -- -- -- --  -- -- -- -- -- -- -- --
0320:       5B 05 80 F8 FF FF  7F F8 FF FF 7F 63 34 31    [..........c41
0330: 30 00                                             0.              
```

#### Opcodes

```
  0: 0x0322 [0x5B] LOAD_EXT_SCHEDULER: Load scheduler "c410" with entities [EventEntity, EventEntity], work=469*
  1: 0x0331 [0x00] END_REQSTACK()
```

### Event 65535.51

#### Metadata

| Field        | Value    |
|--------------|----------|
| Entrypoint   | 0x0332   |
| Data Size    | 14 bytes |
| Instructions | 2        |

```
      00 01 02 03 04 05 06 07  08 09 0A 0B 0C 0D 0E 0F
      -- -- -- -- -- -- -- --  -- -- -- -- -- -- -- --
0330:       53 F8 FF FF 7F F8  FF FF 7F 63 34 31 30 00    S........c410.
```

#### Opcodes

```
  0: 0x0332 [0x53] WAIT_SCHEDULER_TASK: Wait for scheduler "c410" with entities [EventEntity, EventEntity]
  1: 0x033F [0x00] END_REQSTACK()
```

### Event 65535.52

#### Metadata

| Field        | Value    |
|--------------|----------|
| Entrypoint   | 0x0340   |
| Data Size    | 16 bytes |
| Instructions | 2        |

```
      00 01 02 03 04 05 06 07  08 09 0A 0B 0C 0D 0E 0F
      -- -- -- -- -- -- -- --  -- -- -- -- -- -- -- --
0340: 5B 06 80 F8 FF FF 7F F8  FF FF 7F 63 34 31 31 00  [..........c411.
```

#### Opcodes

```
  0: 0x0340 [0x5B] LOAD_EXT_SCHEDULER: Load scheduler "c411" with entities [EventEntity, EventEntity], work=470*
  1: 0x034F [0x00] END_REQSTACK()
```

### Event 65535.53

#### Metadata

| Field        | Value    |
|--------------|----------|
| Entrypoint   | 0x0350   |
| Data Size    | 14 bytes |
| Instructions | 2        |

```
      00 01 02 03 04 05 06 07  08 09 0A 0B 0C 0D 0E 0F
      -- -- -- -- -- -- -- --  -- -- -- -- -- -- -- --
0350: 53 F8 FF FF 7F F8 FF FF  7F 63 34 31 31 00        S........c411.  
```

#### Opcodes

```
  0: 0x0350 [0x53] WAIT_SCHEDULER_TASK: Wait for scheduler "c411" with entities [EventEntity, EventEntity]
  1: 0x035D [0x00] END_REQSTACK()
```

### Event 65535.54

#### Metadata

| Field        | Value   |
|--------------|---------|
| Entrypoint   | 0x035E  |
| Data Size    | 9 bytes |
| Instructions | 3       |

```
      00 01 02 03 04 05 06 07  08 09 0A 0B 0C 0D 0E 0F
      -- -- -- -- -- -- -- --  -- -- -- -- -- -- -- --
0350:                                            5E 69                ^i
0360: 64 6C 30 1C 07 80 00                              dl0....         
```

#### Opcodes

```
  0: 0x035E [0x5E] EventEntity goes idle (kills current action) (animation: "idl0")
  1: 0x0363 [0x1C] WAIT(30* ticks)
  2: 0x0366 [0x00] END_REQSTACK()
```

### Event 65535.55

#### Metadata

| Field        | Value    |
|--------------|----------|
| Entrypoint   | 0x0367   |
| Data Size    | 22 bytes |
| Instructions | 3        |

```
      00 01 02 03 04 05 06 07  08 09 0A 0B 0C 0D 0E 0F
      -- -- -- -- -- -- -- --  -- -- -- -- -- -- -- --
0360:                      7C  00 F8 FF FF 7F 5B 02 80         |.....[..
0370: F8 FF FF 7F F8 FF FF 7F  73 6E 75 30 00           ........snu0.   
```

#### Opcodes

```
  0: 0x0367 [0x7C] EventEntity->Render.Flags2 |= 0x00
  1: 0x036D [0x5B] LOAD_EXT_SCHEDULER: Load scheduler "snu0" with entities [EventEntity, EventEntity], work=467*
  2: 0x037C [0x00] END_REQSTACK()
```

### Event 65535.56

#### Metadata

| Field        | Value    |
|--------------|----------|
| Entrypoint   | 0x037D   |
| Data Size    | 14 bytes |
| Instructions | 2        |

```
      00 01 02 03 04 05 06 07  08 09 0A 0B 0C 0D 0E 0F
      -- -- -- -- -- -- -- --  -- -- -- -- -- -- -- --
0370:                                         53 F8 FF               S..
0380: FF 7F F8 FF FF 7F 73 6E  75 30 00                 ......snu0.     
```

#### Opcodes

```
  0: 0x037D [0x53] WAIT_SCHEDULER_TASK: Wait for scheduler "snu0" with entities [EventEntity, EventEntity]
  1: 0x038A [0x00] END_REQSTACK()
```

### Event 65535.57

#### Metadata

| Field        | Value    |
|--------------|----------|
| Entrypoint   | 0x038B   |
| Data Size    | 22 bytes |
| Instructions | 3        |

```
      00 01 02 03 04 05 06 07  08 09 0A 0B 0C 0D 0E 0F
      -- -- -- -- -- -- -- --  -- -- -- -- -- -- -- --
0380:                                   7C 00 F8 FF FF             |....
0390: 7F 5B 02 80 F8 FF FF 7F  F8 FF FF 7F 73 6E 75 31  .[..........snu1
03A0: 00                                                .               
```

#### Opcodes

```
  0: 0x038B [0x7C] EventEntity->Render.Flags2 |= 0x00
  1: 0x0391 [0x5B] LOAD_EXT_SCHEDULER: Load scheduler "snu1" with entities [EventEntity, EventEntity], work=467*
  2: 0x03A0 [0x00] END_REQSTACK()
```

### Event 65535.58

#### Metadata

| Field        | Value    |
|--------------|----------|
| Entrypoint   | 0x03A1   |
| Data Size    | 14 bytes |
| Instructions | 2        |

```
      00 01 02 03 04 05 06 07  08 09 0A 0B 0C 0D 0E 0F
      -- -- -- -- -- -- -- --  -- -- -- -- -- -- -- --
03A0:    53 F8 FF FF 7F F8 FF  FF 7F 73 6E 75 31 00      S........snu1. 
```

#### Opcodes

```
  0: 0x03A1 [0x53] WAIT_SCHEDULER_TASK: Wait for scheduler "snu1" with entities [EventEntity, EventEntity]
  1: 0x03AE [0x00] END_REQSTACK()
```

### Event 65535.59

#### Metadata

| Field        | Value    |
|--------------|----------|
| Entrypoint   | 0x03AF   |
| Data Size    | 22 bytes |
| Instructions | 3        |

```
      00 01 02 03 04 05 06 07  08 09 0A 0B 0C 0D 0E 0F
      -- -- -- -- -- -- -- --  -- -- -- -- -- -- -- --
03A0:                                               7C                 |
03B0: 00 F8 FF FF 7F 5B 08 80  F8 FF FF 7F F8 FF FF 7F  .....[..........
03C0: 73 63 61 30 00                                    sca0.           
```

#### Opcodes

```
  0: 0x03AF [0x7C] EventEntity->Render.Flags2 |= 0x00
  1: 0x03B5 [0x5B] LOAD_EXT_SCHEDULER: Load scheduler "sca0" with entities [EventEntity, EventEntity], work=472*
  2: 0x03C4 [0x00] END_REQSTACK()
```

### Event 65535.60

#### Metadata

| Field        | Value    |
|--------------|----------|
| Entrypoint   | 0x03C5   |
| Data Size    | 14 bytes |
| Instructions | 2        |

```
      00 01 02 03 04 05 06 07  08 09 0A 0B 0C 0D 0E 0F
      -- -- -- -- -- -- -- --  -- -- -- -- -- -- -- --
03C0:                53 F8 FF  FF 7F F8 FF FF 7F 73 63       S........sc
03D0: 61 30 00                                          a0.             
```

#### Opcodes

```
  0: 0x03C5 [0x53] WAIT_SCHEDULER_TASK: Wait for scheduler "sca0" with entities [EventEntity, EventEntity]
  1: 0x03D2 [0x00] END_REQSTACK()
```

### Event 65535.61

#### Metadata

| Field        | Value    |
|--------------|----------|
| Entrypoint   | 0x03D3   |
| Data Size    | 22 bytes |
| Instructions | 3        |

```
      00 01 02 03 04 05 06 07  08 09 0A 0B 0C 0D 0E 0F
      -- -- -- -- -- -- -- --  -- -- -- -- -- -- -- --
03D0:          7C 00 F8 FF FF  7F 5B 08 80 F8 FF FF 7F     |.....[......
03E0: F8 FF FF 7F 73 63 61 31  00                       ....sca1.       
```

#### Opcodes

```
  0: 0x03D3 [0x7C] EventEntity->Render.Flags2 |= 0x00
  1: 0x03D9 [0x5B] LOAD_EXT_SCHEDULER: Load scheduler "sca1" with entities [EventEntity, EventEntity], work=472*
  2: 0x03E8 [0x00] END_REQSTACK()
```

### Event 65535.62

#### Metadata

| Field        | Value    |
|--------------|----------|
| Entrypoint   | 0x03E9   |
| Data Size    | 14 bytes |
| Instructions | 2        |

```
      00 01 02 03 04 05 06 07  08 09 0A 0B 0C 0D 0E 0F
      -- -- -- -- -- -- -- --  -- -- -- -- -- -- -- --
03E0:                             53 F8 FF FF 7F F8 FF           S......
03F0: FF 7F 73 63 61 31 00                              ..sca1.         
```

#### Opcodes

```
  0: 0x03E9 [0x53] WAIT_SCHEDULER_TASK: Wait for scheduler "sca1" with entities [EventEntity, EventEntity]
  1: 0x03F6 [0x00] END_REQSTACK()
```

### Event 5

#### Metadata

| Field        | Value   |
|--------------|---------|
| Entrypoint   | 0x03F7  |
| Data Size    | 7 bytes |
| Instructions | 2       |

```
      00 01 02 03 04 05 06 07  08 09 0A 0B 0C 0D 0E 0F
      -- -- -- -- -- -- -- --  -- -- -- -- -- -- -- --
03F0:                      92  01 F8 FF FF 7F 00               .......  
```

#### Opcodes

```
  0: 0x03F7 [0x92] EventEntity->Render.Flags3 ^= 0x01
  1: 0x03FD [0x00] END_REQSTACK()
```

### Event 65535.63

#### Metadata

| Field        | Value    |
|--------------|----------|
| Entrypoint   | 0x03FE   |
| Data Size    | 10 bytes |
| Instructions | 2        |

```
      00 01 02 03 04 05 06 07  08 09 0A 0B 0C 0D 0E 0F
      -- -- -- -- -- -- -- --  -- -- -- -- -- -- -- --
03F0:                                            37 09                7.
0400: 80 0A 80 0B 80 0C 80 00                           ........        
```

#### Opcodes

```
  0: 0x03FE [0x37] UPDATE_EVENT_POSITION_AND_DIR: x=-144.113*, z=-322.150*, y=-31.177*, direction=190.4°*
  1: 0x0407 [0x00] END_REQSTACK()
```

### Event 65535.64

#### Metadata

| Field        | Value    |
|--------------|----------|
| Entrypoint   | 0x0408   |
| Data Size    | 15 bytes |
| Instructions | 5        |

```
      00 01 02 03 04 05 06 07  08 09 0A 0B 0C 0D 0E 0F
      -- -- -- -- -- -- -- --  -- -- -- -- -- -- -- --
0400:                          32 0D 80 1F 00 0E 80 0F          2.......
0410: 80 10 80 1F 01 6F 00                              .....o.         
```

#### Opcodes

```
  0: 0x0408 [0x32] ExtData[1]->MainSpeed = 13* * 0.1
  1: 0x040B [0x1F] MOVE_ENTITY: EventEntity moves to X=-150.062*, Z=-320.972*, Y=-31.695*
  2: 0x0413 [0x1F] MOVE_ENTITY: Update entity position (mode=1)
  3: 0x0415 [0x6F] WAIT_FRAME_DELAY: Yield until WaitTime reaches zero
  4: 0x0416 [0x00] END_REQSTACK()
```

### Event 65535.65

#### Metadata

| Field        | Value    |
|--------------|----------|
| Entrypoint   | 0x0417   |
| Data Size    | 15 bytes |
| Instructions | 5        |

```
      00 01 02 03 04 05 06 07  08 09 0A 0B 0C 0D 0E 0F
      -- -- -- -- -- -- -- --  -- -- -- -- -- -- -- --
0410:                      32  0D 80 1F 00 11 80 12 80         2........
0420: 13 80 1F 01 6F 00                                 ....o.          
```

#### Opcodes

```
  0: 0x0417 [0x32] ExtData[1]->MainSpeed = 13* * 0.1
  1: 0x041A [0x1F] MOVE_ENTITY: EventEntity moves to X=-153.814*, Z=-320.396*, Y=-31.869*
  2: 0x0422 [0x1F] MOVE_ENTITY: Update entity position (mode=1)
  3: 0x0424 [0x6F] WAIT_FRAME_DELAY: Yield until WaitTime reaches zero
  4: 0x0425 [0x00] END_REQSTACK()
```

### Event 65535.66

#### Metadata

| Field        | Value    |
|--------------|----------|
| Entrypoint   | 0x0426   |
| Data Size    | 45 bytes |
| Instructions | 11       |

```
      00 01 02 03 04 05 06 07  08 09 0A 0B 0C 0D 0E 0F
      -- -- -- -- -- -- -- --  -- -- -- -- -- -- -- --
0420:                   32 0D  80 1F 00 14 80 15 80 16        2.........
0430: 80 1F 01 6F 4A F0 FF FF  7F 4C 91 01 01 4A 4B 91  ...oJ....L...JK.
0440: 01 01 4C 91 01 01 6F 76  F0 FF FF 7F 6F 76 4B 91  ..L...ov....ovK.
0450: 01 01 00                                          ...             
```

#### Opcodes

```
  0: 0x0426 [0x32] ExtData[1]->MainSpeed = 13* * 0.1
  1: 0x0429 [0x1F] MOVE_ENTITY: EventEntity moves to X=-151.791*, Z=-324.434*, Y=-31.519*
  2: 0x0431 [0x1F] MOVE_ENTITY: Update entity position (mode=1)
  3: 0x0433 [0x6F] WAIT_FRAME_DELAY: Yield until WaitTime reaches zero
  4: 0x0434 [0x4A] LocalPlayer looks at Nag'molada (ID: 16879948/0x0101914C)
  5: 0x043D [0x4A] Ulmia (ID: 16879947/0x0101914B) looks at Nag'molada (ID: 16879948/0x0101914C)
  6: 0x0446 [0x6F] WAIT_FRAME_DELAY: Yield until WaitTime reaches zero
  7: 0x0447 [0x76] CHECK_ENTITY_RENDER_FLAGS: Wait until LocalPlayer Render.Flags0 and Render.Flags3 conditions are met
  8: 0x044C [0x6F] WAIT_FRAME_DELAY: Yield until WaitTime reaches zero
  9: 0x044D [0x76] CHECK_ENTITY_RENDER_FLAGS: Wait until Ulmia (ID: 16879947/0x0101914B) Render.Flags0 and Render.Flags3 conditions are met
 10: 0x0452 [0x00] END_REQSTACK()
```

### Event 65535.67

#### Metadata

| Field        | Value    |
|--------------|----------|
| Entrypoint   | 0x0453   |
| Data Size    | 15 bytes |
| Instructions | 5        |

```
      00 01 02 03 04 05 06 07  08 09 0A 0B 0C 0D 0E 0F
      -- -- -- -- -- -- -- --  -- -- -- -- -- -- -- --
0450:          32 0D 80 1F 00  17 80 18 80 19 80 1F 01     2............
0460: 6F 00                                             o.              
```

#### Opcodes

```
  0: 0x0453 [0x32] ExtData[1]->MainSpeed = 13* * 0.1
  1: 0x0456 [0x1F] MOVE_ENTITY: EventEntity moves to X=-152.516*, Z=-323.160*, Y=-31.654*
  2: 0x045E [0x1F] MOVE_ENTITY: Update entity position (mode=1)
  3: 0x0460 [0x6F] WAIT_FRAME_DELAY: Yield until WaitTime reaches zero
  4: 0x0461 [0x00] END_REQSTACK()
```

### Event 65535.68

#### Metadata

| Field        | Value    |
|--------------|----------|
| Entrypoint   | 0x0462   |
| Data Size    | 15 bytes |
| Instructions | 5        |

```
      00 01 02 03 04 05 06 07  08 09 0A 0B 0C 0D 0E 0F
      -- -- -- -- -- -- -- --  -- -- -- -- -- -- -- --
0460:       32 0D 80 1F 00 1A  80 1B 80 1C 80 1F 01 6F    2............o
0470: 00                                                .               
```

#### Opcodes

```
  0: 0x0462 [0x32] ExtData[1]->MainSpeed = 13* * 0.1
  1: 0x0465 [0x1F] MOVE_ENTITY: EventEntity moves to X=-147.075*, Z=-324.414*, Y=-31.453*
  2: 0x046D [0x1F] MOVE_ENTITY: Update entity position (mode=1)
  3: 0x046F [0x6F] WAIT_FRAME_DELAY: Yield until WaitTime reaches zero
  4: 0x0470 [0x00] END_REQSTACK()
```

### Event 65535.69

#### Metadata

| Field        | Value    |
|--------------|----------|
| Entrypoint   | 0x0471   |
| Data Size    | 15 bytes |
| Instructions | 5        |

```
      00 01 02 03 04 05 06 07  08 09 0A 0B 0C 0D 0E 0F
      -- -- -- -- -- -- -- --  -- -- -- -- -- -- -- --
0470:    32 0D 80 1F 00 1D 80  1E 80 1F 80 1F 01 6F 00   2............o.
```

#### Opcodes

```
  0: 0x0471 [0x32] ExtData[1]->MainSpeed = 13* * 0.1
  1: 0x0474 [0x1F] MOVE_ENTITY: EventEntity moves to X=-137.461*, Z=-326.194*, Y=-30.836*
  2: 0x047C [0x1F] MOVE_ENTITY: Update entity position (mode=1)
  3: 0x047E [0x6F] WAIT_FRAME_DELAY: Yield until WaitTime reaches zero
  4: 0x047F [0x00] END_REQSTACK()
```

### Event 10

#### Metadata

| Field        | Value   |
|--------------|---------|
| Entrypoint   | 0x0480  |
| Data Size    | 9 bytes |
| Instructions | 3       |

```
      00 01 02 03 04 05 06 07  08 09 0A 0B 0C 0D 0E 0F
      -- -- -- -- -- -- -- --  -- -- -- -- -- -- -- --
0480: 92 01 F8 FF FF 7F A4 01  00                       .........       
```

#### Opcodes

```
  0: 0x0480 [0x92] EventEntity->Render.Flags3 ^= 0x01
  1: 0x0486 [0xA4] EventEntity->Flags3.unknown_3_2 = 1
  2: 0x0488 [0x00] END_REQSTACK()
```

### Event 11

#### Metadata

| Field        | Value   |
|--------------|---------|
| Entrypoint   | 0x0489  |
| Data Size    | 9 bytes |
| Instructions | 3       |

```
      00 01 02 03 04 05 06 07  08 09 0A 0B 0C 0D 0E 0F
      -- -- -- -- -- -- -- --  -- -- -- -- -- -- -- --
0480:                             92 01 F8 FF FF 7F A4           .......
0490: 01 00                                             ..              
```

#### Opcodes

```
  0: 0x0489 [0x92] EventEntity->Render.Flags3 ^= 0x01
  1: 0x048F [0xA4] EventEntity->Flags3.unknown_3_2 = 1
  2: 0x0491 [0x00] END_REQSTACK()
```

### Event 65535.70

#### Metadata

| Field        | Value    |
|--------------|----------|
| Entrypoint   | 0x0492   |
| Data Size    | 10 bytes |
| Instructions | 2        |

```
      00 01 02 03 04 05 06 07  08 09 0A 0B 0C 0D 0E 0F
      -- -- -- -- -- -- -- --  -- -- -- -- -- -- -- --
0490:       37 20 80 21 80 22  80 23 80 00                7 .!.".#..    
```

#### Opcodes

```
  0: 0x0492 [0x37] UPDATE_EVENT_POSITION_AND_DIR: x=-148.772*, z=-320.868*, y=-31.632*, direction=181.6°*
  1: 0x049B [0x00] END_REQSTACK()
```

### Event 65535.71

#### Metadata

| Field        | Value    |
|--------------|----------|
| Entrypoint   | 0x049C   |
| Data Size    | 15 bytes |
| Instructions | 5        |

```
      00 01 02 03 04 05 06 07  08 09 0A 0B 0C 0D 0E 0F
      -- -- -- -- -- -- -- --  -- -- -- -- -- -- -- --
0490:                                      32 0D 80 1F              2...
04A0: 00 24 80 25 80 26 80 1F  01 6F 00                 .$.%.&...o.     
```

#### Opcodes

```
  0: 0x049C [0x32] ExtData[1]->MainSpeed = 13* * 0.1
  1: 0x049F [0x1F] MOVE_ENTITY: EventEntity moves to X=-152.931*, Z=-320.457*, Y=-31.821*
  2: 0x04A7 [0x1F] MOVE_ENTITY: Update entity position (mode=1)
  3: 0x04A9 [0x6F] WAIT_FRAME_DELAY: Yield until WaitTime reaches zero
  4: 0x04AA [0x00] END_REQSTACK()
```

### Event 65535.72

#### Metadata

| Field        | Value    |
|--------------|----------|
| Entrypoint   | 0x04AB   |
| Data Size    | 15 bytes |
| Instructions | 5        |

```
      00 01 02 03 04 05 06 07  08 09 0A 0B 0C 0D 0E 0F
      -- -- -- -- -- -- -- --  -- -- -- -- -- -- -- --
04A0:                                   32 0D 80 1F 00             2....
04B0: 27 80 28 80 29 80 1F 01  6F 00                    '.(.)...o.      
```

#### Opcodes

```
  0: 0x04AB [0x32] ExtData[1]->MainSpeed = 13* * 0.1
  1: 0x04AE [0x1F] MOVE_ENTITY: EventEntity moves to X=-155.275*, Z=-320.157*, Y=-31.984*
  2: 0x04B6 [0x1F] MOVE_ENTITY: Update entity position (mode=1)
  3: 0x04B8 [0x6F] WAIT_FRAME_DELAY: Yield until WaitTime reaches zero
  4: 0x04B9 [0x00] END_REQSTACK()
```

### Event 65535.73

#### Metadata

| Field        | Value    |
|--------------|----------|
| Entrypoint   | 0x04BA   |
| Data Size    | 15 bytes |
| Instructions | 5        |

```
      00 01 02 03 04 05 06 07  08 09 0A 0B 0C 0D 0E 0F
      -- -- -- -- -- -- -- --  -- -- -- -- -- -- -- --
04B0:                                32 0D 80 1F 00 2A            2....*
04C0: 80 2B 80 2C 80 1F 01 6F  00                       .+.,...o.       
```

#### Opcodes

```
  0: 0x04BA [0x32] ExtData[1]->MainSpeed = 13* * 0.1
  1: 0x04BD [0x1F] MOVE_ENTITY: EventEntity moves to X=-156.239*, Z=-320.116*, Y=-32.023*
  2: 0x04C5 [0x1F] MOVE_ENTITY: Update entity position (mode=1)
  3: 0x04C7 [0x6F] WAIT_FRAME_DELAY: Yield until WaitTime reaches zero
  4: 0x04C8 [0x00] END_REQSTACK()
```

### Event 65535.74

#### Metadata

| Field        | Value    |
|--------------|----------|
| Entrypoint   | 0x04C9   |
| Data Size    | 15 bytes |
| Instructions | 5        |

```
      00 01 02 03 04 05 06 07  08 09 0A 0B 0C 0D 0E 0F
      -- -- -- -- -- -- -- --  -- -- -- -- -- -- -- --
04C0:                             32 0D 80 1F 00 27 80           2....'.
04D0: 28 80 29 80 1F 01 6F 00                           (.)...o.        
```

#### Opcodes

```
  0: 0x04C9 [0x32] ExtData[1]->MainSpeed = 13* * 0.1
  1: 0x04CC [0x1F] MOVE_ENTITY: EventEntity moves to X=-155.275*, Z=-320.157*, Y=-31.984*
  2: 0x04D4 [0x1F] MOVE_ENTITY: Update entity position (mode=1)
  3: 0x04D6 [0x6F] WAIT_FRAME_DELAY: Yield until WaitTime reaches zero
  4: 0x04D7 [0x00] END_REQSTACK()
```

### Event 65535.75

#### Metadata

| Field        | Value    |
|--------------|----------|
| Entrypoint   | 0x04D8   |
| Data Size    | 14 bytes |
| Instructions | 4        |

```
      00 01 02 03 04 05 06 07  08 09 0A 0B 0C 0D 0E 0F
      -- -- -- -- -- -- -- --  -- -- -- -- -- -- -- --
04D0:                          4B 4C 91 01 01 2D 80 6F          KL...-.o
04E0: 76 4C 91 01 01 00                                 vL....          
```

#### Opcodes

```
  0: 0x04D8 [0x4B] UPDATE_ENTITY_YAW(entity=Nag'molada (ID: 16879948/0x0101914C), yaw=1.1°*)
  1: 0x04DF [0x6F] WAIT_FRAME_DELAY: Yield until WaitTime reaches zero
  2: 0x04E0 [0x76] CHECK_ENTITY_RENDER_FLAGS: Wait until Nag'molada (ID: 16879948/0x0101914C) Render.Flags0 and Render.Flags3 conditions are met
  3: 0x04E5 [0x00] END_REQSTACK()
```
