# 16879946

## Common Data

| Field            | Value                    |
|------------------|--------------------------|
| Zone             | Misareaux Coast (ID: 25) |
| Block Size       | 27108 bytes              |
| Total Events     | 10                       |
| References Count | 419                      |

## List of Events

| Event ID              | Entrypoint   |   Size |   Instructions |
|-----------------------|--------------|--------|----------------|
| [65535](#event-65535) | 0x0000       |      1 |              1 |
| [5](#event-5)         | 0x0001       |   2245 |            306 |
| [7](#event-7)         | 0x08C6       |   4126 |            523 |
| [8](#event-8)         | 0x18E4       |   2365 |            335 |
| [6](#event-6)         | 0x2221       |   1023 |            137 |
| [10](#event-10)       | 0x2620       |   5799 |            716 |
| [9](#event-9)         | 0x3CC7       |   1798 |            241 |
| [12](#event-12)       | 0x43CD       |   1592 |            210 |
| [13](#event-13)       | 0x4A05       |   1769 |            259 |
| [560](#event-560)     | 0x50EE       |   4658 |            534 |

## DAT References (imed_data)

|   Index | Hex Value   |   Dec Value |
|---------|-------------|-------------|
|       0 | 0x0000      |           0 |
|       1 | 0x00C8      |         200 |
|       2 | 0x0013      |          19 |
|       3 | 0x00EB      |         235 |
|       4 | 0x1CD1      |        7377 |
|       5 | 0x1CD2      |        7378 |
|       6 | 0x0076      |         118 |
|       7 | 0x00FA      |         250 |
|       8 | 0x1CD3      |        7379 |
|       9 | 0x1CD4      |        7380 |
|      10 | 0x1CD5      |        7381 |
|      11 | 0x1CD6      |        7382 |
|      12 | 0x0064      |         100 |
|      13 | 0x1CD7      |        7383 |
|      14 | 0x003C      |          60 |
|      15 | 0x1CD8      |        7384 |
|      16 | 0x1CD9      |        7385 |
|      17 | 0x1CDA      |        7386 |
|      18 | 0xFFFD90A6  |  4294807718 |
|      19 | 0xFFFB1F07  |  4294647559 |
|      20 | 0xFFFF831B  |  4294935323 |
|      21 | 0x0115      |         277 |
|      22 | 0x1CDB      |        7387 |
|      23 | 0x1CDC      |        7388 |
|      24 | 0x001E      |          30 |
|      25 | 0x1CDD      |        7389 |
|      26 | 0x1CDE      |        7390 |
|      27 | 0x1CDF      |        7391 |
|      28 | 0x1CE0      |        7392 |
|      29 | 0x1CE1      |        7393 |
|      30 | 0x1CE2      |        7394 |
|      31 | 0x0005      |           5 |
|      32 | 0x00F0      |         240 |
|      33 | 0x1CE3      |        7395 |
|      34 | 0x1CE4      |        7396 |
|      35 | 0x012C      |         300 |
|      36 | 0x1CE5      |        7397 |
|      37 | 0x1CE6      |        7398 |
|      38 | 0x1CE7      |        7399 |
|      39 | 0x1CE9      |        7401 |
|      40 | 0x1CE8      |        7400 |
|      41 | 0x0058      |          88 |
|      42 | 0x1CEA      |        7402 |
|      43 | 0x0028      |          40 |
|      44 | 0x1CEB      |        7403 |
|      45 | 0x1CEC      |        7404 |
|      46 | 0x1CED      |        7405 |
|      47 | 0x0006      |           6 |
|      48 | 0x1CEE      |        7406 |
|      49 | 0x1CEF      |        7407 |
|      50 | 0x00E6      |         230 |
|      51 | 0x000A      |          10 |
|      52 | 0x1CF6      |        7414 |
|      53 | 0x1CF7      |        7415 |
|      54 | 0x1CF8      |        7416 |
|      55 | 0x0439      |        1081 |
|      56 | 0x1CF9      |        7417 |
|      57 | 0x1CFA      |        7418 |
|      58 | 0x1CFB      |        7419 |
|      59 | 0x1CFC      |        7420 |
|      60 | 0x0012      |          18 |
|      61 | 0x0001      |           1 |
|      62 | 0x007C      |         124 |
|      63 | 0x0190      |         400 |
|      64 | 0x1CFD      |        7421 |
|      65 | 0x0014      |          20 |
|      66 | 0x1CFE      |        7422 |
|      67 | 0x1CFF      |        7423 |
|      68 | 0x1D00      |        7424 |
|      69 | 0x1D01      |        7425 |
|      70 | 0x1D02      |        7426 |
|      71 | 0x1D03      |        7427 |
|      72 | 0x1D04      |        7428 |
|      73 | 0x1D05      |        7429 |
|      74 | 0x1D06      |        7430 |
|      75 | 0x1D07      |        7431 |
|      76 | 0x1D08      |        7432 |
|      77 | 0x1D09      |        7433 |
|      78 | 0x1D0A      |        7434 |
|      79 | 0x0032      |          50 |
|      80 | 0x1D0B      |        7435 |
|      81 | 0x1D0C      |        7436 |
|      82 | 0x1D0D      |        7437 |
|      83 | 0x1D0E      |        7438 |
|      84 | 0x1D0F      |        7439 |
|      85 | 0x1D10      |        7440 |
|      86 | 0x0727      |        1831 |
|      87 | 0x1D11      |        7441 |
|      88 | 0x1D12      |        7442 |
|      89 | 0x1D13      |        7443 |
|      90 | 0x1D14      |        7444 |
|      91 | 0xFFFD7DC0  |  4294802880 |
|      92 | 0xFFFB309F  |  4294652063 |
|      93 | 0xFFFF8328  |  4294935336 |
|      94 | 0x02E9      |         745 |
|      95 | 0x1D15      |        7445 |
|      96 | 0x1D16      |        7446 |
|      97 | 0x0082      |         130 |
|      98 | 0x009F      |         159 |
|      99 | 0x1D17      |        7447 |
|     100 | 0x1D18      |        7448 |
|     101 | 0x1D19      |        7449 |
|     102 | 0x0003      |           3 |
|     103 | 0x0008      |           8 |
|     104 | 0x1D1A      |        7450 |
|     105 | 0x1D1B      |        7451 |
|     106 | 0x1D1C      |        7452 |
|     107 | 0x1D1D      |        7453 |
|     108 | 0x1D1E      |        7454 |
|     109 | 0x0078      |         120 |
|     110 | 0x1D1F      |        7455 |
|     111 | 0x1D20      |        7456 |
|     112 | 0x1D21      |        7457 |
|     113 | 0x0041      |          65 |
|     114 | 0xFFFD5AE4  |  4294793956 |
|     115 | 0xFFFB36FF  |  4294653695 |
|     116 | 0xFFFF6B97  |  4294929303 |
|     117 | 0x0883      |        2179 |
|     118 | 0x1D22      |        7458 |
|     119 | 0x0BB8      |        3000 |
|     120 | 0x1D23      |        7459 |
|     121 | 0x1D24      |        7460 |
|     122 | 0x1D25      |        7461 |
|     123 | 0x1BA2      |        7074 |
|     124 | 0x0002      |           2 |
|     125 | 0xFFF7BB26  |  4294425382 |
|     126 | 0x577BD     |      358333 |
|     127 | 0xFFFF7666  |  4294932070 |
|     128 | 0x072F      |        1839 |
|     129 | 0x00DC      |         220 |
|     130 | 0x008C      |         140 |
|     131 | 0x1D26      |        7462 |
|     132 | 0x000F      |          15 |
|     133 | 0x00E7      |         231 |
|     134 | 0x1D27      |        7463 |
|     135 | 0x1D28      |        7464 |
|     136 | 0x1D29      |        7465 |
|     137 | 0x1D2A      |        7466 |
|     138 | 0x1D2B      |        7467 |
|     139 | 0x0047      |          71 |
|     140 | 0x1D2C      |        7468 |
|     141 | 0x1D2D      |        7469 |
|     142 | 0x1D2E      |        7470 |
|     143 | 0x0ED8      |        3800 |
|     144 | 0x1D2F      |        7471 |
|     145 | 0x00DA      |         218 |
|     146 | 0x1D30      |        7472 |
|     147 | 0x1D31      |        7473 |
|     148 | 0x1D32      |        7474 |
|     149 | 0x1D33      |        7475 |
|     150 | 0x1D34      |        7476 |
|     151 | 0x1D35      |        7477 |
|     152 | 0x1D36      |        7478 |
|     153 | 0x1D37      |        7479 |
|     154 | 0x0105      |         261 |
|     155 | 0x1D38      |        7480 |
|     156 | 0x1D39      |        7481 |
|     157 | 0x1D3A      |        7482 |
|     158 | 0x1D3B      |        7483 |
|     159 | 0x1D3C      |        7484 |
|     160 | 0x007F      |         127 |
|     161 | 0x1D3D      |        7485 |
|     162 | 0x1D3E      |        7486 |
|     163 | 0x1D3F      |        7487 |
|     164 | 0x1D40      |        7488 |
|     165 | 0x006E      |         110 |
|     166 | 0x0046      |          70 |
|     167 | 0x005A      |          90 |
|     168 | 0x00C9      |         201 |
|     169 | 0x00D2      |         210 |
|     170 | 0x001D      |          29 |
|     171 | 0x00B0      |         176 |
|     172 | 0x0019      |          25 |
|     173 | 0xFFF9231D  |  4294517533 |
|     174 | 0x577C2     |      358338 |
|     175 | 0xFFFF76C0  |  4294932160 |
|     176 | 0x07E5      |        2021 |
|     177 | 0x1CF0      |        7408 |
|     178 | 0x1CF1      |        7409 |
|     179 | 0xFFF7B3A6  |  4294423462 |
|     180 | 0x57549     |      357705 |
|     181 | 0xFFFF7D60  |  4294933856 |
|     182 | 0x0274      |         628 |
|     183 | 0x0096      |         150 |
|     184 | 0x1CF2      |        7410 |
|     185 | 0xFFF7D7E3  |  4294432739 |
|     186 | 0x55FE8     |      352232 |
|     187 | 0xFFFF8FA0  |  4294938528 |
|     188 | 0x01C7      |         455 |
|     189 | 0x1CF3      |        7411 |
|     190 | 0x1CF4      |        7412 |
|     191 | 0x1CF5      |        7413 |
|     192 | 0xFFF85E44  |  4294467140 |
|     193 | 0x57BC5     |      359365 |
|     194 | 0xFFFF86F4  |  4294936308 |
|     195 | 0x07E7      |        2023 |
|     196 | 0x005B      |          91 |
|     197 | 0xFFFD701D  |  4294799389 |
|     198 | 0xFFFB158F  |  4294645135 |
|     199 | 0xFFFF8319  |  4294935321 |
|     200 | 0x0A6D      |        2669 |
|     201 | 0x0081      |         129 |
|     202 | 0x0FAA      |        4010 |
|     203 | 0x0050      |          80 |
|     204 | 0x1D4C      |        7500 |
|     205 | 0x1D4D      |        7501 |
|     206 | 0x1D4E      |        7502 |
|     207 | 0x1D4F      |        7503 |
|     208 | 0x1D50      |        7504 |
|     209 | 0x1D51      |        7505 |
|     210 | 0x1D52      |        7506 |
|     211 | 0x1D53      |        7507 |
|     212 | 0x1D54      |        7508 |
|     213 | 0x1D55      |        7509 |
|     214 | 0x0BB0      |        2992 |
|     215 | 0x1D56      |        7510 |
|     216 | 0x1D57      |        7511 |
|     217 | 0x1D58      |        7512 |
|     218 | 0x1D59      |        7513 |
|     219 | 0x1D5A      |        7514 |
|     220 | 0x1D5B      |        7515 |
|     221 | 0x1D5C      |        7516 |
|     222 | 0x07C9      |        1993 |
|     223 | 0x1D5D      |        7517 |
|     224 | 0x1D5E      |        7518 |
|     225 | 0x1D5F      |        7519 |
|     226 | 0x1D60      |        7520 |
|     227 | 0x1D61      |        7521 |
|     228 | 0x1D62      |        7522 |
|     229 | 0x005C      |          92 |
|     230 | 0x1D63      |        7523 |
|     231 | 0x1D64      |        7524 |
|     232 | 0x1D65      |        7525 |
|     233 | 0x1D66      |        7526 |
|     234 | 0x1D67      |        7527 |
|     235 | 0x1D68      |        7528 |
|     236 | 0x1D69      |        7529 |
|     237 | 0x1D6A      |        7530 |
|     238 | 0x09E9      |        2537 |
|     239 | 0x1D6B      |        7531 |
|     240 | 0x1D6C      |        7532 |
|     241 | 0x1D6D      |        7533 |
|     242 | 0x1D6E      |        7534 |
|     243 | 0x1D6F      |        7535 |
|     244 | 0x1D70      |        7536 |
|     245 | 0x1D71      |        7537 |
|     246 | 0x1D72      |        7538 |
|     247 | 0x1D73      |        7539 |
|     248 | 0x1D74      |        7540 |
|     249 | 0x1D75      |        7541 |
|     250 | 0x1D76      |        7542 |
|     251 | 0x1D77      |        7543 |
|     252 | 0x1D78      |        7544 |
|     253 | 0x1D79      |        7545 |
|     254 | 0x1D7A      |        7546 |
|     255 | 0x1D7B      |        7547 |
|     256 | 0x1D7C      |        7548 |
|     257 | 0x1D7D      |        7549 |
|     258 | 0x1D7E      |        7550 |
|     259 | 0x1D7F      |        7551 |
|     260 | 0x1D80      |        7552 |
|     261 | 0x1D81      |        7553 |
|     262 | 0x1D82      |        7554 |
|     263 | 0x1D83      |        7555 |
|     264 | 0x1D84      |        7556 |
|     265 | 0x1D85      |        7557 |
|     266 | 0x1D86      |        7558 |
|     267 | 0x1D87      |        7559 |
|     268 | 0x00F3      |         243 |
|     269 | 0x1D88      |        7560 |
|     270 | 0x1D89      |        7561 |
|     271 | 0x1D8A      |        7562 |
|     272 | 0x1D8B      |        7563 |
|     273 | 0x1D8C      |        7564 |
|     274 | 0x08FC      |        2300 |
|     275 | 0x0042      |          66 |
|     276 | 0xFFFD8D33  |  4294806835 |
|     277 | 0xFFFB1EC7  |  4294647495 |
|     278 | 0xFFFF7706  |  4294932230 |
|     279 | 0x081C      |        2076 |
|     280 | 0x1D8D      |        7565 |
|     281 | 0x1D8E      |        7566 |
|     282 | 0x1D8F      |        7567 |
|     283 | 0x1D41      |        7489 |
|     284 | 0x1D42      |        7490 |
|     285 | 0x1D43      |        7491 |
|     286 | 0x1D44      |        7492 |
|     287 | 0x1D45      |        7493 |
|     288 | 0x1D46      |        7494 |
|     289 | 0x1D47      |        7495 |
|     290 | 0x1D48      |        7496 |
|     291 | 0x1D49      |        7497 |
|     292 | 0x1D4A      |        7498 |
|     293 | 0x1D4B      |        7499 |
|     294 | 0x00AE      |         174 |
|     295 | 0x01F4      |         500 |
|     296 | 0x1D90      |        7568 |
|     297 | 0x1D91      |        7569 |
|     298 | 0x1D92      |        7570 |
|     299 | 0x1D93      |        7571 |
|     300 | 0x1D94      |        7572 |
|     301 | 0x1D95      |        7573 |
|     302 | 0x1D96      |        7574 |
|     303 | 0x1D97      |        7575 |
|     304 | 0x1D98      |        7576 |
|     305 | 0x0410      |        1040 |
|     306 | 0x1D99      |        7577 |
|     307 | 0x1D9A      |        7578 |
|     308 | 0x1D9B      |        7579 |
|     309 | 0x1D9C      |        7580 |
|     310 | 0x1D9D      |        7581 |
|     311 | 0x1D9E      |        7582 |
|     312 | 0x1D9F      |        7583 |
|     313 | 0x0072      |         114 |
|     314 | 0x1DA0      |        7584 |
|     315 | 0x1DA1      |        7585 |
|     316 | 0x1DA2      |        7586 |
|     317 | 0x0382      |         898 |
|     318 | 0x1DA3      |        7587 |
|     319 | 0x1DA4      |        7588 |
|     320 | 0x0AEC      |        2796 |
|     321 | 0x1DA5      |        7589 |
|     322 | 0x1DA6      |        7590 |
|     323 | 0x00A3      |         163 |
|     324 | 0x00AC      |         172 |
|     325 | 0x1DAC      |        7596 |
|     326 | 0x1DAD      |        7597 |
|     327 | 0x1DAE      |        7598 |
|     328 | 0x1DAF      |        7599 |
|     329 | 0x1DB0      |        7600 |
|     330 | 0x1DB1      |        7601 |
|     331 | 0x1DB2      |        7602 |
|     332 | 0x1DB4      |        7604 |
|     333 | 0x1DB3      |        7603 |
|     334 | 0x1DB5      |        7605 |
|     335 | 0x1DB6      |        7606 |
|     336 | 0x1DB7      |        7607 |
|     337 | 0x1DB8      |        7608 |
|     338 | 0x0612      |        1554 |
|     339 | 0x09E2      |        2530 |
|     340 | 0x0093      |         147 |
|     341 | 0x1DB9      |        7609 |
|     342 | 0x1DBA      |        7610 |
|     343 | 0x1DBB      |        7611 |
|     344 | 0x1DBC      |        7612 |
|     345 | 0x1DBD      |        7613 |
|     346 | 0x1DBE      |        7614 |
|     347 | 0x1DBF      |        7615 |
|     348 | 0x1DC0      |        7616 |
|     349 | 0x1DC1      |        7617 |
|     350 | 0xFFFD6B5F  |  4294798175 |
|     351 | 0xFFFB1DB0  |  4294647216 |
|     352 | 0xFFFF818E  |  4294934926 |
|     353 | 0x0875      |        2165 |
|     354 | 0x0276      |         630 |
|     355 | 0xFFFD7918  |  4294801688 |
|     356 | 0xFFFB1C43  |  4294646851 |
|     357 | 0xFFFF811A  |  4294934810 |
|     358 | 0x0887      |        2183 |
|     359 | 0x219B      |        8603 |
|     360 | 0x01A4      |         420 |
|     361 | 0x219C      |        8604 |
|     362 | 0x219D      |        8605 |
|     363 | 0x219E      |        8606 |
|     364 | 0x219F      |        8607 |
|     365 | 0x21A3      |        8611 |
|     366 | 0x01A6      |         422 |
|     367 | 0x21A4      |        8612 |
|     368 | 0x21A5      |        8613 |
|     369 | 0x21A6      |        8614 |
|     370 | 0x21A7      |        8615 |
|     371 | 0x21A8      |        8616 |
|     372 | 0x21A9      |        8617 |
|     373 | 0x0004      |           4 |
|     374 | 0x21AA      |        8618 |
|     375 | 0x21AB      |        8619 |
|     376 | 0x21AC      |        8620 |
|     377 | 0x21AD      |        8621 |
|     378 | 0x21AE      |        8622 |
|     379 | 0x21AF      |        8623 |
|     380 | 0x21B0      |        8624 |
|     381 | 0x21B1      |        8625 |
|     382 | 0x21B2      |        8626 |
|     383 | 0x21B3      |        8627 |
|     384 | 0x21B4      |        8628 |
|     385 | 0x21B5      |        8629 |
|     386 | 0x21B6      |        8630 |
|     387 | 0x21B7      |        8631 |
|     388 | 0x21B8      |        8632 |
|     389 | 0x21B9      |        8633 |
|     390 | 0x21BA      |        8634 |
|     391 | 0x21BB      |        8635 |
|     392 | 0x21BC      |        8636 |
|     393 | 0x21BD      |        8637 |
|     394 | 0x21BE      |        8638 |
|     395 | 0x21BF      |        8639 |
|     396 | 0x21C0      |        8640 |
|     397 | 0x21C1      |        8641 |
|     398 | 0x00EA      |         234 |
|     399 | 0x21C2      |        8642 |
|     400 | 0x21C3      |        8643 |
|     401 | 0x21C4      |        8644 |
|     402 | 0x21C5      |        8645 |
|     403 | 0x21C6      |        8646 |
|     404 | 0xFFFD6C10  |  4294798352 |
|     405 | 0xFFFB1793  |  4294645651 |
|     406 | 0xFFFF82FC  |  4294935292 |
|     407 | 0x0F4F      |        3919 |
|     408 | 0x00B1      |         177 |
|     409 | 0x21C7      |        8647 |
|     410 | 0x21C8      |        8648 |
|     411 | 0x21C9      |        8649 |
|     412 | 0x21CA      |        8650 |
|     413 | 0x21CB      |        8651 |
|     414 | 0x21CC      |        8652 |
|     415 | 0x21CD      |        8653 |
|     416 | 0x21A0      |        8608 |
|     417 | 0x21A1      |        8609 |
|     418 | 0x21A2      |        8610 |

## String References

- **7074**: Proceed onward? [Yes./No.]
- **7377**: @
- **7378**: It all began with a stone, or so the legend says.
- **7379**: In ages past, a sentient jewel, enormous and beautiful, banished the darkness.
- **7380**: Its many-colored light filled the world with life and brought forth mighty gods.
- **7381**: Bathed in that light, the world entered an age of bliss until, after a time, the gods fell into slumber.
- **7382**: That world was called Vana'diel.
- **7383**: Our world, Vana'diel...
- **7396**: However, this age will not last. The great bane will devour the fair land of Vana'diel.
- **7397**: The ancient seal will be broken, awakening nightmares of ages past.
- **7398**: A tragic age of darkness will reign. And yet, the gods will not wake from their slumber...
- **7399**: That world was called Vana'diel.
- **7421**: What's the matter with you?
- **7444**: Prishe, you've snuck out of the cathedral again...
- **7470**: Can't let you do that!
- **7504**: (People are also born from the darkness, and return to the darkness...)
- **7506**: (The opposites of light and dark... Both are held within you...)
- **7507**: (You are born from the light that illuminates all, and then slowly devoured by the Emptiness that desires only oblivion...)
- **7508**: (This is the cycle begun by the Goddess of the Dawn. The cycle created for the sake of the Twilight God, Promathia...)
- **7567**: (There is no other choice but to fight... Great Goddess Altana... Bless us with the victory we need...)
- **7569**: With the waters gone, bandit tribes have little trouble staging raids across the border. Our empire's defenses are crumbling.
- **7570**: Lord Tenzen, your blade knows no equal. I beg of you to return and lead our soldiers into battle.
- **7572**: We are aware of your situation. However, the emperor will grant you his forgiveness.
- **7573**: You need only conquer the barbarians that mass against us, and reignite the Phoenix Blade upon their flesh.
- **7575**: Then it will be time to undertake our most desperate plan. Based on your information, we will invade the city of Jeuno.
- **7576**: Liberating the mothercrystals is the only way to stem the tide of Emptiness.
- **7578**: Final duty...?
- **7583**: Understood, Lord Tenzen. Your words will be relayed.
- **8607**: How will you respond? [I want your aid in Trust./I just came to say hello.]
- **8614**: What will you tell her? [But I really need your help.../Well, I hope you feel better...]
- **8623**: What is your response? [What happened next?/Think back on Al'Taieu!/Remember that a new world has begun!]

## Events

### Event 65535

#### Metadata

| Field        | Value   |
|--------------|---------|
| Entrypoint   | 0x0000  |
| Data Size    | 1 bytes |
| Instructions | 1       |

```
      00 01 02 03 04 05 06 07  08 09 0A 0B 0C 0D 0E 0F
      -- -- -- -- -- -- -- --  -- -- -- -- -- -- -- --
0000: 00                                                .               
```

#### Opcodes

```
  0: 0x0000 [0x00] END_REQSTACK()
```

### Event 5

#### Metadata

| Field        | Value      |
|--------------|------------|
| Entrypoint   | 0x0001     |
| Data Size    | 2245 bytes |
| Instructions | 306        |

```
      00 01 02 03 04 05 06 07  08 09 0A 0B 0C 0D 0E 0F
      -- -- -- -- -- -- -- --  -- -- -- -- -- -- -- --
0000:    20 01 42 46 01 29 0B  40 91 01 01 02 5D 00 80    .BF.).@....]..
0010: 01 80 45 01 80 F8 FF FF  7F F8 FF FF 7F 66 64 6F  ..E..........fdo
0020: 31 00 80 1C 01 80 38 02  80 29 08 F0 FF FF 7F 04  1.....8..)......
0030: 5C 00 03 80 5C 01 03 80  4E 01 F0 FF FF 7F 4E 01  \...\...N.....N.
0040: 4C 91 01 01 4E 00 4B 91  01 01 80 4B 91 01 01 1C  L...N.K....K....
0050: 01 80 29 0B 40 91 01 01  03 29 0B 4B 91 01 01 43  ..).@....).K...C
0060: 29 0B F0 FF FF 7F 12 29  08 4B 91 01 01 23 29 08  )......).K...#).
0070: 4B 91 01 01 24 2C 4B 91  01 01 4B 91 01 01 77 6F  K...$,K...K...wo
0080: 6E 32 48 04 80 23 48 05  80 23 45 06 80 F8 FF FF  n2H..#H..#E.....
0090: 7F F8 FF FF 7F 73 30 32  36 00 80 45 01 80 F8 FF  .....s026..E....
00A0: FF 7F F8 FF FF 7F 66 64  69 31 00 80 1C 07 80 48  ......fdi1.....H
00B0: 04 80 23 48 08 80 23 1C  07 80 52 06 80 F8 FF FF  ..#H..#...R.....
00C0: 7F F8 FF FF 7F 73 30 32  36 45 01 80 F0 FF FF 7F  .....s026E......
00D0: F0 FF FF 7F 6F 76 6C 31  00 80 45 06 80 F8 FF FF  ....ovl1..E.....
00E0: 7F F8 FF FF 7F 73 30 32  37 00 80 1C 07 80 48 04  .....s027.....H.
00F0: 80 23 48 09 80 23 1C 07  80 52 06 80 F8 FF FF 7F  .#H..#...R......
0100: F8 FF FF 7F 73 30 32 37  45 01 80 F0 FF FF 7F F0  ....s027E.......
0110: FF FF 7F 6F 76 6C 31 00  80 45 06 80 F8 FF FF 7F  ...ovl1..E......
0120: F8 FF FF 7F 73 30 32 38  00 80 1C 07 80 48 04 80  ....s028.....H..
0130: 23 48 0A 80 23 1C 07 80  4E 00 F0 FF FF 7F 80 F0  #H..#...N.......
0140: FF FF 7F 52 06 80 F8 FF  FF 7F F8 FF FF 7F 73 30  ...R..........s0
0150: 32 38 45 01 80 F0 FF FF  7F F0 FF FF 7F 6F 76 6C  28E..........ovl
0160: 31 00 80 45 06 80 F8 FF  FF 7F F8 FF FF 7F 73 30  1..E..........s0
0170: 32 39 00 80 27 0B F0 FF  FF 7F 13 1C 07 80 48 04  29..'.........H.
0180: 80 23 48 0B 80 23 1C 0C  80 48 04 80 23 48 0D 80  .#H..#...H..#H..
0190: 23 2A 0B F0 FF FF 7F 5C  00 00 80 5C 01 00 80 29  #*.....\...\...)
01A0: 08 4B 91 01 01 25 1C 0E  80 52 06 80 F8 FF FF 7F  .K...%...R......
01B0: F8 FF FF 7F 73 30 32 39  45 01 80 F0 FF FF 7F F0  ....s029E.......
01C0: FF FF 7F 6F 76 6C 31 00  80 45 06 80 F8 FF FF 7F  ...ovl1..E......
01D0: F8 FF FF 7F 73 30 34 33  00 80 2B 4B 91 01 01 0F  ....s043..+K....
01E0: 80 23 29 08 4B 91 01 01  26 45 01 80 F8 FF FF 7F  .#).K...&E......
01F0: F8 FF FF 7F 66 64 6F 31  00 80 1C 0E 80 4E 00 F0  ....fdo1.....N..
0200: FF FF 7F 80 F0 FF FF 7F  52 06 80 F8 FF FF 7F F8  ........R.......
0210: FF FF 7F 73 30 34 33 2C  4B 91 01 01 4B 91 01 01  ...s043,K...K...
0220: 77 6F 66 32 29 08 4B 91  01 01 41 29 0B F0 FF FF  wof2).K...A)....
0230: 7F 14 29 0B 4B 91 01 01  44 29 0B 4C 91 01 01 40  ..).K...D).L...@
0240: 4A 4B 91 01 01 F0 FF FF  7F 6F 76 4B 91 01 01 4E  JK.......ovK...N
0250: 00 4C 91 01 01 80 4C 91  01 01 79 00 F0 FF FF 7F  .L....L...y.....
0260: 4B 91 01 01 27 0B 4B 91  01 01 45 45 06 80 F8 FF  K...'.K...EE....
0270: FF 7F F8 FF FF 7F 73 30  33 30 00 80 45 01 80 F8  ......s030..E...
0280: FF FF 7F F8 FF FF 7F 66  64 69 31 00 80 2A 0B 4B  .......fdi1..*.K
0290: 91 01 01 52 06 80 F8 FF  FF 7F F8 FF FF 7F 73 30  ...R..........s0
02A0: 33 30 45 01 80 F0 FF FF  7F F0 FF FF 7F 6F 76 6C  30E..........ovl
02B0: 31 00 80 45 06 80 F8 FF  FF 7F F8 FF FF 7F 73 30  1..E..........s0
02C0: 33 31 00 80 2B 4B 91 01  01 10 80 23 29 08 4B 91  31..+K.....#).K.
02D0: 01 01 05 2B 4B 91 01 01  11 80 23 29 08 4B 91 01  ...+K.....#).K..
02E0: 01 06 29 08 4B 91 01 01  07 29 08 4B 91 01 01 08  ..).K....).K....
02F0: 52 06 80 F8 FF FF 7F F8  FF FF 7F 73 30 33 31 45  R..........s031E
0300: 06 80 F8 FF FF 7F F8 FF  FF 7F 73 30 33 32 00 80  ..........s032..
0310: 37 12 80 13 80 14 80 15  80 29 08 4B 91 01 01 2B  7........).K...+
0320: 2B 4B 91 01 01 16 80 23  29 08 4B 91 01 01 2C 29  +K.....#).K...,)
0330: 08 4B 91 01 01 2D 2B 4B  91 01 01 17 80 23 29 08  .K...-+K.....#).
0340: 4B 91 01 01 2E 7B 4B 91  01 01 27 0B 4C 91 01 01  K....{K...'.L...
0350: 41 1C 18 80 52 06 80 F8  FF FF 7F F8 FF FF 7F 73  A...R..........s
0360: 30 33 32 45 06 80 F8 FF  FF 7F F8 FF FF 7F 73 30  032E..........s0
0370: 33 34 00 80 4A F0 FF FF  7F 4C 91 01 01 2B 4C 91  34..J....L...+L.
0380: 01 01 19 80 23 2A 0B 4C  91 01 01 2B 4B 91 01 01  ....#*.L...+K...
0390: 1A 80 23 52 06 80 F8 FF  FF 7F F8 FF FF 7F 73 30  ..#R..........s0
03A0: 33 34 45 06 80 F8 FF FF  7F F8 FF FF 7F 73 30 33  34E..........s03
03B0: 37 00 80 7B F0 FF FF 7F  7B 4B 91 01 01 29 0B 4B  7..{....{K...).K
03C0: 91 01 01 46 27 0B 4C 91  01 01 42 2B 4C 91 01 01  ...F'.L...B+L...
03D0: 1B 80 23 2A 0B 4C 91 01  01 2B 4C 91 01 01 1C 80  ..#*.L...+L.....
03E0: 23 52 06 80 F8 FF FF 7F  F8 FF FF 7F 73 30 33 37  #R..........s037
03F0: 45 06 80 F8 FF FF 7F F8  FF FF 7F 73 30 34 35 00  E..........s045.
0400: 80 7B 4B 91 01 01 29 08  4B 91 01 01 01 2B 4B 91  .{K...).K....+K.
0410: 01 01 1D 80 23 2B 4B 91  01 01 1E 80 23 29 08 4B  ....#+K.....#).K
0420: 91 01 01 02 52 06 80 F8  FF FF 7F F8 FF FF 7F 73  ....R..........s
0430: 30 34 35 02 09 10 1F 80  00 4F 04 45 06 80 F8 FF  045......O.E....
0440: FF 7F F8 FF FF 7F 73 30  34 32 00 80 01 7C 04 02  ......s042...|..
0450: 09 10 1F 80 00 6B 04 45  06 80 F8 FF FF 7F F8 FF  .....k.E........
0460: FF 7F 73 30 34 32 00 80  01 7C 04 45 06 80 F8 FF  ..s042...|.E....
0470: FF 7F F8 FF FF 7F 73 30  33 38 00 80 4A F0 FF FF  ......s038..J...
0480: 7F 4C 91 01 01 4A 4B 91  01 01 4C 91 01 01 29 08  .L...JK...L...).
0490: 4B 91 01 01 03 5C 00 20  80 5C 01 20 80 27 0B 4C  K....\. .\. .'.L
04A0: 91 01 01 43 2B 4C 91 01  01 21 80 23 2A 0B 4C 91  ...C+L...!.#*.L.
04B0: 01 01 29 08 4B 91 01 01  04 29 08 4C 91 01 01 37  ..).K....).L...7
04C0: 1C 01 80 02 09 10 1F 80  00 DD 04 52 06 80 F8 FF  ...........R....
04D0: FF 7F F8 FF FF 7F 73 30  34 32 01 06 05 02 09 10  ......s042......
04E0: 1F 80 00 F7 04 52 06 80  F8 FF FF 7F F8 FF FF 7F  .....R..........
04F0: 73 30 34 32 01 06 05 52  06 80 F8 FF FF 7F F8 FF  s042...R........
0500: FF 7F 73 30 33 38 45 06  80 F8 FF FF 7F F8 FF FF  ..s038E.........
0510: 7F 73 30 33 39 00 80 1C  0C 80 48 04 80 23 48 22  .s039.....H..#H"
0520: 80 23 1C 07 80 52 06 80  F8 FF FF 7F F8 FF FF 7F  .#...R..........
0530: 73 30 33 39 45 01 80 F0  FF FF 7F F0 FF FF 7F 6F  s039E..........o
0540: 76 6C 31 00 80 45 06 80  F8 FF FF 7F F8 FF FF 7F  vl1..E..........
0550: 73 30 34 30 00 80 1C 23  80 48 04 80 23 48 24 80  s040...#.H..#H$.
0560: 23 1C 23 80 52 06 80 F8  FF FF 7F F8 FF FF 7F 73  #.#.R..........s
0570: 30 34 30 45 01 80 F0 FF  FF 7F F0 FF FF 7F 6F 76  040E..........ov
0580: 6C 31 00 80 45 06 80 F8  FF FF 7F F8 FF FF 7F 73  l1..E..........s
0590: 30 34 38 00 80 1C 23 80  48 04 80 23 48 25 80 23  048...#.H..#H%.#
05A0: 1C 23 80 52 06 80 F8 FF  FF 7F F8 FF FF 7F 73 30  .#.R..........s0
05B0: 34 38 45 01 80 F0 FF FF  7F F0 FF FF 7F 6F 76 6C  48E..........ovl
05C0: 31 00 80 45 06 80 F8 FF  FF 7F F8 FF FF 7F 73 30  1..E..........s0
05D0: 34 31 00 80 1C 23 80 48  04 80 23 48 26 80 23 45  41...#.H..#H&.#E
05E0: 01 80 F8 FF FF 7F F8 FF  FF 7F 66 64 6F 31 00 80  ..........fdo1..
05F0: 1C 0E 80 29 08 4C 91 01  01 38 5D 00 80 01 80 4A  ...).L...8]....J
0600: 4C 91 01 01 4B 91 01 01  6F 76 4C 91 01 01 52 06  L...K...ovL...R.
0610: 80 F8 FF FF 7F F8 FF FF  7F 73 30 34 31 45 06 80  .........s041E..
0620: F8 FF FF 7F F8 FF FF 7F  73 30 33 33 00 80 45 01  ........s033..E.
0630: 80 F8 FF FF 7F F8 FF FF  7F 66 64 69 31 00 80 27  .........fdi1..'
0640: 0B 4C 91 01 01 44 2B 4C  91 01 01 27 80 23 2A 0B  .L...D+L...'.#*.
0650: 4C 91 01 01 29 08 4C 91  01 01 3B 7C 00 4B 91 01  L...).L...;|.K..
0660: 01 2B 4B 91 01 01 28 80  23 7C 01 4B 91 01 01 52  .+K...(.#|.K...R
0670: 06 80 F8 FF FF 7F F8 FF  FF 7F 73 30 33 33 45 06  ..........s033E.
0680: 80 F8 FF FF 7F F8 FF FF  7F 73 30 33 36 00 80 9F  .........s036...
0690: 29 80 4C 91 01 01 4C 91  01 01 6D 61 69 6E 00 80  ).L...L...main..
06A0: 29 08 4C 91 01 01 3C 9F  29 80 4C 91 01 01 4C 91  ).L...<.).L...L.
06B0: 01 01 6B 69 6C 6C 00 80  29 08 4C 91 01 01 3D 2B  ..kill..).L...=+
06C0: 4C 91 01 01 2A 80 23 29  08 4C 91 01 01 3E 52 06  L...*.#).L...>R.
06D0: 80 F8 FF FF 7F F8 FF FF  7F 73 30 33 36 45 06 80  .........s036E..
06E0: F8 FF FF 7F F8 FF FF 7F  73 30 33 35 00 80 27 0B  ........s035..'.
06F0: 4C 91 01 01 45 1C 2B 80  27 0B 4B 91 01 01 47 2B  L...E.+.'.K...G+
0700: 4B 91 01 01 2C 80 23 2A  0B 4C 91 01 01 2A 0B 4B  K...,.#*.L...*.K
0710: 91 01 01 1C 18 80 2B 4C  91 01 01 2D 80 23 52 06  ......+L...-.#R.
0720: 80 F8 FF FF 7F F8 FF FF  7F 73 30 33 35 45 06 80  .........s035E..
0730: F8 FF FF 7F F8 FF FF 7F  73 30 34 36 00 80 4A 4C  ........s046..JL
0740: 91 01 01 4B 91 01 01 6F  76 4C 91 01 01 2B 4C 91  ...K...ovL...+L.
0750: 01 01 2E 80 23 52 06 80  F8 FF FF 7F F8 FF FF 7F  ....#R..........
0760: 73 30 34 36 45 06 80 F8  FF FF 7F F8 FF FF 7F 73  s046E..........s
0770: 30 34 37 00 80 27 0B 4C  91 01 01 46 1C 0C 80 45  047..'.L...F...E
0780: 01 80 F0 FF FF 7F F0 FF  FF 7F 66 64 6F 31 00 80  ..........fdo1..
0790: 1C 0E 80 52 06 80 F8 FF  FF 7F F8 FF FF 7F 73 30  ...R..........s0
07A0: 34 37 02 09 10 1F 80 00  BE 07 45 06 80 F8 FF FF  47........E.....
07B0: 7F F8 FF FF 7F 73 30 34  39 00 80 01 EB 07 02 09  .....s049.......
07C0: 10 2F 80 00 DA 07 45 06  80 F8 FF FF 7F F8 FF FF  ./....E.........
07D0: 7F 73 30 34 39 00 80 01  EB 07 45 06 80 F8 FF FF  .s049.....E.....
07E0: 7F F8 FF FF 7F 73 30 34  34 00 80 45 01 80 F0 FF  .....s044..E....
07F0: FF 7F F0 FF FF 7F 66 64  69 31 00 80 79 00 F0 FF  ......fdi1..y...
0800: FF 7F 4B 91 01 01 27 0B  4B 91 01 01 48 2B 4B 91  ..K...'.K...H+K.
0810: 01 01 30 80 23 2A 0B 4B  91 01 01 4A F0 FF FF 7F  ..0.#*.K...J....
0820: 4B 91 01 01 6F 76 F0 FF  FF 7F 1C 0E 80 79 00 4B  K...ov.......y.K
0830: 91 01 01 F0 FF FF 7F 1C  0E 80 2B 4B 91 01 01 31  ..........+K...1
0840: 80 23 45 01 80 F0 FF FF  7F F0 FF FF 7F 66 64 6F  .#E..........fdo
0850: 31 00 80 1C 0E 80 02 09  10 1F 80 00 70 08 52 06  1...........p.R.
0860: 80 F8 FF FF 7F F8 FF FF  7F 73 30 34 39 01 99 08  .........s049...
0870: 02 09 10 2F 80 00 8A 08  52 06 80 F8 FF FF 7F F8  .../....R.......
0880: FF FF 7F 73 30 34 39 01  99 08 52 06 80 F8 FF FF  ...s049...R.....
0890: 7F F8 FF FF 7F 73 30 34  34 5C 00 32 80 5C 01 32  .....s044\.2.\.2
08A0: 80 1C 0C 80 4E 00 F0 FF  FF 7F 80 F0 FF FF 7F 46  ....N..........F
08B0: 00 45 01 80 F0 FF FF 7F  F0 FF FF 7F 66 64 69 31  .E..........fdi1
08C0: 00 80 20 00 21 00                                 .. .!.          
```

#### Opcodes

```
  0: 0x0001 [0x20] SET_CLI_EVENT_UC_FLAG: Lock player control
  1: 0x0003 [0x42] SET_CLI_EVENT_CANCEL_DATA()
  2: 0x0004 [0x46] CAMERA_CONTROL: Disable user control
  3: 0x0006 [0x29] REQ_SET_WAIT(priority=0x0B, entity_id=Dilapidated Gate (ID: 16879936/0x01019140), tag_num=0x02)
  4: 0x000D [0x5D] SET_MUSIC_VOLUME(volume=0*, fade_time=200*)
  5: 0x0012 [0x45] LOAD_SCHEDULED_TASK: Load scheduler "fdo1" with entities [EventEntity, EventEntity], work=[200*, 0*]
  6: 0x0023 [0x1C] WAIT(200* ticks)
  7: 0x0026 [0x38] SET_CLIENT_EVENT_MODE(mode=19*)
  8: 0x0029 [0x29] REQ_SET_WAIT(priority=0x08, entity_id=LocalPlayer, tag_num=0x04)
  9: 0x0030 [0x5C] MUSIC_CONTROL: Set Idle (Day) music to song 235*
 10: 0x0034 [0x5C] MUSIC_CONTROL: Set Idle (Night) music to song 235*
 11: 0x0038 [0x4E] SET_ENTITY_HIDE_FLAG: Hide LocalPlayer
 12: 0x003E [0x4E] SET_ENTITY_HIDE_FLAG: Hide Nag'molada (ID: 16879948/0x0101914C)
 13: 0x0044 [0x4E] SET_ENTITY_HIDE_FLAG: Show Ulmia (ID: 16879947/0x0101914B)
 14: 0x004A [0x80] LOAD_WAIT(entity=Ulmia (ID: 16879947/0x0101914B))
 15: 0x004F [0x1C] WAIT(200* ticks)
 16: 0x0052 [0x29] REQ_SET_WAIT(priority=0x0B, entity_id=Dilapidated Gate (ID: 16879936/0x01019140), tag_num=0x03)
 17: 0x0059 [0x29] REQ_SET_WAIT(priority=0x0B, entity_id=Ulmia (ID: 16879947/0x0101914B), tag_num=0x43)
 18: 0x0060 [0x29] REQ_SET_WAIT(priority=0x0B, entity_id=LocalPlayer, tag_num=0x12)
 19: 0x0067 [0x29] REQ_SET_WAIT(priority=0x08, entity_id=Ulmia (ID: 16879947/0x0101914B), tag_num=0x23)
 20: 0x006E [0x29] REQ_SET_WAIT(priority=0x08, entity_id=Ulmia (ID: 16879947/0x0101914B), tag_num=0x24)
 21: 0x0075 [0x2C] CREATE_SCHEDULER_TASK: Create scheduler "won2" with entities [Ulmia (ID: 16879947/0x0101914B), Ulmia (ID: 16879947/0x0101914B)]
 22: 0x0082 [0x48] [System] [7377*]:
    → "@"
 23: 0x0085 [0x23] WAIT_FOR_DIALOG_INTERACTION
 24: 0x0086 [0x48] [System] [7378*]:
    → "It all began with a stone, or so the legend says."
 25: 0x0089 [0x23] WAIT_FOR_DIALOG_INTERACTION
 26: 0x008A [0x45] LOAD_SCHEDULED_TASK: Load scheduler "s026" with entities [EventEntity, EventEntity], work=[118*, 0*]
 27: 0x009B [0x45] LOAD_SCHEDULED_TASK: Load scheduler "fdi1" with entities [EventEntity, EventEntity], work=[200*, 0*]
 28: 0x00AC [0x1C] WAIT(250* ticks)
 29: 0x00AF [0x48] [System] [7377*]:
    → "@"
 30: 0x00B2 [0x23] WAIT_FOR_DIALOG_INTERACTION
 31: 0x00B3 [0x48] [System] [7379*]:
    → "In ages past, a sentient jewel, enormous and beautiful, banished the darkness."
 32: 0x00B6 [0x23] WAIT_FOR_DIALOG_INTERACTION
 33: 0x00B7 [0x1C] WAIT(250* ticks)
 34: 0x00BA [0x52] END_LOAD_SCHEDULER: End scheduler "s026" with entities [EventEntity, EventEntity], work=118*
 35: 0x00C9 [0x45] LOAD_SCHEDULED_TASK: Load scheduler "ovl1" with entities [LocalPlayer, LocalPlayer], work=[200*, 0*]
 36: 0x00DA [0x45] LOAD_SCHEDULED_TASK: Load scheduler "s027" with entities [EventEntity, EventEntity], work=[118*, 0*]
 37: 0x00EB [0x1C] WAIT(250* ticks)
 38: 0x00EE [0x48] [System] [7377*]:
    → "@"
 39: 0x00F1 [0x23] WAIT_FOR_DIALOG_INTERACTION
 40: 0x00F2 [0x48] [System] [7380*]:
    → "Its many-colored light filled the world with life and brought forth mighty gods."
 41: 0x00F5 [0x23] WAIT_FOR_DIALOG_INTERACTION
 42: 0x00F6 [0x1C] WAIT(250* ticks)
 43: 0x00F9 [0x52] END_LOAD_SCHEDULER: End scheduler "s027" with entities [EventEntity, EventEntity], work=118*
 44: 0x0108 [0x45] LOAD_SCHEDULED_TASK: Load scheduler "ovl1" with entities [LocalPlayer, LocalPlayer], work=[200*, 0*]
 45: 0x0119 [0x45] LOAD_SCHEDULED_TASK: Load scheduler "s028" with entities [EventEntity, EventEntity], work=[118*, 0*]
 46: 0x012A [0x1C] WAIT(250* ticks)
 47: 0x012D [0x48] [System] [7377*]:
    → "@"
 48: 0x0130 [0x23] WAIT_FOR_DIALOG_INTERACTION
 49: 0x0131 [0x48] [System] [7381*]:
    → "Bathed in that light, the world entered an age of bliss until, after a time, the gods fell into slumber."
 50: 0x0134 [0x23] WAIT_FOR_DIALOG_INTERACTION
 51: 0x0135 [0x1C] WAIT(250* ticks)
 52: 0x0138 [0x4E] SET_ENTITY_HIDE_FLAG: Show LocalPlayer
 53: 0x013E [0x80] LOAD_WAIT(entity=LocalPlayer)
 54: 0x0143 [0x52] END_LOAD_SCHEDULER: End scheduler "s028" with entities [EventEntity, EventEntity], work=118*
 55: 0x0152 [0x45] LOAD_SCHEDULED_TASK: Load scheduler "ovl1" with entities [LocalPlayer, LocalPlayer], work=[200*, 0*]
 56: 0x0163 [0x45] LOAD_SCHEDULED_TASK: Load scheduler "s029" with entities [EventEntity, EventEntity], work=[118*, 0*]
 57: 0x0174 [0x27] REQ_SET(priority=0x0B, entity_id=LocalPlayer, tag_num=0x13)
 58: 0x017B [0x1C] WAIT(250* ticks)
 59: 0x017E [0x48] [System] [7377*]:
    → "@"
 60: 0x0181 [0x23] WAIT_FOR_DIALOG_INTERACTION
 61: 0x0182 [0x48] [System] [7382*]:
    → "That world was called Vana'diel."
 62: 0x0185 [0x23] WAIT_FOR_DIALOG_INTERACTION
 63: 0x0186 [0x1C] WAIT(100* ticks)
 64: 0x0189 [0x48] [System] [7377*]:
    → "@"
 65: 0x018C [0x23] WAIT_FOR_DIALOG_INTERACTION
 66: 0x018D [0x48] [System] [7383*]:
    → "Our world, Vana'diel..."
 67: 0x0190 [0x23] WAIT_FOR_DIALOG_INTERACTION
 68: 0x0191 [0x2A] GET_REQ_LEVEL(level=11, entity_id=LocalPlayer)
 69: 0x0197 [0x5C] MUSIC_CONTROL: Set Idle (Day) music to song 0*
 70: 0x019B [0x5C] MUSIC_CONTROL: Set Idle (Night) music to song 0*
 71: 0x019F [0x29] REQ_SET_WAIT(priority=0x08, entity_id=Ulmia (ID: 16879947/0x0101914B), tag_num=0x25)
 72: 0x01A6 [0x1C] WAIT(60* ticks)
 73: 0x01A9 [0x52] END_LOAD_SCHEDULER: End scheduler "s029" with entities [EventEntity, EventEntity], work=118*
 74: 0x01B8 [0x45] LOAD_SCHEDULED_TASK: Load scheduler "ovl1" with entities [LocalPlayer, LocalPlayer], work=[200*, 0*]
 75: 0x01C9 [0x45] LOAD_SCHEDULED_TASK: Load scheduler "s043" with entities [EventEntity, EventEntity], work=[118*, 0*]
 76: 0x01DA [0x2B] Ulmia (ID: 16879947/0x0101914B) [7384*]:
    → "Ah, you must be..."
 77: 0x01E1 [0x23] WAIT_FOR_DIALOG_INTERACTION
 78: 0x01E2 [0x29] REQ_SET_WAIT(priority=0x08, entity_id=Ulmia (ID: 16879947/0x0101914B), tag_num=0x26)
 79: 0x01E9 [0x45] LOAD_SCHEDULED_TASK: Load scheduler "fdo1" with entities [EventEntity, EventEntity], work=[200*, 0*]
 80: 0x01FA [0x1C] WAIT(60* ticks)
 81: 0x01FD [0x4E] SET_ENTITY_HIDE_FLAG: Show LocalPlayer
 82: 0x0203 [0x80] LOAD_WAIT(entity=LocalPlayer)
 83: 0x0208 [0x52] END_LOAD_SCHEDULER: End scheduler "s043" with entities [EventEntity, EventEntity], work=118*
 84: 0x0217 [0x2C] CREATE_SCHEDULER_TASK: Create scheduler "wof2" with entities [Ulmia (ID: 16879947/0x0101914B), Ulmia (ID: 16879947/0x0101914B)]
 85: 0x0224 [0x29] REQ_SET_WAIT(priority=0x08, entity_id=Ulmia (ID: 16879947/0x0101914B), tag_num=0x41)
 86: 0x022B [0x29] REQ_SET_WAIT(priority=0x0B, entity_id=LocalPlayer, tag_num=0x14)
 87: 0x0232 [0x29] REQ_SET_WAIT(priority=0x0B, entity_id=Ulmia (ID: 16879947/0x0101914B), tag_num=0x44)
 88: 0x0239 [0x29] REQ_SET_WAIT(priority=0x0B, entity_id=Nag'molada (ID: 16879948/0x0101914C), tag_num=0x40)
 89: 0x0240 [0x4A] Ulmia (ID: 16879947/0x0101914B) looks at LocalPlayer
 90: 0x0249 [0x6F] WAIT_FRAME_DELAY: Yield until WaitTime reaches zero
 91: 0x024A [0x76] CHECK_ENTITY_RENDER_FLAGS: Wait until Ulmia (ID: 16879947/0x0101914B) Render.Flags0 and Render.Flags3 conditions are met
 92: 0x024F [0x4E] SET_ENTITY_HIDE_FLAG: Show Nag'molada (ID: 16879948/0x0101914C)
 93: 0x0255 [0x80] LOAD_WAIT(entity=Nag'molada (ID: 16879948/0x0101914C))
 94: 0x025A [0x79] LocalPlayer looks at Ulmia (ID: 16879947/0x0101914B) (Basic look)
 95: 0x0264 [0x27] REQ_SET(priority=0x0B, entity_id=Ulmia (ID: 16879947/0x0101914B), tag_num=0x45)
 96: 0x026B [0x45] LOAD_SCHEDULED_TASK: Load scheduler "s030" with entities [EventEntity, EventEntity], work=[118*, 0*]
 97: 0x027C [0x45] LOAD_SCHEDULED_TASK: Load scheduler "fdi1" with entities [EventEntity, EventEntity], work=[200*, 0*]
 98: 0x028D [0x2A] GET_REQ_LEVEL(level=11, entity_id=Ulmia (ID: 16879947/0x0101914B))
 99: 0x0293 [0x52] END_LOAD_SCHEDULER: End scheduler "s030" with entities [EventEntity, EventEntity], work=118*
100: 0x02A2 [0x45] LOAD_SCHEDULED_TASK: Load scheduler "ovl1" with entities [LocalPlayer, LocalPlayer], work=[200*, 0*]
101: 0x02B3 [0x45] LOAD_SCHEDULED_TASK: Load scheduler "s031" with entities [EventEntity, EventEntity], work=[118*, 0*]
102: 0x02C4 [0x2B] Ulmia (ID: 16879947/0x0101914B) [7385*]:
    → "You are <Player>, correct? My name is Ulmia."
103: 0x02CB [0x23] WAIT_FOR_DIALOG_INTERACTION
104: 0x02CC [0x29] REQ_SET_WAIT(priority=0x08, entity_id=Ulmia (ID: 16879947/0x0101914B), tag_num=0x05)
105: 0x02D3 [0x2B] Ulmia (ID: 16879947/0x0101914B) [7386*]:
    → "Hm? You wish to know the name of the song?"
106: 0x02DA [0x23] WAIT_FOR_DIALOG_INTERACTION
107: 0x02DB [0x29] REQ_SET_WAIT(priority=0x08, entity_id=Ulmia (ID: 16879947/0x0101914B), tag_num=0x06)
108: 0x02E2 [0x29] REQ_SET_WAIT(priority=0x08, entity_id=Ulmia (ID: 16879947/0x0101914B), tag_num=0x07)
109: 0x02E9 [0x29] REQ_SET_WAIT(priority=0x08, entity_id=Ulmia (ID: 16879947/0x0101914B), tag_num=0x08)
110: 0x02F0 [0x52] END_LOAD_SCHEDULER: End scheduler "s031" with entities [EventEntity, EventEntity], work=118*
111: 0x02FF [0x45] LOAD_SCHEDULED_TASK: Load scheduler "s032" with entities [EventEntity, EventEntity], work=[118*, 0*]
112: 0x0310 [0x37] UPDATE_EVENT_POSITION_AND_DIR: x=-159.578*, z=-319.737*, y=-31.973*, direction=24.3°*
113: 0x0319 [0x29] REQ_SET_WAIT(priority=0x08, entity_id=Ulmia (ID: 16879947/0x0101914B), tag_num=0x2B)
114: 0x0320 [0x2B] Ulmia (ID: 16879947/0x0101914B) [7387*]:
    → "It is called the "Lay of the Immortals." It has been passed down through the Tavnazian Cathedral since ancient times."
115: 0x0327 [0x23] WAIT_FOR_DIALOG_INTERACTION
116: 0x0328 [0x29] REQ_SET_WAIT(priority=0x08, entity_id=Ulmia (ID: 16879947/0x0101914B), tag_num=0x2C)
117: 0x032F [0x29] REQ_SET_WAIT(priority=0x08, entity_id=Ulmia (ID: 16879947/0x0101914B), tag_num=0x2D)
118: 0x0336 [0x2B] Ulmia (ID: 16879947/0x0101914B) [7388*]:
    → "The history of our people may often be lost to the flames of war and catastrophe. However, this song of guidance shall never be forgotten..."
119: 0x033D [0x23] WAIT_FOR_DIALOG_INTERACTION
120: 0x033E [0x29] REQ_SET_WAIT(priority=0x08, entity_id=Ulmia (ID: 16879947/0x0101914B), tag_num=0x2E)
121: 0x0345 [0x7B] Ulmia (ID: 16879947/0x0101914B) stops talking
122: 0x034A [0x27] REQ_SET(priority=0x0B, entity_id=Nag'molada (ID: 16879948/0x0101914C), tag_num=0x41)
123: 0x0351 [0x1C] WAIT(30* ticks)
124: 0x0354 [0x52] END_LOAD_SCHEDULER: End scheduler "s032" with entities [EventEntity, EventEntity], work=118*
125: 0x0363 [0x45] LOAD_SCHEDULED_TASK: Load scheduler "s034" with entities [EventEntity, EventEntity], work=[118*, 0*]
126: 0x0374 [0x4A] LocalPlayer looks at Nag'molada (ID: 16879948/0x0101914C)
127: 0x037D [0x2B] Nag'molada (ID: 16879948/0x0101914C) [7389*]:
    → "Are you the one who was singing just now?"
128: 0x0384 [0x23] WAIT_FOR_DIALOG_INTERACTION
129: 0x0385 [0x2A] GET_REQ_LEVEL(level=11, entity_id=Nag'molada (ID: 16879948/0x0101914C))
130: 0x038B [0x2B] Ulmia (ID: 16879947/0x0101914B) [7390*]:
    → "Nag'molada...was it not?"
131: 0x0392 [0x23] WAIT_FOR_DIALOG_INTERACTION
132: 0x0393 [0x52] END_LOAD_SCHEDULER: End scheduler "s034" with entities [EventEntity, EventEntity], work=118*
133: 0x03A2 [0x45] LOAD_SCHEDULED_TASK: Load scheduler "s037" with entities [EventEntity, EventEntity], work=[118*, 0*]
134: 0x03B3 [0x7B] LocalPlayer stops talking
135: 0x03B8 [0x7B] Ulmia (ID: 16879947/0x0101914B) stops talking
136: 0x03BD [0x29] REQ_SET_WAIT(priority=0x0B, entity_id=Ulmia (ID: 16879947/0x0101914B), tag_num=0x46)
137: 0x03C4 [0x27] REQ_SET(priority=0x0B, entity_id=Nag'molada (ID: 16879948/0x0101914C), tag_num=0x42)
138: 0x03CB [0x2B] Nag'molada (ID: 16879948/0x0101914C) [7391*]:
    → "Even after the longest of trials, there are some things that will never be lost. How very nostalgic."
139: 0x03D2 [0x23] WAIT_FOR_DIALOG_INTERACTION
140: 0x03D3 [0x2A] GET_REQ_LEVEL(level=11, entity_id=Nag'molada (ID: 16879948/0x0101914C))
141: 0x03D9 [0x2B] Nag'molada (ID: 16879948/0x0101914C) [7392*]:
    → "In a place quite similar to this one, a song was born in an age when such things did not exist. Amazing to hear the birth of song, the first song..."
142: 0x03E0 [0x23] WAIT_FOR_DIALOG_INTERACTION
143: 0x03E1 [0x52] END_LOAD_SCHEDULER: End scheduler "s037" with entities [EventEntity, EventEntity], work=118*
144: 0x03F0 [0x45] LOAD_SCHEDULED_TASK: Load scheduler "s045" with entities [EventEntity, EventEntity], work=[118*, 0*]
145: 0x0401 [0x7B] Ulmia (ID: 16879947/0x0101914B) stops talking
146: 0x0406 [0x29] REQ_SET_WAIT(priority=0x08, entity_id=Ulmia (ID: 16879947/0x0101914B), tag_num=0x01)
147: 0x040D [0x2B] Ulmia (ID: 16879947/0x0101914B) [7393*]:
    → "The birth of song...?"
148: 0x0414 [0x23] WAIT_FOR_DIALOG_INTERACTION
149: 0x0415 [0x2B] Ulmia (ID: 16879947/0x0101914B) [7394*]:
    → "Is it possible that you know of this lay?"
150: 0x041C [0x23] WAIT_FOR_DIALOG_INTERACTION
151: 0x041D [0x29] REQ_SET_WAIT(priority=0x08, entity_id=Ulmia (ID: 16879947/0x0101914B), tag_num=0x02)
152: 0x0424 [0x52] END_LOAD_SCHEDULER: End scheduler "s045" with entities [EventEntity, EventEntity], work=118*
153: 0x0433 [0x02] IF !(Work_Zone[9] == 5*) GOTO 0x044F
154: 0x043B [0x45] LOAD_SCHEDULED_TASK: Load scheduler "s042" with entities [EventEntity, EventEntity], work=[118*, 0*]
155: 0x044C [0x01] GOTO 0x047C
156: 0x044F [0x02] IF !(Work_Zone[9] == 5*) GOTO 0x046B
157: 0x0457 [0x45] LOAD_SCHEDULED_TASK: Load scheduler "s042" with entities [EventEntity, EventEntity], work=[118*, 0*]
158: 0x0468 [0x01] GOTO 0x047C
159: 0x046B [0x45] LOAD_SCHEDULED_TASK: Load scheduler "s038" with entities [EventEntity, EventEntity], work=[118*, 0*]

SUBROUTINE_047C:
160: 0x047C [0x4A] LocalPlayer looks at Nag'molada (ID: 16879948/0x0101914C)
161: 0x0485 [0x4A] Ulmia (ID: 16879947/0x0101914B) looks at Nag'molada (ID: 16879948/0x0101914C)
162: 0x048E [0x29] REQ_SET_WAIT(priority=0x08, entity_id=Ulmia (ID: 16879947/0x0101914B), tag_num=0x03)
163: 0x0495 [0x5C] MUSIC_CONTROL: Set Idle (Day) music to song 240*
164: 0x0499 [0x5C] MUSIC_CONTROL: Set Idle (Night) music to song 240*
165: 0x049D [0x27] REQ_SET(priority=0x0B, entity_id=Nag'molada (ID: 16879948/0x0101914C), tag_num=0x43)
166: 0x04A4 [0x2B] Nag'molada (ID: 16879948/0x0101914C) [7395*]:
    → "Yes, I know it well. It is known as the "Memoria de la S^tona." There is another verse."
167: 0x04AB [0x23] WAIT_FOR_DIALOG_INTERACTION
168: 0x04AC [0x2A] GET_REQ_LEVEL(level=11, entity_id=Nag'molada (ID: 16879948/0x0101914C))
169: 0x04B2 [0x29] REQ_SET_WAIT(priority=0x08, entity_id=Ulmia (ID: 16879947/0x0101914B), tag_num=0x04)
170: 0x04B9 [0x29] REQ_SET_WAIT(priority=0x08, entity_id=Nag'molada (ID: 16879948/0x0101914C), tag_num=0x37)
171: 0x04C0 [0x1C] WAIT(200* ticks)
172: 0x04C3 [0x02] IF !(Work_Zone[9] == 5*) GOTO 0x04DD
173: 0x04CB [0x52] END_LOAD_SCHEDULER: End scheduler "s042" with entities [EventEntity, EventEntity], work=118*
174: 0x04DA [0x01] GOTO 0x0506
175: 0x04DD [0x02] IF !(Work_Zone[9] == 5*) GOTO 0x04F7
176: 0x04E5 [0x52] END_LOAD_SCHEDULER: End scheduler "s042" with entities [EventEntity, EventEntity], work=118*
177: 0x04F4 [0x01] GOTO 0x0506
178: 0x04F7 [0x52] END_LOAD_SCHEDULER: End scheduler "s038" with entities [EventEntity, EventEntity], work=118*

SUBROUTINE_0506:
179: 0x0506 [0x45] LOAD_SCHEDULED_TASK: Load scheduler "s039" with entities [EventEntity, EventEntity], work=[118*, 0*]
180: 0x0517 [0x1C] WAIT(100* ticks)
181: 0x051A [0x48] [System] [7377*]:
    → "@"
182: 0x051D [0x23] WAIT_FOR_DIALOG_INTERACTION
183: 0x051E [0x48] [System] [7396*]:
    → "However, this age will not last. The great bane will devour the fair land of Vana'diel."
184: 0x0521 [0x23] WAIT_FOR_DIALOG_INTERACTION
185: 0x0522 [0x1C] WAIT(250* ticks)
186: 0x0525 [0x52] END_LOAD_SCHEDULER: End scheduler "s039" with entities [EventEntity, EventEntity], work=118*
187: 0x0534 [0x45] LOAD_SCHEDULED_TASK: Load scheduler "ovl1" with entities [LocalPlayer, LocalPlayer], work=[200*, 0*]
188: 0x0545 [0x45] LOAD_SCHEDULED_TASK: Load scheduler "s040" with entities [EventEntity, EventEntity], work=[118*, 0*]
189: 0x0556 [0x1C] WAIT(300* ticks)
190: 0x0559 [0x48] [System] [7377*]:
    → "@"
191: 0x055C [0x23] WAIT_FOR_DIALOG_INTERACTION
192: 0x055D [0x48] [System] [7397*]:
    → "The ancient seal will be broken, awakening nightmares of ages past."
193: 0x0560 [0x23] WAIT_FOR_DIALOG_INTERACTION
194: 0x0561 [0x1C] WAIT(300* ticks)
195: 0x0564 [0x52] END_LOAD_SCHEDULER: End scheduler "s040" with entities [EventEntity, EventEntity], work=118*
196: 0x0573 [0x45] LOAD_SCHEDULED_TASK: Load scheduler "ovl1" with entities [LocalPlayer, LocalPlayer], work=[200*, 0*]
197: 0x0584 [0x45] LOAD_SCHEDULED_TASK: Load scheduler "s048" with entities [EventEntity, EventEntity], work=[118*, 0*]
198: 0x0595 [0x1C] WAIT(300* ticks)
199: 0x0598 [0x48] [System] [7377*]:
    → "@"
200: 0x059B [0x23] WAIT_FOR_DIALOG_INTERACTION
201: 0x059C [0x48] [System] [7398*]:
    → "A tragic age of darkness will reign. And yet, the gods will not wake from their slumber..."
202: 0x059F [0x23] WAIT_FOR_DIALOG_INTERACTION
203: 0x05A0 [0x1C] WAIT(300* ticks)
204: 0x05A3 [0x52] END_LOAD_SCHEDULER: End scheduler "s048" with entities [EventEntity, EventEntity], work=118*
205: 0x05B2 [0x45] LOAD_SCHEDULED_TASK: Load scheduler "ovl1" with entities [LocalPlayer, LocalPlayer], work=[200*, 0*]
206: 0x05C3 [0x45] LOAD_SCHEDULED_TASK: Load scheduler "s041" with entities [EventEntity, EventEntity], work=[118*, 0*]
207: 0x05D4 [0x1C] WAIT(300* ticks)
208: 0x05D7 [0x48] [System] [7377*]:
    → "@"
209: 0x05DA [0x23] WAIT_FOR_DIALOG_INTERACTION
210: 0x05DB [0x48] [System] [7399*]:
    → "That world was called Vana'diel."
211: 0x05DE [0x23] WAIT_FOR_DIALOG_INTERACTION
212: 0x05DF [0x45] LOAD_SCHEDULED_TASK: Load scheduler "fdo1" with entities [EventEntity, EventEntity], work=[200*, 0*]
213: 0x05F0 [0x1C] WAIT(60* ticks)
214: 0x05F3 [0x29] REQ_SET_WAIT(priority=0x08, entity_id=Nag'molada (ID: 16879948/0x0101914C), tag_num=0x38)
215: 0x05FA [0x5D] SET_MUSIC_VOLUME(volume=0*, fade_time=200*)
216: 0x05FF [0x4A] Nag'molada (ID: 16879948/0x0101914C) looks at Ulmia (ID: 16879947/0x0101914B)
217: 0x0608 [0x6F] WAIT_FRAME_DELAY: Yield until WaitTime reaches zero
218: 0x0609 [0x76] CHECK_ENTITY_RENDER_FLAGS: Wait until Nag'molada (ID: 16879948/0x0101914C) Render.Flags0 and Render.Flags3 conditions are met
219: 0x060E [0x52] END_LOAD_SCHEDULER: End scheduler "s041" with entities [EventEntity, EventEntity], work=118*
220: 0x061D [0x45] LOAD_SCHEDULED_TASK: Load scheduler "s033" with entities [EventEntity, EventEntity], work=[118*, 0*]
221: 0x062E [0x45] LOAD_SCHEDULED_TASK: Load scheduler "fdi1" with entities [EventEntity, EventEntity], work=[200*, 0*]
222: 0x063F [0x27] REQ_SET(priority=0x0B, entity_id=Nag'molada (ID: 16879948/0x0101914C), tag_num=0x44)
223: 0x0646 [0x2B] Nag'molada (ID: 16879948/0x0101914C) [7401*]:
    → "This is no fabrication. The memory of the crystal is the memory of Vana'diel. No one, mortal or immortal, can warp the truth of these words."
224: 0x064D [0x23] WAIT_FOR_DIALOG_INTERACTION
225: 0x064E [0x2A] GET_REQ_LEVEL(level=11, entity_id=Nag'molada (ID: 16879948/0x0101914C))
226: 0x0654 [0x29] REQ_SET_WAIT(priority=0x08, entity_id=Nag'molada (ID: 16879948/0x0101914C), tag_num=0x3B)
227: 0x065B [0x7C] Ulmia (ID: 16879947/0x0101914B)->Render.Flags2 |= 0x00
228: 0x0661 [0x2B] Ulmia (ID: 16879947/0x0101914B) [7400*]:
    → "..."
229: 0x0668 [0x23] WAIT_FOR_DIALOG_INTERACTION
230: 0x0669 [0x7C] Ulmia (ID: 16879947/0x0101914B)->Render.Flags2 |= 0x01
231: 0x066F [0x52] END_LOAD_SCHEDULER: End scheduler "s033" with entities [EventEntity, EventEntity], work=118*
232: 0x067E [0x45] LOAD_SCHEDULED_TASK: Load scheduler "s036" with entities [EventEntity, EventEntity], work=[118*, 0*]
233: 0x068F [0x9F] LOAD_SCHEDULED_TASK_ALT: Load scheduler "main" with entities [Nag'molada (ID: 16879948/0x0101914C), Nag'molada (ID: 16879948/0x0101914C)], work=[88*, 0*]
234: 0x06A0 [0x29] REQ_SET_WAIT(priority=0x08, entity_id=Nag'molada (ID: 16879948/0x0101914C), tag_num=0x3C)
235: 0x06A7 [0x9F] LOAD_SCHEDULED_TASK_ALT: Load scheduler "kill" with entities [Nag'molada (ID: 16879948/0x0101914C), Nag'molada (ID: 16879948/0x0101914C)], work=[88*, 0*]
236: 0x06B8 [0x29] REQ_SET_WAIT(priority=0x08, entity_id=Nag'molada (ID: 16879948/0x0101914C), tag_num=0x3D)
237: 0x06BF [0x2B] Nag'molada (ID: 16879948/0x0101914C) [7402*]:
    → "...! My apologies, I must be on my way..."
238: 0x06C6 [0x23] WAIT_FOR_DIALOG_INTERACTION
239: 0x06C7 [0x29] REQ_SET_WAIT(priority=0x08, entity_id=Nag'molada (ID: 16879948/0x0101914C), tag_num=0x3E)
240: 0x06CE [0x52] END_LOAD_SCHEDULER: End scheduler "s036" with entities [EventEntity, EventEntity], work=118*
241: 0x06DD [0x45] LOAD_SCHEDULED_TASK: Load scheduler "s035" with entities [EventEntity, EventEntity], work=[118*, 0*]
242: 0x06EE [0x27] REQ_SET(priority=0x0B, entity_id=Nag'molada (ID: 16879948/0x0101914C), tag_num=0x45)
243: 0x06F5 [0x1C] WAIT(40* ticks)
244: 0x06F8 [0x27] REQ_SET(priority=0x0B, entity_id=Ulmia (ID: 16879947/0x0101914B), tag_num=0x47)
245: 0x06FF [0x2B] Ulmia (ID: 16879947/0x0101914B) [7403*]:
    → "One moment! You must tell me one thing. Is that how the song ends...?"
246: 0x0706 [0x23] WAIT_FOR_DIALOG_INTERACTION
247: 0x0707 [0x2A] GET_REQ_LEVEL(level=11, entity_id=Nag'molada (ID: 16879948/0x0101914C))
248: 0x070D [0x2A] GET_REQ_LEVEL(level=11, entity_id=Ulmia (ID: 16879947/0x0101914B))
249: 0x0713 [0x1C] WAIT(30* ticks)
250: 0x0716 [0x2B] Nag'molada (ID: 16879948/0x0101914C) [7404*]:
    → "No, the song continues."
251: 0x071D [0x23] WAIT_FOR_DIALOG_INTERACTION
252: 0x071E [0x52] END_LOAD_SCHEDULER: End scheduler "s035" with entities [EventEntity, EventEntity], work=118*
253: 0x072D [0x45] LOAD_SCHEDULED_TASK: Load scheduler "s046" with entities [EventEntity, EventEntity], work=[118*, 0*]
254: 0x073E [0x4A] Nag'molada (ID: 16879948/0x0101914C) looks at Ulmia (ID: 16879947/0x0101914B)
255: 0x0747 [0x6F] WAIT_FRAME_DELAY: Yield until WaitTime reaches zero
256: 0x0748 [0x76] CHECK_ENTITY_RENDER_FLAGS: Wait until Nag'molada (ID: 16879948/0x0101914C) Render.Flags0 and Render.Flags3 conditions are met
257: 0x074D [0x2B] Nag'molada (ID: 16879948/0x0101914C) [7405*]:
    → "But the next verse is beyond the limits of your mortal voice. Only the gods are allowed to sing forth its melody."
258: 0x0754 [0x23] WAIT_FOR_DIALOG_INTERACTION
259: 0x0755 [0x52] END_LOAD_SCHEDULER: End scheduler "s046" with entities [EventEntity, EventEntity], work=118*
260: 0x0764 [0x45] LOAD_SCHEDULED_TASK: Load scheduler "s047" with entities [EventEntity, EventEntity], work=[118*, 0*]
261: 0x0775 [0x27] REQ_SET(priority=0x0B, entity_id=Nag'molada (ID: 16879948/0x0101914C), tag_num=0x46)
262: 0x077C [0x1C] WAIT(100* ticks)
263: 0x077F [0x45] LOAD_SCHEDULED_TASK: Load scheduler "fdo1" with entities [LocalPlayer, LocalPlayer], work=[200*, 0*]
264: 0x0790 [0x1C] WAIT(60* ticks)
265: 0x0793 [0x52] END_LOAD_SCHEDULER: End scheduler "s047" with entities [EventEntity, EventEntity], work=118*
266: 0x07A2 [0x02] IF !(Work_Zone[9] == 5*) GOTO 0x07BE
267: 0x07AA [0x45] LOAD_SCHEDULED_TASK: Load scheduler "s049" with entities [EventEntity, EventEntity], work=[118*, 0*]
268: 0x07BB [0x01] GOTO 0x07EB
269: 0x07BE [0x02] IF !(Work_Zone[9] == 6*) GOTO 0x07DA
270: 0x07C6 [0x45] LOAD_SCHEDULED_TASK: Load scheduler "s049" with entities [EventEntity, EventEntity], work=[118*, 0*]
271: 0x07D7 [0x01] GOTO 0x07EB
272: 0x07DA [0x45] LOAD_SCHEDULED_TASK: Load scheduler "s044" with entities [EventEntity, EventEntity], work=[118*, 0*]

SUBROUTINE_07EB:
273: 0x07EB [0x45] LOAD_SCHEDULED_TASK: Load scheduler "fdi1" with entities [LocalPlayer, LocalPlayer], work=[200*, 0*]
274: 0x07FC [0x79] LocalPlayer looks at Ulmia (ID: 16879947/0x0101914B) (Basic look)
275: 0x0806 [0x27] REQ_SET(priority=0x0B, entity_id=Ulmia (ID: 16879947/0x0101914B), tag_num=0x48)
276: 0x080D [0x2B] Ulmia (ID: 16879947/0x0101914B) [7406*]:
    → "The gods... Whatever could he mean...?"
277: 0x0814 [0x23] WAIT_FOR_DIALOG_INTERACTION
278: 0x0815 [0x2A] GET_REQ_LEVEL(level=11, entity_id=Ulmia (ID: 16879947/0x0101914B))
279: 0x081B [0x4A] LocalPlayer looks at Ulmia (ID: 16879947/0x0101914B)
280: 0x0824 [0x6F] WAIT_FRAME_DELAY: Yield until WaitTime reaches zero
281: 0x0825 [0x76] CHECK_ENTITY_RENDER_FLAGS: Wait until LocalPlayer Render.Flags0 and Render.Flags3 conditions are met
282: 0x082A [0x1C] WAIT(60* ticks)
283: 0x082D [0x79] Ulmia (ID: 16879947/0x0101914B) looks at LocalPlayer (Basic look)
284: 0x0837 [0x1C] WAIT(60* ticks)
285: 0x083A [0x2B] Ulmia (ID: 16879947/0x0101914B) [7407*]:
    → "Hm? Prishe has summoned me? Very well, let us return to town."
286: 0x0841 [0x23] WAIT_FOR_DIALOG_INTERACTION
287: 0x0842 [0x45] LOAD_SCHEDULED_TASK: Load scheduler "fdo1" with entities [LocalPlayer, LocalPlayer], work=[200*, 0*]
288: 0x0853 [0x1C] WAIT(60* ticks)
289: 0x0856 [0x02] IF !(Work_Zone[9] == 5*) GOTO 0x0870
290: 0x085E [0x52] END_LOAD_SCHEDULER: End scheduler "s049" with entities [EventEntity, EventEntity], work=118*
291: 0x086D [0x01] GOTO 0x0899
292: 0x0870 [0x02] IF !(Work_Zone[9] == 6*) GOTO 0x088A
293: 0x0878 [0x52] END_LOAD_SCHEDULER: End scheduler "s049" with entities [EventEntity, EventEntity], work=118*
294: 0x0887 [0x01] GOTO 0x0899
295: 0x088A [0x52] END_LOAD_SCHEDULER: End scheduler "s044" with entities [EventEntity, EventEntity], work=118*

SUBROUTINE_0899:
296: 0x0899 [0x5C] MUSIC_CONTROL: Set Idle (Day) music to song 230*
297: 0x089D [0x5C] MUSIC_CONTROL: Set Idle (Night) music to song 230*
298: 0x08A1 [0x1C] WAIT(100* ticks)
299: 0x08A4 [0x4E] SET_ENTITY_HIDE_FLAG: Show LocalPlayer
300: 0x08AA [0x80] LOAD_WAIT(entity=LocalPlayer)
301: 0x08AF [0x46] CAMERA_CONTROL: Restore default settings
302: 0x08B1 [0x45] LOAD_SCHEDULED_TASK: Load scheduler "fdi1" with entities [LocalPlayer, LocalPlayer], work=[200*, 0*]
303: 0x08C2 [0x20] SET_CLI_EVENT_UC_FLAG: Unlock player control
304: 0x08C4 [0x21] END_EVENT
305: 0x08C5 [0x00] END_REQSTACK()
```

### Event 7

#### Metadata

| Field        | Value      |
|--------------|------------|
| Entrypoint   | 0x08C6     |
| Data Size    | 4126 bytes |
| Instructions | 523        |

```
      00 01 02 03 04 05 06 07  08 09 0A 0B 0C 0D 0E 0F
      -- -- -- -- -- -- -- --  -- -- -- -- -- -- -- --
08C0:                   20 01  42 46 01 29 0B 40 91 01         .BF.).@..
08D0: 01 02 45 01 80 F8 FF FF  7F F8 FF FF 7F 66 64 6F  ..E..........fdo
08E0: 31 00 80 1C 0E 80 38 02  80 29 08 F0 FF FF 7F 04  1.....8..)......
08F0: 1C 0E 80 5C 00 03 80 5C  01 03 80 1C 01 80 4E 01  ...\...\......N.
0900: 4F 91 01 01 4E 00 4B 91  01 01 80 4B 91 01 01 29  O...N.K....K...)
0910: 0B 40 91 01 01 03 29 0B  4B 91 01 01 4A 29 0B F0  .@....).K...J)..
0920: FF FF 7F 19 2C 4B 91 01  01 4B 91 01 01 77 6F 6E  ....,K...K...won
0930: 32 29 08 4B 91 01 01 23  29 08 4B 91 01 01 24 27  2).K...#).K...$'
0940: 0B F0 FF FF 7F 1A 1C 33  80 45 06 80 F8 FF FF 7F  .......3.E......
0950: F8 FF FF 7F 73 30 35 30  00 80 45 01 80 F8 FF FF  ....s050..E.....
0960: 7F F8 FF FF 7F 66 64 69  31 00 80 1C 01 80 52 06  .....fdi1.....R.
0970: 80 F8 FF FF 7F F8 FF FF  7F 73 30 35 30 45 01 80  .........s050E..
0980: F0 FF FF 7F F0 FF FF 7F  6F 76 6C 31 00 80 45 06  ........ovl1..E.
0990: 80 F8 FF FF 7F F8 FF FF  7F 73 30 35 31 00 80 5D  .........s051..]
09A0: 00 80 0C 80 29 08 4B 91  01 01 25 1C 0C 80 52 06  ....).K...%...R.
09B0: 80 F8 FF FF 7F F8 FF FF  7F 73 30 35 31 45 01 80  .........s051E..
09C0: F0 FF FF 7F F0 FF FF 7F  6F 76 6C 31 00 80 45 06  ........ovl1..E.
09D0: 80 F8 FF FF 7F F8 FF FF  7F 73 30 35 33 00 80 2B  .........s053..+
09E0: 4B 91 01 01 34 80 23 29  08 4B 91 01 01 26 45 01  K...4.#).K...&E.
09F0: 80 F8 FF FF 7F F8 FF FF  7F 66 64 6F 31 00 80 1C  .........fdo1...
0A00: 0E 80 52 06 80 F8 FF FF  7F F8 FF FF 7F 73 30 35  ..R..........s05
0A10: 33 2A 0B F0 FF FF 7F 29  08 4B 91 01 01 41 2C 4B  3*.....).K...A,K
0A20: 91 01 01 4B 91 01 01 77  6F 66 32 29 0B F0 FF FF  ...K...wof2)....
0A30: 7F 1B 29 0B 4B 91 01 01  4B 29 08 4B 91 01 01 05  ..).K...K).K....
0A40: 29 08 4B 91 01 01 06 4A  F0 FF FF 7F 4B 91 01 01  ).K....J....K...
0A50: 4A 4B 91 01 01 F0 FF FF  7F 6F 76 F0 FF FF 7F 6F  JK.......ov....o
0A60: 76 4B 91 01 01 45 06 80  F8 FF FF 7F F8 FF FF 7F  vK...E..........
0A70: 73 30 35 32 00 80 45 01  80 F8 FF FF 7F F8 FF FF  s052..E.........
0A80: 7F 66 64 69 31 00 80 2B  4B 91 01 01 35 80 23 7B  .fdi1..+K...5.#{
0A90: 4B 91 01 01 29 08 4B 91  01 01 07 2B 4B 91 01 01  K...).K....+K...
0AA0: 36 80 23 29 08 4B 91 01  01 08 52 06 80 F8 FF FF  6.#).K....R.....
0AB0: 7F F8 FF FF 7F 73 30 35  32 45 01 80 F0 FF FF 7F  .....s052E......
0AC0: F0 FF FF 7F 6F 76 6C 31  00 80 45 06 80 F8 FF FF  ....ovl1..E.....
0AD0: 7F F8 FF FF 7F 73 30 35  36 00 80 4B 4B 91 01 01  .....s056..KK...
0AE0: 37 80 6F 76 4B 91 01 01  29 08 4B 91 01 01 27 2B  7.ovK...).K...'+
0AF0: 4B 91 01 01 38 80 23 29  08 4B 91 01 01 28 52 06  K...8.#).K...(R.
0B00: 80 F8 FF FF 7F F8 FF FF  7F 73 30 35 36 45 01 80  .........s056E..
0B10: F0 FF FF 7F F0 FF FF 7F  6F 76 6C 31 00 80 45 06  ........ovl1..E.
0B20: 80 F8 FF FF 7F F8 FF FF  7F 73 30 35 34 00 80 2B  .........s054..+
0B30: 4B 91 01 01 39 80 23 2B  4B 91 01 01 3A 80 23 45  K...9.#+K...:.#E
0B40: 01 80 F8 FF FF 7F F8 FF  FF 7F 66 64 6F 31 00 80  ..........fdo1..
0B50: 1C 0E 80 4A 4B 91 01 01  F0 FF FF 7F 6F 76 4B 91  ...JK.......ovK.
0B60: 01 01 29 08 4B 91 01 01  29 29 08 4B 91 01 01 2A  ..).K...)).K...*
0B70: 29 08 4B 91 01 01 01 29  08 4B 91 01 01 02 52 06  ).K....).K....R.
0B80: 80 F8 FF FF 7F F8 FF FF  7F 73 30 35 34 45 06 80  .........s054E..
0B90: F8 FF FF 7F F8 FF FF 7F  73 30 35 35 00 80 45 01  ........s055..E.
0BA0: 80 F8 FF FF 7F F8 FF FF  7F 66 64 69 31 00 80 2B  .........fdi1..+
0BB0: 4B 91 01 01 3B 80 23 45  01 80 F8 FF FF 7F F8 FF  K...;.#E........
0BC0: FF 7F 66 64 6F 31 00 80  1C 0E 80 52 06 80 F8 FF  ..fdo1.....R....
0BD0: FF 7F F8 FF FF 7F 73 30  35 35 4E 01 4B 91 01 01  ......s055N.K...
0BE0: 4E 01 F0 FF FF 7F 4E 00  4D 91 01 01 4E 00 4E 91  N.....N.M...N.N.
0BF0: 01 01 80 4D 91 01 01 80  4E 91 01 01 29 0B 4D 91  ...M....N...).M.
0C00: 01 01 8F 29 0B 4E 91 01  01 12 29 0B 4F 91 01 01  ...).N....).O...
0C10: 02 29 08 4E 91 01 01 0D  29 08 4E 91 01 01 0E 4A  .).N....).N....J
0C20: 4D 91 01 01 4E 91 01 01  6F 76 4D 91 01 01 77 3C  M...N...ovM...w<
0C30: 80 3D 80 1C 0E 80 5C 00  3E 80 5C 01 3E 80 1C 0C  .=....\.>.\.>...
0C40: 80 45 06 80 F8 FF FF 7F  F8 FF FF 7F 73 30 37 30  .E..........s070
0C50: 00 80 45 01 80 F8 FF FF  7F F8 FF FF 7F 66 64 69  ..E..........fdi
0C60: 31 00 80 1C 3F 80 1D 40  80 23 29 08 4E 91 01 01  1...?..@.#).N...
0C70: 0F 29 08 4E 91 01 01 10  4A 4E 91 01 01 4D 91 01  .).N....JN...M..
0C80: 01 1C 41 80 27 0B 4D 91  01 01 90 1C 33 80 52 06  ..A.'.M.....3.R.
0C90: 80 F8 FF FF 7F F8 FF FF  7F 73 30 37 30 45 06 80  .........s070E..
0CA0: F8 FF FF 7F F8 FF FF 7F  73 30 37 31 00 80 6F 76  ........s071..ov
0CB0: 4E 91 01 01 2B 4D 91 01  01 42 80 23 2A 0B 4D 91  N...+M...B.#*.M.
0CC0: 01 01 29 08 4D 91 01 01  23 2B 4D 91 01 01 43 80  ..).M...#+M...C.
0CD0: 23 29 08 4D 91 01 01 24  2B 4E 91 01 01 44 80 23  #).M...$+N...D.#
0CE0: 52 06 80 F8 FF FF 7F F8  FF FF 7F 73 30 37 31 45  R..........s071E
0CF0: 06 80 F8 FF FF 7F F8 FF  FF 7F 73 30 37 32 00 80  ..........s072..
0D00: 29 08 4D 91 01 01 25 29  08 4D 91 01 01 26 27 0B  ).M...%).M...&'.
0D10: 4D 91 01 01 91 2B 4D 91  01 01 45 80 23 2A 0B 4D  M....+M...E.#*.M
0D20: 91 01 01 29 08 4D 91 01  01 1F 2B 4D 91 01 01 46  ...).M....+M...F
0D30: 80 23 29 08 4D 91 01 01  20 52 06 80 F8 FF FF 7F  .#).M... R......
0D40: F8 FF FF 7F 73 30 37 32  45 06 80 F8 FF FF 7F F8  ....s072E.......
0D50: FF FF 7F 73 30 37 33 00  80 29 08 4D 91 01 01 21  ...s073..).M...!
0D60: 29 08 4D 91 01 01 22 29  08 4D 91 01 01 0B 2B 4D  ).M...").M....+M
0D70: 91 01 01 47 80 23 29 08  4D 91 01 01 0C 29 08 4D  ...G.#).M....).M
0D80: 91 01 01 0D 2B 4D 91 01  01 48 80 23 29 08 4D 91  ....+M...H.#).M.
0D90: 01 01 0E 52 06 80 F8 FF  FF 7F F8 FF FF 7F 73 30  ...R..........s0
0DA0: 37 33 45 06 80 F8 FF FF  7F F8 FF FF 7F 73 30 37  73E..........s07
0DB0: 34 00 80 29 08 4D 91 01  01 27 2B 4D 91 01 01 49  4..).M...'+M...I
0DC0: 80 23 29 08 4D 91 01 01  28 29 08 4D 91 01 01 35  .#).M...().M...5
0DD0: 2B 4D 91 01 01 4A 80 23  29 08 4D 91 01 01 36 7C  +M...J.#).M...6|
0DE0: 00 4E 91 01 01 2B 4E 91  01 01 4B 80 23 7C 01 4E  .N...+N...K.#|.N
0DF0: 91 01 01 52 06 80 F8 FF  FF 7F F8 FF FF 7F 73 30  ...R..........s0
0E00: 37 34 45 06 80 F8 FF FF  7F F8 FF FF 7F 73 30 37  74E..........s07
0E10: 35 00 80 7B 4D 91 01 01  29 08 4D 91 01 01 25 29  5..{M...).M...%)
0E20: 08 4D 91 01 01 26 27 0B  4D 91 01 01 92 2B 4D 91  .M...&'.M....+M.
0E30: 01 01 4C 80 23 2A 0B 4D  91 01 01 4A 4E 91 01 01  ..L.#*.M...JN...
0E40: 4D 91 01 01 52 06 80 F8  FF FF 7F F8 FF FF 7F 73  M...R..........s
0E50: 30 37 35 29 08 4D 91 01  01 17 2B 4D 91 01 01 4D  075).M....+M...M
0E60: 80 23 79 00 4D 91 01 01  4E 91 01 01 29 08 4D 91  .#y.M...N...).M.
0E70: 01 01 18 45 01 80 F0 FF  FF 7F F0 FF FF 7F 6F 76  ...E..........ov
0E80: 6C 31 00 80 45 06 80 F8  FF FF 7F F8 FF FF 7F 73  l1..E..........s
0E90: 30 37 36 00 80 7B 4D 91  01 01 29 08 4D 91 01 01  076..{M...).M...
0EA0: 19 29 08 4D 91 01 01 1A  27 0B 4D 91 01 01 93 27  .).M....'.M....'
0EB0: 0B 4E 91 01 01 13 2B 4D  91 01 01 4E 80 23 2A 0B  .N....+M...N.#*.
0EC0: 4D 91 01 01 2A 0B 4E 91  01 01 52 06 80 F8 FF FF  M...*.N...R.....
0ED0: 7F F8 FF FF 7F 73 30 37  36 45 01 80 F0 FF FF 7F  .....s076E......
0EE0: F0 FF FF 7F 6F 76 6C 31  00 80 45 06 80 F8 FF FF  ....ovl1..E.....
0EF0: 7F F8 FF FF 7F 73 30 37  38 00 80 1C 4F 80 27 0B  .....s078...O.'.
0F00: 4D 91 01 01 94 2B 4D 91  01 01 50 80 23 2A 0B 4D  M....+M...P.#*.M
0F10: 91 01 01 52 06 80 F8 FF  FF 7F F8 FF FF 7F 73 30  ...R..........s0
0F20: 37 38 45 01 80 F0 FF FF  7F F0 FF FF 7F 6F 76 6C  78E..........ovl
0F30: 31 00 80 45 06 80 F8 FF  FF 7F F8 FF FF 7F 73 30  1..E..........s0
0F40: 37 37 00 80 29 0B 4E 91  01 01 14 29 0B 4D 91 01  77..).N....).M..
0F50: 01 95 1C 4F 80 2B 4D 91  01 01 51 80 23 52 06 80  ...O.+M...Q.#R..
0F60: F8 FF FF 7F F8 FF FF 7F  73 30 37 37 45 01 80 F0  ........s077E...
0F70: FF FF 7F F0 FF FF 7F 6F  76 6C 31 00 80 45 06 80  .......ovl1..E..
0F80: F8 FF FF 7F F8 FF FF 7F  73 30 37 39 00 80 4A 4D  ........s079..JM
0F90: 91 01 01 4E 91 01 01 6F  76 4D 91 01 01 29 08 4D  ...N...ovM...).M
0FA0: 91 01 01 7B 2B 4D 91 01  01 52 80 23 29 08 4D 91  ...{+M...R.#).M.
0FB0: 01 01 7C 52 06 80 F8 FF  FF 7F F8 FF FF 7F 73 30  ..|R..........s0
0FC0: 37 39 45 01 80 F0 FF FF  7F F0 FF FF 7F 6F 76 6C  79E..........ovl
0FD0: 31 00 80 45 06 80 F8 FF  FF 7F F8 FF FF 7F 73 30  1..E..........s0
0FE0: 38 30 00 80 29 08 4D 91  01 01 7D 2B 4D 91 01 01  80..).M...}+M...
0FF0: 53 80 23 2B 4D 91 01 01  54 80 23 29 08 4D 91 01  S.#+M...T.#).M..
1000: 01 7E 7B 4E 91 01 01 27  0B 4D 91 01 01 97 1C 0E  .~{N...'.M......
1010: 80 52 06 80 F8 FF FF 7F  F8 FF FF 7F 73 30 38 30  .R..........s080
1020: 45 06 80 F8 FF FF 7F F8  FF FF 7F 73 30 38 31 00  E..........s081.
1030: 80 2B 4D 91 01 01 55 80  23 2A 0B 4D 91 01 01 7B  .+M...U.#*.M...{
1040: 4D 91 01 01 4B 4D 91 01  01 56 80 6F 76 4D 91 01  M...KM...V.ovM..
1050: 01 29 08 4D 91 01 01 23  2B 4D 91 01 01 57 80 23  .).M...#+M...W.#
1060: 29 08 4D 91 01 01 24 52  06 80 F8 FF FF 7F F8 FF  ).M...$R........
1070: FF 7F 73 30 38 31 5D 00  80 3F 80 45 06 80 F8 FF  ..s081]..?.E....
1080: FF 7F F8 FF FF 7F 73 30  38 32 00 80 79 00 4E 91  ......s082..y.N.
1090: 01 01 4D 91 01 01 79 00  4D 91 01 01 4E 91 01 01  ..M...y.M...N...
10A0: 29 08 4D 91 01 01 37 2B  4D 91 01 01 58 80 23 29  ).M...7+M...X.#)
10B0: 08 4D 91 01 01 38 29 08  4D 91 01 01 29 2B 4D 91  .M...8).M...)+M.
10C0: 01 01 59 80 23 29 08 4D  91 01 01 2A 52 06 80 F8  ..Y.#).M...*R...
10D0: FF FF 7F F8 FF FF 7F 73  30 38 32 45 06 80 F8 FF  .......s082E....
10E0: FF 7F F8 FF FF 7F 73 30  38 33 00 80 27 0B 4D 91  ......s083..'.M.
10F0: 01 01 99 4A 4E 91 01 01  4D 91 01 01 1C 0C 80 2A  ...JN...M......*
1100: 0B 4D 91 01 01 29 08 4D  91 01 01 17 29 08 4D 91  .M...).M....).M.
1110: 01 01 18 5C 00 03 80 5C  01 03 80 6F 76 4E 91 01  ...\...\...ovN..
1120: 01 7C 00 4E 91 01 01 52  06 80 F8 FF FF 7F F8 FF  .|.N...R........
1130: FF 7F 73 30 38 33 45 01  80 F0 FF FF 7F F0 FF FF  ..s083E.........
1140: 7F 6F 76 6C 31 00 80 45  06 80 F8 FF FF 7F F8 FF  .ovl1..E........
1150: FF 7F 73 31 33 37 00 80  27 0B 4E 91 01 01 15 2A  ..s137..'.N....*
1160: 0B 4E 91 01 01 7C 01 4E  91 01 01 45 01 80 F8 FF  .N...|.N...E....
1170: FF 7F F8 FF FF 7F 66 64  6F 31 00 80 1C 0E 80 52  ......fdo1.....R
1180: 06 80 F8 FF FF 7F F8 FF  FF 7F 73 31 33 37 45 06  ..........s137E.
1190: 80 F8 FF FF 7F F8 FF FF  7F 73 30 38 34 00 80 45  .........s084..E
11A0: 01 80 F8 FF FF 7F F8 FF  FF 7F 66 64 69 31 00 80  ..........fdi1..
11B0: 1C 0E 80 29 08 4E 91 01  01 01 29 08 4E 91 01 01  ...).N....).N...
11C0: 02 7B 4E 91 01 01 1C 3F  80 52 06 80 F8 FF FF 7F  .{N....?.R......
11D0: F8 FF FF 7F 73 30 38 34  45 01 80 F0 FF FF 7F F0  ....s084E.......
11E0: FF FF 7F 6F 76 6C 31 00  80 45 06 80 F8 FF FF 7F  ...ovl1..E......
11F0: F8 FF FF 7F 73 30 38 35  00 80 1C 3F 80 52 06 80  ....s085...?.R..
1200: F8 FF FF 7F F8 FF FF 7F  73 30 38 35 45 01 80 F0  ........s085E...
1210: FF FF 7F F0 FF FF 7F 6F  76 6C 31 00 80 45 06 80  .......ovl1..E..
1220: F8 FF FF 7F F8 FF FF 7F  73 30 38 36 00 80 1C 3F  ........s086...?
1230: 80 52 06 80 F8 FF FF 7F  F8 FF FF 7F 73 30 38 36  .R..........s086
1240: 45 01 80 F0 FF FF 7F F0  FF FF 7F 6F 76 6C 31 00  E..........ovl1.
1250: 80 45 06 80 F8 FF FF 7F  F8 FF FF 7F 73 30 38 38  .E..........s088
1260: 00 80 4E 00 4F 91 01 01  80 4F 91 01 01 55 06 80  ..N.O....O...U..
1270: F8 FF FF 7F F8 FF FF 7F  73 30 38 38 5D 00 80 0C  ........s088]...
1280: 80 29 08 4D 91 01 01 19  29 08 4E 91 01 01 03 1D  .).M....).N.....
1290: 5A 80 23 29 08 4D 91 01  01 1A 4A 4D 91 01 01 4A  Z.#).M....JM...J
12A0: 91 01 01 29 08 4E 91 01  01 04 79 00 4F 91 01 01  ...).N....y.O...
12B0: 4D 91 01 01 27 0B 4F 91  01 01 03 37 5B 80 5C 80  M...'.O....7[.\.
12C0: 5D 80 5E 80 4A 4E 91 01  01 4F 91 01 01 6F 76 4D  ].^.JN...O...ovM
12D0: 91 01 01 45 06 80 F8 FF  FF 7F F8 FF FF 7F 73 30  ...E..........s0
12E0: 38 39 00 80 79 00 4D 91  01 01 4F 91 01 01 27 0B  89..y.M...O...'.
12F0: 4D 91 01 01 9A 2B 4D 91  01 01 5F 80 23 2A 0B 4F  M....+M..._.#*.O
1300: 91 01 01 6F 76 4E 91 01  01 2A 0B 4D 91 01 01 52  ...ovN...*.M...R
1310: 06 80 F8 FF FF 7F F8 FF  FF 7F 73 30 38 39 45 06  ..........s089E.
1320: 80 F8 FF FF 7F F8 FF FF  7F 73 30 39 30 00 80 4E  .........s090..N
1330: 01 4F 91 01 01 27 0B 4E  91 01 01 16 27 0B 4D 91  .O...'.N....'.M.
1340: 01 01 9B 1C 0C 80 52 06  80 F8 FF FF 7F F8 FF FF  ......R.........
1350: 7F 73 30 39 30 45 01 80  F0 FF FF 7F F0 FF FF 7F  .s090E..........
1360: 6F 76 6C 31 00 80 45 06  80 F8 FF FF 7F F8 FF FF  ovl1..E.........
1370: 7F 73 30 39 31 00 80 2A  0B 4D 91 01 01 4A 4D 91  .s091..*.M...JM.
1380: 01 01 4E 91 01 01 6F 76  4D 91 01 01 29 08 4D 91  ..N...ovM...).M.
1390: 01 01 83 2B 4D 91 01 01  60 80 23 29 08 4D 91 01  ...+M...`.#).M..
13A0: 01 84 2A 0B 4E 91 01 01  52 06 80 F8 FF FF 7F F8  ..*.N...R.......
13B0: FF FF 7F 73 30 39 31 45  06 80 F8 FF FF 7F F8 FF  ...s091E........
13C0: FF 7F 73 30 38 37 00 80  27 0B 4D 91 01 01 9C 1C  ..s087..'.M.....
13D0: 61 80 45 01 80 F8 FF FF  7F F8 FF FF 7F 66 64 6F  a.E..........fdo
13E0: 31 00 80 1C 0E 80 2A 0B  4D 91 01 01 52 06 80 F8  1.....*.M...R...
13F0: FF FF 7F F8 FF FF 7F 73  30 38 37 4E 01 4D 91 01  .......s087N.M..
1400: 01 4E 01 4E 91 01 01 4E  00 4B 91 01 01 4E 00 F0  .N.N...N.K...N..
1410: FF FF 7F 80 F0 FF FF 7F  80 4B 91 01 01 4B 4B 91  .........K...KK.
1420: 01 01 37 80 6F 76 4B 91  01 01 29 08 4B 91 01 01  ..7.ovK...).K...
1430: 05 29 08 4B 91 01 01 06  78 1C 0E 80 5C 00 62 80  .).K....x...\.b.
1440: 5C 01 62 80 1C 0C 80 45  06 80 F8 FF FF 7F F8 FF  \.b....E........
1450: FF 7F 73 30 35 37 00 80  45 01 80 F8 FF FF 7F F8  ..s057..E.......
1460: FF FF 7F 66 64 69 31 00  80 2B 4B 91 01 01 63 80  ...fdi1..+K...c.
1470: 23 52 06 80 F8 FF FF 7F  F8 FF FF 7F 73 30 35 37  #R..........s057
1480: 02 09 10 1F 80 00 9C 14  45 06 80 F8 FF FF 7F F8  ........E.......
1490: FF FF 7F 73 30 36 38 00  80 01 C9 14 02 09 10 2F  ...s068......../
14A0: 80 00 B8 14 45 06 80 F8  FF FF 7F F8 FF FF 7F 73  ....E..........s
14B0: 30 36 38 00 80 01 C9 14  45 06 80 F8 FF FF 7F F8  068.....E.......
14C0: FF FF 7F 73 30 35 38 00  80 29 08 4B 91 01 01 07  ...s058..).K....
14D0: 2B 4B 91 01 01 64 80 23  29 08 4B 91 01 01 08 29  +K...d.#).K....)
14E0: 08 4B 91 01 01 2B 2B 4B  91 01 01 65 80 23 29 08  .K...++K...e.#).
14F0: 4B 91 01 01 2C 02 09 10  1F 80 00 0F 15 52 06 80  K...,........R..
1500: F8 FF FF 7F F8 FF FF 7F  73 30 36 38 01 38 15 02  ........s068.8..
1510: 09 10 2F 80 00 29 15 52  06 80 F8 FF FF 7F F8 FF  ../..).R........
1520: FF 7F 73 30 36 38 01 38  15 52 06 80 F8 FF FF 7F  ..s068.8.R......
1530: F8 FF FF 7F 73 30 35 38  02 09 10 66 80 00 54 15  ....s058...f..T.
1540: 45 06 80 F8 FF FF 7F F8  FF FF 7F 73 30 36 39 00  E..........s069.
1550: 80 01 81 15 02 09 10 67  80 00 70 15 45 06 80 F8  .......g..p.E...
1560: FF FF 7F F8 FF FF 7F 73  30 36 39 00 80 01 81 15  .......s069.....
1570: 45 06 80 F8 FF FF 7F F8  FF FF 7F 73 30 35 39 00  E..........s059.
1580: 80 29 08 4B 91 01 01 2D  29 08 4B 91 01 01 2E 4A  .).K...-).K....J
1590: 4B 91 01 01 F0 FF FF 7F  6F 76 4B 91 01 01 7B 4B  K.......ovK...{K
15A0: 91 01 01 2B 4B 91 01 01  68 80 23 02 09 10 66 80  ...+K...h.#...f.
15B0: 00 C5 15 52 06 80 F8 FF  FF 7F F8 FF FF 7F 73 30  ...R..........s0
15C0: 36 39 01 EE 15 02 09 10  67 80 00 DF 15 52 06 80  69......g....R..
15D0: F8 FF FF 7F F8 FF FF 7F  73 30 36 39 01 EE 15 52  ........s069...R
15E0: 06 80 F8 FF FF 7F F8 FF  FF 7F 73 30 35 39 45 06  ..........s059E.
15F0: 80 F8 FF FF 7F F8 FF FF  7F 73 30 36 30 00 80 29  .........s060..)
1600: 08 4B 91 01 01 09 2B 4B  91 01 01 69 80 23 29 08  .K....+K...i.#).
1610: 4B 91 01 01 0A 29 08 4B  91 01 01 0F 2B 4B 91 01  K....).K....+K..
1620: 01 6A 80 23 29 08 4B 91  01 01 10 52 06 80 F8 FF  .j.#).K....R....
1630: FF 7F F8 FF FF 7F 73 30  36 30 45 06 80 F8 FF FF  ......s060E.....
1640: 7F F8 FF FF 7F 73 30 36  31 00 80 29 08 4B 91 01  .....s061..).K..
1650: 01 03 29 08 4B 91 01 01  04 79 00 F0 FF FF 7F 4B  ..).K....y.....K
1660: 91 01 01 27 0B 4B 91 01  01 4C 2B 4B 91 01 01 6B  ...'.K...L+K...k
1670: 80 23 2A 0B 4B 91 01 01  4A F0 FF FF 7F 4B 91 01  .#*.K...J....K..
1680: 01 52 06 80 F8 FF FF 7F  F8 FF FF 7F 73 30 36 31  .R..........s061
1690: 45 06 80 F8 FF FF 7F F8  FF FF 7F 73 30 36 32 00  E..........s062.
16A0: 80 29 08 4B 91 01 01 05  2B 4B 91 01 01 6C 80 23  .).K....+K...l.#
16B0: 29 08 4B 91 01 01 06 45  01 80 F8 FF FF 7F F8 FF  ).K....E........
16C0: FF 7F 66 64 6F 31 00 80  1C 6D 80 52 06 80 F8 FF  ..fdo1...m.R....
16D0: FF 7F F8 FF FF 7F 73 30  36 32 5D 00 80 01 80 45  ......s062]....E
16E0: 06 80 F8 FF FF 7F F8 FF  FF 7F 73 30 36 33 00 80  ..........s063..
16F0: 45 01 80 F8 FF FF 7F F8  FF FF 7F 66 64 69 31 00  E..........fdi1.
1700: 80 7B 4B 91 01 01 29 08  4B 91 01 01 11 1C 0C 80  .{K...).K.......
1710: 2B 4B 91 01 01 6E 80 23  29 08 4B 91 01 01 12 52  +K...n.#).K....R
1720: 06 80 F8 FF FF 7F F8 FF  FF 7F 73 30 36 33 45 01  ..........s063E.
1730: 80 F0 FF FF 7F F0 FF FF  7F 6F 76 6C 31 00 80 45  .........ovl1..E
1740: 06 80 F8 FF FF 7F F8 FF  FF 7F 73 30 36 34 00 80  ..........s064..
1750: 2B 4B 91 01 01 6F 80 23  29 08 4B 91 01 01 03 29  +K...o.#).K....)
1760: 08 4B 91 01 01 04 29 08  4B 91 01 01 2B 2B 4B 91  .K....).K...++K.
1770: 01 01 70 80 23 29 08 4B  91 01 01 2C 52 06 80 F8  ..p.#).K...,R...
1780: FF FF 7F F8 FF FF 7F 73  30 36 34 45 06 80 F8 FF  .......s064E....
1790: FF 7F F8 FF FF 7F 73 30  36 35 00 80 29 08 4B 91  ......s065..).K.
17A0: 01 01 2D 45 06 80 F8 FF  FF 7F F8 FF FF 7F 73 65  ..-E..........se
17B0: 31 32 00 80 9F 71 80 F8  FF FF 7F F8 FF FF 7F 73  12...q.........s
17C0: 74 72 30 00 80 33 01 37  72 80 73 80 74 80 75 80  tr0..3.7r.s.t.u.
17D0: 33 01 79 00 4B 91 01 01  4A 91 01 01 1C 0E 80 2B  3.y.K...J......+
17E0: 4B 91 01 01 76 80 23 1C  6D 80 4B 4B 91 01 01 77  K...v.#.m.KK...w
17F0: 80 29 08 4B 91 01 01 2E  52 06 80 F8 FF FF 7F F8  .).K....R.......
1800: FF FF 7F 73 30 36 35 45  01 80 F0 FF FF 7F F0 FF  ...s065E........
1810: FF 7F 6F 76 6C 31 00 80  45 06 80 F8 FF FF 7F F8  ..ovl1..E.......
1820: FF FF 7F 73 30 36 36 00  80 6F 76 4B 91 01 01 2B  ...s066..ovK...+
1830: 4B 91 01 01 78 80 23 52  06 80 F8 FF FF 7F F8 FF  K...x.#R........
1840: FF 7F 73 30 36 36 45 06  80 F8 FF FF 7F F8 FF FF  ..s066E.........
1850: 7F 73 30 36 37 00 80 22  01 4A 4B 91 01 01 F0 FF  .s067..".JK.....
1860: FF 7F 6F 76 4B 91 01 01  29 08 4B 91 01 01 09 2B  ..ovK...).K....+
1870: 4B 91 01 01 79 80 23 29  08 4B 91 01 01 0A 29 08  K...y.#).K....).
1880: 4B 91 01 01 0F 2B 4B 91  01 01 7A 80 23 29 08 4B  K....+K...z.#).K
1890: 91 01 01 10 45 01 80 F0  FF FF 7F F0 FF FF 7F 66  ....E..........f
18A0: 64 6F 31 00 80 1C 0E 80  52 06 80 F8 FF FF 7F F8  do1.....R.......
18B0: FF FF 7F 73 30 36 37 4E  00 F0 FF FF 7F 80 F0 FF  ...s067N........
18C0: FF 7F 5C 00 32 80 5C 01  32 80 1C 0C 80 46 00 45  ..\.2.\.2....F.E
18D0: 01 80 F0 FF FF 7F F0 FF  FF 7F 66 64 69 31 00 80  ..........fdi1..
18E0: 20 00 21 00                                        .!.            
```

#### Opcodes

```
  0: 0x08C6 [0x20] SET_CLI_EVENT_UC_FLAG: Lock player control
  1: 0x08C8 [0x42] SET_CLI_EVENT_CANCEL_DATA()
  2: 0x08C9 [0x46] CAMERA_CONTROL: Disable user control
  3: 0x08CB [0x29] REQ_SET_WAIT(priority=0x0B, entity_id=Dilapidated Gate (ID: 16879936/0x01019140), tag_num=0x02)
  4: 0x08D2 [0x45] LOAD_SCHEDULED_TASK: Load scheduler "fdo1" with entities [EventEntity, EventEntity], work=[200*, 0*]
  5: 0x08E3 [0x1C] WAIT(60* ticks)
  6: 0x08E6 [0x38] SET_CLIENT_EVENT_MODE(mode=19*)
  7: 0x08E9 [0x29] REQ_SET_WAIT(priority=0x08, entity_id=LocalPlayer, tag_num=0x04)
  8: 0x08F0 [0x1C] WAIT(60* ticks)
  9: 0x08F3 [0x5C] MUSIC_CONTROL: Set Idle (Day) music to song 235*
 10: 0x08F7 [0x5C] MUSIC_CONTROL: Set Idle (Night) music to song 235*
 11: 0x08FB [0x1C] WAIT(200* ticks)
 12: 0x08FE [0x4E] SET_ENTITY_HIDE_FLAG: Hide Mildaurion (ID: 16879951/0x0101914F)
 13: 0x0904 [0x4E] SET_ENTITY_HIDE_FLAG: Show Ulmia (ID: 16879947/0x0101914B)
 14: 0x090A [0x80] LOAD_WAIT(entity=Ulmia (ID: 16879947/0x0101914B))
 15: 0x090F [0x29] REQ_SET_WAIT(priority=0x0B, entity_id=Dilapidated Gate (ID: 16879936/0x01019140), tag_num=0x03)
 16: 0x0916 [0x29] REQ_SET_WAIT(priority=0x0B, entity_id=Ulmia (ID: 16879947/0x0101914B), tag_num=0x4A)
 17: 0x091D [0x29] REQ_SET_WAIT(priority=0x0B, entity_id=LocalPlayer, tag_num=0x19)
 18: 0x0924 [0x2C] CREATE_SCHEDULER_TASK: Create scheduler "won2" with entities [Ulmia (ID: 16879947/0x0101914B), Ulmia (ID: 16879947/0x0101914B)]
 19: 0x0931 [0x29] REQ_SET_WAIT(priority=0x08, entity_id=Ulmia (ID: 16879947/0x0101914B), tag_num=0x23)
 20: 0x0938 [0x29] REQ_SET_WAIT(priority=0x08, entity_id=Ulmia (ID: 16879947/0x0101914B), tag_num=0x24)
 21: 0x093F [0x27] REQ_SET(priority=0x0B, entity_id=LocalPlayer, tag_num=0x1A)
 22: 0x0946 [0x1C] WAIT(10* ticks)
 23: 0x0949 [0x45] LOAD_SCHEDULED_TASK: Load scheduler "s050" with entities [EventEntity, EventEntity], work=[118*, 0*]
 24: 0x095A [0x45] LOAD_SCHEDULED_TASK: Load scheduler "fdi1" with entities [EventEntity, EventEntity], work=[200*, 0*]
 25: 0x096B [0x1C] WAIT(200* ticks)
 26: 0x096E [0x52] END_LOAD_SCHEDULER: End scheduler "s050" with entities [EventEntity, EventEntity], work=118*
 27: 0x097D [0x45] LOAD_SCHEDULED_TASK: Load scheduler "ovl1" with entities [LocalPlayer, LocalPlayer], work=[200*, 0*]
 28: 0x098E [0x45] LOAD_SCHEDULED_TASK: Load scheduler "s051" with entities [EventEntity, EventEntity], work=[118*, 0*]
 29: 0x099F [0x5D] SET_MUSIC_VOLUME(volume=0*, fade_time=100*)
 30: 0x09A4 [0x29] REQ_SET_WAIT(priority=0x08, entity_id=Ulmia (ID: 16879947/0x0101914B), tag_num=0x25)
 31: 0x09AB [0x1C] WAIT(100* ticks)
 32: 0x09AE [0x52] END_LOAD_SCHEDULER: End scheduler "s051" with entities [EventEntity, EventEntity], work=118*
 33: 0x09BD [0x45] LOAD_SCHEDULED_TASK: Load scheduler "ovl1" with entities [LocalPlayer, LocalPlayer], work=[200*, 0*]
 34: 0x09CE [0x45] LOAD_SCHEDULED_TASK: Load scheduler "s053" with entities [EventEntity, EventEntity], work=[118*, 0*]
 35: 0x09DF [0x2B] Ulmia (ID: 16879947/0x0101914B) [7414*]:
    → "<Player>? You were looking for me?"
 36: 0x09E6 [0x23] WAIT_FOR_DIALOG_INTERACTION
 37: 0x09E7 [0x29] REQ_SET_WAIT(priority=0x08, entity_id=Ulmia (ID: 16879947/0x0101914B), tag_num=0x26)
 38: 0x09EE [0x45] LOAD_SCHEDULED_TASK: Load scheduler "fdo1" with entities [EventEntity, EventEntity], work=[200*, 0*]
 39: 0x09FF [0x1C] WAIT(60* ticks)
 40: 0x0A02 [0x52] END_LOAD_SCHEDULER: End scheduler "s053" with entities [EventEntity, EventEntity], work=118*
 41: 0x0A11 [0x2A] GET_REQ_LEVEL(level=11, entity_id=LocalPlayer)
 42: 0x0A17 [0x29] REQ_SET_WAIT(priority=0x08, entity_id=Ulmia (ID: 16879947/0x0101914B), tag_num=0x41)
 43: 0x0A1E [0x2C] CREATE_SCHEDULER_TASK: Create scheduler "wof2" with entities [Ulmia (ID: 16879947/0x0101914B), Ulmia (ID: 16879947/0x0101914B)]
 44: 0x0A2B [0x29] REQ_SET_WAIT(priority=0x0B, entity_id=LocalPlayer, tag_num=0x1B)
 45: 0x0A32 [0x29] REQ_SET_WAIT(priority=0x0B, entity_id=Ulmia (ID: 16879947/0x0101914B), tag_num=0x4B)
 46: 0x0A39 [0x29] REQ_SET_WAIT(priority=0x08, entity_id=Ulmia (ID: 16879947/0x0101914B), tag_num=0x05)
 47: 0x0A40 [0x29] REQ_SET_WAIT(priority=0x08, entity_id=Ulmia (ID: 16879947/0x0101914B), tag_num=0x06)
 48: 0x0A47 [0x4A] LocalPlayer looks at Ulmia (ID: 16879947/0x0101914B)
 49: 0x0A50 [0x4A] Ulmia (ID: 16879947/0x0101914B) looks at LocalPlayer
 50: 0x0A59 [0x6F] WAIT_FRAME_DELAY: Yield until WaitTime reaches zero
 51: 0x0A5A [0x76] CHECK_ENTITY_RENDER_FLAGS: Wait until LocalPlayer Render.Flags0 and Render.Flags3 conditions are met
 52: 0x0A5F [0x6F] WAIT_FRAME_DELAY: Yield until WaitTime reaches zero
 53: 0x0A60 [0x76] CHECK_ENTITY_RENDER_FLAGS: Wait until Ulmia (ID: 16879947/0x0101914B) Render.Flags0 and Render.Flags3 conditions are met
 54: 0x0A65 [0x45] LOAD_SCHEDULED_TASK: Load scheduler "s052" with entities [EventEntity, EventEntity], work=[118*, 0*]
 55: 0x0A76 [0x45] LOAD_SCHEDULED_TASK: Load scheduler "fdi1" with entities [EventEntity, EventEntity], work=[200*, 0*]
 56: 0x0A87 [0x2B] Ulmia (ID: 16879947/0x0101914B) [7415*]:
    → "Forgive me; I knew not what to do."
 57: 0x0A8E [0x23] WAIT_FOR_DIALOG_INTERACTION
 58: 0x0A8F [0x7B] Ulmia (ID: 16879947/0x0101914B) stops talking
 59: 0x0A94 [0x29] REQ_SET_WAIT(priority=0x08, entity_id=Ulmia (ID: 16879947/0x0101914B), tag_num=0x07)
 60: 0x0A9B [0x2B] Ulmia (ID: 16879947/0x0101914B) [7416*]:
    → "In times such as this, I come here to sing."
 61: 0x0AA2 [0x23] WAIT_FOR_DIALOG_INTERACTION
 62: 0x0AA3 [0x29] REQ_SET_WAIT(priority=0x08, entity_id=Ulmia (ID: 16879947/0x0101914B), tag_num=0x08)
 63: 0x0AAA [0x52] END_LOAD_SCHEDULER: End scheduler "s052" with entities [EventEntity, EventEntity], work=118*
 64: 0x0AB9 [0x45] LOAD_SCHEDULED_TASK: Load scheduler "ovl1" with entities [LocalPlayer, LocalPlayer], work=[200*, 0*]
 65: 0x0ACA [0x45] LOAD_SCHEDULED_TASK: Load scheduler "s056" with entities [EventEntity, EventEntity], work=[118*, 0*]
 66: 0x0ADB [0x4B] UPDATE_ENTITY_YAW(entity=Ulmia (ID: 16879947/0x0101914B), yaw=5.9°*)
 67: 0x0AE2 [0x6F] WAIT_FRAME_DELAY: Yield until WaitTime reaches zero
 68: 0x0AE3 [0x76] CHECK_ENTITY_RENDER_FLAGS: Wait until Ulmia (ID: 16879947/0x0101914B) Render.Flags0 and Render.Flags3 conditions are met
 69: 0x0AE8 [0x29] REQ_SET_WAIT(priority=0x08, entity_id=Ulmia (ID: 16879947/0x0101914B), tag_num=0x27)
 70: 0x0AEF [0x2B] Ulmia (ID: 16879947/0x0101914B) [7417*]:
    → "Listen... This wind can carry your thoughts and dreams."
 71: 0x0AF6 [0x23] WAIT_FOR_DIALOG_INTERACTION
 72: 0x0AF7 [0x29] REQ_SET_WAIT(priority=0x08, entity_id=Ulmia (ID: 16879947/0x0101914B), tag_num=0x28)
 73: 0x0AFE [0x52] END_LOAD_SCHEDULER: End scheduler "s056" with entities [EventEntity, EventEntity], work=118*
 74: 0x0B0D [0x45] LOAD_SCHEDULED_TASK: Load scheduler "ovl1" with entities [LocalPlayer, LocalPlayer], work=[200*, 0*]
 75: 0x0B1E [0x45] LOAD_SCHEDULED_TASK: Load scheduler "s054" with entities [EventEntity, EventEntity], work=[118*, 0*]
 76: 0x0B2F [0x2B] Ulmia (ID: 16879947/0x0101914B) [7418*]:
    → "It will rise up into the boundless sky and soar over the ocean, echoing across the entire world..."
 77: 0x0B36 [0x23] WAIT_FOR_DIALOG_INTERACTION
 78: 0x0B37 [0x2B] Ulmia (ID: 16879947/0x0101914B) [7419*]:
    → "Gentle Altana will hear your supplication and bestow her blessings upon you."
 79: 0x0B3E [0x23] WAIT_FOR_DIALOG_INTERACTION
 80: 0x0B3F [0x45] LOAD_SCHEDULED_TASK: Load scheduler "fdo1" with entities [EventEntity, EventEntity], work=[200*, 0*]
 81: 0x0B50 [0x1C] WAIT(60* ticks)
 82: 0x0B53 [0x4A] Ulmia (ID: 16879947/0x0101914B) looks at LocalPlayer
 83: 0x0B5C [0x6F] WAIT_FRAME_DELAY: Yield until WaitTime reaches zero
 84: 0x0B5D [0x76] CHECK_ENTITY_RENDER_FLAGS: Wait until Ulmia (ID: 16879947/0x0101914B) Render.Flags0 and Render.Flags3 conditions are met
 85: 0x0B62 [0x29] REQ_SET_WAIT(priority=0x08, entity_id=Ulmia (ID: 16879947/0x0101914B), tag_num=0x29)
 86: 0x0B69 [0x29] REQ_SET_WAIT(priority=0x08, entity_id=Ulmia (ID: 16879947/0x0101914B), tag_num=0x2A)
 87: 0x0B70 [0x29] REQ_SET_WAIT(priority=0x08, entity_id=Ulmia (ID: 16879947/0x0101914B), tag_num=0x01)
 88: 0x0B77 [0x29] REQ_SET_WAIT(priority=0x08, entity_id=Ulmia (ID: 16879947/0x0101914B), tag_num=0x02)
 89: 0x0B7E [0x52] END_LOAD_SCHEDULER: End scheduler "s054" with entities [EventEntity, EventEntity], work=118*
 90: 0x0B8D [0x45] LOAD_SCHEDULED_TASK: Load scheduler "s055" with entities [EventEntity, EventEntity], work=[118*, 0*]
 91: 0x0B9E [0x45] LOAD_SCHEDULED_TASK: Load scheduler "fdi1" with entities [EventEntity, EventEntity], work=[200*, 0*]
 92: 0x0BAF [0x2B] Ulmia (ID: 16879947/0x0101914B) [7420*]:
    → "When I was but a young girl, I came here to whisper a prayer to the Goddess. And truly was it answered."
 93: 0x0BB6 [0x23] WAIT_FOR_DIALOG_INTERACTION
 94: 0x0BB7 [0x45] LOAD_SCHEDULED_TASK: Load scheduler "fdo1" with entities [EventEntity, EventEntity], work=[200*, 0*]
 95: 0x0BC8 [0x1C] WAIT(60* ticks)
 96: 0x0BCB [0x52] END_LOAD_SCHEDULER: End scheduler "s055" with entities [EventEntity, EventEntity], work=118*
 97: 0x0BDA [0x4E] SET_ENTITY_HIDE_FLAG: Hide Ulmia (ID: 16879947/0x0101914B)
 98: 0x0BE0 [0x4E] SET_ENTITY_HIDE_FLAG: Hide LocalPlayer
 99: 0x0BE6 [0x4E] SET_ENTITY_HIDE_FLAG: Show Prishe (ID: 16879949/0x0101914D)
100: 0x0BEC [0x4E] SET_ENTITY_HIDE_FLAG: Show Ulmia (ID: 16879950/0x0101914E)
101: 0x0BF2 [0x80] LOAD_WAIT(entity=Prishe (ID: 16879949/0x0101914D))
102: 0x0BF7 [0x80] LOAD_WAIT(entity=Ulmia (ID: 16879950/0x0101914E))
103: 0x0BFC [0x29] REQ_SET_WAIT(priority=0x0B, entity_id=Prishe (ID: 16879949/0x0101914D), tag_num=0x8F)
104: 0x0C03 [0x29] REQ_SET_WAIT(priority=0x0B, entity_id=Ulmia (ID: 16879950/0x0101914E), tag_num=0x12)
105: 0x0C0A [0x29] REQ_SET_WAIT(priority=0x0B, entity_id=Mildaurion (ID: 16879951/0x0101914F), tag_num=0x02)
106: 0x0C11 [0x29] REQ_SET_WAIT(priority=0x08, entity_id=Ulmia (ID: 16879950/0x0101914E), tag_num=0x0D)
107: 0x0C18 [0x29] REQ_SET_WAIT(priority=0x08, entity_id=Ulmia (ID: 16879950/0x0101914E), tag_num=0x0E)
108: 0x0C1F [0x4A] Prishe (ID: 16879949/0x0101914D) looks at Ulmia (ID: 16879950/0x0101914E)
109: 0x0C28 [0x6F] WAIT_FRAME_DELAY: Yield until WaitTime reaches zero
110: 0x0C29 [0x76] CHECK_ENTITY_RENDER_FLAGS: Wait until Prishe (ID: 16879949/0x0101914D) Render.Flags0 and Render.Flags3 conditions are met
111: 0x0C2E [0x77] SET_EVENT_TIME_WEATHER(hour=18*, weather=1*)
112: 0x0C33 [0x1C] WAIT(60* ticks)
113: 0x0C36 [0x5C] MUSIC_CONTROL: Set Idle (Day) music to song 124*
114: 0x0C3A [0x5C] MUSIC_CONTROL: Set Idle (Night) music to song 124*
115: 0x0C3E [0x1C] WAIT(100* ticks)
116: 0x0C41 [0x45] LOAD_SCHEDULED_TASK: Load scheduler "s070" with entities [EventEntity, EventEntity], work=[118*, 0*]
117: 0x0C52 [0x45] LOAD_SCHEDULED_TASK: Load scheduler "fdi1" with entities [EventEntity, EventEntity], work=[200*, 0*]
118: 0x0C63 [0x1C] WAIT(400* ticks)
119: 0x0C66 [0x1D] PRINT_EVENT_MESSAGE(message_id=7421*)
    → "What's the matter with you?"
120: 0x0C69 [0x23] WAIT_FOR_DIALOG_INTERACTION
121: 0x0C6A [0x29] REQ_SET_WAIT(priority=0x08, entity_id=Ulmia (ID: 16879950/0x0101914E), tag_num=0x0F)
122: 0x0C71 [0x29] REQ_SET_WAIT(priority=0x08, entity_id=Ulmia (ID: 16879950/0x0101914E), tag_num=0x10)
123: 0x0C78 [0x4A] Ulmia (ID: 16879950/0x0101914E) looks at Prishe (ID: 16879949/0x0101914D)
124: 0x0C81 [0x1C] WAIT(20* ticks)
125: 0x0C84 [0x27] REQ_SET(priority=0x0B, entity_id=Prishe (ID: 16879949/0x0101914D), tag_num=0x90)
126: 0x0C8B [0x1C] WAIT(10* ticks)
127: 0x0C8E [0x52] END_LOAD_SCHEDULER: End scheduler "s070" with entities [EventEntity, EventEntity], work=118*
128: 0x0C9D [0x45] LOAD_SCHEDULED_TASK: Load scheduler "s071" with entities [EventEntity, EventEntity], work=[118*, 0*]
129: 0x0CAE [0x6F] WAIT_FRAME_DELAY: Yield until WaitTime reaches zero
130: 0x0CAF [0x76] CHECK_ENTITY_RENDER_FLAGS: Wait until Ulmia (ID: 16879950/0x0101914E) Render.Flags0 and Render.Flags3 conditions are met
131: 0x0CB4 [0x2B] Prishe (ID: 16879949/0x0101914D) [7422*]:
    → "What are you so worked up about?"
132: 0x0CBB [0x23] WAIT_FOR_DIALOG_INTERACTION
133: 0x0CBC [0x2A] GET_REQ_LEVEL(level=11, entity_id=Prishe (ID: 16879949/0x0101914D))
134: 0x0CC2 [0x29] REQ_SET_WAIT(priority=0x08, entity_id=Prishe (ID: 16879949/0x0101914D), tag_num=0x23)
135: 0x0CC9 [0x2B] Prishe (ID: 16879949/0x0101914D) [7423*]:
    → "You're so full of angst, I could hear your thoughts from malms away!"
136: 0x0CD0 [0x23] WAIT_FOR_DIALOG_INTERACTION
137: 0x0CD1 [0x29] REQ_SET_WAIT(priority=0x08, entity_id=Prishe (ID: 16879949/0x0101914D), tag_num=0x24)
138: 0x0CD8 [0x2B] Ulmia (ID: 16879950/0x0101914E) [7424*]:
    → "!?"
139: 0x0CDF [0x23] WAIT_FOR_DIALOG_INTERACTION
140: 0x0CE0 [0x52] END_LOAD_SCHEDULER: End scheduler "s071" with entities [EventEntity, EventEntity], work=118*
141: 0x0CEF [0x45] LOAD_SCHEDULED_TASK: Load scheduler "s072" with entities [EventEntity, EventEntity], work=[118*, 0*]
142: 0x0D00 [0x29] REQ_SET_WAIT(priority=0x08, entity_id=Prishe (ID: 16879949/0x0101914D), tag_num=0x25)
143: 0x0D07 [0x29] REQ_SET_WAIT(priority=0x08, entity_id=Prishe (ID: 16879949/0x0101914D), tag_num=0x26)
144: 0x0D0E [0x27] REQ_SET(priority=0x0B, entity_id=Prishe (ID: 16879949/0x0101914D), tag_num=0x91)
145: 0x0D15 [0x2B] Prishe (ID: 16879949/0x0101914D) [7425*]:
    → "You don't have to say a thing."
146: 0x0D1C [0x23] WAIT_FOR_DIALOG_INTERACTION
147: 0x0D1D [0x2A] GET_REQ_LEVEL(level=11, entity_id=Prishe (ID: 16879949/0x0101914D))
148: 0x0D23 [0x29] REQ_SET_WAIT(priority=0x08, entity_id=Prishe (ID: 16879949/0x0101914D), tag_num=0x1F)
149: 0x0D2A [0x2B] Prishe (ID: 16879949/0x0101914D) [7426*]:
    → "Let's see now..."
150: 0x0D31 [0x23] WAIT_FOR_DIALOG_INTERACTION
151: 0x0D32 [0x29] REQ_SET_WAIT(priority=0x08, entity_id=Prishe (ID: 16879949/0x0101914D), tag_num=0x20)
152: 0x0D39 [0x52] END_LOAD_SCHEDULER: End scheduler "s072" with entities [EventEntity, EventEntity], work=118*
153: 0x0D48 [0x45] LOAD_SCHEDULED_TASK: Load scheduler "s073" with entities [EventEntity, EventEntity], work=[118*, 0*]
154: 0x0D59 [0x29] REQ_SET_WAIT(priority=0x08, entity_id=Prishe (ID: 16879949/0x0101914D), tag_num=0x21)
155: 0x0D60 [0x29] REQ_SET_WAIT(priority=0x08, entity_id=Prishe (ID: 16879949/0x0101914D), tag_num=0x22)
156: 0x0D67 [0x29] REQ_SET_WAIT(priority=0x08, entity_id=Prishe (ID: 16879949/0x0101914D), tag_num=0x0B)
157: 0x0D6E [0x2B] Prishe (ID: 16879949/0x0101914D) [7427*]:
    → "Huh? You didn't make it into the choir?"
158: 0x0D75 [0x23] WAIT_FOR_DIALOG_INTERACTION
159: 0x0D76 [0x29] REQ_SET_WAIT(priority=0x08, entity_id=Prishe (ID: 16879949/0x0101914D), tag_num=0x0C)
160: 0x0D7D [0x29] REQ_SET_WAIT(priority=0x08, entity_id=Prishe (ID: 16879949/0x0101914D), tag_num=0x0D)
161: 0x0D84 [0x2B] Prishe (ID: 16879949/0x0101914D) [7428*]:
    → "You were too nervous to sing in front of everyone? Unbelievable."
162: 0x0D8B [0x23] WAIT_FOR_DIALOG_INTERACTION
163: 0x0D8C [0x29] REQ_SET_WAIT(priority=0x08, entity_id=Prishe (ID: 16879949/0x0101914D), tag_num=0x0E)
164: 0x0D93 [0x52] END_LOAD_SCHEDULER: End scheduler "s073" with entities [EventEntity, EventEntity], work=118*
165: 0x0DA2 [0x45] LOAD_SCHEDULED_TASK: Load scheduler "s074" with entities [EventEntity, EventEntity], work=[118*, 0*]
166: 0x0DB3 [0x29] REQ_SET_WAIT(priority=0x08, entity_id=Prishe (ID: 16879949/0x0101914D), tag_num=0x27)
167: 0x0DBA [0x2B] Prishe (ID: 16879949/0x0101914D) [7429*]:
    → "I guess I can understand why you'd wanna join the cathedral choir. You get to wear those pretty clothes, and every meal is a feast!"
168: 0x0DC1 [0x23] WAIT_FOR_DIALOG_INTERACTION
169: 0x0DC2 [0x29] REQ_SET_WAIT(priority=0x08, entity_id=Prishe (ID: 16879949/0x0101914D), tag_num=0x28)
170: 0x0DC9 [0x29] REQ_SET_WAIT(priority=0x08, entity_id=Prishe (ID: 16879949/0x0101914D), tag_num=0x35)
171: 0x0DD0 [0x2B] Prishe (ID: 16879949/0x0101914D) [7430*]:
    → "But it's not the end of the world, you know!"
172: 0x0DD7 [0x23] WAIT_FOR_DIALOG_INTERACTION
173: 0x0DD8 [0x29] REQ_SET_WAIT(priority=0x08, entity_id=Prishe (ID: 16879949/0x0101914D), tag_num=0x36)
174: 0x0DDF [0x7C] Ulmia (ID: 16879950/0x0101914E)->Render.Flags2 |= 0x00
175: 0x0DE5 [0x2B] Ulmia (ID: 16879950/0x0101914E) [7431*]:
    → "...!?"
176: 0x0DEC [0x23] WAIT_FOR_DIALOG_INTERACTION
177: 0x0DED [0x7C] Ulmia (ID: 16879950/0x0101914E)->Render.Flags2 |= 0x01
178: 0x0DF3 [0x52] END_LOAD_SCHEDULER: End scheduler "s074" with entities [EventEntity, EventEntity], work=118*
179: 0x0E02 [0x45] LOAD_SCHEDULED_TASK: Load scheduler "s075" with entities [EventEntity, EventEntity], work=[118*, 0*]
180: 0x0E13 [0x7B] Prishe (ID: 16879949/0x0101914D) stops talking
181: 0x0E18 [0x29] REQ_SET_WAIT(priority=0x08, entity_id=Prishe (ID: 16879949/0x0101914D), tag_num=0x25)
182: 0x0E1F [0x29] REQ_SET_WAIT(priority=0x08, entity_id=Prishe (ID: 16879949/0x0101914D), tag_num=0x26)
183: 0x0E26 [0x27] REQ_SET(priority=0x0B, entity_id=Prishe (ID: 16879949/0x0101914D), tag_num=0x92)
184: 0x0E2D [0x2B] Prishe (ID: 16879949/0x0101914D) [7432*]:
    → "Listen to me. You might be too young to realize it, but this world is one damn big place!"
185: 0x0E34 [0x23] WAIT_FOR_DIALOG_INTERACTION
186: 0x0E35 [0x2A] GET_REQ_LEVEL(level=11, entity_id=Prishe (ID: 16879949/0x0101914D))
187: 0x0E3B [0x4A] Ulmia (ID: 16879950/0x0101914E) looks at Prishe (ID: 16879949/0x0101914D)
188: 0x0E44 [0x52] END_LOAD_SCHEDULER: End scheduler "s075" with entities [EventEntity, EventEntity], work=118*
189: 0x0E53 [0x29] REQ_SET_WAIT(priority=0x08, entity_id=Prishe (ID: 16879949/0x0101914D), tag_num=0x17)
190: 0x0E5A [0x2B] Prishe (ID: 16879949/0x0101914D) [7433*]:
    → "Lemme put it this way."
191: 0x0E61 [0x23] WAIT_FOR_DIALOG_INTERACTION
192: 0x0E62 [0x79] Prishe (ID: 16879949/0x0101914D) looks at Ulmia (ID: 16879950/0x0101914E) (Basic look)
193: 0x0E6C [0x29] REQ_SET_WAIT(priority=0x08, entity_id=Prishe (ID: 16879949/0x0101914D), tag_num=0x18)
194: 0x0E73 [0x45] LOAD_SCHEDULED_TASK: Load scheduler "ovl1" with entities [LocalPlayer, LocalPlayer], work=[200*, 0*]
195: 0x0E84 [0x45] LOAD_SCHEDULED_TASK: Load scheduler "s076" with entities [EventEntity, EventEntity], work=[118*, 0*]
196: 0x0E95 [0x7B] Prishe (ID: 16879949/0x0101914D) stops talking
197: 0x0E9A [0x29] REQ_SET_WAIT(priority=0x08, entity_id=Prishe (ID: 16879949/0x0101914D), tag_num=0x19)
198: 0x0EA1 [0x29] REQ_SET_WAIT(priority=0x08, entity_id=Prishe (ID: 16879949/0x0101914D), tag_num=0x1A)
199: 0x0EA8 [0x27] REQ_SET(priority=0x0B, entity_id=Prishe (ID: 16879949/0x0101914D), tag_num=0x93)
200: 0x0EAF [0x27] REQ_SET(priority=0x0B, entity_id=Ulmia (ID: 16879950/0x0101914E), tag_num=0x13)
201: 0x0EB6 [0x2B] Prishe (ID: 16879949/0x0101914D) [7434*]:
    → "The world that stretches away to the right..."
202: 0x0EBD [0x23] WAIT_FOR_DIALOG_INTERACTION
203: 0x0EBE [0x2A] GET_REQ_LEVEL(level=11, entity_id=Prishe (ID: 16879949/0x0101914D))
204: 0x0EC4 [0x2A] GET_REQ_LEVEL(level=11, entity_id=Ulmia (ID: 16879950/0x0101914E))
205: 0x0ECA [0x52] END_LOAD_SCHEDULER: End scheduler "s076" with entities [EventEntity, EventEntity], work=118*
206: 0x0ED9 [0x45] LOAD_SCHEDULED_TASK: Load scheduler "ovl1" with entities [LocalPlayer, LocalPlayer], work=[200*, 0*]
207: 0x0EEA [0x45] LOAD_SCHEDULED_TASK: Load scheduler "s078" with entities [EventEntity, EventEntity], work=[118*, 0*]
208: 0x0EFB [0x1C] WAIT(50* ticks)
209: 0x0EFE [0x27] REQ_SET(priority=0x0B, entity_id=Prishe (ID: 16879949/0x0101914D), tag_num=0x94)
210: 0x0F05 [0x2B] Prishe (ID: 16879949/0x0101914D) [7435*]:
    → "And the world that stretches away to the left..."
211: 0x0F0C [0x23] WAIT_FOR_DIALOG_INTERACTION
212: 0x0F0D [0x2A] GET_REQ_LEVEL(level=11, entity_id=Prishe (ID: 16879949/0x0101914D))
213: 0x0F13 [0x52] END_LOAD_SCHEDULER: End scheduler "s078" with entities [EventEntity, EventEntity], work=118*
214: 0x0F22 [0x45] LOAD_SCHEDULED_TASK: Load scheduler "ovl1" with entities [LocalPlayer, LocalPlayer], work=[200*, 0*]
215: 0x0F33 [0x45] LOAD_SCHEDULED_TASK: Load scheduler "s077" with entities [EventEntity, EventEntity], work=[118*, 0*]
216: 0x0F44 [0x29] REQ_SET_WAIT(priority=0x0B, entity_id=Ulmia (ID: 16879950/0x0101914E), tag_num=0x14)
217: 0x0F4B [0x29] REQ_SET_WAIT(priority=0x0B, entity_id=Prishe (ID: 16879949/0x0101914D), tag_num=0x95)
218: 0x0F52 [0x1C] WAIT(50* ticks)
219: 0x0F55 [0x2B] Prishe (ID: 16879949/0x0101914D) [7436*]:
    → "Combined with the world above and the world below..."
220: 0x0F5C [0x23] WAIT_FOR_DIALOG_INTERACTION
221: 0x0F5D [0x52] END_LOAD_SCHEDULER: End scheduler "s077" with entities [EventEntity, EventEntity], work=118*
222: 0x0F6C [0x45] LOAD_SCHEDULED_TASK: Load scheduler "ovl1" with entities [LocalPlayer, LocalPlayer], work=[200*, 0*]
223: 0x0F7D [0x45] LOAD_SCHEDULED_TASK: Load scheduler "s079" with entities [EventEntity, EventEntity], work=[118*, 0*]
224: 0x0F8E [0x4A] Prishe (ID: 16879949/0x0101914D) looks at Ulmia (ID: 16879950/0x0101914E)
225: 0x0F97 [0x6F] WAIT_FRAME_DELAY: Yield until WaitTime reaches zero
226: 0x0F98 [0x76] CHECK_ENTITY_RENDER_FLAGS: Wait until Prishe (ID: 16879949/0x0101914D) Render.Flags0 and Render.Flags3 conditions are met
227: 0x0F9D [0x29] REQ_SET_WAIT(priority=0x08, entity_id=Prishe (ID: 16879949/0x0101914D), tag_num=0x7B)
228: 0x0FA4 [0x2B] Prishe (ID: 16879949/0x0101914D) [7437*]:
    → "That's a whole lotta world around you!"
229: 0x0FAB [0x23] WAIT_FOR_DIALOG_INTERACTION
230: 0x0FAC [0x29] REQ_SET_WAIT(priority=0x08, entity_id=Prishe (ID: 16879949/0x0101914D), tag_num=0x7C)
231: 0x0FB3 [0x52] END_LOAD_SCHEDULER: End scheduler "s079" with entities [EventEntity, EventEntity], work=118*
232: 0x0FC2 [0x45] LOAD_SCHEDULED_TASK: Load scheduler "ovl1" with entities [LocalPlayer, LocalPlayer], work=[200*, 0*]
233: 0x0FD3 [0x45] LOAD_SCHEDULED_TASK: Load scheduler "s080" with entities [EventEntity, EventEntity], work=[118*, 0*]
234: 0x0FE4 [0x29] REQ_SET_WAIT(priority=0x08, entity_id=Prishe (ID: 16879949/0x0101914D), tag_num=0x7D)
235: 0x0FEB [0x2B] Prishe (ID: 16879949/0x0101914D) [7438*]:
    → "Do you get it? This marquisate you live in is just one part of the Tavnazian Archipelago, which is just one part of the world of Vana'diel..."
236: 0x0FF2 [0x23] WAIT_FOR_DIALOG_INTERACTION
237: 0x0FF3 [0x2B] Prishe (ID: 16879949/0x0101914D) [7439*]:
    → "The world of Ulmia is just one tiny little corner of all that!"
238: 0x0FFA [0x23] WAIT_FOR_DIALOG_INTERACTION
239: 0x0FFB [0x29] REQ_SET_WAIT(priority=0x08, entity_id=Prishe (ID: 16879949/0x0101914D), tag_num=0x7E)
240: 0x1002 [0x7B] Ulmia (ID: 16879950/0x0101914E) stops talking
241: 0x1007 [0x27] REQ_SET(priority=0x0B, entity_id=Prishe (ID: 16879949/0x0101914D), tag_num=0x97)
242: 0x100E [0x1C] WAIT(60* ticks)
243: 0x1011 [0x52] END_LOAD_SCHEDULER: End scheduler "s080" with entities [EventEntity, EventEntity], work=118*
244: 0x1020 [0x45] LOAD_SCHEDULED_TASK: Load scheduler "s081" with entities [EventEntity, EventEntity], work=[118*, 0*]
245: 0x1031 [0x2B] Prishe (ID: 16879949/0x0101914D) [7440*]:
    → "But I guess your dream of singing in the choir is over."
246: 0x1038 [0x23] WAIT_FOR_DIALOG_INTERACTION
247: 0x1039 [0x2A] GET_REQ_LEVEL(level=11, entity_id=Prishe (ID: 16879949/0x0101914D))
