# 16880001

## Common Data

| Field            | Value                    |
|------------------|--------------------------|
| Zone             | Misareaux Coast (ID: 25) |
| Block Size       | 11244 bytes              |
| Total Events     | 6                        |
| References Count | 268                      |

## List of Events

| Event ID              | Entrypoint   |   Size |   Instructions |
|-----------------------|--------------|--------|----------------|
| [65535](#event-65535) | 0x0000       |      1 |              1 |
| [15](#event-15)       | 0x0001       |   3175 |            364 |
| [16](#event-16)       | 0x0C68       |   1340 |            150 |
| [19](#event-19)       | 0x11A4       |    402 |             57 |
| [17](#event-17)       | 0x1336       |   4438 |            531 |
| [18](#event-18)       | 0x248C       |    775 |             99 |

## DAT References (imed_data)

|   Index | Hex Value   |   Dec Value |
|---------|-------------|-------------|
|       0 | 0x0000      |           0 |
|       1 | 0x0078      |         120 |
|       2 | 0x00C8      |         200 |
|       3 | 0x001B      |          27 |
|       4 | 0x0005      |           5 |
|       5 | 0x0006      |           6 |
|       6 | 0x0007      |           7 |
|       7 | 0x0008      |           8 |
|       8 | 0xFFFF59E5  |  4294924773 |
|       9 | 0x8A544     |      566596 |
|      10 | 0xFFFFA2AC  |  4294943404 |
|      11 | 0x04DE      |        1246 |
|      12 | 0xFFFF8B86  |  4294937478 |
|      13 | 0x89C2C     |      564268 |
|      14 | 0xFFFFA395  |  4294943637 |
|      15 | 0x0695      |        1685 |
|      16 | 0xFFFF53A4  |  4294923172 |
|      17 | 0x892CC     |      561868 |
|      18 | 0xFFFFA242  |  4294943298 |
|      19 | 0x0D0B      |        3339 |
|      20 | 0xFFFF6319  |  4294927129 |
|      21 | 0x89263     |      561763 |
|      22 | 0xFFFFA240  |  4294943296 |
|      23 | 0x0B31      |        2865 |
|      24 | 0xFFFF4708  |  4294919944 |
|      25 | 0x89D7E     |      564606 |
|      26 | 0xFFFFA35C  |  4294943580 |
|      27 | 0xFFFF6495  |  4294927509 |
|      28 | 0x8B087     |      569479 |
|      29 | 0xFFFFA2F5  |  4294943477 |
|      30 | 0xFFFF52F9  |  4294923001 |
|      31 | 0x8B420     |      570400 |
|      32 | 0xFFFFA3A9  |  4294943657 |
|      33 | 0x02DF      |         735 |
|      34 | 0x001E      |          30 |
|      35 | 0x0302      |         770 |
|      36 | 0x000F      |          15 |
|      37 | 0x007F      |         127 |
|      38 | 0x0064      |         100 |
|      39 | 0x0014      |          20 |
|      40 | 0xFFFF67E8  |  4294928360 |
|      41 | 0x8A6B9     |      566969 |
|      42 | 0xFFFFA284  |  4294943364 |
|      43 | 0x07B7      |        1975 |
|      44 | 0x0001      |           1 |
|      45 | 0x0F26      |        3878 |
|      46 | 0x0002      |           2 |
|      47 | 0x0003      |           3 |
|      48 | 0x0004      |           4 |
|      49 | 0x004F      |          79 |
|      50 | 0x2225      |        8741 |
|      51 | 0x2226      |        8742 |
|      52 | 0x0F17      |        3863 |
|      53 | 0x2227      |        8743 |
|      54 | 0x2228      |        8744 |
|      55 | 0x2229      |        8745 |
|      56 | 0x222A      |        8746 |
|      57 | 0x222B      |        8747 |
|      58 | 0x222C      |        8748 |
|      59 | 0xFFFF2CB7  |  4294913207 |
|      60 | 0x8A947     |      567623 |
|      61 | 0xFFFFA06E  |  4294942830 |
|      62 | 0xFFFF4409  |  4294919177 |
|      63 | 0x8A2DD     |      565981 |
|      64 | 0xFFFFA42D  |  4294943789 |
|      65 | 0x00D7      |         215 |
|      66 | 0x222D      |        8749 |
|      67 | 0x222E      |        8750 |
|      68 | 0x222F      |        8751 |
|      69 | 0x0F15      |        3861 |
|      70 | 0x2230      |        8752 |
|      71 | 0x2231      |        8753 |
|      72 | 0x0F13      |        3859 |
|      73 | 0x2232      |        8754 |
|      74 | 0x001D      |          29 |
|      75 | 0x2233      |        8755 |
|      76 | 0x2234      |        8756 |
|      77 | 0x005A      |          90 |
|      78 | 0x0096      |         150 |
|      79 | 0x0067      |         103 |
|      80 | 0x2235      |        8757 |
|      81 | 0x2236      |        8758 |
|      82 | 0x2237      |        8759 |
|      83 | 0x0F12      |        3858 |
|      84 | 0x2238      |        8760 |
|      85 | 0x2239      |        8761 |
|      86 | 0x223A      |        8762 |
|      87 | 0x223B      |        8763 |
|      88 | 0x0020      |          32 |
|      89 | 0x223C      |        8764 |
|      90 | 0x223D      |        8765 |
|      91 | 0x223E      |        8766 |
|      92 | 0x0050      |          80 |
|      93 | 0x0028      |          40 |
|      94 | 0x905E8     |      591336 |
|      95 | 0xFFFBFDF1  |  4294704625 |
|      96 | 0xFFFE07AF  |  4294838191 |
|      97 | 0x0E9E      |        3742 |
|      98 | 0x0F16      |        3862 |
|      99 | 0x0091      |         145 |
|     100 | 0x0EDA      |        3802 |
|     101 | 0x01E0      |         480 |
|     102 | 0x0098      |         152 |
|     103 | 0x223F      |        8767 |
|     104 | 0x2240      |        8768 |
|     105 | 0x2241      |        8769 |
|     106 | 0x2242      |        8770 |
|     107 | 0x2243      |        8771 |
|     108 | 0x2244      |        8772 |
|     109 | 0x2245      |        8773 |
|     110 | 0x00E6      |         230 |
|     111 | 0xFFFF6380  |  4294927232 |
|     112 | 0x8AB3D     |      568125 |
|     113 | 0xFFFFA243  |  4294943299 |
|     114 | 0x0BFB      |        3067 |
|     115 | 0x2246      |        8774 |
|     116 | 0x2247      |        8775 |
|     117 | 0x2248      |        8776 |
|     118 | 0x2249      |        8777 |
|     119 | 0x224A      |        8778 |
|     120 | 0x15AB      |        5547 |
|     121 | 0x224B      |        8779 |
|     122 | 0x224C      |        8780 |
|     123 | 0x224D      |        8781 |
|     124 | 0x224E      |        8782 |
|     125 | 0x224F      |        8783 |
|     126 | 0x165F      |        5727 |
|     127 | 0x2250      |        8784 |
|     128 | 0x2251      |        8785 |
|     129 | 0x000A      |          10 |
|     130 | 0x2252      |        8786 |
|     131 | 0x2253      |        8787 |
|     132 | 0x2254      |        8788 |
|     133 | 0x2255      |        8789 |
|     134 | 0x1172      |        4466 |
|     135 | 0x2256      |        8790 |
|     136 | 0x2257      |        8791 |
|     137 | 0x2258      |        8792 |
|     138 | 0x00B4      |         180 |
|     139 | 0xFFFF5A03  |  4294924803 |
|     140 | 0x896F4     |      562932 |
|     141 | 0x0944      |        2372 |
|     142 | 0x02DB      |         731 |
|     143 | 0x008C      |         140 |
|     144 | 0x2259      |        8793 |
|     145 | 0x225A      |        8794 |
|     146 | 0x0065      |         101 |
|     147 | 0x0F20      |        3872 |
|     148 | 0x0093      |         147 |
|     149 | 0x225B      |        8795 |
|     150 | 0x225C      |        8796 |
|     151 | 0x003C      |          60 |
|     152 | 0x2224      |        8740 |
|     153 | 0x00DB      |         219 |
|     154 | 0x0F3F      |        3903 |
|     155 | 0x225D      |        8797 |
|     156 | 0x0140      |         320 |
|     157 | 0x225E      |        8798 |
|     158 | 0xFFFE7B7E  |  4294867838 |
|     159 | 0x971FD     |      619005 |
|     160 | 0xFFFFB75F  |  4294948703 |
|     161 | 0x0850      |        2128 |
|     162 | 0xFFFE7C4B  |  4294868043 |
|     163 | 0x9752F     |      619823 |
|     164 | 0xFFFFB72D  |  4294948653 |
|     165 | 0x068A      |        1674 |
|     166 | 0x00A0      |         160 |
|     167 | 0x0F40      |        3904 |
|     168 | 0x225F      |        8799 |
|     169 | 0x2260      |        8800 |
|     170 | 0x2261      |        8801 |
|     171 | 0x2262      |        8802 |
|     172 | 0x2263      |        8803 |
|     173 | 0x2264      |        8804 |
|     174 | 0xFFFE7F1A  |  4294868762 |
|     175 | 0x96EBE     |      618174 |
|     176 | 0xFFFFB741  |  4294948673 |
|     177 | 0x2265      |        8805 |
|     178 | 0x2266      |        8806 |
|     179 | 0x2267      |        8807 |
|     180 | 0x2268      |        8808 |
|     181 | 0x2269      |        8809 |
|     182 | 0x226A      |        8810 |
|     183 | 0x226B      |        8811 |
|     184 | 0x226C      |        8812 |
|     185 | 0x226D      |        8813 |
|     186 | 0x226E      |        8814 |
|     187 | 0x226F      |        8815 |
|     188 | 0x2270      |        8816 |
|     189 | 0x2271      |        8817 |
|     190 | 0x2272      |        8818 |
|     191 | 0x2273      |        8819 |
|     192 | 0x2274      |        8820 |
|     193 | 0x2275      |        8821 |
|     194 | 0x2276      |        8822 |
|     195 | 0x2277      |        8823 |
|     196 | 0x2278      |        8824 |
|     197 | 0x2279      |        8825 |
|     198 | 0x227A      |        8826 |
|     199 | 0x227B      |        8827 |
|     200 | 0x227C      |        8828 |
|     201 | 0x227D      |        8829 |
|     202 | 0x227E      |        8830 |
|     203 | 0x0F1D      |        3869 |
|     204 | 0x227F      |        8831 |
|     205 | 0x2280      |        8832 |
|     206 | 0x2281      |        8833 |
|     207 | 0xFFFE839A  |  4294869914 |
|     208 | 0x97567     |      619879 |
|     209 | 0xFFFFB635  |  4294948405 |
|     210 | 0x2282      |        8834 |
|     211 | 0x2283      |        8835 |
|     212 | 0x0F24      |        3876 |
|     213 | 0x2284      |        8836 |
|     214 | 0x2285      |        8837 |
|     215 | 0x2286      |        8838 |
|     216 | 0x2287      |        8839 |
|     217 | 0x2288      |        8840 |
|     218 | 0x2289      |        8841 |
|     219 | 0x228A      |        8842 |
|     220 | 0x228B      |        8843 |
|     221 | 0x228C      |        8844 |
|     222 | 0x228D      |        8845 |
|     223 | 0x228E      |        8846 |
|     224 | 0x228F      |        8847 |
|     225 | 0x2290      |        8848 |
|     226 | 0x2291      |        8849 |
|     227 | 0x2292      |        8850 |
|     228 | 0x2293      |        8851 |
|     229 | 0x2294      |        8852 |
|     230 | 0x2295      |        8853 |
|     231 | 0x2296      |        8854 |
|     232 | 0x2297      |        8855 |
|     233 | 0x2298      |        8856 |
|     234 | 0x2299      |        8857 |
|     235 | 0x229A      |        8858 |
|     236 | 0x229B      |        8859 |
|     237 | 0x229C      |        8860 |
|     238 | 0x229D      |        8861 |
|     239 | 0x229E      |        8862 |
|     240 | 0x229F      |        8863 |
|     241 | 0x22A0      |        8864 |
|     242 | 0xFFFF508A  |  4294922378 |
|     243 | 0x8B7B0     |      571312 |
|     244 | 0xFFFFA40F  |  4294943759 |
|     245 | 0x0BC4      |        3012 |
|     246 | 0xFFFF4E14  |  4294921748 |
|     247 | 0x8C050     |      573520 |
|     248 | 0xFFFFA431  |  4294943793 |
|     249 | 0x024A      |         586 |
|     250 | 0xFFFF6A55  |  4294928981 |
|     251 | 0x8AC58     |      568408 |
|     252 | 0xFFFFA2D6  |  4294943446 |
|     253 | 0x09D8      |        2520 |
|     254 | 0x0D24      |        3364 |
|     255 | 0x02FE      |         766 |
|     256 | 0x01A9      |         425 |
|     257 | 0x22A1      |        8865 |
|     258 | 0x22A2      |        8866 |
|     259 | 0x22A3      |        8867 |
|     260 | 0x22A4      |        8868 |
|     261 | 0x22A5      |        8869 |
|     262 | 0x22A6      |        8870 |
|     263 | 0x22A7      |        8871 |
|     264 | 0x22A8      |        8872 |
|     265 | 0x22A9      |        8873 |
|     266 | 0x22AA      |        8874 |
|     267 | 0x007B      |         123 |

## String References

- **8740**: @@
- **8742**: How do you respond? [Good to see you again./What are you doing here?/Is everything all right?]
- **8771**: How do you respond? [I need a minute to think./You've caught me off guard.]
- **8775**: What type of training? [Strength training./Endurance training./Style training./I need a moment to think.]
- **8806**: How do you respond? [It really is quite stunning./You really value it, don't you?/And your mother?]
- **8814**: What do you think? [He wants the future to be enshrouded./He wants the future to be pitch-black./He wants the darkness to come faster./I haven't the foggiest.]
- **8841**: How do you respond? [I can't do it alone./Stay levelheaded!/We can succeed with Altana's help.]

## Events

### Event 65535

#### Metadata

| Field        | Value   |
|--------------|---------|
| Entrypoint   | 0x0000  |
| Data Size    | 1 bytes |
| Instructions | 1       |

```
      00 01 02 03 04 05 06 07  08 09 0A 0B 0C 0D 0E 0F
      -- -- -- -- -- -- -- --  -- -- -- -- -- -- -- --
0000: 00                                                .               
```

#### Opcodes

```
  0: 0x0000 [0x00] END_REQSTACK()
```

### Event 15

#### Metadata

| Field        | Value      |
|--------------|------------|
| Entrypoint   | 0x0001     |
| Data Size    | 3175 bytes |
| Instructions | 364        |

```
      00 01 02 03 04 05 06 07  08 09 0A 0B 0C 0D 0E 0F
      -- -- -- -- -- -- -- --  -- -- -- -- -- -- -- --
0000:    42 5D 00 80 01 80 45  02 80 F8 FF FF 7F F8 FF   B]....E........
0010: FF 7F 66 64 6F 31 00 80  55 02 80 F8 FF FF 7F F8  ..fdo1..U.......
0020: FF FF 7F 66 64 6F 31 46  01 38 03 80 2F 00 84 91  ...fdo1F.8../...
0030: 01 01 2F 00 86 91 01 01  2F 00 87 91 01 01 2F 00  ../...../...../.
0040: 88 91 01 01 2F 00 89 91  01 01 2F 00 8A 91 01 01  ..../...../.....
0050: 4E 00 84 91 01 01 4E 00  86 91 01 01 4E 00 87 91  N.....N.....N...
0060: 01 01 4E 00 88 91 01 01  4E 00 89 91 01 01 4E 00  ..N.....N.....N.
0070: 8A 91 01 01 92 01 84 91  01 01 92 01 80 91 01 01  ................
0080: 94 01 84 91 01 01 94 01  F0 FF FF 7F 94 01 86 91  ................
0090: 01 01 94 01 87 91 01 01  94 01 88 91 01 01 94 01  ................
00A0: 89 91 01 01 94 01 8A 91  01 01 02 87 7F 04 80 80  ................
00B0: BC 00 27 05 F0 FF FF 7F  4B 01 F9 00 02 87 7F 05  ..'.....K.......
00C0: 80 80 CE 00 27 05 F0 FF  FF 7F 4B 01 F9 00 02 87  ....'.....K.....
00D0: 7F 06 80 80 E0 00 27 05  F0 FF FF 7F 4C 01 F9 00  ......'.....L...
00E0: 02 87 7F 07 80 80 F2 00  27 05 F0 FF FF 7F 4D 01  ........'.....M.
00F0: F9 00 27 05 F0 FF FF 7F  4E BA 84 91 01 01 08 80  ..'.....N.......
0100: 09 80 0A 80 0B 80 BA F0  FF FF 7F 0C 80 0D 80 0E  ................
0110: 80 0F 80 BA 86 91 01 01  10 80 11 80 12 80 13 80  ................
0120: BA 87 91 01 01 14 80 15  80 16 80 17 80 BA 88 91  ................
0130: 01 01 18 80 19 80 1A 80  0B 80 BA 89 91 01 01 1B  ................
0140: 80 1C 80 1D 80 0F 80 BA  8A 91 01 01 1E 80 1F 80  ................
0150: 20 80 21 80 80 84 91 01  01 80 F0 FF FF 7F 80 86   .!.............
0160: 91 01 01 80 87 91 01 01  80 88 91 01 01 80 89 91  ................
0170: 01 01 80 8A 91 01 01 80  80 91 01 01 1C 22 80 2C  .............".,
0180: 87 91 01 01 87 91 01 01  63 6F 72 70 2C 88 91 01  ........corp,...
0190: 01 88 91 01 01 63 6F 72  70 2C 89 91 01 01 89 91  .....corp,......
01A0: 01 01 63 6F 72 70 2C 8A  91 01 01 8A 91 01 01 63  ..corp,........c
01B0: 6F 72 70 1C 22 80 45 23  80 F8 FF FF 7F F8 FF FF  orp.".E#........
01C0: 7F 73 30 36 34 00 80 1C  24 80 45 02 80 F8 FF FF  .s064...$.E.....
01D0: 7F F8 FF FF 7F 66 64 69  31 00 80 2C 86 91 01 01  .....fdi1..,....
01E0: 86 91 01 01 64 65 61 64  1C 01 80 9F 25 80 F8 FF  ....dead....%...
01F0: FF 7F F8 FF FF 7F 73 74  72 30 00 80 1C 24 80 9F  ......str0...$..
0200: 25 80 F8 FF FF 7F F8 FF  FF 7F 6B 69 6C 6C 00 80  %.........kill..
0210: 1C 22 80 52 23 80 F8 FF  FF 7F F8 FF FF 7F 73 30  .".R#.........s0
0220: 36 34 45 23 80 F8 FF FF  7F F8 FF FF 7F 73 30 36  64E#.........s06
0230: 35 00 80 1C 26 80 27 05  F0 FF FF 7F 48 1C 27 80  5...&.'.....H.'.
0240: 52 23 80 F8 FF FF 7F F8  FF FF 7F 73 30 36 35 45  R#.........s065E
0250: 23 80 F8 FF FF 7F F8 FF  FF 7F 73 30 36 36 00 80  #.........s066..
0260: 27 05 84 91 01 01 05 1C  01 80 45 02 80 F8 FF FF  '.........E.....
0270: 7F F8 FF FF 7F 66 64 6F  31 00 80 55 02 80 F8 FF  .....fdo1..U....
0280: FF 7F F8 FF FF 7F 66 64  6F 31 52 23 80 F8 FF FF  ......fdo1R#....
0290: 7F F8 FF FF 7F 73 30 36  36 4E 01 87 91 01 01 4E  .....s066N.....N
02A0: 01 88 91 01 01 4E 01 89  91 01 01 4E 01 8A 91 01  .....N.....N....
02B0: 01 27 05 86 91 01 01 02  29 05 84 91 01 01 06 BA  .'......).......
02C0: 86 91 01 01 28 80 29 80  2A 80 2B 80 80 86 91 01  ....(.).*.+.....
02D0: 01 4A 84 91 01 01 F0 FF  FF 7F 1C 22 80 02 87 7F  .J........."....
02E0: 2C 80 80 F8 02 5F 03 2D  80 86 91 01 01 86 91 01  ,...._.-........
02F0: 01 68 6D 6D 6C 01 B5 03  02 87 7F 2E 80 80 13 03  .hmml...........
0300: 5F 03 2D 80 86 91 01 01  86 91 01 01 68 66 6D 6C  _.-.........hfml
0310: 01 B5 03 02 87 7F 2F 80  80 2E 03 5F 03 2D 80 86  ....../...._.-..
0320: 91 01 01 86 91 01 01 65  6D 6D 6C 01 B5 03 02 87  .......emml.....
0330: 7F 30 80 80 49 03 5F 03  2D 80 86 91 01 01 86 91  .0..I._.-.......
0340: 01 01 65 66 6D 6C 01 B5  03 02 87 7F 04 80 80 64  ..efml.........d
0350: 03 5F 03 2D 80 86 91 01  01 86 91 01 01 74 6D 61  ._.-.........tma
0360: 6C 01 B5 03 02 87 7F 05  80 80 7F 03 5F 03 2D 80  l..........._.-.
0370: 86 91 01 01 86 91 01 01  74 6D 61 6C 01 B5 03 02  ........tmal....
0380: 87 7F 06 80 80 9A 03 5F  03 2D 80 86 91 01 01 86  ......._.-......
0390: 91 01 01 6D 6D 61 6C 01  B5 03 02 87 7F 07 80 80  ...mmal.........
03A0: B5 03 5F 03 2D 80 86 91  01 01 86 91 01 01 67 6D  .._.-.........gm
03B0: 61 6C 01 B5 03 1C 22 80  5C 00 31 80 5C 01 31 80  al....".\.1.\.1.
03C0: 9A 45 23 80 F8 FF FF 7F  F8 FF FF 7F 73 30 36 37  .E#.........s067
03D0: 00 80 1C 24 80 45 02 80  F8 FF FF 7F F8 FF FF 7F  ...$.E..........
03E0: 66 64 69 31 00 80 2B 84  91 01 01 32 80 23 52 23  fdi1..+....2.#R#
03F0: 80 F8 FF FF 7F F8 FF FF  7F 73 30 36 37 45 23 80  .........s067E#.
0400: F8 FF FF 7F F8 FF FF 7F  73 30 36 38 00 80 24 33  ........s068..$3
0410: 80 00 80 00 80 25 02 00  10 00 80 00 60 04 52 23  .....%......`.R#
0420: 80 F8 FF FF 7F F8 FF FF  7F 73 30 36 38 45 23 80  .........s068E#.
0430: F8 FF FF 7F F8 FF FF 7F  73 30 36 39 00 80 5B 34  ........s069..[4
0440: 80 84 91 01 01 84 91 01  01 74 6C 63 30 2B 84 91  .........tlc0+..
0450: 01 01 35 80 23 2B 84 91  01 01 36 80 23 01 F4 04  ..5.#+....6.#...
0460: 02 00 10 2C 80 00 AA 04  52 23 80 F8 FF FF 7F F8  ...,....R#......
0470: FF FF 7F 73 30 36 38 45  23 80 F8 FF FF 7F F8 FF  ...s068E#.......
0480: FF 7F 73 30 36 39 00 80  5B 34 80 84 91 01 01 84  ..s069..[4......
0490: 91 01 01 74 6C 63 30 2B  84 91 01 01 37 80 23 2B  ...tlc0+....7.#+
04A0: 84 91 01 01 38 80 23 01  F4 04 02 00 10 2E 80 00  ....8.#.........
04B0: F4 04 52 23 80 F8 FF FF  7F F8 FF FF 7F 73 30 36  ..R#.........s06
04C0: 38 45 23 80 F8 FF FF 7F  F8 FF FF 7F 73 30 36 39  8E#.........s069
04D0: 00 80 5B 34 80 84 91 01  01 84 91 01 01 74 6C 63  ..[4.........tlc
04E0: 30 2B 84 91 01 01 39 80  23 2B 84 91 01 01 3A 80  0+....9.#+....:.
04F0: 23 01 F4 04 45 02 80 F8  FF FF 7F F8 FF FF 7F 66  #...E..........f
0500: 64 6F 31 00 80 55 02 80  F8 FF FF 7F F8 FF FF 7F  do1..U..........
0510: 66 64 6F 31 52 23 80 F8  FF FF 7F F8 FF FF 7F 73  fdo1R#.........s
0520: 30 36 39 6B 69 64 6C 30  84 91 01 01 6B 69 64 6C  069kidl0....kidl
0530: 30 87 91 01 01 4E 01 F0  FF FF 7F 4E 00 87 91 01  0....N.....N....
0540: 01 29 05 87 91 01 01 02  59 05 87 91 01 01 01 BA  .)......Y.......
0550: 87 91 01 01 3B 80 3C 80  3D 80 2B 80 BA 84 91 01  ....;.<.=.+.....
0560: 01 3E 80 3F 80 40 80 2B  80 80 84 91 01 01 80 87  .>.?.@.+........
0570: 91 01 01 4A 84 91 01 01  87 91 01 01 4A 87 91 01  ...J........J...
0580: 01 84 91 01 01 7B 87 91  01 01 1C 22 80 7C 00 84  .....{.....".|..
0590: 91 01 01 45 23 80 F8 FF  FF 7F F8 FF FF 7F 73 30  ...E#.........s0
05A0: 37 30 00 80 1C 24 80 45  41 80 F0 FF FF 7F F0 FF  70...$.EA.......
05B0: FF 7F 65 66 6F 6E 00 80  55 41 80 F0 FF FF 7F F0  ..efon..UA......
05C0: FF FF 7F 65 66 6F 6E 2B  84 91 01 01 42 80 23 52  ...efon+....B.#R
05D0: 23 80 F8 FF FF 7F F8 FF  FF 7F 73 30 37 30 45 23  #.........s070E#
05E0: 80 F8 FF FF 7F F8 FF FF  7F 73 30 37 31 00 80 2B  .........s071..+
05F0: 84 91 01 01 43 80 23 52  23 80 F8 FF FF 7F F8 FF  ....C.#R#.......
0600: FF 7F 73 30 37 31 45 23  80 F8 FF FF 7F F8 FF FF  ..s071E#........
0610: 7F 73 30 37 32 00 80 2B  84 91 01 01 44 80 23 45  .s072..+....D.#E
0620: 02 80 F8 FF FF 7F F8 FF  FF 7F 66 64 6F 31 00 80  ..........fdo1..
0630: 55 02 80 F8 FF FF 7F F8  FF FF 7F 66 64 6F 31 52  U..........fdo1R
0640: 23 80 F8 FF FF 7F F8 FF  FF 7F 73 30 37 32 27 05  #.........s072'.
0650: 87 91 01 01 03 4E 01 87  91 01 01 4E 00 F0 FF FF  .....N.....N....
0660: 7F BA 84 91 01 01 08 80  09 80 0A 80 0B 80 80 84  ................
0670: 91 01 01 80 F0 FF FF 7F  4A 84 91 01 01 F0 FF FF  ........J.......
0680: 7F 1C 22 80 7C 01 84 91  01 01 5B 45 80 84 91 01  ..".|.....[E....
0690: 01 84 91 01 01 74 6C 6B  30 45 23 80 F8 FF FF 7F  .....tlk0E#.....
06A0: F8 FF FF 7F 73 30 37 33  00 80 1C 24 80 45 02 80  ....s073...$.E..
06B0: F8 FF FF 7F F8 FF FF 7F  66 64 69 31 00 80 2B 84  ........fdi1..+.
06C0: 91 01 01 46 80 23 52 23  80 F8 FF FF 7F F8 FF FF  ...F.#R#........
06D0: 7F 73 30 37 33 45 23 80  F8 FF FF 7F F8 FF FF 7F  .s073E#.........
06E0: 73 30 37 34 00 80 7B 84  91 01 01 5B 45 80 84 91  s074..{....[E...
06F0: 01 01 84 91 01 01 74 6C  6B 31 2B 84 91 01 01 47  ......tlk1+....G
0700: 80 23 52 23 80 F8 FF FF  7F F8 FF FF 7F 73 30 37  .#R#.........s07
0710: 34 45 23 80 F8 FF FF 7F  F8 FF FF 7F 73 30 37 35  4E#.........s075
0720: 00 80 5B 48 80 84 91 01  01 84 91 01 01 73 6F 6D  ..[H.........som
0730: 30 2B 84 91 01 01 49 80  1C 26 80 23 52 23 80 F8  0+....I..&.#R#..
0740: FF FF 7F F8 FF FF 7F 73  30 37 35 45 23 80 F8 FF  .......s075E#...
0750: FF 7F F8 FF FF 7F 73 30  37 36 00 80 6E F0 FF FF  ......s076..n...
0760: 7F 4A 80 99 F0 FF FF 7F  1C 01 80 5B 48 80 84 91  .J.........[H...
0770: 01 01 84 91 01 01 73 6F  6D 31 52 23 80 F8 FF FF  ......som1R#....
0780: 7F F8 FF FF 7F 73 30 37  36 45 23 80 F8 FF FF 7F  .....s076E#.....
0790: F8 FF FF 7F 73 30 37 37  00 80 2B 84 91 01 01 4B  ....s077..+....K
07A0: 80 23 2B 84 91 01 01 4C  80 23 52 23 80 F8 FF FF  .#+....L.#R#....
07B0: 7F F8 FF FF 7F 73 30 37  37 45 23 80 F8 FF FF 7F  .....s077E#.....
07C0: F8 FF FF 7F 73 30 37 38  00 80 6E F0 FF FF 7F 06  ....s078..n.....
07D0: 80 99 F0 FF FF 7F 1C 4D  80 7B F0 FF FF 7F 27 05  .......M.{....'.
07E0: F0 FF FF 7F 4A 1C 4E 80  D0 4F 80 86 91 01 01 86  ....J.N..O......
07F0: 91 01 01 73 74 61 72 00  80 1C 4D 80 52 23 80 F8  ...star...M.R#..
0800: FF FF 7F F8 FF FF 7F 73  30 37 38 45 23 80 F8 FF  .......s078E#...
0810: FF 7F F8 FF FF 7F 73 30  37 39 00 80 5F 05 34 80  ......s079.._.4.
0820: 84 91 01 01 84 91 01 01  74 6C 63 30 26 80 2B 84  ........tlc0&.+.
0830: 91 01 01 50 80 23 2B 84  91 01 01 51 80 23 2B 84  ...P.#+....Q.#+.
0840: 91 01 01 52 80 23 5F 07  84 91 01 01 84 91 01 01  ...R.#_.........
0850: 74 6C 63 30 52 23 80 F8  FF FF 7F F8 FF FF 7F 73  tlc0R#.........s
0860: 30 37 39 45 23 80 F8 FF  FF 7F F8 FF FF 7F 73 30  079E#.........s0
0870: 38 30 00 80 5B 53 80 84  91 01 01 84 91 01 01 66  80..[S.........f
0880: 65 30 31 2B 84 91 01 01  54 80 23 D0 4F 80 86 91  e01+....T.#.O...
0890: 01 01 86 91 01 01 6B 69  6C 6C 00 80 4E 01 86 91  ......kill..N...
08A0: 01 01 79 00 F0 FF FF 7F  84 91 01 01 6B 69 64 6C  ..y.........kidl
08B0: 30 F0 FF FF 7F 1C 22 80  52 23 80 F8 FF FF 7F F8  0.....".R#......
08C0: FF FF 7F 73 30 38 30 45  23 80 F8 FF FF 7F F8 FF  ...s080E#.......
08D0: FF 7F 73 30 38 31 00 80  5B 53 80 84 91 01 01 84  ..s081..[S......
08E0: 91 01 01 66 30 30 31 5B  34 80 84 91 01 01 84 91  ...f001[4.......
08F0: 01 01 74 6C 63 31 2B 84  91 01 01 55 80 23 6E F0  ..tlc1+....U.#n.
0900: FF FF 7F 06 80 99 F0 FF  FF 7F 1C 4D 80 52 23 80  ...........M.R#.
0910: F8 FF FF 7F F8 FF FF 7F  73 30 38 31 45 23 80 F8  ........s081E#..
0920: FF FF 7F F8 FF FF 7F 73  30 38 32 00 80 5B 45 80  .......s082..[E.
0930: 84 91 01 01 84 91 01 01  74 6C 6B 30 2B 84 91 01  ........tlk0+...
0940: 01 56 80 23 2B 84 91 01  01 57 80 23 5B 45 80 84  .V.#+....W.#[E..
0950: 91 01 01 84 91 01 01 74  6C 6B 31 52 23 80 F8 FF  .......tlk1R#...
0960: FF 7F F8 FF FF 7F 73 30  38 32 45 23 80 F8 FF FF  ......s082E#....
0970: 7F F8 FF FF 7F 73 30 38  33 00 80 6E F0 FF FF 7F  .....s083..n....
0980: 58 80 99 F0 FF FF 7F 1C  01 80 5B 34 80 84 91 01  X.........[4....
0990: 01 84 91 01 01 62 69 6B  30 52 23 80 F8 FF FF 7F  .....bik0R#.....
09A0: F8 FF FF 7F 73 30 38 33  45 23 80 F8 FF FF 7F F8  ....s083E#......
09B0: FF FF 7F 73 30 38 34 00  80 2B 84 91 01 01 59 80  ...s084..+....Y.
09C0: 23 2B 84 91 01 01 5A 80  23 52 23 80 F8 FF FF 7F  #+....Z.#R#.....
09D0: F8 FF FF 7F 73 30 38 34  45 23 80 F8 FF FF 7F F8  ....s084E#......
09E0: FF FF 7F 73 30 38 35 00  80 5B 34 80 84 91 01 01  ...s085..[4.....
09F0: 84 91 01 01 62 69 6B 31  2B 84 91 01 01 5B 80 23  ....bik1+....[.#
0A00: 27 05 F0 FF FF 7F 40 1C  5C 80 27 05 F0 FF FF 7F  '.....@.\.'.....
0A10: 41 1C 5D 80 45 02 80 F8  FF FF 7F F8 FF FF 7F 66  A.].E..........f
0A20: 64 6F 31 00 80 55 02 80  F8 FF FF 7F F8 FF FF 7F  do1..U..........
0A30: 66 64 6F 31 52 23 80 F8  FF FF 7F F8 FF FF 7F 73  fdo1R#.........s
0A40: 30 38 35 27 05 86 91 01  01 03 77 00 80 2C 80 2F  085'......w..,./
0A50: 00 83 91 01 01 4E 00 83  91 01 01 92 01 83 91 01  .....N..........
0A60: 01 94 01 83 91 01 01 59  05 83 91 01 01 01 BA 83  .......Y........
0A70: 91 01 01 5E 80 5F 80 60  80 61 80 80 83 91 01 01  ...^._.`.a......
0A80: 81 00 84 91 01 01 5B 62  80 84 91 01 01 84 91 01  ......[b........
0A90: 01 74 68 6B 30 1C 22 80  D0 63 80 83 91 01 01 83  .thk0."..c......
0AA0: 91 01 01 73 30 30 31 00  80 1C 22 80 45 23 80 F8  ...s001...".E#..
0AB0: FF FF 7F F8 FF FF 7F 73  30 38 36 00 80 1C 24 80  .......s086...$.
0AC0: 45 02 80 F8 FF FF 7F F8  FF FF 7F 66 64 69 31 00  E..........fdi1.
0AD0: 80 5F 05 64 80 83 91 01  01 83 91 01 01 6B 61 6D  ._.d.........kam
0AE0: 30 65 80 D0 66 80 83 91  01 01 83 91 01 01 78 63  0e..f.........xc
0AF0: 30 32 00 80 2B 84 91 01  01 67 80 23 2B 84 91 01  02..+....g.#+...
0B00: 01 68 80 23 5F 07 83 91  01 01 83 91 01 01 6B 61  .h.#_.........ka
0B10: 6D 30 45 02 80 F8 FF FF  7F F8 FF FF 7F 66 64 6F  m0E..........fdo
0B20: 31 00 80 55 02 80 F8 FF  FF 7F F8 FF FF 7F 66 64  1..U..........fd
0B30: 6F 31 52 23 80 F8 FF FF  7F F8 FF FF 7F 73 30 38  o1R#.........s08
0B40: 36 78 D0 63 80 83 91 01  01 83 91 01 01 6B 6C 30  6x.c.........kl0
0B50: 31 00 80 27 05 83 91 01  01 02 45 23 80 F8 FF FF  1..'......E#....
0B60: 7F F8 FF FF 7F 73 30 38  37 00 80 1C 24 80 45 02  .....s087...$.E.
0B70: 80 F8 FF FF 7F F8 FF FF  7F 66 64 69 31 00 80 2B  .........fdi1..+
0B80: 84 91 01 01 69 80 23 52  23 80 F8 FF FF 7F F8 FF  ....i.#R#.......
0B90: FF 7F 73 30 38 37 45 23  80 F8 FF FF 7F F8 FF FF  ..s087E#........
0BA0: 7F 73 30 38 38 00 80 81  01 84 91 01 01 5B 62 80  .s088........[b.
0BB0: 84 91 01 01 84 91 01 01  74 68 6B 31 2B 84 91 01  ........thk1+...
0BC0: 01 6A 80 23 24 6B 80 00  80 00 80 25 02 00 10 00  .j.#$k.....%....
0BD0: 80 00 D7 0B 01 D7 0B 5B  62 80 84 91 01 01 84 91  .......[b.......
0BE0: 01 01 79 65 73 30 52 23  80 F8 FF FF 7F F8 FF FF  ..yes0R#........
0BF0: 7F 73 30 38 38 45 23 80  F8 FF FF 7F F8 FF FF 7F  .s088E#.........
0C00: 73 30 38 39 00 80 2B 84  91 01 01 6C 80 23 2B 84  s089..+....l.#+.
0C10: 91 01 01 6D 80 23 5D 00  80 01 80 45 02 80 F8 FF  ...m.#]....E....
0C20: FF 7F F8 FF FF 7F 66 64  6F 31 00 80 55 02 80 F8  ......fdo1..U...
0C30: FF FF 7F F8 FF FF 7F 66  64 6F 31 52 23 80 F8 FF  .......fdo1R#...
0C40: FF 7F F8 FF FF 7F 73 30  38 39 5C 00 6E 80 5C 01  ......s089\.n.\.
0C50: 6E 80 9A 46 00 45 02 80  F8 FF FF 7F F8 FF FF 7F  n..F.E..........
0C60: 66 64 69 32 00 80 21 00                           fdi2..!.        
```

#### Opcodes

```
  0: 0x0001 [0x42] SET_CLI_EVENT_CANCEL_DATA()
  1: 0x0002 [0x5D] SET_MUSIC_VOLUME(volume=0*, fade_time=120*)
  2: 0x0007 [0x45] LOAD_SCHEDULED_TASK: Load scheduler "fdo1" with entities [EventEntity, EventEntity], work=[200*, 0*]
  3: 0x0018 [0x55] WAIT_LOAD_SCHEDULER: Wait for scheduler "fdo1" with entities [EventEntity, EventEntity], work=200*
  4: 0x0027 [0x46] CAMERA_CONTROL: Disable user control
  5: 0x0029 [0x38] SET_CLIENT_EVENT_MODE(mode=27*)
  6: 0x002C [0x2F] Iroha (ID: 16880004/0x01019184)->Render.Flags0 &= ~0x80000 // Bit 19
  7: 0x0032 [0x2F] Unnamed NPC (ID: 16880006/0x01019186)->Render.Flags0 &= ~0x80000 // Bit 19
  8: 0x0038 [0x2F] Unnamed NPC (ID: 16880007/0x01019187)->Render.Flags0 &= ~0x80000 // Bit 19
  9: 0x003E [0x2F] Unnamed NPC (ID: 16880008/0x01019188)->Render.Flags0 &= ~0x80000 // Bit 19
 10: 0x0044 [0x2F] Unnamed NPC (ID: 16880009/0x01019189)->Render.Flags0 &= ~0x80000 // Bit 19
 11: 0x004A [0x2F] Unnamed NPC (ID: 16880010/0x0101918A)->Render.Flags0 &= ~0x80000 // Bit 19
 12: 0x0050 [0x4E] SET_ENTITY_HIDE_FLAG: Show Iroha (ID: 16880004/0x01019184)
 13: 0x0056 [0x4E] SET_ENTITY_HIDE_FLAG: Show Unnamed NPC (ID: 16880006/0x01019186)
 14: 0x005C [0x4E] SET_ENTITY_HIDE_FLAG: Show Unnamed NPC (ID: 16880007/0x01019187)
 15: 0x0062 [0x4E] SET_ENTITY_HIDE_FLAG: Show Unnamed NPC (ID: 16880008/0x01019188)
 16: 0x0068 [0x4E] SET_ENTITY_HIDE_FLAG: Show Unnamed NPC (ID: 16880009/0x01019189)
 17: 0x006E [0x4E] SET_ENTITY_HIDE_FLAG: Show Unnamed NPC (ID: 16880010/0x0101918A)
 18: 0x0074 [0x92] Iroha (ID: 16880004/0x01019184)->Render.Flags3 ^= 0x01
 19: 0x007A [0x92] Undulating Confluence (ID: 16880000/0x01019180)->Render.Flags3 ^= 0x01
 20: 0x0080 [0x94] Iroha (ID: 16880004/0x01019184)->Render.Flags3 ^= 0x01
 21: 0x0086 [0x94] LocalPlayer->Render.Flags3 ^= 0x01
 22: 0x008C [0x94] Unnamed NPC (ID: 16880006/0x01019186)->Render.Flags3 ^= 0x01
 23: 0x0092 [0x94] Unnamed NPC (ID: 16880007/0x01019187)->Render.Flags3 ^= 0x01
 24: 0x0098 [0x94] Unnamed NPC (ID: 16880008/0x01019188)->Render.Flags3 ^= 0x01
 25: 0x009E [0x94] Unnamed NPC (ID: 16880009/0x01019189)->Render.Flags3 ^= 0x01
 26: 0x00A4 [0x94] Unnamed NPC (ID: 16880010/0x0101918A)->Render.Flags3 ^= 0x01
 27: 0x00AA [0x02] IF !(LocalPlayer->Race == 5*) GOTO 0x00BC
 28: 0x00B2 [0x27] REQ_SET(priority=0x05, entity_id=LocalPlayer, tag_num=0x4B)
 29: 0x00B9 [0x01] GOTO 0x00F9
 30: 0x00BC [0x02] IF !(LocalPlayer->Race == 6*) GOTO 0x00CE
 31: 0x00C4 [0x27] REQ_SET(priority=0x05, entity_id=LocalPlayer, tag_num=0x4B)
 32: 0x00CB [0x01] GOTO 0x00F9
 33: 0x00CE [0x02] IF !(LocalPlayer->Race == 7*) GOTO 0x00E0
 34: 0x00D6 [0x27] REQ_SET(priority=0x05, entity_id=LocalPlayer, tag_num=0x4C)
 35: 0x00DD [0x01] GOTO 0x00F9
 36: 0x00E0 [0x02] IF !(LocalPlayer->Race == 8*) GOTO 0x00F2
 37: 0x00E8 [0x27] REQ_SET(priority=0x05, entity_id=LocalPlayer, tag_num=0x4D)
 38: 0x00EF [0x01] GOTO 0x00F9
 39: 0x00F2 [0x27] REQ_SET(priority=0x05, entity_id=LocalPlayer, tag_num=0x4E)

SUBROUTINE_00F9:
 40: 0x00F9 [0xBA] SET_ENTITY_POSITION(entity_id=Iroha (ID: 16880004/0x01019184), pos_x=-42.523*, pos_z=566.596*, pos_y=-23.892*, direction=109.5°*)
 41: 0x0106 [0xBA] SET_ENTITY_POSITION(entity_id=LocalPlayer, pos_x=-29.818*, pos_z=564.268*, pos_y=-23.659*, direction=148.1°*)
 42: 0x0113 [0xBA] SET_ENTITY_POSITION(entity_id=Unnamed NPC (ID: 16880006/0x01019186), pos_x=-44.124*, pos_z=561.868*, pos_y=-23.998*, direction=293.5°*)
 43: 0x0120 [0xBA] SET_ENTITY_POSITION(entity_id=Unnamed NPC (ID: 16880007/0x01019187), pos_x=-40.167*, pos_z=561.763*, pos_y=-24.000*, direction=251.8°*)
 44: 0x012D [0xBA] SET_ENTITY_POSITION(entity_id=Unnamed NPC (ID: 16880008/0x01019188), pos_x=-47.352*, pos_z=564.606*, pos_y=-23.716*, direction=109.5°*)
 45: 0x013A [0xBA] SET_ENTITY_POSITION(entity_id=Unnamed NPC (ID: 16880009/0x01019189), pos_x=-39.787*, pos_z=569.479*, pos_y=-23.819*, direction=148.1°*)
 46: 0x0147 [0xBA] SET_ENTITY_POSITION(entity_id=Unnamed NPC (ID: 16880010/0x0101918A), pos_x=-44.295*, pos_z=570.400*, pos_y=-23.639*, direction=64.6°*)
 47: 0x0154 [0x80] LOAD_WAIT(entity=Iroha (ID: 16880004/0x01019184))
 48: 0x0159 [0x80] LOAD_WAIT(entity=LocalPlayer)
 49: 0x015E [0x80] LOAD_WAIT(entity=Unnamed NPC (ID: 16880006/0x01019186))
 50: 0x0163 [0x80] LOAD_WAIT(entity=Unnamed NPC (ID: 16880007/0x01019187))
 51: 0x0168 [0x80] LOAD_WAIT(entity=Unnamed NPC (ID: 16880008/0x01019188))
 52: 0x016D [0x80] LOAD_WAIT(entity=Unnamed NPC (ID: 16880009/0x01019189))
 53: 0x0172 [0x80] LOAD_WAIT(entity=Unnamed NPC (ID: 16880010/0x0101918A))
 54: 0x0177 [0x80] LOAD_WAIT(entity=Undulating Confluence (ID: 16880000/0x01019180))
 55: 0x017C [0x1C] WAIT(30* ticks)
 56: 0x017F [0x2C] CREATE_SCHEDULER_TASK: Create scheduler "corp" with entities [Unnamed NPC (ID: 16880007/0x01019187), Unnamed NPC (ID: 16880007/0x01019187)]
 57: 0x018C [0x2C] CREATE_SCHEDULER_TASK: Create scheduler "corp" with entities [Unnamed NPC (ID: 16880008/0x01019188), Unnamed NPC (ID: 16880008/0x01019188)]
 58: 0x0199 [0x2C] CREATE_SCHEDULER_TASK: Create scheduler "corp" with entities [Unnamed NPC (ID: 16880009/0x01019189), Unnamed NPC (ID: 16880009/0x01019189)]
 59: 0x01A6 [0x2C] CREATE_SCHEDULER_TASK: Create scheduler "corp" with entities [Unnamed NPC (ID: 16880010/0x0101918A), Unnamed NPC (ID: 16880010/0x0101918A)]
 60: 0x01B3 [0x1C] WAIT(30* ticks)
 61: 0x01B6 [0x45] LOAD_SCHEDULED_TASK: Load scheduler "s064" with entities [EventEntity, EventEntity], work=[770*, 0*]
 62: 0x01C7 [0x1C] WAIT(15* ticks)
 63: 0x01CA [0x45] LOAD_SCHEDULED_TASK: Load scheduler "fdi1" with entities [EventEntity, EventEntity], work=[200*, 0*]
 64: 0x01DB [0x2C] CREATE_SCHEDULER_TASK: Create scheduler "dead" with entities [Unnamed NPC (ID: 16880006/0x01019186), Unnamed NPC (ID: 16880006/0x01019186)]
 65: 0x01E8 [0x1C] WAIT(120* ticks)
 66: 0x01EB [0x9F] LOAD_SCHEDULED_TASK_ALT: Load scheduler "str0" with entities [EventEntity, EventEntity], work=[127*, 0*]
 67: 0x01FC [0x1C] WAIT(15* ticks)
 68: 0x01FF [0x9F] LOAD_SCHEDULED_TASK_ALT: Load scheduler "kill" with entities [EventEntity, EventEntity], work=[127*, 0*]
 69: 0x0210 [0x1C] WAIT(30* ticks)
 70: 0x0213 [0x52] END_LOAD_SCHEDULER: End scheduler "s064" with entities [EventEntity, EventEntity], work=770*
 71: 0x0222 [0x45] LOAD_SCHEDULED_TASK: Load scheduler "s065" with entities [EventEntity, EventEntity], work=[770*, 0*]
 72: 0x0233 [0x1C] WAIT(100* ticks)
 73: 0x0236 [0x27] REQ_SET(priority=0x05, entity_id=LocalPlayer, tag_num=0x48)
 74: 0x023D [0x1C] WAIT(20* ticks)
 75: 0x0240 [0x52] END_LOAD_SCHEDULER: End scheduler "s065" with entities [EventEntity, EventEntity], work=770*
 76: 0x024F [0x45] LOAD_SCHEDULED_TASK: Load scheduler "s066" with entities [EventEntity, EventEntity], work=[770*, 0*]
 77: 0x0260 [0x27] REQ_SET(priority=0x05, entity_id=Iroha (ID: 16880004/0x01019184), tag_num=0x05)
 78: 0x0267 [0x1C] WAIT(120* ticks)
 79: 0x026A [0x45] LOAD_SCHEDULED_TASK: Load scheduler "fdo1" with entities [EventEntity, EventEntity], work=[200*, 0*]
 80: 0x027B [0x55] WAIT_LOAD_SCHEDULER: Wait for scheduler "fdo1" with entities [EventEntity, EventEntity], work=200*
 81: 0x028A [0x52] END_LOAD_SCHEDULER: End scheduler "s066" with entities [EventEntity, EventEntity], work=770*
 82: 0x0299 [0x4E] SET_ENTITY_HIDE_FLAG: Hide Unnamed NPC (ID: 16880007/0x01019187)
 83: 0x029F [0x4E] SET_ENTITY_HIDE_FLAG: Hide Unnamed NPC (ID: 16880008/0x01019188)
 84: 0x02A5 [0x4E] SET_ENTITY_HIDE_FLAG: Hide Unnamed NPC (ID: 16880009/0x01019189)
 85: 0x02AB [0x4E] SET_ENTITY_HIDE_FLAG: Hide Unnamed NPC (ID: 16880010/0x0101918A)
 86: 0x02B1 [0x27] REQ_SET(priority=0x05, entity_id=Unnamed NPC (ID: 16880006/0x01019186), tag_num=0x02)
 87: 0x02B8 [0x29] REQ_SET_WAIT(priority=0x05, entity_id=Iroha (ID: 16880004/0x01019184), tag_num=0x06)
 88: 0x02BF [0xBA] SET_ENTITY_POSITION(entity_id=Unnamed NPC (ID: 16880006/0x01019186), pos_x=-38.936*, pos_z=566.969*, pos_y=-23.932*, direction=173.6°*)
 89: 0x02CC [0x80] LOAD_WAIT(entity=Unnamed NPC (ID: 16880006/0x01019186))
 90: 0x02D1 [0x4A] Iroha (ID: 16880004/0x01019184) looks at LocalPlayer
 91: 0x02DA [0x1C] WAIT(30* ticks)
 92: 0x02DD [0x02] IF !(LocalPlayer->Race == 1*) GOTO 0x02F8
 93: 0x02E5 [0x5F] MULTI_HANDLER_COMPLEX(mode=0x03 - Load ext scheduler (OpCode 0x5B mode 0), ref=3878*, entity1=Unnamed NPC (ID: 16880006/0x01019186), entity2=Unnamed NPC (ID: 16880006/0x01019186), string="hmml")
 94: 0x02F5 [0x01] GOTO 0x03B5
 95: 0x02F8 [0x02] IF !(LocalPlayer->Race == 2*) GOTO 0x0313
 96: 0x0300 [0x5F] MULTI_HANDLER_COMPLEX(mode=0x03 - Load ext scheduler (OpCode 0x5B mode 0), ref=3878*, entity1=Unnamed NPC (ID: 16880006/0x01019186), entity2=Unnamed NPC (ID: 16880006/0x01019186), string="hfml")
 97: 0x0310 [0x01] GOTO 0x03B5
 98: 0x0313 [0x02] IF !(LocalPlayer->Race == 3*) GOTO 0x032E
 99: 0x031B [0x5F] MULTI_HANDLER_COMPLEX(mode=0x03 - Load ext scheduler (OpCode 0x5B mode 0), ref=3878*, entity1=Unnamed NPC (ID: 16880006/0x01019186), entity2=Unnamed NPC (ID: 16880006/0x01019186), string="emml")
100: 0x032B [0x01] GOTO 0x03B5
101: 0x032E [0x02] IF !(LocalPlayer->Race == 4*) GOTO 0x0349
102: 0x0336 [0x5F] MULTI_HANDLER_COMPLEX(mode=0x03 - Load ext scheduler (OpCode 0x5B mode 0), ref=3878*, entity1=Unnamed NPC (ID: 16880006/0x01019186), entity2=Unnamed NPC (ID: 16880006/0x01019186), string="efml")
103: 0x0346 [0x01] GOTO 0x03B5
104: 0x0349 [0x02] IF !(LocalPlayer->Race == 5*) GOTO 0x0364
105: 0x0351 [0x5F] MULTI_HANDLER_COMPLEX(mode=0x03 - Load ext scheduler (OpCode 0x5B mode 0), ref=3878*, entity1=Unnamed NPC (ID: 16880006/0x01019186), entity2=Unnamed NPC (ID: 16880006/0x01019186), string="tmal")
106: 0x0361 [0x01] GOTO 0x03B5
107: 0x0364 [0x02] IF !(LocalPlayer->Race == 6*) GOTO 0x037F
108: 0x036C [0x5F] MULTI_HANDLER_COMPLEX(mode=0x03 - Load ext scheduler (OpCode 0x5B mode 0), ref=3878*, entity1=Unnamed NPC (ID: 16880006/0x01019186), entity2=Unnamed NPC (ID: 16880006/0x01019186), string="tmal")
109: 0x037C [0x01] GOTO 0x03B5
110: 0x037F [0x02] IF !(LocalPlayer->Race == 7*) GOTO 0x039A
111: 0x0387 [0x5F] MULTI_HANDLER_COMPLEX(mode=0x03 - Load ext scheduler (OpCode 0x5B mode 0), ref=3878*, entity1=Unnamed NPC (ID: 16880006/0x01019186), entity2=Unnamed NPC (ID: 16880006/0x01019186), string="mmal")
112: 0x0397 [0x01] GOTO 0x03B5
113: 0x039A [0x02] IF !(LocalPlayer->Race == 8*) GOTO 0x03B5
114: 0x03A2 [0x5F] MULTI_HANDLER_COMPLEX(mode=0x03 - Load ext scheduler (OpCode 0x5B mode 0), ref=3878*, entity1=Unnamed NPC (ID: 16880006/0x01019186), entity2=Unnamed NPC (ID: 16880006/0x01019186), string="gmal")
115: 0x03B2 [0x01] GOTO 0x03B5

SUBROUTINE_03B5:
116: 0x03B5 [0x1C] WAIT(30* ticks)
117: 0x03B8 [0x5C] MUSIC_CONTROL: Set Idle (Day) music to song 79*
118: 0x03BC [0x5C] MUSIC_CONTROL: Set Idle (Night) music to song 79*
119: 0x03C0 [0x9A] WAIT_MUSIC_SERVER()
120: 0x03C1 [0x45] LOAD_SCHEDULED_TASK: Load scheduler "s067" with entities [EventEntity, EventEntity], work=[770*, 0*]
121: 0x03D2 [0x1C] WAIT(15* ticks)
122: 0x03D5 [0x45] LOAD_SCHEDULED_TASK: Load scheduler "fdi1" with entities [EventEntity, EventEntity], work=[200*, 0*]
123: 0x03E6 [0x2B] Iroha (ID: 16880004/0x01019184) [8741*]:
    → "M-Master..."
124: 0x03ED [0x23] WAIT_FOR_DIALOG_INTERACTION
125: 0x03EE [0x52] END_LOAD_SCHEDULER: End scheduler "s067" with entities [EventEntity, EventEntity], work=770*
126: 0x03FD [0x45] LOAD_SCHEDULED_TASK: Load scheduler "s068" with entities [EventEntity, EventEntity], work=[770*, 0*]
127: 0x040E [0x24] CREATE_DIALOG(message_id=8742*, default_option=0*, option_flags=0*)
    → "How do you respond? [Good to see you again./What are you doing here?/Is everything all right?]"
128: 0x0415 [0x25] WAIT_DIALOG_SELECT()
129: 0x0416 [0x02] IF !(Work_Zone[0] == 0*) GOTO 0x0460
130: 0x041E [0x52] END_LOAD_SCHEDULER: End scheduler "s068" with entities [EventEntity, EventEntity], work=770*
131: 0x042D [0x45] LOAD_SCHEDULED_TASK: Load scheduler "s069" with entities [EventEntity, EventEntity], work=[770*, 0*]
132: 0x043E [0x5B] LOAD_EXT_SCHEDULER: Load scheduler "tlc0" with entities [Iroha (ID: 16880004/0x01019184), Iroha (ID: 16880004/0x01019184)], work=3863*
133: 0x044D [0x2B] Iroha (ID: 16880004/0x01019184) [8743*]:
    → "It is. Seeing you well does my heart good."
134: 0x0454 [0x23] WAIT_FOR_DIALOG_INTERACTION
135: 0x0455 [0x2B] Iroha (ID: 16880004/0x01019184) [8744*]:
    → "Be not concerned for my health. I have made a bit of a recovery."
136: 0x045C [0x23] WAIT_FOR_DIALOG_INTERACTION
137: 0x045D [0x01] GOTO 0x04F4
138: 0x0460 [0x02] IF !(Work_Zone[0] == 1*) GOTO 0x04AA
139: 0x0468 [0x52] END_LOAD_SCHEDULER: End scheduler "s068" with entities [EventEntity, EventEntity], work=770*
140: 0x0477 [0x45] LOAD_SCHEDULED_TASK: Load scheduler "s069" with entities [EventEntity, EventEntity], work=[770*, 0*]
141: 0x0488 [0x5B] LOAD_EXT_SCHEDULER: Load scheduler "tlc0" with entities [Iroha (ID: 16880004/0x01019184), Iroha (ID: 16880004/0x01019184)], work=3863*
142: 0x0497 [0x2B] Iroha (ID: 16880004/0x01019184) [8745*]:
    → "I have been practicing the lessons you have shown me...or rather will have shown me in the future."
143: 0x049E [0x23] WAIT_FOR_DIALOG_INTERACTION
144: 0x049F [0x2B] Iroha (ID: 16880004/0x01019184) [8746*]:
    → "But be not concerned for my health. I have made a bit of a recovery."
145: 0x04A6 [0x23] WAIT_FOR_DIALOG_INTERACTION
146: 0x04A7 [0x01] GOTO 0x04F4
147: 0x04AA [0x02] IF !(Work_Zone[0] == 2*) GOTO 0x04F4
148: 0x04B2 [0x52] END_LOAD_SCHEDULER: End scheduler "s068" with entities [EventEntity, EventEntity], work=770*
149: 0x04C1 [0x45] LOAD_SCHEDULED_TASK: Load scheduler "s069" with entities [EventEntity, EventEntity], work=[770*, 0*]
150: 0x04D2 [0x5B] LOAD_EXT_SCHEDULER: Load scheduler "tlc0" with entities [Iroha (ID: 16880004/0x01019184), Iroha (ID: 16880004/0x01019184)], work=3863*
151: 0x04E1 [0x2B] Iroha (ID: 16880004/0x01019184) [8747*]:
    → "Once again, your compassion knows no bounds."
152: 0x04E8 [0x23] WAIT_FOR_DIALOG_INTERACTION
153: 0x04E9 [0x2B] Iroha (ID: 16880004/0x01019184) [8748*]:
    → "I have made a bit of recovery and feel ready to move mountains."
154: 0x04F0 [0x23] WAIT_FOR_DIALOG_INTERACTION
155: 0x04F1 [0x01] GOTO 0x04F4

SUBROUTINE_04F4:
156: 0x04F4 [0x45] LOAD_SCHEDULED_TASK: Load scheduler "fdo1" with entities [EventEntity, EventEntity], work=[200*, 0*]
157: 0x0505 [0x55] WAIT_LOAD_SCHEDULER: Wait for scheduler "fdo1" with entities [EventEntity, EventEntity], work=200*
158: 0x0514 [0x52] END_LOAD_SCHEDULER: End scheduler "s069" with entities [EventEntity, EventEntity], work=770*
159: 0x0523 [0x6B] STOP_AND_IDLE: Iroha (ID: 16880004/0x01019184) stops current action and resets to idle (animation="idl0")
160: 0x052C [0x6B] STOP_AND_IDLE: Unnamed NPC (ID: 16880007/0x01019187) stops current action and resets to idle (animation="idl0")
161: 0x0535 [0x4E] SET_ENTITY_HIDE_FLAG: Hide LocalPlayer
162: 0x053B [0x4E] SET_ENTITY_HIDE_FLAG: Show Unnamed NPC (ID: 16880007/0x01019187)
163: 0x0541 [0x29] REQ_SET_WAIT(priority=0x05, entity_id=Unnamed NPC (ID: 16880007/0x01019187), tag_num=0x02)
164: 0x0548 [0x59] UPDATE_ENTITY_DATA: Unnamed NPC (ID: 16880007/0x01019187)->Render.Flags0 |= 0x200000
165: 0x054F [0xBA] SET_ENTITY_POSITION(entity_id=Unnamed NPC (ID: 16880007/0x01019187), pos_x=-54.089*, pos_z=567.623*, pos_y=-24.466*, direction=173.6°*)
166: 0x055C [0xBA] SET_ENTITY_POSITION(entity_id=Iroha (ID: 16880004/0x01019184), pos_x=-48.119*, pos_z=565.981*, pos_y=-23.507*, direction=173.6°*)
167: 0x0569 [0x80] LOAD_WAIT(entity=Iroha (ID: 16880004/0x01019184))
168: 0x056E [0x80] LOAD_WAIT(entity=Unnamed NPC (ID: 16880007/0x01019187))
169: 0x0573 [0x4A] Iroha (ID: 16880004/0x01019184) looks at Unnamed NPC (ID: 16880007/0x01019187)
170: 0x057C [0x4A] Unnamed NPC (ID: 16880007/0x01019187) looks at Iroha (ID: 16880004/0x01019184)
171: 0x0585 [0x7B] Unnamed NPC (ID: 16880007/0x01019187) stops talking
172: 0x058A [0x1C] WAIT(30* ticks)
173: 0x058D [0x7C] Iroha (ID: 16880004/0x01019184)->Render.Flags2 |= 0x00
174: 0x0593 [0x45] LOAD_SCHEDULED_TASK: Load scheduler "s070" with entities [EventEntity, EventEntity], work=[770*, 0*]
175: 0x05A4 [0x1C] WAIT(15* ticks)
176: 0x05A7 [0x45] LOAD_SCHEDULED_TASK: Load scheduler "efon" with entities [LocalPlayer, LocalPlayer], work=[215*, 0*]
177: 0x05B8 [0x55] WAIT_LOAD_SCHEDULER: Wait for scheduler "efon" with entities [LocalPlayer, LocalPlayer], work=215*
178: 0x05C7 [0x2B] Iroha (ID: 16880004/0x01019184) [8749*]:
    → "...I must let you know that I chanced upon Siren once more."
179: 0x05CE [0x23] WAIT_FOR_DIALOG_INTERACTION
180: 0x05CF [0x52] END_LOAD_SCHEDULER: End scheduler "s070" with entities [EventEntity, EventEntity], work=770*
181: 0x05DE [0x45] LOAD_SCHEDULED_TASK: Load scheduler "s071" with entities [EventEntity, EventEntity], work=[770*, 0*]
182: 0x05EF [0x2B] Iroha (ID: 16880004/0x01019184) [8750*]:
    → "She told me something that perhaps you already know: "Your presence here brings naught but chaos to this world.""
183: 0x05F6 [0x23] WAIT_FOR_DIALOG_INTERACTION
184: 0x05F7 [0x52] END_LOAD_SCHEDULER: End scheduler "s071" with entities [EventEntity, EventEntity], work=770*
185: 0x0606 [0x45] LOAD_SCHEDULED_TASK: Load scheduler "s072" with entities [EventEntity, EventEntity], work=[770*, 0*]
186: 0x0617 [0x2B] Iroha (ID: 16880004/0x01019184) [8751*]:
    → "She also curiously explained that this was the case for herself as well."
187: 0x061E [0x23] WAIT_FOR_DIALOG_INTERACTION
188: 0x061F [0x45] LOAD_SCHEDULED_TASK: Load scheduler "fdo1" with entities [EventEntity, EventEntity], work=[200*, 0*]
189: 0x0630 [0x55] WAIT_LOAD_SCHEDULER: Wait for scheduler "fdo1" with entities [EventEntity, EventEntity], work=200*
190: 0x063F [0x52] END_LOAD_SCHEDULER: End scheduler "s072" with entities [EventEntity, EventEntity], work=770*
191: 0x064E [0x27] REQ_SET(priority=0x05, entity_id=Unnamed NPC (ID: 16880007/0x01019187), tag_num=0x03)
192: 0x0655 [0x4E] SET_ENTITY_HIDE_FLAG: Hide Unnamed NPC (ID: 16880007/0x01019187)
193: 0x065B [0x4E] SET_ENTITY_HIDE_FLAG: Show LocalPlayer
194: 0x0661 [0xBA] SET_ENTITY_POSITION(entity_id=Iroha (ID: 16880004/0x01019184), pos_x=-42.523*, pos_z=566.596*, pos_y=-23.892*, direction=109.5°*)
195: 0x066E [0x80] LOAD_WAIT(entity=Iroha (ID: 16880004/0x01019184))
196: 0x0673 [0x80] LOAD_WAIT(entity=LocalPlayer)
197: 0x0678 [0x4A] Iroha (ID: 16880004/0x01019184) looks at LocalPlayer
198: 0x0681 [0x1C] WAIT(30* ticks)
199: 0x0684 [0x7C] Iroha (ID: 16880004/0x01019184)->Render.Flags2 |= 0x01
200: 0x068A [0x5B] LOAD_EXT_SCHEDULER: Load scheduler "tlk0" with entities [Iroha (ID: 16880004/0x01019184), Iroha (ID: 16880004/0x01019184)], work=3861*
201: 0x0699 [0x45] LOAD_SCHEDULED_TASK: Load scheduler "s073" with entities [EventEntity, EventEntity], work=[770*, 0*]
202: 0x06AA [0x1C] WAIT(15* ticks)
203: 0x06AD [0x45] LOAD_SCHEDULED_TASK: Load scheduler "fdi1" with entities [EventEntity, EventEntity], work=[200*, 0*]
204: 0x06BE [0x2B] Iroha (ID: 16880004/0x01019184) [8752*]:
    → "But her situation is a trifle different, for her incarnation already exists in this time."
205: 0x06C5 [0x23] WAIT_FOR_DIALOG_INTERACTION
206: 0x06C6 [0x52] END_LOAD_SCHEDULER: End scheduler "s073" with entities [EventEntity, EventEntity], work=770*
207: 0x06D5 [0x45] LOAD_SCHEDULED_TASK: Load scheduler "s074" with entities [EventEntity, EventEntity], work=[770*, 0*]
208: 0x06E6 [0x7B] Iroha (ID: 16880004/0x01019184) stops talking
209: 0x06EB [0x5B] LOAD_EXT_SCHEDULER: Load scheduler "tlk1" with entities [Iroha (ID: 16880004/0x01019184), Iroha (ID: 16880004/0x01019184)], work=3861*
210: 0x06FA [0x2B] Iroha (ID: 16880004/0x01019184) [8753*]:
    → "If the two were to join, a small semblance of order would return, perhaps causing one of the rifts to close."
211: 0x0701 [0x23] WAIT_FOR_DIALOG_INTERACTION
212: 0x0702 [0x52] END_LOAD_SCHEDULER: End scheduler "s074" with entities [EventEntity, EventEntity], work=770*
213: 0x0711 [0x45] LOAD_SCHEDULED_TASK: Load scheduler "s075" with entities [EventEntity, EventEntity], work=[770*, 0*]
214: 0x0722 [0x5B] LOAD_EXT_SCHEDULER: Load scheduler "som0" with entities [Iroha (ID: 16880004/0x01019184), Iroha (ID: 16880004/0x01019184)], work=3859*
215: 0x0731 [0x2B] Iroha (ID: 16880004/0x01019184) [8754*]:
    → "...And compared to that, my existence is an affront to all nature."
216: 0x0738 [0x1C] WAIT(100* ticks)
217: 0x073B [0x23] WAIT_FOR_DIALOG_INTERACTION
218: 0x073C [0x52] END_LOAD_SCHEDULER: End scheduler "s075" with entities [EventEntity, EventEntity], work=770*
219: 0x074B [0x45] LOAD_SCHEDULED_TASK: Load scheduler "s076" with entities [EventEntity, EventEntity], work=[770*, 0*]
220: 0x075C [0x6E] LocalPlayer uses emote 29*
221: 0x0763 [0x99] Wait for LocalPlayer animation to complete
222: 0x0768 [0x1C] WAIT(120* ticks)
223: 0x076B [0x5B] LOAD_EXT_SCHEDULER: Load scheduler "som1" with entities [Iroha (ID: 16880004/0x01019184), Iroha (ID: 16880004/0x01019184)], work=3859*
224: 0x077A [0x52] END_LOAD_SCHEDULER: End scheduler "s076" with entities [EventEntity, EventEntity], work=770*
225: 0x0789 [0x45] LOAD_SCHEDULED_TASK: Load scheduler "s077" with entities [EventEntity, EventEntity], work=[770*, 0*]
226: 0x079A [0x2B] Iroha (ID: 16880004/0x01019184) [8755*]:
    → "Ooof... I did not mean to trouble you so."
227: 0x07A1 [0x23] WAIT_FOR_DIALOG_INTERACTION
228: 0x07A2 [0x2B] Iroha (ID: 16880004/0x01019184) [8756*]:
    → "Master, your orb has been blessed with even more power than before, has it not?"
229: 0x07A9 [0x23] WAIT_FOR_DIALOG_INTERACTION
230: 0x07AA [0x52] END_LOAD_SCHEDULER: End scheduler "s077" with entities [EventEntity, EventEntity], work=770*
231: 0x07B9 [0x45] LOAD_SCHEDULED_TASK: Load scheduler "s078" with entities [EventEntity, EventEntity], work=[770*, 0*]
232: 0x07CA [0x6E] LocalPlayer uses emote 7*
233: 0x07D1 [0x99] Wait for LocalPlayer animation to complete
234: 0x07D6 [0x1C] WAIT(90* ticks)
235: 0x07D9 [0x7B] LocalPlayer stops talking
236: 0x07DE [0x27] REQ_SET(priority=0x05, entity_id=LocalPlayer, tag_num=0x4A)
237: 0x07E5 [0x1C] WAIT(150* ticks)
238: 0x07E8 [0xD0] LOAD_SCHEDULED_TASK_ALT5: Load scheduler "star" with entities [Unnamed NPC (ID: 16880006/0x01019186), Unnamed NPC (ID: 16880006/0x01019186)], work=[103*, 0*]
239: 0x07F9 [0x1C] WAIT(90* ticks)
240: 0x07FC [0x52] END_LOAD_SCHEDULER: End scheduler "s078" with entities [EventEntity, EventEntity], work=770*
241: 0x080B [0x45] LOAD_SCHEDULED_TASK: Load scheduler "s079" with entities [EventEntity, EventEntity], work=[770*, 0*]
242: 0x081C [0x5F] MULTI_HANDLER_COMPLEX(mode=0x05 - Load ext scheduler with flag (OpCode 0x5B mode 0, flag 1), ref=3863*, entity1=Iroha (ID: 16880004/0x01019184), entity2=Iroha (ID: 16880004/0x01019184), string="tlc0", extra=100*)
243: 0x082E [0x2B] Iroha (ID: 16880004/0x01019184) [8757*]:
    → "What a comforting glow..."
244: 0x0835 [0x23] WAIT_FOR_DIALOG_INTERACTION
245: 0x0836 [0x2B] Iroha (ID: 16880004/0x01019184) [8758*]:
    → "I have heard of such a phenomenon, but to witness it up close... I am deeply moved by all you have accomplished to get this far."
246: 0x083D [0x23] WAIT_FOR_DIALOG_INTERACTION
247: 0x083E [0x2B] Iroha (ID: 16880004/0x01019184) [8759*]:
    → "Many and more have supported you in your adventures throughout Vana'diel."
248: 0x0845 [0x23] WAIT_FOR_DIALOG_INTERACTION
249: 0x0846 [0x5F] MULTI_HANDLER_COMPLEX(mode=0x07 - Wait scheduler task (OpCode 0x53))
250: 0x0854 [0x52] END_LOAD_SCHEDULER: End scheduler "s079" with entities [EventEntity, EventEntity], work=770*
251: 0x0863 [0x45] LOAD_SCHEDULED_TASK: Load scheduler "s080" with entities [EventEntity, EventEntity], work=[770*, 0*]
252: 0x0874 [0x5B] LOAD_EXT_SCHEDULER: Load scheduler "fe01" with entities [Iroha (ID: 16880004/0x01019184), Iroha (ID: 16880004/0x01019184)], work=3858*
253: 0x0883 [0x2B] Iroha (ID: 16880004/0x01019184) [8760*]:
    → "This time, I can sense the presence of another who featured prominently in tales of your adventures: Lilisette."
254: 0x088A [0x23] WAIT_FOR_DIALOG_INTERACTION
255: 0x088B [0xD0] LOAD_SCHEDULED_TASK_ALT5: Load scheduler "kill" with entities [Unnamed NPC (ID: 16880006/0x01019186), Unnamed NPC (ID: 16880006/0x01019186)], work=[103*, 0*]
256: 0x089C [0x4E] SET_ENTITY_HIDE_FLAG: Hide Unnamed NPC (ID: 16880006/0x01019186)
257: 0x08A2 [0x79] LocalPlayer looks at Iroha (ID: 16880004/0x01019184) (Basic look)
258: 0x08AC [0x6B] STOP_AND_IDLE: LocalPlayer stops current action and resets to idle (animation="idl0")
259: 0x08B5 [0x1C] WAIT(30* ticks)
260: 0x08B8 [0x52] END_LOAD_SCHEDULER: End scheduler "s080" with entities [EventEntity, EventEntity], work=770*
261: 0x08C7 [0x45] LOAD_SCHEDULED_TASK: Load scheduler "s081" with entities [EventEntity, EventEntity], work=[770*, 0*]
262: 0x08D8 [0x5B] LOAD_EXT_SCHEDULER: Load scheduler "f001" with entities [Iroha (ID: 16880004/0x01019184), Iroha (ID: 16880004/0x01019184)], work=3858*
263: 0x08E7 [0x5B] LOAD_EXT_SCHEDULER: Load scheduler "tlc1" with entities [Iroha (ID: 16880004/0x01019184), Iroha (ID: 16880004/0x01019184)], work=3863*
264: 0x08F6 [0x2B] Iroha (ID: 16880004/0x01019184) [8761*]:
    → "And you have been assaulted by the ambassador once more!"
265: 0x08FD [0x23] WAIT_FOR_DIALOG_INTERACTION
266: 0x08FE [0x6E] LocalPlayer uses emote 7*
267: 0x0905 [0x99] Wait for LocalPlayer animation to complete
268: 0x090A [0x1C] WAIT(90* ticks)
269: 0x090D [0x52] END_LOAD_SCHEDULER: End scheduler "s081" with entities [EventEntity, EventEntity], work=770*
270: 0x091C [0x45] LOAD_SCHEDULED_TASK: Load scheduler "s082" with entities [EventEntity, EventEntity], work=[770*, 0*]
271: 0x092D [0x5B] LOAD_EXT_SCHEDULER: Load scheduler "tlk0" with entities [Iroha (ID: 16880004/0x01019184), Iroha (ID: 16880004/0x01019184)], work=3861*
272: 0x093C [0x2B] Iroha (ID: 16880004/0x01019184) [8762*]:
    → "You bested him?"
273: 0x0943 [0x23] WAIT_FOR_DIALOG_INTERACTION
274: 0x0944 [0x2B] Iroha (ID: 16880004/0x01019184) [8763*]:
    → "Master, your strength is boundless!"
275: 0x094B [0x23] WAIT_FOR_DIALOG_INTERACTION
276: 0x094C [0x5B] LOAD_EXT_SCHEDULER: Load scheduler "tlk1" with entities [Iroha (ID: 16880004/0x01019184), Iroha (ID: 16880004/0x01019184)], work=3861*
277: 0x095B [0x52] END_LOAD_SCHEDULER: End scheduler "s082" with entities [EventEntity, EventEntity], work=770*
278: 0x096A [0x45] LOAD_SCHEDULED_TASK: Load scheduler "s083" with entities [EventEntity, EventEntity], work=[770*, 0*]
279: 0x097B [0x6E] LocalPlayer uses emote 32*
280: 0x0982 [0x99] Wait for LocalPlayer animation to complete
281: 0x0987 [0x1C] WAIT(120* ticks)
282: 0x098A [0x5B] LOAD_EXT_SCHEDULER: Load scheduler "bik0" with entities [Iroha (ID: 16880004/0x01019184), Iroha (ID: 16880004/0x01019184)], work=3863*
283: 0x0999 [0x52] END_LOAD_SCHEDULER: End scheduler "s083" with entities [EventEntity, EventEntity], work=770*
284: 0x09A8 [0x45] LOAD_SCHEDULED_TASK: Load scheduler "s084" with entities [EventEntity, EventEntity], work=[770*, 0*]
285: 0x09B9 [0x2B] Iroha (ID: 16880004/0x01019184) [8764*]:
    → "But...he got away, and we are no closer to the truth than we were before?"
286: 0x09C0 [0x23] WAIT_FOR_DIALOG_INTERACTION
287: 0x09C1 [0x2B] Iroha (ID: 16880004/0x01019184) [8765*]:
    → "And there were others following in his stead!?"
288: 0x09C8 [0x23] WAIT_FOR_DIALOG_INTERACTION
289: 0x09C9 [0x52] END_LOAD_SCHEDULER: End scheduler "s084" with entities [EventEntity, EventEntity], work=770*
290: 0x09D8 [0x45] LOAD_SCHEDULED_TASK: Load scheduler "s085" with entities [EventEntity, EventEntity], work=[770*, 0*]
291: 0x09E9 [0x5B] LOAD_EXT_SCHEDULER: Load scheduler "bik1" with entities [Iroha (ID: 16880004/0x01019184), Iroha (ID: 16880004/0x01019184)], work=3863*
292: 0x09F8 [0x2B] Iroha (ID: 16880004/0x01019184) [8766*]:
    → "Please, share with me the story from the very beginning, and spare no detail."
293: 0x09FF [0x23] WAIT_FOR_DIALOG_INTERACTION
294: 0x0A00 [0x27] REQ_SET(priority=0x05, entity_id=LocalPlayer, tag_num=0x40)
295: 0x0A07 [0x1C] WAIT(80* ticks)
296: 0x0A0A [0x27] REQ_SET(priority=0x05, entity_id=LocalPlayer, tag_num=0x41)
297: 0x0A11 [0x1C] WAIT(40* ticks)
298: 0x0A14 [0x45] LOAD_SCHEDULED_TASK: Load scheduler "fdo1" with entities [EventEntity, EventEntity], work=[200*, 0*]
299: 0x0A25 [0x55] WAIT_LOAD_SCHEDULER: Wait for scheduler "fdo1" with entities [EventEntity, EventEntity], work=200*
300: 0x0A34 [0x52] END_LOAD_SCHEDULER: End scheduler "s085" with entities [EventEntity, EventEntity], work=770*
301: 0x0A43 [0x27] REQ_SET(priority=0x05, entity_id=Unnamed NPC (ID: 16880006/0x01019186), tag_num=0x03)
302: 0x0A4A [0x77] SET_EVENT_TIME_WEATHER(hour=0*, weather=1*)
303: 0x0A4F [0x2F] Kagero (ID: 16880003/0x01019183)->Render.Flags0 &= ~0x80000 // Bit 19
304: 0x0A55 [0x4E] SET_ENTITY_HIDE_FLAG: Show Kagero (ID: 16880003/0x01019183)
305: 0x0A5B [0x92] Kagero (ID: 16880003/0x01019183)->Render.Flags3 ^= 0x01
306: 0x0A61 [0x94] Kagero (ID: 16880003/0x01019183)->Render.Flags3 ^= 0x01
307: 0x0A67 [0x59] UPDATE_ENTITY_DATA: Kagero (ID: 16880003/0x01019183)->Render.Flags0 |= 0x200000
308: 0x0A6E [0xBA] SET_ENTITY_POSITION(entity_id=Kagero (ID: 16880003/0x01019183), pos_x=591.336*, pos_z=-262.671*, pos_y=-129.105*, direction=328.9°*)
309: 0x0A7B [0x80] LOAD_WAIT(entity=Kagero (ID: 16880003/0x01019183))
310: 0x0A80 [0x81] SET_ENTITY_BLINKING(blink_flag=0x00, entity=Iroha (ID: 16880004/0x01019184))
311: 0x0A86 [0x5B] LOAD_EXT_SCHEDULER: Load scheduler "thk0" with entities [Iroha (ID: 16880004/0x01019184), Iroha (ID: 16880004/0x01019184)], work=3862*
312: 0x0A95 [0x1C] WAIT(30* ticks)
313: 0x0A98 [0xD0] LOAD_SCHEDULED_TASK_ALT5: Load scheduler "s001" with entities [Kagero (ID: 16880003/0x01019183), Kagero (ID: 16880003/0x01019183)], work=[145*, 0*]
314: 0x0AA9 [0x1C] WAIT(30* ticks)
315: 0x0AAC [0x45] LOAD_SCHEDULED_TASK: Load scheduler "s086" with entities [EventEntity, EventEntity], work=[770*, 0*]
316: 0x0ABD [0x1C] WAIT(15* ticks)
317: 0x0AC0 [0x45] LOAD_SCHEDULED_TASK: Load scheduler "fdi1" with entities [EventEntity, EventEntity], work=[200*, 0*]
318: 0x0AD1 [0x5F] MULTI_HANDLER_COMPLEX(mode=0x05 - Load ext scheduler with flag (OpCode 0x5B mode 0, flag 1), ref=3802*, entity1=Kagero (ID: 16880003/0x01019183), entity2=Kagero (ID: 16880003/0x01019183), string="kam0", extra=480*)
319: 0x0AE3 [0xD0] LOAD_SCHEDULED_TASK_ALT5: Load scheduler "xc02" with entities [Kagero (ID: 16880003/0x01019183), Kagero (ID: 16880003/0x01019183)], work=[152*, 0*]
320: 0x0AF4 [0x2B] Iroha (ID: 16880004/0x01019184) [8767*]:
    → "He was wielding Excalibur? But...how?"
321: 0x0AFB [0x23] WAIT_FOR_DIALOG_INTERACTION
322: 0x0AFC [0x2B] Iroha (ID: 16880004/0x01019184) [8768*]:
    → "But only one of those exists in this world! How could he possibly... Unless..."
323: 0x0B03 [0x23] WAIT_FOR_DIALOG_INTERACTION
324: 0x0B04 [0x5F] MULTI_HANDLER_COMPLEX(mode=0x07 - Wait scheduler task (OpCode 0x53))
325: 0x0B12 [0x45] LOAD_SCHEDULED_TASK: Load scheduler "fdo1" with entities [EventEntity, EventEntity], work=[200*, 0*]
326: 0x0B23 [0x55] WAIT_LOAD_SCHEDULER: Wait for scheduler "fdo1" with entities [EventEntity, EventEntity], work=200*
327: 0x0B32 [0x52] END_LOAD_SCHEDULER: End scheduler "s086" with entities [EventEntity, EventEntity], work=770*
328: 0x0B41 [0x78] ENABLE_GAME_TIMER_RESET_WEATHER()
329: 0x0B42 [0xD0] LOAD_SCHEDULED_TASK_ALT5: Load scheduler "kl01" with entities [Kagero (ID: 16880003/0x01019183), Kagero (ID: 16880003/0x01019183)], work=[145*, 0*]
330: 0x0B53 [0x27] REQ_SET(priority=0x05, entity_id=Kagero (ID: 16880003/0x01019183), tag_num=0x02)
331: 0x0B5A [0x45] LOAD_SCHEDULED_TASK: Load scheduler "s087" with entities [EventEntity, EventEntity], work=[770*, 0*]
332: 0x0B6B [0x1C] WAIT(15* ticks)
333: 0x0B6E [0x45] LOAD_SCHEDULED_TASK: Load scheduler "fdi1" with entities [EventEntity, EventEntity], work=[200*, 0*]
334: 0x0B7F [0x2B] Iroha (ID: 16880004/0x01019184) [8769*]:
    → "Why would he single you out for assault?"
335: 0x0B86 [0x23] WAIT_FOR_DIALOG_INTERACTION
336: 0x0B87 [0x52] END_LOAD_SCHEDULER: End scheduler "s087" with entities [EventEntity, EventEntity], work=770*
337: 0x0B96 [0x45] LOAD_SCHEDULED_TASK: Load scheduler "s088" with entities [EventEntity, EventEntity], work=[770*, 0*]
338: 0x0BA7 [0x81] SET_ENTITY_BLINKING(blink_flag=0x01, entity=Iroha (ID: 16880004/0x01019184))
339: 0x0BAD [0x5B] LOAD_EXT_SCHEDULER: Load scheduler "thk1" with entities [Iroha (ID: 16880004/0x01019184), Iroha (ID: 16880004/0x01019184)], work=3862*
340: 0x0BBC [0x2B] Iroha (ID: 16880004/0x01019184) [8770*]:
    → "Master, I require further training at once! Will you show me all I need to know?"
341: 0x0BC3 [0x23] WAIT_FOR_DIALOG_INTERACTION
342: 0x0BC4 [0x24] CREATE_DIALOG(message_id=8771*, default_option=0*, option_flags=0*)
    → "How do you respond? [I need a minute to think./You've caught me off guard.]"
343: 0x0BCB [0x25] WAIT_DIALOG_SELECT()
344: 0x0BCC [0x02] IF !(Work_Zone[0] == 0*) GOTO 0x0BD7
345: 0x0BD4 [0x01] GOTO 0x0BD7

SUBROUTINE_0BD7:
346: 0x0BD7 [0x5B] LOAD_EXT_SCHEDULER: Load scheduler "yes0" with entities [Iroha (ID: 16880004/0x01019184), Iroha (ID: 16880004/0x01019184)], work=3862*
347: 0x0BE6 [0x52] END_LOAD_SCHEDULER: End scheduler "s088" with entities [EventEntity, EventEntity], work=770*
348: 0x0BF5 [0x45] LOAD_SCHEDULED_TASK: Load scheduler "s089" with entities [EventEntity, EventEntity], work=[770*, 0*]
349: 0x0C06 [0x2B] Iroha (ID: 16880004/0x01019184) [8772*]:
    → "Of course. I understand your hesitation."
350: 0x0C0D [0x23] WAIT_FOR_DIALOG_INTERACTION
351: 0x0C0E [0x2B] Iroha (ID: 16880004/0x01019184) [8773*]:
    → "I shall wait for you to come to a decision."
352: 0x0C15 [0x23] WAIT_FOR_DIALOG_INTERACTION
353: 0x0C16 [0x5D] SET_MUSIC_VOLUME(volume=0*, fade_time=120*)
354: 0x0C1B [0x45] LOAD_SCHEDULED_TASK: Load scheduler "fdo1" with entities [EventEntity, EventEntity], work=[200*, 0*]
355: 0x0C2C [0x55] WAIT_LOAD_SCHEDULER: Wait for scheduler "fdo1" with entities [EventEntity, EventEntity], work=200*
356: 0x0C3B [0x52] END_LOAD_SCHEDULER: End scheduler "s089" with entities [EventEntity, EventEntity], work=770*
357: 0x0C4A [0x5C] MUSIC_CONTROL: Set Idle (Day) music to song 230*
358: 0x0C4E [0x5C] MUSIC_CONTROL: Set Idle (Night) music to song 230*
359: 0x0C52 [0x9A] WAIT_MUSIC_SERVER()
360: 0x0C53 [0x46] CAMERA_CONTROL: Restore default settings
361: 0x0C55 [0x45] LOAD_SCHEDULED_TASK: Load scheduler "fdi2" with entities [EventEntity, EventEntity], work=[200*, 0*]
362: 0x0C66 [0x21] END_EVENT
363: 0x0C67 [0x00] END_REQSTACK()
```

### Event 16

#### Metadata

| Field        | Value      |
|--------------|------------|
| Entrypoint   | 0x0C68     |
| Data Size    | 1340 bytes |
| Instructions | 150        |

```
      00 01 02 03 04 05 06 07  08 09 0A 0B 0C 0D 0E 0F
      -- -- -- -- -- -- -- --  -- -- -- -- -- -- -- --
0C60:                          42 03 01 10 00 80 45 02          B.....E.
0C70: 80 F8 FF FF 7F F8 FF FF  7F 66 64 6F 31 00 80 55  .........fdo1..U
0C80: 02 80 F8 FF FF 7F F8 FF  FF 7F 66 64 6F 31 46 01  ..........fdo1F.
0C90: 38 03 80 2F 00 84 91 01  01 4E 00 84 91 01 01 92  8../.....N......
0CA0: 01 84 91 01 01 92 01 80  91 01 01 94 01 84 91 01  ................
0CB0: 01 94 01 F0 FF FF 7F BA  84 91 01 01 08 80 09 80  ................
0CC0: 0A 80 41 80 BA F0 FF FF  7F 6F 80 70 80 71 80 72  ..A......o.p.q.r
0CD0: 80 80 84 91 01 01 80 F0  FF FF 7F 80 80 91 01 01  ................
0CE0: 4A F0 FF FF 7F 84 91 01  01 4A 84 91 01 01 F0 FF  J........J......
0CF0: FF 7F 1C 22 80 45 23 80  F8 FF FF 7F F8 FF FF 7F  ...".E#.........
0D00: 73 30 35 35 00 80 1C 24  80 45 02 80 F8 FF FF 7F  s055...$.E......
0D10: F8 FF FF 7F 66 64 69 31  00 80 5B 45 80 84 91 01  ....fdi1..[E....
0D20: 01 84 91 01 01 74 6C 6B  30 2B 84 91 01 01 73 80  .....tlk0+....s.
0D30: 23 5B 45 80 84 91 01 01  84 91 01 01 74 6C 6B 31  #[E.........tlk1
0D40: 52 23 80 F8 FF FF 7F F8  FF FF 7F 73 30 35 35 45  R#.........s055E
0D50: 23 80 F8 FF FF 7F F8 FF  FF 7F 73 30 35 36 00 80  #.........s056..
0D60: 24 74 80 2F 80 00 80 25  02 00 10 00 80 00 7A 0E  $t./...%......z.
0D70: 52 23 80 F8 FF FF 7F F8  FF FF 7F 73 30 35 36 45  R#.........s056E
0D80: 23 80 F8 FF FF 7F F8 FF  FF 7F 73 30 35 38 00 80  #.........s058..
0D90: 5B 45 80 84 91 01 01 84  91 01 01 74 6C 62 30 2B  [E.........tlb0+
0DA0: 84 91 01 01 75 80 23 2B  84 91 01 01 76 80 23 5B  ....u.#+....v.#[
0DB0: 45 80 84 91 01 01 84 91  01 01 74 6C 62 31 52 23  E.........tlb1R#
0DC0: 80 F8 FF FF 7F F8 FF FF  7F 73 30 35 38 45 23 80  .........s058E#.
0DD0: F8 FF FF 7F F8 FF FF 7F  73 30 35 39 00 80 27 05  ........s059..'.
0DE0: F0 FF FF 7F 40 1C 5C 80  27 05 F0 FF FF 7F 41 1C  ....@.\.'.....A.
0DF0: 5D 80 52 23 80 F8 FF FF  7F F8 FF FF 7F 73 30 35  ].R#.........s05
0E00: 39 45 23 80 F8 FF FF 7F  F8 FF FF 7F 73 30 36 30  9E#.........s060
0E10: 00 80 5B 34 80 84 91 01  01 84 91 01 01 74 6C 63  ..[4.........tlc
0E20: 30 2B 84 91 01 01 77 80  23 52 23 80 F8 FF FF 7F  0+....w.#R#.....
0E30: F8 FF FF 7F 73 30 36 30  45 23 80 F8 FF FF 7F F8  ....s060E#......
0E40: FF FF 7F 73 30 36 31 00  80 03 03 10 78 80 03 02  ...s061.....x...
0E50: 10 2C 80 2B 84 91 01 01  79 80 23 2B 84 91 01 01  .,.+....y.#+....
0E60: 7A 80 23 5B 34 80 84 91  01 01 84 91 01 01 74 6C  z.#[4.........tl
0E70: 63 31 03 01 10 2C 80 01  51 11 02 00 10 2C 80 00  c1...,..Q....,..
0E80: 8C 0F 52 23 80 F8 FF FF  7F F8 FF FF 7F 73 30 35  ..R#.........s05
0E90: 36 45 23 80 F8 FF FF 7F  F8 FF FF 7F 73 30 36 32  6E#.........s062
0EA0: 00 80 5B 34 80 84 91 01  01 84 91 01 01 74 6C 63  ..[4.........tlc
0EB0: 30 2B 84 91 01 01 7B 80  23 2B 84 91 01 01 7C 80  0+....{.#+....|.
0EC0: 23 5B 34 80 84 91 01 01  84 91 01 01 74 6C 63 31  #[4.........tlc1
0ED0: 52 23 80 F8 FF FF 7F F8  FF FF 7F 73 30 36 32 45  R#.........s062E
0EE0: 23 80 F8 FF FF 7F F8 FF  FF 7F 73 30 35 39 00 80  #.........s059..
0EF0: 27 05 F0 FF FF 7F 40 1C  5C 80 27 05 F0 FF FF 7F  '.....@.\.'.....
0F00: 41 1C 5D 80 52 23 80 F8  FF FF 7F F8 FF FF 7F 73  A.].R#.........s
0F10: 30 35 39 45 23 80 F8 FF  FF 7F F8 FF FF 7F 73 30  059E#.........s0
0F20: 36 30 00 80 5B 34 80 84  91 01 01 84 91 01 01 74  60..[4.........t
0F30: 6C 63 30 2B 84 91 01 01  7D 80 23 52 23 80 F8 FF  lc0+....}.#R#...
0F40: FF 7F F8 FF FF 7F 73 30  36 30 45 23 80 F8 FF FF  ......s060E#....
0F50: 7F F8 FF FF 7F 73 30 36  31 00 80 03 04 10 7E 80  .....s061.....~.
0F60: 03 02 10 2C 80 2B 84 91  01 01 7F 80 23 2B 84 91  ...,.+......#+..
0F70: 01 01 80 80 23 5B 34 80  84 91 01 01 84 91 01 01  ....#[4.........
0F80: 74 6C 63 31 03 01 10 2E  80 01 51 11 02 00 10 2E  tlc1......Q.....
0F90: 80 00 00 11 81 00 84 91  01 01 7C 00 84 91 01 01  ..........|.....
0FA0: 5B 53 80 84 91 01 01 84  91 01 01 66 63 30 31 5B  [S.........fc01[
0FB0: 34 80 84 91 01 01 84 91  01 01 62 69 6B 30 1C 81  4.........bik0..
0FC0: 80 52 23 80 F8 FF FF 7F  F8 FF FF 7F 73 30 35 36  .R#.........s056
0FD0: 45 23 80 F8 FF FF 7F F8  FF FF 7F 73 30 36 33 00  E#.........s063.
0FE0: 80 2B 84 91 01 01 82 80  23 52 23 80 F8 FF FF 7F  .+......#R#.....
0FF0: F8 FF FF 7F 73 30 36 33  45 23 80 F8 FF FF 7F F8  ....s063E#......
1000: FF FF 7F 73 30 35 39 00  80 5B 53 80 84 91 01 01  ...s059..[S.....
1010: 84 91 01 01 66 30 30 31  5B 34 80 84 91 01 01 84  ....f001[4......
1020: 91 01 01 62 69 6B 31 2B  84 91 01 01 83 80 23 2B  ...bik1+......#+
1030: 84 91 01 01 84 80 23 5B  53 80 84 91 01 01 84 91  ......#[S.......
1040: 01 01 66 30 30 30 27 05  F0 FF FF 7F 40 1C 5C 80  ..f000'.....@.\.
1050: 27 05 F0 FF FF 7F 41 1C  5D 80 52 23 80 F8 FF FF  '.....A.].R#....
1060: 7F F8 FF FF 7F 73 30 35  39 45 23 80 F8 FF FF 7F  .....s059E#.....
1070: F8 FF FF 7F 73 30 36 30  00 80 5B 53 80 84 91 01  ....s060..[S....
1080: 01 84 91 01 01 66 30 30  31 5B 34 80 84 91 01 01  .....f001[4.....
1090: 84 91 01 01 74 6C 63 30  2B 84 91 01 01 85 80 23  ....tlc0+......#
10A0: 52 23 80 F8 FF FF 7F F8  FF FF 7F 73 30 36 30 45  R#.........s060E
10B0: 23 80 F8 FF FF 7F F8 FF  FF 7F 73 30 36 31 00 80  #.........s061..
10C0: 03 05 10 86 80 03 02 10  22 80 2B 84 91 01 01 87  ........".+.....
10D0: 80 23 2B 84 91 01 01 88  80 23 5B 53 80 84 91 01  .#+......#[S....
10E0: 01 84 91 01 01 66 30 30  30 5B 34 80 84 91 01 01  .....f000[4.....
10F0: 84 91 01 01 74 6C 63 31  03 01 10 2F 80 01 51 11  ....tlc1.../..Q.
1100: 02 00 10 2F 80 00 51 11  52 23 80 F8 FF FF 7F F8  .../..Q.R#......
1110: FF FF 7F 73 30 35 36 45  23 80 F8 FF FF 7F F8 FF  ...s056E#.......
1120: FF 7F 73 30 35 37 00 80  5B 45 80 84 91 01 01 84  ..s057..[E......
1130: 91 01 01 74 6C 6B 30 2B  84 91 01 01 89 80 23 5B  ...tlk0+......#[
1140: 45 80 84 91 01 01 84 91  01 01 74 6C 6B 31 01 51  E.........tlk1.Q
1150: 11 45 02 80 F8 FF FF 7F  F8 FF FF 7F 66 64 6F 31  .E..........fdo1
1160: 00 80 55 02 80 F8 FF FF  7F F8 FF FF 7F 66 64 6F  ..U..........fdo
1170: 31 52 23 80 F8 FF FF 7F  F8 FF FF 7F 73 30 35 37  1R#.........s057
1180: 52 23 80 F8 FF FF 7F F8  FF FF 7F 73 30 36 31 46  R#.........s061F
1190: 00 45 02 80 F8 FF FF 7F  F8 FF FF 7F 66 64 69 32  .E..........fdi2
11A0: 00 80 21 00                                       ..!.            
```

#### Opcodes

```
  0: 0x0C68 [0x42] SET_CLI_EVENT_CANCEL_DATA()
  1: 0x0C69 [0x03] Work_Zone[1] = 0*
  2: 0x0C6E [0x45] LOAD_SCHEDULED_TASK: Load scheduler "fdo1" with entities [EventEntity, EventEntity], work=[200*, 0*]
  3: 0x0C7F [0x55] WAIT_LOAD_SCHEDULER: Wait for scheduler "fdo1" with entities [EventEntity, EventEntity], work=200*
  4: 0x0C8E [0x46] CAMERA_CONTROL: Disable user control
  5: 0x0C90 [0x38] SET_CLIENT_EVENT_MODE(mode=27*)
  6: 0x0C93 [0x2F] Iroha (ID: 16880004/0x01019184)->Render.Flags0 &= ~0x80000 // Bit 19
  7: 0x0C99 [0x4E] SET_ENTITY_HIDE_FLAG: Show Iroha (ID: 16880004/0x01019184)
  8: 0x0C9F [0x92] Iroha (ID: 16880004/0x01019184)->Render.Flags3 ^= 0x01
  9: 0x0CA5 [0x92] Undulating Confluence (ID: 16880000/0x01019180)->Render.Flags3 ^= 0x01
 10: 0x0CAB [0x94] Iroha (ID: 16880004/0x01019184)->Render.Flags3 ^= 0x01
 11: 0x0CB1 [0x94] LocalPlayer->Render.Flags3 ^= 0x01
 12: 0x0CB7 [0xBA] SET_ENTITY_POSITION(entity_id=Iroha (ID: 16880004/0x01019184), pos_x=-42.523*, pos_z=566.596*, pos_y=-23.892*, direction=18.9°*)
 13: 0x0CC4 [0xBA] SET_ENTITY_POSITION(entity_id=LocalPlayer, pos_x=-40.064*, pos_z=568.125*, pos_y=-23.997*, direction=269.6°*)
 14: 0x0CD1 [0x80] LOAD_WAIT(entity=Iroha (ID: 16880004/0x01019184))
 15: 0x0CD6 [0x80] LOAD_WAIT(entity=LocalPlayer)
 16: 0x0CDB [0x80] LOAD_WAIT(entity=Undulating Confluence (ID: 16880000/0x01019180))
 17: 0x0CE0 [0x4A] LocalPlayer looks at Iroha (ID: 16880004/0x01019184)
 18: 0x0CE9 [0x4A] Iroha (ID: 16880004/0x01019184) looks at LocalPlayer
 19: 0x0CF2 [0x1C] WAIT(30* ticks)
 20: 0x0CF5 [0x45] LOAD_SCHEDULED_TASK: Load scheduler "s055" with entities [EventEntity, EventEntity], work=[770*, 0*]
 21: 0x0D06 [0x1C] WAIT(15* ticks)
 22: 0x0D09 [0x45] LOAD_SCHEDULED_TASK: Load scheduler "fdi1" with entities [EventEntity, EventEntity], work=[200*, 0*]
 23: 0x0D1A [0x5B] LOAD_EXT_SCHEDULER: Load scheduler "tlk0" with entities [Iroha (ID: 16880004/0x01019184), Iroha (ID: 16880004/0x01019184)], work=3861*
 24: 0x0D29 [0x2B] Iroha (ID: 16880004/0x01019184) [8774*]:
    → "Master, have you settled on which type of training I am to undergo?"
 25: 0x0D30 [0x23] WAIT_FOR_DIALOG_INTERACTION
 26: 0x0D31 [0x5B] LOAD_EXT_SCHEDULER: Load scheduler "tlk1" with entities [Iroha (ID: 16880004/0x01019184), Iroha (ID: 16880004/0x01019184)], work=3861*
 27: 0x0D40 [0x52] END_LOAD_SCHEDULER: End scheduler "s055" with entities [EventEntity, EventEntity], work=770*
 28: 0x0D4F [0x45] LOAD_SCHEDULED_TASK: Load scheduler "s056" with entities [EventEntity, EventEntity], work=[770*, 0*]
 29: 0x0D60 [0x24] CREATE_DIALOG(message_id=8775*, default_option=3*, option_flags=0*)
    → "What type of training? [Strength training./Endurance training./Style training./I need a moment to think.]"
 30: 0x0D67 [0x25] WAIT_DIALOG_SELECT()
 31: 0x0D68 [0x02] IF !(Work_Zone[0] == 0*) GOTO 0x0E7A
 32: 0x0D70 [0x52] END_LOAD_SCHEDULER: End scheduler "s056" with entities [EventEntity, EventEntity], work=770*
 33: 0x0D7F [0x45] LOAD_SCHEDULED_TASK: Load scheduler "s058" with entities [EventEntity, EventEntity], work=[770*, 0*]
 34: 0x0D90 [0x5B] LOAD_EXT_SCHEDULER: Load scheduler "tlb0" with entities [Iroha (ID: 16880004/0x01019184), Iroha (ID: 16880004/0x01019184)], work=3861*
 35: 0x0D9F [0x2B] Iroha (ID: 16880004/0x01019184) [8776*]:
    → "I confess that I am lacking definition in my arms and legs."
 36: 0x0DA6 [0x23] WAIT_FOR_DIALOG_INTERACTION
 37: 0x0DA7 [0x2B] Iroha (ID: 16880004/0x01019184) [8777*]:
    → "I quite understand why you desire me to put on some healthy weight, and shall respect your decision."
 38: 0x0DAE [0x23] WAIT_FOR_DIALOG_INTERACTION
 39: 0x0DAF [0x5B] LOAD_EXT_SCHEDULER: Load scheduler "tlb1" with entities [Iroha (ID: 16880004/0x01019184), Iroha (ID: 16880004/0x01019184)], work=3861*
 40: 0x0DBE [0x52] END_LOAD_SCHEDULER: End scheduler "s058" with entities [EventEntity, EventEntity], work=770*
 41: 0x0DCD [0x45] LOAD_SCHEDULED_TASK: Load scheduler "s059" with entities [EventEntity, EventEntity], work=[770*, 0*]
 42: 0x0DDE [0x27] REQ_SET(priority=0x05, entity_id=LocalPlayer, tag_num=0x40)
 43: 0x0DE5 [0x1C] WAIT(80* ticks)
 44: 0x0DE8 [0x27] REQ_SET(priority=0x05, entity_id=LocalPlayer, tag_num=0x41)
 45: 0x0DEF [0x1C] WAIT(40* ticks)
 46: 0x0DF2 [0x52] END_LOAD_SCHEDULER: End scheduler "s059" with entities [EventEntity, EventEntity], work=770*
 47: 0x0E01 [0x45] LOAD_SCHEDULED_TASK: Load scheduler "s060" with entities [EventEntity, EventEntity], work=[770*, 0*]
 48: 0x0E12 [0x5B] LOAD_EXT_SCHEDULER: Load scheduler "tlc0" with entities [Iroha (ID: 16880004/0x01019184), Iroha (ID: 16880004/0x01019184)], work=3863*
 49: 0x0E21 [0x2B] Iroha (ID: 16880004/0x01019184) [8778*]:
    → "And you would like to bring me a small gift to boost my spirits? Your generous soul sparkles throughout the ages."
 50: 0x0E28 [0x23] WAIT_FOR_DIALOG_INTERACTION
 51: 0x0E29 [0x52] END_LOAD_SCHEDULER: End scheduler "s060" with entities [EventEntity, EventEntity], work=770*
 52: 0x0E38 [0x45] LOAD_SCHEDULED_TASK: Load scheduler "s061" with entities [EventEntity, EventEntity], work=[770*, 0*]
 53: 0x0E49 [0x03] Work_Zone[3] = 5547*
 54: 0x0E4E [0x03] Work_Zone[2] = 1*
 55: 0x0E53 [0x2B] Iroha (ID: 16880004/0x01019184) [8779*]:
    → "Whilst undergoing training, my mother often opined about the benefits of $1 and their effect on muscle growth."
 56: 0x0E5A [0x23] WAIT_FOR_DIALOG_INTERACTION
 57: 0x0E5B [0x2B] Iroha (ID: 16880004/0x01019184) [8780*]:
    → "$0 $0$0 would be more than sufficient to see me reach my goal."
 58: 0x0E62 [0x23] WAIT_FOR_DIALOG_INTERACTION
 59: 0x0E63 [0x5B] LOAD_EXT_SCHEDULER: Load scheduler "tlc1" with entities [Iroha (ID: 16880004/0x01019184), Iroha (ID: 16880004/0x01019184)], work=3863*
 60: 0x0E72 [0x03] Work_Zone[1] = 1*
 61: 0x0E77 [0x01] GOTO 0x1151
 62: 0x0E7A [0x02] IF !(Work_Zone[0] == 1*) GOTO 0x0F8C
 63: 0x0E82 [0x52] END_LOAD_SCHEDULER: End scheduler "s056" with entities [EventEntity, EventEntity], work=770*
 64: 0x0E91 [0x45] LOAD_SCHEDULED_TASK: Load scheduler "s062" with entities [EventEntity, EventEntity], work=[770*, 0*]
 65: 0x0EA2 [0x5B] LOAD_EXT_SCHEDULER: Load scheduler "tlc0" with entities [Iroha (ID: 16880004/0x01019184), Iroha (ID: 16880004/0x01019184)], work=3863*
 66: 0x0EB1 [0x2B] Iroha (ID: 16880004/0x01019184) [8781*]:
    → "Ah, my fragile constitution has long dogged me."
 67: 0x0EB8 [0x23] WAIT_FOR_DIALOG_INTERACTION
 68: 0x0EB9 [0x2B] Iroha (ID: 16880004/0x01019184) [8782*]:
    → "I quite understand why you desire me to build up my resistance, and shall respect your decision."
 69: 0x0EC0 [0x23] WAIT_FOR_DIALOG_INTERACTION
 70: 0x0EC1 [0x5B] LOAD_EXT_SCHEDULER: Load scheduler "tlc1" with entities [Iroha (ID: 16880004/0x01019184), Iroha (ID: 16880004/0x01019184)], work=3863*
 71: 0x0ED0 [0x52] END_LOAD_SCHEDULER: End scheduler "s062" with entities [EventEntity, EventEntity], work=770*
 72: 0x0EDF [0x45] LOAD_SCHEDULED_TASK: Load scheduler "s059" with entities [EventEntity, EventEntity], work=[770*, 0*]
 73: 0x0EF0 [0x27] REQ_SET(priority=0x05, entity_id=LocalPlayer, tag_num=0x40)
 74: 0x0EF7 [0x1C] WAIT(80* ticks)
 75: 0x0EFA [0x27] REQ_SET(priority=0x05, entity_id=LocalPlayer, tag_num=0x41)
 76: 0x0F01 [0x1C] WAIT(40* ticks)
 77: 0x0F04 [0x52] END_LOAD_SCHEDULER: End scheduler "s059" with entities [EventEntity, EventEntity], work=770*
 78: 0x0F13 [0x45] LOAD_SCHEDULED_TASK: Load scheduler "s060" with entities [EventEntity, EventEntity], work=[770*, 0*]
 79: 0x0F24 [0x5B] LOAD_EXT_SCHEDULER: Load scheduler "tlc0" with entities [Iroha (ID: 16880004/0x01019184), Iroha (ID: 16880004/0x01019184)], work=3863*
 80: 0x0F33 [0x2B] Iroha (ID: 16880004/0x01019184) [8783*]:
    → "And you would like to bring me a small gift to boost my spirits? Your generous soul sparkles throughout the ages."
 81: 0x0F3A [0x23] WAIT_FOR_DIALOG_INTERACTION
 82: 0x0F3B [0x52] END_LOAD_SCHEDULER: End scheduler "s060" with entities [EventEntity, EventEntity], work=770*
 83: 0x0F4A [0x45] LOAD_SCHEDULED_TASK: Load scheduler "s061" with entities [EventEntity, EventEntity], work=[770*, 0*]
 84: 0x0F5B [0x03] Work_Zone[4] = 5727*
 85: 0x0F60 [0x03] Work_Zone[2] = 1*
 86: 0x0F65 [0x2B] Iroha (ID: 16880004/0x01019184) [8784*]:
    → "Whilst undergoing training, my mother often opined about the benefits of $2 and its ability to mend all wounds."
 87: 0x0F6C [0x23] WAIT_FOR_DIALOG_INTERACTION
 88: 0x0F6D [0x2B] Iroha (ID: 16880004/0x01019184) [8785*]:
    → "$0 $0 would be more than sufficient to see me reach my goal."
 89: 0x0F74 [0x23] WAIT_FOR_DIALOG_INTERACTION
 90: 0x0F75 [0x5B] LOAD_EXT_SCHEDULER: Load scheduler "tlc1" with entities [Iroha (ID: 16880004/0x01019184), Iroha (ID: 16880004/0x01019184)], work=3863*
 91: 0x0F84 [0x03] Work_Zone[1] = 2*
 92: 0x0F89 [0x01] GOTO 0x1151
 93: 0x0F8C [0x02] IF !(Work_Zone[0] == 2*) GOTO 0x1100
 94: 0x0F94 [0x81] SET_ENTITY_BLINKING(blink_flag=0x00, entity=Iroha (ID: 16880004/0x01019184))
 95: 0x0F9A [0x7C] Iroha (ID: 16880004/0x01019184)->Render.Flags2 |= 0x00
 96: 0x0FA0 [0x5B] LOAD_EXT_SCHEDULER: Load scheduler "fc01" with entities [Iroha (ID: 16880004/0x01019184), Iroha (ID: 16880004/0x01019184)], work=3858*
 97: 0x0FAF [0x5B] LOAD_EXT_SCHEDULER: Load scheduler "bik0" with entities [Iroha (ID: 16880004/0x01019184), Iroha (ID: 16880004/0x01019184)], work=3863*
 98: 0x0FBE [0x1C] WAIT(10* ticks)
 99: 0x0FC1 [0x52] END_LOAD_SCHEDULER: End scheduler "s056" with entities [EventEntity, EventEntity], work=770*
100: 0x0FD0 [0x45] LOAD_SCHEDULED_TASK: Load scheduler "s063" with entities [EventEntity, EventEntity], work=[770*, 0*]
101: 0x0FE1 [0x2B] Iroha (ID: 16880004/0x01019184) [8786*]:
    → "You wish me...to be more stylish?"
102: 0x0FE8 [0x23] WAIT_FOR_DIALOG_INTERACTION
103: 0x0FE9 [0x52] END_LOAD_SCHEDULER: End scheduler "s063" with entities [EventEntity, EventEntity], work=770*
104: 0x0FF8 [0x45] LOAD_SCHEDULED_TASK: Load scheduler "s059" with entities [EventEntity, EventEntity], work=[770*, 0*]
105: 0x1009 [0x5B] LOAD_EXT_SCHEDULER: Load scheduler "f001" with entities [Iroha (ID: 16880004/0x01019184), Iroha (ID: 16880004/0x01019184)], work=3858*
106: 0x1018 [0x5B] LOAD_EXT_SCHEDULER: Load scheduler "bik1" with entities [Iroha (ID: 16880004/0x01019184), Iroha (ID: 16880004/0x01019184)], work=3863*
107: 0x1027 [0x2B] Iroha (ID: 16880004/0x01019184) [8787*]:
    → "I understand your desire. My mother often opined that a ninja must do all she can to blend in."
108: 0x102E [0x23] WAIT_FOR_DIALOG_INTERACTION
109: 0x102F [0x2B] Iroha (ID: 16880004/0x01019184) [8788*]:
    → "But alas, I am no ninja."
110: 0x1036 [0x23] WAIT_FOR_DIALOG_INTERACTION
111: 0x1037 [0x5B] LOAD_EXT_SCHEDULER: Load scheduler "f000" with entities [Iroha (ID: 16880004/0x01019184), Iroha (ID: 16880004/0x01019184)], work=3858*
112: 0x1046 [0x27] REQ_SET(priority=0x05, entity_id=LocalPlayer, tag_num=0x40)
113: 0x104D [0x1C] WAIT(80* ticks)
114: 0x1050 [0x27] REQ_SET(priority=0x05, entity_id=LocalPlayer, tag_num=0x41)
115: 0x1057 [0x1C] WAIT(40* ticks)
116: 0x105A [0x52] END_LOAD_SCHEDULER: End scheduler "s059" with entities [EventEntity, EventEntity], work=770*
117: 0x1069 [0x45] LOAD_SCHEDULED_TASK: Load scheduler "s060" with entities [EventEntity, EventEntity], work=[770*, 0*]
118: 0x107A [0x5B] LOAD_EXT_SCHEDULER: Load scheduler "f001" with entities [Iroha (ID: 16880004/0x01019184), Iroha (ID: 16880004/0x01019184)], work=3858*
119: 0x1089 [0x5B] LOAD_EXT_SCHEDULER: Load scheduler "tlc0" with entities [Iroha (ID: 16880004/0x01019184), Iroha (ID: 16880004/0x01019184)], work=3863*
120: 0x1098 [0x2B] Iroha (ID: 16880004/0x01019184) [8789*]:
    → "And you would like to bring me a small gift to boost my spirits? Your generous soul sparkles throughout the ages."
121: 0x109F [0x23] WAIT_FOR_DIALOG_INTERACTION
122: 0x10A0 [0x52] END_LOAD_SCHEDULER: End scheduler "s060" with entities [EventEntity, EventEntity], work=770*
123: 0x10AF [0x45] LOAD_SCHEDULED_TASK: Load scheduler "s061" with entities [EventEntity, EventEntity], work=[770*, 0*]
124: 0x10C0 [0x03] Work_Zone[5] = 4466*
125: 0x10C5 [0x03] Work_Zone[2] = 30*
126: 0x10CA [0x2B] Iroha (ID: 16880004/0x01019184) [8790*]:
    → "My father often opined about the benefits of $3 and how they helped to keep my mother's skin smooth and soft."
127: 0x10D1 [0x23] WAIT_FOR_DIALOG_INTERACTION
128: 0x10D2 [0x2B] Iroha (ID: 16880004/0x01019184) [8791*]:
    → "$0 $0$3 would be more than sufficient to see me reach my goal."
129: 0x10D9 [0x23] WAIT_FOR_DIALOG_INTERACTION
130: 0x10DA [0x5B] LOAD_EXT_SCHEDULER: Load scheduler "f000" with entities [Iroha (ID: 16880004/0x01019184), Iroha (ID: 16880004/0x01019184)], work=3858*
131: 0x10E9 [0x5B] LOAD_EXT_SCHEDULER: Load scheduler "tlc1" with entities [Iroha (ID: 16880004/0x01019184), Iroha (ID: 16880004/0x01019184)], work=3863*
132: 0x10F8 [0x03] Work_Zone[1] = 3*
133: 0x10FD [0x01] GOTO 0x1151
134: 0x1100 [0x02] IF !(Work_Zone[0] == 3*) GOTO 0x1151
135: 0x1108 [0x52] END_LOAD_SCHEDULER: End scheduler "s056" with entities [EventEntity, EventEntity], work=770*
136: 0x1117 [0x45] LOAD_SCHEDULED_TASK: Load scheduler "s057" with entities [EventEntity, EventEntity], work=[770*, 0*]
137: 0x1128 [0x5B] LOAD_EXT_SCHEDULER: Load scheduler "tlk0" with entities [Iroha (ID: 16880004/0x01019184), Iroha (ID: 16880004/0x01019184)], work=3861*
138: 0x1137 [0x2B] Iroha (ID: 16880004/0x01019184) [8792*]:
    → "Of course. Deciding on an appropriate path takes time."
139: 0x113E [0x23] WAIT_FOR_DIALOG_INTERACTION
140: 0x113F [0x5B] LOAD_EXT_SCHEDULER: Load scheduler "tlk1" with entities [Iroha (ID: 16880004/0x01019184), Iroha (ID: 16880004/0x01019184)], work=3861*
141: 0x114E [0x01] GOTO 0x1151

SUBROUTINE_1151:
142: 0x1151 [0x45] LOAD_SCHEDULED_TASK: Load scheduler "fdo1" with entities [EventEntity, EventEntity], work=[200*, 0*]
143: 0x1162 [0x55] WAIT_LOAD_SCHEDULER: Wait for scheduler "fdo1" with entities [EventEntity, EventEntity], work=200*
144: 0x1171 [0x52] END_LOAD_SCHEDULER: End scheduler "s057" with entities [EventEntity, EventEntity], work=770*
145: 0x1180 [0x52] END_LOAD_SCHEDULER: End scheduler "s061" with entities [EventEntity, EventEntity], work=770*
146: 0x118F [0x46] CAMERA_CONTROL: Restore default settings
147: 0x1191 [0x45] LOAD_SCHEDULED_TASK: Load scheduler "fdi2" with entities [EventEntity, EventEntity], work=[200*, 0*]
148: 0x11A2 [0x21] END_EVENT
149: 0x11A3 [0x00] END_REQSTACK()
```

### Event 19

#### Metadata

| Field        | Value     |
|--------------|-----------|
| Entrypoint   | 0x11A4    |
| Data Size    | 402 bytes |
| Instructions | 57        |

```
      00 01 02 03 04 05 06 07  08 09 0A 0B 0C 0D 0E 0F
      -- -- -- -- -- -- -- --  -- -- -- -- -- -- -- --
11A0:             42 03 00 00  02 10 45 02 80 F8 FF FF      B.....E.....
11B0: 7F F8 FF FF 7F 66 64 6F  31 00 80 55 02 80 F8 FF  .....fdo1..U....
11C0: FF 7F F8 FF FF 7F 66 64  6F 31 46 01 38 03 80 2F  ......fdo1F.8../
11D0: 00 84 91 01 01 4E 00 84  91 01 01 92 01 84 91 01  .....N..........
11E0: 01 92 01 80 91 01 01 94  01 84 91 01 01 94 01 F0  ................
11F0: FF FF 7F BA 84 91 01 01  08 80 09 80 0A 80 41 80  ..............A.
1200: BA F0 FF FF 7F 6F 80 70  80 71 80 72 80 80 84 91  .....o.p.q.r....
1210: 01 01 80 F0 FF FF 7F 80  80 91 01 01 4A F0 FF FF  ............J...
1220: 7F 84 91 01 01 4A 84 91  01 01 F0 FF FF 7F 1C 22  .....J........."
1230: 80 45 23 80 F8 FF FF 7F  F8 FF FF 7F 73 30 36 31  .E#.........s061
1240: 00 80 1C 24 80 45 02 80  F8 FF FF 7F F8 FF FF 7F  ...$.E..........
1250: 66 64 69 31 00 80 5B 34  80 84 91 01 01 84 91 01  fdi1..[4........
1260: 01 74 6C 63 30 02 00 00  00 80 80 8A 12 03 03 10  .tlc0...........
1270: 78 80 03 02 10 2C 80 2B  84 91 01 01 79 80 23 2B  x....,.+....y.#+
1280: 84 91 01 01 7A 80 23 01  D4 12 02 00 00 2C 80 80  ....z.#......,..
1290: AF 12 03 04 10 7E 80 03  02 10 2C 80 2B 84 91 01  .....~....,.+...
12A0: 01 7F 80 23 2B 84 91 01  01 80 80 23 01 D4 12 02  ...#+......#....
12B0: 00 00 2E 80 80 D4 12 03  05 10 86 80 03 02 10 22  ..............."
12C0: 80 2B 84 91 01 01 87 80  23 2B 84 91 01 01 88 80  .+......#+......
12D0: 23 01 D4 12 5B 34 80 84  91 01 01 84 91 01 01 74  #...[4.........t
12E0: 6C 63 31 45 02 80 F8 FF  FF 7F F8 FF FF 7F 66 64  lc1E..........fd
12F0: 6F 31 00 80 55 02 80 F8  FF FF 7F F8 FF FF 7F 66  o1..U..........f
1300: 64 6F 31 52 23 80 F8 FF  FF 7F F8 FF FF 7F 73 30  do1R#.........s0
1310: 35 37 52 23 80 F8 FF FF  7F F8 FF FF 7F 73 30 36  57R#.........s06
1320: 31 46 00 45 02 80 F8 FF  FF 7F F8 FF FF 7F 66 64  1F.E..........fd
1330: 69 32 00 80 21 00                                 i2..!.          
```

#### Opcodes

```
  0: 0x11A4 [0x42] SET_CLI_EVENT_CANCEL_DATA()
  1: 0x11A5 [0x03] ExtData[1]->WorkLocal[0] = Work_Zone[2]
  2: 0x11AA [0x45] LOAD_SCHEDULED_TASK: Load scheduler "fdo1" with entities [EventEntity, EventEntity], work=[200*, 0*]
  3: 0x11BB [0x55] WAIT_LOAD_SCHEDULER: Wait for scheduler "fdo1" with entities [EventEntity, EventEntity], work=200*
  4: 0x11CA [0x46] CAMERA_CONTROL: Disable user control
  5: 0x11CC [0x38] SET_CLIENT_EVENT_MODE(mode=27*)
  6: 0x11CF [0x2F] Iroha (ID: 16880004/0x01019184)->Render.Flags0 &= ~0x80000 // Bit 19
  7: 0x11D5 [0x4E] SET_ENTITY_HIDE_FLAG: Show Iroha (ID: 16880004/0x01019184)
  8: 0x11DB [0x92] Iroha (ID: 16880004/0x01019184)->Render.Flags3 ^= 0x01
  9: 0x11E1 [0x92] Undulating Confluence (ID: 16880000/0x01019180)->Render.Flags3 ^= 0x01
 10: 0x11E7 [0x94] Iroha (ID: 16880004/0x01019184)->Render.Flags3 ^= 0x01
 11: 0x11ED [0x94] LocalPlayer->Render.Flags3 ^= 0x01
 12: 0x11F3 [0xBA] SET_ENTITY_POSITION(entity_id=Iroha (ID: 16880004/0x01019184), pos_x=-42.523*, pos_z=566.596*, pos_y=-23.892*, direction=18.9°*)
 13: 0x1200 [0xBA] SET_ENTITY_POSITION(entity_id=LocalPlayer, pos_x=-40.064*, pos_z=568.125*, pos_y=-23.997*, direction=269.6°*)
 14: 0x120D [0x80] LOAD_WAIT(entity=Iroha (ID: 16880004/0x01019184))
 15: 0x1212 [0x80] LOAD_WAIT(entity=LocalPlayer)
 16: 0x1217 [0x80] LOAD_WAIT(entity=Undulating Confluence (ID: 16880000/0x01019180))
 17: 0x121C [0x4A] LocalPlayer looks at Iroha (ID: 16880004/0x01019184)
 18: 0x1225 [0x4A] Iroha (ID: 16880004/0x01019184) looks at LocalPlayer
 19: 0x122E [0x1C] WAIT(30* ticks)
 20: 0x1231 [0x45] LOAD_SCHEDULED_TASK: Load scheduler "s061" with entities [EventEntity, EventEntity], work=[770*, 0*]
 21: 0x1242 [0x1C] WAIT(15* ticks)
 22: 0x1245 [0x45] LOAD_SCHEDULED_TASK: Load scheduler "fdi1" with entities [EventEntity, EventEntity], work=[200*, 0*]
 23: 0x1256 [0x5B] LOAD_EXT_SCHEDULER: Load scheduler "tlc0" with entities [Iroha (ID: 16880004/0x01019184), Iroha (ID: 16880004/0x01019184)], work=3863*
 24: 0x1265 [0x02] IF !(ExtData[1]->WorkLocal[0] == 0*) GOTO 0x128A
 25: 0x126D [0x03] Work_Zone[3] = 5547*
 26: 0x1272 [0x03] Work_Zone[2] = 1*
 27: 0x1277 [0x2B] Iroha (ID: 16880004/0x01019184) [8779*]:
    → "Whilst undergoing training, my mother often opined about the benefits of $1 and their effect on muscle growth."
 28: 0x127E [0x23] WAIT_FOR_DIALOG_INTERACTION
 29: 0x127F [0x2B] Iroha (ID: 16880004/0x01019184) [8780*]:
    → "$0 $0$0 would be more than sufficient to see me reach my goal."
 30: 0x1286 [0x23] WAIT_FOR_DIALOG_INTERACTION
 31: 0x1287 [0x01] GOTO 0x12D4
 32: 0x128A [0x02] IF !(ExtData[1]->WorkLocal[0] == 1*) GOTO 0x12AF
 33: 0x1292 [0x03] Work_Zone[4] = 5727*
 34: 0x1297 [0x03] Work_Zone[2] = 1*
 35: 0x129C [0x2B] Iroha (ID: 16880004/0x01019184) [8784*]:
    → "Whilst undergoing training, my mother often opined about the benefits of $2 and its ability to mend all wounds."
 36: 0x12A3 [0x23] WAIT_FOR_DIALOG_INTERACTION
 37: 0x12A4 [0x2B] Iroha (ID: 16880004/0x01019184) [8785*]:
    → "$0 $0 would be more than sufficient to see me reach my goal."
 38: 0x12AB [0x23] WAIT_FOR_DIALOG_INTERACTION
 39: 0x12AC [0x01] GOTO 0x12D4
 40: 0x12AF [0x02] IF !(ExtData[1]->WorkLocal[0] == 2*) GOTO 0x12D4
 41: 0x12B7 [0x03] Work_Zone[5] = 4466*
 42: 0x12BC [0x03] Work_Zone[2] = 30*
 43: 0x12C1 [0x2B] Iroha (ID: 16880004/0x01019184) [8790*]:
    → "My father often opined about the benefits of $3 and how they helped to keep my mother's skin smooth and soft."
 44: 0x12C8 [0x23] WAIT_FOR_DIALOG_INTERACTION
 45: 0x12C9 [0x2B] Iroha (ID: 16880004/0x01019184) [8791*]:
    → "$0 $0$3 would be more than sufficient to see me reach my goal."
 46: 0x12D0 [0x23] WAIT_FOR_DIALOG_INTERACTION
 47: 0x12D1 [0x01] GOTO 0x12D4

SUBROUTINE_12D4:
 48: 0x12D4 [0x5B] LOAD_EXT_SCHEDULER: Load scheduler "tlc1" with entities [Iroha (ID: 16880004/0x01019184), Iroha (ID: 16880004/0x01019184)], work=3863*
 49: 0x12E3 [0x45] LOAD_SCHEDULED_TASK: Load scheduler "fdo1" with entities [EventEntity, EventEntity], work=[200*, 0*]
 50: 0x12F4 [0x55] WAIT_LOAD_SCHEDULER: Wait for scheduler "fdo1" with entities [EventEntity, EventEntity], work=200*
 51: 0x1303 [0x52] END_LOAD_SCHEDULER: End scheduler "s057" with entities [EventEntity, EventEntity], work=770*
 52: 0x1312 [0x52] END_LOAD_SCHEDULER: End scheduler "s061" with entities [EventEntity, EventEntity], work=770*
 53: 0x1321 [0x46] CAMERA_CONTROL: Restore default settings
 54: 0x1323 [0x45] LOAD_SCHEDULED_TASK: Load scheduler "fdi2" with entities [EventEntity, EventEntity], work=[200*, 0*]
 55: 0x1334 [0x21] END_EVENT
 56: 0x1335 [0x00] END_REQSTACK()
```

### Event 17

#### Metadata

| Field        | Value      |
|--------------|------------|
| Entrypoint   | 0x1336     |
| Data Size    | 4438 bytes |
| Instructions | 512        |

```
      00 01 02 03 04 05 06 07  08 09 0A 0B 0C 0D 0E 0F
      -- -- -- -- -- -- -- --  -- -- -- -- -- -- -- --
1330:                   42 03  00 00 02 10 5D 00 80 8A        B.....]...
1340: 80 45 02 80 F8 FF FF 7F  F8 FF FF 7F 66 64 6F 31  .E..........fdo1
1350: 00 80 55 02 80 F8 FF FF  7F F8 FF FF 7F 66 64 6F  ..U..........fdo
1360: 31 46 01 38 03 80 2F 00  84 91 01 01 4E 00 84 91  1F.8../.....N...
1370: 01 01 92 01 84 91 01 01  92 01 80 91 01 01 94 01  ................
1380: 84 91 01 01 94 01 F0 FF  FF 7F BA F0 FF FF 7F 8B  ................
1390: 80 8C 80 71 80 8D 80 BA  84 91 01 01 08 80 09 80  ...q............
13A0: 0A 80 41 80 80 84 91 01  01 80 F0 FF FF 7F 80 80  ..A.............
13B0: 91 01 01 4A F0 FF FF 7F  84 91 01 01 4A 84 91 01  ...J........J...
13C0: 01 F0 FF FF 7F 1C 22 80  45 8E 80 F8 FF FF 7F F8  ......".E.......
13D0: FF FF 7F 73 30 34 33 00  80 1C 24 80 45 02 80 F8  ...s043...$.E...
13E0: FF FF 7F F8 FF FF 7F 66  64 69 31 00 80 27 05 F0  .......fdi1..'..
13F0: FF FF 7F 42 1C 01 80 5F  05 62 80 84 91 01 01 84  ...B..._.b......
1400: 91 01 01 79 65 73 30 8F  80 52 8E 80 F8 FF FF 7F  ...yes0..R......
1410: F8 FF FF 7F 73 30 34 33  45 8E 80 F8 FF FF 7F F8  ....s043E.......
1420: FF FF 7F 73 30 34 34 00  80 2B 84 91 01 01 90 80  ...s044..+......
1430: 23 2B 84 91 01 01 91 80  23 7B F0 FF FF 7F 5F 07  #+......#{...._.
1440: 84 91 01 01 84 91 01 01  79 65 73 30 5C 00 92 80  ........yes0\...
1450: 5C 01 92 80 5C 02 92 80  5C 03 92 80 9A 81 00 84  \...\...\.......
1460: 91 01 01 5B 93 80 84 91  01 01 84 91 01 01 62 74  ...[..........bt
1470: 6C 30 2C 84 91 01 01 84  91 01 01 77 33 6F 6E D0  l0,........w3on.
1480: 94 80 84 91 01 01 84 91  01 01 69 62 74 30 00 80  ..........ibt0..
1490: 52 8E 80 F8 FF FF 7F F8  FF FF 7F 73 30 34 34 45  R..........s044E
14A0: 8E 80 F8 FF FF 7F F8 FF  FF 7F 73 30 34 35 00 80  ..........s045..
14B0: 2B 84 91 01 01 95 80 23  2B 84 91 01 01 96 80 23  +......#+......#
14C0: 55 8E 80 F8 FF FF 7F F8  FF FF 7F 73 30 34 35 02  U..........s045.
14D0: 87 7F 04 80 80 EB 14 45  8E 80 F8 FF FF 7F F8 FF  .......E........
14E0: FF 7F 73 30 34 37 00 80  01 18 15 02 87 7F 05 80  ..s047..........
14F0: 80 07 15 45 8E 80 F8 FF  FF 7F F8 FF FF 7F 73 30  ...E..........s0
1500: 34 37 00 80 01 18 15 45  8E 80 F8 FF FF 7F F8 FF  47.....E........
1510: FF 7F 73 30 34 36 00 80  27 05 F0 FF FF 7F 43 1C  ..s046..'.....C.
1520: 27 80 81 01 84 91 01 01  6B 69 64 6C 30 84 91 01  '.......kidl0...
1530: 01 27 05 84 91 01 01 04  1C 26 80 52 8E 80 F8 FF  .'.......&.R....
1540: FF 7F F8 FF FF 7F 73 30  34 36 52 8E 80 F8 FF FF  ......s046R.....
1550: 7F F8 FF FF 7F 73 30 34  37 45 8E 80 F8 FF FF 7F  .....s047E......
1560: F8 FF FF 7F 73 30 34 38  00 80 C4 01 00 80 84 91  ....s048........
1570: 01 01 F0 FF FF 7F 1C 22  80 C4 01 00 80 F0 FF FF  ......."........
1580: 7F 84 91 01 01 1C 01 80  C4 01 00 80 84 91 01 01  ................
1590: F0 FF FF 7F 1C 22 80 C4  01 00 80 F0 FF FF 7F 84  ....."..........
15A0: 91 01 01 1C 01 80 52 8E  80 F8 FF FF 7F F8 FF FF  ......R.........
15B0: 7F 73 30 34 38 45 8E 80  F8 FF FF 7F F8 FF FF 7F  .s048E..........
15C0: 73 30 34 39 00 80 C4 01  00 80 84 91 01 01 F0 FF  s049............
15D0: FF 7F 1C 01 80 52 8E 80  F8 FF FF 7F F8 FF FF 7F  .....R..........
15E0: 73 30 34 39 02 87 7F 04  80 80 00 16 45 8E 80 F8  s049........E...
15F0: FF FF 7F F8 FF FF 7F 73  30 35 31 00 80 01 2D 16  .......s051...-.
1600: 02 87 7F 05 80 80 1C 16  45 8E 80 F8 FF FF 7F F8  ........E.......
1610: FF FF 7F 73 30 35 31 00  80 01 2D 16 45 8E 80 F8  ...s051...-.E...
1620: FF FF 7F F8 FF FF 7F 73  30 35 30 00 80 C4 01 00  .......s050.....
1630: 80 F0 FF FF 7F 84 91 01  01 1C 01 80 52 8E 80 F8  ............R...
1640: FF FF 7F F8 FF FF 7F 73  30 35 30 45 8E 80 F8 FF  .......s050E....
1650: FF 7F F8 FF FF 7F 73 30  35 32 00 80 C4 01 00 80  ......s052......
1660: 84 91 01 01 F0 FF FF 7F  1C 22 80 C4 01 00 80 F0  ........."......
1670: FF FF 7F 84 91 01 01 1C  01 80 C4 01 00 80 84 91  ................
1680: 01 01 F0 FF FF 7F 1C 22  80 C4 01 00 80 F0 FF FF  ......."........
1690: 7F 84 91 01 01 1C 97 80  5D 00 80 01 80 45 02 80  ........]....E..
16A0: F8 FF FF 7F F8 FF FF 7F  66 64 6F 31 00 80 55 02  ........fdo1..U.
16B0: 80 F8 FF FF 7F F8 FF FF  7F 66 64 6F 31 52 8E 80  .........fdo1R..
16C0: F8 FF FF 7F F8 FF FF 7F  73 30 35 32 6B 69 64 6C  ........s052kidl
16D0: 30 84 91 01 01 6B 69 64  6C 30 F0 FF FF 7F 27 05  0....kidl0....'.
16E0: 84 91 01 01 05 27 05 F0  FF FF 7F 44 29 05 84 91  .....'.....D)...
16F0: 01 01 06 7B 84 91 01 01  1C 97 80 48 98 80 23 1C  ...{.......H..#.
1700: 97 80 5C 00 6E 80 5C 01  6E 80 5C 02 92 80 5C 03  ..\.n.\.n.\...\.
1710: 99 80 9A 45 8E 80 F8 FF  FF 7F F8 FF FF 7F 73 30  ...E..........s0
1720: 35 33 00 80 1C 24 80 45  02 80 F8 FF FF 7F F8 FF  53...$.E........
1730: FF 7F 66 64 69 31 00 80  5B 9A 80 84 91 01 01 84  ..fdi1..[.......
1740: 91 01 01 6F 6A 69 30 2B  84 91 01 01 9B 80 1C 9C  ...oji0+........
1750: 80 23 52 8E 80 F8 FF FF  7F F8 FF FF 7F 73 30 35  .#R..........s05
1760: 33 45 8E 80 F8 FF FF 7F  F8 FF FF 7F 73 30 35 34  3E..........s054
1770: 00 80 5B 45 80 84 91 01  01 84 91 01 01 74 6C 6B  ..[E.........tlk
1780: 30 2B 84 91 01 01 9D 80  23 5B 45 80 84 91 01 01  0+......#[E.....
1790: 84 91 01 01 74 6C 6B 31  45 02 80 F8 FF FF 7F F8  ....tlk1E.......
17A0: FF FF 7F 66 64 6F 31 00  80 55 02 80 F8 FF FF 7F  ...fdo1..U......
17B0: F8 FF FF 7F 66 64 6F 31  52 8E 80 F8 FF FF 7F F8  ....fdo1R.......
17C0: FF FF 7F 73 30 35 34 7B  F0 FF FF 7F 59 05 84 91  ...s054{....Y...
17D0: 01 01 01 BA F0 FF FF 7F  9E 80 9F 80 A0 80 A1 80  ................
17E0: BA 84 91 01 01 A2 80 A3  80 A4 80 A5 80 80 84 91  ................
17F0: 01 01 80 F0 FF FF 7F 1C  22 80 02 87 7F 07 80 80  ........".......
1800: 0C 18 27 05 F0 FF FF 7F  46 01 13 18 27 05 F0 FF  ..'.....F...'...
1810: FF 7F 45 5B 9A 80 84 91  01 01 84 91 01 01 6F 6E  ..E[..........on
1820: 69 30 1C 01 80 45 8E 80  F8 FF FF 7F F8 FF FF 7F  i0...E..........
1830: 73 30 39 30 00 80 1C 24  80 45 02 80 F8 FF FF 7F  s090...$.E......
1840: F8 FF FF 7F 66 64 69 31  00 80 1C 4E 80 52 8E 80  ....fdi1...N.R..
1850: F8 FF FF 7F F8 FF FF 7F  73 30 39 30 45 8E 80 F8  ........s090E...
1860: FF FF 7F F8 FF FF 7F 73  30 39 31 00 80 1C 4E 80  .......s091...N.
1870: 52 8E 80 F8 FF FF 7F F8  FF FF 7F 73 30 39 31 45  R..........s091E
1880: 8E 80 F8 FF FF 7F F8 FF  FF 7F 73 30 39 32 00 80  ..........s092..
1890: 5B 9A 80 84 91 01 01 84  91 01 01 6F 6E 69 31 1C  [..........oni1.
18A0: A6 80 52 8E 80 F8 FF FF  7F F8 FF FF 7F 73 30 39  ..R..........s09
18B0: 32 45 8E 80 F8 FF FF 7F  F8 FF FF 7F 73 31 32 35  2E..........s125
18C0: 00 80 27 10 80 91 01 01  06 81 00 84 91 01 01 7C  ..'............|
18D0: 00 84 91 01 01 5B A7 80  84 91 01 01 84 91 01 01  .....[..........
18E0: 6F 6E 69 34 1C 81 80 1C  6E 80 5B A7 80 84 91 01  oni4....n.[.....
18F0: 01 84 91 01 01 66 6F 30  31 2B 84 91 01 01 A8 80  .....fo01+......
1900: 1C 01 80 23 52 8E 80 F8  FF FF 7F F8 FF FF 7F 73  ...#R..........s
1910: 31 32 35 45 8E 80 F8 FF  FF 7F F8 FF FF 7F 73 30  125E..........s0
1920: 39 33 00 80 2B 84 91 01  01 A9 80 23 52 8E 80 F8  93..+......#R...
1930: FF FF 7F F8 FF FF 7F 73  30 39 33 45 8E 80 F8 FF  .......s093E....
1940: FF 7F F8 FF FF 7F 73 30  39 34 00 80 2B 84 91 01  ......s094..+...
1950: 01 AA 80 23 2B 84 91 01  01 AB 80 23 52 8E 80 F8  ...#+......#R...
1960: FF FF 7F F8 FF FF 7F 73  30 39 34 45 8E 80 F8 FF  .......s094E....
1970: FF 7F F8 FF FF 7F 73 30  39 35 00 80 27 10 80 91  ......s095..'...
1980: 01 01 07 2B 84 91 01 01  AC 80 23 2B 84 91 01 01  ...+......#+....
1990: AD 80 23 5B 9A 80 84 91  01 01 84 91 01 01 6F 6E  ..#[..........on
19A0: 69 32 52 8E 80 F8 FF FF  7F F8 FF FF 7F 73 30 39  i2R..........s09
19B0: 35 45 8E 80 F8 FF FF 7F  F8 FF FF 7F 73 30 39 36  5E..........s096
19C0: 00 80 4E 01 F0 FF FF 7F  1C 27 80 02 87 7F 07 80  ..N......'......
19D0: 80 DD 19 27 05 F0 FF FF  7F 47 01 E4 19 27 05 F0  ...'.....G...'..
19E0: FF FF 7F 44 BA F0 FF FF  7F AE 80 AF 80 B0 80 A1  ...D............
19F0: 80 2B 84 91 01 01 B1 80  1C A6 80 23 5B A7 80 84  .+.........#[...
1A00: 91 01 01 84 91 01 01 66  6F 30 30 24 B2 80 00 80  .......fo00$....
1A10: 00 80 25 02 00 10 00 80  00 55 1A 52 8E 80 F8 FF  ..%......U.R....
1A20: FF 7F F8 FF FF 7F 73 30  39 36 45 8E 80 F8 FF FF  ......s096E.....
1A30: 7F F8 FF FF 7F 73 30 39  37 00 80 5B A7 80 84 91  .....s097..[....
1A40: 01 01 84 91 01 01 66 6F  30 31 2B 84 91 01 01 B3  ......fo01+.....
1A50: 80 23 01 D9 1A 02 00 10  2C 80 00 97 1A 52 8E 80  .#......,....R..
1A60: F8 FF FF 7F F8 FF FF 7F  73 30 39 36 45 8E 80 F8  ........s096E...
1A70: FF FF 7F F8 FF FF 7F 73  30 39 37 00 80 5B A7 80  .......s097..[..
1A80: 84 91 01 01 84 91 01 01  66 6F 30 31 2B 84 91 01  ........fo01+...
1A90: 01 B4 80 23 01 D9 1A 02  00 10 2E 80 00 D9 1A 52  ...#...........R
1AA0: 8E 80 F8 FF FF 7F F8 FF  FF 7F 73 30 39 36 45 8E  ..........s096E.
1AB0: 80 F8 FF FF 7F F8 FF FF  7F 73 30 39 37 00 80 5B  .........s097..[
1AC0: A7 80 84 91 01 01 84 91  01 01 66 6F 30 31 2B 84  ..........fo01+.
1AD0: 91 01 01 B5 80 23 01 D9  1A 2A 05 F0 FF FF 7F 4E  .....#...*.....N
1AE0: 00 F0 FF FF 7F 80 F0 FF  FF 7F 5D 00 80 02 80 52  ..........]....R
1AF0: 8E 80 F8 FF FF 7F F8 FF  FF 7F 73 30 39 37 45 8E  ..........s097E.
1B00: 80 F8 FF FF 7F F8 FF FF  7F 73 30 39 38 00 80 1C  .........s098...
1B10: 81 80 D3 00 84 91 01 01  81 01 84 91 01 01 7C 01  ..............|.
1B20: 84 91 01 01 27 05 84 91  01 01 07 2B 84 91 01 01  ....'......+....
1B30: B6 80 1C 97 80 4A F0 FF  FF 7F 84 91 01 01 23 2B  .....J........#+
1B40: 84 91 01 01 B7 80 23 2A  05 84 91 01 01 5C 00 31  ......#*.....\.1
1B50: 80 5C 01 31 80 9A 52 8E  80 F8 FF FF 7F F8 FF FF  .\.1..R.........
1B60: 7F 73 30 39 38 45 8E 80  F8 FF FF 7F F8 FF FF 7F  .s098E..........
1B70: 73 30 39 39 00 80 5B 45  80 84 91 01 01 84 91 01  s099..[E........
1B80: 01 74 6C 6B 30 2B 84 91  01 01 B8 80 23 2B 84 91  .tlk0+......#+..
1B90: 01 01 B9 80 23 5B 45 80  84 91 01 01 84 91 01 01  ....#[E.........
