# 0x7FFFFFF0 - Zone Events

## Common Data

| Field            | Value                    |
|------------------|--------------------------|
| Zone             | Misareaux Coast (ID: 25) |
| Block Size       | 6384 bytes               |
| Total Events     | 79                       |
| References Count | 273                      |

## List of Events

| Event ID                   | Entrypoint   |   Size |   Instructions |
|----------------------------|--------------|--------|----------------|
| [65535](#event-65535)      | 0x0000       |      1 |              1 |
| [65534](#event-65534)      | 0x0001       |      1 |              1 |
| [65535.1](#event-655351)   | 0x0002       |      6 |              2 |
| [65535.2](#event-655352)   | 0x0008       |      6 |              2 |
| [65535.3](#event-655353)   | 0x000E       |      6 |              2 |
| [65535.4](#event-655354)   | 0x0014       |      6 |              2 |
| [65535.5](#event-655355)   | 0x001A       |      6 |              2 |
| [100](#event-100)          | 0x0020       |     18 |              2 |
| [101](#event-101)          | 0x0032       |     38 |              4 |
| [102](#event-102)          | 0x0058       |     50 |              8 |
| [500](#event-500)          | 0x008A       |     13 |              3 |
| [501](#event-501)          | 0x0097       |     14 |              4 |
| [110](#event-110)          | 0x00A5       |     10 |              2 |
| [111](#event-111)          | 0x00AF       |     14 |              4 |
| [112](#event-112)          | 0x00BD       |     13 |              3 |
| [113](#event-113)          | 0x00CA       |     10 |              2 |
| [114](#event-114)          | 0x00D4       |     14 |              4 |
| [115](#event-115)          | 0x00E2       |     13 |              3 |
| [65535.6](#event-655356)   | 0x00EF       |     10 |              2 |
| [65535.7](#event-655357)   | 0x00F9       |     15 |              5 |
| [65535.8](#event-655358)   | 0x0108       |     10 |              2 |
| [65535.9](#event-655359)   | 0x0112       |     10 |              2 |
| [65535.10](#event-6553510) | 0x011C       |     18 |              6 |
| [65535.11](#event-6553511) | 0x012E       |     10 |              2 |
| [65535.12](#event-6553512) | 0x0138       |     17 |              5 |
| [65535.13](#event-6553513) | 0x0149       |     10 |              2 |
| [65535.14](#event-6553514) | 0x0153       |     14 |              4 |
| [65535.15](#event-6553515) | 0x0161       |     10 |              2 |
| [65535.16](#event-6553516) | 0x016B       |     10 |              2 |
| [65535.17](#event-6553517) | 0x0175       |     30 |              8 |
| [65535.18](#event-6553518) | 0x0193       |     10 |              2 |
| [65535.19](#event-6553519) | 0x019D       |     10 |              2 |
| [65535.20](#event-6553520) | 0x01A7       |     15 |              5 |
| [65535.21](#event-6553521) | 0x01B6       |     10 |              2 |
| [65535.22](#event-6553522) | 0x01C0       |     15 |              5 |
| [65535.23](#event-6553523) | 0x01CF       |     19 |              5 |
| [65535.24](#event-6553524) | 0x01E2       |     30 |              5 |
| [65535.25](#event-6553525) | 0x0200       |     37 |             10 |
| [65535.26](#event-6553526) | 0x0225       |     10 |              2 |
| [65535.27](#event-6553527) | 0x022F       |     15 |              5 |
| [65535.28](#event-6553528) | 0x023E       |     12 |              3 |
| [65535.29](#event-6553529) | 0x024A       |     10 |              2 |
| [65535.30](#event-6553530) | 0x0254       |     15 |              5 |
| [65535.31](#event-6553531) | 0x0263       |     10 |              2 |
| [65535.32](#event-6553532) | 0x026D       |     13 |              3 |
| [65535.33](#event-6553533) | 0x027A       |     10 |              2 |
| [65535.34](#event-6553534) | 0x0284       |     15 |              5 |
| [65535.35](#event-6553535) | 0x0293       |     10 |              2 |
| [65535.36](#event-6553536) | 0x029D       |     10 |              2 |
| [65535.37](#event-6553537) | 0x02A7       |     15 |              5 |
| [65535.38](#event-6553538) | 0x02B6       |     10 |              2 |
| [65535.39](#event-6553539) | 0x02C0       |     10 |              2 |
| [65535.40](#event-6553540) | 0x02CA       |     10 |              2 |
| [556](#event-556)          | 0x02D4       |    842 |            110 |
| [557](#event-557)          | 0x061E       |    375 |             54 |
| [558](#event-558)          | 0x0795       |   2197 |            285 |
| [65535.41](#event-6553541) | 0x102A       |     10 |              2 |
| [65535.42](#event-6553542) | 0x1034       |     15 |              5 |
| [65535.43](#event-6553543) | 0x1043       |     10 |              2 |
| [65535.44](#event-6553544) | 0x104D       |     15 |              5 |
| [65535.45](#event-6553545) | 0x105C       |      6 |              2 |
| [65535.46](#event-6553546) | 0x1062       |     13 |              3 |
| [65535.47](#event-6553547) | 0x106F       |     10 |              2 |
| [65535.48](#event-6553548) | 0x1079       |     14 |              4 |
| [65535.49](#event-6553549) | 0x1087       |     24 |              4 |
| [65535.50](#event-6553550) | 0x109F       |     24 |              4 |
| [65535.51](#event-6553551) | 0x10B7       |     27 |              5 |
| [65535.52](#event-6553552) | 0x10D2       |      7 |              3 |
| [65535.53](#event-6553553) | 0x10D9       |      7 |              3 |
| [65535.54](#event-6553554) | 0x10E0       |      7 |              3 |
| [65535.55](#event-6553555) | 0x10E7       |     37 |              5 |
| [65535.56](#event-6553556) | 0x110C       |    185 |             37 |
| [65535.57](#event-6553557) | 0x11C5       |     22 |              6 |
| [65535.58](#event-6553558) | 0x11DB       |     22 |              6 |
| [65535.59](#event-6553559) | 0x11F1       |    345 |             33 |
| [65535.60](#event-6553560) | 0x134A       |      5 |              2 |
| [65535.61](#event-6553561) | 0x134F       |      5 |              2 |
| [65535.62](#event-6553562) | 0x1354       |      5 |              2 |
| [65535.63](#event-6553563) | 0x1359       |      5 |              2 |

## DAT References (imed_data)

|   Index | Hex Value   |   Dec Value |
|---------|-------------|-------------|
|       0 | 0x0047      |          71 |
|       1 | 0x0000      |           0 |
|       2 | 0x00C8      |         200 |
|       3 | 0x0048      |          72 |
|       4 | 0x00AA      |         170 |
|       5 | 0xD0D2      |       53458 |
|       6 | 0xB4A81     |      739969 |
|       7 | 0xFFFFA240  |  4294943296 |
|       8 | 0x0FF0      |        4080 |
|       9 | 0x000D      |          13 |
|      10 | 0xE76A      |       59242 |
|      11 | 0xB4AEE     |      740078 |
|      12 | 0xFFFC089C  |  4294707356 |
|      13 | 0x43C7A     |      277626 |
|      14 | 0xFFFF8A5B  |  4294937179 |
|      15 | 0x0BF7      |        3063 |
|      16 | 0xFFFC06B5  |  4294706869 |
|      17 | 0x4577D     |      284541 |
|      18 | 0xFFFF86F6  |  4294936310 |
|      19 | 0xFFF9D9C0  |  4294564288 |
|      20 | 0x5300A     |      339978 |
|      21 | 0xFFFF8A6F  |  4294937199 |
|      22 | 0x0816      |        2070 |
|      23 | 0xFFF9DD63  |  4294565219 |
|      24 | 0x52FCC     |      339916 |
|      25 | 0xFFFF8A4B  |  4294937163 |
|      26 | 0x0028      |          40 |
|      27 | 0xFFF9FAE6  |  4294572774 |
|      28 | 0x52DD7     |      339415 |
|      29 | 0xFFFF860B  |  4294936075 |
|      30 | 0xFFFC097E  |  4294707582 |
|      31 | 0x43AF5     |      277237 |
|      32 | 0xFFFF8A67  |  4294937191 |
|      33 | 0x038B      |         907 |
|      34 | 0xFFFDD9B2  |  4294826418 |
|      35 | 0xFFFB1C8D  |  4294646925 |
|      36 | 0xFFFF86C8  |  4294936264 |
|      37 | 0x07FB      |        2043 |
|      38 | 0xFFFDA156  |  4294811990 |
|      39 | 0xFFFB1D09  |  4294647049 |
|      40 | 0xFFFF832F  |  4294935343 |
|      41 | 0xFFFD9C0B  |  4294810635 |
|      42 | 0xFFFB220A  |  4294648330 |
|      43 | 0xFFFF8385  |  4294935429 |
|      44 | 0x080B      |        2059 |
|      45 | 0xFFF977BE  |  4294539198 |
|      46 | 0x53D51     |      343377 |
|      47 | 0xFFFF8533  |  4294935859 |
|      48 | 0x0A7D      |        2685 |
|      49 | 0x003C      |          60 |
|      50 | 0xFFF94EF2  |  4294528754 |
|      51 | 0x57261     |      356961 |
|      52 | 0xFFFF8241  |  4294935105 |
|      53 | 0xFFF7F41D  |  4294439965 |
|      54 | 0x56242     |      352834 |
|      55 | 0x0695      |        1685 |
|      56 | 0xFFF7C887  |  4294428807 |
|      57 | 0x570B8     |      356536 |
|      58 | 0xFFFF8CC4  |  4294937796 |
|      59 | 0xFFFDA820  |  4294813728 |
|      60 | 0xFFFB2310  |  4294648592 |
|      61 | 0xFFFF83F4  |  4294935540 |
|      62 | 0x077C      |        1916 |
|      63 | 0xFFFD7E08  |  4294802952 |
|      64 | 0xFFFB20AD  |  4294647981 |
|      65 | 0xFFFF8051  |  4294934609 |
|      66 | 0xFFFD70BC  |  4294799548 |
|      67 | 0xFFFB2196  |  4294648214 |
|      68 | 0xFFFF80E9  |  4294934761 |
|      69 | 0x0815      |        2069 |
|      70 | 0xFFF80D26  |  4294446374 |
|      71 | 0x57FF5     |      360437 |
|      72 | 0xFFFF8393  |  4294935443 |
|      73 | 0xFFF7ECEC  |  4294438124 |
|      74 | 0x57D39     |      359737 |
|      75 | 0xFFFF899B  |  4294936987 |
|      76 | 0xFFF7EFA2  |  4294438818 |
|      77 | 0x578BF     |      358591 |
|      78 | 0xFFFF88E2  |  4294936802 |
|      79 | 0x0FED      |        4077 |
|      80 | 0xFFF7E05A  |  4294434906 |
|      81 | 0x57D3C     |      359740 |
|      82 | 0xFFFF8C8F  |  4294937743 |
|      83 | 0x077F      |        1919 |
|      84 | 0xFFF7BA3C  |  4294425148 |
|      85 | 0x57825     |      358437 |
|      86 | 0xD084      |       53380 |
|      87 | 0xB4DF2     |      740850 |
|      88 | 0x011F      |         287 |
|      89 | 0xD46C      |       54380 |
|      90 | 0x001E      |          30 |
|      91 | 0x0008      |           8 |
|      92 | 0xD6D8      |       55000 |
|      93 | 0xB4C94     |      740500 |
|      94 | 0xE678      |       59000 |
|      95 | 0xE86C      |       59500 |
|      96 | 0xFFFDC09E  |  4294819998 |
|      97 | 0xFFFB2054  |  4294647892 |
|      98 | 0xFFFF84CF  |  4294935759 |
|      99 | 0x0832      |        2098 |
|     100 | 0xFFFD8B5F  |  4294806367 |
|     101 | 0xFFFB1F3D  |  4294647613 |
|     102 | 0xFFFF82B7  |  4294935223 |
|     103 | 0xFFFD919C  |  4294807964 |
|     104 | 0xFFFB1C23  |  4294646819 |
|     105 | 0xFFFF82FF  |  4294935295 |
|     106 | 0x0962      |        2402 |
|     107 | 0xFFFD9117  |  4294807831 |
|     108 | 0xFFFB17D5  |  4294645717 |
|     109 | 0xFFFF8421  |  4294935585 |
|     110 | 0x0E8E      |        3726 |
|     111 | 0xFFFD95F9  |  4294809081 |
|     112 | 0xFFFB1B1F  |  4294646559 |
|     113 | 0xFFFF834F  |  4294935375 |
|     114 | 0xFFFDA040  |  4294811712 |
|     115 | 0xFFFB175B  |  4294645595 |
|     116 | 0xFFFF83BC  |  4294935484 |
|     117 | 0x0EED      |        3821 |
|     118 | 0x0015      |          21 |
|     119 | 0xFFF8B138  |  4294488376 |
|     120 | 0x52555     |      337237 |
|     121 | 0xFFFF865E  |  4294936158 |
|     122 | 0x05CE      |        1486 |
|     123 | 0xFFF897E1  |  4294481889 |
|     124 | 0x50F2F     |      331567 |
|     125 | 0xFFFF860E  |  4294936078 |
|     126 | 0xFFF89A93  |  4294482579 |
|     127 | 0x50ED2     |      331474 |
|     128 | 0xFFFF8595  |  4294935957 |
|     129 | 0x051A      |        1306 |
|     130 | 0xB34C7     |      734407 |
|     131 | 0x65240     |      414272 |
|     132 | 0xFFFFB36F  |  4294947695 |
|     133 | 0x0CBE      |        3262 |
|     134 | 0x000B      |          11 |
|     135 | 0xB39C0     |      735680 |
|     136 | 0x6626D     |      418413 |
|     137 | 0xFFFB397E  |  4294654334 |
|     138 | 0x2D075     |      184437 |
|     139 | 0xFFFF8147  |  4294934855 |
|     140 | 0x0B7E      |        2942 |
|     141 | 0xFFFB3638  |  4294653496 |
|     142 | 0x2D343     |      185155 |
|     143 | 0x00AC      |         172 |
|     144 | 0xFFFB3A56  |  4294654550 |
|     145 | 0x2CFD6     |      184278 |
|     146 | 0x0027      |          39 |
|     147 | 0x02C5      |         709 |
|     148 | 0x0078      |         120 |
|     149 | 0x0013      |          19 |
|     150 | 0xFFFDB74C  |  4294817612 |
|     151 | 0x9D91E     |      645406 |
|     152 | 0xFFFFC32D  |  4294951725 |
|     153 | 0x08CA      |        2250 |
|     154 | 0x000E      |          14 |
|     155 | 0x00A5      |         165 |
|     156 | 0x002D      |          45 |
|     157 | 0x0030      |          48 |
|     158 | 0x000F      |          15 |
|     159 | 0x007F      |         127 |
|     160 | 0x0258      |         600 |
|     161 | 0x1DCB      |        7627 |
|     162 | 0x005A      |          90 |
|     163 | 0x1DCC      |        7628 |
|     164 | 0x1DCD      |        7629 |
|     165 | 0x1DCE      |        7630 |
|     166 | 0x1DD1      |        7633 |
|     167 | 0x1DD2      |        7634 |
|     168 | 0x1DD3      |        7635 |
|     169 | 0x1DCF      |        7631 |
|     170 | 0x1DD0      |        7632 |
|     171 | 0x00D4      |         212 |
|     172 | 0x00F0      |         240 |
|     173 | 0x00E6      |         230 |
|     174 | 0x001B      |          27 |
|     175 | 0x1DD6      |        7638 |
|     176 | 0x1DD4      |        7636 |
|     177 | 0x00F9      |         249 |
|     178 | 0x1DD5      |        7637 |
|     179 | 0xFFFDB4A1  |  4294816929 |
|     180 | 0x9D35B     |      643931 |
|     181 | 0xFFFFC31F  |  4294951711 |
|     182 | 0x0A00      |        2560 |
|     183 | 0x001D      |          29 |
|     184 | 0x0190      |         400 |
|     185 | 0x1DD7      |        7639 |
|     186 | 0x1DD8      |        7640 |
|     187 | 0x1DD9      |        7641 |
|     188 | 0x1DDA      |        7642 |
|     189 | 0x1DDB      |        7643 |
|     190 | 0x1DDC      |        7644 |
|     191 | 0x1DDD      |        7645 |
|     192 | 0x1DDE      |        7646 |
|     193 | 0x1DDF      |        7647 |
|     194 | 0x1DE0      |        7648 |
|     195 | 0x00B4      |         180 |
|     196 | 0x0005      |           5 |
|     197 | 0x007C      |         124 |
|     198 | 0x0001      |           1 |
|     199 | 0x1DE1      |        7649 |
|     200 | 0x1DE2      |        7650 |
|     201 | 0x1DE3      |        7651 |
|     202 | 0x1DE4      |        7652 |
|     203 | 0x1DE5      |        7653 |
|     204 | 0x1DE6      |        7654 |
|     205 | 0x1DE7      |        7655 |
|     206 | 0x0006      |           6 |
|     207 | 0x1DE8      |        7656 |
|     208 | 0x1DE9      |        7657 |
|     209 | 0x1DEA      |        7658 |
|     210 | 0x1DEB      |        7659 |
|     211 | 0x1DEC      |        7660 |
|     212 | 0x0007      |           7 |
|     213 | 0x0009      |           9 |
|     214 | 0x1DED      |        7661 |
|     215 | 0x1DEE      |        7662 |
|     216 | 0x1DEF      |        7663 |
|     217 | 0x1DF0      |        7664 |
|     218 | 0x1DF1      |        7665 |
|     219 | 0x1DF2      |        7666 |
|     220 | 0x1DF3      |        7667 |
|     221 | 0x1DF4      |        7668 |
|     222 | 0x1DF5      |        7669 |
|     223 | 0x1DF6      |        7670 |
|     224 | 0x1DF7      |        7671 |
|     225 | 0x1DF8      |        7672 |
|     226 | 0x1DF9      |        7673 |
|     227 | 0x0096      |         150 |
|     228 | 0x00C9      |         201 |
|     229 | 0xFFF8752D  |  4294473005 |
|     230 | 0x575AA     |      357802 |
|     231 | 0xFFFF85C0  |  4294936000 |
|     232 | 0x0818      |        2072 |
|     233 | 0xFFF84CF2  |  4294462706 |
|     234 | 0x57D58     |      359768 |
|     235 | 0xFFFF85E2  |  4294936034 |
|     236 | 0xFFF84B9F  |  4294462367 |
|     237 | 0x57FB7     |      360375 |
|     238 | 0x000A      |          10 |
|     239 | 0xFFF8352C  |  4294456620 |
|     240 | 0x57EC0     |      360128 |
|     241 | 0xFFFF8407  |  4294935559 |
|     242 | 0xFFFDCA14  |  4294822420 |
|     243 | 0xFFFB2371  |  4294648689 |
|     244 | 0xFFFF85C5  |  4294936005 |
|     245 | 0x07D3      |        2003 |
|     246 | 0xFFFDAF0B  |  4294815499 |
|     247 | 0xFFFB208D  |  4294647949 |
|     248 | 0xFFFF83E7  |  4294935527 |
|     249 | 0x0042      |          66 |
|     250 | 0x0002      |           2 |
|     251 | 0x0046      |          70 |
|     252 | 0x008C      |         140 |
|     253 | 0x00D2      |         210 |
|     254 | 0xFFFF67E7  |  4294928359 |
|     255 | 0x8A6D4     |      566996 |
|     256 | 0xFFFFA284  |  4294943364 |
|     257 | 0xFFFF5FEF  |  4294926319 |
|     258 | 0x8B475     |      570485 |
|     259 | 0xFFFFA369  |  4294943593 |
|     260 | 0x008D      |         141 |
|     261 | 0x0F26      |        3878 |
|     262 | 0x0097      |         151 |
|     263 | 0x0003      |           3 |
|     264 | 0x00A1      |         161 |
|     265 | 0x0004      |           4 |
|     266 | 0x00AB      |         171 |
|     267 | 0x00B5      |         181 |
|     268 | 0x00BF      |         191 |
|     269 | 0x0057      |          87 |
|     270 | 0x005D      |          93 |
|     271 | 0x0060      |          96 |
|     272 | 0x0064      |         100 |

## String References

- **7638**: You place the $3 gently on the ground.

## Events

### Event 65535

#### Metadata

| Field        | Value   |
|--------------|---------|
| Entrypoint   | 0x0000  |
| Data Size    | 1 bytes |
| Instructions | 1       |

```
      00 01 02 03 04 05 06 07  08 09 0A 0B 0C 0D 0E 0F
      -- -- -- -- -- -- -- --  -- -- -- -- -- -- -- --
0000: 00                                                .               
```

#### Opcodes

```
  0: 0x0000 [0x00] END_REQSTACK()
```

### Event 65534

#### Metadata

| Field        | Value   |
|--------------|---------|
| Entrypoint   | 0x0001  |
| Data Size    | 1 bytes |
| Instructions | 1       |

```
      00 01 02 03 04 05 06 07  08 09 0A 0B 0C 0D 0E 0F
      -- -- -- -- -- -- -- --  -- -- -- -- -- -- -- --
0000:    00                                              .              
```

#### Opcodes

```
  0: 0x0001 [0x00] END_REQSTACK()
```

### Event 65535.1

#### Metadata

| Field        | Value   |
|--------------|---------|
| Entrypoint   | 0x0002  |
| Data Size    | 6 bytes |
| Instructions | 2       |

```
      00 01 02 03 04 05 06 07  08 09 0A 0B 0C 0D 0E 0F
      -- -- -- -- -- -- -- --  -- -- -- -- -- -- -- --
0000:       03 02 10 0B 7F 00                             ......        
```

#### Opcodes

```
  0: 0x0002 [0x03] Work_Zone[2] = (Entity->Render.Flags01 >> 25) & 1
  1: 0x0007 [0x00] END_REQSTACK()
```

### Event 65535.2

#### Metadata

| Field        | Value   |
|--------------|---------|
| Entrypoint   | 0x0008  |
| Data Size    | 6 bytes |
| Instructions | 2       |

```
      00 01 02 03 04 05 06 07  08 09 0A 0B 0C 0D 0E 0F
      -- -- -- -- -- -- -- --  -- -- -- -- -- -- -- --
0000:                          03 02 10 07 7F 00                ......  
```

#### Opcodes

```
  0: 0x0008 [0x03] Work_Zone[2] = Entity->Race
  1: 0x000D [0x00] END_REQSTACK()
```

### Event 65535.3

#### Metadata

| Field        | Value   |
|--------------|---------|
| Entrypoint   | 0x000E  |
| Data Size    | 6 bytes |
| Instructions | 2       |

```
      00 01 02 03 04 05 06 07  08 09 0A 0B 0C 0D 0E 0F
      -- -- -- -- -- -- -- --  -- -- -- -- -- -- -- --
0000:                                            03 09                ..
0010: 10 07 7F 00                                       ....            
```

#### Opcodes

```
  0: 0x000E [0x03] Work_Zone[9] = Entity->Race
  1: 0x0013 [0x00] END_REQSTACK()
```

### Event 65535.4

#### Metadata

| Field        | Value   |
|--------------|---------|
| Entrypoint   | 0x0014  |
| Data Size    | 6 bytes |
| Instructions | 2       |

```
      00 01 02 03 04 05 06 07  08 09 0A 0B 0C 0D 0E 0F
      -- -- -- -- -- -- -- --  -- -- -- -- -- -- -- --
0010:             03 02 10 06  7F 00                        ......      
```

#### Opcodes

```
  0: 0x0014 [0x03] Work_Zone[2] = Entity->JobId (if LocalPlayer)
  1: 0x0019 [0x00] END_REQSTACK()
```

### Event 65535.5

#### Metadata

| Field        | Value   |
|--------------|---------|
| Entrypoint   | 0x001A  |
| Data Size    | 6 bytes |
| Instructions | 2       |

```
      00 01 02 03 04 05 06 07  08 09 0A 0B 0C 0D 0E 0F
      -- -- -- -- -- -- -- --  -- -- -- -- -- -- -- --
0010:                                03 08 10 07 7F 00            ......
```

#### Opcodes

```
  0: 0x001A [0x03] Work_Zone[8] = Entity->Race
  1: 0x001F [0x00] END_REQSTACK()
```

### Event 100

#### Metadata

| Field        | Value    |
|--------------|----------|
| Entrypoint   | 0x0020   |
| Data Size    | 18 bytes |
| Instructions | 2        |

```
      00 01 02 03 04 05 06 07  08 09 0A 0B 0C 0D 0E 0F
      -- -- -- -- -- -- -- --  -- -- -- -- -- -- -- --
0020: 9F 00 80 F8 FF FF 7F F8  FF FF 7F 6D 61 69 6E 01  ...........main.
0030: 80 00                                             ..              
```

#### Opcodes

```
  0: 0x0020 [0x9F] LOAD_SCHEDULED_TASK_ALT: Load scheduler "main" with entities [EventEntity, EventEntity], work=[71*, 0*]
  1: 0x0031 [0x00] END_REQSTACK()
```

### Event 101

#### Metadata

| Field        | Value    |
|--------------|----------|
| Entrypoint   | 0x0032   |
| Data Size    | 38 bytes |
| Instructions | 4        |

```
      00 01 02 03 04 05 06 07  08 09 0A 0B 0C 0D 0E 0F
      -- -- -- -- -- -- -- --  -- -- -- -- -- -- -- --
0030:       45 02 80 F0 FF FF  7F F0 FF FF 7F 66 64 69    E..........fdi
0040: 31 01 80 9F 03 80 F8 FF  FF 7F F8 FF FF 7F 6D 61  1.............ma
0050: 69 6E 01 80 1C 04 80 00                           in......        
```

#### Opcodes

```
  0: 0x0032 [0x45] LOAD_SCHEDULED_TASK: Load scheduler "fdi1" with entities [LocalPlayer, LocalPlayer], work=[200*, 0*]
  1: 0x0043 [0x9F] LOAD_SCHEDULED_TASK_ALT: Load scheduler "main" with entities [EventEntity, EventEntity], work=[72*, 0*]
  2: 0x0054 [0x1C] WAIT(170* ticks)
  3: 0x0057 [0x00] END_REQSTACK()
```

### Event 102

#### Metadata

| Field        | Value    |
|--------------|----------|
| Entrypoint   | 0x0058   |
| Data Size    | 50 bytes |
| Instructions | 8        |

```
      00 01 02 03 04 05 06 07  08 09 0A 0B 0C 0D 0E 0F
      -- -- -- -- -- -- -- --  -- -- -- -- -- -- -- --
0050:                          4E 00 F0 FF FF 7F 20 01          N..... .
0060: 42 80 F0 FF FF 7F 45 02  80 F0 FF FF 7F F0 FF FF  B.....E.........
0070: 7F 66 64 69 31 01 80 9F  03 80 F8 FF FF 7F F8 FF  .fdi1...........
0080: FF 7F 6D 61 69 6E 01 80  21 00                    ..main..!.      
```

#### Opcodes

```
  0: 0x0058 [0x4E] SET_ENTITY_HIDE_FLAG: Show LocalPlayer
  1: 0x005E [0x20] SET_CLI_EVENT_UC_FLAG: Lock player control
  2: 0x0060 [0x42] SET_CLI_EVENT_CANCEL_DATA()
  3: 0x0061 [0x80] LOAD_WAIT(entity=LocalPlayer)
  4: 0x0066 [0x45] LOAD_SCHEDULED_TASK: Load scheduler "fdi1" with entities [LocalPlayer, LocalPlayer], work=[200*, 0*]
  5: 0x0077 [0x9F] LOAD_SCHEDULED_TASK_ALT: Load scheduler "main" with entities [EventEntity, EventEntity], work=[72*, 0*]
  6: 0x0088 [0x21] END_EVENT
  7: 0x0089 [0x00] END_REQSTACK()
```

### Event 500

#### Metadata

| Field        | Value    |
|--------------|----------|
| Entrypoint   | 0x008A   |
| Data Size    | 13 bytes |
| Instructions | 3        |

```
      00 01 02 03 04 05 06 07  08 09 0A 0B 0C 0D 0E 0F
      -- -- -- -- -- -- -- --  -- -- -- -- -- -- -- --
0080:                                47 00 05 80 06 80            G.....
0090: 07 80 08 80 47 01 00                              ....G..         
```

#### Opcodes

```
  0: 0x008A [0x47] UPDATE_PLAYER_POS(53.458*, 739.969*, -24.000*, yaw=358.6°*)
  1: 0x0094 [0x47] WAIT_PLAYER_POS_UPDATE
  2: 0x0096 [0x00] END_REQSTACK()
```

### Event 501

#### Metadata

| Field        | Value    |
|--------------|----------|
| Entrypoint   | 0x0097   |
| Data Size    | 14 bytes |
| Instructions | 4        |

```
      00 01 02 03 04 05 06 07  08 09 0A 0B 0C 0D 0E 0F
      -- -- -- -- -- -- -- --  -- -- -- -- -- -- -- --
0090:                      32  09 80 1F 00 0A 80 0B 80         2........
00A0: 07 80 1F 01 00                                    .....           
```

#### Opcodes

```
  0: 0x0097 [0x32] ExtData[1]->MainSpeed = 13* * 0.1
  1: 0x009A [0x1F] MOVE_ENTITY: EventEntity moves to X=59.242*, Z=740.078*, Y=-24.000*
  2: 0x00A2 [0x1F] MOVE_ENTITY: Update entity position (mode=1)
  3: 0x00A4 [0x00] END_REQSTACK()
```

### Event 110

#### Metadata

| Field        | Value    |
|--------------|----------|
| Entrypoint   | 0x00A5   |
| Data Size    | 10 bytes |
| Instructions | 2        |

```
      00 01 02 03 04 05 06 07  08 09 0A 0B 0C 0D 0E 0F
      -- -- -- -- -- -- -- --  -- -- -- -- -- -- -- --
00A0:                37 0C 80  0D 80 0E 80 0F 80 00          7......... 
```

#### Opcodes

```
  0: 0x00A5 [0x37] UPDATE_EVENT_POSITION_AND_DIR: x=-259.940*, z=277.626*, y=-30.117*, direction=269.2°*
  1: 0x00AE [0x00] END_REQSTACK()
```

### Event 111

#### Metadata

| Field        | Value    |
|--------------|----------|
| Entrypoint   | 0x00AF   |
| Data Size    | 14 bytes |
| Instructions | 4        |

```
      00 01 02 03 04 05 06 07  08 09 0A 0B 0C 0D 0E 0F
      -- -- -- -- -- -- -- --  -- -- -- -- -- -- -- --
00A0:                                               32                 2
00B0: 09 80 1F 00 10 80 11 80  12 80 1F 01 00           .............   
```

#### Opcodes

```
  0: 0x00AF [0x32] ExtData[1]->MainSpeed = 13* * 0.1
  1: 0x00B2 [0x1F] MOVE_ENTITY: EventEntity moves to X=-260.427*, Z=284.541*, Y=-30.986*
  2: 0x00BA [0x1F] MOVE_ENTITY: Update entity position (mode=1)
  3: 0x00BC [0x00] END_REQSTACK()
```

### Event 112

#### Metadata

| Field        | Value    |
|--------------|----------|
| Entrypoint   | 0x00BD   |
| Data Size    | 13 bytes |
| Instructions | 3        |

```
      00 01 02 03 04 05 06 07  08 09 0A 0B 0C 0D 0E 0F
      -- -- -- -- -- -- -- --  -- -- -- -- -- -- -- --
00B0:                                         47 00 13               G..
00C0: 80 14 80 15 80 16 80 47  01 00                    .......G..      
```

#### Opcodes

```
  0: 0x00BD [0x47] UPDATE_PLAYER_POS(-403.008*, 339.978*, -30.097*, yaw=181.9°*)
  1: 0x00C7 [0x47] WAIT_PLAYER_POS_UPDATE
  2: 0x00C9 [0x00] END_REQSTACK()
```

### Event 113

#### Metadata

| Field        | Value    |
|--------------|----------|
| Entrypoint   | 0x00CA   |
| Data Size    | 10 bytes |
| Instructions | 2        |

```
      00 01 02 03 04 05 06 07  08 09 0A 0B 0C 0D 0E 0F
      -- -- -- -- -- -- -- --  -- -- -- -- -- -- -- --
00C0:                                37 17 80 18 80 19            7.....
00D0: 80 1A 80 00                                       ....            
```

#### Opcodes

```
  0: 0x00CA [0x37] UPDATE_EVENT_POSITION_AND_DIR: x=-402.077*, z=339.916*, y=-30.133*, direction=3.5°*
  1: 0x00D3 [0x00] END_REQSTACK()
```

### Event 114

#### Metadata

| Field        | Value    |
|--------------|----------|
| Entrypoint   | 0x00D4   |
| Data Size    | 14 bytes |
| Instructions | 4        |

```
      00 01 02 03 04 05 06 07  08 09 0A 0B 0C 0D 0E 0F
      -- -- -- -- -- -- -- --  -- -- -- -- -- -- -- --
00D0:             32 09 80 1F  00 1B 80 1C 80 1D 80 1F      2...........
00E0: 01 00                                             ..              
```

#### Opcodes

```
  0: 0x00D4 [0x32] ExtData[1]->MainSpeed = 13* * 0.1
  1: 0x00D7 [0x1F] MOVE_ENTITY: EventEntity moves to X=-394.522*, Z=339.415*, Y=-31.221*
  2: 0x00DF [0x1F] MOVE_ENTITY: Update entity position (mode=1)
  3: 0x00E1 [0x00] END_REQSTACK()
```

### Event 115

#### Metadata

| Field        | Value    |
|--------------|----------|
| Entrypoint   | 0x00E2   |
| Data Size    | 13 bytes |
| Instructions | 3        |

```
      00 01 02 03 04 05 06 07  08 09 0A 0B 0C 0D 0E 0F
      -- -- -- -- -- -- -- --  -- -- -- -- -- -- -- --
00E0:       47 00 1E 80 1F 80  20 80 21 80 47 01 00       G..... .!.G.. 
```

#### Opcodes

```
  0: 0x00E2 [0x47] UPDATE_PLAYER_POS(-259.714*, 277.237*, -30.105*, yaw=79.7°*)
  1: 0x00EC [0x47] WAIT_PLAYER_POS_UPDATE
  2: 0x00EE [0x00] END_REQSTACK()
```

### Event 65535.6

#### Metadata

| Field        | Value    |
|--------------|----------|
| Entrypoint   | 0x00EF   |
| Data Size    | 10 bytes |
| Instructions | 2        |

```
      00 01 02 03 04 05 06 07  08 09 0A 0B 0C 0D 0E 0F
      -- -- -- -- -- -- -- --  -- -- -- -- -- -- -- --
00E0:                                               37                 7
00F0: 22 80 23 80 24 80 25 80  00                       ".#.$.%..       
```

#### Opcodes

```
  0: 0x00EF [0x37] UPDATE_EVENT_POSITION_AND_DIR: x=-140.878*, z=-320.371*, y=-31.032*, direction=179.6°*
  1: 0x00F8 [0x00] END_REQSTACK()
```

### Event 65535.7

#### Metadata

| Field        | Value    |
|--------------|----------|
| Entrypoint   | 0x00F9   |
| Data Size    | 15 bytes |
| Instructions | 5        |

```
      00 01 02 03 04 05 06 07  08 09 0A 0B 0C 0D 0E 0F
      -- -- -- -- -- -- -- --  -- -- -- -- -- -- -- --
00F0:                             32 09 80 1F 00 26 80           2....&.
0100: 27 80 28 80 1F 01 6F 00                           '.(...o.        
```

#### Opcodes

```
  0: 0x00F9 [0x32] ExtData[1]->MainSpeed = 13* * 0.1
  1: 0x00FC [0x1F] MOVE_ENTITY: EventEntity moves to X=-155.306*, Z=-320.247*, Y=-31.953*
  2: 0x0104 [0x1F] MOVE_ENTITY: Update entity position (mode=1)
  3: 0x0106 [0x6F] WAIT_FRAME_DELAY: Yield until WaitTime reaches zero
  4: 0x0107 [0x00] END_REQSTACK()
```

### Event 65535.8

#### Metadata

| Field        | Value    |
|--------------|----------|
| Entrypoint   | 0x0108   |
| Data Size    | 10 bytes |
| Instructions | 2        |

```
      00 01 02 03 04 05 06 07  08 09 0A 0B 0C 0D 0E 0F
      -- -- -- -- -- -- -- --  -- -- -- -- -- -- -- --
0100:                          37 29 80 2A 80 2B 80 2C          7).*.+.,
0110: 80 00                                             ..              
```

#### Opcodes

```
  0: 0x0108 [0x37] UPDATE_EVENT_POSITION_AND_DIR: x=-156.661*, z=-318.966*, y=-31.867*, direction=181.0°*
  1: 0x0111 [0x00] END_REQSTACK()
```

### Event 65535.9

#### Metadata

| Field        | Value    |
|--------------|----------|
| Entrypoint   | 0x0112   |
| Data Size    | 10 bytes |
| Instructions | 2        |

```
      00 01 02 03 04 05 06 07  08 09 0A 0B 0C 0D 0E 0F
      -- -- -- -- -- -- -- --  -- -- -- -- -- -- -- --
0110:       37 2D 80 2E 80 2F  80 30 80 00                7-.../.0..    
```

#### Opcodes

```
  0: 0x0112 [0x37] UPDATE_EVENT_POSITION_AND_DIR: x=-428.098*, z=343.377*, y=-31.437*, direction=236.0°*
  1: 0x011B [0x00] END_REQSTACK()
```

### Event 65535.10

#### Metadata

| Field        | Value    |
|--------------|----------|
| Entrypoint   | 0x011C   |
| Data Size    | 18 bytes |
| Instructions | 6        |

```
      00 01 02 03 04 05 06 07  08 09 0A 0B 0C 0D 0E 0F
      -- -- -- -- -- -- -- --  -- -- -- -- -- -- -- --
0110:                                      1C 31 80 32              .1.2
0120: 09 80 1F 00 32 80 33 80  34 80 1F 01 6F 00        ....2.3.4...o.  
```

#### Opcodes

```
  0: 0x011C [0x1C] WAIT(60* ticks)
  1: 0x011F [0x32] ExtData[1]->MainSpeed = 13* * 0.1
  2: 0x0122 [0x1F] MOVE_ENTITY: EventEntity moves to X=-438.542*, Z=356.961*, Y=-32.191*
  3: 0x012A [0x1F] MOVE_ENTITY: Update entity position (mode=1)
  4: 0x012C [0x6F] WAIT_FRAME_DELAY: Yield until WaitTime reaches zero
  5: 0x012D [0x00] END_REQSTACK()
```

### Event 65535.11

#### Metadata

| Field        | Value    |
|--------------|----------|
| Entrypoint   | 0x012E   |
| Data Size    | 10 bytes |
| Instructions | 2        |

```
      00 01 02 03 04 05 06 07  08 09 0A 0B 0C 0D 0E 0F
      -- -- -- -- -- -- -- --  -- -- -- -- -- -- -- --
0120:                                            37 35                75
0130: 80 36 80 0E 80 37 80 00                           .6...7..        
```

#### Opcodes

```
  0: 0x012E [0x37] UPDATE_EVENT_POSITION_AND_DIR: x=-527.331*, z=352.834*, y=-30.117*, direction=148.1°*
  1: 0x0137 [0x00] END_REQSTACK()
```

### Event 65535.12

#### Metadata

| Field        | Value    |
|--------------|----------|
| Entrypoint   | 0x0138   |
| Data Size    | 17 bytes |
| Instructions | 5        |

```
      00 01 02 03 04 05 06 07  08 09 0A 0B 0C 0D 0E 0F
      -- -- -- -- -- -- -- --  -- -- -- -- -- -- -- --
0130:                          1C 31 80 32 1A 80 1F 00          .1.2....
0140: 38 80 39 80 3A 80 1F 01  00                       8.9.:....       
```

#### Opcodes

```
  0: 0x0138 [0x1C] WAIT(60* ticks)
  1: 0x013B [0x32] ExtData[1]->MainSpeed = 40* * 0.1
  2: 0x013E [0x1F] MOVE_ENTITY: EventEntity moves to X=-538.489*, Z=356.536*, Y=-29.500*
  3: 0x0146 [0x1F] MOVE_ENTITY: Update entity position (mode=1)
  4: 0x0148 [0x00] END_REQSTACK()
```

### Event 65535.13

#### Metadata

| Field        | Value    |
|--------------|----------|
| Entrypoint   | 0x0149   |
| Data Size    | 10 bytes |
| Instructions | 2        |

```
      00 01 02 03 04 05 06 07  08 09 0A 0B 0C 0D 0E 0F
      -- -- -- -- -- -- -- --  -- -- -- -- -- -- -- --
0140:                             37 3B 80 3C 80 3D 80           7;.<.=.
0150: 3E 80 00                                          >..             
```

#### Opcodes

```
  0: 0x0149 [0x37] UPDATE_EVENT_POSITION_AND_DIR: x=-153.568*, z=-318.704*, y=-31.756*, direction=168.4°*
  1: 0x0152 [0x00] END_REQSTACK()
```

### Event 65535.14

#### Metadata

| Field        | Value    |
|--------------|----------|
| Entrypoint   | 0x0153   |
| Data Size    | 14 bytes |
| Instructions | 4        |

```
      00 01 02 03 04 05 06 07  08 09 0A 0B 0C 0D 0E 0F
      -- -- -- -- -- -- -- --  -- -- -- -- -- -- -- --
0150:          32 09 80 1F 00  3F 80 40 80 41 80 1F 01     2....?.@.A...
0160: 00                                                .               
```

#### Opcodes

```
  0: 0x0153 [0x32] ExtData[1]->MainSpeed = 13* * 0.1
  1: 0x0156 [0x1F] MOVE_ENTITY: EventEntity moves to X=-164.344*, Z=-319.315*, Y=-32.687*
  2: 0x015E [0x1F] MOVE_ENTITY: Update entity position (mode=1)
  3: 0x0160 [0x00] END_REQSTACK()
```

### Event 65535.15

#### Metadata

| Field        | Value    |
|--------------|----------|
| Entrypoint   | 0x0161   |
| Data Size    | 10 bytes |
| Instructions | 2        |

```
      00 01 02 03 04 05 06 07  08 09 0A 0B 0C 0D 0E 0F
      -- -- -- -- -- -- -- --  -- -- -- -- -- -- -- --
0160:    37 42 80 43 80 44 80  45 80 00                  7B.C.D.E..     
```

#### Opcodes

```
  0: 0x0161 [0x37] UPDATE_EVENT_POSITION_AND_DIR: x=-167.748*, z=-319.082*, y=-32.535*, direction=181.8°*
  1: 0x016A [0x00] END_REQSTACK()
```

### Event 65535.16

#### Metadata

| Field        | Value    |
|--------------|----------|
| Entrypoint   | 0x016B   |
| Data Size    | 10 bytes |
| Instructions | 2        |

```
      00 01 02 03 04 05 06 07  08 09 0A 0B 0C 0D 0E 0F
      -- -- -- -- -- -- -- --  -- -- -- -- -- -- -- --
0160:                                   37 46 80 47 80             7F.G.
0170: 48 80 25 80 00                                    H.%..           
```

#### Opcodes

```
  0: 0x016B [0x37] UPDATE_EVENT_POSITION_AND_DIR: x=-520.922*, z=360.437*, y=-31.853*, direction=179.6°*
  1: 0x0174 [0x00] END_REQSTACK()
```

### Event 65535.17

#### Metadata

| Field        | Value    |
|--------------|----------|
| Entrypoint   | 0x0175   |
| Data Size    | 30 bytes |
| Instructions | 8        |

```
      00 01 02 03 04 05 06 07  08 09 0A 0B 0C 0D 0E 0F
      -- -- -- -- -- -- -- --  -- -- -- -- -- -- -- --
0170:                32 09 80  1F 00 49 80 4A 80 4B 80       2....I.J.K.
0180: 1F 01 6F 4A F0 FF FF 7F  4B 91 01 01 6F 76 F0 FF  ..oJ....K...ov..
0190: FF 7F 00                                          ...             
```

#### Opcodes

```
  0: 0x0175 [0x32] ExtData[1]->MainSpeed = 13* * 0.1
  1: 0x0178 [0x1F] MOVE_ENTITY: EventEntity moves to X=-529.172*, Z=359.737*, Y=-30.309*
  2: 0x0180 [0x1F] MOVE_ENTITY: Update entity position (mode=1)
  3: 0x0182 [0x6F] WAIT_FRAME_DELAY: Yield until WaitTime reaches zero
  4: 0x0183 [0x4A] LocalPlayer looks at Ulmia (ID: 16879947/0x0101914B)
  5: 0x018C [0x6F] WAIT_FRAME_DELAY: Yield until WaitTime reaches zero
  6: 0x018D [0x76] CHECK_ENTITY_RENDER_FLAGS: Wait until LocalPlayer Render.Flags0 and Render.Flags3 conditions are met
  7: 0x0192 [0x00] END_REQSTACK()
```

### Event 65535.18

#### Metadata

| Field        | Value    |
|--------------|----------|
| Entrypoint   | 0x0193   |
| Data Size    | 10 bytes |
| Instructions | 2        |

```
      00 01 02 03 04 05 06 07  08 09 0A 0B 0C 0D 0E 0F
      -- -- -- -- -- -- -- --  -- -- -- -- -- -- -- --
0190:          37 4C 80 4D 80  4E 80 4F 80 00              7L.M.N.O..   
```

#### Opcodes

```
  0: 0x0193 [0x37] UPDATE_EVENT_POSITION_AND_DIR: x=-528.478*, z=358.591*, y=-30.494*, direction=358.3°*
  1: 0x019C [0x00] END_REQSTACK()
```

### Event 65535.19

#### Metadata

| Field        | Value    |
|--------------|----------|
| Entrypoint   | 0x019D   |
| Data Size    | 10 bytes |
| Instructions | 2        |

```
      00 01 02 03 04 05 06 07  08 09 0A 0B 0C 0D 0E 0F
      -- -- -- -- -- -- -- --  -- -- -- -- -- -- -- --
0190:                                         37 50 80               7P.
01A0: 51 80 52 80 53 80 00                              Q.R.S..         
```

#### Opcodes

```
  0: 0x019D [0x37] UPDATE_EVENT_POSITION_AND_DIR: x=-532.390*, z=359.740*, y=-29.553*, direction=168.7°*
  1: 0x01A6 [0x00] END_REQSTACK()
```

### Event 65535.20

#### Metadata

| Field        | Value    |
|--------------|----------|
| Entrypoint   | 0x01A7   |
| Data Size    | 15 bytes |
| Instructions | 5        |

```
      00 01 02 03 04 05 06 07  08 09 0A 0B 0C 0D 0E 0F
      -- -- -- -- -- -- -- --  -- -- -- -- -- -- -- --
01A0:                      32  1A 80 1F 00 54 80 55 80         2....T.U.
01B0: 3A 80 1F 01 6F 00                                 :...o.          
```

#### Opcodes

```
  0: 0x01A7 [0x32] ExtData[1]->MainSpeed = 40* * 0.1
  1: 0x01AA [0x1F] MOVE_ENTITY: EventEntity moves to X=-542.148*, Z=358.437*, Y=-29.500*
  2: 0x01B2 [0x1F] MOVE_ENTITY: Update entity position (mode=1)
  3: 0x01B4 [0x6F] WAIT_FRAME_DELAY: Yield until WaitTime reaches zero
  4: 0x01B5 [0x00] END_REQSTACK()
```

### Event 65535.21

#### Metadata

| Field        | Value    |
|--------------|----------|
| Entrypoint   | 0x01B6   |
| Data Size    | 10 bytes |
| Instructions | 2        |

```
      00 01 02 03 04 05 06 07  08 09 0A 0B 0C 0D 0E 0F
      -- -- -- -- -- -- -- --  -- -- -- -- -- -- -- --
01B0:                   37 56  80 57 80 07 80 58 80 00        7V.W...X..
```

#### Opcodes

```
  0: 0x01B6 [0x37] UPDATE_EVENT_POSITION_AND_DIR: x=53.380*, z=740.850*, y=-24.000*, direction=25.2°*
  1: 0x01BF [0x00] END_REQSTACK()
```

### Event 65535.22

#### Metadata

| Field        | Value    |
|--------------|----------|
| Entrypoint   | 0x01C0   |
| Data Size    | 15 bytes |
| Instructions | 5        |

```
      00 01 02 03 04 05 06 07  08 09 0A 0B 0C 0D 0E 0F
      -- -- -- -- -- -- -- --  -- -- -- -- -- -- -- --
01C0: 32 09 80 1F 00 59 80 57  80 07 80 1F 01 6F 00     2....Y.W.....o. 
```

#### Opcodes

```
  0: 0x01C0 [0x32] ExtData[1]->MainSpeed = 13* * 0.1
  1: 0x01C3 [0x1F] MOVE_ENTITY: EventEntity moves to X=54.380*, Z=740.850*, Y=-24.000*
  2: 0x01CB [0x1F] MOVE_ENTITY: Update entity position (mode=1)
  3: 0x01CD [0x6F] WAIT_FRAME_DELAY: Yield until WaitTime reaches zero
  4: 0x01CE [0x00] END_REQSTACK()
```

### Event 65535.23

#### Metadata

| Field        | Value    |
|--------------|----------|
| Entrypoint   | 0x01CF   |
| Data Size    | 19 bytes |
| Instructions | 5        |

```
      00 01 02 03 04 05 06 07  08 09 0A 0B 0C 0D 0E 0F
      -- -- -- -- -- -- -- --  -- -- -- -- -- -- -- --
01C0:                                               1C                 .
01D0: 5A 80 4A F0 FF FF 7F 50  91 01 01 6F 76 F0 FF FF  Z.J....P...ov...
01E0: 7F 00                                             ..              
```

#### Opcodes

```
  0: 0x01CF [0x1C] WAIT(30* ticks)
  1: 0x01D2 [0x4A] LocalPlayer looks at Tenzen (ID: 16879952/0x01019150)
  2: 0x01DB [0x6F] WAIT_FRAME_DELAY: Yield until WaitTime reaches zero
  3: 0x01DC [0x76] CHECK_ENTITY_RENDER_FLAGS: Wait until LocalPlayer Render.Flags0 and Render.Flags3 conditions are met
  4: 0x01E1 [0x00] END_REQSTACK()
```

### Event 65535.24

#### Metadata

| Field        | Value    |
|--------------|----------|
| Entrypoint   | 0x01E2   |
| Data Size    | 30 bytes |
| Instructions | 5        |

```
      00 01 02 03 04 05 06 07  08 09 0A 0B 0C 0D 0E 0F
      -- -- -- -- -- -- -- --  -- -- -- -- -- -- -- --
01E0:       02 09 10 5B 80 00  F6 01 37 5C 80 57 80 07    ...[....7\.W..
01F0: 80 01 80 01 FF 01 37 5C  80 5D 80 07 80 01 80 00  ......7\.]......
```

#### Opcodes

```
  0: 0x01E2 [0x02] IF !(Work_Zone[9] == 8*) GOTO 0x01F6
  1: 0x01EA [0x37] UPDATE_EVENT_POSITION_AND_DIR: x=55.000*, z=740.850*, y=-24.000*, direction=0.0°*
  2: 0x01F3 [0x01] GOTO 0x01FF
  3: 0x01F6 [0x37] UPDATE_EVENT_POSITION_AND_DIR: x=55.000*, z=740.500*, y=-24.000*, direction=0.0°*

SUBROUTINE_01FF:
  4: 0x01FF [0x00] END_REQSTACK()
```

### Event 65535.25

#### Metadata

| Field        | Value    |
|--------------|----------|
| Entrypoint   | 0x0200   |
| Data Size    | 37 bytes |
| Instructions | 10       |

```
      00 01 02 03 04 05 06 07  08 09 0A 0B 0C 0D 0E 0F
      -- -- -- -- -- -- -- --  -- -- -- -- -- -- -- --
0200: 32 09 80 02 09 10 5B 80  00 19 02 1F 00 5E 80 57  2.....[......^.W
0210: 80 07 80 1F 01 6F 01 24  02 1F 00 5F 80 5D 80 07  .....o.$..._.]..
0220: 80 1F 01 6F 00                                    ...o.           
```

#### Opcodes

```
  0: 0x0200 [0x32] ExtData[1]->MainSpeed = 13* * 0.1
  1: 0x0203 [0x02] IF !(Work_Zone[9] == 8*) GOTO 0x0219
  2: 0x020B [0x1F] MOVE_ENTITY: EventEntity moves to X=59.000*, Z=740.850*, Y=-24.000*
  3: 0x0213 [0x1F] MOVE_ENTITY: Update entity position (mode=1)
  4: 0x0215 [0x6F] WAIT_FRAME_DELAY: Yield until WaitTime reaches zero
  5: 0x0216 [0x01] GOTO 0x0224
  6: 0x0219 [0x1F] MOVE_ENTITY: EventEntity moves to X=59.500*, Z=740.500*, Y=-24.000*
  7: 0x0221 [0x1F] MOVE_ENTITY: Update entity position (mode=1)
  8: 0x0223 [0x6F] WAIT_FRAME_DELAY: Yield until WaitTime reaches zero

SUBROUTINE_0224:
  9: 0x0224 [0x00] END_REQSTACK()
```

### Event 65535.26

#### Metadata

| Field        | Value    |
|--------------|----------|
| Entrypoint   | 0x0225   |
| Data Size    | 10 bytes |
| Instructions | 2        |

```
      00 01 02 03 04 05 06 07  08 09 0A 0B 0C 0D 0E 0F
      -- -- -- -- -- -- -- --  -- -- -- -- -- -- -- --
0220:                37 60 80  61 80 62 80 63 80 00          7`.a.b.c.. 
```

#### Opcodes

```
  0: 0x0225 [0x37] UPDATE_EVENT_POSITION_AND_DIR: x=-147.298*, z=-319.404*, y=-31.537*, direction=184.4°*
  1: 0x022E [0x00] END_REQSTACK()
```

### Event 65535.27

#### Metadata

| Field        | Value    |
|--------------|----------|
| Entrypoint   | 0x022F   |
| Data Size    | 15 bytes |
| Instructions | 5        |

```
      00 01 02 03 04 05 06 07  08 09 0A 0B 0C 0D 0E 0F
      -- -- -- -- -- -- -- --  -- -- -- -- -- -- -- --
0220:                                               32                 2
0230: 09 80 1F 00 64 80 65 80  66 80 1F 01 6F 00        ....d.e.f...o.  
```

#### Opcodes

```
  0: 0x022F [0x32] ExtData[1]->MainSpeed = 13* * 0.1
  1: 0x0232 [0x1F] MOVE_ENTITY: EventEntity moves to X=-160.929*, Z=-319.683*, Y=-32.073*
  2: 0x023A [0x1F] MOVE_ENTITY: Update entity position (mode=1)
  3: 0x023C [0x6F] WAIT_FRAME_DELAY: Yield until WaitTime reaches zero
  4: 0x023D [0x00] END_REQSTACK()
```

### Event 65535.28

#### Metadata

| Field        | Value    |
|--------------|----------|
| Entrypoint   | 0x023E   |
| Data Size    | 12 bytes |
| Instructions | 3        |

```
      00 01 02 03 04 05 06 07  08 09 0A 0B 0C 0D 0E 0F
      -- -- -- -- -- -- -- --  -- -- -- -- -- -- -- --
0230:                                            33 01                3.
0240: 37 67 80 68 80 69 80 6A  80 00                    7g.h.i.j..      
```

#### Opcodes

```
  0: 0x023E [0x33] EventEntity->Render.Flags0 |= 0x200000 // Bit 21 (flag=0x01)
  1: 0x0240 [0x37] UPDATE_EVENT_POSITION_AND_DIR: x=-159.332*, z=-320.477*, y=-32.001*, direction=211.1°*
  2: 0x0249 [0x00] END_REQSTACK()
```

### Event 65535.29

#### Metadata

| Field        | Value    |
|--------------|----------|
| Entrypoint   | 0x024A   |
| Data Size    | 10 bytes |
| Instructions | 2        |

```
      00 01 02 03 04 05 06 07  08 09 0A 0B 0C 0D 0E 0F
      -- -- -- -- -- -- -- --  -- -- -- -- -- -- -- --
0240:                                37 6B 80 6C 80 6D            7k.l.m
0250: 80 6E 80 00                                       .n..            
```

#### Opcodes

```
  0: 0x024A [0x37] UPDATE_EVENT_POSITION_AND_DIR: x=-159.465*, z=-321.579*, y=-31.711*, direction=327.5°*
  1: 0x0253 [0x00] END_REQSTACK()
```

### Event 65535.30

#### Metadata

| Field        | Value    |
|--------------|----------|
| Entrypoint   | 0x0254   |
| Data Size    | 15 bytes |
| Instructions | 5        |

```
      00 01 02 03 04 05 06 07  08 09 0A 0B 0C 0D 0E 0F
      -- -- -- -- -- -- -- --  -- -- -- -- -- -- -- --
0250:             32 09 80 1F  00 6F 80 70 80 71 80 1F      2....o.p.q..
0260: 01 6F 00                                          .o.             
```

#### Opcodes

```
  0: 0x0254 [0x32] ExtData[1]->MainSpeed = 13* * 0.1
  1: 0x0257 [0x1F] MOVE_ENTITY: EventEntity moves to X=-158.215*, Z=-320.737*, Y=-31.921*
  2: 0x025F [0x1F] MOVE_ENTITY: Update entity position (mode=1)
  3: 0x0261 [0x6F] WAIT_FRAME_DELAY: Yield until WaitTime reaches zero
  4: 0x0262 [0x00] END_REQSTACK()
```

### Event 65535.31

#### Metadata

| Field        | Value    |
|--------------|----------|
| Entrypoint   | 0x0263   |
| Data Size    | 10 bytes |
| Instructions | 2        |

```
      00 01 02 03 04 05 06 07  08 09 0A 0B 0C 0D 0E 0F
      -- -- -- -- -- -- -- --  -- -- -- -- -- -- -- --
0260:          37 72 80 73 80  74 80 75 80 00              7r.s.t.u..   
```

#### Opcodes

```
  0: 0x0263 [0x37] UPDATE_EVENT_POSITION_AND_DIR: x=-155.584*, z=-321.701*, y=-31.812*, direction=335.8°*
  1: 0x026C [0x00] END_REQSTACK()
```

### Event 65535.32

#### Metadata

| Field        | Value    |
|--------------|----------|
| Entrypoint   | 0x026D   |
| Data Size    | 13 bytes |
| Instructions | 3        |

```
      00 01 02 03 04 05 06 07  08 09 0A 0B 0C 0D 0E 0F
      -- -- -- -- -- -- -- --  -- -- -- -- -- -- -- --
0260:                                         6E F8 FF               n..
0270: FF 7F 76 80 99 F8 FF FF  7F 00                    ..v.......      
```

#### Opcodes

```
  0: 0x026D [0x6E] EventEntity uses emote 21*
  1: 0x0274 [0x99] Wait for EventEntity animation to complete
  2: 0x0279 [0x00] END_REQSTACK()
```

### Event 65535.33

#### Metadata

| Field        | Value    |
|--------------|----------|
| Entrypoint   | 0x027A   |
| Data Size    | 10 bytes |
| Instructions | 2        |

```
      00 01 02 03 04 05 06 07  08 09 0A 0B 0C 0D 0E 0F
      -- -- -- -- -- -- -- --  -- -- -- -- -- -- -- --
0270:                                37 77 80 78 80 79            7w.x.y
0280: 80 7A 80 00                                       .z..            
```

#### Opcodes

```
  0: 0x027A [0x37] UPDATE_EVENT_POSITION_AND_DIR: x=-478.920*, z=337.237*, y=-31.138*, direction=130.6°*
  1: 0x0283 [0x00] END_REQSTACK()
```

### Event 65535.34

#### Metadata

| Field        | Value    |
|--------------|----------|
| Entrypoint   | 0x0284   |
| Data Size    | 15 bytes |
| Instructions | 5        |

```
      00 01 02 03 04 05 06 07  08 09 0A 0B 0C 0D 0E 0F
      -- -- -- -- -- -- -- --  -- -- -- -- -- -- -- --
0280:             32 09 80 1F  00 7B 80 7C 80 7D 80 1F      2....{.|.}..
0290: 01 6F 00                                          .o.             
```

#### Opcodes

```
  0: 0x0284 [0x32] ExtData[1]->MainSpeed = 13* * 0.1
  1: 0x0287 [0x1F] MOVE_ENTITY: EventEntity moves to X=-485.407*, Z=331.567*, Y=-31.218*
  2: 0x028F [0x1F] MOVE_ENTITY: Update entity position (mode=1)
  3: 0x0291 [0x6F] WAIT_FRAME_DELAY: Yield until WaitTime reaches zero
  4: 0x0292 [0x00] END_REQSTACK()
```

### Event 65535.35

#### Metadata

| Field        | Value    |
|--------------|----------|
| Entrypoint   | 0x0293   |
| Data Size    | 10 bytes |
| Instructions | 2        |

```
      00 01 02 03 04 05 06 07  08 09 0A 0B 0C 0D 0E 0F
      -- -- -- -- -- -- -- --  -- -- -- -- -- -- -- --
0290:          37 7E 80 7F 80  80 80 81 80 00              7~........   
```

#### Opcodes

```
  0: 0x0293 [0x37] UPDATE_EVENT_POSITION_AND_DIR: x=-484.717*, z=331.474*, y=-31.339*, direction=114.8°*
  1: 0x029C [0x00] END_REQSTACK()
```

### Event 65535.36

#### Metadata

| Field        | Value    |
|--------------|----------|
| Entrypoint   | 0x029D   |
| Data Size    | 10 bytes |
| Instructions | 2        |

```
      00 01 02 03 04 05 06 07  08 09 0A 0B 0C 0D 0E 0F
      -- -- -- -- -- -- -- --  -- -- -- -- -- -- -- --
0290:                                         37 82 80               7..
02A0: 83 80 84 80 85 80 00                              .......         
```

#### Opcodes

```
  0: 0x029D [0x37] UPDATE_EVENT_POSITION_AND_DIR: x=734.407*, z=414.272*, y=-19.601*, direction=286.7°*
  1: 0x02A6 [0x00] END_REQSTACK()
```

### Event 65535.37

#### Metadata

| Field        | Value    |
|--------------|----------|
| Entrypoint   | 0x02A7   |
| Data Size    | 15 bytes |
| Instructions | 5        |

```
      00 01 02 03 04 05 06 07  08 09 0A 0B 0C 0D 0E 0F
      -- -- -- -- -- -- -- --  -- -- -- -- -- -- -- --
02A0:                      32  86 80 1F 00 87 80 88 80         2........
02B0: 84 80 1F 01 6F 00                                 ....o.          
```

#### Opcodes

```
  0: 0x02A7 [0x32] ExtData[1]->MainSpeed = 11* * 0.1
  1: 0x02AA [0x1F] MOVE_ENTITY: EventEntity moves to X=735.680*, Z=418.413*, Y=-19.601*
  2: 0x02B2 [0x1F] MOVE_ENTITY: Update entity position (mode=1)
  3: 0x02B4 [0x6F] WAIT_FRAME_DELAY: Yield until WaitTime reaches zero
  4: 0x02B5 [0x00] END_REQSTACK()
```

### Event 65535.38

#### Metadata

| Field        | Value    |
|--------------|----------|
| Entrypoint   | 0x02B6   |
| Data Size    | 10 bytes |
| Instructions | 2        |

```
      00 01 02 03 04 05 06 07  08 09 0A 0B 0C 0D 0E 0F
      -- -- -- -- -- -- -- --  -- -- -- -- -- -- -- --
02B0:                   37 89  80 8A 80 8B 80 8C 80 00        7.........
```

#### Opcodes

```
  0: 0x02B6 [0x37] UPDATE_EVENT_POSITION_AND_DIR: x=-312.962*, z=184.437*, y=-32.441*, direction=258.6°*
  1: 0x02BF [0x00] END_REQSTACK()
```

### Event 65535.39

#### Metadata

| Field        | Value    |
|--------------|----------|
| Entrypoint   | 0x02C0   |
| Data Size    | 10 bytes |
| Instructions | 2        |

```
      00 01 02 03 04 05 06 07  08 09 0A 0B 0C 0D 0E 0F
      -- -- -- -- -- -- -- --  -- -- -- -- -- -- -- --
02C0: 37 8D 80 8E 80 8B 80 8F  80 00                    7.........      
```

#### Opcodes

```
  0: 0x02C0 [0x37] UPDATE_EVENT_POSITION_AND_DIR: x=-313.800*, z=185.155*, y=-32.441*, direction=15.1°*
  1: 0x02C9 [0x00] END_REQSTACK()
```

### Event 65535.40

#### Metadata

| Field        | Value    |
|--------------|----------|
| Entrypoint   | 0x02CA   |
| Data Size    | 10 bytes |
| Instructions | 2        |

```
      00 01 02 03 04 05 06 07  08 09 0A 0B 0C 0D 0E 0F
      -- -- -- -- -- -- -- --  -- -- -- -- -- -- -- --
02C0:                                37 90 80 91 80 8B            7.....
02D0: 80 92 80 00                                       ....            
```

#### Opcodes

```
  0: 0x02CA [0x37] UPDATE_EVENT_POSITION_AND_DIR: x=-312.746*, z=184.278*, y=-32.441*, direction=3.4°*
  1: 0x02D3 [0x00] END_REQSTACK()
```

### Event 556

#### Metadata

| Field        | Value     |
|--------------|-----------|
| Entrypoint   | 0x02D4    |
| Data Size    | 842 bytes |
| Instructions | 110       |

```
      00 01 02 03 04 05 06 07  08 09 0A 0B 0C 0D 0E 0F
      -- -- -- -- -- -- -- --  -- -- -- -- -- -- -- --
02D0:             42 45 02 80  F8 FF FF 7F F8 FF FF 7F      BE..........
02E0: 66 64 6F 31 01 80 55 02  80 F8 FF FF 7F F8 FF FF  fdo1..U.........
02F0: 7F 66 64 6F 31 03 02 10  93 80 5D 01 80 94 80 46  .fdo1.....]....F
0300: 01 38 95 80 37 96 80 97  80 98 80 99 80 2F 00 6C  .8..7......../.l
0310: 91 01 01 4E 00 6C 91 01  01 2F 00 6D 91 01 01 4E  ...N.l.../.m...N
0320: 00 6D 91 01 01 2F 00 6E  91 01 01 4E 00 6E 91 01  .m.../.n...N.n..
0330: 01 92 01 6E 91 01 01 81  00 6E 91 01 01 27 0A 6D  ...n.....n...'.m
0340: 91 01 01 02 77 95 80 9A  80 45 9B 80 F0 FF FF 7F  ....w....E......
0350: F0 FF FF 7F 73 35 30 30  01 80 1C 9C 80 6E 6E 91  ....s500.....nn.
0360: 01 01 9D 80 99 6E 91 01  01 99 6E 91 01 01 1C 9E  .....n....n.....
0370: 80 5C 00 9F 80 5C 01 9F  80 45 02 80 F8 FF FF 7F  .\...\...E......
0380: F8 FF FF 7F 66 64 69 31  01 80 55 02 80 F8 FF FF  ....fdi1..U.....
0390: 7F F8 FF FF 7F 66 64 69  31 1C A0 80 45 02 80 F8  .....fdi1...E...
03A0: FF FF 7F F8 FF FF 7F 6F  76 6C 32 01 80 52 9B 80  .......ovl2..R..
03B0: F0 FF FF 7F F0 FF FF 7F  73 35 30 30 6E 6E 91 01  ........s500nn..
03C0: 01 9D 80 99 6E 91 01 01  99 6E 91 01 01 45 9B 80  ....n....n...E..
03D0: F0 FF FF 7F F0 FF FF 7F  73 35 30 31 01 80 1C 31  ........s501...1
03E0: 80 2B 6C 91 01 01 A1 80  23 1C A2 80 45 02 80 F8  .+l.....#...E...
03F0: FF FF 7F F8 FF FF 7F 6F  76 6C 31 01 80 52 9B 80  .......ovl1..R..
0400: F0 FF FF 7F F0 FF FF 7F  73 35 30 31 27 05 6C 91  ........s501'.l.
0410: 01 01 02 45 9B 80 F0 FF  FF 7F F0 FF FF 7F 73 35  ...E..........s5
0420: 30 33 01 80 1C 94 80 2B  6D 91 01 01 A3 80 23 1C  03.....+m.....#.
0430: 31 80 52 9B 80 F0 FF FF  7F F0 FF FF 7F 73 35 30  1.R..........s50
0440: 33 45 9B 80 F0 FF FF 7F  F0 FF FF 7F 73 30 30 35  3E..........s005
0450: 01 80 79 00 6D 91 01 01  6C 91 01 01 1C 31 80 2B  ..y.m...l....1.+
0460: 6C 91 01 01 A4 80 23 1C  A2 80 52 9B 80 F0 FF FF  l.....#...R.....
0470: 7F F0 FF FF 7F 73 30 30  35 45 9B 80 F0 FF FF 7F  .....s005E......
0480: F0 FF FF 7F 73 35 30 35  01 80 2B 6C 91 01 01 A5  ....s505..+l....
0490: 80 23 1C 94 80 52 9B 80  F0 FF FF 7F F0 FF FF 7F  .#...R..........
04A0: 73 35 30 35 45 9B 80 F0  FF FF 7F F0 FF FF 7F 73  s505E..........s
04B0: 35 30 37 01 80 2B 6C 91  01 01 A6 80 23 1C 31 80  507..+l.....#.1.
04C0: 45 02 80 F8 FF FF 7F F8  FF FF 7F 6F 76 6C 31 01  E..........ovl1.
04D0: 80 52 9B 80 F0 FF FF 7F  F0 FF FF 7F 73 35 30 37  .R..........s507
04E0: 45 9B 80 F0 FF FF 7F F0  FF FF 7F 73 35 30 38 01  E..........s508.
04F0: 80 1C 31 80 2B 6C 91 01  01 A7 80 23 1C 5A 80 52  ..1.+l.....#.Z.R
0500: 9B 80 F0 FF FF 7F F0 FF  FF 7F 73 35 30 38 45 9B  ..........s508E.
0510: 80 F0 FF FF 7F F0 FF FF  7F 73 35 30 39 01 80 1C  .........s509...
0520: 5A 80 27 06 6C 91 01 01  03 2B 6D 91 01 01 A8 80  Z.'.l....+m.....
0530: 23 1C 31 80 55 9B 80 F0  FF FF 7F F0 FF FF 7F 73  #.1.U..........s
0540: 35 30 39 45 9B 80 F0 FF  FF 7F F0 FF FF 7F 73 35  509E..........s5
0550: 31 30 01 80 1C 94 80 2B  6C 91 01 01 A9 80 23 79  10.....+l.....#y
0560: 00 6C 91 01 01 6E 91 01  01 1C A2 80 52 9B 80 F0  .l...n......R...
0570: FF FF 7F F0 FF FF 7F 73  35 31 30 45 9B 80 F0 FF  .......s510E....
0580: FF 7F F0 FF FF 7F 73 35  31 31 01 80 1C 5A 80 2B  ......s511...Z.+
0590: 6C 91 01 01 AA 80 23 73  AB 80 6C 91 01 01 6E 91  l.....#s..l...n.
05A0: 01 01 1C AC 80 5D 01 80  94 80 45 02 80 F8 FF FF  .....]....E.....
05B0: 7F F8 FF FF 7F 66 64 6F  31 01 80 55 02 80 F8 FF  .....fdo1..U....
05C0: FF 7F F8 FF FF 7F 66 64  6F 31 52 9B 80 F0 FF FF  ......fdo1R.....
05D0: 7F F0 FF FF 7F 73 35 31  31 5C 00 AD 80 5C 01 AD  .....s511\...\..
05E0: 80 2F 01 6C 91 01 01 4E  01 6C 91 01 01 2F 01 6D  ./.l...N.l.../.m
05F0: 91 01 01 4E 01 6D 91 01  01 2F 01 6E 91 01 01 4E  ...N.m.../.n...N
0600: 01 6E 91 01 01 78 1C 31  80 46 00 45 02 80 F8 FF  .n...x.1.F.E....
0610: FF 7F F8 FF FF 7F 66 64  69 31 01 80 21 00        ......fdi1..!.  
```

#### Opcodes

```
  0: 0x02D4 [0x42] SET_CLI_EVENT_CANCEL_DATA()
  1: 0x02D5 [0x45] LOAD_SCHEDULED_TASK: Load scheduler "fdo1" with entities [EventEntity, EventEntity], work=[200*, 0*]
  2: 0x02E6 [0x55] WAIT_LOAD_SCHEDULER: Wait for scheduler "fdo1" with entities [EventEntity, EventEntity], work=200*
  3: 0x02F5 [0x03] Work_Zone[2] = 709*
  4: 0x02FA [0x5D] SET_MUSIC_VOLUME(volume=0*, fade_time=120*)
  5: 0x02FF [0x46] CAMERA_CONTROL: Disable user control
  6: 0x0301 [0x38] SET_CLIENT_EVENT_MODE(mode=19*)
  7: 0x0304 [0x37] UPDATE_EVENT_POSITION_AND_DIR: x=-149.684*, z=645.406*, y=-15.571*, direction=197.7°*
  8: 0x030D [0x2F] Fardimant (ID: 16879980/0x0101916C)->Render.Flags0 &= ~0x80000 // Bit 19
  9: 0x0313 [0x4E] SET_ENTITY_HIDE_FLAG: Show Fardimant (ID: 16879980/0x0101916C)
 10: 0x0319 [0x2F] Enaremand (ID: 16879981/0x0101916D)->Render.Flags0 &= ~0x80000 // Bit 19
 11: 0x031F [0x4E] SET_ENTITY_HIDE_FLAG: Show Enaremand (ID: 16879981/0x0101916D)
 12: 0x0325 [0x2F] manequin1 (ID: 16879982/0x0101916E)->Render.Flags0 &= ~0x80000 // Bit 19
 13: 0x032B [0x4E] SET_ENTITY_HIDE_FLAG: Show manequin1 (ID: 16879982/0x0101916E)
 14: 0x0331 [0x92] manequin1 (ID: 16879982/0x0101916E)->Render.Flags3 ^= 0x01
 15: 0x0337 [0x81] SET_ENTITY_BLINKING(blink_flag=0x00, entity=manequin1 (ID: 16879982/0x0101916E))
 16: 0x033D [0x27] REQ_SET(priority=0x0A, entity_id=Enaremand (ID: 16879981/0x0101916D), tag_num=0x02)
 17: 0x0344 [0x77] SET_EVENT_TIME_WEATHER(hour=19*, weather=14*)
 18: 0x0349 [0x45] LOAD_SCHEDULED_TASK: Load scheduler "s500" with entities [LocalPlayer, LocalPlayer], work=[165*, 0*]
 19: 0x035A [0x1C] WAIT(45* ticks)
 20: 0x035D [0x6E] manequin1 (ID: 16879982/0x0101916E) uses emote 48*
 21: 0x0364 [0x99] Wait for manequin1 (ID: 16879982/0x0101916E) animation to complete
 22: 0x0369 [0x99] Wait for manequin1 (ID: 16879982/0x0101916E) animation to complete
 23: 0x036E [0x1C] WAIT(15* ticks)
 24: 0x0371 [0x5C] MUSIC_CONTROL: Set Idle (Day) music to song 127*
 25: 0x0375 [0x5C] MUSIC_CONTROL: Set Idle (Night) music to song 127*
 26: 0x0379 [0x45] LOAD_SCHEDULED_TASK: Load scheduler "fdi1" with entities [EventEntity, EventEntity], work=[200*, 0*]
 27: 0x038A [0x55] WAIT_LOAD_SCHEDULER: Wait for scheduler "fdi1" with entities [EventEntity, EventEntity], work=200*
 28: 0x0399 [0x1C] WAIT(600* ticks)
 29: 0x039C [0x45] LOAD_SCHEDULED_TASK: Load scheduler "ovl2" with entities [EventEntity, EventEntity], work=[200*, 0*]
 30: 0x03AD [0x52] END_LOAD_SCHEDULER: End scheduler "s500" with entities [LocalPlayer, LocalPlayer], work=165*
 31: 0x03BC [0x6E] manequin1 (ID: 16879982/0x0101916E) uses emote 48*
 32: 0x03C3 [0x99] Wait for manequin1 (ID: 16879982/0x0101916E) animation to complete
 33: 0x03C8 [0x99] Wait for manequin1 (ID: 16879982/0x0101916E) animation to complete
 34: 0x03CD [0x45] LOAD_SCHEDULED_TASK: Load scheduler "s501" with entities [LocalPlayer, LocalPlayer], work=[165*, 0*]
 35: 0x03DE [0x1C] WAIT(60* ticks)
 36: 0x03E1 [0x2B] Fardimant (ID: 16879980/0x0101916C) [7627*]:
    → "Ah, I see your preparations are complete."
 37: 0x03E8 [0x23] WAIT_FOR_DIALOG_INTERACTION
 38: 0x03E9 [0x1C] WAIT(90* ticks)
 39: 0x03EC [0x45] LOAD_SCHEDULED_TASK: Load scheduler "ovl1" with entities [EventEntity, EventEntity], work=[200*, 0*]
 40: 0x03FD [0x52] END_LOAD_SCHEDULER: End scheduler "s501" with entities [LocalPlayer, LocalPlayer], work=165*
 41: 0x040C [0x27] REQ_SET(priority=0x05, entity_id=Fardimant (ID: 16879980/0x0101916C), tag_num=0x02)
 42: 0x0413 [0x45] LOAD_SCHEDULED_TASK: Load scheduler "s503" with entities [LocalPlayer, LocalPlayer], work=[165*, 0*]
 43: 0x0424 [0x1C] WAIT(120* ticks)
 44: 0x0427 [0x2B] Enaremand (ID: 16879981/0x0101916D) [7628*]:
    → "Y-yes... L-let us b-begin...quickly!"
 45: 0x042E [0x23] WAIT_FOR_DIALOG_INTERACTION
 46: 0x042F [0x1C] WAIT(60* ticks)
 47: 0x0432 [0x52] END_LOAD_SCHEDULER: End scheduler "s503" with entities [LocalPlayer, LocalPlayer], work=165*
 48: 0x0441 [0x45] LOAD_SCHEDULED_TASK: Load scheduler "s005" with entities [LocalPlayer, LocalPlayer], work=[165*, 0*]
 49: 0x0452 [0x79] Enaremand (ID: 16879981/0x0101916D) looks at Fardimant (ID: 16879980/0x0101916C) (Basic look)
 50: 0x045C [0x1C] WAIT(60* ticks)
 51: 0x045F [0x2B] Fardimant (ID: 16879980/0x0101916C) [7629*]:
    → "Relax, my troubled Enaremand. All shall be realized in due time. One cannot rush the flow of the eternal lifestream."
 52: 0x0466 [0x23] WAIT_FOR_DIALOG_INTERACTION
 53: 0x0467 [0x1C] WAIT(90* ticks)
 54: 0x046A [0x52] END_LOAD_SCHEDULER: End scheduler "s005" with entities [LocalPlayer, LocalPlayer], work=165*
 55: 0x0479 [0x45] LOAD_SCHEDULED_TASK: Load scheduler "s505" with entities [LocalPlayer, LocalPlayer], work=[165*, 0*]
 56: 0x048A [0x2B] Fardimant (ID: 16879980/0x0101916C) [7630*]:
    → "... The spirits will answer our call when they are ready. ...Despite whether we are or not..."
 57: 0x0491 [0x23] WAIT_FOR_DIALOG_INTERACTION
 58: 0x0492 [0x1C] WAIT(120* ticks)
 59: 0x0495 [0x52] END_LOAD_SCHEDULER: End scheduler "s505" with entities [LocalPlayer, LocalPlayer], work=165*
 60: 0x04A4 [0x45] LOAD_SCHEDULED_TASK: Load scheduler "s507" with entities [LocalPlayer, LocalPlayer], work=[165*, 0*]
 61: 0x04B5 [0x2B] Fardimant (ID: 16879980/0x0101916C) [7633*]:
    → "Now. Let us see what angel floats down from the clouds of Paradise..."
 62: 0x04BC [0x23] WAIT_FOR_DIALOG_INTERACTION
 63: 0x04BD [0x1C] WAIT(60* ticks)
 64: 0x04C0 [0x45] LOAD_SCHEDULED_TASK: Load scheduler "ovl1" with entities [EventEntity, EventEntity], work=[200*, 0*]
 65: 0x04D1 [0x52] END_LOAD_SCHEDULER: End scheduler "s507" with entities [LocalPlayer, LocalPlayer], work=165*
 66: 0x04E0 [0x45] LOAD_SCHEDULED_TASK: Load scheduler "s508" with entities [LocalPlayer, LocalPlayer], work=[165*, 0*]
 67: 0x04F1 [0x1C] WAIT(60* ticks)
 68: 0x04F4 [0x2B] Fardimant (ID: 16879980/0x0101916C) [7634*]:
    → "Or what beast treads forth from the ichor of the Styx..."
 69: 0x04FB [0x23] WAIT_FOR_DIALOG_INTERACTION
 70: 0x04FC [0x1C] WAIT(30* ticks)
 71: 0x04FF [0x52] END_LOAD_SCHEDULER: End scheduler "s508" with entities [LocalPlayer, LocalPlayer], work=165*
 72: 0x050E [0x45] LOAD_SCHEDULED_TASK: Load scheduler "s509" with entities [LocalPlayer, LocalPlayer], work=[165*, 0*]
 73: 0x051F [0x1C] WAIT(30* ticks)
 74: 0x0522 [0x27] REQ_SET(priority=0x06, entity_id=Fardimant (ID: 16879980/0x0101916C), tag_num=0x03)
 75: 0x0529 [0x2B] Enaremand (ID: 16879981/0x0101916D) [7635*]:
    → "P-please... By the light of Altana...!"
 76: 0x0530 [0x23] WAIT_FOR_DIALOG_INTERACTION
 77: 0x0531 [0x1C] WAIT(60* ticks)
 78: 0x0534 [0x55] WAIT_LOAD_SCHEDULER: Wait for scheduler "s509" with entities [LocalPlayer, LocalPlayer], work=165*
 79: 0x0543 [0x45] LOAD_SCHEDULED_TASK: Load scheduler "s510" with entities [LocalPlayer, LocalPlayer], work=[165*, 0*]
 80: 0x0554 [0x1C] WAIT(120* ticks)
 81: 0x0557 [0x2B] Fardimant (ID: 16879980/0x0101916C) [7631*]:
    → "Are you ready, my friends?"
 82: 0x055E [0x23] WAIT_FOR_DIALOG_INTERACTION
 83: 0x055F [0x79] Fardimant (ID: 16879980/0x0101916C) looks at manequin1 (ID: 16879982/0x0101916E) (Basic look)
 84: 0x0569 [0x1C] WAIT(90* ticks)
 85: 0x056C [0x52] END_LOAD_SCHEDULER: End scheduler "s510" with entities [LocalPlayer, LocalPlayer], work=165*
 86: 0x057B [0x45] LOAD_SCHEDULED_TASK: Load scheduler "s511" with entities [LocalPlayer, LocalPlayer], work=[165*, 0*]
 87: 0x058C [0x1C] WAIT(30* ticks)
 88: 0x058F [0x2B] Fardimant (ID: 16879980/0x0101916C) [7632*]:
    → "<Player>. Please place the $3 here."
 89: 0x0596 [0x23] WAIT_FOR_DIALOG_INTERACTION
 90: 0x0597 [0x73] Fardimant (ID: 16879980/0x0101916C) casts magic 212* on manequin1 (ID: 16879982/0x0101916E)
 91: 0x05A2 [0x1C] WAIT(240* ticks)
 92: 0x05A5 [0x5D] SET_MUSIC_VOLUME(volume=0*, fade_time=120*)
 93: 0x05AA [0x45] LOAD_SCHEDULED_TASK: Load scheduler "fdo1" with entities [EventEntity, EventEntity], work=[200*, 0*]
 94: 0x05BB [0x55] WAIT_LOAD_SCHEDULER: Wait for scheduler "fdo1" with entities [EventEntity, EventEntity], work=200*
 95: 0x05CA [0x52] END_LOAD_SCHEDULER: End scheduler "s511" with entities [LocalPlayer, LocalPlayer], work=165*
 96: 0x05D9 [0x5C] MUSIC_CONTROL: Set Idle (Day) music to song 230*
 97: 0x05DD [0x5C] MUSIC_CONTROL: Set Idle (Night) music to song 230*
 98: 0x05E1 [0x2F] Fardimant (ID: 16879980/0x0101916C)->Render.Flags0 |= 0x80000 // Bit 19
 99: 0x05E7 [0x4E] SET_ENTITY_HIDE_FLAG: Hide Fardimant (ID: 16879980/0x0101916C)
100: 0x05ED [0x2F] Enaremand (ID: 16879981/0x0101916D)->Render.Flags0 |= 0x80000 // Bit 19
101: 0x05F3 [0x4E] SET_ENTITY_HIDE_FLAG: Hide Enaremand (ID: 16879981/0x0101916D)
102: 0x05F9 [0x2F] manequin1 (ID: 16879982/0x0101916E)->Render.Flags0 |= 0x80000 // Bit 19
103: 0x05FF [0x4E] SET_ENTITY_HIDE_FLAG: Hide manequin1 (ID: 16879982/0x0101916E)
104: 0x0605 [0x78] ENABLE_GAME_TIMER_RESET_WEATHER()
105: 0x0606 [0x1C] WAIT(60* ticks)
106: 0x0609 [0x46] CAMERA_CONTROL: Restore default settings
107: 0x060B [0x45] LOAD_SCHEDULED_TASK: Load scheduler "fdi1" with entities [EventEntity, EventEntity], work=[200*, 0*]
108: 0x061C [0x21] END_EVENT
109: 0x061D [0x00] END_REQSTACK()
```

### Event 557

#### Metadata

| Field        | Value     |
|--------------|-----------|
| Entrypoint   | 0x061E    |
| Data Size    | 375 bytes |
| Instructions | 54        |

```
      00 01 02 03 04 05 06 07  08 09 0A 0B 0C 0D 0E 0F
      -- -- -- -- -- -- -- --  -- -- -- -- -- -- -- --
0610:                                            42 45                BE
0620: 02 80 F8 FF FF 7F F8 FF  FF 7F 66 64 6F 31 01 80  ..........fdo1..
0630: 55 02 80 F8 FF FF 7F F8  FF FF 7F 66 64 6F 31 03  U..........fdo1.
0640: 02 10 93 80 5D 01 80 94  80 46 01 38 AE 80 37 96  ....]....F.8..7.
0650: 80 97 80 98 80 99 80 27  06 6C 91 01 01 05 27 07  .......'.l....'.
0660: 6D 91 01 01 04 2F 00 6C  91 01 01 4E 00 6C 91 01  m..../.l...N.l..
0670: 01 2F 00 6D 91 01 01 4E  00 6D 91 01 01 2F 00 6E  ./.m...N.m.../.n
0680: 91 01 01 4E 00 6E 91 01  01 92 01 6E 91 01 01 81  ...N.n.....n....
0690: 00 6E 91 01 01 77 95 80  9A 80 66 92 80 6E 91 01  .n...w....f..n..
06A0: 01 6E 91 01 01 73 68 61  30 45 9B 80 F0 FF FF 7F  .n...sha0E......
06B0: F0 FF FF 7F 73 35 31 33  01 80 5C 00 01 80 5C 01  ....s513..\...\.
06C0: 01 80 48 AF 80 23 1C 31  80 45 02 80 F8 FF FF 7F  ..H..#.1.E......
06D0: F8 FF FF 7F 66 64 69 31  01 80 1C A2 80 2B 6D 91  ....fdi1.....+m.
06E0: 01 01 B0 80 23 1C 31 80  52 9B 80 F0 FF FF 7F F0  ....#.1.R.......
06F0: FF FF 7F 73 35 31 33 45  9B 80 F0 FF FF 7F F0 FF  ...s513E........
0700: FF 7F 73 35 31 32 01 80  66 92 80 6E 91 01 01 6E  ..s512..f..n...n
0710: 91 01 01 73 68 61 31 1C  5A 80 79 00 6E 91 01 01  ...sha1.Z.y.n...
0720: 6D 91 01 01 1C 31 80 73  B1 80 6E 91 01 01 6E 91  m....1.s..n...n.
0730: 01 01 1C 31 80 2B 6C 91  01 01 B2 80 23 1C 31 80  ...1.+l.....#.1.
0740: 45 02 80 F8 FF FF 7F F8  FF FF 7F 66 64 6F 31 01  E..........fdo1.
0750: 80 55 02 80 F8 FF FF 7F  F8 FF FF 7F 66 64 6F 31  .U..........fdo1
0760: 5D 01 80 94 80 52 9B 80  F0 FF FF 7F F0 FF FF 7F  ]....R..........
0770: 73 35 31 32 5C 00 AD 80  5C 01 AD 80 78 46 00 1C  s512\...\...xF..
0780: 31 80 45 02 80 F8 FF FF  7F F8 FF FF 7F 66 64 69  1.E..........fdi
0790: 31 01 80 21 00                                    1..!.           
```

#### Opcodes

```
  0: 0x061E [0x42] SET_CLI_EVENT_CANCEL_DATA()
  1: 0x061F [0x45] LOAD_SCHEDULED_TASK: Load scheduler "fdo1" with entities [EventEntity, EventEntity], work=[200*, 0*]
  2: 0x0630 [0x55] WAIT_LOAD_SCHEDULER: Wait for scheduler "fdo1" with entities [EventEntity, EventEntity], work=200*
  3: 0x063F [0x03] Work_Zone[2] = 709*
  4: 0x0644 [0x5D] SET_MUSIC_VOLUME(volume=0*, fade_time=120*)
  5: 0x0649 [0x46] CAMERA_CONTROL: Disable user control
  6: 0x064B [0x38] SET_CLIENT_EVENT_MODE(mode=27*)
  7: 0x064E [0x37] UPDATE_EVENT_POSITION_AND_DIR: x=-149.684*, z=645.406*, y=-15.571*, direction=197.7°*
  8: 0x0657 [0x27] REQ_SET(priority=0x06, entity_id=Fardimant (ID: 16879980/0x0101916C), tag_num=0x05)
  9: 0x065E [0x27] REQ_SET(priority=0x07, entity_id=Enaremand (ID: 16879981/0x0101916D), tag_num=0x04)
 10: 0x0665 [0x2F] Fardimant (ID: 16879980/0x0101916C)->Render.Flags0 &= ~0x80000 // Bit 19
 11: 0x066B [0x4E] SET_ENTITY_HIDE_FLAG: Show Fardimant (ID: 16879980/0x0101916C)
 12: 0x0671 [0x2F] Enaremand (ID: 16879981/0x0101916D)->Render.Flags0 &= ~0x80000 // Bit 19
 13: 0x0677 [0x4E] SET_ENTITY_HIDE_FLAG: Show Enaremand (ID: 16879981/0x0101916D)
 14: 0x067D [0x2F] manequin1 (ID: 16879982/0x0101916E)->Render.Flags0 &= ~0x80000 // Bit 19
 15: 0x0683 [0x4E] SET_ENTITY_HIDE_FLAG: Show manequin1 (ID: 16879982/0x0101916E)
 16: 0x0689 [0x92] manequin1 (ID: 16879982/0x0101916E)->Render.Flags3 ^= 0x01
 17: 0x068F [0x81] SET_ENTITY_BLINKING(blink_flag=0x00, entity=manequin1 (ID: 16879982/0x0101916E))
 18: 0x0695 [0x77] SET_EVENT_TIME_WEATHER(hour=19*, weather=14*)
 19: 0x069A [0x66] LOAD_EXT_SCHEDULER_MAIN: Load scheduler "sha0" with entities [manequin1 (ID: 16879982/0x0101916E), manequin1 (ID: 16879982/0x0101916E)], work=39*
 20: 0x06A9 [0x45] LOAD_SCHEDULED_TASK: Load scheduler "s513" with entities [LocalPlayer, LocalPlayer], work=[165*, 0*]
 21: 0x06BA [0x5C] MUSIC_CONTROL: Set Idle (Day) music to song 0*
 22: 0x06BE [0x5C] MUSIC_CONTROL: Set Idle (Night) music to song 0*
 23: 0x06C2 [0x48] [System] [7638*]:
    → "You place the $3 gently on the ground."
 24: 0x06C5 [0x23] WAIT_FOR_DIALOG_INTERACTION
 25: 0x06C6 [0x1C] WAIT(60* ticks)
 26: 0x06C9 [0x45] LOAD_SCHEDULED_TASK: Load scheduler "fdi1" with entities [EventEntity, EventEntity], work=[200*, 0*]
 27: 0x06DA [0x1C] WAIT(90* ticks)
 28: 0x06DD [0x2B] Enaremand (ID: 16879981/0x0101916D) [7636*]:
    → "A-Alsha!"
 29: 0x06E4 [0x23] WAIT_FOR_DIALOG_INTERACTION
 30: 0x06E5 [0x1C] WAIT(60* ticks)
 31: 0x06E8 [0x52] END_LOAD_SCHEDULER: End scheduler "s513" with entities [LocalPlayer, LocalPlayer], work=165*
 32: 0x06F7 [0x45] LOAD_SCHEDULED_TASK: Load scheduler "s512" with entities [LocalPlayer, LocalPlayer], work=[165*, 0*]
 33: 0x0708 [0x66] LOAD_EXT_SCHEDULER_MAIN: Load scheduler "sha1" with entities [manequin1 (ID: 16879982/0x0101916E), manequin1 (ID: 16879982/0x0101916E)], work=39*
 34: 0x0717 [0x1C] WAIT(30* ticks)
 35: 0x071A [0x79] manequin1 (ID: 16879982/0x0101916E) looks at Enaremand (ID: 16879981/0x0101916D) (Basic look)
 36: 0x0724 [0x1C] WAIT(60* ticks)
 37: 0x0727 [0x73] manequin1 (ID: 16879982/0x0101916E) casts magic 249* on manequin1 (ID: 16879982/0x0101916E)
 38: 0x0732 [0x1C] WAIT(60* ticks)
 39: 0x0735 [0x2B] Fardimant (ID: 16879980/0x0101916C) [7637*]:
    → "As I expected... <Player>! You know what you must do! But be swift!"
 40: 0x073C [0x23] WAIT_FOR_DIALOG_INTERACTION
 41: 0x073D [0x1C] WAIT(60* ticks)
 42: 0x0740 [0x45] LOAD_SCHEDULED_TASK: Load scheduler "fdo1" with entities [EventEntity, EventEntity], work=[200*, 0*]
 43: 0x0751 [0x55] WAIT_LOAD_SCHEDULER: Wait for scheduler "fdo1" with entities [EventEntity, EventEntity], work=200*
 44: 0x0760 [0x5D] SET_MUSIC_VOLUME(volume=0*, fade_time=120*)
 45: 0x0765 [0x52] END_LOAD_SCHEDULER: End scheduler "s512" with entities [LocalPlayer, LocalPlayer], work=165*
 46: 0x0774 [0x5C] MUSIC_CONTROL: Set Idle (Day) music to song 230*
 47: 0x0778 [0x5C] MUSIC_CONTROL: Set Idle (Night) music to song 230*
 48: 0x077C [0x78] ENABLE_GAME_TIMER_RESET_WEATHER()
 49: 0x077D [0x46] CAMERA_CONTROL: Restore default settings
 50: 0x077F [0x1C] WAIT(60* ticks)
 51: 0x0782 [0x45] LOAD_SCHEDULED_TASK: Load scheduler "fdi1" with entities [EventEntity, EventEntity], work=[200*, 0*]
 52: 0x0793 [0x21] END_EVENT
 53: 0x0794 [0x00] END_REQSTACK()
```

### Event 558

#### Metadata

| Field        | Value      |
|--------------|------------|
| Entrypoint   | 0x0795     |
| Data Size    | 2197 bytes |
| Instructions | 285        |

```
      00 01 02 03 04 05 06 07  08 09 0A 0B 0C 0D 0E 0F
      -- -- -- -- -- -- -- --  -- -- -- -- -- -- -- --
0790:                42 45 02  80 F8 FF FF 7F F8 FF FF       BE.........
07A0: 7F 66 64 6F 31 01 80 55  02 80 F8 FF FF 7F F8 FF  .fdo1..U........
07B0: FF 7F 66 64 6F 31 5D 01  80 94 80 46 01 38 95 80  ..fdo1]....F.8..
07C0: 37 B3 80 B4 80 B5 80 B6  80 27 0F 6D 91 01 01 08  7........'.m....
07D0: 27 0A 6C 91 01 01 07 77  95 80 9A 80 2F 00 6C 91  '.l....w..../.l.
07E0: 01 01 4E 00 6C 91 01 01  2F 00 6E 91 01 01 4E 00  ..N.l.../.n...N.
07F0: 6E 91 01 01 92 01 6E 91  01 01 81 00 6E 91 01 01  n.....n.....n...
0800: 92 01 6F 91 01 01 2F 00  6D 91 01 01 4E 00 6D 91  ..o.../.m...N.m.
0810: 01 01 66 B7 80 6D 91 01  01 6D 91 01 01 73 68 61  ..f..m...m...sha
0820: 30 66 B7 80 6D 91 01 01  6D 91 01 01 73 69 72 30  0f..m...m...sir0
0830: 45 9B 80 F0 FF FF 7F F0  FF FF 7F 73 36 30 30 01  E..........s600.
0840: 80 1C 31 80 5C 00 9F 80  5C 01 9F 80 45 02 80 F8  ..1.\...\...E...
0850: FF FF 7F F8 FF FF 7F 66  64 69 31 01 80 55 02 80  .......fdi1..U..
0860: F8 FF FF 7F F8 FF FF 7F  66 64 69 31 2C 6E 91 01  ........fdi1,n..
0870: 01 6E 91 01 01 64 65 61  64 1C B8 80 45 02 80 F8  .n...dead...E...
0880: FF FF 7F F8 FF FF 7F 6F  76 6C 32 01 80 52 9B 80  .......ovl2..R..
0890: F0 FF FF 7F F0 FF FF 7F  73 36 30 30 45 9B 80 F0  ........s600E...
08A0: FF FF 7F F0 FF FF 7F 73  36 30 31 01 80 1C 5A 80  .......s601...Z.
08B0: 2B 6D 91 01 01 B9 80 23  1C 31 80 2B 6D 91 01 01  +m.....#.1.+m...
08C0: BA 80 23 1C A2 80 52 9B  80 F0 FF FF 7F F0 FF FF  ..#...R.........
08D0: 7F 73 36 30 31 45 9B 80  F0 FF FF 7F F0 FF FF 7F  .s601E..........
08E0: 73 36 30 32 01 80 79 00  6C 91 01 01 6D 91 01 01  s602..y.l...m...
08F0: 2B 6C 91 01 01 BB 80 23  2B 6C 91 01 01 BC 80 23  +l.....#+l.....#
0900: 52 9B 80 F0 FF FF 7F F0  FF FF 7F 73 36 30 32 45  R..........s602E
0910: 9B 80 F0 FF FF 7F F0 FF  FF 7F 73 36 30 33 01 80  ..........s603..
0920: 1C 31 80 2B 6D 91 01 01  BD 80 23 1C 31 80 52 9B  .1.+m.....#.1.R.
0930: 80 F0 FF FF 7F F0 FF FF  7F 73 36 30 33 45 9B 80  .........s603E..
0940: F0 FF FF 7F F0 FF FF 7F  73 36 30 32 01 80 1C 31  ........s602...1
0950: 80 2B 6C 91 01 01 BE 80  23 52 9B 80 F0 FF FF 7F  .+l.....#R......
0960: F0 FF FF 7F 73 36 30 32  45 9B 80 F0 FF FF 7F F0  ....s602E.......
0970: FF FF 7F 73 36 30 34 01  80 1C 31 80 2B 6D 91 01  ...s604...1.+m..
0980: 01 BF 80 23 1C 31 80 2B  6C 91 01 01 C0 80 23 1C  ...#.1.+l.....#.
0990: A2 80 52 9B 80 F0 FF FF  7F F0 FF FF 7F 73 36 30  ..R..........s60
09A0: 34 45 9B 80 F0 FF FF 7F  F0 FF FF 7F 73 36 30 35  4E..........s605
09B0: 01 80 1C A2 80 2B 6C 91  01 01 C1 80 23 1C 94 80  .....+l.....#...
09C0: 52 9B 80 F0 FF FF 7F F0  FF FF 7F 73 36 30 35 45  R..........s605E
09D0: 9B 80 F0 FF FF 7F F0 FF  FF 7F 73 36 30 37 01 80  ..........s607..
09E0: 2B 6D 91 01 01 C2 80 23  1C C3 80 5D 01 80 94 80  +m.....#...]....
09F0: 45 02 80 F8 FF FF 7F F8  FF FF 7F 66 64 6F 32 01  E..........fdo2.
0A00: 80 55 02 80 F8 FF FF 7F  F8 FF FF 7F 66 64 6F 32  .U..........fdo2
0A10: 52 9B 80 F0 FF FF 7F F0  FF FF 7F 73 36 30 37 77  R..........s607w
0A20: C4 80 01 80 27 0A 6E 91  01 01 04 7B 6C 91 01 01  ....'.n....{l...
0A30: 5C 00 C5 80 5C 01 C5 80  66 B7 80 6D 91 01 01 6D  \...\...f..m...m
0A40: 91 01 01 73 69 72 31 1C  C6 80 66 B7 80 6D 91 01  ...sir1...f..m..
0A50: 01 6D 91 01 01 73 68 61  31 45 9B 80 F0 FF FF 7F  .m...sha1E......
0A60: F0 FF FF 7F 73 36 31 38  01 80 1C 31 80 45 02 80  ....s618...1.E..
0A70: F8 FF FF 7F F8 FF FF 7F  66 64 69 32 01 80 1C C3  ........fdi2....
0A80: 80 2B 6C 91 01 01 C7 80  23 1C 94 80 52 9B 80 F0  .+l.....#...R...
0A90: FF FF 7F F0 FF FF 7F 73  36 31 38 45 9B 80 F0 FF  .......s618E....
0AA0: FF 7F F0 FF FF 7F 73 36  31 30 01 80 1C 31 80 2B  ......s610...1.+
0AB0: 6D 91 01 01 C8 80 23 1C  94 80 52 9B 80 F0 FF FF  m.....#...R.....
0AC0: 7F F0 FF FF 7F 73 36 31  30 4E 00 6F 91 01 01 2F  .....s610N.o.../
0AD0: 00 6F 91 01 01 45 9B 80  F0 FF FF 7F F0 FF FF 7F  .o...E..........
0AE0: 73 36 31 39 01 80 1C 5A  80 62 AE 80 6F 91 01 01  s619...Z.b..o...
0AF0: 6F 91 01 01 6D 61 69 6E  01 80 1C 31 80 6E 6D 91  o...main...1.nm.
0B00: 01 01 76 80 99 6D 91 01  01 1C 31 80 2B 6D 91 01  ..v..m....1.+m..
0B10: 01 C9 80 23 1C 5A 80 45  02 80 F8 FF FF 7F F8 FF  ...#.Z.E........
0B20: FF 7F 6F 76 6C 32 01 80  52 9B 80 F0 FF FF 7F F0  ..ovl2..R.......
0B30: FF FF 7F 73 36 31 39 22  01 45 9B 80 F0 FF FF 7F  ...s619".E......
0B40: F0 FF FF 7F 73 36 32 31  01 80 1C 31 80 79 00 6F  ....s621...1.y.o
0B50: 91 01 01 6D 91 01 01 62  AE 80 6F 91 01 01 6F 91  ...m...b..o...o.
0B60: 01 01 6D 61 69 6E 01 80  27 1E 6F 91 01 01 03 2B  ..main..'.o....+
0B70: 6D 91 01 01 CA 80 23 1C  94 80 52 9B 80 F0 FF FF  m.....#...R.....
0B80: 7F F0 FF FF 7F 73 36 32  31 45 9B 80 F0 FF FF 7F  .....s621E......
0B90: F0 FF FF 7F 73 36 31 32  01 80 27 14 6D 91 01 01  ....s612..'.m...
0BA0: 09 1C 94 80 66 B7 80 6D  91 01 01 6D 91 01 01 74  ....f..m...m...t
0BB0: 6C 6B 30 1C A2 80 52 9B  80 F0 FF FF 7F F0 FF FF  lk0...R.........
0BC0: 7F 73 36 31 32 27 0F 6F  91 01 01 04 45 9B 80 F0  .s612'.o....E...
0BD0: FF FF 7F F0 FF FF 7F 73  36 31 37 01 80 1C 94 80  .......s617.....
0BE0: 2B 6D 91 01 01 CB 80 23  66 B7 80 6D 91 01 01 6D  +m.....#f..m...m
0BF0: 91 01 01 74 6C 6B 31 1C  C3 80 2B 6D 91 01 01 CC  ...tlk1...+m....
0C00: 80 23 1C A2 80 45 02 80  F8 FF FF 7F F8 FF FF 7F  .#...E..........
0C10: 6F 76 6C 31 01 80 52 9B  80 F0 FF FF 7F F0 FF FF  ovl1..R.........
0C20: 7F 73 36 31 37 22 00 45  9B 80 F0 FF FF 7F F0 FF  .s617".E........
0C30: FF 7F 73 36 31 34 01 80  1C 94 80 2B 6D 91 01 01  ..s614.....+m...
0C40: CD 80 23 6E 6D 91 01 01  CE 80 99 6D 91 01 01 1C  ..#nm......m....
0C50: 94 80 52 9B 80 F0 FF FF  7F F0 FF FF 7F 73 36 31  ..R..........s61
0C60: 34 4E 01 6F 91 01 01 2F  01 6F 91 01 01 45 9B 80  4N.o.../.o...E..
0C70: F0 FF FF 7F F0 FF FF 7F  73 36 31 35 01 80 1C 31  ........s615...1
0C80: 80 2B 6D 91 01 01 CF 80  23 1C 5A 80 2B 6D 91 01  .+m.....#.Z.+m..
0C90: 01 D0 80 23 45 02 80 F8  FF FF 7F F8 FF FF 7F 6F  ...#E..........o
0CA0: 76 6C 31 01 80 52 9B 80  F0 FF FF 7F F0 FF FF 7F  vl1..R..........
0CB0: 73 36 31 35 45 9B 80 F0  FF FF 7F F0 FF FF 7F 73  s615E..........s
0CC0: 36 32 30 01 80 1C 5A 80  2B 6D 91 01 01 D1 80 23  620...Z.+m.....#
0CD0: 1C 02 80 52 9B 80 F0 FF  FF 7F F0 FF FF 7F 73 36  ...R..........s6
0CE0: 32 30 45 9B 80 F0 FF FF  7F F0 FF FF 7F 73 36 31  20E..........s61
0CF0: 36 01 80 4A F0 FF FF 7F  6D 91 01 01 1C 94 80 4A  6..J....m......J
0D00: 6D 91 01 01 F0 FF FF 7F  1C 31 80 2B 6D 91 01 01  m........1.+m...
0D10: D2 80 23 2B 6D 91 01 01  D3 80 23 6E 6D 91 01 01  ..#+m.....#nm...
0D20: D4 80 99 6D 91 01 01 1C  A2 80 7B 6D 91 01 01 27  ...m......{m...'
0D30: 23 6D 91 01 01 0A 1C 94  80 45 02 80 F8 FF FF 7F  #m.......E......
0D40: F8 FF FF 7F 66 64 6F 31  01 80 55 02 80 F8 FF FF  ....fdo1..U.....
0D50: 7F F8 FF FF 7F 66 64 6F  31 52 9B 80 F0 FF FF 7F  .....fdo1R......
0D60: F0 FF FF 7F 73 36 31 36  4E 01 6D 91 01 01 4E 01  ....s616N.m...N.
0D70: 6E 91 01 01 4E 01 6F 91  01 01 77 D5 80 01 80 37  n...N.o...w....7
0D80: 96 80 97 80 98 80 99 80  45 9B 80 F0 FF FF 7F F0  ........E.......
0D90: FF FF 7F 73 36 35 30 01  80 45 02 80 F8 FF FF 7F  ...s650..E......
0DA0: F8 FF FF 7F 66 64 69 31  01 80 55 02 80 F8 FF FF  ....fdi1..U.....
0DB0: 7F F8 FF FF 7F 66 64 69  31 1C 31 80 2B 6C 91 01  .....fdi1.1.+l..
0DC0: 01 D6 80 23 79 00 F0 FF  FF 7F 6C 91 01 01 1C 5A  ...#y.....l....Z
0DD0: 80 52 9B 80 F0 FF FF 7F  F0 FF FF 7F 73 36 35 30  .R..........s650
0DE0: 45 9B 80 F0 FF FF 7F F0  FF FF 7F 73 36 35 31 01  E..........s651.
0DF0: 80 1C 5A 80 2B 6C 91 01  01 D7 80 23 79 00 6C 91  ..Z.+l.....#y.l.
0E00: 01 01 F0 FF FF 7F 2B 6C  91 01 01 D8 80 23 1C 5A  ......+l.....#.Z
0E10: 80 52 9B 80 F0 FF FF 7F  F0 FF FF 7F 73 36 35 31  .R..........s651
0E20: 22 01 45 9B 80 F0 FF FF  7F F0 FF FF 7F 73 36 35  ".E..........s65
0E30: 32 01 80 1C 5A 80 2B 6C  91 01 01 D9 80 23 1C 31  2...Z.+l.....#.1
0E40: 80 7B 6C 91 01 01 2B 6C  91 01 01 DA 80 23 27 50  .{l...+l.....#'P
0E50: 6C 91 01 01 08 1C 31 80  45 02 80 F8 FF FF 7F F8  l.....1.E.......
0E60: FF FF 7F 6F 76 6C 31 01  80 52 9B 80 F0 FF FF 7F  ...ovl1..R......
0E70: F0 FF FF 7F 73 36 35 32  22 00 45 9B 80 F0 FF FF  ....s652".E.....
0E80: 7F F0 FF FF 7F 73 36 35  33 01 80 1C A2 80 2B 6C  .....s653.....+l
0E90: 91 01 01 DB 80 23 2B 6C  91 01 01 DC 80 23 52 9B  .....#+l.....#R.
0EA0: 80 F0 FF FF 7F F0 FF FF  7F 73 36 35 33 45 9B 80  .........s653E..
0EB0: F0 FF FF 7F F0 FF FF 7F  73 36 35 34 01 80 1C A2  ........s654....
0EC0: 80 4A 6C 91 01 01 F0 FF  FF 7F 1C 31 80 2B 6C 91  .Jl........1.+l.
0ED0: 01 01 DD 80 23 1C A2 80  45 02 80 F8 FF FF 7F F8  ....#...E.......
0EE0: FF FF 7F 6F 76 6C 32 01  80 52 9B 80 F0 FF FF 7F  ...ovl2..R......
0EF0: F0 FF FF 7F 73 36 35 34  45 9B 80 F0 FF FF 7F F0  ....s654E.......
0F00: FF FF 7F 73 36 35 35 01  80 1C 5A 80 2B 6C 91 01  ...s655...Z.+l..
0F10: 01 DE 80 23 1C C3 80 45  02 80 F8 FF FF 7F F8 FF  ...#...E........
0F20: FF 7F 6F 76 6C 32 01 80  52 9B 80 F0 FF FF 7F F0  ..ovl2..R.......
0F30: FF FF 7F 73 36 35 35 45  9B 80 F0 FF FF 7F F0 FF  ...s655E........
0F40: FF 7F 73 36 35 37 01 80  1C A2 80 79 00 6C 91 01  ..s657.....y.l..
0F50: 01 6B 91 01 01 1C 5A 80  2B 6C 91 01 01 DF 80 23  .k....Z.+l.....#
0F60: 79 00 6C 91 01 01 F0 FF  FF 7F 1C 31 80 2B 6C 91  y.l........1.+l.
0F70: 01 01 E0 80 23 2B 6C 91  01 01 E1 80 23 1C 5A 80  ....#+l.....#.Z.
0F80: 52 9B 80 F0 FF FF 7F F0  FF FF 7F 73 36 35 37 45  R..........s657E
0F90: 9B 80 F0 FF FF 7F F0 FF  FF 7F 73 36 35 38 01 80  ..........s658..
0FA0: 1C 31 80 6E 6C 91 01 01  C6 80 99 6C 91 01 01 2B  .1.nl......l...+
0FB0: 6C 91 01 01 E2 80 23 1C  31 80 27 0A 6C 91 01 01  l.....#.1.'.l...
0FC0: 09 1C E3 80 5D 01 80 94  80 45 02 80 F8 FF FF 7F  ....]....E......
0FD0: F8 FF FF 7F 66 64 6F 32  01 80 55 02 80 F8 FF FF  ....fdo2..U.....
0FE0: 7F F8 FF FF 7F 66 64 6F  32 52 9B 80 F0 FF FF 7F  .....fdo2R......
0FF0: F0 FF FF 7F 73 36 35 38  78 46 00 5C 00 AD 80 5C  ....s658xF.\...\
1000: 01 AD 80 45 E4 80 F8 FF  FF 7F F8 FF FF 7F 71 73  ...E..........qs
1010: 74 63 01 80 1C 31 80 45  02 80 F8 FF FF 7F F8 FF  tc...1.E........
1020: FF 7F 66 64 69 31 01 80  21 00                    ..fdi1..!.      
```

#### Opcodes

```
  0: 0x0795 [0x42] SET_CLI_EVENT_CANCEL_DATA()
  1: 0x0796 [0x45] LOAD_SCHEDULED_TASK: Load scheduler "fdo1" with entities [EventEntity, EventEntity], work=[200*, 0*]
  2: 0x07A7 [0x55] WAIT_LOAD_SCHEDULER: Wait for scheduler "fdo1" with entities [EventEntity, EventEntity], work=200*
  3: 0x07B6 [0x5D] SET_MUSIC_VOLUME(volume=0*, fade_time=120*)
  4: 0x07BB [0x46] CAMERA_CONTROL: Disable user control
  5: 0x07BD [0x38] SET_CLIENT_EVENT_MODE(mode=19*)
  6: 0x07C0 [0x37] UPDATE_EVENT_POSITION_AND_DIR: x=-150.367*, z=643.931*, y=-15.585*, direction=225.0°*
  7: 0x07C9 [0x27] REQ_SET(priority=0x0F, entity_id=Enaremand (ID: 16879981/0x0101916D), tag_num=0x08)
  8: 0x07D0 [0x27] REQ_SET(priority=0x0A, entity_id=Fardimant (ID: 16879980/0x0101916C), tag_num=0x07)
  9: 0x07D7 [0x77] SET_EVENT_TIME_WEATHER(hour=19*, weather=14*)
 10: 0x07DC [0x2F] Fardimant (ID: 16879980/0x0101916C)->Render.Flags0 &= ~0x80000 // Bit 19
 11: 0x07E2 [0x4E] SET_ENTITY_HIDE_FLAG: Show Fardimant (ID: 16879980/0x0101916C)
 12: 0x07E8 [0x2F] manequin1 (ID: 16879982/0x0101916E)->Render.Flags0 &= ~0x80000 // Bit 19
 13: 0x07EE [0x4E] SET_ENTITY_HIDE_FLAG: Show manequin1 (ID: 16879982/0x0101916E)
 14: 0x07F4 [0x92] manequin1 (ID: 16879982/0x0101916E)->Render.Flags3 ^= 0x01
 15: 0x07FA [0x81] SET_ENTITY_BLINKING(blink_flag=0x00, entity=manequin1 (ID: 16879982/0x0101916E))
 16: 0x0800 [0x92] Alsha (ID: 16879983/0x0101916F)->Render.Flags3 ^= 0x01
 17: 0x0806 [0x2F] Enaremand (ID: 16879981/0x0101916D)->Render.Flags0 &= ~0x80000 // Bit 19
 18: 0x080C [0x4E] SET_ENTITY_HIDE_FLAG: Show Enaremand (ID: 16879981/0x0101916D)
 19: 0x0812 [0x66] LOAD_EXT_SCHEDULER_MAIN: Load scheduler "sha0" with entities [Enaremand (ID: 16879981/0x0101916D), Enaremand (ID: 16879981/0x0101916D)], work=29*
 20: 0x0821 [0x66] LOAD_EXT_SCHEDULER_MAIN: Load scheduler "sir0" with entities [Enaremand (ID: 16879981/0x0101916D), Enaremand (ID: 16879981/0x0101916D)], work=29*
 21: 0x0830 [0x45] LOAD_SCHEDULED_TASK: Load scheduler "s600" with entities [LocalPlayer, LocalPlayer], work=[165*, 0*]
 22: 0x0841 [0x1C] WAIT(60* ticks)
 23: 0x0844 [0x5C] MUSIC_CONTROL: Set Idle (Day) music to song 127*
 24: 0x0848 [0x5C] MUSIC_CONTROL: Set Idle (Night) music to song 127*
 25: 0x084C [0x45] LOAD_SCHEDULED_TASK: Load scheduler "fdi1" with entities [EventEntity, EventEntity], work=[200*, 0*]
 26: 0x085D [0x55] WAIT_LOAD_SCHEDULER: Wait for scheduler "fdi1" with entities [EventEntity, EventEntity], work=200*
 27: 0x086C [0x2C] CREATE_SCHEDULER_TASK: Create scheduler "dead" with entities [manequin1 (ID: 16879982/0x0101916E), manequin1 (ID: 16879982/0x0101916E)]
 28: 0x0879 [0x1C] WAIT(400* ticks)
 29: 0x087C [0x45] LOAD_SCHEDULED_TASK: Load scheduler "ovl2" with entities [EventEntity, EventEntity], work=[200*, 0*]
 30: 0x088D [0x52] END_LOAD_SCHEDULER: End scheduler "s600" with entities [LocalPlayer, LocalPlayer], work=165*
 31: 0x089C [0x45] LOAD_SCHEDULED_TASK: Load scheduler "s601" with entities [LocalPlayer, LocalPlayer], work=[165*, 0*]
 32: 0x08AD [0x1C] WAIT(30* ticks)
 33: 0x08B0 [0x2B] Enaremand (ID: 16879981/0x0101916D) [7639*]:
    → "M-m-m-my...m-m-m-my beloved Alsha..."
 34: 0x08B7 [0x23] WAIT_FOR_DIALOG_INTERACTION
 35: 0x08B8 [0x1C] WAIT(60* ticks)
 36: 0x08BB [0x2B] Enaremand (ID: 16879981/0x0101916D) [7640*]:
    → "Wh-what have you done! Y-you m-m-m-monster!"
 37: 0x08C2 [0x23] WAIT_FOR_DIALOG_INTERACTION
 38: 0x08C3 [0x1C] WAIT(90* ticks)
 39: 0x08C6 [0x52] END_LOAD_SCHEDULER: End scheduler "s601" with entities [LocalPlayer, LocalPlayer], work=165*
 40: 0x08D5 [0x45] LOAD_SCHEDULED_TASK: Load scheduler "s602" with entities [LocalPlayer, LocalPlayer], work=[165*, 0*]
 41: 0x08E6 [0x79] Fardimant (ID: 16879980/0x0101916C) looks at Enaremand (ID: 16879981/0x0101916D) (Basic look)
 42: 0x08F0 [0x2B] Fardimant (ID: 16879980/0x0101916C) [7641*]:
    → "Enaremand... Do you still not realize?"
 43: 0x08F7 [0x23] WAIT_FOR_DIALOG_INTERACTION
 44: 0x08F8 [0x2B] Fardimant (ID: 16879980/0x0101916C) [7642*]:
    → "It is not <Player> who is the m-m-m-monster."
 45: 0x08FF [0x23] WAIT_FOR_DIALOG_INTERACTION
 46: 0x0900 [0x52] END_LOAD_SCHEDULER: End scheduler "s602" with entities [LocalPlayer, LocalPlayer], work=165*
 47: 0x090F [0x45] LOAD_SCHEDULED_TASK: Load scheduler "s603" with entities [LocalPlayer, LocalPlayer], work=[165*, 0*]
 48: 0x0920 [0x1C] WAIT(60* ticks)
 49: 0x0923 [0x2B] Enaremand (ID: 16879981/0x0101916D) [7643*]:
    → "B-but Alsha... Sh-she w-was... Sh-she was..."
 50: 0x092A [0x23] WAIT_FOR_DIALOG_INTERACTION
 51: 0x092B [0x1C] WAIT(60* ticks)
 52: 0x092E [0x52] END_LOAD_SCHEDULER: End scheduler "s603" with entities [LocalPlayer, LocalPlayer], work=165*
 53: 0x093D [0x45] LOAD_SCHEDULED_TASK: Load scheduler "s602" with entities [LocalPlayer, LocalPlayer], work=[165*, 0*]
 54: 0x094E [0x1C] WAIT(60* ticks)
 55: 0x0951 [0x2B] Fardimant (ID: 16879980/0x0101916C) [7644*]:
    → "She was nothing more than a puppet--a crude golem pieced together from sticks and clay. She was not your Alsha."
 56: 0x0958 [0x23] WAIT_FOR_DIALOG_INTERACTION
 57: 0x0959 [0x52] END_LOAD_SCHEDULER: End scheduler "s602" with entities [LocalPlayer, LocalPlayer], work=165*
 58: 0x0968 [0x45] LOAD_SCHEDULED_TASK: Load scheduler "s604" with entities [LocalPlayer, LocalPlayer], work=[165*, 0*]
 59: 0x0979 [0x1C] WAIT(60* ticks)
 60: 0x097C [0x2B] Enaremand (ID: 16879981/0x0101916D) [7645*]:
    → "Y-you don't understand! Y-you don't know the hell I've experienced these past t-twenty years. The hell I'm in now!"
 61: 0x0983 [0x23] WAIT_FOR_DIALOG_INTERACTION
 62: 0x0984 [0x1C] WAIT(60* ticks)
 63: 0x0987 [0x2B] Fardimant (ID: 16879980/0x0101916C) [7646*]:
    → "But what did you expect by knocking on the gates of the underworld?"
 64: 0x098E [0x23] WAIT_FOR_DIALOG_INTERACTION
 65: 0x098F [0x1C] WAIT(90* ticks)
 66: 0x0992 [0x52] END_LOAD_SCHEDULER: End scheduler "s604" with entities [LocalPlayer, LocalPlayer], work=165*
 67: 0x09A1 [0x45] LOAD_SCHEDULED_TASK: Load scheduler "s605" with entities [LocalPlayer, LocalPlayer], work=[165*, 0*]
 68: 0x09B2 [0x1C] WAIT(90* ticks)
 69: 0x09B5 [0x2B] Fardimant (ID: 16879980/0x0101916C) [7647*]:
    → "I warned you, my friend..."
 70: 0x09BC [0x23] WAIT_FOR_DIALOG_INTERACTION
 71: 0x09BD [0x1C] WAIT(120* ticks)
 72: 0x09C0 [0x52] END_LOAD_SCHEDULER: End scheduler "s605" with entities [LocalPlayer, LocalPlayer], work=165*
 73: 0x09CF [0x45] LOAD_SCHEDULED_TASK: Load scheduler "s607" with entities [LocalPlayer, LocalPlayer], work=[165*, 0*]
 74: 0x09E0 [0x2B] Enaremand (ID: 16879981/0x0101916D) [7648*]:
    → "I... There is n-nothing left for m-m-m-me in this world... Curse you, Altana! Come, darkness. Take m-m-m-me to your kingdom!"
 75: 0x09E7 [0x23] WAIT_FOR_DIALOG_INTERACTION
 76: 0x09E8 [0x1C] WAIT(180* ticks)
 77: 0x09EB [0x5D] SET_MUSIC_VOLUME(volume=0*, fade_time=120*)
 78: 0x09F0 [0x45] LOAD_SCHEDULED_TASK: Load scheduler "fdo2" with entities [EventEntity, EventEntity], work=[200*, 0*]
 79: 0x0A01 [0x55] WAIT_LOAD_SCHEDULER: Wait for scheduler "fdo2" with entities [EventEntity, EventEntity], work=200*
 80: 0x0A10 [0x52] END_LOAD_SCHEDULER: End scheduler "s607" with entities [LocalPlayer, LocalPlayer], work=165*
 81: 0x0A1F [0x77] SET_EVENT_TIME_WEATHER(hour=5*, weather=0*)
 82: 0x0A24 [0x27] REQ_SET(priority=0x0A, entity_id=manequin1 (ID: 16879982/0x0101916E), tag_num=0x04)
 83: 0x0A2B [0x7B] Fardimant (ID: 16879980/0x0101916C) stops talking
 84: 0x0A30 [0x5C] MUSIC_CONTROL: Set Idle (Day) music to song 124*
 85: 0x0A34 [0x5C] MUSIC_CONTROL: Set Idle (Night) music to song 124*
 86: 0x0A38 [0x66] LOAD_EXT_SCHEDULER_MAIN: Load scheduler "sir1" with entities [Enaremand (ID: 16879981/0x0101916D), Enaremand (ID: 16879981/0x0101916D)], work=29*
 87: 0x0A47 [0x1C] WAIT(1* ticks)
 88: 0x0A4A [0x66] LOAD_EXT_SCHEDULER_MAIN: Load scheduler "sha1" with entities [Enaremand (ID: 16879981/0x0101916D), Enaremand (ID: 16879981/0x0101916D)], work=29*
 89: 0x0A59 [0x45] LOAD_SCHEDULED_TASK: Load scheduler "s618" with entities [LocalPlayer, LocalPlayer], work=[165*, 0*]
 90: 0x0A6A [0x1C] WAIT(60* ticks)
 91: 0x0A6D [0x45] LOAD_SCHEDULED_TASK: Load scheduler "fdi2" with entities [EventEntity, EventEntity], work=[200*, 0*]
 92: 0x0A7E [0x1C] WAIT(180* ticks)
 93: 0x0A81 [0x2B] Fardimant (ID: 16879980/0x0101916C) [7649*]:
    → "The infernal mists have lifted..."
 94: 0x0A88 [0x23] WAIT_FOR_DIALOG_INTERACTION
 95: 0x0A89 [0x1C] WAIT(120* ticks)
 96: 0x0A8C [0x52] END_LOAD_SCHEDULER: End scheduler "s618" with entities [LocalPlayer, LocalPlayer], work=165*
 97: 0x0A9B [0x45] LOAD_SCHEDULED_TASK: Load scheduler "s610" with entities [LocalPlayer, LocalPlayer], work=[165*, 0*]
 98: 0x0AAC [0x1C] WAIT(60* ticks)
 99: 0x0AAF [0x2B] Enaremand (ID: 16879981/0x0101916D) [7650*]:
    → "..."
100: 0x0AB6 [0x23] WAIT_FOR_DIALOG_INTERACTION
101: 0x0AB7 [0x1C] WAIT(120* ticks)
102: 0x0ABA [0x52] END_LOAD_SCHEDULER: End scheduler "s610" with entities [LocalPlayer, LocalPlayer], work=165*
103: 0x0AC9 [0x4E] SET_ENTITY_HIDE_FLAG: Show Alsha (ID: 16879983/0x0101916F)
104: 0x0ACF [0x2F] Alsha (ID: 16879983/0x0101916F)->Render.Flags0 &= ~0x80000 // Bit 19
105: 0x0AD5 [0x45] LOAD_SCHEDULED_TASK: Load scheduler "s619" with entities [LocalPlayer, LocalPlayer], work=[165*, 0*]
106: 0x0AE6 [0x1C] WAIT(30* ticks)
107: 0x0AE9 [0x62] LOAD_EVENT_SCHEDULER: Load scheduler "main" with entities [Alsha (ID: 16879983/0x0101916F), Alsha (ID: 16879983/0x0101916F)], work=[27*, 0*]
108: 0x0AFA [0x1C] WAIT(60* ticks)
109: 0x0AFD [0x6E] Enaremand (ID: 16879981/0x0101916D) uses emote 21*
110: 0x0B04 [0x99] Wait for Enaremand (ID: 16879981/0x0101916D) animation to complete
111: 0x0B09 [0x1C] WAIT(60* ticks)
112: 0x0B0C [0x2B] Enaremand (ID: 16879981/0x0101916D) [7651*]:
    → "......!"
113: 0x0B13 [0x23] WAIT_FOR_DIALOG_INTERACTION
114: 0x0B14 [0x1C] WAIT(30* ticks)
115: 0x0B17 [0x45] LOAD_SCHEDULED_TASK: Load scheduler "ovl2" with entities [EventEntity, EventEntity], work=[200*, 0*]
116: 0x0B28 [0x52] END_LOAD_SCHEDULER: End scheduler "s619" with entities [LocalPlayer, LocalPlayer], work=165*
117: 0x0B37 [0x22] ENTITY_HIDE_FLAG(enabled=0x01)
118: 0x0B39 [0x45] LOAD_SCHEDULED_TASK: Load scheduler "s621" with entities [LocalPlayer, LocalPlayer], work=[165*, 0*]
119: 0x0B4A [0x1C] WAIT(60* ticks)
120: 0x0B4D [0x79] Alsha (ID: 16879983/0x0101916F) looks at Enaremand (ID: 16879981/0x0101916D) (Basic look)
121: 0x0B57 [0x62] LOAD_EVENT_SCHEDULER: Load scheduler "main" with entities [Alsha (ID: 16879983/0x0101916F), Alsha (ID: 16879983/0x0101916F)], work=[27*, 0*]
122: 0x0B68 [0x27] REQ_SET(priority=0x1E, entity_id=Alsha (ID: 16879983/0x0101916F), tag_num=0x03)
123: 0x0B6F [0x2B] Enaremand (ID: 16879981/0x0101916D) [7652*]:
    → "Alsha!"
124: 0x0B76 [0x23] WAIT_FOR_DIALOG_INTERACTION
125: 0x0B77 [0x1C] WAIT(120* ticks)
126: 0x0B7A [0x52] END_LOAD_SCHEDULER: End scheduler "s621" with entities [LocalPlayer, LocalPlayer], work=165*
127: 0x0B89 [0x45] LOAD_SCHEDULED_TASK: Load scheduler "s612" with entities [LocalPlayer, LocalPlayer], work=[165*, 0*]
128: 0x0B9A [0x27] REQ_SET(priority=0x14, entity_id=Enaremand (ID: 16879981/0x0101916D), tag_num=0x09)
129: 0x0BA1 [0x1C] WAIT(120* ticks)
130: 0x0BA4 [0x66] LOAD_EXT_SCHEDULER_MAIN: Load scheduler "tlk0" with entities [Enaremand (ID: 16879981/0x0101916D), Enaremand (ID: 16879981/0x0101916D)], work=29*
131: 0x0BB3 [0x1C] WAIT(90* ticks)
132: 0x0BB6 [0x52] END_LOAD_SCHEDULER: End scheduler "s612" with entities [LocalPlayer, LocalPlayer], work=165*
133: 0x0BC5 [0x27] REQ_SET(priority=0x0F, entity_id=Alsha (ID: 16879983/0x0101916F), tag_num=0x04)
134: 0x0BCC [0x45] LOAD_SCHEDULED_TASK: Load scheduler "s617" with entities [LocalPlayer, LocalPlayer], work=[165*, 0*]
135: 0x0BDD [0x1C] WAIT(120* ticks)
136: 0x0BE0 [0x2B] Enaremand (ID: 16879981/0x0101916D) [7653*]:
    → "I... You..."
137: 0x0BE7 [0x23] WAIT_FOR_DIALOG_INTERACTION
138: 0x0BE8 [0x66] LOAD_EXT_SCHEDULER_MAIN: Load scheduler "tlk1" with entities [Enaremand (ID: 16879981/0x0101916D), Enaremand (ID: 16879981/0x0101916D)], work=29*
139: 0x0BF7 [0x1C] WAIT(180* ticks)
140: 0x0BFA [0x2B] Enaremand (ID: 16879981/0x0101916D) [7654*]:
    → "S-so beautiful... Nothing like m-my m-mannequin..."
141: 0x0C01 [0x23] WAIT_FOR_DIALOG_INTERACTION
142: 0x0C02 [0x1C] WAIT(90* ticks)
143: 0x0C05 [0x45] LOAD_SCHEDULED_TASK: Load scheduler "ovl1" with entities [EventEntity, EventEntity], work=[200*, 0*]
144: 0x0C16 [0x52] END_LOAD_SCHEDULER: End scheduler "s617" with entities [LocalPlayer, LocalPlayer], work=165*
145: 0x0C25 [0x22] ENTITY_HIDE_FLAG(enabled=0x00)
146: 0x0C27 [0x45] LOAD_SCHEDULED_TASK: Load scheduler "s614" with entities [LocalPlayer, LocalPlayer], work=[165*, 0*]
147: 0x0C38 [0x1C] WAIT(120* ticks)
148: 0x0C3B [0x2B] Enaremand (ID: 16879981/0x0101916D) [7655*]:
    → "Oh... I'm so sorry, Alsha. What was I thinking?"
149: 0x0C42 [0x23] WAIT_FOR_DIALOG_INTERACTION
150: 0x0C43 [0x6E] Enaremand (ID: 16879981/0x0101916D) uses emote 6*
151: 0x0C4A [0x99] Wait for Enaremand (ID: 16879981/0x0101916D) animation to complete
152: 0x0C4F [0x1C] WAIT(120* ticks)
153: 0x0C52 [0x52] END_LOAD_SCHEDULER: End scheduler "s614" with entities [LocalPlayer, LocalPlayer], work=165*
154: 0x0C61 [0x4E] SET_ENTITY_HIDE_FLAG: Hide Alsha (ID: 16879983/0x0101916F)
155: 0x0C67 [0x2F] Alsha (ID: 16879983/0x0101916F)->Render.Flags0 |= 0x80000 // Bit 19
156: 0x0C6D [0x45] LOAD_SCHEDULED_TASK: Load scheduler "s615" with entities [LocalPlayer, LocalPlayer], work=[165*, 0*]
157: 0x0C7E [0x1C] WAIT(60* ticks)
158: 0x0C81 [0x2B] Enaremand (ID: 16879981/0x0101916D) [7656*]:
    → "I knew all along that I could never replace you...recreate you. But I was so lost..."
159: 0x0C88 [0x23] WAIT_FOR_DIALOG_INTERACTION
160: 0x0C89 [0x1C] WAIT(30* ticks)
161: 0x0C8C [0x2B] Enaremand (ID: 16879981/0x0101916D) [7657*]:
    → "Perhaps if I had just looked harder...I would have found you..."
162: 0x0C93 [0x23] WAIT_FOR_DIALOG_INTERACTION
163: 0x0C94 [0x45] LOAD_SCHEDULED_TASK: Load scheduler "ovl1" with entities [EventEntity, EventEntity], work=[200*, 0*]
164: 0x0CA5 [0x52] END_LOAD_SCHEDULER: End scheduler "s615" with entities [LocalPlayer, LocalPlayer], work=165*
165: 0x0CB4 [0x45] LOAD_SCHEDULED_TASK: Load scheduler "s620" with entities [LocalPlayer, LocalPlayer], work=[165*, 0*]
166: 0x0CC5 [0x1C] WAIT(30* ticks)
167: 0x0CC8 [0x2B] Enaremand (ID: 16879981/0x0101916D) [7658*]:
    → "Right here, in my heart..."
168: 0x0CCF [0x23] WAIT_FOR_DIALOG_INTERACTION
169: 0x0CD0 [0x1C] WAIT(200* ticks)
170: 0x0CD3 [0x52] END_LOAD_SCHEDULER: End scheduler "s620" with entities [LocalPlayer, LocalPlayer], work=165*
171: 0x0CE2 [0x45] LOAD_SCHEDULED_TASK: Load scheduler "s616" with entities [LocalPlayer, LocalPlayer], work=[165*, 0*]
172: 0x0CF3 [0x4A] LocalPlayer looks at Enaremand (ID: 16879981/0x0101916D)
173: 0x0CFC [0x1C] WAIT(120* ticks)
174: 0x0CFF [0x4A] Enaremand (ID: 16879981/0x0101916D) looks at LocalPlayer
175: 0x0D08 [0x1C] WAIT(60* ticks)
176: 0x0D0B [0x2B] Enaremand (ID: 16879981/0x0101916D) [7659*]:
    → "<Player>... I apologize for all I have put you through, and thank you for your assistance."
177: 0x0D12 [0x23] WAIT_FOR_DIALOG_INTERACTION
178: 0x0D13 [0x2B] Enaremand (ID: 16879981/0x0101916D) [7660*]:
    → "Please accept this as a token of my gratitude, though I realize there is no real way I can repay you..."
179: 0x0D1A [0x23] WAIT_FOR_DIALOG_INTERACTION
180: 0x0D1B [0x6E] Enaremand (ID: 16879981/0x0101916D) uses emote 7*
181: 0x0D22 [0x99] Wait for Enaremand (ID: 16879981/0x0101916D) animation to complete
182: 0x0D27 [0x1C] WAIT(90* ticks)
183: 0x0D2A [0x7B] Enaremand (ID: 16879981/0x0101916D) stops talking
184: 0x0D2F [0x27] REQ_SET(priority=0x23, entity_id=Enaremand (ID: 16879981/0x0101916D), tag_num=0x0A)
185: 0x0D36 [0x1C] WAIT(120* ticks)
186: 0x0D39 [0x45] LOAD_SCHEDULED_TASK: Load scheduler "fdo1" with entities [EventEntity, EventEntity], work=[200*, 0*]
187: 0x0D4A [0x55] WAIT_LOAD_SCHEDULER: Wait for scheduler "fdo1" with entities [EventEntity, EventEntity], work=200*
188: 0x0D59 [0x52] END_LOAD_SCHEDULER: End scheduler "s616" with entities [LocalPlayer, LocalPlayer], work=165*
189: 0x0D68 [0x4E] SET_ENTITY_HIDE_FLAG: Hide Enaremand (ID: 16879981/0x0101916D)
190: 0x0D6E [0x4E] SET_ENTITY_HIDE_FLAG: Hide manequin1 (ID: 16879982/0x0101916E)
191: 0x0D74 [0x4E] SET_ENTITY_HIDE_FLAG: Hide Alsha (ID: 16879983/0x0101916F)
192: 0x0D7A [0x77] SET_EVENT_TIME_WEATHER(hour=9*, weather=0*)
193: 0x0D7F [0x37] UPDATE_EVENT_POSITION_AND_DIR: x=-149.684*, z=645.406*, y=-15.571*, direction=197.7°*
194: 0x0D88 [0x45] LOAD_SCHEDULED_TASK: Load scheduler "s650" with entities [LocalPlayer, LocalPlayer], work=[165*, 0*]
195: 0x0D99 [0x45] LOAD_SCHEDULED_TASK: Load scheduler "fdi1" with entities [EventEntity, EventEntity], work=[200*, 0*]
196: 0x0DAA [0x55] WAIT_LOAD_SCHEDULER: Wait for scheduler "fdi1" with entities [EventEntity, EventEntity], work=200*
197: 0x0DB9 [0x1C] WAIT(60* ticks)
198: 0x0DBC [0x2B] Fardimant (ID: 16879980/0x0101916C) [7661*]:
    → "To stand by that troubled man's side throughout his ordeals... You are quite a better [man/person] than I, <Player>."
199: 0x0DC3 [0x23] WAIT_FOR_DIALOG_INTERACTION
200: 0x0DC4 [0x79] LocalPlayer looks at Fardimant (ID: 16879980/0x0101916C) (Basic look)
201: 0x0DCE [0x1C] WAIT(30* ticks)
202: 0x0DD1 [0x52] END_LOAD_SCHEDULER: End scheduler "s650" with entities [LocalPlayer, LocalPlayer], work=165*
203: 0x0DE0 [0x45] LOAD_SCHEDULED_TASK: Load scheduler "s651" with entities [LocalPlayer, LocalPlayer], work=[165*, 0*]
204: 0x0DF1 [0x1C] WAIT(30* ticks)
205: 0x0DF4 [0x2B] Fardimant (ID: 16879980/0x0101916C) [7662*]:
    → "Hm? Oh, I did nothing but what was required of me."
206: 0x0DFB [0x23] WAIT_FOR_DIALOG_INTERACTION
207: 0x0DFC [0x79] Fardimant (ID: 16879980/0x0101916C) looks at LocalPlayer (Basic look)
208: 0x0E06 [0x2B] Fardimant (ID: 16879980/0x0101916C) [7663*]:
    → "Things would have been no different if it were you who asked to bring back someone you had lost."
209: 0x0E0D [0x23] WAIT_FOR_DIALOG_INTERACTION
