# Event 65535

## Metadata

| Field           | Value    |
|-----------------|----------|
| Event Index     | 50/57    |
| Offset          | 0x02BC   |
| Data Size       | 37 bytes |
| Calculated Size | 37 bytes |
| Instructions    | 9        |

```
      00 01 02 03 04 05 06 07  08 09 0A 0B 0C 0D 0E 0F
      -- -- -- -- -- -- -- --  -- -- -- -- -- -- -- --
02B0:                                      29 08 9F 82              )...
02C0: 06 01 01 1D 26 80 23 1D  27 80 23 29 08 9F 82 06  ....&.#.'.#)....
02D0: 01 02 29 08 9F 82 06 01  04 29 08 9F 82 06 01 05  ..)......)......
02E0: 00                                                .               
```

## Opcodes

```
  0: 0x02BC [0x29] REQ_SET_WAIT(priority=0x08, entity_id=Semih Lafihna (ID: 17203871/0x0106829F), tag_num=0x01)
  1: 0x02C3 [0x1D] PRINT_EVENT_MESSAGE(message_id=7963*)
    → "No, it doesn't match the one I carry.\u007F1\u0000\u0007"
  2: 0x02C6 [0x23] WAIT_FOR_DIALOG_INTERACTION
  3: 0x02C7 [0x1D] PRINT_EVENT_MESSAGE(message_id=7964*)
    → "What does this mean?\u0007Why would the chieftainness send this to me...?\u007F1\u0000\u0007"
  4: 0x02CA [0x23] WAIT_FOR_DIALOG_INTERACTION
  5: 0x02CB [0x29] REQ_SET_WAIT(priority=0x08, entity_id=Semih Lafihna (ID: 17203871/0x0106829F), tag_num=0x02)
  6: 0x02D2 [0x29] REQ_SET_WAIT(priority=0x08, entity_id=Semih Lafihna (ID: 17203871/0x0106829F), tag_num=0x04)
  7: 0x02D9 [0x29] REQ_SET_WAIT(priority=0x08, entity_id=Semih Lafihna (ID: 17203871/0x0106829F), tag_num=0x05)
  8: 0x02E0 [0x00] END_REQSTACK()
```
