# Event 108

## Metadata

| Field           | Value    |
|-----------------|----------|
| Event Index     | 3/19     |
| Offset          | 0x02B4   |
| Data Size       | 42 bytes |
| Calculated Size | 42 bytes |
| Instructions    | 10       |

```
      00 01 02 03 04 05 06 07  08 09 0A 0B 0C 0D 0E 0F
      -- -- -- -- -- -- -- --  -- -- -- -- -- -- -- --
02B0:             4A F0 FF FF  7F 41 01 10 01 4A 41 01      J....A...JA.
02C0: 10 01 F0 FF FF 7F 6F 76  41 01 10 01 2B 41 01 10  ......ovA...+A..
02D0: 01 09 80 23 2B 41 01 10  01 0A 80 23 21 00        ...#+A.....#!.  
```

## Opcodes

```
  0: 0x02B4 [0x4A] LocalPlayer looks at Gaddiux (ID: 17826113/0x01100141)
  1: 0x02BD [0x4A] Gaddiux (ID: 17826113/0x01100141) looks at LocalPlayer
  2: 0x02C6 [0x6F] WAIT_FRAME_DELAY: Yield until WaitTime reaches zero
  3: 0x02C7 [0x76] CHECK_ENTITY_RENDER_FLAGS: Wait until Gaddiux (ID: 17826113/0x01100141) Render.Flags0 and Render.Flags3 conditions are met
  4: 0x02CC [0x2B] Gaddiux (ID: 17826113/0x01100141) [12517*]:
    → "If it's a smith you seek, the only one that comes to my mind is Yestin-Ovestin.\u007F1\u0000\u0007"
  5: 0x02D3 [0x23] WAIT_FOR_DIALOG_INTERACTION
  6: 0x02D4 [0x2B] Gaddiux (ID: 17826113/0x01100141) [12518*]:
    → "He never seems to accept work from anyone, so you can always find him waddling around the waterfront. The only thing you're apt to get from him is a wad of spit in the eye, but you never know.\u007F1\u0000\u0007"
  7: 0x02DB [0x23] WAIT_FOR_DIALOG_INTERACTION
  8: 0x02DC [0x21] END_EVENT
  9: 0x02DD [0x00] END_REQSTACK()
```
