# Event 124

## Metadata

| Field           | Value    |
|-----------------|----------|
| Event Index     | 7/9      |
| Offset          | 0x0241   |
| Data Size       | 48 bytes |
| Calculated Size | 48 bytes |
| Instructions    | 15       |

```
      00 01 02 03 04 05 06 07  08 09 0A 0B 0C 0D 0E 0F
      -- -- -- -- -- -- -- --  -- -- -- -- -- -- -- --
0240:    42 1C 05 80 43 00 43  01 1C 05 80 48 1C 80 23   B...C.C....H..#
0250: 1D 1D 80 23 4E 00 F0 FF  FF 7F 46 00 45 01 80 F8  ...#N.....F.E...
0260: FF FF 7F F8 FF FF 7F 66  64 69 31 00 80 20 00 21  .......fdi1.. .!
0270: 00                                                .               
```

## Opcodes

```
  0: 0x0241 [0x42] SET_CLI_EVENT_CANCEL_DATA()
  1: 0x0242 [0x1C] WAIT(1* ticks)
  2: 0x0245 [0x43] SEND_EVENT_UPDATE: Send pending tag to server (packet 0x005B)
  3: 0x0247 [0x43] SEND_EVENT_UPDATE: Check pending flag (skip if not pending)
  4: 0x0249 [0x1C] WAIT(1* ticks)
  5: 0x024C [0x48] [System] [7558*]:
    → "The \u0001\u00050\u0002\u0013\u0002\u0000 jumps in your hands.\u0000\u0007"
  6: 0x024F [0x23] WAIT_FOR_DIALOG_INTERACTION
  7: 0x0250 [0x1D] PRINT_EVENT_MESSAGE(message_id=7562*)
    → "Ahahahahaha!\u0007You're almost on top of it!\u0007It's somewhere in this area!\u0000\u0007"
  8: 0x0253 [0x23] WAIT_FOR_DIALOG_INTERACTION
  9: 0x0254 [0x4E] SET_ENTITY_HIDE_FLAG: Show LocalPlayer
 10: 0x025A [0x46] CAMERA_CONTROL: Restore default settings
 11: 0x025C [0x45] LOAD_SCHEDULED_TASK: Load scheduler "fdi1" with entities [EventEntity, EventEntity], work=[200*, 0*]
 12: 0x026D [0x20] SET_CLI_EVENT_UC_FLAG: Unlock player control
 13: 0x026F [0x21] END_EVENT
 14: 0x0270 [0x00] END_REQSTACK()
```
