# Event 105

## Metadata

| Field           | Value    |
|-----------------|----------|
| Event Index     | 17/40    |
| Offset          | 0x00F4   |
| Data Size       | 53 bytes |
| Calculated Size | 53 bytes |
| Instructions    | 15       |

```
      00 01 02 03 04 05 06 07  08 09 0A 0B 0C 0D 0E 0F
      -- -- -- -- -- -- -- --  -- -- -- -- -- -- -- --
00F0:             20 01 24 1F  80 20 80 1A 80 25 02 00       .$.. ...%..
0100: 10 1A 80 00 1A 01 42 43  00 43 01 03 01 10 20 80  ......BC.C.... .
0110: 29 01 F0 FF FF 7F 16 01  25 01 02 00 10 20 80 00  ).......%.... ..
0120: 25 01 01 25 01 20 00 21  00                       %..%. .!.       
```

## Opcodes

```
  0: 0x00F4 [0x20] SET_CLI_EVENT_UC_FLAG: Lock player control
  1: 0x00F6 [0x24] CREATE_DIALOG(message_id=7262*, default_option=1*, option_flags=0*)
    → "Use the device?\u0007\u000BYes.\u0007No.\u007F1\u0000\u0007"
  2: 0x00FD [0x25] WAIT_DIALOG_SELECT()
  3: 0x00FE [0x02] IF !(Work_Zone[0] == 0*) GOTO 0x011A
  4: 0x0106 [0x42] SET_CLI_EVENT_CANCEL_DATA()
  5: 0x0107 [0x43] SEND_EVENT_UPDATE: Send pending tag to server (packet 0x005B)
  6: 0x0109 [0x43] SEND_EVENT_UPDATE: Check pending flag (skip if not pending)
  7: 0x010B [0x03] Work_Zone[1] = 1*
  8: 0x0110 [0x29] REQ_SET_WAIT(priority=0x01, entity_id=LocalPlayer, tag_num=0x16)
  9: 0x0117 [0x01] GOTO 0x0125

SUBROUTINE_011A:
 10: 0x011A [0x02] IF !(Work_Zone[0] == 1*) GOTO 0x0125
 11: 0x0122 [0x01] GOTO 0x0125

SUBROUTINE_0125:
 12: 0x0125 [0x20] SET_CLI_EVENT_UC_FLAG: Unlock player control
 13: 0x0127 [0x21] END_EVENT
 14: 0x0128 [0x00] END_REQSTACK()
```
