# Event 108

## Metadata

| Field           | Value    |
|-----------------|----------|
| Event Index     | 25/40    |
| Offset          | 0x03D8   |
| Data Size       | 50 bytes |
| Calculated Size | 50 bytes |
| Instructions    | 8        |

```
      00 01 02 03 04 05 06 07  08 09 0A 0B 0C 0D 0E 0F
      -- -- -- -- -- -- -- --  -- -- -- -- -- -- -- --
03D0:                          4E 00 F0 FF FF 7F 20 01          N..... .
03E0: 42 80 F0 FF FF 7F 45 22  80 F0 FF FF 7F F0 FF FF  B.....E"........
03F0: 7F 66 64 69 31 1A 80 62  2D 80 F0 FF FF 7F F0 FF  .fdi1..b-.......
0400: FF 7F 6D 61 69 6E 1A 80  21 00                    ..main..!.      
```

## Opcodes

```
  0: 0x03D8 [0x4E] SET_ENTITY_HIDE_FLAG: Show LocalPlayer
  1: 0x03DE [0x20] SET_CLI_EVENT_UC_FLAG: Lock player control
  2: 0x03E0 [0x42] SET_CLI_EVENT_CANCEL_DATA()
  3: 0x03E1 [0x80] LOAD_WAIT(entity=LocalPlayer)
  4: 0x03E6 [0x45] LOAD_SCHEDULED_TASK(work_offset1=200*, entity1=LocalPlayer, entity2=LocalPlayer, scheduler_id="fdi1", work_offset2=0*)
  5: 0x03F7 [0x62] LOAD_EVENT_SCHEDULER (arg=5012): Load scheduler "main" with entities [LocalPlayer, LocalPlayer], work=[2*, 0*]
  6: 0x0408 [0x21] END_EVENT
  7: 0x0409 [0x00] END_REQSTACK()
```
