# Event 65535

## Metadata

| Field           | Value    |
|-----------------|----------|
| Event Index     | 33/41    |
| Offset          | 0x045B   |
| Data Size       | 48 bytes |
| Calculated Size | 48 bytes |
| Instructions    | 11       |

```
      00 01 02 03 04 05 06 07  08 09 0A 0B 0C 0D 0E 0F
      -- -- -- -- -- -- -- --  -- -- -- -- -- -- -- --
0450:                                   02 04 00 68 80             ...h.
0460: 01 8A 04 32 34 80 1F 00  69 80 6A 80 6B 80 1F 01  ...24...i.j.k...
0470: 1F 00 6C 80 6D 80 6E 80  1F 01 1C 6F 80 1F 00 70  ..l.m.n....o...p
0480: 80 71 80 72 80 1F 01 01  5B 04 00                 .q.r....[..     
```

## Opcodes

```
  0: 0x045B [0x02] IF !(ExtData[1]->WorkLocal[4] == 2*) GOTO 0x048A
  1: 0x0463 [0x32] ExtData[1]->MainSpeed = 15* * 0.1
  2: 0x0466 [0x1F] MOVE_ENTITY: EventEntity moves to X=-605.972*, Z=607.697*, Y=0.004*
  3: 0x046E [0x1F] MOVE_ENTITY: Update entity position (mode=1)
  4: 0x0470 [0x1F] MOVE_ENTITY: EventEntity moves to X=-608.286*, Z=606.788*, Y=-0.064*
  5: 0x0478 [0x1F] MOVE_ENTITY: Update entity position (mode=1)
  6: 0x047A [0x1C] WAIT(60* ticks)
  7: 0x047D [0x1F] MOVE_ENTITY: EventEntity moves to X=-606.508*, Z=607.958*, Y=-0.049*
  8: 0x0485 [0x1F] MOVE_ENTITY: Update entity position (mode=1)
  9: 0x0487 [0x01] GOTO 0x045B
 10: 0x048A [0x00] END_REQSTACK()
```
