# Event 65535

## Metadata

| Field           | Value    |
|-----------------|----------|
| Event Index     | 37/41    |
| Offset          | 0x04F0   |
| Data Size       | 67 bytes |
| Calculated Size | 67 bytes |
| Instructions    | 15       |

```
      00 01 02 03 04 05 06 07  08 09 0A 0B 0C 0D 0E 0F
      -- -- -- -- -- -- -- --  -- -- -- -- -- -- -- --
04F0: 32 8A 80 1F 00 8B 80 8C  80 8D 80 1F 01 4B 98 A0  2............K..
0500: 0E 01 8E 80 1C 6F 80 1F  00 8F 80 90 80 91 80 1F  .....o..........
0510: 01 4B 98 A0 0E 01 92 80  1C 93 80 1F 00 94 80 95  .K..............
0520: 80 96 80 1F 01 1C 83 80  4B 98 A0 0E 01 97 80 1C  ........K.......
0530: 6F 80 00                                          o..             
```

## Opcodes

```
  0: 0x04F0 [0x32] ExtData[1]->MainSpeed = 45* * 0.1
  1: 0x04F3 [0x1F] MOVE_ENTITY: EventEntity moves to X=-599.295*, Z=590.678*, Y=0.264*
  2: 0x04FB [0x1F] MOVE_ENTITY: Update entity position (mode=1)
  3: 0x04FD [0x4B] UPDATE_ENTITY_YAW(entity=Unnamed NPC (ID: 17735832/0x010EA098), yaw=5.3°*)
  4: 0x0504 [0x1C] WAIT(60* ticks)
  5: 0x0507 [0x1F] MOVE_ENTITY: EventEntity moves to X=-604.353*, Z=586.292*, Y=0.138*
  6: 0x050F [0x1F] MOVE_ENTITY: Update entity position (mode=1)
  7: 0x0511 [0x4B] UPDATE_ENTITY_YAW(entity=Unnamed NPC (ID: 17735832/0x010EA098), yaw=0.2°*)
  8: 0x0518 [0x1C] WAIT(240* ticks)
  9: 0x051B [0x1F] MOVE_ENTITY: EventEntity moves to X=-600.328*, Z=582.410*, Y=0.802*
 10: 0x0523 [0x1F] MOVE_ENTITY: Update entity position (mode=1)
 11: 0x0525 [0x1C] WAIT(30* ticks)
 12: 0x0528 [0x4B] UPDATE_ENTITY_YAW(entity=Unnamed NPC (ID: 17735832/0x010EA098), yaw=16.6°*)
 13: 0x052F [0x1C] WAIT(60* ticks)
 14: 0x0532 [0x00] END_REQSTACK()
```
