# Event 65535

## Metadata

| Field           | Value    |
|-----------------|----------|
| Event Index     | 39/41    |
| Offset          | 0x0541   |
| Data Size       | 51 bytes |
| Calculated Size | 51 bytes |
| Instructions    | 11       |

```
      00 01 02 03 04 05 06 07  08 09 0A 0B 0C 0D 0E 0F
      -- -- -- -- -- -- -- --  -- -- -- -- -- -- -- --
0540:    32 8A 80 1F 00 9B 80  9C 80 9D 80 1F 01 1F 00   2..............
0550: 9E 80 9F 80 A0 80 1F 01  1F 00 A1 80 A2 80 A3 80  ................
0560: 1F 01 1E 97 A0 0E 01 1C  83 80 4A 97 A0 0E 01 98  ..........J.....
0570: A0 0E 01 00                                       ....            
```

## Opcodes

```
  0: 0x0541 [0x32] ExtData[1]->MainSpeed = 45* * 0.1
  1: 0x0544 [0x1F] MOVE_ENTITY: EventEntity moves to X=-604.257*, Z=586.573*, Y=0.057*
  2: 0x054C [0x1F] MOVE_ENTITY: Update entity position (mode=1)
  3: 0x054E [0x1F] MOVE_ENTITY: EventEntity moves to X=-603.318*, Z=588.527*, Y=0.196*
  4: 0x0556 [0x1F] MOVE_ENTITY: Update entity position (mode=1)
  5: 0x0558 [0x1F] MOVE_ENTITY: EventEntity moves to X=-601.495*, Z=586.040*, Y=0.496*
  6: 0x0560 [0x1F] MOVE_ENTITY: Update entity position (mode=1)
  7: 0x0562 [0x1E] EventEntity looks at Unnamed NPC (ID: 17735831/0x010EA097) and starts talking
  8: 0x0567 [0x1C] WAIT(30* ticks)
  9: 0x056A [0x4A] Unnamed NPC (ID: 17735831/0x010EA097) looks at Unnamed NPC (ID: 17735832/0x010EA098)
 10: 0x0573 [0x00] END_REQSTACK()
```
