# Event 65535

## Metadata

| Field           | Value    |
|-----------------|----------|
| Event Index     | 5/5      |
| Offset          | 0x0144   |
| Data Size       | 61 bytes |
| Calculated Size | 61 bytes |
| Instructions    | 13       |

```
      00 01 02 03 04 05 06 07  08 09 0A 0B 0C 0D 0E 0F
      -- -- -- -- -- -- -- --  -- -- -- -- -- -- -- --
0140:             42 43 00 43  01 38 0F 80 4C 1C 10 80      BC.C.8..L...
0150: 45 02 80 F0 FF FF 7F F0  FF FF 7F 66 64 6F 31 03  E..........fdo1.
0160: 80 1C 04 80 29 03 F0 FF  FF 7F 0E 45 02 80 F0 FF  ....)......E....
0170: FF 7F F0 FF FF 7F 66 64  69 31 03 80 4D 1C 04 80  ......fdi1..M...
0180: 00                                                .               
```

## Opcodes

```
  0: 0x0144 [0x42] SET_CLI_EVENT_CANCEL_DATA()
  1: 0x0145 [0x43] SEND_EVENT_UPDATE: Send pending tag to server (packet 0x005B)
  2: 0x0147 [0x43] SEND_EVENT_UPDATE: Check pending flag (skip if not pending)
  3: 0x0149 [0x38] SET_CLIENT_EVENT_MODE(mode=4*)
  4: 0x014C [0x4C] EventEntity->StatusEvent = 8 // Open door
  5: 0x014D [0x1C] WAIT(40* ticks)
  6: 0x0150 [0x45] LOAD_SCHEDULED_TASK(work_offset1=200*, entity1=LocalPlayer, entity2=LocalPlayer, scheduler_id="fdo1", work_offset2=0*)
  7: 0x0161 [0x1C] WAIT(60* ticks)
  8: 0x0164 [0x29] REQ_SET_WAIT(priority=0x03, entity_id=LocalPlayer, tag_num=0x0E)
  9: 0x016B [0x45] LOAD_SCHEDULED_TASK(work_offset1=200*, entity1=LocalPlayer, entity2=LocalPlayer, scheduler_id="fdi1", work_offset2=0*)
 10: 0x017C [0x4D] EventEntity->StatusEvent = 9 // Close door
 11: 0x017D [0x1C] WAIT(60* ticks)
 12: 0x0180 [0x00] END_REQSTACK()
```
