# 16801918

## Common Data

| Field            | Value                     |
|------------------|---------------------------|
| Zone             | Bearclaw Pinnacle (ID: 6) |
| Block Size       | 72 bytes                  |
| Total Events     | 2                         |
| References Count | 4                         |

## List of Events

| Event ID              | Entrypoint   |   Size |   Instructions |
|-----------------------|--------------|--------|----------------|
| [65535](#event-65535) | 0x0000       |      1 |              1 |
| [32001](#event-32001) | 0x0001       |     28 |              5 |

## DAT References (imed_data)

|   Index | Hex Value   |   Dec Value |
|---------|-------------|-------------|
|       0 | 0xFFF8F11D  |  4294504733 |
|       1 | 0xFFFCF282  |  4294767234 |
|       2 | 0x02EE      |         750 |
|       3 | 0x0377      |         887 |

## Events

### Event 65535

#### Metadata

| Field        | Value   |
|--------------|---------|
| Entrypoint   | 0x0000  |
| Data Size    | 1 bytes |
| Instructions | 1       |

```
      00 01 02 03 04 05 06 07  08 09 0A 0B 0C 0D 0E 0F
      -- -- -- -- -- -- -- --  -- -- -- -- -- -- -- --
0000: 00                                                .               
```

#### Opcodes

```
  0: 0x0000 [0x00] END_REQSTACK()
```

### Event 32001

#### Metadata

| Field        | Value    |
|--------------|----------|
| Entrypoint   | 0x0001   |
| Data Size    | 28 bytes |
| Instructions | 5        |

```
      00 01 02 03 04 05 06 07  08 09 0A 0B 0C 0D 0E 0F
      -- -- -- -- -- -- -- --  -- -- -- -- -- -- -- --
0000:    92 01 F8 FF FF 7F 94  01 F8 FF FF 7F 92 01 F8   ...............
0010: FF FF 7F 37 00 80 01 80  02 80 03 80 00           ...7.........   
```

#### Opcodes

```
  0: 0x0001 [0x92] EventEntity->Render.Flags3 ^= 0x01
  1: 0x0007 [0x94] EventEntity->Render.Flags3 ^= 0x01
  2: 0x000D [0x92] EventEntity->Render.Flags3 ^= 0x01
  3: 0x0013 [0x37] UPDATE_EVENT_POSITION_AND_DIR: x=-462.563*, z=-200.062*, y=0.750*, direction=78.0°*
  4: 0x001C [0x00] END_REQSTACK()
```
