# 16801909

## Common Data

| Field            | Value                     |
|------------------|---------------------------|
| Zone             | Bearclaw Pinnacle (ID: 6) |
| Block Size       | 7032 bytes                |
| Total Events     | 7                         |
| References Count | 103                       |

## List of Events

| Event ID                 | Entrypoint   |   Size |   Instructions |
|--------------------------|--------------|--------|----------------|
| [65535](#event-65535)    | 0x0000       |      1 |              1 |
| [20](#event-20)          | 0x0001       |    325 |             45 |
| [65535.1](#event-655351) | 0x0146       |   2941 |            370 |
| [21](#event-21)          | 0x0CC3       |    129 |             24 |
| [65535.2](#event-655352) | 0x0D44       |   3163 |            369 |
| [32000](#event-32000)    | 0x199F       |      7 |              2 |
| [32001](#event-32001)    | 0x19A6       |      7 |              2 |

## DAT References (imed_data)

|   Index | Hex Value   |   Dec Value |
|---------|-------------|-------------|
|       0 | 0x00C8      |         200 |
|       1 | 0x0000      |           0 |
|       2 | 0x003C      |          60 |
|       3 | 0x0013      |          19 |
|       4 | 0x00AB      |         171 |
|       5 | 0x1DF0      |        7664 |
|       6 | 0x0014      |          20 |
|       7 | 0x1DF1      |        7665 |
|       8 | 0x00C9      |         201 |
|       9 | 0x0080      |         128 |
|      10 | 0x0001      |           1 |
|      11 | 0x001C      |          28 |
|      12 | 0xFFF50644  |  4294248004 |
|      13 | 0xFFF945AD  |  4294526381 |
|      14 | 0x1950      |        6480 |
|      15 | 0x09F0      |        2544 |
|      16 | 0x001E      |          30 |
|      17 | 0x0064      |         100 |
|      18 | 0x1DCD      |        7629 |
|      19 | 0x1DCE      |        7630 |
|      20 | 0x1DCF      |        7631 |
|      21 | 0x1DD0      |        7632 |
|      22 | 0x004E      |          78 |
|      23 | 0x000A      |          10 |
|      24 | 0x0078      |         120 |
|      25 | 0x0050      |          80 |
|      26 | 0x1DD1      |        7633 |
|      27 | 0x0006      |           6 |
|      28 | 0x0005      |           5 |
|      29 | 0x1DD2      |        7634 |
|      30 | 0x1DD3      |        7635 |
|      31 | 0x0003      |           3 |
|      32 | 0x0008      |           8 |
|      33 | 0x1DD4      |        7636 |
|      34 | 0x1DD5      |        7637 |
|      35 | 0x1DD6      |        7638 |
|      36 | 0x1DD7      |        7639 |
|      37 | 0x1DD8      |        7640 |
|      38 | 0x1DD9      |        7641 |
|      39 | 0x042A      |        1066 |
|      40 | 0x1DDA      |        7642 |
|      41 | 0x1DDB      |        7643 |
|      42 | 0x1DDC      |        7644 |
|      43 | 0x1DDD      |        7645 |
|      44 | 0x1DDE      |        7646 |
|      45 | 0x1DDF      |        7647 |
|      46 | 0x1DE0      |        7648 |
|      47 | 0x1DE1      |        7649 |
|      48 | 0x1DE2      |        7650 |
|      49 | 0x1DE3      |        7651 |
|      50 | 0x0708      |        1800 |
|      51 | 0x1DE4      |        7652 |
|      52 | 0x1DE5      |        7653 |
|      53 | 0xFFF8F32D  |  4294505261 |
|      54 | 0xFFFC3CC9  |  4294720713 |
|      55 | 0x0218      |         536 |
|      56 | 0x0F72      |        3954 |
|      57 | 0x1DE6      |        7654 |
|      58 | 0x1DE7      |        7655 |
|      59 | 0x1DE8      |        7656 |
|      60 | 0x1DE9      |        7657 |
|      61 | 0x1DEA      |        7658 |
|      62 | 0x1DEB      |        7659 |
|      63 | 0x1DEC      |        7660 |
|      64 | 0x1DED      |        7661 |
|      65 | 0x1DEE      |        7662 |
|      66 | 0x0032      |          50 |
|      67 | 0x1DEF      |        7663 |
|      68 | 0x005A      |          90 |
|      69 | 0xFFF8F11D  |  4294504733 |
|      70 | 0xFFFCF282  |  4294767234 |
|      71 | 0x02EE      |         750 |
|      72 | 0x0377      |         887 |
|      73 | 0x0043      |          67 |
|      74 | 0x00AE      |         174 |
|      75 | 0x0028      |          40 |
|      76 | 0x1DF3      |        7667 |
|      77 | 0x1DF4      |        7668 |
|      78 | 0x1DF5      |        7669 |
|      79 | 0x1DF6      |        7670 |
|      80 | 0x1DF7      |        7671 |
|      81 | 0x1DF8      |        7672 |
|      82 | 0x1DF9      |        7673 |
|      83 | 0x0067      |         103 |
|      84 | 0x003D      |          61 |
|      85 | 0x009C      |         156 |
|      86 | 0x0063      |          99 |
|      87 | 0x1DFA      |        7674 |
|      88 | 0x00D2      |         210 |
|      89 | 0x00DC      |         220 |
|      90 | 0x1DFB      |        7675 |
|      91 | 0x1DFC      |        7676 |
|      92 | 0x1DFD      |        7677 |
|      93 | 0x1DFE      |        7678 |
|      94 | 0x0099      |         153 |
|      95 | 0x1DFF      |        7679 |
|      96 | 0x1E00      |        7680 |
|      97 | 0x1E01      |        7681 |
|      98 | 0x1E02      |        7682 |
|      99 | 0x004D      |          77 |
|     100 | 0x0400      |        1024 |
|     101 | 0x1E03      |        7683 |
|     102 | 0x1E04      |        7684 |

## String References

- **7629**: A magical barrier prevents you from moving any closer.
- **7663**: Prishe!

## Events

### Event 65535

#### Metadata

| Field        | Value   |
|--------------|---------|
| Entrypoint   | 0x0000  |
| Data Size    | 1 bytes |
| Instructions | 1       |

```
      00 01 02 03 04 05 06 07  08 09 0A 0B 0C 0D 0E 0F
      -- -- -- -- -- -- -- --  -- -- -- -- -- -- -- --
0000: 00                                                .               
```

#### Opcodes

```
  0: 0x0000 [0x00] END_REQSTACK()
```

### Event 20

#### Metadata

| Field        | Value     |
|--------------|-----------|
| Entrypoint   | 0x0001    |
| Data Size    | 325 bytes |
| Instructions | 45        |

```
      00 01 02 03 04 05 06 07  08 09 0A 0B 0C 0D 0E 0F
      -- -- -- -- -- -- -- --  -- -- -- -- -- -- -- --
0000:    20 01 42 46 01 45 00  80 F8 FF FF 7F F8 FF FF    .BF.E.........
0010: 7F 66 64 6F 31 01 80 1C  02 80 38 03 80 29 08 F0  .fdo1.....8..)..
0020: FF FF 7F 09 4E 00 78 60  00 01 4E 00 7F 60 00 01  ....N.x`..N..`..
0030: 4E 00 76 60 00 01 80 78  60 00 01 80 7F 60 00 01  N.v`...x`....`..
0040: 80 76 60 00 01 4E 01 7F  60 00 01 29 0B 78 60 00  .v`..N..`..).x`.
0050: 01 43 29 0B 7F 60 00 01  3F 27 0B 78 60 00 01 44  .C)..`..?'.x`..D
0060: 27 0B 7F 60 00 01 40 45  00 80 F0 FF FF 7F F0 FF  '..`..@E........
0070: FF 7F 62 6C 6F 66 01 80  45 04 80 F8 FF FF 7F F8  ..blof..E.......
0080: FF FF 7F 73 30 34 35 01  80 45 00 80 F8 FF FF 7F  ...s045..E......
0090: F8 FF FF 7F 66 64 69 31  01 80 2B 78 60 00 01 05  ....fdi1..+x`...
00A0: 80 23 2A 0B 78 60 00 01  2A 0B 7F 60 00 01 27 0B  .#*.x`..*..`..'.
00B0: 78 60 00 01 45 52 04 80  F8 FF FF 7F F8 FF FF 7F  x`..ER..........
00C0: 73 30 34 35 45 04 80 F8  FF FF 7F F8 FF FF 7F 73  s045E..........s
00D0: 30 36 39 01 80 1C 06 80  27 0B 78 60 00 01 45 2B  069.....'.x`..E+
00E0: 78 60 00 01 07 80 23 1C  06 80 45 08 80 F0 FF FF  x`....#...E.....
00F0: 7F F0 FF FF 7F 77 68 6F  31 01 80 1C 02 80 2A 0B  .....who1.....*.
0100: 78 60 00 01 45 04 80 F8  FF FF 7F F8 FF FF 7F 30  x`..E..........0
0110: 62 6C 66 01 80 52 04 80  F8 FF FF 7F F8 FF FF 7F  blf..R..........
0120: 73 30 34 37 4E 00 F0 FF  FF 7F 80 F0 FF FF 7F 46  s047N..........F
0130: 00 45 08 80 F0 FF FF 7F  F0 FF FF 7F 77 68 69 31  .E..........whi1
0140: 01 80 20 00 21 00                                 .. .!.          
```

#### Opcodes

```
  0: 0x0001 [0x20] SET_CLI_EVENT_UC_FLAG: Lock player control
  1: 0x0003 [0x42] SET_CLI_EVENT_CANCEL_DATA()
  2: 0x0004 [0x46] CAMERA_CONTROL: Disable user control
  3: 0x0006 [0x45] LOAD_SCHEDULED_TASK: Load scheduler "fdo1" with entities [EventEntity, EventEntity], work=[200*, 0*]
  4: 0x0017 [0x1C] WAIT(60* ticks)
  5: 0x001A [0x38] SET_CLIENT_EVENT_MODE(mode=19*)
  6: 0x001D [0x29] REQ_SET_WAIT(priority=0x08, entity_id=LocalPlayer, tag_num=0x09)
  7: 0x0024 [0x4E] SET_ENTITY_HIDE_FLAG: Show Louverance (ID: 16801912/0x01006078)
  8: 0x002A [0x4E] SET_ENTITY_HIDE_FLAG: Show Louverance2 (ID: 16801919/0x0100607F)
  9: 0x0030 [0x4E] SET_ENTITY_HIDE_FLAG: Show Prishe (ID: 16801910/0x01006076)
 10: 0x0036 [0x80] LOAD_WAIT(entity=Louverance (ID: 16801912/0x01006078))
 11: 0x003B [0x80] LOAD_WAIT(entity=Louverance2 (ID: 16801919/0x0100607F))
 12: 0x0040 [0x80] LOAD_WAIT(entity=Prishe (ID: 16801910/0x01006076))
 13: 0x0045 [0x4E] SET_ENTITY_HIDE_FLAG: Hide Louverance2 (ID: 16801919/0x0100607F)
 14: 0x004B [0x29] REQ_SET_WAIT(priority=0x0B, entity_id=Louverance (ID: 16801912/0x01006078), tag_num=0x43)
 15: 0x0052 [0x29] REQ_SET_WAIT(priority=0x0B, entity_id=Louverance2 (ID: 16801919/0x0100607F), tag_num=0x3F)
 16: 0x0059 [0x27] REQ_SET(priority=0x0B, entity_id=Louverance (ID: 16801912/0x01006078), tag_num=0x44)
 17: 0x0060 [0x27] REQ_SET(priority=0x0B, entity_id=Louverance2 (ID: 16801919/0x0100607F), tag_num=0x40)
 18: 0x0067 [0x45] LOAD_SCHEDULED_TASK: Load scheduler "blof" with entities [LocalPlayer, LocalPlayer], work=[200*, 0*]
 19: 0x0078 [0x45] LOAD_SCHEDULED_TASK: Load scheduler "s045" with entities [EventEntity, EventEntity], work=[171*, 0*]
 20: 0x0089 [0x45] LOAD_SCHEDULED_TASK: Load scheduler "fdi1" with entities [EventEntity, EventEntity], work=[200*, 0*]
 21: 0x009A [0x2B] Louverance (ID: 16801912/0x01006078) [7664*]:
    → "Wait! Be on your guard! There is something strange afoot!"
 22: 0x00A1 [0x23] WAIT_FOR_DIALOG_INTERACTION
 23: 0x00A2 [0x2A] GET_REQ_LEVEL(level=11, entity_id=Louverance (ID: 16801912/0x01006078))
 24: 0x00A8 [0x2A] GET_REQ_LEVEL(level=11, entity_id=Louverance2 (ID: 16801919/0x0100607F))
 25: 0x00AE [0x27] REQ_SET(priority=0x0B, entity_id=Louverance (ID: 16801912/0x01006078), tag_num=0x45)
 26: 0x00B5 [0x52] END_LOAD_SCHEDULER: End scheduler "s045" with entities [EventEntity, EventEntity], work=171*
 27: 0x00C4 [0x45] LOAD_SCHEDULED_TASK: Load scheduler "s069" with entities [EventEntity, EventEntity], work=[171*, 0*]
 28: 0x00D5 [0x1C] WAIT(20* ticks)
 29: 0x00D8 [0x27] REQ_SET(priority=0x0B, entity_id=Louverance (ID: 16801912/0x01006078), tag_num=0x45)
 30: 0x00DF [0x2B] Louverance (ID: 16801912/0x01006078) [7665*]:
    → "Back to the abyss, foul beast!"
 31: 0x00E6 [0x23] WAIT_FOR_DIALOG_INTERACTION
 32: 0x00E7 [0x1C] WAIT(20* ticks)
 33: 0x00EA [0x45] LOAD_SCHEDULED_TASK: Load scheduler "who1" with entities [LocalPlayer, LocalPlayer], work=[201*, 0*]
 34: 0x00FB [0x1C] WAIT(60* ticks)
 35: 0x00FE [0x2A] GET_REQ_LEVEL(level=11, entity_id=Louverance (ID: 16801912/0x01006078))
 36: 0x0104 [0x45] LOAD_SCHEDULED_TASK: Load scheduler "0blf" with entities [EventEntity, EventEntity], work=[171*, 0*]
 37: 0x0115 [0x52] END_LOAD_SCHEDULER: End scheduler "s047" with entities [EventEntity, EventEntity], work=171*
 38: 0x0124 [0x4E] SET_ENTITY_HIDE_FLAG: Show LocalPlayer
 39: 0x012A [0x80] LOAD_WAIT(entity=LocalPlayer)
 40: 0x012F [0x46] CAMERA_CONTROL: Restore default settings
 41: 0x0131 [0x45] LOAD_SCHEDULED_TASK: Load scheduler "whi1" with entities [LocalPlayer, LocalPlayer], work=[201*, 0*]
 42: 0x0142 [0x20] SET_CLI_EVENT_UC_FLAG: Unlock player control
 43: 0x0144 [0x21] END_EVENT
 44: 0x0145 [0x00] END_REQSTACK()
```

### Event 65535.1

#### Metadata

| Field        | Value      |
|--------------|------------|
| Entrypoint   | 0x0146     |
| Data Size    | 2941 bytes |
| Instructions | 370        |

```
      00 01 02 03 04 05 06 07  08 09 0A 0B 0C 0D 0E 0F
      -- -- -- -- -- -- -- --  -- -- -- -- -- -- -- --
0140:                   29 08  F0 FF FF 7F 09 4E 01 78        )......N.x
0150: 60 00 01 29 0B F0 FF FF  7F 0C 4E 00 76 60 00 01  `..)......N.v`..
0160: 4E 00 F0 FF FF 7F 4E 00  75 60 00 01 80 76 60 00  N.....N.u`...v`.
0170: 01 80 F0 FF FF 7F 80 75  60 00 01 6C F0 FF FF 7F  .......u`..l....
0180: 09 80 0A 80 6C 75 60 00  01 09 80 0A 80 29 0B 76  ....lu`......).v
0190: 60 00 01 8F 62 0B 80 75  60 00 01 75 60 00 01 71  `...b..u`..u`..q
01A0: 68 73 74 01 80 33 01 37  0C 80 0D 80 0E 80 0F 80  hst..3.7........
01B0: 1C 10 80 62 0B 80 75 60  00 01 75 60 00 01 6D 61  ...b..u`..u`..ma
01C0: 69 6E 01 80 1C 11 80 45  04 80 F8 FF FF 7F F8 FF  in.....E........
01D0: FF 7F 73 30 31 39 01 80  45 00 80 F8 FF FF 7F F8  ..s019..E.......
01E0: FF FF 7F 66 64 69 31 01  80 7B F0 FF FF 7F 48 12  ...fdi1..{....H.
01F0: 80 23 1C 11 80 27 0B F0  FF FF 7F 0D 1C 06 80 52  .#...'.........R
0200: 04 80 F8 FF FF 7F F8 FF  FF 7F 73 30 31 39 45 04  ..........s019E.
0210: 80 F8 FF FF 7F F8 FF FF  7F 73 30 32 30 01 80 27  .........s020..'
0220: 08 76 60 00 01 90 79 00  F0 FF FF 7F 76 60 00 01  .v`...y.....v`..
0230: 2B 76 60 00 01 13 80 23  2A 08 76 60 00 01 52 04  +v`....#*.v`..R.
0240: 80 F8 FF FF 7F F8 FF FF  7F 73 30 32 30 45 04 80  .........s020E..
0250: F8 FF FF 7F F8 FF FF 7F  73 30 32 31 01 80 29 08  ........s021..).
0260: 76 60 00 01 27 2B 76 60  00 01 14 80 23 29 08 76  v`..'+v`....#).v
0270: 60 00 01 28 45 04 80 F8  FF FF 7F F8 FF FF 7F 73  `..(E..........s
0280: 30 32 33 01 80 29 08 76  60 00 01 2B 4A F0 FF FF  023..).v`..+J...
0290: 7F 75 60 00 01 2B 76 60  00 01 15 80 23 29 08 76  .u`..+v`....#).v
02A0: 60 00 01 2C 45 08 80 F0  FF FF 7F F0 FF FF 7F 77  `..,E..........w
02B0: 68 6F 31 01 80 1C 02 80  52 04 80 F8 FF FF 7F F8  ho1.....R.......
02C0: FF FF 7F 73 30 32 33 7B  F0 FF FF 7F 7B 76 60 00  ...s023{....{v`.
02D0: 01 62 0B 80 75 60 00 01  75 60 00 01 71 68 73 74  .b..u`..u`..qhst
02E0: 01 80 9F 16 80 F8 FF FF  7F F8 FF FF 7F 6D 61 69  .............mai
02F0: 6E 01 80 1C 00 80 29 0B  76 60 00 01 92 29 0B F0  n.....).v`...)..
0300: FF FF 7F 0F 29 0B 78 60  00 01 3F 29 0B 77 60 00  ....).x`..?).w`.
0310: 01 43 29 0B 79 60 00 01  30 29 0B 7A 60 00 01 30  .C).y`..0).z`..0
0320: 29 0B 7B 60 00 01 30 4E  01 79 60 00 01 4E 01 7A  ).{`..0N.y`..N.z
0330: 60 00 01 4E 01 7B 60 00  01 4E 01 77 60 00 01 4E  `..N.{`..N.w`..N
0340: 00 76 60 00 01 80 76 60  00 01 27 0B 76 60 00 01  .v`...v`..'.v`..
0350: 93 27 0B F0 FF FF 7F 10  1C 17 80 45 04 80 F8 FF  .'.........E....
0360: FF 7F F8 FF FF 7F 73 30  32 34 01 80 45 08 80 F0  ......s024..E...
0370: FF FF 7F F0 FF FF 7F 77  68 69 31 01 80 1C 18 80  .......whi1.....
0380: 52 04 80 F8 FF FF 7F F8  FF FF 7F 73 30 32 34 45  R..........s024E
0390: 04 80 F8 FF FF 7F F8 FF  FF 7F 73 30 32 35 01 80  ..........s025..
03A0: 29 08 76 60 00 01 94 1C  19 80 52 04 80 F8 FF FF  ).v`......R.....
03B0: 7F F8 FF FF 7F 73 30 32  35 45 00 80 F0 FF FF 7F  .....s025E......
03C0: F0 FF FF 7F 6F 76 6C 31  01 80 45 04 80 F8 FF FF  ....ovl1..E.....
03D0: 7F F8 FF FF 7F 73 30 32  36 01 80 2A 0B 76 60 00  .....s026..*.v`.
03E0: 01 2B 76 60 00 01 1A 80  23 2A 0B F0 FF FF 7F 29  .+v`....#*.....)
03F0: 08 76 60 00 01 18 29 0B  F0 FF FF 7F 11 27 0B F0  .v`...)......'..
0400: FF FF 7F 12 1C 1B 80 52  04 80 F8 FF FF 7F F8 FF  .......R........
0410: FF 7F 73 30 32 36 02 09  10 1C 80 00 32 04 45 04  ..s026......2.E.
0420: 80 F8 FF FF 7F F8 FF FF  7F 73 30 35 39 01 80 01  .........s059...
0430: 5F 04 02 09 10 1B 80 00  4E 04 45 04 80 F8 FF FF  _.......N.E.....
0440: 7F F8 FF FF 7F 73 30 35  39 01 80 01 5F 04 45 04  .....s059..._.E.
0450: 80 F8 FF FF 7F F8 FF FF  7F 73 30 32 37 01 80 2B  .........s027..+
0460: 76 60 00 01 1D 80 23 29  08 76 60 00 01 19 2B 76  v`....#).v`...+v
0470: 60 00 01 1E 80 23 29 08  76 60 00 01 1A 02 09 10  `....#).v`......
0480: 1C 80 00 97 04 52 04 80  F8 FF FF 7F F8 FF FF 7F  .....R..........
0490: 73 30 35 39 01 C0 04 02  09 10 1B 80 00 B1 04 52  s059...........R
04A0: 04 80 F8 FF FF 7F F8 FF  FF 7F 73 30 35 39 01 C0  ..........s059..
04B0: 04 52 04 80 F8 FF FF 7F  F8 FF FF 7F 73 30 32 37  .R..........s027
04C0: 02 09 10 1F 80 00 DC 04  45 04 80 F8 FF FF 7F F8  ........E.......
04D0: FF FF 7F 73 30 35 38 01  80 01 41 05 02 09 10 1C  ...s058...A.....
04E0: 80 00 F8 04 45 04 80 F8  FF FF 7F F8 FF FF 7F 73  ....E..........s
04F0: 30 36 30 01 80 01 41 05  02 09 10 1B 80 00 14 05  060...A.........
0500: 45 04 80 F8 FF FF 7F F8  FF FF 7F 73 30 36 30 01  E..........s060.
0510: 80 01 41 05 02 09 10 20  80 00 30 05 45 04 80 F8  ..A.... ..0.E...
0520: FF FF 7F F8 FF FF 7F 73  30 35 38 01 80 01 41 05  .......s058...A.
0530: 45 04 80 F8 FF FF 7F F8  FF FF 7F 73 30 32 38 01  E..........s028.
0540: 80 4A 76 60 00 01 F0 FF  FF 7F 6F 76 76 60 00 01  .Jv`......ovv`..
0550: 29 08 76 60 00 01 0B 2B  76 60 00 01 21 80 23 2B  ).v`...+v`..!.#+
0560: 76 60 00 01 22 80 23 29  08 76 60 00 01 0C 29 08  v`..".#).v`...).
0570: 76 60 00 01 0D 29 08 76  60 00 01 0E 02 09 10 1F  v`...).v`.......
0580: 80 00 96 05 52 04 80 F8  FF FF 7F F8 FF FF 7F 73  ....R..........s
0590: 30 35 38 01 F3 05 02 09  10 1C 80 00 B0 05 52 04  058...........R.
05A0: 80 F8 FF FF 7F F8 FF FF  7F 73 30 36 30 01 F3 05  .........s060...
05B0: 02 09 10 1B 80 00 CA 05  52 04 80 F8 FF FF 7F F8  ........R.......
05C0: FF FF 7F 73 30 36 30 01  F3 05 02 09 10 20 80 00  ...s060...... ..
05D0: E4 05 52 04 80 F8 FF FF  7F F8 FF FF 7F 73 30 35  ..R..........s05
05E0: 38 01 F3 05 52 04 80 F8  FF FF 7F F8 FF FF 7F 73  8...R..........s
05F0: 30 32 38 45 04 80 F8 FF  FF 7F F8 FF FF 7F 73 30  028E..........s0
0600: 32 39 01 80 4A F0 FF FF  7F 76 60 00 01 27 0B 76  29..J....v`..'.v
0610: 60 00 01 95 2B 76 60 00  01 23 80 23 2A 0B 76 60  `...+v`..#.#*.v`
0620: 00 01 6F 76 76 60 00 01  7B 76 60 00 01 29 08 76  ..ovv`..{v`..).v
0630: 60 00 01 23 2B 76 60 00  01 24 80 23 29 08 76 60  `..#+v`..$.#).v`
0640: 00 01 24 29 08 76 60 00  01 33 52 04 80 F8 FF FF  ..$).v`..3R.....
0650: 7F F8 FF FF 7F 73 30 32  39 45 04 80 F8 FF FF 7F  .....s029E......
0660: F8 FF FF 7F 73 30 33 30  01 80 2B 76 60 00 01 25  ....s030..+v`..%
0670: 80 23 2B 76 60 00 01 26  80 23 29 08 76 60 00 01  .#+v`..&.#).v`..
0680: 34 29 08 76 60 00 01 31  52 04 80 F8 FF FF 7F F8  4).v`..1R.......
0690: FF FF 7F 73 30 33 30 45  04 80 F8 FF FF 7F F8 FF  ...s030E........
06A0: FF 7F 73 30 33 31 01 80  4E 00 78 60 00 01 29 0B  ..s031..N.x`..).
06B0: F0 FF FF 7F 13 29 08 76  60 00 01 32 4B 76 60 00  .....).v`..2Kv`.
06C0: 01 27 80 6F 76 76 60 00  01 29 08 76 60 00 01 27  .'.ovv`..).v`..'
06D0: 2B 76 60 00 01 28 80 23  29 08 76 60 00 01 28 29  +v`..(.#).v`..()
06E0: 08 76 60 00 01 29 2B 76  60 00 01 29 80 23 29 08  .v`..)+v`..).#).
06F0: 76 60 00 01 2A 80 78 60  00 01 52 04 80 F8 FF FF  v`..*.x`..R.....
0700: 7F F8 FF FF 7F 73 30 33  31 45 04 80 F8 FF FF 7F  .....s031E......
0710: F8 FF FF 7F 73 30 33 32  01 80 79 00 76 60 00 01  ....s032..y.v`..
0720: 78 60 00 01 79 00 78 60  00 01 76 60 00 01 4A F0  x`..y.x`..v`..J.
0730: FF FF 7F 78 60 00 01 29  08 76 60 00 01 62 27 0B  ...x`..).v`..b'.
0740: 78 60 00 01 40 2B 78 60  00 01 2A 80 23 2A 0B 78  x`..@+x`..*.#*.x
0750: 60 00 01 2B 76 60 00 01  2B 80 23 29 08 76 60 00  `..+v`..+.#).v`.
0760: 01 63 27 0B 78 60 00 01  41 52 04 80 F8 FF FF 7F  .c'.x`..AR......
0770: F8 FF FF 7F 73 30 33 32  45 04 80 F8 FF FF 7F F8  ....s032E.......
0780: FF FF 7F 73 30 33 33 01  80 29 0B F0 FF FF 7F 14  ...s033..)......
0790: 29 08 76 60 00 01 64 2B  78 60 00 01 2C 80 23 2A  ).v`..d+x`..,.#*
07A0: 0B 78 60 00 01 2B 78 60  00 01 2D 80 23 29 08 76  .x`..+x`..-.#).v
07B0: 60 00 01 65 52 04 80 F8  FF FF 7F F8 FF FF 7F 73  `..eR..........s
07C0: 30 33 33 45 04 80 F8 FF  FF 7F F8 FF FF 7F 73 30  033E..........s0
07D0: 33 35 01 80 79 00 F0 FF  FF 7F 76 60 00 01 27 0B  35..y.....v`..'.
07E0: 76 60 00 01 96 2B 76 60  00 01 2E 80 23 2A 0B 76  v`...+v`....#*.v
07F0: 60 00 01 7B 76 60 00 01  4A 78 60 00 01 76 60 00  `..{v`..Jx`..v`.
0800: 01 29 08 76 60 00 01 3D  2B 76 60 00 01 2F 80 23  .).v`..=+v`../.#
0810: 6F 76 78 60 00 01 29 08  78 60 00 01 22 52 04 80  ovx`..).x`.."R..
0820: F8 FF FF 7F F8 FF FF 7F  73 30 33 35 45 04 80 F8  ........s035E...
0830: FF FF 7F F8 FF FF 7F 73  30 33 36 01 80 7B 78 60  .......s036..{x`
0840: 00 01 29 08 76 60 00 01  3E 29 08 76 60 00 01 3F  ..).v`..>).v`..?
0850: 2B 78 60 00 01 30 80 23  29 08 76 60 00 01 40 52  +x`..0.#).v`..@R
0860: 04 80 F8 FF FF 7F F8 FF  FF 7F 73 30 33 36 45 04  ..........s036E.
0870: 80 F8 FF FF 7F F8 FF FF  7F 73 30 33 37 01 80 79  .........s037..y
0880: 00 78 60 00 01 76 60 00  01 27 08 78 60 00 01 3A  .x`..v`..'.x`..:
0890: 2B 76 60 00 01 31 80 23  2A 08 78 60 00 01 52 04  +v`..1.#*.x`..R.
08A0: 80 F8 FF FF 7F F8 FF FF  7F 73 30 33 37 45 00 80  .........s037E..
08B0: F0 FF FF 7F F0 FF FF 7F  6F 76 6C 31 01 80 02 09  ........ovl1....
08C0: 10 1C 80 00 DA 08 45 04  80 F8 FF FF 7F F8 FF FF  ......E.........
08D0: 7F 73 30 36 31 01 80 01  07 09 02 09 10 1B 80 00  .s061...........
08E0: F6 08 45 04 80 F8 FF FF  7F F8 FF FF 7F 73 30 36  ..E..........s06
08F0: 31 01 80 01 07 09 45 04  80 F8 FF FF 7F F8 FF FF  1.....E.........
0900: 7F 73 30 34 33 01 80 4B  76 60 00 01 32 80 79 00  .s043..Kv`..2.y.
0910: F0 FF FF 7F 78 60 00 01  2B 78 60 00 01 33 80 23  ....x`..+x`..3.#
0920: 6F 76 76 60 00 01 02 09  10 1C 80 00 40 09 52 04  ovv`........@.R.
0930: 80 F8 FF FF 7F F8 FF FF  7F 73 30 36 31 01 69 09  .........s061.i.
0940: 02 09 10 1B 80 00 5A 09  52 04 80 F8 FF FF 7F F8  ......Z.R.......
0950: FF FF 7F 73 30 36 31 01  69 09 52 04 80 F8 FF FF  ...s061.i.R.....
0960: 7F F8 FF FF 7F 73 30 34  33 45 04 80 F8 FF FF 7F  .....s043E......
0970: F8 FF FF 7F 73 30 33 34  01 80 4E 01 F0 FF FF 7F  ....s034..N.....
0980: 27 0B 76 60 00 01 97 2B  76 60 00 01 34 80 23 2A  '.v`...+v`..4.#*
0990: 0B 76 60 00 01 37 35 80  36 80 37 80 38 80 79 00  .v`..75.6.7.8.y.
09A0: 76 60 00 01 75 60 00 01  29 08 76 60 00 01 27 2B  v`..u`..).v`..'+
09B0: 76 60 00 01 39 80 23 29  08 76 60 00 01 28 52 04  v`..9.#).v`..(R.
09C0: 80 F8 FF FF 7F F8 FF FF  7F 73 30 33 34 45 04 80  .........s034E..
09D0: F8 FF FF 7F F8 FF FF 7F  73 30 33 38 01 80 4E 00  ........s038..N.
09E0: F0 FF FF 7F 7B 76 60 00  01 29 08 76 60 00 01 29  ....{v`..).v`..)
09F0: 2B 76 60 00 01 3A 80 23  29 08 76 60 00 01 2A 2B  +v`..:.#).v`..*+
0A00: 76 60 00 01 3B 80 23 80  F0 FF FF 7F 52 04 80 F8  v`..;.#.....R...
0A10: FF FF 7F F8 FF FF 7F 73  30 33 38 45 04 80 F8 FF  .......s038E....
0A20: FF 7F F8 FF FF 7F 73 30  33 39 01 80 27 0B 78 60  ......s039..'.x`
0A30: 00 01 42 2B 78 60 00 01  3C 80 23 2A 0B 78 60 00  ..B+x`..<.#*.x`.
0A40: 01 2B 78 60 00 01 3D 80  23 52 04 80 F8 FF FF 7F  .+x`..=.#R......
0A50: F8 FF FF 7F 73 30 33 39  02 09 10 1C 80 00 74 0A  ....s039......t.
0A60: 45 04 80 F8 FF FF 7F F8  FF FF 7F 73 30 36 32 01  E..........s062.
0A70: 80 01 A1 0A 02 09 10 1B  80 00 90 0A 45 04 80 F8  ............E...
0A80: FF FF 7F F8 FF FF 7F 73  30 36 32 01 80 01 A1 0A  .......s062.....
0A90: 45 04 80 F8 FF FF 7F F8  FF FF 7F 73 30 34 30 01  E..........s040.
0AA0: 80 2B 78 60 00 01 3E 80  23 2B 78 60 00 01 3F 80  .+x`..>.#+x`..?.
0AB0: 23 02 09 10 1C 80 00 CB  0A 52 04 80 F8 FF FF 7F  #........R......
0AC0: F8 FF FF 7F 73 30 36 32  01 F4 0A 02 09 10 1B 80  ....s062........
0AD0: 00 E5 0A 52 04 80 F8 FF  FF 7F F8 FF FF 7F 73 30  ...R..........s0
0AE0: 36 32 01 F4 0A 52 04 80  F8 FF FF 7F F8 FF FF 7F  62...R..........
0AF0: 73 30 34 30 45 04 80 F8  FF FF 7F F8 FF FF 7F 73  s040E..........s
0B00: 30 34 31 01 80 79 00 F0  FF FF 7F 76 60 00 01 29  041..y.....v`..)
0B10: 08 76 60 00 01 1F 2B 76  60 00 01 40 80 23 29 08  .v`...+v`..@.#).
0B20: 76 60 00 01 20 29 08 76  60 00 01 21 2B 78 60 00  v`.. ).v`..!+x`.
0B30: 01 41 80 23 29 08 76 60  00 01 22 27 0B 76 60 00  .A.#).v`.."'.v`.
0B40: 01 98 1C 10 80 52 04 80  F8 FF FF 7F F8 FF FF 7F  .....R..........
0B50: 73 30 34 31 45 00 80 F0  FF FF 7F F0 FF FF 7F 6F  s041E..........o
0B60: 76 6C 31 01 80 45 04 80  F8 FF FF 7F F8 FF FF 7F  vl1..E..........
0B70: 73 30 34 34 01 80 4E 00  77 60 00 01 4E 00 79 60  s044..N.w`..N.y`
0B80: 00 01 4E 00 7A 60 00 01  4E 00 7B 60 00 01 1C 42  ..N.z`..N.{`...B
0B90: 80 1C 42 80 1D 43 80 23  80 77 60 00 01 80 79 60  ..B..C.#.w`...y`
0BA0: 00 01 80 7A 60 00 01 80  7B 60 00 01 27 0B 78 60  ...z`...{`..'.x`
0BB0: 00 01 44 27 0B 77 60 00  01 44 27 0B 79 60 00 01  ..D'.w`..D'.y`..
0BC0: 31 27 0B 7A 60 00 01 31  27 0B 7B 60 00 01 31 27  1'.z`..1'.{`..1'
0BD0: 0B F0 FF FF 7F 15 1C 06  80 52 04 80 F8 FF FF 7F  .........R......
0BE0: F8 FF FF 7F 73 30 34 34  45 04 80 F8 FF FF 7F F8  ....s044E.......
0BF0: FF FF 7F 73 30 34 32 01  80 4E 01 76 60 00 01 1C  ...s042..N.v`...
0C00: 44 80 52 04 80 F8 FF FF  7F F8 FF FF 7F 73 30 34  D.R..........s04
0C10: 32 45 04 80 F8 FF FF 7F  F8 FF FF 7F 73 30 34 35  2E..........s045
0C20: 01 80 45 00 80 F8 FF FF  7F F8 FF FF 7F 66 64 69  ..E..........fdi
0C30: 31 01 80 2B 78 60 00 01  05 80 23 2A 0B 78 60 00  1..+x`....#*.x`.
0C40: 01 27 0B 78 60 00 01 45  52 04 80 F8 FF FF 7F F8  .'.x`..ER.......
0C50: FF FF 7F 73 30 34 35 45  04 80 F8 FF FF 7F F8 FF  ...s045E........
0C60: FF 7F 73 30 36 39 01 80  1C 06 80 27 0B 78 60 00  ..s069.....'.x`.
0C70: 01 45 2B 78 60 00 01 07  80 23 1C 06 80 45 08 80  .E+x`....#...E..
0C80: F0 FF FF 7F F0 FF FF 7F  77 68 6F 31 01 80 1C 02  ........who1....
0C90: 80 2A 0B 78 60 00 01 45  04 80 F8 FF FF 7F F8 FF  .*.x`..E........
0CA0: FF 7F 30 62 6C 66 01 80  52 04 80 F8 FF FF 7F F8  ..0blf..R.......
0CB0: FF FF 7F 73 30 34 37 4E  00 F0 FF FF 7F 80 F0 FF  ...s047N........
0CC0: FF 7F 00                                          ...             
```

#### Opcodes

```
  0: 0x0146 [0x29] REQ_SET_WAIT(priority=0x08, entity_id=LocalPlayer, tag_num=0x09)
  1: 0x014D [0x4E] SET_ENTITY_HIDE_FLAG: Hide Louverance (ID: 16801912/0x01006078)
  2: 0x0153 [0x29] REQ_SET_WAIT(priority=0x0B, entity_id=LocalPlayer, tag_num=0x0C)
  3: 0x015A [0x4E] SET_ENTITY_HIDE_FLAG: Show Prishe (ID: 16801910/0x01006076)
  4: 0x0160 [0x4E] SET_ENTITY_HIDE_FLAG: Show LocalPlayer
  5: 0x0166 [0x4E] SET_ENTITY_HIDE_FLAG: Show ??? (ID: 16801909/0x01006075)
  6: 0x016C [0x80] LOAD_WAIT(entity=Prishe (ID: 16801910/0x01006076))
  7: 0x0171 [0x80] LOAD_WAIT(entity=LocalPlayer)
  8: 0x0176 [0x80] LOAD_WAIT(entity=??? (ID: 16801909/0x01006075))
  9: 0x017B [0x6C] FADE_ENTITY_COLOR(entity_id=LocalPlayer, end_alpha=128*, fade_time=1*)
 10: 0x0184 [0x6C] FADE_ENTITY_COLOR(entity_id=??? (ID: 16801909/0x01006075), end_alpha=128*, fade_time=1*)
 11: 0x018D [0x29] REQ_SET_WAIT(priority=0x0B, entity_id=Prishe (ID: 16801910/0x01006076), tag_num=0x8F)
 12: 0x0194 [0x62] LOAD_EVENT_SCHEDULER: Load scheduler "qhst" with entities [??? (ID: 16801909/0x01006075), ??? (ID: 16801909/0x01006075)], work=[28*, 0*]
 13: 0x01A5 [0x33] EventEntity->Render.Flags0 |= 0x200000 // Bit 21 (flag=0x01)
 14: 0x01A7 [0x37] UPDATE_EVENT_POSITION_AND_DIR: x=-719.292*, z=-440.915*, y=6.480*, direction=223.6°*
 15: 0x01B0 [0x1C] WAIT(30* ticks)
 16: 0x01B3 [0x62] LOAD_EVENT_SCHEDULER: Load scheduler "main" with entities [??? (ID: 16801909/0x01006075), ??? (ID: 16801909/0x01006075)], work=[28*, 0*]
 17: 0x01C4 [0x1C] WAIT(100* ticks)
 18: 0x01C7 [0x45] LOAD_SCHEDULED_TASK: Load scheduler "s019" with entities [EventEntity, EventEntity], work=[171*, 0*]
 19: 0x01D8 [0x45] LOAD_SCHEDULED_TASK: Load scheduler "fdi1" with entities [EventEntity, EventEntity], work=[200*, 0*]
 20: 0x01E9 [0x7B] LocalPlayer stops talking
 21: 0x01EE [0x48] [System] [7629*]:
    → "A magical barrier prevents you from moving any closer."
 22: 0x01F1 [0x23] WAIT_FOR_DIALOG_INTERACTION
 23: 0x01F2 [0x1C] WAIT(100* ticks)
 24: 0x01F5 [0x27] REQ_SET(priority=0x0B, entity_id=LocalPlayer, tag_num=0x0D)
 25: 0x01FC [0x1C] WAIT(20* ticks)
 26: 0x01FF [0x52] END_LOAD_SCHEDULER: End scheduler "s019" with entities [EventEntity, EventEntity], work=171*
 27: 0x020E [0x45] LOAD_SCHEDULED_TASK: Load scheduler "s020" with entities [EventEntity, EventEntity], work=[171*, 0*]
 28: 0x021F [0x27] REQ_SET(priority=0x08, entity_id=Prishe (ID: 16801910/0x01006076), tag_num=0x90)
 29: 0x0226 [0x79] LocalPlayer looks at Prishe (ID: 16801910/0x01006076) (Basic look)
 30: 0x0230 [0x2B] Prishe (ID: 16801910/0x01006076) [7630*]:
    → "You made it, <Player>."
 31: 0x0237 [0x23] WAIT_FOR_DIALOG_INTERACTION
 32: 0x0238 [0x2A] GET_REQ_LEVEL(level=8, entity_id=Prishe (ID: 16801910/0x01006076))
 33: 0x023E [0x52] END_LOAD_SCHEDULER: End scheduler "s020" with entities [EventEntity, EventEntity], work=171*
 34: 0x024D [0x45] LOAD_SCHEDULED_TASK: Load scheduler "s021" with entities [EventEntity, EventEntity], work=[171*, 0*]
 35: 0x025E [0x29] REQ_SET_WAIT(priority=0x08, entity_id=Prishe (ID: 16801910/0x01006076), tag_num=0x27)
 36: 0x0265 [0x2B] Prishe (ID: 16801910/0x01006076) [7631*]:
    → "Just in time, too! You were about to be the lucky recipient of Lady Prishe's Punishment 'n Pain Special!"
 37: 0x026C [0x23] WAIT_FOR_DIALOG_INTERACTION
 38: 0x026D [0x29] REQ_SET_WAIT(priority=0x08, entity_id=Prishe (ID: 16801910/0x01006076), tag_num=0x28)
 39: 0x0274 [0x45] LOAD_SCHEDULED_TASK: Load scheduler "s023" with entities [EventEntity, EventEntity], work=[171*, 0*]
 40: 0x0285 [0x29] REQ_SET_WAIT(priority=0x08, entity_id=Prishe (ID: 16801910/0x01006076), tag_num=0x2B)
 41: 0x028C [0x4A] LocalPlayer looks at ??? (ID: 16801909/0x01006075)
 42: 0x0295 [0x2B] Prishe (ID: 16801910/0x01006076) [7632*]:
    → "So this is the beastman barrier I've heard so much about? Hmph. Step aside and watch a professional at work."
 43: 0x029C [0x23] WAIT_FOR_DIALOG_INTERACTION
 44: 0x029D [0x29] REQ_SET_WAIT(priority=0x08, entity_id=Prishe (ID: 16801910/0x01006076), tag_num=0x2C)
 45: 0x02A4 [0x45] LOAD_SCHEDULED_TASK: Load scheduler "who1" with entities [LocalPlayer, LocalPlayer], work=[201*, 0*]
 46: 0x02B5 [0x1C] WAIT(60* ticks)
 47: 0x02B8 [0x52] END_LOAD_SCHEDULER: End scheduler "s023" with entities [EventEntity, EventEntity], work=171*
 48: 0x02C7 [0x7B] LocalPlayer stops talking
 49: 0x02CC [0x7B] Prishe (ID: 16801910/0x01006076) stops talking
 50: 0x02D1 [0x62] LOAD_EVENT_SCHEDULER: Load scheduler "qhst" with entities [??? (ID: 16801909/0x01006075), ??? (ID: 16801909/0x01006075)], work=[28*, 0*]
 51: 0x02E2 [0x9F] LOAD_SCHEDULED_TASK_ALT: Load scheduler "main" with entities [EventEntity, EventEntity], work=[78*, 0*]
 52: 0x02F3 [0x1C] WAIT(200* ticks)
 53: 0x02F6 [0x29] REQ_SET_WAIT(priority=0x0B, entity_id=Prishe (ID: 16801910/0x01006076), tag_num=0x92)
 54: 0x02FD [0x29] REQ_SET_WAIT(priority=0x0B, entity_id=LocalPlayer, tag_num=0x0F)
 55: 0x0304 [0x29] REQ_SET_WAIT(priority=0x0B, entity_id=Louverance (ID: 16801912/0x01006078), tag_num=0x3F)
 56: 0x030B [0x29] REQ_SET_WAIT(priority=0x0B, entity_id=Ulmia (ID: 16801911/0x01006077), tag_num=0x43)
 57: 0x0312 [0x29] REQ_SET_WAIT(priority=0x0B, entity_id=Shikaree Z (ID: 16801913/0x01006079), tag_num=0x30)
 58: 0x0319 [0x29] REQ_SET_WAIT(priority=0x0B, entity_id=Shikaree Y (ID: 16801914/0x0100607A), tag_num=0x30)
 59: 0x0320 [0x29] REQ_SET_WAIT(priority=0x0B, entity_id=Shikaree X (ID: 16801915/0x0100607B), tag_num=0x30)
 60: 0x0327 [0x4E] SET_ENTITY_HIDE_FLAG: Hide Shikaree Z (ID: 16801913/0x01006079)
 61: 0x032D [0x4E] SET_ENTITY_HIDE_FLAG: Hide Shikaree Y (ID: 16801914/0x0100607A)
 62: 0x0333 [0x4E] SET_ENTITY_HIDE_FLAG: Hide Shikaree X (ID: 16801915/0x0100607B)
 63: 0x0339 [0x4E] SET_ENTITY_HIDE_FLAG: Hide Ulmia (ID: 16801911/0x01006077)
 64: 0x033F [0x4E] SET_ENTITY_HIDE_FLAG: Show Prishe (ID: 16801910/0x01006076)
 65: 0x0345 [0x80] LOAD_WAIT(entity=Prishe (ID: 16801910/0x01006076))
 66: 0x034A [0x27] REQ_SET(priority=0x0B, entity_id=Prishe (ID: 16801910/0x01006076), tag_num=0x93)
 67: 0x0351 [0x27] REQ_SET(priority=0x0B, entity_id=LocalPlayer, tag_num=0x10)
 68: 0x0358 [0x1C] WAIT(10* ticks)
 69: 0x035B [0x45] LOAD_SCHEDULED_TASK: Load scheduler "s024" with entities [EventEntity, EventEntity], work=[171*, 0*]
 70: 0x036C [0x45] LOAD_SCHEDULED_TASK: Load scheduler "whi1" with entities [LocalPlayer, LocalPlayer], work=[201*, 0*]
 71: 0x037D [0x1C] WAIT(120* ticks)
 72: 0x0380 [0x52] END_LOAD_SCHEDULER: End scheduler "s024" with entities [EventEntity, EventEntity], work=171*
 73: 0x038F [0x45] LOAD_SCHEDULED_TASK: Load scheduler "s025" with entities [EventEntity, EventEntity], work=[171*, 0*]
 74: 0x03A0 [0x29] REQ_SET_WAIT(priority=0x08, entity_id=Prishe (ID: 16801910/0x01006076), tag_num=0x94)
 75: 0x03A7 [0x1C] WAIT(80* ticks)
 76: 0x03AA [0x52] END_LOAD_SCHEDULER: End scheduler "s025" with entities [EventEntity, EventEntity], work=171*
 77: 0x03B9 [0x45] LOAD_SCHEDULED_TASK: Load scheduler "ovl1" with entities [LocalPlayer, LocalPlayer], work=[200*, 0*]
 78: 0x03CA [0x45] LOAD_SCHEDULED_TASK: Load scheduler "s026" with entities [EventEntity, EventEntity], work=[171*, 0*]
 79: 0x03DB [0x2A] GET_REQ_LEVEL(level=11, entity_id=Prishe (ID: 16801910/0x01006076))
 80: 0x03E1 [0x2B] Prishe (ID: 16801910/0x01006076) [7633*]:
    → "Whoah! Get a load of this place!"
 81: 0x03E8 [0x23] WAIT_FOR_DIALOG_INTERACTION
 82: 0x03E9 [0x2A] GET_REQ_LEVEL(level=11, entity_id=LocalPlayer)
 83: 0x03EF [0x29] REQ_SET_WAIT(priority=0x08, entity_id=Prishe (ID: 16801910/0x01006076), tag_num=0x18)
 84: 0x03F6 [0x29] REQ_SET_WAIT(priority=0x0B, entity_id=LocalPlayer, tag_num=0x11)
 85: 0x03FD [0x27] REQ_SET(priority=0x0B, entity_id=LocalPlayer, tag_num=0x12)
 86: 0x0404 [0x1C] WAIT(6* ticks)
 87: 0x0407 [0x52] END_LOAD_SCHEDULER: End scheduler "s026" with entities [EventEntity, EventEntity], work=171*
 88: 0x0416 [0x02] IF !(Work_Zone[9] == 5*) GOTO 0x0432
 89: 0x041E [0x45] LOAD_SCHEDULED_TASK: Load scheduler "s059" with entities [EventEntity, EventEntity], work=[171*, 0*]
 90: 0x042F [0x01] GOTO 0x045F
 91: 0x0432 [0x02] IF !(Work_Zone[9] == 6*) GOTO 0x044E
 92: 0x043A [0x45] LOAD_SCHEDULED_TASK: Load scheduler "s059" with entities [EventEntity, EventEntity], work=[171*, 0*]
 93: 0x044B [0x01] GOTO 0x045F
 94: 0x044E [0x45] LOAD_SCHEDULED_TASK: Load scheduler "s027" with entities [EventEntity, EventEntity], work=[171*, 0*]

SUBROUTINE_045F:
 95: 0x045F [0x2B] Prishe (ID: 16801910/0x01006076) [7634*]:
    → "Why did the beastmen bring that chunk of magicite here?"
 96: 0x0466 [0x23] WAIT_FOR_DIALOG_INTERACTION
 97: 0x0467 [0x29] REQ_SET_WAIT(priority=0x08, entity_id=Prishe (ID: 16801910/0x01006076), tag_num=0x19)
 98: 0x046E [0x2B] Prishe (ID: 16801910/0x01006076) [7635*]:
    → "The poor bastard who found it woulda been pretty messed up, I'd say..."
 99: 0x0475 [0x23] WAIT_FOR_DIALOG_INTERACTION
100: 0x0476 [0x29] REQ_SET_WAIT(priority=0x08, entity_id=Prishe (ID: 16801910/0x01006076), tag_num=0x1A)
101: 0x047D [0x02] IF !(Work_Zone[9] == 5*) GOTO 0x0497
102: 0x0485 [0x52] END_LOAD_SCHEDULER: End scheduler "s059" with entities [EventEntity, EventEntity], work=171*
103: 0x0494 [0x01] GOTO 0x04C0
104: 0x0497 [0x02] IF !(Work_Zone[9] == 6*) GOTO 0x04B1
105: 0x049F [0x52] END_LOAD_SCHEDULER: End scheduler "s059" with entities [EventEntity, EventEntity], work=171*
106: 0x04AE [0x01] GOTO 0x04C0
107: 0x04B1 [0x52] END_LOAD_SCHEDULER: End scheduler "s027" with entities [EventEntity, EventEntity], work=171*

SUBROUTINE_04C0:
108: 0x04C0 [0x02] IF !(Work_Zone[9] == 3*) GOTO 0x04DC
109: 0x04C8 [0x45] LOAD_SCHEDULED_TASK: Load scheduler "s058" with entities [EventEntity, EventEntity], work=[171*, 0*]
110: 0x04D9 [0x01] GOTO 0x0541
111: 0x04DC [0x02] IF !(Work_Zone[9] == 5*) GOTO 0x04F8
112: 0x04E4 [0x45] LOAD_SCHEDULED_TASK: Load scheduler "s060" with entities [EventEntity, EventEntity], work=[171*, 0*]
113: 0x04F5 [0x01] GOTO 0x0541
114: 0x04F8 [0x02] IF !(Work_Zone[9] == 6*) GOTO 0x0514
115: 0x0500 [0x45] LOAD_SCHEDULED_TASK: Load scheduler "s060" with entities [EventEntity, EventEntity], work=[171*, 0*]
116: 0x0511 [0x01] GOTO 0x0541
117: 0x0514 [0x02] IF !(Work_Zone[9] == 8*) GOTO 0x0530
118: 0x051C [0x45] LOAD_SCHEDULED_TASK: Load scheduler "s058" with entities [EventEntity, EventEntity], work=[171*, 0*]
119: 0x052D [0x01] GOTO 0x0541
120: 0x0530 [0x45] LOAD_SCHEDULED_TASK: Load scheduler "s028" with entities [EventEntity, EventEntity], work=[171*, 0*]

SUBROUTINE_0541:
121: 0x0541 [0x4A] Prishe (ID: 16801910/0x01006076) looks at LocalPlayer
122: 0x054A [0x6F] WAIT_FRAME_DELAY: Yield until WaitTime reaches zero
123: 0x054B [0x76] CHECK_ENTITY_RENDER_FLAGS: Wait until Prishe (ID: 16801910/0x01006076) Render.Flags0 and Render.Flags3 conditions are met
124: 0x0550 [0x29] REQ_SET_WAIT(priority=0x08, entity_id=Prishe (ID: 16801910/0x01006076), tag_num=0x0B)
125: 0x0557 [0x2B] Prishe (ID: 16801910/0x01006076) [7636*]:
    → "I s'pose you wouldn't know too much about that particular chunk of magicite."
126: 0x055E [0x23] WAIT_FOR_DIALOG_INTERACTION
127: 0x055F [0x2B] Prishe (ID: 16801910/0x01006076) [7637*]:
    → "The Emptiness sealed within made it unique."
128: 0x0566 [0x23] WAIT_FOR_DIALOG_INTERACTION
129: 0x0567 [0x29] REQ_SET_WAIT(priority=0x08, entity_id=Prishe (ID: 16801910/0x01006076), tag_num=0x0C)
130: 0x056E [0x29] REQ_SET_WAIT(priority=0x08, entity_id=Prishe (ID: 16801910/0x01006076), tag_num=0x0D)
131: 0x0575 [0x29] REQ_SET_WAIT(priority=0x08, entity_id=Prishe (ID: 16801910/0x01006076), tag_num=0x0E)
132: 0x057C [0x02] IF !(Work_Zone[9] == 3*) GOTO 0x0596
133: 0x0584 [0x52] END_LOAD_SCHEDULER: End scheduler "s058" with entities [EventEntity, EventEntity], work=171*
134: 0x0593 [0x01] GOTO 0x05F3
135: 0x0596 [0x02] IF !(Work_Zone[9] == 5*) GOTO 0x05B0
136: 0x059E [0x52] END_LOAD_SCHEDULER: End scheduler "s060" with entities [EventEntity, EventEntity], work=171*
137: 0x05AD [0x01] GOTO 0x05F3
138: 0x05B0 [0x02] IF !(Work_Zone[9] == 6*) GOTO 0x05CA
139: 0x05B8 [0x52] END_LOAD_SCHEDULER: End scheduler "s060" with entities [EventEntity, EventEntity], work=171*
140: 0x05C7 [0x01] GOTO 0x05F3
141: 0x05CA [0x02] IF !(Work_Zone[9] == 8*) GOTO 0x05E4
142: 0x05D2 [0x52] END_LOAD_SCHEDULER: End scheduler "s058" with entities [EventEntity, EventEntity], work=171*
143: 0x05E1 [0x01] GOTO 0x05F3
144: 0x05E4 [0x52] END_LOAD_SCHEDULER: End scheduler "s028" with entities [EventEntity, EventEntity], work=171*

SUBROUTINE_05F3:
145: 0x05F3 [0x45] LOAD_SCHEDULED_TASK: Load scheduler "s029" with entities [EventEntity, EventEntity], work=[171*, 0*]
146: 0x0604 [0x4A] LocalPlayer looks at Prishe (ID: 16801910/0x01006076)
147: 0x060D [0x27] REQ_SET(priority=0x0B, entity_id=Prishe (ID: 16801910/0x01006076), tag_num=0x95)
148: 0x0614 [0x2B] Prishe (ID: 16801910/0x01006076) [7638*]:
    → "You've heard about the magicite known as the Star of Tavnazia, right? And I bet you know that a piece of it was stolen and sold to Bastok before the war, too, right?"
149: 0x061B [0x23] WAIT_FOR_DIALOG_INTERACTION
150: 0x061C [0x2A] GET_REQ_LEVEL(level=11, entity_id=Prishe (ID: 16801910/0x01006076))
151: 0x0622 [0x6F] WAIT_FRAME_DELAY: Yield until WaitTime reaches zero
152: 0x0623 [0x76] CHECK_ENTITY_RENDER_FLAGS: Wait until Prishe (ID: 16801910/0x01006076) Render.Flags0 and Render.Flags3 conditions are met
153: 0x0628 [0x7B] Prishe (ID: 16801910/0x01006076) stops talking
154: 0x062D [0x29] REQ_SET_WAIT(priority=0x08, entity_id=Prishe (ID: 16801910/0x01006076), tag_num=0x23)
155: 0x0634 [0x2B] Prishe (ID: 16801910/0x01006076) [7639*]:
    → "Well, an allied expedition came here to the Northlands thirty years ago bearing that chunk of magicite. Its members were poisoned by the voice of darkness sealed within the stone."
156: 0x063B [0x23] WAIT_FOR_DIALOG_INTERACTION
157: 0x063C [0x29] REQ_SET_WAIT(priority=0x08, entity_id=Prishe (ID: 16801910/0x01006076), tag_num=0x24)
158: 0x0643 [0x29] REQ_SET_WAIT(priority=0x08, entity_id=Prishe (ID: 16801910/0x01006076), tag_num=0x33)
159: 0x064A [0x52] END_LOAD_SCHEDULER: End scheduler "s029" with entities [EventEntity, EventEntity], work=171*
160: 0x0659 [0x45] LOAD_SCHEDULED_TASK: Load scheduler "s030" with entities [EventEntity, EventEntity], work=[171*, 0*]
161: 0x066A [0x2B] Prishe (ID: 16801910/0x01006076) [7640*]:
    → ""Give in to thy desires." "Return to thy true self...""
162: 0x0671 [0x23] WAIT_FOR_DIALOG_INTERACTION
163: 0x0672 [0x2B] Prishe (ID: 16801910/0x01006076) [7641*]:
    → "That voice beckons to the darkness within us, over and over..."
164: 0x0679 [0x23] WAIT_FOR_DIALOG_INTERACTION
165: 0x067A [0x29] REQ_SET_WAIT(priority=0x08, entity_id=Prishe (ID: 16801910/0x01006076), tag_num=0x34)
166: 0x0681 [0x29] REQ_SET_WAIT(priority=0x08, entity_id=Prishe (ID: 16801910/0x01006076), tag_num=0x31)
167: 0x0688 [0x52] END_LOAD_SCHEDULER: End scheduler "s030" with entities [EventEntity, EventEntity], work=171*
168: 0x0697 [0x45] LOAD_SCHEDULED_TASK: Load scheduler "s031" with entities [EventEntity, EventEntity], work=[171*, 0*]
169: 0x06A8 [0x4E] SET_ENTITY_HIDE_FLAG: Show Louverance (ID: 16801912/0x01006078)
170: 0x06AE [0x29] REQ_SET_WAIT(priority=0x0B, entity_id=LocalPlayer, tag_num=0x13)
171: 0x06B5 [0x29] REQ_SET_WAIT(priority=0x08, entity_id=Prishe (ID: 16801910/0x01006076), tag_num=0x32)
172: 0x06BC [0x4B] UPDATE_ENTITY_YAW(entity=Prishe (ID: 16801910/0x01006076), yaw=5.9°*)
173: 0x06C3 [0x6F] WAIT_FRAME_DELAY: Yield until WaitTime reaches zero
174: 0x06C4 [0x76] CHECK_ENTITY_RENDER_FLAGS: Wait until Prishe (ID: 16801910/0x01006076) Render.Flags0 and Render.Flags3 conditions are met
175: 0x06C9 [0x29] REQ_SET_WAIT(priority=0x08, entity_id=Prishe (ID: 16801910/0x01006076), tag_num=0x27)
176: 0x06D0 [0x2B] Prishe (ID: 16801910/0x01006076) [7642*]:
    → "That's why the members of the expedition went a little loopy. You can't really blame them, though."
177: 0x06D7 [0x23] WAIT_FOR_DIALOG_INTERACTION
178: 0x06D8 [0x29] REQ_SET_WAIT(priority=0x08, entity_id=Prishe (ID: 16801910/0x01006076), tag_num=0x28)
179: 0x06DF [0x29] REQ_SET_WAIT(priority=0x08, entity_id=Prishe (ID: 16801910/0x01006076), tag_num=0x29)
180: 0x06E6 [0x2B] Prishe (ID: 16801910/0x01006076) [7643*]:
    → "I mean, you would, too, if the Twilight God was whispering in your ear!"
181: 0x06ED [0x23] WAIT_FOR_DIALOG_INTERACTION
182: 0x06EE [0x29] REQ_SET_WAIT(priority=0x08, entity_id=Prishe (ID: 16801910/0x01006076), tag_num=0x2A)
183: 0x06F5 [0x80] LOAD_WAIT(entity=Louverance (ID: 16801912/0x01006078))
184: 0x06FA [0x52] END_LOAD_SCHEDULER: End scheduler "s031" with entities [EventEntity, EventEntity], work=171*
185: 0x0709 [0x45] LOAD_SCHEDULED_TASK: Load scheduler "s032" with entities [EventEntity, EventEntity], work=[171*, 0*]
186: 0x071A [0x79] Prishe (ID: 16801910/0x01006076) looks at Louverance (ID: 16801912/0x01006078) (Basic look)
187: 0x0724 [0x79] Louverance (ID: 16801912/0x01006078) looks at Prishe (ID: 16801910/0x01006076) (Basic look)
188: 0x072E [0x4A] LocalPlayer looks at Louverance (ID: 16801912/0x01006078)
189: 0x0737 [0x29] REQ_SET_WAIT(priority=0x08, entity_id=Prishe (ID: 16801910/0x01006076), tag_num=0x62)
190: 0x073E [0x27] REQ_SET(priority=0x0B, entity_id=Louverance (ID: 16801912/0x01006078), tag_num=0x40)
191: 0x0745 [0x2B] Louverance (ID: 16801912/0x01006078) [7644*]:
    → "The voice of Promathia...?"
192: 0x074C [0x23] WAIT_FOR_DIALOG_INTERACTION
193: 0x074D [0x2A] GET_REQ_LEVEL(level=11, entity_id=Louverance (ID: 16801912/0x01006078))
194: 0x0753 [0x2B] Prishe (ID: 16801910/0x01006076) [7645*]:
    → "What the...!? You eavesdropping again!?"
195: 0x075A [0x23] WAIT_FOR_DIALOG_INTERACTION
196: 0x075B [0x29] REQ_SET_WAIT(priority=0x08, entity_id=Prishe (ID: 16801910/0x01006076), tag_num=0x63)
197: 0x0762 [0x27] REQ_SET(priority=0x0B, entity_id=Louverance (ID: 16801912/0x01006078), tag_num=0x41)
198: 0x0769 [0x52] END_LOAD_SCHEDULER: End scheduler "s032" with entities [EventEntity, EventEntity], work=171*
199: 0x0778 [0x45] LOAD_SCHEDULED_TASK: Load scheduler "s033" with entities [EventEntity, EventEntity], work=[171*, 0*]
200: 0x0789 [0x29] REQ_SET_WAIT(priority=0x0B, entity_id=LocalPlayer, tag_num=0x14)
201: 0x0790 [0x29] REQ_SET_WAIT(priority=0x08, entity_id=Prishe (ID: 16801910/0x01006076), tag_num=0x64)
202: 0x0797 [0x2B] Louverance (ID: 16801912/0x01006078) [7646*]:
    → "You must tell me more of this tale."
203: 0x079E [0x23] WAIT_FOR_DIALOG_INTERACTION
204: 0x079F [0x2A] GET_REQ_LEVEL(level=11, entity_id=Louverance (ID: 16801912/0x01006078))
205: 0x07A5 [0x2B] Louverance (ID: 16801912/0x01006078) [7647*]:
    → "I am Louverance N Mistalle. Francmage M Mistalle, Royal Knight and member of the allied expedition, was my grandfather."
206: 0x07AC [0x23] WAIT_FOR_DIALOG_INTERACTION
207: 0x07AD [0x29] REQ_SET_WAIT(priority=0x08, entity_id=Prishe (ID: 16801910/0x01006076), tag_num=0x65)
208: 0x07B4 [0x52] END_LOAD_SCHEDULER: End scheduler "s033" with entities [EventEntity, EventEntity], work=171*
209: 0x07C3 [0x45] LOAD_SCHEDULED_TASK: Load scheduler "s035" with entities [EventEntity, EventEntity], work=[171*, 0*]
210: 0x07D4 [0x79] LocalPlayer looks at Prishe (ID: 16801910/0x01006076) (Basic look)
211: 0x07DE [0x27] REQ_SET(priority=0x0B, entity_id=Prishe (ID: 16801910/0x01006076), tag_num=0x96)
212: 0x07E5 [0x2B] Prishe (ID: 16801910/0x01006076) [7648*]:
    → "Oh, so that's which one you are. In that case, I know all about you, too."
213: 0x07EC [0x23] WAIT_FOR_DIALOG_INTERACTION
214: 0x07ED [0x2A] GET_REQ_LEVEL(level=11, entity_id=Prishe (ID: 16801910/0x01006076))
215: 0x07F3 [0x7B] Prishe (ID: 16801910/0x01006076) stops talking
216: 0x07F8 [0x4A] Louverance (ID: 16801912/0x01006078) looks at Prishe (ID: 16801910/0x01006076)
217: 0x0801 [0x29] REQ_SET_WAIT(priority=0x08, entity_id=Prishe (ID: 16801910/0x01006076), tag_num=0x3D)
218: 0x0808 [0x2B] Prishe (ID: 16801910/0x01006076) [7649*]:
    → "So, you've finally come back. Did you manage to avenge your grandfather's death?"
219: 0x080F [0x23] WAIT_FOR_DIALOG_INTERACTION
220: 0x0810 [0x6F] WAIT_FRAME_DELAY: Yield until WaitTime reaches zero
221: 0x0811 [0x76] CHECK_ENTITY_RENDER_FLAGS: Wait until Louverance (ID: 16801912/0x01006078) Render.Flags0 and Render.Flags3 conditions are met
222: 0x0816 [0x29] REQ_SET_WAIT(priority=0x08, entity_id=Louverance (ID: 16801912/0x01006078), tag_num=0x22)
223: 0x081D [0x52] END_LOAD_SCHEDULER: End scheduler "s035" with entities [EventEntity, EventEntity], work=171*
224: 0x082C [0x45] LOAD_SCHEDULED_TASK: Load scheduler "s036" with entities [EventEntity, EventEntity], work=[171*, 0*]
225: 0x083D [0x7B] Louverance (ID: 16801912/0x01006078) stops talking
226: 0x0842 [0x29] REQ_SET_WAIT(priority=0x08, entity_id=Prishe (ID: 16801910/0x01006076), tag_num=0x3E)
227: 0x0849 [0x29] REQ_SET_WAIT(priority=0x08, entity_id=Prishe (ID: 16801910/0x01006076), tag_num=0x3F)
228: 0x0850 [0x2B] Louverance (ID: 16801912/0x01006078) [7650*]:
    → "How did you know about that!? Could it be that you're...?"
229: 0x0857 [0x23] WAIT_FOR_DIALOG_INTERACTION
230: 0x0858 [0x29] REQ_SET_WAIT(priority=0x08, entity_id=Prishe (ID: 16801910/0x01006076), tag_num=0x40)
231: 0x085F [0x52] END_LOAD_SCHEDULER: End scheduler "s036" with entities [EventEntity, EventEntity], work=171*
232: 0x086E [0x45] LOAD_SCHEDULED_TASK: Load scheduler "s037" with entities [EventEntity, EventEntity], work=[171*, 0*]
233: 0x087F [0x79] Louverance (ID: 16801912/0x01006078) looks at Prishe (ID: 16801910/0x01006076) (Basic look)
234: 0x0889 [0x27] REQ_SET(priority=0x08, entity_id=Louverance (ID: 16801912/0x01006078), tag_num=0x3A)
235: 0x0890 [0x2B] Prishe (ID: 16801910/0x01006076) [7651*]:
    → "You got it, buddy. It's your unlucky day. I'm Prishe, and this here's <Player>."
236: 0x0897 [0x23] WAIT_FOR_DIALOG_INTERACTION
237: 0x0898 [0x2A] GET_REQ_LEVEL(level=8, entity_id=Louverance (ID: 16801912/0x01006078))
238: 0x089E [0x52] END_LOAD_SCHEDULER: End scheduler "s037" with entities [EventEntity, EventEntity], work=171*
239: 0x08AD [0x45] LOAD_SCHEDULED_TASK: Load scheduler "ovl1" with entities [LocalPlayer, LocalPlayer], work=[200*, 0*]
240: 0x08BE [0x02] IF !(Work_Zone[9] == 5*) GOTO 0x08DA
241: 0x08C6 [0x45] LOAD_SCHEDULED_TASK: Load scheduler "s061" with entities [EventEntity, EventEntity], work=[171*, 0*]
242: 0x08D7 [0x01] GOTO 0x0907
243: 0x08DA [0x02] IF !(Work_Zone[9] == 6*) GOTO 0x08F6
244: 0x08E2 [0x45] LOAD_SCHEDULED_TASK: Load scheduler "s061" with entities [EventEntity, EventEntity], work=[171*, 0*]
245: 0x08F3 [0x01] GOTO 0x0907
246: 0x08F6 [0x45] LOAD_SCHEDULED_TASK: Load scheduler "s043" with entities [EventEntity, EventEntity], work=[171*, 0*]

SUBROUTINE_0907:
247: 0x0907 [0x4B] UPDATE_ENTITY_YAW(entity=Prishe (ID: 16801910/0x01006076), yaw=9.9°*)
248: 0x090E [0x79] LocalPlayer looks at Louverance (ID: 16801912/0x01006078) (Basic look)
249: 0x0918 [0x2B] Louverance (ID: 16801912/0x01006078) [7652*]:
    → "You two..."
250: 0x091F [0x23] WAIT_FOR_DIALOG_INTERACTION
251: 0x0920 [0x6F] WAIT_FRAME_DELAY: Yield until WaitTime reaches zero
252: 0x0921 [0x76] CHECK_ENTITY_RENDER_FLAGS: Wait until Prishe (ID: 16801910/0x01006076) Render.Flags0 and Render.Flags3 conditions are met
253: 0x0926 [0x02] IF !(Work_Zone[9] == 5*) GOTO 0x0940
254: 0x092E [0x52] END_LOAD_SCHEDULER: End scheduler "s061" with entities [EventEntity, EventEntity], work=171*
255: 0x093D [0x01] GOTO 0x0969
256: 0x0940 [0x02] IF !(Work_Zone[9] == 6*) GOTO 0x095A
257: 0x0948 [0x52] END_LOAD_SCHEDULER: End scheduler "s061" with entities [EventEntity, EventEntity], work=171*
258: 0x0957 [0x01] GOTO 0x0969
259: 0x095A [0x52] END_LOAD_SCHEDULER: End scheduler "s043" with entities [EventEntity, EventEntity], work=171*

SUBROUTINE_0969:
260: 0x0969 [0x45] LOAD_SCHEDULED_TASK: Load scheduler "s034" with entities [EventEntity, EventEntity], work=[171*, 0*]
261: 0x097A [0x4E] SET_ENTITY_HIDE_FLAG: Hide LocalPlayer
262: 0x0980 [0x27] REQ_SET(priority=0x0B, entity_id=Prishe (ID: 16801910/0x01006076), tag_num=0x97)
263: 0x0987 [0x2B] Prishe (ID: 16801910/0x01006076) [7653*]:
    → "Hehehe. I bet you've heard that nobody knows what to make of us, huh?"
264: 0x098E [0x23] WAIT_FOR_DIALOG_INTERACTION
265: 0x098F [0x2A] GET_REQ_LEVEL(level=11, entity_id=Prishe (ID: 16801910/0x01006076))
266: 0x0995 [0x37] UPDATE_EVENT_POSITION_AND_DIR: x=-462.035*, z=-246.583*, y=0.536*, direction=347.5°*
267: 0x099E [0x79] Prishe (ID: 16801910/0x01006076) looks at ??? (ID: 16801909/0x01006075) (Basic look)
268: 0x09A8 [0x29] REQ_SET_WAIT(priority=0x08, entity_id=Prishe (ID: 16801910/0x01006076), tag_num=0x27)
269: 0x09AF [0x2B] Prishe (ID: 16801910/0x01006076) [7654*]:
    → "But, as that doesn't bother me one bit, you shouldn't let it bother you either. What I want to hear is the lowdown on the big boss behind the Kindred of the Northlands."
270: 0x09B6 [0x23] WAIT_FOR_DIALOG_INTERACTION
271: 0x09B7 [0x29] REQ_SET_WAIT(priority=0x08, entity_id=Prishe (ID: 16801910/0x01006076), tag_num=0x28)
272: 0x09BE [0x52] END_LOAD_SCHEDULER: End scheduler "s034" with entities [EventEntity, EventEntity], work=171*
273: 0x09CD [0x45] LOAD_SCHEDULED_TASK: Load scheduler "s038" with entities [EventEntity, EventEntity], work=[171*, 0*]
274: 0x09DE [0x4E] SET_ENTITY_HIDE_FLAG: Show LocalPlayer
275: 0x09E4 [0x7B] Prishe (ID: 16801910/0x01006076) stops talking
276: 0x09E9 [0x29] REQ_SET_WAIT(priority=0x08, entity_id=Prishe (ID: 16801910/0x01006076), tag_num=0x29)
277: 0x09F0 [0x2B] Prishe (ID: 16801910/0x01006076) [7655*]:
    → "The Mithra seem to think that it's Promathia, but I know better than that."
278: 0x09F7 [0x23] WAIT_FOR_DIALOG_INTERACTION
279: 0x09F8 [0x29] REQ_SET_WAIT(priority=0x08, entity_id=Prishe (ID: 16801910/0x01006076), tag_num=0x2A)
280: 0x09FF [0x2B] Prishe (ID: 16801910/0x01006076) [7656*]:
    → "So, who the hell is it? He's called the Divinity of Darkness by the beastmen, apparently."
281: 0x0A06 [0x23] WAIT_FOR_DIALOG_INTERACTION
282: 0x0A07 [0x80] LOAD_WAIT(entity=LocalPlayer)
283: 0x0A0C [0x52] END_LOAD_SCHEDULER: End scheduler "s038" with entities [EventEntity, EventEntity], work=171*
284: 0x0A1B [0x45] LOAD_SCHEDULED_TASK: Load scheduler "s039" with entities [EventEntity, EventEntity], work=[171*, 0*]
285: 0x0A2C [0x27] REQ_SET(priority=0x0B, entity_id=Louverance (ID: 16801912/0x01006078), tag_num=0x42)
286: 0x0A33 [0x2B] Louverance (ID: 16801912/0x01006078) [7657*]:
    → "I returned here to investigate that very fact..."
287: 0x0A3A [0x23] WAIT_FOR_DIALOG_INTERACTION
288: 0x0A3B [0x2A] GET_REQ_LEVEL(level=11, entity_id=Louverance (ID: 16801912/0x01006078))
289: 0x0A41 [0x2B] Louverance (ID: 16801912/0x01006078) [7658*]:
    → "The legends of the northern islands tell that the Divinity of Darkness slumbers in this land."
290: 0x0A48 [0x23] WAIT_FOR_DIALOG_INTERACTION
291: 0x0A49 [0x52] END_LOAD_SCHEDULER: End scheduler "s039" with entities [EventEntity, EventEntity], work=171*
292: 0x0A58 [0x02] IF !(Work_Zone[9] == 5*) GOTO 0x0A74
293: 0x0A60 [0x45] LOAD_SCHEDULED_TASK: Load scheduler "s062" with entities [EventEntity, EventEntity], work=[171*, 0*]
294: 0x0A71 [0x01] GOTO 0x0AA1
295: 0x0A74 [0x02] IF !(Work_Zone[9] == 6*) GOTO 0x0A90
296: 0x0A7C [0x45] LOAD_SCHEDULED_TASK: Load scheduler "s062" with entities [EventEntity, EventEntity], work=[171*, 0*]
297: 0x0A8D [0x01] GOTO 0x0AA1
298: 0x0A90 [0x45] LOAD_SCHEDULED_TASK: Load scheduler "s040" with entities [EventEntity, EventEntity], work=[171*, 0*]

SUBROUTINE_0AA1:
299: 0x0AA1 [0x2B] Louverance (ID: 16801912/0x01006078) [7659*]:
    → "At some time in the past, the Shadow Lord followed the voice of this sleeping deity to its source."
300: 0x0AA8 [0x23] WAIT_FOR_DIALOG_INTERACTION
301: 0x0AA9 [0x2B] Louverance (ID: 16801912/0x01006078) [7660*]:
    → "His actions led by the powerful stone in the possession of the Shadow Lord, the Divinity of Darkness created an army of demons to enter the service of his visitor."
302: 0x0AB0 [0x23] WAIT_FOR_DIALOG_INTERACTION
303: 0x0AB1 [0x02] IF !(Work_Zone[9] == 5*) GOTO 0x0ACB
304: 0x0AB9 [0x52] END_LOAD_SCHEDULER: End scheduler "s062" with entities [EventEntity, EventEntity], work=171*
305: 0x0AC8 [0x01] GOTO 0x0AF4
306: 0x0ACB [0x02] IF !(Work_Zone[9] == 6*) GOTO 0x0AE5
307: 0x0AD3 [0x52] END_LOAD_SCHEDULER: End scheduler "s062" with entities [EventEntity, EventEntity], work=171*
308: 0x0AE2 [0x01] GOTO 0x0AF4
309: 0x0AE5 [0x52] END_LOAD_SCHEDULER: End scheduler "s040" with entities [EventEntity, EventEntity], work=171*

SUBROUTINE_0AF4:
310: 0x0AF4 [0x45] LOAD_SCHEDULED_TASK: Load scheduler "s041" with entities [EventEntity, EventEntity], work=[171*, 0*]
311: 0x0B05 [0x79] LocalPlayer looks at Prishe (ID: 16801910/0x01006076) (Basic look)
312: 0x0B0F [0x29] REQ_SET_WAIT(priority=0x08, entity_id=Prishe (ID: 16801910/0x01006076), tag_num=0x1F)
313: 0x0B16 [0x2B] Prishe (ID: 16801910/0x01006076) [7661*]:
    → "I think I'm starting to get it now. The being who the beastmen call Promathia is actually..."
314: 0x0B1D [0x23] WAIT_FOR_DIALOG_INTERACTION
315: 0x0B1E [0x29] REQ_SET_WAIT(priority=0x08, entity_id=Prishe (ID: 16801910/0x01006076), tag_num=0x20)
316: 0x0B25 [0x29] REQ_SET_WAIT(priority=0x08, entity_id=Prishe (ID: 16801910/0x01006076), tag_num=0x21)
317: 0x0B2C [0x2B] Louverance (ID: 16801912/0x01006078) [7662*]:
    → "Tell me! I must know the truth!"
318: 0x0B33 [0x23] WAIT_FOR_DIALOG_INTERACTION
319: 0x0B34 [0x29] REQ_SET_WAIT(priority=0x08, entity_id=Prishe (ID: 16801910/0x01006076), tag_num=0x22)
320: 0x0B3B [0x27] REQ_SET(priority=0x0B, entity_id=Prishe (ID: 16801910/0x01006076), tag_num=0x98)
321: 0x0B42 [0x1C] WAIT(30* ticks)
322: 0x0B45 [0x52] END_LOAD_SCHEDULER: End scheduler "s041" with entities [EventEntity, EventEntity], work=171*
323: 0x0B54 [0x45] LOAD_SCHEDULED_TASK: Load scheduler "ovl1" with entities [LocalPlayer, LocalPlayer], work=[200*, 0*]
324: 0x0B65 [0x45] LOAD_SCHEDULED_TASK: Load scheduler "s044" with entities [EventEntity, EventEntity], work=[171*, 0*]
325: 0x0B76 [0x4E] SET_ENTITY_HIDE_FLAG: Show Ulmia (ID: 16801911/0x01006077)
326: 0x0B7C [0x4E] SET_ENTITY_HIDE_FLAG: Show Shikaree Z (ID: 16801913/0x01006079)
327: 0x0B82 [0x4E] SET_ENTITY_HIDE_FLAG: Show Shikaree Y (ID: 16801914/0x0100607A)
328: 0x0B88 [0x4E] SET_ENTITY_HIDE_FLAG: Show Shikaree X (ID: 16801915/0x0100607B)
329: 0x0B8E [0x1C] WAIT(50* ticks)
330: 0x0B91 [0x1C] WAIT(50* ticks)
331: 0x0B94 [0x1D] PRINT_EVENT_MESSAGE(message_id=7663*)
    → "Prishe!"
332: 0x0B97 [0x23] WAIT_FOR_DIALOG_INTERACTION
333: 0x0B98 [0x80] LOAD_WAIT(entity=Ulmia (ID: 16801911/0x01006077))
334: 0x0B9D [0x80] LOAD_WAIT(entity=Shikaree Z (ID: 16801913/0x01006079))
335: 0x0BA2 [0x80] LOAD_WAIT(entity=Shikaree Y (ID: 16801914/0x0100607A))
336: 0x0BA7 [0x80] LOAD_WAIT(entity=Shikaree X (ID: 16801915/0x0100607B))
337: 0x0BAC [0x27] REQ_SET(priority=0x0B, entity_id=Louverance (ID: 16801912/0x01006078), tag_num=0x44)
338: 0x0BB3 [0x27] REQ_SET(priority=0x0B, entity_id=Ulmia (ID: 16801911/0x01006077), tag_num=0x44)
339: 0x0BBA [0x27] REQ_SET(priority=0x0B, entity_id=Shikaree Z (ID: 16801913/0x01006079), tag_num=0x31)
340: 0x0BC1 [0x27] REQ_SET(priority=0x0B, entity_id=Shikaree Y (ID: 16801914/0x0100607A), tag_num=0x31)
341: 0x0BC8 [0x27] REQ_SET(priority=0x0B, entity_id=Shikaree X (ID: 16801915/0x0100607B), tag_num=0x31)
342: 0x0BCF [0x27] REQ_SET(priority=0x0B, entity_id=LocalPlayer, tag_num=0x15)
343: 0x0BD6 [0x1C] WAIT(20* ticks)
344: 0x0BD9 [0x52] END_LOAD_SCHEDULER: End scheduler "s044" with entities [EventEntity, EventEntity], work=171*
345: 0x0BE8 [0x45] LOAD_SCHEDULED_TASK: Load scheduler "s042" with entities [EventEntity, EventEntity], work=[171*, 0*]
346: 0x0BF9 [0x4E] SET_ENTITY_HIDE_FLAG: Hide Prishe (ID: 16801910/0x01006076)
347: 0x0BFF [0x1C] WAIT(90* ticks)
348: 0x0C02 [0x52] END_LOAD_SCHEDULER: End scheduler "s042" with entities [EventEntity, EventEntity], work=171*
349: 0x0C11 [0x45] LOAD_SCHEDULED_TASK: Load scheduler "s045" with entities [EventEntity, EventEntity], work=[171*, 0*]
350: 0x0C22 [0x45] LOAD_SCHEDULED_TASK: Load scheduler "fdi1" with entities [EventEntity, EventEntity], work=[200*, 0*]
351: 0x0C33 [0x2B] Louverance (ID: 16801912/0x01006078) [7664*]:
    → "Wait! Be on your guard! There is something strange afoot!"
352: 0x0C3A [0x23] WAIT_FOR_DIALOG_INTERACTION
353: 0x0C3B [0x2A] GET_REQ_LEVEL(level=11, entity_id=Louverance (ID: 16801912/0x01006078))
354: 0x0C41 [0x27] REQ_SET(priority=0x0B, entity_id=Louverance (ID: 16801912/0x01006078), tag_num=0x45)
355: 0x0C48 [0x52] END_LOAD_SCHEDULER: End scheduler "s045" with entities [EventEntity, EventEntity], work=171*
356: 0x0C57 [0x45] LOAD_SCHEDULED_TASK: Load scheduler "s069" with entities [EventEntity, EventEntity], work=[171*, 0*]
357: 0x0C68 [0x1C] WAIT(20* ticks)
358: 0x0C6B [0x27] REQ_SET(priority=0x0B, entity_id=Louverance (ID: 16801912/0x01006078), tag_num=0x45)
359: 0x0C72 [0x2B] Louverance (ID: 16801912/0x01006078) [7665*]:
    → "Back to the abyss, foul beast!"
360: 0x0C79 [0x23] WAIT_FOR_DIALOG_INTERACTION
361: 0x0C7A [0x1C] WAIT(20* ticks)
362: 0x0C7D [0x45] LOAD_SCHEDULED_TASK: Load scheduler "who1" with entities [LocalPlayer, LocalPlayer], work=[201*, 0*]
363: 0x0C8E [0x1C] WAIT(60* ticks)
364: 0x0C91 [0x2A] GET_REQ_LEVEL(level=11, entity_id=Louverance (ID: 16801912/0x01006078))
365: 0x0C97 [0x45] LOAD_SCHEDULED_TASK: Load scheduler "0blf" with entities [EventEntity, EventEntity], work=[171*, 0*]
366: 0x0CA8 [0x52] END_LOAD_SCHEDULER: End scheduler "s047" with entities [EventEntity, EventEntity], work=171*
367: 0x0CB7 [0x4E] SET_ENTITY_HIDE_FLAG: Show LocalPlayer
368: 0x0CBD [0x80] LOAD_WAIT(entity=LocalPlayer)
369: 0x0CC2 [0x00] END_REQSTACK()
```

### Event 21

#### Metadata

| Field        | Value     |
|--------------|-----------|
| Entrypoint   | 0x0CC3    |
| Data Size    | 129 bytes |
| Instructions | 24        |

```
      00 01 02 03 04 05 06 07  08 09 0A 0B 0C 0D 0E 0F
      -- -- -- -- -- -- -- --  -- -- -- -- -- -- -- --
0CC0:          20 01 42 46 01  45 00 80 F8 FF FF 7F F8      .BF.E.......
0CD0: FF FF 7F 66 64 6F 31 01  80 1C 02 80 38 03 80 29  ...fdo1.....8..)
0CE0: 08 F0 FF FF 7F 09 4E 00  76 60 00 01 4E 00 77 60  ......N.v`..N.w`
0CF0: 00 01 4E 00 78 60 00 01  4E 00 75 60 00 01 4E 00  ..N.x`..N.u`..N.
0D00: 79 60 00 01 4E 00 7A 60  00 01 4E 00 7B 60 00 01  y`..N.z`..N.{`..
0D10: 4E 00 7D 60 00 01 4E 01  7C 60 00 01 80 76 60 00  N.}`..N.|`...v`.
0D20: 01 80 77 60 00 01 80 78  60 00 01 80 75 60 00 01  ..w`...x`...u`..
0D30: 80 79 60 00 01 80 7A 60  00 01 80 7B 60 00 01 80  .y`...z`...{`...
0D40: 7D 60 00 01                                       }`..            
```

#### Opcodes

```
  0: 0x0CC3 [0x20] SET_CLI_EVENT_UC_FLAG: Lock player control
  1: 0x0CC5 [0x42] SET_CLI_EVENT_CANCEL_DATA()
  2: 0x0CC6 [0x46] CAMERA_CONTROL: Disable user control
  3: 0x0CC8 [0x45] LOAD_SCHEDULED_TASK: Load scheduler "fdo1" with entities [EventEntity, EventEntity], work=[200*, 0*]
  4: 0x0CD9 [0x1C] WAIT(60* ticks)
  5: 0x0CDC [0x38] SET_CLIENT_EVENT_MODE(mode=19*)
  6: 0x0CDF [0x29] REQ_SET_WAIT(priority=0x08, entity_id=LocalPlayer, tag_num=0x09)
  7: 0x0CE6 [0x4E] SET_ENTITY_HIDE_FLAG: Show Prishe (ID: 16801910/0x01006076)
  8: 0x0CEC [0x4E] SET_ENTITY_HIDE_FLAG: Show Ulmia (ID: 16801911/0x01006077)
  9: 0x0CF2 [0x4E] SET_ENTITY_HIDE_FLAG: Show Louverance (ID: 16801912/0x01006078)
 10: 0x0CF8 [0x4E] SET_ENTITY_HIDE_FLAG: Show ??? (ID: 16801909/0x01006075)
 11: 0x0CFE [0x4E] SET_ENTITY_HIDE_FLAG: Show Shikaree Z (ID: 16801913/0x01006079)
 12: 0x0D04 [0x4E] SET_ENTITY_HIDE_FLAG: Show Shikaree Y (ID: 16801914/0x0100607A)
 13: 0x0D0A [0x4E] SET_ENTITY_HIDE_FLAG: Show Shikaree X (ID: 16801915/0x0100607B)
 14: 0x0D10 [0x4E] SET_ENTITY_HIDE_FLAG: Show ??? (ID: 16801917/0x0100607D)
 15: 0x0D16 [0x4E] SET_ENTITY_HIDE_FLAG: Hide Unnamed NPC (ID: 16801916/0x0100607C)
 16: 0x0D1C [0x80] LOAD_WAIT(entity=Prishe (ID: 16801910/0x01006076))
 17: 0x0D21 [0x80] LOAD_WAIT(entity=Ulmia (ID: 16801911/0x01006077))
 18: 0x0D26 [0x80] LOAD_WAIT(entity=Louverance (ID: 16801912/0x01006078))
 19: 0x0D2B [0x80] LOAD_WAIT(entity=??? (ID: 16801909/0x01006075))
 20: 0x0D30 [0x80] LOAD_WAIT(entity=Shikaree Z (ID: 16801913/0x01006079))
 21: 0x0D35 [0x80] LOAD_WAIT(entity=Shikaree Y (ID: 16801914/0x0100607A))
 22: 0x0D3A [0x80] LOAD_WAIT(entity=Shikaree X (ID: 16801915/0x0100607B))
 23: 0x0D3F [0x80] LOAD_WAIT(entity=??? (ID: 16801917/0x0100607D))
```

### Event 65535.2

#### Metadata

| Field        | Value      |
|--------------|------------|
| Entrypoint   | 0x0D44     |
| Data Size    | 3163 bytes |
| Instructions | 369        |

```
      00 01 02 03 04 05 06 07  08 09 0A 0B 0C 0D 0E 0F
      -- -- -- -- -- -- -- --  -- -- -- -- -- -- -- --
0D40:             5D 01 80 11  80 29 08 F0 FF FF 7F 09      ]....)......
0D50: 4E 00 76 60 00 01 4E 00  77 60 00 01 4E 00 78 60  N.v`..N.w`..N.x`
0D60: 00 01 4E 00 75 60 00 01  4E 00 79 60 00 01 4E 00  ..N.u`..N.y`..N.
0D70: 7A 60 00 01 4E 00 7B 60  00 01 4E 00 7D 60 00 01  z`..N.{`..N.}`..
0D80: 4E 01 7C 60 00 01 80 76  60 00 01 80 77 60 00 01  N.|`...v`...w`..
0D90: 80 78 60 00 01 80 75 60  00 01 80 79 60 00 01 80  .x`...u`...y`...
0DA0: 7A 60 00 01 80 7B 60 00  01 80 7D 60 00 01 29 0B  z`...{`...}`..).
0DB0: F0 FF FF 7F 16 29 0B 76  60 00 01 9A 29 0B 79 60  .....).v`...).y`
0DC0: 00 01 33 29 0B 78 60 00  01 47 29 0B 77 60 00 01  ..3).x`..G).w`..
0DD0: 46 29 0B 7A 60 00 01 33  29 0B 7B 60 00 01 33 29  F).z`..3).{`..3)
0DE0: 0B 78 60 00 01 3B 29 08  79 60 00 01 1F 29 08 7A  .x`..;).y`...).z
0DF0: 60 00 01 1B 29 08 7B 60  00 01 27 29 08 79 60 00  `...).{`..').y`.
0E00: 01 20 29 08 7A 60 00 01  1C 29 08 7B 60 00 01 28  . ).z`...).{`..(
0E10: 29 08 77 60 00 01 01 29  08 77 60 00 01 02 37 45  ).w`...).w`...7E
0E20: 80 46 80 47 80 48 80 1C  11 80 9F 49 80 F8 FF FF  .F.G.H.....I....
0E30: 7F F8 FF FF 7F 73 74 72  30 01 80 45 04 80 F8 FF  .....str0..E....
0E40: FF 7F F8 FF FF 7F 73 30  36 35 01 80 45 00 80 F8  ......s065..E...
0E50: FF FF 7F F8 FF FF 7F 66  64 69 31 01 80 1C 02 80  .......fdi1.....
0E60: 45 4A 80 F8 FF FF 7F F8  FF FF 7F 73 65 38 30 01  EJ.........se80.
0E70: 80 29 08 7A 60 00 01 1D  1C 4B 80 45 4A 80 F8 FF  .).z`....K.EJ...
0E80: FF 7F F8 FF FF 7F 73 65  38 32 01 80 29 08 7B 60  ......se82..).{`
0E90: 00 01 29 1C 10 80 52 04  80 F8 FF FF 7F F8 FF FF  ..)...R.........
0EA0: 7F 73 30 36 35 45 00 80  F0 FF FF 7F F0 FF FF 7F  .s065E..........
0EB0: 6F 76 6C 31 01 80 45 04  80 F8 FF FF 7F F8 FF FF  ovl1..E.........
0EC0: 7F 73 30 36 36 01 80 1C  02 80 45 4A 80 F8 FF FF  .s066.....EJ....
0ED0: 7F F8 FF FF 7F 73 65 38  30 01 80 29 08 79 60 00  .....se80..).y`.
0EE0: 01 23 29 08 77 60 00 01  03 1C 11 80 79 00 76 60  .#).w`......y.v`
0EF0: 00 01 F0 FF FF 7F 27 0B  76 60 00 01 9B 52 04 80  ......'.v`...R..
0F00: F8 FF FF 7F F8 FF FF 7F  73 30 36 36 45 04 80 F8  ........s066E...
0F10: FF FF 7F F8 FF FF 7F 73  30 30 30 01 80 2A 0B 76  .......s000..*.v
0F20: 60 00 01 4A F0 FF FF 7F  76 60 00 01 6F 76 F0 FF  `..J....v`..ov..
0F30: FF 7F 52 04 80 F8 FF FF  7F F8 FF FF 7F 73 30 30  ..R..........s00
0F40: 30 02 09 10 1F 80 00 5D  0F 45 04 80 F8 FF FF 7F  0......].E......
0F50: F8 FF FF 7F 73 30 36 33  01 80 01 8A 0F 02 09 10  ....s063........
0F60: 20 80 00 79 0F 45 04 80  F8 FF FF 7F F8 FF FF 7F   ..y.E..........
0F70: 73 30 36 33 01 80 01 8A  0F 45 04 80 F8 FF FF 7F  s063.....E......
0F80: F8 FF FF 7F 73 30 30 32  01 80 29 08 77 60 00 01  ....s002..).w`..
0F90: 04 29 0B 78 60 00 01 48  29 0B 78 60 00 01 3C 29  .).x`..H).x`..<)
0FA0: 08 76 60 00 01 1B 2B 76  60 00 01 4C 80 23 2B 76  .v`...+v`..L.#+v
0FB0: 60 00 01 4D 80 23 29 08  76 60 00 01 1C 02 09 10  `..M.#).v`......
0FC0: 1F 80 00 D7 0F 52 04 80  F8 FF FF 7F F8 FF FF 7F  .....R..........
0FD0: 73 30 36 33 01 00 10 02  09 10 20 80 00 F1 0F 52  s063...... ....R
0FE0: 04 80 F8 FF FF 7F F8 FF  FF 7F 73 30 36 33 01 00  ..........s063..
0FF0: 10 52 04 80 F8 FF FF 7F  F8 FF FF 7F 73 30 30 32  .R..........s002
1000: 45 04 80 F8 FF FF 7F F8  FF FF 7F 73 30 30 31 01  E..........s001.
1010: 80 27 0B 76 60 00 01 9C  27 0B 79 60 00 01 34 2B  .'.v`...'.y`..4+
1020: 79 60 00 01 4E 80 23 2A  0B 79 60 00 01 27 0B 78  y`..N.#*.y`..'.x
1030: 60 00 01 3D 2A 0B 78 60  00 01 4A 78 60 00 01 79  `..=*.x`..Jx`..y
1040: 60 00 01 6F 76 78 60 00  01 29 08 78 60 00 01 01  `..ovx`..).x`...
1050: 2B 78 60 00 01 4F 80 23  29 08 78 60 00 01 02 52  +x`..O.#).x`...R
1060: 04 80 F8 FF FF 7F F8 FF  FF 7F 73 30 30 31 45 04  ..........s001E.
1070: 80 F8 FF FF 7F F8 FF FF  7F 73 30 30 34 01 80 29  .........s004..)
1080: 08 79 60 00 01 05 2B 79  60 00 01 50 80 23 29 08  .y`...+y`..P.#).
1090: 79 60 00 01 06 5D 01 80  00 80 29 08 79 60 00 01  y`...]....).y`..
10A0: 07 2B 79 60 00 01 51 80  23 29 08 79 60 00 01 08  .+y`..Q.#).y`...
10B0: 79 00 79 60 00 01 75 60  00 01 1C 10 80 52 04 80  y.y`..u`.....R..
10C0: F8 FF FF 7F F8 FF FF 7F  73 30 30 34 45 00 80 F0  ........s004E...
10D0: FF FF 7F F0 FF FF 7F 62  6C 6F 6E 01 80 45 08 80  .......blon..E..
10E0: F0 FF FF 7F F0 FF FF 7F  62 6C 6F 6E 01 80 45 04  ........blon..E.
10F0: 80 F8 FF FF 7F F8 FF FF  7F 73 30 30 33 01 80 2B  .........s003..+
1100: 79 60 00 01 52 80 23 1C  06 80 45 00 80 F0 FF FF  y`..R.#...E.....
1110: 7F F0 FF FF 7F 62 6C 6F  66 01 80 1C 02 80 52 04  .....blof.....R.
1120: 80 F8 FF FF 7F F8 FF FF  7F 73 30 30 33 45 00 80  .........s003E..
1130: F0 FF FF 7F F0 FF FF 7F  6F 76 6C 31 01 80 45 04  ........ovl1..E.
1140: 80 F8 FF FF 7F F8 FF FF  7F 73 30 30 37 01 80 1C  .........s007...
1150: 11 80 2A 0B 76 60 00 01  45 00 80 F8 FF FF 7F F8  ..*.v`..E.......
1160: FF FF 7F 66 64 6F 31 01  80 1C 02 80 4E 01 75 60  ...fdo1.....N.u`
1170: 00 01 4E 00 7E 60 00 01  80 7E 60 00 01 52 04 80  ..N.~`...~`..R..
1180: F8 FF FF 7F F8 FF FF 7F  73 30 30 37 9F 53 80 7E  ........s007.S.~
1190: 60 00 01 7E 60 00 01 6D  61 69 6E 01 80 9F 54 80  `..~`..main...T.
11A0: 7E 60 00 01 7E 60 00 01  73 74 72 30 01 80 45 04  ~`..~`..str0..E.
11B0: 80 F8 FF FF 7F F8 FF FF  7F 73 30 36 38 01 80 45  .........s068..E
11C0: 55 80 F0 FF FF 7F F0 FF  FF 7F 65 66 62 6C 01 80  U.........efbl..
11D0: 1C 11 80 45 00 80 F8 FF  FF 7F F8 FF FF 7F 66 64  ...E..........fd
11E0: 69 31 01 80 45 08 80 F0  FF FF 7F F0 FF FF 7F 77  i1..E..........w
11F0: 68 6F 31 01 80 1C 02 80  5C 00 01 80 5C 01 01 80  ho1.....\...\...
1200: 52 04 80 F8 FF FF 7F F8  FF FF 7F 73 30 36 38 4E  R..........s068N
1210: 00 75 60 00 01 9F 54 80  7E 60 00 01 7E 60 00 01  .u`...T.~`..~`..
1220: 6B 69 6C 6C 01 80 9F 53  80 7E 60 00 01 7E 60 00  kill...S.~`..~`.
1230: 01 6B 69 6C 6C 01 80 4E  01 7E 60 00 01 02 09 10  .kill..N.~`.....
1240: 1F 80 00 59 12 45 04 80  F8 FF FF 7F F8 FF FF 7F  ...Y.E..........
1250: 73 30 36 34 01 80 01 86  12 02 09 10 20 80 00 75  s064........ ..u
1260: 12 45 04 80 F8 FF FF 7F  F8 FF FF 7F 73 30 36 34  .E..........s064
1270: 01 80 01 86 12 45 04 80  F8 FF FF 7F F8 FF FF 7F  .....E..........
1280: 73 30 30 32 01 80 45 08  80 F0 FF FF 7F F0 FF FF  s002..E.........
1290: 7F 77 68 69 31 01 80 79  00 76 60 00 01 7C 60 00  .whi1..y.v`..|`.
12A0: 01 1C 42 80 4A F0 FF FF  7F 7C 60 00 01 1C 10 80  ..B.J....|`.....
12B0: 02 09 10 1F 80 00 CA 12  52 04 80 F8 FF FF 7F F8  ........R.......
12C0: FF FF 7F 73 30 36 34 01  F3 12 02 09 10 20 80 00  ...s064...... ..
12D0: E4 12 52 04 80 F8 FF FF  7F F8 FF FF 7F 73 30 36  ..R..........s06
12E0: 34 01 F3 12 52 04 80 F8  FF FF 7F F8 FF FF 7F 73  4...R..........s
12F0: 30 30 32 45 04 80 F8 FF  FF 7F F8 FF FF 7F 73 30  002E..........s0
1300: 30 35 01 80 4E 00 7C 60  00 01 45 04 80 F8 FF FF  05..N.|`..E.....
1310: 7F F8 FF FF 7F 73 65 36  37 01 80 9F 56 80 7D 60  .....se67...V.}`
1320: 00 01 7D 60 00 01 73 74  72 30 01 80 4A 76 60 00  ..}`..str0..Jv`.
1330: 01 7C 60 00 01 6F 76 76  60 00 01 29 08 76 60 00  .|`..ovv`..).v`.
1340: 01 0F 2B 76 60 00 01 57  80 23 29 08 76 60 00 01  ..+v`..W.#).v`..
1350: 10 6F 76 F0 FF FF 7F 80  7C 60 00 01 52 04 80 F8  .ov.....|`..R...
1360: FF FF 7F F8 FF FF 7F 73  30 30 35 45 04 80 F8 FF  .......s005E....
1370: FF 7F F8 FF FF 7F 73 30  30 39 01 80 45 04 80 F8  ......s009..E...
1380: FF FF 7F F8 FF FF 7F 73  65 36 38 01 80 45 04 80  .......se68..E..
1390: F8 FF FF 7F F8 FF FF 7F  73 65 37 65 01 80 9F 56  ........se7e...V
13A0: 80 7C 60 00 01 7C 60 00  01 6D 73 74 30 01 80 9F  .|`..|`..mst0...
13B0: 56 80 7D 60 00 01 7D 60  00 01 73 74 70 30 01 80  V.}`..}`..stp0..
13C0: 27 0B 7C 60 00 01 04 1C  44 80 1C 58 80 52 04 80  '.|`....D..X.R..
13D0: F8 FF FF 7F F8 FF FF 7F  73 30 30 39 45 00 80 F0  ........s009E...
13E0: FF FF 7F F0 FF FF 7F 6F  76 6C 31 01 80 45 04 80  .......ovl1..E..
13F0: F8 FF FF 7F F8 FF FF 7F  73 30 30 36 01 80 1C 00  ........s006....
1400: 80 29 08 77 60 00 01 1B  52 04 80 F8 FF FF 7F F8  .).w`...R.......
1410: FF FF 7F 73 30 30 36 45  04 80 F8 FF FF 7F F8 FF  ...s006E........
1420: FF 7F 73 30 30 38 01 80  5C 00 59 80 5C 01 59 80  ..s008..\.Y.\.Y.
1430: 2B 77 60 00 01 5A 80 23  45 4A 80 F8 FF FF 7F F8  +w`..Z.#EJ......
1440: FF FF 7F 73 65 38 30 01  80 29 08 79 60 00 01 0A  ...se80..).y`...
1450: 52 04 80 F8 FF FF 7F F8  FF FF 7F 73 30 30 38 45  R..........s008E
1460: 04 80 F8 FF FF 7F F8 FF  FF 7F 73 30 36 37 01 80  ..........s067..
1470: 2B 79 60 00 01 5B 80 23  29 08 79 60 00 01 0B 9F  +y`..[.#).y`....
1480: 56 80 7C 60 00 01 7C 60  00 01 73 73 74 70 01 80  V.|`..|`..sstp..
1490: 29 08 76 60 00 01 11 52  04 80 F8 FF FF 7F F8 FF  ).v`...R........
14A0: FF 7F 73 30 36 37 45 04  80 F8 FF FF 7F F8 FF FF  ..s067E.........
14B0: 7F 73 30 31 30 01 80 2B  79 60 00 01 5C 80 23 79  .s010..+y`..\.#y
14C0: 00 78 60 00 01 7C 60 00  01 27 0B 78 60 00 01 49  .x`..|`..'.x`..I
14D0: 2B 78 60 00 01 5D 80 23  2A 0B 78 60 00 01 29 08  +x`..].#*.x`..).
14E0: 76 60 00 01 12 29 08 77  60 00 01 1C 52 04 80 F8  v`...).w`...R...
14F0: FF FF 7F F8 FF FF 7F 73  30 31 30 45 04 80 F8 FF  .......s010E....
1500: FF 7F F8 FF FF 7F 73 30  31 31 01 80 29 08 77 60  ......s011..).w`
1510: 00 01 1D 79 00 F0 FF FF  7F 76 60 00 01 4B F0 FF  ...y.....v`..K..
1520: FF 7F 5E 80 1C 44 80 6F  76 F0 FF FF 7F 52 04 80  ..^..D.ov....R..
1530: F8 FF FF 7F F8 FF FF 7F  73 30 31 31 45 04 80 F8  ........s011E...
1540: FF FF 7F F8 FF FF 7F 73  30 31 32 01 80 7B 76 60  .......s012..{v`
1550: 00 01 27 0B 76 60 00 01  9D 1C 06 80 4A F0 FF FF  ..'.v`......J...
1560: 7F 76 60 00 01 6F 76 F0  FF FF 7F 1C 06 80 52 04  .v`..ov.......R.
1570: 80 F8 FF FF 7F F8 FF FF  7F 73 30 31 32 45 04 80  .........s012E..
1580: F8 FF FF 7F F8 FF FF 7F  73 30 31 33 01 80 27 0B  ........s013..'.
1590: 79 60 00 01 35 27 0B 78  60 00 01 4A 2B 79 60 00  y`..5'.x`..J+y`.
15A0: 01 5F 80 23 1C 10 80 1C  19 80 52 04 80 F8 FF FF  ._.#......R.....
15B0: 7F F8 FF FF 7F 73 30 31  33 45 04 80 F8 FF FF 7F  .....s013E......
15C0: F8 FF FF 7F 73 30 31 34  01 80 2A 0B 76 60 00 01  ....s014..*.v`..
15D0: 2B 76 60 00 01 60 80 23  52 04 80 F8 FF FF 7F F8  +v`..`.#R.......
15E0: FF FF 7F 73 30 31 34 45  00 80 F0 FF FF 7F F0 FF  ...s014E........
15F0: FF 7F 6F 76 6C 31 01 80  45 04 80 F8 FF FF 7F F8  ..ovl1..E.......
1600: FF FF 7F 73 30 31 35 01  80 2B 76 60 00 01 61 80  ...s015..+v`..a.
1610: 23 29 08 77 60 00 01 1E  29 08 77 60 00 01 3D 52  #).w`...).w`..=R
1620: 04 80 F8 FF FF 7F F8 FF  FF 7F 73 30 31 35 45 04  ..........s015E.
1630: 80 F8 FF FF 7F F8 FF FF  7F 73 30 31 36 01 80 2B  .........s016..+
1640: 77 60 00 01 62 80 23 1C  02 80 27 0B F0 FF FF 7F  w`..b.#...'.....
1650: 17 27 0B 79 60 00 01 36  27 0B 78 60 00 01 4B 1C  .'.y`..6'.x`..K.
1660: 17 80 52 04 80 F8 FF FF  7F F8 FF FF 7F 73 30 31  ..R..........s01
1670: 36 45 04 80 F8 FF FF 7F  F8 FF FF 7F 73 30 31 37  6E..........s017
1680: 01 80 1C 44 80 52 04 80  F8 FF FF 7F F8 FF FF 7F  ...D.R..........
1690: 73 30 31 37 45 04 80 F8  FF FF 7F F8 FF FF 7F 73  s017E..........s
16A0: 30 31 38 01 80 45 04 80  F8 FF FF 7F F8 FF FF 7F  018..E..........
16B0: 73 65 36 39 01 80 4E 01  79 60 00 01 4E 01 78 60  se69..N.y`..N.x`
16C0: 00 01 4E 01 F0 FF FF 7F  27 0B 7C 60 00 01 05 45  ..N.....'.|`...E
16D0: 04 80 F8 FF FF 7F F8 FF  FF 7F 73 65 38 65 01 80  ..........se8e..
16E0: 1C 11 80 1C 11 80 45 08  80 F0 FF FF 7F F0 FF FF  ......E.........
16F0: 7F 77 68 6F 31 01 80 1C  00 80 5D 10 80 00 80 45  .who1.....]....E
1700: 00 80 F0 FF FF 7F F0 FF  FF 7F 66 64 6F 31 01 80  ..........fdo1..
1710: 1C 00 80 52 04 80 F8 FF  FF 7F F8 FF FF 7F 73 30  ...R..........s0
1720: 31 38 45 08 80 F0 FF FF  7F F0 FF FF 7F 77 68 69  18E..........whi
1730: 31 01 80 1C 02 80 29 08  77 60 00 01 41 4E 00 79  1.....).w`..AN.y
1740: 60 00 01 4E 00 78 60 00  01 4E 00 F0 FF FF 7F 80  `..N.x`..N......
1750: 79 60 00 01 80 78 60 00  01 80 F0 FF FF 7F 9F 63  y`...x`........c
1760: 80 F8 FF FF 7F F8 FF FF  7F 6D 61 69 6E 01 80 1C  .........main...
1770: 10 80 9F 63 80 F8 FF FF  7F F8 FF FF 7F 6D 61 69  ...c.........mai
1780: 6E 01 80 1C 10 80 9F 63  80 F8 FF FF 7F F8 FF FF  n......c........
1790: 7F 6D 61 69 6E 01 80 1C  11 80 29 0B F0 FF FF 7F  .main.....).....
17A0: 18 29 0B 79 60 00 01 37  29 0B 7A 60 00 01 34 29  .).y`..7).z`..4)
17B0: 0B 7B 60 00 01 34 29 0B  77 60 00 01 47 29 0B 78  .{`..4).w`..G).x
17C0: 60 00 01 4C 4B F0 FF FF  7F 64 80 6F 76 F0 FF FF  `..LK....d.ov...
17D0: 7F 27 0B 79 60 00 01 38  1C 17 80 27 0B 7A 60 00  .'.y`..8...'.z`.
17E0: 01 35 1C 17 80 27 0B 7B  60 00 01 35 27 0B 78 60  .5...'.{`..5'.x`
17F0: 00 01 4D 79 00 F0 FF FF  7F 79 60 00 01 79 00 77  ..My.....y`..y.w
1800: 60 00 01 79 60 00 01 45  4A 80 F8 FF FF 7F F8 FF  `..y`..EJ.......
1810: FF 7F 73 30 37 37 01 80  45 00 80 F0 FF FF 7F F0  ..s077..E.......
1820: FF FF 7F 66 64 69 31 01  80 1C 18 80 27 0B 77 60  ...fdi1.....'.w`
1830: 00 01 48 1C 06 80 52 4A  80 F8 FF FF 7F F8 FF FF  ..H...RJ........
1840: 7F 73 30 37 37 02 09 10  1C 80 00 61 18 45 4A 80  .s077......a.EJ.
1850: F8 FF FF 7F F8 FF FF 7F  73 30 38 31 01 80 01 8E  ........s081....
1860: 18 02 09 10 1B 80 00 7D  18 45 4A 80 F8 FF FF 7F  .......}.EJ.....
1870: F8 FF FF 7F 73 30 38 31  01 80 01 8E 18 45 4A 80  ....s081.....EJ.
1880: F8 FF FF 7F F8 FF FF 7F  73 30 37 38 01 80 2A 0B  ........s078..*.
1890: 77 60 00 01 79 00 F0 FF  FF 7F 77 60 00 01 2B 77  w`..y.....w`..+w
18A0: 60 00 01 65 80 23 02 09  10 1C 80 00 C0 18 52 4A  `..e.#........RJ
18B0: 80 F8 FF FF 7F F8 FF FF  7F 73 30 38 31 01 E9 18  .........s081...
18C0: 02 09 10 1B 80 00 DA 18  52 4A 80 F8 FF FF 7F F8  ........RJ......
18D0: FF FF 7F 73 30 38 31 01  E9 18 52 4A 80 F8 FF FF  ...s081...RJ....
18E0: 7F F8 FF FF 7F 73 30 37  38 45 4A 80 F8 FF FF 7F  .....s078EJ.....
18F0: F8 FF FF 7F 73 30 37 39  01 80 4E 01 78 60 00 01  ....s079..N.x`..
1900: 4A 77 60 00 01 F0 FF FF  7F 6F 76 77 60 00 01 2B  Jw`......ovw`..+
1910: 77 60 00 01 66 80 23 52  4A 80 F8 FF FF 7F F8 FF  w`..f.#RJ.......
1920: FF 7F 73 30 37 39 45 4A  80 F8 FF FF 7F F8 FF FF  ..s079EJ........
1930: 7F 73 30 38 30 01 80 27  0B 77 60 00 01 49 1C 11  .s080..'.w`..I..
1940: 80 5D 01 80 11 80 45 00  80 F0 FF FF 7F F0 FF FF  .]....E.........
1950: 7F 66 64 6F 31 01 80 1C  11 80 52 4A 80 F8 FF FF  .fdo1.....RJ....
1960: 7F F8 FF FF 7F 73 30 38  30 2A 0B 79 60 00 01 2A  .....s080*.y`..*
1970: 0B 7A 60 00 01 2A 0B 7B  60 00 01 2A 0B 77 60 00  .z`..*.{`..*.w`.
1980: 01 4E 01 79 60 00 01 4E  01 7A 60 00 01 4E 01 7B  .N.y`..N.z`..N.{
1990: 60 00 01 4E 00 F0 FF FF  7F 80 F0 FF FF 7F 00     `..N........... 
```

#### Opcodes

```
  0: 0x0D44 [0x5D] SET_MUSIC_VOLUME(volume=0*, fade_time=100*)
  1: 0x0D49 [0x29] REQ_SET_WAIT(priority=0x08, entity_id=LocalPlayer, tag_num=0x09)
  2: 0x0D50 [0x4E] SET_ENTITY_HIDE_FLAG: Show Prishe (ID: 16801910/0x01006076)
  3: 0x0D56 [0x4E] SET_ENTITY_HIDE_FLAG: Show Ulmia (ID: 16801911/0x01006077)
  4: 0x0D5C [0x4E] SET_ENTITY_HIDE_FLAG: Show Louverance (ID: 16801912/0x01006078)
  5: 0x0D62 [0x4E] SET_ENTITY_HIDE_FLAG: Show ??? (ID: 16801909/0x01006075)
  6: 0x0D68 [0x4E] SET_ENTITY_HIDE_FLAG: Show Shikaree Z (ID: 16801913/0x01006079)
  7: 0x0D6E [0x4E] SET_ENTITY_HIDE_FLAG: Show Shikaree Y (ID: 16801914/0x0100607A)
  8: 0x0D74 [0x4E] SET_ENTITY_HIDE_FLAG: Show Shikaree X (ID: 16801915/0x0100607B)
  9: 0x0D7A [0x4E] SET_ENTITY_HIDE_FLAG: Show ??? (ID: 16801917/0x0100607D)
 10: 0x0D80 [0x4E] SET_ENTITY_HIDE_FLAG: Hide Unnamed NPC (ID: 16801916/0x0100607C)
 11: 0x0D86 [0x80] LOAD_WAIT(entity=Prishe (ID: 16801910/0x01006076))
 12: 0x0D8B [0x80] LOAD_WAIT(entity=Ulmia (ID: 16801911/0x01006077))
 13: 0x0D90 [0x80] LOAD_WAIT(entity=Louverance (ID: 16801912/0x01006078))
 14: 0x0D95 [0x80] LOAD_WAIT(entity=??? (ID: 16801909/0x01006075))
 15: 0x0D9A [0x80] LOAD_WAIT(entity=Shikaree Z (ID: 16801913/0x01006079))
 16: 0x0D9F [0x80] LOAD_WAIT(entity=Shikaree Y (ID: 16801914/0x0100607A))
 17: 0x0DA4 [0x80] LOAD_WAIT(entity=Shikaree X (ID: 16801915/0x0100607B))
 18: 0x0DA9 [0x80] LOAD_WAIT(entity=??? (ID: 16801917/0x0100607D))
 19: 0x0DAE [0x29] REQ_SET_WAIT(priority=0x0B, entity_id=LocalPlayer, tag_num=0x16)
 20: 0x0DB5 [0x29] REQ_SET_WAIT(priority=0x0B, entity_id=Prishe (ID: 16801910/0x01006076), tag_num=0x9A)
 21: 0x0DBC [0x29] REQ_SET_WAIT(priority=0x0B, entity_id=Shikaree Z (ID: 16801913/0x01006079), tag_num=0x33)
 22: 0x0DC3 [0x29] REQ_SET_WAIT(priority=0x0B, entity_id=Louverance (ID: 16801912/0x01006078), tag_num=0x47)
 23: 0x0DCA [0x29] REQ_SET_WAIT(priority=0x0B, entity_id=Ulmia (ID: 16801911/0x01006077), tag_num=0x46)
 24: 0x0DD1 [0x29] REQ_SET_WAIT(priority=0x0B, entity_id=Shikaree Y (ID: 16801914/0x0100607A), tag_num=0x33)
 25: 0x0DD8 [0x29] REQ_SET_WAIT(priority=0x0B, entity_id=Shikaree X (ID: 16801915/0x0100607B), tag_num=0x33)
 26: 0x0DDF [0x29] REQ_SET_WAIT(priority=0x0B, entity_id=Louverance (ID: 16801912/0x01006078), tag_num=0x3B)
 27: 0x0DE6 [0x29] REQ_SET_WAIT(priority=0x08, entity_id=Shikaree Z (ID: 16801913/0x01006079), tag_num=0x1F)
 28: 0x0DED [0x29] REQ_SET_WAIT(priority=0x08, entity_id=Shikaree Y (ID: 16801914/0x0100607A), tag_num=0x1B)
 29: 0x0DF4 [0x29] REQ_SET_WAIT(priority=0x08, entity_id=Shikaree X (ID: 16801915/0x0100607B), tag_num=0x27)
 30: 0x0DFB [0x29] REQ_SET_WAIT(priority=0x08, entity_id=Shikaree Z (ID: 16801913/0x01006079), tag_num=0x20)
 31: 0x0E02 [0x29] REQ_SET_WAIT(priority=0x08, entity_id=Shikaree Y (ID: 16801914/0x0100607A), tag_num=0x1C)
 32: 0x0E09 [0x29] REQ_SET_WAIT(priority=0x08, entity_id=Shikaree X (ID: 16801915/0x0100607B), tag_num=0x28)
 33: 0x0E10 [0x29] REQ_SET_WAIT(priority=0x08, entity_id=Ulmia (ID: 16801911/0x01006077), tag_num=0x01)
 34: 0x0E17 [0x29] REQ_SET_WAIT(priority=0x08, entity_id=Ulmia (ID: 16801911/0x01006077), tag_num=0x02)
 35: 0x0E1E [0x37] UPDATE_EVENT_POSITION_AND_DIR: x=-462.563*, z=-200.062*, y=0.750*, direction=78.0°*
 36: 0x0E27 [0x1C] WAIT(100* ticks)
 37: 0x0E2A [0x9F] LOAD_SCHEDULED_TASK_ALT: Load scheduler "str0" with entities [EventEntity, EventEntity], work=[67*, 0*]
 38: 0x0E3B [0x45] LOAD_SCHEDULED_TASK: Load scheduler "s065" with entities [EventEntity, EventEntity], work=[171*, 0*]
 39: 0x0E4C [0x45] LOAD_SCHEDULED_TASK: Load scheduler "fdi1" with entities [EventEntity, EventEntity], work=[200*, 0*]
 40: 0x0E5D [0x1C] WAIT(60* ticks)
 41: 0x0E60 [0x45] LOAD_SCHEDULED_TASK: Load scheduler "se80" with entities [EventEntity, EventEntity], work=[174*, 0*]
 42: 0x0E71 [0x29] REQ_SET_WAIT(priority=0x08, entity_id=Shikaree Y (ID: 16801914/0x0100607A), tag_num=0x1D)
 43: 0x0E78 [0x1C] WAIT(40* ticks)
 44: 0x0E7B [0x45] LOAD_SCHEDULED_TASK: Load scheduler "se82" with entities [EventEntity, EventEntity], work=[174*, 0*]
 45: 0x0E8C [0x29] REQ_SET_WAIT(priority=0x08, entity_id=Shikaree X (ID: 16801915/0x0100607B), tag_num=0x29)
 46: 0x0E93 [0x1C] WAIT(30* ticks)
 47: 0x0E96 [0x52] END_LOAD_SCHEDULER: End scheduler "s065" with entities [EventEntity, EventEntity], work=171*
 48: 0x0EA5 [0x45] LOAD_SCHEDULED_TASK: Load scheduler "ovl1" with entities [LocalPlayer, LocalPlayer], work=[200*, 0*]
 49: 0x0EB6 [0x45] LOAD_SCHEDULED_TASK: Load scheduler "s066" with entities [EventEntity, EventEntity], work=[171*, 0*]
 50: 0x0EC7 [0x1C] WAIT(60* ticks)
 51: 0x0ECA [0x45] LOAD_SCHEDULED_TASK: Load scheduler "se80" with entities [EventEntity, EventEntity], work=[174*, 0*]
 52: 0x0EDB [0x29] REQ_SET_WAIT(priority=0x08, entity_id=Shikaree Z (ID: 16801913/0x01006079), tag_num=0x23)
 53: 0x0EE2 [0x29] REQ_SET_WAIT(priority=0x08, entity_id=Ulmia (ID: 16801911/0x01006077), tag_num=0x03)
 54: 0x0EE9 [0x1C] WAIT(100* ticks)
 55: 0x0EEC [0x79] Prishe (ID: 16801910/0x01006076) looks at LocalPlayer (Basic look)
 56: 0x0EF6 [0x27] REQ_SET(priority=0x0B, entity_id=Prishe (ID: 16801910/0x01006076), tag_num=0x9B)
 57: 0x0EFD [0x52] END_LOAD_SCHEDULER: End scheduler "s066" with entities [EventEntity, EventEntity], work=171*
 58: 0x0F0C [0x45] LOAD_SCHEDULED_TASK: Load scheduler "s000" with entities [EventEntity, EventEntity], work=[171*, 0*]
 59: 0x0F1D [0x2A] GET_REQ_LEVEL(level=11, entity_id=Prishe (ID: 16801910/0x01006076))
 60: 0x0F23 [0x4A] LocalPlayer looks at Prishe (ID: 16801910/0x01006076)
 61: 0x0F2C [0x6F] WAIT_FRAME_DELAY: Yield until WaitTime reaches zero
 62: 0x0F2D [0x76] CHECK_ENTITY_RENDER_FLAGS: Wait until LocalPlayer Render.Flags0 and Render.Flags3 conditions are met
 63: 0x0F32 [0x52] END_LOAD_SCHEDULER: End scheduler "s000" with entities [EventEntity, EventEntity], work=171*
 64: 0x0F41 [0x02] IF !(Work_Zone[9] == 3*) GOTO 0x0F5D
 65: 0x0F49 [0x45] LOAD_SCHEDULED_TASK: Load scheduler "s063" with entities [EventEntity, EventEntity], work=[171*, 0*]
 66: 0x0F5A [0x01] GOTO 0x0F8A
 67: 0x0F5D [0x02] IF !(Work_Zone[9] == 8*) GOTO 0x0F79
 68: 0x0F65 [0x45] LOAD_SCHEDULED_TASK: Load scheduler "s063" with entities [EventEntity, EventEntity], work=[171*, 0*]
 69: 0x0F76 [0x01] GOTO 0x0F8A
 70: 0x0F79 [0x45] LOAD_SCHEDULED_TASK: Load scheduler "s002" with entities [EventEntity, EventEntity], work=[171*, 0*]

SUBROUTINE_0F8A:
 71: 0x0F8A [0x29] REQ_SET_WAIT(priority=0x08, entity_id=Ulmia (ID: 16801911/0x01006077), tag_num=0x04)
 72: 0x0F91 [0x29] REQ_SET_WAIT(priority=0x0B, entity_id=Louverance (ID: 16801912/0x01006078), tag_num=0x48)
 73: 0x0F98 [0x29] REQ_SET_WAIT(priority=0x0B, entity_id=Louverance (ID: 16801912/0x01006078), tag_num=0x3C)
 74: 0x0F9F [0x29] REQ_SET_WAIT(priority=0x08, entity_id=Prishe (ID: 16801910/0x01006076), tag_num=0x1B)
 75: 0x0FA6 [0x2B] Prishe (ID: 16801910/0x01006076) [7667*]:
    → "<Player>! I knew you were tough!"
 76: 0x0FAD [0x23] WAIT_FOR_DIALOG_INTERACTION
 77: 0x0FAE [0x2B] Prishe (ID: 16801910/0x01006076) [7668*]:
    → "That guy definitely has an eye for adventurers. Talk about dumb luck!"
 78: 0x0FB5 [0x23] WAIT_FOR_DIALOG_INTERACTION
 79: 0x0FB6 [0x29] REQ_SET_WAIT(priority=0x08, entity_id=Prishe (ID: 16801910/0x01006076), tag_num=0x1C)
 80: 0x0FBD [0x02] IF !(Work_Zone[9] == 3*) GOTO 0x0FD7
 81: 0x0FC5 [0x52] END_LOAD_SCHEDULER: End scheduler "s063" with entities [EventEntity, EventEntity], work=171*
 82: 0x0FD4 [0x01] GOTO 0x1000
 83: 0x0FD7 [0x02] IF !(Work_Zone[9] == 8*) GOTO 0x0FF1
 84: 0x0FDF [0x52] END_LOAD_SCHEDULER: End scheduler "s063" with entities [EventEntity, EventEntity], work=171*
 85: 0x0FEE [0x01] GOTO 0x1000
 86: 0x0FF1 [0x52] END_LOAD_SCHEDULER: End scheduler "s002" with entities [EventEntity, EventEntity], work=171*

SUBROUTINE_1000:
 87: 0x1000 [0x45] LOAD_SCHEDULED_TASK: Load scheduler "s001" with entities [EventEntity, EventEntity], work=[171*, 0*]
 88: 0x1011 [0x27] REQ_SET(priority=0x0B, entity_id=Prishe (ID: 16801910/0x01006076), tag_num=0x9C)
 89: 0x1018 [0x27] REQ_SET(priority=0x0B, entity_id=Shikaree Z (ID: 16801913/0x01006079), tag_num=0x34)
 90: 0x101F [0x2B] Shikaree Z (ID: 16801913/0x01006079) [7669*]:
    → "What happened to the rrresting place of the sleeping god...?"
 91: 0x1026 [0x23] WAIT_FOR_DIALOG_INTERACTION
 92: 0x1027 [0x2A] GET_REQ_LEVEL(level=11, entity_id=Shikaree Z (ID: 16801913/0x01006079))
 93: 0x102D [0x27] REQ_SET(priority=0x0B, entity_id=Louverance (ID: 16801912/0x01006078), tag_num=0x3D)
 94: 0x1034 [0x2A] GET_REQ_LEVEL(level=11, entity_id=Louverance (ID: 16801912/0x01006078))
 95: 0x103A [0x4A] Louverance (ID: 16801912/0x01006078) looks at Shikaree Z (ID: 16801913/0x01006079)
 96: 0x1043 [0x6F] WAIT_FRAME_DELAY: Yield until WaitTime reaches zero
 97: 0x1044 [0x76] CHECK_ENTITY_RENDER_FLAGS: Wait until Louverance (ID: 16801912/0x01006078) Render.Flags0 and Render.Flags3 conditions are met
 98: 0x1049 [0x29] REQ_SET_WAIT(priority=0x08, entity_id=Louverance (ID: 16801912/0x01006078), tag_num=0x01)
 99: 0x1050 [0x2B] Louverance (ID: 16801912/0x01006078) [7670*]:
    → "You know of the divinity said to slumber here?"
100: 0x1057 [0x23] WAIT_FOR_DIALOG_INTERACTION
101: 0x1058 [0x29] REQ_SET_WAIT(priority=0x08, entity_id=Louverance (ID: 16801912/0x01006078), tag_num=0x02)
102: 0x105F [0x52] END_LOAD_SCHEDULER: End scheduler "s001" with entities [EventEntity, EventEntity], work=171*
103: 0x106E [0x45] LOAD_SCHEDULED_TASK: Load scheduler "s004" with entities [EventEntity, EventEntity], work=[171*, 0*]
104: 0x107F [0x29] REQ_SET_WAIT(priority=0x08, entity_id=Shikaree Z (ID: 16801913/0x01006079), tag_num=0x05)
105: 0x1086 [0x2B] Shikaree Z (ID: 16801913/0x01006079) [7671*]:
    → "There should be an enormous crystal of darkness here."
106: 0x108D [0x23] WAIT_FOR_DIALOG_INTERACTION
107: 0x108E [0x29] REQ_SET_WAIT(priority=0x08, entity_id=Shikaree Z (ID: 16801913/0x01006079), tag_num=0x06)
108: 0x1095 [0x5D] SET_MUSIC_VOLUME(volume=0*, fade_time=200*)
109: 0x109A [0x29] REQ_SET_WAIT(priority=0x08, entity_id=Shikaree Z (ID: 16801913/0x01006079), tag_num=0x07)
110: 0x10A1 [0x2B] Shikaree Z (ID: 16801913/0x01006079) [7672*]:
    → "It can't be... The beastman deity you speak of...!"
111: 0x10A8 [0x23] WAIT_FOR_DIALOG_INTERACTION
112: 0x10A9 [0x29] REQ_SET_WAIT(priority=0x08, entity_id=Shikaree Z (ID: 16801913/0x01006079), tag_num=0x08)
113: 0x10B0 [0x79] Shikaree Z (ID: 16801913/0x01006079) looks at ??? (ID: 16801909/0x01006075) (Basic look)
114: 0x10BA [0x1C] WAIT(30* ticks)
115: 0x10BD [0x52] END_LOAD_SCHEDULER: End scheduler "s004" with entities [EventEntity, EventEntity], work=171*
116: 0x10CC [0x45] LOAD_SCHEDULED_TASK: Load scheduler "blon" with entities [LocalPlayer, LocalPlayer], work=[200*, 0*]
117: 0x10DD [0x45] LOAD_SCHEDULED_TASK: Load scheduler "blon" with entities [LocalPlayer, LocalPlayer], work=[201*, 0*]
118: 0x10EE [0x45] LOAD_SCHEDULED_TASK: Load scheduler "s003" with entities [EventEntity, EventEntity], work=[171*, 0*]
119: 0x10FF [0x2B] Shikaree Z (ID: 16801913/0x01006079) [7673*]:
    → "!!!"
120: 0x1106 [0x23] WAIT_FOR_DIALOG_INTERACTION
121: 0x1107 [0x1C] WAIT(20* ticks)
122: 0x110A [0x45] LOAD_SCHEDULED_TASK: Load scheduler "blof" with entities [LocalPlayer, LocalPlayer], work=[200*, 0*]
123: 0x111B [0x1C] WAIT(60* ticks)
124: 0x111E [0x52] END_LOAD_SCHEDULER: End scheduler "s003" with entities [EventEntity, EventEntity], work=171*
125: 0x112D [0x45] LOAD_SCHEDULED_TASK: Load scheduler "ovl1" with entities [LocalPlayer, LocalPlayer], work=[200*, 0*]
126: 0x113E [0x45] LOAD_SCHEDULED_TASK: Load scheduler "s007" with entities [EventEntity, EventEntity], work=[171*, 0*]
127: 0x114F [0x1C] WAIT(100* ticks)
128: 0x1152 [0x2A] GET_REQ_LEVEL(level=11, entity_id=Prishe (ID: 16801910/0x01006076))
129: 0x1158 [0x45] LOAD_SCHEDULED_TASK: Load scheduler "fdo1" with entities [EventEntity, EventEntity], work=[200*, 0*]
130: 0x1169 [0x1C] WAIT(60* ticks)
131: 0x116C [0x4E] SET_ENTITY_HIDE_FLAG: Hide ??? (ID: 16801909/0x01006075)
132: 0x1172 [0x4E] SET_ENTITY_HIDE_FLAG: Show ??? (ID: 16801918/0x0100607E)
133: 0x1178 [0x80] LOAD_WAIT(entity=??? (ID: 16801918/0x0100607E))
134: 0x117D [0x52] END_LOAD_SCHEDULER: End scheduler "s007" with entities [EventEntity, EventEntity], work=171*
135: 0x118C [0x9F] LOAD_SCHEDULED_TASK_ALT: Load scheduler "main" with entities [??? (ID: 16801918/0x0100607E), ??? (ID: 16801918/0x0100607E)], work=[103*, 0*]
136: 0x119D [0x9F] LOAD_SCHEDULED_TASK_ALT: Load scheduler "str0" with entities [??? (ID: 16801918/0x0100607E), ??? (ID: 16801918/0x0100607E)], work=[61*, 0*]
137: 0x11AE [0x45] LOAD_SCHEDULED_TASK: Load scheduler "s068" with entities [EventEntity, EventEntity], work=[171*, 0*]
138: 0x11BF [0x45] LOAD_SCHEDULED_TASK: Load scheduler "efbl" with entities [LocalPlayer, LocalPlayer], work=[156*, 0*]
139: 0x11D0 [0x1C] WAIT(100* ticks)
140: 0x11D3 [0x45] LOAD_SCHEDULED_TASK: Load scheduler "fdi1" with entities [EventEntity, EventEntity], work=[200*, 0*]
141: 0x11E4 [0x45] LOAD_SCHEDULED_TASK: Load scheduler "who1" with entities [LocalPlayer, LocalPlayer], work=[201*, 0*]
142: 0x11F5 [0x1C] WAIT(60* ticks)
143: 0x11F8 [0x5C] MUSIC_CONTROL: Set Idle (Day) music to song 0*
144: 0x11FC [0x5C] MUSIC_CONTROL: Set Idle (Night) music to song 0*
145: 0x1200 [0x52] END_LOAD_SCHEDULER: End scheduler "s068" with entities [EventEntity, EventEntity], work=171*
146: 0x120F [0x4E] SET_ENTITY_HIDE_FLAG: Show ??? (ID: 16801909/0x01006075)
147: 0x1215 [0x9F] LOAD_SCHEDULED_TASK_ALT: Load scheduler "kill" with entities [??? (ID: 16801918/0x0100607E), ??? (ID: 16801918/0x0100607E)], work=[61*, 0*]
148: 0x1226 [0x9F] LOAD_SCHEDULED_TASK_ALT: Load scheduler "kill" with entities [??? (ID: 16801918/0x0100607E), ??? (ID: 16801918/0x0100607E)], work=[103*, 0*]
149: 0x1237 [0x4E] SET_ENTITY_HIDE_FLAG: Hide ??? (ID: 16801918/0x0100607E)
150: 0x123D [0x02] IF !(Work_Zone[9] == 3*) GOTO 0x1259
151: 0x1245 [0x45] LOAD_SCHEDULED_TASK: Load scheduler "s064" with entities [EventEntity, EventEntity], work=[171*, 0*]
152: 0x1256 [0x01] GOTO 0x1286
153: 0x1259 [0x02] IF !(Work_Zone[9] == 8*) GOTO 0x1275
154: 0x1261 [0x45] LOAD_SCHEDULED_TASK: Load scheduler "s064" with entities [EventEntity, EventEntity], work=[171*, 0*]
155: 0x1272 [0x01] GOTO 0x1286
156: 0x1275 [0x45] LOAD_SCHEDULED_TASK: Load scheduler "s002" with entities [EventEntity, EventEntity], work=[171*, 0*]

SUBROUTINE_1286:
157: 0x1286 [0x45] LOAD_SCHEDULED_TASK: Load scheduler "whi1" with entities [LocalPlayer, LocalPlayer], work=[201*, 0*]
158: 0x1297 [0x79] Prishe (ID: 16801910/0x01006076) looks at Unnamed NPC (ID: 16801916/0x0100607C) (Basic look)
159: 0x12A1 [0x1C] WAIT(50* ticks)
160: 0x12A4 [0x4A] LocalPlayer looks at Unnamed NPC (ID: 16801916/0x0100607C)
161: 0x12AD [0x1C] WAIT(30* ticks)
162: 0x12B0 [0x02] IF !(Work_Zone[9] == 3*) GOTO 0x12CA
163: 0x12B8 [0x52] END_LOAD_SCHEDULER: End scheduler "s064" with entities [EventEntity, EventEntity], work=171*
164: 0x12C7 [0x01] GOTO 0x12F3
165: 0x12CA [0x02] IF !(Work_Zone[9] == 8*) GOTO 0x12E4
166: 0x12D2 [0x52] END_LOAD_SCHEDULER: End scheduler "s064" with entities [EventEntity, EventEntity], work=171*
167: 0x12E1 [0x01] GOTO 0x12F3
168: 0x12E4 [0x52] END_LOAD_SCHEDULER: End scheduler "s002" with entities [EventEntity, EventEntity], work=171*

SUBROUTINE_12F3:
169: 0x12F3 [0x45] LOAD_SCHEDULED_TASK: Load scheduler "s005" with entities [EventEntity, EventEntity], work=[171*, 0*]
170: 0x1304 [0x4E] SET_ENTITY_HIDE_FLAG: Show Unnamed NPC (ID: 16801916/0x0100607C)
171: 0x130A [0x45] LOAD_SCHEDULED_TASK: Load scheduler "se67" with entities [EventEntity, EventEntity], work=[171*, 0*]
172: 0x131B [0x9F] LOAD_SCHEDULED_TASK_ALT: Load scheduler "str0" with entities [??? (ID: 16801917/0x0100607D), ??? (ID: 16801917/0x0100607D)], work=[99*, 0*]
173: 0x132C [0x4A] Prishe (ID: 16801910/0x01006076) looks at Unnamed NPC (ID: 16801916/0x0100607C)
174: 0x1335 [0x6F] WAIT_FRAME_DELAY: Yield until WaitTime reaches zero
175: 0x1336 [0x76] CHECK_ENTITY_RENDER_FLAGS: Wait until Prishe (ID: 16801910/0x01006076) Render.Flags0 and Render.Flags3 conditions are met
176: 0x133B [0x29] REQ_SET_WAIT(priority=0x08, entity_id=Prishe (ID: 16801910/0x01006076), tag_num=0x0F)
177: 0x1342 [0x2B] Prishe (ID: 16801910/0x01006076) [7674*]:
    → "Ooh!"
178: 0x1349 [0x23] WAIT_FOR_DIALOG_INTERACTION
179: 0x134A [0x29] REQ_SET_WAIT(priority=0x08, entity_id=Prishe (ID: 16801910/0x01006076), tag_num=0x10)
180: 0x1351 [0x6F] WAIT_FRAME_DELAY: Yield until WaitTime reaches zero
181: 0x1352 [0x76] CHECK_ENTITY_RENDER_FLAGS: Wait until LocalPlayer Render.Flags0 and Render.Flags3 conditions are met
182: 0x1357 [0x80] LOAD_WAIT(entity=Unnamed NPC (ID: 16801916/0x0100607C))
183: 0x135C [0x52] END_LOAD_SCHEDULER: End scheduler "s005" with entities [EventEntity, EventEntity], work=171*
184: 0x136B [0x45] LOAD_SCHEDULED_TASK: Load scheduler "s009" with entities [EventEntity, EventEntity], work=[171*, 0*]
185: 0x137C [0x45] LOAD_SCHEDULED_TASK: Load scheduler "se68" with entities [EventEntity, EventEntity], work=[171*, 0*]
186: 0x138D [0x45] LOAD_SCHEDULED_TASK: Load scheduler "se7e" with entities [EventEntity, EventEntity], work=[171*, 0*]
187: 0x139E [0x9F] LOAD_SCHEDULED_TASK_ALT: Load scheduler "mst0" with entities [Unnamed NPC (ID: 16801916/0x0100607C), Unnamed NPC (ID: 16801916/0x0100607C)], work=[99*, 0*]
188: 0x13AF [0x9F] LOAD_SCHEDULED_TASK_ALT: Load scheduler "stp0" with entities [??? (ID: 16801917/0x0100607D), ??? (ID: 16801917/0x0100607D)], work=[99*, 0*]
189: 0x13C0 [0x27] REQ_SET(priority=0x0B, entity_id=Unnamed NPC (ID: 16801916/0x0100607C), tag_num=0x04)
190: 0x13C7 [0x1C] WAIT(90* ticks)
191: 0x13CA [0x1C] WAIT(210* ticks)
192: 0x13CD [0x52] END_LOAD_SCHEDULER: End scheduler "s009" with entities [EventEntity, EventEntity], work=171*
193: 0x13DC [0x45] LOAD_SCHEDULED_TASK: Load scheduler "ovl1" with entities [LocalPlayer, LocalPlayer], work=[200*, 0*]
194: 0x13ED [0x45] LOAD_SCHEDULED_TASK: Load scheduler "s006" with entities [EventEntity, EventEntity], work=[171*, 0*]
195: 0x13FE [0x1C] WAIT(200* ticks)
196: 0x1401 [0x29] REQ_SET_WAIT(priority=0x08, entity_id=Ulmia (ID: 16801911/0x01006077), tag_num=0x1B)
197: 0x1408 [0x52] END_LOAD_SCHEDULER: End scheduler "s006" with entities [EventEntity, EventEntity], work=171*
198: 0x1417 [0x45] LOAD_SCHEDULED_TASK: Load scheduler "s008" with entities [EventEntity, EventEntity], work=[171*, 0*]
199: 0x1428 [0x5C] MUSIC_CONTROL: Set Idle (Day) music to song 220*
200: 0x142C [0x5C] MUSIC_CONTROL: Set Idle (Night) music to song 220*
201: 0x1430 [0x2B] Ulmia (ID: 16801911/0x01006077) [7675*]:
    → "Is that...!?"
202: 0x1437 [0x23] WAIT_FOR_DIALOG_INTERACTION
203: 0x1438 [0x45] LOAD_SCHEDULED_TASK: Load scheduler "se80" with entities [EventEntity, EventEntity], work=[174*, 0*]
204: 0x1449 [0x29] REQ_SET_WAIT(priority=0x08, entity_id=Shikaree Z (ID: 16801913/0x01006079), tag_num=0x0A)
205: 0x1450 [0x52] END_LOAD_SCHEDULER: End scheduler "s008" with entities [EventEntity, EventEntity], work=171*
206: 0x145F [0x45] LOAD_SCHEDULED_TASK: Load scheduler "s067" with entities [EventEntity, EventEntity], work=[171*, 0*]
207: 0x1470 [0x2B] Shikaree Z (ID: 16801913/0x01006079) [7676*]:
    → "Stay back! The voice of darkness will have you!"
208: 0x1477 [0x23] WAIT_FOR_DIALOG_INTERACTION
209: 0x1478 [0x29] REQ_SET_WAIT(priority=0x08, entity_id=Shikaree Z (ID: 16801913/0x01006079), tag_num=0x0B)
210: 0x147F [0x9F] LOAD_SCHEDULED_TASK_ALT: Load scheduler "sstp" with entities [Unnamed NPC (ID: 16801916/0x0100607C), Unnamed NPC (ID: 16801916/0x0100607C)], work=[99*, 0*]
211: 0x1490 [0x29] REQ_SET_WAIT(priority=0x08, entity_id=Prishe (ID: 16801910/0x01006076), tag_num=0x11)
212: 0x1497 [0x52] END_LOAD_SCHEDULER: End scheduler "s067" with entities [EventEntity, EventEntity], work=171*
213: 0x14A6 [0x45] LOAD_SCHEDULED_TASK: Load scheduler "s010" with entities [EventEntity, EventEntity], work=[171*, 0*]
214: 0x14B7 [0x2B] Shikaree Z (ID: 16801913/0x01006079) [7677*]:
    → "I will never forget that stone! It is the magicite that drove the allied expedition members to madness!"
215: 0x14BE [0x23] WAIT_FOR_DIALOG_INTERACTION
216: 0x14BF [0x79] Louverance (ID: 16801912/0x01006078) looks at Unnamed NPC (ID: 16801916/0x0100607C) (Basic look)
217: 0x14C9 [0x27] REQ_SET(priority=0x0B, entity_id=Louverance (ID: 16801912/0x01006078), tag_num=0x49)
218: 0x14D0 [0x2B] Louverance (ID: 16801912/0x01006078) [7678*]:
    → "That stone is responsible for my grandfather's fate?"
219: 0x14D7 [0x23] WAIT_FOR_DIALOG_INTERACTION
220: 0x14D8 [0x2A] GET_REQ_LEVEL(level=11, entity_id=Louverance (ID: 16801912/0x01006078))
221: 0x14DE [0x29] REQ_SET_WAIT(priority=0x08, entity_id=Prishe (ID: 16801910/0x01006076), tag_num=0x12)
222: 0x14E5 [0x29] REQ_SET_WAIT(priority=0x08, entity_id=Ulmia (ID: 16801911/0x01006077), tag_num=0x1C)
223: 0x14EC [0x52] END_LOAD_SCHEDULER: End scheduler "s010" with entities [EventEntity, EventEntity], work=171*
224: 0x14FB [0x45] LOAD_SCHEDULED_TASK: Load scheduler "s011" with entities [EventEntity, EventEntity], work=[171*, 0*]
225: 0x150C [0x29] REQ_SET_WAIT(priority=0x08, entity_id=Ulmia (ID: 16801911/0x01006077), tag_num=0x1D)
226: 0x1513 [0x79] LocalPlayer looks at Prishe (ID: 16801910/0x01006076) (Basic look)
227: 0x151D [0x4B] UPDATE_ENTITY_YAW(entity=LocalPlayer, yaw=0.8°*)
228: 0x1524 [0x1C] WAIT(90* ticks)
229: 0x1527 [0x6F] WAIT_FRAME_DELAY: Yield until WaitTime reaches zero
230: 0x1528 [0x76] CHECK_ENTITY_RENDER_FLAGS: Wait until LocalPlayer Render.Flags0 and Render.Flags3 conditions are met
231: 0x152D [0x52] END_LOAD_SCHEDULER: End scheduler "s011" with entities [EventEntity, EventEntity], work=171*
232: 0x153C [0x45] LOAD_SCHEDULED_TASK: Load scheduler "s012" with entities [EventEntity, EventEntity], work=[171*, 0*]
233: 0x154D [0x7B] Prishe (ID: 16801910/0x01006076) stops talking
234: 0x1552 [0x27] REQ_SET(priority=0x0B, entity_id=Prishe (ID: 16801910/0x01006076), tag_num=0x9D)
235: 0x1559 [0x1C] WAIT(20* ticks)
236: 0x155C [0x4A] LocalPlayer looks at Prishe (ID: 16801910/0x01006076)
237: 0x1565 [0x6F] WAIT_FRAME_DELAY: Yield until WaitTime reaches zero
238: 0x1566 [0x76] CHECK_ENTITY_RENDER_FLAGS: Wait until LocalPlayer Render.Flags0 and Render.Flags3 conditions are met
239: 0x156B [0x1C] WAIT(20* ticks)
240: 0x156E [0x52] END_LOAD_SCHEDULER: End scheduler "s012" with entities [EventEntity, EventEntity], work=171*
241: 0x157D [0x45] LOAD_SCHEDULED_TASK: Load scheduler "s013" with entities [EventEntity, EventEntity], work=[171*, 0*]
242: 0x158E [0x27] REQ_SET(priority=0x0B, entity_id=Shikaree Z (ID: 16801913/0x01006079), tag_num=0x35)
243: 0x1595 [0x27] REQ_SET(priority=0x0B, entity_id=Louverance (ID: 16801912/0x01006078), tag_num=0x4A)
244: 0x159C [0x2B] Shikaree Z (ID: 16801913/0x01006079) [7679*]:
    → "No!"
245: 0x15A3 [0x23] WAIT_FOR_DIALOG_INTERACTION
246: 0x15A4 [0x1C] WAIT(30* ticks)
247: 0x15A7 [0x1C] WAIT(80* ticks)
248: 0x15AA [0x52] END_LOAD_SCHEDULER: End scheduler "s013" with entities [EventEntity, EventEntity], work=171*
249: 0x15B9 [0x45] LOAD_SCHEDULED_TASK: Load scheduler "s014" with entities [EventEntity, EventEntity], work=[171*, 0*]
250: 0x15CA [0x2A] GET_REQ_LEVEL(level=11, entity_id=Prishe (ID: 16801910/0x01006076))
251: 0x15D0 [0x2B] Prishe (ID: 16801910/0x01006076) [7680*]:
    → "You've come back..."
252: 0x15D7 [0x23] WAIT_FOR_DIALOG_INTERACTION
253: 0x15D8 [0x52] END_LOAD_SCHEDULER: End scheduler "s014" with entities [EventEntity, EventEntity], work=171*
254: 0x15E7 [0x45] LOAD_SCHEDULED_TASK: Load scheduler "ovl1" with entities [LocalPlayer, LocalPlayer], work=[200*, 0*]
255: 0x15F8 [0x45] LOAD_SCHEDULED_TASK: Load scheduler "s015" with entities [EventEntity, EventEntity], work=[171*, 0*]
