# 16801916

## Common Data

| Field            | Value                     |
|------------------|---------------------------|
| Zone             | Bearclaw Pinnacle (ID: 6) |
| Block Size       | 252 bytes                 |
| Total Events     | 7                         |
| References Count | 10                        |

## List of Events

| Event ID                 | Entrypoint   |   Size |   Instructions |
|--------------------------|--------------|--------|----------------|
| [65535](#event-65535)    | 0x0000       |      1 |              1 |
| [65535.1](#event-655351) | 0x0001       |     16 |              2 |
| [65535.2](#event-655352) | 0x0011       |     14 |              2 |
| [21](#event-21)          | 0x001F       |     24 |              5 |
| [65535.3](#event-655353) | 0x0037       |     29 |              3 |
| [65535.4](#event-655354) | 0x0054       |     58 |              6 |
| [32001](#event-32001)    | 0x008E       |     24 |              5 |

## DAT References (imed_data)

|   Index | Hex Value   |   Dec Value |
|---------|-------------|-------------|
|       0 | 0x028C      |         652 |
|       1 | 0xFFF8F0DB  |  4294504667 |
|       2 | 0xFFFCD230  |  4294758960 |
|       3 | 0x07D0      |        2000 |
|       4 | 0x0B72      |        2930 |
|       5 | 0xFFF8EFAF  |  4294504367 |
|       6 | 0x04B0      |        1200 |
|       7 | 0x005A      |          90 |
|       8 | 0x0063      |          99 |
|       9 | 0x0000      |           0 |

## Events

### Event 65535

#### Metadata

| Field        | Value   |
|--------------|---------|
| Entrypoint   | 0x0000  |
| Data Size    | 1 bytes |
| Instructions | 1       |

```
      00 01 02 03 04 05 06 07  08 09 0A 0B 0C 0D 0E 0F
      -- -- -- -- -- -- -- --  -- -- -- -- -- -- -- --
0000: 00                                                .               
```

#### Opcodes

```
  0: 0x0000 [0x00] END_REQSTACK()
```

### Event 65535.1

#### Metadata

| Field        | Value    |
|--------------|----------|
| Entrypoint   | 0x0001   |
| Data Size    | 16 bytes |
| Instructions | 2        |

```
      00 01 02 03 04 05 06 07  08 09 0A 0B 0C 0D 0E 0F
      -- -- -- -- -- -- -- --  -- -- -- -- -- -- -- --
0000:    5B 00 80 F8 FF FF 7F  F8 FF FF 7F 73 69 64 30   [..........sid0
0010: 00                                                .               
```

#### Opcodes

```
  0: 0x0001 [0x5B] LOAD_EXT_SCHEDULER: Load scheduler "sid0" with entities [EventEntity, EventEntity], work=652*
  1: 0x0010 [0x00] END_REQSTACK()
```

### Event 65535.2

#### Metadata

| Field        | Value    |
|--------------|----------|
| Entrypoint   | 0x0011   |
| Data Size    | 14 bytes |
| Instructions | 2        |

```
      00 01 02 03 04 05 06 07  08 09 0A 0B 0C 0D 0E 0F
      -- -- -- -- -- -- -- --  -- -- -- -- -- -- -- --
0010:    53 F8 FF FF 7F F8 FF  FF 7F 73 69 64 30 00      S........sid0. 
```

#### Opcodes

```
  0: 0x0011 [0x53] WAIT_SCHEDULER_TASK: Wait for scheduler "sid0" with entities [EventEntity, EventEntity]
  1: 0x001E [0x00] END_REQSTACK()
```

### Event 21

#### Metadata

| Field        | Value    |
|--------------|----------|
| Entrypoint   | 0x001F   |
| Data Size    | 24 bytes |
| Instructions | 5        |

```
      00 01 02 03 04 05 06 07  08 09 0A 0B 0C 0D 0E 0F
      -- -- -- -- -- -- -- --  -- -- -- -- -- -- -- --
0010:                                               94                 .
0020: 01 F8 FF FF 7F 92 01 F8  FF FF 7F 33 01 37 01 80  ...........3.7..
0030: 02 80 03 80 04 80 00                              .......         
```

#### Opcodes

```
  0: 0x001F [0x94] EventEntity->Render.Flags3 ^= 0x01
  1: 0x0025 [0x92] EventEntity->Render.Flags3 ^= 0x01
  2: 0x002B [0x33] EventEntity->Render.Flags0 |= 0x200000 // Bit 21 (flag=0x01)
  3: 0x002D [0x37] UPDATE_EVENT_POSITION_AND_DIR: x=-462.629*, z=-208.336*, y=2.000*, direction=257.5°*
  4: 0x0036 [0x00] END_REQSTACK()
```

### Event 65535.3

#### Metadata

| Field        | Value    |
|--------------|----------|
| Entrypoint   | 0x0037   |
| Data Size    | 29 bytes |
| Instructions | 3        |

```
      00 01 02 03 04 05 06 07  08 09 0A 0B 0C 0D 0E 0F
      -- -- -- -- -- -- -- --  -- -- -- -- -- -- -- --
0030:                      5B  00 80 F8 FF FF 7F F8 FF         [........
0040: FF 7F 6D 75 70 30 53 F8  FF FF 7F F8 FF FF 7F 6D  ..mup0S........m
0050: 75 70 30 00                                       up0.            
```

#### Opcodes

```
  0: 0x0037 [0x5B] LOAD_EXT_SCHEDULER: Load scheduler "mup0" with entities [EventEntity, EventEntity], work=652*
  1: 0x0046 [0x53] WAIT_SCHEDULER_TASK: Wait for scheduler "mup0" with entities [EventEntity, EventEntity]
  2: 0x0053 [0x00] END_REQSTACK()
```

### Event 65535.4

#### Metadata

| Field        | Value    |
|--------------|----------|
| Entrypoint   | 0x0054   |
| Data Size    | 58 bytes |
| Instructions | 6        |

```
      00 01 02 03 04 05 06 07  08 09 0A 0B 0C 0D 0E 0F
      -- -- -- -- -- -- -- --  -- -- -- -- -- -- -- --
0050:             37 05 80 02  80 06 80 04 80 5B 00 80      7........[..
0060: F8 FF FF 7F F8 FF FF 7F  6D 64 77 30 1C 07 80 9F  ........mdw0....
0070: 08 80 7C 60 00 01 7C 60  00 01 6D 73 70 30 09 80  ..|`..|`..msp0..
0080: 53 F8 FF FF 7F F8 FF FF  7F 6D 64 77 30 00        S........mdw0.  
```

#### Opcodes

```
  0: 0x0054 [0x37] UPDATE_EVENT_POSITION_AND_DIR: x=-462.929*, z=-208.336*, y=1.200*, direction=257.5°*
  1: 0x005D [0x5B] LOAD_EXT_SCHEDULER: Load scheduler "mdw0" with entities [EventEntity, EventEntity], work=652*
  2: 0x006C [0x1C] WAIT(90* ticks)
  3: 0x006F [0x9F] LOAD_SCHEDULED_TASK_ALT: Load scheduler "msp0" with entities [Unnamed NPC (ID: 16801916/0x0100607C), Unnamed NPC (ID: 16801916/0x0100607C)], work=[99*, 0*]
  4: 0x0080 [0x53] WAIT_SCHEDULER_TASK: Wait for scheduler "mdw0" with entities [EventEntity, EventEntity]
  5: 0x008D [0x00] END_REQSTACK()
```

### Event 32001

#### Metadata

| Field        | Value    |
|--------------|----------|
| Entrypoint   | 0x008E   |
| Data Size    | 24 bytes |
| Instructions | 5        |

```
      00 01 02 03 04 05 06 07  08 09 0A 0B 0C 0D 0E 0F
      -- -- -- -- -- -- -- --  -- -- -- -- -- -- -- --
0080:                                            94 01                ..
0090: F8 FF FF 7F 92 01 F8 FF  FF 7F 33 01 37 01 80 02  ..........3.7...
00A0: 80 03 80 04 80 00                                 ......          
```

#### Opcodes

```
  0: 0x008E [0x94] EventEntity->Render.Flags3 ^= 0x01
  1: 0x0094 [0x92] EventEntity->Render.Flags3 ^= 0x01
  2: 0x009A [0x33] EventEntity->Render.Flags0 |= 0x200000 // Bit 21 (flag=0x01)
  3: 0x009C [0x37] UPDATE_EVENT_POSITION_AND_DIR: x=-462.629*, z=-208.336*, y=2.000*, direction=257.5°*
  4: 0x00A5 [0x00] END_REQSTACK()
```
