# Event 65535

## Metadata

| Field           | Value    |
|-----------------|----------|
| Event Index     | 16/34    |
| Offset          | 0x01B7   |
| Data Size       | 56 bytes |
| Calculated Size | 56 bytes |
| Instructions    | 8        |

```
      00 01 02 03 04 05 06 07  08 09 0A 0B 0C 0D 0E 0F
      -- -- -- -- -- -- -- --  -- -- -- -- -- -- -- --
01B0:                      6E  F6 D1 03 01 12 80 99 F6         n........
01C0: D1 03 01 1C 13 80 6B 69  64 6C 30 F6 D1 03 01 1C  ......kidl0.....
01D0: 03 80 66 05 80 F6 D1 03  01 F6 D1 03 01 74 6C 6B  ..f..........tlk
01E0: 30 53 F6 D1 03 01 F6 D1  03 01 74 6C 6B 30 00     0S........tlk0. 
```

## Opcodes

```
  0: 0x01B7 [0x6E] Fari-Wari (ID: 17027574/0x0103D1F6) uses emote 18*
  1: 0x01BE [0x99] Wait for Fari-Wari (ID: 17027574/0x0103D1F6) animation to complete
  2: 0x01C3 [0x1C] WAIT(150* ticks)
  3: 0x01C6 [0x6B] STOP_AND_IDLE: Fari-Wari (ID: 17027574/0x0103D1F6) stops current action and resets to idle (animation="idl0")
  4: 0x01CF [0x1C] WAIT(60* ticks)
  5: 0x01D2 [0x66] LOAD_EXT_SCHEDULER_MAIN(work_offset=49*, entity1=Fari-Wari (ID: 17027574/0x0103D1F6), entity2=Fari-Wari (ID: 17027574/0x0103D1F6), action="tlk0")
  6: 0x01E1 [0x53] WAIT_SCHEDULER_TASK(entity1=Fari-Wari (ID: 17027574/0x0103D1F6), entity2=Fari-Wari (ID: 17027574/0x0103D1F6), action_id="tlk0")
  7: 0x01EE [0x00] END_REQSTACK()
```
