# Event 65535

## Metadata

| Field           | Value    |
|-----------------|----------|
| Event Index     | 7/34     |
| Offset          | 0x0075   |
| Data Size       | 72 bytes |
| Calculated Size | 72 bytes |
| Instructions    | 8        |

```
      00 01 02 03 04 05 06 07  08 09 0A 0B 0C 0D 0E 0F
      -- -- -- -- -- -- -- --  -- -- -- -- -- -- -- --
0070:                66 05 80  F6 D1 03 01 F6 D1 03 01       f..........
0080: 74 6C 6B 30 53 F6 D1 03  01 F6 D1 03 01 74 6C 6B  tlk0S........tlk
0090: 30 66 05 80 F6 D1 03 01  F6 D1 03 01 74 6C 6B 31  0f..........tlk1
00A0: 53 F6 D1 03 01 F6 D1 03  01 74 6C 6B 31 6E F6 D1  S........tlk1n..
00B0: 03 01 06 80 99 F6 D1 03  01 1C 07 80 00           .............   
```

## Opcodes

```
  0: 0x0075 [0x66] LOAD_EXT_SCHEDULER_MAIN(work_offset=49*, entity1=Fari-Wari (ID: 17027574/0x0103D1F6), entity2=Fari-Wari (ID: 17027574/0x0103D1F6), action="tlk0")
  1: 0x0084 [0x53] WAIT_SCHEDULER_TASK(entity1=Fari-Wari (ID: 17027574/0x0103D1F6), entity2=Fari-Wari (ID: 17027574/0x0103D1F6), action_id="tlk0")
  2: 0x0091 [0x66] LOAD_EXT_SCHEDULER_MAIN(work_offset=49*, entity1=Fari-Wari (ID: 17027574/0x0103D1F6), entity2=Fari-Wari (ID: 17027574/0x0103D1F6), action="tlk1")
  3: 0x00A0 [0x53] WAIT_SCHEDULER_TASK(entity1=Fari-Wari (ID: 17027574/0x0103D1F6), entity2=Fari-Wari (ID: 17027574/0x0103D1F6), action_id="tlk1")
  4: 0x00AD [0x6E] Fari-Wari (ID: 17027574/0x0103D1F6) uses emote 11*
  5: 0x00B4 [0x99] Wait for Fari-Wari (ID: 17027574/0x0103D1F6) animation to complete
  6: 0x00B9 [0x1C] WAIT(80* ticks)
  7: 0x00BC [0x00] END_REQSTACK()
```
