# Event 65535

## Metadata

| Field           | Value    |
|-----------------|----------|
| Event Index     | 29/34    |
| Offset          | 0x02AB   |
| Data Size       | 47 bytes |
| Calculated Size | 47 bytes |
| Instructions    | 5        |

```
      00 01 02 03 04 05 06 07  08 09 0A 0B 0C 0D 0E 0F
      -- -- -- -- -- -- -- --  -- -- -- -- -- -- -- --
02A0:                                   66 1A 80 FD D1             f....
02B0: 03 01 FD D1 03 01 74 68  6B 31 53 FD D1 03 01 FD  ......thk1S.....
02C0: D1 03 01 74 68 6B 31 66  1A 80 FD D1 03 01 FD D1  ...thk1f........
02D0: 03 01 74 68 6B 32 1C 07  80 00                    ..thk2....      
```

## Opcodes

```
  0: 0x02AB [0x66] LOAD_EXT_SCHEDULER_MAIN: Load scheduler "thk1" with entities [Malzaab (ID: 17027581/0x0103D1FD), Malzaab (ID: 17027581/0x0103D1FD)], work=9*
  1: 0x02BA [0x53] WAIT_SCHEDULER_TASK: Wait for scheduler "thk1" with entities [Malzaab (ID: 17027581/0x0103D1FD), Malzaab (ID: 17027581/0x0103D1FD)]
  2: 0x02C7 [0x66] LOAD_EXT_SCHEDULER_MAIN: Load scheduler "thk2" with entities [Malzaab (ID: 17027581/0x0103D1FD), Malzaab (ID: 17027581/0x0103D1FD)], work=9*
  3: 0x02D6 [0x1C] WAIT(80* ticks)
  4: 0x02D9 [0x00] END_REQSTACK()
```
