# Event 65535

## Metadata

| Field           | Value    |
|-----------------|----------|
| Event Index     | 8/34     |
| Offset          | 0x00BD   |
| Data Size       | 45 bytes |
| Calculated Size | 45 bytes |
| Instructions    | 6        |

```
      00 01 02 03 04 05 06 07  08 09 0A 0B 0C 0D 0E 0F
      -- -- -- -- -- -- -- --  -- -- -- -- -- -- -- --
00B0:                                         5B 08 80               [..
00C0: F6 D1 03 01 F6 D1 03 01  67 75 64 30 53 F6 D1 03  ........gud0S...
00D0: 01 F6 D1 03 01 67 75 64  30 1C 09 80 79 00 F6 D1  .....gud0...y...
00E0: 03 01 07 D2 03 01 1C 02  80 00                    ..........      
```

## Opcodes

```
  0: 0x00BD [0x5B] LOAD_EXT_SCHEDULER(work_offset=1373*, entity1=Fari-Wari (ID: 17027574/0x0103D1F6), entity2=Fari-Wari (ID: 17027574/0x0103D1F6), action="gud0")
  1: 0x00CC [0x53] WAIT_SCHEDULER_TASK(entity1=Fari-Wari (ID: 17027574/0x0103D1F6), entity2=Fari-Wari (ID: 17027574/0x0103D1F6), action_id="gud0")
  2: 0x00D9 [0x1C] WAIT(50* ticks)
  3: 0x00DC [0x79] Fari-Wari (ID: 17027574/0x0103D1F6) looks at ??? (ID: 17027591/0x0103D207) (Basic look)
  4: 0x00E6 [0x1C] WAIT(130* ticks)
  5: 0x00E9 [0x00] END_REQSTACK()
```
