# Event 65535

## Metadata

| Field           | Value    |
|-----------------|----------|
| Event Index     | 5/5      |
| Offset          | 0x004D   |
| Data Size       | 78 bytes |
| Calculated Size | 78 bytes |
| Instructions    | 13       |

```
      00 01 02 03 04 05 06 07  08 09 0A 0B 0C 0D 0E 0F
      -- -- -- -- -- -- -- --  -- -- -- -- -- -- -- --
0040:                                         66 07 80               f..
0050: F8 FF FF 7F F8 FF FF 7F  31 72 74 6E 27 03 AC F1  ........1rtn'...
0060: 09 01 03 53 F8 FF FF 7F  F8 FF FF 7F 31 72 74 6E  ...S........1rtn
0070: 27 04 AC F1 09 01 04 1C  08 80 29 03 A9 F1 09 01  '.........).....
0080: 0B 27 04 A9 F1 09 01 04  1C 09 80 32 04 80 1F 00  .'.........2....
0090: 00 80 0A 80 0B 80 1F 01  22 01 00                 ........"..     
```

## Opcodes

```
  0: 0x004D [0x66] LOAD_EXT_SCHEDULER_MAIN(work_offset=24*, entity1=EventEntity, entity2=EventEntity, action="1rtn")
  1: 0x005C [0x27] REQ_SET(priority=0x03, entity_id=Milchupain (ID: 17428908/0x0109F1AC), tag_num=0x03)
  2: 0x0063 [0x53] WAIT_SCHEDULER_TASK(entity1=EventEntity, entity2=EventEntity, action_id="1rtn")
  3: 0x0070 [0x27] REQ_SET(priority=0x04, entity_id=Milchupain (ID: 17428908/0x0109F1AC), tag_num=0x04)
  4: 0x0077 [0x1C] WAIT(60* ticks)
  5: 0x007A [0x29] REQ_SET_WAIT(priority=0x03, entity_id=Ancolain (ID: 17428905/0x0109F1A9), tag_num=0x0B)
  6: 0x0081 [0x27] REQ_SET(priority=0x04, entity_id=Ancolain (ID: 17428905/0x0109F1A9), tag_num=0x04)
  7: 0x0088 [0x1C] WAIT(120* ticks)
  8: 0x008B [0x32] ExtData[1]->MainSpeed = 13* * 0.1
  9: 0x008E [0x1F] MOVE_ENTITY: EventEntity moves to X=59.000*, Z=-101.797*, Y=1.494*
 10: 0x0096 [0x1F] MOVE_ENTITY: Update entity position (mode=1)
 11: 0x0098 [0x22] ENTITY_HIDE_FLAG(enabled=0x01)
 12: 0x009A [0x00] END_REQSTACK()
```
