# Event 167

## Metadata

| Field           | Value    |
|-----------------|----------|
| Event Index     | 27/91    |
| Offset          | 0x0B33   |
| Data Size       | 37 bytes |
| Calculated Size | 37 bytes |
| Instructions    | 9        |

```
      00 01 02 03 04 05 06 07  08 09 0A 0B 0C 0D 0E 0F
      -- -- -- -- -- -- -- --  -- -- -- -- -- -- -- --
0B30:          4A 09 83 0D 01  F0 FF FF 7F 6F 76 09 83     J........ov..
0B40: 0D 01 6E 09 83 0D 01 10  80 99 09 83 0D 01 2B 09  ..n...........+.
0B50: 83 0D 01 6F 80 23 21 00                           ...o.#!.        
```

## Opcodes

```
  0: 0x0B33 [0x4A] Goraow (ID: 17662729/0x010D8309) looks at LocalPlayer
  1: 0x0B3C [0x6F] WAIT_FRAME_DELAY: Yield until WaitTime reaches zero
  2: 0x0B3D [0x76] CHECK_ENTITY_RENDER_FLAGS: Wait until Goraow (ID: 17662729/0x010D8309) Render.Flags0 and Render.Flags3 conditions are met
  3: 0x0B42 [0x6E] Goraow (ID: 17662729/0x010D8309) uses emote 7*
  4: 0x0B49 [0x99] Wait for Goraow (ID: 17662729/0x010D8309) animation to complete
  5: 0x0B4E [0x2B] Goraow (ID: 17662729/0x010D8309) [8224*]:
    → "Once again you've done me a great service. My fallen brethren may now rest in peace with the knowledge that their deaths have been avenged.\u007F1\u0000\u0007"
  6: 0x0B55 [0x23] WAIT_FOR_DIALOG_INTERACTION
  7: 0x0B56 [0x21] END_EVENT
  8: 0x0B57 [0x00] END_REQSTACK()
```
