# Event 172

## Metadata

| Field           | Value    |
|-----------------|----------|
| Event Index     | 20/91    |
| Offset          | 0x08D2   |
| Data Size       | 52 bytes |
| Calculated Size | 52 bytes |
| Instructions    | 16       |

```
      00 01 02 03 04 05 06 07  08 09 0A 0B 0C 0D 0E 0F
      -- -- -- -- -- -- -- --  -- -- -- -- -- -- -- --
08D0:       42 6F 70 03 03 10  51 80 48 55 80 23 24 56    Bop...Q.HU.#$V
08E0: 80 01 80 01 80 25 02 00  10 01 80 00 F9 08 48 57  .....%........HW
08F0: 80 03 01 10 03 80 01 04  09 02 00 10 03 80 00 04  ................
0900: 09 01 04 09 21 00                                 ....!.          
```

## Opcodes

```
  0: 0x08D2 [0x42] SET_CLI_EVENT_CANCEL_DATA()
  1: 0x08D3 [0x6F] WAIT_FRAME_DELAY: Yield until WaitTime reaches zero
  2: 0x08D4 [0x70] WAIT_ENTITY_RENDER_FLAG: Wait while EventEntity->Render.Flags3 bit 2 is set (cancel turn if not)
  3: 0x08D5 [0x03] Work_Zone[3] = 956*
  4: 0x08DA [0x48] [System] [8200*]:
    → "This grassy mound appears to serve as a makeshift grave.\u007F1\u0000\u0007"
  5: 0x08DD [0x23] WAIT_FOR_DIALOG_INTERACTION
  6: 0x08DE [0x24] CREATE_DIALOG(message_id=8201*, default_option=0*, option_flags=0*)
    → "Offer the \u0001\u0005#\u0002\u0001\u0000\u0000?\u0007\u000BYes.\u0007No.\u007F1\u0000\u0007"
  7: 0x08E5 [0x25] WAIT_DIALOG_SELECT()
  8: 0x08E6 [0x02] IF !(Work_Zone[0] == 0*) GOTO 0x08F9
  9: 0x08EE [0x48] [System] [8202*]:
    → "\u001F\u000F\u0008 places the \u0001\u0005#\u0002\u0001\u0000\u0000 upon the grave.\u0000\u0007"
 10: 0x08F1 [0x03] Work_Zone[1] = 1*
 11: 0x08F6 [0x01] GOTO 0x0904
 12: 0x08F9 [0x02] IF !(Work_Zone[0] == 1*) GOTO 0x0904
 13: 0x0901 [0x01] GOTO 0x0904

SUBROUTINE_0904:
 14: 0x0904 [0x21] END_EVENT
 15: 0x0905 [0x00] END_REQSTACK()
```
