# Event 192

## Metadata

| Field           | Value    |
|-----------------|----------|
| Event Index     | 54/91    |
| Offset          | 0x16D8   |
| Data Size       | 55 bytes |
| Calculated Size | 55 bytes |
| Instructions    | 9        |

```
      00 01 02 03 04 05 06 07  08 09 0A 0B 0C 0D 0E 0F
      -- -- -- -- -- -- -- --  -- -- -- -- -- -- -- --
16D0:                          4A 0C 83 0D 01 F0 FF FF          J.......
16E0: 7F 6F 76 0C 83 0D 01 66  2F 80 0C 83 0D 01 0C 83  .ov....f/.......
16F0: 0D 01 74 6C 6B 30 2B 0C  83 0D 01 F4 80 23 66 2F  ..tlk0+......#f/
1700: 80 0C 83 0D 01 0C 83 0D  01 74 6C 6B 31 21 00     .........tlk1!. 
```

## Opcodes

```
  0: 0x16D8 [0x4A] Sieglinde (ID: 17662732/0x010D830C) looks at LocalPlayer
  1: 0x16E1 [0x6F] WAIT_FRAME_DELAY: Yield until WaitTime reaches zero
  2: 0x16E2 [0x76] CHECK_ENTITY_RENDER_FLAGS: Wait until Sieglinde (ID: 17662732/0x010D830C) Render.Flags0 and Render.Flags3 conditions are met
  3: 0x16E7 [0x66] LOAD_EXT_SCHEDULER_MAIN: Load scheduler "tlk0" with entities [Sieglinde (ID: 17662732/0x010D830C), Sieglinde (ID: 17662732/0x010D830C)], work=19*
  4: 0x16F6 [0x2B] Sieglinde (ID: 17662732/0x010D830C) [8333*]:
    → "Do not forget what I said earlier. As the active ingredients remain effective for only a limited duration, you must administer the fertilizer with the greatest haste.\u007F1\u0000\u0007"
  5: 0x16FD [0x23] WAIT_FOR_DIALOG_INTERACTION
  6: 0x16FE [0x66] LOAD_EXT_SCHEDULER_MAIN: Load scheduler "tlk1" with entities [Sieglinde (ID: 17662732/0x010D830C), Sieglinde (ID: 17662732/0x010D830C)], work=19*
  7: 0x170D [0x21] END_EVENT
  8: 0x170E [0x00] END_REQSTACK()
```
