# Event 193

## Metadata

| Field           | Value    |
|-----------------|----------|
| Event Index     | 55/91    |
| Offset          | 0x170F   |
| Data Size       | 41 bytes |
| Calculated Size | 41 bytes |
| Instructions    | 13       |

```
      00 01 02 03 04 05 06 07  08 09 0A 0B 0C 0D 0E 0F
      -- -- -- -- -- -- -- --  -- -- -- -- -- -- -- --
1700:                                               42                 B
1710: 48 F8 80 23 03 02 10 D4  80 02 09 10 01 80 00 25  H..#...........%
1720: 17 48 F9 80 23 02 09 10  03 80 00 36 17 48 FA 80  .H..#......6.H..
1730: 23 03 01 10 03 80 21 00                           #.....!.        
```

## Opcodes

```
  0: 0x170F [0x42] SET_CLI_EVENT_CANCEL_DATA()
  1: 0x1710 [0x48] [System] [8338*]:
    → "You inject the fertilizer into the soil.\u007F1\u0000\u0007"
  2: 0x1713 [0x23] WAIT_FOR_DIALOG_INTERACTION
  3: 0x1714 [0x03] Work_Zone[2] = 1610*
  4: 0x1719 [0x02] IF !(Work_Zone[9] == 0*) GOTO 0x1725
  5: 0x1721 [0x48] [System] [8340*]:
    → "Nothing happened...\u007F1\u0000\u0007"
  6: 0x1724 [0x23] WAIT_FOR_DIALOG_INTERACTION
  7: 0x1725 [0x02] IF !(Work_Zone[9] == 1*) GOTO 0x1736
  8: 0x172D [0x48] [System] [8339*]:
    → "The soil in the area begins giving off a rich, earthy aroma.\u007F1\u0000\u0007"
  9: 0x1730 [0x23] WAIT_FOR_DIALOG_INTERACTION
 10: 0x1731 [0x03] Work_Zone[1] = 1*
 11: 0x1736 [0x21] END_EVENT
 12: 0x1737 [0x00] END_REQSTACK()
```
