# Event 213

## Metadata

| Field           | Value    |
|-----------------|----------|
| Event Index     | 40/91    |
| Offset          | 0x0F32   |
| Data Size       | 55 bytes |
| Calculated Size | 55 bytes |
| Instructions    | 9        |

```
      00 01 02 03 04 05 06 07  08 09 0A 0B 0C 0D 0E 0F
      -- -- -- -- -- -- -- --  -- -- -- -- -- -- -- --
0F30:       4A 0E 83 0D 01 F0  FF FF 7F 6F 76 0E 83 0D    J........ov...
0F40: 01 5B 94 80 0E 83 0D 01  0E 83 0D 01 74 6C 6B 30  .[..........tlk0
0F50: 2B 0E 83 0D 01 A0 80 23  5B 94 80 0E 83 0D 01 0E  +......#[.......
0F60: 83 0D 01 74 6C 6B 31 21  00                       ...tlk1!.       
```

## Opcodes

```
  0: 0x0F32 [0x4A] Jonette (ID: 17662734/0x010D830E) looks at LocalPlayer
  1: 0x0F3B [0x6F] WAIT_FRAME_DELAY: Yield until WaitTime reaches zero
  2: 0x0F3C [0x76] CHECK_ENTITY_RENDER_FLAGS: Wait until Jonette (ID: 17662734/0x010D830E) Render.Flags0 and Render.Flags3 conditions are met
  3: 0x0F41 [0x5B] LOAD_EXT_SCHEDULER: Load scheduler "tlk0" with entities [Jonette (ID: 17662734/0x010D830E), Jonette (ID: 17662734/0x010D830E)], work=70*
  4: 0x0F50 [0x2B] Jonette (ID: 17662734/0x010D830E) [8267*]:
    → "Thanks for bringing me the recipe, young \u007F\u0005[man/lady].\u0007All that's left to do now is find the opulent ingredients in this harsh wilderness...\u007F1\u0000\u0007"
  5: 0x0F57 [0x23] WAIT_FOR_DIALOG_INTERACTION
  6: 0x0F58 [0x5B] LOAD_EXT_SCHEDULER: Load scheduler "tlk1" with entities [Jonette (ID: 17662734/0x010D830E), Jonette (ID: 17662734/0x010D830E)], work=70*
  7: 0x0F67 [0x21] END_EVENT
  8: 0x0F68 [0x00] END_REQSTACK()
```
