# Event 221

## Metadata

| Field           | Value    |
|-----------------|----------|
| Event Index     | 46/91    |
| Offset          | 0x1316   |
| Data Size       | 46 bytes |
| Calculated Size | 46 bytes |
| Instructions    | 12       |

```
      00 01 02 03 04 05 06 07  08 09 0A 0B 0C 0D 0E 0F
      -- -- -- -- -- -- -- --  -- -- -- -- -- -- -- --
1310:                   42 4A  11 83 0D 01 F0 FF FF 7F        BJ........
1320: 6F 76 11 83 0D 01 6E 11  83 0D 01 CF 80 99 11 83  ov....n.........
1330: 0D 01 2B 11 83 0D 01 D0  80 23 2B 11 83 0D 01 D1  ..+......#+.....
1340: 80 23 21 00                                       .#!.            
```

## Opcodes

```
  0: 0x1316 [0x42] SET_CLI_EVENT_CANCEL_DATA()
  1: 0x1317 [0x4A] Hungry Wolf (ID: 17662737/0x010D8311) looks at LocalPlayer
  2: 0x1320 [0x6F] WAIT_FRAME_DELAY: Yield until WaitTime reaches zero
  3: 0x1321 [0x76] CHECK_ENTITY_RENDER_FLAGS: Wait until Hungry Wolf (ID: 17662737/0x010D8311) Render.Flags0 and Render.Flags3 conditions are met
  4: 0x1326 [0x6E] Hungry Wolf (ID: 17662737/0x010D8311) uses emote 26*
  5: 0x132D [0x99] Wait for Hungry Wolf (ID: 17662737/0x010D8311) animation to complete
  6: 0x1332 [0x2B] Hungry Wolf (ID: 17662737/0x010D8311) [8298*]:
    → "...What the devil is this?\u007F1\u0000\u0007"
  7: 0x1339 [0x23] WAIT_FOR_DIALOG_INTERACTION
  8: 0x133A [0x2B] Hungry Wolf (ID: 17662737/0x010D8311) [8299*]:
    → "I refuse to put this...thing...inside me.\u0007Next time bring me something that at least resembles meat, will you?\u007F1\u0000\u0007"
  9: 0x1341 [0x23] WAIT_FOR_DIALOG_INTERACTION
 10: 0x1342 [0x21] END_EVENT
 11: 0x1343 [0x00] END_REQSTACK()
```
