# Event 222

## Metadata

| Field           | Value    |
|-----------------|----------|
| Event Index     | 47/91    |
| Offset          | 0x1344   |
| Data Size       | 55 bytes |
| Calculated Size | 55 bytes |
| Instructions    | 9        |

```
      00 01 02 03 04 05 06 07  08 09 0A 0B 0C 0D 0E 0F
      -- -- -- -- -- -- -- --  -- -- -- -- -- -- -- --
1340:             4A 11 83 0D  01 F0 FF FF 7F 6F 76 11      J........ov.
1350: 83 0D 01 66 0A 80 11 83  0D 01 11 83 0D 01 74 6C  ...f..........tl
1360: 6B 30 2B 11 83 0D 01 D2  80 23 66 0A 80 11 83 0D  k0+......#f.....
1370: 01 11 83 0D 01 74 6C 6B  31 21 00                 .....tlk1!.     
```

## Opcodes

```
  0: 0x1344 [0x4A] Hungry Wolf (ID: 17662737/0x010D8311) looks at LocalPlayer
  1: 0x134D [0x6F] WAIT_FRAME_DELAY: Yield until WaitTime reaches zero
  2: 0x134E [0x76] CHECK_ENTITY_RENDER_FLAGS: Wait until Hungry Wolf (ID: 17662737/0x010D8311) Render.Flags0 and Render.Flags3 conditions are met
  3: 0x1353 [0x66] LOAD_EXT_SCHEDULER_MAIN: Load scheduler "tlk0" with entities [Hungry Wolf (ID: 17662737/0x010D8311), Hungry Wolf (ID: 17662737/0x010D8311)], work=69*
  4: 0x1362 [0x2B] Hungry Wolf (ID: 17662737/0x010D8311) [8301*]:
    → "<Smack> Ah, that hit the spot! Hats off to the chef!\u0007I feel as if I could take on a whole horde of monsters on my own!\u007F1\u0000\u0007"
  5: 0x1369 [0x23] WAIT_FOR_DIALOG_INTERACTION
  6: 0x136A [0x66] LOAD_EXT_SCHEDULER_MAIN: Load scheduler "tlk1" with entities [Hungry Wolf (ID: 17662737/0x010D8311), Hungry Wolf (ID: 17662737/0x010D8311)], work=69*
  7: 0x1379 [0x21] END_EVENT
  8: 0x137A [0x00] END_REQSTACK()
```
