# Event 238

## Metadata

| Field           | Value    |
|-----------------|----------|
| Event Index     | 75/91    |
| Offset          | 0x1D8E   |
| Data Size       | 45 bytes |
| Calculated Size | 45 bytes |
| Instructions    | 11       |

```
      00 01 02 03 04 05 06 07  08 09 0A 0B 0C 0D 0E 0F
      -- -- -- -- -- -- -- --  -- -- -- -- -- -- -- --
1D80:                                            4A 19                J.
1D90: 83 0D 01 F0 FF FF 7F 6F  76 19 83 0D 01 6E 19 83  .......ov....n..
1DA0: 0D 01 2F 80 99 19 83 0D  01 2B 19 83 0D 01 34 81  ../......+....4.
1DB0: 23 2B 19 83 0D 01 35 81  23 21 00                 #+....5.#!.     
```

## Opcodes

```
  0: 0x1D8E [0x4A] Hans (ID: 17662745/0x010D8319) looks at LocalPlayer
  1: 0x1D97 [0x6F] WAIT_FRAME_DELAY: Yield until WaitTime reaches zero
  2: 0x1D98 [0x76] CHECK_ENTITY_RENDER_FLAGS: Wait until Hans (ID: 17662745/0x010D8319) Render.Flags0 and Render.Flags3 conditions are met
  3: 0x1D9D [0x6E] Hans (ID: 17662745/0x010D8319) uses emote 19*
  4: 0x1DA4 [0x99] Wait for Hans (ID: 17662745/0x010D8319) animation to complete
  5: 0x1DA9 [0x2B] Hans (ID: 17662745/0x010D8319) [8397*]:
    → "The Bastokers you see here are those who tried to escape by sea.\u007F1\u0000\u0007"
  6: 0x1DB0 [0x23] WAIT_FOR_DIALOG_INTERACTION
  7: 0x1DB1 [0x2B] Hans (ID: 17662745/0x010D8319) [8398*]:
    → "We fooled ourselves into thinking that distance would ensure our safety, but now we know there's no such thing as a safe haven anywhere in the world.\u007F1\u0000\u0007"
  8: 0x1DB8 [0x23] WAIT_FOR_DIALOG_INTERACTION
  9: 0x1DB9 [0x21] END_EVENT
 10: 0x1DBA [0x00] END_REQSTACK()
```
