# Event 241

## Metadata

| Field           | Value    |
|-----------------|----------|
| Event Index     | 78/91    |
| Offset          | 0x1E1B   |
| Data Size       | 63 bytes |
| Calculated Size | 63 bytes |
| Instructions    | 11       |

```
      00 01 02 03 04 05 06 07  08 09 0A 0B 0C 0D 0E 0F
      -- -- -- -- -- -- -- --  -- -- -- -- -- -- -- --
1E10:                                   4A 1C 83 0D 01             J....
1E20: F0 FF FF 7F 6F 76 1C 83  0D 01 66 1E 80 1C 83 0D  ....ov....f.....
1E30: 01 1C 83 0D 01 74 68 6B  31 2B 1C 83 0D 01 3A 81  .....thk1+....:.
1E40: 23 2B 1C 83 0D 01 3B 81  23 66 1E 80 1C 83 0D 01  #+....;.#f......
1E50: 1C 83 0D 01 74 68 6B 32  21 00                    ....thk2!.      
```

## Opcodes

```
  0: 0x1E1B [0x4A] Masis (ID: 17662748/0x010D831C) looks at LocalPlayer
  1: 0x1E24 [0x6F] WAIT_FRAME_DELAY: Yield until WaitTime reaches zero
  2: 0x1E25 [0x76] CHECK_ENTITY_RENDER_FLAGS: Wait until Masis (ID: 17662748/0x010D831C) Render.Flags0 and Render.Flags3 conditions are met
  3: 0x1E2A [0x66] LOAD_EXT_SCHEDULER_MAIN: Load scheduler "thk1" with entities [Masis (ID: 17662748/0x010D831C), Masis (ID: 17662748/0x010D831C)], work=9*
  4: 0x1E39 [0x2B] Masis (ID: 17662748/0x010D831C) [8400*]:
    → "Merely gazing at the crimson sky fills my heart with despair.\u007F1\u0000\u0007"
  5: 0x1E40 [0x23] WAIT_FOR_DIALOG_INTERACTION
  6: 0x1E41 [0x2B] Masis (ID: 17662748/0x010D831C) [8401*]:
    → "I dare not imagine the horrible end that awaits us all...\u007F1\u0000\u0007"
  7: 0x1E48 [0x23] WAIT_FOR_DIALOG_INTERACTION
  8: 0x1E49 [0x66] LOAD_EXT_SCHEDULER_MAIN: Load scheduler "thk2" with entities [Masis (ID: 17662748/0x010D831C), Masis (ID: 17662748/0x010D831C)], work=9*
  9: 0x1E58 [0x21] END_EVENT
 10: 0x1E59 [0x00] END_REQSTACK()
```
