# Event 249

## Metadata

| Field           | Value    |
|-----------------|----------|
| Event Index     | 86/91    |
| Offset          | 0x22FA   |
| Data Size       | 36 bytes |
| Calculated Size | 36 bytes |
| Instructions    | 10       |

```
      00 01 02 03 04 05 06 07  08 09 0A 0B 0C 0D 0E 0F
      -- -- -- -- -- -- -- --  -- -- -- -- -- -- -- --
22F0:                                4A 25 83 0D 01 F0            J%....
2300: FF FF 7F 6F 76 25 83 0D  01 2B 25 83 0D 01 72 81  ...ov%...+%...r.
2310: 23 1A 32 22 2B 25 83 0D  01 73 81 23 21 00        #.2"+%...s.#!.  
```

## Opcodes

```
  0: 0x22FA [0x4A] Nicadio (ID: 17662757/0x010D8325) looks at LocalPlayer
  1: 0x2303 [0x6F] WAIT_FRAME_DELAY: Yield until WaitTime reaches zero
  2: 0x2304 [0x76] CHECK_ENTITY_RENDER_FLAGS: Wait until Nicadio (ID: 17662757/0x010D8325) Render.Flags0 and Render.Flags3 conditions are met
  3: 0x2309 [0x2B] Nicadio (ID: 17662757/0x010D8325) [8449*]:
    → "Greetings. I'm in charge of keeping the records of your exploits.\u0007Your achievements in this area thus far are as follows:\u007F1\u0000\u0007"
  4: 0x2310 [0x23] WAIT_FOR_DIALOG_INTERACTION
  5: 0x2311 [0x1A] CALL_SUBROUTINE(address=0x2232)
  6: 0x2314 [0x2B] Nicadio (ID: 17662757/0x010D8325) [8453*]:
    → "Savage fiends prowl the area beyond. Always be on your guard.\u007F1\u0000\u0007"
  7: 0x231B [0x23] WAIT_FOR_DIALOG_INTERACTION
  8: 0x231C [0x21] END_EVENT
  9: 0x231D [0x00] END_REQSTACK()
```
