# Event 261

## Metadata

| Field           | Value    |
|-----------------|----------|
| Event Index     | 61/91    |
| Offset          | 0x1877   |
| Data Size       | 53 bytes |
| Calculated Size | 53 bytes |
| Instructions    | 13       |

```
      00 01 02 03 04 05 06 07  08 09 0A 0B 0C 0D 0E 0F
      -- -- -- -- -- -- -- --  -- -- -- -- -- -- -- --
1870:                      6E  0B 83 0D 01 FF 80 99 0B         n........
1880: 83 0D 01 2B 0B 83 0D 01  04 81 23 4A 0B 83 0D 01  ...+......#J....
1890: F0 FF FF 7F 6F 76 0B 83  0D 01 2B 0B 83 0D 01 05  ....ov....+.....
18A0: 81 23 2B 0B 83 0D 01 06  81 23 21 00              .#+......#!.    
```

## Opcodes

```
  0: 0x1877 [0x6E] Veit (ID: 17662731/0x010D830B) uses emote 33*
  1: 0x187E [0x99] Wait for Veit (ID: 17662731/0x010D830B) animation to complete
  2: 0x1883 [0x2B] Veit (ID: 17662731/0x010D830B) [8349*]:
    → "Blast! Th-this is a catastrophe!\u007F1\u0000\u0007"
  3: 0x188A [0x23] WAIT_FOR_DIALOG_INTERACTION
  4: 0x188B [0x4A] Veit (ID: 17662731/0x010D830B) looks at LocalPlayer
  5: 0x1894 [0x6F] WAIT_FRAME_DELAY: Yield until WaitTime reaches zero
  6: 0x1895 [0x76] CHECK_ENTITY_RENDER_FLAGS: Wait until Veit (ID: 17662731/0x010D830B) Render.Flags0 and Render.Flags3 conditions are met
  7: 0x189A [0x2B] Veit (ID: 17662731/0x010D830B) [8350*]:
    → "Huh? Who the hell are you?\u0007We don't take kindly to eavesdroppers around here. Return to your post...or wherever it is you came from.\u007F1\u0000\u0007"
  8: 0x18A1 [0x23] WAIT_FOR_DIALOG_INTERACTION
  9: 0x18A2 [0x2B] Veit (ID: 17662731/0x010D830B) [8351*]:
    → "Aye yai yai... If we don't retrieve them somehow, and soon...\u007F1\u0000\u0007"
 10: 0x18A9 [0x23] WAIT_FOR_DIALOG_INTERACTION
 11: 0x18AA [0x21] END_EVENT
 12: 0x18AB [0x00] END_REQSTACK()
```
