# Event 65535

## Metadata

| Field           | Value    |
|-----------------|----------|
| Event Index     | 98/103   |
| Offset          | 0x05A0   |
| Data Size       | 45 bytes |
| Calculated Size | 45 bytes |
| Instructions    | 9        |

```
      00 01 02 03 04 05 06 07  08 09 0A 0B 0C 0D 0E 0F
      -- -- -- -- -- -- -- --  -- -- -- -- -- -- -- --
05A0: 32 13 80 1F 00 BA 80 BB  80 B4 80 1F 01 6F 4A D3  2............oJ.
05B0: 20 03 01 CA 21 03 01 6F  76 D3 20 03 01 66 65 80   ...!..ov. ..fe.
05C0: D3 20 03 01 D3 20 03 01  73 68 61 30 00           . ... ..sha0.   
```

## Opcodes

```
  0: 0x05A0 [0x32] ExtData[1]->MainSpeed = 40* * 0.1
  1: 0x05A3 [0x1F] MOVE_ENTITY: EventEntity moves to X=-569.191*, Z=36.366*, Y=1.999*
  2: 0x05AB [0x1F] MOVE_ENTITY: Update entity position (mode=1)
  3: 0x05AD [0x6F] WAIT_FRAME_DELAY: Yield until WaitTime reaches zero
  4: 0x05AE [0x4A] Falzum (ID: 16982227/0x010320D3) looks at Yasmeel (ID: 16982474/0x010321CA)
  5: 0x05B7 [0x6F] WAIT_FRAME_DELAY: Yield until WaitTime reaches zero
  6: 0x05B8 [0x76] CHECK_ENTITY_RENDER_FLAGS: Wait until Falzum (ID: 16982227/0x010320D3) Render.Flags0 and Render.Flags3 conditions are met
  7: 0x05BD [0x66] LOAD_EXT_SCHEDULER_MAIN: Load scheduler "sha0" with entities [Falzum (ID: 16982227/0x010320D3), Falzum (ID: 16982227/0x010320D3)], work=29*
  8: 0x05CC [0x00] END_REQSTACK()
```
