# Event 65535

## Metadata

| Field           | Value    |
|-----------------|----------|
| Event Index     | 83/103   |
| Offset          | 0x04F5   |
| Data Size       | 60 bytes |
| Calculated Size | 60 bytes |
| Instructions    | 12       |

```
      00 01 02 03 04 05 06 07  08 09 0A 0B 0C 0D 0E 0F
      -- -- -- -- -- -- -- --  -- -- -- -- -- -- -- --
04F0:                32 13 80  1F 00 AA 80 AB 80 21 80       2........!.
0500: 1F 01 1F 00 AC 80 AD 80  21 80 1F 01 1F 00 AE 80  ........!.......
0510: AF 80 21 80 1F 01 1E 75  20 03 01 4A 75 20 03 01  ..!....u ..Ju ..
0520: D3 20 03 01 4A F0 FF FF  7F D3 20 03 01 1C 4B 80  . ..J..... ...K.
0530: 00                                                .               
```

## Opcodes

```
  0: 0x04F5 [0x32] ExtData[1]->MainSpeed = 40* * 0.1
  1: 0x04F8 [0x1F] MOVE_ENTITY: EventEntity moves to X=-75.957*, Z=126.455*, Y=-6.000*
  2: 0x0500 [0x1F] MOVE_ENTITY: Update entity position (mode=1)
  3: 0x0502 [0x1F] MOVE_ENTITY: EventEntity moves to X=-76.473*, Z=128.764*, Y=-6.000*
  4: 0x050A [0x1F] MOVE_ENTITY: Update entity position (mode=1)
  5: 0x050C [0x1F] MOVE_ENTITY: EventEntity moves to X=-74.565*, Z=128.913*, Y=-6.000*
  6: 0x0514 [0x1F] MOVE_ENTITY: Update entity position (mode=1)
  7: 0x0516 [0x1E] EventEntity looks at Nafiwaa (ID: 16982133/0x01032075) and starts talking
  8: 0x051B [0x4A] Nafiwaa (ID: 16982133/0x01032075) looks at Falzum (ID: 16982227/0x010320D3)
  9: 0x0524 [0x4A] LocalPlayer looks at Falzum (ID: 16982227/0x010320D3)
 10: 0x052D [0x1C] WAIT(30* ticks)
 11: 0x0530 [0x00] END_REQSTACK()
```
