# Event 10023

## Metadata

| Field           | Value    |
|-----------------|----------|
| Event Index     | 12/13    |
| Offset          | 0x0B57   |
| Data Size       | 43 bytes |
| Calculated Size | 43 bytes |
| Instructions    | 11       |

```
      00 01 02 03 04 05 06 07  08 09 0A 0B 0C 0D 0E 0F
      -- -- -- -- -- -- -- --  -- -- -- -- -- -- -- --
0B50:                      4A  F0 FF FF 7F 78 80 0F 01         J....x...
0B60: 6F 76 F0 FF FF 7F 1C 0F  80 4A 78 80 0F 01 F0 FF  ov.......Jx.....
0B70: FF 7F 6F 76 78 80 0F 01  2B 78 80 0F 01 56 80 23  ..ovx...+x...V.#
0B80: 21 00                                             !.              
```

## Opcodes

```
  0: 0x0B57 [0x4A] LocalPlayer looks at Helina (ID: 17793144/0x010F8078)
  1: 0x0B60 [0x6F] WAIT_FRAME_DELAY: Yield until WaitTime reaches zero
  2: 0x0B61 [0x76] CHECK_ENTITY_RENDER_FLAGS: Wait until LocalPlayer Render.Flags0 and Render.Flags3 conditions are met
  3: 0x0B66 [0x1C] WAIT(20* ticks)
  4: 0x0B69 [0x4A] Helina (ID: 17793144/0x010F8078) looks at LocalPlayer
  5: 0x0B72 [0x6F] WAIT_FRAME_DELAY: Yield until WaitTime reaches zero
  6: 0x0B73 [0x76] CHECK_ENTITY_RENDER_FLAGS: Wait until Helina (ID: 17793144/0x010F8078) Render.Flags0 and Render.Flags3 conditions are met
  7: 0x0B78 [0x2B] Helina (ID: 17793144/0x010F8078) [7943*]:
    → "Sorry to disappoint you, but your garments aren't ready yet.\u007F1\u0000\u0007"
  8: 0x0B7F [0x23] WAIT_FOR_DIALOG_INTERACTION
  9: 0x0B80 [0x21] END_EVENT
 10: 0x0B81 [0x00] END_REQSTACK()
```
