# Event 10034

## Metadata

| Field           | Value    |
|-----------------|----------|
| Event Index     | 10/13    |
| Offset          | 0x0AD5   |
| Data Size       | 43 bytes |
| Calculated Size | 43 bytes |
| Instructions    | 11       |

```
      00 01 02 03 04 05 06 07  08 09 0A 0B 0C 0D 0E 0F
      -- -- -- -- -- -- -- --  -- -- -- -- -- -- -- --
0AD0:                4A F0 FF  FF 7F 78 80 0F 01 6F 76       J....x...ov
0AE0: F0 FF FF 7F 1C 0F 80 4A  78 80 0F 01 F0 FF FF 7F  .......Jx.......
0AF0: 6F 76 78 80 0F 01 2B 78  80 0F 01 55 80 23 21 00  ovx...+x...U.#!.
```

## Opcodes

```
  0: 0x0AD5 [0x4A] LocalPlayer looks at Helina (ID: 17793144/0x010F8078)
  1: 0x0ADE [0x6F] WAIT_FRAME_DELAY: Yield until WaitTime reaches zero
  2: 0x0ADF [0x76] CHECK_ENTITY_RENDER_FLAGS: Wait until LocalPlayer Render.Flags0 and Render.Flags3 conditions are met
  3: 0x0AE4 [0x1C] WAIT(20* ticks)
  4: 0x0AE7 [0x4A] Helina (ID: 17793144/0x010F8078) looks at LocalPlayer
  5: 0x0AF0 [0x6F] WAIT_FRAME_DELAY: Yield until WaitTime reaches zero
  6: 0x0AF1 [0x76] CHECK_ENTITY_RENDER_FLAGS: Wait until Helina (ID: 17793144/0x010F8078) Render.Flags0 and Render.Flags3 conditions are met
  7: 0x0AF6 [0x2B] Helina (ID: 17793144/0x010F8078) [7962*]:
    → "I have completed all pieces of this geomantic attire, and will be more than willing to provide you with another should you lose the original.\u007F1\u0000\u0007"
  8: 0x0AFD [0x23] WAIT_FOR_DIALOG_INTERACTION
  9: 0x0AFE [0x21] END_EVENT
 10: 0x0AFF [0x00] END_REQSTACK()
```
