# 17531167 - Aldo

## Common Data

| Field            | Value                            |
|------------------|----------------------------------|
| Zone             | Lower Delkfutt's Tower (ID: 184) |
| Block Size       | 440 bytes                        |
| Total Events     | 16                               |
| References Count | 12                               |

## List of Events

| Event ID                   | Entrypoint   |   Size |   Instructions |
|----------------------------|--------------|--------|----------------|
| [65535](#event-65535)      | 0x0000       |      1 |              1 |
| [15](#event-15)            | 0x0001       |     10 |              2 |
| [65535.1](#event-655351)   | 0x000B       |     20 |              6 |
| [65535.2](#event-655352)   | 0x001F       |     32 |             12 |
| [65535.3](#event-655353)   | 0x003F       |      4 |              2 |
| [65535.4](#event-655354)   | 0x0043       |     13 |              4 |
| [65535.5](#event-655355)   | 0x0050       |     19 |              3 |
| [65535.6](#event-655356)   | 0x0063       |     29 |              3 |
| [65535.7](#event-655357)   | 0x0080       |     19 |              3 |
| [65535.8](#event-655358)   | 0x0093       |     29 |              3 |
| [65535.9](#event-655359)   | 0x00B0       |     19 |              3 |
| [65535.10](#event-6553510) | 0x00C3       |     29 |              3 |
| [65535.11](#event-6553511) | 0x00E0       |     19 |              3 |
| [65535.12](#event-6553512) | 0x00F3       |     29 |              3 |
| [65535.13](#event-6553513) | 0x0110       |     29 |              3 |
| [65535.14](#event-6553514) | 0x012D       |      9 |              3 |

## DAT References (imed_data)

|   Index | Hex Value   |   Dec Value |
|---------|-------------|-------------|
|       0 | 0x7087E     |      460926 |
|       1 | 0xFFFEE579  |  4294894969 |
|       2 | 0x0000      |           0 |
|       3 | 0x0C37      |        3127 |
|       4 | 0x000D      |          13 |
|       5 | 0xFFFEEC60  |  4294896736 |
|       6 | 0x001E      |          30 |
|       7 | 0x0800      |        2048 |
|       8 | 0x003C      |          60 |
|       9 | 0x0C00      |        3072 |
|      10 | 0xFFFFFA27  |  4294965799 |
|      11 | 0x00B9      |         185 |

## Events

### Event 65535

#### Metadata

| Field        | Value   |
|--------------|---------|
| Entrypoint   | 0x0000  |
| Data Size    | 1 bytes |
| Instructions | 1       |

```
      00 01 02 03 04 05 06 07  08 09 0A 0B 0C 0D 0E 0F
      -- -- -- -- -- -- -- --  -- -- -- -- -- -- -- --
0000: 00                                                .               
```

#### Opcodes

```
  0: 0x0000 [0x00] END_REQSTACK()
```

### Event 15

#### Metadata

| Field        | Value    |
|--------------|----------|
| Entrypoint   | 0x0001   |
| Data Size    | 10 bytes |
| Instructions | 2        |

```
      00 01 02 03 04 05 06 07  08 09 0A 0B 0C 0D 0E 0F
      -- -- -- -- -- -- -- --  -- -- -- -- -- -- -- --
0000:    37 00 80 01 80 02 80  03 80 00                  7.........     
```

#### Opcodes

```
  0: 0x0001 [0x37] UPDATE_EVENT_POSITION_AND_DIR: x=460.926*, z=-72.327*, y=0.000*, direction=274.8°*
  1: 0x000A [0x00] END_REQSTACK()
```

### Event 65535.1

#### Metadata

| Field        | Value    |
|--------------|----------|
| Entrypoint   | 0x000B   |
| Data Size    | 20 bytes |
| Instructions | 6        |

```
      00 01 02 03 04 05 06 07  08 09 0A 0B 0C 0D 0E 0F
      -- -- -- -- -- -- -- --  -- -- -- -- -- -- -- --
0000:                                   32 04 80 1F 00             2....
0010: 00 80 05 80 02 80 1F 01  6F 1E 20 81 0B 01 00     ........o. .... 
```

#### Opcodes

```
  0: 0x000B [0x32] ExtData[1]->MainSpeed = 13* * 0.1
  1: 0x000E [0x1F] MOVE_ENTITY: EventEntity moves to X=460.926*, Z=-70.560*, Y=0.000*
  2: 0x0016 [0x1F] MOVE_ENTITY: Update entity position (mode=1)
  3: 0x0018 [0x6F] WAIT_FRAME_DELAY: Yield until WaitTime reaches zero
  4: 0x0019 [0x1E] EventEntity looks at Lion (ID: 17531168/0x010B8120) and starts talking
  5: 0x001E [0x00] END_REQSTACK()
```

### Event 65535.2

#### Metadata

| Field        | Value    |
|--------------|----------|
| Entrypoint   | 0x001F   |
| Data Size    | 32 bytes |
| Instructions | 12       |

```
      00 01 02 03 04 05 06 07  08 09 0A 0B 0C 0D 0E 0F
      -- -- -- -- -- -- -- --  -- -- -- -- -- -- -- --
0010:                                               1C                 .
0020: 06 80 39 07 80 1C 08 80  1E 21 81 0B 01 6F 70 1C  ..9......!...op.
0030: 08 80 1E 21 81 0B 01 6F  70 5E 69 64 6C 30 00     ...!...op^idl0. 
```

#### Opcodes

```
  0: 0x001F [0x1C] WAIT(30* ticks)
  1: 0x0022 [0x39] SET_ENTITY_DIRECTION(direction=11.2°*)
  2: 0x0025 [0x1C] WAIT(60* ticks)
  3: 0x0028 [0x1E] EventEntity looks at Zeid (ID: 17531169/0x010B8121) and starts talking
  4: 0x002D [0x6F] WAIT_FRAME_DELAY: Yield until WaitTime reaches zero
  5: 0x002E [0x70] WAIT_ENTITY_RENDER_FLAG: Wait while EventEntity->Render.Flags3 bit 2 is set (cancel turn if not)
  6: 0x002F [0x1C] WAIT(60* ticks)
  7: 0x0032 [0x1E] EventEntity looks at Zeid (ID: 17531169/0x010B8121) and starts talking
  8: 0x0037 [0x6F] WAIT_FRAME_DELAY: Yield until WaitTime reaches zero
  9: 0x0038 [0x70] WAIT_ENTITY_RENDER_FLAG: Wait while EventEntity->Render.Flags3 bit 2 is set (cancel turn if not)
 10: 0x0039 [0x5E] EventEntity goes idle (kills current action) (animation: "idl0")
 11: 0x003E [0x00] END_REQSTACK()
```

### Event 65535.3

#### Metadata

| Field        | Value   |
|--------------|---------|
| Entrypoint   | 0x003F  |
| Data Size    | 4 bytes |
| Instructions | 2       |

```
      00 01 02 03 04 05 06 07  08 09 0A 0B 0C 0D 0E 0F
      -- -- -- -- -- -- -- --  -- -- -- -- -- -- -- --
0030:                                               39                 9
0040: 09 80 00                                          ...             
```

#### Opcodes

```
  0: 0x003F [0x39] SET_ENTITY_DIRECTION(direction=16.9°*)
  1: 0x0042 [0x00] END_REQSTACK()
```

### Event 65535.4

#### Metadata

| Field        | Value    |
|--------------|----------|
| Entrypoint   | 0x0043   |
| Data Size    | 13 bytes |
| Instructions | 4        |

```
      00 01 02 03 04 05 06 07  08 09 0A 0B 0C 0D 0E 0F
      -- -- -- -- -- -- -- --  -- -- -- -- -- -- -- --
0040:          1F 00 00 80 0A  80 02 80 1F 01 22 01 00     .........."..
```

#### Opcodes

```
  0: 0x0043 [0x1F] MOVE_ENTITY: EventEntity moves to X=460.926*, Z=-1.497*, Y=0.000*
  1: 0x004B [0x1F] MOVE_ENTITY: Update entity position (mode=1)
  2: 0x004D [0x22] ENTITY_HIDE_FLAG(enabled=0x01)
  3: 0x004F [0x00] END_REQSTACK()
```

### Event 65535.5

#### Metadata

| Field        | Value    |
|--------------|----------|
| Entrypoint   | 0x0050   |
| Data Size    | 19 bytes |
| Instructions | 3        |

```
      00 01 02 03 04 05 06 07  08 09 0A 0B 0C 0D 0E 0F
      -- -- -- -- -- -- -- --  -- -- -- -- -- -- -- --
0050: 5B 0B 80 F8 FF FF 7F F8  FF FF 7F 74 6C 6B 30 1C  [..........tlk0.
0060: 08 80 00                                          ...             
```

#### Opcodes

```
  0: 0x0050 [0x5B] LOAD_EXT_SCHEDULER: Load scheduler "tlk0" with entities [EventEntity, EventEntity], work=185*
  1: 0x005F [0x1C] WAIT(60* ticks)
  2: 0x0062 [0x00] END_REQSTACK()
```

### Event 65535.6

#### Metadata

| Field        | Value    |
|--------------|----------|
| Entrypoint   | 0x0063   |
| Data Size    | 29 bytes |
| Instructions | 3        |

```
      00 01 02 03 04 05 06 07  08 09 0A 0B 0C 0D 0E 0F
      -- -- -- -- -- -- -- --  -- -- -- -- -- -- -- --
0060:          5B 0B 80 F8 FF  FF 7F F8 FF FF 7F 74 6C     [..........tl
0070: 6B 31 53 F8 FF FF 7F F8  FF FF 7F 74 6C 6B 31 00  k1S........tlk1.
```

#### Opcodes

```
  0: 0x0063 [0x5B] LOAD_EXT_SCHEDULER: Load scheduler "tlk1" with entities [EventEntity, EventEntity], work=185*
  1: 0x0072 [0x53] WAIT_SCHEDULER_TASK: Wait for scheduler "tlk1" with entities [EventEntity, EventEntity]
  2: 0x007F [0x00] END_REQSTACK()
```

### Event 65535.7

#### Metadata

| Field        | Value    |
|--------------|----------|
| Entrypoint   | 0x0080   |
| Data Size    | 19 bytes |
| Instructions | 3        |

```
      00 01 02 03 04 05 06 07  08 09 0A 0B 0C 0D 0E 0F
      -- -- -- -- -- -- -- --  -- -- -- -- -- -- -- --
0080: 5B 0B 80 F8 FF FF 7F F8  FF FF 7F 75 64 65 30 1C  [..........ude0.
0090: 08 80 00                                          ...             
```

#### Opcodes

```
  0: 0x0080 [0x5B] LOAD_EXT_SCHEDULER: Load scheduler "ude0" with entities [EventEntity, EventEntity], work=185*
  1: 0x008F [0x1C] WAIT(60* ticks)
  2: 0x0092 [0x00] END_REQSTACK()
```

### Event 65535.8

#### Metadata

| Field        | Value    |
|--------------|----------|
| Entrypoint   | 0x0093   |
| Data Size    | 29 bytes |
| Instructions | 3        |

```
      00 01 02 03 04 05 06 07  08 09 0A 0B 0C 0D 0E 0F
      -- -- -- -- -- -- -- --  -- -- -- -- -- -- -- --
0090:          5B 0B 80 F8 FF  FF 7F F8 FF FF 7F 75 64     [..........ud
00A0: 65 31 53 F8 FF FF 7F F8  FF FF 7F 75 64 65 31 00  e1S........ude1.
```

#### Opcodes

```
  0: 0x0093 [0x5B] LOAD_EXT_SCHEDULER: Load scheduler "ude1" with entities [EventEntity, EventEntity], work=185*
  1: 0x00A2 [0x53] WAIT_SCHEDULER_TASK: Wait for scheduler "ude1" with entities [EventEntity, EventEntity]
  2: 0x00AF [0x00] END_REQSTACK()
```

### Event 65535.9

#### Metadata

| Field        | Value    |
|--------------|----------|
| Entrypoint   | 0x00B0   |
| Data Size    | 19 bytes |
| Instructions | 3        |

```
      00 01 02 03 04 05 06 07  08 09 0A 0B 0C 0D 0E 0F
      -- -- -- -- -- -- -- --  -- -- -- -- -- -- -- --
00B0: 5B 0B 80 F8 FF FF 7F F8  FF FF 7F 6B 6F 73 30 1C  [..........kos0.
00C0: 08 80 00                                          ...             
```

#### Opcodes

```
  0: 0x00B0 [0x5B] LOAD_EXT_SCHEDULER: Load scheduler "kos0" with entities [EventEntity, EventEntity], work=185*
  1: 0x00BF [0x1C] WAIT(60* ticks)
  2: 0x00C2 [0x00] END_REQSTACK()
```

### Event 65535.10

#### Metadata

| Field        | Value    |
|--------------|----------|
| Entrypoint   | 0x00C3   |
| Data Size    | 29 bytes |
| Instructions | 3        |

```
      00 01 02 03 04 05 06 07  08 09 0A 0B 0C 0D 0E 0F
      -- -- -- -- -- -- -- --  -- -- -- -- -- -- -- --
00C0:          5B 0B 80 F8 FF  FF 7F F8 FF FF 7F 6B 6F     [..........ko
00D0: 73 31 53 F8 FF FF 7F F8  FF FF 7F 6B 6F 73 31 00  s1S........kos1.
```

#### Opcodes

```
  0: 0x00C3 [0x5B] LOAD_EXT_SCHEDULER: Load scheduler "kos1" with entities [EventEntity, EventEntity], work=185*
  1: 0x00D2 [0x53] WAIT_SCHEDULER_TASK: Wait for scheduler "kos1" with entities [EventEntity, EventEntity]
  2: 0x00DF [0x00] END_REQSTACK()
```

### Event 65535.11

#### Metadata

| Field        | Value    |
|--------------|----------|
| Entrypoint   | 0x00E0   |
| Data Size    | 19 bytes |
| Instructions | 3        |

```
      00 01 02 03 04 05 06 07  08 09 0A 0B 0C 0D 0E 0F
      -- -- -- -- -- -- -- --  -- -- -- -- -- -- -- --
00E0: 5B 0B 80 F8 FF FF 7F F8  FF FF 7F 74 68 6B 31 1C  [..........thk1.
00F0: 08 80 00                                          ...             
```

#### Opcodes

```
  0: 0x00E0 [0x5B] LOAD_EXT_SCHEDULER: Load scheduler "thk1" with entities [EventEntity, EventEntity], work=185*
  1: 0x00EF [0x1C] WAIT(60* ticks)
  2: 0x00F2 [0x00] END_REQSTACK()
```

### Event 65535.12

#### Metadata

| Field        | Value    |
|--------------|----------|
| Entrypoint   | 0x00F3   |
| Data Size    | 29 bytes |
| Instructions | 3        |

```
      00 01 02 03 04 05 06 07  08 09 0A 0B 0C 0D 0E 0F
      -- -- -- -- -- -- -- --  -- -- -- -- -- -- -- --
00F0:          5B 0B 80 F8 FF  FF 7F F8 FF FF 7F 74 68     [..........th
0100: 6B 32 53 F8 FF FF 7F F8  FF FF 7F 74 68 6B 32 00  k2S........thk2.
```

#### Opcodes

```
  0: 0x00F3 [0x5B] LOAD_EXT_SCHEDULER: Load scheduler "thk2" with entities [EventEntity, EventEntity], work=185*
  1: 0x0102 [0x53] WAIT_SCHEDULER_TASK: Wait for scheduler "thk2" with entities [EventEntity, EventEntity]
  2: 0x010F [0x00] END_REQSTACK()
```

### Event 65535.13

#### Metadata

| Field        | Value    |
|--------------|----------|
| Entrypoint   | 0x0110   |
| Data Size    | 29 bytes |
| Instructions | 3        |

```
      00 01 02 03 04 05 06 07  08 09 0A 0B 0C 0D 0E 0F
      -- -- -- -- -- -- -- --  -- -- -- -- -- -- -- --
0110: 5B 0B 80 F8 FF FF 7F F8  FF FF 7F 70 61 73 30 53  [..........pas0S
0120: F8 FF FF 7F F8 FF FF 7F  70 61 73 30 00           ........pas0.   
```

#### Opcodes

```
  0: 0x0110 [0x5B] LOAD_EXT_SCHEDULER: Load scheduler "pas0" with entities [EventEntity, EventEntity], work=185*
  1: 0x011F [0x53] WAIT_SCHEDULER_TASK: Wait for scheduler "pas0" with entities [EventEntity, EventEntity]
  2: 0x012C [0x00] END_REQSTACK()
```

### Event 65535.14

#### Metadata

| Field        | Value   |
|--------------|---------|
| Entrypoint   | 0x012D  |
| Data Size    | 9 bytes |
| Instructions | 3       |

```
      00 01 02 03 04 05 06 07  08 09 0A 0B 0C 0D 0E 0F
      -- -- -- -- -- -- -- --  -- -- -- -- -- -- -- --
0120:                                         5E 69 64               ^id
0130: 6C 30 1C 06 80 00                                 l0....          
```

#### Opcodes

```
  0: 0x012D [0x5E] EventEntity goes idle (kills current action) (animation: "idl0")
  1: 0x0132 [0x1C] WAIT(30* ticks)
  2: 0x0135 [0x00] END_REQSTACK()
```
