# 17531190

## Common Data

| Field            | Value                            |
|------------------|----------------------------------|
| Zone             | Lower Delkfutt's Tower (ID: 184) |
| Block Size       | 100 bytes                        |
| Total Events     | 3                                |
| References Count | 5                                |

## List of Events

| Event ID                 | Entrypoint   |   Size |   Instructions |
|--------------------------|--------------|--------|----------------|
| [65535](#event-65535)    | 0x0000       |     13 |              3 |
| [39](#event-39)          | 0x000D       |      1 |              1 |
| [65535.1](#event-655351) | 0x000E       |     36 |              5 |

## DAT References (imed_data)

|   Index | Hex Value   |   Dec Value |
|---------|-------------|-------------|
|       0 | 0x0003      |           3 |
|       1 | 0xFFFE93E5  |  4294874085 |
|       2 | 0xFFFF7B95  |  4294933397 |
|       3 | 0x0400      |        1024 |
|       4 | 0x01C8      |         456 |

## Events

### Event 65535

#### Metadata

| Field        | Value    |
|--------------|----------|
| Entrypoint   | 0x0000   |
| Data Size    | 13 bytes |
| Instructions | 3        |

```
      00 01 02 03 04 05 06 07  08 09 0A 0B 0C 0D 0E 0F
      -- -- -- -- -- -- -- --  -- -- -- -- -- -- -- --
0000: 94 01 F8 FF FF 7F 92 01  F8 FF FF 7F 00           .............   
```

#### Opcodes

```
  0: 0x0000 [0x94] EventEntity->Render.Flags3 ^= 0x01
  1: 0x0006 [0x92] EventEntity->Render.Flags3 ^= 0x01
  2: 0x000C [0x00] END_REQSTACK()
```

### Event 39

#### Metadata

| Field        | Value   |
|--------------|---------|
| Entrypoint   | 0x000D  |
| Data Size    | 1 bytes |
| Instructions | 1       |

```
      00 01 02 03 04 05 06 07  08 09 0A 0B 0C 0D 0E 0F
      -- -- -- -- -- -- -- --  -- -- -- -- -- -- -- --
0000:                                         00                     .  
```

#### Opcodes

```
  0: 0x000D [0x00] END_REQSTACK()
```

### Event 65535.1

#### Metadata

| Field        | Value    |
|--------------|----------|
| Entrypoint   | 0x000E   |
| Data Size    | 36 bytes |
| Instructions | 5        |

```
      00 01 02 03 04 05 06 07  08 09 0A 0B 0C 0D 0E 0F
      -- -- -- -- -- -- -- --  -- -- -- -- -- -- -- --
0000:                                            94 01                ..
0010: F8 FF FF 7F 37 00 80 01  80 02 80 03 80 80 F8 FF  ....7...........
0020: FF 7F 5B 04 80 F8 FF FF  7F F8 FF FF 7F 64 77 6E  ..[..........dwn
0030: 30 00                                             0.              
```

#### Opcodes

```
  0: 0x000E [0x94] EventEntity->Render.Flags3 ^= 0x01
  1: 0x0014 [0x37] UPDATE_EVENT_POSITION_AND_DIR: x=0.003*, z=-93.211*, y=-33.899*, direction=90.0°*
  2: 0x001D [0x80] LOAD_WAIT(entity=EventEntity)
  3: 0x0022 [0x5B] LOAD_EXT_SCHEDULER: Load scheduler "dwn0" with entities [EventEntity, EventEntity], work=456*
  4: 0x0031 [0x00] END_REQSTACK()
```
