# 17531169 - Zeid

## Common Data

| Field            | Value                            |
|------------------|----------------------------------|
| Zone             | Lower Delkfutt's Tower (ID: 184) |
| Block Size       | 224 bytes                        |
| Total Events     | 8                                |
| References Count | 10                               |

## List of Events

| Event ID                 | Entrypoint   |   Size |   Instructions |
|--------------------------|--------------|--------|----------------|
| [65535](#event-65535)    | 0x0000       |      1 |              1 |
| [15](#event-15)          | 0x0001       |     10 |              2 |
| [65535.1](#event-655351) | 0x000B       |     15 |              5 |
| [65535.2](#event-655352) | 0x001A       |     14 |              5 |
| [65535.3](#event-655353) | 0x0028       |     19 |              3 |
| [65535.4](#event-655354) | 0x003B       |     29 |              3 |
| [65535.5](#event-655355) | 0x0058       |     19 |              3 |
| [65535.6](#event-655356) | 0x006B       |     29 |              3 |

## DAT References (imed_data)

|   Index | Hex Value   |   Dec Value |
|---------|-------------|-------------|
|       0 | 0x704BD     |      459965 |
|       1 | 0xFFFED774  |  4294891380 |
|       2 | 0x0000      |           0 |
|       3 | 0x0C2E      |        3118 |
|       4 | 0x000D      |          13 |
|       5 | 0x704C4     |      459972 |
|       6 | 0xFFFEE4D3  |  4294894803 |
|       7 | 0xFFFFFA27  |  4294965799 |
|       8 | 0x00F4      |         244 |
|       9 | 0x003C      |          60 |

## Events

### Event 65535

#### Metadata

| Field        | Value   |
|--------------|---------|
| Entrypoint   | 0x0000  |
| Data Size    | 1 bytes |
| Instructions | 1       |

```
      00 01 02 03 04 05 06 07  08 09 0A 0B 0C 0D 0E 0F
      -- -- -- -- -- -- -- --  -- -- -- -- -- -- -- --
0000: 00                                                .               
```

#### Opcodes

```
  0: 0x0000 [0x00] END_REQSTACK()
```

### Event 15

#### Metadata

| Field        | Value    |
|--------------|----------|
| Entrypoint   | 0x0001   |
| Data Size    | 10 bytes |
| Instructions | 2        |

```
      00 01 02 03 04 05 06 07  08 09 0A 0B 0C 0D 0E 0F
      -- -- -- -- -- -- -- --  -- -- -- -- -- -- -- --
0000:    37 00 80 01 80 02 80  03 80 00                  7.........     
```

#### Opcodes

```
  0: 0x0001 [0x37] UPDATE_EVENT_POSITION_AND_DIR: x=459.965*, z=-75.916*, y=0.000*, direction=274.0°*
  1: 0x000A [0x00] END_REQSTACK()
```

### Event 65535.1

#### Metadata

| Field        | Value    |
|--------------|----------|
| Entrypoint   | 0x000B   |
| Data Size    | 15 bytes |
| Instructions | 5        |

```
      00 01 02 03 04 05 06 07  08 09 0A 0B 0C 0D 0E 0F
      -- -- -- -- -- -- -- --  -- -- -- -- -- -- -- --
0000:                                   32 04 80 1F 00             2....
0010: 05 80 06 80 02 80 1F 01  6F 00                    ........o.      
```

#### Opcodes

```
  0: 0x000B [0x32] ExtData[1]->MainSpeed = 13* * 0.1
  1: 0x000E [0x1F] MOVE_ENTITY: EventEntity moves to X=459.972*, Z=-72.493*, Y=0.000*
  2: 0x0016 [0x1F] MOVE_ENTITY: Update entity position (mode=1)
  3: 0x0018 [0x6F] WAIT_FRAME_DELAY: Yield until WaitTime reaches zero
  4: 0x0019 [0x00] END_REQSTACK()
```

### Event 65535.2

#### Metadata

| Field        | Value    |
|--------------|----------|
| Entrypoint   | 0x001A   |
| Data Size    | 14 bytes |
| Instructions | 5        |

```
      00 01 02 03 04 05 06 07  08 09 0A 0B 0C 0D 0E 0F
      -- -- -- -- -- -- -- --  -- -- -- -- -- -- -- --
0010:                                1F 00 05 80 07 80            ......
0020: 02 80 1F 01 6F 22 01 00                           ....o"..        
```

#### Opcodes

```
  0: 0x001A [0x1F] MOVE_ENTITY: EventEntity moves to X=459.972*, Z=-1.497*, Y=0.000*
  1: 0x0022 [0x1F] MOVE_ENTITY: Update entity position (mode=1)
  2: 0x0024 [0x6F] WAIT_FRAME_DELAY: Yield until WaitTime reaches zero
  3: 0x0025 [0x22] ENTITY_HIDE_FLAG(enabled=0x01)
  4: 0x0027 [0x00] END_REQSTACK()
```

### Event 65535.3

#### Metadata

| Field        | Value    |
|--------------|----------|
| Entrypoint   | 0x0028   |
| Data Size    | 19 bytes |
| Instructions | 3        |

```
      00 01 02 03 04 05 06 07  08 09 0A 0B 0C 0D 0E 0F
      -- -- -- -- -- -- -- --  -- -- -- -- -- -- -- --
0020:                          5B 08 80 F8 FF FF 7F F8          [.......
0030: FF FF 7F 74 6B 62 30 1C  09 80 00                 ...tkb0....     
```

#### Opcodes

```
  0: 0x0028 [0x5B] LOAD_EXT_SCHEDULER: Load scheduler "tkb0" with entities [EventEntity, EventEntity], work=244*
  1: 0x0037 [0x1C] WAIT(60* ticks)
  2: 0x003A [0x00] END_REQSTACK()
```

### Event 65535.4

#### Metadata

| Field        | Value    |
|--------------|----------|
| Entrypoint   | 0x003B   |
| Data Size    | 29 bytes |
| Instructions | 3        |

```
      00 01 02 03 04 05 06 07  08 09 0A 0B 0C 0D 0E 0F
      -- -- -- -- -- -- -- --  -- -- -- -- -- -- -- --
0030:                                   5B 08 80 F8 FF             [....
0040: FF 7F F8 FF FF 7F 74 6B  62 31 53 F8 FF FF 7F F8  ......tkb1S.....
0050: FF FF 7F 74 6B 62 31 00                           ...tkb1.        
```

#### Opcodes

```
  0: 0x003B [0x5B] LOAD_EXT_SCHEDULER: Load scheduler "tkb1" with entities [EventEntity, EventEntity], work=244*
  1: 0x004A [0x53] WAIT_SCHEDULER_TASK: Wait for scheduler "tkb1" with entities [EventEntity, EventEntity]
  2: 0x0057 [0x00] END_REQSTACK()
```

### Event 65535.5

#### Metadata

| Field        | Value    |
|--------------|----------|
| Entrypoint   | 0x0058   |
| Data Size    | 19 bytes |
| Instructions | 3        |

```
      00 01 02 03 04 05 06 07  08 09 0A 0B 0C 0D 0E 0F
      -- -- -- -- -- -- -- --  -- -- -- -- -- -- -- --
0050:                          5B 08 80 F8 FF FF 7F F8          [.......
0060: FF FF 7F 75 64 65 30 1C  09 80 00                 ...ude0....     
```

#### Opcodes

```
  0: 0x0058 [0x5B] LOAD_EXT_SCHEDULER: Load scheduler "ude0" with entities [EventEntity, EventEntity], work=244*
  1: 0x0067 [0x1C] WAIT(60* ticks)
  2: 0x006A [0x00] END_REQSTACK()
```

### Event 65535.6

#### Metadata

| Field        | Value    |
|--------------|----------|
| Entrypoint   | 0x006B   |
| Data Size    | 29 bytes |
| Instructions | 3        |

```
      00 01 02 03 04 05 06 07  08 09 0A 0B 0C 0D 0E 0F
      -- -- -- -- -- -- -- --  -- -- -- -- -- -- -- --
0060:                                   5B 08 80 F8 FF             [....
0070: FF 7F F8 FF FF 7F 75 64  65 31 53 F8 FF FF 7F F8  ......ude1S.....
0080: FF FF 7F 75 64 65 31 00                           ...ude1.        
```

#### Opcodes

```
  0: 0x006B [0x5B] LOAD_EXT_SCHEDULER: Load scheduler "ude1" with entities [EventEntity, EventEntity], work=244*
  1: 0x007A [0x53] WAIT_SCHEDULER_TASK: Wait for scheduler "ude1" with entities [EventEntity, EventEntity]
  2: 0x0087 [0x00] END_REQSTACK()
```
