# 17531240

## Common Data

| Field            | Value                            |
|------------------|----------------------------------|
| Zone             | Lower Delkfutt's Tower (ID: 184) |
| Block Size       | 4256 bytes                       |
| Total Events     | 3                                |
| References Count | 104                              |

## List of Events

| Event ID              | Entrypoint   |   Size |   Instructions |
|-----------------------|--------------|--------|----------------|
| [65535](#event-65535) | 0x0000       |      1 |              1 |
| [52](#event-52)       | 0x0001       |      6 |              4 |
| [51](#event-51)       | 0x0007       |   3803 |            455 |

## DAT References (imed_data)

|   Index | Hex Value   |   Dec Value |
|---------|-------------|-------------|
|       0 | 0x0001      |           1 |
|       1 | 0x00C8      |         200 |
|       2 | 0x0000      |           0 |
|       3 | 0x001B      |          27 |
|       4 | 0x0005      |           5 |
|       5 | 0x0006      |           6 |
|       6 | 0x0007      |           7 |
|       7 | 0x0008      |           8 |
|       8 | 0x70A01     |      461313 |
|       9 | 0xFFFF1042  |  4294905922 |
|      10 | 0x071F      |        1823 |
|      11 | 0x6FF7C     |      458620 |
|      12 | 0xFFFEE162  |  4294893922 |
|      13 | 0x0CF3      |        3315 |
|      14 | 0x0003      |           3 |
|      15 | 0x701C0     |      459200 |
|      16 | 0xFFFF06C8  |  4294903496 |
|      17 | 0xFFFFFB50  |  4294966096 |
|      18 | 0x0019      |          25 |
|      19 | 0x0004      |           4 |
|      20 | 0xFFFFFED4  |  4294966996 |
|      21 | 0xFFFF06FA  |  4294903546 |
|      22 | 0xFFFFFC4A  |  4294966346 |
|      23 | 0xFFFFFC18  |  4294966296 |
|      24 | 0x001E      |          30 |
|      25 | 0x0F19      |        3865 |
|      26 | 0x004F      |          79 |
|      27 | 0x02FB      |         763 |
|      28 | 0x000F      |          15 |
|      29 | 0x0078      |         120 |
|      30 | 0x2E21      |       11809 |
|      31 | 0x2E22      |       11810 |
|      32 | 0x003C      |          60 |
|      33 | 0x0F1C      |        3868 |
|      34 | 0x012C      |         300 |
|      35 | 0x0014      |          20 |
|      36 | 0x0028      |          40 |
|      37 | 0x2E23      |       11811 |
|      38 | 0x2E24      |       11812 |
|      39 | 0x0F15      |        3861 |
|      40 | 0x2E25      |       11813 |
|      41 | 0x2E26      |       11814 |
|      42 | 0x2E27      |       11815 |
|      43 | 0x0067      |         103 |
|      44 | 0x0F16      |        3862 |
|      45 | 0x2E2F      |       11823 |
|      46 | 0x2E30      |       11824 |
|      47 | 0x2E31      |       11825 |
|      48 | 0x0020      |          32 |
|      49 | 0x0096      |         150 |
|      50 | 0x0050      |          80 |
|      51 | 0x2E32      |       11826 |
|      52 | 0x2E33      |       11827 |
|      53 | 0x2E34      |       11828 |
|      54 | 0x005A      |          90 |
|      55 | 0x2E28      |       11816 |
|      56 | 0x2E29      |       11817 |
|      57 | 0x2E2A      |       11818 |
|      58 | 0x2E2B      |       11819 |
|      59 | 0x2E2C      |       11820 |
|      60 | 0x0002      |           2 |
|      61 | 0x2E2D      |       11821 |
|      62 | 0x2E2E      |       11822 |
|      63 | 0x0010      |          16 |
|      64 | 0x0D24      |        3364 |
|      65 | 0x2E35      |       11829 |
|      66 | 0x2E36      |       11830 |
|      67 | 0x2E37      |       11831 |
|      68 | 0x0082      |         130 |
|      69 | 0x2E38      |       11832 |
|      70 | 0x2E39      |       11833 |
|      71 | 0x2E3A      |       11834 |
|      72 | 0x2E3B      |       11835 |
|      73 | 0x2E3C      |       11836 |
|      74 | 0x2E43      |       11843 |
|      75 | 0x2E44      |       11844 |
|      76 | 0x2E3F      |       11839 |
|      77 | 0x2E40      |       11840 |
|      78 | 0x2E41      |       11841 |
|      79 | 0x2E42      |       11842 |
|      80 | 0x2E46      |       11846 |
|      81 | 0x2E47      |       11847 |
|      82 | 0x2E48      |       11848 |
|      83 | 0x2E49      |       11849 |
|      84 | 0x00A4      |         164 |
|      85 | 0x2E4A      |       11850 |
|      86 | 0x0F17      |        3863 |
|      87 | 0x0015      |          21 |
|      88 | 0x2E4B      |       11851 |
|      89 | 0x0064      |         100 |
|      90 | 0x006E      |         110 |
|      91 | 0x2E4C      |       11852 |
|      92 | 0x2E4D      |       11853 |
|      93 | 0x2E4E      |       11854 |
|      94 | 0x2E4F      |       11855 |
|      95 | 0x0013      |          19 |
|      96 | 0x0072      |         114 |
|      97 | 0x2E50      |       11856 |
|      98 | 0x0F12      |        3858 |
|      99 | 0x2E51      |       11857 |
|     100 | 0x2E45      |       11845 |
|     101 | 0x0F1D      |        3869 |
|     102 | 0x008C      |         140 |
|     103 | 0x02F9      |         761 |

## String References

- **11810**: How do you respond? [Are you all right?/What happened?]
- **11829**: Have anything to say? [I'd like you to meet Tenzen./Where will you go?]
- **11847**: Where can Tenzen be found? [Jeuno?/Tavnazia?/The Far East?]

## Events

### Event 65535

#### Metadata

| Field        | Value   |
|--------------|---------|
| Entrypoint   | 0x0000  |
| Data Size    | 1 bytes |
| Instructions | 1       |

```
      00 01 02 03 04 05 06 07  08 09 0A 0B 0C 0D 0E 0F
      -- -- -- -- -- -- -- --  -- -- -- -- -- -- -- --
0000: 00                                                .               
```

#### Opcodes

```
  0: 0x0000 [0x00] END_REQSTACK()
```

### Event 52

#### Metadata

| Field        | Value   |
|--------------|---------|
| Entrypoint   | 0x0001  |
| Data Size    | 6 bytes |
| Instructions | 4       |

```
      00 01 02 03 04 05 06 07  08 09 0A 0B 0C 0D 0E 0F
      -- -- -- -- -- -- -- --  -- -- -- -- -- -- -- --
0000:    42 1A 16 00 21 00                               B...!.         
```

#### Opcodes

```
  0: 0x0001 [0x42] SET_CLI_EVENT_CANCEL_DATA()
  1: 0x0002 [0x1A] CALL_SUBROUTINE(address=0x0016)
  2: 0x0005 [0x21] END_EVENT
  3: 0x0006 [0x00] END_REQSTACK()
```

### Event 51

#### Metadata

| Field        | Value      |
|--------------|------------|
| Entrypoint   | 0x0007     |
| Data Size    | 3803 bytes |
| Instructions | 454        |

```
      00 01 02 03 04 05 06 07  08 09 0A 0B 0C 0D 0E 0F
      -- -- -- -- -- -- -- --  -- -- -- -- -- -- -- --
0000:                      42  03 01 10 00 80 43 00 43         B.....C.C
0010: 01 1A 16 00 21 00 03 00  00 02 10 03 01 00 03 10  ....!...........
0020: 45 01 80 F8 FF FF 7F F8  FF FF 7F 66 64 6F 31 02  E..........fdo1.
0030: 80 55 01 80 F8 FF FF 7F  F8 FF FF 7F 66 64 6F 31  .U..........fdo1
0040: 46 01 38 03 80 2F 00 69  81 0B 01 2F 00 6A 81 0B  F.8../.i.../.j..
0050: 01 2F 00 6B 81 0B 01 4E  00 69 81 0B 01 4E 00 6A  ./.k...N.i...N.j
0060: 81 0B 01 4E 00 F0 FF FF  7F 4E 00 6B 81 0B 01 92  ...N.....N.k....
0070: 01 69 81 0B 01 92 01 6B  81 0B 01 94 01 69 81 0B  .i.....k.....i..
0080: 01 94 01 6A 81 0B 01 94  01 F0 FF FF 7F 94 01 6B  ...j...........k
0090: 81 0B 01 27 05 6B 81 0B  01 02 02 87 7F 04 80 80  ...'.k..........
00A0: AC 00 27 05 F0 FF FF 7F  32 01 E9 00 02 87 7F 05  ..'.....2.......
00B0: 80 80 BE 00 27 05 F0 FF  FF 7F 32 01 E9 00 02 87  ....'.....2.....
00C0: 7F 06 80 80 D0 00 27 05  F0 FF FF 7F 33 01 E9 00  ......'.....3...
00D0: 02 87 7F 07 80 80 E2 00  27 05 F0 FF FF 7F 34 01  ........'.....4.
00E0: E9 00 27 05 F0 FF FF 7F  35 59 05 6A 81 0B 01 01  ..'.....5Y.j....
00F0: BA 69 81 0B 01 08 80 09  80 02 80 0A 80 BA F0 FF  .i..............
0100: FF 7F 0B 80 0C 80 02 80  0D 80 BA 6B 81 0B 01 08  ...........k....
0110: 80 09 80 02 80 0A 80 02  87 7F 0E 80 80 2F 01 BA  ............./..
0120: 6A 81 0B 01 0F 80 10 80  11 80 12 80 01 B4 01 02  j...............
0130: 87 7F 13 80 80 47 01 BA  6A 81 0B 01 0F 80 10 80  .....G..j.......
0140: 11 80 12 80 01 B4 01 02  87 7F 04 80 80 5F 01 BA  ............._..
0150: 6A 81 0B 01 0F 80 10 80  14 80 12 80 01 B4 01 02  j...............
0160: 87 7F 05 80 80 77 01 BA  6A 81 0B 01 0F 80 10 80  .....w..j.......
0170: 14 80 12 80 01 B4 01 02  87 7F 06 80 80 8F 01 BA  ................
0180: 6A 81 0B 01 0F 80 15 80  16 80 12 80 01 B4 01 02  j...............
0190: 87 7F 07 80 80 A7 01 BA  6A 81 0B 01 0F 80 10 80  ........j.......
01A0: 11 80 12 80 01 B4 01 BA  6A 81 0B 01 0F 80 10 80  ........j.......
01B0: 17 80 12 80 80 F0 FF FF  7F 80 6A 81 0B 01 80 69  ..........j....i
01C0: 81 0B 01 1C 18 80 81 00  69 81 0B 01 7C 00 69 81  ........i...|.i.
01D0: 0B 01 5B 19 80 69 81 0B  01 69 81 0B 01 68 69 7A  ..[..i...i...hiz
01E0: 6C 1C 18 80 5C 00 1A 80  5C 01 1A 80 9A 45 1B 80  l...\...\....E..
01F0: F8 FF FF 7F F8 FF FF 7F  73 31 36 35 02 80 1C 1C  ........s165....
0200: 80 45 01 80 F8 FF FF 7F  F8 FF FF 7F 66 64 69 31  .E..........fdi1
0210: 02 80 1C 1D 80 27 05 F0  FF FF 7F 36 52 1B 80 F8  .....'.....6R...
0220: FF FF 7F F8 FF FF 7F 73  31 36 35 45 1B 80 F8 FF  .......s165E....
0230: FF 7F F8 FF FF 7F 73 30  33 37 02 80 2A 05 F0 FF  ......s037..*...
0240: FF 7F 52 1B 80 F8 FF FF  7F F8 FF FF 7F 73 30 33  ..R..........s03
0250: 37 45 1B 80 F8 FF FF 7F  F8 FF FF 7F 73 30 33 38  7E..........s038
0260: 02 80 2B 69 81 0B 01 1E  80 23 24 1F 80 02 80 02  ..+i.....#$.....
0270: 80 25 02 00 10 02 80 00  7D 02 01 7D 02 27 05 F0  .%......}..}.'..
0280: FF FF 7F 30 1C 20 80 5F  05 21 80 69 81 0B 01 69  ...0. ._.!.i...i
0290: 81 0B 01 68 69 7A 31 22  80 1C 23 80 27 05 F0 FF  ...hiz1"..#.'...
02A0: FF 7F 31 1C 24 80 52 1B  80 F8 FF FF 7F F8 FF FF  ..1.$.R.........
02B0: 7F 73 30 33 38 45 1B 80  F8 FF FF 7F F8 FF FF 7F  .s038E..........
02C0: 73 31 36 36 02 80 2B 69  81 0B 01 25 80 23 2B 69  s166..+i...%.#+i
02D0: 81 0B 01 26 80 23 5F 07  69 81 0B 01 69 81 0B 01  ...&.#_.i...i...
02E0: 68 69 7A 31 81 01 69 81  0B 01 7C 01 69 81 0B 01  hiz1..i...|.i...
02F0: 52 1B 80 F8 FF FF 7F F8  FF FF 7F 73 31 36 36 45  R..........s166E
0300: 1B 80 F8 FF FF 7F F8 FF  FF 7F 73 30 33 39 02 80  ..........s039..
0310: 5B 27 80 69 81 0B 01 69  81 0B 01 74 6C 6B 30 2B  ['.i...i...tlk0+
0320: 69 81 0B 01 28 80 23 2B  69 81 0B 01 29 80 23 2B  i...(.#+i...).#+
0330: 69 81 0B 01 2A 80 23 5B  27 80 69 81 0B 01 69 81  i...*.#['.i...i.
0340: 0B 01 74 6C 6B 31 52 1B  80 F8 FF FF 7F F8 FF FF  ..tlk1R.........
0350: 7F 73 30 33 39 02 87 7F  0E 80 80 71 03 45 1B 80  .s039......q.E..
0360: F8 FF FF 7F F8 FF FF 7F  73 30 34 31 02 80 01 F2  ........s041....
0370: 03 02 87 7F 13 80 80 8D  03 45 1B 80 F8 FF FF 7F  .........E......
0380: F8 FF FF 7F 73 30 34 31  02 80 01 F2 03 02 87 7F  ....s041........
0390: 04 80 80 A9 03 45 1B 80  F8 FF FF 7F F8 FF FF 7F  .....E..........
03A0: 73 30 34 32 02 80 01 F2  03 02 87 7F 05 80 80 C5  s042............
03B0: 03 45 1B 80 F8 FF FF 7F  F8 FF FF 7F 73 30 34 32  .E..........s042
03C0: 02 80 01 F2 03 02 87 7F  07 80 80 E1 03 45 1B 80  .............E..
03D0: F8 FF FF 7F F8 FF FF 7F  73 30 34 31 02 80 01 F2  ........s041....
03E0: 03 45 1B 80 F8 FF FF 7F  F8 FF FF 7F 73 30 34 30  .E..........s040
03F0: 02 80 D0 2B 80 6A 81 0B  01 6A 81 0B 01 73 74 61  ...+.j...j...sta
0400: 31 02 80 1C 20 80 4A 69  81 0B 01 F0 FF FF 7F 1C  1... .Ji........
0410: 20 80 52 1B 80 F8 FF FF  7F F8 FF FF 7F 73 30 34   .R..........s04
0420: 30 52 1B 80 F8 FF FF 7F  F8 FF FF 7F 73 30 34 31  0R..........s041
0430: 52 1B 80 F8 FF FF 7F F8  FF FF 7F 73 30 34 32 45  R..........s042E
0440: 1B 80 F8 FF FF 7F F8 FF  FF 7F 73 30 34 33 02 80  ..........s043..
0450: 5B 2C 80 69 81 0B 01 69  81 0B 01 79 65 73 30 02  [,.i...i...yes0.
0460: 01 00 00 80 04 80 05 2B  69 81 0B 01 2D 80 23 2B  .......+i...-.#+
0470: 69 81 0B 01 2E 80 23 D0  2B 80 6A 81 0B 01 6A 81  i.....#.+.j...j.
0480: 0B 01 6B 69 6C 32 02 80  52 1B 80 F8 FF FF 7F F8  ..kil2..R.......
0490: FF FF 7F 73 30 34 33 45  1B 80 F8 FF FF 7F F8 FF  ...s043E........
04A0: FF 7F 73 30 34 34 02 80  5B 27 80 69 81 0B 01 69  ..s044..['.i...i
04B0: 81 0B 01 74 6C 6B 30 2B  69 81 0B 01 2F 80 23 5B  ...tlk0+i.../.#[
04C0: 27 80 69 81 0B 01 69 81  0B 01 74 6C 6B 31 6E F0  '.i...i...tlk1n.
04D0: FF FF 7F 30 80 99 F0 FF  FF 7F 1C 31 80 27 05 F0  ...0.......1.'..
04E0: FF FF 7F 30 1C 32 80 27  05 F0 FF FF 7F 31 1C 24  ...0.2.'.....1.$
04F0: 80 52 1B 80 F8 FF FF 7F  F8 FF FF 7F 73 30 34 34  .R..........s044
0500: 45 1B 80 F8 FF FF 7F F8  FF FF 7F 73 30 34 35 02  E..........s045.
0510: 80 81 00 69 81 0B 01 7C  00 69 81 0B 01 5B 2C 80  ...i...|.i...[,.
0520: 69 81 0B 01 69 81 0B 01  74 68 6B 30 2B 69 81 0B  i...i...thk0+i..
0530: 01 33 80 23 5B 2C 80 69  81 0B 01 69 81 0B 01 74  .3.#[,.i...i...t
0540: 68 6B 31 81 01 69 81 0B  01 7C 01 69 81 0B 01 2B  hk1..i...|.i...+
0550: 69 81 0B 01 34 80 23 2B  69 81 0B 01 35 80 23 6E  i...4.#+i...5.#n
0560: F0 FF FF 7F 06 80 99 F0  FF FF 7F 1C 36 80 52 1B  ............6.R.
0570: 80 F8 FF FF 7F F8 FF FF  7F 73 30 34 35 01 C6 06  .........s045...
0580: 02 00 00 02 80 80 F2 05  2B 69 81 0B 01 37 80 23  ........+i...7.#
0590: 2B 69 81 0B 01 38 80 23  2B 69 81 0B 01 39 80 23  +i...8.#+i...9.#
05A0: D0 2B 80 6A 81 0B 01 6A  81 0B 01 6B 69 6C 32 02  .+.j...j...kil2.
05B0: 80 52 1B 80 F8 FF FF 7F  F8 FF FF 7F 73 30 34 33  .R..........s043
05C0: 45 1B 80 F8 FF FF 7F F8  FF FF 7F 73 30 34 34 02  E..........s044.
05D0: 80 6E F0 FF FF 7F 06 80  99 F0 FF FF 7F 1C 1D 80  .n..............
05E0: 52 1B 80 F8 FF FF 7F F8  FF FF 7F 73 30 34 34 01  R..........s044.
05F0: C6 06 02 00 00 00 80 80  5C 06 2B 69 81 0B 01 3A  ........\.+i...:
0600: 80 23 2B 69 81 0B 01 3B  80 23 D0 2B 80 6A 81 0B  .#+i...;.#.+.j..
0610: 01 6A 81 0B 01 6B 69 6C  32 02 80 52 1B 80 F8 FF  .j...kil2..R....
0620: FF 7F F8 FF FF 7F 73 30  34 33 45 1B 80 F8 FF FF  ......s043E.....
0630: 7F F8 FF FF 7F 73 30 34  34 02 80 6E F0 FF FF 7F  .....s044..n....
0640: 06 80 99 F0 FF FF 7F 1C  1D 80 52 1B 80 F8 FF FF  ..........R.....
0650: 7F F8 FF FF 7F 73 30 34  34 01 C6 06 02 00 00 3C  .....s044......<
0660: 80 80 C6 06 2B 69 81 0B  01 3D 80 23 2B 69 81 0B  ....+i...=.#+i..
0670: 01 3E 80 23 D0 2B 80 6A  81 0B 01 6A 81 0B 01 6B  .>.#.+.j...j...k
0680: 69 6C 32 02 80 52 1B 80  F8 FF FF 7F F8 FF FF 7F  il2..R..........
0690: 73 30 34 33 45 1B 80 F8  FF FF 7F F8 FF FF 7F 73  s043E..........s
06A0: 30 34 34 02 80 6E F0 FF  FF 7F 06 80 99 F0 FF FF  044..n..........
06B0: 7F 1C 1D 80 52 1B 80 F8  FF FF 7F F8 FF FF 7F 73  ....R..........s
06C0: 30 34 34 01 C6 06 45 1B  80 F8 FF FF 7F F8 FF FF  044...E.........
06D0: 7F 73 30 34 36 02 80 27  05 69 81 0B 01 02 1C 36  .s046..'.i.....6
06E0: 80 4A F0 FF FF 7F 69 81  0B 01 4A 6B 81 0B 01 69  .J....i...Jk...i
06F0: 81 0B 01 7B 6B 81 0B 01  1C 18 80 52 1B 80 F8 FF  ...{k......R....
0700: FF 7F F8 FF FF 7F 73 30  34 36 45 1B 80 F8 FF FF  ......s046E.....
0710: 7F F8 FF FF 7F 73 30 34  37 02 80 6E F0 FF FF 7F  .....s047..n....
0720: 3F 80 99 F0 FF FF 7F 5B  40 80 6B 81 0B 01 6B 81  ?......[@.k...k.
0730: 0B 01 6E 69 6E 6C 1C 1D  80 4A F0 FF FF 7F 69 81  ..ninl...J....i.
0740: 0B 01 52 1B 80 F8 FF FF  7F F8 FF FF 7F 73 30 34  ..R..........s04
0750: 37 03 02 00 02 80 02 87  7F 04 80 80 72 07 45 1B  7...........r.E.
0760: 80 F8 FF FF 7F F8 FF FF  7F 73 30 34 39 02 80 01  .........s049...
0770: 9F 07 02 87 7F 05 80 80  8E 07 45 1B 80 F8 FF FF  ..........E.....
0780: 7F F8 FF FF 7F 73 30 34  39 02 80 01 9F 07 45 1B  .....s049.....E.
0790: 80 F8 FF FF 7F F8 FF FF  7F 73 30 34 38 02 80 24  .........s048..$
07A0: 41 80 02 80 02 00 25 02  00 10 02 80 00 C7 08 4A  A.....%........J
07B0: 69 81 0B 01 F0 FF FF 7F  1C 18 80 52 1B 80 F8 FF  i..........R....
07C0: FF 7F F8 FF FF 7F 73 30  34 38 52 1B 80 F8 FF FF  ......s048R.....
07D0: 7F F8 FF FF 7F 73 30 34  39 45 1B 80 F8 FF FF 7F  .....s049E......
07E0: F8 FF FF 7F 73 30 35 30  02 80 2B 69 81 0B 01 42  ....s050..+i...B
07F0: 80 23 5B 2C 80 69 81 0B  01 69 81 0B 01 79 65 73  .#[,.i...i...yes
0800: 30 2B 69 81 0B 01 43 80  1C 44 80 23 52 1B 80 F8  0+i...C..D.#R...
0810: FF FF 7F F8 FF FF 7F 73  30 35 30 45 1B 80 F8 FF  .......s050E....
0820: FF 7F F8 FF FF 7F 73 30  35 31 02 80 5B 27 80 69  ......s051..['.i
0830: 81 0B 01 69 81 0B 01 74  6C 6B 30 2B 69 81 0B 01  ...i...tlk0+i...
0840: 45 80 23 2B 69 81 0B 01  46 80 23 5B 27 80 69 81  E.#+i...F.#['.i.
0850: 0B 01 69 81 0B 01 74 6C  6B 31 2B 69 81 0B 01 47  ..i...tlk1+i...G
0860: 80 23 52 1B 80 F8 FF FF  7F F8 FF FF 7F 73 30 35  .#R..........s05
0870: 31 02 01 00 00 80 04 7C  08 01 B4 08 02 02 00 02  1......|........
0880: 80 00 B4 08 45 1B 80 F8  FF FF 7F F8 FF FF 7F 73  ....E..........s
0890: 30 35 32 02 80 2B 69 81  0B 01 48 80 23 2B 69 81  052..+i...H.#+i.
08A0: 0B 01 49 80 23 52 1B 80  F8 FF FF 7F F8 FF FF 7F  ..I.#R..........
08B0: 73 30 35 32 02 02 00 02  80 00 C4 08 03 02 00 00  s052............
08C0: 80 01 56 07 01 1D 0A 02  00 10 00 80 00 1D 0A 4A  ..V............J
08D0: 69 81 0B 01 F0 FF FF 7F  1C 18 80 52 1B 80 F8 FF  i..........R....
08E0: FF 7F F8 FF FF 7F 73 30  34 38 52 1B 80 F8 FF FF  ......s048R.....
08F0: 7F F8 FF FF 7F 73 30 34  39 45 1B 80 F8 FF FF 7F  .....s049E......
0900: F8 FF FF 7F 73 30 35 33  02 80 5B 27 80 69 81 0B  ....s053..['.i..
0910: 01 69 81 0B 01 74 6C 6B  30 02 01 00 00 80 04 83  .i...tlk0.......
0920: 09 2B 69 81 0B 01 4A 80  23 02 02 00 00 80 00 5A  .+i...J.#......Z
0930: 09 2B 69 81 0B 01 4B 80  23 5B 27 80 69 81 0B 01  .+i...K.#['.i...
0940: 69 81 0B 01 74 6C 6B 31  52 1B 80 F8 FF FF 7F F8  i...tlk1R.......
0950: FF FF 7F 73 30 35 33 01  80 09 5B 27 80 69 81 0B  ...s053...['.i..
0960: 01 69 81 0B 01 74 6C 6B  31 52 1B 80 F8 FF FF 7F  .i...tlk1R......
0970: F8 FF FF 7F 73 30 35 33  03 02 00 3C 80 01 56 07  ....s053...<..V.
0980: 01 1A 0A 2B 69 81 0B 01  4C 80 23 2B 69 81 0B 01  ...+i...L.#+i...
0990: 4D 80 23 02 02 00 02 80  00 EC 09 52 1B 80 F8 FF  M.#........R....
09A0: FF 7F F8 FF FF 7F 73 30  35 33 45 1B 80 F8 FF FF  ......s053E.....
09B0: 7F F8 FF FF 7F 73 30 35  34 02 80 2B 69 81 0B 01  .....s054..+i...
09C0: 4E 80 23 2B 69 81 0B 01  4F 80 23 5B 27 80 69 81  N.#+i...O.#['.i.
09D0: 0B 01 69 81 0B 01 74 6C  6B 31 52 1B 80 F8 FF FF  ..i...tlk1R.....
09E0: 7F F8 FF FF 7F 73 30 35  34 01 0A 0A 5B 27 80 69  .....s054...['.i
09F0: 81 0B 01 69 81 0B 01 74  6C 6B 31 52 1B 80 F8 FF  ...i...tlk1R....
0A00: FF 7F F8 FF FF 7F 73 30  35 33 02 02 00 02 80 00  ......s053......
0A10: 1A 0A 03 02 00 3C 80 01  56 07 01 1D 0A 02 01 00  .....<..V.......
0A20: 00 80 04 D2 0D 45 1B 80  F8 FF FF 7F F8 FF FF 7F  .....E..........
0A30: 73 30 35 36 02 80 2B 69  81 0B 01 50 80 23 52 1B  s056..+i...P.#R.
0A40: 80 F8 FF FF 7F F8 FF FF  7F 73 30 35 36 45 1B 80  .........s056E..
0A50: F8 FF FF 7F F8 FF FF 7F  73 30 35 37 02 80 24 51  ........s057..$Q
0A60: 80 02 80 02 80 25 02 00  10 02 80 00 BA 0A 52 1B  .....%........R.
0A70: 80 F8 FF FF 7F F8 FF FF  7F 73 30 35 37 45 1B 80  .........s057E..
0A80: F8 FF FF 7F F8 FF FF 7F  73 30 35 35 02 80 5B 2C  ........s055..[,
0A90: 80 69 81 0B 01 69 81 0B  01 79 65 73 30 2B 69 81  .i...i...yes0+i.
0AA0: 0B 01 52 80 1C 44 80 23  52 1B 80 F8 FF FF 7F F8  ..R..D.#R.......
0AB0: FF FF 7F 73 30 35 35 01  CF 0D 02 00 10 00 80 00  ...s055.........
0AC0: 4C 0D 52 1B 80 F8 FF FF  7F F8 FF FF 7F 73 30 35  L.R..........s05
0AD0: 37 45 1B 80 F8 FF FF 7F  F8 FF FF 7F 73 30 35 35  7E..........s055
0AE0: 02 80 5B 2C 80 69 81 0B  01 69 81 0B 01 79 65 73  ..[,.i...i...yes
0AF0: 30 2B 69 81 0B 01 53 80  1C 44 80 23 52 1B 80 F8  0+i...S..D.#R...
0B00: FF FF 7F F8 FF FF 7F 73  30 35 35 45 1B 80 F8 FF  .......s055E....
0B10: FF 7F F8 FF FF 7F 73 30  35 39 02 80 9F 54 80 6B  ......s059...T.k
0B20: 81 0B 01 6B 81 0B 01 6D  61 69 6E 02 80 27 05 6B  ...k...main..'.k
0B30: 81 0B 01 03 1C 20 80 4A  69 81 0B 01 6B 81 0B 01  ..... .Ji...k...
0B40: 4A F0 FF FF 7F 6B 81 0B  01 2B 6B 81 0B 01 55 80  J....k...+k...U.
0B50: 1C 20 80 23 5B 56 80 69  81 0B 01 69 81 0B 01 62  . .#[V.i...i...b
0B60: 69 6B 30 52 1B 80 F8 FF  FF 7F F8 FF FF 7F 73 30  ik0R..........s0
0B70: 35 39 45 1B 80 F8 FF FF  7F F8 FF FF 7F 73 30 36  59E..........s06
0B80: 30 02 80 6E F0 FF FF 7F  57 80 99 F0 FF FF 7F 2B  0..n....W......+
0B90: 69 81 0B 01 58 80 1C 59  80 5B 56 80 69 81 0B 01  i...X..Y.[V.i...
0BA0: 69 81 0B 01 62 69 6B 31  1C 5A 80 81 00 69 81 0B  i...bik1.Z...i..
0BB0: 01 7C 00 69 81 0B 01 5B  27 80 69 81 0B 01 69 81  .|.i...['.i...i.
0BC0: 0B 01 74 68 6B 30 52 1B  80 F8 FF FF 7F F8 FF FF  ..thk0R.........
0BD0: 7F 73 30 36 30 45 1B 80  F8 FF FF 7F F8 FF FF 7F  .s060E..........
0BE0: 73 30 36 31 02 80 2B 69  81 0B 01 5B 80 23 5B 40  s061..+i...[.#[@
0BF0: 80 6B 81 0B 01 6B 81 0B  01 6E 69 6E 32 1C 23 80  .k...k...nin2.#.
0C00: 52 1B 80 F8 FF FF 7F F8  FF FF 7F 73 30 36 31 45  R..........s061E
0C10: 1B 80 F8 FF FF 7F F8 FF  FF 7F 73 31 36 37 02 80  ..........s167..
0C20: 1C 1D 80 52 1B 80 F8 FF  FF 7F F8 FF FF 7F 73 31  ...R..........s1
0C30: 36 37 45 1B 80 F8 FF FF  7F F8 FF FF 7F 73 30 36  67E..........s06
0C40: 32 02 80 2B 6B 81 0B 01  5C 80 23 5B 40 80 6B 81  2..+k...\.#[@.k.
0C50: 0B 01 6B 81 0B 01 6E 69  6E 33 52 1B 80 F8 FF FF  ..k...nin3R.....
0C60: 7F F8 FF FF 7F 73 30 36  32 45 1B 80 F8 FF FF 7F  .....s062E......
0C70: F8 FF FF 7F 73 30 36 33  02 80 02 01 00 3C 80 00  ....s063.....<..
0C80: 8D 0C 2B 6B 81 0B 01 5D  80 23 01 95 0C 2B 6B 81  ..+k...].#...+k.
0C90: 0B 01 5E 80 23 7B F0 FF  FF 7F 52 1B 80 F8 FF FF  ..^.#{....R.....
0CA0: 7F F8 FF FF 7F 73 30 36  33 45 1B 80 F8 FF FF 7F  .....s063E......
0CB0: F8 FF FF 7F 73 30 36 34  02 80 66 5F 80 6B 81 0B  ....s064..f_.k..
0CC0: 01 6B 81 0B 01 6E 69 6E  31 9F 60 80 6B 81 0B 01  .k...nin1.`.k...
0CD0: 6B 81 0B 01 6D 61 69 6E  02 80 7B 69 81 0B 01 5B  k...main..{i...[
0CE0: 27 80 69 81 0B 01 69 81  0B 01 74 68 6B 31 81 01  '.i...i...thk1..
0CF0: 69 81 0B 01 7C 01 69 81  0B 01 1C 1D 80 52 1B 80  i...|.i......R..
0D00: F8 FF FF 7F F8 FF FF 7F  73 30 36 34 45 1B 80 F8  ........s064E...
0D10: FF FF 7F F8 FF FF 7F 73  30 36 35 02 80 4A 69 81  .......s065..Ji.
0D20: 0B 01 F0 FF FF 7F 1C 18  80 4A F0 FF FF 7F 69 81  .........J....i.
0D30: 0B 01 2B 69 81 0B 01 61  80 23 52 1B 80 F8 FF FF  ..+i...a.#R.....
0D40: 7F F8 FF FF 7F 73 30 36  35 01 CF 0D 02 00 10 3C  .....s065......<
0D50: 80 00 CF 0D 81 00 69 81  0B 01 7C 00 69 81 0B 01  ......i...|.i...
0D60: 5B 62 80 69 81 0B 01 69  81 0B 01 66 61 30 31 52  [b.i...i...fa01R
0D70: 1B 80 F8 FF FF 7F F8 FF  FF 7F 73 30 35 37 45 1B  ..........s057E.
0D80: 80 F8 FF FF 7F F8 FF FF  7F 73 30 35 38 02 80 2B  .........s058..+
0D90: 69 81 0B 01 63 80 23 52  1B 80 F8 FF FF 7F F8 FF  i...c.#R........
0DA0: FF 7F 73 30 35 38 45 1B  80 F8 FF FF 7F F8 FF FF  ..s058E.........
0DB0: 7F 73 30 35 37 02 80 81  01 69 81 0B 01 7C 01 69  .s057....i...|.i
0DC0: 81 0B 01 D3 00 69 81 0B  01 01 5E 0A 01 CF 0D 01  .....i....^.....
0DD0: FC 0D 45 1B 80 F8 FF FF  7F F8 FF FF 7F 73 30 35  ..E..........s05
0DE0: 35 02 80 2B 69 81 0B 01  64 80 1C 1D 80 52 1B 80  5..+i...d....R..
0DF0: F8 FF FF 7F F8 FF FF 7F  73 30 35 35 45 1B 80 F8  ........s055E...
0E00: FF FF 7F F8 FF FF 7F 73  30 36 36 02 80 27 05 69  .......s066..'.i
0E10: 81 0B 01 03 1C 1D 80 7A  00 69 81 0B 01 1C 18 80  .......z.i......
0E20: 52 1B 80 F8 FF FF 7F F8  FF FF 7F 73 30 36 36 45  R..........s066E
0E30: 1B 80 F8 FF FF 7F F8 FF  FF 7F 73 31 35 33 02 80  ..........s153..
0E40: 5B 65 80 69 81 0B 01 69  81 0B 01 73 69 6E 30 1C  [e.i...i...sin0.
0E50: 36 80 5B 65 80 69 81 0B  01 69 81 0B 01 73 69 6E  6.[e.i...i...sin
0E60: 31 1C 66 80 52 1B 80 F8  FF FF 7F F8 FF FF 7F 73  1.f.R..........s
0E70: 31 35 33 45 1B 80 F8 FF  FF 7F F8 FF FF 7F 73 31  153E..........s1
0E80: 35 34 02 80 1C 36 80 27  05 69 81 0B 01 03 1C 36  54...6.'.i.....6
0E90: 80 5D 02 80 1D 80 45 01  80 F8 FF FF 7F F8 FF FF  .]....E.........
0EA0: 7F 66 64 6F 31 02 80 55  01 80 F8 FF FF 7F F8 FF  .fdo1..U........
0EB0: FF 7F 66 64 6F 31 52 67  80 F8 FF FF 7F F8 FF FF  ..fdo1Rg........
0EC0: 7F 73 31 35 34 5C 00 02  80 5C 01 02 80 9A 46 00  .s154\...\....F.
0ED0: 45 01 80 F8 FF FF 7F F8  FF FF 7F 66 64 69 32 02  E..........fdi2.
0EE0: 80 1B                                             ..              
```

#### Opcodes

```
  0: 0x0007 [0x42] SET_CLI_EVENT_CANCEL_DATA()
  1: 0x0008 [0x03] Work_Zone[1] = 1*
  2: 0x000D [0x43] SEND_EVENT_UPDATE: Send pending tag to server (packet 0x005B)
  3: 0x000F [0x43] SEND_EVENT_UPDATE: Check pending flag (skip if not pending)
  4: 0x0011 [0x1A] CALL_SUBROUTINE(address=0x0016)
  5: 0x0014 [0x21] END_EVENT
  6: 0x0015 [0x00] END_REQSTACK()

SUBROUTINE_0016:
  7: 0x0016 [0x03] ExtData[1]->WorkLocal[0] = Work_Zone[2]
  8: 0x001B [0x03] ExtData[1]->WorkLocal[1] = Work_Zone[3]
  9: 0x0020 [0x45] LOAD_SCHEDULED_TASK: Load scheduler "fdo1" with entities [EventEntity, EventEntity], work=[200*, 0*]
 10: 0x0031 [0x55] WAIT_LOAD_SCHEDULER: Wait for scheduler "fdo1" with entities [EventEntity, EventEntity], work=200*
 11: 0x0040 [0x46] CAMERA_CONTROL: Disable user control
 12: 0x0042 [0x38] SET_CLIENT_EVENT_MODE(mode=27*)
 13: 0x0045 [0x2F] Iroha (ID: 17531241/0x010B8169)->Render.Flags0 &= ~0x80000 // Bit 19
 14: 0x004B [0x2F] Unnamed NPC (ID: 17531242/0x010B816A)->Render.Flags0 &= ~0x80000 // Bit 19
 15: 0x0051 [0x2F] Kagero (ID: 17531243/0x010B816B)->Render.Flags0 &= ~0x80000 // Bit 19
 16: 0x0057 [0x4E] SET_ENTITY_HIDE_FLAG: Show Iroha (ID: 17531241/0x010B8169)
 17: 0x005D [0x4E] SET_ENTITY_HIDE_FLAG: Show Unnamed NPC (ID: 17531242/0x010B816A)
 18: 0x0063 [0x4E] SET_ENTITY_HIDE_FLAG: Show LocalPlayer
 19: 0x0069 [0x4E] SET_ENTITY_HIDE_FLAG: Show Kagero (ID: 17531243/0x010B816B)
 20: 0x006F [0x92] Iroha (ID: 17531241/0x010B8169)->Render.Flags3 ^= 0x01
 21: 0x0075 [0x92] Kagero (ID: 17531243/0x010B816B)->Render.Flags3 ^= 0x01
 22: 0x007B [0x94] Iroha (ID: 17531241/0x010B8169)->Render.Flags3 ^= 0x01
 23: 0x0081 [0x94] Unnamed NPC (ID: 17531242/0x010B816A)->Render.Flags3 ^= 0x01
 24: 0x0087 [0x94] LocalPlayer->Render.Flags3 ^= 0x01
 25: 0x008D [0x94] Kagero (ID: 17531243/0x010B816B)->Render.Flags3 ^= 0x01
 26: 0x0093 [0x27] REQ_SET(priority=0x05, entity_id=Kagero (ID: 17531243/0x010B816B), tag_num=0x02)
 27: 0x009A [0x02] IF !(LocalPlayer->Race == 5*) GOTO 0x00AC
 28: 0x00A2 [0x27] REQ_SET(priority=0x05, entity_id=LocalPlayer, tag_num=0x32)
 29: 0x00A9 [0x01] GOTO 0x00E9
 30: 0x00AC [0x02] IF !(LocalPlayer->Race == 6*) GOTO 0x00BE
 31: 0x00B4 [0x27] REQ_SET(priority=0x05, entity_id=LocalPlayer, tag_num=0x32)
 32: 0x00BB [0x01] GOTO 0x00E9
 33: 0x00BE [0x02] IF !(LocalPlayer->Race == 7*) GOTO 0x00D0
 34: 0x00C6 [0x27] REQ_SET(priority=0x05, entity_id=LocalPlayer, tag_num=0x33)
 35: 0x00CD [0x01] GOTO 0x00E9
 36: 0x00D0 [0x02] IF !(LocalPlayer->Race == 8*) GOTO 0x00E2
 37: 0x00D8 [0x27] REQ_SET(priority=0x05, entity_id=LocalPlayer, tag_num=0x34)
 38: 0x00DF [0x01] GOTO 0x00E9
 39: 0x00E2 [0x27] REQ_SET(priority=0x05, entity_id=LocalPlayer, tag_num=0x35)

SUBROUTINE_00E9:
 40: 0x00E9 [0x59] UPDATE_ENTITY_DATA: Unnamed NPC (ID: 17531242/0x010B816A)->Render.Flags0 |= 0x200000
 41: 0x00F0 [0xBA] SET_ENTITY_POSITION(entity_id=Iroha (ID: 17531241/0x010B8169), pos_x=461.313*, pos_z=-61.374*, pos_y=0.000*, direction=160.2°*)
 42: 0x00FD [0xBA] SET_ENTITY_POSITION(entity_id=LocalPlayer, pos_x=458.620*, pos_z=-73.374*, pos_y=0.000*, direction=291.3°*)
 43: 0x010A [0xBA] SET_ENTITY_POSITION(entity_id=Kagero (ID: 17531243/0x010B816B), pos_x=461.313*, pos_z=-61.374*, pos_y=0.000*, direction=160.2°*)
 44: 0x0117 [0x02] IF !(LocalPlayer->Race == 3*) GOTO 0x012F
 45: 0x011F [0xBA] SET_ENTITY_POSITION(entity_id=Unnamed NPC (ID: 17531242/0x010B816A), pos_x=459.200*, pos_z=-63.800*, pos_y=-1.200*, direction=2.2°*)
 46: 0x012C [0x01] GOTO 0x01B4
 47: 0x012F [0x02] IF !(LocalPlayer->Race == 4*) GOTO 0x0147
 48: 0x0137 [0xBA] SET_ENTITY_POSITION(entity_id=Unnamed NPC (ID: 17531242/0x010B816A), pos_x=459.200*, pos_z=-63.800*, pos_y=-1.200*, direction=2.2°*)
 49: 0x0144 [0x01] GOTO 0x01B4
 50: 0x0147 [0x02] IF !(LocalPlayer->Race == 5*) GOTO 0x015F
 51: 0x014F [0xBA] SET_ENTITY_POSITION(entity_id=Unnamed NPC (ID: 17531242/0x010B816A), pos_x=459.200*, pos_z=-63.800*, pos_y=-0.300*, direction=2.2°*)
 52: 0x015C [0x01] GOTO 0x01B4
 53: 0x015F [0x02] IF !(LocalPlayer->Race == 6*) GOTO 0x0177
 54: 0x0167 [0xBA] SET_ENTITY_POSITION(entity_id=Unnamed NPC (ID: 17531242/0x010B816A), pos_x=459.200*, pos_z=-63.800*, pos_y=-0.300*, direction=2.2°*)
 55: 0x0174 [0x01] GOTO 0x01B4
 56: 0x0177 [0x02] IF !(LocalPlayer->Race == 7*) GOTO 0x018F
 57: 0x017F [0xBA] SET_ENTITY_POSITION(entity_id=Unnamed NPC (ID: 17531242/0x010B816A), pos_x=459.200*, pos_z=-63.750*, pos_y=-0.950*, direction=2.2°*)
 58: 0x018C [0x01] GOTO 0x01B4
 59: 0x018F [0x02] IF !(LocalPlayer->Race == 8*) GOTO 0x01A7
 60: 0x0197 [0xBA] SET_ENTITY_POSITION(entity_id=Unnamed NPC (ID: 17531242/0x010B816A), pos_x=459.200*, pos_z=-63.800*, pos_y=-1.200*, direction=2.2°*)
 61: 0x01A4 [0x01] GOTO 0x01B4
 62: 0x01A7 [0xBA] SET_ENTITY_POSITION(entity_id=Unnamed NPC (ID: 17531242/0x010B816A), pos_x=459.200*, pos_z=-63.800*, pos_y=-1.000*, direction=2.2°*)

SUBROUTINE_01B4:
 63: 0x01B4 [0x80] LOAD_WAIT(entity=LocalPlayer)
 64: 0x01B9 [0x80] LOAD_WAIT(entity=Unnamed NPC (ID: 17531242/0x010B816A))
 65: 0x01BE [0x80] LOAD_WAIT(entity=Iroha (ID: 17531241/0x010B8169))
 66: 0x01C3 [0x1C] WAIT(30* ticks)
 67: 0x01C6 [0x81] SET_ENTITY_BLINKING(blink_flag=0x00, entity=Iroha (ID: 17531241/0x010B8169))
 68: 0x01CC [0x7C] Iroha (ID: 17531241/0x010B8169)->Render.Flags2 |= 0x00
 69: 0x01D2 [0x5B] LOAD_EXT_SCHEDULER: Load scheduler "hizl" with entities [Iroha (ID: 17531241/0x010B8169), Iroha (ID: 17531241/0x010B8169)], work=3865*
 70: 0x01E1 [0x1C] WAIT(30* ticks)
 71: 0x01E4 [0x5C] MUSIC_CONTROL: Set Idle (Day) music to song 79*
 72: 0x01E8 [0x5C] MUSIC_CONTROL: Set Idle (Night) music to song 79*
 73: 0x01EC [0x9A] WAIT_MUSIC_SERVER()
 74: 0x01ED [0x45] LOAD_SCHEDULED_TASK: Load scheduler "s165" with entities [EventEntity, EventEntity], work=[763*, 0*]
 75: 0x01FE [0x1C] WAIT(15* ticks)
 76: 0x0201 [0x45] LOAD_SCHEDULED_TASK: Load scheduler "fdi1" with entities [EventEntity, EventEntity], work=[200*, 0*]
 77: 0x0212 [0x1C] WAIT(120* ticks)
 78: 0x0215 [0x27] REQ_SET(priority=0x05, entity_id=LocalPlayer, tag_num=0x36)
 79: 0x021C [0x52] END_LOAD_SCHEDULER: End scheduler "s165" with entities [EventEntity, EventEntity], work=763*
 80: 0x022B [0x45] LOAD_SCHEDULED_TASK: Load scheduler "s037" with entities [EventEntity, EventEntity], work=[763*, 0*]
 81: 0x023C [0x2A] GET_REQ_LEVEL(level=5, entity_id=LocalPlayer)
 82: 0x0242 [0x52] END_LOAD_SCHEDULER: End scheduler "s037" with entities [EventEntity, EventEntity], work=763*
 83: 0x0251 [0x45] LOAD_SCHEDULED_TASK: Load scheduler "s038" with entities [EventEntity, EventEntity], work=[763*, 0*]
 84: 0x0262 [0x2B] Iroha (ID: 17531241/0x010B8169) [11809*]:
    → "Master..."
 85: 0x0269 [0x23] WAIT_FOR_DIALOG_INTERACTION
 86: 0x026A [0x24] CREATE_DIALOG(message_id=11810*, default_option=0*, option_flags=0*)
    → "How do you respond? [Are you all right?/What happened?]"
 87: 0x0271 [0x25] WAIT_DIALOG_SELECT()
 88: 0x0272 [0x02] IF !(Work_Zone[0] == 0*) GOTO 0x027D
 89: 0x027A [0x01] GOTO 0x027D

SUBROUTINE_027D:
 90: 0x027D [0x27] REQ_SET(priority=0x05, entity_id=LocalPlayer, tag_num=0x30)
 91: 0x0284 [0x1C] WAIT(60* ticks)
 92: 0x0287 [0x5F] MULTI_HANDLER_COMPLEX(mode=0x05 - Load ext scheduler with flag (OpCode 0x5B mode 0, flag 1), ref=3868*, entity1=Iroha (ID: 17531241/0x010B8169), entity2=Iroha (ID: 17531241/0x010B8169), string="hiz1", extra=300*)
 93: 0x0299 [0x1C] WAIT(20* ticks)
 94: 0x029C [0x27] REQ_SET(priority=0x05, entity_id=LocalPlayer, tag_num=0x31)
 95: 0x02A3 [0x1C] WAIT(40* ticks)
 96: 0x02A6 [0x52] END_LOAD_SCHEDULER: End scheduler "s038" with entities [EventEntity, EventEntity], work=763*
 97: 0x02B5 [0x45] LOAD_SCHEDULED_TASK: Load scheduler "s166" with entities [EventEntity, EventEntity], work=[763*, 0*]
 98: 0x02C6 [0x2B] Iroha (ID: 17531241/0x010B8169) [11811*]:
    → "It is nothing. I needed a few days of respite."
 99: 0x02CD [0x23] WAIT_FOR_DIALOG_INTERACTION
100: 0x02CE [0x2B] Iroha (ID: 17531241/0x010B8169) [11812*]:
    → "I pray it was the orb that led you here? For a brief moment I feared that we would not meet again in this world."
101: 0x02D5 [0x23] WAIT_FOR_DIALOG_INTERACTION
102: 0x02D6 [0x5F] MULTI_HANDLER_COMPLEX(mode=0x07 - Wait scheduler task (OpCode 0x53))
103: 0x02E4 [0x81] SET_ENTITY_BLINKING(blink_flag=0x01, entity=Iroha (ID: 17531241/0x010B8169))
104: 0x02EA [0x7C] Iroha (ID: 17531241/0x010B8169)->Render.Flags2 |= 0x01
105: 0x02F0 [0x52] END_LOAD_SCHEDULER: End scheduler "s166" with entities [EventEntity, EventEntity], work=763*
106: 0x02FF [0x45] LOAD_SCHEDULED_TASK: Load scheduler "s039" with entities [EventEntity, EventEntity], work=[763*, 0*]
107: 0x0310 [0x5B] LOAD_EXT_SCHEDULER: Load scheduler "tlk0" with entities [Iroha (ID: 17531241/0x010B8169), Iroha (ID: 17531241/0x010B8169)], work=3861*
108: 0x031F [0x2B] Iroha (ID: 17531241/0x010B8169) [11813*]:
    → "I have learned that all the energies of the mothercrystals converge upon this very tower."
109: 0x0326 [0x23] WAIT_FOR_DIALOG_INTERACTION
110: 0x0327 [0x2B] Iroha (ID: 17531241/0x010B8169) [11814*]:
    → "...And that is why I have come. To see if we may be able to borrow but a fraction so that we may set things right."
111: 0x032E [0x23] WAIT_FOR_DIALOG_INTERACTION
112: 0x032F [0x2B] Iroha (ID: 17531241/0x010B8169) [11815*]:
    → "The crystal...it murmured something to me... "The chains of Promathia.""
113: 0x0336 [0x23] WAIT_FOR_DIALOG_INTERACTION
114: 0x0337 [0x5B] LOAD_EXT_SCHEDULER: Load scheduler "tlk1" with entities [Iroha (ID: 17531241/0x010B8169), Iroha (ID: 17531241/0x010B8169)], work=3861*
115: 0x0346 [0x52] END_LOAD_SCHEDULER: End scheduler "s039" with entities [EventEntity, EventEntity], work=763*
116: 0x0355 [0x02] IF !(LocalPlayer->Race == 3*) GOTO 0x0371
117: 0x035D [0x45] LOAD_SCHEDULED_TASK: Load scheduler "s041" with entities [EventEntity, EventEntity], work=[763*, 0*]
118: 0x036E [0x01] GOTO 0x03F2
119: 0x0371 [0x02] IF !(LocalPlayer->Race == 4*) GOTO 0x038D
120: 0x0379 [0x45] LOAD_SCHEDULED_TASK: Load scheduler "s041" with entities [EventEntity, EventEntity], work=[763*, 0*]
121: 0x038A [0x01] GOTO 0x03F2
122: 0x038D [0x02] IF !(LocalPlayer->Race == 5*) GOTO 0x03A9
123: 0x0395 [0x45] LOAD_SCHEDULED_TASK: Load scheduler "s042" with entities [EventEntity, EventEntity], work=[763*, 0*]
124: 0x03A6 [0x01] GOTO 0x03F2
125: 0x03A9 [0x02] IF !(LocalPlayer->Race == 6*) GOTO 0x03C5
126: 0x03B1 [0x45] LOAD_SCHEDULED_TASK: Load scheduler "s042" with entities [EventEntity, EventEntity], work=[763*, 0*]
127: 0x03C2 [0x01] GOTO 0x03F2
128: 0x03C5 [0x02] IF !(LocalPlayer->Race == 8*) GOTO 0x03E1
129: 0x03CD [0x45] LOAD_SCHEDULED_TASK: Load scheduler "s041" with entities [EventEntity, EventEntity], work=[763*, 0*]
130: 0x03DE [0x01] GOTO 0x03F2
131: 0x03E1 [0x45] LOAD_SCHEDULED_TASK: Load scheduler "s040" with entities [EventEntity, EventEntity], work=[763*, 0*]

SUBROUTINE_03F2:
132: 0x03F2 [0xD0] LOAD_SCHEDULED_TASK_ALT5: Load scheduler "sta1" with entities [Unnamed NPC (ID: 17531242/0x010B816A), Unnamed NPC (ID: 17531242/0x010B816A)], work=[103*, 0*]
133: 0x0403 [0x1C] WAIT(60* ticks)
134: 0x0406 [0x4A] Iroha (ID: 17531241/0x010B8169) looks at LocalPlayer
135: 0x040F [0x1C] WAIT(60* ticks)
136: 0x0412 [0x52] END_LOAD_SCHEDULER: End scheduler "s040" with entities [EventEntity, EventEntity], work=763*
137: 0x0421 [0x52] END_LOAD_SCHEDULER: End scheduler "s041" with entities [EventEntity, EventEntity], work=763*
138: 0x0430 [0x52] END_LOAD_SCHEDULER: End scheduler "s042" with entities [EventEntity, EventEntity], work=763*
139: 0x043F [0x45] LOAD_SCHEDULED_TASK: Load scheduler "s043" with entities [EventEntity, EventEntity], work=[763*, 0*]
140: 0x0450 [0x5B] LOAD_EXT_SCHEDULER: Load scheduler "yes0" with entities [Iroha (ID: 17531241/0x010B8169), Iroha (ID: 17531241/0x010B8169)], work=3862*
141: 0x045F [0x02] IF !(ExtData[1]->WorkLocal[1] < 1*) GOTO 0x0580
142: 0x0467 [0x2B] Iroha (ID: 17531241/0x010B8169) [11823*]:
    → "Master, another path was laid before you, and as you walked it you encountered one who would shape your future."
143: 0x046E [0x23] WAIT_FOR_DIALOG_INTERACTION
144: 0x046F [0x2B] Iroha (ID: 17531241/0x010B8169) [11824*]:
    → "There is but one last step you must take to bring light unto the orb."
145: 0x0476 [0x23] WAIT_FOR_DIALOG_INTERACTION
146: 0x0477 [0xD0] LOAD_SCHEDULED_TASK_ALT5: Load scheduler "kil2" with entities [Unnamed NPC (ID: 17531242/0x010B816A), Unnamed NPC (ID: 17531242/0x010B816A)], work=[103*, 0*]
147: 0x0488 [0x52] END_LOAD_SCHEDULER: End scheduler "s043" with entities [EventEntity, EventEntity], work=763*
148: 0x0497 [0x45] LOAD_SCHEDULED_TASK: Load scheduler "s044" with entities [EventEntity, EventEntity], work=[763*, 0*]
149: 0x04A8 [0x5B] LOAD_EXT_SCHEDULER: Load scheduler "tlk0" with entities [Iroha (ID: 17531241/0x010B8169), Iroha (ID: 17531241/0x010B8169)], work=3861*
150: 0x04B7 [0x2B] Iroha (ID: 17531241/0x010B8169) [11825*]:
    → "Did it not show you a particular person when it guided you here?"
151: 0x04BE [0x23] WAIT_FOR_DIALOG_INTERACTION
152: 0x04BF [0x5B] LOAD_EXT_SCHEDULER: Load scheduler "tlk1" with entities [Iroha (ID: 17531241/0x010B8169), Iroha (ID: 17531241/0x010B8169)], work=3861*
153: 0x04CE [0x6E] LocalPlayer uses emote 32*
154: 0x04D5 [0x99] Wait for LocalPlayer animation to complete
155: 0x04DA [0x1C] WAIT(150* ticks)
156: 0x04DD [0x27] REQ_SET(priority=0x05, entity_id=LocalPlayer, tag_num=0x30)
157: 0x04E4 [0x1C] WAIT(80* ticks)
158: 0x04E7 [0x27] REQ_SET(priority=0x05, entity_id=LocalPlayer, tag_num=0x31)
159: 0x04EE [0x1C] WAIT(40* ticks)
160: 0x04F1 [0x52] END_LOAD_SCHEDULER: End scheduler "s044" with entities [EventEntity, EventEntity], work=763*
161: 0x0500 [0x45] LOAD_SCHEDULED_TASK: Load scheduler "s045" with entities [EventEntity, EventEntity], work=[763*, 0*]
162: 0x0511 [0x81] SET_ENTITY_BLINKING(blink_flag=0x00, entity=Iroha (ID: 17531241/0x010B8169))
163: 0x0517 [0x7C] Iroha (ID: 17531241/0x010B8169)->Render.Flags2 |= 0x00
164: 0x051D [0x5B] LOAD_EXT_SCHEDULER: Load scheduler "thk0" with entities [Iroha (ID: 17531241/0x010B8169), Iroha (ID: 17531241/0x010B8169)], work=3862*
165: 0x052C [0x2B] Iroha (ID: 17531241/0x010B8169) [11826*]:
    → "...It does not surprise me to hear that Prishe appeared before you."
166: 0x0533 [0x23] WAIT_FOR_DIALOG_INTERACTION
167: 0x0534 [0x5B] LOAD_EXT_SCHEDULER: Load scheduler "thk1" with entities [Iroha (ID: 17531241/0x010B8169), Iroha (ID: 17531241/0x010B8169)], work=3862*
168: 0x0543 [0x81] SET_ENTITY_BLINKING(blink_flag=0x01, entity=Iroha (ID: 17531241/0x010B8169))
169: 0x0549 [0x7C] Iroha (ID: 17531241/0x010B8169)->Render.Flags2 |= 0x01
170: 0x054F [0x2B] Iroha (ID: 17531241/0x010B8169) [11827*]:
    → "Oft would you speak to me of the adventures the two of you shared."
171: 0x0556 [0x23] WAIT_FOR_DIALOG_INTERACTION
172: 0x0557 [0x2B] Iroha (ID: 17531241/0x010B8169) [11828*]:
    → "The orb does naught without just cause. You must seek her out and let the winds of fate blow you where they may."
173: 0x055E [0x23] WAIT_FOR_DIALOG_INTERACTION
174: 0x055F [0x6E] LocalPlayer uses emote 7*
175: 0x0566 [0x99] Wait for LocalPlayer animation to complete
176: 0x056B [0x1C] WAIT(90* ticks)
177: 0x056E [0x52] END_LOAD_SCHEDULER: End scheduler "s045" with entities [EventEntity, EventEntity], work=763*
178: 0x057D [0x01] GOTO 0x06C6
179: 0x0580 [0x02] IF !(ExtData[1]->WorkLocal[0] == 0*) GOTO 0x05F2
180: 0x0588 [0x2B] Iroha (ID: 17531241/0x010B8169) [11816*]:
    → "Perhaps there is another trial for you to overcome."
181: 0x058F [0x23] WAIT_FOR_DIALOG_INTERACTION
182: 0x0590 [0x2B] Iroha (ID: 17531241/0x010B8169) [11817*]:
    → "I ask you, please do as the crystal bids."
183: 0x0597 [0x23] WAIT_FOR_DIALOG_INTERACTION
184: 0x0598 [0x2B] Iroha (ID: 17531241/0x010B8169) [11818*]:
    → "Behind every door you open is another meeting that could decide the fate of Vana'diel."
185: 0x059F [0x23] WAIT_FOR_DIALOG_INTERACTION
186: 0x05A0 [0xD0] LOAD_SCHEDULED_TASK_ALT5: Load scheduler "kil2" with entities [Unnamed NPC (ID: 17531242/0x010B816A), Unnamed NPC (ID: 17531242/0x010B816A)], work=[103*, 0*]
187: 0x05B1 [0x52] END_LOAD_SCHEDULER: End scheduler "s043" with entities [EventEntity, EventEntity], work=763*
188: 0x05C0 [0x45] LOAD_SCHEDULED_TASK: Load scheduler "s044" with entities [EventEntity, EventEntity], work=[763*, 0*]
189: 0x05D1 [0x6E] LocalPlayer uses emote 7*
190: 0x05D8 [0x99] Wait for LocalPlayer animation to complete
191: 0x05DD [0x1C] WAIT(120* ticks)
192: 0x05E0 [0x52] END_LOAD_SCHEDULER: End scheduler "s044" with entities [EventEntity, EventEntity], work=763*
193: 0x05EF [0x01] GOTO 0x06C6
194: 0x05F2 [0x02] IF !(ExtData[1]->WorkLocal[0] == 1*) GOTO 0x065C
195: 0x05FA [0x2B] Iroha (ID: 17531241/0x010B8169) [11819*]:
    → "The crystal has laid out a path for you to walk, and I fear it is one you must traverse without my aid."
196: 0x0601 [0x23] WAIT_FOR_DIALOG_INTERACTION
197: 0x0602 [0x2B] Iroha (ID: 17531241/0x010B8169) [11820*]:
    → "You must strive ever forward, finding a chance meeting that could decide the fate of Vana'diel."
198: 0x0609 [0x23] WAIT_FOR_DIALOG_INTERACTION
199: 0x060A [0xD0] LOAD_SCHEDULED_TASK_ALT5: Load scheduler "kil2" with entities [Unnamed NPC (ID: 17531242/0x010B816A), Unnamed NPC (ID: 17531242/0x010B816A)], work=[103*, 0*]
200: 0x061B [0x52] END_LOAD_SCHEDULER: End scheduler "s043" with entities [EventEntity, EventEntity], work=763*
201: 0x062A [0x45] LOAD_SCHEDULED_TASK: Load scheduler "s044" with entities [EventEntity, EventEntity], work=[763*, 0*]
202: 0x063B [0x6E] LocalPlayer uses emote 7*
203: 0x0642 [0x99] Wait for LocalPlayer animation to complete
204: 0x0647 [0x1C] WAIT(120* ticks)
205: 0x064A [0x52] END_LOAD_SCHEDULER: End scheduler "s044" with entities [EventEntity, EventEntity], work=763*
206: 0x0659 [0x01] GOTO 0x06C6
207: 0x065C [0x02] IF !(ExtData[1]->WorkLocal[0] == 2*) GOTO 0x06C6
208: 0x0664 [0x2B] Iroha (ID: 17531241/0x010B8169) [11821*]:
    → "The crystal has laid out a path for you to walk, and I fear it is one you must traverse without my aid."
209: 0x066B [0x23] WAIT_FOR_DIALOG_INTERACTION
210: 0x066C [0x2B] Iroha (ID: 17531241/0x010B8169) [11822*]:
    → "The orb cries out for light...your journey is what will fill it with everlasting radiance."
211: 0x0673 [0x23] WAIT_FOR_DIALOG_INTERACTION
212: 0x0674 [0xD0] LOAD_SCHEDULED_TASK_ALT5: Load scheduler "kil2" with entities [Unnamed NPC (ID: 17531242/0x010B816A), Unnamed NPC (ID: 17531242/0x010B816A)], work=[103*, 0*]
213: 0x0685 [0x52] END_LOAD_SCHEDULER: End scheduler "s043" with entities [EventEntity, EventEntity], work=763*
214: 0x0694 [0x45] LOAD_SCHEDULED_TASK: Load scheduler "s044" with entities [EventEntity, EventEntity], work=[763*, 0*]
215: 0x06A5 [0x6E] LocalPlayer uses emote 7*
216: 0x06AC [0x99] Wait for LocalPlayer animation to complete
217: 0x06B1 [0x1C] WAIT(120* ticks)
218: 0x06B4 [0x52] END_LOAD_SCHEDULER: End scheduler "s044" with entities [EventEntity, EventEntity], work=763*
219: 0x06C3 [0x01] GOTO 0x06C6

SUBROUTINE_06C6:
220: 0x06C6 [0x45] LOAD_SCHEDULED_TASK: Load scheduler "s046" with entities [EventEntity, EventEntity], work=[763*, 0*]
221: 0x06D7 [0x27] REQ_SET(priority=0x05, entity_id=Iroha (ID: 17531241/0x010B8169), tag_num=0x02)
222: 0x06DE [0x1C] WAIT(90* ticks)
223: 0x06E1 [0x4A] LocalPlayer looks at Iroha (ID: 17531241/0x010B8169)
224: 0x06EA [0x4A] Kagero (ID: 17531243/0x010B816B) looks at Iroha (ID: 17531241/0x010B8169)
225: 0x06F3 [0x7B] Kagero (ID: 17531243/0x010B816B) stops talking
226: 0x06F8 [0x1C] WAIT(30* ticks)
227: 0x06FB [0x52] END_LOAD_SCHEDULER: End scheduler "s046" with entities [EventEntity, EventEntity], work=763*
228: 0x070A [0x45] LOAD_SCHEDULED_TASK: Load scheduler "s047" with entities [EventEntity, EventEntity], work=[763*, 0*]
229: 0x071B [0x6E] LocalPlayer uses emote 16*
230: 0x0722 [0x99] Wait for LocalPlayer animation to complete
231: 0x0727 [0x5B] LOAD_EXT_SCHEDULER: Load scheduler "ninl" with entities [Kagero (ID: 17531243/0x010B816B), Kagero (ID: 17531243/0x010B816B)], work=3364*
232: 0x0736 [0x1C] WAIT(120* ticks)
233: 0x0739 [0x4A] LocalPlayer looks at Iroha (ID: 17531241/0x010B8169)
234: 0x0742 [0x52] END_LOAD_SCHEDULER: End scheduler "s047" with entities [EventEntity, EventEntity], work=763*
235: 0x0751 [0x03] ExtData[1]->WorkLocal[2] = 0*

SUBROUTINE_0756:
236: 0x0756 [0x02] IF !(LocalPlayer->Race == 5*) GOTO 0x0772
237: 0x075E [0x45] LOAD_SCHEDULED_TASK: Load scheduler "s049" with entities [EventEntity, EventEntity], work=[763*, 0*]
238: 0x076F [0x01] GOTO 0x079F
239: 0x0772 [0x02] IF !(LocalPlayer->Race == 6*) GOTO 0x078E
240: 0x077A [0x45] LOAD_SCHEDULED_TASK: Load scheduler "s049" with entities [EventEntity, EventEntity], work=[763*, 0*]
241: 0x078B [0x01] GOTO 0x079F
242: 0x078E [0x45] LOAD_SCHEDULED_TASK: Load scheduler "s048" with entities [EventEntity, EventEntity], work=[763*, 0*]

SUBROUTINE_079F:
243: 0x079F [0x24] CREATE_DIALOG(message_id=11829*, default_option=0*, option_flags=ExtData[1]->WorkLocal[2])
    → "Have anything to say? [I'd like you to meet Tenzen./Where will you go?]"
244: 0x07A6 [0x25] WAIT_DIALOG_SELECT()
245: 0x07A7 [0x02] IF !(Work_Zone[0] == 0*) GOTO 0x08C7
246: 0x07AF [0x4A] Iroha (ID: 17531241/0x010B8169) looks at LocalPlayer
247: 0x07B8 [0x1C] WAIT(30* ticks)
248: 0x07BB [0x52] END_LOAD_SCHEDULER: End scheduler "s048" with entities [EventEntity, EventEntity], work=763*
249: 0x07CA [0x52] END_LOAD_SCHEDULER: End scheduler "s049" with entities [EventEntity, EventEntity], work=763*
250: 0x07D9 [0x45] LOAD_SCHEDULED_TASK: Load scheduler "s050" with entities [EventEntity, EventEntity], work=[763*, 0*]
251: 0x07EA [0x2B] Iroha (ID: 17531241/0x010B8169) [11830*]:
    → "You...you wish for me to meet a man named Tenzen from the Far East?"
252: 0x07F1 [0x23] WAIT_FOR_DIALOG_INTERACTION
253: 0x07F2 [0x5B] LOAD_EXT_SCHEDULER: Load scheduler "yes0" with entities [Iroha (ID: 17531241/0x010B8169), Iroha (ID: 17531241/0x010B8169)], work=3862*
254: 0x0801 [0x2B] Iroha (ID: 17531241/0x010B8169) [11831*]:
    → "I should not be so taken aback. It is only natural for my path to cross with his in this era."
255: 0x0808 [0x1C] WAIT(130* ticks)
256: 0x080B [0x23] WAIT_FOR_DIALOG_INTERACTION
257: 0x080C [0x52] END_LOAD_SCHEDULER: End scheduler "s050" with entities [EventEntity, EventEntity], work=763*
258: 0x081B [0x45] LOAD_SCHEDULED_TASK: Load scheduler "s051" with entities [EventEntity, EventEntity], work=[763*, 0*]
259: 0x082C [0x5B] LOAD_EXT_SCHEDULER: Load scheduler "tlk0" with entities [Iroha (ID: 17531241/0x010B8169), Iroha (ID: 17531241/0x010B8169)], work=3861*
260: 0x083B [0x2B] Iroha (ID: 17531241/0x010B8169) [11832*]:
    → "Of course I am intimately familiar with...Sir Tenzen."
261: 0x0842 [0x23] WAIT_FOR_DIALOG_INTERACTION
262: 0x0843 [0x2B] Iroha (ID: 17531241/0x010B8169) [11833*]:
    → "He was the one who strongly insisted that I train under you and learn all I can."
263: 0x084A [0x23] WAIT_FOR_DIALOG_INTERACTION
264: 0x084B [0x5B] LOAD_EXT_SCHEDULER: Load scheduler "tlk1" with entities [Iroha (ID: 17531241/0x010B8169), Iroha (ID: 17531241/0x010B8169)], work=3861*
265: 0x085A [0x2B] Iroha (ID: 17531241/0x010B8169) [11834*]:
    → "So it shall be."
266: 0x0861 [0x23] WAIT_FOR_DIALOG_INTERACTION
267: 0x0862 [0x52] END_LOAD_SCHEDULER: End scheduler "s051" with entities [EventEntity, EventEntity], work=763*
268: 0x0871 [0x02] IF !(ExtData[1]->WorkLocal[1] < 1*) GOTO 0x087C
269: 0x0879 [0x01] GOTO 0x08B4
270: 0x087C [0x02] IF !(ExtData[1]->WorkLocal[2] == 0*) GOTO 0x08B4
271: 0x0884 [0x45] LOAD_SCHEDULED_TASK: Load scheduler "s052" with entities [EventEntity, EventEntity], work=[763*, 0*]
272: 0x0895 [0x2B] Iroha (ID: 17531241/0x010B8169) [11835*]:
    → "But before that can happen, you must pass the trials set before you by the chains of Promathia."
273: 0x089C [0x23] WAIT_FOR_DIALOG_INTERACTION
274: 0x089D [0x2B] Iroha (ID: 17531241/0x010B8169) [11836*]:
    → "Recall what happened between you and Lion. The flow of even the mightiest river can be altered with a single stone."
275: 0x08A4 [0x23] WAIT_FOR_DIALOG_INTERACTION
276: 0x08A5 [0x52] END_LOAD_SCHEDULER: End scheduler "s052" with entities [EventEntity, EventEntity], work=763*

SUBROUTINE_08B4:
277: 0x08B4 [0x02] IF !(ExtData[1]->WorkLocal[2] == 0*) GOTO 0x08C4
278: 0x08BC [0x03] ExtData[1]->WorkLocal[2] = 1*
279: 0x08C1 [0x01] GOTO 0x0756
280: 0x08C4 [0x01] GOTO 0x0A1D
281: 0x08C7 [0x02] IF !(Work_Zone[0] == 1*) GOTO 0x0A1D
282: 0x08CF [0x4A] Iroha (ID: 17531241/0x010B8169) looks at LocalPlayer
283: 0x08D8 [0x1C] WAIT(30* ticks)
284: 0x08DB [0x52] END_LOAD_SCHEDULER: End scheduler "s048" with entities [EventEntity, EventEntity], work=763*
285: 0x08EA [0x52] END_LOAD_SCHEDULER: End scheduler "s049" with entities [EventEntity, EventEntity], work=763*
286: 0x08F9 [0x45] LOAD_SCHEDULED_TASK: Load scheduler "s053" with entities [EventEntity, EventEntity], work=[763*, 0*]
287: 0x090A [0x5B] LOAD_EXT_SCHEDULER: Load scheduler "tlk0" with entities [Iroha (ID: 17531241/0x010B8169), Iroha (ID: 17531241/0x010B8169)], work=3861*
288: 0x0919 [0x02] IF !(ExtData[1]->WorkLocal[1] < 1*) GOTO 0x0983
289: 0x0921 [0x2B] Iroha (ID: 17531241/0x010B8169) [11843*]:
    → "Although I had hoped to give my regards to Prishe in person first."
290: 0x0928 [0x23] WAIT_FOR_DIALOG_INTERACTION
291: 0x0929 [0x02] IF !(ExtData[1]->WorkLocal[2] == 1*) GOTO 0x095A
292: 0x0931 [0x2B] Iroha (ID: 17531241/0x010B8169) [11844*]:
    → "But perhaps you are right--meeting with Sir Tenzen is paramount."
293: 0x0938 [0x23] WAIT_FOR_DIALOG_INTERACTION
294: 0x0939 [0x5B] LOAD_EXT_SCHEDULER: Load scheduler "tlk1" with entities [Iroha (ID: 17531241/0x010B8169), Iroha (ID: 17531241/0x010B8169)], work=3861*
295: 0x0948 [0x52] END_LOAD_SCHEDULER: End scheduler "s053" with entities [EventEntity, EventEntity], work=763*
296: 0x0957 [0x01] GOTO 0x0980
297: 0x095A [0x5B] LOAD_EXT_SCHEDULER: Load scheduler "tlk1" with entities [Iroha (ID: 17531241/0x010B8169), Iroha (ID: 17531241/0x010B8169)], work=3861*
298: 0x0969 [0x52] END_LOAD_SCHEDULER: End scheduler "s053" with entities [EventEntity, EventEntity], work=763*
299: 0x0978 [0x03] ExtData[1]->WorkLocal[2] = 2*
300: 0x097D [0x01] GOTO 0x0756

SUBROUTINE_0980:
301: 0x0980 [0x01] GOTO 0x0A1A
302: 0x0983 [0x2B] Iroha (ID: 17531241/0x010B8169) [11839*]:
    → "The appearance of new rifts in Vana'diel has surely not escaped your notice."
303: 0x098A [0x23] WAIT_FOR_DIALOG_INTERACTION
304: 0x098B [0x2B] Iroha (ID: 17531241/0x010B8169) [11840*]:
    → "I feel it prudent to examine them for myself."
305: 0x0992 [0x23] WAIT_FOR_DIALOG_INTERACTION
306: 0x0993 [0x02] IF !(ExtData[1]->WorkLocal[2] == 0*) GOTO 0x09EC
307: 0x099B [0x52] END_LOAD_SCHEDULER: End scheduler "s053" with entities [EventEntity, EventEntity], work=763*
308: 0x09AA [0x45] LOAD_SCHEDULED_TASK: Load scheduler "s054" with entities [EventEntity, EventEntity], work=[763*, 0*]
309: 0x09BB [0x2B] Iroha (ID: 17531241/0x010B8169) [11841*]:
    → "While you are pursuing your destiny regarding the chains of Promathia, I will go on ahead and learn what I can about Escha."
310: 0x09C2 [0x23] WAIT_FOR_DIALOG_INTERACTION
311: 0x09C3 [0x2B] Iroha (ID: 17531241/0x010B8169) [11842*]:
    → "Recall what happened between you and Lion. The flow of even the mightiest river can be altered with a single stone."
312: 0x09CA [0x23] WAIT_FOR_DIALOG_INTERACTION
313: 0x09CB [0x5B] LOAD_EXT_SCHEDULER: Load scheduler "tlk1" with entities [Iroha (ID: 17531241/0x010B8169), Iroha (ID: 17531241/0x010B8169)], work=3861*
314: 0x09DA [0x52] END_LOAD_SCHEDULER: End scheduler "s054" with entities [EventEntity, EventEntity], work=763*
315: 0x09E9 [0x01] GOTO 0x0A0A
316: 0x09EC [0x5B] LOAD_EXT_SCHEDULER: Load scheduler "tlk1" with entities [Iroha (ID: 17531241/0x010B8169), Iroha (ID: 17531241/0x010B8169)], work=3861*
317: 0x09FB [0x52] END_LOAD_SCHEDULER: End scheduler "s053" with entities [EventEntity, EventEntity], work=763*

SUBROUTINE_0A0A:
318: 0x0A0A [0x02] IF !(ExtData[1]->WorkLocal[2] == 0*) GOTO 0x0A1A
319: 0x0A12 [0x03] ExtData[1]->WorkLocal[2] = 2*
320: 0x0A17 [0x01] GOTO 0x0756

SUBROUTINE_0A1A:
321: 0x0A1A [0x01] GOTO 0x0A1D

SUBROUTINE_0A1D:
322: 0x0A1D [0x02] IF !(ExtData[1]->WorkLocal[1] < 1*) GOTO 0x0DD2
323: 0x0A25 [0x45] LOAD_SCHEDULED_TASK: Load scheduler "s056" with entities [EventEntity, EventEntity], work=[763*, 0*]
324: 0x0A36 [0x2B] Iroha (ID: 17531241/0x010B8169) [11846*]:
    → "This leaves me with just one question--where can I meet with Sir Tenzen?"
325: 0x0A3D [0x23] WAIT_FOR_DIALOG_INTERACTION
326: 0x0A3E [0x52] END_LOAD_SCHEDULER: End scheduler "s056" with entities [EventEntity, EventEntity], work=763*
327: 0x0A4D [0x45] LOAD_SCHEDULED_TASK: Load scheduler "s057" with entities [EventEntity, EventEntity], work=[763*, 0*]

SUBROUTINE_0A5E:
328: 0x0A5E [0x24] CREATE_DIALOG(message_id=11847*, default_option=0*, option_flags=0*)
    → "Where can Tenzen be found? [Jeuno?/Tavnazia?/The Far East?]"
329: 0x0A65 [0x25] WAIT_DIALOG_SELECT()
330: 0x0A66 [0x02] IF !(Work_Zone[0] == 0*) GOTO 0x0ABA
331: 0x0A6E [0x52] END_LOAD_SCHEDULER: End scheduler "s057" with entities [EventEntity, EventEntity], work=763*
332: 0x0A7D [0x45] LOAD_SCHEDULED_TASK: Load scheduler "s055" with entities [EventEntity, EventEntity], work=[763*, 0*]
333: 0x0A8E [0x5B] LOAD_EXT_SCHEDULER: Load scheduler "yes0" with entities [Iroha (ID: 17531241/0x010B8169), Iroha (ID: 17531241/0x010B8169)], work=3862*
334: 0x0A9D [0x2B] Iroha (ID: 17531241/0x010B8169) [11848*]:
    → "It stands to reason he would visit the fabled city. Let us rendezvous in Ru'Lude Gardens and seek him out."
335: 0x0AA4 [0x1C] WAIT(130* ticks)
336: 0x0AA7 [0x23] WAIT_FOR_DIALOG_INTERACTION
337: 0x0AA8 [0x52] END_LOAD_SCHEDULER: End scheduler "s055" with entities [EventEntity, EventEntity], work=763*
338: 0x0AB7 [0x01] GOTO 0x0DCF
339: 0x0ABA [0x02] IF !(Work_Zone[0] == 1*) GOTO 0x0D4C
340: 0x0AC2 [0x52] END_LOAD_SCHEDULER: End scheduler "s057" with entities [EventEntity, EventEntity], work=763*
341: 0x0AD1 [0x45] LOAD_SCHEDULED_TASK: Load scheduler "s055" with entities [EventEntity, EventEntity], work=[763*, 0*]
342: 0x0AE2 [0x5B] LOAD_EXT_SCHEDULER: Load scheduler "yes0" with entities [Iroha (ID: 17531241/0x010B8169), Iroha (ID: 17531241/0x010B8169)], work=3862*
343: 0x0AF1 [0x2B] Iroha (ID: 17531241/0x010B8169) [11849*]:
    → "That certainly is one possibility. Then let us head for Tavnazia."
344: 0x0AF8 [0x1C] WAIT(130* ticks)
345: 0x0AFB [0x23] WAIT_FOR_DIALOG_INTERACTION
346: 0x0AFC [0x52] END_LOAD_SCHEDULER: End scheduler "s055" with entities [EventEntity, EventEntity], work=763*
347: 0x0B0B [0x45] LOAD_SCHEDULED_TASK: Load scheduler "s059" with entities [EventEntity, EventEntity], work=[763*, 0*]
348: 0x0B1C [0x9F] LOAD_SCHEDULED_TASK_ALT: Load scheduler "main" with entities [Kagero (ID: 17531243/0x010B816B), Kagero (ID: 17531243/0x010B816B)], work=[164*, 0*]
349: 0x0B2D [0x27] REQ_SET(priority=0x05, entity_id=Kagero (ID: 17531243/0x010B816B), tag_num=0x03)
350: 0x0B34 [0x1C] WAIT(60* ticks)
351: 0x0B37 [0x4A] Iroha (ID: 17531241/0x010B8169) looks at Kagero (ID: 17531243/0x010B816B)
352: 0x0B40 [0x4A] LocalPlayer looks at Kagero (ID: 17531243/0x010B816B)
353: 0x0B49 [0x2B] Kagero (ID: 17531243/0x010B816B) [11850*]:
    → "Hold!"
354: 0x0B50 [0x1C] WAIT(60* ticks)
355: 0x0B53 [0x23] WAIT_FOR_DIALOG_INTERACTION
356: 0x0B54 [0x5B] LOAD_EXT_SCHEDULER: Load scheduler "bik0" with entities [Iroha (ID: 17531241/0x010B8169), Iroha (ID: 17531241/0x010B8169)], work=3863*
357: 0x0B63 [0x52] END_LOAD_SCHEDULER: End scheduler "s059" with entities [EventEntity, EventEntity], work=763*
358: 0x0B72 [0x45] LOAD_SCHEDULED_TASK: Load scheduler "s060" with entities [EventEntity, EventEntity], work=[763*, 0*]
359: 0x0B83 [0x6E] LocalPlayer uses emote 21*
360: 0x0B8A [0x99] Wait for LocalPlayer animation to complete
361: 0x0B8F [0x2B] Iroha (ID: 17531241/0x010B8169) [11851*]:
    → "Who is--"
362: 0x0B96 [0x1C] WAIT(100* ticks)
363: 0x0B99 [0x5B] LOAD_EXT_SCHEDULER: Load scheduler "bik1" with entities [Iroha (ID: 17531241/0x010B8169), Iroha (ID: 17531241/0x010B8169)], work=3863*
364: 0x0BA8 [0x1C] WAIT(110* ticks)
365: 0x0BAB [0x81] SET_ENTITY_BLINKING(blink_flag=0x00, entity=Iroha (ID: 17531241/0x010B8169))
366: 0x0BB1 [0x7C] Iroha (ID: 17531241/0x010B8169)->Render.Flags2 |= 0x00
367: 0x0BB7 [0x5B] LOAD_EXT_SCHEDULER: Load scheduler "thk0" with entities [Iroha (ID: 17531241/0x010B8169), Iroha (ID: 17531241/0x010B8169)], work=3861*
368: 0x0BC6 [0x52] END_LOAD_SCHEDULER: End scheduler "s060" with entities [EventEntity, EventEntity], work=763*
369: 0x0BD5 [0x45] LOAD_SCHEDULED_TASK: Load scheduler "s061" with entities [EventEntity, EventEntity], work=[763*, 0*]
370: 0x0BE6 [0x2B] Iroha (ID: 17531241/0x010B8169) [11852*]:
    → "Is that...Kagero?"
371: 0x0BED [0x23] WAIT_FOR_DIALOG_INTERACTION
372: 0x0BEE [0x5B] LOAD_EXT_SCHEDULER: Load scheduler "nin2" with entities [Kagero (ID: 17531243/0x010B816B), Kagero (ID: 17531243/0x010B816B)], work=3364*
373: 0x0BFD [0x1C] WAIT(20* ticks)
374: 0x0C00 [0x52] END_LOAD_SCHEDULER: End scheduler "s061" with entities [EventEntity, EventEntity], work=763*
375: 0x0C0F [0x45] LOAD_SCHEDULED_TASK: Load scheduler "s167" with entities [EventEntity, EventEntity], work=[763*, 0*]
376: 0x0C20 [0x1C] WAIT(120* ticks)
377: 0x0C23 [0x52] END_LOAD_SCHEDULER: End scheduler "s167" with entities [EventEntity, EventEntity], work=763*
378: 0x0C32 [0x45] LOAD_SCHEDULED_TASK: Load scheduler "s062" with entities [EventEntity, EventEntity], work=[763*, 0*]
379: 0x0C43 [0x2B] Kagero (ID: 17531243/0x010B816B) [11853*]:
    → "How do you know my name?"
380: 0x0C4A [0x23] WAIT_FOR_DIALOG_INTERACTION
381: 0x0C4B [0x5B] LOAD_EXT_SCHEDULER: Load scheduler "nin3" with entities [Kagero (ID: 17531243/0x010B816B), Kagero (ID: 17531243/0x010B816B)], work=3364*
382: 0x0C5A [0x52] END_LOAD_SCHEDULER: End scheduler "s062" with entities [EventEntity, EventEntity], work=763*
383: 0x0C69 [0x45] LOAD_SCHEDULED_TASK: Load scheduler "s063" with entities [EventEntity, EventEntity], work=[763*, 0*]
384: 0x0C7A [0x02] IF !(ExtData[1]->WorkLocal[1] == 2*) GOTO 0x0C8D
385: 0x0C82 [0x2B] Kagero (ID: 17531243/0x010B816B) [11854*]:
    → "Sir Tenzen makes way for Ru'Lude Gardens. You, too, would do best not to delay."
386: 0x0C89 [0x23] WAIT_FOR_DIALOG_INTERACTION
387: 0x0C8A [0x01] GOTO 0x0C95
388: 0x0C8D [0x2B] Kagero (ID: 17531243/0x010B816B) [11855*]:
    → "I shall ensure that Sir Tenzen arrives in Jeuno safely. I bid you await him in Ru'Lude Gardens."
389: 0x0C94 [0x23] WAIT_FOR_DIALOG_INTERACTION

SUBROUTINE_0C95:
390: 0x0C95 [0x7B] LocalPlayer stops talking
391: 0x0C9A [0x52] END_LOAD_SCHEDULER: End scheduler "s063" with entities [EventEntity, EventEntity], work=763*
392: 0x0CA9 [0x45] LOAD_SCHEDULED_TASK: Load scheduler "s064" with entities [EventEntity, EventEntity], work=[763*, 0*]
393: 0x0CBA [0x66] LOAD_EXT_SCHEDULER_MAIN: Load scheduler "nin1" with entities [Kagero (ID: 17531243/0x010B816B), Kagero (ID: 17531243/0x010B816B)], work=19*
394: 0x0CC9 [0x9F] LOAD_SCHEDULED_TASK_ALT: Load scheduler "main" with entities [Kagero (ID: 17531243/0x010B816B), Kagero (ID: 17531243/0x010B816B)], work=[114*, 0*]
395: 0x0CDA [0x7B] Iroha (ID: 17531241/0x010B8169) stops talking
396: 0x0CDF [0x5B] LOAD_EXT_SCHEDULER: Load scheduler "thk1" with entities [Iroha (ID: 17531241/0x010B8169), Iroha (ID: 17531241/0x010B8169)], work=3861*
397: 0x0CEE [0x81] SET_ENTITY_BLINKING(blink_flag=0x01, entity=Iroha (ID: 17531241/0x010B8169))
398: 0x0CF4 [0x7C] Iroha (ID: 17531241/0x010B8169)->Render.Flags2 |= 0x01
399: 0x0CFA [0x1C] WAIT(120* ticks)
400: 0x0CFD [0x52] END_LOAD_SCHEDULER: End scheduler "s064" with entities [EventEntity, EventEntity], work=763*
401: 0x0D0C [0x45] LOAD_SCHEDULED_TASK: Load scheduler "s065" with entities [EventEntity, EventEntity], work=[763*, 0*]
402: 0x0D1D [0x4A] Iroha (ID: 17531241/0x010B8169) looks at LocalPlayer
403: 0x0D26 [0x1C] WAIT(30* ticks)
404: 0x0D29 [0x4A] LocalPlayer looks at Iroha (ID: 17531241/0x010B8169)
405: 0x0D32 [0x2B] Iroha (ID: 17531241/0x010B8169) [11856*]:
    → "Then the path before us is clear."
406: 0x0D39 [0x23] WAIT_FOR_DIALOG_INTERACTION
407: 0x0D3A [0x52] END_LOAD_SCHEDULER: End scheduler "s065" with entities [EventEntity, EventEntity], work=763*
408: 0x0D49 [0x01] GOTO 0x0DCF
409: 0x0D4C [0x02] IF !(Work_Zone[0] == 2*) GOTO 0x0DCF
410: 0x0D54 [0x81] SET_ENTITY_BLINKING(blink_flag=0x00, entity=Iroha (ID: 17531241/0x010B8169))
411: 0x0D5A [0x7C] Iroha (ID: 17531241/0x010B8169)->Render.Flags2 |= 0x00
412: 0x0D60 [0x5B] LOAD_EXT_SCHEDULER: Load scheduler "fa01" with entities [Iroha (ID: 17531241/0x010B8169), Iroha (ID: 17531241/0x010B8169)], work=3858*
413: 0x0D6F [0x52] END_LOAD_SCHEDULER: End scheduler "s057" with entities [EventEntity, EventEntity], work=763*
414: 0x0D7E [0x45] LOAD_SCHEDULED_TASK: Load scheduler "s058" with entities [EventEntity, EventEntity], work=[763*, 0*]
415: 0x0D8F [0x2B] Iroha (ID: 17531241/0x010B8169) [11857*]:
    → "I find it doubtful that he would head back after having arrived only some few days before. Perhaps he is elsewhere?"
416: 0x0D96 [0x23] WAIT_FOR_DIALOG_INTERACTION
417: 0x0D97 [0x52] END_LOAD_SCHEDULER: End scheduler "s058" with entities [EventEntity, EventEntity], work=763*
418: 0x0DA6 [0x45] LOAD_SCHEDULED_TASK: Load scheduler "s057" with entities [EventEntity, EventEntity], work=[763*, 0*]
419: 0x0DB7 [0x81] SET_ENTITY_BLINKING(blink_flag=0x01, entity=Iroha (ID: 17531241/0x010B8169))
420: 0x0DBD [0x7C] Iroha (ID: 17531241/0x010B8169)->Render.Flags2 |= 0x01
421: 0x0DC3 [0xD3] CLEAR_ENTITY_MOTION_QUEUE(condition_flag=0x00, entity_server_id=0x010B8169)
422: 0x0DC9 [0x01] GOTO 0x0A5E

SUBROUTINE_0DCF:
423: 0x0DCF [0x01] GOTO 0x0DFC
424: 0x0DD2 [0x45] LOAD_SCHEDULED_TASK: Load scheduler "s055" with entities [EventEntity, EventEntity], work=[763*, 0*]
425: 0x0DE3 [0x2B] Iroha (ID: 17531241/0x010B8169) [11845*]:
    → "With your leave."
426: 0x0DEA [0x1C] WAIT(120* ticks)
427: 0x0DED [0x52] END_LOAD_SCHEDULER: End scheduler "s055" with entities [EventEntity, EventEntity], work=763*

SUBROUTINE_0DFC:
428: 0x0DFC [0x45] LOAD_SCHEDULED_TASK: Load scheduler "s066" with entities [EventEntity, EventEntity], work=[763*, 0*]
429: 0x0E0D [0x27] REQ_SET(priority=0x05, entity_id=Iroha (ID: 17531241/0x010B8169), tag_num=0x03)
430: 0x0E14 [0x1C] WAIT(120* ticks)
431: 0x0E17 [0x7A] VM_CONTROL: Reset VM for Iroha (ID: 17531241/0x010B8169)
432: 0x0E1D [0x1C] WAIT(30* ticks)
433: 0x0E20 [0x52] END_LOAD_SCHEDULER: End scheduler "s066" with entities [EventEntity, EventEntity], work=763*
434: 0x0E2F [0x45] LOAD_SCHEDULED_TASK: Load scheduler "s153" with entities [EventEntity, EventEntity], work=[763*, 0*]
435: 0x0E40 [0x5B] LOAD_EXT_SCHEDULER: Load scheduler "sin0" with entities [Iroha (ID: 17531241/0x010B8169), Iroha (ID: 17531241/0x010B8169)], work=3869*
436: 0x0E4F [0x1C] WAIT(90* ticks)
437: 0x0E52 [0x5B] LOAD_EXT_SCHEDULER: Load scheduler "sin1" with entities [Iroha (ID: 17531241/0x010B8169), Iroha (ID: 17531241/0x010B8169)], work=3869*
438: 0x0E61 [0x1C] WAIT(140* ticks)
439: 0x0E64 [0x52] END_LOAD_SCHEDULER: End scheduler "s153" with entities [EventEntity, EventEntity], work=763*
440: 0x0E73 [0x45] LOAD_SCHEDULED_TASK: Load scheduler "s154" with entities [EventEntity, EventEntity], work=[763*, 0*]
441: 0x0E84 [0x1C] WAIT(90* ticks)
442: 0x0E87 [0x27] REQ_SET(priority=0x05, entity_id=Iroha (ID: 17531241/0x010B8169), tag_num=0x03)
443: 0x0E8E [0x1C] WAIT(90* ticks)
444: 0x0E91 [0x5D] SET_MUSIC_VOLUME(volume=0*, fade_time=120*)
445: 0x0E96 [0x45] LOAD_SCHEDULED_TASK: Load scheduler "fdo1" with entities [EventEntity, EventEntity], work=[200*, 0*]
446: 0x0EA7 [0x55] WAIT_LOAD_SCHEDULER: Wait for scheduler "fdo1" with entities [EventEntity, EventEntity], work=200*
447: 0x0EB6 [0x52] END_LOAD_SCHEDULER: End scheduler "s154" with entities [EventEntity, EventEntity], work=761*
448: 0x0EC5 [0x5C] MUSIC_CONTROL: Set Idle (Day) music to song 0*
449: 0x0EC9 [0x5C] MUSIC_CONTROL: Set Idle (Night) music to song 0*
450: 0x0ECD [0x9A] WAIT_MUSIC_SERVER()
451: 0x0ECE [0x46] CAMERA_CONTROL: Restore default settings
452: 0x0ED0 [0x45] LOAD_SCHEDULED_TASK: Load scheduler "fdi2" with entities [EventEntity, EventEntity], work=[200*, 0*]
453: 0x0EE1 [0x1B] RETURN
```

#### Data or dead code:

```
# Dead code (unreachable instructions):
     0x0DCC [0x01] GOTO 0x0DCF
```
