# 17531191 - Bahamut

## Common Data

| Field            | Value                            |
|------------------|----------------------------------|
| Zone             | Lower Delkfutt's Tower (ID: 184) |
| Block Size       | 160 bytes                        |
| Total Events     | 5                                |
| References Count | 5                                |

## List of Events

| Event ID                 | Entrypoint   |   Size |   Instructions |
|--------------------------|--------------|--------|----------------|
| [65535](#event-65535)    | 0x0000       |     13 |              3 |
| [37](#event-37)          | 0x000D       |      1 |              1 |
| [65535.1](#event-655351) | 0x000E       |     40 |              5 |
| [65535.2](#event-655352) | 0x0036       |     29 |              3 |
| [65535.3](#event-655353) | 0x0053       |     19 |              3 |

## DAT References (imed_data)

|   Index | Hex Value   |   Dec Value |
|---------|-------------|-------------|
|       0 | 0x7A120     |      500000 |
|       1 | 0x0000      |           0 |
|       2 | 0xFFFE7960  |  4294867296 |
|       3 | 0x01F3      |         499 |
|       4 | 0xFFFCF2C0  |  4294767296 |

## Events

### Event 65535

#### Metadata

| Field        | Value    |
|--------------|----------|
| Entrypoint   | 0x0000   |
| Data Size    | 13 bytes |
| Instructions | 3        |

```
      00 01 02 03 04 05 06 07  08 09 0A 0B 0C 0D 0E 0F
      -- -- -- -- -- -- -- --  -- -- -- -- -- -- -- --
0000: 94 01 F8 FF FF 7F 92 01  F8 FF FF 7F 00           .............   
```

#### Opcodes

```
  0: 0x0000 [0x94] EventEntity->Render.Flags3 ^= 0x01
  1: 0x0006 [0x92] EventEntity->Render.Flags3 ^= 0x01
  2: 0x000C [0x00] END_REQSTACK()
```

### Event 37

#### Metadata

| Field        | Value   |
|--------------|---------|
| Entrypoint   | 0x000D  |
| Data Size    | 1 bytes |
| Instructions | 1       |

```
      00 01 02 03 04 05 06 07  08 09 0A 0B 0C 0D 0E 0F
      -- -- -- -- -- -- -- --  -- -- -- -- -- -- -- --
0000:                                         00                     .  
```

#### Opcodes

```
  0: 0x000D [0x00] END_REQSTACK()
```

### Event 65535.1

#### Metadata

| Field        | Value    |
|--------------|----------|
| Entrypoint   | 0x000E   |
| Data Size    | 40 bytes |
| Instructions | 5        |

```
      00 01 02 03 04 05 06 07  08 09 0A 0B 0C 0D 0E 0F
      -- -- -- -- -- -- -- --  -- -- -- -- -- -- -- --
0000:                                            33 01                3.
0010: 37 00 80 01 80 02 80 01  80 5B 03 80 F8 FF FF 7F  7........[......
0020: F8 FF FF 7F 00 FE FE FE  53 F8 FF FF 7F F8 FF FF  ........S.......
0030: 7F 00 FE FE FE 00                                 ......          
```

#### Opcodes

```
  0: 0x000E [0x33] EventEntity->Render.Flags0 |= 0x200000 // Bit 21 (flag=0x01)
  1: 0x0010 [0x37] UPDATE_EVENT_POSITION_AND_DIR: x=500.000*, z=0.000*, y=-100.000*, direction=0.0°*
  2: 0x0019 [0x5B] LOAD_EXT_SCHEDULER: Load scheduler 0xFEFEFE00 with entities [EventEntity, EventEntity], work=499*
  3: 0x0028 [0x53] WAIT_SCHEDULER_TASK: Wait for scheduler 0xFEFEFE00 with entities [EventEntity, EventEntity]
  4: 0x0035 [0x00] END_REQSTACK()
```

### Event 65535.2

#### Metadata

| Field        | Value    |
|--------------|----------|
| Entrypoint   | 0x0036   |
| Data Size    | 29 bytes |
| Instructions | 3        |

```
      00 01 02 03 04 05 06 07  08 09 0A 0B 0C 0D 0E 0F
      -- -- -- -- -- -- -- --  -- -- -- -- -- -- -- --
0030:                   5B 03  80 F8 FF FF 7F F8 FF FF        [.........
0040: 7F 68 6F 75 30 53 F8 FF  FF 7F F8 FF FF 7F 68 6F  .hou0S........ho
0050: 75 30 00                                          u0.             
```

#### Opcodes

```
  0: 0x0036 [0x5B] LOAD_EXT_SCHEDULER: Load scheduler "hou0" with entities [EventEntity, EventEntity], work=499*
  1: 0x0045 [0x53] WAIT_SCHEDULER_TASK: Wait for scheduler "hou0" with entities [EventEntity, EventEntity]
  2: 0x0052 [0x00] END_REQSTACK()
```

### Event 65535.3

#### Metadata

| Field        | Value    |
|--------------|----------|
| Entrypoint   | 0x0053   |
| Data Size    | 19 bytes |
| Instructions | 3        |

```
      00 01 02 03 04 05 06 07  08 09 0A 0B 0C 0D 0E 0F
      -- -- -- -- -- -- -- --  -- -- -- -- -- -- -- --
0050:          3B F8 FF FF 7F  00 00 01 00 02 00 36 00     ;..........6.
0060: 00 01 00 04 80 00                                 ......          
```

#### Opcodes

```
  0: 0x0053 [0x3B] GET_ENTITY_POSITION(entity=EventEntity, x_destination=ExtData[1]->WorkLocal[0], y_destination=ExtData[1]->WorkLocal[1], z_destination=ExtData[1]->WorkLocal[2])
  1: 0x005E [0x36] SET_ENTITY_EVENT_POSITION(pos_x=ExtData[1]->WorkLocal[0], pos_z=ExtData[1]->WorkLocal[1], pos_y=-200.000*)
  2: 0x0065 [0x00] END_REQSTACK()
```
