# 17531208

## Common Data

| Field            | Value                            |
|------------------|----------------------------------|
| Zone             | Lower Delkfutt's Tower (ID: 184) |
| Block Size       | 6532 bytes                       |
| Total Events     | 4                                |
| References Count | 141                              |

## List of Events

| Event ID              | Entrypoint   |   Size |   Instructions |
|-----------------------|--------------|--------|----------------|
| [65535](#event-65535) | 0x0000       |      1 |              1 |
| [65534](#event-65534) | 0x0001       |      1 |              1 |
| [24](#event-24)       | 0x0002       |    338 |             66 |
| [25](#event-25)       | 0x0154       |   5595 |            667 |

## DAT References (imed_data)

|   Index | Hex Value   |   Dec Value |
|---------|-------------|-------------|
|       0 | 0x1D54      |        7508 |
|       1 | 0x0000      |           0 |
|       2 | 0x0001      |           1 |
|       3 | 0x005A      |          90 |
|       4 | 0x2FFE      |       12286 |
|       5 | 0xFFFE45BD  |  4294854077 |
|       6 | 0xFFFF76E3  |  4294932195 |
|       7 | 0x0AF5      |        2805 |
|       8 | 0x0002      |           2 |
|       9 | 0x009A      |         154 |
|      10 | 0x1D56      |        7510 |
|      11 | 0x0003      |           3 |
|      12 | 0x1D55      |        7509 |
|      13 | 0x0013      |          19 |
|      14 | 0x021C      |         540 |
|      15 | 0x000C      |          12 |
|      16 | 0x000F      |          15 |
|      17 | 0x001E      |          30 |
|      18 | 0x1CF5      |        7413 |
|      19 | 0x1CF6      |        7414 |
|      20 | 0x1CF7      |        7415 |
|      21 | 0x00E7      |         231 |
|      22 | 0x1CF8      |        7416 |
|      23 | 0x1CF9      |        7417 |
|      24 | 0x01AB      |         427 |
|      25 | 0x1CFA      |        7418 |
|      26 | 0x01D1      |         465 |
|      27 | 0x1CFB      |        7419 |
|      28 | 0x1CFC      |        7420 |
|      29 | 0x007F      |         127 |
|      30 | 0x1CFD      |        7421 |
|      31 | 0x1CFE      |        7422 |
|      32 | 0x1CFF      |        7423 |
|      33 | 0x01D2      |         466 |
|      34 | 0x1D00      |        7424 |
|      35 | 0x1D01      |        7425 |
|      36 | 0x1D02      |        7426 |
|      37 | 0x0100      |         256 |
|      38 | 0x1D03      |        7427 |
|      39 | 0x1D04      |        7428 |
|      40 | 0x01A9      |         425 |
|      41 | 0x1D05      |        7429 |
|      42 | 0x1D06      |        7430 |
|      43 | 0x1D07      |        7431 |
|      44 | 0x0C00      |        3072 |
|      45 | 0x1D08      |        7432 |
|      46 | 0x1D09      |        7433 |
|      47 | 0x1D0A      |        7434 |
|      48 | 0x1D0B      |        7435 |
|      49 | 0x1D0C      |        7436 |
|      50 | 0x1D0D      |        7437 |
|      51 | 0x1D0E      |        7438 |
|      52 | 0x1D0F      |        7439 |
|      53 | 0x0009      |           9 |
|      54 | 0x1D10      |        7440 |
|      55 | 0x1D11      |        7441 |
|      56 | 0x0078      |         120 |
|      57 | 0x1D13      |        7443 |
|      58 | 0x1D14      |        7444 |
|      59 | 0x1D15      |        7445 |
|      60 | 0x1D16      |        7446 |
|      61 | 0x1D17      |        7447 |
|      62 | 0x1D18      |        7448 |
|      63 | 0x1D19      |        7449 |
|      64 | 0x1D1A      |        7450 |
|      65 | 0x1D1B      |        7451 |
|      66 | 0x1D1C      |        7452 |
|      67 | 0x1D1D      |        7453 |
|      68 | 0x1D1E      |        7454 |
|      69 | 0x021D      |         541 |
|      70 | 0x01CC      |         460 |
|      71 | 0x009B      |         155 |
|      72 | 0x00B3      |         179 |
|      73 | 0x1D1F      |        7455 |
|      74 | 0x1D20      |        7456 |
|      75 | 0x003C      |          60 |
|      76 | 0x1D21      |        7457 |
|      77 | 0x1D22      |        7458 |
|      78 | 0x0016      |          22 |
|      79 | 0x1D23      |        7459 |
|      80 | 0x1D24      |        7460 |
|      81 | 0x1D25      |        7461 |
|      82 | 0x1D26      |        7462 |
|      83 | 0x1D27      |        7463 |
|      84 | 0x1D28      |        7464 |
|      85 | 0x002D      |          45 |
|      86 | 0x1D29      |        7465 |
|      87 | 0x1D2A      |        7466 |
|      88 | 0x1D2B      |        7467 |
|      89 | 0x1D2C      |        7468 |
|      90 | 0x1D2D      |        7469 |
|      91 | 0x0400      |        1024 |
|      92 | 0x1D2E      |        7470 |
|      93 | 0x1D2F      |        7471 |
|      94 | 0x1D30      |        7472 |
|      95 | 0x1D31      |        7473 |
|      96 | 0x1D32      |        7474 |
|      97 | 0x1D33      |        7475 |
|      98 | 0x1D34      |        7476 |
|      99 | 0x1D35      |        7477 |
|     100 | 0x1D36      |        7478 |
|     101 | 0x0283      |         643 |
|     102 | 0x1D37      |        7479 |
|     103 | 0x1D38      |        7480 |
|     104 | 0x1D39      |        7481 |
|     105 | 0x1D3A      |        7482 |
|     106 | 0x1D3B      |        7483 |
|     107 | 0x0280      |         640 |
|     108 | 0x1D3C      |        7484 |
|     109 | 0x1D3D      |        7485 |
|     110 | 0x1D3E      |        7486 |
|     111 | 0x1D3F      |        7487 |
|     112 | 0x1D40      |        7488 |
|     113 | 0x1D41      |        7489 |
|     114 | 0x1D42      |        7490 |
|     115 | 0x1D43      |        7491 |
|     116 | 0x0099      |         153 |
|     117 | 0x012C      |         300 |
|     118 | 0x0258      |         600 |
|     119 | 0x0281      |         641 |
|     120 | 0x1D44      |        7492 |
|     121 | 0x1D45      |        7493 |
|     122 | 0x1D46      |        7494 |
|     123 | 0x00F3      |         243 |
|     124 | 0x1D12      |        7442 |
|     125 | 0x1D47      |        7495 |
|     126 | 0x1D48      |        7496 |
|     127 | 0x1D49      |        7497 |
|     128 | 0x1D4A      |        7498 |
|     129 | 0x1D4B      |        7499 |
|     130 | 0x1D4C      |        7500 |
|     131 | 0x1D4D      |        7501 |
|     132 | 0x1D4E      |        7502 |
|     133 | 0x1D4F      |        7503 |
|     134 | 0x1D50      |        7504 |
|     135 | 0x00B8      |         184 |
|     136 | 0x0073      |         115 |
|     137 | 0x0066      |         102 |
|     138 | 0x00C8      |         200 |
|     139 | 0x00C9      |         201 |
|     140 | 0x00D7      |         215 |

## String References

- **7508**: B$P10l$3f$3o$3b$3O%p$3$3j$3$5[ [$3L$3$3$3$3Z$3 [/$3$1[$3v/$3J$3$3$7$3C$3x$3$3g]
- **7509**: $3C$3x$3$3gp$P11I$P11p [$P11O$P10Uh/$P11O$P14</c$P14</$P122$P10.%p]
- **7510**: $3{$3^$3$97F$31V$P10i]\\7

## Events

### Event 65535

#### Metadata

| Field        | Value   |
|--------------|---------|
| Entrypoint   | 0x0000  |
| Data Size    | 1 bytes |
| Instructions | 1       |

```
      00 01 02 03 04 05 06 07  08 09 0A 0B 0C 0D 0E 0F
      -- -- -- -- -- -- -- --  -- -- -- -- -- -- -- --
0000: 00                                                .               
```

#### Opcodes

```
  0: 0x0000 [0x00] END_REQSTACK()
```

### Event 65534

#### Metadata

| Field        | Value   |
|--------------|---------|
| Entrypoint   | 0x0001  |
| Data Size    | 1 bytes |
| Instructions | 1       |

```
      00 01 02 03 04 05 06 07  08 09 0A 0B 0C 0D 0E 0F
      -- -- -- -- -- -- -- --  -- -- -- -- -- -- -- --
0000:    00                                              .              
```

#### Opcodes

```
  0: 0x0001 [0x00] END_REQSTACK()
```

### Event 24

#### Metadata

| Field        | Value     |
|--------------|-----------|
| Entrypoint   | 0x0002    |
| Data Size    | 338 bytes |
| Instructions | 66        |

```
      00 01 02 03 04 05 06 07  08 09 0A 0B 0C 0D 0E 0F
      -- -- -- -- -- -- -- --  -- -- -- -- -- -- -- --
0000:       24 00 80 01 80 01  80 25 02 00 10 02 80 00    $......%......
0010: 26 00 03 01 10 03 80 47  00 04 80 05 80 06 80 07  &......G........
0020: 80 47 01 01 54 00 02 00  10 08 80 00 46 00 45 09  .G..T.......F.E.
0030: 80 F0 FF FF 7F F0 FF FF  7F 00 FE FE FE 01 80 48  ...............H
0040: 0A 80 23 01 54 00 02 00  10 0B 80 00 54 00 1A 56  ..#.T.......T..V
0050: 00 01 54 00 21 00 5C 00  01 80 5C 01 01 80 5C 02  ..T.!.\...\...\.
0060: 01 80 5C 03 01 80 9A 46  01 24 0C 80 02 80 01 80  ..\....F.$......
0070: 25 02 00 10 01 80 00 7F  00 1A 54 01 01 51 01 02  %.........T..Q..
0080: 00 10 02 80 00 BC 00 42  1A 01 15 46 01 38 0D 80  .......B...F.8..
0090: AB 09 79 00 F0 FF FF 7F  F0 FF FF 7F 27 10 4B 81  ..y.........'.K.
00A0: 0B 01 04 27 10 4C 81 0B  01 04 92 01 4B 81 0B 01  ...'.L......K...
00B0: 92 01 4C 81 0B 01 1A BC  03 01 51 01 02 00 10 08  ..L.......Q.....
00C0: 80 00 43 01 42 1A 43 15  46 01 38 0D 80 79 00 F0  ..C.B.C.F.8..y..
00D0: FF FF 7F F0 FF FF 7F 27  10 4B 81 0B 01 04 27 10  .......'.K....'.
00E0: 4C 81 0B 01 04 92 01 4B  81 0B 01 92 01 4C 81 0B  L......K.....L..
00F0: 01 34 0E 80 77 0F 80 08  80 1C 10 80 2D F8 FF FF  .4..w.......-...
0100: 7F F8 FF FF 7F 30 31 6F  6E 2D F8 FF FF 7F F8 FF  .....01on-......
0110: FF 7F 30 32 6F 6E 2D F8  FF FF 7F F8 FF FF 7F 33  ..02on-........3
0120: 6F 66 66 2D F8 FF FF 7F  F8 FF FF 7F 30 34 6F 6E  off-........04on
0130: 2D F8 FF FF 7F F8 FF FF  7F 30 35 6F 6E 1A 32 11  -........05on.2.
0140: 01 51 01 02 00 10 0B 80  00 51 01 1A 9D 14 01 51  .Q.......Q.....Q
0150: 01 46 00 1B                                       .F..            
```

#### Opcodes

```
  0: 0x0002 [0x24] CREATE_DIALOG(message_id=7508*, default_option=0*, option_flags=0*)
    → "B$P10l$3f$3o$3b$3O%p$3$3j$3$5[ [$3L$3$3$3$3Z$3 [/$3$1[$3v/$3J$3$3$7$3C$3x$3$3g]"
  1: 0x0009 [0x25] WAIT_DIALOG_SELECT()
  2: 0x000A [0x02] IF !(Work_Zone[0] == 1*) GOTO 0x0026
  3: 0x0012 [0x03] Work_Zone[1] = 90*
  4: 0x0017 [0x47] UPDATE_PLAYER_POS(12.286*, -113.219*, -35.101*, yaw=246.5°*)
  5: 0x0021 [0x47] WAIT_PLAYER_POS_UPDATE
  6: 0x0023 [0x01] GOTO 0x0054
  7: 0x0026 [0x02] IF !(Work_Zone[0] == 2*) GOTO 0x0046
  8: 0x002E [0x45] LOAD_SCHEDULED_TASK: Load scheduler 0xFEFEFE00 with entities [LocalPlayer, LocalPlayer], work=[154*, 0*]
  9: 0x003F [0x48] [System] [7510*]:
    → "$3{$3^$3$97F$31V$P10i]\7"
 10: 0x0042 [0x23] WAIT_FOR_DIALOG_INTERACTION
 11: 0x0043 [0x01] GOTO 0x0054
 12: 0x0046 [0x02] IF !(Work_Zone[0] == 3*) GOTO 0x0054
 13: 0x004E [0x1A] CALL_SUBROUTINE(address=0x0056)
 14: 0x0051 [0x01] GOTO 0x0054

SUBROUTINE_0054:
 15: 0x0054 [0x21] END_EVENT
 16: 0x0055 [0x00] END_REQSTACK()

SUBROUTINE_0056:
 17: 0x0056 [0x5C] MUSIC_CONTROL: Set Idle (Day) music to song 0*
 18: 0x005A [0x5C] MUSIC_CONTROL: Set Idle (Night) music to song 0*
 19: 0x005E [0x5C] MUSIC_CONTROL: Set Combat (Solo) music to song 0*
 20: 0x0062 [0x5C] MUSIC_CONTROL: Set Combat (Party) music to song 0*
 21: 0x0066 [0x9A] WAIT_MUSIC_SERVER()
 22: 0x0067 [0x46] CAMERA_CONTROL: Disable user control
 23: 0x0069 [0x24] CREATE_DIALOG(message_id=7509*, default_option=1*, option_flags=0*)
    → "$3C$3x$3$3gp$P11I$P11p [$P11O$P10Uh/$P11O$P14</c$P14</$P122$P10.%p]"
 24: 0x0070 [0x25] WAIT_DIALOG_SELECT()
 25: 0x0071 [0x02] IF !(Work_Zone[0] == 0*) GOTO 0x007F
 26: 0x0079 [0x1A] CALL_SUBROUTINE(address=0x0154)
 27: 0x007C [0x01] GOTO 0x0151
 28: 0x007F [0x02] IF !(Work_Zone[0] == 1*) GOTO 0x00BC
 29: 0x0087 [0x42] SET_CLI_EVENT_CANCEL_DATA()
 30: 0x0088 [0x1A] CALL_SUBROUTINE(address=0x1501)
 31: 0x008B [0x46] CAMERA_CONTROL: Disable user control
 32: 0x008D [0x38] SET_CLIENT_EVENT_MODE(mode=19*)
 33: 0x0090 [0xAB] EventEntity->UnknownFlag = 1 // Enable unknown flag
 34: 0x0092 [0x79] LocalPlayer looks at LocalPlayer (Basic look)
 35: 0x009C [0x27] REQ_SET(priority=0x10, entity_id=Tenzen (ID: 17531211/0x010B814B), tag_num=0x04)
 36: 0x00A3 [0x27] REQ_SET(priority=0x10, entity_id=Nag'molada (ID: 17531212/0x010B814C), tag_num=0x04)
 37: 0x00AA [0x92] Tenzen (ID: 17531211/0x010B814B)->Render.Flags3 ^= 0x01
 38: 0x00B0 [0x92] Nag'molada (ID: 17531212/0x010B814C)->Render.Flags3 ^= 0x01
 39: 0x00B6 [0x1A] CALL_SUBROUTINE(address=0x03BC)
 40: 0x00B9 [0x01] GOTO 0x0151
 41: 0x00BC [0x02] IF !(Work_Zone[0] == 2*) GOTO 0x0143
 42: 0x00C4 [0x42] SET_CLI_EVENT_CANCEL_DATA()
 43: 0x00C5 [0x1A] CALL_SUBROUTINE(address=0x1543)
 44: 0x00C8 [0x46] CAMERA_CONTROL: Disable user control
 45: 0x00CA [0x38] SET_CLIENT_EVENT_MODE(mode=19*)
 46: 0x00CD [0x79] LocalPlayer looks at LocalPlayer (Basic look)
 47: 0x00D7 [0x27] REQ_SET(priority=0x10, entity_id=Tenzen (ID: 17531211/0x010B814B), tag_num=0x04)
 48: 0x00DE [0x27] REQ_SET(priority=0x10, entity_id=Nag'molada (ID: 17531212/0x010B814C), tag_num=0x04)
 49: 0x00E5 [0x92] Tenzen (ID: 17531211/0x010B814B)->Render.Flags3 ^= 0x01
 50: 0x00EB [0x92] Nag'molada (ID: 17531212/0x010B814C)->Render.Flags3 ^= 0x01
 51: 0x00F1 [0x34] LOAD_UNLOAD_ZONE(zone_id=540*)
 52: 0x00F4 [0x77] SET_EVENT_TIME_WEATHER(hour=12*, weather=2*)
 53: 0x00F9 [0x1C] WAIT(15* ticks)
 54: 0x00FC [0x2D] CREATE_ZONE_SCHEDULER_TASK: Create scheduler "01on" with entities [EventEntity, EventEntity]
 55: 0x0109 [0x2D] CREATE_ZONE_SCHEDULER_TASK: Create scheduler "02on" with entities [EventEntity, EventEntity]
 56: 0x0116 [0x2D] CREATE_ZONE_SCHEDULER_TASK: Create scheduler "3off" with entities [EventEntity, EventEntity]
 57: 0x0123 [0x2D] CREATE_ZONE_SCHEDULER_TASK: Create scheduler "04on" with entities [EventEntity, EventEntity]
 58: 0x0130 [0x2D] CREATE_ZONE_SCHEDULER_TASK: Create scheduler "05on" with entities [EventEntity, EventEntity]
 59: 0x013D [0x1A] CALL_SUBROUTINE(address=0x1132)
 60: 0x0140 [0x01] GOTO 0x0151
 61: 0x0143 [0x02] IF !(Work_Zone[0] == 3*) GOTO 0x0151
 62: 0x014B [0x1A] CALL_SUBROUTINE(address=0x149D)
 63: 0x014E [0x01] GOTO 0x0151

SUBROUTINE_0151:
 64: 0x0151 [0x46] CAMERA_CONTROL: Restore default settings
 65: 0x0153 [0x1B] RETURN
```

### Event 25

#### Metadata

| Field        | Value      |
|--------------|------------|
| Entrypoint   | 0x0154     |
| Data Size    | 5595 bytes |
| Instructions | 617        |

```
      00 01 02 03 04 05 06 07  08 09 0A 0B 0C 0D 0E 0F
      -- -- -- -- -- -- -- --  -- -- -- -- -- -- -- --
0150:             42 1A 01 15  46 01 38 0D 80 AB 09 79      B...F.8....y
0160: 00 F0 FF FF 7F F0 FF FF  7F 27 10 4B 81 0B 01 04  .........'.K....
0170: 27 10 4C 81 0B 01 02 92  01 4B 81 0B 01 92 01 4C  '.L......K.....L
0180: 81 0B 01 27 10 F0 FF FF  7F 2A 27 10 4B 81 0B 01  ...'.....*'.K...
0190: 09 27 10 4C 81 0B 01 09  94 01 4B 81 0B 01 94 01  .'.L......K.....
01A0: 4C 81 0B 01 1C 11 80 45  09 80 F0 FF FF 7F F0 FF  L......E........
01B0: FF 7F 63 6C 30 30 01 80  1A E0 14 27 10 18 81 0B  ..cl00.....'....
01C0: 01 03 1C 11 80 2B 4B 81  0B 01 12 80 23 52 09 80  .....+K.....#R..
01D0: F0 FF FF 7F F0 FF FF 7F  63 6C 30 30 45 09 80 F0  ........cl00E...
01E0: FF FF 7F F0 FF FF 7F 63  6C 30 31 01 80 4A F0 FF  .......cl01..J..
01F0: FF 7F 4B 81 0B 01 2B 4B  81 0B 01 13 80 23 27 10  ..K...+K.....#'.
0200: 4B 81 0B 01 0A 52 09 80  F0 FF FF 7F F0 FF FF 7F  K....R..........
0210: 63 6C 30 31 45 09 80 F0  FF FF 7F F0 FF FF 7F 63  cl01E..........c
0220: 6C 30 32 01 80 1C 03 80  1A BF 14 1C 11 80 2A 10  l02...........*.
0230: 4B 81 0B 01 52 09 80 F0  FF FF 7F F0 FF FF 7F 63  K...R..........c
0240: 6C 30 32 45 09 80 F0 FF  FF 7F F0 FF FF 7F 63 6C  l02E..........cl
0250: 30 33 01 80 1A E0 14 1C  10 80 2B 4B 81 0B 01 14  03........+K....
0260: 80 23 5C 00 15 80 5C 01  15 80 5C 02 15 80 5C 03  .#\...\...\...\.
0270: 15 80 9A 2B 4A 81 0B 01  16 80 23 52 09 80 F0 FF  ...+J.....#R....
0280: FF 7F F0 FF FF 7F 63 6C  30 33 45 09 80 F0 FF FF  ......cl03E.....
0290: 7F F0 FF FF 7F 63 6C 30  34 01 80 4A 4B 81 0B 01  .....cl04..JK...
02A0: 4C 81 0B 01 7C 00 4B 81  0B 01 2B 4B 81 0B 01 17  L...|.K...+K....
02B0: 80 4A F0 FF FF 7F 4C 81  0B 01 6F 76 4B 81 0B 01  .J....L...ovK...
02C0: 45 09 80 F0 FF FF 7F F0  FF FF 7F 63 30 34 35 01  E..........c045.
02D0: 80 5B 18 80 4B 81 0B 01  4B 81 0B 01 69 61 69 30  .[..K...K...iai0
02E0: 55 09 80 F0 FF FF 7F F0  FF FF 7F 63 6C 30 34 45  U..........cl04E
02F0: 09 80 F0 FF FF 7F F0 FF  FF 7F 63 6C 30 35 01 80  ..........cl05..
0300: 29 10 4C 81 0B 01 0A 52  09 80 F0 FF FF 7F F0 FF  ).L....R........
0310: FF 7F 63 6C 30 35 45 09  80 F0 FF FF 7F F0 FF FF  ..cl05E.........
0320: 7F 63 6C 30 36 01 80 1C  11 80 2B 4C 81 0B 01 19  .cl06.....+L....
0330: 80 23 52 09 80 F0 FF FF  7F F0 FF FF 7F 63 6C 30  .#R..........cl0
0340: 36 45 09 80 F0 FF FF 7F  F0 FF FF 7F 63 6C 30 37  6E..........cl07
0350: 01 80 79 00 4C 81 0B 01  F0 FF FF 7F 1C 10 80 5B  ..y.L..........[
0360: 1A 80 4C 81 0B 01 4C 81  0B 01 74 6C 61 30 2B 4C  ..L...L...tla0+L
0370: 81 0B 01 1B 80 23 2B 4C  81 0B 01 1C 80 23 1A 01  .....#+L.....#..
0380: 15 1C 11 80 27 10 18 81  0B 01 04 52 09 80 F0 FF  ....'......R....
0390: FF 7F F0 FF FF 7F 63 6C  30 37 7C 01 4B 81 0B 01  ......cl07|.K...
03A0: 7B 4B 81 0B 01 7B 4C 81  0B 01 6B 69 64 6C 30 4B  {K...{L...kidl0K
03B0: 81 0B 01 6B 69 64 6C 30  4C 81 0B 01 34 0E 80 77  ...kidl0L...4..w
03C0: 0F 80 08 80 1C 10 80 2D  F8 FF FF 7F F8 FF FF 7F  .......-........
03D0: 31 6F 66 66 2D F8 FF FF  7F F8 FF FF 7F 32 6F 66  1off-........2of
03E0: 66 2D F8 FF FF 7F F8 FF  FF 7F 33 6F 66 66 2D F8  f-........3off-.
03F0: FF FF 7F F8 FF FF 7F 34  6F 66 66 2D F8 FF FF 7F  .......4off-....
0400: F8 FF FF 7F 35 6F 66 66  27 10 4B 81 0B 01 04 27  ....5off'.K....'
0410: 10 4C 81 0B 01 04 27 10  4D 81 0B 01 02 27 10 F0  .L....'.M....'..
0420: FF FF 7F 2B 27 10 4B 81  0B 01 0B 27 10 4C 81 0B  ...+'.K....'.L..
0430: 01 0B 27 10 4D 81 0B 01  09 94 01 4B 81 0B 01 94  ..'.M......K....
0440: 01 4C 81 0B 01 5C 00 1D  80 5C 01 1D 80 5C 02 1D  .L...\...\...\..
0450: 80 5C 03 1D 80 9A 1C 11  80 27 10 4C 81 0B 01 0C  .\.......'.L....
0460: 45 09 80 F0 FF FF 7F F0  FF FF 7F 63 6C 31 30 01  E..........cl10.
0470: 80 1A E0 14 2B 4B 81 0B  01 1E 80 23 2A 10 4C 81  ....+K.....#*.L.
0480: 0B 01 52 09 80 F0 FF FF  7F F0 FF FF 7F 63 6C 31  ..R..........cl1
0490: 30 45 09 80 F0 FF FF 7F  F0 FF FF 7F 63 6C 31 31  0E..........cl11
04A0: 01 80 2B 4C 81 0B 01 1F  80 23 4A 4B 81 0B 01 4C  ..+L.....#JK...L
04B0: 81 0B 01 2B 4B 81 0B 01  20 80 23 81 01 4C 81 0B  ...+K... .#..L..
04C0: 01 5B 21 80 4C 81 0B 01  4C 81 0B 01 63 6F 6E 31  .[!.L...L...con1
04D0: 1C 11 80 52 09 80 F0 FF  FF 7F F0 FF FF 7F 63 6C  ...R..........cl
04E0: 31 31 45 09 80 F0 FF FF  7F F0 FF FF 7F 63 6C 31  11E..........cl1
04F0: 32 01 80 2B 4C 81 0B 01  22 80 23 2B 4C 81 0B 01  2..+L...".#+L...
0500: 23 80 23 52 09 80 F0 FF  FF 7F F0 FF FF 7F 63 6C  #.#R..........cl
0510: 31 32 27 10 49 81 0B 01  04 2B 4C 81 0B 01 24 80  12'.I....+L...$.
0520: 23 2A 10 49 81 0B 01 4B  4C 81 0B 01 25 80 1C 10  #*.I...KL...%...
0530: 80 52 09 80 F0 FF FF 7F  F0 FF FF 7F 63 6C 33 35  .R..........cl35
0540: 45 09 80 F0 FF FF 7F F0  FF FF 7F 63 6C 31 33 01  E..........cl13.
0550: 80 1A E0 14 5B 1A 80 4C  81 0B 01 4C 81 0B 01 74  ....[..L...L...t
0560: 68 62 30 2B 4C 81 0B 01  26 80 23 7B 4B 81 0B 01  hb0+L...&.#{K...
0570: 55 09 80 F0 FF FF 7F F0  FF FF 7F 63 6C 31 33 2B  U..........cl13+
0580: 4B 81 0B 01 27 80 23 5B  28 80 4B 81 0B 01 4B 81  K...'.#[(.K...K.
0590: 0B 01 74 6C 61 30 45 09  80 F0 FF FF 7F F0 FF FF  ..tla0E.........
05A0: 7F 63 6C 31 34 01 80 2B  4B 81 0B 01 29 80 23 5B  .cl14..+K...).#[
05B0: 28 80 4B 81 0B 01 4B 81  0B 01 74 61 74 68 1C 10  (.K...K...tath..
05C0: 80 2B 4B 81 0B 01 2A 80  23 79 00 4C 81 0B 01 4B  .+K...*.#y.L...K
05D0: 81 0B 01 52 09 80 F0 FF  FF 7F F0 FF FF 7F 63 6C  ...R..........cl
05E0: 31 34 45 09 80 F0 FF FF  7F F0 FF FF 7F 63 6C 31  14E..........cl1
05F0: 35 01 80 5B 1A 80 4C 81  0B 01 4C 81 0B 01 74 68  5..[..L...L...th
0600: 62 31 1C 10 80 2B 4C 81  0B 01 2B 80 23 52 09 80  b1...+L...+.#R..
0610: F0 FF FF 7F F0 FF FF 7F  63 6C 31 35 45 09 80 F0  ........cl15E...
0620: FF FF 7F F0 FF FF 7F 63  6C 31 36 01 80 4B 4C 81  .......cl16..KL.
0630: 0B 01 2C 80 1C 10 80 2B  4C 81 0B 01 2D 80 23 2B  ..,....+L...-.#+
0640: 4C 81 0B 01 2E 80 23 5B  28 80 4B 81 0B 01 4B 81  L.....#[(.K...K.
0650: 0B 01 74 68 6B 31 52 09  80 F0 FF FF 7F F0 FF FF  ..thk1R.........
0660: 7F 63 6C 31 36 45 09 80  F0 FF FF 7F F0 FF FF 7F  .cl16E..........
0670: 63 6C 31 37 01 80 2B 4B  81 0B 01 2F 80 23 53 4B  cl17..+K.../.#SK
0680: 81 0B 01 4B 81 0B 01 74  68 6B 31 27 10 49 81 0B  ...K...thk1'.I..
0690: 01 03 2B 4B 81 0B 01 30  80 23 4B 4C 81 0B 01 25  ..+K...0.#KL...%
06A0: 80 1C 10 80 27 10 4A 81  0B 01 02 2B 4C 81 0B 01  ....'.J....+L...
06B0: 31 80 23 2A 10 49 81 0B  01 53 4B 81 0B 01 4B 81  1.#*.I...SK...K.
06C0: 0B 01 6B 74 6E 31 52 09  80 F0 FF FF 7F F0 FF FF  ..ktn1R.........
06D0: 7F 63 6C 31 37 45 09 80  F0 FF FF 7F F0 FF FF 7F  .cl17E..........
06E0: 63 6C 35 36 01 80 5B 28  80 4B 81 0B 01 4B 81 0B  cl56..[(.K...K..
06F0: 01 74 6C 62 30 2B 4B 81  0B 01 32 80 23 5B 28 80  .tlb0+K...2.#[(.
0700: 4B 81 0B 01 4B 81 0B 01  74 6C 62 31 52 09 80 F0  K...K...tlb1R...
0710: FF FF 7F F0 FF FF 7F 63  6C 35 36 45 09 80 F0 FF  .......cl56E....
0720: FF 7F F0 FF FF 7F 63 6C  31 38 01 80 5B 1A 80 4C  ......cl18..[..L
0730: 81 0B 01 4C 81 0B 01 68  62 74 61 2B 4C 81 0B 01  ...L...hbta+L...
0740: 33 80 23 2B 4C 81 0B 01  34 80 23 5B 1A 80 4C 81  3.#+L...4.#[..L.
0750: 0B 01 4C 81 0B 01 74 6C  61 31 5B 18 80 4B 81 0B  ..L...tla1[..K..
0760: 01 4B 81 0B 01 74 6C 63  30 1C 35 80 52 09 80 F0  .K...tlc0.5.R...
0770: FF FF 7F F0 FF FF 7F 63  6C 31 38 45 09 80 F0 FF  .......cl18E....
0780: FF 7F F0 FF FF 7F 63 6C  31 39 01 80 2B 4B 81 0B  ......cl19..+K..
0790: 01 36 80 23 52 09 80 F0  FF FF 7F F0 FF FF 7F 63  .6.#R..........c
07A0: 6C 31 39 45 09 80 F0 FF  FF 7F F0 FF FF 7F 63 6C  l19E..........cl
07B0: 32 30 01 80 5B 18 80 4B  81 0B 01 4B 81 0B 01 74  20..[..K...K...t
07C0: 6C 63 31 5B 1A 80 4C 81  0B 01 4C 81 0B 01 74 68  lc1[..L...L...th
07D0: 62 30 2B 4C 81 0B 01 37  80 23 52 09 80 F0 FF FF  b0+L...7.#R.....
07E0: 7F F0 FF FF 7F 63 6C 32  30 45 09 80 F0 FF FF 7F  .....cl20E......
07F0: F0 FF FF 7F 63 6C 32 32  01 80 79 00 F0 FF FF 7F  ....cl22..y.....
0800: 4D 81 0B 01 79 00 4B 81  0B 01 4D 81 0B 01 1C 38  M...y.K...M....8
0810: 80 52 09 80 F0 FF FF 7F  F0 FF FF 7F 63 6C 32 32  .R..........cl22
0820: 45 09 80 F0 FF FF 7F F0  FF FF 7F 63 6C 32 31 01  E..........cl21.
0830: 80 7B F0 FF FF 7F 7B 4B  81 0B 01 2B 4C 81 0B 01  .{....{K...+L...
0840: 39 80 23 2B 4C 81 0B 01  3A 80 23 52 09 80 F0 FF  9.#+L...:.#R....
0850: FF 7F F0 FF FF 7F 63 6C  32 31 45 09 80 F0 FF FF  ......cl21E.....
0860: 7F F0 FF FF 7F 63 6C 32  33 01 80 5B 1A 80 4C 81  .....cl23..[..L.
0870: 0B 01 4C 81 0B 01 68 62  74 62 2B 4C 81 0B 01 3B  ..L...hbtb+L...;
0880: 80 23 2B 4C 81 0B 01 3C  80 23 52 09 80 F0 FF FF  .#+L...<.#R.....
0890: 7F F0 FF FF 7F 63 6C 32  33 45 09 80 F0 FF FF 7F  .....cl23E......
08A0: F0 FF FF 7F 63 6C 32 34  01 80 5B 1A 80 4C 81 0B  ....cl24..[..L..
08B0: 01 4C 81 0B 01 74 62 61  30 2B 4C 81 0B 01 3D 80  .L...tba0+L...=.
08C0: 23 5B 1A 80 4C 81 0B 01  4C 81 0B 01 74 61 68 62  #[..L...L...tahb
08D0: 1C 10 80 2B 4C 81 0B 01  3E 80 23 52 09 80 F0 FF  ...+L...>.#R....
08E0: FF 7F F0 FF FF 7F 63 6C  32 34 45 09 80 F0 FF FF  ......cl24E.....
08F0: 7F F0 FF FF 7F 63 6C 32  35 01 80 5B 18 80 4B 81  .....cl25..[..K.
0900: 0B 01 4B 81 0B 01 6F 64  6F 30 2B 4B 81 0B 01 3F  ..K...odo0+K...?
0910: 80 23 52 09 80 F0 FF FF  7F F0 FF FF 7F 63 6C 32  .#R..........cl2
0920: 35 45 09 80 F0 FF FF 7F  F0 FF FF 7F 63 6C 32 36  5E..........cl26
0930: 01 80 5B 18 80 4B 81 0B  01 4B 81 0B 01 6F 64 74  ..[..K...K...odt
0940: 63 2B 4B 81 0B 01 40 80  23 52 09 80 F0 FF FF 7F  c+K...@.#R......
0950: F0 FF FF 7F 63 6C 32 36  45 09 80 F0 FF FF 7F F0  ....cl26E.......
0960: FF FF 7F 63 6C 32 37 01  80 5B 1A 80 4C 81 0B 01  ...cl27..[..L...
0970: 4C 81 0B 01 74 68 62 31  2B 4C 81 0B 01 41 80 23  L...thb1+L...A.#
0980: 53 4C 81 0B 01 4C 81 0B  01 74 68 62 31 5B 18 80  SL...L...thb1[..
0990: 4B 81 0B 01 4B 81 0B 01  74 6C 63 31 52 09 80 F0  K...K...tlc1R...
09A0: FF FF 7F F0 FF FF 7F 63  6C 32 37 45 09 80 F0 FF  .......cl27E....
09B0: FF 7F F0 FF FF 7F 63 6C  32 39 01 80 5B 1A 80 4C  ......cl29..[..L
09C0: 81 0B 01 4C 81 0B 01 74  68 61 30 2B 4C 81 0B 01  ...L...tha0+L...
09D0: 42 80 23 2B 4C 81 0B 01  43 80 23 52 09 80 F0 FF  B.#+L...C.#R....
09E0: FF 7F F0 FF FF 7F 63 6C  32 39 45 09 80 F0 FF FF  ......cl29E.....
09F0: 7F F0 FF FF 7F 63 6C 33  30 01 80 5B 1A 80 4C 81  .....cl30..[..L.
0A00: 0B 01 4C 81 0B 01 68 61  74 61 2B 4C 81 0B 01 44  ..L...hata+L...D
0A10: 80 23 1A 01 15 1C 11 80  52 09 80 F0 FF FF 7F F0  .#......R.......
0A20: FF FF 7F 63 6C 33 30 34  45 80 77 0F 80 02 80 1C  ...cl304E.w.....
0A30: 10 80 27 10 4E 81 0B 01  04 92 01 4E 81 0B 01 27  ..'.N......N...'
0A40: 10 4E 81 0B 01 09 80 4E  81 0B 01 1C 10 80 81 00  .N.....N........
0A50: 4E 81 0B 01 5B 46 80 4E  81 0B 01 4E 81 0B 01 63  N...[F.N...N...c
0A60: 72 79 30 45 47 80 F0 FF  FF 7F F0 FF FF 7F 63 33  ry0EG.........c3
0A70: 30 38 01 80 45 48 80 F0  FF FF 7F F0 FF FF 7F 65  08..EH.........e
0A80: 66 6F 6E 01 80 2B 4C 81  0B 01 49 80 23 2B 4B 81  fon..+L...I.#+K.
0A90: 0B 01 4A 80 23 2D F8 FF  FF 7F F8 FF FF 7F 6B 61  ..J.#-........ka
0AA0: 6B 73 1C 4B 80 1A 01 15  1C 11 80 2D F8 FF FF 7F  ks.K.......-....
0AB0: F8 FF FF 7F 6B 61 6B 69  52 47 80 F0 FF FF 7F F0  ....kakiRG......
0AC0: FF FF 7F 63 33 30 38 34  0E 80 77 0F 80 01 80 1C  ...c3084..w.....
0AD0: 10 80 27 10 4B 81 0B 01  04 27 10 4C 81 0B 01 04  ..'.K....'.L....
0AE0: 27 10 4D 81 0B 01 02 27  10 F0 FF FF 7F 2B 27 10  '.M....'.....+'.
0AF0: 4B 81 0B 01 0B 27 10 4C  81 0B 01 0D 80 F0 FF FF  K....'.L........
0B00: 7F 80 4B 81 0B 01 80 4C  81 0B 01 4A 4B 81 0B 01  ..K....L...JK...
0B10: 4C 81 0B 01 45 09 80 F0  FF FF 7F F0 FF FF 7F 63  L...E..........c
0B20: 6C 33 31 01 80 1A 22 15  1A E0 14 5B 1A 80 4C 81  l31..."....[..L.
0B30: 0B 01 4C 81 0B 01 74 6C  62 30 2B 4C 81 0B 01 4C  ..L...tlb0+L...L
0B40: 80 23 52 09 80 F0 FF FF  7F F0 FF FF 7F 63 6C 33  .#R..........cl3
0B50: 31 45 09 80 F0 FF FF 7F  F0 FF FF 7F 63 6C 33 32  1E..........cl32
0B60: 01 80 2B 4C 81 0B 01 4D  80 23 1C 4B 80 1A 01 15  ..+L...M.#.K....
0B70: 1C 11 80 52 09 80 F0 FF  FF 7F F0 FF FF 7F 63 6C  ...R..........cl
0B80: 33 32 34 4E 80 77 0F 80  02 80 1C 10 80 45 09 80  324N.w.......E..
0B90: F0 FF FF 7F F0 FF FF 7F  63 6C 33 36 01 80 1A E0  ........cl36....
0BA0: 14 2B 4C 81 0B 01 4F 80  23 2B 4C 81 0B 01 50 80  .+L...O.#+L...P.
0BB0: 23 1C 4B 80 1A 01 15 1C  11 80 52 09 80 F0 FF FF  #.K.......R.....
0BC0: 7F F0 FF FF 7F 63 6C 33  36 34 0E 80 77 0F 80 08  .....cl364..w...
0BD0: 80 1C 10 80 2D F8 FF FF  7F F8 FF FF 7F 31 6F 66  ....-........1of
0BE0: 66 2D F8 FF FF 7F F8 FF  FF 7F 32 6F 66 66 2D F8  f-........2off-.
0BF0: FF FF 7F F8 FF FF 7F 33  6F 66 66 2D F8 FF FF 7F  .......3off-....
0C00: F8 FF FF 7F 34 6F 66 66  2D F8 FF FF 7F F8 FF FF  ....4off-.......
0C10: 7F 35 6F 66 66 27 10 4B  81 0B 01 04 27 10 4C 81  .5off'.K....'.L.
0C20: 0B 01 04 27 10 4D 81 0B  01 02 27 10 F0 FF FF 7F  ...'.M....'.....
0C30: 2B 27 10 4B 81 0B 01 0B  27 10 4C 81 0B 01 0D 80  +'.K....'.L.....
0C40: F0 FF FF 7F 80 4B 81 0B  01 80 4C 81 0B 01 4A 4B  .....K....L...JK
0C50: 81 0B 01 4C 81 0B 01 6B  69 64 6C 30 4C 81 0B 01  ...L...kidl0L...
0C60: 45 09 80 F0 FF FF 7F F0  FF FF 7F 63 6C 33 37 01  E..........cl37.
0C70: 80 1A E0 14 5B 18 80 4B  81 0B 01 4B 81 0B 01 74  ....[..K...K...t
0C80: 6C 63 30 2B 4B 81 0B 01  51 80 23 2B 4B 81 0B 01  lc0+K...Q.#+K...
0C90: 52 80 23 52 09 80 F0 FF  FF 7F F0 FF FF 7F 63 6C  R.#R..........cl
0CA0: 33 37 45 09 80 F0 FF FF  7F F0 FF FF 7F 63 6C 35  37E..........cl5
0CB0: 37 01 80 5B 18 80 4B 81  0B 01 4B 81 0B 01 74 63  7..[..K...K...tc
0CC0: 6F 64 2B 4B 81 0B 01 53  80 23 2B 4B 81 0B 01 54  od+K...S.#+K...T
0CD0: 80 23 52 09 80 F0 FF FF  7F F0 FF FF 7F 63 6C 35  .#R..........cl5
0CE0: 37 45 09 80 F0 FF FF 7F  F0 FF FF 7F 63 6C 33 38  7E..........cl38
0CF0: 01 80 5B 1A 80 4C 81 0B  01 4C 81 0B 01 74 68 61  ..[..L...L...tha
0D00: 30 1C 55 80 2B 4C 81 0B  01 56 80 23 5B 1A 80 4C  0.U.+L...V.#[..L
0D10: 81 0B 01 4C 81 0B 01 74  68 61 31 2B 4C 81 0B 01  ...L...tha1+L...
0D20: 57 80 23 53 4C 81 0B 01  4C 81 0B 01 74 68 61 31  W.#SL...L...tha1
0D30: 52 09 80 F0 FF FF 7F F0  FF FF 7F 63 6C 33 38 45  R..........cl38E
0D40: 09 80 F0 FF FF 7F F0 FF  FF 7F 63 6C 33 39 01 80  ..........cl39..
0D50: 27 10 4C 81 0B 01 0E 2B  4C 81 0B 01 58 80 23 2A  '.L....+L...X.#*
0D60: 10 4C 81 0B 01 1C 10 80  52 09 80 F0 FF FF 7F F0  .L......R.......
0D70: FF FF 7F 63 6C 33 39 45  09 80 F0 FF FF 7F F0 FF  ...cl39E........
0D80: FF 7F 63 6C 34 30 01 80  5B 1A 80 4C 81 0B 01 4C  ..cl40..[..L...L
0D90: 81 0B 01 74 68 62 30 2B  4C 81 0B 01 59 80 23 2B  ...thb0+L...Y.#+
0DA0: 4C 81 0B 01 5A 80 23 5B  1A 80 4C 81 0B 01 4C 81  L...Z.#[..L...L.
0DB0: 0B 01 74 68 62 31 1C 10  80 52 09 80 F0 FF FF 7F  ..thb1...R......
0DC0: F0 FF FF 7F 63 6C 34 30  45 09 80 F0 FF FF 7F F0  ....cl40E.......
0DD0: FF FF 7F 63 6C 34 31 01  80 4B 4C 81 0B 01 5B 80  ...cl41..KL...[.
0DE0: 1C 11 80 27 10 F0 FF FF  7F 2C 27 10 4B 81 0B 01  ...'.....,'.K...
0DF0: 0C 5B 1A 80 4C 81 0B 01  4C 81 0B 01 74 6C 62 30  .[..L...L...tlb0
0E00: 2B 4C 81 0B 01 5C 80 23  52 09 80 F0 FF FF 7F F0  +L...\.#R.......
0E10: FF FF 7F 63 6C 34 31 45  09 80 F0 FF FF 7F F0 FF  ...cl41E........
0E20: FF 7F 63 6C 34 32 01 80  2B 4C 81 0B 01 5D 80 23  ..cl42..+L...].#
0E30: 2B 4C 81 0B 01 5E 80 23  27 10 49 81 0B 01 06 52  +L...^.#'.I....R
0E40: 09 80 F0 FF FF 7F F0 FF  FF 7F 63 6C 34 32 45 09  ..........cl42E.
0E50: 80 F0 FF FF 7F F0 FF FF  7F 63 6C 34 33 01 80 5B  .........cl43..[
0E60: 18 80 4B 81 0B 01 4B 81  0B 01 69 61 69 30 45 09  ..K...K...iai0E.
0E70: 80 F0 FF FF 7F F0 FF FF  7F 63 30 34 35 01 80 2B  .........c045..+
0E80: 4B 81 0B 01 5F 80 23 2B  4B 81 0B 01 60 80 23 52  K..._.#+K...`.#R
0E90: 09 80 F0 FF FF 7F F0 FF  FF 7F 63 6C 34 33 45 09  ..........cl43E.
0EA0: 80 F0 FF FF 7F F0 FF FF  7F 63 6C 37 30 01 80 2B  .........cl70..+
0EB0: 4B 81 0B 01 61 80 23 52  09 80 F0 FF FF 7F F0 FF  K...a.#R........
0EC0: FF 7F 63 6C 37 30 45 09  80 F0 FF FF 7F F0 FF FF  ..cl70E.........
0ED0: 7F 63 6C 37 31 01 80 2B  4C 81 0B 01 62 80 23 52  .cl71..+L...b.#R
0EE0: 09 80 F0 FF FF 7F F0 FF  FF 7F 63 6C 37 31 45 09  ..........cl71E.
0EF0: 80 F0 FF FF 7F F0 FF FF  7F 63 6C 34 35 01 80 5B  .........cl45..[
0F00: 1A 80 4C 81 0B 01 4C 81  0B 01 74 6C 61 30 2B 4C  ..L...L...tla0+L
0F10: 81 0B 01 63 80 23 5B 1A  80 4C 81 0B 01 4C 81 0B  ...c.#[..L...L..
0F20: 01 74 6C 61 31 45 09 80  F0 FF FF 7F F0 FF FF 7F  .tla1E..........
0F30: 73 31 30 33 01 80 5B 18  80 4B 81 0B 01 4B 81 0B  s103..[..K...K..
0F40: 01 69 61 69 31 2B 4B 81  0B 01 64 80 23 45 09 80  .iai1+K...d.#E..
0F50: F0 FF FF 7F F0 FF FF 7F  6B 31 30 33 01 80 52 09  ........k103..R.
0F60: 80 F0 FF FF 7F F0 FF FF  7F 63 6C 34 35 45 09 80  .........cl45E..
0F70: F0 FF FF 7F F0 FF FF 7F  63 6C 34 38 01 80 5B 65  ........cl48..[e
0F80: 80 4C 81 0B 01 4C 81 0B  01 74 6C 63 30 2B 4C 81  .L...L...tlc0+L.
0F90: 0B 01 66 80 23 9C 00 00  02 00 00 02 80 00 AB 0F  ..f.#...........
0FA0: 2B 4C 81 0B 01 67 80 23  01 BB 0F 2B 4C 81 0B 01  +L...g.#...+L...
0FB0: 67 80 23 2B 4C 81 0B 01  68 80 23 2B 4C 81 0B 01  g.#+L...h.#+L...
0FC0: 69 80 23 2B 4C 81 0B 01  6A 80 23 52 09 80 F0 FF  i.#+L...j.#R....
0FD0: FF 7F F0 FF FF 7F 63 6C  34 38 45 09 80 F0 FF FF  ......cl48E.....
0FE0: 7F F0 FF FF 7F 63 6C 34  39 01 80 5B 6B 80 4B 81  .....cl49..[k.K.
0FF0: 0B 01 4B 81 0B 01 74 6C  68 32 2B 4B 81 0B 01 6C  ..K...tlh2+K...l
1000: 80 23 52 09 80 F0 FF FF  7F F0 FF FF 7F 63 6C 34  .#R..........cl4
1010: 39 5B 1A 80 4C 81 0B 01  4C 81 0B 01 74 68 62 31  9[..L...L...thb1
1020: 52 09 80 F0 FF FF 7F F0  FF FF 7F 63 6C 35 32 45  R..........cl52E
1030: 09 80 F0 FF FF 7F F0 FF  FF 7F 63 6C 35 33 01 80  ..........cl53..
1040: 2B 4C 81 0B 01 6D 80 23  5B 6B 80 4B 81 0B 01 4B  +L...m.#[k.K...K
1050: 81 0B 01 74 6C 68 33 53  4C 81 0B 01 4C 81 0B 01  ...tlh3SL...L...
1060: 74 68 62 31 5B 1A 80 4C  81 0B 01 4C 81 0B 01 74  thb1[..L...L...t
1070: 6C 62 30 2B 4C 81 0B 01  6E 80 23 2B 4C 81 0B 01  lb0+L...n.#+L...
1080: 6F 80 23 2B 4B 81 0B 01  70 80 23 1A 01 15 1C 11  o.#+K...p.#.....
1090: 80 27 10 4C 81 0B 01 10  1C 10 80 52 09 80 F0 FF  .'.L.......R....
10A0: FF 7F F0 FF FF 7F 63 6C  35 33 45 09 80 F0 FF FF  ......cl53E.....
10B0: 7F F0 FF FF 7F 63 6C 35  34 01 80 1A E0 14 2B 4C  .....cl54.....+L
10C0: 81 0B 01 71 80 23 2A 10  4C 81 0B 01 27 10 49 81  ...q.#*.L...'.I.
10D0: 0B 01 05 52 09 80 F0 FF  FF 7F F0 FF FF 7F 63 6C  ...R..........cl
10E0: 35 34 45 09 80 F0 FF FF  7F F0 FF FF 7F 63 6C 35  54E..........cl5
10F0: 35 01 80 2B 4C 81 0B 01  72 80 23 2B 4C 81 0B 01  5..+L...r.#+L...
1100: 73 80 23 45 74 80 F0 FF  FF 7F F0 FF FF 7F 73 30  s.#Et.........s0
1110: 36 30 01 80 5D 01 80 75  80 1C 76 80 52 09 80 F0  60..]..u..v.R...
1120: FF FF 7F F0 FF FF 7F 63  6C 35 35 29 0F 44 81 0B  .......cl55).D..
1130: 01 01 34 0E 80 77 0F 80  08 80 1C 10 80 2D F8 FF  ..4..w.......-..
1140: FF 7F F8 FF FF 7F 31 6F  66 66 2D F8 FF FF 7F F8  ......1off-.....
1150: FF FF 7F 32 6F 66 66 2D  F8 FF FF 7F F8 FF FF 7F  ...2off-........
1160: 33 6F 66 66 2D F8 FF FF  7F F8 FF FF 7F 34 6F 66  3off-........4of
1170: 66 2D F8 FF FF 7F F8 FF  FF 7F 35 6F 66 66 27 10  f-........5off'.
1180: 4B 81 0B 01 04 27 10 4C  81 0B 01 04 27 10 F0 FF  K....'.L....'...
1190: FF 7F 2E 27 10 4B 81 0B  01 0E 27 10 4C 81 0B 01  ...'.K....'.L...
11A0: 11 80 F0 FF FF 7F 80 4B  81 0B 01 80 4C 81 0B 01  .......K....L...
11B0: 5B 21 80 4C 81 0B 01 4C  81 0B 01 7A 74 75 30 5B  [!.L...L...ztu0[
11C0: 77 80 4B 81 0B 01 4B 81  0B 01 72 65 69 32 53 4B  w.K...K...rei2SK
11D0: 81 0B 01 4B 81 0B 01 72  65 69 32 45 09 80 F0 FF  ...K...rei2E....
11E0: FF 7F F0 FF FF 7F 63 6C  35 38 01 80 1A 22 15 55  ......cl58...".U
11F0: 09 80 F0 FF FF 7F F0 FF  FF 7F 63 6C 35 38 45 09  ..........cl58E.
1200: 80 F0 FF FF 7F F0 FF FF  7F 63 6C 35 39 01 80 2B  .........cl59..+
1210: 4C 81 0B 01 78 80 23 2B  4C 81 0B 01 79 80 23 2B  L...x.#+L...y.#+
1220: 4C 81 0B 01 7A 80 52 09  80 F0 FF FF 7F F0 FF FF  L...z.R.........
1230: 7F 63 6C 35 39 45 09 80  F0 FF FF 7F F0 FF FF 7F  .cl59E..........
1240: 63 6C 36 30 01 80 5B 21  80 4C 81 0B 01 4C 81 0B  cl60..[!.L...L..
1250: 01 7A 74 75 31 1C 38 80  1A 01 15 1C 11 80 6C 4C  .ztu1.8.......lL
1260: 81 0B 01 01 80 02 80 53  4C 81 0B 01 4C 81 0B 01  .......SL...L...
1270: 7A 74 75 31 52 09 80 F0  FF FF 7F F0 FF FF 7F 63  ztu1R..........c
1280: 6C 36 30 1C 4B 80 5C 00  7B 80 5C 01 7B 80 5C 02  l60.K.\.{.\.{.\.
1290: 7B 80 5C 03 7B 80 9A 45  09 80 F0 FF FF 7F F0 FF  {.\.{..E........
12A0: FF 7F 63 6C 36 32 01 80  1A E0 14 79 00 F0 FF FF  ..cl62.....y....
12B0: 7F 4B 81 0B 01 2B 4B 81  0B 01 7C 80 23 55 09 80  .K...+K...|.#U..
12C0: F0 FF FF 7F F0 FF FF 7F  63 6C 36 32 45 09 80 F0  ........cl62E...
12D0: FF FF 7F F0 FF FF 7F 63  6C 36 33 01 80 2B 4B 81  .......cl63..+K.
12E0: 0B 01 7D 80 23 2B 4B 81  0B 01 7E 80 23 5B 77 80  ..}.#+K...~.#[w.
12F0: 4B 81 0B 01 4B 81 0B 01  72 65 69 33 2B 4B 81 0B  K...K...rei3+K..
1300: 01 7F 80 23 53 4B 81 0B  01 4B 81 0B 01 72 65 69  ...#SK...K...rei
1310: 33 45 09 80 F0 FF FF 7F  F0 FF FF 7F 34 30 30 31  3E..........4001
1320: 01 80 5B 18 80 4B 81 0B  01 4B 81 0B 01 68 6F 75  ..[..K...K...hou
1330: 30 52 09 80 F0 FF FF 7F  F0 FF FF 7F 63 6C 36 33  0R..........cl63
1340: 45 09 80 F0 FF FF 7F F0  FF FF 7F 63 6C 36 34 01  E..........cl64.
1350: 80 2B 4B 81 0B 01 80 80  23 52 09 80 F0 FF FF 7F  .+K.....#R......
1360: F0 FF FF 7F 63 6C 36 34  45 09 80 F0 FF FF 7F F0  ....cl64E.......
1370: FF FF 7F 63 6C 36 35 01  80 2B 4B 81 0B 01 81 80  ...cl65..+K.....
1380: 23 2B 4B 81 0B 01 82 80  23 45 09 80 F0 FF FF 7F  #+K.....#E......
1390: F0 FF FF 7F 73 32 30 33  01 80 1C 38 80 2B 4B 81  ....s203...8.+K.
13A0: 0B 01 7C 80 23 45 09 80  F0 FF FF 7F F0 FF FF 7F  ..|.#E..........
13B0: 6B 32 30 33 01 80 52 09  80 F0 FF FF 7F F0 FF FF  k203..R.........
13C0: 7F 63 6C 36 35 45 09 80  F0 FF FF 7F F0 FF FF 7F  .cl65E..........
13D0: 63 6C 36 36 01 80 5B 18  80 4B 81 0B 01 4B 81 0B  cl66..[..K...K..
13E0: 01 68 6F 75 31 53 4B 81  0B 01 4B 81 0B 01 68 6F  .hou1SK...K...ho
13F0: 75 31 2B 4B 81 0B 01 83  80 23 2B 4B 81 0B 01 84  u1+K.....#+K....
1400: 80 23 52 09 80 F0 FF FF  7F F0 FF FF 7F 63 6C 36  .#R..........cl6
1410: 36 45 09 80 F0 FF FF 7F  F0 FF FF 7F 63 6C 36 37  6E..........cl67
1420: 01 80 2B 4B 81 0B 01 85  80 23 2B 4B 81 0B 01 86  ..+K.....#+K....
1430: 80 23 27 10 4B 81 0B 01  0F 52 09 80 F0 FF FF 7F  .#'.K....R......
1440: F0 FF FF 7F 63 6C 36 37  45 09 80 F0 FF FF 7F F0  ....cl67E.......
1450: FF FF 7F 63 6C 36 38 01  80 1C 03 80 4A F0 FF FF  ...cl68.....J...
1460: 7F 4B 81 0B 01 1C 11 80  1A 01 15 1C 11 80 35 87  .K............5.
1470: 80 78 1C 10 80 AB 0A 5C  00 01 80 5C 01 01 80 5C  .x.....\...\...\
1480: 02 88 80 5C 03 89 80 9A  46 00 45 8A 80 F0 FF FF  ...\....F.E.....
1490: 7F F0 FF FF 7F 66 64 69  32 01 80 21 00 1B 45 8A  .....fdi2..!..E.
14A0: 80 F0 FF FF 7F F0 FF FF  7F 66 64 69 30 01 80 55  .........fdi0..U
14B0: 8A 80 F0 FF FF 7F F0 FF  FF 7F 66 64 69 30 1B 45  ..........fdi0.E
14C0: 8A 80 F0 FF FF 7F F0 FF  FF 7F 66 64 6F 30 01 80  ..........fdo0..
14D0: 55 8A 80 F0 FF FF 7F F0  FF FF 7F 66 64 6F 30 1B  U..........fdo0.
14E0: 45 8A 80 F0 FF FF 7F F0  FF FF 7F 66 64 69 31 01  E..........fdi1.
14F0: 80 55 8A 80 F0 FF FF 7F  F0 FF FF 7F 66 64 69 31  .U..........fdi1
1500: 1B 45 8A 80 F0 FF FF 7F  F0 FF FF 7F 66 64 6F 31  .E..........fdo1
1510: 01 80 55 8A 80 F0 FF FF  7F F0 FF FF 7F 66 64 6F  ..U..........fdo
1520: 31 1B 45 8B 80 F0 FF FF  7F F0 FF FF 7F 77 68 69  1.E..........whi
1530: 31 01 80 55 8B 80 F0 FF  FF 7F F0 FF FF 7F 77 68  1..U..........wh
1540: 69 31 1B 45 8B 80 F0 FF  FF 7F F0 FF FF 7F 77 68  i1.E..........wh
1550: 6F 31 01 80 55 8B 80 F0  FF FF 7F F0 FF FF 7F 77  o1..U..........w
1560: 68 6F 31 1B 45 8B 80 F0  FF FF 7F F0 FF FF 7F 77  ho1.E..........w
1570: 68 6F 32 01 80 55 8B 80  F0 FF FF 7F F0 FF FF 7F  ho2..U..........
1580: 77 68 6F 32 1B 45 8B 80  F0 FF FF 7F F0 FF FF 7F  who2.E..........
1590: 77 68 6F 33 01 80 55 8B  80 F0 FF FF 7F F0 FF FF  who3..U.........
15A0: 7F 77 68 6F 33 1B 62 02  80 F0 FF FF 7F F0 FF FF  .who3.b.........
15B0: 7F 6D 61 69 6E 01 80 1C  55 80 45 8A 80 F0 FF FF  .main...U.E.....
15C0: 7F F0 FF FF 7F 66 64 6F  31 01 80 55 8A 80 F0 FF  .....fdo1..U....
15D0: FF 7F F0 FF FF 7F 66 64  6F 31 1B 45 8A 80 F0 FF  ......fdo1.E....
15E0: FF 7F F0 FF FF 7F 66 64  69 31 01 80 62 08 80 F0  ......fdi1..b...
15F0: FF FF 7F F0 FF FF 7F 6D  61 69 6E 01 80 1C 11 80  .......main.....
1600: 55 8A 80 F0 FF FF 7F F0  FF FF 7F 66 64 69 31 1B  U..........fdi1.
1610: 45 8A 80 F0 FF FF 7F F0  FF FF 7F 62 6C 6F 6E 01  E..........blon.
1620: 80 45 8B 80 F0 FF FF 7F  F0 FF FF 7F 62 6C 6F 6E  .E..........blon
1630: 01 80 1B 45 8B 80 F0 FF  FF 7F F0 FF FF 7F 77 68  ...E..........wh
1640: 69 30 01 80 55 8B 80 F0  FF FF 7F F0 FF FF 7F 77  i0..U..........w
1650: 68 69 30 1B 45 8B 80 F0  FF FF 7F F0 FF FF 7F 77  hi0.E..........w
1660: 68 6F 30 01 80 55 8B 80  F0 FF FF 7F F0 FF FF 7F  ho0..U..........
1670: 77 68 6F 30 1B 45 8C 80  F0 FF FF 7F F0 FF FF 7F  who0.E..........
1680: 65 66 6F 6E 01 80 55 8C  80 F0 FF FF 7F F0 FF FF  efon..U.........
1690: 7F 65 66 6F 6E 1B 45 8A  80 F0 FF FF 7F F0 FF FF  .efon.E.........
16A0: 7F 66 64 69 73 01 80 1B  45 8A 80 F0 FF FF 7F F0  .fdis...E.......
16B0: FF FF 7F 66 64 6F 73 01  80 55 8A 80 F0 FF FF 7F  ...fdos..U......
16C0: F0 FF FF 7F 66 64 6F 73  1B 45 8A 80 F0 FF FF 7F  ....fdos.E......
16D0: F0 FF FF 7F 66 64 69 66  01 80 1B 45 8A 80 F0 FF  ....fdif...E....
16E0: FF 7F F0 FF FF 7F 66 64  6F 66 01 80 55 8A 80 F0  ......fdof..U...
16F0: FF FF 7F F0 FF FF 7F 66  64 6F 66 1B 45 8A 80 F0  .......fdof.E...
1700: FF FF 7F F0 FF FF 7F 66  64 69 70 01 80 1B 45 8A  .......fdip...E.
1710: 80 F0 FF FF 7F F0 FF FF  7F 66 64 6F 70 01 80 55  .........fdop..U
1720: 8A 80 F0 FF FF 7F F0 FF  FF 7F 66 64 6F 70 1B     ..........fdop. 
```

#### Opcodes

```
  0: 0x0154 [0x42] SET_CLI_EVENT_CANCEL_DATA()
  1: 0x0155 [0x1A] CALL_SUBROUTINE(address=0x1501)
  2: 0x0158 [0x46] CAMERA_CONTROL: Disable user control
  3: 0x015A [0x38] SET_CLIENT_EVENT_MODE(mode=19*)
  4: 0x015D [0xAB] EventEntity->UnknownFlag = 1 // Enable unknown flag
  5: 0x015F [0x79] LocalPlayer looks at LocalPlayer (Basic look)
  6: 0x0169 [0x27] REQ_SET(priority=0x10, entity_id=Tenzen (ID: 17531211/0x010B814B), tag_num=0x04)
  7: 0x0170 [0x27] REQ_SET(priority=0x10, entity_id=Nag'molada (ID: 17531212/0x010B814C), tag_num=0x02)
  8: 0x0177 [0x92] Tenzen (ID: 17531211/0x010B814B)->Render.Flags3 ^= 0x01
  9: 0x017D [0x92] Nag'molada (ID: 17531212/0x010B814C)->Render.Flags3 ^= 0x01
 10: 0x0183 [0x27] REQ_SET(priority=0x10, entity_id=LocalPlayer, tag_num=0x2A)
 11: 0x018A [0x27] REQ_SET(priority=0x10, entity_id=Tenzen (ID: 17531211/0x010B814B), tag_num=0x09)
 12: 0x0191 [0x27] REQ_SET(priority=0x10, entity_id=Nag'molada (ID: 17531212/0x010B814C), tag_num=0x09)
 13: 0x0198 [0x94] Tenzen (ID: 17531211/0x010B814B)->Render.Flags3 ^= 0x01
 14: 0x019E [0x94] Nag'molada (ID: 17531212/0x010B814C)->Render.Flags3 ^= 0x01
 15: 0x01A4 [0x1C] WAIT(30* ticks)
 16: 0x01A7 [0x45] LOAD_SCHEDULED_TASK: Load scheduler "cl00" with entities [LocalPlayer, LocalPlayer], work=[154*, 0*]
 17: 0x01B8 [0x1A] CALL_SUBROUTINE(address=0x14E0)
 18: 0x01BB [0x27] REQ_SET(priority=0x10, entity_id=Cermet Door (ID: 17531160/0x010B8118), tag_num=0x03)
 19: 0x01C2 [0x1C] WAIT(30* ticks)
 20: 0x01C5 [0x2B] Tenzen (ID: 17531211/0x010B814B) [7413*]:
    → "<Player>!"
 21: 0x01CC [0x23] WAIT_FOR_DIALOG_INTERACTION
 22: 0x01CD [0x52] END_LOAD_SCHEDULER: End scheduler "cl00" with entities [LocalPlayer, LocalPlayer], work=154*
 23: 0x01DC [0x45] LOAD_SCHEDULED_TASK: Load scheduler "cl01" with entities [LocalPlayer, LocalPlayer], work=[154*, 0*]
 24: 0x01ED [0x4A] LocalPlayer looks at Tenzen (ID: 17531211/0x010B814B)
 25: 0x01F6 [0x2B] Tenzen (ID: 17531211/0x010B814B) [7414*]:
    → "Where did you get that key?"
 26: 0x01FD [0x23] WAIT_FOR_DIALOG_INTERACTION
 27: 0x01FE [0x27] REQ_SET(priority=0x10, entity_id=Tenzen (ID: 17531211/0x010B814B), tag_num=0x0A)
 28: 0x0205 [0x52] END_LOAD_SCHEDULER: End scheduler "cl01" with entities [LocalPlayer, LocalPlayer], work=154*
 29: 0x0214 [0x45] LOAD_SCHEDULED_TASK: Load scheduler "cl02" with entities [LocalPlayer, LocalPlayer], work=[154*, 0*]
 30: 0x0225 [0x1C] WAIT(90* ticks)
 31: 0x0228 [0x1A] CALL_SUBROUTINE(address=0x14BF)
 32: 0x022B [0x1C] WAIT(30* ticks)
 33: 0x022E [0x2A] GET_REQ_LEVEL(level=16, entity_id=Tenzen (ID: 17531211/0x010B814B))
 34: 0x0234 [0x52] END_LOAD_SCHEDULER: End scheduler "cl02" with entities [LocalPlayer, LocalPlayer], work=154*
 35: 0x0243 [0x45] LOAD_SCHEDULED_TASK: Load scheduler "cl03" with entities [LocalPlayer, LocalPlayer], work=[154*, 0*]
 36: 0x0254 [0x1A] CALL_SUBROUTINE(address=0x14E0)
 37: 0x0257 [0x1C] WAIT(15* ticks)
 38: 0x025A [0x2B] Tenzen (ID: 17531211/0x010B814B) [7415*]:
    → "The captain of the Ducal Guard!?"
 39: 0x0261 [0x23] WAIT_FOR_DIALOG_INTERACTION
 40: 0x0262 [0x5C] MUSIC_CONTROL: Set Idle (Day) music to song 231*
 41: 0x0266 [0x5C] MUSIC_CONTROL: Set Idle (Night) music to song 231*
 42: 0x026A [0x5C] MUSIC_CONTROL: Set Combat (Solo) music to song 231*
 43: 0x026E [0x5C] MUSIC_CONTROL: Set Combat (Party) music to song 231*
 44: 0x0272 [0x9A] WAIT_MUSIC_SERVER()
 45: 0x0273 [0x2B] ??? (ID: 17531210/0x010B814A) [7416*]:
    → "Well, well, well..."
 46: 0x027A [0x23] WAIT_FOR_DIALOG_INTERACTION
 47: 0x027B [0x52] END_LOAD_SCHEDULER: End scheduler "cl03" with entities [LocalPlayer, LocalPlayer], work=154*
 48: 0x028A [0x45] LOAD_SCHEDULED_TASK: Load scheduler "cl04" with entities [LocalPlayer, LocalPlayer], work=[154*, 0*]
 49: 0x029B [0x4A] Tenzen (ID: 17531211/0x010B814B) looks at Nag'molada (ID: 17531212/0x010B814C)
 50: 0x02A4 [0x7C] Tenzen (ID: 17531211/0x010B814B)->Render.Flags2 |= 0x00
 51: 0x02AA [0x2B] Tenzen (ID: 17531211/0x010B814B) [7417*]:
    → "!?"
 52: 0x02B1 [0x4A] LocalPlayer looks at Nag'molada (ID: 17531212/0x010B814C)
 53: 0x02BA [0x6F] WAIT_FRAME_DELAY: Yield until WaitTime reaches zero
 54: 0x02BB [0x76] CHECK_ENTITY_RENDER_FLAGS: Wait until Tenzen (ID: 17531211/0x010B814B) Render.Flags0 and Render.Flags3 conditions are met
 55: 0x02C0 [0x45] LOAD_SCHEDULED_TASK: Load scheduler "c045" with entities [LocalPlayer, LocalPlayer], work=[154*, 0*]
 56: 0x02D1 [0x5B] LOAD_EXT_SCHEDULER: Load scheduler "iai0" with entities [Tenzen (ID: 17531211/0x010B814B), Tenzen (ID: 17531211/0x010B814B)], work=427*
 57: 0x02E0 [0x55] WAIT_LOAD_SCHEDULER: Wait for scheduler "cl04" with entities [LocalPlayer, LocalPlayer], work=154*
 58: 0x02EF [0x45] LOAD_SCHEDULED_TASK: Load scheduler "cl05" with entities [LocalPlayer, LocalPlayer], work=[154*, 0*]
 59: 0x0300 [0x29] REQ_SET_WAIT(priority=0x10, entity_id=Nag'molada (ID: 17531212/0x010B814C), tag_num=0x0A)
 60: 0x0307 [0x52] END_LOAD_SCHEDULER: End scheduler "cl05" with entities [LocalPlayer, LocalPlayer], work=154*
 61: 0x0316 [0x45] LOAD_SCHEDULED_TASK: Load scheduler "cl06" with entities [LocalPlayer, LocalPlayer], work=[154*, 0*]
 62: 0x0327 [0x1C] WAIT(30* ticks)
 63: 0x032A [0x2B] Nag'molada (ID: 17531212/0x010B814C) [7418*]:
    → "Excellent timing. Great minds think alike, wouldn't you say, <Player> and Tenzen?"
 64: 0x0331 [0x23] WAIT_FOR_DIALOG_INTERACTION
 65: 0x0332 [0x52] END_LOAD_SCHEDULER: End scheduler "cl06" with entities [LocalPlayer, LocalPlayer], work=154*
 66: 0x0341 [0x45] LOAD_SCHEDULED_TASK: Load scheduler "cl07" with entities [LocalPlayer, LocalPlayer], work=[154*, 0*]
 67: 0x0352 [0x79] Nag'molada (ID: 17531212/0x010B814C) looks at LocalPlayer (Basic look)
 68: 0x035C [0x1C] WAIT(15* ticks)
 69: 0x035F [0x5B] LOAD_EXT_SCHEDULER: Load scheduler "tla0" with entities [Nag'molada (ID: 17531212/0x010B814C), Nag'molada (ID: 17531212/0x010B814C)], work=465*
 70: 0x036E [0x2B] Nag'molada (ID: 17531212/0x010B814C) [7419*]:
    → "I never thought it would be you two who helped me."
 71: 0x0375 [0x23] WAIT_FOR_DIALOG_INTERACTION
 72: 0x0376 [0x2B] Nag'molada (ID: 17531212/0x010B814C) [7420*]:
    → "I, too, have some very important business on the other side of that door."
 73: 0x037D [0x23] WAIT_FOR_DIALOG_INTERACTION
 74: 0x037E [0x1A] CALL_SUBROUTINE(address=0x1501)
 75: 0x0381 [0x1C] WAIT(30* ticks)
 76: 0x0384 [0x27] REQ_SET(priority=0x10, entity_id=Cermet Door (ID: 17531160/0x010B8118), tag_num=0x04)
 77: 0x038B [0x52] END_LOAD_SCHEDULER: End scheduler "cl07" with entities [LocalPlayer, LocalPlayer], work=154*
 78: 0x039A [0x7C] Tenzen (ID: 17531211/0x010B814B)->Render.Flags2 |= 0x01
 79: 0x03A0 [0x7B] Tenzen (ID: 17531211/0x010B814B) stops talking
 80: 0x03A5 [0x7B] Nag'molada (ID: 17531212/0x010B814C) stops talking
 81: 0x03AA [0x6B] STOP_AND_IDLE: Tenzen (ID: 17531211/0x010B814B) stops current action and resets to idle (animation="idl0")
 82: 0x03B3 [0x6B] STOP_AND_IDLE: Nag'molada (ID: 17531212/0x010B814C) stops current action and resets to idle (animation="idl0")
 83: 0x03BC [0x34] LOAD_UNLOAD_ZONE(zone_id=540*)
 84: 0x03BF [0x77] SET_EVENT_TIME_WEATHER(hour=12*, weather=2*)
 85: 0x03C4 [0x1C] WAIT(15* ticks)
 86: 0x03C7 [0x2D] CREATE_ZONE_SCHEDULER_TASK: Create scheduler "1off" with entities [EventEntity, EventEntity]
 87: 0x03D4 [0x2D] CREATE_ZONE_SCHEDULER_TASK: Create scheduler "2off" with entities [EventEntity, EventEntity]
 88: 0x03E1 [0x2D] CREATE_ZONE_SCHEDULER_TASK: Create scheduler "3off" with entities [EventEntity, EventEntity]
 89: 0x03EE [0x2D] CREATE_ZONE_SCHEDULER_TASK: Create scheduler "4off" with entities [EventEntity, EventEntity]
 90: 0x03FB [0x2D] CREATE_ZONE_SCHEDULER_TASK: Create scheduler "5off" with entities [EventEntity, EventEntity]
 91: 0x0408 [0x27] REQ_SET(priority=0x10, entity_id=Tenzen (ID: 17531211/0x010B814B), tag_num=0x04)
 92: 0x040F [0x27] REQ_SET(priority=0x10, entity_id=Nag'molada (ID: 17531212/0x010B814C), tag_num=0x04)
 93: 0x0416 [0x27] REQ_SET(priority=0x10, entity_id=Unnamed NPC (ID: 17531213/0x010B814D), tag_num=0x02)
 94: 0x041D [0x27] REQ_SET(priority=0x10, entity_id=LocalPlayer, tag_num=0x2B)
 95: 0x0424 [0x27] REQ_SET(priority=0x10, entity_id=Tenzen (ID: 17531211/0x010B814B), tag_num=0x0B)
 96: 0x042B [0x27] REQ_SET(priority=0x10, entity_id=Nag'molada (ID: 17531212/0x010B814C), tag_num=0x0B)
 97: 0x0432 [0x27] REQ_SET(priority=0x10, entity_id=Unnamed NPC (ID: 17531213/0x010B814D), tag_num=0x09)
 98: 0x0439 [0x94] Tenzen (ID: 17531211/0x010B814B)->Render.Flags3 ^= 0x01
 99: 0x043F [0x94] Nag'molada (ID: 17531212/0x010B814C)->Render.Flags3 ^= 0x01
100: 0x0445 [0x5C] MUSIC_CONTROL: Set Idle (Day) music to song 127*
101: 0x0449 [0x5C] MUSIC_CONTROL: Set Idle (Night) music to song 127*
102: 0x044D [0x5C] MUSIC_CONTROL: Set Combat (Solo) music to song 127*
103: 0x0451 [0x5C] MUSIC_CONTROL: Set Combat (Party) music to song 127*
104: 0x0455 [0x9A] WAIT_MUSIC_SERVER()
105: 0x0456 [0x1C] WAIT(30* ticks)
106: 0x0459 [0x27] REQ_SET(priority=0x10, entity_id=Nag'molada (ID: 17531212/0x010B814C), tag_num=0x0C)
107: 0x0460 [0x45] LOAD_SCHEDULED_TASK: Load scheduler "cl10" with entities [LocalPlayer, LocalPlayer], work=[154*, 0*]
108: 0x0471 [0x1A] CALL_SUBROUTINE(address=0x14E0)
109: 0x0474 [0x2B] Tenzen (ID: 17531211/0x010B814B) [7421*]:
    → "Ah, what a grand sight..."
110: 0x047B [0x23] WAIT_FOR_DIALOG_INTERACTION
111: 0x047C [0x2A] GET_REQ_LEVEL(level=16, entity_id=Nag'molada (ID: 17531212/0x010B814C))
112: 0x0482 [0x52] END_LOAD_SCHEDULER: End scheduler "cl10" with entities [LocalPlayer, LocalPlayer], work=154*
113: 0x0491 [0x45] LOAD_SCHEDULED_TASK: Load scheduler "cl11" with entities [LocalPlayer, LocalPlayer], work=[154*, 0*]
114: 0x04A2 [0x2B] Nag'molada (ID: 17531212/0x010B814C) [7422*]:
    → "The five mothercrystals... It is this contraption that protects them as they slumber beneath Vana'diel."
115: 0x04A9 [0x23] WAIT_FOR_DIALOG_INTERACTION
116: 0x04AA [0x4A] Tenzen (ID: 17531211/0x010B814B) looks at Nag'molada (ID: 17531212/0x010B814C)
117: 0x04B3 [0x2B] Tenzen (ID: 17531211/0x010B814B) [7423*]:
    → "Protects them...? So, that is the purpose of this tower!?"
118: 0x04BA [0x23] WAIT_FOR_DIALOG_INTERACTION
119: 0x04BB [0x81] SET_ENTITY_BLINKING(blink_flag=0x01, entity=Nag'molada (ID: 17531212/0x010B814C))
120: 0x04C1 [0x5B] LOAD_EXT_SCHEDULER: Load scheduler "con1" with entities [Nag'molada (ID: 17531212/0x010B814C), Nag'molada (ID: 17531212/0x010B814C)], work=466*
121: 0x04D0 [0x1C] WAIT(30* ticks)
122: 0x04D3 [0x52] END_LOAD_SCHEDULER: End scheduler "cl11" with entities [LocalPlayer, LocalPlayer], work=154*
123: 0x04E2 [0x45] LOAD_SCHEDULED_TASK: Load scheduler "cl12" with entities [LocalPlayer, LocalPlayer], work=[154*, 0*]
124: 0x04F3 [0x2B] Nag'molada (ID: 17531212/0x010B814C) [7424*]:
    → "Exactly. The five crystals are connected by the five Crystal Lines that all converge on this very place."
125: 0x04FA [0x23] WAIT_FOR_DIALOG_INTERACTION
126: 0x04FB [0x2B] Nag'molada (ID: 17531212/0x010B814C) [7425*]:
    → "For many centuries we have monitored the lines...protected the radiance of the crystals."
127: 0x0502 [0x23] WAIT_FOR_DIALOG_INTERACTION
128: 0x0503 [0x52] END_LOAD_SCHEDULER: End scheduler "cl12" with entities [LocalPlayer, LocalPlayer], work=154*
129: 0x0512 [0x27] REQ_SET(priority=0x10, entity_id=Unnamed NPC (ID: 17531209/0x010B8149), tag_num=0x04)
130: 0x0519 [0x2B] Nag'molada (ID: 17531212/0x010B814C) [7426*]:
    → "However, when the Wyrmking, Bahamut, arrived, the five crystal lines began acting strangely. We could no longer control them."
131: 0x0520 [0x23] WAIT_FOR_DIALOG_INTERACTION
132: 0x0521 [0x2A] GET_REQ_LEVEL(level=16, entity_id=Unnamed NPC (ID: 17531209/0x010B8149))
133: 0x0527 [0x4B] UPDATE_ENTITY_YAW(entity=Nag'molada (ID: 17531212/0x010B814C), yaw=1.4°*)
134: 0x052E [0x1C] WAIT(15* ticks)
135: 0x0531 [0x52] END_LOAD_SCHEDULER: End scheduler "cl35" with entities [LocalPlayer, LocalPlayer], work=154*
136: 0x0540 [0x45] LOAD_SCHEDULED_TASK: Load scheduler "cl13" with entities [LocalPlayer, LocalPlayer], work=[154*, 0*]
137: 0x0551 [0x1A] CALL_SUBROUTINE(address=0x14E0)
138: 0x0554 [0x5B] LOAD_EXT_SCHEDULER: Load scheduler "thb0" with entities [Nag'molada (ID: 17531212/0x010B814C), Nag'molada (ID: 17531212/0x010B814C)], work=465*
139: 0x0563 [0x2B] Nag'molada (ID: 17531212/0x010B814C) [7427*]:
    → "And then came Selh'teus."
140: 0x056A [0x23] WAIT_FOR_DIALOG_INTERACTION
141: 0x056B [0x7B] Tenzen (ID: 17531211/0x010B814B) stops talking
142: 0x0570 [0x55] WAIT_LOAD_SCHEDULER: Wait for scheduler "cl13" with entities [LocalPlayer, LocalPlayer], work=154*
143: 0x057F [0x2B] Tenzen (ID: 17531211/0x010B814B) [7428*]:
    → "He came...here?"
144: 0x0586 [0x23] WAIT_FOR_DIALOG_INTERACTION
145: 0x0587 [0x5B] LOAD_EXT_SCHEDULER: Load scheduler "tla0" with entities [Tenzen (ID: 17531211/0x010B814B), Tenzen (ID: 17531211/0x010B814B)], work=425*
146: 0x0596 [0x45] LOAD_SCHEDULED_TASK: Load scheduler "cl14" with entities [LocalPlayer, LocalPlayer], work=[154*, 0*]
147: 0x05A7 [0x2B] Tenzen (ID: 17531211/0x010B814B) [7429*]:
    → "Sir Nag'molada! Are you saying that the boy came here via the Crystal Line!?"
148: 0x05AE [0x23] WAIT_FOR_DIALOG_INTERACTION
149: 0x05AF [0x5B] LOAD_EXT_SCHEDULER: Load scheduler "tath" with entities [Tenzen (ID: 17531211/0x010B814B), Tenzen (ID: 17531211/0x010B814B)], work=425*
150: 0x05BE [0x1C] WAIT(15* ticks)
151: 0x05C1 [0x2B] Tenzen (ID: 17531211/0x010B814B) [7430*]:
    → "Which means, by traveling back through the line, he can..."
152: 0x05C8 [0x23] WAIT_FOR_DIALOG_INTERACTION
153: 0x05C9 [0x79] Nag'molada (ID: 17531212/0x010B814C) looks at Tenzen (ID: 17531211/0x010B814B) (Basic look)
154: 0x05D3 [0x52] END_LOAD_SCHEDULER: End scheduler "cl14" with entities [LocalPlayer, LocalPlayer], work=154*
155: 0x05E2 [0x45] LOAD_SCHEDULED_TASK: Load scheduler "cl15" with entities [LocalPlayer, LocalPlayer], work=[154*, 0*]
156: 0x05F3 [0x5B] LOAD_EXT_SCHEDULER: Load scheduler "thb1" with entities [Nag'molada (ID: 17531212/0x010B814C), Nag'molada (ID: 17531212/0x010B814C)], work=465*
157: 0x0602 [0x1C] WAIT(15* ticks)
158: 0x0605 [0x2B] Nag'molada (ID: 17531212/0x010B814C) [7431*]:
    → "Exactly. He can reach the fifth crystal. However, it is not as easy as you may think. The lines were not built as a path for men."
159: 0x060C [0x23] WAIT_FOR_DIALOG_INTERACTION
160: 0x060D [0x52] END_LOAD_SCHEDULER: End scheduler "cl15" with entities [LocalPlayer, LocalPlayer], work=154*
161: 0x061C [0x45] LOAD_SCHEDULED_TASK: Load scheduler "cl16" with entities [LocalPlayer, LocalPlayer], work=[154*, 0*]
162: 0x062D [0x4B] UPDATE_ENTITY_YAW(entity=Nag'molada (ID: 17531212/0x010B814C), yaw=16.9°*)
163: 0x0634 [0x1C] WAIT(15* ticks)
164: 0x0637 [0x2B] Nag'molada (ID: 17531212/0x010B814C) [7432*]:
    → "They were built to gather the light of the mothercrystals."
165: 0x063E [0x23] WAIT_FOR_DIALOG_INTERACTION
166: 0x063F [0x2B] Nag'molada (ID: 17531212/0x010B814C) [7433*]:
    → "The true reason Selh'teus was able to enter this place was because he was aided by a guardian of the crystals--a terrestrial avatar."
167: 0x0646 [0x23] WAIT_FOR_DIALOG_INTERACTION
168: 0x0647 [0x5B] LOAD_EXT_SCHEDULER: Load scheduler "thk1" with entities [Tenzen (ID: 17531211/0x010B814B), Tenzen (ID: 17531211/0x010B814B)], work=425*
169: 0x0656 [0x52] END_LOAD_SCHEDULER: End scheduler "cl16" with entities [LocalPlayer, LocalPlayer], work=154*
170: 0x0665 [0x45] LOAD_SCHEDULED_TASK: Load scheduler "cl17" with entities [LocalPlayer, LocalPlayer], work=[154*, 0*]
171: 0x0676 [0x2B] Tenzen (ID: 17531211/0x010B814B) [7434*]:
    → "A terrestrial avatar...?"
172: 0x067D [0x23] WAIT_FOR_DIALOG_INTERACTION
173: 0x067E [0x53] WAIT_SCHEDULER_TASK: Wait for scheduler "thk1" with entities [Tenzen (ID: 17531211/0x010B814B), Tenzen (ID: 17531211/0x010B814B)]
174: 0x068B [0x27] REQ_SET(priority=0x10, entity_id=Unnamed NPC (ID: 17531209/0x010B8149), tag_num=0x03)
175: 0x0692 [0x2B] Tenzen (ID: 17531211/0x010B814B) [7435*]:
    → "It is all clear now! Phoenix led me to this place to show me the way to the celestial capital of Al'Taieu!"
176: 0x0699 [0x23] WAIT_FOR_DIALOG_INTERACTION
177: 0x069A [0x4B] UPDATE_ENTITY_YAW(entity=Nag'molada (ID: 17531212/0x010B814C), yaw=1.4°*)
178: 0x06A1 [0x1C] WAIT(15* ticks)
179: 0x06A4 [0x27] REQ_SET(priority=0x10, entity_id=??? (ID: 17531210/0x010B814A), tag_num=0x02)
180: 0x06AB [0x2B] Nag'molada (ID: 17531212/0x010B814C) [7436*]:
    → "Phoenix? Led you here? That is truly unfortunate. If this only had happened before Pso'Xja was reactivated..."
181: 0x06B2 [0x23] WAIT_FOR_DIALOG_INTERACTION
182: 0x06B3 [0x2A] GET_REQ_LEVEL(level=16, entity_id=Unnamed NPC (ID: 17531209/0x010B8149))
183: 0x06B9 [0x53] WAIT_SCHEDULER_TASK: Wait for scheduler "ktn1" with entities [Tenzen (ID: 17531211/0x010B814B), Tenzen (ID: 17531211/0x010B814B)]
184: 0x06C6 [0x52] END_LOAD_SCHEDULER: End scheduler "cl17" with entities [LocalPlayer, LocalPlayer], work=154*
185: 0x06D5 [0x45] LOAD_SCHEDULED_TASK: Load scheduler "cl56" with entities [LocalPlayer, LocalPlayer], work=[154*, 0*]
186: 0x06E6 [0x5B] LOAD_EXT_SCHEDULER: Load scheduler "tlb0" with entities [Tenzen (ID: 17531211/0x010B814B), Tenzen (ID: 17531211/0x010B814B)], work=425*
187: 0x06F5 [0x2B] Tenzen (ID: 17531211/0x010B814B) [7437*]:
    → "Reactivated...? What do you mean by that, Nag'molada?"
188: 0x06FC [0x23] WAIT_FOR_DIALOG_INTERACTION
189: 0x06FD [0x5B] LOAD_EXT_SCHEDULER: Load scheduler "tlb1" with entities [Tenzen (ID: 17531211/0x010B814B), Tenzen (ID: 17531211/0x010B814B)], work=425*
190: 0x070C [0x52] END_LOAD_SCHEDULER: End scheduler "cl56" with entities [LocalPlayer, LocalPlayer], work=154*
191: 0x071B [0x45] LOAD_SCHEDULED_TASK: Load scheduler "cl18" with entities [LocalPlayer, LocalPlayer], work=[154*, 0*]
192: 0x072C [0x5B] LOAD_EXT_SCHEDULER: Load scheduler "hbta" with entities [Nag'molada (ID: 17531212/0x010B814C), Nag'molada (ID: 17531212/0x010B814C)], work=465*
193: 0x073B [0x2B] Nag'molada (ID: 17531212/0x010B814C) [7438*]:
    → "The ruins of Pso'Xja were once the homes of my Kuluu brothers and sisters. However, at the onset of the Kuluu war with the Zilart, the terrestrial avatars lent us their power and helped transform the area into an impenetrable stronghold."
194: 0x0742 [0x23] WAIT_FOR_DIALOG_INTERACTION
195: 0x0743 [0x2B] Nag'molada (ID: 17531212/0x010B814C) [7439*]:
    → "And deep below the ruins is a device that blocks the flow of energy through the Crystal Line. Esha'ntarl has repaired that device..."
196: 0x074A [0x23] WAIT_FOR_DIALOG_INTERACTION
197: 0x074B [0x5B] LOAD_EXT_SCHEDULER: Load scheduler "tla1" with entities [Nag'molada (ID: 17531212/0x010B814C), Nag'molada (ID: 17531212/0x010B814C)], work=465*
198: 0x075A [0x5B] LOAD_EXT_SCHEDULER: Load scheduler "tlc0" with entities [Tenzen (ID: 17531211/0x010B814B), Tenzen (ID: 17531211/0x010B814B)], work=427*
199: 0x0769 [0x1C] WAIT(9* ticks)
200: 0x076C [0x52] END_LOAD_SCHEDULER: End scheduler "cl18" with entities [LocalPlayer, LocalPlayer], work=154*
201: 0x077B [0x45] LOAD_SCHEDULED_TASK: Load scheduler "cl19" with entities [LocalPlayer, LocalPlayer], work=[154*, 0*]
202: 0x078C [0x2B] Tenzen (ID: 17531211/0x010B814B) [7440*]:
    → "Repaired it! Why would she do such a thing!?"
203: 0x0793 [0x23] WAIT_FOR_DIALOG_INTERACTION
204: 0x0794 [0x52] END_LOAD_SCHEDULER: End scheduler "cl19" with entities [LocalPlayer, LocalPlayer], work=154*
205: 0x07A3 [0x45] LOAD_SCHEDULED_TASK: Load scheduler "cl20" with entities [LocalPlayer, LocalPlayer], work=[154*, 0*]
206: 0x07B4 [0x5B] LOAD_EXT_SCHEDULER: Load scheduler "tlc1" with entities [Tenzen (ID: 17531211/0x010B814B), Tenzen (ID: 17531211/0x010B814B)], work=427*
207: 0x07C3 [0x5B] LOAD_EXT_SCHEDULER: Load scheduler "thb0" with entities [Nag'molada (ID: 17531212/0x010B814C), Nag'molada (ID: 17531212/0x010B814C)], work=465*
208: 0x07D2 [0x2B] Nag'molada (ID: 17531212/0x010B814C) [7441*]:
    → "I no longer know what the society is plotting. That is why I came here--to find out their true intentions!"
209: 0x07D9 [0x23] WAIT_FOR_DIALOG_INTERACTION
210: 0x07DA [0x52] END_LOAD_SCHEDULER: End scheduler "cl20" with entities [LocalPlayer, LocalPlayer], work=154*
211: 0x07E9 [0x45] LOAD_SCHEDULED_TASK: Load scheduler "cl22" with entities [LocalPlayer, LocalPlayer], work=[154*, 0*]
212: 0x07FA [0x79] LocalPlayer looks at Unnamed NPC (ID: 17531213/0x010B814D) (Basic look)
213: 0x0804 [0x79] Tenzen (ID: 17531211/0x010B814B) looks at Unnamed NPC (ID: 17531213/0x010B814D) (Basic look)
214: 0x080E [0x1C] WAIT(120* ticks)
215: 0x0811 [0x52] END_LOAD_SCHEDULER: End scheduler "cl22" with entities [LocalPlayer, LocalPlayer], work=154*
216: 0x0820 [0x45] LOAD_SCHEDULED_TASK: Load scheduler "cl21" with entities [LocalPlayer, LocalPlayer], work=[154*, 0*]
217: 0x0831 [0x7B] LocalPlayer stops talking
218: 0x0836 [0x7B] Tenzen (ID: 17531211/0x010B814B) stops talking
219: 0x083B [0x2B] Nag'molada (ID: 17531212/0x010B814C) [7443*]:
    → "Ha ha ha! Are you surprised?"
220: 0x0842 [0x23] WAIT_FOR_DIALOG_INTERACTION
221: 0x0843 [0x2B] Nag'molada (ID: 17531212/0x010B814C) [7444*]:
    → "I guess that to you we ancients--Kuluu and Zilart--are all the same. However, that could not be further from the truth."
222: 0x084A [0x23] WAIT_FOR_DIALOG_INTERACTION
223: 0x084B [0x52] END_LOAD_SCHEDULER: End scheduler "cl21" with entities [LocalPlayer, LocalPlayer], work=154*
224: 0x085A [0x45] LOAD_SCHEDULED_TASK: Load scheduler "cl23" with entities [LocalPlayer, LocalPlayer], work=[154*, 0*]
225: 0x086B [0x5B] LOAD_EXT_SCHEDULER: Load scheduler "hbtb" with entities [Nag'molada (ID: 17531212/0x010B814C), Nag'molada (ID: 17531212/0x010B814C)], work=465*
226: 0x087A [0x2B] Nag'molada (ID: 17531212/0x010B814C) [7445*]:
    → "The Zilart were blessed with the ability to subliminally communicate with all those around them--they possessed the "whisper of the soul." It was this ability that made the bonds between them unbreakable."
227: 0x0881 [0x23] WAIT_FOR_DIALOG_INTERACTION
228: 0x0882 [0x2B] Nag'molada (ID: 17531212/0x010B814C) [7446*]:
    → "However, there were those who were born without the whisper--the Kuluu. My people were destined from birth to sit outside the bonds of the Zilartian community."
229: 0x0889 [0x23] WAIT_FOR_DIALOG_INTERACTION
230: 0x088A [0x52] END_LOAD_SCHEDULER: End scheduler "cl23" with entities [LocalPlayer, LocalPlayer], work=154*
231: 0x0899 [0x45] LOAD_SCHEDULED_TASK: Load scheduler "cl24" with entities [LocalPlayer, LocalPlayer], work=[154*, 0*]
232: 0x08AA [0x5B] LOAD_EXT_SCHEDULER: Load scheduler "tba0" with entities [Nag'molada (ID: 17531212/0x010B814C), Nag'molada (ID: 17531212/0x010B814C)], work=465*
233: 0x08B9 [0x2B] Nag'molada (ID: 17531212/0x010B814C) [7447*]:
    → "But we bystanders were able to ascertain the truth, and it was this that helped us survive the crusades of ten thousand years ago."
234: 0x08C0 [0x23] WAIT_FOR_DIALOG_INTERACTION
235: 0x08C1 [0x5B] LOAD_EXT_SCHEDULER: Load scheduler "tahb" with entities [Nag'molada (ID: 17531212/0x010B814C), Nag'molada (ID: 17531212/0x010B814C)], work=465*
236: 0x08D0 [0x1C] WAIT(15* ticks)
237: 0x08D3 [0x2B] Nag'molada (ID: 17531212/0x010B814C) [7448*]:
    → "The Zilart, the terrestrial avatars, Selh'teus... Once again, their sins will deface Vana'diel and undermine her children."
238: 0x08DA [0x23] WAIT_FOR_DIALOG_INTERACTION
239: 0x08DB [0x52] END_LOAD_SCHEDULER: End scheduler "cl24" with entities [LocalPlayer, LocalPlayer], work=154*
240: 0x08EA [0x45] LOAD_SCHEDULED_TASK: Load scheduler "cl25" with entities [LocalPlayer, LocalPlayer], work=[154*, 0*]
241: 0x08FB [0x5B] LOAD_EXT_SCHEDULER: Load scheduler "odo0" with entities [Tenzen (ID: 17531211/0x010B814B), Tenzen (ID: 17531211/0x010B814B)], work=427*
242: 0x090A [0x2B] Tenzen (ID: 17531211/0x010B814B) [7449*]:
    → "That is terrible! If you know of such a battle brewing, why do you not attempt to stop it!?"
243: 0x0911 [0x23] WAIT_FOR_DIALOG_INTERACTION
244: 0x0912 [0x52] END_LOAD_SCHEDULER: End scheduler "cl25" with entities [LocalPlayer, LocalPlayer], work=154*
245: 0x0921 [0x45] LOAD_SCHEDULED_TASK: Load scheduler "cl26" with entities [LocalPlayer, LocalPlayer], work=[154*, 0*]
246: 0x0932 [0x5B] LOAD_EXT_SCHEDULER: Load scheduler "odtc" with entities [Tenzen (ID: 17531211/0x010B814B), Tenzen (ID: 17531211/0x010B814B)], work=427*
247: 0x0941 [0x2B] Tenzen (ID: 17531211/0x010B814B) [7450*]:
    → "Why must we fight the avatars!? Such a battle would be meaningless! Our true enemies are the Emptiness and the evil boy that is spreading it!"
248: 0x0948 [0x23] WAIT_FOR_DIALOG_INTERACTION
249: 0x0949 [0x52] END_LOAD_SCHEDULER: End scheduler "cl26" with entities [LocalPlayer, LocalPlayer], work=154*
250: 0x0958 [0x45] LOAD_SCHEDULED_TASK: Load scheduler "cl27" with entities [LocalPlayer, LocalPlayer], work=[154*, 0*]
251: 0x0969 [0x5B] LOAD_EXT_SCHEDULER: Load scheduler "thb1" with entities [Nag'molada (ID: 17531212/0x010B814C), Nag'molada (ID: 17531212/0x010B814C)], work=465*
252: 0x0978 [0x2B] Nag'molada (ID: 17531212/0x010B814C) [7451*]:
    → "Hah. Is that what you have to say? Tenzen, when are you going to stop being led around on a leash like a measly dog? When are you going to see what the terrestrial avatars really want?"
253: 0x097F [0x23] WAIT_FOR_DIALOG_INTERACTION
254: 0x0980 [0x53] WAIT_SCHEDULER_TASK: Wait for scheduler "thb1" with entities [Nag'molada (ID: 17531212/0x010B814C), Nag'molada (ID: 17531212/0x010B814C)]
255: 0x098D [0x5B] LOAD_EXT_SCHEDULER: Load scheduler "tlc1" with entities [Tenzen (ID: 17531211/0x010B814B), Tenzen (ID: 17531211/0x010B814B)], work=427*
256: 0x099C [0x52] END_LOAD_SCHEDULER: End scheduler "cl27" with entities [LocalPlayer, LocalPlayer], work=154*
257: 0x09AB [0x45] LOAD_SCHEDULED_TASK: Load scheduler "cl29" with entities [LocalPlayer, LocalPlayer], work=[154*, 0*]
258: 0x09BC [0x5B] LOAD_EXT_SCHEDULER: Load scheduler "tha0" with entities [Nag'molada (ID: 17531212/0x010B814C), Nag'molada (ID: 17531212/0x010B814C)], work=465*
259: 0x09CB [0x2B] Nag'molada (ID: 17531212/0x010B814C) [7452*]:
    → "Listen. I told you this once before. Selh'teus is nothing but a traitor."
260: 0x09D2 [0x23] WAIT_FOR_DIALOG_INTERACTION
261: 0x09D3 [0x2B] Nag'molada (ID: 17531212/0x010B814C) [7453*]:
    → "Ten thousand years ago, he prevented the Zilart from obtaining what they desired. Now, he is simply attempting the same thing."
262: 0x09DA [0x23] WAIT_FOR_DIALOG_INTERACTION
263: 0x09DB [0x52] END_LOAD_SCHEDULER: End scheduler "cl29" with entities [LocalPlayer, LocalPlayer], work=154*
264: 0x09EA [0x45] LOAD_SCHEDULED_TASK: Load scheduler "cl30" with entities [LocalPlayer, LocalPlayer], work=[154*, 0*]
265: 0x09FB [0x5B] LOAD_EXT_SCHEDULER: Load scheduler "hata" with entities [Nag'molada (ID: 17531212/0x010B814C), Nag'molada (ID: 17531212/0x010B814C)], work=465*
266: 0x0A0A [0x2B] Nag'molada (ID: 17531212/0x010B814C) [7454*]:
    → "The records stored in this Crystal Line observation equipment have shown me the reason why Selh'teus travels to the mothercrystals."
267: 0x0A11 [0x23] WAIT_FOR_DIALOG_INTERACTION
268: 0x0A12 [0x1A] CALL_SUBROUTINE(address=0x1501)
269: 0x0A15 [0x1C] WAIT(30* ticks)
270: 0x0A18 [0x52] END_LOAD_SCHEDULER: End scheduler "cl30" with entities [LocalPlayer, LocalPlayer], work=154*
271: 0x0A27 [0x34] LOAD_UNLOAD_ZONE(zone_id=541*)
272: 0x0A2A [0x77] SET_EVENT_TIME_WEATHER(hour=12*, weather=1*)
273: 0x0A2F [0x1C] WAIT(15* ticks)
274: 0x0A32 [0x27] REQ_SET(priority=0x10, entity_id=Selh'teus (ID: 17531214/0x010B814E), tag_num=0x04)
275: 0x0A39 [0x92] Selh'teus (ID: 17531214/0x010B814E)->Render.Flags3 ^= 0x01
276: 0x0A3F [0x27] REQ_SET(priority=0x10, entity_id=Selh'teus (ID: 17531214/0x010B814E), tag_num=0x09)
277: 0x0A46 [0x80] LOAD_WAIT(entity=Selh'teus (ID: 17531214/0x010B814E))
278: 0x0A4B [0x1C] WAIT(15* ticks)
279: 0x0A4E [0x81] SET_ENTITY_BLINKING(blink_flag=0x00, entity=Selh'teus (ID: 17531214/0x010B814E))
280: 0x0A54 [0x5B] LOAD_EXT_SCHEDULER: Load scheduler "cry0" with entities [Selh'teus (ID: 17531214/0x010B814E), Selh'teus (ID: 17531214/0x010B814E)], work=460*
281: 0x0A63 [0x45] LOAD_SCHEDULED_TASK: Load scheduler "c308" with entities [LocalPlayer, LocalPlayer], work=[155*, 0*]
282: 0x0A74 [0x45] LOAD_SCHEDULED_TASK: Load scheduler "efon" with entities [LocalPlayer, LocalPlayer], work=[179*, 0*]
283: 0x0A85 [0x2B] Nag'molada (ID: 17531212/0x010B814C) [7455*]:
    → "By touching the shards, he is able to drain their light...their power."
284: 0x0A8C [0x23] WAIT_FOR_DIALOG_INTERACTION
285: 0x0A8D [0x2B] Tenzen (ID: 17531211/0x010B814B) [7456*]:
    → "The crystal's power?"
286: 0x0A94 [0x23] WAIT_FOR_DIALOG_INTERACTION
287: 0x0A95 [0x2D] CREATE_ZONE_SCHEDULER_TASK: Create scheduler "kaks" with entities [EventEntity, EventEntity]
288: 0x0AA2 [0x1C] WAIT(60* ticks)
289: 0x0AA5 [0x1A] CALL_SUBROUTINE(address=0x1501)
290: 0x0AA8 [0x1C] WAIT(30* ticks)
291: 0x0AAB [0x2D] CREATE_ZONE_SCHEDULER_TASK: Create scheduler "kaki" with entities [EventEntity, EventEntity]
292: 0x0AB8 [0x52] END_LOAD_SCHEDULER: End scheduler "c308" with entities [LocalPlayer, LocalPlayer], work=155*
293: 0x0AC7 [0x34] LOAD_UNLOAD_ZONE(zone_id=540*)
294: 0x0ACA [0x77] SET_EVENT_TIME_WEATHER(hour=12*, weather=0*)
295: 0x0ACF [0x1C] WAIT(15* ticks)
296: 0x0AD2 [0x27] REQ_SET(priority=0x10, entity_id=Tenzen (ID: 17531211/0x010B814B), tag_num=0x04)
297: 0x0AD9 [0x27] REQ_SET(priority=0x10, entity_id=Nag'molada (ID: 17531212/0x010B814C), tag_num=0x04)
298: 0x0AE0 [0x27] REQ_SET(priority=0x10, entity_id=Unnamed NPC (ID: 17531213/0x010B814D), tag_num=0x02)
299: 0x0AE7 [0x27] REQ_SET(priority=0x10, entity_id=LocalPlayer, tag_num=0x2B)
300: 0x0AEE [0x27] REQ_SET(priority=0x10, entity_id=Tenzen (ID: 17531211/0x010B814B), tag_num=0x0B)
301: 0x0AF5 [0x27] REQ_SET(priority=0x10, entity_id=Nag'molada (ID: 17531212/0x010B814C), tag_num=0x0D)
302: 0x0AFC [0x80] LOAD_WAIT(entity=LocalPlayer)
303: 0x0B01 [0x80] LOAD_WAIT(entity=Tenzen (ID: 17531211/0x010B814B))
304: 0x0B06 [0x80] LOAD_WAIT(entity=Nag'molada (ID: 17531212/0x010B814C))
305: 0x0B0B [0x4A] Tenzen (ID: 17531211/0x010B814B) looks at Nag'molada (ID: 17531212/0x010B814C)
306: 0x0B14 [0x45] LOAD_SCHEDULED_TASK: Load scheduler "cl31" with entities [LocalPlayer, LocalPlayer], work=[154*, 0*]
307: 0x0B25 [0x1A] CALL_SUBROUTINE(address=0x1522)
308: 0x0B28 [0x1A] CALL_SUBROUTINE(address=0x14E0)
309: 0x0B2B [0x5B] LOAD_EXT_SCHEDULER: Load scheduler "tlb0" with entities [Nag'molada (ID: 17531212/0x010B814C), Nag'molada (ID: 17531212/0x010B814C)], work=465*
310: 0x0B3A [0x2B] Nag'molada (ID: 17531212/0x010B814C) [7457*]:
    → "To accomplish our task, we had to gather the power of the crystals and fuse it into one."
311: 0x0B41 [0x23] WAIT_FOR_DIALOG_INTERACTION
312: 0x0B42 [0x52] END_LOAD_SCHEDULER: End scheduler "cl31" with entities [LocalPlayer, LocalPlayer], work=154*
313: 0x0B51 [0x45] LOAD_SCHEDULED_TASK: Load scheduler "cl32" with entities [LocalPlayer, LocalPlayer], work=[154*, 0*]
314: 0x0B62 [0x2B] Nag'molada (ID: 17531212/0x010B814C) [7458*]:
    → "And to do that, we needed to repair and revive the Zilartian machines that were damaged in the accident that occurred ten thousand years ago. With the machines working again, we were able to slowly draw the light of the crystals."
315: 0x0B69 [0x23] WAIT_FOR_DIALOG_INTERACTION
316: 0x0B6A [0x1C] WAIT(60* ticks)
317: 0x0B6D [0x1A] CALL_SUBROUTINE(address=0x1501)
318: 0x0B70 [0x1C] WAIT(30* ticks)
319: 0x0B73 [0x52] END_LOAD_SCHEDULER: End scheduler "cl32" with entities [LocalPlayer, LocalPlayer], work=154*
320: 0x0B82 [0x34] LOAD_UNLOAD_ZONE(zone_id=22*)
321: 0x0B85 [0x77] SET_EVENT_TIME_WEATHER(hour=12*, weather=1*)
322: 0x0B8A [0x1C] WAIT(15* ticks)
323: 0x0B8D [0x45] LOAD_SCHEDULED_TASK: Load scheduler "cl36" with entities [LocalPlayer, LocalPlayer], work=[154*, 0*]
324: 0x0B9E [0x1A] CALL_SUBROUTINE(address=0x14E0)
325: 0x0BA1 [0x2B] Nag'molada (ID: 17531212/0x010B814C) [7459*]:
    → "When he realized he could not single-handedly take on the whole nation of Jeuno, he turned to the crystals instead. And when he laid his hands upon them, their power flowed from the facets like water rushing from a broken dam. This sudden loss of power resulted in a disruption in the space surrounding the crystals..."
326: 0x0BA8 [0x23] WAIT_FOR_DIALOG_INTERACTION
327: 0x0BA9 [0x2B] Nag'molada (ID: 17531212/0x010B814C) [7460*]:
    → "Without the life-giving light of the crystals shining upon it, the space became overwhelmed with darkness--with Emptiness."
328: 0x0BB0 [0x23] WAIT_FOR_DIALOG_INTERACTION
329: 0x0BB1 [0x1C] WAIT(60* ticks)
330: 0x0BB4 [0x1A] CALL_SUBROUTINE(address=0x1501)
331: 0x0BB7 [0x1C] WAIT(30* ticks)
332: 0x0BBA [0x52] END_LOAD_SCHEDULER: End scheduler "cl36" with entities [LocalPlayer, LocalPlayer], work=154*
333: 0x0BC9 [0x34] LOAD_UNLOAD_ZONE(zone_id=540*)
334: 0x0BCC [0x77] SET_EVENT_TIME_WEATHER(hour=12*, weather=2*)
335: 0x0BD1 [0x1C] WAIT(15* ticks)
336: 0x0BD4 [0x2D] CREATE_ZONE_SCHEDULER_TASK: Create scheduler "1off" with entities [EventEntity, EventEntity]
337: 0x0BE1 [0x2D] CREATE_ZONE_SCHEDULER_TASK: Create scheduler "2off" with entities [EventEntity, EventEntity]
338: 0x0BEE [0x2D] CREATE_ZONE_SCHEDULER_TASK: Create scheduler "3off" with entities [EventEntity, EventEntity]
339: 0x0BFB [0x2D] CREATE_ZONE_SCHEDULER_TASK: Create scheduler "4off" with entities [EventEntity, EventEntity]
340: 0x0C08 [0x2D] CREATE_ZONE_SCHEDULER_TASK: Create scheduler "5off" with entities [EventEntity, EventEntity]
341: 0x0C15 [0x27] REQ_SET(priority=0x10, entity_id=Tenzen (ID: 17531211/0x010B814B), tag_num=0x04)
342: 0x0C1C [0x27] REQ_SET(priority=0x10, entity_id=Nag'molada (ID: 17531212/0x010B814C), tag_num=0x04)
343: 0x0C23 [0x27] REQ_SET(priority=0x10, entity_id=Unnamed NPC (ID: 17531213/0x010B814D), tag_num=0x02)
344: 0x0C2A [0x27] REQ_SET(priority=0x10, entity_id=LocalPlayer, tag_num=0x2B)
345: 0x0C31 [0x27] REQ_SET(priority=0x10, entity_id=Tenzen (ID: 17531211/0x010B814B), tag_num=0x0B)
346: 0x0C38 [0x27] REQ_SET(priority=0x10, entity_id=Nag'molada (ID: 17531212/0x010B814C), tag_num=0x0D)
347: 0x0C3F [0x80] LOAD_WAIT(entity=LocalPlayer)
348: 0x0C44 [0x80] LOAD_WAIT(entity=Tenzen (ID: 17531211/0x010B814B))
349: 0x0C49 [0x80] LOAD_WAIT(entity=Nag'molada (ID: 17531212/0x010B814C))
350: 0x0C4E [0x4A] Tenzen (ID: 17531211/0x010B814B) looks at Nag'molada (ID: 17531212/0x010B814C)
351: 0x0C57 [0x6B] STOP_AND_IDLE: Nag'molada (ID: 17531212/0x010B814C) stops current action and resets to idle (animation="idl0")
352: 0x0C60 [0x45] LOAD_SCHEDULED_TASK: Load scheduler "cl37" with entities [LocalPlayer, LocalPlayer], work=[154*, 0*]
353: 0x0C71 [0x1A] CALL_SUBROUTINE(address=0x14E0)
354: 0x0C74 [0x5B] LOAD_EXT_SCHEDULER: Load scheduler "tlc0" with entities [Tenzen (ID: 17531211/0x010B814B), Tenzen (ID: 17531211/0x010B814B)], work=427*
355: 0x0C83 [0x2B] Tenzen (ID: 17531211/0x010B814B) [7461*]:
    → "But, Selh'teus first appeared on Vana'diel the same time as Bahamut."
356: 0x0C8A [0x23] WAIT_FOR_DIALOG_INTERACTION
357: 0x0C8B [0x2B] Tenzen (ID: 17531211/0x010B814B) [7462*]:
    → "In my home nation, there were many reports of the Emptiness eating its way through the land, long before Bahamut even arrived..."
358: 0x0C92 [0x23] WAIT_FOR_DIALOG_INTERACTION
359: 0x0C93 [0x52] END_LOAD_SCHEDULER: End scheduler "cl37" with entities [LocalPlayer, LocalPlayer], work=154*
360: 0x0CA2 [0x45] LOAD_SCHEDULED_TASK: Load scheduler "cl57" with entities [LocalPlayer, LocalPlayer], work=[154*, 0*]
361: 0x0CB3 [0x5B] LOAD_EXT_SCHEDULER: Load scheduler "tcod" with entities [Tenzen (ID: 17531211/0x010B814B), Tenzen (ID: 17531211/0x010B814B)], work=427*
362: 0x0CC2 [0x2B] Tenzen (ID: 17531211/0x010B814B) [7463*]:
    → "Wait! You just said that you were "slowly drawing the light of the crystals"..."
363: 0x0CC9 [0x23] WAIT_FOR_DIALOG_INTERACTION
364: 0x0CCA [0x2B] Tenzen (ID: 17531211/0x010B814B) [7464*]:
    → "That would mean that the cause of the Emptiness in the East is you--the Zilart!"
365: 0x0CD1 [0x23] WAIT_FOR_DIALOG_INTERACTION
366: 0x0CD2 [0x52] END_LOAD_SCHEDULER: End scheduler "cl57" with entities [LocalPlayer, LocalPlayer], work=154*
367: 0x0CE1 [0x45] LOAD_SCHEDULED_TASK: Load scheduler "cl38" with entities [LocalPlayer, LocalPlayer], work=[154*, 0*]
368: 0x0CF2 [0x5B] LOAD_EXT_SCHEDULER: Load scheduler "tha0" with entities [Nag'molada (ID: 17531212/0x010B814C), Nag'molada (ID: 17531212/0x010B814C)], work=465*
369: 0x0D01 [0x1C] WAIT(45* ticks)
370: 0x0D04 [0x2B] Nag'molada (ID: 17531212/0x010B814C) [7465*]:
    → "Hmph. I was beginning to wonder when you would realize that, Tenzen."
371: 0x0D0B [0x23] WAIT_FOR_DIALOG_INTERACTION
372: 0x0D0C [0x5B] LOAD_EXT_SCHEDULER: Load scheduler "tha1" with entities [Nag'molada (ID: 17531212/0x010B814C), Nag'molada (ID: 17531212/0x010B814C)], work=465*
373: 0x0D1B [0x2B] Nag'molada (ID: 17531212/0x010B814C) [7466*]:
    → "But don't misunderstand us. It was never our intention to harm Vana'diel with the Emptiness."
374: 0x0D22 [0x23] WAIT_FOR_DIALOG_INTERACTION
375: 0x0D23 [0x53] WAIT_SCHEDULER_TASK: Wait for scheduler "tha1" with entities [Nag'molada (ID: 17531212/0x010B814C), Nag'molada (ID: 17531212/0x010B814C)]
376: 0x0D30 [0x52] END_LOAD_SCHEDULER: End scheduler "cl38" with entities [LocalPlayer, LocalPlayer], work=154*
377: 0x0D3F [0x45] LOAD_SCHEDULED_TASK: Load scheduler "cl39" with entities [LocalPlayer, LocalPlayer], work=[154*, 0*]
378: 0x0D50 [0x27] REQ_SET(priority=0x10, entity_id=Nag'molada (ID: 17531212/0x010B814C), tag_num=0x0E)
379: 0x0D57 [0x2B] Nag'molada (ID: 17531212/0x010B814C) [7467*]:
    → "While we lay in slumber for the past ten thousand years, things changed. The crystals changed."
380: 0x0D5E [0x23] WAIT_FOR_DIALOG_INTERACTION
381: 0x0D5F [0x2A] GET_REQ_LEVEL(level=16, entity_id=Nag'molada (ID: 17531212/0x010B814C))
382: 0x0D65 [0x1C] WAIT(15* ticks)
383: 0x0D68 [0x52] END_LOAD_SCHEDULER: End scheduler "cl39" with entities [LocalPlayer, LocalPlayer], work=154*
384: 0x0D77 [0x45] LOAD_SCHEDULED_TASK: Load scheduler "cl40" with entities [LocalPlayer, LocalPlayer], work=[154*, 0*]
385: 0x0D88 [0x5B] LOAD_EXT_SCHEDULER: Load scheduler "thb0" with entities [Nag'molada (ID: 17531212/0x010B814C), Nag'molada (ID: 17531212/0x010B814C)], work=465*
386: 0x0D97 [0x2B] Nag'molada (ID: 17531212/0x010B814C) [7468*]:
    → "Especially the fifth crystal, deep below Al'Taieu."
387: 0x0D9E [0x23] WAIT_FOR_DIALOG_INTERACTION
388: 0x0D9F [0x2B] Nag'molada (ID: 17531212/0x010B814C) [7469*]:
    → "When the celestial capital was destroyed and sunk to the bottom of the sea, the crystal was damaged. The data that it returns is very odd indeed."
389: 0x0DA6 [0x23] WAIT_FOR_DIALOG_INTERACTION
390: 0x0DA7 [0x5B] LOAD_EXT_SCHEDULER: Load scheduler "thb1" with entities [Nag'molada (ID: 17531212/0x010B814C), Nag'molada (ID: 17531212/0x010B814C)], work=465*
391: 0x0DB6 [0x1C] WAIT(15* ticks)
392: 0x0DB9 [0x52] END_LOAD_SCHEDULER: End scheduler "cl40" with entities [LocalPlayer, LocalPlayer], work=154*
393: 0x0DC8 [0x45] LOAD_SCHEDULED_TASK: Load scheduler "cl41" with entities [LocalPlayer, LocalPlayer], work=[154*, 0*]
394: 0x0DD9 [0x4B] UPDATE_ENTITY_YAW(entity=Nag'molada (ID: 17531212/0x010B814C), yaw=5.6°*)
395: 0x0DE0 [0x1C] WAIT(30* ticks)
396: 0x0DE3 [0x27] REQ_SET(priority=0x10, entity_id=LocalPlayer, tag_num=0x2C)
397: 0x0DEA [0x27] REQ_SET(priority=0x10, entity_id=Tenzen (ID: 17531211/0x010B814B), tag_num=0x0C)
398: 0x0DF1 [0x5B] LOAD_EXT_SCHEDULER: Load scheduler "tlb0" with entities [Nag'molada (ID: 17531212/0x010B814C), Nag'molada (ID: 17531212/0x010B814C)], work=465*
399: 0x0E00 [0x2B] Nag'molada (ID: 17531212/0x010B814C) [7470*]:
    → "However, you need not worry. Once the Gate of the Gods is opened, the crystals will return to their former state."
400: 0x0E07 [0x23] WAIT_FOR_DIALOG_INTERACTION
401: 0x0E08 [0x52] END_LOAD_SCHEDULER: End scheduler "cl41" with entities [LocalPlayer, LocalPlayer], work=154*
402: 0x0E17 [0x45] LOAD_SCHEDULED_TASK: Load scheduler "cl42" with entities [LocalPlayer, LocalPlayer], work=[154*, 0*]
403: 0x0E28 [0x2B] Nag'molada (ID: 17531212/0x010B814C) [7471*]:
    → "And once they do, the Emptiness will disappear in the crystal's radiance, and the Zilart will have accomplished their dream."
404: 0x0E2F [0x23] WAIT_FOR_DIALOG_INTERACTION
405: 0x0E30 [0x2B] Nag'molada (ID: 17531212/0x010B814C) [7472*]:
    → "Only the wretched terrestrial avatars stand in our way...!"
406: 0x0E37 [0x23] WAIT_FOR_DIALOG_INTERACTION
407: 0x0E38 [0x27] REQ_SET(priority=0x10, entity_id=Unnamed NPC (ID: 17531209/0x010B8149), tag_num=0x06)
408: 0x0E3F [0x52] END_LOAD_SCHEDULER: End scheduler "cl42" with entities [LocalPlayer, LocalPlayer], work=154*
409: 0x0E4E [0x45] LOAD_SCHEDULED_TASK: Load scheduler "cl43" with entities [LocalPlayer, LocalPlayer], work=[154*, 0*]
410: 0x0E5F [0x5B] LOAD_EXT_SCHEDULER: Load scheduler "iai0" with entities [Tenzen (ID: 17531211/0x010B814B), Tenzen (ID: 17531211/0x010B814B)], work=427*
411: 0x0E6E [0x45] LOAD_SCHEDULED_TASK: Load scheduler "c045" with entities [LocalPlayer, LocalPlayer], work=[154*, 0*]
412: 0x0E7F [0x2B] Tenzen (ID: 17531211/0x010B814B) [7473*]:
    → "That is enough! Before I slice you in two, I will give you the opportunity to recall the words of Diabolos!"
413: 0x0E86 [0x23] WAIT_FOR_DIALOG_INTERACTION
414: 0x0E87 [0x2B] Tenzen (ID: 17531211/0x010B814B) [7474*]:
    → "Wake up! You are all bound like marionettes by the chains of Promathia!"
415: 0x0E8E [0x23] WAIT_FOR_DIALOG_INTERACTION
416: 0x0E8F [0x52] END_LOAD_SCHEDULER: End scheduler "cl43" with entities [LocalPlayer, LocalPlayer], work=154*
417: 0x0E9E [0x45] LOAD_SCHEDULED_TASK: Load scheduler "cl70" with entities [LocalPlayer, LocalPlayer], work=[154*, 0*]
418: 0x0EAF [0x2B] Tenzen (ID: 17531211/0x010B814B) [7475*]:
    → "When the Gates of Paradise open, our world will be no more!"
419: 0x0EB6 [0x23] WAIT_FOR_DIALOG_INTERACTION
420: 0x0EB7 [0x52] END_LOAD_SCHEDULER: End scheduler "cl70" with entities [LocalPlayer, LocalPlayer], work=154*
421: 0x0EC6 [0x45] LOAD_SCHEDULED_TASK: Load scheduler "cl71" with entities [LocalPlayer, LocalPlayer], work=[154*, 0*]
422: 0x0ED7 [0x2B] Nag'molada (ID: 17531212/0x010B814C) [7476*]:
    → "But with an end always comes a new beginning..."
423: 0x0EDE [0x23] WAIT_FOR_DIALOG_INTERACTION
424: 0x0EDF [0x52] END_LOAD_SCHEDULER: End scheduler "cl71" with entities [LocalPlayer, LocalPlayer], work=154*
425: 0x0EEE [0x45] LOAD_SCHEDULED_TASK: Load scheduler "cl45" with entities [LocalPlayer, LocalPlayer], work=[154*, 0*]
426: 0x0EFF [0x5B] LOAD_EXT_SCHEDULER: Load scheduler "tla0" with entities [Nag'molada (ID: 17531212/0x010B814C), Nag'molada (ID: 17531212/0x010B814C)], work=465*
427: 0x0F0E [0x2B] Nag'molada (ID: 17531212/0x010B814C) [7477*]:
    → "Tenzen! Have you asked your precious Phoenix what actually happens when our world "is no more"?"
428: 0x0F15 [0x23] WAIT_FOR_DIALOG_INTERACTION
429: 0x0F16 [0x5B] LOAD_EXT_SCHEDULER: Load scheduler "tla1" with entities [Nag'molada (ID: 17531212/0x010B814C), Nag'molada (ID: 17531212/0x010B814C)], work=465*
430: 0x0F25 [0x45] LOAD_SCHEDULED_TASK: Load scheduler "s103" with entities [LocalPlayer, LocalPlayer], work=[154*, 0*]
431: 0x0F36 [0x5B] LOAD_EXT_SCHEDULER: Load scheduler "iai1" with entities [Tenzen (ID: 17531211/0x010B814B), Tenzen (ID: 17531211/0x010B814B)], work=427*
432: 0x0F45 [0x2B] Tenzen (ID: 17531211/0x010B814B) [7478*]:
    → "What do you mean!?"
433: 0x0F4C [0x23] WAIT_FOR_DIALOG_INTERACTION
434: 0x0F4D [0x45] LOAD_SCHEDULED_TASK: Load scheduler "k103" with entities [LocalPlayer, LocalPlayer], work=[154*, 0*]
435: 0x0F5E [0x52] END_LOAD_SCHEDULER: End scheduler "cl45" with entities [LocalPlayer, LocalPlayer], work=154*
436: 0x0F6D [0x45] LOAD_SCHEDULED_TASK: Load scheduler "cl48" with entities [LocalPlayer, LocalPlayer], work=[154*, 0*]
437: 0x0F7E [0x5B] LOAD_EXT_SCHEDULER: Load scheduler "tlc0" with entities [Nag'molada (ID: 17531212/0x010B814C), Nag'molada (ID: 17531212/0x010B814C)], work=643*
438: 0x0F8D [0x2B] Nag'molada (ID: 17531212/0x010B814C) [7479*]:
    → "Yes. The world we live in now is nothing but an illusion. Compared to Paradise, Vana'diel is a cesspool festering with pain and suffering, lost hopes and dreams..."
439: 0x0F94 [0x23] WAIT_FOR_DIALOG_INTERACTION
440: 0x0F95 [0x9C] STORE_CLIENT_LANGUAGE_ID(result=0x00)
441: 0x0F98 [0x02] IF !(ExtData[1]->WorkLocal[0] == 1*) GOTO 0x0FAB
442: 0x0FA0 [0x2B] Nag'molada (ID: 17531212/0x010B814C) [7480*]:
    → "Strict values waver in the winds of uncertainty, while you pilfer your precious time struggling to recognize the truths that peer back at you through the darkness. You are inclined to search aimlessly for hints of who you truly are, though you rarely discover them, and it is this failure that ultimately forces you to tread a vague path through your miserable lives."
443: 0x0FA7 [0x23] WAIT_FOR_DIALOG_INTERACTION
444: 0x0FA8 [0x01] GOTO 0x0FBB
445: 0x0FAB [0x2B] Nag'molada (ID: 17531212/0x010B814C) [7480*]:
    → "Strict values waver in the winds of uncertainty, while you pilfer your precious time struggling to recognize the truths that peer back at you through the darkness. You are inclined to search aimlessly for hints of who you truly are, though you rarely discover them, and it is this failure that ultimately forces you to tread a vague path through your miserable lives."
446: 0x0FB2 [0x23] WAIT_FOR_DIALOG_INTERACTION
447: 0x0FB3 [0x2B] Nag'molada (ID: 17531212/0x010B814C) [7481*]:
    → "Even confessions of the soul result in disagreement and inconsistency, thrusting your pitiful masses into utter chaos. It is this chaos that breeds evil--an evil that propels you into justifying deeds of malevolence to maintain your false sense of purity."
448: 0x0FBA [0x23] WAIT_FOR_DIALOG_INTERACTION

SUBROUTINE_0FBB:
449: 0x0FBB [0x2B] Nag'molada (ID: 17531212/0x010B814C) [7482*]:
    → "You were born into this world and this is the only world you know. That is why you fear its end. You fear it and you fight it."
450: 0x0FC2 [0x23] WAIT_FOR_DIALOG_INTERACTION
451: 0x0FC3 [0x2B] Nag'molada (ID: 17531212/0x010B814C) [7483*]:
    → "The terrestrial avatars recognized this characteristic of your people and have used it to their advantage. Why? Have you ever wondered why the terrestrial avatars are named so? It is because they, too, were born on Vana'diel. If Vana'diel returns to Paradise, they will be nothing but mere animals!"
452: 0x0FCA [0x23] WAIT_FOR_DIALOG_INTERACTION
453: 0x0FCB [0x52] END_LOAD_SCHEDULER: End scheduler "cl48" with entities [LocalPlayer, LocalPlayer], work=154*
454: 0x0FDA [0x45] LOAD_SCHEDULED_TASK: Load scheduler "cl49" with entities [LocalPlayer, LocalPlayer], work=[154*, 0*]
455: 0x0FEB [0x5B] LOAD_EXT_SCHEDULER: Load scheduler "tlh2" with entities [Tenzen (ID: 17531211/0x010B814B), Tenzen (ID: 17531211/0x010B814B)], work=640*
456: 0x0FFA [0x2B] Tenzen (ID: 17531211/0x010B814B) [7484*]:
    → "B-but..."
457: 0x1001 [0x23] WAIT_FOR_DIALOG_INTERACTION
458: 0x1002 [0x52] END_LOAD_SCHEDULER: End scheduler "cl49" with entities [LocalPlayer, LocalPlayer], work=154*
459: 0x1011 [0x5B] LOAD_EXT_SCHEDULER: Load scheduler "thb1" with entities [Nag'molada (ID: 17531212/0x010B814C), Nag'molada (ID: 17531212/0x010B814C)], work=465*
460: 0x1020 [0x52] END_LOAD_SCHEDULER: End scheduler "cl52" with entities [LocalPlayer, LocalPlayer], work=154*
461: 0x102F [0x45] LOAD_SCHEDULED_TASK: Load scheduler "cl53" with entities [LocalPlayer, LocalPlayer], work=[154*, 0*]
462: 0x1040 [0x2B] Nag'molada (ID: 17531212/0x010B814C) [7485*]:
    → "You people are nothing but puppets, your strings tied to the fingers of the terrestrial avatars, destined to a life of slavery. Why not open your eyes to the truth?"
463: 0x1047 [0x23] WAIT_FOR_DIALOG_INTERACTION
464: 0x1048 [0x5B] LOAD_EXT_SCHEDULER: Load scheduler "tlh3" with entities [Tenzen (ID: 17531211/0x010B814B), Tenzen (ID: 17531211/0x010B814B)], work=640*
465: 0x1057 [0x53] WAIT_SCHEDULER_TASK: Wait for scheduler "thb1" with entities [Nag'molada (ID: 17531212/0x010B814C), Nag'molada (ID: 17531212/0x010B814C)]
466: 0x1064 [0x5B] LOAD_EXT_SCHEDULER: Load scheduler "tlb0" with entities [Nag'molada (ID: 17531212/0x010B814C), Nag'molada (ID: 17531212/0x010B814C)], work=465*
467: 0x1073 [0x2B] Nag'molada (ID: 17531212/0x010B814C) [7486*]:
    → "Now that you realize your true enemies are the avatars who claim to protect you, your journey through the darkness is over."
468: 0x107A [0x23] WAIT_FOR_DIALOG_INTERACTION
469: 0x107B [0x2B] Nag'molada (ID: 17531212/0x010B814C) [7487*]:
    → "You can leave the rest to me. I shall change your destinies."
470: 0x1082 [0x23] WAIT_FOR_DIALOG_INTERACTION
471: 0x1083 [0x2B] Tenzen (ID: 17531211/0x010B814B) [7488*]:
    → "...!"
472: 0x108A [0x23] WAIT_FOR_DIALOG_INTERACTION
473: 0x108B [0x1A] CALL_SUBROUTINE(address=0x1501)
474: 0x108E [0x1C] WAIT(30* ticks)
475: 0x1091 [0x27] REQ_SET(priority=0x10, entity_id=Nag'molada (ID: 17531212/0x010B814C), tag_num=0x10)
476: 0x1098 [0x1C] WAIT(15* ticks)
477: 0x109B [0x52] END_LOAD_SCHEDULER: End scheduler "cl53" with entities [LocalPlayer, LocalPlayer], work=154*
478: 0x10AA [0x45] LOAD_SCHEDULED_TASK: Load scheduler "cl54" with entities [LocalPlayer, LocalPlayer], work=[154*, 0*]
479: 0x10BB [0x1A] CALL_SUBROUTINE(address=0x14E0)
480: 0x10BE [0x2B] Nag'molada (ID: 17531212/0x010B814C) [7489*]:
    → "The light Selh'teus has gathered from the mothercrystals... If the celestial capital of Al'Taieu still does exist, then the Zilart's plan is..."
481: 0x10C5 [0x23] WAIT_FOR_DIALOG_INTERACTION
482: 0x10C6 [0x2A] GET_REQ_LEVEL(level=16, entity_id=Nag'molada (ID: 17531212/0x010B814C))
483: 0x10CC [0x27] REQ_SET(priority=0x10, entity_id=Unnamed NPC (ID: 17531209/0x010B8149), tag_num=0x05)
484: 0x10D3 [0x52] END_LOAD_SCHEDULER: End scheduler "cl54" with entities [LocalPlayer, LocalPlayer], work=154*
485: 0x10E2 [0x45] LOAD_SCHEDULED_TASK: Load scheduler "cl55" with entities [LocalPlayer, LocalPlayer], work=[154*, 0*]
486: 0x10F3 [0x2B] Nag'molada (ID: 17531212/0x010B814C) [7490*]:
    → "This monitoring device will inform me of the crystal's memories... The memories will guide me..."
487: 0x10FA [0x23] WAIT_FOR_DIALOG_INTERACTION
488: 0x10FB [0x2B] Nag'molada (ID: 17531212/0x010B814C) [7491*]:
    → "Let your memories show me the truth I seek!"
489: 0x1102 [0x23] WAIT_FOR_DIALOG_INTERACTION
490: 0x1103 [0x45] LOAD_SCHEDULED_TASK: Load scheduler "s060" with entities [LocalPlayer, LocalPlayer], work=[153*, 0*]
491: 0x1114 [0x5D] SET_MUSIC_VOLUME(volume=0*, fade_time=300*)
492: 0x1119 [0x1C] WAIT(600* ticks)
493: 0x111C [0x52] END_LOAD_SCHEDULER: End scheduler "cl55" with entities [LocalPlayer, LocalPlayer], work=154*
494: 0x112B [0x29] REQ_SET_WAIT(priority=0x0F, entity_id=DIRECTOR (ID: 17531204/0x010B8144), tag_num=0x01)
495: 0x1132 [0x34] LOAD_UNLOAD_ZONE(zone_id=540*)
496: 0x1135 [0x77] SET_EVENT_TIME_WEATHER(hour=12*, weather=2*)
497: 0x113A [0x1C] WAIT(15* ticks)
498: 0x113D [0x2D] CREATE_ZONE_SCHEDULER_TASK: Create scheduler "1off" with entities [EventEntity, EventEntity]
499: 0x114A [0x2D] CREATE_ZONE_SCHEDULER_TASK: Create scheduler "2off" with entities [EventEntity, EventEntity]
500: 0x1157 [0x2D] CREATE_ZONE_SCHEDULER_TASK: Create scheduler "3off" with entities [EventEntity, EventEntity]
501: 0x1164 [0x2D] CREATE_ZONE_SCHEDULER_TASK: Create scheduler "4off" with entities [EventEntity, EventEntity]
502: 0x1171 [0x2D] CREATE_ZONE_SCHEDULER_TASK: Create scheduler "5off" with entities [EventEntity, EventEntity]
503: 0x117E [0x27] REQ_SET(priority=0x10, entity_id=Tenzen (ID: 17531211/0x010B814B), tag_num=0x04)
504: 0x1185 [0x27] REQ_SET(priority=0x10, entity_id=Nag'molada (ID: 17531212/0x010B814C), tag_num=0x04)
505: 0x118C [0x27] REQ_SET(priority=0x10, entity_id=LocalPlayer, tag_num=0x2E)
506: 0x1193 [0x27] REQ_SET(priority=0x10, entity_id=Tenzen (ID: 17531211/0x010B814B), tag_num=0x0E)
507: 0x119A [0x27] REQ_SET(priority=0x10, entity_id=Nag'molada (ID: 17531212/0x010B814C), tag_num=0x11)
508: 0x11A1 [0x80] LOAD_WAIT(entity=LocalPlayer)
509: 0x11A6 [0x80] LOAD_WAIT(entity=Tenzen (ID: 17531211/0x010B814B))
510: 0x11AB [0x80] LOAD_WAIT(entity=Nag'molada (ID: 17531212/0x010B814C))
511: 0x11B0 [0x5B] LOAD_EXT_SCHEDULER: Load scheduler "ztu0" with entities [Nag'molada (ID: 17531212/0x010B814C), Nag'molada (ID: 17531212/0x010B814C)], work=466*
512: 0x11BF [0x5B] LOAD_EXT_SCHEDULER: Load scheduler "rei2" with entities [Tenzen (ID: 17531211/0x010B814B), Tenzen (ID: 17531211/0x010B814B)], work=641*
513: 0x11CE [0x53] WAIT_SCHEDULER_TASK: Wait for scheduler "rei2" with entities [Tenzen (ID: 17531211/0x010B814B), Tenzen (ID: 17531211/0x010B814B)]
514: 0x11DB [0x45] LOAD_SCHEDULED_TASK: Load scheduler "cl58" with entities [LocalPlayer, LocalPlayer], work=[154*, 0*]
515: 0x11EC [0x1A] CALL_SUBROUTINE(address=0x1522)
516: 0x11EF [0x55] WAIT_LOAD_SCHEDULER: Wait for scheduler "cl58" with entities [LocalPlayer, LocalPlayer], work=154*
517: 0x11FE [0x45] LOAD_SCHEDULED_TASK: Load scheduler "cl59" with entities [LocalPlayer, LocalPlayer], work=[154*, 0*]
518: 0x120F [0x2B] Nag'molada (ID: 17531212/0x010B814C) [7492*]:
    → "Argh... I'm only receiving partial data... There's still too much interference coming from the fifth crystal..."
519: 0x1216 [0x23] WAIT_FOR_DIALOG_INTERACTION
520: 0x1217 [0x2B] Nag'molada (ID: 17531212/0x010B814C) [7493*]:
    → "But that image... I've seen it somewhere before... It was...the Chamber of Eventide. And that was Esha'ntarl!"
521: 0x121E [0x23] WAIT_FOR_DIALOG_INTERACTION
522: 0x121F [0x2B] Nag'molada (ID: 17531212/0x010B814C) [7494*]:
    → "Yes... It's all clear now..."
523: 0x1226 [0x52] END_LOAD_SCHEDULER: End scheduler "cl59" with entities [LocalPlayer, LocalPlayer], work=154*
524: 0x1235 [0x45] LOAD_SCHEDULED_TASK: Load scheduler "cl60" with entities [LocalPlayer, LocalPlayer], work=[154*, 0*]
525: 0x1246 [0x5B] LOAD_EXT_SCHEDULER: Load scheduler "ztu1" with entities [Nag'molada (ID: 17531212/0x010B814C), Nag'molada (ID: 17531212/0x010B814C)], work=466*
526: 0x1255 [0x1C] WAIT(120* ticks)
527: 0x1258 [0x1A] CALL_SUBROUTINE(address=0x1501)
528: 0x125B [0x1C] WAIT(30* ticks)
529: 0x125E [0x6C] FADE_ENTITY_COLOR(entity_id=Nag'molada (ID: 17531212/0x010B814C), end_alpha=0*, fade_time=1*)
530: 0x1267 [0x53] WAIT_SCHEDULER_TASK: Wait for scheduler "ztu1" with entities [Nag'molada (ID: 17531212/0x010B814C), Nag'molada (ID: 17531212/0x010B814C)]
531: 0x1274 [0x52] END_LOAD_SCHEDULER: End scheduler "cl60" with entities [LocalPlayer, LocalPlayer], work=154*
532: 0x1283 [0x1C] WAIT(60* ticks)
533: 0x1286 [0x5C] MUSIC_CONTROL: Set Idle (Day) music to song 243*
534: 0x128A [0x5C] MUSIC_CONTROL: Set Idle (Night) music to song 243*
535: 0x128E [0x5C] MUSIC_CONTROL: Set Combat (Solo) music to song 243*
536: 0x1292 [0x5C] MUSIC_CONTROL: Set Combat (Party) music to song 243*
537: 0x1296 [0x9A] WAIT_MUSIC_SERVER()
538: 0x1297 [0x45] LOAD_SCHEDULED_TASK: Load scheduler "cl62" with entities [LocalPlayer, LocalPlayer], work=[154*, 0*]
539: 0x12A8 [0x1A] CALL_SUBROUTINE(address=0x14E0)
540: 0x12AB [0x79] LocalPlayer looks at Tenzen (ID: 17531211/0x010B814B) (Basic look)
541: 0x12B5 [0x2B] Tenzen (ID: 17531211/0x010B814B) [7442*]:
    → "..."
542: 0x12BC [0x23] WAIT_FOR_DIALOG_INTERACTION
543: 0x12BD [0x55] WAIT_LOAD_SCHEDULER: Wait for scheduler "cl62" with entities [LocalPlayer, LocalPlayer], work=154*
544: 0x12CC [0x45] LOAD_SCHEDULED_TASK: Load scheduler "cl63" with entities [LocalPlayer, LocalPlayer], work=[154*, 0*]
545: 0x12DD [0x2B] Tenzen (ID: 17531211/0x010B814B) [7495*]:
    → "Could it be...?"
546: 0x12E4 [0x23] WAIT_FOR_DIALOG_INTERACTION
547: 0x12E5 [0x2B] Tenzen (ID: 17531211/0x010B814B) [7496*]:
    → "Nag'molada said that the terrestrial avatars are using us... Using us to prevent people from waking up and realizing the truth...?"
548: 0x12EC [0x23] WAIT_FOR_DIALOG_INTERACTION
549: 0x12ED [0x5B] LOAD_EXT_SCHEDULER: Load scheduler "rei3" with entities [Tenzen (ID: 17531211/0x010B814B), Tenzen (ID: 17531211/0x010B814B)], work=641*
550: 0x12FC [0x2B] Tenzen (ID: 17531211/0x010B814B) [7497*]:
    → "But if that is true... The people who gave their lives for this flame... I... I..."
551: 0x1303 [0x23] WAIT_FOR_DIALOG_INTERACTION
552: 0x1304 [0x53] WAIT_SCHEDULER_TASK: Wait for scheduler "rei3" with entities [Tenzen (ID: 17531211/0x010B814B), Tenzen (ID: 17531211/0x010B814B)]
553: 0x1311 [0x45] LOAD_SCHEDULED_TASK: Load scheduler "4001" with entities [LocalPlayer, LocalPlayer], work=[154*, 0*]
554: 0x1322 [0x5B] LOAD_EXT_SCHEDULER: Load scheduler "hou0" with entities [Tenzen (ID: 17531211/0x010B814B), Tenzen (ID: 17531211/0x010B814B)], work=427*
555: 0x1331 [0x52] END_LOAD_SCHEDULER: End scheduler "cl63" with entities [LocalPlayer, LocalPlayer], work=154*
556: 0x1340 [0x45] LOAD_SCHEDULED_TASK: Load scheduler "cl64" with entities [LocalPlayer, LocalPlayer], work=[154*, 0*]
557: 0x1351 [0x2B] Tenzen (ID: 17531211/0x010B814B) [7498*]:
    → "Phoenix! Answer me!"
558: 0x1358 [0x23] WAIT_FOR_DIALOG_INTERACTION
559: 0x1359 [0x52] END_LOAD_SCHEDULER: End scheduler "cl64" with entities [LocalPlayer, LocalPlayer], work=154*
560: 0x1368 [0x45] LOAD_SCHEDULED_TASK: Load scheduler "cl65" with entities [LocalPlayer, LocalPlayer], work=[154*, 0*]
561: 0x1379 [0x2B] Tenzen (ID: 17531211/0x010B814B) [7499*]:
    → "To grant you this form, lives were lost, villages destroyed..."
562: 0x1380 [0x23] WAIT_FOR_DIALOG_INTERACTION
563: 0x1381 [0x2B] Tenzen (ID: 17531211/0x010B814B) [7500*]:
    → "The lifeblood you drank from my people...was it not to save Vana'diel!? Was it not to breathe hope back into her children!?"
564: 0x1388 [0x23] WAIT_FOR_DIALOG_INTERACTION
565: 0x1389 [0x45] LOAD_SCHEDULED_TASK: Load scheduler "s203" with entities [LocalPlayer, LocalPlayer], work=[154*, 0*]
566: 0x139A [0x1C] WAIT(120* ticks)
567: 0x139D [0x2B] Tenzen (ID: 17531211/0x010B814B) [7442*]:
    → "..."
568: 0x13A4 [0x23] WAIT_FOR_DIALOG_INTERACTION
569: 0x13A5 [0x45] LOAD_SCHEDULED_TASK: Load scheduler "k203" with entities [LocalPlayer, LocalPlayer], work=[154*, 0*]
570: 0x13B6 [0x52] END_LOAD_SCHEDULER: End scheduler "cl65" with entities [LocalPlayer, LocalPlayer], work=154*
571: 0x13C5 [0x45] LOAD_SCHEDULED_TASK: Load scheduler "cl66" with entities [LocalPlayer, LocalPlayer], work=[154*, 0*]
572: 0x13D6 [0x5B] LOAD_EXT_SCHEDULER: Load scheduler "hou1" with entities [Tenzen (ID: 17531211/0x010B814B), Tenzen (ID: 17531211/0x010B814B)], work=427*
573: 0x13E5 [0x53] WAIT_SCHEDULER_TASK: Wait for scheduler "hou1" with entities [Tenzen (ID: 17531211/0x010B814B), Tenzen (ID: 17531211/0x010B814B)]
574: 0x13F2 [0x2B] Tenzen (ID: 17531211/0x010B814B) [7501*]:
    → "... And once again you tell me to visit Fenrir..."
575: 0x13F9 [0x23] WAIT_FOR_DIALOG_INTERACTION
576: 0x13FA [0x2B] Tenzen (ID: 17531211/0x010B814B) [7502*]:
    → "Where? The southern tower of Pso'Xja?"
577: 0x1401 [0x23] WAIT_FOR_DIALOG_INTERACTION
578: 0x1402 [0x52] END_LOAD_SCHEDULER: End scheduler "cl66" with entities [LocalPlayer, LocalPlayer], work=154*
579: 0x1411 [0x45] LOAD_SCHEDULED_TASK: Load scheduler "cl67" with entities [LocalPlayer, LocalPlayer], work=[154*, 0*]
580: 0x1422 [0x2B] Tenzen (ID: 17531211/0x010B814B) [7503*]:
    → "Is that all!?"
581: 0x1429 [0x23] WAIT_FOR_DIALOG_INTERACTION
582: 0x142A [0x2B] Tenzen (ID: 17531211/0x010B814B) [7504*]:
    → "We shall see what truths the final avatar presents us with. We shall see if we are simply being made fools of!"
583: 0x1431 [0x23] WAIT_FOR_DIALOG_INTERACTION
584: 0x1432 [0x27] REQ_SET(priority=0x10, entity_id=Tenzen (ID: 17531211/0x010B814B), tag_num=0x0F)
585: 0x1439 [0x52] END_LOAD_SCHEDULER: End scheduler "cl67" with entities [LocalPlayer, LocalPlayer], work=154*
586: 0x1448 [0x45] LOAD_SCHEDULED_TASK: Load scheduler "cl68" with entities [LocalPlayer, LocalPlayer], work=[154*, 0*]
587: 0x1459 [0x1C] WAIT(90* ticks)
588: 0x145C [0x4A] LocalPlayer looks at Tenzen (ID: 17531211/0x010B814B)
589: 0x1465 [0x1C] WAIT(30* ticks)
590: 0x1468 [0x1A] CALL_SUBROUTINE(address=0x1501)
591: 0x146B [0x1C] WAIT(30* ticks)
592: 0x146E [0x35] LOAD_ZONE_NO_CLOSE(zone_id=184*)
593: 0x1471 [0x78] ENABLE_GAME_TIMER_RESET_WEATHER()
594: 0x1472 [0x1C] WAIT(15* ticks)
