# 17531185

## Common Data

| Field            | Value                            |
|------------------|----------------------------------|
| Zone             | Lower Delkfutt's Tower (ID: 184) |
| Block Size       | 172 bytes                        |
| Total Events     | 4                                |
| References Count | 15                               |

## List of Events

| Event ID                 | Entrypoint   |   Size |   Instructions |
|--------------------------|--------------|--------|----------------|
| [65535](#event-65535)    | 0x0000       |     13 |              3 |
| [36](#event-36)          | 0x000D       |      1 |              1 |
| [65535.1](#event-655351) | 0x000E       |     25 |              3 |
| [65535.2](#event-655352) | 0x0027       |     38 |             10 |

## DAT References (imed_data)

|   Index | Hex Value   |   Dec Value |
|---------|-------------|-------------|
|       0 | 0x0018      |          24 |
|       1 | 0xFFFEB3E7  |  4294882279 |
|       2 | 0xFFFF7B1C  |  4294933276 |
|       3 | 0x0BCA      |        3018 |
|       4 | 0x00E9      |         233 |
|       5 | 0x0021      |          33 |
|       6 | 0x05B9      |        1465 |
|       7 | 0xFFFEB422  |  4294882338 |
|       8 | 0xFFFF7B95  |  4294933397 |
|       9 | 0x058C      |        1420 |
|      10 | 0xFFFECA55  |  4294888021 |
|      11 | 0xFFFF7C5C  |  4294933596 |
|      12 | 0x03C3      |         963 |
|      13 | 0xFFFEF936  |  4294900022 |
|      14 | 0x0BA7      |        2983 |

## Events

### Event 65535

#### Metadata

| Field        | Value    |
|--------------|----------|
| Entrypoint   | 0x0000   |
| Data Size    | 13 bytes |
| Instructions | 3        |

```
      00 01 02 03 04 05 06 07  08 09 0A 0B 0C 0D 0E 0F
      -- -- -- -- -- -- -- --  -- -- -- -- -- -- -- --
0000: 94 01 F8 FF FF 7F 92 01  F8 FF FF 7F 00           .............   
```

#### Opcodes

```
  0: 0x0000 [0x94] EventEntity->Render.Flags3 ^= 0x01
  1: 0x0006 [0x92] EventEntity->Render.Flags3 ^= 0x01
  2: 0x000C [0x00] END_REQSTACK()
```

### Event 36

#### Metadata

| Field        | Value   |
|--------------|---------|
| Entrypoint   | 0x000D  |
| Data Size    | 1 bytes |
| Instructions | 1       |

```
      00 01 02 03 04 05 06 07  08 09 0A 0B 0C 0D 0E 0F
      -- -- -- -- -- -- -- --  -- -- -- -- -- -- -- --
0000:                                         00                     .  
```

#### Opcodes

```
  0: 0x000D [0x00] END_REQSTACK()
```

### Event 65535.1

#### Metadata

| Field        | Value    |
|--------------|----------|
| Entrypoint   | 0x000E   |
| Data Size    | 25 bytes |
| Instructions | 3        |

```
      00 01 02 03 04 05 06 07  08 09 0A 0B 0C 0D 0E 0F
      -- -- -- -- -- -- -- --  -- -- -- -- -- -- -- --
0000:                                            37 00                7.
0010: 80 01 80 02 80 03 80 5B  04 80 F8 FF FF 7F F8 FF  .......[........
0020: FF 7F 70 6E 6C 31 00                              ..pnl1.         
```

#### Opcodes

```
  0: 0x000E [0x37] UPDATE_EVENT_POSITION_AND_DIR: x=0.024*, z=-85.017*, y=-34.020*, direction=265.2°*
  1: 0x0017 [0x5B] LOAD_EXT_SCHEDULER: Load scheduler "pnl1" with entities [EventEntity, EventEntity], work=233*
  2: 0x0026 [0x00] END_REQSTACK()
```

### Event 65535.2

#### Metadata

| Field        | Value    |
|--------------|----------|
| Entrypoint   | 0x0027   |
| Data Size    | 38 bytes |
| Instructions | 10       |

```
      00 01 02 03 04 05 06 07  08 09 0A 0B 0C 0D 0E 0F
      -- -- -- -- -- -- -- --  -- -- -- -- -- -- -- --
0020:                      32  05 80 1F 00 06 80 07 80         2........
0030: 08 80 1F 01 1F 00 09 80  0A 80 0B 80 1F 01 1F 00  ................
0040: 0C 80 0D 80 0B 80 1F 01  6F 39 0E 80 00           ........o9...   
```

#### Opcodes

```
  0: 0x0027 [0x32] ExtData[1]->MainSpeed = 33* * 0.1
  1: 0x002A [0x1F] MOVE_ENTITY: EventEntity moves to X=1.465*, Z=-84.958*, Y=-33.899*
  2: 0x0032 [0x1F] MOVE_ENTITY: Update entity position (mode=1)
  3: 0x0034 [0x1F] MOVE_ENTITY: EventEntity moves to X=1.420*, Z=-79.275*, Y=-33.700*
  4: 0x003C [0x1F] MOVE_ENTITY: Update entity position (mode=1)
  5: 0x003E [0x1F] MOVE_ENTITY: EventEntity moves to X=0.963*, Z=-67.274*, Y=-33.700*
  6: 0x0046 [0x1F] MOVE_ENTITY: Update entity position (mode=1)
  7: 0x0048 [0x6F] WAIT_FRAME_DELAY: Yield until WaitTime reaches zero
  8: 0x0049 [0x39] SET_ENTITY_DIRECTION(direction=16.4°*)
  9: 0x004C [0x00] END_REQSTACK()
```
