# 17531168 - Lion

## Common Data

| Field            | Value                            |
|------------------|----------------------------------|
| Zone             | Lower Delkfutt's Tower (ID: 184) |
| Block Size       | 412 bytes                        |
| Total Events     | 14                               |
| References Count | 15                               |

## List of Events

| Event ID                   | Entrypoint   |   Size |   Instructions |
|----------------------------|--------------|--------|----------------|
| [65535](#event-65535)      | 0x0000       |      1 |              1 |
| [15](#event-15)            | 0x0001       |     10 |              2 |
| [65535.1](#event-655351)   | 0x000B       |     15 |              5 |
| [65535.2](#event-655352)   | 0x001A       |     19 |              7 |
| [65535.3](#event-655353)   | 0x002D       |     27 |             11 |
| [65535.4](#event-655354)   | 0x0048       |     13 |              4 |
| [65535.5](#event-655355)   | 0x0055       |     19 |              3 |
| [65535.6](#event-655356)   | 0x0068       |     29 |              3 |
| [65535.7](#event-655357)   | 0x0085       |     19 |              3 |
| [65535.8](#event-655358)   | 0x0098       |     29 |              3 |
| [65535.9](#event-655359)   | 0x00B5       |     19 |              3 |
| [65535.10](#event-6553510) | 0x00C8       |     29 |              3 |
| [65535.11](#event-6553511) | 0x00E5       |     19 |              3 |
| [65535.12](#event-6553512) | 0x00F8       |     29 |              3 |

## DAT References (imed_data)

|   Index | Hex Value   |   Dec Value |
|---------|-------------|-------------|
|       0 | 0x70589     |      460169 |
|       1 | 0xFFFED7B4  |  4294891444 |
|       2 | 0x0000      |           0 |
|       3 | 0x0BF6      |        3062 |
|       4 | 0x000D      |          13 |
|       5 | 0x70507     |      460039 |
|       6 | 0xFFFEF11B  |  4294897947 |
|       7 | 0x7011C     |      459036 |
|       8 | 0xFFFEED87  |  4294897031 |
|       9 | 0x001E      |          30 |
|      10 | 0x003C      |          60 |
|      11 | 0x700F3     |      458995 |
|      12 | 0xFFFFFA27  |  4294965799 |
|      13 | 0x005F      |          95 |
|      14 | 0x0060      |          96 |

## Events

### Event 65535

#### Metadata

| Field        | Value   |
|--------------|---------|
| Entrypoint   | 0x0000  |
| Data Size    | 1 bytes |
| Instructions | 1       |

```
      00 01 02 03 04 05 06 07  08 09 0A 0B 0C 0D 0E 0F
      -- -- -- -- -- -- -- --  -- -- -- -- -- -- -- --
0000: 00                                                .               
```

#### Opcodes

```
  0: 0x0000 [0x00] END_REQSTACK()
```

### Event 15

#### Metadata

| Field        | Value    |
|--------------|----------|
| Entrypoint   | 0x0001   |
| Data Size    | 10 bytes |
| Instructions | 2        |

```
      00 01 02 03 04 05 06 07  08 09 0A 0B 0C 0D 0E 0F
      -- -- -- -- -- -- -- --  -- -- -- -- -- -- -- --
0000:    37 00 80 01 80 02 80  03 80 00                  7.........     
```

#### Opcodes

```
  0: 0x0001 [0x37] UPDATE_EVENT_POSITION_AND_DIR: x=460.169*, z=-75.852*, y=0.000*, direction=269.1°*
  1: 0x000A [0x00] END_REQSTACK()
```

### Event 65535.1

#### Metadata

| Field        | Value    |
|--------------|----------|
| Entrypoint   | 0x000B   |
| Data Size    | 15 bytes |
| Instructions | 5        |

```
      00 01 02 03 04 05 06 07  08 09 0A 0B 0C 0D 0E 0F
      -- -- -- -- -- -- -- --  -- -- -- -- -- -- -- --
0000:                                   32 04 80 1F 00             2....
0010: 05 80 06 80 02 80 1F 01  6F 00                    ........o.      
```

#### Opcodes

```
  0: 0x000B [0x32] ExtData[1]->MainSpeed = 13* * 0.1
  1: 0x000E [0x1F] MOVE_ENTITY: EventEntity moves to X=460.039*, Z=-69.349*, Y=0.000*
  2: 0x0016 [0x1F] MOVE_ENTITY: Update entity position (mode=1)
  3: 0x0018 [0x6F] WAIT_FRAME_DELAY: Yield until WaitTime reaches zero
  4: 0x0019 [0x00] END_REQSTACK()
```

### Event 65535.2

#### Metadata

| Field        | Value    |
|--------------|----------|
| Entrypoint   | 0x001A   |
| Data Size    | 19 bytes |
| Instructions | 7        |

```
      00 01 02 03 04 05 06 07  08 09 0A 0B 0C 0D 0E 0F
      -- -- -- -- -- -- -- --  -- -- -- -- -- -- -- --
0010:                                1F 00 07 80 08 80            ......
0020: 02 80 1F 01 6F 1E 21 81  0B 01 6F 70 00           ....o.!...op.   
```

#### Opcodes

```
  0: 0x001A [0x1F] MOVE_ENTITY: EventEntity moves to X=459.036*, Z=-70.265*, Y=0.000*
  1: 0x0022 [0x1F] MOVE_ENTITY: Update entity position (mode=1)
  2: 0x0024 [0x6F] WAIT_FRAME_DELAY: Yield until WaitTime reaches zero
  3: 0x0025 [0x1E] EventEntity looks at Zeid (ID: 17531169/0x010B8121) and starts talking
  4: 0x002A [0x6F] WAIT_FRAME_DELAY: Yield until WaitTime reaches zero
  5: 0x002B [0x70] WAIT_ENTITY_RENDER_FLAG: Wait while EventEntity->Render.Flags3 bit 2 is set (cancel turn if not)
  6: 0x002C [0x00] END_REQSTACK()
```

### Event 65535.3

#### Metadata

| Field        | Value    |
|--------------|----------|
| Entrypoint   | 0x002D   |
| Data Size    | 27 bytes |
| Instructions | 11       |

```
      00 01 02 03 04 05 06 07  08 09 0A 0B 0C 0D 0E 0F
      -- -- -- -- -- -- -- --  -- -- -- -- -- -- -- --
0020:                                         1C 09 80               ...
0030: 39 02 80 1C 0A 80 1E 21  81 0B 01 6F 70 1C 0A 80  9......!...op...
0040: 1E 21 81 0B 01 6F 70 00                           .!...op.        
```

#### Opcodes

```
  0: 0x002D [0x1C] WAIT(30* ticks)
  1: 0x0030 [0x39] SET_ENTITY_DIRECTION(direction=0.0°*)
  2: 0x0033 [0x1C] WAIT(60* ticks)
  3: 0x0036 [0x1E] EventEntity looks at Zeid (ID: 17531169/0x010B8121) and starts talking
  4: 0x003B [0x6F] WAIT_FRAME_DELAY: Yield until WaitTime reaches zero
  5: 0x003C [0x70] WAIT_ENTITY_RENDER_FLAG: Wait while EventEntity->Render.Flags3 bit 2 is set (cancel turn if not)
  6: 0x003D [0x1C] WAIT(60* ticks)
  7: 0x0040 [0x1E] EventEntity looks at Zeid (ID: 17531169/0x010B8121) and starts talking
  8: 0x0045 [0x6F] WAIT_FRAME_DELAY: Yield until WaitTime reaches zero
  9: 0x0046 [0x70] WAIT_ENTITY_RENDER_FLAG: Wait while EventEntity->Render.Flags3 bit 2 is set (cancel turn if not)
 10: 0x0047 [0x00] END_REQSTACK()
```

### Event 65535.4

#### Metadata

| Field        | Value    |
|--------------|----------|
| Entrypoint   | 0x0048   |
| Data Size    | 13 bytes |
| Instructions | 4        |

```
      00 01 02 03 04 05 06 07  08 09 0A 0B 0C 0D 0E 0F
      -- -- -- -- -- -- -- --  -- -- -- -- -- -- -- --
0040:                          1F 00 0B 80 0C 80 02 80          ........
0050: 1F 01 22 01 00                                    .."..           
```

#### Opcodes

```
  0: 0x0048 [0x1F] MOVE_ENTITY: EventEntity moves to X=458.995*, Z=-1.497*, Y=0.000*
  1: 0x0050 [0x1F] MOVE_ENTITY: Update entity position (mode=1)
  2: 0x0052 [0x22] ENTITY_HIDE_FLAG(enabled=0x01)
  3: 0x0054 [0x00] END_REQSTACK()
```

### Event 65535.5

#### Metadata

| Field        | Value    |
|--------------|----------|
| Entrypoint   | 0x0055   |
| Data Size    | 19 bytes |
| Instructions | 3        |

```
      00 01 02 03 04 05 06 07  08 09 0A 0B 0C 0D 0E 0F
      -- -- -- -- -- -- -- --  -- -- -- -- -- -- -- --
0050:                5B 0D 80  F8 FF FF 7F F8 FF FF 7F       [..........
0060: 74 68 6B 31 1C 0A 80 00                           thk1....        
```

#### Opcodes

```
  0: 0x0055 [0x5B] LOAD_EXT_SCHEDULER: Load scheduler "thk1" with entities [EventEntity, EventEntity], work=95*
  1: 0x0064 [0x1C] WAIT(60* ticks)
  2: 0x0067 [0x00] END_REQSTACK()
```

### Event 65535.6

#### Metadata

| Field        | Value    |
|--------------|----------|
| Entrypoint   | 0x0068   |
| Data Size    | 29 bytes |
| Instructions | 3        |

```
      00 01 02 03 04 05 06 07  08 09 0A 0B 0C 0D 0E 0F
      -- -- -- -- -- -- -- --  -- -- -- -- -- -- -- --
0060:                          5B 0D 80 F8 FF FF 7F F8          [.......
0070: FF FF 7F 74 68 6B 32 53  F8 FF FF 7F F8 FF FF 7F  ...thk2S........
0080: 74 68 6B 32 00                                    thk2.           
```

#### Opcodes

```
  0: 0x0068 [0x5B] LOAD_EXT_SCHEDULER: Load scheduler "thk2" with entities [EventEntity, EventEntity], work=95*
  1: 0x0077 [0x53] WAIT_SCHEDULER_TASK: Wait for scheduler "thk2" with entities [EventEntity, EventEntity]
  2: 0x0084 [0x00] END_REQSTACK()
```

### Event 65535.7

#### Metadata

| Field        | Value    |
|--------------|----------|
| Entrypoint   | 0x0085   |
| Data Size    | 19 bytes |
| Instructions | 3        |

```
      00 01 02 03 04 05 06 07  08 09 0A 0B 0C 0D 0E 0F
      -- -- -- -- -- -- -- --  -- -- -- -- -- -- -- --
0080:                5B 0E 80  F8 FF FF 7F F8 FF FF 7F       [..........
0090: 74 6C 61 30 1C 0A 80 00                           tla0....        
```

#### Opcodes

```
  0: 0x0085 [0x5B] LOAD_EXT_SCHEDULER: Load scheduler "tla0" with entities [EventEntity, EventEntity], work=96*
  1: 0x0094 [0x1C] WAIT(60* ticks)
  2: 0x0097 [0x00] END_REQSTACK()
```

### Event 65535.8

#### Metadata

| Field        | Value    |
|--------------|----------|
| Entrypoint   | 0x0098   |
| Data Size    | 29 bytes |
| Instructions | 3        |

```
      00 01 02 03 04 05 06 07  08 09 0A 0B 0C 0D 0E 0F
      -- -- -- -- -- -- -- --  -- -- -- -- -- -- -- --
0090:                          5B 0E 80 F8 FF FF 7F F8          [.......
00A0: FF FF 7F 74 6C 61 31 53  F8 FF FF 7F F8 FF FF 7F  ...tla1S........
00B0: 74 6C 61 31 00                                    tla1.           
```

#### Opcodes

```
  0: 0x0098 [0x5B] LOAD_EXT_SCHEDULER: Load scheduler "tla1" with entities [EventEntity, EventEntity], work=96*
  1: 0x00A7 [0x53] WAIT_SCHEDULER_TASK: Wait for scheduler "tla1" with entities [EventEntity, EventEntity]
  2: 0x00B4 [0x00] END_REQSTACK()
```

### Event 65535.9

#### Metadata

| Field        | Value    |
|--------------|----------|
| Entrypoint   | 0x00B5   |
| Data Size    | 19 bytes |
| Instructions | 3        |

```
      00 01 02 03 04 05 06 07  08 09 0A 0B 0C 0D 0E 0F
      -- -- -- -- -- -- -- --  -- -- -- -- -- -- -- --
00B0:                5B 0E 80  F8 FF FF 7F F8 FF FF 7F       [..........
00C0: 74 6C 62 30 1C 0A 80 00                           tlb0....        
```

#### Opcodes

```
  0: 0x00B5 [0x5B] LOAD_EXT_SCHEDULER: Load scheduler "tlb0" with entities [EventEntity, EventEntity], work=96*
  1: 0x00C4 [0x1C] WAIT(60* ticks)
  2: 0x00C7 [0x00] END_REQSTACK()
```

### Event 65535.10

#### Metadata

| Field        | Value    |
|--------------|----------|
| Entrypoint   | 0x00C8   |
| Data Size    | 29 bytes |
| Instructions | 3        |

```
      00 01 02 03 04 05 06 07  08 09 0A 0B 0C 0D 0E 0F
      -- -- -- -- -- -- -- --  -- -- -- -- -- -- -- --
00C0:                          5B 0E 80 F8 FF FF 7F F8          [.......
00D0: FF FF 7F 74 6C 62 31 53  F8 FF FF 7F F8 FF FF 7F  ...tlb1S........
00E0: 74 6C 62 31 00                                    tlb1.           
```

#### Opcodes

```
  0: 0x00C8 [0x5B] LOAD_EXT_SCHEDULER: Load scheduler "tlb1" with entities [EventEntity, EventEntity], work=96*
  1: 0x00D7 [0x53] WAIT_SCHEDULER_TASK: Wait for scheduler "tlb1" with entities [EventEntity, EventEntity]
  2: 0x00E4 [0x00] END_REQSTACK()
```

### Event 65535.11

#### Metadata

| Field        | Value    |
|--------------|----------|
| Entrypoint   | 0x00E5   |
| Data Size    | 19 bytes |
| Instructions | 3        |

```
      00 01 02 03 04 05 06 07  08 09 0A 0B 0C 0D 0E 0F
      -- -- -- -- -- -- -- --  -- -- -- -- -- -- -- --
00E0:                5B 0E 80  F8 FF FF 7F F8 FF FF 7F       [..........
00F0: 74 6C 63 30 1C 0A 80 00                           tlc0....        
```

#### Opcodes

```
  0: 0x00E5 [0x5B] LOAD_EXT_SCHEDULER: Load scheduler "tlc0" with entities [EventEntity, EventEntity], work=96*
  1: 0x00F4 [0x1C] WAIT(60* ticks)
  2: 0x00F7 [0x00] END_REQSTACK()
```

### Event 65535.12

#### Metadata

| Field        | Value    |
|--------------|----------|
| Entrypoint   | 0x00F8   |
| Data Size    | 29 bytes |
| Instructions | 3        |

```
      00 01 02 03 04 05 06 07  08 09 0A 0B 0C 0D 0E 0F
      -- -- -- -- -- -- -- --  -- -- -- -- -- -- -- --
00F0:                          5B 0E 80 F8 FF FF 7F F8          [.......
0100: FF FF 7F 74 6C 63 31 53  F8 FF FF 7F F8 FF FF 7F  ...tlc1S........
0110: 74 6C 43 31 00                                    tlC1.           
```

#### Opcodes

```
  0: 0x00F8 [0x5B] LOAD_EXT_SCHEDULER: Load scheduler "tlc1" with entities [EventEntity, EventEntity], work=96*
  1: 0x0107 [0x53] WAIT_SCHEDULER_TASK: Wait for scheduler "tlC1" with entities [EventEntity, EventEntity]
  2: 0x0114 [0x00] END_REQSTACK()
```
