# 17531171 - Wolfgang

## Common Data

| Field            | Value                            |
|------------------|----------------------------------|
| Zone             | Lower Delkfutt's Tower (ID: 184) |
| Block Size       | 160 bytes                        |
| Total Events     | 5                                |
| References Count | 9                                |

## List of Events

| Event ID                 | Entrypoint   |   Size |   Instructions |
|--------------------------|--------------|--------|----------------|
| [65535](#event-65535)    | 0x0000       |     13 |              3 |
| [38](#event-38)          | 0x000D       |     10 |              2 |
| [65535.1](#event-655351) | 0x0017       |     16 |              2 |
| [65535.2](#event-655352) | 0x0027       |     29 |              3 |
| [65535.3](#event-655353) | 0x0044       |     18 |              5 |

## DAT References (imed_data)

|   Index | Hex Value   |   Dec Value |
|---------|-------------|-------------|
|       0 | 0x7032B     |      459563 |
|       1 | 0x2316F     |      143727 |
|       2 | 0x0000      |           0 |
|       3 | 0x0400      |        1024 |
|       4 | 0x019A      |         410 |
|       5 | 0x0028      |          40 |
|       6 | 0x704F3     |      460019 |
|       7 | 0x1F11D     |      127261 |
|       8 | 0x0050      |          80 |

## Events

### Event 65535

#### Metadata

| Field        | Value    |
|--------------|----------|
| Entrypoint   | 0x0000   |
| Data Size    | 13 bytes |
| Instructions | 3        |

```
      00 01 02 03 04 05 06 07  08 09 0A 0B 0C 0D 0E 0F
      -- -- -- -- -- -- -- --  -- -- -- -- -- -- -- --
0000: 94 01 F8 FF FF 7F 92 01  F8 FF FF 7F 00           .............   
```

#### Opcodes

```
  0: 0x0000 [0x94] EventEntity->Render.Flags3 ^= 0x01
  1: 0x0006 [0x92] EventEntity->Render.Flags3 ^= 0x01
  2: 0x000C [0x00] END_REQSTACK()
```

### Event 38

#### Metadata

| Field        | Value    |
|--------------|----------|
| Entrypoint   | 0x000D   |
| Data Size    | 10 bytes |
| Instructions | 2        |

```
      00 01 02 03 04 05 06 07  08 09 0A 0B 0C 0D 0E 0F
      -- -- -- -- -- -- -- --  -- -- -- -- -- -- -- --
0000:                                         37 00 80               7..
0010: 01 80 02 80 03 80 00                              .......         
```

#### Opcodes

```
  0: 0x000D [0x37] UPDATE_EVENT_POSITION_AND_DIR: x=459.563*, z=143.727*, y=0.000*, direction=90.0°*
  1: 0x0016 [0x00] END_REQSTACK()
```

### Event 65535.1

#### Metadata

| Field        | Value    |
|--------------|----------|
| Entrypoint   | 0x0017   |
| Data Size    | 16 bytes |
| Instructions | 2        |

```
      00 01 02 03 04 05 06 07  08 09 0A 0B 0C 0D 0E 0F
      -- -- -- -- -- -- -- --  -- -- -- -- -- -- -- --
0010:                      5B  04 80 F8 FF FF 7F F8 FF         [........
0020: FF 7F 62 6B 30 30 00                              ..bk00.         
```

#### Opcodes

```
  0: 0x0017 [0x5B] LOAD_EXT_SCHEDULER: Load scheduler "bk00" with entities [EventEntity, EventEntity], work=410*
  1: 0x0026 [0x00] END_REQSTACK()
```

### Event 65535.2

#### Metadata

| Field        | Value    |
|--------------|----------|
| Entrypoint   | 0x0027   |
| Data Size    | 29 bytes |
| Instructions | 3        |

```
      00 01 02 03 04 05 06 07  08 09 0A 0B 0C 0D 0E 0F
      -- -- -- -- -- -- -- --  -- -- -- -- -- -- -- --
0020:                      5B  04 80 F8 FF FF 7F F8 FF         [........
0030: FF 7F 62 6B 30 31 53 F8  FF FF 7F F8 FF FF 7F 62  ..bk01S........b
0040: 6B 30 31 00                                       k01.            
```

#### Opcodes

```
  0: 0x0027 [0x5B] LOAD_EXT_SCHEDULER: Load scheduler "bk01" with entities [EventEntity, EventEntity], work=410*
  1: 0x0036 [0x53] WAIT_SCHEDULER_TASK: Wait for scheduler "bk01" with entities [EventEntity, EventEntity]
  2: 0x0043 [0x00] END_REQSTACK()
```

### Event 65535.3

#### Metadata

| Field        | Value    |
|--------------|----------|
| Entrypoint   | 0x0044   |
| Data Size    | 18 bytes |
| Instructions | 5        |

```
      00 01 02 03 04 05 06 07  08 09 0A 0B 0C 0D 0E 0F
      -- -- -- -- -- -- -- --  -- -- -- -- -- -- -- --
0040:             32 05 80 31  00 06 80 07 80 02 80 08      2..1........
0050: 80 31 01 22 01 00                                 .1."..          
```

#### Opcodes

```
  0: 0x0044 [0x32] ExtData[1]->MainSpeed = 40* * 0.1
  1: 0x0047 [0x31] UPDATE_ENTITY_POSITION: Set EventEntity goal position to X=460.019*, Z=127.261*, Y=0.000*, Time=80*
  2: 0x0051 [0x31] UPDATE_ENTITY_POSITION: Move EventEntity towards goal position
  3: 0x0053 [0x22] ENTITY_HIDE_FLAG(enabled=0x01)
  4: 0x0055 [0x00] END_REQSTACK()
```
