# 17531170 - Wolfgang

## Common Data

| Field            | Value                            |
|------------------|----------------------------------|
| Zone             | Lower Delkfutt's Tower (ID: 184) |
| Block Size       | 664 bytes                        |
| Total Events     | 19                               |
| References Count | 44                               |

## List of Events

| Event ID                   | Entrypoint   |   Size |   Instructions |
|----------------------------|--------------|--------|----------------|
| [65535](#event-65535)      | 0x0000       |     13 |              3 |
| [22](#event-22)            | 0x000D       |     10 |              2 |
| [38](#event-38)            | 0x0017       |      1 |              1 |
| [39](#event-39)            | 0x0018       |      1 |              1 |
| [65535.1](#event-655351)   | 0x0019       |     30 |              9 |
| [65535.2](#event-655352)   | 0x0037       |     10 |              2 |
| [65535.3](#event-655353)   | 0x0041       |     25 |              6 |
| [65535.4](#event-655354)   | 0x005A       |     33 |              7 |
| [65535.5](#event-655355)   | 0x007B       |     29 |              3 |
| [65535.6](#event-655356)   | 0x0098       |     29 |              3 |
| [65535.7](#event-655357)   | 0x00B5       |     25 |              6 |
| [65535.8](#event-655358)   | 0x00CE       |     21 |              5 |
| [65535.9](#event-655359)   | 0x00E3       |     10 |              2 |
| [65535.10](#event-6553510) | 0x00ED       |     15 |              5 |
| [65535.11](#event-6553511) | 0x00FC       |     50 |             10 |
| [65535.12](#event-6553512) | 0x012E       |      4 |              2 |
| [65535.13](#event-6553513) | 0x0132       |     16 |              2 |
| [65535.14](#event-6553514) | 0x0142       |     42 |              4 |
| [65535.15](#event-6553515) | 0x016C       |     29 |              3 |

## DAT References (imed_data)

|   Index | Hex Value   |   Dec Value |
|---------|-------------|-------------|
|       0 | 0x27153     |      160083 |
|       1 | 0xFFFFAFD3  |  4294946771 |
|       2 | 0xFFFFB2E3  |  4294947555 |
|       3 | 0x0826      |        2086 |
|       4 | 0x0028      |          40 |
|       5 | 0x23E55     |      147029 |
|       6 | 0xFFFFB97C  |  4294949244 |
|       7 | 0xFFFFB168  |  4294947176 |
|       8 | 0x1360E     |       79374 |
|       9 | 0x4DBB      |       19899 |
|      10 | 0xFFFFB5C2  |  4294948290 |
|      11 | 0x70BD3     |      461779 |
|      12 | 0x1F8D2     |      129234 |
|      13 | 0x0000      |           0 |
|      14 | 0x079F      |        1951 |
|      15 | 0x000D      |          13 |
|      16 | 0x6FBDB     |      457691 |
|      17 | 0x1F89C     |      129180 |
|      18 | 0x6FFD0     |      458704 |
|      19 | 0x214D3     |      136403 |
|      20 | 0x0078      |         120 |
|      21 | 0x6FA63     |      457315 |
|      22 | 0x20660     |      132704 |
|      23 | 0x0009      |           9 |
|      24 | 0x0C16      |        3094 |
|      25 | 0x707FA     |      460794 |
|      26 | 0x2087D     |      133245 |
|      27 | 0x0463      |        1123 |
|      28 | 0x704F3     |      460019 |
|      29 | 0x1F11D     |      127261 |
|      30 | 0x7045A     |      459866 |
|      31 | 0x1E33D     |      123709 |
|      32 | 0x702A6     |      459430 |
|      33 | 0x19942     |      104770 |
|      34 | 0x0DAB      |        3499 |
|      35 | 0xFFFFFFE8  |  4294967272 |
|      36 | 0xFFFE3914  |  4294850836 |
|      37 | 0xFFFF7554  |  4294931796 |
|      38 | 0x0BFD      |        3069 |
|      39 | 0xFFFFFFDC  |  4294967260 |
|      40 | 0xFFFE4961  |  4294855009 |
|      41 | 0xFFFFFDD7  |  4294966743 |
|      42 | 0xFFFE8E3A  |  4294872634 |
|      43 | 0xFFFF7B95  |  4294933397 |

## Events

### Event 65535

#### Metadata

| Field        | Value    |
|--------------|----------|
| Entrypoint   | 0x0000   |
| Data Size    | 13 bytes |
| Instructions | 3        |

```
      00 01 02 03 04 05 06 07  08 09 0A 0B 0C 0D 0E 0F
      -- -- -- -- -- -- -- --  -- -- -- -- -- -- -- --
0000: 94 01 F8 FF FF 7F 92 01  F8 FF FF 7F 00           .............   
```

#### Opcodes

```
  0: 0x0000 [0x94] EventEntity->Render.Flags3 ^= 0x01
  1: 0x0006 [0x92] EventEntity->Render.Flags3 ^= 0x01
  2: 0x000C [0x00] END_REQSTACK()
```

### Event 22

#### Metadata

| Field        | Value    |
|--------------|----------|
| Entrypoint   | 0x000D   |
| Data Size    | 10 bytes |
| Instructions | 2        |

```
      00 01 02 03 04 05 06 07  08 09 0A 0B 0C 0D 0E 0F
      -- -- -- -- -- -- -- --  -- -- -- -- -- -- -- --
0000:                                         37 00 80               7..
0010: 01 80 02 80 03 80 00                              .......         
```

#### Opcodes

```
  0: 0x000D [0x37] UPDATE_EVENT_POSITION_AND_DIR: x=160.083*, z=-20.525*, y=-19.741*, direction=183.3°*
  1: 0x0016 [0x00] END_REQSTACK()
```

### Event 38

#### Metadata

| Field        | Value   |
|--------------|---------|
| Entrypoint   | 0x0017  |
| Data Size    | 1 bytes |
| Instructions | 1       |

```
      00 01 02 03 04 05 06 07  08 09 0A 0B 0C 0D 0E 0F
      -- -- -- -- -- -- -- --  -- -- -- -- -- -- -- --
0010:                      00                                  .        
```

#### Opcodes

```
  0: 0x0017 [0x00] END_REQSTACK()
```

### Event 39

#### Metadata

| Field        | Value   |
|--------------|---------|
| Entrypoint   | 0x0018  |
| Data Size    | 1 bytes |
| Instructions | 1       |

```
      00 01 02 03 04 05 06 07  08 09 0A 0B 0C 0D 0E 0F
      -- -- -- -- -- -- -- --  -- -- -- -- -- -- -- --
0010:                          00                               .       
```

#### Opcodes

```
  0: 0x0018 [0x00] END_REQSTACK()
```

### Event 65535.1

#### Metadata

| Field        | Value    |
|--------------|----------|
| Entrypoint   | 0x0019   |
| Data Size    | 30 bytes |
| Instructions | 9        |

```
      00 01 02 03 04 05 06 07  08 09 0A 0B 0C 0D 0E 0F
      -- -- -- -- -- -- -- --  -- -- -- -- -- -- -- --
0010:                             32 04 80 33 01 5A 00           2..3.Z.
0020: 05 80 06 80 07 80 5A 01  5A 00 08 80 09 80 0A 80  ......Z.Z.......
0030: 5A 01 33 00 22 01 00                              Z.3."..         
```

#### Opcodes

```
  0: 0x0019 [0x32] ExtData[1]->MainSpeed = 40* * 0.1
  1: 0x001C [0x33] EventEntity->Render.Flags0 |= 0x200000 // Bit 21 (flag=0x01)
  2: 0x001E [0x5A] UPDATE_EVENT_POSITION: Set EventEntity MovePosition to X=147.029*, Z=-18.052*, Y=-20.120*
  3: 0x0026 [0x5A] UPDATE_EVENT_POSITION: Move EventEntity incrementally towards MovePosition
  4: 0x0028 [0x5A] UPDATE_EVENT_POSITION: Set EventEntity MovePosition to X=79.374*, Z=19.899*, Y=-19.006*
  5: 0x0030 [0x5A] UPDATE_EVENT_POSITION: Move EventEntity incrementally towards MovePosition
  6: 0x0032 [0x33] EventEntity->Render.Flags0 &= ~ 0x200000 // Bit 21 (flag=0x00)
  7: 0x0034 [0x22] ENTITY_HIDE_FLAG(enabled=0x01)
  8: 0x0036 [0x00] END_REQSTACK()
```

### Event 65535.2

#### Metadata

| Field        | Value    |
|--------------|----------|
| Entrypoint   | 0x0037   |
| Data Size    | 10 bytes |
| Instructions | 2        |

```
      00 01 02 03 04 05 06 07  08 09 0A 0B 0C 0D 0E 0F
      -- -- -- -- -- -- -- --  -- -- -- -- -- -- -- --
0030:                      37  0B 80 0C 80 0D 80 0E 80         7........
0040: 00                                                .               
```

#### Opcodes

```
  0: 0x0037 [0x37] UPDATE_EVENT_POSITION_AND_DIR: x=461.779*, z=129.234*, y=0.000*, direction=171.5°*
  1: 0x0040 [0x00] END_REQSTACK()
```

### Event 65535.3

#### Metadata

| Field        | Value    |
|--------------|----------|
| Entrypoint   | 0x0041   |
| Data Size    | 25 bytes |
| Instructions | 6        |

```
      00 01 02 03 04 05 06 07  08 09 0A 0B 0C 0D 0E 0F
      -- -- -- -- -- -- -- --  -- -- -- -- -- -- -- --
0040:    32 0F 80 79 00 22 81  0B 01 29 81 0B 01 1F 00   2..y."...).....
0050: 10 80 11 80 0D 80 1F 01  6F 00                    ........o.      
```

#### Opcodes

```
  0: 0x0041 [0x32] ExtData[1]->MainSpeed = 13* * 0.1
  1: 0x0044 [0x79] Wolfgang (ID: 17531170/0x010B8122) looks at Crooked Arrow (ID: 17531177/0x010B8129) (Basic look)
  2: 0x004E [0x1F] MOVE_ENTITY: EventEntity moves to X=457.691*, Z=129.180*, Y=0.000*
  3: 0x0056 [0x1F] MOVE_ENTITY: Update entity position (mode=1)
  4: 0x0058 [0x6F] WAIT_FRAME_DELAY: Yield until WaitTime reaches zero
  5: 0x0059 [0x00] END_REQSTACK()
```

### Event 65535.4

#### Metadata

| Field        | Value    |
|--------------|----------|
| Entrypoint   | 0x005A   |
| Data Size    | 33 bytes |
| Instructions | 7        |

```
      00 01 02 03 04 05 06 07  08 09 0A 0B 0C 0D 0E 0F
      -- -- -- -- -- -- -- --  -- -- -- -- -- -- -- --
0050:                                31 00 12 80 13 80            1.....
0060: 0D 80 14 80 31 01 37 15  80 16 80 17 80 18 80 1F  ....1.7.........
0070: 00 12 80 13 80 0D 80 1F  01 6F 00                 .........o.     
```

#### Opcodes

```
  0: 0x005A [0x31] UPDATE_ENTITY_POSITION: Set EventEntity goal position to X=458.704*, Z=136.403*, Y=0.000*, Time=120*
  1: 0x0064 [0x31] UPDATE_ENTITY_POSITION: Move EventEntity towards goal position
  2: 0x0066 [0x37] UPDATE_EVENT_POSITION_AND_DIR: x=457.315*, z=132.704*, y=0.009*, direction=271.9°*
  3: 0x006F [0x1F] MOVE_ENTITY: EventEntity moves to X=458.704*, Z=136.403*, Y=0.000*
  4: 0x0077 [0x1F] MOVE_ENTITY: Update entity position (mode=1)
  5: 0x0079 [0x6F] WAIT_FRAME_DELAY: Yield until WaitTime reaches zero
  6: 0x007A [0x00] END_REQSTACK()
```

### Event 65535.5

#### Metadata

| Field        | Value    |
|--------------|----------|
| Entrypoint   | 0x007B   |
| Data Size    | 29 bytes |
| Instructions | 3        |

```
      00 01 02 03 04 05 06 07  08 09 0A 0B 0C 0D 0E 0F
      -- -- -- -- -- -- -- --  -- -- -- -- -- -- -- --
0070:                                   66 17 80 F8 FF             f....
0080: FF 7F F8 FF FF 7F 74 68  6B 31 53 F8 FF FF 7F F8  ......thk1S.....
0090: FF FF 7F 74 68 6B 31 00                           ...thk1.        
```

#### Opcodes

```
  0: 0x007B [0x66] LOAD_EXT_SCHEDULER_MAIN: Load scheduler "thk1" with entities [EventEntity, EventEntity], work=9*
  1: 0x008A [0x53] WAIT_SCHEDULER_TASK: Wait for scheduler "thk1" with entities [EventEntity, EventEntity]
  2: 0x0097 [0x00] END_REQSTACK()
```

### Event 65535.6

#### Metadata

| Field        | Value    |
|--------------|----------|
| Entrypoint   | 0x0098   |
| Data Size    | 29 bytes |
| Instructions | 3        |

```
      00 01 02 03 04 05 06 07  08 09 0A 0B 0C 0D 0E 0F
      -- -- -- -- -- -- -- --  -- -- -- -- -- -- -- --
0090:                          66 17 80 F8 FF FF 7F F8          f.......
00A0: FF FF 7F 74 68 6B 32 53  F8 FF FF 7F F8 FF FF 7F  ...thk2S........
00B0: 74 68 6B 32 00                                    thk2.           
```

#### Opcodes

```
  0: 0x0098 [0x66] LOAD_EXT_SCHEDULER_MAIN: Load scheduler "thk2" with entities [EventEntity, EventEntity], work=9*
  1: 0x00A7 [0x53] WAIT_SCHEDULER_TASK: Wait for scheduler "thk2" with entities [EventEntity, EventEntity]
  2: 0x00B4 [0x00] END_REQSTACK()
```

### Event 65535.7

#### Metadata

| Field        | Value    |
|--------------|----------|
| Entrypoint   | 0x00B5   |
| Data Size    | 25 bytes |
| Instructions | 6        |

```
      00 01 02 03 04 05 06 07  08 09 0A 0B 0C 0D 0E 0F
      -- -- -- -- -- -- -- --  -- -- -- -- -- -- -- --
00B0:                22 00 32  04 80 37 19 80 1A 80 0D       ".2..7.....
00C0: 80 1B 80 1F 00 1C 80 1D  80 0D 80 1F 01 00        ..............  
```

#### Opcodes

```
  0: 0x00B5 [0x22] ENTITY_HIDE_FLAG(enabled=0x00)
  1: 0x00B7 [0x32] ExtData[1]->MainSpeed = 40* * 0.1
  2: 0x00BA [0x37] UPDATE_EVENT_POSITION_AND_DIR: x=460.794*, z=133.245*, y=0.000*, direction=98.7°*
  3: 0x00C3 [0x1F] MOVE_ENTITY: EventEntity moves to X=460.019*, Z=127.261*, Y=0.000*
  4: 0x00CB [0x1F] MOVE_ENTITY: Update entity position (mode=1)
  5: 0x00CD [0x00] END_REQSTACK()
```

### Event 65535.8

#### Metadata

| Field        | Value    |
|--------------|----------|
| Entrypoint   | 0x00CE   |
| Data Size    | 21 bytes |
| Instructions | 5        |

```
      00 01 02 03 04 05 06 07  08 09 0A 0B 0C 0D 0E 0F
      -- -- -- -- -- -- -- --  -- -- -- -- -- -- -- --
00C0:                                            1F 00                ..
00D0: 1E 80 1F 80 0D 80 1F 01  1F 00 20 80 21 80 22 80  .......... .!.".
00E0: 1F 01 00                                          ...             
```

#### Opcodes

```
  0: 0x00CE [0x1F] MOVE_ENTITY: EventEntity moves to X=459.866*, Z=123.709*, Y=0.000*
  1: 0x00D6 [0x1F] MOVE_ENTITY: Update entity position (mode=1)
  2: 0x00D8 [0x1F] MOVE_ENTITY: EventEntity moves to X=459.430*, Z=104.770*, Y=3.499*
  3: 0x00E0 [0x1F] MOVE_ENTITY: Update entity position (mode=1)
  4: 0x00E2 [0x00] END_REQSTACK()
```

### Event 65535.9

#### Metadata

| Field        | Value    |
|--------------|----------|
| Entrypoint   | 0x00E3   |
| Data Size    | 10 bytes |
| Instructions | 2        |

```
      00 01 02 03 04 05 06 07  08 09 0A 0B 0C 0D 0E 0F
      -- -- -- -- -- -- -- --  -- -- -- -- -- -- -- --
00E0:          37 23 80 24 80  25 80 26 80 00              7#.$.%.&..   
```

#### Opcodes

```
  0: 0x00E3 [0x37] UPDATE_EVENT_POSITION_AND_DIR: x=-0.024*, z=-116.460*, y=-35.500*, direction=269.7°*
  1: 0x00EC [0x00] END_REQSTACK()
```

### Event 65535.10

#### Metadata

| Field        | Value    |
|--------------|----------|
| Entrypoint   | 0x00ED   |
| Data Size    | 15 bytes |
| Instructions | 5        |

```
      00 01 02 03 04 05 06 07  08 09 0A 0B 0C 0D 0E 0F
      -- -- -- -- -- -- -- --  -- -- -- -- -- -- -- --
00E0:                                         32 0F 80               2..
00F0: 1F 00 27 80 28 80 25 80  1F 01 6F 00              ..'.(.%...o.    
```

#### Opcodes

```
  0: 0x00ED [0x32] ExtData[1]->MainSpeed = 13* * 0.1
  1: 0x00F0 [0x1F] MOVE_ENTITY: EventEntity moves to X=-0.036*, Z=-112.287*, Y=-35.500*
  2: 0x00F8 [0x1F] MOVE_ENTITY: Update entity position (mode=1)
  3: 0x00FA [0x6F] WAIT_FRAME_DELAY: Yield until WaitTime reaches zero
  4: 0x00FB [0x00] END_REQSTACK()
```

### Event 65535.11

#### Metadata

| Field        | Value    |
|--------------|----------|
| Entrypoint   | 0x00FC   |
| Data Size    | 50 bytes |
| Instructions | 10       |

```
      00 01 02 03 04 05 06 07  08 09 0A 0B 0C 0D 0E 0F
      -- -- -- -- -- -- -- --  -- -- -- -- -- -- -- --
00F0:                                      32 0F 80 1F              2...
0100: 00 29 80 2A 80 2B 80 1F  01 6F 1E 36 81 0B 01 6F  .).*.+...o.6...o
0110: 70 66 17 80 F8 FF FF 7F  F8 FF FF 7F 73 68 61 30  pf..........sha0
0120: 53 F8 FF FF 7F F8 FF FF  7F 73 68 61 30 00        S........sha0.  
```

#### Opcodes

```
  0: 0x00FC [0x32] ExtData[1]->MainSpeed = 13* * 0.1
  1: 0x00FF [0x1F] MOVE_ENTITY: EventEntity moves to X=-0.553*, Z=-94.662*, Y=-33.899*
  2: 0x0107 [0x1F] MOVE_ENTITY: Update entity position (mode=1)
  3: 0x0109 [0x6F] WAIT_FRAME_DELAY: Yield until WaitTime reaches zero
  4: 0x010A [0x1E] EventEntity looks at Unnamed NPC (ID: 17531190/0x010B8136) and starts talking
  5: 0x010F [0x6F] WAIT_FRAME_DELAY: Yield until WaitTime reaches zero
  6: 0x0110 [0x70] WAIT_ENTITY_RENDER_FLAG: Wait while EventEntity->Render.Flags3 bit 2 is set (cancel turn if not)
  7: 0x0111 [0x66] LOAD_EXT_SCHEDULER_MAIN: Load scheduler "sha0" with entities [EventEntity, EventEntity], work=9*
  8: 0x0120 [0x53] WAIT_SCHEDULER_TASK: Wait for scheduler "sha0" with entities [EventEntity, EventEntity]
  9: 0x012D [0x00] END_REQSTACK()
```

### Event 65535.12

#### Metadata

| Field        | Value   |
|--------------|---------|
| Entrypoint   | 0x012E  |
| Data Size    | 4 bytes |
| Instructions | 2       |

```
      00 01 02 03 04 05 06 07  08 09 0A 0B 0C 0D 0E 0F
      -- -- -- -- -- -- -- --  -- -- -- -- -- -- -- --
0120:                                            32 04                2.
0130: 80 00                                             ..              
```

#### Opcodes

```
  0: 0x012E [0x32] ExtData[1]->MainSpeed = 40* * 0.1
  1: 0x0131 [0x00] END_REQSTACK()
```

### Event 65535.13

#### Metadata

| Field        | Value    |
|--------------|----------|
| Entrypoint   | 0x0132   |
| Data Size    | 16 bytes |
| Instructions | 2        |

```
      00 01 02 03 04 05 06 07  08 09 0A 0B 0C 0D 0E 0F
      -- -- -- -- -- -- -- --  -- -- -- -- -- -- -- --
0130:       66 17 80 F8 FF FF  7F F8 FF FF 7F 73 69 72    f..........sir
0140: 30 00                                             0.              
```

#### Opcodes

```
  0: 0x0132 [0x66] LOAD_EXT_SCHEDULER_MAIN: Load scheduler "sir0" with entities [EventEntity, EventEntity], work=9*
  1: 0x0141 [0x00] END_REQSTACK()
```

### Event 65535.14

#### Metadata

| Field        | Value    |
|--------------|----------|
| Entrypoint   | 0x0142   |
| Data Size    | 42 bytes |
| Instructions | 4        |

```
      00 01 02 03 04 05 06 07  08 09 0A 0B 0C 0D 0E 0F
      -- -- -- -- -- -- -- --  -- -- -- -- -- -- -- --
0140:       53 F8 FF FF 7F F8  FF FF 7F 73 69 72 30 66    S........sir0f
0150: 17 80 F8 FF FF 7F F8 FF  FF 7F 73 69 72 31 53 F8  ..........sir1S.
0160: FF FF 7F F8 FF FF 7F 73  69 72 31 00              .......sir1.    
```

#### Opcodes

```
  0: 0x0142 [0x53] WAIT_SCHEDULER_TASK: Wait for scheduler "sir0" with entities [EventEntity, EventEntity]
  1: 0x014F [0x66] LOAD_EXT_SCHEDULER_MAIN: Load scheduler "sir1" with entities [EventEntity, EventEntity], work=9*
  2: 0x015E [0x53] WAIT_SCHEDULER_TASK: Wait for scheduler "sir1" with entities [EventEntity, EventEntity]
  3: 0x016B [0x00] END_REQSTACK()
```

### Event 65535.15

#### Metadata

| Field        | Value    |
|--------------|----------|
| Entrypoint   | 0x016C   |
| Data Size    | 29 bytes |
| Instructions | 3        |

```
      00 01 02 03 04 05 06 07  08 09 0A 0B 0C 0D 0E 0F
      -- -- -- -- -- -- -- --  -- -- -- -- -- -- -- --
0160:                                      66 17 80 F8              f...
0170: FF FF 7F F8 FF FF 7F 73  68 61 31 53 F8 FF FF 7F  .......sha1S....
0180: F8 FF FF 7F 73 68 61 31  00                       ....sha1.       
```

#### Opcodes

```
  0: 0x016C [0x66] LOAD_EXT_SCHEDULER_MAIN: Load scheduler "sha1" with entities [EventEntity, EventEntity], work=9*
  1: 0x017B [0x53] WAIT_SCHEDULER_TASK: Wait for scheduler "sha1" with entities [EventEntity, EventEntity]
  2: 0x0188 [0x00] END_REQSTACK()
```
