# 17531184

## Common Data

| Field            | Value                            |
|------------------|----------------------------------|
| Zone             | Lower Delkfutt's Tower (ID: 184) |
| Block Size       | 172 bytes                        |
| Total Events     | 6                                |
| References Count | 12                               |

## List of Events

| Event ID                 | Entrypoint   |   Size |   Instructions |
|--------------------------|--------------|--------|----------------|
| [65535](#event-65535)    | 0x0000       |     13 |              3 |
| [36](#event-36)          | 0x000D       |      1 |              1 |
| [65535.1](#event-655351) | 0x000E       |     10 |              2 |
| [65535.2](#event-655352) | 0x0018       |     27 |              7 |
| [65535.3](#event-655353) | 0x0033       |     16 |              2 |
| [65535.4](#event-655354) | 0x0043       |     16 |              2 |

## DAT References (imed_data)

|   Index | Hex Value   |   Dec Value |
|---------|-------------|-------------|
|       0 | 0x0007      |           7 |
|       1 | 0xFFFF0A1E  |  4294904350 |
|       2 | 0xFFFF7BF7  |  4294933495 |
|       3 | 0x0C07      |        3079 |
|       4 | 0x0078      |         120 |
|       5 | 0x0028      |          40 |
|       6 | 0xFFFFF7C9  |  4294965193 |
|       7 | 0xFFFF0AF7  |  4294904567 |
|       8 | 0xFFFF7C5C  |  4294933596 |
|       9 | 0xFFFFF809  |  4294965257 |
|      10 | 0xFFFF0D16  |  4294905110 |
|      11 | 0x00E9      |         233 |

## Events

### Event 65535

#### Metadata

| Field        | Value    |
|--------------|----------|
| Entrypoint   | 0x0000   |
| Data Size    | 13 bytes |
| Instructions | 3        |

```
      00 01 02 03 04 05 06 07  08 09 0A 0B 0C 0D 0E 0F
      -- -- -- -- -- -- -- --  -- -- -- -- -- -- -- --
0000: 94 01 F8 FF FF 7F 92 01  F8 FF FF 7F 00           .............   
```

#### Opcodes

```
  0: 0x0000 [0x94] EventEntity->Render.Flags3 ^= 0x01
  1: 0x0006 [0x92] EventEntity->Render.Flags3 ^= 0x01
  2: 0x000C [0x00] END_REQSTACK()
```

### Event 36

#### Metadata

| Field        | Value   |
|--------------|---------|
| Entrypoint   | 0x000D  |
| Data Size    | 1 bytes |
| Instructions | 1       |

```
      00 01 02 03 04 05 06 07  08 09 0A 0B 0C 0D 0E 0F
      -- -- -- -- -- -- -- --  -- -- -- -- -- -- -- --
0000:                                         00                     .  
```

#### Opcodes

```
  0: 0x000D [0x00] END_REQSTACK()
```

### Event 65535.1

#### Metadata

| Field        | Value    |
|--------------|----------|
| Entrypoint   | 0x000E   |
| Data Size    | 10 bytes |
| Instructions | 2        |

```
      00 01 02 03 04 05 06 07  08 09 0A 0B 0C 0D 0E 0F
      -- -- -- -- -- -- -- --  -- -- -- -- -- -- -- --
0000:                                            37 00                7.
0010: 80 01 80 02 80 03 80 00                           ........        
```

#### Opcodes

```
  0: 0x000E [0x37] UPDATE_EVENT_POSITION_AND_DIR: x=0.007*, z=-62.946*, y=-33.801*, direction=270.6°*
  1: 0x0017 [0x00] END_REQSTACK()
```

### Event 65535.2

#### Metadata

| Field        | Value    |
|--------------|----------|
| Entrypoint   | 0x0018   |
| Data Size    | 27 bytes |
| Instructions | 7        |

```
      00 01 02 03 04 05 06 07  08 09 0A 0B 0C 0D 0E 0F
      -- -- -- -- -- -- -- --  -- -- -- -- -- -- -- --
0010:                          1C 04 80 32 05 80 1F 00          ...2....
0020: 06 80 07 80 08 80 1F 01  1F 00 09 80 0A 80 08 80  ................
0030: 1F 01 00                                          ...             
```

#### Opcodes

```
  0: 0x0018 [0x1C] WAIT(120* ticks)
  1: 0x001B [0x32] ExtData[1]->MainSpeed = 40* * 0.1
  2: 0x001E [0x1F] MOVE_ENTITY: EventEntity moves to X=-2.103*, Z=-62.729*, Y=-33.700*
  3: 0x0026 [0x1F] MOVE_ENTITY: Update entity position (mode=1)
  4: 0x0028 [0x1F] MOVE_ENTITY: EventEntity moves to X=-2.039*, Z=-62.186*, Y=-33.700*
  5: 0x0030 [0x1F] MOVE_ENTITY: Update entity position (mode=1)
  6: 0x0032 [0x00] END_REQSTACK()
```

### Event 65535.3

#### Metadata

| Field        | Value    |
|--------------|----------|
| Entrypoint   | 0x0033   |
| Data Size    | 16 bytes |
| Instructions | 2        |

```
      00 01 02 03 04 05 06 07  08 09 0A 0B 0C 0D 0E 0F
      -- -- -- -- -- -- -- --  -- -- -- -- -- -- -- --
0030:          5B 0B 80 F8 FF  FF 7F F8 FF FF 7F 70 6E     [..........pn
0040: 6C 31 00                                          l1.             
```

#### Opcodes

```
  0: 0x0033 [0x5B] LOAD_EXT_SCHEDULER: Load scheduler "pnl1" with entities [EventEntity, EventEntity], work=233*
  1: 0x0042 [0x00] END_REQSTACK()
```

### Event 65535.4

#### Metadata

| Field        | Value    |
|--------------|----------|
| Entrypoint   | 0x0043   |
| Data Size    | 16 bytes |
| Instructions | 2        |

```
      00 01 02 03 04 05 06 07  08 09 0A 0B 0C 0D 0E 0F
      -- -- -- -- -- -- -- --  -- -- -- -- -- -- -- --
0040:          5B 0B 80 F8 FF  FF 7F F8 FF FF 7F 70 6E     [..........pn
0050: 6C 30 00                                          l0.             
```

#### Opcodes

```
  0: 0x0043 [0x5B] LOAD_EXT_SCHEDULER: Load scheduler "pnl0" with entities [EventEntity, EventEntity], work=233*
  1: 0x0052 [0x00] END_REQSTACK()
```
