# 17531239 - Survival Guide

## Common Data

| Field            | Value                            |
|------------------|----------------------------------|
| Zone             | Lower Delkfutt's Tower (ID: 184) |
| Block Size       | 8844 bytes                       |
| Total Events     | 3                                |
| References Count | 469                              |

## List of Events

| Event ID              | Entrypoint   |   Size |   Instructions |
|-----------------------|--------------|--------|----------------|
| [65535](#event-65535) | 0x0000       |      1 |              1 |
| [8500](#event-8500)   | 0x0001       |    213 |             45 |
| [8501](#event-8501)   | 0x00D6       |   6726 |           1084 |

## DAT References (imed_data)

|   Index | Hex Value   |   Dec Value |
|---------|-------------|-------------|
|       0 | 0x0000      |           0 |
|       1 | 0x0009      |           9 |
|       2 | 0x000A      |          10 |
|       3 | 0x000B      |          11 |
|       4 | 0x000D      |          13 |
|       5 | 0x0010      |          16 |
|       6 | 0x001F      |          31 |
|       7 | 0x0004      |           4 |
|       8 | 0x2E0A      |       11786 |
|       9 | 0x2E08      |       11784 |
|      10 | 0x2E0B      |       11787 |
|      11 | 0x0001      |           1 |
|      12 | 0x0002      |           2 |
|      13 | 0x0003      |           3 |
|      14 | 0x2E18      |       11800 |
|      15 | 0x2E19      |       11801 |
|      16 | 0x0007      |           7 |
|      17 | 0x2E1A      |       11802 |
|      18 | 0x0200      |         512 |
|      19 | 0x2E14      |       11796 |
|      20 | 0x2E15      |       11797 |
|      21 | 0x2E16      |       11798 |
|      22 | 0x2E17      |       11799 |
|      23 | 0x0201      |         513 |
|      24 | 0x19B4      |        6580 |
|      25 | 0x19AE      |        6574 |
|      26 | 0x2E0C      |       11788 |
|      27 | 0xFFFFFFFE  |  4294967294 |
|      28 | 0x2E0D      |       11789 |
|      29 | 0x2E1C      |       11804 |
|      30 | 0x001A      |          26 |
|      31 | 0x001B      |          27 |
|      32 | 0x2E1B      |       11803 |
|      33 | 0x0008      |           8 |
|      34 | 0x000F      |          15 |
|      35 | 0x0017      |          23 |
|      36 | 0x0018      |          24 |
|      37 | 0x007F      |         127 |
|      38 | 0xFFFFFFFF  |  4294967295 |
|      39 | 0x2E1D      |       11805 |
|      40 | 0x2E10      |       11792 |
|      41 | 0x2E11      |       11793 |
|      42 | 0x0005      |           5 |
|      43 | 0x0014      |          20 |
|      44 | 0x2E12      |       11794 |
|      45 | 0x19B9      |        6585 |
|      46 | 0x2E13      |       11795 |
|      47 | 0x2E1E      |       11806 |
|      48 | 0x2E1F      |       11807 |
|      49 | 0x2E20      |       11808 |
|      50 | 0x0006      |           6 |
|      51 | 0x0080      |         128 |
|      52 | 0x0062      |          98 |
|      53 | 0x0020      |          32 |
|      54 | 0x2E0E      |       11790 |
|      55 | 0x0015      |          21 |
|      56 | 0x0016      |          22 |
|      57 | 0x007A      |         122 |
|      58 | 0x0104      |         260 |
|      59 | 0x00C8      |         200 |
|      60 | 0x003C      |          60 |
|      61 | 0x0028      |          40 |
|      62 | 0x1000      |        4096 |
|      63 | 0x1001      |        4097 |
|      64 | 0x1002      |        4098 |
|      65 | 0x1003      |        4099 |
|      66 | 0x1004      |        4100 |
|      67 | 0x1005      |        4101 |
|      68 | 0x1006      |        4102 |
|      69 | 0x1007      |        4103 |
|      70 | 0x1008      |        4104 |
|      71 | 0x1009      |        4105 |
|      72 | 0x100A      |        4106 |
|      73 | 0x100B      |        4107 |
|      74 | 0x100C      |        4108 |
|      75 | 0x100D      |        4109 |
|      76 | 0x100E      |        4110 |
|      77 | 0x100F      |        4111 |
|      78 | 0x1010      |        4112 |
|      79 | 0x1011      |        4113 |
|      80 | 0x1012      |        4114 |
|      81 | 0x1013      |        4115 |
|      82 | 0x1014      |        4116 |
|      83 | 0x1015      |        4117 |
|      84 | 0x1016      |        4118 |
|      85 | 0x1017      |        4119 |
|      86 | 0x0050      |          80 |
|      87 | 0x0096      |         150 |
|      88 | 0x00FA      |         250 |
|      89 | 0x0190      |         400 |
|      90 | 0x0258      |         600 |
|      91 | 0x0384      |         900 |
|      92 | 0x04E2      |        1250 |
|      93 | 0x0708      |        1800 |
|      94 | 0x09C4      |        2500 |
|      95 | 0x0DAC      |        3500 |
|      96 | 0x1388      |        5000 |
|      97 | 0x1B58      |        7000 |
|      98 | 0x2710      |       10000 |
|      99 | 0x3A98      |       15000 |
|     100 | 0x61A8      |       25000 |
|     101 | 0x88B8      |       35000 |
|     102 | 0xC350      |       50000 |
|     103 | 0xFDE8      |       65000 |
|     104 | 0x13880     |       80000 |
|     105 | 0x186A0     |      100000 |
|     106 | 0x00E7      |         231 |
|     107 | 0x00EA      |         234 |
|     108 | 0x00F0      |         240 |
|     109 | 0x00F3      |         243 |
|     110 | 0x0032      |          50 |
|     111 | 0x0064      |         100 |
|     112 | 0x008D      |         141 |
|     113 | 0x00A7      |         167 |
|     114 | 0x00BE      |         190 |
|     115 | 0x0066      |         102 |
|     116 | 0x0067      |         103 |
|     117 | 0x006C      |         108 |
|     118 | 0x00C1      |         193 |
|     119 | 0x00C4      |         196 |
|     120 | 0x0068      |         104 |
|     121 | 0x0069      |         105 |
|     122 | 0x0095      |         149 |
|     123 | 0x00C3      |         195 |
|     124 | 0x006A      |         106 |
|     125 | 0x00AC      |         172 |
|     126 | 0x00AD      |         173 |
|     127 | 0x00BF      |         191 |
|     128 | 0x006D      |         109 |
|     129 | 0x006E      |         110 |
|     130 | 0x0093      |         147 |
|     131 | 0x00C5      |         197 |
|     132 | 0x0073      |         115 |
|     133 | 0x00A9      |         169 |
|     134 | 0x00C0      |         192 |
|     135 | 0x0075      |         117 |
|     136 | 0x0076      |         118 |
|     137 | 0x00C6      |         198 |
|     138 | 0x00D5      |         213 |
|     139 | 0x0077      |         119 |
|     140 | 0x0078      |         120 |
|     141 | 0x0097      |         151 |
|     142 | 0x006F      |         111 |
|     143 | 0x00A6      |         166 |
|     144 | 0x0070      |         112 |
|     145 | 0x00A1      |         161 |
|     146 | 0x007E      |         126 |
|     147 | 0x00B8      |         184 |
|     148 | 0x0079      |         121 |
|     149 | 0x009A      |         154 |
|     150 | 0x0072      |         114 |
|     151 | 0x007D      |         125 |
|     152 | 0x00F7      |         247 |
|     153 | 0x0071      |         113 |
|     154 | 0x00AE      |         174 |
|     155 | 0x00D4      |         212 |
|     156 | 0x007B      |         123 |
|     157 | 0x00B0      |         176 |
|     158 | 0x00FC      |         252 |
|     159 | 0x007C      |         124 |
|     160 | 0x009F      |         159 |
|     161 | 0x00CD      |         205 |
|     162 | 0x0082      |         130 |
|     163 | 0x0019      |          25 |
|     164 | 0x001C      |          28 |
|     165 | 0x0033      |          51 |
|     166 | 0x0041      |          65 |
|     167 | 0x0044      |          68 |
|     168 | 0x003E      |          62 |
|     169 | 0x0035      |          53 |
|     170 | 0x0036      |          54 |
|     171 | 0x004F      |          79 |
|     172 | 0x0051      |          81 |
|     173 | 0x0052      |          82 |
|     174 | 0x0054      |          84 |
|     175 | 0x00AF      |         175 |
|     176 | 0x0057      |          87 |
|     177 | 0x0058      |          88 |
|     178 | 0x0059      |          89 |
|     179 | 0x0053      |          83 |
|     180 | 0x005A      |          90 |
|     181 | 0x005B      |          91 |
|     182 | 0x00AB      |         171 |
|     183 | 0x005E      |          94 |
|     184 | 0x005F      |          95 |
|     185 | 0x0060      |          96 |
|     186 | 0x0061      |          97 |
|     187 | 0x00A4      |         164 |
|     188 | 0x0088      |         136 |
|     189 | 0x008A      |         138 |
|     190 | 0x0101      |         257 |
|     191 | 0x03E8      |        1000 |
|     192 | 0x000C      |          12 |
|     193 | 0x000E      |          14 |
|     194 | 0x0011      |          17 |
|     195 | 0x0012      |          18 |
|     196 | 0x0013      |          19 |
|     197 | 0x001D      |          29 |
|     198 | 0x0021      |          33 |
|     199 | 0x0022      |          34 |
|     200 | 0x0023      |          35 |
|     201 | 0x0024      |          36 |
|     202 | 0x0025      |          37 |
|     203 | 0x0026      |          38 |
|     204 | 0x0029      |          41 |
|     205 | 0x001E      |          30 |
|     206 | 0x002C      |          44 |
|     207 | 0x002D      |          45 |
|     208 | 0x0037      |          55 |
|     209 | 0x002A      |          42 |
|     210 | 0x002B      |          43 |
|     211 | 0x0038      |          56 |
|     212 | 0x002E      |          46 |
|     213 | 0x0027      |          39 |
|     214 | 0x005C      |          92 |
|     215 | 0x002F      |          47 |
|     216 | 0x005D      |          93 |
|     217 | 0x0030      |          48 |
|     218 | 0x0034      |          52 |
|     219 | 0x0031      |          49 |
|     220 | 0x0039      |          57 |
|     221 | 0x003A      |          58 |
|     222 | 0x003B      |          59 |
|     223 | 0x003D      |          61 |
|     224 | 0x0055      |          85 |
|     225 | 0x0056      |          86 |
|     226 | 0x003F      |          63 |
|     227 | 0x0040      |          64 |
|     228 | 0x0042      |          66 |
|     229 | 0x0043      |          67 |
|     230 | 0x0045      |          69 |
|     231 | 0x0046      |          70 |
|     232 | 0x004E      |          78 |
|     233 | 0x0047      |          71 |
|     234 | 0x0048      |          72 |
|     235 | 0x0049      |          73 |
|     236 | 0x004A      |          74 |
|     237 | 0x004D      |          77 |
|     238 | 0x004B      |          75 |
|     239 | 0x004C      |          76 |
|     240 | 0xFFFD5850  |  4294793296 |
|     241 | 0x4E20      |       20000 |
|     242 | 0xFFFCA4A0  |  4294747296 |
|     243 | 0xA7F8      |       43000 |
|     244 | 0xFFFFEC78  |  4294962296 |
|     245 | 0x20B70     |      134000 |
|     246 | 0xFFF91825  |  4294514725 |
|     247 | 0xFFFDD168  |  4294824296 |
|     248 | 0xFFFFD24C  |  4294955596 |
|     249 | 0xFFFE2F28  |  4294848296 |
|     250 | 0xBD358     |      775000 |
|     251 | 0x21728     |      137000 |
|     252 | 0xFFFC9CD0  |  4294745296 |
|     253 | 0xFFFE69C0  |  4294863296 |
|     254 | 0xEA60      |       60000 |
|     255 | 0x36EE8     |      225000 |
|     256 | 0xF618      |       63000 |
|     257 | 0xFFFEFA48  |  4294900296 |
|     258 | 0x36718     |      223000 |
|     259 | 0x660D0     |      418000 |
|     260 | 0xFFF71BE1  |  4294384609 |
|     261 | 0xFFFFD8F0  |  4294957296 |
|     262 | 0xFFF8EF68  |  4294504296 |
|     263 | 0xFFFFA240  |  4294943296 |
|     264 | 0x72038     |      467000 |
|     265 | 0xFFFC8560  |  4294739296 |
|     266 | 0xFFFBF8C0  |  4294703296 |
|     267 | 0x58DE0     |      364000 |
|     268 | 0xFFFFCBF6  |  4294953974 |
|     269 | 0xFFFB4C08  |  4294659080 |
|     270 | 0x6E988     |      453000 |
|     271 | 0x78D98     |      495000 |
|     272 | 0xFFFD8F00  |  4294807296 |
|     273 | 0xFFF896BC  |  4294481596 |
|     274 | 0xFFFAD7B0  |  4294629296 |
|     275 | 0xFFFF09E8  |  4294904296 |
|     276 | 0xFFFB77D8  |  4294670296 |
|     277 | 0x53FC0     |      344000 |
|     278 | 0xFFFCA0B8  |  4294746296 |
|     279 | 0xFFFA27E8  |  4294584296 |
|     280 | 0xFFFF92A0  |  4294939296 |
|     281 | 0xFFFDC5B0  |  4294821296 |
|     282 | 0x31CE0     |      204000 |
|     283 | 0x5AD20     |      372000 |
|     284 | 0xFFFC27A0  |  4294715296 |
|     285 | 0x52080     |      336000 |
|     286 | 0x71480     |      464000 |
|     287 | 0xFFFF5038  |  4294922296 |
|     288 | 0xFFFF11B8  |  4294906296 |
|     289 | 0xFFFC0860  |  4294707296 |
|     290 | 0x668A0     |      420000 |
|     291 | 0xFFFFF254  |  4294963796 |
|     292 | 0xFFFD21A0  |  4294779296 |
|     293 | 0xFFFD73A8  |  4294800296 |
|     294 | 0xFFFFC180  |  4294951296 |
|     295 | 0x48440     |      296000 |
|     296 | 0xFFFC5874  |  4294727796 |
|     297 | 0xFFFF63C0  |  4294927296 |
|     298 | 0xFFFFCD38  |  4294954296 |
|     299 | 0x30188     |      197000 |
|     300 | 0x15BA8     |       89000 |
|     301 | 0x32C8      |       13000 |
|     302 | 0xFFFC0090  |  4294705296 |
|     303 | 0xFFF78BF0  |  4294413296 |
|     304 | 0x3D860     |      252000 |
|     305 | 0xFFF332A8  |  4294128296 |
|     306 | 0x35390     |      218000 |
|     307 | 0x0FA0      |        4000 |
|     308 | 0x7B0C0     |      504000 |
|     309 | 0xFFFFB1E0  |  4294947296 |
|     310 | 0x73F78     |      475000 |
|     311 | 0xFFF5F1C8  |  4294308296 |
|     312 | 0x14050     |       82000 |
|     313 | 0xA1608     |      661000 |
|     314 | 0xFFFD0260  |  4294771296 |
|     315 | 0xFFF9D5E0  |  4294563296 |
|     316 | 0xFFFC3B28  |  4294720296 |
|     317 | 0xFFFB9718  |  4294678296 |
|     318 | 0xC1D90     |      794000 |
|     319 | 0xFFF80CD8  |  4294446296 |
|     320 | 0x86088     |      549000 |
|     321 | 0xFFFF6F78  |  4294930296 |
|     322 | 0xFFFF1D70  |  4294909296 |
|     323 | 0x14438     |       83000 |
|     324 | 0x1EC30     |      126000 |
|     325 | 0xB3330     |      734000 |
|     326 | 0x74360     |      476000 |
|     327 | 0xFFFB6068  |  4294664296 |
|     328 | 0xFFFDCD80  |  4294823296 |
|     329 | 0xFFFF3CB0  |  4294917296 |
|     330 | 0xFFFE3EC8  |  4294852296 |
|     331 | 0x2BB38     |      179000 |
|     332 | 0xFFFEF278  |  4294898296 |
|     333 | 0x18E70     |      102000 |
|     334 | 0x4268      |       17000 |
|     335 | 0xFFFCAC8E  |  4294749326 |
|     336 | 0x6321      |       25377 |
|     337 | 0x3CAB4     |      248500 |
|     338 | 0xFFFFB9B0  |  4294949296 |
|     339 | 0x17ED0     |       98000 |
|     340 | 0xC9E78     |      827000 |
|     341 | 0x9A8A8     |      633000 |
|     342 | 0xFFFBF0F0  |  4294701296 |
|     343 | 0xFFF7F180  |  4294439296 |
|     344 | 0xFFFFC950  |  4294953296 |
|     345 | 0x6D9E8     |      449000 |
|     346 | 0xFFFE7B54  |  4294867796 |
|     347 | 0xCC39      |       52281 |
|     348 | 0xFFFFA628  |  4294944296 |
|     349 | 0x64190     |      410000 |
|     350 | 0x5E3D0     |      386000 |
|     351 | 0x1A1F8     |      107000 |
|     352 | 0x4D130     |      315696 |
|     353 | 0x3FF70     |      262000 |
|     354 | 0x2C81C     |      182300 |
|     355 | 0xB1BC0     |      728000 |
|     356 | 0x9E340     |      648000 |
|     357 | 0xB478      |       46200 |
|     358 | 0xFFFD44C8  |  4294788296 |
|     359 | 0xFFFBBA40  |  4294687296 |
|     360 | 0x67458     |      423000 |
|     361 | 0xFFFC1800  |  4294711296 |
|     362 | 0x58BEC     |      363500 |
|     363 | 0xFFFE17B8  |  4294842296 |
|     364 | 0xFFFB73F0  |  4294669296 |
|     365 | 0xFFFCE708  |  4294764296 |
|     366 | 0xFFFF9E58  |  4294942296 |
|     367 | 0x48828     |      297000 |
|     368 | 0xFFFEDEF0  |  4294893296 |
|     369 | 0xFFFF38C8  |  4294916296 |
|     370 | 0xFFFDB228  |  4294816296 |
|     371 | 0xCF08      |       53000 |
|     372 | 0xFFFF7F18  |  4294934296 |
|     373 | 0xFFFBF4D8  |  4294702296 |
|     374 | 0x2AF8      |       11000 |
|     375 | 0xFFFE8CE8  |  4294872296 |
|     376 | 0x5DC0      |       24000 |
|     377 | 0xFFFC6238  |  4294730296 |
|     378 | 0xFA00      |       64000 |
|     379 | 0x51C98     |      335000 |
|     380 | 0xFFFE94B8  |  4294874296 |
|     381 | 0xFFFF7B30  |  4294933296 |
|     382 | 0xFFFEC398  |  4294886296 |
|     383 | 0xDEA8      |       57000 |
|     384 | 0xFFF6F398  |  4294374296 |
|     385 | 0xFFFF2D10  |  4294913296 |
|     386 | 0xFFFF2540  |  4294911296 |
|     387 | 0x3FB88     |      261000 |
|     388 | 0xFFFE9C88  |  4294876296 |
|     389 | 0x3AD68     |      241000 |
|     390 | 0x53020     |      340000 |
|     391 | 0xFFFEF660  |  4294899296 |
|     392 | 0xFFF6DC28  |  4294368296 |
|     393 | 0xFFF866B0  |  4294469296 |
|     394 | 0xFFFD8348  |  4294804296 |
|     395 | 0x17318     |       95000 |
|     396 | 0x82208     |      533000 |
|     397 | 0xBC7A0     |      772000 |
|     398 | 0x32898     |      207000 |
|     399 | 0xFFFACBF8  |  4294626296 |
|     400 | 0xFFF2C930  |  4294101296 |
|     401 | 0x34BC0     |      216000 |
|     402 | 0x8A6D8     |      567000 |
|     403 | 0x93F30     |      606000 |
|     404 | 0xFFF954F8  |  4294530296 |
|     405 | 0x1F20C     |      127500 |
|     406 | 0x39210     |      234000 |
|     407 | 0xFFFE2B40  |  4294847296 |
|     408 | 0xFFFFDFA4  |  4294959012 |
|     409 | 0xFFFFB2A1  |  4294947489 |
|     410 | 0x6F54      |       28500 |
|     411 | 0xFFFFE2DC  |  4294959836 |
|     412 | 0x11620     |       71200 |
|     413 | 0xFFFFFF24  |  4294967076 |
|     414 | 0xFFFFF830  |  4294965296 |
|     415 | 0xFFFFFD44  |  4294966596 |
|     416 | 0xFFFF32EC  |  4294914796 |
|     417 | 0x9CAB      |       40107 |
|     418 | 0xFFFFFEA2  |  4294966946 |
|     419 | 0x5FAA      |       24490 |
|     420 | 0x1018      |        4120 |
|     421 | 0x060E      |        1550 |
|     422 | 0xFFFF8170  |  4294934896 |
|     423 | 0xFFFFCF55  |  4294954837 |
|     424 | 0x3E7F      |       15999 |
|     425 | 0xFFFFE0C0  |  4294959296 |
|     426 | 0xFFFFF448  |  4294964296 |
|     427 | 0xB798      |       47000 |
|     428 | 0xFFFF8300  |  4294935296 |
|     429 | 0xFFFFCFC2  |  4294954946 |
|     430 | 0xFFFFB0DC  |  4294947036 |
|     431 | 0x41D4      |       16852 |
|     432 | 0x161C      |        5660 |
|     433 | 0xFFFFE81A  |  4294961178 |
|     434 | 0xFFFF1758  |  4294907736 |
|     435 | 0xFFFFD120  |  4294955296 |
|     436 | 0x6612      |       26130 |
|     437 | 0xFFFFFA88  |  4294965896 |
|     438 | 0x2134      |        8500 |
|     439 | 0xFFFFF326  |  4294964006 |
|     440 | 0xFFFFF63A  |  4294964794 |
|     441 | 0x1F40      |        8000 |
|     442 | 0xFFFFDFBC  |  4294959036 |
|     443 | 0xFFFFAEB6  |  4294946486 |
|     444 | 0xFFFF6104  |  4294926596 |
|     445 | 0xFFFFE7C8  |  4294961096 |
|     446 | 0xFFFF8AD0  |  4294937296 |
|     447 | 0x5014      |       20500 |
|     448 | 0xFFFFFE66  |  4294966886 |
|     449 | 0xFFFFC216  |  4294951446 |
|     450 | 0xFFFFB5C8  |  4294948296 |
|     451 | 0xFFFFE444  |  4294960196 |
|     452 | 0x9664      |       38500 |
|     453 | 0x1174C     |       71500 |
|     454 | 0xFFFF810C  |  4294934796 |
|     455 | 0x5FB4      |       24500 |
|     456 | 0x0262      |         610 |
|     457 | 0xFFFFEB08  |  4294961928 |
|     458 | 0xFFFFAD30  |  4294946096 |
|     459 | 0xFFFF7CA2  |  4294933666 |
|     460 | 0xFFFEC780  |  4294887296 |
|     461 | 0x0400      |        1024 |
|     462 | 0x0800      |        2048 |
|     463 | 0x0E00      |        3584 |
|     464 | 0x0600      |        1536 |
|     465 | 0xFFFFFE00  |  4294966784 |
|     466 | 0x0A00      |        2560 |
|     467 | 0x0C00      |        3072 |
|     468 | 0xFFFFFC00  |  4294966272 |

## String References

- **6574**: You cannot obtain the $0. Come back after sorting your inventory.
- **6580**: Obtained: #.
- **6585**: You do not have enough gil.
- **11784**: Before you lies a survival guide penned by the Adventurers' Mutual Aid Network. It touches on such topics as teleportation and battle records.
- **11786**: Before you lies a survival guide penned by the Servicemen's Mutual Aid Network. It touches on such topics as teleportation and battle records.
- **11787**: What chapter will you read? [None./"Teleportation Assistance."/"Field Support."/"Other mysteries."]
- **11788**: The meticulously illuminated text within explains that adventurers may travel to the location of any previous books visited after paying a sum of gil or the requisite amount of tabs.
- **11789**: No other survival guide locations have been recorded. Visiting another one would certainly alleviate this issue.
- **11792**: All mog tablets have currently been found, so you may teleport to $8 at no charge.
- **11793**: Travel to $8? [[Add to favorites/Delete from favorites]./Up and away!/I'm down and out.]
- **11794**: $2$3M$3 [E<Player>Z$P13.7ii$4$3M$3 [j/Travel to $8?/ [[Add to favorites/Delete from favorites]./Travel using $2 gil. ($4 gil)/Travel using $3 tab[/s]. ($5 total)/Not just yet.]
- **11795**: You do not have enough tabs.
- **11796**: The records indicate you have fought valiantly for Vana'diel for $1 hour[/s].
- **11797**: At the bottom of the page is a reminder. It perfunctorily states that you may receive $3 once you have logged a total of $2 hours.
- **11798**: As per the custom noted within, you are eligible to receive $3 for the $2 hour[/s] of fighting you've accrued.
- **11799**: Accept the reward? [Yes, please./No, thanks.]
- **11800**: You may change the way you select areas listed in "Teleportation Assistance."
- **11801**: Any changes to make? [Keep course./Select by region./Select by content.]
- **11802**: Area selection will now be made by [region/content].
- **11803**: [Nowhere for now./Select from amongst favorites./Original release areas./Rise of the Zilart areas./Chains of Promathia areas./Treasures of Aht Urhgan areas./Wings of the Goddess areas./././././././Seekers of Adoulin areas.]
- **11804**: Travel to which region? [On second thought, none./Select from amongst favorites./[San d'Oria/Movalpolos]./[Bastok/Tavnazian Arch]./[Windurst/Lumoria]./[Jeuno/Mamool Ja Savage]./[Tavnazia/Halvung]./[West. Aht Urhgan/Arrapago Is]./[Adoulin Isles/Ruins of Alzadaal]./[Ronfaure/Ronfaure Front]./[Zulkheim/Norvallen Front]./[Norvallen/Gustaberg Front]./[Gustaberg/Derfland Front]./[Derfland/Sarutabaruta Front]./[Sarutabaruta/Aragoneu Front]./[Kolshushu/Fauregandi Front]./[Aragoneu/Valdeaunia Front]./[Fauregandi/East. Ulbuka]./[Valdeaunia/Ra'Kaznar]./[Qufim/]./[Li'Telor/]./[Kuzotz/]./[Vollbow/]./[Elshimo Low/]./[Elshimo Up/]./[Tu'Lia/]./Previous page./Next page.]
- **11806**: $8 has been [added to your list of favorites/removed from your list of favorites].
- **11807**: Your list of favorites is full. You must remove an existing entry to add new ones.

## Events

### Event 65535

#### Metadata

| Field        | Value   |
|--------------|---------|
| Entrypoint   | 0x0000  |
| Data Size    | 1 bytes |
| Instructions | 1       |

```
      00 01 02 03 04 05 06 07  08 09 0A 0B 0C 0D 0E 0F
      -- -- -- -- -- -- -- --  -- -- -- -- -- -- -- --
0000: 00                                                .               
```

#### Opcodes

```
  0: 0x0000 [0x00] END_REQSTACK()
```

### Event 8500

#### Metadata

| Field        | Value     |
|--------------|-----------|
| Entrypoint   | 0x0001    |
| Data Size    | 213 bytes |
| Instructions | 45        |

```
      00 01 02 03 04 05 06 07  08 09 0A 0B 0C 0D 0E 0F
      -- -- -- -- -- -- -- --  -- -- -- -- -- -- -- --
0000:    03 00 00 03 10 41 00  80 01 80 00 00 04 00 41   .....A........A
0010: 02 80 02 80 00 00 1F 00  41 03 80 03 80 00 00 01  ........A.......
0020: 00 41 04 80 04 80 00 00  23 00 41 05 80 06 80 00  .A......#.A.....
0030: 00 22 00 03 1C 00 07 80  03 03 00 04 10 03 05 00  ."..............
0040: 05 10 03 06 00 06 10 03  07 00 07 10 03 08 00 08  ................
0050: 10 03 1D 00 09 10 1A 97  11 9D 00 9C 14 02 00 04  ................
0060: 00 02 02 00 07 80 00 70  00 48 08 80 23 01 74 00  .......p.H..#.t.
0070: 48 09 80 23 06 09 00 06  0A 00 06 20 00 02 09 00  H..#....... ....
0080: 00 80 00 D4 00 24 0A 80  0A 00 1C 00 25 02 00 10  .....$......%...
0090: 00 80 00 9B 00 05 09 00  01 9B 00 03 0A 00 00 10  ................
00A0: 02 09 00 00 80 00 D1 00  02 0A 00 0B 80 80 B6 00  ................
00B0: 1A F3 02 01 D1 00 02 0A  00 0C 80 80 C3 00 42 2E  ..............B.
00C0: 01 D1 00 02 0A 00 0D 80  80 D1 00 1A AB 01 01 D1  ................
00D0: 00 01 7D 00 21 00                                 ..}.!.          
```

#### Opcodes

```
  0: 0x0001 [0x03] ExtData[1]->WorkLocal[0] = Work_Zone[3]
  1: 0x0006 [0x41] ExtData[1]->WorkLocal[4] = ExtData[1]->WorkLocal[0] (bits 0*-9*)
  2: 0x000F [0x41] ExtData[1]->WorkLocal[31] = ExtData[1]->WorkLocal[0] (bits 10*-10*)
  3: 0x0018 [0x41] ExtData[1]->WorkLocal[1] = ExtData[1]->WorkLocal[0] (bits 11*-11*)
  4: 0x0021 [0x41] ExtData[1]->WorkLocal[35] = ExtData[1]->WorkLocal[0] (bits 13*-13*)
  5: 0x002A [0x41] ExtData[1]->WorkLocal[34] = ExtData[1]->WorkLocal[0] (bits 16*-31*)
  6: 0x0033 [0x03] ExtData[1]->WorkLocal[28] = 4*
  7: 0x0038 [0x03] ExtData[1]->WorkLocal[3] = Work_Zone[4]
  8: 0x003D [0x03] ExtData[1]->WorkLocal[5] = Work_Zone[5]
  9: 0x0042 [0x03] ExtData[1]->WorkLocal[6] = Work_Zone[6]
 10: 0x0047 [0x03] ExtData[1]->WorkLocal[7] = Work_Zone[7]
 11: 0x004C [0x03] ExtData[1]->WorkLocal[8] = Work_Zone[8]
 12: 0x0051 [0x03] ExtData[1]->WorkLocal[29] = Work_Zone[9]
 13: 0x0056 [0x1A] CALL_SUBROUTINE(address=0x1197)
 14: 0x0059 [0x9D] ExtData[1]->WorkLocal[2] = 0x149C[ExtData[1]->WorkLocal[4]] // Read WORD
 15: 0x0061 [0x02] IF !(ExtData[1]->WorkLocal[2] == 4*) GOTO 0x0070
 16: 0x0069 [0x48] [System] [11786*]:
    → "Before you lies a survival guide penned by the Servicemen's Mutual Aid Network. It touches on such topics as teleportation and battle records."
 17: 0x006C [0x23] WAIT_FOR_DIALOG_INTERACTION
 18: 0x006D [0x01] GOTO 0x0074
 19: 0x0070 [0x48] [System] [11784*]:
    → "Before you lies a survival guide penned by the Adventurers' Mutual Aid Network. It touches on such topics as teleportation and battle records."
 20: 0x0073 [0x23] WAIT_FOR_DIALOG_INTERACTION

SUBROUTINE_0074:
 21: 0x0074 [0x06] ExtData[1]->WorkLocal[9] = 0
 22: 0x0077 [0x06] ExtData[1]->WorkLocal[10] = 0
 23: 0x007A [0x06] ExtData[1]->WorkLocal[32] = 0

SUBROUTINE_007D:
 24: 0x007D [0x02] IF !(ExtData[1]->WorkLocal[9] == 0*) GOTO 0x00D4
 25: 0x0085 [0x24] CREATE_DIALOG(message_id=11787*, default_option=ExtData[1]->WorkLocal[10], option_flags=ExtData[1]->WorkLocal[28])
    → "What chapter will you read? [None./"Teleportation Assistance."/"Field Support."/"Other mysteries."]"
 26: 0x008C [0x25] WAIT_DIALOG_SELECT()
 27: 0x008D [0x02] IF !(Work_Zone[0] == 0*) GOTO 0x009B
 28: 0x0095 [0x05] ExtData[1]->WorkLocal[9] = 1
 29: 0x0098 [0x01] GOTO 0x009B

SUBROUTINE_009B:
 30: 0x009B [0x03] ExtData[1]->WorkLocal[10] = Work_Zone[0]
 31: 0x00A0 [0x02] IF !(ExtData[1]->WorkLocal[9] == 0*) GOTO 0x00D1
 32: 0x00A8 [0x02] IF !(ExtData[1]->WorkLocal[10] == 1*) GOTO 0x00B6
 33: 0x00B0 [0x1A] CALL_SUBROUTINE(address=0x02F3)
 34: 0x00B3 [0x01] GOTO 0x00D1
 35: 0x00B6 [0x02] IF !(ExtData[1]->WorkLocal[10] == 2*) GOTO 0x00C3
 36: 0x00BE [0x42] SET_CLI_EVENT_CANCEL_DATA()
 37: 0x00BF [0x2E] SET_CLI_EVENT_CANCEL_FLAGS()
 38: 0x00C0 [0x01] GOTO 0x00D1
 39: 0x00C3 [0x02] IF !(ExtData[1]->WorkLocal[10] == 3*) GOTO 0x00D1
 40: 0x00CB [0x1A] CALL_SUBROUTINE(address=0x01AB)
 41: 0x00CE [0x01] GOTO 0x00D1

SUBROUTINE_00D1:
 42: 0x00D1 [0x01] GOTO 0x007D
 43: 0x00D4 [0x21] END_EVENT
 44: 0x00D5 [0x00] END_REQSTACK()
```

### Event 8501

#### Metadata

| Field        | Value      |
|--------------|------------|
| Entrypoint   | 0x00D6     |
| Data Size    | 6726 bytes |
| Instructions | 840        |

```
      00 01 02 03 04 05 06 07  08 09 0A 0B 0C 0D 0E 0F
      -- -- -- -- -- -- -- --  -- -- -- -- -- -- -- --
00D0:                   03 00  00 03 10 41 00 80 01 80        .....A....
00E0: 00 00 04 00 41 02 80 02  80 00 00 1F 00 41 03 80  ....A........A..
00F0: 03 80 00 00 01 00 41 04  80 04 80 00 00 23 00 41  ......A......#.A
0100: 05 80 06 80 00 00 22 00  03 1C 00 07 80 03 03 00  ......".........
0110: 04 10 03 05 00 05 10 03  06 00 06 10 03 07 00 07  ................
0120: 10 03 08 00 08 10 03 1D  00 09 10 1A 97 11 9D 00  ................
0130: 9C 14 02 00 04 00 02 02  00 07 80 00 45 01 48 08  ............E.H.
0140: 80 23 01 49 01 48 09 80  23 06 09 00 06 0A 00 06  .#.I.H..#.......
0150: 20 00 02 09 00 00 80 00  A9 01 24 0A 80 0A 00 1C   .........$.....
0160: 00 25 02 00 10 00 80 00  70 01 05 09 00 01 70 01  .%......p.....p.
0170: 03 0A 00 00 10 02 09 00  00 80 00 A6 01 02 0A 00  ................
0180: 0B 80 80 8B 01 1A F3 02  01 A6 01 02 0A 00 0C 80  ................
0190: 80 98 01 42 2E 01 A6 01  02 0A 00 0D 80 80 A6 01  ...B............
01A0: 1A AB 01 01 A6 01 01 52  01 21 00 48 0E 80 23 03  .......R.!.H..#.
01B0: 2D 00 01 00 0B 2D 00 06  2C 00 3C 2C 00 00 80 0B  -....-..,.<,....
01C0: 80 24 0F 80 2D 00 2C 00  25 02 00 10 00 80 00 D4  .$..-.,.%.......
01D0: 01 01 32 02 02 00 10 0B  80 00 03 02 03 01 00 00  ..2.............
01E0: 80 40 00 80 10 80 01 10  0D 80 40 05 80 06 80 01  .@........@.....
01F0: 10 01 00 43 00 43 01 03  03 10 01 00 48 11 80 23  ...C.C......H..#
0200: 01 32 02 02 00 10 0C 80  00 32 02 03 01 00 0B 80  .2.......2......
0210: 40 00 80 10 80 01 10 0D  80 40 05 80 06 80 01 10  @........@......
0220: 01 00 43 00 43 01 03 03  10 01 00 48 11 80 23 01  ..C.C......H..#.
0230: 32 02 1B 06 0B 00 06 0C  00 40 00 80 10 80 01 10  2........@......
0240: 0C 80 40 05 80 06 80 01  10 12 80 43 00 43 01 03  ..@........C.C..
0250: 18 00 03 10 03 19 00 04  10 03 1A 00 05 10 03 1B  ................
0260: 00 06 10 02 1B 00 0B 80  00 85 02 03 03 10 19 00  ................
0270: 03 04 10 18 00 03 05 10  1A 00 48 13 80 23 48 14  ..........H..#H.
0280: 80 23 01 F2 02 03 03 10  19 00 03 04 10 18 00 03  .#..............
0290: 05 10 1A 00 48 13 80 23  48 15 80 23 24 16 80 0B  ....H..#H..#$...
02A0: 80 00 80 25 02 00 10 00  80 00 E7 02 40 00 80 10  ...%........@...
02B0: 80 01 10 0C 80 40 05 80  06 80 01 10 17 80 43 00  .....@........C.
02C0: 43 01 03 24 00 03 10 02  24 00 00 80 00 DB 02 03  C..$....$.......
02D0: 02 10 1A 00 48 18 80 23  01 E4 02 03 02 10 1A 00  ....H..#........
02E0: 48 19 80 23 01 F2 02 02  00 10 0B 80 00 F2 02 01  H..#............
02F0: F2 02 1B 1A 2C 04 06 21  00 48 1A 80 23 02 01 00  ....,..!.H..#...
0300: 00 80 80 C6 03 06 27 00  06 26 00 02 27 00 00 80  ......'..&..'...
0310: 00 C3 03 1A 74 0A 02 25  00 1B 80 00 28 03 48 1C  ....t..%....(.H.
0320: 80 23 05 0B 00 01 C0 03  03 03 10 21 00 24 1D 80  .#.........!.$..
0330: 26 00 25 00 25 02 00 10  00 80 00 43 03 05 27 00  &.%.%......C..'.
0340: 01 43 03 03 26 00 00 10  02 26 00 0B 80 80 56 03  .C..&....&....V.
0350: 05 27 00 01 88 03 02 26  00 1E 80 80 6F 03 02 21  .'.....&....o..!
0360: 00 00 80 02 69 03 0C 21  00 05 27 00 01 88 03 02  ....i..!..'.....
0370: 26 00 1F 80 80 88 03 02  21 00 0B 80 03 82 03 0B  &.......!.......
0380: 21 00 05 27 00 01 88 03  02 27 00 00 80 00 93 03  !..'.....'......
0390: 1A 3C 0B 02 26 00 0B 80  80 A4 03 06 27 00 1A F1  .<..&.......'...
03A0: 04 01 C0 03 02 26 00 1E  80 80 B2 03 06 27 00 01  .....&.......'..
03B0: C0 03 02 26 00 1F 80 80  C0 03 06 27 00 01 C0 03  ...&.......'....
03C0: 01 0B 03 01 2B 04 02 01  00 0B 80 80 2B 04 06 2B  ....+.......+..+
03D0: 00 06 2A 00 02 2B 00 00  80 00 28 04 1A 09 0A 02  ..*..+....(.....
03E0: 25 00 1B 80 00 F1 03 48  1C 80 23 05 0B 00 01 25  %......H..#....%
03F0: 04 24 20 80 2A 00 29 00  25 02 00 10 00 80 00 07  .$ .*.).%.......
0400: 04 05 2B 00 01 07 04 03  2A 00 00 10 02 2A 00 00  ..+.....*....*..
0410: 80 01 25 04 02 2A 00 0B  80 00 22 04 1A F1 04 01  ..%..*....".....
0420: 25 04 1A 3C 0B 01 D4 03  01 2B 04 1B 40 00 80 10  %..<.....+..@...
0430: 80 01 10 10 80 40 05 80  06 80 01 10 00 80 43 00  .....@........C.
0440: 43 01 1A 46 04 1B 41 00  80 10 80 02 10 31 00 41  C..F..A......1.A
0450: 21 80 22 80 02 10 32 00  41 05 80 23 80 02 10 33  !."...2.A..#...3
0460: 00 41 24 80 06 80 02 10  34 00 41 00 80 10 80 03  .A$.....4.A.....
0470: 10 35 00 41 21 80 22 80  03 10 36 00 41 05 80 23  .5.A!."...6.A..#
0480: 80 03 10 37 00 41 24 80  06 80 03 10 38 00 41 00  ...7.A$.....8.A.
0490: 80 10 80 04 10 39 00 06  0E 00 02 0E 00 01 80 03  .....9..........
04A0: C5 04 9D 00 1C 12 0F 00  0E 00 02 0F 00 25 80 02  .............%..
04B0: BF 04 9D 05 1C 12 26 80  0E 00 03 0F 00 26 80 0B  ......&......&..
04C0: 0E 00 01 9A 04 1A C9 04  1B 06 0E 00 06 3A 00 02  .............:..
04D0: 0E 00 01 80 03 F0 04 9D  00 1C 12 0F 00 0E 00 02  ................
04E0: 0F 00 00 80 04 EA 04 0B  3A 00 0B 0E 00 01 CF 04  ........:.......
04F0: 1B 06 2E 00 06 2F 00 02  2E 00 00 80 00 85 07 1A  ...../..........
0500: B6 08 D4 00 27 80 2F 00  30 00 25 02 00 10 00 80  ....'./.0.%.....
0510: 00 19 05 05 2E 00 01 19  05 03 2F 00 00 10 02 2F  ........../..../
0520: 00 02 80 80 34 05 1A 86  07 03 2F 00 02 80 05 2E  ....4...../.....
0530: 00 01 34 05 02 2E 00 00  80 00 77 07 03 12 00 2F  ..4.......w..../
0540: 00 0C 12 00 9D 00 1C 12  3B 00 12 00 02 1F 00 00  ........;.......
0550: 80 02 0B 06 06 4C 00 03  4D 00 0C 80 02 4C 00 00  .....L..M....L..
0560: 80 00 08 06 9D 00 FC 12  10 00 3B 00 9D 00 CC 13  ..........;.....
0570: 11 00 3B 00 03 03 10 10  00 06 11 00 48 28 80 23  ..;.........H(.#
0580: 05 4C 00 1A 85 08 02 12  00 00 80 04 96 05 03 19  .L..............
0590: 17 0B 80 01 9B 05 03 19  17 00 80 24 29 80 4D 00  ...........$).M.
05A0: 00 80 25 02 00 10 00 80  00 B4 05 1A 86 07 06 4C  ..%............L
05B0: 00 01 05 06 02 00 10 0B  80 00 FA 05 42 40 00 80  ............B@..
05C0: 10 80 01 10 0B 80 40 05  80 06 80 01 10 00 80 43  ......@........C
05D0: 00 43 01 1A 4E 11 40 00  80 10 80 01 10 0B 80 40  .C..N.@........@
05E0: 05 80 06 80 01 10 3B 00  05 0B 00 05 09 00 05 27  ......;........'
05F0: 00 05 2B 00 05 2E 00 01  05 06 02 00 10 0C 80 00  ..+.............
0600: 05 06 01 05 06 01 5C 05  01 74 07 06 4C 00 03 4D  ......\..t..L..M
0610: 00 0D 80 02 4C 00 00 80  00 74 07 9D 00 FC 12 10  ....L....t......
0620: 00 3B 00 9D 00 CC 13 11  00 3B 00 03 03 10 10 00  .;.......;......
0630: 02 23 00 00 80 02 3D 06  15 11 00 2A 80 03 04 10  .#....=....*....
0640: 11 00 03 17 00 11 00 15  17 00 2B 80 03 05 10 17  ..........+.....
0650: 00 03 06 10 03 00 03 07  10 22 00 05 4C 00 1A 85  ........."..L...
0660: 08 02 12 00 00 80 04 71  06 03 19 17 0B 80 01 76  .......q.......v
0670: 06 03 19 17 00 80 03 02  10 03 00 24 2C 80 4D 00  ...........$,.M.
0680: 00 80 25 02 00 10 00 80  00 8E 06 01 8E 06 03 4D  ..%............M
0690: 00 00 10 02 4D 00 00 80  80 A4 06 1A 86 07 06 4C  ....M..........L
06A0: 00 01 71 07 02 4D 00 0B  80 80 05 07 02 03 00 11  ..q..M..........
06B0: 00 03 BE 06 48 2D 80 23  06 4C 00 01 02 07 42 40  ....H-.#.L....B@
06C0: 00 80 10 80 01 10 0B 80  40 05 80 06 80 01 10 00  ........@.......
06D0: 80 43 00 43 01 1A 4E 11  40 00 80 10 80 01 10 0B  .C.C..N.@.......
06E0: 80 40 21 80 21 80 01 10  00 80 40 05 80 06 80 01  .@!.!.....@.....
06F0: 10 3B 00 05 0B 00 05 09  00 05 27 00 05 2B 00 05  .;........'..+..
0700: 2E 00 01 71 07 02 4D 00  0C 80 80 66 07 02 22 00  ...q..M....f..".
0710: 17 00 03 1F 07 48 2E 80  23 06 4C 00 01 63 07 42  .....H..#.L..c.B
0720: 40 00 80 10 80 01 10 0B  80 40 05 80 06 80 01 10  @........@......
0730: 00 80 43 00 43 01 1A 4E  11 40 00 80 10 80 01 10  ..C.C..N.@......
0740: 0B 80 40 21 80 21 80 01  10 0B 80 40 05 80 06 80  ..@!.!.....@....
0750: 01 10 3B 00 05 0B 00 05  09 00 05 27 00 05 2B 00  ..;........'..+.
0760: 05 2E 00 01 71 07 02 4D  00 0D 80 80 71 07 01 71  ....q..M....q..q
0770: 07 01 13 06 01 82 07 02  2F 00 00 80 01 82 07 06  ......../.......
0780: 2E 00 01 F7 04 1B 02 19  17 00 80 02 C6 07 40 00  ..............@.
0790: 80 10 80 01 10 2A 80 40  05 80 06 80 01 10 3B 00  .....*.@......;.
07A0: 43 00 43 01 1A 46 04 9D  00 FC 12 03 10 3B 00 9D  C.C..F.......;..
07B0: 00 3C 16 04 10 3B 00 03  19 17 0B 80 48 2F 80 23  .<...;......H/.#
07C0: 06 2F 00 01 84 08 1A C9  04 02 3A 00 01 80 03 09  ./........:.....
07D0: 08 40 00 80 10 80 01 10  07 80 40 05 80 06 80 01  .@........@.....
07E0: 10 3B 00 43 00 43 01 1A  46 04 9D 00 FC 12 03 10  .;.C.C..F.......
07F0: 3B 00 9D 00 3C 16 04 10  3B 00 03 19 17 00 80 48  ;...<...;......H
0800: 2F 80 23 05 2F 00 01 84  08 03 47 00 3B 00 48 30  /.#./.....G.;.H0
0810: 80 23 1A 65 09 D4 00 31  80 00 80 30 00 25 02 00  .#.e...1...0.%..
0820: 10 00 80 00 29 08 01 29  08 03 12 00 00 10 02 12  ....)..)........
0830: 00 00 80 02 7F 08 03 3B  00 47 00 0C 12 00 40 00  .......;.G....@.
0840: 80 10 80 01 10 32 80 40  05 80 23 80 01 10 47 00  .....2.@..#...G.
0850: 40 24 80 06 80 01 10 12  00 43 00 43 01 1A 46 04  @$.......C.C..F.
0860: 9D 00 FC 12 03 10 47 00  9D 00 3C 16 04 10 47 00  ......G...<...G.
0870: 03 19 17 00 80 48 2F 80  23 05 2F 00 01 84 08 03  .....H/.#./.....
0880: 3B 00 47 00 1B 06 0E 00  03 12 00 26 80 02 0E 00  ;.G........&....
0890: 01 80 03 B5 08 9D 00 1C  12 0F 00 0E 00 02 0F 00  ................
08A0: 3B 00 00 AF 08 03 12 00  0E 00 03 0E 00 01 80 0B  ;...............
08B0: 0E 00 01 8D 08 1B 1A 7D  11 06 0E 00 06 30 00 03  .......}.....0..
08C0: 30 00 26 80 02 0E 00 01  80 03 3B 09 9D 00 1C 12  0.&.......;.....
08D0: 12 00 0E 00 02 12 00 04  00 01 35 09 02 12 00 00  ..........5.....
08E0: 80 04 32 09 3D 30 00 0E  00 0B 80 9D 00 3C 16 3C  ..2.=0.......<.<
08F0: 00 12 00 07 3C 00 33 80  03 0F 00 0E 00 0B 0F 00  ....<.3.........
0900: D4 01 0F 00 0C 80 3C 00  9D 00 FC 12 10 00 12 00  ......<.........
0910: 9D 05 4C 12 10 00 0E 00  9D 00 3C 16 3C 00 12 00  ..L.......<.<...
0920: 03 0F 00 0E 00 07 0F 00  05 80 9D 05 4C 12 3C 00  ............L.<.
0930: 0F 00 01 35 09 0B 0E 00  01 C4 08 10 30 00 0B 80  ...5........0...
0940: 3D 30 00 02 80 0B 80 03  3B 00 04 00 1A 85 08 02  =0......;.......
0950: 12 00 00 80 04 5F 09 03  19 17 0B 80 01 64 09 03  ....._.......d..
0960: 19 17 00 80 1B 1A 7D 11  06 0E 00 06 30 00 03 30  ......}.....0..0
0970: 00 26 80 02 0E 00 01 80  03 DF 09 9D 00 1C 12 12  .&..............
0980: 00 0E 00 02 12 00 00 80  04 D9 09 3D 30 00 0E 00  ...........=0...
0990: 0B 80 9D 00 3C 16 3C 00  12 00 07 3C 00 33 80 03  ....<.<....<.3..
09A0: 0F 00 0E 00 0B 0F 00 D4  01 0F 00 0C 80 3C 00 9D  .............<..
09B0: 00 FC 12 10 00 12 00 9D  05 4C 12 10 00 0E 00 9D  .........L......
09C0: 00 3C 16 3C 00 12 00 03  0F 00 0E 00 07 0F 00 05  .<.<............
09D0: 80 9D 05 4C 12 3C 00 0F  00 0B 0E 00 01 73 09 10  ...L.<.......s..
09E0: 30 00 0B 80 3D 30 00 02  80 0B 80 03 3B 00 04 00  0...=0......;...
09F0: 1A 85 08 02 12 00 00 80  04 03 0A 03 19 17 0B 80  ................
0A00: 01 08 0A 03 19 17 00 80  1B 1A 7D 11 06 0E 00 06  ..........}.....
0A10: 29 00 03 29 00 26 80 02  0E 00 34 80 03 6E 0A 02  )..).&....4..n..
0A20: 0E 00 04 00 01 68 0A 03  24 00 0E 00 15 24 00 35  .....h..$....$.5
0A30: 80 03 3D 00 0E 00 3F 3D  00 3D 00 35 80 06 0F 00  ..=...?=.=.5....
0A40: 9D 00 3C 12 0F 00 24 00  3E 0F 00 3D 00 65 0A 9D  ..<...$.>..=.e..
0A50: 00 9C 14 15 00 0E 00 3E  1D 00 15 00 65 0A 3D 29  .......>....e.=)
0A60: 00 15 00 0B 80 01 68 0A  0B 0E 00 01 17 0A 10 29  ......h........)
0A70: 00 0C 80 1B 1A 7D 11 06  0E 00 06 25 00 06 49 00  .....}.....%..I.
0A80: 06 4A 00 03 49 00 26 80  03 4A 00 26 80 02 0E 00  .J..I.&..J.&....
0A90: 34 80 03 03 0B 02 0E 00  04 00 01 FD 0A 03 24 00  4.............$.
0AA0: 0E 00 15 24 00 35 80 03  3D 00 0E 00 3F 3D 00 3D  ...$.5..=...?=.=
0AB0: 00 35 80 06 0F 00 9D 00  3C 12 0F 00 24 00 3E 0F  .5......<...$.>.
0AC0: 00 3D 00 FA 0A 9D 00 9C  14 15 00 0E 00 3E 1D 00  .=...........>..
0AD0: 15 00 FA 0A 9D 00 6C 15  28 00 0E 00 02 28 00 24  ......l.(....(.$
0AE0: 80 03 EE 0A 3D 49 00 28  00 0B 80 01 FA 0A 08 28  ....=I.(.......(
0AF0: 00 24 80 3D 4A 00 28 00  0B 80 01 FD 0A 0B 0E 00  .$.=J.(.........
0B00: 01 8D 0A 02 21 00 00 80  80 1F 0B 03 25 00 49 00  ....!.......%.I.
0B10: 10 25 00 0C 80 3D 25 00  1F 80 0B 80 01 3B 0B 02  .%...=%......;..
0B20: 21 00 0B 80 80 3B 0B 03  25 00 4A 00 10 25 00 0C  !....;..%.J..%..
0B30: 80 3D 25 00 1E 80 0B 80  01 3B 0B 1B 06 0B 00 06  .=%......;......
0B40: 0C 00 06 20 00 02 0B 00  00 80 00 E1 0D 1A E2 0D  ... ............
0B50: D4 00 36 80 0C 00 0D 00  25 02 00 10 00 80 00 68  ..6.....%......h
0B60: 0B 05 0B 00 1B 01 68 0B  03 0C 00 00 10 02 0C 00  ......h.........
0B70: 37 80 80 86 0B 02 20 00  00 80 02 80 0B 0C 20 00  7..... ....... .
0B80: 06 0C 00 01 9F 0B 02 0C  00 38 80 80 9F 0B 02 20  .........8..... 
0B90: 00 07 80 03 99 0B 0B 20  00 06 0C 00 01 9F 0B 02  ....... ........
0BA0: 0C 00 00 80 02 DE 0D 03  48 00 0C 00 0C 48 00 9D  ........H....H..
0BB0: 00 4C 12 47 00 48 00 1A  82 10 03 3B 00 43 00 02  .L.G.H.....;.C..
0BC0: 1F 00 00 80 02 7B 0C 06  4C 00 03 4D 00 0C 80 02  .....{..L..M....
0BD0: 4C 00 00 80 00 78 0C 9D  00 FC 12 10 00 3B 00 9D  L....x.......;..
0BE0: 00 CC 13 11 00 3B 00 03  03 10 10 00 06 11 00 48  .....;.........H
0BF0: 28 80 23 05 4C 00 1A 85  08 02 12 00 00 80 04 09  (.#.L...........
0C00: 0C 03 19 17 0B 80 01 0E  0C 03 19 17 00 80 24 29  ..............$)
0C10: 80 4D 00 00 80 25 02 00  10 00 80 00 27 0C 1A 86  .M...%......'...
0C20: 07 06 4C 00 01 75 0C 02  00 10 0B 80 00 6A 0C 42  ..L..u.......j.B
0C30: 40 00 80 10 80 01 10 0B  80 40 05 80 06 80 01 10  @........@......
0C40: 00 80 43 00 43 01 1A 4E  11 40 00 80 10 80 01 10  ..C.C..N.@......
0C50: 0B 80 40 05 80 06 80 01  10 3B 00 05 0B 00 05 09  ..@......;......
0C60: 00 05 27 00 05 2B 00 01  75 0C 02 00 10 0C 80 00  ..'..+..u.......
0C70: 75 0C 01 75 0C 01 CF 0B  01 DE 0D 06 4C 00 03 4D  u..u........L..M
0C80: 00 0D 80 02 4C 00 00 80  00 DE 0D 9D 00 FC 12 10  ....L...........
0C90: 00 3B 00 9D 00 CC 13 11  00 3B 00 03 03 10 10 00  .;.......;......
0CA0: 02 23 00 00 80 02 AD 0C  15 11 00 2A 80 03 04 10  .#.........*....
0CB0: 11 00 03 17 00 11 00 15  17 00 2B 80 03 05 10 17  ..........+.....
0CC0: 00 03 06 10 03 00 03 07  10 22 00 05 4C 00 1A 85  ........."..L...
0CD0: 08 02 12 00 00 80 04 E1  0C 03 19 17 0B 80 01 E6  ................
0CE0: 0C 03 19 17 00 80 03 02  10 03 00 24 2C 80 4D 00  ...........$,.M.
0CF0: 00 80 25 02 00 10 00 80  00 FE 0C 01 FE 0C 03 4D  ..%............M
0D00: 00 00 10 02 4D 00 00 80  80 14 0D 1A 86 07 06 4C  ....M..........L
0D10: 00 01 DB 0D 02 4D 00 0B  80 80 72 0D 02 03 00 11  .....M....r.....
0D20: 00 03 2E 0D 48 2D 80 23  06 4C 00 01 6F 0D 42 40  ....H-.#.L..o.B@
0D30: 00 80 10 80 01 10 0B 80  40 05 80 06 80 01 10 00  ........@.......
0D40: 80 43 00 43 01 1A 4E 11  40 00 80 10 80 01 10 0B  .C.C..N.@.......
0D50: 80 40 21 80 21 80 01 10  00 80 40 05 80 06 80 01  .@!.!.....@.....
0D60: 10 3B 00 05 0B 00 05 09  00 05 27 00 05 2B 00 01  .;........'..+..
0D70: DB 0D 02 4D 00 0C 80 80  D0 0D 02 22 00 17 00 03  ...M......."....
0D80: 8C 0D 48 2E 80 23 06 4C  00 01 CD 0D 42 40 00 80  ..H..#.L....B@..
0D90: 10 80 01 10 0B 80 40 05  80 06 80 01 10 00 80 43  ......@........C
0DA0: 00 43 01 1A 4E 11 40 00  80 10 80 01 10 0B 80 40  .C..N.@........@
0DB0: 21 80 21 80 01 10 0B 80  40 05 80 06 80 01 10 3B  !.!.....@......;
0DC0: 00 05 0B 00 05 09 00 05  27 00 05 2B 00 01 DB 0D  ........'..+....
0DD0: 02 4D 00 0D 80 80 DB 0D  01 DB 0D 01 83 0C 01 45  .M.............E
0DE0: 0B 1B 1A 7D 11 06 0F 00  06 0E 00 02 01 00 00 80  ...}............
0DF0: 80 0B 0F 03 28 00 21 00  14 28 00 24 80 07 28 00  ....(.!..(.$..(.
0E00: 26 00 08 28 00 0C 80 03  41 00 28 00 06 0D 00 06  &..(....A.(.....
0E10: 3E 00 03 49 00 26 80 03  4A 00 26 80 03 4B 00 26  >..I.&..J.&..K.&
0E20: 80 02 0E 00 34 80 03 92  0E 03 24 00 0E 00 15 24  ....4.....$....$
0E30: 00 35 80 03 3D 00 0E 00  3F 3D 00 3D 00 35 80 06  .5..=...?=.=.5..
0E40: 0F 00 9D 00 3C 12 0F 00  24 00 3E 0F 00 3D 00 8C  ....<...$.>..=..
0E50: 0E 9D 00 9C 14 15 00 0E  00 3E 1D 00 15 00 8C 0E  .........>......
0E60: 9D 00 6C 15 28 00 0E 00  02 41 00 28 00 00 8C 0E  ..l.(....A.(....
0E70: 9D 00 FC 12 10 00 0E 00  02 0E 00 04 00 01 86 0E  ................
0E80: 06 44 00 01 89 0E 05 44  00 1A EB 10 0B 0E 00 01  .D.....D........
0E90: 21 0E 02 20 00 00 80 80  D3 0E 03 0D 00 49 00 02  !.. .........I..
0EA0: 3E 00 2B 80 03 B8 0E 40  3E 00 06 80 0D 00 26 80  >.+....@>.....&.
0EB0: 10 0D 00 0B 80 01 CD 0E  40 2B 80 06 80 0D 00 26  ........@+.....&
0EC0: 80 10 0D 00 0B 80 3D 0D  00 38 80 0B 80 1A 48 10  ......=..8....H.
0ED0: 01 08 0F 02 20 00 0B 80  80 08 0F 1A B9 10 03 0D  .... ...........
0EE0: 00 4A 00 03 12 00 3E 00  08 12 00 2B 80 40 12 00  .J....>....+.@..
0EF0: 06 80 0D 00 26 80 10 0D  00 0B 80 3D 0D 00 37 80  ....&......=..7.
0F00: 0B 80 1A 48 10 01 08 0F  01 47 10 02 01 00 0B 80  ...H.....G......
0F10: 80 47 10 06 0D 00 06 3E  00 03 49 00 26 80 03 4A  .G.....>..I.&..J
0F20: 00 26 80 03 4B 00 26 80  03 1E 00 2A 00 08 1E 00  .&..K.&....*....
0F30: 0C 80 06 0E 00 02 0E 00  34 80 03 9E 0F 03 24 00  ........4.....$.
0F40: 0E 00 15 24 00 35 80 03  3D 00 0E 00 3F 3D 00 3D  ...$.5..=...?=.=
0F50: 00 35 80 06 0F 00 9D 00  3C 12 0F 00 24 00 3E 0F  .5......<...$.>.
0F60: 00 3D 00 98 0F 9D 00 9C  14 15 00 0E 00 3E 1D 00  .=...........>..
0F70: 15 00 98 0F 02 1E 00 15  00 00 98 0F 9D 00 FC 12  ................
0F80: 10 00 0E 00 02 0E 00 04  00 01 92 0F 06 44 00 01  .............D..
0F90: 95 0F 05 44 00 1A EB 10  0B 0E 00 01 35 0F 03 46  ...D........5..F
0FA0: 00 3E 00 0C 46 00 15 46  00 2B 80 02 3E 00 00 80  .>..F..F.+..>...
0FB0: 00 BB 0F 03 47 00 3E 00  01 CD 0F 03 47 00 3E 00  ....G.>.....G.>.
0FC0: 0C 47 00 3F 47 00 47 00  2B 80 0B 47 00 02 20 00  .G.?G.G.+..G.. .
0FD0: 00 80 80 DD 0F 03 0D 00  49 00 01 FD 0F 02 20 00  ........I..... .
0FE0: 0B 80 80 ED 0F 03 0D 00  4A 00 01 FD 0F 02 20 00  ........J..... .
0FF0: 0C 80 80 FD 0F 03 0D 00  4B 00 01 FD 0F 02 46 00  ........K.....F.
1000: 20 00 02 1D 10 40 2B 80  06 80 0D 00 26 80 10 0D   ....@+.....&...
1010: 00 0B 80 3D 0D 00 38 80  0B 80 01 32 10 40 3E 00  ...=..8....2.@>.
1020: 06 80 0D 00 26 80 10 0D  00 0B 80 3C 0D 00 38 80  ....&......<..8.
1030: 0B 80 02 20 00 00 80 02  41 10 3D 0D 00 37 80 0B  ... ....A.=..7..
1040: 80 1A 48 10 01 47 10 1B  06 46 00 06 47 00 02 46  ..H..G...F..G..F
1050: 00 2B 80 03 81 10 9D 00  4C 12 47 00 46 00 1A 82  .+......L.G.F...
1060: 10 03 3F 00 42 00 07 3F  00 33 80 03 40 00 46 00  ..?.B..?.3..@.F.
1070: 0B 40 00 D4 01 40 00 0C  80 3F 00 0B 46 00 01 4E  .@...@...?..F..N
1080: 10 1B 06 0E 00 06 42 00  02 0E 00 34 80 03 B8 10  ......B....4....
1090: 9D 00 FC 12 3C 00 0E 00  02 47 00 3C 00 00 B2 10  ....<....G.<....
10A0: 9D 00 3C 16 42 00 0E 00  03 43 00 0E 00 03 0E 00  ..<.B....C......
10B0: 34 80 0B 0E 00 01 88 10  1B 06 46 00 06 47 00 06  4.........F..G..
10C0: 12 00 02 46 00 2B 80 03  EA 10 03 12 00 46 00 07  ...F.+.......F..
10D0: 12 00 2B 80 9D 00 4C 12  47 00 12 00 9D 05 4C 12  ..+...L.G.....L.
10E0: 47 00 46 00 0B 46 00 01  C2 10 1B 03 46 00 3E 00  G.F..F......F.>.
10F0: 15 46 00 2B 80 02 46 00  20 00 00 4A 11 3F 47 00  .F.+..F. ..J.?G.
1100: 3E 00 2B 80 9D 05 4C 12  10 00 47 00 02 44 00 00  >.+...L...G..D..
1110: 80 00 4A 11 02 20 00 00  80 80 26 11 3D 49 00 47  ..J.. ....&.=I.G
1120: 00 0B 80 01 4A 11 02 20  00 0B 80 80 38 11 3D 4A  ....J.. ....8.=J
1130: 00 47 00 0B 80 01 4A 11  02 20 00 0C 80 80 4A 11  .G....J.. ....J.
1140: 3D 4B 00 47 00 0B 80 01  4A 11 0B 3E 00 1B 73 39  =K.G....J..>..s9
1150: 80 67 81 0B 01 F0 FF FF  7F 1C 3A 80 45 3B 80 F0  .g........:.E;..
1160: FF FF 7F F0 FF FF 7F 66  64 6F 31 00 80 1C 3C 80  .......fdo1...<.
1170: 1B 48 2D 80 23 21 1B 48  2E 80 23 21 1B 06 0E 00  .H-.#!.H..#!....
1180: 02 0E 00 3D 80 03 96 11  9D 05 4C 12 00 80 0E 00  ...=......L.....
1190: 0B 0E 00 01 80 11 1B 03  03 10 05 00 03 04 10 06  ................
11A0: 00 03 05 10 07 00 03 06  10 08 00 06 05 00 06 06  ................
11B0: 00 06 07 00 06 08 00 06  0E 00 06 12 00 02 0E 00  ................
11C0: 34 80 03 1B 12 9D 00 3C  16 3C 00 0E 00 03 24 00  4......<.<....$.
11D0: 3C 00 15 24 00 35 80 3F  3D 00 3C 00 35 80 9D 00  <..$.5.?=.<.5...
11E0: 4C 12 0F 00 24 00 3E 0F  00 3D 00 15 12 03 24 00  L...$.>..=....$.
11F0: 0E 00 15 24 00 35 80 3F  3D 00 0E 00 35 80 9D 00  ...$.5.?=...5...
1200: 3C 12 0F 00 24 00 3C 0F  00 3D 00 0B 80 9D 05 3C  <...$.<..=.....<
1210: 12 0F 00 24 00 0B 0E 00  01 BD 11 1B 31 00 32 00  ...$........1.2.
1220: 33 00 34 00 35 00 36 00  37 00 38 00 39 00 26 80  3.4.5.6.7.8.9.&.
1230: 26 80 26 80 26 80 26 80  26 80 26 80 05 00 06 00  &.&.&.&.&.&.....
1240: 07 00 08 00 00 80 00 80  00 80 00 80 03 10 04 10  ................
1250: 05 10 06 10 07 10 08 10  09 10 00 17 01 17 02 17  ................
1260: 03 17 04 17 05 17 06 17  07 17 08 17 09 17 0A 17  ................
1270: 0B 17 0C 17 0D 17 0E 17  0F 17 10 17 11 17 12 17  ................
1280: 13 17 14 17 15 17 16 17  17 17 18 17 19 17 1A 17  ................
1290: 1B 17 1C 17 1D 17 1E 17  1F 17 02 10 3E 80 3F 80  ............>.?.
12A0: 40 80 41 80 42 80 43 80  44 80 45 80 46 80 47 80  @.A.B.C.D.E.F.G.
12B0: 48 80 49 80 4A 80 4B 80  4C 80 4D 80 4E 80 4F 80  H.I.J.K.L.M.N.O.
12C0: 50 80 51 80 52 80 53 80  54 80 55 80 2A 80 02 80  P.Q.R.S.T.U.*...
12D0: 2B 80 3D 80 56 80 57 80  58 80 59 80 5A 80 5B 80  +.=.V.W.X.Y.Z.[.
12E0: 5C 80 5D 80 5E 80 5F 80  60 80 61 80 62 80 63 80  \.].^._.`.a.b.c.
12F0: 64 80 65 80 66 80 67 80  68 80 69 80 6A 80 6B 80  d.e.f.g.h.i.j.k.
1300: 6C 80 6D 80 1E 80 6E 80  6F 80 70 80 71 80 72 80  l.m...n.o.p.q.r.
1310: 73 80 74 80 75 80 76 80  77 80 0C 80 78 80 79 80  s.t.u.v.w...x.y.
1320: 7A 80 7B 80 7C 80 7D 80  7E 80 7F 80 80 80 81 80  z.{.|.}.~.......
1330: 82 80 83 80 84 80 85 80  86 80 07 80 87 80 88 80  ................
1340: 89 80 8A 80 8B 80 8C 80  8D 80 3B 80 8E 80 8F 80  ..........;.....
1350: 90 80 91 80 92 80 25 80  93 80 94 80 39 80 95 80  ......%.....9...
1360: 96 80 97 80 98 80 99 80  33 80 9A 80 9B 80 9C 80  ........3.......
1370: 9D 80 58 80 9E 80 9F 80  A0 80 A1 80 A2 80 03 80  ..X.............
1380: 24 80 A3 80 1F 80 A4 80  A5 80 A6 80 A7 80 A8 80  $...............
1390: A9 80 AA 80 AB 80 56 80  AC 80 AD 80 AE 80 AF 80  ......V.........
13A0: B0 80 B1 80 B2 80 B3 80  B4 80 B5 80 B6 80 B7 80  ................
13B0: B8 80 B9 80 BA 80 34 80  BB 80 BC 80 BD 80 BE 80  ......4.........
13C0: 00 80 00 80 00 80 00 80  00 80 00 80 BF 80 BF 80  ................
13D0: BF 80 BF 80 BF 80 BF 80  BF 80 BF 80 BF 80 BF 80  ................
13E0: BF 80 BF 80 BF 80 BF 80  BF 80 BF 80 BF 80 BF 80  ................
13F0: BF 80 BF 80 BF 80 BF 80  BF 80 BF 80 BF 80 BF 80  ................
1400: BF 80 BF 80 BF 80 BF 80  BF 80 BF 80 BF 80 BF 80  ................
1410: BF 80 BF 80 BF 80 BF 80  BF 80 BF 80 BF 80 BF 80  ................
1420: BF 80 BF 80 BF 80 BF 80  BF 80 BF 80 BF 80 BF 80  ................
1430: BF 80 BF 80 BF 80 BF 80  BF 80 BF 80 BF 80 BF 80  ................
1440: BF 80 BF 80 BF 80 BF 80  BF 80 BF 80 BF 80 BF 80  ................
1450: BF 80 BF 80 BF 80 BF 80  BF 80 BF 80 BF 80 BF 80  ................
1460: BF 80 BF 80 BF 80 BF 80  BF 80 BF 80 BF 80 BF 80  ................
1470: BF 80 BF 80 BF 80 BF 80  BF 80 BF 80 BF 80 BF 80  ................
1480: BF 80 BF 80 BF 80 BF 80  BF 80 BF 80 BF 80 BF 80  ................
1490: 00 80 00 80 00 80 00 80  00 80 00 80 00 80 00 80  ................
14A0: 00 80 00 80 0C 80 0D 80  00 80 00 80 00 80 00 80  ................
14B0: 00 80 00 80 00 80 00 80  00 80 0C 80 00 80 00 80  ................
14C0: 00 80 00 80 00 80 00 80  0B 80 00 80 00 80 00 80  ................
14D0: 00 80 00 80 00 80 00 80  00 80 0C 80 00 80 00 80  ................
14E0: 00 80 0B 80 00 80 00 80  00 80 00 80 00 80 00 80  ................
14F0: 00 80 00 80 00 80 00 80  00 80 0B 80 0B 80 0B 80  ................
1500: 0B 80 0B 80 0B 80 0B 80  0B 80 0B 80 0B 80 0B 80  ................
1510: 0B 80 0B 80 0B 80 0B 80  0B 80 0B 80 0B 80 0C 80  ................
1520: 0C 80 0C 80 0C 80 0C 80  0D 80 0D 80 0D 80 0D 80  ................
1530: 0D 80 0D 80 0D 80 07 80  07 80 07 80 07 80 07 80  ................
1540: 07 80 07 80 07 80 07 80  07 80 07 80 07 80 07 80  ................
1550: 07 80 07 80 07 80 07 80  07 80 07 80 07 80 03 80  ................
1560: 00 80 00 80 00 80 00 80  00 80 00 80 00 80 0B 80  ................
1570: 0C 80 0D 80 07 80 2A 80  10 80 10 80 10 80 10 80  ......*.........
1580: 21 80 21 80 21 80 21 80  21 80 01 80 01 80 01 80  !.!.!.!.!.......
1590: 01 80 01 80 02 80 02 80  02 80 02 80 03 80 03 80  ................
15A0: 03 80 03 80 C0 80 C0 80  C0 80 04 80 04 80 04 80  ................
15B0: 04 80 04 80 C1 80 C1 80  C1 80 C1 80 22 80 22 80  ............".".
15C0: 05 80 05 80 C2 80 C2 80  C2 80 C3 80 C3 80 C3 80  ................
15D0: C4 80 C4 80 C4 80 2B 80  2B 80 2B 80 2B 80 37 80  ......+.+.+.+.7.
15E0: 37 80 37 80 37 80 38 80  38 80 38 80 23 80 24 80  7.7.7.8.8.8.#.$.
15F0: A3 80 A3 80 A3 80 A3 80  1F 80 1F 80 1F 80 A4 80  ................
1600: C5 80 C5 80 C5 80 06 80  06 80 35 80 35 80 35 80  ..........5.5.5.
1610: C6 80 C6 80 C6 80 C7 80  C7 80 C7 80 C7 80 C8 80  ................
1620: C8 80 C8 80 C9 80 C9 80  C9 80 CA 80 CB 80 32 80  ..............2.
1630: 00 80 00 80 00 80 00 80  00 80 00 80 24 80 A3 80  ............$...
1640: 1E 80 1F 80 B3 80 AE 80  00 80 C7 80 C4 80 CC 80  ................
1650: A4 80 0B 80 CD 80 CE 80  CF 80 D0 80 0C 80 C5 80  ................
1660: C9 80 37 80 0D 80 B9 80  6E 80 D1 80 07 80 06 80  ..7.....n.......
1670: C8 80 38 80 2A 80 2B 80  D2 80 D3 80 35 80 32 80  ..8.*.+.....5.2.
1680: D4 80 AA 80 02 80 C6 80  CA 80 23 80 10 80 D5 80  ..........#.....
1690: 21 80 CB 80 01 80 D6 80  3D 80 03 80 D7 80 D8 80  !.......=.......
16A0: C0 80 D9 80 AD 80 04 80  B7 80 A5 80 A9 80 C1 80  ................
16B0: DA 80 56 80 AC 80 22 80  DB 80 B8 80 C2 80 C3 80  ..V...".........
16C0: 05 80 DC 80 DD 80 DE 80  3C 80 DF 80 A8 80 B5 80  ........<.......
16D0: E0 80 B4 80 B2 80 E1 80  E2 80 E3 80 E4 80 AB 80  ................
16E0: B0 80 E5 80 A7 80 A6 80  E6 80 E7 80 E8 80 B1 80  ................
16F0: E9 80 EA 80 EB 80 EC 80  ED 80 EE 80 EF 80 BA 80  ................
1700: 00 80 00 80 00 80 00 80  00 80 00 80 F0 80 F1 80  ................
1710: F2 80 F3 80 F4 80 F5 80  F6 80 F7 80 F8 80 F9 80  ................
1720: FA 80 FB 80 FC 80 FD 80  FE 80 FF 80 00 81 01 81  ................
1730: 02 81 03 81 04 81 05 81  06 81 07 81 08 81 09 81  ................
1740: 0A 81 0B 81 0C 81 0D 81  0E 81 0F 81 10 81 11 81  ................
1750: 12 81 13 81 14 81 15 81  16 81 17 81 18 81 19 81  ................
1760: 1A 81 1B 81 1C 81 1D 81  1E 81 1F 81 63 80 20 81  ............c. .
1770: 21 81 22 81 23 81 24 81  25 81 26 81 27 81 28 81  !.".#.$.%.&.'.(.
1780: 02 81 29 81 2A 81 2B 81  FE 80 2C 81 2D 81 2E 81  ..).*.+...,.-...
1790: 2F 81 20 81 30 81 F2 80  31 81 32 81 33 81 34 81  /. .0...1.2.3.4.
17A0: 35 81 36 81 37 81 38 81  39 81 3A 81 3B 81 03 81  5.6.7.8.9.:.;...
17B0: 3C 81 3D 81 3E 81 3F 81  40 81 41 81 0B 81 42 81  <.=.>.?.@.A...B.
17C0: 43 81 44 81 45 81 46 81  47 81 48 81 1B 81 49 81  C.D.E.F.G.H...I.
17D0: 00 80 00 80 00 80 00 80  00 80 00 80 68 80 4A 81  ............h.J.
17E0: 4B 81 4C 81 4D 81 4E 81  4F 81 61 80 50 81 51 81  K.L.M.N.O.a.P.Q.
17F0: 52 81 53 81 54 81 55 81  56 81 57 81 58 81 59 81  R.S.T.U.V.W.X.Y.
1800: 05 81 5A 81 5B 81 61 80  5C 81 BF 80 5D 81 5E 81  ..Z.[.a.\...].^.
1810: 5F 81 5C 81 60 81 61 81  62 81 63 81 64 81 65 81  _.\.`.a.b.c.d.e.
1820: 66 81 67 81 68 81 69 81  2A 81 6A 81 6B 81 6C 81  f.g.h.i.*.j.k.l.
1830: 6D 81 6E 81 6F 81 70 81  71 81 72 81 73 81 74 81  m.n.o.p.q.r.s.t.
1840: 75 81 76 81 77 81 01 81  78 81 79 81 7A 81 3B 81  u.v.w...x.y.z.;.
1850: 7B 81 7C 81 7D 81 7E 81  7F 81 14 81 80 81 81 81  {.|.}.~.........
1860: 82 81 83 81 56 81 7F 81  53 81 FD 80 84 81 85 81  ....V...S.......
1870: 74 81 35 81 86 81 87 81  88 81 89 81 8A 81 5A 81  t.5...........Z.
1880: 8B 81 8C 81 8D 81 8E 81  8F 81 90 81 5C 81 91 81  ............\...
1890: 92 81 93 81 05 81 94 81  95 81 96 81 6E 81 97 81  ............n...
18A0: 00 80 00 80 00 80 00 80  00 80 00 80 33 81 00 80  ............3...
18B0: 98 81 62 80 18 81 00 80  99 81 35 81 2B 80 00 80  ..b.......5.+...
18C0: 9A 81 9B 81 9C 81 9D 81  87 81 9E 81 59 80 9E 81  ............Y...
18D0: 9F 81 A0 81 A1 81 00 80  05 81 A2 81 A3 81 A4 81  ................
18E0: A5 81 A6 81 A7 81 A8 81  A9 81 AA 81 AB 81 AC 81  ................
18F0: AD 81 AE 81 AF 81 B0 81  58 80 B1 81 B2 81 4C 80  ........X.....L.
1900: 07 81 B3 81 35 81 B4 81  00 80 3B 80 18 81 B5 81  ....5.....;.....
1910: B6 81 B7 81 B8 81 B9 81  BA 81 BB 81 BC 81 00 80  ................
1920: 07 81 05 81 BF 80 00 80  A9 81 3A 80 81 81 B9 81  ..........:.....
1930: BD 81 BE 81 00 80 B3 81  35 81 07 81 BF 81 C0 81  ........5.......
1940: 00 80 C1 81 2A 81 BF 80  C2 81 C3 81 26 81 A0 81  ....*.......&...
1950: 00 80 C4 81 C5 81 C6 81  C7 81 C8 81 A6 81 C9 81  ................
1960: 6E 81 CA 81 CB 81 A9 81  B1 81 CC 81 B3 81 00 80  n...............
1970: 00 80 00 80 00 80 00 80  00 80 00 80 00 80 00 80  ................
1980: CD 81 CE 81 CD 81 CF 81  CE 81 D0 81 00 80 00 80  ................
1990: D1 81 D2 81 12 80 CE 81  D3 81 D3 81 CD 81 D3 81  ................
19A0: 00 80 CE 81 D0 81 D3 81  12 80 D2 81 12 80 CD 81  ................
19B0: D3 81 CD 81 00 80 D4 81  D3 81 00 80 D3 81 CD 81  ................
19C0: 00 80 D2 81 D1 81 D0 81  D3 81 CE 81 12 80 D2 81  ................
19D0: D4 81 CD 81 CD 81 CE 81  00 80 CD 81 12 80 D2 81  ................
19E0: CE 81 12 80 CD 81 CE 81  D3 81 00 80 D0 81 CD 81  ................
19F0: CE 81 00 80 12 80 D2 81  CD 81 D3 81 D4 81 CE 81  ................
1A00: D4 81 CD 81 CE 81 CD 81  CD 81 12 80 CE 81 12 80  ................
1A10: CE 81 CE 81 D0 81 CD 81  12 80 CD 81 D3 81 CE 81  ................
1A20: D2 81 D3 81 CD 81 D3 81  00 80 D1 81 CD 81 CE 81  ................
1A30: D3 81 D1 81 00 80 D3 81  CE 81 D3 81 CD 81 CF 81  ................
1A40: 00 80 00 80 00 80 00 80  00 80 00 80 00 80 00 80  ................
1A50: 0C 80 07 80 0C 80 10 80  07 80 0D 80 00 80 00 80  ................
1A60: 10 80 2A 80 0B 80 07 80  32 80 32 80 0C 80 32 80  ..*.....2.2...2.
1A70: 00 80 07 80 0D 80 32 80  0B 80 2A 80 0B 80 0C 80  ......2...*.....
1A80: 32 80 0C 80 00 80 32 80  32 80 00 80 32 80 0C 80  2.....2.2...2...
1A90: 00 80 2A 80 10 80 0D 80  32 80 07 80 0B 80 2A 80  ..*.....2.....*.
1AA0: 32 80 0C 80 0C 80 07 80  00 80 0C 80 0B 80 2A 80  2.............*.
1AB0: 07 80 0B 80 0C 80 07 80  32 80 00 80 0D 80 0C 80  ........2.......
1AC0: 07 80 00 80 0B 80 2A 80  0C 80 32 80 32 80 07 80  ......*...2.2...
1AD0: 32 80 0C 80 07 80 0C 80  0C 80 0B 80 07 80 0B 80  2...............
1AE0: 07 80 07 80 0D 80 0C 80  0B 80 0C 80 32 80 07 80  ............2...
1AF0: 2A 80 32 80 0C 80 32 80  00 80 10 80 0C 80 07 80  *.2...2.........
1B00: 32 80 10 80 00 80 32 80  07 80 32 80 0C 80 10 80  2.....2...2.....
1B10: 00 80 00 80 00 80 00 80  00 80 00 80              ............    
```

#### Opcodes

```
  0: 0x00D6 [0x03] ExtData[1]->WorkLocal[0] = Work_Zone[3]
  1: 0x00DB [0x41] ExtData[1]->WorkLocal[4] = ExtData[1]->WorkLocal[0] (bits 0*-9*)
  2: 0x00E4 [0x41] ExtData[1]->WorkLocal[31] = ExtData[1]->WorkLocal[0] (bits 10*-10*)
  3: 0x00ED [0x41] ExtData[1]->WorkLocal[1] = ExtData[1]->WorkLocal[0] (bits 11*-11*)
  4: 0x00F6 [0x41] ExtData[1]->WorkLocal[35] = ExtData[1]->WorkLocal[0] (bits 13*-13*)
  5: 0x00FF [0x41] ExtData[1]->WorkLocal[34] = ExtData[1]->WorkLocal[0] (bits 16*-31*)
  6: 0x0108 [0x03] ExtData[1]->WorkLocal[28] = 4*
  7: 0x010D [0x03] ExtData[1]->WorkLocal[3] = Work_Zone[4]
  8: 0x0112 [0x03] ExtData[1]->WorkLocal[5] = Work_Zone[5]
  9: 0x0117 [0x03] ExtData[1]->WorkLocal[6] = Work_Zone[6]
 10: 0x011C [0x03] ExtData[1]->WorkLocal[7] = Work_Zone[7]
 11: 0x0121 [0x03] ExtData[1]->WorkLocal[8] = Work_Zone[8]
 12: 0x0126 [0x03] ExtData[1]->WorkLocal[29] = Work_Zone[9]
 13: 0x012B [0x1A] CALL_SUBROUTINE(address=0x1197)
 14: 0x012E [0x9D] ExtData[1]->WorkLocal[2] = 0x149C[ExtData[1]->WorkLocal[4]] // Read WORD
 15: 0x0136 [0x02] IF !(ExtData[1]->WorkLocal[2] == 4*) GOTO 0x0145
 16: 0x013E [0x48] [System] [11786*]:
    → "Before you lies a survival guide penned by the Servicemen's Mutual Aid Network. It touches on such topics as teleportation and battle records."
 17: 0x0141 [0x23] WAIT_FOR_DIALOG_INTERACTION
 18: 0x0142 [0x01] GOTO 0x0149
 19: 0x0145 [0x48] [System] [11784*]:
    → "Before you lies a survival guide penned by the Adventurers' Mutual Aid Network. It touches on such topics as teleportation and battle records."
 20: 0x0148 [0x23] WAIT_FOR_DIALOG_INTERACTION

SUBROUTINE_0149:
 21: 0x0149 [0x06] ExtData[1]->WorkLocal[9] = 0
 22: 0x014C [0x06] ExtData[1]->WorkLocal[10] = 0
 23: 0x014F [0x06] ExtData[1]->WorkLocal[32] = 0

SUBROUTINE_0152:
 24: 0x0152 [0x02] IF !(ExtData[1]->WorkLocal[9] == 0*) GOTO 0x01A9
 25: 0x015A [0x24] CREATE_DIALOG(message_id=11787*, default_option=ExtData[1]->WorkLocal[10], option_flags=ExtData[1]->WorkLocal[28])
    → "What chapter will you read? [None./"Teleportation Assistance."/"Field Support."/"Other mysteries."]"
 26: 0x0161 [0x25] WAIT_DIALOG_SELECT()
 27: 0x0162 [0x02] IF !(Work_Zone[0] == 0*) GOTO 0x0170
 28: 0x016A [0x05] ExtData[1]->WorkLocal[9] = 1
 29: 0x016D [0x01] GOTO 0x0170

SUBROUTINE_0170:
 30: 0x0170 [0x03] ExtData[1]->WorkLocal[10] = Work_Zone[0]
 31: 0x0175 [0x02] IF !(ExtData[1]->WorkLocal[9] == 0*) GOTO 0x01A6
 32: 0x017D [0x02] IF !(ExtData[1]->WorkLocal[10] == 1*) GOTO 0x018B
 33: 0x0185 [0x1A] CALL_SUBROUTINE(address=0x02F3)
 34: 0x0188 [0x01] GOTO 0x01A6
 35: 0x018B [0x02] IF !(ExtData[1]->WorkLocal[10] == 2*) GOTO 0x0198
 36: 0x0193 [0x42] SET_CLI_EVENT_CANCEL_DATA()
 37: 0x0194 [0x2E] SET_CLI_EVENT_CANCEL_FLAGS()
 38: 0x0195 [0x01] GOTO 0x01A6
 39: 0x0198 [0x02] IF !(ExtData[1]->WorkLocal[10] == 3*) GOTO 0x01A6
 40: 0x01A0 [0x1A] CALL_SUBROUTINE(address=0x01AB)
 41: 0x01A3 [0x01] GOTO 0x01A6

SUBROUTINE_01A6:
 42: 0x01A6 [0x01] GOTO 0x0152
 43: 0x01A9 [0x21] END_EVENT
 44: 0x01AA [0x00] END_REQSTACK()

SUBROUTINE_01AB:
 45: 0x01AB [0x48] [System] [11800*]:
    → "You may change the way you select areas listed in "Teleportation Assistance.""
 46: 0x01AE [0x23] WAIT_FOR_DIALOG_INTERACTION
 47: 0x01AF [0x03] ExtData[1]->WorkLocal[45] = ExtData[1]->WorkLocal[1]
 48: 0x01B4 [0x0B] ExtData[1]->WorkLocal[45]++
 49: 0x01B7 [0x06] ExtData[1]->WorkLocal[44] = 0
 50: 0x01BA [0x3C] SET_BIT_FLAG_CONDITIONAL(target_work_offset=ExtData[1]->WorkLocal[44], bit_index_work_offset=0*, condition_work_offset=1*)
 51: 0x01C1 [0x24] CREATE_DIALOG(message_id=11801*, default_option=ExtData[1]->WorkLocal[45], option_flags=ExtData[1]->WorkLocal[44])
    → "Any changes to make? [Keep course./Select by region./Select by content.]"
 52: 0x01C8 [0x25] WAIT_DIALOG_SELECT()
 53: 0x01C9 [0x02] IF !(Work_Zone[0] == 0*) GOTO 0x01D4
 54: 0x01D1 [0x01] GOTO 0x0232
 55: 0x01D4 [0x02] IF !(Work_Zone[0] == 1*) GOTO 0x0203
 56: 0x01DC [0x03] ExtData[1]->WorkLocal[1] = 0*
 57: 0x01E1 [0x40] SET_BIT_WORK_RANGE(start_bit=0*, end_bit=7*, target=Work_Zone[1], source=3*)
 58: 0x01EA [0x40] SET_BIT_WORK_RANGE(start_bit=16*, end_bit=31*, target=Work_Zone[1], source=ExtData[1]->WorkLocal[1])
 59: 0x01F3 [0x43] SEND_EVENT_UPDATE: Send pending tag to server (packet 0x005B)
 60: 0x01F5 [0x43] SEND_EVENT_UPDATE: Check pending flag (skip if not pending)
 61: 0x01F7 [0x03] Work_Zone[3] = ExtData[1]->WorkLocal[1]
 62: 0x01FC [0x48] [System] [11802*]:
    → "Area selection will now be made by [region/content]."
 63: 0x01FF [0x23] WAIT_FOR_DIALOG_INTERACTION
 64: 0x0200 [0x01] GOTO 0x0232
 65: 0x0203 [0x02] IF !(Work_Zone[0] == 2*) GOTO 0x0232
 66: 0x020B [0x03] ExtData[1]->WorkLocal[1] = 1*
 67: 0x0210 [0x40] SET_BIT_WORK_RANGE(start_bit=0*, end_bit=7*, target=Work_Zone[1], source=3*)
 68: 0x0219 [0x40] SET_BIT_WORK_RANGE(start_bit=16*, end_bit=31*, target=Work_Zone[1], source=ExtData[1]->WorkLocal[1])
 69: 0x0222 [0x43] SEND_EVENT_UPDATE: Send pending tag to server (packet 0x005B)
 70: 0x0224 [0x43] SEND_EVENT_UPDATE: Check pending flag (skip if not pending)
 71: 0x0226 [0x03] Work_Zone[3] = ExtData[1]->WorkLocal[1]
 72: 0x022B [0x48] [System] [11802*]:
    → "Area selection will now be made by [region/content]."
 73: 0x022E [0x23] WAIT_FOR_DIALOG_INTERACTION
 74: 0x022F [0x01] GOTO 0x0232

SUBROUTINE_0232:
 75: 0x0232 [0x1B] RETURN

SUBROUTINE_02F3:
 76: 0x02F3 [0x1A] CALL_SUBROUTINE(address=0x042C)
 77: 0x02F6 [0x06] ExtData[1]->WorkLocal[33] = 0
 78: 0x02F9 [0x48] [System] [11788*]:
    → "The meticulously illuminated text within explains that adventurers may travel to the location of any previous books visited after paying a sum of gil or the requisite amount of tabs."
 79: 0x02FC [0x23] WAIT_FOR_DIALOG_INTERACTION
 80: 0x02FD [0x02] IF !(ExtData[1]->WorkLocal[1] == 0*) GOTO 0x03C6
 81: 0x0305 [0x06] ExtData[1]->WorkLocal[39] = 0
 82: 0x0308 [0x06] ExtData[1]->WorkLocal[38] = 0

SUBROUTINE_030B:
 83: 0x030B [0x02] IF !(ExtData[1]->WorkLocal[39] == 0*) GOTO 0x03C3
 84: 0x0313 [0x1A] CALL_SUBROUTINE(address=0x0A74)
 85: 0x0316 [0x02] IF !(ExtData[1]->WorkLocal[37] == 4294967294*) GOTO 0x0328
 86: 0x031E [0x48] [System] [11789*]:
    → "No other survival guide locations have been recorded. Visiting another one would certainly alleviate this issue."
 87: 0x0321 [0x23] WAIT_FOR_DIALOG_INTERACTION
 88: 0x0322 [0x05] ExtData[1]->WorkLocal[11] = 1
 89: 0x0325 [0x01] GOTO 0x03C0
 90: 0x0328 [0x03] Work_Zone[3] = ExtData[1]->WorkLocal[33]
 91: 0x032D [0x24] CREATE_DIALOG(message_id=11804*, default_option=ExtData[1]->WorkLocal[38], option_flags=ExtData[1]->WorkLocal[37])
    → "Travel to which region? [On second thought, none./Select from amongst favorites./[San d'Oria/Movalpolos]./[Bastok/Tavnazian Arch]./[Windurst/Lumoria]./[Jeuno/Mamool Ja Savage]./[Tavnazia/Halvung]./[West. Aht Urhgan/Arrapago Is]./[Adoulin Isles/Ruins of Alzadaal]./[Ronfaure/Ronfaure Front]./[Zulkheim/Norvallen Front]./[Norvallen/Gustaberg Front]./[Gustaberg/Derfland Front]./[Derfland/Sarutabaruta Front]./[Sarutabaruta/Aragoneu Front]./[Kolshushu/Fauregandi Front]./[Aragoneu/Valdeaunia Front]./[Fauregandi/East. Ulbuka]./[Valdeaunia/Ra'Kaznar]./[Qufim/]./[Li'Telor/]./[Kuzotz/]./[Vollbow/]./[Elshimo Low/]./[Elshimo Up/]./[Tu'Lia/]./Previous page./Next page.]"
 92: 0x0334 [0x25] WAIT_DIALOG_SELECT()
 93: 0x0335 [0x02] IF !(Work_Zone[0] == 0*) GOTO 0x0343
 94: 0x033D [0x05] ExtData[1]->WorkLocal[39] = 1
 95: 0x0340 [0x01] GOTO 0x0343

SUBROUTINE_0343:
 96: 0x0343 [0x03] ExtData[1]->WorkLocal[38] = Work_Zone[0]
 97: 0x0348 [0x02] IF !(ExtData[1]->WorkLocal[38] == 1*) GOTO 0x0356
 98: 0x0350 [0x05] ExtData[1]->WorkLocal[39] = 1
 99: 0x0353 [0x01] GOTO 0x0388
100: 0x0356 [0x02] IF !(ExtData[1]->WorkLocal[38] == 26*) GOTO 0x036F
101: 0x035E [0x02] IF !(ExtData[1]->WorkLocal[33] <= 0*) GOTO 0x0369
102: 0x0366 [0x0C] ExtData[1]->WorkLocal[33]--
103: 0x0369 [0x05] ExtData[1]->WorkLocal[39] = 1
104: 0x036C [0x01] GOTO 0x0388
105: 0x036F [0x02] IF !(ExtData[1]->WorkLocal[38] == 27*) GOTO 0x0388
106: 0x0377 [0x02] IF !(ExtData[1]->WorkLocal[33] >= 1*) GOTO 0x0382
107: 0x037F [0x0B] ExtData[1]->WorkLocal[33]++
108: 0x0382 [0x05] ExtData[1]->WorkLocal[39] = 1
109: 0x0385 [0x01] GOTO 0x0388

SUBROUTINE_0388:
110: 0x0388 [0x02] IF !(ExtData[1]->WorkLocal[39] == 0*) GOTO 0x0393
111: 0x0390 [0x1A] CALL_SUBROUTINE(address=0x0B3C)
112: 0x0393 [0x02] IF !(ExtData[1]->WorkLocal[38] == 1*) GOTO 0x03A4
113: 0x039B [0x06] ExtData[1]->WorkLocal[39] = 0
114: 0x039E [0x1A] CALL_SUBROUTINE(address=0x04F1)
115: 0x03A1 [0x01] GOTO 0x03C0
116: 0x03A4 [0x02] IF !(ExtData[1]->WorkLocal[38] == 26*) GOTO 0x03B2
117: 0x03AC [0x06] ExtData[1]->WorkLocal[39] = 0
118: 0x03AF [0x01] GOTO 0x03C0
119: 0x03B2 [0x02] IF !(ExtData[1]->WorkLocal[38] == 27*) GOTO 0x03C0
120: 0x03BA [0x06] ExtData[1]->WorkLocal[39] = 0
121: 0x03BD [0x01] GOTO 0x03C0

SUBROUTINE_03C0:
122: 0x03C0 [0x01] GOTO 0x030B
123: 0x03C3 [0x01] GOTO 0x042B
124: 0x03C6 [0x02] IF !(ExtData[1]->WorkLocal[1] == 1*) GOTO 0x042B
125: 0x03CE [0x06] ExtData[1]->WorkLocal[43] = 0
126: 0x03D1 [0x06] ExtData[1]->WorkLocal[42] = 0

SUBROUTINE_03D4:
127: 0x03D4 [0x02] IF !(ExtData[1]->WorkLocal[43] == 0*) GOTO 0x0428
128: 0x03DC [0x1A] CALL_SUBROUTINE(address=0x0A09)
129: 0x03DF [0x02] IF !(ExtData[1]->WorkLocal[37] == 4294967294*) GOTO 0x03F1
130: 0x03E7 [0x48] [System] [11789*]:
    → "No other survival guide locations have been recorded. Visiting another one would certainly alleviate this issue."
131: 0x03EA [0x23] WAIT_FOR_DIALOG_INTERACTION
132: 0x03EB [0x05] ExtData[1]->WorkLocal[11] = 1
133: 0x03EE [0x01] GOTO 0x0425
134: 0x03F1 [0x24] CREATE_DIALOG(message_id=11803*, default_option=ExtData[1]->WorkLocal[42], option_flags=ExtData[1]->WorkLocal[41])
    → "[Nowhere for now./Select from amongst favorites./Original release areas./Rise of the Zilart areas./Chains of Promathia areas./Treasures of Aht Urhgan areas./Wings of the Goddess areas./././././././Seekers of Adoulin areas.]"
135: 0x03F8 [0x25] WAIT_DIALOG_SELECT()
136: 0x03F9 [0x02] IF !(Work_Zone[0] == 0*) GOTO 0x0407
137: 0x0401 [0x05] ExtData[1]->WorkLocal[43] = 1
138: 0x0404 [0x01] GOTO 0x0407

SUBROUTINE_0407:
139: 0x0407 [0x03] ExtData[1]->WorkLocal[42] = Work_Zone[0]
140: 0x040C [0x02] IF !(ExtData[1]->WorkLocal[42] == 0*) GOTO 0x0425
141: 0x0414 [0x02] IF !(ExtData[1]->WorkLocal[42] == 1*) GOTO 0x0422
142: 0x041C [0x1A] CALL_SUBROUTINE(address=0x04F1)
143: 0x041F [0x01] GOTO 0x0425
144: 0x0422 [0x1A] CALL_SUBROUTINE(address=0x0B3C)

SUBROUTINE_0425:
145: 0x0425 [0x01] GOTO 0x03D4
146: 0x0428 [0x01] GOTO 0x042B

SUBROUTINE_042B:
147: 0x042B [0x1B] RETURN

SUBROUTINE_042C:
148: 0x042C [0x40] SET_BIT_WORK_RANGE(start_bit=0*, end_bit=7*, target=Work_Zone[1], source=7*)
149: 0x0435 [0x40] SET_BIT_WORK_RANGE(start_bit=16*, end_bit=31*, target=Work_Zone[1], source=0*)
150: 0x043E [0x43] SEND_EVENT_UPDATE: Send pending tag to server (packet 0x005B)
151: 0x0440 [0x43] SEND_EVENT_UPDATE: Check pending flag (skip if not pending)
152: 0x0442 [0x1A] CALL_SUBROUTINE(address=0x0446)
153: 0x0445 [0x1B] RETURN

SUBROUTINE_0446:
154: 0x0446 [0x41] ExtData[1]->WorkLocal[49] = Work_Zone[2] (bits 0*-7*)
155: 0x044F [0x41] ExtData[1]->WorkLocal[50] = Work_Zone[2] (bits 8*-15*)
156: 0x0458 [0x41] ExtData[1]->WorkLocal[51] = Work_Zone[2] (bits 16*-23*)
157: 0x0461 [0x41] ExtData[1]->WorkLocal[52] = Work_Zone[2] (bits 24*-31*)
158: 0x046A [0x41] ExtData[1]->WorkLocal[53] = Work_Zone[3] (bits 0*-7*)
159: 0x0473 [0x41] ExtData[1]->WorkLocal[54] = Work_Zone[3] (bits 8*-15*)
160: 0x047C [0x41] ExtData[1]->WorkLocal[55] = Work_Zone[3] (bits 16*-23*)
161: 0x0485 [0x41] ExtData[1]->WorkLocal[56] = Work_Zone[3] (bits 24*-31*)
162: 0x048E [0x41] ExtData[1]->WorkLocal[57] = Work_Zone[4] (bits 0*-7*)
163: 0x0497 [0x06] ExtData[1]->WorkLocal[14] = 0

SUBROUTINE_049A:
164: 0x049A [0x02] IF !(ExtData[1]->WorkLocal[14] >= 9*) GOTO 0x04C5
165: 0x04A2 [0x9D] ExtData[1]->WorkLocal[15] = 0x121C[ExtData[1]->WorkLocal[14]] // Read WORD
166: 0x04AA [0x02] IF !(ExtData[1]->WorkLocal[15] <= 127*) GOTO 0x04BF
167: 0x04B2 [0x9D] 0x121C[ExtData[1]->WorkLocal[14] * 2] = 4294967295* // Write WORD
168: 0x04BA [0x03] ExtData[1]->WorkLocal[15] = 4294967295*
169: 0x04BF [0x0B] ExtData[1]->WorkLocal[14]++
170: 0x04C2 [0x01] GOTO 0x049A
171: 0x04C5 [0x1A] CALL_SUBROUTINE(address=0x04C9)
172: 0x04C8 [0x1B] RETURN

SUBROUTINE_04C9:
173: 0x04C9 [0x06] ExtData[1]->WorkLocal[14] = 0
174: 0x04CC [0x06] ExtData[1]->WorkLocal[58] = 0

SUBROUTINE_04CF:
175: 0x04CF [0x02] IF !(ExtData[1]->WorkLocal[14] >= 9*) GOTO 0x04F0
176: 0x04D7 [0x9D] ExtData[1]->WorkLocal[15] = 0x121C[ExtData[1]->WorkLocal[14]] // Read WORD
177: 0x04DF [0x02] IF !(ExtData[1]->WorkLocal[15] < 0*) GOTO 0x04EA
178: 0x04E7 [0x0B] ExtData[1]->WorkLocal[58]++
179: 0x04EA [0x0B] ExtData[1]->WorkLocal[14]++
180: 0x04ED [0x01] GOTO 0x04CF
181: 0x04F0 [0x1B] RETURN

SUBROUTINE_04F1:
182: 0x04F1 [0x06] ExtData[1]->WorkLocal[46] = 0
183: 0x04F4 [0x06] ExtData[1]->WorkLocal[47] = 0

SUBROUTINE_04F7:
184: 0x04F7 [0x02] IF !(ExtData[1]->WorkLocal[46] == 0*) GOTO 0x0785
185: 0x04FF [0x1A] CALL_SUBROUTINE(address=0x08B6)
186: 0x0502 [0xD4] MAP_QUERY_WINDOW: Test and open map window (flag=0x27, work=[0x2F80, 0x3000, 0x2500])
187: 0x050B [0x02] IF !(Work_Zone[0] == 0*) GOTO 0x0519
188: 0x0513 [0x05] ExtData[1]->WorkLocal[46] = 1
189: 0x0516 [0x01] GOTO 0x0519

SUBROUTINE_0519:
190: 0x0519 [0x03] ExtData[1]->WorkLocal[47] = Work_Zone[0]
191: 0x051E [0x02] IF !(ExtData[1]->WorkLocal[47] == 10*) GOTO 0x0534
192: 0x0526 [0x1A] CALL_SUBROUTINE(address=0x0786)
193: 0x0529 [0x03] ExtData[1]->WorkLocal[47] = 10*
194: 0x052E [0x05] ExtData[1]->WorkLocal[46] = 1
195: 0x0531 [0x01] GOTO 0x0534

SUBROUTINE_0534:
196: 0x0534 [0x02] IF !(ExtData[1]->WorkLocal[46] == 0*) GOTO 0x0777
197: 0x053C [0x03] ExtData[1]->WorkLocal[18] = ExtData[1]->WorkLocal[47]
198: 0x0541 [0x0C] ExtData[1]->WorkLocal[18]--
199: 0x0544 [0x9D] ExtData[1]->WorkLocal[59] = 0x121C[ExtData[1]->WorkLocal[18]] // Read WORD
200: 0x054C [0x02] IF !(ExtData[1]->WorkLocal[31] <= 0*) GOTO 0x060B
201: 0x0554 [0x06] ExtData[1]->WorkLocal[76] = 0
202: 0x0557 [0x03] ExtData[1]->WorkLocal[77] = 2*

SUBROUTINE_055C:
203: 0x055C [0x02] IF !(ExtData[1]->WorkLocal[76] == 0*) GOTO 0x0608
204: 0x0564 [0x9D] ExtData[1]->WorkLocal[16] = 0x12FC[ExtData[1]->WorkLocal[59]] // Read WORD
205: 0x056C [0x9D] ExtData[1]->WorkLocal[17] = 0x13CC[ExtData[1]->WorkLocal[59]] // Read WORD
206: 0x0574 [0x03] Work_Zone[3] = ExtData[1]->WorkLocal[16]
207: 0x0579 [0x06] ExtData[1]->WorkLocal[17] = 0
208: 0x057C [0x48] [System] [11792*]:
    → "All mog tablets have currently been found, so you may teleport to $8 at no charge."
209: 0x057F [0x23] WAIT_FOR_DIALOG_INTERACTION
210: 0x0580 [0x05] ExtData[1]->WorkLocal[76] = 1
211: 0x0583 [0x1A] CALL_SUBROUTINE(address=0x0885)
212: 0x0586 [0x02] IF !(ExtData[1]->WorkLocal[18] < 0*) GOTO 0x0596
213: 0x058E [0x03] Work_Zone_1700[25] = 1*
214: 0x0593 [0x01] GOTO 0x059B
215: 0x0596 [0x03] Work_Zone_1700[25] = 0*

SUBROUTINE_059B:
216: 0x059B [0x24] CREATE_DIALOG(message_id=11793*, default_option=ExtData[1]->WorkLocal[77], option_flags=0*)
    → "Travel to $8? [[Add to favorites/Delete from favorites]./Up and away!/I'm down and out.]"
217: 0x05A2 [0x25] WAIT_DIALOG_SELECT()
218: 0x05A3 [0x02] IF !(Work_Zone[0] == 0*) GOTO 0x05B4
219: 0x05AB [0x1A] CALL_SUBROUTINE(address=0x0786)
220: 0x05AE [0x06] ExtData[1]->WorkLocal[76] = 0
221: 0x05B1 [0x01] GOTO 0x0605
222: 0x05B4 [0x02] IF !(Work_Zone[0] == 1*) GOTO 0x05FA
223: 0x05BC [0x42] SET_CLI_EVENT_CANCEL_DATA()
224: 0x05BD [0x40] SET_BIT_WORK_RANGE(start_bit=0*, end_bit=7*, target=Work_Zone[1], source=1*)
225: 0x05C6 [0x40] SET_BIT_WORK_RANGE(start_bit=16*, end_bit=31*, target=Work_Zone[1], source=0*)
226: 0x05CF [0x43] SEND_EVENT_UPDATE: Send pending tag to server (packet 0x005B)
227: 0x05D1 [0x43] SEND_EVENT_UPDATE: Check pending flag (skip if not pending)
228: 0x05D3 [0x1A] CALL_SUBROUTINE(address=0x114E)
229: 0x05D6 [0x40] SET_BIT_WORK_RANGE(start_bit=0*, end_bit=7*, target=Work_Zone[1], source=1*)
230: 0x05DF [0x40] SET_BIT_WORK_RANGE(start_bit=16*, end_bit=31*, target=Work_Zone[1], source=ExtData[1]->WorkLocal[59])
231: 0x05E8 [0x05] ExtData[1]->WorkLocal[11] = 1
232: 0x05EB [0x05] ExtData[1]->WorkLocal[9] = 1
233: 0x05EE [0x05] ExtData[1]->WorkLocal[39] = 1
234: 0x05F1 [0x05] ExtData[1]->WorkLocal[43] = 1
235: 0x05F4 [0x05] ExtData[1]->WorkLocal[46] = 1
236: 0x05F7 [0x01] GOTO 0x0605
237: 0x05FA [0x02] IF !(Work_Zone[0] == 2*) GOTO 0x0605
238: 0x0602 [0x01] GOTO 0x0605

SUBROUTINE_0605:
239: 0x0605 [0x01] GOTO 0x055C
240: 0x0608 [0x01] GOTO 0x0774
241: 0x060B [0x06] ExtData[1]->WorkLocal[76] = 0
242: 0x060E [0x03] ExtData[1]->WorkLocal[77] = 3*

SUBROUTINE_0613:
243: 0x0613 [0x02] IF !(ExtData[1]->WorkLocal[76] == 0*) GOTO 0x0774
244: 0x061B [0x9D] ExtData[1]->WorkLocal[16] = 0x12FC[ExtData[1]->WorkLocal[59]] // Read WORD
245: 0x0623 [0x9D] ExtData[1]->WorkLocal[17] = 0x13CC[ExtData[1]->WorkLocal[59]] // Read WORD
246: 0x062B [0x03] Work_Zone[3] = ExtData[1]->WorkLocal[16]
247: 0x0630 [0x02] IF !(ExtData[1]->WorkLocal[35] <= 0*) GOTO 0x063D
248: 0x0638 [0x15] ExtData[1]->WorkLocal[17] /= 5*
249: 0x063D [0x03] Work_Zone[4] = ExtData[1]->WorkLocal[17]
250: 0x0642 [0x03] ExtData[1]->WorkLocal[23] = ExtData[1]->WorkLocal[17]
251: 0x0647 [0x15] ExtData[1]->WorkLocal[23] /= 20*
252: 0x064C [0x03] Work_Zone[5] = ExtData[1]->WorkLocal[23]
253: 0x0651 [0x03] Work_Zone[6] = ExtData[1]->WorkLocal[3]
254: 0x0656 [0x03] Work_Zone[7] = ExtData[1]->WorkLocal[34]
255: 0x065B [0x05] ExtData[1]->WorkLocal[76] = 1
256: 0x065E [0x1A] CALL_SUBROUTINE(address=0x0885)
257: 0x0661 [0x02] IF !(ExtData[1]->WorkLocal[18] < 0*) GOTO 0x0671
258: 0x0669 [0x03] Work_Zone_1700[25] = 1*
259: 0x066E [0x01] GOTO 0x0676
260: 0x0671 [0x03] Work_Zone_1700[25] = 0*

SUBROUTINE_0676:
261: 0x0676 [0x03] Work_Zone[2] = ExtData[1]->WorkLocal[3]
262: 0x067B [0x24] CREATE_DIALOG(message_id=11794*, default_option=ExtData[1]->WorkLocal[77], option_flags=0*)
    → "$2$3M$3 [E<Player>Z$P13.7ii$4$3M$3 [j/Travel to $8?/ [[Add to favorites/Delete from favorites]./Travel using $2 gil. ($4 gil)/Travel using $3 tab[/s]. ($5 total)/Not just yet.]"
263: 0x0682 [0x25] WAIT_DIALOG_SELECT()
264: 0x0683 [0x02] IF !(Work_Zone[0] == 0*) GOTO 0x068E
265: 0x068B [0x01] GOTO 0x068E

SUBROUTINE_068E:
266: 0x068E [0x03] ExtData[1]->WorkLocal[77] = Work_Zone[0]
267: 0x0693 [0x02] IF !(ExtData[1]->WorkLocal[77] == 0*) GOTO 0x06A4
268: 0x069B [0x1A] CALL_SUBROUTINE(address=0x0786)
269: 0x069E [0x06] ExtData[1]->WorkLocal[76] = 0
270: 0x06A1 [0x01] GOTO 0x0771
271: 0x06A4 [0x02] IF !(ExtData[1]->WorkLocal[77] == 1*) GOTO 0x0705
272: 0x06AC [0x02] IF !(ExtData[1]->WorkLocal[3] >= ExtData[1]->WorkLocal[17]) GOTO 0x06BE
273: 0x06B4 [0x48] [System] [6585*]:
    → "You do not have enough gil."
274: 0x06B7 [0x23] WAIT_FOR_DIALOG_INTERACTION
275: 0x06B8 [0x06] ExtData[1]->WorkLocal[76] = 0
276: 0x06BB [0x01] GOTO 0x0702
277: 0x06BE [0x42] SET_CLI_EVENT_CANCEL_DATA()
278: 0x06BF [0x40] SET_BIT_WORK_RANGE(start_bit=0*, end_bit=7*, target=Work_Zone[1], source=1*)
279: 0x06C8 [0x40] SET_BIT_WORK_RANGE(start_bit=16*, end_bit=31*, target=Work_Zone[1], source=0*)
280: 0x06D1 [0x43] SEND_EVENT_UPDATE: Send pending tag to server (packet 0x005B)
281: 0x06D3 [0x43] SEND_EVENT_UPDATE: Check pending flag (skip if not pending)
282: 0x06D5 [0x1A] CALL_SUBROUTINE(address=0x114E)
283: 0x06D8 [0x40] SET_BIT_WORK_RANGE(start_bit=0*, end_bit=7*, target=Work_Zone[1], source=1*)
284: 0x06E1 [0x40] SET_BIT_WORK_RANGE(start_bit=8*, end_bit=8*, target=Work_Zone[1], source=0*)
285: 0x06EA [0x40] SET_BIT_WORK_RANGE(start_bit=16*, end_bit=31*, target=Work_Zone[1], source=ExtData[1]->WorkLocal[59])
286: 0x06F3 [0x05] ExtData[1]->WorkLocal[11] = 1
287: 0x06F6 [0x05] ExtData[1]->WorkLocal[9] = 1
288: 0x06F9 [0x05] ExtData[1]->WorkLocal[39] = 1
289: 0x06FC [0x05] ExtData[1]->WorkLocal[43] = 1
290: 0x06FF [0x05] ExtData[1]->WorkLocal[46] = 1

SUBROUTINE_0702:
291: 0x0702 [0x01] GOTO 0x0771
292: 0x0705 [0x02] IF !(ExtData[1]->WorkLocal[77] == 2*) GOTO 0x0766
293: 0x070D [0x02] IF !(ExtData[1]->WorkLocal[34] >= ExtData[1]->WorkLocal[23]) GOTO 0x071F
294: 0x0715 [0x48] [System] [11795*]:
    → "You do not have enough tabs."
295: 0x0718 [0x23] WAIT_FOR_DIALOG_INTERACTION
296: 0x0719 [0x06] ExtData[1]->WorkLocal[76] = 0
297: 0x071C [0x01] GOTO 0x0763
298: 0x071F [0x42] SET_CLI_EVENT_CANCEL_DATA()
299: 0x0720 [0x40] SET_BIT_WORK_RANGE(start_bit=0*, end_bit=7*, target=Work_Zone[1], source=1*)
300: 0x0729 [0x40] SET_BIT_WORK_RANGE(start_bit=16*, end_bit=31*, target=Work_Zone[1], source=0*)
301: 0x0732 [0x43] SEND_EVENT_UPDATE: Send pending tag to server (packet 0x005B)
302: 0x0734 [0x43] SEND_EVENT_UPDATE: Check pending flag (skip if not pending)
303: 0x0736 [0x1A] CALL_SUBROUTINE(address=0x114E)
304: 0x0739 [0x40] SET_BIT_WORK_RANGE(start_bit=0*, end_bit=7*, target=Work_Zone[1], source=1*)
305: 0x0742 [0x40] SET_BIT_WORK_RANGE(start_bit=8*, end_bit=8*, target=Work_Zone[1], source=1*)
306: 0x074B [0x40] SET_BIT_WORK_RANGE(start_bit=16*, end_bit=31*, target=Work_Zone[1], source=ExtData[1]->WorkLocal[59])
307: 0x0754 [0x05] ExtData[1]->WorkLocal[11] = 1
308: 0x0757 [0x05] ExtData[1]->WorkLocal[9] = 1
309: 0x075A [0x05] ExtData[1]->WorkLocal[39] = 1
310: 0x075D [0x05] ExtData[1]->WorkLocal[43] = 1
311: 0x0760 [0x05] ExtData[1]->WorkLocal[46] = 1

SUBROUTINE_0763:
312: 0x0763 [0x01] GOTO 0x0771
313: 0x0766 [0x02] IF !(ExtData[1]->WorkLocal[77] == 3*) GOTO 0x0771
314: 0x076E [0x01] GOTO 0x0771

SUBROUTINE_0771:
315: 0x0771 [0x01] GOTO 0x0613

SUBROUTINE_0774:
316: 0x0774 [0x01] GOTO 0x0782
317: 0x0777 [0x02] IF !(ExtData[1]->WorkLocal[47] == 0*) GOTO 0x0782
318: 0x077F [0x06] ExtData[1]->WorkLocal[46] = 0

SUBROUTINE_0782:
319: 0x0782 [0x01] GOTO 0x04F7
320: 0x0785 [0x1B] RETURN

SUBROUTINE_0786:
321: 0x0786 [0x02] IF !(Work_Zone_1700[25] <= 0*) GOTO 0x07C6
322: 0x078E [0x40] SET_BIT_WORK_RANGE(start_bit=0*, end_bit=7*, target=Work_Zone[1], source=5*)
323: 0x0797 [0x40] SET_BIT_WORK_RANGE(start_bit=16*, end_bit=31*, target=Work_Zone[1], source=ExtData[1]->WorkLocal[59])
324: 0x07A0 [0x43] SEND_EVENT_UPDATE: Send pending tag to server (packet 0x005B)
325: 0x07A2 [0x43] SEND_EVENT_UPDATE: Check pending flag (skip if not pending)
326: 0x07A4 [0x1A] CALL_SUBROUTINE(address=0x0446)
327: 0x07A7 [0x9D] Work_Zone[3] = 0x12FC[ExtData[1]->WorkLocal[59]] // Read WORD
328: 0x07AF [0x9D] Work_Zone[4] = 0x163C[ExtData[1]->WorkLocal[59]] // Read WORD
329: 0x07B7 [0x03] Work_Zone_1700[25] = 1*
330: 0x07BC [0x48] [System] [11806*]:
    → "$8 has been [added to your list of favorites/removed from your list of favorites]."
331: 0x07BF [0x23] WAIT_FOR_DIALOG_INTERACTION
332: 0x07C0 [0x06] ExtData[1]->WorkLocal[47] = 0
333: 0x07C3 [0x01] GOTO 0x0884
334: 0x07C6 [0x1A] CALL_SUBROUTINE(address=0x04C9)
335: 0x07C9 [0x02] IF !(ExtData[1]->WorkLocal[58] >= 9*) GOTO 0x0809
336: 0x07D1 [0x40] SET_BIT_WORK_RANGE(start_bit=0*, end_bit=7*, target=Work_Zone[1], source=4*)
337: 0x07DA [0x40] SET_BIT_WORK_RANGE(start_bit=16*, end_bit=31*, target=Work_Zone[1], source=ExtData[1]->WorkLocal[59])
338: 0x07E3 [0x43] SEND_EVENT_UPDATE: Send pending tag to server (packet 0x005B)
339: 0x07E5 [0x43] SEND_EVENT_UPDATE: Check pending flag (skip if not pending)
340: 0x07E7 [0x1A] CALL_SUBROUTINE(address=0x0446)
341: 0x07EA [0x9D] Work_Zone[3] = 0x12FC[ExtData[1]->WorkLocal[59]] // Read WORD
342: 0x07F2 [0x9D] Work_Zone[4] = 0x163C[ExtData[1]->WorkLocal[59]] // Read WORD
343: 0x07FA [0x03] Work_Zone_1700[25] = 0*
344: 0x07FF [0x48] [System] [11806*]:
    → "$8 has been [added to your list of favorites/removed from your list of favorites]."
345: 0x0802 [0x23] WAIT_FOR_DIALOG_INTERACTION
346: 0x0803 [0x05] ExtData[1]->WorkLocal[47] = 1
347: 0x0806 [0x01] GOTO 0x0884
348: 0x0809 [0x03] ExtData[1]->WorkLocal[71] = ExtData[1]->WorkLocal[59]
349: 0x080E [0x48] [System] [11807*]:
    → "Your list of favorites is full. You must remove an existing entry to add new ones."
350: 0x0811 [0x23] WAIT_FOR_DIALOG_INTERACTION
351: 0x0812 [0x1A] CALL_SUBROUTINE(address=0x0965)
352: 0x0815 [0xD4] MAP_QUERY_WINDOW: Test and open map window (flag=0x31, work=[0x80, 0x3080, 0x2500])
353: 0x081E [0x02] IF !(Work_Zone[0] == 0*) GOTO 0x0829
354: 0x0826 [0x01] GOTO 0x0829

SUBROUTINE_0829:
355: 0x0829 [0x03] ExtData[1]->WorkLocal[18] = Work_Zone[0]
356: 0x082E [0x02] IF !(ExtData[1]->WorkLocal[18] <= 0*) GOTO 0x087F
357: 0x0836 [0x03] ExtData[1]->WorkLocal[59] = ExtData[1]->WorkLocal[71]
358: 0x083B [0x0C] ExtData[1]->WorkLocal[18]--
359: 0x083E [0x40] SET_BIT_WORK_RANGE(start_bit=0*, end_bit=7*, target=Work_Zone[1], source=6*)
360: 0x0847 [0x40] SET_BIT_WORK_RANGE(start_bit=16*, end_bit=23*, target=Work_Zone[1], source=ExtData[1]->WorkLocal[71])
361: 0x0850 [0x40] SET_BIT_WORK_RANGE(start_bit=24*, end_bit=31*, target=Work_Zone[1], source=ExtData[1]->WorkLocal[18])
362: 0x0859 [0x43] SEND_EVENT_UPDATE: Send pending tag to server (packet 0x005B)
363: 0x085B [0x43] SEND_EVENT_UPDATE: Check pending flag (skip if not pending)
364: 0x085D [0x1A] CALL_SUBROUTINE(address=0x0446)
365: 0x0860 [0x9D] Work_Zone[3] = 0x12FC[ExtData[1]->WorkLocal[71]] // Read WORD
366: 0x0868 [0x9D] Work_Zone[4] = 0x163C[ExtData[1]->WorkLocal[71]] // Read WORD
367: 0x0870 [0x03] Work_Zone_1700[25] = 0*
368: 0x0875 [0x48] [System] [11806*]:
    → "$8 has been [added to your list of favorites/removed from your list of favorites]."
369: 0x0878 [0x23] WAIT_FOR_DIALOG_INTERACTION
370: 0x0879 [0x05] ExtData[1]->WorkLocal[47] = 1
371: 0x087C [0x01] GOTO 0x0884
372: 0x087F [0x03] ExtData[1]->WorkLocal[59] = ExtData[1]->WorkLocal[71]

SUBROUTINE_0884:
373: 0x0884 [0x1B] RETURN

SUBROUTINE_0885:
374: 0x0885 [0x06] ExtData[1]->WorkLocal[14] = 0
375: 0x0888 [0x03] ExtData[1]->WorkLocal[18] = 4294967295*

SUBROUTINE_088D:
376: 0x088D [0x02] IF !(ExtData[1]->WorkLocal[14] >= 9*) GOTO 0x08B5
377: 0x0895 [0x9D] ExtData[1]->WorkLocal[15] = 0x121C[ExtData[1]->WorkLocal[14]] // Read WORD
378: 0x089D [0x02] IF !(ExtData[1]->WorkLocal[15] == ExtData[1]->WorkLocal[59]) GOTO 0x08AF
379: 0x08A5 [0x03] ExtData[1]->WorkLocal[18] = ExtData[1]->WorkLocal[14]
380: 0x08AA [0x03] ExtData[1]->WorkLocal[14] = 9*
381: 0x08AF [0x0B] ExtData[1]->WorkLocal[14]++
382: 0x08B2 [0x01] GOTO 0x088D
383: 0x08B5 [0x1B] RETURN

SUBROUTINE_08B6:
384: 0x08B6 [0x1A] CALL_SUBROUTINE(address=0x117D)
385: 0x08B9 [0x06] ExtData[1]->WorkLocal[14] = 0
386: 0x08BC [0x06] ExtData[1]->WorkLocal[48] = 0
387: 0x08BF [0x03] ExtData[1]->WorkLocal[48] = 4294967295*

SUBROUTINE_08C4:
388: 0x08C4 [0x02] IF !(ExtData[1]->WorkLocal[14] >= 9*) GOTO 0x093B
389: 0x08CC [0x9D] ExtData[1]->WorkLocal[18] = 0x121C[ExtData[1]->WorkLocal[14]] // Read WORD
390: 0x08D4 [0x02] IF !(ExtData[1]->WorkLocal[18] == ExtData[1]->WorkLocal[4]) GOTO 0x0935
391: 0x08DC [0x02] IF !(ExtData[1]->WorkLocal[18] < 0*) GOTO 0x0932
392: 0x08E4 [0x3D] CLEAR_BIT_FLAG_CONDITIONAL(target_work_offset=ExtData[1]->WorkLocal[48], bit_index_work_offset=ExtData[1]->WorkLocal[14], condition_work_offset=1*)
393: 0x08EB [0x9D] ExtData[1]->WorkLocal[60] = 0x163C[ExtData[1]->WorkLocal[18]] // Read WORD
394: 0x08F3 [0x07] ExtData[1]->WorkLocal[60] += 128*
395: 0x08F8 [0x03] ExtData[1]->WorkLocal[15] = ExtData[1]->WorkLocal[14]
396: 0x08FD [0x0B] ExtData[1]->WorkLocal[15]++
397: 0x0900 [0xD4] MAP_QUERY_WINDOW: Prepare buffer and copy to TalkpQW object (buffer=[0F 00 0C 80 3C 00 9D 00...])
398: 0x0920 [0x03] ExtData[1]->WorkLocal[15] = ExtData[1]->WorkLocal[14]
399: 0x0925 [0x07] ExtData[1]->WorkLocal[15] += 16*
400: 0x092A [0x9D] 0x124C[ExtData[1]->WorkLocal[15] * 2] = ExtData[1]->WorkLocal[60] // Write WORD
401: 0x0932 [0x01] GOTO 0x0935

SUBROUTINE_0935:
402: 0x0935 [0x0B] ExtData[1]->WorkLocal[14]++
403: 0x0938 [0x01] GOTO 0x08C4
404: 0x093B [0x10] ExtData[1]->WorkLocal[48] <<= 1*
405: 0x0940 [0x3D] CLEAR_BIT_FLAG_CONDITIONAL(target_work_offset=ExtData[1]->WorkLocal[48], bit_index_work_offset=10*, condition_work_offset=1*)
406: 0x0947 [0x03] ExtData[1]->WorkLocal[59] = ExtData[1]->WorkLocal[4]
407: 0x094C [0x1A] CALL_SUBROUTINE(address=0x0885)
408: 0x094F [0x02] IF !(ExtData[1]->WorkLocal[18] < 0*) GOTO 0x095F
409: 0x0957 [0x03] Work_Zone_1700[25] = 1*
410: 0x095C [0x01] GOTO 0x0964
411: 0x095F [0x03] Work_Zone_1700[25] = 0*

SUBROUTINE_0964:
412: 0x0964 [0x1B] RETURN

SUBROUTINE_0965:
413: 0x0965 [0x1A] CALL_SUBROUTINE(address=0x117D)
414: 0x0968 [0x06] ExtData[1]->WorkLocal[14] = 0
415: 0x096B [0x06] ExtData[1]->WorkLocal[48] = 0
416: 0x096E [0x03] ExtData[1]->WorkLocal[48] = 4294967295*

SUBROUTINE_0973:
417: 0x0973 [0x02] IF !(ExtData[1]->WorkLocal[14] >= 9*) GOTO 0x09DF
418: 0x097B [0x9D] ExtData[1]->WorkLocal[18] = 0x121C[ExtData[1]->WorkLocal[14]] // Read WORD
419: 0x0983 [0x02] IF !(ExtData[1]->WorkLocal[18] < 0*) GOTO 0x09D9
420: 0x098B [0x3D] CLEAR_BIT_FLAG_CONDITIONAL(target_work_offset=ExtData[1]->WorkLocal[48], bit_index_work_offset=ExtData[1]->WorkLocal[14], condition_work_offset=1*)
421: 0x0992 [0x9D] ExtData[1]->WorkLocal[60] = 0x163C[ExtData[1]->WorkLocal[18]] // Read WORD
422: 0x099A [0x07] ExtData[1]->WorkLocal[60] += 128*
423: 0x099F [0x03] ExtData[1]->WorkLocal[15] = ExtData[1]->WorkLocal[14]
424: 0x09A4 [0x0B] ExtData[1]->WorkLocal[15]++
425: 0x09A7 [0xD4] MAP_QUERY_WINDOW: Prepare buffer and copy to TalkpQW object (buffer=[0F 00 0C 80 3C 00 9D 00...])
426: 0x09C7 [0x03] ExtData[1]->WorkLocal[15] = ExtData[1]->WorkLocal[14]
427: 0x09CC [0x07] ExtData[1]->WorkLocal[15] += 16*
428: 0x09D1 [0x9D] 0x124C[ExtData[1]->WorkLocal[15] * 2] = ExtData[1]->WorkLocal[60] // Write WORD
429: 0x09D9 [0x0B] ExtData[1]->WorkLocal[14]++
430: 0x09DC [0x01] GOTO 0x0973
431: 0x09DF [0x10] ExtData[1]->WorkLocal[48] <<= 1*
432: 0x09E4 [0x3D] CLEAR_BIT_FLAG_CONDITIONAL(target_work_offset=ExtData[1]->WorkLocal[48], bit_index_work_offset=10*, condition_work_offset=1*)
433: 0x09EB [0x03] ExtData[1]->WorkLocal[59] = ExtData[1]->WorkLocal[4]
434: 0x09F0 [0x1A] CALL_SUBROUTINE(address=0x0885)
435: 0x09F3 [0x02] IF !(ExtData[1]->WorkLocal[18] < 0*) GOTO 0x0A03
436: 0x09FB [0x03] Work_Zone_1700[25] = 1*
437: 0x0A00 [0x01] GOTO 0x0A08
438: 0x0A03 [0x03] Work_Zone_1700[25] = 0*

SUBROUTINE_0A08:
439: 0x0A08 [0x1B] RETURN

SUBROUTINE_0A09:
440: 0x0A09 [0x1A] CALL_SUBROUTINE(address=0x117D)
441: 0x0A0C [0x06] ExtData[1]->WorkLocal[14] = 0
442: 0x0A0F [0x06] ExtData[1]->WorkLocal[41] = 0
443: 0x0A12 [0x03] ExtData[1]->WorkLocal[41] = 4294967295*

SUBROUTINE_0A17:
444: 0x0A17 [0x02] IF !(ExtData[1]->WorkLocal[14] >= 98*) GOTO 0x0A6E
445: 0x0A1F [0x02] IF !(ExtData[1]->WorkLocal[14] == ExtData[1]->WorkLocal[4]) GOTO 0x0A68
446: 0x0A27 [0x03] ExtData[1]->WorkLocal[36] = ExtData[1]->WorkLocal[14]
447: 0x0A2C [0x15] ExtData[1]->WorkLocal[36] /= 32*
448: 0x0A31 [0x03] ExtData[1]->WorkLocal[61] = ExtData[1]->WorkLocal[14]
449: 0x0A36 [0x3F] ExtData[1]->WorkLocal[61] = ExtData[1]->WorkLocal[61] % 32*
450: 0x0A3D [0x06] ExtData[1]->WorkLocal[15] = 0
451: 0x0A40 [0x9D] ExtData[1]->WorkLocal[15] = 0x123C[ExtData[1]->WorkLocal[36]] // Read WORD
452: 0x0A48 [0x3E] IF !(ExtData[1]->WorkLocal[15] bit ExtData[1]->WorkLocal[61]) GOTO 0x0A65
453: 0x0A4F [0x9D] ExtData[1]->WorkLocal[21] = 0x149C[ExtData[1]->WorkLocal[14]] // Read WORD
454: 0x0A57 [0x3E] IF !(ExtData[1]->WorkLocal[29] bit ExtData[1]->WorkLocal[21]) GOTO 0x0A65
455: 0x0A5E [0x3D] CLEAR_BIT_FLAG_CONDITIONAL(target_work_offset=ExtData[1]->WorkLocal[41], bit_index_work_offset=ExtData[1]->WorkLocal[21], condition_work_offset=1*)
456: 0x0A65 [0x01] GOTO 0x0A68

SUBROUTINE_0A68:
457: 0x0A68 [0x0B] ExtData[1]->WorkLocal[14]++
458: 0x0A6B [0x01] GOTO 0x0A17
459: 0x0A6E [0x10] ExtData[1]->WorkLocal[41] <<= 2*
460: 0x0A73 [0x1B] RETURN

SUBROUTINE_0A74:
461: 0x0A74 [0x1A] CALL_SUBROUTINE(address=0x117D)
462: 0x0A77 [0x06] ExtData[1]->WorkLocal[14] = 0
463: 0x0A7A [0x06] ExtData[1]->WorkLocal[37] = 0
464: 0x0A7D [0x06] ExtData[1]->WorkLocal[73] = 0
465: 0x0A80 [0x06] ExtData[1]->WorkLocal[74] = 0
466: 0x0A83 [0x03] ExtData[1]->WorkLocal[73] = 4294967295*
467: 0x0A88 [0x03] ExtData[1]->WorkLocal[74] = 4294967295*

SUBROUTINE_0A8D:
468: 0x0A8D [0x02] IF !(ExtData[1]->WorkLocal[14] >= 98*) GOTO 0x0B03
469: 0x0A95 [0x02] IF !(ExtData[1]->WorkLocal[14] == ExtData[1]->WorkLocal[4]) GOTO 0x0AFD
470: 0x0A9D [0x03] ExtData[1]->WorkLocal[36] = ExtData[1]->WorkLocal[14]
471: 0x0AA2 [0x15] ExtData[1]->WorkLocal[36] /= 32*
472: 0x0AA7 [0x03] ExtData[1]->WorkLocal[61] = ExtData[1]->WorkLocal[14]
473: 0x0AAC [0x3F] ExtData[1]->WorkLocal[61] = ExtData[1]->WorkLocal[61] % 32*
474: 0x0AB3 [0x06] ExtData[1]->WorkLocal[15] = 0
475: 0x0AB6 [0x9D] ExtData[1]->WorkLocal[15] = 0x123C[ExtData[1]->WorkLocal[36]] // Read WORD
476: 0x0ABE [0x3E] IF !(ExtData[1]->WorkLocal[15] bit ExtData[1]->WorkLocal[61]) GOTO 0x0AFA
477: 0x0AC5 [0x9D] ExtData[1]->WorkLocal[21] = 0x149C[ExtData[1]->WorkLocal[14]] // Read WORD
478: 0x0ACD [0x3E] IF !(ExtData[1]->WorkLocal[29] bit ExtData[1]->WorkLocal[21]) GOTO 0x0AFA
479: 0x0AD4 [0x9D] ExtData[1]->WorkLocal[40] = 0x156C[ExtData[1]->WorkLocal[14]] // Read WORD
480: 0x0ADC [0x02] IF !(ExtData[1]->WorkLocal[40] >= 24*) GOTO 0x0AEE
481: 0x0AE4 [0x3D] CLEAR_BIT_FLAG_CONDITIONAL(target_work_offset=ExtData[1]->WorkLocal[73], bit_index_work_offset=ExtData[1]->WorkLocal[40], condition_work_offset=1*)
482: 0x0AEB [0x01] GOTO 0x0AFA
483: 0x0AEE [0x08] ExtData[1]->WorkLocal[40] -= 24*
484: 0x0AF3 [0x3D] CLEAR_BIT_FLAG_CONDITIONAL(target_work_offset=ExtData[1]->WorkLocal[74], bit_index_work_offset=ExtData[1]->WorkLocal[40], condition_work_offset=1*)

SUBROUTINE_0AFA:
485: 0x0AFA [0x01] GOTO 0x0AFD

SUBROUTINE_0AFD:
486: 0x0AFD [0x0B] ExtData[1]->WorkLocal[14]++
487: 0x0B00 [0x01] GOTO 0x0A8D
488: 0x0B03 [0x02] IF !(ExtData[1]->WorkLocal[33] == 0*) GOTO 0x0B1F
489: 0x0B0B [0x03] ExtData[1]->WorkLocal[37] = ExtData[1]->WorkLocal[73]
490: 0x0B10 [0x10] ExtData[1]->WorkLocal[37] <<= 2*
491: 0x0B15 [0x3D] CLEAR_BIT_FLAG_CONDITIONAL(target_work_offset=ExtData[1]->WorkLocal[37], bit_index_work_offset=27*, condition_work_offset=1*)
492: 0x0B1C [0x01] GOTO 0x0B3B
493: 0x0B1F [0x02] IF !(ExtData[1]->WorkLocal[33] == 1*) GOTO 0x0B3B
494: 0x0B27 [0x03] ExtData[1]->WorkLocal[37] = ExtData[1]->WorkLocal[74]
495: 0x0B2C [0x10] ExtData[1]->WorkLocal[37] <<= 2*
496: 0x0B31 [0x3D] CLEAR_BIT_FLAG_CONDITIONAL(target_work_offset=ExtData[1]->WorkLocal[37], bit_index_work_offset=26*, condition_work_offset=1*)
497: 0x0B38 [0x01] GOTO 0x0B3B

SUBROUTINE_0B3B:
498: 0x0B3B [0x1B] RETURN

SUBROUTINE_0B3C:
499: 0x0B3C [0x06] ExtData[1]->WorkLocal[11] = 0
500: 0x0B3F [0x06] ExtData[1]->WorkLocal[12] = 0
501: 0x0B42 [0x06] ExtData[1]->WorkLocal[32] = 0

SUBROUTINE_0B45:
502: 0x0B45 [0x02] IF !(ExtData[1]->WorkLocal[11] == 0*) GOTO 0x0DE1
503: 0x0B4D [0x1A] CALL_SUBROUTINE(address=0x0DE2)
504: 0x0B50 [0xD4] MAP_QUERY_WINDOW: Test and open map window (flag=0x36, work=[0x0C80, 0x0D00, 0x2500])
505: 0x0B59 [0x02] IF !(Work_Zone[0] == 0*) GOTO 0x0B68
506: 0x0B61 [0x05] ExtData[1]->WorkLocal[11] = 1
507: 0x0B64 [0x1B] RETURN

SUBROUTINE_0B68:
508: 0x0B68 [0x03] ExtData[1]->WorkLocal[12] = Work_Zone[0]
509: 0x0B6D [0x02] IF !(ExtData[1]->WorkLocal[12] == 21*) GOTO 0x0B86
510: 0x0B75 [0x02] IF !(ExtData[1]->WorkLocal[32] <= 0*) GOTO 0x0B80
511: 0x0B7D [0x0C] ExtData[1]->WorkLocal[32]--
512: 0x0B80 [0x06] ExtData[1]->WorkLocal[12] = 0
513: 0x0B83 [0x01] GOTO 0x0B9F
514: 0x0B86 [0x02] IF !(ExtData[1]->WorkLocal[12] == 22*) GOTO 0x0B9F
515: 0x0B8E [0x02] IF !(ExtData[1]->WorkLocal[32] >= 4*) GOTO 0x0B99
516: 0x0B96 [0x0B] ExtData[1]->WorkLocal[32]++
517: 0x0B99 [0x06] ExtData[1]->WorkLocal[12] = 0
518: 0x0B9C [0x01] GOTO 0x0B9F

SUBROUTINE_0B9F:
519: 0x0B9F [0x02] IF !(ExtData[1]->WorkLocal[12] <= 0*) GOTO 0x0DDE
520: 0x0BA7 [0x03] ExtData[1]->WorkLocal[72] = ExtData[1]->WorkLocal[12]
521: 0x0BAC [0x0C] ExtData[1]->WorkLocal[72]--
522: 0x0BAF [0x9D] ExtData[1]->WorkLocal[71] = 0x124C[ExtData[1]->WorkLocal[72]] // Read WORD
523: 0x0BB7 [0x1A] CALL_SUBROUTINE(address=0x1082)
524: 0x0BBA [0x03] ExtData[1]->WorkLocal[59] = ExtData[1]->WorkLocal[67]
525: 0x0BBF [0x02] IF !(ExtData[1]->WorkLocal[31] <= 0*) GOTO 0x0C7B
526: 0x0BC7 [0x06] ExtData[1]->WorkLocal[76] = 0
527: 0x0BCA [0x03] ExtData[1]->WorkLocal[77] = 2*

SUBROUTINE_0BCF:
528: 0x0BCF [0x02] IF !(ExtData[1]->WorkLocal[76] == 0*) GOTO 0x0C78
529: 0x0BD7 [0x9D] ExtData[1]->WorkLocal[16] = 0x12FC[ExtData[1]->WorkLocal[59]] // Read WORD
530: 0x0BDF [0x9D] ExtData[1]->WorkLocal[17] = 0x13CC[ExtData[1]->WorkLocal[59]] // Read WORD
531: 0x0BE7 [0x03] Work_Zone[3] = ExtData[1]->WorkLocal[16]
532: 0x0BEC [0x06] ExtData[1]->WorkLocal[17] = 0
533: 0x0BEF [0x48] [System] [11792*]:
    → "All mog tablets have currently been found, so you may teleport to $8 at no charge."
534: 0x0BF2 [0x23] WAIT_FOR_DIALOG_INTERACTION
535: 0x0BF3 [0x05] ExtData[1]->WorkLocal[76] = 1
536: 0x0BF6 [0x1A] CALL_SUBROUTINE(address=0x0885)
537: 0x0BF9 [0x02] IF !(ExtData[1]->WorkLocal[18] < 0*) GOTO 0x0C09
538: 0x0C01 [0x03] Work_Zone_1700[25] = 1*
539: 0x0C06 [0x01] GOTO 0x0C0E
540: 0x0C09 [0x03] Work_Zone_1700[25] = 0*

SUBROUTINE_0C0E:
541: 0x0C0E [0x24] CREATE_DIALOG(message_id=11793*, default_option=ExtData[1]->WorkLocal[77], option_flags=0*)
    → "Travel to $8? [[Add to favorites/Delete from favorites]./Up and away!/I'm down and out.]"
542: 0x0C15 [0x25] WAIT_DIALOG_SELECT()
543: 0x0C16 [0x02] IF !(Work_Zone[0] == 0*) GOTO 0x0C27
544: 0x0C1E [0x1A] CALL_SUBROUTINE(address=0x0786)
545: 0x0C21 [0x06] ExtData[1]->WorkLocal[76] = 0
546: 0x0C24 [0x01] GOTO 0x0C75
547: 0x0C27 [0x02] IF !(Work_Zone[0] == 1*) GOTO 0x0C6A
548: 0x0C2F [0x42] SET_CLI_EVENT_CANCEL_DATA()
549: 0x0C30 [0x40] SET_BIT_WORK_RANGE(start_bit=0*, end_bit=7*, target=Work_Zone[1], source=1*)
550: 0x0C39 [0x40] SET_BIT_WORK_RANGE(start_bit=16*, end_bit=31*, target=Work_Zone[1], source=0*)
551: 0x0C42 [0x43] SEND_EVENT_UPDATE: Send pending tag to server (packet 0x005B)
552: 0x0C44 [0x43] SEND_EVENT_UPDATE: Check pending flag (skip if not pending)
553: 0x0C46 [0x1A] CALL_SUBROUTINE(address=0x114E)
554: 0x0C49 [0x40] SET_BIT_WORK_RANGE(start_bit=0*, end_bit=7*, target=Work_Zone[1], source=1*)
555: 0x0C52 [0x40] SET_BIT_WORK_RANGE(start_bit=16*, end_bit=31*, target=Work_Zone[1], source=ExtData[1]->WorkLocal[59])
556: 0x0C5B [0x05] ExtData[1]->WorkLocal[11] = 1
557: 0x0C5E [0x05] ExtData[1]->WorkLocal[9] = 1
558: 0x0C61 [0x05] ExtData[1]->WorkLocal[39] = 1
559: 0x0C64 [0x05] ExtData[1]->WorkLocal[43] = 1
560: 0x0C67 [0x01] GOTO 0x0C75
561: 0x0C6A [0x02] IF !(Work_Zone[0] == 2*) GOTO 0x0C75
562: 0x0C72 [0x01] GOTO 0x0C75

SUBROUTINE_0C75:
563: 0x0C75 [0x01] GOTO 0x0BCF
564: 0x0C78 [0x01] GOTO 0x0DDE
565: 0x0C7B [0x06] ExtData[1]->WorkLocal[76] = 0
566: 0x0C7E [0x03] ExtData[1]->WorkLocal[77] = 3*

SUBROUTINE_0C83:
567: 0x0C83 [0x02] IF !(ExtData[1]->WorkLocal[76] == 0*) GOTO 0x0DDE
568: 0x0C8B [0x9D] ExtData[1]->WorkLocal[16] = 0x12FC[ExtData[1]->WorkLocal[59]] // Read WORD
569: 0x0C93 [0x9D] ExtData[1]->WorkLocal[17] = 0x13CC[ExtData[1]->WorkLocal[59]] // Read WORD
570: 0x0C9B [0x03] Work_Zone[3] = ExtData[1]->WorkLocal[16]
571: 0x0CA0 [0x02] IF !(ExtData[1]->WorkLocal[35] <= 0*) GOTO 0x0CAD
572: 0x0CA8 [0x15] ExtData[1]->WorkLocal[17] /= 5*
573: 0x0CAD [0x03] Work_Zone[4] = ExtData[1]->WorkLocal[17]
574: 0x0CB2 [0x03] ExtData[1]->WorkLocal[23] = ExtData[1]->WorkLocal[17]
575: 0x0CB7 [0x15] ExtData[1]->WorkLocal[23] /= 20*
576: 0x0CBC [0x03] Work_Zone[5] = ExtData[1]->WorkLocal[23]
577: 0x0CC1 [0x03] Work_Zone[6] = ExtData[1]->WorkLocal[3]
578: 0x0CC6 [0x03] Work_Zone[7] = ExtData[1]->WorkLocal[34]
579: 0x0CCB [0x05] ExtData[1]->WorkLocal[76] = 1
580: 0x0CCE [0x1A] CALL_SUBROUTINE(address=0x0885)
581: 0x0CD1 [0x02] IF !(ExtData[1]->WorkLocal[18] < 0*) GOTO 0x0CE1
582: 0x0CD9 [0x03] Work_Zone_1700[25] = 1*
583: 0x0CDE [0x01] GOTO 0x0CE6
584: 0x0CE1 [0x03] Work_Zone_1700[25] = 0*

SUBROUTINE_0CE6:
585: 0x0CE6 [0x03] Work_Zone[2] = ExtData[1]->WorkLocal[3]
586: 0x0CEB [0x24] CREATE_DIALOG(message_id=11794*, default_option=ExtData[1]->WorkLocal[77], option_flags=0*)
    → "$2$3M$3 [E<Player>Z$P13.7ii$4$3M$3 [j/Travel to $8?/ [[Add to favorites/Delete from favorites]./Travel using $2 gil. ($4 gil)/Travel using $3 tab[/s]. ($5 total)/Not just yet.]"
587: 0x0CF2 [0x25] WAIT_DIALOG_SELECT()
588: 0x0CF3 [0x02] IF !(Work_Zone[0] == 0*) GOTO 0x0CFE
589: 0x0CFB [0x01] GOTO 0x0CFE

SUBROUTINE_0CFE:
590: 0x0CFE [0x03] ExtData[1]->WorkLocal[77] = Work_Zone[0]
591: 0x0D03 [0x02] IF !(ExtData[1]->WorkLocal[77] == 0*) GOTO 0x0D14
592: 0x0D0B [0x1A] CALL_SUBROUTINE(address=0x0786)
593: 0x0D0E [0x06] ExtData[1]->WorkLocal[76] = 0
594: 0x0D11 [0x01] GOTO 0x0DDB
595: 0x0D14 [0x02] IF !(ExtData[1]->WorkLocal[77] == 1*) GOTO 0x0D72
596: 0x0D1C [0x02] IF !(ExtData[1]->WorkLocal[3] >= ExtData[1]->WorkLocal[17]) GOTO 0x0D2E
597: 0x0D24 [0x48] [System] [6585*]:
    → "You do not have enough gil."
598: 0x0D27 [0x23] WAIT_FOR_DIALOG_INTERACTION
599: 0x0D28 [0x06] ExtData[1]->WorkLocal[76] = 0
600: 0x0D2B [0x01] GOTO 0x0D6F
601: 0x0D2E [0x42] SET_CLI_EVENT_CANCEL_DATA()
602: 0x0D2F [0x40] SET_BIT_WORK_RANGE(start_bit=0*, end_bit=7*, target=Work_Zone[1], source=1*)
603: 0x0D38 [0x40] SET_BIT_WORK_RANGE(start_bit=16*, end_bit=31*, target=Work_Zone[1], source=0*)
604: 0x0D41 [0x43] SEND_EVENT_UPDATE: Send pending tag to server (packet 0x005B)
605: 0x0D43 [0x43] SEND_EVENT_UPDATE: Check pending flag (skip if not pending)
606: 0x0D45 [0x1A] CALL_SUBROUTINE(address=0x114E)
