# 17531204 - DIRECTOR

## Common Data

| Field            | Value                            |
|------------------|----------------------------------|
| Zone             | Lower Delkfutt's Tower (ID: 184) |
| Block Size       | 1128 bytes                       |
| Total Events     | 4                                |
| References Count | 28                               |

## List of Events

| Event ID              | Entrypoint   |   Size |   Instructions |
|-----------------------|--------------|--------|----------------|
| [65535](#event-65535) | 0x0000       |      1 |              1 |
| [23](#event-23)       | 0x0001       |    371 |             44 |
| [26](#event-26)       | 0x0174       |    608 |             82 |
| [25](#event-25)       | 0x03D4       |      1 |              1 |

## DAT References (imed_data)

|   Index | Hex Value   |   Dec Value |
|---------|-------------|-------------|
|       0 | 0x0220      |         544 |
|       1 | 0x000C      |          12 |
|       2 | 0x0002      |           2 |
|       3 | 0x0064      |         100 |
|       4 | 0x0000      |           0 |
|       5 | 0x0001      |           1 |
|       6 | 0x003C      |          60 |
|       7 | 0x0075      |         117 |
|       8 | 0x00C9      |         201 |
|       9 | 0x00C8      |         200 |
|      10 | 0x0080      |         128 |
|      11 | 0x0190      |         400 |
|      12 | 0x00B4      |         180 |
|      13 | 0x005A      |          90 |
|      14 | 0x00B8      |         184 |
|      15 | 0x0013      |          19 |
|      16 | 0x007F      |         127 |
|      17 | 0x0005      |           5 |
|      18 | 0x0019      |          25 |
|      19 | 0x1D59      |        7513 |
|      20 | 0x1D5A      |        7514 |
|      21 | 0x1D5B      |        7515 |
|      22 | 0x1D5C      |        7516 |
|      23 | 0x0006      |           6 |
|      24 | 0x1D5D      |        7517 |
|      25 | 0x1D5E      |        7518 |
|      26 | 0x1D5F      |        7519 |
|      27 | 0x0078      |         120 |

## Events

### Event 65535

#### Metadata

| Field        | Value   |
|--------------|---------|
| Entrypoint   | 0x0000  |
| Data Size    | 1 bytes |
| Instructions | 1       |

```
      00 01 02 03 04 05 06 07  08 09 0A 0B 0C 0D 0E 0F
      -- -- -- -- -- -- -- --  -- -- -- -- -- -- -- --
0000: 00                                                .               
```

#### Opcodes

```
  0: 0x0000 [0x00] END_REQSTACK()
```

### Event 23

#### Metadata

| Field        | Value     |
|--------------|-----------|
| Entrypoint   | 0x0001    |
| Data Size    | 371 bytes |
| Instructions | 44        |

```
      00 01 02 03 04 05 06 07  08 09 0A 0B 0C 0D 0E 0F
      -- -- -- -- -- -- -- --  -- -- -- -- -- -- -- --
0000:    29 08 F0 FF FF 7F 04  34 00 80 77 01 80 02 80   )......4..w....
0010: 1C 03 80 29 0B 45 81 0B  01 06 4E 01 F0 FF FF 7F  ...).E....N.....
0020: 4E 01 45 81 0B 01 6C 45  81 0B 01 04 80 05 80 4E  N.E...lE.......N
0030: 00 45 81 0B 01 80 45 81  0B 01 1C 06 80 45 07 80  .E....E......E..
0040: F8 FF FF 7F F8 FF FF 7F  73 30 30 37 04 80 45 08  ........s007..E.
0050: 80 F0 FF FF 7F F0 FF FF  7F 77 68 69 31 04 80 1C  .........whi1...
0060: 03 80 1C 09 80 52 07 80  F8 FF FF 7F F8 FF FF 7F  .....R..........
0070: 73 30 30 37 45 09 80 F0  FF FF 7F F0 FF FF 7F 6F  s007E..........o
0080: 76 6C 31 04 80 45 07 80  F8 FF FF 7F F8 FF FF 7F  vl1..E..........
0090: 73 30 30 38 04 80 2D F8  FF FF 7F F8 FF FF 7F 73  s008..-........s
00A0: 74 61 74 29 08 45 81 0B  01 01 27 0B 46 81 0B 01  tat).E....'.F...
00B0: 03 6C 45 81 0B 01 0A 80  0B 80 2A 0B 46 81 0B 01  .lE.......*.F...
00C0: 52 07 80 F8 FF FF 7F F8  FF FF 7F 73 30 30 38 45  R..........s008E
00D0: 09 80 F0 FF FF 7F F0 FF  FF 7F 6F 76 6C 31 04 80  ..........ovl1..
00E0: 45 07 80 F8 FF FF 7F F8  FF FF 7F 73 30 31 30 04  E..........s010.
00F0: 80 1C 0C 80 52 07 80 F8  FF FF 7F F8 FF FF 7F 73  ....R..........s
0100: 30 31 30 45 09 80 F0 FF  FF 7F F0 FF FF 7F 6F 76  010E..........ov
0110: 6C 31 04 80 45 07 80 F8  FF FF 7F F8 FF FF 7F 73  l1..E..........s
0120: 30 30 39 04 80 1C 0D 80  45 08 80 F0 FF FF 7F F0  009.....E.......
0130: FF FF 7F 77 68 6F 31 04  80 1C 06 80 52 07 80 F8  ...who1.....R...
0140: FF FF 7F F8 FF FF 7F 73  30 30 39 29 08 45 81 0B  .......s009).E..
0150: 01 02 35 0E 80 78 1C 03  80 5C 00 04 80 5C 01 04  ..5..x...\...\..
0160: 80 4E 00 F0 FF FF 7F 4E  01 45 81 0B 01 4E 01 46  .N.....N.E...N.F
0170: 81 0B 01 00                                       ....            
```

#### Opcodes

```
  0: 0x0001 [0x29] REQ_SET_WAIT(priority=0x08, entity_id=LocalPlayer, tag_num=0x04)
  1: 0x0008 [0x34] LOAD_UNLOAD_ZONE(zone_id=544*)
  2: 0x000B [0x77] SET_EVENT_TIME_WEATHER(hour=12*, weather=2*)
  3: 0x0010 [0x1C] WAIT(100* ticks)
  4: 0x0013 [0x29] REQ_SET_WAIT(priority=0x0B, entity_id=Esha'ntarl (ID: 17531205/0x010B8145), tag_num=0x06)
  5: 0x001A [0x4E] SET_ENTITY_HIDE_FLAG: Hide LocalPlayer
  6: 0x0020 [0x4E] SET_ENTITY_HIDE_FLAG: Hide Esha'ntarl (ID: 17531205/0x010B8145)
  7: 0x0026 [0x6C] FADE_ENTITY_COLOR(entity_id=Esha'ntarl (ID: 17531205/0x010B8145), end_alpha=0*, fade_time=1*)
  8: 0x002F [0x4E] SET_ENTITY_HIDE_FLAG: Show Esha'ntarl (ID: 17531205/0x010B8145)
  9: 0x0035 [0x80] LOAD_WAIT(entity=Esha'ntarl (ID: 17531205/0x010B8145))
 10: 0x003A [0x1C] WAIT(60* ticks)
 11: 0x003D [0x45] LOAD_SCHEDULED_TASK: Load scheduler "s007" with entities [EventEntity, EventEntity], work=[117*, 0*]
 12: 0x004E [0x45] LOAD_SCHEDULED_TASK: Load scheduler "whi1" with entities [LocalPlayer, LocalPlayer], work=[201*, 0*]
 13: 0x005F [0x1C] WAIT(100* ticks)
 14: 0x0062 [0x1C] WAIT(200* ticks)
 15: 0x0065 [0x52] END_LOAD_SCHEDULER: End scheduler "s007" with entities [EventEntity, EventEntity], work=117*
 16: 0x0074 [0x45] LOAD_SCHEDULED_TASK: Load scheduler "ovl1" with entities [LocalPlayer, LocalPlayer], work=[200*, 0*]
 17: 0x0085 [0x45] LOAD_SCHEDULED_TASK: Load scheduler "s008" with entities [EventEntity, EventEntity], work=[117*, 0*]
 18: 0x0096 [0x2D] CREATE_ZONE_SCHEDULER_TASK: Create scheduler "stat" with entities [EventEntity, EventEntity]
 19: 0x00A3 [0x29] REQ_SET_WAIT(priority=0x08, entity_id=Esha'ntarl (ID: 17531205/0x010B8145), tag_num=0x01)
 20: 0x00AA [0x27] REQ_SET(priority=0x0B, entity_id=Yve'noile (ID: 17531206/0x010B8146), tag_num=0x03)
 21: 0x00B1 [0x6C] FADE_ENTITY_COLOR(entity_id=Esha'ntarl (ID: 17531205/0x010B8145), end_alpha=128*, fade_time=400*)
 22: 0x00BA [0x2A] GET_REQ_LEVEL(level=11, entity_id=Yve'noile (ID: 17531206/0x010B8146))
 23: 0x00C0 [0x52] END_LOAD_SCHEDULER: End scheduler "s008" with entities [EventEntity, EventEntity], work=117*
 24: 0x00CF [0x45] LOAD_SCHEDULED_TASK: Load scheduler "ovl1" with entities [LocalPlayer, LocalPlayer], work=[200*, 0*]
 25: 0x00E0 [0x45] LOAD_SCHEDULED_TASK: Load scheduler "s010" with entities [EventEntity, EventEntity], work=[117*, 0*]
 26: 0x00F1 [0x1C] WAIT(180* ticks)
 27: 0x00F4 [0x52] END_LOAD_SCHEDULER: End scheduler "s010" with entities [EventEntity, EventEntity], work=117*
 28: 0x0103 [0x45] LOAD_SCHEDULED_TASK: Load scheduler "ovl1" with entities [LocalPlayer, LocalPlayer], work=[200*, 0*]
 29: 0x0114 [0x45] LOAD_SCHEDULED_TASK: Load scheduler "s009" with entities [EventEntity, EventEntity], work=[117*, 0*]
 30: 0x0125 [0x1C] WAIT(90* ticks)
 31: 0x0128 [0x45] LOAD_SCHEDULED_TASK: Load scheduler "who1" with entities [LocalPlayer, LocalPlayer], work=[201*, 0*]
 32: 0x0139 [0x1C] WAIT(60* ticks)
 33: 0x013C [0x52] END_LOAD_SCHEDULER: End scheduler "s009" with entities [EventEntity, EventEntity], work=117*
 34: 0x014B [0x29] REQ_SET_WAIT(priority=0x08, entity_id=Esha'ntarl (ID: 17531205/0x010B8145), tag_num=0x02)
 35: 0x0152 [0x35] LOAD_ZONE_NO_CLOSE(zone_id=184*)
 36: 0x0155 [0x78] ENABLE_GAME_TIMER_RESET_WEATHER()
 37: 0x0156 [0x1C] WAIT(100* ticks)
 38: 0x0159 [0x5C] MUSIC_CONTROL: Set Idle (Day) music to song 0*
 39: 0x015D [0x5C] MUSIC_CONTROL: Set Idle (Night) music to song 0*
 40: 0x0161 [0x4E] SET_ENTITY_HIDE_FLAG: Show LocalPlayer
 41: 0x0167 [0x4E] SET_ENTITY_HIDE_FLAG: Hide Esha'ntarl (ID: 17531205/0x010B8145)
 42: 0x016D [0x4E] SET_ENTITY_HIDE_FLAG: Hide Yve'noile (ID: 17531206/0x010B8146)
 43: 0x0173 [0x00] END_REQSTACK()
```

### Event 26

#### Metadata

| Field        | Value     |
|--------------|-----------|
| Entrypoint   | 0x0174    |
| Data Size    | 608 bytes |
| Instructions | 82        |

```
      00 01 02 03 04 05 06 07  08 09 0A 0B 0C 0D 0E 0F
      -- -- -- -- -- -- -- --  -- -- -- -- -- -- -- --
0170:             20 01 42 46  01 45 09 80 F8 FF FF 7F       .BF.E......
0180: F8 FF FF 7F 66 64 6F 31  04 80 1C 06 80 38 0F 80  ....fdo1.....8..
0190: 29 08 F0 FF FF 7F 04 29  0B 47 81 0B 01 2A 29 0B  )......).G...*).
01A0: F0 FF FF 7F 07 4E 00 47  81 0B 01 80 47 81 0B 01  .....N.G....G...
01B0: 5C 00 10 80 5C 01 10 80  79 00 47 81 0B 01 F0 FF  \...\...y.G.....
01C0: FF 7F 27 0B 47 81 0B 01  2B 1C 11 80 45 12 80 F8  ..'.G...+...E...
01D0: FF FF 7F F8 FF FF 7F 73  30 32 30 04 80 45 09 80  .......s020..E..
01E0: F8 FF FF 7F F8 FF FF 7F  66 64 69 31 04 80 1C 06  ........fdi1....
01F0: 80 4A F0 FF FF 7F 47 81  0B 01 6F 76 F0 FF FF 7F  .J....G...ov....
0200: 52 12 80 F8 FF FF 7F F8  FF FF 7F 73 30 32 30 45  R..........s020E
0210: 09 80 F0 FF FF 7F F0 FF  FF 7F 6F 76 6C 31 04 80  ..........ovl1..
0220: 45 12 80 F8 FF FF 7F F8  FF FF 7F 73 30 32 31 04  E..........s021.
0230: 80 2B 47 81 0B 01 13 80  23 2A 0B 47 81 0B 01 2B  .+G.....#*.G...+
0240: 47 81 0B 01 14 80 23 52  12 80 F8 FF FF 7F F8 FF  G.....#R........
0250: FF 7F 73 30 32 31 45 12  80 F8 FF FF 7F F8 FF FF  ..s021E.........
0260: 7F 73 30 32 33 04 80 29  08 47 81 0B 01 0B 2B 47  .s023..).G....+G
0270: 81 0B 01 15 80 23 29 08  47 81 0B 01 0C 2B 47 81  .....#).G....+G.
0280: 0B 01 16 80 23 29 08 47  81 0B 01 0F 29 08 47 81  ....#).G....).G.
0290: 0B 01 10 52 12 80 F8 FF  FF 7F F8 FF FF 7F 73 30  ...R..........s0
02A0: 32 33 02 09 10 11 80 00  BE 02 45 12 80 F8 FF FF  23........E.....
02B0: 7F F8 FF FF 7F 73 30 32  35 04 80 01 EB 02 02 09  .....s025.......
02C0: 10 17 80 00 DA 02 45 12  80 F8 FF FF 7F F8 FF FF  ......E.........
02D0: 7F 73 30 32 35 04 80 01  EB 02 45 12 80 F8 FF FF  .s025.....E.....
02E0: 7F F8 FF FF 7F 73 30 32  32 04 80 29 08 47 81 0B  .....s022..).G..
02F0: 01 01 2B 47 81 0B 01 18  80 23 2B 47 81 0B 01 19  ..+G.....#+G....
0300: 80 23 29 08 47 81 0B 01  02 02 09 10 11 80 00 23  .#).G..........#
0310: 03 52 12 80 F8 FF FF 7F  F8 FF FF 7F 73 30 32 35  .R..........s025
0320: 01 4C 03 02 09 10 17 80  00 3D 03 52 12 80 F8 FF  .L.......=.R....
0330: FF 7F F8 FF FF 7F 73 30  32 35 01 4C 03 52 12 80  ......s025.L.R..
0340: F8 FF FF 7F F8 FF FF 7F  73 30 32 32 45 12 80 F8  ........s022E...
0350: FF FF 7F F8 FF FF 7F 73  30 32 34 04 80 29 08 47  .......s024..).G
0360: 81 0B 01 0D 2B 47 81 0B  01 1A 80 23 29 08 47 81  ....+G.....#).G.
0370: 0B 01 0E 7B 47 81 0B 01  27 0B 47 81 0B 01 2C 1C  ...{G...'.G...,.
0380: 06 80 5D 04 80 1B 80 45  09 80 F0 FF FF 7F F0 FF  ..]....E........
0390: FF 7F 66 64 6F 31 04 80  1C 1B 80 52 12 80 F8 FF  ..fdo1.....R....
03A0: FF 7F F8 FF FF 7F 73 30  32 34 5C 00 04 80 5C 01  ......s024\...\.
03B0: 04 80 4E 00 F0 FF FF 7F  80 F0 FF FF 7F 46 00 45  ..N..........F.E
03C0: 09 80 F0 FF FF 7F F0 FF  FF 7F 66 64 69 31 04 80  ..........fdi1..
03D0: 20 00 21 00                                        .!.            
```

#### Opcodes

```
  0: 0x0174 [0x20] SET_CLI_EVENT_UC_FLAG: Lock player control
  1: 0x0176 [0x42] SET_CLI_EVENT_CANCEL_DATA()
  2: 0x0177 [0x46] CAMERA_CONTROL: Disable user control
  3: 0x0179 [0x45] LOAD_SCHEDULED_TASK: Load scheduler "fdo1" with entities [EventEntity, EventEntity], work=[200*, 0*]
  4: 0x018A [0x1C] WAIT(60* ticks)
  5: 0x018D [0x38] SET_CLIENT_EVENT_MODE(mode=19*)
  6: 0x0190 [0x29] REQ_SET_WAIT(priority=0x08, entity_id=LocalPlayer, tag_num=0x04)
  7: 0x0197 [0x29] REQ_SET_WAIT(priority=0x0B, entity_id=Chandraj (ID: 17531207/0x010B8147), tag_num=0x2A)
  8: 0x019E [0x29] REQ_SET_WAIT(priority=0x0B, entity_id=LocalPlayer, tag_num=0x07)
  9: 0x01A5 [0x4E] SET_ENTITY_HIDE_FLAG: Show Chandraj (ID: 17531207/0x010B8147)
 10: 0x01AB [0x80] LOAD_WAIT(entity=Chandraj (ID: 17531207/0x010B8147))
 11: 0x01B0 [0x5C] MUSIC_CONTROL: Set Idle (Day) music to song 127*
 12: 0x01B4 [0x5C] MUSIC_CONTROL: Set Idle (Night) music to song 127*
 13: 0x01B8 [0x79] Chandraj (ID: 17531207/0x010B8147) looks at LocalPlayer (Basic look)
 14: 0x01C2 [0x27] REQ_SET(priority=0x0B, entity_id=Chandraj (ID: 17531207/0x010B8147), tag_num=0x2B)
 15: 0x01C9 [0x1C] WAIT(5* ticks)
 16: 0x01CC [0x45] LOAD_SCHEDULED_TASK: Load scheduler "s020" with entities [EventEntity, EventEntity], work=[25*, 0*]
 17: 0x01DD [0x45] LOAD_SCHEDULED_TASK: Load scheduler "fdi1" with entities [EventEntity, EventEntity], work=[200*, 0*]
 18: 0x01EE [0x1C] WAIT(60* ticks)
 19: 0x01F1 [0x4A] LocalPlayer looks at Chandraj (ID: 17531207/0x010B8147)
 20: 0x01FA [0x6F] WAIT_FRAME_DELAY: Yield until WaitTime reaches zero
 21: 0x01FB [0x76] CHECK_ENTITY_RENDER_FLAGS: Wait until LocalPlayer Render.Flags0 and Render.Flags3 conditions are met
 22: 0x0200 [0x52] END_LOAD_SCHEDULER: End scheduler "s020" with entities [EventEntity, EventEntity], work=25*
 23: 0x020F [0x45] LOAD_SCHEDULED_TASK: Load scheduler "ovl1" with entities [LocalPlayer, LocalPlayer], work=[200*, 0*]
 24: 0x0220 [0x45] LOAD_SCHEDULED_TASK: Load scheduler "s021" with entities [EventEntity, EventEntity], work=[25*, 0*]
 25: 0x0231 [0x2B] Chandraj (ID: 17531207/0x010B8147) [7513*]:
    → "W-were y-you the one th-th-that defeated the hi-hideous b-b-b-b-beast?"
 26: 0x0238 [0x23] WAIT_FOR_DIALOG_INTERACTION
 27: 0x0239 [0x2A] GET_REQ_LEVEL(level=11, entity_id=Chandraj (ID: 17531207/0x010B8147))
 28: 0x023F [0x2B] Chandraj (ID: 17531207/0x010B8147) [7514*]:
    → "Oh, th-thank you s-s-s-so m-much. I-I've b-b-b-b-been t-trying to g-g-get up enough s-s-s-strength to f-face it for the p-p-p-past f-few weeks, b-b-b-but I-I-I-I..."
 29: 0x0246 [0x23] WAIT_FOR_DIALOG_INTERACTION
 30: 0x0247 [0x52] END_LOAD_SCHEDULER: End scheduler "s021" with entities [EventEntity, EventEntity], work=25*
 31: 0x0256 [0x45] LOAD_SCHEDULED_TASK: Load scheduler "s023" with entities [EventEntity, EventEntity], work=[25*, 0*]
 32: 0x0267 [0x29] REQ_SET_WAIT(priority=0x08, entity_id=Chandraj (ID: 17531207/0x010B8147), tag_num=0x0B)
 33: 0x026E [0x2B] Chandraj (ID: 17531207/0x010B8147) [7515*]:
    → "<Sigh> N-now I-I-I can f-finally go home. I-I-I-I think it's t-t-time I give up th-th-this adventuring b-b-b-b-business."
 34: 0x0275 [0x23] WAIT_FOR_DIALOG_INTERACTION
 35: 0x0276 [0x29] REQ_SET_WAIT(priority=0x08, entity_id=Chandraj (ID: 17531207/0x010B8147), tag_num=0x0C)
 36: 0x027D [0x2B] Chandraj (ID: 17531207/0x010B8147) [7516*]:
    → "Hm? R-R-Raibaht s-s-s-sent you? You w-w-want to know wh-wh-where I hid th-the alti-ti-ti-timeter?"
 37: 0x0284 [0x23] WAIT_FOR_DIALOG_INTERACTION
 38: 0x0285 [0x29] REQ_SET_WAIT(priority=0x08, entity_id=Chandraj (ID: 17531207/0x010B8147), tag_num=0x0F)
 39: 0x028C [0x29] REQ_SET_WAIT(priority=0x08, entity_id=Chandraj (ID: 17531207/0x010B8147), tag_num=0x10)
 40: 0x0293 [0x52] END_LOAD_SCHEDULER: End scheduler "s023" with entities [EventEntity, EventEntity], work=25*
 41: 0x02A2 [0x02] IF !(Work_Zone[9] == 5*) GOTO 0x02BE
 42: 0x02AA [0x45] LOAD_SCHEDULED_TASK: Load scheduler "s025" with entities [EventEntity, EventEntity], work=[25*, 0*]
 43: 0x02BB [0x01] GOTO 0x02EB
 44: 0x02BE [0x02] IF !(Work_Zone[9] == 6*) GOTO 0x02DA
 45: 0x02C6 [0x45] LOAD_SCHEDULED_TASK: Load scheduler "s025" with entities [EventEntity, EventEntity], work=[25*, 0*]
 46: 0x02D7 [0x01] GOTO 0x02EB
 47: 0x02DA [0x45] LOAD_SCHEDULED_TASK: Load scheduler "s022" with entities [EventEntity, EventEntity], work=[25*, 0*]

SUBROUTINE_02EB:
 48: 0x02EB [0x29] REQ_SET_WAIT(priority=0x08, entity_id=Chandraj (ID: 17531207/0x010B8147), tag_num=0x01)
 49: 0x02F2 [0x2B] Chandraj (ID: 17531207/0x010B8147) [7517*]:
    → "B-b-b-but without $6, you'll n-n-never get i-i-it out of J-Jeuno. Y-y-you'll be c-c-caught just like m-m-m-me."
 50: 0x02F9 [0x23] WAIT_FOR_DIALOG_INTERACTION
 51: 0x02FA [0x2B] Chandraj (ID: 17531207/0x010B8147) [7518*]:
    → "Wh-what? You h-have one? W-w-well, then ch-ch-check the s-streetlamps in L-L-L-Lower J-Jeuno. Th-that's where I-I hid th-the altimeter."
 52: 0x0301 [0x23] WAIT_FOR_DIALOG_INTERACTION
 53: 0x0302 [0x29] REQ_SET_WAIT(priority=0x08, entity_id=Chandraj (ID: 17531207/0x010B8147), tag_num=0x02)
 54: 0x0309 [0x02] IF !(Work_Zone[9] == 5*) GOTO 0x0323
 55: 0x0311 [0x52] END_LOAD_SCHEDULER: End scheduler "s025" with entities [EventEntity, EventEntity], work=25*
 56: 0x0320 [0x01] GOTO 0x034C
 57: 0x0323 [0x02] IF !(Work_Zone[9] == 6*) GOTO 0x033D
 58: 0x032B [0x52] END_LOAD_SCHEDULER: End scheduler "s025" with entities [EventEntity, EventEntity], work=25*
 59: 0x033A [0x01] GOTO 0x034C
 60: 0x033D [0x52] END_LOAD_SCHEDULER: End scheduler "s022" with entities [EventEntity, EventEntity], work=25*

SUBROUTINE_034C:
 61: 0x034C [0x45] LOAD_SCHEDULED_TASK: Load scheduler "s024" with entities [EventEntity, EventEntity], work=[25*, 0*]
 62: 0x035D [0x29] REQ_SET_WAIT(priority=0x08, entity_id=Chandraj (ID: 17531207/0x010B8147), tag_num=0x0D)
 63: 0x0364 [0x2B] Chandraj (ID: 17531207/0x010B8147) [7519*]:
    → "G-good luck, [s-s-sir/m-m-ma'am]. N-n-now where's th-th-the exit to this p-p-p-p-place?"
 64: 0x036B [0x23] WAIT_FOR_DIALOG_INTERACTION
 65: 0x036C [0x29] REQ_SET_WAIT(priority=0x08, entity_id=Chandraj (ID: 17531207/0x010B8147), tag_num=0x0E)
 66: 0x0373 [0x7B] Chandraj (ID: 17531207/0x010B8147) stops talking
 67: 0x0378 [0x27] REQ_SET(priority=0x0B, entity_id=Chandraj (ID: 17531207/0x010B8147), tag_num=0x2C)
 68: 0x037F [0x1C] WAIT(60* ticks)
 69: 0x0382 [0x5D] SET_MUSIC_VOLUME(volume=0*, fade_time=120*)
 70: 0x0387 [0x45] LOAD_SCHEDULED_TASK: Load scheduler "fdo1" with entities [LocalPlayer, LocalPlayer], work=[200*, 0*]
 71: 0x0398 [0x1C] WAIT(120* ticks)
 72: 0x039B [0x52] END_LOAD_SCHEDULER: End scheduler "s024" with entities [EventEntity, EventEntity], work=25*
 73: 0x03AA [0x5C] MUSIC_CONTROL: Set Idle (Day) music to song 0*
 74: 0x03AE [0x5C] MUSIC_CONTROL: Set Idle (Night) music to song 0*
 75: 0x03B2 [0x4E] SET_ENTITY_HIDE_FLAG: Show LocalPlayer
 76: 0x03B8 [0x80] LOAD_WAIT(entity=LocalPlayer)
 77: 0x03BD [0x46] CAMERA_CONTROL: Restore default settings
 78: 0x03BF [0x45] LOAD_SCHEDULED_TASK: Load scheduler "fdi1" with entities [LocalPlayer, LocalPlayer], work=[200*, 0*]
 79: 0x03D0 [0x20] SET_CLI_EVENT_UC_FLAG: Unlock player control
 80: 0x03D2 [0x21] END_EVENT
 81: 0x03D3 [0x00] END_REQSTACK()
```

### Event 25

#### Metadata

| Field        | Value   |
|--------------|---------|
| Entrypoint   | 0x03D4  |
| Data Size    | 1 bytes |
| Instructions | 1       |

```
      00 01 02 03 04 05 06 07  08 09 0A 0B 0C 0D 0E 0F
      -- -- -- -- -- -- -- --  -- -- -- -- -- -- -- --
03D0:             00                                        .           
```

#### Opcodes

```
  0: 0x03D4 [0x00] END_REQSTACK()
```
