# 0x7FFFFFF0 - Zone Events

## Common Data

| Field            | Value                            |
|------------------|----------------------------------|
| Zone             | Lower Delkfutt's Tower (ID: 184) |
| Block Size       | 38396 bytes                      |
| Total Events     | 55                               |
| References Count | 614                              |

## List of Events

| Event ID                   | Entrypoint   |   Size |   Instructions |
|----------------------------|--------------|--------|----------------|
| [65535](#event-65535)      | 0x0000       |      1 |              1 |
| [65534](#event-65534)      | 0x0001       |      1 |              1 |
| [65535.1](#event-655351)   | 0x0002       |      6 |              2 |
| [65535.2](#event-655352)   | 0x0008       |      6 |              2 |
| [65535.3](#event-655353)   | 0x000E       |      6 |              2 |
| [65535.4](#event-655354)   | 0x0014       |      6 |              2 |
| [65535.5](#event-655355)   | 0x001A       |      6 |              2 |
| [65535.6](#event-655356)   | 0x0020       |     10 |              2 |
| [65535.7](#event-655357)   | 0x002A       |     23 |              5 |
| [22](#event-22)            | 0x0041       |   1057 |            163 |
| [36](#event-36)            | 0x0462       |    952 |            114 |
| [37](#event-37)            | 0x081A       |    670 |             87 |
| [38](#event-38)            | 0x0AB8       |   1252 |            174 |
| [39](#event-39)            | 0x0F9C       |    881 |            125 |
| [15](#event-15)            | 0x130D       |    895 |            130 |
| [65535.8](#event-655358)   | 0x168C       |     10 |              2 |
| [65535.9](#event-655359)   | 0x1696       |     15 |              5 |
| [65535.10](#event-6553510) | 0x16A5       |     30 |              6 |
| [65535.11](#event-6553511) | 0x16C3       |     24 |              6 |
| [65535.12](#event-6553512) | 0x16DB       |     10 |              2 |
| [65535.13](#event-6553513) | 0x16E5       |     15 |              5 |
| [65535.14](#event-6553514) | 0x16F4       |     30 |              6 |
| [65535.15](#event-6553515) | 0x1712       |     24 |              6 |
| [65535.16](#event-6553516) | 0x172A       |     10 |              2 |
| [65535.17](#event-6553517) | 0x1734       |     15 |              5 |
| [65535.18](#event-6553518) | 0x1743       |     30 |              6 |
| [65535.19](#event-6553519) | 0x1761       |     24 |              6 |
| [3](#event-3)              | 0x1779       |     86 |             18 |
| [4](#event-4)              | 0x17CF       |     86 |             18 |
| [5](#event-5)              | 0x1825       |     13 |              3 |
| [8](#event-8)              | 0x1832       |     10 |              2 |
| [9](#event-9)              | 0x183C       |     14 |              4 |
| [14](#event-14)            | 0x184A       |     50 |              8 |
| [17](#event-17)            | 0x187C       |     13 |              3 |
| [18](#event-18)            | 0x1889       |     10 |              2 |
| [19](#event-19)            | 0x1893       |     14 |              4 |
| [27](#event-27)            | 0x18A1       |   2457 |            376 |
| [30](#event-30)            | 0x223A       |   4122 |            606 |
| [65535.20](#event-6553520) | 0x3254       |     14 |              4 |
| [28](#event-28)            | 0x3262       |    875 |            104 |
| [29](#event-29)            | 0x35CD       |  21335 |           3582 |
| [34](#event-34)            | 0x8924       |    200 |             25 |
| [65535.21](#event-6553521) | 0x89EC       |     10 |              2 |
| [65535.22](#event-6553522) | 0x89F6       |     10 |              2 |
| [65535.23](#event-6553523) | 0x8A00       |     10 |              2 |
| [65535.24](#event-6553524) | 0x8A0A       |     27 |              7 |
| [65535.25](#event-6553525) | 0x8A25       |     10 |              2 |
| [33](#event-33)            | 0x8A2F       |     88 |             22 |
| [65535.26](#event-6553526) | 0x8A87       |     24 |              4 |
| [65535.27](#event-6553527) | 0x8A9F       |    172 |             36 |
| [65535.28](#event-6553528) | 0x8B4B       |      5 |              2 |
| [65535.29](#event-6553529) | 0x8B50       |      5 |              2 |
| [65535.30](#event-6553530) | 0x8B55       |      5 |              2 |
| [65535.31](#event-6553531) | 0x8B5A       |      5 |              2 |
| [65535.32](#event-6553532) | 0x8B5F       |     22 |              6 |

## DAT References (imed_data)

|   Index | Hex Value   |   Dec Value |
|---------|-------------|-------------|
|       0 | 0x7AE5B     |      503387 |
|       1 | 0x1770E     |       96014 |
|       2 | 0x5DD2      |       24018 |
|       3 | 0x0580      |        1408 |
|       4 | 0x704E1     |      460001 |
|       5 | 0xFFFE4F84  |  4294856580 |
|       6 | 0x0465      |        1125 |
|       7 | 0x0C55      |        3157 |
|       8 | 0x0028      |          40 |
|       9 | 0x704D5     |      459989 |
|      10 | 0xFFFE6C3E  |  4294863934 |
|      11 | 0x0000      |           0 |
|      12 | 0x00C8      |         200 |
|      13 | 0x2E5C      |       11868 |
|      14 | 0x2E5D      |       11869 |
|      15 | 0x0001      |           1 |
|      16 | 0x00B8      |         184 |
|      17 | 0x001E      |          30 |
|      18 | 0x0009      |           9 |
|      19 | 0x7190C     |      465164 |
|      20 | 0xFFFF01BD  |  4294902205 |
|      21 | 0x2E5E      |       11870 |
|      22 | 0x00A0      |         160 |
|      23 | 0x2E52      |       11858 |
|      24 | 0x007E      |         126 |
|      25 | 0x0064      |         100 |
|      26 | 0x0013      |          19 |
|      27 | 0x29F9C     |      171932 |
|      28 | 0xFFFFA7CE  |  4294944718 |
|      29 | 0xFFFFB14D  |  4294947149 |
|      30 | 0x0806      |        2054 |
|      31 | 0x00FF      |         255 |
|      32 | 0x000E      |          14 |
|      33 | 0x00F3      |         243 |
|      34 | 0x0038      |          56 |
|      35 | 0x005A      |          90 |
|      36 | 0x01F4      |         500 |
|      37 | 0x0096      |         150 |
|      38 | 0x003E      |          62 |
|      39 | 0x003F      |          63 |
|      40 | 0x0168      |         360 |
|      41 | 0x00DA      |         218 |
|      42 | 0x000A      |          10 |
|      43 | 0x006C      |         108 |
|      44 | 0x000F      |          15 |
|      45 | 0x1CCC      |        7372 |
|      46 | 0x0800      |        2048 |
|      47 | 0x003C      |          60 |
|      48 | 0x00F0      |         240 |
|      49 | 0x002E      |          46 |
|      50 | 0x0002      |           2 |
|      51 | 0x0036      |          54 |
|      52 | 0x0003      |           3 |
|      53 | 0x0048      |          72 |
|      54 | 0x0004      |           4 |
|      55 | 0x0040      |          64 |
|      56 | 0x01A4      |         420 |
|      57 | 0x021C      |         540 |
|      58 | 0x0032      |          50 |
|      59 | 0x1CCD      |        7373 |
|      60 | 0x1CCE      |        7374 |
|      61 | 0x0005      |           5 |
|      62 | 0x0010      |          16 |
|      63 | 0x00C9      |         201 |
|      64 | 0x00B4      |         180 |
|      65 | 0x0078      |         120 |
|      66 | 0x021E      |         542 |
|      67 | 0x0045      |          69 |
|      68 | 0x0D2A      |        3370 |
|      69 | 0x0049      |          73 |
|      70 | 0x0050      |          80 |
|      71 | 0x006E      |         110 |
|      72 | 0x006A      |         106 |
|      73 | 0x00E8      |         232 |
|      74 | 0x1CCF      |        7375 |
|      75 | 0x1CD0      |        7376 |
|      76 | 0x004D      |          77 |
|      77 | 0x1CD1      |        7377 |
|      78 | 0x1CD2      |        7378 |
|      79 | 0x1CD3      |        7379 |
|      80 | 0x1CD4      |        7380 |
|      81 | 0x1CD5      |        7381 |
|      82 | 0x0037      |          55 |
|      83 | 0x0458      |        1112 |
|      84 | 0x0011      |          17 |
|      85 | 0x00E0      |         224 |
|      86 | 0x0069      |         105 |
|      87 | 0x1CD6      |        7382 |
|      88 | 0x1CD7      |        7383 |
|      89 | 0x1CD8      |        7384 |
|      90 | 0x1CD9      |        7385 |
|      91 | 0x1CDA      |        7386 |
|      92 | 0x1CDB      |        7387 |
|      93 | 0x1CDC      |        7388 |
|      94 | 0x1CDD      |        7389 |
|      95 | 0x1CDF      |        7391 |
|      96 | 0x1CE0      |        7392 |
|      97 | 0x1CE1      |        7393 |
|      98 | 0x012C      |         300 |
|      99 | 0x7533B     |      480059 |
|     100 | 0xFFFF1509  |  4294907145 |
|     101 | 0x0C9C      |        3228 |
|     102 | 0x007B      |         123 |
|     103 | 0x00F4      |         244 |
|     104 | 0x00F7      |         247 |
|     105 | 0x1CBD      |        7357 |
|     106 | 0x1CBE      |        7358 |
|     107 | 0x1CBF      |        7359 |
|     108 | 0x1CC0      |        7360 |
|     109 | 0x1CC1      |        7361 |
|     110 | 0x1CC2      |        7362 |
|     111 | 0x1CC3      |        7363 |
|     112 | 0x1CC4      |        7364 |
|     113 | 0x1CC5      |        7365 |
|     114 | 0x1CC6      |        7366 |
|     115 | 0x1CC7      |        7367 |
|     116 | 0x1CC8      |        7368 |
|     117 | 0x1CC9      |        7369 |
|     118 | 0x1CCA      |        7370 |
|     119 | 0x1CCB      |        7371 |
|     120 | 0x9BB0D     |      637709 |
|     121 | 0x4E11      |       19985 |
|     122 | 0x3E7F      |       15999 |
|     123 | 0x0FDC      |        4060 |
|     124 | 0x000D      |          13 |
|     125 | 0x9CB61     |      641889 |
|     126 | 0x4E03      |       19971 |
|     127 | 0x9C1DE     |      639454 |
|     128 | 0x4DF3      |       19955 |
|     129 | 0x989E8     |      625128 |
|     130 | 0x4784      |       18308 |
|     131 | 0x91F6D     |      597869 |
|     132 | 0xFFFFB1ED  |  4294947309 |
|     133 | 0x3E80      |       16000 |
|     134 | 0x92F97     |      602007 |
|     135 | 0xFFFFB1BB  |  4294947259 |
|     136 | 0x925D7     |      599511 |
|     137 | 0xFFFFB0FE  |  4294947070 |
|     138 | 0x908E2     |      592098 |
|     139 | 0xFFFFAD77  |  4294946167 |
|     140 | 0x9BBF0     |      637936 |
|     141 | 0xEA61      |       60001 |
|     142 | 0x0044      |          68 |
|     143 | 0x9CBE6     |      642022 |
|     144 | 0xEAA2      |       60066 |
|     145 | 0x9C279     |      639609 |
|     146 | 0xE9C2      |       59842 |
|     147 | 0x9B26C     |      635500 |
|     148 | 0xEA8D      |       60045 |
|     149 | 0x00BA      |         186 |
|     150 | 0x008C      |         140 |
|     151 | 0x54D72     |      347506 |
|     152 | 0x4EB7      |       20151 |
|     153 | 0x07AF      |        1967 |
|     154 | 0x55A2F     |      350767 |
|     155 | 0x4E74      |       20084 |
|     156 | 0x566A0     |      353952 |
|     157 | 0x4DED      |       19949 |
|     158 | 0x54B76     |      346998 |
|     159 | 0x4DBE      |       19902 |
|     160 | 0x0FE6      |        4070 |
|     161 | 0x001B      |          27 |
|     162 | 0x87501     |      554241 |
|     163 | 0xFFFF7E58  |  4294934104 |
|     164 | 0x0933      |        2355 |
|     165 | 0x0A22      |        2594 |
|     166 | 0x00C2      |         194 |
|     167 | 0x1D62      |        7522 |
|     168 | 0x00C1      |         193 |
|     169 | 0x1D63      |        7523 |
|     170 | 0x1D64      |        7524 |
|     171 | 0x1D65      |        7525 |
|     172 | 0x1D67      |        7527 |
|     173 | 0x1D66      |        7526 |
|     174 | 0x0030      |          48 |
|     175 | 0x1D68      |        7528 |
|     176 | 0x0019      |          25 |
|     177 | 0x1D69      |        7529 |
|     178 | 0x1D6A      |        7530 |
|     179 | 0x1D6B      |        7531 |
|     180 | 0x1D6C      |        7532 |
|     181 | 0x1D6D      |        7533 |
|     182 | 0x1D6E      |        7534 |
|     183 | 0x1D6F      |        7535 |
|     184 | 0x1D72      |        7538 |
|     185 | 0x0006      |           6 |
|     186 | 0x1D73      |        7539 |
|     187 | 0x0007      |           7 |
|     188 | 0x1D74      |        7540 |
|     189 | 0x0008      |           8 |
|     190 | 0x1D75      |        7541 |
|     191 | 0x1D76      |        7542 |
|     192 | 0x1D70      |        7536 |
|     193 | 0x000B      |          11 |
|     194 | 0x1D71      |        7537 |
|     195 | 0x000C      |          12 |
|     196 | 0x1D77      |        7543 |
|     197 | 0x1D78      |        7544 |
|     198 | 0x1D79      |        7545 |
|     199 | 0x0012      |          18 |
|     200 | 0x00D2      |         210 |
|     201 | 0x1D7A      |        7546 |
|     202 | 0x1D86      |        7558 |
|     203 | 0x1D7B      |        7547 |
|     204 | 0x1D87      |        7559 |
|     205 | 0x1D7C      |        7548 |
|     206 | 0x1D88      |        7560 |
|     207 | 0x1D7D      |        7549 |
|     208 | 0x1D89      |        7561 |
|     209 | 0x1D80      |        7552 |
|     210 | 0x1D8C      |        7564 |
|     211 | 0x1D81      |        7553 |
|     212 | 0x1D8D      |        7565 |
|     213 | 0x1D82      |        7554 |
|     214 | 0x1D8E      |        7566 |
|     215 | 0x1D83      |        7555 |
|     216 | 0x1D8F      |        7567 |
|     217 | 0x1D84      |        7556 |
|     218 | 0x1D90      |        7568 |
|     219 | 0x1D7E      |        7550 |
|     220 | 0x1D8A      |        7562 |
|     221 | 0x1D7F      |        7551 |
|     222 | 0x1D8B      |        7563 |
|     223 | 0x1D85      |        7557 |
|     224 | 0x1D91      |        7569 |
|     225 | 0x1D92      |        7570 |
|     226 | 0x1D93      |        7571 |
|     227 | 0x1D94      |        7572 |
|     228 | 0x1D95      |        7573 |
|     229 | 0x1D96      |        7574 |
|     230 | 0x1D97      |        7575 |
|     231 | 0x1D98      |        7576 |
|     232 | 0x1D99      |        7577 |
|     233 | 0x1D9A      |        7578 |
|     234 | 0x1D9B      |        7579 |
|     235 | 0x02D8      |         728 |
|     236 | 0x1D9C      |        7580 |
|     237 | 0x1D9D      |        7581 |
|     238 | 0x1D9E      |        7582 |
|     239 | 0x0A55      |        2645 |
|     240 | 0x1D9F      |        7583 |
|     241 | 0x1DA0      |        7584 |
|     242 | 0x1DA1      |        7585 |
|     243 | 0x1DA2      |        7586 |
|     244 | 0x1DA3      |        7587 |
|     245 | 0x1DA4      |        7588 |
|     246 | 0x026F      |         623 |
|     247 | 0x0020      |          32 |
|     248 | 0x1DA5      |        7589 |
|     249 | 0x1DA6      |        7590 |
|     250 | 0x1DA7      |        7591 |
|     251 | 0x1DA8      |        7592 |
|     252 | 0x1DA9      |        7593 |
|     253 | 0x1DAA      |        7594 |
|     254 | 0x1DAB      |        7595 |
|     255 | 0x1DAC      |        7596 |
|     256 | 0x1DAD      |        7597 |
|     257 | 0x1DAE      |        7598 |
|     258 | 0x1DAF      |        7599 |
|     259 | 0x1DB0      |        7600 |
|     260 | 0x8C548     |      574792 |
|     261 | 0xFFFF8E9B  |  4294938267 |
|     262 | 0x0EFC      |        3836 |
|     263 | 0x1DB1      |        7601 |
|     264 | 0x1DBD      |        7613 |
|     265 | 0x1DB2      |        7602 |
|     266 | 0x1DBE      |        7614 |
|     267 | 0x1DB3      |        7603 |
|     268 | 0x1DBF      |        7615 |
|     269 | 0x1DB4      |        7604 |
|     270 | 0x1DC0      |        7616 |
|     271 | 0x1DB7      |        7607 |
|     272 | 0x1DC3      |        7619 |
|     273 | 0x1DB8      |        7608 |
|     274 | 0x1DC4      |        7620 |
|     275 | 0x1DB9      |        7609 |
|     276 | 0x1DC5      |        7621 |
|     277 | 0x1DBA      |        7610 |
|     278 | 0x1DC6      |        7622 |
|     279 | 0x1DBB      |        7611 |
|     280 | 0x1DC7      |        7623 |
|     281 | 0x1DB5      |        7605 |
|     282 | 0x1DC1      |        7617 |
|     283 | 0x1DB6      |        7606 |
|     284 | 0x1DC2      |        7618 |
|     285 | 0x1DBC      |        7612 |
|     286 | 0x1DC8      |        7624 |
|     287 | 0x8D4E4     |      578788 |
|     288 | 0xFFFFA67D  |  4294944381 |
|     289 | 0x1DC9      |        7625 |
|     290 | 0x1DCA      |        7626 |
|     291 | 0x1DCB      |        7627 |
|     292 | 0x1DCC      |        7628 |
|     293 | 0x1DCD      |        7629 |
|     294 | 0x1DCE      |        7630 |
|     295 | 0x1DCF      |        7631 |
|     296 | 0x1DD0      |        7632 |
|     297 | 0x1DD1      |        7633 |
|     298 | 0x1DD2      |        7634 |
|     299 | 0x1DD3      |        7635 |
|     300 | 0x1DD4      |        7636 |
|     301 | 0x0014      |          20 |
|     302 | 0x1DD5      |        7637 |
|     303 | 0x1DD6      |        7638 |
|     304 | 0x1DD7      |        7639 |
|     305 | 0x0031      |          49 |
|     306 | 0x1DD8      |        7640 |
|     307 | 0x1DD9      |        7641 |
|     308 | 0x1DDA      |        7642 |
|     309 | 0x1DDB      |        7643 |
|     310 | 0x1DDC      |        7644 |
|     311 | 0x1DDD      |        7645 |
|     312 | 0x1DDE      |        7646 |
|     313 | 0x1DDF      |        7647 |
|     314 | 0x1DE2      |        7650 |
|     315 | 0x1DE3      |        7651 |
|     316 | 0x1DE4      |        7652 |
|     317 | 0x1DE5      |        7653 |
|     318 | 0x1DE6      |        7654 |
|     319 | 0x1DE0      |        7648 |
|     320 | 0x1DE1      |        7649 |
|     321 | 0x1DE7      |        7655 |
|     322 | 0x8D265     |      578149 |
|     323 | 0xFFFF9ACE  |  4294941390 |
|     324 | 0x1DE8      |        7656 |
|     325 | 0x1DE9      |        7657 |
|     326 | 0x1DEA      |        7658 |
|     327 | 0x1DEB      |        7659 |
|     328 | 0x1DEC      |        7660 |
|     329 | 0x0015      |          21 |
|     330 | 0x1DED      |        7661 |
|     331 | 0x0034      |          52 |
|     332 | 0x1E06      |        7686 |
|     333 | 0x02D7      |         727 |
|     334 | 0x1E07      |        7687 |
|     335 | 0x007A      |         122 |
|     336 | 0x1E08      |        7688 |
|     337 | 0x1E09      |        7689 |
|     338 | 0x1E0A      |        7690 |
|     339 | 0x1E0B      |        7691 |
|     340 | 0x1E0C      |        7692 |
|     341 | 0x1E0D      |        7693 |
|     342 | 0x1E0E      |        7694 |
|     343 | 0x1E0F      |        7695 |
|     344 | 0x1E10      |        7696 |
|     345 | 0x1E11      |        7697 |
|     346 | 0x1E12      |        7698 |
|     347 | 0x1E13      |        7699 |
|     348 | 0x1E14      |        7700 |
|     349 | 0x1E15      |        7701 |
|     350 | 0x1E16      |        7702 |
|     351 | 0x1E17      |        7703 |
|     352 | 0x1E18      |        7704 |
|     353 | 0x1E19      |        7705 |
|     354 | 0x1E1B      |        7707 |
|     355 | 0x1E1C      |        7708 |
|     356 | 0x1E1D      |        7709 |
|     357 | 0x0018      |          24 |
|     358 | 0x1E1E      |        7710 |
|     359 | 0x1E1A      |        7706 |
|     360 | 0x1E1F      |        7711 |
|     361 | 0x1E20      |        7712 |
|     362 | 0x1E21      |        7713 |
|     363 | 0x1E22      |        7714 |
|     364 | 0x071C      |        1820 |
|     365 | 0x072F      |        1839 |
|     366 | 0x0754      |        1876 |
|     367 | 0x1E23      |        7715 |
|     368 | 0x1E24      |        7716 |
|     369 | 0x1E25      |        7717 |
|     370 | 0x1E26      |        7718 |
|     371 | 0x1E27      |        7719 |
|     372 | 0x1E28      |        7720 |
|     373 | 0x1E29      |        7721 |
|     374 | 0x1E2A      |        7722 |
|     375 | 0x1E2B      |        7723 |
|     376 | 0x1E2C      |        7724 |
|     377 | 0x1E2D      |        7725 |
|     378 | 0x1E2E      |        7726 |
|     379 | 0x1E2F      |        7727 |
|     380 | 0x1E30      |        7728 |
|     381 | 0x1E31      |        7729 |
|     382 | 0x1E32      |        7730 |
|     383 | 0x1E33      |        7731 |
|     384 | 0x1E34      |        7732 |
|     385 | 0x1E37      |        7735 |
|     386 | 0x1E38      |        7736 |
|     387 | 0x1E39      |        7737 |
|     388 | 0x1E3A      |        7738 |
|     389 | 0x1E3B      |        7739 |
|     390 | 0x1E35      |        7733 |
|     391 | 0x1E36      |        7734 |
|     392 | 0x1E3C      |        7740 |
|     393 | 0x1E3D      |        7741 |
|     394 | 0x1E3E      |        7742 |
|     395 | 0x005F      |          95 |
|     396 | 0x0052      |          82 |
|     397 | 0x0057      |          87 |
|     398 | 0x005C      |          92 |
|     399 | 0x0059      |          89 |
|     400 | 0x005D      |          93 |
|     401 | 0x0061      |          97 |
|     402 | 0x0060      |          96 |
|     403 | 0x0017      |          23 |
|     404 | 0x001F      |          31 |
|     405 | 0x018D      |         397 |
|     406 | 0x0175      |         373 |
|     407 | 0x0170      |         368 |
|     408 | 0x0171      |         369 |
|     409 | 0x014C      |         332 |
|     410 | 0x01C1      |         449 |
|     411 | 0x027C      |         636 |
|     412 | 0x027B      |         635 |
|     413 | 0x027D      |         637 |
|     414 | 0x02D3      |         723 |
|     415 | 0x0321      |         801 |
|     416 | 0x0326      |         806 |
|     417 | 0x01E1      |         481 |
|     418 | 0x0343      |         835 |
|     419 | 0x0386      |         902 |
|     420 | 0x0388      |         904 |
|     421 | 0x0361      |         865 |
|     422 | 0x0387      |         903 |
|     423 | 0x038A      |         906 |
|     424 | 0x0282      |         642 |
|     425 | 0x0283      |         643 |
|     426 | 0x0288      |         648 |
|     427 | 0x0289      |         649 |
|     428 | 0x028A      |         650 |
|     429 | 0x028B      |         651 |
|     430 | 0x029E      |         670 |
|     431 | 0x00C6      |         198 |
|     432 | 0x00B5      |         181 |
|     433 | 0x008E      |         142 |
|     434 | 0x014B      |         331 |
|     435 | 0x0148      |         328 |
|     436 | 0x0166      |         358 |
|     437 | 0x017A      |         378 |
|     438 | 0x0182      |         386 |
|     439 | 0x0183      |         387 |
|     440 | 0x0192      |         402 |
|     441 | 0x01DF      |         479 |
|     442 | 0x01E9      |         489 |
|     443 | 0x001C      |          28 |
|     444 | 0x00E6      |         230 |
|     445 | 0x00EB      |         235 |
|     446 | 0x00F5      |         245 |
|     447 | 0x007F      |         127 |
|     448 | 0x00E9      |         233 |
|     449 | 0x009E      |         158 |
|     450 | 0x009D      |         157 |
|     451 | 0x00E2      |         226 |
|     452 | 0x00E1      |         225 |
|     453 | 0x014F      |         335 |
|     454 | 0x014E      |         334 |
|     455 | 0x0167      |         359 |
|     456 | 0x00E5      |         229 |
|     457 | 0x0169      |         361 |
|     458 | 0x016A      |         362 |
|     459 | 0x0133      |         307 |
|     460 | 0x0174      |         372 |
|     461 | 0x018C      |         396 |
|     462 | 0x0194      |         404 |
|     463 | 0x0195      |         405 |
|     464 | 0x0178      |         376 |
|     465 | 0x0240      |         576 |
|     466 | 0x0197      |         407 |
|     467 | 0x0198      |         408 |
|     468 | 0x01A3      |         419 |
|     469 | 0x019E      |         414 |
|     470 | 0x0246      |         582 |
|     471 | 0x0247      |         583 |
|     472 | 0x0248      |         584 |
|     473 | 0x024B      |         587 |
|     474 | 0x024A      |         586 |
|     475 | 0x024F      |         591 |
|     476 | 0x01C3      |         451 |
|     477 | 0x01C4      |         452 |
|     478 | 0x01EF      |         495 |
|     479 | 0x01F0      |         496 |
|     480 | 0x001A      |          26 |
|     481 | 0x0095      |         149 |
|     482 | 0x001D      |          29 |
|     483 | 0x0073      |         115 |
|     484 | 0x0024      |          36 |
|     485 | 0x005E      |          94 |
|     486 | 0x0072      |         114 |
|     487 | 0x003A      |          58 |
|     488 | 0x0016      |          22 |
|     489 | 0x0035      |          53 |
|     490 | 0x0085      |         133 |
|     491 | 0x0081      |         129 |
|     492 | 0x0023      |          35 |
|     493 | 0x0033      |          51 |
|     494 | 0x0082      |         130 |
|     495 | 0x0039      |          57 |
|     496 | 0x0083      |         131 |
|     497 | 0x00A2      |         162 |
|     498 | 0x0022      |          34 |
|     499 | 0x0021      |          33 |
|     500 | 0x0065      |         101 |
|     501 | 0x0086      |         134 |
|     502 | 0x0062      |          98 |
|     503 | 0x008D      |         141 |
|     504 | 0x008A      |         138 |
|     505 | 0x008B      |         139 |
|     506 | 0x002B      |          43 |
|     507 | 0x0067      |         103 |
|     508 | 0x002D      |          45 |
|     509 | 0x00A1      |         161 |
|     510 | 0x0066      |         102 |
|     511 | 0x0075      |         117 |
|     512 | 0x0068      |         104 |
|     513 | 0x0077      |         119 |
|     514 | 0x01FE      |         510 |
|     515 | 0x009F      |         159 |
|     516 | 0x00A4      |         164 |
|     517 | 0x00A9      |         169 |
|     518 | 0x00AC      |         172 |
|     519 | 0x00B2      |         178 |
|     520 | 0x00B0      |         176 |
|     521 | 0x013D      |         317 |
|     522 | 0x0108      |         264 |
|     523 | 0x010C      |         268 |
|     524 | 0x0100      |         256 |
|     525 | 0x00FB      |         251 |
|     526 | 0x011C      |         284 |
|     527 | 0x0041      |          65 |
|     528 | 0x0042      |          66 |
|     529 | 0x0047      |          71 |
|     530 | 0x0160      |         352 |
|     531 | 0x0043      |          67 |
|     532 | 0x004B      |          75 |
|     533 | 0x004C      |          76 |
|     534 | 0x005B      |          91 |
|     535 | 0x0058      |          88 |
|     536 | 0x0053      |          83 |
|     537 | 0x0054      |          84 |
|     538 | 0x0161      |         353 |
|     539 | 0x015C      |         348 |
|     540 | 0x016D      |         365 |
|     541 | 0x00C5      |         197 |
|     542 | 0x00C3      |         195 |
|     543 | 0x00C7      |         199 |
|     544 | 0x015E      |         350 |
|     545 | 0x00C4      |         196 |
|     546 | 0x016E      |         366 |
|     547 | 0x00D0      |         208 |
|     548 | 0x00CD      |         205 |
|     549 | 0x00CA      |         202 |
|     550 | 0x00D8      |         216 |
|     551 | 0x00D5      |         213 |
|     552 | 0x00D6      |         214 |
|     553 | 0x013B      |         315 |
|     554 | 0x0136      |         310 |
|     555 | 0x013A      |         314 |
|     556 | 0x0137      |         311 |
|     557 | 0x016F      |         367 |
|     558 | 0x0138      |         312 |
|     559 | 0x0139      |         313 |
|     560 | 0x009A      |         154 |
|     561 | 0x0091      |         145 |
|     562 | 0x009B      |         155 |
|     563 | 0x0099      |         153 |
|     564 | 0x0093      |         147 |
|     565 | 0x0092      |         146 |
|     566 | 0x0098      |         152 |
|     567 | 0x0071      |         113 |
|     568 | 0x00DD      |         221 |
|     569 | 0x00F8      |         248 |
|     570 | 0x00F1      |         241 |
|     571 | 0x0124      |         292 |
|     572 | 0x012E      |         302 |
|     573 | 0x0129      |         297 |
|     574 | 0x0122      |         290 |
|     575 | 0x0132      |         306 |
|     576 | 0x0126      |         294 |
|     577 | 0x0155      |         341 |
|     578 | 0x0025      |          37 |
|     579 | 0x0029      |          41 |
|     580 | 0x007D      |         125 |
|     581 | 0x0079      |         121 |
|     582 | 0x007C      |         124 |
|     583 | 0x0074      |         116 |
|     584 | 0x00EC      |         236 |
|     585 | 0x019C      |         412 |
|     586 | 0x0193      |         403 |
|     587 | 0x01C6      |         454 |
|     588 | 0x01C7      |         455 |
|     589 | 0x704D9     |      459993 |
|     590 | 0x1F146     |      127302 |
|     591 | 0x03FD      |        1021 |
|     592 | 0xFFFFF9A6  |  4294965670 |
|     593 | 0xFFFE96B0  |  4294874800 |
|     594 | 0xFFFF7B95  |  4294933397 |
|     595 | 0x0BA9      |        2985 |
|     596 | 0x00DF      |         223 |
|     597 | 0xFFFEA820  |  4294879264 |
|     598 | 0x0CF7      |        3319 |
|     599 | 0xFFFFFD34  |  4294966580 |
|     600 | 0xFFFECE42  |  4294889026 |
|     601 | 0xFFFF7C5C  |  4294933596 |
|     602 | 0x0C09      |        3081 |
|     603 | 0x0027      |          39 |
|     604 | 0xFFFFFD4E  |  4294966606 |
|     605 | 0xFFFEF152  |  4294898002 |
|     606 | 0xFFFFFBD1  |  4294966225 |
|     607 | 0xFFFEF8E0  |  4294899936 |
|     608 | 0x0C84      |        3204 |
|     609 | 0x1E51      |        7761 |
|     610 | 0x1E4E      |        7758 |
|     611 | 0x0046      |          70 |
|     612 | 0x70194     |      459156 |
|     613 | 0xFFFF075E  |  4294903646 |

## String References

- **186**: Use the device? [Yes./No.]
- **7635**: Which is real? [The one on the right./The one on the left.]
- **7715**: Which do you choose? [$0./$1./$2.]
- **7716**: Are you sure? [That's the one./No! Wait!]
- **7758**: Touch the crystal? [Yes./No.]
- **7761**: Touch the crystal? [Yes./No.]
- **11858**: @@
- **11868**: You are now able to enjoy a new storyline, Chains of Promathia.
- **11869**: Start Chains of Prromathia? [Yes (View cutscene)./Maybe later.]
- **11870**: Examine the Tales' Beginning in Lower Delkfutt's Tower (H-10) when you wish to start Chains of Promathia.

## Events

### Event 65535

#### Metadata

| Field        | Value   |
|--------------|---------|
| Entrypoint   | 0x0000  |
| Data Size    | 1 bytes |
| Instructions | 1       |

```
      00 01 02 03 04 05 06 07  08 09 0A 0B 0C 0D 0E 0F
      -- -- -- -- -- -- -- --  -- -- -- -- -- -- -- --
0000: 00                                                .               
```

#### Opcodes

```
  0: 0x0000 [0x00] END_REQSTACK()
```

### Event 65534

#### Metadata

| Field        | Value   |
|--------------|---------|
| Entrypoint   | 0x0001  |
| Data Size    | 1 bytes |
| Instructions | 1       |

```
      00 01 02 03 04 05 06 07  08 09 0A 0B 0C 0D 0E 0F
      -- -- -- -- -- -- -- --  -- -- -- -- -- -- -- --
0000:    00                                              .              
```

#### Opcodes

```
  0: 0x0001 [0x00] END_REQSTACK()
```

### Event 65535.1

#### Metadata

| Field        | Value   |
|--------------|---------|
| Entrypoint   | 0x0002  |
| Data Size    | 6 bytes |
| Instructions | 2       |

```
      00 01 02 03 04 05 06 07  08 09 0A 0B 0C 0D 0E 0F
      -- -- -- -- -- -- -- --  -- -- -- -- -- -- -- --
0000:       03 02 10 0B 7F 00                             ......        
```

#### Opcodes

```
  0: 0x0002 [0x03] Work_Zone[2] = (Entity->Render.Flags01 >> 25) & 1
  1: 0x0007 [0x00] END_REQSTACK()
```

### Event 65535.2

#### Metadata

| Field        | Value   |
|--------------|---------|
| Entrypoint   | 0x0008  |
| Data Size    | 6 bytes |
| Instructions | 2       |

```
      00 01 02 03 04 05 06 07  08 09 0A 0B 0C 0D 0E 0F
      -- -- -- -- -- -- -- --  -- -- -- -- -- -- -- --
0000:                          03 02 10 07 7F 00                ......  
```

#### Opcodes

```
  0: 0x0008 [0x03] Work_Zone[2] = Entity->Race
  1: 0x000D [0x00] END_REQSTACK()
```

### Event 65535.3

#### Metadata

| Field        | Value   |
|--------------|---------|
| Entrypoint   | 0x000E  |
| Data Size    | 6 bytes |
| Instructions | 2       |

```
      00 01 02 03 04 05 06 07  08 09 0A 0B 0C 0D 0E 0F
      -- -- -- -- -- -- -- --  -- -- -- -- -- -- -- --
0000:                                            03 09                ..
0010: 10 07 7F 00                                       ....            
```

#### Opcodes

```
  0: 0x000E [0x03] Work_Zone[9] = Entity->Race
  1: 0x0013 [0x00] END_REQSTACK()
```

### Event 65535.4

#### Metadata

| Field        | Value   |
|--------------|---------|
| Entrypoint   | 0x0014  |
| Data Size    | 6 bytes |
| Instructions | 2       |

```
      00 01 02 03 04 05 06 07  08 09 0A 0B 0C 0D 0E 0F
      -- -- -- -- -- -- -- --  -- -- -- -- -- -- -- --
0010:             03 02 10 06  7F 00                        ......      
```

#### Opcodes

```
  0: 0x0014 [0x03] Work_Zone[2] = Entity->JobId (if LocalPlayer)
  1: 0x0019 [0x00] END_REQSTACK()
```

### Event 65535.5

#### Metadata

| Field        | Value   |
|--------------|---------|
| Entrypoint   | 0x001A  |
| Data Size    | 6 bytes |
| Instructions | 2       |

```
      00 01 02 03 04 05 06 07  08 09 0A 0B 0C 0D 0E 0F
      -- -- -- -- -- -- -- --  -- -- -- -- -- -- -- --
0010:                                03 08 10 07 7F 00            ......
```

#### Opcodes

```
  0: 0x001A [0x03] Work_Zone[8] = Entity->Race
  1: 0x001F [0x00] END_REQSTACK()
```

### Event 65535.6

#### Metadata

| Field        | Value    |
|--------------|----------|
| Entrypoint   | 0x0020   |
| Data Size    | 10 bytes |
| Instructions | 2        |

```
      00 01 02 03 04 05 06 07  08 09 0A 0B 0C 0D 0E 0F
      -- -- -- -- -- -- -- --  -- -- -- -- -- -- -- --
0020: 37 00 80 01 80 02 80 03  80 00                    7.........      
```

#### Opcodes

```
  0: 0x0020 [0x37] UPDATE_EVENT_POSITION_AND_DIR: x=503.387*, z=96.014*, y=24.018*, direction=123.7°*
  1: 0x0029 [0x00] END_REQSTACK()
```

### Event 65535.7

#### Metadata

| Field        | Value    |
|--------------|----------|
| Entrypoint   | 0x002A   |
| Data Size    | 23 bytes |
| Instructions | 5        |

```
      00 01 02 03 04 05 06 07  08 09 0A 0B 0C 0D 0E 0F
      -- -- -- -- -- -- -- --  -- -- -- -- -- -- -- --
0020:                                37 04 80 05 80 06            7.....
0030: 80 07 80 32 08 80 1F 00  09 80 0A 80 0B 80 1F 01  ...2............
0040: 00                                                .               
```

#### Opcodes

```
  0: 0x002A [0x37] UPDATE_EVENT_POSITION_AND_DIR: x=460.001*, z=-110.716*, y=1.125*, direction=277.5°*
  1: 0x0033 [0x32] ExtData[1]->MainSpeed = 40* * 0.1
  2: 0x0036 [0x1F] MOVE_ENTITY: EventEntity moves to X=459.989*, Z=-103.362*, Y=0.000*
  3: 0x003E [0x1F] MOVE_ENTITY: Update entity position (mode=1)
  4: 0x0040 [0x00] END_REQSTACK()
```

### Event 22

#### Metadata

| Field        | Value      |
|--------------|------------|
| Entrypoint   | 0x0041     |
| Data Size    | 1057 bytes |
| Instructions | 162        |

```
      00 01 02 03 04 05 06 07  08 09 0A 0B 0C 0D 0E 0F
      -- -- -- -- -- -- -- --  -- -- -- -- -- -- -- --
0040:    20 01 46 01 42 45 0C  80 F0 FF FF 7F F0 FF FF    .F.BE.........
0050: 7F 66 64 6F 31 0B 80 55  0C 80 F0 FF FF 7F F0 FF  .fdo1..U........
0060: FF 7F 66 64 6F 31 43 00  43 01 03 06 00 02 10 03  ..fdo1C.C.......
0070: 07 00 04 10 02 05 10 0B  80 00 E6 00 48 0D 80 24  ............H..$
0080: 0E 80 0F 80 0B 80 25 02  00 10 0B 80 00 92 00 01  ......%.........
0090: E6 00 02 00 10 0F 80 00  E6 00 03 01 10 0B 80 02  ................
00A0: 07 00 0F 80 00 CA 00 8D  10 80 0F 80 1C 11 80 B8  ................
00B0: 10 80 0F 80 12 80 13 80  14 80 54 61 6C 65 73 27  ..........Tales'
00C0: 42 65 67 69 6E 6E 69 6E  67 00 48 15 80 23 1C 16  Beginning.H..#..
00D0: 80 02 07 00 0F 80 00 DA  00 8A 1C 11 80 48 17 80  .............H..
00E0: 01 44 04 01 E6 00 03 01  10 0F 80 34 18 80 1C 19  .D.........4....
00F0: 80 80 22 81 0B 01 80 25  81 0B 01 80 26 81 0B 01  .."....%....&...
0100: 80 27 81 0B 01 80 28 81  0B 01 80 29 81 0B 01 80  .'....(....)....
0110: 2A 81 0B 01 80 2B 81 0B  01 80 2C 81 0B 01 80 2D  *....+....,....-
0120: 81 0B 01 80 2E 81 0B 01  38 1A 80 37 1B 80 1C 80  ........8..7....
0130: 1D 80 1E 80 97 0B 80 0F  80 AB 09 77 1F 80 20 80  ...........w.. .
0140: 4E 01 F0 FF FF 7F 4E 00  22 81 0B 01 4E 00 25 81  N.....N."...N.%.
0150: 0B 01 4E 00 26 81 0B 01  4E 00 27 81 0B 01 4E 00  ..N.&...N.'...N.
0160: 28 81 0B 01 4E 00 29 81  0B 01 4E 00 2A 81 0B 01  (...N.)...N.*...
0170: 4E 00 2B 81 0B 01 4E 00  2C 81 0B 01 4E 00 2D 81  N.+...N.,...N.-.
0180: 0B 01 4E 00 2E 81 0B 01  5C 00 21 80 5C 01 21 80  ..N.....\.!.\.!.
0190: 9A 45 22 80 F0 FF FF 7F  F0 FF FF 7F 7A 30 30 62  .E".........z00b
01A0: 0B 80 45 0C 80 F0 FF FF  7F F0 FF FF 7F 66 64 69  ..E..........fdi
01B0: 31 0B 80 55 22 80 F0 FF  FF 7F F0 FF FF 7F 7A 30  1..U".........z0
01C0: 30 62 45 0C 80 F0 FF FF  7F F0 FF FF 7F 6F 76 6C  0bE..........ovl
01D0: 31 0B 80 45 22 80 F0 FF  FF 7F F0 FF FF 7F 7A 30  1..E".........z0
01E0: 30 61 0B 80 55 22 80 F0  FF FF 7F F0 FF FF 7F 7A  0a..U".........z
01F0: 30 30 61 45 0C 80 F0 FF  FF 7F F0 FF FF 7F 6F 76  00aE..........ov
0200: 6C 31 0B 80 45 22 80 F0  FF FF 7F F0 FF FF 7F 7A  l1..E".........z
0210: 30 30 63 0B 80 1C 23 80  5D 0B 80 24 80 1C 25 80  00c...#.]..$..%.
0220: 9C 05 00 02 05 00 0F 80  00 31 02 7D 26 80 01 34  .........1.}&..4
0230: 02 7D 27 80 1C 28 80 5C  00 29 80 5C 01 29 80 9A  .}'..(.\.).\.)..
0240: 27 03 25 81 0B 01 04 27  03 29 81 0B 01 04 27 03  '.%....'.)....'.
0250: 27 81 0B 01 04 27 03 2B  81 0B 01 02 27 03 2C 81  '....'.+....'.,.
0260: 0B 01 02 27 03 2E 81 0B  01 02 1C 2A 80 55 22 80  ...'.......*.U".
0270: F0 FF FF 7F F0 FF FF 7F  7A 30 30 63 45 0C 80 F0  ........z00cE...
0280: FF FF 7F F0 FF FF 7F 6F  76 6C 31 0B 80 45 2B 80  .......ovl1..E+.
0290: F0 FF FF 7F F0 FF FF 7F  62 6C 6F 6E 0B 80 45 22  ........blon..E"
02A0: 80 F0 FF FF 7F F0 FF FF  7F 7A 30 30 33 0B 80 55  .........z003..U
02B0: 22 80 F0 FF FF 7F F0 FF  FF 7F 7A 30 30 33 45 22  ".........z003E"
02C0: 80 F0 FF FF 7F F0 FF FF  7F 7A 30 30 30 0B 80 45  .........z000..E
02D0: 2B 80 F0 FF FF 7F F0 FF  FF 7F 62 61 73 68 0B 80  +.........bash..
02E0: 55 22 80 F0 FF FF 7F F0  FF FF 7F 7A 30 30 30 4B  U".........z000K
02F0: 22 81 0B 01 19 80 1C 2C  80 45 0C 80 F0 FF FF 7F  "......,.E......
0300: F0 FF FF 7F 6F 76 6C 31  0B 80 45 0C 80 F0 FF FF  ....ovl1..E.....
0310: 7F F0 FF FF 7F 62 6C 6F  66 0B 80 45 22 80 F0 FF  .....blof..E"...
0320: FF 7F F0 FF FF 7F 7A 30  30 31 0B 80 55 22 80 F0  ......z001..U"..
0330: FF FF 7F F0 FF FF 7F 7A  30 30 31 6F 76 22 81 0B  .......z001ov"..
0340: 01 2B 22 81 0B 01 2D 80  23 4B 22 81 0B 01 2E 80  .+"...-.#K".....
0350: 1C 2A 80 6F 76 22 81 0B  01 1C 2A 80 27 03 22 81  .*.ov"....*.'.".
0360: 0B 01 04 1C 2F 80 45 22  80 F0 FF FF 7F F0 FF FF  ..../.E"........
0370: 7F 7A 30 30 32 0B 80 1C  30 80 02 05 00 0F 80 80  .z002...0.......
0380: 88 03 7D 31 80 01 B2 03  02 05 00 32 80 80 96 03  ..}1.......2....
0390: 7D 33 80 01 B2 03 02 05  00 34 80 80 A4 03 7D 35  }3.......4....}5
03A0: 80 01 B2 03 02 05 00 36  80 80 B2 03 7D 37 80 01  .......6....}7..
03B0: B2 03 1C 38 80 55 22 80  F0 FF FF 7F F0 FF FF 7F  ...8.U".........
03C0: 7A 30 30 32 45 0C 80 F0  FF FF 7F F0 FF FF 7F 66  z002E..........f
03D0: 64 6F 32 0B 80 55 0C 80  F0 FF FF 7F F0 FF FF 7F  do2..U..........
03E0: 66 64 6F 32 4E 01 22 81  0B 01 4E 01 25 81 0B 01  fdo2N."...N.%...
03F0: 4E 01 26 81 0B 01 4E 01  27 81 0B 01 4E 01 28 81  N.&...N.'...N.(.
0400: 0B 01 4E 01 29 81 0B 01  4E 01 2A 81 0B 01 4E 01  ..N.)...N.*...N.
0410: 2B 81 0B 01 4E 01 2C 81  0B 01 4E 01 2D 81 0B 01  +...N.,...N.-...
0420: 4E 01 2E 81 0B 01 1C 2C  80 AB 11 0B 80 1C 0F 80  N......,........
0430: 35 10 80 78 1C 2C 80 AB  0A 02 06 00 0B 80 00 44  5..x.,.........D
0440: 04 30 21 00 5C 00 0B 80  5C 01 0B 80 9A 46 00 45  .0!.\...\....F.E
0450: 0C 80 F0 FF FF 7F F0 FF  FF 7F 66 64 69 32 0B 80  ..........fdi2..
0460: 21 00                                             !.              
```

#### Opcodes

```
  0: 0x0041 [0x20] SET_CLI_EVENT_UC_FLAG: Lock player control
  1: 0x0043 [0x46] CAMERA_CONTROL: Disable user control
  2: 0x0045 [0x42] SET_CLI_EVENT_CANCEL_DATA()
  3: 0x0046 [0x45] LOAD_SCHEDULED_TASK: Load scheduler "fdo1" with entities [LocalPlayer, LocalPlayer], work=[200*, 0*]
  4: 0x0057 [0x55] WAIT_LOAD_SCHEDULER: Wait for scheduler "fdo1" with entities [LocalPlayer, LocalPlayer], work=200*
  5: 0x0066 [0x43] SEND_EVENT_UPDATE: Send pending tag to server (packet 0x005B)
  6: 0x0068 [0x43] SEND_EVENT_UPDATE: Check pending flag (skip if not pending)
  7: 0x006A [0x03] ExtData[1]->WorkLocal[6] = Work_Zone[2]
  8: 0x006F [0x03] ExtData[1]->WorkLocal[7] = Work_Zone[4]
  9: 0x0074 [0x02] IF !(Work_Zone[5] == 0*) GOTO 0x00E6
 10: 0x007C [0x48] [System] [11868*]:
    → "You are now able to enjoy a new storyline, Chains of Promathia."
 11: 0x007F [0x24] CREATE_DIALOG(message_id=11869*, default_option=1*, option_flags=0*)
    → "Start Chains of Prromathia? [Yes (View cutscene)./Maybe later.]"
 12: 0x0086 [0x25] WAIT_DIALOG_SELECT()
 13: 0x0087 [0x02] IF !(Work_Zone[0] == 0*) GOTO 0x0092
 14: 0x008F [0x01] GOTO 0x00E6
 15: 0x0092 [0x02] IF !(Work_Zone[0] == 1*) GOTO 0x00E6
 16: 0x009A [0x03] Work_Zone[1] = 0*
 17: 0x009F [0x02] IF !(ExtData[1]->WorkLocal[7] == 1*) GOTO 0x00CA
 18: 0x00A7 [0x8D] OPEN_MAP_WITH_PROPERTIES(map_id=184*, properties=1*)
 19: 0x00AC [0x1C] WAIT(30* ticks)
 20: 0x00AF [0xB8] MAP_ADD_MARKER_WITH_NAME(zone=184*, submap=1*, marker_id=9*, x_pos=465.164*, y_pos=-65.091*, marker_name="Tales'Beginning")
 21: 0x00CA [0x48] [System] [11870*]:
    → "Examine the Tales' Beginning in Lower Delkfutt's Tower (H-10) when you wish to start Chains of Promathia."
 22: 0x00CD [0x23] WAIT_FOR_DIALOG_INTERACTION
 23: 0x00CE [0x1C] WAIT(160* ticks)
 24: 0x00D1 [0x02] IF !(ExtData[1]->WorkLocal[7] == 1*) GOTO 0x00DA
 25: 0x00D9 [0x8A] CLOSE_MAP()
 26: 0x00DA [0x1C] WAIT(30* ticks)
 27: 0x00DD [0x48] [System] [11858*]:
    → "@@"
 28: 0x00E0 [0x01] GOTO 0x0444

SUBROUTINE_00E6:
 29: 0x00E6 [0x03] Work_Zone[1] = 1*
 30: 0x00EB [0x34] LOAD_UNLOAD_ZONE(zone_id=126*)
 31: 0x00EE [0x1C] WAIT(100* ticks)
 32: 0x00F1 [0x80] LOAD_WAIT(entity=Wolfgang (ID: 17531170/0x010B8122))
 33: 0x00F6 [0x80] LOAD_WAIT(entity=Pherimociel (ID: 17531173/0x010B8125))
 34: 0x00FB [0x80] LOAD_WAIT(entity=Neraf-Najiruf (ID: 17531174/0x010B8126))
 35: 0x0100 [0x80] LOAD_WAIT(entity=Auchefort (ID: 17531175/0x010B8127))
 36: 0x0105 [0x80] LOAD_WAIT(entity=Chapi Galepilai (ID: 17531176/0x010B8128))
 37: 0x010A [0x80] LOAD_WAIT(entity=Crooked Arrow (ID: 17531177/0x010B8129))
 38: 0x010F [0x80] LOAD_WAIT(entity=Unnamed NPC (ID: 17531178/0x010B812A))
 39: 0x0114 [0x80] LOAD_WAIT(entity=Unnamed NPC (ID: 17531179/0x010B812B))
 40: 0x0119 [0x80] LOAD_WAIT(entity=Unnamed NPC (ID: 17531180/0x010B812C))
 41: 0x011E [0x80] LOAD_WAIT(entity=Unnamed NPC (ID: 17531181/0x010B812D))
 42: 0x0123 [0x80] LOAD_WAIT(entity=Unnamed NPC (ID: 17531182/0x010B812E))
 43: 0x0128 [0x38] SET_CLIENT_EVENT_MODE(mode=19*)
 44: 0x012B [0x37] UPDATE_EVENT_POSITION_AND_DIR: x=171.932*, z=-22.578*, y=-20.147*, direction=180.5°*
 45: 0x0134 [0x97] SAVE_SET_WIND_VALUES(wind_base=0x800B, wind_width=0x800F)
 46: 0x0139 [0xAB] EventEntity->UnknownFlag = 1 // Enable unknown flag
 47: 0x013B [0x77] SET_EVENT_TIME_WEATHER(hour=255*, weather=14*)
 48: 0x0140 [0x4E] SET_ENTITY_HIDE_FLAG: Hide LocalPlayer
 49: 0x0146 [0x4E] SET_ENTITY_HIDE_FLAG: Show Wolfgang (ID: 17531170/0x010B8122)
 50: 0x014C [0x4E] SET_ENTITY_HIDE_FLAG: Show Pherimociel (ID: 17531173/0x010B8125)
 51: 0x0152 [0x4E] SET_ENTITY_HIDE_FLAG: Show Neraf-Najiruf (ID: 17531174/0x010B8126)
 52: 0x0158 [0x4E] SET_ENTITY_HIDE_FLAG: Show Auchefort (ID: 17531175/0x010B8127)
 53: 0x015E [0x4E] SET_ENTITY_HIDE_FLAG: Show Chapi Galepilai (ID: 17531176/0x010B8128)
 54: 0x0164 [0x4E] SET_ENTITY_HIDE_FLAG: Show Crooked Arrow (ID: 17531177/0x010B8129)
 55: 0x016A [0x4E] SET_ENTITY_HIDE_FLAG: Show Unnamed NPC (ID: 17531178/0x010B812A)
 56: 0x0170 [0x4E] SET_ENTITY_HIDE_FLAG: Show Unnamed NPC (ID: 17531179/0x010B812B)
 57: 0x0176 [0x4E] SET_ENTITY_HIDE_FLAG: Show Unnamed NPC (ID: 17531180/0x010B812C)
 58: 0x017C [0x4E] SET_ENTITY_HIDE_FLAG: Show Unnamed NPC (ID: 17531181/0x010B812D)
 59: 0x0182 [0x4E] SET_ENTITY_HIDE_FLAG: Show Unnamed NPC (ID: 17531182/0x010B812E)
 60: 0x0188 [0x5C] MUSIC_CONTROL: Set Idle (Day) music to song 243*
 61: 0x018C [0x5C] MUSIC_CONTROL: Set Idle (Night) music to song 243*
 62: 0x0190 [0x9A] WAIT_MUSIC_SERVER()
 63: 0x0191 [0x45] LOAD_SCHEDULED_TASK: Load scheduler "z00b" with entities [LocalPlayer, LocalPlayer], work=[56*, 0*]
 64: 0x01A2 [0x45] LOAD_SCHEDULED_TASK: Load scheduler "fdi1" with entities [LocalPlayer, LocalPlayer], work=[200*, 0*]
 65: 0x01B3 [0x55] WAIT_LOAD_SCHEDULER: Wait for scheduler "z00b" with entities [LocalPlayer, LocalPlayer], work=56*
 66: 0x01C2 [0x45] LOAD_SCHEDULED_TASK: Load scheduler "ovl1" with entities [LocalPlayer, LocalPlayer], work=[200*, 0*]
 67: 0x01D3 [0x45] LOAD_SCHEDULED_TASK: Load scheduler "z00a" with entities [LocalPlayer, LocalPlayer], work=[56*, 0*]
 68: 0x01E4 [0x55] WAIT_LOAD_SCHEDULER: Wait for scheduler "z00a" with entities [LocalPlayer, LocalPlayer], work=56*
 69: 0x01F3 [0x45] LOAD_SCHEDULED_TASK: Load scheduler "ovl1" with entities [LocalPlayer, LocalPlayer], work=[200*, 0*]
 70: 0x0204 [0x45] LOAD_SCHEDULED_TASK: Load scheduler "z00c" with entities [LocalPlayer, LocalPlayer], work=[56*, 0*]
 71: 0x0215 [0x1C] WAIT(90* ticks)
 72: 0x0218 [0x5D] SET_MUSIC_VOLUME(volume=0*, fade_time=500*)
 73: 0x021D [0x1C] WAIT(150* ticks)
 74: 0x0220 [0x9C] STORE_CLIENT_LANGUAGE_ID(result=0x05)
 75: 0x0223 [0x02] IF !(ExtData[1]->WorkLocal[5] == 1*) GOTO 0x0231
 76: 0x022B [0x7D] LOAD_START_SCHEDULER_PLAYER: Load scheduler with animation_id 32806
 77: 0x022E [0x01] GOTO 0x0234
 78: 0x0231 [0x7D] LOAD_START_SCHEDULER_PLAYER: Load scheduler with animation_id 32807

SUBROUTINE_0234:
 79: 0x0234 [0x1C] WAIT(360* ticks)
 80: 0x0237 [0x5C] MUSIC_CONTROL: Set Idle (Day) music to song 218*
 81: 0x023B [0x5C] MUSIC_CONTROL: Set Idle (Night) music to song 218*
 82: 0x023F [0x9A] WAIT_MUSIC_SERVER()
 83: 0x0240 [0x27] REQ_SET(priority=0x03, entity_id=Pherimociel (ID: 17531173/0x010B8125), tag_num=0x04)
 84: 0x0247 [0x27] REQ_SET(priority=0x03, entity_id=Crooked Arrow (ID: 17531177/0x010B8129), tag_num=0x04)
 85: 0x024E [0x27] REQ_SET(priority=0x03, entity_id=Auchefort (ID: 17531175/0x010B8127), tag_num=0x04)
 86: 0x0255 [0x27] REQ_SET(priority=0x03, entity_id=Unnamed NPC (ID: 17531179/0x010B812B), tag_num=0x02)
 87: 0x025C [0x27] REQ_SET(priority=0x03, entity_id=Unnamed NPC (ID: 17531180/0x010B812C), tag_num=0x02)
 88: 0x0263 [0x27] REQ_SET(priority=0x03, entity_id=Unnamed NPC (ID: 17531182/0x010B812E), tag_num=0x02)
 89: 0x026A [0x1C] WAIT(10* ticks)
 90: 0x026D [0x55] WAIT_LOAD_SCHEDULER: Wait for scheduler "z00c" with entities [LocalPlayer, LocalPlayer], work=56*
 91: 0x027C [0x45] LOAD_SCHEDULED_TASK: Load scheduler "ovl1" with entities [LocalPlayer, LocalPlayer], work=[200*, 0*]
 92: 0x028D [0x45] LOAD_SCHEDULED_TASK: Load scheduler "blon" with entities [LocalPlayer, LocalPlayer], work=[108*, 0*]
 93: 0x029E [0x45] LOAD_SCHEDULED_TASK: Load scheduler "z003" with entities [LocalPlayer, LocalPlayer], work=[56*, 0*]
 94: 0x02AF [0x55] WAIT_LOAD_SCHEDULER: Wait for scheduler "z003" with entities [LocalPlayer, LocalPlayer], work=56*
 95: 0x02BE [0x45] LOAD_SCHEDULED_TASK: Load scheduler "z000" with entities [LocalPlayer, LocalPlayer], work=[56*, 0*]
 96: 0x02CF [0x45] LOAD_SCHEDULED_TASK: Load scheduler "bash" with entities [LocalPlayer, LocalPlayer], work=[108*, 0*]
 97: 0x02E0 [0x55] WAIT_LOAD_SCHEDULER: Wait for scheduler "z000" with entities [LocalPlayer, LocalPlayer], work=56*
 98: 0x02EF [0x4B] UPDATE_ENTITY_YAW(entity=Wolfgang (ID: 17531170/0x010B8122), yaw=0.5°*)
 99: 0x02F6 [0x1C] WAIT(15* ticks)
100: 0x02F9 [0x45] LOAD_SCHEDULED_TASK: Load scheduler "ovl1" with entities [LocalPlayer, LocalPlayer], work=[200*, 0*]
101: 0x030A [0x45] LOAD_SCHEDULED_TASK: Load scheduler "blof" with entities [LocalPlayer, LocalPlayer], work=[200*, 0*]
102: 0x031B [0x45] LOAD_SCHEDULED_TASK: Load scheduler "z001" with entities [LocalPlayer, LocalPlayer], work=[56*, 0*]
103: 0x032C [0x55] WAIT_LOAD_SCHEDULER: Wait for scheduler "z001" with entities [LocalPlayer, LocalPlayer], work=56*
104: 0x033B [0x6F] WAIT_FRAME_DELAY: Yield until WaitTime reaches zero
105: 0x033C [0x76] CHECK_ENTITY_RENDER_FLAGS: Wait until Wolfgang (ID: 17531170/0x010B8122) Render.Flags0 and Render.Flags3 conditions are met
106: 0x0341 [0x2B] Wolfgang (ID: 17531170/0x010B8122) [7372*]:
    → "Listen up, adventurers! You are to keep clear of Delkfutt's Tower! That's an order!"
107: 0x0348 [0x23] WAIT_FOR_DIALOG_INTERACTION
108: 0x0349 [0x4B] UPDATE_ENTITY_YAW(entity=Wolfgang (ID: 17531170/0x010B8122), yaw=11.2°*)
109: 0x0350 [0x1C] WAIT(10* ticks)
110: 0x0353 [0x6F] WAIT_FRAME_DELAY: Yield until WaitTime reaches zero
111: 0x0354 [0x76] CHECK_ENTITY_RENDER_FLAGS: Wait until Wolfgang (ID: 17531170/0x010B8122) Render.Flags0 and Render.Flags3 conditions are met
112: 0x0359 [0x1C] WAIT(10* ticks)
113: 0x035C [0x27] REQ_SET(priority=0x03, entity_id=Wolfgang (ID: 17531170/0x010B8122), tag_num=0x04)
114: 0x0363 [0x1C] WAIT(60* ticks)
115: 0x0366 [0x45] LOAD_SCHEDULED_TASK: Load scheduler "z002" with entities [LocalPlayer, LocalPlayer], work=[56*, 0*]
116: 0x0377 [0x1C] WAIT(240* ticks)
117: 0x037A [0x02] IF !(ExtData[1]->WorkLocal[5] == 1*) GOTO 0x0388
118: 0x0382 [0x7D] LOAD_START_SCHEDULER_PLAYER: Load scheduler with animation_id 32817
119: 0x0385 [0x01] GOTO 0x03B2
120: 0x0388 [0x02] IF !(ExtData[1]->WorkLocal[5] == 2*) GOTO 0x0396
121: 0x0390 [0x7D] LOAD_START_SCHEDULER_PLAYER: Load scheduler with animation_id 32819
122: 0x0393 [0x01] GOTO 0x03B2
123: 0x0396 [0x02] IF !(ExtData[1]->WorkLocal[5] == 3*) GOTO 0x03A4
124: 0x039E [0x7D] LOAD_START_SCHEDULER_PLAYER: Load scheduler with animation_id 32821
125: 0x03A1 [0x01] GOTO 0x03B2
126: 0x03A4 [0x02] IF !(ExtData[1]->WorkLocal[5] == 4*) GOTO 0x03B2
127: 0x03AC [0x7D] LOAD_START_SCHEDULER_PLAYER: Load scheduler with animation_id 32823
128: 0x03AF [0x01] GOTO 0x03B2

SUBROUTINE_03B2:
129: 0x03B2 [0x1C] WAIT(420* ticks)
130: 0x03B5 [0x55] WAIT_LOAD_SCHEDULER: Wait for scheduler "z002" with entities [LocalPlayer, LocalPlayer], work=56*
131: 0x03C4 [0x45] LOAD_SCHEDULED_TASK: Load scheduler "fdo2" with entities [LocalPlayer, LocalPlayer], work=[200*, 0*]
132: 0x03D5 [0x55] WAIT_LOAD_SCHEDULER: Wait for scheduler "fdo2" with entities [LocalPlayer, LocalPlayer], work=200*
133: 0x03E4 [0x4E] SET_ENTITY_HIDE_FLAG: Hide Wolfgang (ID: 17531170/0x010B8122)
134: 0x03EA [0x4E] SET_ENTITY_HIDE_FLAG: Hide Pherimociel (ID: 17531173/0x010B8125)
135: 0x03F0 [0x4E] SET_ENTITY_HIDE_FLAG: Hide Neraf-Najiruf (ID: 17531174/0x010B8126)
136: 0x03F6 [0x4E] SET_ENTITY_HIDE_FLAG: Hide Auchefort (ID: 17531175/0x010B8127)
137: 0x03FC [0x4E] SET_ENTITY_HIDE_FLAG: Hide Chapi Galepilai (ID: 17531176/0x010B8128)
138: 0x0402 [0x4E] SET_ENTITY_HIDE_FLAG: Hide Crooked Arrow (ID: 17531177/0x010B8129)
139: 0x0408 [0x4E] SET_ENTITY_HIDE_FLAG: Hide Unnamed NPC (ID: 17531178/0x010B812A)
140: 0x040E [0x4E] SET_ENTITY_HIDE_FLAG: Hide Unnamed NPC (ID: 17531179/0x010B812B)
141: 0x0414 [0x4E] SET_ENTITY_HIDE_FLAG: Hide Unnamed NPC (ID: 17531180/0x010B812C)
142: 0x041A [0x4E] SET_ENTITY_HIDE_FLAG: Hide Unnamed NPC (ID: 17531181/0x010B812D)
143: 0x0420 [0x4E] SET_ENTITY_HIDE_FLAG: Hide Unnamed NPC (ID: 17531182/0x010B812E)
144: 0x0426 [0x1C] WAIT(15* ticks)
145: 0x0429 [0xAB] EventEntity->DespawnValue = 0* // Set despawn value
146: 0x042D [0x1C] WAIT(1* ticks)
147: 0x0430 [0x35] LOAD_ZONE_NO_CLOSE(zone_id=184*)
148: 0x0433 [0x78] ENABLE_GAME_TIMER_RESET_WEATHER()
149: 0x0434 [0x1C] WAIT(15* ticks)
150: 0x0437 [0xAB] EventEntity->UnknownFlag = 0 // Disable unknown flag
151: 0x0439 [0x02] IF !(ExtData[1]->WorkLocal[6] == 0*) GOTO 0x0444
152: 0x0441 [0x30] SET_UCOFF_CONTINUE_ZERO()
153: 0x0442 [0x21] END_EVENT
154: 0x0443 [0x00] END_REQSTACK()

SUBROUTINE_0444:
155: 0x0444 [0x5C] MUSIC_CONTROL: Set Idle (Day) music to song 0*
156: 0x0448 [0x5C] MUSIC_CONTROL: Set Idle (Night) music to song 0*
157: 0x044C [0x9A] WAIT_MUSIC_SERVER()
158: 0x044D [0x46] CAMERA_CONTROL: Restore default settings
159: 0x044F [0x45] LOAD_SCHEDULED_TASK: Load scheduler "fdi2" with entities [LocalPlayer, LocalPlayer], work=[200*, 0*]
160: 0x0460 [0x21] END_EVENT
161: 0x0461 [0x00] END_REQSTACK()
```

#### Data or dead code:

```
# Dead code (unreachable instructions):
     0x00E3 [0x01] GOTO 0x00E6
```

### Event 36

#### Metadata

| Field        | Value     |
|--------------|-----------|
| Entrypoint   | 0x0462    |
| Data Size    | 952 bytes |
| Instructions | 114       |

```
      00 01 02 03 04 05 06 07  08 09 0A 0B 0C 0D 0E 0F
      -- -- -- -- -- -- -- --  -- -- -- -- -- -- -- --
0460:       20 01 46 01 42 45  0C 80 F0 FF FF 7F F0 FF     .F.BE........
0470: FF 7F 66 64 6F 31 0B 80  55 0C 80 F0 FF FF 7F F0  ..fdo1..U.......
0480: FF FF 7F 66 64 6F 31 38  1A 80 43 00 43 01 03 06  ...fdo18..C.C...
0490: 00 02 10 5C 00 29 80 5C  01 29 80 9A 34 39 80 1C  ...\.).\.)..49..
04A0: 19 80 45 22 80 F0 FF FF  7F F0 FF FF 7F 78 30 30  ..E".........x00
04B0: 31 0B 80 55 22 80 F0 FF  FF 7F F0 FF FF 7F 78 30  1..U".........x0
04C0: 30 31 45 22 80 F0 FF FF  7F F0 FF FF 7F 73 30 33  01E".........s03
04D0: 39 0B 80 80 30 81 0B 01  80 31 81 0B 01 80 32 81  9...0....1....2.
04E0: 0B 01 80 33 81 0B 01 80  34 81 0B 01 80 35 81 0B  ...3....4....5..
04F0: 01 4E 00 30 81 0B 01 4E  00 31 81 0B 01 4E 00 32  .N.0...N.1...N.2
0500: 81 0B 01 4E 00 33 81 0B  01 4E 00 34 81 0B 01 4E  ...N.3...N.4...N
0510: 00 35 81 0B 01 27 03 30  81 0B 01 02 27 03 31 81  .5...'.0....'.1.
0520: 0B 01 02 27 03 32 81 0B  01 02 27 03 33 81 0B 01  ...'.2....'.3...
0530: 02 27 03 34 81 0B 01 02  27 03 35 81 0B 01 02 29  .'.4....'.5....)
0540: 03 30 81 0B 01 04 77 1F  80 0B 80 45 2B 80 F0 FF  .0....w....E+...
0550: FF 7F F0 FF FF 7F 62 6C  6F 6E 0B 80 45 22 80 F0  ......blon..E"..
0560: FF FF 7F F0 FF FF 7F 78  30 30 30 0B 80 45 0C 80  .......x000..E..
0570: F0 FF FF 7F F0 FF FF 7F  66 64 69 31 0B 80 55 0C  ........fdi1..U.
0580: 80 F0 FF FF 7F F0 FF FF  7F 66 64 69 31 45 2B 80  .........fdi1E+.
0590: F0 FF FF 7F F0 FF FF 7F  62 61 73 68 0B 80 55 22  ........bash..U"
05A0: 80 F0 FF FF 7F F0 FF FF  7F 78 30 30 30 1C 3A 80  .........x000.:.
05B0: 45 0C 80 F0 FF FF 7F F0  FF FF 7F 6F 76 6C 31 0B  E..........ovl1.
05C0: 80 45 0C 80 F0 FF FF 7F  F0 FF FF 7F 62 6C 6F 66  .E..........blof
05D0: 0B 80 45 22 80 F0 FF FF  7F F0 FF FF 7F 78 30 30  ..E".........x00
05E0: 32 0B 80 27 03 30 81 0B  01 05 55 22 80 F0 FF FF  2..'.0....U"....
05F0: 7F F0 FF FF 7F 78 30 30  32 2B 30 81 0B 01 3B 80  .....x002+0...;.
0600: 23 2B 31 81 0B 01 3C 80  23 1C 2C 80 45 2B 80 F0  #+1...<.#.,.E+..
0610: FF FF 7F F0 FF FF 7F 77  68 6F 33 0B 80 45 2B 80  .......who3..E+.
0620: F0 FF FF 7F F0 FF FF 7F  70 61 73 68 0B 80 55 2B  ........pash..U+
0630: 80 F0 FF FF 7F F0 FF FF  7F 77 68 6F 33 1C 3D 80  .........who3.=.
0640: 77 1F 80 3E 80 45 22 80  F0 FF FF 7F F0 FF FF 7F  w..>.E".........
0650: 73 30 34 30 0B 80 2D F8  FF FF 7F F8 FF FF 7F 6D  s040..-........m
0660: 61 69 6E 45 22 80 F0 FF  FF 7F F0 FF FF 7F 78 30  ainE".........x0
0670: 30 33 0B 80 45 3F 80 F0  FF FF 7F F0 FF FF 7F 77  03..E?.........w
0680: 68 69 31 0B 80 27 03 30  81 0B 01 03 27 03 31 81  hi1..'.0....'.1.
0690: 0B 01 03 27 03 32 81 0B  01 03 27 03 33 81 0B 01  ...'.2....'.3...
06A0: 03 27 03 34 81 0B 01 03  27 03 35 81 0B 01 03 1C  .'.4....'.5.....
06B0: 2F 80 2D F8 FF FF 7F F8  FF FF 7F 67 61 73 73 55  /.-........gassU
06C0: 22 80 F0 FF FF 7F F0 FF  FF 7F 78 30 30 33 1C 11  ".........x003..
06D0: 80 45 22 80 F0 FF FF 7F  F0 FF FF 7F 73 30 34 31  .E".........s041
06E0: 0B 80 45 0C 80 30 81 0B  01 30 81 0B 01 6F 76 6C  ..E..0...0...ovl
06F0: 31 0B 80 45 2B 80 F0 FF  FF 7F F0 FF FF 7F 62 6C  1..E+.........bl
0700: 6F 6E 0B 80 45 22 80 F0  FF FF 7F F0 FF FF 7F 78  on..E".........x
0710: 30 30 34 0B 80 55 22 80  F0 FF FF 7F F0 FF FF 7F  004..U".........
0720: 78 30 30 34 1C 40 80 45  22 80 F0 FF FF 7F F0 FF  x004.@.E".......
0730: FF 7F 73 30 34 32 0B 80  45 22 80 F0 FF FF 7F F0  ..s042..E"......
0740: FF FF 7F 78 30 30 35 0B  80 2D F8 FF FF 7F F8 FF  ...x005..-......
0750: FF 7F 64 65 6C 32 1C 40  80 45 0C 80 F0 FF FF 7F  ..del2.@.E......
0760: F0 FF FF 7F 66 64 6F 32  0B 80 55 0C 80 F0 FF FF  ....fdo2..U.....
0770: 7F F0 FF FF 7F 66 64 6F  32 45 0C 80 F0 FF FF 7F  .....fdo2E......
0780: F0 FF FF 7F 62 6C 6F 66  0B 80 2D F8 FF FF 7F F8  ....blof..-.....
0790: FF FF 7F 64 65 6C 31 52  22 80 F0 FF FF 7F F0 FF  ...del1R".......
07A0: FF 7F 78 30 30 35 4E 01  30 81 0B 01 4E 01 31 81  ..x005N.0...N.1.
07B0: 0B 01 4E 01 32 81 0B 01  4E 01 33 81 0B 01 4E 01  ..N.2...N.3...N.
07C0: 34 81 0B 01 4E 01 35 81  0B 01 1C 41 80 45 22 80  4...N.5....A.E".
07D0: F0 FF FF 7F F0 FF FF 7F  73 6B 33 39 0B 80 1C 2C  ........sk39...,
07E0: 80 AB 11 0B 80 1C 0F 80  35 10 80 78 1C 2C 80 AB  ........5..x.,..
07F0: 0A 02 06 00 0B 80 00 FC  07 30 21 00 5C 00 0B 80  .........0!.\...
0800: 5C 01 0B 80 9A 46 00 45  0C 80 F0 FF FF 7F F0 FF  \....F.E........
0810: FF 7F 66 64 69 32 0B 80  21 00                    ..fdi2..!.      
```

#### Opcodes

```
  0: 0x0462 [0x20] SET_CLI_EVENT_UC_FLAG: Lock player control
  1: 0x0464 [0x46] CAMERA_CONTROL: Disable user control
  2: 0x0466 [0x42] SET_CLI_EVENT_CANCEL_DATA()
  3: 0x0467 [0x45] LOAD_SCHEDULED_TASK: Load scheduler "fdo1" with entities [LocalPlayer, LocalPlayer], work=[200*, 0*]
  4: 0x0478 [0x55] WAIT_LOAD_SCHEDULER: Wait for scheduler "fdo1" with entities [LocalPlayer, LocalPlayer], work=200*
  5: 0x0487 [0x38] SET_CLIENT_EVENT_MODE(mode=19*)
  6: 0x048A [0x43] SEND_EVENT_UPDATE: Send pending tag to server (packet 0x005B)
  7: 0x048C [0x43] SEND_EVENT_UPDATE: Check pending flag (skip if not pending)
  8: 0x048E [0x03] ExtData[1]->WorkLocal[6] = Work_Zone[2]
  9: 0x0493 [0x5C] MUSIC_CONTROL: Set Idle (Day) music to song 218*
 10: 0x0497 [0x5C] MUSIC_CONTROL: Set Idle (Night) music to song 218*
 11: 0x049B [0x9A] WAIT_MUSIC_SERVER()
 12: 0x049C [0x34] LOAD_UNLOAD_ZONE(zone_id=540*)
 13: 0x049F [0x1C] WAIT(100* ticks)
 14: 0x04A2 [0x45] LOAD_SCHEDULED_TASK: Load scheduler "x001" with entities [LocalPlayer, LocalPlayer], work=[56*, 0*]
 15: 0x04B3 [0x55] WAIT_LOAD_SCHEDULER: Wait for scheduler "x001" with entities [LocalPlayer, LocalPlayer], work=56*
 16: 0x04C2 [0x45] LOAD_SCHEDULED_TASK: Load scheduler "s039" with entities [LocalPlayer, LocalPlayer], work=[56*, 0*]
 17: 0x04D3 [0x80] LOAD_WAIT(entity=??? (ID: 17531184/0x010B8130))
 18: 0x04D8 [0x80] LOAD_WAIT(entity=??? (ID: 17531185/0x010B8131))
 19: 0x04DD [0x80] LOAD_WAIT(entity=??? (ID: 17531186/0x010B8132))
 20: 0x04E2 [0x80] LOAD_WAIT(entity=??? (ID: 17531187/0x010B8133))
 21: 0x04E7 [0x80] LOAD_WAIT(entity=??? (ID: 17531188/0x010B8134))
 22: 0x04EC [0x80] LOAD_WAIT(entity=??? (ID: 17531189/0x010B8135))
 23: 0x04F1 [0x4E] SET_ENTITY_HIDE_FLAG: Show ??? (ID: 17531184/0x010B8130)
 24: 0x04F7 [0x4E] SET_ENTITY_HIDE_FLAG: Show ??? (ID: 17531185/0x010B8131)
 25: 0x04FD [0x4E] SET_ENTITY_HIDE_FLAG: Show ??? (ID: 17531186/0x010B8132)
 26: 0x0503 [0x4E] SET_ENTITY_HIDE_FLAG: Show ??? (ID: 17531187/0x010B8133)
 27: 0x0509 [0x4E] SET_ENTITY_HIDE_FLAG: Show ??? (ID: 17531188/0x010B8134)
 28: 0x050F [0x4E] SET_ENTITY_HIDE_FLAG: Show ??? (ID: 17531189/0x010B8135)
 29: 0x0515 [0x27] REQ_SET(priority=0x03, entity_id=??? (ID: 17531184/0x010B8130), tag_num=0x02)
 30: 0x051C [0x27] REQ_SET(priority=0x03, entity_id=??? (ID: 17531185/0x010B8131), tag_num=0x02)
 31: 0x0523 [0x27] REQ_SET(priority=0x03, entity_id=??? (ID: 17531186/0x010B8132), tag_num=0x02)
 32: 0x052A [0x27] REQ_SET(priority=0x03, entity_id=??? (ID: 17531187/0x010B8133), tag_num=0x02)
 33: 0x0531 [0x27] REQ_SET(priority=0x03, entity_id=??? (ID: 17531188/0x010B8134), tag_num=0x02)
 34: 0x0538 [0x27] REQ_SET(priority=0x03, entity_id=??? (ID: 17531189/0x010B8135), tag_num=0x02)
 35: 0x053F [0x29] REQ_SET_WAIT(priority=0x03, entity_id=??? (ID: 17531184/0x010B8130), tag_num=0x04)
 36: 0x0546 [0x77] SET_EVENT_TIME_WEATHER(hour=255*, weather=0*)
 37: 0x054B [0x45] LOAD_SCHEDULED_TASK: Load scheduler "blon" with entities [LocalPlayer, LocalPlayer], work=[108*, 0*]
 38: 0x055C [0x45] LOAD_SCHEDULED_TASK: Load scheduler "x000" with entities [LocalPlayer, LocalPlayer], work=[56*, 0*]
 39: 0x056D [0x45] LOAD_SCHEDULED_TASK: Load scheduler "fdi1" with entities [LocalPlayer, LocalPlayer], work=[200*, 0*]
 40: 0x057E [0x55] WAIT_LOAD_SCHEDULER: Wait for scheduler "fdi1" with entities [LocalPlayer, LocalPlayer], work=200*
 41: 0x058D [0x45] LOAD_SCHEDULED_TASK: Load scheduler "bash" with entities [LocalPlayer, LocalPlayer], work=[108*, 0*]
 42: 0x059E [0x55] WAIT_LOAD_SCHEDULER: Wait for scheduler "x000" with entities [LocalPlayer, LocalPlayer], work=56*
 43: 0x05AD [0x1C] WAIT(50* ticks)
 44: 0x05B0 [0x45] LOAD_SCHEDULED_TASK: Load scheduler "ovl1" with entities [LocalPlayer, LocalPlayer], work=[200*, 0*]
 45: 0x05C1 [0x45] LOAD_SCHEDULED_TASK: Load scheduler "blof" with entities [LocalPlayer, LocalPlayer], work=[200*, 0*]
 46: 0x05D2 [0x45] LOAD_SCHEDULED_TASK: Load scheduler "x002" with entities [LocalPlayer, LocalPlayer], work=[56*, 0*]
 47: 0x05E3 [0x27] REQ_SET(priority=0x03, entity_id=??? (ID: 17531184/0x010B8130), tag_num=0x05)
 48: 0x05EA [0x55] WAIT_LOAD_SCHEDULER: Wait for scheduler "x002" with entities [LocalPlayer, LocalPlayer], work=56*
 49: 0x05F9 [0x2B] ??? (ID: 17531184/0x010B8130) [7373*]:
    → "The northern line... The flow of energy has begun to reverse!"
 50: 0x0600 [0x23] WAIT_FOR_DIALOG_INTERACTION
 51: 0x0601 [0x2B] ??? (ID: 17531185/0x010B8131) [7374*]:
    → "That's impossible!"
 52: 0x0608 [0x23] WAIT_FOR_DIALOG_INTERACTION
 53: 0x0609 [0x1C] WAIT(15* ticks)
 54: 0x060C [0x45] LOAD_SCHEDULED_TASK: Load scheduler "who3" with entities [LocalPlayer, LocalPlayer], work=[108*, 0*]
 55: 0x061D [0x45] LOAD_SCHEDULED_TASK: Load scheduler "pash" with entities [LocalPlayer, LocalPlayer], work=[108*, 0*]
 56: 0x062E [0x55] WAIT_LOAD_SCHEDULER: Wait for scheduler "who3" with entities [LocalPlayer, LocalPlayer], work=108*
 57: 0x063D [0x1C] WAIT(5* ticks)
 58: 0x0640 [0x77] SET_EVENT_TIME_WEATHER(hour=255*, weather=16*)
 59: 0x0645 [0x45] LOAD_SCHEDULED_TASK: Load scheduler "s040" with entities [LocalPlayer, LocalPlayer], work=[56*, 0*]
 60: 0x0656 [0x2D] CREATE_ZONE_SCHEDULER_TASK: Create scheduler "main" with entities [EventEntity, EventEntity]
 61: 0x0663 [0x45] LOAD_SCHEDULED_TASK: Load scheduler "x003" with entities [LocalPlayer, LocalPlayer], work=[56*, 0*]
 62: 0x0674 [0x45] LOAD_SCHEDULED_TASK: Load scheduler "whi1" with entities [LocalPlayer, LocalPlayer], work=[201*, 0*]
 63: 0x0685 [0x27] REQ_SET(priority=0x03, entity_id=??? (ID: 17531184/0x010B8130), tag_num=0x03)
 64: 0x068C [0x27] REQ_SET(priority=0x03, entity_id=??? (ID: 17531185/0x010B8131), tag_num=0x03)
 65: 0x0693 [0x27] REQ_SET(priority=0x03, entity_id=??? (ID: 17531186/0x010B8132), tag_num=0x03)
 66: 0x069A [0x27] REQ_SET(priority=0x03, entity_id=??? (ID: 17531187/0x010B8133), tag_num=0x03)
 67: 0x06A1 [0x27] REQ_SET(priority=0x03, entity_id=??? (ID: 17531188/0x010B8134), tag_num=0x03)
 68: 0x06A8 [0x27] REQ_SET(priority=0x03, entity_id=??? (ID: 17531189/0x010B8135), tag_num=0x03)
 69: 0x06AF [0x1C] WAIT(60* ticks)
 70: 0x06B2 [0x2D] CREATE_ZONE_SCHEDULER_TASK: Create scheduler "gass" with entities [EventEntity, EventEntity]
 71: 0x06BF [0x55] WAIT_LOAD_SCHEDULER: Wait for scheduler "x003" with entities [LocalPlayer, LocalPlayer], work=56*
 72: 0x06CE [0x1C] WAIT(30* ticks)
 73: 0x06D1 [0x45] LOAD_SCHEDULED_TASK: Load scheduler "s041" with entities [LocalPlayer, LocalPlayer], work=[56*, 0*]
 74: 0x06E2 [0x45] LOAD_SCHEDULED_TASK: Load scheduler "ovl1" with entities [??? (ID: 17531184/0x010B8130), ??? (ID: 17531184/0x010B8130)], work=[200*, 0*]
 75: 0x06F3 [0x45] LOAD_SCHEDULED_TASK: Load scheduler "blon" with entities [LocalPlayer, LocalPlayer], work=[108*, 0*]
 76: 0x0704 [0x45] LOAD_SCHEDULED_TASK: Load scheduler "x004" with entities [LocalPlayer, LocalPlayer], work=[56*, 0*]
 77: 0x0715 [0x55] WAIT_LOAD_SCHEDULER: Wait for scheduler "x004" with entities [LocalPlayer, LocalPlayer], work=56*
 78: 0x0724 [0x1C] WAIT(180* ticks)
 79: 0x0727 [0x45] LOAD_SCHEDULED_TASK: Load scheduler "s042" with entities [LocalPlayer, LocalPlayer], work=[56*, 0*]
 80: 0x0738 [0x45] LOAD_SCHEDULED_TASK: Load scheduler "x005" with entities [LocalPlayer, LocalPlayer], work=[56*, 0*]
 81: 0x0749 [0x2D] CREATE_ZONE_SCHEDULER_TASK: Create scheduler "del2" with entities [EventEntity, EventEntity]
 82: 0x0756 [0x1C] WAIT(180* ticks)
 83: 0x0759 [0x45] LOAD_SCHEDULED_TASK: Load scheduler "fdo2" with entities [LocalPlayer, LocalPlayer], work=[200*, 0*]
 84: 0x076A [0x55] WAIT_LOAD_SCHEDULER: Wait for scheduler "fdo2" with entities [LocalPlayer, LocalPlayer], work=200*
 85: 0x0779 [0x45] LOAD_SCHEDULED_TASK: Load scheduler "blof" with entities [LocalPlayer, LocalPlayer], work=[200*, 0*]
 86: 0x078A [0x2D] CREATE_ZONE_SCHEDULER_TASK: Create scheduler "del1" with entities [EventEntity, EventEntity]
 87: 0x0797 [0x52] END_LOAD_SCHEDULER: End scheduler "x005" with entities [LocalPlayer, LocalPlayer], work=56*
 88: 0x07A6 [0x4E] SET_ENTITY_HIDE_FLAG: Hide ??? (ID: 17531184/0x010B8130)
 89: 0x07AC [0x4E] SET_ENTITY_HIDE_FLAG: Hide ??? (ID: 17531185/0x010B8131)
 90: 0x07B2 [0x4E] SET_ENTITY_HIDE_FLAG: Hide ??? (ID: 17531186/0x010B8132)
 91: 0x07B8 [0x4E] SET_ENTITY_HIDE_FLAG: Hide ??? (ID: 17531187/0x010B8133)
 92: 0x07BE [0x4E] SET_ENTITY_HIDE_FLAG: Hide ??? (ID: 17531188/0x010B8134)
 93: 0x07C4 [0x4E] SET_ENTITY_HIDE_FLAG: Hide ??? (ID: 17531189/0x010B8135)
 94: 0x07CA [0x1C] WAIT(120* ticks)
 95: 0x07CD [0x45] LOAD_SCHEDULED_TASK: Load scheduler "sk39" with entities [LocalPlayer, LocalPlayer], work=[56*, 0*]
 96: 0x07DE [0x1C] WAIT(15* ticks)
 97: 0x07E1 [0xAB] EventEntity->DespawnValue = 0* // Set despawn value
 98: 0x07E5 [0x1C] WAIT(1* ticks)
 99: 0x07E8 [0x35] LOAD_ZONE_NO_CLOSE(zone_id=184*)
100: 0x07EB [0x78] ENABLE_GAME_TIMER_RESET_WEATHER()
101: 0x07EC [0x1C] WAIT(15* ticks)
102: 0x07EF [0xAB] EventEntity->UnknownFlag = 0 // Disable unknown flag
103: 0x07F1 [0x02] IF !(ExtData[1]->WorkLocal[6] == 0*) GOTO 0x07FC
104: 0x07F9 [0x30] SET_UCOFF_CONTINUE_ZERO()
105: 0x07FA [0x21] END_EVENT
106: 0x07FB [0x00] END_REQSTACK()
107: 0x07FC [0x5C] MUSIC_CONTROL: Set Idle (Day) music to song 0*
108: 0x0800 [0x5C] MUSIC_CONTROL: Set Idle (Night) music to song 0*
109: 0x0804 [0x9A] WAIT_MUSIC_SERVER()
110: 0x0805 [0x46] CAMERA_CONTROL: Restore default settings
111: 0x0807 [0x45] LOAD_SCHEDULED_TASK: Load scheduler "fdi2" with entities [LocalPlayer, LocalPlayer], work=[200*, 0*]
112: 0x0818 [0x21] END_EVENT
113: 0x0819 [0x00] END_REQSTACK()
```

### Event 37

#### Metadata

| Field        | Value     |
|--------------|-----------|
| Entrypoint   | 0x081A    |
| Data Size    | 670 bytes |
| Instructions | 87        |

```
      00 01 02 03 04 05 06 07  08 09 0A 0B 0C 0D 0E 0F
      -- -- -- -- -- -- -- --  -- -- -- -- -- -- -- --
0810:                                20 01 46 01 42 45             .F.BE
0820: 0C 80 F0 FF FF 7F F0 FF  FF 7F 66 64 6F 31 0B 80  ..........fdo1..
0830: 55 0C 80 F0 FF FF 7F F0  FF FF 7F 66 64 6F 31 38  U..........fdo18
0840: 1A 80 43 00 43 01 03 06  00 02 10 5C 00 29 80 5C  ..C.C......\.).\
0850: 01 29 80 9A 34 42 80 1C  19 80 77 1F 80 0F 80 80  .)..4B....w.....
0860: 37 81 0B 01 29 03 37 81  0B 01 02 9F 43 80 F8 FF  7...).7.....C...
0870: FF 7F F8 FF FF 7F 6D 61  69 6E 0B 80 1C 2A 80 45  ......main...*.E
0880: 0C 80 F0 FF FF 7F F0 FF  FF 7F 66 64 69 31 0B 80  ..........fdi1..
0890: 55 0C 80 F0 FF FF 7F F0  FF FF 7F 66 64 69 31 1C  U..........fdi1.
08A0: 44 80 4E 00 37 81 0B 01  27 03 37 81 0B 01 03 1C  D.N.7...'.7.....
08B0: 0F 80 A3 43 80 F8 FF FF  7F F8 FF FF 7F 63 75 74  ...C.........cut
08C0: 34 45 2B 80 F0 FF FF 7F  F0 FF FF 7F 62 6C 6F 6E  4E+.........blon
08D0: 0B 80 45 45 80 F0 FF FF  7F F0 FF FF 7F 78 30 30  ..EE.........x00
08E0: 30 0B 80 1C 46 80 55 45  80 F0 FF FF 7F F0 FF FF  0...F.UE........
08F0: 7F 78 30 30 30 5D 0B 80  47 80 45 45 80 F0 FF FF  .x000]..G.EE....
0900: 7F F0 FF FF 7F 78 30 30  31 0B 80 55 45 80 F0 FF  .....x001..UE...
0910: FF 7F F0 FF FF 7F 78 30  30 31 1C 47 80 45 0C 80  ......x001.G.E..
0920: 29 81 0B 01 29 81 0B 01  62 6C 6F 6E 0B 80 45 45  )...)...blon..EE
0930: 80 F0 FF FF 7F F0 FF FF  7F 78 30 30 61 0B 80 1C  .........x00a...
0940: 41 80 55 45 80 F0 FF FF  7F F0 FF FF 7F 78 30 30  A.UE.........x00
0950: 61 1C 2F 80 9F 48 80 37  81 0B 01 37 81 0B 01 62  a./..H.7...7...b
0960: 68 73 65 0B 80 2A 03 37  81 0B 01 5C 00 49 80 5C  hse..*.7...\.I.\
0970: 01 49 80 45 2B 80 F0 FF  FF 7F F0 FF FF 7F 62 6C  .I.E+.........bl
0980: 6F 6E 0B 80 27 03 37 81  0B 01 04 45 45 80 F0 FF  on..'.7....EE...
0990: FF 7F F0 FF FF 7F 78 30  30 32 0B 80 1C 40 80 2B  ......x002...@.+
09A0: 37 81 0B 01 4A 80 23 55  45 80 F0 FF FF 7F F0 FF  7...J.#UE.......
09B0: FF 7F 78 30 30 32 45 45  80 F0 FF FF 7F F0 FF FF  ..x002EE........
09C0: 7F 78 30 30 33 0B 80 1C  2F 80 2B 37 81 0B 01 4B  .x003.../.+7...K
09D0: 80 23 55 45 80 F0 FF FF  7F F0 FF FF 7F 78 30 30  .#UE.........x00
09E0: 33 45 0C 80 F0 FF FF 7F  F0 FF FF 7F 66 64 6F 31  3E..........fdo1
09F0: 0B 80 55 0C 80 F0 FF FF  7F F0 FF FF 7F 66 64 6F  ..U..........fdo
0A00: 31 1C 2F 80 45 4C 80 37  81 0B 01 37 81 0B 01 73  1./.EL.7...7...s
0A10: 31 33 31 0B 80 2B 37 81  0B 01 4D 80 23 1C 41 80  131..+7...M.#.A.
0A20: 4E 01 37 81 0B 01 45 0C  80 F0 FF FF 7F F0 FF FF  N.7...E.........
0A30: 7F 62 6C 6F 66 0B 80 9F  48 80 37 81 0B 01 37 81  .blof...H.7...7.
0A40: 0B 01 73 65 73 70 0B 80  9F 43 80 F8 FF FF 7F F8  ..sesp...C......
0A50: FF FF 7F 6B 69 6C 6C 0B  80 9F 43 80 F8 FF FF 7F  ...kill...C.....
0A60: F8 FF FF 7F 6B 6C 73 65  0B 80 A3 43 80 F8 FF FF  ....klse...C....
0A70: 7F F8 FF FF 7F 6D 61 69  6E 1C 2F 80 1C 2C 80 AB  .....main./..,..
0A80: 11 0B 80 1C 0F 80 35 10  80 78 1C 2C 80 AB 0A 02  ......5..x.,....
0A90: 06 00 0B 80 00 9A 0A 30  21 00 5C 00 0B 80 5C 01  .......0!.\...\.
0AA0: 0B 80 9A 46 00 45 0C 80  F0 FF FF 7F F0 FF FF 7F  ...F.E..........
0AB0: 66 64 69 32 0B 80 21 00                           fdi2..!.        
```

#### Opcodes

```
  0: 0x081A [0x20] SET_CLI_EVENT_UC_FLAG: Lock player control
  1: 0x081C [0x46] CAMERA_CONTROL: Disable user control
  2: 0x081E [0x42] SET_CLI_EVENT_CANCEL_DATA()
  3: 0x081F [0x45] LOAD_SCHEDULED_TASK: Load scheduler "fdo1" with entities [LocalPlayer, LocalPlayer], work=[200*, 0*]
  4: 0x0830 [0x55] WAIT_LOAD_SCHEDULER: Wait for scheduler "fdo1" with entities [LocalPlayer, LocalPlayer], work=200*
  5: 0x083F [0x38] SET_CLIENT_EVENT_MODE(mode=19*)
  6: 0x0842 [0x43] SEND_EVENT_UPDATE: Send pending tag to server (packet 0x005B)
  7: 0x0844 [0x43] SEND_EVENT_UPDATE: Check pending flag (skip if not pending)
  8: 0x0846 [0x03] ExtData[1]->WorkLocal[6] = Work_Zone[2]
  9: 0x084B [0x5C] MUSIC_CONTROL: Set Idle (Day) music to song 218*
 10: 0x084F [0x5C] MUSIC_CONTROL: Set Idle (Night) music to song 218*
 11: 0x0853 [0x9A] WAIT_MUSIC_SERVER()
 12: 0x0854 [0x34] LOAD_UNLOAD_ZONE(zone_id=542*)
 13: 0x0857 [0x1C] WAIT(100* ticks)
 14: 0x085A [0x77] SET_EVENT_TIME_WEATHER(hour=255*, weather=1*)
 15: 0x085F [0x80] LOAD_WAIT(entity=Bahamut (ID: 17531191/0x010B8137))
 16: 0x0864 [0x29] REQ_SET_WAIT(priority=0x03, entity_id=Bahamut (ID: 17531191/0x010B8137), tag_num=0x02)
 17: 0x086B [0x9F] LOAD_SCHEDULED_TASK_ALT: Load scheduler "main" with entities [EventEntity, EventEntity], work=[69*, 0*]
 18: 0x087C [0x1C] WAIT(10* ticks)
 19: 0x087F [0x45] LOAD_SCHEDULED_TASK: Load scheduler "fdi1" with entities [LocalPlayer, LocalPlayer], work=[200*, 0*]
 20: 0x0890 [0x55] WAIT_LOAD_SCHEDULER: Wait for scheduler "fdi1" with entities [LocalPlayer, LocalPlayer], work=200*
 21: 0x089F [0x1C] WAIT(3370* ticks)
 22: 0x08A2 [0x4E] SET_ENTITY_HIDE_FLAG: Show Bahamut (ID: 17531191/0x010B8137)
 23: 0x08A8 [0x27] REQ_SET(priority=0x03, entity_id=Bahamut (ID: 17531191/0x010B8137), tag_num=0x03)
 24: 0x08AF [0x1C] WAIT(1* ticks)
 25: 0x08B2 [0xA3] END_LOAD_SCHEDULER_MAIN_ALT: End scheduler "cut4" with entities [EventEntity, EventEntity], work=69*
 26: 0x08C1 [0x45] LOAD_SCHEDULED_TASK: Load scheduler "blon" with entities [LocalPlayer, LocalPlayer], work=[108*, 0*]
 27: 0x08D2 [0x45] LOAD_SCHEDULED_TASK: Load scheduler "x000" with entities [LocalPlayer, LocalPlayer], work=[73*, 0*]
 28: 0x08E3 [0x1C] WAIT(80* ticks)
 29: 0x08E6 [0x55] WAIT_LOAD_SCHEDULER: Wait for scheduler "x000" with entities [LocalPlayer, LocalPlayer], work=73*
 30: 0x08F5 [0x5D] SET_MUSIC_VOLUME(volume=0*, fade_time=110*)
 31: 0x08FA [0x45] LOAD_SCHEDULED_TASK: Load scheduler "x001" with entities [LocalPlayer, LocalPlayer], work=[73*, 0*]
 32: 0x090B [0x55] WAIT_LOAD_SCHEDULER: Wait for scheduler "x001" with entities [LocalPlayer, LocalPlayer], work=73*
 33: 0x091A [0x1C] WAIT(110* ticks)
 34: 0x091D [0x45] LOAD_SCHEDULED_TASK: Load scheduler "blon" with entities [Crooked Arrow (ID: 17531177/0x010B8129), Crooked Arrow (ID: 17531177/0x010B8129)], work=[200*, 0*]
 35: 0x092E [0x45] LOAD_SCHEDULED_TASK: Load scheduler "x00a" with entities [LocalPlayer, LocalPlayer], work=[73*, 0*]
 36: 0x093F [0x1C] WAIT(120* ticks)
 37: 0x0942 [0x55] WAIT_LOAD_SCHEDULER: Wait for scheduler "x00a" with entities [LocalPlayer, LocalPlayer], work=73*
 38: 0x0951 [0x1C] WAIT(60* ticks)
 39: 0x0954 [0x9F] LOAD_SCHEDULED_TASK_ALT: Load scheduler "bhse" with entities [Bahamut (ID: 17531191/0x010B8137), Bahamut (ID: 17531191/0x010B8137)], work=[106*, 0*]
 40: 0x0965 [0x2A] GET_REQ_LEVEL(level=3, entity_id=Bahamut (ID: 17531191/0x010B8137))
 41: 0x096B [0x5C] MUSIC_CONTROL: Set Idle (Day) music to song 232*
 42: 0x096F [0x5C] MUSIC_CONTROL: Set Idle (Night) music to song 232*
 43: 0x0973 [0x45] LOAD_SCHEDULED_TASK: Load scheduler "blon" with entities [LocalPlayer, LocalPlayer], work=[108*, 0*]
 44: 0x0984 [0x27] REQ_SET(priority=0x03, entity_id=Bahamut (ID: 17531191/0x010B8137), tag_num=0x04)
 45: 0x098B [0x45] LOAD_SCHEDULED_TASK: Load scheduler "x002" with entities [LocalPlayer, LocalPlayer], work=[73*, 0*]
 46: 0x099C [0x1C] WAIT(180* ticks)
 47: 0x099F [0x2B] Bahamut (ID: 17531191/0x010B8137) [7375*]:
    → "Children of Vana'diel, I, Bahamut, ruler of the skies, have come to deliver you a warning!"
 48: 0x09A6 [0x23] WAIT_FOR_DIALOG_INTERACTION
 49: 0x09A7 [0x55] WAIT_LOAD_SCHEDULER: Wait for scheduler "x002" with entities [LocalPlayer, LocalPlayer], work=73*
 50: 0x09B6 [0x45] LOAD_SCHEDULED_TASK: Load scheduler "x003" with entities [LocalPlayer, LocalPlayer], work=[73*, 0*]
 51: 0x09C7 [0x1C] WAIT(60* ticks)
 52: 0x09CA [0x2B] Bahamut (ID: 17531191/0x010B8137) [7376*]:
    → "The time has come... The arrival of the Keeper of the Apocalypse is near!"
 53: 0x09D1 [0x23] WAIT_FOR_DIALOG_INTERACTION
 54: 0x09D2 [0x55] WAIT_LOAD_SCHEDULER: Wait for scheduler "x003" with entities [LocalPlayer, LocalPlayer], work=73*
 55: 0x09E1 [0x45] LOAD_SCHEDULED_TASK: Load scheduler "fdo1" with entities [LocalPlayer, LocalPlayer], work=[200*, 0*]
 56: 0x09F2 [0x55] WAIT_LOAD_SCHEDULER: Wait for scheduler "fdo1" with entities [LocalPlayer, LocalPlayer], work=200*
 57: 0x0A01 [0x1C] WAIT(60* ticks)
 58: 0x0A04 [0x45] LOAD_SCHEDULED_TASK: Load scheduler "s131" with entities [Bahamut (ID: 17531191/0x010B8137), Bahamut (ID: 17531191/0x010B8137)], work=[77*, 0*]
 59: 0x0A15 [0x2B] Bahamut (ID: 17531191/0x010B8137) [7377*]:
    → "Come forth, my minions! Let the blood of the gods spill forth on the soil of their creation."
 60: 0x0A1C [0x23] WAIT_FOR_DIALOG_INTERACTION
 61: 0x0A1D [0x1C] WAIT(120* ticks)
 62: 0x0A20 [0x4E] SET_ENTITY_HIDE_FLAG: Hide Bahamut (ID: 17531191/0x010B8137)
 63: 0x0A26 [0x45] LOAD_SCHEDULED_TASK: Load scheduler "blof" with entities [LocalPlayer, LocalPlayer], work=[200*, 0*]
 64: 0x0A37 [0x9F] LOAD_SCHEDULED_TASK_ALT: Load scheduler "sesp" with entities [Bahamut (ID: 17531191/0x010B8137), Bahamut (ID: 17531191/0x010B8137)], work=[106*, 0*]
 65: 0x0A48 [0x9F] LOAD_SCHEDULED_TASK_ALT: Load scheduler "kill" with entities [EventEntity, EventEntity], work=[69*, 0*]
 66: 0x0A59 [0x9F] LOAD_SCHEDULED_TASK_ALT: Load scheduler "klse" with entities [EventEntity, EventEntity], work=[69*, 0*]
 67: 0x0A6A [0xA3] END_LOAD_SCHEDULER_MAIN_ALT: End scheduler "main" with entities [EventEntity, EventEntity], work=69*
 68: 0x0A79 [0x1C] WAIT(60* ticks)
 69: 0x0A7C [0x1C] WAIT(15* ticks)
 70: 0x0A7F [0xAB] EventEntity->DespawnValue = 0* // Set despawn value
 71: 0x0A83 [0x1C] WAIT(1* ticks)
 72: 0x0A86 [0x35] LOAD_ZONE_NO_CLOSE(zone_id=184*)
 73: 0x0A89 [0x78] ENABLE_GAME_TIMER_RESET_WEATHER()
 74: 0x0A8A [0x1C] WAIT(15* ticks)
 75: 0x0A8D [0xAB] EventEntity->UnknownFlag = 0 // Disable unknown flag
 76: 0x0A8F [0x02] IF !(ExtData[1]->WorkLocal[6] == 0*) GOTO 0x0A9A
 77: 0x0A97 [0x30] SET_UCOFF_CONTINUE_ZERO()
 78: 0x0A98 [0x21] END_EVENT
 79: 0x0A99 [0x00] END_REQSTACK()
 80: 0x0A9A [0x5C] MUSIC_CONTROL: Set Idle (Day) music to song 0*
 81: 0x0A9E [0x5C] MUSIC_CONTROL: Set Idle (Night) music to song 0*
 82: 0x0AA2 [0x9A] WAIT_MUSIC_SERVER()
 83: 0x0AA3 [0x46] CAMERA_CONTROL: Restore default settings
 84: 0x0AA5 [0x45] LOAD_SCHEDULED_TASK: Load scheduler "fdi2" with entities [LocalPlayer, LocalPlayer], work=[200*, 0*]
 85: 0x0AB6 [0x21] END_EVENT
 86: 0x0AB7 [0x00] END_REQSTACK()
```

### Event 38

#### Metadata

| Field        | Value      |
|--------------|------------|
| Entrypoint   | 0x0AB8     |
| Data Size    | 1252 bytes |
| Instructions | 174        |

```
      00 01 02 03 04 05 06 07  08 09 0A 0B 0C 0D 0E 0F
      -- -- -- -- -- -- -- --  -- -- -- -- -- -- -- --
0AB0:                          20 01 46 01 42 45 0C 80           .F.BE..
0AC0: F0 FF FF 7F F0 FF FF 7F  66 64 6F 31 0B 80 55 0C  ........fdo1..U.
0AD0: 80 F0 FF FF 7F F0 FF FF  7F 66 64 6F 31 38 1A 80  .........fdo18..
0AE0: 43 00 43 01 03 06 00 02  10 5C 00 49 80 5C 01 49  C.C......\.I.\.I
0AF0: 80 9A 34 10 80 1C 19 80  80 29 81 0B 01 80 27 81  ..4......)....'.
0B00: 0B 01 80 22 81 0B 01 80  25 81 0B 01 80 26 81 0B  ..."....%....&..
0B10: 01 4E 00 25 81 0B 01 4E  00 26 81 0B 01 4E 00 27  .N.%...N.&...N.'
0B20: 81 0B 01 4E 00 29 81 0B  01 27 03 22 81 0B 01 05  ...N.)...'."....
0B30: 27 03 25 81 0B 01 05 27  03 26 81 0B 01 04 27 03  '.%....'.&....'.
0B40: 27 81 0B 01 05 27 03 29  81 0B 01 05 2A 03 22 81  '....'.)....*.".
0B50: 0B 01 2A 03 25 81 0B 01  2A 03 26 81 0B 01 2A 03  ..*.%...*.&...*.
0B60: 27 81 0B 01 2A 03 29 81  0B 01 94 01 29 81 0B 01  '...*.).....)...
0B70: 94 01 27 81 0B 01 94 01  22 81 0B 01 94 01 25 81  ..'.....".....%.
0B80: 0B 01 94 01 26 81 0B 01  79 00 27 81 0B 01 29 81  ....&...y.'...).
0B90: 0B 01 77 1F 80 0B 80 45  22 80 F0 FF FF 7F F0 FF  ..w....E".......
0BA0: FF 7F 79 30 30 30 0B 80  55 22 80 F0 FF FF 7F F0  ..y000..U"......
0BB0: FF FF 7F 79 30 30 30 45  0C 80 F0 FF FF 7F F0 FF  ...y000E........
0BC0: FF 7F 66 64 69 31 0B 80  55 0C 80 F0 FF FF 7F F0  ..fdi1..U.......
0BD0: FF FF 7F 66 64 69 31 1C  2F 80 45 22 80 F0 FF FF  ...fdi1./.E"....
0BE0: 7F F0 FF FF 7F 79 30 30  31 0B 80 55 22 80 F0 FF  .....y001..U"...
0BF0: FF 7F F0 FF FF 7F 79 30  30 31 1C 11 80 4A 29 81  ......y001...J).
0C00: 0B 01 27 81 0B 01 6F 76  29 81 0B 01 2B 29 81 0B  ..'...ov)...+)..
0C10: 01 4E 80 23 4E 00 22 81  0B 01 27 03 22 81 0B 01  .N.#N."...'."...
0C20: 06 1C 2A 80 45 22 80 F0  FF FF 7F F0 FF FF 7F 79  ..*.E".........y
0C30: 30 30 32 0B 80 55 22 80  F0 FF FF 7F F0 FF FF 7F  002..U".........
0C40: 79 30 30 32 1C 2F 80 2B  22 81 0B 01 4F 80 79 00  y002./.+"...O.y.
0C50: 27 81 0B 01 22 81 0B 01  1C 2A 80 4A 29 81 0B 01  '..."....*.J)...
0C60: 22 81 0B 01 6F 76 29 81  0B 01 23 2A 03 22 81 0B  "...ov)...#*."..
0C70: 01 2B 29 81 0B 01 50 80  23 7B 22 81 0B 01 7B 27  .+)...P.#{"...{'
0C80: 81 0B 01 27 03 22 81 0B  01 07 1C 25 80 45 22 80  ...'.".....%.E".
0C90: F0 FF FF 7F F0 FF FF 7F  79 30 30 33 0B 80 55 22  ........y003..U"
0CA0: 80 F0 FF FF 7F F0 FF FF  7F 79 30 30 33 2A 03 22  .........y003*."
0CB0: 81 0B 01 27 03 22 81 0B  01 08 2B 22 81 0B 01 51  ...'."....+"...Q
0CC0: 80 23 27 03 22 81 0B 01  09 5D 0B 80 24 80 9F 52  .#'."....]..$..R
0CD0: 80 F8 FF FF 7F F8 FF FF  7F 6D 61 69 6E 0B 80 45  .........main..E
0CE0: 22 80 27 81 0B 01 27 81  0B 01 73 30 38 33 0B 80  ".'...'...s083..
0CF0: 1C 25 80 45 0C 80 F0 FF  FF 7F F0 FF FF 7F 62 6C  .%.E..........bl
0D00: 6F 6E 0B 80 27 03 24 81  0B 01 02 4B 22 81 0B 01  on..'.$....K"...
0D10: 53 80 1C 2A 80 45 22 80  22 81 0B 01 22 81 0B 01  S..*.E"."..."...
0D20: 73 30 38 34 0B 80 1C 2A  80 4E 01 22 81 0B 01 4E  s084...*.N."...N
0D30: 00 24 81 0B 01 1C 34 80  27 03 23 81 0B 01 02 1C  .$....4.'.#.....
0D40: 54 80 27 03 25 81 0B 01  06 27 03 26 81 0B 01 05  T.'.%....'.&....
0D50: 27 03 27 81 0B 01 06 27  03 29 81 0B 01 06 4E 00  '.'....'.)....N.
0D60: 23 81 0B 01 4E 01 24 81  0B 01 45 22 80 F0 FF FF  #...N.$...E"....
0D70: 7F F0 FF FF 7F 79 30 30  61 0B 80 55 22 80 F0 FF  .....y00a..U"...
0D80: FF 7F F0 FF FF 7F 79 30  30 61 45 22 80 F0 FF FF  ......y00aE"....
0D90: 7F F0 FF FF 7F 79 30 30  34 0B 80 55 22 80 F0 FF  .....y004..U"...
0DA0: FF 7F F0 FF FF 7F 79 30  30 34 45 22 80 22 81 0B  ......y004E"."..
0DB0: 01 22 81 0B 01 73 30 38  35 0B 80 5C 00 55 80 5C  ."...s085..\.U.\
0DC0: 01 55 80 27 03 2F 81 0B  01 04 1C 3D 80 45 22 80  .U.'./.....=.E".
0DD0: F0 FF FF 7F F0 FF FF 7F  79 30 30 35 0B 80 55 22  ........y005..U"
0DE0: 80 F0 FF FF 7F F0 FF FF  7F 79 30 30 35 2A 03 23  .........y005*.#
0DF0: 81 0B 01 1C 40 80 27 03  23 81 0B 01 03 1C 56 80  ....@.'.#.....V.
0E00: 45 22 80 F0 FF FF 7F F0  FF FF 7F 73 31 32 34 0B  E".........s124.
0E10: 80 2A 03 23 81 0B 01 27  03 23 81 0B 01 04 2B 23  .*.#...'.#....+#
0E20: 81 0B 01 57 80 1C 2F 80  27 03 22 81 0B 01 0A 1C  ...W../.'.".....
0E30: 2A 80 45 2B 80 F0 FF FF  7F F0 FF FF 7F 62 6C 6F  *.E+.........blo
0E40: 6E 0B 80 45 22 80 F0 FF  FF 7F F0 FF FF 7F 79 30  n..E".........y0
0E50: 30 37 0B 80 55 22 80 F0  FF FF 7F F0 FF FF 7F 79  07..U".........y
0E60: 30 30 37 27 03 25 81 0B  01 07 2A 03 22 81 0B 01  007'.%....*."...
0E70: 23 4A 26 81 0B 01 22 81  0B 01 1C 2A 80 45 22 80  #J&..."....*.E".
0E80: F0 FF FF 7F F0 FF FF 7F  79 30 30 36 0B 80 55 22  ........y006..U"
0E90: 80 F0 FF FF 7F F0 FF FF  7F 79 30 30 36 2B 26 81  .........y006+&.
0EA0: 0B 01 58 80 23 45 0C 80  F0 FF FF 7F F0 FF FF 7F  ..X.#E..........
0EB0: 6F 76 6C 31 0B 80 45 22  80 F0 FF FF 7F F0 FF FF  ovl1..E"........
0EC0: 7F 79 30 30 38 0B 80 55  22 80 F0 FF FF 7F F0 FF  .y008..U".......
0ED0: FF 7F 79 30 30 38 2B 22  81 0B 01 59 80 23 27 03  ..y008+"...Y.#'.
0EE0: 22 81 0B 01 0B 1C 11 80  27 03 26 81 0B 01 06 27  ".......'.&....'
0EF0: 03 27 81 0B 01 07 1C 08  80 27 03 25 81 0B 01 08  .'.......'.%....
0F00: 1C 11 80 45 22 80 F0 FF  FF 7F F0 FF FF 7F 79 30  ...E".........y0
0F10: 30 39 0B 80 1C 2F 80 45  0C 80 F0 FF FF 7F F0 FF  09.../.E........
0F20: FF 7F 66 64 6F 32 0B 80  55 0C 80 F0 FF FF 7F F0  ..fdo2..U.......
0F30: FF FF 7F 66 64 6F 32 45  0C 80 F0 FF FF 7F F0 FF  ...fdo2E........
0F40: FF 7F 62 6C 6F 66 0B 80  2A 03 22 81 0B 01 2A 03  ..blof..*."...*.
0F50: 26 81 0B 01 2A 03 27 81  0B 01 2A 03 25 81 0B 01  &...*.'...*.%...
0F60: 1C 2C 80 AB 11 0B 80 1C  0F 80 35 10 80 78 1C 2C  .,........5..x.,
0F70: 80 AB 0A 02 06 00 0B 80  00 7E 0F 30 21 00 5C 00  .........~.0!.\.
0F80: 0B 80 5C 01 0B 80 9A 46  00 45 0C 80 F0 FF FF 7F  ..\....F.E......
0F90: F0 FF FF 7F 66 64 69 32  0B 80 21 00              ....fdi2..!.    
```

#### Opcodes

```
  0: 0x0AB8 [0x20] SET_CLI_EVENT_UC_FLAG: Lock player control
  1: 0x0ABA [0x46] CAMERA_CONTROL: Disable user control
  2: 0x0ABC [0x42] SET_CLI_EVENT_CANCEL_DATA()
  3: 0x0ABD [0x45] LOAD_SCHEDULED_TASK: Load scheduler "fdo1" with entities [LocalPlayer, LocalPlayer], work=[200*, 0*]
  4: 0x0ACE [0x55] WAIT_LOAD_SCHEDULER: Wait for scheduler "fdo1" with entities [LocalPlayer, LocalPlayer], work=200*
  5: 0x0ADD [0x38] SET_CLIENT_EVENT_MODE(mode=19*)
  6: 0x0AE0 [0x43] SEND_EVENT_UPDATE: Send pending tag to server (packet 0x005B)
  7: 0x0AE2 [0x43] SEND_EVENT_UPDATE: Check pending flag (skip if not pending)
  8: 0x0AE4 [0x03] ExtData[1]->WorkLocal[6] = Work_Zone[2]
  9: 0x0AE9 [0x5C] MUSIC_CONTROL: Set Idle (Day) music to song 232*
 10: 0x0AED [0x5C] MUSIC_CONTROL: Set Idle (Night) music to song 232*
 11: 0x0AF1 [0x9A] WAIT_MUSIC_SERVER()
 12: 0x0AF2 [0x34] LOAD_UNLOAD_ZONE(zone_id=184*)
 13: 0x0AF5 [0x1C] WAIT(100* ticks)
 14: 0x0AF8 [0x80] LOAD_WAIT(entity=Crooked Arrow (ID: 17531177/0x010B8129))
 15: 0x0AFD [0x80] LOAD_WAIT(entity=Auchefort (ID: 17531175/0x010B8127))
 16: 0x0B02 [0x80] LOAD_WAIT(entity=Wolfgang (ID: 17531170/0x010B8122))
 17: 0x0B07 [0x80] LOAD_WAIT(entity=Pherimociel (ID: 17531173/0x010B8125))
 18: 0x0B0C [0x80] LOAD_WAIT(entity=Neraf-Najiruf (ID: 17531174/0x010B8126))
 19: 0x0B11 [0x4E] SET_ENTITY_HIDE_FLAG: Show Pherimociel (ID: 17531173/0x010B8125)
 20: 0x0B17 [0x4E] SET_ENTITY_HIDE_FLAG: Show Neraf-Najiruf (ID: 17531174/0x010B8126)
 21: 0x0B1D [0x4E] SET_ENTITY_HIDE_FLAG: Show Auchefort (ID: 17531175/0x010B8127)
 22: 0x0B23 [0x4E] SET_ENTITY_HIDE_FLAG: Show Crooked Arrow (ID: 17531177/0x010B8129)
 23: 0x0B29 [0x27] REQ_SET(priority=0x03, entity_id=Wolfgang (ID: 17531170/0x010B8122), tag_num=0x05)
 24: 0x0B30 [0x27] REQ_SET(priority=0x03, entity_id=Pherimociel (ID: 17531173/0x010B8125), tag_num=0x05)
 25: 0x0B37 [0x27] REQ_SET(priority=0x03, entity_id=Neraf-Najiruf (ID: 17531174/0x010B8126), tag_num=0x04)
 26: 0x0B3E [0x27] REQ_SET(priority=0x03, entity_id=Auchefort (ID: 17531175/0x010B8127), tag_num=0x05)
 27: 0x0B45 [0x27] REQ_SET(priority=0x03, entity_id=Crooked Arrow (ID: 17531177/0x010B8129), tag_num=0x05)
 28: 0x0B4C [0x2A] GET_REQ_LEVEL(level=3, entity_id=Wolfgang (ID: 17531170/0x010B8122))
 29: 0x0B52 [0x2A] GET_REQ_LEVEL(level=3, entity_id=Pherimociel (ID: 17531173/0x010B8125))
 30: 0x0B58 [0x2A] GET_REQ_LEVEL(level=3, entity_id=Neraf-Najiruf (ID: 17531174/0x010B8126))
 31: 0x0B5E [0x2A] GET_REQ_LEVEL(level=3, entity_id=Auchefort (ID: 17531175/0x010B8127))
 32: 0x0B64 [0x2A] GET_REQ_LEVEL(level=3, entity_id=Crooked Arrow (ID: 17531177/0x010B8129))
 33: 0x0B6A [0x94] Crooked Arrow (ID: 17531177/0x010B8129)->Render.Flags3 ^= 0x01
 34: 0x0B70 [0x94] Auchefort (ID: 17531175/0x010B8127)->Render.Flags3 ^= 0x01
 35: 0x0B76 [0x94] Wolfgang (ID: 17531170/0x010B8122)->Render.Flags3 ^= 0x01
 36: 0x0B7C [0x94] Pherimociel (ID: 17531173/0x010B8125)->Render.Flags3 ^= 0x01
 37: 0x0B82 [0x94] Neraf-Najiruf (ID: 17531174/0x010B8126)->Render.Flags3 ^= 0x01
 38: 0x0B88 [0x79] Auchefort (ID: 17531175/0x010B8127) looks at Crooked Arrow (ID: 17531177/0x010B8129) (Basic look)
 39: 0x0B92 [0x77] SET_EVENT_TIME_WEATHER(hour=255*, weather=0*)
 40: 0x0B97 [0x45] LOAD_SCHEDULED_TASK: Load scheduler "y000" with entities [LocalPlayer, LocalPlayer], work=[56*, 0*]
 41: 0x0BA8 [0x55] WAIT_LOAD_SCHEDULER: Wait for scheduler "y000" with entities [LocalPlayer, LocalPlayer], work=56*
 42: 0x0BB7 [0x45] LOAD_SCHEDULED_TASK: Load scheduler "fdi1" with entities [LocalPlayer, LocalPlayer], work=[200*, 0*]
 43: 0x0BC8 [0x55] WAIT_LOAD_SCHEDULER: Wait for scheduler "fdi1" with entities [LocalPlayer, LocalPlayer], work=200*
 44: 0x0BD7 [0x1C] WAIT(60* ticks)
 45: 0x0BDA [0x45] LOAD_SCHEDULED_TASK: Load scheduler "y001" with entities [LocalPlayer, LocalPlayer], work=[56*, 0*]
 46: 0x0BEB [0x55] WAIT_LOAD_SCHEDULER: Wait for scheduler "y001" with entities [LocalPlayer, LocalPlayer], work=56*
 47: 0x0BFA [0x1C] WAIT(30* ticks)
 48: 0x0BFD [0x4A] Crooked Arrow (ID: 17531177/0x010B8129) looks at Auchefort (ID: 17531175/0x010B8127)
 49: 0x0C06 [0x6F] WAIT_FRAME_DELAY: Yield until WaitTime reaches zero
 50: 0x0C07 [0x76] CHECK_ENTITY_RENDER_FLAGS: Wait until Crooked Arrow (ID: 17531177/0x010B8129) Render.Flags0 and Render.Flags3 conditions are met
 51: 0x0C0C [0x2B] Crooked Arrow (ID: 17531177/0x010B8129) [7378*]:
    → "Why do we have to wait out here? What do they think we are, door boys? It's like they don't trust us..."
 52: 0x0C13 [0x23] WAIT_FOR_DIALOG_INTERACTION
 53: 0x0C14 [0x4E] SET_ENTITY_HIDE_FLAG: Show Wolfgang (ID: 17531170/0x010B8122)
 54: 0x0C1A [0x27] REQ_SET(priority=0x03, entity_id=Wolfgang (ID: 17531170/0x010B8122), tag_num=0x06)
 55: 0x0C21 [0x1C] WAIT(10* ticks)
 56: 0x0C24 [0x45] LOAD_SCHEDULED_TASK: Load scheduler "y002" with entities [LocalPlayer, LocalPlayer], work=[56*, 0*]
 57: 0x0C35 [0x55] WAIT_LOAD_SCHEDULER: Wait for scheduler "y002" with entities [LocalPlayer, LocalPlayer], work=56*
 58: 0x0C44 [0x1C] WAIT(60* ticks)
 59: 0x0C47 [0x2B] Wolfgang (ID: 17531170/0x010B8122) [7379*]:
    → "Quiet, soldier. You were ordered to stand by, not whine like a child."
 60: 0x0C4E [0x79] Auchefort (ID: 17531175/0x010B8127) looks at Wolfgang (ID: 17531170/0x010B8122) (Basic look)
 61: 0x0C58 [0x1C] WAIT(10* ticks)
 62: 0x0C5B [0x4A] Crooked Arrow (ID: 17531177/0x010B8129) looks at Wolfgang (ID: 17531170/0x010B8122)
 63: 0x0C64 [0x6F] WAIT_FRAME_DELAY: Yield until WaitTime reaches zero
 64: 0x0C65 [0x76] CHECK_ENTITY_RENDER_FLAGS: Wait until Crooked Arrow (ID: 17531177/0x010B8129) Render.Flags0 and Render.Flags3 conditions are met
 65: 0x0C6A [0x23] WAIT_FOR_DIALOG_INTERACTION
 66: 0x0C6B [0x2A] GET_REQ_LEVEL(level=3, entity_id=Wolfgang (ID: 17531170/0x010B8122))
 67: 0x0C71 [0x2B] Crooked Arrow (ID: 17531177/0x010B8129) [7380*]:
    → "Sir, yes sir!"
 68: 0x0C78 [0x23] WAIT_FOR_DIALOG_INTERACTION
 69: 0x0C79 [0x7B] Wolfgang (ID: 17531170/0x010B8122) stops talking
 70: 0x0C7E [0x7B] Auchefort (ID: 17531175/0x010B8127) stops talking
 71: 0x0C83 [0x27] REQ_SET(priority=0x03, entity_id=Wolfgang (ID: 17531170/0x010B8122), tag_num=0x07)
 72: 0x0C8A [0x1C] WAIT(150* ticks)
 73: 0x0C8D [0x45] LOAD_SCHEDULED_TASK: Load scheduler "y003" with entities [LocalPlayer, LocalPlayer], work=[56*, 0*]
 74: 0x0C9E [0x55] WAIT_LOAD_SCHEDULER: Wait for scheduler "y003" with entities [LocalPlayer, LocalPlayer], work=56*
 75: 0x0CAD [0x2A] GET_REQ_LEVEL(level=3, entity_id=Wolfgang (ID: 17531170/0x010B8122))
 76: 0x0CB3 [0x27] REQ_SET(priority=0x03, entity_id=Wolfgang (ID: 17531170/0x010B8122), tag_num=0x08)
 77: 0x0CBA [0x2B] Wolfgang (ID: 17531170/0x010B8122) [7381*]:
    → "But what really is going on in there...? Why did the society call for our assistance...?"
 78: 0x0CC1 [0x23] WAIT_FOR_DIALOG_INTERACTION
 79: 0x0CC2 [0x27] REQ_SET(priority=0x03, entity_id=Wolfgang (ID: 17531170/0x010B8122), tag_num=0x09)
 80: 0x0CC9 [0x5D] SET_MUSIC_VOLUME(volume=0*, fade_time=500*)
 81: 0x0CCE [0x9F] LOAD_SCHEDULED_TASK_ALT: Load scheduler "main" with entities [EventEntity, EventEntity], work=[55*, 0*]
 82: 0x0CDF [0x45] LOAD_SCHEDULED_TASK: Load scheduler "s083" with entities [Auchefort (ID: 17531175/0x010B8127), Auchefort (ID: 17531175/0x010B8127)], work=[56*, 0*]
 83: 0x0CF0 [0x1C] WAIT(150* ticks)
 84: 0x0CF3 [0x45] LOAD_SCHEDULED_TASK: Load scheduler "blon" with entities [LocalPlayer, LocalPlayer], work=[200*, 0*]
 85: 0x0D04 [0x27] REQ_SET(priority=0x03, entity_id=Wolfgang (ID: 17531172/0x010B8124), tag_num=0x02)
 86: 0x0D0B [0x4B] UPDATE_ENTITY_YAW(entity=Wolfgang (ID: 17531170/0x010B8122), yaw=6.1°*)
 87: 0x0D12 [0x1C] WAIT(10* ticks)
 88: 0x0D15 [0x45] LOAD_SCHEDULED_TASK: Load scheduler "s084" with entities [Wolfgang (ID: 17531170/0x010B8122), Wolfgang (ID: 17531170/0x010B8122)], work=[56*, 0*]
 89: 0x0D26 [0x1C] WAIT(10* ticks)
 90: 0x0D29 [0x4E] SET_ENTITY_HIDE_FLAG: Hide Wolfgang (ID: 17531170/0x010B8122)
 91: 0x0D2F [0x4E] SET_ENTITY_HIDE_FLAG: Show Wolfgang (ID: 17531172/0x010B8124)
 92: 0x0D35 [0x1C] WAIT(3* ticks)
 93: 0x0D38 [0x27] REQ_SET(priority=0x03, entity_id=Wolfgang (ID: 17531171/0x010B8123), tag_num=0x02)
 94: 0x0D3F [0x1C] WAIT(17* ticks)
 95: 0x0D42 [0x27] REQ_SET(priority=0x03, entity_id=Pherimociel (ID: 17531173/0x010B8125), tag_num=0x06)
 96: 0x0D49 [0x27] REQ_SET(priority=0x03, entity_id=Neraf-Najiruf (ID: 17531174/0x010B8126), tag_num=0x05)
 97: 0x0D50 [0x27] REQ_SET(priority=0x03, entity_id=Auchefort (ID: 17531175/0x010B8127), tag_num=0x06)
 98: 0x0D57 [0x27] REQ_SET(priority=0x03, entity_id=Crooked Arrow (ID: 17531177/0x010B8129), tag_num=0x06)
 99: 0x0D5E [0x4E] SET_ENTITY_HIDE_FLAG: Show Wolfgang (ID: 17531171/0x010B8123)
100: 0x0D64 [0x4E] SET_ENTITY_HIDE_FLAG: Hide Wolfgang (ID: 17531172/0x010B8124)
101: 0x0D6A [0x45] LOAD_SCHEDULED_TASK: Load scheduler "y00a" with entities [LocalPlayer, LocalPlayer], work=[56*, 0*]
102: 0x0D7B [0x55] WAIT_LOAD_SCHEDULER: Wait for scheduler "y00a" with entities [LocalPlayer, LocalPlayer], work=56*
103: 0x0D8A [0x45] LOAD_SCHEDULED_TASK: Load scheduler "y004" with entities [LocalPlayer, LocalPlayer], work=[56*, 0*]
104: 0x0D9B [0x55] WAIT_LOAD_SCHEDULER: Wait for scheduler "y004" with entities [LocalPlayer, LocalPlayer], work=56*
105: 0x0DAA [0x45] LOAD_SCHEDULED_TASK: Load scheduler "s085" with entities [Wolfgang (ID: 17531170/0x010B8122), Wolfgang (ID: 17531170/0x010B8122)], work=[56*, 0*]
106: 0x0DBB [0x5C] MUSIC_CONTROL: Set Idle (Day) music to song 224*
107: 0x0DBF [0x5C] MUSIC_CONTROL: Set Idle (Night) music to song 224*
108: 0x0DC3 [0x27] REQ_SET(priority=0x03, entity_id=Unknown NPC (ID: 17531183/0x010B812F), tag_num=0x04)
109: 0x0DCA [0x1C] WAIT(5* ticks)
110: 0x0DCD [0x45] LOAD_SCHEDULED_TASK: Load scheduler "y005" with entities [LocalPlayer, LocalPlayer], work=[56*, 0*]
111: 0x0DDE [0x55] WAIT_LOAD_SCHEDULER: Wait for scheduler "y005" with entities [LocalPlayer, LocalPlayer], work=56*
112: 0x0DED [0x2A] GET_REQ_LEVEL(level=3, entity_id=Wolfgang (ID: 17531171/0x010B8123))
113: 0x0DF3 [0x1C] WAIT(180* ticks)
114: 0x0DF6 [0x27] REQ_SET(priority=0x03, entity_id=Wolfgang (ID: 17531171/0x010B8123), tag_num=0x03)
115: 0x0DFD [0x1C] WAIT(105* ticks)
116: 0x0E00 [0x45] LOAD_SCHEDULED_TASK: Load scheduler "s124" with entities [LocalPlayer, LocalPlayer], work=[56*, 0*]
117: 0x0E11 [0x2A] GET_REQ_LEVEL(level=3, entity_id=Wolfgang (ID: 17531171/0x010B8123))
118: 0x0E17 [0x27] REQ_SET(priority=0x03, entity_id=Wolfgang (ID: 17531171/0x010B8123), tag_num=0x04)
119: 0x0E1E [0x2B] Wolfgang (ID: 17531171/0x010B8123) [7382*]:
    → "Crooked Arrow! Men! Ready your weapons and fall in!"
120: 0x0E25 [0x1C] WAIT(60* ticks)
121: 0x0E28 [0x27] REQ_SET(priority=0x03, entity_id=Wolfgang (ID: 17531170/0x010B8122), tag_num=0x0A)
122: 0x0E2F [0x1C] WAIT(10* ticks)
123: 0x0E32 [0x45] LOAD_SCHEDULED_TASK: Load scheduler "blon" with entities [LocalPlayer, LocalPlayer], work=[108*, 0*]
124: 0x0E43 [0x45] LOAD_SCHEDULED_TASK: Load scheduler "y007" with entities [LocalPlayer, LocalPlayer], work=[56*, 0*]
125: 0x0E54 [0x55] WAIT_LOAD_SCHEDULER: Wait for scheduler "y007" with entities [LocalPlayer, LocalPlayer], work=56*
126: 0x0E63 [0x27] REQ_SET(priority=0x03, entity_id=Pherimociel (ID: 17531173/0x010B8125), tag_num=0x07)
127: 0x0E6A [0x2A] GET_REQ_LEVEL(level=3, entity_id=Wolfgang (ID: 17531170/0x010B8122))
128: 0x0E70 [0x23] WAIT_FOR_DIALOG_INTERACTION
129: 0x0E71 [0x4A] Neraf-Najiruf (ID: 17531174/0x010B8126) looks at Wolfgang (ID: 17531170/0x010B8122)
130: 0x0E7A [0x1C] WAIT(10* ticks)
131: 0x0E7D [0x45] LOAD_SCHEDULED_TASK: Load scheduler "y006" with entities [LocalPlayer, LocalPlayer], work=[56*, 0*]
132: 0x0E8E [0x55] WAIT_LOAD_SCHEDULER: Wait for scheduler "y006" with entities [LocalPlayer, LocalPlayer], work=56*
133: 0x0E9D [0x2B] Neraf-Najiruf (ID: 17531174/0x010B8126) [7383*]:
    → "Captain! The door..."
134: 0x0EA4 [0x23] WAIT_FOR_DIALOG_INTERACTION
135: 0x0EA5 [0x45] LOAD_SCHEDULED_TASK: Load scheduler "ovl1" with entities [LocalPlayer, LocalPlayer], work=[200*, 0*]
136: 0x0EB6 [0x45] LOAD_SCHEDULED_TASK: Load scheduler "y008" with entities [LocalPlayer, LocalPlayer], work=[56*, 0*]
137: 0x0EC7 [0x55] WAIT_LOAD_SCHEDULER: Wait for scheduler "y008" with entities [LocalPlayer, LocalPlayer], work=56*
138: 0x0ED6 [0x2B] Wolfgang (ID: 17531170/0x010B8122) [7384*]:
    → "Follow me and keep on guard!"
139: 0x0EDD [0x23] WAIT_FOR_DIALOG_INTERACTION
140: 0x0EDE [0x27] REQ_SET(priority=0x03, entity_id=Wolfgang (ID: 17531170/0x010B8122), tag_num=0x0B)
141: 0x0EE5 [0x1C] WAIT(30* ticks)
142: 0x0EE8 [0x27] REQ_SET(priority=0x03, entity_id=Neraf-Najiruf (ID: 17531174/0x010B8126), tag_num=0x06)
143: 0x0EEF [0x27] REQ_SET(priority=0x03, entity_id=Auchefort (ID: 17531175/0x010B8127), tag_num=0x07)
144: 0x0EF6 [0x1C] WAIT(40* ticks)
145: 0x0EF9 [0x27] REQ_SET(priority=0x03, entity_id=Pherimociel (ID: 17531173/0x010B8125), tag_num=0x08)
146: 0x0F00 [0x1C] WAIT(30* ticks)
147: 0x0F03 [0x45] LOAD_SCHEDULED_TASK: Load scheduler "y009" with entities [LocalPlayer, LocalPlayer], work=[56*, 0*]
148: 0x0F14 [0x1C] WAIT(60* ticks)
149: 0x0F17 [0x45] LOAD_SCHEDULED_TASK: Load scheduler "fdo2" with entities [LocalPlayer, LocalPlayer], work=[200*, 0*]
150: 0x0F28 [0x55] WAIT_LOAD_SCHEDULER: Wait for scheduler "fdo2" with entities [LocalPlayer, LocalPlayer], work=200*
151: 0x0F37 [0x45] LOAD_SCHEDULED_TASK: Load scheduler "blof" with entities [LocalPlayer, LocalPlayer], work=[200*, 0*]
152: 0x0F48 [0x2A] GET_REQ_LEVEL(level=3, entity_id=Wolfgang (ID: 17531170/0x010B8122))
153: 0x0F4E [0x2A] GET_REQ_LEVEL(level=3, entity_id=Neraf-Najiruf (ID: 17531174/0x010B8126))
154: 0x0F54 [0x2A] GET_REQ_LEVEL(level=3, entity_id=Auchefort (ID: 17531175/0x010B8127))
155: 0x0F5A [0x2A] GET_REQ_LEVEL(level=3, entity_id=Pherimociel (ID: 17531173/0x010B8125))
156: 0x0F60 [0x1C] WAIT(15* ticks)
157: 0x0F63 [0xAB] EventEntity->DespawnValue = 0* // Set despawn value
158: 0x0F67 [0x1C] WAIT(1* ticks)
159: 0x0F6A [0x35] LOAD_ZONE_NO_CLOSE(zone_id=184*)
160: 0x0F6D [0x78] ENABLE_GAME_TIMER_RESET_WEATHER()
161: 0x0F6E [0x1C] WAIT(15* ticks)
162: 0x0F71 [0xAB] EventEntity->UnknownFlag = 0 // Disable unknown flag
163: 0x0F73 [0x02] IF !(ExtData[1]->WorkLocal[6] == 0*) GOTO 0x0F7E
164: 0x0F7B [0x30] SET_UCOFF_CONTINUE_ZERO()
165: 0x0F7C [0x21] END_EVENT
166: 0x0F7D [0x00] END_REQSTACK()
167: 0x0F7E [0x5C] MUSIC_CONTROL: Set Idle (Day) music to song 0*
168: 0x0F82 [0x5C] MUSIC_CONTROL: Set Idle (Night) music to song 0*
169: 0x0F86 [0x9A] WAIT_MUSIC_SERVER()
170: 0x0F87 [0x46] CAMERA_CONTROL: Restore default settings
171: 0x0F89 [0x45] LOAD_SCHEDULED_TASK: Load scheduler "fdi2" with entities [LocalPlayer, LocalPlayer], work=[200*, 0*]
172: 0x0F9A [0x21] END_EVENT
173: 0x0F9B [0x00] END_REQSTACK()
```

### Event 39

#### Metadata

| Field        | Value     |
|--------------|-----------|
| Entrypoint   | 0x0F9C    |
| Data Size    | 881 bytes |
| Instructions | 125       |

```
      00 01 02 03 04 05 06 07  08 09 0A 0B 0C 0D 0E 0F
      -- -- -- -- -- -- -- --  -- -- -- -- -- -- -- --
0F90:                                      20 01 46 01               .F.
0FA0: 42 43 00 43 01 03 08 00  06 10 45 0C 80 F0 FF FF  BC.C......E.....
0FB0: 7F F0 FF FF 7F 66 64 6F  31 0B 80 55 0C 80 F0 FF  .....fdo1..U....
0FC0: FF 7F F0 FF FF 7F 66 64  6F 31 38 1A 80 5C 00 55  ......fdo18..\.U
0FD0: 80 5C 01 55 80 9A 34 39  80 1C 19 80 80 22 81 0B  .\.U..49....."..
0FE0: 01 80 25 81 0B 01 80 26  81 0B 01 80 27 81 0B 01  ..%....&....'...
0FF0: 80 29 81 0B 01 80 36 81  0B 01 27 03 22 81 0B 01  .)....6...'."...
1000: 0C 27 03 25 81 0B 01 09  27 03 26 81 0B 01 07 27  .'.%....'.&....'
1010: 03 27 81 0B 01 08 27 03  29 81 0B 01 07 27 03 36  .'....'.)....'.6
1020: 81 0B 01 02 4E 00 22 81  0B 01 4E 00 25 81 0B 01  ....N."...N.%...
1030: 4E 00 26 81 0B 01 4E 00  27 81 0B 01 4E 00 29 81  N.&...N.'...N.).
1040: 0B 01 4E 00 36 81 0B 01  28 04 25 81 0B 01 0A 28  ..N.6...(.%....(
1050: 04 26 81 0B 01 08 28 04  27 81 0B 01 09 77 1F 80  .&....(.'....w..
1060: 0B 80 45 22 80 F0 FF FF  7F F0 FF FF 7F 77 30 30  ..E".........w00
1070: 30 0B 80 55 22 80 F0 FF  FF 7F F0 FF FF 7F 77 30  0..U".........w0
1080: 30 30 45 22 80 F0 FF FF  7F F0 FF FF 7F 77 30 30  00E".........w00
1090: 31 0B 80 45 0C 80 F0 FF  FF 7F F0 FF FF 7F 66 64  1..E..........fd
10A0: 69 31 0B 80 55 0C 80 F0  FF FF 7F F0 FF FF 7F 66  i1..U..........f
10B0: 64 69 31 28 04 22 81 0B  01 0D 55 22 80 F0 FF FF  di1(."....U"....
10C0: 7F F0 FF FF 7F 77 30 30  31 45 22 80 F0 FF FF 7F  .....w001E".....
10D0: F0 FF FF 7F 77 30 30 32  0B 80 2B 22 81 0B 01 5A  ....w002..+"...Z
10E0: 80 23 2A 04 22 81 0B 01  55 22 80 F0 FF FF 7F F0  .#*."...U"......
10F0: FF FF 7F 77 30 30 32 2B  22 81 0B 01 5B 80 23 2A  ...w002+"...[.#*
1100: 04 25 81 0B 01 27 03 25  81 0B 01 0B 1C 2A 80 45  .%...'.%.....*.E
