# Event 104

## Metadata

| Field           | Value    |
|-----------------|----------|
| Event Index     | 15/49    |
| Offset          | 0x00C6   |
| Data Size       | 29 bytes |
| Calculated Size | 29 bytes |
| Instructions    | 10       |

```
      00 01 02 03 04 05 06 07  08 09 0A 0B 0C 0D 0E 0F
      -- -- -- -- -- -- -- --  -- -- -- -- -- -- -- --
00C0:                   1E F0  FF FF 7F 6F 70 29 08 0E        .....op)..
00D0: E0 0E 01 01 1D 03 80 23  29 08 0E E0 0E 01 02 20  .......#)...... 
00E0: 00 21 00                                          .!.             
```

## Opcodes

```
  0: 0x00C6 [0x1E] EventEntity looks at LocalPlayer and starts talking
  1: 0x00CB [0x6F] WAIT_FRAME_DELAY: Yield until WaitTime reaches zero
  2: 0x00CC [0x70] WAIT_ENTITY_RENDER_FLAG: Wait while EventEntity->Render.Flags3 bit 2 is set (cancel turn if not)
  3: 0x00CD [0x29] REQ_SET_WAIT(priority=0x08, entity_id=Dagoza-Beruza (ID: 17752078/0x010EE00E), tag_num=0x01)
  4: 0x00D4 [0x1D] PRINT_EVENT_MESSAGE(message_id=7509*)
    → "You look new to these parts.\u0007I guess we should introduce ourselves to each other-wother. This is the north gatehouse, and we're the guards whose duty it is to protect Windurst.\u007F1\u0000\u0007"
  5: 0x00D7 [0x23] WAIT_FOR_DIALOG_INTERACTION
  6: 0x00D8 [0x29] REQ_SET_WAIT(priority=0x08, entity_id=Dagoza-Beruza (ID: 17752078/0x010EE00E), tag_num=0x02)
  7: 0x00DF [0x20] SET_CLI_EVENT_UC_FLAG: Unlock player control
  8: 0x00E1 [0x21] END_EVENT
  9: 0x00E2 [0x00] END_REQSTACK()
```
