# Event 769

## Metadata

| Field           | Value    |
|-----------------|----------|
| Event Index     | 39/49    |
| Offset          | 0x036A   |
| Data Size       | 33 bytes |
| Calculated Size | 33 bytes |
| Instructions    | 12       |

```
      00 01 02 03 04 05 06 07  08 09 0A 0B 0C 0D 0E 0F
      -- -- -- -- -- -- -- --  -- -- -- -- -- -- -- --
0360:                                1E F0 FF FF 7F 6F            .....o
0370: 70 29 08 0E E0 0E 01 01  1D 25 80 23 1D 26 80 23  p).......%.#.&.#
0380: 29 08 0E E0 0E 01 02 20  00 21 00                 )...... .!.     
```

## Opcodes

```
  0: 0x036A [0x1E] EventEntity looks at LocalPlayer and starts talking
  1: 0x036F [0x6F] WAIT_FRAME_DELAY: Yield until WaitTime reaches zero
  2: 0x0370 [0x70] WAIT_ENTITY_RENDER_FLAG: Wait while EventEntity->Render.Flags3 bit 2 is set (cancel turn if not)
  3: 0x0371 [0x29] REQ_SET_WAIT(priority=0x08, entity_id=Dagoza-Beruza (ID: 17752078/0x010EE00E), tag_num=0x01)
  4: 0x0378 [0x1D] PRINT_EVENT_MESSAGE(message_id=9611*)
    → "At times like these, you've gotta be cool, calm, and... Um...\u007F1\u0000\u0007"
  5: 0x037B [0x23] WAIT_FOR_DIALOG_INTERACTION
  6: 0x037C [0x1D] PRINT_EVENT_MESSAGE(message_id=9612*)
    → "We guards are Windurst's last line of defense. No mattaru what happens, I must keep Miss Apururu safe from harm.\u007F1\u0000\u0007"
  7: 0x037F [0x23] WAIT_FOR_DIALOG_INTERACTION
  8: 0x0380 [0x29] REQ_SET_WAIT(priority=0x08, entity_id=Dagoza-Beruza (ID: 17752078/0x010EE00E), tag_num=0x02)
  9: 0x0387 [0x20] SET_CLI_EVENT_UC_FLAG: Unlock player control
 10: 0x0389 [0x21] END_EVENT
 11: 0x038A [0x00] END_REQSTACK()
```
