# Event 176

## Metadata

| Field           | Value    |
|-----------------|----------|
| Event Index     | 13/22    |
| Offset          | 0x0100   |
| Data Size       | 33 bytes |
| Calculated Size | 33 bytes |
| Instructions    | 12       |

```
      00 01 02 03 04 05 06 07  08 09 0A 0B 0C 0D 0E 0F
      -- -- -- -- -- -- -- --  -- -- -- -- -- -- -- --
0100: 1E F0 FF FF 7F 6F 70 29  08 1B F0 0E 01 03 1D 0A  .....op)........
0110: 80 23 1D 0B 80 23 29 08  1B F0 0E 01 04 20 00 21  .#...#)...... .!
0120: 00                                                .               
```

## Opcodes

```
  0: 0x0100 [0x1E] EventEntity looks at LocalPlayer and starts talking
  1: 0x0105 [0x6F] WAIT_FRAME_DELAY: Yield until WaitTime reaches zero
  2: 0x0106 [0x70] WAIT_ENTITY_RENDER_FLAG: Wait while EventEntity->Render.Flags3 bit 2 is set (cancel turn if not)
  3: 0x0107 [0x29] REQ_SET_WAIT(priority=0x08, entity_id=Hiwon-Biwon (ID: 17756187/0x010EF01B), tag_num=0x03)
  4: 0x010E [0x1D] PRINT_EVENT_MESSAGE(message_id=7486*)
    → "...Erck!\u0007I haven't been feeling so good since the other night-wight...\u007F1\u0000\u0007"
  5: 0x0111 [0x23] WAIT_FOR_DIALOG_INTERACTION
  6: 0x0112 [0x1D] PRINT_EVENT_MESSAGE(message_id=7487*)
    → "Whenever I shut my eyes...like this, erck...I see these red eyes spinning around and around in the darkness...and, and my shoulders feel all weighed down-wown, and all...Woa\u0001`h!\u007F1\u0000\u0007"
  7: 0x0115 [0x23] WAIT_FOR_DIALOG_INTERACTION
  8: 0x0116 [0x29] REQ_SET_WAIT(priority=0x08, entity_id=Hiwon-Biwon (ID: 17756187/0x010EF01B), tag_num=0x04)
  9: 0x011D [0x20] SET_CLI_EVENT_UC_FLAG: Unlock player control
 10: 0x011F [0x21] END_EVENT
 11: 0x0120 [0x00] END_REQSTACK()
```
