# Event 185

## Metadata

| Field           | Value    |
|-----------------|----------|
| Event Index     | 21/22    |
| Offset          | 0x0200   |
| Data Size       | 33 bytes |
| Calculated Size | 33 bytes |
| Instructions    | 12       |

```
      00 01 02 03 04 05 06 07  08 09 0A 0B 0C 0D 0E 0F
      -- -- -- -- -- -- -- --  -- -- -- -- -- -- -- --
0200: 1E F0 FF FF 7F 6F 70 29  08 1B F0 0E 01 01 1D 16  .....op)........
0210: 80 23 1D 17 80 23 29 08  1B F0 0E 01 02 20 00 21  .#...#)...... .!
0220: 00                                                .               
```

## Opcodes

```
  0: 0x0200 [0x1E] EventEntity looks at LocalPlayer and starts talking
  1: 0x0205 [0x6F] WAIT_FRAME_DELAY: Yield until WaitTime reaches zero
  2: 0x0206 [0x70] WAIT_ENTITY_RENDER_FLAG: Wait while EventEntity->Render.Flags3 bit 2 is set (cancel turn if not)
  3: 0x0207 [0x29] REQ_SET_WAIT(priority=0x08, entity_id=Hiwon-Biwon (ID: 17756187/0x010EF01B), tag_num=0x01)
  4: 0x020E [0x1D] PRINT_EVENT_MESSAGE(message_id=7528*)
    → "Phew...\u0007I think I'm feeling a little better now-wow.\u007F1\u0000\u0007"
  5: 0x0211 [0x23] WAIT_FOR_DIALOG_INTERACTION
  6: 0x0212 [0x1D] PRINT_EVENT_MESSAGE(message_id=7529*)
    → "It's like the mist has cleared from my eyes and the weight has been lifted from my shoulders. Why, it's almost as if that mystery illness never happened-wappened.\u007F1\u0000\u0007"
  7: 0x0215 [0x23] WAIT_FOR_DIALOG_INTERACTION
  8: 0x0216 [0x29] REQ_SET_WAIT(priority=0x08, entity_id=Hiwon-Biwon (ID: 17756187/0x010EF01B), tag_num=0x02)
  9: 0x021D [0x20] SET_CLI_EVENT_UC_FLAG: Unlock player control
 10: 0x021F [0x21] END_EVENT
 11: 0x0220 [0x00] END_REQSTACK()
```
