# Event 530

## Metadata

| Field           | Value    |
|-----------------|----------|
| Event Index     | 22/22    |
| Offset          | 0x0221   |
| Data Size       | 26 bytes |
| Calculated Size | 26 bytes |
| Instructions    | 11       |

```
      00 01 02 03 04 05 06 07  08 09 0A 0B 0C 0D 0E 0F
      -- -- -- -- -- -- -- --  -- -- -- -- -- -- -- --
0220:    1E F0 FF FF 7F 6F 70  29 08 1B F0 0E 01 03 1D   .....op).......
0230: 18 80 23 1D 19 80 23 20  00 21 00                 ..#...# .!.     
```

## Opcodes

```
  0: 0x0221 [0x1E] EventEntity looks at LocalPlayer and starts talking
  1: 0x0226 [0x6F] WAIT_FRAME_DELAY: Yield until WaitTime reaches zero
  2: 0x0227 [0x70] WAIT_ENTITY_RENDER_FLAG: Wait while EventEntity->Render.Flags3 bit 2 is set (cancel turn if not)
  3: 0x0228 [0x29] REQ_SET_WAIT(priority=0x08, entity_id=Hiwon-Biwon (ID: 17756187/0x010EF01B), tag_num=0x03)
  4: 0x022F [0x1D] PRINT_EVENT_MESSAGE(message_id=10550*)
    → "Zzz...\u0007zzz...\u0007<Mmph>...\u007F1\u0000\u0007"
  5: 0x0232 [0x23] WAIT_FOR_DIALOG_INTERACTION
  6: 0x0233 [0x1D] PRINT_EVENT_MESSAGE(message_id=10551*)
    → "<Snore>...\u0007No, Shantotto...not...not the whip...\u0007Zzz...\u007F1\u0000\u0007"
  7: 0x0236 [0x23] WAIT_FOR_DIALOG_INTERACTION
  8: 0x0237 [0x20] SET_CLI_EVENT_UC_FLAG: Unlock player control
  9: 0x0239 [0x21] END_EVENT
 10: 0x023A [0x00] END_REQSTACK()
```
