# Event 10053

## Metadata

| Field           | Value    |
|-----------------|----------|
| Event Index     | 25/123   |
| Offset          | 0x0225   |
| Data Size       | 28 bytes |
| Calculated Size | 28 bytes |
| Instructions    | 11       |

```
      00 01 02 03 04 05 06 07  08 09 0A 0B 0C 0D 0E 0F
      -- -- -- -- -- -- -- --  -- -- -- -- -- -- -- --
0220:                42 48 20  80 1E F0 FF FF 7F 1C 21       BH .......!
0230: 80 1D 22 80 23 03 09 10  02 80 1D 23 80 23 21 00  ..".#......#.#!.
0240: 00                                                .               
```

## Opcodes

```
  0: 0x0225 [0x42] SET_CLI_EVENT_CANCEL_DATA()
  1: 0x0226 [0x48] [System] [9486*]:
    → "\u001F\u000F\u0008's badge flashes brightly.\u007F1\u0000\u0007"
  2: 0x0229 [0x1E] EventEntity looks at LocalPlayer and starts talking
  3: 0x022E [0x1C] WAIT(30* ticks)
  4: 0x0231 [0x1D] PRINT_EVENT_MESSAGE(message_id=9489*)
    → "Well, let me take a look at this Near Eastern cookbook I just got.\u0007It says \u00072soup\u00073 is called \u00072corbasi,\u00073 and the secret to a delicious dish is...\u007F1\u0000\u0007"
  5: 0x0234 [0x23] WAIT_FOR_DIALOG_INTERACTION
  6: 0x0235 [0x03] Work_Zone[9] = 57*
  7: 0x023A [0x1D] PRINT_EVENT_MESSAGE(message_id=9490*)
    → "Why, the secret is to simmer it in a \u0001\u00053\u0002\u0007\u0000\u0000, of course!\u007F1\u0000\u0007"
  8: 0x023D [0x23] WAIT_FOR_DIALOG_INTERACTION
  9: 0x023E [0x21] END_EVENT
 10: 0x023F [0x00] END_REQSTACK()
```

## Data or dead code:

```
# Dead code (unreachable instructions):
     0x0240 [0x00] END_REQSTACK()
```