# Event 65535

## Metadata

| Field           | Value    |
|-----------------|----------|
| Event Index     | 85/140   |
| Offset          | 0x04E9   |
| Data Size       | 49 bytes |
| Calculated Size | 49 bytes |
| Instructions    | 10       |

```
      00 01 02 03 04 05 06 07  08 09 0A 0B 0C 0D 0E 0F
      -- -- -- -- -- -- -- --  -- -- -- -- -- -- -- --
04E0:                             59 04 F8 FF FF 7F 00           Y......
04F0: 80 1F 00 92 80 93 80 03  80 1F 01 1F 00 94 80 95  ................
0500: 80 03 80 1F 01 1F 00 96  80 97 80 03 80 1F 01 6F  ...............o
0510: 4A F8 FF FF 7F F0 FF FF  7F 00                    J.........      
```

## Opcodes

```
  0: 0x04E9 [0x59] UPDATE_ENTITY_DATA: Set EventEntity main speed = 13* * 0.1
  1: 0x04F1 [0x1F] MOVE_ENTITY: EventEntity moves to X=0.403*, Z=47.523*, Y=-1.000*
  2: 0x04F9 [0x1F] MOVE_ENTITY: Update entity position (mode=1)
  3: 0x04FB [0x1F] MOVE_ENTITY: EventEntity moves to X=1.178*, Z=48.533*, Y=-1.000*
  4: 0x0503 [0x1F] MOVE_ENTITY: Update entity position (mode=1)
  5: 0x0505 [0x1F] MOVE_ENTITY: EventEntity moves to X=1.477*, Z=49.067*, Y=-1.000*
  6: 0x050D [0x1F] MOVE_ENTITY: Update entity position (mode=1)
  7: 0x050F [0x6F] WAIT_FRAME_DELAY: Yield until WaitTime reaches zero
  8: 0x0510 [0x4A] EventEntity looks at LocalPlayer
  9: 0x0519 [0x00] END_REQSTACK()
```
