# Event 65535

## Metadata

| Field           | Value    |
|-----------------|----------|
| Event Index     | 86/113   |
| Offset          | 0x243A   |
| Data Size       | 63 bytes |
| Calculated Size | 63 bytes |
| Instructions    | 10       |

```
      00 01 02 03 04 05 06 07  08 09 0A 0B 0C 0D 0E 0F
      -- -- -- -- -- -- -- --  -- -- -- -- -- -- -- --
2430:                                1A 7F 2B 02 4A 10            ..+.J.
2440: 0D 80 00 6D 24 45 0E 80  F8 FF FF 7F F8 FF FF 7F  ...m$E..........
2450: 73 32 30 32 0A 80 1C 57  80 45 09 80 F8 FF FF 7F  s202...W.E......
2460: F8 FF FF 7F 66 64 69 31  0A 80 1C 0C 80 2B 12 61  ....fdi1.....+.a
2470: 0E 01 99 80 23 1A 8A 2B  00                       ....#..+.       
```

## Opcodes

```
  0: 0x243A [0x1A] CALL_SUBROUTINE(address=0x2B7F)
  1: 0x243D [0x02] IF !(Work_Zone[74] == 1*) GOTO 0x246D
  2: 0x2445 [0x45] LOAD_SCHEDULED_TASK: Load scheduler "s202" with entities [EventEntity, EventEntity], work=[254*, 0*]
  3: 0x2456 [0x1C] WAIT(15* ticks)
  4: 0x2459 [0x45] LOAD_SCHEDULED_TASK: Load scheduler "fdi1" with entities [EventEntity, EventEntity], work=[200*, 0*]
  5: 0x246A [0x1C] WAIT(60* ticks)
  6: 0x246D [0x2B] Hantileon (ID: 17719570/0x010E6112) [11104*]:
    → "\u0001\u0005\u0004\u0002\u0000\u0000\u0000 seems to have a stomachache. Are you giving it a proper diet?\u007F1\u0000\u0007"
  7: 0x2474 [0x23] WAIT_FOR_DIALOG_INTERACTION
  8: 0x2475 [0x1A] CALL_SUBROUTINE(address=0x2B8A)
  9: 0x2478 [0x00] END_REQSTACK()
```
