# Event 65535

## Metadata

| Field           | Value    |
|-----------------|----------|
| Event Index     | 57/113   |
| Offset          | 0x20A8   |
| Data Size       | 63 bytes |
| Calculated Size | 63 bytes |
| Instructions    | 10       |

```
      00 01 02 03 04 05 06 07  08 09 0A 0B 0C 0D 0E 0F
      -- -- -- -- -- -- -- --  -- -- -- -- -- -- -- --
20A0:                          1A 7F 2B 02 4A 10 0D 80          ..+.J...
20B0: 00 D8 20 45 0E 80 F8 FF  FF 7F F8 FF FF 7F 73 32  .. E..........s2
20C0: 30 32 0A 80 1C 57 80 45  09 80 F8 FF FF 7F F8 FF  02...W.E........
20D0: FF 7F 66 64 69 31 0A 80  1C 0C 80 2B 12 61 0E 01  ..fdi1.....+.a..
20E0: 7C 80 23 1A 8A 2B 00                              |.#..+.         
```

## Opcodes

```
  0: 0x20A8 [0x1A] CALL_SUBROUTINE(address=0x2B7F)
  1: 0x20AB [0x02] IF !(Work_Zone[74] == 1*) GOTO 0x20D8
  2: 0x20B3 [0x45] LOAD_SCHEDULED_TASK(work_offset1=254*, entity1=EventEntity, entity2=EventEntity, scheduler_id="s202", work_offset2=0*)
  3: 0x20C4 [0x1C] WAIT(15* ticks)
  4: 0x20C7 [0x45] LOAD_SCHEDULED_TASK(work_offset1=200*, entity1=EventEntity, entity2=EventEntity, scheduler_id="fdi1", work_offset2=0*)
  5: 0x20D8 [0x1C] WAIT(60* ticks)
  6: 0x20DB [0x2B] Hantileon (ID: 17719570/0x010E6112) [11143*]:
    → "\u0001\u0005\u0004\u0002\u0000\u0000\u0000 rested well. It appeared to be having pleasant dreams...\u007F1\u0000\u0007"
  7: 0x20E2 [0x23] WAIT_FOR_DIALOG_INTERACTION
  8: 0x20E3 [0x1A] CALL_SUBROUTINE(address=0x2B8A)
  9: 0x20E6 [0x00] END_REQSTACK()
```
