# Event 65535

## Metadata

| Field           | Value    |
|-----------------|----------|
| Event Index     | 44/113   |
| Offset          | 0x1E6E   |
| Data Size       | 61 bytes |
| Calculated Size | 61 bytes |
| Instructions    | 7        |

```
      00 01 02 03 04 05 06 07  08 09 0A 0B 0C 0D 0E 0F
      -- -- -- -- -- -- -- --  -- -- -- -- -- -- -- --
1E60:                                            9F 28                .(
1E70: 80 13 61 0E 01 13 61 0E  01 73 74 6F 70 0A 80 29  ..a...a..stop..)
1E80: 05 13 61 0E 01 04 80 13  61 0E 01 5B 26 80 13 61  ..a.....a..[&..a
1E90: 0E 01 13 61 0E 01 68 69  30 38 29 05 12 61 0E 01  ...a..hi08)..a..
1EA0: 09 4A 12 61 0E 01 13 61  0E 01 00                 .J.a...a...     
```

## Opcodes

```
  0: 0x1E6E [0x9F] LOAD_SCHEDULED_TASK_ALT: Load scheduler "stop" with entities [Unnamed NPC (ID: 17719571/0x010E6113), Unnamed NPC (ID: 17719571/0x010E6113)], work=[235*, 0*]
  1: 0x1E7F [0x29] REQ_SET_WAIT(priority=0x05, entity_id=Unnamed NPC (ID: 17719571/0x010E6113), tag_num=0x04)
  2: 0x1E86 [0x80] LOAD_WAIT(entity=Unnamed NPC (ID: 17719571/0x010E6113))
  3: 0x1E8B [0x5B] LOAD_EXT_SCHEDULER: Load scheduler "hi08" with entities [Unnamed NPC (ID: 17719571/0x010E6113), Unnamed NPC (ID: 17719571/0x010E6113)], work=872*
  4: 0x1E9A [0x29] REQ_SET_WAIT(priority=0x05, entity_id=Hantileon (ID: 17719570/0x010E6112), tag_num=0x09)
  5: 0x1EA1 [0x4A] Hantileon (ID: 17719570/0x010E6112) looks at Unnamed NPC (ID: 17719571/0x010E6113)
  6: 0x1EAA [0x00] END_REQSTACK()
```
