# Event 65535

## Metadata

| Field           | Value    |
|-----------------|----------|
| Event Index     | 43/113   |
| Offset          | 0x1E1F   |
| Data Size       | 79 bytes |
| Calculated Size | 79 bytes |
| Instructions    | 9        |

```
      00 01 02 03 04 05 06 07  08 09 0A 0B 0C 0D 0E 0F
      -- -- -- -- -- -- -- --  -- -- -- -- -- -- -- --
1E10:                                               1C                 .
1E20: 0C 80 45 09 80 F8 FF FF  7F F8 FF FF 7F 66 64 69  ..E..........fdi
1E30: 31 0A 80 1C 0C 80 45 5D  80 F8 FF FF 7F F8 FF FF  1.....E]........
1E40: 7F 73 30 39 34 0A 80 5B  1A 80 19 61 0E 01 19 61  .s094..[...a...a
1E50: 0E 01 6A 6F 79 30 5B 51  80 19 61 0E 01 19 61 0E  ..joy0[Q..a...a.
1E60: 01 31 30 31 31 2B 12 61  0E 01 60 80 23 00        .1011+.a..`.#.  
```

## Opcodes

```
  0: 0x1E1F [0x1C] WAIT(60* ticks)
  1: 0x1E22 [0x45] LOAD_SCHEDULED_TASK(work_offset1=200*, entity1=EventEntity, entity2=EventEntity, scheduler_id="fdi1", work_offset2=0*)
  2: 0x1E33 [0x1C] WAIT(60* ticks)
  3: 0x1E36 [0x45] LOAD_SCHEDULED_TASK(work_offset1=255*, entity1=EventEntity, entity2=EventEntity, scheduler_id="s094", work_offset2=0*)
  4: 0x1E47 [0x5B] LOAD_EXT_SCHEDULER(work_offset=222*, entity1=Unnamed NPC (ID: 17719577/0x010E6119), entity2=Unnamed NPC (ID: 17719577/0x010E6119), action="joy0")
  5: 0x1E56 [0x5B] LOAD_EXT_SCHEDULER(work_offset=224*, entity1=Unnamed NPC (ID: 17719577/0x010E6119), entity2=Unnamed NPC (ID: 17719577/0x010E6119), action="1011")
  6: 0x1E65 [0x2B] Hantileon (ID: 17719570/0x010E6112) [11067*]:
    → "\u0001\u0005\u0004\u0002\u0000\u0000\u0000 has finally grown large enough to ride!\u007F1\u0000\u0007"
  7: 0x1E6C [0x23] WAIT_FOR_DIALOG_INTERACTION
  8: 0x1E6D [0x00] END_REQSTACK()
```
