# Event 65535

## Metadata

| Field           | Value    |
|-----------------|----------|
| Event Index     | 85/113   |
| Offset          | 0x23F9   |
| Data Size       | 65 bytes |
| Calculated Size | 65 bytes |
| Instructions    | 10       |

```
      00 01 02 03 04 05 06 07  08 09 0A 0B 0C 0D 0E 0F
      -- -- -- -- -- -- -- --  -- -- -- -- -- -- -- --
23F0:                             1A 7F 2B 03 03 10 97           ..+....
2400: 80 02 4A 10 0D 80 00 31  24 45 0E 80 F8 FF FF 7F  ..J....1$E......
2410: F8 FF FF 7F 73 32 30 32  0A 80 1C 57 80 45 09 80  ....s202...W.E..
2420: F8 FF FF 7F F8 FF FF 7F  66 64 69 31 0A 80 1C 0C  ........fdi1....
2430: 80 2B 12 61 0E 01 98 80  23 00                    .+.a....#.      
```

## Opcodes

```
  0: 0x23F9 [0x1A] CALL_SUBROUTINE(address=0x2B7F)
  1: 0x23FC [0x03] Work_Zone[3] = 2201*
  2: 0x2401 [0x02] IF !(Work_Zone[74] == 1*) GOTO 0x2431
  3: 0x2409 [0x45] LOAD_SCHEDULED_TASK(work_offset1=254*, entity1=EventEntity, entity2=EventEntity, scheduler_id="s202", work_offset2=0*)
  4: 0x241A [0x1C] WAIT(15* ticks)
  5: 0x241D [0x45] LOAD_SCHEDULED_TASK(work_offset1=200*, entity1=EventEntity, entity2=EventEntity, scheduler_id="fdi1", work_offset2=0*)
  6: 0x242E [0x1C] WAIT(60* ticks)
  7: 0x2431 [0x2B] Hantileon (ID: 17719570/0x010E6112) [11102*]:
    → "\u0001\u0005\u0004\u0002\u0000\u0000\u0000 seems to be a bit under the weather. \u007F\u0000\u0001\u0001\u0001\u0001 \u0001\u0005$\u0002\u0001\u0000\u0000 should fix it right up, though.\u007F1\u0000\u0007"
  8: 0x2438 [0x23] WAIT_FOR_DIALOG_INTERACTION
  9: 0x2439 [0x00] END_REQSTACK()
```
