# Event 65535

## Metadata

| Field           | Value    |
|-----------------|----------|
| Event Index     | 45/113   |
| Offset          | 0x1EAB   |
| Data Size       | 67 bytes |
| Calculated Size | 67 bytes |
| Instructions    | 7        |

```
      00 01 02 03 04 05 06 07  08 09 0A 0B 0C 0D 0E 0F
      -- -- -- -- -- -- -- --  -- -- -- -- -- -- -- --
1EA0:                                   9F 28 80 13 61             .(..a
1EB0: 0E 01 13 61 0E 01 73 74  6F 70 0A 80 29 05 13 61  ...a..stop..)..a
1EC0: 0E 01 06 80 13 61 0E 01  5B 53 80 13 61 0E 01 13  .....a..[S..a...
1ED0: 61 0E 01 6F 62 69 30 29  05 12 61 0E 01 0B 66 10  a..obi0)..a...f.
1EE0: 80 12 61 0E 01 12 61 0E  01 73 68 61 30 00        ..a...a..sha0.  
```

## Opcodes

```
  0: 0x1EAB [0x9F] LOAD_SCHEDULED_TASK_ALT: Load scheduler "stop" with entities [Unnamed NPC (ID: 17719571/0x010E6113), Unnamed NPC (ID: 17719571/0x010E6113)], work=[235*, 0*]
  1: 0x1EBC [0x29] REQ_SET_WAIT(priority=0x05, entity_id=Unnamed NPC (ID: 17719571/0x010E6113), tag_num=0x06)
  2: 0x1EC3 [0x80] LOAD_WAIT(entity=Unnamed NPC (ID: 17719571/0x010E6113))
  3: 0x1EC8 [0x5B] LOAD_EXT_SCHEDULER: Load scheduler "obi0" with entities [Unnamed NPC (ID: 17719571/0x010E6113), Unnamed NPC (ID: 17719571/0x010E6113)], work=876*
  4: 0x1ED7 [0x29] REQ_SET_WAIT(priority=0x05, entity_id=Hantileon (ID: 17719570/0x010E6112), tag_num=0x0B)
  5: 0x1EDE [0x66] LOAD_EXT_SCHEDULER_MAIN: Load scheduler "sha0" with entities [Hantileon (ID: 17719570/0x010E6112), Hantileon (ID: 17719570/0x010E6112)], work=29*
  6: 0x1EED [0x00] END_REQSTACK()
```
