# Event 65535

## Metadata

| Field           | Value    |
|-----------------|----------|
| Event Index     | 95/113   |
| Offset          | 0x2683   |
| Data Size       | 63 bytes |
| Calculated Size | 63 bytes |
| Instructions    | 10       |

```
      00 01 02 03 04 05 06 07  08 09 0A 0B 0C 0D 0E 0F
      -- -- -- -- -- -- -- --  -- -- -- -- -- -- -- --
2680:          1A 7F 2B 02 4A  10 0D 80 00 B6 26 45 0E     ..+.J.....&E.
2690: 80 F8 FF FF 7F F8 FF FF  7F 73 32 30 32 0A 80 1C  .........s202...
26A0: 57 80 45 09 80 F8 FF FF  7F F8 FF FF 7F 66 64 69  W.E..........fdi
26B0: 31 0A 80 1C 0C 80 2B 12  61 0E 01 A1 80 23 1A 8A  1.....+.a....#..
26C0: 2B 00                                             +.              
```

## Opcodes

```
  0: 0x2683 [0x1A] CALL_SUBROUTINE(address=0x2B7F)
  1: 0x2686 [0x02] IF !(Work_Zone[74] == 1*) GOTO 0x26B6
  2: 0x268E [0x45] LOAD_SCHEDULED_TASK(work_offset1=254*, entity1=EventEntity, entity2=EventEntity, scheduler_id="s202", work_offset2=0*)
  3: 0x269F [0x1C] WAIT(15* ticks)
  4: 0x26A2 [0x45] LOAD_SCHEDULED_TASK(work_offset1=200*, entity1=EventEntity, entity2=EventEntity, scheduler_id="fdi1", work_offset2=0*)
  5: 0x26B3 [0x1C] WAIT(60* ticks)
  6: 0x26B6 [0x2B] Hantileon (ID: 17719570/0x010E6112) [11128*]:
    → "\u0001\u0005\u0004\u0002\u0000\u0000\u0000 is so full of energy today!\u0007Now's your chance to get in some rigorous physical training!\u007F1\u0000\u0007"
  7: 0x26BD [0x23] WAIT_FOR_DIALOG_INTERACTION
  8: 0x26BE [0x1A] CALL_SUBROUTINE(address=0x2B8A)
  9: 0x26C1 [0x00] END_REQSTACK()
```
