# Event 65535

## Metadata

| Field           | Value    |
|-----------------|----------|
| Event Index     | 46/113   |
| Offset          | 0x1EEE   |
| Data Size       | 67 bytes |
| Calculated Size | 67 bytes |
| Instructions    | 7        |

```
      00 01 02 03 04 05 06 07  08 09 0A 0B 0C 0D 0E 0F
      -- -- -- -- -- -- -- --  -- -- -- -- -- -- -- --
1EE0:                                            9F 28                .(
1EF0: 80 19 61 0E 01 19 61 0E  01 73 74 6F 70 0A 80 29  ..a...a..stop..)
1F00: 05 19 61 0E 01 04 80 19  61 0E 01 5B 1A 80 19 61  ..a.....a..[...a
1F10: 0E 01 19 61 0E 01 6F 62  69 30 29 05 12 61 0E 01  ...a..obi0)..a..
1F20: 0B 66 10 80 12 61 0E 01  12 61 0E 01 73 68 61 30  .f...a...a..sha0
1F30: 00                                                .               
```

## Opcodes

```
  0: 0x1EEE [0x9F] LOAD_SCHEDULED_TASK_ALT: Load scheduler "stop" with entities [Unnamed NPC (ID: 17719577/0x010E6119), Unnamed NPC (ID: 17719577/0x010E6119)], work=[235*, 0*]
  1: 0x1EFF [0x29] REQ_SET_WAIT(priority=0x05, entity_id=Unnamed NPC (ID: 17719577/0x010E6119), tag_num=0x04)
  2: 0x1F06 [0x80] LOAD_WAIT(entity=Unnamed NPC (ID: 17719577/0x010E6119))
  3: 0x1F0B [0x5B] LOAD_EXT_SCHEDULER(work_offset=222*, entity1=Unnamed NPC (ID: 17719577/0x010E6119), entity2=Unnamed NPC (ID: 17719577/0x010E6119), action="obi0")
  4: 0x1F1A [0x29] REQ_SET_WAIT(priority=0x05, entity_id=Hantileon (ID: 17719570/0x010E6112), tag_num=0x0B)
  5: 0x1F21 [0x66] LOAD_EXT_SCHEDULER_MAIN(work_offset=29*, entity1=Hantileon (ID: 17719570/0x010E6112), entity2=Hantileon (ID: 17719570/0x010E6112), action="sha0")
  6: 0x1F30 [0x00] END_REQSTACK()
```
