# Event 65535

## Metadata

| Field           | Value    |
|-----------------|----------|
| Event Index     | 63/113   |
| Offset          | 0x2222   |
| Data Size       | 63 bytes |
| Calculated Size | 63 bytes |
| Instructions    | 10       |

```
      00 01 02 03 04 05 06 07  08 09 0A 0B 0C 0D 0E 0F
      -- -- -- -- -- -- -- --  -- -- -- -- -- -- -- --
2220:       1A 7F 2B 02 4A 10  0D 80 00 52 22 45 0E 80    ..+.J....R"E..
2230: F8 FF FF 7F F8 FF FF 7F  73 32 30 32 0A 80 1C 57  ........s202...W
2240: 80 45 09 80 F8 FF FF 7F  F8 FF FF 7F 66 64 69 31  .E..........fdi1
2250: 0A 80 1C 0C 80 2B 12 61  0E 01 81 80 23 1A 8A 2B  .....+.a....#..+
2260: 00                                                .               
```

## Opcodes

```
  0: 0x2222 [0x1A] CALL_SUBROUTINE(address=0x2B7F)
  1: 0x2225 [0x02] IF !(Work_Zone[74] == 1*) GOTO 0x2252
  2: 0x222D [0x45] LOAD_SCHEDULED_TASK: Load scheduler "s202" with entities [EventEntity, EventEntity], work=[254*, 0*]
  3: 0x223E [0x1C] WAIT(15* ticks)
  4: 0x2241 [0x45] LOAD_SCHEDULED_TASK: Load scheduler "fdi1" with entities [EventEntity, EventEntity], work=[200*, 0*]
  5: 0x2252 [0x1C] WAIT(60* ticks)
  6: 0x2255 [0x2B] Hantileon (ID: 17719570/0x010E6112) [11149*]:
    → "\u0001\u0005\u0004\u0002\u0000\u0000\u0000 has been out playing with the other chocobos here. They all seemed so cheerful, I started to think back to when I was a child...\u007F1\u0000\u0007"
  7: 0x225C [0x23] WAIT_FOR_DIALOG_INTERACTION
  8: 0x225D [0x1A] CALL_SUBROUTINE(address=0x2B8A)
  9: 0x2260 [0x00] END_REQSTACK()
```
