# Event 65535

## Metadata

| Field           | Value    |
|-----------------|----------|
| Event Index     | 56/113   |
| Offset          | 0x2069   |
| Data Size       | 63 bytes |
| Calculated Size | 63 bytes |
| Instructions    | 10       |

```
      00 01 02 03 04 05 06 07  08 09 0A 0B 0C 0D 0E 0F
      -- -- -- -- -- -- -- --  -- -- -- -- -- -- -- --
2060:                             02 4A 10 0D 80 00 99           .J.....
2070: 20 45 0E 80 F8 FF FF 7F  F8 FF FF 7F 73 32 30 32   E..........s202
2080: 0A 80 1C 57 80 45 09 80  F8 FF FF 7F F8 FF FF 7F  ...W.E..........
2090: 66 64 69 31 0A 80 1C 0C  80 1A 7F 2B 2B 12 61 0E  fdi1.......++.a.
20A0: 01 50 80 23 1A 8A 2B 00                           .P.#..+.        
```

## Opcodes

```
  0: 0x2069 [0x02] IF !(Work_Zone[74] == 1*) GOTO 0x2099
  1: 0x2071 [0x45] LOAD_SCHEDULED_TASK: Load scheduler "s202" with entities [EventEntity, EventEntity], work=[254*, 0*]
  2: 0x2082 [0x1C] WAIT(15* ticks)
  3: 0x2085 [0x45] LOAD_SCHEDULED_TASK: Load scheduler "fdi1" with entities [EventEntity, EventEntity], work=[200*, 0*]
  4: 0x2096 [0x1C] WAIT(60* ticks)
  5: 0x2099 [0x1A] CALL_SUBROUTINE(address=0x2B7F)
  6: 0x209C [0x2B] Hantileon (ID: 17719570/0x010E6112) [11142*]:
    → "We have been taking good care of \u0001\u0005\u0004\u0002\u0000\u0000\u0000. It has been passing its time here in the stables without concern.\u007F1\u0000\u0007"
  7: 0x20A3 [0x23] WAIT_FOR_DIALOG_INTERACTION
  8: 0x20A4 [0x1A] CALL_SUBROUTINE(address=0x2B8A)
  9: 0x20A7 [0x00] END_REQSTACK()
```
