# Event 65535

## Metadata

| Field           | Value    |
|-----------------|----------|
| Event Index     | 47/113   |
| Offset          | 0x1F31   |
| Data Size       | 88 bytes |
| Calculated Size | 88 bytes |
| Instructions    | 8        |

```
      00 01 02 03 04 05 06 07  08 09 0A 0B 0C 0D 0E 0F
      -- -- -- -- -- -- -- --  -- -- -- -- -- -- -- --
1F30:    45 4B 80 F8 FF FF 7F  F8 FF FF 7F 73 31 32 31   EK.........s121
1F40: 0A 80 45 5D 80 F8 FF FF  7F F8 FF FF 7F 73 30 39  ..E].........s09
1F50: 34 0A 80 5B 53 80 13 61  0E 01 13 61 0E 01 6A 6F  4..[S..a...a..jo
1F60: 79 62 5B 51 80 13 61 0E  01 13 61 0E 01 31 30 31  yb[Q..a...a..101
1F70: 30 2B 12 61 0E 01 61 80  23 52 4B 80 F8 FF FF 7F  0+.a..a.#RK.....
1F80: F8 FF FF 7F 73 31 32 31  00                       ....s121.       
```

## Opcodes

```
  0: 0x1F31 [0x45] LOAD_SCHEDULED_TASK(work_offset1=253*, entity1=EventEntity, entity2=EventEntity, scheduler_id="s121", work_offset2=0*)
  1: 0x1F42 [0x45] LOAD_SCHEDULED_TASK(work_offset1=255*, entity1=EventEntity, entity2=EventEntity, scheduler_id="s094", work_offset2=0*)
  2: 0x1F53 [0x5B] LOAD_EXT_SCHEDULER(work_offset=876*, entity1=Unnamed NPC (ID: 17719571/0x010E6113), entity2=Unnamed NPC (ID: 17719571/0x010E6113), action="joyb")
  3: 0x1F62 [0x5B] LOAD_EXT_SCHEDULER(work_offset=224*, entity1=Unnamed NPC (ID: 17719571/0x010E6113), entity2=Unnamed NPC (ID: 17719571/0x010E6113), action="1010")
  4: 0x1F71 [0x2B] Hantileon (ID: 17719570/0x010E6112) [11138*]:
    → "And the winner is...\u0001\u0005\u0004\u0002\u0000\u0000\u0000!\u007F1\u0000\u0007"
  5: 0x1F78 [0x23] WAIT_FOR_DIALOG_INTERACTION
  6: 0x1F79 [0x52] END_LOAD_SCHEDULER: End scheduler "s121" with entities [EventEntity, EventEntity], work=253*
  7: 0x1F88 [0x00] END_REQSTACK()
```
