# Event 65535

## Metadata

| Field           | Value    |
|-----------------|----------|
| Event Index     | 100/113  |
| Offset          | 0x27BE   |
| Data Size       | 63 bytes |
| Calculated Size | 63 bytes |
| Instructions    | 10       |

```
      00 01 02 03 04 05 06 07  08 09 0A 0B 0C 0D 0E 0F
      -- -- -- -- -- -- -- --  -- -- -- -- -- -- -- --
27B0:                                            1A 7F                ..
27C0: 2B 02 4A 10 0D 80 00 F1  27 45 0E 80 F8 FF FF 7F  +.J.....'E......
27D0: F8 FF FF 7F 73 32 30 32  0A 80 1C 57 80 45 09 80  ....s202...W.E..
27E0: F8 FF FF 7F F8 FF FF 7F  66 64 69 31 0A 80 1C 0C  ........fdi1....
27F0: 80 2B 12 61 0E 01 3C 80  23 1A 8A 2B 00           .+.a..<.#..+.   
```

## Opcodes

```
  0: 0x27BE [0x1A] CALL_SUBROUTINE(address=0x2B7F)
  1: 0x27C1 [0x02] IF !(Work_Zone[74] == 1*) GOTO 0x27F1
  2: 0x27C9 [0x45] LOAD_SCHEDULED_TASK: Load scheduler "s202" with entities [EventEntity, EventEntity], work=[254*, 0*]
  3: 0x27DA [0x1C] WAIT(15* ticks)
  4: 0x27DD [0x45] LOAD_SCHEDULED_TASK: Load scheduler "fdi1" with entities [EventEntity, EventEntity], work=[200*, 0*]
  5: 0x27EE [0x1C] WAIT(60* ticks)
  6: 0x27F1 [0x2B] Hantileon (ID: 17719570/0x010E6112) [11107*]:
    → "\u0001\u0005\u0004\u0002\u0000\u0000\u0000 no longer seems lonely.\u007F1\u0000\u0007"
  7: 0x27F8 [0x23] WAIT_FOR_DIALOG_INTERACTION
  8: 0x27F9 [0x1A] CALL_SUBROUTINE(address=0x2B8A)
  9: 0x27FC [0x00] END_REQSTACK()
```
