# Event 65535

## Metadata

| Field           | Value    |
|-----------------|----------|
| Event Index     | 104/113  |
| Offset          | 0x28BA   |
| Data Size       | 63 bytes |
| Calculated Size | 63 bytes |
| Instructions    | 10       |

```
      00 01 02 03 04 05 06 07  08 09 0A 0B 0C 0D 0E 0F
      -- -- -- -- -- -- -- --  -- -- -- -- -- -- -- --
28B0:                                1A 7F 2B 02 4A 10            ..+.J.
28C0: 0D 80 00 ED 28 45 0E 80  F8 FF FF 7F F8 FF FF 7F  ....(E..........
28D0: 73 32 30 32 0A 80 1C 57  80 45 09 80 F8 FF FF 7F  s202...W.E......
28E0: F8 FF FF 7F 66 64 69 31  0A 80 1C 0C 80 2B 12 61  ....fdi1.....+.a
28F0: 0E 01 44 80 23 1A 8A 2B  00                       ..D.#..+.       
```

## Opcodes

```
  0: 0x28BA [0x1A] CALL_SUBROUTINE(address=0x2B7F)
  1: 0x28BD [0x02] IF !(Work_Zone[74] == 1*) GOTO 0x28ED
  2: 0x28C5 [0x45] LOAD_SCHEDULED_TASK: Load scheduler "s202" with entities [EventEntity, EventEntity], work=[254*, 0*]
  3: 0x28D6 [0x1C] WAIT(15* ticks)
  4: 0x28D9 [0x45] LOAD_SCHEDULED_TASK: Load scheduler "fdi1" with entities [EventEntity, EventEntity], work=[200*, 0*]
  5: 0x28EA [0x1C] WAIT(60* ticks)
  6: 0x28ED [0x2B] Hantileon (ID: 17719570/0x010E6112) [11117*]:
    → "\u0001\u0005\u0004\u0002\u0000\u0000\u0000 seems to have more zest for life nowadays.\u007F1\u0000\u0007"
  7: 0x28F4 [0x23] WAIT_FOR_DIALOG_INTERACTION
  8: 0x28F5 [0x1A] CALL_SUBROUTINE(address=0x2B8A)
  9: 0x28F8 [0x00] END_REQSTACK()
```
