# Event 65535

## Metadata

| Field           | Value    |
|-----------------|----------|
| Event Index     | 61/113   |
| Offset          | 0x21A4   |
| Data Size       | 63 bytes |
| Calculated Size | 63 bytes |
| Instructions    | 10       |

```
      00 01 02 03 04 05 06 07  08 09 0A 0B 0C 0D 0E 0F
      -- -- -- -- -- -- -- --  -- -- -- -- -- -- -- --
21A0:             1A 7F 2B 02  4A 10 0D 80 00 D4 21 45      ..+.J.....!E
21B0: 0E 80 F8 FF FF 7F F8 FF  FF 7F 73 32 30 32 0A 80  ..........s202..
21C0: 1C 57 80 45 09 80 F8 FF  FF 7F F8 FF FF 7F 66 64  .W.E..........fd
21D0: 69 31 0A 80 1C 0C 80 2B  12 61 0E 01 7F 80 23 1A  i1.....+.a....#.
21E0: 8A 2B 00                                          .+.             
```

## Opcodes

```
  0: 0x21A4 [0x1A] CALL_SUBROUTINE(address=0x2B7F)
  1: 0x21A7 [0x02] IF !(Work_Zone[74] == 1*) GOTO 0x21D4
  2: 0x21AF [0x45] LOAD_SCHEDULED_TASK: Load scheduler "s202" with entities [EventEntity, EventEntity], work=[254*, 0*]
  3: 0x21C0 [0x1C] WAIT(15* ticks)
  4: 0x21C3 [0x45] LOAD_SCHEDULED_TASK: Load scheduler "fdi1" with entities [EventEntity, EventEntity], work=[200*, 0*]
  5: 0x21D4 [0x1C] WAIT(60* ticks)
  6: 0x21D7 [0x2B] Hantileon (ID: 17719570/0x010E6112) [11147*]:
    → "\u0001\u0005\u0004\u0002\u0000\u0000\u0000 exercised with the other chocobos here. All that stimulation seems to have made the animal a bit more patient.\u007F5\u0008\u007F1\u0000\u0007"
  7: 0x21DE [0x23] WAIT_FOR_DIALOG_INTERACTION
  8: 0x21DF [0x1A] CALL_SUBROUTINE(address=0x2B8A)
  9: 0x21E2 [0x00] END_REQSTACK()
```
