# Event 65535

## Metadata

| Field           | Value    |
|-----------------|----------|
| Event Index     | 91/113   |
| Offset          | 0x2577   |
| Data Size       | 63 bytes |
| Calculated Size | 63 bytes |
| Instructions    | 10       |

```
      00 01 02 03 04 05 06 07  08 09 0A 0B 0C 0D 0E 0F
      -- -- -- -- -- -- -- --  -- -- -- -- -- -- -- --
2570:                      1A  7F 2B 02 4A 10 0D 80 00         ..+.J....
2580: AA 25 45 0E 80 F8 FF FF  7F F8 FF FF 7F 73 32 30  .%E..........s20
2590: 32 0A 80 1C 57 80 45 09  80 F8 FF FF 7F F8 FF FF  2...W.E.........
25A0: 7F 66 64 69 31 0A 80 1C  0C 80 2B 12 61 0E 01 9E  .fdi1.....+.a...
25B0: 80 23 1A 8A 2B 00                                 .#..+.          
```

## Opcodes

```
  0: 0x2577 [0x1A] CALL_SUBROUTINE(address=0x2B7F)
  1: 0x257A [0x02] IF !(Work_Zone[74] == 1*) GOTO 0x25AA
  2: 0x2582 [0x45] LOAD_SCHEDULED_TASK: Load scheduler "s202" with entities [EventEntity, EventEntity], work=[254*, 0*]
  3: 0x2593 [0x1C] WAIT(15* ticks)
  4: 0x2596 [0x45] LOAD_SCHEDULED_TASK: Load scheduler "fdi1" with entities [EventEntity, EventEntity], work=[200*, 0*]
  5: 0x25A7 [0x1C] WAIT(60* ticks)
  6: 0x25AA [0x2B] Hantileon (ID: 17719570/0x010E6112) [11116*]:
    → "\u0001\u0005\u0004\u0002\u0000\u0000\u0000 seems bored and restless. You should have it compete against other chocobos sometime.\u007F1\u0000\u0007"
  7: 0x25B1 [0x23] WAIT_FOR_DIALOG_INTERACTION
  8: 0x25B2 [0x1A] CALL_SUBROUTINE(address=0x2B8A)
  9: 0x25B5 [0x00] END_REQSTACK()
```
