# Event 65535

## Metadata

| Field           | Value    |
|-----------------|----------|
| Event Index     | 94/113   |
| Offset          | 0x2644   |
| Data Size       | 63 bytes |
| Calculated Size | 63 bytes |
| Instructions    | 10       |

```
      00 01 02 03 04 05 06 07  08 09 0A 0B 0C 0D 0E 0F
      -- -- -- -- -- -- -- --  -- -- -- -- -- -- -- --
2640:             1A 7F 2B 02  4A 10 0D 80 00 77 26 45      ..+.J....w&E
2650: 0E 80 F8 FF FF 7F F8 FF  FF 7F 73 32 30 32 0A 80  ..........s202..
2660: 1C 57 80 45 09 80 F8 FF  FF 7F F8 FF FF 7F 66 64  .W.E..........fd
2670: 69 31 0A 80 1C 0C 80 2B  12 61 0E 01 A0 80 23 1A  i1.....+.a....#.
2680: 8A 2B 00                                          .+.             
```

## Opcodes

```
  0: 0x2644 [0x1A] CALL_SUBROUTINE(address=0x2B7F)
  1: 0x2647 [0x02] IF !(Work_Zone[74] == 1*) GOTO 0x2677
  2: 0x264F [0x45] LOAD_SCHEDULED_TASK(work_offset1=254*, entity1=EventEntity, entity2=EventEntity, scheduler_id="s202", work_offset2=0*)
  3: 0x2660 [0x1C] WAIT(15* ticks)
  4: 0x2663 [0x45] LOAD_SCHEDULED_TASK(work_offset1=200*, entity1=EventEntity, entity2=EventEntity, scheduler_id="fdi1", work_offset2=0*)
  5: 0x2674 [0x1C] WAIT(60* ticks)
  6: 0x2677 [0x2B] Hantileon (ID: 17719570/0x010E6112) [11125*]:
    → "\u0001\u0005\u0004\u0002\u0000\u0000\u0000 has been acting strange lately. Its head is in the clouds and it does not seem to have much of an appetite...\u007F1\u0000\u0007"
  7: 0x267E [0x23] WAIT_FOR_DIALOG_INTERACTION
  8: 0x267F [0x1A] CALL_SUBROUTINE(address=0x2B8A)
  9: 0x2682 [0x00] END_REQSTACK()
```
