# Event 65535

## Metadata

| Field           | Value    |
|-----------------|----------|
| Event Index     | 90/113   |
| Offset          | 0x2536   |
| Data Size       | 65 bytes |
| Calculated Size | 65 bytes |
| Instructions    | 10       |

```
      00 01 02 03 04 05 06 07  08 09 0A 0B 0C 0D 0E 0F
      -- -- -- -- -- -- -- --  -- -- -- -- -- -- -- --
2530:                   1A 7F  2B 03 03 10 97 80 02 4A        ..+......J
2540: 10 0D 80 00 6E 25 45 0E  80 F8 FF FF 7F F8 FF FF  ....n%E.........
2550: 7F 73 32 30 32 0A 80 1C  57 80 45 09 80 F8 FF FF  .s202...W.E.....
2560: 7F F8 FF FF 7F 66 64 69  31 0A 80 1C 0C 80 2B 12  .....fdi1.....+.
2570: 61 0E 01 9D 80 23 00                              a....#.         
```

## Opcodes

```
  0: 0x2536 [0x1A] CALL_SUBROUTINE(address=0x2B7F)
  1: 0x2539 [0x03] Work_Zone[3] = 2201*
  2: 0x253E [0x02] IF !(Work_Zone[74] == 1*) GOTO 0x256E
  3: 0x2546 [0x45] LOAD_SCHEDULED_TASK: Load scheduler "s202" with entities [EventEntity, EventEntity], work=[254*, 0*]
  4: 0x2557 [0x1C] WAIT(15* ticks)
  5: 0x255A [0x45] LOAD_SCHEDULED_TASK: Load scheduler "fdi1" with entities [EventEntity, EventEntity], work=[200*, 0*]
  6: 0x256B [0x1C] WAIT(60* ticks)
  7: 0x256E [0x2B] Hantileon (ID: 17719570/0x010E6112) [11114*]:
    → "\u0001\u0005\u0004\u0002\u0000\u0000\u0000 is very ill. We need \u0001\u0001\u0001 \u0001\u0005$\u0002\u0001\u0000\u0000 in order to help it.\u007F1\u0000\u0007"
  8: 0x2575 [0x23] WAIT_FOR_DIALOG_INTERACTION
  9: 0x2576 [0x00] END_REQSTACK()
```
