# Event 65535

## Metadata

| Field           | Value    |
|-----------------|----------|
| Event Index     | 55/113   |
| Offset          | 0x2030   |
| Data Size       | 57 bytes |
| Calculated Size | 57 bytes |
| Instructions    | 8        |

```
      00 01 02 03 04 05 06 07  08 09 0A 0B 0C 0D 0E 0F
      -- -- -- -- -- -- -- --  -- -- -- -- -- -- -- --
2030: 02 4A 10 0D 80 00 60 20  45 0E 80 F8 FF FF 7F F8  .J....` E.......
2040: FF FF 7F 73 32 30 32 0A  80 1C 57 80 45 09 80 F8  ...s202...W.E...
2050: FF FF 7F F8 FF FF 7F 66  64 69 31 0A 80 1C 0C 80  .......fdi1.....
2060: 2B 12 61 0E 01 4F 80 23  00                       +.a..O.#.       
```

## Opcodes

```
  0: 0x2030 [0x02] IF !(Work_Zone[74] == 1*) GOTO 0x2060
  1: 0x2038 [0x45] LOAD_SCHEDULED_TASK: Load scheduler "s202" with entities [EventEntity, EventEntity], work=[254*, 0*]
  2: 0x2049 [0x1C] WAIT(15* ticks)
  3: 0x204C [0x45] LOAD_SCHEDULED_TASK: Load scheduler "fdi1" with entities [EventEntity, EventEntity], work=[200*, 0*]
  4: 0x205D [0x1C] WAIT(60* ticks)
  5: 0x2060 [0x2B] Hantileon (ID: 17719570/0x010E6112) [11141*]:
    → "We have been taking good care of your egg. I cannot wait to see how the chick will look.\u007F1\u0000\u0007"
  6: 0x2067 [0x23] WAIT_FOR_DIALOG_INTERACTION
  7: 0x2068 [0x00] END_REQSTACK()
```
