# Event 65535

## Metadata

| Field           | Value    |
|-----------------|----------|
| Event Index     | 108/113  |
| Offset          | 0x29B6   |
| Data Size       | 65 bytes |
| Calculated Size | 65 bytes |
| Instructions    | 10       |

```
      00 01 02 03 04 05 06 07  08 09 0A 0B 0C 0D 0E 0F
      -- -- -- -- -- -- -- --  -- -- -- -- -- -- -- --
29B0:                   1A 7F  2B 03 03 10 2A 80 02 4A        ..+...*..J
29C0: 10 0D 80 00 EE 29 45 0E  80 F8 FF FF 7F F8 FF FF  .....)E.........
29D0: 7F 73 32 30 32 0A 80 1C  57 80 45 09 80 F8 FF FF  .s202...W.E.....
29E0: 7F F8 FF FF 7F 66 64 69  31 0A 80 1C 0C 80 2B 12  .....fdi1.....+.
29F0: 61 0E 01 49 80 23 00                              a..I.#.         
```

## Opcodes

```
  0: 0x29B6 [0x1A] CALL_SUBROUTINE(address=0x2B7F)
  1: 0x29B9 [0x03] Work_Zone[3] = 806*
  2: 0x29BE [0x02] IF !(Work_Zone[74] == 1*) GOTO 0x29EE
  3: 0x29C6 [0x45] LOAD_SCHEDULED_TASK: Load scheduler "s202" with entities [EventEntity, EventEntity], work=[254*, 0*]
  4: 0x29D7 [0x1C] WAIT(15* ticks)
  5: 0x29DA [0x45] LOAD_SCHEDULED_TASK: Load scheduler "fdi1" with entities [EventEntity, EventEntity], work=[200*, 0*]
  6: 0x29EB [0x1C] WAIT(60* ticks)
  7: 0x29EE [0x2B] Hantileon (ID: 17719570/0x010E6112) [11062*]:
    → "Thanks to the \u0001\u00053\u0002\u0001\u0000\u0000, \u0001\u0005\u0004\u0002\u0000\u0000\u0000 has been sleeping soundly at night.\u007F1\u0000\u0007"
  8: 0x29F5 [0x23] WAIT_FOR_DIALOG_INTERACTION
  9: 0x29F6 [0x00] END_REQSTACK()
```
