# Event 65535

## Metadata

| Field           | Value    |
|-----------------|----------|
| Event Index     | 32/113   |
| Offset          | 0x1800   |
| Data Size       | 75 bytes |
| Calculated Size | 75 bytes |
| Instructions    | 11       |

```
      00 01 02 03 04 05 06 07  08 09 0A 0B 0C 0D 0E 0F
      -- -- -- -- -- -- -- --  -- -- -- -- -- -- -- --
1800: 29 05 13 61 0E 01 03 80  13 61 0E 01 29 05 12 61  )..a.....a..)..a
1810: 0E 01 09 45 27 80 F8 FF  FF 7F F8 FF FF 7F 73 31  ...E'.........s1
1820: 37 30 0A 80 1C 0C 80 45  09 80 F8 FF FF 7F F8 FF  70.....E........
1830: FF 7F 66 64 69 31 0A 80  1C 0C 80 27 05 12 61 0E  ..fdi1.....'..a.
1840: 01 0A 2B 12 61 0E 01 4F  80 23 00                 ..+.a..O.#.     
```

## Opcodes

```
  0: 0x1800 [0x29] REQ_SET_WAIT(priority=0x05, entity_id=Unnamed NPC (ID: 17719571/0x010E6113), tag_num=0x03)
  1: 0x1807 [0x80] LOAD_WAIT(entity=Unnamed NPC (ID: 17719571/0x010E6113))
  2: 0x180C [0x29] REQ_SET_WAIT(priority=0x05, entity_id=Hantileon (ID: 17719570/0x010E6112), tag_num=0x09)
  3: 0x1813 [0x45] LOAD_SCHEDULED_TASK(work_offset1=198*, entity1=EventEntity, entity2=EventEntity, scheduler_id="s170", work_offset2=0*)
  4: 0x1824 [0x1C] WAIT(60* ticks)
  5: 0x1827 [0x45] LOAD_SCHEDULED_TASK(work_offset1=200*, entity1=EventEntity, entity2=EventEntity, scheduler_id="fdi1", work_offset2=0*)
  6: 0x1838 [0x1C] WAIT(60* ticks)
  7: 0x183B [0x27] REQ_SET(priority=0x05, entity_id=Hantileon (ID: 17719570/0x010E6112), tag_num=0x0A)
  8: 0x1842 [0x2B] Hantileon (ID: 17719570/0x010E6112) [11141*]:
    → "We have been taking good care of your egg. I cannot wait to see how the chick will look.\u007F1\u0000\u0007"
  9: 0x1849 [0x23] WAIT_FOR_DIALOG_INTERACTION
 10: 0x184A [0x00] END_REQSTACK()
```
