# Event 65535

## Metadata

| Field           | Value    |
|-----------------|----------|
| Event Index     | 88/113   |
| Offset          | 0x24B8   |
| Data Size       | 63 bytes |
| Calculated Size | 63 bytes |
| Instructions    | 10       |

```
      00 01 02 03 04 05 06 07  08 09 0A 0B 0C 0D 0E 0F
      -- -- -- -- -- -- -- --  -- -- -- -- -- -- -- --
24B0:                          1A 7F 2B 02 4A 10 0D 80          ..+.J...
24C0: 00 EB 24 45 0E 80 F8 FF  FF 7F F8 FF FF 7F 73 32  ..$E..........s2
24D0: 30 32 0A 80 1C 57 80 45  09 80 F8 FF FF 7F F8 FF  02...W.E........
24E0: FF 7F 66 64 69 31 0A 80  1C 0C 80 2B 12 61 0E 01  ..fdi1.....+.a..
24F0: 9B 80 23 1A 8A 2B 00                              ..#..+.         
```

## Opcodes

```
  0: 0x24B8 [0x1A] CALL_SUBROUTINE(address=0x2B7F)
  1: 0x24BB [0x02] IF !(Work_Zone[74] == 1*) GOTO 0x24EB
  2: 0x24C3 [0x45] LOAD_SCHEDULED_TASK: Load scheduler "s202" with entities [EventEntity, EventEntity], work=[254*, 0*]
  3: 0x24D4 [0x1C] WAIT(15* ticks)
  4: 0x24D7 [0x45] LOAD_SCHEDULED_TASK: Load scheduler "fdi1" with entities [EventEntity, EventEntity], work=[200*, 0*]
  5: 0x24E8 [0x1C] WAIT(60* ticks)
  6: 0x24EB [0x2B] Hantileon (ID: 17719570/0x010E6112) [11110*]:
    → "\u0001\u0005\u0004\u0002\u0000\u0000\u0000 seems quite perky lately. It should be responsive to anything you give it now.\u007F1\u0000\u0007"
  7: 0x24F2 [0x23] WAIT_FOR_DIALOG_INTERACTION
  8: 0x24F3 [0x1A] CALL_SUBROUTINE(address=0x2B8A)
  9: 0x24F6 [0x00] END_REQSTACK()
```
