# Event 65535

## Metadata

| Field           | Value    |
|-----------------|----------|
| Event Index     | 96/113   |
| Offset          | 0x26C2   |
| Data Size       | 63 bytes |
| Calculated Size | 63 bytes |
| Instructions    | 10       |

```
      00 01 02 03 04 05 06 07  08 09 0A 0B 0C 0D 0E 0F
      -- -- -- -- -- -- -- --  -- -- -- -- -- -- -- --
26C0:       1A 7F 2B 02 4A 10  0D 80 00 F5 26 45 0E 80    ..+.J.....&E..
26D0: F8 FF FF 7F F8 FF FF 7F  73 32 30 32 0A 80 1C 57  ........s202...W
26E0: 80 45 09 80 F8 FF FF 7F  F8 FF FF 7F 66 64 69 31  .E..........fdi1
26F0: 0A 80 1C 0C 80 2B 12 61  0E 01 A2 80 23 1A 8A 2B  .....+.a....#..+
2700: 00                                                .               
```

## Opcodes

```
  0: 0x26C2 [0x1A] CALL_SUBROUTINE(address=0x2B7F)
  1: 0x26C5 [0x02] IF !(Work_Zone[74] == 1*) GOTO 0x26F5
  2: 0x26CD [0x45] LOAD_SCHEDULED_TASK: Load scheduler "s202" with entities [EventEntity, EventEntity], work=[254*, 0*]
  3: 0x26DE [0x1C] WAIT(15* ticks)
  4: 0x26E1 [0x45] LOAD_SCHEDULED_TASK: Load scheduler "fdi1" with entities [EventEntity, EventEntity], work=[200*, 0*]
  5: 0x26F2 [0x1C] WAIT(60* ticks)
  6: 0x26F5 [0x2B] Hantileon (ID: 17719570/0x010E6112) [11130*]:
    → "\u0001\u0005\u0004\u0002\u0000\u0000\u0000 seems unusually bright and focused today!\u0007Now's your chance to get in some rigorous mental training!\u007F1\u0000\u0007"
  7: 0x26FC [0x23] WAIT_FOR_DIALOG_INTERACTION
  8: 0x26FD [0x1A] CALL_SUBROUTINE(address=0x2B8A)
  9: 0x2700 [0x00] END_REQSTACK()
```
