# Event 65535

## Metadata

| Field           | Value    |
|-----------------|----------|
| Event Index     | 42/113   |
| Offset          | 0x1DDF   |
| Data Size       | 64 bytes |
| Calculated Size | 64 bytes |
| Instructions    | 8        |

```
      00 01 02 03 04 05 06 07  08 09 0A 0B 0C 0D 0E 0F
      -- -- -- -- -- -- -- --  -- -- -- -- -- -- -- --
1DD0:                                               1C                 .
1DE0: 0C 80 45 09 80 F8 FF FF  7F F8 FF FF 7F 66 64 69  ..E..........fdi
1DF0: 31 0A 80 1C 0C 80 45 5D  80 F8 FF FF 7F F8 FF FF  1.....E]........
1E00: 7F 73 30 39 34 0A 80 5B  5E 80 19 61 0E 01 19 61  .s094..[^..a...a
1E10: 0E 01 66 75 72 69 2B 12  61 0E 01 5F 80 23 00     ..furi+.a.._.#. 
```

## Opcodes

```
  0: 0x1DDF [0x1C] WAIT(60* ticks)
  1: 0x1DE2 [0x45] LOAD_SCHEDULED_TASK(work_offset1=200*, entity1=EventEntity, entity2=EventEntity, scheduler_id="fdi1", work_offset2=0*)
  2: 0x1DF3 [0x1C] WAIT(60* ticks)
  3: 0x1DF6 [0x45] LOAD_SCHEDULED_TASK(work_offset1=255*, entity1=EventEntity, entity2=EventEntity, scheduler_id="s094", work_offset2=0*)
  4: 0x1E07 [0x5B] LOAD_EXT_SCHEDULER(work_offset=223*, entity1=Unnamed NPC (ID: 17719577/0x010E6119), entity2=Unnamed NPC (ID: 17719577/0x010E6119), action="furi")
  5: 0x1E16 [0x2B] Hantileon (ID: 17719570/0x010E6112) [11070*]:
    → "\u0001\u0005\u0004\u0002\u0000\u0000\u0000 has finally grown large enough to ride! Just look at that graceful plumage!\u007F1\u0000\u0007"
  6: 0x1E1D [0x23] WAIT_FOR_DIALOG_INTERACTION
  7: 0x1E1E [0x00] END_REQSTACK()
```
