# Event 65535

## Metadata

| Field           | Value    |
|-----------------|----------|
| Event Index     | 109/113  |
| Offset          | 0x29F7   |
| Data Size       | 63 bytes |
| Calculated Size | 63 bytes |
| Instructions    | 10       |

```
      00 01 02 03 04 05 06 07  08 09 0A 0B 0C 0D 0E 0F
      -- -- -- -- -- -- -- --  -- -- -- -- -- -- -- --
29F0:                      1A  7F 2B 02 4A 10 0D 80 00         ..+.J....
2A00: 2A 2A 45 0E 80 F8 FF FF  7F F8 FF FF 7F 73 32 30  **E..........s20
2A10: 32 0A 80 1C 57 80 45 09  80 F8 FF FF 7F F8 FF FF  2...W.E.........
2A20: 7F 66 64 69 31 0A 80 1C  0C 80 2B 12 61 0E 01 40  .fdi1.....+.a..@
2A30: 80 23 1A 8A 2B 00                                 .#..+.          
```

## Opcodes

```
  0: 0x29F7 [0x1A] CALL_SUBROUTINE(address=0x2B7F)
  1: 0x29FA [0x02] IF !(Work_Zone[74] == 1*) GOTO 0x2A2A
  2: 0x2A02 [0x45] LOAD_SCHEDULED_TASK: Load scheduler "s202" with entities [EventEntity, EventEntity], work=[254*, 0*]
  3: 0x2A13 [0x1C] WAIT(15* ticks)
  4: 0x2A16 [0x45] LOAD_SCHEDULED_TASK: Load scheduler "fdi1" with entities [EventEntity, EventEntity], work=[200*, 0*]
  5: 0x2A27 [0x1C] WAIT(60* ticks)
  6: 0x2A2A [0x2B] Hantileon (ID: 17719570/0x010E6112) [11129*]:
    → "\u0001\u0005\u0004\u0002\u0000\u0000\u0000 has burned through that excess energy and calmed down a little.\u007F1\u0000\u0007"
  7: 0x2A31 [0x23] WAIT_FOR_DIALOG_INTERACTION
  8: 0x2A32 [0x1A] CALL_SUBROUTINE(address=0x2B8A)
  9: 0x2A35 [0x00] END_REQSTACK()
```
