# Event 65535

## Metadata

| Field           | Value    |
|-----------------|----------|
| Event Index     | 101/113  |
| Offset          | 0x27FD   |
| Data Size       | 63 bytes |
| Calculated Size | 63 bytes |
| Instructions    | 10       |

```
      00 01 02 03 04 05 06 07  08 09 0A 0B 0C 0D 0E 0F
      -- -- -- -- -- -- -- --  -- -- -- -- -- -- -- --
27F0:                                         1A 7F 2B               ..+
2800: 02 4A 10 0D 80 00 30 28  45 0E 80 F8 FF FF 7F F8  .J....0(E.......
2810: FF FF 7F 73 32 30 32 0A  80 1C 57 80 45 09 80 F8  ...s202...W.E...
2820: FF FF 7F F8 FF FF 7F 66  64 69 31 0A 80 1C 0C 80  .......fdi1.....
2830: 2B 12 61 0E 01 3F 80 23  1A 8A 2B 00              +.a..?.#..+.    
```

## Opcodes

```
  0: 0x27FD [0x1A] CALL_SUBROUTINE(address=0x2B7F)
  1: 0x2800 [0x02] IF !(Work_Zone[74] == 1*) GOTO 0x2830
  2: 0x2808 [0x45] LOAD_SCHEDULED_TASK(work_offset1=254*, entity1=EventEntity, entity2=EventEntity, scheduler_id="s202", work_offset2=0*)
  3: 0x2819 [0x1C] WAIT(15* ticks)
  4: 0x281C [0x45] LOAD_SCHEDULED_TASK(work_offset1=200*, entity1=EventEntity, entity2=EventEntity, scheduler_id="fdi1", work_offset2=0*)
  5: 0x282D [0x1C] WAIT(60* ticks)
  6: 0x2830 [0x2B] Hantileon (ID: 17719570/0x010E6112) [11111*]:
    → "\u0001\u0005\u0004\u0002\u0000\u0000\u0000 seems to have had its fill and has calmed down.\u007F1\u0000\u0007"
  7: 0x2837 [0x23] WAIT_FOR_DIALOG_INTERACTION
  8: 0x2838 [0x1A] CALL_SUBROUTINE(address=0x2B8A)
  9: 0x283B [0x00] END_REQSTACK()
```
