# 17788975 - Datta

## Common Data

| Field            | Value           |
|------------------|-----------------|
| Zone             | Rabao (ID: 247) |
| Block Size       | 364 bytes       |
| Total Events     | 8               |
| References Count | 12              |

## List of Events

| Event ID              | Entrypoint   |   Size |   Instructions |
|-----------------------|--------------|--------|----------------|
| [65535](#event-65535) | 0x0000       |      1 |              1 |
| [73](#event-73)       | 0x0001       |     39 |              7 |
| [74](#event-74)       | 0x0028       |     87 |             17 |
| [75](#event-75)       | 0x007F       |    110 |             18 |
| [155](#event-155)     | 0x00ED       |      7 |              2 |
| [156](#event-156)     | 0x00F4       |      7 |              2 |
| [157](#event-157)     | 0x00FB       |      7 |              2 |
| [158](#event-158)     | 0x0102       |      7 |              2 |

## DAT References (imed_data)

|   Index | Hex Value   |   Dec Value |
|---------|-------------|-------------|
|       0 | 0x0000      |           0 |
|       1 | 0x27E4      |       10212 |
|       2 | 0x003C      |          60 |
|       3 | 0x27E5      |       10213 |
|       4 | 0x27E6      |       10214 |
|       5 | 0x27E7      |       10215 |
|       6 | 0x27E8      |       10216 |
|       7 | 0x27E9      |       10217 |
|       8 | 0x27EA      |       10218 |
|       9 | 0x27EB      |       10219 |
|      10 | 0x27EC      |       10220 |
|      11 | 0x00C9      |         201 |

## String References

- **10212**: There must be a way to make a quick gil in this untouched territory...
- **10213**: Hey [buddy/lady], I got a proposition for you. I'm trying to start up a new business in this area. I'm gonna call it..."Kuftal Tourist Services"!
- **10214**: I'm planning a tour that will take people to all the mysterious places that can be found on Zepwell Island...
- **10215**: But first, I'm gonna need someone to scope out the area for me and... What? You say you've heard this spiel before? Well, just bear with me.
- **10216**: So's I can show you don't have to be a high-level adventurer to enjoy this tour, I want you to party with only people level forty or below. Then, head to the cliff that's just inside the entrance to the Kuftal Tunnel.
- **10217**: You should meet my partner there--goes by the name of Hawk Nose.
- **10218**: Huh? It's definitely not a place for sightseeing? That's weird. I'd heard the Galka consider it to be a place of legend...
- **10219**: I was trying to imitate my sister's business in Bastok, but things just don't seem to be working out.
- **10220**: Well, when I find a new place for my tour, I'll call on your services again. Here's your fee.

## Events

### Event 65535

#### Metadata

| Field        | Value   |
|--------------|---------|
| Entrypoint   | 0x0000  |
| Data Size    | 1 bytes |
| Instructions | 1       |

```
      00 01 02 03 04 05 06 07  08 09 0A 0B 0C 0D 0E 0F
      -- -- -- -- -- -- -- --  -- -- -- -- -- -- -- --
0000: 00                                                .               
```

#### Opcodes

```
  0: 0x0000 [0x00] END_REQSTACK()
```

### Event 73

#### Metadata

| Field        | Value    |
|--------------|----------|
| Entrypoint   | 0x0001   |
| Data Size    | 39 bytes |
| Instructions | 7        |

```
      00 01 02 03 04 05 06 07  08 09 0A 0B 0C 0D 0E 0F
      -- -- -- -- -- -- -- --  -- -- -- -- -- -- -- --
0000:    66 00 80 F8 FF FF 7F  F8 FF FF 7F 74 68 6B 31   f..........thk1
0010: 1D 01 80 23 66 00 80 F8  FF FF 7F F8 FF FF 7F 74  ...#f..........t
0020: 68 6B 32 1C 02 80 21 00                           hk2...!.        
```

#### Opcodes

```
  0: 0x0001 [0x66] LOAD_EXT_SCHEDULER_MAIN: Load scheduler "thk1" with entities [EventEntity, EventEntity], work=0*
  1: 0x0010 [0x1D] PRINT_EVENT_MESSAGE(message_id=10212*)
    → "There must be a way to make a quick gil in this untouched territory..."
  2: 0x0013 [0x23] WAIT_FOR_DIALOG_INTERACTION
  3: 0x0014 [0x66] LOAD_EXT_SCHEDULER_MAIN: Load scheduler "thk2" with entities [EventEntity, EventEntity], work=0*
  4: 0x0023 [0x1C] WAIT(60* ticks)
  5: 0x0026 [0x21] END_EVENT
  6: 0x0027 [0x00] END_REQSTACK()
```

### Event 74

#### Metadata

| Field        | Value    |
|--------------|----------|
| Entrypoint   | 0x0028   |
| Data Size    | 87 bytes |
| Instructions | 17       |

```
      00 01 02 03 04 05 06 07  08 09 0A 0B 0C 0D 0E 0F
      -- -- -- -- -- -- -- --  -- -- -- -- -- -- -- --
0020:                          1E F0 FF FF 7F 1D 03 80          ........
0030: 23 66 00 80 F8 FF FF 7F  F8 FF FF 7F 74 6C 6B 30  #f..........tlk0
0040: 1D 04 80 23 66 00 80 F8  FF FF 7F F8 FF FF 7F 74  ...#f..........t
0050: 65 6E 30 1D 05 80 23 66  00 80 F8 FF FF 7F F8 FF  en0...#f........
0060: FF 7F 74 6C 6B 31 1D 06  80 23 66 00 80 F8 FF FF  ..tlk1...#f.....
0070: 7F F8 FF FF 7F 74 65 6E  31 1D 07 80 23 21 00     .....ten1...#!. 
```

#### Opcodes

```
  0: 0x0028 [0x1E] EventEntity looks at LocalPlayer and starts talking
  1: 0x002D [0x1D] PRINT_EVENT_MESSAGE(message_id=10213*)
    → "Hey [buddy/lady], I got a proposition for you. I'm trying to start up a new business in this area. I'm gonna call it..."Kuftal Tourist Services"!"
  2: 0x0030 [0x23] WAIT_FOR_DIALOG_INTERACTION
  3: 0x0031 [0x66] LOAD_EXT_SCHEDULER_MAIN: Load scheduler "tlk0" with entities [EventEntity, EventEntity], work=0*
  4: 0x0040 [0x1D] PRINT_EVENT_MESSAGE(message_id=10214*)
    → "I'm planning a tour that will take people to all the mysterious places that can be found on Zepwell Island..."
  5: 0x0043 [0x23] WAIT_FOR_DIALOG_INTERACTION
  6: 0x0044 [0x66] LOAD_EXT_SCHEDULER_MAIN: Load scheduler "ten0" with entities [EventEntity, EventEntity], work=0*
  7: 0x0053 [0x1D] PRINT_EVENT_MESSAGE(message_id=10215*)
    → "But first, I'm gonna need someone to scope out the area for me and... What? You say you've heard this spiel before? Well, just bear with me."
  8: 0x0056 [0x23] WAIT_FOR_DIALOG_INTERACTION
  9: 0x0057 [0x66] LOAD_EXT_SCHEDULER_MAIN: Load scheduler "tlk1" with entities [EventEntity, EventEntity], work=0*
 10: 0x0066 [0x1D] PRINT_EVENT_MESSAGE(message_id=10216*)
    → "So's I can show you don't have to be a high-level adventurer to enjoy this tour, I want you to party with only people level forty or below. Then, head to the cliff that's just inside the entrance to the Kuftal Tunnel."
 11: 0x0069 [0x23] WAIT_FOR_DIALOG_INTERACTION
 12: 0x006A [0x66] LOAD_EXT_SCHEDULER_MAIN: Load scheduler "ten1" with entities [EventEntity, EventEntity], work=0*
 13: 0x0079 [0x1D] PRINT_EVENT_MESSAGE(message_id=10217*)
    → "You should meet my partner there--goes by the name of Hawk Nose."
 14: 0x007C [0x23] WAIT_FOR_DIALOG_INTERACTION
 15: 0x007D [0x21] END_EVENT
 16: 0x007E [0x00] END_REQSTACK()
```

### Event 75

#### Metadata

| Field        | Value     |
|--------------|-----------|
| Entrypoint   | 0x007F    |
| Data Size    | 110 bytes |
| Instructions | 18        |

```
      00 01 02 03 04 05 06 07  08 09 0A 0B 0C 0D 0E 0F
      -- -- -- -- -- -- -- --  -- -- -- -- -- -- -- --
0070:                                               42                 B
0080: 1E F0 FF FF 7F 6F 70 1D  08 80 23 66 00 80 F8 FF  .....op...#f....
0090: FF 7F F8 FF FF 7F 74 68  6B 31 1D 09 80 23 66 00  ......thk1...#f.
00A0: 80 F8 FF FF 7F F8 FF FF  7F 74 68 6B 32 53 F8 FF  .........thk2S..
00B0: FF 7F F8 FF FF 7F 74 68  6B 32 66 00 80 F8 FF FF  ......thk2f.....
00C0: 7F F8 FF FF 7F 70 61 73  30 1D 0A 80 23 45 0B 80  .....pas0...#E..
00D0: F0 FF FF 7F F0 FF FF 7F  71 73 74 63 00 80 53 F8  ........qstc..S.
00E0: FF FF 7F F8 FF FF 7F 70  61 73 30 21 00           .......pas0!.   
```

#### Opcodes

```
  0: 0x007F [0x42] SET_CLI_EVENT_CANCEL_DATA()
  1: 0x0080 [0x1E] EventEntity looks at LocalPlayer and starts talking
  2: 0x0085 [0x6F] WAIT_FRAME_DELAY: Yield until WaitTime reaches zero
  3: 0x0086 [0x70] WAIT_ENTITY_RENDER_FLAG: Wait while EventEntity->Render.Flags3 bit 2 is set (cancel turn if not)
  4: 0x0087 [0x1D] PRINT_EVENT_MESSAGE(message_id=10218*)
    → "Huh? It's definitely not a place for sightseeing? That's weird. I'd heard the Galka consider it to be a place of legend..."
  5: 0x008A [0x23] WAIT_FOR_DIALOG_INTERACTION
  6: 0x008B [0x66] LOAD_EXT_SCHEDULER_MAIN: Load scheduler "thk1" with entities [EventEntity, EventEntity], work=0*
  7: 0x009A [0x1D] PRINT_EVENT_MESSAGE(message_id=10219*)
    → "I was trying to imitate my sister's business in Bastok, but things just don't seem to be working out."
  8: 0x009D [0x23] WAIT_FOR_DIALOG_INTERACTION
  9: 0x009E [0x66] LOAD_EXT_SCHEDULER_MAIN: Load scheduler "thk2" with entities [EventEntity, EventEntity], work=0*
 10: 0x00AD [0x53] WAIT_SCHEDULER_TASK: Wait for scheduler "thk2" with entities [EventEntity, EventEntity]
 11: 0x00BA [0x66] LOAD_EXT_SCHEDULER_MAIN: Load scheduler "pas0" with entities [EventEntity, EventEntity], work=0*
 12: 0x00C9 [0x1D] PRINT_EVENT_MESSAGE(message_id=10220*)
    → "Well, when I find a new place for my tour, I'll call on your services again. Here's your fee."
 13: 0x00CC [0x23] WAIT_FOR_DIALOG_INTERACTION
 14: 0x00CD [0x45] LOAD_SCHEDULED_TASK: Load scheduler "qstc" with entities [LocalPlayer, LocalPlayer], work=[201*, 0*]
 15: 0x00DE [0x53] WAIT_SCHEDULER_TASK: Wait for scheduler "pas0" with entities [EventEntity, EventEntity]
 16: 0x00EB [0x21] END_EVENT
 17: 0x00EC [0x00] END_REQSTACK()
```

### Event 155

#### Metadata

| Field        | Value   |
|--------------|---------|
| Entrypoint   | 0x00ED  |
| Data Size    | 7 bytes |
| Instructions | 2       |

```
      00 01 02 03 04 05 06 07  08 09 0A 0B 0C 0D 0E 0F
      -- -- -- -- -- -- -- --  -- -- -- -- -- -- -- --
00E0:                                         92 01 F8               ...
00F0: FF FF 7F 00                                       ....            
```

#### Opcodes

```
  0: 0x00ED [0x92] EventEntity->Render.Flags3 ^= 0x01
  1: 0x00F3 [0x00] END_REQSTACK()
```

### Event 156

#### Metadata

| Field        | Value   |
|--------------|---------|
| Entrypoint   | 0x00F4  |
| Data Size    | 7 bytes |
| Instructions | 2       |

```
      00 01 02 03 04 05 06 07  08 09 0A 0B 0C 0D 0E 0F
      -- -- -- -- -- -- -- --  -- -- -- -- -- -- -- --
00F0:             92 01 F8 FF  FF 7F 00                     .......     
```

#### Opcodes

```
  0: 0x00F4 [0x92] EventEntity->Render.Flags3 ^= 0x01
  1: 0x00FA [0x00] END_REQSTACK()
```

### Event 157

#### Metadata

| Field        | Value   |
|--------------|---------|
| Entrypoint   | 0x00FB  |
| Data Size    | 7 bytes |
| Instructions | 2       |

```
      00 01 02 03 04 05 06 07  08 09 0A 0B 0C 0D 0E 0F
      -- -- -- -- -- -- -- --  -- -- -- -- -- -- -- --
00F0:                                   92 01 F8 FF FF             .....
0100: 7F 00                                             ..              
```

#### Opcodes

```
  0: 0x00FB [0x92] EventEntity->Render.Flags3 ^= 0x01
  1: 0x0101 [0x00] END_REQSTACK()
```

### Event 158

#### Metadata

| Field        | Value   |
|--------------|---------|
| Entrypoint   | 0x0102  |
| Data Size    | 7 bytes |
| Instructions | 2       |

```
      00 01 02 03 04 05 06 07  08 09 0A 0B 0C 0D 0E 0F
      -- -- -- -- -- -- -- --  -- -- -- -- -- -- -- --
0100:       92 01 F8 FF FF 7F  00                         .......       
```

#### Opcodes

```
  0: 0x0102 [0x92] EventEntity->Render.Flags3 ^= 0x01
  1: 0x0108 [0x00] END_REQSTACK()
```
