# 17788938 - Alfesar

## Common Data

| Field            | Value           |
|------------------|-----------------|
| Zone             | Rabao (ID: 247) |
| Block Size       | 748 bytes       |
| Total Events     | 10              |
| References Count | 27              |

## List of Events

| Event ID              | Entrypoint   |   Size |   Instructions |
|-----------------------|--------------|--------|----------------|
| [65535](#event-65535) | 0x0000       |      1 |              1 |
| [52](#event-52)       | 0x0001       |      9 |              5 |
| [6](#event-6)         | 0x000A       |    143 |             29 |
| [7](#event-7)         | 0x0099       |     41 |              9 |
| [8](#event-8)         | 0x00C2       |     61 |             13 |
| [9](#event-9)         | 0x00FF       |      9 |              5 |
| [10](#event-10)       | 0x0108       |     37 |              7 |
| [11](#event-11)       | 0x012D       |    259 |             38 |
| [13](#event-13)       | 0x0230       |     12 |              3 |
| [15](#event-15)       | 0x023C       |     12 |              3 |

## DAT References (imed_data)

|   Index | Hex Value   |   Dec Value |
|---------|-------------|-------------|
|       0 | 0x2703      |        9987 |
|       1 | 0x2704      |        9988 |
|       2 | 0x0014      |          20 |
|       3 | 0x2705      |        9989 |
|       4 | 0x2706      |        9990 |
|       5 | 0x2707      |        9991 |
|       6 | 0x2708      |        9992 |
|       7 | 0x2709      |        9993 |
|       8 | 0x270A      |        9994 |
|       9 | 0x270B      |        9995 |
|      10 | 0x270C      |        9996 |
|      11 | 0x270D      |        9997 |
|      12 | 0x270E      |        9998 |
|      13 | 0x270F      |        9999 |
|      14 | 0x2710      |       10000 |
|      15 | 0x2711      |       10001 |
|      16 | 0x2712      |       10002 |
|      17 | 0x0000      |           0 |
|      18 | 0x000A      |          10 |
|      19 | 0x001E      |          30 |
|      20 | 0x0028      |          40 |
|      21 | 0x0032      |          50 |
|      22 | 0x003C      |          60 |
|      23 | 0x0005      |           5 |
|      24 | 0x0050      |          80 |
|      25 | 0x00EE      |         238 |
|      26 | 0x0236      |         566 |

## String References

- **9987**: I am Alfesar, a friar from the San d'Oria Cathedral. I have come to study the Altepa Desert and its surroundings.
- **9988**: Until only recently, the monster-infested Korroloka Tunnel has been a barrier between the Quon continent and Zepwell Island. But with the clearing of that tunnel, I was able to make my way here.
- **9989**: On your way here to Rabao, I'm sure you saw the ruins of ages past half-buried in the sand. I have been given the task of investigating those ruins.
- **9990**: Several days ago, a researcher I hired brought back $6 inscribed with ancient writings. He found it in the expansive Quicksand Caves that lie beneath the Altepa Desert.
- **9991**: This was a major discovery. According to a scholar of ancient literature, the inscription on the tablet appears to be some kind of spell.
- **9992**: Unfortunately, with an important part of the tablet broken away, we were unable to decipher the full meaning.
- **9993**: I am still undergoing training and do not possess the ability to survive a foray into a place like the Quicksand Caves. And so, I turn to you.
- **9994**: <Player>, you are highly regarded as an accomplished adventurer. I wish to employ you to venture into the Quicksand Caves and find the remaining $3.
- **9995**: I humbly beg this favor of you.
- **9996**: The tablet I have was found in the Quicksand Caves that lie beneath the Altepa Desert. The $3 will most likely be among other rubble and debris.
- **9997**: Yes... This is, without a doubt, the $3.
- **9998**: Please take the completed $3 and this letter of introduction.
- **9999**: With these in your possession, go and meet with Charlaimagnat on the lower level of the San d'Oria Cathedral.
- **10000**: Please hand this letter of introduction and the $3 to Charlaimagnat. He can be found on the lower level of the San d'Oria Cathedral.
- **10001**: Ah, <Player>. I received a letter from Charlaimagnat informing me of the safe arrival of the $3. I am most grateful for your assistance.
- **10002**: You have performed a great service for us. <Player>, may Paradise open its gates to you.

## Events

### Event 65535

#### Metadata

| Field        | Value   |
|--------------|---------|
| Entrypoint   | 0x0000  |
| Data Size    | 1 bytes |
| Instructions | 1       |

```
      00 01 02 03 04 05 06 07  08 09 0A 0B 0C 0D 0E 0F
      -- -- -- -- -- -- -- --  -- -- -- -- -- -- -- --
0000: 00                                                .               
```

#### Opcodes

```
  0: 0x0000 [0x00] END_REQSTACK()
```

### Event 52

#### Metadata

| Field        | Value   |
|--------------|---------|
| Entrypoint   | 0x0001  |
| Data Size    | 9 bytes |
| Instructions | 5       |

```
      00 01 02 03 04 05 06 07  08 09 0A 0B 0C 0D 0E 0F
      -- -- -- -- -- -- -- --  -- -- -- -- -- -- -- --
0000:    1A 52 01 1D 00 80 23  21 00                     .R....#!.      
```

#### Opcodes

```
  0: 0x0001 [0x1A] CALL_SUBROUTINE(address=0x0152)
  1: 0x0004 [0x1D] PRINT_EVENT_MESSAGE(message_id=9987*)
    → "I am Alfesar, a friar from the San d'Oria Cathedral. I have come to study the Altepa Desert and its surroundings."
  2: 0x0007 [0x23] WAIT_FOR_DIALOG_INTERACTION
  3: 0x0008 [0x21] END_EVENT
  4: 0x0009 [0x00] END_REQSTACK()
```

### Event 6

#### Metadata

| Field        | Value     |
|--------------|-----------|
| Entrypoint   | 0x000A    |
| Data Size    | 143 bytes |
| Instructions | 29        |

```
      00 01 02 03 04 05 06 07  08 09 0A 0B 0C 0D 0E 0F
      -- -- -- -- -- -- -- --  -- -- -- -- -- -- -- --
0000:                                42 1A 52 01 1D 00            B.R...
0010: 80 23 1D 01 80 23 5B 02  80 F8 FF FF 7F F8 FF FF  .#...#[.........
0020: 7F 74 68 6B 31 1D 03 80  23 1D 04 80 23 5B 02 80  .thk1...#...#[..
0030: F8 FF FF 7F F8 FF FF 7F  74 68 6B 32 1D 05 80 23  ........thk2...#
0040: 1D 06 80 23 5B 02 80 F8  FF FF 7F F8 FF FF 7F 74  ...#[..........t
0050: 6C 6B 30 1D 07 80 23 1D  08 80 23 5B 02 80 F8 FF  lk0...#...#[....
0060: FF 7F F8 FF FF 7F 74 6C  6B 31 53 F8 FF FF 7F F8  ......tlk1S.....
0070: FF FF 7F 74 6C 6B 31 1D  09 80 23 5B 02 80 F8 FF  ...tlk1...#[....
0080: FF 7F F8 FF FF 7F 69 6E  6F 30 53 F8 FF FF 7F F8  ......ino0S.....
0090: FF FF 7F 69 6E 6F 30 21  00                       ...ino0!.       
```

#### Opcodes

```
  0: 0x000A [0x42] SET_CLI_EVENT_CANCEL_DATA()
  1: 0x000B [0x1A] CALL_SUBROUTINE(address=0x0152)
  2: 0x000E [0x1D] PRINT_EVENT_MESSAGE(message_id=9987*)
    → "I am Alfesar, a friar from the San d'Oria Cathedral. I have come to study the Altepa Desert and its surroundings."
  3: 0x0011 [0x23] WAIT_FOR_DIALOG_INTERACTION
  4: 0x0012 [0x1D] PRINT_EVENT_MESSAGE(message_id=9988*)
    → "Until only recently, the monster-infested Korroloka Tunnel has been a barrier between the Quon continent and Zepwell Island. But with the clearing of that tunnel, I was able to make my way here."
  5: 0x0015 [0x23] WAIT_FOR_DIALOG_INTERACTION
  6: 0x0016 [0x5B] LOAD_EXT_SCHEDULER: Load scheduler "thk1" with entities [EventEntity, EventEntity], work=20*
  7: 0x0025 [0x1D] PRINT_EVENT_MESSAGE(message_id=9989*)
    → "On your way here to Rabao, I'm sure you saw the ruins of ages past half-buried in the sand. I have been given the task of investigating those ruins."
  8: 0x0028 [0x23] WAIT_FOR_DIALOG_INTERACTION
  9: 0x0029 [0x1D] PRINT_EVENT_MESSAGE(message_id=9990*)
    → "Several days ago, a researcher I hired brought back $6 inscribed with ancient writings. He found it in the expansive Quicksand Caves that lie beneath the Altepa Desert."
 10: 0x002C [0x23] WAIT_FOR_DIALOG_INTERACTION
 11: 0x002D [0x5B] LOAD_EXT_SCHEDULER: Load scheduler "thk2" with entities [EventEntity, EventEntity], work=20*
 12: 0x003C [0x1D] PRINT_EVENT_MESSAGE(message_id=9991*)
    → "This was a major discovery. According to a scholar of ancient literature, the inscription on the tablet appears to be some kind of spell."
 13: 0x003F [0x23] WAIT_FOR_DIALOG_INTERACTION
 14: 0x0040 [0x1D] PRINT_EVENT_MESSAGE(message_id=9992*)
    → "Unfortunately, with an important part of the tablet broken away, we were unable to decipher the full meaning."
 15: 0x0043 [0x23] WAIT_FOR_DIALOG_INTERACTION
 16: 0x0044 [0x5B] LOAD_EXT_SCHEDULER: Load scheduler "tlk0" with entities [EventEntity, EventEntity], work=20*
 17: 0x0053 [0x1D] PRINT_EVENT_MESSAGE(message_id=9993*)
    → "I am still undergoing training and do not possess the ability to survive a foray into a place like the Quicksand Caves. And so, I turn to you."
 18: 0x0056 [0x23] WAIT_FOR_DIALOG_INTERACTION
 19: 0x0057 [0x1D] PRINT_EVENT_MESSAGE(message_id=9994*)
    → "<Player>, you are highly regarded as an accomplished adventurer. I wish to employ you to venture into the Quicksand Caves and find the remaining $3."
 20: 0x005A [0x23] WAIT_FOR_DIALOG_INTERACTION
 21: 0x005B [0x5B] LOAD_EXT_SCHEDULER: Load scheduler "tlk1" with entities [EventEntity, EventEntity], work=20*
 22: 0x006A [0x53] WAIT_SCHEDULER_TASK: Wait for scheduler "tlk1" with entities [EventEntity, EventEntity]
 23: 0x0077 [0x1D] PRINT_EVENT_MESSAGE(message_id=9995*)
    → "I humbly beg this favor of you."
 24: 0x007A [0x23] WAIT_FOR_DIALOG_INTERACTION
 25: 0x007B [0x5B] LOAD_EXT_SCHEDULER: Load scheduler "ino0" with entities [EventEntity, EventEntity], work=20*
 26: 0x008A [0x53] WAIT_SCHEDULER_TASK: Wait for scheduler "ino0" with entities [EventEntity, EventEntity]
 27: 0x0097 [0x21] END_EVENT
 28: 0x0098 [0x00] END_REQSTACK()
```

### Event 7

#### Metadata

| Field        | Value    |
|--------------|----------|
| Entrypoint   | 0x0099   |
| Data Size    | 41 bytes |
| Instructions | 9        |

```
      00 01 02 03 04 05 06 07  08 09 0A 0B 0C 0D 0E 0F
      -- -- -- -- -- -- -- --  -- -- -- -- -- -- -- --
0090:                             1A 52 01 1D 0A 80 23           .R....#
00A0: 1D 09 80 23 5B 02 80 F8  FF FF 7F F8 FF FF 7F 69  ...#[..........i
00B0: 6E 6F 30 53 F8 FF FF 7F  F8 FF FF 7F 69 6E 6F 30  no0S........ino0
00C0: 21 00                                             !.              
```

#### Opcodes

```
  0: 0x0099 [0x1A] CALL_SUBROUTINE(address=0x0152)
  1: 0x009C [0x1D] PRINT_EVENT_MESSAGE(message_id=9996*)
    → "The tablet I have was found in the Quicksand Caves that lie beneath the Altepa Desert. The $3 will most likely be among other rubble and debris."
  2: 0x009F [0x23] WAIT_FOR_DIALOG_INTERACTION
  3: 0x00A0 [0x1D] PRINT_EVENT_MESSAGE(message_id=9995*)
    → "I humbly beg this favor of you."
  4: 0x00A3 [0x23] WAIT_FOR_DIALOG_INTERACTION
  5: 0x00A4 [0x5B] LOAD_EXT_SCHEDULER: Load scheduler "ino0" with entities [EventEntity, EventEntity], work=20*
  6: 0x00B3 [0x53] WAIT_SCHEDULER_TASK: Wait for scheduler "ino0" with entities [EventEntity, EventEntity]
  7: 0x00C0 [0x21] END_EVENT
  8: 0x00C1 [0x00] END_REQSTACK()
```

### Event 8

#### Metadata

| Field        | Value    |
|--------------|----------|
| Entrypoint   | 0x00C2   |
| Data Size    | 61 bytes |
| Instructions | 13       |

```
      00 01 02 03 04 05 06 07  08 09 0A 0B 0C 0D 0E 0F
      -- -- -- -- -- -- -- --  -- -- -- -- -- -- -- --
00C0:       42 1A 52 01 5B 02  80 F8 FF FF 7F F8 FF FF    B.R.[.........
00D0: 7F 74 6C 6B 30 1D 0B 80  23 1D 0C 80 23 1D 0D 80  .tlk0...#...#...
00E0: 23 5B 02 80 F8 FF FF 7F  F8 FF FF 7F 74 6C 6B 31  #[..........tlk1
00F0: 53 F8 FF FF 7F F8 FF FF  7F 74 6C 6B 31 21 00     S........tlk1!. 
```

#### Opcodes

```
  0: 0x00C2 [0x42] SET_CLI_EVENT_CANCEL_DATA()
  1: 0x00C3 [0x1A] CALL_SUBROUTINE(address=0x0152)
  2: 0x00C6 [0x5B] LOAD_EXT_SCHEDULER: Load scheduler "tlk0" with entities [EventEntity, EventEntity], work=20*
  3: 0x00D5 [0x1D] PRINT_EVENT_MESSAGE(message_id=9997*)
    → "Yes... This is, without a doubt, the $3."
  4: 0x00D8 [0x23] WAIT_FOR_DIALOG_INTERACTION
  5: 0x00D9 [0x1D] PRINT_EVENT_MESSAGE(message_id=9998*)
    → "Please take the completed $3 and this letter of introduction."
  6: 0x00DC [0x23] WAIT_FOR_DIALOG_INTERACTION
  7: 0x00DD [0x1D] PRINT_EVENT_MESSAGE(message_id=9999*)
    → "With these in your possession, go and meet with Charlaimagnat on the lower level of the San d'Oria Cathedral."
  8: 0x00E0 [0x23] WAIT_FOR_DIALOG_INTERACTION
  9: 0x00E1 [0x5B] LOAD_EXT_SCHEDULER: Load scheduler "tlk1" with entities [EventEntity, EventEntity], work=20*
 10: 0x00F0 [0x53] WAIT_SCHEDULER_TASK: Wait for scheduler "tlk1" with entities [EventEntity, EventEntity]
 11: 0x00FD [0x21] END_EVENT
 12: 0x00FE [0x00] END_REQSTACK()
```

### Event 9

#### Metadata

| Field        | Value   |
|--------------|---------|
| Entrypoint   | 0x00FF  |
| Data Size    | 9 bytes |
| Instructions | 5       |

```
      00 01 02 03 04 05 06 07  08 09 0A 0B 0C 0D 0E 0F
      -- -- -- -- -- -- -- --  -- -- -- -- -- -- -- --
00F0:                                               1A                 .
0100: 52 01 1D 0E 80 23 21 00                           R....#!.        
```

#### Opcodes

```
  0: 0x00FF [0x1A] CALL_SUBROUTINE(address=0x0152)
  1: 0x0102 [0x1D] PRINT_EVENT_MESSAGE(message_id=10000*)
    → "Please hand this letter of introduction and the $3 to Charlaimagnat. He can be found on the lower level of the San d'Oria Cathedral."
  2: 0x0105 [0x23] WAIT_FOR_DIALOG_INTERACTION
  3: 0x0106 [0x21] END_EVENT
  4: 0x0107 [0x00] END_REQSTACK()
```

### Event 10

#### Metadata

| Field        | Value    |
|--------------|----------|
| Entrypoint   | 0x0108   |
| Data Size    | 37 bytes |
| Instructions | 7        |

```
      00 01 02 03 04 05 06 07  08 09 0A 0B 0C 0D 0E 0F
      -- -- -- -- -- -- -- --  -- -- -- -- -- -- -- --
0100:                          1A 52 01 5B 02 80 F8 FF          .R.[....
0110: FF 7F F8 FF FF 7F 69 6E  6F 30 1D 0F 80 23 53 F8  ......ino0...#S.
0120: FF FF 7F F8 FF FF 7F 69  6E 6F 30 21 00           .......ino0!.   
```

#### Opcodes

```
  0: 0x0108 [0x1A] CALL_SUBROUTINE(address=0x0152)
  1: 0x010B [0x5B] LOAD_EXT_SCHEDULER: Load scheduler "ino0" with entities [EventEntity, EventEntity], work=20*
  2: 0x011A [0x1D] PRINT_EVENT_MESSAGE(message_id=10001*)
    → "Ah, <Player>. I received a letter from Charlaimagnat informing me of the safe arrival of the $3. I am most grateful for your assistance."
  3: 0x011D [0x23] WAIT_FOR_DIALOG_INTERACTION
  4: 0x011E [0x53] WAIT_SCHEDULER_TASK: Wait for scheduler "ino0" with entities [EventEntity, EventEntity]
  5: 0x012B [0x21] END_EVENT
  6: 0x012C [0x00] END_REQSTACK()
```

### Event 11

#### Metadata

| Field        | Value     |
|--------------|-----------|
| Entrypoint   | 0x012D    |
| Data Size    | 259 bytes |
| Instructions | 12        |

```
      00 01 02 03 04 05 06 07  08 09 0A 0B 0C 0D 0E 0F
      -- -- -- -- -- -- -- --  -- -- -- -- -- -- -- --
0120:                                         1A 52 01               .R.
0130: 5B 02 80 F8 FF FF 7F F8  FF FF 7F 69 6E 6F 30 1D  [..........ino0.
0140: 10 80 23 53 F8 FF FF 7F  F8 FF FF 7F 69 6E 6F 30  ..#S........ino0
0150: 21 00 86 00 F8 FF FF 7F  1E F0 FF FF 7F 6F 70 1B  !............op.
0160: 66 11 80 F8 FF FF 7F F8  FF FF 7F 74 6C 6B 30 1B  f..........tlk0.
0170: 66 11 80 F8 FF FF 7F F8  FF FF 7F 74 6C 6B 31 1B  f..........tlk1.
0180: 66 12 80 F8 FF FF 7F F8  FF FF 7F 74 6C 6B 30 1B  f..........tlk0.
0190: 66 02 80 F8 FF FF 7F F8  FF FF 7F 74 6C 6B 30 1B  f..........tlk0.
01A0: 66 13 80 F8 FF FF 7F F8  FF FF 7F 74 6C 6B 30 1B  f..........tlk0.
01B0: 66 14 80 F8 FF FF 7F F8  FF FF 7F 74 6C 6B 30 1B  f..........tlk0.
01C0: 66 15 80 F8 FF FF 7F F8  FF FF 7F 74 6C 6B 30 1B  f..........tlk0.
01D0: 66 16 80 F8 FF FF 7F F8  FF FF 7F 74 6C 6B 30 1B  f..........tlk0.
01E0: 5B 17 80 F8 FF FF 7F F8  FF FF 7F 74 6C 6B 30 1B  [..........tlk0.
01F0: 5B 18 80 F8 FF FF 7F F8  FF FF 7F 74 6C 6B 30 1B  [..........tlk0.
0200: 5B 19 80 F8 FF FF 7F F8  FF FF 7F 74 6C 6B 30 1B  [..........tlk0.
0210: 5B 1A 80 F8 FF FF 7F F8  FF FF 7F 74 6C 6B 30 1B  [..........tlk0.
0220: 5B 16 80 F8 FF FF 7F F8  FF FF 7F 74 6C 62 30 1B  [..........tlb0.
```

#### Opcodes

```
  0: 0x012D [0x1A] CALL_SUBROUTINE(address=0x0152)
  1: 0x0130 [0x5B] LOAD_EXT_SCHEDULER: Load scheduler "ino0" with entities [EventEntity, EventEntity], work=20*
  2: 0x013F [0x1D] PRINT_EVENT_MESSAGE(message_id=10002*)
    → "You have performed a great service for us. <Player>, may Paradise open its gates to you."
  3: 0x0142 [0x23] WAIT_FOR_DIALOG_INTERACTION
  4: 0x0143 [0x53] WAIT_SCHEDULER_TASK: Wait for scheduler "ino0" with entities [EventEntity, EventEntity]
  5: 0x0150 [0x21] END_EVENT
  6: 0x0151 [0x00] END_REQSTACK()

SUBROUTINE_0152:
  7: 0x0152 [0x86] EventEntity->Render.Flags3 = Flags3  // No change (flag=0)
  8: 0x0158 [0x1E] EventEntity looks at LocalPlayer and starts talking
  9: 0x015D [0x6F] WAIT_FRAME_DELAY: Yield until WaitTime reaches zero
 10: 0x015E [0x70] WAIT_ENTITY_RENDER_FLAG: Wait while EventEntity->Render.Flags3 bit 2 is set (cancel turn if not)
 11: 0x015F [0x1B] RETURN
```

#### Data or dead code:

```
# Dead code (unreachable instructions):
     0x0160 [0x66] LOAD_EXT_SCHEDULER_MAIN: Load scheduler "tlk0" with entities [EventEntity, EventEntity], work=0*
     0x016F [0x1B] RETURN
     0x0170 [0x66] LOAD_EXT_SCHEDULER_MAIN: Load scheduler "tlk1" with entities [EventEntity, EventEntity], work=0*
     0x017F [0x1B] RETURN
     0x0180 [0x66] LOAD_EXT_SCHEDULER_MAIN: Load scheduler "tlk0" with entities [EventEntity, EventEntity], work=10*
     0x018F [0x1B] RETURN
     0x0190 [0x66] LOAD_EXT_SCHEDULER_MAIN: Load scheduler "tlk0" with entities [EventEntity, EventEntity], work=20*
     0x019F [0x1B] RETURN
     0x01A0 [0x66] LOAD_EXT_SCHEDULER_MAIN: Load scheduler "tlk0" with entities [EventEntity, EventEntity], work=30*
     0x01AF [0x1B] RETURN
     0x01B0 [0x66] LOAD_EXT_SCHEDULER_MAIN: Load scheduler "tlk0" with entities [EventEntity, EventEntity], work=40*
     0x01BF [0x1B] RETURN
     0x01C0 [0x66] LOAD_EXT_SCHEDULER_MAIN: Load scheduler "tlk0" with entities [EventEntity, EventEntity], work=50*
     0x01CF [0x1B] RETURN
     0x01D0 [0x66] LOAD_EXT_SCHEDULER_MAIN: Load scheduler "tlk0" with entities [EventEntity, EventEntity], work=60*
     0x01DF [0x1B] RETURN
     0x01E0 [0x5B] LOAD_EXT_SCHEDULER: Load scheduler "tlk0" with entities [EventEntity, EventEntity], work=5*
     0x01EF [0x1B] RETURN
     0x01F0 [0x5B] LOAD_EXT_SCHEDULER: Load scheduler "tlk0" with entities [EventEntity, EventEntity], work=80*
     0x01FF [0x1B] RETURN
     0x0200 [0x5B] LOAD_EXT_SCHEDULER: Load scheduler "tlk0" with entities [EventEntity, EventEntity], work=238*
     0x020F [0x1B] RETURN
     0x0210 [0x5B] LOAD_EXT_SCHEDULER: Load scheduler "tlk0" with entities [EventEntity, EventEntity], work=566*
     0x021F [0x1B] RETURN
     0x0220 [0x5B] LOAD_EXT_SCHEDULER: Load scheduler "tlb0" with entities [EventEntity, EventEntity], work=60*
     0x022F [0x1B] RETURN
```

### Event 13

#### Metadata

| Field        | Value    |
|--------------|----------|
| Entrypoint   | 0x0230   |
| Data Size    | 12 bytes |
| Instructions | 3        |

```
      00 01 02 03 04 05 06 07  08 09 0A 0B 0C 0D 0E 0F
      -- -- -- -- -- -- -- --  -- -- -- -- -- -- -- --
0230: 92 01 F8 FF FF 7F 80 F8  FF FF 7F 00              ............    
```

#### Opcodes

```
  0: 0x0230 [0x92] EventEntity->Render.Flags3 ^= 0x01
  1: 0x0236 [0x80] LOAD_WAIT(entity=EventEntity)
  2: 0x023B [0x00] END_REQSTACK()
```

### Event 15

#### Metadata

| Field        | Value    |
|--------------|----------|
| Entrypoint   | 0x023C   |
| Data Size    | 12 bytes |
| Instructions | 3        |

```
      00 01 02 03 04 05 06 07  08 09 0A 0B 0C 0D 0E 0F
      -- -- -- -- -- -- -- --  -- -- -- -- -- -- -- --
0230:                                      92 01 F8 FF              ....
0240: FF 7F 80 F8 FF FF 7F 00                           ........        
```

#### Opcodes

```
  0: 0x023C [0x92] EventEntity->Render.Flags3 ^= 0x01
  1: 0x0242 [0x80] LOAD_WAIT(entity=EventEntity)
  2: 0x0247 [0x00] END_REQSTACK()
```
