# 17789081

## Common Data

| Field            | Value           |
|------------------|-----------------|
| Zone             | Rabao (ID: 247) |
| Block Size       | 19296 bytes     |
| Total Events     | 12              |
| References Count | 308             |

## List of Events

| Event ID              | Entrypoint   |   Size |   Instructions |
|-----------------------|--------------|--------|----------------|
| [65535](#event-65535) | 0x0000       |    658 |             62 |
| [181](#event-181)     | 0x0292       |   3202 |            426 |
| [182](#event-182)     | 0x0F14       |     76 |             16 |
| [183](#event-183)     | 0x0F60       |     70 |             15 |
| [184](#event-184)     | 0x0FA6       |     41 |             10 |
| [185](#event-185)     | 0x0FCF       |   5400 |            717 |
| [186](#event-186)     | 0x24E7       |    187 |             38 |
| [187](#event-187)     | 0x25A2       |   4256 |            541 |
| [188](#event-188)     | 0x3642       |     59 |             13 |
| [189](#event-189)     | 0x367D       |    199 |             38 |
| [190](#event-190)     | 0x3744       |   3672 |            466 |
| [191](#event-191)     | 0x459C       |    179 |             34 |

## DAT References (imed_data)

|   Index | Hex Value   |   Dec Value |
|---------|-------------|-------------|
|       0 | 0x00C8      |         200 |
|       1 | 0x0000      |           0 |
|       2 | 0x00C9      |         201 |
|       3 | 0x0001      |           1 |
|       4 | 0x002D      |          45 |
|       5 | 0x0002      |           2 |
|       6 | 0x001E      |          30 |
|       7 | 0x00D7      |         215 |
|       8 | 0x0093      |         147 |
|       9 | 0x1872      |        6258 |
|      10 | 0x133A2     |       78754 |
|      11 | 0x1F3F      |        7999 |
|      12 | 0x0D43      |        3395 |
|      13 | 0x0C77      |        3191 |
|      14 | 0x17476     |       95350 |
|      15 | 0x0340      |         832 |
|      16 | 0x1DC3      |        7619 |
|      17 | 0x13D39     |       81209 |
|      18 | 0x1F40      |        8000 |
|      19 | 0x0532      |        1330 |
|      20 | 0x037B      |         891 |
|      21 | 0x003C      |          60 |
|      22 | 0x303F      |       12351 |
|      23 | 0x3040      |       12352 |
|      24 | 0x0015      |          21 |
|      25 | 0x005A      |          90 |
|      26 | 0x3041      |       12353 |
|      27 | 0x0005      |           5 |
|      28 | 0x0006      |           6 |
|      29 | 0x3042      |       12354 |
|      30 | 0x3043      |       12355 |
|      31 | 0x012C      |         300 |
|      32 | 0x0080      |         128 |
|      33 | 0xFFFFF4A2  |  4294964386 |
|      34 | 0x18F97     |      102295 |
|      35 | 0x013D      |         317 |
|      36 | 0x0019      |          25 |
|      37 | 0x007F      |         127 |
|      38 | 0x3044      |       12356 |
|      39 | 0x3045      |       12357 |
|      40 | 0x0007      |           7 |
|      41 | 0x3046      |       12358 |
|      42 | 0x3047      |       12359 |
|      43 | 0x3048      |       12360 |
|      44 | 0x3049      |       12361 |
|      45 | 0x304A      |       12362 |
|      46 | 0x304B      |       12363 |
|      47 | 0x304C      |       12364 |
|      48 | 0x304D      |       12365 |
|      49 | 0x304E      |       12366 |
|      50 | 0x304F      |       12367 |
|      51 | 0x3050      |       12368 |
|      52 | 0x3051      |       12369 |
|      53 | 0x3052      |       12370 |
|      54 | 0x3053      |       12371 |
|      55 | 0x3054      |       12372 |
|      56 | 0x3055      |       12373 |
|      57 | 0x3056      |       12374 |
|      58 | 0x3057      |       12375 |
|      59 | 0x0008      |           8 |
|      60 | 0x00D0      |         208 |
|      61 | 0x000A      |          10 |
|      62 | 0x3058      |       12376 |
|      63 | 0x3059      |       12377 |
|      64 | 0x305A      |       12378 |
|      65 | 0x00F7      |         247 |
|      66 | 0x000F      |          15 |
|      67 | 0x1C89      |        7305 |
|      68 | 0x142F7     |       82679 |
|      69 | 0x0B5A      |        2906 |
|      70 | 0x0803      |        2051 |
|      71 | 0x305B      |       12379 |
|      72 | 0x305C      |       12380 |
|      73 | 0x305D      |       12381 |
|      74 | 0x305E      |       12382 |
|      75 | 0x305F      |       12383 |
|      76 | 0x01B2      |         434 |
|      77 | 0x01B6      |         438 |
|      78 | 0x3060      |       12384 |
|      79 | 0x0028      |          40 |
|      80 | 0x3061      |       12385 |
|      81 | 0x01B0      |         432 |
|      82 | 0x303A      |       12346 |
|      83 | 0x303B      |       12347 |
|      84 | 0x303C      |       12348 |
|      85 | 0x303D      |       12349 |
|      86 | 0x303E      |       12350 |
|      87 | 0xFFFFF8C6  |  4294965446 |
|      88 | 0x11886     |       71814 |
|      89 | 0x206A      |        8298 |
|      90 | 0x0F49      |        3913 |
|      91 | 0x512C      |       20780 |
|      92 | 0x11B4E     |       72526 |
|      93 | 0x2042      |        8258 |
|      94 | 0x0FC0      |        4032 |
|      95 | 0x42A3      |       17059 |
|      96 | 0x1217F     |       74111 |
|      97 | 0x1FA3      |        8099 |
|      98 | 0x090C      |        2316 |
|      99 | 0x3062      |       12386 |
|     100 | 0x3063      |       12387 |
|     101 | 0x3064      |       12388 |
|     102 | 0x3065      |       12389 |
|     103 | 0x3066      |       12390 |
|     104 | 0x3067      |       12391 |
|     105 | 0x3068      |       12392 |
|     106 | 0x1CF3      |        7411 |
|     107 | 0x15E42     |       89666 |
|     108 | 0x1FA6      |        8102 |
|     109 | 0x0559      |        1369 |
|     110 | 0x3069      |       12393 |
|     111 | 0x306A      |       12394 |
|     112 | 0x306B      |       12395 |
|     113 | 0x306C      |       12396 |
|     114 | 0x306D      |       12397 |
|     115 | 0x306E      |       12398 |
|     116 | 0x0064      |         100 |
|     117 | 0x306F      |       12399 |
|     118 | 0x3070      |       12400 |
|     119 | 0x3071      |       12401 |
|     120 | 0x3072      |       12402 |
|     121 | 0x3073      |       12403 |
|     122 | 0x0078      |         120 |
|     123 | 0x0CFD      |        3325 |
|     124 | 0x0640      |        1600 |
|     125 | 0x3074      |       12404 |
|     126 | 0x3075      |       12405 |
|     127 | 0x3076      |       12406 |
|     128 | 0x3077      |       12407 |
|     129 | 0x3078      |       12408 |
|     130 | 0x3079      |       12409 |
|     131 | 0x001F      |          31 |
|     132 | 0x307A      |       12410 |
|     133 | 0x307B      |       12411 |
|     134 | 0x307C      |       12412 |
|     135 | 0x307D      |       12413 |
|     136 | 0x307E      |       12414 |
|     137 | 0x307F      |       12415 |
|     138 | 0x3080      |       12416 |
|     139 | 0x3081      |       12417 |
|     140 | 0x3082      |       12418 |
|     141 | 0x3083      |       12419 |
|     142 | 0x3084      |       12420 |
|     143 | 0x3085      |       12421 |
|     144 | 0x0014      |          20 |
|     145 | 0x3086      |       12422 |
|     146 | 0x3087      |       12423 |
|     147 | 0x3089      |       12425 |
|     148 | 0x308A      |       12426 |
|     149 | 0x3088      |       12424 |
|     150 | 0x007D      |         125 |
|     151 | 0x0011      |          17 |
|     152 | 0x308B      |       12427 |
|     153 | 0x308C      |       12428 |
|     154 | 0x308D      |       12429 |
|     155 | 0x308E      |       12430 |
|     156 | 0x1D00      |        7424 |
|     157 | 0x12B98     |       76696 |
|     158 | 0x0097      |         151 |
|     159 | 0x18CD      |        6349 |
|     160 | 0x13039     |       77881 |
|     161 | 0x0FF7      |        4087 |
|     162 | 0x12EB2     |       77490 |
|     163 | 0x308F      |       12431 |
|     164 | 0x3090      |       12432 |
|     165 | 0x3091      |       12433 |
|     166 | 0x3092      |       12434 |
|     167 | 0x3093      |       12435 |
|     168 | 0x3094      |       12436 |
|     169 | 0x3095      |       12437 |
|     170 | 0x3096      |       12438 |
|     171 | 0x01BA      |         442 |
|     172 | 0x3097      |       12439 |
|     173 | 0x3098      |       12440 |
|     174 | 0x01BC      |         444 |
|     175 | 0x01BE      |         446 |
|     176 | 0x3099      |       12441 |
|     177 | 0x309A      |       12442 |
|     178 | 0x01C0      |         448 |
|     179 | 0x309B      |       12443 |
|     180 | 0x309C      |       12444 |
|     181 | 0x01C4      |         452 |
|     182 | 0x309D      |       12445 |
|     183 | 0x309E      |       12446 |
|     184 | 0x0EC8      |        3784 |
|     185 | 0x12CAD     |       76973 |
|     186 | 0x0632      |        1586 |
|     187 | 0x1D21      |        7457 |
|     188 | 0x13833     |       79923 |
|     189 | 0x1BBB      |        7099 |
|     190 | 0x2CAC      |       11436 |
|     191 | 0x1265B     |       75355 |
|     192 | 0x1F50      |        8016 |
|     193 | 0x06AA      |        1706 |
|     194 | 0x1CF1      |        7409 |
|     195 | 0x12D61     |       77153 |
|     196 | 0x1B57      |        6999 |
|     197 | 0x0AF0      |        2800 |
|     198 | 0x000E      |          14 |
|     199 | 0x309F      |       12447 |
|     200 | 0x30A0      |       12448 |
|     201 | 0x0032      |          50 |
|     202 | 0x30A1      |       12449 |
|     203 | 0x30A2      |       12450 |
|     204 | 0x1AD5      |        6869 |
|     205 | 0x001A      |          26 |
|     206 | 0x0082      |         130 |
|     207 | 0x30A3      |       12451 |
|     208 | 0x30A4      |       12452 |
|     209 | 0x001B      |          27 |
|     210 | 0x30A5      |       12453 |
|     211 | 0x30A6      |       12454 |
|     212 | 0x30A7      |       12455 |
|     213 | 0x0050      |          80 |
|     214 | 0x30A8      |       12456 |
|     215 | 0x30A9      |       12457 |
|     216 | 0x30AA      |       12458 |
|     217 | 0x30AB      |       12459 |
|     218 | 0x30AC      |       12460 |
|     219 | 0x30AD      |       12461 |
|     220 | 0x30AE      |       12462 |
|     221 | 0x0258      |         600 |
|     222 | 0x0320      |         800 |
|     223 | 0x30AF      |       12463 |
|     224 | 0x30B0      |       12464 |
|     225 | 0x30B1      |       12465 |
|     226 | 0x30B2      |       12466 |
|     227 | 0x30B3      |       12467 |
|     228 | 0x30B4      |       12468 |
|     229 | 0x0039      |          57 |
|     230 | 0x0026      |          38 |
|     231 | 0x30B5      |       12469 |
|     232 | 0x30B6      |       12470 |
|     233 | 0x0012      |          18 |
|     234 | 0x30B7      |       12471 |
|     235 | 0x30B8      |       12472 |
|     236 | 0x30B9      |       12473 |
|     237 | 0x30BA      |       12474 |
|     238 | 0x30BB      |       12475 |
|     239 | 0x30BC      |       12476 |
|     240 | 0x30BD      |       12477 |
|     241 | 0x30BE      |       12478 |
|     242 | 0x30BF      |       12479 |
|     243 | 0x30C0      |       12480 |
|     244 | 0x30C1      |       12481 |
|     245 | 0xFFFFCA40  |  4294953536 |
|     246 | 0xFFFFD617  |  4294956567 |
|     247 | 0x1EE7      |        7911 |
|     248 | 0x0A9C      |        2716 |
|     249 | 0x30C2      |       12482 |
|     250 | 0x003B      |          59 |
|     251 | 0x30C3      |       12483 |
|     252 | 0x30C4      |       12484 |
|     253 | 0x0482      |        1154 |
|     254 | 0x11797     |       71575 |
|     255 | 0x1FCC      |        8140 |
|     256 | 0x00AE      |         174 |
|     257 | 0x0003      |           3 |
|     258 | 0x0391      |         913 |
|     259 | 0x0004      |           4 |
|     260 | 0x30C8      |       12488 |
|     261 | 0x30C9      |       12489 |
|     262 | 0x30CA      |       12490 |
|     263 | 0x30CB      |       12491 |
|     264 | 0x30CC      |       12492 |
|     265 | 0x30CD      |       12493 |
|     266 | 0x0096      |         150 |
|     267 | 0x00F0      |         240 |
|     268 | 0x30CE      |       12494 |
|     269 | 0x30CF      |       12495 |
|     270 | 0x30D0      |       12496 |
|     271 | 0x0037      |          55 |
|     272 | 0x30D1      |       12497 |
|     273 | 0x30D2      |       12498 |
|     274 | 0x30D3      |       12499 |
|     275 | 0x30D4      |       12500 |
|     276 | 0x30D5      |       12501 |
|     277 | 0x30D6      |       12502 |
|     278 | 0x30D7      |       12503 |
|     279 | 0x30D8      |       12504 |
|     280 | 0x30D9      |       12505 |
|     281 | 0x30DA      |       12506 |
|     282 | 0x30DB      |       12507 |
|     283 | 0x30DC      |       12508 |
|     284 | 0x002A      |          42 |
|     285 | 0x002E      |          46 |
|     286 | 0x0CFF      |        3327 |
|     287 | 0x30DD      |       12509 |
|     288 | 0x00B4      |         180 |
|     289 | 0x30DE      |       12510 |
|     290 | 0x30DF      |       12511 |
|     291 | 0x30E0      |       12512 |
|     292 | 0x0804      |        2052 |
|     293 | 0x30E1      |       12513 |
|     294 | 0x30E2      |       12514 |
|     295 | 0x30E3      |       12515 |
|     296 | 0x30E4      |       12516 |
|     297 | 0x30E5      |       12517 |
|     298 | 0x30E6      |       12518 |
|     299 | 0x0105      |         261 |
|     300 | 0x122C      |        4652 |
|     301 | 0x12AD4     |       76500 |
|     302 | 0x30E7      |       12519 |
|     303 | 0x30C5      |       12485 |
|     304 | 0x30C6      |       12486 |
|     305 | 0x30C7      |       12487 |
|     306 | 0x30E8      |       12520 |
|     307 | 0x30E9      |       12521 |

## String References

- **6869**: @@
- **12370**: Accept Raebrimm's request? [Of course./Sorry, I'm busy.]
- **12423**: Will you help the Galka? [You can count on me./Sorry, I can't.]
- **12433**: Where is Raebrimm? [I don't know./He's on patrol./He's gone!]
- **12498**: Do you know Uran-Mafran? [Yes, of course./No, sorry.]
- **12506**: Where is Uran-Mafran's orb? [I have it./Sorry, I don't know.]
- **12509**: The $3 was stolen from you!
- **12519**: You find the $3 lying on the ground.

## Events

### Event 65535

#### Metadata

| Field        | Value     |
|--------------|-----------|
| Entrypoint   | 0x0000    |
| Data Size    | 658 bytes |
| Instructions | 1         |

```
      00 01 02 03 04 05 06 07  08 09 0A 0B 0C 0D 0E 0F
      -- -- -- -- -- -- -- --  -- -- -- -- -- -- -- --
0000: 00 45 00 80 F0 FF FF 7F  F0 FF FF 7F 66 64 69 30  .E..........fdi0
0010: 01 80 55 00 80 F0 FF FF  7F F0 FF FF 7F 66 64 69  ..U..........fdi
0020: 30 1B 45 00 80 F0 FF FF  7F F0 FF FF 7F 66 64 6F  0.E..........fdo
0030: 30 01 80 55 00 80 F0 FF  FF 7F F0 FF FF 7F 66 64  0..U..........fd
0040: 6F 30 1B 45 00 80 F0 FF  FF 7F F0 FF FF 7F 66 64  o0.E..........fd
0050: 69 31 01 80 55 00 80 F0  FF FF 7F F0 FF FF 7F 66  i1..U..........f
0060: 64 69 31 1B 45 00 80 F0  FF FF 7F F0 FF FF 7F 66  di1.E..........f
0070: 64 6F 31 01 80 55 00 80  F0 FF FF 7F F0 FF FF 7F  do1..U..........
0080: 66 64 6F 31 1B 45 02 80  F0 FF FF 7F F0 FF FF 7F  fdo1.E..........
0090: 77 68 69 31 01 80 55 02  80 F0 FF FF 7F F0 FF FF  whi1..U.........
00A0: 7F 77 68 69 31 1B 45 02  80 F0 FF FF 7F F0 FF FF  .whi1.E.........
00B0: 7F 77 68 6F 31 01 80 55  02 80 F0 FF FF 7F F0 FF  .who1..U........
00C0: FF 7F 77 68 6F 31 1B 45  02 80 F0 FF FF 7F F0 FF  ..who1.E........
00D0: FF 7F 77 68 6F 32 01 80  55 02 80 F0 FF FF 7F F0  ..who2..U.......
00E0: FF FF 7F 77 68 6F 32 1B  45 02 80 F0 FF FF 7F F0  ...who2.E.......
00F0: FF FF 7F 77 68 6F 33 01  80 55 02 80 F0 FF FF 7F  ...who3..U......
0100: F0 FF FF 7F 77 68 6F 33  1B 62 03 80 F0 FF FF 7F  ....who3.b......
0110: F0 FF FF 7F 6D 61 69 6E  01 80 1C 04 80 45 00 80  ....main.....E..
0120: F0 FF FF 7F F0 FF FF 7F  66 64 6F 31 01 80 55 00  ........fdo1..U.
0130: 80 F0 FF FF 7F F0 FF FF  7F 66 64 6F 31 1B 45 00  .........fdo1.E.
0140: 80 F0 FF FF 7F F0 FF FF  7F 66 64 69 31 01 80 62  .........fdi1..b
0150: 05 80 F0 FF FF 7F F0 FF  FF 7F 6D 61 69 6E 01 80  ..........main..
0160: 1C 06 80 55 00 80 F0 FF  FF 7F F0 FF FF 7F 66 64  ...U..........fd
0170: 69 31 1B 45 00 80 F0 FF  FF 7F F0 FF FF 7F 62 6C  i1.E..........bl
0180: 6F 6E 01 80 45 02 80 F0  FF FF 7F F0 FF FF 7F 62  on..E..........b
0190: 6C 6F 6E 01 80 1B 45 02  80 F0 FF FF 7F F0 FF FF  lon...E.........
01A0: 7F 77 68 69 30 01 80 55  02 80 F0 FF FF 7F F0 FF  .whi0..U........
01B0: FF 7F 77 68 69 30 1B 45  02 80 F0 FF FF 7F F0 FF  ..whi0.E........
01C0: FF 7F 77 68 6F 30 01 80  55 02 80 F0 FF FF 7F F0  ..who0..U.......
01D0: FF FF 7F 77 68 6F 30 1B  45 07 80 F0 FF FF 7F F0  ...who0.E.......
01E0: FF FF 7F 65 66 6F 6E 01  80 55 07 80 F0 FF FF 7F  ...efon..U......
01F0: F0 FF FF 7F 65 66 6F 6E  1B 45 00 80 F0 FF FF 7F  ....efon.E......
0200: F0 FF FF 7F 66 64 69 73  01 80 1B 45 00 80 F0 FF  ....fdis...E....
0210: FF 7F F0 FF FF 7F 66 64  6F 73 01 80 55 00 80 F0  ......fdos..U...
0220: FF FF 7F F0 FF FF 7F 66  64 6F 73 1B 45 00 80 F0  .......fdos.E...
0230: FF FF 7F F0 FF FF 7F 66  64 69 66 01 80 1B 45 00  .......fdif...E.
0240: 80 F0 FF FF 7F F0 FF FF  7F 66 64 6F 66 01 80 55  .........fdof..U
0250: 00 80 F0 FF FF 7F F0 FF  FF 7F 66 64 6F 66 1B 45  ..........fdof.E
0260: 00 80 F0 FF FF 7F F0 FF  FF 7F 66 64 69 70 01 80  ..........fdip..
0270: 1B 45 00 80 F0 FF FF 7F  F0 FF FF 7F 66 64 6F 70  .E..........fdop
0280: 01 80 55 00 80 F0 FF FF  7F F0 FF FF 7F 66 64 6F  ..U..........fdo
0290: 70 1B                                             p.              
```

#### Opcodes

```
  0: 0x0000 [0x00] END_REQSTACK()
```

#### Data or dead code:

```
# Dead code (unreachable instructions):
     0x0001 [0x45] LOAD_SCHEDULED_TASK: Load scheduler "fdi0" with entities [LocalPlayer, LocalPlayer], work=[200*, 0*]
     0x0012 [0x55] WAIT_LOAD_SCHEDULER: Wait for scheduler "fdi0" with entities [LocalPlayer, LocalPlayer], work=200*
     0x0021 [0x1B] RETURN
     0x0022 [0x45] LOAD_SCHEDULED_TASK: Load scheduler "fdo0" with entities [LocalPlayer, LocalPlayer], work=[200*, 0*]
     0x0033 [0x55] WAIT_LOAD_SCHEDULER: Wait for scheduler "fdo0" with entities [LocalPlayer, LocalPlayer], work=200*
     0x0042 [0x1B] RETURN
     0x0043 [0x45] LOAD_SCHEDULED_TASK: Load scheduler "fdi1" with entities [LocalPlayer, LocalPlayer], work=[200*, 0*]
     0x0054 [0x55] WAIT_LOAD_SCHEDULER: Wait for scheduler "fdi1" with entities [LocalPlayer, LocalPlayer], work=200*
     0x0063 [0x1B] RETURN
     0x0064 [0x45] LOAD_SCHEDULED_TASK: Load scheduler "fdo1" with entities [LocalPlayer, LocalPlayer], work=[200*, 0*]
     0x0075 [0x55] WAIT_LOAD_SCHEDULER: Wait for scheduler "fdo1" with entities [LocalPlayer, LocalPlayer], work=200*
     0x0084 [0x1B] RETURN
     0x0085 [0x45] LOAD_SCHEDULED_TASK: Load scheduler "whi1" with entities [LocalPlayer, LocalPlayer], work=[201*, 0*]
     0x0096 [0x55] WAIT_LOAD_SCHEDULER: Wait for scheduler "whi1" with entities [LocalPlayer, LocalPlayer], work=201*
     0x00A5 [0x1B] RETURN
     0x00A6 [0x45] LOAD_SCHEDULED_TASK: Load scheduler "who1" with entities [LocalPlayer, LocalPlayer], work=[201*, 0*]
     0x00B7 [0x55] WAIT_LOAD_SCHEDULER: Wait for scheduler "who1" with entities [LocalPlayer, LocalPlayer], work=201*
     0x00C6 [0x1B] RETURN
     0x00C7 [0x45] LOAD_SCHEDULED_TASK: Load scheduler "who2" with entities [LocalPlayer, LocalPlayer], work=[201*, 0*]
     0x00D8 [0x55] WAIT_LOAD_SCHEDULER: Wait for scheduler "who2" with entities [LocalPlayer, LocalPlayer], work=201*
     0x00E7 [0x1B] RETURN
     0x00E8 [0x45] LOAD_SCHEDULED_TASK: Load scheduler "who3" with entities [LocalPlayer, LocalPlayer], work=[201*, 0*]
     0x00F9 [0x55] WAIT_LOAD_SCHEDULER: Wait for scheduler "who3" with entities [LocalPlayer, LocalPlayer], work=201*
     0x0108 [0x1B] RETURN
     0x0109 [0x62] LOAD_EVENT_SCHEDULER: Load scheduler "main" with entities [LocalPlayer, LocalPlayer], work=[1*, 0*]
     0x011A [0x1C] WAIT(45* ticks)
     0x011D [0x45] LOAD_SCHEDULED_TASK: Load scheduler "fdo1" with entities [LocalPlayer, LocalPlayer], work=[200*, 0*]
     0x012E [0x55] WAIT_LOAD_SCHEDULER: Wait for scheduler "fdo1" with entities [LocalPlayer, LocalPlayer], work=200*
     0x013D [0x1B] RETURN
     0x013E [0x45] LOAD_SCHEDULED_TASK: Load scheduler "fdi1" with entities [LocalPlayer, LocalPlayer], work=[200*, 0*]
     0x014F [0x62] LOAD_EVENT_SCHEDULER: Load scheduler "main" with entities [LocalPlayer, LocalPlayer], work=[2*, 0*]
     0x0160 [0x1C] WAIT(30* ticks)
     0x0163 [0x55] WAIT_LOAD_SCHEDULER: Wait for scheduler "fdi1" with entities [LocalPlayer, LocalPlayer], work=200*
     0x0172 [0x1B] RETURN
     0x0173 [0x45] LOAD_SCHEDULED_TASK: Load scheduler "blon" with entities [LocalPlayer, LocalPlayer], work=[200*, 0*]
     0x0184 [0x45] LOAD_SCHEDULED_TASK: Load scheduler "blon" with entities [LocalPlayer, LocalPlayer], work=[201*, 0*]
     0x0195 [0x1B] RETURN
     0x0196 [0x45] LOAD_SCHEDULED_TASK: Load scheduler "whi0" with entities [LocalPlayer, LocalPlayer], work=[201*, 0*]
     0x01A7 [0x55] WAIT_LOAD_SCHEDULER: Wait for scheduler "whi0" with entities [LocalPlayer, LocalPlayer], work=201*
     0x01B6 [0x1B] RETURN
     0x01B7 [0x45] LOAD_SCHEDULED_TASK: Load scheduler "who0" with entities [LocalPlayer, LocalPlayer], work=[201*, 0*]
     0x01C8 [0x55] WAIT_LOAD_SCHEDULER: Wait for scheduler "who0" with entities [LocalPlayer, LocalPlayer], work=201*
     0x01D7 [0x1B] RETURN
     0x01D8 [0x45] LOAD_SCHEDULED_TASK: Load scheduler "efon" with entities [LocalPlayer, LocalPlayer], work=[215*, 0*]
     0x01E9 [0x55] WAIT_LOAD_SCHEDULER: Wait for scheduler "efon" with entities [LocalPlayer, LocalPlayer], work=215*
     0x01F8 [0x1B] RETURN
     0x01F9 [0x45] LOAD_SCHEDULED_TASK: Load scheduler "fdis" with entities [LocalPlayer, LocalPlayer], work=[200*, 0*]
     0x020A [0x1B] RETURN
     0x020B [0x45] LOAD_SCHEDULED_TASK: Load scheduler "fdos" with entities [LocalPlayer, LocalPlayer], work=[200*, 0*]
     0x021C [0x55] WAIT_LOAD_SCHEDULER: Wait for scheduler "fdos" with entities [LocalPlayer, LocalPlayer], work=200*
     0x022B [0x1B] RETURN
     0x022C [0x45] LOAD_SCHEDULED_TASK: Load scheduler "fdif" with entities [LocalPlayer, LocalPlayer], work=[200*, 0*]
     0x023D [0x1B] RETURN
     0x023E [0x45] LOAD_SCHEDULED_TASK: Load scheduler "fdof" with entities [LocalPlayer, LocalPlayer], work=[200*, 0*]
     0x024F [0x55] WAIT_LOAD_SCHEDULER: Wait for scheduler "fdof" with entities [LocalPlayer, LocalPlayer], work=200*
     0x025E [0x1B] RETURN
     0x025F [0x45] LOAD_SCHEDULED_TASK: Load scheduler "fdip" with entities [LocalPlayer, LocalPlayer], work=[200*, 0*]
     0x0270 [0x1B] RETURN
     0x0271 [0x45] LOAD_SCHEDULED_TASK: Load scheduler "fdop" with entities [LocalPlayer, LocalPlayer], work=[200*, 0*]
     0x0282 [0x55] WAIT_LOAD_SCHEDULER: Wait for scheduler "fdop" with entities [LocalPlayer, LocalPlayer], work=200*
     0x0291 [0x1B] RETURN
```

### Event 181

#### Metadata

| Field        | Value      |
|--------------|------------|
| Entrypoint   | 0x0292     |
| Data Size    | 3202 bytes |
| Instructions | 426        |

```
      00 01 02 03 04 05 06 07  08 09 0A 0B 0C 0D 0E 0F
      -- -- -- -- -- -- -- --  -- -- -- -- -- -- -- --
0290:       42 03 02 00 03 10  1A 64 00 46 01 38 08 80    B......d.F.8..
02A0: 2F 00 9A 70 0F 01 4E 00  3D 70 0F 01 4E 00 9A 70  /..p..N.=p..N..p
02B0: 0F 01 92 01 3D 70 0F 01  92 01 9A 70 0F 01 94 01  ....=p.....p....
02C0: 3D 70 0F 01 94 01 F0 FF  FF 7F 94 01 9A 70 0F 01  =p...........p..
02D0: BA F0 FF FF 7F 09 80 0A  80 0B 80 0C 80 BA 9A 70  ...............p
02E0: 0F 01 0D 80 0E 80 0B 80  0F 80 BA 3D 70 0F 01 10  ...........=p...
02F0: 80 11 80 12 80 13 80 4A  F0 FF FF 7F 3D 70 0F 01  .......J....=p..
0300: 4A 3D 70 0F 01 F0 FF FF  7F 6F 76 F0 FF FF 7F 6F  J=p......ov....o
0310: 76 3D 70 0F 01 80 3D 70  0F 01 80 F0 FF FF 7F 80  v=p...=p........
0320: 9A 70 0F 01 6C 9A 70 0F  01 01 80 03 80 1C 03 80  .p..l.p.........
0330: 29 0F F0 FF FF 7F 15 45  14 80 F8 FF FF 7F F8 FF  )......E........
0340: FF 7F 73 30 30 30 01 80  1A 43 00 29 0F F0 FF FF  ..s000...C.)....
0350: 7F 18 1C 15 80 29 0F F0  FF FF 7F 19 1C 15 80 29  .....).........)
0360: 0F 3D 70 0F 01 08 2B 3D  70 0F 01 16 80 23 29 0F  .=p...+=p....#).
0370: 3D 70 0F 01 09 7B 3D 70  0F 01 52 14 80 F8 FF FF  =p...{=p..R.....
0380: 7F F8 FF FF 7F 73 30 30  30 45 14 80 F8 FF FF 7F  .....s000E......
0390: F8 FF FF 7F 73 30 30 31  01 80 2B 3D 70 0F 01 17  ....s001..+=p...
03A0: 80 6E 3D 70 0F 01 18 80  99 3D 70 0F 01 1C 19 80  .n=p.....=p.....
03B0: 23 29 0F 3D 70 0F 01 18  79 00 3D 70 0F 01 F0 FF  #).=p...y.=p....
03C0: FF 7F 2B 3D 70 0F 01 1A  80 23 52 14 80 F8 FF FF  ..+=p....#R.....
03D0: 7F F8 FF FF 7F 73 30 30  31 02 09 10 1B 80 00 F5  .....s001.......
03E0: 03 45 14 80 F8 FF FF 7F  F8 FF FF 7F 73 30 32 30  .E..........s020
03F0: 01 80 01 22 04 02 09 10  1C 80 00 11 04 45 14 80  ...".........E..
0400: F8 FF FF 7F F8 FF FF 7F  73 30 32 30 01 80 01 22  ........s020..."
0410: 04 45 14 80 F8 FF FF 7F  F8 FF FF 7F 73 30 30 32  .E..........s002
0420: 01 80 2B 3D 70 0F 01 1D  80 23 29 0F 3D 70 0F 01  ..+=p....#).=p..
0430: 19 29 0F 3D 70 0F 01 1A  2B 3D 70 0F 01 1E 80 23  .).=p...+=p....#
0440: 02 09 10 1B 80 00 5A 04  52 14 80 F8 FF FF 7F F8  ......Z.R.......
0450: FF FF 7F 73 30 32 30 01  83 04 02 09 10 1C 80 00  ...s020.........
0460: 74 04 52 14 80 F8 FF FF  7F F8 FF FF 7F 73 30 32  t.R..........s02
0470: 30 01 83 04 52 14 80 F8  FF FF 7F F8 FF FF 7F 73  0...R..........s
0480: 30 30 32 45 14 80 F8 FF  FF 7F F8 FF FF 7F 73 30  002E..........s0
0490: 30 33 01 80 29 0F 3D 70  0F 01 1B 7B 3D 70 0F 01  03..).=p...{=p..
04A0: 27 0F 3D 70 0F 01 26 1C  15 80 5D 01 80 1F 80 1A  '.=p..&...].....
04B0: 64 00 2A 0F 3D 70 0F 01  52 14 80 F8 FF FF 7F F8  d.*.=p..R.......
04C0: FF FF 7F 73 30 30 33 6C  9A 70 0F 01 20 80 03 80  ...s003l.p.. ...
04D0: 1C 03 80 BA 3D 70 0F 01  21 80 22 80 12 80 23 80  ....=p..!."...#.
04E0: 5C 00 24 80 5C 01 24 80  9A 5D 25 80 03 80 27 0F  \.$.\.$..]%...'.
04F0: 9A 70 0F 01 1B 27 0F 3D  70 0F 01 27 45 14 80 F8  .p...'.=p..'E...
0500: FF FF 7F F8 FF FF 7F 73  30 30 34 01 80 1A 43 00  .......s004...C.
0510: 2B 9A 70 0F 01 26 80 1C  06 80 4A F0 FF FF 7F 9A  +.p..&....J.....
0520: 70 0F 01 6F 76 F0 FF FF  7F 52 14 80 F8 FF FF 7F  p..ov....R......
0530: F8 FF FF 7F 73 30 30 34  45 14 80 F8 FF FF 7F F8  ....s004E.......
0540: FF FF 7F 73 30 30 35 01  80 23 2A 0F 9A 70 0F 01  ...s005..#*..p..
0550: 4A F0 FF FF 7F 9A 70 0F  01 2B 9A 70 0F 01 27 80  J.....p..+.p..'.
0560: 23 6F 76 F0 FF FF 7F 52  14 80 F8 FF FF 7F F8 FF  #ov....R........
0570: FF 7F 73 30 30 35 02 09  10 1B 80 00 92 05 45 14  ..s005........E.
0580: 80 F8 FF FF 7F F8 FF FF  7F 73 30 32 31 01 80 01  .........s021...
0590: BF 05 02 09 10 1C 80 00  AE 05 45 14 80 F8 FF FF  ..........E.....
05A0: 7F F8 FF FF 7F 73 30 32  31 01 80 01 BF 05 45 14  .....s021.....E.
05B0: 80 F8 FF FF 7F F8 FF FF  7F 73 30 30 36 01 80 6E  .........s006..n
05C0: F0 FF FF 7F 28 80 99 F0  FF FF 7F 1C 15 80 29 0F  ....(.........).
05D0: 9A 70 0F 01 01 2B 9A 70  0F 01 29 80 23 2B 9A 70  .p...+.p..).#+.p
05E0: 0F 01 2A 80 23 29 0F 9A  70 0F 01 02 29 0F 9A 70  ..*.#)..p...)..p
05F0: 0F 01 03 29 0F 9A 70 0F  01 04 2A 0F 3D 70 0F 01  ...)..p...*.=p..
0600: 02 09 10 1B 80 00 1A 06  52 14 80 F8 FF FF 7F F8  ........R.......
0610: FF FF 7F 73 30 32 31 01  43 06 02 09 10 1C 80 00  ...s021.C.......
0620: 34 06 52 14 80 F8 FF FF  7F F8 FF FF 7F 73 30 32  4.R..........s02
0630: 31 01 43 06 52 14 80 F8  FF FF 7F F8 FF FF 7F 73  1.C.R..........s
0640: 30 30 36 45 14 80 F8 FF  FF 7F F8 FF FF 7F 73 30  006E..........s0
0650: 30 37 01 80 29 0F 9A 70  0F 01 09 2B 9A 70 0F 01  07..)..p...+.p..
0660: 2B 80 23 29 0F 9A 70 0F  01 0A 29 0F 9A 70 0F 01  +.#)..p...)..p..
0670: 0B 2B 9A 70 0F 01 2C 80  23 29 0F 9A 70 0F 01 0C  .+.p..,.#)..p...
0680: 52 14 80 F8 FF FF 7F F8  FF FF 7F 73 30 30 37 45  R..........s007E
0690: 14 80 F8 FF FF 7F F8 FF  FF 7F 73 30 30 38 01 80  ..........s008..
06A0: 29 0F 9A 70 0F 01 01 2B  9A 70 0F 01 2D 80 23 2B  )..p...+.p..-.#+
06B0: 9A 70 0F 01 2E 80 23 29  0F 9A 70 0F 01 02 29 0F  .p....#)..p...).
06C0: 9A 70 0F 01 03 2B 9A 70  0F 01 2F 80 23 29 0F 9A  .p...+.p../.#)..
06D0: 70 0F 01 04 52 14 80 F8  FF FF 7F F8 FF FF 7F 73  p...R..........s
06E0: 30 30 38 45 14 80 F8 FF  FF 7F F8 FF FF 7F 73 30  008E..........s0
06F0: 30 39 01 80 2B 9A 70 0F  01 30 80 23 52 14 80 F8  09..+.p..0.#R...
0700: FF FF 7F F8 FF FF 7F 73  30 30 39 02 09 10 1B 80  .......s009.....
0710: 00 27 07 45 14 80 F8 FF  FF 7F F8 FF FF 7F 73 30  .'.E..........s0
0720: 32 32 01 80 01 54 07 02  09 10 1C 80 00 43 07 45  22...T.......C.E
0730: 14 80 F8 FF FF 7F F8 FF  FF 7F 73 30 32 32 01 80  ..........s022..
0740: 01 54 07 45 14 80 F8 FF  FF 7F F8 FF FF 7F 73 30  .T.E..........s0
0750: 31 30 01 80 29 0F 9A 70  0F 01 05 2B 9A 70 0F 01  10..)..p...+.p..
0760: 31 80 23 2B 9A 70 0F 01  32 80 23 29 0F 9A 70 0F  1.#+.p..2.#)..p.
0770: 01 06 02 09 10 1B 80 00  8C 07 52 14 80 F8 FF FF  ..........R.....
0780: 7F F8 FF FF 7F 73 30 32  32 01 B5 07 02 09 10 1C  .....s022.......
0790: 80 00 A6 07 52 14 80 F8  FF FF 7F F8 FF FF 7F 73  ....R..........s
07A0: 30 32 32 01 B5 07 52 14  80 F8 FF FF 7F F8 FF FF  022...R.........
07B0: 7F 73 30 31 30 45 14 80  F8 FF FF 7F F8 FF FF 7F  .s010E..........
07C0: 73 30 31 31 01 80 29 0F  9A 70 0F 01 07 2B 9A 70  s011..)..p...+.p
07D0: 0F 01 33 80 23 29 0F 9A  70 0F 01 08 79 00 9A 70  ..3.#)..p...y..p
07E0: 0F 01 F0 FF FF 7F 2B 9A  70 0F 01 34 80 23 52 14  ......+.p..4.#R.
07F0: 80 F8 FF FF 7F F8 FF FF  7F 73 30 31 31 02 09 10  .........s011...
0800: 1B 80 00 19 08 45 14 80  F8 FF FF 7F F8 FF FF 7F  .....E..........
0810: 73 30 32 33 01 80 01 46  08 02 09 10 1C 80 00 35  s023...F.......5
0820: 08 45 14 80 F8 FF FF 7F  F8 FF FF 7F 73 30 32 33  .E..........s023
0830: 01 80 01 46 08 45 14 80  F8 FF FF 7F F8 FF FF 7F  ...F.E..........
0840: 73 30 31 32 01 80 03 00  10 03 80 02 00 10 01 80  s012............
0850: 01 5F 09 24 35 80 01 80  01 80 25 02 00 10 01 80  ._.$5.....%.....
0860: 00 75 08 6E F0 FF FF 7F  28 80 99 F0 FF FF 7F 1C  .u.n....(.......
0870: 15 80 01 5C 09 02 00 10  03 80 00 5C 09 6E F0 FF  ...\.......\.n..
0880: FF 7F 1C 80 99 F0 FF FF  7F 1C 06 80 29 0F 9A 70  ............)..p
0890: 0F 01 11 1C 06 80 02 09  10 1B 80 00 B0 08 52 14  ..............R.
08A0: 80 F8 FF FF 7F F8 FF FF  7F 73 30 32 33 01 D9 08  .........s023...
08B0: 02 09 10 1C 80 00 CA 08  52 14 80 F8 FF FF 7F F8  ........R.......
08C0: FF FF 7F 73 30 32 33 01  D9 08 52 14 80 F8 FF FF  ...s023...R.....
08D0: 7F F8 FF FF 7F 73 30 31  32 45 14 80 F8 FF FF 7F  .....s012E......
08E0: F8 FF FF 7F 73 30 32 36  01 80 2B 9A 70 0F 01 36  ....s026..+.p..6
08F0: 80 23 2B 9A 70 0F 01 37  80 23 29 0F 9A 70 0F 01  .#+.p..7.#)..p..
0900: 12 52 14 80 F8 FF FF 7F  F8 FF FF 7F 73 30 32 36  .R..........s026
0910: 02 09 10 1B 80 00 2C 09  45 14 80 F8 FF FF 7F F8  ......,.E.......
0920: FF FF 7F 73 30 32 33 01  80 01 59 09 02 09 10 1C  ...s023...Y.....
0930: 80 00 48 09 45 14 80 F8  FF FF 7F F8 FF FF 7F 73  ..H.E..........s
0940: 30 32 33 01 80 01 59 09  45 14 80 F8 FF FF 7F F8  023...Y.E.......
0950: FF FF 7F 73 30 31 32 01  80 01 5C 09 01 4B 08 02  ...s012...\..K..
0960: 09 10 1B 80 00 79 09 52  14 80 F8 FF FF 7F F8 FF  .....y.R........
0970: FF 7F 73 30 32 33 01 A2  09 02 09 10 1C 80 00 93  ..s023..........
0980: 09 52 14 80 F8 FF FF 7F  F8 FF FF 7F 73 30 32 33  .R..........s023
0990: 01 A2 09 52 14 80 F8 FF  FF 7F F8 FF FF 7F 73 30  ...R..........s0
09A0: 31 32 02 09 10 1B 80 00  BE 09 45 14 80 F8 FF FF  12........E.....
09B0: 7F F8 FF FF 7F 73 30 32  32 01 80 01 EB 09 02 09  .....s022.......
09C0: 10 1C 80 00 DA 09 45 14  80 F8 FF FF 7F F8 FF FF  ......E.........
09D0: 7F 73 30 32 32 01 80 01  EB 09 45 14 80 F8 FF FF  .s022.....E.....
09E0: 7F F8 FF FF 7F 73 30 31  30 01 80 29 0F 9A 70 0F  .....s010..)..p.
09F0: 01 01 2B 9A 70 0F 01 38  80 23 29 0F 9A 70 0F 01  ..+.p..8.#)..p..
0A00: 02 29 0F 9A 70 0F 01 03  2B 9A 70 0F 01 39 80 23  .)..p...+.p..9.#
0A10: 29 0F 9A 70 0F 01 04 02  09 10 1B 80 00 31 0A 52  )..p.........1.R
0A20: 14 80 F8 FF FF 7F F8 FF  FF 7F 73 30 32 32 01 5A  ..........s022.Z
0A30: 0A 02 09 10 1C 80 00 4B  0A 52 14 80 F8 FF FF 7F  .......K.R......
0A40: F8 FF FF 7F 73 30 32 32  01 5A 0A 52 14 80 F8 FF  ....s022.Z.R....
0A50: FF 7F F8 FF FF 7F 73 30  31 30 45 14 80 F8 FF FF  ......s010E.....
0A60: 7F F8 FF FF 7F 73 30 31  33 01 80 27 0F 9A 70 0F  .....s013..'..p.
0A70: 01 1C 2B 9A 70 0F 01 3A  80 1C 06 80 4A F0 FF FF  ..+.p..:....J...
0A80: 7F 9A 70 0F 01 6F 76 F0  FF FF 7F 23 2A 0F 9A 70  ..p..ov....#*..p
0A90: 0F 01 02 87 7F 3B 80 01  7C 0D 02 02 00 01 80 00  .....;..|.......
0AA0: C7 0C 1A 64 00 52 14 80  F8 FF FF 7F F8 FF FF 7F  ...d.R..........
0AB0: 73 30 31 33 1C 03 80 34  3C 80 77 3D 80 03 80 1C  s013...4<.w=....
0AC0: 03 80 45 14 80 F8 FF FF  7F F8 FF FF 7F 73 30 31  ..E..........s01
0AD0: 35 01 80 1A 43 00 2B 9A  70 0F 01 3E 80 23 2B 9A  5...C.+.p..>.#+.
0AE0: 70 0F 01 3F 80 1C 19 80  52 14 80 F8 FF FF 7F F8  p..?....R.......
0AF0: FF FF 7F 73 30 31 35 45  14 80 F8 FF FF 7F F8 FF  ...s015E........
0B00: FF 7F 73 30 31 34 01 80  23 2B 9A 70 0F 01 40 80  ..s014..#+.p..@.
0B10: 23 1A 64 00 52 14 80 F8  FF FF 7F F8 FF FF 7F 73  #.d.R..........s
0B20: 30 31 34 35 41 80 78 1C  42 80 22 00 BA F0 FF FF  0145A.x.B.".....
0B30: 7F 09 80 0A 80 0B 80 0C  80 BA 9A 70 0F 01 43 80  ...........p..C.
0B40: 44 80 0B 80 45 80 80 F0  FF FF 7F 80 9A 70 0F 01  D...E........p..
0B50: 80 3D 70 0F 01 4A F0 FF  FF 7F 9A 70 0F 01 4A 9A  .=p..J.....p..J.
0B60: 70 0F 01 F0 FF FF 7F 6F  76 F0 FF FF 7F 6F 76 9A  p......ov....ov.
0B70: 70 0F 01 7B 9A 70 0F 01  29 0F 9A 70 0F 01 13 02  p..{.p..)..p....
0B80: 09 10 1B 80 00 9B 0B 45  14 80 F8 FF FF 7F F8 FF  .......E........
0B90: FF 7F 73 30 32 34 01 80  01 C8 0B 02 09 10 1C 80  ..s024..........
0BA0: 00 B7 0B 45 14 80 F8 FF  FF 7F F8 FF FF 7F 73 30  ...E..........s0
0BB0: 32 34 01 80 01 C8 0B 45  14 80 F8 FF FF 7F F8 FF  24.....E........
0BC0: FF 7F 73 30 31 36 01 80  1A 43 00 03 03 10 46 80  ..s016...C....F.
0BD0: 2B 9A 70 0F 01 47 80 23  29 0F 9A 70 0F 01 14 02  +.p..G.#)..p....
0BE0: 09 10 1B 80 00 F9 0B 52  14 80 F8 FF FF 7F F8 FF  .......R........
0BF0: FF 7F 73 30 32 34 01 22  0C 02 09 10 1C 80 00 13  ..s024."........
0C00: 0C 52 14 80 F8 FF FF 7F  F8 FF FF 7F 73 30 32 34  .R..........s024
0C10: 01 22 0C 52 14 80 F8 FF  FF 7F F8 FF FF 7F 73 30  .".R..........s0
0C20: 31 36 02 09 10 1B 80 00  3E 0C 45 14 80 F8 FF FF  16......>.E.....
0C30: 7F F8 FF FF 7F 73 30 32  35 01 80 01 6B 0C 02 09  .....s025...k...
0C40: 10 1C 80 00 5A 0C 45 14  80 F8 FF FF 7F F8 FF FF  ....Z.E.........
0C50: 7F 73 30 32 35 01 80 01  6B 0C 45 14 80 F8 FF FF  .s025...k.E.....
0C60: 7F F8 FF FF 7F 73 30 31  37 01 80 29 0F 9A 70 0F  .....s017..)..p.
0C70: 01 15 2B 9A 70 0F 01 48  80 23 29 0F 9A 70 0F 01  ..+.p..H.#)..p..
0C80: 16 02 09 10 1B 80 00 9B  0C 52 14 80 F8 FF FF 7F  .........R......
0C90: F8 FF FF 7F 73 30 32 35  01 C4 0C 02 09 10 1C 80  ....s025........
0CA0: 00 B5 0C 52 14 80 F8 FF  FF 7F F8 FF FF 7F 73 30  ...R..........s0
0CB0: 32 35 01 C4 0C 52 14 80  F8 FF FF 7F F8 FF FF 7F  25...R..........
0CC0: 73 30 31 37 01 79 0D 52  14 80 F8 FF FF 7F F8 FF  s017.y.R........
0CD0: FF 7F 73 30 31 33 02 09  10 1B 80 00 F2 0C 45 14  ..s013........E.
0CE0: 80 F8 FF FF 7F F8 FF FF  7F 73 30 32 34 01 80 01  .........s024...
0CF0: 1F 0D 02 09 10 1C 80 00  0E 0D 45 14 80 F8 FF FF  ..........E.....
0D00: 7F F8 FF FF 7F 73 30 32  34 01 80 01 1F 0D 45 14  .....s024.....E.
0D10: 80 F8 FF FF 7F F8 FF FF  7F 73 30 31 36 01 80 4A  .........s016..J
0D20: 9A 70 0F 01 F0 FF FF 7F  6F 76 9A 70 0F 01 2B 9A  .p......ov.p..+.
0D30: 70 0F 01 49 80 23 02 09  10 1B 80 00 50 0D 52 14  p..I.#......P.R.
0D40: 80 F8 FF FF 7F F8 FF FF  7F 73 30 32 34 01 79 0D  .........s024.y.
0D50: 02 09 10 1C 80 00 6A 0D  52 14 80 F8 FF FF 7F F8  ......j.R.......
0D60: FF FF 7F 73 30 32 34 01  79 0D 52 14 80 F8 FF FF  ...s024.y.R.....
0D70: 7F F8 FF FF 7F 73 30 31  36 01 2E 0E 52 14 80 F8  .....s016...R...
0D80: FF FF 7F F8 FF FF 7F 73  30 31 33 02 09 10 1B 80  .......s013.....
0D90: 00 A7 0D 45 14 80 F8 FF  FF 7F F8 FF FF 7F 73 30  ...E..........s0
0DA0: 32 34 01 80 01 D4 0D 02  09 10 1C 80 00 C3 0D 45  24.............E
0DB0: 14 80 F8 FF FF 7F F8 FF  FF 7F 73 30 32 34 01 80  ..........s024..
0DC0: 01 D4 0D 45 14 80 F8 FF  FF 7F F8 FF FF 7F 73 30  ...E..........s0
0DD0: 31 36 01 80 4A 9A 70 0F  01 F0 FF FF 7F 6F 76 9A  16..J.p......ov.
0DE0: 70 0F 01 2B 9A 70 0F 01  49 80 23 02 09 10 1B 80  p..+.p..I.#.....
0DF0: 00 05 0E 52 14 80 F8 FF  FF 7F F8 FF FF 7F 73 30  ...R..........s0
0E00: 32 34 01 2E 0E 02 09 10  1C 80 00 1F 0E 52 14 80  24...........R..
0E10: F8 FF FF 7F F8 FF FF 7F  73 30 32 34 01 2E 0E 52  ........s024...R
0E20: 14 80 F8 FF FF 7F F8 FF  FF 7F 73 30 31 36 45 14  ..........s016E.
0E30: 80 F8 FF FF 7F F8 FF FF  7F 73 30 31 38 01 80 29  .........s018..)
0E40: 0F 9A 70 0F 01 01 2B 9A  70 0F 01 4A 80 23 2B 9A  ..p...+.p..J.#+.
0E50: 70 0F 01 4B 80 23 29 0F  9A 70 0F 01 02 52 14 80  p..K.#)..p...R..
0E60: F8 FF FF 7F F8 FF FF 7F  73 30 31 38 45 14 80 F8  ........s018E...
0E70: FF FF 7F F8 FF FF 7F 73  30 31 39 01 80 29 0F 9A  .......s019..)..
0E80: 70 0F 01 03 6E F0 FF FF  7F 28 80 99 F0 FF FF 7F  p...n....(......
0E90: 1C 15 80 29 0F 9A 70 0F  01 04 7B 9A 70 0F 01 5D  ...)..p...{.p..]
0EA0: 01 80 1F 80 27 0F 9A 70  0F 01 1E 1C 06 80 4A F0  ....'..p......J.
0EB0: FF FF 7F 9A 70 0F 01 6F  76 F0 FF FF 7F 1C 06 80  ....p..ov.......
0EC0: 4A F0 FF FF 7F 9A 70 0F  01 1A 64 00 2A 0F 9A 70  J.....p...d.*..p
0ED0: 0F 01 6F 76 F0 FF FF 7F  52 14 80 F8 FF FF 7F F8  ..ov....R.......
0EE0: FF FF 7F 73 30 31 39 5C  00 3C 80 5C 01 3C 80 9A  ...s019\.<.\.<..
0EF0: 5D 25 80 03 80 1C 42 80  AB 11 01 80 1C 03 80 46  ]%....B........F
0F00: 00 45 00 80 F8 FF FF 7F  F8 FF FF 7F 66 64 69 32  .E..........fdi2
0F10: 01 80 21 00                                       ..!.            
```

#### Opcodes

```
  0: 0x0292 [0x42] SET_CLI_EVENT_CANCEL_DATA()
  1: 0x0293 [0x03] ExtData[1]->WorkLocal[2] = Work_Zone[3]
  2: 0x0298 [0x1A] CALL_SUBROUTINE(address=0x0064)
  3: 0x029B [0x46] CAMERA_CONTROL: Disable user control
  4: 0x029D [0x38] SET_CLIENT_EVENT_MODE(mode=147*)
  5: 0x02A0 [0x2F] Raebrimm (ID: 17789082/0x010F709A)->Render.Flags0 &= ~0x80000 // Bit 19
  6: 0x02A6 [0x4E] SET_ENTITY_HIDE_FLAG: Show Dancing Wolf (ID: 17788989/0x010F703D)
  7: 0x02AC [0x4E] SET_ENTITY_HIDE_FLAG: Show Raebrimm (ID: 17789082/0x010F709A)
  8: 0x02B2 [0x92] Dancing Wolf (ID: 17788989/0x010F703D)->Render.Flags3 ^= 0x01
  9: 0x02B8 [0x92] Raebrimm (ID: 17789082/0x010F709A)->Render.Flags3 ^= 0x01
 10: 0x02BE [0x94] Dancing Wolf (ID: 17788989/0x010F703D)->Render.Flags3 ^= 0x01
 11: 0x02C4 [0x94] LocalPlayer->Render.Flags3 ^= 0x01
 12: 0x02CA [0x94] Raebrimm (ID: 17789082/0x010F709A)->Render.Flags3 ^= 0x01
 13: 0x02D0 [0xBA] SET_ENTITY_POSITION(entity_id=LocalPlayer, pos_x=6.258*, pos_z=78.754*, pos_y=7.999*, direction=298.4°*)
 14: 0x02DD [0xBA] SET_ENTITY_POSITION(entity_id=Raebrimm (ID: 17789082/0x010F709A), pos_x=3.191*, pos_z=95.350*, pos_y=7.999*, direction=73.1°*)
 15: 0x02EA [0xBA] SET_ENTITY_POSITION(entity_id=Dancing Wolf (ID: 17788989/0x010F703D), pos_x=7.619*, pos_z=81.209*, pos_y=8.000*, direction=116.9°*)
 16: 0x02F7 [0x4A] LocalPlayer looks at Dancing Wolf (ID: 17788989/0x010F703D)
 17: 0x0300 [0x4A] Dancing Wolf (ID: 17788989/0x010F703D) looks at LocalPlayer
 18: 0x0309 [0x6F] WAIT_FRAME_DELAY: Yield until WaitTime reaches zero
 19: 0x030A [0x76] CHECK_ENTITY_RENDER_FLAGS: Wait until LocalPlayer Render.Flags0 and Render.Flags3 conditions are met
 20: 0x030F [0x6F] WAIT_FRAME_DELAY: Yield until WaitTime reaches zero
 21: 0x0310 [0x76] CHECK_ENTITY_RENDER_FLAGS: Wait until Dancing Wolf (ID: 17788989/0x010F703D) Render.Flags0 and Render.Flags3 conditions are met
 22: 0x0315 [0x80] LOAD_WAIT(entity=Dancing Wolf (ID: 17788989/0x010F703D))
 23: 0x031A [0x80] LOAD_WAIT(entity=LocalPlayer)
 24: 0x031F [0x80] LOAD_WAIT(entity=Raebrimm (ID: 17789082/0x010F709A))
 25: 0x0324 [0x6C] FADE_ENTITY_COLOR(entity_id=Raebrimm (ID: 17789082/0x010F709A), end_alpha=0*, fade_time=1*)
 26: 0x032D [0x1C] WAIT(1* ticks)
 27: 0x0330 [0x29] REQ_SET_WAIT(priority=0x0F, entity_id=LocalPlayer, tag_num=0x15)
 28: 0x0337 [0x45] LOAD_SCHEDULED_TASK: Load scheduler "s000" with entities [EventEntity, EventEntity], work=[891*, 0*]
 29: 0x0348 [0x1A] CALL_SUBROUTINE(address=0x0043)
 30: 0x034B [0x29] REQ_SET_WAIT(priority=0x0F, entity_id=LocalPlayer, tag_num=0x18)
 31: 0x0352 [0x1C] WAIT(60* ticks)
 32: 0x0355 [0x29] REQ_SET_WAIT(priority=0x0F, entity_id=LocalPlayer, tag_num=0x19)
 33: 0x035C [0x1C] WAIT(60* ticks)
 34: 0x035F [0x29] REQ_SET_WAIT(priority=0x0F, entity_id=Dancing Wolf (ID: 17788989/0x010F703D), tag_num=0x08)
 35: 0x0366 [0x2B] Dancing Wolf (ID: 17788989/0x010F703D) [12351*]:
    → "What's that? You're asking if I know a Galkan child named Raebrimm?"
 36: 0x036D [0x23] WAIT_FOR_DIALOG_INTERACTION
 37: 0x036E [0x29] REQ_SET_WAIT(priority=0x0F, entity_id=Dancing Wolf (ID: 17788989/0x010F703D), tag_num=0x09)
 38: 0x0375 [0x7B] Dancing Wolf (ID: 17788989/0x010F703D) stops talking
 39: 0x037A [0x52] END_LOAD_SCHEDULER: End scheduler "s000" with entities [EventEntity, EventEntity], work=891*
 40: 0x0389 [0x45] LOAD_SCHEDULED_TASK: Load scheduler "s001" with entities [EventEntity, EventEntity], work=[891*, 0*]
 41: 0x039A [0x2B] Dancing Wolf (ID: 17788989/0x010F703D) [12352*]:
    → "Ah! You must be talking about that kid wandering in the desert!"
 42: 0x03A1 [0x6E] Dancing Wolf (ID: 17788989/0x010F703D) uses emote 21*
 43: 0x03A8 [0x99] Wait for Dancing Wolf (ID: 17788989/0x010F703D) animation to complete
 44: 0x03AD [0x1C] WAIT(90* ticks)
 45: 0x03B0 [0x23] WAIT_FOR_DIALOG_INTERACTION
 46: 0x03B1 [0x29] REQ_SET_WAIT(priority=0x0F, entity_id=Dancing Wolf (ID: 17788989/0x010F703D), tag_num=0x18)
 47: 0x03B8 [0x79] Dancing Wolf (ID: 17788989/0x010F703D) looks at LocalPlayer (Basic look)
 48: 0x03C2 [0x2B] Dancing Wolf (ID: 17788989/0x010F703D) [12353*]:
    → "I thought it was strange--seeing a kid like that all by himself in such a dangerous place."
 49: 0x03C9 [0x23] WAIT_FOR_DIALOG_INTERACTION
 50: 0x03CA [0x52] END_LOAD_SCHEDULER: End scheduler "s001" with entities [EventEntity, EventEntity], work=891*
 51: 0x03D9 [0x02] IF !(Work_Zone[9] == 5*) GOTO 0x03F5
 52: 0x03E1 [0x45] LOAD_SCHEDULED_TASK: Load scheduler "s020" with entities [EventEntity, EventEntity], work=[891*, 0*]
 53: 0x03F2 [0x01] GOTO 0x0422
 54: 0x03F5 [0x02] IF !(Work_Zone[9] == 6*) GOTO 0x0411
 55: 0x03FD [0x45] LOAD_SCHEDULED_TASK: Load scheduler "s020" with entities [EventEntity, EventEntity], work=[891*, 0*]
 56: 0x040E [0x01] GOTO 0x0422
 57: 0x0411 [0x45] LOAD_SCHEDULED_TASK: Load scheduler "s002" with entities [EventEntity, EventEntity], work=[891*, 0*]

SUBROUTINE_0422:
 58: 0x0422 [0x2B] Dancing Wolf (ID: 17788989/0x010F703D) [12354*]:
    → "According to him, the monsters were actively avoiding him though. Have you ever heard of such a thing?"
 59: 0x0429 [0x23] WAIT_FOR_DIALOG_INTERACTION
 60: 0x042A [0x29] REQ_SET_WAIT(priority=0x0F, entity_id=Dancing Wolf (ID: 17788989/0x010F703D), tag_num=0x19)
 61: 0x0431 [0x29] REQ_SET_WAIT(priority=0x0F, entity_id=Dancing Wolf (ID: 17788989/0x010F703D), tag_num=0x1A)
 62: 0x0438 [0x2B] Dancing Wolf (ID: 17788989/0x010F703D) [12355*]:
    → "Anyways, wait right here! I'll go get him for you!"
 63: 0x043F [0x23] WAIT_FOR_DIALOG_INTERACTION
 64: 0x0440 [0x02] IF !(Work_Zone[9] == 5*) GOTO 0x045A
 65: 0x0448 [0x52] END_LOAD_SCHEDULER: End scheduler "s020" with entities [EventEntity, EventEntity], work=891*
 66: 0x0457 [0x01] GOTO 0x0483
 67: 0x045A [0x02] IF !(Work_Zone[9] == 6*) GOTO 0x0474
 68: 0x0462 [0x52] END_LOAD_SCHEDULER: End scheduler "s020" with entities [EventEntity, EventEntity], work=891*
 69: 0x0471 [0x01] GOTO 0x0483
 70: 0x0474 [0x52] END_LOAD_SCHEDULER: End scheduler "s002" with entities [EventEntity, EventEntity], work=891*

SUBROUTINE_0483:
 71: 0x0483 [0x45] LOAD_SCHEDULED_TASK: Load scheduler "s003" with entities [EventEntity, EventEntity], work=[891*, 0*]
 72: 0x0494 [0x29] REQ_SET_WAIT(priority=0x0F, entity_id=Dancing Wolf (ID: 17788989/0x010F703D), tag_num=0x1B)
 73: 0x049B [0x7B] Dancing Wolf (ID: 17788989/0x010F703D) stops talking
 74: 0x04A0 [0x27] REQ_SET(priority=0x0F, entity_id=Dancing Wolf (ID: 17788989/0x010F703D), tag_num=0x26)
 75: 0x04A7 [0x1C] WAIT(60* ticks)
 76: 0x04AA [0x5D] SET_MUSIC_VOLUME(volume=0*, fade_time=300*)
 77: 0x04AF [0x1A] CALL_SUBROUTINE(address=0x0064)
 78: 0x04B2 [0x2A] GET_REQ_LEVEL(level=15, entity_id=Dancing Wolf (ID: 17788989/0x010F703D))
 79: 0x04B8 [0x52] END_LOAD_SCHEDULER: End scheduler "s003" with entities [EventEntity, EventEntity], work=891*
 80: 0x04C7 [0x6C] FADE_ENTITY_COLOR(entity_id=Raebrimm (ID: 17789082/0x010F709A), end_alpha=128*, fade_time=1*)
 81: 0x04D0 [0x1C] WAIT(1* ticks)
 82: 0x04D3 [0xBA] SET_ENTITY_POSITION(entity_id=Dancing Wolf (ID: 17788989/0x010F703D), pos_x=-2.910*, pos_z=102.295*, pos_y=8.000*, direction=27.9°*)
 83: 0x04E0 [0x5C] MUSIC_CONTROL: Set Idle (Day) music to song 25*
 84: 0x04E4 [0x5C] MUSIC_CONTROL: Set Idle (Night) music to song 25*
 85: 0x04E8 [0x9A] WAIT_MUSIC_SERVER()
 86: 0x04E9 [0x5D] SET_MUSIC_VOLUME(volume=127*, fade_time=1*)
 87: 0x04EE [0x27] REQ_SET(priority=0x0F, entity_id=Raebrimm (ID: 17789082/0x010F709A), tag_num=0x1B)
 88: 0x04F5 [0x27] REQ_SET(priority=0x0F, entity_id=Dancing Wolf (ID: 17788989/0x010F703D), tag_num=0x27)
 89: 0x04FC [0x45] LOAD_SCHEDULED_TASK: Load scheduler "s004" with entities [EventEntity, EventEntity], work=[891*, 0*]
 90: 0x050D [0x1A] CALL_SUBROUTINE(address=0x0043)
 91: 0x0510 [0x2B] Raebrimm (ID: 17789082/0x010F709A) [12356*]:
    → "<Player>!"
 92: 0x0517 [0x1C] WAIT(30* ticks)
 93: 0x051A [0x4A] LocalPlayer looks at Raebrimm (ID: 17789082/0x010F709A)
 94: 0x0523 [0x6F] WAIT_FRAME_DELAY: Yield until WaitTime reaches zero
 95: 0x0524 [0x76] CHECK_ENTITY_RENDER_FLAGS: Wait until LocalPlayer Render.Flags0 and Render.Flags3 conditions are met
 96: 0x0529 [0x52] END_LOAD_SCHEDULER: End scheduler "s004" with entities [EventEntity, EventEntity], work=891*
 97: 0x0538 [0x45] LOAD_SCHEDULED_TASK: Load scheduler "s005" with entities [EventEntity, EventEntity], work=[891*, 0*]
 98: 0x0549 [0x23] WAIT_FOR_DIALOG_INTERACTION
 99: 0x054A [0x2A] GET_REQ_LEVEL(level=15, entity_id=Raebrimm (ID: 17789082/0x010F709A))
100: 0x0550 [0x4A] LocalPlayer looks at Raebrimm (ID: 17789082/0x010F709A)
101: 0x0559 [0x2B] Raebrimm (ID: 17789082/0x010F709A) [12357*]:
    → "I'm sorry... Were Gumbah and the others worried about me?"
102: 0x0560 [0x23] WAIT_FOR_DIALOG_INTERACTION
103: 0x0561 [0x6F] WAIT_FRAME_DELAY: Yield until WaitTime reaches zero
104: 0x0562 [0x76] CHECK_ENTITY_RENDER_FLAGS: Wait until LocalPlayer Render.Flags0 and Render.Flags3 conditions are met
105: 0x0567 [0x52] END_LOAD_SCHEDULER: End scheduler "s005" with entities [EventEntity, EventEntity], work=891*
106: 0x0576 [0x02] IF !(Work_Zone[9] == 5*) GOTO 0x0592
107: 0x057E [0x45] LOAD_SCHEDULED_TASK: Load scheduler "s021" with entities [EventEntity, EventEntity], work=[891*, 0*]
108: 0x058F [0x01] GOTO 0x05BF
109: 0x0592 [0x02] IF !(Work_Zone[9] == 6*) GOTO 0x05AE
110: 0x059A [0x45] LOAD_SCHEDULED_TASK: Load scheduler "s021" with entities [EventEntity, EventEntity], work=[891*, 0*]
111: 0x05AB [0x01] GOTO 0x05BF
112: 0x05AE [0x45] LOAD_SCHEDULED_TASK: Load scheduler "s006" with entities [EventEntity, EventEntity], work=[891*, 0*]

SUBROUTINE_05BF:
113: 0x05BF [0x6E] LocalPlayer uses emote 7*
114: 0x05C6 [0x99] Wait for LocalPlayer animation to complete
115: 0x05CB [0x1C] WAIT(60* ticks)
116: 0x05CE [0x29] REQ_SET_WAIT(priority=0x0F, entity_id=Raebrimm (ID: 17789082/0x010F709A), tag_num=0x01)
117: 0x05D5 [0x2B] Raebrimm (ID: 17789082/0x010F709A) [12358*]:
    → "You see, I actually started remembering some things about my rebirth."
118: 0x05DC [0x23] WAIT_FOR_DIALOG_INTERACTION
119: 0x05DD [0x2B] Raebrimm (ID: 17789082/0x010F709A) [12359*]:
    → "At the foot of some mountain, I found an eggshell in the darkness and then started climbing the mountain, when I met someone along the way..."
120: 0x05E4 [0x23] WAIT_FOR_DIALOG_INTERACTION
121: 0x05E5 [0x29] REQ_SET_WAIT(priority=0x0F, entity_id=Raebrimm (ID: 17789082/0x010F709A), tag_num=0x02)
122: 0x05EC [0x29] REQ_SET_WAIT(priority=0x0F, entity_id=Raebrimm (ID: 17789082/0x010F709A), tag_num=0x03)
123: 0x05F3 [0x29] REQ_SET_WAIT(priority=0x0F, entity_id=Raebrimm (ID: 17789082/0x010F709A), tag_num=0x04)
124: 0x05FA [0x2A] GET_REQ_LEVEL(level=15, entity_id=Dancing Wolf (ID: 17788989/0x010F703D))
125: 0x0600 [0x02] IF !(Work_Zone[9] == 5*) GOTO 0x061A
126: 0x0608 [0x52] END_LOAD_SCHEDULER: End scheduler "s021" with entities [EventEntity, EventEntity], work=891*
127: 0x0617 [0x01] GOTO 0x0643
128: 0x061A [0x02] IF !(Work_Zone[9] == 6*) GOTO 0x0634
129: 0x0622 [0x52] END_LOAD_SCHEDULER: End scheduler "s021" with entities [EventEntity, EventEntity], work=891*
130: 0x0631 [0x01] GOTO 0x0643
131: 0x0634 [0x52] END_LOAD_SCHEDULER: End scheduler "s006" with entities [EventEntity, EventEntity], work=891*

SUBROUTINE_0643:
132: 0x0643 [0x45] LOAD_SCHEDULED_TASK: Load scheduler "s007" with entities [EventEntity, EventEntity], work=[891*, 0*]
133: 0x0654 [0x29] REQ_SET_WAIT(priority=0x0F, entity_id=Raebrimm (ID: 17789082/0x010F709A), tag_num=0x09)
134: 0x065B [0x2B] Raebrimm (ID: 17789082/0x010F709A) [12360*]:
    → "I have a feeling they were telling me that I needed to give someone an important message!"
135: 0x0662 [0x23] WAIT_FOR_DIALOG_INTERACTION
136: 0x0663 [0x29] REQ_SET_WAIT(priority=0x0F, entity_id=Raebrimm (ID: 17789082/0x010F709A), tag_num=0x0A)
137: 0x066A [0x29] REQ_SET_WAIT(priority=0x0F, entity_id=Raebrimm (ID: 17789082/0x010F709A), tag_num=0x0B)
138: 0x0671 [0x2B] Raebrimm (ID: 17789082/0x010F709A) [12361*]:
    → "Unfortunately, that's all I can remember. That's why I couldn't stay there and just do nothing."
139: 0x0678 [0x23] WAIT_FOR_DIALOG_INTERACTION
140: 0x0679 [0x29] REQ_SET_WAIT(priority=0x0F, entity_id=Raebrimm (ID: 17789082/0x010F709A), tag_num=0x0C)
141: 0x0680 [0x52] END_LOAD_SCHEDULER: End scheduler "s007" with entities [EventEntity, EventEntity], work=891*
142: 0x068F [0x45] LOAD_SCHEDULED_TASK: Load scheduler "s008" with entities [EventEntity, EventEntity], work=[891*, 0*]
143: 0x06A0 [0x29] REQ_SET_WAIT(priority=0x0F, entity_id=Raebrimm (ID: 17789082/0x010F709A), tag_num=0x01)
144: 0x06A7 [0x2B] Raebrimm (ID: 17789082/0x010F709A) [12362*]:
    → "Do you know of Revelation Rock in the Western Altepa Desert? It's a large rock that rises up to the heavens above."
145: 0x06AE [0x23] WAIT_FOR_DIALOG_INTERACTION
146: 0x06AF [0x2B] Raebrimm (ID: 17789082/0x010F709A) [12363*]:
    → "Long ago, the Galka who lived on this island used it for their spiritual training."
147: 0x06B6 [0x23] WAIT_FOR_DIALOG_INTERACTION
148: 0x06B7 [0x29] REQ_SET_WAIT(priority=0x0F, entity_id=Raebrimm (ID: 17789082/0x010F709A), tag_num=0x02)
149: 0x06BE [0x29] REQ_SET_WAIT(priority=0x0F, entity_id=Raebrimm (ID: 17789082/0x010F709A), tag_num=0x03)
150: 0x06C5 [0x2B] Raebrimm (ID: 17789082/0x010F709A) [12364*]:
    → "As such, I think my journey of rebirth may have begun from there... That's why I decided to check it out."
151: 0x06CC [0x23] WAIT_FOR_DIALOG_INTERACTION
152: 0x06CD [0x29] REQ_SET_WAIT(priority=0x0F, entity_id=Raebrimm (ID: 17789082/0x010F709A), tag_num=0x04)
153: 0x06D4 [0x52] END_LOAD_SCHEDULER: End scheduler "s008" with entities [EventEntity, EventEntity], work=891*
154: 0x06E3 [0x45] LOAD_SCHEDULED_TASK: Load scheduler "s009" with entities [EventEntity, EventEntity], work=[891*, 0*]
155: 0x06F4 [0x2B] Raebrimm (ID: 17789082/0x010F709A) [12365*]:
    → "However, that wasn't the mountain I saw in my dream. I wonder where it could be..."
156: 0x06FB [0x23] WAIT_FOR_DIALOG_INTERACTION
157: 0x06FC [0x52] END_LOAD_SCHEDULER: End scheduler "s009" with entities [EventEntity, EventEntity], work=891*
158: 0x070B [0x02] IF !(Work_Zone[9] == 5*) GOTO 0x0727
159: 0x0713 [0x45] LOAD_SCHEDULED_TASK: Load scheduler "s022" with entities [EventEntity, EventEntity], work=[891*, 0*]
160: 0x0724 [0x01] GOTO 0x0754
161: 0x0727 [0x02] IF !(Work_Zone[9] == 6*) GOTO 0x0743
162: 0x072F [0x45] LOAD_SCHEDULED_TASK: Load scheduler "s022" with entities [EventEntity, EventEntity], work=[891*, 0*]
163: 0x0740 [0x01] GOTO 0x0754
164: 0x0743 [0x45] LOAD_SCHEDULED_TASK: Load scheduler "s010" with entities [EventEntity, EventEntity], work=[891*, 0*]

SUBROUTINE_0754:
165: 0x0754 [0x29] REQ_SET_WAIT(priority=0x0F, entity_id=Raebrimm (ID: 17789082/0x010F709A), tag_num=0x05)
166: 0x075B [0x2B] Raebrimm (ID: 17789082/0x010F709A) [12366*]:
    → "So I then decided to look around here for anything that the Galka who used to live here might've left behind."
167: 0x0762 [0x23] WAIT_FOR_DIALOG_INTERACTION
168: 0x0763 [0x2B] Raebrimm (ID: 17789082/0x010F709A) [12367*]:
    → "In doing so, the adventurers in Rabao told me that there's a statue of a Galka deep within the Quicksand Caves."
169: 0x076A [0x23] WAIT_FOR_DIALOG_INTERACTION
170: 0x076B [0x29] REQ_SET_WAIT(priority=0x0F, entity_id=Raebrimm (ID: 17789082/0x010F709A), tag_num=0x06)
171: 0x0772 [0x02] IF !(Work_Zone[9] == 5*) GOTO 0x078C
172: 0x077A [0x52] END_LOAD_SCHEDULER: End scheduler "s022" with entities [EventEntity, EventEntity], work=891*
173: 0x0789 [0x01] GOTO 0x07B5
174: 0x078C [0x02] IF !(Work_Zone[9] == 6*) GOTO 0x07A6
175: 0x0794 [0x52] END_LOAD_SCHEDULER: End scheduler "s022" with entities [EventEntity, EventEntity], work=891*
176: 0x07A3 [0x01] GOTO 0x07B5
177: 0x07A6 [0x52] END_LOAD_SCHEDULER: End scheduler "s010" with entities [EventEntity, EventEntity], work=891*

SUBROUTINE_07B5:
178: 0x07B5 [0x45] LOAD_SCHEDULED_TASK: Load scheduler "s011" with entities [EventEntity, EventEntity], work=[891*, 0*]
179: 0x07C6 [0x29] REQ_SET_WAIT(priority=0x0F, entity_id=Raebrimm (ID: 17789082/0x010F709A), tag_num=0x07)
180: 0x07CD [0x2B] Raebrimm (ID: 17789082/0x010F709A) [12368*]:
    → "So, would you mind going with me to investigate?"
181: 0x07D4 [0x23] WAIT_FOR_DIALOG_INTERACTION
182: 0x07D5 [0x29] REQ_SET_WAIT(priority=0x0F, entity_id=Raebrimm (ID: 17789082/0x010F709A), tag_num=0x08)
183: 0x07DC [0x79] Raebrimm (ID: 17789082/0x010F709A) looks at LocalPlayer (Basic look)
184: 0x07E6 [0x2B] Raebrimm (ID: 17789082/0x010F709A) [12369*]:
    → "Although I could probably make it on my own if I kept myself hidden, I'm a little scared..."
185: 0x07ED [0x23] WAIT_FOR_DIALOG_INTERACTION
186: 0x07EE [0x52] END_LOAD_SCHEDULER: End scheduler "s011" with entities [EventEntity, EventEntity], work=891*
187: 0x07FD [0x02] IF !(Work_Zone[9] == 5*) GOTO 0x0819
188: 0x0805 [0x45] LOAD_SCHEDULED_TASK: Load scheduler "s023" with entities [EventEntity, EventEntity], work=[891*, 0*]
189: 0x0816 [0x01] GOTO 0x0846
190: 0x0819 [0x02] IF !(Work_Zone[9] == 6*) GOTO 0x0835
191: 0x0821 [0x45] LOAD_SCHEDULED_TASK: Load scheduler "s023" with entities [EventEntity, EventEntity], work=[891*, 0*]
192: 0x0832 [0x01] GOTO 0x0846
193: 0x0835 [0x45] LOAD_SCHEDULED_TASK: Load scheduler "s012" with entities [EventEntity, EventEntity], work=[891*, 0*]

SUBROUTINE_0846:
194: 0x0846 [0x03] Work_Zone[0] = 1*

SUBROUTINE_084B:
195: 0x084B [0x02] IF !(Work_Zone[0] == 0*) GOTO 0x095F
196: 0x0853 [0x24] CREATE_DIALOG(message_id=12370*, default_option=0*, option_flags=0*)
    → "Accept Raebrimm's request? [Of course./Sorry, I'm busy.]"
197: 0x085A [0x25] WAIT_DIALOG_SELECT()
198: 0x085B [0x02] IF !(Work_Zone[0] == 0*) GOTO 0x0875
199: 0x0863 [0x6E] LocalPlayer uses emote 7*
200: 0x086A [0x99] Wait for LocalPlayer animation to complete
201: 0x086F [0x1C] WAIT(60* ticks)
202: 0x0872 [0x01] GOTO 0x095C
203: 0x0875 [0x02] IF !(Work_Zone[0] == 1*) GOTO 0x095C
204: 0x087D [0x6E] LocalPlayer uses emote 6*
205: 0x0884 [0x99] Wait for LocalPlayer animation to complete
206: 0x0889 [0x1C] WAIT(30* ticks)
207: 0x088C [0x29] REQ_SET_WAIT(priority=0x0F, entity_id=Raebrimm (ID: 17789082/0x010F709A), tag_num=0x11)
208: 0x0893 [0x1C] WAIT(30* ticks)
209: 0x0896 [0x02] IF !(Work_Zone[9] == 5*) GOTO 0x08B0
210: 0x089E [0x52] END_LOAD_SCHEDULER: End scheduler "s023" with entities [EventEntity, EventEntity], work=891*
211: 0x08AD [0x01] GOTO 0x08D9
212: 0x08B0 [0x02] IF !(Work_Zone[9] == 6*) GOTO 0x08CA
213: 0x08B8 [0x52] END_LOAD_SCHEDULER: End scheduler "s023" with entities [EventEntity, EventEntity], work=891*
214: 0x08C7 [0x01] GOTO 0x08D9
215: 0x08CA [0x52] END_LOAD_SCHEDULER: End scheduler "s012" with entities [EventEntity, EventEntity], work=891*

SUBROUTINE_08D9:
216: 0x08D9 [0x45] LOAD_SCHEDULED_TASK: Load scheduler "s026" with entities [EventEntity, EventEntity], work=[891*, 0*]
217: 0x08EA [0x2B] Raebrimm (ID: 17789082/0x010F709A) [12371*]:
    → "Please... I've already come all this way."
218: 0x08F1 [0x23] WAIT_FOR_DIALOG_INTERACTION
219: 0x08F2 [0x2B] Raebrimm (ID: 17789082/0x010F709A) [12372*]:
    → "I don't want to return to Bastok empty-handed. Please reconsider..."
220: 0x08F9 [0x23] WAIT_FOR_DIALOG_INTERACTION
221: 0x08FA [0x29] REQ_SET_WAIT(priority=0x0F, entity_id=Raebrimm (ID: 17789082/0x010F709A), tag_num=0x12)
222: 0x0901 [0x52] END_LOAD_SCHEDULER: End scheduler "s026" with entities [EventEntity, EventEntity], work=891*
223: 0x0910 [0x02] IF !(Work_Zone[9] == 5*) GOTO 0x092C
224: 0x0918 [0x45] LOAD_SCHEDULED_TASK: Load scheduler "s023" with entities [EventEntity, EventEntity], work=[891*, 0*]
225: 0x0929 [0x01] GOTO 0x0959
226: 0x092C [0x02] IF !(Work_Zone[9] == 6*) GOTO 0x0948
227: 0x0934 [0x45] LOAD_SCHEDULED_TASK: Load scheduler "s023" with entities [EventEntity, EventEntity], work=[891*, 0*]
228: 0x0945 [0x01] GOTO 0x0959
229: 0x0948 [0x45] LOAD_SCHEDULED_TASK: Load scheduler "s012" with entities [EventEntity, EventEntity], work=[891*, 0*]

SUBROUTINE_0959:
230: 0x0959 [0x01] GOTO 0x095C

SUBROUTINE_095C:
231: 0x095C [0x01] GOTO 0x084B
232: 0x095F [0x02] IF !(Work_Zone[9] == 5*) GOTO 0x0979
233: 0x0967 [0x52] END_LOAD_SCHEDULER: End scheduler "s023" with entities [EventEntity, EventEntity], work=891*
234: 0x0976 [0x01] GOTO 0x09A2
235: 0x0979 [0x02] IF !(Work_Zone[9] == 6*) GOTO 0x0993
236: 0x0981 [0x52] END_LOAD_SCHEDULER: End scheduler "s023" with entities [EventEntity, EventEntity], work=891*
237: 0x0990 [0x01] GOTO 0x09A2
238: 0x0993 [0x52] END_LOAD_SCHEDULER: End scheduler "s012" with entities [EventEntity, EventEntity], work=891*

SUBROUTINE_09A2:
239: 0x09A2 [0x02] IF !(Work_Zone[9] == 5*) GOTO 0x09BE
240: 0x09AA [0x45] LOAD_SCHEDULED_TASK: Load scheduler "s022" with entities [EventEntity, EventEntity], work=[891*, 0*]
241: 0x09BB [0x01] GOTO 0x09EB
242: 0x09BE [0x02] IF !(Work_Zone[9] == 6*) GOTO 0x09DA
243: 0x09C6 [0x45] LOAD_SCHEDULED_TASK: Load scheduler "s022" with entities [EventEntity, EventEntity], work=[891*, 0*]
244: 0x09D7 [0x01] GOTO 0x09EB
245: 0x09DA [0x45] LOAD_SCHEDULED_TASK: Load scheduler "s010" with entities [EventEntity, EventEntity], work=[891*, 0*]

SUBROUTINE_09EB:
246: 0x09EB [0x29] REQ_SET_WAIT(priority=0x0F, entity_id=Raebrimm (ID: 17789082/0x010F709A), tag_num=0x01)
247: 0x09F2 [0x2B] Raebrimm (ID: 17789082/0x010F709A) [12373*]:
    → "Thank you so much, <Player>!"
248: 0x09F9 [0x23] WAIT_FOR_DIALOG_INTERACTION
249: 0x09FA [0x29] REQ_SET_WAIT(priority=0x0F, entity_id=Raebrimm (ID: 17789082/0x010F709A), tag_num=0x02)
250: 0x0A01 [0x29] REQ_SET_WAIT(priority=0x0F, entity_id=Raebrimm (ID: 17789082/0x010F709A), tag_num=0x03)
251: 0x0A08 [0x2B] Raebrimm (ID: 17789082/0x010F709A) [12374*]:
    → "Naturally, I won't do anything to cause Gumbah and Cornelia any additional worry!"
252: 0x0A0F [0x23] WAIT_FOR_DIALOG_INTERACTION
253: 0x0A10 [0x29] REQ_SET_WAIT(priority=0x0F, entity_id=Raebrimm (ID: 17789082/0x010F709A), tag_num=0x04)
254: 0x0A17 [0x02] IF !(Work_Zone[9] == 5*) GOTO 0x0A31
255: 0x0A1F [0x52] END_LOAD_SCHEDULER: End scheduler "s022" with entities [EventEntity, EventEntity], work=891*
256: 0x0A2E [0x01] GOTO 0x0A5A
257: 0x0A31 [0x02] IF !(Work_Zone[9] == 6*) GOTO 0x0A4B
258: 0x0A39 [0x52] END_LOAD_SCHEDULER: End scheduler "s022" with entities [EventEntity, EventEntity], work=891*
259: 0x0A48 [0x01] GOTO 0x0A5A
260: 0x0A4B [0x52] END_LOAD_SCHEDULER: End scheduler "s010" with entities [EventEntity, EventEntity], work=891*

SUBROUTINE_0A5A:
261: 0x0A5A [0x45] LOAD_SCHEDULED_TASK: Load scheduler "s013" with entities [EventEntity, EventEntity], work=[891*, 0*]
262: 0x0A6B [0x27] REQ_SET(priority=0x0F, entity_id=Raebrimm (ID: 17789082/0x010F709A), tag_num=0x1C)
263: 0x0A72 [0x2B] Raebrimm (ID: 17789082/0x010F709A) [12375*]:
    → "I'll write them a letter, so please go on ahead. You just need to enter the Quicksand Caves via the northwest entrance to the Western Altepa Desert."
264: 0x0A79 [0x1C] WAIT(30* ticks)
265: 0x0A7C [0x4A] LocalPlayer looks at Raebrimm (ID: 17789082/0x010F709A)
266: 0x0A85 [0x6F] WAIT_FRAME_DELAY: Yield until WaitTime reaches zero
267: 0x0A86 [0x76] CHECK_ENTITY_RENDER_FLAGS: Wait until LocalPlayer Render.Flags0 and Render.Flags3 conditions are met
268: 0x0A8B [0x23] WAIT_FOR_DIALOG_INTERACTION
269: 0x0A8C [0x2A] GET_REQ_LEVEL(level=15, entity_id=Raebrimm (ID: 17789082/0x010F709A))
270: 0x0A92 [0x02] IF !(LocalPlayer->Race == 8*) GOTO 0x0D7C
271: 0x0A9A [0x02] IF !(ExtData[1]->WorkLocal[2] == 0*) GOTO 0x0CC7
272: 0x0AA2 [0x1A] CALL_SUBROUTINE(address=0x0064)
273: 0x0AA5 [0x52] END_LOAD_SCHEDULER: End scheduler "s013" with entities [EventEntity, EventEntity], work=891*
274: 0x0AB4 [0x1C] WAIT(1* ticks)
275: 0x0AB7 [0x34] LOAD_UNLOAD_ZONE(zone_id=208*)
276: 0x0ABA [0x77] SET_EVENT_TIME_WEATHER(hour=10*, weather=1*)
277: 0x0ABF [0x1C] WAIT(1* ticks)
278: 0x0AC2 [0x45] LOAD_SCHEDULED_TASK: Load scheduler "s015" with entities [EventEntity, EventEntity], work=[891*, 0*]
279: 0x0AD3 [0x1A] CALL_SUBROUTINE(address=0x0043)
280: 0x0AD6 [0x2B] Raebrimm (ID: 17789082/0x010F709A) [12376*]:
    → "Once you're inside, head to the southeast and you should come across a small room containing the statue..."
281: 0x0ADD [0x23] WAIT_FOR_DIALOG_INTERACTION
282: 0x0ADE [0x2B] Raebrimm (ID: 17789082/0x010F709A) [12377*]:
    → "Although, there is a rather special door along the way, and they say only an adult Galka can open it. I guess it's rather heavy."
283: 0x0AE5 [0x1C] WAIT(90* ticks)
284: 0x0AE8 [0x52] END_LOAD_SCHEDULER: End scheduler "s015" with entities [EventEntity, EventEntity], work=891*
285: 0x0AF7 [0x45] LOAD_SCHEDULED_TASK: Load scheduler "s014" with entities [EventEntity, EventEntity], work=[891*, 0*]
286: 0x0B08 [0x23] WAIT_FOR_DIALOG_INTERACTION
287: 0x0B09 [0x2B] Raebrimm (ID: 17789082/0x010F709A) [12378*]:
    → "So I think it'd be a good idea for you to bring as many of your adventuring pals as possible, <Player>."
288: 0x0B10 [0x23] WAIT_FOR_DIALOG_INTERACTION
289: 0x0B11 [0x1A] CALL_SUBROUTINE(address=0x0064)
290: 0x0B14 [0x52] END_LOAD_SCHEDULER: End scheduler "s014" with entities [EventEntity, EventEntity], work=891*
291: 0x0B23 [0x35] LOAD_ZONE_NO_CLOSE(zone_id=247*)
292: 0x0B26 [0x78] ENABLE_GAME_TIMER_RESET_WEATHER()
293: 0x0B27 [0x1C] WAIT(15* ticks)
294: 0x0B2A [0x22] ENTITY_HIDE_FLAG(enabled=0x00)
295: 0x0B2C [0xBA] SET_ENTITY_POSITION(entity_id=LocalPlayer, pos_x=6.258*, pos_z=78.754*, pos_y=7.999*, direction=298.4°*)
296: 0x0B39 [0xBA] SET_ENTITY_POSITION(entity_id=Raebrimm (ID: 17789082/0x010F709A), pos_x=7.305*, pos_z=82.679*, pos_y=7.999*, direction=255.4°*)
297: 0x0B46 [0x80] LOAD_WAIT(entity=LocalPlayer)
298: 0x0B4B [0x80] LOAD_WAIT(entity=Raebrimm (ID: 17789082/0x010F709A))
299: 0x0B50 [0x80] LOAD_WAIT(entity=Dancing Wolf (ID: 17788989/0x010F703D))
300: 0x0B55 [0x4A] LocalPlayer looks at Raebrimm (ID: 17789082/0x010F709A)
301: 0x0B5E [0x4A] Raebrimm (ID: 17789082/0x010F709A) looks at LocalPlayer
302: 0x0B67 [0x6F] WAIT_FRAME_DELAY: Yield until WaitTime reaches zero
303: 0x0B68 [0x76] CHECK_ENTITY_RENDER_FLAGS: Wait until LocalPlayer Render.Flags0 and Render.Flags3 conditions are met
304: 0x0B6D [0x6F] WAIT_FRAME_DELAY: Yield until WaitTime reaches zero
305: 0x0B6E [0x76] CHECK_ENTITY_RENDER_FLAGS: Wait until Raebrimm (ID: 17789082/0x010F709A) Render.Flags0 and Render.Flags3 conditions are met
306: 0x0B73 [0x7B] Raebrimm (ID: 17789082/0x010F709A) stops talking
307: 0x0B78 [0x29] REQ_SET_WAIT(priority=0x0F, entity_id=Raebrimm (ID: 17789082/0x010F709A), tag_num=0x13)
308: 0x0B7F [0x02] IF !(Work_Zone[9] == 5*) GOTO 0x0B9B
309: 0x0B87 [0x45] LOAD_SCHEDULED_TASK: Load scheduler "s024" with entities [EventEntity, EventEntity], work=[891*, 0*]
310: 0x0B98 [0x01] GOTO 0x0BC8
311: 0x0B9B [0x02] IF !(Work_Zone[9] == 6*) GOTO 0x0BB7
312: 0x0BA3 [0x45] LOAD_SCHEDULED_TASK: Load scheduler "s024" with entities [EventEntity, EventEntity], work=[891*, 0*]
313: 0x0BB4 [0x01] GOTO 0x0BC8
314: 0x0BB7 [0x45] LOAD_SCHEDULED_TASK: Load scheduler "s016" with entities [EventEntity, EventEntity], work=[891*, 0*]

SUBROUTINE_0BC8:
315: 0x0BC8 [0x1A] CALL_SUBROUTINE(address=0x0043)
316: 0x0BCB [0x03] Work_Zone[3] = 2051*
317: 0x0BD0 [0x2B] Raebrimm (ID: 17789082/0x010F709A) [12379*]:
    → "Other than that, I heard there is one other way to open the door. You need something called $6."
318: 0x0BD7 [0x23] WAIT_FOR_DIALOG_INTERACTION
319: 0x0BD8 [0x29] REQ_SET_WAIT(priority=0x0F, entity_id=Raebrimm (ID: 17789082/0x010F709A), tag_num=0x14)
320: 0x0BDF [0x02] IF !(Work_Zone[9] == 5*) GOTO 0x0BF9
321: 0x0BE7 [0x52] END_LOAD_SCHEDULER: End scheduler "s024" with entities [EventEntity, EventEntity], work=891*
322: 0x0BF6 [0x01] GOTO 0x0C22
323: 0x0BF9 [0x02] IF !(Work_Zone[9] == 6*) GOTO 0x0C13
324: 0x0C01 [0x52] END_LOAD_SCHEDULER: End scheduler "s024" with entities [EventEntity, EventEntity], work=891*
325: 0x0C10 [0x01] GOTO 0x0C22
326: 0x0C13 [0x52] END_LOAD_SCHEDULER: End scheduler "s016" with entities [EventEntity, EventEntity], work=891*

SUBROUTINE_0C22:
327: 0x0C22 [0x02] IF !(Work_Zone[9] == 5*) GOTO 0x0C3E
328: 0x0C2A [0x45] LOAD_SCHEDULED_TASK: Load scheduler "s025" with entities [EventEntity, EventEntity], work=[891*, 0*]
329: 0x0C3B [0x01] GOTO 0x0C6B
330: 0x0C3E [0x02] IF !(Work_Zone[9] == 6*) GOTO 0x0C5A
331: 0x0C46 [0x45] LOAD_SCHEDULED_TASK: Load scheduler "s025" with entities [EventEntity, EventEntity], work=[891*, 0*]
332: 0x0C57 [0x01] GOTO 0x0C6B
333: 0x0C5A [0x45] LOAD_SCHEDULED_TASK: Load scheduler "s017" with entities [EventEntity, EventEntity], work=[891*, 0*]

SUBROUTINE_0C6B:
334: 0x0C6B [0x29] REQ_SET_WAIT(priority=0x0F, entity_id=Raebrimm (ID: 17789082/0x010F709A), tag_num=0x15)
335: 0x0C72 [0x2B] Raebrimm (ID: 17789082/0x010F709A) [12380*]:
    → "The one who told me about it said it could be obtained in the Eastern Altepa Desert. Fortunately, I was able to borrow one from him."
336: 0x0C79 [0x23] WAIT_FOR_DIALOG_INTERACTION
337: 0x0C7A [0x29] REQ_SET_WAIT(priority=0x0F, entity_id=Raebrimm (ID: 17789082/0x010F709A), tag_num=0x16)
338: 0x0C81 [0x02] IF !(Work_Zone[9] == 5*) GOTO 0x0C9B
339: 0x0C89 [0x52] END_LOAD_SCHEDULER: End scheduler "s025" with entities [EventEntity, EventEntity], work=891*
340: 0x0C98 [0x01] GOTO 0x0CC4
341: 0x0C9B [0x02] IF !(Work_Zone[9] == 6*) GOTO 0x0CB5
342: 0x0CA3 [0x52] END_LOAD_SCHEDULER: End scheduler "s025" with entities [EventEntity, EventEntity], work=891*
343: 0x0CB2 [0x01] GOTO 0x0CC4
344: 0x0CB5 [0x52] END_LOAD_SCHEDULER: End scheduler "s017" with entities [EventEntity, EventEntity], work=891*

SUBROUTINE_0CC4:
345: 0x0CC4 [0x01] GOTO 0x0D79
346: 0x0CC7 [0x52] END_LOAD_SCHEDULER: End scheduler "s013" with entities [EventEntity, EventEntity], work=891*
347: 0x0CD6 [0x02] IF !(Work_Zone[9] == 5*) GOTO 0x0CF2
348: 0x0CDE [0x45] LOAD_SCHEDULED_TASK: Load scheduler "s024" with entities [EventEntity, EventEntity], work=[891*, 0*]
349: 0x0CEF [0x01] GOTO 0x0D1F
350: 0x0CF2 [0x02] IF !(Work_Zone[9] == 6*) GOTO 0x0D0E
351: 0x0CFA [0x45] LOAD_SCHEDULED_TASK: Load scheduler "s024" with entities [EventEntity, EventEntity], work=[891*, 0*]
352: 0x0D0B [0x01] GOTO 0x0D1F
353: 0x0D0E [0x45] LOAD_SCHEDULED_TASK: Load scheduler "s016" with entities [EventEntity, EventEntity], work=[891*, 0*]

SUBROUTINE_0D1F:
354: 0x0D1F [0x4A] Raebrimm (ID: 17789082/0x010F709A) looks at LocalPlayer
355: 0x0D28 [0x6F] WAIT_FRAME_DELAY: Yield until WaitTime reaches zero
356: 0x0D29 [0x76] CHECK_ENTITY_RENDER_FLAGS: Wait until Raebrimm (ID: 17789082/0x010F709A) Render.Flags0 and Render.Flags3 conditions are met
357: 0x0D2E [0x2B] Raebrimm (ID: 17789082/0x010F709A) [12381*]:
    → "Afterwards, head to the southeast and you should come across a small room containing the statue."
358: 0x0D35 [0x23] WAIT_FOR_DIALOG_INTERACTION
359: 0x0D36 [0x02] IF !(Work_Zone[9] == 5*) GOTO 0x0D50
360: 0x0D3E [0x52] END_LOAD_SCHEDULER: End scheduler "s024" with entities [EventEntity, EventEntity], work=891*
361: 0x0D4D [0x01] GOTO 0x0D79
362: 0x0D50 [0x02] IF !(Work_Zone[9] == 6*) GOTO 0x0D6A
363: 0x0D58 [0x52] END_LOAD_SCHEDULER: End scheduler "s024" with entities [EventEntity, EventEntity], work=891*
364: 0x0D67 [0x01] GOTO 0x0D79
365: 0x0D6A [0x52] END_LOAD_SCHEDULER: End scheduler "s016" with entities [EventEntity, EventEntity], work=891*

SUBROUTINE_0D79:
366: 0x0D79 [0x01] GOTO 0x0E2E
367: 0x0D7C [0x52] END_LOAD_SCHEDULER: End scheduler "s013" with entities [EventEntity, EventEntity], work=891*
368: 0x0D8B [0x02] IF !(Work_Zone[9] == 5*) GOTO 0x0DA7
369: 0x0D93 [0x45] LOAD_SCHEDULED_TASK: Load scheduler "s024" with entities [EventEntity, EventEntity], work=[891*, 0*]
370: 0x0DA4 [0x01] GOTO 0x0DD4
371: 0x0DA7 [0x02] IF !(Work_Zone[9] == 6*) GOTO 0x0DC3
372: 0x0DAF [0x45] LOAD_SCHEDULED_TASK: Load scheduler "s024" with entities [EventEntity, EventEntity], work=[891*, 0*]
373: 0x0DC0 [0x01] GOTO 0x0DD4
374: 0x0DC3 [0x45] LOAD_SCHEDULED_TASK: Load scheduler "s016" with entities [EventEntity, EventEntity], work=[891*, 0*]

SUBROUTINE_0DD4:
375: 0x0DD4 [0x4A] Raebrimm (ID: 17789082/0x010F709A) looks at LocalPlayer
376: 0x0DDD [0x6F] WAIT_FRAME_DELAY: Yield until WaitTime reaches zero
377: 0x0DDE [0x76] CHECK_ENTITY_RENDER_FLAGS: Wait until Raebrimm (ID: 17789082/0x010F709A) Render.Flags0 and Render.Flags3 conditions are met
378: 0x0DE3 [0x2B] Raebrimm (ID: 17789082/0x010F709A) [12381*]:
    → "Afterwards, head to the southeast and you should come across a small room containing the statue."
379: 0x0DEA [0x23] WAIT_FOR_DIALOG_INTERACTION
380: 0x0DEB [0x02] IF !(Work_Zone[9] == 5*) GOTO 0x0E05
381: 0x0DF3 [0x52] END_LOAD_SCHEDULER: End scheduler "s024" with entities [EventEntity, EventEntity], work=891*
382: 0x0E02 [0x01] GOTO 0x0E2E
383: 0x0E05 [0x02] IF !(Work_Zone[9] == 6*) GOTO 0x0E1F
384: 0x0E0D [0x52] END_LOAD_SCHEDULER: End scheduler "s024" with entities [EventEntity, EventEntity], work=891*
385: 0x0E1C [0x01] GOTO 0x0E2E
386: 0x0E1F [0x52] END_LOAD_SCHEDULER: End scheduler "s016" with entities [EventEntity, EventEntity], work=891*

SUBROUTINE_0E2E:
387: 0x0E2E [0x45] LOAD_SCHEDULED_TASK: Load scheduler "s018" with entities [EventEntity, EventEntity], work=[891*, 0*]
388: 0x0E3F [0x29] REQ_SET_WAIT(priority=0x0F, entity_id=Raebrimm (ID: 17789082/0x010F709A), tag_num=0x01)
389: 0x0E46 [0x2B] Raebrimm (ID: 17789082/0x010F709A) [12382*]:
    → "Of course, it is possible that I still won't remember anything even after seeing the statue."
390: 0x0E4D [0x23] WAIT_FOR_DIALOG_INTERACTION
391: 0x0E4E [0x2B] Raebrimm (ID: 17789082/0x010F709A) [12383*]:
    → "But I can't just sit around doing nothing either. That is why I need your help."
392: 0x0E55 [0x23] WAIT_FOR_DIALOG_INTERACTION
393: 0x0E56 [0x29] REQ_SET_WAIT(priority=0x0F, entity_id=Raebrimm (ID: 17789082/0x010F709A), tag_num=0x02)
394: 0x0E5D [0x52] END_LOAD_SCHEDULER: End scheduler "s018" with entities [EventEntity, EventEntity], work=891*
395: 0x0E6C [0x45] LOAD_SCHEDULED_TASK: Load scheduler "s019" with entities [EventEntity, EventEntity], work=[891*, 0*]
396: 0x0E7D [0x29] REQ_SET_WAIT(priority=0x0F, entity_id=Raebrimm (ID: 17789082/0x010F709A), tag_num=0x03)
397: 0x0E84 [0x6E] LocalPlayer uses emote 7*
398: 0x0E8B [0x99] Wait for LocalPlayer animation to complete
399: 0x0E90 [0x1C] WAIT(60* ticks)
400: 0x0E93 [0x29] REQ_SET_WAIT(priority=0x0F, entity_id=Raebrimm (ID: 17789082/0x010F709A), tag_num=0x04)
401: 0x0E9A [0x7B] Raebrimm (ID: 17789082/0x010F709A) stops talking
402: 0x0E9F [0x5D] SET_MUSIC_VOLUME(volume=0*, fade_time=300*)
403: 0x0EA4 [0x27] REQ_SET(priority=0x0F, entity_id=Raebrimm (ID: 17789082/0x010F709A), tag_num=0x1E)
404: 0x0EAB [0x1C] WAIT(30* ticks)
405: 0x0EAE [0x4A] LocalPlayer looks at Raebrimm (ID: 17789082/0x010F709A)
406: 0x0EB7 [0x6F] WAIT_FRAME_DELAY: Yield until WaitTime reaches zero
407: 0x0EB8 [0x76] CHECK_ENTITY_RENDER_FLAGS: Wait until LocalPlayer Render.Flags0 and Render.Flags3 conditions are met
408: 0x0EBD [0x1C] WAIT(30* ticks)
409: 0x0EC0 [0x4A] LocalPlayer looks at Raebrimm (ID: 17789082/0x010F709A)
410: 0x0EC9 [0x1A] CALL_SUBROUTINE(address=0x0064)
411: 0x0ECC [0x2A] GET_REQ_LEVEL(level=15, entity_id=Raebrimm (ID: 17789082/0x010F709A))
412: 0x0ED2 [0x6F] WAIT_FRAME_DELAY: Yield until WaitTime reaches zero
413: 0x0ED3 [0x76] CHECK_ENTITY_RENDER_FLAGS: Wait until LocalPlayer Render.Flags0 and Render.Flags3 conditions are met
414: 0x0ED8 [0x52] END_LOAD_SCHEDULER: End scheduler "s019" with entities [EventEntity, EventEntity], work=891*
415: 0x0EE7 [0x5C] MUSIC_CONTROL: Set Idle (Day) music to song 208*
416: 0x0EEB [0x5C] MUSIC_CONTROL: Set Idle (Night) music to song 208*
417: 0x0EEF [0x9A] WAIT_MUSIC_SERVER()
418: 0x0EF0 [0x5D] SET_MUSIC_VOLUME(volume=127*, fade_time=1*)
419: 0x0EF5 [0x1C] WAIT(15* ticks)
420: 0x0EF8 [0xAB] EventEntity->DespawnValue = 0* // Set despawn value
421: 0x0EFC [0x1C] WAIT(1* ticks)
422: 0x0EFF [0x46] CAMERA_CONTROL: Restore default settings
423: 0x0F01 [0x45] LOAD_SCHEDULED_TASK: Load scheduler "fdi2" with entities [EventEntity, EventEntity], work=[200*, 0*]
424: 0x0F12 [0x21] END_EVENT
425: 0x0F13 [0x00] END_REQSTACK()
```

### Event 182

#### Metadata

| Field        | Value    |
|--------------|----------|
| Entrypoint   | 0x0F14   |
| Data Size    | 76 bytes |
| Instructions | 16       |

```
      00 01 02 03 04 05 06 07  08 09 0A 0B 0C 0D 0E 0F
      -- -- -- -- -- -- -- --  -- -- -- -- -- -- -- --
0F10:             4A 3D 70 0F  01 F0 FF FF 7F 6F 76 3D      J=p......ov=
0F20: 70 0F 01 02 02 10 4C 80  04 5E 0F 02 02 10 4D 80  p.....L..^....M.
0F30: 05 5E 0F 2B 3D 70 0F 01  4E 80 23 6E F0 FF FF 7F  .^.+=p..N.#n....
0F40: 1C 80 99 F0 FF FF 7F 1C  4F 80 6E 3D 70 0F 01 18  ........O.n=p...
0F50: 80 99 3D 70 0F 01 2B 3D  70 0F 01 50 80 23 21 00  ..=p..+=p..P.#!.
```

#### Opcodes

```
  0: 0x0F14 [0x4A] Dancing Wolf (ID: 17788989/0x010F703D) looks at LocalPlayer
  1: 0x0F1D [0x6F] WAIT_FRAME_DELAY: Yield until WaitTime reaches zero
  2: 0x0F1E [0x76] CHECK_ENTITY_RENDER_FLAGS: Wait until Dancing Wolf (ID: 17788989/0x010F703D) Render.Flags0 and Render.Flags3 conditions are met
  3: 0x0F23 [0x02] IF !(Work_Zone[2] < 434*) GOTO 0x0F5E
  4: 0x0F2B [0x02] IF !(Work_Zone[2] > 438*) GOTO 0x0F5E
  5: 0x0F33 [0x2B] Dancing Wolf (ID: 17788989/0x010F703D) [12384*]:
    → "It seems the child known as Raebrimm came here from Bastok. Will you be taking him back home?"
  6: 0x0F3A [0x23] WAIT_FOR_DIALOG_INTERACTION
  7: 0x0F3B [0x6E] LocalPlayer uses emote 6*
  8: 0x0F42 [0x99] Wait for LocalPlayer animation to complete
  9: 0x0F47 [0x1C] WAIT(40* ticks)
 10: 0x0F4A [0x6E] Dancing Wolf (ID: 17788989/0x010F703D) uses emote 21*
 11: 0x0F51 [0x99] Wait for Dancing Wolf (ID: 17788989/0x010F703D) animation to complete
 12: 0x0F56 [0x2B] Dancing Wolf (ID: 17788989/0x010F703D) [12385*]:
    → "Huh!? Are you mad--heading to the Quicksand Caves!? That place is crawling with Antica!"
 13: 0x0F5D [0x23] WAIT_FOR_DIALOG_INTERACTION
 14: 0x0F5E [0x21] END_EVENT
 15: 0x0F5F [0x00] END_REQSTACK()
```

### Event 183

#### Metadata

| Field        | Value    |
|--------------|----------|
| Entrypoint   | 0x0F60   |
| Data Size    | 70 bytes |
| Instructions | 15       |

```
      00 01 02 03 04 05 06 07  08 09 0A 0B 0C 0D 0E 0F
      -- -- -- -- -- -- -- --  -- -- -- -- -- -- -- --
0F60: 4A 30 70 0F 01 F0 FF FF  7F 6F 76 30 70 0F 01 02  J0p......ov0p...
0F70: 02 10 51 80 04 A4 0F 29  0B 30 70 0F 01 11 2B 30  ..Q....).0p...+0
0F80: 70 0F 01 52 80 23 2B 30  70 0F 01 53 80 23 29 0B  p..R.#+0p..S.#).
0F90: 30 70 0F 01 12 29 0B 30  70 0F 01 09 2B 30 70 0F  0p...).0p...+0p.
0FA0: 01 54 80 23 21 00                                 .T.#!.          
```

#### Opcodes

```
  0: 0x0F60 [0x4A] Agado-Pugado (ID: 17788976/0x010F7030) looks at LocalPlayer
  1: 0x0F69 [0x6F] WAIT_FRAME_DELAY: Yield until WaitTime reaches zero
  2: 0x0F6A [0x76] CHECK_ENTITY_RENDER_FLAGS: Wait until Agado-Pugado (ID: 17788976/0x010F7030) Render.Flags0 and Render.Flags3 conditions are met
  3: 0x0F6F [0x02] IF !(Work_Zone[2] < 432*) GOTO 0x0FA4
  4: 0x0F77 [0x29] REQ_SET_WAIT(priority=0x0B, entity_id=Agado-Pugado (ID: 17788976/0x010F7030), tag_num=0x11)
  5: 0x0F7E [0x2B] Agado-Pugado (ID: 17788976/0x010F7030) [12346*]:
    → "What's that? You want to know aboutaru the fugitive from Windurst?"
  6: 0x0F85 [0x23] WAIT_FOR_DIALOG_INTERACTION
  7: 0x0F86 [0x2B] Agado-Pugado (ID: 17788976/0x010F7030) [12347*]:
    → "Yeah, I saw him. He was the suspicious-looking Tarutaru holding the orb, yes? I saw him to the west of here--near the entrance to the Quicksand Caves in the Western Altepa Desert!"
  8: 0x0F8D [0x23] WAIT_FOR_DIALOG_INTERACTION
  9: 0x0F8E [0x29] REQ_SET_WAIT(priority=0x0B, entity_id=Agado-Pugado (ID: 17788976/0x010F7030), tag_num=0x12)
 10: 0x0F95 [0x29] REQ_SET_WAIT(priority=0x0B, entity_id=Agado-Pugado (ID: 17788976/0x010F7030), tag_num=0x09)
 11: 0x0F9C [0x2B] Agado-Pugado (ID: 17788976/0x010F7030) [12348*]:
    → "Although, the Mithra adventurer I was with said she didn't see anyone... What's the meaning of it all?"
 12: 0x0FA3 [0x23] WAIT_FOR_DIALOG_INTERACTION
 13: 0x0FA4 [0x21] END_EVENT
 14: 0x0FA5 [0x00] END_REQSTACK()
```

### Event 184

#### Metadata

| Field        | Value    |
|--------------|----------|
| Entrypoint   | 0x0FA6   |
| Data Size    | 41 bytes |
| Instructions | 10       |

```
      00 01 02 03 04 05 06 07  08 09 0A 0B 0C 0D 0E 0F
      -- -- -- -- -- -- -- --  -- -- -- -- -- -- -- --
0FA0:                   4A 31  70 0F 01 F0 FF FF 7F 6F        J1p......o
0FB0: 76 31 70 0F 01 02 02 10  51 80 04 CD 0F 2B 31 70  v1p.....Q....+1p
0FC0: 0F 01 55 80 23 2B 31 70  0F 01 56 80 23 21 00     ..U.#+1p..V.#!. 
```

#### Opcodes

```
  0: 0x0FA6 [0x4A] Rahi Fohlatti (ID: 17788977/0x010F7031) looks at LocalPlayer
  1: 0x0FAF [0x6F] WAIT_FRAME_DELAY: Yield until WaitTime reaches zero
  2: 0x0FB0 [0x76] CHECK_ENTITY_RENDER_FLAGS: Wait until Rahi Fohlatti (ID: 17788977/0x010F7031) Render.Flags0 and Render.Flags3 conditions are met
  3: 0x0FB5 [0x02] IF !(Work_Zone[2] < 432*) GOTO 0x0FCD
  4: 0x0FBD [0x2B] Rahi Fohlatti (ID: 17788977/0x010F7031) [12349*]:
    → "You want to know about a suspicious-looking Tarutaru carrying an orb? Sorry, I haven't seen anyone rrresembling that description."
  5: 0x0FC4 [0x23] WAIT_FOR_DIALOG_INTERACTION
  6: 0x0FC5 [0x2B] Rahi Fohlatti (ID: 17788977/0x010F7031) [12350*]:
    → "Why would I lie to some rrresearcher about seeing him or not? For all I know, there could be some kind of reward for turning him in."
  7: 0x0FCC [0x23] WAIT_FOR_DIALOG_INTERACTION
  8: 0x0FCD [0x21] END_EVENT
  9: 0x0FCE [0x00] END_REQSTACK()
```

### Event 185

#### Metadata

| Field        | Value      |
|--------------|------------|
| Entrypoint   | 0x0FCF     |
| Data Size    | 5400 bytes |
| Instructions | 717        |

```
      00 01 02 03 04 05 06 07  08 09 0A 0B 0C 0D 0E 0F
      -- -- -- -- -- -- -- --  -- -- -- -- -- -- -- --
0FC0:                                               42                 B
0FD0: 5D 01 80 1F 80 1A 64 00  46 01 38 08 80 2F 00 9A  ].....d.F.8../..
0FE0: 70 0F 01 2F 00 9B 70 0F  01 2F 00 3E 70 0F 01 4E  p../..p../.>p..N
0FF0: 00 3D 70 0F 01 4E 00 9A  70 0F 01 4E 00 9B 70 0F  .=p..N..p..N..p.
1000: 01 4E 00 3E 70 0F 01 92  01 3D 70 0F 01 92 01 9A  .N.>p....=p.....
1010: 70 0F 01 92 01 9B 70 0F  01 92 01 3E 70 0F 01 94  p.....p....>p...
1020: 01 3D 70 0F 01 94 01 F0  FF FF 7F 94 01 9B 70 0F  .=p...........p.
1030: 01 94 01 3E 70 0F 01 BA  3D 70 0F 01 10 80 11 80  ...>p...=p......
1040: 12 80 13 80 BA F0 FF FF  7F 09 80 0A 80 0B 80 0C  ................
1050: 80 BA 9A 70 0F 01 57 80  58 80 59 80 5A 80 BA 9B  ...p..W.X.Y.Z...
1060: 70 0F 01 5B 80 5C 80 5D  80 5E 80 BA 3E 70 0F 01  p..[.\.].^..>p..
1070: 5F 80 60 80 61 80 62 80  4A F0 FF FF 7F 3D 70 0F  _.`.a.b.J....=p.
1080: 01 4A 3D 70 0F 01 F0 FF  FF 7F 6F 76 F0 FF FF 7F  .J=p......ov....
1090: 6F 76 3D 70 0F 01 80 3D  70 0F 01 80 F0 FF FF 7F  ov=p...=p.......
10A0: 80 9A 70 0F 01 80 9B 70  0F 01 80 3E 70 0F 01 6C  ..p....p...>p..l
10B0: 9A 70 0F 01 01 80 03 80  6C 9B 70 0F 01 01 80 03  .p......l.p.....
10C0: 80 6C 3E 70 0F 01 01 80  03 80 1C 03 80 29 0F F0  .l>p.........)..
10D0: FF FF 7F 15 5C 00 24 80  5C 01 24 80 9A 5D 25 80  ....\.$.\.$..]%.
10E0: 03 80 45 14 80 F8 FF FF  7F F8 FF FF 7F 73 30 30  ..E..........s00
10F0: 30 01 80 1A 43 00 29 0F  3D 70 0F 01 08 2B 3D 70  0...C.).=p...+=p
1100: 0F 01 63 80 23 2B 3D 70  0F 01 64 80 23 29 0F 3D  ..c.#+=p..d.#).=
1110: 70 0F 01 09 52 14 80 F8  FF FF 7F F8 FF FF 7F 73  p...R..........s
1120: 30 30 30 02 09 10 1B 80  00 3F 11 45 14 80 F8 FF  000......?.E....
1130: FF 7F F8 FF FF 7F 73 30  32 30 01 80 01 6C 11 02  ......s020...l..
1140: 09 10 1C 80 00 5B 11 45  14 80 F8 FF FF 7F F8 FF  .....[.E........
1150: FF 7F 73 30 32 30 01 80  01 6C 11 45 14 80 F8 FF  ..s020...l.E....
1160: FF 7F F8 FF FF 7F 73 30  30 32 01 80 6E 3D 70 0F  ......s002..n=p.
1170: 01 1C 80 99 3D 70 0F 01  2B 3D 70 0F 01 65 80 23  ....=p..+=p..e.#
1180: 2B 3D 70 0F 01 66 80 23  02 09 10 1B 80 00 A2 11  +=p..f.#........
1190: 52 14 80 F8 FF FF 7F F8  FF FF 7F 73 30 32 30 01  R..........s020.
11A0: CB 11 02 09 10 1C 80 00  BC 11 52 14 80 F8 FF FF  ..........R.....
11B0: 7F F8 FF FF 7F 73 30 32  30 01 CB 11 52 14 80 F8  .....s020...R...
11C0: FF FF 7F F8 FF FF 7F 73  30 30 32 45 14 80 F8 FF  .......s002E....
11D0: FF 7F F8 FF FF 7F 73 30  30 31 01 80 7B 3D 70 0F  ......s001..{=p.
11E0: 01 2B 3D 70 0F 01 67 80  6E 3D 70 0F 01 18 80 99  .+=p..g.n=p.....
11F0: 3D 70 0F 01 1C 19 80 6C  9A 70 0F 01 20 80 03 80  =p.....l.p.. ...
1200: 1C 03 80 23 27 0F 9A 70  0F 01 20 2B 9A 70 0F 01  ...#'..p.. +.p..
1210: 68 80 23 52 14 80 F8 FF  FF 7F F8 FF FF 7F 73 30  h.#R..........s0
1220: 30 31 45 14 80 F8 FF FF  7F F8 FF FF 7F 73 30 32  01E..........s02
1230: 37 01 80 79 00 3D 70 0F  01 9A 70 0F 01 4A F0 FF  7..y.=p...p..J..
1240: FF 7F 9A 70 0F 01 6F 76  F0 FF FF 7F 1C 06 80 1C  ...p..ov........
1250: 06 80 52 14 80 F8 FF FF  7F F8 FF FF 7F 73 30 32  ..R..........s02
1260: 37 45 14 80 F8 FF FF 7F  F8 FF FF 7F 73 30 32 38  7E..........s028
1270: 01 80 2A 0F 9A 70 0F 01  29 0F 9A 70 0F 01 01 2B  ..*..p..)..p...+
1280: 9A 70 0F 01 69 80 23 BA  3D 70 0F 01 6A 80 6B 80  .p..i.#.=p..j.k.
1290: 6C 80 6D 80 7B 3D 70 0F  01 29 0F 3D 70 0F 01 0C  l.m.{=p..).=p...
12A0: 2B 9A 70 0F 01 6E 80 23  29 0F 9A 70 0F 01 02 29  +.p..n.#)..p...)
12B0: 0F 3D 70 0F 01 0D 52 14  80 F8 FF FF 7F F8 FF FF  .=p...R.........
12C0: 7F 73 30 32 38 45 14 80  F8 FF FF 7F F8 FF FF 7F  .s028E..........
12D0: 73 30 32 39 01 80 29 0F  9A 70 0F 01 03 29 0F 9A  s029..)..p...)..
12E0: 70 0F 01 04 29 0F 9A 70  0F 01 13 2B 9A 70 0F 01  p...)..p...+.p..
12F0: 6F 80 23 29 0F 9A 70 0F  01 14 1C 15 80 52 14 80  o.#)..p......R..
1300: F8 FF FF 7F F8 FF FF 7F  73 30 32 39 02 09 10 1B  ........s029....
1310: 80 00 28 13 45 14 80 F8  FF FF 7F F8 FF FF 7F 73  ..(.E..........s
1320: 30 35 36 01 80 01 55 13  02 09 10 1C 80 00 44 13  056...U.......D.
1330: 45 14 80 F8 FF FF 7F F8  FF FF 7F 73 30 35 36 01  E..........s056.
1340: 80 01 55 13 45 14 80 F8  FF FF 7F F8 FF FF 7F 73  ..U.E..........s
1350: 30 33 30 01 80 29 0F 9A  70 0F 01 15 1C 06 80 79  030..)..p......y
1360: 00 9A 70 0F 01 F0 FF FF  7F 2B 9A 70 0F 01 70 80  ..p......+.p..p.
1370: 23 29 0F 9A 70 0F 01 16  29 0F 9A 70 0F 01 05 2B  #)..p...)..p...+
1380: 9A 70 0F 01 71 80 23 29  0F 9A 70 0F 01 06 29 0F  .p..q.#)..p...).
1390: 9A 70 0F 01 07 6E F0 FF  FF 7F 28 80 99 F0 FF FF  .p...n....(.....
13A0: 7F 1C 15 80 29 0F 9A 70  0F 01 08 02 09 10 1B 80  ....)..p........
13B0: 00 C5 13 52 14 80 F8 FF  FF 7F F8 FF FF 7F 73 30  ...R..........s0
13C0: 35 36 01 EE 13 02 09 10  1C 80 00 DF 13 52 14 80  56...........R..
13D0: F8 FF FF 7F F8 FF FF 7F  73 30 35 36 01 EE 13 52  ........s056...R
13E0: 14 80 F8 FF FF 7F F8 FF  FF 7F 73 30 33 30 45 14  ..........s030E.
13F0: 80 F8 FF FF 7F F8 FF FF  7F 73 30 33 31 01 80 29  .........s031..)
1400: 0F 9A 70 0F 01 05 2B 9A  70 0F 01 72 80 23 29 0F  ..p...+.p..r.#).
1410: 9A 70 0F 01 06 29 0F 9A  70 0F 01 07 1A 64 00 5D  .p...)..p....d.]
1420: 01 80 03 80 52 14 80 F8  FF FF 7F F8 FF FF 7F 73  ....R..........s
1430: 30 33 31 1C 19 80 2B 9A  70 0F 01 73 80 23 29 0F  031...+.p..s.#).
1440: 9A 70 0F 01 08 7B 9A 70  0F 01 29 0F 9A 70 0F 01  .p...{.p..)..p..
1450: 13 29 0F 9A 70 0F 01 14  45 14 80 F8 FF FF 7F F8  .)..p...E.......
1460: FF FF 7F 73 30 33 33 01  80 1A 43 00 5D 25 80 74  ...s033...C.]%.t
1470: 80 2B 9A 70 0F 01 75 80  23 2B 9A 70 0F 01 76 80  .+.p..u.#+.p..v.
1480: 23 52 14 80 F8 FF FF 7F  F8 FF FF 7F 73 30 33 33  #R..........s033
1490: 45 14 80 F8 FF FF 7F F8  FF FF 7F 73 30 33 32 01  E..........s032.
14A0: 80 29 0F 9A 70 0F 01 15  2B 9A 70 0F 01 77 80 23  .)..p...+.p..w.#
14B0: 29 0F 9A 70 0F 01 16 52  14 80 F8 FF FF 7F F8 FF  )..p...R........
14C0: FF 7F 73 30 33 32 02 09  10 1B 80 00 E2 14 45 14  ..s032........E.
14D0: 80 F8 FF FF 7F F8 FF FF  7F 73 30 35 37 01 80 01  .........s057...
14E0: 0F 15 02 09 10 1C 80 00  FE 14 45 14 80 F8 FF FF  ..........E.....
14F0: 7F F8 FF FF 7F 73 30 35  37 01 80 01 0F 15 45 14  .....s057.....E.
1500: 80 F8 FF FF 7F F8 FF FF  7F 73 30 33 35 01 80 27  .........s035..'
1510: 0F 9A 70 0F 01 21 2B 9A  70 0F 01 78 80 23 2B 9A  ..p..!+.p..x.#+.
1520: 70 0F 01 79 80 23 2A 0F  9A 70 0F 01 29 0F F0 FF  p..y.#*..p..)...
1530: FF 7F 29 5D 01 80 1F 80  02 09 10 1B 80 00 52 15  ..)]..........R.
1540: 55 14 80 F8 FF FF 7F F8  FF FF 7F 73 30 35 37 01  U..........s057.
1550: 7B 15 02 09 10 1C 80 00  6C 15 55 14 80 F8 FF FF  {.......l.U.....
1560: 7F F8 FF FF 7F 73 30 35  37 01 7B 15 55 14 80 F8  .....s057.{.U...
1570: FF FF 7F F8 FF FF 7F 73  30 33 35 02 09 10 1B 80  .......s035.....
1580: 00 97 15 45 14 80 F8 FF  FF 7F F8 FF FF 7F 73 30  ...E..........s0
1590: 35 38 01 80 01 C4 15 02  09 10 1C 80 00 B3 15 45  58.............E
15A0: 14 80 F8 FF FF 7F F8 FF  FF 7F 73 30 35 38 01 80  ..........s058..
15B0: 01 C4 15 45 14 80 F8 FF  FF 7F F8 FF FF 7F 73 30  ...E..........s0
15C0: 34 37 01 80 45 14 80 F8  FF FF 7F F8 FF FF 7F 38  47..E..........8
15D0: 30 39 33 01 80 1C 06 80  02 09 10 1B 80 00 F2 15  093.............
15E0: 55 14 80 F8 FF FF 7F F8  FF FF 7F 73 30 35 38 01  U..........s058.
15F0: 1B 16 02 09 10 1C 80 00  0C 16 55 14 80 F8 FF FF  ..........U.....
1600: 7F F8 FF FF 7F 73 30 35  38 01 1B 16 55 14 80 F8  .....s058...U...
1610: FF FF 7F F8 FF FF 7F 73  30 34 37 45 14 80 F8 FF  .......s047E....
1620: FF 7F F8 FF FF 7F 73 30  33 34 01 80 6C 3E 70 0F  ......s034..l>p.
1630: 01 20 80 03 80 6C 9B 70  0F 01 20 80 03 80 6C 9A  . ...l.p.. ...l.
1640: 70 0F 01 01 80 03 80 1C  7A 80 4B F0 FF FF 7F 7B  p.......z.K....{
1650: 80 6F 76 F0 FF FF 7F 1C  7A 80 4B F0 FF FF 7F 7C  .ov.....z.K....|
1660: 80 6F 76 F0 FF FF 7F 1C  7A 80 27 0F 3E 70 0F 01  .ov.....z.'.>p..
1670: 2F 27 0F 9B 70 0F 01 1F  79 00 9B 70 0F 01 F0 FF  /'..p...y..p....
1680: FF 7F 03 08 10 8B 7F 2B  3E 70 0F 01 7D 80 23 4A  .......+>p..}.#J
1690: F0 FF FF 7F 3E 70 0F 01  6F 76 F0 FF FF 7F 52 14  ....>p..ov....R.
16A0: 80 F8 FF FF 7F F8 FF FF  7F 73 30 33 34 45 14 80  .........s034E..
16B0: F8 FF FF 7F F8 FF FF 7F  73 30 33 36 01 80 1C 19  ........s036....
16C0: 80 52 14 80 F8 FF FF 7F  F8 FF FF 7F 73 30 33 36  .R..........s036
16D0: 45 14 80 F8 FF FF 7F F8  FF FF 7F 73 30 34 32 01  E..........s042.
16E0: 80 2A 0F 3E 70 0F 01 4A  3E 70 0F 01 F0 FF FF 7F  .*.>p..J>p......
16F0: 6F 76 3E 70 0F 01 2B 3E  70 0F 01 7E 80 23 52 14  ov>p..+>p..~.#R.
1700: 80 F8 FF FF 7F F8 FF FF  7F 73 30 34 32 02 09 10  .........s042...
1710: 1B 80 00 29 17 45 14 80  F8 FF FF 7F F8 FF FF 7F  ...).E..........
1720: 73 30 35 39 01 80 01 56  17 02 09 10 1C 80 00 45  s059...V.......E
1730: 17 45 14 80 F8 FF FF 7F  F8 FF FF 7F 73 30 35 39  .E..........s059
1740: 01 80 01 56 17 45 14 80  F8 FF FF 7F F8 FF FF 7F  ...V.E..........
1750: 73 30 33 37 01 80 79 00  F0 FF FF 7F 9B 70 0F 01  s037..y......p..
1760: 2B 9B 70 0F 01 7F 80 23  2A 0F 9B 70 0F 01 1C 05  +.p....#*..p....
1770: 80 02 09 10 1B 80 00 8B  17 52 14 80 F8 FF FF 7F  .........R......
1780: F8 FF FF 7F 73 30 35 39  01 B4 17 02 09 10 1C 80  ....s059........
1790: 00 A5 17 52 14 80 F8 FF  FF 7F F8 FF FF 7F 73 30  ...R..........s0
17A0: 35 39 01 B4 17 52 14 80  F8 FF FF 7F F8 FF FF 7F  59...R..........
17B0: 73 30 33 37 02 09 10 1B  80 00 D0 17 45 14 80 F8  s037........E...
17C0: FF FF 7F F8 FF FF 7F 73  30 36 30 01 80 01 FD 17  .......s060.....
17D0: 02 09 10 1C 80 00 EC 17  45 14 80 F8 FF FF 7F F8  ........E.......
17E0: FF FF 7F 73 30 36 30 01  80 01 FD 17 45 14 80 F8  ...s060.....E...
17F0: FF FF 7F F8 FF FF 7F 73  30 33 38 01 80 4A 3E 70  .......s038..J>p
1800: 0F 01 F0 FF FF 7F 29 0F  9B 70 0F 01 0D 2B 9B 70  ......)..p...+.p
1810: 0F 01 80 80 23 29 0F 9B  70 0F 01 0E 6F 76 3E 70  ....#)..p...ov>p
1820: 0F 01 02 09 10 1B 80 00  3C 18 52 14 80 F8 FF FF  ........<.R.....
1830: 7F F8 FF FF 7F 73 30 36  30 01 65 18 02 09 10 1C  .....s060.e.....
1840: 80 00 56 18 52 14 80 F8  FF FF 7F F8 FF FF 7F 73  ..V.R..........s
1850: 30 36 30 01 65 18 52 14  80 F8 FF FF 7F F8 FF FF  060.e.R.........
1860: 7F 73 30 33 38 45 14 80  F8 FF FF 7F F8 FF FF 7F  .s038E..........
1870: 73 30 33 39 01 80 4A F0  FF FF 7F 3E 70 0F 01 29  s039..J....>p..)
1880: 0F 3E 70 0F 01 0C 2B 3E  70 0F 01 81 80 23 29 0F  .>p...+>p....#).
1890: 3E 70 0F 01 0D 29 0F 3E  70 0F 01 0E 2B 3E 70 0F  >p...).>p...+>p.
18A0: 01 82 80 23 29 0F 3E 70  0F 01 0F 6F 76 F0 FF FF  ...#).>p...ov...
18B0: 7F 52 14 80 F8 FF FF 7F  F8 FF FF 7F 73 30 33 39  .R..........s039
18C0: 45 14 80 F8 FF FF 7F F8  FF FF 7F 73 30 34 30 01  E..........s040.
18D0: 80 29 0F F0 FF FF 7F 18  1C 15 80 1A 64 00 29 0F  .)..........d.).
18E0: F0 FF FF 7F 19 1C 15 80  52 14 80 F8 FF FF 7F F8  ........R.......
18F0: FF FF 7F 73 30 34 30 4A  9B 70 0F 01 F0 FF FF 7F  ...s040J.p......
1900: 6F 76 9B 70 0F 01 5C 00  83 80 5C 01 83 80 9A 5D  ov.p..\...\....]
1910: 25 80 03 80 7B 9B 70 0F  01 29 0F 9B 70 0F 01 05  %...{.p..)..p...
1920: 29 0F 9B 70 0F 01 06 29  0F 3E 70 0F 01 1E 02 09  )..p...).>p.....
1930: 10 3B 80 00 4A 19 45 14  80 F8 FF FF 7F F8 FF FF  .;..J.E.........
1940: 7F 73 30 34 31 01 80 01  5B 19 45 14 80 F8 FF FF  .s041...[.E.....
1950: 7F F8 FF FF 7F 73 30 36  31 01 80 1A 43 00 2B 3E  .....s061...C.+>
1960: 70 0F 01 84 80 23 29 0F  3E 70 0F 01 1F 02 09 10  p....#).>p......
1970: 3B 80 00 87 19 52 14 80  F8 FF FF 7F F8 FF FF 7F  ;....R..........
1980: 73 30 34 31 01 96 19 52  14 80 F8 FF FF 7F F8 FF  s041...R........
1990: FF 7F 73 30 36 31 02 09  10 1B 80 00 B2 19 45 14  ..s061........E.
19A0: 80 F8 FF FF 7F F8 FF FF  7F 73 30 36 32 01 80 01  .........s062...
19B0: DF 19 02 09 10 1C 80 00  CE 19 45 14 80 F8 FF FF  ..........E.....
19C0: 7F F8 FF FF 7F 73 30 36  32 01 80 01 DF 19 45 14  .....s062.....E.
19D0: 80 F8 FF FF 7F F8 FF FF  7F 73 30 34 33 01 80 29  .........s043..)
19E0: 0F 3E 70 0F 01 20 2B 3E  70 0F 01 85 80 23 29 0F  .>p.. +>p....#).
19F0: 3E 70 0F 01 21 79 00 F0  FF FF 7F 9B 70 0F 01 29  >p..!y......p..)
1A00: 0F 9B 70 0F 01 07 2B 9B  70 0F 01 86 80 23 29 0F  ..p...+.p....#).
1A10: 9B 70 0F 01 08 02 09 10  1B 80 00 2F 1A 52 14 80  .p........./.R..
1A20: F8 FF FF 7F F8 FF FF 7F  73 30 36 32 01 58 1A 02  ........s062.X..
1A30: 09 10 1C 80 00 49 1A 52  14 80 F8 FF FF 7F F8 FF  .....I.R........
1A40: FF 7F 73 30 36 32 01 58  1A 52 14 80 F8 FF FF 7F  ..s062.X.R......
1A50: F8 FF FF 7F 73 30 34 33  45 14 80 F8 FF FF 7F F8  ....s043E.......
1A60: FF FF 7F 73 30 34 34 01  80 29 0F 9B 70 0F 01 0D  ...s044..)..p...
1A70: 2B 9B 70 0F 01 87 80 23  29 0F 9B 70 0F 01 0E 4A  +.p....#)..p...J
1A80: 3E 70 0F 01 9B 70 0F 01  29 0F 9B 70 0F 01 01 2B  >p...p..)..p...+
1A90: 9B 70 0F 01 88 80 23 6F  76 3E 70 0F 01 52 14 80  .p....#ov>p..R..
1AA0: F8 FF FF 7F F8 FF FF 7F  73 30 34 34 45 14 80 F8  ........s044E...
1AB0: FF FF 7F F8 FF FF 7F 73  30 34 35 01 80 29 0F 9B  .......s045..)..
1AC0: 70 0F 01 0B 2B 9B 70 0F  01 89 80 23 2B 9B 70 0F  p...+.p....#+.p.
1AD0: 01 8A 80 23 52 14 80 F8  FF FF 7F F8 FF FF 7F 73  ...#R..........s
1AE0: 30 34 35 45 14 80 F8 FF  FF 7F F8 FF FF 7F 73 30  045E..........s0
1AF0: 34 36 01 80 79 00 F0 FF  FF 7F 3E 70 0F 01 29 0F  46..y.....>p..).
1B00: 3E 70 0F 01 1A 2B 3E 70  0F 01 8B 80 29 0F 9B 70  >p...+>p....)..p
1B10: 0F 01 0C 4A 9B 70 0F 01  3E 70 0F 01 6F 76 9B 70  ...J.p..>p..ov.p
1B20: 0F 01 23 29 0F 3E 70 0F  01 1B 52 14 80 F8 FF FF  ..#).>p...R.....
1B30: 7F F8 FF FF 7F 73 30 34  36 45 14 80 F8 FF FF 7F  .....s046E......
1B40: F8 FF FF 7F 73 30 34 38  01 80 29 0F 3E 70 0F 01  ....s048..).>p..
1B50: 1C 79 00 3D 70 0F 01 3E  70 0F 01 79 00 F0 FF FF  .y.=p..>p..y....
1B60: 7F 9B 70 0F 01 7B 9B 70  0F 01 29 0F 9B 70 0F 01  ..p..{.p..)..p..
1B70: 0D 2B 9B 70 0F 01 8C 80  23 29 0F 9B 70 0F 01 0E  .+.p....#)..p...
1B80: 29 0F 3E 70 0F 01 1D 2B  9B 70 0F 01 8D 80 23 52  ).>p...+.p....#R
1B90: 14 80 F8 FF FF 7F F8 FF  FF 7F 73 30 34 38 45 14  ..........s048E.
1BA0: 80 F8 FF FF 7F F8 FF FF  7F 73 30 34 39 01 80 79  .........s049..y
1BB0: 00 F0 FF FF 7F 3E 70 0F  01 79 00 9B 70 0F 01 3E  .....>p..y..p..>
1BC0: 70 0F 01 29 0F 3E 70 0F  01 0C 2B 3E 70 0F 01 8E  p..).>p...+>p...
1BD0: 80 1C 15 80 79 00 9B 70  0F 01 3D 70 0F 01 79 00  ....y..p..=p..y.
1BE0: F0 FF FF 7F 3D 70 0F 01  79 00 3D 70 0F 01 9B 70  ....=p..y.=p...p
1BF0: 0F 01 23 29 0F 3E 70 0F  01 0D 52 14 80 F8 FF FF  ..#).>p...R.....
1C00: 7F F8 FF FF 7F 73 30 34  39 02 09 10 1B 80 00 25  .....s049......%
1C10: 1C 45 14 80 F8 FF FF 7F  F8 FF FF 7F 73 30 36 33  .E..........s063
1C20: 01 80 01 52 1C 02 09 10  1C 80 00 41 1C 45 14 80  ...R.......A.E..
1C30: F8 FF FF 7F F8 FF FF 7F  73 30 36 33 01 80 01 52  ........s063...R
1C40: 1C 45 14 80 F8 FF FF 7F  F8 FF FF 7F 73 30 35 30  .E..........s050
1C50: 01 80 79 00 9B 70 0F 01  F0 FF FF 7F 29 0F 3E 70  ..y..p......).>p
1C60: 0F 01 0E 2B 9B 70 0F 01  8F 80 1C 90 80 79 00 F0  ...+.p.......y..
1C70: FF FF 7F 9B 70 0F 01 1C  90 80 4A 3E 70 0F 01 F0  ....p.....J>p...
1C80: FF FF 7F 6F 76 3E 70 0F  01 23 29 0F 3E 70 0F 01  ...ov>p..#).>p..
1C90: 0F 4A 9B 70 0F 01 F0 FF  FF 7F 6F 76 9B 70 0F 01  .J.p......ov.p..
1CA0: 29 0F 9B 70 0F 01 01 2B  9B 70 0F 01 91 80 1C 90  )..p...+.p......
1CB0: 80 79 00 F0 FF FF 7F 9B  70 0F 01 23 29 0F 9B 70  .y......p..#)..p
1CC0: 0F 01 02 03 00 10 03 80  02 00 10 01 80 01 00 1F  ................
1CD0: 24 92 80 01 80 01 80 25  02 00 10 01 80 00 09 1E  $......%........
1CE0: 6E F0 FF FF 7F 28 80 99  F0 FF FF 7F 1C 15 80 02  n....(..........
1CF0: 09 10 1B 80 00 09 1D 52  14 80 F8 FF FF 7F F8 FF  .......R........
1D00: FF 7F 73 30 36 33 01 32  1D 02 09 10 1C 80 00 23  ..s063.2.......#
1D10: 1D 52 14 80 F8 FF FF 7F  F8 FF FF 7F 73 30 36 33  .R..........s063
1D20: 01 32 1D 52 14 80 F8 FF  FF 7F F8 FF FF 7F 73 30  .2.R..........s0
1D30: 35 30 02 09 10 1B 80 00  4E 1D 45 14 80 F8 FF FF  50......N.E.....
1D40: 7F F8 FF FF 7F 73 30 36  30 01 80 01 7B 1D 02 09  .....s060...{...
1D50: 10 1C 80 00 6A 1D 45 14  80 F8 FF FF 7F F8 FF FF  ....j.E.........
1D60: 7F 73 30 36 30 01 80 01  7B 1D 45 14 80 F8 FF FF  .s060...{.E.....
1D70: 7F F8 FF FF 7F 73 30 33  38 01 80 29 0F 9B 70 0F  .....s038..)..p.
1D80: 01 01 2B 9B 70 0F 01 93  80 1C 90 80 4A F0 FF FF  ..+.p.......J...
1D90: 7F 9B 70 0F 01 6F 76 F0  FF FF 7F 23 29 0F 9B 70  ..p..ov....#)..p
1DA0: 0F 01 02 79 00 F0 FF FF  7F 3E 70 0F 01 29 0F 3E  ...y.....>p..).>
1DB0: 70 0F 01 10 2B 3E 70 0F  01 94 80 23 29 0F 3E 70  p...+>p....#).>p
1DC0: 0F 01 11 02 09 10 1B 80  00 DD 1D 52 14 80 F8 FF  ...........R....
1DD0: FF 7F F8 FF FF 7F 73 30  36 30 01 06 1E 02 09 10  ......s060......
1DE0: 1C 80 00 F7 1D 52 14 80  F8 FF FF 7F F8 FF FF 7F  .....R..........
1DF0: 73 30 36 30 01 06 1E 52  14 80 F8 FF FF 7F F8 FF  s060...R........
1E00: FF 7F 73 30 33 38 01 FD  1E 02 00 10 03 80 00 FD  ..s038..........
1E10: 1E 6E F0 FF FF 7F 1C 80  99 F0 FF FF 7F 1C 06 80  .n..............
1E20: 6E 9B 70 0F 01 18 80 99  9B 70 0F 01 1C 06 80 02  n.p......p......
1E30: 09 10 1B 80 00 49 1E 52  14 80 F8 FF FF 7F F8 FF  .....I.R........
1E40: FF 7F 73 30 36 33 01 72  1E 02 09 10 1C 80 00 63  ..s063.r.......c
1E50: 1E 52 14 80 F8 FF FF 7F  F8 FF FF 7F 73 30 36 33  .R..........s063
1E60: 01 72 1E 52 14 80 F8 FF  FF 7F F8 FF FF 7F 73 30  .r.R..........s0
1E70: 35 30 45 14 80 F8 FF FF  7F F8 FF FF 7F 73 30 33  50E..........s03
1E80: 39 01 80 29 0F 3E 70 0F  01 16 2B 3E 70 0F 01 95  9..).>p...+>p...
1E90: 80 23 29 0F 3E 70 0F 01  17 6B 69 64 6C 30 3E 70  .#).>p...kidl0>p
1EA0: 0F 01 52 14 80 F8 FF FF  7F F8 FF FF 7F 73 30 33  ..R..........s03
1EB0: 39 02 09 10 1B 80 00 CD  1E 45 14 80 F8 FF FF 7F  9........E......
1EC0: F8 FF FF 7F 73 30 36 33  01 80 01 FA 1E 02 09 10  ....s063........
1ED0: 1C 80 00 E9 1E 45 14 80  F8 FF FF 7F F8 FF FF 7F  .....E..........
1EE0: 73 30 36 33 01 80 01 FA  1E 45 14 80 F8 FF FF 7F  s063.....E......
1EF0: F8 FF FF 7F 73 30 35 30  01 80 01 FD 1E 01 C8 1C  ....s050........
1F00: 1A 64 00 1C 03 80 34 96  80 77 97 80 03 80 1C 03  .d....4..w......
1F10: 80 45 14 80 F8 FF FF 7F  F8 FF FF 7F 73 30 35 32  .E..........s052
1F20: 01 80 1A 43 00 2B 9B 70  0F 01 98 80 23 2B 9B 70  ...C.+.p....#+.p
1F30: 0F 01 99 80 23 52 14 80  F8 FF FF 7F F8 FF FF 7F  ....#R..........
1F40: 73 30 35 32 45 14 80 F8  FF FF 7F F8 FF FF 7F 73  s052E..........s
1F50: 30 35 33 01 80 2B 3E 70  0F 01 9A 80 23 2B 3E 70  053..+>p....#+>p
1F60: 0F 01 9B 80 23 1A 64 00  52 14 80 F8 FF FF 7F F8  ....#.d.R.......
1F70: FF FF 7F 73 30 35 33 35  41 80 78 1C 42 80 22 00  ...s0535A.x.B.".
1F80: BA 9B 70 0F 01 9C 80 9D  80 0B 80 9E 80 BA 3E 70  ..p...........>p
1F90: 0F 01 9F 80 A0 80 0B 80  5E 80 BA F0 FF FF 7F A1  ........^.......
1FA0: 80 A2 80 0B 80 9E 80 4E  00 3D 70 0F 01 4E 00 9A  .......N.=p..N..
1FB0: 70 0F 01 4E 00 9B 70 0F  01 4E 00 3E 70 0F 01 4E  p..N..p..N.>p..N
1FC0: 00 F0 FF FF 7F 4A F0 FF  FF 7F 3E 70 0F 01 4A 9B  .....J....>p..J.
1FD0: 70 0F 01 F0 FF FF 7F 4A  3E 70 0F 01 F0 FF FF 7F  p......J>p......
1FE0: 6F 76 F0 FF FF 7F 6F 76  9B 70 0F 01 6F 76 3E 70  ov....ov.p..ov>p
1FF0: 0F 01 80 3D 70 0F 01 80  F0 FF FF 7F 80 9A 70 0F  ...=p.........p.
2000: 01 80 9B 70 0F 01 80 3E  70 0F 01 79 00 F0 FF FF  ...p...>p..y....
2010: 7F 9B 70 0F 01 7B 9B 70  0F 01 29 0F 9B 70 0F 01  ..p..{.p..)..p..
2020: 05 29 0F 9B 70 0F 01 06  45 14 80 F8 FF FF 7F F8  .)..p...E.......
2030: FF FF 7F 73 30 35 31 01  80 1A 43 00 2B 9B 70 0F  ...s051...C.+.p.
2040: 01 A3 80 23 52 14 80 F8  FF FF 7F F8 FF FF 7F 73  ...#R..........s
2050: 30 35 31 02 09 10 1B 80  00 6F 20 45 14 80 F8 FF  051......o E....
2060: FF 7F F8 FF FF 7F 73 30  36 33 01 80 01 9C 20 02  ......s063.... .
2070: 09 10 1C 80 00 8B 20 45  14 80 F8 FF FF 7F F8 FF  ...... E........
2080: FF 7F 73 30 36 33 01 80  01 9C 20 45 14 80 F8 FF  ..s063.... E....
2090: FF 7F F8 FF FF 7F 73 30  35 30 01 80 29 0F 9B 70  ......s050..)..p
20A0: 0F 01 07 29 0F 3E 70 0F  01 1E 2B 3E 70 0F 01 A4  ...).>p...+>p...
20B0: 80 1C 90 80 79 00 F0 FF  FF 7F 3E 70 0F 01 23 29  ....y.....>p..#)
20C0: 0F 3E 70 0F 01 1F 29 0F  3E 70 0F 01 20 29 0F 9B  .>p...).>p.. )..
20D0: 70 0F 01 08 02 09 10 1B  80 00 EE 20 52 14 80 F8  p.......... R...
20E0: FF FF 7F F8 FF FF 7F 73  30 36 33 01 17 21 02 09  .......s063..!..
20F0: 10 1C 80 00 08 21 52 14  80 F8 FF FF 7F F8 FF FF  .....!R.........
2100: 7F 73 30 36 33 01 17 21  52 14 80 F8 FF FF 7F F8  .s063..!R.......
2110: FF FF 7F 73 30 35 30 02  09 10 1B 80 00 33 21 45  ...s050......3!E
