# 17788978

## Common Data

| Field            | Value           |
|------------------|-----------------|
| Zone             | Rabao (ID: 247) |
| Block Size       | 1616 bytes      |
| Total Events     | 61              |
| References Count | 44              |

## List of Events

| Event ID                   | Entrypoint   |   Size |   Instructions |
|----------------------------|--------------|--------|----------------|
| [65535](#event-65535)      | 0x0000       |      1 |              1 |
| [69](#event-69)            | 0x0001       |      7 |              2 |
| [65535.1](#event-655351)   | 0x0008       |     61 |             10 |
| [65535.2](#event-655352)   | 0x0045       |     10 |              2 |
| [65535.3](#event-655353)   | 0x004F       |     67 |             14 |
| [86](#event-86)            | 0x0092       |      1 |              1 |
| [65535.4](#event-655354)   | 0x0093       |     16 |              2 |
| [65535.5](#event-655355)   | 0x00A3       |     14 |              2 |
| [65535.6](#event-655356)   | 0x00B1       |     16 |              2 |
| [65535.7](#event-655357)   | 0x00C1       |     14 |              2 |
| [65535.8](#event-655358)   | 0x00CF       |     16 |              2 |
| [65535.9](#event-655359)   | 0x00DF       |     14 |              2 |
| [65535.10](#event-6553510) | 0x00ED       |     16 |              2 |
| [65535.11](#event-6553511) | 0x00FD       |     14 |              2 |
| [65535.12](#event-6553512) | 0x010B       |     16 |              2 |
| [65535.13](#event-6553513) | 0x011B       |     14 |              2 |
| [65535.14](#event-6553514) | 0x0129       |     16 |              2 |
| [65535.15](#event-6553515) | 0x0139       |     14 |              2 |
| [65535.16](#event-6553516) | 0x0147       |     16 |              2 |
| [65535.17](#event-6553517) | 0x0157       |     14 |              2 |
| [65535.18](#event-6553518) | 0x0165       |     16 |              2 |
| [65535.19](#event-6553519) | 0x0175       |     14 |              2 |
| [65535.20](#event-6553520) | 0x0183       |     16 |              2 |
| [65535.21](#event-6553521) | 0x0193       |     14 |              2 |
| [65535.22](#event-6553522) | 0x01A1       |     16 |              2 |
| [65535.23](#event-6553523) | 0x01B1       |     14 |              2 |
| [65535.24](#event-6553524) | 0x01BF       |     16 |              2 |
| [65535.25](#event-6553525) | 0x01CF       |     22 |              4 |
| [65535.26](#event-6553526) | 0x01E5       |     16 |              2 |
| [65535.27](#event-6553527) | 0x01F5       |     14 |              2 |
| [65535.28](#event-6553528) | 0x0203       |     16 |              2 |
| [65535.29](#event-6553529) | 0x0213       |     14 |              2 |
| [65535.30](#event-6553530) | 0x0221       |     35 |              4 |
| [65535.31](#event-6553531) | 0x0244       |     35 |              4 |
| [65535.32](#event-6553532) | 0x0267       |     50 |              5 |
| [65535.33](#event-6553533) | 0x0299       |     16 |              2 |
| [65535.34](#event-6553534) | 0x02A9       |     14 |              2 |
| [65535.35](#event-6553535) | 0x02B7       |     34 |              4 |
| [65535.36](#event-6553536) | 0x02D9       |     35 |              4 |
| [65535.37](#event-6553537) | 0x02FC       |     28 |              4 |
| [65535.38](#event-6553538) | 0x0318       |     14 |              2 |
| [65535.39](#event-6553539) | 0x0326       |     22 |              3 |
| [65535.40](#event-6553540) | 0x033C       |     20 |              3 |
| [65535.41](#event-6553541) | 0x0350       |     16 |              2 |
| [65535.42](#event-6553542) | 0x0360       |     14 |              2 |
| [65535.43](#event-6553543) | 0x036E       |     16 |              2 |
| [65535.44](#event-6553544) | 0x037E       |     29 |              3 |
| [65535.45](#event-6553545) | 0x039B       |     22 |              3 |
| [65535.46](#event-6553546) | 0x03B1       |     14 |              2 |
| [65535.47](#event-6553547) | 0x03BF       |     16 |              2 |
| [65535.48](#event-6553548) | 0x03CF       |     20 |              3 |
| [65535.49](#event-6553549) | 0x03E3       |     16 |              2 |
| [187](#event-187)          | 0x03F3       |     10 |              3 |
| [65535.50](#event-6553550) | 0x03FD       |      2 |              2 |
| [65535.51](#event-6553551) | 0x03FF       |     15 |              5 |
| [65535.52](#event-6553552) | 0x040E       |     15 |              5 |
| [190](#event-190)          | 0x041D       |      7 |              2 |
| [65535.53](#event-6553553) | 0x0424       |     15 |              5 |
| [65535.54](#event-6553554) | 0x0433       |     44 |              4 |
| [65535.55](#event-6553555) | 0x045F       |     29 |              4 |
| [65535.56](#event-6553556) | 0x047C       |     29 |              4 |

## DAT References (imed_data)

|   Index | Hex Value   |   Dec Value |
|---------|-------------|-------------|
|       0 | 0x0000      |           0 |
|       1 | 0x140E2     |       82146 |
|       2 | 0xFFFE81CE  |  4294869454 |
|       3 | 0xFFFFC951  |  4294953297 |
|       4 | 0x0013      |          19 |
|       5 | 0x0002      |           2 |
|       6 | 0xFFFFB529  |  4294948137 |
|       7 | 0xFFFF737F  |  4294931327 |
|       8 | 0x0449      |        1097 |
|       9 | 0x0D2B      |        3371 |
|      10 | 0x0003      |           3 |
|      11 | 0xFFFF7F3C  |  4294934332 |
|      12 | 0xFFFF9817  |  4294940695 |
|      13 | 0x0A96      |        2710 |
|      14 | 0x0DC3      |        3523 |
|      15 | 0x3160      |       12640 |
|      16 | 0x4AB1      |       19121 |
|      17 | 0xFFFFA876  |  4294944886 |
|      18 | 0x0DFA      |        3578 |
|      19 | 0x000D      |          13 |
|      20 | 0x17578     |       95608 |
|      21 | 0xFFFE82C1  |  4294869697 |
|      22 | 0xFFFFCAA7  |  4294953639 |
|      23 | 0xFFFF9C96  |  4294941846 |
|      24 | 0xFFFFAF02  |  4294946562 |
|      25 | 0xFFFFAA65  |  4294945381 |
|      26 | 0x1514      |        5396 |
|      27 | 0x0028      |          40 |
|      28 | 0x0022      |          34 |
|      29 | 0x002A      |          42 |
|      30 | 0x003C      |          60 |
|      31 | 0x002B      |          43 |
|      32 | 0x002E      |          46 |
|      33 | 0x000F      |          15 |
|      34 | 0x001E      |          30 |
|      35 | 0x1B51      |        6993 |
|      36 | 0x12A85     |       76421 |
|      37 | 0x1F3F      |        7999 |
|      38 | 0x1F88      |        8072 |
|      39 | 0x12CC0     |       76992 |
|      40 | 0x122C      |        4652 |
|      41 | 0x12AD4     |       76500 |
|      42 | 0x1F40      |        8000 |
|      43 | 0x0011      |          17 |

## Events

### Event 65535

#### Metadata

| Field        | Value   |
|--------------|---------|
| Entrypoint   | 0x0000  |
| Data Size    | 1 bytes |
| Instructions | 1       |

```
      00 01 02 03 04 05 06 07  08 09 0A 0B 0C 0D 0E 0F
      -- -- -- -- -- -- -- --  -- -- -- -- -- -- -- --
0000: 00                                                .               
```

#### Opcodes

```
  0: 0x0000 [0x00] END_REQSTACK()
```

### Event 69

#### Metadata

| Field        | Value   |
|--------------|---------|
| Entrypoint   | 0x0001  |
| Data Size    | 7 bytes |
| Instructions | 2       |

```
      00 01 02 03 04 05 06 07  08 09 0A 0B 0C 0D 0E 0F
      -- -- -- -- -- -- -- --  -- -- -- -- -- -- -- --
0000:    92 01 F8 FF FF 7F 00                            .......        
```

#### Opcodes

```
  0: 0x0001 [0x92] EventEntity->Render.Flags3 ^= 0x01
  1: 0x0007 [0x00] END_REQSTACK()
```

### Event 65535.1

#### Metadata

| Field        | Value    |
|--------------|----------|
| Entrypoint   | 0x0008   |
| Data Size    | 61 bytes |
| Instructions | 10       |

```
      00 01 02 03 04 05 06 07  08 09 0A 0B 0C 0D 0E 0F
      -- -- -- -- -- -- -- --  -- -- -- -- -- -- -- --
0000:                          02 04 10 00 80 80 1C 00          ........
0010: 37 01 80 02 80 03 80 04  80 01 44 00 02 04 10 05  7.........D.....
0020: 80 80 30 00 37 06 80 07  80 08 80 09 80 01 44 00  ..0.7.........D.
0030: 02 04 10 0A 80 80 44 00  37 0B 80 0C 80 0D 80 0E  ......D.7.......
0040: 80 01 44 00 00                                    ..D..           
```

#### Opcodes

```
  0: 0x0008 [0x02] IF !(Work_Zone[4] == 0*) GOTO 0x001C
  1: 0x0010 [0x37] UPDATE_EVENT_POSITION_AND_DIR: x=82.146*, z=-97.842*, y=-13.999*, direction=1.7째*
  2: 0x0019 [0x01] GOTO 0x0044
  3: 0x001C [0x02] IF !(Work_Zone[4] == 2*) GOTO 0x0030
  4: 0x0024 [0x37] UPDATE_EVENT_POSITION_AND_DIR: x=-19.159*, z=-35.969*, y=1.097*, direction=296.3째*
  5: 0x002D [0x01] GOTO 0x0044
  6: 0x0030 [0x02] IF !(Work_Zone[4] == 3*) GOTO 0x0044
  7: 0x0038 [0x37] UPDATE_EVENT_POSITION_AND_DIR: x=-32.964*, z=-26.601*, y=2.710*, direction=309.6째*
  8: 0x0041 [0x01] GOTO 0x0044

SUBROUTINE_0044:
  9: 0x0044 [0x00] END_REQSTACK()
```

### Event 65535.2

#### Metadata

| Field        | Value    |
|--------------|----------|
| Entrypoint   | 0x0045   |
| Data Size    | 10 bytes |
| Instructions | 2        |

```
      00 01 02 03 04 05 06 07  08 09 0A 0B 0C 0D 0E 0F
      -- -- -- -- -- -- -- --  -- -- -- -- -- -- -- --
0040:                37 0F 80  10 80 11 80 12 80 00          7......... 
```

#### Opcodes

```
  0: 0x0045 [0x37] UPDATE_EVENT_POSITION_AND_DIR: x=12.640*, z=19.121*, y=-22.410*, direction=314.5째*
  1: 0x004E [0x00] END_REQSTACK()
```

### Event 65535.3

#### Metadata

| Field        | Value    |
|--------------|----------|
| Entrypoint   | 0x004F   |
| Data Size    | 67 bytes |
| Instructions | 14       |

```
      00 01 02 03 04 05 06 07  08 09 0A 0B 0C 0D 0E 0F
      -- -- -- -- -- -- -- --  -- -- -- -- -- -- -- --
0040:                                               32                 2
0050: 13 80 02 04 10 00 80 80  67 00 1F 00 14 80 15 80  ........g.......
0060: 03 80 1F 01 01 91 00 02  04 10 05 80 80 7C 00 1F  .............|..
0070: 00 16 80 17 80 08 80 1F  01 01 91 00 02 04 10 0A  ................
0080: 80 80 91 00 1F 00 18 80  19 80 1A 80 1F 01 01 91  ................
0090: 00 00                                             ..              
```

#### Opcodes

```
  0: 0x004F [0x32] ExtData[1]->MainSpeed = 13* * 0.1
  1: 0x0052 [0x02] IF !(Work_Zone[4] == 0*) GOTO 0x0067
  2: 0x005A [0x1F] MOVE_ENTITY: EventEntity moves to X=95.608*, Z=-97.599*, Y=-13.999*
  3: 0x0062 [0x1F] MOVE_ENTITY: Update entity position (mode=1)
  4: 0x0064 [0x01] GOTO 0x0091
  5: 0x0067 [0x02] IF !(Work_Zone[4] == 2*) GOTO 0x007C
  6: 0x006F [0x1F] MOVE_ENTITY: EventEntity moves to X=-13.657*, Z=-25.450*, Y=1.097*
  7: 0x0077 [0x1F] MOVE_ENTITY: Update entity position (mode=1)
  8: 0x0079 [0x01] GOTO 0x0091
  9: 0x007C [0x02] IF !(Work_Zone[4] == 3*) GOTO 0x0091
 10: 0x0084 [0x1F] MOVE_ENTITY: EventEntity moves to X=-20.734*, Z=-21.915*, Y=5.396*
 11: 0x008C [0x1F] MOVE_ENTITY: Update entity position (mode=1)
 12: 0x008E [0x01] GOTO 0x0091

SUBROUTINE_0091:
 13: 0x0091 [0x00] END_REQSTACK()
```

### Event 86

#### Metadata

| Field        | Value   |
|--------------|---------|
| Entrypoint   | 0x0092  |
| Data Size    | 1 bytes |
| Instructions | 1       |

```
      00 01 02 03 04 05 06 07  08 09 0A 0B 0C 0D 0E 0F
      -- -- -- -- -- -- -- --  -- -- -- -- -- -- -- --
0090:       00                                            .             
```

#### Opcodes

```
  0: 0x0092 [0x00] END_REQSTACK()
```

### Event 65535.4

#### Metadata

| Field        | Value    |
|--------------|----------|
| Entrypoint   | 0x0093   |
| Data Size    | 16 bytes |
| Instructions | 2        |

```
      00 01 02 03 04 05 06 07  08 09 0A 0B 0C 0D 0E 0F
      -- -- -- -- -- -- -- --  -- -- -- -- -- -- -- --
0090:          66 1B 80 F8 FF  FF 7F F8 FF FF 7F 74 6C     f..........tl
00A0: 6B 30 00                                          k0.             
```

#### Opcodes

```
  0: 0x0093 [0x66] LOAD_EXT_SCHEDULER_MAIN: Load scheduler "tlk0" with entities [EventEntity, EventEntity], work=40*
  1: 0x00A2 [0x00] END_REQSTACK()
```

### Event 65535.5

#### Metadata

| Field        | Value    |
|--------------|----------|
| Entrypoint   | 0x00A3   |
| Data Size    | 14 bytes |
| Instructions | 2        |

```
      00 01 02 03 04 05 06 07  08 09 0A 0B 0C 0D 0E 0F
      -- -- -- -- -- -- -- --  -- -- -- -- -- -- -- --
00A0:          53 F8 FF FF 7F  F8 FF FF 7F 74 6C 6B 30     S........tlk0
00B0: 00                                                .               
```

#### Opcodes

```
  0: 0x00A3 [0x53] WAIT_SCHEDULER_TASK: Wait for scheduler "tlk0" with entities [EventEntity, EventEntity]
  1: 0x00B0 [0x00] END_REQSTACK()
```

### Event 65535.6

#### Metadata

| Field        | Value    |
|--------------|----------|
| Entrypoint   | 0x00B1   |
| Data Size    | 16 bytes |
| Instructions | 2        |

```
      00 01 02 03 04 05 06 07  08 09 0A 0B 0C 0D 0E 0F
      -- -- -- -- -- -- -- --  -- -- -- -- -- -- -- --
00B0:    66 1B 80 F8 FF FF 7F  F8 FF FF 7F 74 6C 6B 31   f..........tlk1
00C0: 00                                                .               
```

#### Opcodes

```
  0: 0x00B1 [0x66] LOAD_EXT_SCHEDULER_MAIN: Load scheduler "tlk1" with entities [EventEntity, EventEntity], work=40*
  1: 0x00C0 [0x00] END_REQSTACK()
```

### Event 65535.7

#### Metadata

| Field        | Value    |
|--------------|----------|
| Entrypoint   | 0x00C1   |
| Data Size    | 14 bytes |
| Instructions | 2        |

```
      00 01 02 03 04 05 06 07  08 09 0A 0B 0C 0D 0E 0F
      -- -- -- -- -- -- -- --  -- -- -- -- -- -- -- --
00C0:    53 F8 FF FF 7F F8 FF  FF 7F 74 6C 6B 31 00      S........tlk1. 
```

#### Opcodes

```
  0: 0x00C1 [0x53] WAIT_SCHEDULER_TASK: Wait for scheduler "tlk1" with entities [EventEntity, EventEntity]
  1: 0x00CE [0x00] END_REQSTACK()
```

### Event 65535.8

#### Metadata

| Field        | Value    |
|--------------|----------|
| Entrypoint   | 0x00CF   |
| Data Size    | 16 bytes |
| Instructions | 2        |

```
      00 01 02 03 04 05 06 07  08 09 0A 0B 0C 0D 0E 0F
      -- -- -- -- -- -- -- --  -- -- -- -- -- -- -- --
00C0:                                               66                 f
00D0: 1C 80 F8 FF FF 7F F8 FF  FF 7F 74 6C 62 30 00     ..........tlb0. 
```

#### Opcodes

```
  0: 0x00CF [0x66] LOAD_EXT_SCHEDULER_MAIN: Load scheduler "tlb0" with entities [EventEntity, EventEntity], work=34*
  1: 0x00DE [0x00] END_REQSTACK()
```

### Event 65535.9

#### Metadata

| Field        | Value    |
|--------------|----------|
| Entrypoint   | 0x00DF   |
| Data Size    | 14 bytes |
| Instructions | 2        |

```
      00 01 02 03 04 05 06 07  08 09 0A 0B 0C 0D 0E 0F
      -- -- -- -- -- -- -- --  -- -- -- -- -- -- -- --
00D0:                                               53                 S
00E0: F8 FF FF 7F F8 FF FF 7F  74 6C 62 30 00           ........tlb0.   
```

#### Opcodes

```
  0: 0x00DF [0x53] WAIT_SCHEDULER_TASK: Wait for scheduler "tlb0" with entities [EventEntity, EventEntity]
  1: 0x00EC [0x00] END_REQSTACK()
```

### Event 65535.10

#### Metadata

| Field        | Value    |
|--------------|----------|
| Entrypoint   | 0x00ED   |
| Data Size    | 16 bytes |
| Instructions | 2        |

```
      00 01 02 03 04 05 06 07  08 09 0A 0B 0C 0D 0E 0F
      -- -- -- -- -- -- -- --  -- -- -- -- -- -- -- --
00E0:                                         66 1C 80               f..
00F0: F8 FF FF 7F F8 FF FF 7F  74 6C 62 31 00           ........tlb1.   
```

#### Opcodes

```
  0: 0x00ED [0x66] LOAD_EXT_SCHEDULER_MAIN: Load scheduler "tlb1" with entities [EventEntity, EventEntity], work=34*
  1: 0x00FC [0x00] END_REQSTACK()
```

### Event 65535.11

#### Metadata

| Field        | Value    |
|--------------|----------|
| Entrypoint   | 0x00FD   |
| Data Size    | 14 bytes |
| Instructions | 2        |

```
      00 01 02 03 04 05 06 07  08 09 0A 0B 0C 0D 0E 0F
      -- -- -- -- -- -- -- --  -- -- -- -- -- -- -- --
00F0:                                         53 F8 FF               S..
0100: FF 7F F8 FF FF 7F 74 6C  62 31 00                 ......tlb1.     
```

#### Opcodes

```
  0: 0x00FD [0x53] WAIT_SCHEDULER_TASK: Wait for scheduler "tlb1" with entities [EventEntity, EventEntity]
  1: 0x010A [0x00] END_REQSTACK()
```

### Event 65535.12

#### Metadata

| Field        | Value    |
|--------------|----------|
| Entrypoint   | 0x010B   |
| Data Size    | 16 bytes |
| Instructions | 2        |

```
      00 01 02 03 04 05 06 07  08 09 0A 0B 0C 0D 0E 0F
      -- -- -- -- -- -- -- --  -- -- -- -- -- -- -- --
0100:                                   66 1B 80 F8 FF             f....
0110: FF 7F F8 FF FF 7F 74 68  6B 31 00                 ......thk1.     
```

#### Opcodes

```
  0: 0x010B [0x66] LOAD_EXT_SCHEDULER_MAIN: Load scheduler "thk1" with entities [EventEntity, EventEntity], work=40*
  1: 0x011A [0x00] END_REQSTACK()
```

### Event 65535.13

#### Metadata

| Field        | Value    |
|--------------|----------|
| Entrypoint   | 0x011B   |
| Data Size    | 14 bytes |
| Instructions | 2        |

```
      00 01 02 03 04 05 06 07  08 09 0A 0B 0C 0D 0E 0F
      -- -- -- -- -- -- -- --  -- -- -- -- -- -- -- --
0110:                                   53 F8 FF FF 7F             S....
0120: F8 FF FF 7F 74 68 6B 31  00                       ....thk1.       
```

#### Opcodes

```
  0: 0x011B [0x53] WAIT_SCHEDULER_TASK: Wait for scheduler "thk1" with entities [EventEntity, EventEntity]
  1: 0x0128 [0x00] END_REQSTACK()
```

### Event 65535.14

#### Metadata

| Field        | Value    |
|--------------|----------|
| Entrypoint   | 0x0129   |
| Data Size    | 16 bytes |
| Instructions | 2        |

```
      00 01 02 03 04 05 06 07  08 09 0A 0B 0C 0D 0E 0F
      -- -- -- -- -- -- -- --  -- -- -- -- -- -- -- --
0120:                             66 1B 80 F8 FF FF 7F           f......
0130: F8 FF FF 7F 74 68 6B 32  00                       ....thk2.       
```

#### Opcodes

```
  0: 0x0129 [0x66] LOAD_EXT_SCHEDULER_MAIN: Load scheduler "thk2" with entities [EventEntity, EventEntity], work=40*
  1: 0x0138 [0x00] END_REQSTACK()
```

### Event 65535.15

#### Metadata

| Field        | Value    |
|--------------|----------|
| Entrypoint   | 0x0139   |
| Data Size    | 14 bytes |
| Instructions | 2        |

```
      00 01 02 03 04 05 06 07  08 09 0A 0B 0C 0D 0E 0F
      -- -- -- -- -- -- -- --  -- -- -- -- -- -- -- --
0130:                             53 F8 FF FF 7F F8 FF           S......
0140: FF 7F 74 68 6B 32 00                              ..thk2.         
```

#### Opcodes

```
  0: 0x0139 [0x53] WAIT_SCHEDULER_TASK: Wait for scheduler "thk2" with entities [EventEntity, EventEntity]
  1: 0x0146 [0x00] END_REQSTACK()
```

### Event 65535.16

#### Metadata

| Field        | Value    |
|--------------|----------|
| Entrypoint   | 0x0147   |
| Data Size    | 16 bytes |
| Instructions | 2        |

```
      00 01 02 03 04 05 06 07  08 09 0A 0B 0C 0D 0E 0F
      -- -- -- -- -- -- -- --  -- -- -- -- -- -- -- --
0140:                      66  1B 80 F8 FF FF 7F F8 FF         f........
0150: FF 7F 64 69 73 30 00                              ..dis0.         
```

#### Opcodes

```
  0: 0x0147 [0x66] LOAD_EXT_SCHEDULER_MAIN: Load scheduler "dis0" with entities [EventEntity, EventEntity], work=40*
  1: 0x0156 [0x00] END_REQSTACK()
```

### Event 65535.17

#### Metadata

| Field        | Value    |
|--------------|----------|
| Entrypoint   | 0x0157   |
| Data Size    | 14 bytes |
| Instructions | 2        |

```
      00 01 02 03 04 05 06 07  08 09 0A 0B 0C 0D 0E 0F
      -- -- -- -- -- -- -- --  -- -- -- -- -- -- -- --
0150:                      53  F8 FF FF 7F F8 FF FF 7F         S........
0160: 64 69 73 30 00                                    dis0.           
```

#### Opcodes

```
  0: 0x0157 [0x53] WAIT_SCHEDULER_TASK: Wait for scheduler "dis0" with entities [EventEntity, EventEntity]
  1: 0x0164 [0x00] END_REQSTACK()
```

### Event 65535.18

#### Metadata

| Field        | Value    |
|--------------|----------|
| Entrypoint   | 0x0165   |
| Data Size    | 16 bytes |
| Instructions | 2        |

```
      00 01 02 03 04 05 06 07  08 09 0A 0B 0C 0D 0E 0F
      -- -- -- -- -- -- -- --  -- -- -- -- -- -- -- --
0160:                66 1B 80  F8 FF FF 7F F8 FF FF 7F       f..........
0170: 70 6F 69 30 00                                    poi0.           
```

#### Opcodes

```
  0: 0x0165 [0x66] LOAD_EXT_SCHEDULER_MAIN: Load scheduler "poi0" with entities [EventEntity, EventEntity], work=40*
  1: 0x0174 [0x00] END_REQSTACK()
```

### Event 65535.19

#### Metadata

| Field        | Value    |
|--------------|----------|
| Entrypoint   | 0x0175   |
| Data Size    | 14 bytes |
| Instructions | 2        |

```
      00 01 02 03 04 05 06 07  08 09 0A 0B 0C 0D 0E 0F
      -- -- -- -- -- -- -- --  -- -- -- -- -- -- -- --
0170:                53 F8 FF  FF 7F F8 FF FF 7F 70 6F       S........po
0180: 69 30 00                                          i0.             
```

#### Opcodes

```
  0: 0x0175 [0x53] WAIT_SCHEDULER_TASK: Wait for scheduler "poi0" with entities [EventEntity, EventEntity]
  1: 0x0182 [0x00] END_REQSTACK()
```

### Event 65535.20

#### Metadata

| Field        | Value    |
|--------------|----------|
| Entrypoint   | 0x0183   |
| Data Size    | 16 bytes |
| Instructions | 2        |

```
      00 01 02 03 04 05 06 07  08 09 0A 0B 0C 0D 0E 0F
      -- -- -- -- -- -- -- --  -- -- -- -- -- -- -- --
0180:          66 1B 80 F8 FF  FF 7F F8 FF FF 7F 70 61     f..........pa
0190: 73 30 00                                          s0.             
```

#### Opcodes

```
  0: 0x0183 [0x66] LOAD_EXT_SCHEDULER_MAIN: Load scheduler "pas0" with entities [EventEntity, EventEntity], work=40*
  1: 0x0192 [0x00] END_REQSTACK()
```

### Event 65535.21

#### Metadata

| Field        | Value    |
|--------------|----------|
| Entrypoint   | 0x0193   |
| Data Size    | 14 bytes |
| Instructions | 2        |

```
      00 01 02 03 04 05 06 07  08 09 0A 0B 0C 0D 0E 0F
      -- -- -- -- -- -- -- --  -- -- -- -- -- -- -- --
0190:          53 F8 FF FF 7F  F8 FF FF 7F 70 61 73 30     S........pas0
01A0: 00                                                .               
```

#### Opcodes

```
  0: 0x0193 [0x53] WAIT_SCHEDULER_TASK: Wait for scheduler "pas0" with entities [EventEntity, EventEntity]
  1: 0x01A0 [0x00] END_REQSTACK()
```

### Event 65535.22

#### Metadata

| Field        | Value    |
|--------------|----------|
| Entrypoint   | 0x01A1   |
| Data Size    | 16 bytes |
| Instructions | 2        |

```
      00 01 02 03 04 05 06 07  08 09 0A 0B 0C 0D 0E 0F
      -- -- -- -- -- -- -- --  -- -- -- -- -- -- -- --
01A0:    66 1D 80 F8 FF FF 7F  F8 FF FF 7F 6D 73 75 30   f..........msu0
01B0: 00                                                .               
```

#### Opcodes

```
  0: 0x01A1 [0x66] LOAD_EXT_SCHEDULER_MAIN: Load scheduler "msu0" with entities [EventEntity, EventEntity], work=42*
  1: 0x01B0 [0x00] END_REQSTACK()
```

### Event 65535.23

#### Metadata

| Field        | Value    |
|--------------|----------|
| Entrypoint   | 0x01B1   |
| Data Size    | 14 bytes |
| Instructions | 2        |

```
      00 01 02 03 04 05 06 07  08 09 0A 0B 0C 0D 0E 0F
      -- -- -- -- -- -- -- --  -- -- -- -- -- -- -- --
01B0:    53 F8 FF FF 7F F8 FF  FF 7F 6D 73 75 30 00      S........msu0. 
```

#### Opcodes

```
  0: 0x01B1 [0x53] WAIT_SCHEDULER_TASK: Wait for scheduler "msu0" with entities [EventEntity, EventEntity]
  1: 0x01BE [0x00] END_REQSTACK()
```

### Event 65535.24

#### Metadata

| Field        | Value    |
|--------------|----------|
| Entrypoint   | 0x01BF   |
| Data Size    | 16 bytes |
| Instructions | 2        |

```
      00 01 02 03 04 05 06 07  08 09 0A 0B 0C 0D 0E 0F
      -- -- -- -- -- -- -- --  -- -- -- -- -- -- -- --
01B0:                                               66                 f
01C0: 1D 80 F8 FF FF 7F F8 FF  FF 7F 6D 73 75 31 00     ..........msu1. 
```

#### Opcodes

```
  0: 0x01BF [0x66] LOAD_EXT_SCHEDULER_MAIN: Load scheduler "msu1" with entities [EventEntity, EventEntity], work=42*
  1: 0x01CE [0x00] END_REQSTACK()
```

### Event 65535.25

#### Metadata

| Field        | Value    |
|--------------|----------|
| Entrypoint   | 0x01CF   |
| Data Size    | 22 bytes |
| Instructions | 4        |

```
      00 01 02 03 04 05 06 07  08 09 0A 0B 0C 0D 0E 0F
      -- -- -- -- -- -- -- --  -- -- -- -- -- -- -- --
01C0:                                               53                 S
01D0: F8 FF FF 7F F8 FF FF 7F  6D 73 75 31 5E 69 64 6C  ........msu1^idl
01E0: 30 1C 1E 80 00                                    0....           
```

#### Opcodes

```
  0: 0x01CF [0x53] WAIT_SCHEDULER_TASK: Wait for scheduler "msu1" with entities [EventEntity, EventEntity]
  1: 0x01DC [0x5E] EventEntity goes idle (kills current action) (animation: "idl0")
  2: 0x01E1 [0x1C] WAIT(60* ticks)
  3: 0x01E4 [0x00] END_REQSTACK()
```

### Event 65535.26

#### Metadata

| Field        | Value    |
|--------------|----------|
| Entrypoint   | 0x01E5   |
| Data Size    | 16 bytes |
| Instructions | 2        |

```
      00 01 02 03 04 05 06 07  08 09 0A 0B 0C 0D 0E 0F
      -- -- -- -- -- -- -- --  -- -- -- -- -- -- -- --
01E0:                66 1F 80  F8 FF FF 7F F8 FF FF 7F       f..........
01F0: 63 61 62 6B 00                                    cabk.           
```

#### Opcodes

```
  0: 0x01E5 [0x66] LOAD_EXT_SCHEDULER_MAIN: Load scheduler "cabk" with entities [EventEntity, EventEntity], work=43*
  1: 0x01F4 [0x00] END_REQSTACK()
```

### Event 65535.27

#### Metadata

| Field        | Value    |
|--------------|----------|
| Entrypoint   | 0x01F5   |
| Data Size    | 14 bytes |
| Instructions | 2        |

```
      00 01 02 03 04 05 06 07  08 09 0A 0B 0C 0D 0E 0F
      -- -- -- -- -- -- -- --  -- -- -- -- -- -- -- --
01F0:                53 F8 FF  FF 7F F8 FF FF 7F 63 61       S........ca
0200: 62 6B 00                                          bk.             
```

#### Opcodes

```
  0: 0x01F5 [0x53] WAIT_SCHEDULER_TASK: Wait for scheduler "cabk" with entities [EventEntity, EventEntity]
  1: 0x0202 [0x00] END_REQSTACK()
```

### Event 65535.28

#### Metadata

| Field        | Value    |
|--------------|----------|
| Entrypoint   | 0x0203   |
| Data Size    | 16 bytes |
| Instructions | 2        |

```
      00 01 02 03 04 05 06 07  08 09 0A 0B 0C 0D 0E 0F
      -- -- -- -- -- -- -- --  -- -- -- -- -- -- -- --
0200:          66 1F 80 F8 FF  FF 7F F8 FF FF 7F 73 68     f..........sh
0210: 62 6B 00                                          bk.             
```

#### Opcodes

```
  0: 0x0203 [0x66] LOAD_EXT_SCHEDULER_MAIN: Load scheduler "shbk" with entities [EventEntity, EventEntity], work=43*
  1: 0x0212 [0x00] END_REQSTACK()
```

### Event 65535.29

#### Metadata

| Field        | Value    |
|--------------|----------|
| Entrypoint   | 0x0213   |
| Data Size    | 14 bytes |
| Instructions | 2        |

```
      00 01 02 03 04 05 06 07  08 09 0A 0B 0C 0D 0E 0F
      -- -- -- -- -- -- -- --  -- -- -- -- -- -- -- --
0210:          53 F8 FF FF 7F  F8 FF FF 7F 73 68 62 6B     S........shbk
0220: 00                                                .               
```

#### Opcodes

```
  0: 0x0213 [0x53] WAIT_SCHEDULER_TASK: Wait for scheduler "shbk" with entities [EventEntity, EventEntity]
  1: 0x0220 [0x00] END_REQSTACK()
```

### Event 65535.30

#### Metadata

| Field        | Value    |
|--------------|----------|
| Entrypoint   | 0x0221   |
| Data Size    | 35 bytes |
| Instructions | 4        |

```
      00 01 02 03 04 05 06 07  08 09 0A 0B 0C 0D 0E 0F
      -- -- -- -- -- -- -- --  -- -- -- -- -- -- -- --
0220:    81 00 F8 FF FF 7F 66  20 80 F8 FF FF 7F F8 FF   ......f .......
0230: FF 7F 6D 67 63 31 53 F8  FF FF 7F F8 FF FF 7F 6D  ..mgc1S........m
0240: 67 63 31 00                                       gc1.            
```

#### Opcodes

```
  0: 0x0221 [0x81] SET_ENTITY_BLINKING(blink_flag=0x00, entity=EventEntity)
  1: 0x0227 [0x66] LOAD_EXT_SCHEDULER_MAIN: Load scheduler "mgc1" with entities [EventEntity, EventEntity], work=46*
  2: 0x0236 [0x53] WAIT_SCHEDULER_TASK: Wait for scheduler "mgc1" with entities [EventEntity, EventEntity]
  3: 0x0243 [0x00] END_REQSTACK()
```

### Event 65535.31

#### Metadata

| Field        | Value    |
|--------------|----------|
| Entrypoint   | 0x0244   |
| Data Size    | 35 bytes |
| Instructions | 4        |

```
      00 01 02 03 04 05 06 07  08 09 0A 0B 0C 0D 0E 0F
      -- -- -- -- -- -- -- --  -- -- -- -- -- -- -- --
0240:             66 20 80 F8  FF FF 7F F8 FF FF 7F 6D      f .........m
0250: 64 71 32 53 F8 FF FF 7F  F8 FF FF 7F 6D 64 71 32  dq2S........mdq2
0260: 81 01 F8 FF FF 7F 00                              .......         
```

#### Opcodes

```
  0: 0x0244 [0x66] LOAD_EXT_SCHEDULER_MAIN: Load scheduler "mdq2" with entities [EventEntity, EventEntity], work=46*
  1: 0x0253 [0x53] WAIT_SCHEDULER_TASK: Wait for scheduler "mdq2" with entities [EventEntity, EventEntity]
  2: 0x0260 [0x81] SET_ENTITY_BLINKING(blink_flag=0x01, entity=EventEntity)
  3: 0x0266 [0x00] END_REQSTACK()
```

### Event 65535.32

#### Metadata

| Field        | Value    |
|--------------|----------|
| Entrypoint   | 0x0267   |
| Data Size    | 50 bytes |
| Instructions | 5        |

```
      00 01 02 03 04 05 06 07  08 09 0A 0B 0C 0D 0E 0F
      -- -- -- -- -- -- -- --  -- -- -- -- -- -- -- --
0260:                      81  00 F8 FF FF 7F 66 21 80         ......f!.
0270: F8 FF FF 7F F8 FF FF 7F  73 74 64 30 66 20 80 F8  ........std0f ..
0280: FF FF 7F F8 FF FF 7F 6D  64 71 30 53 F8 FF FF 7F  .......mdq0S....
0290: F8 FF FF 7F 6D 64 71 30  00                       ....mdq0.       
```

#### Opcodes

```
  0: 0x0267 [0x81] SET_ENTITY_BLINKING(blink_flag=0x00, entity=EventEntity)
  1: 0x026D [0x66] LOAD_EXT_SCHEDULER_MAIN: Load scheduler "std0" with entities [EventEntity, EventEntity], work=15*
  2: 0x027C [0x66] LOAD_EXT_SCHEDULER_MAIN: Load scheduler "mdq0" with entities [EventEntity, EventEntity], work=46*
  3: 0x028B [0x53] WAIT_SCHEDULER_TASK: Wait for scheduler "mdq0" with entities [EventEntity, EventEntity]
  4: 0x0298 [0x00] END_REQSTACK()
```

### Event 65535.33

#### Metadata

| Field        | Value    |
|--------------|----------|
| Entrypoint   | 0x0299   |
| Data Size    | 16 bytes |
| Instructions | 2        |

```
      00 01 02 03 04 05 06 07  08 09 0A 0B 0C 0D 0E 0F
      -- -- -- -- -- -- -- --  -- -- -- -- -- -- -- --
0290:                             66 20 80 F8 FF FF 7F           f .....
02A0: F8 FF FF 7F 6D 64 71 33  00                       ....mdq3.       
```

#### Opcodes

```
  0: 0x0299 [0x66] LOAD_EXT_SCHEDULER_MAIN: Load scheduler "mdq3" with entities [EventEntity, EventEntity], work=46*
  1: 0x02A8 [0x00] END_REQSTACK()
```

### Event 65535.34

#### Metadata

| Field        | Value    |
|--------------|----------|
| Entrypoint   | 0x02A9   |
| Data Size    | 14 bytes |
| Instructions | 2        |

```
      00 01 02 03 04 05 06 07  08 09 0A 0B 0C 0D 0E 0F
      -- -- -- -- -- -- -- --  -- -- -- -- -- -- -- --
02A0:                             53 F8 FF FF 7F F8 FF           S......
02B0: FF 7F 6D 64 71 33 00                              ..mdq3.         
```

#### Opcodes

```
  0: 0x02A9 [0x53] WAIT_SCHEDULER_TASK: Wait for scheduler "mdq3" with entities [EventEntity, EventEntity]
  1: 0x02B6 [0x00] END_REQSTACK()
```

### Event 65535.35

#### Metadata

| Field        | Value    |
|--------------|----------|
| Entrypoint   | 0x02B7   |
| Data Size    | 34 bytes |
| Instructions | 4        |

```
      00 01 02 03 04 05 06 07  08 09 0A 0B 0C 0D 0E 0F
      -- -- -- -- -- -- -- --  -- -- -- -- -- -- -- --
02B0:                      66  1D 80 32 70 0F 01 32 70         f..2p..2p
02C0: 0F 01 77 6F 66 32 66 21  80 F8 FF FF 7F F8 FF FF  ..wof2f!........
02D0: 7F 73 74 64 30 1C 22 80  00                       .std0."..       
```

#### Opcodes

```
  0: 0x02B7 [0x66] LOAD_EXT_SCHEDULER_MAIN: Load scheduler "wof2" with entities [??? (ID: 17788978/0x010F7032), ??? (ID: 17788978/0x010F7032)], work=42*
  1: 0x02C6 [0x66] LOAD_EXT_SCHEDULER_MAIN: Load scheduler "std0" with entities [EventEntity, EventEntity], work=15*
  2: 0x02D5 [0x1C] WAIT(30* ticks)
  3: 0x02D8 [0x00] END_REQSTACK()
```

### Event 65535.36

#### Metadata

| Field        | Value    |
|--------------|----------|
| Entrypoint   | 0x02D9   |
| Data Size    | 35 bytes |
| Instructions | 4        |

```
      00 01 02 03 04 05 06 07  08 09 0A 0B 0C 0D 0E 0F
      -- -- -- -- -- -- -- --  -- -- -- -- -- -- -- --
02D0:                             81 00 F8 FF FF 7F 66           ......f
02E0: 21 80 F8 FF FF 7F F8 FF  FF 7F 73 74 64 30 53 F8  !.........std0S.
02F0: FF FF 7F F8 FF FF 7F 73  74 64 30 00              .......std0.    
```

#### Opcodes

```
  0: 0x02D9 [0x81] SET_ENTITY_BLINKING(blink_flag=0x00, entity=EventEntity)
  1: 0x02DF [0x66] LOAD_EXT_SCHEDULER_MAIN: Load scheduler "std0" with entities [EventEntity, EventEntity], work=15*
  2: 0x02EE [0x53] WAIT_SCHEDULER_TASK: Wait for scheduler "std0" with entities [EventEntity, EventEntity]
  3: 0x02FB [0x00] END_REQSTACK()
```

### Event 65535.37

#### Metadata

| Field        | Value    |
|--------------|----------|
| Entrypoint   | 0x02FC   |
| Data Size    | 28 bytes |
| Instructions | 4        |

```
      00 01 02 03 04 05 06 07  08 09 0A 0B 0C 0D 0E 0F
      -- -- -- -- -- -- -- --  -- -- -- -- -- -- -- --
02F0:                                      81 00 F8 FF              ....
0300: FF 7F 7C 00 F8 FF FF 7F  66 21 80 F8 FF FF 7F F8  ..|.....f!......
0310: FF FF 7F 77 72 75 30 00                           ...wru0.        
```

#### Opcodes

```
  0: 0x02FC [0x81] SET_ENTITY_BLINKING(blink_flag=0x00, entity=EventEntity)
  1: 0x0302 [0x7C] EventEntity->Render.Flags2 |= 0x00
  2: 0x0308 [0x66] LOAD_EXT_SCHEDULER_MAIN: Load scheduler "wru0" with entities [EventEntity, EventEntity], work=15*
  3: 0x0317 [0x00] END_REQSTACK()
```

### Event 65535.38

#### Metadata

| Field        | Value    |
|--------------|----------|
| Entrypoint   | 0x0318   |
| Data Size    | 14 bytes |
| Instructions | 2        |

```
      00 01 02 03 04 05 06 07  08 09 0A 0B 0C 0D 0E 0F
      -- -- -- -- -- -- -- --  -- -- -- -- -- -- -- --
0310:                          53 F8 FF FF 7F F8 FF FF          S.......
0320: 7F 77 72 75 30 00                                 .wru0.          
```

#### Opcodes

```
  0: 0x0318 [0x53] WAIT_SCHEDULER_TASK: Wait for scheduler "wru0" with entities [EventEntity, EventEntity]
  1: 0x0325 [0x00] END_REQSTACK()
```

### Event 65535.39

#### Metadata

| Field        | Value    |
|--------------|----------|
| Entrypoint   | 0x0326   |
| Data Size    | 22 bytes |
| Instructions | 3        |

```
      00 01 02 03 04 05 06 07  08 09 0A 0B 0C 0D 0E 0F
      -- -- -- -- -- -- -- --  -- -- -- -- -- -- -- --
0320:                   7C 01  F8 FF FF 7F 66 21 80 F8        |.....f!..
0330: FF FF 7F F8 FF FF 7F 77  72 75 31 00              .......wru1.    
```

#### Opcodes

```
  0: 0x0326 [0x7C] EventEntity->Render.Flags2 |= 0x01
  1: 0x032C [0x66] LOAD_EXT_SCHEDULER_MAIN: Load scheduler "wru1" with entities [EventEntity, EventEntity], work=15*
  2: 0x033B [0x00] END_REQSTACK()
```

### Event 65535.40

#### Metadata

| Field        | Value    |
|--------------|----------|
| Entrypoint   | 0x033C   |
| Data Size    | 20 bytes |
| Instructions | 3        |

```
      00 01 02 03 04 05 06 07  08 09 0A 0B 0C 0D 0E 0F
      -- -- -- -- -- -- -- --  -- -- -- -- -- -- -- --
0330:                                      53 F8 FF FF              S...
0340: 7F F8 FF FF 7F 77 72 75  31 81 01 F8 FF FF 7F 00  .....wru1.......
```

#### Opcodes

```
  0: 0x033C [0x53] WAIT_SCHEDULER_TASK: Wait for scheduler "wru1" with entities [EventEntity, EventEntity]
  1: 0x0349 [0x81] SET_ENTITY_BLINKING(blink_flag=0x01, entity=EventEntity)
  2: 0x034F [0x00] END_REQSTACK()
```

### Event 65535.41

#### Metadata

| Field        | Value    |
|--------------|----------|
| Entrypoint   | 0x0350   |
| Data Size    | 16 bytes |
| Instructions | 2        |

```
      00 01 02 03 04 05 06 07  08 09 0A 0B 0C 0D 0E 0F
      -- -- -- -- -- -- -- --  -- -- -- -- -- -- -- --
0350: 66 21 80 F8 FF FF 7F F8  FF FF 7F 69 6B 75 30 00  f!.........iku0.
```

#### Opcodes

```
  0: 0x0350 [0x66] LOAD_EXT_SCHEDULER_MAIN: Load scheduler "iku0" with entities [EventEntity, EventEntity], work=15*
  1: 0x035F [0x00] END_REQSTACK()
```

### Event 65535.42

#### Metadata

| Field        | Value    |
|--------------|----------|
| Entrypoint   | 0x0360   |
| Data Size    | 14 bytes |
| Instructions | 2        |

```
      00 01 02 03 04 05 06 07  08 09 0A 0B 0C 0D 0E 0F
      -- -- -- -- -- -- -- --  -- -- -- -- -- -- -- --
0360: 53 F8 FF FF 7F F8 FF FF  7F 69 6B 75 30 00        S........iku0.  
```

#### Opcodes

```
  0: 0x0360 [0x53] WAIT_SCHEDULER_TASK: Wait for scheduler "iku0" with entities [EventEntity, EventEntity]
  1: 0x036D [0x00] END_REQSTACK()
```

### Event 65535.43

#### Metadata

| Field        | Value    |
|--------------|----------|
| Entrypoint   | 0x036E   |
| Data Size    | 16 bytes |
| Instructions | 2        |

```
      00 01 02 03 04 05 06 07  08 09 0A 0B 0C 0D 0E 0F
      -- -- -- -- -- -- -- --  -- -- -- -- -- -- -- --
0360:                                            66 21                f!
0370: 80 F8 FF FF 7F F8 FF FF  7F 69 6B 75 31 00        .........iku1.  
```

#### Opcodes

```
  0: 0x036E [0x66] LOAD_EXT_SCHEDULER_MAIN: Load scheduler "iku1" with entities [EventEntity, EventEntity], work=15*
  1: 0x037D [0x00] END_REQSTACK()
```

### Event 65535.44

#### Metadata

| Field        | Value    |
|--------------|----------|
| Entrypoint   | 0x037E   |
| Data Size    | 29 bytes |
| Instructions | 3        |

```
      00 01 02 03 04 05 06 07  08 09 0A 0B 0C 0D 0E 0F
      -- -- -- -- -- -- -- --  -- -- -- -- -- -- -- --
0370:                                            53 F8                S.
0380: FF FF 7F F8 FF FF 7F 69  6B 75 31 66 21 80 F8 FF  .......iku1f!...
0390: FF 7F F8 FF FF 7F 73 74  64 30 00                 ......std0.     
```

#### Opcodes

```
  0: 0x037E [0x53] WAIT_SCHEDULER_TASK: Wait for scheduler "iku1" with entities [EventEntity, EventEntity]
  1: 0x038B [0x66] LOAD_EXT_SCHEDULER_MAIN: Load scheduler "std0" with entities [EventEntity, EventEntity], work=15*
  2: 0x039A [0x00] END_REQSTACK()
```

### Event 65535.45

#### Metadata

| Field        | Value    |
|--------------|----------|
| Entrypoint   | 0x039B   |
| Data Size    | 22 bytes |
| Instructions | 3        |

```
      00 01 02 03 04 05 06 07  08 09 0A 0B 0C 0D 0E 0F
      -- -- -- -- -- -- -- --  -- -- -- -- -- -- -- --
0390:                                   81 00 F8 FF FF             .....
03A0: 7F 66 21 80 F8 FF FF 7F  F8 FF FF 7F 75 6B 6D 30  .f!.........ukm0
03B0: 00                                                .               
```

#### Opcodes

```
  0: 0x039B [0x81] SET_ENTITY_BLINKING(blink_flag=0x00, entity=EventEntity)
  1: 0x03A1 [0x66] LOAD_EXT_SCHEDULER_MAIN: Load scheduler "ukm0" with entities [EventEntity, EventEntity], work=15*
  2: 0x03B0 [0x00] END_REQSTACK()
```

### Event 65535.46

#### Metadata

| Field        | Value    |
|--------------|----------|
| Entrypoint   | 0x03B1   |
| Data Size    | 14 bytes |
| Instructions | 2        |

```
      00 01 02 03 04 05 06 07  08 09 0A 0B 0C 0D 0E 0F
      -- -- -- -- -- -- -- --  -- -- -- -- -- -- -- --
03B0:    53 F8 FF FF 7F F8 FF  FF 7F 75 6B 6D 30 00      S........ukm0. 
```

#### Opcodes

```
  0: 0x03B1 [0x53] WAIT_SCHEDULER_TASK: Wait for scheduler "ukm0" with entities [EventEntity, EventEntity]
  1: 0x03BE [0x00] END_REQSTACK()
```

### Event 65535.47

#### Metadata

| Field        | Value    |
|--------------|----------|
| Entrypoint   | 0x03BF   |
| Data Size    | 16 bytes |
| Instructions | 2        |

```
      00 01 02 03 04 05 06 07  08 09 0A 0B 0C 0D 0E 0F
      -- -- -- -- -- -- -- --  -- -- -- -- -- -- -- --
03B0:                                               66                 f
03C0: 21 80 F8 FF FF 7F F8 FF  FF 7F 75 6B 6D 31 00     !.........ukm1. 
```

#### Opcodes

```
  0: 0x03BF [0x66] LOAD_EXT_SCHEDULER_MAIN: Load scheduler "ukm1" with entities [EventEntity, EventEntity], work=15*
  1: 0x03CE [0x00] END_REQSTACK()
```

### Event 65535.48

#### Metadata

| Field        | Value    |
|--------------|----------|
| Entrypoint   | 0x03CF   |
| Data Size    | 20 bytes |
| Instructions | 3        |

```
      00 01 02 03 04 05 06 07  08 09 0A 0B 0C 0D 0E 0F
      -- -- -- -- -- -- -- --  -- -- -- -- -- -- -- --
03C0:                                               53                 S
03D0: F8 FF FF 7F F8 FF FF 7F  75 6B 6D 31 81 01 F8 FF  ........ukm1....
03E0: FF 7F 00                                          ...             
```

#### Opcodes

```
  0: 0x03CF [0x53] WAIT_SCHEDULER_TASK: Wait for scheduler "ukm1" with entities [EventEntity, EventEntity]
  1: 0x03DC [0x81] SET_ENTITY_BLINKING(blink_flag=0x01, entity=EventEntity)
  2: 0x03E2 [0x00] END_REQSTACK()
```

### Event 65535.49

#### Metadata

| Field        | Value    |
|--------------|----------|
| Entrypoint   | 0x03E3   |
| Data Size    | 16 bytes |
| Instructions | 2        |

```
      00 01 02 03 04 05 06 07  08 09 0A 0B 0C 0D 0E 0F
      -- -- -- -- -- -- -- --  -- -- -- -- -- -- -- --
03E0:          66 20 80 F8 FF  FF 7F F8 FF FF 7F 00 FE     f ...........
03F0: FE FE 00                                          ...             
```

#### Opcodes

```
  0: 0x03E3 [0x66] LOAD_EXT_SCHEDULER_MAIN: Load scheduler 0xFEFEFE00 with entities [EventEntity, EventEntity], work=46*
  1: 0x03F2 [0x00] END_REQSTACK()
```

### Event 187

#### Metadata

| Field        | Value    |
|--------------|----------|
| Entrypoint   | 0x03F3   |
| Data Size    | 10 bytes |
| Instructions | 3        |

```
      00 01 02 03 04 05 06 07  08 09 0A 0B 0C 0D 0E 0F
      -- -- -- -- -- -- -- --  -- -- -- -- -- -- -- --
03F0:          92 01 F8 FF FF  7F 95 00 80 00              ..........   
```

#### Opcodes

```
  0: 0x03F3 [0x92] EventEntity->Render.Flags3 ^= 0x01
  1: 0x03F9 [0x95] SETUP_EVENT_NPC: Prepare NPC for event (Render.Flags3 = 0*)
  2: 0x03FC [0x00] END_REQSTACK()
```

### Event 65535.50

#### Metadata

| Field        | Value   |
|--------------|---------|
| Entrypoint   | 0x03FD  |
| Data Size    | 2 bytes |
| Instructions | 2       |

```
      00 01 02 03 04 05 06 07  08 09 0A 0B 0C 0D 0E 0F
      -- -- -- -- -- -- -- --  -- -- -- -- -- -- -- --
03F0:                                         96 00                  .. 
```

#### Opcodes

```
  0: 0x03FD [0x96] UNSET_EVENT_NPC: Restore NPC after event (removes event NPC status)
  1: 0x03FE [0x00] END_REQSTACK()
```

### Event 65535.51

#### Metadata

| Field        | Value    |
|--------------|----------|
| Entrypoint   | 0x03FF   |
| Data Size    | 15 bytes |
| Instructions | 5        |

```
      00 01 02 03 04 05 06 07  08 09 0A 0B 0C 0D 0E 0F
      -- -- -- -- -- -- -- --  -- -- -- -- -- -- -- --
03F0:                                               32                 2
0400: 13 80 1F 00 23 80 24 80  25 80 1F 01 6F 00        ....#.$.%...o.  
```

#### Opcodes

```
  0: 0x03FF [0x32] ExtData[1]->MainSpeed = 13* * 0.1
  1: 0x0402 [0x1F] MOVE_ENTITY: EventEntity moves to X=6.993*, Z=76.421*, Y=7.999*
  2: 0x040A [0x1F] MOVE_ENTITY: Update entity position (mode=1)
  3: 0x040C [0x6F] WAIT_FRAME_DELAY: Yield until WaitTime reaches zero
  4: 0x040D [0x00] END_REQSTACK()
```

### Event 65535.52

#### Metadata

| Field        | Value    |
|--------------|----------|
| Entrypoint   | 0x040E   |
| Data Size    | 15 bytes |
| Instructions | 5        |

```
      00 01 02 03 04 05 06 07  08 09 0A 0B 0C 0D 0E 0F
      -- -- -- -- -- -- -- --  -- -- -- -- -- -- -- --
0400:                                            32 13                2.
0410: 80 1F 00 26 80 27 80 25  80 1F 01 6F 00           ...&.'.%...o.   
```

#### Opcodes

```
  0: 0x040E [0x32] ExtData[1]->MainSpeed = 13* * 0.1
  1: 0x0411 [0x1F] MOVE_ENTITY: EventEntity moves to X=8.072*, Z=76.992*, Y=7.999*
  2: 0x0419 [0x1F] MOVE_ENTITY: Update entity position (mode=1)
  3: 0x041B [0x6F] WAIT_FRAME_DELAY: Yield until WaitTime reaches zero
  4: 0x041C [0x00] END_REQSTACK()
```

### Event 190

#### Metadata

| Field        | Value   |
|--------------|---------|
| Entrypoint   | 0x041D  |
| Data Size    | 7 bytes |
| Instructions | 2       |

```
      00 01 02 03 04 05 06 07  08 09 0A 0B 0C 0D 0E 0F
      -- -- -- -- -- -- -- --  -- -- -- -- -- -- -- --
0410:                                         92 01 F8               ...
0420: FF FF 7F 00                                       ....            
```

#### Opcodes

```
  0: 0x041D [0x92] EventEntity->Render.Flags3 ^= 0x01
  1: 0x0423 [0x00] END_REQSTACK()
```

### Event 65535.53

#### Metadata

| Field        | Value    |
|--------------|----------|
| Entrypoint   | 0x0424   |
| Data Size    | 15 bytes |
| Instructions | 5        |

```
      00 01 02 03 04 05 06 07  08 09 0A 0B 0C 0D 0E 0F
      -- -- -- -- -- -- -- --  -- -- -- -- -- -- -- --
0420:             32 13 80 1F  00 28 80 29 80 2A 80 1F      2....(.).*..
0430: 01 6F 00                                          .o.             
```

#### Opcodes

```
  0: 0x0424 [0x32] ExtData[1]->MainSpeed = 13* * 0.1
  1: 0x0427 [0x1F] MOVE_ENTITY: EventEntity moves to X=4.652*, Z=76.500*, Y=8.000*
  2: 0x042F [0x1F] MOVE_ENTITY: Update entity position (mode=1)
  3: 0x0431 [0x6F] WAIT_FRAME_DELAY: Yield until WaitTime reaches zero
  4: 0x0432 [0x00] END_REQSTACK()
```

### Event 65535.54

#### Metadata

| Field        | Value    |
|--------------|----------|
| Entrypoint   | 0x0433   |
| Data Size    | 44 bytes |
| Instructions | 4        |

```
      00 01 02 03 04 05 06 07  08 09 0A 0B 0C 0D 0E 0F
      -- -- -- -- -- -- -- --  -- -- -- -- -- -- -- --
0430:          66 21 80 F8 FF  FF 7F F8 FF FF 7F 75 6B     f!.........uk
0440: 6D 31 53 F8 FF FF 7F F8  FF FF 7F 75 6B 6D 31 66  m1S........ukm1f
0450: 21 80 F8 FF FF 7F F8 FF  FF 7F 73 74 64 30 00     !.........std0. 
```

#### Opcodes

```
  0: 0x0433 [0x66] LOAD_EXT_SCHEDULER_MAIN: Load scheduler "ukm1" with entities [EventEntity, EventEntity], work=15*
  1: 0x0442 [0x53] WAIT_SCHEDULER_TASK: Wait for scheduler "ukm1" with entities [EventEntity, EventEntity]
  2: 0x044F [0x66] LOAD_EXT_SCHEDULER_MAIN: Load scheduler "std0" with entities [EventEntity, EventEntity], work=15*
  3: 0x045E [0x00] END_REQSTACK()
```

### Event 65535.55

#### Metadata

| Field        | Value    |
|--------------|----------|
| Entrypoint   | 0x045F   |
| Data Size    | 29 bytes |
| Instructions | 4        |

```
      00 01 02 03 04 05 06 07  08 09 0A 0B 0C 0D 0E 0F
      -- -- -- -- -- -- -- --  -- -- -- -- -- -- -- --
0450:                                               B4                 .
0460: 00 00 00 55 72 61 6E 2D  4D 61 66 72 61 6E 00 00  ...Uran-Mafran..
0470: 00 00 00 B5 00 00 00 B6  0A 04 80 00              ............    
```

#### Opcodes

```
  0: 0x045F [0xB4] UI_WINDOW_STRING_HANDLER(case=0x00 - Copy string from opcode, work_offset=ExtData[1]->WorkLocal[0], string="Uran-Mafran")
  1: 0x0473 [0xB5] SET_EVENT_ENTITY_NAME: Change EventEntity name to ExtData[1]->WorkLocal[0]
  2: 0x0477 [0xB6] ENTITY_APPEARANCE_HANDLER(case=Ranged, value=19*)
  3: 0x047B [0x00] END_REQSTACK()
```

### Event 65535.56

#### Metadata

| Field        | Value    |
|--------------|----------|
| Entrypoint   | 0x047C   |
| Data Size    | 29 bytes |
| Instructions | 4        |

```
      00 01 02 03 04 05 06 07  08 09 0A 0B 0C 0D 0E 0F
      -- -- -- -- -- -- -- --  -- -- -- -- -- -- -- --
0470:                                      B4 00 00 00              ....
0480: 3F 3F 3F 00 00 00 00 00  00 00 00 00 00 00 00 00  ???.............
0490: B5 00 00 00 B6 0A 2B 80  00                       ......+..       
```

#### Opcodes

```
  0: 0x047C [0xB4] UI_WINDOW_STRING_HANDLER(case=0x00 - Copy string from opcode, work_offset=ExtData[1]->WorkLocal[0], string="???")
  1: 0x0490 [0xB5] SET_EVENT_ENTITY_NAME: Change EventEntity name to ExtData[1]->WorkLocal[0]
  2: 0x0494 [0xB6] ENTITY_APPEARANCE_HANDLER(case=Ranged, value=17*)
  3: 0x0498 [0x00] END_REQSTACK()
```
