# 17788983 - Leodarion

## Common Data

| Field            | Value           |
|------------------|-----------------|
| Zone             | Rabao (ID: 247) |
| Block Size       | 2672 bytes      |
| Total Events     | 13              |
| References Count | 82              |

## List of Events

| Event ID              | Entrypoint   |   Size |   Instructions |
|-----------------------|--------------|--------|----------------|
| [65535](#event-65535) | 0x0000       |      1 |              1 |
| [101](#event-101)     | 0x0001       |      1 |              1 |
| [89](#event-89)       | 0x0002       |     11 |              5 |
| [96](#event-96)       | 0x000D       |     11 |              5 |
| [90](#event-90)       | 0x0018       |    331 |             47 |
| [91](#event-91)       | 0x0163       |     11 |              5 |
| [92](#event-92)       | 0x016E       |     17 |              7 |
| [93](#event-93)       | 0x017F       |     11 |              5 |
| [94](#event-94)       | 0x018A       |    173 |             25 |
| [95](#event-95)       | 0x0237       |     11 |              5 |
| [97](#event-97)       | 0x0242       |   1366 |            183 |
| [98](#event-98)       | 0x0798       |     40 |             10 |
| [99](#event-99)       | 0x07C0       |    289 |             31 |

## DAT References (imed_data)

|   Index | Hex Value   |   Dec Value |
|---------|-------------|-------------|
|       0 | 0x2815      |       10261 |
|       1 | 0x2827      |       10279 |
|       2 | 0x01CC      |         460 |
|       3 | 0x42CA      |       17098 |
|       4 | 0x00C8      |         200 |
|       5 | 0x0000      |           0 |
|       6 | 0x0003      |           3 |
|       7 | 0x00DB      |         219 |
|       8 | 0x2816      |       10262 |
|       9 | 0x0014      |          20 |
|      10 | 0x2817      |       10263 |
|      11 | 0x2818      |       10264 |
|      12 | 0x2819      |       10265 |
|      13 | 0x281A      |       10266 |
|      14 | 0x281B      |       10267 |
|      15 | 0x281C      |       10268 |
|      16 | 0x281D      |       10269 |
|      17 | 0x281E      |       10270 |
|      18 | 0x281F      |       10271 |
|      19 | 0x2820      |       10272 |
|      20 | 0x2821      |       10273 |
|      21 | 0x2822      |       10274 |
|      22 | 0x01D1      |         465 |
|      23 | 0x2823      |       10275 |
|      24 | 0x2824      |       10276 |
|      25 | 0x2825      |       10277 |
|      26 | 0x2826      |       10278 |
|      27 | 0x01D6      |         470 |
|      28 | 0x01D7      |         471 |
|      29 | 0x2828      |       10280 |
|      30 | 0x2829      |       10281 |
|      31 | 0x001E      |          30 |
|      32 | 0x282A      |       10282 |
|      33 | 0x00B4      |         180 |
|      34 | 0x282B      |       10283 |
|      35 | 0x282C      |       10284 |
|      36 | 0x282D      |       10285 |
|      37 | 0x282E      |       10286 |
|      38 | 0x282F      |       10287 |
|      39 | 0x2830      |       10288 |
|      40 | 0x2831      |       10289 |
|      41 | 0x2832      |       10290 |
|      42 | 0x2833      |       10291 |
|      43 | 0x2834      |       10292 |
|      44 | 0x2835      |       10293 |
|      45 | 0x0002      |           2 |
|      46 | 0x2836      |       10294 |
|      47 | 0x009A      |         154 |
|      48 | 0x2837      |       10295 |
|      49 | 0x2838      |       10296 |
|      50 | 0x000B      |          11 |
|      51 | 0x2839      |       10297 |
|      52 | 0x283A      |       10298 |
|      53 | 0x283B      |       10299 |
|      54 | 0x283C      |       10300 |
|      55 | 0x283D      |       10301 |
|      56 | 0x283E      |       10302 |
|      57 | 0x283F      |       10303 |
|      58 | 0x000A      |          10 |
|      59 | 0x2840      |       10304 |
|      60 | 0x2841      |       10305 |
|      61 | 0x2842      |       10306 |
|      62 | 0x2843      |       10307 |
|      63 | 0x2844      |       10308 |
|      64 | 0x2845      |       10309 |
|      65 | 0x04CA      |        1226 |
|      66 | 0x2846      |       10310 |
|      67 | 0x2847      |       10311 |
|      68 | 0x2848      |       10312 |
|      69 | 0x2849      |       10313 |
|      70 | 0x284A      |       10314 |
|      71 | 0x284B      |       10315 |
|      72 | 0x0078      |         120 |
|      73 | 0x003C      |          60 |
|      74 | 0x284C      |       10316 |
|      75 | 0x00D0      |         208 |
|      76 | 0x284D      |       10317 |
|      77 | 0x284E      |       10318 |
|      78 | 0x284F      |       10319 |
|      79 | 0x2850      |       10320 |
|      80 | 0x2851      |       10321 |
|      81 | 0x00C9      |         201 |

## String References

- **10261**: A wonderful place, this Rabao. Away from the bustle of the modern world, one can sit back and relax. Now this is true freedom.
- **10262**: You are the ninja that found the $3, am I right? So, your journey has finally brought you here...
- **10263**: My name is Leodarion, grandson of Mitsunari the Poisonclaw. Oh, he was not my real grandfather. He found me lying beneath a cactus when I was still a baby, and took me in.
- **10264**: I see that you were able to get by my little spider trap...
- **10265**: Hey, don't go getting all upset, now. You're still alive, aren't you? If it was one of my grandfather's, though, you would've ended up like that Yomi.
- **10266**: That trap was what he left to the world before he passed away. That trap and his treasure...
- **10267**: What a way to go out! Now I'm studying his journal, trying to become as skilled as he was.
- **10268**: The other day, while looking through that journal, I found an even greater trap. A trap that calls forth the spirit of the dead.
- **10269**: I think that my grandfather left me these clues to try to tell me something, but I'm not sure that I can do this by myself.
- **10270**: You're working for Norg, right? Why don't you lend me a hand? Don't worry. I'll pay you nicely.
- **10271**: To call forth the spirit in my grandfather's trap, the diary says I need $6. If you're interested in my offer, I'll be waiting here for you.
- **10272**: To call forth the spirit in my grandfather's trap, the diary says I need $6. If you're interested in my offer, I'll be waiting here for you.
- **10273**: Oh, this is the $6 that my grandfather talked about in his journal. Now I can complete the trap! Come back tomorrow, and I'll show you the result.
- **10274**: Now I can complete my grandfather's trap! Come back tomorrow, and I'll show you the result.
- **10275**: Here it is, $6. With this, I can finally call forth the spirit and complete my grandfather's work.
- **10276**: According to my grandfather's journal, if you "carry the seance staff with you while traveling at night from east to west over the Bastore Sea, you will most certainly face your greatest fears..."
- **10277**: Here, you take this and see if it works. What? Do you think a guy like me could handle any evil spirits?
- **10278**: I bet that the spirit is carrying some great treasure that my grandfather left behind...
- **10279**: I just don't understand... What did my grandfather mean by "leaving me his memories"?
- **10280**: What? You've found $6 of my grandfather's?
- **10281**: Really? May I see it!?
- **10282**: Putting this here like this... And fastening this like this... I would have never thought...
- **10284**: Who are you?
- **10288**: There. It's open.
- **10290**: It's empty... There is nothing inside.
- **10292**: Look for yourself. You won't find any treasure inside, because the box itself is the real treasure. Only a true master could craft such a fine work of art...
- **10293**: Yes, it might have been easy to open, but I do not know if I will ever be able to copy what my grandfather has done.
- **10303**: Wait... You're Yomi's daughter, aren't you? Yes, I finally think I know what my grandfather was trying to say in his will...
- **10307**: I see. As much as we try to follow in someone's footsteps, there are places that we will never reach. That is why we must concentrate on finding our own paths.
- **10313**: Wait! I think this box may hold a hint into opening my grandfather's $3. I used to try when I was a child, but I never could.
- **10314**: Maybe there is a treasure in there...
- **10316**: Wow...
- **10317**: Anyway. I'm grateful for all you've done for me. That's why I'm going to let you in on my secret.
- **10318**: Long ago, my grandfather hid his $3 inside a treasure chest deep within the Kuftal Tunnel. After looking at this $3, I think I can open it now.
- **10319**: If you bring it to me, I'll give you whatever's inside. What do you say?
- **10320**: You've brought back the $3! Here, let me see if I can open it.
- **10321**: Yes. I knew I could do it! Here, take what was inside. My grandfather would have wanted you to have it.

## Events

### Event 65535

#### Metadata

| Field        | Value   |
|--------------|---------|
| Entrypoint   | 0x0000  |
| Data Size    | 1 bytes |
| Instructions | 1       |

```
      00 01 02 03 04 05 06 07  08 09 0A 0B 0C 0D 0E 0F
      -- -- -- -- -- -- -- --  -- -- -- -- -- -- -- --
0000: 00                                                .               
```

#### Opcodes

```
  0: 0x0000 [0x00] END_REQSTACK()
```

### Event 101

#### Metadata

| Field        | Value   |
|--------------|---------|
| Entrypoint   | 0x0001  |
| Data Size    | 1 bytes |
| Instructions | 1       |

```
      00 01 02 03 04 05 06 07  08 09 0A 0B 0C 0D 0E 0F
      -- -- -- -- -- -- -- --  -- -- -- -- -- -- -- --
0000:    00                                              .              
```

#### Opcodes

```
  0: 0x0001 [0x00] END_REQSTACK()
```

### Event 89

#### Metadata

| Field        | Value    |
|--------------|----------|
| Entrypoint   | 0x0002   |
| Data Size    | 11 bytes |
| Instructions | 5        |

```
      00 01 02 03 04 05 06 07  08 09 0A 0B 0C 0D 0E 0F
      -- -- -- -- -- -- -- --  -- -- -- -- -- -- -- --
0000:       1E F0 FF FF 7F 1D  00 80 23 21 00             ........#!.   
```

#### Opcodes

```
  0: 0x0002 [0x1E] EventEntity looks at LocalPlayer and starts talking
  1: 0x0007 [0x1D] PRINT_EVENT_MESSAGE(message_id=10261*)
    → "A wonderful place, this Rabao. Away from the bustle of the modern world, one can sit back and relax. Now this is true freedom."
  2: 0x000A [0x23] WAIT_FOR_DIALOG_INTERACTION
  3: 0x000B [0x21] END_EVENT
  4: 0x000C [0x00] END_REQSTACK()
```

### Event 96

#### Metadata

| Field        | Value    |
|--------------|----------|
| Entrypoint   | 0x000D   |
| Data Size    | 11 bytes |
| Instructions | 5        |

```
      00 01 02 03 04 05 06 07  08 09 0A 0B 0C 0D 0E 0F
      -- -- -- -- -- -- -- --  -- -- -- -- -- -- -- --
0000:                                         1E F0 FF               ...
0010: FF 7F 1D 01 80 23 21 00                           .....#!.        
```

#### Opcodes

```
  0: 0x000D [0x1E] EventEntity looks at LocalPlayer and starts talking
  1: 0x0012 [0x1D] PRINT_EVENT_MESSAGE(message_id=10279*)
    → "I just don't understand... What did my grandfather mean by "leaving me his memories"?"
  2: 0x0015 [0x23] WAIT_FOR_DIALOG_INTERACTION
  3: 0x0016 [0x21] END_EVENT
  4: 0x0017 [0x00] END_REQSTACK()
```

### Event 90

#### Metadata

| Field        | Value     |
|--------------|-----------|
| Entrypoint   | 0x0018    |
| Data Size    | 331 bytes |
| Instructions | 47        |

```
      00 01 02 03 04 05 06 07  08 09 0A 0B 0C 0D 0E 0F
      -- -- -- -- -- -- -- --  -- -- -- -- -- -- -- --
0010:                          03 09 10 02 80 03 08 10          ........
0020: 03 80 42 45 04 80 F0 FF  FF 7F F0 FF FF 7F 66 64  ..BE..........fd
0030: 6F 30 05 80 55 04 80 F0  FF FF 7F F0 FF FF 7F 66  o0..U..........f
0040: 64 6F 30 38 06 80 29 0A  F0 FF FF 7F 06 46 01 45  do08..)......F.E
0050: 07 80 F0 FF FF 7F F0 FF  FF 7F 73 30 31 34 05 80  ..........s014..
0060: 45 04 80 F0 FF FF 7F F0  FF FF 7F 66 64 69 30 05  E..........fdi0.
0070: 80 1E F0 FF FF 7F 1D 08  80 23 66 09 80 F8 FF FF  .........#f.....
0080: 7F F8 FF FF 7F 74 6C 6B  30 1D 0A 80 23 1D 0B 80  .....tlk0...#...
0090: 23 5E 69 64 6C 30 1D 0C  80 23 52 07 80 F0 FF FF  #^idl0...#R.....
00A0: 7F F0 FF FF 7F 73 30 31  34 45 07 80 F0 FF FF 7F  .....s014E......
00B0: F0 FF FF 7F 73 30 31 35  05 80 1D 0D 80 23 66 09  ....s015.....#f.
00C0: 80 F8 FF FF 7F F8 FF FF  7F 74 68 6B 31 1D 0E 80  .........thk1...
00D0: 23 1D 0F 80 23 66 09 80  F8 FF FF 7F F8 FF FF 7F  #...#f..........
00E0: 74 68 6B 32 1D 10 80 23  52 07 80 F0 FF FF 7F F0  thk2...#R.......
00F0: FF FF 7F 73 30 31 35 45  07 80 F0 FF FF 7F F0 FF  ...s015E........
0100: FF 7F 73 30 31 36 05 80  66 09 80 F8 FF FF 7F F8  ..s016..f.......
0110: FF FF 7F 74 6C 6B 30 1D  11 80 23 1D 12 80 23 45  ...tlk0...#...#E
0120: 04 80 F0 FF FF 7F F0 FF  FF 7F 66 64 6F 31 05 80  ..........fdo1..
0130: 55 04 80 F0 FF FF 7F F0  FF FF 7F 66 64 6F 31 52  U..........fdo1R
0140: 07 80 F0 FF FF 7F F0 FF  FF 7F 73 30 31 36 46 00  ..........s016F.
0150: 45 04 80 F0 FF FF 7F F0  FF FF 7F 66 64 69 31 05  E..........fdi1.
0160: 80 21 00                                          .!.             
```

#### Opcodes

```
  0: 0x0018 [0x03] Work_Zone[9] = 460*
  1: 0x001D [0x03] Work_Zone[8] = 17098*
  2: 0x0022 [0x42] SET_CLI_EVENT_CANCEL_DATA()
  3: 0x0023 [0x45] LOAD_SCHEDULED_TASK: Load scheduler "fdo0" with entities [LocalPlayer, LocalPlayer], work=[200*, 0*]
  4: 0x0034 [0x55] WAIT_LOAD_SCHEDULER: Wait for scheduler "fdo0" with entities [LocalPlayer, LocalPlayer], work=200*
  5: 0x0043 [0x38] SET_CLIENT_EVENT_MODE(mode=3*)
  6: 0x0046 [0x29] REQ_SET_WAIT(priority=0x0A, entity_id=LocalPlayer, tag_num=0x06)
  7: 0x004D [0x46] CAMERA_CONTROL: Disable user control
  8: 0x004F [0x45] LOAD_SCHEDULED_TASK: Load scheduler "s014" with entities [LocalPlayer, LocalPlayer], work=[219*, 0*]
  9: 0x0060 [0x45] LOAD_SCHEDULED_TASK: Load scheduler "fdi0" with entities [LocalPlayer, LocalPlayer], work=[200*, 0*]
 10: 0x0071 [0x1E] EventEntity looks at LocalPlayer and starts talking
 11: 0x0076 [0x1D] PRINT_EVENT_MESSAGE(message_id=10262*)
    → "You are the ninja that found the $3, am I right? So, your journey has finally brought you here..."
 12: 0x0079 [0x23] WAIT_FOR_DIALOG_INTERACTION
 13: 0x007A [0x66] LOAD_EXT_SCHEDULER_MAIN: Load scheduler "tlk0" with entities [EventEntity, EventEntity], work=20*
 14: 0x0089 [0x1D] PRINT_EVENT_MESSAGE(message_id=10263*)
    → "My name is Leodarion, grandson of Mitsunari the Poisonclaw. Oh, he was not my real grandfather. He found me lying beneath a cactus when I was still a baby, and took me in."
 15: 0x008C [0x23] WAIT_FOR_DIALOG_INTERACTION
 16: 0x008D [0x1D] PRINT_EVENT_MESSAGE(message_id=10264*)
    → "I see that you were able to get by my little spider trap..."
 17: 0x0090 [0x23] WAIT_FOR_DIALOG_INTERACTION
 18: 0x0091 [0x5E] EventEntity goes idle (kills current action) (animation: "idl0")
 19: 0x0096 [0x1D] PRINT_EVENT_MESSAGE(message_id=10265*)
    → "Hey, don't go getting all upset, now. You're still alive, aren't you? If it was one of my grandfather's, though, you would've ended up like that Yomi."
 20: 0x0099 [0x23] WAIT_FOR_DIALOG_INTERACTION
 21: 0x009A [0x52] END_LOAD_SCHEDULER: End scheduler "s014" with entities [LocalPlayer, LocalPlayer], work=219*
 22: 0x00A9 [0x45] LOAD_SCHEDULED_TASK: Load scheduler "s015" with entities [LocalPlayer, LocalPlayer], work=[219*, 0*]
 23: 0x00BA [0x1D] PRINT_EVENT_MESSAGE(message_id=10266*)
    → "That trap was what he left to the world before he passed away. That trap and his treasure..."
 24: 0x00BD [0x23] WAIT_FOR_DIALOG_INTERACTION
 25: 0x00BE [0x66] LOAD_EXT_SCHEDULER_MAIN: Load scheduler "thk1" with entities [EventEntity, EventEntity], work=20*
 26: 0x00CD [0x1D] PRINT_EVENT_MESSAGE(message_id=10267*)
    → "What a way to go out! Now I'm studying his journal, trying to become as skilled as he was."
 27: 0x00D0 [0x23] WAIT_FOR_DIALOG_INTERACTION
 28: 0x00D1 [0x1D] PRINT_EVENT_MESSAGE(message_id=10268*)
    → "The other day, while looking through that journal, I found an even greater trap. A trap that calls forth the spirit of the dead."
 29: 0x00D4 [0x23] WAIT_FOR_DIALOG_INTERACTION
 30: 0x00D5 [0x66] LOAD_EXT_SCHEDULER_MAIN: Load scheduler "thk2" with entities [EventEntity, EventEntity], work=20*
 31: 0x00E4 [0x1D] PRINT_EVENT_MESSAGE(message_id=10269*)
    → "I think that my grandfather left me these clues to try to tell me something, but I'm not sure that I can do this by myself."
 32: 0x00E7 [0x23] WAIT_FOR_DIALOG_INTERACTION
 33: 0x00E8 [0x52] END_LOAD_SCHEDULER: End scheduler "s015" with entities [LocalPlayer, LocalPlayer], work=219*
 34: 0x00F7 [0x45] LOAD_SCHEDULED_TASK: Load scheduler "s016" with entities [LocalPlayer, LocalPlayer], work=[219*, 0*]
 35: 0x0108 [0x66] LOAD_EXT_SCHEDULER_MAIN: Load scheduler "tlk0" with entities [EventEntity, EventEntity], work=20*
 36: 0x0117 [0x1D] PRINT_EVENT_MESSAGE(message_id=10270*)
    → "You're working for Norg, right? Why don't you lend me a hand? Don't worry. I'll pay you nicely."
 37: 0x011A [0x23] WAIT_FOR_DIALOG_INTERACTION
 38: 0x011B [0x1D] PRINT_EVENT_MESSAGE(message_id=10271*)
    → "To call forth the spirit in my grandfather's trap, the diary says I need $6. If you're interested in my offer, I'll be waiting here for you."
 39: 0x011E [0x23] WAIT_FOR_DIALOG_INTERACTION
 40: 0x011F [0x45] LOAD_SCHEDULED_TASK: Load scheduler "fdo1" with entities [LocalPlayer, LocalPlayer], work=[200*, 0*]
 41: 0x0130 [0x55] WAIT_LOAD_SCHEDULER: Wait for scheduler "fdo1" with entities [LocalPlayer, LocalPlayer], work=200*
 42: 0x013F [0x52] END_LOAD_SCHEDULER: End scheduler "s016" with entities [LocalPlayer, LocalPlayer], work=219*
 43: 0x014E [0x46] CAMERA_CONTROL: Restore default settings
 44: 0x0150 [0x45] LOAD_SCHEDULED_TASK: Load scheduler "fdi1" with entities [LocalPlayer, LocalPlayer], work=[200*, 0*]
 45: 0x0161 [0x21] END_EVENT
 46: 0x0162 [0x00] END_REQSTACK()
```

### Event 91

#### Metadata

| Field        | Value    |
|--------------|----------|
| Entrypoint   | 0x0163   |
| Data Size    | 11 bytes |
| Instructions | 5        |

```
      00 01 02 03 04 05 06 07  08 09 0A 0B 0C 0D 0E 0F
      -- -- -- -- -- -- -- --  -- -- -- -- -- -- -- --
0160:          03 08 10 03 80  1D 13 80 23 21 00           ........#!.  
```

#### Opcodes

```
  0: 0x0163 [0x03] Work_Zone[8] = 17098*
  1: 0x0168 [0x1D] PRINT_EVENT_MESSAGE(message_id=10272*)
    → "To call forth the spirit in my grandfather's trap, the diary says I need $6. If you're interested in my offer, I'll be waiting here for you."
  2: 0x016B [0x23] WAIT_FOR_DIALOG_INTERACTION
  3: 0x016C [0x21] END_EVENT
  4: 0x016D [0x00] END_REQSTACK()
```

### Event 92

#### Metadata

| Field        | Value    |
|--------------|----------|
| Entrypoint   | 0x016E   |
| Data Size    | 17 bytes |
| Instructions | 7        |

```
      00 01 02 03 04 05 06 07  08 09 0A 0B 0C 0D 0E 0F
      -- -- -- -- -- -- -- --  -- -- -- -- -- -- -- --
0160:                                            42 03                B.
0170: 08 10 03 80 1E F0 FF FF  7F 1D 14 80 23 21 00     ............#!. 
```

#### Opcodes

```
  0: 0x016E [0x42] SET_CLI_EVENT_CANCEL_DATA()
  1: 0x016F [0x03] Work_Zone[8] = 17098*
  2: 0x0174 [0x1E] EventEntity looks at LocalPlayer and starts talking
  3: 0x0179 [0x1D] PRINT_EVENT_MESSAGE(message_id=10273*)
    → "Oh, this is the $6 that my grandfather talked about in his journal. Now I can complete the trap! Come back tomorrow, and I'll show you the result."
  4: 0x017C [0x23] WAIT_FOR_DIALOG_INTERACTION
  5: 0x017D [0x21] END_EVENT
  6: 0x017E [0x00] END_REQSTACK()
```

### Event 93

#### Metadata

| Field        | Value    |
|--------------|----------|
| Entrypoint   | 0x017F   |
| Data Size    | 11 bytes |
| Instructions | 5        |

```
      00 01 02 03 04 05 06 07  08 09 0A 0B 0C 0D 0E 0F
      -- -- -- -- -- -- -- --  -- -- -- -- -- -- -- --
0170:                                               1E                 .
0180: F0 FF FF 7F 1D 15 80 23  21 00                    .......#!.      
```

#### Opcodes

```
  0: 0x017F [0x1E] EventEntity looks at LocalPlayer and starts talking
  1: 0x0184 [0x1D] PRINT_EVENT_MESSAGE(message_id=10274*)
    → "Now I can complete my grandfather's trap! Come back tomorrow, and I'll show you the result."
  2: 0x0187 [0x23] WAIT_FOR_DIALOG_INTERACTION
  3: 0x0188 [0x21] END_EVENT
  4: 0x0189 [0x00] END_REQSTACK()
```

### Event 94

#### Metadata

| Field        | Value     |
|--------------|-----------|
| Entrypoint   | 0x018A    |
| Data Size    | 173 bytes |
| Instructions | 25        |

```
      00 01 02 03 04 05 06 07  08 09 0A 0B 0C 0D 0E 0F
      -- -- -- -- -- -- -- --  -- -- -- -- -- -- -- --
0180:                                42 45 04 80 F0 FF            BE....
0190: FF 7F F0 FF FF 7F 66 64  6F 30 05 80 55 04 80 F0  ......fdo0..U...
01A0: FF FF 7F F0 FF FF 7F 66  64 6F 30 38 06 80 29 0A  .......fdo08..).
01B0: F0 FF FF 7F 06 46 01 45  07 80 F0 FF FF 7F F0 FF  .....F.E........
01C0: FF 7F 73 30 31 37 05 80  45 04 80 F0 FF FF 7F F0  ..s017..E.......
01D0: FF FF 7F 66 64 69 30 05  80 1E F0 FF FF 7F 03 09  ...fdi0.........
01E0: 10 16 80 1D 17 80 23 1D  18 80 23 66 09 80 F8 FF  ......#...#f....
01F0: FF 7F F8 FF FF 7F 70 61  73 30 1D 19 80 23 1D 1A  ......pas0...#..
0200: 80 23 45 04 80 F0 FF FF  7F F0 FF FF 7F 66 64 6F  .#E..........fdo
0210: 31 05 80 55 04 80 F0 FF  FF 7F F0 FF FF 7F 66 64  1..U..........fd
0220: 6F 31 46 00 45 04 80 F0  FF FF 7F F0 FF FF 7F 66  o1F.E..........f
0230: 64 69 31 05 80 21 00                              di1..!.         
```

#### Opcodes

```
  0: 0x018A [0x42] SET_CLI_EVENT_CANCEL_DATA()
  1: 0x018B [0x45] LOAD_SCHEDULED_TASK: Load scheduler "fdo0" with entities [LocalPlayer, LocalPlayer], work=[200*, 0*]
  2: 0x019C [0x55] WAIT_LOAD_SCHEDULER: Wait for scheduler "fdo0" with entities [LocalPlayer, LocalPlayer], work=200*
  3: 0x01AB [0x38] SET_CLIENT_EVENT_MODE(mode=3*)
  4: 0x01AE [0x29] REQ_SET_WAIT(priority=0x0A, entity_id=LocalPlayer, tag_num=0x06)
  5: 0x01B5 [0x46] CAMERA_CONTROL: Disable user control
  6: 0x01B7 [0x45] LOAD_SCHEDULED_TASK: Load scheduler "s017" with entities [LocalPlayer, LocalPlayer], work=[219*, 0*]
  7: 0x01C8 [0x45] LOAD_SCHEDULED_TASK: Load scheduler "fdi0" with entities [LocalPlayer, LocalPlayer], work=[200*, 0*]
  8: 0x01D9 [0x1E] EventEntity looks at LocalPlayer and starts talking
  9: 0x01DE [0x03] Work_Zone[9] = 465*
 10: 0x01E3 [0x1D] PRINT_EVENT_MESSAGE(message_id=10275*)
    → "Here it is, $6. With this, I can finally call forth the spirit and complete my grandfather's work."
 11: 0x01E6 [0x23] WAIT_FOR_DIALOG_INTERACTION
 12: 0x01E7 [0x1D] PRINT_EVENT_MESSAGE(message_id=10276*)
    → "According to my grandfather's journal, if you "carry the seance staff with you while traveling at night from east to west over the Bastore Sea, you will most certainly face your greatest fears...""
 13: 0x01EA [0x23] WAIT_FOR_DIALOG_INTERACTION
 14: 0x01EB [0x66] LOAD_EXT_SCHEDULER_MAIN: Load scheduler "pas0" with entities [EventEntity, EventEntity], work=20*
 15: 0x01FA [0x1D] PRINT_EVENT_MESSAGE(message_id=10277*)
    → "Here, you take this and see if it works. What? Do you think a guy like me could handle any evil spirits?"
 16: 0x01FD [0x23] WAIT_FOR_DIALOG_INTERACTION
 17: 0x01FE [0x1D] PRINT_EVENT_MESSAGE(message_id=10278*)
    → "I bet that the spirit is carrying some great treasure that my grandfather left behind..."
 18: 0x0201 [0x23] WAIT_FOR_DIALOG_INTERACTION
 19: 0x0202 [0x45] LOAD_SCHEDULED_TASK: Load scheduler "fdo1" with entities [LocalPlayer, LocalPlayer], work=[200*, 0*]
 20: 0x0213 [0x55] WAIT_LOAD_SCHEDULER: Wait for scheduler "fdo1" with entities [LocalPlayer, LocalPlayer], work=200*
 21: 0x0222 [0x46] CAMERA_CONTROL: Restore default settings
 22: 0x0224 [0x45] LOAD_SCHEDULED_TASK: Load scheduler "fdi1" with entities [LocalPlayer, LocalPlayer], work=[200*, 0*]
 23: 0x0235 [0x21] END_EVENT
 24: 0x0236 [0x00] END_REQSTACK()
```

### Event 95

#### Metadata

| Field        | Value    |
|--------------|----------|
| Entrypoint   | 0x0237   |
| Data Size    | 11 bytes |
| Instructions | 5        |

```
      00 01 02 03 04 05 06 07  08 09 0A 0B 0C 0D 0E 0F
      -- -- -- -- -- -- -- --  -- -- -- -- -- -- -- --
0230:                      1E  F0 FF FF 7F 1D 18 80 23         ........#
0240: 21 00                                             !.              
```

#### Opcodes

```
  0: 0x0237 [0x1E] EventEntity looks at LocalPlayer and starts talking
  1: 0x023C [0x1D] PRINT_EVENT_MESSAGE(message_id=10276*)
    → "According to my grandfather's journal, if you "carry the seance staff with you while traveling at night from east to west over the Bastore Sea, you will most certainly face your greatest fears...""
  2: 0x023F [0x23] WAIT_FOR_DIALOG_INTERACTION
  3: 0x0240 [0x21] END_EVENT
  4: 0x0241 [0x00] END_REQSTACK()
```

### Event 97

#### Metadata

| Field        | Value      |
|--------------|------------|
| Entrypoint   | 0x0242     |
| Data Size    | 1366 bytes |
| Instructions | 183        |

```
      00 01 02 03 04 05 06 07  08 09 0A 0B 0C 0D 0E 0F
      -- -- -- -- -- -- -- --  -- -- -- -- -- -- -- --
0240:       03 09 10 1B 80 03  08 10 1C 80 42 45 04 80    ..........BE..
0250: F0 FF FF 7F F0 FF FF 7F  66 64 6F 30 05 80 55 04  ........fdo0..U.
0260: 80 F0 FF FF 7F F0 FF FF  7F 66 64 6F 30 38 06 80  .........fdo08..
0270: 29 0A F0 FF FF 7F 07 46  01 45 07 80 F0 FF FF 7F  )......F.E......
0280: F0 FF FF 7F 73 30 31 38  05 80 45 04 80 F0 FF FF  ....s018..E.....
0290: 7F F0 FF FF 7F 66 64 69  30 05 80 1E F0 FF FF 7F  .....fdi0.......
02A0: 1D 1D 80 23 66 09 80 F8  FF FF 7F F8 FF FF 7F 74  ...#f..........t
02B0: 6C 6B 30 1D 1E 80 23 45  04 80 F0 FF FF 7F F0 FF  lk0...#E........
02C0: FF 7F 66 64 6F 31 05 80  55 04 80 F0 FF FF 7F F0  ..fdo1..U.......
02D0: FF FF 7F 66 64 6F 31 66  09 80 F8 FF FF 7F F8 FF  ...fdo1f........
02E0: FF 7F 74 68 6B 31 1C 1F  80 45 07 80 F0 FF FF 7F  ..thk1...E......
02F0: F0 FF FF 7F 73 30 31 39  05 80 45 04 80 F0 FF FF  ....s019..E.....
0300: 7F F0 FF FF 7F 66 64 69  30 05 80 1D 20 80 23 5D  .....fdi0... .#]
0310: 05 80 21 80 27 0A 3A 70  0F 01 03 2B 3A 70 0F 01  ..!.'.:p...+:p..
0320: 22 80 23 79 00 37 70 0F  01 3A 70 0F 01 66 09 80  ".#y.7p..:p..f..
0330: F8 FF FF 7F F8 FF FF 7F  74 68 6B 32 1D 23 80 23  ........thk2.#.#
0340: 52 07 80 F0 FF FF 7F F0  FF FF 7F 73 30 31 39 45  R..........s019E
0350: 07 80 F0 FF FF 7F F0 FF  FF 7F 73 30 32 30 05 80  ..........s020..
0360: 2A 0A 3A 70 0F 01 66 05  80 3A 70 0F 01 3A 70 0F  *.:p..f..:p..:p.
0370: 01 74 6C 6B 30 2B 3A 70  0F 01 24 80 23 66 05 80  .tlk0+:p..$.#f..
0380: 3A 70 0F 01 3A 70 0F 01  74 65 6E 30 2B 3A 70 0F  :p..:p..ten0+:p.
0390: 01 25 80 23 66 05 80 3A  70 0F 01 3A 70 0F 01 74  .%.#f..:p..:p..t
03A0: 68 6B 31 2B 3A 70 0F 01  26 80 23 4A 37 70 0F 01  hk1+:p..&.#J7p..
03B0: 3A 70 0F 01 1D 27 80 23  66 05 80 3A 70 0F 01 3A  :p...'.#f..:p..:
03C0: 70 0F 01 74 68 6B 32 2B  3A 70 0F 01 28 80 23 52  p..thk2+:p..(.#R
03D0: 07 80 F0 FF FF 7F F0 FF  FF 7F 73 30 32 30 45 07  ..........s020E.
03E0: 80 F0 FF FF 7F F0 FF FF  7F 73 30 32 31 05 80 66  .........s021..f
03F0: 09 80 F8 FF FF 7F F8 FF  FF 7F 70 61 73 30 1D 29  ..........pas0.)
0400: 80 23 66 05 80 3A 70 0F  01 3A 70 0F 01 74 6C 6B  .#f..:p..:p..tlk
0410: 30 2B 3A 70 0F 01 2A 80  23 66 05 80 3A 70 0F 01  0+:p..*.#f..:p..
0420: 3A 70 0F 01 74 65 6E 30  53 F8 FF FF 7F F8 FF FF  :p..ten0S.......
0430: 7F 70 61 73 30 66 09 80  F8 FF FF 7F F8 FF FF 7F  .pas0f..........
0440: 74 6C 6B 30 1D 2B 80 23  5E 69 64 6C 30 1D 2C 80  tlk0.+.#^idl0.,.
0450: 23 52 07 80 F0 FF FF 7F  F0 FF FF 7F 73 30 32 31  #R..........s021
0460: 45 07 80 F0 FF FF 7F F0  FF FF 7F 73 30 32 32 05  E..........s022.
0470: 80 66 2D 80 3A 70 0F 01  3A 70 0F 01 74 6C 64 30  .f-.:p..:p..tld0
0480: 2B 3A 70 0F 01 2E 80 23  66 2D 80 3A 70 0F 01 3A  +:p....#f-.:p..:
0490: 70 0F 01 74 6C 64 31 5C  00 2F 80 5C 01 2F 80 27  p..tld1\./.\./.'
04A0: 0A 39 70 0F 01 03 2B 39  70 0F 01 30 80 23 79 00  .9p...+9p..0.#y.
04B0: 3A 70 0F 01 39 70 0F 01  2B 3A 70 0F 01 31 80 23  :p..9p..+:p..1.#
04C0: 4A 39 70 0F 01 3A 70 0F  01 6F 76 39 70 0F 01 79  J9p..:p..ov9p..y
04D0: 00 37 70 0F 01 39 70 0F  01 52 07 80 F0 FF FF 7F  .7p..9p..R......
04E0: F0 FF FF 7F 73 30 32 32  45 07 80 F0 FF FF 7F F0  ....s022E.......
04F0: FF FF 7F 73 30 32 33 05  80 2A 0A 39 70 0F 01 66  ...s023..*.9p..f
0500: 32 80 39 70 0F 01 39 70  0F 01 62 6B 65 30 2B 39  2.9p..9p..bke0+9
0510: 70 0F 01 33 80 23 2B 39  70 0F 01 34 80 23 52 07  p..3.#+9p..4.#R.
0520: 80 F0 FF FF 7F F0 FF FF  7F 73 30 32 33 45 07 80  .........s023E..
0530: F0 FF FF 7F F0 FF FF 7F  73 30 32 34 05 80 4A 3A  ........s024..J:
0540: 70 0F 01 39 70 0F 01 2B  3A 70 0F 01 35 80 23 6B  p..9p..+:p..5.#k
0550: 69 64 31 30 39 70 0F 01  2B 39 70 0F 01 36 80 23  id109p..+9p..6.#
0560: 66 05 80 3A 70 0F 01 3A  70 0F 01 64 69 73 30 2B  f..:p..:p..dis0+
0570: 3A 70 0F 01 37 80 23 52  07 80 F0 FF FF 7F F0 FF  :p..7.#R........
0580: FF 7F 73 30 32 34 45 07  80 F0 FF FF 7F F0 FF FF  ..s024E.........
0590: 7F 73 30 32 35 05 80 6B  69 64 6C 30 39 70 0F 01  .s025..kidl09p..
05A0: 79 00 39 70 0F 01 37 70  0F 01 27 0A 39 70 0F 01  y.9p..7p..'.9p..
05B0: 04 2B 39 70 0F 01 38 80  23 4A 37 70 0F 01 39 70  .+9p..8.#J7p..9p
05C0: 0F 01 1D 39 80 23 2A 0A  39 70 0F 01 66 3A 80 39  ...9.#*.9p..f:.9
05D0: 70 0F 01 39 70 0F 01 74  6C 6B 30 2B 39 70 0F 01  p..9p..tlk0+9p..
05E0: 3B 80 23 7B 39 70 0F 01  2B 39 70 0F 01 3C 80 23  ;.#{9p..+9p..<.#
05F0: 6B 69 64 6C 30 39 70 0F  01 2B 39 70 0F 01 3D 80  kidl09p..+9p..=.
0600: 23 66 09 80 F8 FF FF 7F  F8 FF FF 7F 74 68 6B 31  #f..........thk1
0610: 1D 3E 80 23 52 07 80 F0  FF FF 7F F0 FF FF 7F 73  .>.#R..........s
0620: 30 32 35 45 07 80 F0 FF  FF 7F F0 FF FF 7F 73 30  025E..........s0
0630: 32 36 05 80 4A 39 70 0F  01 3A 70 0F 01 2B 39 70  26..J9p..:p..+9p
0640: 0F 01 3F 80 23 7B 3A 70  0F 01 2B 3A 70 0F 01 40  ..?.#{:p..+:p..@
0650: 80 23 4B 3A 70 0F 01 41  80 2B 3A 70 0F 01 42 80  .#K:p..A.+:p..B.
0660: 23 52 07 80 F0 FF FF 7F  F0 FF FF 7F 73 30 32 36  #R..........s026
0670: 45 07 80 F0 FF FF 7F F0  FF FF 7F 73 30 32 37 05  E..........s027.
0680: 80 27 0A 3A 70 0F 01 04  2B 39 70 0F 01 43 80 23  .'.:p...+9p..C.#
0690: 4A 39 70 0F 01 37 70 0F  01 2B 39 70 0F 01 44 80  J9p..7p..+9p..D.
06A0: 23 6F 76 39 70 0F 01 27  0A 39 70 0F 01 05 1C 3A  #ov9p..'.9p....:
06B0: 80 52 07 80 F0 FF FF 7F  F0 FF FF 7F 73 30 32 37  .R..........s027
06C0: 45 07 80 F0 FF FF 7F F0  FF FF 7F 73 30 32 38 05  E..........s028.
06D0: 80 66 09 80 F8 FF FF 7F  F8 FF FF 7F 74 68 6B 32  .f..........thk2
06E0: 1D 45 80 23 1D 46 80 23  2B 39 70 0F 01 47 80 23  .E.#.F.#+9p..G.#
06F0: 5D 05 80 48 80 27 0A 39  70 0F 01 06 1C 49 80 52  ]..H.'.9p....I.R
0700: 07 80 F0 FF FF 7F F0 FF  FF 7F 73 30 32 38 45 07  ..........s028E.
0710: 80 F0 FF FF 7F F0 FF FF  7F 73 30 32 39 05 80 1D  .........s029...
0720: 4A 80 23 5C 00 4B 80 5C  01 4B 80 4A 37 70 0F 01  J.#\.K.\.K.J7p..
0730: F0 FF FF 7F 1D 4C 80 23  66 09 80 F8 FF FF 7F F8  .....L.#f.......
0740: FF FF 7F 74 6C 6B 30 1D  4D 80 23 5E 69 64 6C 30  ...tlk0.M.#^idl0
0750: 1D 4E 80 23 45 04 80 F0  FF FF 7F F0 FF FF 7F 66  .N.#E..........f
0760: 64 6F 31 05 80 55 04 80  F0 FF FF 7F F0 FF FF 7F  do1..U..........
0770: 66 64 6F 31 52 07 80 F0  FF FF 7F F0 FF FF 7F 73  fdo1R..........s
0780: 30 32 39 46 00 45 04 80  F0 FF FF 7F F0 FF FF 7F  029F.E..........
0790: 66 64 69 31 05 80 21 00                           fdi1..!.        
```

#### Opcodes

```
  0: 0x0242 [0x03] Work_Zone[9] = 470*
  1: 0x0247 [0x03] Work_Zone[8] = 471*
  2: 0x024C [0x42] SET_CLI_EVENT_CANCEL_DATA()
  3: 0x024D [0x45] LOAD_SCHEDULED_TASK: Load scheduler "fdo0" with entities [LocalPlayer, LocalPlayer], work=[200*, 0*]
  4: 0x025E [0x55] WAIT_LOAD_SCHEDULER: Wait for scheduler "fdo0" with entities [LocalPlayer, LocalPlayer], work=200*
  5: 0x026D [0x38] SET_CLIENT_EVENT_MODE(mode=3*)
  6: 0x0270 [0x29] REQ_SET_WAIT(priority=0x0A, entity_id=LocalPlayer, tag_num=0x07)
  7: 0x0277 [0x46] CAMERA_CONTROL: Disable user control
  8: 0x0279 [0x45] LOAD_SCHEDULED_TASK: Load scheduler "s018" with entities [LocalPlayer, LocalPlayer], work=[219*, 0*]
  9: 0x028A [0x45] LOAD_SCHEDULED_TASK: Load scheduler "fdi0" with entities [LocalPlayer, LocalPlayer], work=[200*, 0*]
 10: 0x029B [0x1E] EventEntity looks at LocalPlayer and starts talking
 11: 0x02A0 [0x1D] PRINT_EVENT_MESSAGE(message_id=10280*)
    → "What? You've found $6 of my grandfather's?"
 12: 0x02A3 [0x23] WAIT_FOR_DIALOG_INTERACTION
 13: 0x02A4 [0x66] LOAD_EXT_SCHEDULER_MAIN: Load scheduler "tlk0" with entities [EventEntity, EventEntity], work=20*
 14: 0x02B3 [0x1D] PRINT_EVENT_MESSAGE(message_id=10281*)
    → "Really? May I see it!?"
 15: 0x02B6 [0x23] WAIT_FOR_DIALOG_INTERACTION
 16: 0x02B7 [0x45] LOAD_SCHEDULED_TASK: Load scheduler "fdo1" with entities [LocalPlayer, LocalPlayer], work=[200*, 0*]
 17: 0x02C8 [0x55] WAIT_LOAD_SCHEDULER: Wait for scheduler "fdo1" with entities [LocalPlayer, LocalPlayer], work=200*
 18: 0x02D7 [0x66] LOAD_EXT_SCHEDULER_MAIN: Load scheduler "thk1" with entities [EventEntity, EventEntity], work=20*
 19: 0x02E6 [0x1C] WAIT(30* ticks)
 20: 0x02E9 [0x45] LOAD_SCHEDULED_TASK: Load scheduler "s019" with entities [LocalPlayer, LocalPlayer], work=[219*, 0*]
 21: 0x02FA [0x45] LOAD_SCHEDULED_TASK: Load scheduler "fdi0" with entities [LocalPlayer, LocalPlayer], work=[200*, 0*]
 22: 0x030B [0x1D] PRINT_EVENT_MESSAGE(message_id=10282*)
    → "Putting this here like this... And fastening this like this... I would have never thought..."
 23: 0x030E [0x23] WAIT_FOR_DIALOG_INTERACTION
 24: 0x030F [0x5D] SET_MUSIC_VOLUME(volume=0*, fade_time=180*)
 25: 0x0314 [0x27] REQ_SET(priority=0x0A, entity_id=Ryoma (ID: 17788986/0x010F703A), tag_num=0x03)
 26: 0x031B [0x2B] Ryoma (ID: 17788986/0x010F703A) [10283*]:
    → "Yeah, yeah. Enough of the small talk. Are you going to open it, or what?"
 27: 0x0322 [0x23] WAIT_FOR_DIALOG_INTERACTION
 28: 0x0323 [0x79] Leodarion (ID: 17788983/0x010F7037) looks at Ryoma (ID: 17788986/0x010F703A) (Basic look)
 29: 0x032D [0x66] LOAD_EXT_SCHEDULER_MAIN: Load scheduler "thk2" with entities [EventEntity, EventEntity], work=20*
 30: 0x033C [0x1D] PRINT_EVENT_MESSAGE(message_id=10284*)
    → "Who are you?"
 31: 0x033F [0x23] WAIT_FOR_DIALOG_INTERACTION
 32: 0x0340 [0x52] END_LOAD_SCHEDULER: End scheduler "s019" with entities [LocalPlayer, LocalPlayer], work=219*
 33: 0x034F [0x45] LOAD_SCHEDULED_TASK: Load scheduler "s020" with entities [LocalPlayer, LocalPlayer], work=[219*, 0*]
 34: 0x0360 [0x2A] GET_REQ_LEVEL(level=10, entity_id=Ryoma (ID: 17788986/0x010F703A))
 35: 0x0366 [0x66] LOAD_EXT_SCHEDULER_MAIN: Load scheduler "tlk0" with entities [Ryoma (ID: 17788986/0x010F703A), Ryoma (ID: 17788986/0x010F703A)], work=0*
 36: 0x0375 [0x2B] Ryoma (ID: 17788986/0x010F703A) [10285*]:
    → "Name's Ryoma. I hired <Player> to open this box for me, but when it comes to treasure, I don't take any chances. I tagged along...just in case."
 37: 0x037C [0x23] WAIT_FOR_DIALOG_INTERACTION
 38: 0x037D [0x66] LOAD_EXT_SCHEDULER_MAIN: Load scheduler "ten0" with entities [Ryoma (ID: 17788986/0x010F703A), Ryoma (ID: 17788986/0x010F703A)], work=0*
 39: 0x038C [0x2B] Ryoma (ID: 17788986/0x010F703A) [10286*]:
    → "No offense there, <Player>. Now, let's see what's inside. I've been waiting a long time for this day."
 40: 0x0393 [0x23] WAIT_FOR_DIALOG_INTERACTION
 41: 0x0394 [0x66] LOAD_EXT_SCHEDULER_MAIN: Load scheduler "thk1" with entities [Ryoma (ID: 17788986/0x010F703A), Ryoma (ID: 17788986/0x010F703A)], work=0*
 42: 0x03A3 [0x2B] Ryoma (ID: 17788986/0x010F703A) [10287*]:
    → "Be careful, there..."
 43: 0x03AA [0x23] WAIT_FOR_DIALOG_INTERACTION
 44: 0x03AB [0x4A] Leodarion (ID: 17788983/0x010F7037) looks at Ryoma (ID: 17788986/0x010F703A)
 45: 0x03B4 [0x1D] PRINT_EVENT_MESSAGE(message_id=10288*)
    → "There. It's open."
 46: 0x03B7 [0x23] WAIT_FOR_DIALOG_INTERACTION
 47: 0x03B8 [0x66] LOAD_EXT_SCHEDULER_MAIN: Load scheduler "thk2" with entities [Ryoma (ID: 17788986/0x010F703A), Ryoma (ID: 17788986/0x010F703A)], work=0*
 48: 0x03C7 [0x2B] Ryoma (ID: 17788986/0x010F703A) [10289*]:
    → "That was easy... Well, what do we have?"
 49: 0x03CE [0x23] WAIT_FOR_DIALOG_INTERACTION
 50: 0x03CF [0x52] END_LOAD_SCHEDULER: End scheduler "s020" with entities [LocalPlayer, LocalPlayer], work=219*
 51: 0x03DE [0x45] LOAD_SCHEDULED_TASK: Load scheduler "s021" with entities [LocalPlayer, LocalPlayer], work=[219*, 0*]
 52: 0x03EF [0x66] LOAD_EXT_SCHEDULER_MAIN: Load scheduler "pas0" with entities [EventEntity, EventEntity], work=20*
 53: 0x03FE [0x1D] PRINT_EVENT_MESSAGE(message_id=10290*)
    → "It's empty... There is nothing inside."
 54: 0x0401 [0x23] WAIT_FOR_DIALOG_INTERACTION
 55: 0x0402 [0x66] LOAD_EXT_SCHEDULER_MAIN: Load scheduler "tlk0" with entities [Ryoma (ID: 17788986/0x010F703A), Ryoma (ID: 17788986/0x010F703A)], work=0*
 56: 0x0411 [0x2B] Ryoma (ID: 17788986/0x010F703A) [10291*]:
    → "It can't be! Where's the treasure!?"
 57: 0x0418 [0x23] WAIT_FOR_DIALOG_INTERACTION
 58: 0x0419 [0x66] LOAD_EXT_SCHEDULER_MAIN: Load scheduler "ten0" with entities [Ryoma (ID: 17788986/0x010F703A), Ryoma (ID: 17788986/0x010F703A)], work=0*
 59: 0x0428 [0x53] WAIT_SCHEDULER_TASK: Wait for scheduler "pas0" with entities [EventEntity, EventEntity]
 60: 0x0435 [0x66] LOAD_EXT_SCHEDULER_MAIN: Load scheduler "tlk0" with entities [EventEntity, EventEntity], work=20*
 61: 0x0444 [0x1D] PRINT_EVENT_MESSAGE(message_id=10292*)
    → "Look for yourself. You won't find any treasure inside, because the box itself is the real treasure. Only a true master could craft such a fine work of art..."
 62: 0x0447 [0x23] WAIT_FOR_DIALOG_INTERACTION
 63: 0x0448 [0x5E] EventEntity goes idle (kills current action) (animation: "idl0")
 64: 0x044D [0x1D] PRINT_EVENT_MESSAGE(message_id=10293*)
    → "Yes, it might have been easy to open, but I do not know if I will ever be able to copy what my grandfather has done."
 65: 0x0450 [0x23] WAIT_FOR_DIALOG_INTERACTION
 66: 0x0451 [0x52] END_LOAD_SCHEDULER: End scheduler "s021" with entities [LocalPlayer, LocalPlayer], work=219*
 67: 0x0460 [0x45] LOAD_SCHEDULED_TASK: Load scheduler "s022" with entities [LocalPlayer, LocalPlayer], work=[219*, 0*]
 68: 0x0471 [0x66] LOAD_EXT_SCHEDULER_MAIN: Load scheduler "tld0" with entities [Ryoma (ID: 17788986/0x010F703A), Ryoma (ID: 17788986/0x010F703A)], work=2*
 69: 0x0480 [0x2B] Ryoma (ID: 17788986/0x010F703A) [10294*]:
    → "You'd better not be trying to pull a fast one, Leodarion. If I find out you're hiding any treasure from me..."
 70: 0x0487 [0x23] WAIT_FOR_DIALOG_INTERACTION
 71: 0x0488 [0x66] LOAD_EXT_SCHEDULER_MAIN: Load scheduler "tld1" with entities [Ryoma (ID: 17788986/0x010F703A), Ryoma (ID: 17788986/0x010F703A)], work=2*
 72: 0x0497 [0x5C] MUSIC_CONTROL: Set Idle (Day) music to song 154*
 73: 0x049B [0x5C] MUSIC_CONTROL: Set Idle (Night) music to song 154*
 74: 0x049F [0x27] REQ_SET(priority=0x0A, entity_id=Ayame (ID: 17788985/0x010F7039), tag_num=0x03)
 75: 0x04A6 [0x2B] Ayame (ID: 17788985/0x010F7039) [10295*]:
    → "Unless you cannot see the box in front of you, Uncle Ryoma, the only treasure is there in Leodarion's hands."
 76: 0x04AD [0x23] WAIT_FOR_DIALOG_INTERACTION
 77: 0x04AE [0x79] Ryoma (ID: 17788986/0x010F703A) looks at Ayame (ID: 17788985/0x010F7039) (Basic look)
 78: 0x04B8 [0x2B] Ryoma (ID: 17788986/0x010F703A) [10296*]:
    → "Ayaya...? Ayaya! What are you doing here?"
 79: 0x04BF [0x23] WAIT_FOR_DIALOG_INTERACTION
 80: 0x04C0 [0x4A] Ayame (ID: 17788985/0x010F7039) looks at Ryoma (ID: 17788986/0x010F703A)
 81: 0x04C9 [0x6F] WAIT_FRAME_DELAY: Yield until WaitTime reaches zero
 82: 0x04CA [0x76] CHECK_ENTITY_RENDER_FLAGS: Wait until Ayame (ID: 17788985/0x010F7039) Render.Flags0 and Render.Flags3 conditions are met
 83: 0x04CF [0x79] Leodarion (ID: 17788983/0x010F7037) looks at Ayame (ID: 17788985/0x010F7039) (Basic look)
 84: 0x04D9 [0x52] END_LOAD_SCHEDULER: End scheduler "s022" with entities [LocalPlayer, LocalPlayer], work=219*
 85: 0x04E8 [0x45] LOAD_SCHEDULED_TASK: Load scheduler "s023" with entities [LocalPlayer, LocalPlayer], work=[219*, 0*]
 86: 0x04F9 [0x2A] GET_REQ_LEVEL(level=10, entity_id=Ayame (ID: 17788985/0x010F7039))
 87: 0x04FF [0x66] LOAD_EXT_SCHEDULER_MAIN: Load scheduler "bke0" with entities [Ayame (ID: 17788985/0x010F7039), Ayame (ID: 17788985/0x010F7039)], work=11*
 88: 0x050E [0x2B] Ayame (ID: 17788985/0x010F7039) [10297*]:
    → "It is unfortunate that we must meet again under these circumstances, Uncle."
 89: 0x0515 [0x23] WAIT_FOR_DIALOG_INTERACTION
 90: 0x0516 [0x2B] Ayame (ID: 17788985/0x010F7039) [10298*]:
    → "I have been assigned by the Bastok government as the head of foreign policy relating to Norg. This includes observation of its members' actions..."
 91: 0x051D [0x23] WAIT_FOR_DIALOG_INTERACTION
 92: 0x051E [0x52] END_LOAD_SCHEDULER: End scheduler "s023" with entities [LocalPlayer, LocalPlayer], work=219*
 93: 0x052D [0x45] LOAD_SCHEDULED_TASK: Load scheduler "s024" with entities [LocalPlayer, LocalPlayer], work=[219*, 0*]
 94: 0x053E [0x4A] Ryoma (ID: 17788986/0x010F703A) looks at Ayame (ID: 17788985/0x010F7039)
 95: 0x0547 [0x2B] Ryoma (ID: 17788986/0x010F703A) [10299*]:
    → "You mean...you've been watching me this whole time?"
 96: 0x054E [0x23] WAIT_FOR_DIALOG_INTERACTION
 97: 0x054F [0x6B] STOP_AND_IDLE: Ayame (ID: 17788985/0x010F7039) stops current action and resets to idle (animation="id10")
 98: 0x0558 [0x2B] Ayame (ID: 17788985/0x010F7039) [10300*]:
    → "I was just following my orders. When we learned that the members of Norg were once again searching for a lost treasure, I had no choice but to follow you here to gather information."
 99: 0x055F [0x23] WAIT_FOR_DIALOG_INTERACTION
100: 0x0560 [0x66] LOAD_EXT_SCHEDULER_MAIN: Load scheduler "dis0" with entities [Ryoma (ID: 17788986/0x010F703A), Ryoma (ID: 17788986/0x010F703A)], work=0*
101: 0x056F [0x2B] Ryoma (ID: 17788986/0x010F703A) [10301*]:
    → "So, you really are a Musketeer..."
102: 0x0576 [0x23] WAIT_FOR_DIALOG_INTERACTION
103: 0x0577 [0x52] END_LOAD_SCHEDULER: End scheduler "s024" with entities [LocalPlayer, LocalPlayer], work=219*
104: 0x0586 [0x45] LOAD_SCHEDULED_TASK: Load scheduler "s025" with entities [LocalPlayer, LocalPlayer], work=[219*, 0*]
105: 0x0597 [0x6B] STOP_AND_IDLE: Ayame (ID: 17788985/0x010F7039) stops current action and resets to idle (animation="idl0")
106: 0x05A0 [0x79] Ayame (ID: 17788985/0x010F7039) looks at Leodarion (ID: 17788983/0x010F7037) (Basic look)
107: 0x05AA [0x27] REQ_SET(priority=0x0A, entity_id=Ayame (ID: 17788985/0x010F7039), tag_num=0x04)
108: 0x05B1 [0x2B] Ayame (ID: 17788985/0x010F7039) [10302*]:
    → "Mister...Leodarion. I have heard your story from my father. I feel that I, too, know the true value of that treasure you hold."
109: 0x05B8 [0x23] WAIT_FOR_DIALOG_INTERACTION
110: 0x05B9 [0x4A] Leodarion (ID: 17788983/0x010F7037) looks at Ayame (ID: 17788985/0x010F7039)
111: 0x05C2 [0x1D] PRINT_EVENT_MESSAGE(message_id=10303*)
    → "Wait... You're Yomi's daughter, aren't you? Yes, I finally think I know what my grandfather was trying to say in his will..."
112: 0x05C5 [0x23] WAIT_FOR_DIALOG_INTERACTION
113: 0x05C6 [0x2A] GET_REQ_LEVEL(level=10, entity_id=Ayame (ID: 17788985/0x010F7039))
114: 0x05CC [0x66] LOAD_EXT_SCHEDULER_MAIN: Load scheduler "tlk0" with entities [Ayame (ID: 17788985/0x010F7039), Ayame (ID: 17788985/0x010F7039)], work=10*
115: 0x05DB [0x2B] Ayame (ID: 17788985/0x010F7039) [10304*]:
    → "A piece of that person lives on in everything a true master leaves behind. I can feel it whenever I see my mother's blade, just as you can with that box."
116: 0x05E2 [0x23] WAIT_FOR_DIALOG_INTERACTION
117: 0x05E3 [0x7B] Ayame (ID: 17788985/0x010F7039) stops talking
118: 0x05E8 [0x2B] Ayame (ID: 17788985/0x010F7039) [10305*]:
    → "I feel it even more when I see how that blade affects the lives of the people around it."
119: 0x05EF [0x23] WAIT_FOR_DIALOG_INTERACTION
120: 0x05F0 [0x6B] STOP_AND_IDLE: Ayame (ID: 17788985/0x010F7039) stops current action and resets to idle (animation="idl0")
121: 0x05F9 [0x2B] Ayame (ID: 17788985/0x010F7039) [10306*]:
    → "Because of the message that my mother left for me within that blade, I was able to find my own path in life. That path led me to Norg."
122: 0x0600 [0x23] WAIT_FOR_DIALOG_INTERACTION
123: 0x0601 [0x66] LOAD_EXT_SCHEDULER_MAIN: Load scheduler "thk1" with entities [EventEntity, EventEntity], work=20*
124: 0x0610 [0x1D] PRINT_EVENT_MESSAGE(message_id=10307*)
    → "I see. As much as we try to follow in someone's footsteps, there are places that we will never reach. That is why we must concentrate on finding our own paths."
125: 0x0613 [0x23] WAIT_FOR_DIALOG_INTERACTION
126: 0x0614 [0x52] END_LOAD_SCHEDULER: End scheduler "s025" with entities [LocalPlayer, LocalPlayer], work=219*
127: 0x0623 [0x45] LOAD_SCHEDULED_TASK: Load scheduler "s026" with entities [LocalPlayer, LocalPlayer], work=[219*, 0*]
128: 0x0634 [0x4A] Ayame (ID: 17788985/0x010F7039) looks at Ryoma (ID: 17788986/0x010F703A)
129: 0x063D [0x2B] Ayame (ID: 17788985/0x010F7039) [10308*]:
    → "Exactly. Uncle, would it be too much to ask to let Mister Leodarion keep his grandfather's box?"
130: 0x0644 [0x23] WAIT_FOR_DIALOG_INTERACTION
131: 0x0645 [0x7B] Ryoma (ID: 17788986/0x010F703A) stops talking
132: 0x064A [0x2B] Ryoma (ID: 17788986/0x010F703A) [10309*]:
    → "Too much to ask? Who needs a dirty old empty box, anyway!? What a waste of time!"
133: 0x0651 [0x23] WAIT_FOR_DIALOG_INTERACTION
134: 0x0652 [0x4B] UPDATE_ENTITY_YAW(entity=Ryoma (ID: 17788986/0x010F703A), yaw=6.7°*)
135: 0x0659 [0x2B] Ryoma (ID: 17788986/0x010F703A) [10310*]:
    → "Oh, and tell your good-for-nothing father to make sure that Kaede comes out to be a little more "understanding" than her sister!"
136: 0x0660 [0x23] WAIT_FOR_DIALOG_INTERACTION
137: 0x0661 [0x52] END_LOAD_SCHEDULER: End scheduler "s026" with entities [LocalPlayer, LocalPlayer], work=219*
138: 0x0670 [0x45] LOAD_SCHEDULED_TASK: Load scheduler "s027" with entities [LocalPlayer, LocalPlayer], work=[219*, 0*]
139: 0x0681 [0x27] REQ_SET(priority=0x0A, entity_id=Ryoma (ID: 17788986/0x010F703A), tag_num=0x04)
140: 0x0688 [0x2B] Ayame (ID: 17788985/0x010F7039) [10311*]:
    → "I will be sure to tell him, though I cannot guarantee that Kaede will grow up to be like my mother."
141: 0x068F [0x23] WAIT_FOR_DIALOG_INTERACTION
142: 0x0690 [0x4A] Ayame (ID: 17788985/0x010F7039) looks at Leodarion (ID: 17788983/0x010F7037)
143: 0x0699 [0x2B] Ayame (ID: 17788985/0x010F7039) [10312*]:
    → "Farewell."
144: 0x06A0 [0x23] WAIT_FOR_DIALOG_INTERACTION
145: 0x06A1 [0x6F] WAIT_FRAME_DELAY: Yield until WaitTime reaches zero
146: 0x06A2 [0x76] CHECK_ENTITY_RENDER_FLAGS: Wait until Ayame (ID: 17788985/0x010F7039) Render.Flags0 and Render.Flags3 conditions are met
147: 0x06A7 [0x27] REQ_SET(priority=0x0A, entity_id=Ayame (ID: 17788985/0x010F7039), tag_num=0x05)
148: 0x06AE [0x1C] WAIT(10* ticks)
149: 0x06B1 [0x52] END_LOAD_SCHEDULER: End scheduler "s027" with entities [LocalPlayer, LocalPlayer], work=219*
150: 0x06C0 [0x45] LOAD_SCHEDULED_TASK: Load scheduler "s028" with entities [LocalPlayer, LocalPlayer], work=[219*, 0*]
151: 0x06D1 [0x66] LOAD_EXT_SCHEDULER_MAIN: Load scheduler "thk2" with entities [EventEntity, EventEntity], work=20*
152: 0x06E0 [0x1D] PRINT_EVENT_MESSAGE(message_id=10313*)
    → "Wait! I think this box may hold a hint into opening my grandfather's $3. I used to try when I was a child, but I never could."
153: 0x06E3 [0x23] WAIT_FOR_DIALOG_INTERACTION
154: 0x06E4 [0x1D] PRINT_EVENT_MESSAGE(message_id=10314*)
    → "Maybe there is a treasure in there..."
155: 0x06E7 [0x23] WAIT_FOR_DIALOG_INTERACTION
156: 0x06E8 [0x2B] Ayame (ID: 17788985/0x010F7039) [10315*]:
    → "I am going to forget what you just told me. I am not a pirate nor a treasure hunter. I have no interest in what lies in that $3. If you need assistance, try asking this adventurer."
157: 0x06EF [0x23] WAIT_FOR_DIALOG_INTERACTION
158: 0x06F0 [0x5D] SET_MUSIC_VOLUME(volume=0*, fade_time=120*)
159: 0x06F5 [0x27] REQ_SET(priority=0x0A, entity_id=Ayame (ID: 17788985/0x010F7039), tag_num=0x06)
160: 0x06FC [0x1C] WAIT(60* ticks)
161: 0x06FF [0x52] END_LOAD_SCHEDULER: End scheduler "s028" with entities [LocalPlayer, LocalPlayer], work=219*
162: 0x070E [0x45] LOAD_SCHEDULED_TASK: Load scheduler "s029" with entities [LocalPlayer, LocalPlayer], work=[219*, 0*]
163: 0x071F [0x1D] PRINT_EVENT_MESSAGE(message_id=10316*)
    → "Wow..."
164: 0x0722 [0x23] WAIT_FOR_DIALOG_INTERACTION
165: 0x0723 [0x5C] MUSIC_CONTROL: Set Idle (Day) music to song 208*
166: 0x0727 [0x5C] MUSIC_CONTROL: Set Idle (Night) music to song 208*
167: 0x072B [0x4A] Leodarion (ID: 17788983/0x010F7037) looks at LocalPlayer
168: 0x0734 [0x1D] PRINT_EVENT_MESSAGE(message_id=10317*)
    → "Anyway. I'm grateful for all you've done for me. That's why I'm going to let you in on my secret."
169: 0x0737 [0x23] WAIT_FOR_DIALOG_INTERACTION
170: 0x0738 [0x66] LOAD_EXT_SCHEDULER_MAIN: Load scheduler "tlk0" with entities [EventEntity, EventEntity], work=20*
171: 0x0747 [0x1D] PRINT_EVENT_MESSAGE(message_id=10318*)
    → "Long ago, my grandfather hid his $3 inside a treasure chest deep within the Kuftal Tunnel. After looking at this $3, I think I can open it now."
172: 0x074A [0x23] WAIT_FOR_DIALOG_INTERACTION
173: 0x074B [0x5E] EventEntity goes idle (kills current action) (animation: "idl0")
174: 0x0750 [0x1D] PRINT_EVENT_MESSAGE(message_id=10319*)
    → "If you bring it to me, I'll give you whatever's inside. What do you say?"
175: 0x0753 [0x23] WAIT_FOR_DIALOG_INTERACTION
176: 0x0754 [0x45] LOAD_SCHEDULED_TASK: Load scheduler "fdo1" with entities [LocalPlayer, LocalPlayer], work=[200*, 0*]
177: 0x0765 [0x55] WAIT_LOAD_SCHEDULER: Wait for scheduler "fdo1" with entities [LocalPlayer, LocalPlayer], work=200*
178: 0x0774 [0x52] END_LOAD_SCHEDULER: End scheduler "s029" with entities [LocalPlayer, LocalPlayer], work=219*
179: 0x0783 [0x46] CAMERA_CONTROL: Restore default settings
180: 0x0785 [0x45] LOAD_SCHEDULED_TASK: Load scheduler "fdi1" with entities [LocalPlayer, LocalPlayer], work=[200*, 0*]
181: 0x0796 [0x21] END_EVENT
182: 0x0797 [0x00] END_REQSTACK()
```

### Event 98

#### Metadata

| Field        | Value    |
|--------------|----------|
| Entrypoint   | 0x0798   |
| Data Size    | 40 bytes |
| Instructions | 10       |

```
      00 01 02 03 04 05 06 07  08 09 0A 0B 0C 0D 0E 0F
      -- -- -- -- -- -- -- --  -- -- -- -- -- -- -- --
0790:                          03 09 10 1B 80 03 08 10          ........
07A0: 1C 80 1E F0 FF FF 7F 1D  4D 80 23 66 09 80 F8 FF  ........M.#f....
07B0: FF 7F F8 FF FF 7F 74 6C  6B 30 1D 4E 80 23 21 00  ......tlk0.N.#!.
```

#### Opcodes

```
  0: 0x0798 [0x03] Work_Zone[9] = 470*
  1: 0x079D [0x03] Work_Zone[8] = 471*
  2: 0x07A2 [0x1E] EventEntity looks at LocalPlayer and starts talking
  3: 0x07A7 [0x1D] PRINT_EVENT_MESSAGE(message_id=10318*)
    → "Long ago, my grandfather hid his $3 inside a treasure chest deep within the Kuftal Tunnel. After looking at this $3, I think I can open it now."
  4: 0x07AA [0x23] WAIT_FOR_DIALOG_INTERACTION
  5: 0x07AB [0x66] LOAD_EXT_SCHEDULER_MAIN: Load scheduler "tlk0" with entities [EventEntity, EventEntity], work=20*
  6: 0x07BA [0x1D] PRINT_EVENT_MESSAGE(message_id=10319*)
    → "If you bring it to me, I'll give you whatever's inside. What do you say?"
  7: 0x07BD [0x23] WAIT_FOR_DIALOG_INTERACTION
  8: 0x07BE [0x21] END_EVENT
  9: 0x07BF [0x00] END_REQSTACK()
```

### Event 99

#### Metadata

| Field        | Value     |
|--------------|-----------|
| Entrypoint   | 0x07C0    |
| Data Size    | 289 bytes |
| Instructions | 31        |

```
      00 01 02 03 04 05 06 07  08 09 0A 0B 0C 0D 0E 0F
      -- -- -- -- -- -- -- --  -- -- -- -- -- -- -- --
07C0: 03 09 10 1B 80 03 08 10  1C 80 42 45 04 80 F0 FF  ..........BE....
07D0: FF 7F F0 FF FF 7F 66 64  6F 30 05 80 55 04 80 F0  ......fdo0..U...
07E0: FF FF 7F F0 FF FF 7F 66  64 6F 30 38 06 80 29 0A  .......fdo08..).
07F0: F0 FF FF 7F 06 46 01 45  07 80 F0 FF FF 7F F0 FF  .....F.E........
0800: FF 7F 73 30 31 37 05 80  45 04 80 F0 FF FF 7F F0  ..s017..E.......
0810: FF FF 7F 66 64 69 30 05  80 1E F0 FF FF 7F 1D 4F  ...fdi0........O
0820: 80 23 45 04 80 F0 FF FF  7F F0 FF FF 7F 66 64 6F  .#E..........fdo
0830: 31 05 80 55 04 80 F0 FF  FF 7F F0 FF FF 7F 66 64  1..U..........fd
0840: 6F 31 1C 1F 80 52 07 80  F0 FF FF 7F F0 FF FF 7F  o1...R..........
0850: 73 30 31 37 45 07 80 F0  FF FF 7F F0 FF FF 7F 73  s017E..........s
0860: 30 31 35 05 80 45 04 80  F0 FF FF 7F F0 FF FF 7F  015..E..........
0870: 66 64 69 31 05 80 1C 1F  80 66 09 80 F8 FF FF 7F  fdi1.....f......
0880: F8 FF FF 7F 70 61 73 30  1D 50 80 23 45 04 80 F0  ....pas0.P.#E...
0890: FF FF 7F F0 FF FF 7F 66  64 6F 31 05 80 55 04 80  .......fdo1..U..
08A0: F0 FF FF 7F F0 FF FF 7F  66 64 6F 31 46 00 52 07  ........fdo1F.R.
08B0: 80 F0 FF FF 7F F0 FF FF  7F 73 30 31 35 45 51 80  .........s015EQ.
08C0: F0 FF FF 7F F0 FF FF 7F  71 73 74 63 05 80 45 04  ........qstc..E.
08D0: 80 F0 FF FF 7F F0 FF FF  7F 66 64 69 31 05 80 21  .........fdi1..!
08E0: 00                                                .               
```

#### Opcodes

```
  0: 0x07C0 [0x03] Work_Zone[9] = 470*
  1: 0x07C5 [0x03] Work_Zone[8] = 471*
  2: 0x07CA [0x42] SET_CLI_EVENT_CANCEL_DATA()
  3: 0x07CB [0x45] LOAD_SCHEDULED_TASK: Load scheduler "fdo0" with entities [LocalPlayer, LocalPlayer], work=[200*, 0*]
  4: 0x07DC [0x55] WAIT_LOAD_SCHEDULER: Wait for scheduler "fdo0" with entities [LocalPlayer, LocalPlayer], work=200*
  5: 0x07EB [0x38] SET_CLIENT_EVENT_MODE(mode=3*)
  6: 0x07EE [0x29] REQ_SET_WAIT(priority=0x0A, entity_id=LocalPlayer, tag_num=0x06)
  7: 0x07F5 [0x46] CAMERA_CONTROL: Disable user control
  8: 0x07F7 [0x45] LOAD_SCHEDULED_TASK: Load scheduler "s017" with entities [LocalPlayer, LocalPlayer], work=[219*, 0*]
  9: 0x0808 [0x45] LOAD_SCHEDULED_TASK: Load scheduler "fdi0" with entities [LocalPlayer, LocalPlayer], work=[200*, 0*]
 10: 0x0819 [0x1E] EventEntity looks at LocalPlayer and starts talking
 11: 0x081E [0x1D] PRINT_EVENT_MESSAGE(message_id=10320*)
    → "You've brought back the $3! Here, let me see if I can open it."
 12: 0x0821 [0x23] WAIT_FOR_DIALOG_INTERACTION
 13: 0x0822 [0x45] LOAD_SCHEDULED_TASK: Load scheduler "fdo1" with entities [LocalPlayer, LocalPlayer], work=[200*, 0*]
 14: 0x0833 [0x55] WAIT_LOAD_SCHEDULER: Wait for scheduler "fdo1" with entities [LocalPlayer, LocalPlayer], work=200*
 15: 0x0842 [0x1C] WAIT(30* ticks)
 16: 0x0845 [0x52] END_LOAD_SCHEDULER: End scheduler "s017" with entities [LocalPlayer, LocalPlayer], work=219*
 17: 0x0854 [0x45] LOAD_SCHEDULED_TASK: Load scheduler "s015" with entities [LocalPlayer, LocalPlayer], work=[219*, 0*]
 18: 0x0865 [0x45] LOAD_SCHEDULED_TASK: Load scheduler "fdi1" with entities [LocalPlayer, LocalPlayer], work=[200*, 0*]
 19: 0x0876 [0x1C] WAIT(30* ticks)
 20: 0x0879 [0x66] LOAD_EXT_SCHEDULER_MAIN: Load scheduler "pas0" with entities [EventEntity, EventEntity], work=20*
 21: 0x0888 [0x1D] PRINT_EVENT_MESSAGE(message_id=10321*)
    → "Yes. I knew I could do it! Here, take what was inside. My grandfather would have wanted you to have it."
 22: 0x088B [0x23] WAIT_FOR_DIALOG_INTERACTION
 23: 0x088C [0x45] LOAD_SCHEDULED_TASK: Load scheduler "fdo1" with entities [LocalPlayer, LocalPlayer], work=[200*, 0*]
 24: 0x089D [0x55] WAIT_LOAD_SCHEDULER: Wait for scheduler "fdo1" with entities [LocalPlayer, LocalPlayer], work=200*
 25: 0x08AC [0x46] CAMERA_CONTROL: Restore default settings
 26: 0x08AE [0x52] END_LOAD_SCHEDULER: End scheduler "s015" with entities [LocalPlayer, LocalPlayer], work=219*
 27: 0x08BD [0x45] LOAD_SCHEDULED_TASK: Load scheduler "qstc" with entities [LocalPlayer, LocalPlayer], work=[201*, 0*]
 28: 0x08CE [0x45] LOAD_SCHEDULED_TASK: Load scheduler "fdi1" with entities [LocalPlayer, LocalPlayer], work=[200*, 0*]
 29: 0x08DF [0x21] END_EVENT
 30: 0x08E0 [0x00] END_REQSTACK()
```
