# 17788931 - Maryoh Comyujah

## Common Data

| Field            | Value           |
|------------------|-----------------|
| Zone             | Rabao (ID: 247) |
| Block Size       | 1816 bytes      |
| Total Events     | 16              |
| References Count | 48              |

## List of Events

| Event ID              | Entrypoint   |   Size |   Instructions |
|-----------------------|--------------|--------|----------------|
| [65535](#event-65535) | 0x0000       |      1 |              1 |
| [101](#event-101)     | 0x0001       |      1 |              1 |
| [43](#event-43)       | 0x0002       |     24 |             12 |
| [81](#event-81)       | 0x001A       |    104 |             34 |
| [82](#event-82)       | 0x0082       |     12 |              6 |
| [83](#event-83)       | 0x008E       |    426 |             58 |
| [84](#event-84)       | 0x0238       |     12 |              6 |
| [85](#event-85)       | 0x0244       |    895 |            100 |
| [13](#event-13)       | 0x05C3       |     12 |              3 |
| [15](#event-15)       | 0x05CF       |     12 |              3 |
| [162](#event-162)     | 0x05DB       |      7 |              2 |
| [165](#event-165)     | 0x05E2       |      7 |              2 |
| [155](#event-155)     | 0x05E9       |      7 |              2 |
| [156](#event-156)     | 0x05F0       |      7 |              2 |
| [157](#event-157)     | 0x05F7       |      7 |              2 |
| [158](#event-158)     | 0x05FE       |      7 |              2 |

## DAT References (imed_data)

|   Index | Hex Value   |   Dec Value |
|---------|-------------|-------------|
|       0 | 0x2734      |       10036 |
|       1 | 0x2735      |       10037 |
|       2 | 0x2736      |       10038 |
|       3 | 0x2737      |       10039 |
|       4 | 0x0001      |           1 |
|       5 | 0x2804      |       10244 |
|       6 | 0x27FF      |       10239 |
|       7 | 0x2800      |       10240 |
|       8 | 0x2801      |       10241 |
|       9 | 0x2802      |       10242 |
|      10 | 0x2803      |       10243 |
|      11 | 0x2805      |       10245 |
|      12 | 0x0000      |           0 |
|      13 | 0x2807      |       10247 |
|      14 | 0x0003      |           3 |
|      15 | 0x000B      |          11 |
|      16 | 0x2806      |       10246 |
|      17 | 0x2808      |       10248 |
|      18 | 0x0013      |          19 |
|      19 | 0x00E9      |         233 |
|      20 | 0x00C8      |         200 |
|      21 | 0x2809      |       10249 |
|      22 | 0x0032      |          50 |
|      23 | 0x280A      |       10250 |
|      24 | 0x280B      |       10251 |
|      25 | 0x280C      |       10252 |
|      26 | 0x280D      |       10253 |
|      27 | 0x280E      |       10254 |
|      28 | 0x280F      |       10255 |
|      29 | 0x01C4      |         452 |
|      30 | 0x2810      |       10256 |
|      31 | 0x2811      |       10257 |
|      32 | 0x001E      |          30 |
|      33 | 0x2812      |       10258 |
|      34 | 0x2813      |       10259 |
|      35 | 0x2814      |       10260 |
|      36 | 0x000A      |          10 |
|      37 | 0x0014      |          20 |
|      38 | 0x0028      |          40 |
|      39 | 0x003C      |          60 |
|      40 | 0x0005      |           5 |
|      41 | 0x0050      |          80 |
|      42 | 0x00EE      |         238 |
|      43 | 0x0236      |         566 |
|      44 | 0x00C9      |         201 |
|      45 | 0x002D      |          45 |
|      46 | 0x0002      |           2 |
|      47 | 0x00D7      |         215 |

## String References

- **10036**: Hail, fellow adventurer. My name is Maryoh-Comyujah. I braved the long, arrrduous journey from the mainland to search for trrreasure in the Quicksand Caves.
- **10037**: It's been a little harrrder than I expected, though. The Quicksand Caves are extensive and verrry confusing.
- **10038**: On top of that, there are all these ant-type beastmen crawling around down there. Not a nice place to be looking for lost rrriches!
- **10039**: The rrroad to hidden trrreasure is long indeed...
- **10239**: Ho there! Aren't you the adventurer known as <Player>? The winds carry word of your interest in the ruins of Li'Telor.
- **10240**: I know how to get in. Into the very center of the rrruins, I mean. I wouldn't mind just telling you, but...you know what they say, "Nothing of value should come for free."
- **10241**: I have a little favor to ask. Underneath the Altepa Desert lie the expansive Quicksand Caves. I've got a hunch that there's some undiscovered trrreasure in there, still waiting to be claimed.
- **10242**: Just head a short way into the caves and pick up anything that strrrikes you as valuable. If I like what you brrring me, I'll tell you everything I know about the rrruins.
- **10243**: Not a bad deal, rrright? You scrrratch my back, and I'll scrrratch yours.
- **10244**: What's up? You changed your mind?
- **10245**: Do a deal with Maryoh Comyujah? [Sounds fair./I can scratch my own back.]
- **10246**: Okay then, it's a deal. The Quicksand Caves are expansive and have many entrances, but I'm sure you'll figure them out.
- **10247**: What, you don't trrrust me? Well, I'll be arrround here for a while, so come on back if you change your mind.
- **10248**: My hunter's instinct tells me that there's something unusual beyond that weight-operated device in the caves.
- **10249**: Wow, this is incrrredible!
- **10250**: Now listen carefully, and I'll tell you what I know about the rrruins, just like I prrromised.
- **10251**: What I'm about to tell you happened long before I came to Kuzotz. I went alone to explore Li'Telor, a place that has been known as a holy land since ancient times.
- **10252**: I was traveling through a dense fog and, though it embarrasses me to rrrecall, completely lost my way. After wandering for a time, I somehow found myself at the rrruins.
- **10253**: What I saw there, you already know. Those huge statues facing one another in that great hall, and beyond... The immovable wall that bars the way into the heart of the rrruins.
- **10254**: I searched every inch of that place. And then I found it. A mysterrrious crystal glowing with a clear, blue light.
- **10255**: I don't know why it was there, but it was shining from below the surface of the lake in the great hall. ...Glowing as if in rrresponse to the moonlight that poured in from above.
- **10256**: This is that $3. I brought it back with me thinking I could sell it, but I haven't been able to find a buyer. I might as well give it to you.
- **10257**: Place it into the hollow in the center of that wall and see what happens for yourself. You wouldn't want me to spoil it for you now, would you? Hehehe.
- **10258**: Those rrruins in Li'Telor are interesting to visit on a night of the full moon. You learn anew that there are still many things in this world that are beyond our understanding.
- **10259**: Ho, <Player>. What did you see? There's nothing in there, rrright? I already knew that, though... Huh? You saw a floating island in there?
- **10260**: Haha, nice try. If you're gonna make something up, try for something a little more believable. There's nothing at the top of those stairs besides that altar.

## Events

### Event 65535

#### Metadata

| Field        | Value   |
|--------------|---------|
| Entrypoint   | 0x0000  |
| Data Size    | 1 bytes |
| Instructions | 1       |

```
      00 01 02 03 04 05 06 07  08 09 0A 0B 0C 0D 0E 0F
      -- -- -- -- -- -- -- --  -- -- -- -- -- -- -- --
0000: 00                                                .               
```

#### Opcodes

```
  0: 0x0000 [0x00] END_REQSTACK()
```

### Event 101

#### Metadata

| Field        | Value   |
|--------------|---------|
| Entrypoint   | 0x0001  |
| Data Size    | 1 bytes |
| Instructions | 1       |

```
      00 01 02 03 04 05 06 07  08 09 0A 0B 0C 0D 0E 0F
      -- -- -- -- -- -- -- --  -- -- -- -- -- -- -- --
0000:    00                                              .              
```

#### Opcodes

```
  0: 0x0001 [0x00] END_REQSTACK()
```

### Event 43

#### Metadata

| Field        | Value    |
|--------------|----------|
| Entrypoint   | 0x0002   |
| Data Size    | 24 bytes |
| Instructions | 12       |

```
      00 01 02 03 04 05 06 07  08 09 0A 0B 0C 0D 0E 0F
      -- -- -- -- -- -- -- --  -- -- -- -- -- -- -- --
0000:       1A 54 02 1A C2 02  1D 00 80 23 1D 01 80 23    .T.......#...#
0010: 1D 02 80 23 1D 03 80 23  21 00                    ...#...#!.      
```

#### Opcodes

```
  0: 0x0002 [0x1A] CALL_SUBROUTINE(address=0x0254)
  1: 0x0005 [0x1A] CALL_SUBROUTINE(address=0x02C2)
  2: 0x0008 [0x1D] PRINT_EVENT_MESSAGE(message_id=10036*)
    → "Hail, fellow adventurer. My name is Maryoh-Comyujah. I braved the long, arrrduous journey from the mainland to search for trrreasure in the Quicksand Caves."
  3: 0x000B [0x23] WAIT_FOR_DIALOG_INTERACTION
  4: 0x000C [0x1D] PRINT_EVENT_MESSAGE(message_id=10037*)
    → "It's been a little harrrder than I expected, though. The Quicksand Caves are extensive and verrry confusing."
  5: 0x000F [0x23] WAIT_FOR_DIALOG_INTERACTION
  6: 0x0010 [0x1D] PRINT_EVENT_MESSAGE(message_id=10038*)
    → "On top of that, there are all these ant-type beastmen crawling around down there. Not a nice place to be looking for lost rrriches!"
  7: 0x0013 [0x23] WAIT_FOR_DIALOG_INTERACTION
  8: 0x0014 [0x1D] PRINT_EVENT_MESSAGE(message_id=10039*)
    → "The rrroad to hidden trrreasure is long indeed..."
  9: 0x0017 [0x23] WAIT_FOR_DIALOG_INTERACTION
 10: 0x0018 [0x21] END_EVENT
 11: 0x0019 [0x00] END_REQSTACK()
```

### Event 81

#### Metadata

| Field        | Value     |
|--------------|-----------|
| Entrypoint   | 0x001A    |
| Data Size    | 104 bytes |
| Instructions | 33        |

```
      00 01 02 03 04 05 06 07  08 09 0A 0B 0C 0D 0E 0F
      -- -- -- -- -- -- -- --  -- -- -- -- -- -- -- --
0010:                                1A 54 02 1A C2 02            .T....
0020: 02 09 10 04 80 00 2F 00  1D 05 80 23 01 43 00 1D  ....../....#.C..
0030: 06 80 23 1D 07 80 23 1D  08 80 23 1D 09 80 23 1D  ..#...#...#...#.
0040: 0A 80 23 24 0B 80 04 80  0C 80 25 02 00 10 04 80  ..#$......%.....
0050: 00 5D 00 1D 0D 80 23 01  80 00 01 5D 00 42 5E 69  .]....#....].B^i
0060: 64 6C 30 1C 0E 80 03 01  10 04 80 6E F8 FF FF 7F  dl0........n....
0070: 0F 80 99 F8 FF FF 7F 99  F8 FF FF 7F 1D 10 80 23  ...............#
0080: 21 00                                             !.              
```

#### Opcodes

```
  0: 0x001A [0x1A] CALL_SUBROUTINE(address=0x0254)
  1: 0x001D [0x1A] CALL_SUBROUTINE(address=0x02C2)
  2: 0x0020 [0x02] IF !(Work_Zone[9] == 1*) GOTO 0x002F
  3: 0x0028 [0x1D] PRINT_EVENT_MESSAGE(message_id=10244*)
    → "What's up? You changed your mind?"
  4: 0x002B [0x23] WAIT_FOR_DIALOG_INTERACTION
  5: 0x002C [0x01] GOTO 0x0043
  6: 0x002F [0x1D] PRINT_EVENT_MESSAGE(message_id=10239*)
    → "Ho there! Aren't you the adventurer known as <Player>? The winds carry word of your interest in the ruins of Li'Telor."
  7: 0x0032 [0x23] WAIT_FOR_DIALOG_INTERACTION
  8: 0x0033 [0x1D] PRINT_EVENT_MESSAGE(message_id=10240*)
    → "I know how to get in. Into the very center of the rrruins, I mean. I wouldn't mind just telling you, but...you know what they say, "Nothing of value should come for free.""
  9: 0x0036 [0x23] WAIT_FOR_DIALOG_INTERACTION
 10: 0x0037 [0x1D] PRINT_EVENT_MESSAGE(message_id=10241*)
    → "I have a little favor to ask. Underneath the Altepa Desert lie the expansive Quicksand Caves. I've got a hunch that there's some undiscovered trrreasure in there, still waiting to be claimed."
 11: 0x003A [0x23] WAIT_FOR_DIALOG_INTERACTION
 12: 0x003B [0x1D] PRINT_EVENT_MESSAGE(message_id=10242*)
    → "Just head a short way into the caves and pick up anything that strrrikes you as valuable. If I like what you brrring me, I'll tell you everything I know about the rrruins."
 13: 0x003E [0x23] WAIT_FOR_DIALOG_INTERACTION
 14: 0x003F [0x1D] PRINT_EVENT_MESSAGE(message_id=10243*)
    → "Not a bad deal, rrright? You scrrratch my back, and I'll scrrratch yours."
 15: 0x0042 [0x23] WAIT_FOR_DIALOG_INTERACTION

SUBROUTINE_0043:
 16: 0x0043 [0x24] CREATE_DIALOG(message_id=10245*, default_option=1*, option_flags=0*)
    → "Do a deal with Maryoh Comyujah? [Sounds fair./I can scratch my own back.]"
 17: 0x004A [0x25] WAIT_DIALOG_SELECT()
 18: 0x004B [0x02] IF !(Work_Zone[0] == 1*) GOTO 0x005D
 19: 0x0053 [0x1D] PRINT_EVENT_MESSAGE(message_id=10247*)
    → "What, you don't trrrust me? Well, I'll be arrround here for a while, so come on back if you change your mind."
 20: 0x0056 [0x23] WAIT_FOR_DIALOG_INTERACTION
 21: 0x0057 [0x01] GOTO 0x0080

SUBROUTINE_005D:
 22: 0x005D [0x42] SET_CLI_EVENT_CANCEL_DATA()
 23: 0x005E [0x5E] EventEntity goes idle (kills current action) (animation: "idl0")
 24: 0x0063 [0x1C] WAIT(3* ticks)
 25: 0x0066 [0x03] Work_Zone[1] = 1*
 26: 0x006B [0x6E] EventEntity uses emote 11*
 27: 0x0072 [0x99] Wait for EventEntity animation to complete
 28: 0x0077 [0x99] Wait for EventEntity animation to complete
 29: 0x007C [0x1D] PRINT_EVENT_MESSAGE(message_id=10246*)
    → "Okay then, it's a deal. The Quicksand Caves are expansive and have many entrances, but I'm sure you'll figure them out."
 30: 0x007F [0x23] WAIT_FOR_DIALOG_INTERACTION

SUBROUTINE_0080:
 31: 0x0080 [0x21] END_EVENT
 32: 0x0081 [0x00] END_REQSTACK()
```

#### Data or dead code:

```
# Dead code (unreachable instructions):
     0x005A [0x01] GOTO 0x005D
```

### Event 82

#### Metadata

| Field        | Value    |
|--------------|----------|
| Entrypoint   | 0x0082   |
| Data Size    | 12 bytes |
| Instructions | 6        |

```
      00 01 02 03 04 05 06 07  08 09 0A 0B 0C 0D 0E 0F
      -- -- -- -- -- -- -- --  -- -- -- -- -- -- -- --
0080:       1A 54 02 1A C2 02  1D 11 80 23 21 00          .T.......#!.  
```

#### Opcodes

```
  0: 0x0082 [0x1A] CALL_SUBROUTINE(address=0x0254)
  1: 0x0085 [0x1A] CALL_SUBROUTINE(address=0x02C2)
  2: 0x0088 [0x1D] PRINT_EVENT_MESSAGE(message_id=10248*)
    → "My hunter's instinct tells me that there's something unusual beyond that weight-operated device in the caves."
  3: 0x008B [0x23] WAIT_FOR_DIALOG_INTERACTION
  4: 0x008C [0x21] END_EVENT
  5: 0x008D [0x00] END_REQSTACK()
```

### Event 83

#### Metadata

| Field        | Value     |
|--------------|-----------|
| Entrypoint   | 0x008E    |
| Data Size    | 426 bytes |
| Instructions | 58        |

```
      00 01 02 03 04 05 06 07  08 09 0A 0B 0C 0D 0E 0F
      -- -- -- -- -- -- -- --  -- -- -- -- -- -- -- --
0080:                                            42 1A                B.
0090: 95 03 46 01 38 12 80 29  10 F0 FF FF 7F 08 80 F0  ..F.8..)........
00A0: FF FF 7F 1C 04 80 45 13  80 F0 FF FF 7F F0 FF FF  ......E.........
00B0: 7F 7A 65 30 31 0C 80 45  14 80 F0 FF FF 7F F0 FF  .ze01..E........
00C0: FF 7F 66 64 69 32 0C 80  1A 54 02 6E F8 FF FF 7F  ..fdi2...T.n....
00D0: 0F 80 99 F8 FF FF 7F 99  F8 FF FF 7F 1D 15 80 23  ...............#
00E0: 66 16 80 F8 FF FF 7F F8  FF FF 7F 74 6C 6B 30 1D  f..........tlk0.
00F0: 17 80 23 1D 18 80 23 66  16 80 F8 FF FF 7F F8 FF  ..#...#f........
0100: FF 7F 74 6C 6B 32 53 F8  FF FF 7F F8 FF FF 7F 74  ..tlk2S........t
0110: 6C 6B 32 52 13 80 F0 FF  FF 7F F0 FF FF 7F 7A 65  lk2R..........ze
0120: 30 31 45 13 80 F0 FF FF  7F F0 FF FF 7F 7A 65 30  01E..........ze0
0130: 32 0C 80 81 00 03 70 0F  01 66 16 80 F8 FF FF 7F  2.....p..f......
0140: F8 FF FF 7F 74 68 6B 31  1D 19 80 23 1D 1A 80 23  ....thk1...#...#
0150: 1D 1B 80 23 1D 1C 80 23  81 01 03 70 0F 01 66 16  ...#...#...p..f.
0160: 80 F8 FF FF 7F F8 FF FF  7F 74 68 6B 32 53 F8 FF  .........thk2S..
0170: FF 7F F8 FF FF 7F 74 68  6B 32 52 13 80 F0 FF FF  ......thk2R.....
0180: 7F F0 FF FF 7F 7A 65 30  32 45 13 80 F0 FF FF 7F  .....ze02E......
0190: F0 FF FF 7F 7A 65 30 33  0C 80 03 02 10 1D 80 66  ....ze03.......f
01A0: 16 80 F8 FF FF 7F F8 FF  FF 7F 70 61 73 30 1D 1E  ..........pas0..
01B0: 80 23 53 F8 FF FF 7F F8  FF FF 7F 70 61 73 30 52  .#S........pas0R
01C0: 13 80 F0 FF FF 7F F0 FF  FF 7F 7A 65 30 33 45 13  ..........ze03E.
01D0: 80 F0 FF FF 7F F0 FF FF  7F 7A 65 30 34 0C 80 66  .........ze04..f
01E0: 16 80 F8 FF FF 7F F8 FF  FF 7F 74 6C 6B 30 1D 1F  ..........tlk0..
01F0: 80 23 66 16 80 F8 FF FF  7F F8 FF FF 7F 74 6C 6B  .#f..........tlk
0200: 32 53 F8 FF FF 7F F8 FF  FF 7F 74 6C 6B 32 1A 95  2S........tlk2..
0210: 03 1C 20 80 52 13 80 F0  FF FF 7F F0 FF FF 7F 7A  .. .R..........z
0220: 65 30 34 46 00 45 14 80  F0 FF FF 7F F0 FF FF 7F  e04F.E..........
0230: 66 64 69 32 0C 80 21 00                           fdi2..!.        
```

#### Opcodes

```
  0: 0x008E [0x42] SET_CLI_EVENT_CANCEL_DATA()
  1: 0x008F [0x1A] CALL_SUBROUTINE(address=0x0395)
  2: 0x0092 [0x46] CAMERA_CONTROL: Disable user control
  3: 0x0094 [0x38] SET_CLIENT_EVENT_MODE(mode=19*)
  4: 0x0097 [0x29] REQ_SET_WAIT(priority=0x10, entity_id=LocalPlayer, tag_num=0x08)
  5: 0x009E [0x80] LOAD_WAIT(entity=LocalPlayer)
  6: 0x00A3 [0x1C] WAIT(1* ticks)
  7: 0x00A6 [0x45] LOAD_SCHEDULED_TASK: Load scheduler "ze01" with entities [LocalPlayer, LocalPlayer], work=[233*, 0*]
  8: 0x00B7 [0x45] LOAD_SCHEDULED_TASK: Load scheduler "fdi2" with entities [LocalPlayer, LocalPlayer], work=[200*, 0*]
  9: 0x00C8 [0x1A] CALL_SUBROUTINE(address=0x0254)
 10: 0x00CB [0x6E] EventEntity uses emote 11*
 11: 0x00D2 [0x99] Wait for EventEntity animation to complete
 12: 0x00D7 [0x99] Wait for EventEntity animation to complete
 13: 0x00DC [0x1D] PRINT_EVENT_MESSAGE(message_id=10249*)
    → "Wow, this is incrrredible!"
 14: 0x00DF [0x23] WAIT_FOR_DIALOG_INTERACTION
 15: 0x00E0 [0x66] LOAD_EXT_SCHEDULER_MAIN: Load scheduler "tlk0" with entities [EventEntity, EventEntity], work=50*
 16: 0x00EF [0x1D] PRINT_EVENT_MESSAGE(message_id=10250*)
    → "Now listen carefully, and I'll tell you what I know about the rrruins, just like I prrromised."
 17: 0x00F2 [0x23] WAIT_FOR_DIALOG_INTERACTION
 18: 0x00F3 [0x1D] PRINT_EVENT_MESSAGE(message_id=10251*)
    → "What I'm about to tell you happened long before I came to Kuzotz. I went alone to explore Li'Telor, a place that has been known as a holy land since ancient times."
 19: 0x00F6 [0x23] WAIT_FOR_DIALOG_INTERACTION
 20: 0x00F7 [0x66] LOAD_EXT_SCHEDULER_MAIN: Load scheduler "tlk2" with entities [EventEntity, EventEntity], work=50*
 21: 0x0106 [0x53] WAIT_SCHEDULER_TASK: Wait for scheduler "tlk2" with entities [EventEntity, EventEntity]
 22: 0x0113 [0x52] END_LOAD_SCHEDULER: End scheduler "ze01" with entities [LocalPlayer, LocalPlayer], work=233*
 23: 0x0122 [0x45] LOAD_SCHEDULED_TASK: Load scheduler "ze02" with entities [LocalPlayer, LocalPlayer], work=[233*, 0*]
 24: 0x0133 [0x81] SET_ENTITY_BLINKING(blink_flag=0x00, entity=Maryoh Comyujah (ID: 17788931/0x010F7003))
 25: 0x0139 [0x66] LOAD_EXT_SCHEDULER_MAIN: Load scheduler "thk1" with entities [EventEntity, EventEntity], work=50*
 26: 0x0148 [0x1D] PRINT_EVENT_MESSAGE(message_id=10252*)
    → "I was traveling through a dense fog and, though it embarrasses me to rrrecall, completely lost my way. After wandering for a time, I somehow found myself at the rrruins."
 27: 0x014B [0x23] WAIT_FOR_DIALOG_INTERACTION
 28: 0x014C [0x1D] PRINT_EVENT_MESSAGE(message_id=10253*)
    → "What I saw there, you already know. Those huge statues facing one another in that great hall, and beyond... The immovable wall that bars the way into the heart of the rrruins."
 29: 0x014F [0x23] WAIT_FOR_DIALOG_INTERACTION
 30: 0x0150 [0x1D] PRINT_EVENT_MESSAGE(message_id=10254*)
    → "I searched every inch of that place. And then I found it. A mysterrrious crystal glowing with a clear, blue light."
 31: 0x0153 [0x23] WAIT_FOR_DIALOG_INTERACTION
 32: 0x0154 [0x1D] PRINT_EVENT_MESSAGE(message_id=10255*)
    → "I don't know why it was there, but it was shining from below the surface of the lake in the great hall. ...Glowing as if in rrresponse to the moonlight that poured in from above."
 33: 0x0157 [0x23] WAIT_FOR_DIALOG_INTERACTION
 34: 0x0158 [0x81] SET_ENTITY_BLINKING(blink_flag=0x01, entity=Maryoh Comyujah (ID: 17788931/0x010F7003))
 35: 0x015E [0x66] LOAD_EXT_SCHEDULER_MAIN: Load scheduler "thk2" with entities [EventEntity, EventEntity], work=50*
 36: 0x016D [0x53] WAIT_SCHEDULER_TASK: Wait for scheduler "thk2" with entities [EventEntity, EventEntity]
 37: 0x017A [0x52] END_LOAD_SCHEDULER: End scheduler "ze02" with entities [LocalPlayer, LocalPlayer], work=233*
 38: 0x0189 [0x45] LOAD_SCHEDULED_TASK: Load scheduler "ze03" with entities [LocalPlayer, LocalPlayer], work=[233*, 0*]
 39: 0x019A [0x03] Work_Zone[2] = 452*
 40: 0x019F [0x66] LOAD_EXT_SCHEDULER_MAIN: Load scheduler "pas0" with entities [EventEntity, EventEntity], work=50*
 41: 0x01AE [0x1D] PRINT_EVENT_MESSAGE(message_id=10256*)
    → "This is that $3. I brought it back with me thinking I could sell it, but I haven't been able to find a buyer. I might as well give it to you."
 42: 0x01B1 [0x23] WAIT_FOR_DIALOG_INTERACTION
 43: 0x01B2 [0x53] WAIT_SCHEDULER_TASK: Wait for scheduler "pas0" with entities [EventEntity, EventEntity]
 44: 0x01BF [0x52] END_LOAD_SCHEDULER: End scheduler "ze03" with entities [LocalPlayer, LocalPlayer], work=233*
 45: 0x01CE [0x45] LOAD_SCHEDULED_TASK: Load scheduler "ze04" with entities [LocalPlayer, LocalPlayer], work=[233*, 0*]
 46: 0x01DF [0x66] LOAD_EXT_SCHEDULER_MAIN: Load scheduler "tlk0" with entities [EventEntity, EventEntity], work=50*
 47: 0x01EE [0x1D] PRINT_EVENT_MESSAGE(message_id=10257*)
    → "Place it into the hollow in the center of that wall and see what happens for yourself. You wouldn't want me to spoil it for you now, would you? Hehehe."
 48: 0x01F1 [0x23] WAIT_FOR_DIALOG_INTERACTION
 49: 0x01F2 [0x66] LOAD_EXT_SCHEDULER_MAIN: Load scheduler "tlk2" with entities [EventEntity, EventEntity], work=50*
 50: 0x0201 [0x53] WAIT_SCHEDULER_TASK: Wait for scheduler "tlk2" with entities [EventEntity, EventEntity]
 51: 0x020E [0x1A] CALL_SUBROUTINE(address=0x0395)
 52: 0x0211 [0x1C] WAIT(30* ticks)
 53: 0x0214 [0x52] END_LOAD_SCHEDULER: End scheduler "ze04" with entities [LocalPlayer, LocalPlayer], work=233*
 54: 0x0223 [0x46] CAMERA_CONTROL: Restore default settings
 55: 0x0225 [0x45] LOAD_SCHEDULED_TASK: Load scheduler "fdi2" with entities [LocalPlayer, LocalPlayer], work=[200*, 0*]
 56: 0x0236 [0x21] END_EVENT
 57: 0x0237 [0x00] END_REQSTACK()
```

### Event 84

#### Metadata

| Field        | Value    |
|--------------|----------|
| Entrypoint   | 0x0238   |
| Data Size    | 12 bytes |
| Instructions | 6        |

```
      00 01 02 03 04 05 06 07  08 09 0A 0B 0C 0D 0E 0F
      -- -- -- -- -- -- -- --  -- -- -- -- -- -- -- --
0230:                          1A 54 02 1A C2 02 1D 21          .T.....!
0240: 80 23 21 00                                       .#!.            
```

#### Opcodes

```
  0: 0x0238 [0x1A] CALL_SUBROUTINE(address=0x0254)
  1: 0x023B [0x1A] CALL_SUBROUTINE(address=0x02C2)
  2: 0x023E [0x1D] PRINT_EVENT_MESSAGE(message_id=10258*)
    → "Those rrruins in Li'Telor are interesting to visit on a night of the full moon. You learn anew that there are still many things in this world that are beyond our understanding."
  3: 0x0241 [0x23] WAIT_FOR_DIALOG_INTERACTION
  4: 0x0242 [0x21] END_EVENT
  5: 0x0243 [0x00] END_REQSTACK()
```

### Event 85

#### Metadata

| Field        | Value     |
|--------------|-----------|
| Entrypoint   | 0x0244    |
| Data Size    | 895 bytes |
| Instructions | 15        |

```
      00 01 02 03 04 05 06 07  08 09 0A 0B 0C 0D 0E 0F
      -- -- -- -- -- -- -- --  -- -- -- -- -- -- -- --
0240:             1A 54 02 1A  C2 02 1D 22 80 23 1D 23      .T.....".#.#
0250: 80 23 21 00 86 00 F8 FF  FF 7F 1E F0 FF FF 7F 6F  .#!............o
0260: 70 1B 66 0C 80 F8 FF FF  7F F8 FF FF 7F 74 6C 6B  p.f..........tlk
0270: 30 1B 66 0C 80 F8 FF FF  7F F8 FF FF 7F 74 6C 6B  0.f..........tlk
0280: 31 1B 66 24 80 F8 FF FF  7F F8 FF FF 7F 74 6C 6B  1.f$.........tlk
0290: 30 1B 66 25 80 F8 FF FF  7F F8 FF FF 7F 74 6C 6B  0.f%.........tlk
02A0: 30 1B 66 20 80 F8 FF FF  7F F8 FF FF 7F 74 6C 6B  0.f .........tlk
02B0: 30 1B 66 26 80 F8 FF FF  7F F8 FF FF 7F 74 6C 6B  0.f&.........tlk
02C0: 30 1B 66 16 80 F8 FF FF  7F F8 FF FF 7F 74 6C 6B  0.f..........tlk
02D0: 30 1B 66 27 80 F8 FF FF  7F F8 FF FF 7F 74 6C 6B  0.f'.........tlk
02E0: 30 1B 5B 28 80 F8 FF FF  7F F8 FF FF 7F 74 6C 6B  0.[(.........tlk
02F0: 30 1B 5B 29 80 F8 FF FF  7F F8 FF FF 7F 74 6C 6B  0.[).........tlk
0300: 30 1B 5B 2A 80 F8 FF FF  7F F8 FF FF 7F 74 6C 6B  0.[*.........tlk
0310: 30 1B 5B 2B 80 F8 FF FF  7F F8 FF FF 7F 74 6C 6B  0.[+.........tlk
0320: 30 1B 5B 27 80 F8 FF FF  7F F8 FF FF 7F 74 6C 62  0.['.........tlb
0330: 30 1B 45 14 80 F0 FF FF  7F F0 FF FF 7F 66 64 69  0.E..........fdi
0340: 30 0C 80 55 14 80 F0 FF  FF 7F F0 FF FF 7F 66 64  0..U..........fd
0350: 69 30 1B 45 14 80 F0 FF  FF 7F F0 FF FF 7F 66 64  i0.E..........fd
0360: 6F 30 0C 80 55 14 80 F0  FF FF 7F F0 FF FF 7F 66  o0..U..........f
0370: 64 6F 30 1B 45 14 80 F0  FF FF 7F F0 FF FF 7F 66  do0.E..........f
0380: 64 69 31 0C 80 55 14 80  F0 FF FF 7F F0 FF FF 7F  di1..U..........
0390: 66 64 69 31 1B 45 14 80  F0 FF FF 7F F0 FF FF 7F  fdi1.E..........
03A0: 66 64 6F 31 0C 80 55 14  80 F0 FF FF 7F F0 FF FF  fdo1..U.........
03B0: 7F 66 64 6F 31 1B 45 2C  80 F0 FF FF 7F F0 FF FF  .fdo1.E,........
03C0: 7F 77 68 69 31 0C 80 55  2C 80 F0 FF FF 7F F0 FF  .whi1..U,.......
03D0: FF 7F 77 68 69 31 1B 45  2C 80 F0 FF FF 7F F0 FF  ..whi1.E,.......
03E0: FF 7F 77 68 6F 31 0C 80  55 2C 80 F0 FF FF 7F F0  ..who1..U,......
03F0: FF FF 7F 77 68 6F 31 1B  45 2C 80 F0 FF FF 7F F0  ...who1.E,......
0400: FF FF 7F 77 68 6F 32 0C  80 55 2C 80 F0 FF FF 7F  ...who2..U,.....
0410: F0 FF FF 7F 77 68 6F 32  1B 45 2C 80 F0 FF FF 7F  ....who2.E,.....
0420: F0 FF FF 7F 77 68 6F 33  0C 80 55 2C 80 F0 FF FF  ....who3..U,....
0430: 7F F0 FF FF 7F 77 68 6F  33 1B 62 04 80 F0 FF FF  .....who3.b.....
0440: 7F F0 FF FF 7F 6D 61 69  6E 0C 80 1C 2D 80 45 14  .....main...-.E.
0450: 80 F0 FF FF 7F F0 FF FF  7F 66 64 6F 31 0C 80 55  .........fdo1..U
0460: 14 80 F0 FF FF 7F F0 FF  FF 7F 66 64 6F 31 1B 45  ..........fdo1.E
0470: 14 80 F0 FF FF 7F F0 FF  FF 7F 66 64 69 31 0C 80  ..........fdi1..
0480: 62 2E 80 F0 FF FF 7F F0  FF FF 7F 6D 61 69 6E 0C  b..........main.
0490: 80 1C 20 80 55 14 80 F0  FF FF 7F F0 FF FF 7F 66  .. .U..........f
04A0: 64 69 31 1B 45 14 80 F0  FF FF 7F F0 FF FF 7F 62  di1.E..........b
04B0: 6C 6F 6E 0C 80 45 2C 80  F0 FF FF 7F F0 FF FF 7F  lon..E,.........
04C0: 62 6C 6F 6E 0C 80 1B 45  2C 80 F0 FF FF 7F F0 FF  blon...E,.......
04D0: FF 7F 77 68 69 30 0C 80  55 2C 80 F0 FF FF 7F F0  ..whi0..U,......
04E0: FF FF 7F 77 68 69 30 1B  45 2C 80 F0 FF FF 7F F0  ...whi0.E,......
04F0: FF FF 7F 77 68 6F 30 0C  80 55 2C 80 F0 FF FF 7F  ...who0..U,.....
0500: F0 FF FF 7F 77 68 6F 30  1B 45 2F 80 F0 FF FF 7F  ....who0.E/.....
0510: F0 FF FF 7F 65 66 6F 6E  0C 80 55 2F 80 F0 FF FF  ....efon..U/....
0520: 7F F0 FF FF 7F 65 66 6F  6E 1B 45 14 80 F0 FF FF  .....efon.E.....
0530: 7F F0 FF FF 7F 66 64 69  73 0C 80 1B 45 14 80 F0  .....fdis...E...
0540: FF FF 7F F0 FF FF 7F 66  64 6F 73 0C 80 55 14 80  .......fdos..U..
0550: F0 FF FF 7F F0 FF FF 7F  66 64 6F 73 1B 45 14 80  ........fdos.E..
0560: F0 FF FF 7F F0 FF FF 7F  66 64 69 66 0C 80 1B 45  ........fdif...E
0570: 14 80 F0 FF FF 7F F0 FF  FF 7F 66 64 6F 66 0C 80  ..........fdof..
0580: 55 14 80 F0 FF FF 7F F0  FF FF 7F 66 64 6F 66 1B  U..........fdof.
0590: 45 14 80 F0 FF FF 7F F0  FF FF 7F 66 64 69 70 0C  E..........fdip.
05A0: 80 1B 45 14 80 F0 FF FF  7F F0 FF FF 7F 66 64 6F  ..E..........fdo
05B0: 70 0C 80 55 14 80 F0 FF  FF 7F F0 FF FF 7F 66 64  p..U..........fd
05C0: 6F 70 1B                                          op.             
```

#### Opcodes

```
  0: 0x0244 [0x1A] CALL_SUBROUTINE(address=0x0254)
  1: 0x0247 [0x1A] CALL_SUBROUTINE(address=0x02C2)
  2: 0x024A [0x1D] PRINT_EVENT_MESSAGE(message_id=10259*)
    → "Ho, <Player>. What did you see? There's nothing in there, rrright? I already knew that, though... Huh? You saw a floating island in there?"
  3: 0x024D [0x23] WAIT_FOR_DIALOG_INTERACTION
  4: 0x024E [0x1D] PRINT_EVENT_MESSAGE(message_id=10260*)
    → "Haha, nice try. If you're gonna make something up, try for something a little more believable. There's nothing at the top of those stairs besides that altar."
  5: 0x0251 [0x23] WAIT_FOR_DIALOG_INTERACTION
  6: 0x0252 [0x21] END_EVENT
  7: 0x0253 [0x00] END_REQSTACK()

SUBROUTINE_0254:
  8: 0x0254 [0x86] EventEntity->Render.Flags3 = Flags3  // No change (flag=0)
  9: 0x025A [0x1E] EventEntity looks at LocalPlayer and starts talking
 10: 0x025F [0x6F] WAIT_FRAME_DELAY: Yield until WaitTime reaches zero
 11: 0x0260 [0x70] WAIT_ENTITY_RENDER_FLAG: Wait while EventEntity->Render.Flags3 bit 2 is set (cancel turn if not)
 12: 0x0261 [0x1B] RETURN

SUBROUTINE_02C2:
 13: 0x02C2 [0x66] LOAD_EXT_SCHEDULER_MAIN: Load scheduler "tlk0" with entities [EventEntity, EventEntity], work=50*
 14: 0x02D1 [0x1B] RETURN
```

#### Data or dead code:

```
# Dead code (unreachable instructions):
     0x0262 [0x66] LOAD_EXT_SCHEDULER_MAIN: Load scheduler "tlk0" with entities [EventEntity, EventEntity], work=0*
     0x0271 [0x1B] RETURN
     0x0272 [0x66] LOAD_EXT_SCHEDULER_MAIN: Load scheduler "tlk1" with entities [EventEntity, EventEntity], work=0*
     0x0281 [0x1B] RETURN
     0x0282 [0x66] LOAD_EXT_SCHEDULER_MAIN: Load scheduler "tlk0" with entities [EventEntity, EventEntity], work=10*
     0x0291 [0x1B] RETURN
     0x0292 [0x66] LOAD_EXT_SCHEDULER_MAIN: Load scheduler "tlk0" with entities [EventEntity, EventEntity], work=20*
     0x02A1 [0x1B] RETURN
     0x02A2 [0x66] LOAD_EXT_SCHEDULER_MAIN: Load scheduler "tlk0" with entities [EventEntity, EventEntity], work=30*
     0x02B1 [0x1B] RETURN
     0x02B2 [0x66] LOAD_EXT_SCHEDULER_MAIN: Load scheduler "tlk0" with entities [EventEntity, EventEntity], work=40*
     0x02C1 [0x1B] RETURN
# Dead code (unreachable instructions):
     0x02D2 [0x66] LOAD_EXT_SCHEDULER_MAIN: Load scheduler "tlk0" with entities [EventEntity, EventEntity], work=60*
     0x02E1 [0x1B] RETURN
     0x02E2 [0x5B] LOAD_EXT_SCHEDULER: Load scheduler "tlk0" with entities [EventEntity, EventEntity], work=5*
     0x02F1 [0x1B] RETURN
     0x02F2 [0x5B] LOAD_EXT_SCHEDULER: Load scheduler "tlk0" with entities [EventEntity, EventEntity], work=80*
     0x0301 [0x1B] RETURN
     0x0302 [0x5B] LOAD_EXT_SCHEDULER: Load scheduler "tlk0" with entities [EventEntity, EventEntity], work=238*
     0x0311 [0x1B] RETURN
     0x0312 [0x5B] LOAD_EXT_SCHEDULER: Load scheduler "tlk0" with entities [EventEntity, EventEntity], work=566*
     0x0321 [0x1B] RETURN
     0x0322 [0x5B] LOAD_EXT_SCHEDULER: Load scheduler "tlb0" with entities [EventEntity, EventEntity], work=60*
     0x0331 [0x1B] RETURN
     0x0332 [0x45] LOAD_SCHEDULED_TASK: Load scheduler "fdi0" with entities [LocalPlayer, LocalPlayer], work=[200*, 0*]
     0x0343 [0x55] WAIT_LOAD_SCHEDULER: Wait for scheduler "fdi0" with entities [LocalPlayer, LocalPlayer], work=200*
     0x0352 [0x1B] RETURN
     0x0353 [0x45] LOAD_SCHEDULED_TASK: Load scheduler "fdo0" with entities [LocalPlayer, LocalPlayer], work=[200*, 0*]
     0x0364 [0x55] WAIT_LOAD_SCHEDULER: Wait for scheduler "fdo0" with entities [LocalPlayer, LocalPlayer], work=200*
     0x0373 [0x1B] RETURN
     0x0374 [0x45] LOAD_SCHEDULED_TASK: Load scheduler "fdi1" with entities [LocalPlayer, LocalPlayer], work=[200*, 0*]
     0x0385 [0x55] WAIT_LOAD_SCHEDULER: Wait for scheduler "fdi1" with entities [LocalPlayer, LocalPlayer], work=200*
     0x0394 [0x1B] RETURN
     0x0395 [0x45] LOAD_SCHEDULED_TASK: Load scheduler "fdo1" with entities [LocalPlayer, LocalPlayer], work=[200*, 0*]
     0x03A6 [0x55] WAIT_LOAD_SCHEDULER: Wait for scheduler "fdo1" with entities [LocalPlayer, LocalPlayer], work=200*
     0x03B5 [0x1B] RETURN
     0x03B6 [0x45] LOAD_SCHEDULED_TASK: Load scheduler "whi1" with entities [LocalPlayer, LocalPlayer], work=[201*, 0*]
     0x03C7 [0x55] WAIT_LOAD_SCHEDULER: Wait for scheduler "whi1" with entities [LocalPlayer, LocalPlayer], work=201*
     0x03D6 [0x1B] RETURN
     0x03D7 [0x45] LOAD_SCHEDULED_TASK: Load scheduler "who1" with entities [LocalPlayer, LocalPlayer], work=[201*, 0*]
     0x03E8 [0x55] WAIT_LOAD_SCHEDULER: Wait for scheduler "who1" with entities [LocalPlayer, LocalPlayer], work=201*
     0x03F7 [0x1B] RETURN
     0x03F8 [0x45] LOAD_SCHEDULED_TASK: Load scheduler "who2" with entities [LocalPlayer, LocalPlayer], work=[201*, 0*]
     0x0409 [0x55] WAIT_LOAD_SCHEDULER: Wait for scheduler "who2" with entities [LocalPlayer, LocalPlayer], work=201*
     0x0418 [0x1B] RETURN
     0x0419 [0x45] LOAD_SCHEDULED_TASK: Load scheduler "who3" with entities [LocalPlayer, LocalPlayer], work=[201*, 0*]
     0x042A [0x55] WAIT_LOAD_SCHEDULER: Wait for scheduler "who3" with entities [LocalPlayer, LocalPlayer], work=201*
     0x0439 [0x1B] RETURN
     0x043A [0x62] LOAD_EVENT_SCHEDULER: Load scheduler "main" with entities [LocalPlayer, LocalPlayer], work=[1*, 0*]
     0x044B [0x1C] WAIT(45* ticks)
     0x044E [0x45] LOAD_SCHEDULED_TASK: Load scheduler "fdo1" with entities [LocalPlayer, LocalPlayer], work=[200*, 0*]
     0x045F [0x55] WAIT_LOAD_SCHEDULER: Wait for scheduler "fdo1" with entities [LocalPlayer, LocalPlayer], work=200*
     0x046E [0x1B] RETURN
     0x046F [0x45] LOAD_SCHEDULED_TASK: Load scheduler "fdi1" with entities [LocalPlayer, LocalPlayer], work=[200*, 0*]
     0x0480 [0x62] LOAD_EVENT_SCHEDULER: Load scheduler "main" with entities [LocalPlayer, LocalPlayer], work=[2*, 0*]
     0x0491 [0x1C] WAIT(30* ticks)
     0x0494 [0x55] WAIT_LOAD_SCHEDULER: Wait for scheduler "fdi1" with entities [LocalPlayer, LocalPlayer], work=200*
     0x04A3 [0x1B] RETURN
     0x04A4 [0x45] LOAD_SCHEDULED_TASK: Load scheduler "blon" with entities [LocalPlayer, LocalPlayer], work=[200*, 0*]
     0x04B5 [0x45] LOAD_SCHEDULED_TASK: Load scheduler "blon" with entities [LocalPlayer, LocalPlayer], work=[201*, 0*]
     0x04C6 [0x1B] RETURN
     0x04C7 [0x45] LOAD_SCHEDULED_TASK: Load scheduler "whi0" with entities [LocalPlayer, LocalPlayer], work=[201*, 0*]
     0x04D8 [0x55] WAIT_LOAD_SCHEDULER: Wait for scheduler "whi0" with entities [LocalPlayer, LocalPlayer], work=201*
     0x04E7 [0x1B] RETURN
     0x04E8 [0x45] LOAD_SCHEDULED_TASK: Load scheduler "who0" with entities [LocalPlayer, LocalPlayer], work=[201*, 0*]
     0x04F9 [0x55] WAIT_LOAD_SCHEDULER: Wait for scheduler "who0" with entities [LocalPlayer, LocalPlayer], work=201*
     0x0508 [0x1B] RETURN
     0x0509 [0x45] LOAD_SCHEDULED_TASK: Load scheduler "efon" with entities [LocalPlayer, LocalPlayer], work=[215*, 0*]
     0x051A [0x55] WAIT_LOAD_SCHEDULER: Wait for scheduler "efon" with entities [LocalPlayer, LocalPlayer], work=215*
     0x0529 [0x1B] RETURN
     0x052A [0x45] LOAD_SCHEDULED_TASK: Load scheduler "fdis" with entities [LocalPlayer, LocalPlayer], work=[200*, 0*]
     0x053B [0x1B] RETURN
     0x053C [0x45] LOAD_SCHEDULED_TASK: Load scheduler "fdos" with entities [LocalPlayer, LocalPlayer], work=[200*, 0*]
     0x054D [0x55] WAIT_LOAD_SCHEDULER: Wait for scheduler "fdos" with entities [LocalPlayer, LocalPlayer], work=200*
     0x055C [0x1B] RETURN
     0x055D [0x45] LOAD_SCHEDULED_TASK: Load scheduler "fdif" with entities [LocalPlayer, LocalPlayer], work=[200*, 0*]
     0x056E [0x1B] RETURN
     0x056F [0x45] LOAD_SCHEDULED_TASK: Load scheduler "fdof" with entities [LocalPlayer, LocalPlayer], work=[200*, 0*]
     0x0580 [0x55] WAIT_LOAD_SCHEDULER: Wait for scheduler "fdof" with entities [LocalPlayer, LocalPlayer], work=200*
     0x058F [0x1B] RETURN
     0x0590 [0x45] LOAD_SCHEDULED_TASK: Load scheduler "fdip" with entities [LocalPlayer, LocalPlayer], work=[200*, 0*]
     0x05A1 [0x1B] RETURN
     0x05A2 [0x45] LOAD_SCHEDULED_TASK: Load scheduler "fdop" with entities [LocalPlayer, LocalPlayer], work=[200*, 0*]
     0x05B3 [0x55] WAIT_LOAD_SCHEDULER: Wait for scheduler "fdop" with entities [LocalPlayer, LocalPlayer], work=200*
     0x05C2 [0x1B] RETURN
```

### Event 13

#### Metadata

| Field        | Value    |
|--------------|----------|
| Entrypoint   | 0x05C3   |
| Data Size    | 12 bytes |
| Instructions | 3        |

```
      00 01 02 03 04 05 06 07  08 09 0A 0B 0C 0D 0E 0F
      -- -- -- -- -- -- -- --  -- -- -- -- -- -- -- --
05C0:          92 01 F8 FF FF  7F 80 F8 FF FF 7F 00        ............ 
```

#### Opcodes

```
  0: 0x05C3 [0x92] EventEntity->Render.Flags3 ^= 0x01
  1: 0x05C9 [0x80] LOAD_WAIT(entity=EventEntity)
  2: 0x05CE [0x00] END_REQSTACK()
```

### Event 15

#### Metadata

| Field        | Value    |
|--------------|----------|
| Entrypoint   | 0x05CF   |
| Data Size    | 12 bytes |
| Instructions | 3        |

```
      00 01 02 03 04 05 06 07  08 09 0A 0B 0C 0D 0E 0F
      -- -- -- -- -- -- -- --  -- -- -- -- -- -- -- --
05C0:                                               92                 .
05D0: 01 F8 FF FF 7F 80 F8 FF  FF 7F 00                 ...........     
```

#### Opcodes

```
  0: 0x05CF [0x92] EventEntity->Render.Flags3 ^= 0x01
  1: 0x05D5 [0x80] LOAD_WAIT(entity=EventEntity)
  2: 0x05DA [0x00] END_REQSTACK()
```

### Event 162

#### Metadata

| Field        | Value   |
|--------------|---------|
| Entrypoint   | 0x05DB  |
| Data Size    | 7 bytes |
| Instructions | 2       |

```
      00 01 02 03 04 05 06 07  08 09 0A 0B 0C 0D 0E 0F
      -- -- -- -- -- -- -- --  -- -- -- -- -- -- -- --
05D0:                                   92 01 F8 FF FF             .....
05E0: 7F 00                                             ..              
```

#### Opcodes

```
  0: 0x05DB [0x92] EventEntity->Render.Flags3 ^= 0x01
  1: 0x05E1 [0x00] END_REQSTACK()
```

### Event 165

#### Metadata

| Field        | Value   |
|--------------|---------|
| Entrypoint   | 0x05E2  |
| Data Size    | 7 bytes |
| Instructions | 2       |

```
      00 01 02 03 04 05 06 07  08 09 0A 0B 0C 0D 0E 0F
      -- -- -- -- -- -- -- --  -- -- -- -- -- -- -- --
05E0:       92 01 F8 FF FF 7F  00                         .......       
```

#### Opcodes

```
  0: 0x05E2 [0x92] EventEntity->Render.Flags3 ^= 0x01
  1: 0x05E8 [0x00] END_REQSTACK()
```

### Event 155

#### Metadata

| Field        | Value   |
|--------------|---------|
| Entrypoint   | 0x05E9  |
| Data Size    | 7 bytes |
| Instructions | 2       |

```
      00 01 02 03 04 05 06 07  08 09 0A 0B 0C 0D 0E 0F
      -- -- -- -- -- -- -- --  -- -- -- -- -- -- -- --
05E0:                             92 01 F8 FF FF 7F 00           .......
```

#### Opcodes

```
  0: 0x05E9 [0x92] EventEntity->Render.Flags3 ^= 0x01
  1: 0x05EF [0x00] END_REQSTACK()
```

### Event 156

#### Metadata

| Field        | Value   |
|--------------|---------|
| Entrypoint   | 0x05F0  |
| Data Size    | 7 bytes |
| Instructions | 2       |

```
      00 01 02 03 04 05 06 07  08 09 0A 0B 0C 0D 0E 0F
      -- -- -- -- -- -- -- --  -- -- -- -- -- -- -- --
05F0: 92 01 F8 FF FF 7F 00                              .......         
```

#### Opcodes

```
  0: 0x05F0 [0x92] EventEntity->Render.Flags3 ^= 0x01
  1: 0x05F6 [0x00] END_REQSTACK()
```

### Event 157

#### Metadata

| Field        | Value   |
|--------------|---------|
| Entrypoint   | 0x05F7  |
| Data Size    | 7 bytes |
| Instructions | 2       |

```
      00 01 02 03 04 05 06 07  08 09 0A 0B 0C 0D 0E 0F
      -- -- -- -- -- -- -- --  -- -- -- -- -- -- -- --
05F0:                      92  01 F8 FF FF 7F 00               .......  
```

#### Opcodes

```
  0: 0x05F7 [0x92] EventEntity->Render.Flags3 ^= 0x01
  1: 0x05FD [0x00] END_REQSTACK()
```

### Event 158

#### Metadata

| Field        | Value   |
|--------------|---------|
| Entrypoint   | 0x05FE  |
| Data Size    | 7 bytes |
| Instructions | 2       |

```
      00 01 02 03 04 05 06 07  08 09 0A 0B 0C 0D 0E 0F
      -- -- -- -- -- -- -- --  -- -- -- -- -- -- -- --
05F0:                                            92 01                ..
0600: F8 FF FF 7F 00                                    .....           
```

#### Opcodes

```
  0: 0x05FE [0x92] EventEntity->Render.Flags3 ^= 0x01
  1: 0x0604 [0x00] END_REQSTACK()
```
