# 17789027

## Common Data

| Field            | Value           |
|------------------|-----------------|
| Zone             | Rabao (ID: 247) |
| Block Size       | 29848 bytes     |
| Total Events     | 4               |
| References Count | 468             |

## List of Events

| Event ID              | Entrypoint   |   Size |   Instructions |
|-----------------------|--------------|--------|----------------|
| [65535](#event-65535) | 0x0000       |    658 |             62 |
| [178](#event-178)     | 0x0292       |   2000 |            380 |
| [179](#event-179)     | 0x0A62       |   8404 |            957 |
| [180](#event-180)     | 0x2B36       |  16879 |           2805 |

## DAT References (imed_data)

|   Index | Hex Value   |   Dec Value |
|---------|-------------|-------------|
|       0 | 0x00C8      |         200 |
|       1 | 0x0000      |           0 |
|       2 | 0x00C9      |         201 |
|       3 | 0x0001      |           1 |
|       4 | 0x002D      |          45 |
|       5 | 0x0002      |           2 |
|       6 | 0x001E      |          30 |
|       7 | 0x00D7      |         215 |
|       8 | 0x0005      |           5 |
|       9 | 0x0003      |           3 |
|      10 | 0x3002      |       12290 |
|      11 | 0x0004      |           4 |
|      12 | 0x2710      |       10000 |
|      13 | 0x2FFC      |       12284 |
|      14 | 0x3003      |       12291 |
|      15 | 0x2FFD      |       12285 |
|      16 | 0x2FFE      |       12286 |
|      17 | 0x0019      |          25 |
|      18 | 0x0009      |           9 |
|      19 | 0x000B      |          11 |
|      20 | 0x2FF7      |       12279 |
|      21 | 0x000A      |          10 |
|      22 | 0x001B      |          27 |
|      23 | 0x001F      |          31 |
|      24 | 0x2FF8      |       12280 |
|      25 | 0x000D      |          13 |
|      26 | 0x2FF9      |       12281 |
|      27 | 0x0006      |           6 |
|      28 | 0x0007      |           7 |
|      29 | 0x0008      |           8 |
|      30 | 0x2FFA      |       12282 |
|      31 | 0x07C1      |        1985 |
|      32 | 0x001D      |          29 |
|      33 | 0x001C      |          28 |
|      34 | 0x2FFB      |       12283 |
|      35 | 0x3000      |       12288 |
|      36 | 0x3001      |       12289 |
|      37 | 0x0010      |          16 |
|      38 | 0x0013      |          19 |
|      39 | 0x3004      |       12292 |
|      40 | 0x0014      |          20 |
|      41 | 0x0016      |          22 |
|      42 | 0x3005      |       12293 |
|      43 | 0x3006      |       12294 |
|      44 | 0x0017      |          23 |
|      45 | 0x0018      |          24 |
|      46 | 0x3007      |       12295 |
|      47 | 0x3008      |       12296 |
|      48 | 0x1AD5      |        6869 |
|      49 | 0x0093      |         147 |
|      50 | 0x00FF      |         255 |
|      51 | 0x3009      |       12297 |
|      52 | 0x00A8      |         168 |
|      53 | 0x000C      |          12 |
|      54 | 0x000E      |          14 |
|      55 | 0x000F      |          15 |
|      56 | 0x300A      |       12298 |
|      57 | 0x0078      |         120 |
|      58 | 0x300B      |       12299 |
|      59 | 0x003C      |          60 |
|      60 | 0x0325      |         805 |
|      61 | 0x300C      |       12300 |
|      62 | 0x300D      |       12301 |
|      63 | 0x300E      |       12302 |
|      64 | 0x0011      |          17 |
|      65 | 0x0012      |          18 |
|      66 | 0x0015      |          21 |
|      67 | 0x001A      |          26 |
|      68 | 0x0020      |          32 |
|      69 | 0x0021      |          33 |
|      70 | 0x0022      |          34 |
|      71 | 0x0023      |          35 |
|      72 | 0x0024      |          36 |
|      73 | 0x0025      |          37 |
|      74 | 0x0026      |          38 |
|      75 | 0x0027      |          39 |
|      76 | 0x0028      |          40 |
|      77 | 0x0029      |          41 |
|      78 | 0x002A      |          42 |
|      79 | 0x002B      |          43 |
|      80 | 0x002C      |          44 |
|      81 | 0x002E      |          46 |
|      82 | 0x002F      |          47 |
|      83 | 0x300F      |       12303 |
|      84 | 0x0030      |          48 |
|      85 | 0x0031      |          49 |
|      86 | 0x0032      |          50 |
|      87 | 0x0033      |          51 |
|      88 | 0x0034      |          52 |
|      89 | 0x0035      |          53 |
|      90 | 0x0036      |          54 |
|      91 | 0x0037      |          55 |
|      92 | 0x0038      |          56 |
|      93 | 0x0039      |          57 |
|      94 | 0x003A      |          58 |
|      95 | 0x003B      |          59 |
|      96 | 0x003D      |          61 |
|      97 | 0x003E      |          62 |
|      98 | 0x003F      |          63 |
|      99 | 0x0040      |          64 |
|     100 | 0x0041      |          65 |
|     101 | 0x0042      |          66 |
|     102 | 0x0043      |          67 |
|     103 | 0x3010      |       12304 |
|     104 | 0x3011      |       12305 |
|     105 | 0x0048      |          72 |
|     106 | 0x0049      |          73 |
|     107 | 0x004A      |          74 |
|     108 | 0x004B      |          75 |
|     109 | 0x004C      |          76 |
|     110 | 0x004D      |          77 |
|     111 | 0x004E      |          78 |
|     112 | 0x004F      |          79 |
|     113 | 0x0050      |          80 |
|     114 | 0x0051      |          81 |
|     115 | 0x0052      |          82 |
|     116 | 0x0053      |          83 |
|     117 | 0x3012      |       12306 |
|     118 | 0x3013      |       12307 |
|     119 | 0x0058      |          88 |
|     120 | 0x0059      |          89 |
|     121 | 0x005A      |          90 |
|     122 | 0x005B      |          91 |
|     123 | 0x005C      |          92 |
|     124 | 0x005D      |          93 |
|     125 | 0x005E      |          94 |
|     126 | 0x005F      |          95 |
|     127 | 0x0060      |          96 |
|     128 | 0x0061      |          97 |
|     129 | 0x0062      |          98 |
|     130 | 0x0063      |          99 |
|     131 | 0x03C0      |         960 |
|     132 | 0x02EE      |         750 |
|     133 | 0x006C      |         108 |
|     134 | 0x006D      |         109 |
|     135 | 0x006E      |         110 |
|     136 | 0x0096      |         150 |
|     137 | 0x006F      |         111 |
|     138 | 0x00CC      |         204 |
|     139 | 0x00CD      |         205 |
|     140 | 0x00CE      |         206 |
|     141 | 0x00CF      |         207 |
|     142 | 0x012C      |         300 |
|     143 | 0x012D      |         301 |
|     144 | 0x012E      |         302 |
|     145 | 0x012F      |         303 |
|     146 | 0x3014      |       12308 |
|     147 | 0x3015      |       12309 |
|     148 | 0x0180      |         384 |
|     149 | 0x0181      |         385 |
|     150 | 0x0182      |         386 |
|     151 | 0x0183      |         387 |
|     152 | 0x0184      |         388 |
|     153 | 0x0185      |         389 |
|     154 | 0x0186      |         390 |
|     155 | 0x0187      |         391 |
|     156 | 0x0188      |         392 |
|     157 | 0x0189      |         393 |
|     158 | 0x018A      |         394 |
|     159 | 0x018B      |         395 |
|     160 | 0x0068      |         104 |
|     161 | 0x0069      |         105 |
|     162 | 0x006A      |         106 |
|     163 | 0x006B      |         107 |
|     164 | 0x01E0      |         480 |
|     165 | 0x01E1      |         481 |
|     166 | 0x01E2      |         482 |
|     167 | 0x01E3      |         483 |
|     168 | 0x3016      |       12310 |
|     169 | 0x0070      |         112 |
|     170 | 0x0071      |         113 |
|     171 | 0x0072      |         114 |
|     172 | 0x0073      |         115 |
|     173 | 0x024C      |         588 |
|     174 | 0x024D      |         589 |
|     175 | 0x024E      |         590 |
|     176 | 0x024F      |         591 |
|     177 | 0x0130      |         304 |
|     178 | 0x0131      |         305 |
|     179 | 0x0132      |         306 |
|     180 | 0x0133      |         307 |
|     181 | 0x3017      |       12311 |
|     182 | 0x3018      |       12312 |
|     183 | 0x3019      |       12313 |
|     184 | 0x301A      |       12314 |
|     185 | 0x0079      |         121 |
|     186 | 0x007A      |         122 |
|     187 | 0x007B      |         123 |
|     188 | 0x0064      |         100 |
|     189 | 0x0065      |         101 |
|     190 | 0x0066      |         102 |
|     191 | 0x0067      |         103 |
|     192 | 0x00D0      |         208 |
|     193 | 0x00D1      |         209 |
|     194 | 0x00D2      |         210 |
|     195 | 0x00D3      |         211 |
|     196 | 0x0134      |         308 |
|     197 | 0x0135      |         309 |
|     198 | 0x0136      |         310 |
|     199 | 0x0137      |         311 |
|     200 | 0x01E4      |         484 |
|     201 | 0x01E5      |         485 |
|     202 | 0x01E6      |         486 |
|     203 | 0x01E7      |         487 |
|     204 | 0x301B      |       12315 |
|     205 | 0x301C      |       12316 |
|     206 | 0x0080      |         128 |
|     207 | 0x0081      |         129 |
|     208 | 0x0082      |         130 |
|     209 | 0x0083      |         131 |
|     210 | 0x0084      |         132 |
|     211 | 0x0085      |         133 |
|     212 | 0x0086      |         134 |
|     213 | 0x0087      |         135 |
|     214 | 0x0244      |         580 |
|     215 | 0x0245      |         581 |
|     216 | 0x0246      |         582 |
|     217 | 0x0247      |         583 |
|     218 | 0x301D      |       12317 |
|     219 | 0x0088      |         136 |
|     220 | 0x0089      |         137 |
|     221 | 0x008A      |         138 |
|     222 | 0x008B      |         139 |
|     223 | 0x008C      |         140 |
|     224 | 0x008D      |         141 |
|     225 | 0x008E      |         142 |
|     226 | 0x008F      |         143 |
|     227 | 0x0090      |         144 |
|     228 | 0x0091      |         145 |
|     229 | 0x0092      |         146 |
|     230 | 0x0094      |         148 |
|     231 | 0x0095      |         149 |
|     232 | 0x0097      |         151 |
|     233 | 0x02A0      |         672 |
|     234 | 0x02A1      |         673 |
|     235 | 0x02A2      |         674 |
|     236 | 0x02A3      |         675 |
|     237 | 0x02A8      |         680 |
|     238 | 0x02A9      |         681 |
|     239 | 0x02AA      |         682 |
|     240 | 0x02AB      |         683 |
|     241 | 0x00C0      |         192 |
|     242 | 0x00C1      |         193 |
|     243 | 0x00C2      |         194 |
|     244 | 0x00C3      |         195 |
|     245 | 0x00CA      |         202 |
|     246 | 0x00CB      |         203 |
|     247 | 0x301E      |       12318 |
|     248 | 0x0098      |         152 |
|     249 | 0x0099      |         153 |
|     250 | 0x009A      |         154 |
|     251 | 0x009B      |         155 |
|     252 | 0x00C4      |         196 |
|     253 | 0x00C5      |         197 |
|     254 | 0x00C6      |         198 |
|     255 | 0x00C7      |         199 |
|     256 | 0x00A0      |         160 |
|     257 | 0x00A1      |         161 |
|     258 | 0x00A2      |         162 |
|     259 | 0x00A3      |         163 |
|     260 | 0x00A4      |         164 |
|     261 | 0x00A5      |         165 |
|     262 | 0x00A6      |         166 |
|     263 | 0x00A7      |         167 |
|     264 | 0x01E8      |         488 |
|     265 | 0x01E9      |         489 |
|     266 | 0x01EA      |         490 |
|     267 | 0x01EB      |         491 |
|     268 | 0x01EC      |         492 |
|     269 | 0x01ED      |         493 |
|     270 | 0x01EE      |         494 |
|     271 | 0x01EF      |         495 |
|     272 | 0x01F0      |         496 |
|     273 | 0x01F1      |         497 |
|     274 | 0x01F2      |         498 |
|     275 | 0x01F3      |         499 |
|     276 | 0x01F4      |         500 |
|     277 | 0x01F5      |         501 |
|     278 | 0x01F6      |         502 |
|     279 | 0x01F7      |         503 |
|     280 | 0x01F8      |         504 |
|     281 | 0x01F9      |         505 |
|     282 | 0x01FA      |         506 |
|     283 | 0x01FB      |         507 |
|     284 | 0x01FC      |         508 |
|     285 | 0x01FD      |         509 |
|     286 | 0x01FE      |         510 |
|     287 | 0x01FF      |         511 |
|     288 | 0x0200      |         512 |
|     289 | 0x0201      |         513 |
|     290 | 0x0202      |         514 |
|     291 | 0x0203      |         515 |
|     292 | 0x0204      |         516 |
|     293 | 0x0205      |         517 |
|     294 | 0x0206      |         518 |
|     295 | 0x0207      |         519 |
|     296 | 0x0208      |         520 |
|     297 | 0x0209      |         521 |
|     298 | 0x020A      |         522 |
|     299 | 0x020B      |         523 |
|     300 | 0x0360      |         864 |
|     301 | 0x0361      |         865 |
|     302 | 0x0362      |         866 |
|     303 | 0x0363      |         867 |
|     304 | 0x0364      |         868 |
|     305 | 0x0365      |         869 |
|     306 | 0x0366      |         870 |
|     307 | 0x0367      |         871 |
|     308 | 0x0368      |         872 |
|     309 | 0x0369      |         873 |
|     310 | 0x036A      |         874 |
|     311 | 0x036B      |         875 |
|     312 | 0x036C      |         876 |
|     313 | 0x036D      |         877 |
|     314 | 0x036E      |         878 |
|     315 | 0x036F      |         879 |
|     316 | 0x0370      |         880 |
|     317 | 0x0371      |         881 |
|     318 | 0x0372      |         882 |
|     319 | 0x0373      |         883 |
|     320 | 0x0374      |         884 |
|     321 | 0x0375      |         885 |
|     322 | 0x0376      |         886 |
|     323 | 0x0377      |         887 |
|     324 | 0x0378      |         888 |
|     325 | 0x0379      |         889 |
|     326 | 0x037A      |         890 |
|     327 | 0x037B      |         891 |
|     328 | 0x037C      |         892 |
|     329 | 0x037D      |         893 |
|     330 | 0x037E      |         894 |
|     331 | 0x037F      |         895 |
|     332 | 0x0380      |         896 |
|     333 | 0x0381      |         897 |
|     334 | 0x0382      |         898 |
|     335 | 0x0383      |         899 |
|     336 | 0x0384      |         900 |
|     337 | 0x0385      |         901 |
|     338 | 0x0386      |         902 |
|     339 | 0x0387      |         903 |
|     340 | 0x301F      |       12319 |
|     341 | 0x3020      |       12320 |
|     342 | 0x05E0      |        1504 |
|     343 | 0x3021      |       12321 |
|     344 | 0x3022      |       12322 |
|     345 | 0x302A      |       12330 |
|     346 | 0x302C      |       12332 |
|     347 | 0x302D      |       12333 |
|     348 | 0x302B      |       12331 |
|     349 | 0x3025      |       12325 |
|     350 | 0xFFFFFF9D  |  4294967197 |
|     351 | 0x3032      |       12338 |
|     352 | 0x3035      |       12341 |
|     353 | 0x3034      |       12340 |
|     354 | 0x3037      |       12343 |
|     355 | 0x3038      |       12344 |
|     356 | 0x3036      |       12342 |
|     357 | 0x303A      |       12346 |
|     358 | 0xFFFFFFFF  |  4294967295 |
|     359 | 0x3026      |       12326 |
|     360 | 0x3023      |       12323 |
|     361 | 0x00A9      |         169 |
|     362 | 0x00AA      |         170 |
|     363 | 0x3024      |       12324 |
|     364 | 0x3027      |       12327 |
|     365 | 0x3028      |       12328 |
|     366 | 0x00EB      |         235 |
|     367 | 0x0A53      |        2643 |
|     368 | 0x0823      |        2083 |
|     369 | 0x0A55      |        2645 |
|     370 | 0x3029      |       12329 |
|     371 | 0x00B4      |         180 |
|     372 | 0x2207      |        8711 |
|     373 | 0x230D      |        8973 |
|     374 | 0x2402      |        9218 |
|     375 | 0x243A      |        9274 |
|     376 | 0x243D      |        9277 |
|     377 | 0xFFFFFFFE  |  4294967294 |
|     378 | 0xFFFFFFFD  |  4294967293 |
|     379 | 0xFFFFF3F5  |  4294964213 |
|     380 | 0xFFFFFE0C  |  4294966796 |
|     381 | 0x1D4C      |        7500 |
|     382 | 0x03FF      |        1023 |
|     383 | 0xFFFFF4EF  |  4294964463 |
|     384 | 0xFFFFF5E9  |  4294964713 |
|     385 | 0xFFFFF6E3  |  4294964963 |
|     386 | 0xFFFFF378  |  4294964088 |
|     387 | 0xFFFFFF06  |  4294967046 |
|     388 | 0xFFFFF472  |  4294964338 |
|     389 | 0xFFFFF56C  |  4294964588 |
|     390 | 0xFFFFF666  |  4294964838 |
|     391 | 0xFFFFF760  |  4294965088 |
|     392 | 0xFFFFF2FB  |  4294963963 |
|     393 | 0xFFFFF7DD  |  4294965213 |
|     394 | 0x00FA      |         250 |
|     395 | 0xFFFFF93F  |  4294965567 |
|     396 | 0x0118      |         280 |
|     397 | 0xFFFFFA39  |  4294965817 |
|     398 | 0xFFFFFB33  |  4294966067 |
|     399 | 0xFFFFFC2D  |  4294966317 |
|     400 | 0xFFFFF8C2  |  4294965442 |
|     401 | 0x0212      |         530 |
|     402 | 0xFFFFF9BC  |  4294965692 |
|     403 | 0xFFFFFAB6  |  4294965942 |
|     404 | 0xFFFFFBB0  |  4294966192 |
|     405 | 0xFFFFFCAA  |  4294966442 |
|     406 | 0xFFFFF845  |  4294965317 |
|     407 | 0x030C      |         780 |
|     408 | 0xFFFFFD27  |  4294966567 |
|     409 | 0x0406      |        1030 |
|     410 | 0x0500      |        1280 |
|     411 | 0xFFFFFE89  |  4294966921 |
|     412 | 0xFFFFFF83  |  4294967171 |
|     413 | 0x007D      |         125 |
|     414 | 0x0177      |         375 |
|     415 | 0xFFFFFD8F  |  4294966671 |
|     416 | 0x0271      |         625 |
|     417 | 0x03D3      |         979 |
|     418 | 0x04CD      |        1229 |
|     419 | 0x05C7      |        1479 |
|     420 | 0x06C1      |        1729 |
|     421 | 0x0356      |         854 |
|     422 | 0x0450      |        1104 |
|     423 | 0x054A      |        1354 |
|     424 | 0x0644      |        1604 |
|     425 | 0x073E      |        1854 |
|     426 | 0x02D9      |         729 |
|     427 | 0x07BB      |        1979 |
|     428 | 0x091D      |        2333 |
|     429 | 0x0A17      |        2583 |
|     430 | 0x0B11      |        2833 |
|     431 | 0x0C0B      |        3083 |
|     432 | 0x08A0      |        2208 |
|     433 | 0x099A      |        2458 |
|     434 | 0x0A94      |        2708 |
|     435 | 0x0B8E      |        2958 |
|     436 | 0x0C88      |        3208 |
|     437 | 0x0D05      |        3333 |
|     438 | 0x0E67      |        3687 |
|     439 | 0xFFFFFC7C  |  4294966396 |
|     440 | 0x1C20      |        7200 |
|     441 | 0x0F61      |        3937 |
|     442 | 0x105B      |        4187 |
|     443 | 0x1155      |        4437 |
|     444 | 0xFFFFFD76  |  4294966646 |
|     445 | 0xFFFFFE70  |  4294966896 |
|     446 | 0xFFFFFF6A  |  4294967146 |
|     447 | 0x015E      |         350 |
|     448 | 0x0424      |        1060 |
|     449 | 0x051E      |        1310 |
|     450 | 0x0618      |        1560 |
|     451 | 0x0712      |        1810 |
|     452 | 0x080C      |        2060 |
|     453 | 0xFFFFEEAB  |  4294962859 |
|     454 | 0xFFFFEFA5  |  4294963109 |
|     455 | 0xFFFFF09F  |  4294963359 |
|     456 | 0xFFFFF199  |  4294963609 |
|     457 | 0x0FDE      |        4062 |
|     458 | 0x0320      |         800 |
|     459 | 0x1F40      |        8000 |
|     460 | 0xFFFFF022  |  4294963234 |
|     461 | 0x206C      |        8300 |
|     462 | 0xFFFFD314  |  4294955796 |
|     463 | 0x7530      |       30000 |
|     464 | 0xFFFFEFFC  |  4294963196 |
|     465 | 0x0ADC      |        2780 |
|     466 | 0x1068      |        4200 |
|     467 | 0x07FF      |        2047 |

## String References

- **6869**: @@
- **12279**: Here you can play the game Mandragora Mania.
- **12280**: Do which? ($1 jingly) [Play (random opponent)./Play (select opponent)./Purchase prizes[ (unavail.)./ (reset avail.).]/Set start pattern: ([Random/A/B/C/D/E])./Set starting player: ([Random/You/Opponent])./Read an explanation./None of the above.]
- **12281**: Play against whom? [Green Thumb Moogle./Monsieur Kupont./Susuroon./A lamb./Yeestog./Atelloune./Kuyin Hathdenna./Kupofried./Chacharoon./Sakura./Back.]
- **12282**: That option is currently unavailable. You will be able to select it again in $5 day[/s] (Earth time).
- **12284**: You may pay $& gil to reset all rewards, enabling you to purchase them again.
- **12285**: Reset rewards? ($' gil). [Yes ($& gil)./No.]
- **12286**: You do not have enough gil.
- **12288**: You have already purchased the $2.
- **12289**: You need at least $3 jingly to purchase the $2.
- **12290**: The reward exchange period has turned over and all rewards have been reset.
- **12291**: You may reset all rewards from the appropriate dialogue box.
- **12292**: Set starting pattern? [[/$26] Random (A-E)./[/$26] Pattern A./[/$26] Pattern B./[/$26] Pattern C./[/$26] Pattern D./[/$26] Pattern E./No thanks.]
- **12293**: Starting pattern set to [Random/Pattern A/Pattern B/Pattern C/Pattern D/Pattern E].
- **12294**: Set starting player? [[/$26] Random./[/$26] You./[/$26] Opponent./No thanks.]
- **12295**: Starting player set to [Random/You/Opponent].
- **12296**: Read the manual? [Sure./No thanks.]
- **12297**: Mandragora Mania is a game in which you battle for jingly by moving your mandragora pieces to the goal.
- **12298**: Your goal is the [red/blue/green] one on the right, while your opponent's is the [blue/green/red] one on the left.
- **12299**: At the start of the game, three mandragoras each will be placed on the eight game areas, excluding the goal.
- **12300**: There are five starting placements (A through E), and you are able to select which one you would like to employ. The default setting is "Random."
- **12301**: This explanation uses pattern A, but the basic rules are the same regardless of the starting pattern.
- **12302**: The three [red/blue/green] areas in front of you are yours,the three [blue/green/red] areas at the back are your opponent's,and the remaining two are neutral.
- **12303**: You must choose one area--either yours or a neutral one--to proceed.
- **12304**: The areas are numbered from one to five starting from the left, and any mandragoras in the area you select will move.
- **12305**: Conversely, your opponent must select either a neutral area or an area that belongs to them.
- **12306**: From the right, those areas are numbered 6, 4, 7, 2, and 8.
- **12307**: For example, if you select Area 1,one mandragora will move to Area 2and one will move to Area 3,and one will move to Area 4.
- **12308**: Note that the mandragoras will move from the back first--last in, first out.
- **12309**: You will receive points known as "jingly" each time one of your mandragoras reaches the goal.
- **12310**: You will enter your opponent's territory whenever you go past the goal.
- **12311**: If one of your mandragoras happens to reach the opponent's goal, the goal will be pushed back and your mandragora will return to your own area. You don't have to worry about your mandragora earning any jingly for your opponent.
- **12312**: The order in which players choose areas will be determined based on your turn settings. The default setting is random.
- **12313**: This explanation has skipped past your opponent's turn for demonstration purposes, but in the actual game you and your opponent will take turns choosing areas.
- **12314**: However, if the last mandragora to move reaches the goal, you will get to take an additional turn.
- **12315**: Mandragoras are a very diverse species, and the amount of jingly you earn is determined by the species of mandragora that crosses into the goal.
- **12316**: Adenium and citrullus: 3 jingly (first player)/4 jingly (second player).
- **12317**: Korrigan and pachypodium: 2 jingly (first player)/3 jingly (second player).
- **12318**: Standard mandragoras: 1 jingly (both players).
- **12319**: The game is over when either you or your opponent no longer has any mandragoras that can move.
- **12320**: The player who has the most jingly at that point will be declared the winner.
- **12321**: The key to victory lies in taking advantage of the various mandragora subspecies bonuses while claiming multiple turns in a row.
- **12322**: $7$7$7$7$7 Pattern [A/B/C/D/E] - Your Turn ([First Player/Second Player]) $7$7$7$7$7
- **12323**: You have selected Area $0.
- **12324**: You receive $0 jingly for a total of $1.
- **12325**: $7$7$7$7$7 Pattern [A/B/C/D/E] - Your Turn ([Second Player/First Player]) $7$7$7$7$7
- **12326**: Your opponent has selected Area $0.
- **12327**: Your opponent receives $0 jingly for a total of $1.
- **12328**: Game Complete!
- **12329**: [Victory!/Defeat!/Draw!] ($0 - $1)
- **12330**: Move mandragora from which area? [Area 1. ($0 mandragora)/Area 2. ($1 mandragora)/Area 3. ($2 mandragora)/Area 4. ($3 mandragora)/Area 5. ($4 mandragora)/Give up.]
- **12331**: That area has no mandragora to move.
- **12332**: You will forfeit all jingly earned this game if you give up. Are you sure?
- **12333**: Really give up? [Yes./No.]
- **12338**: RANDOMF0-$0 ( $1
- **12340**: [Citrullus/Adenium/Pchypodium 1/Pachypodium 2/Corrigan 1/Corrigan 2]F Placement $2128385( Area y[1/2/3/4/5/PC Goal/6/7/8/NPC Goal]z( Evaluation: y$3z
- **12341**: [Citrullus/Adenium/Pachypodium 1/Pachypodium 2/Corrigan 1/Corrigan 2]F Placement: yNPC Goalz ( Evaluation: y$3z
- **12342**: 
- **12343**: Area 8y$0z / Area 2y$1z / Area 7$2128385/ Area 4y$3z / Area 6y$4z
- **12344**: NPC Selection ( Area $0
- **12346**: aDEBUGb Move from which area? [Area 8. ($0 mandragoras)./Area 2. ($1 mandragoras)./Area 7. ($2 mandragoras)./Area 4. ($3 mandragoras)./Area 6. ($4 mandragoras).]

## Events

### Event 65535

#### Metadata

| Field        | Value     |
|--------------|-----------|
| Entrypoint   | 0x0000    |
| Data Size    | 658 bytes |
| Instructions | 1         |

```
      00 01 02 03 04 05 06 07  08 09 0A 0B 0C 0D 0E 0F
      -- -- -- -- -- -- -- --  -- -- -- -- -- -- -- --
0000: 00 45 00 80 F0 FF FF 7F  F0 FF FF 7F 66 64 69 30  .E..........fdi0
0010: 01 80 55 00 80 F0 FF FF  7F F0 FF FF 7F 66 64 69  ..U..........fdi
0020: 30 1B 45 00 80 F0 FF FF  7F F0 FF FF 7F 66 64 6F  0.E..........fdo
0030: 30 01 80 55 00 80 F0 FF  FF 7F F0 FF FF 7F 66 64  0..U..........fd
0040: 6F 30 1B 45 00 80 F0 FF  FF 7F F0 FF FF 7F 66 64  o0.E..........fd
0050: 69 31 01 80 55 00 80 F0  FF FF 7F F0 FF FF 7F 66  i1..U..........f
0060: 64 69 31 1B 45 00 80 F0  FF FF 7F F0 FF FF 7F 66  di1.E..........f
0070: 64 6F 31 01 80 55 00 80  F0 FF FF 7F F0 FF FF 7F  do1..U..........
0080: 66 64 6F 31 1B 45 02 80  F0 FF FF 7F F0 FF FF 7F  fdo1.E..........
0090: 77 68 69 31 01 80 55 02  80 F0 FF FF 7F F0 FF FF  whi1..U.........
00A0: 7F 77 68 69 31 1B 45 02  80 F0 FF FF 7F F0 FF FF  .whi1.E.........
00B0: 7F 77 68 6F 31 01 80 55  02 80 F0 FF FF 7F F0 FF  .who1..U........
00C0: FF 7F 77 68 6F 31 1B 45  02 80 F0 FF FF 7F F0 FF  ..who1.E........
00D0: FF 7F 77 68 6F 32 01 80  55 02 80 F0 FF FF 7F F0  ..who2..U.......
00E0: FF FF 7F 77 68 6F 32 1B  45 02 80 F0 FF FF 7F F0  ...who2.E.......
00F0: FF FF 7F 77 68 6F 33 01  80 55 02 80 F0 FF FF 7F  ...who3..U......
0100: F0 FF FF 7F 77 68 6F 33  1B 62 03 80 F0 FF FF 7F  ....who3.b......
0110: F0 FF FF 7F 6D 61 69 6E  01 80 1C 04 80 45 00 80  ....main.....E..
0120: F0 FF FF 7F F0 FF FF 7F  66 64 6F 31 01 80 55 00  ........fdo1..U.
0130: 80 F0 FF FF 7F F0 FF FF  7F 66 64 6F 31 1B 45 00  .........fdo1.E.
0140: 80 F0 FF FF 7F F0 FF FF  7F 66 64 69 31 01 80 62  .........fdi1..b
0150: 05 80 F0 FF FF 7F F0 FF  FF 7F 6D 61 69 6E 01 80  ..........main..
0160: 1C 06 80 55 00 80 F0 FF  FF 7F F0 FF FF 7F 66 64  ...U..........fd
0170: 69 31 1B 45 00 80 F0 FF  FF 7F F0 FF FF 7F 62 6C  i1.E..........bl
0180: 6F 6E 01 80 45 02 80 F0  FF FF 7F F0 FF FF 7F 62  on..E..........b
0190: 6C 6F 6E 01 80 1B 45 02  80 F0 FF FF 7F F0 FF FF  lon...E.........
01A0: 7F 77 68 69 30 01 80 55  02 80 F0 FF FF 7F F0 FF  .whi0..U........
01B0: FF 7F 77 68 69 30 1B 45  02 80 F0 FF FF 7F F0 FF  ..whi0.E........
01C0: FF 7F 77 68 6F 30 01 80  55 02 80 F0 FF FF 7F F0  ..who0..U.......
01D0: FF FF 7F 77 68 6F 30 1B  45 07 80 F0 FF FF 7F F0  ...who0.E.......
01E0: FF FF 7F 65 66 6F 6E 01  80 55 07 80 F0 FF FF 7F  ...efon..U......
01F0: F0 FF FF 7F 65 66 6F 6E  1B 45 00 80 F0 FF FF 7F  ....efon.E......
0200: F0 FF FF 7F 66 64 69 73  01 80 1B 45 00 80 F0 FF  ....fdis...E....
0210: FF 7F F0 FF FF 7F 66 64  6F 73 01 80 55 00 80 F0  ......fdos..U...
0220: FF FF 7F F0 FF FF 7F 66  64 6F 73 1B 45 00 80 F0  .......fdos.E...
0230: FF FF 7F F0 FF FF 7F 66  64 69 66 01 80 1B 45 00  .......fdif...E.
0240: 80 F0 FF FF 7F F0 FF FF  7F 66 64 6F 66 01 80 55  .........fdof..U
0250: 00 80 F0 FF FF 7F F0 FF  FF 7F 66 64 6F 66 1B 45  ..........fdof.E
0260: 00 80 F0 FF FF 7F F0 FF  FF 7F 66 64 69 70 01 80  ..........fdip..
0270: 1B 45 00 80 F0 FF FF 7F  F0 FF FF 7F 66 64 6F 70  .E..........fdop
0280: 01 80 55 00 80 F0 FF FF  7F F0 FF FF 7F 66 64 6F  ..U..........fdo
0290: 70 1B                                             p.              
```

#### Opcodes

```
  0: 0x0000 [0x00] END_REQSTACK()
```

#### Data or dead code:

```
# Dead code (unreachable instructions):
     0x0001 [0x45] LOAD_SCHEDULED_TASK: Load scheduler "fdi0" with entities [LocalPlayer, LocalPlayer], work=[200*, 0*]
     0x0012 [0x55] WAIT_LOAD_SCHEDULER: Wait for scheduler "fdi0" with entities [LocalPlayer, LocalPlayer], work=200*
     0x0021 [0x1B] RETURN
     0x0022 [0x45] LOAD_SCHEDULED_TASK: Load scheduler "fdo0" with entities [LocalPlayer, LocalPlayer], work=[200*, 0*]
     0x0033 [0x55] WAIT_LOAD_SCHEDULER: Wait for scheduler "fdo0" with entities [LocalPlayer, LocalPlayer], work=200*
     0x0042 [0x1B] RETURN
     0x0043 [0x45] LOAD_SCHEDULED_TASK: Load scheduler "fdi1" with entities [LocalPlayer, LocalPlayer], work=[200*, 0*]
     0x0054 [0x55] WAIT_LOAD_SCHEDULER: Wait for scheduler "fdi1" with entities [LocalPlayer, LocalPlayer], work=200*
     0x0063 [0x1B] RETURN
     0x0064 [0x45] LOAD_SCHEDULED_TASK: Load scheduler "fdo1" with entities [LocalPlayer, LocalPlayer], work=[200*, 0*]
     0x0075 [0x55] WAIT_LOAD_SCHEDULER: Wait for scheduler "fdo1" with entities [LocalPlayer, LocalPlayer], work=200*
     0x0084 [0x1B] RETURN
     0x0085 [0x45] LOAD_SCHEDULED_TASK: Load scheduler "whi1" with entities [LocalPlayer, LocalPlayer], work=[201*, 0*]
     0x0096 [0x55] WAIT_LOAD_SCHEDULER: Wait for scheduler "whi1" with entities [LocalPlayer, LocalPlayer], work=201*
     0x00A5 [0x1B] RETURN
     0x00A6 [0x45] LOAD_SCHEDULED_TASK: Load scheduler "who1" with entities [LocalPlayer, LocalPlayer], work=[201*, 0*]
     0x00B7 [0x55] WAIT_LOAD_SCHEDULER: Wait for scheduler "who1" with entities [LocalPlayer, LocalPlayer], work=201*
     0x00C6 [0x1B] RETURN
     0x00C7 [0x45] LOAD_SCHEDULED_TASK: Load scheduler "who2" with entities [LocalPlayer, LocalPlayer], work=[201*, 0*]
     0x00D8 [0x55] WAIT_LOAD_SCHEDULER: Wait for scheduler "who2" with entities [LocalPlayer, LocalPlayer], work=201*
     0x00E7 [0x1B] RETURN
     0x00E8 [0x45] LOAD_SCHEDULED_TASK: Load scheduler "who3" with entities [LocalPlayer, LocalPlayer], work=[201*, 0*]
     0x00F9 [0x55] WAIT_LOAD_SCHEDULER: Wait for scheduler "who3" with entities [LocalPlayer, LocalPlayer], work=201*
     0x0108 [0x1B] RETURN
     0x0109 [0x62] LOAD_EVENT_SCHEDULER: Load scheduler "main" with entities [LocalPlayer, LocalPlayer], work=[1*, 0*]
     0x011A [0x1C] WAIT(45* ticks)
     0x011D [0x45] LOAD_SCHEDULED_TASK: Load scheduler "fdo1" with entities [LocalPlayer, LocalPlayer], work=[200*, 0*]
     0x012E [0x55] WAIT_LOAD_SCHEDULER: Wait for scheduler "fdo1" with entities [LocalPlayer, LocalPlayer], work=200*
     0x013D [0x1B] RETURN
     0x013E [0x45] LOAD_SCHEDULED_TASK: Load scheduler "fdi1" with entities [LocalPlayer, LocalPlayer], work=[200*, 0*]
     0x014F [0x62] LOAD_EVENT_SCHEDULER: Load scheduler "main" with entities [LocalPlayer, LocalPlayer], work=[2*, 0*]
     0x0160 [0x1C] WAIT(30* ticks)
     0x0163 [0x55] WAIT_LOAD_SCHEDULER: Wait for scheduler "fdi1" with entities [LocalPlayer, LocalPlayer], work=200*
     0x0172 [0x1B] RETURN
     0x0173 [0x45] LOAD_SCHEDULED_TASK: Load scheduler "blon" with entities [LocalPlayer, LocalPlayer], work=[200*, 0*]
     0x0184 [0x45] LOAD_SCHEDULED_TASK: Load scheduler "blon" with entities [LocalPlayer, LocalPlayer], work=[201*, 0*]
     0x0195 [0x1B] RETURN
     0x0196 [0x45] LOAD_SCHEDULED_TASK: Load scheduler "whi0" with entities [LocalPlayer, LocalPlayer], work=[201*, 0*]
     0x01A7 [0x55] WAIT_LOAD_SCHEDULER: Wait for scheduler "whi0" with entities [LocalPlayer, LocalPlayer], work=201*
     0x01B6 [0x1B] RETURN
     0x01B7 [0x45] LOAD_SCHEDULED_TASK: Load scheduler "who0" with entities [LocalPlayer, LocalPlayer], work=[201*, 0*]
     0x01C8 [0x55] WAIT_LOAD_SCHEDULER: Wait for scheduler "who0" with entities [LocalPlayer, LocalPlayer], work=201*
     0x01D7 [0x1B] RETURN
     0x01D8 [0x45] LOAD_SCHEDULED_TASK: Load scheduler "efon" with entities [LocalPlayer, LocalPlayer], work=[215*, 0*]
     0x01E9 [0x55] WAIT_LOAD_SCHEDULER: Wait for scheduler "efon" with entities [LocalPlayer, LocalPlayer], work=215*
     0x01F8 [0x1B] RETURN
     0x01F9 [0x45] LOAD_SCHEDULED_TASK: Load scheduler "fdis" with entities [LocalPlayer, LocalPlayer], work=[200*, 0*]
     0x020A [0x1B] RETURN
     0x020B [0x45] LOAD_SCHEDULED_TASK: Load scheduler "fdos" with entities [LocalPlayer, LocalPlayer], work=[200*, 0*]
     0x021C [0x55] WAIT_LOAD_SCHEDULER: Wait for scheduler "fdos" with entities [LocalPlayer, LocalPlayer], work=200*
     0x022B [0x1B] RETURN
     0x022C [0x45] LOAD_SCHEDULED_TASK: Load scheduler "fdif" with entities [LocalPlayer, LocalPlayer], work=[200*, 0*]
     0x023D [0x1B] RETURN
     0x023E [0x45] LOAD_SCHEDULED_TASK: Load scheduler "fdof" with entities [LocalPlayer, LocalPlayer], work=[200*, 0*]
     0x024F [0x55] WAIT_LOAD_SCHEDULER: Wait for scheduler "fdof" with entities [LocalPlayer, LocalPlayer], work=200*
     0x025E [0x1B] RETURN
     0x025F [0x45] LOAD_SCHEDULED_TASK: Load scheduler "fdip" with entities [LocalPlayer, LocalPlayer], work=[200*, 0*]
     0x0270 [0x1B] RETURN
     0x0271 [0x45] LOAD_SCHEDULED_TASK: Load scheduler "fdop" with entities [LocalPlayer, LocalPlayer], work=[200*, 0*]
     0x0282 [0x55] WAIT_LOAD_SCHEDULER: Wait for scheduler "fdop" with entities [LocalPlayer, LocalPlayer], work=200*
     0x0291 [0x1B] RETURN
```

### Event 178

#### Metadata

| Field        | Value      |
|--------------|------------|
| Entrypoint   | 0x0292     |
| Data Size    | 2000 bytes |
| Instructions | 286        |

```
      00 01 02 03 04 05 06 07  08 09 0A 0B 0C 0D 0E 0F
      -- -- -- -- -- -- -- --  -- -- -- -- -- -- -- --
0290:       1A 5C 4B 02 04 10  03 80 00 AD 02 42 1A 43    .\K........B.C
02A0: 00 2E 03 05 00 08 80 01  7F 03 01 7A 03 02 04 10  ...........z....
02B0: 05 80 00 D5 02 42 1A 43  00 2E 02 06 10 01 80 02  .....B.C........
02C0: D2 02 03 05 00 03 80 03  06 00 06 10 0C 06 00 01  ................
02D0: 23 04 01 7A 03 02 04 10  09 80 04 5B 03 48 0A 80  #..z.......[.H..
02E0: 02 04 10 0B 80 00 33 03  03 1E 17 0C 80 03 1F 17  ......3.........
02F0: 03 00 48 0D 80 23 48 0E  80 23 24 0F 80 03 80 01  ..H..#H..#$.....
0300: 80 25 02 00 10 01 80 00  33 03 02 03 00 0C 80 03  .%......3.......
0310: 29 03 45 00 80 F0 FF FF  7F F0 FF FF 7F 73 30 33  ).E..........s03
0320: 32 01 80 48 10 80 01 30  03 3C 01 10 11 80 03 80  2..H...0.<......
0330: 01 33 03 42 40 01 80 09  80 01 10 12 80 43 00 43  .3.B@........C.C
0340: 01 02 09 10 01 80 01 54  03 40 01 80 09 80 01 10  .......T.@......
0350: 01 80 21 00 1A 5C 4B 2E  01 7A 03 3E 01 00 13 80  ..!..\K..z.>....
0360: 65 03 01 77 03 42 40 01  80 09 80 01 10 12 80 43  e..w.B@........C
0370: 00 43 01 1A 5C 4B 2E 48  14 80 03 05 00 01 80 41  .C..\K.H.......A
0380: 01 80 05 80 01 00 04 10  41 09 80 0B 80 01 00 05  ........A.......
0390: 10 41 08 80 15 80 01 00  07 10 02 07 10 04 80 03  .A..............
03A0: AA 03 03 06 10 03 80 01  AF 03 03 06 10 01 80 3E  ...............>
03B0: 02 00 01 80 B9 03 01 CF  03 41 16 80 17 80 01 00  .........A......
03C0: 00 00 02 00 00 01 80 01  CF 03 03 06 10 05 80 03  ................
03D0: 03 10 04 00 24 18 80 05  00 01 80 25 02 00 10 01  ....$......%....
03E0: 80 00 11 04 03 05 00 00  10 13 0B 00 12 80 42 30  ..............B0
03F0: 1A 64 00 40 01 80 09 80  01 10 05 80 40 12 80 12  .d.@........@...
0400: 80 01 10 05 00 40 15 80  19 80 01 10 0B 00 01 60  .....@.........`
0410: 0A 02 00 10 03 80 00 A7  04 03 05 00 00 10 03 06  ................
0420: 00 01 80 24 1A 80 06 00  01 80 25 02 00 10 01 80  ...$......%.....
0430: 00 36 04 01 9C 04 02 00  10 03 80 00 41 04 01 9C  .6..........A...
0440: 04 02 00 10 05 80 00 4C  04 01 9C 04 02 00 10 09  .......L........
0450: 80 00 57 04 01 9C 04 02  00 10 0B 80 00 62 04 01  ..W..........b..
0460: 9C 04 02 00 10 08 80 00  6D 04 01 9C 04 02 00 10  ........m.......
0470: 1B 80 00 78 04 01 9C 04  02 00 10 1C 80 00 83 04  ...x............
0480: 01 9C 04 02 00 10 1D 80  00 8E 04 01 9C 04 02 00  ................
0490: 10 12 80 00 99 04 01 9C  04 01 7F 03 03 0B 00 00  ................
04A0: 10 01 EE 03 01 60 0A 02  00 10 05 80 00 92 08 03  .....`..........
04B0: 05 00 00 10 41 08 80 15  80 01 00 07 10 02 07 10  ....A...........
04C0: 04 80 03 EE 04 45 00 80  F0 FF FF 7F F0 FF FF 7F  .....E..........
04D0: 73 30 33 32 01 80 03 00  00 04 80 08 00 00 07 10  s032............
04E0: 03 07 10 00 00 48 1E 80  01 7F 03 01 8F 08 03 06  .....H..........
04F0: 00 01 80 03 07 00 1F 80  3E 02 00 01 80 02 05 01  ........>.......
0500: 1A 05 41 16 80 17 80 01  00 00 00 02 00 00 01 80  ..A.............
0510: 01 1A 05 3D 07 00 01 80  03 80 03 03 10 04 00 9D  ...=............
0520: 0A 35 62 04 10 01 80 08  80 9D 0A 45 62 05 10 01  .5b........Eb...
0530: 80 08 80 3E 01 00 17 80  42 05 03 06 10 03 80 01  ...>....B.......
0540: 47 05 03 06 10 01 80 9D  0A 35 62 07 10 03 80 08  G........5b.....
0550: 80 9D 0A 45 62 08 10 03  80 08 80 3E 01 00 06 80  ...Eb......>....
0560: 6A 05 03 09 10 03 80 01  6F 05 03 09 10 01 80 9D  j.......o.......
0570: 0A 35 62 00 17 05 80 08  80 9D 0A 45 62 01 17 05  .5b........Eb...
0580: 80 08 80 3E 01 00 20 80  92 05 03 02 17 03 80 01  ...>.. .........
0590: 97 05 03 02 17 01 80 9D  0A 35 62 03 17 09 80 08  .........5b.....
05A0: 80 9D 0A 45 62 04 17 09  80 08 80 3E 01 00 21 80  ...Eb......>..!.
05B0: BA 05 03 05 17 03 80 01  BF 05 03 05 17 01 80 9D  ................
05C0: 0A 35 62 06 17 0B 80 08  80 9D 0A 45 62 07 17 0B  .5b........Eb...
05D0: 80 08 80 3E 01 00 16 80  E2 05 03 08 17 03 80 01  ...>............
05E0: E7 05 03 08 17 01 80 03  09 17 01 80 03 0A 17 01  ................
05F0: 80 03 0B 17 01 80 03 0C  17 01 80 03 0D 17 01 80  ................
0600: 03 0E 17 01 80 03 0F 17  01 80 03 10 17 01 80 03  ................
0610: 11 17 01 80 03 12 17 01  80 03 13 17 01 80 03 14  ................
0620: 17 01 80 03 15 17 01 80  03 16 17 01 80 03 17 17  ................
0630: 01 80 03 1E 17 0C 80 D4  03 03 80 04 10 D4 03 05  ................
0640: 80 07 10 D4 03 09 80 00  17 D4 03 0B 80 03 17 D4  ................
0650: 03 08 80 06 17 D4 02 22  80 06 00 07 00 25 02 00  .......".....%..
0660: 10 01 80 00 E2 06 03 06  00 00 10 48 0D 80 23 03  ...........H..#.
0670: 1E 17 0C 80 03 1F 17 03  00 24 0F 80 03 80 01 80  .........$......
0680: 25 02 00 10 01 80 00 DC  06 42 02 03 00 0C 80 03  %........B......
0690: AE 06 45 00 80 F0 FF FF  7F F0 FF FF 7F 73 30 33  ..E..........s03
06A0: 32 01 80 48 10 80 03 00  10 03 80 01 D8 06 40 01  2..H..........@.
06B0: 80 09 80 01 10 12 80 3C  01 10 11 80 03 80 43 00  .......<......C.
06C0: 43 01 02 09 10 01 80 01  D5 06 40 01 80 09 80 01  C.........@.....
06D0: 10 01 80 21 00 1A 5C 4B  2E 01 DC 06 01 F3 04 01  ...!..\K........
06E0: 20 08 02 00 10 03 80 00  1D 07 03 06 00 00 10 3E   ..............>
06F0: 01 00 17 80 1A 07 3E 02  00 01 80 17 07 45 00 80  ......>......E..
0700: F0 FF FF 7F F0 FF FF 7F  73 30 33 32 01 80 48 23  ........s032..H#
0710: 80 01 F3 04 01 1A 07 01  6B 06 01 20 08 02 00 10  ........k.. ....
0720: 05 80 00 5D 07 03 06 00  00 10 3E 01 00 06 80 5A  ...]......>....Z
0730: 07 3E 02 00 01 80 57 07  45 00 80 F0 FF FF 7F F0  .>....W.E.......
0740: FF FF 7F 73 30 33 32 01  80 03 04 10 07 10 48 23  ...s032.......H#
0750: 80 01 F3 04 01 5A 07 01  6B 06 01 20 08 02 00 10  .....Z..k.. ....
0760: 09 80 00 9D 07 03 06 00  00 10 3E 01 00 20 80 9A  ..........>.. ..
0770: 07 3E 02 00 01 80 97 07  45 00 80 F0 FF FF 7F F0  .>......E.......
0780: FF FF 7F 73 30 33 32 01  80 03 04 10 00 17 48 23  ...s032.......H#
0790: 80 01 F3 04 01 9A 07 01  6B 06 01 20 08 02 00 10  ........k.. ....
07A0: 0B 80 00 DD 07 03 06 00  00 10 3E 01 00 21 80 DA  ..........>..!..
07B0: 07 3E 02 00 01 80 D7 07  45 00 80 F0 FF FF 7F F0  .>......E.......
07C0: FF FF 7F 73 30 33 32 01  80 03 04 10 03 17 48 23  ...s032.......H#
07D0: 80 01 F3 04 01 DA 07 01  6B 06 01 20 08 02 00 10  ........k.. ....
07E0: 08 80 00 1D 08 03 06 00  00 10 3E 01 00 16 80 1A  ..........>.....
07F0: 08 3E 02 00 01 80 17 08  45 00 80 F0 FF FF 7F F0  .>......E.......
0800: FF FF 7F 73 30 33 32 01  80 03 04 10 06 17 48 23  ...s032.......H#
0810: 80 01 F3 04 01 1A 08 01  6B 06 01 20 08 01 7F 03  ........k.. ....
0820: 03 00 00 00 10 0C 00 00  9D 0A 35 62 04 10 00 00  ..........5b....
0830: 08 80 9D 0A 45 62 05 10  00 00 08 80 02 04 00 05  ....Eb..........
0840: 10 03 5E 08 45 00 80 F0  FF FF 7F F0 FF FF 7F 73  ..^.E..........s
0850: 30 33 32 01 80 48 24 80  01 F3 04 01 8F 08 42 40  032..H$.......B@
0860: 01 80 09 80 01 10 1B 80  40 25 80 26 80 01 10 00  ........@%.&....
0870: 00 43 00 43 01 02 09 10  01 80 01 88 08 40 01 80  .C.C.........@..
0880: 09 80 01 10 01 80 21 00  1A 5C 4B 2E 01 F3 04 01  ......!..\K.....
0890: 60 0A 02 00 10 09 80 00  7C 09 03 05 00 00 10 03  `.......|.......
08A0: 06 00 01 80 41 01 80 05  80 01 00 00 00 03 04 10  ....A...........
08B0: 01 80 03 05 10 01 80 03  06 10 01 80 03 07 10 01  ................
08C0: 80 03 08 10 01 80 03 09  10 01 80 02 00 00 01 80  ................
08D0: 80 DB 08 03 04 10 03 80  01 2B 09 02 00 00 03 80  .........+......
08E0: 80 EB 08 03 05 10 03 80  01 2B 09 02 00 00 05 80  .........+......
08F0: 80 FB 08 03 06 10 03 80  01 2B 09 02 00 00 09 80  .........+......
0900: 80 0B 09 03 07 10 03 80  01 2B 09 02 00 00 0B 80  .........+......
0910: 80 1B 09 03 08 10 03 80  01 2B 09 02 00 00 08 80  .........+......
0920: 80 2B 09 03 09 10 03 80  01 2B 09 24 27 80 06 00  .+.......+.$'...
0930: 01 80 25 02 00 10 1B 80  00 46 09 03 05 00 09 80  ..%......F......
0940: 01 7F 03 01 46 09 02 00  00 00 10 01 69 09 42 40  ....F.......i.B@
0950: 01 80 09 80 01 10 1C 80  40 28 80 29 80 01 10 00  ........@(.)....
0960: 10 43 00 43 01 1A 5C 4B  2E 03 00 17 00 10 48 2A  .C.C..\K......H*
0970: 80 03 06 00 00 10 01 A4  08 01 60 0A 02 00 10 0B  ..........`.....
0980: 80 00 27 0A 03 05 00 00  10 03 06 00 01 80 41 09  ..'...........A.
0990: 80 0B 80 01 00 00 00 03  04 10 01 80 03 05 10 01  ................
09A0: 80 03 06 10 01 80 02 00  00 01 80 80 B6 09 03 04  ................
09B0: 10 03 80 01 D6 09 02 00  00 03 80 80 C6 09 03 05  ................
09C0: 10 03 80 01 D6 09 02 00  00 05 80 80 D6 09 03 06  ................
09D0: 10 03 80 01 D6 09 24 2B  80 06 00 01 80 25 02 00  ......$+.....%..
09E0: 10 09 80 00 F1 09 03 05  00 0B 80 01 7F 03 01 F1  ................
09F0: 09 02 00 00 00 10 01 14  0A 42 40 01 80 09 80 01  .........B@.....
0A00: 10 1D 80 40 2C 80 2D 80  01 10 00 10 43 00 43 01  ...@,.-.....C.C.
0A10: 1A 5C 4B 2E 03 07 10 00  10 48 2E 80 03 06 00 00  .\K......H......
0A20: 10 01 8E 09 01 60 0A 02  00 10 08 80 00 5B 0A 24  .....`.......[.$
0A30: 2F 80 01 80 01 80 25 02  00 10 01 80 00 50 0A 42  /.....%......P.B
0A40: 30 1A 64 00 40 01 80 09  80 01 10 03 80 01 58 0A  0.d.@.........X.
0A50: 03 05 00 08 80 01 7F 03  01 60 0A 03 01 10 01 80  .........`......
0A60: 21 00                                             !.              
```

#### Opcodes

```
  0: 0x0292 [0x1A] CALL_SUBROUTINE(address=0x4B5C)
  1: 0x0295 [0x02] IF !(Work_Zone[4] == 1*) GOTO 0x02AD
  2: 0x029D [0x42] SET_CLI_EVENT_CANCEL_DATA()
  3: 0x029E [0x1A] CALL_SUBROUTINE(address=0x0043)
  4: 0x02A1 [0x2E] SET_CLI_EVENT_CANCEL_FLAGS()
  5: 0x02A2 [0x03] ExtData[1]->WorkLocal[5] = 5*
  6: 0x02A7 [0x01] GOTO 0x037F

SUBROUTINE_0330:
  7: 0x0330 [0x01] GOTO 0x0333

SUBROUTINE_0333:
  8: 0x0333 [0x42] SET_CLI_EVENT_CANCEL_DATA()
  9: 0x0334 [0x40] SET_BIT_WORK_RANGE(start_bit=0*, end_bit=3*, target=Work_Zone[1], source=9*)
 10: 0x033D [0x43] SEND_EVENT_UPDATE: Send pending tag to server (packet 0x005B)
 11: 0x033F [0x43] SEND_EVENT_UPDATE: Check pending flag (skip if not pending)
 12: 0x0341 [0x02] IF !(Work_Zone[9] == 0*) GOTO 0x0354
 13: 0x0349 [0x40] SET_BIT_WORK_RANGE(start_bit=0*, end_bit=3*, target=Work_Zone[1], source=0*)
 14: 0x0352 [0x21] END_EVENT
 15: 0x0353 [0x00] END_REQSTACK()
 16: 0x0354 [0x1A] CALL_SUBROUTINE(address=0x4B5C)
 17: 0x0357 [0x2E] SET_CLI_EVENT_CANCEL_FLAGS()
 18: 0x0358 [0x01] GOTO 0x037A
 19: 0x035B [0x3E] IF !(ExtData[1]->WorkLocal[1] bit 11*) GOTO 0x0365
 20: 0x0362 [0x01] GOTO 0x0377
 21: 0x0365 [0x42] SET_CLI_EVENT_CANCEL_DATA()
 22: 0x0366 [0x40] SET_BIT_WORK_RANGE(start_bit=0*, end_bit=3*, target=Work_Zone[1], source=9*)
 23: 0x036F [0x43] SEND_EVENT_UPDATE: Send pending tag to server (packet 0x005B)
 24: 0x0371 [0x43] SEND_EVENT_UPDATE: Check pending flag (skip if not pending)
 25: 0x0373 [0x1A] CALL_SUBROUTINE(address=0x4B5C)
 26: 0x0376 [0x2E] SET_CLI_EVENT_CANCEL_FLAGS()

SUBROUTINE_0377:
 27: 0x0377 [0x48] [System] [12279*]:
    → "Here you can play the game Mandragora Mania."

SUBROUTINE_037A:
 28: 0x037A [0x03] ExtData[1]->WorkLocal[5] = 0*

SUBROUTINE_037F:
 29: 0x037F [0x41] Work_Zone[4] = ExtData[1]->WorkLocal[1] (bits 0*-2*)
 30: 0x0388 [0x41] Work_Zone[5] = ExtData[1]->WorkLocal[1] (bits 3*-4*)
 31: 0x0391 [0x41] Work_Zone[7] = ExtData[1]->WorkLocal[1] (bits 5*-10*)
 32: 0x039A [0x02] IF !(Work_Zone[7] >= 45*) GOTO 0x03AA
 33: 0x03A2 [0x03] Work_Zone[6] = 1*
 34: 0x03A7 [0x01] GOTO 0x03AF
 35: 0x03AA [0x03] Work_Zone[6] = 0*

SUBROUTINE_03AF:
 36: 0x03AF [0x3E] IF !(ExtData[1]->WorkLocal[2] bit 0*) GOTO 0x03B9
 37: 0x03B6 [0x01] GOTO 0x03CF
 38: 0x03B9 [0x41] ExtData[1]->WorkLocal[0] = ExtData[1]->WorkLocal[1] (bits 27*-31*)
 39: 0x03C2 [0x02] IF !(ExtData[1]->WorkLocal[0] == 0*) GOTO 0x03CF
 40: 0x03CA [0x03] Work_Zone[6] = 2*

SUBROUTINE_03CF:
 41: 0x03CF [0x03] Work_Zone[3] = ExtData[1]->WorkLocal[4]
 42: 0x03D4 [0x24] CREATE_DIALOG(message_id=12280*, default_option=ExtData[1]->WorkLocal[5], option_flags=0*)
    → "Do which? ($1 jingly) [Play (random opponent)./Play (select opponent)./Purchase prizes[ (unavail.)./ (reset avail.).]/Set start pattern: ([Random/A/B/C/D/E])./Set starting player: ([Random/You/Opponent])./Read an explanation./None of the above.]"
 43: 0x03DB [0x25] WAIT_DIALOG_SELECT()
 44: 0x03DC [0x02] IF !(Work_Zone[0] == 0*) GOTO 0x0411
 45: 0x03E4 [0x03] ExtData[1]->WorkLocal[5] = Work_Zone[0]
 46: 0x03E9 [0x13] ExtData[1]->WorkLocal[11] = rand() % 9*

SUBROUTINE_03EE:
 47: 0x03EE [0x42] SET_CLI_EVENT_CANCEL_DATA()
 48: 0x03EF [0x30] SET_UCOFF_CONTINUE_ZERO()
 49: 0x03F0 [0x1A] CALL_SUBROUTINE(address=0x0064)
 50: 0x03F3 [0x40] SET_BIT_WORK_RANGE(start_bit=0*, end_bit=3*, target=Work_Zone[1], source=2*)
 51: 0x03FC [0x40] SET_BIT_WORK_RANGE(start_bit=9*, end_bit=9*, target=Work_Zone[1], source=ExtData[1]->WorkLocal[5])
 52: 0x0405 [0x40] SET_BIT_WORK_RANGE(start_bit=10*, end_bit=13*, target=Work_Zone[1], source=ExtData[1]->WorkLocal[11])
 53: 0x040E [0x01] GOTO 0x0A60
 54: 0x0411 [0x02] IF !(Work_Zone[0] == 1*) GOTO 0x04A7
 55: 0x0419 [0x03] ExtData[1]->WorkLocal[5] = Work_Zone[0]
 56: 0x041E [0x03] ExtData[1]->WorkLocal[6] = 0*

SUBROUTINE_0423:
 57: 0x0423 [0x24] CREATE_DIALOG(message_id=12281*, default_option=ExtData[1]->WorkLocal[6], option_flags=0*)
    → "Play against whom? [Green Thumb Moogle./Monsieur Kupont./Susuroon./A lamb./Yeestog./Atelloune./Kuyin Hathdenna./Kupofried./Chacharoon./Sakura./Back.]"
 58: 0x042A [0x25] WAIT_DIALOG_SELECT()
 59: 0x042B [0x02] IF !(Work_Zone[0] == 0*) GOTO 0x0436
 60: 0x0433 [0x01] GOTO 0x049C
 61: 0x0436 [0x02] IF !(Work_Zone[0] == 1*) GOTO 0x0441
 62: 0x043E [0x01] GOTO 0x049C
 63: 0x0441 [0x02] IF !(Work_Zone[0] == 2*) GOTO 0x044C
 64: 0x0449 [0x01] GOTO 0x049C
 65: 0x044C [0x02] IF !(Work_Zone[0] == 3*) GOTO 0x0457
 66: 0x0454 [0x01] GOTO 0x049C
 67: 0x0457 [0x02] IF !(Work_Zone[0] == 4*) GOTO 0x0462
 68: 0x045F [0x01] GOTO 0x049C
 69: 0x0462 [0x02] IF !(Work_Zone[0] == 5*) GOTO 0x046D
 70: 0x046A [0x01] GOTO 0x049C
 71: 0x046D [0x02] IF !(Work_Zone[0] == 6*) GOTO 0x0478
 72: 0x0475 [0x01] GOTO 0x049C
 73: 0x0478 [0x02] IF !(Work_Zone[0] == 7*) GOTO 0x0483
 74: 0x0480 [0x01] GOTO 0x049C
 75: 0x0483 [0x02] IF !(Work_Zone[0] == 8*) GOTO 0x048E
 76: 0x048B [0x01] GOTO 0x049C
 77: 0x048E [0x02] IF !(Work_Zone[0] == 9*) GOTO 0x0499
 78: 0x0496 [0x01] GOTO 0x049C
 79: 0x0499 [0x01] GOTO 0x037F

SUBROUTINE_049C:
 80: 0x049C [0x03] ExtData[1]->WorkLocal[11] = Work_Zone[0]
 81: 0x04A1 [0x01] GOTO 0x03EE

SUBROUTINE_04F3:
 82: 0x04F3 [0x03] ExtData[1]->WorkLocal[7] = 1985*
 83: 0x04F8 [0x3E] IF !(ExtData[1]->WorkLocal[2] bit 0*) GOTO 0x0502
 84: 0x04FF [0x01] GOTO 0x051A
 85: 0x0502 [0x41] ExtData[1]->WorkLocal[0] = ExtData[1]->WorkLocal[1] (bits 27*-31*)
 86: 0x050B [0x02] IF !(ExtData[1]->WorkLocal[0] == 0*) GOTO 0x051A
 87: 0x0513 [0x3D] CLEAR_BIT_FLAG_CONDITIONAL(target_work_offset=ExtData[1]->WorkLocal[7], bit_index_work_offset=0*, condition_work_offset=1*)

SUBROUTINE_051A:
 88: 0x051A [0x03] Work_Zone[3] = ExtData[1]->WorkLocal[4]
 89: 0x051F [0x9D] IF (0x6235) 0* = Work_Zone[4] // extra=0x8008
 90: 0x0529 [0x9D] IF (0x6245) 0* = Work_Zone[5] // extra=0x8008
 91: 0x0533 [0x3E] IF !(ExtData[1]->WorkLocal[1] bit 31*) GOTO 0x0542
 92: 0x053A [0x03] Work_Zone[6] = 1*
 93: 0x053F [0x01] GOTO 0x0547
 94: 0x0542 [0x03] Work_Zone[6] = 0*

SUBROUTINE_0547:
 95: 0x0547 [0x9D] IF (0x6235) 1* = Work_Zone[7] // extra=0x8008
 96: 0x0551 [0x9D] IF (0x6245) 1* = Work_Zone[8] // extra=0x8008
 97: 0x055B [0x3E] IF !(ExtData[1]->WorkLocal[1] bit 30*) GOTO 0x056A
 98: 0x0562 [0x03] Work_Zone[9] = 1*
 99: 0x0567 [0x01] GOTO 0x056F
100: 0x056A [0x03] Work_Zone[9] = 0*

SUBROUTINE_056F:
101: 0x056F [0x9D] IF (0x6235) 2* = Work_Zone_1700[0] // extra=0x8008
102: 0x0579 [0x9D] IF (0x6245) 2* = Work_Zone_1700[1] // extra=0x8008
103: 0x0583 [0x3E] IF !(ExtData[1]->WorkLocal[1] bit 29*) GOTO 0x0592
104: 0x058A [0x03] Work_Zone_1700[2] = 1*
105: 0x058F [0x01] GOTO 0x0597
106: 0x0592 [0x03] Work_Zone_1700[2] = 0*

SUBROUTINE_0597:
107: 0x0597 [0x9D] IF (0x6235) 3* = Work_Zone_1700[3] // extra=0x8008
108: 0x05A1 [0x9D] IF (0x6245) 3* = Work_Zone_1700[4] // extra=0x8008
109: 0x05AB [0x3E] IF !(ExtData[1]->WorkLocal[1] bit 28*) GOTO 0x05BA
110: 0x05B2 [0x03] Work_Zone_1700[5] = 1*
111: 0x05B7 [0x01] GOTO 0x05BF
112: 0x05BA [0x03] Work_Zone_1700[5] = 0*

SUBROUTINE_05BF:
113: 0x05BF [0x9D] IF (0x6235) 4* = Work_Zone_1700[6] // extra=0x8008
114: 0x05C9 [0x9D] IF (0x6245) 4* = Work_Zone_1700[7] // extra=0x8008
115: 0x05D3 [0x3E] IF !(ExtData[1]->WorkLocal[1] bit 27*) GOTO 0x05E2
116: 0x05DA [0x03] Work_Zone_1700[8] = 1*
117: 0x05DF [0x01] GOTO 0x05E7
118: 0x05E2 [0x03] Work_Zone_1700[8] = 0*

SUBROUTINE_05E7:
119: 0x05E7 [0x03] Work_Zone_1700[9] = 0*
120: 0x05EC [0x03] Work_Zone_1700[10] = 0*
121: 0x05F1 [0x03] Work_Zone_1700[11] = 0*
122: 0x05F6 [0x03] Work_Zone_1700[12] = 0*
123: 0x05FB [0x03] Work_Zone_1700[13] = 0*
124: 0x0600 [0x03] Work_Zone_1700[14] = 0*
125: 0x0605 [0x03] Work_Zone_1700[15] = 0*
126: 0x060A [0x03] Work_Zone_1700[16] = 0*
127: 0x060F [0x03] Work_Zone_1700[17] = 0*
128: 0x0614 [0x03] Work_Zone_1700[18] = 0*
129: 0x0619 [0x03] Work_Zone_1700[19] = 0*
130: 0x061E [0x03] Work_Zone_1700[20] = 0*
131: 0x0623 [0x03] Work_Zone_1700[21] = 0*
132: 0x0628 [0x03] Work_Zone_1700[22] = 0*
133: 0x062D [0x03] Work_Zone_1700[23] = 0*
134: 0x0632 [0x03] Work_Zone_1700[30] = 10000*
135: 0x0637 [0xD4] MAP_QUERY_WINDOW: Prepare buffer configuration A (buffer=[03 80 04 10 D4 03 05 80...])
136: 0x0655 [0xD4] MAP_QUERY_WINDOW: Test and open query window (flag=0x22, work=[0x0680, 0x0700, 0x2500])
137: 0x065E [0x02] IF !(Work_Zone[0] == 0*) GOTO 0x06E2
138: 0x0666 [0x03] ExtData[1]->WorkLocal[6] = Work_Zone[0]

SUBROUTINE_066B:
139: 0x066B [0x48] [System] [12284*]:
    → "You may pay $& gil to reset all rewards, enabling you to purchase them again."
140: 0x066E [0x23] WAIT_FOR_DIALOG_INTERACTION
141: 0x066F [0x03] Work_Zone_1700[30] = 10000*
142: 0x0674 [0x03] Work_Zone_1700[31] = ExtData[1]->WorkLocal[3]
143: 0x0679 [0x24] CREATE_DIALOG(message_id=12285*, default_option=1*, option_flags=0*)
    → "Reset rewards? ($' gil). [Yes ($& gil)./No.]"
144: 0x0680 [0x25] WAIT_DIALOG_SELECT()
145: 0x0681 [0x02] IF !(Work_Zone[0] == 0*) GOTO 0x06DC
146: 0x0689 [0x42] SET_CLI_EVENT_CANCEL_DATA()
147: 0x068A [0x02] IF !(ExtData[1]->WorkLocal[3] >= 10000*) GOTO 0x06AE
148: 0x0692 [0x45] LOAD_SCHEDULED_TASK: Load scheduler "s032" with entities [LocalPlayer, LocalPlayer], work=[200*, 0*]
149: 0x06A3 [0x48] [System] [12286*]:
    → "You do not have enough gil."
150: 0x06A6 [0x03] Work_Zone[0] = 1*
151: 0x06AB [0x01] GOTO 0x06D8
152: 0x06AE [0x40] SET_BIT_WORK_RANGE(start_bit=0*, end_bit=3*, target=Work_Zone[1], source=9*)
153: 0x06B7 [0x3C] SET_BIT_FLAG_CONDITIONAL(target_work_offset=Work_Zone[1], bit_index_work_offset=25*, condition_work_offset=1*)
154: 0x06BE [0x43] SEND_EVENT_UPDATE: Send pending tag to server (packet 0x005B)
155: 0x06C0 [0x43] SEND_EVENT_UPDATE: Check pending flag (skip if not pending)
156: 0x06C2 [0x02] IF !(Work_Zone[9] == 0*) GOTO 0x06D5
157: 0x06CA [0x40] SET_BIT_WORK_RANGE(start_bit=0*, end_bit=3*, target=Work_Zone[1], source=0*)
158: 0x06D3 [0x21] END_EVENT
159: 0x06D4 [0x00] END_REQSTACK()
160: 0x06D5 [0x1A] CALL_SUBROUTINE(address=0x4B5C)

SUBROUTINE_06D8:
161: 0x06D8 [0x2E] SET_CLI_EVENT_CANCEL_FLAGS()
162: 0x06D9 [0x01] GOTO 0x06DC

SUBROUTINE_06DC:
163: 0x06DC [0x01] GOTO 0x04F3

SUBROUTINE_071A:
164: 0x071A [0x01] GOTO 0x0820
165: 0x071D [0x02] IF !(Work_Zone[0] == 2*) GOTO 0x075D
166: 0x0725 [0x03] ExtData[1]->WorkLocal[6] = Work_Zone[0]
167: 0x072A [0x3E] IF !(ExtData[1]->WorkLocal[1] bit 30*) GOTO 0x075A
168: 0x0731 [0x3E] IF !(ExtData[1]->WorkLocal[2] bit 0*) GOTO 0x0757
169: 0x0738 [0x45] LOAD_SCHEDULED_TASK: Load scheduler "s032" with entities [LocalPlayer, LocalPlayer], work=[200*, 0*]
170: 0x0749 [0x03] Work_Zone[4] = Work_Zone[7]
171: 0x074E [0x48] [System] [12288*]:
    → "You have already purchased the $2."
172: 0x0751 [0x01] GOTO 0x04F3

SUBROUTINE_075A:
173: 0x075A [0x01] GOTO 0x0820
174: 0x075D [0x02] IF !(Work_Zone[0] == 3*) GOTO 0x079D
175: 0x0765 [0x03] ExtData[1]->WorkLocal[6] = Work_Zone[0]
176: 0x076A [0x3E] IF !(ExtData[1]->WorkLocal[1] bit 29*) GOTO 0x079A
177: 0x0771 [0x3E] IF !(ExtData[1]->WorkLocal[2] bit 0*) GOTO 0x0797
178: 0x0778 [0x45] LOAD_SCHEDULED_TASK: Load scheduler "s032" with entities [LocalPlayer, LocalPlayer], work=[200*, 0*]
179: 0x0789 [0x03] Work_Zone[4] = Work_Zone_1700[0]
180: 0x078E [0x48] [System] [12288*]:
    → "You have already purchased the $2."
181: 0x0791 [0x01] GOTO 0x04F3

SUBROUTINE_079A:
182: 0x079A [0x01] GOTO 0x0820
183: 0x079D [0x02] IF !(Work_Zone[0] == 4*) GOTO 0x07DD
184: 0x07A5 [0x03] ExtData[1]->WorkLocal[6] = Work_Zone[0]
185: 0x07AA [0x3E] IF !(ExtData[1]->WorkLocal[1] bit 28*) GOTO 0x07DA
186: 0x07B1 [0x3E] IF !(ExtData[1]->WorkLocal[2] bit 0*) GOTO 0x07D7
187: 0x07B8 [0x45] LOAD_SCHEDULED_TASK: Load scheduler "s032" with entities [LocalPlayer, LocalPlayer], work=[200*, 0*]
188: 0x07C9 [0x03] Work_Zone[4] = Work_Zone_1700[3]
189: 0x07CE [0x48] [System] [12288*]:
    → "You have already purchased the $2."
190: 0x07D1 [0x01] GOTO 0x04F3

SUBROUTINE_07DA:
191: 0x07DA [0x01] GOTO 0x0820
192: 0x07DD [0x02] IF !(Work_Zone[0] == 5*) GOTO 0x081D
193: 0x07E5 [0x03] ExtData[1]->WorkLocal[6] = Work_Zone[0]
194: 0x07EA [0x3E] IF !(ExtData[1]->WorkLocal[1] bit 27*) GOTO 0x081A
195: 0x07F1 [0x3E] IF !(ExtData[1]->WorkLocal[2] bit 0*) GOTO 0x0817
196: 0x07F8 [0x45] LOAD_SCHEDULED_TASK: Load scheduler "s032" with entities [LocalPlayer, LocalPlayer], work=[200*, 0*]
197: 0x0809 [0x03] Work_Zone[4] = Work_Zone_1700[6]
198: 0x080E [0x48] [System] [12288*]:
    → "You have already purchased the $2."
199: 0x0811 [0x01] GOTO 0x04F3

SUBROUTINE_081A:
200: 0x081A [0x01] GOTO 0x0820
201: 0x081D [0x01] GOTO 0x037F

SUBROUTINE_0820:
202: 0x0820 [0x03] ExtData[1]->WorkLocal[0] = Work_Zone[0]
203: 0x0825 [0x0C] ExtData[1]->WorkLocal[0]--
204: 0x0828 [0x9D] IF (0x6235) ExtData[1]->WorkLocal[0] = Work_Zone[4] // extra=0x8008
205: 0x0832 [0x9D] IF (0x6245) ExtData[1]->WorkLocal[0] = Work_Zone[5] // extra=0x8008
206: 0x083C [0x02] IF !(ExtData[1]->WorkLocal[4] >= Work_Zone[5]) GOTO 0x085E
207: 0x0844 [0x45] LOAD_SCHEDULED_TASK: Load scheduler "s032" with entities [LocalPlayer, LocalPlayer], work=[200*, 0*]
208: 0x0855 [0x48] [System] [12289*]:
    → "You need at least $3 jingly to purchase the $2."
209: 0x0858 [0x01] GOTO 0x04F3

SUBROUTINE_08A4:
210: 0x08A4 [0x41] ExtData[1]->WorkLocal[0] = ExtData[1]->WorkLocal[1] (bits 0*-2*)
211: 0x08AD [0x03] Work_Zone[4] = 0*
212: 0x08B2 [0x03] Work_Zone[5] = 0*
213: 0x08B7 [0x03] Work_Zone[6] = 0*
214: 0x08BC [0x03] Work_Zone[7] = 0*
215: 0x08C1 [0x03] Work_Zone[8] = 0*
216: 0x08C6 [0x03] Work_Zone[9] = 0*
217: 0x08CB [0x02] IF !(ExtData[1]->WorkLocal[0] == 0*) GOTO 0x08DB
218: 0x08D3 [0x03] Work_Zone[4] = 1*
219: 0x08D8 [0x01] GOTO 0x092B
220: 0x08DB [0x02] IF !(ExtData[1]->WorkLocal[0] == 1*) GOTO 0x08EB
221: 0x08E3 [0x03] Work_Zone[5] = 1*
222: 0x08E8 [0x01] GOTO 0x092B
223: 0x08EB [0x02] IF !(ExtData[1]->WorkLocal[0] == 2*) GOTO 0x08FB
224: 0x08F3 [0x03] Work_Zone[6] = 1*
225: 0x08F8 [0x01] GOTO 0x092B
226: 0x08FB [0x02] IF !(ExtData[1]->WorkLocal[0] == 3*) GOTO 0x090B
227: 0x0903 [0x03] Work_Zone[7] = 1*
228: 0x0908 [0x01] GOTO 0x092B
229: 0x090B [0x02] IF !(ExtData[1]->WorkLocal[0] == 4*) GOTO 0x091B
230: 0x0913 [0x03] Work_Zone[8] = 1*
231: 0x0918 [0x01] GOTO 0x092B
232: 0x091B [0x02] IF !(ExtData[1]->WorkLocal[0] == 5*) GOTO 0x092B
233: 0x0923 [0x03] Work_Zone[9] = 1*
234: 0x0928 [0x01] GOTO 0x092B

SUBROUTINE_092B:
235: 0x092B [0x24] CREATE_DIALOG(message_id=12292*, default_option=ExtData[1]->WorkLocal[6], option_flags=0*)
    → "Set starting pattern? [[/$26] Random (A-E)./[/$26] Pattern A./[/$26] Pattern B./[/$26] Pattern C./[/$26] Pattern D./[/$26] Pattern E./No thanks.]"
236: 0x0932 [0x25] WAIT_DIALOG_SELECT()
237: 0x0933 [0x02] IF !(Work_Zone[0] == 6*) GOTO 0x0946
238: 0x093B [0x03] ExtData[1]->WorkLocal[5] = 3*
239: 0x0940 [0x01] GOTO 0x037F

SUBROUTINE_0946:
240: 0x0946 [0x02] IF !(ExtData[1]->WorkLocal[0] == Work_Zone[0]) GOTO 0x0969
241: 0x094E [0x42] SET_CLI_EVENT_CANCEL_DATA()
242: 0x094F [0x40] SET_BIT_WORK_RANGE(start_bit=0*, end_bit=3*, target=Work_Zone[1], source=7*)
243: 0x0958 [0x40] SET_BIT_WORK_RANGE(start_bit=20*, end_bit=22*, target=Work_Zone[1], source=Work_Zone[0])
244: 0x0961 [0x43] SEND_EVENT_UPDATE: Send pending tag to server (packet 0x005B)
245: 0x0963 [0x43] SEND_EVENT_UPDATE: Check pending flag (skip if not pending)
246: 0x0965 [0x1A] CALL_SUBROUTINE(address=0x4B5C)
247: 0x0968 [0x2E] SET_CLI_EVENT_CANCEL_FLAGS()
248: 0x0969 [0x03] Work_Zone_1700[0] = Work_Zone[0]
249: 0x096E [0x48] [System] [12293*]:
    → "Starting pattern set to [Random/Pattern A/Pattern B/Pattern C/Pattern D/Pattern E]."
250: 0x0971 [0x03] ExtData[1]->WorkLocal[6] = Work_Zone[0]
251: 0x0976 [0x01] GOTO 0x08A4

SUBROUTINE_098E:
252: 0x098E [0x41] ExtData[1]->WorkLocal[0] = ExtData[1]->WorkLocal[1] (bits 3*-4*)
253: 0x0997 [0x03] Work_Zone[4] = 0*
254: 0x099C [0x03] Work_Zone[5] = 0*
255: 0x09A1 [0x03] Work_Zone[6] = 0*
256: 0x09A6 [0x02] IF !(ExtData[1]->WorkLocal[0] == 0*) GOTO 0x09B6
257: 0x09AE [0x03] Work_Zone[4] = 1*
258: 0x09B3 [0x01] GOTO 0x09D6
259: 0x09B6 [0x02] IF !(ExtData[1]->WorkLocal[0] == 1*) GOTO 0x09C6
260: 0x09BE [0x03] Work_Zone[5] = 1*
261: 0x09C3 [0x01] GOTO 0x09D6
262: 0x09C6 [0x02] IF !(ExtData[1]->WorkLocal[0] == 2*) GOTO 0x09D6
263: 0x09CE [0x03] Work_Zone[6] = 1*
264: 0x09D3 [0x01] GOTO 0x09D6

SUBROUTINE_09D6:
265: 0x09D6 [0x24] CREATE_DIALOG(message_id=12294*, default_option=ExtData[1]->WorkLocal[6], option_flags=0*)
    → "Set starting player? [[/$26] Random./[/$26] You./[/$26] Opponent./No thanks.]"
266: 0x09DD [0x25] WAIT_DIALOG_SELECT()
267: 0x09DE [0x02] IF !(Work_Zone[0] == 3*) GOTO 0x09F1
268: 0x09E6 [0x03] ExtData[1]->WorkLocal[5] = 4*
269: 0x09EB [0x01] GOTO 0x037F

SUBROUTINE_09F1:
270: 0x09F1 [0x02] IF !(ExtData[1]->WorkLocal[0] == Work_Zone[0]) GOTO 0x0A14
271: 0x09F9 [0x42] SET_CLI_EVENT_CANCEL_DATA()
272: 0x09FA [0x40] SET_BIT_WORK_RANGE(start_bit=0*, end_bit=3*, target=Work_Zone[1], source=8*)
273: 0x0A03 [0x40] SET_BIT_WORK_RANGE(start_bit=23*, end_bit=24*, target=Work_Zone[1], source=Work_Zone[0])
274: 0x0A0C [0x43] SEND_EVENT_UPDATE: Send pending tag to server (packet 0x005B)
275: 0x0A0E [0x43] SEND_EVENT_UPDATE: Check pending flag (skip if not pending)
276: 0x0A10 [0x1A] CALL_SUBROUTINE(address=0x4B5C)
277: 0x0A13 [0x2E] SET_CLI_EVENT_CANCEL_FLAGS()
278: 0x0A14 [0x03] Work_Zone[7] = Work_Zone[0]
279: 0x0A19 [0x48] [System] [12295*]:
    → "Starting player set to [Random/You/Opponent]."
280: 0x0A1C [0x03] ExtData[1]->WorkLocal[6] = Work_Zone[0]
281: 0x0A21 [0x01] GOTO 0x098E

SUBROUTINE_0A58:
282: 0x0A58 [0x01] GOTO 0x0A60
283: 0x0A5B [0x03] Work_Zone[1] = 0*

SUBROUTINE_0A60:
284: 0x0A60 [0x21] END_EVENT
285: 0x0A61 [0x00] END_REQSTACK()
```

#### Data or dead code:

```
# Dead code (unreachable instructions):
     0x02AA [0x01] GOTO 0x037A
# Dead code (unreachable instructions):
     0x04A4 [0x01] GOTO 0x0A60
     0x04EB [0x01] GOTO 0x088F
# Dead code (unreachable instructions):
     0x06DF [0x01] GOTO 0x0820
     0x0714 [0x01] GOTO 0x071A
# Dead code (unreachable instructions):
     0x0754 [0x01] GOTO 0x075A
# Dead code (unreachable instructions):
     0x0794 [0x01] GOTO 0x079A
# Dead code (unreachable instructions):
     0x07D4 [0x01] GOTO 0x07DA
# Dead code (unreachable instructions):
     0x0814 [0x01] GOTO 0x081A
# Dead code (unreachable instructions):
     0x085B [0x01] GOTO 0x088F
     0x088F [0x01] GOTO 0x0A60
# Dead code (unreachable instructions):
     0x0943 [0x01] GOTO 0x0946
# Dead code (unreachable instructions):
     0x0979 [0x01] GOTO 0x0A60
# Dead code (unreachable instructions):
     0x09EE [0x01] GOTO 0x09F1
# Dead code (unreachable instructions):
     0x0A24 [0x01] GOTO 0x0A60
```

### Event 179

#### Metadata

| Field        | Value      |
|--------------|------------|
| Entrypoint   | 0x0A62     |
| Data Size    | 8404 bytes |
| Instructions | 957        |

```
      00 01 02 03 04 05 06 07  08 09 0A 0B 0C 0D 0E 0F
      -- -- -- -- -- -- -- --  -- -- -- -- -- -- -- --
0A60:       42 1A 64 00 48 30  80 46 01 38 31 80 77 15    B.d.H0.F.81.w.
0A70: 80 32 80 03 0B 00 01 80  03 1F 17 01 80 1A 7A 4B  .2............zK
0A80: 3B 78 70 0F 01 15 00 16  00 17 00 3A 78 70 0F 01  ;xp........:xp..
0A90: 18 00 07 17 00 0C 80 BA  78 70 0F 01 15 00 16 00  ........xp......
0AA0: 17 00 18 00 3B 79 70 0F  01 15 00 16 00 17 00 3A  ....;yp........:
0AB0: 79 70 0F 01 18 00 07 17  00 0C 80 BA 79 70 0F 01  yp..........yp..
0AC0: 15 00 16 00 17 00 18 00  3B 7A 70 0F 01 15 00 16  ........;zp.....
0AD0: 00 17 00 3A 7A 70 0F 01  18 00 07 17 00 0C 80 BA  ...:zp..........
0AE0: 7A 70 0F 01 15 00 16 00  17 00 18 00 3B 7B 70 0F  zp..........;{p.
0AF0: 01 15 00 16 00 17 00 3A  7B 70 0F 01 18 00 07 17  .......:{p......
0B00: 00 0C 80 BA 7B 70 0F 01  15 00 16 00 17 00 18 00  ....{p..........
0B10: 3B 7C 70 0F 01 15 00 16  00 17 00 3A 7C 70 0F 01  ;|p........:|p..
0B20: 18 00 07 17 00 0C 80 BA  7C 70 0F 01 15 00 16 00  ........|p......
0B30: 17 00 18 00 3B 7D 70 0F  01 15 00 16 00 17 00 3A  ....;}p........:
0B40: 7D 70 0F 01 18 00 07 17  00 0C 80 BA 7D 70 0F 01  }p..........}p..
0B50: 15 00 16 00 17 00 18 00  3B 7E 70 0F 01 15 00 16  ........;~p.....
0B60: 00 17 00 3A 7E 70 0F 01  18 00 07 17 00 0C 80 BA  ...:~p..........
0B70: 7E 70 0F 01 15 00 16 00  17 00 18 00 3B 7F 70 0F  ~p..........;.p.
0B80: 01 15 00 16 00 17 00 3A  7F 70 0F 01 18 00 07 17  .......:.p......
0B90: 00 0C 80 BA 7F 70 0F 01  15 00 16 00 17 00 18 00  .....p..........
0BA0: 3B 80 70 0F 01 15 00 16  00 17 00 3A 80 70 0F 01  ;.p........:.p..
0BB0: 18 00 07 17 00 0C 80 BA  80 70 0F 01 15 00 16 00  .........p......
0BC0: 17 00 18 00 3B 81 70 0F  01 15 00 16 00 17 00 3A  ....;.p........:
0BD0: 81 70 0F 01 18 00 07 17  00 0C 80 BA 81 70 0F 01  .p...........p..
0BE0: 15 00 16 00 17 00 18 00  3B 82 70 0F 01 15 00 16  ........;.p.....
0BF0: 00 17 00 3A 82 70 0F 01  18 00 07 17 00 0C 80 BA  ...:.p..........
0C00: 82 70 0F 01 15 00 16 00  17 00 18 00 3B 83 70 0F  .p..........;.p.
0C10: 01 15 00 16 00 17 00 3A  83 70 0F 01 18 00 07 17  .......:.p......
0C20: 00 0C 80 BA 83 70 0F 01  15 00 16 00 17 00 18 00  .....p..........
0C30: 3B 84 70 0F 01 15 00 16  00 17 00 3A 84 70 0F 01  ;.p........:.p..
0C40: 18 00 07 17 00 0C 80 BA  84 70 0F 01 15 00 16 00  .........p......
0C50: 17 00 18 00 3B 85 70 0F  01 15 00 16 00 17 00 3A  ....;.p........:
0C60: 85 70 0F 01 18 00 07 17  00 0C 80 BA 85 70 0F 01  .p...........p..
0C70: 15 00 16 00 17 00 18 00  3B 86 70 0F 01 15 00 16  ........;.p.....
0C80: 00 17 00 3A 86 70 0F 01  18 00 07 17 00 0C 80 BA  ...:.p..........
0C90: 86 70 0F 01 15 00 16 00  17 00 18 00 3B 87 70 0F  .p..........;.p.
0CA0: 01 15 00 16 00 17 00 3A  87 70 0F 01 18 00 07 17  .......:.p......
0CB0: 00 0C 80 BA 87 70 0F 01  15 00 16 00 17 00 18 00  .....p..........
0CC0: 3B 88 70 0F 01 15 00 16  00 17 00 3A 88 70 0F 01  ;.p........:.p..
0CD0: 18 00 07 17 00 0C 80 BA  88 70 0F 01 15 00 16 00  .........p......
0CE0: 17 00 18 00 3B 89 70 0F  01 15 00 16 00 17 00 3A  ....;.p........:
0CF0: 89 70 0F 01 18 00 07 17  00 0C 80 BA 89 70 0F 01  .p...........p..
0D00: 15 00 16 00 17 00 18 00  3B 8A 70 0F 01 15 00 16  ........;.p.....
0D10: 00 17 00 3A 8A 70 0F 01  18 00 07 17 00 0C 80 BA  ...:.p..........
0D20: 8A 70 0F 01 15 00 16 00  17 00 18 00 3B 8B 70 0F  .p..........;.p.
0D30: 01 15 00 16 00 17 00 3A  8B 70 0F 01 18 00 07 17  .......:.p......
0D40: 00 0C 80 BA 8B 70 0F 01  15 00 16 00 17 00 18 00  .....p..........
0D50: 3B 8C 70 0F 01 15 00 16  00 17 00 3A 8C 70 0F 01  ;.p........:.p..
0D60: 18 00 07 17 00 0C 80 BA  8C 70 0F 01 15 00 16 00  .........p......
0D70: 17 00 18 00 3B 8D 70 0F  01 15 00 16 00 17 00 3A  ....;.p........:
0D80: 8D 70 0F 01 18 00 07 17  00 0C 80 BA 8D 70 0F 01  .p...........p..
0D90: 15 00 16 00 17 00 18 00  3B 8E 70 0F 01 15 00 16  ........;.p.....
0DA0: 00 17 00 3A 8E 70 0F 01  18 00 07 17 00 0C 80 BA  ...:.p..........
0DB0: 8E 70 0F 01 15 00 16 00  17 00 18 00 3B 8F 70 0F  .p..........;.p.
0DC0: 01 15 00 16 00 17 00 3A  8F 70 0F 01 18 00 07 17  .......:.p......
0DD0: 00 0C 80 BA 8F 70 0F 01  15 00 16 00 17 00 18 00  .....p..........
0DE0: 2F 00 68 70 0F 01 2F 00  69 70 0F 01 2F 00 6A 70  /.hp../.ip../.jp
0DF0: 0F 01 2F 00 6B 70 0F 01  2F 00 6C 70 0F 01 2F 00  ../.kp../.lp../.
0E00: 6D 70 0F 01 4E 00 68 70  0F 01 4E 00 69 70 0F 01  mp..N.hp..N.ip..
0E10: 4E 00 6A 70 0F 01 4E 00  6B 70 0F 01 4E 00 6C 70  N.jp..N.kp..N.lp
0E20: 0F 01 4E 00 6D 70 0F 01  27 10 68 70 0F 01 03 27  ..N.mp..'.hp...'
0E30: 10 69 70 0F 01 03 27 10  6A 70 0F 01 02 27 10 6B  .ip...'.jp...'.k
0E40: 70 0F 01 02 27 10 6C 70  0F 01 02 27 10 6D 70 0F  p...'.lp...'.mp.
0E50: 01 02 80 68 70 0F 01 80  69 70 0F 01 80 6A 70 0F  ...hp...ip...jp.
0E60: 01 80 6B 70 0F 01 80 6C  70 0F 01 80 6D 70 0F 01  ..kp...lp...mp..
0E70: 1A 09 62 1A 43 00 48 33  80 23 48 30 80 9D 0A 95  ..b.C.H3.#H0....
0E80: 6B 02 10 01 80 34 80 9D  0A 95 6B 15 00 1D 80 34  k....4....k....4
0E90: 80 9D 0A 95 6B 16 00 12  80 34 80 9D 0A 95 6B 17  ....k....4....k.
0EA0: 00 15 80 34 80 9D 0A 95  6B 18 00 13 80 34 80 BA  ...4....k....4..
0EB0: 68 70 0F 01 15 00 16 00  17 00 18 00 9D 0A 95 6B  hp.............k
0EC0: 15 00 35 80 34 80 9D 0A  95 6B 16 00 19 80 34 80  ..5.4....k....4.
0ED0: 9D 0A 95 6B 17 00 36 80  34 80 9D 0A 95 6B 18 00  ...k..6.4....k..
0EE0: 37 80 34 80 BA 69 70 0F  01 15 00 16 00 17 00 18  7.4..ip.........
0EF0: 00 48 38 80 2C 68 70 0F  01 68 70 0F 01 63 6C 70  .H8.,hp..hp..clp
0F00: 30 1C 39 80 2C 69 70 0F  01 69 70 0F 01 63 6C 70  0.9.,ip..ip..clp
0F10: 30 1C 39 80 23 1C 06 80  48 3A 80 1C 3B 80 3B 78  0.9.#...H:..;.;x
0F20: 70 0F 01 15 00 16 00 17  00 3A 78 70 0F 01 18 00  p........:xp....
0F30: 08 17 00 0C 80 BA 78 70  0F 01 15 00 16 00 17 00  ......xp........
0F40: 18 00 3B 79 70 0F 01 15  00 16 00 17 00 3A 79 70  ..;yp........:yp
0F50: 0F 01 18 00 08 17 00 0C  80 BA 79 70 0F 01 15 00  ..........yp....
0F60: 16 00 17 00 18 00 3B 7A  70 0F 01 15 00 16 00 17  ......;zp.......
0F70: 00 3A 7A 70 0F 01 18 00  08 17 00 0C 80 BA 7A 70  .:zp..........zp
0F80: 0F 01 15 00 16 00 17 00  18 00 45 3C 80 F8 FF FF  ..........E<....
0F90: 7F F8 FF FF 7F 73 65 30  30 01 80 1C 37 80 3B 7B  .....se00...7.;{
0FA0: 70 0F 01 15 00 16 00 17  00 3A 7B 70 0F 01 18 00  p........:{p....
0FB0: 08 17 00 0C 80 BA 7B 70  0F 01 15 00 16 00 17 00  ......{p........
0FC0: 18 00 3B 7C 70 0F 01 15  00 16 00 17 00 3A 7C 70  ..;|p........:|p
0FD0: 0F 01 18 00 08 17 00 0C  80 BA 7C 70 0F 01 15 00  ..........|p....
0FE0: 16 00 17 00 18 00 3B 7D  70 0F 01 15 00 16 00 17  ......;}p.......
0FF0: 00 3A 7D 70 0F 01 18 00  08 17 00 0C 80 BA 7D 70  .:}p..........}p
1000: 0F 01 15 00 16 00 17 00  18 00 45 3C 80 F8 FF FF  ..........E<....
1010: 7F F8 FF FF 7F 73 65 30  30 01 80 1C 37 80 3B 7E  .....se00...7.;~
1020: 70 0F 01 15 00 16 00 17  00 3A 7E 70 0F 01 18 00  p........:~p....
1030: 08 17 00 0C 80 BA 7E 70  0F 01 15 00 16 00 17 00  ......~p........
1040: 18 00 3B 7F 70 0F 01 15  00 16 00 17 00 3A 7F 70  ..;.p........:.p
1050: 0F 01 18 00 08 17 00 0C  80 BA 7F 70 0F 01 15 00  ...........p....
1060: 16 00 17 00 18 00 3B 80  70 0F 01 15 00 16 00 17  ......;.p.......
1070: 00 3A 80 70 0F 01 18 00  08 17 00 0C 80 BA 80 70  .:.p...........p
1080: 0F 01 15 00 16 00 17 00  18 00 45 3C 80 F8 FF FF  ..........E<....
1090: 7F F8 FF FF 7F 73 65 30  30 01 80 1C 37 80 3B 81  .....se00...7.;.
10A0: 70 0F 01 15 00 16 00 17  00 3A 81 70 0F 01 18 00  p........:.p....
10B0: 08 17 00 0C 80 BA 81 70  0F 01 15 00 16 00 17 00  .......p........
10C0: 18 00 3B 82 70 0F 01 15  00 16 00 17 00 3A 82 70  ..;.p........:.p
10D0: 0F 01 18 00 08 17 00 0C  80 BA 82 70 0F 01 15 00  ...........p....
10E0: 16 00 17 00 18 00 3B 83  70 0F 01 15 00 16 00 17  ......;.p.......
10F0: 00 3A 83 70 0F 01 18 00  08 17 00 0C 80 BA 83 70  .:.p...........p
1100: 0F 01 15 00 16 00 17 00  18 00 45 3C 80 F8 FF FF  ..........E<....
1110: 7F F8 FF FF 7F 73 65 30  30 01 80 1C 37 80 3B 84  .....se00...7.;.
1120: 70 0F 01 15 00 16 00 17  00 3A 84 70 0F 01 18 00  p........:.p....
1130: 08 17 00 0C 80 BA 84 70  0F 01 15 00 16 00 17 00  .......p........
1140: 18 00 3B 85 70 0F 01 15  00 16 00 17 00 3A 85 70  ..;.p........:.p
1150: 0F 01 18 00 08 17 00 0C  80 BA 85 70 0F 01 15 00  ...........p....
1160: 16 00 17 00 18 00 3B 86  70 0F 01 15 00 16 00 17  ......;.p.......
1170: 00 3A 86 70 0F 01 18 00  08 17 00 0C 80 BA 86 70  .:.p...........p
1180: 0F 01 15 00 16 00 17 00  18 00 45 3C 80 F8 FF FF  ..........E<....
1190: 7F F8 FF FF 7F 73 65 30  30 01 80 1C 37 80 3B 87  .....se00...7.;.
11A0: 70 0F 01 15 00 16 00 17  00 3A 87 70 0F 01 18 00  p........:.p....
11B0: 08 17 00 0C 80 BA 87 70  0F 01 15 00 16 00 17 00  .......p........
11C0: 18 00 3B 88 70 0F 01 15  00 16 00 17 00 3A 88 70  ..;.p........:.p
11D0: 0F 01 18 00 08 17 00 0C  80 BA 88 70 0F 01 15 00  ...........p....
11E0: 16 00 17 00 18 00 3B 89  70 0F 01 15 00 16 00 17  ......;.p.......
11F0: 00 3A 89 70 0F 01 18 00  08 17 00 0C 80 BA 89 70  .:.p...........p
1200: 0F 01 15 00 16 00 17 00  18 00 45 3C 80 F8 FF FF  ..........E<....
1210: 7F F8 FF FF 7F 73 65 30  30 01 80 1C 37 80 3B 8A  .....se00...7.;.
1220: 70 0F 01 15 00 16 00 17  00 3A 8A 70 0F 01 18 00  p........:.p....
1230: 08 17 00 0C 80 BA 8A 70  0F 01 15 00 16 00 17 00  .......p........
1240: 18 00 3B 8B 70 0F 01 15  00 16 00 17 00 3A 8B 70  ..;.p........:.p
1250: 0F 01 18 00 08 17 00 0C  80 BA 8B 70 0F 01 15 00  ...........p....
1260: 16 00 17 00 18 00 3B 8C  70 0F 01 15 00 16 00 17  ......;.p.......
1270: 00 3A 8C 70 0F 01 18 00  08 17 00 0C 80 BA 8C 70  .:.p...........p
1280: 0F 01 15 00 16 00 17 00  18 00 45 3C 80 F8 FF FF  ..........E<....
1290: 7F F8 FF FF 7F 73 65 30  30 01 80 1C 37 80 3B 8D  .....se00...7.;.
12A0: 70 0F 01 15 00 16 00 17  00 3A 8D 70 0F 01 18 00  p........:.p....
12B0: 08 17 00 0C 80 BA 8D 70  0F 01 15 00 16 00 17 00  .......p........
12C0: 18 00 3B 8E 70 0F 01 15  00 16 00 17 00 3A 8E 70  ..;.p........:.p
12D0: 0F 01 18 00 08 17 00 0C  80 BA 8E 70 0F 01 15 00  ...........p....
12E0: 16 00 17 00 18 00 3B 8F  70 0F 01 15 00 16 00 17  ......;.p.......
12F0: 00 3A 8F 70 0F 01 18 00  08 17 00 0C 80 BA 8F 70  .:.p...........p
1300: 0F 01 15 00 16 00 17 00  18 00 45 3C 80 F8 FF FF  ..........E<....
1310: 7F F8 FF FF 7F 73 65 30  30 01 80 1C 3B 80 23 48  .....se00...;.#H
1320: 3D 80 23 48 3E 80 23 1C  06 80 48 3F 80 9D 0A 95  =.#H>.#...H?....
1330: 6B 15 00 25 80 34 80 9D  0A 95 6B 16 00 40 80 34  k..%.4....k..@.4
1340: 80 9D 0A 95 6B 17 00 41  80 34 80 9D 0A 95 6B 18  ....k..A.4....k.
1350: 00 26 80 34 80 BA 6A 70  0F 01 15 00 16 00 17 00  .&.4..jp........
1360: 18 00 9D 0A 95 6B 15 00  28 80 34 80 9D 0A 95 6B  .....k..(.4....k
1370: 16 00 42 80 34 80 9D 0A  95 6B 17 00 29 80 34 80  ..B.4....k..).4.
1380: 9D 0A 95 6B 18 00 2C 80  34 80 BA 6B 70 0F 01 15  ...k..,.4..kp...
1390: 00 16 00 17 00 18 00 9D  0A 95 6B 15 00 2D 80 34  ..........k..-.4
13A0: 80 9D 0A 95 6B 16 00 11  80 34 80 9D 0A 95 6B 17  ....k....4....k.
13B0: 00 43 80 34 80 9D 0A 95  6B 18 00 16 80 34 80 BA  .C.4....k....4..
13C0: 6C 70 0F 01 15 00 16 00  17 00 18 00 9D 0A 95 6B  lp.............k
13D0: 15 00 21 80 34 80 9D 0A  95 6B 16 00 20 80 34 80  ..!.4....k.. .4.
13E0: 9D 0A 95 6B 17 00 06 80  34 80 9D 0A 95 6B 18 00  ...k....4....k..
13F0: 17 80 34 80 BA 6D 70 0F  01 15 00 16 00 17 00 18  ..4..mp.........
1400: 00 9D 0A 95 6B 15 00 44  80 34 80 9D 0A 95 6B 16  ....k..D.4....k.
1410: 00 45 80 34 80 9D 0A 95  6B 17 00 46 80 34 80 9D  .E.4....k..F.4..
1420: 0A 95 6B 18 00 47 80 34  80 BA 68 70 0F 01 15 00  ..k..G.4..hp....
1430: 16 00 17 00 18 00 9D 0A  95 6B 15 00 48 80 34 80  .........k..H.4.
1440: 9D 0A 95 6B 16 00 49 80  34 80 9D 0A 95 6B 17 00  ...k..I.4....k..
1450: 4A 80 34 80 9D 0A 95 6B  18 00 4B 80 34 80 BA 69  J.4....k..K.4..i
1460: 70 0F 01 15 00 16 00 17  00 18 00 2C 6A 70 0F 01  p..........,jp..
1470: 6A 70 0F 01 63 6C 70 30  2C 6B 70 0F 01 6B 70 0F  jp..clp0,kp..kp.
1480: 01 63 6C 70 30 2C 6C 70  0F 01 6C 70 0F 01 63 6C  .clp0,lp..lp..cl
1490: 70 30 1C 39 80 2C 6D 70  0F 01 6D 70 0F 01 63 6C  p0.9.,mp..mp..cl
14A0: 70 30 2C 68 70 0F 01 68  70 0F 01 63 6C 70 30 2C  p0,hp..hp..clp0,
14B0: 69 70 0F 01 69 70 0F 01  63 6C 70 30 1C 39 80 9D  ip..ip..clp0.9..
14C0: 0A 95 6B 15 00 4C 80 34  80 9D 0A 95 6B 16 00 4D  ..k..L.4....k..M
14D0: 80 34 80 9D 0A 95 6B 17  00 4E 80 34 80 9D 0A 95  .4....k..N.4....
14E0: 6B 18 00 4F 80 34 80 BA  6A 70 0F 01 15 00 16 00  k..O.4..jp......
14F0: 17 00 18 00 9D 0A 95 6B  15 00 50 80 34 80 9D 0A  .......k..P.4...
1500: 95 6B 16 00 04 80 34 80  9D 0A 95 6B 17 00 51 80  .k....4....k..Q.
1510: 34 80 9D 0A 95 6B 18 00  52 80 34 80 BA 6B 70 0F  4....k..R.4..kp.
1520: 01 15 00 16 00 17 00 18  00 2C 6A 70 0F 01 6A 70  .........,jp..jp
1530: 0F 01 63 6C 70 30 2C 6B  70 0F 01 6B 70 0F 01 63  ..clp0,kp..kp..c
1540: 6C 70 30 1C 39 80 23 48  30 80 1C 06 80 48 53 80  lp0.9.#H0....HS.
1550: 9D 0A 95 6B 15 00 54 80  34 80 9D 0A 95 6B 16 00  ...k..T.4....k..
1560: 55 80 34 80 9D 0A 95 6B  17 00 56 80 34 80 9D 0A  U.4....k..V.4...
1570: 95 6B 18 00 57 80 34 80  BA 68 70 0F 01 15 00 16  .k..W.4..hp.....
1580: 00 17 00 18 00 9D 0A 95  6B 15 00 58 80 34 80 9D  ........k..X.4..
1590: 0A 95 6B 16 00 59 80 34  80 9D 0A 95 6B 17 00 5A  ..k..Y.4....k..Z
15A0: 80 34 80 9D 0A 95 6B 18  00 5B 80 34 80 BA 69 70  .4....k..[.4..ip
15B0: 0F 01 15 00 16 00 17 00  18 00 9D 0A 95 6B 15 00  .............k..
15C0: 5C 80 34 80 9D 0A 95 6B  16 00 5D 80 34 80 9D 0A  \.4....k..].4...
15D0: 95 6B 17 00 5E 80 34 80  9D 0A 95 6B 18 00 5F 80  .k..^.4....k.._.
15E0: 34 80 BA 6A 70 0F 01 15  00 16 00 17 00 18 00 9D  4..jp...........
15F0: 0A 95 6B 15 00 3B 80 34  80 9D 0A 95 6B 16 00 60  ..k..;.4....k..`
1600: 80 34 80 9D 0A 95 6B 17  00 61 80 34 80 9D 0A 95  .4....k..a.4....
1610: 6B 18 00 62 80 34 80 BA  6B 70 0F 01 15 00 16 00  k..b.4..kp......
1620: 17 00 18 00 9D 0A 95 6B  15 00 63 80 34 80 9D 0A  .......k..c.4...
1630: 95 6B 16 00 64 80 34 80  9D 0A 95 6B 17 00 65 80  .k..d.4....k..e.
1640: 34 80 9D 0A 95 6B 18 00  66 80 34 80 BA 6C 70 0F  4....k..f.4..lp.
1650: 01 15 00 16 00 17 00 18  00 1C 3B 80 2C 68 70 0F  ..........;.,hp.
1660: 01 68 70 0F 01 63 6C 70  30 2C 69 70 0F 01 69 70  .hp..clp0,ip..ip
1670: 0F 01 63 6C 70 30 2C 6A  70 0F 01 6A 70 0F 01 63  ..clp0,jp..jp..c
1680: 6C 70 30 2C 6B 70 0F 01  6B 70 0F 01 63 6C 70 30  lp0,kp..kp..clp0
1690: 2C 6C 70 0F 01 6C 70 0F  01 63 6C 70 30 1C 39 80  ,lp..lp..clp0.9.
16A0: 23 1C 06 80 48 67 80 1C  06 80 2C 68 70 0F 01 68  #...Hg....,hp..h
16B0: 70 0F 01 63 6C 70 30 1C  06 80 2C 69 70 0F 01 69  p..clp0...,ip..i
16C0: 70 0F 01 63 6C 70 30 1C  06 80 2C 6A 70 0F 01 6A  p..clp0...,jp..j
16D0: 70 0F 01 63 6C 70 30 1C  06 80 2C 6B 70 0F 01 6B  p..clp0...,kp..k
16E0: 70 0F 01 63 6C 70 30 1C  06 80 2C 6C 70 0F 01 6C  p..clp0...,lp..l
16F0: 70 0F 01 63 6C 70 30 1C  39 80 23 1C 06 80 48 68  p..clp0.9.#...Hh
1700: 80 9D 0A 95 6B 15 00 69  80 34 80 9D 0A 95 6B 16  ....k..i.4....k.
1710: 00 6A 80 34 80 9D 0A 95  6B 17 00 6B 80 34 80 9D  .j.4....k..k.4..
1720: 0A 95 6B 18 00 6C 80 34  80 BA 68 70 0F 01 15 00  ..k..l.4..hp....
1730: 16 00 17 00 18 00 9D 0A  95 6B 15 00 6D 80 34 80  .........k..m.4.
1740: 9D 0A 95 6B 16 00 6E 80  34 80 9D 0A 95 6B 17 00  ...k..n.4....k..
1750: 6F 80 34 80 9D 0A 95 6B  18 00 70 80 34 80 BA 6A  o.4....k..p.4..j
1760: 70 0F 01 15 00 16 00 17  00 18 00 9D 0A 95 6B 15  p.............k.
1770: 00 71 80 34 80 9D 0A 95  6B 16 00 72 80 34 80 9D  .q.4....k..r.4..
1780: 0A 95 6B 17 00 73 80 34  80 9D 0A 95 6B 18 00 74  ..k..s.4....k..t
1790: 80 34 80 BA 6C 70 0F 01  15 00 16 00 17 00 18 00  .4..lp..........
17A0: 1C 3B 80 2C 68 70 0F 01  68 70 0F 01 63 6C 70 30  .;.,hp..hp..clp0
17B0: 2C 69 70 0F 01 69 70 0F  01 63 6C 70 30 2C 6A 70  ,ip..ip..clp0,jp
17C0: 0F 01 6A 70 0F 01 63 6C  70 30 2C 6B 70 0F 01 6B  ..jp..clp0,kp..k
17D0: 70 0F 01 63 6C 70 30 2C  6C 70 0F 01 6C 70 0F 01  p..clp0,lp..lp..
17E0: 63 6C 70 30 1C 39 80 23  1C 06 80 48 75 80 1C 06  clp0.9.#...Hu...
17F0: 80 2C 6C 70 0F 01 6C 70  0F 01 63 6C 70 30 1C 06  .,lp..lp..clp0..
1800: 80 2C 6B 70 0F 01 6B 70  0F 01 63 6C 70 30 1C 06  .,kp..kp..clp0..
1810: 80 2C 6A 70 0F 01 6A 70  0F 01 63 6C 70 30 1C 06  .,jp..jp..clp0..
1820: 80 2C 69 70 0F 01 69 70  0F 01 63 6C 70 30 1C 06  .,ip..ip..clp0..
1830: 80 2C 68 70 0F 01 68 70  0F 01 63 6C 70 30 1C 39  .,hp..hp..clp0.9
1840: 80 23 1C 06 80 48 76 80  9D 0A 95 6B 15 00 77 80  .#...Hv....k..w.
1850: 34 80 9D 0A 95 6B 16 00  78 80 34 80 9D 0A 95 6B  4....k..x.4....k
1860: 17 00 79 80 34 80 9D 0A  95 6B 18 00 7A 80 34 80  ..y.4....k..z.4.
1870: BA 68 70 0F 01 15 00 16  00 17 00 18 00 9D 0A 95  .hp.............
1880: 6B 15 00 7B 80 34 80 9D  0A 95 6B 16 00 7C 80 34  k..{.4....k..|.4
1890: 80 9D 0A 95 6B 17 00 7D  80 34 80 9D 0A 95 6B 18  ....k..}.4....k.
18A0: 00 7E 80 34 80 BA 6A 70  0F 01 15 00 16 00 17 00  .~.4..jp........
18B0: 18 00 9D 0A 95 6B 15 00  7F 80 34 80 9D 0A 95 6B  .....k....4....k
18C0: 16 00 80 80 34 80 9D 0A  95 6B 17 00 81 80 34 80  ....4....k....4.
18D0: 9D 0A 95 6B 18 00 82 80  34 80 BA 6C 70 0F 01 15  ...k....4..lp...
18E0: 00 16 00 17 00 18 00 6E  F0 FF FF 7F 01 80 99 F0  .......n........
18F0: FF FF 7F 45 00 80 F0 FF  FF 7F F0 FF FF 7F 73 30  ...E..........s0
1900: 33 38 01 80 1C 3B 80 2C  68 70 0F 01 68 70 0F 01  38...;.,hp..hp..
1910: 63 6C 70 30 1C 39 80 9D  0A 15 64 15 00 01 80 83  clp0.9....d.....
1920: 80 9D 0A 15 64 16 00 03  80 83 80 9D 0A 15 64 17  ....d.........d.
1930: 00 05 80 83 80 08 17 00  84 80 9D 0A 15 64 18 00  .............d..
1940: 09 80 83 80 BA 78 70 0F  01 15 00 16 00 17 00 18  .....xp.........
1950: 00 9D 0A 15 64 15 00 0B  80 83 80 9D 0A 15 64 16  ....d.........d.
1960: 00 08 80 83 80 9D 0A 15  64 17 00 1B 80 83 80 08  ........d.......
1970: 17 00 84 80 9D 0A 15 64  18 00 1C 80 83 80 BA 79  .......d.......y
1980: 70 0F 01 15 00 16 00 17  00 18 00 9D 0A 15 64 15  p.............d.
1990: 00 1D 80 83 80 9D 0A 15  64 16 00 12 80 83 80 9D  ........d.......
19A0: 0A 15 64 17 00 15 80 83  80 08 17 00 84 80 9D 0A  ..d.............
19B0: 15 64 18 00 13 80 83 80  BA 7A 70 0F 01 15 00 16  .d.......zp.....
19C0: 00 17 00 18 00 45 3C 80  F8 FF FF 7F F8 FF FF 7F  .....E<.........
19D0: 73 65 30 31 01 80 1C 3B  80 9D 0A 15 64 15 00 85  se01...;....d...
19E0: 80 83 80 9D 0A 15 64 16  00 86 80 83 80 9D 0A 15  ......d.........
19F0: 64 17 00 87 80 83 80 08  17 00 88 80 9D 0A 15 64  d..............d
1A00: 18 00 89 80 83 80 BA 7A  70 0F 01 15 00 16 00 17  .......zp.......
1A10: 00 18 00 2C 69 70 0F 01  69 70 0F 01 63 6C 70 30  ...,ip..ip..clp0
1A20: 1C 06 80 07 17 00 88 80  BA 7A 70 0F 01 15 00 16  .........zp.....
1A30: 00 17 00 18 00 45 3C 80  F8 FF FF 7F F8 FF FF 7F  .....E<.........
1A40: 73 65 30 30 01 80 1C 06  80 9D 0A 15 64 15 00 8A  se00........d...
1A50: 80 83 80 9D 0A 15 64 16  00 8B 80 83 80 9D 0A 15  ......d.........
1A60: 64 17 00 8C 80 83 80 08  17 00 88 80 9D 0A 15 64  d..............d
1A70: 18 00 8D 80 83 80 BA 79  70 0F 01 15 00 16 00 17  .......yp.......
1A80: 00 18 00 2C 6A 70 0F 01  6A 70 0F 01 63 6C 70 30  ...,jp..jp..clp0
1A90: 1C 06 80 07 17 00 88 80  BA 79 70 0F 01 15 00 16  .........yp.....
1AA0: 00 17 00 18 00 45 3C 80  F8 FF FF 7F F8 FF FF 7F  .....E<.........
1AB0: 73 65 30 30 01 80 1C 06  80 9D 0A 15 64 15 00 8E  se00........d...
1AC0: 80 83 80 9D 0A 15 64 16  00 8F 80 83 80 9D 0A 15  ......d.........
1AD0: 64 17 00 90 80 83 80 08  17 00 88 80 9D 0A 15 64  d..............d
1AE0: 18 00 91 80 83 80 BA 78  70 0F 01 15 00 16 00 17  .......xp.......
1AF0: 00 18 00 2C 6B 70 0F 01  6B 70 0F 01 63 6C 70 30  ...,kp..kp..clp0
1B00: 1C 06 80 07 17 00 88 80  BA 78 70 0F 01 15 00 16  .........xp.....
1B10: 00 17 00 18 00 45 3C 80  F8 FF FF 7F F8 FF FF 7F  .....E<.........
1B20: 73 65 30 30 01 80 1C 3B  80 23 1C 06 80 48 92 80  se00...;.#...H..
1B30: 23 48 30 80 1C 06 80 48  93 80 6E F0 FF FF 7F 01  #H0....H..n.....
1B40: 80 99 F0 FF FF 7F 45 00  80 F0 FF FF 7F F0 FF FF  ......E.........
1B50: 7F 73 30 33 38 01 80 1C  3B 80 2C 6C 70 0F 01 6C  .s038...;.,lp..l
1B60: 70 0F 01 63 6C 70 30 1C  39 80 9D 0A 15 64 15 00  p..clp0.9....d..
1B70: 94 80 83 80 9D 0A 15 64  16 00 95 80 83 80 9D 0A  .......d........
1B80: 15 64 17 00 96 80 83 80  08 17 00 84 80 9D 0A 15  .d..............
1B90: 64 18 00 97 80 83 80 BA  84 70 0F 01 15 00 16 00  d........p......
1BA0: 17 00 18 00 9D 0A 15 64  15 00 98 80 83 80 9D 0A  .......d........
1BB0: 15 64 16 00 99 80 83 80  9D 0A 15 64 17 00 9A 80  .d.........d....
1BC0: 83 80 08 17 00 84 80 9D  0A 15 64 18 00 9B 80 83  ..........d.....
1BD0: 80 BA 85 70 0F 01 15 00  16 00 17 00 18 00 9D 0A  ...p............
1BE0: 15 64 15 00 9C 80 83 80  9D 0A 15 64 16 00 9D 80  .d.........d....
1BF0: 83 80 9D 0A 15 64 17 00  9E 80 83 80 08 17 00 84  .....d..........
1C00: 80 9D 0A 15 64 18 00 9F  80 83 80 BA 86 70 0F 01  ....d........p..
1C10: 15 00 16 00 17 00 18 00  45 3C 80 F8 FF FF 7F F8  ........E<......
1C20: FF FF 7F 73 65 30 31 01  80 1C 3B 80 9D 0A 95 6B  ...se01...;....k
1C30: 15 00 A0 80 34 80 9D 0A  95 6B 16 00 A1 80 34 80  ....4....k....4.
1C40: 9D 0A 95 6B 17 00 A2 80  34 80 9D 0A 95 6B 18 00  ...k....4....k..
1C50: A3 80 34 80 BA 68 70 0F  01 15 00 16 00 17 00 18  ..4..hp.........
1C60: 00 9D 0A 15 64 15 00 A4  80 83 80 9D 0A 15 64 16  ....d.........d.
1C70: 00 A5 80 83 80 9D 0A 15  64 17 00 A6 80 83 80 08  ........d.......
1C80: 17 00 88 80 9D 0A 15 64  18 00 A7 80 83 80 BA 86  .......d........
1C90: 70 0F 01 15 00 16 00 17  00 18 00 2C 68 70 0F 01  p..........,hp..
1CA0: 68 70 0F 01 63 6C 70 30  1C 06 80 07 17 00 88 80  hp..clp0........
1CB0: BA 86 70 0F 01 15 00 16  00 17 00 18 00 45 3C 80  ..p..........E<.
1CC0: F8 FF FF 7F F8 FF FF 7F  73 65 30 30 01 80 1C 3B  ........se00...;
1CD0: 80 23 1C 06 80 48 A8 80  1C 3B 80 9D 0A 95 6B 15  .#...H...;....k.
1CE0: 00 A9 80 34 80 9D 0A 95  6B 16 00 AA 80 34 80 9D  ...4....k....4..
1CF0: 0A 95 6B 17 00 AB 80 34  80 9D 0A 95 6B 18 00 AC  ..k....4....k...
1D00: 80 34 80 BA 69 70 0F 01  15 00 16 00 17 00 18 00  .4..ip..........
1D10: 9D 0A 15 64 15 00 AD 80  83 80 9D 0A 15 64 16 00  ...d.........d..
1D20: AE 80 83 80 9D 0A 15 64  17 00 AF 80 83 80 08 17  .......d........
1D30: 00 88 80 9D 0A 15 64 18  00 B0 80 83 80 BA 85 70  ......d........p
1D40: 0F 01 15 00 16 00 17 00  18 00 2C 69 70 0F 01 69  ..........,ip..i
1D50: 70 0F 01 63 6C 70 30 1C  06 80 07 17 00 88 80 BA  p..clp0.........
1D60: 85 70 0F 01 15 00 16 00  17 00 18 00 45 3C 80 F8  .p..........E<..
1D70: FF FF 7F F8 FF FF 7F 73  65 30 30 01 80 1C 06 80  .......se00.....
1D80: 9D 0A 15 64 15 00 B1 80  83 80 9D 0A 15 64 16 00  ...d.........d..
1D90: B2 80 83 80 9D 0A 15 64  17 00 B3 80 83 80 08 17  .......d........
1DA0: 00 88 80 9D 0A 15 64 18  00 B4 80 83 80 BA 84 70  ......d........p
1DB0: 0F 01 15 00 16 00 17 00  18 00 2C 6B 70 0F 01 6B  ..........,kp..k
1DC0: 70 0F 01 63 6C 70 30 1C  06 80 07 17 00 88 80 BA  p..clp0.........
1DD0: 84 70 0F 01 15 00 16 00  17 00 18 00 45 3C 80 F8  .p..........E<..
1DE0: FF FF 7F F8 FF FF 7F 73  65 30 30 01 80 1C 3B 80  .......se00...;.
1DF0: 23 1C 06 80 48 B5 80 23  48 30 80 1C 06 80 48 B6  #...H..#H0....H.
1E00: 80 23 48 B7 80 23 48 B8  80 6E F0 FF FF 7F 01 80  .#H..#H..n......
1E10: 99 F0 FF FF 7F 45 00 80  F0 FF FF 7F F0 FF FF 7F  .....E..........
1E20: 73 30 33 38 01 80 1C 3B  80 9D 0A 95 6B 15 00 39  s038...;....k..9
1E30: 80 34 80 9D 0A 95 6B 16  00 B9 80 34 80 9D 0A 95  .4....k....4....
1E40: 6B 17 00 BA 80 34 80 9D  0A 95 6B 18 00 BB 80 34  k....4....k....4
1E50: 80 BA 69 70 0F 01 15 00  16 00 17 00 18 00 2C 69  ..ip..........,i
1E60: 70 0F 01 69 70 0F 01 63  6C 70 30 1C 39 80 9D 0A  p..ip..clp0.9...
1E70: 15 64 15 00 7F 80 83 80  9D 0A 15 64 16 00 80 80  .d.........d....
1E80: 83 80 9D 0A 15 64 17 00  81 80 83 80 08 17 00 84  .....d..........
1E90: 80 9D 0A 15 64 18 00 82  80 83 80 BA 7B 70 0F 01  ....d.......{p..
1EA0: 15 00 16 00 17 00 18 00  9D 0A 15 64 15 00 BC 80  ...........d....
1EB0: 83 80 9D 0A 15 64 16 00  BD 80 83 80 9D 0A 15 64  .....d.........d
1EC0: 17 00 BE 80 83 80 08 17  00 84 80 9D 0A 15 64 18  ..............d.
1ED0: 00 BF 80 83 80 BA 7C 70  0F 01 15 00 16 00 17 00  ......|p........
1EE0: 18 00 9D 0A 15 64 15 00  A0 80 83 80 9D 0A 15 64  .....d.........d
1EF0: 16 00 A1 80 83 80 9D 0A  15 64 17 00 A2 80 83 80  .........d......
1F00: 08 17 00 84 80 9D 0A 15  64 18 00 A3 80 83 80 BA  ........d.......
1F10: 7D 70 0F 01 15 00 16 00  17 00 18 00 9D 0A 15 64  }p.............d
1F20: 15 00 85 80 83 80 9D 0A  15 64 16 00 86 80 83 80  .........d......
1F30: 9D 0A 15 64 17 00 87 80  83 80 08 17 00 84 80 9D  ...d............
1F40: 0A 15 64 18 00 89 80 83  80 BA 7A 70 0F 01 15 00  ..d.......zp....
1F50: 16 00 17 00 18 00 45 3C  80 F8 FF FF 7F F8 FF FF  ......E<........
1F60: 7F 73 65 30 31 01 80 2C  6A 70 0F 01 6A 70 0F 01  .se01..,jp..jp..
1F70: 63 6C 70 30 1C 3B 80 9D  0A 15 64 15 00 C0 80 83  clp0.;....d.....
1F80: 80 9D 0A 15 64 16 00 C1  80 83 80 9D 0A 15 64 17  ....d.........d.
1F90: 00 C2 80 83 80 08 17 00  88 80 9D 0A 15 64 18 00  .............d..
1FA0: C3 80 83 80 BA 7A 70 0F  01 15 00 16 00 17 00 18  .....zp.........
1FB0: 00 1C 06 80 07 17 00 88  80 BA 7A 70 0F 01 15 00  ..........zp....
1FC0: 16 00 17 00 18 00 45 3C  80 F8 FF FF 7F F8 FF FF  ......E<........
1FD0: 7F 73 65 30 30 01 80 2C  6B 70 0F 01 6B 70 0F 01  .se00..,kp..kp..
1FE0: 63 6C 70 30 1C 06 80 9D  0A 15 64 15 00 C4 80 83  clp0......d.....
1FF0: 80 9D 0A 15 64 16 00 C5  80 83 80 9D 0A 15 64 17  ....d.........d.
2000: 00 C6 80 83 80 08 17 00  88 80 9D 0A 15 64 18 00  .............d..
2010: C7 80 83 80 BA 7D 70 0F  01 15 00 16 00 17 00 18  .....}p.........
2020: 00 1C 06 80 07 17 00 88  80 BA 7D 70 0F 01 15 00  ..........}p....
2030: 16 00 17 00 18 00 45 3C  80 F8 FF FF 7F F8 FF FF  ......E<........
2040: 7F 73 65 30 30 01 80 2C  6C 70 0F 01 6C 70 0F 01  .se00..,lp..lp..
2050: 63 6C 70 30 1C 06 80 9D  0A 15 64 15 00 94 80 83  clp0......d.....
2060: 80 9D 0A 15 64 16 00 95  80 83 80 9D 0A 15 64 17  ....d.........d.
2070: 00 96 80 83 80 08 17 00  88 80 9D 0A 15 64 18 00  .............d..
2080: 97 80 83 80 BA 7C 70 0F  01 15 00 16 00 17 00 18  .....|p.........
2090: 00 1C 06 80 07 17 00 88  80 BA 7C 70 0F 01 15 00  ..........|p....
20A0: 16 00 17 00 18 00 45 3C  80 F8 FF FF 7F F8 FF FF  ......E<........
20B0: 7F 73 65 30 30 01 80 2C  68 70 0F 01 68 70 0F 01  .se00..,hp..hp..
20C0: 63 6C 70 30 1C 06 80 9D  0A 15 64 15 00 C8 80 83  clp0......d.....
20D0: 80 9D 0A 15 64 16 00 C9  80 83 80 9D 0A 15 64 17  ....d.........d.
20E0: 00 CA 80 83 80 08 17 00  88 80 9D 0A 15 64 18 00  .............d..
20F0: CB 80 83 80 BA 7B 70 0F  01 15 00 16 00 17 00 18  .....{p.........
2100: 00 1C 06 80 07 17 00 88  80 BA 7B 70 0F 01 15 00  ..........{p....
2110: 16 00 17 00 18 00 45 3C  80 F8 FF FF 7F F8 FF FF  ......E<........
2120: 7F 73 65 30 30 01 80 1C  3B 80 23 1C 06 80 48 30  .se00...;.#...H0
2130: 80 1C 06 80 48 CC 80 23  48 CD 80 1C 3B 80 9D 0A  ....H..#H...;...
2140: 95 6B 15 00 CE 80 34 80  9D 0A 95 6B 16 00 CF 80  .k....4....k....
2150: 34 80 9D 0A 95 6B 17 00  D0 80 34 80 9D 0A 95 6B  4....k....4....k
2160: 18 00 D1 80 34 80 BA 88  70 0F 01 15 00 16 00 17  ....4...p.......
2170: 00 18 00 9D 0A 95 6B 15  00 D2 80 34 80 9D 0A 95  ......k....4....
2180: 6B 16 00 D3 80 34 80 9D  0A 95 6B 17 00 D4 80 34  k....4....k....4
2190: 80 9D 0A 95 6B 18 00 D5  80 34 80 BA 79 70 0F 01  ....k....4..yp..
21A0: 15 00 16 00 17 00 18 00  1C 3B 80 23 1C 06 80 9D  .........;.#....
21B0: 0A 15 64 15 00 D6 80 83  80 9D 0A 15 64 16 00 D7  ..d.........d...
21C0: 80 83 80 9D 0A 15 64 17  00 D8 80 83 80 9D 0A 15  ......d.........
21D0: 64 18 00 D9 80 83 80 BA  88 70 0F 01 15 00 16 00  d........p......
21E0: 17 00 18 00 9D 0A 15 64  15 00 8A 80 83 80 9D 0A  .......d........
21F0: 15 64 16 00 8B 80 83 80  9D 0A 15 64 17 00 8C 80  .d.........d....
2200: 83 80 9D 0A 15 64 18 00  8D 80 83 80 BA 79 70 0F  .....d.......yp.
2210: 01 15 00 16 00 17 00 18  00 48 DA 80 1C 3B 80 9D  .........H...;..
2220: 0A 95 6B 15 00 DB 80 34  80 9D 0A 95 6B 16 00 DC  ..k....4....k...
2230: 80 34 80 9D 0A 95 6B 17  00 DD 80 34 80 9D 0A 95  .4....k....4....
2240: 6B 18 00 DE 80 34 80 BA  7E 70 0F 01 15 00 16 00  k....4..~p......
2250: 17 00 18 00 9D 0A 95 6B  15 00 DF 80 34 80 9D 0A  .......k....4...
2260: 95 6B 16 00 E0 80 34 80  9D 0A 95 6B 17 00 E1 80  .k....4....k....
2270: 34 80 9D 0A 95 6B 18 00  E2 80 34 80 BA 80 70 0F  4....k....4...p.
2280: 01 15 00 16 00 17 00 18  00 9D 0A 95 6B 15 00 E3  ............k...
2290: 80 34 80 9D 0A 95 6B 16  00 E4 80 34 80 9D 0A 95  .4....k....4....
22A0: 6B 17 00 E5 80 34 80 9D  0A 95 6B 18 00 31 80 34  k....4....k..1.4
22B0: 80 BA 8A 70 0F 01 15 00  16 00 17 00 18 00 9D 0A  ...p............
22C0: 95 6B 15 00 E6 80 34 80  9D 0A 95 6B 16 00 E7 80  .k....4....k....
22D0: 34 80 9D 0A 95 6B 17 00  88 80 34 80 9D 0A 95 6B  4....k....4....k
22E0: 18 00 E8 80 34 80 BA 8C  70 0F 01 15 00 16 00 17  ....4...p.......
22F0: 00 18 00 1C 3B 80 23 1C  06 80 9D 0A 15 64 15 00  ....;.#......d..
2300: E9 80 83 80 9D 0A 15 64  16 00 EA 80 83 80 9D 0A  .......d........
2310: 15 64 17 00 EB 80 83 80  9D 0A 15 64 18 00 EC 80  .d.........d....
2320: 83 80 BA 7E 70 0F 01 15  00 16 00 17 00 18 00 9D  ...~p...........
2330: 0A 15 64 15 00 ED 80 83  80 9D 0A 15 64 16 00 EE  ..d.........d...
2340: 80 83 80 9D 0A 15 64 17  00 EF 80 83 80 9D 0A 15  ......d.........
2350: 64 18 00 F0 80 83 80 BA  80 70 0F 01 15 00 16 00  d........p......
2360: 17 00 18 00 9D 0A 15 64  15 00 F1 80 83 80 9D 0A  .......d........
2370: 15 64 16 00 F2 80 83 80  9D 0A 15 64 17 00 F3 80  .d.........d....
2380: 83 80 9D 0A 15 64 18 00  F4 80 83 80 BA 8A 70 0F  .....d........p.
2390: 01 15 00 16 00 17 00 18  00 9D 0A 15 64 15 00 00  ............d...
23A0: 80 83 80 9D 0A 15 64 16  00 02 80 83 80 9D 0A 15  ......d.........
23B0: 64 17 00 F5 80 83 80 9D  0A 15 64 18 00 F6 80 83  d.........d.....
23C0: 80 BA 8C 70 0F 01 15 00  16 00 17 00 18 00 48 F7  ...p..........H.
23D0: 80 1C 3B 80 9D 0A 95 6B  15 00 F8 80 34 80 9D 0A  ..;....k....4...
23E0: 95 6B 16 00 F9 80 34 80  9D 0A 95 6B 17 00 FA 80  .k....4....k....
23F0: 34 80 9D 0A 95 6B 18 00  FB 80 34 80 BA 7F 70 0F  4....k....4...p.
2400: 01 15 00 16 00 17 00 18  00 1C 3B 80 23 1C 06 80  ..........;.#...
2410: 9D 0A 15 64 15 00 FC 80  83 80 9D 0A 15 64 16 00  ...d.........d..
2420: FD 80 83 80 9D 0A 15 64  17 00 FE 80 83 80 9D 0A  .......d........
2430: 15 64 18 00 FF 80 83 80  BA 7F 70 0F 01 15 00 16  .d........p.....
2440: 00 17 00 18 00 1A 64 00  48 30 80 1C 06 80 9D 0A  ......d.H0......
2450: 95 6B 15 00 00 81 34 80  9D 0A 95 6B 16 00 01 81  .k....4....k....
2460: 34 80 9D 0A 95 6B 17 00  02 81 34 80 9D 0A 95 6B  4....k....4....k
2470: 18 00 03 81 34 80 BA 69  70 0F 01 15 00 16 00 17  ....4..ip.......
2480: 00 18 00 9D 0A 95 6B 15  00 04 81 34 80 9D 0A 95  ......k....4....
2490: 6B 16 00 05 81 34 80 9D  0A 95 6B 17 00 06 81 34  k....4....k....4
24A0: 80 9D 0A 95 6B 18 00 07  81 34 80 BA 6A 70 0F 01  ....k....4..jp..
24B0: 15 00 16 00 17 00 18 00  9D 0A 15 64 15 00 A4 80  ...........d....
24C0: 83 80 9D 0A 15 64 16 00  A5 80 83 80 9D 0A 15 64  .....d.........d
24D0: 17 00 A6 80 83 80 9D 0A  15 64 18 00 A7 80 83 80  .........d......
24E0: BA 7E 70 0F 01 15 00 16  00 17 00 18 00 9D 0A 15  .~p.............
24F0: 64 15 00 C8 80 83 80 9D  0A 15 64 16 00 C9 80 83  d.........d.....
2500: 80 9D 0A 15 64 17 00 CA  80 83 80 9D 0A 15 64 18  ....d.........d.
2510: 00 CB 80 83 80 BA 78 70  0F 01 15 00 16 00 17 00  ......xp........
2520: 18 00 9D 0A 15 64 15 00  08 81 83 80 9D 0A 15 64  .....d.........d
2530: 16 00 09 81 83 80 9D 0A  15 64 17 00 0A 81 83 80  .........d......
2540: 9D 0A 15 64 18 00 0B 81  83 80 BA 7A 70 0F 01 15  ...d.......zp...
2550: 00 16 00 17 00 18 00 9D  0A 15 64 15 00 0C 81 83  ..........d.....
2560: 80 9D 0A 15 64 16 00 0D  81 83 80 9D 0A 15 64 17  ....d.........d.
2570: 00 0E 81 83 80 9D 0A 15  64 18 00 0F 81 83 80 BA  ........d.......
2580: 7B 70 0F 01 15 00 16 00  17 00 18 00 9D 0A 15 64  {p.............d
2590: 15 00 10 81 83 80 9D 0A  15 64 16 00 11 81 83 80  .........d......
25A0: 9D 0A 15 64 17 00 12 81  83 80 9D 0A 15 64 18 00  ...d.........d..
25B0: 13 81 83 80 BA 8A 70 0F  01 15 00 16 00 17 00 18  ......p.........
25C0: 00 9D 0A 15 64 15 00 14  81 83 80 9D 0A 15 64 16  ....d.........d.
25D0: 00 15 81 83 80 9D 0A 15  64 17 00 16 81 83 80 9D  ........d.......
25E0: 0A 15 64 18 00 17 81 83  80 BA 80 70 0F 01 15 00  ..d........p....
25F0: 16 00 17 00 18 00 9D 0A  15 64 15 00 18 81 83 80  .........d......
2600: 9D 0A 15 64 16 00 19 81  83 80 9D 0A 15 64 17 00  ...d.........d..
2610: 1A 81 83 80 9D 0A 15 64  18 00 1B 81 83 80 BA 7C  .......d.......|
2620: 70 0F 01 15 00 16 00 17  00 18 00 9D 0A 15 64 15  p.............d.
2630: 00 1C 81 83 80 9D 0A 15  64 16 00 1D 81 83 80 9D  ........d.......
2640: 0A 15 64 17 00 1E 81 83  80 9D 0A 15 64 18 00 1F  ..d.........d...
2650: 81 83 80 BA 7D 70 0F 01  15 00 16 00 17 00 18 00  ....}p..........
2660: 9D 0A 15 64 15 00 20 81  83 80 9D 0A 15 64 16 00  ...d.. ......d..
2670: 21 81 83 80 9D 0A 15 64  17 00 22 81 83 80 9D 0A  !......d..".....
2680: 15 64 18 00 23 81 83 80  BA 7F 70 0F 01 15 00 16  .d..#.....p.....
2690: 00 17 00 18 00 9D 0A 15  64 15 00 24 81 83 80 9D  ........d..$....
26A0: 0A 15 64 16 00 25 81 83  80 9D 0A 15 64 17 00 26  ..d..%......d..&
26B0: 81 83 80 9D 0A 15 64 18  00 27 81 83 80 BA 81 70  ......d..'.....p
26C0: 0F 01 15 00 16 00 17 00  18 00 9D 0A 15 64 15 00  .............d..
26D0: 28 81 83 80 9D 0A 15 64  16 00 29 81 83 80 9D 0A  (......d..).....
26E0: 15 64 17 00 2A 81 83 80  9D 0A 15 64 18 00 2B 81  .d..*......d..+.
26F0: 83 80 BA 79 70 0F 01 15  00 16 00 17 00 18 00 9D  ...yp...........
2700: 0A 15 64 15 00 2C 81 83  80 9D 0A 15 64 16 00 2D  ..d..,......d..-
2710: 81 83 80 9D 0A 15 64 17  00 2E 81 83 80 9D 0A 15  ......d.........
2720: 64 18 00 2F 81 83 80 BA  82 70 0F 01 15 00 16 00  d../.....p......
2730: 17 00 18 00 9D 0A 15 64  15 00 30 81 83 80 9D 0A  .......d..0.....
2740: 15 64 16 00 31 81 83 80  9D 0A 15 64 17 00 32 81  .d..1......d..2.
2750: 83 80 9D 0A 15 64 18 00  33 81 83 80 BA 83 70 0F  .....d..3.....p.
2760: 01 15 00 16 00 17 00 18  00 9D 0A 15 64 15 00 34  ............d..4
2770: 81 83 80 9D 0A 15 64 16  00 35 81 83 80 9D 0A 15  ......d..5......
2780: 64 17 00 36 81 83 80 9D  0A 15 64 18 00 37 81 83  d..6......d..7..
2790: 80 BA 8C 70 0F 01 15 00  16 00 17 00 18 00 9D 0A  ...p............
27A0: 15 64 15 00 38 81 83 80  9D 0A 15 64 16 00 39 81  .d..8......d..9.
27B0: 83 80 9D 0A 15 64 17 00  3A 81 83 80 9D 0A 15 64  .....d..:......d
27C0: 18 00 3B 81 83 80 BA 84  70 0F 01 15 00 16 00 17  ..;.....p.......
27D0: 00 18 00 9D 0A 15 64 15  00 3C 81 83 80 9D 0A 15  ......d..<......
27E0: 64 16 00 3D 81 83 80 9D  0A 15 64 17 00 3E 81 83  d..=......d..>..
27F0: 80 9D 0A 15 64 18 00 3F  81 83 80 BA 85 70 0F 01  ....d..?.....p..
2800: 15 00 16 00 17 00 18 00  9D 0A 15 64 15 00 40 81  ...........d..@.
2810: 83 80 9D 0A 15 64 16 00  41 81 83 80 9D 0A 15 64  .....d..A......d
2820: 17 00 42 81 83 80 9D 0A  15 64 18 00 43 81 83 80  ..B......d..C...
2830: BA 86 70 0F 01 15 00 16  00 17 00 18 00 9D 0A 15  ..p.............
2840: 64 15 00 44 81 83 80 9D  0A 15 64 16 00 45 81 83  d..D......d..E..
2850: 80 9D 0A 15 64 17 00 46  81 83 80 9D 0A 15 64 18  ....d..F......d.
2860: 00 47 81 83 80 BA 88 70  0F 01 15 00 16 00 17 00  .G.....p........
2870: 18 00 9D 0A 15 64 15 00  48 81 83 80 9D 0A 15 64  .....d..H......d
2880: 16 00 49 81 83 80 9D 0A  15 64 17 00 4A 81 83 80  ..I......d..J...
2890: 9D 0A 15 64 18 00 4B 81  83 80 BA 87 70 0F 01 15  ...d..K.....p...
28A0: 00 16 00 17 00 18 00 9D  0A 15 64 15 00 4C 81 83  ..........d..L..
28B0: 80 9D 0A 15 64 16 00 4D  81 83 80 9D 0A 15 64 17  ....d..M......d.
28C0: 00 4E 81 83 80 9D 0A 15  64 18 00 4F 81 83 80 BA  .N......d..O....
28D0: 89 70 0F 01 15 00 16 00  17 00 18 00 9D 0A 15 64  .p.............d
28E0: 15 00 50 81 83 80 9D 0A  15 64 16 00 51 81 83 80  ..P......d..Q...
28F0: 9D 0A 15 64 17 00 52 81  83 80 9D 0A 15 64 18 00  ...d..R......d..
2900: 53 81 83 80 BA 8B 70 0F  01 15 00 16 00 17 00 18  S.....p.........
2910: 00 9D 0A 15 64 15 00 7F  80 83 80 9D 0A 15 64 16  ....d.........d.
2920: 00 80 80 83 80 9D 0A 15  64 17 00 81 80 83 80 9D  ........d.......
2930: 0A 15 64 18 00 82 80 83  80 BA 8D 70 0F 01 15 00  ..d........p....
2940: 16 00 17 00 18 00 9D 0A  15 64 15 00 F1 80 83 80  .........d......
2950: 9D 0A 15 64 16 00 F2 80  83 80 9D 0A 15 64 17 00  ...d.........d..
2960: F3 80 83 80 9D 0A 15 64  18 00 F4 80 83 80 BA 8E  .......d........
2970: 70 0F 01 15 00 16 00 17  00 18 00 9D 0A 15 64 15  p.............d.
2980: 00 FC 80 83 80 9D 0A 15  64 16 00 FD 80 83 80 9D  ........d.......
2990: 0A 15 64 17 00 FE 80 83  80 9D 0A 15 64 18 00 FF  ..d.........d...
29A0: 80 83 80 BA 8F 70 0F 01  15 00 16 00 17 00 18 00  .....p..........
29B0: 1A 43 00 48 54 81 6E F0  FF FF 7F 01 80 99 F0 FF  .C.HT.n.........
29C0: FF 7F 45 00 80 F0 FF FF  7F F0 FF FF 7F 73 30 33  ..E..........s03
29D0: 38 01 80 1C 3B 80 2C 69  70 0F 01 69 70 0F 01 63  8...;.,ip..ip..c
29E0: 6C 70 30 1C 39 80 9D 0A  15 64 15 00 7F 80 83 80  lp0.9....d......
29F0: 9D 0A 15 64 16 00 80 80  83 80 9D 0A 15 64 17 00  ...d.........d..
2A00: 81 80 83 80 08 17 00 84  80 9D 0A 15 64 18 00 82  ............d...
2A10: 80 83 80 BA 8D 70 0F 01  15 00 16 00 17 00 18 00  .....p..........
2A20: 45 3C 80 F8 FF FF 7F F8  FF FF 7F 73 65 30 31 01  E<.........se01.
2A30: 80 2C 6A 70 0F 01 6A 70  0F 01 63 6C 70 30 1C 3B  .,jp..jp..clp0.;
2A40: 80 9D 0A 15 64 15 00 00  80 83 80 9D 0A 15 64 16  ....d.........d.
