# 17788989 - Dancing Wolf

## Common Data

| Field            | Value           |
|------------------|-----------------|
| Zone             | Rabao (ID: 247) |
| Block Size       | 1224 bytes      |
| Total Events     | 65              |
| References Count | 33              |

## List of Events

| Event ID                   | Entrypoint   |   Size |   Instructions |
|----------------------------|--------------|--------|----------------|
| [65535](#event-65535)      | 0x0000       |      1 |              1 |
| [102](#event-102)          | 0x0001       |      1 |              1 |
| [103](#event-103)          | 0x0002       |     20 |              8 |
| [104](#event-104)          | 0x0016       |      1 |              1 |
| [105](#event-105)          | 0x0017       |     16 |              6 |
| [106](#event-106)          | 0x0027       |     11 |              5 |
| [162](#event-162)          | 0x0032       |      7 |              2 |
| [165](#event-165)          | 0x0039       |      7 |              2 |
| [65535.1](#event-655351)   | 0x0040       |     16 |              2 |
| [65535.2](#event-655352)   | 0x0050       |     22 |              4 |
| [65535.3](#event-655353)   | 0x0066       |     16 |              2 |
| [65535.4](#event-655354)   | 0x0076       |     14 |              2 |
| [65535.5](#event-655355)   | 0x0084       |     16 |              2 |
| [65535.6](#event-655356)   | 0x0094       |     14 |              2 |
| [65535.7](#event-655357)   | 0x00A2       |     16 |              2 |
| [65535.8](#event-655358)   | 0x00B2       |     14 |              2 |
| [65535.9](#event-655359)   | 0x00C0       |     16 |              2 |
| [65535.10](#event-6553510) | 0x00D0       |     14 |              2 |
| [65535.11](#event-6553511) | 0x00DE       |     16 |              2 |
| [65535.12](#event-6553512) | 0x00EE       |     22 |              4 |
| [65535.13](#event-6553513) | 0x0104       |     16 |              2 |
| [65535.14](#event-6553514) | 0x0114       |     14 |              2 |
| [65535.15](#event-6553515) | 0x0122       |     16 |              2 |
| [65535.16](#event-6553516) | 0x0132       |     14 |              2 |
| [65535.17](#event-6553517) | 0x0140       |     16 |              2 |
| [65535.18](#event-6553518) | 0x0150       |     14 |              2 |
| [65535.19](#event-6553519) | 0x015E       |     16 |              2 |
| [65535.20](#event-6553520) | 0x016E       |     14 |              2 |
| [65535.21](#event-6553521) | 0x017C       |      9 |              3 |
| [65535.22](#event-6553522) | 0x0185       |     16 |              2 |
| [65535.23](#event-6553523) | 0x0195       |     14 |              2 |
| [65535.24](#event-6553524) | 0x01A3       |     16 |              2 |
| [65535.25](#event-6553525) | 0x01B3       |     14 |              2 |
| [65535.26](#event-6553526) | 0x01C1       |     16 |              2 |
| [65535.27](#event-6553527) | 0x01D1       |     14 |              2 |
| [65535.28](#event-6553528) | 0x01DF       |     16 |              2 |
| [65535.29](#event-6553529) | 0x01EF       |     14 |              2 |
| [181](#event-181)          | 0x01FD       |      1 |              1 |
| [65535.30](#event-6553530) | 0x01FE       |     15 |              5 |
| [65535.31](#event-6553531) | 0x020D       |     22 |              8 |
| [65535.32](#event-6553532) | 0x0223       |     15 |              5 |
| [182](#event-182)          | 0x0232       |      1 |              1 |
| [185](#event-185)          | 0x0233       |      1 |              1 |
| [65535.33](#event-6553533) | 0x0234       |     15 |              5 |
| [186](#event-186)          | 0x0243       |      1 |              1 |
| [187](#event-187)          | 0x0244       |      1 |              1 |
| [188](#event-188)          | 0x0245       |      1 |              1 |
| [65535.34](#event-6553534) | 0x0246       |      7 |              3 |
| [65535.35](#event-6553535) | 0x024D       |      7 |              3 |
| [65535.36](#event-6553536) | 0x0254       |     16 |              2 |
| [65535.37](#event-6553537) | 0x0264       |     14 |              2 |
| [65535.38](#event-6553538) | 0x0272       |     16 |              2 |
| [65535.39](#event-6553539) | 0x0282       |     14 |              2 |
| [65535.40](#event-6553540) | 0x0290       |     16 |              2 |
| [65535.41](#event-6553541) | 0x02A0       |     14 |              2 |
| [65535.42](#event-6553542) | 0x02AE       |     16 |              2 |
| [65535.43](#event-6553543) | 0x02BE       |     14 |              2 |
| [65535.44](#event-6553544) | 0x02CC       |     16 |              2 |
| [65535.45](#event-6553545) | 0x02DC       |     14 |              2 |
| [65535.46](#event-6553546) | 0x02EA       |     16 |              2 |
| [65535.47](#event-6553547) | 0x02FA       |     14 |              2 |
| [65535.48](#event-6553548) | 0x0308       |     22 |              8 |
| [65535.49](#event-6553549) | 0x031E       |     15 |              5 |
| [190](#event-190)          | 0x032D       |      1 |              1 |
| [191](#event-191)          | 0x032E       |      1 |              1 |

## DAT References (imed_data)

|   Index | Hex Value   |   Dec Value |
|---------|-------------|-------------|
|       0 | 0x01DD      |         477 |
|       1 | 0x287D      |       10365 |
|       2 | 0x2880      |       10368 |
|       3 | 0x28AA      |       10410 |
|       4 | 0x286B      |       10347 |
|       5 | 0x003C      |          60 |
|       6 | 0x003D      |          61 |
|       7 | 0x0041      |          65 |
|       8 | 0x0045      |          69 |
|       9 | 0x0028      |          40 |
|      10 | 0x0F98      |        3992 |
|      11 | 0x16B4E     |       93006 |
|      12 | 0x1F3D      |        7997 |
|      13 | 0x000D      |          13 |
|      14 | 0x141B      |        5147 |
|      15 | 0x16900     |       92416 |
|      16 | 0x1F6A      |        8042 |
|      17 | 0x1995      |        6549 |
|      18 | 0x14AE3     |       84707 |
|      19 | 0x1F40      |        8000 |
|      20 | 0x03C8      |         968 |
|      21 | 0x1573D     |       87869 |
|      22 | 0x1F3F      |        7999 |
|      23 | 0x0001      |           1 |
|      24 | 0x0000      |           0 |
|      25 | 0x0087      |         135 |
|      26 | 0x00D1      |         209 |
|      27 | 0x08E7      |        2279 |
|      28 | 0x0082      |         130 |
|      29 | 0x16F6      |        5878 |
|      30 | 0x138E8     |       80104 |
|      31 | 0x1B70      |        7024 |
|      32 | 0x12FE8     |       77800 |

## String References

- **10347**: I've been sent here on business. A nice place this Rabao is.
- **10365**: The $3 that we are looking for only appears in the Gustav Tunnel where freshwater and saltwater mix.
- **10368**: If you happen to find the $3, bring it to me before you return to Bastok. I'm required to write a report of your findings.
- **10410**: Hurry the $3 back to the senator. I will send the report later by chocobo.

## Events

### Event 65535

#### Metadata

| Field        | Value   |
|--------------|---------|
| Entrypoint   | 0x0000  |
| Data Size    | 1 bytes |
| Instructions | 1       |

```
      00 01 02 03 04 05 06 07  08 09 0A 0B 0C 0D 0E 0F
      -- -- -- -- -- -- -- --  -- -- -- -- -- -- -- --
0000: 00                                                .               
```

#### Opcodes

```
  0: 0x0000 [0x00] END_REQSTACK()
```

### Event 102

#### Metadata

| Field        | Value   |
|--------------|---------|
| Entrypoint   | 0x0001  |
| Data Size    | 1 bytes |
| Instructions | 1       |

```
      00 01 02 03 04 05 06 07  08 09 0A 0B 0C 0D 0E 0F
      -- -- -- -- -- -- -- --  -- -- -- -- -- -- -- --
0000:    00                                              .              
```

#### Opcodes

```
  0: 0x0001 [0x00] END_REQSTACK()
```

### Event 103

#### Metadata

| Field        | Value    |
|--------------|----------|
| Entrypoint   | 0x0002   |
| Data Size    | 20 bytes |
| Instructions | 8        |

```
      00 01 02 03 04 05 06 07  08 09 0A 0B 0C 0D 0E 0F
      -- -- -- -- -- -- -- --  -- -- -- -- -- -- -- --
0000:       03 09 10 00 80 1E  F0 FF FF 7F 1D 01 80 23    .............#
0010: 1D 02 80 23 21 00                                 ...#!.          
```

#### Opcodes

```
  0: 0x0002 [0x03] Work_Zone[9] = 477*
  1: 0x0007 [0x1E] EventEntity looks at LocalPlayer and starts talking
  2: 0x000C [0x1D] PRINT_EVENT_MESSAGE(message_id=10365*)
    → "The $3 that we are looking for only appears in the Gustav Tunnel where freshwater and saltwater mix."
  3: 0x000F [0x23] WAIT_FOR_DIALOG_INTERACTION
  4: 0x0010 [0x1D] PRINT_EVENT_MESSAGE(message_id=10368*)
    → "If you happen to find the $3, bring it to me before you return to Bastok. I'm required to write a report of your findings."
  5: 0x0013 [0x23] WAIT_FOR_DIALOG_INTERACTION
  6: 0x0014 [0x21] END_EVENT
  7: 0x0015 [0x00] END_REQSTACK()
```

### Event 104

#### Metadata

| Field        | Value   |
|--------------|---------|
| Entrypoint   | 0x0016  |
| Data Size    | 1 bytes |
| Instructions | 1       |

```
      00 01 02 03 04 05 06 07  08 09 0A 0B 0C 0D 0E 0F
      -- -- -- -- -- -- -- --  -- -- -- -- -- -- -- --
0010:                   00                                    .         
```

#### Opcodes

```
  0: 0x0016 [0x00] END_REQSTACK()
```

### Event 105

#### Metadata

| Field        | Value    |
|--------------|----------|
| Entrypoint   | 0x0017   |
| Data Size    | 16 bytes |
| Instructions | 6        |

```
      00 01 02 03 04 05 06 07  08 09 0A 0B 0C 0D 0E 0F
      -- -- -- -- -- -- -- --  -- -- -- -- -- -- -- --
0010:                      03  09 10 00 80 1E F0 FF FF         .........
0020: 7F 1D 03 80 23 21 00                              ....#!.         
```

#### Opcodes

```
  0: 0x0017 [0x03] Work_Zone[9] = 477*
  1: 0x001C [0x1E] EventEntity looks at LocalPlayer and starts talking
  2: 0x0021 [0x1D] PRINT_EVENT_MESSAGE(message_id=10410*)
    → "Hurry the $3 back to the senator. I will send the report later by chocobo."
  3: 0x0024 [0x23] WAIT_FOR_DIALOG_INTERACTION
  4: 0x0025 [0x21] END_EVENT
  5: 0x0026 [0x00] END_REQSTACK()
```

### Event 106

#### Metadata

| Field        | Value    |
|--------------|----------|
| Entrypoint   | 0x0027   |
| Data Size    | 11 bytes |
| Instructions | 5        |

```
      00 01 02 03 04 05 06 07  08 09 0A 0B 0C 0D 0E 0F
      -- -- -- -- -- -- -- --  -- -- -- -- -- -- -- --
0020:                      1E  F0 FF FF 7F 1D 04 80 23         ........#
0030: 21 00                                             !.              
```

#### Opcodes

```
  0: 0x0027 [0x1E] EventEntity looks at LocalPlayer and starts talking
  1: 0x002C [0x1D] PRINT_EVENT_MESSAGE(message_id=10347*)
    → "I've been sent here on business. A nice place this Rabao is."
  2: 0x002F [0x23] WAIT_FOR_DIALOG_INTERACTION
  3: 0x0030 [0x21] END_EVENT
  4: 0x0031 [0x00] END_REQSTACK()
```

### Event 162

#### Metadata

| Field        | Value   |
|--------------|---------|
| Entrypoint   | 0x0032  |
| Data Size    | 7 bytes |
| Instructions | 2       |

```
      00 01 02 03 04 05 06 07  08 09 0A 0B 0C 0D 0E 0F
      -- -- -- -- -- -- -- --  -- -- -- -- -- -- -- --
0030:       92 01 F8 FF FF 7F  00                         .......       
```

#### Opcodes

```
  0: 0x0032 [0x92] EventEntity->Render.Flags3 ^= 0x01
  1: 0x0038 [0x00] END_REQSTACK()
```

### Event 165

#### Metadata

| Field        | Value   |
|--------------|---------|
| Entrypoint   | 0x0039  |
| Data Size    | 7 bytes |
| Instructions | 2       |

```
      00 01 02 03 04 05 06 07  08 09 0A 0B 0C 0D 0E 0F
      -- -- -- -- -- -- -- --  -- -- -- -- -- -- -- --
0030:                             92 01 F8 FF FF 7F 00           .......
```

#### Opcodes

```
  0: 0x0039 [0x92] EventEntity->Render.Flags3 ^= 0x01
  1: 0x003F [0x00] END_REQSTACK()
```

### Event 65535.1

#### Metadata

| Field        | Value    |
|--------------|----------|
| Entrypoint   | 0x0040   |
| Data Size    | 16 bytes |
| Instructions | 2        |

```
      00 01 02 03 04 05 06 07  08 09 0A 0B 0C 0D 0E 0F
      -- -- -- -- -- -- -- --  -- -- -- -- -- -- -- --
0040: 66 05 80 F8 FF FF 7F F8  FF FF 7F 74 6C 6B 30 00  f..........tlk0.
```

#### Opcodes

```
  0: 0x0040 [0x66] LOAD_EXT_SCHEDULER_MAIN: Load scheduler "tlk0" with entities [EventEntity, EventEntity], work=60*
  1: 0x004F [0x00] END_REQSTACK()
```

### Event 65535.2

#### Metadata

| Field        | Value    |
|--------------|----------|
| Entrypoint   | 0x0050   |
| Data Size    | 22 bytes |
| Instructions | 4        |

```
      00 01 02 03 04 05 06 07  08 09 0A 0B 0C 0D 0E 0F
      -- -- -- -- -- -- -- --  -- -- -- -- -- -- -- --
0050: 53 F8 FF FF 7F F8 FF FF  7F 74 6C 6B 30 5E 69 64  S........tlk0^id
0060: 6C 30 1C 05 80 00                                 l0....          
```

#### Opcodes

```
  0: 0x0050 [0x53] WAIT_SCHEDULER_TASK: Wait for scheduler "tlk0" with entities [EventEntity, EventEntity]
  1: 0x005D [0x5E] EventEntity goes idle (kills current action) (animation: "idl0")
  2: 0x0062 [0x1C] WAIT(60* ticks)
  3: 0x0065 [0x00] END_REQSTACK()
```

### Event 65535.3

#### Metadata

| Field        | Value    |
|--------------|----------|
| Entrypoint   | 0x0066   |
| Data Size    | 16 bytes |
| Instructions | 2        |

```
      00 01 02 03 04 05 06 07  08 09 0A 0B 0C 0D 0E 0F
      -- -- -- -- -- -- -- --  -- -- -- -- -- -- -- --
0060:                   66 05  80 F8 FF FF 7F F8 FF FF        f.........
0070: 7F 70 61 73 30 00                                 .pas0.          
```

#### Opcodes

```
  0: 0x0066 [0x66] LOAD_EXT_SCHEDULER_MAIN: Load scheduler "pas0" with entities [EventEntity, EventEntity], work=60*
  1: 0x0075 [0x00] END_REQSTACK()
```

### Event 65535.4

#### Metadata

| Field        | Value    |
|--------------|----------|
| Entrypoint   | 0x0076   |
| Data Size    | 14 bytes |
| Instructions | 2        |

```
      00 01 02 03 04 05 06 07  08 09 0A 0B 0C 0D 0E 0F
      -- -- -- -- -- -- -- --  -- -- -- -- -- -- -- --
0070:                   53 F8  FF FF 7F F8 FF FF 7F 70        S........p
0080: 61 73 30 00                                       as0.            
```

#### Opcodes

```
  0: 0x0076 [0x53] WAIT_SCHEDULER_TASK: Wait for scheduler "pas0" with entities [EventEntity, EventEntity]
  1: 0x0083 [0x00] END_REQSTACK()
```

### Event 65535.5

#### Metadata

| Field        | Value    |
|--------------|----------|
| Entrypoint   | 0x0084   |
| Data Size    | 16 bytes |
| Instructions | 2        |

```
      00 01 02 03 04 05 06 07  08 09 0A 0B 0C 0D 0E 0F
      -- -- -- -- -- -- -- --  -- -- -- -- -- -- -- --
0080:             66 05 80 F8  FF FF 7F F8 FF FF 7F 74      f..........t
0090: 68 6B 31 00                                       hk1.            
```

#### Opcodes

```
  0: 0x0084 [0x66] LOAD_EXT_SCHEDULER_MAIN: Load scheduler "thk1" with entities [EventEntity, EventEntity], work=60*
  1: 0x0093 [0x00] END_REQSTACK()
```

### Event 65535.6

#### Metadata

| Field        | Value    |
|--------------|----------|
| Entrypoint   | 0x0094   |
| Data Size    | 14 bytes |
| Instructions | 2        |

```
      00 01 02 03 04 05 06 07  08 09 0A 0B 0C 0D 0E 0F
      -- -- -- -- -- -- -- --  -- -- -- -- -- -- -- --
0090:             53 F8 FF FF  7F F8 FF FF 7F 74 68 6B      S........thk
00A0: 31 00                                             1.              
```

#### Opcodes

```
  0: 0x0094 [0x53] WAIT_SCHEDULER_TASK: Wait for scheduler "thk1" with entities [EventEntity, EventEntity]
  1: 0x00A1 [0x00] END_REQSTACK()
```

### Event 65535.7

#### Metadata

| Field        | Value    |
|--------------|----------|
| Entrypoint   | 0x00A2   |
| Data Size    | 16 bytes |
| Instructions | 2        |

```
      00 01 02 03 04 05 06 07  08 09 0A 0B 0C 0D 0E 0F
      -- -- -- -- -- -- -- --  -- -- -- -- -- -- -- --
00A0:       66 05 80 F8 FF FF  7F F8 FF FF 7F 74 68 6B    f..........thk
00B0: 32 00                                             2.              
```

#### Opcodes

```
  0: 0x00A2 [0x66] LOAD_EXT_SCHEDULER_MAIN: Load scheduler "thk2" with entities [EventEntity, EventEntity], work=60*
  1: 0x00B1 [0x00] END_REQSTACK()
```

### Event 65535.8

#### Metadata

| Field        | Value    |
|--------------|----------|
| Entrypoint   | 0x00B2   |
| Data Size    | 14 bytes |
| Instructions | 2        |

```
      00 01 02 03 04 05 06 07  08 09 0A 0B 0C 0D 0E 0F
      -- -- -- -- -- -- -- --  -- -- -- -- -- -- -- --
00B0:       53 F8 FF FF 7F F8  FF FF 7F 74 68 6B 32 00    S........thk2.
```

#### Opcodes

```
  0: 0x00B2 [0x53] WAIT_SCHEDULER_TASK: Wait for scheduler "thk2" with entities [EventEntity, EventEntity]
  1: 0x00BF [0x00] END_REQSTACK()
```

### Event 65535.9

#### Metadata

| Field        | Value    |
|--------------|----------|
| Entrypoint   | 0x00C0   |
| Data Size    | 16 bytes |
| Instructions | 2        |

```
      00 01 02 03 04 05 06 07  08 09 0A 0B 0C 0D 0E 0F
      -- -- -- -- -- -- -- --  -- -- -- -- -- -- -- --
00C0: 66 05 80 F8 FF FF 7F F8  FF FF 7F 70 6F 69 30 00  f..........poi0.
```

#### Opcodes

```
  0: 0x00C0 [0x66] LOAD_EXT_SCHEDULER_MAIN: Load scheduler "poi0" with entities [EventEntity, EventEntity], work=60*
  1: 0x00CF [0x00] END_REQSTACK()
```

### Event 65535.10

#### Metadata

| Field        | Value    |
|--------------|----------|
| Entrypoint   | 0x00D0   |
| Data Size    | 14 bytes |
| Instructions | 2        |

```
      00 01 02 03 04 05 06 07  08 09 0A 0B 0C 0D 0E 0F
      -- -- -- -- -- -- -- --  -- -- -- -- -- -- -- --
00D0: 53 F8 FF FF 7F F8 FF FF  7F 70 6F 69 30 00        S........poi0.  
```

#### Opcodes

```
  0: 0x00D0 [0x53] WAIT_SCHEDULER_TASK: Wait for scheduler "poi0" with entities [EventEntity, EventEntity]
  1: 0x00DD [0x00] END_REQSTACK()
```

### Event 65535.11

#### Metadata

| Field        | Value    |
|--------------|----------|
| Entrypoint   | 0x00DE   |
| Data Size    | 16 bytes |
| Instructions | 2        |

```
      00 01 02 03 04 05 06 07  08 09 0A 0B 0C 0D 0E 0F
      -- -- -- -- -- -- -- --  -- -- -- -- -- -- -- --
00D0:                                            66 05                f.
00E0: 80 F8 FF FF 7F F8 FF FF  7F 61 6E 67 30 00        .........ang0.  
```

#### Opcodes

```
  0: 0x00DE [0x66] LOAD_EXT_SCHEDULER_MAIN: Load scheduler "ang0" with entities [EventEntity, EventEntity], work=60*
  1: 0x00ED [0x00] END_REQSTACK()
```

### Event 65535.12

#### Metadata

| Field        | Value    |
|--------------|----------|
| Entrypoint   | 0x00EE   |
| Data Size    | 22 bytes |
| Instructions | 4        |

```
      00 01 02 03 04 05 06 07  08 09 0A 0B 0C 0D 0E 0F
      -- -- -- -- -- -- -- --  -- -- -- -- -- -- -- --
00E0:                                            53 F8                S.
00F0: FF FF 7F F8 FF FF 7F 61  6E 67 30 5E 69 64 6C 30  .......ang0^idl0
0100: 1C 05 80 00                                       ....            
```

#### Opcodes

```
  0: 0x00EE [0x53] WAIT_SCHEDULER_TASK: Wait for scheduler "ang0" with entities [EventEntity, EventEntity]
  1: 0x00FB [0x5E] EventEntity goes idle (kills current action) (animation: "idl0")
  2: 0x0100 [0x1C] WAIT(60* ticks)
  3: 0x0103 [0x00] END_REQSTACK()
```

### Event 65535.13

#### Metadata

| Field        | Value    |
|--------------|----------|
| Entrypoint   | 0x0104   |
| Data Size    | 16 bytes |
| Instructions | 2        |

```
      00 01 02 03 04 05 06 07  08 09 0A 0B 0C 0D 0E 0F
      -- -- -- -- -- -- -- --  -- -- -- -- -- -- -- --
0100:             66 05 80 F8  FF FF 7F F8 FF FF 7F 64      f..........d
0110: 69 73 30 00                                       is0.            
```

#### Opcodes

```
  0: 0x0104 [0x66] LOAD_EXT_SCHEDULER_MAIN: Load scheduler "dis0" with entities [EventEntity, EventEntity], work=60*
  1: 0x0113 [0x00] END_REQSTACK()
```

### Event 65535.14

#### Metadata

| Field        | Value    |
|--------------|----------|
| Entrypoint   | 0x0114   |
| Data Size    | 14 bytes |
| Instructions | 2        |

```
      00 01 02 03 04 05 06 07  08 09 0A 0B 0C 0D 0E 0F
      -- -- -- -- -- -- -- --  -- -- -- -- -- -- -- --
0110:             53 F8 FF FF  7F F8 FF FF 7F 64 69 73      S........dis
0120: 30 00                                             0.              
```

#### Opcodes

```
  0: 0x0114 [0x53] WAIT_SCHEDULER_TASK: Wait for scheduler "dis0" with entities [EventEntity, EventEntity]
  1: 0x0121 [0x00] END_REQSTACK()
```

### Event 65535.15

#### Metadata

| Field        | Value    |
|--------------|----------|
| Entrypoint   | 0x0122   |
| Data Size    | 16 bytes |
| Instructions | 2        |

```
      00 01 02 03 04 05 06 07  08 09 0A 0B 0C 0D 0E 0F
      -- -- -- -- -- -- -- --  -- -- -- -- -- -- -- --
0120:       66 06 80 F8 FF FF  7F F8 FF FF 7F 77 61 76    f..........wav
0130: 30 00                                             0.              
```

#### Opcodes

```
  0: 0x0122 [0x66] LOAD_EXT_SCHEDULER_MAIN: Load scheduler "wav0" with entities [EventEntity, EventEntity], work=61*
  1: 0x0131 [0x00] END_REQSTACK()
```

### Event 65535.16

#### Metadata

| Field        | Value    |
|--------------|----------|
| Entrypoint   | 0x0132   |
| Data Size    | 14 bytes |
| Instructions | 2        |

```
      00 01 02 03 04 05 06 07  08 09 0A 0B 0C 0D 0E 0F
      -- -- -- -- -- -- -- --  -- -- -- -- -- -- -- --
0130:       53 F8 FF FF 7F F8  FF FF 7F 77 61 76 30 00    S........wav0.
```

#### Opcodes

```
  0: 0x0132 [0x53] WAIT_SCHEDULER_TASK: Wait for scheduler "wav0" with entities [EventEntity, EventEntity]
  1: 0x013F [0x00] END_REQSTACK()
```

### Event 65535.17

#### Metadata

| Field        | Value    |
|--------------|----------|
| Entrypoint   | 0x0140   |
| Data Size    | 16 bytes |
| Instructions | 2        |

```
      00 01 02 03 04 05 06 07  08 09 0A 0B 0C 0D 0E 0F
      -- -- -- -- -- -- -- --  -- -- -- -- -- -- -- --
0140: 66 07 80 F8 FF FF 7F F8  FF FF 7F 74 6C 62 30 00  f..........tlb0.
```

#### Opcodes

```
  0: 0x0140 [0x66] LOAD_EXT_SCHEDULER_MAIN: Load scheduler "tlb0" with entities [EventEntity, EventEntity], work=65*
  1: 0x014F [0x00] END_REQSTACK()
```

### Event 65535.18

#### Metadata

| Field        | Value    |
|--------------|----------|
| Entrypoint   | 0x0150   |
| Data Size    | 14 bytes |
| Instructions | 2        |

```
      00 01 02 03 04 05 06 07  08 09 0A 0B 0C 0D 0E 0F
      -- -- -- -- -- -- -- --  -- -- -- -- -- -- -- --
0150: 53 F8 FF FF 7F F8 FF FF  7F 74 6C 62 30 00        S........tlb0.  
```

#### Opcodes

```
  0: 0x0150 [0x53] WAIT_SCHEDULER_TASK: Wait for scheduler "tlb0" with entities [EventEntity, EventEntity]
  1: 0x015D [0x00] END_REQSTACK()
```

### Event 65535.19

#### Metadata

| Field        | Value    |
|--------------|----------|
| Entrypoint   | 0x015E   |
| Data Size    | 16 bytes |
| Instructions | 2        |

```
      00 01 02 03 04 05 06 07  08 09 0A 0B 0C 0D 0E 0F
      -- -- -- -- -- -- -- --  -- -- -- -- -- -- -- --
0150:                                            66 07                f.
0160: 80 F8 FF FF 7F F8 FF FF  7F 74 6C 62 31 00        .........tlb1.  
```

#### Opcodes

```
  0: 0x015E [0x66] LOAD_EXT_SCHEDULER_MAIN: Load scheduler "tlb1" with entities [EventEntity, EventEntity], work=65*
  1: 0x016D [0x00] END_REQSTACK()
```

### Event 65535.20

#### Metadata

| Field        | Value    |
|--------------|----------|
| Entrypoint   | 0x016E   |
| Data Size    | 14 bytes |
| Instructions | 2        |

```
      00 01 02 03 04 05 06 07  08 09 0A 0B 0C 0D 0E 0F
      -- -- -- -- -- -- -- --  -- -- -- -- -- -- -- --
0160:                                            53 F8                S.
0170: FF FF 7F F8 FF FF 7F 74  6C 62 31 00              .......tlb1.    
```

#### Opcodes

```
  0: 0x016E [0x53] WAIT_SCHEDULER_TASK: Wait for scheduler "tlb1" with entities [EventEntity, EventEntity]
  1: 0x017B [0x00] END_REQSTACK()
```

### Event 65535.21

#### Metadata

| Field        | Value   |
|--------------|---------|
| Entrypoint   | 0x017C  |
| Data Size    | 9 bytes |
| Instructions | 3       |

```
      00 01 02 03 04 05 06 07  08 09 0A 0B 0C 0D 0E 0F
      -- -- -- -- -- -- -- --  -- -- -- -- -- -- -- --
0170:                                      5E 69 64 6C              ^idl
0180: 30 1C 05 80 00                                    0....           
```

#### Opcodes

```
  0: 0x017C [0x5E] EventEntity goes idle (kills current action) (animation: "idl0")
  1: 0x0181 [0x1C] WAIT(60* ticks)
  2: 0x0184 [0x00] END_REQSTACK()
```

### Event 65535.22

#### Metadata

| Field        | Value    |
|--------------|----------|
| Entrypoint   | 0x0185   |
| Data Size    | 16 bytes |
| Instructions | 2        |

```
      00 01 02 03 04 05 06 07  08 09 0A 0B 0C 0D 0E 0F
      -- -- -- -- -- -- -- --  -- -- -- -- -- -- -- --
0180:                66 08 80  F8 FF FF 7F F8 FF FF 7F       f..........
0190: 73 68 61 30 00                                    sha0.           
```

#### Opcodes

```
  0: 0x0185 [0x66] LOAD_EXT_SCHEDULER_MAIN: Load scheduler "sha0" with entities [EventEntity, EventEntity], work=69*
  1: 0x0194 [0x00] END_REQSTACK()
```

### Event 65535.23

#### Metadata

| Field        | Value    |
|--------------|----------|
| Entrypoint   | 0x0195   |
| Data Size    | 14 bytes |
| Instructions | 2        |

```
      00 01 02 03 04 05 06 07  08 09 0A 0B 0C 0D 0E 0F
      -- -- -- -- -- -- -- --  -- -- -- -- -- -- -- --
0190:                53 F8 FF  FF 7F F8 FF FF 7F 73 68       S........sh
01A0: 61 30 00                                          a0.             
```

#### Opcodes

```
  0: 0x0195 [0x53] WAIT_SCHEDULER_TASK: Wait for scheduler "sha0" with entities [EventEntity, EventEntity]
  1: 0x01A2 [0x00] END_REQSTACK()
```

### Event 65535.24

#### Metadata

| Field        | Value    |
|--------------|----------|
| Entrypoint   | 0x01A3   |
| Data Size    | 16 bytes |
| Instructions | 2        |

```
      00 01 02 03 04 05 06 07  08 09 0A 0B 0C 0D 0E 0F
      -- -- -- -- -- -- -- --  -- -- -- -- -- -- -- --
01A0:          66 08 80 F8 FF  FF 7F F8 FF FF 7F 73 69     f..........si
01B0: 72 30 00                                          r0.             
```

#### Opcodes

```
  0: 0x01A3 [0x66] LOAD_EXT_SCHEDULER_MAIN: Load scheduler "sir0" with entities [EventEntity, EventEntity], work=69*
  1: 0x01B2 [0x00] END_REQSTACK()
```

### Event 65535.25

#### Metadata

| Field        | Value    |
|--------------|----------|
| Entrypoint   | 0x01B3   |
| Data Size    | 14 bytes |
| Instructions | 2        |

```
      00 01 02 03 04 05 06 07  08 09 0A 0B 0C 0D 0E 0F
      -- -- -- -- -- -- -- --  -- -- -- -- -- -- -- --
01B0:          53 F8 FF FF 7F  F8 FF FF 7F 73 69 72 30     S........sir0
01C0: 00                                                .               
```

#### Opcodes

```
  0: 0x01B3 [0x53] WAIT_SCHEDULER_TASK: Wait for scheduler "sir0" with entities [EventEntity, EventEntity]
  1: 0x01C0 [0x00] END_REQSTACK()
```

### Event 65535.26

#### Metadata

| Field        | Value    |
|--------------|----------|
| Entrypoint   | 0x01C1   |
| Data Size    | 16 bytes |
| Instructions | 2        |

```
      00 01 02 03 04 05 06 07  08 09 0A 0B 0C 0D 0E 0F
      -- -- -- -- -- -- -- --  -- -- -- -- -- -- -- --
01C0:    66 08 80 F8 FF FF 7F  F8 FF FF 7F 73 69 72 31   f..........sir1
01D0: 00                                                .               
```

#### Opcodes

```
  0: 0x01C1 [0x66] LOAD_EXT_SCHEDULER_MAIN: Load scheduler "sir1" with entities [EventEntity, EventEntity], work=69*
  1: 0x01D0 [0x00] END_REQSTACK()
```

### Event 65535.27

#### Metadata

| Field        | Value    |
|--------------|----------|
| Entrypoint   | 0x01D1   |
| Data Size    | 14 bytes |
| Instructions | 2        |

```
      00 01 02 03 04 05 06 07  08 09 0A 0B 0C 0D 0E 0F
      -- -- -- -- -- -- -- --  -- -- -- -- -- -- -- --
01D0:    53 F8 FF FF 7F F8 FF  FF 7F 73 69 72 31 00      S........sir1. 
```

#### Opcodes

```
  0: 0x01D1 [0x53] WAIT_SCHEDULER_TASK: Wait for scheduler "sir1" with entities [EventEntity, EventEntity]
  1: 0x01DE [0x00] END_REQSTACK()
```

### Event 65535.28

#### Metadata

| Field        | Value    |
|--------------|----------|
| Entrypoint   | 0x01DF   |
| Data Size    | 16 bytes |
| Instructions | 2        |

```
      00 01 02 03 04 05 06 07  08 09 0A 0B 0C 0D 0E 0F
      -- -- -- -- -- -- -- --  -- -- -- -- -- -- -- --
01D0:                                               66                 f
01E0: 08 80 F8 FF FF 7F F8 FF  FF 7F 73 68 61 31 00     ..........sha1. 
```

#### Opcodes

```
  0: 0x01DF [0x66] LOAD_EXT_SCHEDULER_MAIN: Load scheduler "sha1" with entities [EventEntity, EventEntity], work=69*
  1: 0x01EE [0x00] END_REQSTACK()
```

### Event 65535.29

#### Metadata

| Field        | Value    |
|--------------|----------|
| Entrypoint   | 0x01EF   |
| Data Size    | 14 bytes |
| Instructions | 2        |

```
      00 01 02 03 04 05 06 07  08 09 0A 0B 0C 0D 0E 0F
      -- -- -- -- -- -- -- --  -- -- -- -- -- -- -- --
01E0:                                               53                 S
01F0: F8 FF FF 7F F8 FF FF 7F  73 68 61 31 00           ........sha1.   
```

#### Opcodes

```
  0: 0x01EF [0x53] WAIT_SCHEDULER_TASK: Wait for scheduler "sha1" with entities [EventEntity, EventEntity]
  1: 0x01FC [0x00] END_REQSTACK()
```

### Event 181

#### Metadata

| Field        | Value   |
|--------------|---------|
| Entrypoint   | 0x01FD  |
| Data Size    | 1 bytes |
| Instructions | 1       |

```
      00 01 02 03 04 05 06 07  08 09 0A 0B 0C 0D 0E 0F
      -- -- -- -- -- -- -- --  -- -- -- -- -- -- -- --
01F0:                                         00                     .  
```

#### Opcodes

```
  0: 0x01FD [0x00] END_REQSTACK()
```

### Event 65535.30

#### Metadata

| Field        | Value    |
|--------------|----------|
| Entrypoint   | 0x01FE   |
| Data Size    | 15 bytes |
| Instructions | 5        |

```
      00 01 02 03 04 05 06 07  08 09 0A 0B 0C 0D 0E 0F
      -- -- -- -- -- -- -- --  -- -- -- -- -- -- -- --
01F0:                                            32 09                2.
0200: 80 1F 00 0A 80 0B 80 0C  80 1F 01 6F 00           ...........o.   
```

#### Opcodes

```
  0: 0x01FE [0x32] ExtData[1]->MainSpeed = 40* * 0.1
  1: 0x0201 [0x1F] MOVE_ENTITY: EventEntity moves to X=3.992*, Z=93.006*, Y=7.997*
  2: 0x0209 [0x1F] MOVE_ENTITY: Update entity position (mode=1)
  3: 0x020B [0x6F] WAIT_FRAME_DELAY: Yield until WaitTime reaches zero
  4: 0x020C [0x00] END_REQSTACK()
```

### Event 65535.31

#### Metadata

| Field        | Value    |
|--------------|----------|
| Entrypoint   | 0x020D   |
| Data Size    | 22 bytes |
| Instructions | 8        |

```
      00 01 02 03 04 05 06 07  08 09 0A 0B 0C 0D 0E 0F
      -- -- -- -- -- -- -- --  -- -- -- -- -- -- -- --
0200:                                         32 0D 80               2..
0210: 1F 00 0E 80 0F 80 10 80  1F 01 6F 1E F0 FF FF 7F  ..........o.....
0220: 6F 70 00                                          op.             
```

#### Opcodes

```
  0: 0x020D [0x32] ExtData[1]->MainSpeed = 13* * 0.1
  1: 0x0210 [0x1F] MOVE_ENTITY: EventEntity moves to X=5.147*, Z=92.416*, Y=8.042*
  2: 0x0218 [0x1F] MOVE_ENTITY: Update entity position (mode=1)
  3: 0x021A [0x6F] WAIT_FRAME_DELAY: Yield until WaitTime reaches zero
  4: 0x021B [0x1E] EventEntity looks at LocalPlayer and starts talking
  5: 0x0220 [0x6F] WAIT_FRAME_DELAY: Yield until WaitTime reaches zero
  6: 0x0221 [0x70] WAIT_ENTITY_RENDER_FLAG: Wait while EventEntity->Render.Flags3 bit 2 is set (cancel turn if not)
  7: 0x0222 [0x00] END_REQSTACK()
```

### Event 65535.32

#### Metadata

| Field        | Value    |
|--------------|----------|
| Entrypoint   | 0x0223   |
| Data Size    | 15 bytes |
| Instructions | 5        |

```
      00 01 02 03 04 05 06 07  08 09 0A 0B 0C 0D 0E 0F
      -- -- -- -- -- -- -- --  -- -- -- -- -- -- -- --
0220:          32 0D 80 1F 00  11 80 12 80 13 80 1F 01     2............
0230: 6F 00                                             o.              
```

#### Opcodes

```
  0: 0x0223 [0x32] ExtData[1]->MainSpeed = 13* * 0.1
  1: 0x0226 [0x1F] MOVE_ENTITY: EventEntity moves to X=6.549*, Z=84.707*, Y=8.000*
  2: 0x022E [0x1F] MOVE_ENTITY: Update entity position (mode=1)
  3: 0x0230 [0x6F] WAIT_FRAME_DELAY: Yield until WaitTime reaches zero
  4: 0x0231 [0x00] END_REQSTACK()
```

### Event 182

#### Metadata

| Field        | Value   |
|--------------|---------|
| Entrypoint   | 0x0232  |
| Data Size    | 1 bytes |
| Instructions | 1       |

```
      00 01 02 03 04 05 06 07  08 09 0A 0B 0C 0D 0E 0F
      -- -- -- -- -- -- -- --  -- -- -- -- -- -- -- --
0230:       00                                            .             
```

#### Opcodes

```
  0: 0x0232 [0x00] END_REQSTACK()
```

### Event 185

#### Metadata

| Field        | Value   |
|--------------|---------|
| Entrypoint   | 0x0233  |
| Data Size    | 1 bytes |
| Instructions | 1       |

```
      00 01 02 03 04 05 06 07  08 09 0A 0B 0C 0D 0E 0F
      -- -- -- -- -- -- -- --  -- -- -- -- -- -- -- --
0230:          00                                          .            
```

#### Opcodes

```
  0: 0x0233 [0x00] END_REQSTACK()
```

### Event 65535.33

#### Metadata

| Field        | Value    |
|--------------|----------|
| Entrypoint   | 0x0234   |
| Data Size    | 15 bytes |
| Instructions | 5        |

```
      00 01 02 03 04 05 06 07  08 09 0A 0B 0C 0D 0E 0F
      -- -- -- -- -- -- -- --  -- -- -- -- -- -- -- --
0230:             32 0D 80 1F  00 14 80 15 80 16 80 1F      2...........
0240: 01 6F 00                                          .o.             
```

#### Opcodes

```
  0: 0x0234 [0x32] ExtData[1]->MainSpeed = 13* * 0.1
  1: 0x0237 [0x1F] MOVE_ENTITY: EventEntity moves to X=0.968*, Z=87.869*, Y=7.999*
  2: 0x023F [0x1F] MOVE_ENTITY: Update entity position (mode=1)
  3: 0x0241 [0x6F] WAIT_FRAME_DELAY: Yield until WaitTime reaches zero
  4: 0x0242 [0x00] END_REQSTACK()
```

### Event 186

#### Metadata

| Field        | Value   |
|--------------|---------|
| Entrypoint   | 0x0243  |
| Data Size    | 1 bytes |
| Instructions | 1       |

```
      00 01 02 03 04 05 06 07  08 09 0A 0B 0C 0D 0E 0F
      -- -- -- -- -- -- -- --  -- -- -- -- -- -- -- --
0240:          00                                          .            
```

#### Opcodes

```
  0: 0x0243 [0x00] END_REQSTACK()
```

### Event 187

#### Metadata

| Field        | Value   |
|--------------|---------|
| Entrypoint   | 0x0244  |
| Data Size    | 1 bytes |
| Instructions | 1       |

```
      00 01 02 03 04 05 06 07  08 09 0A 0B 0C 0D 0E 0F
      -- -- -- -- -- -- -- --  -- -- -- -- -- -- -- --
0240:             00                                        .           
```

#### Opcodes

```
  0: 0x0244 [0x00] END_REQSTACK()
```

### Event 188

#### Metadata

| Field        | Value   |
|--------------|---------|
| Entrypoint   | 0x0245  |
| Data Size    | 1 bytes |
| Instructions | 1       |

```
      00 01 02 03 04 05 06 07  08 09 0A 0B 0C 0D 0E 0F
      -- -- -- -- -- -- -- --  -- -- -- -- -- -- -- --
0240:                00                                      .          
```

#### Opcodes

```
  0: 0x0245 [0x00] END_REQSTACK()
```

### Event 65535.34

#### Metadata

| Field        | Value   |
|--------------|---------|
| Entrypoint   | 0x0246  |
| Data Size    | 7 bytes |
| Instructions | 3       |

```
      00 01 02 03 04 05 06 07  08 09 0A 0B 0C 0D 0E 0F
      -- -- -- -- -- -- -- --  -- -- -- -- -- -- -- --
0240:                   AB 03  AC 01 17 80 00                 .......   
```

#### Opcodes

```
  0: 0x0246 [0xAB] EventEntity->Render.Flags0 ^= 0x20000 // Toggle bit 17
  1: 0x0248 [0xAC] EventEntity->StatusEvent = 1*
  2: 0x024C [0x00] END_REQSTACK()
```

### Event 65535.35

#### Metadata

| Field        | Value   |
|--------------|---------|
| Entrypoint   | 0x024D  |
| Data Size    | 7 bytes |
| Instructions | 3       |

```
      00 01 02 03 04 05 06 07  08 09 0A 0B 0C 0D 0E 0F
      -- -- -- -- -- -- -- --  -- -- -- -- -- -- -- --
0240:                                         AC 01 18               ...
0250: 80 AB 04 00                                       ....            
```

#### Opcodes

```
  0: 0x024D [0xAC] EventEntity->StatusEvent = 0*
  1: 0x0251 [0xAB] EventEntity->Render.Flags0 |= 0x40000 // Set bit 18
  2: 0x0253 [0x00] END_REQSTACK()
```

### Event 65535.36

#### Metadata

| Field        | Value    |
|--------------|----------|
| Entrypoint   | 0x0254   |
| Data Size    | 16 bytes |
| Instructions | 2        |

```
      00 01 02 03 04 05 06 07  08 09 0A 0B 0C 0D 0E 0F
      -- -- -- -- -- -- -- --  -- -- -- -- -- -- -- --
0250:             66 19 80 F8  FF FF 7F F8 FF FF 7F 6E      f..........n
0260: 72 69 30 00                                       ri0.            
```

#### Opcodes

```
  0: 0x0254 [0x66] LOAD_EXT_SCHEDULER_MAIN: Load scheduler "nri0" with entities [EventEntity, EventEntity], work=135*
  1: 0x0263 [0x00] END_REQSTACK()
```

### Event 65535.37

#### Metadata

| Field        | Value    |
|--------------|----------|
| Entrypoint   | 0x0264   |
| Data Size    | 14 bytes |
| Instructions | 2        |

```
      00 01 02 03 04 05 06 07  08 09 0A 0B 0C 0D 0E 0F
      -- -- -- -- -- -- -- --  -- -- -- -- -- -- -- --
0260:             53 F8 FF FF  7F F8 FF FF 7F 6E 72 69      S........nri
0270: 30 00                                             0.              
```

#### Opcodes

```
  0: 0x0264 [0x53] WAIT_SCHEDULER_TASK: Wait for scheduler "nri0" with entities [EventEntity, EventEntity]
  1: 0x0271 [0x00] END_REQSTACK()
```

### Event 65535.38

#### Metadata

| Field        | Value    |
|--------------|----------|
| Entrypoint   | 0x0272   |
| Data Size    | 16 bytes |
| Instructions | 2        |

```
      00 01 02 03 04 05 06 07  08 09 0A 0B 0C 0D 0E 0F
      -- -- -- -- -- -- -- --  -- -- -- -- -- -- -- --
0270:       66 19 80 F8 FF FF  7F F8 FF FF 7F 6E 72 69    f..........nri
0280: 31 00                                             1.              
```

#### Opcodes

```
  0: 0x0272 [0x66] LOAD_EXT_SCHEDULER_MAIN: Load scheduler "nri1" with entities [EventEntity, EventEntity], work=135*
  1: 0x0281 [0x00] END_REQSTACK()
```

### Event 65535.39

#### Metadata

| Field        | Value    |
|--------------|----------|
| Entrypoint   | 0x0282   |
| Data Size    | 14 bytes |
| Instructions | 2        |

```
      00 01 02 03 04 05 06 07  08 09 0A 0B 0C 0D 0E 0F
      -- -- -- -- -- -- -- --  -- -- -- -- -- -- -- --
0280:       53 F8 FF FF 7F F8  FF FF 7F 6E 72 69 31 00    S........nri1.
```

#### Opcodes

```
  0: 0x0282 [0x53] WAIT_SCHEDULER_TASK: Wait for scheduler "nri1" with entities [EventEntity, EventEntity]
  1: 0x028F [0x00] END_REQSTACK()
```

### Event 65535.40

#### Metadata

| Field        | Value    |
|--------------|----------|
| Entrypoint   | 0x0290   |
| Data Size    | 16 bytes |
| Instructions | 2        |

```
      00 01 02 03 04 05 06 07  08 09 0A 0B 0C 0D 0E 0F
      -- -- -- -- -- -- -- --  -- -- -- -- -- -- -- --
0290: 66 1A 80 F8 FF FF 7F F8  FF FF 7F 74 6C 6B 30 00  f..........tlk0.
```

#### Opcodes

```
  0: 0x0290 [0x66] LOAD_EXT_SCHEDULER_MAIN: Load scheduler "tlk0" with entities [EventEntity, EventEntity], work=209*
  1: 0x029F [0x00] END_REQSTACK()
```

### Event 65535.41

#### Metadata

| Field        | Value    |
|--------------|----------|
| Entrypoint   | 0x02A0   |
| Data Size    | 14 bytes |
| Instructions | 2        |

```
      00 01 02 03 04 05 06 07  08 09 0A 0B 0C 0D 0E 0F
      -- -- -- -- -- -- -- --  -- -- -- -- -- -- -- --
02A0: 53 F8 FF FF 7F F8 FF FF  7F 74 6C 6B 30 00        S........tlk0.  
```

#### Opcodes

```
  0: 0x02A0 [0x53] WAIT_SCHEDULER_TASK: Wait for scheduler "tlk0" with entities [EventEntity, EventEntity]
  1: 0x02AD [0x00] END_REQSTACK()
```

### Event 65535.42

#### Metadata

| Field        | Value    |
|--------------|----------|
| Entrypoint   | 0x02AE   |
| Data Size    | 16 bytes |
| Instructions | 2        |

```
      00 01 02 03 04 05 06 07  08 09 0A 0B 0C 0D 0E 0F
      -- -- -- -- -- -- -- --  -- -- -- -- -- -- -- --
02A0:                                            66 1A                f.
02B0: 80 F8 FF FF 7F F8 FF FF  7F 74 6C 6B 31 00        .........tlk1.  
```

#### Opcodes

```
  0: 0x02AE [0x66] LOAD_EXT_SCHEDULER_MAIN: Load scheduler "tlk1" with entities [EventEntity, EventEntity], work=209*
  1: 0x02BD [0x00] END_REQSTACK()
```

### Event 65535.43

#### Metadata

| Field        | Value    |
|--------------|----------|
| Entrypoint   | 0x02BE   |
| Data Size    | 14 bytes |
| Instructions | 2        |

```
      00 01 02 03 04 05 06 07  08 09 0A 0B 0C 0D 0E 0F
      -- -- -- -- -- -- -- --  -- -- -- -- -- -- -- --
02B0:                                            53 F8                S.
02C0: FF FF 7F F8 FF FF 7F 74  6C 6B 31 00              .......tlk1.    
```

#### Opcodes

```
  0: 0x02BE [0x53] WAIT_SCHEDULER_TASK: Wait for scheduler "tlk1" with entities [EventEntity, EventEntity]
  1: 0x02CB [0x00] END_REQSTACK()
```

### Event 65535.44

#### Metadata

| Field        | Value    |
|--------------|----------|
| Entrypoint   | 0x02CC   |
| Data Size    | 16 bytes |
| Instructions | 2        |

```
      00 01 02 03 04 05 06 07  08 09 0A 0B 0C 0D 0E 0F
      -- -- -- -- -- -- -- --  -- -- -- -- -- -- -- --
02C0:                                      5B 1B 80 F8              [...
02D0: FF FF 7F F8 FF FF 7F 64  72 61 31 00              .......dra1.    
```

#### Opcodes

```
  0: 0x02CC [0x5B] LOAD_EXT_SCHEDULER: Load scheduler "dra1" with entities [EventEntity, EventEntity], work=2279*
  1: 0x02DB [0x00] END_REQSTACK()
```

### Event 65535.45

#### Metadata

| Field        | Value    |
|--------------|----------|
| Entrypoint   | 0x02DC   |
| Data Size    | 14 bytes |
| Instructions | 2        |

```
      00 01 02 03 04 05 06 07  08 09 0A 0B 0C 0D 0E 0F
      -- -- -- -- -- -- -- --  -- -- -- -- -- -- -- --
02D0:                                      53 F8 FF FF              S...
02E0: 7F F8 FF FF 7F 64 72 61  31 00                    .....dra1.      
```

#### Opcodes

```
  0: 0x02DC [0x53] WAIT_SCHEDULER_TASK: Wait for scheduler "dra1" with entities [EventEntity, EventEntity]
  1: 0x02E9 [0x00] END_REQSTACK()
```

### Event 65535.46

#### Metadata

| Field        | Value    |
|--------------|----------|
| Entrypoint   | 0x02EA   |
| Data Size    | 16 bytes |
| Instructions | 2        |

```
      00 01 02 03 04 05 06 07  08 09 0A 0B 0C 0D 0E 0F
      -- -- -- -- -- -- -- --  -- -- -- -- -- -- -- --
02E0:                                66 1C 80 F8 FF FF            f.....
02F0: 7F F8 FF FF 7F 65 63 30  30 00                    .....ec00.      
```

#### Opcodes

```
  0: 0x02EA [0x66] LOAD_EXT_SCHEDULER_MAIN: Load scheduler "ec00" with entities [EventEntity, EventEntity], work=130*
  1: 0x02F9 [0x00] END_REQSTACK()
```

### Event 65535.47

#### Metadata

| Field        | Value    |
|--------------|----------|
| Entrypoint   | 0x02FA   |
| Data Size    | 14 bytes |
| Instructions | 2        |

```
      00 01 02 03 04 05 06 07  08 09 0A 0B 0C 0D 0E 0F
      -- -- -- -- -- -- -- --  -- -- -- -- -- -- -- --
02F0:                                53 F8 FF FF 7F F8            S.....
0300: FF FF 7F 65 63 30 30 00                           ...ec00.        
```

#### Opcodes

```
  0: 0x02FA [0x53] WAIT_SCHEDULER_TASK: Wait for scheduler "ec00" with entities [EventEntity, EventEntity]
  1: 0x0307 [0x00] END_REQSTACK()
```

### Event 65535.48

#### Metadata

| Field        | Value    |
|--------------|----------|
| Entrypoint   | 0x0308   |
| Data Size    | 22 bytes |
| Instructions | 8        |

```
      00 01 02 03 04 05 06 07  08 09 0A 0B 0C 0D 0E 0F
      -- -- -- -- -- -- -- --  -- -- -- -- -- -- -- --
0300:                          32 09 80 1F 00 1D 80 1E          2.......
0310: 80 16 80 1F 01 6F 1E 32  70 0F 01 6F 70 00        .....o.2p..op.  
```

#### Opcodes

```
  0: 0x0308 [0x32] ExtData[1]->MainSpeed = 40* * 0.1
  1: 0x030B [0x1F] MOVE_ENTITY: EventEntity moves to X=5.878*, Z=80.104*, Y=7.999*
  2: 0x0313 [0x1F] MOVE_ENTITY: Update entity position (mode=1)
  3: 0x0315 [0x6F] WAIT_FRAME_DELAY: Yield until WaitTime reaches zero
  4: 0x0316 [0x1E] EventEntity looks at ??? (ID: 17788978/0x010F7032) and starts talking
  5: 0x031B [0x6F] WAIT_FRAME_DELAY: Yield until WaitTime reaches zero
  6: 0x031C [0x70] WAIT_ENTITY_RENDER_FLAG: Wait while EventEntity->Render.Flags3 bit 2 is set (cancel turn if not)
  7: 0x031D [0x00] END_REQSTACK()
```

### Event 65535.49

#### Metadata

| Field        | Value    |
|--------------|----------|
| Entrypoint   | 0x031E   |
| Data Size    | 15 bytes |
| Instructions | 5        |

```
      00 01 02 03 04 05 06 07  08 09 0A 0B 0C 0D 0E 0F
      -- -- -- -- -- -- -- --  -- -- -- -- -- -- -- --
0310:                                            32 09                2.
0320: 80 1F 00 1F 80 20 80 13  80 1F 01 6F 00           ..... .....o.   
```

#### Opcodes

```
  0: 0x031E [0x32] ExtData[1]->MainSpeed = 40* * 0.1
  1: 0x0321 [0x1F] MOVE_ENTITY: EventEntity moves to X=7.024*, Z=77.800*, Y=8.000*
  2: 0x0329 [0x1F] MOVE_ENTITY: Update entity position (mode=1)
  3: 0x032B [0x6F] WAIT_FRAME_DELAY: Yield until WaitTime reaches zero
  4: 0x032C [0x00] END_REQSTACK()
```

### Event 190

#### Metadata

| Field        | Value   |
|--------------|---------|
| Entrypoint   | 0x032D  |
| Data Size    | 1 bytes |
| Instructions | 1       |

```
      00 01 02 03 04 05 06 07  08 09 0A 0B 0C 0D 0E 0F
      -- -- -- -- -- -- -- --  -- -- -- -- -- -- -- --
0320:                                         00                     .  
```

#### Opcodes

```
  0: 0x032D [0x00] END_REQSTACK()
```

### Event 191

#### Metadata

| Field        | Value   |
|--------------|---------|
| Entrypoint   | 0x032E  |
| Data Size    | 1 bytes |
| Instructions | 1       |

```
      00 01 02 03 04 05 06 07  08 09 0A 0B 0C 0D 0E 0F
      -- -- -- -- -- -- -- --  -- -- -- -- -- -- -- --
0320:                                            00                   . 
```

#### Opcodes

```
  0: 0x032E [0x00] END_REQSTACK()
```
