# 17788994

## Common Data

| Field            | Value           |
|------------------|-----------------|
| Zone             | Rabao (ID: 247) |
| Block Size       | 4080 bytes      |
| Total Events     | 6               |
| References Count | 89              |

## List of Events

| Event ID              | Entrypoint   |   Size |   Instructions |
|-----------------------|--------------|--------|----------------|
| [65535](#event-65535) | 0x0000       |      1 |              1 |
| [117](#event-117)     | 0x0001       |   1453 |            206 |
| [119](#event-119)     | 0x05AE       |    412 |             61 |
| [121](#event-121)     | 0x074A       |    598 |             86 |
| [123](#event-123)     | 0x09A0       |    468 |             73 |
| [128](#event-128)     | 0x0B74       |    750 |            102 |

## DAT References (imed_data)

|   Index | Hex Value   |   Dec Value |
|---------|-------------|-------------|
|       0 | 0x0000      |           0 |
|       1 | 0x0078      |         120 |
|       2 | 0x00C8      |         200 |
|       3 | 0x0003      |           3 |
|       4 | 0x00E3      |         227 |
|       5 | 0x28E1      |       10465 |
|       6 | 0x28E2      |       10466 |
|       7 | 0x28E3      |       10467 |
|       8 | 0x007F      |         127 |
|       9 | 0x28E4      |       10468 |
|      10 | 0x28E5      |       10469 |
|      11 | 0x28E6      |       10470 |
|      12 | 0x28E7      |       10471 |
|      13 | 0x0050      |          80 |
|      14 | 0x28E8      |       10472 |
|      15 | 0x28E9      |       10473 |
|      16 | 0x28EA      |       10474 |
|      17 | 0x28EB      |       10475 |
|      18 | 0x28EC      |       10476 |
|      19 | 0x001E      |          30 |
|      20 | 0x28ED      |       10477 |
|      21 | 0x28EE      |       10478 |
|      22 | 0x28EF      |       10479 |
|      23 | 0x28F0      |       10480 |
|      24 | 0x28F1      |       10481 |
|      25 | 0x009F      |         159 |
|      26 | 0x28F2      |       10482 |
|      27 | 0x28F3      |       10483 |
|      28 | 0x28F4      |       10484 |
|      29 | 0x28F5      |       10485 |
|      30 | 0x28F6      |       10486 |
|      31 | 0x28F7      |       10487 |
|      32 | 0x28F8      |       10488 |
|      33 | 0x28F9      |       10489 |
|      34 | 0x28FA      |       10490 |
|      35 | 0x28FB      |       10491 |
|      36 | 0x28FC      |       10492 |
|      37 | 0x0CF9      |        3321 |
|      38 | 0x28FD      |       10493 |
|      39 | 0x28FE      |       10494 |
|      40 | 0x003C      |          60 |
|      41 | 0x00D0      |         208 |
|      42 | 0x0013      |          19 |
|      43 | 0x2901      |       10497 |
|      44 | 0x2902      |       10498 |
|      45 | 0x2903      |       10499 |
|      46 | 0x2904      |       10500 |
|      47 | 0x2905      |       10501 |
|      48 | 0x2906      |       10502 |
|      49 | 0x2907      |       10503 |
|      50 | 0x007C      |         124 |
|      51 | 0x290A      |       10506 |
|      52 | 0x290B      |       10507 |
|      53 | 0x290C      |       10508 |
|      54 | 0x290D      |       10509 |
|      55 | 0x290E      |       10510 |
|      56 | 0x290F      |       10511 |
|      57 | 0x2910      |       10512 |
|      58 | 0x2911      |       10513 |
|      59 | 0x2912      |       10514 |
|      60 | 0x2913      |       10515 |
|      61 | 0x2914      |       10516 |
|      62 | 0x2915      |       10517 |
|      63 | 0x00C9      |         201 |
|      64 | 0x291B      |       10523 |
|      65 | 0x291C      |       10524 |
|      66 | 0x291D      |       10525 |
|      67 | 0x291E      |       10526 |
|      68 | 0x291F      |       10527 |
|      69 | 0x0001      |           1 |
|      70 | 0x2920      |       10528 |
|      71 | 0x2921      |       10529 |
|      72 | 0x2922      |       10530 |
|      73 | 0x2923      |       10531 |
|      74 | 0x0002      |           2 |
|      75 | 0x2924      |       10532 |
|      76 | 0x00EA      |         234 |
|      77 | 0x2925      |       10533 |
|      78 | 0x2926      |       10534 |
|      79 | 0x2927      |       10535 |
|      80 | 0x0028      |          40 |
|      81 | 0x2928      |       10536 |
|      82 | 0x2929      |       10537 |
|      83 | 0x292A      |       10538 |
|      84 | 0x292B      |       10539 |
|      85 | 0x292C      |       10540 |
|      86 | 0x292D      |       10541 |
|      87 | 0x292E      |       10542 |
|      88 | 0x2930      |       10544 |

## String References

- **10527**: What do you say? [I'll do it./I don't have time for babysitting.]

## Events

### Event 65535

#### Metadata

| Field        | Value   |
|--------------|---------|
| Entrypoint   | 0x0000  |
| Data Size    | 1 bytes |
| Instructions | 1       |

```
      00 01 02 03 04 05 06 07  08 09 0A 0B 0C 0D 0E 0F
      -- -- -- -- -- -- -- --  -- -- -- -- -- -- -- --
0000: 00                                                .               
```

#### Opcodes

```
  0: 0x0000 [0x00] END_REQSTACK()
```

### Event 117

#### Metadata

| Field        | Value      |
|--------------|------------|
| Entrypoint   | 0x0001     |
| Data Size    | 1453 bytes |
| Instructions | 206        |

```
      00 01 02 03 04 05 06 07  08 09 0A 0B 0C 0D 0E 0F
      -- -- -- -- -- -- -- --  -- -- -- -- -- -- -- --
0000:    20 01 42 46 01 5D 00  80 01 80 45 02 80 F8 FF    .BF.]....E....
0010: FF 7F F8 FF FF 7F 66 64  6F 31 00 80 1C 01 80 38  ......fdo1.....8
0020: 03 80 29 08 F0 FF FF 7F  15 29 0B 45 70 0F 01 0B  ..)......).Ep...
0030: 29 0B F0 FF FF 7F 12 29  0B 48 70 0F 01 2A 29 0B  )......).Hp..*).
0040: 47 70 0F 01 02 29 0B 46  70 0F 01 36 4E 00 44 70  Gp...).Fp..6N.Dp
0050: 0F 01 4E 00 45 70 0F 01  4E 00 48 70 0F 01 4E 00  ..N.Ep..N.Hp..N.
0060: 47 70 0F 01 4E 00 46 70  0F 01 80 45 70 0F 01 80  Gp..N.Fp...Ep...
0070: 44 70 0F 01 80 48 70 0F  01 80 47 70 0F 01 80 46  Dp...Hp...Gp...F
0080: 70 0F 01 92 01 44 70 0F  01 92 01 46 70 0F 01 92  p....Dp....Fp...
0090: 01 47 70 0F 01 92 01 48  70 0F 01 92 01 45 70 0F  .Gp....Hp....Ep.
00A0: 01 45 04 80 F8 FF FF 7F  F8 FF FF 7F 73 30 31 34  .E..........s014
00B0: 00 80 45 02 80 F8 FF FF  7F F8 FF FF 7F 66 64 69  ..E..........fdi
00C0: 31 00 80 2B 44 70 0F 01  05 80 23 4A 44 70 0F 01  1..+Dp....#JDp..
00D0: F0 FF FF 7F 6F 76 44 70  0F 01 2B 44 70 0F 01 06  ....ovDp..+Dp...
00E0: 80 23 27 0B 45 70 0F 01  0C 52 04 80 F8 FF FF 7F  .#'.Ep...R......
00F0: F8 FF FF 7F 73 30 31 34  45 04 80 F8 FF FF 7F F8  ....s014E.......
0100: FF FF 7F 73 30 31 35 00  80 4A 44 70 0F 01 45 70  ...s015..JDp..Ep
0110: 0F 01 4A F0 FF FF 7F 45  70 0F 01 2B 45 70 0F 01  ..J....Ep..+Ep..
0120: 07 80 23 2A 0B 45 70 0F  01 5C 00 08 80 5C 01 08  ..#*.Ep..\...\..
0130: 80 27 0B 45 70 0F 01 0D  2B 45 70 0F 01 09 80 23  .'.Ep...+Ep....#
0140: 2A 0B 45 70 0F 01 52 04  80 F8 FF FF 7F F8 FF FF  *.Ep..R.........
0150: 7F 73 30 31 35 45 02 80  F0 FF FF 7F F0 FF FF 7F  .s015E..........
0160: 6F 76 6C 31 00 80 45 04  80 F8 FF FF 7F F8 FF FF  ovl1..E.........
0170: 7F 73 30 31 36 00 80 2B  45 70 0F 01 0A 80 23 52  .s016..+Ep....#R
0180: 04 80 F8 FF FF 7F F8 FF  FF 7F 73 30 31 36 45 04  ..........s016E.
0190: 80 F8 FF FF 7F F8 FF FF  7F 73 30 31 37 00 80 79  .........s017..y
01A0: 00 48 70 0F 01 45 70 0F  01 79 00 47 70 0F 01 48  .Hp..Ep..y.Gp..H
01B0: 70 0F 01 79 00 46 70 0F  01 48 70 0F 01 4A 45 70  p..y.Fp..Hp..JEp
01C0: 0F 01 48 70 0F 01 27 0B  48 70 0F 01 2B 27 0B 47  ..Hp..'.Hp..+'.G
01D0: 70 0F 01 03 2B 48 70 0F  01 0B 80 23 2B 48 70 0F  p...+Hp....#+Hp.
01E0: 01 0C 80 23 27 0B 46 70  0F 01 37 1C 0D 80 52 04  ...#'.Fp..7...R.
01F0: 80 F8 FF FF 7F F8 FF FF  7F 73 30 31 37 45 04 80  .........s017E..
0200: F8 FF FF 7F F8 FF FF 7F  73 30 31 38 00 80 2B 46  ........s018..+F
0210: 70 0F 01 0E 80 23 2A 0B  46 70 0F 01 79 00 45 70  p....#*.Fp..y.Ep
0220: 0F 01 46 70 0F 01 4A 48  70 0F 01 46 70 0F 01 29  ..Fp..JHp..Fp..)
0230: 08 46 70 0F 01 07 2B 46  70 0F 01 0F 80 23 29 08  .Fp...+Fp....#).
0240: 46 70 0F 01 08 6F 76 48  70 0F 01 29 08 46 70 0F  Fp...ovHp..).Fp.
0250: 01 09 2B 48 70 0F 01 10  80 23 52 04 80 F8 FF FF  ..+Hp....#R.....
0260: 7F F8 FF FF 7F 73 30 31  38 45 04 80 F8 FF FF 7F  .....s018E......
0270: F8 FF FF 7F 73 30 31 39  00 80 79 00 48 70 0F 01  ....s019..y.Hp..
0280: 45 70 0F 01 4A 48 70 0F  01 45 70 0F 01 2B 48 70  Ep..JHp..Ep..+Hp
0290: 0F 01 11 80 23 29 08 46  70 0F 01 0A 79 00 48 70  ....#).Fp...y.Hp
02A0: 0F 01 45 70 0F 01 79 00  46 70 0F 01 45 70 0F 01  ..Ep..y.Fp..Ep..
02B0: 79 00 47 70 0F 01 45 70  0F 01 2B 45 70 0F 01 12  y.Gp..Ep..+Ep...
02C0: 80 23 2A 0B 47 70 0F 01  79 00 45 70 0F 01 47 70  .#*.Gp..y.Ep..Gp
02D0: 0F 01 27 0B 47 70 0F 01  04 1C 13 80 52 04 80 F8  ..'.Gp......R...
02E0: FF FF 7F F8 FF FF 7F 73  30 31 39 45 04 80 F8 FF  .......s019E....
02F0: FF 7F F8 FF FF 7F 73 30  32 30 00 80 2B 47 70 0F  ......s020..+Gp.
0300: 01 14 80 23 2B 47 70 0F  01 15 80 23 2A 0B 47 70  ...#+Gp....#*.Gp
0310: 0F 01 29 0B 44 70 0F 01  0A 2B 45 70 0F 01 16 80  ..).Dp...+Ep....
0320: 23 52 04 80 F8 FF FF 7F  F8 FF FF 7F 73 30 32 30  #R..........s020
0330: 5D 00 80 01 80 45 04 80  F8 FF FF 7F F8 FF FF 7F  ]....E..........
0340: 73 30 32 31 00 80 27 0B  44 70 0F 01 09 4A 45 70  s021..'.Dp...JEp
0350: 0F 01 44 70 0F 01 4A F0  FF FF 7F 46 70 0F 01 79  ..Dp..J....Fp..y
0360: 00 47 70 0F 01 44 70 0F  01 79 00 48 70 0F 01 44  .Gp..Dp..y.Hp..D
0370: 70 0F 01 2B 44 70 0F 01  17 80 23 2A 0B 44 70 0F  p..+Dp....#*.Dp.
0380: 01 79 00 44 70 0F 01 47  70 0F 01 2B 44 70 0F 01  .y.Dp..Gp..+Dp..
0390: 18 80 23 79 00 47 70 0F  01 48 70 0F 01 79 00 46  ..#y.Gp..Hp..y.F
03A0: 70 0F 01 48 70 0F 01 1C  13 80 27 0B 46 70 0F 01  p..Hp.....'.Fp..
03B0: 38 1C 13 80 27 0B 47 70  0F 01 05 1C 13 80 27 0B  8...'.Gp......'.
03C0: 48 70 0F 01 2C 1C 13 80  52 04 80 F8 FF FF 7F F8  Hp..,...R.......
03D0: FF FF 7F 73 30 32 31 45  04 80 F8 FF FF 7F F8 FF  ...s021E........
03E0: FF 7F 73 30 32 32 00 80  5C 00 19 80 5C 01 19 80  ..s022..\...\...
03F0: 4A 44 70 0F 01 45 70 0F  01 6F 76 44 70 0F 01 7B  JDp..Ep..ovDp..{
0400: 44 70 0F 01 29 08 44 70  0F 01 03 2B 44 70 0F 01  Dp..).Dp...+Dp..
0410: 1A 80 23 29 08 44 70 0F  01 04 29 08 44 70 0F 01  ..#).Dp...).Dp..
0420: 05 2B 44 70 0F 01 1B 80  23 29 08 44 70 0F 01 06  .+Dp....#).Dp...
0430: 4A 45 70 0F 01 44 70 0F  01 2B 45 70 0F 01 1C 80  JEp..Dp..+Ep....
0440: 23 52 04 80 F8 FF FF 7F  F8 FF FF 7F 73 30 32 32  #R..........s022
0450: 45 04 80 F8 FF FF 7F F8  FF FF 7F 73 30 32 33 00  E..........s023.
0460: 80 2B 44 70 0F 01 1D 80  23 79 00 F0 FF FF 7F 44  .+Dp....#y.....D
0470: 70 0F 01 2B 44 70 0F 01  1E 80 23 52 04 80 F8 FF  p..+Dp....#R....
0480: FF 7F F8 FF FF 7F 73 30  32 33 45 02 80 F0 FF FF  ......s023E.....
0490: 7F F0 FF FF 7F 6F 76 6C  31 00 80 45 04 80 F8 FF  .....ovl1..E....
04A0: FF 7F F8 FF FF 7F 73 30  32 34 00 80 2B 44 70 0F  ......s024..+Dp.
04B0: 01 1F 80 23 2B 44 70 0F  01 20 80 23 2B 45 70 0F  ...#+Dp.. .#+Ep.
04C0: 01 21 80 23 52 04 80 F8  FF FF 7F F8 FF FF 7F 73  .!.#R..........s
04D0: 30 32 34 45 04 80 F8 FF  FF 7F F8 FF FF 7F 73 30  024E..........s0
04E0: 32 35 00 80 27 0B 44 70  0F 01 0B 2B 44 70 0F 01  25..'.Dp...+Dp..
04F0: 22 80 23 2B 44 70 0F 01  23 80 23 2A 0B 44 70 0F  ".#+Dp..#.#*.Dp.
0500: 01 7C 00 45 70 0F 01 2B  45 70 0F 01 24 80 23 7C  .|.Ep..+Ep..$.#|
0510: 01 45 70 0F 01 52 04 80  F8 FF FF 7F F8 FF FF 7F  .Ep..R..........
0520: 73 30 32 35 45 04 80 F8  FF FF 7F F8 FF FF 7F 73  s025E..........s
0530: 30 32 36 00 80 4B 45 70  0F 01 25 80 6F 76 45 70  026..KEp..%.ovEp
0540: 0F 01 2B 45 70 0F 01 26  80 23 2B 45 70 0F 01 27  ..+Ep..&.#+Ep..'
0550: 80 23 27 0B 45 70 0F 01  0E 1C 28 80 5D 00 80 01  .#'.Ep....(.]...
0560: 80 45 02 80 F0 FF FF 7F  F0 FF FF 7F 66 64 6F 31  .E..........fdo1
0570: 00 80 1C 01 80 52 04 80  F8 FF FF 7F F8 FF FF 7F  .....R..........
0580: 73 30 32 36 5C 00 29 80  5C 01 29 80 4E 00 F0 FF  s026\.).\.).N...
0590: FF 7F 80 F0 FF FF 7F 46  00 45 02 80 F0 FF FF 7F  .......F.E......
05A0: F0 FF FF 7F 66 64 69 31  00 80 20 00 21 00        ....fdi1.. .!.  
```

#### Opcodes

```
  0: 0x0001 [0x20] SET_CLI_EVENT_UC_FLAG: Lock player control
  1: 0x0003 [0x42] SET_CLI_EVENT_CANCEL_DATA()
  2: 0x0004 [0x46] CAMERA_CONTROL: Disable user control
  3: 0x0006 [0x5D] SET_MUSIC_VOLUME(volume=0*, fade_time=120*)
  4: 0x000B [0x45] LOAD_SCHEDULED_TASK: Load scheduler "fdo1" with entities [EventEntity, EventEntity], work=[200*, 0*]
  5: 0x001C [0x1C] WAIT(120* ticks)
  6: 0x001F [0x38] SET_CLIENT_EVENT_MODE(mode=3*)
  7: 0x0022 [0x29] REQ_SET_WAIT(priority=0x08, entity_id=LocalPlayer, tag_num=0x15)
  8: 0x0029 [0x29] REQ_SET_WAIT(priority=0x0B, entity_id=Chelvadurai (ID: 17788997/0x010F7045), tag_num=0x0B)
  9: 0x0030 [0x29] REQ_SET_WAIT(priority=0x0B, entity_id=LocalPlayer, tag_num=0x12)
 10: 0x0037 [0x29] REQ_SET_WAIT(priority=0x0B, entity_id=Jeisson (ID: 17789000/0x010F7048), tag_num=0x2A)
 11: 0x003E [0x29] REQ_SET_WAIT(priority=0x0B, entity_id=Ganan (ID: 17788999/0x010F7047), tag_num=0x02)
 12: 0x0045 [0x29] REQ_SET_WAIT(priority=0x0B, entity_id=Usharani (ID: 17788998/0x010F7046), tag_num=0x36)
 13: 0x004C [0x4E] SET_ENTITY_HIDE_FLAG: Show Rudolfo (ID: 17788996/0x010F7044)
 14: 0x0052 [0x4E] SET_ENTITY_HIDE_FLAG: Show Chelvadurai (ID: 17788997/0x010F7045)
 15: 0x0058 [0x4E] SET_ENTITY_HIDE_FLAG: Show Jeisson (ID: 17789000/0x010F7048)
 16: 0x005E [0x4E] SET_ENTITY_HIDE_FLAG: Show Ganan (ID: 17788999/0x010F7047)
 17: 0x0064 [0x4E] SET_ENTITY_HIDE_FLAG: Show Usharani (ID: 17788998/0x010F7046)
 18: 0x006A [0x80] LOAD_WAIT(entity=Chelvadurai (ID: 17788997/0x010F7045))
 19: 0x006F [0x80] LOAD_WAIT(entity=Rudolfo (ID: 17788996/0x010F7044))
 20: 0x0074 [0x80] LOAD_WAIT(entity=Jeisson (ID: 17789000/0x010F7048))
 21: 0x0079 [0x80] LOAD_WAIT(entity=Ganan (ID: 17788999/0x010F7047))
 22: 0x007E [0x80] LOAD_WAIT(entity=Usharani (ID: 17788998/0x010F7046))
 23: 0x0083 [0x92] Rudolfo (ID: 17788996/0x010F7044)->Render.Flags3 ^= 0x01
 24: 0x0089 [0x92] Usharani (ID: 17788998/0x010F7046)->Render.Flags3 ^= 0x01
 25: 0x008F [0x92] Ganan (ID: 17788999/0x010F7047)->Render.Flags3 ^= 0x01
 26: 0x0095 [0x92] Jeisson (ID: 17789000/0x010F7048)->Render.Flags3 ^= 0x01
 27: 0x009B [0x92] Chelvadurai (ID: 17788997/0x010F7045)->Render.Flags3 ^= 0x01
 28: 0x00A1 [0x45] LOAD_SCHEDULED_TASK: Load scheduler "s014" with entities [EventEntity, EventEntity], work=[227*, 0*]
 29: 0x00B2 [0x45] LOAD_SCHEDULED_TASK: Load scheduler "fdi1" with entities [EventEntity, EventEntity], work=[200*, 0*]
 30: 0x00C3 [0x2B] Rudolfo (ID: 17788996/0x010F7044) [10465*]:
    → "This box needs to go in with that San d'Orian shipment. And this one... Dammit, where's my list?"
 31: 0x00CA [0x23] WAIT_FOR_DIALOG_INTERACTION
 32: 0x00CB [0x4A] Rudolfo (ID: 17788996/0x010F7044) looks at LocalPlayer
 33: 0x00D4 [0x6F] WAIT_FRAME_DELAY: Yield until WaitTime reaches zero
 34: 0x00D5 [0x76] CHECK_ENTITY_RENDER_FLAGS: Wait until Rudolfo (ID: 17788996/0x010F7044) Render.Flags0 and Render.Flags3 conditions are met
 35: 0x00DA [0x2B] Rudolfo (ID: 17788996/0x010F7044) [10466*]:
    → "Oh, and a fine day to you, adventurer. Rudolfo of the Rabao "If it don't get there overnight, wait" Freight Company, at your service."
 36: 0x00E1 [0x23] WAIT_FOR_DIALOG_INTERACTION
 37: 0x00E2 [0x27] REQ_SET(priority=0x0B, entity_id=Chelvadurai (ID: 17788997/0x010F7045), tag_num=0x0C)
 38: 0x00E9 [0x52] END_LOAD_SCHEDULER: End scheduler "s014" with entities [EventEntity, EventEntity], work=227*
 39: 0x00F8 [0x45] LOAD_SCHEDULED_TASK: Load scheduler "s015" with entities [EventEntity, EventEntity], work=[227*, 0*]
 40: 0x0109 [0x4A] Rudolfo (ID: 17788996/0x010F7044) looks at Chelvadurai (ID: 17788997/0x010F7045)
 41: 0x0112 [0x4A] LocalPlayer looks at Chelvadurai (ID: 17788997/0x010F7045)
 42: 0x011B [0x2B] Chelvadurai (ID: 17788997/0x010F7045) [10467*]:
    → "Sanctia! Sanctia`!"
 43: 0x0122 [0x23] WAIT_FOR_DIALOG_INTERACTION
 44: 0x0123 [0x2A] GET_REQ_LEVEL(level=11, entity_id=Chelvadurai (ID: 17788997/0x010F7045))
 45: 0x0129 [0x5C] MUSIC_CONTROL: Set Idle (Day) music to song 127*
 46: 0x012D [0x5C] MUSIC_CONTROL: Set Idle (Night) music to song 127*
 47: 0x0131 [0x27] REQ_SET(priority=0x0B, entity_id=Chelvadurai (ID: 17788997/0x010F7045), tag_num=0x0D)
 48: 0x0138 [0x2B] Chelvadurai (ID: 17788997/0x010F7045) [10468*]:
    → "Mister Rudolfo, you haven't seen my Sanctia anywhere, have you?"
 49: 0x013F [0x23] WAIT_FOR_DIALOG_INTERACTION
 50: 0x0140 [0x2A] GET_REQ_LEVEL(level=11, entity_id=Chelvadurai (ID: 17788997/0x010F7045))
 51: 0x0146 [0x52] END_LOAD_SCHEDULER: End scheduler "s015" with entities [EventEntity, EventEntity], work=227*
 52: 0x0155 [0x45] LOAD_SCHEDULED_TASK: Load scheduler "ovl1" with entities [LocalPlayer, LocalPlayer], work=[200*, 0*]
 53: 0x0166 [0x45] LOAD_SCHEDULED_TASK: Load scheduler "s016" with entities [EventEntity, EventEntity], work=[227*, 0*]
 54: 0x0177 [0x2B] Chelvadurai (ID: 17788997/0x010F7045) [10469*]:
    → "Since it's payday and all, I wanted to give her a late birthday present. I can't find her anywhere..."
 55: 0x017E [0x23] WAIT_FOR_DIALOG_INTERACTION
 56: 0x017F [0x52] END_LOAD_SCHEDULER: End scheduler "s016" with entities [EventEntity, EventEntity], work=227*
 57: 0x018E [0x45] LOAD_SCHEDULED_TASK: Load scheduler "s017" with entities [EventEntity, EventEntity], work=[227*, 0*]
 58: 0x019F [0x79] Jeisson (ID: 17789000/0x010F7048) looks at Chelvadurai (ID: 17788997/0x010F7045) (Basic look)
 59: 0x01A9 [0x79] Ganan (ID: 17788999/0x010F7047) looks at Jeisson (ID: 17789000/0x010F7048) (Basic look)
 60: 0x01B3 [0x79] Usharani (ID: 17788998/0x010F7046) looks at Jeisson (ID: 17789000/0x010F7048) (Basic look)
 61: 0x01BD [0x4A] Chelvadurai (ID: 17788997/0x010F7045) looks at Jeisson (ID: 17789000/0x010F7048)
 62: 0x01C6 [0x27] REQ_SET(priority=0x0B, entity_id=Jeisson (ID: 17789000/0x010F7048), tag_num=0x2B)
 63: 0x01CD [0x27] REQ_SET(priority=0x0B, entity_id=Ganan (ID: 17788999/0x010F7047), tag_num=0x03)
 64: 0x01D4 [0x2B] Jeisson (ID: 17789000/0x010F7048) [10470*]:
    → "Well, I been lookin' for you, Chelvadurai."
 65: 0x01DB [0x23] WAIT_FOR_DIALOG_INTERACTION
 66: 0x01DC [0x2B] Jeisson (ID: 17789000/0x010F7048) [10471*]:
    → "If you got any spare cash floatin' around, how's about paying me back that ten thousand gil you borrowed?"
 67: 0x01E3 [0x23] WAIT_FOR_DIALOG_INTERACTION
 68: 0x01E4 [0x27] REQ_SET(priority=0x0B, entity_id=Usharani (ID: 17788998/0x010F7046), tag_num=0x37)
 69: 0x01EB [0x1C] WAIT(80* ticks)
 70: 0x01EE [0x52] END_LOAD_SCHEDULER: End scheduler "s017" with entities [EventEntity, EventEntity], work=227*
 71: 0x01FD [0x45] LOAD_SCHEDULED_TASK: Load scheduler "s018" with entities [EventEntity, EventEntity], work=[227*, 0*]
 72: 0x020E [0x2B] Usharani (ID: 17788998/0x010F7046) [10472*]:
    → "Leave off, Jeisson. Sanctia's armor has been hangin' by a thread for months."
 73: 0x0215 [0x23] WAIT_FOR_DIALOG_INTERACTION
 74: 0x0216 [0x2A] GET_REQ_LEVEL(level=11, entity_id=Usharani (ID: 17788998/0x010F7046))
 75: 0x021C [0x79] Chelvadurai (ID: 17788997/0x010F7045) looks at Usharani (ID: 17788998/0x010F7046) (Basic look)
 76: 0x0226 [0x4A] Jeisson (ID: 17789000/0x010F7048) looks at Usharani (ID: 17788998/0x010F7046)
 77: 0x022F [0x29] REQ_SET_WAIT(priority=0x08, entity_id=Usharani (ID: 17788998/0x010F7046), tag_num=0x07)
 78: 0x0236 [0x2B] Usharani (ID: 17788998/0x010F7046) [10473*]:
    → "You can't expect her to haul cargo across the desert in nothin' more than a pair of boots an' a smile."
 79: 0x023D [0x23] WAIT_FOR_DIALOG_INTERACTION
 80: 0x023E [0x29] REQ_SET_WAIT(priority=0x08, entity_id=Usharani (ID: 17788998/0x010F7046), tag_num=0x08)
 81: 0x0245 [0x6F] WAIT_FRAME_DELAY: Yield until WaitTime reaches zero
 82: 0x0246 [0x76] CHECK_ENTITY_RENDER_FLAGS: Wait until Jeisson (ID: 17789000/0x010F7048) Render.Flags0 and Render.Flags3 conditions are met
 83: 0x024B [0x29] REQ_SET_WAIT(priority=0x08, entity_id=Usharani (ID: 17788998/0x010F7046), tag_num=0x09)
 84: 0x0252 [0x2B] Jeisson (ID: 17789000/0x010F7048) [10474*]:
    → "But a man should pay his debts, am I right?"
 85: 0x0259 [0x23] WAIT_FOR_DIALOG_INTERACTION
 86: 0x025A [0x52] END_LOAD_SCHEDULER: End scheduler "s018" with entities [EventEntity, EventEntity], work=227*
 87: 0x0269 [0x45] LOAD_SCHEDULED_TASK: Load scheduler "s019" with entities [EventEntity, EventEntity], work=[227*, 0*]
 88: 0x027A [0x79] Jeisson (ID: 17789000/0x010F7048) looks at Chelvadurai (ID: 17788997/0x010F7045) (Basic look)
 89: 0x0284 [0x4A] Jeisson (ID: 17789000/0x010F7048) looks at Chelvadurai (ID: 17788997/0x010F7045)
 90: 0x028D [0x2B] Jeisson (ID: 17789000/0x010F7048) [10475*]:
    → "You were chased out of the last town 'cos of money troubles, and still you hand over bags of gil to that Lucky Roll guy..."
 91: 0x0294 [0x23] WAIT_FOR_DIALOG_INTERACTION
 92: 0x0295 [0x29] REQ_SET_WAIT(priority=0x08, entity_id=Usharani (ID: 17788998/0x010F7046), tag_num=0x0A)
 93: 0x029C [0x79] Jeisson (ID: 17789000/0x010F7048) looks at Chelvadurai (ID: 17788997/0x010F7045) (Basic look)
 94: 0x02A6 [0x79] Usharani (ID: 17788998/0x010F7046) looks at Chelvadurai (ID: 17788997/0x010F7045) (Basic look)
 95: 0x02B0 [0x79] Ganan (ID: 17788999/0x010F7047) looks at Chelvadurai (ID: 17788997/0x010F7045) (Basic look)
 96: 0x02BA [0x2B] Chelvadurai (ID: 17788997/0x010F7045) [10476*]:
    → "Can't argue with you there. I have no excuses at all."
 97: 0x02C1 [0x23] WAIT_FOR_DIALOG_INTERACTION
 98: 0x02C2 [0x2A] GET_REQ_LEVEL(level=11, entity_id=Ganan (ID: 17788999/0x010F7047))
 99: 0x02C8 [0x79] Chelvadurai (ID: 17788997/0x010F7045) looks at Ganan (ID: 17788999/0x010F7047) (Basic look)
100: 0x02D2 [0x27] REQ_SET(priority=0x0B, entity_id=Ganan (ID: 17788999/0x010F7047), tag_num=0x04)
101: 0x02D9 [0x1C] WAIT(30* ticks)
102: 0x02DC [0x52] END_LOAD_SCHEDULER: End scheduler "s019" with entities [EventEntity, EventEntity], work=227*
103: 0x02EB [0x45] LOAD_SCHEDULED_TASK: Load scheduler "s020" with entities [EventEntity, EventEntity], work=[227*, 0*]
104: 0x02FC [0x2B] Ganan (ID: 17788999/0x010F7047) [10477*]:
    → "We all know what it's like to trudge around the Outlands on this pitiful wage, and Lucky Roll's the only entertainment we get out here. But you got a wife and baby back home, right?"
105: 0x0303 [0x23] WAIT_FOR_DIALOG_INTERACTION
106: 0x0304 [0x2B] Ganan (ID: 17788999/0x010F7047) [10478*]:
    → "You should be sending every spare coin to your family, not borrowing more for fun and games."
107: 0x030B [0x23] WAIT_FOR_DIALOG_INTERACTION
108: 0x030C [0x2A] GET_REQ_LEVEL(level=11, entity_id=Ganan (ID: 17788999/0x010F7047))
109: 0x0312 [0x29] REQ_SET_WAIT(priority=0x0B, entity_id=Rudolfo (ID: 17788996/0x010F7044), tag_num=0x0A)
110: 0x0319 [0x2B] Chelvadurai (ID: 17788997/0x010F7045) [10479*]:
    → "You're right, you're exactly right. What was I thinking?"
111: 0x0320 [0x23] WAIT_FOR_DIALOG_INTERACTION
112: 0x0321 [0x52] END_LOAD_SCHEDULER: End scheduler "s020" with entities [EventEntity, EventEntity], work=227*
113: 0x0330 [0x5D] SET_MUSIC_VOLUME(volume=0*, fade_time=120*)
114: 0x0335 [0x45] LOAD_SCHEDULED_TASK: Load scheduler "s021" with entities [EventEntity, EventEntity], work=[227*, 0*]
115: 0x0346 [0x27] REQ_SET(priority=0x0B, entity_id=Rudolfo (ID: 17788996/0x010F7044), tag_num=0x09)
116: 0x034D [0x4A] Chelvadurai (ID: 17788997/0x010F7045) looks at Rudolfo (ID: 17788996/0x010F7044)
117: 0x0356 [0x4A] LocalPlayer looks at Usharani (ID: 17788998/0x010F7046)
118: 0x035F [0x79] Ganan (ID: 17788999/0x010F7047) looks at Rudolfo (ID: 17788996/0x010F7044) (Basic look)
119: 0x0369 [0x79] Jeisson (ID: 17789000/0x010F7048) looks at Rudolfo (ID: 17788996/0x010F7044) (Basic look)
120: 0x0373 [0x2B] Rudolfo (ID: 17788996/0x010F7044) [10480*]:
    → "Alright, enough talk, you lot."
121: 0x037A [0x23] WAIT_FOR_DIALOG_INTERACTION
122: 0x037B [0x2A] GET_REQ_LEVEL(level=11, entity_id=Rudolfo (ID: 17788996/0x010F7044))
123: 0x0381 [0x79] Rudolfo (ID: 17788996/0x010F7044) looks at Ganan (ID: 17788999/0x010F7047) (Basic look)
124: 0x038B [0x2B] Rudolfo (ID: 17788996/0x010F7044) [10481*]:
    → "Is the next shipment ready to go? What am I paying you for? Get back to work."
125: 0x0392 [0x23] WAIT_FOR_DIALOG_INTERACTION
126: 0x0393 [0x79] Ganan (ID: 17788999/0x010F7047) looks at Jeisson (ID: 17789000/0x010F7048) (Basic look)
127: 0x039D [0x79] Usharani (ID: 17788998/0x010F7046) looks at Jeisson (ID: 17789000/0x010F7048) (Basic look)
128: 0x03A7 [0x1C] WAIT(30* ticks)
129: 0x03AA [0x27] REQ_SET(priority=0x0B, entity_id=Usharani (ID: 17788998/0x010F7046), tag_num=0x38)
130: 0x03B1 [0x1C] WAIT(30* ticks)
131: 0x03B4 [0x27] REQ_SET(priority=0x0B, entity_id=Ganan (ID: 17788999/0x010F7047), tag_num=0x05)
132: 0x03BB [0x1C] WAIT(30* ticks)
133: 0x03BE [0x27] REQ_SET(priority=0x0B, entity_id=Jeisson (ID: 17789000/0x010F7048), tag_num=0x2C)
134: 0x03C5 [0x1C] WAIT(30* ticks)
135: 0x03C8 [0x52] END_LOAD_SCHEDULER: End scheduler "s021" with entities [EventEntity, EventEntity], work=227*
136: 0x03D7 [0x45] LOAD_SCHEDULED_TASK: Load scheduler "s022" with entities [EventEntity, EventEntity], work=[227*, 0*]
137: 0x03E8 [0x5C] MUSIC_CONTROL: Set Idle (Day) music to song 159*
138: 0x03EC [0x5C] MUSIC_CONTROL: Set Idle (Night) music to song 159*
139: 0x03F0 [0x4A] Rudolfo (ID: 17788996/0x010F7044) looks at Chelvadurai (ID: 17788997/0x010F7045)
140: 0x03F9 [0x6F] WAIT_FRAME_DELAY: Yield until WaitTime reaches zero
141: 0x03FA [0x76] CHECK_ENTITY_RENDER_FLAGS: Wait until Rudolfo (ID: 17788996/0x010F7044) Render.Flags0 and Render.Flags3 conditions are met
142: 0x03FF [0x7B] Rudolfo (ID: 17788996/0x010F7044) stops talking
143: 0x0404 [0x29] REQ_SET_WAIT(priority=0x08, entity_id=Rudolfo (ID: 17788996/0x010F7044), tag_num=0x03)
144: 0x040B [0x2B] Rudolfo (ID: 17788996/0x010F7044) [10482*]:
    → "By the way, Chelvadurai. I gave you the day off to celebrate your daughter's birthday..."
145: 0x0412 [0x23] WAIT_FOR_DIALOG_INTERACTION
146: 0x0413 [0x29] REQ_SET_WAIT(priority=0x08, entity_id=Rudolfo (ID: 17788996/0x010F7044), tag_num=0x04)
147: 0x041A [0x29] REQ_SET_WAIT(priority=0x08, entity_id=Rudolfo (ID: 17788996/0x010F7044), tag_num=0x05)
148: 0x0421 [0x2B] Rudolfo (ID: 17788996/0x010F7044) [10483*]:
    → "But just because she's not around doesn't mean you can take tomorrow off, as well. I'm trying to run a business here, you understand?"
149: 0x0428 [0x23] WAIT_FOR_DIALOG_INTERACTION
150: 0x0429 [0x29] REQ_SET_WAIT(priority=0x08, entity_id=Rudolfo (ID: 17788996/0x010F7044), tag_num=0x06)
151: 0x0430 [0x4A] Chelvadurai (ID: 17788997/0x010F7045) looks at Rudolfo (ID: 17788996/0x010F7044)
152: 0x0439 [0x2B] Chelvadurai (ID: 17788997/0x010F7045) [10484*]:
    → "Yes, sir. I understand."
153: 0x0440 [0x23] WAIT_FOR_DIALOG_INTERACTION
154: 0x0441 [0x52] END_LOAD_SCHEDULER: End scheduler "s022" with entities [EventEntity, EventEntity], work=227*
155: 0x0450 [0x45] LOAD_SCHEDULED_TASK: Load scheduler "s023" with entities [EventEntity, EventEntity], work=[227*, 0*]
156: 0x0461 [0x2B] Rudolfo (ID: 17788996/0x010F7044) [10485*]:
    → "...You don't think she's run off, do you?"
157: 0x0468 [0x23] WAIT_FOR_DIALOG_INTERACTION
158: 0x0469 [0x79] LocalPlayer looks at Rudolfo (ID: 17788996/0x010F7044) (Basic look)
159: 0x0473 [0x2B] Rudolfo (ID: 17788996/0x010F7044) [10486*]:
    → "I mean, you could work the rest of your life and not pay back those loans by yourself."
160: 0x047A [0x23] WAIT_FOR_DIALOG_INTERACTION
161: 0x047B [0x52] END_LOAD_SCHEDULER: End scheduler "s023" with entities [EventEntity, EventEntity], work=227*
162: 0x048A [0x45] LOAD_SCHEDULED_TASK: Load scheduler "ovl1" with entities [LocalPlayer, LocalPlayer], work=[200*, 0*]
163: 0x049B [0x45] LOAD_SCHEDULED_TASK: Load scheduler "s024" with entities [EventEntity, EventEntity], work=[227*, 0*]
164: 0x04AC [0x2B] Rudolfo (ID: 17788996/0x010F7044) [10487*]:
    → "Sanctia still has a good thirty years of labor in her, which would be just enough for getting those debts off your back."
165: 0x04B3 [0x23] WAIT_FOR_DIALOG_INTERACTION
166: 0x04B4 [0x2B] Rudolfo (ID: 17788996/0x010F7044) [10488*]:
    → "And I'm sure she's well aware of that fact by now."
167: 0x04BB [0x23] WAIT_FOR_DIALOG_INTERACTION
168: 0x04BC [0x2B] Chelvadurai (ID: 17788997/0x010F7045) [10489*]:
    → "Do you really think she's left me behind...?"
169: 0x04C3 [0x23] WAIT_FOR_DIALOG_INTERACTION
170: 0x04C4 [0x52] END_LOAD_SCHEDULER: End scheduler "s024" with entities [EventEntity, EventEntity], work=227*
171: 0x04D3 [0x45] LOAD_SCHEDULED_TASK: Load scheduler "s025" with entities [EventEntity, EventEntity], work=[227*, 0*]
172: 0x04E4 [0x27] REQ_SET(priority=0x0B, entity_id=Rudolfo (ID: 17788996/0x010F7044), tag_num=0x0B)
173: 0x04EB [0x2B] Rudolfo (ID: 17788996/0x010F7044) [10490*]:
    → "Probably for the best, I say. There's something not quite right with that girl."
174: 0x04F2 [0x23] WAIT_FOR_DIALOG_INTERACTION
175: 0x04F3 [0x2B] Rudolfo (ID: 17788996/0x010F7044) [10491*]:
    → "My guess is she's gone to look for Tavnazia after soaking up all of Zoriboh's fairy tales about the place."
176: 0x04FA [0x23] WAIT_FOR_DIALOG_INTERACTION
177: 0x04FB [0x2A] GET_REQ_LEVEL(level=11, entity_id=Rudolfo (ID: 17788996/0x010F7044))
178: 0x0501 [0x7C] Chelvadurai (ID: 17788997/0x010F7045)->Render.Flags2 |= 0x00
179: 0x0507 [0x2B] Chelvadurai (ID: 17788997/0x010F7045) [10492*]:
    → "..."
180: 0x050E [0x23] WAIT_FOR_DIALOG_INTERACTION
181: 0x050F [0x7C] Chelvadurai (ID: 17788997/0x010F7045)->Render.Flags2 |= 0x01
182: 0x0515 [0x52] END_LOAD_SCHEDULER: End scheduler "s025" with entities [EventEntity, EventEntity], work=227*
183: 0x0524 [0x45] LOAD_SCHEDULED_TASK: Load scheduler "s026" with entities [EventEntity, EventEntity], work=[227*, 0*]
184: 0x0535 [0x4B] UPDATE_ENTITY_YAW(entity=Chelvadurai (ID: 17788997/0x010F7045), yaw=18.2°*)
185: 0x053C [0x6F] WAIT_FRAME_DELAY: Yield until WaitTime reaches zero
186: 0x053D [0x76] CHECK_ENTITY_RENDER_FLAGS: Wait until Chelvadurai (ID: 17788997/0x010F7045) Render.Flags0 and Render.Flags3 conditions are met
187: 0x0542 [0x2B] Chelvadurai (ID: 17788997/0x010F7045) [10493*]:
    → "Sanctia..."
188: 0x0549 [0x23] WAIT_FOR_DIALOG_INTERACTION
189: 0x054A [0x2B] Chelvadurai (ID: 17788997/0x010F7045) [10494*]:
    → "Have you finally lost patience with your old man...?"
190: 0x0551 [0x23] WAIT_FOR_DIALOG_INTERACTION
191: 0x0552 [0x27] REQ_SET(priority=0x0B, entity_id=Chelvadurai (ID: 17788997/0x010F7045), tag_num=0x0E)
192: 0x0559 [0x1C] WAIT(60* ticks)
193: 0x055C [0x5D] SET_MUSIC_VOLUME(volume=0*, fade_time=120*)
194: 0x0561 [0x45] LOAD_SCHEDULED_TASK: Load scheduler "fdo1" with entities [LocalPlayer, LocalPlayer], work=[200*, 0*]
195: 0x0572 [0x1C] WAIT(120* ticks)
196: 0x0575 [0x52] END_LOAD_SCHEDULER: End scheduler "s026" with entities [EventEntity, EventEntity], work=227*
197: 0x0584 [0x5C] MUSIC_CONTROL: Set Idle (Day) music to song 208*
198: 0x0588 [0x5C] MUSIC_CONTROL: Set Idle (Night) music to song 208*
199: 0x058C [0x4E] SET_ENTITY_HIDE_FLAG: Show LocalPlayer
200: 0x0592 [0x80] LOAD_WAIT(entity=LocalPlayer)
201: 0x0597 [0x46] CAMERA_CONTROL: Restore default settings
202: 0x0599 [0x45] LOAD_SCHEDULED_TASK: Load scheduler "fdi1" with entities [LocalPlayer, LocalPlayer], work=[200*, 0*]
203: 0x05AA [0x20] SET_CLI_EVENT_UC_FLAG: Unlock player control
204: 0x05AC [0x21] END_EVENT
205: 0x05AD [0x00] END_REQSTACK()
```

### Event 119

#### Metadata

| Field        | Value     |
|--------------|-----------|
| Entrypoint   | 0x05AE    |
| Data Size    | 412 bytes |
| Instructions | 61        |

```
      00 01 02 03 04 05 06 07  08 09 0A 0B 0C 0D 0E 0F
      -- -- -- -- -- -- -- --  -- -- -- -- -- -- -- --
05A0:                                            20 01                 .
05B0: 42 46 01 5D 00 80 01 80  45 02 80 F8 FF FF 7F F8  BF.]....E.......
05C0: FF FF 7F 66 64 6F 31 00  80 1C 01 80 38 2A 80 29  ...fdo1.....8*.)
05D0: 08 F0 FF FF 7F 15 92 01  43 70 0F 01 29 0B F0 FF  ........Cp..)...
05E0: FF 7F 13 4E 00 43 70 0F  01 80 43 70 0F 01 4A F0  ...N.Cp...Cp..J.
05F0: FF FF 7F 43 70 0F 01 4A  43 70 0F 01 F0 FF FF 7F  ...Cp..JCp......
0600: 6F 76 F0 FF FF 7F 6F 76  43 70 0F 01 5C 00 08 80  ov....ovCp..\...
0610: 5C 01 08 80 45 04 80 F8  FF FF 7F F8 FF FF 7F 73  \...E..........s
0620: 30 32 37 00 80 45 02 80  F8 FF FF 7F F8 FF FF 7F  027..E..........
0630: 66 64 69 31 00 80 2B 43  70 0F 01 2B 80 23 29 08  fdi1..+Cp..+.#).
0640: 43 70 0F 01 05 2B 43 70  0F 01 2C 80 23 29 08 43  Cp...+Cp..,.#).C
0650: 70 0F 01 06 52 04 80 F8  FF FF 7F F8 FF FF 7F 73  p...R..........s
0660: 30 32 37 45 04 80 F8 FF  FF 7F F8 FF FF 7F 73 30  027E..........s0
0670: 32 38 00 80 29 08 43 70  0F 01 07 2B 43 70 0F 01  28..).Cp...+Cp..
0680: 2D 80 23 2B 43 70 0F 01  2E 80 23 29 08 43 70 0F  -.#+Cp....#).Cp.
0690: 01 08 52 04 80 F8 FF FF  7F F8 FF FF 7F 73 30 32  ..R..........s02
06A0: 38 45 04 80 F8 FF FF 7F  F8 FF FF 7F 73 30 32 39  8E..........s029
06B0: 00 80 29 08 43 70 0F 01  01 2B 43 70 0F 01 2F 80  ..).Cp...+Cp../.
06C0: 23 2B 43 70 0F 01 30 80  23 29 08 43 70 0F 01 02  #+Cp..0.#).Cp...
06D0: 52 04 80 F8 FF FF 7F F8  FF FF 7F 73 30 32 39 45  R..........s029E
06E0: 04 80 F8 FF FF 7F F8 FF  FF 7F 73 30 33 30 00 80  ..........s030..
06F0: 2B 43 70 0F 01 31 80 23  5D 00 80 01 80 45 02 80  +Cp..1.#]....E..
0700: F0 FF FF 7F F0 FF FF 7F  66 64 6F 31 00 80 1C 01  ........fdo1....
0710: 80 52 04 80 F8 FF FF 7F  F8 FF FF 7F 73 30 33 30  .R..........s030
0720: 5C 00 29 80 5C 01 29 80  4E 00 F0 FF FF 7F 80 F0  \.).\.).N.......
0730: FF FF 7F 46 00 45 02 80  F0 FF FF 7F F0 FF FF 7F  ...F.E..........
0740: 66 64 69 31 00 80 20 00  21 00                    fdi1.. .!.      
```

#### Opcodes

```
  0: 0x05AE [0x20] SET_CLI_EVENT_UC_FLAG: Lock player control
  1: 0x05B0 [0x42] SET_CLI_EVENT_CANCEL_DATA()
  2: 0x05B1 [0x46] CAMERA_CONTROL: Disable user control
  3: 0x05B3 [0x5D] SET_MUSIC_VOLUME(volume=0*, fade_time=120*)
  4: 0x05B8 [0x45] LOAD_SCHEDULED_TASK: Load scheduler "fdo1" with entities [EventEntity, EventEntity], work=[200*, 0*]
  5: 0x05C9 [0x1C] WAIT(120* ticks)
  6: 0x05CC [0x38] SET_CLIENT_EVENT_MODE(mode=19*)
  7: 0x05CF [0x29] REQ_SET_WAIT(priority=0x08, entity_id=LocalPlayer, tag_num=0x15)
  8: 0x05D6 [0x92] Zoriboh (ID: 17788995/0x010F7043)->Render.Flags3 ^= 0x01
  9: 0x05DC [0x29] REQ_SET_WAIT(priority=0x0B, entity_id=LocalPlayer, tag_num=0x13)
 10: 0x05E3 [0x4E] SET_ENTITY_HIDE_FLAG: Show Zoriboh (ID: 17788995/0x010F7043)
 11: 0x05E9 [0x80] LOAD_WAIT(entity=Zoriboh (ID: 17788995/0x010F7043))
 12: 0x05EE [0x4A] LocalPlayer looks at Zoriboh (ID: 17788995/0x010F7043)
 13: 0x05F7 [0x4A] Zoriboh (ID: 17788995/0x010F7043) looks at LocalPlayer
 14: 0x0600 [0x6F] WAIT_FRAME_DELAY: Yield until WaitTime reaches zero
 15: 0x0601 [0x76] CHECK_ENTITY_RENDER_FLAGS: Wait until LocalPlayer Render.Flags0 and Render.Flags3 conditions are met
 16: 0x0606 [0x6F] WAIT_FRAME_DELAY: Yield until WaitTime reaches zero
 17: 0x0607 [0x76] CHECK_ENTITY_RENDER_FLAGS: Wait until Zoriboh (ID: 17788995/0x010F7043) Render.Flags0 and Render.Flags3 conditions are met
 18: 0x060C [0x5C] MUSIC_CONTROL: Set Idle (Day) music to song 127*
 19: 0x0610 [0x5C] MUSIC_CONTROL: Set Idle (Night) music to song 127*
 20: 0x0614 [0x45] LOAD_SCHEDULED_TASK: Load scheduler "s027" with entities [EventEntity, EventEntity], work=[227*, 0*]
 21: 0x0625 [0x45] LOAD_SCHEDULED_TASK: Load scheduler "fdi1" with entities [EventEntity, EventEntity], work=[200*, 0*]
 22: 0x0636 [0x2B] Zoriboh (ID: 17788995/0x010F7043) [10497*]:
    → "You say little Sanctia has gone missing?"
 23: 0x063D [0x23] WAIT_FOR_DIALOG_INTERACTION
 24: 0x063E [0x29] REQ_SET_WAIT(priority=0x08, entity_id=Zoriboh (ID: 17788995/0x010F7043), tag_num=0x05)
 25: 0x0645 [0x2B] Zoriboh (ID: 17788995/0x010F7043) [10498*]:
    → "Don't tell me she's taken to heart those stories I heard in Norg..."
 26: 0x064C [0x23] WAIT_FOR_DIALOG_INTERACTION
 27: 0x064D [0x29] REQ_SET_WAIT(priority=0x08, entity_id=Zoriboh (ID: 17788995/0x010F7043), tag_num=0x06)
 28: 0x0654 [0x52] END_LOAD_SCHEDULER: End scheduler "s027" with entities [EventEntity, EventEntity], work=227*
 29: 0x0663 [0x45] LOAD_SCHEDULED_TASK: Load scheduler "s028" with entities [EventEntity, EventEntity], work=[227*, 0*]
 30: 0x0674 [0x29] REQ_SET_WAIT(priority=0x08, entity_id=Zoriboh (ID: 17788995/0x010F7043), tag_num=0x07)
 31: 0x067B [0x2B] Zoriboh (ID: 17788995/0x010F7043) [10499*]:
    → "You've gotta find her for me, adventurer."
 32: 0x0682 [0x23] WAIT_FOR_DIALOG_INTERACTION
 33: 0x0683 [0x2B] Zoriboh (ID: 17788995/0x010F7043) [10500*]:
    → "If what you say is true, she's probably headed for the lost nation of Tavnazia."
 34: 0x068A [0x23] WAIT_FOR_DIALOG_INTERACTION
 35: 0x068B [0x29] REQ_SET_WAIT(priority=0x08, entity_id=Zoriboh (ID: 17788995/0x010F7043), tag_num=0x08)
 36: 0x0692 [0x52] END_LOAD_SCHEDULER: End scheduler "s028" with entities [EventEntity, EventEntity], work=227*
 37: 0x06A1 [0x45] LOAD_SCHEDULED_TASK: Load scheduler "s029" with entities [EventEntity, EventEntity], work=[227*, 0*]
 38: 0x06B2 [0x29] REQ_SET_WAIT(priority=0x08, entity_id=Zoriboh (ID: 17788995/0x010F7043), tag_num=0x01)
 39: 0x06B9 [0x2B] Zoriboh (ID: 17788995/0x010F7043) [10501*]:
    → "That means she'll be in Norg, looking for a ship to take her to the Marquisate."
 40: 0x06C0 [0x23] WAIT_FOR_DIALOG_INTERACTION
 41: 0x06C1 [0x2B] Zoriboh (ID: 17788995/0x010F7043) [10502*]:
    → "That place is a haven for the worst kind of pirates and thieves. I can't bear to think what would happen to innocent little Sanctia in there..."
 42: 0x06C8 [0x23] WAIT_FOR_DIALOG_INTERACTION
 43: 0x06C9 [0x29] REQ_SET_WAIT(priority=0x08, entity_id=Zoriboh (ID: 17788995/0x010F7043), tag_num=0x02)
 44: 0x06D0 [0x52] END_LOAD_SCHEDULER: End scheduler "s029" with entities [EventEntity, EventEntity], work=227*
 45: 0x06DF [0x45] LOAD_SCHEDULED_TASK: Load scheduler "s030" with entities [EventEntity, EventEntity], work=[227*, 0*]
 46: 0x06F0 [0x2B] Zoriboh (ID: 17788995/0x010F7043) [10503*]:
    → "You've gotta get there before anything happens to her. I'll pay you myself if I have to, but please hurry!"
 47: 0x06F7 [0x23] WAIT_FOR_DIALOG_INTERACTION
 48: 0x06F8 [0x5D] SET_MUSIC_VOLUME(volume=0*, fade_time=120*)
 49: 0x06FD [0x45] LOAD_SCHEDULED_TASK: Load scheduler "fdo1" with entities [LocalPlayer, LocalPlayer], work=[200*, 0*]
 50: 0x070E [0x1C] WAIT(120* ticks)
 51: 0x0711 [0x52] END_LOAD_SCHEDULER: End scheduler "s030" with entities [EventEntity, EventEntity], work=227*
 52: 0x0720 [0x5C] MUSIC_CONTROL: Set Idle (Day) music to song 208*
 53: 0x0724 [0x5C] MUSIC_CONTROL: Set Idle (Night) music to song 208*
 54: 0x0728 [0x4E] SET_ENTITY_HIDE_FLAG: Show LocalPlayer
 55: 0x072E [0x80] LOAD_WAIT(entity=LocalPlayer)
 56: 0x0733 [0x46] CAMERA_CONTROL: Restore default settings
 57: 0x0735 [0x45] LOAD_SCHEDULED_TASK: Load scheduler "fdi1" with entities [LocalPlayer, LocalPlayer], work=[200*, 0*]
 58: 0x0746 [0x20] SET_CLI_EVENT_UC_FLAG: Unlock player control
 59: 0x0748 [0x21] END_EVENT
 60: 0x0749 [0x00] END_REQSTACK()
```

### Event 121

#### Metadata

| Field        | Value     |
|--------------|-----------|
| Entrypoint   | 0x074A    |
| Data Size    | 598 bytes |
| Instructions | 86        |

```
      00 01 02 03 04 05 06 07  08 09 0A 0B 0C 0D 0E 0F
      -- -- -- -- -- -- -- --  -- -- -- -- -- -- -- --
0740:                                20 01 42 46 01 5D             .BF.]
0750: 00 80 01 80 45 02 80 F8  FF FF 7F F8 FF FF 7F 66  ....E..........f
0760: 64 6F 31 00 80 1C 01 80  38 2A 80 29 08 F0 FF FF  do1.....8*.)....
0770: 7F 15 92 01 43 70 0F 01  29 0B F0 FF FF 7F 13 4E  ....Cp..)......N
0780: 00 43 70 0F 01 80 43 70  0F 01 4A F0 FF FF 7F 43  .Cp...Cp..J....C
0790: 70 0F 01 4A 43 70 0F 01  F0 FF FF 7F 6F 76 F0 FF  p..JCp......ov..
07A0: FF 7F 6F 76 43 70 0F 01  5C 00 32 80 5C 01 32 80  ..ovCp..\.2.\.2.
07B0: 45 04 80 F8 FF FF 7F F8  FF FF 7F 73 30 32 38 00  E..........s028.
07C0: 80 45 02 80 F8 FF FF 7F  F8 FF FF 7F 66 64 69 31  .E..........fdi1
07D0: 00 80 2B 43 70 0F 01 33  80 23 52 04 80 F8 FF FF  ..+Cp..3.#R.....
07E0: 7F F8 FF FF 7F 73 30 32  38 45 04 80 F8 FF FF 7F  .....s028E......
07F0: F8 FF FF 7F 73 30 32 39  00 80 29 08 43 70 0F 01  ....s029..).Cp..
0800: 05 2B 43 70 0F 01 34 80  23 2B 43 70 0F 01 35 80  .+Cp..4.#+Cp..5.
0810: 23 2B 43 70 0F 01 36 80  23 29 08 43 70 0F 01 06  #+Cp..6.#).Cp...
0820: 52 04 80 F8 FF FF 7F F8  FF FF 7F 73 30 32 39 45  R..........s029E
0830: 04 80 F8 FF FF 7F F8 FF  FF 7F 73 30 33 30 00 80  ..........s030..
0840: 29 08 43 70 0F 01 07 2B  43 70 0F 01 37 80 23 29  ).Cp...+Cp..7.#)
0850: 08 43 70 0F 01 08 2B 43  70 0F 01 38 80 23 52 04  .Cp...+Cp..8.#R.
0860: 80 F8 FF FF 7F F8 FF FF  7F 73 30 33 30 45 04 80  .........s030E..
0870: F8 FF FF 7F F8 FF FF 7F  73 30 33 32 00 80 27 0B  ........s032..'.
0880: 43 70 0F 01 20 2B 43 70  0F 01 39 80 23 2B 43 70  Cp.. +Cp..9.#+Cp
0890: 0F 01 3A 80 23 2A 0B 43  70 0F 01 52 04 80 F8 FF  ..:.#*.Cp..R....
08A0: FF 7F F8 FF FF 7F 73 30  33 32 45 04 80 F8 FF FF  ......s032E.....
08B0: 7F F8 FF FF 7F 73 30 33  33 00 80 4A 43 70 0F 01  .....s033..JCp..
08C0: F0 FF FF 7F 4A F0 FF FF  7F 43 70 0F 01 6F 76 43  ....J....Cp..ovC
08D0: 70 0F 01 29 08 43 70 0F  01 01 2B 43 70 0F 01 3B  p..).Cp...+Cp..;
08E0: 80 23 2B 43 70 0F 01 3C  80 23 29 08 43 70 0F 01  .#+Cp..<.#).Cp..
08F0: 02 52 04 80 F8 FF FF 7F  F8 FF FF 7F 73 30 33 33  .R..........s033
0900: 45 04 80 F8 FF FF 7F F8  FF FF 7F 73 30 33 31 00  E..........s031.
0910: 80 29 08 43 70 0F 01 0D  2B 43 70 0F 01 3D 80 23  .).Cp...+Cp..=.#
0920: 29 08 43 70 0F 01 0E 29  08 43 70 0F 01 03 2B 43  ).Cp...).Cp...+C
0930: 70 0F 01 3E 80 23 5D 00  80 01 80 45 02 80 F0 FF  p..>.#]....E....
0940: FF 7F F0 FF FF 7F 66 64  6F 31 00 80 1C 01 80 29  ......fdo1.....)
0950: 08 43 70 0F 01 04 52 04  80 F8 FF FF 7F F8 FF FF  .Cp...R.........
0960: 7F 73 30 32 37 5C 00 29  80 5C 01 29 80 4E 00 F0  .s027\.).\.).N..
0970: FF FF 7F 80 F0 FF FF 7F  46 00 45 3F 80 F0 FF FF  ........F.E?....
0980: 7F F0 FF FF 7F 71 73 74  63 00 80 45 02 80 F0 FF  .....qstc..E....
0990: FF 7F F0 FF FF 7F 66 64  69 31 00 80 20 00 21 00  ......fdi1.. .!.
```

#### Opcodes

```
  0: 0x074A [0x20] SET_CLI_EVENT_UC_FLAG: Lock player control
  1: 0x074C [0x42] SET_CLI_EVENT_CANCEL_DATA()
  2: 0x074D [0x46] CAMERA_CONTROL: Disable user control
  3: 0x074F [0x5D] SET_MUSIC_VOLUME(volume=0*, fade_time=120*)
  4: 0x0754 [0x45] LOAD_SCHEDULED_TASK: Load scheduler "fdo1" with entities [EventEntity, EventEntity], work=[200*, 0*]
  5: 0x0765 [0x1C] WAIT(120* ticks)
  6: 0x0768 [0x38] SET_CLIENT_EVENT_MODE(mode=19*)
  7: 0x076B [0x29] REQ_SET_WAIT(priority=0x08, entity_id=LocalPlayer, tag_num=0x15)
  8: 0x0772 [0x92] Zoriboh (ID: 17788995/0x010F7043)->Render.Flags3 ^= 0x01
  9: 0x0778 [0x29] REQ_SET_WAIT(priority=0x0B, entity_id=LocalPlayer, tag_num=0x13)
 10: 0x077F [0x4E] SET_ENTITY_HIDE_FLAG: Show Zoriboh (ID: 17788995/0x010F7043)
 11: 0x0785 [0x80] LOAD_WAIT(entity=Zoriboh (ID: 17788995/0x010F7043))
 12: 0x078A [0x4A] LocalPlayer looks at Zoriboh (ID: 17788995/0x010F7043)
 13: 0x0793 [0x4A] Zoriboh (ID: 17788995/0x010F7043) looks at LocalPlayer
 14: 0x079C [0x6F] WAIT_FRAME_DELAY: Yield until WaitTime reaches zero
 15: 0x079D [0x76] CHECK_ENTITY_RENDER_FLAGS: Wait until LocalPlayer Render.Flags0 and Render.Flags3 conditions are met
 16: 0x07A2 [0x6F] WAIT_FRAME_DELAY: Yield until WaitTime reaches zero
 17: 0x07A3 [0x76] CHECK_ENTITY_RENDER_FLAGS: Wait until Zoriboh (ID: 17788995/0x010F7043) Render.Flags0 and Render.Flags3 conditions are met
 18: 0x07A8 [0x5C] MUSIC_CONTROL: Set Idle (Day) music to song 124*
 19: 0x07AC [0x5C] MUSIC_CONTROL: Set Idle (Night) music to song 124*
 20: 0x07B0 [0x45] LOAD_SCHEDULED_TASK: Load scheduler "s028" with entities [EventEntity, EventEntity], work=[227*, 0*]
 21: 0x07C1 [0x45] LOAD_SCHEDULED_TASK: Load scheduler "fdi1" with entities [EventEntity, EventEntity], work=[200*, 0*]
 22: 0x07D2 [0x2B] Zoriboh (ID: 17788995/0x010F7043) [10506*]:
    → "She's where!? I can't believe little Sanctia made it to the Tavnazian Archipelago all by herself. So, she's planning to become a bounty hunter..."
 23: 0x07D9 [0x23] WAIT_FOR_DIALOG_INTERACTION
 24: 0x07DA [0x52] END_LOAD_SCHEDULER: End scheduler "s028" with entities [EventEntity, EventEntity], work=227*
 25: 0x07E9 [0x45] LOAD_SCHEDULED_TASK: Load scheduler "s029" with entities [EventEntity, EventEntity], work=[227*, 0*]
 26: 0x07FA [0x29] REQ_SET_WAIT(priority=0x08, entity_id=Zoriboh (ID: 17788995/0x010F7043), tag_num=0x05)
 27: 0x0801 [0x2B] Zoriboh (ID: 17788995/0x010F7043) [10507*]:
    → "This is all my fault. I never should've filled her head with all those stories of adventure."
 28: 0x0808 [0x23] WAIT_FOR_DIALOG_INTERACTION
 29: 0x0809 [0x2B] Zoriboh (ID: 17788995/0x010F7043) [10508*]:
    → "I told Sanctia of two famous bounty hunters: Goldmane of Tavnazia, and Ismenios Cutsilver of Bastok..."
 30: 0x0810 [0x23] WAIT_FOR_DIALOG_INTERACTION
 31: 0x0811 [0x2B] Zoriboh (ID: 17788995/0x010F7043) [10509*]:
    → "This pair left their mark on Vana'diel's history with the great deeds they performed twenty years ago."
 32: 0x0818 [0x23] WAIT_FOR_DIALOG_INTERACTION
 33: 0x0819 [0x29] REQ_SET_WAIT(priority=0x08, entity_id=Zoriboh (ID: 17788995/0x010F7043), tag_num=0x06)
 34: 0x0820 [0x52] END_LOAD_SCHEDULER: End scheduler "s029" with entities [EventEntity, EventEntity], work=227*
 35: 0x082F [0x45] LOAD_SCHEDULED_TASK: Load scheduler "s030" with entities [EventEntity, EventEntity], work=[227*, 0*]
 36: 0x0840 [0x29] REQ_SET_WAIT(priority=0x08, entity_id=Zoriboh (ID: 17788995/0x010F7043), tag_num=0x07)
 37: 0x0847 [0x2B] Zoriboh (ID: 17788995/0x010F7043) [10510*]:
    → "They are best remembered for capturing the notorious leader of Atarefaunet's Band and handing him over to the San d'Orian government."
 38: 0x084E [0x23] WAIT_FOR_DIALOG_INTERACTION
 39: 0x084F [0x29] REQ_SET_WAIT(priority=0x08, entity_id=Zoriboh (ID: 17788995/0x010F7043), tag_num=0x08)
 40: 0x0856 [0x2B] Zoriboh (ID: 17788995/0x010F7043) [10511*]:
    → "The sum they received for Atarefaunet's capture was said to have been unbelievably huge."
 41: 0x085D [0x23] WAIT_FOR_DIALOG_INTERACTION
 42: 0x085E [0x52] END_LOAD_SCHEDULER: End scheduler "s030" with entities [EventEntity, EventEntity], work=227*
 43: 0x086D [0x45] LOAD_SCHEDULED_TASK: Load scheduler "s032" with entities [EventEntity, EventEntity], work=[227*, 0*]
 44: 0x087E [0x27] REQ_SET(priority=0x0B, entity_id=Zoriboh (ID: 17788995/0x010F7043), tag_num=0x20)
 45: 0x0885 [0x2B] Zoriboh (ID: 17788995/0x010F7043) [10512*]:
    → "Sanctia is probably planning to apprentice herself to Goldmane and make her fortune as a bounty hunter."
 46: 0x088C [0x23] WAIT_FOR_DIALOG_INTERACTION
 47: 0x088D [0x2B] Zoriboh (ID: 17788995/0x010F7043) [10513*]:
    → "I hate to admit it, but her father's debts would be impossible to pay back with any normal wage..."
 48: 0x0894 [0x23] WAIT_FOR_DIALOG_INTERACTION
 49: 0x0895 [0x2A] GET_REQ_LEVEL(level=11, entity_id=Zoriboh (ID: 17788995/0x010F7043))
 50: 0x089B [0x52] END_LOAD_SCHEDULER: End scheduler "s032" with entities [EventEntity, EventEntity], work=227*
 51: 0x08AA [0x45] LOAD_SCHEDULED_TASK: Load scheduler "s033" with entities [EventEntity, EventEntity], work=[227*, 0*]
 52: 0x08BB [0x4A] Zoriboh (ID: 17788995/0x010F7043) looks at LocalPlayer
 53: 0x08C4 [0x4A] LocalPlayer looks at Zoriboh (ID: 17788995/0x010F7043)
 54: 0x08CD [0x6F] WAIT_FRAME_DELAY: Yield until WaitTime reaches zero
 55: 0x08CE [0x76] CHECK_ENTITY_RENDER_FLAGS: Wait until Zoriboh (ID: 17788995/0x010F7043) Render.Flags0 and Render.Flags3 conditions are met
 56: 0x08D3 [0x29] REQ_SET_WAIT(priority=0x08, entity_id=Zoriboh (ID: 17788995/0x010F7043), tag_num=0x01)
 57: 0x08DA [0x2B] Zoriboh (ID: 17788995/0x010F7043) [10514*]:
    → "Anyway, I'm relieved to hear she's not alone on her travels."
 58: 0x08E1 [0x23] WAIT_FOR_DIALOG_INTERACTION
 59: 0x08E2 [0x2B] Zoriboh (ID: 17788995/0x010F7043) [10515*]:
    → "That moogle has been on the road before and knows which places to avoid."
 60: 0x08E9 [0x23] WAIT_FOR_DIALOG_INTERACTION
 61: 0x08EA [0x29] REQ_SET_WAIT(priority=0x08, entity_id=Zoriboh (ID: 17788995/0x010F7043), tag_num=0x02)
 62: 0x08F1 [0x52] END_LOAD_SCHEDULER: End scheduler "s033" with entities [EventEntity, EventEntity], work=227*
 63: 0x0900 [0x45] LOAD_SCHEDULED_TASK: Load scheduler "s031" with entities [EventEntity, EventEntity], work=[227*, 0*]
 64: 0x0911 [0x29] REQ_SET_WAIT(priority=0x08, entity_id=Zoriboh (ID: 17788995/0x010F7043), tag_num=0x0D)
 65: 0x0918 [0x2B] Zoriboh (ID: 17788995/0x010F7043) [10516*]:
    → "That good-for-nothing Chelvadurai. His gambling habits are to blame for all this."
 66: 0x091F [0x23] WAIT_FOR_DIALOG_INTERACTION
 67: 0x0920 [0x29] REQ_SET_WAIT(priority=0x08, entity_id=Zoriboh (ID: 17788995/0x010F7043), tag_num=0x0E)
 68: 0x0927 [0x29] REQ_SET_WAIT(priority=0x08, entity_id=Zoriboh (ID: 17788995/0x010F7043), tag_num=0x03)
 69: 0x092E [0x2B] Zoriboh (ID: 17788995/0x010F7043) [10517*]:
    → "I'll tell him about his daughter myself. Here, you've done your part."
 70: 0x0935 [0x23] WAIT_FOR_DIALOG_INTERACTION
 71: 0x0936 [0x5D] SET_MUSIC_VOLUME(volume=0*, fade_time=120*)
 72: 0x093B [0x45] LOAD_SCHEDULED_TASK: Load scheduler "fdo1" with entities [LocalPlayer, LocalPlayer], work=[200*, 0*]
 73: 0x094C [0x1C] WAIT(120* ticks)
 74: 0x094F [0x29] REQ_SET_WAIT(priority=0x08, entity_id=Zoriboh (ID: 17788995/0x010F7043), tag_num=0x04)
 75: 0x0956 [0x52] END_LOAD_SCHEDULER: End scheduler "s027" with entities [EventEntity, EventEntity], work=227*
 76: 0x0965 [0x5C] MUSIC_CONTROL: Set Idle (Day) music to song 208*
 77: 0x0969 [0x5C] MUSIC_CONTROL: Set Idle (Night) music to song 208*
 78: 0x096D [0x4E] SET_ENTITY_HIDE_FLAG: Show LocalPlayer
 79: 0x0973 [0x80] LOAD_WAIT(entity=LocalPlayer)
 80: 0x0978 [0x46] CAMERA_CONTROL: Restore default settings
 81: 0x097A [0x45] LOAD_SCHEDULED_TASK: Load scheduler "qstc" with entities [LocalPlayer, LocalPlayer], work=[201*, 0*]
 82: 0x098B [0x45] LOAD_SCHEDULED_TASK: Load scheduler "fdi1" with entities [LocalPlayer, LocalPlayer], work=[200*, 0*]
 83: 0x099C [0x20] SET_CLI_EVENT_UC_FLAG: Unlock player control
 84: 0x099E [0x21] END_EVENT
 85: 0x099F [0x00] END_REQSTACK()
```

### Event 123

#### Metadata

| Field        | Value     |
|--------------|-----------|
| Entrypoint   | 0x09A0    |
| Data Size    | 468 bytes |
| Instructions | 73        |

```
      00 01 02 03 04 05 06 07  08 09 0A 0B 0C 0D 0E 0F
      -- -- -- -- -- -- -- --  -- -- -- -- -- -- -- --
09A0: 20 01 42 46 01 5D 00 80  01 80 45 02 80 F8 FF FF   .BF.]....E.....
09B0: 7F F8 FF FF 7F 66 64 6F  31 00 80 1C 01 80 38 2A  .....fdo1.....8*
09C0: 80 29 08 F0 FF FF 7F 15  92 01 43 70 0F 01 29 0B  .)........Cp..).
09D0: F0 FF FF 7F 13 4E 00 43  70 0F 01 80 43 70 0F 01  .....N.Cp...Cp..
09E0: 5C 00 08 80 5C 01 08 80  4A F0 FF FF 7F 43 70 0F  \...\...J....Cp.
09F0: 01 4A 43 70 0F 01 F0 FF  FF 7F 6F 76 F0 FF FF 7F  .JCp......ov....
0A00: 6F 76 43 70 0F 01 45 04  80 F8 FF FF 7F F8 FF FF  ovCp..E.........
0A10: 7F 73 30 32 37 00 80 45  02 80 F8 FF FF 7F F8 FF  .s027..E........
0A20: FF 7F 66 64 69 31 00 80  2B 43 70 0F 01 40 80 23  ..fdi1..+Cp..@.#
0A30: 2B 43 70 0F 01 41 80 23  52 04 80 F8 FF FF 7F F8  +Cp..A.#R.......
0A40: FF FF 7F 73 30 32 37 45  04 80 F8 FF FF 7F F8 FF  ...s027E........
0A50: FF 7F 73 30 33 30 00 80  29 08 43 70 0F 01 05 2B  ..s030..).Cp...+
0A60: 43 70 0F 01 42 80 23 2B  43 70 0F 01 43 80 23 29  Cp..B.#+Cp..C.#)
0A70: 08 43 70 0F 01 06 52 04  80 F8 FF FF 7F F8 FF FF  .Cp...R.........
0A80: 7F 73 30 33 30 24 44 80  00 80 00 80 25 02 00 10  .s030$D.....%...
0A90: 00 80 00 19 0B 03 01 10  45 80 45 04 80 F8 FF FF  ........E.E.....
0AA0: 7F F8 FF FF 7F 73 30 32  38 00 80 29 08 43 70 0F  .....s028..).Cp.
0AB0: 01 07 2B 43 70 0F 01 46  80 23 29 08 43 70 0F 01  ..+Cp..F.#).Cp..
0AC0: 08 29 08 43 70 0F 01 03  2B 43 70 0F 01 47 80 23  .).Cp...+Cp..G.#
0AD0: 29 08 43 70 0F 01 04 52  04 80 F8 FF FF 7F F8 FF  ).Cp...R........
0AE0: FF 7F 73 30 32 38 45 04  80 F8 FF FF 7F F8 FF FF  ..s028E.........
0AF0: 7F 73 30 33 34 00 80 2B  43 70 0F 01 48 80 23 2B  .s034..+Cp..H.#+
0B00: 43 70 0F 01 49 80 23 52  04 80 F8 FF FF 7F F8 FF  Cp..I.#R........
0B10: FF 7F 73 30 33 34 01 31  0B 02 00 10 45 80 00 31  ..s034.1....E..1
0B20: 0B 03 01 10 4A 80 2B 43  70 0F 01 4B 80 23 01 31  ....J.+Cp..K.#.1
0B30: 0B 5D 00 80 01 80 45 02  80 F0 FF FF 7F F0 FF FF  .]....E.........
0B40: 7F 66 64 6F 31 00 80 1C  01 80 5C 00 29 80 5C 01  .fdo1.....\.).\.
0B50: 29 80 4E 00 F0 FF FF 7F  80 F0 FF FF 7F 46 00 45  ).N..........F.E
0B60: 02 80 F0 FF FF 7F F0 FF  FF 7F 66 64 69 31 00 80  ..........fdi1..
0B70: 20 00 21 00                                        .!.            
```

#### Opcodes

```
  0: 0x09A0 [0x20] SET_CLI_EVENT_UC_FLAG: Lock player control
  1: 0x09A2 [0x42] SET_CLI_EVENT_CANCEL_DATA()
  2: 0x09A3 [0x46] CAMERA_CONTROL: Disable user control
  3: 0x09A5 [0x5D] SET_MUSIC_VOLUME(volume=0*, fade_time=120*)
  4: 0x09AA [0x45] LOAD_SCHEDULED_TASK: Load scheduler "fdo1" with entities [EventEntity, EventEntity], work=[200*, 0*]
  5: 0x09BB [0x1C] WAIT(120* ticks)
  6: 0x09BE [0x38] SET_CLIENT_EVENT_MODE(mode=19*)
  7: 0x09C1 [0x29] REQ_SET_WAIT(priority=0x08, entity_id=LocalPlayer, tag_num=0x15)
  8: 0x09C8 [0x92] Zoriboh (ID: 17788995/0x010F7043)->Render.Flags3 ^= 0x01
  9: 0x09CE [0x29] REQ_SET_WAIT(priority=0x0B, entity_id=LocalPlayer, tag_num=0x13)
 10: 0x09D5 [0x4E] SET_ENTITY_HIDE_FLAG: Show Zoriboh (ID: 17788995/0x010F7043)
 11: 0x09DB [0x80] LOAD_WAIT(entity=Zoriboh (ID: 17788995/0x010F7043))
 12: 0x09E0 [0x5C] MUSIC_CONTROL: Set Idle (Day) music to song 127*
 13: 0x09E4 [0x5C] MUSIC_CONTROL: Set Idle (Night) music to song 127*
 14: 0x09E8 [0x4A] LocalPlayer looks at Zoriboh (ID: 17788995/0x010F7043)
 15: 0x09F1 [0x4A] Zoriboh (ID: 17788995/0x010F7043) looks at LocalPlayer
 16: 0x09FA [0x6F] WAIT_FRAME_DELAY: Yield until WaitTime reaches zero
 17: 0x09FB [0x76] CHECK_ENTITY_RENDER_FLAGS: Wait until LocalPlayer Render.Flags0 and Render.Flags3 conditions are met
 18: 0x0A00 [0x6F] WAIT_FRAME_DELAY: Yield until WaitTime reaches zero
 19: 0x0A01 [0x76] CHECK_ENTITY_RENDER_FLAGS: Wait until Zoriboh (ID: 17788995/0x010F7043) Render.Flags0 and Render.Flags3 conditions are met
 20: 0x0A06 [0x45] LOAD_SCHEDULED_TASK: Load scheduler "s027" with entities [EventEntity, EventEntity], work=[227*, 0*]
 21: 0x0A17 [0x45] LOAD_SCHEDULED_TASK: Load scheduler "fdi1" with entities [EventEntity, EventEntity], work=[200*, 0*]
 22: 0x0A28 [0x2B] Zoriboh (ID: 17788995/0x010F7043) [10523*]:
    → "<Player>, I need your help again."
 23: 0x0A2F [0x23] WAIT_FOR_DIALOG_INTERACTION
 24: 0x0A30 [0x2B] Zoriboh (ID: 17788995/0x010F7043) [10524*]:
    → "Sanctia hasn't come back from Tavnazia, and her father and I are worried."
 25: 0x0A37 [0x23] WAIT_FOR_DIALOG_INTERACTION
 26: 0x0A38 [0x52] END_LOAD_SCHEDULER: End scheduler "s027" with entities [EventEntity, EventEntity], work=227*
 27: 0x0A47 [0x45] LOAD_SCHEDULED_TASK: Load scheduler "s030" with entities [EventEntity, EventEntity], work=[227*, 0*]
 28: 0x0A58 [0x29] REQ_SET_WAIT(priority=0x08, entity_id=Zoriboh (ID: 17788995/0x010F7043), tag_num=0x05)
 29: 0x0A5F [0x2B] Zoriboh (ID: 17788995/0x010F7043) [10525*]:
    → "She must still be looking for Goldmane, the bounty hunter I told you about."
 30: 0x0A66 [0x23] WAIT_FOR_DIALOG_INTERACTION
 31: 0x0A67 [0x2B] Zoriboh (ID: 17788995/0x010F7043) [10526*]:
    → "I want you to follow Sanctia and keep her out of trouble until she either finds him or gives up on her search."
 32: 0x0A6E [0x23] WAIT_FOR_DIALOG_INTERACTION
 33: 0x0A6F [0x29] REQ_SET_WAIT(priority=0x08, entity_id=Zoriboh (ID: 17788995/0x010F7043), tag_num=0x06)
 34: 0x0A76 [0x52] END_LOAD_SCHEDULER: End scheduler "s030" with entities [EventEntity, EventEntity], work=227*
 35: 0x0A85 [0x24] CREATE_DIALOG(message_id=10527*, default_option=0*, option_flags=0*)
    → "What do you say? [I'll do it./I don't have time for babysitting.]"
 36: 0x0A8C [0x25] WAIT_DIALOG_SELECT()
 37: 0x0A8D [0x02] IF !(Work_Zone[0] == 0*) GOTO 0x0B19
 38: 0x0A95 [0x03] Work_Zone[1] = 1*
 39: 0x0A9A [0x45] LOAD_SCHEDULED_TASK: Load scheduler "s028" with entities [EventEntity, EventEntity], work=[227*, 0*]
 40: 0x0AAB [0x29] REQ_SET_WAIT(priority=0x08, entity_id=Zoriboh (ID: 17788995/0x010F7043), tag_num=0x07)
 41: 0x0AB2 [0x2B] Zoriboh (ID: 17788995/0x010F7043) [10528*]:
    → "I know she's a handful, but you'll be well paid for your efforts."
 42: 0x0AB9 [0x23] WAIT_FOR_DIALOG_INTERACTION
 43: 0x0ABA [0x29] REQ_SET_WAIT(priority=0x08, entity_id=Zoriboh (ID: 17788995/0x010F7043), tag_num=0x08)
 44: 0x0AC1 [0x29] REQ_SET_WAIT(priority=0x08, entity_id=Zoriboh (ID: 17788995/0x010F7043), tag_num=0x03)
 45: 0x0AC8 [0x2B] Zoriboh (ID: 17788995/0x010F7043) [10529*]:
    → "Oh, and give this to Sanctia when you find her."
 46: 0x0ACF [0x23] WAIT_FOR_DIALOG_INTERACTION
 47: 0x0AD0 [0x29] REQ_SET_WAIT(priority=0x08, entity_id=Zoriboh (ID: 17788995/0x010F7043), tag_num=0x04)
 48: 0x0AD7 [0x52] END_LOAD_SCHEDULER: End scheduler "s028" with entities [EventEntity, EventEntity], work=227*
 49: 0x0AE6 [0x45] LOAD_SCHEDULED_TASK: Load scheduler "s034" with entities [EventEntity, EventEntity], work=[227*, 0*]
 50: 0x0AF7 [0x2B] Zoriboh (ID: 17788995/0x010F7043) [10530*]:
    → "Chelvadurai wanted her to have it for her birthday."
 51: 0x0AFE [0x23] WAIT_FOR_DIALOG_INTERACTION
 52: 0x0AFF [0x2B] Zoriboh (ID: 17788995/0x010F7043) [10531*]:
    → "Bring her back safe."
 53: 0x0B06 [0x23] WAIT_FOR_DIALOG_INTERACTION
 54: 0x0B07 [0x52] END_LOAD_SCHEDULER: End scheduler "s034" with entities [EventEntity, EventEntity], work=227*
 55: 0x0B16 [0x01] GOTO 0x0B31
 56: 0x0B19 [0x02] IF !(Work_Zone[0] == 1*) GOTO 0x0B31
 57: 0x0B21 [0x03] Work_Zone[1] = 2*
 58: 0x0B26 [0x2B] Zoriboh (ID: 17788995/0x010F7043) [10532*]:
    → "Too busy with your adventures to help anyone, huh?"
 59: 0x0B2D [0x23] WAIT_FOR_DIALOG_INTERACTION
 60: 0x0B2E [0x01] GOTO 0x0B31

SUBROUTINE_0B31:
 61: 0x0B31 [0x5D] SET_MUSIC_VOLUME(volume=0*, fade_time=120*)
 62: 0x0B36 [0x45] LOAD_SCHEDULED_TASK: Load scheduler "fdo1" with entities [LocalPlayer, LocalPlayer], work=[200*, 0*]
 63: 0x0B47 [0x1C] WAIT(120* ticks)
 64: 0x0B4A [0x5C] MUSIC_CONTROL: Set Idle (Day) music to song 208*
 65: 0x0B4E [0x5C] MUSIC_CONTROL: Set Idle (Night) music to song 208*
 66: 0x0B52 [0x4E] SET_ENTITY_HIDE_FLAG: Show LocalPlayer
 67: 0x0B58 [0x80] LOAD_WAIT(entity=LocalPlayer)
 68: 0x0B5D [0x46] CAMERA_CONTROL: Restore default settings
 69: 0x0B5F [0x45] LOAD_SCHEDULED_TASK: Load scheduler "fdi1" with entities [LocalPlayer, LocalPlayer], work=[200*, 0*]
 70: 0x0B70 [0x20] SET_CLI_EVENT_UC_FLAG: Unlock player control
 71: 0x0B72 [0x21] END_EVENT
 72: 0x0B73 [0x00] END_REQSTACK()
```

### Event 128

#### Metadata

| Field        | Value     |
|--------------|-----------|
| Entrypoint   | 0x0B74    |
| Data Size    | 750 bytes |
| Instructions | 102       |

```
      00 01 02 03 04 05 06 07  08 09 0A 0B 0C 0D 0E 0F
      -- -- -- -- -- -- -- --  -- -- -- -- -- -- -- --
0B70:             20 01 42 46  01 5D 00 80 01 80 45 02       .BF.]....E.
0B80: 80 F8 FF FF 7F F8 FF FF  7F 66 64 6F 31 00 80 1C  .........fdo1...
0B90: 01 80 38 2A 80 29 08 F0  FF FF 7F 15 4E 00 45 70  ..8*.)......N.Ep
0BA0: 0F 01 80 45 70 0F 01 92  01 43 70 0F 01 29 0B F0  ...Ep....Cp..)..
0BB0: FF FF 7F 13 29 0B 45 70  0F 01 10 4E 00 43 70 0F  ....).Ep...N.Cp.
0BC0: 01 80 43 70 0F 01 4A F0  FF FF 7F 43 70 0F 01 4A  ..Cp..J....Cp..J
0BD0: 43 70 0F 01 F0 FF FF 7F  6F 76 F0 FF FF 7F 6F 76  Cp......ov....ov
0BE0: 43 70 0F 01 92 01 45 70  0F 01 5C 00 4C 80 5C 01  Cp....Ep..\.L.\.
0BF0: 4C 80 45 04 80 F8 FF FF  7F F8 FF FF 7F 73 30 32  L.E..........s02
0C00: 37 00 80 45 02 80 F8 FF  FF 7F F8 FF FF 7F 66 64  7..E..........fd
0C10: 69 31 00 80 29 08 43 70  0F 01 0D 2B 43 70 0F 01  i1..).Cp...+Cp..
0C20: 4D 80 23 29 08 43 70 0F  01 0E 52 04 80 F8 FF FF  M.#).Cp...R.....
0C30: 7F F8 FF FF 7F 73 30 32  37 45 02 80 F0 FF FF 7F  .....s027E......
0C40: F0 FF FF 7F 6F 76 6C 31  00 80 45 04 80 F8 FF FF  ....ovl1..E.....
0C50: 7F F8 FF FF 7F 73 30 32  38 00 80 29 08 43 70 0F  .....s028..).Cp.
0C60: 01 05 2B 43 70 0F 01 4E  80 23 29 08 43 70 0F 01  ..+Cp..N.#).Cp..
0C70: 06 29 08 43 70 0F 01 07  2B 43 70 0F 01 4F 80 23  .).Cp...+Cp..O.#
0C80: 29 08 43 70 0F 01 08 29  0B F0 FF FF 7F 17 79 00  ).Cp...)......y.
0C90: 43 70 0F 01 45 70 0F 01  1C 50 80 52 04 80 F8 FF  Cp..Ep...P.R....
0CA0: FF 7F F8 FF FF 7F 73 30  32 38 45 04 80 F8 FF FF  ......s028E.....
0CB0: 7F F8 FF FF 7F 73 30 33  35 00 80 4A F0 FF FF 7F  .....s035..J....
0CC0: 45 70 0F 01 27 0B 45 70  0F 01 11 2B 45 70 0F 01  Ep..'.Ep...+Ep..
0CD0: 51 80 23 2A 0B 45 70 0F  01 29 08 43 70 0F 01 01  Q.#*.Ep..).Cp...
0CE0: 2B 43 70 0F 01 52 80 23  29 08 43 70 0F 01 02 52  +Cp..R.#).Cp...R
0CF0: 04 80 F8 FF FF 7F F8 FF  FF 7F 73 30 33 35 45 04  ..........s035E.
0D00: 80 F8 FF FF 7F F8 FF FF  7F 73 30 33 36 00 80 4A  .........s036..J
0D10: F0 FF FF 7F 45 70 0F 01  29 08 45 70 0F 01 05 2B  ....Ep..).Ep...+
0D20: 45 70 0F 01 53 80 23 29  08 45 70 0F 01 06 29 08  Ep..S.#).Ep...).
0D30: 45 70 0F 01 07 2B 45 70  0F 01 54 80 23 29 08 45  Ep...+Ep..T.#).E
0D40: 70 0F 01 08 52 04 80 F8  FF FF 7F F8 FF FF 7F 73  p...R..........s
0D50: 30 33 36 45 04 80 F8 FF  FF 7F F8 FF FF 7F 73 30  036E..........s0
0D60: 33 38 00 80 2B 43 70 0F  01 55 80 23 29 08 45 70  38..+Cp..U.#).Ep
0D70: 0F 01 05 2B 45 70 0F 01  56 80 23 29 08 45 70 0F  ...+Ep..V.#).Ep.
0D80: 01 06 52 04 80 F8 FF FF  7F F8 FF FF 7F 73 30 33  ..R..........s03
0D90: 38 45 04 80 F8 FF FF 7F  F8 FF FF 7F 73 30 33 37  8E..........s037
0DA0: 00 80 4A 43 70 0F 01 F0  FF FF 7F 4A 45 70 0F 01  ..JCp......JEp..
0DB0: F0 FF FF 7F 4A F0 FF FF  7F 43 70 0F 01 2B 43 70  ....J....Cp..+Cp
0DC0: 0F 01 57 80 23 29 08 43  70 0F 01 03 29 08 43 70  ..W.#).Cp...).Cp
0DD0: 0F 01 04 52 04 80 F8 FF  FF 7F F8 FF FF 7F 73 30  ...R..........s0
0DE0: 33 37 45 04 80 F8 FF FF  7F F8 FF FF 7F 73 30 33  37E..........s03
0DF0: 39 00 80 79 00 43 70 0F  01 45 70 0F 01 4A F0 FF  9..y.Cp..Ep..J..
0E00: FF 7F 45 70 0F 01 2B 45  70 0F 01 58 80 23 5D 00  ..Ep..+Ep..X.#].
0E10: 80 01 80 45 02 80 F0 FF  FF 7F F0 FF FF 7F 66 64  ...E..........fd
0E20: 6F 31 00 80 1C 01 80 5C  00 29 80 5C 01 29 80 4E  o1.....\.).\.).N
0E30: 00 F0 FF FF 7F 80 F0 FF  FF 7F 45 3F 80 F0 FF FF  ..........E?....
0E40: 7F F0 FF FF 7F 71 73 74  63 00 80 46 00 45 02 80  .....qstc..F.E..
0E50: F0 FF FF 7F F0 FF FF 7F  66 64 69 31 00 80 20 00  ........fdi1.. .
0E60: 21 00                                             !.              
```

#### Opcodes

```
  0: 0x0B74 [0x20] SET_CLI_EVENT_UC_FLAG: Lock player control
  1: 0x0B76 [0x42] SET_CLI_EVENT_CANCEL_DATA()
  2: 0x0B77 [0x46] CAMERA_CONTROL: Disable user control
  3: 0x0B79 [0x5D] SET_MUSIC_VOLUME(volume=0*, fade_time=120*)
  4: 0x0B7E [0x45] LOAD_SCHEDULED_TASK: Load scheduler "fdo1" with entities [EventEntity, EventEntity], work=[200*, 0*]
  5: 0x0B8F [0x1C] WAIT(120* ticks)
  6: 0x0B92 [0x38] SET_CLIENT_EVENT_MODE(mode=19*)
  7: 0x0B95 [0x29] REQ_SET_WAIT(priority=0x08, entity_id=LocalPlayer, tag_num=0x15)
  8: 0x0B9C [0x4E] SET_ENTITY_HIDE_FLAG: Show Chelvadurai (ID: 17788997/0x010F7045)
  9: 0x0BA2 [0x80] LOAD_WAIT(entity=Chelvadurai (ID: 17788997/0x010F7045))
 10: 0x0BA7 [0x92] Zoriboh (ID: 17788995/0x010F7043)->Render.Flags3 ^= 0x01
 11: 0x0BAD [0x29] REQ_SET_WAIT(priority=0x0B, entity_id=LocalPlayer, tag_num=0x13)
 12: 0x0BB4 [0x29] REQ_SET_WAIT(priority=0x0B, entity_id=Chelvadurai (ID: 17788997/0x010F7045), tag_num=0x10)
 13: 0x0BBB [0x4E] SET_ENTITY_HIDE_FLAG: Show Zoriboh (ID: 17788995/0x010F7043)
 14: 0x0BC1 [0x80] LOAD_WAIT(entity=Zoriboh (ID: 17788995/0x010F7043))
 15: 0x0BC6 [0x4A] LocalPlayer looks at Zoriboh (ID: 17788995/0x010F7043)
 16: 0x0BCF [0x4A] Zoriboh (ID: 17788995/0x010F7043) looks at LocalPlayer
 17: 0x0BD8 [0x6F] WAIT_FRAME_DELAY: Yield until WaitTime reaches zero
 18: 0x0BD9 [0x76] CHECK_ENTITY_RENDER_FLAGS: Wait until LocalPlayer Render.Flags0 and Render.Flags3 conditions are met
 19: 0x0BDE [0x6F] WAIT_FRAME_DELAY: Yield until WaitTime reaches zero
 20: 0x0BDF [0x76] CHECK_ENTITY_RENDER_FLAGS: Wait until Zoriboh (ID: 17788995/0x010F7043) Render.Flags0 and Render.Flags3 conditions are met
 21: 0x0BE4 [0x92] Chelvadurai (ID: 17788997/0x010F7045)->Render.Flags3 ^= 0x01
 22: 0x0BEA [0x5C] MUSIC_CONTROL: Set Idle (Day) music to song 234*
 23: 0x0BEE [0x5C] MUSIC_CONTROL: Set Idle (Night) music to song 234*
 24: 0x0BF2 [0x45] LOAD_SCHEDULED_TASK: Load scheduler "s027" with entities [EventEntity, EventEntity], work=[227*, 0*]
 25: 0x0C03 [0x45] LOAD_SCHEDULED_TASK: Load scheduler "fdi1" with entities [EventEntity, EventEntity], work=[200*, 0*]
 26: 0x0C14 [0x29] REQ_SET_WAIT(priority=0x08, entity_id=Zoriboh (ID: 17788995/0x010F7043), tag_num=0x0D)
 27: 0x0C1B [0x2B] Zoriboh (ID: 17788995/0x010F7043) [10533*]:
    → "Little Sanctia has become an adventurer!?"
 28: 0x0C22 [0x23] WAIT_FOR_DIALOG_INTERACTION
 29: 0x0C23 [0x29] REQ_SET_WAIT(priority=0x08, entity_id=Zoriboh (ID: 17788995/0x010F7043), tag_num=0x0E)
 30: 0x0C2A [0x52] END_LOAD_SCHEDULER: End scheduler "s027" with entities [EventEntity, EventEntity], work=227*
 31: 0x0C39 [0x45] LOAD_SCHEDULED_TASK: Load scheduler "ovl1" with entities [LocalPlayer, LocalPlayer], work=[200*, 0*]
 32: 0x0C4A [0x45] LOAD_SCHEDULED_TASK: Load scheduler "s028" with entities [EventEntity, EventEntity], work=[227*, 0*]
 33: 0x0C5B [0x29] REQ_SET_WAIT(priority=0x08, entity_id=Zoriboh (ID: 17788995/0x010F7043), tag_num=0x05)
 34: 0x0C62 [0x2B] Zoriboh (ID: 17788995/0x010F7043) [10534*]:
    → "So Goldmane convinced her that was the best path... Well, he'd be about the only person she'd listen to."
 35: 0x0C69 [0x23] WAIT_FOR_DIALOG_INTERACTION
 36: 0x0C6A [0x29] REQ_SET_WAIT(priority=0x08, entity_id=Zoriboh (ID: 17788995/0x010F7043), tag_num=0x06)
 37: 0x0C71 [0x29] REQ_SET_WAIT(priority=0x08, entity_id=Zoriboh (ID: 17788995/0x010F7043), tag_num=0x07)
 38: 0x0C78 [0x2B] Zoriboh (ID: 17788995/0x010F7043) [10535*]:
    → "By the way, did you remember to give Sanctia the package from her father?"
 39: 0x0C7F [0x23] WAIT_FOR_DIALOG_INTERACTION
 40: 0x0C80 [0x29] REQ_SET_WAIT(priority=0x08, entity_id=Zoriboh (ID: 17788995/0x010F7043), tag_num=0x08)
 41: 0x0C87 [0x29] REQ_SET_WAIT(priority=0x0B, entity_id=LocalPlayer, tag_num=0x17)
 42: 0x0C8E [0x79] Zoriboh (ID: 17788995/0x010F7043) looks at Chelvadurai (ID: 17788997/0x010F7045) (Basic look)
 43: 0x0C98 [0x1C] WAIT(40* ticks)
 44: 0x0C9B [0x52] END_LOAD_SCHEDULER: End scheduler "s028" with entities [EventEntity, EventEntity], work=227*
 45: 0x0CAA [0x45] LOAD_SCHEDULED_TASK: Load scheduler "s035" with entities [EventEntity, EventEntity], work=[227*, 0*]
 46: 0x0CBB [0x4A] LocalPlayer looks at Chelvadurai (ID: 17788997/0x010F7045)
 47: 0x0CC4 [0x27] REQ_SET(priority=0x0B, entity_id=Chelvadurai (ID: 17788997/0x010F7045), tag_num=0x11)
 48: 0x0CCB [0x2B] Chelvadurai (ID: 17788997/0x010F7045) [10536*]:
    → "Mister Zoriboh!"
 49: 0x0CD2 [0x23] WAIT_FOR_DIALOG_INTERACTION
 50: 0x0CD3 [0x2A] GET_REQ_LEVEL(level=11, entity_id=Chelvadurai (ID: 17788997/0x010F7045))
 51: 0x0CD9 [0x29] REQ_SET_WAIT(priority=0x08, entity_id=Zoriboh (ID: 17788995/0x010F7043), tag_num=0x01)
 52: 0x0CE0 [0x2B] Zoriboh (ID: 17788995/0x010F7043) [10537*]:
    → "Chelvadurai, we were just talking about you. The adventurer we hired has returned. Now, about Sanctia..."
 53: 0x0CE7 [0x23] WAIT_FOR_DIALOG_INTERACTION
 54: 0x0CE8 [0x29] REQ_SET_WAIT(priority=0x08, entity_id=Zoriboh (ID: 17788995/0x010F7043), tag_num=0x02)
 55: 0x0CEF [0x52] END_LOAD_SCHEDULER: End scheduler "s035" with entities [EventEntity, EventEntity], work=227*
 56: 0x0CFE [0x45] LOAD_SCHEDULED_TASK: Load scheduler "s036" with entities [EventEntity, EventEntity], work=[227*, 0*]
 57: 0x0D0F [0x4A] LocalPlayer looks at Chelvadurai (ID: 17788997/0x010F7045)
 58: 0x0D18 [0x29] REQ_SET_WAIT(priority=0x08, entity_id=Chelvadurai (ID: 17788997/0x010F7045), tag_num=0x05)
 59: 0x0D1F [0x2B] Chelvadurai (ID: 17788997/0x010F7045) [10538*]:
    → "She's become an adventurer! And this package is for me...?"
 60: 0x0D26 [0x23] WAIT_FOR_DIALOG_INTERACTION
 61: 0x0D27 [0x29] REQ_SET_WAIT(priority=0x08, entity_id=Chelvadurai (ID: 17788997/0x010F7045), tag_num=0x06)
 62: 0x0D2E [0x29] REQ_SET_WAIT(priority=0x08, entity_id=Chelvadurai (ID: 17788997/0x010F7045), tag_num=0x07)
 63: 0x0D35 [0x2B] Chelvadurai (ID: 17788997/0x010F7045) [10539*]:
    → "There's a letter inside. Sanctia says that she'll send more money from her adventures so that I can pay back my loans and go back to my wife..."
 64: 0x0D3C [0x23] WAIT_FOR_DIALOG_INTERACTION
 65: 0x0D3D [0x29] REQ_SET_WAIT(priority=0x08, entity_id=Chelvadurai (ID: 17788997/0x010F7045), tag_num=0x08)
 66: 0x0D44 [0x52] END_LOAD_SCHEDULER: End scheduler "s036" with entities [EventEntity, EventEntity], work=227*
 67: 0x0D53 [0x45] LOAD_SCHEDULED_TASK: Load scheduler "s038" with entities [EventEntity, EventEntity], work=[227*, 0*]
 68: 0x0D64 [0x2B] Zoriboh (ID: 17788995/0x010F7043) [10540*]:
    → "She's a good kid. Time for you to pull up your bootstraps and follow her example."
 69: 0x0D6B [0x23] WAIT_FOR_DIALOG_INTERACTION
 70: 0x0D6C [0x29] REQ_SET_WAIT(priority=0x08, entity_id=Chelvadurai (ID: 17788997/0x010F7045), tag_num=0x05)
 71: 0x0D73 [0x2B] Chelvadurai (ID: 17788997/0x010F7045) [10541*]:
    → "I intend to do just that, Mister Zoriboh."
 72: 0x0D7A [0x23] WAIT_FOR_DIALOG_INTERACTION
 73: 0x0D7B [0x29] REQ_SET_WAIT(priority=0x08, entity_id=Chelvadurai (ID: 17788997/0x010F7045), tag_num=0x06)
 74: 0x0D82 [0x52] END_LOAD_SCHEDULER: End scheduler "s038" with entities [EventEntity, EventEntity], work=227*
 75: 0x0D91 [0x45] LOAD_SCHEDULED_TASK: Load scheduler "s037" with entities [EventEntity, EventEntity], work=[227*, 0*]
 76: 0x0DA2 [0x4A] Zoriboh (ID: 17788995/0x010F7043) looks at LocalPlayer
 77: 0x0DAB [0x4A] Chelvadurai (ID: 17788997/0x010F7045) looks at LocalPlayer
 78: 0x0DB4 [0x4A] LocalPlayer looks at Zoriboh (ID: 17788995/0x010F7043)
 79: 0x0DBD [0x2B] Zoriboh (ID: 17788995/0x010F7043) [10542*]:
    → "Thanks for all your help, <Player>. It's not much, but here's a little something from me."
 80: 0x0DC4 [0x23] WAIT_FOR_DIALOG_INTERACTION
 81: 0x0DC5 [0x29] REQ_SET_WAIT(priority=0x08, entity_id=Zoriboh (ID: 17788995/0x010F7043), tag_num=0x03)
 82: 0x0DCC [0x29] REQ_SET_WAIT(priority=0x08, entity_id=Zoriboh (ID: 17788995/0x010F7043), tag_num=0x04)
 83: 0x0DD3 [0x52] END_LOAD_SCHEDULER: End scheduler "s037" with entities [EventEntity, EventEntity], work=227*
 84: 0x0DE2 [0x45] LOAD_SCHEDULED_TASK: Load scheduler "s039" with entities [EventEntity, EventEntity], work=[227*, 0*]
 85: 0x0DF3 [0x79] Zoriboh (ID: 17788995/0x010F7043) looks at Chelvadurai (ID: 17788997/0x010F7045) (Basic look)
 86: 0x0DFD [0x4A] LocalPlayer looks at Chelvadurai (ID: 17788997/0x010F7045)
 87: 0x0E06 [0x2B] Chelvadurai (ID: 17788997/0x010F7045) [10544*]:
    → "I'll never let her down again. If Sanctia grows weary of her new life, you tell her she always has a place here with me."
 88: 0x0E0D [0x23] WAIT_FOR_DIALOG_INTERACTION
 89: 0x0E0E [0x5D] SET_MUSIC_VOLUME(volume=0*, fade_time=120*)
 90: 0x0E13 [0x45] LOAD_SCHEDULED_TASK: Load scheduler "fdo1" with entities [LocalPlayer, LocalPlayer], work=[200*, 0*]
 91: 0x0E24 [0x1C] WAIT(120* ticks)
 92: 0x0E27 [0x5C] MUSIC_CONTROL: Set Idle (Day) music to song 208*
 93: 0x0E2B [0x5C] MUSIC_CONTROL: Set Idle (Night) music to song 208*
 94: 0x0E2F [0x4E] SET_ENTITY_HIDE_FLAG: Show LocalPlayer
 95: 0x0E35 [0x80] LOAD_WAIT(entity=LocalPlayer)
 96: 0x0E3A [0x45] LOAD_SCHEDULED_TASK: Load scheduler "qstc" with entities [LocalPlayer, LocalPlayer], work=[201*, 0*]
 97: 0x0E4B [0x46] CAMERA_CONTROL: Restore default settings
 98: 0x0E4D [0x45] LOAD_SCHEDULED_TASK: Load scheduler "fdi1" with entities [LocalPlayer, LocalPlayer], work=[200*, 0*]
 99: 0x0E5E [0x20] SET_CLI_EVENT_UC_FLAG: Unlock player control
100: 0x0E60 [0x21] END_EVENT
101: 0x0E61 [0x00] END_REQSTACK()
```
