# 17789019

## Common Data

| Field            | Value           |
|------------------|-----------------|
| Zone             | Rabao (ID: 247) |
| Block Size       | 10868 bytes     |
| Total Events     | 13              |
| References Count | 237             |

## List of Events

| Event ID              | Entrypoint   |   Size |   Instructions |
|-----------------------|--------------|--------|----------------|
| [65535](#event-65535) | 0x0000       |    658 |             62 |
| [162](#event-162)     | 0x0292       |   2659 |            387 |
| [165](#event-165)     | 0x0CF5       |   3032 |            457 |
| [169](#event-169)     | 0x18CD       |    121 |             24 |
| [170](#event-170)     | 0x1946       |     68 |             15 |
| [163](#event-163)     | 0x198A       |    707 |            147 |
| [164](#event-164)     | 0x1C4D       |     71 |             16 |
| [166](#event-166)     | 0x1C94       |     85 |             19 |
| [167](#event-167)     | 0x1CE9       |    209 |             44 |
| [168](#event-168)     | 0x1DBA       |     73 |             18 |
| [160](#event-160)     | 0x1E03       |    188 |             41 |
| [161](#event-161)     | 0x1EBF       |     73 |             18 |
| [151](#event-151)     | 0x1F08       |   1907 |            250 |

## DAT References (imed_data)

|   Index | Hex Value   |   Dec Value |
|---------|-------------|-------------|
|       0 | 0x00C8      |         200 |
|       1 | 0x0000      |           0 |
|       2 | 0x00C9      |         201 |
|       3 | 0x0001      |           1 |
|       4 | 0x002D      |          45 |
|       5 | 0x0002      |           2 |
|       6 | 0x001E      |          30 |
|       7 | 0x00D7      |         215 |
|       8 | 0x001B      |          27 |
|       9 | 0x1084      |        4228 |
|      10 | 0xE455      |       58453 |
|      11 | 0x23A0      |        9120 |
|      12 | 0x047D      |        1149 |
|      13 | 0x006A      |         106 |
|      14 | 0x007F      |         127 |
|      15 | 0x187D      |        6269 |
|      16 | 0xD799      |       55193 |
|      17 | 0x2726      |       10022 |
|      18 | 0x0A6C      |        2668 |
|      19 | 0x152E      |        5422 |
|      20 | 0xD0D4      |       53460 |
|      21 | 0x27CB      |       10187 |
|      22 | 0x0BD5      |        3029 |
|      23 | 0x02C7      |         711 |
|      24 | 0x000F      |          15 |
|      25 | 0x215D      |        8541 |
|      26 | 0xC116      |       49430 |
|      27 | 0x260E      |        9742 |
|      28 | 0x0B47      |        2887 |
|      29 | 0x1F44      |        8004 |
|      30 | 0xBBA7      |       48039 |
|      31 | 0x2565      |        9573 |
|      32 | 0x0B29      |        2857 |
|      33 | 0x2DDA      |       11738 |
|      34 | 0x2DDB      |       11739 |
|      35 | 0x0005      |           5 |
|      36 | 0x0006      |           6 |
|      37 | 0x0014      |          20 |
|      38 | 0x0007      |           7 |
|      39 | 0x0050      |          80 |
|      40 | 0x2DDC      |       11740 |
|      41 | 0x2DDD      |       11741 |
|      42 | 0x2DDE      |       11742 |
|      43 | 0x2DDF      |       11743 |
|      44 | 0x2DE0      |       11744 |
|      45 | 0x001F      |          31 |
|      46 | 0x00F0      |         240 |
|      47 | 0x01E0      |         480 |
|      48 | 0x0080      |         128 |
|      49 | 0x2DE1      |       11745 |
|      50 | 0x0028      |          40 |
|      51 | 0x2DE2      |       11746 |
|      52 | 0x2DE3      |       11747 |
|      53 | 0x0025      |          37 |
|      54 | 0x2DE4      |       11748 |
|      55 | 0x2DE5      |       11749 |
|      56 | 0x2DE6      |       11750 |
|      57 | 0x2DE7      |       11751 |
|      58 | 0x2DE8      |       11752 |
|      59 | 0x2DE9      |       11753 |
|      60 | 0x2DEA      |       11754 |
|      61 | 0x0003      |           3 |
|      62 | 0x0004      |           4 |
|      63 | 0x0008      |           8 |
|      64 | 0x2DEB      |       11755 |
|      65 | 0x2DED      |       11757 |
|      66 | 0x2DEE      |       11758 |
|      67 | 0x0046      |          70 |
|      68 | 0x2DEF      |       11759 |
|      69 | 0x2DF0      |       11760 |
|      70 | 0x2DF1      |       11761 |
|      71 | 0x2DF2      |       11762 |
|      72 | 0x0096      |         150 |
|      73 | 0x2DF3      |       11763 |
|      74 | 0x2DF4      |       11764 |
|      75 | 0x0024      |          36 |
|      76 | 0x006E      |         110 |
|      77 | 0x2DF5      |       11765 |
|      78 | 0x000A      |          10 |
|      79 | 0x00D0      |         208 |
|      80 | 0x2DF6      |       11766 |
|      81 | 0x002B      |          43 |
|      82 | 0x2DF7      |       11767 |
|      83 | 0x0032      |          50 |
|      84 | 0x2DF8      |       11768 |
|      85 | 0x2DF9      |       11769 |
|      86 | 0x2DEC      |       11756 |
|      87 | 0x18E6      |        6374 |
|      88 | 0x10D1      |        4305 |
|      89 | 0x18E3      |        6371 |
|      90 | 0x1414      |        5140 |
|      91 | 0x155C      |        5468 |
|      92 | 0x1166      |        4454 |
|      93 | 0x18E7      |        6375 |
|      94 | 0x116F      |        4463 |
|      95 | 0x18E4      |        6372 |
|      96 | 0x1653      |        5715 |
|      97 | 0x2E21      |       11809 |
|      98 | 0x2E22      |       11810 |
|      99 | 0x2E23      |       11811 |
|     100 | 0x2E24      |       11812 |
|     101 | 0x0A61      |        2657 |
|     102 | 0x09E6      |        2534 |
|     103 | 0x2E25      |       11813 |
|     104 | 0x2E26      |       11814 |
|     105 | 0x0023      |          35 |
|     106 | 0x0078      |         120 |
|     107 | 0x2E27      |       11815 |
|     108 | 0x2E28      |       11816 |
|     109 | 0x2E29      |       11817 |
|     110 | 0x2E2A      |       11818 |
|     111 | 0x2E2B      |       11819 |
|     112 | 0x2E2C      |       11820 |
|     113 | 0x2E2D      |       11821 |
|     114 | 0x00CE      |         206 |
|     115 | 0x2E2E      |       11822 |
|     116 | 0x0017      |          23 |
|     117 | 0x00A0      |         160 |
|     118 | 0x2E34      |       11828 |
|     119 | 0x2E35      |       11829 |
|     120 | 0x2E36      |       11830 |
|     121 | 0x2E37      |       11831 |
|     122 | 0x2E38      |       11832 |
|     123 | 0x2E39      |       11833 |
|     124 | 0x2E3A      |       11834 |
|     125 | 0x2E3B      |       11835 |
|     126 | 0x2E3C      |       11836 |
|     127 | 0x00D2      |         210 |
|     128 | 0x005A      |          90 |
|     129 | 0x2E3D      |       11837 |
|     130 | 0x2E3E      |       11838 |
|     131 | 0x2E3F      |       11839 |
|     132 | 0x2E40      |       11840 |
|     133 | 0x4273      |       17011 |
|     134 | 0x003C      |          60 |
|     135 | 0x2E42      |       11842 |
|     136 | 0x001D      |          29 |
|     137 | 0x004E      |          78 |
|     138 | 0x2E2F      |       11823 |
|     139 | 0x2E32      |       11826 |
|     140 | 0x2E33      |       11827 |
|     141 | 0x2E31      |       11825 |
|     142 | 0x2E30      |       11824 |
|     143 | 0x4B79      |       19321 |
|     144 | 0x1002      |        4098 |
|     145 | 0x2E43      |       11843 |
|     146 | 0x2E44      |       11844 |
|     147 | 0x2E41      |       11841 |
|     148 | 0x2DFA      |       11770 |
|     149 | 0x2DFB      |       11771 |
|     150 | 0x2E1D      |       11805 |
|     151 | 0x2E1E      |       11806 |
|     152 | 0x2DFC      |       11772 |
|     153 | 0x2DFD      |       11773 |
|     154 | 0x2DFE      |       11774 |
|     155 | 0x2DFF      |       11775 |
|     156 | 0x2E00      |       11776 |
|     157 | 0x2E01      |       11777 |
|     158 | 0x2E02      |       11778 |
|     159 | 0x2E03      |       11779 |
|     160 | 0x2E04      |       11780 |
|     161 | 0x2E05      |       11781 |
|     162 | 0x2E06      |       11782 |
|     163 | 0x2E07      |       11783 |
|     164 | 0x2E08      |       11784 |
|     165 | 0x2E09      |       11785 |
|     166 | 0x2E0A      |       11786 |
|     167 | 0x2E0B      |       11787 |
|     168 | 0x2E0C      |       11788 |
|     169 | 0x2E0D      |       11789 |
|     170 | 0x2E0E      |       11790 |
|     171 | 0x15A4      |        5540 |
|     172 | 0x15A1      |        5537 |
|     173 | 0x15A3      |        5539 |
|     174 | 0x15A2      |        5538 |
|     175 | 0x2E0F      |       11791 |
|     176 | 0x2E10      |       11792 |
|     177 | 0x2E11      |       11793 |
|     178 | 0x2E12      |       11794 |
|     179 | 0x2E13      |       11795 |
|     180 | 0x2E14      |       11796 |
|     181 | 0x2E15      |       11797 |
|     182 | 0x2E16      |       11798 |
|     183 | 0x2E17      |       11799 |
|     184 | 0x2E18      |       11800 |
|     185 | 0x2E19      |       11801 |
|     186 | 0x2E1A      |       11802 |
|     187 | 0x2E1B      |       11803 |
|     188 | 0x2E1C      |       11804 |
|     189 | 0x2E1F      |       11807 |
|     190 | 0x2E20      |       11808 |
|     191 | 0x2E46      |       11846 |
|     192 | 0x2E47      |       11847 |
|     193 | 0x2E48      |       11848 |
|     194 | 0x2E49      |       11849 |
|     195 | 0x2E4A      |       11850 |
|     196 | 0x2E4B      |       11851 |
|     197 | 0x2E4C      |       11852 |
|     198 | 0x2E4E      |       11854 |
|     199 | 0x2E4F      |       11855 |
|     200 | 0x2E50      |       11856 |
|     201 | 0x2E4D      |       11853 |
|     202 | 0x4A55      |       19029 |
|     203 | 0x0397      |         919 |
|     204 | 0x1F40      |        8000 |
|     205 | 0x0B1E      |        2846 |
|     206 | 0x02BD      |         701 |
|     207 | 0x2DBD      |       11709 |
|     208 | 0x2DBE      |       11710 |
|     209 | 0x0A36      |        2614 |
|     210 | 0x2DBF      |       11711 |
|     211 | 0x2DC0      |       11712 |
|     212 | 0x2DC1      |       11713 |
|     213 | 0x2DC2      |       11714 |
|     214 | 0x0099      |         153 |
|     215 | 0x2DC3      |       11715 |
|     216 | 0x0262      |         610 |
|     217 | 0x0022      |          34 |
|     218 | 0x0015      |          21 |
|     219 | 0x2DC4      |       11716 |
|     220 | 0x2DC5      |       11717 |
|     221 | 0x2DC6      |       11718 |
|     222 | 0x2DC7      |       11719 |
|     223 | 0x2DC8      |       11720 |
|     224 | 0x2DC9      |       11721 |
|     225 | 0x2DCA      |       11722 |
|     226 | 0x2DCB      |       11723 |
|     227 | 0x2DCC      |       11724 |
|     228 | 0x00FA      |         250 |
|     229 | 0x2DCD      |       11725 |
|     230 | 0x0196      |         406 |
|     231 | 0x1AD5      |        6869 |
|     232 | 0x2DCE      |       11726 |
|     233 | 0x2DCF      |       11727 |
|     234 | 0x2DD0      |       11728 |
|     235 | 0x2DD1      |       11729 |
|     236 | 0x2DD2      |       11730 |

## String References

- **6869**: @@
- **11712**: How do you respond? [That's right./You couldn't be more wrong.]
- **11755**: How do you respond? [It's on!/I'm not interested.]
- **11771**: Which tale would you like to hear? [None of the above./The Dragon's Tabernacle./The Quicksilver Blade./The Matsya./The Phantom Serpent./The Lord of Ulbuka.]
- **11850**: How do you respond? [I, uh...lost it./What's this, now?]

## Events

### Event 65535

#### Metadata

| Field        | Value     |
|--------------|-----------|
| Entrypoint   | 0x0000    |
| Data Size    | 658 bytes |
| Instructions | 1         |

```
      00 01 02 03 04 05 06 07  08 09 0A 0B 0C 0D 0E 0F
      -- -- -- -- -- -- -- --  -- -- -- -- -- -- -- --
0000: 00 45 00 80 F0 FF FF 7F  F0 FF FF 7F 66 64 69 30  .E..........fdi0
0010: 01 80 55 00 80 F0 FF FF  7F F0 FF FF 7F 66 64 69  ..U..........fdi
0020: 30 1B 45 00 80 F0 FF FF  7F F0 FF FF 7F 66 64 6F  0.E..........fdo
0030: 30 01 80 55 00 80 F0 FF  FF 7F F0 FF FF 7F 66 64  0..U..........fd
0040: 6F 30 1B 45 00 80 F0 FF  FF 7F F0 FF FF 7F 66 64  o0.E..........fd
0050: 69 31 01 80 55 00 80 F0  FF FF 7F F0 FF FF 7F 66  i1..U..........f
0060: 64 69 31 1B 45 00 80 F0  FF FF 7F F0 FF FF 7F 66  di1.E..........f
0070: 64 6F 31 01 80 55 00 80  F0 FF FF 7F F0 FF FF 7F  do1..U..........
0080: 66 64 6F 31 1B 45 02 80  F0 FF FF 7F F0 FF FF 7F  fdo1.E..........
0090: 77 68 69 31 01 80 55 02  80 F0 FF FF 7F F0 FF FF  whi1..U.........
00A0: 7F 77 68 69 31 1B 45 02  80 F0 FF FF 7F F0 FF FF  .whi1.E.........
00B0: 7F 77 68 6F 31 01 80 55  02 80 F0 FF FF 7F F0 FF  .who1..U........
00C0: FF 7F 77 68 6F 31 1B 45  02 80 F0 FF FF 7F F0 FF  ..who1.E........
00D0: FF 7F 77 68 6F 32 01 80  55 02 80 F0 FF FF 7F F0  ..who2..U.......
00E0: FF FF 7F 77 68 6F 32 1B  45 02 80 F0 FF FF 7F F0  ...who2.E.......
00F0: FF FF 7F 77 68 6F 33 01  80 55 02 80 F0 FF FF 7F  ...who3..U......
0100: F0 FF FF 7F 77 68 6F 33  1B 62 03 80 F0 FF FF 7F  ....who3.b......
0110: F0 FF FF 7F 6D 61 69 6E  01 80 1C 04 80 45 00 80  ....main.....E..
0120: F0 FF FF 7F F0 FF FF 7F  66 64 6F 31 01 80 55 00  ........fdo1..U.
0130: 80 F0 FF FF 7F F0 FF FF  7F 66 64 6F 31 1B 45 00  .........fdo1.E.
0140: 80 F0 FF FF 7F F0 FF FF  7F 66 64 69 31 01 80 62  .........fdi1..b
0150: 05 80 F0 FF FF 7F F0 FF  FF 7F 6D 61 69 6E 01 80  ..........main..
0160: 1C 06 80 55 00 80 F0 FF  FF 7F F0 FF FF 7F 66 64  ...U..........fd
0170: 69 31 1B 45 00 80 F0 FF  FF 7F F0 FF FF 7F 62 6C  i1.E..........bl
0180: 6F 6E 01 80 45 02 80 F0  FF FF 7F F0 FF FF 7F 62  on..E..........b
0190: 6C 6F 6E 01 80 1B 45 02  80 F0 FF FF 7F F0 FF FF  lon...E.........
01A0: 7F 77 68 69 30 01 80 55  02 80 F0 FF FF 7F F0 FF  .whi0..U........
01B0: FF 7F 77 68 69 30 1B 45  02 80 F0 FF FF 7F F0 FF  ..whi0.E........
01C0: FF 7F 77 68 6F 30 01 80  55 02 80 F0 FF FF 7F F0  ..who0..U.......
01D0: FF FF 7F 77 68 6F 30 1B  45 07 80 F0 FF FF 7F F0  ...who0.E.......
01E0: FF FF 7F 65 66 6F 6E 01  80 55 07 80 F0 FF FF 7F  ...efon..U......
01F0: F0 FF FF 7F 65 66 6F 6E  1B 45 00 80 F0 FF FF 7F  ....efon.E......
0200: F0 FF FF 7F 66 64 69 73  01 80 1B 45 00 80 F0 FF  ....fdis...E....
0210: FF 7F F0 FF FF 7F 66 64  6F 73 01 80 55 00 80 F0  ......fdos..U...
0220: FF FF 7F F0 FF FF 7F 66  64 6F 73 1B 45 00 80 F0  .......fdos.E...
0230: FF FF 7F F0 FF FF 7F 66  64 69 66 01 80 1B 45 00  .......fdif...E.
0240: 80 F0 FF FF 7F F0 FF FF  7F 66 64 6F 66 01 80 55  .........fdof..U
0250: 00 80 F0 FF FF 7F F0 FF  FF 7F 66 64 6F 66 1B 45  ..........fdof.E
0260: 00 80 F0 FF FF 7F F0 FF  FF 7F 66 64 69 70 01 80  ..........fdip..
0270: 1B 45 00 80 F0 FF FF 7F  F0 FF FF 7F 66 64 6F 70  .E..........fdop
0280: 01 80 55 00 80 F0 FF FF  7F F0 FF FF 7F 66 64 6F  ..U..........fdo
0290: 70 1B                                             p.              
```

#### Opcodes

```
  0: 0x0000 [0x00] END_REQSTACK()
```

#### Data or dead code:

```
# Dead code (unreachable instructions):
     0x0001 [0x45] LOAD_SCHEDULED_TASK: Load scheduler "fdi0" with entities [LocalPlayer, LocalPlayer], work=[200*, 0*]
     0x0012 [0x55] WAIT_LOAD_SCHEDULER: Wait for scheduler "fdi0" with entities [LocalPlayer, LocalPlayer], work=200*
     0x0021 [0x1B] RETURN
     0x0022 [0x45] LOAD_SCHEDULED_TASK: Load scheduler "fdo0" with entities [LocalPlayer, LocalPlayer], work=[200*, 0*]
     0x0033 [0x55] WAIT_LOAD_SCHEDULER: Wait for scheduler "fdo0" with entities [LocalPlayer, LocalPlayer], work=200*
     0x0042 [0x1B] RETURN
     0x0043 [0x45] LOAD_SCHEDULED_TASK: Load scheduler "fdi1" with entities [LocalPlayer, LocalPlayer], work=[200*, 0*]
     0x0054 [0x55] WAIT_LOAD_SCHEDULER: Wait for scheduler "fdi1" with entities [LocalPlayer, LocalPlayer], work=200*
     0x0063 [0x1B] RETURN
     0x0064 [0x45] LOAD_SCHEDULED_TASK: Load scheduler "fdo1" with entities [LocalPlayer, LocalPlayer], work=[200*, 0*]
     0x0075 [0x55] WAIT_LOAD_SCHEDULER: Wait for scheduler "fdo1" with entities [LocalPlayer, LocalPlayer], work=200*
     0x0084 [0x1B] RETURN
     0x0085 [0x45] LOAD_SCHEDULED_TASK: Load scheduler "whi1" with entities [LocalPlayer, LocalPlayer], work=[201*, 0*]
     0x0096 [0x55] WAIT_LOAD_SCHEDULER: Wait for scheduler "whi1" with entities [LocalPlayer, LocalPlayer], work=201*
     0x00A5 [0x1B] RETURN
     0x00A6 [0x45] LOAD_SCHEDULED_TASK: Load scheduler "who1" with entities [LocalPlayer, LocalPlayer], work=[201*, 0*]
     0x00B7 [0x55] WAIT_LOAD_SCHEDULER: Wait for scheduler "who1" with entities [LocalPlayer, LocalPlayer], work=201*
     0x00C6 [0x1B] RETURN
     0x00C7 [0x45] LOAD_SCHEDULED_TASK: Load scheduler "who2" with entities [LocalPlayer, LocalPlayer], work=[201*, 0*]
     0x00D8 [0x55] WAIT_LOAD_SCHEDULER: Wait for scheduler "who2" with entities [LocalPlayer, LocalPlayer], work=201*
     0x00E7 [0x1B] RETURN
     0x00E8 [0x45] LOAD_SCHEDULED_TASK: Load scheduler "who3" with entities [LocalPlayer, LocalPlayer], work=[201*, 0*]
     0x00F9 [0x55] WAIT_LOAD_SCHEDULER: Wait for scheduler "who3" with entities [LocalPlayer, LocalPlayer], work=201*
     0x0108 [0x1B] RETURN
     0x0109 [0x62] LOAD_EVENT_SCHEDULER: Load scheduler "main" with entities [LocalPlayer, LocalPlayer], work=[1*, 0*]
     0x011A [0x1C] WAIT(45* ticks)
     0x011D [0x45] LOAD_SCHEDULED_TASK: Load scheduler "fdo1" with entities [LocalPlayer, LocalPlayer], work=[200*, 0*]
     0x012E [0x55] WAIT_LOAD_SCHEDULER: Wait for scheduler "fdo1" with entities [LocalPlayer, LocalPlayer], work=200*
     0x013D [0x1B] RETURN
     0x013E [0x45] LOAD_SCHEDULED_TASK: Load scheduler "fdi1" with entities [LocalPlayer, LocalPlayer], work=[200*, 0*]
     0x014F [0x62] LOAD_EVENT_SCHEDULER: Load scheduler "main" with entities [LocalPlayer, LocalPlayer], work=[2*, 0*]
     0x0160 [0x1C] WAIT(30* ticks)
     0x0163 [0x55] WAIT_LOAD_SCHEDULER: Wait for scheduler "fdi1" with entities [LocalPlayer, LocalPlayer], work=200*
     0x0172 [0x1B] RETURN
     0x0173 [0x45] LOAD_SCHEDULED_TASK: Load scheduler "blon" with entities [LocalPlayer, LocalPlayer], work=[200*, 0*]
     0x0184 [0x45] LOAD_SCHEDULED_TASK: Load scheduler "blon" with entities [LocalPlayer, LocalPlayer], work=[201*, 0*]
     0x0195 [0x1B] RETURN
     0x0196 [0x45] LOAD_SCHEDULED_TASK: Load scheduler "whi0" with entities [LocalPlayer, LocalPlayer], work=[201*, 0*]
     0x01A7 [0x55] WAIT_LOAD_SCHEDULER: Wait for scheduler "whi0" with entities [LocalPlayer, LocalPlayer], work=201*
     0x01B6 [0x1B] RETURN
     0x01B7 [0x45] LOAD_SCHEDULED_TASK: Load scheduler "who0" with entities [LocalPlayer, LocalPlayer], work=[201*, 0*]
     0x01C8 [0x55] WAIT_LOAD_SCHEDULER: Wait for scheduler "who0" with entities [LocalPlayer, LocalPlayer], work=201*
     0x01D7 [0x1B] RETURN
     0x01D8 [0x45] LOAD_SCHEDULED_TASK: Load scheduler "efon" with entities [LocalPlayer, LocalPlayer], work=[215*, 0*]
     0x01E9 [0x55] WAIT_LOAD_SCHEDULER: Wait for scheduler "efon" with entities [LocalPlayer, LocalPlayer], work=215*
     0x01F8 [0x1B] RETURN
     0x01F9 [0x45] LOAD_SCHEDULED_TASK: Load scheduler "fdis" with entities [LocalPlayer, LocalPlayer], work=[200*, 0*]
     0x020A [0x1B] RETURN
     0x020B [0x45] LOAD_SCHEDULED_TASK: Load scheduler "fdos" with entities [LocalPlayer, LocalPlayer], work=[200*, 0*]
     0x021C [0x55] WAIT_LOAD_SCHEDULER: Wait for scheduler "fdos" with entities [LocalPlayer, LocalPlayer], work=200*
     0x022B [0x1B] RETURN
     0x022C [0x45] LOAD_SCHEDULED_TASK: Load scheduler "fdif" with entities [LocalPlayer, LocalPlayer], work=[200*, 0*]
     0x023D [0x1B] RETURN
     0x023E [0x45] LOAD_SCHEDULED_TASK: Load scheduler "fdof" with entities [LocalPlayer, LocalPlayer], work=[200*, 0*]
     0x024F [0x55] WAIT_LOAD_SCHEDULER: Wait for scheduler "fdof" with entities [LocalPlayer, LocalPlayer], work=200*
     0x025E [0x1B] RETURN
     0x025F [0x45] LOAD_SCHEDULED_TASK: Load scheduler "fdip" with entities [LocalPlayer, LocalPlayer], work=[200*, 0*]
     0x0270 [0x1B] RETURN
     0x0271 [0x45] LOAD_SCHEDULED_TASK: Load scheduler "fdop" with entities [LocalPlayer, LocalPlayer], work=[200*, 0*]
     0x0282 [0x55] WAIT_LOAD_SCHEDULER: Wait for scheduler "fdop" with entities [LocalPlayer, LocalPlayer], work=200*
     0x0291 [0x1B] RETURN
```

### Event 162

#### Metadata

| Field        | Value      |
|--------------|------------|
| Entrypoint   | 0x0292     |
| Data Size    | 2659 bytes |
| Instructions | 372        |

```
      00 01 02 03 04 05 06 07  08 09 0A 0B 0C 0D 0E 0F
      -- -- -- -- -- -- -- --  -- -- -- -- -- -- -- --
0290:       42 1A 64 00 46 01  38 08 80 06 01 10 4E 00    B.d.F.8.....N.
02A0: F0 FF FF 7F 4E 00 5C 70  0F 01 4E 00 5D 70 0F 01  ....N.\p..N.]p..
02B0: 2F 00 5C 70 0F 01 2F 00  5D 70 0F 01 92 01 2E 70  /.\p../.]p.....p
02C0: 0F 01 92 01 5C 70 0F 01  92 01 5D 70 0F 01 94 01  ....\p....]p....
02D0: 2E 70 0F 01 94 01 5C 70  0F 01 94 01 5D 70 0F 01  .p....\p....]p..
02E0: 94 01 F0 FF FF 7F BA F0  FF FF 7F 09 80 0A 80 0B  ................
02F0: 80 0C 80 02 03 10 03 80  00 90 03 5C 00 0D 80 5C  ...........\...\
0300: 01 0D 80 9A 5D 0E 80 03  80 BA 5C 70 0F 01 0F 80  ....].....\p....
0310: 10 80 11 80 12 80 BA 5D  70 0F 01 13 80 14 80 15  .......]p.......
0320: 80 16 80 80 2E 70 0F 01  80 5C 70 0F 01 80 5D 70  .....p...\p...]p
0330: 0F 01 80 F0 FF FF 7F 4A  2E 70 0F 01 5C 70 0F 01  .......J.p..\p..
0340: 4A F0 FF FF 7F 5C 70 0F  01 4A 5C 70 0F 01 F0 FF  J....\p..J\p....
0350: FF 7F 4A 5D 70 0F 01 F0  FF FF 7F 6F 76 2E 70 0F  ..J]p......ov.p.
0360: 01 6F 76 5C 70 0F 01 6F  76 5D 70 0F 01 6F 76 F0  .ov\p..ov]p..ov.
0370: FF FF 7F 45 17 80 F8 FF  FF 7F F8 FF FF 7F 73 30  ...E..........s0
0380: 31 30 01 80 1C 18 80 1A  43 00 01 2A 07 01 F6 03  10......C..*....
0390: BA 5C 70 0F 01 19 80 1A  80 1B 80 1C 80 BA 5D 70  .\p...........]p
03A0: 0F 01 1D 80 1E 80 1F 80  20 80 6C 5C 70 0F 01 01  ........ .l\p...
03B0: 80 03 80 6C 5D 70 0F 01  01 80 03 80 80 2E 70 0F  ...l]p........p.
03C0: 01 80 5C 70 0F 01 80 5D  70 0F 01 80 F0 FF FF 7F  ..\p...]p.......
03D0: 4A F0 FF FF 7F 2E 70 0F  01 6F 76 F0 FF FF 7F 45  J.....p..ov....E
03E0: 17 80 F8 FF FF 7F F8 FF  FF 7F 73 30 30 30 01 80  ..........s000..
03F0: 1C 18 80 1A 43 00 4A 2E  70 0F 01 F0 FF FF 7F 6F  ....C.J.p......o
0400: 76 2E 70 0F 01 2B 2E 70  0F 01 21 80 23 2B 2E 70  v.p..+.p..!.#+.p
0410: 0F 01 22 80 23 52 17 80  F8 FF FF 7F F8 FF FF 7F  ..".#R..........
0420: 73 30 30 30 02 87 7F 23  80 80 40 04 45 17 80 F8  s000...#..@.E...
0430: FF FF 7F F8 FF FF 7F 73  30 30 32 01 80 01 6D 04  .......s002...m.
0440: 02 87 7F 24 80 80 5C 04  45 17 80 F8 FF FF 7F F8  ...$..\.E.......
0450: FF FF 7F 73 30 30 32 01  80 01 6D 04 45 17 80 F8  ...s002...m.E...
0460: FF FF 7F F8 FF FF 7F 73  30 30 31 01 80 1C 25 80  .......s001...%.
0470: 6E F0 FF FF 7F 26 80 99  F0 FF FF 7F 1C 27 80 2B  n....&.......'.+
0480: 2E 70 0F 01 28 80 23 52  17 80 F8 FF FF 7F F8 FF  .p..(.#R........
0490: FF 7F 73 30 30 31 52 17  80 F8 FF FF 7F F8 FF FF  ..s001R.........
04A0: 7F 73 30 30 32 45 17 80  F8 FF FF 7F F8 FF FF 7F  .s002E..........
04B0: 73 30 30 33 01 80 7B 2E  70 0F 01 27 08 2E 70 0F  s003..{.p..'..p.
04C0: 01 1B 2B 2E 70 0F 01 29  80 23 2B 2E 70 0F 01 2A  ..+.p..).#+.p..*
04D0: 80 2A 08 2E 70 0F 01 23  52 17 80 F8 FF FF 7F F8  .*..p..#R.......
04E0: FF FF 7F 73 30 30 33 45  17 80 F8 FF FF 7F F8 FF  ...s003E........
04F0: FF 7F 73 30 30 34 01 80  79 00 2E 70 0F 01 F0 FF  ..s004..y..p....
0500: FF 7F 27 08 2E 70 0F 01  1C 2B 2E 70 0F 01 2B 80  ..'..p...+.p..+.
0510: 2A 08 2E 70 0F 01 23 27  08 2E 70 0F 01 17 2B 2E  *..p..#'..p...+.
0520: 70 0F 01 2C 80 2A 08 2E  70 0F 01 23 52 17 80 F8  p..,.*..p..#R...
0530: FF FF 7F F8 FF FF 7F 73  30 30 34 5C A0 2D 80 2E  .......s004\.-..
0540: 80 5C A1 2D 80 2F 80 45  17 80 F8 FF FF 7F F8 FF  .\.-./.E........
0550: FF 7F 73 30 30 35 01 80  6C 5C 70 0F 01 30 80 03  ..s005..l\p..0..
0560: 80 6C 5D 70 0F 01 30 80  03 80 27 08 5C 70 0F 01  .l]p..0...'.\p..
0570: 04 27 08 5D 70 0F 01 04  2B 2E 70 0F 01 31 80 2A  .'.]p...+.p..1.*
0580: 08 5C 70 0F 01 2A 08 5D  70 0F 01 4A F0 FF FF 7F  .\p..*.]p..J....
0590: 5C 70 0F 01 6F 76 F0 FF  FF 7F 1C 32 80 23 27 08  \p..ov.....2.#'.
05A0: 2E 70 0F 01 18 2B 2E 70  0F 01 33 80 2A 08 2E 70  .p...+.p..3.*..p
05B0: 0F 01 23 4A 2E 70 0F 01  5D 70 0F 01 52 17 80 F8  ..#J.p..]p..R...
05C0: FF FF 7F F8 FF FF 7F 73  30 30 35 5C A0 01 80 2E  .......s005\....
05D0: 80 5C A1 01 80 2F 80 45  17 80 F8 FF FF 7F F8 FF  .\.../.E........
05E0: FF 7F 73 30 30 36 01 80  6F 76 2E 70 0F 01 2B 2E  ..s006..ov.p..+.
05F0: 70 0F 01 34 80 23 27 08  2E 70 0F 01 1F 1C 35 80  p..4.#'..p....5.
0600: 2B 2E 70 0F 01 36 80 2A  08 2E 70 0F 01 23 4A 5C  +.p..6.*..p..#J\
0610: 70 0F 01 2E 70 0F 01 52  17 80 F8 FF FF 7F F8 FF  p...p..R........
0620: FF 7F 73 30 30 36 5C 00  0D 80 5C 01 0D 80 9A 5D  ..s006\...\....]
0630: 0E 80 03 80 45 17 80 F8  FF FF 7F F8 FF FF 7F 73  ....E..........s
0640: 30 30 37 01 80 6F 76 5C  70 0F 01 27 08 5C 70 0F  007..ov\p..'.\p.
0650: 01 08 2B 5C 70 0F 01 37  80 2A 08 5C 70 0F 01 23  ..+\p..7.*.\p..#
0660: 52 17 80 F8 FF FF 7F F8  FF FF 7F 73 30 30 37 45  R..........s007E
0670: 17 80 F8 FF FF 7F F8 FF  FF 7F 73 30 30 38 01 80  ..........s008..
0680: 27 08 2E 70 0F 01 20 2B  5C 70 0F 01 38 80 23 2A  '..p.. +\p..8.#*
0690: 08 2E 70 0F 01 29 08 5C  70 0F 01 09 1C 06 80 23  ..p..).\p......#
06A0: 52 17 80 F8 FF FF 7F F8  FF FF 7F 73 30 30 38 45  R..........s008E
06B0: 17 80 F8 FF FF 7F F8 FF  FF 7F 73 30 30 39 01 80  ..........s009..
06C0: 7B 2E 70 0F 01 27 08 2E  70 0F 01 21 2B 2E 70 0F  {.p..'..p..!+.p.
06D0: 01 39 80 1C 27 80 4A 5D  70 0F 01 F0 FF FF 7F 6F  .9..'.J]p......o
06E0: 76 5D 70 0F 01 2A 08 2E  70 0F 01 23 4A 5C 70 0F  v]p..*..p..#J\p.
06F0: 01 F0 FF FF 7F 6F 76 5C  70 0F 01 52 17 80 F8 FF  .....ov\p..R....
0700: FF 7F F8 FF FF 7F 73 30  30 39 45 17 80 F8 FF FF  ......s009E.....
0710: 7F F8 FF FF 7F 73 30 31  30 01 80 4A 2E 70 0F 01  .....s010..J.p..
0720: 5C 70 0F 01 6F 76 2E 70  0F 01 27 08 5C 70 0F 01  \p..ov.p..'.\p..
0730: 08 2B 5C 70 0F 01 3A 80  23 2B 5C 70 0F 01 3B 80  .+\p..:.#+\p..;.
0740: 29 08 2E 70 0F 01 15 2A  08 5C 70 0F 01 23 27 08  )..p...*.\p..#'.
0750: 5C 70 0F 01 09 2B 5C 70  0F 01 3C 80 2A 08 5C 70  \p...+\p..<.*.\p
0760: 0F 01 23 52 17 80 F8 FF  FF 7F F8 FF FF 7F 73 30  ..#R..........s0
0770: 31 30 02 87 7F 3D 80 80  8E 07 45 17 80 F8 FF FF  10...=....E.....
0780: 7F F8 FF FF 7F 73 30 31  31 01 80 01 0F 08 02 87  .....s011.......
0790: 7F 3E 80 80 AA 07 45 17  80 F8 FF FF 7F F8 FF FF  .>....E.........
07A0: 7F 73 30 31 31 01 80 01  0F 08 02 87 7F 23 80 80  .s011........#..
07B0: C6 07 45 17 80 F8 FF FF  7F F8 FF FF 7F 73 30 31  ..E..........s01
07C0: 33 01 80 01 0F 08 02 87  7F 24 80 80 E2 07 45 17  3........$....E.
07D0: 80 F8 FF FF 7F F8 FF FF  7F 73 30 31 33 01 80 01  .........s013...
07E0: 0F 08 02 87 7F 3F 80 80  FE 07 45 17 80 F8 FF FF  .....?....E.....
07F0: 7F F8 FF FF 7F 73 30 31  31 01 80 01 0F 08 45 17  .....s011.....E.
0800: 80 F8 FF FF 7F F8 FF FF  7F 73 30 31 32 01 80 24  .........s012..$
0810: 40 80 01 80 01 80 25 02  00 10 01 80 00 0F 0C 6E  @.....%........n
0820: F0 FF FF 7F 26 80 99 F0  FF FF 7F 1C 27 80 52 17  ....&.......'.R.
0830: 80 F8 FF FF 7F F8 FF FF  7F 73 30 31 31 52 17 80  .........s011R..
0840: F8 FF FF 7F F8 FF FF 7F  73 30 31 32 52 17 80 F8  ........s012R...
0850: FF FF 7F F8 FF FF 7F 73  30 31 33 45 17 80 F8 FF  .......s013E....
0860: FF 7F F8 FF FF 7F 73 30  31 34 01 80 27 08 5C 70  ......s014..'.\p
0870: 0F 01 11 2B 5C 70 0F 01  41 80 2A 08 5C 70 0F 01  ...+\p..A.*.\p..
0880: 23 4A 2E 70 0F 01 5C 70  0F 01 52 17 80 F8 FF FF  #J.p..\p..R.....
0890: 7F F8 FF FF 7F 73 30 31  34 45 17 80 F8 FF FF 7F  .....s014E......
08A0: F8 FF FF 7F 73 30 31 35  01 80 6F 76 2E 70 0F 01  ....s015..ov.p..
08B0: 27 08 2E 70 0F 01 19 2B  2E 70 0F 01 42 80 1C 43  '..p...+.p..B..C
08C0: 80 4A 5C 70 0F 01 2E 70  0F 01 6F 76 5C 70 0F 01  .J\p...p..ov\p..
08D0: 23 2B 2E 70 0F 01 44 80  2A 08 2E 70 0F 01 23 27  #+.p..D.*..p..#'
08E0: 08 2E 70 0F 01 1A 2B 2E  70 0F 01 45 80 2A 08 2E  ..p...+.p..E.*..
08F0: 70 0F 01 23 52 17 80 F8  FF FF 7F F8 FF FF 7F 73  p..#R..........s
0900: 30 31 35 45 17 80 F8 FF  FF 7F F8 FF FF 7F 73 30  015E..........s0
0910: 31 36 01 80 7B 5C 70 0F  01 81 00 5C 70 0F 01 27  16..{\p....\p..'
0920: 08 5C 70 0F 01 0A 2B 5C  70 0F 01 46 80 2A 08 5C  .\p...+\p..F.*.\
0930: 70 0F 01 23 27 08 2E 70  0F 01 21 2B 2E 70 0F 01  p..#'..p..!+.p..
0940: 47 80 2A 08 2E 70 0F 01  23 52 17 80 F8 FF FF 7F  G.*..p..#R......
0950: F8 FF FF 7F 73 30 31 36  45 17 80 F8 FF FF 7F F8  ....s016E.......
0960: FF FF 7F 73 30 31 37 01  80 1C 48 80 79 00 5C 70  ...s017...H.y.\p
0970: 0F 01 2E 70 0F 01 81 01  5C 70 0F 01 27 08 5C 70  ...p....\p..'.\p
0980: 0F 01 0B 2B 5C 70 0F 01  49 80 23 4A 5C 70 0F 01  ...+\p..I.#J\p..
0990: F0 FF FF 7F 52 17 80 F8  FF FF 7F F8 FF FF 7F 73  ....R..........s
09A0: 30 31 37 45 17 80 F8 FF  FF 7F F8 FF FF 7F 73 30  017E..........s0
09B0: 31 38 01 80 6F 76 5C 70  0F 01 2B 5C 70 0F 01 4A  18..ov\p..+\p..J
09C0: 80 1C 06 80 4A 2E 70 0F  01 F0 FF FF 7F 6F 76 2E  ....J.p......ov.
09D0: 70 0F 01 6E F0 FF FF 7F  4B 80 99 F0 FF FF 7F 1C  p..n....K.......
09E0: 4C 80 2A 08 5C 70 0F 01  23 4A 5C 70 0F 01 5D 70  L.*.\p..#J\p..]p
09F0: 0F 01 52 17 80 F8 FF FF  7F F8 FF FF 7F 73 30 31  ..R..........s01
0A00: 38 45 17 80 F8 FF FF 7F  F8 FF FF 7F 73 30 31 39  8E..........s019
0A10: 01 80 6F 76 5C 70 0F 01  2B 5C 70 0F 01 4D 80 1C  ..ov\p..+\p..M..
0A20: 25 80 4A 2E 70 0F 01 5D  70 0F 01 6F 76 2E 70 0F  %.J.p..]p..ov.p.
0A30: 01 1C 4E 80 4A 5D 70 0F  01 5C 70 0F 01 6F 76 5C  ..N.J]p..\p..ov\
0A40: 70 0F 01 2A 08 5C 70 0F  01 23 52 17 80 F8 FF FF  p..*.\p..#R.....
0A50: 7F F8 FF FF 7F 73 30 31  39 02 87 7F 3D 80 80 75  .....s019...=..u
0A60: 0A 45 17 80 F8 FF FF 7F  F8 FF FF 7F 73 30 32 31  .E..........s021
0A70: 01 80 01 F6 0A 02 87 7F  3E 80 80 91 0A 45 17 80  ........>....E..
0A80: F8 FF FF 7F F8 FF FF 7F  73 30 32 31 01 80 01 F6  ........s021....
0A90: 0A 02 87 7F 23 80 80 AD  0A 45 17 80 F8 FF FF 7F  ....#....E......
0AA0: F8 FF FF 7F 73 30 32 33  01 80 01 F6 0A 02 87 7F  ....s023........
0AB0: 24 80 80 C9 0A 45 17 80  F8 FF FF 7F F8 FF FF 7F  $....E..........
0AC0: 73 30 32 33 01 80 01 F6  0A 02 87 7F 3F 80 80 E5  s023........?...
0AD0: 0A 45 17 80 F8 FF FF 7F  F8 FF FF 7F 73 30 32 31  .E..........s021
0AE0: 01 80 01 F6 0A 45 17 80  F8 FF FF 7F F8 FF FF 7F  .....E..........
0AF0: 73 30 32 32 01 80 6E F0  FF FF 7F 26 80 99 F0 FF  s022..n....&....
0B00: FF 7F 1C 27 80 52 17 80  F8 FF FF 7F F8 FF FF 7F  ...'.R..........
0B10: 73 30 32 31 52 17 80 F8  FF FF 7F F8 FF FF 7F 73  s021R..........s
0B20: 30 32 32 52 17 80 F8 FF  FF 7F F8 FF FF 7F 73 30  022R..........s0
0B30: 32 33 5C A0 01 80 2E 80  5C A1 01 80 2F 80 45 17  23\.....\.../.E.
0B40: 80 F8 FF FF 7F F8 FF FF  7F 73 30 32 30 01 80 1C  .........s020...
0B50: 06 80 27 08 5C 70 0F 01  05 1C 08 80 27 08 5D 70  ..'.\p......'.]p
0B60: 0F 01 05 1C 4C 80 5C 00  4F 80 5C 01 4F 80 9A 5D  ....L.\.O.\.O..]
0B70: 0E 80 03 80 7B 2E 70 0F  01 27 08 2E 70 0F 01 1B  ....{.p..'..p...
0B80: 2B 2E 70 0F 01 50 80 1C  51 80 4A F0 FF FF 7F 2E  +.p..P..Q.J.....
0B90: 70 0F 01 6F 76 F0 FF FF  7F 2A 08 2E 70 0F 01 23  p..ov....*..p..#
0BA0: 2B 2E 70 0F 01 52 80 23  27 08 2E 70 0F 01 1C 1C  +.p..R.#'..p....
0BB0: 53 80 4A 2E 70 0F 01 F0  FF FF 7F 52 17 80 F8 FF  S.J.p......R....
0BC0: FF 7F F8 FF FF 7F 73 30  32 30 45 17 80 F8 FF FF  ......s020E.....
0BD0: 7F F8 FF FF 7F 73 30 32  34 01 80 6F 76 2E 70 0F  .....s024..ov.p.
0BE0: 01 2A 08 2E 70 0F 01 27  08 2E 70 0F 01 19 2B 2E  .*..p..'..p...+.
0BF0: 70 0F 01 54 80 2A 08 2E  70 0F 01 23 2B 2E 70 0F  p..T.*..p..#+.p.
0C00: 01 55 80 23 1C 04 80 03  01 10 05 80 01 9B 0C 02  .U.#............
0C10: 00 10 03 80 00 9B 0C 5C  A0 01 80 2E 80 5C A1 01  .......\.....\..
0C20: 80 2F 80 6E F0 FF FF 7F  24 80 99 F0 FF FF 7F 1C  ./.n....$.......
0C30: 27 80 52 17 80 F8 FF FF  7F F8 FF FF 7F 73 30 31  '.R..........s01
0C40: 31 52 17 80 F8 FF FF 7F  F8 FF FF 7F 73 30 31 32  1R..........s012
0C50: 52 17 80 F8 FF FF 7F F8  FF FF 7F 73 30 31 33 45  R..........s013E
0C60: 17 80 F8 FF FF 7F F8 FF  FF 7F 73 30 31 34 01 80  ..........s014..
0C70: 27 08 5C 70 0F 01 11 2B  5C 70 0F 01 56 80 2A 08  '.\p...+\p..V.*.
0C80: 5C 70 0F 01 23 5C 00 4F  80 5C 01 4F 80 9A 5D 0E  \p..#\.O.\.O..].
0C90: 80 03 80 03 01 10 03 80  01 9B 0C 1A 64 00 52 17  ............d.R.
0CA0: 80 F8 FF FF 7F F8 FF FF  7F 73 30 31 34 52 17 80  .........s014R..
0CB0: F8 FF FF 7F F8 FF FF 7F  73 30 32 34 4E 01 5C 70  ........s024N.\p
0CC0: 0F 01 4E 01 5D 70 0F 01  2F 01 5C 70 0F 01 2F 01  ..N.]p../.\p../.
0CD0: 5D 70 0F 01 1C 18 80 AB  11 01 80 1C 03 80 AB 0A  ]p..............
0CE0: 46 00 45 00 80 F0 FF FF  7F F0 FF FF 7F 66 64 69  F.E..........fdi
0CF0: 32 01 80 21 00                                    2..!.           
```

#### Opcodes

```
  0: 0x0292 [0x42] SET_CLI_EVENT_CANCEL_DATA()
  1: 0x0293 [0x1A] CALL_SUBROUTINE(address=0x0064)
  2: 0x0296 [0x46] CAMERA_CONTROL: Disable user control
  3: 0x0298 [0x38] SET_CLIENT_EVENT_MODE(mode=27*)
  4: 0x029B [0x06] Work_Zone[1] = 0
  5: 0x029E [0x4E] SET_ENTITY_HIDE_FLAG: Show LocalPlayer
  6: 0x02A4 [0x4E] SET_ENTITY_HIDE_FLAG: Show Weya Salmacha (ID: 17789020/0x010F705C)
  7: 0x02AA [0x4E] SET_ENTITY_HIDE_FLAG: Show Poko (ID: 17789021/0x010F705D)
  8: 0x02B0 [0x2F] Weya Salmacha (ID: 17789020/0x010F705C)->Render.Flags0 &= ~0x80000 // Bit 19
  9: 0x02B6 [0x2F] Poko (ID: 17789021/0x010F705D)->Render.Flags0 &= ~0x80000 // Bit 19
 10: 0x02BC [0x92] Irmilant (ID: 17788974/0x010F702E)->Render.Flags3 ^= 0x01
 11: 0x02C2 [0x92] Weya Salmacha (ID: 17789020/0x010F705C)->Render.Flags3 ^= 0x01
 12: 0x02C8 [0x92] Poko (ID: 17789021/0x010F705D)->Render.Flags3 ^= 0x01
 13: 0x02CE [0x94] Irmilant (ID: 17788974/0x010F702E)->Render.Flags3 ^= 0x01
 14: 0x02D4 [0x94] Weya Salmacha (ID: 17789020/0x010F705C)->Render.Flags3 ^= 0x01
 15: 0x02DA [0x94] Poko (ID: 17789021/0x010F705D)->Render.Flags3 ^= 0x01
 16: 0x02E0 [0x94] LocalPlayer->Render.Flags3 ^= 0x01
 17: 0x02E6 [0xBA] SET_ENTITY_POSITION(entity_id=LocalPlayer, pos_x=4.228*, pos_z=58.453*, pos_y=9.120*, direction=101.0°*)
 18: 0x02F3 [0x02] IF !(Work_Zone[3] == 1*) GOTO 0x0390
 19: 0x02FB [0x5C] MUSIC_CONTROL: Set Idle (Day) music to song 106*
 20: 0x02FF [0x5C] MUSIC_CONTROL: Set Idle (Night) music to song 106*
 21: 0x0303 [0x9A] WAIT_MUSIC_SERVER()
 22: 0x0304 [0x5D] SET_MUSIC_VOLUME(volume=127*, fade_time=1*)
 23: 0x0309 [0xBA] SET_ENTITY_POSITION(entity_id=Weya Salmacha (ID: 17789020/0x010F705C), pos_x=6.269*, pos_z=55.193*, pos_y=10.022*, direction=234.5°*)
 24: 0x0316 [0xBA] SET_ENTITY_POSITION(entity_id=Poko (ID: 17789021/0x010F705D), pos_x=5.422*, pos_z=53.460*, pos_y=10.187*, direction=266.2°*)
 25: 0x0323 [0x80] LOAD_WAIT(entity=Irmilant (ID: 17788974/0x010F702E))
 26: 0x0328 [0x80] LOAD_WAIT(entity=Weya Salmacha (ID: 17789020/0x010F705C))
 27: 0x032D [0x80] LOAD_WAIT(entity=Poko (ID: 17789021/0x010F705D))
 28: 0x0332 [0x80] LOAD_WAIT(entity=LocalPlayer)
 29: 0x0337 [0x4A] Irmilant (ID: 17788974/0x010F702E) looks at Weya Salmacha (ID: 17789020/0x010F705C)
 30: 0x0340 [0x4A] LocalPlayer looks at Weya Salmacha (ID: 17789020/0x010F705C)
 31: 0x0349 [0x4A] Weya Salmacha (ID: 17789020/0x010F705C) looks at LocalPlayer
 32: 0x0352 [0x4A] Poko (ID: 17789021/0x010F705D) looks at LocalPlayer
 33: 0x035B [0x6F] WAIT_FRAME_DELAY: Yield until WaitTime reaches zero
 34: 0x035C [0x76] CHECK_ENTITY_RENDER_FLAGS: Wait until Irmilant (ID: 17788974/0x010F702E) Render.Flags0 and Render.Flags3 conditions are met
 35: 0x0361 [0x6F] WAIT_FRAME_DELAY: Yield until WaitTime reaches zero
 36: 0x0362 [0x76] CHECK_ENTITY_RENDER_FLAGS: Wait until Weya Salmacha (ID: 17789020/0x010F705C) Render.Flags0 and Render.Flags3 conditions are met
 37: 0x0367 [0x6F] WAIT_FRAME_DELAY: Yield until WaitTime reaches zero
 38: 0x0368 [0x76] CHECK_ENTITY_RENDER_FLAGS: Wait until Poko (ID: 17789021/0x010F705D) Render.Flags0 and Render.Flags3 conditions are met
 39: 0x036D [0x6F] WAIT_FRAME_DELAY: Yield until WaitTime reaches zero
 40: 0x036E [0x76] CHECK_ENTITY_RENDER_FLAGS: Wait until LocalPlayer Render.Flags0 and Render.Flags3 conditions are met
 41: 0x0373 [0x45] LOAD_SCHEDULED_TASK: Load scheduler "s010" with entities [EventEntity, EventEntity], work=[711*, 0*]
 42: 0x0384 [0x1C] WAIT(15* ticks)
 43: 0x0387 [0x1A] CALL_SUBROUTINE(address=0x0043)
 44: 0x038A [0x01] GOTO 0x072A

SUBROUTINE_03F6:
 45: 0x03F6 [0x4A] Irmilant (ID: 17788974/0x010F702E) looks at LocalPlayer
 46: 0x03FF [0x6F] WAIT_FRAME_DELAY: Yield until WaitTime reaches zero
 47: 0x0400 [0x76] CHECK_ENTITY_RENDER_FLAGS: Wait until Irmilant (ID: 17788974/0x010F702E) Render.Flags0 and Render.Flags3 conditions are met
 48: 0x0405 [0x2B] Irmilant (ID: 17788974/0x010F702E) [11738*]:
    → "Ah, my friend of the unbreakable spirit. Tell me--how fares your fishing?"
 49: 0x040C [0x23] WAIT_FOR_DIALOG_INTERACTION
 50: 0x040D [0x2B] Irmilant (ID: 17788974/0x010F702E) [11739*]:
    → "You have not...lost the rod, have you?"
 51: 0x0414 [0x23] WAIT_FOR_DIALOG_INTERACTION
 52: 0x0415 [0x52] END_LOAD_SCHEDULER: End scheduler "s000" with entities [EventEntity, EventEntity], work=711*
 53: 0x0424 [0x02] IF !(LocalPlayer->Race == 5*) GOTO 0x0440
 54: 0x042C [0x45] LOAD_SCHEDULED_TASK: Load scheduler "s002" with entities [EventEntity, EventEntity], work=[711*, 0*]
 55: 0x043D [0x01] GOTO 0x046D
 56: 0x0440 [0x02] IF !(LocalPlayer->Race == 6*) GOTO 0x045C
 57: 0x0448 [0x45] LOAD_SCHEDULED_TASK: Load scheduler "s002" with entities [EventEntity, EventEntity], work=[711*, 0*]
 58: 0x0459 [0x01] GOTO 0x046D
 59: 0x045C [0x45] LOAD_SCHEDULED_TASK: Load scheduler "s001" with entities [EventEntity, EventEntity], work=[711*, 0*]

SUBROUTINE_046D:
 60: 0x046D [0x1C] WAIT(20* ticks)
 61: 0x0470 [0x6E] LocalPlayer uses emote 7*
 62: 0x0477 [0x99] Wait for LocalPlayer animation to complete
 63: 0x047C [0x1C] WAIT(80* ticks)
 64: 0x047F [0x2B] Irmilant (ID: 17788974/0x010F702E) [11740*]:
    → "And you would do well not to in the future. It serves as proof that your prowess as an angler is beyond doubt."
 65: 0x0486 [0x23] WAIT_FOR_DIALOG_INTERACTION
 66: 0x0487 [0x52] END_LOAD_SCHEDULER: End scheduler "s001" with entities [EventEntity, EventEntity], work=711*
 67: 0x0496 [0x52] END_LOAD_SCHEDULER: End scheduler "s002" with entities [EventEntity, EventEntity], work=711*
 68: 0x04A5 [0x45] LOAD_SCHEDULED_TASK: Load scheduler "s003" with entities [EventEntity, EventEntity], work=[711*, 0*]
 69: 0x04B6 [0x7B] Irmilant (ID: 17788974/0x010F702E) stops talking
 70: 0x04BB [0x27] REQ_SET(priority=0x08, entity_id=Irmilant (ID: 17788974/0x010F702E), tag_num=0x1B)
 71: 0x04C2 [0x2B] Irmilant (ID: 17788974/0x010F702E) [11741*]:
    → "But as unbreakable as it may be..."
 72: 0x04C9 [0x23] WAIT_FOR_DIALOG_INTERACTION
 73: 0x04CA [0x2B] Irmilant (ID: 17788974/0x010F702E) [11742*]:
    → "And no matter how your skill shines across the land... There is one whom I fear you cannot best."
 74: 0x04D1 [0x2A] GET_REQ_LEVEL(level=8, entity_id=Irmilant (ID: 17788974/0x010F702E))
 75: 0x04D7 [0x23] WAIT_FOR_DIALOG_INTERACTION
 76: 0x04D8 [0x52] END_LOAD_SCHEDULER: End scheduler "s003" with entities [EventEntity, EventEntity], work=711*
 77: 0x04E7 [0x45] LOAD_SCHEDULED_TASK: Load scheduler "s004" with entities [EventEntity, EventEntity], work=[711*, 0*]
 78: 0x04F8 [0x79] Irmilant (ID: 17788974/0x010F702E) looks at LocalPlayer (Basic look)
 79: 0x0502 [0x27] REQ_SET(priority=0x08, entity_id=Irmilant (ID: 17788974/0x010F702E), tag_num=0x1C)
 80: 0x0509 [0x2B] Irmilant (ID: 17788974/0x010F702E) [11743*]:
    → "There is another--an exalted fisherman whose ability to reel in a catch is wholly beyond compare."
 81: 0x0510 [0x2A] GET_REQ_LEVEL(level=8, entity_id=Irmilant (ID: 17788974/0x010F702E))
 82: 0x0516 [0x23] WAIT_FOR_DIALOG_INTERACTION
 83: 0x0517 [0x27] REQ_SET(priority=0x08, entity_id=Irmilant (ID: 17788974/0x010F702E), tag_num=0x17)
 84: 0x051E [0x2B] Irmilant (ID: 17788974/0x010F702E) [11744*]:
    → "One who can reel in the most savory of fish from their spawning grounds of Lake Mechieume and trawl in a hundred tuna from the Gugru Ocean in one fell swoop."
 85: 0x0525 [0x2A] GET_REQ_LEVEL(level=8, entity_id=Irmilant (ID: 17788974/0x010F702E))
 86: 0x052B [0x23] WAIT_FOR_DIALOG_INTERACTION
 87: 0x052C [0x52] END_LOAD_SCHEDULER: End scheduler "s004" with entities [EventEntity, EventEntity], work=711*
 88: 0x053B [0x5C] MUSIC_CONTROL: Set music volume to song 31*, fade_time=240*
 89: 0x0541 [0x5C] MUSIC_CONTROL: Adjust music volume to song 31*, fade_time=480*
 90: 0x0547 [0x45] LOAD_SCHEDULED_TASK: Load scheduler "s005" with entities [EventEntity, EventEntity], work=[711*, 0*]
 91: 0x0558 [0x6C] FADE_ENTITY_COLOR(entity_id=Weya Salmacha (ID: 17789020/0x010F705C), end_alpha=128*, fade_time=1*)
 92: 0x0561 [0x6C] FADE_ENTITY_COLOR(entity_id=Poko (ID: 17789021/0x010F705D), end_alpha=128*, fade_time=1*)
 93: 0x056A [0x27] REQ_SET(priority=0x08, entity_id=Weya Salmacha (ID: 17789020/0x010F705C), tag_num=0x04)
 94: 0x0571 [0x27] REQ_SET(priority=0x08, entity_id=Poko (ID: 17789021/0x010F705D), tag_num=0x04)
 95: 0x0578 [0x2B] Irmilant (ID: 17788974/0x010F702E) [11745*]:
    → "Legends abound, and I am apt to believe they are more truth than fiction."
 96: 0x057F [0x2A] GET_REQ_LEVEL(level=8, entity_id=Weya Salmacha (ID: 17789020/0x010F705C))
 97: 0x0585 [0x2A] GET_REQ_LEVEL(level=8, entity_id=Poko (ID: 17789021/0x010F705D))
 98: 0x058B [0x4A] LocalPlayer looks at Weya Salmacha (ID: 17789020/0x010F705C)
 99: 0x0594 [0x6F] WAIT_FRAME_DELAY: Yield until WaitTime reaches zero
100: 0x0595 [0x76] CHECK_ENTITY_RENDER_FLAGS: Wait until LocalPlayer Render.Flags0 and Render.Flags3 conditions are met
101: 0x059A [0x1C] WAIT(40* ticks)
102: 0x059D [0x23] WAIT_FOR_DIALOG_INTERACTION
103: 0x059E [0x27] REQ_SET(priority=0x08, entity_id=Irmilant (ID: 17788974/0x010F702E), tag_num=0x18)
104: 0x05A5 [0x2B] Irmilant (ID: 17788974/0x010F702E) [11746*]:
    → "Ah, do we have a visitor?"
105: 0x05AC [0x2A] GET_REQ_LEVEL(level=8, entity_id=Irmilant (ID: 17788974/0x010F702E))
106: 0x05B2 [0x23] WAIT_FOR_DIALOG_INTERACTION
107: 0x05B3 [0x4A] Irmilant (ID: 17788974/0x010F702E) looks at Poko (ID: 17789021/0x010F705D)
108: 0x05BC [0x52] END_LOAD_SCHEDULER: End scheduler "s005" with entities [EventEntity, EventEntity], work=711*
109: 0x05CB [0x5C] MUSIC_CONTROL: Set music volume to song 0*, fade_time=240*
110: 0x05D1 [0x5C] MUSIC_CONTROL: Adjust music volume to song 0*, fade_time=480*
111: 0x05D7 [0x45] LOAD_SCHEDULED_TASK: Load scheduler "s006" with entities [EventEntity, EventEntity], work=[711*, 0*]
112: 0x05E8 [0x6F] WAIT_FRAME_DELAY: Yield until WaitTime reaches zero
113: 0x05E9 [0x76] CHECK_ENTITY_RENDER_FLAGS: Wait until Irmilant (ID: 17788974/0x010F702E) Render.Flags0 and Render.Flags3 conditions are met
114: 0x05EE [0x2B] Irmilant (ID: 17788974/0x010F702E) [11747*]:
    → "<Gasp> Are you...are you..."
115: 0x05F5 [0x23] WAIT_FOR_DIALOG_INTERACTION
116: 0x05F6 [0x27] REQ_SET(priority=0x08, entity_id=Irmilant (ID: 17788974/0x010F702E), tag_num=0x1F)
117: 0x05FD [0x1C] WAIT(37* ticks)
118: 0x0600 [0x2B] Irmilant (ID: 17788974/0x010F702E) [11748*]:
    → "The exalted fisherman!?"
119: 0x0607 [0x2A] GET_REQ_LEVEL(level=8, entity_id=Irmilant (ID: 17788974/0x010F702E))
120: 0x060D [0x23] WAIT_FOR_DIALOG_INTERACTION
121: 0x060E [0x4A] Weya Salmacha (ID: 17789020/0x010F705C) looks at Irmilant (ID: 17788974/0x010F702E)
122: 0x0617 [0x52] END_LOAD_SCHEDULER: End scheduler "s006" with entities [EventEntity, EventEntity], work=711*
123: 0x0626 [0x5C] MUSIC_CONTROL: Set Idle (Day) music to song 106*
124: 0x062A [0x5C] MUSIC_CONTROL: Set Idle (Night) music to song 106*
125: 0x062E [0x9A] WAIT_MUSIC_SERVER()
126: 0x062F [0x5D] SET_MUSIC_VOLUME(volume=127*, fade_time=1*)
127: 0x0634 [0x45] LOAD_SCHEDULED_TASK: Load scheduler "s007" with entities [EventEntity, EventEntity], work=[711*, 0*]
128: 0x0645 [0x6F] WAIT_FRAME_DELAY: Yield until WaitTime reaches zero
129: 0x0646 [0x76] CHECK_ENTITY_RENDER_FLAGS: Wait until Weya Salmacha (ID: 17789020/0x010F705C) Render.Flags0 and Render.Flags3 conditions are met
130: 0x064B [0x27] REQ_SET(priority=0x08, entity_id=Weya Salmacha (ID: 17789020/0x010F705C), tag_num=0x08)
131: 0x0652 [0x2B] Weya Salmacha (ID: 17789020/0x010F705C) [11749*]:
    → "Mustn't give up fishing. It's very important."
132: 0x0659 [0x2A] GET_REQ_LEVEL(level=8, entity_id=Weya Salmacha (ID: 17789020/0x010F705C))
133: 0x065F [0x23] WAIT_FOR_DIALOG_INTERACTION
134: 0x0660 [0x52] END_LOAD_SCHEDULER: End scheduler "s007" with entities [EventEntity, EventEntity], work=711*
135: 0x066F [0x45] LOAD_SCHEDULED_TASK: Load scheduler "s008" with entities [EventEntity, EventEntity], work=[711*, 0*]
136: 0x0680 [0x27] REQ_SET(priority=0x08, entity_id=Irmilant (ID: 17788974/0x010F702E), tag_num=0x20)
137: 0x0687 [0x2B] Weya Salmacha (ID: 17789020/0x010F705C) [11750*]:
    → "Giving up means failure."
138: 0x068E [0x23] WAIT_FOR_DIALOG_INTERACTION
139: 0x068F [0x2A] GET_REQ_LEVEL(level=8, entity_id=Irmilant (ID: 17788974/0x010F702E))
140: 0x0695 [0x29] REQ_SET_WAIT(priority=0x08, entity_id=Weya Salmacha (ID: 17789020/0x010F705C), tag_num=0x09)
141: 0x069C [0x1C] WAIT(30* ticks)
142: 0x069F [0x23] WAIT_FOR_DIALOG_INTERACTION
143: 0x06A0 [0x52] END_LOAD_SCHEDULER: End scheduler "s008" with entities [EventEntity, EventEntity], work=711*
144: 0x06AF [0x45] LOAD_SCHEDULED_TASK: Load scheduler "s009" with entities [EventEntity, EventEntity], work=[711*, 0*]
145: 0x06C0 [0x7B] Irmilant (ID: 17788974/0x010F702E) stops talking
146: 0x06C5 [0x27] REQ_SET(priority=0x08, entity_id=Irmilant (ID: 17788974/0x010F702E), tag_num=0x21)
147: 0x06CC [0x2B] Irmilant (ID: 17788974/0x010F702E) [11751*]:
    → "O, praise be unto Altana! Never had I thought to lay eyes on one whose prowess rumbles throughout the rivers and oscillates across the oceans!"
148: 0x06D3 [0x1C] WAIT(80* ticks)
149: 0x06D6 [0x4A] Poko (ID: 17789021/0x010F705D) looks at LocalPlayer
150: 0x06DF [0x6F] WAIT_FRAME_DELAY: Yield until WaitTime reaches zero
151: 0x06E0 [0x76] CHECK_ENTITY_RENDER_FLAGS: Wait until Poko (ID: 17789021/0x010F705D) Render.Flags0 and Render.Flags3 conditions are met
152: 0x06E5 [0x2A] GET_REQ_LEVEL(level=8, entity_id=Irmilant (ID: 17788974/0x010F702E))
153: 0x06EB [0x23] WAIT_FOR_DIALOG_INTERACTION
154: 0x06EC [0x4A] Weya Salmacha (ID: 17789020/0x010F705C) looks at LocalPlayer
155: 0x06F5 [0x6F] WAIT_FRAME_DELAY: Yield until WaitTime reaches zero
156: 0x06F6 [0x76] CHECK_ENTITY_RENDER_FLAGS: Wait until Weya Salmacha (ID: 17789020/0x010F705C) Render.Flags0 and Render.Flags3 conditions are met
157: 0x06FB [0x52] END_LOAD_SCHEDULER: End scheduler "s009" with entities [EventEntity, EventEntity], work=711*
158: 0x070A [0x45] LOAD_SCHEDULED_TASK: Load scheduler "s010" with entities [EventEntity, EventEntity], work=[711*, 0*]
159: 0x071B [0x4A] Irmilant (ID: 17788974/0x010F702E) looks at Weya Salmacha (ID: 17789020/0x010F705C)
160: 0x0724 [0x6F] WAIT_FRAME_DELAY: Yield until WaitTime reaches zero
161: 0x0725 [0x76] CHECK_ENTITY_RENDER_FLAGS: Wait until Irmilant (ID: 17788974/0x010F702E) Render.Flags0 and Render.Flags3 conditions are met

SUBROUTINE_072A:
162: 0x072A [0x27] REQ_SET(priority=0x08, entity_id=Weya Salmacha (ID: 17789020/0x010F705C), tag_num=0x08)
163: 0x0731 [0x2B] Weya Salmacha (ID: 17789020/0x010F705C) [11752*]:
    → "I like good fishers."
164: 0x0738 [0x23] WAIT_FOR_DIALOG_INTERACTION
165: 0x0739 [0x2B] Weya Salmacha (ID: 17789020/0x010F705C) [11753*]:
    → "This [man/woman] is good fisher."
166: 0x0740 [0x29] REQ_SET_WAIT(priority=0x08, entity_id=Irmilant (ID: 17788974/0x010F702E), tag_num=0x15)
167: 0x0747 [0x2A] GET_REQ_LEVEL(level=8, entity_id=Weya Salmacha (ID: 17789020/0x010F705C))
168: 0x074D [0x23] WAIT_FOR_DIALOG_INTERACTION
169: 0x074E [0x27] REQ_SET(priority=0x08, entity_id=Weya Salmacha (ID: 17789020/0x010F705C), tag_num=0x09)
170: 0x0755 [0x2B] Weya Salmacha (ID: 17789020/0x010F705C) [11754*]:
    → "Time for a challenge?"
171: 0x075C [0x2A] GET_REQ_LEVEL(level=8, entity_id=Weya Salmacha (ID: 17789020/0x010F705C))
172: 0x0762 [0x23] WAIT_FOR_DIALOG_INTERACTION
173: 0x0763 [0x52] END_LOAD_SCHEDULER: End scheduler "s010" with entities [EventEntity, EventEntity], work=711*
174: 0x0772 [0x02] IF !(LocalPlayer->Race == 3*) GOTO 0x078E
175: 0x077A [0x45] LOAD_SCHEDULED_TASK: Load scheduler "s011" with entities [EventEntity, EventEntity], work=[711*, 0*]
176: 0x078B [0x01] GOTO 0x080F
177: 0x078E [0x02] IF !(LocalPlayer->Race == 4*) GOTO 0x07AA
178: 0x0796 [0x45] LOAD_SCHEDULED_TASK: Load scheduler "s011" with entities [EventEntity, EventEntity], work=[711*, 0*]
179: 0x07A7 [0x01] GOTO 0x080F
180: 0x07AA [0x02] IF !(LocalPlayer->Race == 5*) GOTO 0x07C6
181: 0x07B2 [0x45] LOAD_SCHEDULED_TASK: Load scheduler "s013" with entities [EventEntity, EventEntity], work=[711*, 0*]
182: 0x07C3 [0x01] GOTO 0x080F
183: 0x07C6 [0x02] IF !(LocalPlayer->Race == 6*) GOTO 0x07E2
184: 0x07CE [0x45] LOAD_SCHEDULED_TASK: Load scheduler "s013" with entities [EventEntity, EventEntity], work=[711*, 0*]
185: 0x07DF [0x01] GOTO 0x080F
186: 0x07E2 [0x02] IF !(LocalPlayer->Race == 8*) GOTO 0x07FE
187: 0x07EA [0x45] LOAD_SCHEDULED_TASK: Load scheduler "s011" with entities [EventEntity, EventEntity], work=[711*, 0*]
188: 0x07FB [0x01] GOTO 0x080F
189: 0x07FE [0x45] LOAD_SCHEDULED_TASK: Load scheduler "s012" with entities [EventEntity, EventEntity], work=[711*, 0*]

SUBROUTINE_080F:
190: 0x080F [0x24] CREATE_DIALOG(message_id=11755*, default_option=0*, option_flags=0*)
    → "How do you respond? [It's on!/I'm not interested.]"
191: 0x0816 [0x25] WAIT_DIALOG_SELECT()
192: 0x0817 [0x02] IF !(Work_Zone[0] == 0*) GOTO 0x0C0F
193: 0x081F [0x6E] LocalPlayer uses emote 7*
194: 0x0826 [0x99] Wait for LocalPlayer animation to complete
195: 0x082B [0x1C] WAIT(80* ticks)
196: 0x082E [0x52] END_LOAD_SCHEDULER: End scheduler "s011" with entities [EventEntity, EventEntity], work=711*
197: 0x083D [0x52] END_LOAD_SCHEDULER: End scheduler "s012" with entities [EventEntity, EventEntity], work=711*
198: 0x084C [0x52] END_LOAD_SCHEDULER: End scheduler "s013" with entities [EventEntity, EventEntity], work=711*
199: 0x085B [0x45] LOAD_SCHEDULED_TASK: Load scheduler "s014" with entities [EventEntity, EventEntity], work=[711*, 0*]
200: 0x086C [0x27] REQ_SET(priority=0x08, entity_id=Weya Salmacha (ID: 17789020/0x010F705C), tag_num=0x11)
201: 0x0873 [0x2B] Weya Salmacha (ID: 17789020/0x010F705C) [11757*]:
    → "It's a joke. You cannot win."
202: 0x087A [0x2A] GET_REQ_LEVEL(level=8, entity_id=Weya Salmacha (ID: 17789020/0x010F705C))
203: 0x0880 [0x23] WAIT_FOR_DIALOG_INTERACTION
204: 0x0881 [0x4A] Irmilant (ID: 17788974/0x010F702E) looks at Weya Salmacha (ID: 17789020/0x010F705C)
205: 0x088A [0x52] END_LOAD_SCHEDULER: End scheduler "s014" with entities [EventEntity, EventEntity], work=711*
206: 0x0899 [0x45] LOAD_SCHEDULED_TASK: Load scheduler "s015" with entities [EventEntity, EventEntity], work=[711*, 0*]
207: 0x08AA [0x6F] WAIT_FRAME_DELAY: Yield until WaitTime reaches zero
208: 0x08AB [0x76] CHECK_ENTITY_RENDER_FLAGS: Wait until Irmilant (ID: 17788974/0x010F702E) Render.Flags0 and Render.Flags3 conditions are met
209: 0x08B0 [0x27] REQ_SET(priority=0x08, entity_id=Irmilant (ID: 17788974/0x010F702E), tag_num=0x19)
210: 0x08B7 [0x2B] Irmilant (ID: 17788974/0x010F702E) [11758*]:
    → "I duly recognize the insolence of this sentence, exalted one, but any man or woman who could best you in such a trial would turn the course of history on its head!"
211: 0x08BE [0x1C] WAIT(70* ticks)
212: 0x08C1 [0x4A] Weya Salmacha (ID: 17789020/0x010F705C) looks at Irmilant (ID: 17788974/0x010F702E)
213: 0x08CA [0x6F] WAIT_FRAME_DELAY: Yield until WaitTime reaches zero
214: 0x08CB [0x76] CHECK_ENTITY_RENDER_FLAGS: Wait until Weya Salmacha (ID: 17789020/0x010F705C) Render.Flags0 and Render.Flags3 conditions are met
215: 0x08D0 [0x23] WAIT_FOR_DIALOG_INTERACTION
216: 0x08D1 [0x2B] Irmilant (ID: 17788974/0x010F702E) [11759*]:
    → "Yet this [man/woman] who stands to challenge you today bears an undeniable mark of skill--and unbreakable spirit, forged by the unworthy Irmilant."
217: 0x08D8 [0x2A] GET_REQ_LEVEL(level=8, entity_id=Irmilant (ID: 17788974/0x010F702E))
218: 0x08DE [0x23] WAIT_FOR_DIALOG_INTERACTION
219: 0x08DF [0x27] REQ_SET(priority=0x08, entity_id=Irmilant (ID: 17788974/0x010F702E), tag_num=0x1A)
220: 0x08E6 [0x2B] Irmilant (ID: 17788974/0x010F702E) [11760*]:
    → "Dare I be so bold as to claim that we are in the presence of not one, but two exalted fishermen?"
221: 0x08ED [0x2A] GET_REQ_LEVEL(level=8, entity_id=Irmilant (ID: 17788974/0x010F702E))
222: 0x08F3 [0x23] WAIT_FOR_DIALOG_INTERACTION
223: 0x08F4 [0x52] END_LOAD_SCHEDULER: End scheduler "s015" with entities [EventEntity, EventEntity], work=711*
224: 0x0903 [0x45] LOAD_SCHEDULED_TASK: Load scheduler "s016" with entities [EventEntity, EventEntity], work=[711*, 0*]
225: 0x0914 [0x7B] Weya Salmacha (ID: 17789020/0x010F705C) stops talking
226: 0x0919 [0x81] SET_ENTITY_BLINKING(blink_flag=0x00, entity=Weya Salmacha (ID: 17789020/0x010F705C))
227: 0x091F [0x27] REQ_SET(priority=0x08, entity_id=Weya Salmacha (ID: 17789020/0x010F705C), tag_num=0x0A)
228: 0x0926 [0x2B] Weya Salmacha (ID: 17789020/0x010F705C) [11761*]:
    → "This [man/woman]? Can catch big fish?"
229: 0x092D [0x2A] GET_REQ_LEVEL(level=8, entity_id=Weya Salmacha (ID: 17789020/0x010F705C))
230: 0x0933 [0x23] WAIT_FOR_DIALOG_INTERACTION
231: 0x0934 [0x27] REQ_SET(priority=0x08, entity_id=Irmilant (ID: 17788974/0x010F702E), tag_num=0x21)
232: 0x093B [0x2B] Irmilant (ID: 17788974/0x010F702E) [11762*]:
    → "I would wager three months' wages that the task is well within [his/her] grasp."
233: 0x0942 [0x2A] GET_REQ_LEVEL(level=8, entity_id=Irmilant (ID: 17788974/0x010F702E))
234: 0x0948 [0x23] WAIT_FOR_DIALOG_INTERACTION
235: 0x0949 [0x52] END_LOAD_SCHEDULER: End scheduler "s016" with entities [EventEntity, EventEntity], work=711*
236: 0x0958 [0x45] LOAD_SCHEDULED_TASK: Load scheduler "s017" with entities [EventEntity, EventEntity], work=[711*, 0*]
237: 0x0969 [0x1C] WAIT(150* ticks)
238: 0x096C [0x79] Weya Salmacha (ID: 17789020/0x010F705C) looks at Irmilant (ID: 17788974/0x010F702E) (Basic look)
239: 0x0976 [0x81] SET_ENTITY_BLINKING(blink_flag=0x01, entity=Weya Salmacha (ID: 17789020/0x010F705C))
240: 0x097C [0x27] REQ_SET(priority=0x08, entity_id=Weya Salmacha (ID: 17789020/0x010F705C), tag_num=0x0B)
241: 0x0983 [0x2B] Weya Salmacha (ID: 17789020/0x010F705C) [11763*]:
    → "Fine."
242: 0x098A [0x23] WAIT_FOR_DIALOG_INTERACTION
243: 0x098B [0x4A] Weya Salmacha (ID: 17789020/0x010F705C) looks at LocalPlayer
244: 0x0994 [0x52] END_LOAD_SCHEDULER: End scheduler "s017" with entities [EventEntity, EventEntity], work=711*
245: 0x09A3 [0x45] LOAD_SCHEDULED_TASK: Load scheduler "s018" with entities [EventEntity, EventEntity], work=[711*, 0*]
246: 0x09B4 [0x6F] WAIT_FRAME_DELAY: Yield until WaitTime reaches zero
247: 0x09B5 [0x76] CHECK_ENTITY_RENDER_FLAGS: Wait until Weya Salmacha (ID: 17789020/0x010F705C) Render.Flags0 and Render.Flags3 conditions are met
248: 0x09BA [0x2B] Weya Salmacha (ID: 17789020/0x010F705C) [11764*]:
    → "You. You make legends. Go to many continents."
249: 0x09C1 [0x1C] WAIT(30* ticks)
250: 0x09C4 [0x4A] Irmilant (ID: 17788974/0x010F702E) looks at LocalPlayer
251: 0x09CD [0x6F] WAIT_FRAME_DELAY: Yield until WaitTime reaches zero
252: 0x09CE [0x76] CHECK_ENTITY_RENDER_FLAGS: Wait until Irmilant (ID: 17788974/0x010F702E) Render.Flags0 and Render.Flags3 conditions are met
253: 0x09D3 [0x6E] LocalPlayer uses emote 36*
254: 0x09DA [0x99] Wait for LocalPlayer animation to complete
255: 0x09DF [0x1C] WAIT(110* ticks)
256: 0x09E2 [0x2A] GET_REQ_LEVEL(level=8, entity_id=Weya Salmacha (ID: 17789020/0x010F705C))
257: 0x09E8 [0x23] WAIT_FOR_DIALOG_INTERACTION
258: 0x09E9 [0x4A] Weya Salmacha (ID: 17789020/0x010F705C) looks at Poko (ID: 17789021/0x010F705D)
259: 0x09F2 [0x52] END_LOAD_SCHEDULER: End scheduler "s018" with entities [EventEntity, EventEntity], work=711*
260: 0x0A01 [0x45] LOAD_SCHEDULED_TASK: Load scheduler "s019" with entities [EventEntity, EventEntity], work=[711*, 0*]
261: 0x0A12 [0x6F] WAIT_FRAME_DELAY: Yield until WaitTime reaches zero
262: 0x0A13 [0x76] CHECK_ENTITY_RENDER_FLAGS: Wait until Weya Salmacha (ID: 17789020/0x010F705C) Render.Flags0 and Render.Flags3 conditions are met
263: 0x0A18 [0x2B] Weya Salmacha (ID: 17789020/0x010F705C) [11765*]:
    → "My friend will judge. Deal?"
264: 0x0A1F [0x1C] WAIT(20* ticks)
265: 0x0A22 [0x4A] Irmilant (ID: 17788974/0x010F702E) looks at Poko (ID: 17789021/0x010F705D)
266: 0x0A2B [0x6F] WAIT_FRAME_DELAY: Yield until WaitTime reaches zero
267: 0x0A2C [0x76] CHECK_ENTITY_RENDER_FLAGS: Wait until Irmilant (ID: 17788974/0x010F702E) Render.Flags0 and Render.Flags3 conditions are met
268: 0x0A31 [0x1C] WAIT(10* ticks)
269: 0x0A34 [0x4A] Poko (ID: 17789021/0x010F705D) looks at Weya Salmacha (ID: 17789020/0x010F705C)
270: 0x0A3D [0x6F] WAIT_FRAME_DELAY: Yield until WaitTime reaches zero
271: 0x0A3E [0x76] CHECK_ENTITY_RENDER_FLAGS: Wait until Weya Salmacha (ID: 17789020/0x010F705C) Render.Flags0 and Render.Flags3 conditions are met
272: 0x0A43 [0x2A] GET_REQ_LEVEL(level=8, entity_id=Weya Salmacha (ID: 17789020/0x010F705C))
273: 0x0A49 [0x23] WAIT_FOR_DIALOG_INTERACTION
274: 0x0A4A [0x52] END_LOAD_SCHEDULER: End scheduler "s019" with entities [EventEntity, EventEntity], work=711*
275: 0x0A59 [0x02] IF !(LocalPlayer->Race == 3*) GOTO 0x0A75
276: 0x0A61 [0x45] LOAD_SCHEDULED_TASK: Load scheduler "s021" with entities [EventEntity, EventEntity], work=[711*, 0*]
277: 0x0A72 [0x01] GOTO 0x0AF6
278: 0x0A75 [0x02] IF !(LocalPlayer->Race == 4*) GOTO 0x0A91
279: 0x0A7D [0x45] LOAD_SCHEDULED_TASK: Load scheduler "s021" with entities [EventEntity, EventEntity], work=[711*, 0*]
280: 0x0A8E [0x01] GOTO 0x0AF6
281: 0x0A91 [0x02] IF !(LocalPlayer->Race == 5*) GOTO 0x0AAD
282: 0x0A99 [0x45] LOAD_SCHEDULED_TASK: Load scheduler "s023" with entities [EventEntity, EventEntity], work=[711*, 0*]
283: 0x0AAA [0x01] GOTO 0x0AF6
284: 0x0AAD [0x02] IF !(LocalPlayer->Race == 6*) GOTO 0x0AC9
285: 0x0AB5 [0x45] LOAD_SCHEDULED_TASK: Load scheduler "s023" with entities [EventEntity, EventEntity], work=[711*, 0*]
286: 0x0AC6 [0x01] GOTO 0x0AF6
287: 0x0AC9 [0x02] IF !(LocalPlayer->Race == 8*) GOTO 0x0AE5
288: 0x0AD1 [0x45] LOAD_SCHEDULED_TASK: Load scheduler "s021" with entities [EventEntity, EventEntity], work=[711*, 0*]
289: 0x0AE2 [0x01] GOTO 0x0AF6
290: 0x0AE5 [0x45] LOAD_SCHEDULED_TASK: Load scheduler "s022" with entities [EventEntity, EventEntity], work=[711*, 0*]

SUBROUTINE_0AF6:
291: 0x0AF6 [0x6E] LocalPlayer uses emote 7*
292: 0x0AFD [0x99] Wait for LocalPlayer animation to complete
293: 0x0B02 [0x1C] WAIT(80* ticks)
294: 0x0B05 [0x52] END_LOAD_SCHEDULER: End scheduler "s021" with entities [EventEntity, EventEntity], work=711*
295: 0x0B14 [0x52] END_LOAD_SCHEDULER: End scheduler "s022" with entities [EventEntity, EventEntity], work=711*
296: 0x0B23 [0x52] END_LOAD_SCHEDULER: End scheduler "s023" with entities [EventEntity, EventEntity], work=711*
297: 0x0B32 [0x5C] MUSIC_CONTROL: Set music volume to song 0*, fade_time=240*
298: 0x0B38 [0x5C] MUSIC_CONTROL: Adjust music volume to song 0*, fade_time=480*
299: 0x0B3E [0x45] LOAD_SCHEDULED_TASK: Load scheduler "s020" with entities [EventEntity, EventEntity], work=[711*, 0*]
300: 0x0B4F [0x1C] WAIT(30* ticks)
301: 0x0B52 [0x27] REQ_SET(priority=0x08, entity_id=Weya Salmacha (ID: 17789020/0x010F705C), tag_num=0x05)
302: 0x0B59 [0x1C] WAIT(27* ticks)
303: 0x0B5C [0x27] REQ_SET(priority=0x08, entity_id=Poko (ID: 17789021/0x010F705D), tag_num=0x05)
304: 0x0B63 [0x1C] WAIT(110* ticks)
305: 0x0B66 [0x5C] MUSIC_CONTROL: Set Idle (Day) music to song 208*
306: 0x0B6A [0x5C] MUSIC_CONTROL: Set Idle (Night) music to song 208*
307: 0x0B6E [0x9A] WAIT_MUSIC_SERVER()
308: 0x0B6F [0x5D] SET_MUSIC_VOLUME(volume=127*, fade_time=1*)
309: 0x0B74 [0x7B] Irmilant (ID: 17788974/0x010F702E) stops talking
310: 0x0B79 [0x27] REQ_SET(priority=0x08, entity_id=Irmilant (ID: 17788974/0x010F702E), tag_num=0x1B)
311: 0x0B80 [0x2B] Irmilant (ID: 17788974/0x010F702E) [11766*]:
    → "One whispered tale claims that the exalted fisherman plunged into fertile earth and dredged forth a bonefish three yalms in length!"
312: 0x0B87 [0x1C] WAIT(43* ticks)
313: 0x0B8A [0x4A] LocalPlayer looks at Irmilant (ID: 17788974/0x010F702E)
314: 0x0B93 [0x6F] WAIT_FRAME_DELAY: Yield until WaitTime reaches zero
315: 0x0B94 [0x76] CHECK_ENTITY_RENDER_FLAGS: Wait until LocalPlayer Render.Flags0 and Render.Flags3 conditions are met
316: 0x0B99 [0x2A] GET_REQ_LEVEL(level=8, entity_id=Irmilant (ID: 17788974/0x010F702E))
317: 0x0B9F [0x23] WAIT_FOR_DIALOG_INTERACTION
318: 0x0BA0 [0x2B] Irmilant (ID: 17788974/0x010F702E) [11767*]:
    → "A true fisherman has the patience of a well-trained dog, the ferocity of a storied gladiator, and the willpower of a penitent ascetic."
319: 0x0BA7 [0x23] WAIT_FOR_DIALOG_INTERACTION
320: 0x0BA8 [0x27] REQ_SET(priority=0x08, entity_id=Irmilant (ID: 17788974/0x010F702E), tag_num=0x1C)
321: 0x0BAF [0x1C] WAIT(50* ticks)
322: 0x0BB2 [0x4A] Irmilant (ID: 17788974/0x010F702E) looks at LocalPlayer
323: 0x0BBB [0x52] END_LOAD_SCHEDULER: End scheduler "s020" with entities [EventEntity, EventEntity], work=711*
324: 0x0BCA [0x45] LOAD_SCHEDULED_TASK: Load scheduler "s024" with entities [EventEntity, EventEntity], work=[711*, 0*]
325: 0x0BDB [0x6F] WAIT_FRAME_DELAY: Yield until WaitTime reaches zero
326: 0x0BDC [0x76] CHECK_ENTITY_RENDER_FLAGS: Wait until Irmilant (ID: 17788974/0x010F702E) Render.Flags0 and Render.Flags3 conditions are met
327: 0x0BE1 [0x2A] GET_REQ_LEVEL(level=8, entity_id=Irmilant (ID: 17788974/0x010F702E))
328: 0x0BE7 [0x27] REQ_SET(priority=0x08, entity_id=Irmilant (ID: 17788974/0x010F702E), tag_num=0x19)
329: 0x0BEE [0x2B] Irmilant (ID: 17788974/0x010F702E) [11768*]:
    → "I would be honored to assist you in any way I am able. You need only consult with me for information surrounding legendary fish."
330: 0x0BF5 [0x2A] GET_REQ_LEVEL(level=8, entity_id=Irmilant (ID: 17788974/0x010F702E))
331: 0x0BFB [0x23] WAIT_FOR_DIALOG_INTERACTION
332: 0x0BFC [0x2B] Irmilant (ID: 17788974/0x010F702E) [11769*]:
    → "I am yours to command as long as your spirit remains unbreakable."
333: 0x0C03 [0x23] WAIT_FOR_DIALOG_INTERACTION
334: 0x0C04 [0x1C] WAIT(45* ticks)
335: 0x0C07 [0x03] Work_Zone[1] = 2*
336: 0x0C0C [0x01] GOTO 0x0C9B
337: 0x0C0F [0x02] IF !(Work_Zone[0] == 1*) GOTO 0x0C9B
338: 0x0C17 [0x5C] MUSIC_CONTROL: Set music volume to song 0*, fade_time=240*
339: 0x0C1D [0x5C] MUSIC_CONTROL: Adjust music volume to song 0*, fade_time=480*
340: 0x0C23 [0x6E] LocalPlayer uses emote 6*
341: 0x0C2A [0x99] Wait for LocalPlayer animation to complete
342: 0x0C2F [0x1C] WAIT(80* ticks)
343: 0x0C32 [0x52] END_LOAD_SCHEDULER: End scheduler "s011" with entities [EventEntity, EventEntity], work=711*
344: 0x0C41 [0x52] END_LOAD_SCHEDULER: End scheduler "s012" with entities [EventEntity, EventEntity], work=711*
345: 0x0C50 [0x52] END_LOAD_SCHEDULER: End scheduler "s013" with entities [EventEntity, EventEntity], work=711*
346: 0x0C5F [0x45] LOAD_SCHEDULED_TASK: Load scheduler "s014" with entities [EventEntity, EventEntity], work=[711*, 0*]
347: 0x0C70 [0x27] REQ_SET(priority=0x08, entity_id=Weya Salmacha (ID: 17789020/0x010F705C), tag_num=0x11)
348: 0x0C77 [0x2B] Weya Salmacha (ID: 17789020/0x010F705C) [11756*]:
    → "I'm not surprised. Many try, many fail. You fail too."
349: 0x0C7E [0x2A] GET_REQ_LEVEL(level=8, entity_id=Weya Salmacha (ID: 17789020/0x010F705C))
350: 0x0C84 [0x23] WAIT_FOR_DIALOG_INTERACTION
351: 0x0C85 [0x5C] MUSIC_CONTROL: Set Idle (Day) music to song 208*
352: 0x0C89 [0x5C] MUSIC_CONTROL: Set Idle (Night) music to song 208*
353: 0x0C8D [0x9A] WAIT_MUSIC_SERVER()
354: 0x0C8E [0x5D] SET_MUSIC_VOLUME(volume=127*, fade_time=1*)
355: 0x0C93 [0x03] Work_Zone[1] = 1*
356: 0x0C98 [0x01] GOTO 0x0C9B

SUBROUTINE_0C9B:
357: 0x0C9B [0x1A] CALL_SUBROUTINE(address=0x0064)
358: 0x0C9E [0x52] END_LOAD_SCHEDULER: End scheduler "s014" with entities [EventEntity, EventEntity], work=711*
359: 0x0CAD [0x52] END_LOAD_SCHEDULER: End scheduler "s024" with entities [EventEntity, EventEntity], work=711*
360: 0x0CBC [0x4E] SET_ENTITY_HIDE_FLAG: Hide Weya Salmacha (ID: 17789020/0x010F705C)
361: 0x0CC2 [0x4E] SET_ENTITY_HIDE_FLAG: Hide Poko (ID: 17789021/0x010F705D)
362: 0x0CC8 [0x2F] Weya Salmacha (ID: 17789020/0x010F705C)->Render.Flags0 |= 0x80000 // Bit 19
363: 0x0CCE [0x2F] Poko (ID: 17789021/0x010F705D)->Render.Flags0 |= 0x80000 // Bit 19
364: 0x0CD4 [0x1C] WAIT(15* ticks)
365: 0x0CD7 [0xAB] EventEntity->DespawnValue = 0* // Set despawn value
366: 0x0CDB [0x1C] WAIT(1* ticks)
367: 0x0CDE [0xAB] EventEntity->UnknownFlag = 0 // Disable unknown flag
368: 0x0CE0 [0x46] CAMERA_CONTROL: Restore default settings
369: 0x0CE2 [0x45] LOAD_SCHEDULED_TASK: Load scheduler "fdi2" with entities [LocalPlayer, LocalPlayer], work=[200*, 0*]
370: 0x0CF3 [0x21] END_EVENT
371: 0x0CF4 [0x00] END_REQSTACK()
```

#### Data or dead code:

```
# Dead code (unreachable instructions):
     0x038D [0x01] GOTO 0x03F6
```

### Event 165

#### Metadata

| Field        | Value      |
|--------------|------------|
| Entrypoint   | 0x0CF5     |
| Data Size    | 3032 bytes |
| Instructions | 457        |

```
      00 01 02 03 04 05 06 07  08 09 0A 0B 0C 0D 0E 0F
      -- -- -- -- -- -- -- --  -- -- -- -- -- -- -- --
0CF0:                42 03 04  10 07 10 03 01 10 07 10       B..........
0D00: 08 04 10 03 80 1A 64 00  46 01 38 08 80 4E 00 F0  ......d.F.8..N..
0D10: FF FF 7F 4E 00 5C 70 0F  01 4E 00 5D 70 0F 01 2F  ...N.\p..N.]p../
0D20: 00 5C 70 0F 01 2F 00 5D  70 0F 01 92 01 2E 70 0F  .\p../.]p.....p.
0D30: 01 92 01 5C 70 0F 01 92  01 5D 70 0F 01 94 01 2E  ...\p....]p.....
0D40: 70 0F 01 94 01 5C 70 0F  01 94 01 5D 70 0F 01 94  p....\p....]p...
0D50: 01 F0 FF FF 7F BA F0 FF  FF 7F 09 80 0A 80 0B 80  ................
0D60: 0C 80 BA 5C 70 0F 01 19  80 1A 80 1B 80 1C 80 BA  ...\p...........
0D70: 5D 70 0F 01 1D 80 1E 80  1F 80 20 80 80 2E 70 0F  ]p........ ...p.
0D80: 01 80 5C 70 0F 01 80 5D  70 0F 01 80 F0 FF FF 7F  ..\p...]p.......
0D90: 4A 2E 70 0F 01 F0 FF FF  7F 4A F0 FF FF 7F 2E 70  J.p......J.....p
0DA0: 0F 01 6F 76 2E 70 0F 01  6F 76 F0 FF FF 7F 45 17  ..ov.p..ov....E.
0DB0: 80 F8 FF FF 7F F8 FF FF  7F 73 30 32 35 01 80 1C  .........s025...
0DC0: 18 80 1A 43 00 29 08 F0  FF FF 7F 02 1C 00 80 5C  ...C.).........\
0DD0: A0 01 80 2E 80 5C A1 01  80 2F 80 02 07 10 03 80  .....\.../......
0DE0: 80 F0 0D 03 02 10 57 80  03 03 10 58 80 01 44 0E  ......W....X..D.
0DF0: 02 07 10 05 80 80 05 0E  03 02 10 59 80 03 03 10  ...........Y....
0E00: 5A 80 01 44 0E 02 07 10  3D 80 80 1A 0E 03 02 10  Z..D....=.......
0E10: 5B 80 03 03 10 5C 80 01  44 0E 02 07 10 3E 80 80  [....\..D....>..
0E20: 2F 0E 03 02 10 5D 80 03  03 10 5E 80 01 44 0E 02  /....]....^..D..
0E30: 07 10 23 80 80 44 0E 03  02 10 5F 80 03 03 10 60  ..#..D...._....`
0E40: 80 01 44 0E 27 08 2E 70  0F 01 1F 2B 2E 70 0F 01  ..D.'..p...+.p..
0E50: 61 80 2A 08 2E 70 0F 01  23 5C 00 0D 80 5C 01 0D  a.*..p..#\...\..
0E60: 80 9A 5D 0E 80 03 80 27  08 5C 70 0F 01 04 27 08  ..]....'.\p...'.
0E70: 5D 70 0F 01 04 52 17 80  F8 FF FF 7F F8 FF FF 7F  ]p...R..........
0E80: 73 30 32 35 45 17 80 F8  FF FF 7F F8 FF FF 7F 73  s025E..........s
0E90: 30 33 30 01 80 1C 4C 80  2A 08 5C 70 0F 01 2A 08  030...L.*.\p..*.
0EA0: 5D 70 0F 01 52 17 80 F8  FF FF 7F F8 FF FF 7F 73  ]p..R..........s
0EB0: 30 33 30 45 17 80 F8 FF  FF 7F F8 FF FF 7F 73 30  030E..........s0
0EC0: 32 36 01 80 27 08 2E 70  0F 01 20 2B 5C 70 0F 01  26..'..p.. +\p..
0ED0: 62 80 2A 08 2E 70 0F 01  23 2B 5C 70 0F 01 63 80  b.*..p..#+\p..c.
0EE0: 4A F0 FF FF 7F 5C 70 0F  01 4A 2E 70 0F 01 5C 70  J....\p..J.p..\p
0EF0: 0F 01 6F 76 F0 FF FF 7F  6F 76 2E 70 0F 01 2A 08  ..ov....ov.p..*.
0F00: 5C 70 0F 01 23 4A 5C 70  0F 01 F0 FF FF 7F 52 17  \p..#J\p......R.
0F10: 80 F8 FF FF 7F F8 FF FF  7F 73 30 32 36 45 17 80  .........s026E..
0F20: F8 FF FF 7F F8 FF FF 7F  73 30 32 39 01 80 6F 76  ........s029..ov
0F30: 5C 70 0F 01 27 08 5C 70  0F 01 11 2B 5C 70 0F 01  \p..'.\p...+\p..
0F40: 64 80 1C 43 80 4B 2E 70  0F 01 65 80 6F 76 2E 70  d..C.K.p..e.ov.p
0F50: 0F 01 1C 06 80 4B F0 FF  FF 7F 66 80 6F 76 F0 FF  .....K....f.ov..
0F60: FF 7F 1C 32 80 2A 08 5C  70 0F 01 23 52 17 80 F8  ...2.*.\p..#R...
0F70: FF FF 7F F8 FF FF 7F 73  30 32 39 45 17 80 F8 FF  .......s029E....
0F80: FF 7F F8 FF FF 7F 73 30  32 37 01 80 7B 5C 70 0F  ......s027..{\p.
0F90: 01 81 00 5C 70 0F 01 27  08 5C 70 0F 01 0A 2B 5C  ...\p..'.\p...+\
0FA0: 70 0F 01 67 80 2A 08 5C  70 0F 01 23 4A 5D 70 0F  p..g.*.\p..#J]p.
0FB0: 01 5C 70 0F 01 52 17 80  F8 FF FF 7F F8 FF FF 7F  .\p..R..........
0FC0: 73 30 32 37 45 17 80 F8  FF FF 7F F8 FF FF 7F 73  s027E..........s
0FD0: 30 32 38 01 80 6F 76 5D  70 0F 01 81 01 5C 70 0F  028..ov]p....\p.
0FE0: 01 79 00 5C 70 0F 01 F0  FF FF 7F 29 08 5C 70 0F  .y.\p......).\p.
0FF0: 01 0B 4A 5C 70 0F 01 5D  70 0F 01 6F 76 5C 70 0F  ..J\p..]p..ov\p.
1000: 01 1C 25 80 1A 64 00 52  17 80 F8 FF FF 7F F8 FF  ..%..d.R........
1010: FF 7F 73 30 32 38 29 08  5C 70 0F 01 13 2B 5C 70  ..s028).\p...+\p
1020: 0F 01 68 80 1C 43 80 23  45 17 80 F8 FF FF 7F F8  ..h..C.#E.......
1030: FF FF 7F 73 30 33 34 01  80 1C 18 80 27 08 5C 70  ...s034.....'.\p
1040: 0F 01 10 1A 43 00 1C 25  80 4A F0 FF FF 7F 5C 70  ....C..%.J....\p
1050: 0F 01 6F 76 F0 FF FF 7F  1C 69 80 4A 2E 70 0F 01  ..ov.....i.J.p..
1060: 5C 70 0F 01 6F 76 2E 70  0F 01 1C 6A 80 2A 08 5C  \p..ov.p...j.*.\
1070: 70 0F 01 4A 5C 70 0F 01  2E 70 0F 01 6F 76 5C 70  p..J\p...p..ov\p
1080: 0F 01 1C 06 80 2B 5C 70  0F 01 6B 80 23 1C 04 80  .....+\p..k.#...
1090: 52 17 80 F8 FF FF 7F F8  FF FF 7F 73 30 33 34 45  R..........s034E
10A0: 17 80 F8 FF FF 7F F8 FF  FF 7F 73 30 33 31 01 80  ..........s031..
10B0: 27 08 5C 70 0F 01 0C 2B  5C 70 0F 01 6C 80 2A 08  '.\p...+\p..l.*.
10C0: 5C 70 0F 01 23 2B 5C 70  0F 01 6D 80 23 27 08 2E  \p..#+\p..m.#'..
10D0: 70 0F 01 16 2A 08 2E 70  0F 01 1C 53 80 4A 5C 70  p...*..p...S.J\p
10E0: 0F 01 F0 FF FF 7F 52 17  80 F8 FF FF 7F F8 FF FF  ......R.........
10F0: 7F 73 30 33 31 45 17 80  F8 FF FF 7F F8 FF FF 7F  .s031E..........
1100: 73 30 32 39 01 80 6F 76  5C 70 0F 01 27 08 5C 70  s029..ov\p..'.\p
1110: 0F 01 11 2B 5C 70 0F 01  64 80 1C 43 80 4B 2E 70  ...+\p..d..C.K.p
1120: 0F 01 65 80 6F 76 2E 70  0F 01 1C 06 80 4B F0 FF  ..e.ov.p.....K..
1130: FF 7F 66 80 6F 76 F0 FF  FF 7F 1C 32 80 2A 08 5C  ..f.ov.....2.*.\
1140: 70 0F 01 23 52 17 80 F8  FF FF 7F F8 FF FF 7F 73  p..#R..........s
1150: 30 32 39 45 17 80 F8 FF  FF 7F F8 FF FF 7F 73 30  029E..........s0
1160: 32 38 01 80 4A 5C 70 0F  01 5D 70 0F 01 6F 76 5C  28..J\p..]p..ov\
1170: 70 0F 01 1C 25 80 1A 64  00 52 17 80 F8 FF FF 7F  p...%..d.R......
1180: F8 FF FF 7F 73 30 32 38  29 08 5C 70 0F 01 13 2B  ....s028).\p...+
1190: 5C 70 0F 01 6E 80 1C 43  80 23 45 17 80 F8 FF FF  \p..n..C.#E.....
11A0: 7F F8 FF FF 7F 73 30 33  34 01 80 1C 18 80 27 08  .....s034.....'.
11B0: 5C 70 0F 01 0D 1A 43 00  2B 5C 70 0F 01 6F 80 2A  \p....C.+\p..o.*
11C0: 08 5C 70 0F 01 23 2B 5C  70 0F 01 70 80 23 27 08  .\p..#+\p..p.#'.
11D0: 5C 70 0F 01 0E 2B 5C 70  0F 01 71 80 1C 25 80 4A  \p...+\p..q..%.J
11E0: F0 FF FF 7F 5C 70 0F 01  6F 76 F0 FF FF 7F 1C 69  ....\p..ov.....i
11F0: 80 4A 2E 70 0F 01 5C 70  0F 01 6F 76 2E 70 0F 01  .J.p..\p..ov.p..
1200: 2A 08 5C 70 0F 01 23 52  17 80 F8 FF FF 7F F8 FF  *.\p..#R........
1210: FF 7F 73 30 33 34 45 17  80 F8 FF FF 7F F8 FF FF  ..s034E.........
1220: 7F 65 66 6F 6E 01 80 BB  72 80 F8 FF FF 7F F8 FF  .efon...r.......
1230: FF 7F 73 65 66 30 01 80  45 17 80 F8 FF FF 7F F8  ..sef0..E.......
1240: FF FF 7F 73 30 33 32 01  80 2B 5C 70 0F 01 73 80  ...s032..+\p..s.
1250: 23 1C 74 80 27 08 5C 70  0F 01 10 1C 75 80 52 17  #.t.'.\p....u.R.
1260: 80 F8 FF FF 7F F8 FF FF  7F 73 30 33 32 BB 72 80  .........s032.r.
1270: F8 FF FF 7F F8 FF FF 7F  6B 69 6C 73 01 80 45 17  ........kils..E.
1280: 80 F8 FF FF 7F F8 FF FF  7F 65 66 6F 66 01 80 45  .........efof..E
1290: 17 80 F8 FF FF 7F F8 FF  FF 7F 73 30 33 33 01 80  ..........s033..
12A0: 2A 08 5C 70 0F 01 4A 5C  70 0F 01 2E 70 0F 01 6F  *.\p..J\p...p..o
12B0: 76 5C 70 0F 01 1C 06 80  2B 5C 70 0F 01 6B 80 23  v\p.....+\p..k.#
12C0: 1C 04 80 27 08 5C 70 0F  01 0C 2B 5C 70 0F 01 6C  ...'.\p...+\p..l
12D0: 80 2A 08 5C 70 0F 01 23  4A 5C 70 0F 01 F0 FF FF  .*.\p..#J\p.....
12E0: 7F 52 17 80 F8 FF FF 7F  F8 FF FF 7F 73 30 33 33  .R..........s033
12F0: 45 17 80 F8 FF FF 7F F8  FF FF 7F 73 30 33 35 01  E..........s035.
1300: 80 6F 76 5C 70 0F 01 0B  06 10 02 06 10 23 80 04  .ov\p........#..
1310: 42 17 81 00 5C 70 0F 01  7B 5C 70 0F 01 27 08 5C  B...\p..{\p..'.\
1320: 70 0F 01 0A 2B 5C 70 0F  01 76 80 23 2B 5C 70 0F  p...+\p..v.#+\p.
1330: 01 77 80 23 2A 08 5C 70  0F 01 81 01 5C 70 0F 01  .w.#*.\p....\p..
1340: 79 00 5C 70 0F 01 F0 FF  FF 7F 29 08 5C 70 0F 01  y.\p......).\p..
1350: 0B 4A 5D 70 0F 01 F0 FF  FF 7F 52 17 80 F8 FF FF  .J]p......R.....
1360: 7F F8 FF FF 7F 73 30 33  35 45 17 80 F8 FF FF 7F  .....s035E......
1370: F8 FF FF 7F 73 30 33 37  01 80 6F 76 5D 70 0F 01  ....s037..ov]p..
1380: 27 08 5C 70 0F 01 06 2B  5C 70 0F 01 78 80 2A 08  '.\p...+\p..x.*.
1390: 5C 70 0F 01 1C 53 80 29  08 5C 70 0F 01 14 23 4A  \p...S.).\p...#J
13A0: 2E 70 0F 01 F0 FF FF 7F  52 17 80 F8 FF FF 7F F8  .p......R.......
13B0: FF FF 7F 73 30 33 37 45  17 80 F8 FF FF 7F F8 FF  ...s037E........
13C0: FF 7F 73 30 33 38 01 80  6F 76 2E 70 0F 01 2B 2E  ..s038..ov.p..+.
13D0: 70 0F 01 79 80 23 2B 5C  70 0F 01 7A 80 2A 08 5C  p..y.#+\p..z.*.\
13E0: 70 0F 01 23 4A 5C 70 0F  01 5D 70 0F 01 52 17 80  p..#J\p..]p..R..
13F0: F8 FF FF 7F F8 FF FF 7F  73 30 33 38 45 17 80 F8  ........s038E...
1400: FF FF 7F F8 FF FF 7F 73  30 33 39 01 80 6F 76 5C  .......s039..ov\
1410: 70 0F 01 2B 5C 70 0F 01  7B 80 1C 32 80 4A 5D 70  p..+\p..{..2.J]p
1420: 0F 01 5C 70 0F 01 6F 76  5D 70 0F 01 1C 43 80 23  ..\p..ov]p...C.#
1430: 2B 5C 70 0F 01 7C 80 23  2B 5C 70 0F 01 7D 80 23  +\p..|.#+\p..}.#
1440: 4A 5C 70 0F 01 F0 FF FF  7F 4A 5D 70 0F 01 F0 FF  J\p......J]p....
1450: FF 7F 52 17 80 F8 FF FF  7F F8 FF FF 7F 73 30 33  ..R..........s03
1460: 39 02 87 7F 23 80 80 7D  14 45 17 80 F8 FF FF 7F  9...#..}.E......
1470: F8 FF FF 7F 73 30 34 36  01 80 01 AA 14 02 87 7F  ....s046........
1480: 24 80 80 99 14 45 17 80  F8 FF FF 7F F8 FF FF 7F  $....E..........
1490: 73 30 34 36 01 80 01 AA  14 45 17 80 F8 FF FF 7F  s046.....E......
14A0: F8 FF FF 7F 73 30 34 30  01 80 6F 76 5C 70 0F 01  ....s040..ov\p..
14B0: 6F 76 5D 70 0F 01 2B 5C  70 0F 01 7E 80 23 29 08  ov]p..+\p..~.#).
14C0: 5C 70 0F 01 11 52 17 80  F8 FF FF 7F F8 FF FF 7F  \p...R..........
14D0: 73 30 34 30 52 17 80 F8  FF FF 7F F8 FF FF 7F 73  s040R..........s
14E0: 30 34 36 5C A0 01 80 2E  80 5C A1 01 80 2F 80 45  046\.....\.../.E
14F0: 17 80 F8 FF FF 7F F8 FF  FF 7F 73 30 34 35 01 80  ..........s045..
1500: 27 08 5D 70 0F 01 05 1C  08 80 27 08 5C 70 0F 01  '.]p......'.\p..
1510: 05 4A 2E 70 0F 01 5D 70  0F 01 6F 76 2E 70 0F 01  .J.p..]p..ov.p..
1520: 29 08 2E 70 0F 01 21 4A  F0 FF FF 7F 2E 70 0F 01  )..p..!J.....p..
1530: 6F 76 F0 FF FF 7F 1C 7F  80 4A 2E 70 0F 01 F0 FF  ov.......J.p....
1540: FF 7F 52 17 80 F8 FF FF  7F F8 FF FF 7F 73 30 34  ..R..........s04
1550: 35 5C 00 4F 80 5C 01 4F  80 9A 5D 0E 80 03 80 45  5\.O.\.O..]....E
1560: 17 80 F8 FF FF 7F F8 FF  FF 7F 73 30 34 31 01 80  ..........s041..
1570: 6F 76 2E 70 0F 01 1C 32  80 27 08 F0 FF FF 7F 18  ov.p...2.'......
1580: 1C 80 80 2A 08 F0 FF FF  7F 2B 2E 70 0F 01 81 80  ...*.....+.p....
1590: 1C 25 80 29 08 F0 FF FF  7F 19 1C 27 80 23 4A 2E  .%.).......'.#J.
15A0: 70 0F 01 5D 70 0F 01 52  17 80 F8 FF FF 7F F8 FF  p..]p..R........
15B0: FF 7F 73 30 34 31 45 17  80 F8 FF FF 7F F8 FF FF  ..s041E.........
15C0: 7F 73 30 34 32 01 80 6F  76 2E 70 0F 01 7B 2E 70  .s042..ov.p..{.p
15D0: 0F 01 27 08 2E 70 0F 01  1B 2B 2E 70 0F 01 82 80  ..'..p...+.p....
15E0: 23 2B 2E 70 0F 01 83 80  2A 08 2E 70 0F 01 23 29  #+.p....*..p..#)
15F0: 08 2E 70 0F 01 1C 4A 2E  70 0F 01 F0 FF FF 7F 52  ..p...J.p......R
1600: 17 80 F8 FF FF 7F F8 FF  FF 7F 73 30 34 32 45 17  ..........s042E.
1610: 80 F8 FF FF 7F F8 FF FF  7F 73 30 34 33 01 80 6F  .........s043..o
1620: 76 2E 70 0F 01 2B 2E 70  0F 01 84 80 23 03 02 10  v.p..+.p....#...
1630: 85 80 52 17 80 F8 FF FF  7F F8 FF FF 7F 73 30 34  ..R..........s04
1640: 33 5C A0 01 80 06 80 5C  A1 01 80 86 80 02 87 7F  3\.....\........
1650: 3D 80 80 69 16 45 17 80  F8 FF FF 7F F8 FF FF 7F  =..i.E..........
1660: 73 30 34 34 01 80 01 EA  16 02 87 7F 3E 80 80 85  s044........>...
1670: 16 45 17 80 F8 FF FF 7F  F8 FF FF 7F 73 30 34 34  .E..........s044
1680: 01 80 01 EA 16 02 87 7F  23 80 80 A1 16 45 17 80  ........#....E..
1690: F8 FF FF 7F F8 FF FF 7F  73 30 34 38 01 80 01 EA  ........s048....
16A0: 16 02 87 7F 24 80 80 BD  16 45 17 80 F8 FF FF 7F  ....$....E......
16B0: F8 FF FF 7F 73 30 34 38  01 80 01 EA 16 02 87 7F  ....s048........
16C0: 3F 80 80 D9 16 45 17 80  F8 FF FF 7F F8 FF FF 7F  ?....E..........
16D0: 73 30 34 34 01 80 01 EA  16 45 17 80 F8 FF FF 7F  s044.....E......
16E0: F8 FF FF 7F 73 30 34 37  01 80 2B 2E 70 0F 01 87  ....s047..+.p...
16F0: 80 23 9F 6A 80 F0 FF FF  7F F0 FF FF 7F 73 74 72  .#.j.........str
1700: 30 01 80 27 08 2E 70 0F  01 1F 1C 25 80 45 17 80  0..'..p....%.E..
1710: F8 FF FF 7F F8 FF FF 7F  73 65 30 31 01 80 6E F0  ........se01..n.
1720: FF FF 7F 88 80 99 F0 FF  FF 7F 1C 89 80 6C 5C 70  .............l\p
1730: 0F 01 30 80 03 80 6C 5D  70 0F 01 30 80 03 80 01  ..0...l]p..0....
1740: FF 17 02 06 10 3E 80 00  92 17 2B 5C 70 0F 01 8A  .....>....+\p...
1750: 80 23 2B 5C 70 0F 01 8B  80 23 52 17 80 F8 FF FF  .#+\p....#R.....
1760: 7F F8 FF FF 7F 73 30 33  35 45 17 80 F8 FF FF 7F  .....s035E......
1770: F8 FF FF 7F 73 30 33 36  01 80 27 08 5C 70 0F 01  ....s036..'.\p..
1780: 0F 2B 5C 70 0F 01 8C 80  2A 08 5C 70 0F 01 23 01  .+\p....*.\p..#.
1790: FF 17 02 06 10 3D 80 00  BA 17 2B 5C 70 0F 01 8A  .....=....+\p...
17A0: 80 23 27 08 5C 70 0F 01  0F 2B 5C 70 0F 01 8D 80  .#'.\p...+\p....
17B0: 2A 08 5C 70 0F 01 23 01  FF 17 2B 5C 70 0F 01 8A  *.\p..#...+\p...
17C0: 80 23 2B 5C 70 0F 01 8E  80 23 52 17 80 F8 FF FF  .#+\p....#R.....
17D0: 7F F8 FF FF 7F 73 30 33  35 45 17 80 F8 FF FF 7F  .....s035E......
17E0: F8 FF FF 7F 73 30 33 36  01 80 27 08 5C 70 0F 01  ....s036..'.\p..
17F0: 0F 2B 5C 70 0F 01 8C 80  2A 08 5C 70 0F 01 23 1A  .+\p....*.\p..#.
1800: 64 00 52 17 80 F8 FF FF  7F F8 FF FF 7F 73 30 33  d.R..........s03
1810: 35 52 17 80 F8 FF FF 7F  F8 FF FF 7F 73 30 33 36  5R..........s036
1820: 52 17 80 F8 FF FF 7F F8  FF FF 7F 73 30 34 34 52  R..........s044R
1830: 17 80 F8 FF FF 7F F8 FF  FF 7F 73 30 34 35 52 17  ..........s045R.
1840: 80 F8 FF FF 7F F8 FF FF  7F 73 30 34 36 45 17 80  .........s046E..
1850: F8 FF FF 7F F8 FF FF 7F  62 6C 63 6C 01 80 4E 01  ........blcl..N.
1860: 5C 70 0F 01 4E 01 5D 70  0F 01 2F 01 5C 70 0F 01  \p..N.]p../.\p..
1870: 2F 01 5D 70 0F 01 9F 6A  80 F0 FF FF 7F F0 FF FF  /.]p...j........
1880: 7F 6B 69 6C 6C 01 80 02  06 10 23 80 04 9E 18 5C  .kill.....#....\
1890: A0 0E 80 6A 80 5C A1 0E  80 2E 80 01 AC 18 5C 00  ...j.\........\.
18A0: 4F 80 5C 01 4F 80 9A 5D  0E 80 03 80 1C 18 80 AB  O.\.O..]........
18B0: 11 01 80 1C 03 80 AB 0A  46 00 45 00 80 F0 FF FF  ........F.E.....
18C0: 7F F0 FF FF 7F 66 64 69  32 01 80 21 00           .....fdi2..!.   
```

#### Opcodes

```
  0: 0x0CF5 [0x42] SET_CLI_EVENT_CANCEL_DATA()
  1: 0x0CF6 [0x03] Work_Zone[4] = Work_Zone[7]
  2: 0x0CFB [0x03] Work_Zone[1] = Work_Zone[7]
  3: 0x0D00 [0x08] Work_Zone[4] -= 1*
  4: 0x0D05 [0x1A] CALL_SUBROUTINE(address=0x0064)
  5: 0x0D08 [0x46] CAMERA_CONTROL: Disable user control
  6: 0x0D0A [0x38] SET_CLIENT_EVENT_MODE(mode=27*)
  7: 0x0D0D [0x4E] SET_ENTITY_HIDE_FLAG: Show LocalPlayer
  8: 0x0D13 [0x4E] SET_ENTITY_HIDE_FLAG: Show Weya Salmacha (ID: 17789020/0x010F705C)
  9: 0x0D19 [0x4E] SET_ENTITY_HIDE_FLAG: Show Poko (ID: 17789021/0x010F705D)
 10: 0x0D1F [0x2F] Weya Salmacha (ID: 17789020/0x010F705C)->Render.Flags0 &= ~0x80000 // Bit 19
 11: 0x0D25 [0x2F] Poko (ID: 17789021/0x010F705D)->Render.Flags0 &= ~0x80000 // Bit 19
 12: 0x0D2B [0x92] Irmilant (ID: 17788974/0x010F702E)->Render.Flags3 ^= 0x01
 13: 0x0D31 [0x92] Weya Salmacha (ID: 17789020/0x010F705C)->Render.Flags3 ^= 0x01
 14: 0x0D37 [0x92] Poko (ID: 17789021/0x010F705D)->Render.Flags3 ^= 0x01
 15: 0x0D3D [0x94] Irmilant (ID: 17788974/0x010F702E)->Render.Flags3 ^= 0x01
 16: 0x0D43 [0x94] Weya Salmacha (ID: 17789020/0x010F705C)->Render.Flags3 ^= 0x01
 17: 0x0D49 [0x94] Poko (ID: 17789021/0x010F705D)->Render.Flags3 ^= 0x01
 18: 0x0D4F [0x94] LocalPlayer->Render.Flags3 ^= 0x01
 19: 0x0D55 [0xBA] SET_ENTITY_POSITION(entity_id=LocalPlayer, pos_x=4.228*, pos_z=58.453*, pos_y=9.120*, direction=101.0°*)
 20: 0x0D62 [0xBA] SET_ENTITY_POSITION(entity_id=Weya Salmacha (ID: 17789020/0x010F705C), pos_x=8.541*, pos_z=49.430*, pos_y=9.742*, direction=253.7°*)
 21: 0x0D6F [0xBA] SET_ENTITY_POSITION(entity_id=Poko (ID: 17789021/0x010F705D), pos_x=8.004*, pos_z=48.039*, pos_y=9.573*, direction=251.1°*)
 22: 0x0D7C [0x80] LOAD_WAIT(entity=Irmilant (ID: 17788974/0x010F702E))
 23: 0x0D81 [0x80] LOAD_WAIT(entity=Weya Salmacha (ID: 17789020/0x010F705C))
 24: 0x0D86 [0x80] LOAD_WAIT(entity=Poko (ID: 17789021/0x010F705D))
 25: 0x0D8B [0x80] LOAD_WAIT(entity=LocalPlayer)
 26: 0x0D90 [0x4A] Irmilant (ID: 17788974/0x010F702E) looks at LocalPlayer
 27: 0x0D99 [0x4A] LocalPlayer looks at Irmilant (ID: 17788974/0x010F702E)
 28: 0x0DA2 [0x6F] WAIT_FRAME_DELAY: Yield until WaitTime reaches zero
 29: 0x0DA3 [0x76] CHECK_ENTITY_RENDER_FLAGS: Wait until Irmilant (ID: 17788974/0x010F702E) Render.Flags0 and Render.Flags3 conditions are met
 30: 0x0DA8 [0x6F] WAIT_FRAME_DELAY: Yield until WaitTime reaches zero
 31: 0x0DA9 [0x76] CHECK_ENTITY_RENDER_FLAGS: Wait until LocalPlayer Render.Flags0 and Render.Flags3 conditions are met
 32: 0x0DAE [0x45] LOAD_SCHEDULED_TASK: Load scheduler "s025" with entities [EventEntity, EventEntity], work=[711*, 0*]
 33: 0x0DBF [0x1C] WAIT(15* ticks)
 34: 0x0DC2 [0x1A] CALL_SUBROUTINE(address=0x0043)
 35: 0x0DC5 [0x29] REQ_SET_WAIT(priority=0x08, entity_id=LocalPlayer, tag_num=0x02)
 36: 0x0DCC [0x1C] WAIT(200* ticks)
 37: 0x0DCF [0x5C] MUSIC_CONTROL: Set music volume to song 0*, fade_time=240*
 38: 0x0DD5 [0x5C] MUSIC_CONTROL: Adjust music volume to song 0*, fade_time=480*
 39: 0x0DDB [0x02] IF !(Work_Zone[7] == 1*) GOTO 0x0DF0
 40: 0x0DE3 [0x03] Work_Zone[2] = 6374*
 41: 0x0DE8 [0x03] Work_Zone[3] = 4305*
 42: 0x0DED [0x01] GOTO 0x0E44
 43: 0x0DF0 [0x02] IF !(Work_Zone[7] == 2*) GOTO 0x0E05
 44: 0x0DF8 [0x03] Work_Zone[2] = 6371*
 45: 0x0DFD [0x03] Work_Zone[3] = 5140*
 46: 0x0E02 [0x01] GOTO 0x0E44
 47: 0x0E05 [0x02] IF !(Work_Zone[7] == 3*) GOTO 0x0E1A
 48: 0x0E0D [0x03] Work_Zone[2] = 5468*
 49: 0x0E12 [0x03] Work_Zone[3] = 4454*
 50: 0x0E17 [0x01] GOTO 0x0E44
 51: 0x0E1A [0x02] IF !(Work_Zone[7] == 4*) GOTO 0x0E2F
 52: 0x0E22 [0x03] Work_Zone[2] = 6375*
 53: 0x0E27 [0x03] Work_Zone[3] = 4463*
 54: 0x0E2C [0x01] GOTO 0x0E44
 55: 0x0E2F [0x02] IF !(Work_Zone[7] == 5*) GOTO 0x0E44
 56: 0x0E37 [0x03] Work_Zone[2] = 6372*
 57: 0x0E3C [0x03] Work_Zone[3] = 5715*
 58: 0x0E41 [0x01] GOTO 0x0E44

SUBROUTINE_0E44:
 59: 0x0E44 [0x27] REQ_SET(priority=0x08, entity_id=Irmilant (ID: 17788974/0x010F702E), tag_num=0x1F)
 60: 0x0E4B [0x2B] Irmilant (ID: 17788974/0x010F702E) [11809*]:
    → "D-did you really find $0? I had scarce dared to hope that the legends would be true...but you really found one!"
 61: 0x0E52 [0x2A] GET_REQ_LEVEL(level=8, entity_id=Irmilant (ID: 17788974/0x010F702E))
 62: 0x0E58 [0x23] WAIT_FOR_DIALOG_INTERACTION
 63: 0x0E59 [0x5C] MUSIC_CONTROL: Set Idle (Day) music to song 106*
 64: 0x0E5D [0x5C] MUSIC_CONTROL: Set Idle (Night) music to song 106*
 65: 0x0E61 [0x9A] WAIT_MUSIC_SERVER()
 66: 0x0E62 [0x5D] SET_MUSIC_VOLUME(volume=127*, fade_time=1*)
 67: 0x0E67 [0x27] REQ_SET(priority=0x08, entity_id=Weya Salmacha (ID: 17789020/0x010F705C), tag_num=0x04)
 68: 0x0E6E [0x27] REQ_SET(priority=0x08, entity_id=Poko (ID: 17789021/0x010F705D), tag_num=0x04)
 69: 0x0E75 [0x52] END_LOAD_SCHEDULER: End scheduler "s025" with entities [EventEntity, EventEntity], work=711*
 70: 0x0E84 [0x45] LOAD_SCHEDULED_TASK: Load scheduler "s030" with entities [EventEntity, EventEntity], work=[711*, 0*]
 71: 0x0E95 [0x1C] WAIT(110* ticks)
 72: 0x0E98 [0x2A] GET_REQ_LEVEL(level=8, entity_id=Weya Salmacha (ID: 17789020/0x010F705C))
 73: 0x0E9E [0x2A] GET_REQ_LEVEL(level=8, entity_id=Poko (ID: 17789021/0x010F705D))
 74: 0x0EA4 [0x52] END_LOAD_SCHEDULER: End scheduler "s030" with entities [EventEntity, EventEntity], work=711*
 75: 0x0EB3 [0x45] LOAD_SCHEDULED_TASK: Load scheduler "s026" with entities [EventEntity, EventEntity], work=[711*, 0*]
 76: 0x0EC4 [0x27] REQ_SET(priority=0x08, entity_id=Irmilant (ID: 17788974/0x010F702E), tag_num=0x20)
 77: 0x0ECB [0x2B] Weya Salmacha (ID: 17789020/0x010F705C) [11810*]:
    → "We found $1."
 78: 0x0ED2 [0x2A] GET_REQ_LEVEL(level=8, entity_id=Irmilant (ID: 17788974/0x010F702E))
 79: 0x0ED8 [0x23] WAIT_FOR_DIALOG_INTERACTION
 80: 0x0ED9 [0x2B] Weya Salmacha (ID: 17789020/0x010F705C) [11811*]:
    → "Now eat and compare!"
 81: 0x0EE0 [0x4A] LocalPlayer looks at Weya Salmacha (ID: 17789020/0x010F705C)
 82: 0x0EE9 [0x4A] Irmilant (ID: 17788974/0x010F702E) looks at Weya Salmacha (ID: 17789020/0x010F705C)
 83: 0x0EF2 [0x6F] WAIT_FRAME_DELAY: Yield until WaitTime reaches zero
 84: 0x0EF3 [0x76] CHECK_ENTITY_RENDER_FLAGS: Wait until LocalPlayer Render.Flags0 and Render.Flags3 conditions are met
 85: 0x0EF8 [0x6F] WAIT_FRAME_DELAY: Yield until WaitTime reaches zero
 86: 0x0EF9 [0x76] CHECK_ENTITY_RENDER_FLAGS: Wait until Irmilant (ID: 17788974/0x010F702E) Render.Flags0 and Render.Flags3 conditions are met
 87: 0x0EFE [0x2A] GET_REQ_LEVEL(level=8, entity_id=Weya Salmacha (ID: 17789020/0x010F705C))
 88: 0x0F04 [0x23] WAIT_FOR_DIALOG_INTERACTION
 89: 0x0F05 [0x4A] Weya Salmacha (ID: 17789020/0x010F705C) looks at LocalPlayer
 90: 0x0F0E [0x52] END_LOAD_SCHEDULER: End scheduler "s026" with entities [EventEntity, EventEntity], work=711*
 91: 0x0F1D [0x45] LOAD_SCHEDULED_TASK: Load scheduler "s029" with entities [EventEntity, EventEntity], work=[711*, 0*]
 92: 0x0F2E [0x6F] WAIT_FRAME_DELAY: Yield until WaitTime reaches zero
 93: 0x0F2F [0x76] CHECK_ENTITY_RENDER_FLAGS: Wait until Weya Salmacha (ID: 17789020/0x010F705C) Render.Flags0 and Render.Flags3 conditions are met
 94: 0x0F34 [0x27] REQ_SET(priority=0x08, entity_id=Weya Salmacha (ID: 17789020/0x010F705C), tag_num=0x11)
 95: 0x0F3B [0x2B] Weya Salmacha (ID: 17789020/0x010F705C) [11812*]:
    → "He likes eating alone. Please don't look."
 96: 0x0F42 [0x1C] WAIT(70* ticks)
 97: 0x0F45 [0x4B] UPDATE_ENTITY_YAW(entity=Irmilant (ID: 17788974/0x010F702E), yaw=14.6°*)
 98: 0x0F4C [0x6F] WAIT_FRAME_DELAY: Yield until WaitTime reaches zero
 99: 0x0F4D [0x76] CHECK_ENTITY_RENDER_FLAGS: Wait until Irmilant (ID: 17788974/0x010F702E) Render.Flags0 and Render.Flags3 conditions are met
100: 0x0F52 [0x1C] WAIT(30* ticks)
101: 0x0F55 [0x4B] UPDATE_ENTITY_YAW(entity=LocalPlayer, yaw=13.9°*)
102: 0x0F5C [0x6F] WAIT_FRAME_DELAY: Yield until WaitTime reaches zero
103: 0x0F5D [0x76] CHECK_ENTITY_RENDER_FLAGS: Wait until LocalPlayer Render.Flags0 and Render.Flags3 conditions are met
104: 0x0F62 [0x1C] WAIT(40* ticks)
105: 0x0F65 [0x2A] GET_REQ_LEVEL(level=8, entity_id=Weya Salmacha (ID: 17789020/0x010F705C))
106: 0x0F6B [0x23] WAIT_FOR_DIALOG_INTERACTION
107: 0x0F6C [0x52] END_LOAD_SCHEDULER: End scheduler "s029" with entities [EventEntity, EventEntity], work=711*
108: 0x0F7B [0x45] LOAD_SCHEDULED_TASK: Load scheduler "s027" with entities [EventEntity, EventEntity], work=[711*, 0*]
109: 0x0F8C [0x7B] Weya Salmacha (ID: 17789020/0x010F705C) stops talking
110: 0x0F91 [0x81] SET_ENTITY_BLINKING(blink_flag=0x00, entity=Weya Salmacha (ID: 17789020/0x010F705C))
111: 0x0F97 [0x27] REQ_SET(priority=0x08, entity_id=Weya Salmacha (ID: 17789020/0x010F705C), tag_num=0x0A)
112: 0x0F9E [0x2B] Weya Salmacha (ID: 17789020/0x010F705C) [11813*]:
    → "First, the $1. ... [Aha./Mm hmm./Well, well./I wonder.../I see.]"
113: 0x0FA5 [0x2A] GET_REQ_LEVEL(level=8, entity_id=Weya Salmacha (ID: 17789020/0x010F705C))
114: 0x0FAB [0x23] WAIT_FOR_DIALOG_INTERACTION
115: 0x0FAC [0x4A] Poko (ID: 17789021/0x010F705D) looks at Weya Salmacha (ID: 17789020/0x010F705C)
116: 0x0FB5 [0x52] END_LOAD_SCHEDULER: End scheduler "s027" with entities [EventEntity, EventEntity], work=711*
117: 0x0FC4 [0x45] LOAD_SCHEDULED_TASK: Load scheduler "s028" with entities [EventEntity, EventEntity], work=[711*, 0*]
118: 0x0FD5 [0x6F] WAIT_FRAME_DELAY: Yield until WaitTime reaches zero
119: 0x0FD6 [0x76] CHECK_ENTITY_RENDER_FLAGS: Wait until Poko (ID: 17789021/0x010F705D) Render.Flags0 and Render.Flags3 conditions are met
120: 0x0FDB [0x81] SET_ENTITY_BLINKING(blink_flag=0x01, entity=Weya Salmacha (ID: 17789020/0x010F705C))
121: 0x0FE1 [0x79] Weya Salmacha (ID: 17789020/0x010F705C) looks at LocalPlayer (Basic look)
122: 0x0FEB [0x29] REQ_SET_WAIT(priority=0x08, entity_id=Weya Salmacha (ID: 17789020/0x010F705C), tag_num=0x0B)
123: 0x0FF2 [0x4A] Weya Salmacha (ID: 17789020/0x010F705C) looks at Poko (ID: 17789021/0x010F705D)
124: 0x0FFB [0x6F] WAIT_FRAME_DELAY: Yield until WaitTime reaches zero
125: 0x0FFC [0x76] CHECK_ENTITY_RENDER_FLAGS: Wait until Weya Salmacha (ID: 17789020/0x010F705C) Render.Flags0 and Render.Flags3 conditions are met
126: 0x1001 [0x1C] WAIT(20* ticks)
127: 0x1004 [0x1A] CALL_SUBROUTINE(address=0x0064)
128: 0x1007 [0x52] END_LOAD_SCHEDULER: End scheduler "s028" with entities [EventEntity, EventEntity], work=711*
129: 0x1016 [0x29] REQ_SET_WAIT(priority=0x08, entity_id=Weya Salmacha (ID: 17789020/0x010F705C), tag_num=0x13)
130: 0x101D [0x2B] Weya Salmacha (ID: 17789020/0x010F705C) [11814*]:
    → "Yes! Very yummy!"
131: 0x1024 [0x1C] WAIT(70* ticks)
132: 0x1027 [0x23] WAIT_FOR_DIALOG_INTERACTION
133: 0x1028 [0x45] LOAD_SCHEDULED_TASK: Load scheduler "s034" with entities [EventEntity, EventEntity], work=[711*, 0*]
134: 0x1039 [0x1C] WAIT(15* ticks)
135: 0x103C [0x27] REQ_SET(priority=0x08, entity_id=Weya Salmacha (ID: 17789020/0x010F705C), tag_num=0x10)
136: 0x1043 [0x1A] CALL_SUBROUTINE(address=0x0043)
137: 0x1046 [0x1C] WAIT(20* ticks)
138: 0x1049 [0x4A] LocalPlayer looks at Weya Salmacha (ID: 17789020/0x010F705C)
139: 0x1052 [0x6F] WAIT_FRAME_DELAY: Yield until WaitTime reaches zero
140: 0x1053 [0x76] CHECK_ENTITY_RENDER_FLAGS: Wait until LocalPlayer Render.Flags0 and Render.Flags3 conditions are met
141: 0x1058 [0x1C] WAIT(35* ticks)
142: 0x105B [0x4A] Irmilant (ID: 17788974/0x010F702E) looks at Weya Salmacha (ID: 17789020/0x010F705C)
143: 0x1064 [0x6F] WAIT_FRAME_DELAY: Yield until WaitTime reaches zero
144: 0x1065 [0x76] CHECK_ENTITY_RENDER_FLAGS: Wait until Irmilant (ID: 17788974/0x010F702E) Render.Flags0 and Render.Flags3 conditions are met
145: 0x106A [0x1C] WAIT(120* ticks)
146: 0x106D [0x2A] GET_REQ_LEVEL(level=8, entity_id=Weya Salmacha (ID: 17789020/0x010F705C))
147: 0x1073 [0x4A] Weya Salmacha (ID: 17789020/0x010F705C) looks at Irmilant (ID: 17788974/0x010F702E)
148: 0x107C [0x6F] WAIT_FRAME_DELAY: Yield until WaitTime reaches zero
149: 0x107D [0x76] CHECK_ENTITY_RENDER_FLAGS: Wait until Weya Salmacha (ID: 17789020/0x010F705C) Render.Flags0 and Render.Flags3 conditions are met
150: 0x1082 [0x1C] WAIT(30* ticks)
151: 0x1085 [0x2B] Weya Salmacha (ID: 17789020/0x010F705C) [11815*]:
    → "Hmmm?"
152: 0x108C [0x23] WAIT_FOR_DIALOG_INTERACTION
153: 0x108D [0x1C] WAIT(45* ticks)
154: 0x1090 [0x52] END_LOAD_SCHEDULER: End scheduler "s034" with entities [EventEntity, EventEntity], work=711*
155: 0x109F [0x45] LOAD_SCHEDULED_TASK: Load scheduler "s031" with entities [EventEntity, EventEntity], work=[711*, 0*]
156: 0x10B0 [0x27] REQ_SET(priority=0x08, entity_id=Weya Salmacha (ID: 17789020/0x010F705C), tag_num=0x0C)
157: 0x10B7 [0x2B] Weya Salmacha (ID: 17789020/0x010F705C) [11816*]:
    → "The birdie says that. Not me."
158: 0x10BE [0x2A] GET_REQ_LEVEL(level=8, entity_id=Weya Salmacha (ID: 17789020/0x010F705C))
159: 0x10C4 [0x23] WAIT_FOR_DIALOG_INTERACTION
160: 0x10C5 [0x2B] Weya Salmacha (ID: 17789020/0x010F705C) [11817*]:
    → "Now yours. Gimme the $0."
161: 0x10CC [0x23] WAIT_FOR_DIALOG_INTERACTION
162: 0x10CD [0x27] REQ_SET(priority=0x08, entity_id=Irmilant (ID: 17788974/0x010F702E), tag_num=0x16)
163: 0x10D4 [0x2A] GET_REQ_LEVEL(level=8, entity_id=Irmilant (ID: 17788974/0x010F702E))
164: 0x10DA [0x1C] WAIT(50* ticks)
165: 0x10DD [0x4A] Weya Salmacha (ID: 17789020/0x010F705C) looks at LocalPlayer
166: 0x10E6 [0x52] END_LOAD_SCHEDULER: End scheduler "s031" with entities [EventEntity, EventEntity], work=711*
167: 0x10F5 [0x45] LOAD_SCHEDULED_TASK: Load scheduler "s029" with entities [EventEntity, EventEntity], work=[711*, 0*]
168: 0x1106 [0x6F] WAIT_FRAME_DELAY: Yield until WaitTime reaches zero
169: 0x1107 [0x76] CHECK_ENTITY_RENDER_FLAGS: Wait until Weya Salmacha (ID: 17789020/0x010F705C) Render.Flags0 and Render.Flags3 conditions are met
170: 0x110C [0x27] REQ_SET(priority=0x08, entity_id=Weya Salmacha (ID: 17789020/0x010F705C), tag_num=0x11)
171: 0x1113 [0x2B] Weya Salmacha (ID: 17789020/0x010F705C) [11812*]:
    → "He likes eating alone. Please don't look."
172: 0x111A [0x1C] WAIT(70* ticks)
173: 0x111D [0x4B] UPDATE_ENTITY_YAW(entity=Irmilant (ID: 17788974/0x010F702E), yaw=14.6°*)
174: 0x1124 [0x6F] WAIT_FRAME_DELAY: Yield until WaitTime reaches zero
175: 0x1125 [0x76] CHECK_ENTITY_RENDER_FLAGS: Wait until Irmilant (ID: 17788974/0x010F702E) Render.Flags0 and Render.Flags3 conditions are met
176: 0x112A [0x1C] WAIT(30* ticks)
177: 0x112D [0x4B] UPDATE_ENTITY_YAW(entity=LocalPlayer, yaw=13.9°*)
178: 0x1134 [0x6F] WAIT_FRAME_DELAY: Yield until WaitTime reaches zero
179: 0x1135 [0x76] CHECK_ENTITY_RENDER_FLAGS: Wait until LocalPlayer Render.Flags0 and Render.Flags3 conditions are met
180: 0x113A [0x1C] WAIT(40* ticks)
181: 0x113D [0x2A] GET_REQ_LEVEL(level=8, entity_id=Weya Salmacha (ID: 17789020/0x010F705C))
182: 0x1143 [0x23] WAIT_FOR_DIALOG_INTERACTION
183: 0x1144 [0x52] END_LOAD_SCHEDULER: End scheduler "s029" with entities [EventEntity, EventEntity], work=711*
184: 0x1153 [0x45] LOAD_SCHEDULED_TASK: Load scheduler "s028" with entities [EventEntity, EventEntity], work=[711*, 0*]
185: 0x1164 [0x4A] Weya Salmacha (ID: 17789020/0x010F705C) looks at Poko (ID: 17789021/0x010F705D)
186: 0x116D [0x6F] WAIT_FRAME_DELAY: Yield until WaitTime reaches zero
187: 0x116E [0x76] CHECK_ENTITY_RENDER_FLAGS: Wait until Weya Salmacha (ID: 17789020/0x010F705C) Render.Flags0 and Render.Flags3 conditions are met
188: 0x1173 [0x1C] WAIT(20* ticks)
189: 0x1176 [0x1A] CALL_SUBROUTINE(address=0x0064)
190: 0x1179 [0x52] END_LOAD_SCHEDULER: End scheduler "s028" with entities [EventEntity, EventEntity], work=711*
191: 0x1188 [0x29] REQ_SET_WAIT(priority=0x08, entity_id=Weya Salmacha (ID: 17789020/0x010F705C), tag_num=0x13)
192: 0x118F [0x2B] Weya Salmacha (ID: 17789020/0x010F705C) [11818*]:
    → "Oooh, this is... [Quite yummy!/Perfectly flavored!/Sweet yet savory!/Bold aftertaste!/Soft as silk!]"
193: 0x1196 [0x1C] WAIT(70* ticks)
194: 0x1199 [0x23] WAIT_FOR_DIALOG_INTERACTION
195: 0x119A [0x45] LOAD_SCHEDULED_TASK: Load scheduler "s034" with entities [EventEntity, EventEntity], work=[711*, 0*]
196: 0x11AB [0x1C] WAIT(15* ticks)
197: 0x11AE [0x27] REQ_SET(priority=0x08, entity_id=Weya Salmacha (ID: 17789020/0x010F705C), tag_num=0x0D)
198: 0x11B5 [0x1A] CALL_SUBROUTINE(address=0x0043)
199: 0x11B8 [0x2B] Weya Salmacha (ID: 17789020/0x010F705C) [11819*]:
    → "I feel... [Happy pricklies!/Warm and comfy!/At peace!/Refreshed!/Invigorated!]"
200: 0x11BF [0x2A] GET_REQ_LEVEL(level=8, entity_id=Weya Salmacha (ID: 17789020/0x010F705C))
201: 0x11C5 [0x23] WAIT_FOR_DIALOG_INTERACTION
202: 0x11C6 [0x2B] Weya Salmacha (ID: 17789020/0x010F705C) [11820*]:
    → "Such yummy fish... I never knew."
203: 0x11CD [0x23] WAIT_FOR_DIALOG_INTERACTION
204: 0x11CE [0x27] REQ_SET(priority=0x08, entity_id=Weya Salmacha (ID: 17789020/0x010F705C), tag_num=0x0E)
205: 0x11D5 [0x2B] Weya Salmacha (ID: 17789020/0x010F705C) [11821*]:
    → "It's a new world!"
206: 0x11DC [0x1C] WAIT(20* ticks)
207: 0x11DF [0x4A] LocalPlayer looks at Weya Salmacha (ID: 17789020/0x010F705C)
208: 0x11E8 [0x6F] WAIT_FRAME_DELAY: Yield until WaitTime reaches zero
209: 0x11E9 [0x76] CHECK_ENTITY_RENDER_FLAGS: Wait until LocalPlayer Render.Flags0 and Render.Flags3 conditions are met
210: 0x11EE [0x1C] WAIT(35* ticks)
211: 0x11F1 [0x4A] Irmilant (ID: 17788974/0x010F702E) looks at Weya Salmacha (ID: 17789020/0x010F705C)
212: 0x11FA [0x6F] WAIT_FRAME_DELAY: Yield until WaitTime reaches zero
213: 0x11FB [0x76] CHECK_ENTITY_RENDER_FLAGS: Wait until Irmilant (ID: 17788974/0x010F702E) Render.Flags0 and Render.Flags3 conditions are met
214: 0x1200 [0x2A] GET_REQ_LEVEL(level=8, entity_id=Weya Salmacha (ID: 17789020/0x010F705C))
215: 0x1206 [0x23] WAIT_FOR_DIALOG_INTERACTION
216: 0x1207 [0x52] END_LOAD_SCHEDULER: End scheduler "s034" with entities [EventEntity, EventEntity], work=711*
217: 0x1216 [0x45] LOAD_SCHEDULED_TASK: Load scheduler "efon" with entities [EventEntity, EventEntity], work=[711*, 0*]
218: 0x1227 [0xBB] LOAD_EVENT_SCHEDULER_ALT: Load scheduler "sef0" with entities [EventEntity, EventEntity], work=[206*, 0*]
219: 0x1238 [0x45] LOAD_SCHEDULED_TASK: Load scheduler "s032" with entities [EventEntity, EventEntity], work=[711*, 0*]
220: 0x1249 [0x2B] Weya Salmacha (ID: 17789020/0x010F705C) [11822*]:
    → "My life has meaning!"
221: 0x1250 [0x23] WAIT_FOR_DIALOG_INTERACTION
222: 0x1251 [0x1C] WAIT(23* ticks)
223: 0x1254 [0x27] REQ_SET(priority=0x08, entity_id=Weya Salmacha (ID: 17789020/0x010F705C), tag_num=0x10)
224: 0x125B [0x1C] WAIT(160* ticks)
225: 0x125E [0x52] END_LOAD_SCHEDULER: End scheduler "s032" with entities [EventEntity, EventEntity], work=711*
226: 0x126D [0xBB] LOAD_EVENT_SCHEDULER_ALT: Load scheduler "kils" with entities [EventEntity, EventEntity], work=[206*, 0*]
227: 0x127E [0x45] LOAD_SCHEDULED_TASK: Load scheduler "efof" with entities [EventEntity, EventEntity], work=[711*, 0*]
228: 0x128F [0x45] LOAD_SCHEDULED_TASK: Load scheduler "s033" with entities [EventEntity, EventEntity], work=[711*, 0*]
229: 0x12A0 [0x2A] GET_REQ_LEVEL(level=8, entity_id=Weya Salmacha (ID: 17789020/0x010F705C))
230: 0x12A6 [0x4A] Weya Salmacha (ID: 17789020/0x010F705C) looks at Irmilant (ID: 17788974/0x010F702E)
231: 0x12AF [0x6F] WAIT_FRAME_DELAY: Yield until WaitTime reaches zero
232: 0x12B0 [0x76] CHECK_ENTITY_RENDER_FLAGS: Wait until Weya Salmacha (ID: 17789020/0x010F705C) Render.Flags0 and Render.Flags3 conditions are met
233: 0x12B5 [0x1C] WAIT(30* ticks)
234: 0x12B8 [0x2B] Weya Salmacha (ID: 17789020/0x010F705C) [11815*]:
    → "Hmmm?"
235: 0x12BF [0x23] WAIT_FOR_DIALOG_INTERACTION
236: 0x12C0 [0x1C] WAIT(45* ticks)
237: 0x12C3 [0x27] REQ_SET(priority=0x08, entity_id=Weya Salmacha (ID: 17789020/0x010F705C), tag_num=0x0C)
238: 0x12CA [0x2B] Weya Salmacha (ID: 17789020/0x010F705C) [11816*]:
    → "The birdie says that. Not me."
239: 0x12D1 [0x2A] GET_REQ_LEVEL(level=8, entity_id=Weya Salmacha (ID: 17789020/0x010F705C))
240: 0x12D7 [0x23] WAIT_FOR_DIALOG_INTERACTION
241: 0x12D8 [0x4A] Weya Salmacha (ID: 17789020/0x010F705C) looks at LocalPlayer
242: 0x12E1 [0x52] END_LOAD_SCHEDULER: End scheduler "s033" with entities [EventEntity, EventEntity], work=711*
243: 0x12F0 [0x45] LOAD_SCHEDULED_TASK: Load scheduler "s035" with entities [EventEntity, EventEntity], work=[711*, 0*]
244: 0x1301 [0x6F] WAIT_FRAME_DELAY: Yield until WaitTime reaches zero
245: 0x1302 [0x76] CHECK_ENTITY_RENDER_FLAGS: Wait until Weya Salmacha (ID: 17789020/0x010F705C) Render.Flags0 and Render.Flags3 conditions are met
246: 0x1307 [0x0B] Work_Zone[6]++
247: 0x130A [0x02] IF !(Work_Zone[6] < 5*) GOTO 0x1742
248: 0x1312 [0x81] SET_ENTITY_BLINKING(blink_flag=0x00, entity=Weya Salmacha (ID: 17789020/0x010F705C))
249: 0x1318 [0x7B] Weya Salmacha (ID: 17789020/0x010F705C) stops talking
250: 0x131D [0x27] REQ_SET(priority=0x08, entity_id=Weya Salmacha (ID: 17789020/0x010F705C), tag_num=0x0A)
251: 0x1324 [0x2B] Weya Salmacha (ID: 17789020/0x010F705C) [11828*]:
    → "That's it! I give up! Good [fisherman/fisherwoman] you are."
