# 17789079

## Common Data

| Field            | Value           |
|------------------|-----------------|
| Zone             | Rabao (ID: 247) |
| Block Size       | 12772 bytes     |
| Total Events     | 12              |
| References Count | 343             |

## List of Events

| Event ID              | Entrypoint   |   Size |   Instructions |
|-----------------------|--------------|--------|----------------|
| [65535](#event-65535) | 0x0000       |      1 |              1 |
| [2000](#event-2000)   | 0x0001       |   1011 |            166 |
| [2001](#event-2001)   | 0x03F4       |   5761 |            978 |
| [2002](#event-2002)   | 0x1A75       |    163 |             30 |
| [2003](#event-2003)   | 0x1B18       |    163 |             30 |
| [2006](#event-2006)   | 0x1BBB       |     99 |             21 |
| [2004](#event-2004)   | 0x1C1E       |    794 |            130 |
| [2007](#event-2007)   | 0x1F38       |     54 |             10 |
| [2005](#event-2005)   | 0x1F6E       |    418 |             71 |
| [2008](#event-2008)   | 0x2110       |     70 |             14 |
| [2009](#event-2009)   | 0x2156       |    131 |             24 |
| [2010](#event-2010)   | 0x21D9       |   2669 |            506 |

## DAT References (imed_data)

|   Index | Hex Value   |   Dec Value |
|---------|-------------|-------------|
|       0 | 0x003C      |          60 |
|       1 | 0x2F6A      |       12138 |
|       2 | 0x2F6B      |       12139 |
|       3 | 0x0000      |           0 |
|       4 | 0x0020      |          32 |
|       5 | 0x2F6C      |       12140 |
|       6 | 0x2F6D      |       12141 |
|       7 | 0x0001      |           1 |
|       8 | 0x0007      |           7 |
|       9 | 0x2F6E      |       12142 |
|      10 | 0x2F6F      |       12143 |
|      11 | 0x2F70      |       12144 |
|      12 | 0x0006      |           6 |
|      13 | 0x2F71      |       12145 |
|      14 | 0x2F72      |       12146 |
|      15 | 0x2F73      |       12147 |
|      16 | 0x2F74      |       12148 |
|      17 | 0x2F75      |       12149 |
|      18 | 0x2F76      |       12150 |
|      19 | 0x2F77      |       12151 |
|      20 | 0x2F78      |       12152 |
|      21 | 0x2F79      |       12153 |
|      22 | 0x2F7A      |       12154 |
|      23 | 0x0002      |           2 |
|      24 | 0x0014      |          20 |
|      25 | 0x2F7B      |       12155 |
|      26 | 0x2710      |       10000 |
|      27 | 0x2F7C      |       12156 |
|      28 | 0x2F7E      |       12158 |
|      29 | 0x000A      |          10 |
|      30 | 0x2F7D      |       12157 |
|      31 | 0x2F7F      |       12159 |
|      32 | 0x0C8C      |        3212 |
|      33 | 0x2F80      |       12160 |
|      34 | 0x2F82      |       12162 |
|      35 | 0x2F83      |       12163 |
|      36 | 0x2F84      |       12164 |
|      37 | 0x001E      |          30 |
|      38 | 0x2F85      |       12165 |
|      39 | 0x2F86      |       12166 |
|      40 | 0x2F87      |       12167 |
|      41 | 0x2F88      |       12168 |
|      42 | 0x2F92      |       12178 |
|      43 | 0x2F93      |       12179 |
|      44 | 0x2F94      |       12180 |
|      45 | 0x2F95      |       12181 |
|      46 | 0x2F96      |       12182 |
|      47 | 0x2F97      |       12183 |
|      48 | 0x0003      |           3 |
|      49 | 0x2F89      |       12169 |
|      50 | 0x2F8A      |       12170 |
|      51 | 0x2F8C      |       12172 |
|      52 | 0x2F8B      |       12171 |
|      53 | 0x0004      |           4 |
|      54 | 0x2F8D      |       12173 |
|      55 | 0x2F8E      |       12174 |
|      56 | 0x2F81      |       12161 |
|      57 | 0x2F8F      |       12175 |
|      58 | 0x2F90      |       12176 |
|      59 | 0x0008      |           8 |
|      60 | 0x000F      |          15 |
|      61 | 0x0010      |          16 |
|      62 | 0x0017      |          23 |
|      63 | 0x0018      |          24 |
|      64 | 0x001F      |          31 |
|      65 | 0x0013      |          19 |
|      66 | 0x2F91      |       12177 |
|      67 | 0x0005      |           5 |
|      68 | 0x2F98      |       12184 |
|      69 | 0x000B      |          11 |
|      70 | 0x2F99      |       12185 |
|      71 | 0x2F9A      |       12186 |
|      72 | 0x0009      |           9 |
|      73 | 0x0011      |          17 |
|      74 | 0x0028      |          40 |
|      75 | 0x0016      |          22 |
|      76 | 0x2FE8      |       12264 |
|      77 | 0x2FEA      |       12266 |
|      78 | 0x2FEB      |       12267 |
|      79 | 0x2FEC      |       12268 |
|      80 | 0x2FAD      |       12205 |
|      81 | 0x2FED      |       12269 |
|      82 | 0x2FAF      |       12207 |
|      83 | 0x0012      |          18 |
|      84 | 0x2FF6      |       12278 |
|      85 | 0x0CA2      |        3234 |
|      86 | 0x2FC0      |       12224 |
|      87 | 0x2FC2      |       12226 |
|      88 | 0x2FC4      |       12228 |
|      89 | 0x2FC5      |       12229 |
|      90 | 0x2FC6      |       12230 |
|      91 | 0x2FC7      |       12231 |
|      92 | 0x2FC9      |       12233 |
|      93 | 0x2FCA      |       12234 |
|      94 | 0x2FCE      |       12238 |
|      95 | 0x2FD1      |       12241 |
|      96 | 0x2FD2      |       12242 |
|      97 | 0x2FD3      |       12243 |
|      98 | 0x2FD4      |       12244 |
|      99 | 0x2FD5      |       12245 |
|     100 | 0x2FD6      |       12246 |
|     101 | 0x2FAA      |       12202 |
|     102 | 0x0CA3      |        3235 |
|     103 | 0x0CA4      |        3236 |
|     104 | 0x0BB8      |        3000 |
|     105 | 0x2FB0      |       12208 |
|     106 | 0x000C      |          12 |
|     107 | 0x01F4      |         500 |
|     108 | 0x0063      |          99 |
|     109 | 0x0FF6      |        4086 |
|     110 | 0x2FAE      |       12206 |
|     111 | 0x000D      |          13 |
|     112 | 0x02EE      |         750 |
|     113 | 0x0FF7      |        4087 |
|     114 | 0x03E8      |        1000 |
|     115 | 0x0FF8      |        4088 |
|     116 | 0x05DC      |        1500 |
|     117 | 0x19D0      |        6608 |
|     118 | 0x000E      |          14 |
|     119 | 0x2FF3      |       12275 |
|     120 | 0x0015      |          21 |
|     121 | 0x2FF4      |       12276 |
|     122 | 0x2FE9      |       12265 |
|     123 | 0x2FE2      |       12258 |
|     124 | 0x2FE3      |       12259 |
|     125 | 0x2FE4      |       12260 |
|     126 | 0x2FE5      |       12261 |
|     127 | 0x2F9C      |       12188 |
|     128 | 0x2F9D      |       12189 |
|     129 | 0x2F9E      |       12190 |
|     130 | 0x2F9F      |       12191 |
|     131 | 0x2FA0      |       12192 |
|     132 | 0x2FA1      |       12193 |
|     133 | 0x2FA2      |       12194 |
|     134 | 0x2FA3      |       12195 |
|     135 | 0x2FA4      |       12196 |
|     136 | 0x2FA5      |       12197 |
|     137 | 0x2FA6      |       12198 |
|     138 | 0x2FA7      |       12199 |
|     139 | 0x2FA8      |       12200 |
|     140 | 0x2FA9      |       12201 |
|     141 | 0x2FAB      |       12203 |
|     142 | 0x2FAC      |       12204 |
|     143 | 0x2FB1      |       12209 |
|     144 | 0x2FB2      |       12210 |
|     145 | 0x070E      |        1806 |
|     146 | 0x2FB3      |       12211 |
|     147 | 0x2FB4      |       12212 |
|     148 | 0x2FB5      |       12213 |
|     149 | 0x2FB6      |       12214 |
|     150 | 0x2FB7      |       12215 |
|     151 | 0x2FB8      |       12216 |
|     152 | 0x2FB9      |       12217 |
|     153 | 0x2FBA      |       12218 |
|     154 | 0x2FBB      |       12219 |
|     155 | 0x2FBC      |       12220 |
|     156 | 0x2FBD      |       12221 |
|     157 | 0x2FBE      |       12222 |
|     158 | 0x2FBF      |       12223 |
|     159 | 0x2FC1      |       12225 |
|     160 | 0x2FC3      |       12227 |
|     161 | 0x2FCB      |       12235 |
|     162 | 0x2FCC      |       12236 |
|     163 | 0x2FCD      |       12237 |
|     164 | 0x2FCF      |       12239 |
|     165 | 0x2FD0      |       12240 |
|     166 | 0x2FD7      |       12247 |
|     167 | 0x2FD8      |       12248 |
|     168 | 0x2FE6      |       12262 |
|     169 | 0x2FEE      |       12270 |
|     170 | 0x2FF5      |       12277 |
|     171 | 0x2FEF      |       12271 |
|     172 | 0x2FF0      |       12272 |
|     173 | 0x2FD9      |       12249 |
|     174 | 0x2FDA      |       12250 |
|     175 | 0x2FDB      |       12251 |
|     176 | 0x2FDC      |       12252 |
|     177 | 0x2FDD      |       12253 |
|     178 | 0x2FDE      |       12254 |
|     179 | 0x2FDF      |       12255 |
|     180 | 0x2FE0      |       12256 |
|     181 | 0x2FE1      |       12257 |
|     182 | 0x1D4C0     |      120000 |
|     183 | 0x1F40      |        8000 |
|     184 | 0x0079      |         121 |
|     185 | 0x0032      |          50 |
|     186 | 0x0046      |          70 |
|     187 | 0x0064      |         100 |
|     188 | 0x0096      |         150 |
|     189 | 0x00C8      |         200 |
|     190 | 0x012C      |         300 |
|     191 | 0x0190      |         400 |
|     192 | 0x028A      |         650 |
|     193 | 0x0320      |         800 |
|     194 | 0x03B6      |         950 |
|     195 | 0x044C      |        1100 |
|     196 | 0x0514      |        1300 |
|     197 | 0x00FA      |         250 |
|     198 | 0x015E      |         350 |
|     199 | 0x01C2      |         450 |
|     200 | 0x0258      |         600 |
|     201 | 0x02BC      |         700 |
|     202 | 0x04E2      |        1250 |
|     203 | 0x0578      |        1400 |
|     204 | 0x0640      |        1600 |
|     205 | 0x001C      |          28 |
|     206 | 0x0022      |          34 |
|     207 | 0x0029      |          41 |
|     208 | 0x0030      |          48 |
|     209 | 0x0038      |          56 |
|     210 | 0x0041      |          65 |
|     211 | 0x004B      |          75 |
|     212 | 0x0056      |          86 |
|     213 | 0x0062      |          98 |
|     214 | 0x006F      |         111 |
|     215 | 0x007D      |         125 |
|     216 | 0x008D      |         141 |
|     217 | 0x009E      |         158 |
|     218 | 0x00B0      |         176 |
|     219 | 0x00C4      |         196 |
|     220 | 0x00D9      |         217 |
|     221 | 0x00F0      |         240 |
|     222 | 0x0109      |         265 |
|     223 | 0x0123      |         291 |
|     224 | 0x00A0      |         160 |
|     225 | 0x0154      |         340 |
|     226 | 0x01B8      |         440 |
|     227 | 0x0230      |         560 |
|     228 | 0x02A8      |         680 |
|     229 | 0x0334      |         820 |
|     230 | 0x03C0      |         960 |
|     231 | 0x0460      |        1120 |
|     232 | 0x06B8      |        1720 |
|     233 | 0x07A8      |        1960 |
|     234 | 0x08AC      |        2220 |
|     235 | 0x09C4      |        2500 |
|     236 | 0x0B04      |        2820 |
|     237 | 0x0C58      |        3160 |
|     238 | 0x0DC0      |        3520 |
|     239 | 0x0F50      |        3920 |
|     240 | 0x10F4      |        4340 |
|     241 | 0x12C0      |        4800 |
|     242 | 0x14B4      |        5300 |
|     243 | 0x16BC      |        5820 |
|     244 | 0x005A      |          90 |
|     245 | 0x008C      |         140 |
|     246 | 0x00D2      |         210 |
|     247 | 0x0186      |         390 |
|     248 | 0x0262      |         610 |
|     249 | 0x02DA      |         730 |
|     250 | 0x035C      |         860 |
|     251 | 0x0492      |        1170 |
|     252 | 0x0546      |        1350 |
|     253 | 0x0604      |        1540 |
|     254 | 0x06E0      |        1760 |
|     255 | 0x07C6      |        1990 |
|     256 | 0x08CA      |        2250 |
|     257 | 0x09E2      |        2530 |
|     258 | 0x0B18      |        2840 |
|     259 | 0x0F3C      |        3900 |
|     260 | 0x10E0      |        4320 |
|     261 | 0x12A2      |        4770 |
|     262 | 0x146E      |        5230 |
|     263 | 0x0050      |          80 |
|     264 | 0x0078      |         120 |
|     265 | 0x00BE      |         190 |
|     266 | 0x010E      |         270 |
|     267 | 0x021C      |         540 |
|     268 | 0x02F8      |         760 |
|     269 | 0x037A      |         890 |
|     270 | 0x0410      |        1040 |
|     271 | 0x04B0      |        1200 |
|     272 | 0x055A      |        1370 |
|     273 | 0x0618      |        1560 |
|     274 | 0x06EA      |        1770 |
|     275 | 0x07D0      |        2000 |
|     276 | 0x09D8      |        2520 |
|     277 | 0x0AFA      |        2810 |
|     278 | 0x0C3A      |        3130 |
|     279 | 0x0D8E      |        3470 |
|     280 | 0x0F00      |        3840 |
|     281 | 0x1090      |        4240 |
|     282 | 0x122A      |        4650 |
|     283 | 0x53B6      |       21430 |
|     284 | 0x53B8      |       21432 |
|     285 | 0x53B9      |       21433 |
|     286 | 0x53B7      |       21431 |
|     287 | 0x5440      |       21568 |
|     288 | 0x55A6      |       21926 |
|     289 | 0x6604      |       26116 |
|     290 | 0x666A      |       26218 |
|     291 | 0x66FA      |       26362 |
|     292 | 0x66FB      |       26363 |
|     293 | 0x54DB      |       21723 |
|     294 | 0x557C      |       21884 |
|     295 | 0x55A5      |       21925 |
|     296 | 0x5CCB      |       23755 |
|     297 | 0x5CD2      |       23762 |
|     298 | 0x5CD9      |       23769 |
|     299 | 0x5CE0      |       23776 |
|     300 | 0x5CE7      |       23783 |
|     301 | 0x543F      |       21567 |
|     302 | 0x55DB      |       21979 |
|     303 | 0x5686      |       22150 |
|     304 | 0x5CCC      |       23756 |
|     305 | 0x5CD3      |       23763 |
|     306 | 0x5CDA      |       23770 |
|     307 | 0x5CE1      |       23777 |
|     308 | 0x5CE8      |       23784 |
|     309 | 0x5417      |       21527 |
|     310 | 0x5485      |       21637 |
|     311 | 0x5CCD      |       23757 |
|     312 | 0x5CD4      |       23764 |
|     313 | 0x5CDB      |       23771 |
|     314 | 0x5CE2      |       23778 |
|     315 | 0x5CE9      |       23785 |
|     316 | 0x54AB      |       21675 |
|     317 | 0x54DC      |       21724 |
|     318 | 0x5548      |       21832 |
|     319 | 0x5CCF      |       23759 |
|     320 | 0x5CD6      |       23766 |
|     321 | 0x5CDD      |       23773 |
|     322 | 0x5CE4      |       23780 |
|     323 | 0x5CEB      |       23787 |
|     324 | 0x5514      |       21780 |
|     325 | 0x5619      |       22041 |
|     326 | 0x5CD0      |       23760 |
|     327 | 0x5CD7      |       23767 |
|     328 | 0x5CDE      |       23774 |
|     329 | 0x5CE5      |       23781 |
|     330 | 0x5CEC      |       23788 |
|     331 | 0x5654      |       22100 |
|     332 | 0x5687      |       22151 |
|     333 | 0x5CCE      |       23758 |
|     334 | 0x5CD5      |       23765 |
|     335 | 0x5CDC      |       23772 |
|     336 | 0x5CE3      |       23779 |
|     337 | 0x5CEA      |       23786 |
|     338 | 0x5CD1      |       23761 |
|     339 | 0x5CD8      |       23768 |
|     340 | 0x5CDF      |       23775 |
|     341 | 0x5CE6      |       23782 |
|     342 | 0x5CED      |       23789 |

## String References

- **12139**: Ask about veridical confluxes? [What are they?/I know what they are.]
- **12143**: Have you met Kupofried? [Of course./Kupo-who?]
- **12148**: How do you respond? [Sure am./Not really.]
- **12155**: What will you do? [Sounds easy enough./Not my problem./Really, why should I care?]
- **12170**: Inquire about what? [I want $6./Tell me more./Give me a status report./Learn about Sheol: Gaol.@/Mog Segment exchange list./Equipment for purchase.@/Augments./Nothing for now.]
- **12176**: View which? [Sheol A./Sheol B./Sheol C./Moogle Mastery./Sheol: Gaol. /Back.]
- **12177**: Defeated foes and opened chests: [All nostos: $0./Tipuli: $1./Brachys: $2./Dione: $3./Gloios: $4./Damysus: $5./Aegypius: $6./Salmandra: $7./Ailuros: $8./Megaera: $9./Eurytus: $10./Harpe: $11./Kusarikku: $12./Leucippe:$13./Cynara: $14./Ptelea: $15./Physis: $16./Chests: $17./Coffers: $18./Aurum Strongboxes: $19./Back.]
- **12184**: Defeated foes and opened chests: [All Nostos: $0./Man-kheper-re: $1./Zacatzontli: $2./Gandji: $3./Bendigeidfran: $4./Kuk: $5./Shara: $6./Tabitjet: $7./Langmeidong: $8./Gravehaunter: $9./Ptesan Wi: $10./Chelamma: $11./Azdaha: $12./Nerites: $13./Allergorhai: $14./Bes: $15./Spyrysyon: $16./Taniwha: $17./Fleet-footed Lokberry: $18./Apollinaris VII-II: $19./Simir: $20./Count Malefis: $21./Akidu: $22./Fornax: $23./Ishum: $24./Maverick Maude: $25./Chnubis: $26./Tripix: $27./Chests: $28./Coffers: $29./Aurum Strongboxes:$30./Back.]
- **12185**: Defeated foes and opened chests: [All Nostos: $0./Lotanu: $1./Kurmajara: $2./Dabbat al-Ard: $3./Choas Steward: $4./Wayra Tata: $5./Asena: $6./Bygul: $7./Chests: $8./Coffers: $9./Aurum Strongboxes:$10./Back.]
- **12186**: Moogle Mastery: [Sheol A: [None/I/II/III/IV/V/VI/VII/VIII/IX/X/XI/XII/XIII/XIV/XV/]./Sheol B: [None/I/II/III/IV/V/VI/VII/VIII/IX/X/XI/XII/XIII/XIV/XV/]./Sheol C: [None/I/II/III/IV/V/VI/VII/VIII/IX/X/XI/XII/XIII/XIV/XV/]./Moogle Mastery: [None/I/II/III/IV/V/VI/VII/VIII/IX/X/XI/XII/XIII/XIV/XV/XVI/XVII/XVIII/XIX/XX/XXI/XXII/XXIII/XXIV/XXV/XXVI/XXVII/XXVIII/XXIX/XXX/XXXI/XXXII/XXXIII/XXXIV/XXXV/XXXVI/XXXVII/XXXVIII/XXXIX/XL/XLI/XLII/XLIII/XLIV/XLV]./Back.]
- **12190**: How do you respond? [Tremendous timing?/Something on your mind?]
- **12197**: How do you respond? [What's scary?/Everything okay?]
- **12205**: You may purchase up to $10.
- **12207**: Confirm your purchase. [Purchase./Do not purchase.]
- **12213**: How do you respond? [Darkness?/...You okay?]
- **12219**: How do you respond? [Is that so?/(Quietly listen.)]
- **12235**: What will you do? [Head right in./Ask what the catch is.]
- **12239**: How do you respond? [Dampening effects?/Tell me more.]
- **12253**: How do you respond? [Tired? Me?/Not on your life.]
- **12264**: Boss Status and RP Acquired: [Dealan-dhe: Veng.: $0; RP: $17./Sgili: Veng.: $1; RP: $18./U Bnai: Veng.: $2; RP: $19./Gogmagog: Veng.: $3; RP: $20./Aristaeus: Veng.: $4; RP: $21./Raskovniche: Veng.: $5; RP: $22./Marmorkrebs: Veng.: $6; RP: $23./Gigelorum: Veng.: $7; RP: $24./Procne: Veng.: $8; RP: $25./Henwen: Veng.: $9; RP: $26./Xevioso: Veng.: $10@RP: $27./Ngai: Veng.: $11@RP: $28./Kalunga: Veng.: $12@RP: $29./Ongo: Veng.: $13@RP: $30./Mboze: Veng.: $14@RP: $31./Arebati: Veng.: $15@RP: $ ./Bumba: Veng.: $16@RP: $!./Back.]
- **12267**: Which would you like? [#./$1./$2./$3./$4./$5./$6./$7./Exchange RP for segments./Back.]
- **12268**: Segments owned: $11.
- **12272**: Augment the item? [Yes./No.]
- **12275**: [Atonement 1./Atonement 2./Atonement 3./Atonement 4./Nothing for now.]

## Events

### Event 65535

#### Metadata

| Field        | Value   |
|--------------|---------|
| Entrypoint   | 0x0000  |
| Data Size    | 1 bytes |
| Instructions | 1       |

```
      00 01 02 03 04 05 06 07  08 09 0A 0B 0C 0D 0E 0F
      -- -- -- -- -- -- -- --  -- -- -- -- -- -- -- --
0000: 00                                                .               
```

#### Opcodes

```
  0: 0x0000 [0x00] END_REQSTACK()
```

### Event 2000

#### Metadata

| Field        | Value      |
|--------------|------------|
| Entrypoint   | 0x0001     |
| Data Size    | 1011 bytes |
| Instructions | 152        |

```
      00 01 02 03 04 05 06 07  08 09 0A 0B 0C 0D 0E 0F
      -- -- -- -- -- -- -- --  -- -- -- -- -- -- -- --
0000:    1A 27 22 1C 00 80 2C  98 70 0F 01 98 70 0F 01   .'"...,.p...p..
0010: 74 6C 6B 30 2B 98 70 0F  01 01 80 23 2C 98 70 0F  tlk0+.p....#,.p.
0020: 01 98 70 0F 01 74 6C 6B  31 24 02 80 03 80 03 80  ..p..tlk1$......
0030: 25 02 00 10 03 80 00 72  00 6E F0 FF FF 7F 04 80  %......r.n......
0040: 99 F0 FF FF 7F 2C 98 70  0F 01 98 70 0F 01 74 6C  .....,.p...p..tl
0050: 6B 30 2B 98 70 0F 01 05  80 23 2B 98 70 0F 01 06  k0+.p....#+.p...
0060: 80 23 2C 98 70 0F 01 98  70 0F 01 74 6C 6B 31 01  .#,.p...p..tlk1.
0070: 25 01 02 00 10 07 80 00  25 01 6E F0 FF FF 7F 08  %.......%.n.....
0080: 80 99 F0 FF FF 7F 2C 98  70 0F 01 98 70 0F 01 74  ......,.p...p..t
0090: 6C 6B 30 2B 98 70 0F 01  09 80 23 2C 98 70 0F 01  lk0+.p....#,.p..
00A0: 98 70 0F 01 74 6C 6B 31  24 0A 80 03 80 03 80 25  .p..tlk1$......%
00B0: 02 00 10 03 80 00 E9 00  6E F0 FF FF 7F 08 80 99  ........n.......
00C0: F0 FF FF 7F 2C 98 70 0F  01 98 70 0F 01 74 6C 6B  ....,.p...p..tlk
00D0: 30 2B 98 70 0F 01 0B 80  23 2C 98 70 0F 01 98 70  0+.p....#,.p...p
00E0: 0F 01 74 6C 6B 31 01 22  01 02 00 10 07 80 00 22  ..tlk1."......."
00F0: 01 6E F0 FF FF 7F 0C 80  99 F0 FF FF 7F 2C 98 70  .n...........,.p
0100: 0F 01 98 70 0F 01 74 6C  6B 30 2B 98 70 0F 01 0D  ...p..tlk0+.p...
0110: 80 23 2C 98 70 0F 01 98  70 0F 01 74 6C 6B 31 01  .#,.p...p..tlk1.
0120: 22 01 01 25 01 2B 98 70  0F 01 0E 80 23 2C 98 70  "..%.+.p....#,.p
0130: 0F 01 98 70 0F 01 74 6C  6B 30 2B 98 70 0F 01 0F  ...p..tlk0+.p...
0140: 80 23 2C 98 70 0F 01 98  70 0F 01 74 6C 6B 31 24  .#,.p...p..tlk1$
0150: 10 80 03 80 03 80 25 02  00 10 03 80 00 6E 01 6E  ......%......n.n
0160: F0 FF FF 7F 08 80 99 F0  FF FF 7F 01 A7 01 02 00  ................
0170: 10 07 80 00 A7 01 6E F0  FF FF 7F 0C 80 99 F0 FF  ......n.........
0180: FF 7F 2C 98 70 0F 01 98  70 0F 01 74 6C 6B 30 2B  ..,.p...p..tlk0+
0190: 98 70 0F 01 11 80 23 2C  98 70 0F 01 98 70 0F 01  .p....#,.p...p..
01A0: 74 6C 6B 31 01 A7 01 2C  98 70 0F 01 98 70 0F 01  tlk1...,.p...p..
01B0: 68 61 70 30 2B 98 70 0F  01 12 80 23 2B 98 70 0F  hap0+.p....#+.p.
01C0: 01 13 80 23 2B 98 70 0F  01 14 80 23 2B 98 70 0F  ...#+.p....#+.p.
01D0: 01 15 80 23 2B 98 70 0F  01 16 80 23 2C 98 70 0F  ...#+.p....#,.p.
01E0: 01 98 70 0F 01 68 61 70  31 03 00 00 03 80 03 02  ..p..hap1.......
01F0: 10 03 80 02 00 00 03 80  00 0C 02 3D 28 00 07 80  ...........=(...
0200: 07 80 3C 28 00 17 80 07  80 01 33 02 02 00 00 18  ..<(......3.....
0210: 80 04 25 02 3C 28 00 07  80 07 80 3C 28 00 17 80  ..%.<(.....<(...
0220: 07 80 01 33 02 3C 28 00  07 80 07 80 3D 28 00 17  ...3.<(.....=(..
0230: 80 07 80 24 19 80 03 80  28 00 25 02 00 10 03 80  ...$....(.%.....
0240: 00 53 02 6E F0 FF FF 7F  08 80 99 F0 FF FF 7F 42  .S.n...........B
0250: 01 F5 02 02 00 10 07 80  00 A4 02 6E F0 FF FF 7F  ...........n....
0260: 0C 80 99 F0 FF FF 7F 0B  00 00 02 00 00 1A 80 04  ................
0270: 77 02 03 00 00 1A 80 03  02 10 03 80 2C 98 70 0F  w...........,.p.
0280: 01 98 70 0F 01 67 61 6B  30 2B 98 70 0F 01 1B 80  ..p..gak0+.p....
0290: 23 2C 98 70 0F 01 98 70  0F 01 67 61 6B 31 01 F3  #,.p...p..gak1..
02A0: 01 01 F5 02 02 00 10 17  80 00 F5 02 6E F0 FF FF  ............n...
02B0: 7F 0C 80 99 F0 FF FF 7F  0B 00 00 02 00 00 1A 80  ................
02C0: 04 C8 02 03 00 00 1A 80  03 02 10 07 80 2C 98 70  .............,.p
02D0: 0F 01 98 70 0F 01 67 61  6B 30 2B 98 70 0F 01 1B  ...p..gak0+.p...
02E0: 80 23 2C 98 70 0F 01 98  70 0F 01 67 61 6B 31 01  .#,.p...p..gak1.
02F0: F3 01 01 F5 02 02 00 00  03 80 00 22 03 2C 98 70  ...........".,.p
0300: 0F 01 98 70 0F 01 68 61  70 30 2B 98 70 0F 01 1C  ...p..hap0+.p...
0310: 80 23 2C 98 70 0F 01 98  70 0F 01 68 61 70 31 01  .#,.p...p..hap1.
0320: 4C 03 02 00 00 1D 80 04  4C 03 2C 98 70 0F 01 98  L.......L.,.p...
0330: 70 0F 01 67 61 6B 30 2B  98 70 0F 01 1E 80 23 2C  p..gak0+.p....#,
0340: 98 70 0F 01 98 70 0F 01  67 61 6B 31 2C 98 70 0F  .p...p..gak1,.p.
0350: 01 98 70 0F 01 68 61 70  30 2B 98 70 0F 01 1F 80  ..p..hap0+.p....
0360: 23 2C 98 70 0F 01 98 70  0F 01 68 61 70 31 03 02  #,.p...p..hap1..
0370: 10 20 80 2C 98 70 0F 01  98 70 0F 01 65 78 70 30  . .,.p...p..exp0
0380: 2B 98 70 0F 01 21 80 23  03 01 10 07 80 43 00 43  +.p..!.#.....C.C
0390: 01 03 02 10 20 80 2B 98  70 0F 01 22 80 23 2B 98  .... .+.p..".#+.
03A0: 70 0F 01 23 80 23 2B 98  70 0F 01 24 80 23 03 03  p..#.#+.p..$.#..
03B0: 10 25 80 2B 98 70 0F 01  26 80 23 03 03 10 18 80  .%.+.p..&.#.....
03C0: 2B 98 70 0F 01 27 80 23  03 02 10 0C 80 2B 98 70  +.p..'.#.....+.p
03D0: 0F 01 28 80 23 2B 98 70  0F 01 29 80 23 2C 98 70  ..(.#+.p..).#,.p
03E0: 0F 01 98 70 0F 01 65 78  70 31 1A 98 22 03 01 10  ...p..exp1.."...
03F0: 17 80 21 00                                       ..!.            
```

#### Opcodes

```
  0: 0x0001 [0x1A] CALL_SUBROUTINE(address=0x2227)
  1: 0x0004 [0x1C] WAIT(60* ticks)
  2: 0x0007 [0x2C] CREATE_SCHEDULER_TASK: Create scheduler "tlk0" with entities [Pilgrimage Moogle (ID: 17789080/0x010F7098), Pilgrimage Moogle (ID: 17789080/0x010F7098)]
  3: 0x0014 [0x2B] Pilgrimage Moogle (ID: 17789080/0x010F7098) [12138*]:
    → "Can you see this simply scintillating stone, kupo? It's called a veridical conflux."
  4: 0x001B [0x23] WAIT_FOR_DIALOG_INTERACTION
  5: 0x001C [0x2C] CREATE_SCHEDULER_TASK: Create scheduler "tlk1" with entities [Pilgrimage Moogle (ID: 17789080/0x010F7098), Pilgrimage Moogle (ID: 17789080/0x010F7098)]
  6: 0x0029 [0x24] CREATE_DIALOG(message_id=12139*, default_option=0*, option_flags=0*)
    → "Ask about veridical confluxes? [What are they?/I know what they are.]"
  7: 0x0030 [0x25] WAIT_DIALOG_SELECT()
  8: 0x0031 [0x02] IF !(Work_Zone[0] == 0*) GOTO 0x0072
  9: 0x0039 [0x6E] LocalPlayer uses emote 32*
 10: 0x0040 [0x99] Wait for LocalPlayer animation to complete
 11: 0x0045 [0x2C] CREATE_SCHEDULER_TASK: Create scheduler "tlk0" with entities [Pilgrimage Moogle (ID: 17789080/0x010F7098), Pilgrimage Moogle (ID: 17789080/0x010F7098)]
 12: 0x0052 [0x2B] Pilgrimage Moogle (ID: 17789080/0x010F7098) [12140*]:
    → "Veridical confluxes are not of this world--they are gates that connect you to "a secret place," kupo. I also know that there are many of them."
 13: 0x0059 [0x23] WAIT_FOR_DIALOG_INTERACTION
 14: 0x005A [0x2B] Pilgrimage Moogle (ID: 17789080/0x010F7098) [12141*]:
    → "But even erudite explorers usually can't see them."
 15: 0x0061 [0x23] WAIT_FOR_DIALOG_INTERACTION
 16: 0x0062 [0x2C] CREATE_SCHEDULER_TASK: Create scheduler "tlk1" with entities [Pilgrimage Moogle (ID: 17789080/0x010F7098), Pilgrimage Moogle (ID: 17789080/0x010F7098)]
 17: 0x006F [0x01] GOTO 0x0125
 18: 0x0072 [0x02] IF !(Work_Zone[0] == 1*) GOTO 0x0125
 19: 0x007A [0x6E] LocalPlayer uses emote 7*
 20: 0x0081 [0x99] Wait for LocalPlayer animation to complete
 21: 0x0086 [0x2C] CREATE_SCHEDULER_TASK: Create scheduler "tlk0" with entities [Pilgrimage Moogle (ID: 17789080/0x010F7098), Pilgrimage Moogle (ID: 17789080/0x010F7098)]
 22: 0x0093 [0x2B] Pilgrimage Moogle (ID: 17789080/0x010F7098) [12142*]:
    → "That makes things easier, kupo, because that means you must have met Kupofried!"
 23: 0x009A [0x23] WAIT_FOR_DIALOG_INTERACTION
 24: 0x009B [0x2C] CREATE_SCHEDULER_TASK: Create scheduler "tlk1" with entities [Pilgrimage Moogle (ID: 17789080/0x010F7098), Pilgrimage Moogle (ID: 17789080/0x010F7098)]
 25: 0x00A8 [0x24] CREATE_DIALOG(message_id=12143*, default_option=0*, option_flags=0*)
    → "Have you met Kupofried? [Of course./Kupo-who?]"
 26: 0x00AF [0x25] WAIT_DIALOG_SELECT()
 27: 0x00B0 [0x02] IF !(Work_Zone[0] == 0*) GOTO 0x00E9
 28: 0x00B8 [0x6E] LocalPlayer uses emote 7*
 29: 0x00BF [0x99] Wait for LocalPlayer animation to complete
 30: 0x00C4 [0x2C] CREATE_SCHEDULER_TASK: Create scheduler "tlk0" with entities [Pilgrimage Moogle (ID: 17789080/0x010F7098), Pilgrimage Moogle (ID: 17789080/0x010F7098)]
 31: 0x00D1 [0x2B] Pilgrimage Moogle (ID: 17789080/0x010F7098) [12144*]:
    → "Then you undoubtedly understand everything about veridical confluxes, and I don't need to explain them in detail, kupo."
 32: 0x00D8 [0x23] WAIT_FOR_DIALOG_INTERACTION
 33: 0x00D9 [0x2C] CREATE_SCHEDULER_TASK: Create scheduler "tlk1" with entities [Pilgrimage Moogle (ID: 17789080/0x010F7098), Pilgrimage Moogle (ID: 17789080/0x010F7098)]
 34: 0x00E6 [0x01] GOTO 0x0122
 35: 0x00E9 [0x02] IF !(Work_Zone[0] == 1*) GOTO 0x0122
 36: 0x00F1 [0x6E] LocalPlayer uses emote 6*
 37: 0x00F8 [0x99] Wait for LocalPlayer animation to complete
 38: 0x00FD [0x2C] CREATE_SCHEDULER_TASK: Create scheduler "tlk0" with entities [Pilgrimage Moogle (ID: 17789080/0x010F7098), Pilgrimage Moogle (ID: 17789080/0x010F7098)]
 39: 0x010A [0x2B] Pilgrimage Moogle (ID: 17789080/0x010F7098) [12145*]:
    → "You...haven't, kupo? But you still know about the veridical confluxes? Well, I guess I'll take your word for it."
 40: 0x0111 [0x23] WAIT_FOR_DIALOG_INTERACTION
 41: 0x0112 [0x2C] CREATE_SCHEDULER_TASK: Create scheduler "tlk1" with entities [Pilgrimage Moogle (ID: 17789080/0x010F7098), Pilgrimage Moogle (ID: 17789080/0x010F7098)]
 42: 0x011F [0x01] GOTO 0x0122

SUBROUTINE_0122:
 43: 0x0122 [0x01] GOTO 0x0125

SUBROUTINE_0125:
 44: 0x0125 [0x2B] Pilgrimage Moogle (ID: 17789080/0x010F7098) [12146*]:
    → "(Positively perfect, kupo. The bait is laid out. Now to reel [him/her] in.)"
 45: 0x012C [0x23] WAIT_FOR_DIALOG_INTERACTION
 46: 0x012D [0x2C] CREATE_SCHEDULER_TASK: Create scheduler "tlk0" with entities [Pilgrimage Moogle (ID: 17789080/0x010F7098), Pilgrimage Moogle (ID: 17789080/0x010F7098)]
 47: 0x013A [0x2B] Pilgrimage Moogle (ID: 17789080/0x010F7098) [12147*]:
    → "I bet you're completely curious now, kupo."
 48: 0x0141 [0x23] WAIT_FOR_DIALOG_INTERACTION
 49: 0x0142 [0x2C] CREATE_SCHEDULER_TASK: Create scheduler "tlk1" with entities [Pilgrimage Moogle (ID: 17789080/0x010F7098), Pilgrimage Moogle (ID: 17789080/0x010F7098)]
 50: 0x014F [0x24] CREATE_DIALOG(message_id=12148*, default_option=0*, option_flags=0*)
    → "How do you respond? [Sure am./Not really.]"
 51: 0x0156 [0x25] WAIT_DIALOG_SELECT()
 52: 0x0157 [0x02] IF !(Work_Zone[0] == 0*) GOTO 0x016E
 53: 0x015F [0x6E] LocalPlayer uses emote 7*
 54: 0x0166 [0x99] Wait for LocalPlayer animation to complete
 55: 0x016B [0x01] GOTO 0x01A7
 56: 0x016E [0x02] IF !(Work_Zone[0] == 1*) GOTO 0x01A7
 57: 0x0176 [0x6E] LocalPlayer uses emote 6*
 58: 0x017D [0x99] Wait for LocalPlayer animation to complete
 59: 0x0182 [0x2C] CREATE_SCHEDULER_TASK: Create scheduler "tlk0" with entities [Pilgrimage Moogle (ID: 17789080/0x010F7098), Pilgrimage Moogle (ID: 17789080/0x010F7098)]
 60: 0x018F [0x2B] Pilgrimage Moogle (ID: 17789080/0x010F7098) [12149*]:
    → "Just hear me out."
 61: 0x0196 [0x23] WAIT_FOR_DIALOG_INTERACTION
 62: 0x0197 [0x2C] CREATE_SCHEDULER_TASK: Create scheduler "tlk1" with entities [Pilgrimage Moogle (ID: 17789080/0x010F7098), Pilgrimage Moogle (ID: 17789080/0x010F7098)]
 63: 0x01A4 [0x01] GOTO 0x01A7

SUBROUTINE_01A7:
 64: 0x01A7 [0x2C] CREATE_SCHEDULER_TASK: Create scheduler "hap0" with entities [Pilgrimage Moogle (ID: 17789080/0x010F7098), Pilgrimage Moogle (ID: 17789080/0x010F7098)]
 65: 0x01B4 [0x2B] Pilgrimage Moogle (ID: 17789080/0x010F7098) [12150*]:
    → "When I investigated "the secret place" at the other end of this conflux, I ran into trouble, kupo."
 66: 0x01BB [0x23] WAIT_FOR_DIALOG_INTERACTION
 67: 0x01BC [0x2B] Pilgrimage Moogle (ID: 17789080/0x010F7098) [12151*]:
    → "The malevolent monsters made me mad...and they're having an effect on this world, too."
 68: 0x01C3 [0x23] WAIT_FOR_DIALOG_INTERACTION
 69: 0x01C4 [0x2B] Pilgrimage Moogle (ID: 17789080/0x010F7098) [12152*]:
    → "But they're super strong, and I've got no way of dealing with them myself, kupo. We moogles are lovers, not fighters."
 70: 0x01CB [0x23] WAIT_FOR_DIALOG_INTERACTION
 71: 0x01CC [0x2B] Pilgrimage Moogle (ID: 17789080/0x010F7098) [12153*]:
    → "But we've got to do something or who knows what'll happen!"
 72: 0x01D3 [0x23] WAIT_FOR_DIALOG_INTERACTION
 73: 0x01D4 [0x2B] Pilgrimage Moogle (ID: 17789080/0x010F7098) [12154*]:
    → "So I want you to slay them, kupo."
 74: 0x01DB [0x23] WAIT_FOR_DIALOG_INTERACTION
 75: 0x01DC [0x2C] CREATE_SCHEDULER_TASK: Create scheduler "hap1" with entities [Pilgrimage Moogle (ID: 17789080/0x010F7098), Pilgrimage Moogle (ID: 17789080/0x010F7098)]
 76: 0x01E9 [0x03] ExtData[1]->WorkLocal[0] = 0*
 77: 0x01EE [0x03] Work_Zone[2] = 0*

SUBROUTINE_01F3:
 78: 0x01F3 [0x02] IF !(ExtData[1]->WorkLocal[0] == 0*) GOTO 0x020C
 79: 0x01FB [0x3D] CLEAR_BIT_FLAG_CONDITIONAL(target_work_offset=ExtData[1]->WorkLocal[40], bit_index_work_offset=1*, condition_work_offset=1*)
 80: 0x0202 [0x3C] SET_BIT_FLAG_CONDITIONAL(target_work_offset=ExtData[1]->WorkLocal[40], bit_index_work_offset=2*, condition_work_offset=1*)
 81: 0x0209 [0x01] GOTO 0x0233
 82: 0x020C [0x02] IF !(ExtData[1]->WorkLocal[0] < 20*) GOTO 0x0225
 83: 0x0214 [0x3C] SET_BIT_FLAG_CONDITIONAL(target_work_offset=ExtData[1]->WorkLocal[40], bit_index_work_offset=1*, condition_work_offset=1*)
 84: 0x021B [0x3C] SET_BIT_FLAG_CONDITIONAL(target_work_offset=ExtData[1]->WorkLocal[40], bit_index_work_offset=2*, condition_work_offset=1*)
 85: 0x0222 [0x01] GOTO 0x0233
 86: 0x0225 [0x3C] SET_BIT_FLAG_CONDITIONAL(target_work_offset=ExtData[1]->WorkLocal[40], bit_index_work_offset=1*, condition_work_offset=1*)
 87: 0x022C [0x3D] CLEAR_BIT_FLAG_CONDITIONAL(target_work_offset=ExtData[1]->WorkLocal[40], bit_index_work_offset=2*, condition_work_offset=1*)

SUBROUTINE_0233:
 88: 0x0233 [0x24] CREATE_DIALOG(message_id=12155*, default_option=0*, option_flags=ExtData[1]->WorkLocal[40])
    → "What will you do? [Sounds easy enough./Not my problem./Really, why should I care?]"
 89: 0x023A [0x25] WAIT_DIALOG_SELECT()
 90: 0x023B [0x02] IF !(Work_Zone[0] == 0*) GOTO 0x0253
 91: 0x0243 [0x6E] LocalPlayer uses emote 7*
 92: 0x024A [0x99] Wait for LocalPlayer animation to complete
 93: 0x024F [0x42] SET_CLI_EVENT_CANCEL_DATA()
 94: 0x0250 [0x01] GOTO 0x02F5
 95: 0x0253 [0x02] IF !(Work_Zone[0] == 1*) GOTO 0x02A4
 96: 0x025B [0x6E] LocalPlayer uses emote 6*
 97: 0x0262 [0x99] Wait for LocalPlayer animation to complete
 98: 0x0267 [0x0B] ExtData[1]->WorkLocal[0]++
 99: 0x026A [0x02] IF !(ExtData[1]->WorkLocal[0] < 10000*) GOTO 0x0277
100: 0x0272 [0x03] ExtData[1]->WorkLocal[0] = 10000*
101: 0x0277 [0x03] Work_Zone[2] = 0*
102: 0x027C [0x2C] CREATE_SCHEDULER_TASK: Create scheduler "gak0" with entities [Pilgrimage Moogle (ID: 17789080/0x010F7098), Pilgrimage Moogle (ID: 17789080/0x010F7098)]
103: 0x0289 [0x2B] Pilgrimage Moogle (ID: 17789080/0x010F7098) [12156*]:
    → "Are you[/ really] sure you want to let Vana'diel as we know it get obliterated?"
104: 0x0290 [0x23] WAIT_FOR_DIALOG_INTERACTION
105: 0x0291 [0x2C] CREATE_SCHEDULER_TASK: Create scheduler "gak1" with entities [Pilgrimage Moogle (ID: 17789080/0x010F7098), Pilgrimage Moogle (ID: 17789080/0x010F7098)]
106: 0x029E [0x01] GOTO 0x01F3

SUBROUTINE_02F5:
107: 0x02F5 [0x02] IF !(ExtData[1]->WorkLocal[0] == 0*) GOTO 0x0322
108: 0x02FD [0x2C] CREATE_SCHEDULER_TASK: Create scheduler "hap0" with entities [Pilgrimage Moogle (ID: 17789080/0x010F7098), Pilgrimage Moogle (ID: 17789080/0x010F7098)]
109: 0x030A [0x2B] Pilgrimage Moogle (ID: 17789080/0x010F7098) [12158*]:
    → "Many thanks, kupo!"
110: 0x0311 [0x23] WAIT_FOR_DIALOG_INTERACTION
111: 0x0312 [0x2C] CREATE_SCHEDULER_TASK: Create scheduler "hap1" with entities [Pilgrimage Moogle (ID: 17789080/0x010F7098), Pilgrimage Moogle (ID: 17789080/0x010F7098)]
112: 0x031F [0x01] GOTO 0x034C
113: 0x0322 [0x02] IF !(ExtData[1]->WorkLocal[0] < 10*) GOTO 0x034C
114: 0x032A [0x2C] CREATE_SCHEDULER_TASK: Create scheduler "gak0" with entities [Pilgrimage Moogle (ID: 17789080/0x010F7098), Pilgrimage Moogle (ID: 17789080/0x010F7098)]
115: 0x0337 [0x2B] Pilgrimage Moogle (ID: 17789080/0x010F7098) [12157*]:
    → "([He/She]'s a stubborn one, kupo...)"
116: 0x033E [0x23] WAIT_FOR_DIALOG_INTERACTION
117: 0x033F [0x2C] CREATE_SCHEDULER_TASK: Create scheduler "gak1" with entities [Pilgrimage Moogle (ID: 17789080/0x010F7098), Pilgrimage Moogle (ID: 17789080/0x010F7098)]

SUBROUTINE_034C:
118: 0x034C [0x2C] CREATE_SCHEDULER_TASK: Create scheduler "hap0" with entities [Pilgrimage Moogle (ID: 17789080/0x010F7098), Pilgrimage Moogle (ID: 17789080/0x010F7098)]
119: 0x0359 [0x2B] Pilgrimage Moogle (ID: 17789080/0x010F7098) [12159*]:
    → "(Phew...I was almost put in quite the pickle, kupo.)"
120: 0x0360 [0x23] WAIT_FOR_DIALOG_INTERACTION
121: 0x0361 [0x2C] CREATE_SCHEDULER_TASK: Create scheduler "hap1" with entities [Pilgrimage Moogle (ID: 17789080/0x010F7098), Pilgrimage Moogle (ID: 17789080/0x010F7098)]
122: 0x036E [0x03] Work_Zone[2] = 3212*
123: 0x0373 [0x2C] CREATE_SCHEDULER_TASK: Create scheduler "exp0" with entities [Pilgrimage Moogle (ID: 17789080/0x010F7098), Pilgrimage Moogle (ID: 17789080/0x010F7098)]
124: 0x0380 [0x2B] Pilgrimage Moogle (ID: 17789080/0x010F7098) [12160*]:
    → "You'll need $6 to go to "the secret place," kupo. Fortunately, I have one on hand."
125: 0x0387 [0x23] WAIT_FOR_DIALOG_INTERACTION
126: 0x0388 [0x03] Work_Zone[1] = 1*
127: 0x038D [0x43] SEND_EVENT_UPDATE: Send pending tag to server (packet 0x005B)
128: 0x038F [0x43] SEND_EVENT_UPDATE: Check pending flag (skip if not pending)
129: 0x0391 [0x03] Work_Zone[2] = 3212*
130: 0x0396 [0x2B] Pilgrimage Moogle (ID: 17789080/0x010F7098) [12162*]:
    → "5 are special devices made with mysterious moogle magic!"
131: 0x039D [0x23] WAIT_FOR_DIALOG_INTERACTION
132: 0x039E [0x2B] Pilgrimage Moogle (ID: 17789080/0x010F7098) [12163*]:
    → "They're extremely easy to employ, too. They activate automatically as soon as you enter via a veridical conflux, and information on any monsters you mash is transmitted to me immediately, kupo."
133: 0x03A5 [0x23] WAIT_FOR_DIALOG_INTERACTION
134: 0x03A6 [0x2B] Pilgrimage Moogle (ID: 17789080/0x010F7098) [12164*]:
    → "And what's even better, they make sure you're not trapped in the netherworld as you find your way back! Just use it and you'll return in a flash."
135: 0x03AD [0x23] WAIT_FOR_DIALOG_INTERACTION
136: 0x03AE [0x03] Work_Zone[3] = 30*
137: 0x03B3 [0x2B] Pilgrimage Moogle (ID: 17789080/0x010F7098) [12165*]:
    → "5 can only remain active for $1 minutes (Earth time), kupo, and when the mysterious moogle magic runs out, you'll be bounced back to Vana'diel."
138: 0x03BA [0x23] WAIT_FOR_DIALOG_INTERACTION
139: 0x03BB [0x03] Work_Zone[3] = 20*
140: 0x03C0 [0x2B] Pilgrimage Moogle (ID: 17789080/0x010F7098) [12166*]:
    → "The moogle magic will also expire when you use $6 to come back manually, and at least $1 hour[/s] must pass before I can power it up again."
141: 0x03C7 [0x23] WAIT_FOR_DIALOG_INTERACTION
142: 0x03C8 [0x03] Work_Zone[2] = 6*
143: 0x03CD [0x2B] Pilgrimage Moogle (ID: 17789080/0x010F7098) [12167*]:
    → "And only between 1 and $0 people may enter the verdical conflux at once, kupo."
144: 0x03D4 [0x23] WAIT_FOR_DIALOG_INTERACTION
145: 0x03D5 [0x2B] Pilgrimage Moogle (ID: 17789080/0x010F7098) [12168*]:
    → "That's all from my side, kupo. Let me know if you have any other questions."
146: 0x03DC [0x23] WAIT_FOR_DIALOG_INTERACTION
147: 0x03DD [0x2C] CREATE_SCHEDULER_TASK: Create scheduler "exp1" with entities [Pilgrimage Moogle (ID: 17789080/0x010F7098), Pilgrimage Moogle (ID: 17789080/0x010F7098)]
148: 0x03EA [0x1A] CALL_SUBROUTINE(address=0x2298)
149: 0x03ED [0x03] Work_Zone[1] = 2*
150: 0x03F2 [0x21] END_EVENT
151: 0x03F3 [0x00] END_REQSTACK()
```

#### Data or dead code:

```
# Dead code (unreachable instructions):
     0x02A1 [0x01] GOTO 0x02F5
     0x02F2 [0x01] GOTO 0x02F5
```

### Event 2001

#### Metadata

| Field        | Value      |
|--------------|------------|
| Entrypoint   | 0x03F4     |
| Data Size    | 5761 bytes |
| Instructions | 531        |

```
      00 01 02 03 04 05 06 07  08 09 0A 0B 0C 0D 0E 0F
      -- -- -- -- -- -- -- --  -- -- -- -- -- -- -- --
03F0:             03 2E 00 02  10 03 02 00 03 10 03 34      ...........4
0400: 00 04 10 1A 27 22 1C 00  80 3E 02 00 03 80 6F 04  ....'"...>....o.
0410: 42 2C 98 70 0F 01 98 70  0F 01 68 61 70 30 2B 98  B,.p...p..hap0+.
0420: 70 0F 01 2A 80 23 03 02  10 20 80 2B 98 70 0F 01  p..*.#... .+.p..
0430: 2B 80 23 2B 98 70 0F 01  2C 80 23 2B 98 70 0F 01  +.#+.p..,.#+.p..
0440: 2D 80 23 2B 98 70 0F 01  2E 80 23 2B 98 70 0F 01  -.#+.p....#+.p..
0450: 2F 80 23 2C 98 70 0F 01  98 70 0F 01 68 61 70 31  /.#,.p...p..hap1
0460: 03 01 10 30 80 43 00 43  01 03 01 10 03 80 2E 2C  ...0.C.C.......,
0470: 98 70 0F 01 98 70 0F 01  74 6C 6B 30 2B 98 70 0F  .p...p..tlk0+.p.
0480: 01 31 80 23 2C 98 70 0F  01 98 70 0F 01 74 6C 6B  .1.#,.p...p..tlk
0490: 31 03 02 10 20 80 24 32  80 03 80 2E 00 25 02 00  1... .$2.....%..
04A0: 10 03 80 00 61 05 03 01  10 07 80 43 00 43 01 02  ....a......C.C..
04B0: 02 10 03 80 80 E4 04 2C  98 70 0F 01 98 70 0F 01  .......,.p...p..
04C0: 74 6C 6B 30 2B 98 70 0F  01 33 80 23 2C 98 70 0F  tlk0+.p..3.#,.p.
04D0: 01 98 70 0F 01 74 6C 6B  31 03 01 10 03 80 01 91  ..p..tlk1.......
04E0: 04 01 5E 05 02 02 10 07  80 80 1B 05 03 02 10 20  ..^............ 
04F0: 80 2C 98 70 0F 01 98 70  0F 01 74 6C 6B 30 2B 98  .,.p...p..tlk0+.
0500: 70 0F 01 34 80 23 2C 98  70 0F 01 98 70 0F 01 74  p..4.#,.p...p..t
0510: 6C 6B 31 03 01 10 35 80  01 5E 05 02 02 10 17 80  lk1...5..^......
0520: 80 5E 05 2C 98 70 0F 01  98 70 0F 01 74 6C 6B 30  .^.,.p...p..tlk0
0530: 02 04 10 03 80 00 43 05  2B 98 70 0F 01 36 80 23  ......C.+.p..6.#
0540: 01 4B 05 2B 98 70 0F 01  37 80 23 2C 98 70 0F 01  .K.+.p..7.#,.p..
0550: 98 70 0F 01 74 6C 6B 31  01 91 04 01 5E 05 01 70  .p..tlk1....^..p
0560: 1A 02 00 10 07 80 00 DD  05 03 02 10 20 80 2C 98  ............ .,.
0570: 70 0F 01 98 70 0F 01 65  78 70 30 2B 98 70 0F 01  p...p..exp0+.p..
0580: 38 80 23 2B 98 70 0F 01  22 80 23 2B 98 70 0F 01  8.#+.p..".#+.p..
0590: 23 80 23 2B 98 70 0F 01  24 80 23 03 03 10 25 80  #.#+.p..$.#...%.
05A0: 2B 98 70 0F 01 26 80 23  03 03 10 18 80 2B 98 70  +.p..&.#.....+.p
05B0: 0F 01 27 80 23 03 02 10  0C 80 2B 98 70 0F 01 28  ..'.#.....+.p..(
05C0: 80 23 2B 98 70 0F 01 29  80 23 2C 98 70 0F 01 98  .#+.p..).#,.p...
05D0: 70 0F 01 65 78 70 31 01  91 04 01 70 1A 02 00 10  p..exp1....p....
05E0: 17 80 00 D6 14 2C 98 70  0F 01 98 70 0F 01 74 6C  .....,.p...p..tl
05F0: 6B 30 2B 98 70 0F 01 39  80 23 2C 98 70 0F 01 98  k0+.p..9.#,.p...
0600: 70 0F 01 74 6C 6B 31 03  27 00 34 00 24 3A 80 03  p..tlk1.'.4.$:..
0610: 80 27 00 25 02 00 10 03  80 00 48 07 1A A4 22 03  .'.%......H...".
0620: 01 10 17 80 43 00 43 01  03 01 00 02 10 03 02 00  ....C.C.........
0630: 03 10 03 03 00 04 10 03  04 00 05 10 03 05 00 06  ................
0640: 10 03 06 00 07 10 03 02  10 06 00 41 03 80 08 80  ...........A....
0650: 01 00 03 10 41 3B 80 3C  80 01 00 04 10 41 3D 80  ....A;.<.....A=.
0660: 3E 80 01 00 05 10 41 3F  80 40 80 01 00 06 10 41  >.....A?.@.....A
0670: 03 80 08 80 02 00 07 10  41 3B 80 3C 80 02 00 08  ........A;.<....
0680: 10 41 3D 80 3E 80 02 00  09 10 41 3F 80 40 80 02  .A=.>.....A?.@..
0690: 00 00 17 41 03 80 08 80  03 00 01 17 41 3B 80 3C  ...A........A;.<
06A0: 80 03 00 02 17 41 3D 80  3E 80 03 00 03 17 41 3F  .....A=.>.....A?
06B0: 80 40 80 03 00 04 17 41  03 80 08 80 04 00 05 17  .@.....A........
06C0: 41 3B 80 3C 80 04 00 06  17 41 3D 80 3E 80 04 00  A;.<.....A=.>...
06D0: 07 17 41 3F 80 40 80 04  00 08 17 41 03 80 08 80  ..A?.@.....A....
06E0: 05 00 09 17 41 3B 80 3C  80 05 00 0A 17 41 3D 80  ....A;.<.....A=.
06F0: 3E 80 05 00 0B 17 03 29  00 03 80 03 2F 00 41 80  >......)..../.A.
0700: 02 2F 00 03 80 04 27 07  9D 0A AF 28 31 00 2F 00  ./....'....(1./.
0710: 18 80 02 31 00 03 80 00  21 07 3C 29 00 2F 00 07  ...1....!.<)./..
0720: 80 0C 2F 00 01 00 07 03  01 10 03 80 24 42 80 03  ../.........$B..
0730: 80 29 00 25 02 00 10 18  80 00 42 07 01 07 06 01  .).%......B.....
0740: 45 07 01 07 06 01 D3 14  02 00 10 07 80 00 F7 08  E...............
0750: 1A A4 22 03 01 10 35 80  43 00 43 01 03 08 00 02  .."...5.C.C.....
0760: 10 03 09 00 03 10 03 0A  00 04 10 03 0B 00 05 10  ................
0770: 03 0C 00 06 10 03 0D 00  07 10 03 0E 00 08 10 03  ................
0780: 01 10 43 80 43 00 43 01  03 0F 00 02 10 03 10 00  ..C.C.C.........
0790: 03 10 03 02 10 10 00 41  03 80 08 80 08 00 03 10  .......A........
07A0: 41 3B 80 3C 80 08 00 04  10 41 3D 80 3E 80 08 00  A;.<.....A=.>...
07B0: 05 10 41 3F 80 40 80 08  00 06 10 41 03 80 08 80  ..A?.@.....A....
07C0: 09 00 07 10 41 3B 80 3C  80 09 00 08 10 41 3D 80  ....A;.<.....A=.
07D0: 3E 80 09 00 09 10 41 3F  80 40 80 09 00 00 17 41  >.....A?.@.....A
07E0: 03 80 08 80 0A 00 01 17  41 3B 80 3C 80 0A 00 02  ........A;.<....
07F0: 17 41 3D 80 3E 80 0A 00  03 17 41 3F 80 40 80 0A  .A=.>.....A?.@..
0800: 00 04 17 41 03 80 08 80  0B 00 05 17 41 3B 80 3C  ...A........A;.<
0810: 80 0B 00 06 17 41 3D 80  3E 80 0B 00 07 17 41 3F  .....A=.>.....A?
0820: 80 40 80 0B 00 08 17 41  03 80 08 80 0C 00 09 17  .@.....A........
0830: 41 3B 80 3C 80 0C 00 0A  17 41 3D 80 3E 80 0C 00  A;.<.....A=.>...
0840: 0B 17 41 3F 80 40 80 0C  00 0C 17 41 03 80 08 80  ..A?.@.....A....
0850: 0D 00 0D 17 41 3B 80 3C  80 0D 00 0E 17 41 3D 80  ....A;.<.....A=.
0860: 3E 80 0D 00 0F 17 41 3F  80 40 80 0D 00 10 17 41  >.....A?.@.....A
0870: 03 80 08 80 0E 00 11 17  41 3B 80 3C 80 0E 00 12  ........A;.<....
0880: 17 41 3D 80 3E 80 0E 00  13 17 41 03 80 08 80 0F  .A=.>.....A.....
0890: 00 14 17 41 3B 80 3C 80  0F 00 15 17 41 3D 80 3E  ...A;.<.....A=.>
08A0: 80 0F 00 16 17 03 2A 00  03 80 03 2F 00 25 80 02  ......*..../.%..
08B0: 2F 00 03 80 04 D6 08 9D  0A AF 28 31 00 2F 00 40  /.........(1./.@
08C0: 80 02 31 00 03 80 00 D0  08 3C 2A 00 2F 00 07 80  ..1......<*./...
08D0: 0C 2F 00 01 AF 08 03 01  10 03 80 24 44 80 03 80  ./.........$D...
08E0: 2A 00 25 02 00 10 40 80  00 F1 08 01 07 06 01 F4  *.%...@.........
08F0: 08 01 07 06 01 D3 14 02  00 10 17 80 00 D0 09 1A  ................
0900: A4 22 03 01 10 08 80 43  00 43 01 03 11 00 02 10  .".....C.C......
0910: 03 12 00 03 10 03 13 00  04 10 03 14 00 05 10 03  ................
0920: 02 10 14 00 41 03 80 08  80 11 00 03 10 41 3B 80  ....A........A;.
0930: 3C 80 11 00 04 10 41 3D  80 3E 80 11 00 05 10 41  <.....A=.>.....A
0940: 3F 80 40 80 11 00 06 10  41 03 80 08 80 12 00 07  ?.@.....A.......
0950: 10 41 3B 80 3C 80 12 00  08 10 41 3D 80 3E 80 12  .A;.<.....A=.>..
0960: 00 09 10 41 03 80 08 80  13 00 00 17 41 3B 80 3C  ...A........A;.<
0970: 80 13 00 01 17 41 3D 80  3E 80 13 00 02 17 03 2B  .....A=.>......+
0980: 00 03 80 03 2F 00 1D 80  02 2F 00 03 80 04 AF 09  ..../..../......
0990: 9D 0A AF 28 31 00 2F 00  45 80 02 31 00 03 80 00  ...(1./.E..1....
09A0: A9 09 3C 2B 00 2F 00 07  80 0C 2F 00 01 88 09 03  ..<+./..../.....
09B0: 01 10 03 80 24 46 80 03  80 2B 00 25 02 00 10 45  ....$F...+.%...E
09C0: 80 00 CA 09 01 07 06 01  CD 09 01 07 06 01 D3 14  ................
09D0: 02 00 10 30 80 00 25 0D  03 35 00 03 80 03 36 00  ...0..%..5....6.
09E0: 03 80 03 37 00 03 80 03  38 00 03 80 1A A4 22 03  ...7....8.....".
09F0: 01 10 17 80 43 00 43 01  03 01 00 02 10 03 02 00  ....C.C.........
0A00: 03 10 03 03 00 04 10 03  04 00 05 10 03 05 00 06  ................
0A10: 10 03 06 00 07 10 03 02  10 06 00 41 03 80 08 80  ...........A....
0A20: 01 00 03 10 41 3B 80 3C  80 01 00 04 10 41 3D 80  ....A;.<.....A=.
0A30: 3E 80 01 00 05 10 41 3F  80 40 80 01 00 06 10 41  >.....A?.@.....A
0A40: 03 80 08 80 02 00 07 10  41 3B 80 3C 80 02 00 08  ........A;.<....
0A50: 10 41 3D 80 3E 80 02 00  09 10 41 3F 80 40 80 02  .A=.>.....A?.@..
0A60: 00 00 17 41 03 80 08 80  03 00 01 17 41 3B 80 3C  ...A........A;.<
0A70: 80 03 00 02 17 41 3D 80  3E 80 03 00 03 17 41 3F  .....A=.>.....A?
0A80: 80 40 80 03 00 04 17 41  03 80 08 80 04 00 05 17  .@.....A........
0A90: 41 3B 80 3C 80 04 00 06  17 41 3D 80 3E 80 04 00  A;.<.....A=.>...
0AA0: 07 17 41 3F 80 40 80 04  00 08 17 41 03 80 08 80  ..A?.@.....A....
0AB0: 05 00 09 17 41 3B 80 3C  80 05 00 0A 17 41 3D 80  ....A;.<.....A=.
0AC0: 3E 80 05 00 0B 17 1A 09  23 02 45 00 35 80 04 DE  >.......#.E.5...
0AD0: 0A 15 45 00 35 80 03 35  00 45 00 01 E3 0A 03 35  ..E.5..5.E.....5
0AE0: 00 03 80 1A A4 22 03 01  10 35 80 43 00 43 01 03  ....."...5.C.C..
0AF0: 08 00 02 10 03 09 00 03  10 03 0A 00 04 10 03 0B  ................
0B00: 00 05 10 03 0C 00 06 10  03 0D 00 07 10 03 0E 00  ................
0B10: 08 10 03 01 10 43 80 43  00 43 01 03 0F 00 02 10  .....C.C.C......
0B20: 03 10 00 03 10 03 02 10  10 00 41 03 80 08 80 08  ..........A.....
0B30: 00 03 10 41 3B 80 3C 80  08 00 04 10 41 3D 80 3E  ...A;.<.....A=.>
0B40: 80 08 00 05 10 41 3F 80  40 80 08 00 06 10 41 03  .....A?.@.....A.
0B50: 80 08 80 09 00 07 10 41  3B 80 3C 80 09 00 08 10  .......A;.<.....
0B60: 41 3D 80 3E 80 09 00 09  10 41 3F 80 40 80 09 00  A=.>.....A?.@...
0B70: 00 17 41 03 80 08 80 0A  00 01 17 41 3B 80 3C 80  ..A........A;.<.
0B80: 0A 00 02 17 41 3D 80 3E  80 0A 00 03 17 41 3F 80  ....A=.>.....A?.
0B90: 40 80 0A 00 04 17 41 03  80 08 80 0B 00 05 17 41  @.....A........A
0BA0: 3B 80 3C 80 0B 00 06 17  41 3D 80 3E 80 0B 00 07  ;.<.....A=.>....
0BB0: 17 41 3F 80 40 80 0B 00  08 17 41 03 80 08 80 0C  .A?.@.....A.....
0BC0: 00 09 17 41 3B 80 3C 80  0C 00 0A 17 41 3D 80 3E  ...A;.<.....A=.>
0BD0: 80 0C 00 0B 17 41 3F 80  40 80 0C 00 0C 17 41 03  .....A?.@.....A.
0BE0: 80 08 80 0D 00 0D 17 41  3B 80 3C 80 0D 00 0E 17  .......A;.<.....
0BF0: 41 3D 80 3E 80 0D 00 0F  17 41 3F 80 40 80 0D 00  A=.>.....A?.@...
0C00: 10 17 41 03 80 08 80 0E  00 11 17 41 3B 80 3C 80  ..A........A;.<.
0C10: 0E 00 12 17 41 3D 80 3E  80 0E 00 13 17 41 03 80  ....A=.>.....A..
0C20: 08 80 0F 00 14 17 41 3B  80 3C 80 0F 00 15 17 41  ......A;.<.....A
0C30: 3D 80 3E 80 0F 00 16 17  03 01 10 08 80 43 00 43  =.>..........C.C
0C40: 01 03 11 00 02 10 03 12  00 03 10 03 13 00 04 10  ................
0C50: 03 14 00 05 10 03 02 10  14 00 41 03 80 08 80 11  ..........A.....
0C60: 00 03 10 41 3B 80 3C 80  11 00 04 10 41 3D 80 3E  ...A;.<.....A=.>
0C70: 80 11 00 05 10 41 3F 80  40 80 11 00 06 10 41 03  .....A?.@.....A.
0C80: 80 08 80 12 00 07 10 41  3B 80 3C 80 12 00 08 10  .......A;.<.....
0C90: 41 3D 80 3E 80 12 00 09  10 41 03 80 08 80 13 00  A=.>.....A......
0CA0: 00 17 41 3B 80 3C 80 13  00 01 17 41 3D 80 3E 80  ..A;.<.....A=.>.
0CB0: 13 00 02 17 1A 09 23 02  46 00 35 80 04 CC 0C 15  ......#.F.5.....
0CC0: 46 00 35 80 03 36 00 46  00 01 D1 0C 03 36 00 03  F.5..6.F.....6..
0CD0: 80 02 47 00 35 80 04 E6  0C 15 47 00 35 80 03 37  ..G.5.....G.5..7
0CE0: 00 47 00 01 EB 0C 03 37  00 03 80 03 02 10 35 00  .G.....7......5.
0CF0: 03 03 10 36 00 03 04 10  37 00 07 35 00 36 00 07  ...6....7..5.6..
0D00: 35 00 37 00 03 05 10 35  00 24 47 80 03 80 2D 00  5.7....5.$G...-.
0D10: 25 02 00 10 35 80 00 1F  0D 01 07 06 01 22 0D 01  %...5........"..
0D20: 07 06 01 D3 14 02 00 10  35 80 00 C0 14 03 01 10  ........5.......
0D30: 3B 80 43 00 43 01 03 15  00 02 10 03 16 00 03 10  ;.C.C...........
0D40: 03 17 00 04 10 03 18 00  05 10 03 19 00 06 10 03  ................
0D50: 1A 00 07 10 03 1B 00 08  10 03 01 10 48 80 43 00  ............H.C.
0D60: 43 01 03 1C 00 02 10 03  1D 00 03 10 03 1E 00 04  C...............
0D70: 10 03 1F 00 05 10 03 20  00 06 10 03 21 00 07 10  ....... ....!...
0D80: 03 22 00 08 10 03 01 10  1D 80 43 00 43 01 03 23  ."........C.C..#
0D90: 00 02 10 03 24 00 03 10  03 25 00 04 10 03 26 00  ....$....%....&.
0DA0: 05 10 03 2C 00 03 80 03  2F 00 03 80 02 2F 00 3D  ...,..../..../.=
0DB0: 80 05 0C 0E 3E 26 00 2F  00 C5 0D 3C 2C 00 2F 00  ....>&./...<,./.
0DC0: 07 80 01 06 0E 9D 0A FF  28 31 00 2F 00 49 80 41  ........(1./.I.A
0DD0: 03 80 35 80 31 00 33 00  9D 0F AF 28 33 00 2F 00  ..5.1.3....(3./.
0DE0: 4A 80 03 30 00 2F 00 07  30 00 49 80 41 08 80 4B  J..0./..0.I.A..K
0DF0: 80 31 00 33 00 9D 0F AF  28 33 00 30 00 4A 80 3D  .1.3....(3.0.J.=
0E00: 2C 00 2F 00 07 80 0B 2F  00 01 AC 0D 03 41 00 03  ,./..../.....A..
0E10: 80 24 4C 80 03 80 2C 00  25 02 00 10 49 80 00 27  .$L...,.%...I..'
0E20: 0E 01 07 06 01 31 0E 03  3C 00 00 10 03 41 00 07  .....1..<....A..
0E30: 80 02 41 00 03 80 00 3C  0E 01 BD 14 40 03 80 08  ..A....<....@...
0E40: 80 01 10 3C 80 40 3B 80  3C 80 01 10 3C 00 43 00  ...<.@;.<...<.C.
0E50: 43 01 03 3F 00 03 80 03  01 00 02 10 03 02 00 03  C..?............
0E60: 10 03 03 00 04 10 03 04  00 05 10 03 05 00 06 10  ................
0E70: 03 06 00 07 10 03 07 00  08 10 03 08 00 09 10 02  ................
0E80: 3C 00 3C 80 05 1A 12 02  01 00 03 80 00 99 0E 3C  <.<............<
0E90: 3F 00 03 80 07 80 01 DA  0E 3D 3F 00 03 80 07 80  ?........=?.....
0EA0: 40 03 80 08 80 01 10 3D  80 40 3B 80 3C 80 01 10  @......=.@;.<...
0EB0: 3C 00 40 3D 80 40 80 01  10 01 00 43 00 43 01 03  <.@=.@.....C.C..
0EC0: 09 00 02 10 03 0A 00 03  10 03 0B 00 04 10 D4 05  ................
0ED0: 03 80 01 00 09 00 0A 00  0B 00 02 02 00 03 80 00  ................
0EE0: EC 0E 3C 3F 00 07 80 07  80 01 2D 0F 3D 3F 00 07  ..<?......-.=?..
0EF0: 80 07 80 40 03 80 08 80  01 10 3D 80 40 3B 80 3C  ...@......=.@;.<
0F00: 80 01 10 3C 00 40 3D 80  40 80 01 10 02 00 43 00  ...<.@=.@.....C.
0F10: 43 01 03 0C 00 02 10 03  0D 00 03 10 03 0E 00 04  C...............
0F20: 10 D4 05 07 80 02 00 0C  00 0D 00 0E 00 02 03 00  ................
0F30: 03 80 00 3F 0F 3C 3F 00  17 80 07 80 01 80 0F 3D  ...?.<?........=
0F40: 3F 00 17 80 07 80 40 03  80 08 80 01 10 3D 80 40  ?.....@......=.@
0F50: 3B 80 3C 80 01 10 3C 00  40 3D 80 40 80 01 10 03  ;.<...<.@=.@....
0F60: 00 43 00 43 01 03 0F 00  02 10 03 10 00 03 10 03  .C.C............
0F70: 11 00 04 10 D4 05 17 80  03 00 0F 00 10 00 11 00  ................
0F80: 02 04 00 03 80 00 92 0F  3C 3F 00 30 80 07 80 01  ........<?.0....
0F90: D3 0F 3D 3F 00 30 80 07  80 40 03 80 08 80 01 10  ..=?.0...@......
0FA0: 3D 80 40 3B 80 3C 80 01  10 3C 00 40 3D 80 40 80  =.@;.<...<.@=.@.
0FB0: 01 10 04 00 43 00 43 01  03 12 00 02 10 03 13 00  ....C.C.........
0FC0: 03 10 03 14 00 04 10 D4  05 30 80 04 00 12 00 13  .........0......
0FD0: 00 14 00 02 05 00 03 80  00 E5 0F 3C 3F 00 35 80  ...........<?.5.
0FE0: 07 80 01 26 10 3D 3F 00  35 80 07 80 40 03 80 08  ...&.=?.5...@...
0FF0: 80 01 10 3D 80 40 3B 80  3C 80 01 10 3C 00 40 3D  ...=.@;.<...<.@=
1000: 80 40 80 01 10 05 00 43  00 43 01 03 15 00 02 10  .@.....C.C......
1010: 03 16 00 03 10 03 17 00  04 10 D4 05 35 80 05 00  ............5...
1020: 15 00 16 00 17 00 02 06  00 03 80 00 38 10 3C 3F  ............8.<?
1030: 00 43 80 07 80 01 79 10  3D 3F 00 43 80 07 80 40  .C....y.=?.C...@
1040: 03 80 08 80 01 10 3D 80  40 3B 80 3C 80 01 10 3C  ......=.@;.<...<
1050: 00 40 3D 80 40 80 01 10  06 00 43 00 43 01 03 18  .@=.@.....C.C...
1060: 00 02 10 03 19 00 03 10  03 1A 00 04 10 D4 05 43  ...............C
1070: 80 06 00 18 00 19 00 1A  00 02 07 00 03 80 00 8B  ................
1080: 10 3C 3F 00 0C 80 07 80  01 CC 10 3D 3F 00 0C 80  .<?........=?...
1090: 07 80 40 03 80 08 80 01  10 3D 80 40 3B 80 3C 80  ..@......=.@;.<.
10A0: 01 10 3C 00 40 3D 80 40  80 01 10 07 00 43 00 43  ..<.@=.@.....C.C
10B0: 01 03 1B 00 02 10 03 1C  00 03 10 03 1D 00 04 10  ................
10C0: D4 05 0C 80 07 00 1B 00  1C 00 1D 00 02 08 00 03  ................
10D0: 80 00 DE 10 3C 3F 00 08  80 07 80 01 1F 11 3D 3F  ....<?........=?
10E0: 00 08 80 07 80 40 03 80  08 80 01 10 3D 80 40 3B  .....@......=.@;
10F0: 80 3C 80 01 10 3C 00 40  3D 80 40 80 01 10 08 00  .<...<.@=.@.....
1100: 43 00 43 01 03 1E 00 02  10 03 1F 00 03 10 03 20  C.C............ 
1110: 00 04 10 D4 05 08 80 08  00 1E 00 1F 00 20 00 48  ............. .H
1120: 4D 80 23 03 02 10 01 00  03 03 10 02 00 03 04 10  M.#.............
1130: 03 00 03 05 10 04 00 03  06 10 05 00 03 07 10 06  ................
1140: 00 03 08 10 07 00 03 09  10 08 00 D4 02 4E 80 03  .............N..
1150: 80 3F 00 25 02 00 10 3B  80 00 06 12 40 03 80 08  .?.%...;....@...
1160: 80 01 10 49 80 40 3B 80  3C 80 01 10 3C 00 43 00  ...I.@;.<...<.C.
1170: 43 01 03 01 00 02 10 41  08 80 4B 80 01 00 02 17  C......A..K.....
1180: 03 03 17 03 10 48 4F 80  23 48 50 80 23 71 12 07  .....HO.#HP.#q..
1190: 80 43 80 71 13 31 00 02  31 00 03 80 00 A5 11 01  .C.q.1..1.......
11A0: 31 0E 01 03 12 02 31 00  02 17 05 00 12 03 02 10  1.....1.........
11B0: 31 00 2B 98 70 0F 01 51  80 23 24 52 80 07 80 03  1.+.p..Q.#$R....
11C0: 80 25 02 00 10 03 80 00  EF 11 40 03 80 08 80 01  .%........@.....
11D0: 10 53 80 40 3B 80 3C 80  01 10 3C 00 40 3D 80 40  .S.@;.<...<.@=.@
11E0: 80 01 10 31 00 43 00 43  01 01 31 0E 01 FD 11 02  ...1.C.C..1.....
11F0: 00 10 07 80 00 FD 11 01  31 0E 01 FD 11 01 03 12  ........1.......
1200: 01 31 0E 01 17 12 02 00  10 48 80 00 14 12 01 2D  .1.......H.....-
1210: 0D 01 17 12 01 2D 0D 01  BD 14 02 01 00 03 80 00  .....-..........
1220: 29 12 3C 3F 00 03 80 07  80 02 02 00 03 80 00 38  ).<?...........8
1230: 12 3C 3F 00 07 80 07 80  02 03 00 03 80 00 47 12  .<?...........G.
1240: 3C 3F 00 17 80 07 80 02  04 00 03 80 00 56 12 3C  <?...........V.<
1250: 3F 00 30 80 07 80 02 05  00 03 80 00 65 12 3C 3F  ?.0.........e.<?
1260: 00 35 80 07 80 02 06 00  03 80 00 74 12 3C 3F 00  .5.........t.<?.
1270: 43 80 07 80 02 07 00 03  80 00 83 12 3C 3F 00 0C  C...........<?..
1280: 80 07 80 02 08 00 03 80  00 92 12 3C 3F 00 08 80  ...........<?...
1290: 07 80 03 42 00 03 80 24  4E 80 03 80 3F 00 25 02  ...B...$N...?.%.
12A0: 00 10 03 80 00 AF 12 03  42 00 01 00 01 DF 13 02  ........B.......
12B0: 00 10 07 80 00 BF 12 03  42 00 02 00 01 DF 13 02  ........B.......
12C0: 00 10 17 80 00 CF 12 03  42 00 03 00 01 DF 13 02  ........B.......
12D0: 00 10 30 80 00 DF 12 03  42 00 04 00 01 DF 13 02  ..0.....B.......
12E0: 00 10 35 80 00 EF 12 03  42 00 05 00 01 DF 13 02  ..5.....B.......
12F0: 00 10 43 80 00 FF 12 03  42 00 06 00 01 DF 13 02  ..C.....B.......
1300: 00 10 0C 80 00 0F 13 03  42 00 07 00 01 DF 13 02  ........B.......
1310: 00 10 08 80 00 1F 13 03  42 00 08 00 01 DF 13 02  ........B.......
1320: 00 10 3B 80 00 D1 13 40  03 80 08 80 01 10 49 80  ..;....@......I.
1330: 40 3B 80 3C 80 01 10 3C  00 43 00 43 01 03 01 00  @;.<...<.C.C....
1340: 02 10 41 08 80 4B 80 01  00 02 17 03 03 17 03 10  ..A..K..........
1350: 48 4F 80 23 48 50 80 23  71 12 07 80 43 80 71 13  HO.#HP.#q...C.q.
1360: 31 00 02 31 00 03 80 00  70 13 01 31 0E 01 CE 13  1..1....p..1....
1370: 02 31 00 02 17 05 CB 13  03 02 10 31 00 2B 98 70  .1.........1.+.p
1380: 0F 01 51 80 23 24 52 80  07 80 03 80 25 02 00 10  ..Q.#$R.....%...
1390: 03 80 00 BA 13 40 03 80  08 80 01 10 53 80 40 3B  .....@......S.@;
13A0: 80 3C 80 01 10 3C 00 40  3D 80 40 80 01 10 31 00  .<...<.@=.@...1.
13B0: 43 00 43 01 01 31 0E 01  C8 13 02 00 10 07 80 00  C.C..1..........
13C0: C8 13 01 31 0E 01 C8 13  01 CE 13 01 31 0E 01 DF  ...1........1...
13D0: 13 02 00 10 48 80 00 DF  13 01 2D 0D 01 DF 13 02  ....H.....-.....
13E0: 42 00 03 80 00 ED 13 01  2D 0D 01 BD 14 40 03 80  B.......-....@..
13F0: 08 80 01 10 3E 80 40 3B  80 3C 80 01 10 03 80 40  ....>.@;.<.....@
1400: 3D 80 40 80 01 10 42 00  43 00 43 01 03 09 00 02  =.@...B.C.C.....
1410: 10 03 0A 00 03 10 03 0B  00 04 10 D4 05 03 80 42  ...............B
1420: 00 09 00 0A 00 0B 00 40  3B 80 3C 80 01 10 07 80  .......@;.<.....
1430: 43 00 43 01 03 0C 00 02  10 03 0D 00 03 10 03 0E  C.C.............
1440: 00 04 10 D4 05 07 80 42  00 0C 00 0D 00 0E 00 40  .......B.......@
1450: 3B 80 3C 80 01 10 17 80  43 00 43 01 03 0F 00 02  ;.<.....C.C.....
1460: 10 03 10 00 03 10 03 11  00 04 10 D4 05 17 80 42  ...............B
1470: 00 0F 00 10 00 11 00 40  3B 80 3C 80 01 10 30 80  .......@;.<...0.
1480: 43 00 43 01 03 12 00 02  10 03 13 00 03 10 03 14  C.C.............
1490: 00 04 10 D4 05 30 80 42  00 12 00 13 00 14 00 48  .....0.B.......H
14A0: 4D 80 23 D4 02 54 80 03  80 03 80 25 02 00 10 35  M.#..T.....%...5
14B0: 80 00 BA 14 01 31 0E 01  BD 14 01 31 0E 01 D3 14  .....1.....1....
14C0: 02 00 10 43 80 00 CE 14  01 91 04 01 D3 14 03 01  ...C............
14D0: 10 03 80 01 70 1A 02 00  10 30 80 00 8A 15 03 02  ....p....0......
14E0: 10 55 80 03 03 10 20 80  03 04 10 3C 80 03 05 10  .U.... ....<....
14F0: 0C 80 2C 98 70 0F 01 98  70 0F 01 65 78 70 30 2B  ..,.p...p..exp0+
1500: 98 70 0F 01 56 80 23 2B  98 70 0F 01 57 80 23 2B  .p..V.#+.p..W.#+
1510: 98 70 0F 01 58 80 23 2B  98 70 0F 01 59 80 23 2B  .p..X.#+.p..Y.#+
1520: 98 70 0F 01 5A 80 23 2B  98 70 0F 01 5B 80 23 2B  .p..Z.#+.p..[.#+
1530: 98 70 0F 01 5C 80 23 2B  98 70 0F 01 5D 80 23 2B  .p..\.#+.p..].#+
1540: 98 70 0F 01 5E 80 23 2B  98 70 0F 01 5F 80 23 2B  .p..^.#+.p.._.#+
1550: 98 70 0F 01 60 80 23 2B  98 70 0F 01 61 80 23 2B  .p..`.#+.p..a.#+
1560: 98 70 0F 01 62 80 23 2B  98 70 0F 01 63 80 23 2B  .p..b.#+.p..c.#+
1570: 98 70 0F 01 64 80 23 2C  98 70 0F 01 98 70 0F 01  .p..d.#,.p...p..
1580: 65 78 70 31 01 91 04 01  70 1A 02 00 10 35 80 00  exp1....p....5..
1590: 90 19 40 03 80 08 80 01  10 45 80 43 00 43 01 03  ..@......E.C.C..
15A0: 3A 00 03 80 03 3B 00 03  80 03 39 00 02 10 D4 03  :....;....9.....
15B0: 07 80 04 10 D4 03 17 80  05 10 D4 03 30 80 06 10  ............0...
15C0: D4 03 35 80 07 10 02 03  10 03 80 00 D5 15 3C 3A  ..5...........<:
15D0: 00 03 80 07 80 02 04 10  03 80 00 E4 15 3C 3A 00  .............<:.
15E0: 07 80 07 80 02 05 10 03  80 00 F3 15 3C 3A 00 17  ............<:..
15F0: 80 07 80 02 06 10 03 80  00 02 16 3C 3A 00 30 80  ...........<:.0.
1600: 07 80 02 07 10 03 80 00  11 16 3C 3A 00 35 80 07  ..........<:.5..
1610: 80 D4 02 65 80 03 80 3A  00 25 02 00 10 03 80 00  ...e...:.%......
1620: E7 16 02 03 10 55 80 80  32 16 03 3B 00 07 80 01  .....U..2..;....
1630: 52 16 02 03 10 66 80 80  42 16 03 3B 00 17 80 01  R....f..B..;....
1640: 52 16 02 03 10 67 80 80  52 16 03 3B 00 30 80 01  R....g..R..;.0..
1650: 52 16 03 31 00 39 00 15  31 00 68 80 02 31 00 3B  R..1.9..1.h..1.;
1660: 00 04 69 16 03 31 00 3B  00 03 02 17 31 00 48 50  ..i..1.;....1.HP
1670: 80 23 71 12 07 80 43 80  71 13 31 00 02 31 00 03  .#q...C.q.1..1..
1680: 80 00 8A 16 01 92 15 01  E4 16 02 31 00 3B 00 05  ...........1.;..
1690: E1 16 03 02 10 31 00 03  03 10 55 80 2B 98 70 0F  .....1....U.+.p.
16A0: 01 69 80 23 24 52 80 07  80 03 80 25 02 00 10 03  .i.#$R.....%....
16B0: 80 00 D0 16 40 03 80 08  80 01 10 6A 80 40 3B 80  ....@......j.@;.
16C0: 3C 80 01 10 31 00 43 00  43 01 01 92 15 01 DE 16  <...1.C.C.......
16D0: 02 00 10 07 80 00 DE 16  01 92 15 01 DE 16 01 E4  ................
16E0: 16 01 92 15 01 8D 19 02  00 10 07 80 00 8D 17 03  ................
16F0: 3B 00 39 00 15 3B 00 6B  80 02 3B 00 6C 80 04 06  ;.9..;.k..;.l...
1700: 17 03 3B 00 6C 80 03 02  17 3B 00 48 50 80 23 71  ..;.l....;.HP.#q
1710: 12 07 80 43 80 71 13 31  00 02 31 00 03 80 00 27  ...C.q.1..1....'
1720: 17 01 92 15 01 8A 17 02  31 00 3B 00 05 87 17 03  ........1.;.....
1730: 02 10 31 00 03 03 10 6D  80 2B 98 70 0F 01 6E 80  ..1....m.+.p..n.
1740: 23 24 52 80 07 80 03 80  25 02 00 10 03 80 00 76  #$R.....%......v
1750: 17 40 03 80 08 80 01 10  6F 80 40 3B 80 3C 80 01  .@......o.@;.<..
1760: 10 31 00 40 3D 80 40 80  01 10 6D 80 43 00 43 01  .1.@=.@...m.C.C.
1770: 01 92 15 01 84 17 02 00  10 07 80 00 84 17 01 92  ................
1780: 15 01 84 17 01 8A 17 01  92 15 01 8D 19 02 00 10  ................
1790: 17 80 00 33 18 03 3B 00  39 00 15 3B 00 70 80 02  ...3..;.9..;.p..
17A0: 3B 00 6C 80 04 AC 17 03  3B 00 6C 80 03 02 17 3B  ;.l.....;.l....;
17B0: 00 48 50 80 23 71 12 07  80 43 80 71 13 31 00 02  .HP.#q...C.q.1..
17C0: 31 00 03 80 00 CD 17 01  92 15 01 30 18 02 31 00  1..........0..1.
17D0: 3B 00 05 2D 18 03 02 10  31 00 03 03 10 71 80 2B  ;..-....1....q.+
17E0: 98 70 0F 01 6E 80 23 24  52 80 07 80 03 80 25 02  .p..n.#$R.....%.
17F0: 00 10 03 80 00 1C 18 40  03 80 08 80 01 10 6F 80  .......@......o.
1800: 40 3B 80 3C 80 01 10 31  00 40 3D 80 40 80 01 10  @;.<...1.@=.@...
1810: 71 80 43 00 43 01 01 92  15 01 2A 18 02 00 10 07  q.C.C.....*.....
1820: 80 00 2A 18 01 92 15 01  2A 18 01 30 18 01 92 15  ..*.....*..0....
1830: 01 8D 19 02 00 10 30 80  00 D9 18 03 3B 00 39 00  ......0.....;.9.
1840: 15 3B 00 72 80 02 3B 00  6C 80 04 52 18 03 3B 00  .;.r..;.l..R..;.
1850: 6C 80 03 02 17 3B 00 48  50 80 23 71 12 07 80 43  l....;.HP.#q...C
1860: 80 71 13 31 00 02 31 00  03 80 00 73 18 01 92 15  .q.1..1....s....
1870: 01 D6 18 02 31 00 3B 00  05 D3 18 03 02 10 31 00  ....1.;.......1.
1880: 03 03 10 73 80 2B 98 70  0F 01 6E 80 23 24 52 80  ...s.+.p..n.#$R.
1890: 07 80 03 80 25 02 00 10  03 80 00 C2 18 40 03 80  ....%........@..
18A0: 08 80 01 10 6F 80 40 3B  80 3C 80 01 10 31 00 40  ....o.@;.<...1.@
18B0: 3D 80 40 80 01 10 73 80  43 00 43 01 01 92 15 01  =.@...s.C.C.....
18C0: D0 18 02 00 10 07 80 00  D0 18 01 92 15 01 D0 18  ................
18D0: 01 D6 18 01 92 15 01 8D  19 02 00 10 35 80 00 7F  ............5...
18E0: 19 03 3B 00 39 00 15 3B  00 74 80 02 3B 00 6C 80  ..;.9..;.t..;.l.
18F0: 04 F8 18 03 3B 00 6C 80  03 02 17 3B 00 48 50 80  ....;.l....;.HP.
1900: 23 71 12 07 80 43 80 71  13 31 00 02 31 00 03 80  #q...C.q.1..1...
1910: 00 19 19 01 92 15 01 7C  19 02 31 00 3B 00 05 79  .......|..1.;..y
1920: 19 03 02 10 31 00 03 03  10 75 80 2B 98 70 0F 01  ....1....u.+.p..
1930: 6E 80 23 24 52 80 07 80  03 80 25 02 00 10 03 80  n.#$R.....%.....
1940: 00 68 19 40 03 80 08 80  01 10 6F 80 40 3B 80 3C  .h.@......o.@;.<
1950: 80 01 10 31 00 40 3D 80  40 80 01 10 75 80 43 00  ...1.@=.@...u.C.
1960: 43 01 01 92 15 01 76 19  02 00 10 07 80 00 76 19  C.....v.......v.
1970: 01 92 15 01 76 19 01 7C  19 01 92 15 01 8D 19 02  ....v..|........
1980: 00 10 43 80 00 8D 19 01  91 04 01 8D 19 01 70 1A  ..C...........p.
1990: 02 00 10 43 80 00 23 1A  03 40 00 03 80 03 01 10  ...C..#..@......
19A0: 76 80 43 00 43 01 03 40  00 02 10 24 77 80 03 80  v.C.C..@...$w...
19B0: 40 00 25 02 00 10 03 80  00 C3 19 03 01 10 41 80  @.%...........A.
19C0: 01 01 1A 02 00 10 07 80  00 D3 19 03 01 10 18 80  ................
19D0: 01 01 1A 02 00 10 17 80  00 E3 19 03 01 10 78 80  ..............x.
19E0: 01 01 1A 02 00 10 30 80  00 F3 19 03 01 10 4B 80  ......0.......K.
19F0: 01 01 1A 02 00 10 35 80  00 01 1A 01 91 04 01 01  ......5.........
1A00: 1A 43 00 43 01 02 02 10  03 80 00 10 1A 01 18 1A  .C.C............
1A10: 2B 98 70 0F 01 79 80 23  2B 98 70 0F 01 7A 80 23  +.p..y.#+.p..z.#
1A20: 01 70 1A 02 00 10 0C 80  00 6B 1A 2C 98 70 0F 01  .p.......k.,.p..
1A30: 98 70 0F 01 65 78 70 30  2B 98 70 0F 01 7B 80 23  .p..exp0+.p..{.#
1A40: 2B 98 70 0F 01 7C 80 23  2B 98 70 0F 01 7D 80 23  +.p..|.#+.p..}.#
1A50: 2B 98 70 0F 01 7E 80 23  2C 98 70 0F 01 98 70 0F  +.p..~.#,.p...p.
1A60: 01 65 78 70 31 01 91 04  01 70 1A 03 01 10 03 80  .exp1....p......
1A70: 1A 98 22 21 00                                    .."!.           
```

#### Opcodes

```
  0: 0x03F4 [0x03] ExtData[1]->WorkLocal[46] = Work_Zone[2]
  1: 0x03F9 [0x03] ExtData[1]->WorkLocal[2] = Work_Zone[3]
  2: 0x03FE [0x03] ExtData[1]->WorkLocal[52] = Work_Zone[4]
  3: 0x0403 [0x1A] CALL_SUBROUTINE(address=0x2227)
  4: 0x0406 [0x1C] WAIT(60* ticks)
  5: 0x0409 [0x3E] IF !(ExtData[1]->WorkLocal[2] bit 0*) GOTO 0x046F
  6: 0x0410 [0x42] SET_CLI_EVENT_CANCEL_DATA()
  7: 0x0411 [0x2C] CREATE_SCHEDULER_TASK: Create scheduler "hap0" with entities [Pilgrimage Moogle (ID: 17789080/0x010F7098), Pilgrimage Moogle (ID: 17789080/0x010F7098)]
  8: 0x041E [0x2B] Pilgrimage Moogle (ID: 17789080/0x010F7098) [12178*]:
    → "I thought you'd never ask, kupo."
  9: 0x0425 [0x23] WAIT_FOR_DIALOG_INTERACTION
 10: 0x0426 [0x03] Work_Zone[2] = 3212*
 11: 0x042B [0x2B] Pilgrimage Moogle (ID: 17789080/0x010F7098) [12179*]:
    → "I've added new functionality to your $3."
 12: 0x0432 [0x23] WAIT_FOR_DIALOG_INTERACTION
 13: 0x0433 [0x2B] Pilgrimage Moogle (ID: 17789080/0x010F7098) [12180*]:
    → "And it's called..."
 14: 0x043A [0x23] WAIT_FOR_DIALOG_INTERACTION
 15: 0x043B [0x2B] Pilgrimage Moogle (ID: 17789080/0x010F7098) [12181*]:
    → "...Moogle Mastery, kupo!"
 16: 0x0442 [0x23] WAIT_FOR_DIALOG_INTERACTION
 17: 0x0443 [0x2B] Pilgrimage Moogle (ID: 17789080/0x010F7098) [12182*]:
    → "Moogle Mastery bestows your alter egos with a variety of special effects that are only active while you are inside "the secret place.""
 18: 0x044A [0x23] WAIT_FOR_DIALOG_INTERACTION
 19: 0x044B [0x2B] Pilgrimage Moogle (ID: 17789080/0x010F7098) [12183*]:
    → "Good luck in your adventures, kupo!"
 20: 0x0452 [0x23] WAIT_FOR_DIALOG_INTERACTION
 21: 0x0453 [0x2C] CREATE_SCHEDULER_TASK: Create scheduler "hap1" with entities [Pilgrimage Moogle (ID: 17789080/0x010F7098), Pilgrimage Moogle (ID: 17789080/0x010F7098)]
 22: 0x0460 [0x03] Work_Zone[1] = 3*
 23: 0x0465 [0x43] SEND_EVENT_UPDATE: Send pending tag to server (packet 0x005B)
 24: 0x0467 [0x43] SEND_EVENT_UPDATE: Check pending flag (skip if not pending)
 25: 0x0469 [0x03] Work_Zone[1] = 0*
 26: 0x046E [0x2E] SET_CLI_EVENT_CANCEL_FLAGS()
 27: 0x046F [0x2C] CREATE_SCHEDULER_TASK: Create scheduler "tlk0" with entities [Pilgrimage Moogle (ID: 17789080/0x010F7098), Pilgrimage Moogle (ID: 17789080/0x010F7098)]
 28: 0x047C [0x2B] Pilgrimage Moogle (ID: 17789080/0x010F7098) [12169*]:
    → "Any questions, kupo?"
 29: 0x0483 [0x23] WAIT_FOR_DIALOG_INTERACTION
 30: 0x0484 [0x2C] CREATE_SCHEDULER_TASK: Create scheduler "tlk1" with entities [Pilgrimage Moogle (ID: 17789080/0x010F7098), Pilgrimage Moogle (ID: 17789080/0x010F7098)]
 31: 0x0491 [0x03] Work_Zone[2] = 3212*
 32: 0x0496 [0x24] CREATE_DIALOG(message_id=12170*, default_option=0*, option_flags=ExtData[1]->WorkLocal[46])
    → "Inquire about what? [I want $6./Tell me more./Give me a status report./Learn about Sheol: Gaol.@/Mog Segment exchange list./Equipment for purchase.@/Augments./Nothing for now.]"
 33: 0x049D [0x25] WAIT_DIALOG_SELECT()
 34: 0x049E [0x02] IF !(Work_Zone[0] == 0*) GOTO 0x0561
 35: 0x04A6 [0x03] Work_Zone[1] = 1*
 36: 0x04AB [0x43] SEND_EVENT_UPDATE: Send pending tag to server (packet 0x005B)
 37: 0x04AD [0x43] SEND_EVENT_UPDATE: Check pending flag (skip if not pending)
 38: 0x04AF [0x02] IF !(Work_Zone[2] == 0*) GOTO 0x04E4
 39: 0x04B7 [0x2C] CREATE_SCHEDULER_TASK: Create scheduler "tlk0" with entities [Pilgrimage Moogle (ID: 17789080/0x010F7098), Pilgrimage Moogle (ID: 17789080/0x010F7098)]
 40: 0x04C4 [0x2B] Pilgrimage Moogle (ID: 17789080/0x010F7098) [12172*]:
    → "You already have one. What do you need another for, kupo?"
 41: 0x04CB [0x23] WAIT_FOR_DIALOG_INTERACTION
 42: 0x04CC [0x2C] CREATE_SCHEDULER_TASK: Create scheduler "tlk1" with entities [Pilgrimage Moogle (ID: 17789080/0x010F7098), Pilgrimage Moogle (ID: 17789080/0x010F7098)]
 43: 0x04D9 [0x03] Work_Zone[1] = 0*
 44: 0x04DE [0x01] GOTO 0x0491

SUBROUTINE_054B:
 45: 0x054B [0x2C] CREATE_SCHEDULER_TASK: Create scheduler "tlk1" with entities [Pilgrimage Moogle (ID: 17789080/0x010F7098), Pilgrimage Moogle (ID: 17789080/0x010F7098)]
 46: 0x0558 [0x01] GOTO 0x0491

SUBROUTINE_055E:
 47: 0x055E [0x01] GOTO 0x1A70
 48: 0x0561 [0x02] IF !(Work_Zone[0] == 1*) GOTO 0x05DD
 49: 0x0569 [0x03] Work_Zone[2] = 3212*
 50: 0x056E [0x2C] CREATE_SCHEDULER_TASK: Create scheduler "exp0" with entities [Pilgrimage Moogle (ID: 17789080/0x010F7098), Pilgrimage Moogle (ID: 17789080/0x010F7098)]
 51: 0x057B [0x2B] Pilgrimage Moogle (ID: 17789080/0x010F7098) [12161*]:
    → "You'll need $6 to go to "the secret place," kupo."
 52: 0x0582 [0x23] WAIT_FOR_DIALOG_INTERACTION
 53: 0x0583 [0x2B] Pilgrimage Moogle (ID: 17789080/0x010F7098) [12162*]:
    → "5 are special devices made with mysterious moogle magic!"
 54: 0x058A [0x23] WAIT_FOR_DIALOG_INTERACTION
 55: 0x058B [0x2B] Pilgrimage Moogle (ID: 17789080/0x010F7098) [12163*]:
    → "They're extremely easy to employ, too. They activate automatically as soon as you enter via a veridical conflux, and information on any monsters you mash is transmitted to me immediately, kupo."
 56: 0x0592 [0x23] WAIT_FOR_DIALOG_INTERACTION
 57: 0x0593 [0x2B] Pilgrimage Moogle (ID: 17789080/0x010F7098) [12164*]:
    → "And what's even better, they make sure you're not trapped in the netherworld as you find your way back! Just use it and you'll return in a flash."
 58: 0x059A [0x23] WAIT_FOR_DIALOG_INTERACTION
 59: 0x059B [0x03] Work_Zone[3] = 30*
 60: 0x05A0 [0x2B] Pilgrimage Moogle (ID: 17789080/0x010F7098) [12165*]:
    → "5 can only remain active for $1 minutes (Earth time), kupo, and when the mysterious moogle magic runs out, you'll be bounced back to Vana'diel."
 61: 0x05A7 [0x23] WAIT_FOR_DIALOG_INTERACTION
 62: 0x05A8 [0x03] Work_Zone[3] = 20*
 63: 0x05AD [0x2B] Pilgrimage Moogle (ID: 17789080/0x010F7098) [12166*]:
    → "The moogle magic will also expire when you use $6 to come back manually, and at least $1 hour[/s] must pass before I can power it up again."
 64: 0x05B4 [0x23] WAIT_FOR_DIALOG_INTERACTION
 65: 0x05B5 [0x03] Work_Zone[2] = 6*
 66: 0x05BA [0x2B] Pilgrimage Moogle (ID: 17789080/0x010F7098) [12167*]:
    → "And only between 1 and $0 people may enter the verdical conflux at once, kupo."
 67: 0x05C1 [0x23] WAIT_FOR_DIALOG_INTERACTION
 68: 0x05C2 [0x2B] Pilgrimage Moogle (ID: 17789080/0x010F7098) [12168*]:
    → "That's all from my side, kupo. Let me know if you have any other questions."
 69: 0x05C9 [0x23] WAIT_FOR_DIALOG_INTERACTION
 70: 0x05CA [0x2C] CREATE_SCHEDULER_TASK: Create scheduler "exp1" with entities [Pilgrimage Moogle (ID: 17789080/0x010F7098), Pilgrimage Moogle (ID: 17789080/0x010F7098)]
 71: 0x05D7 [0x01] GOTO 0x0491

SUBROUTINE_0607:
 72: 0x0607 [0x03] ExtData[1]->WorkLocal[39] = ExtData[1]->WorkLocal[52]
 73: 0x060C [0x24] CREATE_DIALOG(message_id=12176*, default_option=0*, option_flags=ExtData[1]->WorkLocal[39])
    → "View which? [Sheol A./Sheol B./Sheol C./Moogle Mastery./Sheol: Gaol. /Back.]"
 74: 0x0613 [0x25] WAIT_DIALOG_SELECT()
 75: 0x0614 [0x02] IF !(Work_Zone[0] == 0*) GOTO 0x0748
 76: 0x061C [0x1A] CALL_SUBROUTINE(address=0x22A4)
 77: 0x061F [0x03] Work_Zone[1] = 2*
 78: 0x0624 [0x43] SEND_EVENT_UPDATE: Send pending tag to server (packet 0x005B)
 79: 0x0626 [0x43] SEND_EVENT_UPDATE: Check pending flag (skip if not pending)
 80: 0x0628 [0x03] ExtData[1]->WorkLocal[1] = Work_Zone[2]
 81: 0x062D [0x03] ExtData[1]->WorkLocal[2] = Work_Zone[3]
 82: 0x0632 [0x03] ExtData[1]->WorkLocal[3] = Work_Zone[4]
 83: 0x0637 [0x03] ExtData[1]->WorkLocal[4] = Work_Zone[5]
 84: 0x063C [0x03] ExtData[1]->WorkLocal[5] = Work_Zone[6]
 85: 0x0641 [0x03] ExtData[1]->WorkLocal[6] = Work_Zone[7]
 86: 0x0646 [0x03] Work_Zone[2] = ExtData[1]->WorkLocal[6]
 87: 0x064B [0x41] Work_Zone[3] = ExtData[1]->WorkLocal[1] (bits 0*-7*)
 88: 0x0654 [0x41] Work_Zone[4] = ExtData[1]->WorkLocal[1] (bits 8*-15*)
 89: 0x065D [0x41] Work_Zone[5] = ExtData[1]->WorkLocal[1] (bits 16*-23*)
 90: 0x0666 [0x41] Work_Zone[6] = ExtData[1]->WorkLocal[1] (bits 24*-31*)
 91: 0x066F [0x41] Work_Zone[7] = ExtData[1]->WorkLocal[2] (bits 0*-7*)
 92: 0x0678 [0x41] Work_Zone[8] = ExtData[1]->WorkLocal[2] (bits 8*-15*)
 93: 0x0681 [0x41] Work_Zone[9] = ExtData[1]->WorkLocal[2] (bits 16*-23*)
 94: 0x068A [0x41] Work_Zone_1700[0] = ExtData[1]->WorkLocal[2] (bits 24*-31*)
 95: 0x0693 [0x41] Work_Zone_1700[1] = ExtData[1]->WorkLocal[3] (bits 0*-7*)
 96: 0x069C [0x41] Work_Zone_1700[2] = ExtData[1]->WorkLocal[3] (bits 8*-15*)
 97: 0x06A5 [0x41] Work_Zone_1700[3] = ExtData[1]->WorkLocal[3] (bits 16*-23*)
 98: 0x06AE [0x41] Work_Zone_1700[4] = ExtData[1]->WorkLocal[3] (bits 24*-31*)
 99: 0x06B7 [0x41] Work_Zone_1700[5] = ExtData[1]->WorkLocal[4] (bits 0*-7*)
100: 0x06C0 [0x41] Work_Zone_1700[6] = ExtData[1]->WorkLocal[4] (bits 8*-15*)
101: 0x06C9 [0x41] Work_Zone_1700[7] = ExtData[1]->WorkLocal[4] (bits 16*-23*)
102: 0x06D2 [0x41] Work_Zone_1700[8] = ExtData[1]->WorkLocal[4] (bits 24*-31*)
103: 0x06DB [0x41] Work_Zone_1700[9] = ExtData[1]->WorkLocal[5] (bits 0*-7*)
104: 0x06E4 [0x41] Work_Zone_1700[10] = ExtData[1]->WorkLocal[5] (bits 8*-15*)
105: 0x06ED [0x41] Work_Zone_1700[11] = ExtData[1]->WorkLocal[5] (bits 16*-23*)
106: 0x06F6 [0x03] ExtData[1]->WorkLocal[41] = 0*
107: 0x06FB [0x03] ExtData[1]->WorkLocal[47] = 19*

SUBROUTINE_0700:
108: 0x0700 [0x02] IF !(ExtData[1]->WorkLocal[47] < 0*) GOTO 0x0727
109: 0x0708 [0x9D] IF (0x28AF) ExtData[1]->WorkLocal[47] = ExtData[1]->WorkLocal[49] // extra=0x8018
110: 0x0712 [0x02] IF !(ExtData[1]->WorkLocal[49] == 0*) GOTO 0x0721
111: 0x071A [0x3C] SET_BIT_FLAG_CONDITIONAL(target_work_offset=ExtData[1]->WorkLocal[41], bit_index_work_offset=ExtData[1]->WorkLocal[47], condition_work_offset=1*)
112: 0x0721 [0x0C] ExtData[1]->WorkLocal[47]--
113: 0x0724 [0x01] GOTO 0x0700
114: 0x0727 [0x03] Work_Zone[1] = 0*
115: 0x072C [0x24] CREATE_DIALOG(message_id=12177*, default_option=0*, option_flags=ExtData[1]->WorkLocal[41])
    → "Defeated foes and opened chests: [All nostos: $0./Tipuli: $1./Brachys: $2./Dione: $3./Gloios: $4./Damysus: $5./Aegypius: $6./Salmandra: $7./Ailuros: $8./Megaera: $9./Eurytus: $10./Harpe: $11./Kusarikku: $12./Leucippe:$13./Cynara: $14./Ptelea: $15./Physis: $16./Chests: $17./Coffers: $18./Aurum Strongboxes: $19./Back.]"
116: 0x0733 [0x25] WAIT_DIALOG_SELECT()
117: 0x0734 [0x02] IF !(Work_Zone[0] == 20*) GOTO 0x0742
118: 0x073C [0x01] GOTO 0x0607

SUBROUTINE_08AF:
119: 0x08AF [0x02] IF !(ExtData[1]->WorkLocal[47] < 0*) GOTO 0x08D6
120: 0x08B7 [0x9D] IF (0x28AF) ExtData[1]->WorkLocal[47] = ExtData[1]->WorkLocal[49] // extra=0x8040
121: 0x08C1 [0x02] IF !(ExtData[1]->WorkLocal[49] == 0*) GOTO 0x08D0
122: 0x08C9 [0x3C] SET_BIT_FLAG_CONDITIONAL(target_work_offset=ExtData[1]->WorkLocal[42], bit_index_work_offset=ExtData[1]->WorkLocal[47], condition_work_offset=1*)
123: 0x08D0 [0x0C] ExtData[1]->WorkLocal[47]--
124: 0x08D3 [0x01] GOTO 0x08AF
125: 0x08D6 [0x03] Work_Zone[1] = 0*
126: 0x08DB [0x24] CREATE_DIALOG(message_id=12184*, default_option=0*, option_flags=ExtData[1]->WorkLocal[42])
    → "Defeated foes and opened chests: [All Nostos: $0./Man-kheper-re: $1./Zacatzontli: $2./Gandji: $3./Bendigeidfran: $4./Kuk: $5./Shara: $6./Tabitjet: $7./Langmeidong: $8./Gravehaunter: $9./Ptesan Wi: $10./Chelamma: $11./Azdaha: $12./Nerites: $13./Allergorhai: $14./Bes: $15./Spyrysyon: $16./Taniwha: $17./Fleet-footed Lokberry: $18./Apollinaris VII-II: $19./Simir: $20./Count Malefis: $21./Akidu: $22./Fornax: $23./Ishum: $24./Maverick Maude: $25./Chnubis: $26./Tripix: $27./Chests: $28./Coffers: $29./Aurum Strongboxes:$30./Back.]"
127: 0x08E2 [0x25] WAIT_DIALOG_SELECT()
128: 0x08E3 [0x02] IF !(Work_Zone[0] == 31*) GOTO 0x08F1
129: 0x08EB [0x01] GOTO 0x0607

SUBROUTINE_0988:
130: 0x0988 [0x02] IF !(ExtData[1]->WorkLocal[47] < 0*) GOTO 0x09AF
131: 0x0990 [0x9D] IF (0x28AF) ExtData[1]->WorkLocal[47] = ExtData[1]->WorkLocal[49] // extra=0x8045
132: 0x099A [0x02] IF !(ExtData[1]->WorkLocal[49] == 0*) GOTO 0x09A9
133: 0x09A2 [0x3C] SET_BIT_FLAG_CONDITIONAL(target_work_offset=ExtData[1]->WorkLocal[43], bit_index_work_offset=ExtData[1]->WorkLocal[47], condition_work_offset=1*)
134: 0x09A9 [0x0C] ExtData[1]->WorkLocal[47]--
135: 0x09AC [0x01] GOTO 0x0988
136: 0x09AF [0x03] Work_Zone[1] = 0*
137: 0x09B4 [0x24] CREATE_DIALOG(message_id=12185*, default_option=0*, option_flags=ExtData[1]->WorkLocal[43])
    → "Defeated foes and opened chests: [All Nostos: $0./Lotanu: $1./Kurmajara: $2./Dabbat al-Ard: $3./Choas Steward: $4./Wayra Tata: $5./Asena: $6./Bygul: $7./Chests: $8./Coffers: $9./Aurum Strongboxes:$10./Back.]"
138: 0x09BB [0x25] WAIT_DIALOG_SELECT()
139: 0x09BC [0x02] IF !(Work_Zone[0] == 11*) GOTO 0x09CA
140: 0x09C4 [0x01] GOTO 0x0607

SUBROUTINE_0AE3:
141: 0x0AE3 [0x1A] CALL_SUBROUTINE(address=0x22A4)
142: 0x0AE6 [0x03] Work_Zone[1] = 4*
143: 0x0AEB [0x43] SEND_EVENT_UPDATE: Send pending tag to server (packet 0x005B)
144: 0x0AED [0x43] SEND_EVENT_UPDATE: Check pending flag (skip if not pending)
145: 0x0AEF [0x03] ExtData[1]->WorkLocal[8] = Work_Zone[2]
146: 0x0AF4 [0x03] ExtData[1]->WorkLocal[9] = Work_Zone[3]
147: 0x0AF9 [0x03] ExtData[1]->WorkLocal[10] = Work_Zone[4]
148: 0x0AFE [0x03] ExtData[1]->WorkLocal[11] = Work_Zone[5]
149: 0x0B03 [0x03] ExtData[1]->WorkLocal[12] = Work_Zone[6]
150: 0x0B08 [0x03] ExtData[1]->WorkLocal[13] = Work_Zone[7]
151: 0x0B0D [0x03] ExtData[1]->WorkLocal[14] = Work_Zone[8]
152: 0x0B12 [0x03] Work_Zone[1] = 5*
153: 0x0B17 [0x43] SEND_EVENT_UPDATE: Send pending tag to server (packet 0x005B)
154: 0x0B19 [0x43] SEND_EVENT_UPDATE: Check pending flag (skip if not pending)
155: 0x0B1B [0x03] ExtData[1]->WorkLocal[15] = Work_Zone[2]
156: 0x0B20 [0x03] ExtData[1]->WorkLocal[16] = Work_Zone[3]
157: 0x0B25 [0x03] Work_Zone[2] = ExtData[1]->WorkLocal[16]
158: 0x0B2A [0x41] Work_Zone[3] = ExtData[1]->WorkLocal[8] (bits 0*-7*)
159: 0x0B33 [0x41] Work_Zone[4] = ExtData[1]->WorkLocal[8] (bits 8*-15*)
160: 0x0B3C [0x41] Work_Zone[5] = ExtData[1]->WorkLocal[8] (bits 16*-23*)
161: 0x0B45 [0x41] Work_Zone[6] = ExtData[1]->WorkLocal[8] (bits 24*-31*)
162: 0x0B4E [0x41] Work_Zone[7] = ExtData[1]->WorkLocal[9] (bits 0*-7*)
163: 0x0B57 [0x41] Work_Zone[8] = ExtData[1]->WorkLocal[9] (bits 8*-15*)
164: 0x0B60 [0x41] Work_Zone[9] = ExtData[1]->WorkLocal[9] (bits 16*-23*)
165: 0x0B69 [0x41] Work_Zone_1700[0] = ExtData[1]->WorkLocal[9] (bits 24*-31*)
166: 0x0B72 [0x41] Work_Zone_1700[1] = ExtData[1]->WorkLocal[10] (bits 0*-7*)
167: 0x0B7B [0x41] Work_Zone_1700[2] = ExtData[1]->WorkLocal[10] (bits 8*-15*)
168: 0x0B84 [0x41] Work_Zone_1700[3] = ExtData[1]->WorkLocal[10] (bits 16*-23*)
169: 0x0B8D [0x41] Work_Zone_1700[4] = ExtData[1]->WorkLocal[10] (bits 24*-31*)
170: 0x0B96 [0x41] Work_Zone_1700[5] = ExtData[1]->WorkLocal[11] (bits 0*-7*)
171: 0x0B9F [0x41] Work_Zone_1700[6] = ExtData[1]->WorkLocal[11] (bits 8*-15*)
172: 0x0BA8 [0x41] Work_Zone_1700[7] = ExtData[1]->WorkLocal[11] (bits 16*-23*)
173: 0x0BB1 [0x41] Work_Zone_1700[8] = ExtData[1]->WorkLocal[11] (bits 24*-31*)
174: 0x0BBA [0x41] Work_Zone_1700[9] = ExtData[1]->WorkLocal[12] (bits 0*-7*)
175: 0x0BC3 [0x41] Work_Zone_1700[10] = ExtData[1]->WorkLocal[12] (bits 8*-15*)
176: 0x0BCC [0x41] Work_Zone_1700[11] = ExtData[1]->WorkLocal[12] (bits 16*-23*)
177: 0x0BD5 [0x41] Work_Zone_1700[12] = ExtData[1]->WorkLocal[12] (bits 24*-31*)
178: 0x0BDE [0x41] Work_Zone_1700[13] = ExtData[1]->WorkLocal[13] (bits 0*-7*)
179: 0x0BE7 [0x41] Work_Zone_1700[14] = ExtData[1]->WorkLocal[13] (bits 8*-15*)
180: 0x0BF0 [0x41] Work_Zone_1700[15] = ExtData[1]->WorkLocal[13] (bits 16*-23*)
181: 0x0BF9 [0x41] Work_Zone_1700[16] = ExtData[1]->WorkLocal[13] (bits 24*-31*)
182: 0x0C02 [0x41] Work_Zone_1700[17] = ExtData[1]->WorkLocal[14] (bits 0*-7*)
183: 0x0C0B [0x41] Work_Zone_1700[18] = ExtData[1]->WorkLocal[14] (bits 8*-15*)
184: 0x0C14 [0x41] Work_Zone_1700[19] = ExtData[1]->WorkLocal[14] (bits 16*-23*)
185: 0x0C1D [0x41] Work_Zone_1700[20] = ExtData[1]->WorkLocal[15] (bits 0*-7*)
186: 0x0C26 [0x41] Work_Zone_1700[21] = ExtData[1]->WorkLocal[15] (bits 8*-15*)
187: 0x0C2F [0x41] Work_Zone_1700[22] = ExtData[1]->WorkLocal[15] (bits 16*-23*)
188: 0x0C38 [0x03] Work_Zone[1] = 7*
189: 0x0C3D [0x43] SEND_EVENT_UPDATE: Send pending tag to server (packet 0x005B)
190: 0x0C3F [0x43] SEND_EVENT_UPDATE: Check pending flag (skip if not pending)
191: 0x0C41 [0x03] ExtData[1]->WorkLocal[17] = Work_Zone[2]
192: 0x0C46 [0x03] ExtData[1]->WorkLocal[18] = Work_Zone[3]
193: 0x0C4B [0x03] ExtData[1]->WorkLocal[19] = Work_Zone[4]
194: 0x0C50 [0x03] ExtData[1]->WorkLocal[20] = Work_Zone[5]
195: 0x0C55 [0x03] Work_Zone[2] = ExtData[1]->WorkLocal[20]
196: 0x0C5A [0x41] Work_Zone[3] = ExtData[1]->WorkLocal[17] (bits 0*-7*)
197: 0x0C63 [0x41] Work_Zone[4] = ExtData[1]->WorkLocal[17] (bits 8*-15*)
198: 0x0C6C [0x41] Work_Zone[5] = ExtData[1]->WorkLocal[17] (bits 16*-23*)
199: 0x0C75 [0x41] Work_Zone[6] = ExtData[1]->WorkLocal[17] (bits 24*-31*)
200: 0x0C7E [0x41] Work_Zone[7] = ExtData[1]->WorkLocal[18] (bits 0*-7*)
201: 0x0C87 [0x41] Work_Zone[8] = ExtData[1]->WorkLocal[18] (bits 8*-15*)
202: 0x0C90 [0x41] Work_Zone[9] = ExtData[1]->WorkLocal[18] (bits 16*-23*)
203: 0x0C99 [0x41] Work_Zone_1700[0] = ExtData[1]->WorkLocal[19] (bits 0*-7*)
204: 0x0CA2 [0x41] Work_Zone_1700[1] = ExtData[1]->WorkLocal[19] (bits 8*-15*)
205: 0x0CAB [0x41] Work_Zone_1700[2] = ExtData[1]->WorkLocal[19] (bits 16*-23*)
206: 0x0CB4 [0x1A] CALL_SUBROUTINE(address=0x2309)
207: 0x0CB7 [0x02] IF !(ExtData[1]->WorkLocal[70] < 4*) GOTO 0x0CCC
208: 0x0CBF [0x15] ExtData[1]->WorkLocal[70] /= 4*
209: 0x0CC4 [0x03] ExtData[1]->WorkLocal[54] = ExtData[1]->WorkLocal[70]
210: 0x0CC9 [0x01] GOTO 0x0CD1
211: 0x0CCC [0x03] ExtData[1]->WorkLocal[54] = 0*

SUBROUTINE_0CD1:
212: 0x0CD1 [0x02] IF !(ExtData[1]->WorkLocal[71] < 4*) GOTO 0x0CE6
213: 0x0CD9 [0x15] ExtData[1]->WorkLocal[71] /= 4*
214: 0x0CDE [0x03] ExtData[1]->WorkLocal[55] = ExtData[1]->WorkLocal[71]
215: 0x0CE3 [0x01] GOTO 0x0CEB
216: 0x0CE6 [0x03] ExtData[1]->WorkLocal[55] = 0*

SUBROUTINE_0CEB:
217: 0x0CEB [0x03] Work_Zone[2] = ExtData[1]->WorkLocal[53]
218: 0x0CF0 [0x03] Work_Zone[3] = ExtData[1]->WorkLocal[54]
219: 0x0CF5 [0x03] Work_Zone[4] = ExtData[1]->WorkLocal[55]
220: 0x0CFA [0x07] ExtData[1]->WorkLocal[53] += ExtData[1]->WorkLocal[54]
221: 0x0CFF [0x07] ExtData[1]->WorkLocal[53] += ExtData[1]->WorkLocal[55]
222: 0x0D04 [0x03] Work_Zone[5] = ExtData[1]->WorkLocal[53]
223: 0x0D09 [0x24] CREATE_DIALOG(message_id=12186*, default_option=0*, option_flags=ExtData[1]->WorkLocal[45])
    → "Moogle Mastery: [Sheol A: [None/I/II/III/IV/V/VI/VII/VIII/IX/X/XI/XII/XIII/XIV/XV/]./Sheol B: [None/I/II/III/IV/V/VI/VII/VIII/IX/X/XI/XII/XIII/XIV/XV/]./Sheol C: [None/I/II/III/IV/V/VI/VII/VIII/IX/X/XI/XII/XIII/XIV/XV/]./Moogle Mastery: [None/I/II/III/IV/V/VI/VII/VIII/IX/X/XI/XII/XIII/XIV/XV/XVI/XVII/XVIII/XIX/XX/XXI/XXII/XXIII/XXIV/XXV/XXVI/XXVII/XXVIII/XXIX/XXX/XXXI/XXXII/XXXIII/XXXIV/XXXV/XXXVI/XXXVII/XXXVIII/XXXIX/XL/XLI/XLII/XLIII/XLIV/XLV]./Back.]"
224: 0x0D10 [0x25] WAIT_DIALOG_SELECT()
225: 0x0D11 [0x02] IF !(Work_Zone[0] == 4*) GOTO 0x0D1F
226: 0x0D19 [0x01] GOTO 0x0607

SUBROUTINE_0D2D:
227: 0x0D2D [0x03] Work_Zone[1] = 8*
228: 0x0D32 [0x43] SEND_EVENT_UPDATE: Send pending tag to server (packet 0x005B)
229: 0x0D34 [0x43] SEND_EVENT_UPDATE: Check pending flag (skip if not pending)
230: 0x0D36 [0x03] ExtData[1]->WorkLocal[21] = Work_Zone[2]
231: 0x0D3B [0x03] ExtData[1]->WorkLocal[22] = Work_Zone[3]
232: 0x0D40 [0x03] ExtData[1]->WorkLocal[23] = Work_Zone[4]
233: 0x0D45 [0x03] ExtData[1]->WorkLocal[24] = Work_Zone[5]
234: 0x0D4A [0x03] ExtData[1]->WorkLocal[25] = Work_Zone[6]
235: 0x0D4F [0x03] ExtData[1]->WorkLocal[26] = Work_Zone[7]
236: 0x0D54 [0x03] ExtData[1]->WorkLocal[27] = Work_Zone[8]
237: 0x0D59 [0x03] Work_Zone[1] = 9*
238: 0x0D5E [0x43] SEND_EVENT_UPDATE: Send pending tag to server (packet 0x005B)
239: 0x0D60 [0x43] SEND_EVENT_UPDATE: Check pending flag (skip if not pending)
240: 0x0D62 [0x03] ExtData[1]->WorkLocal[28] = Work_Zone[2]
241: 0x0D67 [0x03] ExtData[1]->WorkLocal[29] = Work_Zone[3]
242: 0x0D6C [0x03] ExtData[1]->WorkLocal[30] = Work_Zone[4]
243: 0x0D71 [0x03] ExtData[1]->WorkLocal[31] = Work_Zone[5]
244: 0x0D76 [0x03] ExtData[1]->WorkLocal[32] = Work_Zone[6]
245: 0x0D7B [0x03] ExtData[1]->WorkLocal[33] = Work_Zone[7]
246: 0x0D80 [0x03] ExtData[1]->WorkLocal[34] = Work_Zone[8]
247: 0x0D85 [0x03] Work_Zone[1] = 10*
248: 0x0D8A [0x43] SEND_EVENT_UPDATE: Send pending tag to server (packet 0x005B)
249: 0x0D8C [0x43] SEND_EVENT_UPDATE: Check pending flag (skip if not pending)
250: 0x0D8E [0x03] ExtData[1]->WorkLocal[35] = Work_Zone[2]
251: 0x0D93 [0x03] ExtData[1]->WorkLocal[36] = Work_Zone[3]
252: 0x0D98 [0x03] ExtData[1]->WorkLocal[37] = Work_Zone[4]
253: 0x0D9D [0x03] ExtData[1]->WorkLocal[38] = Work_Zone[5]
254: 0x0DA2 [0x03] ExtData[1]->WorkLocal[44] = 0*
255: 0x0DA7 [0x03] ExtData[1]->WorkLocal[47] = 0*

SUBROUTINE_0DAC:
256: 0x0DAC [0x02] IF !(ExtData[1]->WorkLocal[47] > 16*) GOTO 0x0E0C
257: 0x0DB4 [0x3E] IF !(ExtData[1]->WorkLocal[38] bit ExtData[1]->WorkLocal[47]) GOTO 0x0DC5
258: 0x0DBB [0x3C] SET_BIT_FLAG_CONDITIONAL(target_work_offset=ExtData[1]->WorkLocal[44], bit_index_work_offset=ExtData[1]->WorkLocal[47], condition_work_offset=1*)
259: 0x0DC2 [0x01] GOTO 0x0E06
260: 0x0DC5 [0x9D] IF (0x28FF) ExtData[1]->WorkLocal[47] = ExtData[1]->WorkLocal[49] // extra=0x8049
261: 0x0DCF [0x41] ExtData[1]->WorkLocal[51] = ExtData[1]->WorkLocal[49] (bits 0*-4*)
262: 0x0DD8 [0x9D] Table[0x28AF] = ExtData[1]->WorkLocal[51] // p3=ExtData[1]->WorkLocal[47], p4=0x804A
263: 0x0DE2 [0x03] ExtData[1]->WorkLocal[48] = ExtData[1]->WorkLocal[47]
264: 0x0DE7 [0x07] ExtData[1]->WorkLocal[48] += 17*
265: 0x0DEC [0x41] ExtData[1]->WorkLocal[51] = ExtData[1]->WorkLocal[49] (bits 7*-22*)
266: 0x0DF5 [0x9D] Table[0x28AF] = ExtData[1]->WorkLocal[51] // p3=ExtData[1]->WorkLocal[48], p4=0x804A
267: 0x0DFF [0x3D] CLEAR_BIT_FLAG_CONDITIONAL(target_work_offset=ExtData[1]->WorkLocal[44], bit_index_work_offset=ExtData[1]->WorkLocal[47], condition_work_offset=1*)

SUBROUTINE_0E06:
268: 0x0E06 [0x0B] ExtData[1]->WorkLocal[47]++
269: 0x0E09 [0x01] GOTO 0x0DAC
270: 0x0E0C [0x03] ExtData[1]->WorkLocal[65] = 0*
271: 0x0E11 [0x24] CREATE_DIALOG(message_id=12264*, default_option=0*, option_flags=ExtData[1]->WorkLocal[44])
    → "Boss Status and RP Acquired: [Dealan-dhe: Veng.: $0; RP: $17./Sgili: Veng.: $1; RP: $18./U Bnai: Veng.: $2; RP: $19./Gogmagog: Veng.: $3; RP: $20./Aristaeus: Veng.: $4; RP: $21./Raskovniche: Veng.: $5; RP: $22./Marmorkrebs: Veng.: $6; RP: $23./Gigelorum: Veng.: $7; RP: $24./Procne: Veng.: $8; RP: $25./Henwen: Veng.: $9; RP: $26./Xevioso: Veng.: $10@RP: $27./Ngai: Veng.: $11@RP: $28./Kalunga: Veng.: $12@RP: $29./Ongo: Veng.: $13@RP: $30./Mboze: Veng.: $14@RP: $31./Arebati: Veng.: $15@RP: $ ./Bumba: Veng.: $16@RP: $!./Back.]"
272: 0x0E18 [0x25] WAIT_DIALOG_SELECT()
273: 0x0E19 [0x02] IF !(Work_Zone[0] == 17*) GOTO 0x0E27
274: 0x0E21 [0x01] GOTO 0x0607

SUBROUTINE_0E31:
275: 0x0E31 [0x02] IF !(ExtData[1]->WorkLocal[65] == 0*) GOTO 0x0E3C
276: 0x0E39 [0x01] GOTO 0x14BD
277: 0x0E3C [0x40] SET_BIT_WORK_RANGE(start_bit=0*, end_bit=7*, target=Work_Zone[1], source=15*)
278: 0x0E45 [0x40] SET_BIT_WORK_RANGE(start_bit=8*, end_bit=15*, target=Work_Zone[1], source=ExtData[1]->WorkLocal[60])
279: 0x0E4E [0x43] SEND_EVENT_UPDATE: Send pending tag to server (packet 0x005B)
280: 0x0E50 [0x43] SEND_EVENT_UPDATE: Check pending flag (skip if not pending)
281: 0x0E52 [0x03] ExtData[1]->WorkLocal[63] = 0*
282: 0x0E57 [0x03] ExtData[1]->WorkLocal[1] = Work_Zone[2]
283: 0x0E5C [0x03] ExtData[1]->WorkLocal[2] = Work_Zone[3]
284: 0x0E61 [0x03] ExtData[1]->WorkLocal[3] = Work_Zone[4]
285: 0x0E66 [0x03] ExtData[1]->WorkLocal[4] = Work_Zone[5]
286: 0x0E6B [0x03] ExtData[1]->WorkLocal[5] = Work_Zone[6]
287: 0x0E70 [0x03] ExtData[1]->WorkLocal[6] = Work_Zone[7]
288: 0x0E75 [0x03] ExtData[1]->WorkLocal[7] = Work_Zone[8]
289: 0x0E7A [0x03] ExtData[1]->WorkLocal[8] = Work_Zone[9]
290: 0x0E7F [0x02] IF !(ExtData[1]->WorkLocal[60] > 15*) GOTO 0x121A
291: 0x0E87 [0x02] IF !(ExtData[1]->WorkLocal[1] == 0*) GOTO 0x0E99
292: 0x0E8F [0x3C] SET_BIT_FLAG_CONDITIONAL(target_work_offset=ExtData[1]->WorkLocal[63], bit_index_work_offset=0*, condition_work_offset=1*)
293: 0x0E96 [0x01] GOTO 0x0EDA
294: 0x0E99 [0x3D] CLEAR_BIT_FLAG_CONDITIONAL(target_work_offset=ExtData[1]->WorkLocal[63], bit_index_work_offset=0*, condition_work_offset=1*)
295: 0x0EA0 [0x40] SET_BIT_WORK_RANGE(start_bit=0*, end_bit=7*, target=Work_Zone[1], source=16*)
296: 0x0EA9 [0x40] SET_BIT_WORK_RANGE(start_bit=8*, end_bit=15*, target=Work_Zone[1], source=ExtData[1]->WorkLocal[60])
297: 0x0EB2 [0x40] SET_BIT_WORK_RANGE(start_bit=16*, end_bit=31*, target=Work_Zone[1], source=ExtData[1]->WorkLocal[1])
298: 0x0EBB [0x43] SEND_EVENT_UPDATE: Send pending tag to server (packet 0x005B)
299: 0x0EBD [0x43] SEND_EVENT_UPDATE: Check pending flag (skip if not pending)
300: 0x0EBF [0x03] ExtData[1]->WorkLocal[9] = Work_Zone[2]
301: 0x0EC4 [0x03] ExtData[1]->WorkLocal[10] = Work_Zone[3]
302: 0x0EC9 [0x03] ExtData[1]->WorkLocal[11] = Work_Zone[4]
303: 0x0ECE [0xD4] MAP_QUERY_WINDOW: Prepare buffer configuration B (buffer=[03 80 01 00 09 00 0A 00...])
304: 0x0EEC [0x3D] CLEAR_BIT_FLAG_CONDITIONAL(target_work_offset=ExtData[1]->WorkLocal[63], bit_index_work_offset=1*, condition_work_offset=1*)
305: 0x0EF3 [0x40] SET_BIT_WORK_RANGE(start_bit=0*, end_bit=7*, target=Work_Zone[1], source=16*)
306: 0x0EFC [0x40] SET_BIT_WORK_RANGE(start_bit=8*, end_bit=15*, target=Work_Zone[1], source=ExtData[1]->WorkLocal[60])
307: 0x0F05 [0x40] SET_BIT_WORK_RANGE(start_bit=16*, end_bit=31*, target=Work_Zone[1], source=ExtData[1]->WorkLocal[2])
308: 0x0F0E [0x43] SEND_EVENT_UPDATE: Send pending tag to server (packet 0x005B)
309: 0x0F10 [0x43] SEND_EVENT_UPDATE: Check pending flag (skip if not pending)
310: 0x0F12 [0x03] ExtData[1]->WorkLocal[12] = Work_Zone[2]
311: 0x0F17 [0x03] ExtData[1]->WorkLocal[13] = Work_Zone[3]
312: 0x0F1C [0x03] ExtData[1]->WorkLocal[14] = Work_Zone[4]
313: 0x0F21 [0xD4] MAP_QUERY_WINDOW: Prepare buffer configuration B (buffer=[07 80 02 00 0C 00 0D 00...])
314: 0x0F3F [0x3D] CLEAR_BIT_FLAG_CONDITIONAL(target_work_offset=ExtData[1]->WorkLocal[63], bit_index_work_offset=2*, condition_work_offset=1*)
315: 0x0F46 [0x40] SET_BIT_WORK_RANGE(start_bit=0*, end_bit=7*, target=Work_Zone[1], source=16*)
316: 0x0F4F [0x40] SET_BIT_WORK_RANGE(start_bit=8*, end_bit=15*, target=Work_Zone[1], source=ExtData[1]->WorkLocal[60])
317: 0x0F58 [0x40] SET_BIT_WORK_RANGE(start_bit=16*, end_bit=31*, target=Work_Zone[1], source=ExtData[1]->WorkLocal[3])
318: 0x0F61 [0x43] SEND_EVENT_UPDATE: Send pending tag to server (packet 0x005B)
319: 0x0F63 [0x43] SEND_EVENT_UPDATE: Check pending flag (skip if not pending)
320: 0x0F65 [0x03] ExtData[1]->WorkLocal[15] = Work_Zone[2]
321: 0x0F6A [0x03] ExtData[1]->WorkLocal[16] = Work_Zone[3]
322: 0x0F6F [0x03] ExtData[1]->WorkLocal[17] = Work_Zone[4]
323: 0x0F74 [0xD4] MAP_QUERY_WINDOW: Prepare buffer configuration B (buffer=[17 80 03 00 0F 00 10 00...])
324: 0x0F92 [0x3D] CLEAR_BIT_FLAG_CONDITIONAL(target_work_offset=ExtData[1]->WorkLocal[63], bit_index_work_offset=3*, condition_work_offset=1*)
325: 0x0F99 [0x40] SET_BIT_WORK_RANGE(start_bit=0*, end_bit=7*, target=Work_Zone[1], source=16*)
326: 0x0FA2 [0x40] SET_BIT_WORK_RANGE(start_bit=8*, end_bit=15*, target=Work_Zone[1], source=ExtData[1]->WorkLocal[60])
327: 0x0FAB [0x40] SET_BIT_WORK_RANGE(start_bit=16*, end_bit=31*, target=Work_Zone[1], source=ExtData[1]->WorkLocal[4])
328: 0x0FB4 [0x43] SEND_EVENT_UPDATE: Send pending tag to server (packet 0x005B)
329: 0x0FB6 [0x43] SEND_EVENT_UPDATE: Check pending flag (skip if not pending)
330: 0x0FB8 [0x03] ExtData[1]->WorkLocal[18] = Work_Zone[2]
331: 0x0FBD [0x03] ExtData[1]->WorkLocal[19] = Work_Zone[3]
332: 0x0FC2 [0x03] ExtData[1]->WorkLocal[20] = Work_Zone[4]
333: 0x0FC7 [0xD4] MAP_QUERY_WINDOW: Prepare buffer configuration B (buffer=[30 80 04 00 12 00 13 00...])
334: 0x0FE5 [0x3D] CLEAR_BIT_FLAG_CONDITIONAL(target_work_offset=ExtData[1]->WorkLocal[63], bit_index_work_offset=4*, condition_work_offset=1*)
335: 0x0FEC [0x40] SET_BIT_WORK_RANGE(start_bit=0*, end_bit=7*, target=Work_Zone[1], source=16*)
336: 0x0FF5 [0x40] SET_BIT_WORK_RANGE(start_bit=8*, end_bit=15*, target=Work_Zone[1], source=ExtData[1]->WorkLocal[60])
337: 0x0FFE [0x40] SET_BIT_WORK_RANGE(start_bit=16*, end_bit=31*, target=Work_Zone[1], source=ExtData[1]->WorkLocal[5])
338: 0x1007 [0x43] SEND_EVENT_UPDATE: Send pending tag to server (packet 0x005B)
339: 0x1009 [0x43] SEND_EVENT_UPDATE: Check pending flag (skip if not pending)
340: 0x100B [0x03] ExtData[1]->WorkLocal[21] = Work_Zone[2]
341: 0x1010 [0x03] ExtData[1]->WorkLocal[22] = Work_Zone[3]
342: 0x1015 [0x03] ExtData[1]->WorkLocal[23] = Work_Zone[4]
343: 0x101A [0xD4] MAP_QUERY_WINDOW: Prepare buffer configuration B (buffer=[35 80 05 00 15 00 16 00...])
344: 0x1038 [0x3D] CLEAR_BIT_FLAG_CONDITIONAL(target_work_offset=ExtData[1]->WorkLocal[63], bit_index_work_offset=5*, condition_work_offset=1*)
345: 0x103F [0x40] SET_BIT_WORK_RANGE(start_bit=0*, end_bit=7*, target=Work_Zone[1], source=16*)
346: 0x1048 [0x40] SET_BIT_WORK_RANGE(start_bit=8*, end_bit=15*, target=Work_Zone[1], source=ExtData[1]->WorkLocal[60])
347: 0x1051 [0x40] SET_BIT_WORK_RANGE(start_bit=16*, end_bit=31*, target=Work_Zone[1], source=ExtData[1]->WorkLocal[6])
348: 0x105A [0x43] SEND_EVENT_UPDATE: Send pending tag to server (packet 0x005B)
349: 0x105C [0x43] SEND_EVENT_UPDATE: Check pending flag (skip if not pending)
350: 0x105E [0x03] ExtData[1]->WorkLocal[24] = Work_Zone[2]
351: 0x1063 [0x03] ExtData[1]->WorkLocal[25] = Work_Zone[3]
352: 0x1068 [0x03] ExtData[1]->WorkLocal[26] = Work_Zone[4]
353: 0x106D [0xD4] MAP_QUERY_WINDOW: Prepare buffer configuration B (buffer=[43 80 06 00 18 00 19 00...])
354: 0x108B [0x3D] CLEAR_BIT_FLAG_CONDITIONAL(target_work_offset=ExtData[1]->WorkLocal[63], bit_index_work_offset=6*, condition_work_offset=1*)
355: 0x1092 [0x40] SET_BIT_WORK_RANGE(start_bit=0*, end_bit=7*, target=Work_Zone[1], source=16*)
356: 0x109B [0x40] SET_BIT_WORK_RANGE(start_bit=8*, end_bit=15*, target=Work_Zone[1], source=ExtData[1]->WorkLocal[60])
357: 0x10A4 [0x40] SET_BIT_WORK_RANGE(start_bit=16*, end_bit=31*, target=Work_Zone[1], source=ExtData[1]->WorkLocal[7])
358: 0x10AD [0x43] SEND_EVENT_UPDATE: Send pending tag to server (packet 0x005B)
359: 0x10AF [0x43] SEND_EVENT_UPDATE: Check pending flag (skip if not pending)
360: 0x10B1 [0x03] ExtData[1]->WorkLocal[27] = Work_Zone[2]
361: 0x10B6 [0x03] ExtData[1]->WorkLocal[28] = Work_Zone[3]
362: 0x10BB [0x03] ExtData[1]->WorkLocal[29] = Work_Zone[4]
363: 0x10C0 [0xD4] MAP_QUERY_WINDOW: Prepare buffer configuration B (buffer=[0C 80 07 00 1B 00 1C 00...])
364: 0x10DE [0x3D] CLEAR_BIT_FLAG_CONDITIONAL(target_work_offset=ExtData[1]->WorkLocal[63], bit_index_work_offset=7*, condition_work_offset=1*)
365: 0x10E5 [0x40] SET_BIT_WORK_RANGE(start_bit=0*, end_bit=7*, target=Work_Zone[1], source=16*)
366: 0x10EE [0x40] SET_BIT_WORK_RANGE(start_bit=8*, end_bit=15*, target=Work_Zone[1], source=ExtData[1]->WorkLocal[60])
367: 0x10F7 [0x40] SET_BIT_WORK_RANGE(start_bit=16*, end_bit=31*, target=Work_Zone[1], source=ExtData[1]->WorkLocal[8])
368: 0x1100 [0x43] SEND_EVENT_UPDATE: Send pending tag to server (packet 0x005B)
369: 0x1102 [0x43] SEND_EVENT_UPDATE: Check pending flag (skip if not pending)
370: 0x1104 [0x03] ExtData[1]->WorkLocal[30] = Work_Zone[2]
371: 0x1109 [0x03] ExtData[1]->WorkLocal[31] = Work_Zone[3]
372: 0x110E [0x03] ExtData[1]->WorkLocal[32] = Work_Zone[4]
373: 0x1113 [0xD4] MAP_QUERY_WINDOW: Prepare buffer configuration B (buffer=[08 80 08 00 1E 00 1F 00...])
374: 0x1131 [0x00] END_REQSTACK()

SUBROUTINE_13C8:
375: 0x13C8 [0x01] GOTO 0x13CE
376: 0x13CB [0x01] GOTO 0x0E31

SUBROUTINE_13CE:
377: 0x13CE [0x01] GOTO 0x13DF
378: 0x13D1 [0x02] IF !(Work_Zone[0] == 9*) GOTO 0x13DF
379: 0x13D9 [0x01] GOTO 0x0D2D

SUBROUTINE_13DF:
380: 0x13DF [0x02] IF !(ExtData[1]->WorkLocal[66] == 0*) GOTO 0x13ED
381: 0x13E7 [0x01] GOTO 0x0D2D

SUBROUTINE_1592:
382: 0x1592 [0x40] SET_BIT_WORK_RANGE(start_bit=0*, end_bit=7*, target=Work_Zone[1], source=11*)
383: 0x159B [0x43] SEND_EVENT_UPDATE: Send pending tag to server (packet 0x005B)
384: 0x159D [0x43] SEND_EVENT_UPDATE: Check pending flag (skip if not pending)
385: 0x159F [0x03] ExtData[1]->WorkLocal[58] = 0*
386: 0x15A4 [0x03] ExtData[1]->WorkLocal[59] = 0*
387: 0x15A9 [0x03] ExtData[1]->WorkLocal[57] = Work_Zone[2]
388: 0x15AE [0xD4] MAP_QUERY_WINDOW: Prepare buffer configuration A (buffer=[07 80 04 10 D4 03 17 80...])
389: 0x15CC [0xD5] LOAD_EVENT_SCHEDULER_ALT8: Load scheduler 0x00000310 with entities [Unknown NPC (ID: 2147680314/0x8003003A), Unknown NPC (ID: 67272711/0x04028007)], work=0xE4
390: 0x15DD [0x3C] SET_BIT_FLAG_CONDITIONAL(target_work_offset=ExtData[1]->WorkLocal[58], bit_index_work_offset=1*, condition_work_offset=1*)
391: 0x15E4 [0x02] IF !(Work_Zone[5] == 0*) GOTO 0x15F3
392: 0x15EC [0x3C] SET_BIT_FLAG_CONDITIONAL(target_work_offset=ExtData[1]->WorkLocal[58], bit_index_work_offset=2*, condition_work_offset=1*)
393: 0x15F3 [0x02] IF !(Work_Zone[6] == 0*) GOTO 0x1602
394: 0x15FB [0x3C] SET_BIT_FLAG_CONDITIONAL(target_work_offset=ExtData[1]->WorkLocal[58], bit_index_work_offset=3*, condition_work_offset=1*)
395: 0x1602 [0x02] IF !(Work_Zone[7] == 0*) GOTO 0x1611
396: 0x160A [0x3C] SET_BIT_FLAG_CONDITIONAL(target_work_offset=ExtData[1]->WorkLocal[58], bit_index_work_offset=4*, condition_work_offset=1*)
397: 0x1611 [0xD4] MAP_QUERY_WINDOW: Test and open query window (flag=0x65, work=[0x0380, 0x3A80, 0x2500])
398: 0x161A [0x02] IF !(Work_Zone[0] == 0*) GOTO 0x16E7
399: 0x1622 [0x02] IF !(Work_Zone[3] == 3234*) GOTO 0x1632
400: 0x162A [0x03] ExtData[1]->WorkLocal[59] = 1*
401: 0x162F [0x01] GOTO 0x1652
402: 0x1632 [0x02] IF !(Work_Zone[3] == 3235*) GOTO 0x1642
403: 0x163A [0x03] ExtData[1]->WorkLocal[59] = 2*
404: 0x163F [0x01] GOTO 0x1652
405: 0x1642 [0x02] IF !(Work_Zone[3] == 3236*) GOTO 0x1652
406: 0x164A [0x03] ExtData[1]->WorkLocal[59] = 3*
407: 0x164F [0x01] GOTO 0x1652

SUBROUTINE_1652:
408: 0x1652 [0x03] ExtData[1]->WorkLocal[49] = ExtData[1]->WorkLocal[57]
409: 0x1657 [0x15] ExtData[1]->WorkLocal[49] /= 3000*
410: 0x165C [0x02] IF !(ExtData[1]->WorkLocal[49] < ExtData[1]->WorkLocal[59]) GOTO 0x1669
411: 0x1664 [0x03] ExtData[1]->WorkLocal[49] = ExtData[1]->WorkLocal[59]
412: 0x1669 [0x03] Work_Zone_1700[2] = ExtData[1]->WorkLocal[49]
413: 0x166E [0x48] [System] [12205*]:
    → "You may purchase up to $10."
