# 17788974 - Irmilant

## Common Data

| Field            | Value           |
|------------------|-----------------|
| Zone             | Rabao (ID: 247) |
| Block Size       | 1112 bytes      |
| Total Events     | 41              |
| References Count | 32              |

## List of Events

| Event ID                   | Entrypoint   |   Size |   Instructions |
|----------------------------|--------------|--------|----------------|
| [65535](#event-65535)      | 0x0000       |      1 |              1 |
| [76](#event-76)            | 0x0001       |     39 |              7 |
| [77](#event-77)            | 0x0028       |     64 |             18 |
| [78](#event-78)            | 0x0068       |     64 |             12 |
| [131](#event-131)          | 0x00A8       |     58 |             14 |
| [132](#event-132)          | 0x00E2       |     31 |              9 |
| [133](#event-133)          | 0x0101       |     11 |              5 |
| [134](#event-134)          | 0x010C       |     48 |             10 |
| [135](#event-135)          | 0x013C       |     11 |              5 |
| [160](#event-160)          | 0x0147       |      1 |              1 |
| [161](#event-161)          | 0x0148       |      1 |              1 |
| [162](#event-162)          | 0x0149       |      1 |              1 |
| [163](#event-163)          | 0x014A       |      1 |              1 |
| [164](#event-164)          | 0x014B       |      1 |              1 |
| [165](#event-165)          | 0x014C       |      1 |              1 |
| [166](#event-166)          | 0x014D       |      1 |              1 |
| [65535.1](#event-655351)   | 0x014E       |      1 |              1 |
| [167](#event-167)          | 0x014F       |      1 |              1 |
| [168](#event-168)          | 0x0150       |      1 |              1 |
| [169](#event-169)          | 0x0151       |      1 |              1 |
| [170](#event-170)          | 0x0152       |      1 |              1 |
| [65535.2](#event-655352)   | 0x0153       |     13 |              3 |
| [65535.3](#event-655353)   | 0x0160       |     33 |              3 |
| [65535.4](#event-655354)   | 0x0181       |     33 |              3 |
| [65535.5](#event-655355)   | 0x01A2       |     33 |              3 |
| [65535.6](#event-655356)   | 0x01C3       |     33 |              3 |
| [65535.7](#event-655357)   | 0x01E4       |     33 |              3 |
| [65535.8](#event-655358)   | 0x0205       |     33 |              3 |
| [65535.9](#event-655359)   | 0x0226       |     33 |              3 |
| [65535.10](#event-6553510) | 0x0247       |     33 |              3 |
| [65535.11](#event-6553511) | 0x0268       |     36 |              4 |
| [65535.12](#event-6553512) | 0x028C       |     33 |              3 |
| [65535.13](#event-6553513) | 0x02AD       |     33 |              3 |
| [65535.14](#event-6553514) | 0x02CE       |     33 |              3 |
| [13](#event-13)            | 0x02EF       |     12 |              3 |
| [15](#event-15)            | 0x02FB       |     12 |              3 |
| [155](#event-155)          | 0x0307       |      7 |              2 |
| [156](#event-156)          | 0x030E       |      7 |              2 |
| [157](#event-157)          | 0x0315       |      7 |              2 |
| [158](#event-158)          | 0x031C       |      7 |              2 |
| [159](#event-159)          | 0x0323       |      1 |              1 |

## DAT References (imed_data)

|   Index | Hex Value   |   Dec Value |
|---------|-------------|-------------|
|       0 | 0x0014      |          20 |
|       1 | 0x27ED      |       10221 |
|       2 | 0x003C      |          60 |
|       3 | 0x43EA      |       17386 |
|       4 | 0x01E9      |         489 |
|       5 | 0x02D0      |         720 |
|       6 | 0x1006      |        4102 |
|       7 | 0x27EE      |       10222 |
|       8 | 0x27EF      |       10223 |
|       9 | 0x27F0      |       10224 |
|      10 | 0x27F1      |       10225 |
|      11 | 0x27F2      |       10226 |
|      12 | 0x00C9      |         201 |
|      13 | 0x0000      |           0 |
|      14 | 0x07B9      |        1977 |
|      15 | 0x2935      |       10549 |
|      16 | 0x2936      |       10550 |
|      17 | 0x2937      |       10551 |
|      18 | 0x2938      |       10552 |
|      19 | 0x2939      |       10553 |
|      20 | 0x293A      |       10554 |
|      21 | 0x293B      |       10555 |
|      22 | 0x293C      |       10556 |
|      23 | 0x293D      |       10557 |
|      24 | 0x001E      |          30 |
|      25 | 0x00BE      |         190 |
|      26 | 0x0078      |         120 |
|      27 | 0x001B      |          27 |
|      28 | 0x0015      |          21 |
|      29 | 0x0096      |         150 |
|      30 | 0x0046      |          70 |
|      31 | 0x001A      |          26 |

## String References

- **10221**: Things of substance will inevitably be destroyed. There comes a time when even the most resilient spirit will be broken...
- **10222**: Hmm, you seem to have broken your $7...
- **10223**: It is possible to repair it with synthesis, but there is the chance that the attempt will end in failure.
- **10224**: If you prefer a definite method of restoring your $7, then bring to me $6, $5, and two $4.
- **10225**: A spirit that has overcome a crushing defeat can be said to have the true heart of an angler...
- **10226**: Aha! You have done well in bringing me all that is required. Now, I shall return to you your cherished $7!
- **10549**: Hmmm... So, you have heard the $3.
- **10550**: There is more to the rumor than you know. The branch and the thread that those monstrosities have swallowed are the base materials for a legendary fishing rod.
- **10551**: Should you manage to obtain those materials, bring them here to me. I am the only one left alive who can craft the rod of legend.
- **10552**: Incredible... This is a feat worthy of the greatest anglers in history.
- **10553**: Leave these in my care. Come to me again when the sun has passed through her cycle and you will be the first to witness an unbreakable spirit.
- **10554**: Please, do not rush me. The crafting of a legend is not the work of mere moments.
- **10555**: It is complete. I must thank you for this chance to create such a masterpiece.
- **10556**: This fishing rod will never break or splinter...
- **10557**: You will be the one to prove that there is a spirit in this world that cannot be broken.

## Events

### Event 65535

#### Metadata

| Field        | Value   |
|--------------|---------|
| Entrypoint   | 0x0000  |
| Data Size    | 1 bytes |
| Instructions | 1       |

```
      00 01 02 03 04 05 06 07  08 09 0A 0B 0C 0D 0E 0F
      -- -- -- -- -- -- -- --  -- -- -- -- -- -- -- --
0000: 00                                                .               
```

#### Opcodes

```
  0: 0x0000 [0x00] END_REQSTACK()
```

### Event 76

#### Metadata

| Field        | Value    |
|--------------|----------|
| Entrypoint   | 0x0001   |
| Data Size    | 39 bytes |
| Instructions | 7        |

```
      00 01 02 03 04 05 06 07  08 09 0A 0B 0C 0D 0E 0F
      -- -- -- -- -- -- -- --  -- -- -- -- -- -- -- --
0000:    66 00 80 F8 FF FF 7F  F8 FF FF 7F 74 68 6B 31   f..........thk1
0010: 1D 01 80 23 66 00 80 F8  FF FF 7F F8 FF FF 7F 74  ...#f..........t
0020: 68 6B 32 1C 02 80 21 00                           hk2...!.        
```

#### Opcodes

```
  0: 0x0001 [0x66] LOAD_EXT_SCHEDULER_MAIN: Load scheduler "thk1" with entities [EventEntity, EventEntity], work=20*
  1: 0x0010 [0x1D] PRINT_EVENT_MESSAGE(message_id=10221*)
    → "Things of substance will inevitably be destroyed. There comes a time when even the most resilient spirit will be broken..."
  2: 0x0013 [0x23] WAIT_FOR_DIALOG_INTERACTION
  3: 0x0014 [0x66] LOAD_EXT_SCHEDULER_MAIN: Load scheduler "thk2" with entities [EventEntity, EventEntity], work=20*
  4: 0x0023 [0x1C] WAIT(60* ticks)
  5: 0x0026 [0x21] END_EVENT
  6: 0x0027 [0x00] END_REQSTACK()
```

### Event 77

#### Metadata

| Field        | Value    |
|--------------|----------|
| Entrypoint   | 0x0028   |
| Data Size    | 64 bytes |
| Instructions | 18       |

```
      00 01 02 03 04 05 06 07  08 09 0A 0B 0C 0D 0E 0F
      -- -- -- -- -- -- -- --  -- -- -- -- -- -- -- --
0020:                          42 03 09 10 03 80 03 08          B.......
0030: 10 04 80 03 07 10 05 80  03 06 10 06 80 1E F0 FF  ................
0040: FF 7F 1D 07 80 23 66 00  80 F8 FF FF 7F F8 FF FF  .....#f.........
0050: 7F 74 6C 6B 30 1D 08 80  23 1D 09 80 23 5E 69 64  .tlk0...#...#^id
0060: 6C 30 1D 0A 80 23 21 00                           l0...#!.        
```

#### Opcodes

```
  0: 0x0028 [0x42] SET_CLI_EVENT_CANCEL_DATA()
  1: 0x0029 [0x03] Work_Zone[9] = 17386*
  2: 0x002E [0x03] Work_Zone[8] = 489*
  3: 0x0033 [0x03] Work_Zone[7] = 720*
  4: 0x0038 [0x03] Work_Zone[6] = 4102*
  5: 0x003D [0x1E] EventEntity looks at LocalPlayer and starts talking
  6: 0x0042 [0x1D] PRINT_EVENT_MESSAGE(message_id=10222*)
    → "Hmm, you seem to have broken your $7..."
  7: 0x0045 [0x23] WAIT_FOR_DIALOG_INTERACTION
  8: 0x0046 [0x66] LOAD_EXT_SCHEDULER_MAIN: Load scheduler "tlk0" with entities [EventEntity, EventEntity], work=20*
  9: 0x0055 [0x1D] PRINT_EVENT_MESSAGE(message_id=10223*)
    → "It is possible to repair it with synthesis, but there is the chance that the attempt will end in failure."
 10: 0x0058 [0x23] WAIT_FOR_DIALOG_INTERACTION
 11: 0x0059 [0x1D] PRINT_EVENT_MESSAGE(message_id=10224*)
    → "If you prefer a definite method of restoring your $7, then bring to me $6, $5, and two $4."
 12: 0x005C [0x23] WAIT_FOR_DIALOG_INTERACTION
 13: 0x005D [0x5E] EventEntity goes idle (kills current action) (animation: "idl0")
 14: 0x0062 [0x1D] PRINT_EVENT_MESSAGE(message_id=10225*)
    → "A spirit that has overcome a crushing defeat can be said to have the true heart of an angler..."
 15: 0x0065 [0x23] WAIT_FOR_DIALOG_INTERACTION
 16: 0x0066 [0x21] END_EVENT
 17: 0x0067 [0x00] END_REQSTACK()
```

### Event 78

#### Metadata

| Field        | Value    |
|--------------|----------|
| Entrypoint   | 0x0068   |
| Data Size    | 64 bytes |
| Instructions | 12       |

```
      00 01 02 03 04 05 06 07  08 09 0A 0B 0C 0D 0E 0F
      -- -- -- -- -- -- -- --  -- -- -- -- -- -- -- --
0060:                          42 03 09 10 03 80 1E F0          B.......
0070: FF FF 7F 6F 70 66 00 80  F8 FF FF 7F F8 FF FF 7F  ...opf..........
0080: 70 61 73 30 1D 0B 80 23  45 0C 80 F0 FF FF 7F F0  pas0...#E.......
0090: FF FF 7F 71 73 74 63 0D  80 53 F8 FF FF 7F F8 FF  ...qstc..S......
00A0: FF 7F 70 61 73 30 21 00                           ..pas0!.        
```

#### Opcodes

```
  0: 0x0068 [0x42] SET_CLI_EVENT_CANCEL_DATA()
  1: 0x0069 [0x03] Work_Zone[9] = 17386*
  2: 0x006E [0x1E] EventEntity looks at LocalPlayer and starts talking
  3: 0x0073 [0x6F] WAIT_FRAME_DELAY: Yield until WaitTime reaches zero
  4: 0x0074 [0x70] WAIT_ENTITY_RENDER_FLAG: Wait while EventEntity->Render.Flags3 bit 2 is set (cancel turn if not)
  5: 0x0075 [0x66] LOAD_EXT_SCHEDULER_MAIN: Load scheduler "pas0" with entities [EventEntity, EventEntity], work=20*
  6: 0x0084 [0x1D] PRINT_EVENT_MESSAGE(message_id=10226*)
    → "Aha! You have done well in bringing me all that is required. Now, I shall return to you your cherished $7!"
  7: 0x0087 [0x23] WAIT_FOR_DIALOG_INTERACTION
  8: 0x0088 [0x45] LOAD_SCHEDULED_TASK: Load scheduler "qstc" with entities [LocalPlayer, LocalPlayer], work=[201*, 0*]
  9: 0x0099 [0x53] WAIT_SCHEDULER_TASK: Wait for scheduler "pas0" with entities [EventEntity, EventEntity]
 10: 0x00A6 [0x21] END_EVENT
 11: 0x00A7 [0x00] END_REQSTACK()
```

### Event 131

#### Metadata

| Field        | Value    |
|--------------|----------|
| Entrypoint   | 0x00A8   |
| Data Size    | 58 bytes |
| Instructions | 14       |

```
      00 01 02 03 04 05 06 07  08 09 0A 0B 0C 0D 0E 0F
      -- -- -- -- -- -- -- --  -- -- -- -- -- -- -- --
00A0:                          03 09 10 0E 80 1D 01 80          ........
00B0: 23 1E F0 FF FF 7F 1D 0F  80 23 66 00 80 F8 FF FF  #........#f.....
00C0: 7F F8 FF FF 7F 74 6C 6B  30 1D 10 80 23 66 00 80  .....tlk0...#f..
00D0: F8 FF FF 7F F8 FF FF 7F  74 6C 6B 31 1D 11 80 23  ........tlk1...#
00E0: 21 00                                             !.              
```

#### Opcodes

```
  0: 0x00A8 [0x03] Work_Zone[9] = 1977*
  1: 0x00AD [0x1D] PRINT_EVENT_MESSAGE(message_id=10221*)
    → "Things of substance will inevitably be destroyed. There comes a time when even the most resilient spirit will be broken..."
  2: 0x00B0 [0x23] WAIT_FOR_DIALOG_INTERACTION
  3: 0x00B1 [0x1E] EventEntity looks at LocalPlayer and starts talking
  4: 0x00B6 [0x1D] PRINT_EVENT_MESSAGE(message_id=10549*)
    → "Hmmm... So, you have heard the $3."
  5: 0x00B9 [0x23] WAIT_FOR_DIALOG_INTERACTION
  6: 0x00BA [0x66] LOAD_EXT_SCHEDULER_MAIN: Load scheduler "tlk0" with entities [EventEntity, EventEntity], work=20*
  7: 0x00C9 [0x1D] PRINT_EVENT_MESSAGE(message_id=10550*)
    → "There is more to the rumor than you know. The branch and the thread that those monstrosities have swallowed are the base materials for a legendary fishing rod."
  8: 0x00CC [0x23] WAIT_FOR_DIALOG_INTERACTION
  9: 0x00CD [0x66] LOAD_EXT_SCHEDULER_MAIN: Load scheduler "tlk1" with entities [EventEntity, EventEntity], work=20*
 10: 0x00DC [0x1D] PRINT_EVENT_MESSAGE(message_id=10551*)
    → "Should you manage to obtain those materials, bring them here to me. I am the only one left alive who can craft the rod of legend."
 11: 0x00DF [0x23] WAIT_FOR_DIALOG_INTERACTION
 12: 0x00E0 [0x21] END_EVENT
 13: 0x00E1 [0x00] END_REQSTACK()
```

### Event 132

#### Metadata

| Field        | Value    |
|--------------|----------|
| Entrypoint   | 0x00E2   |
| Data Size    | 31 bytes |
| Instructions | 9        |

```
      00 01 02 03 04 05 06 07  08 09 0A 0B 0C 0D 0E 0F
      -- -- -- -- -- -- -- --  -- -- -- -- -- -- -- --
00E0:       42 1E F0 FF FF 7F  1D 12 80 23 66 00 80 F8    B........#f...
00F0: FF FF 7F F8 FF FF 7F 74  6C 6B 30 1D 13 80 23 21  .......tlk0...#!
0100: 00                                                .               
```

#### Opcodes

```
  0: 0x00E2 [0x42] SET_CLI_EVENT_CANCEL_DATA()
  1: 0x00E3 [0x1E] EventEntity looks at LocalPlayer and starts talking
  2: 0x00E8 [0x1D] PRINT_EVENT_MESSAGE(message_id=10552*)
    → "Incredible... This is a feat worthy of the greatest anglers in history."
  3: 0x00EB [0x23] WAIT_FOR_DIALOG_INTERACTION
  4: 0x00EC [0x66] LOAD_EXT_SCHEDULER_MAIN: Load scheduler "tlk0" with entities [EventEntity, EventEntity], work=20*
  5: 0x00FB [0x1D] PRINT_EVENT_MESSAGE(message_id=10553*)
    → "Leave these in my care. Come to me again when the sun has passed through her cycle and you will be the first to witness an unbreakable spirit."
  6: 0x00FE [0x23] WAIT_FOR_DIALOG_INTERACTION
  7: 0x00FF [0x21] END_EVENT
  8: 0x0100 [0x00] END_REQSTACK()
```

### Event 133

#### Metadata

| Field        | Value    |
|--------------|----------|
| Entrypoint   | 0x0101   |
| Data Size    | 11 bytes |
| Instructions | 5        |

```
      00 01 02 03 04 05 06 07  08 09 0A 0B 0C 0D 0E 0F
      -- -- -- -- -- -- -- --  -- -- -- -- -- -- -- --
0100:    1E F0 FF FF 7F 1D 14  80 23 21 00               ........#!.    
```

#### Opcodes

```
  0: 0x0101 [0x1E] EventEntity looks at LocalPlayer and starts talking
  1: 0x0106 [0x1D] PRINT_EVENT_MESSAGE(message_id=10554*)
    → "Please, do not rush me. The crafting of a legend is not the work of mere moments."
  2: 0x0109 [0x23] WAIT_FOR_DIALOG_INTERACTION
  3: 0x010A [0x21] END_EVENT
  4: 0x010B [0x00] END_REQSTACK()
```

### Event 134

#### Metadata

| Field        | Value    |
|--------------|----------|
| Entrypoint   | 0x010C   |
| Data Size    | 48 bytes |
| Instructions | 10       |

```
      00 01 02 03 04 05 06 07  08 09 0A 0B 0C 0D 0E 0F
      -- -- -- -- -- -- -- --  -- -- -- -- -- -- -- --
0100:                                      42 1E F0 FF              B...
0110: FF 7F 1D 15 80 23 66 00  80 F8 FF FF 7F F8 FF FF  .....#f.........
0120: 7F 70 61 73 30 1D 16 80  23 45 0C 80 F0 FF FF 7F  .pas0...#E......
0130: F0 FF FF 7F 71 73 74 63  0D 80 21 00              ....qstc..!.    
```

#### Opcodes

```
  0: 0x010C [0x42] SET_CLI_EVENT_CANCEL_DATA()
  1: 0x010D [0x1E] EventEntity looks at LocalPlayer and starts talking
  2: 0x0112 [0x1D] PRINT_EVENT_MESSAGE(message_id=10555*)
    → "It is complete. I must thank you for this chance to create such a masterpiece."
  3: 0x0115 [0x23] WAIT_FOR_DIALOG_INTERACTION
  4: 0x0116 [0x66] LOAD_EXT_SCHEDULER_MAIN: Load scheduler "pas0" with entities [EventEntity, EventEntity], work=20*
  5: 0x0125 [0x1D] PRINT_EVENT_MESSAGE(message_id=10556*)
    → "This fishing rod will never break or splinter..."
  6: 0x0128 [0x23] WAIT_FOR_DIALOG_INTERACTION
  7: 0x0129 [0x45] LOAD_SCHEDULED_TASK: Load scheduler "qstc" with entities [LocalPlayer, LocalPlayer], work=[201*, 0*]
  8: 0x013A [0x21] END_EVENT
  9: 0x013B [0x00] END_REQSTACK()
```

### Event 135

#### Metadata

| Field        | Value    |
|--------------|----------|
| Entrypoint   | 0x013C   |
| Data Size    | 11 bytes |
| Instructions | 5        |

```
      00 01 02 03 04 05 06 07  08 09 0A 0B 0C 0D 0E 0F
      -- -- -- -- -- -- -- --  -- -- -- -- -- -- -- --
0130:                                      1E F0 FF FF              ....
0140: 7F 1D 17 80 23 21 00                              ....#!.         
```

#### Opcodes

```
  0: 0x013C [0x1E] EventEntity looks at LocalPlayer and starts talking
  1: 0x0141 [0x1D] PRINT_EVENT_MESSAGE(message_id=10557*)
    → "You will be the one to prove that there is a spirit in this world that cannot be broken."
  2: 0x0144 [0x23] WAIT_FOR_DIALOG_INTERACTION
  3: 0x0145 [0x21] END_EVENT
  4: 0x0146 [0x00] END_REQSTACK()
```

### Event 160

#### Metadata

| Field        | Value   |
|--------------|---------|
| Entrypoint   | 0x0147  |
| Data Size    | 1 bytes |
| Instructions | 1       |

```
      00 01 02 03 04 05 06 07  08 09 0A 0B 0C 0D 0E 0F
      -- -- -- -- -- -- -- --  -- -- -- -- -- -- -- --
0140:                      00                                  .        
```

#### Opcodes

```
  0: 0x0147 [0x00] END_REQSTACK()
```

### Event 161

#### Metadata

| Field        | Value   |
|--------------|---------|
| Entrypoint   | 0x0148  |
| Data Size    | 1 bytes |
| Instructions | 1       |

```
      00 01 02 03 04 05 06 07  08 09 0A 0B 0C 0D 0E 0F
      -- -- -- -- -- -- -- --  -- -- -- -- -- -- -- --
0140:                          00                               .       
```

#### Opcodes

```
  0: 0x0148 [0x00] END_REQSTACK()
```

### Event 162

#### Metadata

| Field        | Value   |
|--------------|---------|
| Entrypoint   | 0x0149  |
| Data Size    | 1 bytes |
| Instructions | 1       |

```
      00 01 02 03 04 05 06 07  08 09 0A 0B 0C 0D 0E 0F
      -- -- -- -- -- -- -- --  -- -- -- -- -- -- -- --
0140:                             00                             .      
```

#### Opcodes

```
  0: 0x0149 [0x00] END_REQSTACK()
```

### Event 163

#### Metadata

| Field        | Value   |
|--------------|---------|
| Entrypoint   | 0x014A  |
| Data Size    | 1 bytes |
| Instructions | 1       |

```
      00 01 02 03 04 05 06 07  08 09 0A 0B 0C 0D 0E 0F
      -- -- -- -- -- -- -- --  -- -- -- -- -- -- -- --
0140:                                00                           .     
```

#### Opcodes

```
  0: 0x014A [0x00] END_REQSTACK()
```

### Event 164

#### Metadata

| Field        | Value   |
|--------------|---------|
| Entrypoint   | 0x014B  |
| Data Size    | 1 bytes |
| Instructions | 1       |

```
      00 01 02 03 04 05 06 07  08 09 0A 0B 0C 0D 0E 0F
      -- -- -- -- -- -- -- --  -- -- -- -- -- -- -- --
0140:                                   00                         .    
```

#### Opcodes

```
  0: 0x014B [0x00] END_REQSTACK()
```

### Event 165

#### Metadata

| Field        | Value   |
|--------------|---------|
| Entrypoint   | 0x014C  |
| Data Size    | 1 bytes |
| Instructions | 1       |

```
      00 01 02 03 04 05 06 07  08 09 0A 0B 0C 0D 0E 0F
      -- -- -- -- -- -- -- --  -- -- -- -- -- -- -- --
0140:                                      00                       .   
```

#### Opcodes

```
  0: 0x014C [0x00] END_REQSTACK()
```

### Event 166

#### Metadata

| Field        | Value   |
|--------------|---------|
| Entrypoint   | 0x014D  |
| Data Size    | 1 bytes |
| Instructions | 1       |

```
      00 01 02 03 04 05 06 07  08 09 0A 0B 0C 0D 0E 0F
      -- -- -- -- -- -- -- --  -- -- -- -- -- -- -- --
0140:                                         00                     .  
```

#### Opcodes

```
  0: 0x014D [0x00] END_REQSTACK()
```

### Event 65535.1

#### Metadata

| Field        | Value   |
|--------------|---------|
| Entrypoint   | 0x014E  |
| Data Size    | 1 bytes |
| Instructions | 1       |

```
      00 01 02 03 04 05 06 07  08 09 0A 0B 0C 0D 0E 0F
      -- -- -- -- -- -- -- --  -- -- -- -- -- -- -- --
0140:                                            00                   . 
```

#### Opcodes

```
  0: 0x014E [0x00] END_REQSTACK()
```

### Event 167

#### Metadata

| Field        | Value   |
|--------------|---------|
| Entrypoint   | 0x014F  |
| Data Size    | 1 bytes |
| Instructions | 1       |

```
      00 01 02 03 04 05 06 07  08 09 0A 0B 0C 0D 0E 0F
      -- -- -- -- -- -- -- --  -- -- -- -- -- -- -- --
0140:                                               00                 .
```

#### Opcodes

```
  0: 0x014F [0x00] END_REQSTACK()
```

### Event 168

#### Metadata

| Field        | Value   |
|--------------|---------|
| Entrypoint   | 0x0150  |
| Data Size    | 1 bytes |
| Instructions | 1       |

```
      00 01 02 03 04 05 06 07  08 09 0A 0B 0C 0D 0E 0F
      -- -- -- -- -- -- -- --  -- -- -- -- -- -- -- --
0150: 00                                                .               
```

#### Opcodes

```
  0: 0x0150 [0x00] END_REQSTACK()
```

### Event 169

#### Metadata

| Field        | Value   |
|--------------|---------|
| Entrypoint   | 0x0151  |
| Data Size    | 1 bytes |
| Instructions | 1       |

```
      00 01 02 03 04 05 06 07  08 09 0A 0B 0C 0D 0E 0F
      -- -- -- -- -- -- -- --  -- -- -- -- -- -- -- --
0150:    00                                              .              
```

#### Opcodes

```
  0: 0x0151 [0x00] END_REQSTACK()
```

### Event 170

#### Metadata

| Field        | Value   |
|--------------|---------|
| Entrypoint   | 0x0152  |
| Data Size    | 1 bytes |
| Instructions | 1       |

```
      00 01 02 03 04 05 06 07  08 09 0A 0B 0C 0D 0E 0F
      -- -- -- -- -- -- -- --  -- -- -- -- -- -- -- --
0150:       00                                            .             
```

#### Opcodes

```
  0: 0x0152 [0x00] END_REQSTACK()
```

### Event 65535.2

#### Metadata

| Field        | Value    |
|--------------|----------|
| Entrypoint   | 0x0153   |
| Data Size    | 13 bytes |
| Instructions | 3        |

```
      00 01 02 03 04 05 06 07  08 09 0A 0B 0C 0D 0E 0F
      -- -- -- -- -- -- -- --  -- -- -- -- -- -- -- --
0150:          6B 69 64 6C 30  F8 FF FF 7F 1C 18 80 00     kidl0........
```

#### Opcodes

```
  0: 0x0153 [0x6B] STOP_AND_IDLE: EventEntity stops current action and resets to idle (animation="idl0")
  1: 0x015C [0x1C] WAIT(30* ticks)
  2: 0x015F [0x00] END_REQSTACK()
```

### Event 65535.3

#### Metadata

| Field        | Value    |
|--------------|----------|
| Entrypoint   | 0x0160   |
| Data Size    | 33 bytes |
| Instructions | 3        |

```
      00 01 02 03 04 05 06 07  08 09 0A 0B 0C 0D 0E 0F
      -- -- -- -- -- -- -- --  -- -- -- -- -- -- -- --
0160: 5F 06 00 80 F8 FF FF 7F  F8 FF FF 7F 70 61 73 30  _...........pas0
0170: 19 80 5F 07 F8 FF FF 7F  F8 FF FF 7F 70 61 73 30  .._.........pas0
0180: 00                                                .               
```

#### Opcodes

```
  0: 0x0160 [0x5F] MULTI_HANDLER_COMPLEX(mode=0x06 - Load ext scheduler with flag (OpCode 0x5B mode 1, flag 1), ref=20*, entity1=EventEntity, entity2=EventEntity, string="pas0", extra=190*)
  1: 0x0172 [0x5F] MULTI_HANDLER_COMPLEX(mode=0x07 - Wait scheduler task (OpCode 0x53))
  2: 0x0180 [0x00] END_REQSTACK()
```

### Event 65535.4

#### Metadata

| Field        | Value    |
|--------------|----------|
| Entrypoint   | 0x0181   |
| Data Size    | 33 bytes |
| Instructions | 3        |

```
      00 01 02 03 04 05 06 07  08 09 0A 0B 0C 0D 0E 0F
      -- -- -- -- -- -- -- --  -- -- -- -- -- -- -- --
0180:    5F 06 00 80 F8 FF FF  7F F8 FF FF 7F 74 6C 6B   _...........tlk
0190: 30 1A 80 5F 07 F8 FF FF  7F F8 FF FF 7F 74 6C 6B  0.._.........tlk
01A0: 30 00                                             0.              
```

#### Opcodes

```
  0: 0x0181 [0x5F] MULTI_HANDLER_COMPLEX(mode=0x06 - Load ext scheduler with flag (OpCode 0x5B mode 1, flag 1), ref=20*, entity1=EventEntity, entity2=EventEntity, string="tlk0", extra=120*)
  1: 0x0193 [0x5F] MULTI_HANDLER_COMPLEX(mode=0x07 - Wait scheduler task (OpCode 0x53))
  2: 0x01A1 [0x00] END_REQSTACK()
```

### Event 65535.5

#### Metadata

| Field        | Value    |
|--------------|----------|
| Entrypoint   | 0x01A2   |
| Data Size    | 33 bytes |
| Instructions | 3        |

```
      00 01 02 03 04 05 06 07  08 09 0A 0B 0C 0D 0E 0F
      -- -- -- -- -- -- -- --  -- -- -- -- -- -- -- --
01A0:       5F 06 00 80 F8 FF  FF 7F F8 FF FF 7F 74 6C    _...........tl
01B0: 6B 31 1A 80 5F 07 F8 FF  FF 7F F8 FF FF 7F 74 6C  k1.._.........tl
01C0: 6B 31 00                                          k1.             
```

#### Opcodes

```
  0: 0x01A2 [0x5F] MULTI_HANDLER_COMPLEX(mode=0x06 - Load ext scheduler with flag (OpCode 0x5B mode 1, flag 1), ref=20*, entity1=EventEntity, entity2=EventEntity, string="tlk1", extra=120*)
  1: 0x01B4 [0x5F] MULTI_HANDLER_COMPLEX(mode=0x07 - Wait scheduler task (OpCode 0x53))
  2: 0x01C2 [0x00] END_REQSTACK()
```

### Event 65535.6

#### Metadata

| Field        | Value    |
|--------------|----------|
| Entrypoint   | 0x01C3   |
| Data Size    | 33 bytes |
| Instructions | 3        |

```
      00 01 02 03 04 05 06 07  08 09 0A 0B 0C 0D 0E 0F
      -- -- -- -- -- -- -- --  -- -- -- -- -- -- -- --
01C0:          5F 06 1B 80 F8  FF FF 7F F8 FF FF 7F 74     _...........t
01D0: 6C 62 30 1A 80 5F 07 F8  FF FF 7F F8 FF FF 7F 74  lb0.._.........t
01E0: 6C 62 30 00                                       lb0.            
```

#### Opcodes

```
  0: 0x01C3 [0x5F] MULTI_HANDLER_COMPLEX(mode=0x06 - Load ext scheduler with flag (OpCode 0x5B mode 1, flag 1), ref=27*, entity1=EventEntity, entity2=EventEntity, string="tlb0", extra=120*)
  1: 0x01D5 [0x5F] MULTI_HANDLER_COMPLEX(mode=0x07 - Wait scheduler task (OpCode 0x53))
  2: 0x01E3 [0x00] END_REQSTACK()
```

### Event 65535.7

#### Metadata

| Field        | Value    |
|--------------|----------|
| Entrypoint   | 0x01E4   |
| Data Size    | 33 bytes |
| Instructions | 3        |

```
      00 01 02 03 04 05 06 07  08 09 0A 0B 0C 0D 0E 0F
      -- -- -- -- -- -- -- --  -- -- -- -- -- -- -- --
01E0:             5F 06 1B 80  F8 FF FF 7F F8 FF FF 7F      _...........
01F0: 74 6C 62 31 1A 80 5F 07  F8 FF FF 7F F8 FF FF 7F  tlb1.._.........
0200: 74 6C 62 31 00                                    tlb1.           
```

#### Opcodes

```
  0: 0x01E4 [0x5F] MULTI_HANDLER_COMPLEX(mode=0x06 - Load ext scheduler with flag (OpCode 0x5B mode 1, flag 1), ref=27*, entity1=EventEntity, entity2=EventEntity, string="tlb1", extra=120*)
  1: 0x01F6 [0x5F] MULTI_HANDLER_COMPLEX(mode=0x07 - Wait scheduler task (OpCode 0x53))
  2: 0x0204 [0x00] END_REQSTACK()
```

### Event 65535.8

#### Metadata

| Field        | Value    |
|--------------|----------|
| Entrypoint   | 0x0205   |
| Data Size    | 33 bytes |
| Instructions | 3        |

```
      00 01 02 03 04 05 06 07  08 09 0A 0B 0C 0D 0E 0F
      -- -- -- -- -- -- -- --  -- -- -- -- -- -- -- --
0200:                5F 06 00  80 F8 FF FF 7F F8 FF FF       _..........
0210: 7F 74 68 6B 31 1A 80 5F  07 F8 FF FF 7F F8 FF FF  .thk1.._........
0220: 7F 74 68 6B 31 00                                 .thk1.          
```

#### Opcodes

```
  0: 0x0205 [0x5F] MULTI_HANDLER_COMPLEX(mode=0x06 - Load ext scheduler with flag (OpCode 0x5B mode 1, flag 1), ref=20*, entity1=EventEntity, entity2=EventEntity, string="thk1", extra=120*)
  1: 0x0217 [0x5F] MULTI_HANDLER_COMPLEX(mode=0x07 - Wait scheduler task (OpCode 0x53))
  2: 0x0225 [0x00] END_REQSTACK()
```

### Event 65535.9

#### Metadata

| Field        | Value    |
|--------------|----------|
| Entrypoint   | 0x0226   |
| Data Size    | 33 bytes |
| Instructions | 3        |

```
      00 01 02 03 04 05 06 07  08 09 0A 0B 0C 0D 0E 0F
      -- -- -- -- -- -- -- --  -- -- -- -- -- -- -- --
0220:                   5F 06  00 80 F8 FF FF 7F F8 FF        _.........
0230: FF 7F 74 68 6B 32 1A 80  5F 07 F8 FF FF 7F F8 FF  ..thk2.._.......
0240: FF 7F 74 68 6B 32 00                              ..thk2.         
```

#### Opcodes

```
  0: 0x0226 [0x5F] MULTI_HANDLER_COMPLEX(mode=0x06 - Load ext scheduler with flag (OpCode 0x5B mode 1, flag 1), ref=20*, entity1=EventEntity, entity2=EventEntity, string="thk2", extra=120*)
  1: 0x0238 [0x5F] MULTI_HANDLER_COMPLEX(mode=0x07 - Wait scheduler task (OpCode 0x53))
  2: 0x0246 [0x00] END_REQSTACK()
```

### Event 65535.10

#### Metadata

| Field        | Value    |
|--------------|----------|
| Entrypoint   | 0x0247   |
| Data Size    | 33 bytes |
| Instructions | 3        |

```
      00 01 02 03 04 05 06 07  08 09 0A 0B 0C 0D 0E 0F
      -- -- -- -- -- -- -- --  -- -- -- -- -- -- -- --
0240:                      5F  06 1C 80 F8 FF FF 7F F8         _........
0250: FF FF 7F 64 69 73 30 1D  80 5F 07 F8 FF FF 7F F8  ...dis0.._......
0260: FF FF 7F 64 69 73 30 00                           ...dis0.        
```

#### Opcodes

```
  0: 0x0247 [0x5F] MULTI_HANDLER_COMPLEX(mode=0x06 - Load ext scheduler with flag (OpCode 0x5B mode 1, flag 1), ref=21*, entity1=EventEntity, entity2=EventEntity, string="dis0", extra=150*)
  1: 0x0259 [0x5F] MULTI_HANDLER_COMPLEX(mode=0x07 - Wait scheduler task (OpCode 0x53))
  2: 0x0267 [0x00] END_REQSTACK()
```

### Event 65535.11

#### Metadata

| Field        | Value    |
|--------------|----------|
| Entrypoint   | 0x0268   |
| Data Size    | 36 bytes |
| Instructions | 4        |

```
      00 01 02 03 04 05 06 07  08 09 0A 0B 0C 0D 0E 0F
      -- -- -- -- -- -- -- --  -- -- -- -- -- -- -- --
0260:                          1C 1E 80 5F 06 1C 80 F8          ..._....
0270: FF FF 7F F8 FF FF 7F 64  69 73 30 1D 80 5F 07 F8  .......dis0.._..
0280: FF FF 7F F8 FF FF 7F 64  69 73 30 00              .......dis0.    
```

#### Opcodes

```
  0: 0x0268 [0x1C] WAIT(70* ticks)
  1: 0x026B [0x5F] MULTI_HANDLER_COMPLEX(mode=0x06 - Load ext scheduler with flag (OpCode 0x5B mode 1, flag 1), ref=21*, entity1=EventEntity, entity2=EventEntity, string="dis0", extra=150*)
  2: 0x027D [0x5F] MULTI_HANDLER_COMPLEX(mode=0x07 - Wait scheduler task (OpCode 0x53))
  3: 0x028B [0x00] END_REQSTACK()
```

### Event 65535.12

#### Metadata

| Field        | Value    |
|--------------|----------|
| Entrypoint   | 0x028C   |
| Data Size    | 33 bytes |
| Instructions | 3        |

```
      00 01 02 03 04 05 06 07  08 09 0A 0B 0C 0D 0E 0F
      -- -- -- -- -- -- -- --  -- -- -- -- -- -- -- --
0280:                                      5F 06 1F 80              _...
0290: F8 FF FF 7F F8 FF FF 7F  6F 72 6F 30 1D 80 5F 07  ........oro0.._.
02A0: F8 FF FF 7F F8 FF FF 7F  6F 72 6F 30 00           ........oro0.   
```

#### Opcodes

```
  0: 0x028C [0x5F] MULTI_HANDLER_COMPLEX(mode=0x06 - Load ext scheduler with flag (OpCode 0x5B mode 1, flag 1), ref=26*, entity1=EventEntity, entity2=EventEntity, string="oro0", extra=150*)
  1: 0x029E [0x5F] MULTI_HANDLER_COMPLEX(mode=0x07 - Wait scheduler task (OpCode 0x53))
  2: 0x02AC [0x00] END_REQSTACK()
```

### Event 65535.13

#### Metadata

| Field        | Value    |
|--------------|----------|
| Entrypoint   | 0x02AD   |
| Data Size    | 33 bytes |
| Instructions | 3        |

```
      00 01 02 03 04 05 06 07  08 09 0A 0B 0C 0D 0E 0F
      -- -- -- -- -- -- -- --  -- -- -- -- -- -- -- --
02A0:                                         5F 06 1F               _..
02B0: 80 F8 FF FF 7F F8 FF FF  7F 6F 72 6F 31 1D 80 5F  .........oro1.._
02C0: 07 F8 FF FF 7F F8 FF FF  7F 6F 72 6F 31 00        .........oro1.  
```

#### Opcodes

```
  0: 0x02AD [0x5F] MULTI_HANDLER_COMPLEX(mode=0x06 - Load ext scheduler with flag (OpCode 0x5B mode 1, flag 1), ref=26*, entity1=EventEntity, entity2=EventEntity, string="oro1", extra=150*)
  1: 0x02BF [0x5F] MULTI_HANDLER_COMPLEX(mode=0x07 - Wait scheduler task (OpCode 0x53))
  2: 0x02CD [0x00] END_REQSTACK()
```

### Event 65535.14

#### Metadata

| Field        | Value    |
|--------------|----------|
| Entrypoint   | 0x02CE   |
| Data Size    | 33 bytes |
| Instructions | 3        |

```
      00 01 02 03 04 05 06 07  08 09 0A 0B 0C 0D 0E 0F
      -- -- -- -- -- -- -- --  -- -- -- -- -- -- -- --
02C0:                                            5F 06                _.
02D0: 1B 80 F8 FF FF 7F F8 FF  FF 7F 73 6C 74 30 1D 80  ..........slt0..
02E0: 5F 07 F8 FF FF 7F F8 FF  FF 7F 73 6C 74 30 00     _.........slt0. 
```

#### Opcodes

```
  0: 0x02CE [0x5F] MULTI_HANDLER_COMPLEX(mode=0x06 - Load ext scheduler with flag (OpCode 0x5B mode 1, flag 1), ref=27*, entity1=EventEntity, entity2=EventEntity, string="slt0", extra=150*)
  1: 0x02E0 [0x5F] MULTI_HANDLER_COMPLEX(mode=0x07 - Wait scheduler task (OpCode 0x53))
  2: 0x02EE [0x00] END_REQSTACK()
```

### Event 13

#### Metadata

| Field        | Value    |
|--------------|----------|
| Entrypoint   | 0x02EF   |
| Data Size    | 12 bytes |
| Instructions | 3        |

```
      00 01 02 03 04 05 06 07  08 09 0A 0B 0C 0D 0E 0F
      -- -- -- -- -- -- -- --  -- -- -- -- -- -- -- --
02E0:                                               92                 .
02F0: 01 F8 FF FF 7F 80 F8 FF  FF 7F 00                 ...........     
```

#### Opcodes

```
  0: 0x02EF [0x92] EventEntity->Render.Flags3 ^= 0x01
  1: 0x02F5 [0x80] LOAD_WAIT(entity=EventEntity)
  2: 0x02FA [0x00] END_REQSTACK()
```

### Event 15

#### Metadata

| Field        | Value    |
|--------------|----------|
| Entrypoint   | 0x02FB   |
| Data Size    | 12 bytes |
| Instructions | 3        |

```
      00 01 02 03 04 05 06 07  08 09 0A 0B 0C 0D 0E 0F
      -- -- -- -- -- -- -- --  -- -- -- -- -- -- -- --
02F0:                                   92 01 F8 FF FF             .....
0300: 7F 80 F8 FF FF 7F 00                              .......         
```

#### Opcodes

```
  0: 0x02FB [0x92] EventEntity->Render.Flags3 ^= 0x01
  1: 0x0301 [0x80] LOAD_WAIT(entity=EventEntity)
  2: 0x0306 [0x00] END_REQSTACK()
```

### Event 155

#### Metadata

| Field        | Value   |
|--------------|---------|
| Entrypoint   | 0x0307  |
| Data Size    | 7 bytes |
| Instructions | 2       |

```
      00 01 02 03 04 05 06 07  08 09 0A 0B 0C 0D 0E 0F
      -- -- -- -- -- -- -- --  -- -- -- -- -- -- -- --
0300:                      92  01 F8 FF FF 7F 00               .......  
```

#### Opcodes

```
  0: 0x0307 [0x92] EventEntity->Render.Flags3 ^= 0x01
  1: 0x030D [0x00] END_REQSTACK()
```

### Event 156

#### Metadata

| Field        | Value   |
|--------------|---------|
| Entrypoint   | 0x030E  |
| Data Size    | 7 bytes |
| Instructions | 2       |

```
      00 01 02 03 04 05 06 07  08 09 0A 0B 0C 0D 0E 0F
      -- -- -- -- -- -- -- --  -- -- -- -- -- -- -- --
0300:                                            92 01                ..
0310: F8 FF FF 7F 00                                    .....           
```

#### Opcodes

```
  0: 0x030E [0x92] EventEntity->Render.Flags3 ^= 0x01
  1: 0x0314 [0x00] END_REQSTACK()
```

### Event 157

#### Metadata

| Field        | Value   |
|--------------|---------|
| Entrypoint   | 0x0315  |
| Data Size    | 7 bytes |
| Instructions | 2       |

```
      00 01 02 03 04 05 06 07  08 09 0A 0B 0C 0D 0E 0F
      -- -- -- -- -- -- -- --  -- -- -- -- -- -- -- --
0310:                92 01 F8  FF FF 7F 00                   .......    
```

#### Opcodes

```
  0: 0x0315 [0x92] EventEntity->Render.Flags3 ^= 0x01
  1: 0x031B [0x00] END_REQSTACK()
```

### Event 158

#### Metadata

| Field        | Value   |
|--------------|---------|
| Entrypoint   | 0x031C  |
| Data Size    | 7 bytes |
| Instructions | 2       |

```
      00 01 02 03 04 05 06 07  08 09 0A 0B 0C 0D 0E 0F
      -- -- -- -- -- -- -- --  -- -- -- -- -- -- -- --
0310:                                      92 01 F8 FF              ....
0320: FF 7F 00                                          ...             
```

#### Opcodes

```
  0: 0x031C [0x92] EventEntity->Render.Flags3 ^= 0x01
  1: 0x0322 [0x00] END_REQSTACK()
```

### Event 159

#### Metadata

| Field        | Value   |
|--------------|---------|
| Entrypoint   | 0x0323  |
| Data Size    | 1 bytes |
| Instructions | 1       |

```
      00 01 02 03 04 05 06 07  08 09 0A 0B 0C 0D 0E 0F
      -- -- -- -- -- -- -- --  -- -- -- -- -- -- -- --
0320:          00                                          .            
```

#### Opcodes

```
  0: 0x0323 [0x00] END_REQSTACK()
```
