# 17788941 - Eflatun

## Common Data

| Field            | Value           |
|------------------|-----------------|
| Zone             | Rabao (ID: 247) |
| Block Size       | 332 bytes       |
| Total Events     | 2               |
| References Count | 15              |

## List of Events

| Event ID              | Entrypoint   |   Size |   Instructions |
|-----------------------|--------------|--------|----------------|
| [65535](#event-65535) | 0x0000       |      1 |              1 |
| [55](#event-55)       | 0x0001       |    246 |             43 |

## DAT References (imed_data)

|   Index | Hex Value   |   Dec Value |
|---------|-------------|-------------|
|       0 | 0x2730      |       10032 |
|       1 | 0x2731      |       10033 |
|       2 | 0x2732      |       10034 |
|       3 | 0x2733      |       10035 |
|       4 | 0x0000      |           0 |
|       5 | 0x000A      |          10 |
|       6 | 0x0014      |          20 |
|       7 | 0x001E      |          30 |
|       8 | 0x0028      |          40 |
|       9 | 0x0032      |          50 |
|      10 | 0x003C      |          60 |
|      11 | 0x0005      |           5 |
|      12 | 0x0050      |          80 |
|      13 | 0x00EE      |         238 |
|      14 | 0x0236      |         566 |

## String References

- **10032**: From ages past, Zepwell Island has been treated as a forbidden land. The passages here from the mainland, the Gustav and Korroloka tunnels, have been inaccessible.
- **10033**: But adventurers rarely heed words like "forbidden," now do they? You seem like one of those types.
- **10034**: A group of like-minded people, avoiding the authorities from their countries, made their way to this island. They set up shop here, using this oasis as a base.
- **10035**: This is Rabao, a town founded by adventurers.

## Events

### Event 65535

#### Metadata

| Field        | Value   |
|--------------|---------|
| Entrypoint   | 0x0000  |
| Data Size    | 1 bytes |
| Instructions | 1       |

```
      00 01 02 03 04 05 06 07  08 09 0A 0B 0C 0D 0E 0F
      -- -- -- -- -- -- -- --  -- -- -- -- -- -- -- --
0000: 00                                                .               
```

#### Opcodes

```
  0: 0x0000 [0x00] END_REQSTACK()
```

### Event 55

#### Metadata

| Field        | Value     |
|--------------|-----------|
| Entrypoint   | 0x0001    |
| Data Size    | 246 bytes |
| Instructions | 19        |

```
      00 01 02 03 04 05 06 07  08 09 0A 0B 0C 0D 0E 0F
      -- -- -- -- -- -- -- --  -- -- -- -- -- -- -- --
0000:    1A 19 00 1A A7 00 1D  00 80 23 1D 01 80 23 1D   .........#...#.
0010: 02 80 23 1D 03 80 23 21  00 86 00 F8 FF FF 7F 1E  ..#...#!........
0020: F0 FF FF 7F 6F 70 1B 66  04 80 F8 FF FF 7F F8 FF  ....op.f........
0030: FF 7F 74 6C 6B 30 1B 66  04 80 F8 FF FF 7F F8 FF  ..tlk0.f........
0040: FF 7F 74 6C 6B 31 1B 66  05 80 F8 FF FF 7F F8 FF  ..tlk1.f........
0050: FF 7F 74 6C 6B 30 1B 66  06 80 F8 FF FF 7F F8 FF  ..tlk0.f........
0060: FF 7F 74 6C 6B 30 1B 66  07 80 F8 FF FF 7F F8 FF  ..tlk0.f........
0070: FF 7F 74 6C 6B 30 1B 66  08 80 F8 FF FF 7F F8 FF  ..tlk0.f........
0080: FF 7F 74 6C 6B 30 1B 66  09 80 F8 FF FF 7F F8 FF  ..tlk0.f........
0090: FF 7F 74 6C 6B 30 1B 66  0A 80 F8 FF FF 7F F8 FF  ..tlk0.f........
00A0: FF 7F 74 6C 6B 30 1B 5B  0B 80 F8 FF FF 7F F8 FF  ..tlk0.[........
00B0: FF 7F 74 6C 6B 30 1B 5B  0C 80 F8 FF FF 7F F8 FF  ..tlk0.[........
00C0: FF 7F 74 6C 6B 30 1B 5B  0D 80 F8 FF FF 7F F8 FF  ..tlk0.[........
00D0: FF 7F 74 6C 6B 30 1B 5B  0E 80 F8 FF FF 7F F8 FF  ..tlk0.[........
00E0: FF 7F 74 6C 6B 30 1B 5B  0A 80 F8 FF FF 7F F8 FF  ..tlk0.[........
00F0: FF 7F 74 6C 62 30 1B                              ..tlb0.         
```

#### Opcodes

```
  0: 0x0001 [0x1A] CALL_SUBROUTINE(address=0x0019)
  1: 0x0004 [0x1A] CALL_SUBROUTINE(address=0x00A7)
  2: 0x0007 [0x1D] PRINT_EVENT_MESSAGE(message_id=10032*)
    → "From ages past, Zepwell Island has been treated as a forbidden land. The passages here from the mainland, the Gustav and Korroloka tunnels, have been inaccessible."
  3: 0x000A [0x23] WAIT_FOR_DIALOG_INTERACTION
  4: 0x000B [0x1D] PRINT_EVENT_MESSAGE(message_id=10033*)
    → "But adventurers rarely heed words like "forbidden," now do they? You seem like one of those types."
  5: 0x000E [0x23] WAIT_FOR_DIALOG_INTERACTION
  6: 0x000F [0x1D] PRINT_EVENT_MESSAGE(message_id=10034*)
    → "A group of like-minded people, avoiding the authorities from their countries, made their way to this island. They set up shop here, using this oasis as a base."
  7: 0x0012 [0x23] WAIT_FOR_DIALOG_INTERACTION
  8: 0x0013 [0x1D] PRINT_EVENT_MESSAGE(message_id=10035*)
    → "This is Rabao, a town founded by adventurers."
  9: 0x0016 [0x23] WAIT_FOR_DIALOG_INTERACTION
 10: 0x0017 [0x21] END_EVENT
 11: 0x0018 [0x00] END_REQSTACK()

SUBROUTINE_0019:
 12: 0x0019 [0x86] EventEntity->Render.Flags3 = Flags3  // No change (flag=0)
 13: 0x001F [0x1E] EventEntity looks at LocalPlayer and starts talking
 14: 0x0024 [0x6F] WAIT_FRAME_DELAY: Yield until WaitTime reaches zero
 15: 0x0025 [0x70] WAIT_ENTITY_RENDER_FLAG: Wait while EventEntity->Render.Flags3 bit 2 is set (cancel turn if not)
 16: 0x0026 [0x1B] RETURN

SUBROUTINE_00A7:
 17: 0x00A7 [0x5B] LOAD_EXT_SCHEDULER: Load scheduler "tlk0" with entities [EventEntity, EventEntity], work=5*
 18: 0x00B6 [0x1B] RETURN
```

#### Data or dead code:

```
# Dead code (unreachable instructions):
     0x0027 [0x66] LOAD_EXT_SCHEDULER_MAIN: Load scheduler "tlk0" with entities [EventEntity, EventEntity], work=0*
     0x0036 [0x1B] RETURN
     0x0037 [0x66] LOAD_EXT_SCHEDULER_MAIN: Load scheduler "tlk1" with entities [EventEntity, EventEntity], work=0*
     0x0046 [0x1B] RETURN
     0x0047 [0x66] LOAD_EXT_SCHEDULER_MAIN: Load scheduler "tlk0" with entities [EventEntity, EventEntity], work=10*
     0x0056 [0x1B] RETURN
     0x0057 [0x66] LOAD_EXT_SCHEDULER_MAIN: Load scheduler "tlk0" with entities [EventEntity, EventEntity], work=20*
     0x0066 [0x1B] RETURN
     0x0067 [0x66] LOAD_EXT_SCHEDULER_MAIN: Load scheduler "tlk0" with entities [EventEntity, EventEntity], work=30*
     0x0076 [0x1B] RETURN
     0x0077 [0x66] LOAD_EXT_SCHEDULER_MAIN: Load scheduler "tlk0" with entities [EventEntity, EventEntity], work=40*
     0x0086 [0x1B] RETURN
     0x0087 [0x66] LOAD_EXT_SCHEDULER_MAIN: Load scheduler "tlk0" with entities [EventEntity, EventEntity], work=50*
     0x0096 [0x1B] RETURN
     0x0097 [0x66] LOAD_EXT_SCHEDULER_MAIN: Load scheduler "tlk0" with entities [EventEntity, EventEntity], work=60*
     0x00A6 [0x1B] RETURN
# Dead code (unreachable instructions):
     0x00B7 [0x5B] LOAD_EXT_SCHEDULER: Load scheduler "tlk0" with entities [EventEntity, EventEntity], work=80*
     0x00C6 [0x1B] RETURN
     0x00C7 [0x5B] LOAD_EXT_SCHEDULER: Load scheduler "tlk0" with entities [EventEntity, EventEntity], work=238*
     0x00D6 [0x1B] RETURN
     0x00D7 [0x5B] LOAD_EXT_SCHEDULER: Load scheduler "tlk0" with entities [EventEntity, EventEntity], work=566*
     0x00E6 [0x1B] RETURN
     0x00E7 [0x5B] LOAD_EXT_SCHEDULER: Load scheduler "tlb0" with entities [EventEntity, EventEntity], work=60*
     0x00F6 [0x1B] RETURN
```
