# 17788990 - Gumbah

## Common Data

| Field            | Value           |
|------------------|-----------------|
| Zone             | Rabao (ID: 247) |
| Block Size       | 984 bytes       |
| Total Events     | 51              |
| References Count | 14              |

## List of Events

| Event ID                   | Entrypoint   |   Size |   Instructions |
|----------------------------|--------------|--------|----------------|
| [65535](#event-65535)      | 0x0000       |      1 |              1 |
| [102](#event-102)          | 0x0001       |      1 |              1 |
| [104](#event-104)          | 0x0002       |      1 |              1 |
| [65535.1](#event-655351)   | 0x0003       |     35 |              7 |
| [65535.2](#event-655352)   | 0x0026       |     16 |              2 |
| [65535.3](#event-655353)   | 0x0036       |     14 |              2 |
| [65535.4](#event-655354)   | 0x0044       |     16 |              2 |
| [65535.5](#event-655355)   | 0x0054       |     14 |              2 |
| [65535.6](#event-655356)   | 0x0062       |     16 |              2 |
| [65535.7](#event-655357)   | 0x0072       |     14 |              2 |
| [65535.8](#event-655358)   | 0x0080       |     16 |              2 |
| [65535.9](#event-655359)   | 0x0090       |     14 |              2 |
| [65535.10](#event-6553510) | 0x009E       |     16 |              2 |
| [65535.11](#event-6553511) | 0x00AE       |     14 |              2 |
| [65535.12](#event-6553512) | 0x00BC       |     16 |              2 |
| [65535.13](#event-6553513) | 0x00CC       |     14 |              2 |
| [65535.14](#event-6553514) | 0x00DA       |     16 |              2 |
| [65535.15](#event-6553515) | 0x00EA       |     14 |              2 |
| [65535.16](#event-6553516) | 0x00F8       |     16 |              2 |
| [65535.17](#event-6553517) | 0x0108       |     14 |              2 |
| [65535.18](#event-6553518) | 0x0116       |     16 |              2 |
| [65535.19](#event-6553519) | 0x0126       |     14 |              2 |
| [65535.20](#event-6553520) | 0x0134       |     16 |              2 |
| [65535.21](#event-6553521) | 0x0144       |     14 |              2 |
| [65535.22](#event-6553522) | 0x0152       |     16 |              2 |
| [65535.23](#event-6553523) | 0x0162       |     14 |              2 |
| [65535.24](#event-6553524) | 0x0170       |     16 |              2 |
| [65535.25](#event-6553525) | 0x0180       |     14 |              2 |
| [65535.26](#event-6553526) | 0x018E       |     16 |              2 |
| [65535.27](#event-6553527) | 0x019E       |     14 |              2 |
| [65535.28](#event-6553528) | 0x01AC       |     16 |              2 |
| [65535.29](#event-6553529) | 0x01BC       |     14 |              2 |
| [65535.30](#event-6553530) | 0x01CA       |     16 |              2 |
| [65535.31](#event-6553531) | 0x01DA       |     14 |              2 |
| [65535.32](#event-6553532) | 0x01E8       |     16 |              2 |
| [65535.33](#event-6553533) | 0x01F8       |     14 |              2 |
| [65535.34](#event-6553534) | 0x0206       |     16 |              2 |
| [65535.35](#event-6553535) | 0x0216       |     14 |              2 |
| [65535.36](#event-6553536) | 0x0224       |     16 |              2 |
| [65535.37](#event-6553537) | 0x0234       |     14 |              2 |
| [65535.38](#event-6553538) | 0x0242       |     16 |              2 |
| [65535.39](#event-6553539) | 0x0252       |     14 |              2 |
| [65535.40](#event-6553540) | 0x0260       |     16 |              2 |
| [65535.41](#event-6553541) | 0x0270       |     14 |              2 |
| [65535.42](#event-6553542) | 0x027E       |     16 |              2 |
| [65535.43](#event-6553543) | 0x028E       |     14 |              2 |
| [185](#event-185)          | 0x029C       |      7 |              2 |
| [65535.44](#event-6553544) | 0x02A3       |     15 |              5 |
| [65535.45](#event-6553545) | 0x02B2       |     15 |              5 |
| [190](#event-190)          | 0x02C1       |      1 |              1 |
| [191](#event-191)          | 0x02C2       |      1 |              1 |

## DAT References (imed_data)

|   Index | Hex Value   |   Dec Value |
|---------|-------------|-------------|
|       0 | 0x000D      |          13 |
|       1 | 0x2CA1      |       11425 |
|       2 | 0x137F0     |       79856 |
|       3 | 0x1F3F      |        7999 |
|       4 | 0x088B      |        2187 |
|       5 | 0x22CC      |        8908 |
|       6 | 0x13A72     |       80498 |
|       7 | 0x009B      |         155 |
|       8 | 0x009C      |         156 |
|       9 | 0x0028      |          40 |
|      10 | 0x18CD      |        6349 |
|      11 | 0x13039     |       77881 |
|      12 | 0x1BA1      |        7073 |
|      13 | 0x154E0     |       87264 |

## Events

### Event 65535

#### Metadata

| Field        | Value   |
|--------------|---------|
| Entrypoint   | 0x0000  |
| Data Size    | 1 bytes |
| Instructions | 1       |

```
      00 01 02 03 04 05 06 07  08 09 0A 0B 0C 0D 0E 0F
      -- -- -- -- -- -- -- --  -- -- -- -- -- -- -- --
0000: 00                                                .               
```

#### Opcodes

```
  0: 0x0000 [0x00] END_REQSTACK()
```

### Event 102

#### Metadata

| Field        | Value   |
|--------------|---------|
| Entrypoint   | 0x0001  |
| Data Size    | 1 bytes |
| Instructions | 1       |

```
      00 01 02 03 04 05 06 07  08 09 0A 0B 0C 0D 0E 0F
      -- -- -- -- -- -- -- --  -- -- -- -- -- -- -- --
0000:    00                                              .              
```

#### Opcodes

```
  0: 0x0001 [0x00] END_REQSTACK()
```

### Event 104

#### Metadata

| Field        | Value   |
|--------------|---------|
| Entrypoint   | 0x0002  |
| Data Size    | 1 bytes |
| Instructions | 1       |

```
      00 01 02 03 04 05 06 07  08 09 0A 0B 0C 0D 0E 0F
      -- -- -- -- -- -- -- --  -- -- -- -- -- -- -- --
0000:       00                                            .             
```

#### Opcodes

```
  0: 0x0002 [0x00] END_REQSTACK()
```

### Event 65535.1

#### Metadata

| Field        | Value    |
|--------------|----------|
| Entrypoint   | 0x0003   |
| Data Size    | 35 bytes |
| Instructions | 7        |

```
      00 01 02 03 04 05 06 07  08 09 0A 0B 0C 0D 0E 0F
      -- -- -- -- -- -- -- --  -- -- -- -- -- -- -- --
0000:          22 00 79 00 F8  FF FF 7F 3D 70 0F 01 32     ".y.....=p..2
0010: 00 80 37 01 80 02 80 03  80 04 80 1F 00 05 80 06  ..7.............
0020: 80 03 80 1F 01 00                                 ......          
```

#### Opcodes

```
  0: 0x0003 [0x22] ENTITY_HIDE_FLAG(enabled=0x00)
  1: 0x0005 [0x79] EventEntity looks at Dancing Wolf (ID: 17788989/0x010F703D) (Basic look)
  2: 0x000F [0x32] ExtData[1]->MainSpeed = 13* * 0.1
  3: 0x0012 [0x37] UPDATE_EVENT_POSITION_AND_DIR: x=11.425*, z=79.856*, y=7.999*, direction=192.2°*
  4: 0x001B [0x1F] MOVE_ENTITY: EventEntity moves to X=8.908*, Z=80.498*, Y=7.999*
  5: 0x0023 [0x1F] MOVE_ENTITY: Update entity position (mode=1)
  6: 0x0025 [0x00] END_REQSTACK()
```

### Event 65535.2

#### Metadata

| Field        | Value    |
|--------------|----------|
| Entrypoint   | 0x0026   |
| Data Size    | 16 bytes |
| Instructions | 2        |

```
      00 01 02 03 04 05 06 07  08 09 0A 0B 0C 0D 0E 0F
      -- -- -- -- -- -- -- --  -- -- -- -- -- -- -- --
0020:                   5B 07  80 F8 FF FF 7F F8 FF FF        [.........
0030: 7F 74 6C 61 30 00                                 .tla0.          
```

#### Opcodes

```
  0: 0x0026 [0x5B] LOAD_EXT_SCHEDULER: Load scheduler "tla0" with entities [EventEntity, EventEntity], work=155*
  1: 0x0035 [0x00] END_REQSTACK()
```

### Event 65535.3

#### Metadata

| Field        | Value    |
|--------------|----------|
| Entrypoint   | 0x0036   |
| Data Size    | 14 bytes |
| Instructions | 2        |

```
      00 01 02 03 04 05 06 07  08 09 0A 0B 0C 0D 0E 0F
      -- -- -- -- -- -- -- --  -- -- -- -- -- -- -- --
0030:                   53 F8  FF FF 7F F8 FF FF 7F 74        S........t
0040: 6C 61 30 00                                       la0.            
```

#### Opcodes

```
  0: 0x0036 [0x53] WAIT_SCHEDULER_TASK: Wait for scheduler "tla0" with entities [EventEntity, EventEntity]
  1: 0x0043 [0x00] END_REQSTACK()
```

### Event 65535.4

#### Metadata

| Field        | Value    |
|--------------|----------|
| Entrypoint   | 0x0044   |
| Data Size    | 16 bytes |
| Instructions | 2        |

```
      00 01 02 03 04 05 06 07  08 09 0A 0B 0C 0D 0E 0F
      -- -- -- -- -- -- -- --  -- -- -- -- -- -- -- --
0040:             5B 07 80 F8  FF FF 7F F8 FF FF 7F 74      [..........t
0050: 6C 61 31 00                                       la1.            
```

#### Opcodes

```
  0: 0x0044 [0x5B] LOAD_EXT_SCHEDULER: Load scheduler "tla1" with entities [EventEntity, EventEntity], work=155*
  1: 0x0053 [0x00] END_REQSTACK()
```

### Event 65535.5

#### Metadata

| Field        | Value    |
|--------------|----------|
| Entrypoint   | 0x0054   |
| Data Size    | 14 bytes |
| Instructions | 2        |

```
      00 01 02 03 04 05 06 07  08 09 0A 0B 0C 0D 0E 0F
      -- -- -- -- -- -- -- --  -- -- -- -- -- -- -- --
0050:             53 F8 FF FF  7F F8 FF FF 7F 74 6C 61      S........tla
0060: 31 00                                             1.              
```

#### Opcodes

```
  0: 0x0054 [0x53] WAIT_SCHEDULER_TASK: Wait for scheduler "tla1" with entities [EventEntity, EventEntity]
  1: 0x0061 [0x00] END_REQSTACK()
```

### Event 65535.6

#### Metadata

| Field        | Value    |
|--------------|----------|
| Entrypoint   | 0x0062   |
| Data Size    | 16 bytes |
| Instructions | 2        |

```
      00 01 02 03 04 05 06 07  08 09 0A 0B 0C 0D 0E 0F
      -- -- -- -- -- -- -- --  -- -- -- -- -- -- -- --
0060:       5B 07 80 F8 FF FF  7F F8 FF FF 7F 74 6C 62    [..........tlb
0070: 30 00                                             0.              
```

#### Opcodes

```
  0: 0x0062 [0x5B] LOAD_EXT_SCHEDULER: Load scheduler "tlb0" with entities [EventEntity, EventEntity], work=155*
  1: 0x0071 [0x00] END_REQSTACK()
```

### Event 65535.7

#### Metadata

| Field        | Value    |
|--------------|----------|
| Entrypoint   | 0x0072   |
| Data Size    | 14 bytes |
| Instructions | 2        |

```
      00 01 02 03 04 05 06 07  08 09 0A 0B 0C 0D 0E 0F
      -- -- -- -- -- -- -- --  -- -- -- -- -- -- -- --
0070:       53 F8 FF FF 7F F8  FF FF 7F 74 6C 62 30 00    S........tlb0.
```

#### Opcodes

```
  0: 0x0072 [0x53] WAIT_SCHEDULER_TASK: Wait for scheduler "tlb0" with entities [EventEntity, EventEntity]
  1: 0x007F [0x00] END_REQSTACK()
```

### Event 65535.8

#### Metadata

| Field        | Value    |
|--------------|----------|
| Entrypoint   | 0x0080   |
| Data Size    | 16 bytes |
| Instructions | 2        |

```
      00 01 02 03 04 05 06 07  08 09 0A 0B 0C 0D 0E 0F
      -- -- -- -- -- -- -- --  -- -- -- -- -- -- -- --
0080: 5B 07 80 F8 FF FF 7F F8  FF FF 7F 74 6C 62 31 00  [..........tlb1.
```

#### Opcodes

```
  0: 0x0080 [0x5B] LOAD_EXT_SCHEDULER: Load scheduler "tlb1" with entities [EventEntity, EventEntity], work=155*
  1: 0x008F [0x00] END_REQSTACK()
```

### Event 65535.9

#### Metadata

| Field        | Value    |
|--------------|----------|
| Entrypoint   | 0x0090   |
| Data Size    | 14 bytes |
| Instructions | 2        |

```
      00 01 02 03 04 05 06 07  08 09 0A 0B 0C 0D 0E 0F
      -- -- -- -- -- -- -- --  -- -- -- -- -- -- -- --
0090: 53 F8 FF FF 7F F8 FF FF  7F 74 6C 62 31 00        S........tlb1.  
```

#### Opcodes

```
  0: 0x0090 [0x53] WAIT_SCHEDULER_TASK: Wait for scheduler "tlb1" with entities [EventEntity, EventEntity]
  1: 0x009D [0x00] END_REQSTACK()
```

### Event 65535.10

#### Metadata

| Field        | Value    |
|--------------|----------|
| Entrypoint   | 0x009E   |
| Data Size    | 16 bytes |
| Instructions | 2        |

```
      00 01 02 03 04 05 06 07  08 09 0A 0B 0C 0D 0E 0F
      -- -- -- -- -- -- -- --  -- -- -- -- -- -- -- --
0090:                                            5B 07                [.
00A0: 80 F8 FF FF 7F F8 FF FF  7F 74 6C 63 30 00        .........tlc0.  
```

#### Opcodes

```
  0: 0x009E [0x5B] LOAD_EXT_SCHEDULER: Load scheduler "tlc0" with entities [EventEntity, EventEntity], work=155*
  1: 0x00AD [0x00] END_REQSTACK()
```

### Event 65535.11

#### Metadata

| Field        | Value    |
|--------------|----------|
| Entrypoint   | 0x00AE   |
| Data Size    | 14 bytes |
| Instructions | 2        |

```
      00 01 02 03 04 05 06 07  08 09 0A 0B 0C 0D 0E 0F
      -- -- -- -- -- -- -- --  -- -- -- -- -- -- -- --
00A0:                                            53 F8                S.
00B0: FF FF 7F F8 FF FF 7F 74  6C 63 30 00              .......tlc0.    
```

#### Opcodes

```
  0: 0x00AE [0x53] WAIT_SCHEDULER_TASK: Wait for scheduler "tlc0" with entities [EventEntity, EventEntity]
  1: 0x00BB [0x00] END_REQSTACK()
```

### Event 65535.12

#### Metadata

| Field        | Value    |
|--------------|----------|
| Entrypoint   | 0x00BC   |
| Data Size    | 16 bytes |
| Instructions | 2        |

```
      00 01 02 03 04 05 06 07  08 09 0A 0B 0C 0D 0E 0F
      -- -- -- -- -- -- -- --  -- -- -- -- -- -- -- --
00B0:                                      5B 07 80 F8              [...
00C0: FF FF 7F F8 FF FF 7F 74  6C 63 31 00              .......tlc1.    
```

#### Opcodes

```
  0: 0x00BC [0x5B] LOAD_EXT_SCHEDULER: Load scheduler "tlc1" with entities [EventEntity, EventEntity], work=155*
  1: 0x00CB [0x00] END_REQSTACK()
```

### Event 65535.13

#### Metadata

| Field        | Value    |
|--------------|----------|
| Entrypoint   | 0x00CC   |
| Data Size    | 14 bytes |
| Instructions | 2        |

```
      00 01 02 03 04 05 06 07  08 09 0A 0B 0C 0D 0E 0F
      -- -- -- -- -- -- -- --  -- -- -- -- -- -- -- --
00C0:                                      53 F8 FF FF              S...
00D0: 7F F8 FF FF 7F 74 6C 63  31 00                    .....tlc1.      
```

#### Opcodes

```
  0: 0x00CC [0x53] WAIT_SCHEDULER_TASK: Wait for scheduler "tlc1" with entities [EventEntity, EventEntity]
  1: 0x00D9 [0x00] END_REQSTACK()
```

### Event 65535.14

#### Metadata

| Field        | Value    |
|--------------|----------|
| Entrypoint   | 0x00DA   |
| Data Size    | 16 bytes |
| Instructions | 2        |

```
      00 01 02 03 04 05 06 07  08 09 0A 0B 0C 0D 0E 0F
      -- -- -- -- -- -- -- --  -- -- -- -- -- -- -- --
00D0:                                5B 07 80 F8 FF FF            [.....
00E0: 7F F8 FF FF 7F 74 68 6B  31 00                    .....thk1.      
```

#### Opcodes

```
  0: 0x00DA [0x5B] LOAD_EXT_SCHEDULER: Load scheduler "thk1" with entities [EventEntity, EventEntity], work=155*
  1: 0x00E9 [0x00] END_REQSTACK()
```

### Event 65535.15

#### Metadata

| Field        | Value    |
|--------------|----------|
| Entrypoint   | 0x00EA   |
| Data Size    | 14 bytes |
| Instructions | 2        |

```
      00 01 02 03 04 05 06 07  08 09 0A 0B 0C 0D 0E 0F
      -- -- -- -- -- -- -- --  -- -- -- -- -- -- -- --
00E0:                                53 F8 FF FF 7F F8            S.....
00F0: FF FF 7F 74 68 6B 31 00                           ...thk1.        
```

#### Opcodes

```
  0: 0x00EA [0x53] WAIT_SCHEDULER_TASK: Wait for scheduler "thk1" with entities [EventEntity, EventEntity]
  1: 0x00F7 [0x00] END_REQSTACK()
```

### Event 65535.16

#### Metadata

| Field        | Value    |
|--------------|----------|
| Entrypoint   | 0x00F8   |
| Data Size    | 16 bytes |
| Instructions | 2        |

```
      00 01 02 03 04 05 06 07  08 09 0A 0B 0C 0D 0E 0F
      -- -- -- -- -- -- -- --  -- -- -- -- -- -- -- --
00F0:                          5B 07 80 F8 FF FF 7F F8          [.......
0100: FF FF 7F 74 68 6B 32 00                           ...thk2.        
```

#### Opcodes

```
  0: 0x00F8 [0x5B] LOAD_EXT_SCHEDULER: Load scheduler "thk2" with entities [EventEntity, EventEntity], work=155*
  1: 0x0107 [0x00] END_REQSTACK()
```

### Event 65535.17

#### Metadata

| Field        | Value    |
|--------------|----------|
| Entrypoint   | 0x0108   |
| Data Size    | 14 bytes |
| Instructions | 2        |

```
      00 01 02 03 04 05 06 07  08 09 0A 0B 0C 0D 0E 0F
      -- -- -- -- -- -- -- --  -- -- -- -- -- -- -- --
0100:                          53 F8 FF FF 7F F8 FF FF          S.......
0110: 7F 74 68 6B 32 00                                 .thk2.          
```

#### Opcodes

```
  0: 0x0108 [0x53] WAIT_SCHEDULER_TASK: Wait for scheduler "thk2" with entities [EventEntity, EventEntity]
  1: 0x0115 [0x00] END_REQSTACK()
```

### Event 65535.18

#### Metadata

| Field        | Value    |
|--------------|----------|
| Entrypoint   | 0x0116   |
| Data Size    | 16 bytes |
| Instructions | 2        |

```
      00 01 02 03 04 05 06 07  08 09 0A 0B 0C 0D 0E 0F
      -- -- -- -- -- -- -- --  -- -- -- -- -- -- -- --
0110:                   5B 07  80 F8 FF FF 7F F8 FF FF        [.........
0120: 7F 70 61 73 30 00                                 .pas0.          
```

#### Opcodes

```
  0: 0x0116 [0x5B] LOAD_EXT_SCHEDULER: Load scheduler "pas0" with entities [EventEntity, EventEntity], work=155*
  1: 0x0125 [0x00] END_REQSTACK()
```

### Event 65535.19

#### Metadata

| Field        | Value    |
|--------------|----------|
| Entrypoint   | 0x0126   |
| Data Size    | 14 bytes |
| Instructions | 2        |

```
      00 01 02 03 04 05 06 07  08 09 0A 0B 0C 0D 0E 0F
      -- -- -- -- -- -- -- --  -- -- -- -- -- -- -- --
0120:                   53 F8  FF FF 7F F8 FF FF 7F 70        S........p
0130: 61 73 30 00                                       as0.            
```

#### Opcodes

```
  0: 0x0126 [0x53] WAIT_SCHEDULER_TASK: Wait for scheduler "pas0" with entities [EventEntity, EventEntity]
  1: 0x0133 [0x00] END_REQSTACK()
```

### Event 65535.20

#### Metadata

| Field        | Value    |
|--------------|----------|
| Entrypoint   | 0x0134   |
| Data Size    | 16 bytes |
| Instructions | 2        |

```
      00 01 02 03 04 05 06 07  08 09 0A 0B 0C 0D 0E 0F
      -- -- -- -- -- -- -- --  -- -- -- -- -- -- -- --
0130:             5B 07 80 F8  FF FF 7F F8 FF FF 7F 73      [..........s
0140: 69 67 30 00                                       ig0.            
```

#### Opcodes

```
  0: 0x0134 [0x5B] LOAD_EXT_SCHEDULER: Load scheduler "sig0" with entities [EventEntity, EventEntity], work=155*
  1: 0x0143 [0x00] END_REQSTACK()
```

### Event 65535.21

#### Metadata

| Field        | Value    |
|--------------|----------|
| Entrypoint   | 0x0144   |
| Data Size    | 14 bytes |
| Instructions | 2        |

```
      00 01 02 03 04 05 06 07  08 09 0A 0B 0C 0D 0E 0F
      -- -- -- -- -- -- -- --  -- -- -- -- -- -- -- --
0140:             53 F8 FF FF  7F F8 FF FF 7F 73 69 67      S........sig
0150: 30 00                                             0.              
```

#### Opcodes

```
  0: 0x0144 [0x53] WAIT_SCHEDULER_TASK: Wait for scheduler "sig0" with entities [EventEntity, EventEntity]
  1: 0x0151 [0x00] END_REQSTACK()
```

### Event 65535.22

#### Metadata

| Field        | Value    |
|--------------|----------|
| Entrypoint   | 0x0152   |
| Data Size    | 16 bytes |
| Instructions | 2        |

```
      00 01 02 03 04 05 06 07  08 09 0A 0B 0C 0D 0E 0F
      -- -- -- -- -- -- -- --  -- -- -- -- -- -- -- --
0150:       5B 07 80 F8 FF FF  7F F8 FF FF 7F 77 61 76    [..........wav
0160: 30 00                                             0.              
```

#### Opcodes

```
  0: 0x0152 [0x5B] LOAD_EXT_SCHEDULER: Load scheduler "wav0" with entities [EventEntity, EventEntity], work=155*
  1: 0x0161 [0x00] END_REQSTACK()
```

### Event 65535.23

#### Metadata

| Field        | Value    |
|--------------|----------|
| Entrypoint   | 0x0162   |
| Data Size    | 14 bytes |
| Instructions | 2        |

```
      00 01 02 03 04 05 06 07  08 09 0A 0B 0C 0D 0E 0F
      -- -- -- -- -- -- -- --  -- -- -- -- -- -- -- --
0160:       53 F8 FF FF 7F F8  FF FF 7F 77 61 76 30 00    S........wav0.
```

#### Opcodes

```
  0: 0x0162 [0x53] WAIT_SCHEDULER_TASK: Wait for scheduler "wav0" with entities [EventEntity, EventEntity]
  1: 0x016F [0x00] END_REQSTACK()
```

### Event 65535.24

#### Metadata

| Field        | Value    |
|--------------|----------|
| Entrypoint   | 0x0170   |
| Data Size    | 16 bytes |
| Instructions | 2        |

```
      00 01 02 03 04 05 06 07  08 09 0A 0B 0C 0D 0E 0F
      -- -- -- -- -- -- -- --  -- -- -- -- -- -- -- --
0170: 5B 08 80 F8 FF FF 7F F8  FF FF 7F 75 74 61 30 00  [..........uta0.
```

#### Opcodes

```
  0: 0x0170 [0x5B] LOAD_EXT_SCHEDULER: Load scheduler "uta0" with entities [EventEntity, EventEntity], work=156*
  1: 0x017F [0x00] END_REQSTACK()
```

### Event 65535.25

#### Metadata

| Field        | Value    |
|--------------|----------|
| Entrypoint   | 0x0180   |
| Data Size    | 14 bytes |
| Instructions | 2        |

```
      00 01 02 03 04 05 06 07  08 09 0A 0B 0C 0D 0E 0F
      -- -- -- -- -- -- -- --  -- -- -- -- -- -- -- --
0180: 53 F8 FF FF 7F F8 FF FF  7F 75 74 61 30 00        S........uta0.  
```

#### Opcodes

```
  0: 0x0180 [0x53] WAIT_SCHEDULER_TASK: Wait for scheduler "uta0" with entities [EventEntity, EventEntity]
  1: 0x018D [0x00] END_REQSTACK()
```

### Event 65535.26

#### Metadata

| Field        | Value    |
|--------------|----------|
| Entrypoint   | 0x018E   |
| Data Size    | 16 bytes |
| Instructions | 2        |

```
      00 01 02 03 04 05 06 07  08 09 0A 0B 0C 0D 0E 0F
      -- -- -- -- -- -- -- --  -- -- -- -- -- -- -- --
0180:                                            5B 08                [.
0190: 80 F8 FF FF 7F F8 FF FF  7F 75 74 61 31 00        .........uta1.  
```

#### Opcodes

```
  0: 0x018E [0x5B] LOAD_EXT_SCHEDULER: Load scheduler "uta1" with entities [EventEntity, EventEntity], work=156*
  1: 0x019D [0x00] END_REQSTACK()
```

### Event 65535.27

#### Metadata

| Field        | Value    |
|--------------|----------|
| Entrypoint   | 0x019E   |
| Data Size    | 14 bytes |
| Instructions | 2        |

```
      00 01 02 03 04 05 06 07  08 09 0A 0B 0C 0D 0E 0F
      -- -- -- -- -- -- -- --  -- -- -- -- -- -- -- --
0190:                                            53 F8                S.
01A0: FF FF 7F F8 FF FF 7F 75  74 61 31 00              .......uta1.    
```

#### Opcodes

```
  0: 0x019E [0x53] WAIT_SCHEDULER_TASK: Wait for scheduler "uta1" with entities [EventEntity, EventEntity]
  1: 0x01AB [0x00] END_REQSTACK()
```

### Event 65535.28

#### Metadata

| Field        | Value    |
|--------------|----------|
| Entrypoint   | 0x01AC   |
| Data Size    | 16 bytes |
| Instructions | 2        |

```
      00 01 02 03 04 05 06 07  08 09 0A 0B 0C 0D 0E 0F
      -- -- -- -- -- -- -- --  -- -- -- -- -- -- -- --
01A0:                                      5B 08 80 F8              [...
01B0: FF FF 7F F8 FF FF 7F 65  6E 7A 30 00              .......enz0.    
```

#### Opcodes

```
  0: 0x01AC [0x5B] LOAD_EXT_SCHEDULER: Load scheduler "enz0" with entities [EventEntity, EventEntity], work=156*
  1: 0x01BB [0x00] END_REQSTACK()
```

### Event 65535.29

#### Metadata

| Field        | Value    |
|--------------|----------|
| Entrypoint   | 0x01BC   |
| Data Size    | 14 bytes |
| Instructions | 2        |

```
      00 01 02 03 04 05 06 07  08 09 0A 0B 0C 0D 0E 0F
      -- -- -- -- -- -- -- --  -- -- -- -- -- -- -- --
01B0:                                      53 F8 FF FF              S...
01C0: 7F F8 FF FF 7F 65 6E 7A  30 00                    .....enz0.      
```

#### Opcodes

```
  0: 0x01BC [0x53] WAIT_SCHEDULER_TASK: Wait for scheduler "enz0" with entities [EventEntity, EventEntity]
  1: 0x01C9 [0x00] END_REQSTACK()
```

### Event 65535.30

#### Metadata

| Field        | Value    |
|--------------|----------|
| Entrypoint   | 0x01CA   |
| Data Size    | 16 bytes |
| Instructions | 2        |

```
      00 01 02 03 04 05 06 07  08 09 0A 0B 0C 0D 0E 0F
      -- -- -- -- -- -- -- --  -- -- -- -- -- -- -- --
01C0:                                5B 08 80 F8 FF FF            [.....
01D0: 7F F8 FF FF 7F 65 6E 7A  31 00                    .....enz1.      
```

#### Opcodes

```
  0: 0x01CA [0x5B] LOAD_EXT_SCHEDULER: Load scheduler "enz1" with entities [EventEntity, EventEntity], work=156*
  1: 0x01D9 [0x00] END_REQSTACK()
```

### Event 65535.31

#### Metadata

| Field        | Value    |
|--------------|----------|
| Entrypoint   | 0x01DA   |
| Data Size    | 14 bytes |
| Instructions | 2        |

```
      00 01 02 03 04 05 06 07  08 09 0A 0B 0C 0D 0E 0F
      -- -- -- -- -- -- -- --  -- -- -- -- -- -- -- --
01D0:                                53 F8 FF FF 7F F8            S.....
01E0: FF FF 7F 65 6E 7A 31 00                           ...enz1.        
```

#### Opcodes

```
  0: 0x01DA [0x53] WAIT_SCHEDULER_TASK: Wait for scheduler "enz1" with entities [EventEntity, EventEntity]
  1: 0x01E7 [0x00] END_REQSTACK()
```

### Event 65535.32

#### Metadata

| Field        | Value    |
|--------------|----------|
| Entrypoint   | 0x01E8   |
| Data Size    | 16 bytes |
| Instructions | 2        |

```
      00 01 02 03 04 05 06 07  08 09 0A 0B 0C 0D 0E 0F
      -- -- -- -- -- -- -- --  -- -- -- -- -- -- -- --
01E0:                          5B 08 80 F8 FF FF 7F F8          [.......
01F0: FF FF 7F 79 74 6B 30 00                           ...ytk0.        
```

#### Opcodes

```
  0: 0x01E8 [0x5B] LOAD_EXT_SCHEDULER: Load scheduler "ytk0" with entities [EventEntity, EventEntity], work=156*
  1: 0x01F7 [0x00] END_REQSTACK()
```

### Event 65535.33

#### Metadata

| Field        | Value    |
|--------------|----------|
| Entrypoint   | 0x01F8   |
| Data Size    | 14 bytes |
| Instructions | 2        |

```
      00 01 02 03 04 05 06 07  08 09 0A 0B 0C 0D 0E 0F
      -- -- -- -- -- -- -- --  -- -- -- -- -- -- -- --
01F0:                          53 F8 FF FF 7F F8 FF FF          S.......
0200: 7F 79 74 6B 30 00                                 .ytk0.          
```

#### Opcodes

```
  0: 0x01F8 [0x53] WAIT_SCHEDULER_TASK: Wait for scheduler "ytk0" with entities [EventEntity, EventEntity]
  1: 0x0205 [0x00] END_REQSTACK()
```

### Event 65535.34

#### Metadata

| Field        | Value    |
|--------------|----------|
| Entrypoint   | 0x0206   |
| Data Size    | 16 bytes |
| Instructions | 2        |

```
      00 01 02 03 04 05 06 07  08 09 0A 0B 0C 0D 0E 0F
      -- -- -- -- -- -- -- --  -- -- -- -- -- -- -- --
0200:                   5B 08  80 F8 FF FF 7F F8 FF FF        [.........
0210: 7F 79 74 6B 31 00                                 .ytk1.          
```

#### Opcodes

```
  0: 0x0206 [0x5B] LOAD_EXT_SCHEDULER: Load scheduler "ytk1" with entities [EventEntity, EventEntity], work=156*
  1: 0x0215 [0x00] END_REQSTACK()
```

### Event 65535.35

#### Metadata

| Field        | Value    |
|--------------|----------|
| Entrypoint   | 0x0216   |
| Data Size    | 14 bytes |
| Instructions | 2        |

```
      00 01 02 03 04 05 06 07  08 09 0A 0B 0C 0D 0E 0F
      -- -- -- -- -- -- -- --  -- -- -- -- -- -- -- --
0210:                   53 F8  FF FF 7F F8 FF FF 7F 79        S........y
0220: 74 6B 31 00                                       tk1.            
```

#### Opcodes

```
  0: 0x0216 [0x53] WAIT_SCHEDULER_TASK: Wait for scheduler "ytk1" with entities [EventEntity, EventEntity]
  1: 0x0223 [0x00] END_REQSTACK()
```

### Event 65535.36

#### Metadata

| Field        | Value    |
|--------------|----------|
| Entrypoint   | 0x0224   |
| Data Size    | 16 bytes |
| Instructions | 2        |

```
      00 01 02 03 04 05 06 07  08 09 0A 0B 0C 0D 0E 0F
      -- -- -- -- -- -- -- --  -- -- -- -- -- -- -- --
0220:             5B 08 80 F8  FF FF 7F F8 FF FF 7F 6B      [..........k
0230: 73 72 30 00                                       sr0.            
```

#### Opcodes

```
  0: 0x0224 [0x5B] LOAD_EXT_SCHEDULER: Load scheduler "ksr0" with entities [EventEntity, EventEntity], work=156*
  1: 0x0233 [0x00] END_REQSTACK()
```

### Event 65535.37

#### Metadata

| Field        | Value    |
|--------------|----------|
| Entrypoint   | 0x0234   |
| Data Size    | 14 bytes |
| Instructions | 2        |

```
      00 01 02 03 04 05 06 07  08 09 0A 0B 0C 0D 0E 0F
      -- -- -- -- -- -- -- --  -- -- -- -- -- -- -- --
0230:             53 F8 FF FF  7F F8 FF FF 7F 6B 73 72      S........ksr
0240: 30 00                                             0.              
```

#### Opcodes

```
  0: 0x0234 [0x53] WAIT_SCHEDULER_TASK: Wait for scheduler "ksr0" with entities [EventEntity, EventEntity]
  1: 0x0241 [0x00] END_REQSTACK()
```

### Event 65535.38

#### Metadata

| Field        | Value    |
|--------------|----------|
| Entrypoint   | 0x0242   |
| Data Size    | 16 bytes |
| Instructions | 2        |

```
      00 01 02 03 04 05 06 07  08 09 0A 0B 0C 0D 0E 0F
      -- -- -- -- -- -- -- --  -- -- -- -- -- -- -- --
0240:       5B 08 80 F8 FF FF  7F F8 FF FF 7F 74 67 6D    [..........tgm
0250: 30 00                                             0.              
```

#### Opcodes

```
  0: 0x0242 [0x5B] LOAD_EXT_SCHEDULER: Load scheduler "tgm0" with entities [EventEntity, EventEntity], work=156*
  1: 0x0251 [0x00] END_REQSTACK()
```

### Event 65535.39

#### Metadata

| Field        | Value    |
|--------------|----------|
| Entrypoint   | 0x0252   |
| Data Size    | 14 bytes |
| Instructions | 2        |

```
      00 01 02 03 04 05 06 07  08 09 0A 0B 0C 0D 0E 0F
      -- -- -- -- -- -- -- --  -- -- -- -- -- -- -- --
0250:       53 F8 FF FF 7F F8  FF FF 7F 74 67 6D 30 00    S........tgm0.
```

#### Opcodes

```
  0: 0x0252 [0x53] WAIT_SCHEDULER_TASK: Wait for scheduler "tgm0" with entities [EventEntity, EventEntity]
  1: 0x025F [0x00] END_REQSTACK()
```

### Event 65535.40

#### Metadata

| Field        | Value    |
|--------------|----------|
| Entrypoint   | 0x0260   |
| Data Size    | 16 bytes |
| Instructions | 2        |

```
      00 01 02 03 04 05 06 07  08 09 0A 0B 0C 0D 0E 0F
      -- -- -- -- -- -- -- --  -- -- -- -- -- -- -- --
0260: 5B 08 80 F8 FF FF 7F F8  FF FF 7F 74 67 6D 31 00  [..........tgm1.
```

#### Opcodes

```
  0: 0x0260 [0x5B] LOAD_EXT_SCHEDULER: Load scheduler "tgm1" with entities [EventEntity, EventEntity], work=156*
  1: 0x026F [0x00] END_REQSTACK()
```

### Event 65535.41

#### Metadata

| Field        | Value    |
|--------------|----------|
| Entrypoint   | 0x0270   |
| Data Size    | 14 bytes |
| Instructions | 2        |

```
      00 01 02 03 04 05 06 07  08 09 0A 0B 0C 0D 0E 0F
      -- -- -- -- -- -- -- --  -- -- -- -- -- -- -- --
0270: 53 F8 FF FF 7F F8 FF FF  7F 74 67 6D 31 00        S........tgm1.  
```

#### Opcodes

```
  0: 0x0270 [0x53] WAIT_SCHEDULER_TASK: Wait for scheduler "tgm1" with entities [EventEntity, EventEntity]
  1: 0x027D [0x00] END_REQSTACK()
```

### Event 65535.42

#### Metadata

| Field        | Value    |
|--------------|----------|
| Entrypoint   | 0x027E   |
| Data Size    | 16 bytes |
| Instructions | 2        |

```
      00 01 02 03 04 05 06 07  08 09 0A 0B 0C 0D 0E 0F
      -- -- -- -- -- -- -- --  -- -- -- -- -- -- -- --
0270:                                            5B 08                [.
0280: 80 F8 FF FF 7F F8 FF FF  7F 74 67 6D 32 00        .........tgm2.  
```

#### Opcodes

```
  0: 0x027E [0x5B] LOAD_EXT_SCHEDULER: Load scheduler "tgm2" with entities [EventEntity, EventEntity], work=156*
  1: 0x028D [0x00] END_REQSTACK()
```

### Event 65535.43

#### Metadata

| Field        | Value    |
|--------------|----------|
| Entrypoint   | 0x028E   |
| Data Size    | 14 bytes |
| Instructions | 2        |

```
      00 01 02 03 04 05 06 07  08 09 0A 0B 0C 0D 0E 0F
      -- -- -- -- -- -- -- --  -- -- -- -- -- -- -- --
0280:                                            53 F8                S.
0290: FF FF 7F F8 FF FF 7F 74  67 6D 32 00              .......tgm2.    
```

#### Opcodes

```
  0: 0x028E [0x53] WAIT_SCHEDULER_TASK: Wait for scheduler "tgm2" with entities [EventEntity, EventEntity]
  1: 0x029B [0x00] END_REQSTACK()
```

### Event 185

#### Metadata

| Field        | Value   |
|--------------|---------|
| Entrypoint   | 0x029C  |
| Data Size    | 7 bytes |
| Instructions | 2       |

```
      00 01 02 03 04 05 06 07  08 09 0A 0B 0C 0D 0E 0F
      -- -- -- -- -- -- -- --  -- -- -- -- -- -- -- --
0290:                                      92 01 F8 FF              ....
02A0: FF 7F 00                                          ...             
```

#### Opcodes

```
  0: 0x029C [0x92] EventEntity->Render.Flags3 ^= 0x01
  1: 0x02A2 [0x00] END_REQSTACK()
```

### Event 65535.44

#### Metadata

| Field        | Value    |
|--------------|----------|
| Entrypoint   | 0x02A3   |
| Data Size    | 15 bytes |
| Instructions | 5        |

```
      00 01 02 03 04 05 06 07  08 09 0A 0B 0C 0D 0E 0F
      -- -- -- -- -- -- -- --  -- -- -- -- -- -- -- --
02A0:          32 09 80 1F 00  0A 80 0B 80 03 80 1F 01     2............
02B0: 6F 00                                             o.              
```

#### Opcodes

```
  0: 0x02A3 [0x32] ExtData[1]->MainSpeed = 40* * 0.1
  1: 0x02A6 [0x1F] MOVE_ENTITY: EventEntity moves to X=6.349*, Z=77.881*, Y=7.999*
  2: 0x02AE [0x1F] MOVE_ENTITY: Update entity position (mode=1)
  3: 0x02B0 [0x6F] WAIT_FRAME_DELAY: Yield until WaitTime reaches zero
  4: 0x02B1 [0x00] END_REQSTACK()
```

### Event 65535.45

#### Metadata

| Field        | Value    |
|--------------|----------|
| Entrypoint   | 0x02B2   |
| Data Size    | 15 bytes |
| Instructions | 5        |

```
      00 01 02 03 04 05 06 07  08 09 0A 0B 0C 0D 0E 0F
      -- -- -- -- -- -- -- --  -- -- -- -- -- -- -- --
02B0:       32 09 80 1F 00 0C  80 0D 80 03 80 1F 01 6F    2............o
02C0: 00                                                .               
```

#### Opcodes

```
  0: 0x02B2 [0x32] ExtData[1]->MainSpeed = 40* * 0.1
  1: 0x02B5 [0x1F] MOVE_ENTITY: EventEntity moves to X=7.073*, Z=87.264*, Y=7.999*
  2: 0x02BD [0x1F] MOVE_ENTITY: Update entity position (mode=1)
  3: 0x02BF [0x6F] WAIT_FRAME_DELAY: Yield until WaitTime reaches zero
  4: 0x02C0 [0x00] END_REQSTACK()
```

### Event 190

#### Metadata

| Field        | Value   |
|--------------|---------|
| Entrypoint   | 0x02C1  |
| Data Size    | 1 bytes |
| Instructions | 1       |

```
      00 01 02 03 04 05 06 07  08 09 0A 0B 0C 0D 0E 0F
      -- -- -- -- -- -- -- --  -- -- -- -- -- -- -- --
02C0:    00                                              .              
```

#### Opcodes

```
  0: 0x02C1 [0x00] END_REQSTACK()
```

### Event 191

#### Metadata

| Field        | Value   |
|--------------|---------|
| Entrypoint   | 0x02C2  |
| Data Size    | 1 bytes |
| Instructions | 1       |

```
      00 01 02 03 04 05 06 07  08 09 0A 0B 0C 0D 0E 0F
      -- -- -- -- -- -- -- --  -- -- -- -- -- -- -- --
02C0:       00                                            .             
```

#### Opcodes

```
  0: 0x02C2 [0x00] END_REQSTACK()
```
