# 17788981 - Guinavie

## Common Data

| Field            | Value           |
|------------------|-----------------|
| Zone             | Rabao (ID: 247) |
| Block Size       | 308 bytes       |
| Total Events     | 3               |
| References Count | 17              |

## List of Events

| Event ID              | Entrypoint   |   Size |   Instructions |
|-----------------------|--------------|--------|----------------|
| [65535](#event-65535) | 0x0000       |      1 |              1 |
| [79](#event-79)       | 0x0001       |    194 |             39 |
| [80](#event-80)       | 0x00C3       |     16 |              6 |

## DAT References (imed_data)

|   Index | Hex Value   |   Dec Value |
|---------|-------------|-------------|
|       0 | 0xFFFFFFFC  |  4294967292 |
|       1 | 0x27FA      |       10234 |
|       2 | 0xFFFFFFFD  |  4294967293 |
|       3 | 0xFFFFFFFF  |  4294967295 |
|       4 | 0x00C8      |         200 |
|       5 | 0x0000      |           0 |
|       6 | 0x0020      |          32 |
|       7 | 0x005A      |          90 |
|       8 | 0x003C      |          60 |
|       9 | 0x00C9      |         201 |
|      10 | 0x008A      |         138 |
|      11 | 0x27F4      |       10228 |
|      12 | 0x27F7      |       10231 |
|      13 | 0x0001      |           1 |
|      14 | 0x27F8      |       10232 |
|      15 | 0x40000000  |  1073741824 |
|      16 | 0x27F3      |       10227 |

## String References

- **10227**: If you wish to ride a chocobo, you must possess $6 and have a high enough job level.
- **10228**: You can rent a chocobo for $0 gil. I see you currently have $1 gil.
- **10231**: Do you wish to rent a chocobo? [Yes, I do./No, thank you.]
- **10232**: You don't have enough gil.
- **10234**: Would you be so kind as to deliver her to [the entrance to the Gustav Tunnel (B-8)/Bibiki Bay (G-10)/the entrance of Uggalepih Temple (J-11)]?

## Events

### Event 65535

#### Metadata

| Field        | Value   |
|--------------|---------|
| Entrypoint   | 0x0000  |
| Data Size    | 1 bytes |
| Instructions | 1       |

```
      00 01 02 03 04 05 06 07  08 09 0A 0B 0C 0D 0E 0F
      -- -- -- -- -- -- -- --  -- -- -- -- -- -- -- --
0000: 00                                                .               
```

#### Opcodes

```
  0: 0x0000 [0x00] END_REQSTACK()
```

### Event 79

#### Metadata

| Field        | Value     |
|--------------|-----------|
| Entrypoint   | 0x0001    |
| Data Size    | 194 bytes |
| Instructions | 37        |

```
      00 01 02 03 04 05 06 07  08 09 0A 0B 0C 0D 0E 0F
      -- -- -- -- -- -- -- --  -- -- -- -- -- -- -- --
0000:    02 02 10 00 80 00 10  00 42 1D 01 80 23 21 00   ........B...#!.
0010: 02 02 10 02 80 00 1D 00  1E F0 FF FF 7F 02 02 10  ................
0020: 03 80 00 5A 00 42 45 04  80 F8 FF FF 7F F8 FF FF  ...Z.BE.........
0030: 7F 66 64 6F 32 05 80 02  04 10 05 80 00 58 00 5D  .fdo2........X.]
0040: 06 80 07 80 1C 08 80 45  09 80 F8 FF FF 7F F8 FF  .......E........
0050: FF 7F 63 68 63 6F 05 80  21 00 03 09 10 0A 80 1E  ..chco..!.......
0060: F0 FF FF 7F 1D 0B 80 23  24 0C 80 0D 80 05 80 25  .......#$......%
0070: 02 00 10 05 80 00 BC 00  02 03 10 02 10 04 AE 00  ................
0080: 42 45 04 80 F8 FF FF 7F  F8 FF FF 7F 66 64 6F 31  BE..........fdo1
0090: 05 80 02 04 10 05 80 00  AB 00 45 09 80 F8 FF FF  ..........E.....
00A0: 7F F8 FF FF 7F 63 68 63  6F 05 80 01 B7 00 1D 0E  .....chco.......
00B0: 80 23 03 01 10 0F 80 21  00 01 C1 00 03 01 10 0F  .#.....!........
00C0: 80 21 00                                          .!.             
```

#### Opcodes

```
  0: 0x0001 [0x02] IF !(Work_Zone[2] == 4294967292*) GOTO 0x0010
  1: 0x0009 [0x42] SET_CLI_EVENT_CANCEL_DATA()
  2: 0x000A [0x1D] PRINT_EVENT_MESSAGE(message_id=10234*)
    → "Would you be so kind as to deliver her to [the entrance to the Gustav Tunnel (B-8)/Bibiki Bay (G-10)/the entrance of Uggalepih Temple (J-11)]?"
  3: 0x000D [0x23] WAIT_FOR_DIALOG_INTERACTION
  4: 0x000E [0x21] END_EVENT
  5: 0x000F [0x00] END_REQSTACK()
  6: 0x0010 [0x02] IF !(Work_Zone[2] == 4294967293*) GOTO 0x001D
  7: 0x0018 [0x1E] EventEntity looks at LocalPlayer and starts talking
  8: 0x001D [0x02] IF !(Work_Zone[2] == 4294967295*) GOTO 0x005A
  9: 0x0025 [0x42] SET_CLI_EVENT_CANCEL_DATA()
 10: 0x0026 [0x45] LOAD_SCHEDULED_TASK: Load scheduler "fdo2" with entities [EventEntity, EventEntity], work=[200*, 0*]
 11: 0x0037 [0x02] IF !(Work_Zone[4] == 0*) GOTO 0x0058
 12: 0x003F [0x5D] SET_MUSIC_VOLUME(volume=32*, fade_time=90*)
 13: 0x0044 [0x1C] WAIT(60* ticks)
 14: 0x0047 [0x45] LOAD_SCHEDULED_TASK: Load scheduler "chco" with entities [EventEntity, EventEntity], work=[201*, 0*]
 15: 0x0058 [0x21] END_EVENT
 16: 0x0059 [0x00] END_REQSTACK()
 17: 0x005A [0x03] Work_Zone[9] = 138*
 18: 0x005F [0x1E] EventEntity looks at LocalPlayer and starts talking
 19: 0x0064 [0x1D] PRINT_EVENT_MESSAGE(message_id=10228*)
    → "You can rent a chocobo for $0 gil. I see you currently have $1 gil."
 20: 0x0067 [0x23] WAIT_FOR_DIALOG_INTERACTION
 21: 0x0068 [0x24] CREATE_DIALOG(message_id=10231*, default_option=1*, option_flags=0*)
    → "Do you wish to rent a chocobo? [Yes, I do./No, thank you.]"
 22: 0x006F [0x25] WAIT_DIALOG_SELECT()
 23: 0x0070 [0x02] IF !(Work_Zone[0] == 0*) GOTO 0x00BC
 24: 0x0078 [0x02] IF !(Work_Zone[3] < Work_Zone[2]) GOTO 0x00AE
 25: 0x0080 [0x42] SET_CLI_EVENT_CANCEL_DATA()
 26: 0x0081 [0x45] LOAD_SCHEDULED_TASK: Load scheduler "fdo1" with entities [EventEntity, EventEntity], work=[200*, 0*]
 27: 0x0092 [0x02] IF !(Work_Zone[4] == 0*) GOTO 0x00AB
 28: 0x009A [0x45] LOAD_SCHEDULED_TASK: Load scheduler "chco" with entities [EventEntity, EventEntity], work=[201*, 0*]
 29: 0x00AB [0x01] GOTO 0x00B7
 30: 0x00AE [0x1D] PRINT_EVENT_MESSAGE(message_id=10232*)
    → "You don't have enough gil."
 31: 0x00B1 [0x23] WAIT_FOR_DIALOG_INTERACTION
 32: 0x00B2 [0x03] Work_Zone[1] = 1073741824*

SUBROUTINE_00B7:
 33: 0x00B7 [0x21] END_EVENT
 34: 0x00B8 [0x00] END_REQSTACK()

SUBROUTINE_00C1:
 35: 0x00C1 [0x21] END_EVENT
 36: 0x00C2 [0x00] END_REQSTACK()
```

#### Data or dead code:

```
# Dead code (unreachable instructions):
     0x00B9 [0x01] GOTO 0x00C1
```

### Event 80

#### Metadata

| Field        | Value    |
|--------------|----------|
| Entrypoint   | 0x00C3   |
| Data Size    | 16 bytes |
| Instructions | 6        |

```
      00 01 02 03 04 05 06 07  08 09 0A 0B 0C 0D 0E 0F
      -- -- -- -- -- -- -- --  -- -- -- -- -- -- -- --
00C0:          03 09 10 0A 80  1E F0 FF FF 7F 1D 10 80     .............
00D0: 23 21 00                                          #!.             
```

#### Opcodes

```
  0: 0x00C3 [0x03] Work_Zone[9] = 138*
  1: 0x00C8 [0x1E] EventEntity looks at LocalPlayer and starts talking
  2: 0x00CD [0x1D] PRINT_EVENT_MESSAGE(message_id=10227*)
    → "If you wish to ride a chocobo, you must possess $6 and have a high enough job level."
  3: 0x00D0 [0x23] WAIT_FOR_DIALOG_INTERACTION
  4: 0x00D1 [0x21] END_EVENT
  5: 0x00D2 [0x00] END_REQSTACK()
```
