# 17789017 - Quwi Orihbhe

## Common Data

| Field            | Value           |
|------------------|-----------------|
| Zone             | Rabao (ID: 247) |
| Block Size       | 1576 bytes      |
| Total Events     | 27              |
| References Count | 74              |

## List of Events

| Event ID                   | Entrypoint   |   Size |   Instructions |
|----------------------------|--------------|--------|----------------|
| [65535](#event-65535)      | 0x0000       |    149 |             33 |
| [65535.1](#event-655351)   | 0x0095       |     16 |              4 |
| [65535.2](#event-655352)   | 0x00A5       |     16 |              4 |
| [65535.3](#event-655353)   | 0x00B5       |      5 |              2 |
| [65535.4](#event-655354)   | 0x00BA       |     46 |              4 |
| [65535.5](#event-655355)   | 0x00E8       |     65 |              8 |
| [65535.6](#event-655356)   | 0x0129       |     53 |              9 |
| [151](#event-151)          | 0x015E       |      1 |              1 |
| [153](#event-153)          | 0x015F       |     98 |             27 |
| [152](#event-152)          | 0x01C1       |     32 |             10 |
| [143](#event-143)          | 0x01E1       |     51 |             13 |
| [144](#event-144)          | 0x0214       |    302 |             64 |
| [145](#event-145)          | 0x0342       |     27 |              7 |
| [146](#event-146)          | 0x035D       |     27 |              7 |
| [147](#event-147)          | 0x0378       |     33 |              9 |
| [148](#event-148)          | 0x0399       |     41 |             11 |
| [149](#event-149)          | 0x03C2       |     33 |              9 |
| [150](#event-150)          | 0x03E3       |     29 |             13 |
| [65535.7](#event-655357)   | 0x0400       |     16 |              2 |
| [65535.8](#event-655358)   | 0x0410       |     14 |              2 |
| [65535.9](#event-655359)   | 0x041E       |     16 |              2 |
| [65535.10](#event-6553510) | 0x042E       |     14 |              2 |
| [65535.11](#event-6553511) | 0x043C       |     16 |              2 |
| [65535.12](#event-6553512) | 0x044C       |     14 |              2 |
| [65535.13](#event-6553513) | 0x045A       |     16 |              2 |
| [65535.14](#event-6553514) | 0x046A       |     14 |              2 |
| [65535.15](#event-6553515) | 0x0478       |      9 |              3 |

## DAT References (imed_data)

|   Index | Hex Value   |   Dec Value |
|---------|-------------|-------------|
|       0 | 0x0005      |           5 |
|       1 | 0x0001      |           1 |
|       2 | 0x0002      |           2 |
|       3 | 0x000A      |          10 |
|       4 | 0x0009      |           9 |
|       5 | 0x0046      |          70 |
|       6 | 0x008C      |         140 |
|       7 | 0x00D2      |         210 |
|       8 | 0x0007      |           7 |
|       9 | 0x003C      |          60 |
|      10 | 0x0018      |          24 |
|      11 | 0x0050      |          80 |
|      12 | 0x0071      |         113 |
|      13 | 0x000D      |          13 |
|      14 | 0x0000      |           0 |
|      15 | 0x010C      |         268 |
|      16 | 0x0014      |          20 |
|      17 | 0x001F      |          31 |
|      18 | 0x00D1      |         209 |
|      19 | 0x00F0      |         240 |
|      20 | 0x00F1      |         241 |
|      21 | 0x39A7      |       14759 |
|      22 | 0x203A      |        8250 |
|      23 | 0x1F3F      |        7999 |
|      24 | 0x012C      |         300 |
|      25 | 0x0028      |          40 |
|      26 | 0x38F5      |       14581 |
|      27 | 0x283D      |       10301 |
|      28 | 0x2DD5      |       11733 |
|      29 | 0x001D      |          29 |
|      30 | 0x001E      |          30 |
|      31 | 0x2DD6      |       11734 |
|      32 | 0x005A      |          90 |
|      33 | 0x2DD7      |       11735 |
|      34 | 0x0020      |          32 |
|      35 | 0x2DD8      |       11736 |
|      36 | 0x2DD9      |       11737 |
|      37 | 0x0A36      |        2614 |
|      38 | 0x2DD3      |       11731 |
|      39 | 0x2DD4      |       11732 |
|      40 | 0x2D73      |       11635 |
|      41 | 0x2D74      |       11636 |
|      42 | 0x2D75      |       11637 |
|      43 | 0x2D76      |       11638 |
|      44 | 0x003B      |          59 |
|      45 | 0x0876      |        2166 |
|      46 | 0x2D77      |       11639 |
|      47 | 0x2D78      |       11640 |
|      48 | 0x2D79      |       11641 |
|      49 | 0x2DB2      |       11698 |
|      50 | 0x2D7B      |       11643 |
|      51 | 0x0003      |           3 |
|      52 | 0x0078      |         120 |
|      53 | 0x2DB7      |       11703 |
|      54 | 0x2D7C      |       11644 |
|      55 | 0x2D7D      |       11645 |
|      56 | 0x2D7E      |       11646 |
|      57 | 0x2D7F      |       11647 |
|      58 | 0x2D80      |       11648 |
|      59 | 0x0022      |          34 |
|      60 | 0x2D81      |       11649 |
|      61 | 0x2D82      |       11650 |
|      62 | 0x2D83      |       11651 |
|      63 | 0x2D84      |       11652 |
|      64 | 0x2D7A      |       11642 |
|      65 | 0x2D85      |       11653 |
|      66 | 0x2D86      |       11654 |
|      67 | 0x1734      |        5940 |
|      68 | 0x2D87      |       11655 |
|      69 | 0x2D88      |       11656 |
|      70 | 0x2D89      |       11657 |
|      71 | 0x2D8A      |       11658 |
|      72 | 0x2D8B      |       11659 |
|      73 | 0x2D8C      |       11660 |

## String References

- **11657**: Yes...everything is as forrreseen. Your arrival here was no accident.
- **11658**: And I know what you are going to tell me--Anastase wants a rrreport. Tell him that I will contact him once I have better results.
- **11659**: You brought some Adoulin cuisine for me? This was certainly unexpec--I mean, well within the rrrealm of the predictable.
- **11660**: My whiskerrrs are just quivering with anticipation! Thank you very much!
- **11698**: Record this fount? [Yes./No.]
- **11703**: Your $3 has been attuned to a geomagnetic fount[ in Selbina/ in Mhaura/ in Rabao/ in Norg]!
- **11731**: Should you stumble across a location pertinent to your search, gently press the box against your forehead.
- **11732**: With luck, you should find what you're looking for.
- **11733**: Aha! You have come back to me...as expected, of courrrse! Please, share what you have learned.
- **11734**: Wh-what? You saw something that took place centurrries ago?
- **11735**: Such a feat is geomantically impossible!
- **11736**: The farrrthest back I got was fifteen years ago...a vision of my mother relaxing on one of the archipelago's outlying islands.
- **11737**: That alone knocked my socks off, but what you describe is a legendary experience beyond comparrre! Are you just pulling my tail?

## Events

### Event 65535

#### Metadata

| Field        | Value     |
|--------------|-----------|
| Entrypoint   | 0x0000    |
| Data Size    | 149 bytes |
| Instructions | 1         |

```
      00 01 02 03 04 05 06 07  08 09 0A 0B 0C 0D 0E 0F
      -- -- -- -- -- -- -- --  -- -- -- -- -- -- -- --
0000: 00 03 01 00 00 00 02 01  00 00 80 05 16 00 08 01  ................
0010: 00 01 80 01 1B 00 08 01  00 02 80 14 01 00 03 80  ................
0020: 07 01 00 04 80 1B 03 01  00 00 00 02 01 00 00 80  ................
0030: 05 3B 00 08 01 00 01 80  01 40 00 08 01 00 02 80  .;.......@......
0040: 14 01 00 03 80 07 01 00  05 80 1B 03 01 00 00 00  ................
0050: 02 01 00 00 80 05 60 00  08 01 00 01 80 01 65 00  ......`.......e.
0060: 08 01 00 02 80 14 01 00  03 80 07 01 00 06 80 1B  ................
0070: 03 01 00 00 00 02 01 00  00 80 05 85 00 08 01 00  ................
0080: 01 80 01 8A 00 08 01 00  02 80 14 01 00 03 80 07  ................
0090: 01 00 07 80 1B                                    .....           
```

#### Opcodes

```
  0: 0x0000 [0x00] END_REQSTACK()
```

#### Data or dead code:

```
# Dead code (unreachable instructions):
     0x0001 [0x03] ExtData[1]->WorkLocal[1] = ExtData[1]->WorkLocal[0]
     0x0006 [0x02] IF !(ExtData[1]->WorkLocal[1] > 5*) GOTO 0x0016
     0x000E [0x08] ExtData[1]->WorkLocal[1] -= 1*
     0x0013 [0x01] GOTO 0x001B
     0x0016 [0x08] ExtData[1]->WorkLocal[1] -= 2*
     0x001B [0x14] ExtData[1]->WorkLocal[1] *= 10*
     0x0020 [0x07] ExtData[1]->WorkLocal[1] += 9*
     0x0025 [0x1B] RETURN
     0x0026 [0x03] ExtData[1]->WorkLocal[1] = ExtData[1]->WorkLocal[0]
     0x002B [0x02] IF !(ExtData[1]->WorkLocal[1] > 5*) GOTO 0x003B
     0x0033 [0x08] ExtData[1]->WorkLocal[1] -= 1*
     0x0038 [0x01] GOTO 0x0040
     0x003B [0x08] ExtData[1]->WorkLocal[1] -= 2*
     0x0040 [0x14] ExtData[1]->WorkLocal[1] *= 10*
     0x0045 [0x07] ExtData[1]->WorkLocal[1] += 70*
     0x004A [0x1B] RETURN
     0x004B [0x03] ExtData[1]->WorkLocal[1] = ExtData[1]->WorkLocal[0]
     0x0050 [0x02] IF !(ExtData[1]->WorkLocal[1] > 5*) GOTO 0x0060
     0x0058 [0x08] ExtData[1]->WorkLocal[1] -= 1*
     0x005D [0x01] GOTO 0x0065
     0x0060 [0x08] ExtData[1]->WorkLocal[1] -= 2*
     0x0065 [0x14] ExtData[1]->WorkLocal[1] *= 10*
     0x006A [0x07] ExtData[1]->WorkLocal[1] += 140*
     0x006F [0x1B] RETURN
     0x0070 [0x03] ExtData[1]->WorkLocal[1] = ExtData[1]->WorkLocal[0]
     0x0075 [0x02] IF !(ExtData[1]->WorkLocal[1] > 5*) GOTO 0x0085
     0x007D [0x08] ExtData[1]->WorkLocal[1] -= 1*
     0x0082 [0x01] GOTO 0x008A
     0x0085 [0x08] ExtData[1]->WorkLocal[1] -= 2*
     0x008A [0x14] ExtData[1]->WorkLocal[1] *= 10*
     0x008F [0x07] ExtData[1]->WorkLocal[1] += 210*
     0x0094 [0x1B] RETURN
```

### Event 65535.1

#### Metadata

| Field        | Value    |
|--------------|----------|
| Entrypoint   | 0x0095   |
| Data Size    | 16 bytes |
| Instructions | 4        |

```
      00 01 02 03 04 05 06 07  08 09 0A 0B 0C 0D 0E 0F
      -- -- -- -- -- -- -- --  -- -- -- -- -- -- -- --
0090:                6E F8 FF  FF 7F 08 80 99 F8 FF FF       n..........
00A0: 7F 1C 09 80 00                                    .....           
```

#### Opcodes

```
  0: 0x0095 [0x6E] EventEntity uses emote 7*
  1: 0x009C [0x99] Wait for EventEntity animation to complete
  2: 0x00A1 [0x1C] WAIT(60* ticks)
  3: 0x00A4 [0x00] END_REQSTACK()
```

### Event 65535.2

#### Metadata

| Field        | Value    |
|--------------|----------|
| Entrypoint   | 0x00A5   |
| Data Size    | 16 bytes |
| Instructions | 4        |

```
      00 01 02 03 04 05 06 07  08 09 0A 0B 0C 0D 0E 0F
      -- -- -- -- -- -- -- --  -- -- -- -- -- -- -- --
00A0:                6E F8 FF  FF 7F 0A 80 99 F8 FF FF       n..........
00B0: 7F 1C 0B 80 00                                    .....           
```

#### Opcodes

```
  0: 0x00A5 [0x6E] EventEntity uses emote 24*
  1: 0x00AC [0x99] Wait for EventEntity animation to complete
  2: 0x00B1 [0x1C] WAIT(80* ticks)
  3: 0x00B4 [0x00] END_REQSTACK()
```

### Event 65535.3

#### Metadata

| Field        | Value   |
|--------------|---------|
| Entrypoint   | 0x00B5  |
| Data Size    | 5 bytes |
| Instructions | 2       |

```
      00 01 02 03 04 05 06 07  08 09 0A 0B 0C 0D 0E 0F
      -- -- -- -- -- -- -- --  -- -- -- -- -- -- -- --
00B0:                B6 0A 0C  80 00                         .....      
```

#### Opcodes

```
  0: 0x00B5 [0xB6] ENTITY_APPEARANCE_HANDLER(case=Ranged, value=113*)
  1: 0x00B9 [0x00] END_REQSTACK()
```

### Event 65535.4

#### Metadata

| Field        | Value    |
|--------------|----------|
| Entrypoint   | 0x00BA   |
| Data Size    | 46 bytes |
| Instructions | 4        |

```
      00 01 02 03 04 05 06 07  08 09 0A 0B 0C 0D 0E 0F
      -- -- -- -- -- -- -- --  -- -- -- -- -- -- -- --
00B0:                                B6 0B 08 80 0D 80            ......
00C0: 0E 80 0F 80 10 80 11 80  12 80 13 80 0E 80 B6 0B  ................
00D0: 08 80 0D 80 14 80 0F 80  10 80 11 80 12 80 13 80  ................
00E0: 0E 80 80 F8 FF FF 7F 00                           ........        
```

#### Opcodes

```
  0: 0x00BA [0xB6] ENTITY_APPEARANCE_HANDLER(case=Full entity look, race=7*, hair=13*, head=0*, body=268*, hands=20*, legs=31*, feet=209*, main=240*, sub=0*)
  1: 0x00CE [0xB6] ENTITY_APPEARANCE_HANDLER(case=Full entity look, race=7*, hair=13*, head=241*, body=268*, hands=20*, legs=31*, feet=209*, main=240*, sub=0*)
  2: 0x00E2 [0x80] LOAD_WAIT(entity=EventEntity)
  3: 0x00E7 [0x00] END_REQSTACK()
```

### Event 65535.5

#### Metadata

| Field        | Value    |
|--------------|----------|
| Entrypoint   | 0x00E8   |
| Data Size    | 65 bytes |
| Instructions | 8        |

```
      00 01 02 03 04 05 06 07  08 09 0A 0B 0C 0D 0E 0F
      -- -- -- -- -- -- -- --  -- -- -- -- -- -- -- --
00E0:                          BA F8 FF FF 7F 15 80 16          ........
00F0: 80 17 80 0E 80 80 F8 FF  FF 7F 03 00 00 07 7F 1A  ................
0100: 01 00 66 01 00 F8 FF FF  7F F8 FF FF 7F 73 68 61  ..f..........sha
0110: 30 53 F8 FF FF 7F F8 FF  FF 7F 73 68 61 30 79 02  0S........sha0y.
0120: F8 FF FF 7F 18 80 0E 80  00                       .........       
```

#### Opcodes

```
  0: 0x00E8 [0xBA] SET_ENTITY_POSITION(entity_id=EventEntity, pos_x=14.759*, pos_z=8.250*, pos_y=7.999*, direction=0.0°*)
  1: 0x00F5 [0x80] LOAD_WAIT(entity=EventEntity)
  2: 0x00FA [0x03] ExtData[1]->WorkLocal[0] = Entity->Race
  3: 0x00FF [0x1A] CALL_SUBROUTINE(address=0x0001)
  4: 0x0102 [0x66] LOAD_EXT_SCHEDULER_MAIN: Load scheduler "sha0" with entities [EventEntity, EventEntity], work=ExtData[1]->WorkLocal[1]
  5: 0x0111 [0x53] WAIT_SCHEDULER_TASK: Wait for scheduler "sha0" with entities [EventEntity, EventEntity]
  6: 0x011E [0x79] EventEntity looks at Unknown NPC (ID: 2148433944/0x800E8018) (Direct axis set)
  7: 0x0128 [0x00] END_REQSTACK()
```

### Event 65535.6

#### Metadata

| Field        | Value    |
|--------------|----------|
| Entrypoint   | 0x0129   |
| Data Size    | 53 bytes |
| Instructions | 9        |

```
      00 01 02 03 04 05 06 07  08 09 0A 0B 0C 0D 0E 0F
      -- -- -- -- -- -- -- --  -- -- -- -- -- -- -- --
0120:                             03 00 00 07 7F 1A 01           .......
0130: 00 66 01 00 F8 FF FF 7F  F8 FF FF 7F 73 68 61 31  .f..........sha1
0140: 53 F8 FF FF 7F F8 FF FF  7F 73 68 61 31 1C 19 80  S........sha1...
0150: 32 0D 80 1F 00 1A 80 1B  80 17 80 1F 01 00        2.............  
```

#### Opcodes

```
  0: 0x0129 [0x03] ExtData[1]->WorkLocal[0] = Entity->Race
  1: 0x012E [0x1A] CALL_SUBROUTINE(address=0x0001)
  2: 0x0131 [0x66] LOAD_EXT_SCHEDULER_MAIN: Load scheduler "sha1" with entities [EventEntity, EventEntity], work=ExtData[1]->WorkLocal[1]
  3: 0x0140 [0x53] WAIT_SCHEDULER_TASK: Wait for scheduler "sha1" with entities [EventEntity, EventEntity]
  4: 0x014D [0x1C] WAIT(40* ticks)
  5: 0x0150 [0x32] ExtData[1]->MainSpeed = 13* * 0.1
  6: 0x0153 [0x1F] MOVE_ENTITY: EventEntity moves to X=14.581*, Z=10.301*, Y=7.999*
  7: 0x015B [0x1F] MOVE_ENTITY: Update entity position (mode=1)
  8: 0x015D [0x00] END_REQSTACK()
```

### Event 151

#### Metadata

| Field        | Value   |
|--------------|---------|
| Entrypoint   | 0x015E  |
| Data Size    | 1 bytes |
| Instructions | 1       |

```
      00 01 02 03 04 05 06 07  08 09 0A 0B 0C 0D 0E 0F
      -- -- -- -- -- -- -- --  -- -- -- -- -- -- -- --
0150:                                            00                   . 
```

#### Opcodes

```
  0: 0x015E [0x00] END_REQSTACK()
```

### Event 153

#### Metadata

| Field        | Value    |
|--------------|----------|
| Entrypoint   | 0x015F   |
| Data Size    | 98 bytes |
| Instructions | 27       |

```
      00 01 02 03 04 05 06 07  08 09 0A 0B 0C 0D 0E 0F
      -- -- -- -- -- -- -- --  -- -- -- -- -- -- -- --
0150:                                               4A                 J
0160: F0 FF FF 7F 59 70 0F 01  1C 10 80 1E F0 FF FF 7F  ....Yp..........
0170: 1D 1C 80 23 1C 10 80 29  08 F0 FF FF 7F 20 1C 0B  ...#...)..... ..
0180: 80 6E F8 FF FF 7F 1D 80  99 F8 FF FF 7F 1C 1E 80  .n..............
0190: 27 08 F0 FF FF 7F 21 1D  1F 80 1C 20 80 2A 08 F0  '.....!.... .*..
01A0: FF FF 7F 23 1D 21 80 23  6E F8 FF FF 7F 22 80 99  ...#.!.#n...."..
01B0: F8 FF FF 7F 1D 23 80 23  1D 24 80 1C 0B 80 23 21  .....#.#.$....#!
01C0: 00                                                .               
```

#### Opcodes

```
  0: 0x015F [0x4A] LocalPlayer looks at Quwi Orihbhe (ID: 17789017/0x010F7059)
  1: 0x0168 [0x1C] WAIT(20* ticks)
  2: 0x016B [0x1E] EventEntity looks at LocalPlayer and starts talking
  3: 0x0170 [0x1D] PRINT_EVENT_MESSAGE(message_id=11733*)
    → "Aha! You have come back to me...as expected, of courrrse! Please, share what you have learned."
  4: 0x0173 [0x23] WAIT_FOR_DIALOG_INTERACTION
  5: 0x0174 [0x1C] WAIT(20* ticks)
  6: 0x0177 [0x29] REQ_SET_WAIT(priority=0x08, entity_id=LocalPlayer, tag_num=0x20)
  7: 0x017E [0x1C] WAIT(80* ticks)
  8: 0x0181 [0x6E] EventEntity uses emote 29*
  9: 0x0188 [0x99] Wait for EventEntity animation to complete
 10: 0x018D [0x1C] WAIT(30* ticks)
 11: 0x0190 [0x27] REQ_SET(priority=0x08, entity_id=LocalPlayer, tag_num=0x21)
 12: 0x0197 [0x1D] PRINT_EVENT_MESSAGE(message_id=11734*)
    → "Wh-what? You saw something that took place centurrries ago?"
 13: 0x019A [0x1C] WAIT(90* ticks)
 14: 0x019D [0x2A] GET_REQ_LEVEL(level=8, entity_id=LocalPlayer)
 15: 0x01A3 [0x23] WAIT_FOR_DIALOG_INTERACTION
 16: 0x01A4 [0x1D] PRINT_EVENT_MESSAGE(message_id=11735*)
    → "Such a feat is geomantically impossible!"
 17: 0x01A7 [0x23] WAIT_FOR_DIALOG_INTERACTION
 18: 0x01A8 [0x6E] EventEntity uses emote 32*
 19: 0x01AF [0x99] Wait for EventEntity animation to complete
 20: 0x01B4 [0x1D] PRINT_EVENT_MESSAGE(message_id=11736*)
    → "The farrrthest back I got was fifteen years ago...a vision of my mother relaxing on one of the archipelago's outlying islands."
 21: 0x01B7 [0x23] WAIT_FOR_DIALOG_INTERACTION
 22: 0x01B8 [0x1D] PRINT_EVENT_MESSAGE(message_id=11737*)
    → "That alone knocked my socks off, but what you describe is a legendary experience beyond comparrre! Are you just pulling my tail?"
 23: 0x01BB [0x1C] WAIT(80* ticks)
 24: 0x01BE [0x23] WAIT_FOR_DIALOG_INTERACTION
 25: 0x01BF [0x21] END_EVENT
 26: 0x01C0 [0x00] END_REQSTACK()
```

### Event 152

#### Metadata

| Field        | Value    |
|--------------|----------|
| Entrypoint   | 0x01C1   |
| Data Size    | 32 bytes |
| Instructions | 10       |

```
      00 01 02 03 04 05 06 07  08 09 0A 0B 0C 0D 0E 0F
      -- -- -- -- -- -- -- --  -- -- -- -- -- -- -- --
01C0:    4A F0 FF FF 7F 59 70  0F 01 1C 10 80 1E F0 FF   J....Yp........
01D0: FF 7F 03 02 10 25 80 1D  26 80 23 1D 27 80 23 21  .....%..&.#.'.#!
01E0: 00                                                .               
```

#### Opcodes

```
  0: 0x01C1 [0x4A] LocalPlayer looks at Quwi Orihbhe (ID: 17789017/0x010F7059)
  1: 0x01CA [0x1C] WAIT(20* ticks)
  2: 0x01CD [0x1E] EventEntity looks at LocalPlayer and starts talking
  3: 0x01D2 [0x03] Work_Zone[2] = 2614*
  4: 0x01D7 [0x1D] PRINT_EVENT_MESSAGE(message_id=11731*)
    → "Should you stumble across a location pertinent to your search, gently press the box against your forehead."
  5: 0x01DA [0x23] WAIT_FOR_DIALOG_INTERACTION
  6: 0x01DB [0x1D] PRINT_EVENT_MESSAGE(message_id=11732*)
    → "With luck, you should find what you're looking for."
  7: 0x01DE [0x23] WAIT_FOR_DIALOG_INTERACTION
  8: 0x01DF [0x21] END_EVENT
  9: 0x01E0 [0x00] END_REQSTACK()
```

### Event 143

#### Metadata

| Field        | Value    |
|--------------|----------|
| Entrypoint   | 0x01E1   |
| Data Size    | 51 bytes |
| Instructions | 13       |

```
      00 01 02 03 04 05 06 07  08 09 0A 0B 0C 0D 0E 0F
      -- -- -- -- -- -- -- --  -- -- -- -- -- -- -- --
01E0:    4A F0 FF FF 7F 59 70  0F 01 1C 10 80 1E F0 FF   J....Yp........
01F0: FF 7F 2B 59 70 0F 01 28  80 23 2B 59 70 0F 01 29  ..+Yp..(.#+Yp..)
0200: 80 23 2B 59 70 0F 01 2A  80 23 2B 59 70 0F 01 2B  .#+Yp..*.#+Yp..+
0210: 80 23 21 00                                       .#!.            
```

#### Opcodes

```
  0: 0x01E1 [0x4A] LocalPlayer looks at Quwi Orihbhe (ID: 17789017/0x010F7059)
  1: 0x01EA [0x1C] WAIT(20* ticks)
  2: 0x01ED [0x1E] EventEntity looks at LocalPlayer and starts talking
  3: 0x01F2 [0x2B] Quwi Orihbhe (ID: 17789017/0x010F7059) [11635*]:
    → "We've just met, and parrrdon my audacity, but can I maybe call you <Player>?"
  4: 0x01F9 [0x23] WAIT_FOR_DIALOG_INTERACTION
  5: 0x01FA [0x2B] Quwi Orihbhe (ID: 17789017/0x010F7059) [11636*]:
    → "I don't know how I know, either! I'm burrrdened with this uncanny ability to sense everything about a person!"
  6: 0x0201 [0x23] WAIT_FOR_DIALOG_INTERACTION
  7: 0x0202 [0x2B] Quwi Orihbhe (ID: 17789017/0x010F7059) [11637*]:
    → "How rrrude of me! I haven't even told you my name yet and I'm acting like I already know you! I'm Quwi Orihbhe, and I have trrraveled here from Adoulin."
  8: 0x0209 [0x23] WAIT_FOR_DIALOG_INTERACTION
  9: 0x020A [0x2B] Quwi Orihbhe (ID: 17789017/0x010F7059) [11638*]:
    → "Don't look at me like that! I'm not a suspicious person! Well, I may seem suspicious, but I'm a rrregular Mithra! I'm so sorry! Ugh, why must I be cursed with prrrecognition!?"
 10: 0x0211 [0x23] WAIT_FOR_DIALOG_INTERACTION
 11: 0x0212 [0x21] END_EVENT
 12: 0x0213 [0x00] END_REQSTACK()
```

### Event 144

#### Metadata

| Field        | Value     |
|--------------|-----------|
| Entrypoint   | 0x0214    |
| Data Size    | 302 bytes |
| Instructions | 63        |

```
      00 01 02 03 04 05 06 07  08 09 0A 0B 0C 0D 0E 0F
      -- -- -- -- -- -- -- --  -- -- -- -- -- -- -- --
0210:             4A F0 FF FF  7F 59 70 0F 01 1C 10 80      J....Yp.....
0220: 1E F0 FF FF 7F 2B 59 70  0F 01 2A 80 23 66 2C 80  .....+Yp..*.#f,.
0230: 59 70 0F 01 59 70 0F 01  74 6C 6B 30 03 02 10 2D  Yp..Yp..tlk0...-
0240: 80 2B 59 70 0F 01 2E 80  23 2B 59 70 0F 01 2F 80  .+Yp....#+Yp../.
0250: 23 66 2C 80 59 70 0F 01  59 70 0F 01 74 6C 6B 31  #f,.Yp..Yp..tlk1
0260: 2B 59 70 0F 01 30 80 23  03 01 10 0E 80 24 31 80  +Yp..0.#.....$1.
0270: 0E 80 0E 80 25 02 00 10  0E 80 00 2B 03 42 03 02  ....%......+.B..
0280: 10 2D 80 2B 59 70 0F 01  32 80 23 6E F0 FF FF 7F  .-.+Yp..2.#n....
0290: 33 80 99 F0 FF FF 7F 1C  34 80 23 03 03 10 2D 80  3.......4.#...-.
02A0: 03 02 10 02 80 48 35 80  23 03 01 10 01 80 03 02  .....H5.#.......
02B0: 10 2D 80 2B 59 70 0F 01  36 80 23 2B 59 70 0F 01  .-.+Yp..6.#+Yp..
02C0: 37 80 23 2B 59 70 0F 01  38 80 23 2B 59 70 0F 01  7.#+Yp..8.#+Yp..
02D0: 39 80 23 2B 59 70 0F 01  3A 80 23 6E F0 FF FF 7F  9.#+Yp..:.#n....
02E0: 3B 80 99 F0 FF FF 7F 1C  34 80 2B 59 70 0F 01 3C  ;.......4.+Yp..<
02F0: 80 23 66 2C 80 59 70 0F  01 59 70 0F 01 74 68 6B  .#f,.Yp..Yp..thk
0300: 31 2B 59 70 0F 01 3D 80  23 2B 59 70 0F 01 3E 80  1+Yp..=.#+Yp..>.
0310: 23 66 2C 80 59 70 0F 01  59 70 0F 01 74 68 6B 32  #f,.Yp..Yp..thk2
0320: 2B 59 70 0F 01 3F 80 23  01 40 03 02 00 10 01 80  +Yp..?.#.@......
0330: 00 40 03 2B 59 70 0F 01  40 80 23 21 00 01 40 03  .@.+Yp..@.#!..@.
0340: 21 00                                             !.              
```

#### Opcodes

```
  0: 0x0214 [0x4A] LocalPlayer looks at Quwi Orihbhe (ID: 17789017/0x010F7059)
  1: 0x021D [0x1C] WAIT(20* ticks)
  2: 0x0220 [0x1E] EventEntity looks at LocalPlayer and starts talking
  3: 0x0225 [0x2B] Quwi Orihbhe (ID: 17789017/0x010F7059) [11637*]:
    → "How rrrude of me! I haven't even told you my name yet and I'm acting like I already know you! I'm Quwi Orihbhe, and I have trrraveled here from Adoulin."
  4: 0x022C [0x23] WAIT_FOR_DIALOG_INTERACTION
  5: 0x022D [0x66] LOAD_EXT_SCHEDULER_MAIN: Load scheduler "tlk0" with entities [Quwi Orihbhe (ID: 17789017/0x010F7059), Quwi Orihbhe (ID: 17789017/0x010F7059)], work=59*
  6: 0x023C [0x03] Work_Zone[2] = 2166*
  7: 0x0241 [0x2B] Quwi Orihbhe (ID: 17789017/0x010F7059) [11639*]:
    → "I don't mean to be brrrash, but is that $6 you're carrying?"
  8: 0x0248 [0x23] WAIT_FOR_DIALOG_INTERACTION
  9: 0x0249 [0x2B] Quwi Orihbhe (ID: 17789017/0x010F7059) [11640*]:
    → "Please don't think I'm trying to steal your thunder, but I've already sealed the geomagnetic forces of this rrregion into a single location! I'm so sorry!"
 10: 0x0250 [0x23] WAIT_FOR_DIALOG_INTERACTION
 11: 0x0251 [0x66] LOAD_EXT_SCHEDULER_MAIN: Load scheduler "tlk1" with entities [Quwi Orihbhe (ID: 17789017/0x010F7059), Quwi Orihbhe (ID: 17789017/0x010F7059)], work=59*
 12: 0x0260 [0x2B] Quwi Orihbhe (ID: 17789017/0x010F7059) [11641*]:
    → "Do you want to...rrrecord this place for future use?"
 13: 0x0267 [0x23] WAIT_FOR_DIALOG_INTERACTION
 14: 0x0268 [0x03] Work_Zone[1] = 0*
 15: 0x026D [0x24] CREATE_DIALOG(message_id=11698*, default_option=0*, option_flags=0*)
    → "Record this fount? [Yes./No.]"
 16: 0x0274 [0x25] WAIT_DIALOG_SELECT()
 17: 0x0275 [0x02] IF !(Work_Zone[0] == 0*) GOTO 0x032B
 18: 0x027D [0x42] SET_CLI_EVENT_CANCEL_DATA()
 19: 0x027E [0x03] Work_Zone[2] = 2166*
 20: 0x0283 [0x2B] Quwi Orihbhe (ID: 17789017/0x010F7059) [11643*]:
    → "I knew you'd say yes! I just knew it! Wait...I remember this part! Next you're going to position your $3 over the grrround here."
 21: 0x028A [0x23] WAIT_FOR_DIALOG_INTERACTION
 22: 0x028B [0x6E] LocalPlayer uses emote 3*
 23: 0x0292 [0x99] Wait for LocalPlayer animation to complete
 24: 0x0297 [0x1C] WAIT(120* ticks)
 25: 0x029A [0x23] WAIT_FOR_DIALOG_INTERACTION
 26: 0x029B [0x03] Work_Zone[3] = 2166*
 27: 0x02A0 [0x03] Work_Zone[2] = 2*
 28: 0x02A5 [0x48] [System] [11703*]:
    → "Your $3 has been attuned to a geomagnetic fount[ in Selbina/ in Mhaura/ in Rabao/ in Norg]!"
 29: 0x02A8 [0x23] WAIT_FOR_DIALOG_INTERACTION
 30: 0x02A9 [0x03] Work_Zone[1] = 1*
 31: 0x02AE [0x03] Work_Zone[2] = 2166*
 32: 0x02B3 [0x2B] Quwi Orihbhe (ID: 17789017/0x010F7059) [11644*]:
    → "The prrrophecy has been fulfilled! I saw <Player> complete this procedure with my mind's eye not moments ago, and now it comes true before my verrry eyes!"
 33: 0x02BA [0x23] WAIT_FOR_DIALOG_INTERACTION
 34: 0x02BB [0x2B] Quwi Orihbhe (ID: 17789017/0x010F7059) [11645*]:
    → "I oversee this waypoint, so come by any time! If only it didn't have to be me! You deserrrve better, <Player>!"
 35: 0x02C2 [0x23] WAIT_FOR_DIALOG_INTERACTION
 36: 0x02C3 [0x2B] Quwi Orihbhe (ID: 17789017/0x010F7059) [11646*]:
    → "To tell the truth...I've been dispatched to this continent to investigate these concentrrrations of geomagnetic force."
 37: 0x02CA [0x23] WAIT_FOR_DIALOG_INTERACTION
 38: 0x02CB [0x2B] Quwi Orihbhe (ID: 17789017/0x010F7059) [11647*]:
    → "It's all just too much for a poor tyrrro like me! I can't take it anymore! I'm sorry!"
 39: 0x02D2 [0x23] WAIT_FOR_DIALOG_INTERACTION
 40: 0x02D3 [0x2B] Quwi Orihbhe (ID: 17789017/0x010F7059) [11648*]:
    → "I was told to report to Master Anastase when I forrresee one of those points, but I forget the prrrotocol! I wasn't paying attention during our brrriefing!"
 41: 0x02DA [0x23] WAIT_FOR_DIALOG_INTERACTION
 42: 0x02DB [0x6E] LocalPlayer uses emote 34*
 43: 0x02E2 [0x99] Wait for LocalPlayer animation to complete
 44: 0x02E7 [0x1C] WAIT(120* ticks)
 45: 0x02EA [0x2B] Quwi Orihbhe (ID: 17789017/0x010F7059) [11649*]:
    → "...No! You can't be serious! Anastase wants me to rrreport in rrright away!?"
 46: 0x02F1 [0x23] WAIT_FOR_DIALOG_INTERACTION
 47: 0x02F2 [0x66] LOAD_EXT_SCHEDULER_MAIN: Load scheduler "thk1" with entities [Quwi Orihbhe (ID: 17789017/0x010F7059), Quwi Orihbhe (ID: 17789017/0x010F7059)], work=59*
 48: 0x0301 [0x2B] Quwi Orihbhe (ID: 17789017/0x010F7059) [11650*]:
    → "Woe is me..."
 49: 0x0308 [0x23] WAIT_FOR_DIALOG_INTERACTION
 50: 0x0309 [0x2B] Quwi Orihbhe (ID: 17789017/0x010F7059) [11651*]:
    → "Aha, I can see it! A vision is coming to me! My stomach shall begin to rrrumble in mere moments."
 51: 0x0310 [0x23] WAIT_FOR_DIALOG_INTERACTION
 52: 0x0311 [0x66] LOAD_EXT_SCHEDULER_MAIN: Load scheduler "thk2" with entities [Quwi Orihbhe (ID: 17789017/0x010F7059), Quwi Orihbhe (ID: 17789017/0x010F7059)], work=59*
 53: 0x0320 [0x2B] Quwi Orihbhe (ID: 17789017/0x010F7059) [11652*]:
    → "Therefore, how about you rrreport to Anastase in my stead? I have seen with my mind's eye that you're the rrreliable type."
 54: 0x0327 [0x23] WAIT_FOR_DIALOG_INTERACTION
 55: 0x0328 [0x01] GOTO 0x0340
 56: 0x032B [0x02] IF !(Work_Zone[0] == 1*) GOTO 0x0340
 57: 0x0333 [0x2B] Quwi Orihbhe (ID: 17789017/0x010F7059) [11642*]:
    → "Whaaat!? "No"!? But you will eventually! I've seen it in my drrreams!"
 58: 0x033A [0x23] WAIT_FOR_DIALOG_INTERACTION
 59: 0x033B [0x21] END_EVENT
 60: 0x033C [0x00] END_REQSTACK()

SUBROUTINE_0340:
 61: 0x0340 [0x21] END_EVENT
 62: 0x0341 [0x00] END_REQSTACK()
```

#### Data or dead code:

```
# Dead code (unreachable instructions):
     0x033D [0x01] GOTO 0x0340
```

### Event 145

#### Metadata

| Field        | Value    |
|--------------|----------|
| Entrypoint   | 0x0342   |
| Data Size    | 27 bytes |
| Instructions | 7        |

```
      00 01 02 03 04 05 06 07  08 09 0A 0B 0C 0D 0E 0F
      -- -- -- -- -- -- -- --  -- -- -- -- -- -- -- --
0340:       4A F0 FF FF 7F 59  70 0F 01 1C 10 80 1E F0    J....Yp.......
0350: FF FF 7F 2B 59 70 0F 01  41 80 23 21 00           ...+Yp..A.#!.   
```

#### Opcodes

```
  0: 0x0342 [0x4A] LocalPlayer looks at Quwi Orihbhe (ID: 17789017/0x010F7059)
  1: 0x034B [0x1C] WAIT(20* ticks)
  2: 0x034E [0x1E] EventEntity looks at LocalPlayer and starts talking
  3: 0x0353 [0x2B] Quwi Orihbhe (ID: 17789017/0x010F7059) [11653*]:
    → "You have my eterrrnal gratitude. I will say with ninety perrrcent certainty that you'll embark upon a long and arrrduous journey. Just remember that sometimes it's nice to stop and smell the oasis."
  4: 0x035A [0x23] WAIT_FOR_DIALOG_INTERACTION
  5: 0x035B [0x21] END_EVENT
  6: 0x035C [0x00] END_REQSTACK()
```

### Event 146

#### Metadata

| Field        | Value    |
|--------------|----------|
| Entrypoint   | 0x035D   |
| Data Size    | 27 bytes |
| Instructions | 7        |

```
      00 01 02 03 04 05 06 07  08 09 0A 0B 0C 0D 0E 0F
      -- -- -- -- -- -- -- --  -- -- -- -- -- -- -- --
0350:                                         4A F0 FF               J..
0360: FF 7F 59 70 0F 01 1C 10  80 1E F0 FF FF 7F 2B 59  ..Yp..........+Y
0370: 70 0F 01 42 80 23 21 00                           p..B.#!.        
```

#### Opcodes

```
  0: 0x035D [0x4A] LocalPlayer looks at Quwi Orihbhe (ID: 17789017/0x010F7059)
  1: 0x0366 [0x1C] WAIT(20* ticks)
  2: 0x0369 [0x1E] EventEntity looks at LocalPlayer and starts talking
  3: 0x036E [0x2B] Quwi Orihbhe (ID: 17789017/0x010F7059) [11654*]:
    → "My mind's eye had shown me thirty seconds prrrior to your arrival that you would appear."
  4: 0x0375 [0x23] WAIT_FOR_DIALOG_INTERACTION
  5: 0x0376 [0x21] END_EVENT
  6: 0x0377 [0x00] END_REQSTACK()
```

### Event 147

#### Metadata

| Field        | Value    |
|--------------|----------|
| Entrypoint   | 0x0378   |
| Data Size    | 33 bytes |
| Instructions | 9        |

```
      00 01 02 03 04 05 06 07  08 09 0A 0B 0C 0D 0E 0F
      -- -- -- -- -- -- -- --  -- -- -- -- -- -- -- --
0370:                          42 4A F0 FF FF 7F 59 70          BJ....Yp
0380: 0F 01 1C 10 80 1E F0 FF  FF 7F 03 02 10 43 80 2B  .............C.+
0390: 59 70 0F 01 44 80 23 21  00                       Yp..D.#!.       
```

#### Opcodes

```
  0: 0x0378 [0x42] SET_CLI_EVENT_CANCEL_DATA()
  1: 0x0379 [0x4A] LocalPlayer looks at Quwi Orihbhe (ID: 17789017/0x010F7059)
  2: 0x0382 [0x1C] WAIT(20* ticks)
  3: 0x0385 [0x1E] EventEntity looks at LocalPlayer and starts talking
  4: 0x038A [0x03] Work_Zone[2] = 5940*
  5: 0x038F [0x2B] Quwi Orihbhe (ID: 17789017/0x010F7059) [11655*]:
    → "Yay! How did you know I love $0? Can you rrread minds, too?"
  6: 0x0396 [0x23] WAIT_FOR_DIALOG_INTERACTION
  7: 0x0397 [0x21] END_EVENT
  8: 0x0398 [0x00] END_REQSTACK()
```

### Event 148

#### Metadata

| Field        | Value    |
|--------------|----------|
| Entrypoint   | 0x0399   |
| Data Size    | 41 bytes |
| Instructions | 11       |

```
      00 01 02 03 04 05 06 07  08 09 0A 0B 0C 0D 0E 0F
      -- -- -- -- -- -- -- --  -- -- -- -- -- -- -- --
0390:                             42 4A F0 FF FF 7F 59           BJ....Y
03A0: 70 0F 01 1C 10 80 1E F0  FF FF 7F 03 02 10 43 80  p.............C.
03B0: 2B 59 70 0F 01 44 80 23  2B 59 70 0F 01 45 80 23  +Yp..D.#+Yp..E.#
03C0: 21 00                                             !.              
```

#### Opcodes

```
  0: 0x0399 [0x42] SET_CLI_EVENT_CANCEL_DATA()
  1: 0x039A [0x4A] LocalPlayer looks at Quwi Orihbhe (ID: 17789017/0x010F7059)
  2: 0x03A3 [0x1C] WAIT(20* ticks)
  3: 0x03A6 [0x1E] EventEntity looks at LocalPlayer and starts talking
  4: 0x03AB [0x03] Work_Zone[2] = 5940*
  5: 0x03B0 [0x2B] Quwi Orihbhe (ID: 17789017/0x010F7059) [11655*]:
    → "Yay! How did you know I love $0? Can you rrread minds, too?"
  6: 0x03B7 [0x23] WAIT_FOR_DIALOG_INTERACTION
  7: 0x03B8 [0x2B] Quwi Orihbhe (ID: 17789017/0x010F7059) [11656*]:
    → "My sincerrrest apologies, <Player>! I prrredict you're getting hungry watching me eat. Here, have this."
  8: 0x03BF [0x23] WAIT_FOR_DIALOG_INTERACTION
  9: 0x03C0 [0x21] END_EVENT
 10: 0x03C1 [0x00] END_REQSTACK()
```

### Event 149

#### Metadata

| Field        | Value    |
|--------------|----------|
| Entrypoint   | 0x03C2   |
| Data Size    | 33 bytes |
| Instructions | 9        |

```
      00 01 02 03 04 05 06 07  08 09 0A 0B 0C 0D 0E 0F
      -- -- -- -- -- -- -- --  -- -- -- -- -- -- -- --
03C0:       42 4A F0 FF FF 7F  59 70 0F 01 1C 10 80 1E    BJ....Yp......
03D0: F0 FF FF 7F 03 02 10 43  80 2B 59 70 0F 01 45 80  .......C.+Yp..E.
03E0: 23 21 00                                          #!.             
```

#### Opcodes

```
  0: 0x03C2 [0x42] SET_CLI_EVENT_CANCEL_DATA()
  1: 0x03C3 [0x4A] LocalPlayer looks at Quwi Orihbhe (ID: 17789017/0x010F7059)
  2: 0x03CC [0x1C] WAIT(20* ticks)
  3: 0x03CF [0x1E] EventEntity looks at LocalPlayer and starts talking
  4: 0x03D4 [0x03] Work_Zone[2] = 5940*
  5: 0x03D9 [0x2B] Quwi Orihbhe (ID: 17789017/0x010F7059) [11656*]:
    → "My sincerrrest apologies, <Player>! I prrredict you're getting hungry watching me eat. Here, have this."
  6: 0x03E0 [0x23] WAIT_FOR_DIALOG_INTERACTION
  7: 0x03E1 [0x21] END_EVENT
  8: 0x03E2 [0x00] END_REQSTACK()
```

### Event 150

#### Metadata

| Field        | Value    |
|--------------|----------|
| Entrypoint   | 0x03E3   |
| Data Size    | 29 bytes |
| Instructions | 13       |

```
      00 01 02 03 04 05 06 07  08 09 0A 0B 0C 0D 0E 0F
      -- -- -- -- -- -- -- --  -- -- -- -- -- -- -- --
03E0:          42 1E F0 FF FF  7F 1D 46 80 23 1D 47 80     B......F.#.G.
03F0: 23 1D 48 80 23 1D 49 80  23 03 01 10 01 80 21 00  #.H.#.I.#.....!.
```

#### Opcodes

```
  0: 0x03E3 [0x42] SET_CLI_EVENT_CANCEL_DATA()
  1: 0x03E4 [0x1E] EventEntity looks at LocalPlayer and starts talking
  2: 0x03E9 [0x1D] PRINT_EVENT_MESSAGE(message_id=11657*)
    → "Yes...everything is as forrreseen. Your arrival here was no accident."
  3: 0x03EC [0x23] WAIT_FOR_DIALOG_INTERACTION
  4: 0x03ED [0x1D] PRINT_EVENT_MESSAGE(message_id=11658*)
    → "And I know what you are going to tell me--Anastase wants a rrreport. Tell him that I will contact him once I have better results."
  5: 0x03F0 [0x23] WAIT_FOR_DIALOG_INTERACTION
  6: 0x03F1 [0x1D] PRINT_EVENT_MESSAGE(message_id=11659*)
    → "You brought some Adoulin cuisine for me? This was certainly unexpec--I mean, well within the rrrealm of the predictable."
  7: 0x03F4 [0x23] WAIT_FOR_DIALOG_INTERACTION
  8: 0x03F5 [0x1D] PRINT_EVENT_MESSAGE(message_id=11660*)
    → "My whiskerrrs are just quivering with anticipation! Thank you very much!"
  9: 0x03F8 [0x23] WAIT_FOR_DIALOG_INTERACTION
 10: 0x03F9 [0x03] Work_Zone[1] = 1*
 11: 0x03FE [0x21] END_EVENT
 12: 0x03FF [0x00] END_REQSTACK()
```

### Event 65535.7

#### Metadata

| Field        | Value    |
|--------------|----------|
| Entrypoint   | 0x0400   |
| Data Size    | 16 bytes |
| Instructions | 2        |

```
      00 01 02 03 04 05 06 07  08 09 0A 0B 0C 0D 0E 0F
      -- -- -- -- -- -- -- --  -- -- -- -- -- -- -- --
0400: 66 2C 80 F8 FF FF 7F F8  FF FF 7F 74 6C 6B 30 00  f,.........tlk0.
```

#### Opcodes

```
  0: 0x0400 [0x66] LOAD_EXT_SCHEDULER_MAIN: Load scheduler "tlk0" with entities [EventEntity, EventEntity], work=59*
  1: 0x040F [0x00] END_REQSTACK()
```

### Event 65535.8

#### Metadata

| Field        | Value    |
|--------------|----------|
| Entrypoint   | 0x0410   |
| Data Size    | 14 bytes |
| Instructions | 2        |

```
      00 01 02 03 04 05 06 07  08 09 0A 0B 0C 0D 0E 0F
      -- -- -- -- -- -- -- --  -- -- -- -- -- -- -- --
0410: 53 F8 FF FF 7F F8 FF FF  7F 74 6C 6B 30 00        S........tlk0.  
```

#### Opcodes

```
  0: 0x0410 [0x53] WAIT_SCHEDULER_TASK: Wait for scheduler "tlk0" with entities [EventEntity, EventEntity]
  1: 0x041D [0x00] END_REQSTACK()
```

### Event 65535.9

#### Metadata

| Field        | Value    |
|--------------|----------|
| Entrypoint   | 0x041E   |
| Data Size    | 16 bytes |
| Instructions | 2        |

```
      00 01 02 03 04 05 06 07  08 09 0A 0B 0C 0D 0E 0F
      -- -- -- -- -- -- -- --  -- -- -- -- -- -- -- --
0410:                                            66 2C                f,
0420: 80 F8 FF FF 7F F8 FF FF  7F 74 6C 6B 31 00        .........tlk1.  
```

#### Opcodes

```
  0: 0x041E [0x66] LOAD_EXT_SCHEDULER_MAIN: Load scheduler "tlk1" with entities [EventEntity, EventEntity], work=59*
  1: 0x042D [0x00] END_REQSTACK()
```

### Event 65535.10

#### Metadata

| Field        | Value    |
|--------------|----------|
| Entrypoint   | 0x042E   |
| Data Size    | 14 bytes |
| Instructions | 2        |

```
      00 01 02 03 04 05 06 07  08 09 0A 0B 0C 0D 0E 0F
      -- -- -- -- -- -- -- --  -- -- -- -- -- -- -- --
0420:                                            53 F8                S.
0430: FF FF 7F F8 FF FF 7F 74  6C 6B 31 00              .......tlk1.    
```

#### Opcodes

```
  0: 0x042E [0x53] WAIT_SCHEDULER_TASK: Wait for scheduler "tlk1" with entities [EventEntity, EventEntity]
  1: 0x043B [0x00] END_REQSTACK()
```

### Event 65535.11

#### Metadata

| Field        | Value    |
|--------------|----------|
| Entrypoint   | 0x043C   |
| Data Size    | 16 bytes |
| Instructions | 2        |

```
      00 01 02 03 04 05 06 07  08 09 0A 0B 0C 0D 0E 0F
      -- -- -- -- -- -- -- --  -- -- -- -- -- -- -- --
0430:                                      66 2C 80 F8              f,..
0440: FF FF 7F F8 FF FF 7F 74  68 6B 31 00              .......thk1.    
```

#### Opcodes

```
  0: 0x043C [0x66] LOAD_EXT_SCHEDULER_MAIN: Load scheduler "thk1" with entities [EventEntity, EventEntity], work=59*
  1: 0x044B [0x00] END_REQSTACK()
```

### Event 65535.12

#### Metadata

| Field        | Value    |
|--------------|----------|
| Entrypoint   | 0x044C   |
| Data Size    | 14 bytes |
| Instructions | 2        |

```
      00 01 02 03 04 05 06 07  08 09 0A 0B 0C 0D 0E 0F
      -- -- -- -- -- -- -- --  -- -- -- -- -- -- -- --
0440:                                      53 F8 FF FF              S...
0450: 7F F8 FF FF 7F 74 68 6B  31 00                    .....thk1.      
```

#### Opcodes

```
  0: 0x044C [0x53] WAIT_SCHEDULER_TASK: Wait for scheduler "thk1" with entities [EventEntity, EventEntity]
  1: 0x0459 [0x00] END_REQSTACK()
```

### Event 65535.13

#### Metadata

| Field        | Value    |
|--------------|----------|
| Entrypoint   | 0x045A   |
| Data Size    | 16 bytes |
| Instructions | 2        |

```
      00 01 02 03 04 05 06 07  08 09 0A 0B 0C 0D 0E 0F
      -- -- -- -- -- -- -- --  -- -- -- -- -- -- -- --
0450:                                66 2C 80 F8 FF FF            f,....
0460: 7F F8 FF FF 7F 74 68 6B  32 00                    .....thk2.      
```

#### Opcodes

```
  0: 0x045A [0x66] LOAD_EXT_SCHEDULER_MAIN: Load scheduler "thk2" with entities [EventEntity, EventEntity], work=59*
  1: 0x0469 [0x00] END_REQSTACK()
```

### Event 65535.14

#### Metadata

| Field        | Value    |
|--------------|----------|
| Entrypoint   | 0x046A   |
| Data Size    | 14 bytes |
| Instructions | 2        |

```
      00 01 02 03 04 05 06 07  08 09 0A 0B 0C 0D 0E 0F
      -- -- -- -- -- -- -- --  -- -- -- -- -- -- -- --
0460:                                53 F8 FF FF 7F F8            S.....
0470: FF FF 7F 74 68 6B 32 00                           ...thk2.        
```

#### Opcodes

```
  0: 0x046A [0x53] WAIT_SCHEDULER_TASK: Wait for scheduler "thk2" with entities [EventEntity, EventEntity]
  1: 0x0477 [0x00] END_REQSTACK()
```

### Event 65535.15

#### Metadata

| Field        | Value   |
|--------------|---------|
| Entrypoint   | 0x0478  |
| Data Size    | 9 bytes |
| Instructions | 3       |

```
      00 01 02 03 04 05 06 07  08 09 0A 0B 0C 0D 0E 0F
      -- -- -- -- -- -- -- --  -- -- -- -- -- -- -- --
0470:                          5E 69 64 6C 30 1C 09 80          ^idl0...
0480: 00                                                .               
```

#### Opcodes

```
  0: 0x0478 [0x5E] EventEntity goes idle (kills current action) (animation: "idl0")
  1: 0x047D [0x1C] WAIT(60* ticks)
  2: 0x0480 [0x00] END_REQSTACK()
```
