# 0x7FFFFFF0 - Zone Events

## Common Data

| Field            | Value           |
|------------------|-----------------|
| Zone             | Rabao (ID: 247) |
| Block Size       | 4772 bytes      |
| Total Events     | 42              |
| References Count | 173             |

## List of Events

| Event ID                   | Entrypoint   |   Size |   Instructions |
|----------------------------|--------------|--------|----------------|
| [65535](#event-65535)      | 0x0000       |      1 |              1 |
| [65534](#event-65534)      | 0x0001       |      1 |              1 |
| [65535.1](#event-655351)   | 0x0002       |     27 |              5 |
| [65535.2](#event-655352)   | 0x001D       |     24 |              4 |
| [65535.3](#event-655353)   | 0x0035       |     37 |              5 |
| [65535.4](#event-655354)   | 0x005A       |     37 |              5 |
| [65535.5](#event-655355)   | 0x007F       |     10 |              2 |
| [65535.6](#event-655356)   | 0x0089       |     10 |              2 |
| [65535.7](#event-655357)   | 0x0093       |     10 |              2 |
| [102](#event-102)          | 0x009D       |    828 |            101 |
| [104](#event-104)          | 0x03D9       |   1472 |            182 |
| [65535.8](#event-655358)   | 0x0999       |    121 |             19 |
| [65535.9](#event-655359)   | 0x0A12       |     10 |              2 |
| [65535.10](#event-6553510) | 0x0A1C       |     27 |              6 |
| [65535.11](#event-6553511) | 0x0A37       |      6 |              2 |
| [65535.12](#event-6553512) | 0x0A3D       |     10 |              2 |
| [65535.13](#event-6553513) | 0x0A47       |     10 |              2 |
| [65535.14](#event-6553514) | 0x0A51       |     10 |              2 |
| [65535.15](#event-6553515) | 0x0A5B       |     10 |              2 |
| [65535.16](#event-6553516) | 0x0A65       |     10 |              2 |
| [65535.17](#event-6553517) | 0x0A6F       |      6 |              2 |
| [65535.18](#event-6553518) | 0x0A75       |      6 |              2 |
| [65535.19](#event-6553519) | 0x0A7B       |      6 |              2 |
| [65535.20](#event-6553520) | 0x0A81       |     10 |              2 |
| [65535.21](#event-6553521) | 0x0A8B       |     24 |              4 |
| [65535.22](#event-6553522) | 0x0AA3       |     24 |              4 |
| [65535.23](#event-6553523) | 0x0ABB       |     37 |              5 |
| [65535.24](#event-6553524) | 0x0AE0       |     37 |              5 |
| [65535.25](#event-6553525) | 0x0B05       |    190 |             38 |
| [56](#event-56)            | 0x0BC3       |     55 |             13 |
| [65535.26](#event-6553526) | 0x0BFA       |     27 |              3 |
| [65535.27](#event-6553527) | 0x0C15       |     14 |              4 |
| [65535.28](#event-6553528) | 0x0C23       |     29 |              5 |
| [65535.29](#event-6553529) | 0x0C40       |     29 |              5 |
| [65535.30](#event-6553530) | 0x0C5D       |     19 |              5 |
| [65535.31](#event-6553531) | 0x0C70       |    353 |             41 |
| [65535.32](#event-6553532) | 0x0DD1       |    212 |             26 |
| [65535.33](#event-6553533) | 0x0EA5       |     30 |              5 |
| [65535.34](#event-6553534) | 0x0EC3       |     43 |              6 |
| [65535.35](#event-6553535) | 0x0EEE       |     15 |              5 |
| [173](#event-173)          | 0x0EFD       |     43 |              7 |
| [65535.36](#event-6553536) | 0x0F28       |     15 |              5 |

## DAT References (imed_data)

|   Index | Hex Value   |   Dec Value |
|---------|-------------|-------------|
|       0 | 0xFFFF3D6C  |  4294917484 |
|       1 | 0x9873      |       39027 |
|       2 | 0x1F3F      |        7999 |
|       3 | 0x0BD9      |        3033 |
|       4 | 0xFFFF465B  |  4294919771 |
|       5 | 0x9A95      |       39573 |
|       6 | 0x1F40      |        8000 |
|       7 | 0x098A      |        2442 |
|       8 | 0xFFFFFFCC  |  4294967244 |
|       9 | 0x121B6     |       74166 |
|      10 | 0x1F9A      |        8090 |
|      11 | 0x0A1A      |        2586 |
|      12 | 0x01DD      |         477 |
|      13 | 0x00C8      |         200 |
|      14 | 0x0000      |           0 |
|      15 | 0x0003      |           3 |
|      16 | 0x24EF      |        9455 |
|      17 | 0x144B9     |       83129 |
|      18 | 0x064F      |        1615 |
|      19 | 0x00DB      |         219 |
|      20 | 0x000A      |          10 |
|      21 | 0x286C      |       10348 |
|      22 | 0x003C      |          60 |
|      23 | 0x286D      |       10349 |
|      24 | 0x0001      |           1 |
|      25 | 0x286E      |       10350 |
|      26 | 0x286F      |       10351 |
|      27 | 0x2870      |       10352 |
|      28 | 0x2871      |       10353 |
|      29 | 0x2872      |       10354 |
|      30 | 0x009B      |         155 |
|      31 | 0x2873      |       10355 |
|      32 | 0x2874      |       10356 |
|      33 | 0x2875      |       10357 |
|      34 | 0x2876      |       10358 |
|      35 | 0x0045      |          69 |
|      36 | 0x2877      |       10359 |
|      37 | 0x0651      |        1617 |
|      38 | 0x2878      |       10360 |
|      39 | 0x2879      |       10361 |
|      40 | 0x287A      |       10362 |
|      41 | 0x287B      |       10363 |
|      42 | 0x287C      |       10364 |
|      43 | 0x287D      |       10365 |
|      44 | 0x287E      |       10366 |
|      45 | 0x287F      |       10367 |
|      46 | 0x2880      |       10368 |
|      47 | 0x2881      |       10369 |
|      48 | 0x2882      |       10370 |
|      49 | 0x00B4      |         180 |
|      50 | 0x2883      |       10371 |
|      51 | 0x2884      |       10372 |
|      52 | 0x2885      |       10373 |
|      53 | 0x2886      |       10374 |
|      54 | 0x2887      |       10375 |
|      55 | 0x2888      |       10376 |
|      56 | 0x2889      |       10377 |
|      57 | 0x288A      |       10378 |
|      58 | 0x007A      |         122 |
|      59 | 0x288B      |       10379 |
|      60 | 0x288C      |       10380 |
|      61 | 0x288D      |       10381 |
|      62 | 0x0078      |         120 |
|      63 | 0x0028      |          40 |
|      64 | 0x00C9      |         201 |
|      65 | 0x288E      |       10382 |
|      66 | 0x288F      |       10383 |
|      67 | 0x2890      |       10384 |
|      68 | 0x2891      |       10385 |
|      69 | 0x005A      |          90 |
|      70 | 0x2892      |       10386 |
|      71 | 0x009C      |         156 |
|      72 | 0x2893      |       10387 |
|      73 | 0x2894      |       10388 |
|      74 | 0x2895      |       10389 |
|      75 | 0x2896      |       10390 |
|      76 | 0x2897      |       10391 |
|      77 | 0x2898      |       10392 |
|      78 | 0x2899      |       10393 |
|      79 | 0x289A      |       10394 |
|      80 | 0x289B      |       10395 |
|      81 | 0x289C      |       10396 |
|      82 | 0x289D      |       10397 |
|      83 | 0x289E      |       10398 |
|      84 | 0x289F      |       10399 |
|      85 | 0x28A0      |       10400 |
|      86 | 0x28A1      |       10401 |
|      87 | 0x28A2      |       10402 |
|      88 | 0x28A3      |       10403 |
|      89 | 0x28A4      |       10404 |
|      90 | 0x28A5      |       10405 |
|      91 | 0x28A6      |       10406 |
|      92 | 0x28A7      |       10407 |
|      93 | 0x001E      |          30 |
|      94 | 0x28A8      |       10408 |
|      95 | 0x28A9      |       10409 |
|      96 | 0x0096      |         150 |
|      97 | 0x00D0      |         208 |
|      98 | 0x17FB2     |       98226 |
|      99 | 0xFFFE8427  |  4294870055 |
|     100 | 0xFFFFC951  |  4294953297 |
|     101 | 0x00D1      |         209 |
|     102 | 0x8A3C      |       35388 |
|     103 | 0xFFFF5FB6  |  4294926262 |
|     104 | 0x1D4B      |        7499 |
|     105 | 0x07D5      |        2005 |
|     106 | 0x0002      |           2 |
|     107 | 0xFFFFC977  |  4294953335 |
|     108 | 0xFFFFAF27  |  4294946599 |
|     109 | 0x0449      |        1097 |
|     110 | 0x0FC1      |        4033 |
|     111 | 0xFFFFBA31  |  4294949425 |
|     112 | 0xFFFFD2B5  |  4294955701 |
|     113 | 0x1DE4      |        7652 |
|     114 | 0x0108      |         264 |
|     115 | 0x0004      |           4 |
|     116 | 0xFFFD2886  |  4294781062 |
|     117 | 0x1A773     |      108403 |
|     118 | 0x095F      |        2399 |
|     119 | 0x0005      |           5 |
|     120 | 0x72BA      |       29370 |
|     121 | 0xDF91      |       57233 |
|     122 | 0xFFFFC246  |  4294951494 |
|     123 | 0x0314      |         788 |
|     124 | 0x55DE      |       21982 |
|     125 | 0x7561      |       30049 |
|     126 | 0xFFFFB926  |  4294949158 |
|     127 | 0x0D48      |        3400 |
|     128 | 0xFFFFBA9A  |  4294949530 |
|     129 | 0xFFFFD177  |  4294955383 |
|     130 | 0x1DDD      |        7645 |
|     131 | 0x000F      |          15 |
|     132 | 0x1DB2A     |      121642 |
|     133 | 0xCCF0      |       52464 |
|     134 | 0x04E0      |        1248 |
|     135 | 0xFFFF566C  |  4294923884 |
|     136 | 0x144BA     |       83130 |
|     137 | 0x04D5      |        1237 |
|     138 | 0xFFFF508A  |  4294922378 |
|     139 | 0x14620     |       83488 |
|     140 | 0x0089      |         137 |
|     141 | 0x0009      |           9 |
|     142 | 0x0046      |          70 |
|     143 | 0x008C      |         140 |
|     144 | 0x00D2      |         210 |
|     145 | 0x274E      |       10062 |
|     146 | 0x000D      |          13 |
|     147 | 0x3F6B      |       16235 |
|     148 | 0x2019      |        8217 |
|     149 | 0xFFFF8AD0  |  4294937296 |
|     150 | 0x846C      |       33900 |
|     151 | 0x1F72      |        8050 |
|     152 | 0x0095      |         149 |
|     153 | 0x009F      |         159 |
|     154 | 0x00A9      |         169 |
|     155 | 0x00B3      |         179 |
|     156 | 0x00BD      |         189 |
|     157 | 0x0006      |           6 |
|     158 | 0x0007      |           7 |
|     159 | 0x00C7      |         199 |
|     160 | 0x0008      |           8 |
|     161 | 0x0047      |          71 |
|     162 | 0x0051      |          81 |
|     163 | 0x005B      |          91 |
|     164 | 0x0065      |         101 |
|     165 | 0x006F      |         111 |
|     166 | 0x0079      |         121 |
|     167 | 0x0083      |         131 |
|     168 | 0x161A      |        5658 |
|     169 | 0x12FD3     |       77779 |
|     170 | 0x2F47      |       12103 |
|     171 | 0x0FF7      |        4087 |
|     172 | 0x12EB2     |       77490 |

## String References

- **1**: Set this as current home point? [Yes./No.]
- **10062**: For your own safety, it is recommended that you set this location as your home point after changing jobs.
- **12103**: Entering [/Sheol A/Sheol B/Sheol C/Sheol: Gaol][/: Very Difficult/: Difficult/: Normal/: Easy/: Very Easy].

## Events

### Event 65535

#### Metadata

| Field        | Value   |
|--------------|---------|
| Entrypoint   | 0x0000  |
| Data Size    | 1 bytes |
| Instructions | 1       |

```
      00 01 02 03 04 05 06 07  08 09 0A 0B 0C 0D 0E 0F
      -- -- -- -- -- -- -- --  -- -- -- -- -- -- -- --
0000: 00                                                .               
```

#### Opcodes

```
  0: 0x0000 [0x00] END_REQSTACK()
```

### Event 65534

#### Metadata

| Field        | Value   |
|--------------|---------|
| Entrypoint   | 0x0001  |
| Data Size    | 1 bytes |
| Instructions | 1       |

```
      00 01 02 03 04 05 06 07  08 09 0A 0B 0C 0D 0E 0F
      -- -- -- -- -- -- -- --  -- -- -- -- -- -- -- --
0000:    00                                              .              
```

#### Opcodes

```
  0: 0x0001 [0x00] END_REQSTACK()
```

### Event 65535.1

#### Metadata

| Field        | Value    |
|--------------|----------|
| Entrypoint   | 0x0002   |
| Data Size    | 27 bytes |
| Instructions | 5        |

```
      00 01 02 03 04 05 06 07  08 09 0A 0B 0C 0D 0E 0F
      -- -- -- -- -- -- -- --  -- -- -- -- -- -- -- --
0000:       03 00 00 07 7F 1A  54 0B 0B 01 00 66 01 00    ......T....f..
0010: F8 FF FF 7F F8 FF FF 7F  70 61 73 30 00           ........pas0.   
```

#### Opcodes

```
  0: 0x0002 [0x03] ExtData[1]->WorkLocal[0] = Entity->Race
  1: 0x0007 [0x1A] CALL_SUBROUTINE(address=0x0B54)
  2: 0x000A [0x0B] ExtData[1]->WorkLocal[1]++
  3: 0x000D [0x66] LOAD_EXT_SCHEDULER_MAIN: Load scheduler "pas0" with entities [EventEntity, EventEntity], work=ExtData[1]->WorkLocal[1]
  4: 0x001C [0x00] END_REQSTACK()
```

### Event 65535.2

#### Metadata

| Field        | Value    |
|--------------|----------|
| Entrypoint   | 0x001D   |
| Data Size    | 24 bytes |
| Instructions | 4        |

```
      00 01 02 03 04 05 06 07  08 09 0A 0B 0C 0D 0E 0F
      -- -- -- -- -- -- -- --  -- -- -- -- -- -- -- --
0010:                                         03 00 00               ...
0020: 07 7F 1A 79 0B 66 01 00  F8 FF FF 7F F8 FF FF 7F  ...y.f..........
0030: 6F 72 7A 30 00                                    orz0.           
```

#### Opcodes

```
  0: 0x001D [0x03] ExtData[1]->WorkLocal[0] = Entity->Race
  1: 0x0022 [0x1A] CALL_SUBROUTINE(address=0x0B79)
  2: 0x0025 [0x66] LOAD_EXT_SCHEDULER_MAIN: Load scheduler "orz0" with entities [EventEntity, EventEntity], work=ExtData[1]->WorkLocal[1]
  3: 0x0034 [0x00] END_REQSTACK()
```

### Event 65535.3

#### Metadata

| Field        | Value    |
|--------------|----------|
| Entrypoint   | 0x0035   |
| Data Size    | 37 bytes |
| Instructions | 5        |

```
      00 01 02 03 04 05 06 07  08 09 0A 0B 0C 0D 0E 0F
      -- -- -- -- -- -- -- --  -- -- -- -- -- -- -- --
0030:                03 00 00  07 7F 1A 2F 0B 66 01 00       ....../.f..
0040: F8 FF FF 7F F8 FF FF 7F  73 68 61 30 53 F8 FF FF  ........sha0S...
0050: 7F F8 FF FF 7F 73 68 61  30 00                    .....sha0.      
```

#### Opcodes

```
  0: 0x0035 [0x03] ExtData[1]->WorkLocal[0] = Entity->Race
  1: 0x003A [0x1A] CALL_SUBROUTINE(address=0x0B2F)
  2: 0x003D [0x66] LOAD_EXT_SCHEDULER_MAIN: Load scheduler "sha0" with entities [EventEntity, EventEntity], work=ExtData[1]->WorkLocal[1]
  3: 0x004C [0x53] WAIT_SCHEDULER_TASK: Wait for scheduler "sha0" with entities [EventEntity, EventEntity]
  4: 0x0059 [0x00] END_REQSTACK()
```

### Event 65535.4

#### Metadata

| Field        | Value    |
|--------------|----------|
| Entrypoint   | 0x005A   |
| Data Size    | 37 bytes |
| Instructions | 5        |

```
      00 01 02 03 04 05 06 07  08 09 0A 0B 0C 0D 0E 0F
      -- -- -- -- -- -- -- --  -- -- -- -- -- -- -- --
0050:                                03 00 00 07 7F 1A            ......
0060: 2F 0B 66 01 00 F8 FF FF  7F F8 FF FF 7F 73 68 61  /.f..........sha
0070: 31 53 F8 FF FF 7F F8 FF  FF 7F 73 68 61 31 00     1S........sha1. 
```

#### Opcodes

```
  0: 0x005A [0x03] ExtData[1]->WorkLocal[0] = Entity->Race
  1: 0x005F [0x1A] CALL_SUBROUTINE(address=0x0B2F)
  2: 0x0062 [0x66] LOAD_EXT_SCHEDULER_MAIN: Load scheduler "sha1" with entities [EventEntity, EventEntity], work=ExtData[1]->WorkLocal[1]
  3: 0x0071 [0x53] WAIT_SCHEDULER_TASK: Wait for scheduler "sha1" with entities [EventEntity, EventEntity]
  4: 0x007E [0x00] END_REQSTACK()
```

### Event 65535.5

#### Metadata

| Field        | Value    |
|--------------|----------|
| Entrypoint   | 0x007F   |
| Data Size    | 10 bytes |
| Instructions | 2        |

```
      00 01 02 03 04 05 06 07  08 09 0A 0B 0C 0D 0E 0F
      -- -- -- -- -- -- -- --  -- -- -- -- -- -- -- --
0070:                                               37                 7
0080: 00 80 01 80 02 80 03 80  00                       .........       
```

#### Opcodes

```
  0: 0x007F [0x37] UPDATE_EVENT_POSITION_AND_DIR: x=-49.812*, z=39.027*, y=7.999*, direction=266.6°*
  1: 0x0088 [0x00] END_REQSTACK()
```

### Event 65535.6

#### Metadata

| Field        | Value    |
|--------------|----------|
| Entrypoint   | 0x0089   |
| Data Size    | 10 bytes |
| Instructions | 2        |

```
      00 01 02 03 04 05 06 07  08 09 0A 0B 0C 0D 0E 0F
      -- -- -- -- -- -- -- --  -- -- -- -- -- -- -- --
0080:                             37 04 80 05 80 06 80           7......
0090: 07 80 00                                          ...             
```

#### Opcodes

```
  0: 0x0089 [0x37] UPDATE_EVENT_POSITION_AND_DIR: x=-47.525*, z=39.573*, y=8.000*, direction=214.6°*
  1: 0x0092 [0x00] END_REQSTACK()
```

### Event 65535.7

#### Metadata

| Field        | Value    |
|--------------|----------|
| Entrypoint   | 0x0093   |
| Data Size    | 10 bytes |
| Instructions | 2        |

```
      00 01 02 03 04 05 06 07  08 09 0A 0B 0C 0D 0E 0F
      -- -- -- -- -- -- -- --  -- -- -- -- -- -- -- --
0090:          37 08 80 09 80  0A 80 0B 80 00              7.........   
```

#### Opcodes

```
  0: 0x0093 [0x37] UPDATE_EVENT_POSITION_AND_DIR: x=-0.052*, z=74.166*, y=8.090*, direction=227.3°*
  1: 0x009C [0x00] END_REQSTACK()
```

### Event 102

#### Metadata

| Field        | Value     |
|--------------|-----------|
| Entrypoint   | 0x009D    |
| Data Size    | 828 bytes |
| Instructions | 101       |

```
      00 01 02 03 04 05 06 07  08 09 0A 0B 0C 0D 0E 0F
      -- -- -- -- -- -- -- --  -- -- -- -- -- -- -- --
0090:                                         03 09 10               ...
00A0: 0C 80 42 45 0D 80 F0 FF  FF 7F F0 FF FF 7F 66 64  ..BE..........fd
00B0: 6F 30 0E 80 55 0D 80 F0  FF FF 7F F0 FF FF 7F 66  o0..U..........f
00C0: 64 6F 30 38 0F 80 37 10  80 11 80 02 80 12 80 46  do08..7........F
00D0: 01 45 13 80 F0 FF FF 7F  F0 FF FF 7F 73 30 33 30  .E..........s030
00E0: 0E 80 45 0D 80 F0 FF FF  7F F0 FF FF 7F 66 64 69  ..E..........fdi
00F0: 31 0E 80 4A 3D 70 0F 01  F0 FF FF 7F 1C 14 80 2B  1..J=p.........+
0100: 3D 70 0F 01 15 80 23 66  16 80 3D 70 0F 01 3D 70  =p....#f..=p..=p
0110: 0F 01 74 6C 6B 30 2B 3D  70 0F 01 17 80 23 66 16  ..tlk0+=p....#f.
0120: 80 3D 70 0F 01 3D 70 0F  01 74 6C 6B 31 27 0A 3E  .=p..=p..tlk1'.>
0130: 70 0F 01 03 1C 18 80 45  13 80 F0 FF FF 7F F0 FF  p......E........
0140: FF 7F 73 30 33 31 0E 80  2B 3E 70 0F 01 19 80 23  ..s031..+>p....#
0150: 4A 3D 70 0F 01 3E 70 0F  01 4A F0 FF FF 7F 3E 70  J=p..>p..J....>p
0160: 0F 01 2B 3D 70 0F 01 1A  80 23 2A 0A 3E 70 0F 01  ..+=p....#*.>p..
0170: 27 0A 3F 70 0F 01 03 2B  3F 70 0F 01 1B 80 23 79  '.?p...+?p....#y
0180: 00 3D 70 0F 01 3F 70 0F  01 2B 3D 70 0F 01 1C 80  .=p..?p..+=p....
0190: 23 2A 0A 3F 70 0F 01 52  13 80 F0 FF FF 7F F0 FF  #*.?p..R........
01A0: FF 7F 73 30 33 31 45 13  80 F0 FF FF 7F F0 FF FF  ..s031E.........
01B0: 7F 73 30 33 32 0E 80 4A  3E 70 0F 01 3F 70 0F 01  .s032..J>p..?p..
01C0: 2B 3E 70 0F 01 1D 80 23  79 00 3F 70 0F 01 3E 70  +>p....#y.?p..>p
01D0: 0F 01 5B 1E 80 3E 70 0F  01 3E 70 0F 01 74 6C 61  ..[..>p..>p..tla
01E0: 30 2B 3E 70 0F 01 1F 80  23 2B 3E 70 0F 01 20 80  0+>p....#+>p.. .
01F0: 23 5B 1E 80 3E 70 0F 01  3E 70 0F 01 74 6C 61 31  #[..>p..>p..tla1
0200: 2B 3E 70 0F 01 21 80 23  52 13 80 F0 FF FF 7F F0  +>p..!.#R.......
0210: FF FF 7F 73 30 33 32 45  13 80 F0 FF FF 7F F0 FF  ...s032E........
0220: FF 7F 73 30 33 33 0E 80  4A 3F 70 0F 01 3E 70 0F  ..s033..J?p..>p.
0230: 01 2B 3F 70 0F 01 22 80  23 66 23 80 3F 70 0F 01  .+?p..".#f#.?p..
0240: 3F 70 0F 01 74 6C 6B 30  2B 3F 70 0F 01 24 80 23  ?p..tlk0+?p..$.#
0250: 6B 69 64 6C 30 3F 70 0F  01 4B 3E 70 0F 01 25 80  kidl0?p..K>p..%.
0260: 2B 3E 70 0F 01 26 80 23  5B 1E 80 3E 70 0F 01 3E  +>p..&.#[..>p..>
0270: 70 0F 01 74 6C 63 30 2B  3E 70 0F 01 27 80 23 53  p..tlc0+>p..'.#S
0280: 3E 70 0F 01 3E 70 0F 01  74 6C 63 30 5B 1E 80 3E  >p..>p..tlc0[..>
0290: 70 0F 01 3E 70 0F 01 74  6C 63 31 2B 3F 70 0F 01  p..>p..tlc1+?p..
02A0: 28 80 23 5B 1E 80 3E 70  0F 01 3E 70 0F 01 74 6C  (.#[..>p..>p..tl
02B0: 62 30 2B 3E 70 0F 01 29  80 23 5B 1E 80 3E 70 0F  b0+>p..).#[..>p.
02C0: 01 3E 70 0F 01 74 6C 62  31 52 13 80 F0 FF FF 7F  .>p..tlb1R......
02D0: F0 FF FF 7F 73 30 33 33  45 13 80 F0 FF FF 7F F0  ....s033E.......
02E0: FF FF 7F 73 30 33 34 0E  80 4A 3E 70 0F 01 3D 70  ...s034..J>p..=p
02F0: 0F 01 2B 3E 70 0F 01 2A  80 23 79 00 3D 70 0F 01  ..+>p..*.#y.=p..
0300: 3E 70 0F 01 79 00 3F 70  0F 01 3D 70 0F 01 4A 3D  >p..y.?p..=p..J=
0310: 70 0F 01 3F 70 0F 01 2B  3D 70 0F 01 2B 80 23 79  p..?p..+=p..+.#y
0320: 00 3D 70 0F 01 F0 FF FF  7F 66 16 80 3D 70 0F 01  .=p......f..=p..
0330: 3D 70 0F 01 74 6C 6B 30  2B 3D 70 0F 01 2C 80 23  =p..tlk0+=p..,.#
0340: 66 16 80 3D 70 0F 01 3D  70 0F 01 74 6C 6B 31 66  f..=p..=p..tlk1f
0350: 23 80 3F 70 0F 01 3F 70  0F 01 74 6C 6B 30 2B 3F  #.?p..?p..tlk0+?
0360: 70 0F 01 2D 80 23 6B 69  64 6C 30 3F 70 0F 01 66  p..-.#kidl0?p..f
0370: 16 80 3D 70 0F 01 3D 70  0F 01 74 6C 6B 30 2B 3D  ..=p..=p..tlk0+=
0380: 70 0F 01 2E 80 23 66 16  80 3D 70 0F 01 3D 70 0F  p....#f..=p..=p.
0390: 01 74 6C 6B 31 45 0D 80  F0 FF FF 7F F0 FF FF 7F  .tlk1E..........
03A0: 66 64 6F 31 0E 80 55 0D  80 F0 FF FF 7F F0 FF FF  fdo1..U.........
03B0: 7F 66 64 6F 31 52 13 80  F0 FF FF 7F F0 FF FF 7F  .fdo1R..........
03C0: 73 30 33 34 46 00 45 0D  80 F0 FF FF 7F F0 FF FF  s034F.E.........
03D0: 7F 66 64 69 31 0E 80 21  00                       .fdi1..!.       
```

#### Opcodes

```
  0: 0x009D [0x03] Work_Zone[9] = 477*
  1: 0x00A2 [0x42] SET_CLI_EVENT_CANCEL_DATA()
  2: 0x00A3 [0x45] LOAD_SCHEDULED_TASK: Load scheduler "fdo0" with entities [LocalPlayer, LocalPlayer], work=[200*, 0*]
  3: 0x00B4 [0x55] WAIT_LOAD_SCHEDULER: Wait for scheduler "fdo0" with entities [LocalPlayer, LocalPlayer], work=200*
  4: 0x00C3 [0x38] SET_CLIENT_EVENT_MODE(mode=3*)
  5: 0x00C6 [0x37] UPDATE_EVENT_POSITION_AND_DIR: x=9.455*, z=83.129*, y=7.999*, direction=141.9°*
  6: 0x00CF [0x46] CAMERA_CONTROL: Disable user control
  7: 0x00D1 [0x45] LOAD_SCHEDULED_TASK: Load scheduler "s030" with entities [LocalPlayer, LocalPlayer], work=[219*, 0*]
  8: 0x00E2 [0x45] LOAD_SCHEDULED_TASK: Load scheduler "fdi1" with entities [LocalPlayer, LocalPlayer], work=[200*, 0*]
  9: 0x00F3 [0x4A] Dancing Wolf (ID: 17788989/0x010F703D) looks at LocalPlayer
 10: 0x00FC [0x1C] WAIT(10* ticks)
 11: 0x00FF [0x2B] Dancing Wolf (ID: 17788989/0x010F703D) [10348*]:
    → "Wait, you must be the adventurer that has been sent to aid me in the investigation."
 12: 0x0106 [0x23] WAIT_FOR_DIALOG_INTERACTION
 13: 0x0107 [0x66] LOAD_EXT_SCHEDULER_MAIN: Load scheduler "tlk0" with entities [Dancing Wolf (ID: 17788989/0x010F703D), Dancing Wolf (ID: 17788989/0x010F703D)], work=60*
 14: 0x0116 [0x2B] Dancing Wolf (ID: 17788989/0x010F703D) [10349*]:
    → "According to my research, the $3 that the senator requires is only found in one place."
 15: 0x011D [0x23] WAIT_FOR_DIALOG_INTERACTION
 16: 0x011E [0x66] LOAD_EXT_SCHEDULER_MAIN: Load scheduler "tlk1" with entities [Dancing Wolf (ID: 17788989/0x010F703D), Dancing Wolf (ID: 17788989/0x010F703D)], work=60*
 17: 0x012D [0x27] REQ_SET(priority=0x0A, entity_id=Gumbah (ID: 17788990/0x010F703E), tag_num=0x03)
 18: 0x0134 [0x1C] WAIT(1* ticks)
 19: 0x0137 [0x45] LOAD_SCHEDULED_TASK: Load scheduler "s031" with entities [LocalPlayer, LocalPlayer], work=[219*, 0*]
 20: 0x0148 [0x2B] Gumbah (ID: 17788990/0x010F703E) [10350*]:
    → "And that would be the Gustav Tunnel...am I right?"
 21: 0x014F [0x23] WAIT_FOR_DIALOG_INTERACTION
 22: 0x0150 [0x4A] Dancing Wolf (ID: 17788989/0x010F703D) looks at Gumbah (ID: 17788990/0x010F703E)
 23: 0x0159 [0x4A] LocalPlayer looks at Gumbah (ID: 17788990/0x010F703E)
 24: 0x0162 [0x2B] Dancing Wolf (ID: 17788989/0x010F703D) [10351*]:
    → "Who are you...?"
 25: 0x0169 [0x23] WAIT_FOR_DIALOG_INTERACTION
 26: 0x016A [0x2A] GET_REQ_LEVEL(level=10, entity_id=Gumbah (ID: 17788990/0x010F703E))
 27: 0x0170 [0x27] REQ_SET(priority=0x0A, entity_id=Iron Eater (ID: 17788991/0x010F703F), tag_num=0x03)
 28: 0x0177 [0x2B] Iron Eater (ID: 17788991/0x010F703F) [10352*]:
    → "He accompanied me, but that is a long story."
 29: 0x017E [0x23] WAIT_FOR_DIALOG_INTERACTION
 30: 0x017F [0x79] Dancing Wolf (ID: 17788989/0x010F703D) looks at Iron Eater (ID: 17788991/0x010F703F) (Basic look)
 31: 0x0189 [0x2B] Dancing Wolf (ID: 17788989/0x010F703D) [10353*]:
    → "Sir Iron Eater!"
 32: 0x0190 [0x23] WAIT_FOR_DIALOG_INTERACTION
 33: 0x0191 [0x2A] GET_REQ_LEVEL(level=10, entity_id=Iron Eater (ID: 17788991/0x010F703F))
 34: 0x0197 [0x52] END_LOAD_SCHEDULER: End scheduler "s031" with entities [LocalPlayer, LocalPlayer], work=219*
 35: 0x01A6 [0x45] LOAD_SCHEDULED_TASK: Load scheduler "s032" with entities [LocalPlayer, LocalPlayer], work=[219*, 0*]
 36: 0x01B7 [0x4A] Gumbah (ID: 17788990/0x010F703E) looks at Iron Eater (ID: 17788991/0x010F703F)
 37: 0x01C0 [0x2B] Gumbah (ID: 17788990/0x010F703E) [10354*]:
    → "I told you I knew where it was. I remember Werei talking about it years ago."
 38: 0x01C7 [0x23] WAIT_FOR_DIALOG_INTERACTION
 39: 0x01C8 [0x79] Iron Eater (ID: 17788991/0x010F703F) looks at Gumbah (ID: 17788990/0x010F703E) (Basic look)
 40: 0x01D2 [0x5B] LOAD_EXT_SCHEDULER: Load scheduler "tla0" with entities [Gumbah (ID: 17788990/0x010F703E), Gumbah (ID: 17788990/0x010F703E)], work=155*
 41: 0x01E1 [0x2B] Gumbah (ID: 17788990/0x010F703E) [10355*]:
    → "There is an old Galkan legend that tells of our people setting off on journeys to find this $3 and postpone their rebirth."
 42: 0x01E8 [0x23] WAIT_FOR_DIALOG_INTERACTION
 43: 0x01E9 [0x2B] Gumbah (ID: 17788990/0x010F703E) [10356*]:
    → "But what is more interesting is this: There is a theory that states the Galkan journey of rebirth originated from this journey to collect $3."
 44: 0x01F0 [0x23] WAIT_FOR_DIALOG_INTERACTION
 45: 0x01F1 [0x5B] LOAD_EXT_SCHEDULER: Load scheduler "tla1" with entities [Gumbah (ID: 17788990/0x010F703E), Gumbah (ID: 17788990/0x010F703E)], work=155*
 46: 0x0200 [0x2B] Gumbah (ID: 17788990/0x010F703E) [10357*]:
    → "Now even I don't believe that, but there may be some connection between this obsession with rocksalt and the Galka's long history of mineworking."
 47: 0x0207 [0x23] WAIT_FOR_DIALOG_INTERACTION
 48: 0x0208 [0x52] END_LOAD_SCHEDULER: End scheduler "s032" with entities [LocalPlayer, LocalPlayer], work=219*
 49: 0x0217 [0x45] LOAD_SCHEDULED_TASK: Load scheduler "s033" with entities [LocalPlayer, LocalPlayer], work=[219*, 0*]
 50: 0x0228 [0x4A] Iron Eater (ID: 17788991/0x010F703F) looks at Gumbah (ID: 17788990/0x010F703E)
 51: 0x0231 [0x2B] Iron Eater (ID: 17788991/0x010F703F) [10358*]:
    → "So the reason that you joined me on this mission was to learn more of the $3's role in Galkan legend..."
 52: 0x0238 [0x23] WAIT_FOR_DIALOG_INTERACTION
 53: 0x0239 [0x66] LOAD_EXT_SCHEDULER_MAIN: Load scheduler "tlk0" with entities [Iron Eater (ID: 17788991/0x010F703F), Iron Eater (ID: 17788991/0x010F703F)], work=69*
 54: 0x0248 [0x2B] Iron Eater (ID: 17788991/0x010F703F) [10359*]:
    → "...and to learn more of Werei's journey. You knew that he would want to learn more of the legend before he..."
 55: 0x024F [0x23] WAIT_FOR_DIALOG_INTERACTION
 56: 0x0250 [0x6B] STOP_AND_IDLE: Iron Eater (ID: 17788991/0x010F703F) stops current action and resets to idle (animation="idl0")
 57: 0x0259 [0x4B] UPDATE_ENTITY_YAW(entity=Gumbah (ID: 17788990/0x010F703E), yaw=8.9°*)
 58: 0x0260 [0x2B] Gumbah (ID: 17788990/0x010F703E) [10360*]:
    → "While on his journey, Werei...left many clues behind for us. The message that we found earlier was probably the last."
 59: 0x0267 [0x23] WAIT_FOR_DIALOG_INTERACTION
 60: 0x0268 [0x5B] LOAD_EXT_SCHEDULER: Load scheduler "tlc0" with entities [Gumbah (ID: 17788990/0x010F703E), Gumbah (ID: 17788990/0x010F703E)], work=155*
 61: 0x0277 [0x2B] Gumbah (ID: 17788990/0x010F703E) [10361*]:
    → "But I'm not satisfied with what he left, and I'm not giving up until I find out what really happened to him."
 62: 0x027E [0x23] WAIT_FOR_DIALOG_INTERACTION
 63: 0x027F [0x53] WAIT_SCHEDULER_TASK: Wait for scheduler "tlc0" with entities [Gumbah (ID: 17788990/0x010F703E), Gumbah (ID: 17788990/0x010F703E)]
 64: 0x028C [0x5B] LOAD_EXT_SCHEDULER: Load scheduler "tlc1" with entities [Gumbah (ID: 17788990/0x010F703E), Gumbah (ID: 17788990/0x010F703E)], work=155*
 65: 0x029B [0x2B] Iron Eater (ID: 17788991/0x010F703F) [10362*]:
    → "Gumbah..."
 66: 0x02A2 [0x23] WAIT_FOR_DIALOG_INTERACTION
 67: 0x02A3 [0x5B] LOAD_EXT_SCHEDULER: Load scheduler "tlb0" with entities [Gumbah (ID: 17788990/0x010F703E), Gumbah (ID: 17788990/0x010F703E)], work=155*
 68: 0x02B2 [0x2B] Gumbah (ID: 17788990/0x010F703E) [10363*]:
    → "Oh, and there is one more reason why I stuck my nose into this mission, but that's still a secret. If everything goes as planned, you'll see what I mean."
 69: 0x02B9 [0x23] WAIT_FOR_DIALOG_INTERACTION
 70: 0x02BA [0x5B] LOAD_EXT_SCHEDULER: Load scheduler "tlb1" with entities [Gumbah (ID: 17788990/0x010F703E), Gumbah (ID: 17788990/0x010F703E)], work=155*
 71: 0x02C9 [0x52] END_LOAD_SCHEDULER: End scheduler "s033" with entities [LocalPlayer, LocalPlayer], work=219*
 72: 0x02D8 [0x45] LOAD_SCHEDULED_TASK: Load scheduler "s034" with entities [LocalPlayer, LocalPlayer], work=[219*, 0*]
 73: 0x02E9 [0x4A] Gumbah (ID: 17788990/0x010F703E) looks at Dancing Wolf (ID: 17788989/0x010F703D)
 74: 0x02F2 [0x2B] Gumbah (ID: 17788990/0x010F703E) [10364*]:
    → "I'm sorry, Mister Dancing Wolf. Please tell the adventurer what [he/she] needs to know."
 75: 0x02F9 [0x23] WAIT_FOR_DIALOG_INTERACTION
 76: 0x02FA [0x79] Dancing Wolf (ID: 17788989/0x010F703D) looks at Gumbah (ID: 17788990/0x010F703E) (Basic look)
 77: 0x0304 [0x79] Iron Eater (ID: 17788991/0x010F703F) looks at Dancing Wolf (ID: 17788989/0x010F703D) (Basic look)
 78: 0x030E [0x4A] Dancing Wolf (ID: 17788989/0x010F703D) looks at Iron Eater (ID: 17788991/0x010F703F)
 79: 0x0317 [0x2B] Dancing Wolf (ID: 17788989/0x010F703D) [10365*]:
    → "The $3 that we are looking for only appears in the Gustav Tunnel where freshwater and saltwater mix."
 80: 0x031E [0x23] WAIT_FOR_DIALOG_INTERACTION
 81: 0x031F [0x79] Dancing Wolf (ID: 17788989/0x010F703D) looks at LocalPlayer (Basic look)
 82: 0x0329 [0x66] LOAD_EXT_SCHEDULER_MAIN: Load scheduler "tlk0" with entities [Dancing Wolf (ID: 17788989/0x010F703D), Dancing Wolf (ID: 17788989/0x010F703D)], work=60*
 83: 0x0338 [0x2B] Dancing Wolf (ID: 17788989/0x010F703D) [10366*]:
    → "However, that cave is filled with hideous beasts. I would get killed if I even tried getting close."
 84: 0x033F [0x23] WAIT_FOR_DIALOG_INTERACTION
 85: 0x0340 [0x66] LOAD_EXT_SCHEDULER_MAIN: Load scheduler "tlk1" with entities [Dancing Wolf (ID: 17788989/0x010F703D), Dancing Wolf (ID: 17788989/0x010F703D)], work=60*
 86: 0x034F [0x66] LOAD_EXT_SCHEDULER_MAIN: Load scheduler "tlk0" with entities [Iron Eater (ID: 17788991/0x010F703F), Iron Eater (ID: 17788991/0x010F703F)], work=69*
 87: 0x035E [0x2B] Iron Eater (ID: 17788991/0x010F703F) [10367*]:
    → "I see... Then the senator was correct when saying that it would be dangerous to send an inexperienced adventurer."
 88: 0x0365 [0x23] WAIT_FOR_DIALOG_INTERACTION
 89: 0x0366 [0x6B] STOP_AND_IDLE: Iron Eater (ID: 17788991/0x010F703F) stops current action and resets to idle (animation="idl0")
 90: 0x036F [0x66] LOAD_EXT_SCHEDULER_MAIN: Load scheduler "tlk0" with entities [Dancing Wolf (ID: 17788989/0x010F703D), Dancing Wolf (ID: 17788989/0x010F703D)], work=60*
 91: 0x037E [0x2B] Dancing Wolf (ID: 17788989/0x010F703D) [10368*]:
    → "If you happen to find the $3, bring it to me before you return to Bastok. I'm required to write a report of your findings."
 92: 0x0385 [0x23] WAIT_FOR_DIALOG_INTERACTION
 93: 0x0386 [0x66] LOAD_EXT_SCHEDULER_MAIN: Load scheduler "tlk1" with entities [Dancing Wolf (ID: 17788989/0x010F703D), Dancing Wolf (ID: 17788989/0x010F703D)], work=60*
 94: 0x0395 [0x45] LOAD_SCHEDULED_TASK: Load scheduler "fdo1" with entities [LocalPlayer, LocalPlayer], work=[200*, 0*]
 95: 0x03A6 [0x55] WAIT_LOAD_SCHEDULER: Wait for scheduler "fdo1" with entities [LocalPlayer, LocalPlayer], work=200*
 96: 0x03B5 [0x52] END_LOAD_SCHEDULER: End scheduler "s034" with entities [LocalPlayer, LocalPlayer], work=219*
 97: 0x03C4 [0x46] CAMERA_CONTROL: Restore default settings
 98: 0x03C6 [0x45] LOAD_SCHEDULED_TASK: Load scheduler "fdi1" with entities [LocalPlayer, LocalPlayer], work=[200*, 0*]
 99: 0x03D7 [0x21] END_EVENT
100: 0x03D8 [0x00] END_REQSTACK()
```

### Event 104

#### Metadata

| Field        | Value      |
|--------------|------------|
| Entrypoint   | 0x03D9     |
| Data Size    | 1472 bytes |
| Instructions | 182        |

```
      00 01 02 03 04 05 06 07  08 09 0A 0B 0C 0D 0E 0F
      -- -- -- -- -- -- -- --  -- -- -- -- -- -- -- --
03D0:                             03 09 10 0C 80 42 45           .....BE
03E0: 0D 80 F0 FF FF 7F F0 FF  FF 7F 66 64 6F 30 0E 80  ..........fdo0..
03F0: 55 0D 80 F0 FF FF 7F F0  FF FF 7F 66 64 6F 30 38  U..........fdo08
0400: 0F 80 37 10 80 11 80 02  80 12 80 46 01 45 13 80  ..7........F.E..
0410: F0 FF FF 7F F0 FF FF 7F  73 30 33 30 0E 80 45 0D  ........s030..E.
0420: 80 F0 FF FF 7F F0 FF FF  7F 66 64 69 30 0E 80 4A  .........fdi0..J
0430: 3D 70 0F 01 F0 FF FF 7F  2B 3D 70 0F 01 2F 80 23  =p......+=p../.#
0440: 66 16 80 3D 70 0F 01 3D  70 0F 01 74 68 6B 31 2B  f..=p..=p..thk1+
0450: 3D 70 0F 01 30 80 23 45  13 80 F0 FF FF 7F F0 FF  =p..0.#E........
0460: FF 7F 73 30 33 34 0E 80  27 0A 3F 70 0F 01 03 27  ..s034..'.?p...'
0470: 0A 3E 70 0F 01 03 5D 0E  80 31 80 2B 3F 70 0F 01  .>p...]..1.+?p..
0480: 32 80 23 2B 3E 70 0F 01  33 80 23 66 16 80 3D 70  2.#+>p..3.#f..=p
0490: 0F 01 3D 70 0F 01 74 68  6B 32 2B 3D 70 0F 01 34  ..=p..thk2+=p..4
04A0: 80 23 4A 3D 70 0F 01 3F  70 0F 01 2B 3D 70 0F 01  .#J=p..?p..+=p..
04B0: 35 80 23 52 13 80 F0 FF  FF 7F F0 FF FF 7F 73 30  5.#R..........s0
04C0: 33 34 45 13 80 F0 FF FF  7F F0 FF FF 7F 73 30 33  34E..........s03
04D0: 35 0E 80 2B 3D 70 0F 01  36 80 23 29 0A 40 70 0F  5..+=p..6.#).@p.
04E0: 01 02 4A 3D 70 0F 01 40  70 0F 01 2B 3D 70 0F 01  ..J=p..@p..+=p..
04F0: 37 80 23 2A 0A 3E 70 0F  01 4A F0 FF FF 7F 3E 70  7.#*.>p..J....>p
0500: 0F 01 4A 3E 70 0F 01 40  70 0F 01 6F 76 3E 70 0F  ..J>p..@p..ov>p.
0510: 01 1C 16 80 2B 3E 70 0F  01 38 80 23 4A 3F 70 0F  ....+>p..8.#J?p.
0520: 01 3E 70 0F 01 2B 3F 70  0F 01 39 80 23 5C 00 3A  .>p..+?p..9.#\.:
0530: 80 5C 01 3A 80 52 13 80  F0 FF FF 7F F0 FF FF 7F  .\.:.R..........
0540: 73 30 33 35 45 13 80 F0  FF FF 7F F0 FF FF 7F 73  s035E..........s
0550: 30 33 36 0E 80 2B 3E 70  0F 01 3B 80 23 2B 3E 70  036..+>p..;.#+>p
0560: 0F 01 3C 80 23 52 13 80  F0 FF FF 7F F0 FF FF 7F  ..<.#R..........
0570: 73 30 33 36 45 13 80 F0  FF FF 7F F0 FF FF 7F 73  s036E..........s
0580: 30 33 37 0E 80 45 0D 80  F0 FF FF 7F F0 FF FF 7F  037..E..........
0590: 62 6C 6F 6E 0E 80 2B 3E  70 0F 01 3D 80 1C 3E 80  blon..+>p..=..>.
05A0: 4A 40 70 0F 01 3E 70 0F  01 1C 3F 80 45 0D 80 F0  J@p..>p...?.E...
05B0: FF FF 7F F0 FF FF 7F 62  6C 6F 66 0E 80 23 45 40  .......blof..#E@
05C0: 80 F0 FF FF 7F F0 FF FF  7F 77 68 6F 31 0E 80 55  .........who1..U
05D0: 40 80 F0 FF FF 7F F0 FF  FF 7F 77 68 6F 31 45 13  @.........who1E.
05E0: 80 F0 FF FF 7F F0 FF FF  7F 73 30 33 38 0E 80 45  .........s038..E
05F0: 40 80 F0 FF FF 7F F0 FF  FF 7F 77 68 69 30 0E 80  @.........whi0..
0600: 79 00 3F 70 0F 01 40 70  0F 01 2B 3F 70 0F 01 41  y.?p..@p..+?p..A
0610: 80 23 55 13 80 F0 FF FF  7F F0 FF FF 7F 73 30 33  .#U..........s03
0620: 38 45 40 80 F0 FF FF 7F  F0 FF FF 7F 77 68 6F 31  8E@.........who1
0630: 0E 80 55 40 80 F0 FF FF  7F F0 FF FF 7F 77 68 6F  ..U@.........who
0640: 31 45 13 80 F0 FF FF 7F  F0 FF FF 7F 73 30 33 39  1E..........s039
0650: 0E 80 45 40 80 F0 FF FF  7F F0 FF FF 7F 77 68 69  ..E@.........whi
0660: 30 0E 80 27 0A 40 70 0F  01 03 2B 40 70 0F 01 42  0..'.@p...+@p..B
0670: 80 23 2B 40 70 0F 01 43  80 23 2B 3E 70 0F 01 44  .#+@p..C.#+>p..D
0680: 80 23 2A 0A 40 70 0F 01  5B 45 80 40 70 0F 01 40  .#*.@p..[E.@p..@
0690: 70 0F 01 74 68 6B 31 2B  40 70 0F 01 46 80 23 5B  p..thk1+@p..F.#[
06A0: 47 80 3E 70 0F 01 3E 70  0F 01 75 74 61 30 2B 3E  G.>p..>p..uta0+>
06B0: 70 0F 01 48 80 23 5B 47  80 3E 70 0F 01 3E 70 0F  p..H.#[G.>p..>p.
06C0: 01 75 74 61 31 52 13 80  F0 FF FF 7F F0 FF FF 7F  .uta1R..........
06D0: 73 30 33 39 45 13 80 F0  FF FF 7F F0 FF FF 7F 73  s039E..........s
06E0: 30 34 30 0E 80 5B 45 80  40 70 0F 01 40 70 0F 01  040..[E.@p..@p..
06F0: 74 68 6B 32 2B 40 70 0F  01 49 80 23 5B 45 80 40  thk2+@p..I.#[E.@
0700: 70 0F 01 40 70 0F 01 74  6C 6B 30 2B 40 70 0F 01  p..@p..tlk0+@p..
0710: 4A 80 23 2B 40 70 0F 01  4B 80 23 5B 45 80 40 70  J.#+@p..K.#[E.@p
0720: 0F 01 40 70 0F 01 74 6C  6B 31 2B 40 70 0F 01 4C  ..@p..tlk1+@p..L
0730: 80 23 52 13 80 F0 FF FF  7F F0 FF FF 7F 73 30 34  .#R..........s04
0740: 30 45 13 80 F0 FF FF 7F  F0 FF FF 7F 73 30 34 32  0E..........s042
0750: 0E 80 2B 3E 70 0F 01 4D  80 23 2B 40 70 0F 01 4E  ..+>p..M.#+@p..N
0760: 80 23 2B 40 70 0F 01 4F  80 27 0A 40 70 0F 01 04  .#+@p..O.'.@p...
0770: 1C 16 80 4A 3E 70 0F 01  40 70 0F 01 52 13 80 F0  ...J>p..@p..R...
0780: FF FF 7F F0 FF FF 7F 73  30 34 32 45 13 80 F0 FF  .......s042E....
0790: FF 7F F0 FF FF 7F 73 30  34 31 0E 80 23 2A 0A 40  ......s041..#*.@
07A0: 70 0F 01 4A 40 70 0F 01  3E 70 0F 01 2B 40 70 0F  p..J@p..>p..+@p.
07B0: 01 50 80 23 27 0A 40 70  0F 01 05 45 0D 80 F0 FF  .P.#'.@p...E....
07C0: FF 7F F0 FF FF 7F 66 64  6F 32 0E 80 55 0D 80 F0  ......fdo2..U...
07D0: FF FF 7F F0 FF FF 7F 66  64 6F 32 52 13 80 F0 FF  .......fdo2R....
07E0: FF 7F F0 FF FF 7F 73 30  34 31 45 13 80 F0 FF FF  ......s041E.....
07F0: 7F F0 FF FF 7F 73 30 34  33 0E 80 45 0D 80 F0 FF  .....s043..E....
0800: FF 7F F0 FF FF 7F 66 64  69 30 0E 80 2B 3F 70 0F  ......fdi0..+?p.
0810: 01 51 80 23 2B 3E 70 0F  01 52 80 23 2B 3E 70 0F  .Q.#+>p..R.#+>p.
0820: 01 53 80 23 52 13 80 F0  FF FF 7F F0 FF FF 7F 73  .S.#R..........s
0830: 30 34 33 45 13 80 F0 FF  FF 7F F0 FF FF 7F 73 30  043E..........s0
0840: 34 34 0E 80 2B 3F 70 0F  01 54 80 23 2B 3E 70 0F  44..+?p..T.#+>p.
0850: 01 55 80 23 5B 1E 80 3E  70 0F 01 3E 70 0F 01 74  .U.#[..>p..>p..t
0860: 68 6B 31 2B 3E 70 0F 01  56 80 23 2B 3E 70 0F 01  hk1+>p..V.#+>p..
0870: 57 80 23 5B 1E 80 3E 70  0F 01 3E 70 0F 01 74 68  W.#[..>p..>p..th
0880: 6B 32 2B 3E 70 0F 01 58  80 23 7B 3E 70 0F 01 2B  k2+>p..X.#{>p..+
0890: 3E 70 0F 01 59 80 23 52  13 80 F0 FF FF 7F F0 FF  >p..Y.#R........
08A0: FF 7F 73 30 34 34 45 13  80 F0 FF FF 7F F0 FF FF  ..s044E.........
08B0: 7F 73 30 34 35 0E 80 2B  3F 70 0F 01 5A 80 23 5B  .s045..+?p..Z.#[
08C0: 47 80 3E 70 0F 01 3E 70  0F 01 6B 73 72 30 2B 3E  G.>p..>p..ksr0+>
08D0: 70 0F 01 5B 80 23 2B 3E  70 0F 01 5C 80 23 45 0D  p..[.#+>p..\.#E.
08E0: 80 F0 FF FF 7F F0 FF FF  7F 66 64 6F 32 0E 80 55  .........fdo2..U
08F0: 0D 80 F0 FF FF 7F F0 FF  FF 7F 66 64 6F 32 4A 3F  ..........fdo2J?
0900: 70 0F 01 F0 FF FF 7F 4A  F0 FF FF 7F 3F 70 0F 01  p......J....?p..
0910: 52 13 80 F0 FF FF 7F F0  FF FF 7F 73 30 34 35 45  R..........s045E
0920: 13 80 F0 FF FF 7F F0 FF  FF 7F 73 30 34 36 0E 80  ..........s046..
0930: 45 0D 80 F0 FF FF 7F F0  FF FF 7F 66 64 69 31 0E  E..........fdi1.
0940: 80 1C 5D 80 2B 3F 70 0F  01 5E 80 23 2B 3F 70 0F  ..].+?p..^.#+?p.
0950: 01 5F 80 23 5D 0E 80 60  80 45 0D 80 F0 FF FF 7F  ._.#]..`.E......
0960: F0 FF FF 7F 66 64 6F 32  0E 80 55 0D 80 F0 FF FF  ....fdo2..U.....
0970: 7F F0 FF FF 7F 66 64 6F  32 1C 5D 80 46 00 5C 00  .....fdo2.].F.\.
0980: 61 80 5C 01 61 80 45 0D  80 F0 FF FF 7F F0 FF FF  a.\.a.E.........
0990: 7F 66 64 69 31 0E 80 21  00                       .fdi1..!.       
```

#### Opcodes

```
  0: 0x03D9 [0x03] Work_Zone[9] = 477*
  1: 0x03DE [0x42] SET_CLI_EVENT_CANCEL_DATA()
  2: 0x03DF [0x45] LOAD_SCHEDULED_TASK: Load scheduler "fdo0" with entities [LocalPlayer, LocalPlayer], work=[200*, 0*]
  3: 0x03F0 [0x55] WAIT_LOAD_SCHEDULER: Wait for scheduler "fdo0" with entities [LocalPlayer, LocalPlayer], work=200*
  4: 0x03FF [0x38] SET_CLIENT_EVENT_MODE(mode=3*)
  5: 0x0402 [0x37] UPDATE_EVENT_POSITION_AND_DIR: x=9.455*, z=83.129*, y=7.999*, direction=141.9°*
  6: 0x040B [0x46] CAMERA_CONTROL: Disable user control
  7: 0x040D [0x45] LOAD_SCHEDULED_TASK: Load scheduler "s030" with entities [LocalPlayer, LocalPlayer], work=[219*, 0*]
  8: 0x041E [0x45] LOAD_SCHEDULED_TASK: Load scheduler "fdi0" with entities [LocalPlayer, LocalPlayer], work=[200*, 0*]
  9: 0x042F [0x4A] Dancing Wolf (ID: 17788989/0x010F703D) looks at LocalPlayer
 10: 0x0438 [0x2B] Dancing Wolf (ID: 17788989/0x010F703D) [10369*]:
    → "Oh, I'm glad to see you back here in one piece. So this is the $3?"
 11: 0x043F [0x23] WAIT_FOR_DIALOG_INTERACTION
 12: 0x0440 [0x66] LOAD_EXT_SCHEDULER_MAIN: Load scheduler "thk1" with entities [Dancing Wolf (ID: 17788989/0x010F703D), Dancing Wolf (ID: 17788989/0x010F703D)], work=60*
 13: 0x044F [0x2B] Dancing Wolf (ID: 17788989/0x010F703D) [10370*]:
    → "Hmmm... You know, it looks a lot like that..."
 14: 0x0456 [0x23] WAIT_FOR_DIALOG_INTERACTION
 15: 0x0457 [0x45] LOAD_SCHEDULED_TASK: Load scheduler "s034" with entities [LocalPlayer, LocalPlayer], work=[219*, 0*]
 16: 0x0468 [0x27] REQ_SET(priority=0x0A, entity_id=Iron Eater (ID: 17788991/0x010F703F), tag_num=0x03)
 17: 0x046F [0x27] REQ_SET(priority=0x0A, entity_id=Gumbah (ID: 17788990/0x010F703E), tag_num=0x03)
 18: 0x0476 [0x5D] SET_MUSIC_VOLUME(volume=0*, fade_time=180*)
 19: 0x047B [0x2B] Iron Eater (ID: 17788991/0x010F703F) [10371*]:
    → "It looks a lot like what?"
 20: 0x0482 [0x23] WAIT_FOR_DIALOG_INTERACTION
 21: 0x0483 [0x2B] Gumbah (ID: 17788990/0x010F703E) [10372*]:
    → "What did you see, Mister Dancing Wolf?"
 22: 0x048A [0x23] WAIT_FOR_DIALOG_INTERACTION
 23: 0x048B [0x66] LOAD_EXT_SCHEDULER_MAIN: Load scheduler "thk2" with entities [Dancing Wolf (ID: 17788989/0x010F703D), Dancing Wolf (ID: 17788989/0x010F703D)], work=60*
 24: 0x049A [0x2B] Dancing Wolf (ID: 17788989/0x010F703D) [10373*]:
    → "One day when I was doing my research on $3, I met a strange Galkan child."
 25: 0x04A1 [0x23] WAIT_FOR_DIALOG_INTERACTION
 26: 0x04A2 [0x4A] Dancing Wolf (ID: 17788989/0x010F703D) looks at Iron Eater (ID: 17788991/0x010F703F)
 27: 0x04AB [0x2B] Dancing Wolf (ID: 17788989/0x010F703D) [10374*]:
    → "An adventurer said she found the boy wandering about the desert carrying something that closely resembled $3."
 28: 0x04B2 [0x23] WAIT_FOR_DIALOG_INTERACTION
 29: 0x04B3 [0x52] END_LOAD_SCHEDULER: End scheduler "s034" with entities [LocalPlayer, LocalPlayer], work=219*
 30: 0x04C2 [0x45] LOAD_SCHEDULED_TASK: Load scheduler "s035" with entities [LocalPlayer, LocalPlayer], work=[219*, 0*]
 31: 0x04D3 [0x2B] Dancing Wolf (ID: 17788989/0x010F703D) [10375*]:
    → "The boy had no memory of how he had gotten there, so we all assumed that he must have been on his way back from his journey of rebirth."
 32: 0x04DA [0x23] WAIT_FOR_DIALOG_INTERACTION
 33: 0x04DB [0x29] REQ_SET_WAIT(priority=0x0A, entity_id=??? (ID: 17788992/0x010F7040), tag_num=0x02)
 34: 0x04E2 [0x4A] Dancing Wolf (ID: 17788989/0x010F703D) looks at ??? (ID: 17788992/0x010F7040)
 35: 0x04EB [0x2B] Dancing Wolf (ID: 17788989/0x010F703D) [10376*]:
    → "Wait, there he is, over there."
 36: 0x04F2 [0x23] WAIT_FOR_DIALOG_INTERACTION
 37: 0x04F3 [0x2A] GET_REQ_LEVEL(level=10, entity_id=Gumbah (ID: 17788990/0x010F703E))
 38: 0x04F9 [0x4A] LocalPlayer looks at Gumbah (ID: 17788990/0x010F703E)
 39: 0x0502 [0x4A] Gumbah (ID: 17788990/0x010F703E) looks at ??? (ID: 17788992/0x010F7040)
 40: 0x050B [0x6F] WAIT_FRAME_DELAY: Yield until WaitTime reaches zero
 41: 0x050C [0x76] CHECK_ENTITY_RENDER_FLAGS: Wait until Gumbah (ID: 17788990/0x010F703E) Render.Flags0 and Render.Flags3 conditions are met
 42: 0x0511 [0x1C] WAIT(60* ticks)
 43: 0x0514 [0x2B] Gumbah (ID: 17788990/0x010F703E) [10377*]:
    → "Th-that's..."
 44: 0x051B [0x23] WAIT_FOR_DIALOG_INTERACTION
 45: 0x051C [0x4A] Iron Eater (ID: 17788991/0x010F703F) looks at Gumbah (ID: 17788990/0x010F703E)
 46: 0x0525 [0x2B] Iron Eater (ID: 17788991/0x010F703F) [10378*]:
    → "Gumbah, what's wrong?"
 47: 0x052C [0x23] WAIT_FOR_DIALOG_INTERACTION
 48: 0x052D [0x5C] MUSIC_CONTROL: Set Idle (Day) music to song 122*
 49: 0x0531 [0x5C] MUSIC_CONTROL: Set Idle (Night) music to song 122*
 50: 0x0535 [0x52] END_LOAD_SCHEDULER: End scheduler "s035" with entities [LocalPlayer, LocalPlayer], work=219*
 51: 0x0544 [0x45] LOAD_SCHEDULED_TASK: Load scheduler "s036" with entities [LocalPlayer, LocalPlayer], work=[219*, 0*]
 52: 0x0555 [0x2B] Gumbah (ID: 17788990/0x010F703E) [10379*]:
    → "That's impossible... He couldn't have returned so quickly..."
 53: 0x055C [0x23] WAIT_FOR_DIALOG_INTERACTION
 54: 0x055D [0x2B] Gumbah (ID: 17788990/0x010F703E) [10380*]:
    → "He... He looks the same as he did when we played together...two hundred years ago..."
 55: 0x0564 [0x23] WAIT_FOR_DIALOG_INTERACTION
 56: 0x0565 [0x52] END_LOAD_SCHEDULER: End scheduler "s036" with entities [LocalPlayer, LocalPlayer], work=219*
 57: 0x0574 [0x45] LOAD_SCHEDULED_TASK: Load scheduler "s037" with entities [LocalPlayer, LocalPlayer], work=[219*, 0*]
 58: 0x0585 [0x45] LOAD_SCHEDULED_TASK: Load scheduler "blon" with entities [LocalPlayer, LocalPlayer], work=[200*, 0*]
 59: 0x0596 [0x2B] Gumbah (ID: 17788990/0x010F703E) [10381*]:
    → "Werei!"
 60: 0x059D [0x1C] WAIT(120* ticks)
 61: 0x05A0 [0x4A] ??? (ID: 17788992/0x010F7040) looks at Gumbah (ID: 17788990/0x010F703E)
 62: 0x05A9 [0x1C] WAIT(40* ticks)
 63: 0x05AC [0x45] LOAD_SCHEDULED_TASK: Load scheduler "blof" with entities [LocalPlayer, LocalPlayer], work=[200*, 0*]
 64: 0x05BD [0x23] WAIT_FOR_DIALOG_INTERACTION
 65: 0x05BE [0x45] LOAD_SCHEDULED_TASK: Load scheduler "who1" with entities [LocalPlayer, LocalPlayer], work=[201*, 0*]
 66: 0x05CF [0x55] WAIT_LOAD_SCHEDULER: Wait for scheduler "who1" with entities [LocalPlayer, LocalPlayer], work=201*
 67: 0x05DE [0x45] LOAD_SCHEDULED_TASK: Load scheduler "s038" with entities [LocalPlayer, LocalPlayer], work=[219*, 0*]
 68: 0x05EF [0x45] LOAD_SCHEDULED_TASK: Load scheduler "whi0" with entities [LocalPlayer, LocalPlayer], work=[201*, 0*]
 69: 0x0600 [0x79] Iron Eater (ID: 17788991/0x010F703F) looks at ??? (ID: 17788992/0x010F7040) (Basic look)
 70: 0x060A [0x2B] Iron Eater (ID: 17788991/0x010F703F) [10382*]:
    → "What!?"
 71: 0x0611 [0x23] WAIT_FOR_DIALOG_INTERACTION
 72: 0x0612 [0x55] WAIT_LOAD_SCHEDULER: Wait for scheduler "s038" with entities [LocalPlayer, LocalPlayer], work=219*
 73: 0x0621 [0x45] LOAD_SCHEDULED_TASK: Load scheduler "who1" with entities [LocalPlayer, LocalPlayer], work=[201*, 0*]
 74: 0x0632 [0x55] WAIT_LOAD_SCHEDULER: Wait for scheduler "who1" with entities [LocalPlayer, LocalPlayer], work=201*
 75: 0x0641 [0x45] LOAD_SCHEDULED_TASK: Load scheduler "s039" with entities [LocalPlayer, LocalPlayer], work=[219*, 0*]
 76: 0x0652 [0x45] LOAD_SCHEDULED_TASK: Load scheduler "whi0" with entities [LocalPlayer, LocalPlayer], work=[201*, 0*]
 77: 0x0663 [0x27] REQ_SET(priority=0x0A, entity_id=??? (ID: 17788992/0x010F7040), tag_num=0x03)
 78: 0x066A [0x2B] ??? (ID: 17788992/0x010F7040) [10383*]:
    → "Werei? Did you just call me Werei? That's strange..."
 79: 0x0671 [0x23] WAIT_FOR_DIALOG_INTERACTION
 80: 0x0672 [0x2B] ??? (ID: 17788992/0x010F7040) [10384*]:
    → "That name sounds so familiar... Hey, what's your name?"
 81: 0x0679 [0x23] WAIT_FOR_DIALOG_INTERACTION
 82: 0x067A [0x2B] Gumbah (ID: 17788990/0x010F703E) [10385*]:
    → "Gumbah..."
 83: 0x0681 [0x23] WAIT_FOR_DIALOG_INTERACTION
 84: 0x0682 [0x2A] GET_REQ_LEVEL(level=10, entity_id=??? (ID: 17788992/0x010F7040))
 85: 0x0688 [0x5B] LOAD_EXT_SCHEDULER: Load scheduler "thk1" with entities [??? (ID: 17788992/0x010F7040), ??? (ID: 17788992/0x010F7040)], work=90*
 86: 0x0697 [0x2B] ??? (ID: 17788992/0x010F7040) [10386*]:
    → "Gumbah? Now that's a weird name."
 87: 0x069E [0x23] WAIT_FOR_DIALOG_INTERACTION
 88: 0x069F [0x5B] LOAD_EXT_SCHEDULER: Load scheduler "uta0" with entities [Gumbah (ID: 17788990/0x010F703E), Gumbah (ID: 17788990/0x010F703E)], work=156*
 89: 0x06AE [0x2B] Gumbah (ID: 17788990/0x010F703E) [10387*]:
    → "You...don't remember?"
 90: 0x06B5 [0x23] WAIT_FOR_DIALOG_INTERACTION
 91: 0x06B6 [0x5B] LOAD_EXT_SCHEDULER: Load scheduler "uta1" with entities [Gumbah (ID: 17788990/0x010F703E), Gumbah (ID: 17788990/0x010F703E)], work=156*
 92: 0x06C5 [0x52] END_LOAD_SCHEDULER: End scheduler "s039" with entities [LocalPlayer, LocalPlayer], work=219*
 93: 0x06D4 [0x45] LOAD_SCHEDULED_TASK: Load scheduler "s040" with entities [LocalPlayer, LocalPlayer], work=[219*, 0*]
 94: 0x06E5 [0x5B] LOAD_EXT_SCHEDULER: Load scheduler "thk2" with entities [??? (ID: 17788992/0x010F7040), ??? (ID: 17788992/0x010F7040)], work=90*
 95: 0x06F4 [0x2B] ??? (ID: 17788992/0x010F7040) [10388*]:
    → "Remember? Remember what?"
 96: 0x06FB [0x23] WAIT_FOR_DIALOG_INTERACTION
 97: 0x06FC [0x5B] LOAD_EXT_SCHEDULER: Load scheduler "tlk0" with entities [??? (ID: 17788992/0x010F7040), ??? (ID: 17788992/0x010F7040)], work=90*
 98: 0x070B [0x2B] ??? (ID: 17788992/0x010F7040) [10389*]:
    → "I've gotta go. The caravan that I've been traveling with is about to set off."
 99: 0x0712 [0x23] WAIT_FOR_DIALOG_INTERACTION
100: 0x0713 [0x2B] ??? (ID: 17788992/0x010F7040) [10390*]:
    → "Always on the road... Never settling down... Now that's the life for me."
101: 0x071A [0x23] WAIT_FOR_DIALOG_INTERACTION
102: 0x071B [0x5B] LOAD_EXT_SCHEDULER: Load scheduler "tlk1" with entities [??? (ID: 17788992/0x010F7040), ??? (ID: 17788992/0x010F7040)], work=90*
103: 0x072A [0x2B] ??? (ID: 17788992/0x010F7040) [10391*]:
    → "Well, I'm off. That name you called me--Warai--I liked it."
104: 0x0731 [0x23] WAIT_FOR_DIALOG_INTERACTION
105: 0x0732 [0x52] END_LOAD_SCHEDULER: End scheduler "s040" with entities [LocalPlayer, LocalPlayer], work=219*
106: 0x0741 [0x45] LOAD_SCHEDULED_TASK: Load scheduler "s042" with entities [LocalPlayer, LocalPlayer], work=[219*, 0*]
107: 0x0752 [0x2B] Gumbah (ID: 17788990/0x010F703E) [10392*]:
    → "Werei..."
108: 0x0759 [0x23] WAIT_FOR_DIALOG_INTERACTION
109: 0x075A [0x2B] ??? (ID: 17788992/0x010F7040) [10393*]:
    → "Yeah, yeah. That was it. Werei..."
110: 0x0761 [0x23] WAIT_FOR_DIALOG_INTERACTION
111: 0x0762 [0x2B] ??? (ID: 17788992/0x010F7040) [10394*]:
    → "I'll be seeing you around, Gumbah."
112: 0x0769 [0x27] REQ_SET(priority=0x0A, entity_id=??? (ID: 17788992/0x010F7040), tag_num=0x04)
113: 0x0770 [0x1C] WAIT(60* ticks)
114: 0x0773 [0x4A] Gumbah (ID: 17788990/0x010F703E) looks at ??? (ID: 17788992/0x010F7040)
115: 0x077C [0x52] END_LOAD_SCHEDULER: End scheduler "s042" with entities [LocalPlayer, LocalPlayer], work=219*
116: 0x078B [0x45] LOAD_SCHEDULED_TASK: Load scheduler "s041" with entities [LocalPlayer, LocalPlayer], work=[219*, 0*]
117: 0x079C [0x23] WAIT_FOR_DIALOG_INTERACTION
118: 0x079D [0x2A] GET_REQ_LEVEL(level=10, entity_id=??? (ID: 17788992/0x010F7040))
119: 0x07A3 [0x4A] ??? (ID: 17788992/0x010F7040) looks at Gumbah (ID: 17788990/0x010F703E)
120: 0x07AC [0x2B] ??? (ID: 17788992/0x010F7040) [10395*]:
    → "Hey, why do you look so down? You should try smiling a little more, got it? Well, bye!"
121: 0x07B3 [0x23] WAIT_FOR_DIALOG_INTERACTION
122: 0x07B4 [0x27] REQ_SET(priority=0x0A, entity_id=??? (ID: 17788992/0x010F7040), tag_num=0x05)
123: 0x07BB [0x45] LOAD_SCHEDULED_TASK: Load scheduler "fdo2" with entities [LocalPlayer, LocalPlayer], work=[200*, 0*]
124: 0x07CC [0x55] WAIT_LOAD_SCHEDULER: Wait for scheduler "fdo2" with entities [LocalPlayer, LocalPlayer], work=200*
125: 0x07DB [0x52] END_LOAD_SCHEDULER: End scheduler "s041" with entities [LocalPlayer, LocalPlayer], work=219*
126: 0x07EA [0x45] LOAD_SCHEDULED_TASK: Load scheduler "s043" with entities [LocalPlayer, LocalPlayer], work=[219*, 0*]
127: 0x07FB [0x45] LOAD_SCHEDULED_TASK: Load scheduler "fdi0" with entities [LocalPlayer, LocalPlayer], work=[200*, 0*]
128: 0x080C [0x2B] Iron Eater (ID: 17788991/0x010F703F) [10396*]:
    → "Gumbah... Was that what I thought it was...?"
129: 0x0813 [0x23] WAIT_FOR_DIALOG_INTERACTION
130: 0x0814 [0x2B] Gumbah (ID: 17788990/0x010F703E) [10397*]:
    → "Who does he think he is, shooting his mouth off at me like that..."
131: 0x081B [0x23] WAIT_FOR_DIALOG_INTERACTION
132: 0x081C [0x2B] Gumbah (ID: 17788990/0x010F703E) [10398*]:
    → "But I guess I can't blame him. It was my fault that he was forced to live such a hard life..."
133: 0x0823 [0x23] WAIT_FOR_DIALOG_INTERACTION
134: 0x0824 [0x52] END_LOAD_SCHEDULER: End scheduler "s043" with entities [LocalPlayer, LocalPlayer], work=219*
135: 0x0833 [0x45] LOAD_SCHEDULED_TASK: Load scheduler "s044" with entities [LocalPlayer, LocalPlayer], work=[219*, 0*]
136: 0x0844 [0x2B] Iron Eater (ID: 17788991/0x010F703F) [10399*]:
    → "So he was the real Werei...?"
137: 0x084B [0x23] WAIT_FOR_DIALOG_INTERACTION
138: 0x084C [0x2B] Gumbah (ID: 17788990/0x010F703E) [10400*]:
    → "I don't know, Iron Eater..."
139: 0x0853 [0x23] WAIT_FOR_DIALOG_INTERACTION
140: 0x0854 [0x5B] LOAD_EXT_SCHEDULER: Load scheduler "thk1" with entities [Gumbah (ID: 17788990/0x010F703E), Gumbah (ID: 17788990/0x010F703E)], work=155*
141: 0x0863 [0x2B] Gumbah (ID: 17788990/0x010F703E) [10401*]:
    → "I never thought that this simple $3 could bring about such a miracle."
142: 0x086A [0x23] WAIT_FOR_DIALOG_INTERACTION
143: 0x086B [0x2B] Gumbah (ID: 17788990/0x010F703E) [10402*]:
    → "On the other hand, it could have been that the two just simply looked alike..."
144: 0x0872 [0x23] WAIT_FOR_DIALOG_INTERACTION
145: 0x0873 [0x5B] LOAD_EXT_SCHEDULER: Load scheduler "thk2" with entities [Gumbah (ID: 17788990/0x010F703E), Gumbah (ID: 17788990/0x010F703E)], work=155*
146: 0x0882 [0x2B] Gumbah (ID: 17788990/0x010F703E) [10403*]:
    → "But I guess that is something we will never know. Not even a Talekeeper can remember his rebirth, so chasing after the memory of it would be foolish..."
147: 0x0889 [0x23] WAIT_FOR_DIALOG_INTERACTION
148: 0x088A [0x7B] Gumbah (ID: 17788990/0x010F703E) stops talking
149: 0x088F [0x2B] Gumbah (ID: 17788990/0x010F703E) [10404*]:
    → "I guess some things are better left unknown."
150: 0x0896 [0x23] WAIT_FOR_DIALOG_INTERACTION
151: 0x0897 [0x52] END_LOAD_SCHEDULER: End scheduler "s044" with entities [LocalPlayer, LocalPlayer], work=219*
152: 0x08A6 [0x45] LOAD_SCHEDULED_TASK: Load scheduler "s045" with entities [LocalPlayer, LocalPlayer], work=[219*, 0*]
153: 0x08B7 [0x2B] Iron Eater (ID: 17788991/0x010F703F) [10405*]:
    → "Gumbah..."
154: 0x08BE [0x23] WAIT_FOR_DIALOG_INTERACTION
155: 0x08BF [0x5B] LOAD_EXT_SCHEDULER: Load scheduler "ksr0" with entities [Gumbah (ID: 17788990/0x010F703E), Gumbah (ID: 17788990/0x010F703E)], work=156*
156: 0x08CE [0x2B] Gumbah (ID: 17788990/0x010F703E) [10406*]:
    → "A Galka named Werei has set out on his journey of life..."
157: 0x08D5 [0x23] WAIT_FOR_DIALOG_INTERACTION
158: 0x08D6 [0x2B] Gumbah (ID: 17788990/0x010F703E) [10407*]:
    → "Isn't that enough?"
159: 0x08DD [0x23] WAIT_FOR_DIALOG_INTERACTION
160: 0x08DE [0x45] LOAD_SCHEDULED_TASK: Load scheduler "fdo2" with entities [LocalPlayer, LocalPlayer], work=[200*, 0*]
161: 0x08EF [0x55] WAIT_LOAD_SCHEDULER: Wait for scheduler "fdo2" with entities [LocalPlayer, LocalPlayer], work=200*
162: 0x08FE [0x4A] Iron Eater (ID: 17788991/0x010F703F) looks at LocalPlayer
163: 0x0907 [0x4A] LocalPlayer looks at Iron Eater (ID: 17788991/0x010F703F)
164: 0x0910 [0x52] END_LOAD_SCHEDULER: End scheduler "s045" with entities [LocalPlayer, LocalPlayer], work=219*
165: 0x091F [0x45] LOAD_SCHEDULED_TASK: Load scheduler "s046" with entities [LocalPlayer, LocalPlayer], work=[219*, 0*]
166: 0x0930 [0x45] LOAD_SCHEDULED_TASK: Load scheduler "fdi1" with entities [LocalPlayer, LocalPlayer], work=[200*, 0*]
167: 0x0941 [0x1C] WAIT(30* ticks)
168: 0x0944 [0x2B] Iron Eater (ID: 17788991/0x010F703F) [10408*]:
    → "Excellent work, <Player>. Not only have you finished your work here, but you have also given us the opportunity to meet someone special."
169: 0x094B [0x23] WAIT_FOR_DIALOG_INTERACTION
170: 0x094C [0x2B] Iron Eater (ID: 17788991/0x010F703F) [10409*]:
    → "But your mission is not complete. Take the $3 back to the senator. We'll see what Gumbah has in store for him."
171: 0x0953 [0x23] WAIT_FOR_DIALOG_INTERACTION
172: 0x0954 [0x5D] SET_MUSIC_VOLUME(volume=0*, fade_time=150*)
173: 0x0959 [0x45] LOAD_SCHEDULED_TASK: Load scheduler "fdo2" with entities [LocalPlayer, LocalPlayer], work=[200*, 0*]
174: 0x096A [0x55] WAIT_LOAD_SCHEDULER: Wait for scheduler "fdo2" with entities [LocalPlayer, LocalPlayer], work=200*
175: 0x0979 [0x1C] WAIT(30* ticks)
176: 0x097C [0x46] CAMERA_CONTROL: Restore default settings
177: 0x097E [0x5C] MUSIC_CONTROL: Set Idle (Day) music to song 208*
178: 0x0982 [0x5C] MUSIC_CONTROL: Set Idle (Night) music to song 208*
179: 0x0986 [0x45] LOAD_SCHEDULED_TASK: Load scheduler "fdi1" with entities [LocalPlayer, LocalPlayer], work=[200*, 0*]
180: 0x0997 [0x21] END_EVENT
181: 0x0998 [0x00] END_REQSTACK()
```

### Event 65535.8

#### Metadata

| Field        | Value     |
|--------------|-----------|
| Entrypoint   | 0x0999    |
| Data Size    | 121 bytes |
| Instructions | 19        |

```
      00 01 02 03 04 05 06 07  08 09 0A 0B 0C 0D 0E 0F
      -- -- -- -- -- -- -- --  -- -- -- -- -- -- -- --
0990:                             02 04 10 0E 80 80 AD           .......
09A0: 09 37 62 80 63 80 64 80  65 80 01 11 0A 02 04 10  .7b.c.d.e.......
09B0: 18 80 80 C1 09 37 66 80  67 80 68 80 69 80 01 11  .....7f.g.h.i...
09C0: 0A 02 04 10 6A 80 80 D5  09 37 6B 80 6C 80 6D 80  ....j....7k.l.m.
09D0: 6E 80 01 11 0A 02 04 10  0F 80 80 E9 09 37 6F 80  n............7o.
09E0: 70 80 71 80 72 80 01 11  0A 02 04 10 73 80 80 FD  p.q.r.......s...
09F0: 09 37 74 80 75 80 0E 80  76 80 01 11 0A 02 04 10  .7t.u...v.......
0A00: 77 80 80 11 0A 37 78 80  79 80 7A 80 7B 80 01 11  w....7x.y.z.{...
0A10: 0A 00                                             ..              
```

#### Opcodes

```
  0: 0x0999 [0x02] IF !(Work_Zone[4] == 0*) GOTO 0x09AD
  1: 0x09A1 [0x37] UPDATE_EVENT_POSITION_AND_DIR: x=98.226*, z=-97.241*, y=-13.999*, direction=18.4°*
  2: 0x09AA [0x01] GOTO 0x0A11
  3: 0x09AD [0x02] IF !(Work_Zone[4] == 1*) GOTO 0x09C1
  4: 0x09B5 [0x37] UPDATE_EVENT_POSITION_AND_DIR: x=35.388*, z=-41.034*, y=7.499*, direction=176.2°*
  5: 0x09BE [0x01] GOTO 0x0A11
  6: 0x09C1 [0x02] IF !(Work_Zone[4] == 2*) GOTO 0x09D5
  7: 0x09C9 [0x37] UPDATE_EVENT_POSITION_AND_DIR: x=-13.961*, z=-20.697*, y=1.097*, direction=354.5°*
  8: 0x09D2 [0x01] GOTO 0x0A11
  9: 0x09D5 [0x02] IF !(Work_Zone[4] == 3*) GOTO 0x09E9
 10: 0x09DD [0x37] UPDATE_EVENT_POSITION_AND_DIR: x=-17.871*, z=-11.595*, y=7.652*, direction=23.2°*
 11: 0x09E6 [0x01] GOTO 0x0A11
 12: 0x09E9 [0x02] IF !(Work_Zone[4] == 4*) GOTO 0x09FD
 13: 0x09F1 [0x37] UPDATE_EVENT_POSITION_AND_DIR: x=-186.234*, z=108.403*, y=0.000*, direction=210.8°*
 14: 0x09FA [0x01] GOTO 0x0A11
 15: 0x09FD [0x02] IF !(Work_Zone[4] == 5*) GOTO 0x0A11
 16: 0x0A05 [0x37] UPDATE_EVENT_POSITION_AND_DIR: x=29.370*, z=57.233*, y=-15.802*, direction=69.3°*
 17: 0x0A0E [0x01] GOTO 0x0A11

SUBROUTINE_0A11:
 18: 0x0A11 [0x00] END_REQSTACK()
```

### Event 65535.9

#### Metadata

| Field        | Value    |
|--------------|----------|
| Entrypoint   | 0x0A12   |
| Data Size    | 10 bytes |
| Instructions | 2        |

```
      00 01 02 03 04 05 06 07  08 09 0A 0B 0C 0D 0E 0F
      -- -- -- -- -- -- -- --  -- -- -- -- -- -- -- --
0A10:       37 7C 80 7D 80 7E  80 7F 80 00                7|.}.~....    
```

#### Opcodes

```
  0: 0x0A12 [0x37] UPDATE_EVENT_POSITION_AND_DIR: x=21.982*, z=30.049*, y=-18.138*, direction=298.8°*
  1: 0x0A1B [0x00] END_REQSTACK()
```

### Event 65535.10

#### Metadata

| Field        | Value    |
|--------------|----------|
| Entrypoint   | 0x0A1C   |
| Data Size    | 27 bytes |
| Instructions | 6        |

```
      00 01 02 03 04 05 06 07  08 09 0A 0B 0C 0D 0E 0F
      -- -- -- -- -- -- -- --  -- -- -- -- -- -- -- --
0A10:                                      7B F0 FF FF              {...
0A20: 7F 1C 5D 80 79 00 F0 FF  FF 7F 33 70 0F 01 1C 5D  ..].y.....3p...]
0A30: 80 7B F0 FF FF 7F 00                              .{.....         
```

#### Opcodes

```
  0: 0x0A1C [0x7B] LocalPlayer stops talking
  1: 0x0A21 [0x1C] WAIT(30* ticks)
  2: 0x0A24 [0x79] LocalPlayer looks at Talking Doll (ID: 17788979/0x010F7033) (Basic look)
  3: 0x0A2E [0x1C] WAIT(30* ticks)
  4: 0x0A31 [0x7B] LocalPlayer stops talking
  5: 0x0A36 [0x00] END_REQSTACK()
```

### Event 65535.11

#### Metadata

| Field        | Value   |
|--------------|---------|
| Entrypoint   | 0x0A37  |
| Data Size    | 6 bytes |
| Instructions | 2       |

```
      00 01 02 03 04 05 06 07  08 09 0A 0B 0C 0D 0E 0F
      -- -- -- -- -- -- -- --  -- -- -- -- -- -- -- --
0A30:                      03  09 10 07 7F 00                  ......   
```

#### Opcodes

```
  0: 0x0A37 [0x03] Work_Zone[9] = Entity->Race
  1: 0x0A3C [0x00] END_REQSTACK()
```

### Event 65535.12

#### Metadata

| Field        | Value    |
|--------------|----------|
| Entrypoint   | 0x0A3D   |
| Data Size    | 10 bytes |
| Instructions | 2        |

```
      00 01 02 03 04 05 06 07  08 09 0A 0B 0C 0D 0E 0F
      -- -- -- -- -- -- -- --  -- -- -- -- -- -- -- --
0A30:                                         37 66 80               7f.
0A40: 67 80 68 80 69 80 00                              g.h.i..         
```

#### Opcodes

```
  0: 0x0A3D [0x37] UPDATE_EVENT_POSITION_AND_DIR: x=35.388*, z=-41.034*, y=7.499*, direction=176.2°*
  1: 0x0A46 [0x00] END_REQSTACK()
```

### Event 65535.13

#### Metadata

| Field        | Value    |
|--------------|----------|
| Entrypoint   | 0x0A47   |
| Data Size    | 10 bytes |
| Instructions | 2        |

```
      00 01 02 03 04 05 06 07  08 09 0A 0B 0C 0D 0E 0F
      -- -- -- -- -- -- -- --  -- -- -- -- -- -- -- --
0A40:                      37  74 80 75 80 0E 80 76 80         7t.u...v.
0A50: 00                                                .               
```

#### Opcodes

```
  0: 0x0A47 [0x37] UPDATE_EVENT_POSITION_AND_DIR: x=-186.234*, z=108.403*, y=0.000*, direction=210.8°*
  1: 0x0A50 [0x00] END_REQSTACK()
```

### Event 65535.14

#### Metadata

| Field        | Value    |
|--------------|----------|
| Entrypoint   | 0x0A51   |
| Data Size    | 10 bytes |
| Instructions | 2        |

```
      00 01 02 03 04 05 06 07  08 09 0A 0B 0C 0D 0E 0F
      -- -- -- -- -- -- -- --  -- -- -- -- -- -- -- --
0A50:    37 80 80 81 80 82 80  83 80 00                  7.........     
```

#### Opcodes

```
  0: 0x0A51 [0x37] UPDATE_EVENT_POSITION_AND_DIR: x=-17.766*, z=-11.913*, y=7.645*, direction=1.3°*
  1: 0x0A5A [0x00] END_REQSTACK()
```

### Event 65535.15

#### Metadata

| Field        | Value    |
|--------------|----------|
| Entrypoint   | 0x0A5B   |
| Data Size    | 10 bytes |
| Instructions | 2        |

```
      00 01 02 03 04 05 06 07  08 09 0A 0B 0C 0D 0E 0F
      -- -- -- -- -- -- -- --  -- -- -- -- -- -- -- --
0A50:                                   37 84 80 85 80             7....
0A60: 02 80 86 80 00                                    .....           
```

#### Opcodes

```
  0: 0x0A5B [0x37] UPDATE_EVENT_POSITION_AND_DIR: x=121.642*, z=52.464*, y=7.999*, direction=109.7°*
  1: 0x0A64 [0x00] END_REQSTACK()
```

### Event 65535.16

#### Metadata

| Field        | Value    |
|--------------|----------|
| Entrypoint   | 0x0A65   |
| Data Size    | 10 bytes |
| Instructions | 2        |

```
      00 01 02 03 04 05 06 07  08 09 0A 0B 0C 0D 0E 0F
      -- -- -- -- -- -- -- --  -- -- -- -- -- -- -- --
0A60:                37 87 80  88 80 02 80 89 80 00          7......... 
```

#### Opcodes

```
  0: 0x0A65 [0x37] UPDATE_EVENT_POSITION_AND_DIR: x=-43.412*, z=83.130*, y=7.999*, direction=108.7°*
  1: 0x0A6E [0x00] END_REQSTACK()
```

### Event 65535.17

#### Metadata

| Field        | Value   |
|--------------|---------|
| Entrypoint   | 0x0A6F  |
| Data Size    | 6 bytes |
| Instructions | 2       |

```
      00 01 02 03 04 05 06 07  08 09 0A 0B 0C 0D 0E 0F
      -- -- -- -- -- -- -- --  -- -- -- -- -- -- -- --
0A60:                                               03                 .
0A70: 02 10 0B 7F 00                                    .....           
```

#### Opcodes

```
  0: 0x0A6F [0x03] Work_Zone[2] = (Entity->Render.Flags01 >> 25) & 1
  1: 0x0A74 [0x00] END_REQSTACK()
```

### Event 65535.18

#### Metadata

| Field        | Value   |
|--------------|---------|
| Entrypoint   | 0x0A75  |
| Data Size    | 6 bytes |
| Instructions | 2       |

```
      00 01 02 03 04 05 06 07  08 09 0A 0B 0C 0D 0E 0F
      -- -- -- -- -- -- -- --  -- -- -- -- -- -- -- --
0A70:                03 09 10  07 7F 00                      ......     
```

#### Opcodes

```
  0: 0x0A75 [0x03] Work_Zone[9] = Entity->Race
  1: 0x0A7A [0x00] END_REQSTACK()
```

### Event 65535.19

#### Metadata

| Field        | Value   |
|--------------|---------|
| Entrypoint   | 0x0A7B  |
| Data Size    | 6 bytes |
| Instructions | 2       |

```
      00 01 02 03 04 05 06 07  08 09 0A 0B 0C 0D 0E 0F
      -- -- -- -- -- -- -- --  -- -- -- -- -- -- -- --
0A70:                                   03 02 10 06 7F             .....
0A80: 00                                                .               
```

#### Opcodes

```
  0: 0x0A7B [0x03] Work_Zone[2] = Entity->JobId (if LocalPlayer)
  1: 0x0A80 [0x00] END_REQSTACK()
```

### Event 65535.20

#### Metadata

| Field        | Value    |
|--------------|----------|
| Entrypoint   | 0x0A81   |
| Data Size    | 10 bytes |
| Instructions | 2        |

```
      00 01 02 03 04 05 06 07  08 09 0A 0B 0C 0D 0E 0F
      -- -- -- -- -- -- -- --  -- -- -- -- -- -- -- --
0A80:    37 8A 80 8B 80 02 80  8C 80 00                  7.........     
```

#### Opcodes

```
  0: 0x0A81 [0x37] UPDATE_EVENT_POSITION_AND_DIR: x=-44.918*, z=83.488*, y=7.999*, direction=12.0°*
  1: 0x0A8A [0x00] END_REQSTACK()
```

### Event 65535.21

#### Metadata

| Field        | Value    |
|--------------|----------|
| Entrypoint   | 0x0A8B   |
| Data Size    | 24 bytes |
| Instructions | 4        |

```
      00 01 02 03 04 05 06 07  08 09 0A 0B 0C 0D 0E 0F
      -- -- -- -- -- -- -- --  -- -- -- -- -- -- -- --
0A80:                                   03 00 00 07 7F             .....
0A90: 1A 2F 0B 66 01 00 F8 FF  FF 7F F8 FF FF 7F 74 6C  ./.f..........tl
0AA0: 6B 30 00                                          k0.             
```

#### Opcodes

```
  0: 0x0A8B [0x03] ExtData[1]->WorkLocal[0] = Entity->Race
  1: 0x0A90 [0x1A] CALL_SUBROUTINE(address=0x0B2F)
  2: 0x0A93 [0x66] LOAD_EXT_SCHEDULER_MAIN: Load scheduler "tlk0" with entities [EventEntity, EventEntity], work=ExtData[1]->WorkLocal[1]
  3: 0x0AA2 [0x00] END_REQSTACK()
```

### Event 65535.22

#### Metadata

| Field        | Value    |
|--------------|----------|
| Entrypoint   | 0x0AA3   |
| Data Size    | 24 bytes |
| Instructions | 4        |

```
      00 01 02 03 04 05 06 07  08 09 0A 0B 0C 0D 0E 0F
      -- -- -- -- -- -- -- --  -- -- -- -- -- -- -- --
0AA0:          03 00 00 07 7F  1A 2F 0B 66 01 00 F8 FF     ....../.f....
0AB0: FF 7F F8 FF FF 7F 74 6C  6B 31 00                 ......tlk1.     
```

#### Opcodes

```
  0: 0x0AA3 [0x03] ExtData[1]->WorkLocal[0] = Entity->Race
  1: 0x0AA8 [0x1A] CALL_SUBROUTINE(address=0x0B2F)
  2: 0x0AAB [0x66] LOAD_EXT_SCHEDULER_MAIN: Load scheduler "tlk1" with entities [EventEntity, EventEntity], work=ExtData[1]->WorkLocal[1]
  3: 0x0ABA [0x00] END_REQSTACK()
```

### Event 65535.23

#### Metadata

| Field        | Value    |
|--------------|----------|
| Entrypoint   | 0x0ABB   |
| Data Size    | 37 bytes |
| Instructions | 5        |

```
      00 01 02 03 04 05 06 07  08 09 0A 0B 0C 0D 0E 0F
      -- -- -- -- -- -- -- --  -- -- -- -- -- -- -- --
0AB0:                                   03 00 00 07 7F             .....
0AC0: 1A 2F 0B 66 01 00 F8 FF  FF 7F F8 FF FF 7F 73 69  ./.f..........si
0AD0: 74 30 53 F8 FF FF 7F F8  FF FF 7F 73 69 74 30 00  t0S........sit0.
```

#### Opcodes

```
  0: 0x0ABB [0x03] ExtData[1]->WorkLocal[0] = Entity->Race
  1: 0x0AC0 [0x1A] CALL_SUBROUTINE(address=0x0B2F)
  2: 0x0AC3 [0x66] LOAD_EXT_SCHEDULER_MAIN: Load scheduler "sit0" with entities [EventEntity, EventEntity], work=ExtData[1]->WorkLocal[1]
  3: 0x0AD2 [0x53] WAIT_SCHEDULER_TASK: Wait for scheduler "sit0" with entities [EventEntity, EventEntity]
  4: 0x0ADF [0x00] END_REQSTACK()
```

### Event 65535.24

#### Metadata

| Field        | Value    |
|--------------|----------|
| Entrypoint   | 0x0AE0   |
| Data Size    | 37 bytes |
| Instructions | 5        |

```
      00 01 02 03 04 05 06 07  08 09 0A 0B 0C 0D 0E 0F
      -- -- -- -- -- -- -- --  -- -- -- -- -- -- -- --
0AE0: 03 00 00 07 7F 1A 2F 0B  66 01 00 F8 FF FF 7F F8  ....../.f.......
0AF0: FF FF 7F 73 69 74 31 53  F8 FF FF 7F F8 FF FF 7F  ...sit1S........
0B00: 73 69 74 31 00                                    sit1.           
```

#### Opcodes

```
  0: 0x0AE0 [0x03] ExtData[1]->WorkLocal[0] = Entity->Race
  1: 0x0AE5 [0x1A] CALL_SUBROUTINE(address=0x0B2F)
  2: 0x0AE8 [0x66] LOAD_EXT_SCHEDULER_MAIN: Load scheduler "sit1" with entities [EventEntity, EventEntity], work=ExtData[1]->WorkLocal[1]
  3: 0x0AF7 [0x53] WAIT_SCHEDULER_TASK: Wait for scheduler "sit1" with entities [EventEntity, EventEntity]
  4: 0x0B04 [0x00] END_REQSTACK()
```

### Event 65535.25

#### Metadata

| Field        | Value     |
|--------------|-----------|
| Entrypoint   | 0x0B05    |
| Data Size    | 190 bytes |
| Instructions | 14        |

```
      00 01 02 03 04 05 06 07  08 09 0A 0B 0C 0D 0E 0F
      -- -- -- -- -- -- -- --  -- -- -- -- -- -- -- --
0B00:                03 00 00  07 7F 1A 2F 0B 66 01 00       ....../.f..
0B10: F8 FF FF 7F F8 FF FF 7F  74 6C 6B 30 1C 16 80 66  ........tlk0...f
0B20: 01 00 F8 FF FF 7F F8 FF  FF 7F 74 6C 6B 31 00 03  ..........tlk1..
0B30: 01 00 00 00 02 01 00 77  80 05 44 0B 08 01 00 18  .......w..D.....
0B40: 80 01 49 0B 08 01 00 6A  80 14 01 00 14 80 07 01  ..I....j........
0B50: 00 8D 80 1B 03 01 00 00  00 02 01 00 77 80 05 69  ............w..i
0B60: 0B 08 01 00 18 80 01 6E  0B 08 01 00 6A 80 14 01  .......n....j...
0B70: 00 14 80 07 01 00 8E 80  1B 03 01 00 00 00 02 01  ................
0B80: 00 77 80 05 8E 0B 08 01  00 18 80 01 93 0B 08 01  .w..............
0B90: 00 6A 80 14 01 00 14 80  07 01 00 8F 80 1B 03 01  .j..............
0BA0: 00 00 00 02 01 00 77 80  05 B3 0B 08 01 00 18 80  ......w.........
0BB0: 01 B8 0B 08 01 00 6A 80  14 01 00 14 80 07 01 00  ......j.........
0BC0: 90 80 1B                                          ...             
```

#### Opcodes

```
  0: 0x0B05 [0x03] ExtData[1]->WorkLocal[0] = Entity->Race
  1: 0x0B0A [0x1A] CALL_SUBROUTINE(address=0x0B2F)
  2: 0x0B0D [0x66] LOAD_EXT_SCHEDULER_MAIN: Load scheduler "tlk0" with entities [EventEntity, EventEntity], work=ExtData[1]->WorkLocal[1]
  3: 0x0B1C [0x1C] WAIT(60* ticks)
  4: 0x0B1F [0x66] LOAD_EXT_SCHEDULER_MAIN: Load scheduler "tlk1" with entities [EventEntity, EventEntity], work=ExtData[1]->WorkLocal[1]
  5: 0x0B2E [0x00] END_REQSTACK()

SUBROUTINE_0B2F:
  6: 0x0B2F [0x03] ExtData[1]->WorkLocal[1] = ExtData[1]->WorkLocal[0]
  7: 0x0B34 [0x02] IF !(ExtData[1]->WorkLocal[1] > 5*) GOTO 0x0B44
  8: 0x0B3C [0x08] ExtData[1]->WorkLocal[1] -= 1*
  9: 0x0B41 [0x01] GOTO 0x0B49
 10: 0x0B44 [0x08] ExtData[1]->WorkLocal[1] -= 2*

SUBROUTINE_0B49:
 11: 0x0B49 [0x14] ExtData[1]->WorkLocal[1] *= 10*
 12: 0x0B4E [0x07] ExtData[1]->WorkLocal[1] += 9*
 13: 0x0B53 [0x1B] RETURN
```

#### Data or dead code:

```
# Dead code (unreachable instructions):
     0x0B54 [0x03] ExtData[1]->WorkLocal[1] = ExtData[1]->WorkLocal[0]
     0x0B59 [0x02] IF !(ExtData[1]->WorkLocal[1] > 5*) GOTO 0x0B69
     0x0B61 [0x08] ExtData[1]->WorkLocal[1] -= 1*
     0x0B66 [0x01] GOTO 0x0B6E
     0x0B69 [0x08] ExtData[1]->WorkLocal[1] -= 2*
     0x0B6E [0x14] ExtData[1]->WorkLocal[1] *= 10*
     0x0B73 [0x07] ExtData[1]->WorkLocal[1] += 70*
     0x0B78 [0x1B] RETURN
     0x0B79 [0x03] ExtData[1]->WorkLocal[1] = ExtData[1]->WorkLocal[0]
     0x0B7E [0x02] IF !(ExtData[1]->WorkLocal[1] > 5*) GOTO 0x0B8E
     0x0B86 [0x08] ExtData[1]->WorkLocal[1] -= 1*
     0x0B8B [0x01] GOTO 0x0B93
     0x0B8E [0x08] ExtData[1]->WorkLocal[1] -= 2*
     0x0B93 [0x14] ExtData[1]->WorkLocal[1] *= 10*
     0x0B98 [0x07] ExtData[1]->WorkLocal[1] += 140*
     0x0B9D [0x1B] RETURN
     0x0B9E [0x03] ExtData[1]->WorkLocal[1] = ExtData[1]->WorkLocal[0]
     0x0BA3 [0x02] IF !(ExtData[1]->WorkLocal[1] > 5*) GOTO 0x0BB3
     0x0BAB [0x08] ExtData[1]->WorkLocal[1] -= 1*
     0x0BB0 [0x01] GOTO 0x0BB8
     0x0BB3 [0x08] ExtData[1]->WorkLocal[1] -= 2*
     0x0BB8 [0x14] ExtData[1]->WorkLocal[1] *= 10*
     0x0BBD [0x07] ExtData[1]->WorkLocal[1] += 210*
     0x0BC2 [0x1B] RETURN
```

### Event 56

#### Metadata

| Field        | Value    |
|--------------|----------|
| Entrypoint   | 0x0BC3   |
| Data Size    | 55 bytes |
| Instructions | 13       |

```
      00 01 02 03 04 05 06 07  08 09 0A 0B 0C 0D 0E 0F
      -- -- -- -- -- -- -- --  -- -- -- -- -- -- -- --
0BC0:          42 20 01 48 91  80 23 24 18 80 18 80 0E     B .H..#$.....
0BD0: 80 25 02 00 10 0E 80 00  E2 0B 03 01 10 0E 80 01  .%..............
0BE0: E7 0B 03 01 10 18 80 45  0D 80 F0 FF FF 7F F0 FF  .......E........
0BF0: FF 7F 66 64 69 30 0E 80  21 00                    ..fdi0..!.      
```

#### Opcodes

```
  0: 0x0BC3 [0x42] SET_CLI_EVENT_CANCEL_DATA()
  1: 0x0BC4 [0x20] SET_CLI_EVENT_UC_FLAG: Lock player control
  2: 0x0BC6 [0x48] [System] [10062*]:
    → "For your own safety, it is recommended that you set this location as your home point after changing jobs."
  3: 0x0BC9 [0x23] WAIT_FOR_DIALOG_INTERACTION
  4: 0x0BCA [0x24] CREATE_DIALOG(message_id=1*, default_option=1*, option_flags=0*)
    → "Set this as current home point? [Yes./No.]"
  5: 0x0BD1 [0x25] WAIT_DIALOG_SELECT()
  6: 0x0BD2 [0x02] IF !(Work_Zone[0] == 0*) GOTO 0x0BE2
  7: 0x0BDA [0x03] Work_Zone[1] = 0*
  8: 0x0BDF [0x01] GOTO 0x0BE7
  9: 0x0BE2 [0x03] Work_Zone[1] = 1*

SUBROUTINE_0BE7:
 10: 0x0BE7 [0x45] LOAD_SCHEDULED_TASK: Load scheduler "fdi0" with entities [LocalPlayer, LocalPlayer], work=[200*, 0*]
 11: 0x0BF8 [0x21] END_EVENT
 12: 0x0BF9 [0x00] END_REQSTACK()
```

### Event 65535.26

#### Metadata

| Field        | Value    |
|--------------|----------|
| Entrypoint   | 0x0BFA   |
| Data Size    | 27 bytes |
| Instructions | 3        |

```
      00 01 02 03 04 05 06 07  08 09 0A 0B 0C 0D 0E 0F
      -- -- -- -- -- -- -- --  -- -- -- -- -- -- -- --
0BF0:                                2C F8 FF FF 7F F8            ,.....
0C00: FF FF 7F 63 6F 72 70 53  F8 FF FF 7F F8 FF FF 7F  ...corpS........
0C10: 63 6F 72 70 00                                    corp.           
```

#### Opcodes

```
  0: 0x0BFA [0x2C] CREATE_SCHEDULER_TASK: Create scheduler "corp" with entities [EventEntity, EventEntity]
  1: 0x0C07 [0x53] WAIT_SCHEDULER_TASK: Wait for scheduler "corp" with entities [EventEntity, EventEntity]
  2: 0x0C14 [0x00] END_REQSTACK()
```

### Event 65535.27

#### Metadata

| Field        | Value    |
|--------------|----------|
| Entrypoint   | 0x0C15   |
| Data Size    | 14 bytes |
| Instructions | 4        |

```
      00 01 02 03 04 05 06 07  08 09 0A 0B 0C 0D 0E 0F
      -- -- -- -- -- -- -- --  -- -- -- -- -- -- -- --
0C10:                32 92 80  1F 00 93 80 94 80 06 80       2..........
0C20: 1F 01 00                                          ...             
```

#### Opcodes

```
  0: 0x0C15 [0x32] ExtData[1]->MainSpeed = 13* * 0.1
  1: 0x0C18 [0x1F] MOVE_ENTITY: EventEntity moves to X=16.235*, Z=8.217*, Y=8.000*
  2: 0x0C20 [0x1F] MOVE_ENTITY: Update entity position (mode=1)
  3: 0x0C22 [0x00] END_REQSTACK()
```

### Event 65535.28

#### Metadata

| Field        | Value    |
|--------------|----------|
| Entrypoint   | 0x0C23   |
| Data Size    | 29 bytes |
| Instructions | 5        |

```
      00 01 02 03 04 05 06 07  08 09 0A 0B 0C 0D 0E 0F
      -- -- -- -- -- -- -- --  -- -- -- -- -- -- -- --
0C20:          03 00 00 07 7F  1A 79 0B 07 01 00 8D 80     ......y......
0C30: 66 01 00 F8 FF FF 7F F8  FF FF 7F 74 6C 6B 30 00  f..........tlk0.
```

#### Opcodes

```
  0: 0x0C23 [0x03] ExtData[1]->WorkLocal[0] = Entity->Race
  1: 0x0C28 [0x1A] CALL_SUBROUTINE(address=0x0B79)
  2: 0x0C2B [0x07] ExtData[1]->WorkLocal[1] += 9*
  3: 0x0C30 [0x66] LOAD_EXT_SCHEDULER_MAIN: Load scheduler "tlk0" with entities [EventEntity, EventEntity], work=ExtData[1]->WorkLocal[1]
  4: 0x0C3F [0x00] END_REQSTACK()
```

### Event 65535.29

#### Metadata

| Field        | Value    |
|--------------|----------|
| Entrypoint   | 0x0C40   |
| Data Size    | 29 bytes |
| Instructions | 5        |

```
      00 01 02 03 04 05 06 07  08 09 0A 0B 0C 0D 0E 0F
      -- -- -- -- -- -- -- --  -- -- -- -- -- -- -- --
0C40: 03 00 00 07 7F 1A 79 0B  07 01 00 8D 80 66 01 00  ......y......f..
0C50: F8 FF FF 7F F8 FF FF 7F  74 6C 6B 31 00           ........tlk1.   
```

#### Opcodes

```
  0: 0x0C40 [0x03] ExtData[1]->WorkLocal[0] = Entity->Race
  1: 0x0C45 [0x1A] CALL_SUBROUTINE(address=0x0B79)
  2: 0x0C48 [0x07] ExtData[1]->WorkLocal[1] += 9*
  3: 0x0C4D [0x66] LOAD_EXT_SCHEDULER_MAIN: Load scheduler "tlk1" with entities [EventEntity, EventEntity], work=ExtData[1]->WorkLocal[1]
  4: 0x0C5C [0x00] END_REQSTACK()
```

### Event 65535.30

#### Metadata

| Field        | Value    |
|--------------|----------|
| Entrypoint   | 0x0C5D   |
| Data Size    | 19 bytes |
| Instructions | 5        |

```
      00 01 02 03 04 05 06 07  08 09 0A 0B 0C 0D 0E 0F
      -- -- -- -- -- -- -- --  -- -- -- -- -- -- -- --
0C50:                                         32 92 80               2..
0C60: 1F 00 95 80 96 80 97 80  1F 01 1E 60 70 0F 01 00  ...........`p...
```

#### Opcodes

```
  0: 0x0C5D [0x32] ExtData[1]->MainSpeed = 13* * 0.1
  1: 0x0C60 [0x1F] MOVE_ENTITY: EventEntity moves to X=-30.000*, Z=33.900*, Y=8.050*
  2: 0x0C68 [0x1F] MOVE_ENTITY: Update entity position (mode=1)
  3: 0x0C6A [0x1E] EventEntity looks at Unnamed NPC (ID: 17789024/0x010F7060) and starts talking
  4: 0x0C6F [0x00] END_REQSTACK()
```

### Event 65535.31

#### Metadata

| Field        | Value     |
|--------------|-----------|
| Entrypoint   | 0x0C70    |
| Data Size    | 353 bytes |
| Instructions | 41        |

```
      00 01 02 03 04 05 06 07  08 09 0A 0B 0C 0D 0E 0F
      -- -- -- -- -- -- -- --  -- -- -- -- -- -- -- --
0C70: 02 87 7F 18 80 80 9C 0C  66 98 80 F0 FF FF 7F F0  ........f.......
0C80: FF FF 7F 74 6C 6B 30 1C  3E 80 66 98 80 F0 FF FF  ...tlk0.>.f.....
0C90: 7F F0 FF FF 7F 74 6C 6B  31 01 D0 0D 02 87 7F 6A  .....tlk1......j
0CA0: 80 80 C8 0C 66 99 80 F0  FF FF 7F F0 FF FF 7F 74  ....f..........t
0CB0: 6C 6B 30 1C 3E 80 66 99  80 F0 FF FF 7F F0 FF FF  lk0.>.f.........
0CC0: 7F 74 6C 6B 31 01 D0 0D  02 87 7F 0F 80 80 F4 0C  .tlk1...........
0CD0: 66 9A 80 F0 FF FF 7F F0  FF FF 7F 74 6C 6B 30 1C  f..........tlk0.
0CE0: 3E 80 66 9A 80 F0 FF FF  7F F0 FF FF 7F 74 6C 6B  >.f..........tlk
0CF0: 31 01 D0 0D 02 87 7F 73  80 80 20 0D 66 9B 80 F0  1......s.. .f...
0D00: FF FF 7F F0 FF FF 7F 74  6C 6B 30 1C 3E 80 66 9B  .......tlk0.>.f.
0D10: 80 F0 FF FF 7F F0 FF FF  7F 74 6C 6B 31 01 D0 0D  .........tlk1...
0D20: 02 87 7F 77 80 80 4C 0D  66 9C 80 F0 FF FF 7F F0  ...w..L.f.......
0D30: FF FF 7F 74 6C 6B 30 1C  3E 80 66 9C 80 F0 FF FF  ...tlk0.>.f.....
0D40: 7F F0 FF FF 7F 74 6C 6B  31 01 D0 0D 02 87 7F 9D  .....tlk1.......
0D50: 80 80 78 0D 66 9C 80 F0  FF FF 7F F0 FF FF 7F 74  ..x.f..........t
0D60: 6C 6B 30 1C 3E 80 66 9C  80 F0 FF FF 7F F0 FF FF  lk0.>.f.........
0D70: 7F 74 6C 6B 31 01 D0 0D  02 87 7F 9E 80 80 A4 0D  .tlk1...........
0D80: 66 9F 80 F0 FF FF 7F F0  FF FF 7F 74 6C 6B 30 1C  f..........tlk0.
0D90: 3E 80 66 9F 80 F0 FF FF  7F F0 FF FF 7F 74 6C 6B  >.f..........tlk
0DA0: 31 01 D0 0D 02 87 7F A0  80 80 D0 0D 66 65 80 F0  1...........fe..
0DB0: FF FF 7F F0 FF FF 7F 74  6C 6B 30 1C 3E 80 66 65  .......tlk0.>.fe
0DC0: 80 F0 FF FF 7F F0 FF FF  7F 74 6C 6B 31 01 D0 0D  .........tlk1...
0DD0: 00                                                .               
```

#### Opcodes

```
  0: 0x0C70 [0x02] IF !(LocalPlayer->Race == 1*) GOTO 0x0C9C
  1: 0x0C78 [0x66] LOAD_EXT_SCHEDULER_MAIN: Load scheduler "tlk0" with entities [LocalPlayer, LocalPlayer], work=149*
  2: 0x0C87 [0x1C] WAIT(120* ticks)
  3: 0x0C8A [0x66] LOAD_EXT_SCHEDULER_MAIN: Load scheduler "tlk1" with entities [LocalPlayer, LocalPlayer], work=149*
  4: 0x0C99 [0x01] GOTO 0x0DD0
  5: 0x0C9C [0x02] IF !(LocalPlayer->Race == 2*) GOTO 0x0CC8
  6: 0x0CA4 [0x66] LOAD_EXT_SCHEDULER_MAIN: Load scheduler "tlk0" with entities [LocalPlayer, LocalPlayer], work=159*
  7: 0x0CB3 [0x1C] WAIT(120* ticks)
  8: 0x0CB6 [0x66] LOAD_EXT_SCHEDULER_MAIN: Load scheduler "tlk1" with entities [LocalPlayer, LocalPlayer], work=159*
  9: 0x0CC5 [0x01] GOTO 0x0DD0
 10: 0x0CC8 [0x02] IF !(LocalPlayer->Race == 3*) GOTO 0x0CF4
 11: 0x0CD0 [0x66] LOAD_EXT_SCHEDULER_MAIN: Load scheduler "tlk0" with entities [LocalPlayer, LocalPlayer], work=169*
 12: 0x0CDF [0x1C] WAIT(120* ticks)
 13: 0x0CE2 [0x66] LOAD_EXT_SCHEDULER_MAIN: Load scheduler "tlk1" with entities [LocalPlayer, LocalPlayer], work=169*
 14: 0x0CF1 [0x01] GOTO 0x0DD0
 15: 0x0CF4 [0x02] IF !(LocalPlayer->Race == 4*) GOTO 0x0D20
 16: 0x0CFC [0x66] LOAD_EXT_SCHEDULER_MAIN: Load scheduler "tlk0" with entities [LocalPlayer, LocalPlayer], work=179*
 17: 0x0D0B [0x1C] WAIT(120* ticks)
 18: 0x0D0E [0x66] LOAD_EXT_SCHEDULER_MAIN: Load scheduler "tlk1" with entities [LocalPlayer, LocalPlayer], work=179*
 19: 0x0D1D [0x01] GOTO 0x0DD0
 20: 0x0D20 [0x02] IF !(LocalPlayer->Race == 5*) GOTO 0x0D4C
 21: 0x0D28 [0x66] LOAD_EXT_SCHEDULER_MAIN: Load scheduler "tlk0" with entities [LocalPlayer, LocalPlayer], work=189*
 22: 0x0D37 [0x1C] WAIT(120* ticks)
 23: 0x0D3A [0x66] LOAD_EXT_SCHEDULER_MAIN: Load scheduler "tlk1" with entities [LocalPlayer, LocalPlayer], work=189*
 24: 0x0D49 [0x01] GOTO 0x0DD0
 25: 0x0D4C [0x02] IF !(LocalPlayer->Race == 6*) GOTO 0x0D78
 26: 0x0D54 [0x66] LOAD_EXT_SCHEDULER_MAIN: Load scheduler "tlk0" with entities [LocalPlayer, LocalPlayer], work=189*
 27: 0x0D63 [0x1C] WAIT(120* ticks)
 28: 0x0D66 [0x66] LOAD_EXT_SCHEDULER_MAIN: Load scheduler "tlk1" with entities [LocalPlayer, LocalPlayer], work=189*
 29: 0x0D75 [0x01] GOTO 0x0DD0
 30: 0x0D78 [0x02] IF !(LocalPlayer->Race == 7*) GOTO 0x0DA4
 31: 0x0D80 [0x66] LOAD_EXT_SCHEDULER_MAIN: Load scheduler "tlk0" with entities [LocalPlayer, LocalPlayer], work=199*
 32: 0x0D8F [0x1C] WAIT(120* ticks)
 33: 0x0D92 [0x66] LOAD_EXT_SCHEDULER_MAIN: Load scheduler "tlk1" with entities [LocalPlayer, LocalPlayer], work=199*
 34: 0x0DA1 [0x01] GOTO 0x0DD0
 35: 0x0DA4 [0x02] IF !(LocalPlayer->Race == 8*) GOTO 0x0DD0
 36: 0x0DAC [0x66] LOAD_EXT_SCHEDULER_MAIN: Load scheduler "tlk0" with entities [LocalPlayer, LocalPlayer], work=209*
 37: 0x0DBB [0x1C] WAIT(120* ticks)
 38: 0x0DBE [0x66] LOAD_EXT_SCHEDULER_MAIN: Load scheduler "tlk1" with entities [LocalPlayer, LocalPlayer], work=209*
 39: 0x0DCD [0x01] GOTO 0x0DD0

SUBROUTINE_0DD0:
 40: 0x0DD0 [0x00] END_REQSTACK()
```

### Event 65535.32

#### Metadata

| Field        | Value     |
|--------------|-----------|
| Entrypoint   | 0x0DD1    |
| Data Size    | 212 bytes |
| Instructions | 26        |

```
      00 01 02 03 04 05 06 07  08 09 0A 0B 0C 0D 0E 0F
      -- -- -- -- -- -- -- --  -- -- -- -- -- -- -- --
0DD0:    02 87 7F 18 80 80 EB  0D 66 A1 80 F0 FF FF 7F   ........f......
0DE0: F0 FF FF 7F 70 61 73 30  01 A1 0E 02 87 7F 6A 80  ....pas0......j.
0DF0: 80 05 0E 66 A2 80 F0 FF  FF 7F F0 FF FF 7F 70 61  ...f..........pa
0E00: 73 30 01 A1 0E 02 87 7F  0F 80 80 1F 0E 66 A3 80  s0...........f..
0E10: F0 FF FF 7F F0 FF FF 7F  70 61 73 30 01 A1 0E 02  ........pas0....
0E20: 87 7F 73 80 80 39 0E 66  A4 80 F0 FF FF 7F F0 FF  ..s..9.f........
0E30: FF 7F 70 61 73 30 01 A1  0E 02 87 7F 77 80 80 53  ..pas0......w..S
0E40: 0E 66 A5 80 F0 FF FF 7F  F0 FF FF 7F 70 61 73 30  .f..........pas0
0E50: 01 A1 0E 02 87 7F 9D 80  80 6D 0E 66 A5 80 F0 FF  .........m.f....
0E60: FF 7F F0 FF FF 7F 70 61  73 30 01 A1 0E 02 87 7F  ......pas0......
0E70: 9E 80 80 87 0E 66 A6 80  F0 FF FF 7F F0 FF FF 7F  .....f..........
0E80: 70 61 73 30 01 A1 0E 02  87 7F A0 80 80 A1 0E 66  pas0...........f
0E90: A7 80 F0 FF FF 7F F0 FF  FF 7F 70 61 73 30 01 A1  ..........pas0..
0EA0: 0E 1C 60 80 00                                    ..`..           
```

#### Opcodes

```
  0: 0x0DD1 [0x02] IF !(LocalPlayer->Race == 1*) GOTO 0x0DEB
  1: 0x0DD9 [0x66] LOAD_EXT_SCHEDULER_MAIN: Load scheduler "pas0" with entities [LocalPlayer, LocalPlayer], work=71*
  2: 0x0DE8 [0x01] GOTO 0x0EA1
  3: 0x0DEB [0x02] IF !(LocalPlayer->Race == 2*) GOTO 0x0E05
  4: 0x0DF3 [0x66] LOAD_EXT_SCHEDULER_MAIN: Load scheduler "pas0" with entities [LocalPlayer, LocalPlayer], work=81*
  5: 0x0E02 [0x01] GOTO 0x0EA1
  6: 0x0E05 [0x02] IF !(LocalPlayer->Race == 3*) GOTO 0x0E1F
  7: 0x0E0D [0x66] LOAD_EXT_SCHEDULER_MAIN: Load scheduler "pas0" with entities [LocalPlayer, LocalPlayer], work=91*
  8: 0x0E1C [0x01] GOTO 0x0EA1
  9: 0x0E1F [0x02] IF !(LocalPlayer->Race == 4*) GOTO 0x0E39
 10: 0x0E27 [0x66] LOAD_EXT_SCHEDULER_MAIN: Load scheduler "pas0" with entities [LocalPlayer, LocalPlayer], work=101*
 11: 0x0E36 [0x01] GOTO 0x0EA1
 12: 0x0E39 [0x02] IF !(LocalPlayer->Race == 5*) GOTO 0x0E53
 13: 0x0E41 [0x66] LOAD_EXT_SCHEDULER_MAIN: Load scheduler "pas0" with entities [LocalPlayer, LocalPlayer], work=111*
 14: 0x0E50 [0x01] GOTO 0x0EA1
 15: 0x0E53 [0x02] IF !(LocalPlayer->Race == 6*) GOTO 0x0E6D
 16: 0x0E5B [0x66] LOAD_EXT_SCHEDULER_MAIN: Load scheduler "pas0" with entities [LocalPlayer, LocalPlayer], work=111*
 17: 0x0E6A [0x01] GOTO 0x0EA1
 18: 0x0E6D [0x02] IF !(LocalPlayer->Race == 7*) GOTO 0x0E87
 19: 0x0E75 [0x66] LOAD_EXT_SCHEDULER_MAIN: Load scheduler "pas0" with entities [LocalPlayer, LocalPlayer], work=121*
 20: 0x0E84 [0x01] GOTO 0x0EA1
 21: 0x0E87 [0x02] IF !(LocalPlayer->Race == 8*) GOTO 0x0EA1
 22: 0x0E8F [0x66] LOAD_EXT_SCHEDULER_MAIN: Load scheduler "pas0" with entities [LocalPlayer, LocalPlayer], work=131*
 23: 0x0E9E [0x01] GOTO 0x0EA1

SUBROUTINE_0EA1:
 24: 0x0EA1 [0x1C] WAIT(150* ticks)
 25: 0x0EA4 [0x00] END_REQSTACK()
```

### Event 65535.33

#### Metadata

| Field        | Value    |
|--------------|----------|
| Entrypoint   | 0x0EA5   |
| Data Size    | 30 bytes |
| Instructions | 5        |

```
      00 01 02 03 04 05 06 07  08 09 0A 0B 0C 0D 0E 0F
      -- -- -- -- -- -- -- --  -- -- -- -- -- -- -- --
0EA0:                03 00 00  07 7F 1A 79 0B 81 00 F8       ......y....
0EB0: FF FF 7F 66 01 00 F8 FF  FF 7F F8 FF FF 7F 6D 61  ...f..........ma
0EC0: 62 30 00                                          b0.             
```

#### Opcodes

```
  0: 0x0EA5 [0x03] ExtData[1]->WorkLocal[0] = Entity->Race
  1: 0x0EAA [0x1A] CALL_SUBROUTINE(address=0x0B79)
  2: 0x0EAD [0x81] SET_ENTITY_BLINKING(blink_flag=0x00, entity=EventEntity)
  3: 0x0EB3 [0x66] LOAD_EXT_SCHEDULER_MAIN: Load scheduler "mab0" with entities [EventEntity, EventEntity], work=ExtData[1]->WorkLocal[1]
  4: 0x0EC2 [0x00] END_REQSTACK()
```

### Event 65535.34

#### Metadata

| Field        | Value    |
|--------------|----------|
| Entrypoint   | 0x0EC3   |
| Data Size    | 43 bytes |
| Instructions | 6        |

```
      00 01 02 03 04 05 06 07  08 09 0A 0B 0C 0D 0E 0F
      -- -- -- -- -- -- -- --  -- -- -- -- -- -- -- --
0EC0:          03 00 00 07 7F  1A 79 0B 81 01 F8 FF FF     ......y......
0ED0: 7F 66 01 00 F8 FF FF 7F  F8 FF FF 7F 6D 61 62 31  .f..........mab1
0EE0: 53 F8 FF FF 7F F8 FF FF  7F 6D 61 62 31 00        S........mab1.  
```

#### Opcodes

```
  0: 0x0EC3 [0x03] ExtData[1]->WorkLocal[0] = Entity->Race
  1: 0x0EC8 [0x1A] CALL_SUBROUTINE(address=0x0B79)
  2: 0x0ECB [0x81] SET_ENTITY_BLINKING(blink_flag=0x01, entity=EventEntity)
  3: 0x0ED1 [0x66] LOAD_EXT_SCHEDULER_MAIN: Load scheduler "mab1" with entities [EventEntity, EventEntity], work=ExtData[1]->WorkLocal[1]
  4: 0x0EE0 [0x53] WAIT_SCHEDULER_TASK: Wait for scheduler "mab1" with entities [EventEntity, EventEntity]
  5: 0x0EED [0x00] END_REQSTACK()
```

### Event 65535.35

#### Metadata

| Field        | Value    |
|--------------|----------|
| Entrypoint   | 0x0EEE   |
| Data Size    | 15 bytes |
| Instructions | 5        |

```
      00 01 02 03 04 05 06 07  08 09 0A 0B 0C 0D 0E 0F
      -- -- -- -- -- -- -- --  -- -- -- -- -- -- -- --
0EE0:                                            32 92                2.
0EF0: 80 1F 00 A8 80 A9 80 06  80 1F 01 6F 00           ...........o.   
```

#### Opcodes

```
  0: 0x0EEE [0x32] ExtData[1]->MainSpeed = 13* * 0.1
  1: 0x0EF1 [0x1F] MOVE_ENTITY: EventEntity moves to X=5.658*, Z=77.779*, Y=8.000*
  2: 0x0EF9 [0x1F] MOVE_ENTITY: Update entity position (mode=1)
  3: 0x0EFB [0x6F] WAIT_FRAME_DELAY: Yield until WaitTime reaches zero
  4: 0x0EFC [0x00] END_REQSTACK()
```

### Event 173

#### Metadata

| Field        | Value    |
|--------------|----------|
| Entrypoint   | 0x0EFD   |
| Data Size    | 43 bytes |
| Instructions | 7        |

```
      00 01 02 03 04 05 06 07  08 09 0A 0B 0C 0D 0E 0F
      -- -- -- -- -- -- -- --  -- -- -- -- -- -- -- --
0EF0:                                         42 48 AA               BH.
0F00: 80 45 0D 80 F0 FF FF 7F  F0 FF FF 7F 66 64 6F 31  .E..........fdo1
0F10: 0E 80 62 18 80 F0 FF FF  7F F0 FF FF 7F 6D 61 69  ..b..........mai
0F20: 6E 0E 80 1C 45 80 21 00                           n...E.!.        
```

#### Opcodes

```
  0: 0x0EFD [0x42] SET_CLI_EVENT_CANCEL_DATA()
  1: 0x0EFE [0x48] [System] [12103*]:
    → "Entering [/Sheol A/Sheol B/Sheol C/Sheol: Gaol][/: Very Difficult/: Difficult/: Normal/: Easy/: Very Easy]."
  2: 0x0F01 [0x45] LOAD_SCHEDULED_TASK: Load scheduler "fdo1" with entities [LocalPlayer, LocalPlayer], work=[200*, 0*]
  3: 0x0F12 [0x62] LOAD_EVENT_SCHEDULER: Load scheduler "main" with entities [LocalPlayer, LocalPlayer], work=[1*, 0*]
  4: 0x0F23 [0x1C] WAIT(90* ticks)
  5: 0x0F26 [0x21] END_EVENT
  6: 0x0F27 [0x00] END_REQSTACK()
```

### Event 65535.36

#### Metadata

| Field        | Value    |
|--------------|----------|
| Entrypoint   | 0x0F28   |
| Data Size    | 15 bytes |
| Instructions | 5        |

```
      00 01 02 03 04 05 06 07  08 09 0A 0B 0C 0D 0E 0F
      -- -- -- -- -- -- -- --  -- -- -- -- -- -- -- --
0F20:                          32 92 80 1F 00 AB 80 AC          2.......
0F30: 80 02 80 1F 01 6F 00                              .....o.         
```

#### Opcodes

```
  0: 0x0F28 [0x32] ExtData[1]->MainSpeed = 13* * 0.1
  1: 0x0F2B [0x1F] MOVE_ENTITY: EventEntity moves to X=4.087*, Z=77.490*, Y=7.999*
  2: 0x0F33 [0x1F] MOVE_ENTITY: Update entity position (mode=1)
  3: 0x0F35 [0x6F] WAIT_FRAME_DELAY: Yield until WaitTime reaches zero
  4: 0x0F36 [0x00] END_REQSTACK()
```
