# Event 547

## Metadata

| Field           | Value    |
|-----------------|----------|
| Event Index     | 10/14    |
| Offset          | 0x00E4   |
| Data Size       | 43 bytes |
| Calculated Size | 43 bytes |
| Instructions    | 13       |

```
      00 01 02 03 04 05 06 07  08 09 0A 0B 0C 0D 0E 0F
      -- -- -- -- -- -- -- --  -- -- -- -- -- -- -- --
00E0:             1E F0 FF FF  7F 6F 70 66 04 80 08 80      .....opf....
00F0: 0E 01 08 80 0E 01 74 6C  6B 30 1D 16 80 23 1C 12  ......tlk0...#..
0100: 80 1D 17 80 23 5E 69 64  6C 30 1C 12 80 21 00     ....#^idl0...!. 
```

## Opcodes

```
  0: 0x00E4 [0x1E] EventEntity looks at LocalPlayer and starts talking
  1: 0x00E9 [0x6F] WAIT_FRAME_DELAY: Yield until WaitTime reaches zero
  2: 0x00EA [0x70] WAIT_ENTITY_RENDER_FLAG: Wait while EventEntity->Render.Flags3 bit 2 is set (cancel turn if not)
  3: 0x00EB [0x66] LOAD_EXT_SCHEDULER_MAIN(work_offset=20*, entity1=Altiret (ID: 17727496/0x010E8008), entity2=Altiret (ID: 17727496/0x010E8008), action="tlk0")
  4: 0x00FA [0x1D] PRINT_EVENT_MESSAGE(message_id=7477*)
    → "You...saw her didn't you? The pickpocket?\u007F1\u0000\u0007"
  5: 0x00FD [0x23] WAIT_FOR_DIALOG_INTERACTION
  6: 0x00FE [0x1C] WAIT(30* ticks)
  7: 0x0101 [0x1D] PRINT_EVENT_MESSAGE(message_id=7478*)
    → "She copped my gold-rimmed glasses! They belonged to my wife. Please get them back!\u007F1\u0000\u0007"
  8: 0x0104 [0x23] WAIT_FOR_DIALOG_INTERACTION
  9: 0x0105 [0x5E] EventEntity goes idle (kills current action) (animation: "idl0")
 10: 0x010A [0x1C] WAIT(30* ticks)
 11: 0x010D [0x21] END_EVENT
 12: 0x010E [0x00] END_REQSTACK()
```
