# Event 551

## Metadata

| Field           | Value    |
|-----------------|----------|
| Event Index     | 12/14    |
| Offset          | 0x0171   |
| Data Size       | 41 bytes |
| Calculated Size | 41 bytes |
| Instructions    | 13       |

```
      00 01 02 03 04 05 06 07  08 09 0A 0B 0C 0D 0E 0F
      -- -- -- -- -- -- -- --  -- -- -- -- -- -- -- --
0170:    42 20 01 1E F0 FF FF  7F 6F 70 66 04 80 08 80   B ......opf....
0180: 0E 01 08 80 0E 01 74 6C  6B 30 1D 1D 80 23 5E 69  ......tlk0...#^i
0190: 64 6C 30 1C 12 80 20 00  21 00                    dl0... .!.      
```

## Opcodes

```
  0: 0x0171 [0x42] SET_CLI_EVENT_CANCEL_DATA()
  1: 0x0172 [0x20] SET_CLI_EVENT_UC_FLAG: Lock player control
  2: 0x0174 [0x1E] EventEntity looks at LocalPlayer and starts talking
  3: 0x0179 [0x6F] WAIT_FRAME_DELAY: Yield until WaitTime reaches zero
  4: 0x017A [0x70] WAIT_ENTITY_RENDER_FLAG: Wait while EventEntity->Render.Flags3 bit 2 is set (cancel turn if not)
  5: 0x017B [0x66] LOAD_EXT_SCHEDULER_MAIN: Load scheduler "tlk0" with entities [Altiret (ID: 17727496/0x010E8008), Altiret (ID: 17727496/0x010E8008)], work=20*
  6: 0x018A [0x1D] PRINT_EVENT_MESSAGE(message_id=7501*)
    → "This isn't mine! I thank you, but you'd better keep it.\u007F1\u0000\u0007"
  7: 0x018D [0x23] WAIT_FOR_DIALOG_INTERACTION
  8: 0x018E [0x5E] EventEntity goes idle (kills current action) (animation: "idl0")
  9: 0x0193 [0x1C] WAIT(30* ticks)
 10: 0x0196 [0x20] SET_CLI_EVENT_UC_FLAG: Unlock player control
 11: 0x0198 [0x21] END_EVENT
 12: 0x0199 [0x00] END_REQSTACK()
```
