# Event 559

## Metadata

| Field           | Value    |
|-----------------|----------|
| Event Index     | 6/14     |
| Offset          | 0x0068   |
| Data Size       | 43 bytes |
| Calculated Size | 43 bytes |
| Instructions    | 13       |

```
      00 01 02 03 04 05 06 07  08 09 0A 0B 0C 0D 0E 0F
      -- -- -- -- -- -- -- --  -- -- -- -- -- -- -- --
0060:                          1E F0 FF FF 7F 6F 70 66          .....opf
0070: 04 80 08 80 0E 01 08 80  0E 01 74 6C 6B 30 1D 11  ..........tlk0..
0080: 80 23 1C 12 80 1D 13 80  23 5E 69 64 6C 30 1C 12  .#......#^idl0..
0090: 80 21 00                                          .!.             
```

## Opcodes

```
  0: 0x0068 [0x1E] EventEntity looks at LocalPlayer and starts talking
  1: 0x006D [0x6F] WAIT_FRAME_DELAY: Yield until WaitTime reaches zero
  2: 0x006E [0x70] WAIT_ENTITY_RENDER_FLAG: Wait while EventEntity->Render.Flags3 bit 2 is set (cancel turn if not)
  3: 0x006F [0x66] LOAD_EXT_SCHEDULER_MAIN(work_offset=20*, entity1=Altiret (ID: 17727496/0x010E8008), entity2=Altiret (ID: 17727496/0x010E8008), action="tlk0")
  4: 0x007E [0x1D] PRINT_EVENT_MESSAGE(message_id=7475*)
    → "Hello there, I am Altiret. I'm here to catch things on the airship hulls: fiends, and worse.\u007F1\u0000\u0007"
  5: 0x0081 [0x23] WAIT_FOR_DIALOG_INTERACTION
  6: 0x0082 [0x1C] WAIT(30* ticks)
  7: 0x0085 [0x1D] PRINT_EVENT_MESSAGE(message_id=7476*)
    → "That's why they need port guards like me. Day and night we stand here. But hardship is naught to an Elvaan knight!\u007F1\u0000\u0007"
  8: 0x0088 [0x23] WAIT_FOR_DIALOG_INTERACTION
  9: 0x0089 [0x5E] EventEntity goes idle (kills current action) (animation: "idl0")
 10: 0x008E [0x1C] WAIT(30* ticks)
 11: 0x0091 [0x21] END_EVENT
 12: 0x0092 [0x00] END_REQSTACK()
```
