# Event 65535

## Metadata

| Field           | Value    |
|-----------------|----------|
| Event Index     | 9/14     |
| Offset          | 0x00B4   |
| Data Size       | 48 bytes |
| Calculated Size | 48 bytes |
| Instructions    | 6        |

```
      00 01 02 03 04 05 06 07  08 09 0A 0B 0C 0D 0E 0F
      -- -- -- -- -- -- -- --  -- -- -- -- -- -- -- --
00B0:             66 04 80 08  80 0E 01 08 80 0E 01 70      f..........p
00C0: 6F 69 31 1D 15 80 23 66  04 80 08 80 0E 01 08 80  oi1...#f........
00D0: 0E 01 70 6F 69 32 53 08  80 0E 01 08 80 0E 01 70  ..poi2S........p
00E0: 6F 69 32 00                                       oi2.            
```

## Opcodes

```
  0: 0x00B4 [0x66] LOAD_EXT_SCHEDULER_MAIN(work_offset=20*, entity1=Altiret (ID: 17727496/0x010E8008), entity2=Altiret (ID: 17727496/0x010E8008), action="poi1")
  1: 0x00C3 [0x1D] PRINT_EVENT_MESSAGE(message_id=7471*)
    → "I've been had! Stop that thief!\u007F1\u0000\u0007"
  2: 0x00C6 [0x23] WAIT_FOR_DIALOG_INTERACTION
  3: 0x00C7 [0x66] LOAD_EXT_SCHEDULER_MAIN(work_offset=20*, entity1=Altiret (ID: 17727496/0x010E8008), entity2=Altiret (ID: 17727496/0x010E8008), action="poi2")
  4: 0x00D6 [0x53] WAIT_SCHEDULER_TASK(entity1=Altiret (ID: 17727496/0x010E8008), entity2=Altiret (ID: 17727496/0x010E8008), action_id="poi2")
  5: 0x00E3 [0x00] END_REQSTACK()
```
