# Event 452

## Metadata

| Field           | Value    |
|-----------------|----------|
| Event Index     | 33/34    |
| Offset          | 0x02A5   |
| Data Size       | 33 bytes |
| Calculated Size | 33 bytes |
| Instructions    | 12       |

```
      00 01 02 03 04 05 06 07  08 09 0A 0B 0C 0D 0E 0F
      -- -- -- -- -- -- -- --  -- -- -- -- -- -- -- --
02A0:                1E F0 FF  FF 7F 6F 70 29 08 3F E0       .....op).?.
02B0: 0E 01 07 1D 20 80 23 1D  21 80 23 29 08 3F E0 0E  .... .#.!.#).?..
02C0: 01 08 20 00 21 00                                 .. .!.          
```

## Opcodes

```
  0: 0x02A5 [0x1E] EventEntity looks at LocalPlayer and starts talking
  1: 0x02AA [0x6F] WAIT_FRAME_DELAY: Yield until WaitTime reaches zero
  2: 0x02AB [0x70] WAIT_ENTITY_RENDER_FLAG: Wait while EventEntity->Render.Flags3 bit 2 is set (cancel turn if not)
  3: 0x02AC [0x29] REQ_SET_WAIT(priority=0x08, entity_id=Paku-Nakku (ID: 17752127/0x010EE03F), tag_num=0x07)
  4: 0x02B3 [0x1D] PRINT_EVENT_MESSAGE(message_id=8403*)
    → "Argh! Don't speak to me about that written test. I failed it totally, dude.\u007F1\u0000\u0007"
  5: 0x02B6 [0x23] WAIT_FOR_DIALOG_INTERACTION
  6: 0x02B7 [0x1D] PRINT_EVENT_MESSAGE(message_id=8404*)
    → "Once that test comes back, they're gonna make me study like crazy. Ahh...I wish that test would never come back!\u007F1\u0000\u0007"
  7: 0x02BA [0x23] WAIT_FOR_DIALOG_INTERACTION
  8: 0x02BB [0x29] REQ_SET_WAIT(priority=0x08, entity_id=Paku-Nakku (ID: 17752127/0x010EE03F), tag_num=0x08)
  9: 0x02C2 [0x20] SET_CLI_EVENT_UC_FLAG: Unlock player control
 10: 0x02C4 [0x21] END_EVENT
 11: 0x02C5 [0x00] END_REQSTACK()
```
