# Event 467

## Metadata

| Field           | Value    |
|-----------------|----------|
| Event Index     | 34/34    |
| Offset          | 0x02C6   |
| Data Size       | 33 bytes |
| Calculated Size | 33 bytes |
| Instructions    | 12       |

```
      00 01 02 03 04 05 06 07  08 09 0A 0B 0C 0D 0E 0F
      -- -- -- -- -- -- -- --  -- -- -- -- -- -- -- --
02C0:                   1E F0  FF FF 7F 6F 70 29 08 3F        .....op).?
02D0: E0 0E 01 07 1D 22 80 23  1D 23 80 23 29 08 3F E0  .....".#.#.#).?.
02E0: 0E 01 08 20 00 21 00                              ... .!.         
```

## Opcodes

```
  0: 0x02C6 [0x1E] EventEntity looks at LocalPlayer and starts talking
  1: 0x02CB [0x6F] WAIT_FRAME_DELAY: Yield until WaitTime reaches zero
  2: 0x02CC [0x70] WAIT_ENTITY_RENDER_FLAG: Wait while EventEntity->Render.Flags3 bit 2 is set (cancel turn if not)
  3: 0x02CD [0x29] REQ_SET_WAIT(priority=0x08, entity_id=Paku-Nakku (ID: 17752127/0x010EE03F), tag_num=0x07)
  4: 0x02D4 [0x1D] PRINT_EVENT_MESSAGE(message_id=8441*)
    → "Gardening is so easy, even gnomes could do it! All you have to do is throw the seeds into a pot and forget about them, right?\u007F1\u0000\u0007"
  5: 0x02D7 [0x23] WAIT_FOR_DIALOG_INTERACTION
  6: 0x02D8 [0x1D] PRINT_EVENT_MESSAGE(message_id=8442*)
    → "Whaddaya mean I'm wrong?\u0007So, I need to cast some spell on it or something? What, like \u00072Open Sesame\u00073 or something?\u007F1\u0000\u0007"
  7: 0x02DB [0x23] WAIT_FOR_DIALOG_INTERACTION
  8: 0x02DC [0x29] REQ_SET_WAIT(priority=0x08, entity_id=Paku-Nakku (ID: 17752127/0x010EE03F), tag_num=0x08)
  9: 0x02E3 [0x20] SET_CLI_EVENT_UC_FLAG: Unlock player control
 10: 0x02E5 [0x21] END_EVENT
 11: 0x02E6 [0x00] END_REQSTACK()
```
