# Event 538

## Metadata

| Field           | Value    |
|-----------------|----------|
| Event Index     | 14/38    |
| Offset          | 0x00D6   |
| Data Size       | 44 bytes |
| Calculated Size | 44 bytes |
| Instructions    | 8        |

```
      00 01 02 03 04 05 06 07  08 09 0A 0B 0C 0D 0E 0F
      -- -- -- -- -- -- -- --  -- -- -- -- -- -- -- --
00D0:                   1E F0  FF FF 7F 1C 00 80 66 01        ........f.
00E0: 80 2C 21 03 01 2C 21 03  01 74 68 6B 31 1D 1B 80  .,!..,!..thk1...
00F0: 23 66 01 80 2C 21 03 01  2C 21 03 01 74 68 6B 32  #f..,!..,!..thk2
0100: 21 00                                             !.              
```

## Opcodes

```
  0: 0x00D6 [0x1E] EventEntity looks at LocalPlayer and starts talking
  1: 0x00DB [0x1C] WAIT(30* ticks)
  2: 0x00DE [0x66] LOAD_EXT_SCHEDULER_MAIN(work_offset=20*, entity1=Zabahf (ID: 16982316/0x0103212C), entity2=Zabahf (ID: 16982316/0x0103212C), action="thk1")
  3: 0x00ED [0x1D] PRINT_EVENT_MESSAGE(message_id=5056*)
    → "Fixing someone's materialism with a potion? What a curious old lady! I smell a rat.\u007F1\u0000\u0007"
  4: 0x00F0 [0x23] WAIT_FOR_DIALOG_INTERACTION
  5: 0x00F1 [0x66] LOAD_EXT_SCHEDULER_MAIN(work_offset=20*, entity1=Zabahf (ID: 16982316/0x0103212C), entity2=Zabahf (ID: 16982316/0x0103212C), action="thk2")
  6: 0x0100 [0x21] END_EVENT
  7: 0x0101 [0x00] END_REQSTACK()
```
