# Event 65535

## Metadata

| Field           | Value    |
|-----------------|----------|
| Event Index     | 38/38    |
| Offset          | 0x024E   |
| Data Size       | 54 bytes |
| Calculated Size | 54 bytes |
| Instructions    | 8        |

```
      00 01 02 03 04 05 06 07  08 09 0A 0B 0C 0D 0E 0F
      -- -- -- -- -- -- -- --  -- -- -- -- -- -- -- --
0240:                                            66 01                f.
0250: 80 F8 FF FF 7F F8 FF FF  7F 74 6C 6B 30 1D 47 80  .........tlk0.G.
0260: 23 66 01 80 F8 FF FF 7F  F8 FF FF 7F 74 6C 6B 31  #f..........tlk1
0270: 66 01 80 F8 FF FF 7F F8  FF FF 7F 74 68 6B 31 1D  f..........thk1.
0280: 48 80 23 00                                       H.#.            
```

## Opcodes

```
  0: 0x024E [0x66] LOAD_EXT_SCHEDULER_MAIN: Load scheduler "tlk0" with entities [EventEntity, EventEntity], work=20*
  1: 0x025D [0x1D] PRINT_EVENT_MESSAGE(message_id=7285*)
    → "I can't get enough of this show! No matter how many times I see that adorable puppet pirouette, I always find myself coming back for more.\u007F1\u0000\u0007"
  2: 0x0260 [0x23] WAIT_FOR_DIALOG_INTERACTION
  3: 0x0261 [0x66] LOAD_EXT_SCHEDULER_MAIN: Load scheduler "tlk1" with entities [EventEntity, EventEntity], work=20*
  4: 0x0270 [0x66] LOAD_EXT_SCHEDULER_MAIN: Load scheduler "thk1" with entities [EventEntity, EventEntity], work=20*
  5: 0x027F [0x1D] PRINT_EVENT_MESSAGE(message_id=7286*)
    → "What is this? My wallet seems to have misplaced itself... Perhaps it stayed at home...\u007F1\u0000\u0007"
  6: 0x0282 [0x23] WAIT_FOR_DIALOG_INTERACTION
  7: 0x0283 [0x00] END_REQSTACK()
```
