# 0x7FFFFFF0 - Zone Events

## Common Data

| Field            | Value                        |
|------------------|------------------------------|
| Zone             | Riverne - Site #B01 (ID: 29) |
| Block Size       | 14528 bytes                  |
| Total Events     | 52                           |
| References Count | 347                          |

## List of Events

| Event ID                 | Entrypoint   |   Size |   Instructions |
|--------------------------|--------------|--------|----------------|
| [65535](#event-65535)    | 0x0000       |      1 |              1 |
| [65534](#event-65534)    | 0x0001       |      1 |              1 |
| [32000](#event-32000)    | 0x0002       |   2116 |            412 |
| [32002](#event-32002)    | 0x0846       |    494 |             83 |
| [32001](#event-32001)    | 0x0A34       |   1033 |            179 |
| [32003](#event-32003)    | 0x0E3D       |    435 |             77 |
| [32004](#event-32004)    | 0x0FF0       |   2925 |            349 |
| [2](#event-2)            | 0x1B5D       |    149 |             27 |
| [3](#event-3)            | 0x1BF2       |    149 |             27 |
| [4](#event-4)            | 0x1C87       |    149 |             27 |
| [5](#event-5)            | 0x1D1C       |    149 |             27 |
| [6](#event-6)            | 0x1DB1       |    149 |             27 |
| [7](#event-7)            | 0x1E46       |    149 |             27 |
| [8](#event-8)            | 0x1EDB       |    149 |             27 |
| [9](#event-9)            | 0x1F70       |    149 |             27 |
| [10](#event-10)          | 0x2005       |     90 |             20 |
| [11](#event-11)          | 0x205F       |    149 |             27 |
| [12](#event-12)          | 0x20F4       |    149 |             27 |
| [13](#event-13)          | 0x2189       |    149 |             27 |
| [14](#event-14)          | 0x221E       |    149 |             27 |
| [15](#event-15)          | 0x22B3       |    149 |             27 |
| [16](#event-16)          | 0x2348       |    149 |             27 |
| [17](#event-17)          | 0x23DD       |    149 |             27 |
| [18](#event-18)          | 0x2472       |    149 |             27 |
| [19](#event-19)          | 0x2507       |    149 |             27 |
| [20](#event-20)          | 0x259C       |    149 |             27 |
| [21](#event-21)          | 0x2631       |    149 |             27 |
| [22](#event-22)          | 0x26C6       |    149 |             27 |
| [23](#event-23)          | 0x275B       |    149 |             27 |
| [24](#event-24)          | 0x27F0       |    149 |             27 |
| [25](#event-25)          | 0x2885       |    149 |             27 |
| [26](#event-26)          | 0x291A       |    149 |             27 |
| [27](#event-27)          | 0x29AF       |    149 |             27 |
| [28](#event-28)          | 0x2A44       |    149 |             27 |
| [29](#event-29)          | 0x2AD9       |    149 |             27 |
| [30](#event-30)          | 0x2B6E       |    149 |             27 |
| [31](#event-31)          | 0x2C03       |    149 |             27 |
| [32](#event-32)          | 0x2C98       |    149 |             27 |
| [33](#event-33)          | 0x2D2D       |     90 |             20 |
| [34](#event-34)          | 0x2D87       |    114 |             20 |
| [35](#event-35)          | 0x2DF9       |    149 |             27 |
| [36](#event-36)          | 0x2E8E       |    149 |             27 |
| [37](#event-37)          | 0x2F23       |    149 |             27 |
| [38](#event-38)          | 0x2FB8       |    149 |             27 |
| [39](#event-39)          | 0x304D       |    149 |             27 |
| [40](#event-40)          | 0x30E2       |    149 |             27 |
| [41](#event-41)          | 0x3177       |    149 |             27 |
| [65535.1](#event-655351) | 0x320C       |     10 |              2 |
| [65535.2](#event-655352) | 0x3216       |     28 |              8 |
| [65535.3](#event-655353) | 0x3232       |     25 |              6 |
| [65535.4](#event-655354) | 0x324B       |     20 |              3 |
| [65535.5](#event-655355) | 0x325F       |     20 |              3 |

## DAT References (imed_data)

|   Index | Hex Value   |   Dec Value |
|---------|-------------|-------------|
|       0 | 0x0000      |           0 |
|       1 | 0x000F      |          15 |
|       2 | 0x0010      |          16 |
|       3 | 0x001F      |          31 |
|       4 | 0xFFFFFFFF  |  4294967295 |
|       5 | 0x0001      |           1 |
|       6 | 0x1DB5      |        7605 |
|       7 | 0x1DA8      |        7592 |
|       8 | 0x0005      |           5 |
|       9 | 0x0002      |           2 |
|      10 | 0x0003      |           3 |
|      11 | 0x0004      |           4 |
|      12 | 0x1C3B      |        7227 |
|      13 | 0x00FF      |         255 |
|      14 | 0x00C8      |         200 |
|      15 | 0x0013      |          19 |
|      16 | 0x0008      |           8 |
|      17 | 0x0009      |           9 |
|      18 | 0x000B      |          11 |
|      19 | 0x1C46      |        7238 |
|      20 | 0x1C47      |        7239 |
|      21 | 0x1C48      |        7240 |
|      22 | 0x1C49      |        7241 |
|      23 | 0x1C6D      |        7277 |
|      24 | 0x0006      |           6 |
|      25 | 0x0012      |          18 |
|      26 | 0x0007      |           7 |
|      27 | 0x000A      |          10 |
|      28 | 0x000C      |          12 |
|      29 | 0x000D      |          13 |
|      30 | 0x000E      |          14 |
|      31 | 0x0011      |          17 |
|      32 | 0x0014      |          20 |
|      33 | 0x0015      |          21 |
|      34 | 0x0016      |          22 |
|      35 | 0x0017      |          23 |
|      36 | 0x0018      |          24 |
|      37 | 0x0019      |          25 |
|      38 | 0x001A      |          26 |
|      39 | 0x001B      |          27 |
|      40 | 0x001C      |          28 |
|      41 | 0x001D      |          29 |
|      42 | 0x001E      |          30 |
|      43 | 0x1DA2      |        7586 |
|      44 | 0x1DA7      |        7591 |
|      45 | 0x1DA6      |        7590 |
|      46 | 0x003C      |          60 |
|      47 | 0x1DB3      |        7603 |
|      48 | 0x1DB2      |        7602 |
|      49 | 0x0064      |         100 |
|      50 | 0x1D8E      |        7566 |
|      51 | 0x00E8      |         232 |
|      52 | 0x1C3E      |        7230 |
|      53 | 0x00C9      |         201 |
|      54 | 0x0073      |         115 |
|      55 | 0x00DA      |         218 |
|      56 | 0x00B4      |         180 |
|      57 | 0xFFF6C42B  |  4294362155 |
|      58 | 0x752B9     |      479929 |
|      59 | 0xFFFFA767  |  4294944615 |
|      60 | 0x03E0      |         992 |
|      61 | 0xFFFBFE43  |  4294704707 |
|      62 | 0x5C401     |      377857 |
|      63 | 0xFFFDE79F  |  4294829983 |
|      64 | 0x0D92      |        3474 |
|      65 | 0x47AC      |       18348 |
|      66 | 0x76E1C     |      486940 |
|      67 | 0xFFFC93B2  |  4294742962 |
|      68 | 0x00C2      |         194 |
|      69 | 0x388A9     |      231593 |
|      70 | 0x57E9E     |      360094 |
|      71 | 0xFFFD59FC  |  4294793724 |
|      72 | 0x0726      |        1830 |
|      73 | 0x872C0     |      553664 |
|      74 | 0x7FEA3     |      523939 |
|      75 | 0xFFFF6AC3  |  4294929091 |
|      76 | 0x0A65      |        2661 |
|      77 | 0xFFF6B7DE  |  4294359006 |
|      78 | 0xA862E     |      689710 |
|      79 | 0x0FA9      |        4009 |
|      80 | 0x01BD      |         445 |
|      81 | 0xFFF2A593  |  4294092179 |
|      82 | 0xFFFF548C  |  4294923404 |
|      83 | 0xFFFF442C  |  4294919212 |
|      84 | 0x0201      |         513 |
|      85 | 0xFFF478D5  |  4294211797 |
|      86 | 0x89AEB     |      563947 |
|      87 | 0xFFFE4A5D  |  4294855261 |
|      88 | 0x0DEF      |        3567 |
|      89 | 0x1E173     |      123251 |
|      90 | 0xB8221     |      754209 |
|      91 | 0xFFFD5FA4  |  4294795172 |
|      92 | 0x01B8      |         440 |
|      93 | 0xFFF81ECC  |  4294450892 |
|      94 | 0xFFF3BE05  |  4294163973 |
|      95 | 0x5E8E      |       24206 |
|      96 | 0x01B5      |         437 |
|      97 | 0x012C      |         300 |
|      98 | 0x0080      |         128 |
|      99 | 0xFFF690A7  |  4294348967 |
|     100 | 0xFFF62CE4  |  4294323428 |
|     101 | 0xFFFF9B33  |  4294941491 |
|     102 | 0x0EB1      |        3761 |
|     103 | 0xFFFAEE7D  |  4294635133 |
|     104 | 0xFFF941C6  |  4294525382 |
|     105 | 0xFFFE8CB1  |  4294872241 |
|     106 | 0x0EB0      |        3760 |
|     107 | 0xFFFFCF50  |  4294954832 |
|     108 | 0xFFF61B47  |  4294318919 |
|     109 | 0xFFFD07BB  |  4294772667 |
|     110 | 0x0EBA      |        3770 |
|     111 | 0x4EF35     |      323381 |
|     112 | 0xFFF93A6F  |  4294523503 |
|     113 | 0xFFFE5868  |  4294858856 |
|     114 | 0x0EA0      |        3744 |
|     115 | 0x92763     |      599907 |
|     116 | 0xFFF5AB97  |  4294290327 |
|     117 | 0xFFFFA837  |  4294944823 |
|     118 | 0x0EB3      |        3763 |
|     119 | 0x00A8      |         168 |
|     120 | 0x30D7B     |      200059 |
|     121 | 0xFFFFAA3A  |  4294945338 |
|     122 | 0xFFFFFF06  |  4294967046 |
|     123 | 0x0411      |        1041 |
|     124 | 0x00CA      |         202 |
|     125 | 0x837EC     |      538604 |
|     126 | 0x7A88C     |      501900 |
|     127 | 0xFFFFC98A  |  4294953354 |
|     128 | 0x0CBC      |        3260 |
|     129 | 0x00CB      |         203 |
|     130 | 0x870F5     |      553205 |
|     131 | 0x8FF41     |      589633 |
|     132 | 0xFFFFFFEB  |  4294967275 |
|     133 | 0x0587      |        1415 |
|     134 | 0x00D3      |         211 |
|     135 | 0x8AF88     |      569224 |
|     136 | 0x85E6E     |      548462 |
|     137 | 0x8FE5      |       36837 |
|     138 | 0x02A1      |         673 |
|     139 | 0x0024      |          36 |
|     140 | 0x1D90      |        7568 |
|     141 | 0x1D8F      |        7567 |
|     142 | 0x1DB1      |        7601 |
|     143 | 0x1D92      |        7570 |
|     144 | 0x1D91      |        7569 |
|     145 | 0xFFF6B02E  |  4294357038 |
|     146 | 0xA8EB3     |      691891 |
|     147 | 0x10EF      |        4335 |
|     148 | 0x0916      |        2326 |
|     149 | 0x006C      |         108 |
|     150 | 0x0047      |          71 |
|     151 | 0xFFF5ABB9  |  4294290361 |
|     152 | 0xC1694     |      792212 |
|     153 | 0x07FA      |        2042 |
|     154 | 0x091B      |        2331 |
|     155 | 0x0048      |          72 |
|     156 | 0x0078      |         120 |
|     157 | 0x031C      |         796 |
|     158 | 0x027D      |         637 |
|     159 | 0x009D      |         157 |
|     160 | 0x1DEE      |        7662 |
|     161 | 0x1DEF      |        7663 |
|     162 | 0x1DF0      |        7664 |
|     163 | 0x007F      |         127 |
|     164 | 0x01F5      |         501 |
|     165 | 0x1DF1      |        7665 |
|     166 | 0x00B0      |         176 |
|     167 | 0x01F7      |         503 |
|     168 | 0x0096      |         150 |
|     169 | 0x002D      |          45 |
|     170 | 0x0069      |         105 |
|     171 | 0x1DF2      |        7666 |
|     172 | 0x1DF3      |        7667 |
|     173 | 0x02A4      |         676 |
|     174 | 0x0050      |          80 |
|     175 | 0x00A0      |         160 |
|     176 | 0x1DF4      |        7668 |
|     177 | 0x010E      |         270 |
|     178 | 0x0186      |         390 |
|     179 | 0x005A      |          90 |
|     180 | 0x1DF5      |        7669 |
|     181 | 0x1E03      |        7683 |
|     182 | 0x1DF6      |        7670 |
|     183 | 0x1DF7      |        7671 |
|     184 | 0x1C3C      |        7228 |
|     185 | 0xFFF5C574  |  4294296948 |
|     186 | 0xC0AA5     |      789157 |
|     187 | 0x1053      |        4179 |
|     188 | 0x017C      |         380 |
|     189 | 0x00D7      |         215 |
|     190 | 0x1DBA      |        7610 |
|     191 | 0xA29BD     |      666045 |
|     192 | 0x54587     |      345479 |
|     193 | 0xFFFFA04C  |  4294942796 |
|     194 | 0x0E00      |        3584 |
|     195 | 0xA27F3     |      665587 |
|     196 | 0x85708     |      546568 |
|     197 | 0x4C2B      |       19499 |
|     198 | 0x0EE4      |        3812 |
|     199 | 0x65C71     |      416881 |
|     200 | 0xA2707     |      665351 |
|     201 | 0xB98B      |       47499 |
|     202 | 0x093B      |        2363 |
|     203 | 0x3E418     |      255000 |
|     204 | 0xA28E5     |      665829 |
|     205 | 0x3C8B      |       15499 |
|     206 | 0x092C      |        2348 |
|     207 | 0xD500      |       54528 |
|     208 | 0x98E2F     |      626223 |
|     209 | 0x6B6B      |       27499 |
|     210 | 0x0941      |        2369 |
|     211 | 0xFFFD16E9  |  4294776553 |
|     212 | 0xA448E     |      672910 |
|     213 | 0x8AEF      |       35567 |
|     214 | 0x0A2A      |        2602 |
|     215 | 0xFFFAA732  |  4294616882 |
|     216 | 0x72628     |      468520 |
|     217 | 0xFFFF93B2  |  4294939570 |
|     218 | 0x08D8      |        2264 |
|     219 | 0xB27ED     |      731117 |
|     220 | 0xFFF5322D  |  4294259245 |
|     221 | 0xFFFFFECF  |  4294966991 |
|     222 | 0x0591      |        1425 |
|     223 | 0x1DBC      |        7612 |
|     224 | 0x008C      |         140 |
|     225 | 0xA95F6     |      693750 |
|     226 | 0xFFF845FE  |  4294460926 |
|     227 | 0xFFFFFE0C  |  4294966796 |
|     228 | 0x068F      |        1679 |
|     229 | 0x78C36     |      494646 |
|     230 | 0xB5CB4     |      744628 |
|     231 | 0x9A4B      |       39499 |
|     232 | 0x0AA4      |        2724 |
|     233 | 0x987A5     |      624549 |
|     234 | 0xA967A     |      693882 |
|     235 | 0x0170      |         368 |
|     236 | 0x5F513     |      390419 |
|     237 | 0xA8AED     |      690925 |
|     238 | 0xCBDF      |       52191 |
|     239 | 0x0156      |         342 |
|     240 | 0x3DC3F     |      252991 |
|     241 | 0xB2EEC     |      732908 |
|     242 | 0x054F      |        1359 |
|     243 | 0x85043     |      544835 |
|     244 | 0xFFF97EF1  |  4294541041 |
|     245 | 0x018A      |         394 |
|     246 | 0x464DE     |      287966 |
|     247 | 0xCA65F     |      829023 |
|     248 | 0x167E2     |       92130 |
|     249 | 0x090C      |        2316 |
|     250 | 0x68708     |      427784 |
|     251 | 0xC0489     |      787593 |
|     252 | 0x9A07      |       39431 |
|     253 | 0x0ED3      |        3795 |
|     254 | 0x67F12     |      425746 |
|     255 | 0xFFFA1F3F  |  4294582079 |
|     256 | 0x027C      |         636 |
|     257 | 0xD5F5      |       54773 |
|     258 | 0xB616D     |      745837 |
|     259 | 0xC92B      |       51499 |
|     260 | 0x0951      |        2385 |
|     261 | 0x2D863     |      186467 |
|     262 | 0xB308E     |      733326 |
|     263 | 0x029A      |         666 |
|     264 | 0xFFFD0D66  |  4294774118 |
|     265 | 0xB23B2     |      730034 |
|     266 | 0x8B27      |       35623 |
|     267 | 0x06D9      |        1753 |
|     268 | 0xCE5A      |       52826 |
|     269 | 0x9F8E6     |      653542 |
|     270 | 0x056B      |        1387 |
|     271 | 0x3AEB      |       15083 |
|     272 | 0xAC662     |      706146 |
|     273 | 0x093A      |        2362 |
|     274 | 0x40BFD     |      265213 |
|     275 | 0xFFF97D29  |  4294540585 |
|     276 | 0x0122      |         290 |
|     277 | 0xFFFFCB25  |  4294953765 |
|     278 | 0xBCDA2     |      773538 |
|     279 | 0x0104      |         260 |
|     280 | 0xFFF8DA5C  |  4294498908 |
|     281 | 0xBBFF8     |      770040 |
|     282 | 0x10C5      |        4293 |
|     283 | 0x050F      |        1295 |
|     284 | 0xFFFF2D15  |  4294913301 |
|     285 | 0xFFF983B1  |  4294542257 |
|     286 | 0xFFFE0C80  |  4294839424 |
|     287 | 0xFFF6FDF3  |  4294376947 |
|     288 | 0x0F2F      |        3887 |
|     289 | 0x0193      |         403 |
|     290 | 0xFFFAF814  |  4294637588 |
|     291 | 0xBC473     |      771187 |
|     292 | 0x8D86      |       36230 |
|     293 | 0x0124      |         292 |
|     294 | 0xFFF84A73  |  4294462067 |
|     295 | 0x8C93E     |      575806 |
|     296 | 0xFFFFAFEC  |  4294946796 |
|     297 | 0x055F      |        1375 |
|     298 | 0xFFF849F7  |  4294461943 |
|     299 | 0xA2C0C     |      666636 |
|     300 | 0x097C      |        2428 |
|     301 | 0x1DBD      |        7613 |
|     302 | 0xFFF5BC58  |  4294294616 |
|     303 | 0xC0E1A     |      790042 |
|     304 | 0x08FA      |        2298 |
|     305 | 0xFFF52E0E  |  4294258190 |
|     306 | 0x8B065     |      569445 |
|     307 | 0x105A      |        4186 |
|     308 | 0x0545      |        1349 |
|     309 | 0xFFF6ABDD  |  4294355933 |
|     310 | 0x99F4F     |      630607 |
|     311 | 0x10A0      |        4256 |
|     312 | 0x0D2E      |        3374 |
|     313 | 0xFFF3596C  |  4294138220 |
|     314 | 0x5A19A     |      369050 |
|     315 | 0xFFFF935F  |  4294939487 |
|     316 | 0x0530      |        1328 |
|     317 | 0xFFF43D03  |  4294196483 |
|     318 | 0x7CE23     |      511523 |
|     319 | 0x104E      |        4174 |
|     320 | 0x0D3B      |        3387 |
|     321 | 0xFFF3F4CC  |  4294177996 |
|     322 | 0x29019     |      167961 |
|     323 | 0xFFFF6415  |  4294927381 |
|     324 | 0x051C      |        1308 |
|     325 | 0xFFF3544D  |  4294136909 |
|     326 | 0x4B754     |      309076 |
|     327 | 0x096F      |        2415 |
|     328 | 0xFFF5C5A9  |  4294297001 |
|     329 | 0xC0CF8     |      789752 |
|     330 | 0x0FF9      |        4089 |
|     331 | 0x0A34      |        2612 |
|     332 | 0xFFF5BF4B  |  4294295371 |
|     333 | 0xC1452     |      791634 |
|     334 | 0x0E8F      |        3727 |
|     335 | 0x0028      |          40 |
|     336 | 0xFFF5A9F8  |  4294289912 |
|     337 | 0xC2D52     |      798034 |
|     338 | 0x02E3      |         739 |
|     339 | 0xFFF5981F  |  4294285343 |
|     340 | 0xC4006     |      802822 |
|     341 | 0x0076      |         118 |
|     342 | 0x0A2D      |        2605 |
|     343 | 0xFFF59B49  |  4294286153 |
|     344 | 0xC8A96     |      821910 |
|     345 | 0x03C8      |         968 |
|     346 | 0x0898      |        2200 |

## String References

- **7227**: Enter the battlefield? [Enter./Decline.]
- **7228**: Leave the battlefield? [Run away./Stay.]
- **7230**: You cannot enter the battlefield at present. Please wait a little longer.
- **7238**: You are cleared to enter the battlefield, but you cannot while party members are engaged in combat.
- **7239**: You are cleared to enter the battlefield, but you cannot while party members are engaged in combat.
- **7240**: You are cleared to enter the battlefield, but you cannot while party members are engaged in combat.
- **7241**: You are cleared to enter the battlefield, but you cannot while party members are engaged in combat.
- **7277**: You do not meet the requirements to enter the battlefield. Access is denied.
- **7566**: Skip the event? [Yes./No.]
- **7567**: Battlefield clear time: $3 second[/s]!
- **7568**: Battlefield clear time: $3 minute[/s], $2 second[/s]!
- **7569**: The current battlefield clear time record is $3 second[/s].
- **7570**: The current battlefield clear time record is $3 minute[/s] $2 second[/s].
- **7586**: Only $3 [member/members] have clearance to enter the battlefield. This room has reached its maximum capacity.
- **7590**: That record is held by $5 adventurers, including %0!
- **7591**: That record is held by %0!
- **7592**: Select difficulty. [Very difficult. (Level: ???)/Difficult. (Level: ???)/Normal. (Level: $18)/Easy. (Level: $17)/Very Easy. (Level: $16)/Leave.]
- **7601**: You have broken the clear time record for "[Storms of Fate/The Wyrmking Descends]"!
- **7602**: The current battlefield clear time record for "[Storms of Fate/The Wyrmking Descends]" is $3 second[/s].
- **7603**: The current battlefield clear time record for "[Storms of Fate/The Wyrmking Descends]" is $3 minute[/s] $2 second[/s].
- **7605**: Which battlefield will you enter? [None./Storms of Fate./The Wyrmking Descends./././././././././././././././././././././././././././././]
- **7610**: Enter the displacement? [Yes./No.]
- **7612**: You can see the Misareaux Coast on the other side of the spatial displacement...
- **7613**: You can sense the majestic presence of a terrestrial avatar on the other side of the spatial displacement...
- **7664**: Defy fate and fight? [Fight and live!/Fate is inevitable.]

## Events

### Event 65535

#### Metadata

| Field        | Value   |
|--------------|---------|
| Entrypoint   | 0x0000  |
| Data Size    | 1 bytes |
| Instructions | 1       |

```
      00 01 02 03 04 05 06 07  08 09 0A 0B 0C 0D 0E 0F
      -- -- -- -- -- -- -- --  -- -- -- -- -- -- -- --
0000: 00                                                .               
```

#### Opcodes

```
  0: 0x0000 [0x00] END_REQSTACK()
```

### Event 65534

#### Metadata

| Field        | Value   |
|--------------|---------|
| Entrypoint   | 0x0001  |
| Data Size    | 1 bytes |
| Instructions | 1       |

```
      00 01 02 03 04 05 06 07  08 09 0A 0B 0C 0D 0E 0F
      -- -- -- -- -- -- -- --  -- -- -- -- -- -- -- --
0000:    00                                              .              
```

#### Opcodes

```
  0: 0x0001 [0x00] END_REQSTACK()
```

### Event 32000

#### Metadata

| Field        | Value      |
|--------------|------------|
| Entrypoint   | 0x0002     |
| Data Size    | 2116 bytes |
| Instructions | 279        |

```
      00 01 02 03 04 05 06 07  08 09 0A 0B 0C 0D 0E 0F
      -- -- -- -- -- -- -- --  -- -- -- -- -- -- -- --
0000:       20 01 79 00 F0 FF  FF 7F F0 FF FF 7F 03 02     .y...........
0010: 00 02 10 03 03 00 03 10  03 05 00 04 10 03 06 00  ................
0020: 05 10 03 0F 00 06 10 03  10 00 07 10 03 11 00 08  ................
0030: 10 41 00 80 01 80 09 10  07 00 41 02 80 03 80 09  .A........A.....
0040: 10 06 10 06 01 00 02 07  00 00 80 00 45 01 03 08  ............E...
0050: 00 04 80 0F 08 00 06 00  10 08 00 05 80 24 06 80  .............$..
0060: 00 80 08 00 25 02 00 10  00 80 00 73 00 01 2B 08  ....%......s..+.
0070: 01 45 01 03 03 00 00 10  0C 03 00 06 16 00 06 13  .E..............
0080: 00 3E 0F 00 03 00 21 01  06 0F 00 06 08 00 3E 11  .>....!.......>.
0090: 00 03 00 98 00 01 9F 00  3C 08 00 00 80 05 80 3E  ........<......>
00A0: 10 00 03 00 A9 00 01 B0  00 3C 08 00 05 80 05 80  .........<......
00B0: 1A 43 18 24 07 80 08 80  08 00 25 02 00 10 00 80  .C.$......%.....
00C0: 00 CB 00 03 0F 00 05 80  01 1E 01 02 00 10 05 80  ................
00D0: 00 DB 00 03 0F 00 09 80  01 1E 01 02 00 10 09 80  ................
00E0: 00 EB 00 03 0F 00 0A 80  01 1E 01 02 00 10 0A 80  ................
00F0: 00 FB 00 03 0F 00 0B 80  01 1E 01 02 00 10 0B 80  ................
0100: 00 0B 01 03 0F 00 08 80  01 1E 01 02 00 10 08 80  ................
0110: 00 19 01 01 2B 08 01 1E  01 03 0F 00 0A 80 01 45  ....+..........E
0120: 01 06 0F 00 1A 45 08 02  16 00 05 80 00 45 01 24  .....E.......E.$
0130: 0C 80 05 80 00 80 25 02  00 10 05 80 00 45 01 01  ......%......E..
0140: 2B 08 01 45 01 42 03 01  10 0D 80 43 00 43 01 06  +..E.B.....C.C..
0150: 01 10 45 0E 80 F0 FF FF  7F F0 FF FF 7F 66 64 6F  ..E..........fdo
0160: 31 00 80 55 0E 80 F0 FF  FF 7F F0 FF FF 7F 66 64  1..U..........fd
0170: 6F 31 3B F0 FF FF 7F 20  10 21 10 22 10 38 0F 80  o1;.... .!.".8..
0180: 02 07 00 05 80 00 9F 01  03 00 00 05 80 03 04 00  ................
0190: 03 00 03 02 00 00 80 03  1C 00 00 80 01 5F 05 03  ............._..
01A0: 00 00 05 80 02 00 00 05  80 05 F4 07 02 00 80 05  ................
01B0: 80 00 B9 01 03 00 00 05  00 40 00 80 0A 80 01 10  .........@......
01C0: 00 00 40 0B 80 10 80 01  10 03 00 40 11 80 12 80  ..@........@....
01D0: 01 10 0F 00 06 02 10 06  03 10 06 04 10 1A E0 1A  ................
01E0: 47 00 09 00 0A 00 0B 00  0C 00 47 01 03 04 00 03  G.........G.....
01F0: 10 03 02 00 04 10 03 1A  00 05 10 03 0D 00 06 10  ................
0200: 03 0E 00 07 10 03 1C 00  09 10 02 02 10 05 80 80  ................
0210: 15 02 01 E1 07 02 02 10  0B 80 80 5F 02 02 00 00  ..........._....
0220: 05 80 80 2C 02 48 13 80  23 01 59 02 02 00 00 09  ...,.H..#.Y.....
0230: 80 80 3B 02 48 14 80 23  01 59 02 02 00 00 0A 80  ..;.H..#.Y......
0240: 80 4A 02 48 15 80 23 01  59 02 02 00 00 0B 80 80  .J.H..#.Y.......
0250: 59 02 48 16 80 23 01 59  02 01 F8 07 01 E1 07 02  Y.H..#.Y........
0260: 02 10 08 80 80 71 02 48  17 80 23 01 F8 07 01 E1  .....q.H..#.....
0270: 07 02 02 10 18 80 80 73  04 02 04 00 00 80 80 89  .......s........
0280: 02 03 05 10 19 80 01 69  04 02 04 00 05 80 80 99  .......i........
0290: 02 03 05 10 19 80 01 69  04 02 04 00 09 80 80 A9  .......i........
02A0: 02 03 05 10 00 80 01 69  04 02 04 00 0A 80 80 B9  .......i........
02B0: 02 03 05 10 00 80 01 69  04 02 04 00 0B 80 80 C9  .......i........
02C0: 02 03 05 10 00 80 01 69  04 02 04 00 08 80 80 D9  .......i........
02D0: 02 03 05 10 00 80 01 69  04 02 04 00 18 80 80 E9  .......i........
02E0: 02 03 05 10 00 80 01 69  04 02 04 00 1A 80 80 F9  .......i........
02F0: 02 03 05 10 00 80 01 69  04 02 04 00 10 80 80 09  .......i........
0300: 03 03 05 10 00 80 01 69  04 02 04 00 11 80 80 19  .......i........
0310: 03 03 05 10 00 80 01 69  04 02 04 00 1B 80 80 29  .......i.......)
0320: 03 03 05 10 00 80 01 69  04 02 04 00 12 80 80 39  .......i.......9
0330: 03 03 05 10 00 80 01 69  04 02 04 00 1C 80 80 49  .......i.......I
0340: 03 03 05 10 00 80 01 69  04 02 04 00 1D 80 80 59  .......i.......Y
0350: 03 03 05 10 00 80 01 69  04 02 04 00 1E 80 80 69  .......i.......i
0360: 03 03 05 10 00 80 01 69  04 02 04 00 01 80 80 79  .......i.......y
0370: 03 03 05 10 00 80 01 69  04 02 04 00 02 80 80 89  .......i........
0380: 03 03 05 10 00 80 01 69  04 02 04 00 1F 80 80 99  .......i........
0390: 03 03 05 10 00 80 01 69  04 02 04 00 19 80 80 A9  .......i........
03A0: 03 03 05 10 00 80 01 69  04 02 04 00 0F 80 80 B9  .......i........
03B0: 03 03 05 10 00 80 01 69  04 02 04 00 20 80 80 C9  .......i.... ...
03C0: 03 03 05 10 00 80 01 69  04 02 04 00 21 80 80 D9  .......i....!...
03D0: 03 03 05 10 00 80 01 69  04 02 04 00 22 80 80 E9  .......i...."...
03E0: 03 03 05 10 00 80 01 69  04 02 04 00 23 80 80 F9  .......i....#...
03F0: 03 03 05 10 00 80 01 69  04 02 04 00 24 80 80 09  .......i....$...
0400: 04 03 05 10 00 80 01 69  04 02 04 00 25 80 80 19  .......i....%...
0410: 04 03 05 10 00 80 01 69  04 02 04 00 26 80 80 29  .......i....&..)
0420: 04 03 05 10 00 80 01 69  04 02 04 00 27 80 80 39  .......i....'..9
0430: 04 03 05 10 00 80 01 69  04 02 04 00 28 80 80 49  .......i....(..I
0440: 04 03 05 10 00 80 01 69  04 02 04 00 29 80 80 59  .......i....)..Y
0450: 04 03 05 10 00 80 01 69  04 02 04 00 2A 80 80 69  .......i....*..i
0460: 04 03 05 10 00 80 01 69  04 48 2B 80 23 01 F8 07  .......i.H+.#...
0470: 01 E1 07 02 02 10 0A 80  80 81 04 01 9F 01 01 E1  ................
0480: 07 02 02 10 09 80 80 E1  07 02 0D 00 00 80 01 15  ................
0490: 05 02 13 00 00 80 01 C9  04 03 05 10 1A 00 02 1A  ................
04A0: 00 00 80 02 A6 04 02 0D  00 05 80 05 B5 04 48 2C  ..............H,
04B0: 80 23 01 C6 04 03 06 10  0D 00 0C 06 10 03 07 10  .#..............
04C0: 0D 00 48 2D 80 23 01 15  05 03 05 10 1A 00 02 1A  ..H-.#..........
04D0: 00 00 80 02 F5 04 02 1A  00 2E 80 04 F1 04 3F 04  ..............?.
04E0: 10 05 10 2E 80 15 05 10  2E 80 48 2F 80 23 01 F5  ..........H/.#..
04F0: 04 48 30 80 23 02 0D 00  05 80 05 04 05 48 2C 80  .H0.#........H,.
0500: 23 01 15 05 03 06 10 0D  00 0C 06 10 03 07 10 0D  #...............
0510: 00 48 2D 80 23 03 03 00  04 00 03 14 00 31 80 07  .H-.#........1..
0520: 14 00 03 00 02 02 00 14  00 00 34 05 03 02 00 05  ..........4.....
0530: 80 01 39 05 03 02 00 00  80 02 02 00 00 80 00 5F  ..9............_
0540: 05 02 0E 00 05 80 00 5F  05 24 32 80 05 80 00 80  ......._.$2.....
0550: 25 02 00 10 00 80 00 5F  05 05 02 00 01 5F 05 06  %......_....._..
0560: 15 00 02 04 00 00 80 80  72 05 03 15 00 00 80 01  ........r.......
0570: 57 07 02 04 00 05 80 80  82 05 03 15 00 00 80 01  W...............
0580: 57 07 02 04 00 09 80 80  92 05 03 15 00 00 80 01  W...............
0590: 57 07 02 04 00 0A 80 80  A2 05 03 15 00 00 80 01  W...............
05A0: 57 07 02 04 00 0B 80 80  B2 05 03 15 00 00 80 01  W...............
05B0: 57 07 02 04 00 08 80 80  C2 05 03 15 00 00 80 01  W...............
05C0: 57 07 02 04 00 18 80 80  D2 05 03 15 00 00 80 01  W...............
05D0: 57 07 02 04 00 1A 80 80  E2 05 03 15 00 00 80 01  W...............
05E0: 57 07 02 04 00 10 80 80  F2 05 03 15 00 00 80 01  W...............
05F0: 57 07 02 04 00 11 80 80  02 06 03 15 00 00 80 01  W...............
0600: 57 07 02 04 00 1B 80 80  12 06 03 15 00 00 80 01  W...............
0610: 57 07 02 04 00 12 80 80  22 06 03 15 00 00 80 01  W.......".......
0620: 57 07 02 04 00 1C 80 80  32 06 03 15 00 00 80 01  W.......2.......
0630: 57 07 02 04 00 1D 80 80  42 06 03 15 00 00 80 01  W.......B.......
0640: 57 07 02 04 00 1E 80 80  52 06 03 15 00 00 80 01  W.......R.......
0650: 57 07 02 04 00 01 80 80  62 06 03 15 00 00 80 01  W.......b.......
0660: 57 07 02 04 00 02 80 80  72 06 03 15 00 00 80 01  W.......r.......
0670: 57 07 02 04 00 1F 80 80  82 06 03 15 00 00 80 01  W...............
0680: 57 07 02 04 00 19 80 80  92 06 03 15 00 00 80 01  W...............
0690: 57 07 02 04 00 0F 80 80  A2 06 03 15 00 00 80 01  W...............
06A0: 57 07 02 04 00 20 80 80  B2 06 03 15 00 00 80 01  W.... ..........
06B0: 57 07 02 04 00 21 80 80  C2 06 03 15 00 00 80 01  W....!..........
06C0: 57 07 02 04 00 22 80 80  D2 06 03 15 00 00 80 01  W...."..........
06D0: 57 07 02 04 00 23 80 80  E2 06 03 15 00 00 80 01  W....#..........
06E0: 57 07 02 04 00 24 80 80  F2 06 03 15 00 00 80 01  W....$..........
06F0: 57 07 02 04 00 25 80 80  02 07 03 15 00 00 80 01  W....%..........
0700: 57 07 02 04 00 26 80 80  12 07 03 15 00 00 80 01  W....&..........
0710: 57 07 02 04 00 27 80 80  22 07 03 15 00 00 80 01  W....'..".......
0720: 57 07 02 04 00 28 80 80  32 07 03 15 00 00 80 01  W....(..2.......
0730: 57 07 02 04 00 29 80 80  42 07 03 15 00 00 80 01  W....)..B.......
0740: 57 07 02 04 00 2A 80 80  52 07 03 15 00 00 80 01  W....*..R.......
0750: 57 07 03 15 00 00 80 02  02 00 05 80 00 72 07 5C  W............r.\
0760: 00 33 80 5C 01 33 80 5C  02 33 80 5C 03 33 80 01  .3.\.3.\.3.\.3..
0770: 8A 07 02 15 00 00 80 00  8A 07 5C 00 33 80 5C 01  ..........\.3.\.
0780: 33 80 5C 02 33 80 5C 03  33 80 02 02 00 00 80 00  3.\.3.\.3.......
0790: 98 07 1A 09 10 01 D1 07  6C F0 FF FF 7F 00 80 05  ........l.......
07A0: 80 62 09 80 F0 FF FF 7F  F0 FF FF 7F 6D 61 69 6E  .b..........main
07B0: 00 80 45 0E 80 F0 FF FF  7F F0 FF FF 7F 6F 76 6C  ..E..........ovl
07C0: 31 00 80 46 02 12 00 02  12 00 00 80 00 D1 07 46  1..F...........F
07D0: 00 03 01 10 31 80 07 01  10 03 00 01 F8 07 01 E1  ....1...........
07E0: 07 0B 00 00 02 00 80 05  80 00 F1 07 03 00 00 09  ................
07F0: 80 01 A4 01 48 34 80 23  45 35 80 F0 FF FF 7F F0  ....H4.#E5......
0800: FF FF 7F 77 68 69 31 00  80 45 0E 80 F0 FF FF 7F  ...whi1..E......
0810: F0 FF FF 7F 62 6C 6F 66  00 80 45 0E 80 F0 FF FF  ....blof..E.....
0820: 7F F0 FF FF 7F 66 64 69  30 00 80 02 07 00 05 80  .....fdi0.......
0830: 00 43 08 5C 00 00 80 5C  01 00 80 5C 02 36 80 5C  .C.\...\...\.6.\
0840: 03 37 80 21 00 1B                                 .7.!..          
```

#### Opcodes

```
  0: 0x0002 [0x20] SET_CLI_EVENT_UC_FLAG: Lock player control
  1: 0x0004 [0x79] LocalPlayer looks at LocalPlayer (Basic look)
  2: 0x000E [0x03] ExtData[1]->WorkLocal[2] = Work_Zone[2]
  3: 0x0013 [0x03] ExtData[1]->WorkLocal[3] = Work_Zone[3]
  4: 0x0018 [0x03] ExtData[1]->WorkLocal[5] = Work_Zone[4]
  5: 0x001D [0x03] ExtData[1]->WorkLocal[6] = Work_Zone[5]
  6: 0x0022 [0x03] ExtData[1]->WorkLocal[15] = Work_Zone[6]
  7: 0x0027 [0x03] ExtData[1]->WorkLocal[16] = Work_Zone[7]
  8: 0x002C [0x03] ExtData[1]->WorkLocal[17] = Work_Zone[8]
  9: 0x0031 [0x41] ExtData[1]->WorkLocal[7] = Work_Zone[9] (bits 0*-15*)
 10: 0x003A [0x41] Work_Zone[6] = Work_Zone[9] (bits 16*-31*)
 11: 0x0043 [0x06] ExtData[1]->WorkLocal[1] = 0
 12: 0x0046 [0x02] IF !(ExtData[1]->WorkLocal[7] == 0*) GOTO 0x0145
 13: 0x004E [0x03] ExtData[1]->WorkLocal[8] = 4294967295*
 14: 0x0053 [0x0F] ExtData[1]->WorkLocal[8] ^= ExtData[1]->WorkLocal[6]
 15: 0x0058 [0x10] ExtData[1]->WorkLocal[8] <<= 1*
 16: 0x005D [0x24] CREATE_DIALOG(message_id=7605*, default_option=0*, option_flags=ExtData[1]->WorkLocal[8])
    → "Which battlefield will you enter? [None./Storms of Fate./The Wyrmking Descends./././././././././././././././././././././././././././././]"
 17: 0x0064 [0x25] WAIT_DIALOG_SELECT()
 18: 0x0065 [0x02] IF !(Work_Zone[0] == 0*) GOTO 0x0073
 19: 0x006D [0x01] GOTO 0x082B

SUBROUTINE_009F:
 20: 0x009F [0x3E] IF !(ExtData[1]->WorkLocal[16] bit ExtData[1]->WorkLocal[3]) GOTO 0x00A9
 21: 0x00A6 [0x01] GOTO 0x00B0
 22: 0x00A9 [0x3C] SET_BIT_FLAG_CONDITIONAL(target_work_offset=ExtData[1]->WorkLocal[8], bit_index_work_offset=1*, condition_work_offset=1*)

SUBROUTINE_00B0:
 23: 0x00B0 [0x1A] CALL_SUBROUTINE(address=0x1843)
 24: 0x00B3 [0x24] CREATE_DIALOG(message_id=7592*, default_option=5*, option_flags=ExtData[1]->WorkLocal[8])
    → "Select difficulty. [Very difficult. (Level: ???)/Difficult. (Level: ???)/Normal. (Level: $18)/Easy. (Level: $17)/Very Easy. (Level: $16)/Leave.]"
 25: 0x00BA [0x25] WAIT_DIALOG_SELECT()
 26: 0x00BB [0x02] IF !(Work_Zone[0] == 0*) GOTO 0x00CB
 27: 0x00C3 [0x03] ExtData[1]->WorkLocal[15] = 1*
 28: 0x00C8 [0x01] GOTO 0x011E
 29: 0x00CB [0x02] IF !(Work_Zone[0] == 1*) GOTO 0x00DB
 30: 0x00D3 [0x03] ExtData[1]->WorkLocal[15] = 2*
 31: 0x00D8 [0x01] GOTO 0x011E
 32: 0x00DB [0x02] IF !(Work_Zone[0] == 2*) GOTO 0x00EB
 33: 0x00E3 [0x03] ExtData[1]->WorkLocal[15] = 3*
 34: 0x00E8 [0x01] GOTO 0x011E
 35: 0x00EB [0x02] IF !(Work_Zone[0] == 3*) GOTO 0x00FB
 36: 0x00F3 [0x03] ExtData[1]->WorkLocal[15] = 4*
 37: 0x00F8 [0x01] GOTO 0x011E
 38: 0x00FB [0x02] IF !(Work_Zone[0] == 4*) GOTO 0x010B
 39: 0x0103 [0x03] ExtData[1]->WorkLocal[15] = 5*
 40: 0x0108 [0x01] GOTO 0x011E
 41: 0x010B [0x02] IF !(Work_Zone[0] == 5*) GOTO 0x0119
 42: 0x0113 [0x01] GOTO 0x082B

SUBROUTINE_011E:
 43: 0x011E [0x01] GOTO 0x0145
 44: 0x0121 [0x06] ExtData[1]->WorkLocal[15] = 0
 45: 0x0124 [0x1A] CALL_SUBROUTINE(address=0x0845)
 46: 0x0127 [0x02] IF !(ExtData[1]->WorkLocal[22] == 1*) GOTO 0x0145
 47: 0x012F [0x24] CREATE_DIALOG(message_id=7227*, default_option=1*, option_flags=0*)
    → "Enter the battlefield? [Enter./Decline.]"
 48: 0x0136 [0x25] WAIT_DIALOG_SELECT()
 49: 0x0137 [0x02] IF !(Work_Zone[0] == 1*) GOTO 0x0145
 50: 0x013F [0x01] GOTO 0x082B

SUBROUTINE_0145:
 51: 0x0145 [0x42] SET_CLI_EVENT_CANCEL_DATA()
 52: 0x0146 [0x03] Work_Zone[1] = 255*
 53: 0x014B [0x43] SEND_EVENT_UPDATE: Send pending tag to server (packet 0x005B)
 54: 0x014D [0x43] SEND_EVENT_UPDATE: Check pending flag (skip if not pending)
 55: 0x014F [0x06] Work_Zone[1] = 0
 56: 0x0152 [0x45] LOAD_SCHEDULED_TASK: Load scheduler "fdo1" with entities [LocalPlayer, LocalPlayer], work=[200*, 0*]
 57: 0x0163 [0x55] WAIT_LOAD_SCHEDULER: Wait for scheduler "fdo1" with entities [LocalPlayer, LocalPlayer], work=200*
 58: 0x0172 [0x3B] GET_ENTITY_POSITION(entity=LocalPlayer, x_destination=Work_Zone[32], y_destination=Work_Zone[33], z_destination=Work_Zone[34])
 59: 0x017D [0x38] SET_CLIENT_EVENT_MODE(mode=19*)
 60: 0x0180 [0x02] IF !(ExtData[1]->WorkLocal[7] == 1*) GOTO 0x019F
 61: 0x0188 [0x03] ExtData[1]->WorkLocal[0] = 1*
 62: 0x018D [0x03] ExtData[1]->WorkLocal[4] = ExtData[1]->WorkLocal[3]
 63: 0x0192 [0x03] ExtData[1]->WorkLocal[2] = 0*
 64: 0x0197 [0x03] ExtData[1]->WorkLocal[28] = 0*
 65: 0x019C [0x01] GOTO 0x055F

SUBROUTINE_019F:
 66: 0x019F [0x03] ExtData[1]->WorkLocal[0] = 1*

SUBROUTINE_01A4:
 67: 0x01A4 [0x02] IF !(ExtData[1]->WorkLocal[0] > 1*) GOTO 0x07F4
 68: 0x01AC [0x02] IF !(0* == 1*) GOTO 0x01B9
 69: 0x01B4 [0x03] ExtData[1]->WorkLocal[0] = ExtData[1]->WorkLocal[5]
 70: 0x01B9 [0x40] SET_BIT_WORK_RANGE(start_bit=0*, end_bit=3*, target=Work_Zone[1], source=ExtData[1]->WorkLocal[0])
 71: 0x01C2 [0x40] SET_BIT_WORK_RANGE(start_bit=4*, end_bit=8*, target=Work_Zone[1], source=ExtData[1]->WorkLocal[3])
 72: 0x01CB [0x40] SET_BIT_WORK_RANGE(start_bit=9*, end_bit=11*, target=Work_Zone[1], source=ExtData[1]->WorkLocal[15])
 73: 0x01D4 [0x06] Work_Zone[2] = 0
 74: 0x01D7 [0x06] Work_Zone[3] = 0
 75: 0x01DA [0x06] Work_Zone[4] = 0
 76: 0x01DD [0x1A] CALL_SUBROUTINE(address=0x1AE0)
 77: 0x01E0 [0x47] UPDATE_PLAYER_POS(ExtData[1]->WorkLocal[9], ExtData[1]->WorkLocal[10], ExtData[1]->WorkLocal[11], yaw=ExtData[1]->WorkLocal[12])
 78: 0x01EA [0x47] WAIT_PLAYER_POS_UPDATE
 79: 0x01EC [0x03] ExtData[1]->WorkLocal[4] = Work_Zone[3]
 80: 0x01F1 [0x03] ExtData[1]->WorkLocal[2] = Work_Zone[4]
 81: 0x01F6 [0x03] ExtData[1]->WorkLocal[26] = Work_Zone[5]
 82: 0x01FB [0x03] ExtData[1]->WorkLocal[13] = Work_Zone[6]
 83: 0x0200 [0x03] ExtData[1]->WorkLocal[14] = Work_Zone[7]
 84: 0x0205 [0x03] ExtData[1]->WorkLocal[28] = Work_Zone[9]
 85: 0x020A [0x02] IF !(Work_Zone[2] == 1*) GOTO 0x0215
 86: 0x0212 [0x01] GOTO 0x07E1
 87: 0x0215 [0x02] IF !(Work_Zone[2] == 4*) GOTO 0x025F
 88: 0x021D [0x02] IF !(ExtData[1]->WorkLocal[0] == 1*) GOTO 0x022C
 89: 0x0225 [0x48] [System] [7238*]:
    → "You are cleared to enter the battlefield, but you cannot while party members are engaged in combat."
 90: 0x0228 [0x23] WAIT_FOR_DIALOG_INTERACTION
 91: 0x0229 [0x01] GOTO 0x0259
 92: 0x022C [0x02] IF !(ExtData[1]->WorkLocal[0] == 2*) GOTO 0x023B
 93: 0x0234 [0x48] [System] [7239*]:
    → "You are cleared to enter the battlefield, but you cannot while party members are engaged in combat."
 94: 0x0237 [0x23] WAIT_FOR_DIALOG_INTERACTION
 95: 0x0238 [0x01] GOTO 0x0259
 96: 0x023B [0x02] IF !(ExtData[1]->WorkLocal[0] == 3*) GOTO 0x024A
 97: 0x0243 [0x48] [System] [7240*]:
    → "You are cleared to enter the battlefield, but you cannot while party members are engaged in combat."
 98: 0x0246 [0x23] WAIT_FOR_DIALOG_INTERACTION
 99: 0x0247 [0x01] GOTO 0x0259
100: 0x024A [0x02] IF !(ExtData[1]->WorkLocal[0] == 4*) GOTO 0x0259
101: 0x0252 [0x48] [System] [7241*]:
    → "You are cleared to enter the battlefield, but you cannot while party members are engaged in combat."
102: 0x0255 [0x23] WAIT_FOR_DIALOG_INTERACTION
103: 0x0256 [0x01] GOTO 0x0259

SUBROUTINE_0259:
104: 0x0259 [0x01] GOTO 0x07F8

SUBROUTINE_0469:
105: 0x0469 [0x48] [System] [7586*]:
    → "Only $3 [member/members] have clearance to enter the battlefield. This room has reached its maximum capacity."
106: 0x046C [0x23] WAIT_FOR_DIALOG_INTERACTION
107: 0x046D [0x01] GOTO 0x07F8

SUBROUTINE_04C6:
108: 0x04C6 [0x01] GOTO 0x0515
109: 0x04C9 [0x03] Work_Zone[5] = ExtData[1]->WorkLocal[26]
110: 0x04CE [0x02] IF !(ExtData[1]->WorkLocal[26] <= 0*) GOTO 0x04F5
111: 0x04D6 [0x02] IF !(ExtData[1]->WorkLocal[26] < 60*) GOTO 0x04F1
112: 0x04DE [0x3F] Work_Zone[4] = Work_Zone[5] % 60*
113: 0x04E5 [0x15] Work_Zone[5] /= 60*
114: 0x04EA [0x48] [System] [7603*]:
    → "The current battlefield clear time record for "[Storms of Fate/The Wyrmking Descends]" is $3 minute[/s] $2 second[/s]."
115: 0x04ED [0x23] WAIT_FOR_DIALOG_INTERACTION
116: 0x04EE [0x01] GOTO 0x04F5
117: 0x04F1 [0x48] [System] [7602*]:
    → "The current battlefield clear time record for "[Storms of Fate/The Wyrmking Descends]" is $3 second[/s]."
118: 0x04F4 [0x23] WAIT_FOR_DIALOG_INTERACTION

SUBROUTINE_04F5:
119: 0x04F5 [0x02] IF !(ExtData[1]->WorkLocal[13] > 1*) GOTO 0x0504
120: 0x04FD [0x48] [System] [7591*]:
    → "That record is held by %0!"
121: 0x0500 [0x23] WAIT_FOR_DIALOG_INTERACTION
122: 0x0501 [0x01] GOTO 0x0515
123: 0x0504 [0x03] Work_Zone[6] = ExtData[1]->WorkLocal[13]
124: 0x0509 [0x0C] Work_Zone[6]--
125: 0x050C [0x03] Work_Zone[7] = ExtData[1]->WorkLocal[13]
126: 0x0511 [0x48] [System] [7590*]:
    → "That record is held by $5 adventurers, including %0!"
127: 0x0514 [0x23] WAIT_FOR_DIALOG_INTERACTION

SUBROUTINE_0515:
128: 0x0515 [0x03] ExtData[1]->WorkLocal[3] = ExtData[1]->WorkLocal[4]
129: 0x051A [0x03] ExtData[1]->WorkLocal[20] = 100*
130: 0x051F [0x07] ExtData[1]->WorkLocal[20] += ExtData[1]->WorkLocal[3]
131: 0x0524 [0x02] IF !(ExtData[1]->WorkLocal[2] == ExtData[1]->WorkLocal[20]) GOTO 0x0534
132: 0x052C [0x03] ExtData[1]->WorkLocal[2] = 1*
133: 0x0531 [0x01] GOTO 0x0539
134: 0x0534 [0x03] ExtData[1]->WorkLocal[2] = 0*

SUBROUTINE_0539:
135: 0x0539 [0x02] IF !(ExtData[1]->WorkLocal[2] == 0*) GOTO 0x055F
136: 0x0541 [0x02] IF !(ExtData[1]->WorkLocal[14] == 1*) GOTO 0x055F
137: 0x0549 [0x24] CREATE_DIALOG(message_id=7566*, default_option=1*, option_flags=0*)
    → "Skip the event? [Yes./No.]"
138: 0x0550 [0x25] WAIT_DIALOG_SELECT()
139: 0x0551 [0x02] IF !(Work_Zone[0] == 0*) GOTO 0x055F
140: 0x0559 [0x05] ExtData[1]->WorkLocal[2] = 1
141: 0x055C [0x01] GOTO 0x055F

SUBROUTINE_055F:
142: 0x055F [0x06] ExtData[1]->WorkLocal[21] = 0
143: 0x0562 [0x02] IF !(ExtData[1]->WorkLocal[4] == 0*) GOTO 0x0572
144: 0x056A [0x03] ExtData[1]->WorkLocal[21] = 0*
145: 0x056F [0x01] GOTO 0x0757
146: 0x0572 [0x02] IF !(ExtData[1]->WorkLocal[4] == 1*) GOTO 0x0582
147: 0x057A [0x03] ExtData[1]->WorkLocal[21] = 0*
148: 0x057F [0x01] GOTO 0x0757
149: 0x0582 [0x02] IF !(ExtData[1]->WorkLocal[4] == 2*) GOTO 0x0592
150: 0x058A [0x03] ExtData[1]->WorkLocal[21] = 0*
151: 0x058F [0x01] GOTO 0x0757
152: 0x0592 [0x02] IF !(ExtData[1]->WorkLocal[4] == 3*) GOTO 0x05A2
153: 0x059A [0x03] ExtData[1]->WorkLocal[21] = 0*
154: 0x059F [0x01] GOTO 0x0757
155: 0x05A2 [0x02] IF !(ExtData[1]->WorkLocal[4] == 4*) GOTO 0x05B2
156: 0x05AA [0x03] ExtData[1]->WorkLocal[21] = 0*
157: 0x05AF [0x01] GOTO 0x0757
158: 0x05B2 [0x02] IF !(ExtData[1]->WorkLocal[4] == 5*) GOTO 0x05C2
159: 0x05BA [0x03] ExtData[1]->WorkLocal[21] = 0*
160: 0x05BF [0x01] GOTO 0x0757
161: 0x05C2 [0x02] IF !(ExtData[1]->WorkLocal[4] == 6*) GOTO 0x05D2
162: 0x05CA [0x03] ExtData[1]->WorkLocal[21] = 0*
163: 0x05CF [0x01] GOTO 0x0757
164: 0x05D2 [0x02] IF !(ExtData[1]->WorkLocal[4] == 7*) GOTO 0x05E2
165: 0x05DA [0x03] ExtData[1]->WorkLocal[21] = 0*
166: 0x05DF [0x01] GOTO 0x0757
167: 0x05E2 [0x02] IF !(ExtData[1]->WorkLocal[4] == 8*) GOTO 0x05F2
168: 0x05EA [0x03] ExtData[1]->WorkLocal[21] = 0*
169: 0x05EF [0x01] GOTO 0x0757
170: 0x05F2 [0x02] IF !(ExtData[1]->WorkLocal[4] == 9*) GOTO 0x0602
171: 0x05FA [0x03] ExtData[1]->WorkLocal[21] = 0*
172: 0x05FF [0x01] GOTO 0x0757
173: 0x0602 [0x02] IF !(ExtData[1]->WorkLocal[4] == 10*) GOTO 0x0612
174: 0x060A [0x03] ExtData[1]->WorkLocal[21] = 0*
175: 0x060F [0x01] GOTO 0x0757
176: 0x0612 [0x02] IF !(ExtData[1]->WorkLocal[4] == 11*) GOTO 0x0622
177: 0x061A [0x03] ExtData[1]->WorkLocal[21] = 0*
178: 0x061F [0x01] GOTO 0x0757
179: 0x0622 [0x02] IF !(ExtData[1]->WorkLocal[4] == 12*) GOTO 0x0632
180: 0x062A [0x03] ExtData[1]->WorkLocal[21] = 0*
181: 0x062F [0x01] GOTO 0x0757
182: 0x0632 [0x02] IF !(ExtData[1]->WorkLocal[4] == 13*) GOTO 0x0642
183: 0x063A [0x03] ExtData[1]->WorkLocal[21] = 0*
184: 0x063F [0x01] GOTO 0x0757
185: 0x0642 [0x02] IF !(ExtData[1]->WorkLocal[4] == 14*) GOTO 0x0652
186: 0x064A [0x03] ExtData[1]->WorkLocal[21] = 0*
187: 0x064F [0x01] GOTO 0x0757
188: 0x0652 [0x02] IF !(ExtData[1]->WorkLocal[4] == 15*) GOTO 0x0662
189: 0x065A [0x03] ExtData[1]->WorkLocal[21] = 0*
190: 0x065F [0x01] GOTO 0x0757
191: 0x0662 [0x02] IF !(ExtData[1]->WorkLocal[4] == 16*) GOTO 0x0672
192: 0x066A [0x03] ExtData[1]->WorkLocal[21] = 0*
193: 0x066F [0x01] GOTO 0x0757
194: 0x0672 [0x02] IF !(ExtData[1]->WorkLocal[4] == 17*) GOTO 0x0682
195: 0x067A [0x03] ExtData[1]->WorkLocal[21] = 0*
196: 0x067F [0x01] GOTO 0x0757
197: 0x0682 [0x02] IF !(ExtData[1]->WorkLocal[4] == 18*) GOTO 0x0692
198: 0x068A [0x03] ExtData[1]->WorkLocal[21] = 0*
199: 0x068F [0x01] GOTO 0x0757
200: 0x0692 [0x02] IF !(ExtData[1]->WorkLocal[4] == 19*) GOTO 0x06A2
201: 0x069A [0x03] ExtData[1]->WorkLocal[21] = 0*
202: 0x069F [0x01] GOTO 0x0757
203: 0x06A2 [0x02] IF !(ExtData[1]->WorkLocal[4] == 20*) GOTO 0x06B2
204: 0x06AA [0x03] ExtData[1]->WorkLocal[21] = 0*
205: 0x06AF [0x01] GOTO 0x0757
206: 0x06B2 [0x02] IF !(ExtData[1]->WorkLocal[4] == 21*) GOTO 0x06C2
207: 0x06BA [0x03] ExtData[1]->WorkLocal[21] = 0*
208: 0x06BF [0x01] GOTO 0x0757
209: 0x06C2 [0x02] IF !(ExtData[1]->WorkLocal[4] == 22*) GOTO 0x06D2
210: 0x06CA [0x03] ExtData[1]->WorkLocal[21] = 0*
211: 0x06CF [0x01] GOTO 0x0757
212: 0x06D2 [0x02] IF !(ExtData[1]->WorkLocal[4] == 23*) GOTO 0x06E2
213: 0x06DA [0x03] ExtData[1]->WorkLocal[21] = 0*
214: 0x06DF [0x01] GOTO 0x0757
215: 0x06E2 [0x02] IF !(ExtData[1]->WorkLocal[4] == 24*) GOTO 0x06F2
216: 0x06EA [0x03] ExtData[1]->WorkLocal[21] = 0*
217: 0x06EF [0x01] GOTO 0x0757
218: 0x06F2 [0x02] IF !(ExtData[1]->WorkLocal[4] == 25*) GOTO 0x0702
219: 0x06FA [0x03] ExtData[1]->WorkLocal[21] = 0*
220: 0x06FF [0x01] GOTO 0x0757
221: 0x0702 [0x02] IF !(ExtData[1]->WorkLocal[4] == 26*) GOTO 0x0712
222: 0x070A [0x03] ExtData[1]->WorkLocal[21] = 0*
223: 0x070F [0x01] GOTO 0x0757
224: 0x0712 [0x02] IF !(ExtData[1]->WorkLocal[4] == 27*) GOTO 0x0722
225: 0x071A [0x03] ExtData[1]->WorkLocal[21] = 0*
226: 0x071F [0x01] GOTO 0x0757
227: 0x0722 [0x02] IF !(ExtData[1]->WorkLocal[4] == 28*) GOTO 0x0732
228: 0x072A [0x03] ExtData[1]->WorkLocal[21] = 0*
229: 0x072F [0x01] GOTO 0x0757
230: 0x0732 [0x02] IF !(ExtData[1]->WorkLocal[4] == 29*) GOTO 0x0742
231: 0x073A [0x03] ExtData[1]->WorkLocal[21] = 0*
232: 0x073F [0x01] GOTO 0x0757
233: 0x0742 [0x02] IF !(ExtData[1]->WorkLocal[4] == 30*) GOTO 0x0752
234: 0x074A [0x03] ExtData[1]->WorkLocal[21] = 0*
235: 0x074F [0x01] GOTO 0x0757
236: 0x0752 [0x03] ExtData[1]->WorkLocal[21] = 0*

SUBROUTINE_0757:
237: 0x0757 [0x02] IF !(ExtData[1]->WorkLocal[2] == 1*) GOTO 0x0772
238: 0x075F [0x5C] MUSIC_CONTROL: Set Idle (Day) music to song 232*
239: 0x0763 [0x5C] MUSIC_CONTROL: Set Idle (Night) music to song 232*
240: 0x0767 [0x5C] MUSIC_CONTROL: Set Combat (Solo) music to song 232*
241: 0x076B [0x5C] MUSIC_CONTROL: Set Combat (Party) music to song 232*
242: 0x076F [0x01] GOTO 0x078A
243: 0x0772 [0x02] IF !(ExtData[1]->WorkLocal[21] == 0*) GOTO 0x078A
244: 0x077A [0x5C] MUSIC_CONTROL: Set Idle (Day) music to song 232*
245: 0x077E [0x5C] MUSIC_CONTROL: Set Idle (Night) music to song 232*
246: 0x0782 [0x5C] MUSIC_CONTROL: Set Combat (Solo) music to song 232*
247: 0x0786 [0x5C] MUSIC_CONTROL: Set Combat (Party) music to song 232*

SUBROUTINE_078A:
248: 0x078A [0x02] IF !(ExtData[1]->WorkLocal[2] == 0*) GOTO 0x0798
249: 0x0792 [0x1A] CALL_SUBROUTINE(address=0x1009)
250: 0x0795 [0x01] GOTO 0x07D1
251: 0x0798 [0x6C] FADE_ENTITY_COLOR(entity_id=LocalPlayer, end_alpha=0*, fade_time=1*)
252: 0x07A1 [0x62] LOAD_EVENT_SCHEDULER: Load scheduler "main" with entities [LocalPlayer, LocalPlayer], work=[2*, 0*]
253: 0x07B2 [0x45] LOAD_SCHEDULED_TASK: Load scheduler "ovl1" with entities [LocalPlayer, LocalPlayer], work=[200*, 0*]
254: 0x07C3 [0x46] CAMERA_CONTROL: Query status
255: 0x07C5 [0x12] 0x0200 = rand()
256: 0x07C8 [0x12] ExtData[1]->WorkLocal[0] = rand()
257: 0x07CB [0x80] LOAD_WAIT(entity=Unknown NPC (ID: 1174917376/0x4607D100))
258: 0x07D0 [0x00] END_REQSTACK()

SUBROUTINE_07D1:
259: 0x07D1 [0x03] Work_Zone[1] = 100*
260: 0x07D6 [0x07] Work_Zone[1] += ExtData[1]->WorkLocal[3]
261: 0x07DB [0x01] GOTO 0x07F8

SUBROUTINE_07E1:
262: 0x07E1 [0x0B] ExtData[1]->WorkLocal[0]++
263: 0x07E4 [0x02] IF !(0* == 1*) GOTO 0x07F1
264: 0x07EC [0x03] ExtData[1]->WorkLocal[0] = 2*
265: 0x07F1 [0x01] GOTO 0x01A4
266: 0x07F4 [0x48] [System] [7230*]:
    → "You cannot enter the battlefield at present. Please wait a little longer."
267: 0x07F7 [0x23] WAIT_FOR_DIALOG_INTERACTION

SUBROUTINE_07F8:
268: 0x07F8 [0x45] LOAD_SCHEDULED_TASK: Load scheduler "whi1" with entities [LocalPlayer, LocalPlayer], work=[201*, 0*]
269: 0x0809 [0x45] LOAD_SCHEDULED_TASK: Load scheduler "blof" with entities [LocalPlayer, LocalPlayer], work=[200*, 0*]
270: 0x081A [0x45] LOAD_SCHEDULED_TASK: Load scheduler "fdi0" with entities [LocalPlayer, LocalPlayer], work=[200*, 0*]

SUBROUTINE_082B:
271: 0x082B [0x02] IF !(ExtData[1]->WorkLocal[7] == 1*) GOTO 0x0843
272: 0x0833 [0x5C] MUSIC_CONTROL: Set Idle (Day) music to song 0*
273: 0x0837 [0x5C] MUSIC_CONTROL: Set Idle (Night) music to song 0*
274: 0x083B [0x5C] MUSIC_CONTROL: Set Combat (Solo) music to song 115*
275: 0x083F [0x5C] MUSIC_CONTROL: Set Combat (Party) music to song 218*
276: 0x0843 [0x21] END_EVENT
277: 0x0844 [0x00] END_REQSTACK()

SUBROUTINE_0845:
278: 0x0845 [0x1B] RETURN
```

#### Data or dead code:

```
# Dead code (unreachable instructions):
     0x0070 [0x01] GOTO 0x0145
# Dead code (unreachable instructions):
     0x0116 [0x01] GOTO 0x011E
# Dead code (unreachable instructions):
     0x0142 [0x01] GOTO 0x0145
# Dead code (unreachable instructions):
     0x025C [0x01] GOTO 0x07E1
     0x026E [0x01] GOTO 0x07E1
# Dead code (unreachable instructions):
     0x0470 [0x01] GOTO 0x07E1
     0x047E [0x01] GOTO 0x07E1
# Dead code (unreachable instructions):
     0x07DE [0x01] GOTO 0x07E1
```

### Event 32002

#### Metadata

| Field        | Value     |
|--------------|-----------|
| Entrypoint   | 0x0846    |
| Data Size    | 494 bytes |
| Instructions | 83        |

```
      00 01 02 03 04 05 06 07  08 09 0A 0B 0C 0D 0E 0F
      -- -- -- -- -- -- -- --  -- -- -- -- -- -- -- --
0840:                   03 05  00 06 10 03 21 00 07 10        ......!...
0850: 03 20 00 08 10 20 01 42  3B F0 FF FF 7F 20 10 21  . ... .B;.... .!
0860: 10 22 10 3A F0 FF FF 7F  23 10 45 0E 80 F0 FF FF  .".:....#.E.....
0870: 7F F0 FF FF 7F 66 64 6F  31 00 80 55 0E 80 F0 FF  .....fdo1..U....
0880: FF 7F F0 FF FF 7F 66 64  6F 31 02 00 80 05 80 00  ......fdo1......
0890: F1 08 02 05 00 05 80 80  A9 08 47 00 00 80 00 80  ..........G.....
08A0: 00 80 00 80 47 01 01 EE  08 02 05 00 09 80 80 C0  ....G...........
08B0: 08 47 00 00 80 00 80 00  80 00 80 47 01 01 EE 08  .G.........G....
08C0: 02 05 00 0A 80 80 D7 08  47 00 00 80 00 80 00 80  ........G.......
08D0: 00 80 47 01 01 EE 08 02  05 00 0B 80 80 EE 08 47  ..G............G
08E0: 00 00 80 00 80 00 80 00  80 47 01 01 EE 08 01 FA  .........G......
08F0: 09 02 20 00 38 80 80 7B  09 02 21 00 00 80 80 10  .. .8..{..!.....
0900: 09 47 00 39 80 3A 80 3B  80 3C 80 47 01 01 78 09  .G.9.:.;.<.G..x.
0910: 02 21 00 05 80 80 27 09  47 00 3D 80 3E 80 3F 80  .!....'.G.=.>.?.
0920: 40 80 47 01 01 78 09 02  21 00 09 80 80 3E 09 47  @.G..x..!....>.G
0930: 00 41 80 42 80 43 80 44  80 47 01 01 78 09 02 21  .A.B.C.D.G..x..!
0940: 00 0A 80 80 55 09 47 00  45 80 46 80 47 80 48 80  ....U.G.E.F.G.H.
0950: 47 01 01 78 09 02 21 00  0B 80 80 6C 09 47 00 49  G..x..!....l.G.I
0960: 80 4A 80 4B 80 4C 80 47  01 01 78 09 47 00 4D 80  .J.K.L.G..x.G.M.
0970: 4E 80 4F 80 50 80 47 01  01 FA 09 02 20 00 18 80  N.O.P.G..... ...
0980: 80 EE 09 02 21 00 05 80  80 9A 09 47 00 51 80 52  ....!......G.Q.R
0990: 80 53 80 54 80 47 01 01  EB 09 02 21 00 09 80 80  .S.T.G.....!....
09A0: B1 09 47 00 55 80 56 80  57 80 58 80 47 01 01 EB  ..G.U.V.W.X.G...
09B0: 09 02 21 00 0A 80 80 C8  09 47 00 59 80 5A 80 5B  ..!......G.Y.Z.[
09C0: 80 5C 80 47 01 01 EB 09  02 21 00 0B 80 80 DF 09  .\.G.....!......
09D0: 47 00 5D 80 5E 80 5F 80  60 80 47 01 01 EB 09 47  G.].^._.`.G....G
09E0: 00 4D 80 4E 80 4F 80 50  80 47 01 01 FA 09 47 00  .M.N.O.P.G....G.
09F0: 4D 80 4E 80 4F 80 50 80  47 01 38 0F 80 1A E1 17  M.N.O.P.G.8.....
0A00: 45 35 80 F0 FF FF 7F F0  FF FF 7F 77 68 69 31 00  E5.........whi1.
0A10: 80 45 0E 80 F0 FF FF 7F  F0 FF FF 7F 62 6C 6F 66  .E..........blof
0A20: 00 80 5C 00 00 80 5C 01  00 80 5C 02 36 80 5C 03  ..\...\...\.6.\.
0A30: 37 80 21 00                                       7.!.            
```

#### Opcodes

```
  0: 0x0846 [0x03] ExtData[1]->WorkLocal[5] = Work_Zone[6]
  1: 0x084B [0x03] ExtData[1]->WorkLocal[33] = Work_Zone[7]
  2: 0x0850 [0x03] ExtData[1]->WorkLocal[32] = Work_Zone[8]
  3: 0x0855 [0x20] SET_CLI_EVENT_UC_FLAG: Lock player control
  4: 0x0857 [0x42] SET_CLI_EVENT_CANCEL_DATA()
  5: 0x0858 [0x3B] GET_ENTITY_POSITION(entity=LocalPlayer, x_destination=Work_Zone[32], y_destination=Work_Zone[33], z_destination=Work_Zone[34])
  6: 0x0863 [0x3A] CONVERT_YAW_TO_BYTE(entity=LocalPlayer, result_destination=Work_Zone[35])
  7: 0x086A [0x45] LOAD_SCHEDULED_TASK: Load scheduler "fdo1" with entities [LocalPlayer, LocalPlayer], work=[200*, 0*]
  8: 0x087B [0x55] WAIT_LOAD_SCHEDULER: Wait for scheduler "fdo1" with entities [LocalPlayer, LocalPlayer], work=200*
  9: 0x088A [0x02] IF !(0* == 1*) GOTO 0x08F1
 10: 0x0892 [0x02] IF !(ExtData[1]->WorkLocal[5] == 1*) GOTO 0x08A9
 11: 0x089A [0x47] UPDATE_PLAYER_POS(0.000*, 0.000*, 0.000*, yaw=0.0°*)
 12: 0x08A4 [0x47] WAIT_PLAYER_POS_UPDATE
 13: 0x08A6 [0x01] GOTO 0x08EE
 14: 0x08A9 [0x02] IF !(ExtData[1]->WorkLocal[5] == 2*) GOTO 0x08C0
 15: 0x08B1 [0x47] UPDATE_PLAYER_POS(0.000*, 0.000*, 0.000*, yaw=0.0°*)
 16: 0x08BB [0x47] WAIT_PLAYER_POS_UPDATE
 17: 0x08BD [0x01] GOTO 0x08EE
 18: 0x08C0 [0x02] IF !(ExtData[1]->WorkLocal[5] == 3*) GOTO 0x08D7
 19: 0x08C8 [0x47] UPDATE_PLAYER_POS(0.000*, 0.000*, 0.000*, yaw=0.0°*)
 20: 0x08D2 [0x47] WAIT_PLAYER_POS_UPDATE
 21: 0x08D4 [0x01] GOTO 0x08EE
 22: 0x08D7 [0x02] IF !(ExtData[1]->WorkLocal[5] == 4*) GOTO 0x08EE
 23: 0x08DF [0x47] UPDATE_PLAYER_POS(0.000*, 0.000*, 0.000*, yaw=0.0°*)
 24: 0x08E9 [0x47] WAIT_PLAYER_POS_UPDATE
 25: 0x08EB [0x01] GOTO 0x08EE

SUBROUTINE_08EE:
 26: 0x08EE [0x01] GOTO 0x09FA
 27: 0x08F1 [0x02] IF !(ExtData[1]->WorkLocal[32] == 180*) GOTO 0x097B
 28: 0x08F9 [0x02] IF !(ExtData[1]->WorkLocal[33] == 0*) GOTO 0x0910
 29: 0x0901 [0x47] UPDATE_PLAYER_POS(-605.141*, 479.929*, -22.681*, yaw=87.2°*)
 30: 0x090B [0x47] WAIT_PLAYER_POS_UPDATE
 31: 0x090D [0x01] GOTO 0x0978
 32: 0x0910 [0x02] IF !(ExtData[1]->WorkLocal[33] == 1*) GOTO 0x0927
 33: 0x0918 [0x47] UPDATE_PLAYER_POS(-262.589*, 377.857*, -137.313*, yaw=305.3°*)
 34: 0x0922 [0x47] WAIT_PLAYER_POS_UPDATE
 35: 0x0924 [0x01] GOTO 0x0978
 36: 0x0927 [0x02] IF !(ExtData[1]->WorkLocal[33] == 2*) GOTO 0x093E
 37: 0x092F [0x47] UPDATE_PLAYER_POS(18.348*, 486.940*, -224.334*, yaw=17.1°*)
 38: 0x0939 [0x47] WAIT_PLAYER_POS_UPDATE
 39: 0x093B [0x01] GOTO 0x0978
 40: 0x093E [0x02] IF !(ExtData[1]->WorkLocal[33] == 3*) GOTO 0x0955
 41: 0x0946 [0x47] UPDATE_PLAYER_POS(231.593*, 360.094*, -173.572*, yaw=160.8°*)
 42: 0x0950 [0x47] WAIT_PLAYER_POS_UPDATE
 43: 0x0952 [0x01] GOTO 0x0978
 44: 0x0955 [0x02] IF !(ExtData[1]->WorkLocal[33] == 4*) GOTO 0x096C
 45: 0x095D [0x47] UPDATE_PLAYER_POS(553.664*, 523.939*, -38.205*, yaw=233.9°*)
 46: 0x0967 [0x47] WAIT_PLAYER_POS_UPDATE
 47: 0x0969 [0x01] GOTO 0x0978
 48: 0x096C [0x47] UPDATE_PLAYER_POS(-608.290*, 689.710*, 4.009*, yaw=39.1°*)
 49: 0x0976 [0x47] WAIT_PLAYER_POS_UPDATE

SUBROUTINE_0978:
 50: 0x0978 [0x01] GOTO 0x09FA
 51: 0x097B [0x02] IF !(ExtData[1]->WorkLocal[32] == 6*) GOTO 0x09EE
 52: 0x0983 [0x02] IF !(ExtData[1]->WorkLocal[33] == 1*) GOTO 0x099A
 53: 0x098B [0x47] UPDATE_PLAYER_POS(-875.117*, -43.892*, -48.084*, yaw=45.1°*)
 54: 0x0995 [0x47] WAIT_PLAYER_POS_UPDATE
 55: 0x0997 [0x01] GOTO 0x09EB
 56: 0x099A [0x02] IF !(ExtData[1]->WorkLocal[33] == 2*) GOTO 0x09B1
 57: 0x09A2 [0x47] UPDATE_PLAYER_POS(-755.499*, 563.947*, -112.035*, yaw=313.5°*)
 58: 0x09AC [0x47] WAIT_PLAYER_POS_UPDATE
 59: 0x09AE [0x01] GOTO 0x09EB
 60: 0x09B1 [0x02] IF !(ExtData[1]->WorkLocal[33] == 3*) GOTO 0x09C8
 61: 0x09B9 [0x47] UPDATE_PLAYER_POS(123.251*, 754.209*, -172.124*, yaw=38.7°*)
 62: 0x09C3 [0x47] WAIT_PLAYER_POS_UPDATE
 63: 0x09C5 [0x01] GOTO 0x09EB
 64: 0x09C8 [0x02] IF !(ExtData[1]->WorkLocal[33] == 4*) GOTO 0x09DF
 65: 0x09D0 [0x47] UPDATE_PLAYER_POS(-516.404*, -803.323*, 24.206*, yaw=38.4°*)
 66: 0x09DA [0x47] WAIT_PLAYER_POS_UPDATE
 67: 0x09DC [0x01] GOTO 0x09EB
 68: 0x09DF [0x47] UPDATE_PLAYER_POS(-608.290*, 689.710*, 4.009*, yaw=39.1°*)
 69: 0x09E9 [0x47] WAIT_PLAYER_POS_UPDATE

SUBROUTINE_09EB:
 70: 0x09EB [0x01] GOTO 0x09FA
 71: 0x09EE [0x47] UPDATE_PLAYER_POS(-608.290*, 689.710*, 4.009*, yaw=39.1°*)
 72: 0x09F8 [0x47] WAIT_PLAYER_POS_UPDATE

SUBROUTINE_09FA:
 73: 0x09FA [0x38] SET_CLIENT_EVENT_MODE(mode=19*)
 74: 0x09FD [0x1A] CALL_SUBROUTINE(address=0x17E1)
 75: 0x0A00 [0x45] LOAD_SCHEDULED_TASK: Load scheduler "whi1" with entities [LocalPlayer, LocalPlayer], work=[201*, 0*]
 76: 0x0A11 [0x45] LOAD_SCHEDULED_TASK: Load scheduler "blof" with entities [LocalPlayer, LocalPlayer], work=[200*, 0*]
 77: 0x0A22 [0x5C] MUSIC_CONTROL: Set Idle (Day) music to song 0*
 78: 0x0A26 [0x5C] MUSIC_CONTROL: Set Idle (Night) music to song 0*
 79: 0x0A2A [0x5C] MUSIC_CONTROL: Set Combat (Solo) music to song 115*
 80: 0x0A2E [0x5C] MUSIC_CONTROL: Set Combat (Party) music to song 218*
 81: 0x0A32 [0x21] END_EVENT
 82: 0x0A33 [0x00] END_REQSTACK()
```

### Event 32001

#### Metadata

| Field        | Value      |
|--------------|------------|
| Entrypoint   | 0x0A34     |
| Data Size    | 1033 bytes |
| Instructions | 177        |

```
      00 01 02 03 04 05 06 07  08 09 0A 0B 0C 0D 0E 0F
      -- -- -- -- -- -- -- --  -- -- -- -- -- -- -- --
0A30:             79 00 F0 FF  FF 7F F0 FF FF 7F 03 21      y..........!
0A40: 00 02 10 03 1A 00 03 10  03 1B 00 05 10 03 20 00  .............. .
0A50: 06 10 03 19 00 07 10 03  17 00 08 10 02 17 00 0A  ................
0A60: 80 04 69 0A 03 17 00 00  80 03 1C 00 09 10 20 01  ..i........... .
0A70: 42 3B F0 FF FF 7F 20 10  21 10 22 10 3A F0 FF FF  B;.... .!.".:...
0A80: 7F 23 10 02 20 00 38 80  01 8E 0A 1C 61 80 45 35  .#.. .8.....a.E5
0A90: 80 F0 FF FF 7F F0 FF FF  7F 77 68 69 31 00 80 45  .........whi1..E
0AA0: 0E 80 F0 FF FF 7F F0 FF  FF 7F 62 6C 6F 66 00 80  ..........blof..
0AB0: 45 0E 80 F0 FF FF 7F F0  FF FF 7F 66 64 6F 31 00  E..........fdo1.
0AC0: 80 55 0E 80 F0 FF FF 7F  F0 FF FF 7F 66 64 6F 31  .U..........fdo1
0AD0: 6C F0 FF FF 7F 62 80 05  80 06 01 10 02 17 00 00  l....b..........
0AE0: 80 03 E7 0A 01 35 0C 02  20 00 38 80 80 71 0B 02  .....5.. .8..q..
0AF0: 21 00 00 80 80 06 0B 47  00 63 80 64 80 65 80 66  !......G.c.d.e.f
0B00: 80 47 01 01 6E 0B 02 21  00 05 80 80 1D 0B 47 00  .G..n..!......G.
0B10: 67 80 68 80 69 80 6A 80  47 01 01 6E 0B 02 21 00  g.h.i.j.G..n..!.
0B20: 09 80 80 34 0B 47 00 6B  80 6C 80 6D 80 6E 80 47  ...4.G.k.l.m.n.G
0B30: 01 01 6E 0B 02 21 00 0A  80 80 4B 0B 47 00 6F 80  ..n..!....K.G.o.
0B40: 70 80 71 80 72 80 47 01  01 6E 0B 02 21 00 0B 80  p.q.r.G..n..!...
0B50: 80 62 0B 47 00 73 80 74  80 75 80 76 80 47 01 01  .b.G.s.t.u.v.G..
0B60: 6E 0B 47 00 4D 80 4E 80  4F 80 50 80 47 01 01 35  n.G.M.N.O.P.G..5
0B70: 0C 02 20 00 77 80 80 9F  0B 02 19 00 00 80 80 90  .. .w...........
0B80: 0B 47 00 4D 80 4E 80 4F  80 50 80 47 01 01 9C 0B  .G.M.N.O.P.G....
0B90: 47 00 78 80 79 80 7A 80  7B 80 47 01 01 35 0C 02  G.x.y.z.{.G..5..
0BA0: 20 00 7C 80 80 CD 0B 02  19 00 0B 80 80 BE 0B 47   .|............G
0BB0: 00 7D 80 7E 80 7F 80 80  80 47 01 01 CA 0B 47 00  .}.~.....G....G.
0BC0: 4D 80 4E 80 4F 80 50 80  47 01 01 35 0C 02 20 00  M.N.O.P.G..5.. .
0BD0: 81 80 80 FB 0B 02 19 00  0B 80 80 EC 0B 47 00 82  .............G..
0BE0: 80 83 80 84 80 85 80 47  01 01 F8 0B 47 00 4D 80  .......G....G.M.
0BF0: 4E 80 4F 80 50 80 47 01  01 35 0C 02 20 00 86 80  N.O.P.G..5.. ...
0C00: 80 29 0C 02 19 00 0A 80  80 1A 0C 47 00 87 80 88  .).........G....
0C10: 80 89 80 8A 80 47 01 01  26 0C 47 00 4D 80 4E 80  .....G..&.G.M.N.
0C20: 4F 80 50 80 47 01 01 35  0C 47 00 4D 80 4E 80 4F  O.P.G..5.G.M.N.O
0C30: 80 50 80 47 01 38 0F 80  02 17 00 09 80 00 43 0C  .P.G.8........C.
0C40: 01 5E 0C 02 17 00 05 80  00 0E 0D 1C 01 80 24 32  .^............$2
0C50: 80 05 80 00 80 25 02 00  10 00 80 00 0E 0D 02 20  .....%......... 
0C60: 00 38 80 00 CA 0C 02 21  00 00 80 80 78 0C 36 63  .8.....!....x.6c
0C70: 80 64 80 65 80 01 C7 0C  02 21 00 05 80 80 8A 0C  .d.e.....!......
0C80: 36 67 80 68 80 69 80 01  C7 0C 02 21 00 09 80 80  6g.h.i.....!....
0C90: 9C 0C 36 6B 80 6C 80 6D  80 01 C7 0C 02 21 00 0A  ..6k.l.m.....!..
0CA0: 80 80 AE 0C 36 6F 80 70  80 71 80 01 C7 0C 02 21  ....6o.p.q.....!
0CB0: 00 0B 80 80 C0 0C 36 73  80 74 80 75 80 01 C7 0C  ......6s.t.u....
0CC0: 36 4D 80 4E 80 4F 80 01  D3 0C 37 4D 80 4E 80 4F  6M.N.O....7M.N.O
0CD0: 80 50 80 80 F0 FF FF 7F  62 09 80 F0 FF FF 7F F0  .P......b.......
0CE0: FF FF 7F 6D 61 69 6E 00  80 45 0E 80 F0 FF FF 7F  ...main..E......
0CF0: F0 FF FF 7F 66 64 69 32  00 80 46 02 12 00 02 12  ....fdi2..F.....
0D00: 00 00 80 00 08 0D 46 00  01 35 0D 01 0E 0D 02 17  ......F..5......
0D10: 00 04 80 04 27 0D 5C 00  33 80 5C 01 33 80 5C 02  ....'.\.3.\.3.\.
0D20: 33 80 5C 03 33 80 9A 1A  D3 12 02 17 00 00 80 03  3.\.3...........
0D30: 35 0D 01 D5 0D 02 20 00  8B 80 80 40 0D 01 40 0D  5..... ....@..@.
0D40: 02 20 00 1F 80 80 4B 0D  01 D5 0D 02 20 00 0F 80  . ....K..... ...
0D50: 80 56 0D 01 D5 0D 02 20  00 21 80 80 61 0D 01 D5  .V..... .!..a...
0D60: 0D 02 20 00 23 80 80 6C  0D 01 D5 0D 03 05 10 1B  .. .#..l........
0D70: 00 02 05 10 00 80 02 D5  0D 02 05 10 2E 80 04 94  ................
0D80: 0D 3F 04 10 05 10 2E 80  15 05 10 2E 80 48 8C 80  .?...........H..
0D90: 23 01 98 0D 48 8D 80 23  02 1B 00 1A 00 05 AC 0D  #...H..#........
0DA0: 03 07 10 19 00 48 8E 80  23 01 D5 0D 02 1A 00 2E  .....H..#.......
0DB0: 80 04 CC 0D 03 05 10 1A  00 3F 04 10 05 10 2E 80  .........?......
0DC0: 15 05 10 2E 80 48 8F 80  23 01 D5 0D 03 05 10 1A  .....H..#.......
0DD0: 00 48 90 80 23 02 18 00  00 80 00 ED 0D 5C 00 00  .H..#........\..
0DE0: 80 5C 01 00 80 5C 02 36  80 5C 03 37 80 02 17 00  .\...\.6.\.7....
0DF0: 00 80 03 16 0E 45 0E 80  F0 FF FF 7F F0 FF FF 7F  .....E..........
0E00: 66 64 69 32 00 80 5C 00  00 80 5C 01 00 80 5C 02  fdi2..\...\...\.
0E10: 36 80 5C 03 37 80 06 18  00 45 35 80 F0 FF FF 7F  6.\.7....E5.....
0E20: F0 FF FF 7F 77 68 69 31  00 80 45 0E 80 F0 FF FF  ....whi1..E.....
0E30: 7F F0 FF FF 7F 62 6C 6F  66 00 80 21 00           .....blof..!.   
```

#### Opcodes

```
  0: 0x0A34 [0x79] LocalPlayer looks at LocalPlayer (Basic look)
  1: 0x0A3E [0x03] ExtData[1]->WorkLocal[33] = Work_Zone[2]
  2: 0x0A43 [0x03] ExtData[1]->WorkLocal[26] = Work_Zone[3]
  3: 0x0A48 [0x03] ExtData[1]->WorkLocal[27] = Work_Zone[5]
  4: 0x0A4D [0x03] ExtData[1]->WorkLocal[32] = Work_Zone[6]
  5: 0x0A52 [0x03] ExtData[1]->WorkLocal[25] = Work_Zone[7]
  6: 0x0A57 [0x03] ExtData[1]->WorkLocal[23] = Work_Zone[8]
  7: 0x0A5C [0x02] IF !(ExtData[1]->WorkLocal[23] < 3*) GOTO 0x0A69
  8: 0x0A64 [0x03] ExtData[1]->WorkLocal[23] = 0*
  9: 0x0A69 [0x03] ExtData[1]->WorkLocal[28] = Work_Zone[9]
 10: 0x0A6E [0x20] SET_CLI_EVENT_UC_FLAG: Lock player control
 11: 0x0A70 [0x42] SET_CLI_EVENT_CANCEL_DATA()
 12: 0x0A71 [0x3B] GET_ENTITY_POSITION(entity=LocalPlayer, x_destination=Work_Zone[32], y_destination=Work_Zone[33], z_destination=Work_Zone[34])
 13: 0x0A7C [0x3A] CONVERT_YAW_TO_BYTE(entity=LocalPlayer, result_destination=Work_Zone[35])
 14: 0x0A83 [0x02] IF !(ExtData[1]->WorkLocal[32] == 180*) GOTO 0x0A8E
 15: 0x0A8B [0x1C] WAIT(300* ticks)
 16: 0x0A8E [0x45] LOAD_SCHEDULED_TASK: Load scheduler "whi1" with entities [LocalPlayer, LocalPlayer], work=[201*, 0*]
 17: 0x0A9F [0x45] LOAD_SCHEDULED_TASK: Load scheduler "blof" with entities [LocalPlayer, LocalPlayer], work=[200*, 0*]
 18: 0x0AB0 [0x45] LOAD_SCHEDULED_TASK: Load scheduler "fdo1" with entities [LocalPlayer, LocalPlayer], work=[200*, 0*]
 19: 0x0AC1 [0x55] WAIT_LOAD_SCHEDULER: Wait for scheduler "fdo1" with entities [LocalPlayer, LocalPlayer], work=200*
 20: 0x0AD0 [0x6C] FADE_ENTITY_COLOR(entity_id=LocalPlayer, end_alpha=128*, fade_time=1*)
 21: 0x0AD9 [0x06] Work_Zone[1] = 0
 22: 0x0ADC [0x02] IF !(ExtData[1]->WorkLocal[23] >= 0*) GOTO 0x0AE7
 23: 0x0AE4 [0x01] GOTO 0x0C35
 24: 0x0AE7 [0x02] IF !(ExtData[1]->WorkLocal[32] == 180*) GOTO 0x0B71
 25: 0x0AEF [0x02] IF !(ExtData[1]->WorkLocal[33] == 0*) GOTO 0x0B06
 26: 0x0AF7 [0x47] UPDATE_PLAYER_POS(-618.329*, -643.868*, -25.805*, yaw=330.5°*)
 27: 0x0B01 [0x47] WAIT_PLAYER_POS_UPDATE
 28: 0x0B03 [0x01] GOTO 0x0B6E
 29: 0x0B06 [0x02] IF !(ExtData[1]->WorkLocal[33] == 1*) GOTO 0x0B1D
 30: 0x0B0E [0x47] UPDATE_PLAYER_POS(-332.163*, -441.914*, -95.055*, yaw=330.5°*)
 31: 0x0B18 [0x47] WAIT_PLAYER_POS_UPDATE
 32: 0x0B1A [0x01] GOTO 0x0B6E
 33: 0x0B1D [0x02] IF !(ExtData[1]->WorkLocal[33] == 2*) GOTO 0x0B34
 34: 0x0B25 [0x47] UPDATE_PLAYER_POS(-12.464*, -648.377*, -194.629*, yaw=331.3°*)
 35: 0x0B2F [0x47] WAIT_PLAYER_POS_UPDATE
 36: 0x0B31 [0x01] GOTO 0x0B6E
 37: 0x0B34 [0x02] IF !(ExtData[1]->WorkLocal[33] == 3*) GOTO 0x0B4B
 38: 0x0B3C [0x47] UPDATE_PLAYER_POS(323.381*, -443.793*, -108.440*, yaw=329.1°*)
 39: 0x0B46 [0x47] WAIT_PLAYER_POS_UPDATE
 40: 0x0B48 [0x01] GOTO 0x0B6E
 41: 0x0B4B [0x02] IF !(ExtData[1]->WorkLocal[33] == 4*) GOTO 0x0B62
 42: 0x0B53 [0x47] UPDATE_PLAYER_POS(599.907*, -676.969*, -22.473*, yaw=330.7°*)
 43: 0x0B5D [0x47] WAIT_PLAYER_POS_UPDATE
 44: 0x0B5F [0x01] GOTO 0x0B6E
 45: 0x0B62 [0x47] UPDATE_PLAYER_POS(-608.290*, 689.710*, 4.009*, yaw=39.1°*)
 46: 0x0B6C [0x47] WAIT_PLAYER_POS_UPDATE

SUBROUTINE_0B6E:
 47: 0x0B6E [0x01] GOTO 0x0C35
 48: 0x0B71 [0x02] IF !(ExtData[1]->WorkLocal[32] == 168*) GOTO 0x0B9F
 49: 0x0B79 [0x02] IF !(ExtData[1]->WorkLocal[25] == 0*) GOTO 0x0B90
 50: 0x0B81 [0x47] UPDATE_PLAYER_POS(-608.290*, 689.710*, 4.009*, yaw=39.1°*)
 51: 0x0B8B [0x47] WAIT_PLAYER_POS_UPDATE
 52: 0x0B8D [0x01] GOTO 0x0B9C
 53: 0x0B90 [0x47] UPDATE_PLAYER_POS(200.059*, -21.958*, -0.250*, yaw=91.5°*)
 54: 0x0B9A [0x47] WAIT_PLAYER_POS_UPDATE

SUBROUTINE_0B9C:
 55: 0x0B9C [0x01] GOTO 0x0C35
 56: 0x0B9F [0x02] IF !(ExtData[1]->WorkLocal[32] == 202*) GOTO 0x0BCD
 57: 0x0BA7 [0x02] IF !(ExtData[1]->WorkLocal[25] == 4*) GOTO 0x0BBE
 58: 0x0BAF [0x47] UPDATE_PLAYER_POS(538.604*, 501.900*, -13.942*, yaw=286.5°*)
 59: 0x0BB9 [0x47] WAIT_PLAYER_POS_UPDATE
 60: 0x0BBB [0x01] GOTO 0x0BCA
 61: 0x0BBE [0x47] UPDATE_PLAYER_POS(-608.290*, 689.710*, 4.009*, yaw=39.1°*)
 62: 0x0BC8 [0x47] WAIT_PLAYER_POS_UPDATE

SUBROUTINE_0BCA:
 63: 0x0BCA [0x01] GOTO 0x0C35
 64: 0x0BCD [0x02] IF !(ExtData[1]->WorkLocal[32] == 203*) GOTO 0x0BFB
 65: 0x0BD5 [0x02] IF !(ExtData[1]->WorkLocal[25] == 4*) GOTO 0x0BEC
 66: 0x0BDD [0x47] UPDATE_PLAYER_POS(553.205*, 589.633*, -0.021*, yaw=124.4°*)
 67: 0x0BE7 [0x47] WAIT_PLAYER_POS_UPDATE
 68: 0x0BE9 [0x01] GOTO 0x0BF8
 69: 0x0BEC [0x47] UPDATE_PLAYER_POS(-608.290*, 689.710*, 4.009*, yaw=39.1°*)
 70: 0x0BF6 [0x47] WAIT_PLAYER_POS_UPDATE

SUBROUTINE_0BF8:
 71: 0x0BF8 [0x01] GOTO 0x0C35
 72: 0x0BFB [0x02] IF !(ExtData[1]->WorkLocal[32] == 211*) GOTO 0x0C29
 73: 0x0C03 [0x02] IF !(ExtData[1]->WorkLocal[25] == 3*) GOTO 0x0C1A
 74: 0x0C0B [0x47] UPDATE_PLAYER_POS(569.224*, 548.462*, 36.837*, yaw=59.1°*)
 75: 0x0C15 [0x47] WAIT_PLAYER_POS_UPDATE
 76: 0x0C17 [0x01] GOTO 0x0C26
 77: 0x0C1A [0x47] UPDATE_PLAYER_POS(-608.290*, 689.710*, 4.009*, yaw=39.1°*)
 78: 0x0C24 [0x47] WAIT_PLAYER_POS_UPDATE

SUBROUTINE_0C26:
 79: 0x0C26 [0x01] GOTO 0x0C35
 80: 0x0C29 [0x47] UPDATE_PLAYER_POS(-608.290*, 689.710*, 4.009*, yaw=39.1°*)
 81: 0x0C33 [0x47] WAIT_PLAYER_POS_UPDATE

SUBROUTINE_0C35:
 82: 0x0C35 [0x38] SET_CLIENT_EVENT_MODE(mode=19*)
 83: 0x0C38 [0x02] IF !(ExtData[1]->WorkLocal[23] == 2*) GOTO 0x0C43
 84: 0x0C40 [0x01] GOTO 0x0C5E
 85: 0x0C43 [0x02] IF !(ExtData[1]->WorkLocal[23] == 1*) GOTO 0x0D0E
 86: 0x0C4B [0x1C] WAIT(15* ticks)
 87: 0x0C4E [0x24] CREATE_DIALOG(message_id=7566*, default_option=1*, option_flags=0*)
    → "Skip the event? [Yes./No.]"
 88: 0x0C55 [0x25] WAIT_DIALOG_SELECT()
 89: 0x0C56 [0x02] IF !(Work_Zone[0] == 0*) GOTO 0x0D0E

SUBROUTINE_0C5E:
 90: 0x0C5E [0x02] IF !(ExtData[1]->WorkLocal[32] == 180*) GOTO 0x0CCA
 91: 0x0C66 [0x02] IF !(ExtData[1]->WorkLocal[33] == 0*) GOTO 0x0C78
 92: 0x0C6E [0x36] SET_ENTITY_EVENT_POSITION(pos_x=-618.329*, pos_z=-643.868*, pos_y=-25.805*)
 93: 0x0C75 [0x01] GOTO 0x0CC7
 94: 0x0C78 [0x02] IF !(ExtData[1]->WorkLocal[33] == 1*) GOTO 0x0C8A
 95: 0x0C80 [0x36] SET_ENTITY_EVENT_POSITION(pos_x=-332.163*, pos_z=-441.914*, pos_y=-95.055*)
 96: 0x0C87 [0x01] GOTO 0x0CC7
 97: 0x0C8A [0x02] IF !(ExtData[1]->WorkLocal[33] == 2*) GOTO 0x0C9C
 98: 0x0C92 [0x36] SET_ENTITY_EVENT_POSITION(pos_x=-12.464*, pos_z=-648.377*, pos_y=-194.629*)
 99: 0x0C99 [0x01] GOTO 0x0CC7
100: 0x0C9C [0x02] IF !(ExtData[1]->WorkLocal[33] == 3*) GOTO 0x0CAE
101: 0x0CA4 [0x36] SET_ENTITY_EVENT_POSITION(pos_x=323.381*, pos_z=-443.793*, pos_y=-108.440*)
102: 0x0CAB [0x01] GOTO 0x0CC7
103: 0x0CAE [0x02] IF !(ExtData[1]->WorkLocal[33] == 4*) GOTO 0x0CC0
104: 0x0CB6 [0x36] SET_ENTITY_EVENT_POSITION(pos_x=599.907*, pos_z=-676.969*, pos_y=-22.473*)
105: 0x0CBD [0x01] GOTO 0x0CC7
106: 0x0CC0 [0x36] SET_ENTITY_EVENT_POSITION(pos_x=-608.290*, pos_z=689.710*, pos_y=4.009*)

SUBROUTINE_0CC7:
107: 0x0CC7 [0x01] GOTO 0x0CD3
108: 0x0CCA [0x37] UPDATE_EVENT_POSITION_AND_DIR: x=-608.290*, z=689.710*, y=4.009*, direction=39.1°*

SUBROUTINE_0CD3:
109: 0x0CD3 [0x80] LOAD_WAIT(entity=LocalPlayer)
110: 0x0CD8 [0x62] LOAD_EVENT_SCHEDULER: Load scheduler "main" with entities [LocalPlayer, LocalPlayer], work=[2*, 0*]
111: 0x0CE9 [0x45] LOAD_SCHEDULED_TASK: Load scheduler "fdi2" with entities [LocalPlayer, LocalPlayer], work=[200*, 0*]
112: 0x0CFA [0x46] CAMERA_CONTROL: Query status
113: 0x0CFC [0x12] 0x0200 = rand()
114: 0x0CFF [0x12] ExtData[1]->WorkLocal[0] = rand()
115: 0x0D02 [0x80] LOAD_WAIT(entity=Unknown NPC (ID: 1175259136/0x460D0800))
116: 0x0D07 [0x00] END_REQSTACK()

SUBROUTINE_0D0E:
117: 0x0D0E [0x02] IF !(ExtData[1]->WorkLocal[23] < 4294967295*) GOTO 0x0D27
118: 0x0D16 [0x5C] MUSIC_CONTROL: Set Idle (Day) music to song 232*
119: 0x0D1A [0x5C] MUSIC_CONTROL: Set Idle (Night) music to song 232*
120: 0x0D1E [0x5C] MUSIC_CONTROL: Set Combat (Solo) music to song 232*
121: 0x0D22 [0x5C] MUSIC_CONTROL: Set Combat (Party) music to song 232*
122: 0x0D26 [0x9A] WAIT_MUSIC_SERVER()
123: 0x0D27 [0x1A] CALL_SUBROUTINE(address=0x12D3)
124: 0x0D2A [0x02] IF !(ExtData[1]->WorkLocal[23] >= 0*) GOTO 0x0D35
125: 0x0D32 [0x01] GOTO 0x0DD5

SUBROUTINE_0D35:
126: 0x0D35 [0x02] IF !(ExtData[1]->WorkLocal[32] == 36*) GOTO 0x0D40
127: 0x0D3D [0x01] GOTO 0x0D40

SUBROUTINE_0D40:
128: 0x0D40 [0x02] IF !(ExtData[1]->WorkLocal[32] == 17*) GOTO 0x0D4B
129: 0x0D48 [0x01] GOTO 0x0DD5
130: 0x0D4B [0x02] IF !(ExtData[1]->WorkLocal[32] == 19*) GOTO 0x0D56
131: 0x0D53 [0x01] GOTO 0x0DD5
132: 0x0D56 [0x02] IF !(ExtData[1]->WorkLocal[32] == 21*) GOTO 0x0D61
133: 0x0D5E [0x01] GOTO 0x0DD5
134: 0x0D61 [0x02] IF !(ExtData[1]->WorkLocal[32] == 23*) GOTO 0x0D6C
135: 0x0D69 [0x01] GOTO 0x0DD5
136: 0x0D6C [0x03] Work_Zone[5] = ExtData[1]->WorkLocal[27]
137: 0x0D71 [0x02] IF !(Work_Zone[5] <= 0*) GOTO 0x0DD5
138: 0x0D79 [0x02] IF !(Work_Zone[5] < 60*) GOTO 0x0D94
139: 0x0D81 [0x3F] Work_Zone[4] = Work_Zone[5] % 60*
140: 0x0D88 [0x15] Work_Zone[5] /= 60*
141: 0x0D8D [0x48] [System] [7568*]:
    → "Battlefield clear time: $3 minute[/s], $2 second[/s]!"
142: 0x0D90 [0x23] WAIT_FOR_DIALOG_INTERACTION
143: 0x0D91 [0x01] GOTO 0x0D98
144: 0x0D94 [0x48] [System] [7567*]:
    → "Battlefield clear time: $3 second[/s]!"
145: 0x0D97 [0x23] WAIT_FOR_DIALOG_INTERACTION

SUBROUTINE_0D98:
146: 0x0D98 [0x02] IF !(ExtData[1]->WorkLocal[27] > ExtData[1]->WorkLocal[26]) GOTO 0x0DAC
147: 0x0DA0 [0x03] Work_Zone[7] = ExtData[1]->WorkLocal[25]
148: 0x0DA5 [0x48] [System] [7601*]:
    → "You have broken the clear time record for "[Storms of Fate/The Wyrmking Descends]"!"
149: 0x0DA8 [0x23] WAIT_FOR_DIALOG_INTERACTION
150: 0x0DA9 [0x01] GOTO 0x0DD5
151: 0x0DAC [0x02] IF !(ExtData[1]->WorkLocal[26] < 60*) GOTO 0x0DCC
152: 0x0DB4 [0x03] Work_Zone[5] = ExtData[1]->WorkLocal[26]
153: 0x0DB9 [0x3F] Work_Zone[4] = Work_Zone[5] % 60*
154: 0x0DC0 [0x15] Work_Zone[5] /= 60*
155: 0x0DC5 [0x48] [System] [7570*]:
    → "The current battlefield clear time record is $3 minute[/s] $2 second[/s]."
156: 0x0DC8 [0x23] WAIT_FOR_DIALOG_INTERACTION
157: 0x0DC9 [0x01] GOTO 0x0DD5
158: 0x0DCC [0x03] Work_Zone[5] = ExtData[1]->WorkLocal[26]
159: 0x0DD1 [0x48] [System] [7569*]:
    → "The current battlefield clear time record is $3 second[/s]."
160: 0x0DD4 [0x23] WAIT_FOR_DIALOG_INTERACTION

SUBROUTINE_0DD5:
161: 0x0DD5 [0x02] IF !(ExtData[1]->WorkLocal[24] == 0*) GOTO 0x0DED
162: 0x0DDD [0x5C] MUSIC_CONTROL: Set Idle (Day) music to song 0*
163: 0x0DE1 [0x5C] MUSIC_CONTROL: Set Idle (Night) music to song 0*
164: 0x0DE5 [0x5C] MUSIC_CONTROL: Set Combat (Solo) music to song 115*
165: 0x0DE9 [0x5C] MUSIC_CONTROL: Set Combat (Party) music to song 218*
166: 0x0DED [0x02] IF !(ExtData[1]->WorkLocal[23] >= 0*) GOTO 0x0E16
167: 0x0DF5 [0x45] LOAD_SCHEDULED_TASK: Load scheduler "fdi2" with entities [LocalPlayer, LocalPlayer], work=[200*, 0*]
168: 0x0E06 [0x5C] MUSIC_CONTROL: Set Idle (Day) music to song 0*
169: 0x0E0A [0x5C] MUSIC_CONTROL: Set Idle (Night) music to song 0*
170: 0x0E0E [0x5C] MUSIC_CONTROL: Set Combat (Solo) music to song 115*
171: 0x0E12 [0x5C] MUSIC_CONTROL: Set Combat (Party) music to song 218*
172: 0x0E16 [0x06] ExtData[1]->WorkLocal[24] = 0
173: 0x0E19 [0x45] LOAD_SCHEDULED_TASK: Load scheduler "whi1" with entities [LocalPlayer, LocalPlayer], work=[201*, 0*]
174: 0x0E2A [0x45] LOAD_SCHEDULED_TASK: Load scheduler "blof" with entities [LocalPlayer, LocalPlayer], work=[200*, 0*]
175: 0x0E3B [0x21] END_EVENT
176: 0x0E3C [0x00] END_REQSTACK()
```

#### Data or dead code:

```
# Dead code (unreachable instructions):
     0x0D08 [0x01] GOTO 0x0D35
     0x0D0B [0x01] GOTO 0x0D0E
```

### Event 32003

#### Metadata

| Field        | Value     |
|--------------|-----------|
| Entrypoint   | 0x0E3D    |
| Data Size    | 435 bytes |
| Instructions | 77        |

```
      00 01 02 03 04 05 06 07  08 09 0A 0B 0C 0D 0E 0F
      -- -- -- -- -- -- -- --  -- -- -- -- -- -- -- --
0E30:                                         06 1D 00               ...
0E40: 06 1E 00 03 21 00 06 10  03 20 00 07 10 03 1F 00  ....!.... ......
0E50: 08 10 06 01 10 1A FC 16  02 1D 00 05 80 00 EE 0F  ................
0E60: 42 03 01 10 09 80 43 00  43 01 03 01 10 0A 80 43  B.....C.C......C
0E70: 00 43 01 1A 13 17 02 1E  00 05 80 00 EE 0F 45 0E  .C............E.
0E80: 80 F0 FF FF 7F F0 FF FF  7F 66 64 6F 31 00 80 55  .........fdo1..U
0E90: 0E 80 F0 FF FF 7F F0 FF  FF 7F 66 64 6F 31 03 01  ..........fdo1..
0EA0: 10 0B 80 02 20 00 38 80  80 2D 0F 02 21 00 00 80  .... .8..-..!...
0EB0: 80 C2 0E 47 00 39 80 3A  80 3B 80 3C 80 47 01 01  ...G.9.:.;.<.G..
0EC0: 2A 0F 02 21 00 05 80 80  D9 0E 47 00 3D 80 3E 80  *..!......G.=.>.
0ED0: 3F 80 40 80 47 01 01 2A  0F 02 21 00 09 80 80 F0  ?.@.G..*..!.....
0EE0: 0E 47 00 41 80 42 80 43  80 44 80 47 01 01 2A 0F  .G.A.B.C.D.G..*.
0EF0: 02 21 00 0A 80 80 07 0F  47 00 45 80 46 80 47 80  .!......G.E.F.G.
0F00: 48 80 47 01 01 2A 0F 02  21 00 0B 80 80 1E 0F 47  H.G..*..!......G
0F10: 00 49 80 4A 80 4B 80 4C  80 47 01 01 2A 0F 47 00  .I.J.K.L.G..*.G.
0F20: 4D 80 4E 80 4F 80 50 80  47 01 01 AC 0F 02 20 00  M.N.O.P.G..... .
0F30: 18 80 80 A0 0F 02 1F 00  05 80 80 4C 0F 47 00 51  ...........L.G.Q
0F40: 80 52 80 53 80 54 80 47  01 01 9D 0F 02 1F 00 09  .R.S.T.G........
0F50: 80 80 63 0F 47 00 55 80  56 80 57 80 58 80 47 01  ..c.G.U.V.W.X.G.
0F60: 01 9D 0F 02 1F 00 0A 80  80 7A 0F 47 00 59 80 5A  .........z.G.Y.Z
0F70: 80 5B 80 5C 80 47 01 01  9D 0F 02 1F 00 0B 80 80  .[.\.G..........
0F80: 91 0F 47 00 5D 80 5E 80  5F 80 60 80 47 01 01 9D  ..G.].^._.`.G...
0F90: 0F 47 00 4D 80 4E 80 4F  80 50 80 47 01 01 AC 0F  .G.M.N.O.P.G....
0FA0: 47 00 4D 80 4E 80 4F 80  50 80 47 01 38 0F 80 79  G.M.N.O.P.G.8..y
0FB0: 00 F0 FF FF 7F F0 FF FF  7F 1A 17 17 45 35 80 F0  ............E5..
0FC0: FF FF 7F F0 FF FF 7F 77  68 69 31 00 80 45 0E 80  .......whi1..E..
0FD0: F0 FF FF 7F F0 FF FF 7F  62 6C 6F 66 00 80 5C 00  ........blof..\.
0FE0: 00 80 5C 01 00 80 5C 02  36 80 5C 03 37 80 21 00  ..\...\.6.\.7.!.
```

#### Opcodes

```
  0: 0x0E3D [0x06] ExtData[1]->WorkLocal[29] = 0
  1: 0x0E40 [0x06] ExtData[1]->WorkLocal[30] = 0
  2: 0x0E43 [0x03] ExtData[1]->WorkLocal[33] = Work_Zone[6]
  3: 0x0E48 [0x03] ExtData[1]->WorkLocal[32] = Work_Zone[7]
  4: 0x0E4D [0x03] ExtData[1]->WorkLocal[31] = Work_Zone[8]
  5: 0x0E52 [0x06] Work_Zone[1] = 0
  6: 0x0E55 [0x1A] CALL_SUBROUTINE(address=0x16FC)
  7: 0x0E58 [0x02] IF !(ExtData[1]->WorkLocal[29] == 1*) GOTO 0x0FEE
  8: 0x0E60 [0x42] SET_CLI_EVENT_CANCEL_DATA()
  9: 0x0E61 [0x03] Work_Zone[1] = 2*
 10: 0x0E66 [0x43] SEND_EVENT_UPDATE: Send pending tag to server (packet 0x005B)
 11: 0x0E68 [0x43] SEND_EVENT_UPDATE: Check pending flag (skip if not pending)
 12: 0x0E6A [0x03] Work_Zone[1] = 3*
 13: 0x0E6F [0x43] SEND_EVENT_UPDATE: Send pending tag to server (packet 0x005B)
 14: 0x0E71 [0x43] SEND_EVENT_UPDATE: Check pending flag (skip if not pending)
 15: 0x0E73 [0x1A] CALL_SUBROUTINE(address=0x1713)
 16: 0x0E76 [0x02] IF !(ExtData[1]->WorkLocal[30] == 1*) GOTO 0x0FEE
 17: 0x0E7E [0x45] LOAD_SCHEDULED_TASK: Load scheduler "fdo1" with entities [LocalPlayer, LocalPlayer], work=[200*, 0*]
 18: 0x0E8F [0x55] WAIT_LOAD_SCHEDULER: Wait for scheduler "fdo1" with entities [LocalPlayer, LocalPlayer], work=200*
 19: 0x0E9E [0x03] Work_Zone[1] = 4*
 20: 0x0EA3 [0x02] IF !(ExtData[1]->WorkLocal[32] == 180*) GOTO 0x0F2D
 21: 0x0EAB [0x02] IF !(ExtData[1]->WorkLocal[33] == 0*) GOTO 0x0EC2
 22: 0x0EB3 [0x47] UPDATE_PLAYER_POS(-605.141*, 479.929*, -22.681*, yaw=87.2°*)
 23: 0x0EBD [0x47] WAIT_PLAYER_POS_UPDATE
 24: 0x0EBF [0x01] GOTO 0x0F2A
 25: 0x0EC2 [0x02] IF !(ExtData[1]->WorkLocal[33] == 1*) GOTO 0x0ED9
 26: 0x0ECA [0x47] UPDATE_PLAYER_POS(-262.589*, 377.857*, -137.313*, yaw=305.3°*)
 27: 0x0ED4 [0x47] WAIT_PLAYER_POS_UPDATE
 28: 0x0ED6 [0x01] GOTO 0x0F2A
 29: 0x0ED9 [0x02] IF !(ExtData[1]->WorkLocal[33] == 2*) GOTO 0x0EF0
 30: 0x0EE1 [0x47] UPDATE_PLAYER_POS(18.348*, 486.940*, -224.334*, yaw=17.1°*)
 31: 0x0EEB [0x47] WAIT_PLAYER_POS_UPDATE
 32: 0x0EED [0x01] GOTO 0x0F2A
 33: 0x0EF0 [0x02] IF !(ExtData[1]->WorkLocal[33] == 3*) GOTO 0x0F07
 34: 0x0EF8 [0x47] UPDATE_PLAYER_POS(231.593*, 360.094*, -173.572*, yaw=160.8°*)
 35: 0x0F02 [0x47] WAIT_PLAYER_POS_UPDATE
 36: 0x0F04 [0x01] GOTO 0x0F2A
 37: 0x0F07 [0x02] IF !(ExtData[1]->WorkLocal[33] == 4*) GOTO 0x0F1E
 38: 0x0F0F [0x47] UPDATE_PLAYER_POS(553.664*, 523.939*, -38.205*, yaw=233.9°*)
 39: 0x0F19 [0x47] WAIT_PLAYER_POS_UPDATE
 40: 0x0F1B [0x01] GOTO 0x0F2A
 41: 0x0F1E [0x47] UPDATE_PLAYER_POS(-608.290*, 689.710*, 4.009*, yaw=39.1°*)
 42: 0x0F28 [0x47] WAIT_PLAYER_POS_UPDATE

SUBROUTINE_0F2A:
 43: 0x0F2A [0x01] GOTO 0x0FAC
 44: 0x0F2D [0x02] IF !(ExtData[1]->WorkLocal[32] == 6*) GOTO 0x0FA0
 45: 0x0F35 [0x02] IF !(ExtData[1]->WorkLocal[31] == 1*) GOTO 0x0F4C
 46: 0x0F3D [0x47] UPDATE_PLAYER_POS(-875.117*, -43.892*, -48.084*, yaw=45.1°*)
 47: 0x0F47 [0x47] WAIT_PLAYER_POS_UPDATE
 48: 0x0F49 [0x01] GOTO 0x0F9D
 49: 0x0F4C [0x02] IF !(ExtData[1]->WorkLocal[31] == 2*) GOTO 0x0F63
 50: 0x0F54 [0x47] UPDATE_PLAYER_POS(-755.499*, 563.947*, -112.035*, yaw=313.5°*)
 51: 0x0F5E [0x47] WAIT_PLAYER_POS_UPDATE
 52: 0x0F60 [0x01] GOTO 0x0F9D
 53: 0x0F63 [0x02] IF !(ExtData[1]->WorkLocal[31] == 3*) GOTO 0x0F7A
 54: 0x0F6B [0x47] UPDATE_PLAYER_POS(123.251*, 754.209*, -172.124*, yaw=38.7°*)
 55: 0x0F75 [0x47] WAIT_PLAYER_POS_UPDATE
 56: 0x0F77 [0x01] GOTO 0x0F9D
 57: 0x0F7A [0x02] IF !(ExtData[1]->WorkLocal[31] == 4*) GOTO 0x0F91
 58: 0x0F82 [0x47] UPDATE_PLAYER_POS(-516.404*, -803.323*, 24.206*, yaw=38.4°*)
 59: 0x0F8C [0x47] WAIT_PLAYER_POS_UPDATE
 60: 0x0F8E [0x01] GOTO 0x0F9D
 61: 0x0F91 [0x47] UPDATE_PLAYER_POS(-608.290*, 689.710*, 4.009*, yaw=39.1°*)
 62: 0x0F9B [0x47] WAIT_PLAYER_POS_UPDATE

SUBROUTINE_0F9D:
 63: 0x0F9D [0x01] GOTO 0x0FAC
 64: 0x0FA0 [0x47] UPDATE_PLAYER_POS(-608.290*, 689.710*, 4.009*, yaw=39.1°*)
 65: 0x0FAA [0x47] WAIT_PLAYER_POS_UPDATE

SUBROUTINE_0FAC:
 66: 0x0FAC [0x38] SET_CLIENT_EVENT_MODE(mode=19*)
 67: 0x0FAF [0x79] LocalPlayer looks at LocalPlayer (Basic look)
 68: 0x0FB9 [0x1A] CALL_SUBROUTINE(address=0x1717)
 69: 0x0FBC [0x45] LOAD_SCHEDULED_TASK: Load scheduler "whi1" with entities [LocalPlayer, LocalPlayer], work=[201*, 0*]
 70: 0x0FCD [0x45] LOAD_SCHEDULED_TASK: Load scheduler "blof" with entities [LocalPlayer, LocalPlayer], work=[200*, 0*]
 71: 0x0FDE [0x5C] MUSIC_CONTROL: Set Idle (Day) music to song 0*
 72: 0x0FE2 [0x5C] MUSIC_CONTROL: Set Idle (Night) music to song 0*
 73: 0x0FE6 [0x5C] MUSIC_CONTROL: Set Combat (Solo) music to song 115*
 74: 0x0FEA [0x5C] MUSIC_CONTROL: Set Combat (Party) music to song 218*
 75: 0x0FEE [0x21] END_EVENT
 76: 0x0FEF [0x00] END_REQSTACK()
```

### Event 32004

#### Metadata

| Field        | Value      |
|--------------|------------|
| Entrypoint   | 0x0FF0     |
| Data Size    | 2925 bytes |
| Instructions | 2          |

```
      00 01 02 03 04 05 06 07  08 09 0A 0B 0C 0D 0E 0F
      -- -- -- -- -- -- -- --  -- -- -- -- -- -- -- --
0FF0: 21 00 24 0C 80 05 80 00  80 25 02 00 10 00 80 00  !.$......%......
1000: 08 10 05 01 00 01 08 10  1B 79 00 F0 FF FF 7F F0  .........y......
1010: FF FF 7F 42 46 01 37 91  80 92 80 93 80 94 80 45  ...BF.7........E
1020: 95 80 F0 FF FF 7F F0 FF  FF 7F 62 61 63 6B 00 80  ..........back..
1030: 1C 1B 80 45 0E 80 F0 FF  FF 7F F0 FF FF 7F 66 64  ...E..........fd
1040: 69 31 00 80 9F 96 80 F8  FF FF 7F F8 FF FF 7F 6D  i1.............m
1050: 61 69 6E 00 80 1C 2E 80  92 01 F0 FF FF 7F 45 0E  ain...........E.
1060: 80 F0 FF FF 7F F0 FF FF  7F 66 64 6F 32 00 80 55  .........fdo2..U
1070: 0E 80 F0 FF FF 7F F0 FF  FF 7F 66 64 6F 32 92 00  ..........fdo2..
1080: F0 FF FF 7F 02 03 00 00  80 80 92 10 1A 49 11 01  .............I..
1090: 92 10 78 92 01 F0 FF FF  7F 6C F0 FF FF 7F 00 80  ..x......l......
10A0: 00 80 4E 00 F0 FF FF 7F  02 00 00 05 80 80 BC 10  ..N.............
10B0: 37 97 80 98 80 99 80 9A  80 01 F8 10 02 00 00 09  7...............
10C0: 80 80 D0 10 37 00 80 00  80 00 80 00 80 01 F8 10  ....7...........
10D0: 02 00 00 0A 80 80 E4 10  37 00 80 00 80 00 80 00  ........7.......
10E0: 80 01 F8 10 02 00 00 0B  80 80 F8 10 37 00 80 00  ............7...
10F0: 80 00 80 00 80 01 F8 10  45 95 80 F0 FF FF 7F F0  ........E.......
1100: FF FF 7F 62 61 63 6B 00  80 1C 1B 80 45 0E 80 F0  ...back.....E...
1110: FF FF 7F F0 FF FF 7F 66  64 69 31 00 80 55 0E 80  .......fdi1..U..
1120: F0 FF FF 7F F0 FF FF 7F  66 64 69 31 9F 9B 80 F8  ........fdi1....
1130: FF FF 7F F8 FF FF 7F 6D  61 69 6E 00 80 1C 9C 80  .......main.....
1140: 92 00 F0 FF FF 7F 46 00  1B 29 10 EF D0 01 01 04  ......F..)......
1150: 29 10 F0 D0 01 01 04 29  10 F1 D0 01 01 04 92 01  )......)........
1160: EF D0 01 01 92 01 F0 D0  01 01 92 01 F1 D0 01 01  ................
1170: 94 01 F0 FF FF 7F 94 01  EF D0 01 01 94 01 F0 D0  ................
1180: 01 01 94 01 F1 D0 01 01  29 10 F0 FF FF 7F 32 29  ........).....2)
1190: 10 EF D0 01 01 0C 29 10  F0 D0 01 01 0C 29 10 F1  ......)......)..
11A0: D0 01 01 0C 80 F0 FF FF  7F 80 EF D0 01 01 80 F0  ................
11B0: D0 01 01 80 F1 D0 01 01  6C F0 FF FF 7F 62 80 05  ........l....b..
11C0: 80 1C 2A 80 5B 9D 80 EF  D0 01 01 EF D0 01 01 62  ..*.[..........b
11D0: 71 6C 33 5B 9E 80 F0 D0  01 01 F0 D0 01 01 62 71  ql3[..........bq
11E0: 6C 32 7B EF D0 01 01 7B  F0 D0 01 01 45 9F 80 F0  l2{....{....E...
11F0: FF FF 7F F0 FF FF 7F 62  71 32 30 00 80 1A 91 18  .......bq20.....
1200: 2B F1 D0 01 01 A0 80 23  27 10 F2 D0 01 01 02 2B  +......#'......+
1210: F1 D0 01 01 A1 80 23 24  A2 80 00 80 00 80 25 02  ......#$......%.
1220: 00 10 00 80 00 2F 12 03  02 10 00 80 01 3F 12 02  ...../.......?..
1230: 00 10 05 80 00 3F 12 03  02 10 05 80 01 3F 12 52  .....?.......?.R
1240: 9F 80 F0 FF FF 7F F0 FF  FF 7F 62 71 32 32 45 9F  ..........bq22E.
1250: 80 F0 FF FF 7F F0 FF FF  7F 62 71 32 33 00 80 9F  .........bq23...
1260: A3 80 F8 FF FF 7F F8 FF  FF 7F 73 74 72 30 00 80  ..........str0..
1270: 5B A4 80 F1 D0 01 01 F1  D0 01 01 68 6F 75 31 2B  [..........hou1+
1280: F1 D0 01 01 A5 80 1C 9C  80 1A B2 18 1C 2A 80 4E  .............*.N
1290: 01 EF D0 01 01 4E 01 F0  D0 01 01 4E 01 F1 D0 01  .....N.....N....
12A0: 01 9F A3 80 F8 FF FF 7F  F8 FF FF 7F 6B 69 6C 6C  ............kill
12B0: 00 80 52 9F 80 F0 FF FF  7F F0 FF FF 7F 62 71 32  ..R..........bq2
12C0: 33 45 9F 80 F0 FF FF 7F  F0 FF FF 7F 30 62 6C 66  3E..........0blf
12D0: 00 80 1B 46 01 02 19 00  00 80 80 E3 12 1A 6A 13  ...F..........j.
12E0: 01 E3 12 1A E7 12 1B 45  0E 80 F0 FF FF 7F F0 FF  .......E........
12F0: FF 7F 66 64 6F 32 00 80  55 0E 80 F0 FF FF 7F F0  ..fdo2..U.......
1300: FF FF 7F 66 64 6F 32 92  01 F0 FF FF 7F 37 4D 80  ...fdo2......7M.
1310: 4E 80 4F 80 50 80 45 95  80 F0 FF FF 7F F0 FF FF  N.O.P.E.........
1320: 7F 62 61 63 6B 00 80 6C  F0 FF FF 7F 00 80 00 80  .back..l........
1330: 1C 1B 80 45 0E 80 F0 FF  FF 7F F0 FF FF 7F 66 64  ...E..........fd
1340: 69 31 00 80 55 0E 80 F0  FF FF 7F F0 FF FF 7F 66  i1..U..........f
1350: 64 69 31 9F 9B 80 F8 FF  FF 7F F8 FF FF 7F 6D 61  di1...........ma
1360: 69 6E 00 80 1C 9C 80 46  00 1B 29 10 EF D0 01 01  in.....F..).....
1370: 04 29 10 F0 D0 01 01 04  29 10 F1 D0 01 01 04 92  .)......).......
1380: 01 EF D0 01 01 92 01 F0  D0 01 01 92 01 F1 D0 01  ................
1390: 01 94 01 F0 FF FF 7F 94  01 EF D0 01 01 94 01 F0  ................
13A0: D0 01 01 94 01 F1 D0 01  01 29 10 F0 FF FF 7F 33  .........).....3
13B0: 29 10 EF D0 01 01 0D 29  10 F0 D0 01 01 0D 29 10  )......)......).
13C0: F1 D0 01 01 0D 80 F0 FF  FF 7F 80 EF D0 01 01 80  ................
13D0: F0 D0 01 01 80 F1 D0 01  01 79 00 F0 D0 01 01 F1  .........y......
13E0: D0 01 01 9F A6 80 F8 FF  FF 7F F8 FF FF 7F 00 FE  ................
13F0: FE FE 00 80 1C 2A 80 5B  A7 80 F1 D0 01 01 F1 D0  .....*.[........
1400: 01 01 62 71 30 30 45 9F  80 F0 FF FF 7F F0 FF FF  ..bq00E.........
1410: 7F 62 71 33 30 00 80 45  0E 80 F0 FF FF 7F F0 FF  .bq30..E........
1420: FF 7F 66 64 69 32 00 80  1C A8 80 9F A3 80 F8 FF  ..fdi2..........
1430: FF 7F F8 FF FF 7F 73 74  72 30 00 80 1C 9C 80 52  ......str0.....R
1440: 9F 80 F0 FF FF 7F F0 FF  FF 7F 62 71 33 30 45 9F  ..........bq30E.
1450: 80 F0 FF FF 7F F0 FF FF  7F 62 71 33 31 00 80 1C  .........bq31...
1460: 38 80 52 9F 80 F0 FF FF  7F F0 FF FF 7F 62 71 33  8.R..........bq3
1470: 31 45 9F 80 F0 FF FF 7F  F0 FF FF 7F 62 71 33 32  1E..........bq32
1480: 00 80 1C A9 80 9F A3 80  F8 FF FF 7F F8 FF FF 7F  ................
1490: 6B 69 6C 6C 00 80 1C AA  80 52 9F 80 F0 FF FF 7F  kill.....R......
14A0: F0 FF FF 7F 62 71 33 32  45 9F 80 F0 FF FF 7F F0  ....bq32E.......
14B0: FF FF 7F 62 71 33 33 00  80 53 F1 D0 01 01 F1 D0  ...bq33..S......
14C0: 01 01 62 71 30 30 52 9F  80 F0 FF FF 7F F0 FF FF  ..bq00R.........
14D0: 7F 62 71 33 33 45 9F 80  F0 FF FF 7F F0 FF FF 7F  .bq33E..........
14E0: 62 71 33 34 00 80 1C 9C  80 2B F1 D0 01 01 AB 80  bq34.....+......
14F0: 23 55 9F 80 F0 FF FF 7F  F0 FF FF 7F 62 71 33 34  #U..........bq34
1500: 45 9F 80 F0 FF FF 7F F0  FF FF 7F 62 71 33 35 00  E..........bq35.
1510: 80 2B F1 D0 01 01 AC 80  23 55 9F 80 F0 FF FF 7F  .+......#U......
1520: F0 FF FF 7F 62 71 33 35  45 9F 80 F0 FF FF 7F F0  ....bq35E.......
1530: FF FF 7F 62 71 33 37 00  80 5B AD 80 F1 D0 01 01  ...bq37..[......
1540: F1 D0 01 01 62 71 30 31  1C 2E 80 52 9F 80 F0 FF  ....bq01...R....
1550: FF 7F F0 FF FF 7F 62 71  33 37 45 9F 80 F0 FF FF  ......bq37E.....
1560: 7F F0 FF FF 7F 62 71 33  38 00 80 1C AE 80 9F A6  .....bq38.......
1570: 80 F8 FF FF 7F F8 FF FF  7F 6D 61 69 6E 00 80 1C  .........main...
1580: AF 80 52 9F 80 F0 FF FF  7F F0 FF FF 7F 62 71 33  ..R..........bq3
1590: 38 45 9F 80 F0 FF FF 7F  F0 FF FF 7F 62 71 33 39  8E..........bq39
15A0: 00 80 1C 2E 80 2B F1 D0  01 01 B0 80 1C B1 80 52  .....+.........R
15B0: 9F 80 F0 FF FF 7F F0 FF  FF 7F 62 71 33 39 45 9F  ..........bq39E.
15C0: 80 F0 FF FF 7F F0 FF FF  7F 62 71 34 30 00 80 1C  .........bq40...
15D0: B2 80 1A B2 18 1C 2E 80  6C F1 D0 01 01 00 80 05  ........l.......
15E0: 80 5B 9E 80 F0 D0 01 01  F0 D0 01 01 62 71 30 33  .[..........bq03
15F0: 7B F0 FF FF 7F 7B F0 D0  01 01 52 9F 80 F0 FF FF  {....{....R.....
1600: 7F F0 FF FF 7F 62 71 34  30 45 9F 80 F0 FF FF 7F  .....bq40E......
1610: F0 FF FF 7F 62 71 35 30  00 80 1A 91 18 79 00 F0  ....bq50.....y..
1620: D0 01 01 EF D0 01 01 5B  9E 80 F0 D0 01 01 F0 D0  .......[........
1630: 01 01 62 71 30 34 1C B3  80 2B F0 D0 01 01 B4 80  ..bq04...+......
1640: 23 4A F0 FF FF 7F EF D0  01 01 2B F0 D0 01 01 B5  #J........+.....
1650: 80 23 52 9F 80 F0 FF FF  7F F0 FF FF 7F 62 71 35  .#R..........bq5
1660: 30 45 9F 80 F0 FF FF 7F  F0 FF FF 7F 62 71 35 32  0E..........bq52
1670: 00 80 1C A9 80 79 00 F0  D0 01 01 F0 FF FF 7F 5B  .....y.........[
1680: 9E 80 F0 D0 01 01 F0 D0  01 01 62 71 30 33 27 10  ..........bq03'.
1690: EF D0 01 01 0F 2B EF D0  01 01 B6 80 23 52 9F 80  .....+......#R..
16A0: F0 FF FF 7F F0 FF FF 7F  62 71 35 32 45 9F 80 F0  ........bq52E...
16B0: FF FF 7F F0 FF FF 7F 62  71 35 31 00 80 79 00 F0  .......bq51..y..
16C0: FF FF 7F F0 D0 01 01 2B  F0 D0 01 01 B7 80 23 1A  .......+......#.
16D0: B2 18 1C 2A 80 7C 01 EF  D0 01 01 52 9F 80 F0 FF  ...*.|.....R....
16E0: FF 7F F0 FF FF 7F 62 71  35 31 45 9F 80 F0 FF FF  ......bq51E.....
16F0: 7F F0 FF FF 7F 30 62 6C  66 00 80 1B 24 B8 80 05  .....0blf...$...
1700: 80 00 80 25 02 00 10 00  80 00 12 17 05 1D 00 01  ...%............
1710: 12 17 1B 05 1E 00 1B 46  01 37 B9 80 BA 80 BB 80  .......F.7......
1720: BC 80 45 95 80 F0 FF FF  7F F0 FF FF 7F 62 61 63  ..E..........bac
1730: 6B 00 80 45 0E 80 F0 FF  FF 7F F0 FF FF 7F 66 64  k..E..........fd
1740: 69 31 00 80 55 0E 80 F0  FF FF 7F F0 FF FF 7F 66  i1..U..........f
1750: 64 69 31 9F 96 80 F8 FF  FF 7F F8 FF FF 7F 6D 61  di1...........ma
1760: 69 6E 00 80 1C 2E 80 45  0E 80 F0 FF FF 7F F0 FF  in.....E........
1770: FF 7F 66 64 6F 32 00 80  55 0E 80 F0 FF FF 7F F0  ..fdo2..U.......
1780: FF FF 7F 66 64 6F 32 92  01 F0 FF FF 7F 37 4D 80  ...fdo2......7M.
1790: 4E 80 4F 80 50 80 45 95  80 F0 FF FF 7F F0 FF FF  N.O.P.E.........
17A0: 7F 62 61 63 6B 00 80 1C  1B 80 45 0E 80 F0 FF FF  .back.....E.....
17B0: 7F F0 FF FF 7F 66 64 69  31 00 80 55 0E 80 F0 FF  .....fdi1..U....
17C0: FF 7F F0 FF FF 7F 66 64  69 31 9F 9B 80 F8 FF FF  ......fdi1......
17D0: 7F F8 FF FF 7F 6D 61 69  6E 00 80 1C 9C 80 46 00  .....main.....F.
17E0: 1B 6C F0 FF FF 7F 00 80  00 80 46 01 92 01 F0 FF  .l........F.....
17F0: FF 7F 37 4D 80 4E 80 4F  80 50 80 45 95 80 F0 FF  ..7M.N.O.P.E....
1800: FF 7F F0 FF FF 7F 62 61  63 6B 00 80 45 0E 80 F0  ......back..E...
1810: FF FF 7F F0 FF FF 7F 66  64 69 31 00 80 55 0E 80  .......fdi1..U..
1820: F0 FF FF 7F F0 FF FF 7F  66 64 69 31 9F 9B 80 F8  ........fdi1....
1830: FF FF 7F F8 FF FF 7F 6D  61 69 6E 00 80 1C 9C 80  .......main.....
1840: 46 00 1B 02 03 00 00 80  80 4E 18 01 4E 18 1B 45  F........N..N..E
1850: 0E 80 F0 FF FF 7F F0 FF  FF 7F 66 64 69 30 00 80  ..........fdi0..
1860: 55 0E 80 F0 FF FF 7F F0  FF FF 7F 66 64 69 30 1B  U..........fdi0.
1870: 45 0E 80 F0 FF FF 7F F0  FF FF 7F 66 64 6F 30 00  E..........fdo0.
1880: 80 55 0E 80 F0 FF FF 7F  F0 FF FF 7F 66 64 6F 30  .U..........fdo0
1890: 1B 45 0E 80 F0 FF FF 7F  F0 FF FF 7F 66 64 69 31  .E..........fdi1
18A0: 00 80 55 0E 80 F0 FF FF  7F F0 FF FF 7F 66 64 69  ..U..........fdi
18B0: 31 1B 45 0E 80 F0 FF FF  7F F0 FF FF 7F 66 64 6F  1.E..........fdo
18C0: 31 00 80 55 0E 80 F0 FF  FF 7F F0 FF FF 7F 66 64  1..U..........fd
18D0: 6F 31 1B 45 35 80 F0 FF  FF 7F F0 FF FF 7F 77 68  o1.E5.........wh
18E0: 69 31 00 80 55 35 80 F0  FF FF 7F F0 FF FF 7F 77  i1..U5.........w
18F0: 68 69 31 1B 45 35 80 F0  FF FF 7F F0 FF FF 7F 77  hi1.E5.........w
1900: 68 6F 31 00 80 55 35 80  F0 FF FF 7F F0 FF FF 7F  ho1..U5.........
1910: 77 68 6F 31 1B 45 35 80  F0 FF FF 7F F0 FF FF 7F  who1.E5.........
1920: 77 68 6F 32 00 80 55 35  80 F0 FF FF 7F F0 FF FF  who2..U5........
1930: 7F 77 68 6F 32 1B 45 35  80 F0 FF FF 7F F0 FF FF  .who2.E5........
1940: 7F 77 68 6F 33 00 80 55  35 80 F0 FF FF 7F F0 FF  .who3..U5.......
1950: FF 7F 77 68 6F 33 1B 62  05 80 F0 FF FF 7F F0 FF  ..who3.b........
1960: FF 7F 6D 61 69 6E 00 80  1C A9 80 45 0E 80 F0 FF  ..main.....E....
1970: FF 7F F0 FF FF 7F 66 64  6F 31 00 80 55 0E 80 F0  ......fdo1..U...
1980: FF FF 7F F0 FF FF 7F 66  64 6F 31 1B 45 0E 80 F0  .......fdo1.E...
1990: FF FF 7F F0 FF FF 7F 66  64 69 31 00 80 62 09 80  .......fdi1..b..
19A0: F0 FF FF 7F F0 FF FF 7F  6D 61 69 6E 00 80 1C 2A  ........main...*
19B0: 80 55 0E 80 F0 FF FF 7F  F0 FF FF 7F 66 64 69 31  .U..........fdi1
19C0: 1B 45 0E 80 F0 FF FF 7F  F0 FF FF 7F 62 6C 6F 6E  .E..........blon
19D0: 00 80 45 35 80 F0 FF FF  7F F0 FF FF 7F 62 6C 6F  ..E5.........blo
19E0: 6E 00 80 1B 45 35 80 F0  FF FF 7F F0 FF FF 7F 77  n...E5.........w
19F0: 68 69 30 00 80 55 35 80  F0 FF FF 7F F0 FF FF 7F  hi0..U5.........
1A00: 77 68 69 30 1B 45 35 80  F0 FF FF 7F F0 FF FF 7F  whi0.E5.........
1A10: 77 68 6F 30 00 80 55 35  80 F0 FF FF 7F F0 FF FF  who0..U5........
1A20: 7F 77 68 6F 30 1B 45 BD  80 F0 FF FF 7F F0 FF FF  .who0.E.........
1A30: 7F 65 66 6F 6E 00 80 55  BD 80 F0 FF FF 7F F0 FF  .efon..U........
1A40: FF 7F 65 66 6F 6E 1B 45  0E 80 F0 FF FF 7F F0 FF  ..efon.E........
1A50: FF 7F 66 64 69 73 00 80  1B 45 0E 80 F0 FF FF 7F  ..fdis...E......
1A60: F0 FF FF 7F 66 64 6F 73  00 80 55 0E 80 F0 FF FF  ....fdos..U.....
1A70: 7F F0 FF FF 7F 66 64 6F  73 1B 45 0E 80 F0 FF FF  .....fdos.E.....
1A80: 7F F0 FF FF 7F 66 64 69  66 00 80 1B 45 0E 80 F0  .....fdif...E...
1A90: FF FF 7F F0 FF FF 7F 66  64 6F 66 00 80 55 0E 80  .......fdof..U..
1AA0: F0 FF FF 7F F0 FF FF 7F  66 64 6F 66 1B 45 0E 80  ........fdof.E..
1AB0: F0 FF FF 7F F0 FF FF 7F  66 64 69 70 00 80 1B 45  ........fdip...E
1AC0: 0E 80 F0 FF FF 7F F0 FF  FF 7F 66 64 6F 70 00 80  ..........fdop..
1AD0: 55 0E 80 F0 FF FF 7F F0  FF FF 7F 66 64 6F 70 1B  U..........fdop.
1AE0: 02 00 00 05 80 80 FF 1A  03 09 00 97 80 03 0A 00  ................
1AF0: 98 80 03 0B 00 99 80 03  0C 00 9A 80 01 5C 1B 02  .............\..
1B00: 00 00 09 80 80 1E 1B 03  09 00 00 80 03 0A 00 00  ................
1B10: 80 03 0B 00 00 80 03 0C  00 00 80 01 5C 1B 02 00  ............\...
1B20: 00 0A 80 80 3D 1B 03 09  00 00 80 03 0A 00 00 80  ....=...........
1B30: 03 0B 00 00 80 03 0C 00  00 80 01 5C 1B 02 00 00  ...........\....
1B40: 0B 80 80 5C 1B 03 09 00  00 80 03 0A 00 00 80 03  ...\............
1B50: 0B 00 00 80 03 0C 00 00  80 01 5C 1B 1B           ..........\..   
```

#### Opcodes

```
  0: 0x0FF0 [0x21] END_EVENT
  1: 0x0FF1 [0x00] END_REQSTACK()
```

#### Data or dead code:

```
# Dead code (unreachable instructions):
     0x0FF2 [0x24] CREATE_DIALOG(message_id=7227*, default_option=1*, option_flags=0*)
    → "Enter the battlefield? [Enter./Decline.]"
     0x0FF9 [0x25] WAIT_DIALOG_SELECT()
     0x0FFA [0x02] IF !(Work_Zone[0] == 0*) GOTO 0x1008
     0x1002 [0x05] ExtData[1]->WorkLocal[1] = 1
     0x1005 [0x01] GOTO 0x1008
     0x1008 [0x1B] RETURN
     0x1009 [0x79] LocalPlayer looks at LocalPlayer (Basic look)
     0x1013 [0x42] SET_CLI_EVENT_CANCEL_DATA()
     0x1014 [0x46] CAMERA_CONTROL: Disable user control
     0x1016 [0x37] UPDATE_EVENT_POSITION_AND_DIR: x=-610.258*, z=691.891*, y=4.335*, direction=204.4°*
     0x101F [0x45] LOAD_SCHEDULED_TASK: Load scheduler "back" with entities [LocalPlayer, LocalPlayer], work=[108*, 0*]
     0x1030 [0x1C] WAIT(10* ticks)
     0x1033 [0x45] LOAD_SCHEDULED_TASK: Load scheduler "fdi1" with entities [LocalPlayer, LocalPlayer], work=[200*, 0*]
     0x1044 [0x9F] LOAD_SCHEDULED_TASK_ALT: Load scheduler "main" with entities [EventEntity, EventEntity], work=[71*, 0*]
     0x1055 [0x1C] WAIT(60* ticks)
     0x1058 [0x92] LocalPlayer->Render.Flags3 ^= 0x01
     0x105E [0x45] LOAD_SCHEDULED_TASK: Load scheduler "fdo2" with entities [LocalPlayer, LocalPlayer], work=[200*, 0*]
     0x106F [0x55] WAIT_LOAD_SCHEDULER: Wait for scheduler "fdo2" with entities [LocalPlayer, LocalPlayer], work=200*
     0x107E [0x92] LocalPlayer->Render.Flags3 = Flags3  // No change (flag=0)
     0x1084 [0x02] IF !(ExtData[1]->WorkLocal[3] == 0*) GOTO 0x1092
     0x108C [0x1A] CALL_SUBROUTINE(address=0x1149)
     0x108F [0x01] GOTO 0x1092
     0x1092 [0x78] ENABLE_GAME_TIMER_RESET_WEATHER()
     0x1093 [0x92] LocalPlayer->Render.Flags3 ^= 0x01
     0x1099 [0x6C] FADE_ENTITY_COLOR(entity_id=LocalPlayer, end_alpha=0*, fade_time=0*)
     0x10A2 [0x4E] SET_ENTITY_HIDE_FLAG: Show LocalPlayer
     0x10A8 [0x02] IF !(ExtData[1]->WorkLocal[0] == 1*) GOTO 0x10BC
     0x10B0 [0x37] UPDATE_EVENT_POSITION_AND_DIR: x=-676.935*, z=792.212*, y=2.042*, direction=204.9°*
     0x10B9 [0x01] GOTO 0x10F8
     0x10BC [0x02] IF !(ExtData[1]->WorkLocal[0] == 2*) GOTO 0x10D0
     0x10C4 [0x37] UPDATE_EVENT_POSITION_AND_DIR: x=0.000*, z=0.000*, y=0.000*, direction=0.0°*
     0x10CD [0x01] GOTO 0x10F8
     0x10D0 [0x02] IF !(ExtData[1]->WorkLocal[0] == 3*) GOTO 0x10E4
     0x10D8 [0x37] UPDATE_EVENT_POSITION_AND_DIR: x=0.000*, z=0.000*, y=0.000*, direction=0.0°*
     0x10E1 [0x01] GOTO 0x10F8
     0x10E4 [0x02] IF !(ExtData[1]->WorkLocal[0] == 4*) GOTO 0x10F8
     0x10EC [0x37] UPDATE_EVENT_POSITION_AND_DIR: x=0.000*, z=0.000*, y=0.000*, direction=0.0°*
     0x10F5 [0x01] GOTO 0x10F8
     0x10F8 [0x45] LOAD_SCHEDULED_TASK: Load scheduler "back" with entities [LocalPlayer, LocalPlayer], work=[108*, 0*]
     0x1109 [0x1C] WAIT(10* ticks)
     0x110C [0x45] LOAD_SCHEDULED_TASK: Load scheduler "fdi1" with entities [LocalPlayer, LocalPlayer], work=[200*, 0*]
     0x111D [0x55] WAIT_LOAD_SCHEDULER: Wait for scheduler "fdi1" with entities [LocalPlayer, LocalPlayer], work=200*
     0x112C [0x9F] LOAD_SCHEDULED_TASK_ALT: Load scheduler "main" with entities [EventEntity, EventEntity], work=[72*, 0*]
     0x113D [0x1C] WAIT(120* ticks)
     0x1140 [0x92] LocalPlayer->Render.Flags3 = Flags3  // No change (flag=0)
     0x1146 [0x46] CAMERA_CONTROL: Restore default settings
     0x1148 [0x1B] RETURN
     0x1149 [0x29] REQ_SET_WAIT(priority=0x10, entity_id=Prishe (ID: 16896239/0x0101D0EF), tag_num=0x04)
     0x1150 [0x29] REQ_SET_WAIT(priority=0x10, entity_id=Ulmia (ID: 16896240/0x0101D0F0), tag_num=0x04)
     0x1157 [0x29] REQ_SET_WAIT(priority=0x10, entity_id=Bahamut (ID: 16896241/0x0101D0F1), tag_num=0x04)
     0x115E [0x92] Prishe (ID: 16896239/0x0101D0EF)->Render.Flags3 ^= 0x01
     0x1164 [0x92] Ulmia (ID: 16896240/0x0101D0F0)->Render.Flags3 ^= 0x01
     0x116A [0x92] Bahamut (ID: 16896241/0x0101D0F1)->Render.Flags3 ^= 0x01
     0x1170 [0x94] LocalPlayer->Render.Flags3 ^= 0x01
     0x1176 [0x94] Prishe (ID: 16896239/0x0101D0EF)->Render.Flags3 ^= 0x01
     0x117C [0x94] Ulmia (ID: 16896240/0x0101D0F0)->Render.Flags3 ^= 0x01
     0x1182 [0x94] Bahamut (ID: 16896241/0x0101D0F1)->Render.Flags3 ^= 0x01
     0x1188 [0x29] REQ_SET_WAIT(priority=0x10, entity_id=LocalPlayer, tag_num=0x32)
     0x118F [0x29] REQ_SET_WAIT(priority=0x10, entity_id=Prishe (ID: 16896239/0x0101D0EF), tag_num=0x0C)
     0x1196 [0x29] REQ_SET_WAIT(priority=0x10, entity_id=Ulmia (ID: 16896240/0x0101D0F0), tag_num=0x0C)
     0x119D [0x29] REQ_SET_WAIT(priority=0x10, entity_id=Bahamut (ID: 16896241/0x0101D0F1), tag_num=0x0C)
     0x11A4 [0x80] LOAD_WAIT(entity=LocalPlayer)
     0x11A9 [0x80] LOAD_WAIT(entity=Prishe (ID: 16896239/0x0101D0EF))
     0x11AE [0x80] LOAD_WAIT(entity=Ulmia (ID: 16896240/0x0101D0F0))
     0x11B3 [0x80] LOAD_WAIT(entity=Bahamut (ID: 16896241/0x0101D0F1))
     0x11B8 [0x6C] FADE_ENTITY_COLOR(entity_id=LocalPlayer, end_alpha=128*, fade_time=1*)
     0x11C1 [0x1C] WAIT(30* ticks)
     0x11C4 [0x5B] LOAD_EXT_SCHEDULER: Load scheduler "bql3" with entities [Prishe (ID: 16896239/0x0101D0EF), Prishe (ID: 16896239/0x0101D0EF)], work=796*
     0x11D3 [0x5B] LOAD_EXT_SCHEDULER: Load scheduler "bql2" with entities [Ulmia (ID: 16896240/0x0101D0F0), Ulmia (ID: 16896240/0x0101D0F0)], work=637*
     0x11E2 [0x7B] Prishe (ID: 16896239/0x0101D0EF) stops talking
     0x11E7 [0x7B] Ulmia (ID: 16896240/0x0101D0F0) stops talking
     0x11EC [0x45] LOAD_SCHEDULED_TASK: Load scheduler "bq20" with entities [LocalPlayer, LocalPlayer], work=[157*, 0*]
     0x11FD [0x1A] CALL_SUBROUTINE(address=0x1891)
     0x1200 [0x2B] Bahamut (ID: 16896241/0x0101D0F1) [7662*]:
    → "Mankind will be annihilated. You have simply delayed the process."
     0x1207 [0x23] WAIT_FOR_DIALOG_INTERACTION
     0x1208 [0x27] REQ_SET(priority=0x10, entity_id=Unnamed NPC (ID: 16896242/0x0101D0F2), tag_num=0x02)
     0x120F [0x2B] Bahamut (ID: 16896241/0x0101D0F1) [7663*]:
    → "Do you dare to defy fate once again and fight to preserve your lives?"
     0x1216 [0x23] WAIT_FOR_DIALOG_INTERACTION
     0x1217 [0x24] CREATE_DIALOG(message_id=7664*, default_option=0*, option_flags=0*)
