# Event 2541

## Metadata

| Field           | Value    |
|-----------------|----------|
| Event Index     | 18/26    |
| Offset          | 0x01A8   |
| Data Size       | 48 bytes |
| Calculated Size | 48 bytes |
| Instructions    | 10       |

```
      00 01 02 03 04 05 06 07  08 09 0A 0B 0C 0D 0E 0F
      -- -- -- -- -- -- -- --  -- -- -- -- -- -- -- --
01A0:                          1E F0 FF FF 7F 6F 70 66          .....opf
01B0: 00 80 F8 FF FF 7F F8 FF  FF 7F 74 6C 6B 30 03 02  ..........tlk0..
01C0: 10 30 80 1D 31 80 23 66  00 80 F8 FF FF 7F F8 FF  .0..1.#f........
01D0: FF 7F 74 65 6E 30 21 00                           ..ten0!.        
```

## Opcodes

```
  0: 0x01A8 [0x1E] EventEntity looks at LocalPlayer and starts talking
  1: 0x01AD [0x6F] WAIT_FRAME_DELAY: Yield until WaitTime reaches zero
  2: 0x01AE [0x70] WAIT_ENTITY_RENDER_FLAG: Wait while EventEntity->Render.Flags3 bit 2 is set (cancel turn if not)
  3: 0x01AF [0x66] LOAD_EXT_SCHEDULER_MAIN: Load scheduler "tlk0" with entities [EventEntity, EventEntity], work=0*
  4: 0x01BE [0x03] Work_Zone[2] = 2192*
  5: 0x01C3 [0x1D] PRINT_EVENT_MESSAGE(message_id=7928*)
    → "Quick, time's a-wastin'. These fish could be gone any minute!\u0007To the Inventors' Coalition with my \u0001\u00053\u0002\u0000\u0000\u0000, matey!\u007F1\u0000\u0007"
  6: 0x01C6 [0x23] WAIT_FOR_DIALOG_INTERACTION
  7: 0x01C7 [0x66] LOAD_EXT_SCHEDULER_MAIN: Load scheduler "ten0" with entities [EventEntity, EventEntity], work=0*
  8: 0x01D6 [0x21] END_EVENT
  9: 0x01D7 [0x00] END_REQSTACK()
```
