# Event 2

## Metadata

| Field           | Value    |
|-----------------|----------|
| Event Index     | 28/48    |
| Offset          | 0x01C7   |
| Data Size       | 36 bytes |
| Calculated Size | 36 bytes |
| Instructions    | 12       |

```
      00 01 02 03 04 05 06 07  08 09 0A 0B 0C 0D 0E 0F
      -- -- -- -- -- -- -- --  -- -- -- -- -- -- -- --
01C0:                      1E  F0 FF FF 7F 6F 70 29 08         .....op).
01D0: A9 A1 10 01 02 1D 08 80  23 03 02 10 09 80 1D 0A  ........#.......
01E0: 80 23 29 08 A9 A1 10 01  04 21 00                 .#)......!.     
```

## Opcodes

```
  0: 0x01C7 [0x1E] EventEntity looks at LocalPlayer and starts talking
  1: 0x01CC [0x6F] WAIT_FRAME_DELAY: Yield until WaitTime reaches zero
  2: 0x01CD [0x70] WAIT_ENTITY_RENDER_FLAG: Wait while EventEntity->Render.Flags3 bit 2 is set (cancel turn if not)
  3: 0x01CE [0x29] REQ_SET_WAIT(priority=0x08, entity_id=Toppled Tree (ID: 17867177/0x0110A1A9), tag_num=0x02)
  4: 0x01D5 [0x1D] PRINT_EVENT_MESSAGE(message_id=7729*)
    → "The Velkk have a strong presence here. My job is to keep them out of our affairs.\u007F1\u0000\u0007"
  5: 0x01D8 [0x23] WAIT_FOR_DIALOG_INTERACTION
  6: 0x01D9 [0x03] Work_Zone[2] = 2157*
  7: 0x01DE [0x1D] PRINT_EVENT_MESSAGE(message_id=7730*)
    → "If only there was a registered pioneer with \u0001\u00056\u0002\u0000\u0000\u0000 that I could count on--then my job would be easier by malms.\u007F1\u0000\u0007"
  8: 0x01E1 [0x23] WAIT_FOR_DIALOG_INTERACTION
  9: 0x01E2 [0x29] REQ_SET_WAIT(priority=0x08, entity_id=Toppled Tree (ID: 17867177/0x0110A1A9), tag_num=0x04)
 10: 0x01E9 [0x21] END_EVENT
 11: 0x01EA [0x00] END_REQSTACK()
```
