# Event 6

## Metadata

| Field           | Value    |
|-----------------|----------|
| Event Index     | 32/48    |
| Offset          | 0x0300   |
| Data Size       | 33 bytes |
| Calculated Size | 33 bytes |
| Instructions    | 12       |

```
      00 01 02 03 04 05 06 07  08 09 0A 0B 0C 0D 0E 0F
      -- -- -- -- -- -- -- --  -- -- -- -- -- -- -- --
0300: 1E F0 FF FF 7F 6F 70 29  08 A9 A1 10 01 02 1D 1E  .....op)........
0310: 80 23 1D 1F 80 23 29 08  A9 A1 10 01 04 20 00 21  .#...#)...... .!
0320: 00                                                .               
```

## Opcodes

```
  0: 0x0300 [0x1E] EventEntity looks at LocalPlayer and starts talking
  1: 0x0305 [0x6F] WAIT_FRAME_DELAY: Yield until WaitTime reaches zero
  2: 0x0306 [0x70] WAIT_ENTITY_RENDER_FLAG: Wait while EventEntity->Render.Flags3 bit 2 is set (cancel turn if not)
  3: 0x0307 [0x29] REQ_SET_WAIT(priority=0x08, entity_id=Toppled Tree (ID: 17867177/0x0110A1A9), tag_num=0x02)
  4: 0x030E [0x1D] PRINT_EVENT_MESSAGE(message_id=7751*)
    → "I'm going to try my hand at climbing the ivy again now that I can make those gloves. If you've got a spare moment, I'd like for you to be there, too.\u007F1\u0000\u0007"
  5: 0x0311 [0x23] WAIT_FOR_DIALOG_INTERACTION
  6: 0x0312 [0x1D] PRINT_EVENT_MESSAGE(message_id=7752*)
    → "The closest place to try them out is southwest of here. By Altana, this is going to be quite the ride!\u007F1\u0000\u0007"
  7: 0x0315 [0x23] WAIT_FOR_DIALOG_INTERACTION
  8: 0x0316 [0x29] REQ_SET_WAIT(priority=0x08, entity_id=Toppled Tree (ID: 17867177/0x0110A1A9), tag_num=0x04)
  9: 0x031D [0x20] SET_CLI_EVENT_UC_FLAG: Unlock player control
 10: 0x031F [0x21] END_EVENT
 11: 0x0320 [0x00] END_REQSTACK()
```
