# Event 8

## Metadata

| Field           | Value    |
|-----------------|----------|
| Event Index     | 34/48    |
| Offset          | 0x0322   |
| Data Size       | 33 bytes |
| Calculated Size | 33 bytes |
| Instructions    | 12       |

```
      00 01 02 03 04 05 06 07  08 09 0A 0B 0C 0D 0E 0F
      -- -- -- -- -- -- -- --  -- -- -- -- -- -- -- --
0320:       1E F0 FF FF 7F 6F  70 29 08 A9 A1 10 01 02    .....op)......
0330: 1D 20 80 23 1D 21 80 23  29 08 A9 A1 10 01 04 20  . .#.!.#)...... 
0340: 00 21 00                                          .!.             
```

## Opcodes

```
  0: 0x0322 [0x1E] EventEntity looks at LocalPlayer and starts talking
  1: 0x0327 [0x6F] WAIT_FRAME_DELAY: Yield until WaitTime reaches zero
  2: 0x0328 [0x70] WAIT_ENTITY_RENDER_FLAG: Wait while EventEntity->Render.Flags3 bit 2 is set (cancel turn if not)
  3: 0x0329 [0x29] REQ_SET_WAIT(priority=0x08, entity_id=Toppled Tree (ID: 17867177/0x0110A1A9), tag_num=0x02)
  4: 0x0330 [0x1D] PRINT_EVENT_MESSAGE(message_id=7771*)
    → "Putting those skills you learned in that Goddessforsaken hole to good use? Must come in handy during your treks around Eastern Ulbuka.\u007F1\u0000\u0007"
  5: 0x0333 [0x23] WAIT_FOR_DIALOG_INTERACTION
  6: 0x0334 [0x1D] PRINT_EVENT_MESSAGE(message_id=7772*)
    → "I know that I've got a ways to go--but I'll get there someday.\u007F1\u0000\u0007"
  7: 0x0337 [0x23] WAIT_FOR_DIALOG_INTERACTION
  8: 0x0338 [0x29] REQ_SET_WAIT(priority=0x08, entity_id=Toppled Tree (ID: 17867177/0x0110A1A9), tag_num=0x04)
  9: 0x033F [0x20] SET_CLI_EVENT_UC_FLAG: Unlock player control
 10: 0x0341 [0x21] END_EVENT
 11: 0x0342 [0x00] END_REQSTACK()
```
