# Event 65535

## Metadata

| Field           | Value    |
|-----------------|----------|
| Event Index     | 10/10    |
| Offset          | 0x00A1   |
| Data Size       | 48 bytes |
| Calculated Size | 48 bytes |
| Instructions    | 10       |

```
      00 01 02 03 04 05 06 07  08 09 0A 0B 0C 0D 0E 0F
      -- -- -- -- -- -- -- --  -- -- -- -- -- -- -- --
00A0:    32 08 80 1F 00 12 80  13 80 0F 80 1F 01 6F 4A   2............oJ
00B0: F8 FF FF 7F 01 81 04 01  6F 76 F8 FF FF 7F 1C 0B  ........ov......
00C0: 80 5B 0C 80 00 81 04 01  00 81 04 01 73 68 61 30  .[..........sha0
00D0: 00                                                .               
```

## Opcodes

```
  0: 0x00A1 [0x32] ExtData[1]->MainSpeed = 13* * 0.1
  1: 0x00A4 [0x1F] MOVE_ENTITY: EventEntity moves to X=-476.662*, Z=420.965*, Y=-3.949*
  2: 0x00AC [0x1F] MOVE_ENTITY: Update entity position (mode=1)
  3: 0x00AE [0x6F] WAIT_FRAME_DELAY: Yield until WaitTime reaches zero
  4: 0x00AF [0x4A] EventEntity looks at Iroha (ID: 17072385/0x01048101)
  5: 0x00B8 [0x6F] WAIT_FRAME_DELAY: Yield until WaitTime reaches zero
  6: 0x00B9 [0x76] CHECK_ENTITY_RENDER_FLAGS: Wait until EventEntity Render.Flags0 and Render.Flags3 conditions are met
  7: 0x00BE [0x1C] WAIT(10* ticks)
  8: 0x00C1 [0x5B] LOAD_EXT_SCHEDULER(work_offset=662*, entity1=Tenzen (ID: 17072384/0x01048100), entity2=Tenzen (ID: 17072384/0x01048100), action="sha0")
  9: 0x00D0 [0x00] END_REQSTACK()
```
