# Event 65535

## Metadata

| Field           | Value    |
|-----------------|----------|
| Event Index     | 23/35    |
| Offset          | 0x0139   |
| Data Size       | 67 bytes |
| Calculated Size | 67 bytes |
| Instructions    | 13       |

```
      00 01 02 03 04 05 06 07  08 09 0A 0B 0C 0D 0E 0F
      -- -- -- -- -- -- -- --  -- -- -- -- -- -- -- --
0130:                             6E 41 22 03 01 20 80           nA".. .
0140: 99 41 22 03 01 1C 2A 80  5B 2D 80 42 22 03 01 42  .A"...*.[-.B"..B
0150: 22 03 01 69 72 6F 30 1C  2E 80 1C 2A 80 1C 2B 80  "..iro0....*..+.
0160: 6E 45 22 03 01 2F 80 99  45 22 03 01 1C 2C 80 6E  nE"../..E"...,.n
0170: 46 22 03 01 20 80 99 46  22 03 01 00              F".. ..F"...    
```

## Opcodes

```
  0: 0x0139 [0x6E] FAN3 (ID: 16982593/0x01032241) uses emote 11*
  1: 0x0140 [0x99] Wait for FAN3 (ID: 16982593/0x01032241) animation to complete
  2: 0x0145 [0x1C] WAIT(3* ticks)
  3: 0x0148 [0x5B] LOAD_EXT_SCHEDULER(work_offset=1328*, entity1=FAN4 (ID: 16982594/0x01032242), entity2=FAN4 (ID: 16982594/0x01032242), action="iro0")
  4: 0x0157 [0x1C] WAIT(4* ticks)
  5: 0x015A [0x1C] WAIT(3* ticks)
  6: 0x015D [0x1C] WAIT(2* ticks)
  7: 0x0160 [0x6E] FAN7 (ID: 16982597/0x01032245) uses emote 8*
  8: 0x0167 [0x99] Wait for FAN7 (ID: 16982597/0x01032245) animation to complete
  9: 0x016C [0x1C] WAIT(5* ticks)
 10: 0x016F [0x6E] FAN8 (ID: 16982598/0x01032246) uses emote 11*
 11: 0x0176 [0x99] Wait for FAN8 (ID: 16982598/0x01032246) animation to complete
 12: 0x017B [0x00] END_REQSTACK()
```
