# Event 68

## Metadata

| Field           | Value    |
|-----------------|----------|
| Event Index     | 3/38     |
| Offset          | 0x0034   |
| Data Size       | 48 bytes |
| Calculated Size | 48 bytes |
| Instructions    | 12       |

```
      00 01 02 03 04 05 06 07  08 09 0A 0B 0C 0D 0E 0F
      -- -- -- -- -- -- -- --  -- -- -- -- -- -- -- --
0030:             42 1E F0 FF  FF 7F 6F 70 66 00 80 F8      B.....opf...
0040: FF FF 7F F8 FF FF 7F 74  6C 6B 30 1D 04 80 23 1D  .......tlk0...#.
0050: 05 80 23 66 00 80 F8 FF  FF 7F F8 FF FF 7F 74 6C  ..#f..........tl
0060: 6B 31 21 00                                       k1!.            
```

## Opcodes

```
  0: 0x0034 [0x42] SET_CLI_EVENT_CANCEL_DATA()
  1: 0x0035 [0x1E] EventEntity looks at LocalPlayer and starts talking
  2: 0x003A [0x6F] WAIT_FRAME_DELAY: Yield until WaitTime reaches zero
  3: 0x003B [0x70] WAIT_ENTITY_RENDER_FLAG: Wait while EventEntity->Render.Flags3 bit 2 is set (cancel turn if not)
  4: 0x003C [0x66] LOAD_EXT_SCHEDULER_MAIN: Load scheduler "tlk0" with entities [EventEntity, EventEntity], work=30*
  5: 0x004B [0x1D] PRINT_EVENT_MESSAGE(message_id=8137*)
    → "How is the Mummers' Coalition treating you? What? You are here on behalf of the library?\u007F1\u0000\u0007"
  6: 0x004E [0x23] WAIT_FOR_DIALOG_INTERACTION
  7: 0x004F [0x1D] PRINT_EVENT_MESSAGE(message_id=8138*)
    → "Let me see...no, I do not see anything wrong here. Let them know everything is accurate and up-to-date.\u007F1\u0000\u0007"
  8: 0x0052 [0x23] WAIT_FOR_DIALOG_INTERACTION
  9: 0x0053 [0x66] LOAD_EXT_SCHEDULER_MAIN: Load scheduler "tlk1" with entities [EventEntity, EventEntity], work=30*
 10: 0x0062 [0x21] END_EVENT
 11: 0x0063 [0x00] END_REQSTACK()
```
