# Event 983

## Metadata

| Field           | Value    |
|-----------------|----------|
| Event Index     | 7/15     |
| Offset          | 0x0548   |
| Data Size       | 30 bytes |
| Calculated Size | 30 bytes |
| Instructions    | 10       |

```
      00 01 02 03 04 05 06 07  08 09 0A 0B 0C 0D 0E 0F
      -- -- -- -- -- -- -- --  -- -- -- -- -- -- -- --
0540:                          42 1E 71 22 03 01 6F 70          B.q"..op
0550: 5B 00 80 F8 FF FF 7F F8  FF FF 7F 74 6C 6B 30 2E  [..........tlk0.
0560: 1D 36 80 23 21 00                                 .6.#!.          
```

## Opcodes

```
  0: 0x0548 [0x42] SET_CLI_EVENT_CANCEL_DATA()
  1: 0x0549 [0x1E] EventEntity looks at Treasure Coffer (ID: 16982641/0x01032271) and starts talking
  2: 0x054E [0x6F] WAIT_FRAME_DELAY: Yield until WaitTime reaches zero
  3: 0x054F [0x70] WAIT_ENTITY_RENDER_FLAG: Wait while EventEntity->Render.Flags3 bit 2 is set (cancel turn if not)
  4: 0x0550 [0x5B] LOAD_EXT_SCHEDULER: Load scheduler "tlk0" with entities [EventEntity, EventEntity], work=215*
  5: 0x055F [0x2E] SET_CLI_EVENT_CANCEL_FLAGS()
  6: 0x0560 [0x1D] PRINT_EVENT_MESSAGE(message_id=14330*)
    → "Sorrah, but it won't lemme put dis in. Got anythin' it mights like better?\u007F1\u0000\u0007"
  7: 0x0563 [0x23] WAIT_FOR_DIALOG_INTERACTION
  8: 0x0564 [0x21] END_EVENT
  9: 0x0565 [0x00] END_REQSTACK()
```
