# Event 10105

## Metadata

| Field           | Value    |
|-----------------|----------|
| Event Index     | 4/24     |
| Offset          | 0x001E   |
| Data Size       | 20 bytes |
| Calculated Size | 20 bytes |
| Instructions    | 11       |

```
      00 01 02 03 04 05 06 07  08 09 0A 0B 0C 0D 0E 0F
      -- -- -- -- -- -- -- --  -- -- -- -- -- -- -- --
0010:                                            20 01                 .
0020: 42 1D 02 80 23 1E F0 FF  FF 7F 6F 70 1D 03 80 23  B...#.....op...#
0030: 21 00                                             !.              
```

## Opcodes

```
  0: 0x001E [0x20] SET_CLI_EVENT_UC_FLAG: Lock player control
  1: 0x0020 [0x42] SET_CLI_EVENT_CANCEL_DATA()
  2: 0x0021 [0x1D] PRINT_EVENT_MESSAGE(message_id=11744*)
    → "...So the chick of a sire of that coloring and a mother of this coloring would be...\u007F1\u0000\u0007"
  3: 0x0024 [0x23] WAIT_FOR_DIALOG_INTERACTION
  4: 0x0025 [0x1E] EventEntity looks at LocalPlayer and starts talking
  5: 0x002A [0x6F] WAIT_FRAME_DELAY: Yield until WaitTime reaches zero
  6: 0x002B [0x70] WAIT_ENTITY_RENDER_FLAG: Wait while EventEntity->Render.Flags3 bit 2 is set (cancel turn if not)
  7: 0x002C [0x1D] PRINT_EVENT_MESSAGE(message_id=11745*)
    → "Oh, you want to know about the egg? I wonder if it'll hatch soon...\u007F1\u0000\u0007"
  8: 0x002F [0x23] WAIT_FOR_DIALOG_INTERACTION
  9: 0x0030 [0x21] END_EVENT
 10: 0x0031 [0x00] END_REQSTACK()
```
