# 17666745

## Common Data

| Field            | Value                       |
|------------------|-----------------------------|
| Zone             | Abyssea - Vunkerl (ID: 217) |
| Block Size       | 4292 bytes                  |
| Total Events     | 31                          |
| References Count | 141                         |

## List of Events

| Event ID              | Entrypoint   |   Size |   Instructions |
|-----------------------|--------------|--------|----------------|
| [65535](#event-65535) | 0x0000       |    658 |             62 |
| [1052](#event-1052)   | 0x0292       |    304 |             60 |
| [1053](#event-1053)   | 0x03C2       |     76 |             14 |
| [1054](#event-1054)   | 0x040E       |      6 |              4 |
| [1055](#event-1055)   | 0x0414       |      6 |              4 |
| [1056](#event-1056)   | 0x041A       |      7 |              5 |
| [1057](#event-1057)   | 0x0421       |      6 |              4 |
| [1058](#event-1058)   | 0x0427       |    125 |             21 |
| [1059](#event-1059)   | 0x04A4       |     25 |              7 |
| [1105](#event-1105)   | 0x04BD       |     25 |              7 |
| [1060](#event-1060)   | 0x04D6       |    212 |             42 |
| [1061](#event-1061)   | 0x05AA       |    105 |             21 |
| [1062](#event-1062)   | 0x0613       |    257 |             52 |
| [1063](#event-1063)   | 0x0714       |    431 |            106 |
| [1064](#event-1064)   | 0x08C3       |     63 |             11 |
| [1065](#event-1065)   | 0x0902       |     27 |              9 |
| [1066](#event-1066)   | 0x091D       |     27 |              9 |
| [1067](#event-1067)   | 0x0938       |     43 |             15 |
| [1068](#event-1068)   | 0x0963       |      6 |              4 |
| [1069](#event-1069)   | 0x0969       |    171 |             33 |
| [1070](#event-1070)   | 0x0A14       |     55 |              9 |
| [1071](#event-1071)   | 0x0A4B       |    276 |             74 |
| [1106](#event-1106)   | 0x0B5F       |     30 |              8 |
| [1072](#event-1072)   | 0x0B7D       |     33 |              9 |
| [1073](#event-1073)   | 0x0B9E       |    234 |             50 |
| [1074](#event-1074)   | 0x0C88       |     63 |             11 |
| [1075](#event-1075)   | 0x0CC7       |      7 |              5 |
| [1076](#event-1076)   | 0x0CCE       |      6 |              4 |
| [1077](#event-1077)   | 0x0CD4       |    102 |             20 |
| [1078](#event-1078)   | 0x0D3A       |     71 |             13 |
| [1079](#event-1079)   | 0x0D81       |    129 |             27 |

## DAT References (imed_data)

|   Index | Hex Value   |   Dec Value |
|---------|-------------|-------------|
|       0 | 0x00C8      |         200 |
|       1 | 0x0000      |           0 |
|       2 | 0x00C9      |         201 |
|       3 | 0x0001      |           1 |
|       4 | 0x002D      |          45 |
|       5 | 0x0002      |           2 |
|       6 | 0x001E      |          30 |
|       7 | 0x00D7      |         215 |
|       8 | 0x001D      |          29 |
|       9 | 0x202D      |        8237 |
|      10 | 0x202E      |        8238 |
|      11 | 0x202F      |        8239 |
|      12 | 0x2030      |        8240 |
|      13 | 0x0007      |           7 |
|      14 | 0x2031      |        8241 |
|      15 | 0x0013      |          19 |
|      16 | 0x2032      |        8242 |
|      17 | 0x2033      |        8243 |
|      18 | 0x0078      |         120 |
|      19 | 0x2034      |        8244 |
|      20 | 0x0664      |        1636 |
|      21 | 0x0B89      |        2953 |
|      22 | 0x005B      |          91 |
|      23 | 0x2035      |        8245 |
|      24 | 0x2036      |        8246 |
|      25 | 0x2037      |        8247 |
|      26 | 0x2038      |        8248 |
|      27 | 0x2039      |        8249 |
|      28 | 0x203A      |        8250 |
|      29 | 0x203B      |        8251 |
|      30 | 0x203C      |        8252 |
|      31 | 0x203D      |        8253 |
|      32 | 0x203E      |        8254 |
|      33 | 0x203F      |        8255 |
|      34 | 0x2040      |        8256 |
|      35 | 0x2041      |        8257 |
|      36 | 0x2042      |        8258 |
|      37 | 0x2043      |        8259 |
|      38 | 0x2044      |        8260 |
|      39 | 0x2045      |        8261 |
|      40 | 0x2046      |        8262 |
|      41 | 0x2047      |        8263 |
|      42 | 0x2048      |        8264 |
|      43 | 0x2049      |        8265 |
|      44 | 0x204A      |        8266 |
|      45 | 0x204B      |        8267 |
|      46 | 0x204D      |        8269 |
|      47 | 0x204E      |        8270 |
|      48 | 0x204F      |        8271 |
|      49 | 0x2050      |        8272 |
|      50 | 0x2051      |        8273 |
|      51 | 0x2052      |        8274 |
|      52 | 0x2053      |        8275 |
|      53 | 0x000A      |          10 |
|      54 | 0x2055      |        8277 |
|      55 | 0x2054      |        8276 |
|      56 | 0x2056      |        8278 |
|      57 | 0x2057      |        8279 |
|      58 | 0x2058      |        8280 |
|      59 | 0x2059      |        8281 |
|      60 | 0x205A      |        8282 |
|      61 | 0x205B      |        8283 |
|      62 | 0x205C      |        8284 |
|      63 | 0x205D      |        8285 |
|      64 | 0x205E      |        8286 |
|      65 | 0x0024      |          36 |
|      66 | 0x205F      |        8287 |
|      67 | 0x2060      |        8288 |
|      68 | 0x2061      |        8289 |
|      69 | 0x2062      |        8290 |
|      70 | 0x2063      |        8291 |
|      71 | 0x2064      |        8292 |
|      72 | 0x00D9      |         217 |
|      73 | 0x0004      |           4 |
|      74 | 0xFFFEBB80  |  4294884224 |
|      75 | 0xFFFBC56B  |  4294690155 |
|      76 | 0x0005      |           5 |
|      77 | 0xFFFC3D88  |  4294720904 |
|      78 | 0xFFFF5BEC  |  4294925292 |
|      79 | 0x0006      |           6 |
|      80 | 0xFFF917A0  |  4294514592 |
|      81 | 0xFFF92705  |  4294518533 |
|      82 | 0x2065      |        8293 |
|      83 | 0x2066      |        8294 |
|      84 | 0x2067      |        8295 |
|      85 | 0x2068      |        8296 |
|      86 | 0x2069      |        8297 |
|      87 | 0x206A      |        8298 |
|      88 | 0x206B      |        8299 |
|      89 | 0x206C      |        8300 |
|      90 | 0x206D      |        8301 |
|      91 | 0x206E      |        8302 |
|      92 | 0x206F      |        8303 |
|      93 | 0x2070      |        8304 |
|      94 | 0x2071      |        8305 |
|      95 | 0x2072      |        8306 |
|      96 | 0x2073      |        8307 |
|      97 | 0x2074      |        8308 |
|      98 | 0x2075      |        8309 |
|      99 | 0x2076      |        8310 |
|     100 | 0x2077      |        8311 |
|     101 | 0x2078      |        8312 |
|     102 | 0x2079      |        8313 |
|     103 | 0x207A      |        8314 |
|     104 | 0x207B      |        8315 |
|     105 | 0x207C      |        8316 |
|     106 | 0x207F      |        8319 |
|     107 | 0x2080      |        8320 |
|     108 | 0x0020      |          32 |
|     109 | 0x2081      |        8321 |
|     110 | 0x2082      |        8322 |
|     111 | 0x2083      |        8323 |
|     112 | 0x2084      |        8324 |
|     113 | 0x2085      |        8325 |
|     114 | 0x2086      |        8326 |
|     115 | 0x2087      |        8327 |
|     116 | 0x2088      |        8328 |
|     117 | 0x2089      |        8329 |
|     118 | 0x208A      |        8330 |
|     119 | 0x208B      |        8331 |
|     120 | 0x208C      |        8332 |
|     121 | 0x208D      |        8333 |
|     122 | 0x208E      |        8334 |
|     123 | 0x208F      |        8335 |
|     124 | 0x2090      |        8336 |
|     125 | 0x2091      |        8337 |
|     126 | 0x2092      |        8338 |
|     127 | 0x2093      |        8339 |
|     128 | 0x2094      |        8340 |
|     129 | 0x1905      |        6405 |
|     130 | 0x2096      |        8342 |
|     131 | 0x2097      |        8343 |
|     132 | 0x2098      |        8344 |
|     133 | 0x2099      |        8345 |
|     134 | 0x209A      |        8346 |
|     135 | 0x209B      |        8347 |
|     136 | 0x209C      |        8348 |
|     137 | 0x209D      |        8349 |
|     138 | 0x209E      |        8350 |
|     139 | 0x209F      |        8351 |
|     140 | 0x20A0      |        8352 |

## String References

- **6405**: There is nothing out of the ordinary here.
- **8240**: Lend a hand? [Sure./I'd rather not.]
- **8250**: You receive $1.
- **8257**: This abandoned bridge has seen better days.
- **8258**: You gingerly place one foot on it to assess its stability. It [creaks mournfully/wobbles and wavers/begins to splinter and crumble] beneath you.
- **8259**: The restoration process is complete.
- **8260**: The restored bridge appears quite sturdy.
- **8275**: Finished your repairs? [I have./Not yet.]
- **8286**: Offer your assistance? [Certainly!/Not today.]
- **8304**: There is no response. The pearl appears to be damaged.
- **8305**: You replace the malfunctioning linkpearl with a fresh one from the pearlsack.
- **8309**: A linkpearl has been placed here, so carefully hidden that it almost escapes your eye.
- **8330**: Accept the assignment? [Danger is my middle name./I'm not sure about this...]
- **8340**: An object on the ground glistens in the dim light...

## Events

### Event 65535

#### Metadata

| Field        | Value     |
|--------------|-----------|
| Entrypoint   | 0x0000    |
| Data Size    | 658 bytes |
| Instructions | 1         |

```
      00 01 02 03 04 05 06 07  08 09 0A 0B 0C 0D 0E 0F
      -- -- -- -- -- -- -- --  -- -- -- -- -- -- -- --
0000: 00 45 00 80 F0 FF FF 7F  F0 FF FF 7F 66 64 69 30  .E..........fdi0
0010: 01 80 55 00 80 F0 FF FF  7F F0 FF FF 7F 66 64 69  ..U..........fdi
0020: 30 1B 45 00 80 F0 FF FF  7F F0 FF FF 7F 66 64 6F  0.E..........fdo
0030: 30 01 80 55 00 80 F0 FF  FF 7F F0 FF FF 7F 66 64  0..U..........fd
0040: 6F 30 1B 45 00 80 F0 FF  FF 7F F0 FF FF 7F 66 64  o0.E..........fd
0050: 69 31 01 80 55 00 80 F0  FF FF 7F F0 FF FF 7F 66  i1..U..........f
0060: 64 69 31 1B 45 00 80 F0  FF FF 7F F0 FF FF 7F 66  di1.E..........f
0070: 64 6F 31 01 80 55 00 80  F0 FF FF 7F F0 FF FF 7F  do1..U..........
0080: 66 64 6F 31 1B 45 02 80  F0 FF FF 7F F0 FF FF 7F  fdo1.E..........
0090: 77 68 69 31 01 80 55 02  80 F0 FF FF 7F F0 FF FF  whi1..U.........
00A0: 7F 77 68 69 31 1B 45 02  80 F0 FF FF 7F F0 FF FF  .whi1.E.........
00B0: 7F 77 68 6F 31 01 80 55  02 80 F0 FF FF 7F F0 FF  .who1..U........
00C0: FF 7F 77 68 6F 31 1B 45  02 80 F0 FF FF 7F F0 FF  ..who1.E........
00D0: FF 7F 77 68 6F 32 01 80  55 02 80 F0 FF FF 7F F0  ..who2..U.......
00E0: FF FF 7F 77 68 6F 32 1B  45 02 80 F0 FF FF 7F F0  ...who2.E.......
00F0: FF FF 7F 77 68 6F 33 01  80 55 02 80 F0 FF FF 7F  ...who3..U......
0100: F0 FF FF 7F 77 68 6F 33  1B 62 03 80 F0 FF FF 7F  ....who3.b......
0110: F0 FF FF 7F 6D 61 69 6E  01 80 1C 04 80 45 00 80  ....main.....E..
0120: F0 FF FF 7F F0 FF FF 7F  66 64 6F 31 01 80 55 00  ........fdo1..U.
0130: 80 F0 FF FF 7F F0 FF FF  7F 66 64 6F 31 1B 45 00  .........fdo1.E.
0140: 80 F0 FF FF 7F F0 FF FF  7F 66 64 69 31 01 80 62  .........fdi1..b
0150: 05 80 F0 FF FF 7F F0 FF  FF 7F 6D 61 69 6E 01 80  ..........main..
0160: 1C 06 80 55 00 80 F0 FF  FF 7F F0 FF FF 7F 66 64  ...U..........fd
0170: 69 31 1B 45 00 80 F0 FF  FF 7F F0 FF FF 7F 62 6C  i1.E..........bl
0180: 6F 6E 01 80 45 02 80 F0  FF FF 7F F0 FF FF 7F 62  on..E..........b
0190: 6C 6F 6E 01 80 1B 45 02  80 F0 FF FF 7F F0 FF FF  lon...E.........
01A0: 7F 77 68 69 30 01 80 55  02 80 F0 FF FF 7F F0 FF  .whi0..U........
01B0: FF 7F 77 68 69 30 1B 45  02 80 F0 FF FF 7F F0 FF  ..whi0.E........
01C0: FF 7F 77 68 6F 30 01 80  55 02 80 F0 FF FF 7F F0  ..who0..U.......
01D0: FF FF 7F 77 68 6F 30 1B  45 07 80 F0 FF FF 7F F0  ...who0.E.......
01E0: FF FF 7F 65 66 6F 6E 01  80 55 07 80 F0 FF FF 7F  ...efon..U......
01F0: F0 FF FF 7F 65 66 6F 6E  1B 45 00 80 F0 FF FF 7F  ....efon.E......
0200: F0 FF FF 7F 66 64 69 73  01 80 1B 45 00 80 F0 FF  ....fdis...E....
0210: FF 7F F0 FF FF 7F 66 64  6F 73 01 80 55 00 80 F0  ......fdos..U...
0220: FF FF 7F F0 FF FF 7F 66  64 6F 73 1B 45 00 80 F0  .......fdos.E...
0230: FF FF 7F F0 FF FF 7F 66  64 69 66 01 80 1B 45 00  .......fdif...E.
0240: 80 F0 FF FF 7F F0 FF FF  7F 66 64 6F 66 01 80 55  .........fdof..U
0250: 00 80 F0 FF FF 7F F0 FF  FF 7F 66 64 6F 66 1B 45  ..........fdof.E
0260: 00 80 F0 FF FF 7F F0 FF  FF 7F 66 64 69 70 01 80  ..........fdip..
0270: 1B 45 00 80 F0 FF FF 7F  F0 FF FF 7F 66 64 6F 70  .E..........fdop
0280: 01 80 55 00 80 F0 FF FF  7F F0 FF FF 7F 66 64 6F  ..U..........fdo
0290: 70 1B                                             p.              
```

#### Opcodes

```
  0: 0x0000 [0x00] END_REQSTACK()
```

#### Data or dead code:

```
# Dead code (unreachable instructions):
     0x0001 [0x45] LOAD_SCHEDULED_TASK: Load scheduler "fdi0" with entities [LocalPlayer, LocalPlayer], work=[200*, 0*]
     0x0012 [0x55] WAIT_LOAD_SCHEDULER: Wait for scheduler "fdi0" with entities [LocalPlayer, LocalPlayer], work=200*
     0x0021 [0x1B] RETURN
     0x0022 [0x45] LOAD_SCHEDULED_TASK: Load scheduler "fdo0" with entities [LocalPlayer, LocalPlayer], work=[200*, 0*]
     0x0033 [0x55] WAIT_LOAD_SCHEDULER: Wait for scheduler "fdo0" with entities [LocalPlayer, LocalPlayer], work=200*
     0x0042 [0x1B] RETURN
     0x0043 [0x45] LOAD_SCHEDULED_TASK: Load scheduler "fdi1" with entities [LocalPlayer, LocalPlayer], work=[200*, 0*]
     0x0054 [0x55] WAIT_LOAD_SCHEDULER: Wait for scheduler "fdi1" with entities [LocalPlayer, LocalPlayer], work=200*
     0x0063 [0x1B] RETURN
     0x0064 [0x45] LOAD_SCHEDULED_TASK: Load scheduler "fdo1" with entities [LocalPlayer, LocalPlayer], work=[200*, 0*]
     0x0075 [0x55] WAIT_LOAD_SCHEDULER: Wait for scheduler "fdo1" with entities [LocalPlayer, LocalPlayer], work=200*
     0x0084 [0x1B] RETURN
     0x0085 [0x45] LOAD_SCHEDULED_TASK: Load scheduler "whi1" with entities [LocalPlayer, LocalPlayer], work=[201*, 0*]
     0x0096 [0x55] WAIT_LOAD_SCHEDULER: Wait for scheduler "whi1" with entities [LocalPlayer, LocalPlayer], work=201*
     0x00A5 [0x1B] RETURN
     0x00A6 [0x45] LOAD_SCHEDULED_TASK: Load scheduler "who1" with entities [LocalPlayer, LocalPlayer], work=[201*, 0*]
     0x00B7 [0x55] WAIT_LOAD_SCHEDULER: Wait for scheduler "who1" with entities [LocalPlayer, LocalPlayer], work=201*
     0x00C6 [0x1B] RETURN
     0x00C7 [0x45] LOAD_SCHEDULED_TASK: Load scheduler "who2" with entities [LocalPlayer, LocalPlayer], work=[201*, 0*]
     0x00D8 [0x55] WAIT_LOAD_SCHEDULER: Wait for scheduler "who2" with entities [LocalPlayer, LocalPlayer], work=201*
     0x00E7 [0x1B] RETURN
     0x00E8 [0x45] LOAD_SCHEDULED_TASK: Load scheduler "who3" with entities [LocalPlayer, LocalPlayer], work=[201*, 0*]
     0x00F9 [0x55] WAIT_LOAD_SCHEDULER: Wait for scheduler "who3" with entities [LocalPlayer, LocalPlayer], work=201*
     0x0108 [0x1B] RETURN
     0x0109 [0x62] LOAD_EVENT_SCHEDULER: Load scheduler "main" with entities [LocalPlayer, LocalPlayer], work=[1*, 0*]
     0x011A [0x1C] WAIT(45* ticks)
     0x011D [0x45] LOAD_SCHEDULED_TASK: Load scheduler "fdo1" with entities [LocalPlayer, LocalPlayer], work=[200*, 0*]
     0x012E [0x55] WAIT_LOAD_SCHEDULER: Wait for scheduler "fdo1" with entities [LocalPlayer, LocalPlayer], work=200*
     0x013D [0x1B] RETURN
     0x013E [0x45] LOAD_SCHEDULED_TASK: Load scheduler "fdi1" with entities [LocalPlayer, LocalPlayer], work=[200*, 0*]
     0x014F [0x62] LOAD_EVENT_SCHEDULER: Load scheduler "main" with entities [LocalPlayer, LocalPlayer], work=[2*, 0*]
     0x0160 [0x1C] WAIT(30* ticks)
     0x0163 [0x55] WAIT_LOAD_SCHEDULER: Wait for scheduler "fdi1" with entities [LocalPlayer, LocalPlayer], work=200*
     0x0172 [0x1B] RETURN
     0x0173 [0x45] LOAD_SCHEDULED_TASK: Load scheduler "blon" with entities [LocalPlayer, LocalPlayer], work=[200*, 0*]
     0x0184 [0x45] LOAD_SCHEDULED_TASK: Load scheduler "blon" with entities [LocalPlayer, LocalPlayer], work=[201*, 0*]
     0x0195 [0x1B] RETURN
     0x0196 [0x45] LOAD_SCHEDULED_TASK: Load scheduler "whi0" with entities [LocalPlayer, LocalPlayer], work=[201*, 0*]
     0x01A7 [0x55] WAIT_LOAD_SCHEDULER: Wait for scheduler "whi0" with entities [LocalPlayer, LocalPlayer], work=201*
     0x01B6 [0x1B] RETURN
     0x01B7 [0x45] LOAD_SCHEDULED_TASK: Load scheduler "who0" with entities [LocalPlayer, LocalPlayer], work=[201*, 0*]
     0x01C8 [0x55] WAIT_LOAD_SCHEDULER: Wait for scheduler "who0" with entities [LocalPlayer, LocalPlayer], work=201*
     0x01D7 [0x1B] RETURN
     0x01D8 [0x45] LOAD_SCHEDULED_TASK: Load scheduler "efon" with entities [LocalPlayer, LocalPlayer], work=[215*, 0*]
     0x01E9 [0x55] WAIT_LOAD_SCHEDULER: Wait for scheduler "efon" with entities [LocalPlayer, LocalPlayer], work=215*
     0x01F8 [0x1B] RETURN
     0x01F9 [0x45] LOAD_SCHEDULED_TASK: Load scheduler "fdis" with entities [LocalPlayer, LocalPlayer], work=[200*, 0*]
     0x020A [0x1B] RETURN
     0x020B [0x45] LOAD_SCHEDULED_TASK: Load scheduler "fdos" with entities [LocalPlayer, LocalPlayer], work=[200*, 0*]
     0x021C [0x55] WAIT_LOAD_SCHEDULER: Wait for scheduler "fdos" with entities [LocalPlayer, LocalPlayer], work=200*
     0x022B [0x1B] RETURN
     0x022C [0x45] LOAD_SCHEDULED_TASK: Load scheduler "fdif" with entities [LocalPlayer, LocalPlayer], work=[200*, 0*]
     0x023D [0x1B] RETURN
     0x023E [0x45] LOAD_SCHEDULED_TASK: Load scheduler "fdof" with entities [LocalPlayer, LocalPlayer], work=[200*, 0*]
     0x024F [0x55] WAIT_LOAD_SCHEDULER: Wait for scheduler "fdof" with entities [LocalPlayer, LocalPlayer], work=200*
     0x025E [0x1B] RETURN
     0x025F [0x45] LOAD_SCHEDULED_TASK: Load scheduler "fdip" with entities [LocalPlayer, LocalPlayer], work=[200*, 0*]
     0x0270 [0x1B] RETURN
     0x0271 [0x45] LOAD_SCHEDULED_TASK: Load scheduler "fdop" with entities [LocalPlayer, LocalPlayer], work=[200*, 0*]
     0x0282 [0x55] WAIT_LOAD_SCHEDULER: Wait for scheduler "fdop" with entities [LocalPlayer, LocalPlayer], work=200*
     0x0291 [0x1B] RETURN
```

### Event 1052

#### Metadata

| Field        | Value     |
|--------------|-----------|
| Entrypoint   | 0x0292    |
| Data Size    | 304 bytes |
| Instructions | 59        |

```
      00 01 02 03 04 05 06 07  08 09 0A 0B 0C 0D 0E 0F
      -- -- -- -- -- -- -- --  -- -- -- -- -- -- -- --
0290:       42 4A BA 92 0D 01  F0 FF FF 7F 6F 76 BA 92    BJ........ov..
02A0: 0D 01 66 08 80 BA 92 0D  01 BA 92 0D 01 74 6C 6B  ..f..........tlk
02B0: 30 2B BA 92 0D 01 09 80  23 2B BA 92 0D 01 0A 80  0+......#+......
02C0: 23 2B BA 92 0D 01 0B 80  23 66 08 80 BA 92 0D 01  #+......#f......
02D0: BA 92 0D 01 74 6C 6B 31  24 0C 80 01 80 01 80 25  ....tlk1$......%
02E0: 02 00 10 01 80 00 04 03  6E BA 92 0D 01 0D 80 99  ........n.......
02F0: BA 92 0D 01 2B BA 92 0D  01 0E 80 23 03 01 10 03  ....+......#....
0300: 80 01 24 03 02 00 10 03  80 00 24 03 6E BA 92 0D  ..$.......$.n...
0310: 01 0F 80 99 BA 92 0D 01  2B BA 92 0D 01 10 80 23  ........+......#
0320: 21 01 24 03 2B BA 92 0D  01 11 80 23 27 10 F0 FF  !.$.+......#'...
0330: FF 7F 0B 1C 12 80 27 10  F0 FF FF 7F 0C 2B BA 92  ......'......+..
0340: 0D 01 13 80 23 03 02 10  14 80 03 03 10 15 80 66  ....#..........f
0350: 16 80 BA 92 0D 01 BA 92  0D 01 70 61 73 30 2B BA  ..........pas0+.
0360: 92 0D 01 17 80 23 2B BA  92 0D 01 18 80 23 2B BA  .....#+......#+.
0370: 92 0D 01 19 80 23 2B BA  92 0D 01 1A 80 23 66 08  .....#+......#f.
0380: 80 BA 92 0D 01 BA 92 0D  01 74 6C 6B 30 2B BA 92  .........tlk0+..
0390: 0D 01 1B 80 23 48 1C 80  23 2B BA 92 0D 01 1D 80  ....#H..#+......
03A0: 23 2B BA 92 0D 01 1E 80  23 66 08 80 BA 92 0D 01  #+......#f......
03B0: BA 92 0D 01 74 6C 6B 31  2B BA 92 0D 01 1F 80 23  ....tlk1+......#
03C0: 21 00                                             !.              
```

#### Opcodes

```
  0: 0x0292 [0x42] SET_CLI_EVENT_CANCEL_DATA()
  1: 0x0293 [0x4A] Cheupirudaux (ID: 17666746/0x010D92BA) looks at LocalPlayer
  2: 0x029C [0x6F] WAIT_FRAME_DELAY: Yield until WaitTime reaches zero
  3: 0x029D [0x76] CHECK_ENTITY_RENDER_FLAGS: Wait until Cheupirudaux (ID: 17666746/0x010D92BA) Render.Flags0 and Render.Flags3 conditions are met
  4: 0x02A2 [0x66] LOAD_EXT_SCHEDULER_MAIN: Load scheduler "tlk0" with entities [Cheupirudaux (ID: 17666746/0x010D92BA), Cheupirudaux (ID: 17666746/0x010D92BA)], work=29*
  5: 0x02B1 [0x2B] Cheupirudaux (ID: 17666746/0x010D92BA) [8237*]:
    → "So strong, so silent they stand! On their broad backs do they carry us over vast crevasses of despair..."
  6: 0x02B8 [0x23] WAIT_FOR_DIALOG_INTERACTION
  7: 0x02B9 [0x2B] Cheupirudaux (ID: 17666746/0x010D92BA) [8238*]:
    → "Yet alas! Beneath their proud exterior, they creak and crumble from within! Forsaken and forgotten, they can do naught but await the inevitable day when they go tumbling into the abyss..."
  8: 0x02C0 [0x23] WAIT_FOR_DIALOG_INTERACTION
  9: 0x02C1 [0x2B] Cheupirudaux (ID: 17666746/0x010D92BA) [8239*]:
    → "I speak, of course, of the bridges! These noble structures cry out for our aid! You would not forsake them, would you, traveller?"
 10: 0x02C8 [0x23] WAIT_FOR_DIALOG_INTERACTION
 11: 0x02C9 [0x66] LOAD_EXT_SCHEDULER_MAIN: Load scheduler "tlk1" with entities [Cheupirudaux (ID: 17666746/0x010D92BA), Cheupirudaux (ID: 17666746/0x010D92BA)], work=29*
 12: 0x02D8 [0x24] CREATE_DIALOG(message_id=8240*, default_option=0*, option_flags=0*)
    → "Lend a hand? [Sure./I'd rather not.]"
 13: 0x02DF [0x25] WAIT_DIALOG_SELECT()
 14: 0x02E0 [0x02] IF !(Work_Zone[0] == 0*) GOTO 0x0304
 15: 0x02E8 [0x6E] Cheupirudaux (ID: 17666746/0x010D92BA) uses emote 7*
 16: 0x02EF [0x99] Wait for Cheupirudaux (ID: 17666746/0x010D92BA) animation to complete
 17: 0x02F4 [0x2B] Cheupirudaux (ID: 17666746/0x010D92BA) [8241*]:
    → "Excellent! I knew you were a [man/woman] of compassion and consummate aesthetic sensibilities."
 18: 0x02FB [0x23] WAIT_FOR_DIALOG_INTERACTION
 19: 0x02FC [0x03] Work_Zone[1] = 1*
 20: 0x0301 [0x01] GOTO 0x0324
 21: 0x0304 [0x02] IF !(Work_Zone[0] == 1*) GOTO 0x0324
 22: 0x030C [0x6E] Cheupirudaux (ID: 17666746/0x010D92BA) uses emote 19*
 23: 0x0313 [0x99] Wait for Cheupirudaux (ID: 17666746/0x010D92BA) animation to complete
 24: 0x0318 [0x2B] Cheupirudaux (ID: 17666746/0x010D92BA) [8242*]:
    → "Oh, for shame! For when the bridges come crashing down, our fragile hopes for a brighter tomorrow will crumble with them."
 25: 0x031F [0x23] WAIT_FOR_DIALOG_INTERACTION
 26: 0x0320 [0x21] END_EVENT

SUBROUTINE_0324:
 27: 0x0324 [0x2B] Cheupirudaux (ID: 17666746/0x010D92BA) [8243*]:
    → "Now that I know that we share a thing or two in common, I feel comfortable introducing myself. I am Cheupirudaux, humble woodworker and appreciator of fine architecture."
 28: 0x032B [0x23] WAIT_FOR_DIALOG_INTERACTION
 29: 0x032C [0x27] REQ_SET(priority=0x10, entity_id=LocalPlayer, tag_num=0x0B)
 30: 0x0333 [0x1C] WAIT(120* ticks)
 31: 0x0336 [0x27] REQ_SET(priority=0x10, entity_id=LocalPlayer, tag_num=0x0C)
 32: 0x033D [0x2B] Cheupirudaux (ID: 17666746/0x010D92BA) [8244*]:
    → "<Player>, is it? Always a pleasure to make the acquaintance of a fellow aesthete!"
 33: 0x0344 [0x23] WAIT_FOR_DIALOG_INTERACTION
 34: 0x0345 [0x03] Work_Zone[2] = 1636*
 35: 0x034A [0x03] Work_Zone[3] = 2953*
 36: 0x034F [0x66] LOAD_EXT_SCHEDULER_MAIN: Load scheduler "pas0" with entities [Cheupirudaux (ID: 17666746/0x010D92BA), Cheupirudaux (ID: 17666746/0x010D92BA)], work=91*
 37: 0x035E [0x2B] Cheupirudaux (ID: 17666746/0x010D92BA) [8245*]:
    → "This $3 is for you. What is it? Why, only the means by which you will restore our pontine companions to their former glory!"
 38: 0x0365 [0x23] WAIT_FOR_DIALOG_INTERACTION
 39: 0x0366 [0x2B] Cheupirudaux (ID: 17666746/0x010D92BA) [8246*]:
    → "Mind you, each bridge is as a unique and precious flower. What is fit for one may not be fit for another. To that end, I have placed a note containing detailed instructions in one pocket of your $3."
 40: 0x036D [0x23] WAIT_FOR_DIALOG_INTERACTION
 41: 0x036E [0x2B] Cheupirudaux (ID: 17666746/0x010D92BA) [8247*]:
    → "Your first subject awaits you just a short ways to the northeast of here. Down this path, through the gate, and you should find her ere long."
 42: 0x0375 [0x23] WAIT_FOR_DIALOG_INTERACTION
 43: 0x0376 [0x2B] Cheupirudaux (ID: 17666746/0x010D92BA) [8248*]:
    → "As this is your first assignment, I have taken it upon myself to prepare the necessary material for you ahead of time. Quite considerate of me, if I do say so myself!"
 44: 0x037D [0x23] WAIT_FOR_DIALOG_INTERACTION
 45: 0x037E [0x66] LOAD_EXT_SCHEDULER_MAIN: Load scheduler "tlk0" with entities [Cheupirudaux (ID: 17666746/0x010D92BA), Cheupirudaux (ID: 17666746/0x010D92BA)], work=29*
 46: 0x038D [0x2B] Cheupirudaux (ID: 17666746/0x010D92BA) [8249*]:
    → "It's a bit of a makeshift solution, but it should more than suffice."
 47: 0x0394 [0x23] WAIT_FOR_DIALOG_INTERACTION
 48: 0x0395 [0x48] [System] [8250*]:
    → "You receive $1."
 49: 0x0398 [0x23] WAIT_FOR_DIALOG_INTERACTION
 50: 0x0399 [0x2B] Cheupirudaux (ID: 17666746/0x010D92BA) [8251*]:
    → "I'm afraid this is all the supply I have at the moment. Should you misplace it, you'll have to procure yourself some more from the fiends that roam the area."
 51: 0x03A0 [0x23] WAIT_FOR_DIALOG_INTERACTION
 52: 0x03A1 [0x2B] Cheupirudaux (ID: 17666746/0x010D92BA) [8252*]:
    → "Oh, would that I myself could strike out from here to perform the deed! Yet, I am but a humble woodworker, and the hordes would tear through me like a saw through lath!"
 53: 0x03A8 [0x23] WAIT_FOR_DIALOG_INTERACTION
 54: 0x03A9 [0x66] LOAD_EXT_SCHEDULER_MAIN: Load scheduler "tlk1" with entities [Cheupirudaux (ID: 17666746/0x010D92BA), Cheupirudaux (ID: 17666746/0x010D92BA)], work=29*
 55: 0x03B8 [0x2B] Cheupirudaux (ID: 17666746/0x010D92BA) [8253*]:
    → "Now hasten to her side! She cannot hold forever!"
 56: 0x03BF [0x23] WAIT_FOR_DIALOG_INTERACTION
 57: 0x03C0 [0x21] END_EVENT
 58: 0x03C1 [0x00] END_REQSTACK()
```

#### Data or dead code:

```
# Dead code (unreachable instructions):
     0x0321 [0x01] GOTO 0x0324
```

### Event 1053

#### Metadata

| Field        | Value    |
|--------------|----------|
| Entrypoint   | 0x03C2   |
| Data Size    | 76 bytes |
| Instructions | 14       |

```
      00 01 02 03 04 05 06 07  08 09 0A 0B 0C 0D 0E 0F
      -- -- -- -- -- -- -- --  -- -- -- -- -- -- -- --
03C0:       4A BA 92 0D 01 F0  FF FF 7F 6F 76 BA 92 0D    J........ov...
03D0: 01 03 03 10 15 80 66 08  80 BA 92 0D 01 BA 92 0D  ......f.........
03E0: 01 74 6C 6B 30 2B BA 92  0D 01 20 80 23 2B BA 92  .tlk0+.... .#+..
03F0: 0D 01 21 80 23 2B BA 92  0D 01 22 80 23 66 08 80  ..!.#+....".#f..
0400: BA 92 0D 01 BA 92 0D 01  74 6C 6B 31 21 00        ........tlk1!.  
```

#### Opcodes

```
  0: 0x03C2 [0x4A] Cheupirudaux (ID: 17666746/0x010D92BA) looks at LocalPlayer
  1: 0x03CB [0x6F] WAIT_FRAME_DELAY: Yield until WaitTime reaches zero
  2: 0x03CC [0x76] CHECK_ENTITY_RENDER_FLAGS: Wait until Cheupirudaux (ID: 17666746/0x010D92BA) Render.Flags0 and Render.Flags3 conditions are met
  3: 0x03D1 [0x03] Work_Zone[3] = 2953*
  4: 0x03D6 [0x66] LOAD_EXT_SCHEDULER_MAIN: Load scheduler "tlk0" with entities [Cheupirudaux (ID: 17666746/0x010D92BA), Cheupirudaux (ID: 17666746/0x010D92BA)], work=29*
  5: 0x03E5 [0x2B] Cheupirudaux (ID: 17666746/0x010D92BA) [8254*]:
    → "Why are you still here? The bridge to the northeast, she cries out for succor! Or $1, at least..."
  6: 0x03EC [0x23] WAIT_FOR_DIALOG_INTERACTION
  7: 0x03ED [0x2B] Cheupirudaux (ID: 17666746/0x010D92BA) [8255*]:
    → "Oh, would that I myself could strike out from here to perform the deed! Yet I am but a humble woodworker..."
  8: 0x03F4 [0x23] WAIT_FOR_DIALOG_INTERACTION
  9: 0x03F5 [0x2B] Cheupirudaux (ID: 17666746/0x010D92BA) [8256*]:
    → "I beg of you, friend! The bridges are counting on you!"
 10: 0x03FC [0x23] WAIT_FOR_DIALOG_INTERACTION
 11: 0x03FD [0x66] LOAD_EXT_SCHEDULER_MAIN: Load scheduler "tlk1" with entities [Cheupirudaux (ID: 17666746/0x010D92BA), Cheupirudaux (ID: 17666746/0x010D92BA)], work=29*
 12: 0x040C [0x21] END_EVENT
 13: 0x040D [0x00] END_REQSTACK()
```

### Event 1054

#### Metadata

| Field        | Value   |
|--------------|---------|
| Entrypoint   | 0x040E  |
| Data Size    | 6 bytes |
| Instructions | 4       |

```
      00 01 02 03 04 05 06 07  08 09 0A 0B 0C 0D 0E 0F
      -- -- -- -- -- -- -- --  -- -- -- -- -- -- -- --
0400:                                            48 23                H#
0410: 80 23 21 00                                       .#!.            
```

#### Opcodes

```
  0: 0x040E [0x48] [System] [8257*]:
    → "This abandoned bridge has seen better days."
  1: 0x0411 [0x23] WAIT_FOR_DIALOG_INTERACTION
  2: 0x0412 [0x21] END_EVENT
  3: 0x0413 [0x00] END_REQSTACK()
```

### Event 1055

#### Metadata

| Field        | Value   |
|--------------|---------|
| Entrypoint   | 0x0414  |
| Data Size    | 6 bytes |
| Instructions | 4       |

```
      00 01 02 03 04 05 06 07  08 09 0A 0B 0C 0D 0E 0F
      -- -- -- -- -- -- -- --  -- -- -- -- -- -- -- --
0410:             48 24 80 23  21 00                        H$.#!.      
```

#### Opcodes

```
  0: 0x0414 [0x48] [System] [8258*]:
    → "You gingerly place one foot on it to assess its stability. It [creaks mournfully/wobbles and wavers/begins to splinter and crumble] beneath you."
  1: 0x0417 [0x23] WAIT_FOR_DIALOG_INTERACTION
  2: 0x0418 [0x21] END_EVENT
  3: 0x0419 [0x00] END_REQSTACK()
```

### Event 1056

#### Metadata

| Field        | Value   |
|--------------|---------|
| Entrypoint   | 0x041A  |
| Data Size    | 7 bytes |
| Instructions | 5       |

```
      00 01 02 03 04 05 06 07  08 09 0A 0B 0C 0D 0E 0F
      -- -- -- -- -- -- -- --  -- -- -- -- -- -- -- --
0410:                                42 48 25 80 23 21            BH%.#!
0420: 00                                                .               
```

#### Opcodes

```
  0: 0x041A [0x42] SET_CLI_EVENT_CANCEL_DATA()
  1: 0x041B [0x48] [System] [8259*]:
    → "The restoration process is complete."
  2: 0x041E [0x23] WAIT_FOR_DIALOG_INTERACTION
  3: 0x041F [0x21] END_EVENT
  4: 0x0420 [0x00] END_REQSTACK()
```

### Event 1057

#### Metadata

| Field        | Value   |
|--------------|---------|
| Entrypoint   | 0x0421  |
| Data Size    | 6 bytes |
| Instructions | 4       |

```
      00 01 02 03 04 05 06 07  08 09 0A 0B 0C 0D 0E 0F
      -- -- -- -- -- -- -- --  -- -- -- -- -- -- -- --
0420:    48 26 80 23 21 00                               H&.#!.         
```

#### Opcodes

```
  0: 0x0421 [0x48] [System] [8260*]:
    → "The restored bridge appears quite sturdy."
  1: 0x0424 [0x23] WAIT_FOR_DIALOG_INTERACTION
  2: 0x0425 [0x21] END_EVENT
  3: 0x0426 [0x00] END_REQSTACK()
```

### Event 1058

#### Metadata

| Field        | Value     |
|--------------|-----------|
| Entrypoint   | 0x0427    |
| Data Size    | 125 bytes |
| Instructions | 21        |

```
      00 01 02 03 04 05 06 07  08 09 0A 0B 0C 0D 0E 0F
      -- -- -- -- -- -- -- --  -- -- -- -- -- -- -- --
0420:                      42  4A BA 92 0D 01 F0 FF FF         BJ.......
0430: 7F 6F 76 BA 92 0D 01 03  02 10 14 80 66 08 80 BA  .ov.........f...
0440: 92 0D 01 BA 92 0D 01 74  6C 6B 30 2B BA 92 0D 01  .......tlk0+....
0450: 27 80 23 2B BA 92 0D 01  28 80 23 66 08 80 BA 92  '.#+....(.#f....
0460: 0D 01 BA 92 0D 01 74 6C  6B 31 2B BA 92 0D 01 29  ......tlk1+....)
0470: 80 23 66 16 80 BA 92 0D  01 BA 92 0D 01 70 61 73  .#f..........pas
0480: 30 2B BA 92 0D 01 2A 80  23 2B BA 92 0D 01 2B 80  0+....*.#+....+.
0490: 23 45 02 80 F0 FF FF 7F  F0 FF FF 7F 71 73 74 63  #E..........qstc
04A0: 01 80 21 00                                       ..!.            
```

#### Opcodes

```
  0: 0x0427 [0x42] SET_CLI_EVENT_CANCEL_DATA()
  1: 0x0428 [0x4A] Cheupirudaux (ID: 17666746/0x010D92BA) looks at LocalPlayer
  2: 0x0431 [0x6F] WAIT_FRAME_DELAY: Yield until WaitTime reaches zero
  3: 0x0432 [0x76] CHECK_ENTITY_RENDER_FLAGS: Wait until Cheupirudaux (ID: 17666746/0x010D92BA) Render.Flags0 and Render.Flags3 conditions are met
  4: 0x0437 [0x03] Work_Zone[2] = 1636*
  5: 0x043C [0x66] LOAD_EXT_SCHEDULER_MAIN: Load scheduler "tlk0" with entities [Cheupirudaux (ID: 17666746/0x010D92BA), Cheupirudaux (ID: 17666746/0x010D92BA)], work=29*
  6: 0x044B [0x2B] Cheupirudaux (ID: 17666746/0x010D92BA) [8261*]:
    → "Oh, <Player>! I've been waiting for you! How was she? Is she safe?"
  7: 0x0452 [0x23] WAIT_FOR_DIALOG_INTERACTION
  8: 0x0453 [0x2B] Cheupirudaux (ID: 17666746/0x010D92BA) [8262*]:
    → "Oh, thank the Goddess! Why, if anything should happen to her, I could never go on!"
  9: 0x045A [0x23] WAIT_FOR_DIALOG_INTERACTION
 10: 0x045B [0x66] LOAD_EXT_SCHEDULER_MAIN: Load scheduler "tlk1" with entities [Cheupirudaux (ID: 17666746/0x010D92BA), Cheupirudaux (ID: 17666746/0x010D92BA)], work=29*
 11: 0x046A [0x2B] Cheupirudaux (ID: 17666746/0x010D92BA) [8263*]:
    → "Let me take that $3 off your hands."
 12: 0x0471 [0x23] WAIT_FOR_DIALOG_INTERACTION
 13: 0x0472 [0x66] LOAD_EXT_SCHEDULER_MAIN: Load scheduler "pas0" with entities [Cheupirudaux (ID: 17666746/0x010D92BA), Cheupirudaux (ID: 17666746/0x010D92BA)], work=91*
 14: 0x0481 [0x2B] Cheupirudaux (ID: 17666746/0x010D92BA) [8264*]:
    → "Take this for your troubles, and know with pride that she stands tall and strong due to your earnest efforts."
 15: 0x0488 [0x23] WAIT_FOR_DIALOG_INTERACTION
 16: 0x0489 [0x2B] Cheupirudaux (ID: 17666746/0x010D92BA) [8265*]:
    → "And yet, we cannot rest easy! The harsh elements and foul creatures of nightmare ever conspire to bring down my beloved! Promise that you will come to her aid again in her time of need."
 17: 0x0490 [0x23] WAIT_FOR_DIALOG_INTERACTION
 18: 0x0491 [0x45] LOAD_SCHEDULED_TASK: Load scheduler "qstc" with entities [LocalPlayer, LocalPlayer], work=[201*, 0*]
 19: 0x04A2 [0x21] END_EVENT
 20: 0x04A3 [0x00] END_REQSTACK()
```

### Event 1059

#### Metadata

| Field        | Value    |
|--------------|----------|
| Entrypoint   | 0x04A4   |
| Data Size    | 25 bytes |
| Instructions | 7        |

```
      00 01 02 03 04 05 06 07  08 09 0A 0B 0C 0D 0E 0F
      -- -- -- -- -- -- -- --  -- -- -- -- -- -- -- --
04A0:             4A BA 92 0D  01 F0 FF FF 7F 6F 76 BA      J........ov.
04B0: 92 0D 01 2B BA 92 0D 01  2B 80 23 21 00           ...+....+.#!.   
```

#### Opcodes

```
  0: 0x04A4 [0x4A] Cheupirudaux (ID: 17666746/0x010D92BA) looks at LocalPlayer
  1: 0x04AD [0x6F] WAIT_FRAME_DELAY: Yield until WaitTime reaches zero
  2: 0x04AE [0x76] CHECK_ENTITY_RENDER_FLAGS: Wait until Cheupirudaux (ID: 17666746/0x010D92BA) Render.Flags0 and Render.Flags3 conditions are met
  3: 0x04B3 [0x2B] Cheupirudaux (ID: 17666746/0x010D92BA) [8265*]:
    → "And yet, we cannot rest easy! The harsh elements and foul creatures of nightmare ever conspire to bring down my beloved! Promise that you will come to her aid again in her time of need."
  4: 0x04BA [0x23] WAIT_FOR_DIALOG_INTERACTION
  5: 0x04BB [0x21] END_EVENT
  6: 0x04BC [0x00] END_REQSTACK()
```

### Event 1105

#### Metadata

| Field        | Value    |
|--------------|----------|
| Entrypoint   | 0x04BD   |
| Data Size    | 25 bytes |
| Instructions | 7        |

```
      00 01 02 03 04 05 06 07  08 09 0A 0B 0C 0D 0E 0F
      -- -- -- -- -- -- -- --  -- -- -- -- -- -- -- --
04B0:                                         4A BA 92               J..
04C0: 0D 01 F0 FF FF 7F 6F 76  BA 92 0D 01 2B BA 92 0D  ......ov....+...
04D0: 01 09 80 23 21 00                                 ...#!.          
```

#### Opcodes

```
  0: 0x04BD [0x4A] Cheupirudaux (ID: 17666746/0x010D92BA) looks at LocalPlayer
  1: 0x04C6 [0x6F] WAIT_FRAME_DELAY: Yield until WaitTime reaches zero
  2: 0x04C7 [0x76] CHECK_ENTITY_RENDER_FLAGS: Wait until Cheupirudaux (ID: 17666746/0x010D92BA) Render.Flags0 and Render.Flags3 conditions are met
  3: 0x04CC [0x2B] Cheupirudaux (ID: 17666746/0x010D92BA) [8237*]:
    → "So strong, so silent they stand! On their broad backs do they carry us over vast crevasses of despair..."
  4: 0x04D3 [0x23] WAIT_FOR_DIALOG_INTERACTION
  5: 0x04D4 [0x21] END_EVENT
  6: 0x04D5 [0x00] END_REQSTACK()
```

### Event 1060

#### Metadata

| Field        | Value     |
|--------------|-----------|
| Entrypoint   | 0x04D6    |
| Data Size    | 212 bytes |
| Instructions | 41        |

```
      00 01 02 03 04 05 06 07  08 09 0A 0B 0C 0D 0E 0F
      -- -- -- -- -- -- -- --  -- -- -- -- -- -- -- --
04D0:                   42 4A  BA 92 0D 01 F0 FF FF 7F        BJ........
04E0: 6F 76 BA 92 0D 01 66 08  80 BA 92 0D 01 BA 92 0D  ov....f.........
04F0: 01 74 6C 6B 30 2B BA 92  0D 01 2C 80 23 2B BA 92  .tlk0+....,.#+..
0500: 0D 01 2D 80 23 66 08 80  BA 92 0D 01 BA 92 0D 01  ..-.#f..........
0510: 74 6C 6B 31 24 0C 80 01  80 01 80 25 02 00 10 01  tlk1$......%....
0520: 80 00 34 05 03 01 10 03  80 2B BA 92 0D 01 0E 80  ..4......+......
0530: 23 01 48 05 02 00 10 03  80 00 48 05 2B BA 92 0D  #.H.......H.+...
0540: 01 10 80 23 21 01 48 05  03 02 10 14 80 03 03 10  ...#!.H.........
0550: 15 80 66 08 80 BA 92 0D  01 BA 92 0D 01 74 6C 6B  ..f..........tlk
0560: 30 2B BA 92 0D 01 17 80  23 2B BA 92 0D 01 2E 80  0+......#+......
0570: 23 2B BA 92 0D 01 2F 80  23 2B BA 92 0D 01 30 80  #+..../.#+....0.
0580: 23 2B BA 92 0D 01 18 80  23 66 08 80 BA 92 0D 01  #+......#f......
0590: BA 92 0D 01 74 6C 6B 31  2B BA 92 0D 01 31 80 23  ....tlk1+....1.#
05A0: 2B BA 92 0D 01 1F 80 23  21 00                    +......#!.      
```

#### Opcodes

```
  0: 0x04D6 [0x42] SET_CLI_EVENT_CANCEL_DATA()
  1: 0x04D7 [0x4A] Cheupirudaux (ID: 17666746/0x010D92BA) looks at LocalPlayer
  2: 0x04E0 [0x6F] WAIT_FRAME_DELAY: Yield until WaitTime reaches zero
  3: 0x04E1 [0x76] CHECK_ENTITY_RENDER_FLAGS: Wait until Cheupirudaux (ID: 17666746/0x010D92BA) Render.Flags0 and Render.Flags3 conditions are met
  4: 0x04E6 [0x66] LOAD_EXT_SCHEDULER_MAIN: Load scheduler "tlk0" with entities [Cheupirudaux (ID: 17666746/0x010D92BA), Cheupirudaux (ID: 17666746/0x010D92BA)], work=29*
  5: 0x04F5 [0x2B] Cheupirudaux (ID: 17666746/0x010D92BA) [8266*]:
    → "Oh, 'tis you again, <Player>."
  6: 0x04FC [0x23] WAIT_FOR_DIALOG_INTERACTION
  7: 0x04FD [0x2B] Cheupirudaux (ID: 17666746/0x010D92BA) [8267*]:
    → "I fear I have grave news. My bridge, my beloved...once again she teeters on the precipice of darkness and despair!"
  8: 0x0504 [0x23] WAIT_FOR_DIALOG_INTERACTION
  9: 0x0505 [0x66] LOAD_EXT_SCHEDULER_MAIN: Load scheduler "tlk1" with entities [Cheupirudaux (ID: 17666746/0x010D92BA), Cheupirudaux (ID: 17666746/0x010D92BA)], work=29*
 10: 0x0514 [0x24] CREATE_DIALOG(message_id=8240*, default_option=0*, option_flags=0*)
    → "Lend a hand? [Sure./I'd rather not.]"
 11: 0x051B [0x25] WAIT_DIALOG_SELECT()
 12: 0x051C [0x02] IF !(Work_Zone[0] == 0*) GOTO 0x0534
 13: 0x0524 [0x03] Work_Zone[1] = 1*
 14: 0x0529 [0x2B] Cheupirudaux (ID: 17666746/0x010D92BA) [8241*]:
    → "Excellent! I knew you were a [man/woman] of compassion and consummate aesthetic sensibilities."
 15: 0x0530 [0x23] WAIT_FOR_DIALOG_INTERACTION
 16: 0x0531 [0x01] GOTO 0x0548
 17: 0x0534 [0x02] IF !(Work_Zone[0] == 1*) GOTO 0x0548
 18: 0x053C [0x2B] Cheupirudaux (ID: 17666746/0x010D92BA) [8242*]:
    → "Oh, for shame! For when the bridges come crashing down, our fragile hopes for a brighter tomorrow will crumble with them."
 19: 0x0543 [0x23] WAIT_FOR_DIALOG_INTERACTION
 20: 0x0544 [0x21] END_EVENT

SUBROUTINE_0548:
 21: 0x0548 [0x03] Work_Zone[2] = 1636*
 22: 0x054D [0x03] Work_Zone[3] = 2953*
 23: 0x0552 [0x66] LOAD_EXT_SCHEDULER_MAIN: Load scheduler "tlk0" with entities [Cheupirudaux (ID: 17666746/0x010D92BA), Cheupirudaux (ID: 17666746/0x010D92BA)], work=29*
 24: 0x0561 [0x2B] Cheupirudaux (ID: 17666746/0x010D92BA) [8245*]:
    → "This $3 is for you. What is it? Why, only the means by which you will restore our pontine companions to their former glory!"
 25: 0x0568 [0x23] WAIT_FOR_DIALOG_INTERACTION
 26: 0x0569 [0x2B] Cheupirudaux (ID: 17666746/0x010D92BA) [8269*]:
    → "This time, I would entreat you to rescue all of the fair maidens in this inlet. The one to our northeast, as before. Then one to our south, and two more across the inlet to the east. If you have a map on hand, you should be able to identify them with ease."
 27: 0x0570 [0x23] WAIT_FOR_DIALOG_INTERACTION
 28: 0x0571 [0x2B] Cheupirudaux (ID: 17666746/0x010D92BA) [8270*]:
    → "You need not see to them all in one fell swoop. Pick the one that catches your heart, and restore her to soundness and safety."
 29: 0x0578 [0x23] WAIT_FOR_DIALOG_INTERACTION
 30: 0x0579 [0x2B] Cheupirudaux (ID: 17666746/0x010D92BA) [8271*]:
    → "Of course, should you rescue all of our distressed damsels, I can promise that you will be rewarded in kind."
 31: 0x0580 [0x23] WAIT_FOR_DIALOG_INTERACTION
 32: 0x0581 [0x2B] Cheupirudaux (ID: 17666746/0x010D92BA) [8246*]:
    → "Mind you, each bridge is as a unique and precious flower. What is fit for one may not be fit for another. To that end, I have placed a note containing detailed instructions in one pocket of your $3."
 33: 0x0588 [0x23] WAIT_FOR_DIALOG_INTERACTION
 34: 0x0589 [0x66] LOAD_EXT_SCHEDULER_MAIN: Load scheduler "tlk1" with entities [Cheupirudaux (ID: 17666746/0x010D92BA), Cheupirudaux (ID: 17666746/0x010D92BA)], work=29*
 35: 0x0598 [0x2B] Cheupirudaux (ID: 17666746/0x010D92BA) [8272*]:
    → "Sadly, the $1 I provided to you previously marked the last of my supply. I must ask you to procure the necessary materials on your own."
 36: 0x059F [0x23] WAIT_FOR_DIALOG_INTERACTION
 37: 0x05A0 [0x2B] Cheupirudaux (ID: 17666746/0x010D92BA) [8253*]:
    → "Now hasten to her side! She cannot hold forever!"
 38: 0x05A7 [0x23] WAIT_FOR_DIALOG_INTERACTION
 39: 0x05A8 [0x21] END_EVENT
 40: 0x05A9 [0x00] END_REQSTACK()
```

#### Data or dead code:

```
# Dead code (unreachable instructions):
     0x0545 [0x01] GOTO 0x0548
```

### Event 1061

#### Metadata

| Field        | Value     |
|--------------|-----------|
| Entrypoint   | 0x05AA    |
| Data Size    | 105 bytes |
| Instructions | 21        |

```
      00 01 02 03 04 05 06 07  08 09 0A 0B 0C 0D 0E 0F
      -- -- -- -- -- -- -- --  -- -- -- -- -- -- -- --
05A0:                                4A BA 92 0D 01 F0            J.....
05B0: FF FF 7F 6F 76 BA 92 0D  01 03 02 10 14 80 03 03  ...ov...........
05C0: 10 15 80 66 08 80 BA 92  0D 01 BA 92 0D 01 74 6C  ...f..........tl
05D0: 6B 30 2B BA 92 0D 01 2E  80 23 2B BA 92 0D 01 2F  k0+......#+..../
05E0: 80 23 2B BA 92 0D 01 30  80 23 2B BA 92 0D 01 18  .#+....0.#+.....
05F0: 80 23 66 08 80 BA 92 0D  01 BA 92 0D 01 74 6C 6B  .#f..........tlk
0600: 31 2B BA 92 0D 01 31 80  23 2B BA 92 0D 01 1F 80  1+....1.#+......
0610: 23 21 00                                          #!.             
```

#### Opcodes

```
  0: 0x05AA [0x4A] Cheupirudaux (ID: 17666746/0x010D92BA) looks at LocalPlayer
  1: 0x05B3 [0x6F] WAIT_FRAME_DELAY: Yield until WaitTime reaches zero
  2: 0x05B4 [0x76] CHECK_ENTITY_RENDER_FLAGS: Wait until Cheupirudaux (ID: 17666746/0x010D92BA) Render.Flags0 and Render.Flags3 conditions are met
  3: 0x05B9 [0x03] Work_Zone[2] = 1636*
  4: 0x05BE [0x03] Work_Zone[3] = 2953*
  5: 0x05C3 [0x66] LOAD_EXT_SCHEDULER_MAIN: Load scheduler "tlk0" with entities [Cheupirudaux (ID: 17666746/0x010D92BA), Cheupirudaux (ID: 17666746/0x010D92BA)], work=29*
  6: 0x05D2 [0x2B] Cheupirudaux (ID: 17666746/0x010D92BA) [8269*]:
    → "This time, I would entreat you to rescue all of the fair maidens in this inlet. The one to our northeast, as before. Then one to our south, and two more across the inlet to the east. If you have a map on hand, you should be able to identify them with ease."
  7: 0x05D9 [0x23] WAIT_FOR_DIALOG_INTERACTION
  8: 0x05DA [0x2B] Cheupirudaux (ID: 17666746/0x010D92BA) [8270*]:
    → "You need not see to them all in one fell swoop. Pick the one that catches your heart, and restore her to soundness and safety."
  9: 0x05E1 [0x23] WAIT_FOR_DIALOG_INTERACTION
 10: 0x05E2 [0x2B] Cheupirudaux (ID: 17666746/0x010D92BA) [8271*]:
    → "Of course, should you rescue all of our distressed damsels, I can promise that you will be rewarded in kind."
 11: 0x05E9 [0x23] WAIT_FOR_DIALOG_INTERACTION
 12: 0x05EA [0x2B] Cheupirudaux (ID: 17666746/0x010D92BA) [8246*]:
    → "Mind you, each bridge is as a unique and precious flower. What is fit for one may not be fit for another. To that end, I have placed a note containing detailed instructions in one pocket of your $3."
 13: 0x05F1 [0x23] WAIT_FOR_DIALOG_INTERACTION
 14: 0x05F2 [0x66] LOAD_EXT_SCHEDULER_MAIN: Load scheduler "tlk1" with entities [Cheupirudaux (ID: 17666746/0x010D92BA), Cheupirudaux (ID: 17666746/0x010D92BA)], work=29*
 15: 0x0601 [0x2B] Cheupirudaux (ID: 17666746/0x010D92BA) [8272*]:
    → "Sadly, the $1 I provided to you previously marked the last of my supply. I must ask you to procure the necessary materials on your own."
 16: 0x0608 [0x23] WAIT_FOR_DIALOG_INTERACTION
 17: 0x0609 [0x2B] Cheupirudaux (ID: 17666746/0x010D92BA) [8253*]:
    → "Now hasten to her side! She cannot hold forever!"
 18: 0x0610 [0x23] WAIT_FOR_DIALOG_INTERACTION
 19: 0x0611 [0x21] END_EVENT
 20: 0x0612 [0x00] END_REQSTACK()
```

### Event 1062

#### Metadata

| Field        | Value     |
|--------------|-----------|
| Entrypoint   | 0x0613    |
| Data Size    | 257 bytes |
| Instructions | 51        |

```
      00 01 02 03 04 05 06 07  08 09 0A 0B 0C 0D 0E 0F
      -- -- -- -- -- -- -- --  -- -- -- -- -- -- -- --
0610:          42 4A BA 92 0D  01 F0 FF FF 7F 6F 76 BA     BJ........ov.
0620: 92 0D 01 66 08 80 BA 92  0D 01 BA 92 0D 01 74 6C  ...f..........tl
0630: 6B 30 2B BA 92 0D 01 32  80 23 2B BA 92 0D 01 33  k0+....2.#+....3
0640: 80 23 66 08 80 BA 92 0D  01 BA 92 0D 01 74 6C 6B  .#f..........tlk
0650: 31 24 34 80 01 80 01 80  25 02 00 10 01 80 00 89  1$4.....%.......
0660: 06 02 04 10 35 80 00 79  06 2B BA 92 0D 01 36 80  ....5..y.+....6.
0670: 23 03 01 10 03 80 01 86  06 2B BA 92 0D 01 37 80  #........+....7.
0680: 23 03 01 10 03 80 01 D0  06 02 00 10 03 80 00 D0  #...............
0690: 06 2E 03 02 10 14 80 03  03 10 15 80 2B BA 92 0D  ............+...
06A0: 01 2E 80 23 2B BA 92 0D  01 2F 80 23 2B BA 92 0D  ...#+..../.#+...
06B0: 01 30 80 23 2B BA 92 0D  01 18 80 23 2B BA 92 0D  .0.#+......#+...
06C0: 01 31 80 23 2B BA 92 0D  01 1F 80 23 21 01 D0 06  .1.#+......#!...
06D0: 03 02 10 14 80 03 03 10  15 80 2B BA 92 0D 01 29  ..........+....)
06E0: 80 23 66 16 80 BA 92 0D  01 BA 92 0D 01 70 61 73  .#f..........pas
06F0: 30 2B BA 92 0D 01 38 80  23 2B BA 92 0D 01 2B 80  0+....8.#+....+.
0700: 23 45 02 80 F0 FF FF 7F  F0 FF FF 7F 71 73 74 63  #E..........qstc
0710: 01 80 21 00                                       ..!.            
```

#### Opcodes

```
  0: 0x0613 [0x42] SET_CLI_EVENT_CANCEL_DATA()
  1: 0x0614 [0x4A] Cheupirudaux (ID: 17666746/0x010D92BA) looks at LocalPlayer
  2: 0x061D [0x6F] WAIT_FRAME_DELAY: Yield until WaitTime reaches zero
  3: 0x061E [0x76] CHECK_ENTITY_RENDER_FLAGS: Wait until Cheupirudaux (ID: 17666746/0x010D92BA) Render.Flags0 and Render.Flags3 conditions are met
  4: 0x0623 [0x66] LOAD_EXT_SCHEDULER_MAIN: Load scheduler "tlk0" with entities [Cheupirudaux (ID: 17666746/0x010D92BA), Cheupirudaux (ID: 17666746/0x010D92BA)], work=29*
  5: 0x0632 [0x2B] Cheupirudaux (ID: 17666746/0x010D92BA) [8273*]:
    → "Ah, my good <Player>!"
  6: 0x0639 [0x23] WAIT_FOR_DIALOG_INTERACTION
  7: 0x063A [0x2B] Cheupirudaux (ID: 17666746/0x010D92BA) [8274*]:
    → "What word do you bring? Pray tell me that the fair maidens of the inlet are safe and sound!"
  8: 0x0641 [0x23] WAIT_FOR_DIALOG_INTERACTION
  9: 0x0642 [0x66] LOAD_EXT_SCHEDULER_MAIN: Load scheduler "tlk1" with entities [Cheupirudaux (ID: 17666746/0x010D92BA), Cheupirudaux (ID: 17666746/0x010D92BA)], work=29*
 10: 0x0651 [0x24] CREATE_DIALOG(message_id=8275*, default_option=0*, option_flags=0*)
    → "Finished your repairs? [I have./Not yet.]"
 11: 0x0658 [0x25] WAIT_DIALOG_SELECT()
 12: 0x0659 [0x02] IF !(Work_Zone[0] == 0*) GOTO 0x0689
 13: 0x0661 [0x02] IF !(Work_Zone[4] == 10*) GOTO 0x0679
 14: 0x0669 [0x2B] Cheupirudaux (ID: 17666746/0x010D92BA) [8277*]:
    → "Oh, friend! You have truly gone above and beyond the call of duty! A more gentle and chivalrous knight I have never known!"
 15: 0x0670 [0x23] WAIT_FOR_DIALOG_INTERACTION
 16: 0x0671 [0x03] Work_Zone[1] = 1*
 17: 0x0676 [0x01] GOTO 0x0686
 18: 0x0679 [0x2B] Cheupirudaux (ID: 17666746/0x010D92BA) [8276*]:
    → "You restored $0 fair [maiden/maidens] to [her/their] former glory, did you? How wonderful!"
 19: 0x0680 [0x23] WAIT_FOR_DIALOG_INTERACTION
 20: 0x0681 [0x03] Work_Zone[1] = 1*

SUBROUTINE_0686:
 21: 0x0686 [0x01] GOTO 0x06D0
 22: 0x0689 [0x02] IF !(Work_Zone[0] == 1*) GOTO 0x06D0
 23: 0x0691 [0x2E] SET_CLI_EVENT_CANCEL_FLAGS()
 24: 0x0692 [0x03] Work_Zone[2] = 1636*
 25: 0x0697 [0x03] Work_Zone[3] = 2953*
 26: 0x069C [0x2B] Cheupirudaux (ID: 17666746/0x010D92BA) [8269*]:
    → "This time, I would entreat you to rescue all of the fair maidens in this inlet. The one to our northeast, as before. Then one to our south, and two more across the inlet to the east. If you have a map on hand, you should be able to identify them with ease."
 27: 0x06A3 [0x23] WAIT_FOR_DIALOG_INTERACTION
 28: 0x06A4 [0x2B] Cheupirudaux (ID: 17666746/0x010D92BA) [8270*]:
    → "You need not see to them all in one fell swoop. Pick the one that catches your heart, and restore her to soundness and safety."
 29: 0x06AB [0x23] WAIT_FOR_DIALOG_INTERACTION
 30: 0x06AC [0x2B] Cheupirudaux (ID: 17666746/0x010D92BA) [8271*]:
    → "Of course, should you rescue all of our distressed damsels, I can promise that you will be rewarded in kind."
 31: 0x06B3 [0x23] WAIT_FOR_DIALOG_INTERACTION
 32: 0x06B4 [0x2B] Cheupirudaux (ID: 17666746/0x010D92BA) [8246*]:
    → "Mind you, each bridge is as a unique and precious flower. What is fit for one may not be fit for another. To that end, I have placed a note containing detailed instructions in one pocket of your $3."
 33: 0x06BB [0x23] WAIT_FOR_DIALOG_INTERACTION
 34: 0x06BC [0x2B] Cheupirudaux (ID: 17666746/0x010D92BA) [8272*]:
    → "Sadly, the $1 I provided to you previously marked the last of my supply. I must ask you to procure the necessary materials on your own."
 35: 0x06C3 [0x23] WAIT_FOR_DIALOG_INTERACTION
 36: 0x06C4 [0x2B] Cheupirudaux (ID: 17666746/0x010D92BA) [8253*]:
    → "Now hasten to her side! She cannot hold forever!"
 37: 0x06CB [0x23] WAIT_FOR_DIALOG_INTERACTION
 38: 0x06CC [0x21] END_EVENT

SUBROUTINE_06D0:
 39: 0x06D0 [0x03] Work_Zone[2] = 1636*
 40: 0x06D5 [0x03] Work_Zone[3] = 2953*
 41: 0x06DA [0x2B] Cheupirudaux (ID: 17666746/0x010D92BA) [8263*]:
    → "Let me take that $3 off your hands."
 42: 0x06E1 [0x23] WAIT_FOR_DIALOG_INTERACTION
 43: 0x06E2 [0x66] LOAD_EXT_SCHEDULER_MAIN: Load scheduler "pas0" with entities [Cheupirudaux (ID: 17666746/0x010D92BA), Cheupirudaux (ID: 17666746/0x010D92BA)], work=91*
 44: 0x06F1 [0x2B] Cheupirudaux (ID: 17666746/0x010D92BA) [8278*]:
    → "Take this. You have earned it with your most gallant deeds."
 45: 0x06F8 [0x23] WAIT_FOR_DIALOG_INTERACTION
 46: 0x06F9 [0x2B] Cheupirudaux (ID: 17666746/0x010D92BA) [8265*]:
    → "And yet, we cannot rest easy! The harsh elements and foul creatures of nightmare ever conspire to bring down my beloved! Promise that you will come to her aid again in her time of need."
 47: 0x0700 [0x23] WAIT_FOR_DIALOG_INTERACTION
 48: 0x0701 [0x45] LOAD_SCHEDULED_TASK: Load scheduler "qstc" with entities [LocalPlayer, LocalPlayer], work=[201*, 0*]
 49: 0x0712 [0x21] END_EVENT
 50: 0x0713 [0x00] END_REQSTACK()
```

#### Data or dead code:

```
# Dead code (unreachable instructions):
     0x06CD [0x01] GOTO 0x06D0
```

### Event 1063

#### Metadata

| Field        | Value     |
|--------------|-----------|
| Entrypoint   | 0x0714    |
| Data Size    | 431 bytes |
| Instructions | 63        |

```
      00 01 02 03 04 05 06 07  08 09 0A 0B 0C 0D 0E 0F
      -- -- -- -- -- -- -- --  -- -- -- -- -- -- -- --
0710:             42 2B BF 92  0D 01 39 80 23 2B BF 92      B+....9.#+..
0720: 0D 01 3A 80 23 4A BF 92  0D 01 F0 FF FF 7F 6F 76  ..:.#J........ov
0730: BF 92 0D 01 2B BF 92 0D  01 3B 80 23 27 10 F0 FF  ....+....;.#'...
0740: FF 7F 0B 1C 12 80 27 10  F0 FF FF 7F 0C 66 08 80  ......'......f..
0750: BF 92 0D 01 BF 92 0D 01  74 6C 6B 30 2B BF 92 0D  ........tlk0+...
0760: 01 3C 80 23 2B BF 92 0D  01 3D 80 23 2B BF 92 0D  .<.#+....=.#+...
0770: 01 3E 80 23 2B BF 92 0D  01 3F 80 23 66 08 80 BF  .>.#+....?.#f...
0780: 92 0D 01 BF 92 0D 01 74  6C 6B 31 24 40 80 01 80  .......tlk1$@...
0790: 01 80 25 02 00 10 01 80  00 B7 07 6E BF 92 0D 01  ..%........n....
07A0: 41 80 99 BF 92 0D 01 2B  BF 92 0D 01 42 80 23 03  A......+....B.#.
07B0: 01 10 03 80 01 D7 07 02  00 10 03 80 00 D7 07 6E  ...............n
07C0: BF 92 0D 01 0F 80 99 BF  92 0D 01 2B BF 92 0D 01  ...........+....
07D0: 43 80 23 21 01 D7 07 66  08 80 BF 92 0D 01 BF 92  C.#!...f........
07E0: 0D 01 74 6C 6B 30 2B BF  92 0D 01 44 80 23 2B BF  ..tlk0+....D.#+.
07F0: 92 0D 01 45 80 23 66 08  80 BF 92 0D 01 BF 92 0D  ...E.#f.........
0800: 01 74 6C 6B 31 27 10 F0  FF FF 7F 0B 1C 12 80 27  .tlk1'.........'
0810: 10 F0 FF FF 7F 0C 2B BF  92 0D 01 46 80 23 2B BF  ......+....F.#+.
0820: 92 0D 01 47 80 23 02 02  10 03 80 00 9D 08 8D 48  ...G.#.........H
0830: 80 01 80 1C 06 80 8B 48  80 49 80 4A 80 4B 80 3F  .......H.I.J.K.?
0840: 3F 3F 00 00 00 00 00 00  00 00 00 00 00 00 00 8B  ??..............
0850: 48 80 4C 80 4D 80 4E 80  3F 3F 3F 00 00 00 00 00  H.L.M.N.???.....
0860: 00 00 00 00 00 00 00 00  8B 48 80 4F 80 50 80 51  .........H.O.P.Q
0870: 80 3F 3F 3F 00 00 00 00  00 00 00 00 00 00 00 00  .???............
0880: 00 2B BF 92 0D 01 52 80  23 2B BF 92 0D 01 53 80  .+....R.#+....S.
0890: 23 2B BF 92 0D 01 54 80  23 8A 01 AD 08 2B BF 92  #+....T.#....+..
08A0: 0D 01 52 80 23 2B BF 92  0D 01 55 80 23 6E BF 92  ..R.#+....U.#n..
08B0: 0D 01 0D 80 99 BF 92 0D  01 2B BF 92 0D 01 56 80  .........+....V.
08C0: 23 21 00                                          #!.             
```

#### Opcodes

```
  0: 0x0714 [0x42] SET_CLI_EVENT_CANCEL_DATA()
  1: 0x0715 [0x2B] Ferdechiond (ID: 17666751/0x010D92BF) [8279*]:
    → "..."
  2: 0x071C [0x23] WAIT_FOR_DIALOG_INTERACTION
  3: 0x071D [0x2B] Ferdechiond (ID: 17666751/0x010D92BF) [8280*]:
    → "Blast! I can hear not a thing!"
  4: 0x0724 [0x23] WAIT_FOR_DIALOG_INTERACTION
  5: 0x0725 [0x4A] Ferdechiond (ID: 17666751/0x010D92BF) looks at LocalPlayer
  6: 0x072E [0x6F] WAIT_FRAME_DELAY: Yield until WaitTime reaches zero
  7: 0x072F [0x76] CHECK_ENTITY_RENDER_FLAGS: Wait until Ferdechiond (ID: 17666751/0x010D92BF) Render.Flags0 and Render.Flags3 conditions are met
  8: 0x0734 [0x2B] Ferdechiond (ID: 17666751/0x010D92BF) [8281*]:
    → "Yes? I see you standing there with that questioning gaze. What is it?"
  9: 0x073B [0x23] WAIT_FOR_DIALOG_INTERACTION
 10: 0x073C [0x27] REQ_SET(priority=0x10, entity_id=LocalPlayer, tag_num=0x0B)
 11: 0x0743 [0x1C] WAIT(120* ticks)
 12: 0x0746 [0x27] REQ_SET(priority=0x10, entity_id=LocalPlayer, tag_num=0x0C)
 13: 0x074D [0x66] LOAD_EXT_SCHEDULER_MAIN: Load scheduler "tlk0" with entities [Ferdechiond (ID: 17666751/0x010D92BF), Ferdechiond (ID: 17666751/0x010D92BF)], work=29*
 14: 0x075C [0x2B] Ferdechiond (ID: 17666751/0x010D92BF) [8282*]:
    → "This? This is a linkpearl we've set up to gather intelligence on the hordes. As you might gather from my foul mood, it has thus far proven an utter failure in this capacity."
 15: 0x0763 [0x23] WAIT_FOR_DIALOG_INTERACTION
 16: 0x0764 [0x2B] Ferdechiond (ID: 17666751/0x010D92BF) [8283*]:
    → "Perhaps you could travel to the source and see what might be causing the problem."
 17: 0x076B [0x23] WAIT_FOR_DIALOG_INTERACTION
 18: 0x076C [0x2B] Ferdechiond (ID: 17666751/0x010D92BF) [8284*]:
    → "I need not tell you that this is a matter of utmost importance. If we cannot read the fiends' movements, we will find ourselves defenseless against their attacks."
 19: 0x0773 [0x23] WAIT_FOR_DIALOG_INTERACTION
 20: 0x0774 [0x2B] Ferdechiond (ID: 17666751/0x010D92BF) [8285*]:
    → "Time is of the essence. The sooner you succeed in this mission, the more generously I shall see fit to reward you. What say you?"
 21: 0x077B [0x23] WAIT_FOR_DIALOG_INTERACTION
 22: 0x077C [0x66] LOAD_EXT_SCHEDULER_MAIN: Load scheduler "tlk1" with entities [Ferdechiond (ID: 17666751/0x010D92BF), Ferdechiond (ID: 17666751/0x010D92BF)], work=29*
 23: 0x078B [0x24] CREATE_DIALOG(message_id=8286*, default_option=0*, option_flags=0*)
    → "Offer your assistance? [Certainly!/Not today.]"
 24: 0x0792 [0x25] WAIT_DIALOG_SELECT()
 25: 0x0793 [0x02] IF !(Work_Zone[0] == 0*) GOTO 0x07B7
 26: 0x079B [0x6E] Ferdechiond (ID: 17666751/0x010D92BF) uses emote 36*
 27: 0x07A2 [0x99] Wait for Ferdechiond (ID: 17666751/0x010D92BF) animation to complete
 28: 0x07A7 [0x2B] Ferdechiond (ID: 17666751/0x010D92BF) [8287*]:
    → "Excellent!"
 29: 0x07AE [0x23] WAIT_FOR_DIALOG_INTERACTION
 30: 0x07AF [0x03] Work_Zone[1] = 1*
 31: 0x07B4 [0x01] GOTO 0x07D7
 32: 0x07B7 [0x02] IF !(Work_Zone[0] == 1*) GOTO 0x07D7
 33: 0x07BF [0x6E] Ferdechiond (ID: 17666751/0x010D92BF) uses emote 19*
 34: 0x07C6 [0x99] Wait for Ferdechiond (ID: 17666751/0x010D92BF) animation to complete
 35: 0x07CB [0x2B] Ferdechiond (ID: 17666751/0x010D92BF) [8288*]:
    → "Blast! Will it take another cataclysm to make you civilians understand!? In wartime, we must all do our duty!"
 36: 0x07D2 [0x23] WAIT_FOR_DIALOG_INTERACTION
 37: 0x07D3 [0x21] END_EVENT

SUBROUTINE_07D7:
 38: 0x07D7 [0x66] LOAD_EXT_SCHEDULER_MAIN: Load scheduler "tlk0" with entities [Ferdechiond (ID: 17666751/0x010D92BF), Ferdechiond (ID: 17666751/0x010D92BF)], work=29*
 39: 0x07E6 [0x2B] Ferdechiond (ID: 17666751/0x010D92BF) [8289*]:
    → "Now that I see that you're a [man/woman] to be trusted, allow me to introduce myself. I am Ferdechiond, formerly a knight of the proud Kingdom of San d'Oria, may its glory never be forgotten!"
 40: 0x07ED [0x23] WAIT_FOR_DIALOG_INTERACTION
 41: 0x07EE [0x2B] Ferdechiond (ID: 17666751/0x010D92BF) [8290*]:
    → "And how shall I address you?"
 42: 0x07F5 [0x23] WAIT_FOR_DIALOG_INTERACTION
 43: 0x07F6 [0x66] LOAD_EXT_SCHEDULER_MAIN: Load scheduler "tlk1" with entities [Ferdechiond (ID: 17666751/0x010D92BF), Ferdechiond (ID: 17666751/0x010D92BF)], work=29*
 44: 0x0805 [0x27] REQ_SET(priority=0x10, entity_id=LocalPlayer, tag_num=0x0B)
 45: 0x080C [0x1C] WAIT(120* ticks)
 46: 0x080F [0x27] REQ_SET(priority=0x10, entity_id=LocalPlayer, tag_num=0x0C)
 47: 0x0816 [0x2B] Ferdechiond (ID: 17666751/0x010D92BF) [8291*]:
    → "<Player>, is it? A fitting name for a valiant young [man/woman]."
 48: 0x081D [0x23] WAIT_FOR_DIALOG_INTERACTION
 49: 0x081E [0x2B] Ferdechiond (ID: 17666751/0x010D92BF) [8292*]:
    → "Now, listen carefully. There are three linkpearls that you must investigate for me. These are the source pearls which should be transmitting signals to me here."
 50: 0x0825 [0x23] WAIT_FOR_DIALOG_INTERACTION
 51: 0x0826 [0x02] IF !(Work_Zone[2] == 1*) GOTO 0x089D
 52: 0x082E [0x8D] OPEN_MAP_WITH_PROPERTIES(map_id=217*, properties=0*)
 53: 0x0833 [0x1C] WAIT(30* ticks)
 54: 0x0836 [0x8B] SET_EVENT_MARK: Add/update map marker on map 217* at (-83.072*, -277.141*), index=4*, name=(no name)
 55: 0x083F [0x3F] 0x3F3F = ExtData[1]->WorkLocal[0] % ExtData[1]->WorkLocal[0]
 56: 0x0846 [0x00] END_REQSTACK()

SUBROUTINE_08AD:
 57: 0x08AD [0x6E] Ferdechiond (ID: 17666751/0x010D92BF) uses emote 7*
 58: 0x08B4 [0x99] Wait for Ferdechiond (ID: 17666751/0x010D92BF) animation to complete
 59: 0x08B9 [0x2B] Ferdechiond (ID: 17666751/0x010D92BF) [8297*]:
    → "Now go with speed!"
 60: 0x08C0 [0x23] WAIT_FOR_DIALOG_INTERACTION
 61: 0x08C1 [0x21] END_EVENT
 62: 0x08C2 [0x00] END_REQSTACK()
```

#### Data or dead code:

```
# Dead code (unreachable instructions):
     0x07D4 [0x01] GOTO 0x07D7
# Dead code (unreachable instructions):
     0x0847 [0x00] END_REQSTACK()
     0x0848 [0x00] END_REQSTACK()
     0x0849 [0x00] END_REQSTACK()
     0x084A [0x00] END_REQSTACK()
     0x084B [0x00] END_REQSTACK()
     0x084C [0x00] END_REQSTACK()
     0x084D [0x00] END_REQSTACK()
     0x084E [0x00] END_REQSTACK()
     0x084F [0x8B] SET_EVENT_MARK: Add/update map marker on map 217* at (-246.392*, -42.004*), index=5*, name=(no name)
     0x0858 [0x3F] 0x3F3F = ExtData[1]->WorkLocal[0] % ExtData[1]->WorkLocal[0]
     0x085F [0x00] END_REQSTACK()
     0x0860 [0x00] END_REQSTACK()
     0x0861 [0x00] END_REQSTACK()
     0x0862 [0x00] END_REQSTACK()
     0x0863 [0x00] END_REQSTACK()
     0x0864 [0x00] END_REQSTACK()
     0x0865 [0x00] END_REQSTACK()
     0x0866 [0x00] END_REQSTACK()
     0x0867 [0x00] END_REQSTACK()
     0x0868 [0x8B] SET_EVENT_MARK: Add/update map marker on map 217* at (-452.704*, -448.763*), index=6*, name=(no name)
     0x0871 [0x3F] 0x3F3F = ExtData[1]->WorkLocal[0] % ExtData[1]->WorkLocal[0]
     0x0878 [0x00] END_REQSTACK()
     0x0879 [0x00] END_REQSTACK()
     0x087A [0x00] END_REQSTACK()
     0x087B [0x00] END_REQSTACK()
     0x087C [0x00] END_REQSTACK()
     0x087D [0x00] END_REQSTACK()
     0x087E [0x00] END_REQSTACK()
     0x087F [0x00] END_REQSTACK()
     0x0880 [0x00] END_REQSTACK()
     0x0881 [0x2B] Ferdechiond (ID: 17666751/0x010D92BF) [8293*]:
    → "You may find the pearls at (H-10), (G-8), and (E-11) on your map, if you have seen fit to acquire one. Do not return until you've investigated all three."
     0x0888 [0x23] WAIT_FOR_DIALOG_INTERACTION
     0x0889 [0x2B] Ferdechiond (ID: 17666751/0x010D92BF) [8294*]:
    → "Here, I shall mark them off on your map for you."
     0x0890 [0x23] WAIT_FOR_DIALOG_INTERACTION
     0x0891 [0x2B] Ferdechiond (ID: 17666751/0x010D92BF) [8295*]:
    → "And here is a sack of fresh linkpearls. Should the pearls in the field be malfunctioning, replace them with one of these."
     0x0898 [0x23] WAIT_FOR_DIALOG_INTERACTION
     0x0899 [0x8A] CLOSE_MAP()
     0x089A [0x01] GOTO 0x08AD
```

### Event 1064

#### Metadata

| Field        | Value    |
|--------------|----------|
| Entrypoint   | 0x08C3   |
| Data Size    | 63 bytes |
| Instructions | 11       |

```
      00 01 02 03 04 05 06 07  08 09 0A 0B 0C 0D 0E 0F
      -- -- -- -- -- -- -- --  -- -- -- -- -- -- -- --
08C0:          4A BF 92 0D 01  F0 FF FF 7F 6F 76 BF 92     J........ov..
08D0: 0D 01 66 08 80 BF 92 0D  01 BF 92 0D 01 74 6C 6B  ..f..........tlk
08E0: 30 2B BF 92 0D 01 52 80  23 2B BF 92 0D 01 57 80  0+....R.#+....W.
08F0: 23 66 08 80 BF 92 0D 01  BF 92 0D 01 74 6C 6B 31  #f..........tlk1
0900: 21 00                                             !.              
```

#### Opcodes

```
  0: 0x08C3 [0x4A] Ferdechiond (ID: 17666751/0x010D92BF) looks at LocalPlayer
  1: 0x08CC [0x6F] WAIT_FRAME_DELAY: Yield until WaitTime reaches zero
  2: 0x08CD [0x76] CHECK_ENTITY_RENDER_FLAGS: Wait until Ferdechiond (ID: 17666751/0x010D92BF) Render.Flags0 and Render.Flags3 conditions are met
  3: 0x08D2 [0x66] LOAD_EXT_SCHEDULER_MAIN: Load scheduler "tlk0" with entities [Ferdechiond (ID: 17666751/0x010D92BF), Ferdechiond (ID: 17666751/0x010D92BF)], work=29*
  4: 0x08E1 [0x2B] Ferdechiond (ID: 17666751/0x010D92BF) [8293*]:
    → "You may find the pearls at (H-10), (G-8), and (E-11) on your map, if you have seen fit to acquire one. Do not return until you've investigated all three."
  5: 0x08E8 [0x23] WAIT_FOR_DIALOG_INTERACTION
  6: 0x08E9 [0x2B] Ferdechiond (ID: 17666751/0x010D92BF) [8298*]:
    → "Did I not tell you that time is of the essence!? Be off with you!"
  7: 0x08F0 [0x23] WAIT_FOR_DIALOG_INTERACTION
  8: 0x08F1 [0x66] LOAD_EXT_SCHEDULER_MAIN: Load scheduler "tlk1" with entities [Ferdechiond (ID: 17666751/0x010D92BF), Ferdechiond (ID: 17666751/0x010D92BF)], work=29*
  9: 0x0900 [0x21] END_EVENT
 10: 0x0901 [0x00] END_REQSTACK()
```

### Event 1065

#### Metadata

| Field        | Value    |
|--------------|----------|
| Entrypoint   | 0x0902   |
| Data Size    | 27 bytes |
| Instructions | 9        |

```
      00 01 02 03 04 05 06 07  08 09 0A 0B 0C 0D 0E 0F
      -- -- -- -- -- -- -- --  -- -- -- -- -- -- -- --
0900:       42 2B BF 92 0D 01  58 80 23 2B BF 92 0D 01    B+....X.#+....
0910: 59 80 23 2B BF 92 0D 01  5A 80 23 21 00           Y.#+....Z.#!.   
```

#### Opcodes

```
  0: 0x0902 [0x42] SET_CLI_EVENT_CANCEL_DATA()
  1: 0x0903 [0x2B] Ferdechiond (ID: 17666751/0x010D92BF) [8299*]:
    → "(<Player>? It is I, Ferdechiond.)"
  2: 0x090A [0x23] WAIT_FOR_DIALOG_INTERACTION
  3: 0x090B [0x2B] Ferdechiond (ID: 17666751/0x010D92BF) [8300*]:
    → "(Well, it would seem that this pearl is functioning ably.)"
  4: 0x0912 [0x23] WAIT_FOR_DIALOG_INTERACTION
  5: 0x0913 [0x2B] Ferdechiond (ID: 17666751/0x010D92BF) [8301*]:
    → "(But we cannot yet rest easy! You must check the remaining two locations with all haste!)"
  6: 0x091A [0x23] WAIT_FOR_DIALOG_INTERACTION
  7: 0x091B [0x21] END_EVENT
  8: 0x091C [0x00] END_REQSTACK()
```

### Event 1066

#### Metadata

| Field        | Value    |
|--------------|----------|
| Entrypoint   | 0x091D   |
| Data Size    | 27 bytes |
| Instructions | 9        |

```
      00 01 02 03 04 05 06 07  08 09 0A 0B 0C 0D 0E 0F
      -- -- -- -- -- -- -- --  -- -- -- -- -- -- -- --
0910:                                         42 2B BF               B+.
0920: 92 0D 01 58 80 23 2B BF  92 0D 01 5B 80 23 2B BF  ...X.#+....[.#+.
0930: 92 0D 01 5C 80 23 21 00                           ...\.#!.        
```

#### Opcodes

```
  0: 0x091D [0x42] SET_CLI_EVENT_CANCEL_DATA()
  1: 0x091E [0x2B] Ferdechiond (ID: 17666751/0x010D92BF) [8299*]:
    → "(<Player>? It is I, Ferdechiond.)"
  2: 0x0925 [0x23] WAIT_FOR_DIALOG_INTERACTION
  3: 0x0926 [0x2B] Ferdechiond (ID: 17666751/0x010D92BF) [8302*]:
    → "(It seems this linkpearl is also in fine fettle. Quite a relief, I say.)"
  4: 0x092D [0x23] WAIT_FOR_DIALOG_INTERACTION
  5: 0x092E [0x2B] Ferdechiond (ID: 17666751/0x010D92BF) [8303*]:
    → "(But now is no time to let up! Hurry to your final destination!)"
  6: 0x0935 [0x23] WAIT_FOR_DIALOG_INTERACTION
  7: 0x0936 [0x21] END_EVENT
  8: 0x0937 [0x00] END_REQSTACK()
```

### Event 1067

#### Metadata

| Field        | Value    |
|--------------|----------|
| Entrypoint   | 0x0938   |
| Data Size    | 43 bytes |
| Instructions | 15       |

```
      00 01 02 03 04 05 06 07  08 09 0A 0B 0C 0D 0E 0F
      -- -- -- -- -- -- -- --  -- -- -- -- -- -- -- --
0930:                          42 48 5D 80 23 48 5E 80          BH].#H^.
0940: 23 2B BF 92 0D 01 58 80  23 2B BF 92 0D 01 5F 80  #+....X.#+...._.
0950: 23 2B BF 92 0D 01 60 80  23 2B BF 92 0D 01 61 80  #+....`.#+....a.
0960: 23 21 00                                          #!.             
```

#### Opcodes

```
  0: 0x0938 [0x42] SET_CLI_EVENT_CANCEL_DATA()
  1: 0x0939 [0x48] [System] [8304*]:
    → "There is no response. The pearl appears to be damaged."
  2: 0x093C [0x23] WAIT_FOR_DIALOG_INTERACTION
  3: 0x093D [0x48] [System] [8305*]:
    → "You replace the malfunctioning linkpearl with a fresh one from the pearlsack."
  4: 0x0940 [0x23] WAIT_FOR_DIALOG_INTERACTION
  5: 0x0941 [0x2B] Ferdechiond (ID: 17666751/0x010D92BF) [8299*]:
    → "(<Player>? It is I, Ferdechiond.)"
  6: 0x0948 [0x23] WAIT_FOR_DIALOG_INTERACTION
  7: 0x0949 [0x2B] Ferdechiond (ID: 17666751/0x010D92BF) [8306*]:
    → "(What's that? Replaced a damaged pearl, you say?)"
  8: 0x0950 [0x23] WAIT_FOR_DIALOG_INTERACTION
  9: 0x0951 [0x2B] Ferdechiond (ID: 17666751/0x010D92BF) [8307*]:
    → "(Excellent work! You've saved us from a potential ambush by those devious fiends!)"
 10: 0x0958 [0x23] WAIT_FOR_DIALOG_INTERACTION
 11: 0x0959 [0x2B] Ferdechiond (ID: 17666751/0x010D92BF) [8308*]:
    → "(You have performed most admirably, indeed. I shall have your reward ready upon your return.)"
 12: 0x0960 [0x23] WAIT_FOR_DIALOG_INTERACTION
 13: 0x0961 [0x21] END_EVENT
 14: 0x0962 [0x00] END_REQSTACK()
```

### Event 1068

#### Metadata

| Field        | Value   |
|--------------|---------|
| Entrypoint   | 0x0963  |
| Data Size    | 6 bytes |
| Instructions | 4       |

```
      00 01 02 03 04 05 06 07  08 09 0A 0B 0C 0D 0E 0F
      -- -- -- -- -- -- -- --  -- -- -- -- -- -- -- --
0960:          48 62 80 23 21  00                          Hb.#!.       
```

#### Opcodes

```
  0: 0x0963 [0x48] [System] [8309*]:
    → "A linkpearl has been placed here, so carefully hidden that it almost escapes your eye."
  1: 0x0966 [0x23] WAIT_FOR_DIALOG_INTERACTION
  2: 0x0967 [0x21] END_EVENT
  3: 0x0968 [0x00] END_REQSTACK()
```

### Event 1069

#### Metadata

| Field        | Value     |
|--------------|-----------|
| Entrypoint   | 0x0969    |
| Data Size    | 171 bytes |
| Instructions | 33        |

```
      00 01 02 03 04 05 06 07  08 09 0A 0B 0C 0D 0E 0F
      -- -- -- -- -- -- -- --  -- -- -- -- -- -- -- --
0960:                             42 4A BF 92 0D 01 F0           BJ.....
0970: FF FF 7F 6F 76 BF 92 0D  01 2B BF 92 0D 01 63 80  ...ov....+....c.
0980: 23 02 02 10 05 80 00 B0  09 6E BF 92 0D 01 41 80  #........n....A.
0990: 99 BF 92 0D 01 2B BF 92  0D 01 64 80 23 2B BF 92  .....+....d.#+..
09A0: 0D 01 65 80 23 2B BF 92  0D 01 66 80 23 01 F9 09  ..e.#+....f.#...
09B0: 02 02 10 03 80 00 DA 09  2B BF 92 0D 01 67 80 23  ........+....g.#
09C0: 66 16 80 BF 92 0D 01 BF  92 0D 01 70 61 73 30 2B  f..........pas0+
09D0: BF 92 0D 01 65 80 23 01  F9 09 2B BF 92 0D 01 68  ....e.#...+....h
09E0: 80 23 66 16 80 BF 92 0D  01 BF 92 0D 01 70 61 73  .#f..........pas
09F0: 30 2B BF 92 0D 01 65 80  23 2B BF 92 0D 01 69 80  0+....e.#+....i.
0A00: 23 45 02 80 F0 FF FF 7F  F0 FF FF 7F 71 73 74 63  #E..........qstc
0A10: 01 80 21 00                                       ..!.            
```

#### Opcodes

```
  0: 0x0969 [0x42] SET_CLI_EVENT_CANCEL_DATA()
  1: 0x096A [0x4A] Ferdechiond (ID: 17666751/0x010D92BF) looks at LocalPlayer
  2: 0x0973 [0x6F] WAIT_FRAME_DELAY: Yield until WaitTime reaches zero
  3: 0x0974 [0x76] CHECK_ENTITY_RENDER_FLAGS: Wait until Ferdechiond (ID: 17666751/0x010D92BF) Render.Flags0 and Render.Flags3 conditions are met
  4: 0x0979 [0x2B] Ferdechiond (ID: 17666751/0x010D92BF) [8310*]:
    → "Hail, <Player>! 'Tis heartening to see your safe return."
  5: 0x0980 [0x23] WAIT_FOR_DIALOG_INTERACTION
  6: 0x0981 [0x02] IF !(Work_Zone[2] == 2*) GOTO 0x09B0
  7: 0x0989 [0x6E] Ferdechiond (ID: 17666751/0x010D92BF) uses emote 36*
  8: 0x0990 [0x99] Wait for Ferdechiond (ID: 17666751/0x010D92BF) animation to complete
  9: 0x0995 [0x2B] Ferdechiond (ID: 17666751/0x010D92BF) [8311*]:
    → "Why, it seems like barely a moment ago that you set off on your mission. Thorough, and swift. That's what I like to see!"
 10: 0x099C [0x23] WAIT_FOR_DIALOG_INTERACTION
 11: 0x099D [0x2B] Ferdechiond (ID: 17666751/0x010D92BF) [8312*]:
    → "As promised, consider this a reward for your efforts."
 12: 0x09A4 [0x23] WAIT_FOR_DIALOG_INTERACTION
 13: 0x09A5 [0x2B] Ferdechiond (ID: 17666751/0x010D92BF) [8313*]:
    → "I trust you'll find it to your satisfaction. Use it well. You've more than earned it!"
 14: 0x09AC [0x23] WAIT_FOR_DIALOG_INTERACTION
 15: 0x09AD [0x01] GOTO 0x09F9
 16: 0x09B0 [0x02] IF !(Work_Zone[2] == 1*) GOTO 0x09DA
 17: 0x09B8 [0x2B] Ferdechiond (ID: 17666751/0x010D92BF) [8314*]:
    → "And a fairly swift return, at that. Yeoman's work from a civilian like yourself."
 18: 0x09BF [0x23] WAIT_FOR_DIALOG_INTERACTION
 19: 0x09C0 [0x66] LOAD_EXT_SCHEDULER_MAIN: Load scheduler "pas0" with entities [Ferdechiond (ID: 17666751/0x010D92BF), Ferdechiond (ID: 17666751/0x010D92BF)], work=91*
 20: 0x09CF [0x2B] Ferdechiond (ID: 17666751/0x010D92BF) [8312*]:
    → "As promised, consider this a reward for your efforts."
 21: 0x09D6 [0x23] WAIT_FOR_DIALOG_INTERACTION
 22: 0x09D7 [0x01] GOTO 0x09F9
 23: 0x09DA [0x2B] Ferdechiond (ID: 17666751/0x010D92BF) [8315*]:
    → "It took you a fair while, but I cannot be overly critical of a civilian volunteer."
 24: 0x09E1 [0x23] WAIT_FOR_DIALOG_INTERACTION
 25: 0x09E2 [0x66] LOAD_EXT_SCHEDULER_MAIN: Load scheduler "pas0" with entities [Ferdechiond (ID: 17666751/0x010D92BF), Ferdechiond (ID: 17666751/0x010D92BF)], work=91*
 26: 0x09F1 [0x2B] Ferdechiond (ID: 17666751/0x010D92BF) [8312*]:
    → "As promised, consider this a reward for your efforts."
 27: 0x09F8 [0x23] WAIT_FOR_DIALOG_INTERACTION

SUBROUTINE_09F9:
 28: 0x09F9 [0x2B] Ferdechiond (ID: 17666751/0x010D92BF) [8316*]:
    → "I hope I can count on your loyal service again, <Player>."
 29: 0x0A00 [0x23] WAIT_FOR_DIALOG_INTERACTION
 30: 0x0A01 [0x45] LOAD_SCHEDULED_TASK: Load scheduler "qstc" with entities [LocalPlayer, LocalPlayer], work=[201*, 0*]
 31: 0x0A12 [0x21] END_EVENT
 32: 0x0A13 [0x00] END_REQSTACK()
```

### Event 1070

#### Metadata

| Field        | Value    |
|--------------|----------|
| Entrypoint   | 0x0A14   |
| Data Size    | 55 bytes |
| Instructions | 9        |

```
      00 01 02 03 04 05 06 07  08 09 0A 0B 0C 0D 0E 0F
      -- -- -- -- -- -- -- --  -- -- -- -- -- -- -- --
0A10:             4A BF 92 0D  01 F0 FF FF 7F 6F 76 BF      J........ov.
0A20: 92 0D 01 66 08 80 BF 92  0D 01 BF 92 0D 01 74 6C  ...f..........tl
0A30: 6B 30 2B BF 92 0D 01 69  80 23 66 08 80 BF 92 0D  k0+....i.#f.....
0A40: 01 BF 92 0D 01 74 6C 6B  31 21 00                 .....tlk1!.     
```

#### Opcodes

```
  0: 0x0A14 [0x4A] Ferdechiond (ID: 17666751/0x010D92BF) looks at LocalPlayer
  1: 0x0A1D [0x6F] WAIT_FRAME_DELAY: Yield until WaitTime reaches zero
  2: 0x0A1E [0x76] CHECK_ENTITY_RENDER_FLAGS: Wait until Ferdechiond (ID: 17666751/0x010D92BF) Render.Flags0 and Render.Flags3 conditions are met
  3: 0x0A23 [0x66] LOAD_EXT_SCHEDULER_MAIN: Load scheduler "tlk0" with entities [Ferdechiond (ID: 17666751/0x010D92BF), Ferdechiond (ID: 17666751/0x010D92BF)], work=29*
  4: 0x0A32 [0x2B] Ferdechiond (ID: 17666751/0x010D92BF) [8316*]:
    → "I hope I can count on your loyal service again, <Player>."
  5: 0x0A39 [0x23] WAIT_FOR_DIALOG_INTERACTION
  6: 0x0A3A [0x66] LOAD_EXT_SCHEDULER_MAIN: Load scheduler "tlk1" with entities [Ferdechiond (ID: 17666751/0x010D92BF), Ferdechiond (ID: 17666751/0x010D92BF)], work=29*
  7: 0x0A49 [0x21] END_EVENT
  8: 0x0A4A [0x00] END_REQSTACK()
```

### Event 1071

#### Metadata

| Field        | Value     |
|--------------|-----------|
| Entrypoint   | 0x0A4B    |
| Data Size    | 276 bytes |
| Instructions | 40        |

```
      00 01 02 03 04 05 06 07  08 09 0A 0B 0C 0D 0E 0F
      -- -- -- -- -- -- -- --  -- -- -- -- -- -- -- --
0A40:                                   42 4A BF 92 0D             BJ...
0A50: 01 F0 FF FF 7F 6F 76 BF  92 0D 01 66 08 80 BF 92  .....ov....f....
0A60: 0D 01 BF 92 0D 01 74 6C  6B 30 2B BF 92 0D 01 6A  ......tlk0+....j
0A70: 80 23 66 08 80 BF 92 0D  01 BF 92 0D 01 74 6C 6B  .#f..........tlk
0A80: 31 24 40 80 01 80 01 80  25 02 00 10 01 80 00 AD  1$@.....%.......
0A90: 0A 03 01 10 03 80 6E BF  92 0D 01 41 80 99 BF 92  ......n....A....
0AA0: 0D 01 2B BF 92 0D 01 42  80 23 01 CD 0A 02 00 10  ..+....B.#......
0AB0: 03 80 00 CD 0A 6E BF 92  0D 01 0F 80 99 BF 92 0D  .....n..........
0AC0: 01 2B BF 92 0D 01 43 80  23 21 01 CD 0A 2B BF 92  .+....C.#!...+..
0AD0: 0D 01 6B 80 23 02 02 10  03 80 00 4D 0B 2B BF 92  ..k.#......M.+..
0AE0: 0D 01 53 80 23 2B BF 92  0D 01 54 80 23 A8 00 48  ..S.#+....T.#..H
0AF0: 80 49 80 A8 00 48 80 4C  80 A8 00 48 80 4F 80 8B  .I...H.L...H.O..
0B00: 48 80 49 80 4A 80 4B 80  3F 3F 3F 00 00 00 00 00  H.I.J.K.???.....
0B10: 00 00 00 00 00 00 00 00  8B 48 80 4C 80 4D 80 4E  .........H.L.M.N
0B20: 80 3F 3F 3F 00 00 00 00  00 00 00 00 00 00 00 00  .???............
0B30: 00 8B 48 80 4F 80 50 80  51 80 3F 3F 3F 00 00 00  ..H.O.P.Q.???...
0B40: 00 00 00 00 00 00 00 00  00 00 01 55 0B 2B BF 92  ...........U.+..
0B50: 0D 01 55 80 23 2B BF 92  0D 01 56 80 23 21 00     ..U.#+....V.#!. 
```

#### Opcodes

```
  0: 0x0A4B [0x42] SET_CLI_EVENT_CANCEL_DATA()
  1: 0x0A4C [0x4A] Ferdechiond (ID: 17666751/0x010D92BF) looks at LocalPlayer
  2: 0x0A55 [0x6F] WAIT_FRAME_DELAY: Yield until WaitTime reaches zero
  3: 0x0A56 [0x76] CHECK_ENTITY_RENDER_FLAGS: Wait until Ferdechiond (ID: 17666751/0x010D92BF) Render.Flags0 and Render.Flags3 conditions are met
  4: 0x0A5B [0x66] LOAD_EXT_SCHEDULER_MAIN: Load scheduler "tlk0" with entities [Ferdechiond (ID: 17666751/0x010D92BF), Ferdechiond (ID: 17666751/0x010D92BF)], work=29*
  5: 0x0A6A [0x2B] Ferdechiond (ID: 17666751/0x010D92BF) [8319*]:
    → "Loath as I am to trouble you once more, I would be greatly in your debt if you could go examine them for me."
  6: 0x0A71 [0x23] WAIT_FOR_DIALOG_INTERACTION
  7: 0x0A72 [0x66] LOAD_EXT_SCHEDULER_MAIN: Load scheduler "tlk1" with entities [Ferdechiond (ID: 17666751/0x010D92BF), Ferdechiond (ID: 17666751/0x010D92BF)], work=29*
  8: 0x0A81 [0x24] CREATE_DIALOG(message_id=8286*, default_option=0*, option_flags=0*)
    → "Offer your assistance? [Certainly!/Not today.]"
  9: 0x0A88 [0x25] WAIT_DIALOG_SELECT()
 10: 0x0A89 [0x02] IF !(Work_Zone[0] == 0*) GOTO 0x0AAD
 11: 0x0A91 [0x03] Work_Zone[1] = 1*
 12: 0x0A96 [0x6E] Ferdechiond (ID: 17666751/0x010D92BF) uses emote 36*
 13: 0x0A9D [0x99] Wait for Ferdechiond (ID: 17666751/0x010D92BF) animation to complete
 14: 0x0AA2 [0x2B] Ferdechiond (ID: 17666751/0x010D92BF) [8287*]:
    → "Excellent!"
 15: 0x0AA9 [0x23] WAIT_FOR_DIALOG_INTERACTION
 16: 0x0AAA [0x01] GOTO 0x0ACD
 17: 0x0AAD [0x02] IF !(Work_Zone[0] == 1*) GOTO 0x0ACD
 18: 0x0AB5 [0x6E] Ferdechiond (ID: 17666751/0x010D92BF) uses emote 19*
 19: 0x0ABC [0x99] Wait for Ferdechiond (ID: 17666751/0x010D92BF) animation to complete
 20: 0x0AC1 [0x2B] Ferdechiond (ID: 17666751/0x010D92BF) [8288*]:
    → "Blast! Will it take another cataclysm to make you civilians understand!? In wartime, we must all do our duty!"
 21: 0x0AC8 [0x23] WAIT_FOR_DIALOG_INTERACTION
 22: 0x0AC9 [0x21] END_EVENT

SUBROUTINE_0ACD:
 23: 0x0ACD [0x2B] Ferdechiond (ID: 17666751/0x010D92BF) [8320*]:
    → "You may find the pearls at (H-10), (G-8), and (E-11). Do not return until you've investigated all three."
 24: 0x0AD4 [0x23] WAIT_FOR_DIALOG_INTERACTION
 25: 0x0AD5 [0x02] IF !(Work_Zone[2] == 1*) GOTO 0x0B4D
 26: 0x0ADD [0x2B] Ferdechiond (ID: 17666751/0x010D92BF) [8294*]:
    → "Here, I shall mark them off on your map for you."
 27: 0x0AE4 [0x23] WAIT_FOR_DIALOG_INTERACTION
 28: 0x0AE5 [0x2B] Ferdechiond (ID: 17666751/0x010D92BF) [8295*]:
    → "And here is a sack of fresh linkpearls. Should the pearls in the field be malfunctioning, replace them with one of these."
 29: 0x0AEC [0x23] WAIT_FOR_DIALOG_INTERACTION
 30: 0x0AED [0xA8] MAP_MARKER_CONTROL: Reset/unlock markers (no map display), zone=217*, marker=4*
 31: 0x0AF3 [0xA8] MAP_MARKER_CONTROL: Reset/unlock markers (no map display), zone=217*, marker=5*
 32: 0x0AF9 [0xA8] MAP_MARKER_CONTROL: Reset/unlock markers (no map display), zone=217*, marker=6*
 33: 0x0AFF [0x8B] SET_EVENT_MARK: Add/update map marker on map 217* at (-83.072*, -277.141*), index=4*, name=(no name)
 34: 0x0B08 [0x3F] 0x3F3F = ExtData[1]->WorkLocal[0] % ExtData[1]->WorkLocal[0]
 35: 0x0B0F [0x00] END_REQSTACK()

SUBROUTINE_0B55:
 36: 0x0B55 [0x2B] Ferdechiond (ID: 17666751/0x010D92BF) [8297*]:
    → "Now go with speed!"
 37: 0x0B5C [0x23] WAIT_FOR_DIALOG_INTERACTION
 38: 0x0B5D [0x21] END_EVENT
 39: 0x0B5E [0x00] END_REQSTACK()
```

#### Data or dead code:

```
# Dead code (unreachable instructions):
     0x0ACA [0x01] GOTO 0x0ACD
# Dead code (unreachable instructions):
     0x0B10 [0x00] END_REQSTACK()
     0x0B11 [0x00] END_REQSTACK()
     0x0B12 [0x00] END_REQSTACK()
     0x0B13 [0x00] END_REQSTACK()
     0x0B14 [0x00] END_REQSTACK()
     0x0B15 [0x00] END_REQSTACK()
     0x0B16 [0x00] END_REQSTACK()
     0x0B17 [0x00] END_REQSTACK()
     0x0B18 [0x8B] SET_EVENT_MARK: Add/update map marker on map 217* at (-246.392*, -42.004*), index=5*, name=(no name)
     0x0B21 [0x3F] 0x3F3F = ExtData[1]->WorkLocal[0] % ExtData[1]->WorkLocal[0]
     0x0B28 [0x00] END_REQSTACK()
     0x0B29 [0x00] END_REQSTACK()
     0x0B2A [0x00] END_REQSTACK()
     0x0B2B [0x00] END_REQSTACK()
     0x0B2C [0x00] END_REQSTACK()
     0x0B2D [0x00] END_REQSTACK()
     0x0B2E [0x00] END_REQSTACK()
     0x0B2F [0x00] END_REQSTACK()
     0x0B30 [0x00] END_REQSTACK()
     0x0B31 [0x8B] SET_EVENT_MARK: Add/update map marker on map 217* at (-452.704*, -448.763*), index=6*, name=(no name)
     0x0B3A [0x3F] 0x3F3F = ExtData[1]->WorkLocal[0] % ExtData[1]->WorkLocal[0]
     0x0B41 [0x00] END_REQSTACK()
     0x0B42 [0x00] END_REQSTACK()
     0x0B43 [0x00] END_REQSTACK()
     0x0B44 [0x00] END_REQSTACK()
     0x0B45 [0x00] END_REQSTACK()
     0x0B46 [0x00] END_REQSTACK()
     0x0B47 [0x00] END_REQSTACK()
     0x0B48 [0x00] END_REQSTACK()
     0x0B49 [0x00] END_REQSTACK()
     0x0B4A [0x01] GOTO 0x0B55
```

### Event 1106

#### Metadata

| Field        | Value    |
|--------------|----------|
| Entrypoint   | 0x0B5F   |
| Data Size    | 30 bytes |
| Instructions | 8        |

```
      00 01 02 03 04 05 06 07  08 09 0A 0B 0C 0D 0E 0F
      -- -- -- -- -- -- -- --  -- -- -- -- -- -- -- --
0B50:                                               2B                 +
0B60: BF 92 0D 01 39 80 23 6E  BF 92 0D 01 6C 80 99 BF  ....9.#n....l...
0B70: 92 0D 01 2B BF 92 0D 01  3A 80 23 21 00           ...+....:.#!.   
```

#### Opcodes

```
  0: 0x0B5F [0x2B] Ferdechiond (ID: 17666751/0x010D92BF) [8279*]:
    → "..."
  1: 0x0B66 [0x23] WAIT_FOR_DIALOG_INTERACTION
  2: 0x0B67 [0x6E] Ferdechiond (ID: 17666751/0x010D92BF) uses emote 32*
  3: 0x0B6E [0x99] Wait for Ferdechiond (ID: 17666751/0x010D92BF) animation to complete
  4: 0x0B73 [0x2B] Ferdechiond (ID: 17666751/0x010D92BF) [8280*]:
    → "Blast! I can hear not a thing!"
  5: 0x0B7A [0x23] WAIT_FOR_DIALOG_INTERACTION
  6: 0x0B7B [0x21] END_EVENT
  7: 0x0B7C [0x00] END_REQSTACK()
```

### Event 1072

#### Metadata

| Field        | Value    |
|--------------|----------|
| Entrypoint   | 0x0B7D   |
| Data Size    | 33 bytes |
| Instructions | 9        |

```
      00 01 02 03 04 05 06 07  08 09 0A 0B 0C 0D 0E 0F
      -- -- -- -- -- -- -- --  -- -- -- -- -- -- -- --
0B70:                                         4A C3 92               J..
0B80: 0D 01 F0 FF FF 7F 6F 76  C3 92 0D 01 2B C3 92 0D  ......ov....+...
0B90: 01 6D 80 23 2B C3 92 0D  01 6E 80 23 21 00        .m.#+....n.#!.  
```

#### Opcodes

```
  0: 0x0B7D [0x4A] Aladoverre (ID: 17666755/0x010D92C3) looks at LocalPlayer
  1: 0x0B86 [0x6F] WAIT_FRAME_DELAY: Yield until WaitTime reaches zero
  2: 0x0B87 [0x76] CHECK_ENTITY_RENDER_FLAGS: Wait until Aladoverre (ID: 17666755/0x010D92C3) Render.Flags0 and Render.Flags3 conditions are met
  3: 0x0B8C [0x2B] Aladoverre (ID: 17666755/0x010D92C3) [8321*]:
    → "One, two...two...what comes after two!?"
  4: 0x0B93 [0x23] WAIT_FOR_DIALOG_INTERACTION
  5: 0x0B94 [0x2B] Aladoverre (ID: 17666755/0x010D92C3) [8322*]:
    → "Curses! Don't interrupt me when I'm trying to concentrate! <Sigh>... Now I must start all over again..."
  6: 0x0B9B [0x23] WAIT_FOR_DIALOG_INTERACTION
  7: 0x0B9C [0x21] END_EVENT
  8: 0x0B9D [0x00] END_REQSTACK()
```

### Event 1073

#### Metadata

| Field        | Value     |
|--------------|-----------|
| Entrypoint   | 0x0B9E    |
| Data Size    | 234 bytes |
| Instructions | 49        |

```
      00 01 02 03 04 05 06 07  08 09 0A 0B 0C 0D 0E 0F
      -- -- -- -- -- -- -- --  -- -- -- -- -- -- -- --
0B90:                                            42 4A                BJ
0BA0: C3 92 0D 01 F0 FF FF 7F  6F 76 C3 92 0D 01 66 08  ........ov....f.
0BB0: 80 C3 92 0D 01 C3 92 0D  01 74 6C 6B 30 2B C3 92  .........tlk0+..
0BC0: 0D 01 6F 80 23 2B C3 92  0D 01 70 80 23 2B C3 92  ..o.#+....p.#+..
0BD0: 0D 01 71 80 23 2B C3 92  0D 01 72 80 23 2B C3 92  ..q.#+....r.#+..
0BE0: 0D 01 73 80 23 66 08 80  C3 92 0D 01 C3 92 0D 01  ..s.#f..........
0BF0: 74 6C 6B 31 2B C3 92 0D  01 74 80 23 2B C3 92 0D  tlk1+....t.#+...
0C00: 01 75 80 23 24 76 80 01  80 01 80 25 02 00 10 01  .u.#$v.....%....
0C10: 80 00 2B 0C 6E C3 92 0D  01 41 80 99 C3 92 0D 01  ..+.n....A......
0C20: 2B C3 92 0D 01 77 80 23  01 41 0C 02 00 10 03 80  +....w.#.A......
0C30: 00 41 0C 2B C3 92 0D 01  78 80 23 01 04 0C 01 41  .A.+....x.#....A
0C40: 0C 2B C3 92 0D 01 79 80  23 2B C3 92 0D 01 7A 80  .+....y.#+....z.
0C50: 23 27 10 F0 FF FF 7F 0B  1C 12 80 27 10 F0 FF FF  #'.........'....
0C60: 7F 0C 6E C3 92 0D 01 0D  80 99 C3 92 0D 01 2B C3  ..n...........+.
0C70: 92 0D 01 7B 80 23 2B C3  92 0D 01 7C 80 23 2B C3  ...{.#+....|.#+.
0C80: 92 0D 01 7D 80 23 21 00                           ...}.#!.        
```

#### Opcodes

```
  0: 0x0B9E [0x42] SET_CLI_EVENT_CANCEL_DATA()
  1: 0x0B9F [0x4A] Aladoverre (ID: 17666755/0x010D92C3) looks at LocalPlayer
  2: 0x0BA8 [0x6F] WAIT_FRAME_DELAY: Yield until WaitTime reaches zero
  3: 0x0BA9 [0x76] CHECK_ENTITY_RENDER_FLAGS: Wait until Aladoverre (ID: 17666755/0x010D92C3) Render.Flags0 and Render.Flags3 conditions are met
  4: 0x0BAE [0x66] LOAD_EXT_SCHEDULER_MAIN: Load scheduler "tlk0" with entities [Aladoverre (ID: 17666755/0x010D92C3), Aladoverre (ID: 17666755/0x010D92C3)], work=29*
  5: 0x0BBD [0x2B] Aladoverre (ID: 17666755/0x010D92C3) [8323*]:
    → "One, two...two... Wait...that face. You are somehow familiar to me."
  6: 0x0BC4 [0x23] WAIT_FOR_DIALOG_INTERACTION
  7: 0x0BC5 [0x2B] Aladoverre (ID: 17666755/0x010D92C3) [8324*]:
    → "Yes! You are the one who has been lending your generous aid to the survivors here in the inlet, are you not? Perhaps you could be of assistance to me as well."
  8: 0x0BCC [0x23] WAIT_FOR_DIALOG_INTERACTION
  9: 0x0BCD [0x2B] Aladoverre (ID: 17666755/0x010D92C3) [8325*]:
    → "What is the matter, you say!? What isn't the matter in this Goddess-forsaken world!"
 10: 0x0BD4 [0x23] WAIT_FOR_DIALOG_INTERACTION
 11: 0x0BD5 [0x2B] Aladoverre (ID: 17666755/0x010D92C3) [8326*]:
    → "Our waters run foul, our bridges crumble, fiends devour our loved ones. And our supply of linkshells dwindles to almost nothing!"
 12: 0x0BDC [0x23] WAIT_FOR_DIALOG_INTERACTION
 13: 0x0BDD [0x2B] Aladoverre (ID: 17666755/0x010D92C3) [8327*]:
    → "Linkpearls are not so hard to come by, but linkshells! They are a rare commodity indeed. And yet an essential one, without which we have no hope of coordinating our effort against the menace of the hordes."
 14: 0x0BE4 [0x23] WAIT_FOR_DIALOG_INTERACTION
 15: 0x0BE5 [0x66] LOAD_EXT_SCHEDULER_MAIN: Load scheduler "tlk1" with entities [Aladoverre (ID: 17666755/0x010D92C3), Aladoverre (ID: 17666755/0x010D92C3)], work=29*
 16: 0x0BF4 [0x2B] Aladoverre (ID: 17666755/0x010D92C3) [8328*]:
    → "We were scheduled to receive a supply, but word has it our transport regiment suffered an untimely demise at the hand of some particularly vile fiends."
 17: 0x0BFB [0x23] WAIT_FOR_DIALOG_INTERACTION
 18: 0x0BFC [0x2B] Aladoverre (ID: 17666755/0x010D92C3) [8329*]:
    → "Fiends that, er, have most assuredly long since vacated the area. No, I assure you that this mission is not life-endangering in the slightest!"
 19: 0x0C03 [0x23] WAIT_FOR_DIALOG_INTERACTION
 20: 0x0C04 [0x24] CREATE_DIALOG(message_id=8330*, default_option=0*, option_flags=0*)
    → "Accept the assignment? [Danger is my middle name./I'm not sure about this...]"
 21: 0x0C0B [0x25] WAIT_DIALOG_SELECT()
 22: 0x0C0C [0x02] IF !(Work_Zone[0] == 0*) GOTO 0x0C2B
 23: 0x0C14 [0x6E] Aladoverre (ID: 17666755/0x010D92C3) uses emote 36*
 24: 0x0C1B [0x99] Wait for Aladoverre (ID: 17666755/0x010D92C3) animation to complete
 25: 0x0C20 [0x2B] Aladoverre (ID: 17666755/0x010D92C3) [8331*]:
    → "Danger? What danger? Er, well, nevertheless, your support is most welcome!"
 26: 0x0C27 [0x23] WAIT_FOR_DIALOG_INTERACTION
 27: 0x0C28 [0x01] GOTO 0x0C41
 28: 0x0C2B [0x02] IF !(Work_Zone[0] == 1*) GOTO 0x0C41
 29: 0x0C33 [0x2B] Aladoverre (ID: 17666755/0x010D92C3) [8332*]:
    → "Please! I do not ask you to throw your life away! Only that if you perchance come upon a linkshell, that you deliver it back here to me. Is that so much to ask?"
 30: 0x0C3A [0x23] WAIT_FOR_DIALOG_INTERACTION
 31: 0x0C3B [0x01] GOTO 0x0C04

SUBROUTINE_0C41:
 32: 0x0C41 [0x2B] Aladoverre (ID: 17666755/0x010D92C3) [8333*]:
    → "Incidentally, you may call me Aladoverre. Why did I not introduce myself sooner? Why, I'm not entirely sure myself!"
 33: 0x0C48 [0x23] WAIT_FOR_DIALOG_INTERACTION
 34: 0x0C49 [0x2B] Aladoverre (ID: 17666755/0x010D92C3) [8334*]:
    → "You'll have to forgive me. I'm a bit addled of mind, these days. And what may I call you?"
 35: 0x0C50 [0x23] WAIT_FOR_DIALOG_INTERACTION
 36: 0x0C51 [0x27] REQ_SET(priority=0x10, entity_id=LocalPlayer, tag_num=0x0B)
 37: 0x0C58 [0x1C] WAIT(120* ticks)
 38: 0x0C5B [0x27] REQ_SET(priority=0x10, entity_id=LocalPlayer, tag_num=0x0C)
 39: 0x0C62 [0x6E] Aladoverre (ID: 17666755/0x010D92C3) uses emote 7*
 40: 0x0C69 [0x99] Wait for Aladoverre (ID: 17666755/0x010D92C3) animation to complete
 41: 0x0C6E [0x2B] Aladoverre (ID: 17666755/0x010D92C3) [8335*]:
    → "<Player>? I'll remember that. ...Actually, it's quite likely that I will not."
 42: 0x0C75 [0x23] WAIT_FOR_DIALOG_INTERACTION
 43: 0x0C76 [0x2B] Aladoverre (ID: 17666755/0x010D92C3) [8336*]:
    → "'Tis entirely possible that I'm repeating myself, but I need you to find some linkshells for me."
 44: 0x0C7D [0x23] WAIT_FOR_DIALOG_INTERACTION
 45: 0x0C7E [0x2B] Aladoverre (ID: 17666755/0x010D92C3) [8337*]:
    → "Three should do...or thereabouts? I find it difficult to make decisions, you see. Why don't I just leave the details to you?"
 46: 0x0C85 [0x23] WAIT_FOR_DIALOG_INTERACTION
 47: 0x0C86 [0x21] END_EVENT
 48: 0x0C87 [0x00] END_REQSTACK()
```

#### Data or dead code:

```
# Dead code (unreachable instructions):
     0x0C3E [0x01] GOTO 0x0C41
```

### Event 1074

#### Metadata

| Field        | Value    |
|--------------|----------|
| Entrypoint   | 0x0C88   |
| Data Size    | 63 bytes |
| Instructions | 11       |

```
      00 01 02 03 04 05 06 07  08 09 0A 0B 0C 0D 0E 0F
      -- -- -- -- -- -- -- --  -- -- -- -- -- -- -- --
0C80:                          4A C3 92 0D 01 F0 FF FF          J.......
0C90: 7F 6F 76 C3 92 0D 01 66  08 80 C3 92 0D 01 C3 92  .ov....f........
0CA0: 0D 01 74 6C 6B 30 2B C3  92 0D 01 7E 80 23 2B C3  ..tlk0+....~.#+.
0CB0: 92 0D 01 7F 80 23 66 08  80 C3 92 0D 01 C3 92 0D  .....#f.........
0CC0: 01 74 6C 6B 31 21 00                              .tlk1!.         
```

#### Opcodes

```
  0: 0x0C88 [0x4A] Aladoverre (ID: 17666755/0x010D92C3) looks at LocalPlayer
  1: 0x0C91 [0x6F] WAIT_FRAME_DELAY: Yield until WaitTime reaches zero
  2: 0x0C92 [0x76] CHECK_ENTITY_RENDER_FLAGS: Wait until Aladoverre (ID: 17666755/0x010D92C3) Render.Flags0 and Render.Flags3 conditions are met
  3: 0x0C97 [0x66] LOAD_EXT_SCHEDULER_MAIN: Load scheduler "tlk0" with entities [Aladoverre (ID: 17666755/0x010D92C3), Aladoverre (ID: 17666755/0x010D92C3)], work=29*
  4: 0x0CA6 [0x2B] Aladoverre (ID: 17666755/0x010D92C3) [8338*]:
    → "The linkshells are out there somewhere. Where? Why, if I knew, I would have already retrieved them myself. Then again, I probably would have gotten lost on the way back here, so perhaps it's all for the better..."
  5: 0x0CAD [0x23] WAIT_FOR_DIALOG_INTERACTION
  6: 0x0CAE [0x2B] Aladoverre (ID: 17666755/0x010D92C3) [8339*]:
    → "Nevertheless, I'll be needing about three of them. Does that mean two, or four? No, it means three, of course! Forgive me, I'm not thinking very clearly today..."
  7: 0x0CB5 [0x23] WAIT_FOR_DIALOG_INTERACTION
  8: 0x0CB6 [0x66] LOAD_EXT_SCHEDULER_MAIN: Load scheduler "tlk1" with entities [Aladoverre (ID: 17666755/0x010D92C3), Aladoverre (ID: 17666755/0x010D92C3)], work=29*
  9: 0x0CC5 [0x21] END_EVENT
 10: 0x0CC6 [0x00] END_REQSTACK()
```

### Event 1075

#### Metadata

| Field        | Value   |
|--------------|---------|
| Entrypoint   | 0x0CC7  |
| Data Size    | 7 bytes |
| Instructions | 5       |

```
      00 01 02 03 04 05 06 07  08 09 0A 0B 0C 0D 0E 0F
      -- -- -- -- -- -- -- --  -- -- -- -- -- -- -- --
0CC0:                      42  48 80 80 23 21 00               BH..#!.  
```

#### Opcodes

```
  0: 0x0CC7 [0x42] SET_CLI_EVENT_CANCEL_DATA()
  1: 0x0CC8 [0x48] [System] [8340*]:
    → "An object on the ground glistens in the dim light..."
  2: 0x0CCB [0x23] WAIT_FOR_DIALOG_INTERACTION
  3: 0x0CCC [0x21] END_EVENT
  4: 0x0CCD [0x00] END_REQSTACK()
```

### Event 1076

#### Metadata

| Field        | Value   |
|--------------|---------|
| Entrypoint   | 0x0CCE  |
| Data Size    | 6 bytes |
| Instructions | 4       |

```
      00 01 02 03 04 05 06 07  08 09 0A 0B 0C 0D 0E 0F
      -- -- -- -- -- -- -- --  -- -- -- -- -- -- -- --
0CC0:                                            48 81                H.
0CD0: 80 23 21 00                                       .#!.            
```

#### Opcodes

```
  0: 0x0CCE [0x48] [System] [6405*]:
    → "There is nothing out of the ordinary here."
  1: 0x0CD1 [0x23] WAIT_FOR_DIALOG_INTERACTION
  2: 0x0CD2 [0x21] END_EVENT
  3: 0x0CD3 [0x00] END_REQSTACK()
```

### Event 1077

#### Metadata

| Field        | Value     |
|--------------|-----------|
| Entrypoint   | 0x0CD4    |
| Data Size    | 102 bytes |
| Instructions | 20        |

```
      00 01 02 03 04 05 06 07  08 09 0A 0B 0C 0D 0E 0F
      -- -- -- -- -- -- -- --  -- -- -- -- -- -- -- --
0CD0:             42 4A C3 92  0D 01 F0 FF FF 7F 6F 76      BJ........ov
0CE0: C3 92 0D 01 2B C3 92 0D  01 82 80 23 6E C3 92 0D  ....+......#n...
0CF0: 01 0D 80 99 C3 92 0D 01  2B C3 92 0D 01 83 80 23  ........+......#
0D00: 66 16 80 C3 92 0D 01 C3  92 0D 01 70 61 73 30 2B  f..........pas0+
0D10: C3 92 0D 01 84 80 23 2B  C3 92 0D 01 85 80 23 2B  ......#+......#+
0D20: C3 92 0D 01 86 80 23 45  02 80 F0 FF FF 7F F0 FF  ......#E........
0D30: FF 7F 71 73 74 63 01 80  21 00                    ..qstc..!.      
```

#### Opcodes

```
  0: 0x0CD4 [0x42] SET_CLI_EVENT_CANCEL_DATA()
  1: 0x0CD5 [0x4A] Aladoverre (ID: 17666755/0x010D92C3) looks at LocalPlayer
  2: 0x0CDE [0x6F] WAIT_FRAME_DELAY: Yield until WaitTime reaches zero
  3: 0x0CDF [0x76] CHECK_ENTITY_RENDER_FLAGS: Wait until Aladoverre (ID: 17666755/0x010D92C3) Render.Flags0 and Render.Flags3 conditions are met
  4: 0x0CE4 [0x2B] Aladoverre (ID: 17666755/0x010D92C3) [8342*]:
    → "Welcome back! Who were you again? Oh, [milord/milady] So-and-So, the kind [fellow/miss] who was going to deliver to me some linkshells!"
  5: 0x0CEB [0x23] WAIT_FOR_DIALOG_INTERACTION
  6: 0x0CEC [0x6E] Aladoverre (ID: 17666755/0x010D92C3) uses emote 7*
  7: 0x0CF3 [0x99] Wait for Aladoverre (ID: 17666755/0x010D92C3) animation to complete
  8: 0x0CF8 [0x2B] Aladoverre (ID: 17666755/0x010D92C3) [8343*]:
    → "One...two...tea... No, that's not right! One...two...three! Yes, perfect!"
  9: 0x0CFF [0x23] WAIT_FOR_DIALOG_INTERACTION
 10: 0x0D00 [0x66] LOAD_EXT_SCHEDULER_MAIN: Load scheduler "pas0" with entities [Aladoverre (ID: 17666755/0x010D92C3), Aladoverre (ID: 17666755/0x010D92C3)], work=91*
 11: 0x0D0F [0x2B] Aladoverre (ID: 17666755/0x010D92C3) [8344*]:
    → "I thank you for your kindness! Here is your reward. Thought I'd forget that too, did you? Tee hee."
 12: 0x0D16 [0x23] WAIT_FOR_DIALOG_INTERACTION
 13: 0x0D17 [0x2B] Aladoverre (ID: 17666755/0x010D92C3) [8345*]:
    → "These days, linkshells are vanishing from sight nigh as quickly as I forget my poor comrades' names!"
 14: 0x0D1E [0x23] WAIT_FOR_DIALOG_INTERACTION
 15: 0x0D1F [0x2B] Aladoverre (ID: 17666755/0x010D92C3) [8346*]:
    → "Pray take care that this affliction does not befall you as well, [Milord/Milady]...[Milord/Milady]... Ah, Goddess take this addled head of mine!"
 16: 0x0D26 [0x23] WAIT_FOR_DIALOG_INTERACTION
 17: 0x0D27 [0x45] LOAD_SCHEDULED_TASK: Load scheduler "qstc" with entities [LocalPlayer, LocalPlayer], work=[201*, 0*]
 18: 0x0D38 [0x21] END_EVENT
 19: 0x0D39 [0x00] END_REQSTACK()
```

### Event 1078

#### Metadata

| Field        | Value    |
|--------------|----------|
| Entrypoint   | 0x0D3A   |
| Data Size    | 71 bytes |
| Instructions | 13       |

```
      00 01 02 03 04 05 06 07  08 09 0A 0B 0C 0D 0E 0F
      -- -- -- -- -- -- -- --  -- -- -- -- -- -- -- --
0D30:                                4A C3 92 0D 01 F0            J.....
0D40: FF FF 7F 6F 76 C3 92 0D  01 66 08 80 C3 92 0D 01  ...ov....f......
0D50: C3 92 0D 01 74 6C 6B 30  2B C3 92 0D 01 87 80 23  ....tlk0+......#
0D60: 2B C3 92 0D 01 85 80 23  2B C3 92 0D 01 86 80 23  +......#+......#
0D70: 66 08 80 C3 92 0D 01 C3  92 0D 01 74 6C 6B 31 21  f..........tlk1!
0D80: 00                                                .               
```

#### Opcodes

```
  0: 0x0D3A [0x4A] Aladoverre (ID: 17666755/0x010D92C3) looks at LocalPlayer
  1: 0x0D43 [0x6F] WAIT_FRAME_DELAY: Yield until WaitTime reaches zero
  2: 0x0D44 [0x76] CHECK_ENTITY_RENDER_FLAGS: Wait until Aladoverre (ID: 17666755/0x010D92C3) Render.Flags0 and Render.Flags3 conditions are met
  3: 0x0D49 [0x66] LOAD_EXT_SCHEDULER_MAIN: Load scheduler "tlk0" with entities [Aladoverre (ID: 17666755/0x010D92C3), Aladoverre (ID: 17666755/0x010D92C3)], work=29*
  4: 0x0D58 [0x2B] Aladoverre (ID: 17666755/0x010D92C3) [8347*]:
    → "With me watching over them, these linkshells are hardly safe. Pray lend me your aid again when I inevitably lose them."
  5: 0x0D5F [0x23] WAIT_FOR_DIALOG_INTERACTION
  6: 0x0D60 [0x2B] Aladoverre (ID: 17666755/0x010D92C3) [8345*]:
    → "These days, linkshells are vanishing from sight nigh as quickly as I forget my poor comrades' names!"
  7: 0x0D67 [0x23] WAIT_FOR_DIALOG_INTERACTION
  8: 0x0D68 [0x2B] Aladoverre (ID: 17666755/0x010D92C3) [8346*]:
    → "Pray take care that this affliction does not befall you as well, [Milord/Milady]...[Milord/Milady]... Ah, Goddess take this addled head of mine!"
  9: 0x0D6F [0x23] WAIT_FOR_DIALOG_INTERACTION
 10: 0x0D70 [0x66] LOAD_EXT_SCHEDULER_MAIN: Load scheduler "tlk1" with entities [Aladoverre (ID: 17666755/0x010D92C3), Aladoverre (ID: 17666755/0x010D92C3)], work=29*
 11: 0x0D7F [0x21] END_EVENT
 12: 0x0D80 [0x00] END_REQSTACK()
```

### Event 1079

#### Metadata

| Field        | Value     |
|--------------|-----------|
| Entrypoint   | 0x0D81    |
| Data Size    | 129 bytes |
| Instructions | 26        |

```
      00 01 02 03 04 05 06 07  08 09 0A 0B 0C 0D 0E 0F
      -- -- -- -- -- -- -- --  -- -- -- -- -- -- -- --
0D80:    42 4A C3 92 0D 01 F0  FF FF 7F 6F 76 C3 92 0D   BJ........ov...
0D90: 01 66 08 80 C3 92 0D 01  C3 92 0D 01 74 6C 6B 30  .f..........tlk0
0DA0: 2B C3 92 0D 01 88 80 23  2B C3 92 0D 01 89 80 23  +......#+......#
0DB0: 2B C3 92 0D 01 8A 80 23  66 08 80 C3 92 0D 01 C3  +......#f.......
0DC0: 92 0D 01 74 6C 6B 31 24  76 80 01 80 01 80 25 02  ...tlk1$v.....%.
0DD0: 00 10 01 80 00 E2 0D 2B  C3 92 0D 01 8B 80 23 01  .......+......#.
0DE0: F8 0D 02 00 10 03 80 00  F8 0D 2B C3 92 0D 01 78  ..........+....x
0DF0: 80 23 01 C7 0D 01 F8 0D  2B C3 92 0D 01 8C 80 23  .#......+......#
0E00: 21 00                                             !.              
```

#### Opcodes

```
  0: 0x0D81 [0x42] SET_CLI_EVENT_CANCEL_DATA()
  1: 0x0D82 [0x4A] Aladoverre (ID: 17666755/0x010D92C3) looks at LocalPlayer
  2: 0x0D8B [0x6F] WAIT_FRAME_DELAY: Yield until WaitTime reaches zero
  3: 0x0D8C [0x76] CHECK_ENTITY_RENDER_FLAGS: Wait until Aladoverre (ID: 17666755/0x010D92C3) Render.Flags0 and Render.Flags3 conditions are met
  4: 0x0D91 [0x66] LOAD_EXT_SCHEDULER_MAIN: Load scheduler "tlk0" with entities [Aladoverre (ID: 17666755/0x010D92C3), Aladoverre (ID: 17666755/0x010D92C3)], work=29*
  5: 0x0DA0 [0x2B] Aladoverre (ID: 17666755/0x010D92C3) [8348*]:
    → "Wait! That face! You are somehow familiar to me..."
  6: 0x0DA7 [0x23] WAIT_FOR_DIALOG_INTERACTION
  7: 0x0DA8 [0x2B] Aladoverre (ID: 17666755/0x010D92C3) [8349*]:
    → "Bah, 'tis no use! I cannot recall. Perhaps you could be of assistance to me."
  8: 0x0DAF [0x23] WAIT_FOR_DIALOG_INTERACTION
  9: 0x0DB0 [0x2B] Aladoverre (ID: 17666755/0x010D92C3) [8350*]:
    → "This simple, not-dangerous-in-the-least mission involves retrieving a couple of linkshells. What do you say?"
 10: 0x0DB7 [0x23] WAIT_FOR_DIALOG_INTERACTION
