# 17666636 - Sturdy Pyxis

## Common Data

| Field            | Value                       |
|------------------|-----------------------------|
| Zone             | Abyssea - Vunkerl (ID: 217) |
| Block Size       | 6976 bytes                  |
| Total Events     | 3                           |
| References Count | 89                          |

## List of Events

| Event ID              | Entrypoint   |   Size |   Instructions |
|-----------------------|--------------|--------|----------------|
| [65535](#event-65535) | 0x0000       |      1 |              1 |
| [2024](#event-2024)   | 0x0001       |   3918 |            816 |
| [2088](#event-2088)   | 0x0F4F       |   2670 |            505 |

## DAT References (imed_data)

|   Index | Hex Value   |   Dec Value |
|---------|-------------|-------------|
|       0 | 0x0000      |           0 |
|       1 | 0x0007      |           7 |
|       2 | 0x0008      |           8 |
|       3 | 0x000F      |          15 |
|       4 | 0x0010      |          16 |
|       5 | 0x0017      |          23 |
|       6 | 0x0018      |          24 |
|       7 | 0x001F      |          31 |
|       8 | 0x0001      |           1 |
|       9 | 0x0002      |           2 |
|      10 | 0x0003      |           3 |
|      11 | 0x006F      |         111 |
|      12 | 0x2A30      |       10800 |
|      13 | 0x003C      |          60 |
|      14 | 0x1D47      |        7495 |
|      15 | 0x1D69      |        7529 |
|      16 | 0x1D7B      |        7547 |
|      17 | 0x1D7C      |        7548 |
|      18 | 0x40000000  |  1073741824 |
|      19 | 0x1D80      |        7552 |
|      20 | 0x1D81      |        7553 |
|      21 | 0x0004      |           4 |
|      22 | 0x0005      |           5 |
|      23 | 0x0006      |           6 |
|      24 | 0x1D84      |        7556 |
|      25 | 0x1D85      |        7557 |
|      26 | 0x1D86      |        7558 |
|      27 | 0x1D7A      |        7546 |
|      28 | 0x1D7F      |        7551 |
|      29 | 0x1D83      |        7555 |
|      30 | 0x1D71      |        7537 |
|      31 | 0x1D72      |        7538 |
|      32 | 0x1D73      |        7539 |
|      33 | 0x0009      |           9 |
|      34 | 0x000A      |          10 |
|      35 | 0x000B      |          11 |
|      36 | 0x000D      |          13 |
|      37 | 0x000E      |          14 |
|      38 | 0x0011      |          17 |
|      39 | 0x0012      |          18 |
|      40 | 0x1D74      |        7540 |
|      41 | 0x0013      |          19 |
|      42 | 0x0014      |          20 |
|      43 | 0x0015      |          21 |
|      44 | 0x1D75      |        7541 |
|      45 | 0x0016      |          22 |
|      46 | 0x1D76      |        7542 |
|      47 | 0x1D77      |        7543 |
|      48 | 0x0019      |          25 |
|      49 | 0x001A      |          26 |
|      50 | 0x001B      |          27 |
|      51 | 0x001C      |          28 |
|      52 | 0x001D      |          29 |
|      53 | 0x001E      |          30 |
|      54 | 0x0020      |          32 |
|      55 | 0x0021      |          33 |
|      56 | 0x0022      |          34 |
|      57 | 0x0023      |          35 |
|      58 | 0x0024      |          36 |
|      59 | 0x0025      |          37 |
|      60 | 0x0026      |          38 |
|      61 | 0x0027      |          39 |
|      62 | 0x0028      |          40 |
|      63 | 0x0029      |          41 |
|      64 | 0x002A      |          42 |
|      65 | 0x002B      |          43 |
|      66 | 0x002C      |          44 |
|      67 | 0x002D      |          45 |
|      68 | 0x1D70      |        7536 |
|      69 | 0xFFFFFFFF  |  4294967295 |
|      70 | 0x1D6A      |        7530 |
|      71 | 0x1D78      |        7544 |
|      72 | 0x1D6B      |        7531 |
|      73 | 0x1D79      |        7545 |
|      74 | 0x1D6C      |        7532 |
|      75 | 0x1D6D      |        7533 |
|      76 | 0x1D6E      |        7534 |
|      77 | 0x1D6F      |        7535 |
|      78 | 0x1D67      |        7527 |
|      79 | 0x03E7      |         999 |
|      80 | 0x1D48      |        7496 |
|      81 | 0x1D4E      |        7502 |
|      82 | 0x1D4B      |        7499 |
|      83 | 0x1D49      |        7497 |
|      84 | 0x5F5E0FF   |    99999999 |
|      85 | 0x1D4F      |        7503 |
|      86 | 0x1D4C      |        7500 |
|      87 | 0x1D4A      |        7498 |
|      88 | 0x1D4D      |        7501 |

## String References

- **7495**: The treasure chest will disappear in $0 [second/seconds].
- **7496**: Which temporary item will you obtain? [None of them./$0./$1./$2./$3./$4./$5./$6./$7./Destroy treasure chest.]
- **7497**: Which item will you obtain? [None of them./$0./$1./$2./$3./$4./$5./$6./$7./Add to lottable spoils./Destroy treasure chest.]
- **7498**: Which key item will you obtain? [None of them./6./$6./$6./$6./$6./$6./$6./$6./Destroy treasure chest.]
- **7499**: Obtain the $0? [Yes./No.]
- **7500**: Obtain the $0? [Yes./No.]
- **7501**: Obtain the $3? [Yes./No.]
- **7502**: Obtain this temporary item?
- **7503**: Obtain this item?
- **7527**: The chest will be lost. Proceed? [Yes, destroy./No, cancel.]
- **7529**: What will you do? [Attempt to unlock it./Examine lock./Peer between the crack./Leave it be./Destroy the chest.]
- **7530**: Examine which temporary item? [None of them./$0./$1./$2./$3./$4./$5./$6./$7.]
- **7531**: Examine which item? [None of them./$0./$1./$2./$3./$4./$5./$6./$7.]
- **7532**: Key item: 3.
- **7533**: Key item: 3. Key item: $3.
- **7534**: Key item: 3. Key item: $3. Key item: $3.
- **7535**: Key item: 3. Key item: $3. Key item: $3. Key item: $3.
- **7536**: [Temporary items/Items/Powerful items/Key items] appear to be inside the treasure chest.
- **7537**: The chest is aglow from within with [a feeble/a faint/a mild/a strong/an intense] soothing light.
- **7538**: [A minuscule/A small/A moderate/A considerable/A princely] amount of cruor appears to be inside the treasure chest.
- **7539**: The chest appears empty, but you sense that you serve to gain [a tiny bit of/a little/some/considerable/tremendous] experience by opening it.
- **7540**: The treasure chest appears to be laden with numerous temporary items.
- **7541**: The treasure chest appears to contain a strangely familiar stone fragment.
- **7542**: The chest is aglow from within with [a faint/a mild/a strong] [pearlescent/golden/silvery/ebon] light.
- **7543**: The chest is aglow from within with [a faint/a mild/a strong/an intense] [azure/ruby/amber] light.
- **7544**: Temporary item confirmed.
- **7545**: Item confirmed.
- **7546**: This treasure chest has been fitted with a unique combination lock that randomly generates numbers from 1\`99. Opening it requires you to guess whether the next number is greater or less than the previous.
- **7547**: Unlocking this treasure chest requires $0 correct [guess/guesses]. It will disappear after $2 failed [attempt/attempts]. Current progress: $1 correct [guess/guesses].
- **7548**: Previous: $0 (Success: $1 / Failure: $2) [Do nothing./Twist number dial up./Twist number dial down.]
- **7551**: This treasure chest has been fitted with an unusual pneumatic lock. Opening it requires you to adjust air pressure to fall within a predetermined range. Please note, however, that wear and tear may prevent the adjustment mechanism from functioning as intended.
- **7552**: Unlocking this treasure chest requires you to adjust air pressure to fall within $0\`$1. The allotted number of attempts is $3. [The mechanism appears to be in good nick/The sound of air escaping is faintly audible/The mechanism's adjuster lever rattles fitfully/The mechanism is silent to the point of eeriness]. Current air pressure: $2
- **7553**: Pressure: $0 / Target: $1$2109216Tries left: $3 [Do nothing./Pull lever down one notch./Pull lever down two notches./Pull lever down three notches. /Push lever up one notch./Push lever up two notches./Push lever up three notches.]
- **7555**: Unlocking this treasure chest requires you to input the correct two-digit combination within the allotted number of attempts.
- **7556**: You have a hunch that the lock's combination is between $0\`$1. The allotted number of attempts is $2.
- **7557**: Attempts remaining: $0 [Do nothing./Input combination.]
- **7558**: Please input a two-digit combination between $0\`$1.

## Events

### Event 65535

#### Metadata

| Field        | Value   |
|--------------|---------|
| Entrypoint   | 0x0000  |
| Data Size    | 1 bytes |
| Instructions | 1       |

```
      00 01 02 03 04 05 06 07  08 09 0A 0B 0C 0D 0E 0F
      -- -- -- -- -- -- -- --  -- -- -- -- -- -- -- --
0000: 00                                                .               
```

#### Opcodes

```
  0: 0x0000 [0x00] END_REQSTACK()
```

### Event 2024

#### Metadata

| Field        | Value      |
|--------------|------------|
| Entrypoint   | 0x0001     |
| Data Size    | 3918 bytes |
| Instructions | 816        |

```
      00 01 02 03 04 05 06 07  08 09 0A 0B 0C 0D 0E 0F
      -- -- -- -- -- -- -- --  -- -- -- -- -- -- -- --
0000:    20 01 03 00 00 00 80  03 01 00 00 80 03 02 00    ..............
0010: 00 80 03 03 00 00 80 03  06 00 00 80 03 07 00 00  ................
0020: 80 03 08 00 00 80 03 09  00 00 80 03 0A 00 00 80  ................
0030: 03 0B 00 00 80 03 0C 00  00 80 03 0D 00 00 80 03  ................
0040: 0E 00 00 80 03 0F 00 00  80 03 10 00 00 80 03 11  ................
0050: 00 00 80 03 12 00 00 80  03 13 00 00 80 03 05 00  ................
0060: 00 80 03 04 00 00 80 03  19 00 00 80 03 1C 00 00  ................
0070: 80 03 1A 00 00 80 03 1B  00 00 80 41 00 80 01 80  ...........A....
0080: 02 10 00 00 41 02 80 03  80 02 10 01 00 41 04 80  ....A........A..
0090: 05 80 02 10 02 00 41 06  80 07 80 02 10 03 00 03  ......A.........
00A0: 04 00 09 10 02 00 00 08  80 80 CD 00 03 06 00 03  ................
00B0: 10 03 08 00 04 10 03 09  00 05 10 03 0A 00 06 10  ................
00C0: 03 0B 00 07 10 03 05 00  08 10 01 27 01 02 00 00  ...........'....
00D0: 09 80 80 03 01 03 06 00  03 10 41 00 80 03 80 04  ..........A.....
00E0: 10 07 00 41 04 80 07 80  04 10 08 00 03 09 00 05  ...A............
00F0: 10 03 0A 00 06 10 03 0B  00 07 10 03 05 00 08 10  ................
0100: 01 27 01 02 00 00 0A 80  80 27 01 03 06 00 03 10  .'.......'......
0110: 03 07 00 04 10 03 08 00  05 10 03 09 00 06 10 03  ................
0120: 05 00 07 10 01 27 01 03  01 10 0B 80 43 00 43 01  .....'......C.C.
0130: 03 0C 00 02 10 03 0D 00  03 10 03 0E 00 04 10 03  ................
0140: 0F 00 05 10 03 10 00 06  10 03 11 00 07 10 03 12  ................
0150: 00 08 10 03 13 00 09 10  03 1D 00 0C 80 08 1D 00  ................
0160: 04 00 15 1D 00 0D 80 02  1D 00 08 80 03 74 01 03  .............t..
0170: 1D 00 08 80 03 02 10 1D  00 48 0E 80 23 05 1A 00  .........H..#...
0180: 02 1A 00 00 80 02 4D 0F  24 0F 80 00 80 00 80 25  ......M.$......%
0190: 02 00 10 00 80 00 1E 04  03 02 10 00 80 03 03 10  ................
01A0: 00 80 03 04 10 00 80 03  05 10 00 80 03 06 10 00  ................
01B0: 80 03 07 10 00 80 03 08  10 00 80 03 09 10 00 80  ................
01C0: 02 00 00 08 80 80 48 02  03 02 10 09 00 03 03 10  ......H.........
01D0: 08 00 03 04 10 0B 00 48  10 80 23 03 02 10 06 00  .......H..#.....
01E0: 03 03 10 08 00 03 04 10  0A 00 24 11 80 00 80 00  ..........$.....
01F0: 80 25 02 00 10 00 80 00  05 02 03 01 10 12 80 06  .%..............
0200: 1A 00 01 45 02 02 00 10  08 80 00 25 02 40 00 80  ...E.......%.@..
0210: 03 80 01 10 08 80 40 04  80 07 80 01 10 05 00 06  ......@.........
0220: 1A 00 01 45 02 02 00 10  09 80 00 45 02 40 00 80  ...E.......E.@..
0230: 03 80 01 10 09 80 40 04  80 07 80 01 10 05 00 06  ......@.........
0240: 1A 00 01 45 02 01 1B 04  02 00 00 09 80 80 69 03  ...E..........i.
0250: 03 02 10 07 00 03 03 10  08 00 03 04 10 06 00 03  ................
0260: 05 10 0A 00 03 06 10 09  00 48 13 80 23 03 02 10  .........H..#...
0270: 06 00 03 03 10 07 00 03  04 10 08 00 03 1D 00 0A  ................
0280: 00 08 1D 00 0B 00 03 05  10 1D 00 24 14 80 00 80  ...........$....
0290: 00 80 25 02 00 10 00 80  00 A6 02 03 01 10 12 80  ..%.............
02A0: 06 1A 00 01 66 03 02 00  10 08 80 00 C6 02 40 00  ....f.........@.
02B0: 80 03 80 01 10 08 80 40  04 80 07 80 01 10 05 00  .......@........
02C0: 06 1A 00 01 66 03 02 00  10 09 80 00 E6 02 40 00  ....f.........@.
02D0: 80 03 80 01 10 09 80 40  04 80 07 80 01 10 05 00  .......@........
02E0: 06 1A 00 01 66 03 02 00  10 0A 80 00 06 03 40 00  ....f.........@.
02F0: 80 03 80 01 10 0A 80 40  04 80 07 80 01 10 05 00  .......@........
0300: 06 1A 00 01 66 03 02 00  10 15 80 00 26 03 40 00  ....f.......&.@.
0310: 80 03 80 01 10 15 80 40  04 80 07 80 01 10 05 00  .......@........
0320: 06 1A 00 01 66 03 02 00  10 16 80 00 46 03 40 00  ....f.......F.@.
0330: 80 03 80 01 10 16 80 40  04 80 07 80 01 10 05 00  .......@........
0340: 06 1A 00 01 66 03 02 00  10 17 80 00 66 03 40 00  ....f.......f.@.
0350: 80 03 80 01 10 17 80 40  04 80 07 80 01 10 05 00  .......@........
0360: 06 1A 00 01 66 03 01 1B  04 02 00 00 0A 80 80 1B  ....f...........
0370: 04 03 02 10 06 00 03 03  10 07 00 03 04 10 08 00  ................
0380: 48 18 80 23 03 1D 00 08  00 08 1D 00 09 00 03 02  H..#............
0390: 10 1D 00 24 19 80 00 80  00 80 25 02 00 10 00 80  ...$......%.....
03A0: 00 AE 03 03 01 10 12 80  06 1A 00 01 18 04 02 00  ................
03B0: 10 08 80 00 18 04 03 02  10 06 00 03 03 10 07 00  ................
03C0: 48 1A 80 23 71 12 08 80  09 80 71 13 1D 00 02 1D  H..#q.....q.....
03D0: 00 06 00 03 E7 03 03 02  10 06 00 03 03 10 07 00  ................
03E0: 48 1A 80 23 01 15 04 02  1D 00 07 00 02 00 04 03  H..#............
03F0: 02 10 06 00 03 03 10 07  00 48 1A 80 23 01 15 04  .........H..#...
0400: 40 00 80 03 80 01 10 1D  00 40 04 80 07 80 01 10  @........@......
0410: 05 00 06 1A 00 01 18 04  01 1B 04 01 4A 0F 02 00  ............J...
0420: 10 08 80 00 7E 04 03 02  10 00 80 03 03 10 00 80  ....~...........
0430: 03 04 10 00 80 03 05 10  00 80 03 06 10 00 80 03  ................
0440: 07 10 00 80 03 08 10 00  80 03 09 10 00 80 02 00  ................
0450: 00 08 80 80 5D 04 48 1B  80 23 01 7B 04 02 00 00  ....].H..#.{....
0460: 09 80 80 6C 04 48 1C 80  23 01 7B 04 02 00 00 0A  ...l.H..#.{.....
0470: 80 80 7B 04 48 1D 80 23  01 7B 04 01 4A 0F 02 00  ..{.H..#.{..J...
0480: 10 09 80 00 F9 0E 02 03  00 00 80 80 5B 08 03 02  ............[...
0490: 10 00 80 03 03 10 00 80  03 04 10 00 80 03 05 10  ................
04A0: 00 80 03 06 10 00 80 03  07 10 00 80 03 08 10 00  ................
04B0: 80 03 09 10 00 80 02 02  00 08 80 80 CA 04 03 02  ................
04C0: 10 00 80 48 1E 80 23 01  58 08 02 02 00 09 80 80  ...H..#.X.......
04D0: DE 04 03 02 10 00 80 48  1F 80 23 01 58 08 02 02  .......H..#.X...
04E0: 00 0A 80 80 F2 04 03 02  10 00 80 48 20 80 23 01  ...........H .#.
04F0: 58 08 02 02 00 16 80 80  06 05 03 02 10 08 80 48  X..............H
0500: 1E 80 23 01 58 08 02 02  00 17 80 80 1A 05 03 02  ..#.X...........
0510: 10 08 80 48 1F 80 23 01  58 08 02 02 00 01 80 80  ...H..#.X.......
0520: 2E 05 03 02 10 08 80 48  20 80 23 01 58 08 02 02  .......H .#.X...
0530: 00 21 80 80 42 05 03 02  10 09 80 48 1E 80 23 01  .!..B......H..#.
0540: 58 08 02 02 00 22 80 80  56 05 03 02 10 09 80 48  X...."..V......H
0550: 1F 80 23 01 58 08 02 02  00 23 80 80 6A 05 03 02  ..#.X....#..j...
0560: 10 09 80 48 20 80 23 01  58 08 02 02 00 24 80 80  ...H .#.X....$..
0570: 7E 05 03 02 10 0A 80 48  1E 80 23 01 58 08 02 02  ~......H..#.X...
0580: 00 25 80 80 92 05 03 02  10 0A 80 48 1F 80 23 01  .%.........H..#.
0590: 58 08 02 02 00 03 80 80  A6 05 03 02 10 0A 80 48  X..............H
05A0: 20 80 23 01 58 08 02 02  00 26 80 80 BA 05 03 02   .#.X....&......
05B0: 10 15 80 48 1E 80 23 01  58 08 02 02 00 27 80 80  ...H..#.X....'..
05C0: C9 05 48 28 80 23 01 58  08 02 02 00 29 80 80 DD  ..H(.#.X....)...
05D0: 05 03 02 10 15 80 48 1F  80 23 01 58 08 02 02 00  ......H..#.X....
05E0: 2A 80 80 F1 05 03 02 10  15 80 48 20 80 23 01 58  *.........H .#.X
05F0: 08 02 02 00 2B 80 80 00  06 48 2C 80 23 01 58 08  ....+....H,.#.X.
0600: 02 02 00 2D 80 80 19 06  03 02 10 00 80 03 03 10  ...-............
0610: 00 80 48 2E 80 23 01 58  08 02 02 00 05 80 80 32  ..H..#.X.......2
0620: 06 03 02 10 00 80 03 03  10 00 80 48 2F 80 23 01  ...........H/.#.
0630: 58 08 02 02 00 06 80 80  4B 06 03 02 10 00 80 03  X.......K.......
0640: 03 10 08 80 48 2F 80 23  01 58 08 02 02 00 30 80  ....H/.#.X....0.
0650: 80 64 06 03 02 10 00 80  03 03 10 09 80 48 2F 80  .d...........H/.
0660: 23 01 58 08 02 02 00 31  80 80 7D 06 03 02 10 08  #.X....1..}.....
0670: 80 03 03 10 00 80 48 2E  80 23 01 58 08 02 02 00  ......H..#.X....
0680: 32 80 80 96 06 03 02 10  08 80 03 03 10 00 80 48  2..............H
0690: 2F 80 23 01 58 08 02 02  00 33 80 80 AF 06 03 02  /.#.X....3......
06A0: 10 08 80 03 03 10 08 80  48 2F 80 23 01 58 08 02  ........H/.#.X..
06B0: 02 00 34 80 80 C8 06 03  02 10 08 80 03 03 10 09  ..4.............
06C0: 80 48 2F 80 23 01 58 08  02 02 00 35 80 80 E1 06  .H/.#.X....5....
06D0: 03 02 10 09 80 03 03 10  00 80 48 2E 80 23 01 58  ..........H..#.X
06E0: 08 02 02 00 07 80 80 FA  06 03 02 10 09 80 03 03  ................
06F0: 10 00 80 48 2F 80 23 01  58 08 02 02 00 36 80 80  ...H/.#.X....6..
0700: 13 07 03 02 10 09 80 03  03 10 08 80 48 2F 80 23  ............H/.#
0710: 01 58 08 02 02 00 37 80  80 2C 07 03 02 10 09 80  .X....7..,......
0720: 03 03 10 09 80 48 2F 80  23 01 58 08 02 02 00 38  .....H/.#.X....8
0730: 80 80 45 07 03 02 10 00  80 03 03 10 08 80 48 2E  ..E...........H.
0740: 80 23 01 58 08 02 02 00  39 80 80 5E 07 03 02 10  .#.X....9..^....
0750: 00 80 03 03 10 09 80 48  2E 80 23 01 58 08 02 02  .......H..#.X...
0760: 00 3A 80 80 77 07 03 02  10 00 80 03 03 10 0A 80  .:..w...........
0770: 48 2E 80 23 01 58 08 02  02 00 3B 80 80 90 07 03  H..#.X....;.....
0780: 02 10 0A 80 03 03 10 00  80 48 2F 80 23 01 58 08  .........H/.#.X.
0790: 02 02 00 3C 80 80 A9 07  03 02 10 0A 80 03 03 10  ...<............
07A0: 08 80 48 2F 80 23 01 58  08 02 02 00 3D 80 80 C2  ..H/.#.X....=...
07B0: 07 03 02 10 0A 80 03 03  10 09 80 48 2F 80 23 01  ...........H/.#.
07C0: 58 08 02 02 00 3E 80 80  DB 07 03 02 10 08 80 03  X....>..........
07D0: 03 10 08 80 48 2E 80 23  01 58 08 02 02 00 3F 80  ....H..#.X....?.
07E0: 80 F4 07 03 02 10 08 80  03 03 10 09 80 48 2E 80  .............H..
07F0: 23 01 58 08 02 02 00 40  80 80 0D 08 03 02 10 08  #.X....@........
0800: 80 03 03 10 0A 80 48 2E  80 23 01 58 08 02 02 00  ......H..#.X....
0810: 41 80 80 26 08 03 02 10  09 80 03 03 10 08 80 48  A..&...........H
0820: 2E 80 23 01 58 08 02 02  00 42 80 80 3F 08 03 02  ..#.X....B..?...
0830: 10 09 80 03 03 10 09 80  48 2E 80 23 01 58 08 02  ........H..#.X..
0840: 02 00 43 80 80 58 08 03  02 10 09 80 03 03 10 0A  ..C..X..........
0850: 80 48 2E 80 23 01 58 08  01 F6 0E 02 03 00 08 80  .H..#.X.........
0860: 80 38 0A 03 02 10 00 80  48 44 80 23 05 1B 00 02  .8......HD.#....
0870: 1B 00 00 80 02 35 0A 03  17 00 45 80 3D 17 00 00  .....5....E.=...
0880: 80 08 80 03 02 10 00 80  03 03 10 00 80 03 04 10  ................
0890: 00 80 03 05 10 00 80 03  06 10 00 80 03 07 10 00  ................
08A0: 80 03 08 10 00 80 03 09  10 00 80 02 0C 00 00 80  ................
08B0: 02 BF 08 3D 17 00 08 80  08 80 03 02 10 0C 00 02  ...=............
08C0: 0D 00 00 80 02 D3 08 3D  17 00 09 80 08 80 03 03  .......=........
08D0: 10 0D 00 02 0E 00 00 80  02 E7 08 3D 17 00 0A 80  ...........=....
08E0: 08 80 03 04 10 0E 00 02  0F 00 00 80 02 FB 08 3D  ...............=
08F0: 17 00 15 80 08 80 03 05  10 0F 00 02 10 00 00 80  ................
0900: 02 0F 09 3D 17 00 16 80  08 80 03 06 10 10 00 02  ...=............
0910: 11 00 00 80 02 23 09 3D  17 00 17 80 08 80 03 07  .....#.=........
0920: 10 11 00 02 12 00 00 80  02 37 09 3D 17 00 01 80  .........7.=....
0930: 08 80 03 08 10 12 00 02  13 00 00 80 02 4B 09 3D  .............K.=
0940: 17 00 02 80 08 80 03 09  10 13 00 03 19 00 00 80  ................
0950: 03 1C 00 00 80 24 46 80  00 80 17 00 25 02 00 10  .....$F.....%...
0960: 00 80 00 6B 09 06 1B 00  01 13 0A 02 00 10 08 80  ...k............
0970: 00 80 09 03 19 00 08 80  03 1C 00 0C 00 01 13 0A  ................
0980: 02 00 10 09 80 00 95 09  03 19 00 09 80 03 1C 00  ................
0990: 0D 00 01 13 0A 02 00 10  0A 80 00 AA 09 03 19 00  ................
09A0: 0A 80 03 1C 00 0E 00 01  13 0A 02 00 10 15 80 00  ................
09B0: BF 09 03 19 00 15 80 03  1C 00 0F 00 01 13 0A 02  ................
09C0: 00 10 16 80 00 D4 09 03  19 00 16 80 03 1C 00 10  ................
09D0: 00 01 13 0A 02 00 10 17  80 00 E9 09 03 19 00 17  ................
09E0: 80 03 1C 00 11 00 01 13  0A 02 00 10 01 80 00 FE  ................
09F0: 09 03 19 00 01 80 03 1C  00 12 00 01 13 0A 02 00  ................
0A00: 10 02 80 00 13 0A 03 19  00 02 80 03 1C 00 13 00  ................
0A10: 01 13 0A 02 19 00 00 80  02 32 0A 02 1C 00 00 80  .........2......
0A20: 02 32 0A 93 1C 00 03 02  10 1C 00 48 47 80 23 93  .2.........HG.#.
0A30: 00 80 01 6F 08 01 F6 0E  02 03 00 09 80 80 15 0C  ...o............
0A40: 03 02 10 08 80 48 44 80  23 05 1B 00 02 1B 00 00  .....HD.#.......
0A50: 80 02 12 0C 03 17 00 45  80 3D 17 00 00 80 08 80  .......E.=......
0A60: 03 02 10 00 80 03 03 10  00 80 03 04 10 00 80 03  ................
0A70: 05 10 00 80 03 06 10 00  80 03 07 10 00 80 03 08  ................
0A80: 10 00 80 03 09 10 00 80  02 0C 00 00 80 02 9C 0A  ................
0A90: 3D 17 00 08 80 08 80 03  02 10 0C 00 02 0D 00 00  =...............
0AA0: 80 02 B0 0A 3D 17 00 09  80 08 80 03 03 10 0D 00  ....=...........
0AB0: 02 0E 00 00 80 02 C4 0A  3D 17 00 0A 80 08 80 03  ........=.......
0AC0: 04 10 0E 00 02 0F 00 00  80 02 D8 0A 3D 17 00 15  ............=...
0AD0: 80 08 80 03 05 10 0F 00  02 10 00 00 80 02 EC 0A  ................
0AE0: 3D 17 00 16 80 08 80 03  06 10 10 00 02 11 00 00  =...............
0AF0: 80 02 00 0B 3D 17 00 17  80 08 80 03 07 10 11 00  ....=...........
0B00: 02 12 00 00 80 02 14 0B  3D 17 00 01 80 08 80 03  ........=.......
0B10: 08 10 12 00 02 13 00 00  80 02 28 0B 3D 17 00 02  ..........(.=...
0B20: 80 08 80 03 09 10 13 00  03 19 00 00 80 03 1C 00  ................
0B30: 00 80 24 48 80 00 80 17  00 25 02 00 10 00 80 00  ..$H.....%......
0B40: 48 0B 06 1B 00 01 F0 0B  02 00 10 08 80 00 5D 0B  H.............].
0B50: 03 19 00 08 80 03 1C 00  0C 00 01 F0 0B 02 00 10  ................
0B60: 09 80 00 72 0B 03 19 00  09 80 03 1C 00 0D 00 01  ...r............
0B70: F0 0B 02 00 10 0A 80 00  87 0B 03 19 00 0A 80 03  ................
0B80: 1C 00 0E 00 01 F0 0B 02  00 10 15 80 00 9C 0B 03  ................
0B90: 19 00 15 80 03 1C 00 0F  00 01 F0 0B 02 00 10 16  ................
0BA0: 80 00 B1 0B 03 19 00 16  80 03 1C 00 10 00 01 F0  ................
0BB0: 0B 02 00 10 17 80 00 C6  0B 03 19 00 17 80 03 1C  ................
0BC0: 00 11 00 01 F0 0B 02 00  10 01 80 00 DB 0B 03 19  ................
0BD0: 00 01 80 03 1C 00 12 00  01 F0 0B 02 00 10 02 80  ................
0BE0: 00 F0 0B 03 19 00 02 80  03 1C 00 13 00 01 F0 0B  ................
0BF0: 02 19 00 00 80 02 0F 0C  02 1C 00 00 80 02 0F 0C  ................
0C00: 93 1C 00 03 02 10 1C 00  48 49 80 23 93 00 80 01  ........HI.#....
0C10: 4C 0A 01 F6 0E 02 03 00  0A 80 80 21 0D 03 02 10  L..........!....
0C20: 09 80 48 44 80 23 05 1B  00 02 1B 00 00 80 02 1E  ..HD.#..........
0C30: 0D 03 17 00 45 80 3D 17  00 00 80 08 80 03 02 10  ....E.=.........
0C40: 00 80 03 03 10 00 80 03  04 10 00 80 03 05 10 00  ................
0C50: 80 03 06 10 00 80 03 07  10 00 80 03 08 10 00 80  ................
0C60: 03 09 10 00 80 02 0C 00  00 80 02 79 0C 3D 17 00  ...........y.=..
0C70: 08 80 08 80 03 02 10 0C  00 02 10 00 00 80 02 8D  ................
0C80: 0C 3D 17 00 09 80 08 80  03 03 10 10 00 03 19 00  .=..............
0C90: 00 80 03 1C 00 00 80 24  48 80 00 80 17 00 25 02  .......$H.....%.
0CA0: 00 10 00 80 00 AD 0C 06  1B 00 01 F5 0C 02 00 10  ................
0CB0: 08 80 00 D1 0C 03 19 00  08 80 03 1C 00 0C 00 03  ................
0CC0: 14 00 0D 00 03 15 00 0E  00 03 16 00 0F 00 01 F5  ................
0CD0: 0C 02 00 10 09 80 00 F5  0C 03 19 00 09 80 03 1C  ................
0CE0: 00 10 00 03 14 00 11 00  03 15 00 12 00 03 16 00  ................
0CF0: 13 00 01 F5 0C 02 19 00  00 80 02 1B 0D 02 1C 00  ................
0D00: 00 80 02 1B 0D CC 01 1C  00 14 00 15 00 16 00 03  ................
0D10: 02 10 1C 00 48 49 80 23  93 00 80 01 29 0C 01 F6  ....HI.#....)...
0D20: 0E 02 03 00 15 80 80 F6  0E 03 02 10 0A 80 48 44  ..............HD
0D30: 80 23 03 02 10 00 80 03  03 10 00 80 03 04 10 00  .#..............
0D40: 80 03 05 10 00 80 03 06  10 00 80 03 07 10 00 80  ................
0D50: 03 08 10 00 80 03 09 10  00 80 03 1D 00 00 80 02  ................
0D60: 0C 00 00 80 02 6A 0D 0B  1D 00 02 0D 00 00 80 02  .....j..........
0D70: 75 0D 0B 1D 00 02 0E 00  00 80 02 80 0D 0B 1D 00  u...............
0D80: 02 0F 00 00 80 02 8B 0D  0B 1D 00 02 10 00 00 80  ................
0D90: 02 96 0D 0B 1D 00 02 11  00 00 80 02 A1 0D 0B 1D  ................
0DA0: 00 02 12 00 00 80 02 AC  0D 0B 1D 00 02 13 00 00  ................
0DB0: 80 02 B7 0D 0B 1D 00 02  1D 00 08 80 80 CB 0D 03  ................
0DC0: 02 10 0C 00 48 4A 80 23  01 F3 0E 02 1D 00 09 80  ....HJ.#........
0DD0: 80 E4 0D 03 02 10 0C 00  03 03 10 0D 00 48 4B 80  .............HK.
0DE0: 23 01 F3 0E 02 1D 00 0A  80 80 02 0E 03 02 10 0C  #...............
0DF0: 00 03 03 10 0D 00 03 04  10 0E 00 48 4C 80 23 01  ...........HL.#.
0E00: F3 0E 02 1D 00 15 80 80  25 0E 03 02 10 0C 00 03  ........%.......
0E10: 03 10 0D 00 03 04 10 0E  00 03 05 10 0F 00 48 4D  ..............HM
0E20: 80 23 01 F3 0E 02 1D 00  16 80 80 51 0E 03 02 10  .#.........Q....
0E30: 0C 00 03 03 10 0D 00 03  04 10 0E 00 03 05 10 0F  ................
0E40: 00 48 4D 80 23 03 02 10  10 00 48 4A 80 23 01 F3  .HM.#.....HJ.#..
0E50: 0E 02 1D 00 17 80 80 82  0E 03 02 10 0C 00 03 03  ................
0E60: 10 0D 00 03 04 10 0E 00  03 05 10 0F 00 48 4D 80  .............HM.
0E70: 23 03 02 10 10 00 03 03  10 11 00 48 4B 80 23 01  #..........HK.#.
0E80: F3 0E 02 1D 00 01 80 80  B8 0E 03 02 10 0C 00 03  ................
0E90: 03 10 0D 00 03 04 10 0E  00 03 05 10 0F 00 48 4D  ..............HM
0EA0: 80 23 03 02 10 10 00 03  03 10 11 00 03 04 10 12  .#..............
0EB0: 00 48 4C 80 23 01 F3 0E  02 1D 00 02 80 80 F3 0E  .HL.#...........
0EC0: 03 02 10 0C 00 03 03 10  0D 00 03 04 10 0E 00 03  ................
0ED0: 05 10 0F 00 48 4D 80 23  03 02 10 10 00 03 03 10  ....HM.#........
0EE0: 11 00 03 04 10 12 00 03  05 10 13 00 48 4D 80 23  ............HM.#
0EF0: 01 F3 0E 01 F6 0E 01 4A  0F 02 00 10 0A 80 00 0C  .......J........
0F00: 0F 03 01 10 12 80 06 1A  00 01 4A 0F 02 00 10 15  ..........J.....
0F10: 80 00 4A 0F 24 4E 80 08  80 00 80 25 02 00 10 00  ..J.$N.....%....
0F20: 80 00 3C 0F 40 00 80 03  80 01 10 4F 80 40 04 80  ..<.@......O.@..
0F30: 07 80 01 10 00 80 06 1A  00 01 47 0F 02 00 10 08  ..........G.....
0F40: 80 00 47 0F 01 47 0F 01  4A 0F 01 80 01 21 00     ..G..G..J....!. 
```

#### Opcodes

```
  0: 0x0001 [0x20] SET_CLI_EVENT_UC_FLAG: Lock player control
  1: 0x0003 [0x03] ExtData[1]->WorkLocal[0] = 0*
  2: 0x0008 [0x03] ExtData[1]->WorkLocal[1] = 0*
  3: 0x000D [0x03] ExtData[1]->WorkLocal[2] = 0*
  4: 0x0012 [0x03] ExtData[1]->WorkLocal[3] = 0*
  5: 0x0017 [0x03] ExtData[1]->WorkLocal[6] = 0*
  6: 0x001C [0x03] ExtData[1]->WorkLocal[7] = 0*
  7: 0x0021 [0x03] ExtData[1]->WorkLocal[8] = 0*
  8: 0x0026 [0x03] ExtData[1]->WorkLocal[9] = 0*
  9: 0x002B [0x03] ExtData[1]->WorkLocal[10] = 0*
 10: 0x0030 [0x03] ExtData[1]->WorkLocal[11] = 0*
 11: 0x0035 [0x03] ExtData[1]->WorkLocal[12] = 0*
 12: 0x003A [0x03] ExtData[1]->WorkLocal[13] = 0*
 13: 0x003F [0x03] ExtData[1]->WorkLocal[14] = 0*
 14: 0x0044 [0x03] ExtData[1]->WorkLocal[15] = 0*
 15: 0x0049 [0x03] ExtData[1]->WorkLocal[16] = 0*
 16: 0x004E [0x03] ExtData[1]->WorkLocal[17] = 0*
 17: 0x0053 [0x03] ExtData[1]->WorkLocal[18] = 0*
 18: 0x0058 [0x03] ExtData[1]->WorkLocal[19] = 0*
 19: 0x005D [0x03] ExtData[1]->WorkLocal[5] = 0*
 20: 0x0062 [0x03] ExtData[1]->WorkLocal[4] = 0*
 21: 0x0067 [0x03] ExtData[1]->WorkLocal[25] = 0*
 22: 0x006C [0x03] ExtData[1]->WorkLocal[28] = 0*
 23: 0x0071 [0x03] ExtData[1]->WorkLocal[26] = 0*
 24: 0x0076 [0x03] ExtData[1]->WorkLocal[27] = 0*
 25: 0x007B [0x41] ExtData[1]->WorkLocal[0] = Work_Zone[2] (bits 0*-7*)
 26: 0x0084 [0x41] ExtData[1]->WorkLocal[1] = Work_Zone[2] (bits 8*-15*)
 27: 0x008D [0x41] ExtData[1]->WorkLocal[2] = Work_Zone[2] (bits 16*-23*)
 28: 0x0096 [0x41] ExtData[1]->WorkLocal[3] = Work_Zone[2] (bits 24*-31*)
 29: 0x009F [0x03] ExtData[1]->WorkLocal[4] = Work_Zone[9]
 30: 0x00A4 [0x02] IF !(ExtData[1]->WorkLocal[0] == 1*) GOTO 0x00CD
 31: 0x00AC [0x03] ExtData[1]->WorkLocal[6] = Work_Zone[3]
 32: 0x00B1 [0x03] ExtData[1]->WorkLocal[8] = Work_Zone[4]
 33: 0x00B6 [0x03] ExtData[1]->WorkLocal[9] = Work_Zone[5]
 34: 0x00BB [0x03] ExtData[1]->WorkLocal[10] = Work_Zone[6]
 35: 0x00C0 [0x03] ExtData[1]->WorkLocal[11] = Work_Zone[7]
 36: 0x00C5 [0x03] ExtData[1]->WorkLocal[5] = Work_Zone[8]
 37: 0x00CA [0x01] GOTO 0x0127
 38: 0x00CD [0x02] IF !(ExtData[1]->WorkLocal[0] == 2*) GOTO 0x0103
 39: 0x00D5 [0x03] ExtData[1]->WorkLocal[6] = Work_Zone[3]
 40: 0x00DA [0x41] ExtData[1]->WorkLocal[7] = Work_Zone[4] (bits 0*-15*)
 41: 0x00E3 [0x41] ExtData[1]->WorkLocal[8] = Work_Zone[4] (bits 16*-31*)
 42: 0x00EC [0x03] ExtData[1]->WorkLocal[9] = Work_Zone[5]
 43: 0x00F1 [0x03] ExtData[1]->WorkLocal[10] = Work_Zone[6]
 44: 0x00F6 [0x03] ExtData[1]->WorkLocal[11] = Work_Zone[7]
 45: 0x00FB [0x03] ExtData[1]->WorkLocal[5] = Work_Zone[8]
 46: 0x0100 [0x01] GOTO 0x0127
 47: 0x0103 [0x02] IF !(ExtData[1]->WorkLocal[0] == 3*) GOTO 0x0127
 48: 0x010B [0x03] ExtData[1]->WorkLocal[6] = Work_Zone[3]
 49: 0x0110 [0x03] ExtData[1]->WorkLocal[7] = Work_Zone[4]
 50: 0x0115 [0x03] ExtData[1]->WorkLocal[8] = Work_Zone[5]
 51: 0x011A [0x03] ExtData[1]->WorkLocal[9] = Work_Zone[6]
 52: 0x011F [0x03] ExtData[1]->WorkLocal[5] = Work_Zone[7]
 53: 0x0124 [0x01] GOTO 0x0127

SUBROUTINE_0127:
 54: 0x0127 [0x03] Work_Zone[1] = 111*
 55: 0x012C [0x43] SEND_EVENT_UPDATE: Send pending tag to server (packet 0x005B)
 56: 0x012E [0x43] SEND_EVENT_UPDATE: Check pending flag (skip if not pending)
 57: 0x0130 [0x03] ExtData[1]->WorkLocal[12] = Work_Zone[2]
 58: 0x0135 [0x03] ExtData[1]->WorkLocal[13] = Work_Zone[3]
 59: 0x013A [0x03] ExtData[1]->WorkLocal[14] = Work_Zone[4]
 60: 0x013F [0x03] ExtData[1]->WorkLocal[15] = Work_Zone[5]
 61: 0x0144 [0x03] ExtData[1]->WorkLocal[16] = Work_Zone[6]
 62: 0x0149 [0x03] ExtData[1]->WorkLocal[17] = Work_Zone[7]
 63: 0x014E [0x03] ExtData[1]->WorkLocal[18] = Work_Zone[8]
 64: 0x0153 [0x03] ExtData[1]->WorkLocal[19] = Work_Zone[9]
 65: 0x0158 [0x03] ExtData[1]->WorkLocal[29] = 10800*
 66: 0x015D [0x08] ExtData[1]->WorkLocal[29] -= ExtData[1]->WorkLocal[4]
 67: 0x0162 [0x15] ExtData[1]->WorkLocal[29] /= 60*
 68: 0x0167 [0x02] IF !(ExtData[1]->WorkLocal[29] >= 1*) GOTO 0x0174
 69: 0x016F [0x03] ExtData[1]->WorkLocal[29] = 1*
 70: 0x0174 [0x03] Work_Zone[2] = ExtData[1]->WorkLocal[29]
 71: 0x0179 [0x48] [System] [7495*]:
    → "The treasure chest will disappear in $0 [second/seconds]."
 72: 0x017C [0x23] WAIT_FOR_DIALOG_INTERACTION
 73: 0x017D [0x05] ExtData[1]->WorkLocal[26] = 1

SUBROUTINE_0180:
 74: 0x0180 [0x02] IF !(ExtData[1]->WorkLocal[26] <= 0*) GOTO 0x0F4D
 75: 0x0188 [0x24] CREATE_DIALOG(message_id=7529*, default_option=0*, option_flags=0*)
    → "What will you do? [Attempt to unlock it./Examine lock./Peer between the crack./Leave it be./Destroy the chest.]"
 76: 0x018F [0x25] WAIT_DIALOG_SELECT()
 77: 0x0190 [0x02] IF !(Work_Zone[0] == 0*) GOTO 0x041E
 78: 0x0198 [0x03] Work_Zone[2] = 0*
 79: 0x019D [0x03] Work_Zone[3] = 0*
 80: 0x01A2 [0x03] Work_Zone[4] = 0*
 81: 0x01A7 [0x03] Work_Zone[5] = 0*
 82: 0x01AC [0x03] Work_Zone[6] = 0*
 83: 0x01B1 [0x03] Work_Zone[7] = 0*
 84: 0x01B6 [0x03] Work_Zone[8] = 0*
 85: 0x01BB [0x03] Work_Zone[9] = 0*
 86: 0x01C0 [0x02] IF !(ExtData[1]->WorkLocal[0] == 1*) GOTO 0x0248
 87: 0x01C8 [0x03] Work_Zone[2] = ExtData[1]->WorkLocal[9]
 88: 0x01CD [0x03] Work_Zone[3] = ExtData[1]->WorkLocal[8]
 89: 0x01D2 [0x03] Work_Zone[4] = ExtData[1]->WorkLocal[11]
 90: 0x01D7 [0x48] [System] [7547*]:
    → "Unlocking this treasure chest requires $0 correct [guess/guesses]. It will disappear after $2 failed [attempt/attempts]. Current progress: $1 correct [guess/guesses]."
 91: 0x01DA [0x23] WAIT_FOR_DIALOG_INTERACTION
 92: 0x01DB [0x03] Work_Zone[2] = ExtData[1]->WorkLocal[6]
 93: 0x01E0 [0x03] Work_Zone[3] = ExtData[1]->WorkLocal[8]
 94: 0x01E5 [0x03] Work_Zone[4] = ExtData[1]->WorkLocal[10]
 95: 0x01EA [0x24] CREATE_DIALOG(message_id=7548*, default_option=0*, option_flags=0*)
    → "Previous: $0 (Success: $1 / Failure: $2) [Do nothing./Twist number dial up./Twist number dial down.]"
 96: 0x01F1 [0x25] WAIT_DIALOG_SELECT()
 97: 0x01F2 [0x02] IF !(Work_Zone[0] == 0*) GOTO 0x0205
 98: 0x01FA [0x03] Work_Zone[1] = 1073741824*
 99: 0x01FF [0x06] ExtData[1]->WorkLocal[26] = 0
100: 0x0202 [0x01] GOTO 0x0245
101: 0x0205 [0x02] IF !(Work_Zone[0] == 1*) GOTO 0x0225
102: 0x020D [0x40] SET_BIT_WORK_RANGE(start_bit=0*, end_bit=15*, target=Work_Zone[1], source=1*)
103: 0x0216 [0x40] SET_BIT_WORK_RANGE(start_bit=16*, end_bit=31*, target=Work_Zone[1], source=ExtData[1]->WorkLocal[5])
104: 0x021F [0x06] ExtData[1]->WorkLocal[26] = 0
105: 0x0222 [0x01] GOTO 0x0245
106: 0x0225 [0x02] IF !(Work_Zone[0] == 2*) GOTO 0x0245
107: 0x022D [0x40] SET_BIT_WORK_RANGE(start_bit=0*, end_bit=15*, target=Work_Zone[1], source=2*)
108: 0x0236 [0x40] SET_BIT_WORK_RANGE(start_bit=16*, end_bit=31*, target=Work_Zone[1], source=ExtData[1]->WorkLocal[5])
109: 0x023F [0x06] ExtData[1]->WorkLocal[26] = 0
110: 0x0242 [0x01] GOTO 0x0245

SUBROUTINE_0245:
111: 0x0245 [0x01] GOTO 0x041B
112: 0x0248 [0x02] IF !(ExtData[1]->WorkLocal[0] == 2*) GOTO 0x0369
113: 0x0250 [0x03] Work_Zone[2] = ExtData[1]->WorkLocal[7]
114: 0x0255 [0x03] Work_Zone[3] = ExtData[1]->WorkLocal[8]
115: 0x025A [0x03] Work_Zone[4] = ExtData[1]->WorkLocal[6]
116: 0x025F [0x03] Work_Zone[5] = ExtData[1]->WorkLocal[10]
117: 0x0264 [0x03] Work_Zone[6] = ExtData[1]->WorkLocal[9]
118: 0x0269 [0x48] [System] [7552*]:
    → "Unlocking this treasure chest requires you to adjust air pressure to fall within $0`$1. The allotted number of attempts is $3. [The mechanism appears to be in good nick/The sound of air escaping is faintly audible/The mechanism's adjuster lever rattles fitfully/The mechanism is silent to the point of eeriness]. Current air pressure: $2"
119: 0x026C [0x23] WAIT_FOR_DIALOG_INTERACTION
120: 0x026D [0x03] Work_Zone[2] = ExtData[1]->WorkLocal[6]
121: 0x0272 [0x03] Work_Zone[3] = ExtData[1]->WorkLocal[7]
122: 0x0277 [0x03] Work_Zone[4] = ExtData[1]->WorkLocal[8]
123: 0x027C [0x03] ExtData[1]->WorkLocal[29] = ExtData[1]->WorkLocal[10]
124: 0x0281 [0x08] ExtData[1]->WorkLocal[29] -= ExtData[1]->WorkLocal[11]
125: 0x0286 [0x03] Work_Zone[5] = ExtData[1]->WorkLocal[29]
126: 0x028B [0x24] CREATE_DIALOG(message_id=7553*, default_option=0*, option_flags=0*)
    → "Pressure: $0 / Target: $1$2109216Tries left: $3 [Do nothing./Pull lever down one notch./Pull lever down two notches./Pull lever down three notches. /Push lever up one notch./Push lever up two notches./Push lever up three notches.]"
127: 0x0292 [0x25] WAIT_DIALOG_SELECT()
128: 0x0293 [0x02] IF !(Work_Zone[0] == 0*) GOTO 0x02A6
129: 0x029B [0x03] Work_Zone[1] = 1073741824*
130: 0x02A0 [0x06] ExtData[1]->WorkLocal[26] = 0
131: 0x02A3 [0x01] GOTO 0x0366
132: 0x02A6 [0x02] IF !(Work_Zone[0] == 1*) GOTO 0x02C6
133: 0x02AE [0x40] SET_BIT_WORK_RANGE(start_bit=0*, end_bit=15*, target=Work_Zone[1], source=1*)
134: 0x02B7 [0x40] SET_BIT_WORK_RANGE(start_bit=16*, end_bit=31*, target=Work_Zone[1], source=ExtData[1]->WorkLocal[5])
135: 0x02C0 [0x06] ExtData[1]->WorkLocal[26] = 0
136: 0x02C3 [0x01] GOTO 0x0366
137: 0x02C6 [0x02] IF !(Work_Zone[0] == 2*) GOTO 0x02E6
138: 0x02CE [0x40] SET_BIT_WORK_RANGE(start_bit=0*, end_bit=15*, target=Work_Zone[1], source=2*)
139: 0x02D7 [0x40] SET_BIT_WORK_RANGE(start_bit=16*, end_bit=31*, target=Work_Zone[1], source=ExtData[1]->WorkLocal[5])
140: 0x02E0 [0x06] ExtData[1]->WorkLocal[26] = 0
141: 0x02E3 [0x01] GOTO 0x0366
142: 0x02E6 [0x02] IF !(Work_Zone[0] == 3*) GOTO 0x0306
143: 0x02EE [0x40] SET_BIT_WORK_RANGE(start_bit=0*, end_bit=15*, target=Work_Zone[1], source=3*)
144: 0x02F7 [0x40] SET_BIT_WORK_RANGE(start_bit=16*, end_bit=31*, target=Work_Zone[1], source=ExtData[1]->WorkLocal[5])
145: 0x0300 [0x06] ExtData[1]->WorkLocal[26] = 0
146: 0x0303 [0x01] GOTO 0x0366
147: 0x0306 [0x02] IF !(Work_Zone[0] == 4*) GOTO 0x0326
148: 0x030E [0x40] SET_BIT_WORK_RANGE(start_bit=0*, end_bit=15*, target=Work_Zone[1], source=4*)
149: 0x0317 [0x40] SET_BIT_WORK_RANGE(start_bit=16*, end_bit=31*, target=Work_Zone[1], source=ExtData[1]->WorkLocal[5])
150: 0x0320 [0x06] ExtData[1]->WorkLocal[26] = 0
151: 0x0323 [0x01] GOTO 0x0366
152: 0x0326 [0x02] IF !(Work_Zone[0] == 5*) GOTO 0x0346
153: 0x032E [0x40] SET_BIT_WORK_RANGE(start_bit=0*, end_bit=15*, target=Work_Zone[1], source=5*)
154: 0x0337 [0x40] SET_BIT_WORK_RANGE(start_bit=16*, end_bit=31*, target=Work_Zone[1], source=ExtData[1]->WorkLocal[5])
155: 0x0340 [0x06] ExtData[1]->WorkLocal[26] = 0
156: 0x0343 [0x01] GOTO 0x0366
157: 0x0346 [0x02] IF !(Work_Zone[0] == 6*) GOTO 0x0366
158: 0x034E [0x40] SET_BIT_WORK_RANGE(start_bit=0*, end_bit=15*, target=Work_Zone[1], source=6*)
159: 0x0357 [0x40] SET_BIT_WORK_RANGE(start_bit=16*, end_bit=31*, target=Work_Zone[1], source=ExtData[1]->WorkLocal[5])
160: 0x0360 [0x06] ExtData[1]->WorkLocal[26] = 0
161: 0x0363 [0x01] GOTO 0x0366

SUBROUTINE_0366:
162: 0x0366 [0x01] GOTO 0x041B
163: 0x0369 [0x02] IF !(ExtData[1]->WorkLocal[0] == 3*) GOTO 0x041B
164: 0x0371 [0x03] Work_Zone[2] = ExtData[1]->WorkLocal[6]
165: 0x0376 [0x03] Work_Zone[3] = ExtData[1]->WorkLocal[7]
166: 0x037B [0x03] Work_Zone[4] = ExtData[1]->WorkLocal[8]
167: 0x0380 [0x48] [System] [7556*]:
    → "You have a hunch that the lock's combination is between $0`$1. The allotted number of attempts is $2."
168: 0x0383 [0x23] WAIT_FOR_DIALOG_INTERACTION
169: 0x0384 [0x03] ExtData[1]->WorkLocal[29] = ExtData[1]->WorkLocal[8]
170: 0x0389 [0x08] ExtData[1]->WorkLocal[29] -= ExtData[1]->WorkLocal[9]
171: 0x038E [0x03] Work_Zone[2] = ExtData[1]->WorkLocal[29]
172: 0x0393 [0x24] CREATE_DIALOG(message_id=7557*, default_option=0*, option_flags=0*)
    → "Attempts remaining: $0 [Do nothing./Input combination.]"
173: 0x039A [0x25] WAIT_DIALOG_SELECT()
174: 0x039B [0x02] IF !(Work_Zone[0] == 0*) GOTO 0x03AE
175: 0x03A3 [0x03] Work_Zone[1] = 1073741824*
176: 0x03A8 [0x06] ExtData[1]->WorkLocal[26] = 0
177: 0x03AB [0x01] GOTO 0x0418
178: 0x03AE [0x02] IF !(Work_Zone[0] == 1*) GOTO 0x0418
179: 0x03B6 [0x03] Work_Zone[2] = ExtData[1]->WorkLocal[6]
180: 0x03BB [0x03] Work_Zone[3] = ExtData[1]->WorkLocal[7]
181: 0x03C0 [0x48] [System] [7558*]:
    → "Please input a two-digit combination between $0`$1."
182: 0x03C3 [0x23] WAIT_FOR_DIALOG_INTERACTION
183: 0x03C4 [0x71] USER_INPUT_HANDLER: Open numerical input with params (work=[1*, 2*])
184: 0x03CA [0x71] USER_INPUT_HANDLER: Process numerical input B (work=ExtData[1]->WorkLocal[29])
185: 0x03CE [0x02] IF !(ExtData[1]->WorkLocal[29] >= ExtData[1]->WorkLocal[6]) GOTO 0x03E7
186: 0x03D6 [0x03] Work_Zone[2] = ExtData[1]->WorkLocal[6]
187: 0x03DB [0x03] Work_Zone[3] = ExtData[1]->WorkLocal[7]
188: 0x03E0 [0x48] [System] [7558*]:
    → "Please input a two-digit combination between $0`$1."
189: 0x03E3 [0x23] WAIT_FOR_DIALOG_INTERACTION
190: 0x03E4 [0x01] GOTO 0x0415
191: 0x03E7 [0x02] IF !(ExtData[1]->WorkLocal[29] <= ExtData[1]->WorkLocal[7]) GOTO 0x0400
192: 0x03EF [0x03] Work_Zone[2] = ExtData[1]->WorkLocal[6]
193: 0x03F4 [0x03] Work_Zone[3] = ExtData[1]->WorkLocal[7]
194: 0x03F9 [0x48] [System] [7558*]:
    → "Please input a two-digit combination between $0`$1."
195: 0x03FC [0x23] WAIT_FOR_DIALOG_INTERACTION
196: 0x03FD [0x01] GOTO 0x0415
197: 0x0400 [0x40] SET_BIT_WORK_RANGE(start_bit=0*, end_bit=15*, target=Work_Zone[1], source=ExtData[1]->WorkLocal[29])
198: 0x0409 [0x40] SET_BIT_WORK_RANGE(start_bit=16*, end_bit=31*, target=Work_Zone[1], source=ExtData[1]->WorkLocal[5])
199: 0x0412 [0x06] ExtData[1]->WorkLocal[26] = 0

SUBROUTINE_0415:
200: 0x0415 [0x01] GOTO 0x0418

SUBROUTINE_0418:
201: 0x0418 [0x01] GOTO 0x041B

SUBROUTINE_041B:
202: 0x041B [0x01] GOTO 0x0F4A
203: 0x041E [0x02] IF !(Work_Zone[0] == 1*) GOTO 0x047E
204: 0x0426 [0x03] Work_Zone[2] = 0*
205: 0x042B [0x03] Work_Zone[3] = 0*
206: 0x0430 [0x03] Work_Zone[4] = 0*
207: 0x0435 [0x03] Work_Zone[5] = 0*
208: 0x043A [0x03] Work_Zone[6] = 0*
209: 0x043F [0x03] Work_Zone[7] = 0*
210: 0x0444 [0x03] Work_Zone[8] = 0*
211: 0x0449 [0x03] Work_Zone[9] = 0*
212: 0x044E [0x02] IF !(ExtData[1]->WorkLocal[0] == 1*) GOTO 0x045D
213: 0x0456 [0x48] [System] [7546*]:
    → "This treasure chest has been fitted with a unique combination lock that randomly generates numbers from 1`99. Opening it requires you to guess whether the next number is greater or less than the previous."
214: 0x0459 [0x23] WAIT_FOR_DIALOG_INTERACTION
215: 0x045A [0x01] GOTO 0x047B
216: 0x045D [0x02] IF !(ExtData[1]->WorkLocal[0] == 2*) GOTO 0x046C
217: 0x0465 [0x48] [System] [7551*]:
    → "This treasure chest has been fitted with an unusual pneumatic lock. Opening it requires you to adjust air pressure to fall within a predetermined range. Please note, however, that wear and tear may prevent the adjustment mechanism from functioning as intended."
218: 0x0468 [0x23] WAIT_FOR_DIALOG_INTERACTION
219: 0x0469 [0x01] GOTO 0x047B
220: 0x046C [0x02] IF !(ExtData[1]->WorkLocal[0] == 3*) GOTO 0x047B
221: 0x0474 [0x48] [System] [7555*]:
    → "Unlocking this treasure chest requires you to input the correct two-digit combination within the allotted number of attempts."
222: 0x0477 [0x23] WAIT_FOR_DIALOG_INTERACTION
223: 0x0478 [0x01] GOTO 0x047B

SUBROUTINE_047B:
224: 0x047B [0x01] GOTO 0x0F4A
225: 0x047E [0x02] IF !(Work_Zone[0] == 2*) GOTO 0x0EF9
226: 0x0486 [0x02] IF !(ExtData[1]->WorkLocal[3] == 0*) GOTO 0x085B
227: 0x048E [0x03] Work_Zone[2] = 0*
228: 0x0493 [0x03] Work_Zone[3] = 0*
229: 0x0498 [0x03] Work_Zone[4] = 0*
230: 0x049D [0x03] Work_Zone[5] = 0*
231: 0x04A2 [0x03] Work_Zone[6] = 0*
232: 0x04A7 [0x03] Work_Zone[7] = 0*
233: 0x04AC [0x03] Work_Zone[8] = 0*
234: 0x04B1 [0x03] Work_Zone[9] = 0*
235: 0x04B6 [0x02] IF !(ExtData[1]->WorkLocal[2] == 1*) GOTO 0x04CA
236: 0x04BE [0x03] Work_Zone[2] = 0*
237: 0x04C3 [0x48] [System] [7537*]:
    → "The chest is aglow from within with [a feeble/a faint/a mild/a strong/an intense] soothing light."
238: 0x04C6 [0x23] WAIT_FOR_DIALOG_INTERACTION
239: 0x04C7 [0x01] GOTO 0x0858
240: 0x04CA [0x02] IF !(ExtData[1]->WorkLocal[2] == 2*) GOTO 0x04DE
241: 0x04D2 [0x03] Work_Zone[2] = 0*
242: 0x04D7 [0x48] [System] [7538*]:
    → "[A minuscule/A small/A moderate/A considerable/A princely] amount of cruor appears to be inside the treasure chest."
243: 0x04DA [0x23] WAIT_FOR_DIALOG_INTERACTION
244: 0x04DB [0x01] GOTO 0x0858
245: 0x04DE [0x02] IF !(ExtData[1]->WorkLocal[2] == 3*) GOTO 0x04F2
246: 0x04E6 [0x03] Work_Zone[2] = 0*
247: 0x04EB [0x48] [System] [7539*]:
    → "The chest appears empty, but you sense that you serve to gain [a tiny bit of/a little/some/considerable/tremendous] experience by opening it."
248: 0x04EE [0x23] WAIT_FOR_DIALOG_INTERACTION
249: 0x04EF [0x01] GOTO 0x0858
250: 0x04F2 [0x02] IF !(ExtData[1]->WorkLocal[2] == 5*) GOTO 0x0506
251: 0x04FA [0x03] Work_Zone[2] = 1*
252: 0x04FF [0x48] [System] [7537*]:
    → "The chest is aglow from within with [a feeble/a faint/a mild/a strong/an intense] soothing light."
253: 0x0502 [0x23] WAIT_FOR_DIALOG_INTERACTION
254: 0x0503 [0x01] GOTO 0x0858
255: 0x0506 [0x02] IF !(ExtData[1]->WorkLocal[2] == 6*) GOTO 0x051A
256: 0x050E [0x03] Work_Zone[2] = 1*
257: 0x0513 [0x48] [System] [7538*]:
    → "[A minuscule/A small/A moderate/A considerable/A princely] amount of cruor appears to be inside the treasure chest."
258: 0x0516 [0x23] WAIT_FOR_DIALOG_INTERACTION
259: 0x0517 [0x01] GOTO 0x0858
260: 0x051A [0x02] IF !(ExtData[1]->WorkLocal[2] == 7*) GOTO 0x052E
261: 0x0522 [0x03] Work_Zone[2] = 1*
262: 0x0527 [0x48] [System] [7539*]:
    → "The chest appears empty, but you sense that you serve to gain [a tiny bit of/a little/some/considerable/tremendous] experience by opening it."
263: 0x052A [0x23] WAIT_FOR_DIALOG_INTERACTION
264: 0x052B [0x01] GOTO 0x0858
265: 0x052E [0x02] IF !(ExtData[1]->WorkLocal[2] == 9*) GOTO 0x0542
266: 0x0536 [0x03] Work_Zone[2] = 2*
267: 0x053B [0x48] [System] [7537*]:
    → "The chest is aglow from within with [a feeble/a faint/a mild/a strong/an intense] soothing light."
268: 0x053E [0x23] WAIT_FOR_DIALOG_INTERACTION
269: 0x053F [0x01] GOTO 0x0858
270: 0x0542 [0x02] IF !(ExtData[1]->WorkLocal[2] == 10*) GOTO 0x0556
271: 0x054A [0x03] Work_Zone[2] = 2*
272: 0x054F [0x48] [System] [7538*]:
    → "[A minuscule/A small/A moderate/A considerable/A princely] amount of cruor appears to be inside the treasure chest."
273: 0x0552 [0x23] WAIT_FOR_DIALOG_INTERACTION
274: 0x0553 [0x01] GOTO 0x0858
275: 0x0556 [0x02] IF !(ExtData[1]->WorkLocal[2] == 11*) GOTO 0x056A
276: 0x055E [0x03] Work_Zone[2] = 2*
277: 0x0563 [0x48] [System] [7539*]:
    → "The chest appears empty, but you sense that you serve to gain [a tiny bit of/a little/some/considerable/tremendous] experience by opening it."
278: 0x0566 [0x23] WAIT_FOR_DIALOG_INTERACTION
279: 0x0567 [0x01] GOTO 0x0858
280: 0x056A [0x02] IF !(ExtData[1]->WorkLocal[2] == 13*) GOTO 0x057E
281: 0x0572 [0x03] Work_Zone[2] = 3*
282: 0x0577 [0x48] [System] [7537*]:
    → "The chest is aglow from within with [a feeble/a faint/a mild/a strong/an intense] soothing light."
283: 0x057A [0x23] WAIT_FOR_DIALOG_INTERACTION
284: 0x057B [0x01] GOTO 0x0858
285: 0x057E [0x02] IF !(ExtData[1]->WorkLocal[2] == 14*) GOTO 0x0592
286: 0x0586 [0x03] Work_Zone[2] = 3*
287: 0x058B [0x48] [System] [7538*]:
    → "[A minuscule/A small/A moderate/A considerable/A princely] amount of cruor appears to be inside the treasure chest."
288: 0x058E [0x23] WAIT_FOR_DIALOG_INTERACTION
289: 0x058F [0x01] GOTO 0x0858
290: 0x0592 [0x02] IF !(ExtData[1]->WorkLocal[2] == 15*) GOTO 0x05A6
291: 0x059A [0x03] Work_Zone[2] = 3*
292: 0x059F [0x48] [System] [7539*]:
    → "The chest appears empty, but you sense that you serve to gain [a tiny bit of/a little/some/considerable/tremendous] experience by opening it."
293: 0x05A2 [0x23] WAIT_FOR_DIALOG_INTERACTION
294: 0x05A3 [0x01] GOTO 0x0858
295: 0x05A6 [0x02] IF !(ExtData[1]->WorkLocal[2] == 17*) GOTO 0x05BA
296: 0x05AE [0x03] Work_Zone[2] = 4*
297: 0x05B3 [0x48] [System] [7537*]:
    → "The chest is aglow from within with [a feeble/a faint/a mild/a strong/an intense] soothing light."
298: 0x05B6 [0x23] WAIT_FOR_DIALOG_INTERACTION
299: 0x05B7 [0x01] GOTO 0x0858
300: 0x05BA [0x02] IF !(ExtData[1]->WorkLocal[2] == 18*) GOTO 0x05C9
301: 0x05C2 [0x48] [System] [7540*]:
    → "The treasure chest appears to be laden with numerous temporary items."
302: 0x05C5 [0x23] WAIT_FOR_DIALOG_INTERACTION
303: 0x05C6 [0x01] GOTO 0x0858
304: 0x05C9 [0x02] IF !(ExtData[1]->WorkLocal[2] == 19*) GOTO 0x05DD
305: 0x05D1 [0x03] Work_Zone[2] = 4*
306: 0x05D6 [0x48] [System] [7538*]:
    → "[A minuscule/A small/A moderate/A considerable/A princely] amount of cruor appears to be inside the treasure chest."
307: 0x05D9 [0x23] WAIT_FOR_DIALOG_INTERACTION
308: 0x05DA [0x01] GOTO 0x0858
309: 0x05DD [0x02] IF !(ExtData[1]->WorkLocal[2] == 20*) GOTO 0x05F1
310: 0x05E5 [0x03] Work_Zone[2] = 4*
311: 0x05EA [0x48] [System] [7539*]:
    → "The chest appears empty, but you sense that you serve to gain [a tiny bit of/a little/some/considerable/tremendous] experience by opening it."
312: 0x05ED [0x23] WAIT_FOR_DIALOG_INTERACTION
313: 0x05EE [0x01] GOTO 0x0858
314: 0x05F1 [0x02] IF !(ExtData[1]->WorkLocal[2] == 21*) GOTO 0x0600
315: 0x05F9 [0x48] [System] [7541*]:
    → "The treasure chest appears to contain a strangely familiar stone fragment."
316: 0x05FC [0x23] WAIT_FOR_DIALOG_INTERACTION
317: 0x05FD [0x01] GOTO 0x0858
318: 0x0600 [0x02] IF !(ExtData[1]->WorkLocal[2] == 22*) GOTO 0x0619
319: 0x0608 [0x03] Work_Zone[2] = 0*
320: 0x060D [0x03] Work_Zone[3] = 0*
321: 0x0612 [0x48] [System] [7542*]:
    → "The chest is aglow from within with [a faint/a mild/a strong] [pearlescent/golden/silvery/ebon] light."
322: 0x0615 [0x23] WAIT_FOR_DIALOG_INTERACTION
323: 0x0616 [0x01] GOTO 0x0858
324: 0x0619 [0x02] IF !(ExtData[1]->WorkLocal[2] == 23*) GOTO 0x0632
325: 0x0621 [0x03] Work_Zone[2] = 0*
326: 0x0626 [0x03] Work_Zone[3] = 0*
327: 0x062B [0x48] [System] [7543*]:
    → "The chest is aglow from within with [a faint/a mild/a strong/an intense] [azure/ruby/amber] light."
328: 0x062E [0x23] WAIT_FOR_DIALOG_INTERACTION
329: 0x062F [0x01] GOTO 0x0858
330: 0x0632 [0x02] IF !(ExtData[1]->WorkLocal[2] == 24*) GOTO 0x064B
331: 0x063A [0x03] Work_Zone[2] = 0*
332: 0x063F [0x03] Work_Zone[3] = 1*
333: 0x0644 [0x48] [System] [7543*]:
    → "The chest is aglow from within with [a faint/a mild/a strong/an intense] [azure/ruby/amber] light."
334: 0x0647 [0x23] WAIT_FOR_DIALOG_INTERACTION
335: 0x0648 [0x01] GOTO 0x0858
336: 0x064B [0x02] IF !(ExtData[1]->WorkLocal[2] == 25*) GOTO 0x0664
337: 0x0653 [0x03] Work_Zone[2] = 0*
338: 0x0658 [0x03] Work_Zone[3] = 2*
339: 0x065D [0x48] [System] [7543*]:
    → "The chest is aglow from within with [a faint/a mild/a strong/an intense] [azure/ruby/amber] light."
340: 0x0660 [0x23] WAIT_FOR_DIALOG_INTERACTION
341: 0x0661 [0x01] GOTO 0x0858
342: 0x0664 [0x02] IF !(ExtData[1]->WorkLocal[2] == 26*) GOTO 0x067D
343: 0x066C [0x03] Work_Zone[2] = 1*
344: 0x0671 [0x03] Work_Zone[3] = 0*
345: 0x0676 [0x48] [System] [7542*]:
    → "The chest is aglow from within with [a faint/a mild/a strong] [pearlescent/golden/silvery/ebon] light."
346: 0x0679 [0x23] WAIT_FOR_DIALOG_INTERACTION
347: 0x067A [0x01] GOTO 0x0858
348: 0x067D [0x02] IF !(ExtData[1]->WorkLocal[2] == 27*) GOTO 0x0696
349: 0x0685 [0x03] Work_Zone[2] = 1*
350: 0x068A [0x03] Work_Zone[3] = 0*
351: 0x068F [0x48] [System] [7543*]:
    → "The chest is aglow from within with [a faint/a mild/a strong/an intense] [azure/ruby/amber] light."
352: 0x0692 [0x23] WAIT_FOR_DIALOG_INTERACTION
353: 0x0693 [0x01] GOTO 0x0858
354: 0x0696 [0x02] IF !(ExtData[1]->WorkLocal[2] == 28*) GOTO 0x06AF
355: 0x069E [0x03] Work_Zone[2] = 1*
356: 0x06A3 [0x03] Work_Zone[3] = 1*
357: 0x06A8 [0x48] [System] [7543*]:
    → "The chest is aglow from within with [a faint/a mild/a strong/an intense] [azure/ruby/amber] light."
358: 0x06AB [0x23] WAIT_FOR_DIALOG_INTERACTION
359: 0x06AC [0x01] GOTO 0x0858
360: 0x06AF [0x02] IF !(ExtData[1]->WorkLocal[2] == 29*) GOTO 0x06C8
361: 0x06B7 [0x03] Work_Zone[2] = 1*
362: 0x06BC [0x03] Work_Zone[3] = 2*
363: 0x06C1 [0x48] [System] [7543*]:
    → "The chest is aglow from within with [a faint/a mild/a strong/an intense] [azure/ruby/amber] light."
364: 0x06C4 [0x23] WAIT_FOR_DIALOG_INTERACTION
365: 0x06C5 [0x01] GOTO 0x0858
366: 0x06C8 [0x02] IF !(ExtData[1]->WorkLocal[2] == 30*) GOTO 0x06E1
367: 0x06D0 [0x03] Work_Zone[2] = 2*
368: 0x06D5 [0x03] Work_Zone[3] = 0*
369: 0x06DA [0x48] [System] [7542*]:
    → "The chest is aglow from within with [a faint/a mild/a strong] [pearlescent/golden/silvery/ebon] light."
370: 0x06DD [0x23] WAIT_FOR_DIALOG_INTERACTION
371: 0x06DE [0x01] GOTO 0x0858
372: 0x06E1 [0x02] IF !(ExtData[1]->WorkLocal[2] == 31*) GOTO 0x06FA
373: 0x06E9 [0x03] Work_Zone[2] = 2*
374: 0x06EE [0x03] Work_Zone[3] = 0*
375: 0x06F3 [0x48] [System] [7543*]:
    → "The chest is aglow from within with [a faint/a mild/a strong/an intense] [azure/ruby/amber] light."
376: 0x06F6 [0x23] WAIT_FOR_DIALOG_INTERACTION
377: 0x06F7 [0x01] GOTO 0x0858
378: 0x06FA [0x02] IF !(ExtData[1]->WorkLocal[2] == 32*) GOTO 0x0713
379: 0x0702 [0x03] Work_Zone[2] = 2*
380: 0x0707 [0x03] Work_Zone[3] = 1*
381: 0x070C [0x48] [System] [7543*]:
    → "The chest is aglow from within with [a faint/a mild/a strong/an intense] [azure/ruby/amber] light."
382: 0x070F [0x23] WAIT_FOR_DIALOG_INTERACTION
383: 0x0710 [0x01] GOTO 0x0858
384: 0x0713 [0x02] IF !(ExtData[1]->WorkLocal[2] == 33*) GOTO 0x072C
385: 0x071B [0x03] Work_Zone[2] = 2*
386: 0x0720 [0x03] Work_Zone[3] = 2*
387: 0x0725 [0x48] [System] [7543*]:
    → "The chest is aglow from within with [a faint/a mild/a strong/an intense] [azure/ruby/amber] light."
388: 0x0728 [0x23] WAIT_FOR_DIALOG_INTERACTION
389: 0x0729 [0x01] GOTO 0x0858
390: 0x072C [0x02] IF !(ExtData[1]->WorkLocal[2] == 34*) GOTO 0x0745
391: 0x0734 [0x03] Work_Zone[2] = 0*
392: 0x0739 [0x03] Work_Zone[3] = 1*
393: 0x073E [0x48] [System] [7542*]:
    → "The chest is aglow from within with [a faint/a mild/a strong] [pearlescent/golden/silvery/ebon] light."
394: 0x0741 [0x23] WAIT_FOR_DIALOG_INTERACTION
395: 0x0742 [0x01] GOTO 0x0858
396: 0x0745 [0x02] IF !(ExtData[1]->WorkLocal[2] == 35*) GOTO 0x075E
397: 0x074D [0x03] Work_Zone[2] = 0*
398: 0x0752 [0x03] Work_Zone[3] = 2*
399: 0x0757 [0x48] [System] [7542*]:
    → "The chest is aglow from within with [a faint/a mild/a strong] [pearlescent/golden/silvery/ebon] light."
400: 0x075A [0x23] WAIT_FOR_DIALOG_INTERACTION
401: 0x075B [0x01] GOTO 0x0858
402: 0x075E [0x02] IF !(ExtData[1]->WorkLocal[2] == 36*) GOTO 0x0777
403: 0x0766 [0x03] Work_Zone[2] = 0*
404: 0x076B [0x03] Work_Zone[3] = 3*
405: 0x0770 [0x48] [System] [7542*]:
    → "The chest is aglow from within with [a faint/a mild/a strong] [pearlescent/golden/silvery/ebon] light."
406: 0x0773 [0x23] WAIT_FOR_DIALOG_INTERACTION
407: 0x0774 [0x01] GOTO 0x0858
408: 0x0777 [0x02] IF !(ExtData[1]->WorkLocal[2] == 37*) GOTO 0x0790
409: 0x077F [0x03] Work_Zone[2] = 3*
410: 0x0784 [0x03] Work_Zone[3] = 0*
411: 0x0789 [0x48] [System] [7543*]:
    → "The chest is aglow from within with [a faint/a mild/a strong/an intense] [azure/ruby/amber] light."
412: 0x078C [0x23] WAIT_FOR_DIALOG_INTERACTION
413: 0x078D [0x01] GOTO 0x0858
414: 0x0790 [0x02] IF !(ExtData[1]->WorkLocal[2] == 38*) GOTO 0x07A9
415: 0x0798 [0x03] Work_Zone[2] = 3*
416: 0x079D [0x03] Work_Zone[3] = 1*
417: 0x07A2 [0x48] [System] [7543*]:
    → "The chest is aglow from within with [a faint/a mild/a strong/an intense] [azure/ruby/amber] light."
418: 0x07A5 [0x23] WAIT_FOR_DIALOG_INTERACTION
419: 0x07A6 [0x01] GOTO 0x0858
420: 0x07A9 [0x02] IF !(ExtData[1]->WorkLocal[2] == 39*) GOTO 0x07C2
421: 0x07B1 [0x03] Work_Zone[2] = 3*
422: 0x07B6 [0x03] Work_Zone[3] = 2*
423: 0x07BB [0x48] [System] [7543*]:
    → "The chest is aglow from within with [a faint/a mild/a strong/an intense] [azure/ruby/amber] light."
424: 0x07BE [0x23] WAIT_FOR_DIALOG_INTERACTION
425: 0x07BF [0x01] GOTO 0x0858
426: 0x07C2 [0x02] IF !(ExtData[1]->WorkLocal[2] == 40*) GOTO 0x07DB
427: 0x07CA [0x03] Work_Zone[2] = 1*
428: 0x07CF [0x03] Work_Zone[3] = 1*
429: 0x07D4 [0x48] [System] [7542*]:
    → "The chest is aglow from within with [a faint/a mild/a strong] [pearlescent/golden/silvery/ebon] light."
430: 0x07D7 [0x23] WAIT_FOR_DIALOG_INTERACTION
431: 0x07D8 [0x01] GOTO 0x0858
432: 0x07DB [0x02] IF !(ExtData[1]->WorkLocal[2] == 41*) GOTO 0x07F4
433: 0x07E3 [0x03] Work_Zone[2] = 1*
434: 0x07E8 [0x03] Work_Zone[3] = 2*
435: 0x07ED [0x48] [System] [7542*]:
    → "The chest is aglow from within with [a faint/a mild/a strong] [pearlescent/golden/silvery/ebon] light."
436: 0x07F0 [0x23] WAIT_FOR_DIALOG_INTERACTION
437: 0x07F1 [0x01] GOTO 0x0858
438: 0x07F4 [0x02] IF !(ExtData[1]->WorkLocal[2] == 42*) GOTO 0x080D
439: 0x07FC [0x03] Work_Zone[2] = 1*
440: 0x0801 [0x03] Work_Zone[3] = 3*
441: 0x0806 [0x48] [System] [7542*]:
    → "The chest is aglow from within with [a faint/a mild/a strong] [pearlescent/golden/silvery/ebon] light."
442: 0x0809 [0x23] WAIT_FOR_DIALOG_INTERACTION
443: 0x080A [0x01] GOTO 0x0858
444: 0x080D [0x02] IF !(ExtData[1]->WorkLocal[2] == 43*) GOTO 0x0826
445: 0x0815 [0x03] Work_Zone[2] = 2*
446: 0x081A [0x03] Work_Zone[3] = 1*
447: 0x081F [0x48] [System] [7542*]:
    → "The chest is aglow from within with [a faint/a mild/a strong] [pearlescent/golden/silvery/ebon] light."
448: 0x0822 [0x23] WAIT_FOR_DIALOG_INTERACTION
449: 0x0823 [0x01] GOTO 0x0858
450: 0x0826 [0x02] IF !(ExtData[1]->WorkLocal[2] == 44*) GOTO 0x083F
451: 0x082E [0x03] Work_Zone[2] = 2*
452: 0x0833 [0x03] Work_Zone[3] = 2*
453: 0x0838 [0x48] [System] [7542*]:
    → "The chest is aglow from within with [a faint/a mild/a strong] [pearlescent/golden/silvery/ebon] light."
454: 0x083B [0x23] WAIT_FOR_DIALOG_INTERACTION
455: 0x083C [0x01] GOTO 0x0858
456: 0x083F [0x02] IF !(ExtData[1]->WorkLocal[2] == 45*) GOTO 0x0858
457: 0x0847 [0x03] Work_Zone[2] = 2*
458: 0x084C [0x03] Work_Zone[3] = 3*
459: 0x0851 [0x48] [System] [7542*]:
    → "The chest is aglow from within with [a faint/a mild/a strong] [pearlescent/golden/silvery/ebon] light."
460: 0x0854 [0x23] WAIT_FOR_DIALOG_INTERACTION
461: 0x0855 [0x01] GOTO 0x0858

SUBROUTINE_0858:
462: 0x0858 [0x01] GOTO 0x0EF6
463: 0x085B [0x02] IF !(ExtData[1]->WorkLocal[3] == 1*) GOTO 0x0A38
464: 0x0863 [0x03] Work_Zone[2] = 0*
465: 0x0868 [0x48] [System] [7536*]:
    → "[Temporary items/Items/Powerful items/Key items] appear to be inside the treasure chest."
466: 0x086B [0x23] WAIT_FOR_DIALOG_INTERACTION
467: 0x086C [0x05] ExtData[1]->WorkLocal[27] = 1

SUBROUTINE_086F:
468: 0x086F [0x02] IF !(ExtData[1]->WorkLocal[27] <= 0*) GOTO 0x0A35
469: 0x0877 [0x03] ExtData[1]->WorkLocal[23] = 4294967295*
470: 0x087C [0x3D] CLEAR_BIT_FLAG_CONDITIONAL(target_work_offset=ExtData[1]->WorkLocal[23], bit_index_work_offset=0*, condition_work_offset=1*)
471: 0x0883 [0x03] Work_Zone[2] = 0*
472: 0x0888 [0x03] Work_Zone[3] = 0*
473: 0x088D [0x03] Work_Zone[4] = 0*
474: 0x0892 [0x03] Work_Zone[5] = 0*
475: 0x0897 [0x03] Work_Zone[6] = 0*
476: 0x089C [0x03] Work_Zone[7] = 0*
477: 0x08A1 [0x03] Work_Zone[8] = 0*
478: 0x08A6 [0x03] Work_Zone[9] = 0*
479: 0x08AB [0x02] IF !(ExtData[1]->WorkLocal[12] <= 0*) GOTO 0x08BF
480: 0x08B3 [0x3D] CLEAR_BIT_FLAG_CONDITIONAL(target_work_offset=ExtData[1]->WorkLocal[23], bit_index_work_offset=1*, condition_work_offset=1*)
481: 0x08BA [0x03] Work_Zone[2] = ExtData[1]->WorkLocal[12]
482: 0x08BF [0x02] IF !(ExtData[1]->WorkLocal[13] <= 0*) GOTO 0x08D3
483: 0x08C7 [0x3D] CLEAR_BIT_FLAG_CONDITIONAL(target_work_offset=ExtData[1]->WorkLocal[23], bit_index_work_offset=2*, condition_work_offset=1*)
484: 0x08CE [0x03] Work_Zone[3] = ExtData[1]->WorkLocal[13]
485: 0x08D3 [0x02] IF !(ExtData[1]->WorkLocal[14] <= 0*) GOTO 0x08E7
486: 0x08DB [0x3D] CLEAR_BIT_FLAG_CONDITIONAL(target_work_offset=ExtData[1]->WorkLocal[23], bit_index_work_offset=3*, condition_work_offset=1*)
487: 0x08E2 [0x03] Work_Zone[4] = ExtData[1]->WorkLocal[14]
488: 0x08E7 [0x02] IF !(ExtData[1]->WorkLocal[15] <= 0*) GOTO 0x08FB
489: 0x08EF [0x3D] CLEAR_BIT_FLAG_CONDITIONAL(target_work_offset=ExtData[1]->WorkLocal[23], bit_index_work_offset=4*, condition_work_offset=1*)
490: 0x08F6 [0x03] Work_Zone[5] = ExtData[1]->WorkLocal[15]
491: 0x08FB [0x02] IF !(ExtData[1]->WorkLocal[16] <= 0*) GOTO 0x090F
492: 0x0903 [0x3D] CLEAR_BIT_FLAG_CONDITIONAL(target_work_offset=ExtData[1]->WorkLocal[23], bit_index_work_offset=5*, condition_work_offset=1*)
493: 0x090A [0x03] Work_Zone[6] = ExtData[1]->WorkLocal[16]
494: 0x090F [0x02] IF !(ExtData[1]->WorkLocal[17] <= 0*) GOTO 0x0923
495: 0x0917 [0x3D] CLEAR_BIT_FLAG_CONDITIONAL(target_work_offset=ExtData[1]->WorkLocal[23], bit_index_work_offset=6*, condition_work_offset=1*)
496: 0x091E [0x03] Work_Zone[7] = ExtData[1]->WorkLocal[17]
497: 0x0923 [0x02] IF !(ExtData[1]->WorkLocal[18] <= 0*) GOTO 0x0937
498: 0x092B [0x3D] CLEAR_BIT_FLAG_CONDITIONAL(target_work_offset=ExtData[1]->WorkLocal[23], bit_index_work_offset=7*, condition_work_offset=1*)
499: 0x0932 [0x03] Work_Zone[8] = ExtData[1]->WorkLocal[18]
500: 0x0937 [0x02] IF !(ExtData[1]->WorkLocal[19] <= 0*) GOTO 0x094B
501: 0x093F [0x3D] CLEAR_BIT_FLAG_CONDITIONAL(target_work_offset=ExtData[1]->WorkLocal[23], bit_index_work_offset=8*, condition_work_offset=1*)
502: 0x0946 [0x03] Work_Zone[9] = ExtData[1]->WorkLocal[19]
503: 0x094B [0x03] ExtData[1]->WorkLocal[25] = 0*
504: 0x0950 [0x03] ExtData[1]->WorkLocal[28] = 0*
505: 0x0955 [0x24] CREATE_DIALOG(message_id=7530*, default_option=0*, option_flags=ExtData[1]->WorkLocal[23])
    → "Examine which temporary item? [None of them./$0./$1./$2./$3./$4./$5./$6./$7.]"
506: 0x095C [0x25] WAIT_DIALOG_SELECT()
507: 0x095D [0x02] IF !(Work_Zone[0] == 0*) GOTO 0x096B
508: 0x0965 [0x06] ExtData[1]->WorkLocal[27] = 0
509: 0x0968 [0x01] GOTO 0x0A13
510: 0x096B [0x02] IF !(Work_Zone[0] == 1*) GOTO 0x0980
511: 0x0973 [0x03] ExtData[1]->WorkLocal[25] = 1*
512: 0x0978 [0x03] ExtData[1]->WorkLocal[28] = ExtData[1]->WorkLocal[12]
513: 0x097D [0x01] GOTO 0x0A13
514: 0x0980 [0x02] IF !(Work_Zone[0] == 2*) GOTO 0x0995
515: 0x0988 [0x03] ExtData[1]->WorkLocal[25] = 2*
516: 0x098D [0x03] ExtData[1]->WorkLocal[28] = ExtData[1]->WorkLocal[13]
517: 0x0992 [0x01] GOTO 0x0A13
518: 0x0995 [0x02] IF !(Work_Zone[0] == 3*) GOTO 0x09AA
519: 0x099D [0x03] ExtData[1]->WorkLocal[25] = 3*
520: 0x09A2 [0x03] ExtData[1]->WorkLocal[28] = ExtData[1]->WorkLocal[14]
521: 0x09A7 [0x01] GOTO 0x0A13
522: 0x09AA [0x02] IF !(Work_Zone[0] == 4*) GOTO 0x09BF
523: 0x09B2 [0x03] ExtData[1]->WorkLocal[25] = 4*
524: 0x09B7 [0x03] ExtData[1]->WorkLocal[28] = ExtData[1]->WorkLocal[15]
525: 0x09BC [0x01] GOTO 0x0A13
526: 0x09BF [0x02] IF !(Work_Zone[0] == 5*) GOTO 0x09D4
527: 0x09C7 [0x03] ExtData[1]->WorkLocal[25] = 5*
528: 0x09CC [0x03] ExtData[1]->WorkLocal[28] = ExtData[1]->WorkLocal[16]
529: 0x09D1 [0x01] GOTO 0x0A13
530: 0x09D4 [0x02] IF !(Work_Zone[0] == 6*) GOTO 0x09E9
531: 0x09DC [0x03] ExtData[1]->WorkLocal[25] = 6*
532: 0x09E1 [0x03] ExtData[1]->WorkLocal[28] = ExtData[1]->WorkLocal[17]
533: 0x09E6 [0x01] GOTO 0x0A13
534: 0x09E9 [0x02] IF !(Work_Zone[0] == 7*) GOTO 0x09FE
535: 0x09F1 [0x03] ExtData[1]->WorkLocal[25] = 7*
536: 0x09F6 [0x03] ExtData[1]->WorkLocal[28] = ExtData[1]->WorkLocal[18]
537: 0x09FB [0x01] GOTO 0x0A13
538: 0x09FE [0x02] IF !(Work_Zone[0] == 8*) GOTO 0x0A13
539: 0x0A06 [0x03] ExtData[1]->WorkLocal[25] = 8*
540: 0x0A0B [0x03] ExtData[1]->WorkLocal[28] = ExtData[1]->WorkLocal[19]
541: 0x0A10 [0x01] GOTO 0x0A13

SUBROUTINE_0A13:
542: 0x0A13 [0x02] IF !(ExtData[1]->WorkLocal[25] <= 0*) GOTO 0x0A32
543: 0x0A1B [0x02] IF !(ExtData[1]->WorkLocal[28] <= 0*) GOTO 0x0A32
544: 0x0A23 [0x93] DISPLAY_ITEM_INFO(item_id=ExtData[1]->WorkLocal[28])
545: 0x0A26 [0x03] Work_Zone[2] = ExtData[1]->WorkLocal[28]
546: 0x0A2B [0x48] [System] [7544*]:
    → "Temporary item confirmed."
547: 0x0A2E [0x23] WAIT_FOR_DIALOG_INTERACTION
548: 0x0A2F [0x93] DISPLAY_ITEM_INFO(item_id=0*)
549: 0x0A32 [0x01] GOTO 0x086F
550: 0x0A35 [0x01] GOTO 0x0EF6
551: 0x0A38 [0x02] IF !(ExtData[1]->WorkLocal[3] == 2*) GOTO 0x0C15
552: 0x0A40 [0x03] Work_Zone[2] = 1*
553: 0x0A45 [0x48] [System] [7536*]:
    → "[Temporary items/Items/Powerful items/Key items] appear to be inside the treasure chest."
554: 0x0A48 [0x23] WAIT_FOR_DIALOG_INTERACTION
555: 0x0A49 [0x05] ExtData[1]->WorkLocal[27] = 1

SUBROUTINE_0A4C:
556: 0x0A4C [0x02] IF !(ExtData[1]->WorkLocal[27] <= 0*) GOTO 0x0C12
557: 0x0A54 [0x03] ExtData[1]->WorkLocal[23] = 4294967295*
558: 0x0A59 [0x3D] CLEAR_BIT_FLAG_CONDITIONAL(target_work_offset=ExtData[1]->WorkLocal[23], bit_index_work_offset=0*, condition_work_offset=1*)
559: 0x0A60 [0x03] Work_Zone[2] = 0*
560: 0x0A65 [0x03] Work_Zone[3] = 0*
561: 0x0A6A [0x03] Work_Zone[4] = 0*
562: 0x0A6F [0x03] Work_Zone[5] = 0*
563: 0x0A74 [0x03] Work_Zone[6] = 0*
564: 0x0A79 [0x03] Work_Zone[7] = 0*
565: 0x0A7E [0x03] Work_Zone[8] = 0*
566: 0x0A83 [0x03] Work_Zone[9] = 0*
567: 0x0A88 [0x02] IF !(ExtData[1]->WorkLocal[12] <= 0*) GOTO 0x0A9C
568: 0x0A90 [0x3D] CLEAR_BIT_FLAG_CONDITIONAL(target_work_offset=ExtData[1]->WorkLocal[23], bit_index_work_offset=1*, condition_work_offset=1*)
569: 0x0A97 [0x03] Work_Zone[2] = ExtData[1]->WorkLocal[12]
570: 0x0A9C [0x02] IF !(ExtData[1]->WorkLocal[13] <= 0*) GOTO 0x0AB0
571: 0x0AA4 [0x3D] CLEAR_BIT_FLAG_CONDITIONAL(target_work_offset=ExtData[1]->WorkLocal[23], bit_index_work_offset=2*, condition_work_offset=1*)
572: 0x0AAB [0x03] Work_Zone[3] = ExtData[1]->WorkLocal[13]
573: 0x0AB0 [0x02] IF !(ExtData[1]->WorkLocal[14] <= 0*) GOTO 0x0AC4
574: 0x0AB8 [0x3D] CLEAR_BIT_FLAG_CONDITIONAL(target_work_offset=ExtData[1]->WorkLocal[23], bit_index_work_offset=3*, condition_work_offset=1*)
575: 0x0ABF [0x03] Work_Zone[4] = ExtData[1]->WorkLocal[14]
576: 0x0AC4 [0x02] IF !(ExtData[1]->WorkLocal[15] <= 0*) GOTO 0x0AD8
577: 0x0ACC [0x3D] CLEAR_BIT_FLAG_CONDITIONAL(target_work_offset=ExtData[1]->WorkLocal[23], bit_index_work_offset=4*, condition_work_offset=1*)
578: 0x0AD3 [0x03] Work_Zone[5] = ExtData[1]->WorkLocal[15]
579: 0x0AD8 [0x02] IF !(ExtData[1]->WorkLocal[16] <= 0*) GOTO 0x0AEC
580: 0x0AE0 [0x3D] CLEAR_BIT_FLAG_CONDITIONAL(target_work_offset=ExtData[1]->WorkLocal[23], bit_index_work_offset=5*, condition_work_offset=1*)
581: 0x0AE7 [0x03] Work_Zone[6] = ExtData[1]->WorkLocal[16]
582: 0x0AEC [0x02] IF !(ExtData[1]->WorkLocal[17] <= 0*) GOTO 0x0B00
583: 0x0AF4 [0x3D] CLEAR_BIT_FLAG_CONDITIONAL(target_work_offset=ExtData[1]->WorkLocal[23], bit_index_work_offset=6*, condition_work_offset=1*)
584: 0x0AFB [0x03] Work_Zone[7] = ExtData[1]->WorkLocal[17]
585: 0x0B00 [0x02] IF !(ExtData[1]->WorkLocal[18] <= 0*) GOTO 0x0B14
586: 0x0B08 [0x3D] CLEAR_BIT_FLAG_CONDITIONAL(target_work_offset=ExtData[1]->WorkLocal[23], bit_index_work_offset=7*, condition_work_offset=1*)
587: 0x0B0F [0x03] Work_Zone[8] = ExtData[1]->WorkLocal[18]
588: 0x0B14 [0x02] IF !(ExtData[1]->WorkLocal[19] <= 0*) GOTO 0x0B28
589: 0x0B1C [0x3D] CLEAR_BIT_FLAG_CONDITIONAL(target_work_offset=ExtData[1]->WorkLocal[23], bit_index_work_offset=8*, condition_work_offset=1*)
590: 0x0B23 [0x03] Work_Zone[9] = ExtData[1]->WorkLocal[19]
591: 0x0B28 [0x03] ExtData[1]->WorkLocal[25] = 0*
592: 0x0B2D [0x03] ExtData[1]->WorkLocal[28] = 0*
593: 0x0B32 [0x24] CREATE_DIALOG(message_id=7531*, default_option=0*, option_flags=ExtData[1]->WorkLocal[23])
    → "Examine which item? [None of them./$0./$1./$2./$3./$4./$5./$6./$7.]"
594: 0x0B39 [0x25] WAIT_DIALOG_SELECT()
595: 0x0B3A [0x02] IF !(Work_Zone[0] == 0*) GOTO 0x0B48
596: 0x0B42 [0x06] ExtData[1]->WorkLocal[27] = 0
597: 0x0B45 [0x01] GOTO 0x0BF0
598: 0x0B48 [0x02] IF !(Work_Zone[0] == 1*) GOTO 0x0B5D
599: 0x0B50 [0x03] ExtData[1]->WorkLocal[25] = 1*
600: 0x0B55 [0x03] ExtData[1]->WorkLocal[28] = ExtData[1]->WorkLocal[12]
601: 0x0B5A [0x01] GOTO 0x0BF0
602: 0x0B5D [0x02] IF !(Work_Zone[0] == 2*) GOTO 0x0B72
603: 0x0B65 [0x03] ExtData[1]->WorkLocal[25] = 2*
604: 0x0B6A [0x03] ExtData[1]->WorkLocal[28] = ExtData[1]->WorkLocal[13]
605: 0x0B6F [0x01] GOTO 0x0BF0
606: 0x0B72 [0x02] IF !(Work_Zone[0] == 3*) GOTO 0x0B87
607: 0x0B7A [0x03] ExtData[1]->WorkLocal[25] = 3*
608: 0x0B7F [0x03] ExtData[1]->WorkLocal[28] = ExtData[1]->WorkLocal[14]
609: 0x0B84 [0x01] GOTO 0x0BF0
610: 0x0B87 [0x02] IF !(Work_Zone[0] == 4*) GOTO 0x0B9C
611: 0x0B8F [0x03] ExtData[1]->WorkLocal[25] = 4*
612: 0x0B94 [0x03] ExtData[1]->WorkLocal[28] = ExtData[1]->WorkLocal[15]
613: 0x0B99 [0x01] GOTO 0x0BF0
614: 0x0B9C [0x02] IF !(Work_Zone[0] == 5*) GOTO 0x0BB1
615: 0x0BA4 [0x03] ExtData[1]->WorkLocal[25] = 5*
616: 0x0BA9 [0x03] ExtData[1]->WorkLocal[28] = ExtData[1]->WorkLocal[16]
617: 0x0BAE [0x01] GOTO 0x0BF0
618: 0x0BB1 [0x02] IF !(Work_Zone[0] == 6*) GOTO 0x0BC6
619: 0x0BB9 [0x03] ExtData[1]->WorkLocal[25] = 6*
620: 0x0BBE [0x03] ExtData[1]->WorkLocal[28] = ExtData[1]->WorkLocal[17]
621: 0x0BC3 [0x01] GOTO 0x0BF0
622: 0x0BC6 [0x02] IF !(Work_Zone[0] == 7*) GOTO 0x0BDB
623: 0x0BCE [0x03] ExtData[1]->WorkLocal[25] = 7*
624: 0x0BD3 [0x03] ExtData[1]->WorkLocal[28] = ExtData[1]->WorkLocal[18]
625: 0x0BD8 [0x01] GOTO 0x0BF0
626: 0x0BDB [0x02] IF !(Work_Zone[0] == 8*) GOTO 0x0BF0
627: 0x0BE3 [0x03] ExtData[1]->WorkLocal[25] = 8*
628: 0x0BE8 [0x03] ExtData[1]->WorkLocal[28] = ExtData[1]->WorkLocal[19]
629: 0x0BED [0x01] GOTO 0x0BF0

SUBROUTINE_0BF0:
630: 0x0BF0 [0x02] IF !(ExtData[1]->WorkLocal[25] <= 0*) GOTO 0x0C0F
631: 0x0BF8 [0x02] IF !(ExtData[1]->WorkLocal[28] <= 0*) GOTO 0x0C0F
632: 0x0C00 [0x93] DISPLAY_ITEM_INFO(item_id=ExtData[1]->WorkLocal[28])
633: 0x0C03 [0x03] Work_Zone[2] = ExtData[1]->WorkLocal[28]
634: 0x0C08 [0x48] [System] [7545*]:
    → "Item confirmed."
635: 0x0C0B [0x23] WAIT_FOR_DIALOG_INTERACTION
636: 0x0C0C [0x93] DISPLAY_ITEM_INFO(item_id=0*)
637: 0x0C0F [0x01] GOTO 0x0A4C
638: 0x0C12 [0x01] GOTO 0x0EF6
639: 0x0C15 [0x02] IF !(ExtData[1]->WorkLocal[3] == 3*) GOTO 0x0D21
640: 0x0C1D [0x03] Work_Zone[2] = 2*
641: 0x0C22 [0x48] [System] [7536*]:
    → "[Temporary items/Items/Powerful items/Key items] appear to be inside the treasure chest."
642: 0x0C25 [0x23] WAIT_FOR_DIALOG_INTERACTION
643: 0x0C26 [0x05] ExtData[1]->WorkLocal[27] = 1

SUBROUTINE_0C29:
644: 0x0C29 [0x02] IF !(ExtData[1]->WorkLocal[27] <= 0*) GOTO 0x0D1E
645: 0x0C31 [0x03] ExtData[1]->WorkLocal[23] = 4294967295*
646: 0x0C36 [0x3D] CLEAR_BIT_FLAG_CONDITIONAL(target_work_offset=ExtData[1]->WorkLocal[23], bit_index_work_offset=0*, condition_work_offset=1*)
647: 0x0C3D [0x03] Work_Zone[2] = 0*
648: 0x0C42 [0x03] Work_Zone[3] = 0*
649: 0x0C47 [0x03] Work_Zone[4] = 0*
650: 0x0C4C [0x03] Work_Zone[5] = 0*
651: 0x0C51 [0x03] Work_Zone[6] = 0*
652: 0x0C56 [0x03] Work_Zone[7] = 0*
653: 0x0C5B [0x03] Work_Zone[8] = 0*
654: 0x0C60 [0x03] Work_Zone[9] = 0*
655: 0x0C65 [0x02] IF !(ExtData[1]->WorkLocal[12] <= 0*) GOTO 0x0C79
656: 0x0C6D [0x3D] CLEAR_BIT_FLAG_CONDITIONAL(target_work_offset=ExtData[1]->WorkLocal[23], bit_index_work_offset=1*, condition_work_offset=1*)
657: 0x0C74 [0x03] Work_Zone[2] = ExtData[1]->WorkLocal[12]
658: 0x0C79 [0x02] IF !(ExtData[1]->WorkLocal[16] <= 0*) GOTO 0x0C8D
659: 0x0C81 [0x3D] CLEAR_BIT_FLAG_CONDITIONAL(target_work_offset=ExtData[1]->WorkLocal[23], bit_index_work_offset=2*, condition_work_offset=1*)
660: 0x0C88 [0x03] Work_Zone[3] = ExtData[1]->WorkLocal[16]
661: 0x0C8D [0x03] ExtData[1]->WorkLocal[25] = 0*
662: 0x0C92 [0x03] ExtData[1]->WorkLocal[28] = 0*
663: 0x0C97 [0x24] CREATE_DIALOG(message_id=7531*, default_option=0*, option_flags=ExtData[1]->WorkLocal[23])
    → "Examine which item? [None of them./$0./$1./$2./$3./$4./$5./$6./$7.]"
664: 0x0C9E [0x25] WAIT_DIALOG_SELECT()
665: 0x0C9F [0x02] IF !(Work_Zone[0] == 0*) GOTO 0x0CAD
666: 0x0CA7 [0x06] ExtData[1]->WorkLocal[27] = 0
667: 0x0CAA [0x01] GOTO 0x0CF5
668: 0x0CAD [0x02] IF !(Work_Zone[0] == 1*) GOTO 0x0CD1
669: 0x0CB5 [0x03] ExtData[1]->WorkLocal[25] = 1*
670: 0x0CBA [0x03] ExtData[1]->WorkLocal[28] = ExtData[1]->WorkLocal[12]
671: 0x0CBF [0x03] ExtData[1]->WorkLocal[20] = ExtData[1]->WorkLocal[13]
672: 0x0CC4 [0x03] ExtData[1]->WorkLocal[21] = ExtData[1]->WorkLocal[14]
673: 0x0CC9 [0x03] ExtData[1]->WorkLocal[22] = ExtData[1]->WorkLocal[15]
674: 0x0CCE [0x01] GOTO 0x0CF5
675: 0x0CD1 [0x02] IF !(Work_Zone[0] == 2*) GOTO 0x0CF5
676: 0x0CD9 [0x03] ExtData[1]->WorkLocal[25] = 2*
677: 0x0CDE [0x03] ExtData[1]->WorkLocal[28] = ExtData[1]->WorkLocal[16]
678: 0x0CE3 [0x03] ExtData[1]->WorkLocal[20] = ExtData[1]->WorkLocal[17]
679: 0x0CE8 [0x03] ExtData[1]->WorkLocal[21] = ExtData[1]->WorkLocal[18]
680: 0x0CED [0x03] ExtData[1]->WorkLocal[22] = ExtData[1]->WorkLocal[19]
681: 0x0CF2 [0x01] GOTO 0x0CF5

SUBROUTINE_0CF5:
682: 0x0CF5 [0x02] IF !(ExtData[1]->WorkLocal[25] <= 0*) GOTO 0x0D1B
683: 0x0CFD [0x02] IF !(ExtData[1]->WorkLocal[28] <= 0*) GOTO 0x0D1B
684: 0x0D05 [0xCC] ITEM_INFO_WINDOW_HANDLER(case=0x01 - Open item info window (with chase), check_value=ExtData[1]->WorkLocal[28], buffer1=ExtData[1]->WorkLocal[20], buffer2=ExtData[1]->WorkLocal[21], buffer3=ExtData[1]->WorkLocal[22])
685: 0x0D0F [0x03] Work_Zone[2] = ExtData[1]->WorkLocal[28]
686: 0x0D14 [0x48] [System] [7545*]:
    → "Item confirmed."
687: 0x0D17 [0x23] WAIT_FOR_DIALOG_INTERACTION
688: 0x0D18 [0x93] DISPLAY_ITEM_INFO(item_id=0*)
689: 0x0D1B [0x01] GOTO 0x0C29
690: 0x0D1E [0x01] GOTO 0x0EF6
691: 0x0D21 [0x02] IF !(ExtData[1]->WorkLocal[3] == 4*) GOTO 0x0EF6
692: 0x0D29 [0x03] Work_Zone[2] = 3*
693: 0x0D2E [0x48] [System] [7536*]:
    → "[Temporary items/Items/Powerful items/Key items] appear to be inside the treasure chest."
694: 0x0D31 [0x23] WAIT_FOR_DIALOG_INTERACTION
695: 0x0D32 [0x03] Work_Zone[2] = 0*
696: 0x0D37 [0x03] Work_Zone[3] = 0*
697: 0x0D3C [0x03] Work_Zone[4] = 0*
698: 0x0D41 [0x03] Work_Zone[5] = 0*
699: 0x0D46 [0x03] Work_Zone[6] = 0*
700: 0x0D4B [0x03] Work_Zone[7] = 0*
701: 0x0D50 [0x03] Work_Zone[8] = 0*
702: 0x0D55 [0x03] Work_Zone[9] = 0*
703: 0x0D5A [0x03] ExtData[1]->WorkLocal[29] = 0*
704: 0x0D5F [0x02] IF !(ExtData[1]->WorkLocal[12] <= 0*) GOTO 0x0D6A
705: 0x0D67 [0x0B] ExtData[1]->WorkLocal[29]++
706: 0x0D6A [0x02] IF !(ExtData[1]->WorkLocal[13] <= 0*) GOTO 0x0D75
707: 0x0D72 [0x0B] ExtData[1]->WorkLocal[29]++
708: 0x0D75 [0x02] IF !(ExtData[1]->WorkLocal[14] <= 0*) GOTO 0x0D80
709: 0x0D7D [0x0B] ExtData[1]->WorkLocal[29]++
710: 0x0D80 [0x02] IF !(ExtData[1]->WorkLocal[15] <= 0*) GOTO 0x0D8B
711: 0x0D88 [0x0B] ExtData[1]->WorkLocal[29]++
712: 0x0D8B [0x02] IF !(ExtData[1]->WorkLocal[16] <= 0*) GOTO 0x0D96
713: 0x0D93 [0x0B] ExtData[1]->WorkLocal[29]++
714: 0x0D96 [0x02] IF !(ExtData[1]->WorkLocal[17] <= 0*) GOTO 0x0DA1
715: 0x0D9E [0x0B] ExtData[1]->WorkLocal[29]++
716: 0x0DA1 [0x02] IF !(ExtData[1]->WorkLocal[18] <= 0*) GOTO 0x0DAC
717: 0x0DA9 [0x0B] ExtData[1]->WorkLocal[29]++
718: 0x0DAC [0x02] IF !(ExtData[1]->WorkLocal[19] <= 0*) GOTO 0x0DB7
719: 0x0DB4 [0x0B] ExtData[1]->WorkLocal[29]++
720: 0x0DB7 [0x02] IF !(ExtData[1]->WorkLocal[29] == 1*) GOTO 0x0DCB
721: 0x0DBF [0x03] Work_Zone[2] = ExtData[1]->WorkLocal[12]
722: 0x0DC4 [0x48] [System] [7532*]:
    → "Key item: 3."
723: 0x0DC7 [0x23] WAIT_FOR_DIALOG_INTERACTION
724: 0x0DC8 [0x01] GOTO 0x0EF3
725: 0x0DCB [0x02] IF !(ExtData[1]->WorkLocal[29] == 2*) GOTO 0x0DE4
726: 0x0DD3 [0x03] Work_Zone[2] = ExtData[1]->WorkLocal[12]
727: 0x0DD8 [0x03] Work_Zone[3] = ExtData[1]->WorkLocal[13]
728: 0x0DDD [0x48] [System] [7533*]:
    → "Key item: 3. Key item: $3."
729: 0x0DE0 [0x23] WAIT_FOR_DIALOG_INTERACTION
730: 0x0DE1 [0x01] GOTO 0x0EF3
731: 0x0DE4 [0x02] IF !(ExtData[1]->WorkLocal[29] == 3*) GOTO 0x0E02
732: 0x0DEC [0x03] Work_Zone[2] = ExtData[1]->WorkLocal[12]
733: 0x0DF1 [0x03] Work_Zone[3] = ExtData[1]->WorkLocal[13]
734: 0x0DF6 [0x03] Work_Zone[4] = ExtData[1]->WorkLocal[14]
735: 0x0DFB [0x48] [System] [7534*]:
    → "Key item: 3. Key item: $3. Key item: $3."
736: 0x0DFE [0x23] WAIT_FOR_DIALOG_INTERACTION
737: 0x0DFF [0x01] GOTO 0x0EF3
738: 0x0E02 [0x02] IF !(ExtData[1]->WorkLocal[29] == 4*) GOTO 0x0E25
739: 0x0E0A [0x03] Work_Zone[2] = ExtData[1]->WorkLocal[12]
740: 0x0E0F [0x03] Work_Zone[3] = ExtData[1]->WorkLocal[13]
741: 0x0E14 [0x03] Work_Zone[4] = ExtData[1]->WorkLocal[14]
742: 0x0E19 [0x03] Work_Zone[5] = ExtData[1]->WorkLocal[15]
743: 0x0E1E [0x48] [System] [7535*]:
    → "Key item: 3. Key item: $3. Key item: $3. Key item: $3."
744: 0x0E21 [0x23] WAIT_FOR_DIALOG_INTERACTION
745: 0x0E22 [0x01] GOTO 0x0EF3
746: 0x0E25 [0x02] IF !(ExtData[1]->WorkLocal[29] == 5*) GOTO 0x0E51
747: 0x0E2D [0x03] Work_Zone[2] = ExtData[1]->WorkLocal[12]
748: 0x0E32 [0x03] Work_Zone[3] = ExtData[1]->WorkLocal[13]
749: 0x0E37 [0x03] Work_Zone[4] = ExtData[1]->WorkLocal[14]
750: 0x0E3C [0x03] Work_Zone[5] = ExtData[1]->WorkLocal[15]
751: 0x0E41 [0x48] [System] [7535*]:
    → "Key item: 3. Key item: $3. Key item: $3. Key item: $3."
752: 0x0E44 [0x23] WAIT_FOR_DIALOG_INTERACTION
753: 0x0E45 [0x03] Work_Zone[2] = ExtData[1]->WorkLocal[16]
754: 0x0E4A [0x48] [System] [7532*]:
    → "Key item: 3."
755: 0x0E4D [0x23] WAIT_FOR_DIALOG_INTERACTION
756: 0x0E4E [0x01] GOTO 0x0EF3
757: 0x0E51 [0x02] IF !(ExtData[1]->WorkLocal[29] == 6*) GOTO 0x0E82
758: 0x0E59 [0x03] Work_Zone[2] = ExtData[1]->WorkLocal[12]
759: 0x0E5E [0x03] Work_Zone[3] = ExtData[1]->WorkLocal[13]
760: 0x0E63 [0x03] Work_Zone[4] = ExtData[1]->WorkLocal[14]
761: 0x0E68 [0x03] Work_Zone[5] = ExtData[1]->WorkLocal[15]
762: 0x0E6D [0x48] [System] [7535*]:
    → "Key item: 3. Key item: $3. Key item: $3. Key item: $3."
763: 0x0E70 [0x23] WAIT_FOR_DIALOG_INTERACTION
764: 0x0E71 [0x03] Work_Zone[2] = ExtData[1]->WorkLocal[16]
765: 0x0E76 [0x03] Work_Zone[3] = ExtData[1]->WorkLocal[17]
766: 0x0E7B [0x48] [System] [7533*]:
    → "Key item: 3. Key item: $3."
767: 0x0E7E [0x23] WAIT_FOR_DIALOG_INTERACTION
768: 0x0E7F [0x01] GOTO 0x0EF3
769: 0x0E82 [0x02] IF !(ExtData[1]->WorkLocal[29] == 7*) GOTO 0x0EB8
770: 0x0E8A [0x03] Work_Zone[2] = ExtData[1]->WorkLocal[12]
771: 0x0E8F [0x03] Work_Zone[3] = ExtData[1]->WorkLocal[13]
772: 0x0E94 [0x03] Work_Zone[4] = ExtData[1]->WorkLocal[14]
773: 0x0E99 [0x03] Work_Zone[5] = ExtData[1]->WorkLocal[15]
774: 0x0E9E [0x48] [System] [7535*]:
    → "Key item: 3. Key item: $3. Key item: $3. Key item: $3."
775: 0x0EA1 [0x23] WAIT_FOR_DIALOG_INTERACTION
776: 0x0EA2 [0x03] Work_Zone[2] = ExtData[1]->WorkLocal[16]
777: 0x0EA7 [0x03] Work_Zone[3] = ExtData[1]->WorkLocal[17]
778: 0x0EAC [0x03] Work_Zone[4] = ExtData[1]->WorkLocal[18]
779: 0x0EB1 [0x48] [System] [7534*]:
    → "Key item: 3. Key item: $3. Key item: $3."
780: 0x0EB4 [0x23] WAIT_FOR_DIALOG_INTERACTION
781: 0x0EB5 [0x01] GOTO 0x0EF3
782: 0x0EB8 [0x02] IF !(ExtData[1]->WorkLocal[29] == 8*) GOTO 0x0EF3
783: 0x0EC0 [0x03] Work_Zone[2] = ExtData[1]->WorkLocal[12]
784: 0x0EC5 [0x03] Work_Zone[3] = ExtData[1]->WorkLocal[13]
785: 0x0ECA [0x03] Work_Zone[4] = ExtData[1]->WorkLocal[14]
786: 0x0ECF [0x03] Work_Zone[5] = ExtData[1]->WorkLocal[15]
787: 0x0ED4 [0x48] [System] [7535*]:
    → "Key item: 3. Key item: $3. Key item: $3. Key item: $3."
788: 0x0ED7 [0x23] WAIT_FOR_DIALOG_INTERACTION
789: 0x0ED8 [0x03] Work_Zone[2] = ExtData[1]->WorkLocal[16]
790: 0x0EDD [0x03] Work_Zone[3] = ExtData[1]->WorkLocal[17]
791: 0x0EE2 [0x03] Work_Zone[4] = ExtData[1]->WorkLocal[18]
792: 0x0EE7 [0x03] Work_Zone[5] = ExtData[1]->WorkLocal[19]
793: 0x0EEC [0x48] [System] [7535*]:
    → "Key item: 3. Key item: $3. Key item: $3. Key item: $3."
794: 0x0EEF [0x23] WAIT_FOR_DIALOG_INTERACTION
795: 0x0EF0 [0x01] GOTO 0x0EF3

SUBROUTINE_0EF3:
796: 0x0EF3 [0x01] GOTO 0x0EF6

SUBROUTINE_0EF6:
797: 0x0EF6 [0x01] GOTO 0x0F4A
798: 0x0EF9 [0x02] IF !(Work_Zone[0] == 3*) GOTO 0x0F0C
799: 0x0F01 [0x03] Work_Zone[1] = 1073741824*
800: 0x0F06 [0x06] ExtData[1]->WorkLocal[26] = 0
801: 0x0F09 [0x01] GOTO 0x0F4A
802: 0x0F0C [0x02] IF !(Work_Zone[0] == 4*) GOTO 0x0F4A
803: 0x0F14 [0x24] CREATE_DIALOG(message_id=7527*, default_option=1*, option_flags=0*)
    → "The chest will be lost. Proceed? [Yes, destroy./No, cancel.]"
804: 0x0F1B [0x25] WAIT_DIALOG_SELECT()
805: 0x0F1C [0x02] IF !(Work_Zone[0] == 0*) GOTO 0x0F3C
806: 0x0F24 [0x40] SET_BIT_WORK_RANGE(start_bit=0*, end_bit=15*, target=Work_Zone[1], source=999*)
807: 0x0F2D [0x40] SET_BIT_WORK_RANGE(start_bit=16*, end_bit=31*, target=Work_Zone[1], source=0*)
808: 0x0F36 [0x06] ExtData[1]->WorkLocal[26] = 0
809: 0x0F39 [0x01] GOTO 0x0F47
810: 0x0F3C [0x02] IF !(Work_Zone[0] == 1*) GOTO 0x0F47
811: 0x0F44 [0x01] GOTO 0x0F47

SUBROUTINE_0F47:
812: 0x0F47 [0x01] GOTO 0x0F4A

SUBROUTINE_0F4A:
813: 0x0F4A [0x01] GOTO 0x0180
814: 0x0F4D [0x21] END_EVENT
815: 0x0F4E [0x00] END_REQSTACK()
```

### Event 2088

#### Metadata

| Field        | Value      |
|--------------|------------|
| Entrypoint   | 0x0F4F     |
| Data Size    | 2670 bytes |
| Instructions | 505        |

```
      00 01 02 03 04 05 06 07  08 09 0A 0B 0C 0D 0E 0F
      -- -- -- -- -- -- -- --  -- -- -- -- -- -- -- --
0F40:                                               20                  
0F50: 01 03 00 00 00 80 03 01  00 00 80 03 02 00 00 80  ................
0F60: 03 0C 00 00 80 03 0D 00  00 80 03 0E 00 00 80 03  ................
0F70: 0F 00 00 80 03 10 00 00  80 03 11 00 00 80 03 12  ................
0F80: 00 00 80 03 13 00 00 80  03 14 00 00 80 03 15 00  ................
0F90: 00 80 03 16 00 00 80 03  04 00 00 80 03 03 00 00  ................
0FA0: 80 03 17 00 00 80 03 19  00 00 80 03 1A 00 00 80  ................
0FB0: 03 1C 00 00 80 03 00 00  02 10 03 01 00 03 10 03  ................
0FC0: 02 00 04 10 03 03 00 05  10 03 04 00 07 10 03 01  ................
0FD0: 10 0B 80 43 00 43 01 03  0C 00 02 10 03 0D 00 03  ...C.C..........
0FE0: 10 03 0E 00 04 10 03 0F  00 05 10 03 10 00 06 10  ................
0FF0: 03 11 00 07 10 03 12 00  08 10 03 13 00 09 10 03  ................
1000: 1D 00 0C 80 08 1D 00 04  00 15 1D 00 0D 80 02 1D  ................
1010: 00 08 80 03 1B 10 03 1D  00 08 80 03 02 10 1D 00  ................
1020: 48 0E 80 23 03 17 00 45  80 3D 17 00 00 80 08 80  H..#...E.=......
1030: 02 03 00 08 80 80 BF 12  05 1A 00 02 1A 00 00 80  ................
1040: 02 BC 12 03 02 10 00 80  03 03 10 00 80 03 04 10  ................
1050: 00 80 03 05 10 00 80 03  06 10 00 80 03 07 10 00  ................
1060: 80 03 08 10 00 80 03 09  10 00 80 03 1D 00 00 80  ................
1070: 02 0C 00 00 80 02 87 10  3D 17 00 08 80 08 80 03  ........=.......
1080: 02 10 0C 00 0B 1D 00 02  0D 00 00 80 02 9E 10 3D  ...............=
1090: 17 00 09 80 08 80 03 03  10 0D 00 0B 1D 00 02 0E  ................
10A0: 00 00 80 02 B5 10 3D 17  00 0A 80 08 80 03 04 10  ......=.........
10B0: 0E 00 0B 1D 00 02 0F 00  00 80 02 CC 10 3D 17 00  .............=..
10C0: 15 80 08 80 03 05 10 0F  00 0B 1D 00 02 10 00 00  ................
10D0: 80 02 E3 10 3D 17 00 16  80 08 80 03 06 10 10 00  ....=...........
10E0: 0B 1D 00 02 11 00 00 80  02 FA 10 3D 17 00 17 80  ...........=....
10F0: 08 80 03 07 10 11 00 0B  1D 00 02 12 00 00 80 02  ................
1100: 11 11 3D 17 00 01 80 08  80 03 08 10 12 00 0B 1D  ..=.............
1110: 00 02 13 00 00 80 02 28  11 3D 17 00 02 80 08 80  .......(.=......
1120: 03 09 10 13 00 0B 1D 00  02 1D 00 00 80 02 B6 12  ................
1130: 03 19 00 00 80 03 1C 00  00 80 3D 17 00 21 80 08  ..........=..!..
1140: 80 24 50 80 00 80 17 00  25 02 00 10 00 80 00 61  .$P.....%......a
1150: 11 03 19 00 00 80 03 1C  00 00 80 06 1A 00 01 1E  ................
1160: 12 02 00 10 08 80 00 76  11 03 19 00 08 80 03 1C  .......v........
1170: 00 0C 00 01 1E 12 02 00  10 09 80 00 8B 11 03 19  ................
1180: 00 09 80 03 1C 00 0D 00  01 1E 12 02 00 10 0A 80  ................
1190: 00 A0 11 03 19 00 0A 80  03 1C 00 0E 00 01 1E 12  ................
11A0: 02 00 10 15 80 00 B5 11  03 19 00 15 80 03 1C 00  ................
11B0: 0F 00 01 1E 12 02 00 10  16 80 00 CA 11 03 19 00  ................
11C0: 16 80 03 1C 00 10 00 01  1E 12 02 00 10 17 80 00  ................
11D0: DF 11 03 19 00 17 80 03  1C 00 11 00 01 1E 12 02  ................
11E0: 00 10 01 80 00 F4 11 03  19 00 01 80 03 1C 00 12  ................
11F0: 00 01 1E 12 02 00 10 02  80 00 09 12 03 19 00 02  ................
1200: 80 03 1C 00 13 00 01 1E  12 02 00 10 21 80 00 1E  ............!...
1210: 12 03 19 00 21 80 03 1C  00 00 80 01 1E 12 02 19  ....!...........
1220: 00 00 80 02 B3 12 02 19  00 21 80 01 80 12 02 1C  .........!......
1230: 00 00 80 02 7D 12 93 1C  00 03 02 10 1C 00 48 51  ....}.........HQ
1240: 80 23 93 00 80 03 02 10  1C 00 24 52 80 08 80 00  .#........$R....
1250: 80 25 02 00 10 00 80 00  72 12 40 00 80 03 80 01  .%......r.@.....
1260: 10 08 80 40 04 80 07 80  01 10 19 00 06 1A 00 01  ...@............
1270: 7D 12 02 00 10 08 80 00  7D 12 01 7D 12 01 B3 12  }.......}..}....
1280: 24 4E 80 08 80 00 80 25  02 00 10 00 80 00 A8 12  $N.....%........
1290: 40 00 80 03 80 01 10 09  80 40 04 80 07 80 01 10  @........@......
12A0: 00 80 06 1A 00 01 B3 12  02 00 10 08 80 00 B3 12  ................
12B0: 01 B3 12 01 B9 12 06 1A  00 01 3B 10 01 BB 19 02  ..........;.....
12C0: 03 00 09 80 80 85 15 05  1A 00 02 1A 00 00 80 02  ................
12D0: 82 15 03 02 10 00 80 03  03 10 00 80 03 04 10 00  ................
12E0: 80 03 05 10 00 80 03 06  10 00 80 03 07 10 00 80  ................
12F0: 03 08 10 00 80 03 09 10  00 80 03 1D 00 00 80 02  ................
1300: 0C 00 00 80 02 16 13 3D  17 00 08 80 08 80 03 02  .......=........
1310: 10 0C 00 0B 1D 00 02 0D  00 00 80 02 2D 13 3D 17  ............-.=.
1320: 00 09 80 08 80 03 03 10  0D 00 0B 1D 00 02 0E 00  ................
1330: 00 80 02 44 13 3D 17 00  0A 80 08 80 03 04 10 0E  ...D.=..........
1340: 00 0B 1D 00 02 0F 00 00  80 02 5B 13 3D 17 00 15  ..........[.=...
1350: 80 08 80 03 05 10 0F 00  0B 1D 00 02 10 00 00 80  ................
1360: 02 72 13 3D 17 00 16 80  08 80 03 06 10 10 00 0B  .r.=............
1370: 1D 00 02 11 00 00 80 02  89 13 3D 17 00 17 80 08  ..........=.....
1380: 80 03 07 10 11 00 0B 1D  00 02 12 00 00 80 02 A0  ................
1390: 13 3D 17 00 01 80 08 80  03 08 10 12 00 0B 1D 00  .=..............
13A0: 02 13 00 00 80 02 B7 13  3D 17 00 02 80 08 80 03  ........=.......
13B0: 09 10 13 00 0B 1D 00 02  1D 00 00 80 02 7C 15 03  .............|..
13C0: 19 00 00 80 03 1C 00 00  80 3D 17 00 21 80 08 80  .........=..!...
13D0: 3D 17 00 22 80 08 80 24  53 80 00 80 17 00 25 02  =.."...$S.....%.
13E0: 00 10 00 80 00 F7 13 03  19 00 00 80 03 1C 00 00  ................
13F0: 80 06 1A 00 01 C9 14 02  00 10 08 80 00 0C 14 03  ................
1400: 19 00 08 80 03 1C 00 0C  00 01 C9 14 02 00 10 09  ................
1410: 80 00 21 14 03 19 00 09  80 03 1C 00 0D 00 01 C9  ..!.............
1420: 14 02 00 10 0A 80 00 36  14 03 19 00 0A 80 03 1C  .......6........
1430: 00 0E 00 01 C9 14 02 00  10 15 80 00 4B 14 03 19  ............K...
1440: 00 15 80 03 1C 00 0F 00  01 C9 14 02 00 10 16 80  ................
1450: 00 60 14 03 19 00 16 80  03 1C 00 10 00 01 C9 14  .`..............
1460: 02 00 10 17 80 00 75 14  03 19 00 17 80 03 1C 00  ......u.........
1470: 11 00 01 C9 14 02 00 10  01 80 00 8A 14 03 19 00  ................
1480: 01 80 03 1C 00 12 00 01  C9 14 02 00 10 02 80 00  ................
1490: 9F 14 03 19 00 02 80 03  1C 00 13 00 01 C9 14 02  ................
14A0: 00 10 21 80 00 B4 14 03  19 00 21 80 03 1C 00 54  ..!.......!....T
14B0: 80 01 C9 14 02 00 10 22  80 00 C9 14 03 19 00 22  ......."......."
14C0: 80 03 1C 00 00 80 01 C9  14 02 19 00 00 80 02 79  ...............y
14D0: 15 02 19 00 22 80 01 46  15 02 1C 00 00 80 02 43  ...."..F.......C
14E0: 15 02 1C 00 54 80 00 01  15 40 00 80 03 80 01 10  ....T....@......
14F0: 08 80 40 04 80 07 80 01  10 19 00 06 1A 00 01 43  ..@............C
1500: 15 93 1C 00 48 55 80 23  93 00 80 03 02 10 1C 00  ....HU.#........
1510: 24 56 80 08 80 00 80 25  02 00 10 00 80 00 38 15  $V.....%......8.
1520: 40 00 80 03 80 01 10 08  80 40 04 80 07 80 01 10  @........@......
1530: 19 00 06 1A 00 01 43 15  02 00 10 08 80 00 43 15  ......C.......C.
1540: 01 43 15 01 79 15 24 4E  80 08 80 00 80 25 02 00  .C..y.$N.....%..
1550: 10 00 80 00 6E 15 40 00  80 03 80 01 10 09 80 40  ....n.@........@
1560: 04 80 07 80 01 10 00 80  06 1A 00 01 79 15 02 00  ............y...
1570: 10 08 80 00 79 15 01 79  15 01 7F 15 06 1A 00 01  ....y..y........
1580: CA 12 01 BB 19 02 03 00  0A 80 80 3B 17 05 1A 00  ...........;....
1590: 02 1A 00 00 80 02 38 17  03 02 10 00 80 03 03 10  ......8.........
15A0: 00 80 03 04 10 00 80 03  05 10 00 80 03 06 10 00  ................
15B0: 80 03 07 10 00 80 03 08  10 00 80 03 09 10 00 80  ................
15C0: 03 1D 00 00 80 02 0C 00  00 80 02 DC 15 3D 17 00  .............=..
15D0: 08 80 08 80 03 02 10 0C  00 0B 1D 00 02 10 00 00  ................
15E0: 80 02 F3 15 3D 17 00 09  80 08 80 03 03 10 10 00  ....=...........
15F0: 0B 1D 00 02 1D 00 00 80  02 32 17 03 19 00 00 80  .........2......
1600: 03 1C 00 00 80 3D 17 00  22 80 08 80 24 53 80 00  .....=.."...$S..
1610: 80 17 00 25 02 00 10 00  80 00 2C 16 03 19 00 00  ...%......,.....
1620: 80 03 1C 00 00 80 06 1A  00 01 98 16 02 00 10 08  ................
1630: 80 00 50 16 03 19 00 08  80 03 1C 00 0C 00 03 14  ..P.............
1640: 00 0D 00 03 15 00 0E 00  03 16 00 0F 00 01 98 16  ................
1650: 02 00 10 09 80 00 74 16  03 19 00 09 80 03 1C 00  ......t.........
1660: 10 00 03 14 00 11 00 03  15 00 12 00 03 16 00 13  ................
1670: 00 01 98 16 02 00 10 22  80 00 98 16 03 19 00 22  ......."......."
1680: 80 03 1C 00 00 80 03 14  00 00 80 03 15 00 00 80  ................
1690: 03 16 00 00 80 01 98 16  02 19 00 00 80 02 2F 17  ............../.
16A0: 02 19 00 22 80 01 FC 16  02 1C 00 00 80 02 F9 16  ..."............
16B0: CC 01 1C 00 14 00 15 00  16 00 48 55 80 23 93 00  ..........HU.#..
16C0: 80 03 02 10 1C 00 24 56  80 08 80 00 80 25 02 00  ......$V.....%..
16D0: 10 00 80 00 EE 16 40 00  80 03 80 01 10 08 80 40  ......@........@
16E0: 04 80 07 80 01 10 19 00  06 1A 00 01 F9 16 02 00  ................
16F0: 10 08 80 00 F9 16 01 F9  16 01 2F 17 24 4E 80 08  ........../.$N..
1700: 80 00 80 25 02 00 10 00  80 00 24 17 40 00 80 03  ...%......$.@...
1710: 80 01 10 09 80 40 04 80  07 80 01 10 00 80 06 1A  .....@..........
1720: 00 01 2F 17 02 00 10 08  80 00 2F 17 01 2F 17 01  ../......./../..
1730: 35 17 06 1A 00 01 90 15  01 BB 19 02 03 00 15 80  5...............
1740: 80 BB 19 05 1A 00 02 1A  00 00 80 02 B8 19 03 02  ................
1750: 10 00 80 03 03 10 00 80  03 04 10 00 80 03 05 10  ................
1760: 00 80 03 06 10 00 80 03  07 10 00 80 03 08 10 00  ................
1770: 80 03 09 10 00 80 03 1D  00 00 80 02 0C 00 00 80  ................
1780: 02 92 17 3D 17 00 08 80  08 80 03 02 10 0C 00 0B  ...=............
1790: 1D 00 02 0D 00 00 80 02  A9 17 3D 17 00 09 80 08  ..........=.....
17A0: 80 03 03 10 0D 00 0B 1D  00 02 0E 00 00 80 02 C0  ................
17B0: 17 3D 17 00 0A 80 08 80  03 04 10 0E 00 0B 1D 00  .=..............
17C0: 02 0F 00 00 80 02 D7 17  3D 17 00 15 80 08 80 03  ........=.......
17D0: 05 10 0F 00 0B 1D 00 02  10 00 00 80 02 EE 17 3D  ...............=
17E0: 17 00 16 80 08 80 03 06  10 10 00 0B 1D 00 02 11  ................
17F0: 00 00 80 02 05 18 3D 17  00 17 80 08 80 03 07 10  ......=.........
1800: 11 00 0B 1D 00 02 12 00  00 80 02 1C 18 3D 17 00  .............=..
1810: 01 80 08 80 03 08 10 12  00 0B 1D 00 02 13 00 00  ................
1820: 80 02 33 18 3D 17 00 02  80 08 80 03 09 10 13 00  ..3.=...........
1830: 0B 1D 00 02 1D 00 00 80  02 B2 19 03 19 00 00 80  ................
1840: 03 1C 00 00 80 3D 17 00  21 80 08 80 24 57 80 00  .....=..!...$W..
1850: 80 17 00 25 02 00 10 00  80 00 6C 18 03 19 00 00  ...%......l.....
1860: 80 03 1C 00 00 80 06 1A  00 01 29 19 02 00 10 08  ..........).....
1870: 80 00 81 18 03 19 00 08  80 03 1C 00 0C 00 01 29  ...............)
1880: 19 02 00 10 09 80 00 96  18 03 19 00 09 80 03 1C  ................
1890: 00 0D 00 01 29 19 02 00  10 0A 80 00 AB 18 03 19  ....)...........
18A0: 00 0A 80 03 1C 00 0E 00  01 29 19 02 00 10 15 80  .........)......
18B0: 00 C0 18 03 19 00 15 80  03 1C 00 0F 00 01 29 19  ..............).
18C0: 02 00 10 16 80 00 D5 18  03 19 00 16 80 03 1C 00  ................
18D0: 10 00 01 29 19 02 00 10  17 80 00 EA 18 03 19 00  ...)............
18E0: 17 80 03 1C 00 11 00 01  29 19 02 00 10 01 80 00  ........).......
18F0: FF 18 03 19 00 01 80 03  1C 00 12 00 01 29 19 02  .............)..
1900: 00 10 02 80 00 14 19 03  19 00 02 80 03 1C 00 13  ................
1910: 00 01 29 19 02 00 10 21  80 00 29 19 03 19 00 21  ..)....!..)....!
1920: 80 03 1C 00 00 80 01 29  19 02 19 00 00 80 02 AF  .......)........
1930: 19 02 19 00 21 80 01 7C  19 02 1C 00 00 80 02 79  ....!..|.......y
1940: 19 03 02 10 1C 00 24 58  80 08 80 00 80 25 02 00  ......$X.....%..
1950: 10 00 80 00 6E 19 40 00  80 03 80 01 10 08 80 40  ....n.@........@
1960: 04 80 07 80 01 10 19 00  06 1A 00 01 79 19 02 00  ............y...
1970: 10 08 80 00 79 19 01 79  19 01 AF 19 24 4E 80 08  ....y..y....$N..
1980: 80 00 80 25 02 00 10 00  80 00 A4 19 40 00 80 03  ...%........@...
1990: 80 01 10 09 80 40 04 80  07 80 01 10 00 80 06 1A  .....@..........
19A0: 00 01 AF 19 02 00 10 08  80 00 AF 19 01 AF 19 01  ................
19B0: B5 19 06 1A 00 01 46 17  01 BB 19 21 00           ......F....!.   
```

#### Opcodes

```
  0: 0x0F4F [0x20] SET_CLI_EVENT_UC_FLAG: Lock player control
  1: 0x0F51 [0x03] ExtData[1]->WorkLocal[0] = 0*
  2: 0x0F56 [0x03] ExtData[1]->WorkLocal[1] = 0*
  3: 0x0F5B [0x03] ExtData[1]->WorkLocal[2] = 0*
  4: 0x0F60 [0x03] ExtData[1]->WorkLocal[12] = 0*
  5: 0x0F65 [0x03] ExtData[1]->WorkLocal[13] = 0*
  6: 0x0F6A [0x03] ExtData[1]->WorkLocal[14] = 0*
  7: 0x0F6F [0x03] ExtData[1]->WorkLocal[15] = 0*
  8: 0x0F74 [0x03] ExtData[1]->WorkLocal[16] = 0*
  9: 0x0F79 [0x03] ExtData[1]->WorkLocal[17] = 0*
 10: 0x0F7E [0x03] ExtData[1]->WorkLocal[18] = 0*
 11: 0x0F83 [0x03] ExtData[1]->WorkLocal[19] = 0*
 12: 0x0F88 [0x03] ExtData[1]->WorkLocal[20] = 0*
 13: 0x0F8D [0x03] ExtData[1]->WorkLocal[21] = 0*
 14: 0x0F92 [0x03] ExtData[1]->WorkLocal[22] = 0*
 15: 0x0F97 [0x03] ExtData[1]->WorkLocal[4] = 0*
 16: 0x0F9C [0x03] ExtData[1]->WorkLocal[3] = 0*
 17: 0x0FA1 [0x03] ExtData[1]->WorkLocal[23] = 0*
 18: 0x0FA6 [0x03] ExtData[1]->WorkLocal[25] = 0*
 19: 0x0FAB [0x03] ExtData[1]->WorkLocal[26] = 0*
 20: 0x0FB0 [0x03] ExtData[1]->WorkLocal[28] = 0*
 21: 0x0FB5 [0x03] ExtData[1]->WorkLocal[0] = Work_Zone[2]
 22: 0x0FBA [0x03] ExtData[1]->WorkLocal[1] = Work_Zone[3]
 23: 0x0FBF [0x03] ExtData[1]->WorkLocal[2] = Work_Zone[4]
 24: 0x0FC4 [0x03] ExtData[1]->WorkLocal[3] = Work_Zone[5]
 25: 0x0FC9 [0x03] ExtData[1]->WorkLocal[4] = Work_Zone[7]
 26: 0x0FCE [0x03] Work_Zone[1] = 111*
 27: 0x0FD3 [0x43] SEND_EVENT_UPDATE: Send pending tag to server (packet 0x005B)
 28: 0x0FD5 [0x43] SEND_EVENT_UPDATE: Check pending flag (skip if not pending)
 29: 0x0FD7 [0x03] ExtData[1]->WorkLocal[12] = Work_Zone[2]
 30: 0x0FDC [0x03] ExtData[1]->WorkLocal[13] = Work_Zone[3]
 31: 0x0FE1 [0x03] ExtData[1]->WorkLocal[14] = Work_Zone[4]
 32: 0x0FE6 [0x03] ExtData[1]->WorkLocal[15] = Work_Zone[5]
 33: 0x0FEB [0x03] ExtData[1]->WorkLocal[16] = Work_Zone[6]
 34: 0x0FF0 [0x03] ExtData[1]->WorkLocal[17] = Work_Zone[7]
 35: 0x0FF5 [0x03] ExtData[1]->WorkLocal[18] = Work_Zone[8]
 36: 0x0FFA [0x03] ExtData[1]->WorkLocal[19] = Work_Zone[9]
 37: 0x0FFF [0x03] ExtData[1]->WorkLocal[29] = 10800*
 38: 0x1004 [0x08] ExtData[1]->WorkLocal[29] -= ExtData[1]->WorkLocal[4]
 39: 0x1009 [0x15] ExtData[1]->WorkLocal[29] /= 60*
 40: 0x100E [0x02] IF !(ExtData[1]->WorkLocal[29] >= 1*) GOTO 0x101B
 41: 0x1016 [0x03] ExtData[1]->WorkLocal[29] = 1*
 42: 0x101B [0x03] Work_Zone[2] = ExtData[1]->WorkLocal[29]
 43: 0x1020 [0x48] [System] [7495*]:
    → "The treasure chest will disappear in $0 [second/seconds]."
 44: 0x1023 [0x23] WAIT_FOR_DIALOG_INTERACTION
 45: 0x1024 [0x03] ExtData[1]->WorkLocal[23] = 4294967295*
 46: 0x1029 [0x3D] CLEAR_BIT_FLAG_CONDITIONAL(target_work_offset=ExtData[1]->WorkLocal[23], bit_index_work_offset=0*, condition_work_offset=1*)
 47: 0x1030 [0x02] IF !(ExtData[1]->WorkLocal[3] == 1*) GOTO 0x12BF
 48: 0x1038 [0x05] ExtData[1]->WorkLocal[26] = 1
 49: 0x103B [0x02] IF !(ExtData[1]->WorkLocal[26] <= 0*) GOTO 0x12BC
 50: 0x1043 [0x03] Work_Zone[2] = 0*
 51: 0x1048 [0x03] Work_Zone[3] = 0*
 52: 0x104D [0x03] Work_Zone[4] = 0*
 53: 0x1052 [0x03] Work_Zone[5] = 0*
 54: 0x1057 [0x03] Work_Zone[6] = 0*
 55: 0x105C [0x03] Work_Zone[7] = 0*
 56: 0x1061 [0x03] Work_Zone[8] = 0*
 57: 0x1066 [0x03] Work_Zone[9] = 0*
 58: 0x106B [0x03] ExtData[1]->WorkLocal[29] = 0*
 59: 0x1070 [0x02] IF !(ExtData[1]->WorkLocal[12] <= 0*) GOTO 0x1087
 60: 0x1078 [0x3D] CLEAR_BIT_FLAG_CONDITIONAL(target_work_offset=ExtData[1]->WorkLocal[23], bit_index_work_offset=1*, condition_work_offset=1*)
 61: 0x107F [0x03] Work_Zone[2] = ExtData[1]->WorkLocal[12]
 62: 0x1084 [0x0B] ExtData[1]->WorkLocal[29]++
 63: 0x1087 [0x02] IF !(ExtData[1]->WorkLocal[13] <= 0*) GOTO 0x109E
 64: 0x108F [0x3D] CLEAR_BIT_FLAG_CONDITIONAL(target_work_offset=ExtData[1]->WorkLocal[23], bit_index_work_offset=2*, condition_work_offset=1*)
 65: 0x1096 [0x03] Work_Zone[3] = ExtData[1]->WorkLocal[13]
 66: 0x109B [0x0B] ExtData[1]->WorkLocal[29]++
 67: 0x109E [0x02] IF !(ExtData[1]->WorkLocal[14] <= 0*) GOTO 0x10B5
 68: 0x10A6 [0x3D] CLEAR_BIT_FLAG_CONDITIONAL(target_work_offset=ExtData[1]->WorkLocal[23], bit_index_work_offset=3*, condition_work_offset=1*)
 69: 0x10AD [0x03] Work_Zone[4] = ExtData[1]->WorkLocal[14]
 70: 0x10B2 [0x0B] ExtData[1]->WorkLocal[29]++
 71: 0x10B5 [0x02] IF !(ExtData[1]->WorkLocal[15] <= 0*) GOTO 0x10CC
 72: 0x10BD [0x3D] CLEAR_BIT_FLAG_CONDITIONAL(target_work_offset=ExtData[1]->WorkLocal[23], bit_index_work_offset=4*, condition_work_offset=1*)
 73: 0x10C4 [0x03] Work_Zone[5] = ExtData[1]->WorkLocal[15]
 74: 0x10C9 [0x0B] ExtData[1]->WorkLocal[29]++
 75: 0x10CC [0x02] IF !(ExtData[1]->WorkLocal[16] <= 0*) GOTO 0x10E3
 76: 0x10D4 [0x3D] CLEAR_BIT_FLAG_CONDITIONAL(target_work_offset=ExtData[1]->WorkLocal[23], bit_index_work_offset=5*, condition_work_offset=1*)
 77: 0x10DB [0x03] Work_Zone[6] = ExtData[1]->WorkLocal[16]
 78: 0x10E0 [0x0B] ExtData[1]->WorkLocal[29]++
 79: 0x10E3 [0x02] IF !(ExtData[1]->WorkLocal[17] <= 0*) GOTO 0x10FA
 80: 0x10EB [0x3D] CLEAR_BIT_FLAG_CONDITIONAL(target_work_offset=ExtData[1]->WorkLocal[23], bit_index_work_offset=6*, condition_work_offset=1*)
 81: 0x10F2 [0x03] Work_Zone[7] = ExtData[1]->WorkLocal[17]
 82: 0x10F7 [0x0B] ExtData[1]->WorkLocal[29]++
 83: 0x10FA [0x02] IF !(ExtData[1]->WorkLocal[18] <= 0*) GOTO 0x1111
 84: 0x1102 [0x3D] CLEAR_BIT_FLAG_CONDITIONAL(target_work_offset=ExtData[1]->WorkLocal[23], bit_index_work_offset=7*, condition_work_offset=1*)
 85: 0x1109 [0x03] Work_Zone[8] = ExtData[1]->WorkLocal[18]
 86: 0x110E [0x0B] ExtData[1]->WorkLocal[29]++
 87: 0x1111 [0x02] IF !(ExtData[1]->WorkLocal[19] <= 0*) GOTO 0x1128
 88: 0x1119 [0x3D] CLEAR_BIT_FLAG_CONDITIONAL(target_work_offset=ExtData[1]->WorkLocal[23], bit_index_work_offset=8*, condition_work_offset=1*)
 89: 0x1120 [0x03] Work_Zone[9] = ExtData[1]->WorkLocal[19]
 90: 0x1125 [0x0B] ExtData[1]->WorkLocal[29]++
 91: 0x1128 [0x02] IF !(ExtData[1]->WorkLocal[29] <= 0*) GOTO 0x12B6
 92: 0x1130 [0x03] ExtData[1]->WorkLocal[25] = 0*
 93: 0x1135 [0x03] ExtData[1]->WorkLocal[28] = 0*
 94: 0x113A [0x3D] CLEAR_BIT_FLAG_CONDITIONAL(target_work_offset=ExtData[1]->WorkLocal[23], bit_index_work_offset=9*, condition_work_offset=1*)
 95: 0x1141 [0x24] CREATE_DIALOG(message_id=7496*, default_option=0*, option_flags=ExtData[1]->WorkLocal[23])
    → "Which temporary item will you obtain? [None of them./$0./$1./$2./$3./$4./$5./$6./$7./Destroy treasure chest.]"
 96: 0x1148 [0x25] WAIT_DIALOG_SELECT()
 97: 0x1149 [0x02] IF !(Work_Zone[0] == 0*) GOTO 0x1161
 98: 0x1151 [0x03] ExtData[1]->WorkLocal[25] = 0*
 99: 0x1156 [0x03] ExtData[1]->WorkLocal[28] = 0*
100: 0x115B [0x06] ExtData[1]->WorkLocal[26] = 0
101: 0x115E [0x01] GOTO 0x121E
102: 0x1161 [0x02] IF !(Work_Zone[0] == 1*) GOTO 0x1176
103: 0x1169 [0x03] ExtData[1]->WorkLocal[25] = 1*
104: 0x116E [0x03] ExtData[1]->WorkLocal[28] = ExtData[1]->WorkLocal[12]
105: 0x1173 [0x01] GOTO 0x121E
106: 0x1176 [0x02] IF !(Work_Zone[0] == 2*) GOTO 0x118B
107: 0x117E [0x03] ExtData[1]->WorkLocal[25] = 2*
108: 0x1183 [0x03] ExtData[1]->WorkLocal[28] = ExtData[1]->WorkLocal[13]
109: 0x1188 [0x01] GOTO 0x121E
110: 0x118B [0x02] IF !(Work_Zone[0] == 3*) GOTO 0x11A0
111: 0x1193 [0x03] ExtData[1]->WorkLocal[25] = 3*
112: 0x1198 [0x03] ExtData[1]->WorkLocal[28] = ExtData[1]->WorkLocal[14]
113: 0x119D [0x01] GOTO 0x121E
114: 0x11A0 [0x02] IF !(Work_Zone[0] == 4*) GOTO 0x11B5
115: 0x11A8 [0x03] ExtData[1]->WorkLocal[25] = 4*
116: 0x11AD [0x03] ExtData[1]->WorkLocal[28] = ExtData[1]->WorkLocal[15]
117: 0x11B2 [0x01] GOTO 0x121E
118: 0x11B5 [0x02] IF !(Work_Zone[0] == 5*) GOTO 0x11CA
119: 0x11BD [0x03] ExtData[1]->WorkLocal[25] = 5*
120: 0x11C2 [0x03] ExtData[1]->WorkLocal[28] = ExtData[1]->WorkLocal[16]
121: 0x11C7 [0x01] GOTO 0x121E
122: 0x11CA [0x02] IF !(Work_Zone[0] == 6*) GOTO 0x11DF
123: 0x11D2 [0x03] ExtData[1]->WorkLocal[25] = 6*
124: 0x11D7 [0x03] ExtData[1]->WorkLocal[28] = ExtData[1]->WorkLocal[17]
125: 0x11DC [0x01] GOTO 0x121E
126: 0x11DF [0x02] IF !(Work_Zone[0] == 7*) GOTO 0x11F4
127: 0x11E7 [0x03] ExtData[1]->WorkLocal[25] = 7*
128: 0x11EC [0x03] ExtData[1]->WorkLocal[28] = ExtData[1]->WorkLocal[18]
129: 0x11F1 [0x01] GOTO 0x121E
130: 0x11F4 [0x02] IF !(Work_Zone[0] == 8*) GOTO 0x1209
131: 0x11FC [0x03] ExtData[1]->WorkLocal[25] = 8*
