# 17666765 - Teigero-Bangero

## Common Data

| Field            | Value                       |
|------------------|-----------------------------|
| Zone             | Abyssea - Vunkerl (ID: 217) |
| Block Size       | 360 bytes                   |
| Total Events     | 6                           |
| References Count | 29                          |

## List of Events

| Event ID              | Entrypoint   |   Size |   Instructions |
|-----------------------|--------------|--------|----------------|
| [65535](#event-65535) | 0x0000       |      1 |              1 |
| [1083](#event-1083)   | 0x0001       |     10 |              6 |
| [1084](#event-1084)   | 0x000B       |     80 |             28 |
| [1085](#event-1085)   | 0x005B       |     11 |              5 |
| [1086](#event-1086)   | 0x0066       |     88 |             36 |
| [1087](#event-1087)   | 0x00BE       |     11 |              5 |

## DAT References (imed_data)

|   Index | Hex Value   |   Dec Value |
|---------|-------------|-------------|
|       0 | 0x20E3      |        8419 |
|       1 | 0x20E4      |        8420 |
|       2 | 0x20E5      |        8421 |
|       3 | 0x20E6      |        8422 |
|       4 | 0x20E7      |        8423 |
|       5 | 0x20E8      |        8424 |
|       6 | 0x0000      |           0 |
|       7 | 0x20E9      |        8425 |
|       8 | 0x20EA      |        8426 |
|       9 | 0x0001      |           1 |
|      10 | 0x20EB      |        8427 |
|      11 | 0x0002      |           2 |
|      12 | 0x20EC      |        8428 |
|      13 | 0x20ED      |        8429 |
|      14 | 0x20EE      |        8430 |
|      15 | 0x0078      |         120 |
|      16 | 0x20EF      |        8431 |
|      17 | 0x20F0      |        8432 |
|      18 | 0x20F1      |        8433 |
|      19 | 0x20F2      |        8434 |
|      20 | 0x20F3      |        8435 |
|      21 | 0x20F4      |        8436 |
|      22 | 0x20F5      |        8437 |
|      23 | 0x20F6      |        8438 |
|      24 | 0x20F7      |        8439 |
|      25 | 0x20F8      |        8440 |
|      26 | 0x20F9      |        8441 |
|      27 | 0x20FA      |        8442 |
|      28 | 0x00C9      |         201 |

## String References

- **8419**: Oh, whatever-wever shall I do? Am I doomed never to return to my home sweetaru home?
- **8420**: My beloved Naruru... My dearest little Panta-Putta... Be strong! Your loving-woving husband and father will come home to you someday...somehow...
- **8421**: Hullo there! Please forgive me for that rather embarrassing display of self-pity.
- **8422**: I've heard much of your exploitarus. You're the one who's been traipsing-waipsing about the inlet, sending Abyssean fiends to their graves with all the ease of a gardener planting popotoes.
- **8423**: Would that I had even an onz of your strength and determination! Instead, it is all I can do to stand here, wallowing in despair with this undelivered letter in hand...
- **8424**: Meddle in his personal affairs? [Just a little.../I'd rather not.]
- **8425**: Hand over the lettaru, you say, and you'll deliver it for me? Please! Spare my tender-wender heart this jest!
- **8426**: It is no jest, you say? Could this truly be happening? Dare I trust this stranger with my hopes and dreams? Oh, thank you, kind [sir/madam]. Thank you from the bottom of my soul!
- **8427**: ...... Pay this poor Taru no heed, friend. I would not presume to distract you from the myriad-wyriad important tasks you have at hand.
- **8428**: Any luck with that letter, friend? <Sigh>... What I would not give just to know that my wife and child are safe and sound...
- **8429**: You delivered the letter? Get outaru of here! Really, honestly, truly?
- **8430**: What? Something for me from my dearest Naruru?
- **8431**: Naruru! My beloved! Can you hear me!?
- **8432**: Yes, it is I, your sweetaru pamama! Oh, Naruru! Your gentle voice is like unto the Goddess herself to my ears!
- **8433**: Hm? Your airship? Razed by fiends and sent plummetaruing into the chasm? How horrible! I must thank every star in the heavens that you survived!
- **8434**: But what of our precious-wecious Panta-Putta? ...Safe in Jeuno, you say!? Oh, please let it be so!
- **8435**: ...Excuse me for just a moment, my dear. I must pay proper due to the kind [man/woman] who made this momentaru possible.
- **8436**: Forgive me, [Mister/Missus]... <Player>, is it?
- **8437**: For reconnecting me with my beloved, I could thank you a thousand-wousand times and still it would not suffice. Thank you! Thank you! Thank you! Thank you! Thank you! Thank...<cough>...
- **8438**: <Cough>... Forgive me. Still, a few of my dear wife's words were a bit disconcertaruing. Does she not remember that Jeuno, not unlike the three nations, fell that day that the skies turned red...?
- **8439**: She was fortunate indeed to escape by airship... But what of our gentle-wentle child? Does he truly still live!?
- **8440**: But no...I cannot allow myself to indulge in excess optimism... After all, until moments ago, I was certain that I had lostaru them both.
- **8441**: I want you to have this. I built many such trifling-wifling things for my son, in hopes of reuniting with him someday...but...but...
- **8442**: No, I must acceptaru reality, and be thankful for what I have. You've given me much peace of mind, <Player>. I thank you.

## Events

### Event 65535

#### Metadata

| Field        | Value   |
|--------------|---------|
| Entrypoint   | 0x0000  |
| Data Size    | 1 bytes |
| Instructions | 1       |

```
      00 01 02 03 04 05 06 07  08 09 0A 0B 0C 0D 0E 0F
      -- -- -- -- -- -- -- --  -- -- -- -- -- -- -- --
0000: 00                                                .               
```

#### Opcodes

```
  0: 0x0000 [0x00] END_REQSTACK()
```

### Event 1083

#### Metadata

| Field        | Value    |
|--------------|----------|
| Entrypoint   | 0x0001   |
| Data Size    | 10 bytes |
| Instructions | 6        |

```
      00 01 02 03 04 05 06 07  08 09 0A 0B 0C 0D 0E 0F
      -- -- -- -- -- -- -- --  -- -- -- -- -- -- -- --
0000:    1D 00 80 23 1D 01 80  23 21 00                  ...#...#!.     
```

#### Opcodes

```
  0: 0x0001 [0x1D] PRINT_EVENT_MESSAGE(message_id=8419*)
    → "Oh, whatever-wever shall I do? Am I doomed never to return to my home sweetaru home?"
  1: 0x0004 [0x23] WAIT_FOR_DIALOG_INTERACTION
  2: 0x0005 [0x1D] PRINT_EVENT_MESSAGE(message_id=8420*)
    → "My beloved Naruru... My dearest little Panta-Putta... Be strong! Your loving-woving husband and father will come home to you someday...somehow..."
  3: 0x0008 [0x23] WAIT_FOR_DIALOG_INTERACTION
  4: 0x0009 [0x21] END_EVENT
  5: 0x000A [0x00] END_REQSTACK()
```

### Event 1084

#### Metadata

| Field        | Value    |
|--------------|----------|
| Entrypoint   | 0x000B   |
| Data Size    | 80 bytes |
| Instructions | 28       |

```
      00 01 02 03 04 05 06 07  08 09 0A 0B 0C 0D 0E 0F
      -- -- -- -- -- -- -- --  -- -- -- -- -- -- -- --
0000:                                   1D 00 80 23 1D             ...#.
0010: 01 80 23 1E F0 FF FF 7F  1D 02 80 23 1D 03 80 23  ..#........#...#
0020: 1D 04 80 23 24 05 80 06  80 06 80 25 02 00 10 06  ...#$......%....
0030: 80 00 45 00 42 1D 07 80  23 1D 08 80 23 03 01 10  ..E.B...#...#...
0040: 09 80 01 59 00 02 00 10  09 80 00 59 00 1D 0A 80  ...Y.......Y....
0050: 23 03 01 10 0B 80 01 59  00 21 00                 #......Y.!.     
```

#### Opcodes

```
  0: 0x000B [0x1D] PRINT_EVENT_MESSAGE(message_id=8419*)
    → "Oh, whatever-wever shall I do? Am I doomed never to return to my home sweetaru home?"
  1: 0x000E [0x23] WAIT_FOR_DIALOG_INTERACTION
  2: 0x000F [0x1D] PRINT_EVENT_MESSAGE(message_id=8420*)
    → "My beloved Naruru... My dearest little Panta-Putta... Be strong! Your loving-woving husband and father will come home to you someday...somehow..."
  3: 0x0012 [0x23] WAIT_FOR_DIALOG_INTERACTION
  4: 0x0013 [0x1E] EventEntity looks at LocalPlayer and starts talking
  5: 0x0018 [0x1D] PRINT_EVENT_MESSAGE(message_id=8421*)
    → "Hullo there! Please forgive me for that rather embarrassing display of self-pity."
  6: 0x001B [0x23] WAIT_FOR_DIALOG_INTERACTION
  7: 0x001C [0x1D] PRINT_EVENT_MESSAGE(message_id=8422*)
    → "I've heard much of your exploitarus. You're the one who's been traipsing-waipsing about the inlet, sending Abyssean fiends to their graves with all the ease of a gardener planting popotoes."
  8: 0x001F [0x23] WAIT_FOR_DIALOG_INTERACTION
  9: 0x0020 [0x1D] PRINT_EVENT_MESSAGE(message_id=8423*)
    → "Would that I had even an onz of your strength and determination! Instead, it is all I can do to stand here, wallowing in despair with this undelivered letter in hand..."
 10: 0x0023 [0x23] WAIT_FOR_DIALOG_INTERACTION
 11: 0x0024 [0x24] CREATE_DIALOG(message_id=8424*, default_option=0*, option_flags=0*)
    → "Meddle in his personal affairs? [Just a little.../I'd rather not.]"
 12: 0x002B [0x25] WAIT_DIALOG_SELECT()
 13: 0x002C [0x02] IF !(Work_Zone[0] == 0*) GOTO 0x0045
 14: 0x0034 [0x42] SET_CLI_EVENT_CANCEL_DATA()
 15: 0x0035 [0x1D] PRINT_EVENT_MESSAGE(message_id=8425*)
    → "Hand over the lettaru, you say, and you'll deliver it for me? Please! Spare my tender-wender heart this jest!"
 16: 0x0038 [0x23] WAIT_FOR_DIALOG_INTERACTION
 17: 0x0039 [0x1D] PRINT_EVENT_MESSAGE(message_id=8426*)
    → "It is no jest, you say? Could this truly be happening? Dare I trust this stranger with my hopes and dreams? Oh, thank you, kind [sir/madam]. Thank you from the bottom of my soul!"
 18: 0x003C [0x23] WAIT_FOR_DIALOG_INTERACTION
 19: 0x003D [0x03] Work_Zone[1] = 1*
 20: 0x0042 [0x01] GOTO 0x0059
 21: 0x0045 [0x02] IF !(Work_Zone[0] == 1*) GOTO 0x0059
 22: 0x004D [0x1D] PRINT_EVENT_MESSAGE(message_id=8427*)
    → "...... Pay this poor Taru no heed, friend. I would not presume to distract you from the myriad-wyriad important tasks you have at hand."
 23: 0x0050 [0x23] WAIT_FOR_DIALOG_INTERACTION
 24: 0x0051 [0x03] Work_Zone[1] = 2*
 25: 0x0056 [0x01] GOTO 0x0059

SUBROUTINE_0059:
 26: 0x0059 [0x21] END_EVENT
 27: 0x005A [0x00] END_REQSTACK()
```

### Event 1085

#### Metadata

| Field        | Value    |
|--------------|----------|
| Entrypoint   | 0x005B   |
| Data Size    | 11 bytes |
| Instructions | 5        |

```
      00 01 02 03 04 05 06 07  08 09 0A 0B 0C 0D 0E 0F
      -- -- -- -- -- -- -- --  -- -- -- -- -- -- -- --
0050:                                   1E F0 FF FF 7F             .....
0060: 1D 0C 80 23 21 00                                 ...#!.          
```

#### Opcodes

```
  0: 0x005B [0x1E] EventEntity looks at LocalPlayer and starts talking
  1: 0x0060 [0x1D] PRINT_EVENT_MESSAGE(message_id=8428*)
    → "Any luck with that letter, friend? <Sigh>... What I would not give just to know that my wife and child are safe and sound..."
  2: 0x0063 [0x23] WAIT_FOR_DIALOG_INTERACTION
  3: 0x0064 [0x21] END_EVENT
  4: 0x0065 [0x00] END_REQSTACK()
```

### Event 1086

#### Metadata

| Field        | Value    |
|--------------|----------|
| Entrypoint   | 0x0066   |
| Data Size    | 88 bytes |
| Instructions | 36       |

```
      00 01 02 03 04 05 06 07  08 09 0A 0B 0C 0D 0E 0F
      -- -- -- -- -- -- -- --  -- -- -- -- -- -- -- --
0060:                   42 1E  F0 FF FF 7F 1D 0C 80 23        B........#
0070: 1D 0D 80 23 1D 0E 80 23  1C 0F 80 1D 10 80 23 1D  ...#...#......#.
0080: 11 80 23 1D 12 80 23 1D  13 80 23 1D 14 80 23 1D  ..#...#...#...#.
0090: 15 80 23 1D 16 80 23 1D  17 80 23 1D 18 80 23 1D  ..#...#...#...#.
00A0: 19 80 23 1D 1A 80 23 1D  1B 80 23 45 1C 80 F0 FF  ..#...#...#E....
00B0: FF 7F F0 FF FF 7F 71 73  74 63 06 80 21 00        ......qstc..!.  
```

#### Opcodes

```
  0: 0x0066 [0x42] SET_CLI_EVENT_CANCEL_DATA()
  1: 0x0067 [0x1E] EventEntity looks at LocalPlayer and starts talking
  2: 0x006C [0x1D] PRINT_EVENT_MESSAGE(message_id=8428*)
    → "Any luck with that letter, friend? <Sigh>... What I would not give just to know that my wife and child are safe and sound..."
  3: 0x006F [0x23] WAIT_FOR_DIALOG_INTERACTION
  4: 0x0070 [0x1D] PRINT_EVENT_MESSAGE(message_id=8429*)
    → "You delivered the letter? Get outaru of here! Really, honestly, truly?"
  5: 0x0073 [0x23] WAIT_FOR_DIALOG_INTERACTION
  6: 0x0074 [0x1D] PRINT_EVENT_MESSAGE(message_id=8430*)
    → "What? Something for me from my dearest Naruru?"
  7: 0x0077 [0x23] WAIT_FOR_DIALOG_INTERACTION
  8: 0x0078 [0x1C] WAIT(120* ticks)
  9: 0x007B [0x1D] PRINT_EVENT_MESSAGE(message_id=8431*)
    → "Naruru! My beloved! Can you hear me!?"
 10: 0x007E [0x23] WAIT_FOR_DIALOG_INTERACTION
 11: 0x007F [0x1D] PRINT_EVENT_MESSAGE(message_id=8432*)
    → "Yes, it is I, your sweetaru pamama! Oh, Naruru! Your gentle voice is like unto the Goddess herself to my ears!"
 12: 0x0082 [0x23] WAIT_FOR_DIALOG_INTERACTION
 13: 0x0083 [0x1D] PRINT_EVENT_MESSAGE(message_id=8433*)
    → "Hm? Your airship? Razed by fiends and sent plummetaruing into the chasm? How horrible! I must thank every star in the heavens that you survived!"
 14: 0x0086 [0x23] WAIT_FOR_DIALOG_INTERACTION
 15: 0x0087 [0x1D] PRINT_EVENT_MESSAGE(message_id=8434*)
    → "But what of our precious-wecious Panta-Putta? ...Safe in Jeuno, you say!? Oh, please let it be so!"
 16: 0x008A [0x23] WAIT_FOR_DIALOG_INTERACTION
 17: 0x008B [0x1D] PRINT_EVENT_MESSAGE(message_id=8435*)
    → "...Excuse me for just a moment, my dear. I must pay proper due to the kind [man/woman] who made this momentaru possible."
 18: 0x008E [0x23] WAIT_FOR_DIALOG_INTERACTION
 19: 0x008F [0x1D] PRINT_EVENT_MESSAGE(message_id=8436*)
    → "Forgive me, [Mister/Missus]... <Player>, is it?"
 20: 0x0092 [0x23] WAIT_FOR_DIALOG_INTERACTION
 21: 0x0093 [0x1D] PRINT_EVENT_MESSAGE(message_id=8437*)
    → "For reconnecting me with my beloved, I could thank you a thousand-wousand times and still it would not suffice. Thank you! Thank you! Thank you! Thank you! Thank you! Thank...<cough>..."
 22: 0x0096 [0x23] WAIT_FOR_DIALOG_INTERACTION
 23: 0x0097 [0x1D] PRINT_EVENT_MESSAGE(message_id=8438*)
    → "<Cough>... Forgive me. Still, a few of my dear wife's words were a bit disconcertaruing. Does she not remember that Jeuno, not unlike the three nations, fell that day that the skies turned red...?"
 24: 0x009A [0x23] WAIT_FOR_DIALOG_INTERACTION
 25: 0x009B [0x1D] PRINT_EVENT_MESSAGE(message_id=8439*)
    → "She was fortunate indeed to escape by airship... But what of our gentle-wentle child? Does he truly still live!?"
 26: 0x009E [0x23] WAIT_FOR_DIALOG_INTERACTION
 27: 0x009F [0x1D] PRINT_EVENT_MESSAGE(message_id=8440*)
    → "But no...I cannot allow myself to indulge in excess optimism... After all, until moments ago, I was certain that I had lostaru them both."
 28: 0x00A2 [0x23] WAIT_FOR_DIALOG_INTERACTION
 29: 0x00A3 [0x1D] PRINT_EVENT_MESSAGE(message_id=8441*)
    → "I want you to have this. I built many such trifling-wifling things for my son, in hopes of reuniting with him someday...but...but..."
 30: 0x00A6 [0x23] WAIT_FOR_DIALOG_INTERACTION
 31: 0x00A7 [0x1D] PRINT_EVENT_MESSAGE(message_id=8442*)
    → "No, I must acceptaru reality, and be thankful for what I have. You've given me much peace of mind, <Player>. I thank you."
 32: 0x00AA [0x23] WAIT_FOR_DIALOG_INTERACTION
 33: 0x00AB [0x45] LOAD_SCHEDULED_TASK: Load scheduler "qstc" with entities [LocalPlayer, LocalPlayer], work=[201*, 0*]
 34: 0x00BC [0x21] END_EVENT
 35: 0x00BD [0x00] END_REQSTACK()
```

### Event 1087

#### Metadata

| Field        | Value    |
|--------------|----------|
| Entrypoint   | 0x00BE   |
| Data Size    | 11 bytes |
| Instructions | 5        |

```
      00 01 02 03 04 05 06 07  08 09 0A 0B 0C 0D 0E 0F
      -- -- -- -- -- -- -- --  -- -- -- -- -- -- -- --
00B0:                                            1E F0                ..
00C0: FF FF 7F 1D 16 80 23 21  00                       ......#!.       
```

#### Opcodes

```
  0: 0x00BE [0x1E] EventEntity looks at LocalPlayer and starts talking
  1: 0x00C3 [0x1D] PRINT_EVENT_MESSAGE(message_id=8437*)
    → "For reconnecting me with my beloved, I could thank you a thousand-wousand times and still it would not suffice. Thank you! Thank you! Thank you! Thank you! Thank you! Thank...<cough>..."
  2: 0x00C6 [0x23] WAIT_FOR_DIALOG_INTERACTION
  3: 0x00C7 [0x21] END_EVENT
  4: 0x00C8 [0x00] END_REQSTACK()
```
