# 17666727 - Rear Trap

## Common Data

| Field            | Value                       |
|------------------|-----------------------------|
| Zone             | Abyssea - Vunkerl (ID: 217) |
| Block Size       | 408 bytes                   |
| Total Events     | 2                           |
| References Count | 12                          |

## List of Events

| Event ID              | Entrypoint   |   Size |   Instructions |
|-----------------------|--------------|--------|----------------|
| [65535](#event-65535) | 0x0000       |      1 |              1 |
| [127](#event-127)     | 0x0001       |    333 |             70 |

## DAT References (imed_data)

|   Index | Hex Value   |   Dec Value |
|---------|-------------|-------------|
|       0 | 0x0001      |           1 |
|       1 | 0x1EBE      |        7870 |
|       2 | 0x0000      |           0 |
|       3 | 0x0002      |           2 |
|       4 | 0x0003      |           3 |
|       5 | 0x0004      |           4 |
|       6 | 0x1EC1      |        7873 |
|       7 | 0x1EBF      |        7871 |
|       8 | 0x40000000  |  1073741824 |
|       9 | 0x1EC3      |        7875 |
|      10 | 0x1EC6      |        7878 |
|      11 | 0x1EC7      |        7879 |

## String References

- **7870**: A [fore trap/rear trap] hovers before you. This area appears to be [one of the three verges/an enemy invasion route].
- **7871**: What will you do? [Nothing./Prime the trap for infusion./Commence trap fluid infusion./Cease trap fluid infusion./Cease infusing other [fore/rear] trap.]
- **7873**: You can prime only one [fore trap/rear trap] for infusion at any given time.
- **7875**: Commence infusion? [Yes./No.]
- **7878**: Cease infusion? [Yes./No.]
- **7879**: Cease infusing other [fore/rear] trap? [Yes./No.]

## Events

### Event 65535

#### Metadata

| Field        | Value   |
|--------------|---------|
| Entrypoint   | 0x0000  |
| Data Size    | 1 bytes |
| Instructions | 1       |

```
      00 01 02 03 04 05 06 07  08 09 0A 0B 0C 0D 0E 0F
      -- -- -- -- -- -- -- --  -- -- -- -- -- -- -- --
0000: 00                                                .               
```

#### Opcodes

```
  0: 0x0000 [0x00] END_REQSTACK()
```

### Event 127

#### Metadata

| Field        | Value     |
|--------------|-----------|
| Entrypoint   | 0x0001    |
| Data Size    | 333 bytes |
| Instructions | 70        |

```
      00 01 02 03 04 05 06 07  08 09 0A 0B 0C 0D 0E 0F
      -- -- -- -- -- -- -- --  -- -- -- -- -- -- -- --
0000:    06 04 00 06 05 00 03  01 00 02 10 03 02 00 03   ...............
0010: 10 03 03 00 04 10 03 02  10 00 80 48 01 80 23 02  ...........H..#.
0020: 02 00 02 80 00 3F 00 3C  04 00 03 80 00 80 3C 04  .....?.<......<.
0030: 00 04 80 00 80 3C 04 00  05 80 00 80 01 76 00 02  .....<.......v..
0040: 02 00 01 00 01 68 00 3C  04 00 00 80 00 80 3C 04  .....h.<......<.
0050: 00 03 80 00 80 3C 04 00  04 80 00 80 03 02 10 00  .....<..........
0060: 80 48 06 80 23 01 76 00  3C 04 00 00 80 00 80 3C  .H..#.v.<......<
0070: 04 00 05 80 00 80 20 01  05 05 00 02 05 00 02 80  ...... .........
0080: 02 4C 01 03 02 10 00 80  24 07 80 02 80 04 00 25  .L......$......%
0090: 02 00 10 02 80 00 A3 00  06 05 00 03 01 10 08 80  ................
00A0: 01 49 01 02 00 10 00 80  00 B6 00 06 05 00 03 01  .I..............
00B0: 10 00 80 01 49 01 02 00  10 03 80 00 E7 00 24 09  ....I.........$.
00C0: 80 00 80 02 80 25 02 00  10 02 80 00 D9 00 06 05  .....%..........
00D0: 00 03 01 10 03 80 01 E4  00 02 00 10 00 80 00 E4  ................
00E0: 00 01 E4 00 01 49 01 02  00 10 04 80 00 18 01 24  .....I.........$
00F0: 0A 80 00 80 02 80 25 02  00 10 02 80 00 0A 01 06  ......%.........
0100: 05 00 03 01 10 04 80 01  15 01 02 00 10 00 80 00  ................
0110: 15 01 01 15 01 01 49 01  02 00 10 05 80 00 49 01  ......I.......I.
0120: 24 0B 80 00 80 02 80 25  02 00 10 02 80 00 3B 01  $......%......;.
0130: 06 05 00 03 01 10 05 80  01 46 01 02 00 10 00 80  .........F......
0140: 00 46 01 01 46 01 01 49  01 01 7B 00 21 00        .F..F..I..{.!.  
```

#### Opcodes

```
  0: 0x0001 [0x06] ExtData[1]->WorkLocal[4] = 0
  1: 0x0004 [0x06] ExtData[1]->WorkLocal[5] = 0
  2: 0x0007 [0x03] ExtData[1]->WorkLocal[1] = Work_Zone[2]
  3: 0x000C [0x03] ExtData[1]->WorkLocal[2] = Work_Zone[3]
  4: 0x0011 [0x03] ExtData[1]->WorkLocal[3] = Work_Zone[4]
  5: 0x0016 [0x03] Work_Zone[2] = 1*
  6: 0x001B [0x48] [System] [7870*]:
    → "A [fore trap/rear trap] hovers before you. This area appears to be [one of the three verges/an enemy invasion route]."
  7: 0x001E [0x23] WAIT_FOR_DIALOG_INTERACTION
  8: 0x001F [0x02] IF !(ExtData[1]->WorkLocal[2] == 0*) GOTO 0x003F
  9: 0x0027 [0x3C] SET_BIT_FLAG_CONDITIONAL(target_work_offset=ExtData[1]->WorkLocal[4], bit_index_work_offset=2*, condition_work_offset=1*)
 10: 0x002E [0x3C] SET_BIT_FLAG_CONDITIONAL(target_work_offset=ExtData[1]->WorkLocal[4], bit_index_work_offset=3*, condition_work_offset=1*)
 11: 0x0035 [0x3C] SET_BIT_FLAG_CONDITIONAL(target_work_offset=ExtData[1]->WorkLocal[4], bit_index_work_offset=4*, condition_work_offset=1*)
 12: 0x003C [0x01] GOTO 0x0076
 13: 0x003F [0x02] IF !(ExtData[1]->WorkLocal[2] == ExtData[1]->WorkLocal[1]) GOTO 0x0068
 14: 0x0047 [0x3C] SET_BIT_FLAG_CONDITIONAL(target_work_offset=ExtData[1]->WorkLocal[4], bit_index_work_offset=1*, condition_work_offset=1*)
 15: 0x004E [0x3C] SET_BIT_FLAG_CONDITIONAL(target_work_offset=ExtData[1]->WorkLocal[4], bit_index_work_offset=2*, condition_work_offset=1*)
 16: 0x0055 [0x3C] SET_BIT_FLAG_CONDITIONAL(target_work_offset=ExtData[1]->WorkLocal[4], bit_index_work_offset=3*, condition_work_offset=1*)
 17: 0x005C [0x03] Work_Zone[2] = 1*
 18: 0x0061 [0x48] [System] [7873*]:
    → "You can prime only one [fore trap/rear trap] for infusion at any given time."
 19: 0x0064 [0x23] WAIT_FOR_DIALOG_INTERACTION
 20: 0x0065 [0x01] GOTO 0x0076
 21: 0x0068 [0x3C] SET_BIT_FLAG_CONDITIONAL(target_work_offset=ExtData[1]->WorkLocal[4], bit_index_work_offset=1*, condition_work_offset=1*)
 22: 0x006F [0x3C] SET_BIT_FLAG_CONDITIONAL(target_work_offset=ExtData[1]->WorkLocal[4], bit_index_work_offset=4*, condition_work_offset=1*)

SUBROUTINE_0076:
 23: 0x0076 [0x20] SET_CLI_EVENT_UC_FLAG: Lock player control
 24: 0x0078 [0x05] ExtData[1]->WorkLocal[5] = 1

SUBROUTINE_007B:
 25: 0x007B [0x02] IF !(ExtData[1]->WorkLocal[5] <= 0*) GOTO 0x014C
 26: 0x0083 [0x03] Work_Zone[2] = 1*
 27: 0x0088 [0x24] CREATE_DIALOG(message_id=7871*, default_option=0*, option_flags=ExtData[1]->WorkLocal[4])
    → "What will you do? [Nothing./Prime the trap for infusion./Commence trap fluid infusion./Cease trap fluid infusion./Cease infusing other [fore/rear] trap.]"
 28: 0x008F [0x25] WAIT_DIALOG_SELECT()
 29: 0x0090 [0x02] IF !(Work_Zone[0] == 0*) GOTO 0x00A3
 30: 0x0098 [0x06] ExtData[1]->WorkLocal[5] = 0
 31: 0x009B [0x03] Work_Zone[1] = 1073741824*
 32: 0x00A0 [0x01] GOTO 0x0149
 33: 0x00A3 [0x02] IF !(Work_Zone[0] == 1*) GOTO 0x00B6
 34: 0x00AB [0x06] ExtData[1]->WorkLocal[5] = 0
 35: 0x00AE [0x03] Work_Zone[1] = 1*
 36: 0x00B3 [0x01] GOTO 0x0149
 37: 0x00B6 [0x02] IF !(Work_Zone[0] == 2*) GOTO 0x00E7
 38: 0x00BE [0x24] CREATE_DIALOG(message_id=7875*, default_option=1*, option_flags=0*)
    → "Commence infusion? [Yes./No.]"
 39: 0x00C5 [0x25] WAIT_DIALOG_SELECT()
 40: 0x00C6 [0x02] IF !(Work_Zone[0] == 0*) GOTO 0x00D9
 41: 0x00CE [0x06] ExtData[1]->WorkLocal[5] = 0
 42: 0x00D1 [0x03] Work_Zone[1] = 2*
 43: 0x00D6 [0x01] GOTO 0x00E4
 44: 0x00D9 [0x02] IF !(Work_Zone[0] == 1*) GOTO 0x00E4
 45: 0x00E1 [0x01] GOTO 0x00E4

SUBROUTINE_00E4:
 46: 0x00E4 [0x01] GOTO 0x0149
 47: 0x00E7 [0x02] IF !(Work_Zone[0] == 3*) GOTO 0x0118
 48: 0x00EF [0x24] CREATE_DIALOG(message_id=7878*, default_option=1*, option_flags=0*)
    → "Cease infusion? [Yes./No.]"
 49: 0x00F6 [0x25] WAIT_DIALOG_SELECT()
 50: 0x00F7 [0x02] IF !(Work_Zone[0] == 0*) GOTO 0x010A
 51: 0x00FF [0x06] ExtData[1]->WorkLocal[5] = 0
 52: 0x0102 [0x03] Work_Zone[1] = 3*
 53: 0x0107 [0x01] GOTO 0x0115
 54: 0x010A [0x02] IF !(Work_Zone[0] == 1*) GOTO 0x0115
 55: 0x0112 [0x01] GOTO 0x0115

SUBROUTINE_0115:
 56: 0x0115 [0x01] GOTO 0x0149
 57: 0x0118 [0x02] IF !(Work_Zone[0] == 4*) GOTO 0x0149
 58: 0x0120 [0x24] CREATE_DIALOG(message_id=7879*, default_option=1*, option_flags=0*)
    → "Cease infusing other [fore/rear] trap? [Yes./No.]"
 59: 0x0127 [0x25] WAIT_DIALOG_SELECT()
 60: 0x0128 [0x02] IF !(Work_Zone[0] == 0*) GOTO 0x013B
 61: 0x0130 [0x06] ExtData[1]->WorkLocal[5] = 0
 62: 0x0133 [0x03] Work_Zone[1] = 4*
 63: 0x0138 [0x01] GOTO 0x0146
 64: 0x013B [0x02] IF !(Work_Zone[0] == 1*) GOTO 0x0146
 65: 0x0143 [0x01] GOTO 0x0146

SUBROUTINE_0146:
 66: 0x0146 [0x01] GOTO 0x0149

SUBROUTINE_0149:
 67: 0x0149 [0x01] GOTO 0x007B
 68: 0x014C [0x21] END_EVENT
 69: 0x014D [0x00] END_REQSTACK()
```
