# 17666741 - Raifa

## Common Data

| Field            | Value                       |
|------------------|-----------------------------|
| Zone             | Abyssea - Vunkerl (ID: 217) |
| Block Size       | 356 bytes                   |
| Total Events     | 3                           |
| References Count | 22                          |

## List of Events

| Event ID              | Entrypoint   |   Size |   Instructions |
|-----------------------|--------------|--------|----------------|
| [65535](#event-65535) | 0x0000       |      1 |              1 |
| [1027](#event-1027)   | 0x0001       |     34 |             10 |
| [1028](#event-1028)   | 0x0023       |    204 |             34 |

## DAT References (imed_data)

|   Index | Hex Value   |   Dec Value |
|---------|-------------|-------------|
|       0 | 0x001E      |          30 |
|       1 | 0x0013      |          19 |
|       2 | 0x2024      |        8228 |
|       3 | 0x2025      |        8229 |
|       4 | 0x2027      |        8231 |
|       5 | 0x2028      |        8232 |
|       6 | 0x0000      |           0 |
|       7 | 0x0001      |           1 |
|       8 | 0x2026      |        8230 |
|       9 | 0x0002      |           2 |
|      10 | 0x2029      |        8233 |
|      11 | 0x202A      |        8234 |
|      12 | 0x202B      |        8235 |
|      13 | 0x00D9      |         217 |
|      14 | 0xFFFD4F10  |  4294790928 |
|      15 | 0xFFFAB498  |  4294620312 |
|      16 | 0xFFFB5F7F  |  4294664063 |
|      17 | 0xFFF5830A  |  4294279946 |
|      18 | 0x0003      |           3 |
|      19 | 0xFFF8A471  |  4294485105 |
|      20 | 0x8E518     |      582936 |
|      21 | 0x202C      |        8236 |

## String References

- **8228**: I'm Raifa, High Bear's research assistant. Though in truth, I'm more of a lackey whose existence he only sees fit to acknowledge when there's especially hazardous field work to be done...
- **8229**: At any rate, I can share with you our latest findings on the water quality, if you're keen to know.
- **8230**: The current water quality in the inlet is [simply spectacular!/fair to middling./on the poor side./fairly foul./surpassingly stagnant.]
- **8231**: Yes? Is there something you need of me?
- **8232**: Ask about something? [Not at the moment./Current water condition./Directions to water sources.]
- **8233**: Oh, have you forgotten? High Bear would scold you for forgetting, but not me.
- **8234**: You'll find two to the southwest, not far from here, and another a distance away to the northwest.
- **8235**: Oh, you have a map! Why didn't you say so sooner?
- **8236**: In that case, I'll mark them here...just like so! This should keep you from going astray.

## Events

### Event 65535

#### Metadata

| Field        | Value   |
|--------------|---------|
| Entrypoint   | 0x0000  |
| Data Size    | 1 bytes |
| Instructions | 1       |

```
      00 01 02 03 04 05 06 07  08 09 0A 0B 0C 0D 0E 0F
      -- -- -- -- -- -- -- --  -- -- -- -- -- -- -- --
0000: 00                                                .               
```

#### Opcodes

```
  0: 0x0000 [0x00] END_REQSTACK()
```

### Event 1027

#### Metadata

| Field        | Value    |
|--------------|----------|
| Entrypoint   | 0x0001   |
| Data Size    | 34 bytes |
| Instructions | 10       |

```
      00 01 02 03 04 05 06 07  08 09 0A 0B 0C 0D 0E 0F
      -- -- -- -- -- -- -- --  -- -- -- -- -- -- -- --
0000:    42 1E F0 FF FF 7F 1C  00 80 66 01 80 F8 FF FF   B........f.....
0010: 7F F8 FF FF 7F 74 6C 6B  30 1D 02 80 23 1D 03 80  .....tlk0...#...
0020: 23 21 00                                          #!.             
```

#### Opcodes

```
  0: 0x0001 [0x42] SET_CLI_EVENT_CANCEL_DATA()
  1: 0x0002 [0x1E] EventEntity looks at LocalPlayer and starts talking
  2: 0x0007 [0x1C] WAIT(30* ticks)
  3: 0x000A [0x66] LOAD_EXT_SCHEDULER_MAIN: Load scheduler "tlk0" with entities [EventEntity, EventEntity], work=19*
  4: 0x0019 [0x1D] PRINT_EVENT_MESSAGE(message_id=8228*)
    → "I'm Raifa, High Bear's research assistant. Though in truth, I'm more of a lackey whose existence he only sees fit to acknowledge when there's especially hazardous field work to be done..."
  5: 0x001C [0x23] WAIT_FOR_DIALOG_INTERACTION
  6: 0x001D [0x1D] PRINT_EVENT_MESSAGE(message_id=8229*)
    → "At any rate, I can share with you our latest findings on the water quality, if you're keen to know."
  7: 0x0020 [0x23] WAIT_FOR_DIALOG_INTERACTION
  8: 0x0021 [0x21] END_EVENT
  9: 0x0022 [0x00] END_REQSTACK()
```

### Event 1028

#### Metadata

| Field        | Value     |
|--------------|-----------|
| Entrypoint   | 0x0023    |
| Data Size    | 204 bytes |
| Instructions | 34        |

```
      00 01 02 03 04 05 06 07  08 09 0A 0B 0C 0D 0E 0F
      -- -- -- -- -- -- -- --  -- -- -- -- -- -- -- --
0020:          1E F0 FF FF 7F  1C 00 80 1D 04 80 23 24     ...........#$
0030: 05 80 06 80 06 80 25 02  00 10 06 80 00 42 00 01  ......%......B..
0040: ED 00 02 00 10 07 80 00  60 00 66 01 80 F8 FF FF  ........`.f.....
0050: 7F F8 FF FF 7F 74 6C 6B  30 1D 08 80 23 01 ED 00  .....tlk0...#...
0060: 02 00 10 09 80 00 ED 00  1D 0A 80 23 1D 0B 80 23  ...........#...#
0070: 02 03 10 07 80 00 EA 00  42 66 01 80 F8 FF FF 7F  ........Bf......
0080: F8 FF FF 7F 74 6C 6B 30  1D 0C 80 23 8D 0D 80 06  ....tlk0...#....
0090: 80 1C 00 80 B8 0D 80 06  80 07 80 0E 80 0F 80 57  ...............W
00A0: 61 74 65 72 67 72 61 73  73 00 00 00 00 00 00 B8  atergrass.......
00B0: 0D 80 06 80 09 80 10 80  11 80 57 61 74 65 72 67  ..........Waterg
00C0: 72 61 73 73 00 00 00 00  00 00 B8 0D 80 06 80 12  rass............
00D0: 80 13 80 14 80 57 61 74  65 72 67 72 61 73 73 00  .....Watergrass.
00E0: 00 00 00 00 00 1D 15 80  23 8A 01 ED 00 21 00     ........#....!. 
```

#### Opcodes

```
  0: 0x0023 [0x1E] EventEntity looks at LocalPlayer and starts talking
  1: 0x0028 [0x1C] WAIT(30* ticks)
  2: 0x002B [0x1D] PRINT_EVENT_MESSAGE(message_id=8231*)
    → "Yes? Is there something you need of me?"
  3: 0x002E [0x23] WAIT_FOR_DIALOG_INTERACTION
  4: 0x002F [0x24] CREATE_DIALOG(message_id=8232*, default_option=0*, option_flags=0*)
    → "Ask about something? [Not at the moment./Current water condition./Directions to water sources.]"
  5: 0x0036 [0x25] WAIT_DIALOG_SELECT()
  6: 0x0037 [0x02] IF !(Work_Zone[0] == 0*) GOTO 0x0042
  7: 0x003F [0x01] GOTO 0x00ED
  8: 0x0042 [0x02] IF !(Work_Zone[0] == 1*) GOTO 0x0060
  9: 0x004A [0x66] LOAD_EXT_SCHEDULER_MAIN: Load scheduler "tlk0" with entities [EventEntity, EventEntity], work=19*
 10: 0x0059 [0x1D] PRINT_EVENT_MESSAGE(message_id=8230*)
    → "The current water quality in the inlet is [simply spectacular!/fair to middling./on the poor side./fairly foul./surpassingly stagnant.]"
 11: 0x005C [0x23] WAIT_FOR_DIALOG_INTERACTION
 12: 0x005D [0x01] GOTO 0x00ED
 13: 0x0060 [0x02] IF !(Work_Zone[0] == 2*) GOTO 0x00ED
 14: 0x0068 [0x1D] PRINT_EVENT_MESSAGE(message_id=8233*)
    → "Oh, have you forgotten? High Bear would scold you for forgetting, but not me."
 15: 0x006B [0x23] WAIT_FOR_DIALOG_INTERACTION
 16: 0x006C [0x1D] PRINT_EVENT_MESSAGE(message_id=8234*)
    → "You'll find two to the southwest, not far from here, and another a distance away to the northwest."
 17: 0x006F [0x23] WAIT_FOR_DIALOG_INTERACTION
 18: 0x0070 [0x02] IF !(Work_Zone[3] == 1*) GOTO 0x00EA
 19: 0x0078 [0x42] SET_CLI_EVENT_CANCEL_DATA()
 20: 0x0079 [0x66] LOAD_EXT_SCHEDULER_MAIN: Load scheduler "tlk0" with entities [EventEntity, EventEntity], work=19*
 21: 0x0088 [0x1D] PRINT_EVENT_MESSAGE(message_id=8235*)
    → "Oh, you have a map! Why didn't you say so sooner?"
 22: 0x008B [0x23] WAIT_FOR_DIALOG_INTERACTION
 23: 0x008C [0x8D] OPEN_MAP_WITH_PROPERTIES(map_id=217*, properties=0*)
 24: 0x0091 [0x1C] WAIT(30* ticks)
 25: 0x0094 [0xB8] MAP_ADD_MARKER_WITH_NAME(zone=217*, submap=0*, marker_id=1*, x_pos=-176.368*, y_pos=-346.984*, marker_name="Watergrass")
 26: 0x00AF [0xB8] MAP_ADD_MARKER_WITH_NAME(zone=217*, submap=0*, marker_id=2*, x_pos=-303.233*, y_pos=-687.350*, marker_name="Watergrass")
 27: 0x00CA [0xB8] MAP_ADD_MARKER_WITH_NAME(zone=217*, submap=0*, marker_id=3*, x_pos=-482.191*, y_pos=582.936*, marker_name="Watergrass")
 28: 0x00E5 [0x1D] PRINT_EVENT_MESSAGE(message_id=8236*)
    → "In that case, I'll mark them here...just like so! This should keep you from going astray."
 29: 0x00E8 [0x23] WAIT_FOR_DIALOG_INTERACTION
 30: 0x00E9 [0x8A] CLOSE_MAP()
 31: 0x00EA [0x01] GOTO 0x00ED

SUBROUTINE_00ED:
 32: 0x00ED [0x21] END_EVENT
 33: 0x00EE [0x00] END_REQSTACK()
```
