# 17666762 - Deraquien

## Common Data

| Field            | Value                       |
|------------------|-----------------------------|
| Zone             | Abyssea - Vunkerl (ID: 217) |
| Block Size       | 1100 bytes                  |
| Total Events     | 7                           |
| References Count | 63                          |

## List of Events

| Event ID              | Entrypoint   |   Size |   Instructions |
|-----------------------|--------------|--------|----------------|
| [65535](#event-65535) | 0x0000       |      1 |              1 |
| [1046](#event-1046)   | 0x0001       |    254 |             73 |
| [1047](#event-1047)   | 0x00FF       |    439 |            100 |
| [1048](#event-1048)   | 0x02B6       |      2 |              2 |
| [1049](#event-1049)   | 0x02B8       |     60 |             18 |
| [1050](#event-1050)   | 0x02F4       |     29 |              7 |
| [1051](#event-1051)   | 0x0311       |     16 |              8 |

## DAT References (imed_data)

|   Index | Hex Value   |   Dec Value |
|---------|-------------|-------------|
|       0 | 0x20B4      |        8372 |
|       1 | 0x20B5      |        8373 |
|       2 | 0x20B6      |        8374 |
|       3 | 0x20B7      |        8375 |
|       4 | 0x20B8      |        8376 |
|       5 | 0x20B9      |        8377 |
|       6 | 0x20BA      |        8378 |
|       7 | 0x003C      |          60 |
|       8 | 0x20BB      |        8379 |
|       9 | 0x20BC      |        8380 |
|      10 | 0x20BD      |        8381 |
|      11 | 0x20BE      |        8382 |
|      12 | 0x20BF      |        8383 |
|      13 | 0x20C0      |        8384 |
|      14 | 0x20C1      |        8385 |
|      15 | 0x20C2      |        8386 |
|      16 | 0x20C3      |        8387 |
|      17 | 0x20C4      |        8388 |
|      18 | 0x20A6      |        8358 |
|      19 | 0x0000      |           0 |
|      20 | 0x20C5      |        8389 |
|      21 | 0x20C6      |        8390 |
|      22 | 0x20C7      |        8391 |
|      23 | 0x20C8      |        8392 |
|      24 | 0x20C9      |        8393 |
|      25 | 0x0001      |           1 |
|      26 | 0x20CB      |        8395 |
|      27 | 0x0078      |         120 |
|      28 | 0x20CA      |        8394 |
|      29 | 0x20CC      |        8396 |
|      30 | 0x20CE      |        8398 |
|      31 | 0x0669      |        1641 |
|      32 | 0x066A      |        1642 |
|      33 | 0x066B      |        1643 |
|      34 | 0x20CF      |        8399 |
|      35 | 0x012C      |         300 |
|      36 | 0x004B      |          75 |
|      37 | 0x0064      |         100 |
|      38 | 0x20D0      |        8400 |
|      39 | 0x1F04      |        7940 |
|      40 | 0x20D3      |        8403 |
|      41 | 0x0007      |           7 |
|      42 | 0x0008      |           8 |
|      43 | 0x000F      |          15 |
|      44 | 0x02BC      |         700 |
|      45 | 0x20D1      |        8401 |
|      46 | 0x0002      |           2 |
|      47 | 0x05DC      |        1500 |
|      48 | 0x20D2      |        8402 |
|      49 | 0x0003      |           3 |
|      50 | 0xFFFFFF00  |  4294967040 |
|      51 | 0xFFFFFFFF  |  4294967295 |
|      52 | 0x20CD      |        8397 |
|      53 | 0x20D4      |        8404 |
|      54 | 0x20D5      |        8405 |
|      55 | 0x20D6      |        8406 |
|      56 | 0x20D7      |        8407 |
|      57 | 0x20D8      |        8408 |
|      58 | 0x20D9      |        8409 |
|      59 | 0x20DA      |        8410 |
|      60 | 0x20E2      |        8418 |
|      61 | 0x00C9      |         201 |
|      62 | 0x20DB      |        8411 |

## String References

- **7940**: Warning: Changing areas, logging out, or becoming disconnected will cause all data pertinent to this quest to be reset.
- **8358**: What say you? [Anything to aid the cause!/Sorry, I have better things to do.]
- **8372**: ...
- **8373**: Egads, [man/woman]! Pray don't s-scare a soldier on active duty like that! For a moment there, I mistook you for milord captain.
- **8374**: I am Deraquien, senior officer in charge of materials oversight for the Resistance. My current duties involve watching over this box...er, it should be around here somewhere. Anyhow, it is a most important task, or so milord captain assures me!
- **8375**: My more capable comrades are in the process of establishing a new outpost where we intend to make a stand against the Abyssean hordes. Sadly, the fiends have not shown us the consideration of waiting until our fortifications are complete to commence their attacks. As such, the transport of supplies has not been progressing as planned.
- **8376**: Would that I could rush to their aid, a supply pack over my shoulder and sword arm a-flailing! Yet, for some reason, my superiors have deemed me unsuited for active combat duty.
- **8378**: Perish the thought, milord captain! On the contrary, the nap in which I just partook has left me more alert and ready than ever!
- **8380**: L-losing their...<gulp>...l-lives!?
- **8383**: B-but milord captain, all of our men are currently engaged defending the p-perimeter from the hordes!
- **8385**: I do not-- Wait...What madness takes me!? Th-this is my chance! I...yes, I will go, milord captain! Your loyal Deraquien shall take blade in hand and--
- **8387**: B-but...milord captain!
- **8390**: M-milord captain! At the v-very least, let me accompany this [man/woman] to--
- **8392**: <Sigh>... Yes, milord captain.
- **8394**: <Sniff>... Is this my lot in life? To be a lowly box-watcher until the end of my days...?
- **8396**: Yes? Will you be taking on the transport mission that milord captain does not see fit to trust me with? Not that I'm jealous, of course...
- **8397**: Not up to the task? I told milord captain he should have asked me instead of some stranger. <Grumble, grumble>...
- **8398**: Wonderful! For all my grousing, I'm quite relieved not to have to risk life and limb. So, what will you be transporting for us? As milord captain stated, your remuneration will be commensurate with the difficulty of the task.
- **8399**: Transport which set of materials? [6./$6./$6./Nothing at the moment.]
- **8400**: That $3 should be a breeze to carry. The resistance will compensate you $3 cruor for your efforts.
- **8401**: The $3, you say? It's a bit on the weighty side, but should be manageable by one of your strength. We'll pay you $3 cruor for its safe delivery.
- **8402**: Transporting the $3 has proved nigh impossible to all but our strongest men. If you can manage to deliver it safely, you will be handsomely rewarded. What would you say to $3 cruor?
- **8403**: Transport this one? [Yes./No.]
- **8404**: Wonderful. You'll want to deliver it to Elmemague at the outpost. Why did he not just carry it himself, you say? Shhh! Milord captain works in mysterious ways.
- **8405**: It's a good distance from here to the southeast. If you cross two bridges, you'll know you're headed in the right direction.
- **8406**: One last thing: these are sensitive materials, and unlikely to survive the stress of conflux transport, so I'd advise you against trying to take any shortcuts. I should know. I've tried--and failed--countless times!
- **8407**: Yes? What seems to be the matter?
- **8408**: Abandon the transport mission? [Yes, I give up./No, I will press on!]
- **8409**: Is that so? Perhaps 'twas a bit too weighty a task for you. Ahah! Ahahaha...<ahem>...Pardon me.
- **8410**: Then why are you standing around here talking to a slacker like me? Get back out there!
- **8411**: Broken, you say? Tsk tsk...I warned you against trying to take any shortcuts, did I not? Fortunately, we don't exactly have a shortage here, so you're free to try your hand again.
- **8418**: Oh, you're back. Seems milord captain was right...you're capable of more than I could ever hope to be. Very well, here's your...<sniff>...reward.

## Events

### Event 65535

#### Metadata

| Field        | Value   |
|--------------|---------|
| Entrypoint   | 0x0000  |
| Data Size    | 1 bytes |
| Instructions | 1       |

```
      00 01 02 03 04 05 06 07  08 09 0A 0B 0C 0D 0E 0F
      -- -- -- -- -- -- -- --  -- -- -- -- -- -- -- --
0000: 00                                                .               
```

#### Opcodes

```
  0: 0x0000 [0x00] END_REQSTACK()
```

### Event 1046

#### Metadata

| Field        | Value     |
|--------------|-----------|
| Entrypoint   | 0x0001    |
| Data Size    | 254 bytes |
| Instructions | 73        |

```
      00 01 02 03 04 05 06 07  08 09 0A 0B 0C 0D 0E 0F
      -- -- -- -- -- -- -- --  -- -- -- -- -- -- -- --
0000:    06 00 00 42 2F 00 CC  92 0D 01 4E 01 CC 92 0D   ...B/.....N....
0010: 01 1D 00 80 23 1E F0 FF  FF 7F 1D 01 80 23 1D 02  ....#........#..
0020: 80 23 1D 03 80 23 1D 04  80 23 4E 00 CC 92 0D 01  .#...#...#N.....
0030: 27 80 CC 92 0D 01 02 2B  CC 92 0D 01 05 80 23 1D  '......+......#.
0040: 06 80 1E CC 92 0D 01 1C  07 80 2B CC 92 0D 01 08  ..........+.....
0050: 80 23 1D 09 80 23 2B CC  92 0D 01 0A 80 23 2B CC  .#...#+......#+.
0060: 92 0D 01 0B 80 23 1D 0C  80 23 2B CC 92 0D 01 0D  .....#...#+.....
0070: 80 23 1D 0E 80 23 4A CC  92 0D 01 F0 FF FF 7F 2B  .#...#J........+
0080: CC 92 0D 01 0F 80 23 1D  10 80 23 2B CC 92 0D 01  ......#...#+....
0090: 11 80 23 24 12 80 13 80  13 80 25 02 00 10 13 80  ..#$......%.....
00A0: 00 CB 00 2B CC 92 0D 01  14 80 23 1D 15 80 23 2B  ...+......#...#+
00B0: CC 92 0D 01 16 80 23 1D  17 80 23 2B CC 92 0D 01  ......#...#+....
00C0: 18 80 23 03 00 00 19 80  01 DB 00 2B CC 92 0D 01  ..#........+....
00D0: 1A 80 23 2B CC 92 0D 01  18 80 23 27 80 CC 92 0D  ..#+......#'....
00E0: 01 03 1D 00 80 23 1C 1B  80 1E F0 FF FF 7F 1D 1C  .....#..........
00F0: 80 23 02 00 00 19 80 00  FD 00 01 24 01 21 00     .#.........$.!. 
```

#### Opcodes

```
  0: 0x0001 [0x06] ExtData[1]->WorkLocal[0] = 0
  1: 0x0004 [0x42] SET_CLI_EVENT_CANCEL_DATA()
  2: 0x0005 [0x2F] Elmemague (ID: 17666764/0x010D92CC)->Render.Flags0 &= ~0x80000 // Bit 19
  3: 0x000B [0x4E] SET_ENTITY_HIDE_FLAG: Hide Elmemague (ID: 17666764/0x010D92CC)
  4: 0x0011 [0x1D] PRINT_EVENT_MESSAGE(message_id=8372*)
    → "..."
  5: 0x0014 [0x23] WAIT_FOR_DIALOG_INTERACTION
  6: 0x0015 [0x1E] EventEntity looks at LocalPlayer and starts talking
  7: 0x001A [0x1D] PRINT_EVENT_MESSAGE(message_id=8373*)
    → "Egads, [man/woman]! Pray don't s-scare a soldier on active duty like that! For a moment there, I mistook you for milord captain."
  8: 0x001D [0x23] WAIT_FOR_DIALOG_INTERACTION
  9: 0x001E [0x1D] PRINT_EVENT_MESSAGE(message_id=8374*)
    → "I am Deraquien, senior officer in charge of materials oversight for the Resistance. My current duties involve watching over this box...er, it should be around here somewhere. Anyhow, it is a most important task, or so milord captain assures me!"
 10: 0x0021 [0x23] WAIT_FOR_DIALOG_INTERACTION
 11: 0x0022 [0x1D] PRINT_EVENT_MESSAGE(message_id=8375*)
    → "My more capable comrades are in the process of establishing a new outpost where we intend to make a stand against the Abyssean hordes. Sadly, the fiends have not shown us the consideration of waiting until our fortifications are complete to commence their attacks. As such, the transport of supplies has not been progressing as planned."
 12: 0x0025 [0x23] WAIT_FOR_DIALOG_INTERACTION
 13: 0x0026 [0x1D] PRINT_EVENT_MESSAGE(message_id=8376*)
    → "Would that I could rush to their aid, a supply pack over my shoulder and sword arm a-flailing! Yet, for some reason, my superiors have deemed me unsuited for active combat duty."
 14: 0x0029 [0x23] WAIT_FOR_DIALOG_INTERACTION
 15: 0x002A [0x4E] SET_ENTITY_HIDE_FLAG: Show Elmemague (ID: 17666764/0x010D92CC)
 16: 0x0030 [0x27] REQ_SET(priority=0x80, entity_id=Elmemague (ID: 17666764/0x010D92CC), tag_num=0x02)
 17: 0x0037 [0x2B] Elmemague (ID: 17666764/0x010D92CC) [8377*]:
    → "You there! I hope for both our sakes that you've not been shirking your duties again!"
 18: 0x003E [0x23] WAIT_FOR_DIALOG_INTERACTION
 19: 0x003F [0x1D] PRINT_EVENT_MESSAGE(message_id=8378*)
    → "Perish the thought, milord captain! On the contrary, the nap in which I just partook has left me more alert and ready than ever!"
 20: 0x0042 [0x1E] EventEntity looks at Elmemague (ID: 17666764/0x010D92CC) and starts talking
 21: 0x0047 [0x1C] WAIT(60* ticks)
 22: 0x004A [0x2B] Elmemague (ID: 17666764/0x010D92CC) [8379*]:
    → "Fool! Brave men and women are losing their lives while you sit here drowsing and doddering!"
 23: 0x0051 [0x23] WAIT_FOR_DIALOG_INTERACTION
 24: 0x0052 [0x1D] PRINT_EVENT_MESSAGE(message_id=8380*)
    → "L-losing their...<gulp>...l-lives!?"
 25: 0x0055 [0x23] WAIT_FOR_DIALOG_INTERACTION
 26: 0x0056 [0x2B] Elmemague (ID: 17666764/0x010D92CC) [8381*]:
    → "That's what I just said! Have you gone stone deaf as well as dumb?"
 27: 0x005D [0x23] WAIT_FOR_DIALOG_INTERACTION
 28: 0x005E [0x2B] Elmemague (ID: 17666764/0x010D92CC) [8382*]:
    → "Now listen! Unless we bolster our defenses, the outpost--nay, our entire resistance effort--is in grave peril. I need those materials delivered with all speed!"
 29: 0x0065 [0x23] WAIT_FOR_DIALOG_INTERACTION
 30: 0x0066 [0x1D] PRINT_EVENT_MESSAGE(message_id=8383*)
    → "B-but milord captain, all of our men are currently engaged defending the p-perimeter from the hordes!"
 31: 0x0069 [0x23] WAIT_FOR_DIALOG_INTERACTION
 32: 0x006A [0x2B] Elmemague (ID: 17666764/0x010D92CC) [8384*]:
    → "Curses! Is there not a single able sword arm here that I can trust with this mission?"
 33: 0x0071 [0x23] WAIT_FOR_DIALOG_INTERACTION
 34: 0x0072 [0x1D] PRINT_EVENT_MESSAGE(message_id=8385*)
    → "I do not-- Wait...What madness takes me!? Th-this is my chance! I...yes, I will go, milord captain! Your loyal Deraquien shall take blade in hand and--"
 35: 0x0075 [0x23] WAIT_FOR_DIALOG_INTERACTION
 36: 0x0076 [0x4A] Elmemague (ID: 17666764/0x010D92CC) looks at LocalPlayer
 37: 0x007F [0x2B] Elmemague (ID: 17666764/0x010D92CC) [8386*]:
    → "You there, stranger! You strike me as the capable sort. What say you lend your strength to the resistance? I can promise that you will be rewarded in kind."
 38: 0x0086 [0x23] WAIT_FOR_DIALOG_INTERACTION
 39: 0x0087 [0x1D] PRINT_EVENT_MESSAGE(message_id=8387*)
    → "B-but...milord captain!"
 40: 0x008A [0x23] WAIT_FOR_DIALOG_INTERACTION
 41: 0x008B [0x2B] Elmemague (ID: 17666764/0x010D92CC) [8388*]:
    → "I beg of you! As you can see quite plainly, there is no one else within a malm of here that's up to the task. What say you?"
 42: 0x0092 [0x23] WAIT_FOR_DIALOG_INTERACTION
 43: 0x0093 [0x24] CREATE_DIALOG(message_id=8358*, default_option=0*, option_flags=0*)
    → "What say you? [Anything to aid the cause!/Sorry, I have better things to do.]"
 44: 0x009A [0x25] WAIT_DIALOG_SELECT()
 45: 0x009B [0x02] IF !(Work_Zone[0] == 0*) GOTO 0x00CB
 46: 0x00A3 [0x2B] Elmemague (ID: 17666764/0x010D92CC) [8389*]:
    → "Wonderful! It heartens me to welcome a strong ally to the ranks. Speak to my subordinate here--what was his name again?--and he will provide you with the supplies in need of delivery."
 47: 0x00AA [0x23] WAIT_FOR_DIALOG_INTERACTION
 48: 0x00AB [0x1D] PRINT_EVENT_MESSAGE(message_id=8390*)
    → "M-milord captain! At the v-very least, let me accompany this [man/woman] to--"
 49: 0x00AE [0x23] WAIT_FOR_DIALOG_INTERACTION
 50: 0x00AF [0x2B] Elmemague (ID: 17666764/0x010D92CC) [8391*]:
    → "Hm? Did you hear something just now? A whimpering voice, akin to the mewlings of a frightened coeurl kitten? At any rate, I'll be trusting you to furnish our brave new comrade here with the supplies, soldier."
 51: 0x00B6 [0x23] WAIT_FOR_DIALOG_INTERACTION
 52: 0x00B7 [0x1D] PRINT_EVENT_MESSAGE(message_id=8392*)
    → "<Sigh>... Yes, milord captain."
 53: 0x00BA [0x23] WAIT_FOR_DIALOG_INTERACTION
 54: 0x00BB [0x2B] Elmemague (ID: 17666764/0x010D92CC) [8393*]:
    → "And with that, I take my leave. Go in safety, friend!"
 55: 0x00C2 [0x23] WAIT_FOR_DIALOG_INTERACTION
 56: 0x00C3 [0x03] ExtData[1]->WorkLocal[0] = 1*
 57: 0x00C8 [0x01] GOTO 0x00DB
 58: 0x00CB [0x2B] Elmemague (ID: 17666764/0x010D92CC) [8395*]:
    → "Ah, 'tis a shame! Well, should you ever change your mind, just speak to what's-his-name here."
 59: 0x00D2 [0x23] WAIT_FOR_DIALOG_INTERACTION
 60: 0x00D3 [0x2B] Elmemague (ID: 17666764/0x010D92CC) [8393*]:
    → "And with that, I take my leave. Go in safety, friend!"
 61: 0x00DA [0x23] WAIT_FOR_DIALOG_INTERACTION

SUBROUTINE_00DB:
 62: 0x00DB [0x27] REQ_SET(priority=0x80, entity_id=Elmemague (ID: 17666764/0x010D92CC), tag_num=0x03)
 63: 0x00E2 [0x1D] PRINT_EVENT_MESSAGE(message_id=8372*)
    → "..."
 64: 0x00E5 [0x23] WAIT_FOR_DIALOG_INTERACTION
 65: 0x00E6 [0x1C] WAIT(120* ticks)
 66: 0x00E9 [0x1E] EventEntity looks at LocalPlayer and starts talking
 67: 0x00EE [0x1D] PRINT_EVENT_MESSAGE(message_id=8394*)
    → "<Sniff>... Is this my lot in life? To be a lowly box-watcher until the end of my days...?"
 68: 0x00F1 [0x23] WAIT_FOR_DIALOG_INTERACTION
 69: 0x00F2 [0x02] IF !(ExtData[1]->WorkLocal[0] == 1*) GOTO 0x00FD
 70: 0x00FA [0x01] GOTO 0x0124
 71: 0x00FD [0x21] END_EVENT
 72: 0x00FE [0x00] END_REQSTACK()
```

### Event 1047

#### Metadata

| Field        | Value     |
|--------------|-----------|
| Entrypoint   | 0x00FF    |
| Data Size    | 439 bytes |
| Instructions | 100       |

```
      00 01 02 03 04 05 06 07  08 09 0A 0B 0C 0D 0E 0F
      -- -- -- -- -- -- -- --  -- -- -- -- -- -- -- --
00F0:                                               03                 .
0100: 02 00 02 10 06 00 00 1E  F0 FF FF 7F 1D 1D 80 23  ...............#
0110: 24 12 80 13 80 13 80 25  02 00 10 13 80 00 AD 02  $......%........
0120: 1D 1E 80 23 06 01 00 02  01 00 13 80 00 96 02 03  ...#............
0130: 02 10 1F 80 03 03 10 20  80 03 04 10 21 80 24 22  ....... ....!.$"
0140: 80 13 80 13 80 25 02 00  10 13 80 00 A8 01 03 05  .....%..........
0150: 10 23 80 02 02 00 13 80  01 65 01 14 05 10 24 80  .#.......e....$.
0160: 15 05 10 25 80 1D 26 80  23 48 27 80 24 28 80 13  ...%..&.#H'.$(..
0170: 80 13 80 25 02 00 10 13  80 00 9A 01 42 03 01 00  ...%........B...
0180: 19 80 06 01 10 40 13 80  29 80 01 10 19 80 40 2A  .....@..).....@*
0190: 80 2B 80 01 10 19 80 01  A5 01 02 00 10 19 80 00  .+..............
01A0: A5 01 01 A5 01 01 93 02  02 00 10 19 80 00 0A 02  ................
01B0: 03 05 10 2C 80 02 02 00  13 80 01 C7 01 14 05 10  ...,............
01C0: 24 80 15 05 10 25 80 1D  2D 80 23 48 27 80 24 28  $....%..-.#H'.$(
01D0: 80 13 80 13 80 25 02 00  10 13 80 00 FC 01 42 03  .....%........B.
01E0: 01 00 19 80 06 01 10 40  13 80 29 80 01 10 19 80  .......@..).....
01F0: 40 2A 80 2B 80 01 10 2E  80 01 07 02 02 00 10 19  @*.+............
0200: 80 00 07 02 01 07 02 01  93 02 02 00 10 2E 80 00  ................
0210: 6C 02 03 05 10 2F 80 02  02 00 13 80 01 29 02 14  l..../.......)..
0220: 05 10 24 80 15 05 10 25  80 1D 30 80 23 48 27 80  ..$....%..0.#H'.
0230: 24 28 80 13 80 13 80 25  02 00 10 13 80 00 5E 02  $(.....%......^.
0240: 42 03 01 00 19 80 06 01  10 40 13 80 29 80 01 10  B........@..)...
0250: 19 80 40 2A 80 2B 80 01  10 31 80 01 69 02 02 00  ..@*.+...1..i...
0260: 10 19 80 00 69 02 01 69  02 01 93 02 02 00 10 31  ....i..i.......1
0270: 80 00 93 02 02 00 00 19  80 00 84 02 03 01 10 32  ...............2
0280: 80 01 87 02 06 01 10 03  01 00 33 80 1D 34 80 23  ..........3..4.#
0290: 01 93 02 01 27 01 02 01  00 19 80 00 AA 02 1D 35  ....'..........5
02A0: 80 23 1D 36 80 23 1D 37  80 23 01 B4 02 1D 34 80  .#.6.#.7.#....4.
02B0: 23 06 01 10 21 00                                 #...!.          
```

#### Opcodes

```
  0: 0x00FF [0x03] ExtData[1]->WorkLocal[2] = Work_Zone[2]
  1: 0x0104 [0x06] ExtData[1]->WorkLocal[0] = 0
  2: 0x0107 [0x1E] EventEntity looks at LocalPlayer and starts talking
  3: 0x010C [0x1D] PRINT_EVENT_MESSAGE(message_id=8396*)
    → "Yes? Will you be taking on the transport mission that milord captain does not see fit to trust me with? Not that I'm jealous, of course..."
  4: 0x010F [0x23] WAIT_FOR_DIALOG_INTERACTION
  5: 0x0110 [0x24] CREATE_DIALOG(message_id=8358*, default_option=0*, option_flags=0*)
    → "What say you? [Anything to aid the cause!/Sorry, I have better things to do.]"
  6: 0x0117 [0x25] WAIT_DIALOG_SELECT()
  7: 0x0118 [0x02] IF !(Work_Zone[0] == 0*) GOTO 0x02AD
  8: 0x0120 [0x1D] PRINT_EVENT_MESSAGE(message_id=8398*)
    → "Wonderful! For all my grousing, I'm quite relieved not to have to risk life and limb. So, what will you be transporting for us? As milord captain stated, your remuneration will be commensurate with the difficulty of the task."
  9: 0x0123 [0x23] WAIT_FOR_DIALOG_INTERACTION
 10: 0x0124 [0x06] ExtData[1]->WorkLocal[1] = 0
 11: 0x0127 [0x02] IF !(ExtData[1]->WorkLocal[1] == 0*) GOTO 0x0296
 12: 0x012F [0x03] Work_Zone[2] = 1641*
 13: 0x0134 [0x03] Work_Zone[3] = 1642*
 14: 0x0139 [0x03] Work_Zone[4] = 1643*
 15: 0x013E [0x24] CREATE_DIALOG(message_id=8399*, default_option=0*, option_flags=0*)
    → "Transport which set of materials? [6./$6./$6./Nothing at the moment.]"
 16: 0x0145 [0x25] WAIT_DIALOG_SELECT()
 17: 0x0146 [0x02] IF !(Work_Zone[0] == 0*) GOTO 0x01A8
 18: 0x014E [0x03] Work_Zone[5] = 300*
 19: 0x0153 [0x02] IF !(ExtData[1]->WorkLocal[2] == 0*) GOTO 0x0165
 20: 0x015B [0x14] Work_Zone[5] *= 75*
 21: 0x0160 [0x15] Work_Zone[5] /= 100*
 22: 0x0165 [0x1D] PRINT_EVENT_MESSAGE(message_id=8400*)
    → "That $3 should be a breeze to carry. The resistance will compensate you $3 cruor for your efforts."
 23: 0x0168 [0x23] WAIT_FOR_DIALOG_INTERACTION
 24: 0x0169 [0x48] [System] [7940*]:
    → "Warning: Changing areas, logging out, or becoming disconnected will cause all data pertinent to this quest to be reset."
 25: 0x016C [0x24] CREATE_DIALOG(message_id=8403*, default_option=0*, option_flags=0*)
    → "Transport this one? [Yes./No.]"
 26: 0x0173 [0x25] WAIT_DIALOG_SELECT()
 27: 0x0174 [0x02] IF !(Work_Zone[0] == 0*) GOTO 0x019A
 28: 0x017C [0x42] SET_CLI_EVENT_CANCEL_DATA()
 29: 0x017D [0x03] ExtData[1]->WorkLocal[1] = 1*
 30: 0x0182 [0x06] Work_Zone[1] = 0
 31: 0x0185 [0x40] SET_BIT_WORK_RANGE(start_bit=0*, end_bit=7*, target=Work_Zone[1], source=1*)
 32: 0x018E [0x40] SET_BIT_WORK_RANGE(start_bit=8*, end_bit=15*, target=Work_Zone[1], source=1*)
 33: 0x0197 [0x01] GOTO 0x01A5
 34: 0x019A [0x02] IF !(Work_Zone[0] == 1*) GOTO 0x01A5
 35: 0x01A2 [0x01] GOTO 0x01A5

SUBROUTINE_01A5:
 36: 0x01A5 [0x01] GOTO 0x0293
 37: 0x01A8 [0x02] IF !(Work_Zone[0] == 1*) GOTO 0x020A
 38: 0x01B0 [0x03] Work_Zone[5] = 700*
 39: 0x01B5 [0x02] IF !(ExtData[1]->WorkLocal[2] == 0*) GOTO 0x01C7
 40: 0x01BD [0x14] Work_Zone[5] *= 75*
 41: 0x01C2 [0x15] Work_Zone[5] /= 100*
 42: 0x01C7 [0x1D] PRINT_EVENT_MESSAGE(message_id=8401*)
    → "The $3, you say? It's a bit on the weighty side, but should be manageable by one of your strength. We'll pay you $3 cruor for its safe delivery."
 43: 0x01CA [0x23] WAIT_FOR_DIALOG_INTERACTION
 44: 0x01CB [0x48] [System] [7940*]:
    → "Warning: Changing areas, logging out, or becoming disconnected will cause all data pertinent to this quest to be reset."
 45: 0x01CE [0x24] CREATE_DIALOG(message_id=8403*, default_option=0*, option_flags=0*)
    → "Transport this one? [Yes./No.]"
 46: 0x01D5 [0x25] WAIT_DIALOG_SELECT()
 47: 0x01D6 [0x02] IF !(Work_Zone[0] == 0*) GOTO 0x01FC
 48: 0x01DE [0x42] SET_CLI_EVENT_CANCEL_DATA()
 49: 0x01DF [0x03] ExtData[1]->WorkLocal[1] = 1*
 50: 0x01E4 [0x06] Work_Zone[1] = 0
 51: 0x01E7 [0x40] SET_BIT_WORK_RANGE(start_bit=0*, end_bit=7*, target=Work_Zone[1], source=1*)
 52: 0x01F0 [0x40] SET_BIT_WORK_RANGE(start_bit=8*, end_bit=15*, target=Work_Zone[1], source=2*)
 53: 0x01F9 [0x01] GOTO 0x0207
 54: 0x01FC [0x02] IF !(Work_Zone[0] == 1*) GOTO 0x0207
 55: 0x0204 [0x01] GOTO 0x0207

SUBROUTINE_0207:
 56: 0x0207 [0x01] GOTO 0x0293
 57: 0x020A [0x02] IF !(Work_Zone[0] == 2*) GOTO 0x026C
 58: 0x0212 [0x03] Work_Zone[5] = 1500*
 59: 0x0217 [0x02] IF !(ExtData[1]->WorkLocal[2] == 0*) GOTO 0x0229
 60: 0x021F [0x14] Work_Zone[5] *= 75*
 61: 0x0224 [0x15] Work_Zone[5] /= 100*
 62: 0x0229 [0x1D] PRINT_EVENT_MESSAGE(message_id=8402*)
    → "Transporting the $3 has proved nigh impossible to all but our strongest men. If you can manage to deliver it safely, you will be handsomely rewarded. What would you say to $3 cruor?"
 63: 0x022C [0x23] WAIT_FOR_DIALOG_INTERACTION
 64: 0x022D [0x48] [System] [7940*]:
    → "Warning: Changing areas, logging out, or becoming disconnected will cause all data pertinent to this quest to be reset."
 65: 0x0230 [0x24] CREATE_DIALOG(message_id=8403*, default_option=0*, option_flags=0*)
    → "Transport this one? [Yes./No.]"
 66: 0x0237 [0x25] WAIT_DIALOG_SELECT()
 67: 0x0238 [0x02] IF !(Work_Zone[0] == 0*) GOTO 0x025E
 68: 0x0240 [0x42] SET_CLI_EVENT_CANCEL_DATA()
 69: 0x0241 [0x03] ExtData[1]->WorkLocal[1] = 1*
 70: 0x0246 [0x06] Work_Zone[1] = 0
 71: 0x0249 [0x40] SET_BIT_WORK_RANGE(start_bit=0*, end_bit=7*, target=Work_Zone[1], source=1*)
 72: 0x0252 [0x40] SET_BIT_WORK_RANGE(start_bit=8*, end_bit=15*, target=Work_Zone[1], source=3*)
 73: 0x025B [0x01] GOTO 0x0269
 74: 0x025E [0x02] IF !(Work_Zone[0] == 1*) GOTO 0x0269
 75: 0x0266 [0x01] GOTO 0x0269

SUBROUTINE_0269:
 76: 0x0269 [0x01] GOTO 0x0293
 77: 0x026C [0x02] IF !(Work_Zone[0] == 3*) GOTO 0x0293
 78: 0x0274 [0x02] IF !(ExtData[1]->WorkLocal[0] == 1*) GOTO 0x0284
 79: 0x027C [0x03] Work_Zone[1] = 4294967040*
 80: 0x0281 [0x01] GOTO 0x0287
 81: 0x0284 [0x06] Work_Zone[1] = 0

SUBROUTINE_0287:
 82: 0x0287 [0x03] ExtData[1]->WorkLocal[1] = 4294967295*
 83: 0x028C [0x1D] PRINT_EVENT_MESSAGE(message_id=8397*)
    → "Not up to the task? I told milord captain he should have asked me instead of some stranger. <Grumble, grumble>..."
 84: 0x028F [0x23] WAIT_FOR_DIALOG_INTERACTION
 85: 0x0290 [0x01] GOTO 0x0293

SUBROUTINE_0293:
 86: 0x0293 [0x01] GOTO 0x0127
 87: 0x0296 [0x02] IF !(ExtData[1]->WorkLocal[1] == 1*) GOTO 0x02AA
 88: 0x029E [0x1D] PRINT_EVENT_MESSAGE(message_id=8404*)
    → "Wonderful. You'll want to deliver it to Elmemague at the outpost. Why did he not just carry it himself, you say? Shhh! Milord captain works in mysterious ways."
 89: 0x02A1 [0x23] WAIT_FOR_DIALOG_INTERACTION
 90: 0x02A2 [0x1D] PRINT_EVENT_MESSAGE(message_id=8405*)
    → "It's a good distance from here to the southeast. If you cross two bridges, you'll know you're headed in the right direction."
 91: 0x02A5 [0x23] WAIT_FOR_DIALOG_INTERACTION
 92: 0x02A6 [0x1D] PRINT_EVENT_MESSAGE(message_id=8406*)
    → "One last thing: these are sensitive materials, and unlikely to survive the stress of conflux transport, so I'd advise you against trying to take any shortcuts. I should know. I've tried--and failed--countless times!"
 93: 0x02A9 [0x23] WAIT_FOR_DIALOG_INTERACTION
 94: 0x02AA [0x01] GOTO 0x02B4
 95: 0x02AD [0x1D] PRINT_EVENT_MESSAGE(message_id=8397*)
    → "Not up to the task? I told milord captain he should have asked me instead of some stranger. <Grumble, grumble>..."
 96: 0x02B0 [0x23] WAIT_FOR_DIALOG_INTERACTION
 97: 0x02B1 [0x06] Work_Zone[1] = 0

SUBROUTINE_02B4:
 98: 0x02B4 [0x21] END_EVENT
 99: 0x02B5 [0x00] END_REQSTACK()
```

### Event 1048

#### Metadata

| Field        | Value   |
|--------------|---------|
| Entrypoint   | 0x02B6  |
| Data Size    | 2 bytes |
| Instructions | 2       |

```
      00 01 02 03 04 05 06 07  08 09 0A 0B 0C 0D 0E 0F
      -- -- -- -- -- -- -- --  -- -- -- -- -- -- -- --
02B0:                   21 00                                 !.        
```

#### Opcodes

```
  0: 0x02B6 [0x21] END_EVENT
  1: 0x02B7 [0x00] END_REQSTACK()
```

### Event 1049

#### Metadata

| Field        | Value    |
|--------------|----------|
| Entrypoint   | 0x02B8   |
| Data Size    | 60 bytes |
| Instructions | 18       |

```
      00 01 02 03 04 05 06 07  08 09 0A 0B 0C 0D 0E 0F
      -- -- -- -- -- -- -- --  -- -- -- -- -- -- -- --
02B0:                          1E F0 FF FF 7F 1D 38 80          ......8.
02C0: 23 24 39 80 13 80 13 80  25 02 00 10 13 80 00 DE  #$9.....%.......
02D0: 02 42 1D 3A 80 23 03 01  10 19 80 01 F2 02 02 00  .B.:.#..........
02E0: 10 19 80 00 F2 02 1D 3B  80 23 03 01 10 13 80 01  .......;.#......
02F0: F2 02 21 00                                       ..!.            
```

#### Opcodes

```
  0: 0x02B8 [0x1E] EventEntity looks at LocalPlayer and starts talking
  1: 0x02BD [0x1D] PRINT_EVENT_MESSAGE(message_id=8407*)
    → "Yes? What seems to be the matter?"
  2: 0x02C0 [0x23] WAIT_FOR_DIALOG_INTERACTION
  3: 0x02C1 [0x24] CREATE_DIALOG(message_id=8408*, default_option=0*, option_flags=0*)
    → "Abandon the transport mission? [Yes, I give up./No, I will press on!]"
  4: 0x02C8 [0x25] WAIT_DIALOG_SELECT()
  5: 0x02C9 [0x02] IF !(Work_Zone[0] == 0*) GOTO 0x02DE
  6: 0x02D1 [0x42] SET_CLI_EVENT_CANCEL_DATA()
  7: 0x02D2 [0x1D] PRINT_EVENT_MESSAGE(message_id=8409*)
    → "Is that so? Perhaps 'twas a bit too weighty a task for you. Ahah! Ahahaha...<ahem>...Pardon me."
  8: 0x02D5 [0x23] WAIT_FOR_DIALOG_INTERACTION
  9: 0x02D6 [0x03] Work_Zone[1] = 1*
 10: 0x02DB [0x01] GOTO 0x02F2
 11: 0x02DE [0x02] IF !(Work_Zone[0] == 1*) GOTO 0x02F2
 12: 0x02E6 [0x1D] PRINT_EVENT_MESSAGE(message_id=8410*)
    → "Then why are you standing around here talking to a slacker like me? Get back out there!"
 13: 0x02E9 [0x23] WAIT_FOR_DIALOG_INTERACTION
 14: 0x02EA [0x03] Work_Zone[1] = 0*
 15: 0x02EF [0x01] GOTO 0x02F2

SUBROUTINE_02F2:
 16: 0x02F2 [0x21] END_EVENT
 17: 0x02F3 [0x00] END_REQSTACK()
```

### Event 1050

#### Metadata

| Field        | Value    |
|--------------|----------|
| Entrypoint   | 0x02F4   |
| Data Size    | 29 bytes |
| Instructions | 7        |

```
      00 01 02 03 04 05 06 07  08 09 0A 0B 0C 0D 0E 0F
      -- -- -- -- -- -- -- --  -- -- -- -- -- -- -- --
02F0:             42 1E F0 FF  FF 7F 1D 3C 80 23 45 3D      B......<.#E=
0300: 80 F0 FF FF 7F F0 FF FF  7F 71 73 74 63 13 80 21  .........qstc..!
0310: 00                                                .               
```

#### Opcodes

```
  0: 0x02F4 [0x42] SET_CLI_EVENT_CANCEL_DATA()
  1: 0x02F5 [0x1E] EventEntity looks at LocalPlayer and starts talking
  2: 0x02FA [0x1D] PRINT_EVENT_MESSAGE(message_id=8418*)
    → "Oh, you're back. Seems milord captain was right...you're capable of more than I could ever hope to be. Very well, here's your...<sniff>...reward."
  3: 0x02FD [0x23] WAIT_FOR_DIALOG_INTERACTION
  4: 0x02FE [0x45] LOAD_SCHEDULED_TASK: Load scheduler "qstc" with entities [LocalPlayer, LocalPlayer], work=[201*, 0*]
  5: 0x030F [0x21] END_EVENT
  6: 0x0310 [0x00] END_REQSTACK()
```

### Event 1051

#### Metadata

| Field        | Value    |
|--------------|----------|
| Entrypoint   | 0x0311   |
| Data Size    | 16 bytes |
| Instructions | 8        |

```
      00 01 02 03 04 05 06 07  08 09 0A 0B 0C 0D 0E 0F
      -- -- -- -- -- -- -- --  -- -- -- -- -- -- -- --
0310:    42 1E F0 FF FF 7F 1D  38 80 23 1D 3E 80 23 21   B......8.#.>.#!
0320: 00                                                .               
```

#### Opcodes

```
  0: 0x0311 [0x42] SET_CLI_EVENT_CANCEL_DATA()
  1: 0x0312 [0x1E] EventEntity looks at LocalPlayer and starts talking
  2: 0x0317 [0x1D] PRINT_EVENT_MESSAGE(message_id=8407*)
    → "Yes? What seems to be the matter?"
  3: 0x031A [0x23] WAIT_FOR_DIALOG_INTERACTION
  4: 0x031B [0x1D] PRINT_EVENT_MESSAGE(message_id=8411*)
    → "Broken, you say? Tsk tsk...I warned you against trying to take any shortcuts, did I not? Fortunately, we don't exactly have a shortage here, so you're free to try your hand again."
  5: 0x031E [0x23] WAIT_FOR_DIALOG_INTERACTION
  6: 0x031F [0x21] END_EVENT
  7: 0x0320 [0x00] END_REQSTACK()
```
