# Event 314

## Metadata

| Field           | Value    |
|-----------------|----------|
| Event Index     | 5/45     |
| Offset          | 0x4ADF   |
| Data Size       | 52 bytes |
| Calculated Size | 52 bytes |
| Instructions    | 12       |

```
      00 01 02 03 04 05 06 07  08 09 0A 0B 0C 0D 0E 0F
      -- -- -- -- -- -- -- --  -- -- -- -- -- -- -- --
4AD0:                                               42                 B
4AE0: 48 14 81 1E F0 FF FF 7F  1C 15 81 66 00 80 F8 FF  H..........f....
4AF0: FF 7F F8 FF FF 7F 74 6C  6B 30 1D 16 81 23 1D 17  ......tlk0...#..
4B00: 81 23 66 00 80 F8 FF FF  7F F8 FF FF 7F 74 6C 6B  .#f..........tlk
4B10: 31 21 00                                          1!.             
```

## Opcodes

```
  0: 0x4ADF [0x42] SET_CLI_EVENT_CANCEL_DATA()
  1: 0x4AE0 [0x48] [System] [8109*]:
    → "\u001F\u000F\u0008's badge flashes brightly.\u007F1\u0000\u0007"
  2: 0x4AE3 [0x1E] EventEntity looks at LocalPlayer and starts talking
  3: 0x4AE8 [0x1C] WAIT(30* ticks)
  4: 0x4AEB [0x66] LOAD_EXT_SCHEDULER_MAIN(work_offset=69*, entity1=EventEntity, entity2=EventEntity, action="tlk0")
  5: 0x4AFA [0x1D] PRINT_EVENT_MESSAGE(message_id=8114*)
    → "So the Near East is recruiting mercenaries, are they? They must have something in their lands worth protecting.\u007F1\u0000\u0007"
  6: 0x4AFD [0x23] WAIT_FOR_DIALOG_INTERACTION
  7: 0x4AFE [0x1D] PRINT_EVENT_MESSAGE(message_id=8115*)
    → "We guard the archduke, but I wonder what they are protecting in Aht Urhgan...\u007F1\u0000\u0007"
  8: 0x4B01 [0x23] WAIT_FOR_DIALOG_INTERACTION
  9: 0x4B02 [0x66] LOAD_EXT_SCHEDULER_MAIN(work_offset=69*, entity1=EventEntity, entity2=EventEntity, action="tlk1")
 10: 0x4B11 [0x21] END_EVENT
 11: 0x4B12 [0x00] END_REQSTACK()
```
