# Event 65535

## Metadata

| Field           | Value    |
|-----------------|----------|
| Event Index     | 24/45    |
| Offset          | 0x4C6D   |
| Data Size       | 40 bytes |
| Calculated Size | 40 bytes |
| Instructions    | 8        |

```
      00 01 02 03 04 05 06 07  08 09 0A 0B 0C 0D 0E 0F
      -- -- -- -- -- -- -- --  -- -- -- -- -- -- -- --
4C60:                                         66 9B 80               f..
4C70: 43 60 0F 01 43 60 0F 01  64 69 73 30 1C 1C 81 32  C`..C`..dis0...2
4C80: 3B 80 1F 00 1D 81 1E 81  03 80 1F 01 6F 4B F8 FF  ;...........oK..
4C90: FF 7F 1F 81 00                                    .....           
```

## Opcodes

```
  0: 0x4C6D [0x66] LOAD_EXT_SCHEDULER_MAIN: Load scheduler "dis0" with entities [Khumo Daramasteh (ID: 17784899/0x010F6043), Khumo Daramasteh (ID: 17784899/0x010F6043)], work=52*
  1: 0x4C7C [0x1C] WAIT(120* ticks)
  2: 0x4C7F [0x32] ExtData[1]->MainSpeed = 11* * 0.1
  3: 0x4C82 [0x1F] MOVE_ENTITY: EventEntity moves to X=23.839*, Z=6.017*, Y=0.000*
  4: 0x4C8A [0x1F] MOVE_ENTITY: Update entity position (mode=1)
  5: 0x4C8C [0x6F] WAIT_FRAME_DELAY: Yield until WaitTime reaches zero
  6: 0x4C8D [0x4B] UPDATE_ENTITY_YAW(entity=EventEntity, yaw=3.77°*)
  7: 0x4C94 [0x00] END_REQSTACK()
```
