# Event 65535

## Metadata

| Field           | Value    |
|-----------------|----------|
| Event Index     | 32/45    |
| Offset          | 0x4DAE   |
| Data Size       | 45 bytes |
| Calculated Size | 45 bytes |
| Instructions    | 13       |

```
      00 01 02 03 04 05 06 07  08 09 0A 0B 0C 0D 0E 0F
      -- -- -- -- -- -- -- --  -- -- -- -- -- -- -- --
4DA0:                                            32 33                23
4DB0: 80 1F 00 30 81 31 81 03  80 1F 01 1C 15 81 39 32  ...0.1........92
4DC0: 81 1C 80 80 1F 00 33 81  34 81 03 80 1F 01 1C 15  ......3.4.......
4DD0: 81 39 35 81 1C 80 80 01  AE 4D 00                 .95......M.     
```

## Opcodes

```
  0: 0x4DAE [0x32] ExtData[1]->MainSpeed = 13* * 0.1
  1: 0x4DB1 [0x1F] MOVE_ENTITY: EventEntity moves to X=-96.584*, Z=-8.519*, Y=0.000*
  2: 0x4DB9 [0x1F] MOVE_ENTITY: Update entity position (mode=1)
  3: 0x4DBB [0x1C] WAIT(30* ticks)
  4: 0x4DBE [0x39] SET_ENTITY_DIRECTION(direction=19.7°*)
  5: 0x4DC1 [0x1C] WAIT(360* ticks)
  6: 0x4DC4 [0x1F] MOVE_ENTITY: EventEntity moves to X=-96.241*, Z=8.872*, Y=0.000*
  7: 0x4DCC [0x1F] MOVE_ENTITY: Update entity position (mode=1)
  8: 0x4DCE [0x1C] WAIT(30* ticks)
  9: 0x4DD1 [0x39] SET_ENTITY_DIRECTION(direction=2.8°*)
 10: 0x4DD4 [0x1C] WAIT(360* ticks)
 11: 0x4DD7 [0x01] GOTO 0x4DAE
```

## Data or dead code:

```
# Dead code (unreachable instructions):
     0x4DDA [0x00] END_REQSTACK()
```