# Event 65535

## Metadata

| Field           | Value    |
|-----------------|----------|
| Event Index     | 18/93    |
| Offset          | 0x00D2   |
| Data Size       | 44 bytes |
| Calculated Size | 44 bytes |
| Instructions    | 8        |

```
      00 01 02 03 04 05 06 07  08 09 0A 0B 0C 0D 0E 0F
      -- -- -- -- -- -- -- --  -- -- -- -- -- -- -- --
00D0:       32 09 80 1F 00 16  80 17 80 14 80 1F 01 4A    2............J
00E0: 90 10 10 01 F8 FF FF 7F  1C 18 80 4A 95 10 10 01  ...........J....
00F0: F8 FF FF 7F 4A F0 FF FF  7F F8 FF FF 7F 00        ....J.........  
```

## Opcodes

```
  0: 0x00D2 [0x32] ExtData[1]->MainSpeed = 13* * 0.1
  1: 0x00D5 [0x1F] MOVE_ENTITY: EventEntity moves to X=-31.086*, Z=-8.514*, Y=-0.500*
  2: 0x00DD [0x1F] MOVE_ENTITY: Update entity position (mode=1)
  3: 0x00DF [0x4A] Arciela (ID: 17830032/0x01101090) looks at EventEntity
  4: 0x00E8 [0x1C] WAIT(15* ticks)
  5: 0x00EB [0x4A] Ikhi Askamot (ID: 17830037/0x01101095) looks at EventEntity
  6: 0x00F4 [0x4A] LocalPlayer looks at EventEntity
  7: 0x00FD [0x00] END_REQSTACK()
```
