# Event 65535

## Metadata

| Field           | Value    |
|-----------------|----------|
| Event Index     | 13/93    |
| Offset          | 0x007C   |
| Data Size       | 56 bytes |
| Calculated Size | 56 bytes |
| Instructions    | 11       |

```
      00 01 02 03 04 05 06 07  08 09 0A 0B 0C 0D 0E 0F
      -- -- -- -- -- -- -- --  -- -- -- -- -- -- -- --
0070:                                      32 09 80 86              2...
0080: 01 F8 FF FF 7F 1F 00 0A  80 0B 80 0C 80 1F 01 1F  ................
0090: 00 0D 80 0E 80 0C 80 1F  01 1F 00 0F 80 10 80 0C  ................
00A0: 80 1F 01 6F 66 11 80 F8  FF FF 7F F8 FF FF 7F 74  ...of..........t
00B0: 6C 6B 30 00                                       lk0.            
```

## Opcodes

```
  0: 0x007C [0x32] ExtData[1]->MainSpeed = 13* * 0.1
  1: 0x007F [0x86] EventEntity->Render.Flags3 ^= 0x01
  2: 0x0085 [0x1F] MOVE_ENTITY: EventEntity moves to X=1.132*, Z=-6.446*, Y=-1.500*
  3: 0x008D [0x1F] MOVE_ENTITY: Update entity position (mode=1)
  4: 0x008F [0x1F] MOVE_ENTITY: EventEntity moves to X=2.864*, Z=-7.899*, Y=-1.500*
  5: 0x0097 [0x1F] MOVE_ENTITY: Update entity position (mode=1)
  6: 0x0099 [0x1F] MOVE_ENTITY: EventEntity moves to X=4.264*, Z=-24.268*, Y=-1.500*
  7: 0x00A1 [0x1F] MOVE_ENTITY: Update entity position (mode=1)
  8: 0x00A3 [0x6F] WAIT_FRAME_DELAY: Yield until WaitTime reaches zero
  9: 0x00A4 [0x66] LOAD_EXT_SCHEDULER_MAIN(work_offset=40*, entity1=EventEntity, entity2=EventEntity, action="tlk0")
 10: 0x00B3 [0x00] END_REQSTACK()
```
