# Event 184

## Metadata

| Field           | Value    |
|-----------------|----------|
| Event Index     | 5/12     |
| Offset          | 0x0FA6   |
| Data Size       | 41 bytes |
| Calculated Size | 41 bytes |
| Instructions    | 10       |

```
      00 01 02 03 04 05 06 07  08 09 0A 0B 0C 0D 0E 0F
      -- -- -- -- -- -- -- --  -- -- -- -- -- -- -- --
0FA0:                   4A 31  70 0F 01 F0 FF FF 7F 6F        J1p......o
0FB0: 76 31 70 0F 01 02 02 10  51 80 04 CD 0F 2B 31 70  v1p.....Q....+1p
0FC0: 0F 01 55 80 23 2B 31 70  0F 01 56 80 23 21 00     ..U.#+1p..V.#!. 
```

## Opcodes

```
  0: 0x0FA6 [0x4A] Rahi Fohlatti (ID: 17788977/0x010F7031) looks at LocalPlayer
  1: 0x0FAF [0x6F] WAIT_FRAME_DELAY: Yield until WaitTime reaches zero
  2: 0x0FB0 [0x76] CHECK_ENTITY_RENDER_FLAGS: Wait until Rahi Fohlatti (ID: 17788977/0x010F7031) Render.Flags0 and Render.Flags3 conditions are met
  3: 0x0FB5 [0x02] IF !(Work_Zone[2] < 432*) GOTO 0x0FCD
  4: 0x0FBD [0x2B] Rahi Fohlatti (ID: 17788977/0x010F7031) [12349*]:
    → "You want to know about a suspicious-looking Tarutaru carrying an orb?\u0007Sorry, I haven't seen anyone rrresembling that description.\u007F1\u0000\u0007"
  5: 0x0FC4 [0x23] WAIT_FOR_DIALOG_INTERACTION
  6: 0x0FC5 [0x2B] Rahi Fohlatti (ID: 17788977/0x010F7031) [12350*]:
    → "Why would I lie to some rrresearcher about seeing him or not?\u0007For all I know, there could be some kind of reward for turning him in.\u007F1\u0000\u0007"
  7: 0x0FCC [0x23] WAIT_FOR_DIALOG_INTERACTION
  8: 0x0FCD [0x21] END_EVENT
  9: 0x0FCE [0x00] END_REQSTACK()
```
