# Event 65535

## Metadata

| Field           | Value    |
|-----------------|----------|
| Event Index     | 68/79    |
| Offset          | 0x0426   |
| Data Size       | 45 bytes |
| Calculated Size | 45 bytes |
| Instructions    | 11       |

```
      00 01 02 03 04 05 06 07  08 09 0A 0B 0C 0D 0E 0F
      -- -- -- -- -- -- -- --  -- -- -- -- -- -- -- --
0420:                   32 0D  80 1F 00 14 80 15 80 16        2.........
0430: 80 1F 01 6F 4A F0 FF FF  7F 4C 91 01 01 4A 4B 91  ...oJ....L...JK.
0440: 01 01 4C 91 01 01 6F 76  F0 FF FF 7F 6F 76 4B 91  ..L...ov....ovK.
0450: 01 01 00                                          ...             
```

## Opcodes

```
  0: 0x0426 [0x32] ExtData[1]->MainSpeed = 13* * 0.1
  1: 0x0429 [0x1F] MOVE_ENTITY: EventEntity moves to X=-151.791*, Z=-324.434*, Y=-31.519*
  2: 0x0431 [0x1F] MOVE_ENTITY: Update entity position (mode=1)
  3: 0x0433 [0x6F] WAIT_FRAME_DELAY: Yield until WaitTime reaches zero
  4: 0x0434 [0x4A] LocalPlayer looks at Nag'molada (ID: 16879948/0x0101914C)
  5: 0x043D [0x4A] Ulmia (ID: 16879947/0x0101914B) looks at Nag'molada (ID: 16879948/0x0101914C)
  6: 0x0446 [0x6F] WAIT_FRAME_DELAY: Yield until WaitTime reaches zero
  7: 0x0447 [0x76] CHECK_ENTITY_RENDER_FLAGS: Wait until LocalPlayer Render.Flags0 and Render.Flags3 conditions are met
  8: 0x044C [0x6F] WAIT_FRAME_DELAY: Yield until WaitTime reaches zero
  9: 0x044D [0x76] CHECK_ENTITY_RENDER_FLAGS: Wait until Ulmia (ID: 16879947/0x0101914B) Render.Flags0 and Render.Flags3 conditions are met
 10: 0x0452 [0x00] END_REQSTACK()
```
