# Event 65535

## Metadata

| Field           | Value    |
|-----------------|----------|
| Event Index     | 5/7      |
| Offset          | 0x0057   |
| Data Size       | 79 bytes |
| Calculated Size | 79 bytes |
| Instructions    | 8        |

```
      00 01 02 03 04 05 06 07  08 09 0A 0B 0C 0D 0E 0F
      -- -- -- -- -- -- -- --  -- -- -- -- -- -- -- --
0050:                      66  05 80 01 32 09 01 01 32         f...2...2
0060: 09 01 67 6F 6D 30 45 06  80 F0 FF FF 7F F0 FF FF  ..gom0E.........
0070: 7F 73 62 64 32 07 80 79  00 F0 FF FF 7F F8 FF FF  .sbd2..y........
0080: 7F 2B 01 32 09 01 08 80  23 53 01 32 09 01 01 32  .+.2....#S.2...2
0090: 09 01 67 6F 6D 30 66 05  80 01 32 09 01 01 32 09  ..gom0f...2...2.
00A0: 01 67 6F 6D 31 00                                 .gom1.          
```

## Opcodes

```
  0: 0x0057 [0x66] LOAD_EXT_SCHEDULER_MAIN(work_offset=1*, entity1=Evrard (ID: 17379841/0x01093201), entity2=Evrard (ID: 17379841/0x01093201), action="gom0")
  1: 0x0066 [0x45] LOAD_SCHEDULED_TASK(work_offset1=148*, entity1=LocalPlayer, entity2=LocalPlayer, scheduler_id="sbd2", work_offset2=0*)
  2: 0x0077 [0x79] LocalPlayer looks at EventEntity (Basic look)
  3: 0x0081 [0x2B] Evrard (ID: 17379841/0x01093201) [7228*]:
    → "Please, take our things back to Selbina for us. We can run well enough on our own.\u007F1\u0000\u0007"
  4: 0x0088 [0x23] WAIT_FOR_DIALOG_INTERACTION
  5: 0x0089 [0x53] WAIT_SCHEDULER_TASK(entity1=Evrard (ID: 17379841/0x01093201), entity2=Evrard (ID: 17379841/0x01093201), action_id="gom0")
  6: 0x0096 [0x66] LOAD_EXT_SCHEDULER_MAIN(work_offset=1*, entity1=Evrard (ID: 17379841/0x01093201), entity2=Evrard (ID: 17379841/0x01093201), action="gom1")
  7: 0x00A5 [0x00] END_REQSTACK()
```
