# Event 10066

## Metadata

| Field           | Value    |
|-----------------|----------|
| Event Index     | 4/4      |
| Offset          | 0x033C   |
| Data Size       | 37 bytes |
| Calculated Size | 37 bytes |
| Instructions    | 13       |

```
      00 01 02 03 04 05 06 07  08 09 0A 0B 0C 0D 0E 0F
      -- -- -- -- -- -- -- --  -- -- -- -- -- -- -- --
0330:                                      42 03 01 10              B...
0340: 02 10 1E F0 FF FF 7F 1D  26 80 23 6E F8 FF FF 7F  ........&.#n....
0350: 17 80 99 F8 FF FF 7F 1D  27 80 23 1D 28 80 23 21  ........'.#.(.#!
0360: 00                                                .               
```

## Opcodes

```
  0: 0x033C [0x42] SET_CLI_EVENT_CANCEL_DATA()
  1: 0x033D [0x03] Work_Zone[1] = Work_Zone[2]
  2: 0x0342 [0x1E] EventEntity looks at LocalPlayer and starts talking
  3: 0x0347 [0x1D] PRINT_EVENT_MESSAGE(message_id=12961*)
    → "What is this? You say you found something that may be of interest?\u007F1\u0000\u0007"
  4: 0x034A [0x23] WAIT_FOR_DIALOG_INTERACTION
  5: 0x034B [0x6E] EventEntity uses emote 4*
  6: 0x0352 [0x99] Wait for EventEntity animation to complete
  7: 0x0357 [0x1D] PRINT_EVENT_MESSAGE(message_id=12962*)
    → "Yes... Yes!\u0007With this I can prove my ability to the society! I am guaranteed a position within their ranks for sure!\u007F1\u0000\u0007"
  8: 0x035A [0x23] WAIT_FOR_DIALOG_INTERACTION
  9: 0x035B [0x1D] PRINT_EVENT_MESSAGE(message_id=12963*)
    → "Hm? Your reward? Oh, I do remember promising you something if you succeeded at your mission.\u0007How about this \u0001\u0005#\u0002\u0000\u0000\u0000? I don't think the society will be missing it.\u007F1\u0000\u0007"
 10: 0x035E [0x23] WAIT_FOR_DIALOG_INTERACTION
 11: 0x035F [0x21] END_EVENT
 12: 0x0360 [0x00] END_REQSTACK()
```
