# Event 65535

## Metadata

| Field           | Value    |
|-----------------|----------|
| Event Index     | 4/154    |
| Offset          | 0x00A3   |
| Data Size       | 63 bytes |
| Calculated Size | 63 bytes |
| Instructions    | 12       |

```
      00 01 02 03 04 05 06 07  08 09 0A 0B 0C 0D 0E 0F
      -- -- -- -- -- -- -- --  -- -- -- -- -- -- -- --
00A0:          37 0D 80 0E 80  0F 80 10 80 79 00 F0 FF     7........y...
00B0: FF 7F 83 40 0F 01 32 00  80 1F 00 11 80 12 80 0F  ...@..2.........
00C0: 80 1F 01 1F 00 13 80 14  80 15 80 1F 01 1F 00 16  ................
00D0: 80 17 80 15 80 1F 01 1E  83 40 0F 01 03 20 10 07  .........@... ..
00E0: 7F 00                                             ..              
```

## Opcodes

```
  0: 0x00A3 [0x37] UPDATE_EVENT_POSITION_AND_DIR: x=-105.649*, z=84.512*, y=-0.199*, direction=61.4°*
  1: 0x00AC [0x79] LocalPlayer looks at Mildaurion (ID: 17776771/0x010F4083) (Basic look)
  2: 0x00B6 [0x32] ExtData[1]->MainSpeed = 13* * 0.1
  3: 0x00B9 [0x1F] MOVE_ENTITY: EventEntity moves to X=-104.311*, Z=82.342*, Y=-0.199*
  4: 0x00C1 [0x1F] MOVE_ENTITY: Update entity position (mode=1)
  5: 0x00C3 [0x1F] MOVE_ENTITY: EventEntity moves to X=-102.284*, Z=81.772*, Y=-0.649*
  6: 0x00CB [0x1F] MOVE_ENTITY: Update entity position (mode=1)
  7: 0x00CD [0x1F] MOVE_ENTITY: EventEntity moves to X=-101.562*, Z=82.998*, Y=-0.649*
  8: 0x00D5 [0x1F] MOVE_ENTITY: Update entity position (mode=1)
  9: 0x00D7 [0x1E] EventEntity looks at Mildaurion (ID: 17776771/0x010F4083) and starts talking
 10: 0x00DC [0x03] Work_Zone[32] = Entity->Race
 11: 0x00E1 [0x00] END_REQSTACK()
```
