# Event 65535

## Metadata

| Field           | Value    |
|-----------------|----------|
| Event Index     | 123/154  |
| Offset          | 0xAFE5   |
| Data Size       | 41 bytes |
| Calculated Size | 41 bytes |
| Instructions    | 10       |

```
      00 01 02 03 04 05 06 07  08 09 0A 0B 0C 0D 0E 0F
      -- -- -- -- -- -- -- --  -- -- -- -- -- -- -- --
AFE0:                03 24 00  20 84 06 25 00 B4 0A 24       .$. ..%...$
AFF0: 00 02 24 00 03 80 02 00  B0 B4 0C 24 00 01 F1 AF  ..$........$....
B000: B4 0B 02 25 00 03 80 00  0D B0 B4 06 00 00        ...%..........  
```

## Opcodes

```
  0: 0xAFE5 [0x03] ExtData[1]->WorkLocal[36] = 3600*
  1: 0xAFEA [0x06] ExtData[1]->WorkLocal[37] = 0
  2: 0xAFED [0xB4] UI_WINDOW_STRING_HANDLER(case=0x0A - Open event time window, work_offset=ExtData[1]->WorkLocal[36])
  3: 0xAFF1 [0x02] IF !(ExtData[1]->WorkLocal[36] <= 0*) GOTO 0xB000
  4: 0xAFF9 [0xB4] UI_WINDOW_STRING_HANDLER(case=0x0C - Get event time count value, work_offset=ExtData[1]->WorkLocal[36])
  5: 0xAFFD [0x01] GOTO 0xAFF1
  6: 0xB000 [0xB4] UI_WINDOW_STRING_HANDLER(case=0x0B - Destroy event time window)
  7: 0xB002 [0x02] IF !(ExtData[1]->WorkLocal[37] == 0*) GOTO 0xB00D
  8: 0xB00A [0xB4] UI_WINDOW_STRING_HANDLER(case=0x06 - Toggle query message flag, flag_value=0x00)
  9: 0xB00D [0x00] END_REQSTACK()
```
