# Event 65535

## Metadata

| Field           | Value    |
|-----------------|----------|
| Event Index     | 130/154  |
| Offset          | 0xB050   |
| Data Size       | 53 bytes |
| Calculated Size | 53 bytes |
| Instructions    | 11       |

```
      00 01 02 03 04 05 06 07  08 09 0A 0B 0C 0D 0E 0F
      -- -- -- -- -- -- -- --  -- -- -- -- -- -- -- --
B050: 03 28 00 27 84 7B F8 FF  FF 7F 02 06 80 06 80 00  .(.'.{..........
B060: 84 B0 12 26 00 3F 27 00  26 00 33 80 14 28 00 28  ...&.?'.&.3..(.(
B070: 84 79 02 F8 FF FF 7F 29  84 28 00 1C 2D 80 1C 27  .y.....).(..-..'
B080: 00 01 5A B0 00                                    ..Z..           
```

## Opcodes

```
  0: 0xB050 [0x03] ExtData[1]->WorkLocal[40] = 1024*
  1: 0xB055 [0x7B] EventEntity stops talking
  2: 0xB05A [0x02] IF !(1* == 1*) GOTO 0xB084
  3: 0xB062 [0x12] ExtData[1]->WorkLocal[38] = rand()
  4: 0xB065 [0x3F] ExtData[1]->WorkLocal[39] = ExtData[1]->WorkLocal[38] % 120*
  5: 0xB06C [0x14] ExtData[1]->WorkLocal[40] *= 4294967295*
  6: 0xB071 [0x79] EventEntity looks at Unknown NPC (ID: 2655273/0x00288429) (Direct axis set)
  7: 0xB07B [0x1C] WAIT(180* ticks)
  8: 0xB07E [0x1C] WAIT(ExtData[1]->WorkLocal[39] ticks)
  9: 0xB081 [0x01] GOTO 0xB05A

SUBROUTINE_B084:
 10: 0xB084 [0x00] END_REQSTACK()
```
