# Event 65535

## Metadata

| Field           | Value    |
|-----------------|----------|
| Event Index     | 119/154  |
| Offset          | 0xAF5A   |
| Data Size       | 43 bytes |
| Calculated Size | 43 bytes |
| Instructions    | 11       |

```
      00 01 02 03 04 05 06 07  08 09 0A 0B 0C 0D 0E 0F
      -- -- -- -- -- -- -- --  -- -- -- -- -- -- -- --
AF50:                                B4 0A 20 84 03 23            .. ..#
AF60: 00 20 84 02 23 00 03 80  02 75 AF B4 0C 23 00 1C  . ..#....u...#..
AF70: 05 80 01 63 AF B4 0B 03  21 10 06 80 03 30 10 06  ...c....!....0..
AF80: 80 B4 06 00 00                                    .....           
```

## Opcodes

```
  0: 0xAF5A [0xB4] UI_WINDOW_STRING_HANDLER(case=0x0A - Open event time window, work_offset=3600*)
  1: 0xAF5E [0x03] ExtData[1]->WorkLocal[35] = 3600*
  2: 0xAF63 [0x02] IF !(ExtData[1]->WorkLocal[35] <= 0*) GOTO 0xAF75
  3: 0xAF6B [0xB4] UI_WINDOW_STRING_HANDLER(case=0x0C - Get event time count value, work_offset=ExtData[1]->WorkLocal[35])
  4: 0xAF6F [0x1C] WAIT(5* ticks)
  5: 0xAF72 [0x01] GOTO 0xAF63

SUBROUTINE_AF75:
  6: 0xAF75 [0xB4] UI_WINDOW_STRING_HANDLER(case=0x0B - Destroy event time window)
  7: 0xAF77 [0x03] Work_Zone[33] = 1*
  8: 0xAF7C [0x03] Work_Zone[48] = 1*
  9: 0xAF81 [0xB4] UI_WINDOW_STRING_HANDLER(case=0x06 - Toggle query message flag, flag_value=0x00)
 10: 0xAF84 [0x00] END_REQSTACK()
```
