# Event 65535

## Metadata

| Field           | Value    |
|-----------------|----------|
| Event Index     | 138/154  |
| Offset          | 0xB196   |
| Data Size       | 76 bytes |
| Calculated Size | 76 bytes |
| Instructions    | 10       |

```
      00 01 02 03 04 05 06 07  08 09 0A 0B 0C 0D 0E 0F
      -- -- -- -- -- -- -- --  -- -- -- -- -- -- -- --
B190:                   03 00  00 07 7F 1A 0E 00 66 01        ........f.
B1A0: 00 F8 FF FF 7F F8 FF FF  7F 74 6C 6B 30 53 F8 FF  .........tlk0S..
B1B0: FF 7F F8 FF FF 7F 74 6C  6B 30 1C 08 80 03 00 00  ......tlk0......
B1C0: 07 7F 1A 0E 00 66 01 00  F8 FF FF 7F F8 FF FF 7F  .....f..........
B1D0: 74 6C 6B 31 53 F8 FF FF  7F F8 FF FF 7F 74 6C 6B  tlk1S........tlk
B1E0: 31 00                                             1.              
```

## Opcodes

```
  0: 0xB196 [0x03] ExtData[1]->WorkLocal[0] = Entity->Race
  1: 0xB19B [0x1A] CALL_SUBROUTINE(address=0x000E)
  2: 0xB19E [0x66] LOAD_EXT_SCHEDULER_MAIN(work_offset=0x0001, entity1=EventEntity, entity2=EventEntity, action="tlk0")
  3: 0xB1AD [0x53] WAIT_SCHEDULER_TASK(entity1=EventEntity, entity2=EventEntity, action_id="tlk0")
  4: 0xB1BA [0x1C] WAIT(10* ticks)
  5: 0xB1BD [0x03] ExtData[1]->WorkLocal[0] = Entity->Race
  6: 0xB1C2 [0x1A] CALL_SUBROUTINE(address=0x000E)
  7: 0xB1C5 [0x66] LOAD_EXT_SCHEDULER_MAIN(work_offset=0x0001, entity1=EventEntity, entity2=EventEntity, action="tlk1")
  8: 0xB1D4 [0x53] WAIT_SCHEDULER_TASK(entity1=EventEntity, entity2=EventEntity, action_id="tlk1")
  9: 0xB1E1 [0x00] END_REQSTACK()
```
