# Event 65535

## Metadata

| Field           | Value    |
|-----------------|----------|
| Event Index     | 42/87    |
| Offset          | 0x04CB   |
| Data Size       | 49 bytes |
| Calculated Size | 49 bytes |
| Instructions    | 4        |

```
      00 01 02 03 04 05 06 07  08 09 0A 0B 0C 0D 0E 0F
      -- -- -- -- -- -- -- --  -- -- -- -- -- -- -- --
04C0:                                   5F 03 1D 80 C4             _....
04D0: 50 11 01 C4 50 11 01 78  78 78 78 5F 03 21 80 CB  P...P..xxxx_.!..
04E0: 50 11 01 CB 50 11 01 78  78 78 78 5F 03 20 80 C9  P...P..xxxx_. ..
04F0: 50 11 01 C9 50 11 01 78  78 78 78 00              P...P..xxxx.    
```

## Opcodes

```
  0: 0x04CB [0x5F] MULTI_HANDLER_COMPLEX(mode=0x03 - Load ext scheduler (OpCode 0x5B mode 0), ref=References[29], entity1=Unnamed NPC (ID: 17912004/0x011150C4), entity2=Unnamed NPC (ID: 17912004/0x011150C4), string="xxxx")
  1: 0x04DB [0x5F] MULTI_HANDLER_COMPLEX(mode=0x03 - Load ext scheduler (OpCode 0x5B mode 0), ref=References[33], entity1=Unnamed NPC (ID: 17912011/0x011150CB), entity2=Unnamed NPC (ID: 17912011/0x011150CB), string="xxxx")
  2: 0x04EB [0x5F] MULTI_HANDLER_COMPLEX(mode=0x03 - Load ext scheduler (OpCode 0x5B mode 0), ref=References[32], entity1=Unnamed NPC (ID: 17912009/0x011150C9), entity2=Unnamed NPC (ID: 17912009/0x011150C9), string="xxxx")
  3: 0x04FB [0x00] END_REQSTACK()
```
