# Event 177

## Metadata

| Field           | Value    |
|-----------------|----------|
| Event Index     | 5/12     |
| Offset          | 0x0015   |
| Data Size       | 26 bytes |
| Calculated Size | 26 bytes |
| Instructions    | 8        |

```
      00 01 02 03 04 05 06 07  08 09 0A 0B 0C 0D 0E 0F
      -- -- -- -- -- -- -- --  -- -- -- -- -- -- -- --
0010:                1E F0 FF  FF 7F 1C 00 80 2B F8 FF       ........+..
0020: FF 7F 02 80 23 2B F8 FF  FF 7F 03 80 23 21 00     ....#+......#!. 
```

## Opcodes

```
  0: 0x0015 [0x1E] EventEntity looks at LocalPlayer and starts talking
  1: 0x001A [0x1C] WAIT(30* ticks)
  2: 0x001D [0x2B] EventEntity [13622*]:
    → "During wartime, nations tend to become fixated only on the happenings within their borders, blinding themselves to the bigger picture. We hope your mission to recruit Windurst's aid will be fruitful.\u007F1\u0000\u0007"
  3: 0x0024 [0x23] WAIT_FOR_DIALOG_INTERACTION
  4: 0x0025 [0x2B] EventEntity [13623*]:
    → "We wish the Seventh Cohors every success on their mission. Perhaps we should strap some explosives onto Zazarg, as a precautionary measure.\u007F1\u0000\u0007"
  5: 0x002C [0x23] WAIT_FOR_DIALOG_INTERACTION
  6: 0x002D [0x21] END_EVENT
  7: 0x002E [0x00] END_REQSTACK()
```
