# Event 340

## Metadata

| Field           | Value    |
|-----------------|----------|
| Event Index     | 7/11     |
| Offset          | 0x0ACD   |
| Data Size       | 43 bytes |
| Calculated Size | 43 bytes |
| Instructions    | 9        |

```
      00 01 02 03 04 05 06 07  08 09 0A 0B 0C 0D 0E 0F
      -- -- -- -- -- -- -- --  -- -- -- -- -- -- -- --
0AC0:                                         1E F0 FF               ...
0AD0: FF 7F 6F 70 66 4A 80 F8  FF FF 7F F8 FF FF 7F 74  ..opfJ.........t
0AE0: 6C 6B 30 1D 50 80 23 66  4A 80 F8 FF FF 7F F8 FF  lk0.P.#fJ.......
0AF0: FF 7F 74 6C 6B 31 21 00                           ..tlk1!.        
```

## Opcodes

```
  0: 0x0ACD [0x1E] EventEntity looks at LocalPlayer and starts talking
  1: 0x0AD2 [0x6F] WAIT_FRAME_DELAY: Yield until WaitTime reaches zero
  2: 0x0AD3 [0x70] WAIT_ENTITY_RENDER_FLAG: Wait while EventEntity->Render.Flags3 bit 2 is set (cancel turn if not)
  3: 0x0AD4 [0x66] LOAD_EXT_SCHEDULER_MAIN: Load scheduler "tlk0" with entities [EventEntity, EventEntity], work=9*
  4: 0x0AE3 [0x1D] PRINT_EVENT_MESSAGE(message_id=7665*)
    → "Please do let me know if you find any word of my wife.\u0007Hahaha, what's gotten into me? A businessman like me should have nerves of darksteel...\u007F1\u0000\u0007"
  5: 0x0AE6 [0x23] WAIT_FOR_DIALOG_INTERACTION
  6: 0x0AE7 [0x66] LOAD_EXT_SCHEDULER_MAIN: Load scheduler "tlk1" with entities [EventEntity, EventEntity], work=9*
  7: 0x0AF6 [0x21] END_EVENT
  8: 0x0AF7 [0x00] END_REQSTACK()
```
