# 0x7FFFFFF0 - Zone Events

## Common Data

| Field            | Value                       |
|------------------|-----------------------------|
| Zone             | Cloister of Tides (ID: 211) |
| Block Size       | 9536 bytes                  |
| Total Events     | 7                           |
| References Count | 226                         |

## List of Events

| Event ID                 | Entrypoint   |   Size |   Instructions |
|--------------------------|--------------|--------|----------------|
| [65535](#event-65535)    | 0x0000       |      1 |              1 |
| [65534](#event-65534)    | 0x0001       |      1 |              1 |
| [32000](#event-32000)    | 0x0002       |   2116 |            412 |
| [32002](#event-32002)    | 0x0846       |    494 |             83 |
| [32001](#event-32001)    | 0x0A34       |   1060 |            185 |
| [32003](#event-32003)    | 0x0E58       |   4904 |            635 |
| [65535.1](#event-655351) | 0x2180       |      9 |              3 |

## DAT References (imed_data)

|   Index | Hex Value   |   Dec Value |
|---------|-------------|-------------|
|       0 | 0x0000      |           0 |
|       1 | 0x000F      |          15 |
|       2 | 0x0010      |          16 |
|       3 | 0x001F      |          31 |
|       4 | 0xFFFFFFFF  |  4294967295 |
|       5 | 0x0001      |           1 |
|       6 | 0x1DFC      |        7676 |
|       7 | 0x1DA8      |        7592 |
|       8 | 0x0005      |           5 |
|       9 | 0x0002      |           2 |
|      10 | 0x0003      |           3 |
|      11 | 0x0004      |           4 |
|      12 | 0x1C3B      |        7227 |
|      13 | 0x00FF      |         255 |
|      14 | 0x00C8      |         200 |
|      15 | 0x0013      |          19 |
|      16 | 0x0008      |           8 |
|      17 | 0x0009      |           9 |
|      18 | 0x000B      |          11 |
|      19 | 0x1C46      |        7238 |
|      20 | 0x1C47      |        7239 |
|      21 | 0x1C48      |        7240 |
|      22 | 0x1C49      |        7241 |
|      23 | 0x1C6D      |        7277 |
|      24 | 0x0006      |           6 |
|      25 | 0x0012      |          18 |
|      26 | 0x0007      |           7 |
|      27 | 0x000A      |          10 |
|      28 | 0x000C      |          12 |
|      29 | 0x000D      |          13 |
|      30 | 0x000E      |          14 |
|      31 | 0x0011      |          17 |
|      32 | 0x0014      |          20 |
|      33 | 0x0015      |          21 |
|      34 | 0x0016      |          22 |
|      35 | 0x0017      |          23 |
|      36 | 0x0018      |          24 |
|      37 | 0x0019      |          25 |
|      38 | 0x001A      |          26 |
|      39 | 0x001B      |          27 |
|      40 | 0x001C      |          28 |
|      41 | 0x001D      |          29 |
|      42 | 0x001E      |          30 |
|      43 | 0x1DA2      |        7586 |
|      44 | 0x1DA7      |        7591 |
|      45 | 0x1DA6      |        7590 |
|      46 | 0x003C      |          60 |
|      47 | 0x1DFA      |        7674 |
|      48 | 0x1DF9      |        7673 |
|      49 | 0x0064      |         100 |
|      50 | 0x1D8E      |        7566 |
|      51 | 0x00C1      |         193 |
|      52 | 0x1C3E      |        7230 |
|      53 | 0x00C9      |         201 |
|      54 | 0x00B4      |         180 |
|      55 | 0xFFF6C42B  |  4294362155 |
|      56 | 0x752B9     |      479929 |
|      57 | 0xFFFFA767  |  4294944615 |
|      58 | 0x03E0      |         992 |
|      59 | 0xFFFBFE43  |  4294704707 |
|      60 | 0x5C401     |      377857 |
|      61 | 0xFFFDE79F  |  4294829983 |
|      62 | 0x0D92      |        3474 |
|      63 | 0x47AC      |       18348 |
|      64 | 0x76E1C     |      486940 |
|      65 | 0xFFFC93B2  |  4294742962 |
|      66 | 0x00C2      |         194 |
|      67 | 0x388A9     |      231593 |
|      68 | 0x57E9E     |      360094 |
|      69 | 0xFFFD59FC  |  4294793724 |
|      70 | 0x0726      |        1830 |
|      71 | 0x872C0     |      553664 |
|      72 | 0x7FEA3     |      523939 |
|      73 | 0xFFFF6AC3  |  4294929091 |
|      74 | 0x0A65      |        2661 |
|      75 | 0x8B01A     |      569370 |
|      76 | 0x86AC4     |      551620 |
|      77 | 0x9137      |       37175 |
|      78 | 0x0301      |         769 |
|      79 | 0xFFF2A593  |  4294092179 |
|      80 | 0xFFFF548C  |  4294923404 |
|      81 | 0xFFFF442C  |  4294919212 |
|      82 | 0x0201      |         513 |
|      83 | 0xFFF478D5  |  4294211797 |
|      84 | 0x89AEB     |      563947 |
|      85 | 0xFFFE4A5D  |  4294855261 |
|      86 | 0x0DEF      |        3567 |
|      87 | 0x1E173     |      123251 |
|      88 | 0xB8221     |      754209 |
|      89 | 0xFFFD5FA4  |  4294795172 |
|      90 | 0x01B8      |         440 |
|      91 | 0xFFF81ECC  |  4294450892 |
|      92 | 0xFFF3BE05  |  4294163973 |
|      93 | 0x5E8E      |       24206 |
|      94 | 0x01B5      |         437 |
|      95 | 0x012C      |         300 |
|      96 | 0x0080      |         128 |
|      97 | 0xFFF690A7  |  4294348967 |
|      98 | 0xFFF62CE4  |  4294323428 |
|      99 | 0xFFFF9B33  |  4294941491 |
|     100 | 0x0EB1      |        3761 |
|     101 | 0xFFFAEE7D  |  4294635133 |
|     102 | 0xFFF941C6  |  4294525382 |
|     103 | 0xFFFE8CB1  |  4294872241 |
|     104 | 0x0EB0      |        3760 |
|     105 | 0xFFFFCF50  |  4294954832 |
|     106 | 0xFFF61B47  |  4294318919 |
|     107 | 0xFFFD07BB  |  4294772667 |
|     108 | 0x0EBA      |        3770 |
|     109 | 0x4EF35     |      323381 |
|     110 | 0xFFF93A6F  |  4294523503 |
|     111 | 0xFFFE5868  |  4294858856 |
|     112 | 0x0EA0      |        3744 |
|     113 | 0x92763     |      599907 |
|     114 | 0xFFF5AB97  |  4294290327 |
|     115 | 0xFFFFA837  |  4294944823 |
|     116 | 0x0EB3      |        3763 |
|     117 | 0xFFF8F5A7  |  4294505895 |
|     118 | 0xFFF85BA6  |  4294466470 |
|     119 | 0x6755      |       26453 |
|     120 | 0x0C18      |        3096 |
|     121 | 0x00A8      |         168 |
|     122 | 0x30D7B     |      200059 |
|     123 | 0xFFFFAA3A  |  4294945338 |
|     124 | 0xFFFFFF06  |  4294967046 |
|     125 | 0x0411      |        1041 |
|     126 | 0x00CA      |         202 |
|     127 | 0x837EC     |      538604 |
|     128 | 0x7A88C     |      501900 |
|     129 | 0xFFFFC98A  |  4294953354 |
|     130 | 0x0CBC      |        3260 |
|     131 | 0x00CB      |         203 |
|     132 | 0x870F5     |      553205 |
|     133 | 0x8FF41     |      589633 |
|     134 | 0xFFFFFFEB  |  4294967275 |
|     135 | 0x0587      |        1415 |
|     136 | 0x00D3      |         211 |
|     137 | 0x8AF88     |      569224 |
|     138 | 0x85E6E     |      548462 |
|     139 | 0x8FE5      |       36837 |
|     140 | 0x02A1      |         673 |
|     141 | 0x0024      |          36 |
|     142 | 0x1D90      |        7568 |
|     143 | 0x1D8F      |        7567 |
|     144 | 0x1DF8      |        7672 |
|     145 | 0x1D92      |        7570 |
|     146 | 0x1D91      |        7569 |
|     147 | 0x88B7E     |      559998 |
|     148 | 0x890DD     |      561373 |
|     149 | 0x8E93      |       36499 |
|     150 | 0x0AA5      |        2725 |
|     151 | 0x00E9      |         233 |
|     152 | 0x005A      |          90 |
|     153 | 0x002D      |          45 |
|     154 | 0x0060      |          96 |
|     155 | 0x7A04E     |      499790 |
|     156 | 0xFFFA53B3  |  4294595507 |
|     157 | 0xA2B9      |       41657 |
|     158 | 0x0E01      |        3585 |
|     159 | 0x0079      |         121 |
|     160 | 0x0078      |         120 |
|     161 | 0x1E2C      |        7724 |
|     162 | 0x1E2D      |        7725 |
|     163 | 0x1E2E      |        7726 |
|     164 | 0x7967E     |      497278 |
|     165 | 0xFFF96516  |  4294534422 |
|     166 | 0xD8FF      |       55551 |
|     167 | 0x0980      |        2432 |
|     168 | 0x00F0      |         240 |
|     169 | 0x014A      |         330 |
|     170 | 0x1DFD      |        7677 |
|     171 | 0x1E07      |        7687 |
|     172 | 0x1DFE      |        7678 |
|     173 | 0x1DFF      |        7679 |
|     174 | 0x1E00      |        7680 |
|     175 | 0x1E01      |        7681 |
|     176 | 0x1E02      |        7682 |
|     177 | 0x060D      |        1549 |
|     178 | 0x1E08      |        7688 |
|     179 | 0x1E09      |        7689 |
|     180 | 0x1E0A      |        7690 |
|     181 | 0x1E0B      |        7691 |
|     182 | 0x1E0C      |        7692 |
|     183 | 0x0058      |          88 |
|     184 | 0x00D1      |         209 |
|     185 | 0x1E2F      |        7727 |
|     186 | 0x005E      |          94 |
|     187 | 0x0099      |         153 |
|     188 | 0x1E30      |        7728 |
|     189 | 0x1E31      |        7729 |
|     190 | 0x1E32      |        7730 |
|     191 | 0x1E33      |        7731 |
|     192 | 0x1E34      |        7732 |
|     193 | 0x007C      |         124 |
|     194 | 0x0050      |          80 |
|     195 | 0x1E03      |        7683 |
|     196 | 0x1E04      |        7684 |
|     197 | 0x1E05      |        7685 |
|     198 | 0x1E06      |        7686 |
|     199 | 0x1E0D      |        7693 |
|     200 | 0x1E0E      |        7694 |
|     201 | 0x1E0F      |        7695 |
|     202 | 0x1C3C      |        7228 |
|     203 | 0x7A07C     |      499836 |
|     204 | 0xFFF9598F  |  4294531471 |
|     205 | 0xD9E5      |       55781 |
|     206 | 0x01BD      |         445 |
|     207 | 0x0096      |         150 |
|     208 | 0x0071      |         113 |
|     209 | 0x0074      |         116 |
|     210 | 0x0077      |         119 |
|     211 | 0x007B      |         123 |
|     212 | 0x0087      |         135 |
|     213 | 0x00D7      |         215 |
|     214 | 0x79668     |      497256 |
|     215 | 0xFFF9653F  |  4294534463 |
|     216 | 0xD8FD      |       55549 |
|     217 | 0x0975      |        2421 |
|     218 | 0x432C      |       17196 |
|     219 | 0xFFFF7F46  |  4294934342 |
|     220 | 0xFFFFEEA7  |  4294962855 |
|     221 | 0x098D      |        2445 |
|     222 | 0xFFFA28BA  |  4294584506 |
|     223 | 0x6D274     |      447092 |
|     224 | 0xFFFF0443  |  4294902851 |
|     225 | 0x0979      |        2425 |

## String References

- **7227**: Enter the battlefield? [Enter./Decline.]
- **7228**: Leave the battlefield? [Run away./Stay.]
- **7230**: You cannot enter the battlefield at present. Please wait a little longer.
- **7238**: You are cleared to enter the battlefield, but you cannot while party members are engaged in combat.
- **7239**: You are cleared to enter the battlefield, but you cannot while party members are engaged in combat.
- **7240**: You are cleared to enter the battlefield, but you cannot while party members are engaged in combat.
- **7241**: You are cleared to enter the battlefield, but you cannot while party members are engaged in combat.
- **7277**: You do not meet the requirements to enter the battlefield. Access is denied.
- **7566**: Skip the event? [Yes./No.]
- **7567**: Battlefield clear time: $3 second[/s]!
- **7568**: Battlefield clear time: $3 minute[/s], $2 second[/s]!
- **7569**: The current battlefield clear time record is $3 second[/s].
- **7570**: The current battlefield clear time record is $3 minute[/s] $2 second[/s].
- **7586**: Only $3 [member/members] have clearance to enter the battlefield. This room has reached its maximum capacity.
- **7590**: That record is held by $5 adventurers, including %0!
- **7591**: That record is held by %0!
- **7592**: Select difficulty. [Very difficult. (Level: ???)/Difficult. (Level: ???)/Normal. (Level: $18)/Easy. (Level: $17)/Very Easy. (Level: $16)/Leave.]
- **7672**: You have broken the clear time record for "[Trial by Water/Trial-Size Trial by Water/Waking the Beast/Sugar-coated Directive/$26Trial by Water]"!
- **7673**: The current battlefield clear time record for "[Trial by Water/Trial-Size Trial by Water/Waking the Beast/Sugar-coated Directive/$26Trial by Water]" is $3 second[/s].
- **7674**: The current battlefield clear time record for "[Trial by Water/Trial-Size Trial by Water/Waking the Beast/Sugar-coated Directive/$26Trial by Water]" is $3 minute[/s] $2 second[/s].
- **7676**: Which battlefield will you enter? [None./Trial by Water./Trial-Size Trial by Water./Waking the Beast./Sugar-coated Directive./$26Trial by Water././././././././././././././././././././././././././]
- **7677**: As if sensing the presence of the protocrystal, the $3 begins to softly resonate...
- **7678**: ...Who interrupts my slumber?
- **7679**: Was I dreaming for but an instant, or an eternity? The radiance that illuminates all, lost...
- **7680**: Which is the real world, and which is the dream? Am I...?
- **7681**: But enough... Wager your life to prove your skill. Let us see if you can provide me with a moment of amusement.
- **7682**: Are you ready, you who is one yet many?
- **7683**: ...Impressive, child of Vana'diel.
- **7684**: We sleep in a time that is neither an instant, nor an eternity.
- **7685**: Is this world a dream, or is the dreamworld an illusion...?
- **7686**: Very well, child of Vana'diel. I will grant you a fragment of my power to bring order to chaos.
- **7687**: 
- **7688**: The $0 begins to softly resonate with the protocrystal.
- **7689**: Who interrupts...
- **7690**: Was I dreaming...? ...an eternity? ...lost...
- **7691**: But enough... Wager your life... ...provide me ...with...amusement.
- **7692**: Are you ready...?
- **7693**: ...Impressive...
- **7694**: ...time is neither ...an eternity.
- **7695**: ...to bring order...
- **7724**: What pitiful fool dares disturb my slumber?
- **7725**: On the face of the world we have created...
- **7726**: Your mortality is a sin...
- **7727**: What are you planning...? To where do you take my power...?
- **7728**: This world is no dream... The world I dream of is no illusion...
- **7729**: Your kind has forgotten its divinity...
- **7730**: Heed my words. The creature...Carbuncle?
- **7731**: It is a false god. And your world is a finite thing.
- **7732**: Remember your divine origin. Only then can we help you.

## Events

### Event 65535

#### Metadata

| Field        | Value   |
|--------------|---------|
| Entrypoint   | 0x0000  |
| Data Size    | 1 bytes |
| Instructions | 1       |

```
      00 01 02 03 04 05 06 07  08 09 0A 0B 0C 0D 0E 0F
      -- -- -- -- -- -- -- --  -- -- -- -- -- -- -- --
0000: 00                                                .               
```

#### Opcodes

```
  0: 0x0000 [0x00] END_REQSTACK()
```

### Event 65534

#### Metadata

| Field        | Value   |
|--------------|---------|
| Entrypoint   | 0x0001  |
| Data Size    | 1 bytes |
| Instructions | 1       |

```
      00 01 02 03 04 05 06 07  08 09 0A 0B 0C 0D 0E 0F
      -- -- -- -- -- -- -- --  -- -- -- -- -- -- -- --
0000:    00                                              .              
```

#### Opcodes

```
  0: 0x0001 [0x00] END_REQSTACK()
```

### Event 32000

#### Metadata

| Field        | Value      |
|--------------|------------|
| Entrypoint   | 0x0002     |
| Data Size    | 2116 bytes |
| Instructions | 279        |

```
      00 01 02 03 04 05 06 07  08 09 0A 0B 0C 0D 0E 0F
      -- -- -- -- -- -- -- --  -- -- -- -- -- -- -- --
0000:       20 01 79 00 F0 FF  FF 7F F0 FF FF 7F 03 02     .y...........
0010: 00 02 10 03 03 00 03 10  03 05 00 04 10 03 06 00  ................
0020: 05 10 03 0F 00 06 10 03  10 00 07 10 03 11 00 08  ................
0030: 10 41 00 80 01 80 09 10  07 00 41 02 80 03 80 09  .A........A.....
0040: 10 06 10 06 01 00 02 07  00 00 80 00 45 01 03 08  ............E...
0050: 00 04 80 0F 08 00 06 00  10 08 00 05 80 24 06 80  .............$..
0060: 00 80 08 00 25 02 00 10  00 80 00 73 00 01 2B 08  ....%......s..+.
0070: 01 45 01 03 03 00 00 10  0C 03 00 06 16 00 06 13  .E..............
0080: 00 3E 0F 00 03 00 21 01  06 0F 00 06 08 00 3E 11  .>....!.......>.
0090: 00 03 00 98 00 01 9F 00  3C 08 00 00 80 05 80 3E  ........<......>
00A0: 10 00 03 00 A9 00 01 B0  00 3C 08 00 05 80 05 80  .........<......
00B0: 1A 41 1E 24 07 80 08 80  08 00 25 02 00 10 00 80  .A.$......%.....
00C0: 00 CB 00 03 0F 00 05 80  01 1E 01 02 00 10 05 80  ................
00D0: 00 DB 00 03 0F 00 09 80  01 1E 01 02 00 10 09 80  ................
00E0: 00 EB 00 03 0F 00 0A 80  01 1E 01 02 00 10 0A 80  ................
00F0: 00 FB 00 03 0F 00 0B 80  01 1E 01 02 00 10 0B 80  ................
0100: 00 0B 01 03 0F 00 08 80  01 1E 01 02 00 10 08 80  ................
0110: 00 19 01 01 2B 08 01 1E  01 03 0F 00 0A 80 01 45  ....+..........E
0120: 01 06 0F 00 1A 45 08 02  16 00 05 80 00 45 01 24  .....E.......E.$
0130: 0C 80 05 80 00 80 25 02  00 10 05 80 00 45 01 01  ......%......E..
0140: 2B 08 01 45 01 42 03 01  10 0D 80 43 00 43 01 06  +..E.B.....C.C..
0150: 01 10 45 0E 80 F0 FF FF  7F F0 FF FF 7F 66 64 6F  ..E..........fdo
0160: 31 00 80 55 0E 80 F0 FF  FF 7F F0 FF FF 7F 66 64  1..U..........fd
0170: 6F 31 3B F0 FF FF 7F 20  10 21 10 22 10 38 0F 80  o1;.... .!.".8..
0180: 02 07 00 05 80 00 9F 01  03 00 00 05 80 03 04 00  ................
0190: 03 00 03 02 00 00 80 03  1C 00 00 80 01 5F 05 03  ............._..
01A0: 00 00 05 80 02 00 00 0A  80 05 F4 07 02 00 80 05  ................
01B0: 80 00 B9 01 03 00 00 05  00 40 00 80 0A 80 01 10  .........@......
01C0: 00 00 40 0B 80 10 80 01  10 03 00 40 11 80 12 80  ..@........@....
01D0: 01 10 0F 00 06 02 10 06  03 10 06 04 10 1A 02 21  ...............!
01E0: 47 00 09 00 0A 00 0B 00  0C 00 47 01 03 04 00 03  G.........G.....
01F0: 10 03 02 00 04 10 03 1A  00 05 10 03 0D 00 06 10  ................
0200: 03 0E 00 07 10 03 1C 00  09 10 02 02 10 05 80 80  ................
0210: 15 02 01 E1 07 02 02 10  0B 80 80 5F 02 02 00 00  ..........._....
0220: 05 80 80 2C 02 48 13 80  23 01 59 02 02 00 00 09  ...,.H..#.Y.....
0230: 80 80 3B 02 48 14 80 23  01 59 02 02 00 00 0A 80  ..;.H..#.Y......
0240: 80 4A 02 48 15 80 23 01  59 02 02 00 00 0B 80 80  .J.H..#.Y.......
0250: 59 02 48 16 80 23 01 59  02 01 F8 07 01 E1 07 02  Y.H..#.Y........
0260: 02 10 08 80 80 71 02 48  17 80 23 01 F8 07 01 E1  .....q.H..#.....
0270: 07 02 02 10 18 80 80 73  04 02 04 00 00 80 80 89  .......s........
0280: 02 03 05 10 18 80 01 69  04 02 04 00 05 80 80 99  .......i........
0290: 02 03 05 10 05 80 01 69  04 02 04 00 09 80 80 A9  .......i........
02A0: 02 03 05 10 19 80 01 69  04 02 04 00 0A 80 80 B9  .......i........
02B0: 02 03 05 10 18 80 01 69  04 02 04 00 0B 80 80 C9  .......i........
02C0: 02 03 05 10 18 80 01 69  04 02 04 00 08 80 80 D9  .......i........
02D0: 02 03 05 10 00 80 01 69  04 02 04 00 18 80 80 E9  .......i........
02E0: 02 03 05 10 00 80 01 69  04 02 04 00 1A 80 80 F9  .......i........
02F0: 02 03 05 10 00 80 01 69  04 02 04 00 10 80 80 09  .......i........
0300: 03 03 05 10 00 80 01 69  04 02 04 00 11 80 80 19  .......i........
0310: 03 03 05 10 00 80 01 69  04 02 04 00 1B 80 80 29  .......i.......)
0320: 03 03 05 10 00 80 01 69  04 02 04 00 12 80 80 39  .......i.......9
0330: 03 03 05 10 00 80 01 69  04 02 04 00 1C 80 80 49  .......i.......I
0340: 03 03 05 10 00 80 01 69  04 02 04 00 1D 80 80 59  .......i.......Y
0350: 03 03 05 10 00 80 01 69  04 02 04 00 1E 80 80 69  .......i.......i
0360: 03 03 05 10 00 80 01 69  04 02 04 00 01 80 80 79  .......i.......y
0370: 03 03 05 10 00 80 01 69  04 02 04 00 02 80 80 89  .......i........
0380: 03 03 05 10 00 80 01 69  04 02 04 00 1F 80 80 99  .......i........
0390: 03 03 05 10 00 80 01 69  04 02 04 00 19 80 80 A9  .......i........
03A0: 03 03 05 10 00 80 01 69  04 02 04 00 0F 80 80 B9  .......i........
03B0: 03 03 05 10 00 80 01 69  04 02 04 00 20 80 80 C9  .......i.... ...
03C0: 03 03 05 10 00 80 01 69  04 02 04 00 21 80 80 D9  .......i....!...
03D0: 03 03 05 10 00 80 01 69  04 02 04 00 22 80 80 E9  .......i...."...
03E0: 03 03 05 10 00 80 01 69  04 02 04 00 23 80 80 F9  .......i....#...
03F0: 03 03 05 10 00 80 01 69  04 02 04 00 24 80 80 09  .......i....$...
0400: 04 03 05 10 00 80 01 69  04 02 04 00 25 80 80 19  .......i....%...
0410: 04 03 05 10 00 80 01 69  04 02 04 00 26 80 80 29  .......i....&..)
0420: 04 03 05 10 00 80 01 69  04 02 04 00 27 80 80 39  .......i....'..9
0430: 04 03 05 10 00 80 01 69  04 02 04 00 28 80 80 49  .......i....(..I
0440: 04 03 05 10 00 80 01 69  04 02 04 00 29 80 80 59  .......i....)..Y
0450: 04 03 05 10 00 80 01 69  04 02 04 00 2A 80 80 69  .......i....*..i
0460: 04 03 05 10 00 80 01 69  04 48 2B 80 23 01 F8 07  .......i.H+.#...
0470: 01 E1 07 02 02 10 0A 80  80 81 04 01 9F 01 01 E1  ................
0480: 07 02 02 10 09 80 80 E1  07 02 0D 00 00 80 01 15  ................
0490: 05 02 13 00 00 80 01 C9  04 03 05 10 1A 00 02 1A  ................
04A0: 00 00 80 02 A6 04 02 0D  00 05 80 05 B5 04 48 2C  ..............H,
04B0: 80 23 01 C6 04 03 06 10  0D 00 0C 06 10 03 07 10  .#..............
04C0: 0D 00 48 2D 80 23 01 15  05 03 05 10 1A 00 02 1A  ..H-.#..........
04D0: 00 00 80 02 F5 04 02 1A  00 2E 80 04 F1 04 3F 04  ..............?.
04E0: 10 05 10 2E 80 15 05 10  2E 80 48 2F 80 23 01 F5  ..........H/.#..
04F0: 04 48 30 80 23 02 0D 00  05 80 05 04 05 48 2C 80  .H0.#........H,.
0500: 23 01 15 05 03 06 10 0D  00 0C 06 10 03 07 10 0D  #...............
0510: 00 48 2D 80 23 03 03 00  04 00 03 14 00 31 80 07  .H-.#........1..
0520: 14 00 03 00 02 02 00 14  00 00 34 05 03 02 00 05  ..........4.....
0530: 80 01 39 05 03 02 00 00  80 02 02 00 00 80 00 5F  ..9............_
0540: 05 02 0E 00 05 80 00 5F  05 24 32 80 05 80 00 80  ......._.$2.....
0550: 25 02 00 10 00 80 00 5F  05 05 02 00 01 5F 05 06  %......_....._..
0560: 15 00 02 04 00 00 80 80  72 05 03 15 00 00 80 01  ........r.......
0570: 57 07 02 04 00 05 80 80  82 05 03 15 00 00 80 01  W...............
0580: 57 07 02 04 00 09 80 80  92 05 03 15 00 00 80 01  W...............
0590: 57 07 02 04 00 0A 80 80  A2 05 03 15 00 00 80 01  W...............
05A0: 57 07 02 04 00 0B 80 80  B2 05 03 15 00 00 80 01  W...............
05B0: 57 07 02 04 00 08 80 80  C2 05 03 15 00 00 80 01  W...............
05C0: 57 07 02 04 00 18 80 80  D2 05 03 15 00 00 80 01  W...............
05D0: 57 07 02 04 00 1A 80 80  E2 05 03 15 00 00 80 01  W...............
05E0: 57 07 02 04 00 10 80 80  F2 05 03 15 00 00 80 01  W...............
05F0: 57 07 02 04 00 11 80 80  02 06 03 15 00 00 80 01  W...............
0600: 57 07 02 04 00 1B 80 80  12 06 03 15 00 00 80 01  W...............
0610: 57 07 02 04 00 12 80 80  22 06 03 15 00 00 80 01  W.......".......
0620: 57 07 02 04 00 1C 80 80  32 06 03 15 00 00 80 01  W.......2.......
0630: 57 07 02 04 00 1D 80 80  42 06 03 15 00 00 80 01  W.......B.......
0640: 57 07 02 04 00 1E 80 80  52 06 03 15 00 00 80 01  W.......R.......
0650: 57 07 02 04 00 01 80 80  62 06 03 15 00 00 80 01  W.......b.......
0660: 57 07 02 04 00 02 80 80  72 06 03 15 00 00 80 01  W.......r.......
0670: 57 07 02 04 00 1F 80 80  82 06 03 15 00 00 80 01  W...............
0680: 57 07 02 04 00 19 80 80  92 06 03 15 00 00 80 01  W...............
0690: 57 07 02 04 00 0F 80 80  A2 06 03 15 00 00 80 01  W...............
06A0: 57 07 02 04 00 20 80 80  B2 06 03 15 00 00 80 01  W.... ..........
06B0: 57 07 02 04 00 21 80 80  C2 06 03 15 00 00 80 01  W....!..........
06C0: 57 07 02 04 00 22 80 80  D2 06 03 15 00 00 80 01  W...."..........
06D0: 57 07 02 04 00 23 80 80  E2 06 03 15 00 00 80 01  W....#..........
06E0: 57 07 02 04 00 24 80 80  F2 06 03 15 00 00 80 01  W....$..........
06F0: 57 07 02 04 00 25 80 80  02 07 03 15 00 00 80 01  W....%..........
0700: 57 07 02 04 00 26 80 80  12 07 03 15 00 00 80 01  W....&..........
0710: 57 07 02 04 00 27 80 80  22 07 03 15 00 00 80 01  W....'..".......
0720: 57 07 02 04 00 28 80 80  32 07 03 15 00 00 80 01  W....(..2.......
0730: 57 07 02 04 00 29 80 80  42 07 03 15 00 00 80 01  W....)..B.......
0740: 57 07 02 04 00 2A 80 80  52 07 03 15 00 00 80 01  W....*..R.......
0750: 57 07 03 15 00 00 80 02  02 00 05 80 00 72 07 5C  W............r.\
0760: 00 33 80 5C 01 33 80 5C  02 33 80 5C 03 33 80 01  .3.\.3.\.3.\.3..
0770: 8A 07 02 15 00 00 80 00  8A 07 5C 00 33 80 5C 01  ..........\.3.\.
0780: 33 80 5C 02 33 80 5C 03  33 80 02 02 00 00 80 00  3.\.3.\.3.......
0790: 98 07 1A 22 10 01 D1 07  6C F0 FF FF 7F 00 80 05  ..."....l.......
07A0: 80 62 09 80 F0 FF FF 7F  F0 FF FF 7F 6D 61 69 6E  .b..........main
07B0: 00 80 45 0E 80 F0 FF FF  7F F0 FF FF 7F 6F 76 6C  ..E..........ovl
07C0: 31 00 80 46 02 12 00 02  12 00 00 80 00 D1 07 46  1..F...........F
07D0: 00 03 01 10 31 80 07 01  10 03 00 01 F8 07 01 E1  ....1...........
07E0: 07 0B 00 00 02 00 80 05  80 00 F1 07 03 00 00 0B  ................
07F0: 80 01 A4 01 48 34 80 23  45 35 80 F0 FF FF 7F F0  ....H4.#E5......
0800: FF FF 7F 77 68 69 31 00  80 45 0E 80 F0 FF FF 7F  ...whi1..E......
0810: F0 FF FF 7F 62 6C 6F 66  00 80 45 0E 80 F0 FF FF  ....blof..E.....
0820: 7F F0 FF FF 7F 66 64 69  30 00 80 02 07 00 05 80  .....fdi0.......
0830: 00 43 08 5C 00 00 80 5C  01 00 80 5C 02 33 80 5C  .C.\...\...\.3.\
0840: 03 33 80 21 00 1B                                 .3.!..          
```

#### Opcodes

```
  0: 0x0002 [0x20] SET_CLI_EVENT_UC_FLAG: Lock player control
  1: 0x0004 [0x79] LocalPlayer looks at LocalPlayer (Basic look)
  2: 0x000E [0x03] ExtData[1]->WorkLocal[2] = Work_Zone[2]
  3: 0x0013 [0x03] ExtData[1]->WorkLocal[3] = Work_Zone[3]
  4: 0x0018 [0x03] ExtData[1]->WorkLocal[5] = Work_Zone[4]
  5: 0x001D [0x03] ExtData[1]->WorkLocal[6] = Work_Zone[5]
  6: 0x0022 [0x03] ExtData[1]->WorkLocal[15] = Work_Zone[6]
  7: 0x0027 [0x03] ExtData[1]->WorkLocal[16] = Work_Zone[7]
  8: 0x002C [0x03] ExtData[1]->WorkLocal[17] = Work_Zone[8]
  9: 0x0031 [0x41] ExtData[1]->WorkLocal[7] = Work_Zone[9] (bits 0*-15*)
 10: 0x003A [0x41] Work_Zone[6] = Work_Zone[9] (bits 16*-31*)
 11: 0x0043 [0x06] ExtData[1]->WorkLocal[1] = 0
 12: 0x0046 [0x02] IF !(ExtData[1]->WorkLocal[7] == 0*) GOTO 0x0145
 13: 0x004E [0x03] ExtData[1]->WorkLocal[8] = 4294967295*
 14: 0x0053 [0x0F] ExtData[1]->WorkLocal[8] ^= ExtData[1]->WorkLocal[6]
 15: 0x0058 [0x10] ExtData[1]->WorkLocal[8] <<= 1*
 16: 0x005D [0x24] CREATE_DIALOG(message_id=7676*, default_option=0*, option_flags=ExtData[1]->WorkLocal[8])
    → "Which battlefield will you enter? [None./Trial by Water./Trial-Size Trial by Water./Waking the Beast./Sugar-coated Directive./$26Trial by Water././././././././././././././././././././././././././]"
 17: 0x0064 [0x25] WAIT_DIALOG_SELECT()
 18: 0x0065 [0x02] IF !(Work_Zone[0] == 0*) GOTO 0x0073
 19: 0x006D [0x01] GOTO 0x082B

SUBROUTINE_009F:
 20: 0x009F [0x3E] IF !(ExtData[1]->WorkLocal[16] bit ExtData[1]->WorkLocal[3]) GOTO 0x00A9
 21: 0x00A6 [0x01] GOTO 0x00B0
 22: 0x00A9 [0x3C] SET_BIT_FLAG_CONDITIONAL(target_work_offset=ExtData[1]->WorkLocal[8], bit_index_work_offset=1*, condition_work_offset=1*)

SUBROUTINE_00B0:
 23: 0x00B0 [0x1A] CALL_SUBROUTINE(address=0x1E41)
 24: 0x00B3 [0x24] CREATE_DIALOG(message_id=7592*, default_option=5*, option_flags=ExtData[1]->WorkLocal[8])
    → "Select difficulty. [Very difficult. (Level: ???)/Difficult. (Level: ???)/Normal. (Level: $18)/Easy. (Level: $17)/Very Easy. (Level: $16)/Leave.]"
 25: 0x00BA [0x25] WAIT_DIALOG_SELECT()
 26: 0x00BB [0x02] IF !(Work_Zone[0] == 0*) GOTO 0x00CB
 27: 0x00C3 [0x03] ExtData[1]->WorkLocal[15] = 1*
 28: 0x00C8 [0x01] GOTO 0x011E
 29: 0x00CB [0x02] IF !(Work_Zone[0] == 1*) GOTO 0x00DB
 30: 0x00D3 [0x03] ExtData[1]->WorkLocal[15] = 2*
 31: 0x00D8 [0x01] GOTO 0x011E
 32: 0x00DB [0x02] IF !(Work_Zone[0] == 2*) GOTO 0x00EB
 33: 0x00E3 [0x03] ExtData[1]->WorkLocal[15] = 3*
 34: 0x00E8 [0x01] GOTO 0x011E
 35: 0x00EB [0x02] IF !(Work_Zone[0] == 3*) GOTO 0x00FB
 36: 0x00F3 [0x03] ExtData[1]->WorkLocal[15] = 4*
 37: 0x00F8 [0x01] GOTO 0x011E
 38: 0x00FB [0x02] IF !(Work_Zone[0] == 4*) GOTO 0x010B
 39: 0x0103 [0x03] ExtData[1]->WorkLocal[15] = 5*
 40: 0x0108 [0x01] GOTO 0x011E
 41: 0x010B [0x02] IF !(Work_Zone[0] == 5*) GOTO 0x0119
 42: 0x0113 [0x01] GOTO 0x082B

SUBROUTINE_011E:
 43: 0x011E [0x01] GOTO 0x0145
 44: 0x0121 [0x06] ExtData[1]->WorkLocal[15] = 0
 45: 0x0124 [0x1A] CALL_SUBROUTINE(address=0x0845)
 46: 0x0127 [0x02] IF !(ExtData[1]->WorkLocal[22] == 1*) GOTO 0x0145
 47: 0x012F [0x24] CREATE_DIALOG(message_id=7227*, default_option=1*, option_flags=0*)
    → "Enter the battlefield? [Enter./Decline.]"
 48: 0x0136 [0x25] WAIT_DIALOG_SELECT()
 49: 0x0137 [0x02] IF !(Work_Zone[0] == 1*) GOTO 0x0145
 50: 0x013F [0x01] GOTO 0x082B

SUBROUTINE_0145:
 51: 0x0145 [0x42] SET_CLI_EVENT_CANCEL_DATA()
 52: 0x0146 [0x03] Work_Zone[1] = 255*
 53: 0x014B [0x43] SEND_EVENT_UPDATE: Send pending tag to server (packet 0x005B)
 54: 0x014D [0x43] SEND_EVENT_UPDATE: Check pending flag (skip if not pending)
 55: 0x014F [0x06] Work_Zone[1] = 0
 56: 0x0152 [0x45] LOAD_SCHEDULED_TASK: Load scheduler "fdo1" with entities [LocalPlayer, LocalPlayer], work=[200*, 0*]
 57: 0x0163 [0x55] WAIT_LOAD_SCHEDULER: Wait for scheduler "fdo1" with entities [LocalPlayer, LocalPlayer], work=200*
 58: 0x0172 [0x3B] GET_ENTITY_POSITION(entity=LocalPlayer, x_destination=Work_Zone[32], y_destination=Work_Zone[33], z_destination=Work_Zone[34])
 59: 0x017D [0x38] SET_CLIENT_EVENT_MODE(mode=19*)
 60: 0x0180 [0x02] IF !(ExtData[1]->WorkLocal[7] == 1*) GOTO 0x019F
 61: 0x0188 [0x03] ExtData[1]->WorkLocal[0] = 1*
 62: 0x018D [0x03] ExtData[1]->WorkLocal[4] = ExtData[1]->WorkLocal[3]
 63: 0x0192 [0x03] ExtData[1]->WorkLocal[2] = 0*
 64: 0x0197 [0x03] ExtData[1]->WorkLocal[28] = 0*
 65: 0x019C [0x01] GOTO 0x055F

SUBROUTINE_019F:
 66: 0x019F [0x03] ExtData[1]->WorkLocal[0] = 1*

SUBROUTINE_01A4:
 67: 0x01A4 [0x02] IF !(ExtData[1]->WorkLocal[0] > 3*) GOTO 0x07F4
 68: 0x01AC [0x02] IF !(0* == 1*) GOTO 0x01B9
 69: 0x01B4 [0x03] ExtData[1]->WorkLocal[0] = ExtData[1]->WorkLocal[5]
 70: 0x01B9 [0x40] SET_BIT_WORK_RANGE(start_bit=0*, end_bit=3*, target=Work_Zone[1], source=ExtData[1]->WorkLocal[0])
 71: 0x01C2 [0x40] SET_BIT_WORK_RANGE(start_bit=4*, end_bit=8*, target=Work_Zone[1], source=ExtData[1]->WorkLocal[3])
 72: 0x01CB [0x40] SET_BIT_WORK_RANGE(start_bit=9*, end_bit=11*, target=Work_Zone[1], source=ExtData[1]->WorkLocal[15])
 73: 0x01D4 [0x06] Work_Zone[2] = 0
 74: 0x01D7 [0x06] Work_Zone[3] = 0
 75: 0x01DA [0x06] Work_Zone[4] = 0
 76: 0x01DD [0x1A] CALL_SUBROUTINE(address=0x2102)
 77: 0x01E0 [0x47] UPDATE_PLAYER_POS(ExtData[1]->WorkLocal[9], ExtData[1]->WorkLocal[10], ExtData[1]->WorkLocal[11], yaw=ExtData[1]->WorkLocal[12])
 78: 0x01EA [0x47] WAIT_PLAYER_POS_UPDATE
 79: 0x01EC [0x03] ExtData[1]->WorkLocal[4] = Work_Zone[3]
 80: 0x01F1 [0x03] ExtData[1]->WorkLocal[2] = Work_Zone[4]
 81: 0x01F6 [0x03] ExtData[1]->WorkLocal[26] = Work_Zone[5]
 82: 0x01FB [0x03] ExtData[1]->WorkLocal[13] = Work_Zone[6]
 83: 0x0200 [0x03] ExtData[1]->WorkLocal[14] = Work_Zone[7]
 84: 0x0205 [0x03] ExtData[1]->WorkLocal[28] = Work_Zone[9]
 85: 0x020A [0x02] IF !(Work_Zone[2] == 1*) GOTO 0x0215
 86: 0x0212 [0x01] GOTO 0x07E1
 87: 0x0215 [0x02] IF !(Work_Zone[2] == 4*) GOTO 0x025F
 88: 0x021D [0x02] IF !(ExtData[1]->WorkLocal[0] == 1*) GOTO 0x022C
 89: 0x0225 [0x48] [System] [7238*]:
    → "You are cleared to enter the battlefield, but you cannot while party members are engaged in combat."
 90: 0x0228 [0x23] WAIT_FOR_DIALOG_INTERACTION
 91: 0x0229 [0x01] GOTO 0x0259
 92: 0x022C [0x02] IF !(ExtData[1]->WorkLocal[0] == 2*) GOTO 0x023B
 93: 0x0234 [0x48] [System] [7239*]:
    → "You are cleared to enter the battlefield, but you cannot while party members are engaged in combat."
 94: 0x0237 [0x23] WAIT_FOR_DIALOG_INTERACTION
 95: 0x0238 [0x01] GOTO 0x0259
 96: 0x023B [0x02] IF !(ExtData[1]->WorkLocal[0] == 3*) GOTO 0x024A
 97: 0x0243 [0x48] [System] [7240*]:
    → "You are cleared to enter the battlefield, but you cannot while party members are engaged in combat."
 98: 0x0246 [0x23] WAIT_FOR_DIALOG_INTERACTION
 99: 0x0247 [0x01] GOTO 0x0259
100: 0x024A [0x02] IF !(ExtData[1]->WorkLocal[0] == 4*) GOTO 0x0259
101: 0x0252 [0x48] [System] [7241*]:
    → "You are cleared to enter the battlefield, but you cannot while party members are engaged in combat."
102: 0x0255 [0x23] WAIT_FOR_DIALOG_INTERACTION
103: 0x0256 [0x01] GOTO 0x0259

SUBROUTINE_0259:
104: 0x0259 [0x01] GOTO 0x07F8

SUBROUTINE_0469:
105: 0x0469 [0x48] [System] [7586*]:
    → "Only $3 [member/members] have clearance to enter the battlefield. This room has reached its maximum capacity."
106: 0x046C [0x23] WAIT_FOR_DIALOG_INTERACTION
107: 0x046D [0x01] GOTO 0x07F8

SUBROUTINE_04C6:
108: 0x04C6 [0x01] GOTO 0x0515
109: 0x04C9 [0x03] Work_Zone[5] = ExtData[1]->WorkLocal[26]
110: 0x04CE [0x02] IF !(ExtData[1]->WorkLocal[26] <= 0*) GOTO 0x04F5
111: 0x04D6 [0x02] IF !(ExtData[1]->WorkLocal[26] < 60*) GOTO 0x04F1
112: 0x04DE [0x3F] Work_Zone[4] = Work_Zone[5] % 60*
113: 0x04E5 [0x15] Work_Zone[5] /= 60*
114: 0x04EA [0x48] [System] [7674*]:
    → "The current battlefield clear time record for "[Trial by Water/Trial-Size Trial by Water/Waking the Beast/Sugar-coated Directive/$26Trial by Water]" is $3 minute[/s] $2 second[/s]."
115: 0x04ED [0x23] WAIT_FOR_DIALOG_INTERACTION
116: 0x04EE [0x01] GOTO 0x04F5
117: 0x04F1 [0x48] [System] [7673*]:
    → "The current battlefield clear time record for "[Trial by Water/Trial-Size Trial by Water/Waking the Beast/Sugar-coated Directive/$26Trial by Water]" is $3 second[/s]."
118: 0x04F4 [0x23] WAIT_FOR_DIALOG_INTERACTION

SUBROUTINE_04F5:
119: 0x04F5 [0x02] IF !(ExtData[1]->WorkLocal[13] > 1*) GOTO 0x0504
120: 0x04FD [0x48] [System] [7591*]:
    → "That record is held by %0!"
121: 0x0500 [0x23] WAIT_FOR_DIALOG_INTERACTION
122: 0x0501 [0x01] GOTO 0x0515
123: 0x0504 [0x03] Work_Zone[6] = ExtData[1]->WorkLocal[13]
124: 0x0509 [0x0C] Work_Zone[6]--
125: 0x050C [0x03] Work_Zone[7] = ExtData[1]->WorkLocal[13]
126: 0x0511 [0x48] [System] [7590*]:
    → "That record is held by $5 adventurers, including %0!"
127: 0x0514 [0x23] WAIT_FOR_DIALOG_INTERACTION

SUBROUTINE_0515:
128: 0x0515 [0x03] ExtData[1]->WorkLocal[3] = ExtData[1]->WorkLocal[4]
129: 0x051A [0x03] ExtData[1]->WorkLocal[20] = 100*
130: 0x051F [0x07] ExtData[1]->WorkLocal[20] += ExtData[1]->WorkLocal[3]
131: 0x0524 [0x02] IF !(ExtData[1]->WorkLocal[2] == ExtData[1]->WorkLocal[20]) GOTO 0x0534
132: 0x052C [0x03] ExtData[1]->WorkLocal[2] = 1*
133: 0x0531 [0x01] GOTO 0x0539
134: 0x0534 [0x03] ExtData[1]->WorkLocal[2] = 0*

SUBROUTINE_0539:
135: 0x0539 [0x02] IF !(ExtData[1]->WorkLocal[2] == 0*) GOTO 0x055F
136: 0x0541 [0x02] IF !(ExtData[1]->WorkLocal[14] == 1*) GOTO 0x055F
137: 0x0549 [0x24] CREATE_DIALOG(message_id=7566*, default_option=1*, option_flags=0*)
    → "Skip the event? [Yes./No.]"
138: 0x0550 [0x25] WAIT_DIALOG_SELECT()
139: 0x0551 [0x02] IF !(Work_Zone[0] == 0*) GOTO 0x055F
140: 0x0559 [0x05] ExtData[1]->WorkLocal[2] = 1
141: 0x055C [0x01] GOTO 0x055F

SUBROUTINE_055F:
142: 0x055F [0x06] ExtData[1]->WorkLocal[21] = 0
143: 0x0562 [0x02] IF !(ExtData[1]->WorkLocal[4] == 0*) GOTO 0x0572
144: 0x056A [0x03] ExtData[1]->WorkLocal[21] = 0*
145: 0x056F [0x01] GOTO 0x0757
146: 0x0572 [0x02] IF !(ExtData[1]->WorkLocal[4] == 1*) GOTO 0x0582
147: 0x057A [0x03] ExtData[1]->WorkLocal[21] = 0*
148: 0x057F [0x01] GOTO 0x0757
149: 0x0582 [0x02] IF !(ExtData[1]->WorkLocal[4] == 2*) GOTO 0x0592
150: 0x058A [0x03] ExtData[1]->WorkLocal[21] = 0*
151: 0x058F [0x01] GOTO 0x0757
152: 0x0592 [0x02] IF !(ExtData[1]->WorkLocal[4] == 3*) GOTO 0x05A2
153: 0x059A [0x03] ExtData[1]->WorkLocal[21] = 0*
154: 0x059F [0x01] GOTO 0x0757
155: 0x05A2 [0x02] IF !(ExtData[1]->WorkLocal[4] == 4*) GOTO 0x05B2
156: 0x05AA [0x03] ExtData[1]->WorkLocal[21] = 0*
157: 0x05AF [0x01] GOTO 0x0757
158: 0x05B2 [0x02] IF !(ExtData[1]->WorkLocal[4] == 5*) GOTO 0x05C2
159: 0x05BA [0x03] ExtData[1]->WorkLocal[21] = 0*
160: 0x05BF [0x01] GOTO 0x0757
161: 0x05C2 [0x02] IF !(ExtData[1]->WorkLocal[4] == 6*) GOTO 0x05D2
162: 0x05CA [0x03] ExtData[1]->WorkLocal[21] = 0*
163: 0x05CF [0x01] GOTO 0x0757
164: 0x05D2 [0x02] IF !(ExtData[1]->WorkLocal[4] == 7*) GOTO 0x05E2
165: 0x05DA [0x03] ExtData[1]->WorkLocal[21] = 0*
166: 0x05DF [0x01] GOTO 0x0757
167: 0x05E2 [0x02] IF !(ExtData[1]->WorkLocal[4] == 8*) GOTO 0x05F2
168: 0x05EA [0x03] ExtData[1]->WorkLocal[21] = 0*
169: 0x05EF [0x01] GOTO 0x0757
170: 0x05F2 [0x02] IF !(ExtData[1]->WorkLocal[4] == 9*) GOTO 0x0602
171: 0x05FA [0x03] ExtData[1]->WorkLocal[21] = 0*
172: 0x05FF [0x01] GOTO 0x0757
173: 0x0602 [0x02] IF !(ExtData[1]->WorkLocal[4] == 10*) GOTO 0x0612
174: 0x060A [0x03] ExtData[1]->WorkLocal[21] = 0*
175: 0x060F [0x01] GOTO 0x0757
176: 0x0612 [0x02] IF !(ExtData[1]->WorkLocal[4] == 11*) GOTO 0x0622
177: 0x061A [0x03] ExtData[1]->WorkLocal[21] = 0*
178: 0x061F [0x01] GOTO 0x0757
179: 0x0622 [0x02] IF !(ExtData[1]->WorkLocal[4] == 12*) GOTO 0x0632
180: 0x062A [0x03] ExtData[1]->WorkLocal[21] = 0*
181: 0x062F [0x01] GOTO 0x0757
182: 0x0632 [0x02] IF !(ExtData[1]->WorkLocal[4] == 13*) GOTO 0x0642
183: 0x063A [0x03] ExtData[1]->WorkLocal[21] = 0*
184: 0x063F [0x01] GOTO 0x0757
185: 0x0642 [0x02] IF !(ExtData[1]->WorkLocal[4] == 14*) GOTO 0x0652
186: 0x064A [0x03] ExtData[1]->WorkLocal[21] = 0*
187: 0x064F [0x01] GOTO 0x0757
188: 0x0652 [0x02] IF !(ExtData[1]->WorkLocal[4] == 15*) GOTO 0x0662
189: 0x065A [0x03] ExtData[1]->WorkLocal[21] = 0*
190: 0x065F [0x01] GOTO 0x0757
191: 0x0662 [0x02] IF !(ExtData[1]->WorkLocal[4] == 16*) GOTO 0x0672
192: 0x066A [0x03] ExtData[1]->WorkLocal[21] = 0*
193: 0x066F [0x01] GOTO 0x0757
194: 0x0672 [0x02] IF !(ExtData[1]->WorkLocal[4] == 17*) GOTO 0x0682
195: 0x067A [0x03] ExtData[1]->WorkLocal[21] = 0*
196: 0x067F [0x01] GOTO 0x0757
197: 0x0682 [0x02] IF !(ExtData[1]->WorkLocal[4] == 18*) GOTO 0x0692
198: 0x068A [0x03] ExtData[1]->WorkLocal[21] = 0*
199: 0x068F [0x01] GOTO 0x0757
200: 0x0692 [0x02] IF !(ExtData[1]->WorkLocal[4] == 19*) GOTO 0x06A2
201: 0x069A [0x03] ExtData[1]->WorkLocal[21] = 0*
202: 0x069F [0x01] GOTO 0x0757
203: 0x06A2 [0x02] IF !(ExtData[1]->WorkLocal[4] == 20*) GOTO 0x06B2
204: 0x06AA [0x03] ExtData[1]->WorkLocal[21] = 0*
205: 0x06AF [0x01] GOTO 0x0757
206: 0x06B2 [0x02] IF !(ExtData[1]->WorkLocal[4] == 21*) GOTO 0x06C2
207: 0x06BA [0x03] ExtData[1]->WorkLocal[21] = 0*
208: 0x06BF [0x01] GOTO 0x0757
209: 0x06C2 [0x02] IF !(ExtData[1]->WorkLocal[4] == 22*) GOTO 0x06D2
210: 0x06CA [0x03] ExtData[1]->WorkLocal[21] = 0*
211: 0x06CF [0x01] GOTO 0x0757
212: 0x06D2 [0x02] IF !(ExtData[1]->WorkLocal[4] == 23*) GOTO 0x06E2
213: 0x06DA [0x03] ExtData[1]->WorkLocal[21] = 0*
214: 0x06DF [0x01] GOTO 0x0757
215: 0x06E2 [0x02] IF !(ExtData[1]->WorkLocal[4] == 24*) GOTO 0x06F2
216: 0x06EA [0x03] ExtData[1]->WorkLocal[21] = 0*
217: 0x06EF [0x01] GOTO 0x0757
218: 0x06F2 [0x02] IF !(ExtData[1]->WorkLocal[4] == 25*) GOTO 0x0702
219: 0x06FA [0x03] ExtData[1]->WorkLocal[21] = 0*
220: 0x06FF [0x01] GOTO 0x0757
221: 0x0702 [0x02] IF !(ExtData[1]->WorkLocal[4] == 26*) GOTO 0x0712
222: 0x070A [0x03] ExtData[1]->WorkLocal[21] = 0*
223: 0x070F [0x01] GOTO 0x0757
224: 0x0712 [0x02] IF !(ExtData[1]->WorkLocal[4] == 27*) GOTO 0x0722
225: 0x071A [0x03] ExtData[1]->WorkLocal[21] = 0*
226: 0x071F [0x01] GOTO 0x0757
227: 0x0722 [0x02] IF !(ExtData[1]->WorkLocal[4] == 28*) GOTO 0x0732
228: 0x072A [0x03] ExtData[1]->WorkLocal[21] = 0*
229: 0x072F [0x01] GOTO 0x0757
230: 0x0732 [0x02] IF !(ExtData[1]->WorkLocal[4] == 29*) GOTO 0x0742
231: 0x073A [0x03] ExtData[1]->WorkLocal[21] = 0*
232: 0x073F [0x01] GOTO 0x0757
233: 0x0742 [0x02] IF !(ExtData[1]->WorkLocal[4] == 30*) GOTO 0x0752
234: 0x074A [0x03] ExtData[1]->WorkLocal[21] = 0*
235: 0x074F [0x01] GOTO 0x0757
236: 0x0752 [0x03] ExtData[1]->WorkLocal[21] = 0*

SUBROUTINE_0757:
237: 0x0757 [0x02] IF !(ExtData[1]->WorkLocal[2] == 1*) GOTO 0x0772
238: 0x075F [0x5C] MUSIC_CONTROL: Set Idle (Day) music to song 193*
239: 0x0763 [0x5C] MUSIC_CONTROL: Set Idle (Night) music to song 193*
240: 0x0767 [0x5C] MUSIC_CONTROL: Set Combat (Solo) music to song 193*
241: 0x076B [0x5C] MUSIC_CONTROL: Set Combat (Party) music to song 193*
242: 0x076F [0x01] GOTO 0x078A
243: 0x0772 [0x02] IF !(ExtData[1]->WorkLocal[21] == 0*) GOTO 0x078A
244: 0x077A [0x5C] MUSIC_CONTROL: Set Idle (Day) music to song 193*
245: 0x077E [0x5C] MUSIC_CONTROL: Set Idle (Night) music to song 193*
246: 0x0782 [0x5C] MUSIC_CONTROL: Set Combat (Solo) music to song 193*
247: 0x0786 [0x5C] MUSIC_CONTROL: Set Combat (Party) music to song 193*

SUBROUTINE_078A:
248: 0x078A [0x02] IF !(ExtData[1]->WorkLocal[2] == 0*) GOTO 0x0798
249: 0x0792 [0x1A] CALL_SUBROUTINE(address=0x1022)
250: 0x0795 [0x01] GOTO 0x07D1
251: 0x0798 [0x6C] FADE_ENTITY_COLOR(entity_id=LocalPlayer, end_alpha=0*, fade_time=1*)
252: 0x07A1 [0x62] LOAD_EVENT_SCHEDULER: Load scheduler "main" with entities [LocalPlayer, LocalPlayer], work=[2*, 0*]
253: 0x07B2 [0x45] LOAD_SCHEDULED_TASK: Load scheduler "ovl1" with entities [LocalPlayer, LocalPlayer], work=[200*, 0*]
254: 0x07C3 [0x46] CAMERA_CONTROL: Query status
255: 0x07C5 [0x12] 0x0200 = rand()
256: 0x07C8 [0x12] ExtData[1]->WorkLocal[0] = rand()
257: 0x07CB [0x80] LOAD_WAIT(entity=Unknown NPC (ID: 1174917376/0x4607D100))
258: 0x07D0 [0x00] END_REQSTACK()

SUBROUTINE_07D1:
259: 0x07D1 [0x03] Work_Zone[1] = 100*
260: 0x07D6 [0x07] Work_Zone[1] += ExtData[1]->WorkLocal[3]
261: 0x07DB [0x01] GOTO 0x07F8

SUBROUTINE_07E1:
262: 0x07E1 [0x0B] ExtData[1]->WorkLocal[0]++
263: 0x07E4 [0x02] IF !(0* == 1*) GOTO 0x07F1
264: 0x07EC [0x03] ExtData[1]->WorkLocal[0] = 4*
265: 0x07F1 [0x01] GOTO 0x01A4
266: 0x07F4 [0x48] [System] [7230*]:
    → "You cannot enter the battlefield at present. Please wait a little longer."
267: 0x07F7 [0x23] WAIT_FOR_DIALOG_INTERACTION

SUBROUTINE_07F8:
268: 0x07F8 [0x45] LOAD_SCHEDULED_TASK: Load scheduler "whi1" with entities [LocalPlayer, LocalPlayer], work=[201*, 0*]
269: 0x0809 [0x45] LOAD_SCHEDULED_TASK: Load scheduler "blof" with entities [LocalPlayer, LocalPlayer], work=[200*, 0*]
270: 0x081A [0x45] LOAD_SCHEDULED_TASK: Load scheduler "fdi0" with entities [LocalPlayer, LocalPlayer], work=[200*, 0*]

SUBROUTINE_082B:
271: 0x082B [0x02] IF !(ExtData[1]->WorkLocal[7] == 1*) GOTO 0x0843
272: 0x0833 [0x5C] MUSIC_CONTROL: Set Idle (Day) music to song 0*
273: 0x0837 [0x5C] MUSIC_CONTROL: Set Idle (Night) music to song 0*
274: 0x083B [0x5C] MUSIC_CONTROL: Set Combat (Solo) music to song 193*
275: 0x083F [0x5C] MUSIC_CONTROL: Set Combat (Party) music to song 193*
276: 0x0843 [0x21] END_EVENT
277: 0x0844 [0x00] END_REQSTACK()

SUBROUTINE_0845:
278: 0x0845 [0x1B] RETURN
```

#### Data or dead code:

```
# Dead code (unreachable instructions):
     0x0070 [0x01] GOTO 0x0145
# Dead code (unreachable instructions):
     0x0116 [0x01] GOTO 0x011E
# Dead code (unreachable instructions):
     0x0142 [0x01] GOTO 0x0145
# Dead code (unreachable instructions):
     0x025C [0x01] GOTO 0x07E1
     0x026E [0x01] GOTO 0x07E1
# Dead code (unreachable instructions):
     0x0470 [0x01] GOTO 0x07E1
     0x047E [0x01] GOTO 0x07E1
# Dead code (unreachable instructions):
     0x07DE [0x01] GOTO 0x07E1
```

### Event 32002

#### Metadata

| Field        | Value     |
|--------------|-----------|
| Entrypoint   | 0x0846    |
| Data Size    | 494 bytes |
| Instructions | 83        |

```
      00 01 02 03 04 05 06 07  08 09 0A 0B 0C 0D 0E 0F
      -- -- -- -- -- -- -- --  -- -- -- -- -- -- -- --
0840:                   03 05  00 06 10 03 21 00 07 10        ......!...
0850: 03 20 00 08 10 20 01 42  3B F0 FF FF 7F 20 10 21  . ... .B;.... .!
0860: 10 22 10 3A F0 FF FF 7F  23 10 45 0E 80 F0 FF FF  .".:....#.E.....
0870: 7F F0 FF FF 7F 66 64 6F  31 00 80 55 0E 80 F0 FF  .....fdo1..U....
0880: FF 7F F0 FF FF 7F 66 64  6F 31 02 00 80 05 80 00  ......fdo1......
0890: F1 08 02 05 00 05 80 80  A9 08 47 00 00 80 00 80  ..........G.....
08A0: 00 80 00 80 47 01 01 EE  08 02 05 00 09 80 80 C0  ....G...........
08B0: 08 47 00 00 80 00 80 00  80 00 80 47 01 01 EE 08  .G.........G....
08C0: 02 05 00 0A 80 80 D7 08  47 00 00 80 00 80 00 80  ........G.......
08D0: 00 80 47 01 01 EE 08 02  05 00 0B 80 80 EE 08 47  ..G............G
08E0: 00 00 80 00 80 00 80 00  80 47 01 01 EE 08 01 FA  .........G......
08F0: 09 02 20 00 36 80 80 7B  09 02 21 00 00 80 80 10  .. .6..{..!.....
0900: 09 47 00 37 80 38 80 39  80 3A 80 47 01 01 78 09  .G.7.8.9.:.G..x.
0910: 02 21 00 05 80 80 27 09  47 00 3B 80 3C 80 3D 80  .!....'.G.;.<.=.
0920: 3E 80 47 01 01 78 09 02  21 00 09 80 80 3E 09 47  >.G..x..!....>.G
0930: 00 3F 80 40 80 41 80 42  80 47 01 01 78 09 02 21  .?.@.A.B.G..x..!
0940: 00 0A 80 80 55 09 47 00  43 80 44 80 45 80 46 80  ....U.G.C.D.E.F.
0950: 47 01 01 78 09 02 21 00  0B 80 80 6C 09 47 00 47  G..x..!....l.G.G
0960: 80 48 80 49 80 4A 80 47  01 01 78 09 47 00 4B 80  .H.I.J.G..x.G.K.
0970: 4C 80 4D 80 4E 80 47 01  01 FA 09 02 20 00 18 80  L.M.N.G..... ...
0980: 80 EE 09 02 21 00 05 80  80 9A 09 47 00 4F 80 50  ....!......G.O.P
0990: 80 51 80 52 80 47 01 01  EB 09 02 21 00 09 80 80  .Q.R.G.....!....
09A0: B1 09 47 00 53 80 54 80  55 80 56 80 47 01 01 EB  ..G.S.T.U.V.G...
09B0: 09 02 21 00 0A 80 80 C8  09 47 00 57 80 58 80 59  ..!......G.W.X.Y
09C0: 80 5A 80 47 01 01 EB 09  02 21 00 0B 80 80 DF 09  .Z.G.....!......
09D0: 47 00 5B 80 5C 80 5D 80  5E 80 47 01 01 EB 09 47  G.[.\.].^.G....G
09E0: 00 4B 80 4C 80 4D 80 4E  80 47 01 01 FA 09 47 00  .K.L.M.N.G....G.
09F0: 4B 80 4C 80 4D 80 4E 80  47 01 38 0F 80 1A B8 1D  K.L.M.N.G.8.....
0A00: 45 35 80 F0 FF FF 7F F0  FF FF 7F 77 68 69 31 00  E5.........whi1.
0A10: 80 45 0E 80 F0 FF FF 7F  F0 FF FF 7F 62 6C 6F 66  .E..........blof
0A20: 00 80 5C 00 00 80 5C 01  00 80 5C 02 33 80 5C 03  ..\...\...\.3.\.
0A30: 33 80 21 00                                       3.!.            
```

#### Opcodes

```
  0: 0x0846 [0x03] ExtData[1]->WorkLocal[5] = Work_Zone[6]
  1: 0x084B [0x03] ExtData[1]->WorkLocal[33] = Work_Zone[7]
  2: 0x0850 [0x03] ExtData[1]->WorkLocal[32] = Work_Zone[8]
  3: 0x0855 [0x20] SET_CLI_EVENT_UC_FLAG: Lock player control
  4: 0x0857 [0x42] SET_CLI_EVENT_CANCEL_DATA()
  5: 0x0858 [0x3B] GET_ENTITY_POSITION(entity=LocalPlayer, x_destination=Work_Zone[32], y_destination=Work_Zone[33], z_destination=Work_Zone[34])
  6: 0x0863 [0x3A] CONVERT_YAW_TO_BYTE(entity=LocalPlayer, result_destination=Work_Zone[35])
  7: 0x086A [0x45] LOAD_SCHEDULED_TASK: Load scheduler "fdo1" with entities [LocalPlayer, LocalPlayer], work=[200*, 0*]
  8: 0x087B [0x55] WAIT_LOAD_SCHEDULER: Wait for scheduler "fdo1" with entities [LocalPlayer, LocalPlayer], work=200*
  9: 0x088A [0x02] IF !(0* == 1*) GOTO 0x08F1
 10: 0x0892 [0x02] IF !(ExtData[1]->WorkLocal[5] == 1*) GOTO 0x08A9
 11: 0x089A [0x47] UPDATE_PLAYER_POS(0.000*, 0.000*, 0.000*, yaw=0.0°*)
 12: 0x08A4 [0x47] WAIT_PLAYER_POS_UPDATE
 13: 0x08A6 [0x01] GOTO 0x08EE
 14: 0x08A9 [0x02] IF !(ExtData[1]->WorkLocal[5] == 2*) GOTO 0x08C0
 15: 0x08B1 [0x47] UPDATE_PLAYER_POS(0.000*, 0.000*, 0.000*, yaw=0.0°*)
 16: 0x08BB [0x47] WAIT_PLAYER_POS_UPDATE
 17: 0x08BD [0x01] GOTO 0x08EE
 18: 0x08C0 [0x02] IF !(ExtData[1]->WorkLocal[5] == 3*) GOTO 0x08D7
 19: 0x08C8 [0x47] UPDATE_PLAYER_POS(0.000*, 0.000*, 0.000*, yaw=0.0°*)
 20: 0x08D2 [0x47] WAIT_PLAYER_POS_UPDATE
 21: 0x08D4 [0x01] GOTO 0x08EE
 22: 0x08D7 [0x02] IF !(ExtData[1]->WorkLocal[5] == 4*) GOTO 0x08EE
 23: 0x08DF [0x47] UPDATE_PLAYER_POS(0.000*, 0.000*, 0.000*, yaw=0.0°*)
 24: 0x08E9 [0x47] WAIT_PLAYER_POS_UPDATE
 25: 0x08EB [0x01] GOTO 0x08EE

SUBROUTINE_08EE:
 26: 0x08EE [0x01] GOTO 0x09FA
 27: 0x08F1 [0x02] IF !(ExtData[1]->WorkLocal[32] == 180*) GOTO 0x097B
 28: 0x08F9 [0x02] IF !(ExtData[1]->WorkLocal[33] == 0*) GOTO 0x0910
 29: 0x0901 [0x47] UPDATE_PLAYER_POS(-605.141*, 479.929*, -22.681*, yaw=87.2°*)
 30: 0x090B [0x47] WAIT_PLAYER_POS_UPDATE
 31: 0x090D [0x01] GOTO 0x0978
 32: 0x0910 [0x02] IF !(ExtData[1]->WorkLocal[33] == 1*) GOTO 0x0927
 33: 0x0918 [0x47] UPDATE_PLAYER_POS(-262.589*, 377.857*, -137.313*, yaw=305.3°*)
 34: 0x0922 [0x47] WAIT_PLAYER_POS_UPDATE
 35: 0x0924 [0x01] GOTO 0x0978
 36: 0x0927 [0x02] IF !(ExtData[1]->WorkLocal[33] == 2*) GOTO 0x093E
 37: 0x092F [0x47] UPDATE_PLAYER_POS(18.348*, 486.940*, -224.334*, yaw=17.1°*)
 38: 0x0939 [0x47] WAIT_PLAYER_POS_UPDATE
 39: 0x093B [0x01] GOTO 0x0978
 40: 0x093E [0x02] IF !(ExtData[1]->WorkLocal[33] == 3*) GOTO 0x0955
 41: 0x0946 [0x47] UPDATE_PLAYER_POS(231.593*, 360.094*, -173.572*, yaw=160.8°*)
 42: 0x0950 [0x47] WAIT_PLAYER_POS_UPDATE
 43: 0x0952 [0x01] GOTO 0x0978
 44: 0x0955 [0x02] IF !(ExtData[1]->WorkLocal[33] == 4*) GOTO 0x096C
 45: 0x095D [0x47] UPDATE_PLAYER_POS(553.664*, 523.939*, -38.205*, yaw=233.9°*)
 46: 0x0967 [0x47] WAIT_PLAYER_POS_UPDATE
 47: 0x0969 [0x01] GOTO 0x0978
 48: 0x096C [0x47] UPDATE_PLAYER_POS(569.370*, 551.620*, 37.175*, yaw=67.6°*)
 49: 0x0976 [0x47] WAIT_PLAYER_POS_UPDATE

SUBROUTINE_0978:
 50: 0x0978 [0x01] GOTO 0x09FA
 51: 0x097B [0x02] IF !(ExtData[1]->WorkLocal[32] == 6*) GOTO 0x09EE
 52: 0x0983 [0x02] IF !(ExtData[1]->WorkLocal[33] == 1*) GOTO 0x099A
 53: 0x098B [0x47] UPDATE_PLAYER_POS(-875.117*, -43.892*, -48.084*, yaw=45.1°*)
 54: 0x0995 [0x47] WAIT_PLAYER_POS_UPDATE
 55: 0x0997 [0x01] GOTO 0x09EB
 56: 0x099A [0x02] IF !(ExtData[1]->WorkLocal[33] == 2*) GOTO 0x09B1
 57: 0x09A2 [0x47] UPDATE_PLAYER_POS(-755.499*, 563.947*, -112.035*, yaw=313.5°*)
 58: 0x09AC [0x47] WAIT_PLAYER_POS_UPDATE
 59: 0x09AE [0x01] GOTO 0x09EB
 60: 0x09B1 [0x02] IF !(ExtData[1]->WorkLocal[33] == 3*) GOTO 0x09C8
 61: 0x09B9 [0x47] UPDATE_PLAYER_POS(123.251*, 754.209*, -172.124*, yaw=38.7°*)
 62: 0x09C3 [0x47] WAIT_PLAYER_POS_UPDATE
 63: 0x09C5 [0x01] GOTO 0x09EB
 64: 0x09C8 [0x02] IF !(ExtData[1]->WorkLocal[33] == 4*) GOTO 0x09DF
 65: 0x09D0 [0x47] UPDATE_PLAYER_POS(-516.404*, -803.323*, 24.206*, yaw=38.4°*)
 66: 0x09DA [0x47] WAIT_PLAYER_POS_UPDATE
 67: 0x09DC [0x01] GOTO 0x09EB
 68: 0x09DF [0x47] UPDATE_PLAYER_POS(569.370*, 551.620*, 37.175*, yaw=67.6°*)
 69: 0x09E9 [0x47] WAIT_PLAYER_POS_UPDATE

SUBROUTINE_09EB:
 70: 0x09EB [0x01] GOTO 0x09FA
 71: 0x09EE [0x47] UPDATE_PLAYER_POS(569.370*, 551.620*, 37.175*, yaw=67.6°*)
 72: 0x09F8 [0x47] WAIT_PLAYER_POS_UPDATE

SUBROUTINE_09FA:
 73: 0x09FA [0x38] SET_CLIENT_EVENT_MODE(mode=19*)
 74: 0x09FD [0x1A] CALL_SUBROUTINE(address=0x1DB8)
 75: 0x0A00 [0x45] LOAD_SCHEDULED_TASK: Load scheduler "whi1" with entities [LocalPlayer, LocalPlayer], work=[201*, 0*]
 76: 0x0A11 [0x45] LOAD_SCHEDULED_TASK: Load scheduler "blof" with entities [LocalPlayer, LocalPlayer], work=[200*, 0*]
 77: 0x0A22 [0x5C] MUSIC_CONTROL: Set Idle (Day) music to song 0*
 78: 0x0A26 [0x5C] MUSIC_CONTROL: Set Idle (Night) music to song 0*
 79: 0x0A2A [0x5C] MUSIC_CONTROL: Set Combat (Solo) music to song 193*
 80: 0x0A2E [0x5C] MUSIC_CONTROL: Set Combat (Party) music to song 193*
 81: 0x0A32 [0x21] END_EVENT
 82: 0x0A33 [0x00] END_REQSTACK()
```

### Event 32001

#### Metadata

| Field        | Value      |
|--------------|------------|
| Entrypoint   | 0x0A34     |
| Data Size    | 1060 bytes |
| Instructions | 183        |

```
      00 01 02 03 04 05 06 07  08 09 0A 0B 0C 0D 0E 0F
      -- -- -- -- -- -- -- --  -- -- -- -- -- -- -- --
0A30:             79 00 F0 FF  FF 7F F0 FF FF 7F 03 21      y..........!
0A40: 00 02 10 03 1A 00 03 10  03 1B 00 05 10 03 20 00  .............. .
0A50: 06 10 03 19 00 07 10 03  17 00 08 10 02 17 00 0A  ................
0A60: 80 04 69 0A 03 17 00 00  80 03 1C 00 09 10 20 01  ..i........... .
0A70: 42 3B F0 FF FF 7F 20 10  21 10 22 10 3A F0 FF FF  B;.... .!.".:...
0A80: 7F 23 10 02 20 00 36 80  01 8E 0A 1C 5F 80 45 35  .#.. .6....._.E5
0A90: 80 F0 FF FF 7F F0 FF FF  7F 77 68 69 31 00 80 45  .........whi1..E
0AA0: 0E 80 F0 FF FF 7F F0 FF  FF 7F 62 6C 6F 66 00 80  ..........blof..
0AB0: 45 0E 80 F0 FF FF 7F F0  FF FF 7F 66 64 6F 31 00  E..........fdo1.
0AC0: 80 55 0E 80 F0 FF FF 7F  F0 FF FF 7F 66 64 6F 31  .U..........fdo1
0AD0: 6C F0 FF FF 7F 60 80 05  80 06 01 10 02 17 00 00  l....`..........
0AE0: 80 03 E7 0A 01 35 0C 02  20 00 36 80 80 71 0B 02  .....5.. .6..q..
0AF0: 21 00 00 80 80 06 0B 47  00 61 80 62 80 63 80 64  !......G.a.b.c.d
0B00: 80 47 01 01 6E 0B 02 21  00 05 80 80 1D 0B 47 00  .G..n..!......G.
0B10: 65 80 66 80 67 80 68 80  47 01 01 6E 0B 02 21 00  e.f.g.h.G..n..!.
0B20: 09 80 80 34 0B 47 00 69  80 6A 80 6B 80 6C 80 47  ...4.G.i.j.k.l.G
0B30: 01 01 6E 0B 02 21 00 0A  80 80 4B 0B 47 00 6D 80  ..n..!....K.G.m.
0B40: 6E 80 6F 80 70 80 47 01  01 6E 0B 02 21 00 0B 80  n.o.p.G..n..!...
0B50: 80 62 0B 47 00 71 80 72  80 73 80 74 80 47 01 01  .b.G.q.r.s.t.G..
0B60: 6E 0B 47 00 75 80 76 80  77 80 78 80 47 01 01 35  n.G.u.v.w.x.G..5
0B70: 0C 02 20 00 79 80 80 9F  0B 02 19 00 00 80 80 90  .. .y...........
0B80: 0B 47 00 75 80 76 80 77  80 78 80 47 01 01 9C 0B  .G.u.v.w.x.G....
0B90: 47 00 7A 80 7B 80 7C 80  7D 80 47 01 01 35 0C 02  G.z.{.|.}.G..5..
0BA0: 20 00 7E 80 80 CD 0B 02  19 00 0B 80 80 BE 0B 47   .~............G
0BB0: 00 7F 80 80 80 81 80 82  80 47 01 01 CA 0B 47 00  .........G....G.
0BC0: 75 80 76 80 77 80 78 80  47 01 01 35 0C 02 20 00  u.v.w.x.G..5.. .
0BD0: 83 80 80 FB 0B 02 19 00  0B 80 80 EC 0B 47 00 84  .............G..
0BE0: 80 85 80 86 80 87 80 47  01 01 F8 0B 47 00 75 80  .......G....G.u.
0BF0: 76 80 77 80 78 80 47 01  01 35 0C 02 20 00 88 80  v.w.x.G..5.. ...
0C00: 80 29 0C 02 19 00 0A 80  80 1A 0C 47 00 89 80 8A  .).........G....
0C10: 80 8B 80 8C 80 47 01 01  26 0C 47 00 75 80 76 80  .....G..&.G.u.v.
0C20: 77 80 78 80 47 01 01 35  0C 47 00 75 80 76 80 77  w.x.G..5.G.u.v.w
0C30: 80 78 80 47 01 38 0F 80  02 17 00 09 80 00 43 0C  .x.G.8........C.
0C40: 01 5E 0C 02 17 00 05 80  00 0E 0D 1C 01 80 24 32  .^............$2
0C50: 80 05 80 00 80 25 02 00  10 00 80 00 0E 0D 02 20  .....%......... 
0C60: 00 36 80 00 CA 0C 02 21  00 00 80 80 78 0C 36 61  .6.....!....x.6a
0C70: 80 62 80 63 80 01 C7 0C  02 21 00 05 80 80 8A 0C  .b.c.....!......
0C80: 36 65 80 66 80 67 80 01  C7 0C 02 21 00 09 80 80  6e.f.g.....!....
0C90: 9C 0C 36 69 80 6A 80 6B  80 01 C7 0C 02 21 00 0A  ..6i.j.k.....!..
0CA0: 80 80 AE 0C 36 6D 80 6E  80 6F 80 01 C7 0C 02 21  ....6m.n.o.....!
0CB0: 00 0B 80 80 C0 0C 36 71  80 72 80 73 80 01 C7 0C  ......6q.r.s....
0CC0: 36 75 80 76 80 77 80 01  D3 0C 37 75 80 76 80 77  6u.v.w....7u.v.w
0CD0: 80 78 80 80 F0 FF FF 7F  62 09 80 F0 FF FF 7F F0  .x......b.......
0CE0: FF FF 7F 6D 61 69 6E 00  80 45 0E 80 F0 FF FF 7F  ...main..E......
0CF0: F0 FF FF 7F 66 64 69 32  00 80 46 02 12 00 02 12  ....fdi2..F.....
0D00: 00 00 80 00 08 0D 46 00  01 50 0D 01 0E 0D 02 17  ......F..P......
0D10: 00 04 80 04 42 0D 5C 00  33 80 5C 01 33 80 5C 02  ....B.\.3.\.3.\.
0D20: 33 80 5C 03 33 80 02 19  00 09 80 80 41 0D 5C 00  3.\.3.......A.\.
0D30: 00 80 5C 01 00 80 5C 02  00 80 5C 03 00 80 01 41  ..\...\...\....A
0D40: 0D 9A 1A 54 15 02 17 00  00 80 03 50 0D 01 F0 0D  ...T.......P....
0D50: 02 20 00 8D 80 80 5B 0D  01 5B 0D 02 20 00 1F 80  . ....[..[.. ...
0D60: 80 66 0D 01 F0 0D 02 20  00 0F 80 80 71 0D 01 F0  .f..... ....q...
0D70: 0D 02 20 00 21 80 80 7C  0D 01 F0 0D 02 20 00 23  .. .!..|..... .#
0D80: 80 80 87 0D 01 F0 0D 03  05 10 1B 00 02 05 10 00  ................
0D90: 80 02 F0 0D 02 05 10 2E  80 04 AF 0D 3F 04 10 05  ............?...
0DA0: 10 2E 80 15 05 10 2E 80  48 8E 80 23 01 B3 0D 48  ........H..#...H
0DB0: 8F 80 23 02 1B 00 1A 00  05 C7 0D 03 07 10 19 00  ..#.............
0DC0: 48 90 80 23 01 F0 0D 02  1A 00 2E 80 04 E7 0D 03  H..#............
0DD0: 05 10 1A 00 3F 04 10 05  10 2E 80 15 05 10 2E 80  ....?...........
0DE0: 48 91 80 23 01 F0 0D 03  05 10 1A 00 48 92 80 23  H..#........H..#
0DF0: 02 18 00 00 80 00 08 0E  5C 00 00 80 5C 01 00 80  ........\...\...
0E00: 5C 02 33 80 5C 03 33 80  02 17 00 00 80 03 31 0E  \.3.\.3.......1.
0E10: 45 0E 80 F0 FF FF 7F F0  FF FF 7F 66 64 69 32 00  E..........fdi2.
0E20: 80 5C 00 00 80 5C 01 00  80 5C 02 33 80 5C 03 33  .\...\...\.3.\.3
0E30: 80 06 18 00 45 35 80 F0  FF FF 7F F0 FF FF 7F 77  ....E5.........w
0E40: 68 69 31 00 80 45 0E 80  F0 FF FF 7F F0 FF FF 7F  hi1..E..........
0E50: 62 6C 6F 66 00 80 21 00                           blof..!.        
```

#### Opcodes

```
  0: 0x0A34 [0x79] LocalPlayer looks at LocalPlayer (Basic look)
  1: 0x0A3E [0x03] ExtData[1]->WorkLocal[33] = Work_Zone[2]
  2: 0x0A43 [0x03] ExtData[1]->WorkLocal[26] = Work_Zone[3]
  3: 0x0A48 [0x03] ExtData[1]->WorkLocal[27] = Work_Zone[5]
  4: 0x0A4D [0x03] ExtData[1]->WorkLocal[32] = Work_Zone[6]
  5: 0x0A52 [0x03] ExtData[1]->WorkLocal[25] = Work_Zone[7]
  6: 0x0A57 [0x03] ExtData[1]->WorkLocal[23] = Work_Zone[8]
  7: 0x0A5C [0x02] IF !(ExtData[1]->WorkLocal[23] < 3*) GOTO 0x0A69
  8: 0x0A64 [0x03] ExtData[1]->WorkLocal[23] = 0*
  9: 0x0A69 [0x03] ExtData[1]->WorkLocal[28] = Work_Zone[9]
 10: 0x0A6E [0x20] SET_CLI_EVENT_UC_FLAG: Lock player control
 11: 0x0A70 [0x42] SET_CLI_EVENT_CANCEL_DATA()
 12: 0x0A71 [0x3B] GET_ENTITY_POSITION(entity=LocalPlayer, x_destination=Work_Zone[32], y_destination=Work_Zone[33], z_destination=Work_Zone[34])
 13: 0x0A7C [0x3A] CONVERT_YAW_TO_BYTE(entity=LocalPlayer, result_destination=Work_Zone[35])
 14: 0x0A83 [0x02] IF !(ExtData[1]->WorkLocal[32] == 180*) GOTO 0x0A8E
 15: 0x0A8B [0x1C] WAIT(300* ticks)
 16: 0x0A8E [0x45] LOAD_SCHEDULED_TASK: Load scheduler "whi1" with entities [LocalPlayer, LocalPlayer], work=[201*, 0*]
 17: 0x0A9F [0x45] LOAD_SCHEDULED_TASK: Load scheduler "blof" with entities [LocalPlayer, LocalPlayer], work=[200*, 0*]
 18: 0x0AB0 [0x45] LOAD_SCHEDULED_TASK: Load scheduler "fdo1" with entities [LocalPlayer, LocalPlayer], work=[200*, 0*]
 19: 0x0AC1 [0x55] WAIT_LOAD_SCHEDULER: Wait for scheduler "fdo1" with entities [LocalPlayer, LocalPlayer], work=200*
 20: 0x0AD0 [0x6C] FADE_ENTITY_COLOR(entity_id=LocalPlayer, end_alpha=128*, fade_time=1*)
 21: 0x0AD9 [0x06] Work_Zone[1] = 0
 22: 0x0ADC [0x02] IF !(ExtData[1]->WorkLocal[23] >= 0*) GOTO 0x0AE7
 23: 0x0AE4 [0x01] GOTO 0x0C35
 24: 0x0AE7 [0x02] IF !(ExtData[1]->WorkLocal[32] == 180*) GOTO 0x0B71
 25: 0x0AEF [0x02] IF !(ExtData[1]->WorkLocal[33] == 0*) GOTO 0x0B06
 26: 0x0AF7 [0x47] UPDATE_PLAYER_POS(-618.329*, -643.868*, -25.805*, yaw=330.5°*)
 27: 0x0B01 [0x47] WAIT_PLAYER_POS_UPDATE
 28: 0x0B03 [0x01] GOTO 0x0B6E
 29: 0x0B06 [0x02] IF !(ExtData[1]->WorkLocal[33] == 1*) GOTO 0x0B1D
 30: 0x0B0E [0x47] UPDATE_PLAYER_POS(-332.163*, -441.914*, -95.055*, yaw=330.5°*)
 31: 0x0B18 [0x47] WAIT_PLAYER_POS_UPDATE
 32: 0x0B1A [0x01] GOTO 0x0B6E
 33: 0x0B1D [0x02] IF !(ExtData[1]->WorkLocal[33] == 2*) GOTO 0x0B34
 34: 0x0B25 [0x47] UPDATE_PLAYER_POS(-12.464*, -648.377*, -194.629*, yaw=331.3°*)
 35: 0x0B2F [0x47] WAIT_PLAYER_POS_UPDATE
 36: 0x0B31 [0x01] GOTO 0x0B6E
 37: 0x0B34 [0x02] IF !(ExtData[1]->WorkLocal[33] == 3*) GOTO 0x0B4B
 38: 0x0B3C [0x47] UPDATE_PLAYER_POS(323.381*, -443.793*, -108.440*, yaw=329.1°*)
 39: 0x0B46 [0x47] WAIT_PLAYER_POS_UPDATE
 40: 0x0B48 [0x01] GOTO 0x0B6E
 41: 0x0B4B [0x02] IF !(ExtData[1]->WorkLocal[33] == 4*) GOTO 0x0B62
 42: 0x0B53 [0x47] UPDATE_PLAYER_POS(599.907*, -676.969*, -22.473*, yaw=330.7°*)
 43: 0x0B5D [0x47] WAIT_PLAYER_POS_UPDATE
 44: 0x0B5F [0x01] GOTO 0x0B6E
 45: 0x0B62 [0x47] UPDATE_PLAYER_POS(-461.401*, -500.826*, 26.453*, yaw=272.1°*)
 46: 0x0B6C [0x47] WAIT_PLAYER_POS_UPDATE

SUBROUTINE_0B6E:
 47: 0x0B6E [0x01] GOTO 0x0C35
 48: 0x0B71 [0x02] IF !(ExtData[1]->WorkLocal[32] == 168*) GOTO 0x0B9F
 49: 0x0B79 [0x02] IF !(ExtData[1]->WorkLocal[25] == 0*) GOTO 0x0B90
 50: 0x0B81 [0x47] UPDATE_PLAYER_POS(-461.401*, -500.826*, 26.453*, yaw=272.1°*)
 51: 0x0B8B [0x47] WAIT_PLAYER_POS_UPDATE
 52: 0x0B8D [0x01] GOTO 0x0B9C
 53: 0x0B90 [0x47] UPDATE_PLAYER_POS(200.059*, -21.958*, -0.250*, yaw=91.5°*)
 54: 0x0B9A [0x47] WAIT_PLAYER_POS_UPDATE

SUBROUTINE_0B9C:
 55: 0x0B9C [0x01] GOTO 0x0C35
 56: 0x0B9F [0x02] IF !(ExtData[1]->WorkLocal[32] == 202*) GOTO 0x0BCD
 57: 0x0BA7 [0x02] IF !(ExtData[1]->WorkLocal[25] == 4*) GOTO 0x0BBE
 58: 0x0BAF [0x47] UPDATE_PLAYER_POS(538.604*, 501.900*, -13.942*, yaw=286.5°*)
 59: 0x0BB9 [0x47] WAIT_PLAYER_POS_UPDATE
 60: 0x0BBB [0x01] GOTO 0x0BCA
 61: 0x0BBE [0x47] UPDATE_PLAYER_POS(-461.401*, -500.826*, 26.453*, yaw=272.1°*)
 62: 0x0BC8 [0x47] WAIT_PLAYER_POS_UPDATE

SUBROUTINE_0BCA:
 63: 0x0BCA [0x01] GOTO 0x0C35
 64: 0x0BCD [0x02] IF !(ExtData[1]->WorkLocal[32] == 203*) GOTO 0x0BFB
 65: 0x0BD5 [0x02] IF !(ExtData[1]->WorkLocal[25] == 4*) GOTO 0x0BEC
 66: 0x0BDD [0x47] UPDATE_PLAYER_POS(553.205*, 589.633*, -0.021*, yaw=124.4°*)
 67: 0x0BE7 [0x47] WAIT_PLAYER_POS_UPDATE
 68: 0x0BE9 [0x01] GOTO 0x0BF8
 69: 0x0BEC [0x47] UPDATE_PLAYER_POS(-461.401*, -500.826*, 26.453*, yaw=272.1°*)
 70: 0x0BF6 [0x47] WAIT_PLAYER_POS_UPDATE

SUBROUTINE_0BF8:
 71: 0x0BF8 [0x01] GOTO 0x0C35
 72: 0x0BFB [0x02] IF !(ExtData[1]->WorkLocal[32] == 211*) GOTO 0x0C29
 73: 0x0C03 [0x02] IF !(ExtData[1]->WorkLocal[25] == 3*) GOTO 0x0C1A
 74: 0x0C0B [0x47] UPDATE_PLAYER_POS(569.224*, 548.462*, 36.837*, yaw=59.1°*)
 75: 0x0C15 [0x47] WAIT_PLAYER_POS_UPDATE
 76: 0x0C17 [0x01] GOTO 0x0C26
 77: 0x0C1A [0x47] UPDATE_PLAYER_POS(-461.401*, -500.826*, 26.453*, yaw=272.1°*)
 78: 0x0C24 [0x47] WAIT_PLAYER_POS_UPDATE

SUBROUTINE_0C26:
 79: 0x0C26 [0x01] GOTO 0x0C35
 80: 0x0C29 [0x47] UPDATE_PLAYER_POS(-461.401*, -500.826*, 26.453*, yaw=272.1°*)
 81: 0x0C33 [0x47] WAIT_PLAYER_POS_UPDATE

SUBROUTINE_0C35:
 82: 0x0C35 [0x38] SET_CLIENT_EVENT_MODE(mode=19*)
 83: 0x0C38 [0x02] IF !(ExtData[1]->WorkLocal[23] == 2*) GOTO 0x0C43
 84: 0x0C40 [0x01] GOTO 0x0C5E
 85: 0x0C43 [0x02] IF !(ExtData[1]->WorkLocal[23] == 1*) GOTO 0x0D0E
 86: 0x0C4B [0x1C] WAIT(15* ticks)
 87: 0x0C4E [0x24] CREATE_DIALOG(message_id=7566*, default_option=1*, option_flags=0*)
    → "Skip the event? [Yes./No.]"
 88: 0x0C55 [0x25] WAIT_DIALOG_SELECT()
 89: 0x0C56 [0x02] IF !(Work_Zone[0] == 0*) GOTO 0x0D0E

SUBROUTINE_0C5E:
 90: 0x0C5E [0x02] IF !(ExtData[1]->WorkLocal[32] == 180*) GOTO 0x0CCA
 91: 0x0C66 [0x02] IF !(ExtData[1]->WorkLocal[33] == 0*) GOTO 0x0C78
 92: 0x0C6E [0x36] SET_ENTITY_EVENT_POSITION(pos_x=-618.329*, pos_z=-643.868*, pos_y=-25.805*)
 93: 0x0C75 [0x01] GOTO 0x0CC7
 94: 0x0C78 [0x02] IF !(ExtData[1]->WorkLocal[33] == 1*) GOTO 0x0C8A
 95: 0x0C80 [0x36] SET_ENTITY_EVENT_POSITION(pos_x=-332.163*, pos_z=-441.914*, pos_y=-95.055*)
 96: 0x0C87 [0x01] GOTO 0x0CC7
 97: 0x0C8A [0x02] IF !(ExtData[1]->WorkLocal[33] == 2*) GOTO 0x0C9C
 98: 0x0C92 [0x36] SET_ENTITY_EVENT_POSITION(pos_x=-12.464*, pos_z=-648.377*, pos_y=-194.629*)
 99: 0x0C99 [0x01] GOTO 0x0CC7
100: 0x0C9C [0x02] IF !(ExtData[1]->WorkLocal[33] == 3*) GOTO 0x0CAE
101: 0x0CA4 [0x36] SET_ENTITY_EVENT_POSITION(pos_x=323.381*, pos_z=-443.793*, pos_y=-108.440*)
102: 0x0CAB [0x01] GOTO 0x0CC7
103: 0x0CAE [0x02] IF !(ExtData[1]->WorkLocal[33] == 4*) GOTO 0x0CC0
104: 0x0CB6 [0x36] SET_ENTITY_EVENT_POSITION(pos_x=599.907*, pos_z=-676.969*, pos_y=-22.473*)
105: 0x0CBD [0x01] GOTO 0x0CC7
106: 0x0CC0 [0x36] SET_ENTITY_EVENT_POSITION(pos_x=-461.401*, pos_z=-500.826*, pos_y=26.453*)

SUBROUTINE_0CC7:
107: 0x0CC7 [0x01] GOTO 0x0CD3
108: 0x0CCA [0x37] UPDATE_EVENT_POSITION_AND_DIR: x=-461.401*, z=-500.826*, y=26.453*, direction=272.1°*

SUBROUTINE_0CD3:
109: 0x0CD3 [0x80] LOAD_WAIT(entity=LocalPlayer)
110: 0x0CD8 [0x62] LOAD_EVENT_SCHEDULER: Load scheduler "main" with entities [LocalPlayer, LocalPlayer], work=[2*, 0*]
111: 0x0CE9 [0x45] LOAD_SCHEDULED_TASK: Load scheduler "fdi2" with entities [LocalPlayer, LocalPlayer], work=[200*, 0*]
112: 0x0CFA [0x46] CAMERA_CONTROL: Query status
113: 0x0CFC [0x12] 0x0200 = rand()
114: 0x0CFF [0x12] ExtData[1]->WorkLocal[0] = rand()
115: 0x0D02 [0x80] LOAD_WAIT(entity=Unknown NPC (ID: 1175259136/0x460D0800))
116: 0x0D07 [0x00] END_REQSTACK()

SUBROUTINE_0D0E:
117: 0x0D0E [0x02] IF !(ExtData[1]->WorkLocal[23] < 4294967295*) GOTO 0x0D42
118: 0x0D16 [0x5C] MUSIC_CONTROL: Set Idle (Day) music to song 193*
119: 0x0D1A [0x5C] MUSIC_CONTROL: Set Idle (Night) music to song 193*
120: 0x0D1E [0x5C] MUSIC_CONTROL: Set Combat (Solo) music to song 193*
121: 0x0D22 [0x5C] MUSIC_CONTROL: Set Combat (Party) music to song 193*
122: 0x0D26 [0x02] IF !(ExtData[1]->WorkLocal[25] == 2*) GOTO 0x0D41
123: 0x0D2E [0x5C] MUSIC_CONTROL: Set Idle (Day) music to song 0*
124: 0x0D32 [0x5C] MUSIC_CONTROL: Set Idle (Night) music to song 0*
125: 0x0D36 [0x5C] MUSIC_CONTROL: Set Combat (Solo) music to song 0*
126: 0x0D3A [0x5C] MUSIC_CONTROL: Set Combat (Party) music to song 0*
127: 0x0D3E [0x01] GOTO 0x0D41

SUBROUTINE_0D41:
128: 0x0D41 [0x9A] WAIT_MUSIC_SERVER()
129: 0x0D42 [0x1A] CALL_SUBROUTINE(address=0x1554)
130: 0x0D45 [0x02] IF !(ExtData[1]->WorkLocal[23] >= 0*) GOTO 0x0D50
131: 0x0D4D [0x01] GOTO 0x0DF0

SUBROUTINE_0D50:
132: 0x0D50 [0x02] IF !(ExtData[1]->WorkLocal[32] == 36*) GOTO 0x0D5B
133: 0x0D58 [0x01] GOTO 0x0D5B

SUBROUTINE_0D5B:
134: 0x0D5B [0x02] IF !(ExtData[1]->WorkLocal[32] == 17*) GOTO 0x0D66
135: 0x0D63 [0x01] GOTO 0x0DF0
136: 0x0D66 [0x02] IF !(ExtData[1]->WorkLocal[32] == 19*) GOTO 0x0D71
137: 0x0D6E [0x01] GOTO 0x0DF0
138: 0x0D71 [0x02] IF !(ExtData[1]->WorkLocal[32] == 21*) GOTO 0x0D7C
139: 0x0D79 [0x01] GOTO 0x0DF0
140: 0x0D7C [0x02] IF !(ExtData[1]->WorkLocal[32] == 23*) GOTO 0x0D87
141: 0x0D84 [0x01] GOTO 0x0DF0
142: 0x0D87 [0x03] Work_Zone[5] = ExtData[1]->WorkLocal[27]
143: 0x0D8C [0x02] IF !(Work_Zone[5] <= 0*) GOTO 0x0DF0
144: 0x0D94 [0x02] IF !(Work_Zone[5] < 60*) GOTO 0x0DAF
145: 0x0D9C [0x3F] Work_Zone[4] = Work_Zone[5] % 60*
146: 0x0DA3 [0x15] Work_Zone[5] /= 60*
147: 0x0DA8 [0x48] [System] [7568*]:
    → "Battlefield clear time: $3 minute[/s], $2 second[/s]!"
148: 0x0DAB [0x23] WAIT_FOR_DIALOG_INTERACTION
149: 0x0DAC [0x01] GOTO 0x0DB3
150: 0x0DAF [0x48] [System] [7567*]:
    → "Battlefield clear time: $3 second[/s]!"
151: 0x0DB2 [0x23] WAIT_FOR_DIALOG_INTERACTION

SUBROUTINE_0DB3:
152: 0x0DB3 [0x02] IF !(ExtData[1]->WorkLocal[27] > ExtData[1]->WorkLocal[26]) GOTO 0x0DC7
153: 0x0DBB [0x03] Work_Zone[7] = ExtData[1]->WorkLocal[25]
154: 0x0DC0 [0x48] [System] [7672*]:
    → "You have broken the clear time record for "[Trial by Water/Trial-Size Trial by Water/Waking the Beast/Sugar-coated Directive/$26Trial by Water]"!"
155: 0x0DC3 [0x23] WAIT_FOR_DIALOG_INTERACTION
156: 0x0DC4 [0x01] GOTO 0x0DF0
157: 0x0DC7 [0x02] IF !(ExtData[1]->WorkLocal[26] < 60*) GOTO 0x0DE7
158: 0x0DCF [0x03] Work_Zone[5] = ExtData[1]->WorkLocal[26]
159: 0x0DD4 [0x3F] Work_Zone[4] = Work_Zone[5] % 60*
160: 0x0DDB [0x15] Work_Zone[5] /= 60*
161: 0x0DE0 [0x48] [System] [7570*]:
    → "The current battlefield clear time record is $3 minute[/s] $2 second[/s]."
162: 0x0DE3 [0x23] WAIT_FOR_DIALOG_INTERACTION
163: 0x0DE4 [0x01] GOTO 0x0DF0
164: 0x0DE7 [0x03] Work_Zone[5] = ExtData[1]->WorkLocal[26]
165: 0x0DEC [0x48] [System] [7569*]:
    → "The current battlefield clear time record is $3 second[/s]."
166: 0x0DEF [0x23] WAIT_FOR_DIALOG_INTERACTION

SUBROUTINE_0DF0:
167: 0x0DF0 [0x02] IF !(ExtData[1]->WorkLocal[24] == 0*) GOTO 0x0E08
168: 0x0DF8 [0x5C] MUSIC_CONTROL: Set Idle (Day) music to song 0*
169: 0x0DFC [0x5C] MUSIC_CONTROL: Set Idle (Night) music to song 0*
170: 0x0E00 [0x5C] MUSIC_CONTROL: Set Combat (Solo) music to song 193*
171: 0x0E04 [0x5C] MUSIC_CONTROL: Set Combat (Party) music to song 193*
172: 0x0E08 [0x02] IF !(ExtData[1]->WorkLocal[23] >= 0*) GOTO 0x0E31
173: 0x0E10 [0x45] LOAD_SCHEDULED_TASK: Load scheduler "fdi2" with entities [LocalPlayer, LocalPlayer], work=[200*, 0*]
174: 0x0E21 [0x5C] MUSIC_CONTROL: Set Idle (Day) music to song 0*
175: 0x0E25 [0x5C] MUSIC_CONTROL: Set Idle (Night) music to song 0*
176: 0x0E29 [0x5C] MUSIC_CONTROL: Set Combat (Solo) music to song 193*
177: 0x0E2D [0x5C] MUSIC_CONTROL: Set Combat (Party) music to song 193*
178: 0x0E31 [0x06] ExtData[1]->WorkLocal[24] = 0
179: 0x0E34 [0x45] LOAD_SCHEDULED_TASK: Load scheduler "whi1" with entities [LocalPlayer, LocalPlayer], work=[201*, 0*]
180: 0x0E45 [0x45] LOAD_SCHEDULED_TASK: Load scheduler "blof" with entities [LocalPlayer, LocalPlayer], work=[200*, 0*]
181: 0x0E56 [0x21] END_EVENT
182: 0x0E57 [0x00] END_REQSTACK()
```

#### Data or dead code:

```
# Dead code (unreachable instructions):
     0x0D08 [0x01] GOTO 0x0D50
     0x0D0B [0x01] GOTO 0x0D0E
```

### Event 32003

#### Metadata

| Field        | Value      |
|--------------|------------|
| Entrypoint   | 0x0E58     |
| Data Size    | 4904 bytes |
| Instructions | 115        |

```
      00 01 02 03 04 05 06 07  08 09 0A 0B 0C 0D 0E 0F
      -- -- -- -- -- -- -- --  -- -- -- -- -- -- -- --
0E50:                          06 1D 00 06 1E 00 03 21          .......!
0E60: 00 06 10 03 20 00 07 10  03 1F 00 08 10 06 01 10  .... ...........
0E70: 1A C1 1C 02 1D 00 05 80  00 09 10 42 03 01 10 09  ...........B....
0E80: 80 43 00 43 01 03 01 10  0A 80 43 00 43 01 1A D8  .C.C......C.C...
0E90: 1C 02 1E 00 05 80 00 09  10 45 0E 80 F0 FF FF 7F  .........E......
0EA0: F0 FF FF 7F 66 64 6F 31  00 80 55 0E 80 F0 FF FF  ....fdo1..U.....
0EB0: 7F F0 FF FF 7F 66 64 6F  31 03 01 10 0B 80 02 20  .....fdo1...... 
0EC0: 00 36 80 80 48 0F 02 21  00 00 80 80 DD 0E 47 00  .6..H..!......G.
0ED0: 37 80 38 80 39 80 3A 80  47 01 01 45 0F 02 21 00  7.8.9.:.G..E..!.
0EE0: 05 80 80 F4 0E 47 00 3B  80 3C 80 3D 80 3E 80 47  .....G.;.<.=.>.G
0EF0: 01 01 45 0F 02 21 00 09  80 80 0B 0F 47 00 3F 80  ..E..!......G.?.
0F00: 40 80 41 80 42 80 47 01  01 45 0F 02 21 00 0A 80  @.A.B.G..E..!...
0F10: 80 22 0F 47 00 43 80 44  80 45 80 46 80 47 01 01  .".G.C.D.E.F.G..
0F20: 45 0F 02 21 00 0B 80 80  39 0F 47 00 47 80 48 80  E..!....9.G.G.H.
0F30: 49 80 4A 80 47 01 01 45  0F 47 00 4B 80 4C 80 4D  I.J.G..E.G.K.L.M
0F40: 80 4E 80 47 01 01 C7 0F  02 20 00 18 80 80 BB 0F  .N.G..... ......
0F50: 02 1F 00 05 80 80 67 0F  47 00 4F 80 50 80 51 80  ......g.G.O.P.Q.
0F60: 52 80 47 01 01 B8 0F 02  1F 00 09 80 80 7E 0F 47  R.G..........~.G
0F70: 00 53 80 54 80 55 80 56  80 47 01 01 B8 0F 02 1F  .S.T.U.V.G......
0F80: 00 0A 80 80 95 0F 47 00  57 80 58 80 59 80 5A 80  ......G.W.X.Y.Z.
0F90: 47 01 01 B8 0F 02 1F 00  0B 80 80 AC 0F 47 00 5B  G............G.[
0FA0: 80 5C 80 5D 80 5E 80 47  01 01 B8 0F 47 00 4B 80  .\.].^.G....G.K.
0FB0: 4C 80 4D 80 4E 80 47 01  01 C7 0F 47 00 4B 80 4C  L.M.N.G....G.K.L
0FC0: 80 4D 80 4E 80 47 01 38  0F 80 79 00 F0 FF FF 7F  .M.N.G.8..y.....
0FD0: F0 FF FF 7F 1A DC 1C 45  35 80 F0 FF FF 7F F0 FF  .......E5.......
0FE0: FF 7F 77 68 69 31 00 80  45 0E 80 F0 FF FF 7F F0  ..whi1..E.......
0FF0: FF FF 7F 62 6C 6F 66 00  80 5C 00 00 80 5C 01 00  ...blof..\...\..
1000: 80 5C 02 33 80 5C 03 33  80 21 00 24 0C 80 05 80  .\.3.\.3.!.$....
1010: 00 80 25 02 00 10 00 80  00 21 10 05 01 00 01 21  ..%......!.....!
1020: 10 1B 79 00 F0 FF FF 7F  F0 FF FF 7F 02 03 00 0A  ..y.............
1030: 80 05 6A 10 46 01 1A 92  1E 92 01 F0 FF FF 7F 37  ..j.F..........7
1040: 93 80 94 80 95 80 96 80  45 97 80 F0 FF FF 7F F0  ........E.......
1050: FF FF 7F 6C 65 69 31 00  80 45 0E 80 F0 FF FF 7F  ...lei1..E......
1060: F0 FF FF 7F 66 64 69 32  00 80 02 03 00 00 80 80  ....fdi2........
1070: 7B 10 1A A5 12 1A 56 12  01 E2 10 02 03 00 05 80  {.....V.........
1080: 80 8C 10 1A DD 13 1A 56  12 01 E2 10 02 03 00 09  .......V........
1090: 80 80 9D 10 1A E3 10 1A  56 12 01 E2 10 02 03 00  ........V.......
10A0: 0A 80 80 E2 10 55 97 80  F0 FF FF 7F F0 FF FF 7F  .....U..........
10B0: 6C 65 69 31 45 0E 80 F0  FF FF 7F F0 FF FF 7F 62  lei1E..........b
10C0: 6C 6F 6E 00 80 45 97 80  F0 FF FF 7F F0 FF FF 7F  lon..E..........
10D0: 6C 65 69 32 00 80 1C 98  80 1A F1 14 1A 56 12 01  lei2.........V..
10E0: E2 10 1B 55 97 80 F0 FF  FF 7F F0 FF FF 7F 6C 65  ...U..........le
10F0: 69 31 45 0E 80 F0 FF FF  7F F0 FF FF 7F 62 6C 6F  i1E..........blo
1100: 6E 00 80 45 97 80 F0 FF  FF 7F F0 FF FF 7F 6C 65  n..E..........le
1110: 69 32 00 80 1C 98 80 1A  16 1F 1C 99 80 27 10 38  i2...........'.8
1120: 30 0D 01 04 27 10 38 30  0D 01 0A 80 38 30 0D 01  0...'.80....80..
1130: 6C F0 FF FF 7F 9A 80 05  80 37 9B 80 9C 80 9D 80  l........7......
1140: 9E 80 45 97 80 F0 FF FF  7F F0 FF FF 7F 65 78 30  ..E..........ex0
1150: 33 00 80 45 97 80 F0 FF  FF 7F F0 FF FF 7F 77 69  3..E..........wi
1160: 73 70 00 80 55 97 80 F0  FF FF 7F F0 FF FF 7F 65  sp..U..........e
1170: 78 30 33 45 0E 80 F0 FF  FF 7F F0 FF FF 7F 6F 76  x03E..........ov
1180: 6C 31 00 80 45 9F 80 F0  FF FF 7F F0 FF FF 7F 73  l1..E..........s
1190: 30 31 30 00 80 1C A0 80  48 A1 80 23 52 9F 80 F0  010.....H..#R...
11A0: FF FF 7F F0 FF FF 7F 73  30 31 30 45 0E 80 F0 FF  .......s010E....
11B0: FF 7F F0 FF FF 7F 6F 76  6C 32 00 80 45 9F 80 F0  ......ovl2..E...
11C0: FF FF 7F F0 FF FF 7F 73  30 30 38 00 80 1C A0 80  .......s008.....
11D0: 48 A2 80 23 52 9F 80 F0  FF FF 7F F0 FF FF 7F 73  H..#R..........s
11E0: 30 30 38 4E 01 38 30 0D  01 1A F1 14 52 9F 80 F0  008N.80.....R...
11F0: FF FF 7F F0 FF FF 7F 73  30 30 38 45 9F 80 F0 FF  .......s008E....
1200: FF 7F F0 FF FF 7F 73 30  36 34 00 80 1C 2E 80 48  ......s064.....H
1210: A3 80 1C A0 80 45 35 80  F0 FF FF 7F F0 FF FF 7F  .....E5.........
1220: 77 68 6F 31 00 80 55 35  80 F0 FF FF 7F F0 FF FF  who1..U5........
1230: 7F 77 68 6F 31 52 9F 80  F0 FF FF 7F F0 FF FF 7F  .who1R..........
1240: 73 30 36 34 45 35 80 F0  FF FF 7F F0 FF FF 7F 77  s064E5.........w
1250: 68 69 31 00 80 1B 37 A4  80 A5 80 A6 80 A7 80 45  hi1...7........E
1260: 97 80 F0 FF FF 7F F0 FF  FF 7F 65 78 30 38 00 80  ..........ex08..
1270: 1C A8 80 1A 16 1F 45 0E  80 F0 FF FF 7F F0 FF FF  ......E.........
1280: 7F 62 6C 6F 66 00 80 55  97 80 F0 FF FF 7F F0 FF  .blof..U........
1290: FF 7F 65 78 30 38 1C 2A  80 1A F5 1E 46 00 92 00  ..ex08.*....F...
12A0: F0 FF FF 7F 1B 03 02 10  A9 80 48 AA 80 23 55 97  ..........H..#U.
12B0: 80 F0 FF FF 7F F0 FF FF  7F 6C 65 69 31 45 0E 80  .........lei1E..
12C0: F0 FF FF 7F F0 FF FF 7F  62 6C 6F 6E 00 80 45 97  ........blon..E.
12D0: 80 F0 FF FF 7F F0 FF FF  7F 6C 65 69 32 00 80 1C  .........lei2...
12E0: 98 80 1A 16 1F 1C 99 80  27 10 38 30 0D 01 04 27  ........'.80...'
12F0: 10 38 30 0D 01 0A 80 38  30 0D 01 6C F0 FF FF 7F  .80....80..l....
1300: 9A 80 05 80 37 9B 80 9C  80 9D 80 9E 80 45 97 80  ....7........E..
1310: F0 FF FF 7F F0 FF FF 7F  65 78 30 33 00 80 45 97  ........ex03..E.
1320: 80 F0 FF FF 7F F0 FF FF  7F 77 69 73 70 00 80 1C  .........wisp...
1330: A0 80 48 AB 80 23 48 AC  80 23 52 97 80 F0 FF FF  ..H..#H..#R.....
1340: 7F F0 FF FF 7F 65 78 30  33 45 97 80 F0 FF FF 7F  .....ex03E......
1350: F0 FF FF 7F 65 78 30 34  00 80 48 AD 80 23 52 97  ....ex04..H..#R.
1360: 80 F0 FF FF 7F F0 FF FF  7F 65 78 30 34 45 97 80  .........ex04E..
1370: F0 FF FF 7F F0 FF FF 7F  65 78 30 35 00 80 48 AE  ........ex05..H.
1380: 80 23 52 97 80 F0 FF FF  7F F0 FF FF 7F 65 78 30  .#R..........ex0
1390: 35 45 97 80 F0 FF FF 7F  F0 FF FF 7F 65 78 30 36  5E..........ex06
13A0: 00 80 48 AF 80 23 52 97  80 F0 FF FF 7F F0 FF FF  ..H..#R.........
13B0: 7F 65 78 30 36 45 97 80  F0 FF FF 7F F0 FF FF 7F  .ex06E..........
13C0: 65 78 30 37 00 80 48 B0  80 23 55 97 80 F0 FF FF  ex07..H..#U.....
13D0: 7F F0 FF FF 7F 65 78 30  37 1A F1 14 1B 03 02 10  .....ex07.......
13E0: B1 80 48 B2 80 23 55 97  80 F0 FF FF 7F F0 FF FF  ..H..#U.........
13F0: 7F 6C 65 69 31 45 0E 80  F0 FF FF 7F F0 FF FF 7F  .lei1E..........
1400: 62 6C 6F 6E 00 80 45 97  80 F0 FF FF 7F F0 FF FF  blon..E.........
1410: 7F 6C 65 69 32 00 80 1C  98 80 1A 16 1F 1C 99 80  .lei2...........
1420: 27 10 38 30 0D 01 04 27  10 38 30 0D 01 0A 80 38  '.80...'.80....8
1430: 30 0D 01 6C F0 FF FF 7F  9A 80 05 80 37 9B 80 9C  0..l........7...
1440: 80 9D 80 9E 80 45 97 80  F0 FF FF 7F F0 FF FF 7F  .....E..........
1450: 65 78 30 33 00 80 45 97  80 F0 FF FF 7F F0 FF FF  ex03..E.........
1460: 7F 77 69 73 70 00 80 1C  A0 80 48 AB 80 23 48 B3  .wisp.....H..#H.
1470: 80 23 52 97 80 F0 FF FF  7F F0 FF FF 7F 65 78 30  .#R..........ex0
1480: 33 45 97 80 F0 FF FF 7F  F0 FF FF 7F 65 78 30 35  3E..........ex05
1490: 00 80 48 B4 80 23 52 97  80 F0 FF FF 7F F0 FF FF  ..H..#R.........
14A0: 7F 65 78 30 35 45 97 80  F0 FF FF 7F F0 FF FF 7F  .ex05E..........
14B0: 65 78 30 36 00 80 48 B5  80 23 52 97 80 F0 FF FF  ex06..H..#R.....
14C0: 7F F0 FF FF 7F 65 78 30  36 45 97 80 F0 FF FF 7F  .....ex06E......
14D0: F0 FF FF 7F 65 78 30 37  00 80 48 B6 80 23 55 97  ....ex07..H..#U.
14E0: 80 F0 FF FF 7F F0 FF FF  7F 65 78 30 37 1A F1 14  .........ex07...
14F0: 1B 1A 27 20 27 10 37 30  0D 01 02 27 10 37 30 0D  ..' '.70...'.70.
1500: 01 0A 80 37 30 0D 01 1C  01 80 6C F0 FF FF 7F 00  ...70.....l.....
1510: 80 05 80 45 97 80 F0 FF  FF 7F F0 FF FF 7F 6C 65  ...E..........le
1520: 30 31 00 80 62 B7 80 37  30 0D 01 37 30 0D 01 6D  01..b..70..70..m
1530: 61 69 6E 00 80 1A F5 1E  55 97 80 F0 FF FF 7F F0  ain.....U.......
1540: FF FF 7F 6C 65 30 31 1C  01 80 6C F0 FF FF 7F 60  ...le01...l....`
1550: 80 05 80 1B 02 19 00 00  80 80 65 15 1A 32 19 1A  ..........e..2..
1560: BA 18 01 D4 15 02 19 00  05 80 80 76 15 1A 86 1A  ...........v....
1570: 1A BA 18 01 D4 15 02 19  00 09 80 80 84 15 1A D5  ................
1580: 15 01 D4 15 02 19 00 0A  80 80 95 15 1A D6 1B 1A  ................
1590: BA 18 01 D4 15 02 19 00  0B 80 80 AF 15 1A D4 1E  ................
15A0: 37 75 80 76 80 77 80 78  80 1A AE 1F 01 D4 15 1A  7u.v.w.x........
15B0: 16 1F 1C 2E 80 1A 71 1E  37 75 80 76 80 77 80 78  ......q.7u.v.w.x
15C0: 80 2C F0 FF FF 7F F0 FF  FF 7F 72 65 73 30 1C 01  .,........res0..
15D0: 80 1A BA 18 1B 46 01 1A  92 1E 4E 01 38 30 0D 01  .....F....N.80..
15E0: 92 01 F0 FF FF 7F 9F B8  80 F0 FF FF 7F F0 FF FF  ................
15F0: 7F 69 6B 69 6C 00 80 9F  B8 80 37 30 0D 01 37 30  .ikil.....70..70
1600: 0D 01 6F 6B 69 6C 00 80  37 9B 80 9C 80 9D 80 9E  ..okil..7.......
1610: 80 27 10 37 30 0D 01 04  27 10 37 30 0D 01 0A 80  .'.70...'.70....
1620: 37 30 0D 01 45 0E 80 F0  FF FF 7F F0 FF FF 7F 66  70..E..........f
1630: 64 69 32 00 80 45 9F 80  F0 FF FF 7F F0 FF FF 7F  di2..E..........
1640: 73 30 31 31 00 80 9F B8  80 37 30 0D 01 37 30 0D  s011.....70..70.
1650: 01 6F 75 74 30 00 80 1C  98 80 48 B9 80 23 55 9F  .out0.....H..#U.
1660: 80 F0 FF FF 7F F0 FF FF  7F 73 30 31 31 45 0E 80  .........s011E..
1670: F0 FF FF 7F F0 FF FF 7F  6F 76 6C 32 00 80 9F B8  ........ovl2....
1680: 80 37 30 0D 01 37 30 0D  01 6F 6B 69 6C 00 80 62  .70..70..okil..b
1690: BA 80 37 30 0D 01 37 30  0D 01 6D 61 69 6E 00 80  ..70..70..main..
16A0: 9F B8 80 F0 FF FF 7F F0  FF FF 7F 69 6E 30 30 00  ...........in00.
16B0: 80 45 9F 80 F0 FF FF 7F  F0 FF FF 7F 73 30 31 32  .E..........s012
16C0: 00 80 45 0E 80 F0 FF FF  7F F0 FF FF 7F 6F 76 6C  ..E..........ovl
16D0: 32 00 80 55 9F 80 F0 FF  FF 7F F0 FF FF 7F 73 30  2..U..........s0
16E0: 31 32 5C 00 BB 80 5C 01  BB 80 45 0E 80 F0 FF FF  12\...\...E.....
16F0: 7F F0 FF FF 7F 6F 76 6C  32 00 80 45 9F 80 F0 FF  .....ovl2..E....
1700: FF 7F F0 FF FF 7F 73 30  31 33 00 80 9F B8 80 F0  ......s013......
1710: FF FF 7F F0 FF FF 7F 69  6B 69 6C 00 80 1C 36 80  .......ikil...6.
1720: 52 9F 80 F0 FF FF 7F F0  FF FF 7F 73 30 31 33 45  R..........s013E
1730: 0E 80 F0 FF FF 7F F0 FF  FF 7F 6F 76 6C 32 00 80  ..........ovl2..
1740: 45 9F 80 F0 FF FF 7F F0  FF FF 7F 73 30 31 34 00  E..........s014.
1750: 80 48 BC 80 23 52 9F 80  F0 FF FF 7F F0 FF FF 7F  .H..#R..........
1760: 73 30 31 34 45 0E 80 F0  FF FF 7F F0 FF FF 7F 6F  s014E..........o
1770: 76 6C 32 00 80 45 9F 80  F0 FF FF 7F F0 FF FF 7F  vl2..E..........
1780: 73 30 31 35 00 80 1C 98  80 48 BD 80 23 55 9F 80  s015.....H..#U..
1790: F0 FF FF 7F F0 FF FF 7F  73 30 31 35 45 0E 80 F0  ........s015E...
17A0: FF FF 7F F0 FF FF 7F 6F  76 6C 32 00 80 45 9F 80  .......ovl2..E..
17B0: F0 FF FF 7F F0 FF FF 7F  73 30 31 36 00 80 1C 36  ........s016...6
17C0: 80 48 BE 80 23 52 9F 80  F0 FF FF 7F F0 FF FF 7F  .H..#R..........
17D0: 73 30 31 36 45 9F 80 F0  FF FF 7F F0 FF FF 7F 73  s016E..........s
17E0: 30 31 37 00 80 45 0E 80  F0 FF FF 7F F0 FF FF 7F  017..E..........
17F0: 6F 76 6C 32 00 80 1C 2E  80 48 BF 80 23 5D 00 80  ovl2.....H..#]..
1800: A0 80 1A 16 1F 45 0E 80  F0 FF FF 7F F0 FF FF 7F  .....E..........
1810: 66 64 6F 32 00 80 1C 2E  80 48 C0 80 23 1C 2E 80  fdo2.....H..#...
1820: 37 75 80 76 80 77 80 78  80 2C F0 FF FF 7F F0 FF  7u.v.w.x.,......
1830: FF 7F 72 65 73 30 1C 01  80 5C 00 00 80 5C 01 00  ..res0...\...\..
1840: 80 52 9F 80 F0 FF FF 7F  F0 FF FF 7F 73 30 31 37  .R..........s017
1850: 45 0E 80 F0 FF FF 7F F0  FF FF 7F 66 64 69 31 00  E..........fdi1.
1860: 80 45 0E 80 F0 FF FF 7F  F0 FF FF 7F 62 6C 6F 6E  .E..........blon
1870: 00 80 45 97 80 F0 FF FF  7F F0 FF FF 7F 6C 65 65  ..E..........lee
1880: 32 00 80 45 97 80 F0 FF  FF 7F F0 FF FF 7F 77 69  2..E..........wi
1890: 73 70 00 80 1C 36 80 45  0E 80 F0 FF FF 7F F0 FF  sp...6.E........
18A0: FF 7F 62 6C 6F 66 00 80  55 97 80 F0 FF FF 7F F0  ..blof..U.......
18B0: FF FF 7F 6C 65 65 32 46  00 1B 45 0E 80 F0 FF FF  ...lee2F..E.....
18C0: 7F F0 FF FF 7F 62 6C 6F  6E 00 80 45 97 80 F0 FF  .....blon..E....
18D0: FF 7F F0 FF FF 7F 6C 65  65 32 00 80 45 97 80 F0  ......lee2..E...
18E0: FF FF 7F F0 FF FF 7F 77  69 73 70 00 80 1C 36 80  .......wisp...6.
18F0: 45 0E 80 F0 FF FF 7F F0  FF FF 7F 62 6C 6F 66 00  E..........blof.
1900: 80 55 97 80 F0 FF FF 7F  F0 FF FF 7F 6C 65 65 32  .U..........lee2
1910: 46 00 92 00 F0 FF FF 7F  02 1C 00 05 80 00 31 19  F.............1.
1920: 45 35 80 F0 FF FF 7F F0  FF FF 7F 71 73 74 63 00  E5.........qstc.
1930: 80 1B 46 01 1A 92 1E 27  10 38 30 0D 01 04 27 10  ..F....'.80...'.
1940: 38 30 0D 01 0A 80 38 30  0D 01 92 01 F0 FF FF 7F  80....80........
1950: 5C 00 C1 80 5C 01 C1 80  5C 02 C1 80 5C 03 C1 80  \...\...\...\...
1960: 5D 00 80 05 80 9A 5D C2  80 A0 80 37 9B 80 9C 80  ].....]....7....
1970: 9D 80 9E 80 27 10 37 30  0D 01 04 27 10 37 30 0D  ....'.70...'.70.
1980: 01 0A 80 37 30 0D 01 45  97 80 F0 FF FF 7F F0 FF  ...70..E........
1990: FF 7F 65 78 30 39 00 80  45 0E 80 F0 FF FF 7F F0  ..ex09..E.......
19A0: FF FF 7F 66 64 69 32 00  80 48 AB 80 23 48 C3 80  ...fdi2..H..#H..
19B0: 23 52 97 80 F0 FF FF 7F  F0 FF FF 7F 65 78 30 39  #R..........ex09
19C0: 6C F0 FF FF 7F 00 80 05  80 45 97 80 F0 FF FF 7F  l........E......
19D0: F0 FF FF 7F 6C 65 30 33  00 80 62 BA 80 37 30 0D  ....le03..b..70.
19E0: 01 37 30 0D 01 6D 61 69  6E 00 80 55 97 80 F0 FF  .70..main..U....
19F0: FF 7F F0 FF FF 7F 6C 65  30 33 1C 2A 80 45 97 80  ......le03.*.E..
1A00: F0 FF FF 7F F0 FF FF 7F  65 78 31 30 00 80 48 C4  ........ex10..H.
1A10: 80 23 48 C5 80 23 52 97  80 F0 FF FF 7F F0 FF FF  .#H..#R.........
1A20: 7F 65 78 31 30 6C F0 FF  FF 7F 60 80 05 80 45 97  .ex10l....`...E.
1A30: 80 F0 FF FF 7F F0 FF FF  7F 65 78 31 31 00 80 48  .........ex11..H
1A40: C6 80 23 62 26 80 F0 FF  FF 7F F0 FF FF 7F 6D 61  ..#b&.........ma
1A50: 69 6E 00 80 1C A0 80 1A  16 1F 1C 2E 80 37 75 80  in...........7u.
1A60: 76 80 77 80 78 80 2C F0  FF FF 7F F0 FF FF 7F 72  v.w.x.,........r
1A70: 65 73 30 1C 01 80 52 97  80 F0 FF FF 7F F0 FF FF  es0...R.........
1A80: 7F 65 78 31 31 1B 46 01  1A 92 1E 27 10 38 30 0D  .ex11.F....'.80.
1A90: 01 04 27 10 38 30 0D 01  0A 80 38 30 0D 01 92 01  ..'.80....80....
1AA0: F0 FF FF 7F 5C 00 C1 80  5C 01 C1 80 5C 02 C1 80  ....\...\...\...
1AB0: 5C 03 C1 80 5D 00 80 05  80 9A 5D C2 80 A0 80 37  \...].....]....7
1AC0: 9B 80 9C 80 9D 80 9E 80  27 10 37 30 0D 01 04 27  ........'.70...'
1AD0: 10 37 30 0D 01 0A 80 37  30 0D 01 45 97 80 F0 FF  .70....70..E....
1AE0: FF 7F F0 FF FF 7F 65 78  30 39 00 80 45 0E 80 F0  ......ex09..E...
1AF0: FF FF 7F F0 FF FF 7F 66  64 69 32 00 80 48 AB 80  .......fdi2..H..
1B00: 23 48 C7 80 23 52 97 80  F0 FF FF 7F F0 FF FF 7F  #H..#R..........
1B10: 65 78 30 39 6C F0 FF FF  7F 00 80 05 80 45 97 80  ex09l........E..
1B20: F0 FF FF 7F F0 FF FF 7F  6C 65 30 33 00 80 62 BA  ........le03..b.
1B30: 80 37 30 0D 01 37 30 0D  01 6D 61 69 6E 00 80 55  .70..70..main..U
1B40: 97 80 F0 FF FF 7F F0 FF  FF 7F 6C 65 30 33 1C 2A  ..........le03.*
1B50: 80 45 97 80 F0 FF FF 7F  F0 FF FF 7F 65 78 31 30  .E..........ex10
1B60: 00 80 48 C8 80 23 52 97  80 F0 FF FF 7F F0 FF FF  ..H..#R.........
1B70: 7F 65 78 31 30 6C F0 FF  FF 7F 60 80 05 80 45 97  .ex10l....`...E.
1B80: 80 F0 FF FF 7F F0 FF FF  7F 65 78 31 31 00 80 48  .........ex11..H
1B90: C9 80 23 62 26 80 F0 FF  FF 7F F0 FF FF 7F 6D 61  ..#b&.........ma
1BA0: 69 6E 00 80 1C A0 80 1A  16 1F 1C 2E 80 37 75 80  in...........7u.
1BB0: 76 80 77 80 78 80 2C F0  FF FF 7F F0 FF FF 7F 72  v.w.x.,........r
1BC0: 65 73 30 1C 01 80 52 97  80 F0 FF FF 7F F0 FF FF  es0...R.........
1BD0: 7F 65 78 31 31 1B 46 01  1A 92 1E 27 10 38 30 0D  .ex11.F....'.80.
1BE0: 01 04 27 10 38 30 0D 01  0A 80 38 30 0D 01 92 01  ..'.80....80....
1BF0: F0 FF FF 7F 5C 00 C1 80  5C 01 C1 80 5C 02 C1 80  ....\...\...\...
1C00: 5C 03 C1 80 5D 00 80 05  80 9A 5D C2 80 A0 80 37  \...].....]....7
1C10: 9B 80 9C 80 9D 80 9E 80  27 10 37 30 0D 01 04 27  ........'.70...'
1C20: 10 37 30 0D 01 0A 80 37  30 0D 01 45 97 80 F0 FF  .70....70..E....
1C30: FF 7F F0 FF FF 7F 6C 65  30 33 00 80 45 0E 80 F0  ......le03..E...
1C40: FF FF 7F F0 FF FF 7F 66  64 69 32 00 80 62 BA 80  .......fdi2..b..
1C50: 37 30 0D 01 37 30 0D 01  6D 61 69 6E 00 80 55 97  70..70..main..U.
1C60: 80 F0 FF FF 7F F0 FF FF  7F 6C 65 30 33 45 97 80  .........le03E..
1C70: F0 FF FF 7F F0 FF FF 7F  65 78 31 31 00 80 62 26  ........ex11..b&
1C80: 80 F0 FF FF 7F F0 FF FF  7F 6D 61 69 6E 00 80 1C  .........main...
1C90: A0 80 1A 16 1F 1C 2E 80  37 75 80 76 80 77 80 78  ........7u.v.w.x
1CA0: 80 2C F0 FF FF 7F F0 FF  FF 7F 72 65 73 30 1C 01  .,........res0..
1CB0: 80 52 97 80 F0 FF FF 7F  F0 FF FF 7F 65 78 31 31  .R..........ex11
1CC0: 1B 24 CA 80 05 80 00 80  25 02 00 10 00 80 00 D7  .$......%.......
1CD0: 1C 05 1D 00 01 D7 1C 1B  05 1E 00 1B 46 01 1A 92  ............F...
1CE0: 1E 92 01 F0 FF FF 7F 37  CB 80 CC 80 CD 80 CE 80  .......7........
1CF0: 45 97 80 F0 FF FF 7F F0  FF FF 7F 65 78 30 31 00  E..........ex01.
1D00: 80 5D 00 80 36 80 45 0E  80 F0 FF FF 7F F0 FF FF  .]..6.E.........
1D10: 7F 66 64 69 32 00 80 55  97 80 F0 FF FF 7F F0 FF  .fdi2..U........
1D20: FF 7F 65 78 30 31 45 0E  80 F0 FF FF 7F F0 FF FF  ..ex01E.........
1D30: 7F 62 6C 6F 6E 00 80 45  97 80 F0 FF FF 7F F0 FF  .blon..E........
1D40: FF 7F 65 78 30 32 00 80  1C CF 80 1A 16 1F 1C 99  ..ex02..........
1D50: 80 37 4B 80 4C 80 4D 80  4E 80 2C F0 FF FF 7F F0  .7K.L.M.N.,.....
1D60: FF FF 7F 72 65 73 30 1C  01 80 45 97 80 F0 FF FF  ...res0...E.....
1D70: 7F F0 FF FF 7F 6C 65 65  31 00 80 45 97 80 F0 FF  .....lee1..E....
1D80: FF 7F F0 FF FF 7F 77 69  73 70 00 80 1C 36 80 45  ......wisp...6.E
1D90: 0E 80 F0 FF FF 7F F0 FF  FF 7F 62 6C 6F 66 00 80  ..........blof..
1DA0: 55 97 80 F0 FF FF 7F F0  FF FF 7F 6C 65 65 31 46  U..........lee1F
1DB0: 00 92 00 F0 FF FF 7F 1B  46 01 1A 16 1F 92 01 F0  ........F.......
1DC0: FF FF 7F 1C 99 80 1A 71  1E 45 0E 80 F0 FF FF 7F  .......q.E......
1DD0: F0 FF FF 7F 62 6C 6F 6E  00 80 37 4B 80 4C 80 4D  ....blon..7K.L.M
1DE0: 80 4E 80 2C F0 FF FF 7F  F0 FF FF 7F 72 65 73 30  .N.,........res0
1DF0: 1C 01 80 45 97 80 F0 FF  FF 7F F0 FF FF 7F 6C 65  ...E..........le
1E00: 65 31 00 80 45 97 80 F0  FF FF 7F F0 FF FF 7F 77  e1..E..........w
1E10: 69 73 70 00 80 1C 36 80  45 0E 80 F0 FF FF 7F F0  isp...6.E.......
1E20: FF FF 7F 62 6C 6F 66 00  80 55 97 80 F0 FF FF 7F  ...blof..U......
1E30: F0 FF FF 7F 6C 65 65 31  46 00 92 00 F0 FF FF 7F  ....lee1F.......
1E40: 1B 02 03 00 00 80 80 4C  1E 01 70 1E 02 03 00 0B  .......L..p.....
1E50: 80 80 70 1E 03 08 17 D0  80 03 09 17 D1 80 03 0A  ..p.............
1E60: 17 D2 80 03 0B 17 D3 80  03 0C 17 D4 80 01 70 1E  ..............p.
1E70: 1B 45 0E 80 F0 FF FF 7F  F0 FF FF 7F 66 64 69 30  .E..........fdi0
1E80: 00 80 55 0E 80 F0 FF FF  7F F0 FF FF 7F 66 64 69  ..U..........fdi
1E90: 30 1B 45 0E 80 F0 FF FF  7F F0 FF FF 7F 66 64 6F  0.E..........fdo
1EA0: 30 00 80 55 0E 80 F0 FF  FF 7F F0 FF FF 7F 66 64  0..U..........fd
1EB0: 6F 30 1B 45 0E 80 F0 FF  FF 7F F0 FF FF 7F 66 64  o0.E..........fd
1EC0: 69 31 00 80 55 0E 80 F0  FF FF 7F F0 FF FF 7F 66  i1..U..........f
1ED0: 64 69 31 1B 45 0E 80 F0  FF FF 7F F0 FF FF 7F 66  di1.E..........f
1EE0: 64 6F 31 00 80 55 0E 80  F0 FF FF 7F F0 FF FF 7F  do1..U..........
1EF0: 66 64 6F 31 1B 45 35 80  F0 FF FF 7F F0 FF FF 7F  fdo1.E5.........
1F00: 77 68 69 31 00 80 55 35  80 F0 FF FF 7F F0 FF FF  whi1..U5........
1F10: 7F 77 68 69 31 1B 45 35  80 F0 FF FF 7F F0 FF FF  .whi1.E5........
1F20: 7F 77 68 6F 31 00 80 55  35 80 F0 FF FF 7F F0 FF  .who1..U5.......
1F30: FF 7F 77 68 6F 31 1B 45  35 80 F0 FF FF 7F F0 FF  ..who1.E5.......
1F40: FF 7F 77 68 6F 32 00 80  55 35 80 F0 FF FF 7F F0  ..who2..U5......
1F50: FF FF 7F 77 68 6F 32 1B  45 35 80 F0 FF FF 7F F0  ...who2.E5......
1F60: FF FF 7F 77 68 6F 33 00  80 55 35 80 F0 FF FF 7F  ...who3..U5.....
1F70: F0 FF FF 7F 77 68 6F 33  1B 62 05 80 F0 FF FF 7F  ....who3.b......
1F80: F0 FF FF 7F 6D 61 69 6E  00 80 1C 99 80 45 0E 80  ....main.....E..
1F90: F0 FF FF 7F F0 FF FF 7F  66 64 6F 31 00 80 55 0E  ........fdo1..U.
1FA0: 80 F0 FF FF 7F F0 FF FF  7F 66 64 6F 31 1B 45 0E  .........fdo1.E.
1FB0: 80 F0 FF FF 7F F0 FF FF  7F 66 64 69 31 00 80 62  .........fdi1..b
1FC0: 09 80 F0 FF FF 7F F0 FF  FF 7F 6D 61 69 6E 00 80  ..........main..
1FD0: 1C 2A 80 55 0E 80 F0 FF  FF 7F F0 FF FF 7F 66 64  .*.U..........fd
1FE0: 69 31 1B 45 0E 80 F0 FF  FF 7F F0 FF FF 7F 62 6C  i1.E..........bl
1FF0: 6F 6E 00 80 45 35 80 F0  FF FF 7F F0 FF FF 7F 62  on..E5.........b
2000: 6C 6F 6E 00 80 1B 45 35  80 F0 FF FF 7F F0 FF FF  lon...E5........
2010: 7F 77 68 69 30 00 80 55  35 80 F0 FF FF 7F F0 FF  .whi0..U5.......
2020: FF 7F 77 68 69 30 1B 45  35 80 F0 FF FF 7F F0 FF  ..whi0.E5.......
2030: FF 7F 77 68 6F 30 00 80  55 35 80 F0 FF FF 7F F0  ..who0..U5......
2040: FF FF 7F 77 68 6F 30 1B  45 D5 80 F0 FF FF 7F F0  ...who0.E.......
2050: FF FF 7F 65 66 6F 6E 00  80 55 D5 80 F0 FF FF 7F  ...efon..U......
2060: F0 FF FF 7F 65 66 6F 6E  1B 45 0E 80 F0 FF FF 7F  ....efon.E......
2070: F0 FF FF 7F 66 64 69 73  00 80 1B 45 0E 80 F0 FF  ....fdis...E....
2080: FF 7F F0 FF FF 7F 66 64  6F 73 00 80 55 0E 80 F0  ......fdos..U...
2090: FF FF 7F F0 FF FF 7F 66  64 6F 73 1B 45 0E 80 F0  .......fdos.E...
20A0: FF FF 7F F0 FF FF 7F 66  64 69 66 00 80 1B 45 0E  .......fdif...E.
20B0: 80 F0 FF FF 7F F0 FF FF  7F 66 64 6F 66 00 80 55  .........fdof..U
20C0: 0E 80 F0 FF FF 7F F0 FF  FF 7F 66 64 6F 66 1B 45  ..........fdof.E
20D0: 0E 80 F0 FF FF 7F F0 FF  FF 7F 66 64 69 70 00 80  ..........fdip..
20E0: 1B 45 0E 80 F0 FF FF 7F  F0 FF FF 7F 66 64 6F 70  .E..........fdop
20F0: 00 80 55 0E 80 F0 FF FF  7F F0 FF FF 7F 66 64 6F  ..U..........fdo
2100: 70 1B 02 00 00 05 80 80  21 21 03 09 00 D6 80 03  p.......!!......
2110: 0A 00 D7 80 03 0B 00 D8  80 03 0C 00 D9 80 01 7E  ...............~
2120: 21 02 00 00 09 80 80 40  21 03 09 00 DA 80 03 0A  !......@!.......
2130: 00 DB 80 03 0B 00 DC 80  03 0C 00 DD 80 01 7E 21  ..............~!
2140: 02 00 00 0A 80 80 5F 21  03 09 00 DE 80 03 0A 00  ......_!........
2150: DF 80 03 0B 00 E0 80 03  0C 00 E1 80 01 7E 21 02  .............~!.
2160: 00 00 0B 80 80 7E 21 03  09 00 00 80 03 0A 00 00  .....~!.........
2170: 80 03 0B 00 00 80 03 0C  00 00 80 01 7E 21 1B 00  ............~!..
```

#### Opcodes

```
  0: 0x0E58 [0x06] ExtData[1]->WorkLocal[29] = 0
  1: 0x0E5B [0x06] ExtData[1]->WorkLocal[30] = 0
  2: 0x0E5E [0x03] ExtData[1]->WorkLocal[33] = Work_Zone[6]
  3: 0x0E63 [0x03] ExtData[1]->WorkLocal[32] = Work_Zone[7]
  4: 0x0E68 [0x03] ExtData[1]->WorkLocal[31] = Work_Zone[8]
  5: 0x0E6D [0x06] Work_Zone[1] = 0
  6: 0x0E70 [0x1A] CALL_SUBROUTINE(address=0x1CC1)
  7: 0x0E73 [0x02] IF !(ExtData[1]->WorkLocal[29] == 1*) GOTO 0x1009
  8: 0x0E7B [0x42] SET_CLI_EVENT_CANCEL_DATA()
  9: 0x0E7C [0x03] Work_Zone[1] = 2*
 10: 0x0E81 [0x43] SEND_EVENT_UPDATE: Send pending tag to server (packet 0x005B)
 11: 0x0E83 [0x43] SEND_EVENT_UPDATE: Check pending flag (skip if not pending)
 12: 0x0E85 [0x03] Work_Zone[1] = 3*
 13: 0x0E8A [0x43] SEND_EVENT_UPDATE: Send pending tag to server (packet 0x005B)
 14: 0x0E8C [0x43] SEND_EVENT_UPDATE: Check pending flag (skip if not pending)
 15: 0x0E8E [0x1A] CALL_SUBROUTINE(address=0x1CD8)
 16: 0x0E91 [0x02] IF !(ExtData[1]->WorkLocal[30] == 1*) GOTO 0x1009
 17: 0x0E99 [0x45] LOAD_SCHEDULED_TASK: Load scheduler "fdo1" with entities [LocalPlayer, LocalPlayer], work=[200*, 0*]
 18: 0x0EAA [0x55] WAIT_LOAD_SCHEDULER: Wait for scheduler "fdo1" with entities [LocalPlayer, LocalPlayer], work=200*
 19: 0x0EB9 [0x03] Work_Zone[1] = 4*
 20: 0x0EBE [0x02] IF !(ExtData[1]->WorkLocal[32] == 180*) GOTO 0x0F48
 21: 0x0EC6 [0x02] IF !(ExtData[1]->WorkLocal[33] == 0*) GOTO 0x0EDD
 22: 0x0ECE [0x47] UPDATE_PLAYER_POS(-605.141*, 479.929*, -22.681*, yaw=87.2°*)
 23: 0x0ED8 [0x47] WAIT_PLAYER_POS_UPDATE
 24: 0x0EDA [0x01] GOTO 0x0F45
 25: 0x0EDD [0x02] IF !(ExtData[1]->WorkLocal[33] == 1*) GOTO 0x0EF4
 26: 0x0EE5 [0x47] UPDATE_PLAYER_POS(-262.589*, 377.857*, -137.313*, yaw=305.3°*)
 27: 0x0EEF [0x47] WAIT_PLAYER_POS_UPDATE
 28: 0x0EF1 [0x01] GOTO 0x0F45
 29: 0x0EF4 [0x02] IF !(ExtData[1]->WorkLocal[33] == 2*) GOTO 0x0F0B
 30: 0x0EFC [0x47] UPDATE_PLAYER_POS(18.348*, 486.940*, -224.334*, yaw=17.1°*)
 31: 0x0F06 [0x47] WAIT_PLAYER_POS_UPDATE
 32: 0x0F08 [0x01] GOTO 0x0F45
 33: 0x0F0B [0x02] IF !(ExtData[1]->WorkLocal[33] == 3*) GOTO 0x0F22
 34: 0x0F13 [0x47] UPDATE_PLAYER_POS(231.593*, 360.094*, -173.572*, yaw=160.8°*)
 35: 0x0F1D [0x47] WAIT_PLAYER_POS_UPDATE
 36: 0x0F1F [0x01] GOTO 0x0F45
 37: 0x0F22 [0x02] IF !(ExtData[1]->WorkLocal[33] == 4*) GOTO 0x0F39
 38: 0x0F2A [0x47] UPDATE_PLAYER_POS(553.664*, 523.939*, -38.205*, yaw=233.9°*)
 39: 0x0F34 [0x47] WAIT_PLAYER_POS_UPDATE
 40: 0x0F36 [0x01] GOTO 0x0F45
 41: 0x0F39 [0x47] UPDATE_PLAYER_POS(569.370*, 551.620*, 37.175*, yaw=67.6°*)
 42: 0x0F43 [0x47] WAIT_PLAYER_POS_UPDATE

SUBROUTINE_0F45:
 43: 0x0F45 [0x01] GOTO 0x0FC7
 44: 0x0F48 [0x02] IF !(ExtData[1]->WorkLocal[32] == 6*) GOTO 0x0FBB
 45: 0x0F50 [0x02] IF !(ExtData[1]->WorkLocal[31] == 1*) GOTO 0x0F67
 46: 0x0F58 [0x47] UPDATE_PLAYER_POS(-875.117*, -43.892*, -48.084*, yaw=45.1°*)
 47: 0x0F62 [0x47] WAIT_PLAYER_POS_UPDATE
 48: 0x0F64 [0x01] GOTO 0x0FB8
 49: 0x0F67 [0x02] IF !(ExtData[1]->WorkLocal[31] == 2*) GOTO 0x0F7E
 50: 0x0F6F [0x47] UPDATE_PLAYER_POS(-755.499*, 563.947*, -112.035*, yaw=313.5°*)
 51: 0x0F79 [0x47] WAIT_PLAYER_POS_UPDATE
 52: 0x0F7B [0x01] GOTO 0x0FB8
 53: 0x0F7E [0x02] IF !(ExtData[1]->WorkLocal[31] == 3*) GOTO 0x0F95
 54: 0x0F86 [0x47] UPDATE_PLAYER_POS(123.251*, 754.209*, -172.124*, yaw=38.7°*)
 55: 0x0F90 [0x47] WAIT_PLAYER_POS_UPDATE
 56: 0x0F92 [0x01] GOTO 0x0FB8
 57: 0x0F95 [0x02] IF !(ExtData[1]->WorkLocal[31] == 4*) GOTO 0x0FAC
 58: 0x0F9D [0x47] UPDATE_PLAYER_POS(-516.404*, -803.323*, 24.206*, yaw=38.4°*)
 59: 0x0FA7 [0x47] WAIT_PLAYER_POS_UPDATE
 60: 0x0FA9 [0x01] GOTO 0x0FB8
 61: 0x0FAC [0x47] UPDATE_PLAYER_POS(569.370*, 551.620*, 37.175*, yaw=67.6°*)
 62: 0x0FB6 [0x47] WAIT_PLAYER_POS_UPDATE

SUBROUTINE_0FB8:
 63: 0x0FB8 [0x01] GOTO 0x0FC7
 64: 0x0FBB [0x47] UPDATE_PLAYER_POS(569.370*, 551.620*, 37.175*, yaw=67.6°*)
 65: 0x0FC5 [0x47] WAIT_PLAYER_POS_UPDATE

SUBROUTINE_0FC7:
 66: 0x0FC7 [0x38] SET_CLIENT_EVENT_MODE(mode=19*)
 67: 0x0FCA [0x79] LocalPlayer looks at LocalPlayer (Basic look)
 68: 0x0FD4 [0x1A] CALL_SUBROUTINE(address=0x1CDC)
 69: 0x0FD7 [0x45] LOAD_SCHEDULED_TASK: Load scheduler "whi1" with entities [LocalPlayer, LocalPlayer], work=[201*, 0*]
 70: 0x0FE8 [0x45] LOAD_SCHEDULED_TASK: Load scheduler "blof" with entities [LocalPlayer, LocalPlayer], work=[200*, 0*]
 71: 0x0FF9 [0x5C] MUSIC_CONTROL: Set Idle (Day) music to song 0*
 72: 0x0FFD [0x5C] MUSIC_CONTROL: Set Idle (Night) music to song 0*
 73: 0x1001 [0x5C] MUSIC_CONTROL: Set Combat (Solo) music to song 193*
 74: 0x1005 [0x5C] MUSIC_CONTROL: Set Combat (Party) music to song 193*
 75: 0x1009 [0x21] END_EVENT
 76: 0x100A [0x00] END_REQSTACK()

SUBROUTINE_1CC1:
 77: 0x1CC1 [0x24] CREATE_DIALOG(message_id=7228*, default_option=1*, option_flags=0*)
    → "Leave the battlefield? [Run away./Stay.]"
 78: 0x1CC8 [0x25] WAIT_DIALOG_SELECT()
 79: 0x1CC9 [0x02] IF !(Work_Zone[0] == 0*) GOTO 0x1CD7
 80: 0x1CD1 [0x05] ExtData[1]->WorkLocal[29] = 1
 81: 0x1CD4 [0x01] GOTO 0x1CD7

SUBROUTINE_1CD7:
 82: 0x1CD7 [0x1B] RETURN

SUBROUTINE_1CD8:
 83: 0x1CD8 [0x05] ExtData[1]->WorkLocal[30] = 1
 84: 0x1CDB [0x1B] RETURN

SUBROUTINE_1CDC:
 85: 0x1CDC [0x46] CAMERA_CONTROL: Disable user control
 86: 0x1CDE [0x1A] CALL_SUBROUTINE(address=0x1E92)
 87: 0x1CE1 [0x92] LocalPlayer->Render.Flags3 ^= 0x01
 88: 0x1CE7 [0x37] UPDATE_EVENT_POSITION_AND_DIR: x=499.836*, z=-435.825*, y=55.781*, direction=39.1°*
 89: 0x1CF0 [0x45] LOAD_SCHEDULED_TASK: Load scheduler "ex01" with entities [LocalPlayer, LocalPlayer], work=[233*, 0*]
 90: 0x1D01 [0x5D] SET_MUSIC_VOLUME(volume=0*, fade_time=180*)
 91: 0x1D06 [0x45] LOAD_SCHEDULED_TASK: Load scheduler "fdi2" with entities [LocalPlayer, LocalPlayer], work=[200*, 0*]
 92: 0x1D17 [0x55] WAIT_LOAD_SCHEDULER: Wait for scheduler "ex01" with entities [LocalPlayer, LocalPlayer], work=233*
 93: 0x1D26 [0x45] LOAD_SCHEDULED_TASK: Load scheduler "blon" with entities [LocalPlayer, LocalPlayer], work=[200*, 0*]
 94: 0x1D37 [0x45] LOAD_SCHEDULED_TASK: Load scheduler "ex02" with entities [LocalPlayer, LocalPlayer], work=[233*, 0*]
 95: 0x1D48 [0x1C] WAIT(150* ticks)
 96: 0x1D4B [0x1A] CALL_SUBROUTINE(address=0x1F16)
 97: 0x1D4E [0x1C] WAIT(45* ticks)
 98: 0x1D51 [0x37] UPDATE_EVENT_POSITION_AND_DIR: x=569.370*, z=551.620*, y=37.175*, direction=67.6°*
 99: 0x1D5A [0x2C] CREATE_SCHEDULER_TASK: Create scheduler "res0" with entities [LocalPlayer, LocalPlayer]
100: 0x1D67 [0x1C] WAIT(15* ticks)
101: 0x1D6A [0x45] LOAD_SCHEDULED_TASK: Load scheduler "lee1" with entities [LocalPlayer, LocalPlayer], work=[233*, 0*]
102: 0x1D7B [0x45] LOAD_SCHEDULED_TASK: Load scheduler "wisp" with entities [LocalPlayer, LocalPlayer], work=[233*, 0*]
103: 0x1D8C [0x1C] WAIT(180* ticks)
104: 0x1D8F [0x45] LOAD_SCHEDULED_TASK: Load scheduler "blof" with entities [LocalPlayer, LocalPlayer], work=[200*, 0*]
105: 0x1DA0 [0x55] WAIT_LOAD_SCHEDULER: Wait for scheduler "lee1" with entities [LocalPlayer, LocalPlayer], work=233*
106: 0x1DAF [0x46] CAMERA_CONTROL: Restore default settings
107: 0x1DB1 [0x92] LocalPlayer->Render.Flags3 = Flags3  // No change (flag=0)
108: 0x1DB7 [0x1B] RETURN

SUBROUTINE_1E92:
109: 0x1E92 [0x45] LOAD_SCHEDULED_TASK: Load scheduler "fdo0" with entities [LocalPlayer, LocalPlayer], work=[200*, 0*]
110: 0x1EA3 [0x55] WAIT_LOAD_SCHEDULER: Wait for scheduler "fdo0" with entities [LocalPlayer, LocalPlayer], work=200*
111: 0x1EB2 [0x1B] RETURN

SUBROUTINE_1F16:
112: 0x1F16 [0x45] LOAD_SCHEDULED_TASK: Load scheduler "who1" with entities [LocalPlayer, LocalPlayer], work=[201*, 0*]
113: 0x1F27 [0x55] WAIT_LOAD_SCHEDULER: Wait for scheduler "who1" with entities [LocalPlayer, LocalPlayer], work=201*
114: 0x1F36 [0x1B] RETURN
```

#### Data or dead code:

```
# Dead code (unreachable instructions):
     0x100B [0x24] CREATE_DIALOG(message_id=7227*, default_option=1*, option_flags=0*)
    → "Enter the battlefield? [Enter./Decline.]"
     0x1012 [0x25] WAIT_DIALOG_SELECT()
     0x1013 [0x02] IF !(Work_Zone[0] == 0*) GOTO 0x1021
     0x101B [0x05] ExtData[1]->WorkLocal[1] = 1
     0x101E [0x01] GOTO 0x1021
     0x1021 [0x1B] RETURN
     0x1022 [0x79] LocalPlayer looks at LocalPlayer (Basic look)
     0x102C [0x02] IF !(ExtData[1]->WorkLocal[3] > 3*) GOTO 0x106A
     0x1034 [0x46] CAMERA_CONTROL: Disable user control
     0x1036 [0x1A] CALL_SUBROUTINE(address=0x1E92)
     0x1039 [0x92] LocalPlayer->Render.Flags3 ^= 0x01
     0x103F [0x37] UPDATE_EVENT_POSITION_AND_DIR: x=559.998*, z=561.373*, y=36.499*, direction=239.5°*
     0x1048 [0x45] LOAD_SCHEDULED_TASK: Load scheduler "lei1" with entities [LocalPlayer, LocalPlayer], work=[233*, 0*]
     0x1059 [0x45] LOAD_SCHEDULED_TASK: Load scheduler "fdi2" with entities [LocalPlayer, LocalPlayer], work=[200*, 0*]
     0x106A [0x02] IF !(ExtData[1]->WorkLocal[3] == 0*) GOTO 0x107B
     0x1072 [0x1A] CALL_SUBROUTINE(address=0x12A5)
     0x1075 [0x1A] CALL_SUBROUTINE(address=0x1256)
     0x1078 [0x01] GOTO 0x10E2
     0x107B [0x02] IF !(ExtData[1]->WorkLocal[3] == 1*) GOTO 0x108C
     0x1083 [0x1A] CALL_SUBROUTINE(address=0x13DD)
     0x1086 [0x1A] CALL_SUBROUTINE(address=0x1256)
     0x1089 [0x01] GOTO 0x10E2
     0x108C [0x02] IF !(ExtData[1]->WorkLocal[3] == 2*) GOTO 0x109D
     0x1094 [0x1A] CALL_SUBROUTINE(address=0x10E3)
     0x1097 [0x1A] CALL_SUBROUTINE(address=0x1256)
     0x109A [0x01] GOTO 0x10E2
     0x109D [0x02] IF !(ExtData[1]->WorkLocal[3] == 3*) GOTO 0x10E2
     0x10A5 [0x55] WAIT_LOAD_SCHEDULER: Wait for scheduler "lei1" with entities [LocalPlayer, LocalPlayer], work=233*
     0x10B4 [0x45] LOAD_SCHEDULED_TASK: Load scheduler "blon" with entities [LocalPlayer, LocalPlayer], work=[200*, 0*]
     0x10C5 [0x45] LOAD_SCHEDULED_TASK: Load scheduler "lei2" with entities [LocalPlayer, LocalPlayer], work=[233*, 0*]
     0x10D6 [0x1C] WAIT(90* ticks)
