# Event 65535

## Metadata

| Field           | Value    |
|-----------------|----------|
| Event Index     | 6/15     |
| Offset          | 0x0030   |
| Data Size       | 81 bytes |
| Calculated Size | 81 bytes |
| Instructions    | 9        |

```
      00 01 02 03 04 05 06 07  08 09 0A 0B 0C 0D 0E 0F
      -- -- -- -- -- -- -- --  -- -- -- -- -- -- -- --
0030: 1C 10 80 45 11 80 F0 FF  FF 7F F0 FF FF 7F 78 30  ...E..........x0
0040: 30 32 09 80 7B BA 70 0E  01 7B BB 70 0E 01 1C 12  02..{.p..{.p....
0050: 80 45 13 80 F0 FF FF 7F  F0 FF FF 7F 66 64 6F 31  .E..........fdo1
0060: 09 80 55 13 80 F0 FF FF  7F F0 FF FF 7F 66 64 6F  ..U..........fdo
0070: 31 52 11 80 F0 FF FF 7F  F0 FF FF 7F 78 30 30 32  1R..........x002
0080: 00                                                .               
```

## Opcodes

```
  0: 0x0030 [0x1C] WAIT(15* ticks)
  1: 0x0033 [0x45] LOAD_SCHEDULED_TASK: Load scheduler "x002" with entities [LocalPlayer, LocalPlayer], work=[18*, 0*]
  2: 0x0044 [0x7B] Unnamed NPC (ID: 17723578/0x010E70BA) stops talking
  3: 0x0049 [0x7B] Unnamed NPC (ID: 17723579/0x010E70BB) stops talking
  4: 0x004E [0x1C] WAIT(180* ticks)
  5: 0x0051 [0x45] LOAD_SCHEDULED_TASK: Load scheduler "fdo1" with entities [LocalPlayer, LocalPlayer], work=[200*, 0*]
  6: 0x0062 [0x55] WAIT_LOAD_SCHEDULER: Wait for scheduler "fdo1" with entities [LocalPlayer, LocalPlayer], work=200*
  7: 0x0071 [0x52] END_LOAD_SCHEDULER: End scheduler "x002" with entities [LocalPlayer, LocalPlayer], work=18*
  8: 0x0080 [0x00] END_REQSTACK()
```
