# Event 802

## Metadata

| Field           | Value    |
|-----------------|----------|
| Event Index     | 135/162  |
| Offset          | 0x1CCE   |
| Data Size       | 33 bytes |
| Calculated Size | 33 bytes |
| Instructions    | 12       |

```
      00 01 02 03 04 05 06 07  08 09 0A 0B 0C 0D 0E 0F
      -- -- -- -- -- -- -- --  -- -- -- -- -- -- -- --
1CC0:                                            1E F0                ..
1CD0: FF FF 7F 6F 70 29 08 10  E0 0E 01 27 1D B2 80 23  ...op).....'...#
1CE0: 29 08 10 E0 0E 01 28 1D  B3 80 23 20 00 21 00     ).....(...# .!. 
```

## Opcodes

```
  0: 0x1CCE [0x1E] EventEntity looks at LocalPlayer and starts talking
  1: 0x1CD3 [0x6F] WAIT_FRAME_DELAY: Yield until WaitTime reaches zero
  2: 0x1CD4 [0x70] WAIT_ENTITY_RENDER_FLAG: Wait while EventEntity->Render.Flags3 bit 2 is set (cancel turn if not)
  3: 0x1CD5 [0x29] REQ_SET_WAIT(priority=0x08, entity_id=Tosuka-Porika (ID: 17752080/0x010EE010), tag_num=0x27)
  4: 0x1CDC [0x1D] PRINT_EVENT_MESSAGE(message_id=9955*)
    → "Hrm! Are we clear?\u0007Once you have Ajido-Marujido read the Book of the Gods, you mustaru tell me what knowledge is contained within.\u007F1\u0000\u0007"
  5: 0x1CDF [0x23] WAIT_FOR_DIALOG_INTERACTION
  6: 0x1CE0 [0x29] REQ_SET_WAIT(priority=0x08, entity_id=Tosuka-Porika (ID: 17752080/0x010EE010), tag_num=0x28)
  7: 0x1CE7 [0x1D] PRINT_EVENT_MESSAGE(message_id=9956*)
    → "Return my \u0001\u00053\u0002\u0001\u0000\u0000 as soon as your task is complete!\u007F1\u0000\u0007"
  8: 0x1CEA [0x23] WAIT_FOR_DIALOG_INTERACTION
  9: 0x1CEB [0x20] SET_CLI_EVENT_UC_FLAG: Unlock player control
 10: 0x1CED [0x21] END_EVENT
 11: 0x1CEE [0x00] END_REQSTACK()
```
