# Event 2047

## Metadata

| Field           | Value    |
|-----------------|----------|
| Event Index     | 9/18     |
| Offset          | 0x01E6   |
| Data Size       | 50 bytes |
| Calculated Size | 50 bytes |
| Instructions    | 13       |

```
      00 01 02 03 04 05 06 07  08 09 0A 0B 0C 0D 0E 0F
      -- -- -- -- -- -- -- --  -- -- -- -- -- -- -- --
01E0:                   42 1E  F0 FF FF 7F 6F 70 5B 0F        B.....op[.
01F0: 80 F8 FF FF 7F F8 FF FF  7F 74 6C 6B 30 1D 10 80  .........tlk0...
0200: 23 1D 11 80 23 5B 0F 80  F8 FF FF 7F F8 FF FF 7F  #...#[..........
0210: 74 6C 6B 31 20 00 21 00                           tlk1 .!.        
```

## Opcodes

```
  0: 0x01E6 [0x42] SET_CLI_EVENT_CANCEL_DATA()
  1: 0x01E7 [0x1E] EventEntity looks at LocalPlayer and starts talking
  2: 0x01EC [0x6F] WAIT_FRAME_DELAY: Yield until WaitTime reaches zero
  3: 0x01ED [0x70] WAIT_ENTITY_RENDER_FLAG: Wait while EventEntity->Render.Flags3 bit 2 is set (cancel turn if not)
  4: 0x01EE [0x5B] LOAD_EXT_SCHEDULER: Load scheduler "tlk0" with entities [EventEntity, EventEntity], work=3566*
  5: 0x01FD [0x1D] PRINT_EVENT_MESSAGE(message_id=8114*)
    → "Talk to sheep good. It like peeeople voice.\u007F1\u0000\u0007"
  6: 0x0200 [0x23] WAIT_FOR_DIALOG_INTERACTION
  7: 0x0201 [0x1D] PRINT_EVENT_MESSAGE(message_id=8115*)
    → "Dooo what can. Sheep is limit! Wait, maybe limit is sky...\u007F1\u0000\u0007"
  8: 0x0204 [0x23] WAIT_FOR_DIALOG_INTERACTION
  9: 0x0205 [0x5B] LOAD_EXT_SCHEDULER: Load scheduler "tlk1" with entities [EventEntity, EventEntity], work=3566*
 10: 0x0214 [0x20] SET_CLI_EVENT_UC_FLAG: Unlock player control
 11: 0x0216 [0x21] END_EVENT
 12: 0x0217 [0x00] END_REQSTACK()
```
