# Event 2048

## Metadata

| Field           | Value    |
|-----------------|----------|
| Event Index     | 10/18    |
| Offset          | 0x0218   |
| Data Size       | 50 bytes |
| Calculated Size | 50 bytes |
| Instructions    | 13       |

```
      00 01 02 03 04 05 06 07  08 09 0A 0B 0C 0D 0E 0F
      -- -- -- -- -- -- -- --  -- -- -- -- -- -- -- --
0210:                          42 1E F0 FF FF 7F 6F 70          B.....op
0220: 5B 0F 80 F8 FF FF 7F F8  FF FF 7F 74 6C 6B 30 1D  [..........tlk0.
0230: 12 80 23 1D 13 80 23 5B  0F 80 F8 FF FF 7F F8 FF  ..#...#[........
0240: FF 7F 74 6C 6B 31 20 00  21 00                    ..tlk1 .!.      
```

## Opcodes

```
  0: 0x0218 [0x42] SET_CLI_EVENT_CANCEL_DATA()
  1: 0x0219 [0x1E] EventEntity looks at LocalPlayer and starts talking
  2: 0x021E [0x6F] WAIT_FRAME_DELAY: Yield until WaitTime reaches zero
  3: 0x021F [0x70] WAIT_ENTITY_RENDER_FLAG: Wait while EventEntity->Render.Flags3 bit 2 is set (cancel turn if not)
  4: 0x0220 [0x5B] LOAD_EXT_SCHEDULER: Load scheduler "tlk0" with entities [EventEntity, EventEntity], work=3566*
  5: 0x022F [0x1D] PRINT_EVENT_MESSAGE(message_id=8116*)
    → "...Everything go in-ear and stay in-ear?\u0007Be geeentle and stuff happen! That all need know.\u007F1\u0000\u0007"
  6: 0x0232 [0x23] WAIT_FOR_DIALOG_INTERACTION
  7: 0x0233 [0x1D] PRINT_EVENT_MESSAGE(message_id=8117*)
    → "Chief, tell moogle of Chacharoon's graaand feat! Much due for kind-words!\u007F1\u0000\u0007"
  8: 0x0236 [0x23] WAIT_FOR_DIALOG_INTERACTION
  9: 0x0237 [0x5B] LOAD_EXT_SCHEDULER: Load scheduler "tlk1" with entities [EventEntity, EventEntity], work=3566*
 10: 0x0246 [0x20] SET_CLI_EVENT_UC_FLAG: Unlock player control
 11: 0x0248 [0x21] END_EVENT
 12: 0x0249 [0x00] END_REQSTACK()
```
