# Event 2056

## Metadata

| Field           | Value    |
|-----------------|----------|
| Event Index     | 12/18    |
| Offset          | 0x025A   |
| Data Size       | 45 bytes |
| Calculated Size | 45 bytes |
| Instructions    | 10       |

```
      00 01 02 03 04 05 06 07  08 09 0A 0B 0C 0D 0E 0F
      -- -- -- -- -- -- -- --  -- -- -- -- -- -- -- --
0250:                                1E F0 FF FF 7F 6F            .....o
0260: 70 5B 0F 80 F8 FF FF 7F  F8 FF FF 7F 74 6C 6B 30  p[..........tlk0
0270: 1D 16 80 23 5B 0F 80 F8  FF FF 7F F8 FF FF 7F 74  ...#[..........t
0280: 6C 6B 31 20 00 21 00                              lk1 .!.         
```

## Opcodes

```
  0: 0x025A [0x1E] EventEntity looks at LocalPlayer and starts talking
  1: 0x025F [0x6F] WAIT_FRAME_DELAY: Yield until WaitTime reaches zero
  2: 0x0260 [0x70] WAIT_ENTITY_RENDER_FLAG: Wait while EventEntity->Render.Flags3 bit 2 is set (cancel turn if not)
  3: 0x0261 [0x5B] LOAD_EXT_SCHEDULER: Load scheduler "tlk0" with entities [EventEntity, EventEntity], work=3566*
  4: 0x0270 [0x1D] PRINT_EVENT_MESSAGE(message_id=8162*)
    → "\u0008 so very much loving! Nicer than all people in wooorld put together!\u0007Chacharoon be gloating to moogle in soon-times.\u007F1\u0000\u0007"
  5: 0x0273 [0x23] WAIT_FOR_DIALOG_INTERACTION
  6: 0x0274 [0x5B] LOAD_EXT_SCHEDULER: Load scheduler "tlk1" with entities [EventEntity, EventEntity], work=3566*
  7: 0x0283 [0x20] SET_CLI_EVENT_UC_FLAG: Unlock player control
  8: 0x0285 [0x21] END_EVENT
  9: 0x0286 [0x00] END_REQSTACK()
```
