# Event 2057

## Metadata

| Field           | Value    |
|-----------------|----------|
| Event Index     | 13/18    |
| Offset          | 0x0287   |
| Data Size       | 45 bytes |
| Calculated Size | 45 bytes |
| Instructions    | 10       |

```
      00 01 02 03 04 05 06 07  08 09 0A 0B 0C 0D 0E 0F
      -- -- -- -- -- -- -- --  -- -- -- -- -- -- -- --
0280:                      1E  F0 FF FF 7F 6F 70 5B 0F         .....op[.
0290: 80 F8 FF FF 7F F8 FF FF  7F 74 6C 6B 30 1D 13 80  .........tlk0...
02A0: 23 5B 0F 80 F8 FF FF 7F  F8 FF FF 7F 74 6C 6B 31  #[..........tlk1
02B0: 20 00 21 00                                        .!.            
```

## Opcodes

```
  0: 0x0287 [0x1E] EventEntity looks at LocalPlayer and starts talking
  1: 0x028C [0x6F] WAIT_FRAME_DELAY: Yield until WaitTime reaches zero
  2: 0x028D [0x70] WAIT_ENTITY_RENDER_FLAG: Wait while EventEntity->Render.Flags3 bit 2 is set (cancel turn if not)
  3: 0x028E [0x5B] LOAD_EXT_SCHEDULER: Load scheduler "tlk0" with entities [EventEntity, EventEntity], work=3566*
  4: 0x029D [0x1D] PRINT_EVENT_MESSAGE(message_id=8117*)
    → "Chief, tell moogle of Chacharoon's graaand feat! Much due for kind-words!\u007F1\u0000\u0007"
  5: 0x02A0 [0x23] WAIT_FOR_DIALOG_INTERACTION
  6: 0x02A1 [0x5B] LOAD_EXT_SCHEDULER: Load scheduler "tlk1" with entities [EventEntity, EventEntity], work=3566*
  7: 0x02B0 [0x20] SET_CLI_EVENT_UC_FLAG: Unlock player control
  8: 0x02B2 [0x21] END_EVENT
  9: 0x02B3 [0x00] END_REQSTACK()
```
