# Event 2058

## Metadata

| Field           | Value    |
|-----------------|----------|
| Event Index     | 14/18    |
| Offset          | 0x02B4   |
| Data Size       | 50 bytes |
| Calculated Size | 50 bytes |
| Instructions    | 11       |

```
      00 01 02 03 04 05 06 07  08 09 0A 0B 0C 0D 0E 0F
      -- -- -- -- -- -- -- --  -- -- -- -- -- -- -- --
02B0:             1E F0 FF FF  7F 6F 70 5B 0F 80 F8 FF      .....op[....
02C0: FF 7F F8 FF FF 7F 74 6C  6B 30 03 03 10 17 80 1D  ......tlk0......
02D0: 18 80 23 5B 0F 80 F8 FF  FF 7F F8 FF FF 7F 74 6C  ..#[..........tl
02E0: 6B 31 20 00 21 00                                 k1 .!.          
```

## Opcodes

```
  0: 0x02B4 [0x1E] EventEntity looks at LocalPlayer and starts talking
  1: 0x02B9 [0x6F] WAIT_FRAME_DELAY: Yield until WaitTime reaches zero
  2: 0x02BA [0x70] WAIT_ENTITY_RENDER_FLAG: Wait while EventEntity->Render.Flags3 bit 2 is set (cancel turn if not)
  3: 0x02BB [0x5B] LOAD_EXT_SCHEDULER(work_offset=3566*, entity1=EventEntity, entity2=EventEntity, action="tlk0")
  4: 0x02CA [0x03] Work_Zone[3] = 818*
  5: 0x02CF [0x1D] PRINT_EVENT_MESSAGE(message_id=8193*)
    → "Please be paaassing \u0001\u0005#\u0002\u0001\u0000\u0000 to moogle. Is Chacharoon's dearerest wish.\u007F1\u0000\u0007"
  6: 0x02D2 [0x23] WAIT_FOR_DIALOG_INTERACTION
  7: 0x02D3 [0x5B] LOAD_EXT_SCHEDULER(work_offset=3566*, entity1=EventEntity, entity2=EventEntity, action="tlk1")
  8: 0x02E2 [0x20] SET_CLI_EVENT_UC_FLAG: Unlock player control
  9: 0x02E4 [0x21] END_EVENT
 10: 0x02E5 [0x00] END_REQSTACK()
```
