# Event 2066

## Metadata

| Field           | Value    |
|-----------------|----------|
| Event Index     | 17/18    |
| Offset          | 0x02E8   |
| Data Size       | 49 bytes |
| Calculated Size | 49 bytes |
| Instructions    | 12       |

```
      00 01 02 03 04 05 06 07  08 09 0A 0B 0C 0D 0E 0F
      -- -- -- -- -- -- -- --  -- -- -- -- -- -- -- --
02E0:                          1E F0 FF FF 7F 6F 70 5B          .....op[
02F0: 0F 80 F8 FF FF 7F F8 FF  FF 7F 74 6C 6B 30 1D 19  ..........tlk0..
0300: 80 23 1D 1A 80 23 5B 0F  80 F8 FF FF 7F F8 FF FF  .#...#[.........
0310: 7F 74 6C 6B 31 20 00 21  00                       .tlk1 .!.       
```

## Opcodes

```
  0: 0x02E8 [0x1E] EventEntity looks at LocalPlayer and starts talking
  1: 0x02ED [0x6F] WAIT_FRAME_DELAY: Yield until WaitTime reaches zero
  2: 0x02EE [0x70] WAIT_ENTITY_RENDER_FLAG: Wait while EventEntity->Render.Flags3 bit 2 is set (cancel turn if not)
  3: 0x02EF [0x5B] LOAD_EXT_SCHEDULER: Load scheduler "tlk0" with entities [EventEntity, EventEntity], work=3566*
  4: 0x02FE [0x1D] PRINT_EVENT_MESSAGE(message_id=8328*)
    → "You have thing-tell to Chacharoon?\u007F1\u0000\u0007"
  5: 0x0301 [0x23] WAIT_FOR_DIALOG_INTERACTION
  6: 0x0302 [0x1D] PRINT_EVENT_MESSAGE(message_id=8329*)
    → "Then go to rearing grounds to make tongue-wiggle!\u007F1\u0000\u0007"
  7: 0x0305 [0x23] WAIT_FOR_DIALOG_INTERACTION
  8: 0x0306 [0x5B] LOAD_EXT_SCHEDULER: Load scheduler "tlk1" with entities [EventEntity, EventEntity], work=3566*
  9: 0x0315 [0x20] SET_CLI_EVENT_UC_FLAG: Unlock player control
 10: 0x0317 [0x21] END_EVENT
 11: 0x0318 [0x00] END_REQSTACK()
```
