# Event 65535

## Metadata

| Field           | Value     |
|-----------------|-----------|
| Event Index     | 5/6       |
| Offset          | 0x002A    |
| Data Size       | 105 bytes |
| Calculated Size | 105 bytes |
| Instructions    | 9         |

```
      00 01 02 03 04 05 06 07  08 09 0A 0B 0C 0D 0E 0F
      -- -- -- -- -- -- -- --  -- -- -- -- -- -- -- --
0020:                                2C F8 FF FF 7F F8            ,.....
0030: FF FF 7F 67 75 72 64 53  F8 FF FF 7F F8 FF FF 7F  ...gurdS........
0040: 67 75 72 64 2C F8 FF FF  7F F8 FF FF 7F 67 75 72  gurd,........gur
0050: 64 53 F8 FF FF 7F F8 FF  FF 7F 67 75 72 64 2C F8  dS........gurd,.
0060: FF FF 7F F8 FF FF 7F 67  75 72 64 53 F8 FF FF 7F  .......gurdS....
0070: F8 FF FF 7F 67 75 72 64  2C 45 90 0C 01 F8 FF FF  ....gurd,E......
0080: 7F 64 61 6D 67 53 45 90  0C 01 F8 FF FF 7F 64 61  .damgSE.......da
0090: 6D 67 00                                          mg.             
```

## Opcodes

```
  0: 0x002A [0x2C] CREATE_SCHEDULER_TASK: Create scheduler "gurd" with entities [EventEntity, EventEntity]
  1: 0x0037 [0x53] WAIT_SCHEDULER_TASK: Wait for scheduler "gurd" with entities [EventEntity, EventEntity]
  2: 0x0044 [0x2C] CREATE_SCHEDULER_TASK: Create scheduler "gurd" with entities [EventEntity, EventEntity]
  3: 0x0051 [0x53] WAIT_SCHEDULER_TASK: Wait for scheduler "gurd" with entities [EventEntity, EventEntity]
  4: 0x005E [0x2C] CREATE_SCHEDULER_TASK: Create scheduler "gurd" with entities [EventEntity, EventEntity]
  5: 0x006B [0x53] WAIT_SCHEDULER_TASK: Wait for scheduler "gurd" with entities [EventEntity, EventEntity]
  6: 0x0078 [0x2C] CREATE_SCHEDULER_TASK: Create scheduler "damg" with entities [Ildy-Goldy (ID: 17600581/0x010C9045), EventEntity]
  7: 0x0085 [0x53] WAIT_SCHEDULER_TASK: Wait for scheduler "damg" with entities [Ildy-Goldy (ID: 17600581/0x010C9045), EventEntity]
  8: 0x0092 [0x00] END_REQSTACK()
```
