# Event 61

## Metadata

| Field           | Value    |
|-----------------|----------|
| Event Index     | 6/111    |
| Offset          | 0x0112   |
| Data Size       | 40 bytes |
| Calculated Size | 40 bytes |
| Instructions    | 10       |

```
      00 01 02 03 04 05 06 07  08 09 0A 0B 0C 0D 0E 0F
      -- -- -- -- -- -- -- --  -- -- -- -- -- -- -- --
0110:       1E F0 FF FF 7F 4A  13 50 0F 01 F0 FF FF 7F    .....J.P......
0120: 2B 12 50 0F 01 12 80 23  2B 13 50 0F 01 13 80 23  +.P....#+.P....#
0130: 2B 12 50 0F 01 14 80 23  21 00                    +.P....#!.      
```

## Opcodes

```
  0: 0x0112 [0x1E] EventEntity looks at LocalPlayer and starts talking
  1: 0x0117 [0x4A] Seyaya (ID: 17780755/0x010F5013) looks at LocalPlayer
  2: 0x0120 [0x2B] Tovrutaux (ID: 17780754/0x010F5012) [7671*]:
    → "I heard that the chocobo master's son got better. Sometimes I hear him laughing again.\u007F1\u0000\u0007"
  3: 0x0127 [0x23] WAIT_FOR_DIALOG_INTERACTION
  4: 0x0128 [0x2B] Seyaya (ID: 17780755/0x010F5013) [7672*]:
    → "I'm so surprised. That chocobo master doesn't get angry at the chocobos anymore. I hope he stays that way forever.\u007F1\u0000\u0007"
  5: 0x012F [0x23] WAIT_FOR_DIALOG_INTERACTION
  6: 0x0130 [0x2B] Tovrutaux (ID: 17780754/0x010F5012) [7673*]:
    → "Yeah, really!\u007F1\u0000\u0007"
  7: 0x0137 [0x23] WAIT_FOR_DIALOG_INTERACTION
  8: 0x0138 [0x21] END_EVENT
  9: 0x0139 [0x00] END_REQSTACK()
```
