# Event 10090

## Metadata

| Field           | Value    |
|-----------------|----------|
| Event Index     | 6/8      |
| Offset          | 0x0145   |
| Data Size       | 52 bytes |
| Calculated Size | 52 bytes |
| Instructions    | 12       |

```
      00 01 02 03 04 05 06 07  08 09 0A 0B 0C 0D 0E 0F
      -- -- -- -- -- -- -- --  -- -- -- -- -- -- -- --
0140:                42 48 0D  80 1E F0 FF FF 7F 1C 0E       BH.........
0150: 80 66 00 80 F8 FF FF 7F  F8 FF FF 7F 74 6C 6B 30  .f..........tlk0
0160: 1D 0F 80 23 1D 10 80 23  66 00 80 F8 FF FF 7F F8  ...#...#f.......
0170: FF FF 7F 74 6C 6B 31 21  00                       ...tlk1!.       
```

## Opcodes

```
  0: 0x0145 [0x42] SET_CLI_EVENT_CANCEL_DATA()
  1: 0x0146 [0x48] [System] [13840*]:
    → "\u001F\u000F\u0008's badge flashes brightly.\u007F1\u0000\u0007"
  2: 0x0149 [0x1E] EventEntity looks at LocalPlayer and starts talking
  3: 0x014E [0x1C] WAIT(30* ticks)
  4: 0x0151 [0x66] LOAD_EXT_SCHEDULER_MAIN(work_offset=69*, entity1=EventEntity, entity2=EventEntity, action="tlk0")
  5: 0x0160 [0x1D] PRINT_EVENT_MESSAGE(message_id=13843*)
    → "I see you've got a Salaheem's Sentinel badge there...\u0007They must be desperate to use those as an attention-grabbing device.\u007F1\u0000\u0007"
  6: 0x0163 [0x23] WAIT_FOR_DIALOG_INTERACTION
  7: 0x0164 [0x1D] PRINT_EVENT_MESSAGE(message_id=13844*)
    → "Maybe the empress of Aht Urhgan is short on devoted subjects...\u007F1\u0000\u0007"
  8: 0x0167 [0x23] WAIT_FOR_DIALOG_INTERACTION
  9: 0x0168 [0x66] LOAD_EXT_SCHEDULER_MAIN(work_offset=69*, entity1=EventEntity, entity2=EventEntity, action="tlk1")
 10: 0x0177 [0x21] END_EVENT
 11: 0x0178 [0x00] END_REQSTACK()
```
