# 17113942 - Zogbog

## Common Data

| Field            | Value                      |
|------------------|----------------------------|
| Zone             | Jugner Forest [S] (ID: 82) |
| Block Size       | 676 bytes                  |
| Total Events     | 23                         |
| References Count | 43                         |

## List of Events

| Event ID                   | Entrypoint   |   Size |   Instructions |
|----------------------------|--------------|--------|----------------|
| [65535](#event-65535)      | 0x0000       |      1 |              1 |
| [200](#event-200)          | 0x0001       |      1 |              1 |
| [201](#event-201)          | 0x0002       |      1 |              1 |
| [202](#event-202)          | 0x0003       |      1 |              1 |
| [203](#event-203)          | 0x0004       |      1 |              1 |
| [65535.1](#event-655351)   | 0x0005       |     28 |              6 |
| [65535.2](#event-655352)   | 0x0021       |      4 |              2 |
| [65535.3](#event-655353)   | 0x0025       |     44 |              6 |
| [211](#event-211)          | 0x0051       |      1 |              1 |
| [65535.4](#event-655354)   | 0x0052       |     35 |              9 |
| [65535.5](#event-655355)   | 0x0075       |     35 |              9 |
| [212](#event-212)          | 0x0098       |      1 |              1 |
| [214](#event-214)          | 0x0099       |      1 |              1 |
| [65535.6](#event-655356)   | 0x009A       |     15 |              5 |
| [215](#event-215)          | 0x00A9       |      1 |              1 |
| [65535.7](#event-655357)   | 0x00AA       |     34 |              4 |
| [65535.8](#event-655358)   | 0x00CC       |     14 |              4 |
| [65535.9](#event-655359)   | 0x00DA       |     22 |              6 |
| [65535.10](#event-6553510) | 0x00F0       |     83 |              9 |
| [65535.11](#event-6553511) | 0x0143       |     23 |              7 |
| [65535.12](#event-6553512) | 0x015A       |     22 |              6 |
| [65535.13](#event-6553513) | 0x0170       |     14 |              4 |
| [65535.14](#event-6553514) | 0x017E       |     14 |              4 |

## DAT References (imed_data)

|   Index | Hex Value   |   Dec Value |
|---------|-------------|-------------|
|       0 | 0x13156     |       78166 |
|       1 | 0x4D41A     |      316442 |
|       2 | 0xFFFFFFFF  |  4294967295 |
|       3 | 0x0BB8      |        3000 |
|       4 | 0x0028      |          40 |
|       5 | 0x12937     |       76087 |
|       6 | 0x51ADE     |      334558 |
|       7 | 0x0286      |         646 |
|       8 | 0x000D      |          13 |
|       9 | 0x14737     |       83767 |
|      10 | 0x457EB     |      284651 |
|      11 | 0x001F      |          31 |
|      12 | 0x0762      |        1890 |
|      13 | 0x12778     |       75640 |
|      14 | 0x47C52     |      293970 |
|      15 | 0x0262      |         610 |
|      16 | 0x0160      |         352 |
|      17 | 0x61122     |      397602 |
|      18 | 0x6B0A5     |      438437 |
|      19 | 0x0000      |           0 |
|      20 | 0x0A23      |        2595 |
|      21 | 0x003C      |          60 |
|      22 | 0x65AE3     |      416483 |
|      23 | 0x60E8F     |      396943 |
|      24 | 0x0210      |         528 |
|      25 | 0xFFF91EAE  |  4294516398 |
|      26 | 0xFFF8C00D  |  4294492173 |
|      27 | 0x0182      |         386 |
|      28 | 0x001E      |          30 |
|      29 | 0x0588      |        1416 |
|      30 | 0x0589      |        1417 |
|      31 | 0xFFF94D6A  |  4294528362 |
|      32 | 0xFFF8ECC9  |  4294503625 |
|      33 | 0x0330      |         816 |
|      34 | 0xFFF8C59F  |  4294493599 |
|      35 | 0xFFF9F4A1  |  4294571169 |
|      36 | 0x0071      |         113 |
|      37 | 0xFFF9F450  |  4294571088 |
|      38 | 0xFFF95F49  |  4294532937 |
|      39 | 0xFFFFFFE1  |  4294967265 |
|      40 | 0xFFF9D714  |  4294563604 |
|      41 | 0xFFF9AA5A  |  4294552154 |
|      42 | 0x04FF      |        1279 |

## Events

### Event 65535

#### Metadata

| Field        | Value   |
|--------------|---------|
| Entrypoint   | 0x0000  |
| Data Size    | 1 bytes |
| Instructions | 1       |

```
      00 01 02 03 04 05 06 07  08 09 0A 0B 0C 0D 0E 0F
      -- -- -- -- -- -- -- --  -- -- -- -- -- -- -- --
0000: 00                                                .               
```

#### Opcodes

```
  0: 0x0000 [0x00] END_REQSTACK()
```

### Event 200

#### Metadata

| Field        | Value   |
|--------------|---------|
| Entrypoint   | 0x0001  |
| Data Size    | 1 bytes |
| Instructions | 1       |

```
      00 01 02 03 04 05 06 07  08 09 0A 0B 0C 0D 0E 0F
      -- -- -- -- -- -- -- --  -- -- -- -- -- -- -- --
0000:    00                                              .              
```

#### Opcodes

```
  0: 0x0001 [0x00] END_REQSTACK()
```

### Event 201

#### Metadata

| Field        | Value   |
|--------------|---------|
| Entrypoint   | 0x0002  |
| Data Size    | 1 bytes |
| Instructions | 1       |

```
      00 01 02 03 04 05 06 07  08 09 0A 0B 0C 0D 0E 0F
      -- -- -- -- -- -- -- --  -- -- -- -- -- -- -- --
0000:       00                                            .             
```

#### Opcodes

```
  0: 0x0002 [0x00] END_REQSTACK()
```

### Event 202

#### Metadata

| Field        | Value   |
|--------------|---------|
| Entrypoint   | 0x0003  |
| Data Size    | 1 bytes |
| Instructions | 1       |

```
      00 01 02 03 04 05 06 07  08 09 0A 0B 0C 0D 0E 0F
      -- -- -- -- -- -- -- --  -- -- -- -- -- -- -- --
0000:          00                                          .            
```

#### Opcodes

```
  0: 0x0003 [0x00] END_REQSTACK()
```

### Event 203

#### Metadata

| Field        | Value   |
|--------------|---------|
| Entrypoint   | 0x0004  |
| Data Size    | 1 bytes |
| Instructions | 1       |

```
      00 01 02 03 04 05 06 07  08 09 0A 0B 0C 0D 0E 0F
      -- -- -- -- -- -- -- --  -- -- -- -- -- -- -- --
0000:             00                                        .           
```

#### Opcodes

```
  0: 0x0004 [0x00] END_REQSTACK()
```

### Event 65535.1

#### Metadata

| Field        | Value    |
|--------------|----------|
| Entrypoint   | 0x0005   |
| Data Size    | 28 bytes |
| Instructions | 6        |

```
      00 01 02 03 04 05 06 07  08 09 0A 0B 0C 0D 0E 0F
      -- -- -- -- -- -- -- --  -- -- -- -- -- -- -- --
0000:                BA 56 23  05 01 00 80 01 80 02 80       .V#........
0010: 03 80 32 04 80 1F 00 05  80 06 80 07 80 1F 01 6F  ..2............o
0020: 00                                                .               
```

#### Opcodes

```
  0: 0x0005 [0xBA] SET_ENTITY_POSITION(entity_id=Zogbog (ID: 17113942/0x01052356), pos_x=78.166*, pos_z=316.442*, pos_y=-0.001*, direction=263.7°*)
  1: 0x0012 [0x32] ExtData[1]->MainSpeed = 40* * 0.1
  2: 0x0015 [0x1F] MOVE_ENTITY: EventEntity moves to X=76.087*, Z=334.558*, Y=0.646*
  3: 0x001D [0x1F] MOVE_ENTITY: Update entity position (mode=1)
  4: 0x001F [0x6F] WAIT_FRAME_DELAY: Yield until WaitTime reaches zero
  5: 0x0020 [0x00] END_REQSTACK()
```

### Event 65535.2

#### Metadata

| Field        | Value   |
|--------------|---------|
| Entrypoint   | 0x0021  |
| Data Size    | 4 bytes |
| Instructions | 2       |

```
      00 01 02 03 04 05 06 07  08 09 0A 0B 0C 0D 0E 0F
      -- -- -- -- -- -- -- --  -- -- -- -- -- -- -- --
0020:    32 08 80 00                                     2...           
```

#### Opcodes

```
  0: 0x0021 [0x32] ExtData[1]->MainSpeed = 13* * 0.1
  1: 0x0024 [0x00] END_REQSTACK()
```

### Event 65535.3

#### Metadata

| Field        | Value    |
|--------------|----------|
| Entrypoint   | 0x0025   |
| Data Size    | 44 bytes |
| Instructions | 5        |

```
      00 01 02 03 04 05 06 07  08 09 0A 0B 0C 0D 0E 0F
      -- -- -- -- -- -- -- --  -- -- -- -- -- -- -- --
0020:                BA 56 23  05 01 09 80 0A 80 0B 80       .V#........
0030: 0C 80 32 04 80 31 00 0D  80 0E 80 0F 80 0C 80 31  ..2..1.........1
0040: 01 00 55 10 80 F8 FF FF  7F F8 FF FF 7F 73 31 30  ..U..........s10
0050: 34                                                4               
```

#### Opcodes

```
  0: 0x0025 [0xBA] SET_ENTITY_POSITION(entity_id=Zogbog (ID: 17113942/0x01052356), pos_x=83.767*, pos_z=284.651*, pos_y=0.031*, direction=166.1°*)
  1: 0x0032 [0x32] ExtData[1]->MainSpeed = 40* * 0.1
  2: 0x0035 [0x31] UPDATE_ENTITY_POSITION: Set EventEntity goal position to X=75.640*, Z=293.970*, Y=0.610*, Time=1890*
  3: 0x003F [0x31] UPDATE_ENTITY_POSITION: Move EventEntity towards goal position
  4: 0x0041 [0x00] END_REQSTACK()
```

#### Data or dead code:

```
# Dead code (unreachable instructions):
     0x0042 [0x55] WAIT_LOAD_SCHEDULER: Wait for scheduler "s104" with entities [EventEntity, EventEntity], work=352*
```

### Event 211

#### Metadata

| Field        | Value   |
|--------------|---------|
| Entrypoint   | 0x0051  |
| Data Size    | 1 bytes |
| Instructions | 1       |

```
      00 01 02 03 04 05 06 07  08 09 0A 0B 0C 0D 0E 0F
      -- -- -- -- -- -- -- --  -- -- -- -- -- -- -- --
0050:    00                                              .              
```

#### Opcodes

```
  0: 0x0051 [0x00] END_REQSTACK()
```

### Event 65535.4

#### Metadata

| Field        | Value    |
|--------------|----------|
| Entrypoint   | 0x0052   |
| Data Size    | 35 bytes |
| Instructions | 9        |

```
      00 01 02 03 04 05 06 07  08 09 0A 0B 0C 0D 0E 0F
      -- -- -- -- -- -- -- --  -- -- -- -- -- -- -- --
0050:       03 00 00 25 10 03  01 00 27 10 03 02 00 26    ...%....'....&
0060: 10 03 03 00 28 10 32 04  80 1F 00 00 00 01 00 02  ....(.2.........
0070: 00 1F 01 6F 00                                    ...o.           
```

#### Opcodes

```
  0: 0x0052 [0x03] ExtData[1]->WorkLocal[0] = Work_Zone[37]
  1: 0x0057 [0x03] ExtData[1]->WorkLocal[1] = Work_Zone[39]
  2: 0x005C [0x03] ExtData[1]->WorkLocal[2] = Work_Zone[38]
  3: 0x0061 [0x03] ExtData[1]->WorkLocal[3] = Work_Zone[40]
  4: 0x0066 [0x32] ExtData[1]->MainSpeed = 40* * 0.1
  5: 0x0069 [0x1F] MOVE_ENTITY: EventEntity moves to X=ExtData[1]->WorkLocal[0], Z=ExtData[1]->WorkLocal[1], Y=ExtData[1]->WorkLocal[2]
  6: 0x0071 [0x1F] MOVE_ENTITY: Update entity position (mode=1)
  7: 0x0073 [0x6F] WAIT_FRAME_DELAY: Yield until WaitTime reaches zero
  8: 0x0074 [0x00] END_REQSTACK()
```

### Event 65535.5

#### Metadata

| Field        | Value    |
|--------------|----------|
| Entrypoint   | 0x0075   |
| Data Size    | 35 bytes |
| Instructions | 9        |

```
      00 01 02 03 04 05 06 07  08 09 0A 0B 0C 0D 0E 0F
      -- -- -- -- -- -- -- --  -- -- -- -- -- -- -- --
0070:                03 00 00  25 10 03 01 00 27 10 03       ...%....'..
0080: 02 00 26 10 03 03 00 28  10 32 08 80 1F 00 00 00  ..&....(.2......
0090: 01 00 02 00 1F 01 6F 00                           ......o.        
```

#### Opcodes

```
  0: 0x0075 [0x03] ExtData[1]->WorkLocal[0] = Work_Zone[37]
  1: 0x007A [0x03] ExtData[1]->WorkLocal[1] = Work_Zone[39]
  2: 0x007F [0x03] ExtData[1]->WorkLocal[2] = Work_Zone[38]
  3: 0x0084 [0x03] ExtData[1]->WorkLocal[3] = Work_Zone[40]
  4: 0x0089 [0x32] ExtData[1]->MainSpeed = 13* * 0.1
  5: 0x008C [0x1F] MOVE_ENTITY: EventEntity moves to X=ExtData[1]->WorkLocal[0], Z=ExtData[1]->WorkLocal[1], Y=ExtData[1]->WorkLocal[2]
  6: 0x0094 [0x1F] MOVE_ENTITY: Update entity position (mode=1)
  7: 0x0096 [0x6F] WAIT_FRAME_DELAY: Yield until WaitTime reaches zero
  8: 0x0097 [0x00] END_REQSTACK()
```

### Event 212

#### Metadata

| Field        | Value   |
|--------------|---------|
| Entrypoint   | 0x0098  |
| Data Size    | 1 bytes |
| Instructions | 1       |

```
      00 01 02 03 04 05 06 07  08 09 0A 0B 0C 0D 0E 0F
      -- -- -- -- -- -- -- --  -- -- -- -- -- -- -- --
0090:                          00                               .       
```

#### Opcodes

```
  0: 0x0098 [0x00] END_REQSTACK()
```

### Event 214

#### Metadata

| Field        | Value   |
|--------------|---------|
| Entrypoint   | 0x0099  |
| Data Size    | 1 bytes |
| Instructions | 1       |

```
      00 01 02 03 04 05 06 07  08 09 0A 0B 0C 0D 0E 0F
      -- -- -- -- -- -- -- --  -- -- -- -- -- -- -- --
0090:                             00                             .      
```

#### Opcodes

```
  0: 0x0099 [0x00] END_REQSTACK()
```

### Event 65535.6

#### Metadata

| Field        | Value    |
|--------------|----------|
| Entrypoint   | 0x009A   |
| Data Size    | 15 bytes |
| Instructions | 5        |

```
      00 01 02 03 04 05 06 07  08 09 0A 0B 0C 0D 0E 0F
      -- -- -- -- -- -- -- --  -- -- -- -- -- -- -- --
0090:                                32 08 80 1F 00 11            2.....
00A0: 80 12 80 13 80 1F 01 6F  00                       .......o.       
```

#### Opcodes

```
  0: 0x009A [0x32] ExtData[1]->MainSpeed = 13* * 0.1
  1: 0x009D [0x1F] MOVE_ENTITY: EventEntity moves to X=397.602*, Z=438.437*, Y=0.000*
  2: 0x00A5 [0x1F] MOVE_ENTITY: Update entity position (mode=1)
  3: 0x00A7 [0x6F] WAIT_FRAME_DELAY: Yield until WaitTime reaches zero
  4: 0x00A8 [0x00] END_REQSTACK()
```

### Event 215

#### Metadata

| Field        | Value   |
|--------------|---------|
| Entrypoint   | 0x00A9  |
| Data Size    | 1 bytes |
| Instructions | 1       |

```
      00 01 02 03 04 05 06 07  08 09 0A 0B 0C 0D 0E 0F
      -- -- -- -- -- -- -- --  -- -- -- -- -- -- -- --
00A0:                             00                             .      
```

#### Opcodes

```
  0: 0x00A9 [0x00] END_REQSTACK()
```

### Event 65535.7

#### Metadata

| Field        | Value    |
|--------------|----------|
| Entrypoint   | 0x00AA   |
| Data Size    | 34 bytes |
| Instructions | 4        |

```
      00 01 02 03 04 05 06 07  08 09 0A 0B 0C 0D 0E 0F
      -- -- -- -- -- -- -- --  -- -- -- -- -- -- -- --
00A0:                                5B 14 80 56 23 05            [..V#.
00B0: 01 56 23 05 01 61 6E 67  30 1C 15 80 5B 14 80 56  .V#..ang0...[..V
00C0: 23 05 01 56 23 05 01 61  6E 67 31 00              #..V#..ang1.    
```

#### Opcodes

```
  0: 0x00AA [0x5B] LOAD_EXT_SCHEDULER: Load scheduler "ang0" with entities [Zogbog (ID: 17113942/0x01052356), Zogbog (ID: 17113942/0x01052356)], work=2595*
  1: 0x00B9 [0x1C] WAIT(60* ticks)
  2: 0x00BC [0x5B] LOAD_EXT_SCHEDULER: Load scheduler "ang1" with entities [Zogbog (ID: 17113942/0x01052356), Zogbog (ID: 17113942/0x01052356)], work=2595*
  3: 0x00CB [0x00] END_REQSTACK()
```

### Event 65535.8

#### Metadata

| Field        | Value    |
|--------------|----------|
| Entrypoint   | 0x00CC   |
| Data Size    | 14 bytes |
| Instructions | 4        |

```
      00 01 02 03 04 05 06 07  08 09 0A 0B 0C 0D 0E 0F
      -- -- -- -- -- -- -- --  -- -- -- -- -- -- -- --
00C0:                                      32 04 80 1F              2...
00D0: 00 16 80 17 80 18 80 1F  01 00                    ..........      
```

#### Opcodes

```
  0: 0x00CC [0x32] ExtData[1]->MainSpeed = 40* * 0.1
  1: 0x00CF [0x1F] MOVE_ENTITY: EventEntity moves to X=416.483*, Z=396.943*, Y=0.528*
  2: 0x00D7 [0x1F] MOVE_ENTITY: Update entity position (mode=1)
  3: 0x00D9 [0x00] END_REQSTACK()
```

### Event 65535.9

#### Metadata

| Field        | Value    |
|--------------|----------|
| Entrypoint   | 0x00DA   |
| Data Size    | 22 bytes |
| Instructions | 6        |

```
      00 01 02 03 04 05 06 07  08 09 0A 0B 0C 0D 0E 0F
      -- -- -- -- -- -- -- --  -- -- -- -- -- -- -- --
00D0:                                32 04 80 1F 00 19            2.....
00E0: 80 1A 80 1B 80 1F 01 1E  54 23 05 01 1C 1C 80 00  ........T#......
```

#### Opcodes

```
  0: 0x00DA [0x32] ExtData[1]->MainSpeed = 40* * 0.1
  1: 0x00DD [0x1F] MOVE_ENTITY: EventEntity moves to X=-450.898*, Z=-475.123*, Y=0.386*
  2: 0x00E5 [0x1F] MOVE_ENTITY: Update entity position (mode=1)
  3: 0x00E7 [0x1E] EventEntity looks at Excenmille (ID: 17113940/0x01052354) and starts talking
  4: 0x00EC [0x1C] WAIT(30* ticks)
  5: 0x00EF [0x00] END_REQSTACK()
```

### Event 65535.10

#### Metadata

| Field        | Value    |
|--------------|----------|
| Entrypoint   | 0x00F0   |
| Data Size    | 83 bytes |
| Instructions | 9        |

```
      00 01 02 03 04 05 06 07  08 09 0A 0B 0C 0D 0E 0F
      -- -- -- -- -- -- -- --  -- -- -- -- -- -- -- --
00F0: 5B 1D 80 56 23 05 01 56  23 05 01 6C 6B 72 30 1C  [..V#..V#..lkr0.
0100: 15 80 5B 1E 80 56 23 05  01 56 23 05 01 6C 6B 72  ..[..V#..V#..lkr
0110: 31 1C 1C 80 5B 1D 80 56  23 05 01 56 23 05 01 6C  1...[..V#..V#..l
0120: 6B 6C 30 1C 15 80 5B 1E  80 56 23 05 01 56 23 05  kl0...[..V#..V#.
0130: 01 6C 6B 6C 31 53 56 23  05 01 56 23 05 01 6C 6B  .lkl1SV#..V#..lk
0140: 6C 31 00                                          l1.             
```

#### Opcodes

```
  0: 0x00F0 [0x5B] LOAD_EXT_SCHEDULER: Load scheduler "lkr0" with entities [Zogbog (ID: 17113942/0x01052356), Zogbog (ID: 17113942/0x01052356)], work=1416*
  1: 0x00FF [0x1C] WAIT(60* ticks)
  2: 0x0102 [0x5B] LOAD_EXT_SCHEDULER: Load scheduler "lkr1" with entities [Zogbog (ID: 17113942/0x01052356), Zogbog (ID: 17113942/0x01052356)], work=1417*
  3: 0x0111 [0x1C] WAIT(30* ticks)
  4: 0x0114 [0x5B] LOAD_EXT_SCHEDULER: Load scheduler "lkl0" with entities [Zogbog (ID: 17113942/0x01052356), Zogbog (ID: 17113942/0x01052356)], work=1416*
  5: 0x0123 [0x1C] WAIT(60* ticks)
  6: 0x0126 [0x5B] LOAD_EXT_SCHEDULER: Load scheduler "lkl1" with entities [Zogbog (ID: 17113942/0x01052356), Zogbog (ID: 17113942/0x01052356)], work=1417*
  7: 0x0135 [0x53] WAIT_SCHEDULER_TASK: Wait for scheduler "lkl1" with entities [Zogbog (ID: 17113942/0x01052356), Zogbog (ID: 17113942/0x01052356)]
  8: 0x0142 [0x00] END_REQSTACK()
```

### Event 65535.11

#### Metadata

| Field        | Value    |
|--------------|----------|
| Entrypoint   | 0x0143   |
| Data Size    | 23 bytes |
| Instructions | 7        |

```
      00 01 02 03 04 05 06 07  08 09 0A 0B 0C 0D 0E 0F
      -- -- -- -- -- -- -- --  -- -- -- -- -- -- -- --
0140:          32 04 80 1F 00  1F 80 20 80 21 80 1F 01     2...... .!...
0150: 6F 1E 70 23 05 01 1C 1C  80 00                    o.p#......      
```

#### Opcodes

```
  0: 0x0143 [0x32] ExtData[1]->MainSpeed = 40* * 0.1
  1: 0x0146 [0x1F] MOVE_ENTITY: EventEntity moves to X=-438.934*, Z=-463.671*, Y=0.816*
  2: 0x014E [0x1F] MOVE_ENTITY: Update entity position (mode=1)
  3: 0x0150 [0x6F] WAIT_FRAME_DELAY: Yield until WaitTime reaches zero
  4: 0x0151 [0x1E] EventEntity looks at Kingslayer Doggvdegg (ID: 17113968/0x01052370) and starts talking
  5: 0x0156 [0x1C] WAIT(30* ticks)
  6: 0x0159 [0x00] END_REQSTACK()
```

### Event 65535.12

#### Metadata

| Field        | Value    |
|--------------|----------|
| Entrypoint   | 0x015A   |
| Data Size    | 22 bytes |
| Instructions | 6        |

```
      00 01 02 03 04 05 06 07  08 09 0A 0B 0C 0D 0E 0F
      -- -- -- -- -- -- -- --  -- -- -- -- -- -- -- --
0150:                                32 04 80 1F 00 22            2...."
0160: 80 23 80 24 80 1F 01 1E  70 23 05 01 1C 1C 80 00  .#.$....p#......
```

#### Opcodes

```
  0: 0x015A [0x32] ExtData[1]->MainSpeed = 40* * 0.1
  1: 0x015D [0x1F] MOVE_ENTITY: EventEntity moves to X=-473.697*, Z=-396.127*, Y=0.113*
  2: 0x0165 [0x1F] MOVE_ENTITY: Update entity position (mode=1)
  3: 0x0167 [0x1E] EventEntity looks at Kingslayer Doggvdegg (ID: 17113968/0x01052370) and starts talking
  4: 0x016C [0x1C] WAIT(30* ticks)
  5: 0x016F [0x00] END_REQSTACK()
```

### Event 65535.13

#### Metadata

| Field        | Value    |
|--------------|----------|
| Entrypoint   | 0x0170   |
| Data Size    | 14 bytes |
| Instructions | 4        |

```
      00 01 02 03 04 05 06 07  08 09 0A 0B 0C 0D 0E 0F
      -- -- -- -- -- -- -- --  -- -- -- -- -- -- -- --
0170: 32 04 80 5A 00 25 80 26  80 27 80 5A 01 00        2..Z.%.&.'.Z..  
```

#### Opcodes

```
  0: 0x0170 [0x32] ExtData[1]->MainSpeed = 40* * 0.1
  1: 0x0173 [0x5A] UPDATE_EVENT_POSITION: Set EventEntity MovePosition to X=-396.208*, Z=-434.359*, Y=-0.031*
  2: 0x017B [0x5A] UPDATE_EVENT_POSITION: Move EventEntity incrementally towards MovePosition
  3: 0x017D [0x00] END_REQSTACK()
```

### Event 65535.14

#### Metadata

| Field        | Value    |
|--------------|----------|
| Entrypoint   | 0x017E   |
| Data Size    | 14 bytes |
| Instructions | 4        |

```
      00 01 02 03 04 05 06 07  08 09 0A 0B 0C 0D 0E 0F
      -- -- -- -- -- -- -- --  -- -- -- -- -- -- -- --
0170:                                            32 04                2.
0180: 80 5A 00 28 80 29 80 2A  80 5A 01 00              .Z.(.).*.Z..    
```

#### Opcodes

```
  0: 0x017E [0x32] ExtData[1]->MainSpeed = 40* * 0.1
  1: 0x0181 [0x5A] UPDATE_EVENT_POSITION: Set EventEntity MovePosition to X=-403.692*, Z=-415.142*, Y=1.279*
  2: 0x0189 [0x5A] UPDATE_EVENT_POSITION: Move EventEntity incrementally towards MovePosition
  3: 0x018B [0x00] END_REQSTACK()
```
