# 17113959

## Common Data

| Field            | Value                      |
|------------------|----------------------------|
| Zone             | Jugner Forest [S] (ID: 82) |
| Block Size       | 12804 bytes                |
| Total Events     | 5                          |
| References Count | 330                        |

## List of Events

| Event ID              | Entrypoint   |   Size |   Instructions |
|-----------------------|--------------|--------|----------------|
| [65535](#event-65535) | 0x0000       |      1 |              1 |
| [200](#event-200)     | 0x0001       |   3266 |            363 |
| [201](#event-201)     | 0x0CC3       |   2461 |            253 |
| [202](#event-202)     | 0x1660       |    244 |             30 |
| [203](#event-203)     | 0x1754       |   5476 |            571 |

## DAT References (imed_data)

|   Index | Hex Value   |   Dec Value |
|---------|-------------|-------------|
|       0 | 0x0013      |          19 |
|       1 | 0xFFFB06B7  |  4294641335 |
|       2 | 0x6C8D8     |      444632 |
|       3 | 0xFFFFFC41  |  4294966337 |
|       4 | 0x02C5      |         709 |
|       5 | 0x845A      |       33882 |
|       6 | 0xFFFF2326  |  4294910758 |
|       7 | 0xFFFFE633  |  4294960691 |
|       8 | 0x0167      |         359 |
|       9 | 0xFFFB1F33  |  4294647603 |
|      10 | 0x6797D     |      424317 |
|      11 | 0x02FC      |         764 |
|      12 | 0x03E8      |        1000 |
|      13 | 0xFFFB2334  |  4294648628 |
|      14 | 0x67073     |      422003 |
|      15 | 0x0383      |         899 |
|      16 | 0xFFFB1B50  |  4294646608 |
|      17 | 0x669DB     |      420315 |
|      18 | 0x03D7      |         983 |
|      19 | 0xFFFB13AC  |  4294644652 |
|      20 | 0x66B4D     |      420685 |
|      21 | 0x03C4      |         964 |
|      22 | 0x03E9      |        1001 |
|      23 | 0x0513      |        1299 |
|      24 | 0x0160      |         352 |
|      25 | 0x0000      |           0 |
|      26 | 0x0005      |           5 |
|      27 | 0x04F8      |        1272 |
|      28 | 0x1E7A      |        7802 |
|      29 | 0x0515      |        1301 |
|      30 | 0x1E7B      |        7803 |
|      31 | 0x1E7C      |        7804 |
|      32 | 0x1E7D      |        7805 |
|      33 | 0x1E7E      |        7806 |
|      34 | 0x1E7F      |        7807 |
|      35 | 0x00F0      |         240 |
|      36 | 0x00FA      |         250 |
|      37 | 0x12BBF     |       76735 |
|      38 | 0x4E75C     |      321372 |
|      39 | 0x0054      |          84 |
|      40 | 0x0BB8      |        3000 |
|      41 | 0x13156     |       78166 |
|      42 | 0x4D41A     |      316442 |
|      43 | 0xFFFFFFFF  |  4294967295 |
|      44 | 0x124F5     |       74997 |
|      45 | 0x4D48E     |      316558 |
|      46 | 0x002F      |          47 |
|      47 | 0x0BF1      |        3057 |
|      48 | 0x00C8      |         200 |
|      49 | 0x007F      |         127 |
|      50 | 0x0078      |         120 |
|      51 | 0x003C      |          60 |
|      52 | 0x001E      |          30 |
|      53 | 0x0391      |         913 |
|      54 | 0x00E1      |         225 |
|      55 | 0x1E80      |        7808 |
|      56 | 0x1E81      |        7809 |
|      57 | 0x1E82      |        7810 |
|      58 | 0x0588      |        1416 |
|      59 | 0x1E83      |        7811 |
|      60 | 0x04F7      |        1271 |
|      61 | 0x1E84      |        7812 |
|      62 | 0x0589      |        1417 |
|      63 | 0x1E85      |        7813 |
|      64 | 0x1E86      |        7814 |
|      65 | 0x1E87      |        7815 |
|      66 | 0x0587      |        1415 |
|      67 | 0x1E88      |        7816 |
|      68 | 0x04EE      |        1262 |
|      69 | 0x0001      |           1 |
|      70 | 0x005A      |          90 |
|      71 | 0x1E89      |        7817 |
|      72 | 0x1E8A      |        7818 |
|      73 | 0x00B4      |         180 |
|      74 | 0x1E8B      |        7819 |
|      75 | 0x1E8C      |        7820 |
|      76 | 0x1E8D      |        7821 |
|      77 | 0x1E8E      |        7822 |
|      78 | 0xFFFB184C  |  4294645836 |
|      79 | 0x6A032     |      434226 |
|      80 | 0x0057      |          87 |
|      81 | 0x02C4      |         708 |
|      82 | 0xFFFB1F69  |  4294647657 |
|      83 | 0x69ED4     |      433876 |
|      84 | 0x0069      |         105 |
|      85 | 0x02C3      |         707 |
|      86 | 0xFFFB1AE1  |  4294646497 |
|      87 | 0x6ADF4     |      437748 |
|      88 | 0x02C6      |         710 |
|      89 | 0xFFFB2185  |  4294648197 |
|      90 | 0x6AB3D     |      437053 |
|      91 | 0x0267      |         615 |
|      92 | 0xFFFB14AF  |  4294644911 |
|      93 | 0x6AD5D     |      437597 |
|      94 | 0x01F6      |         502 |
|      95 | 0x1E8F      |        7823 |
|      96 | 0x1E90      |        7824 |
|      97 | 0x1E91      |        7825 |
|      98 | 0x0065      |         101 |
|      99 | 0x00D7      |         215 |
|     100 | 0x10721     |       67361 |
|     101 | 0x4FDAD     |      327085 |
|     102 | 0x0141      |         321 |
|     103 | 0x0CE9      |        3305 |
|     104 | 0x120C4     |       73924 |
|     105 | 0x533C6     |      340934 |
|     106 | 0x036C      |         876 |
|     107 | 0x04C5      |        1221 |
|     108 | 0xF44A      |       62538 |
|     109 | 0x51969     |      334185 |
|     110 | 0x00DC      |         220 |
|     111 | 0x0D9F      |        3487 |
|     112 | 0x12937     |       76087 |
|     113 | 0x51ADE     |      334558 |
|     114 | 0x0286      |         646 |
|     115 | 0x0761      |        1889 |
|     116 | 0x11DBC     |       73148 |
|     117 | 0x52060     |      335968 |
|     118 | 0x03A6      |         934 |
|     119 | 0x128FD     |       76029 |
|     120 | 0x51EC6     |      335558 |
|     121 | 0x02ED      |         749 |
|     122 | 0x0D88      |        3464 |
|     123 | 0x0514      |        1300 |
|     124 | 0x1E92      |        7826 |
|     125 | 0x1E93      |        7827 |
|     126 | 0x1E94      |        7828 |
|     127 | 0xF24B      |       62027 |
|     128 | 0x4FE7E     |      327294 |
|     129 | 0x0227      |         551 |
|     130 | 0x1E95      |        7829 |
|     131 | 0x1E96      |        7830 |
|     132 | 0x1E97      |        7831 |
|     133 | 0x1E98      |        7832 |
|     134 | 0x1E99      |        7833 |
|     135 | 0x00D9      |         217 |
|     136 | 0x1E9A      |        7834 |
|     137 | 0x1126F     |       70255 |
|     138 | 0x52A59     |      338521 |
|     139 | 0x03E7      |         999 |
|     140 | 0x0319      |         793 |
|     141 | 0x1E9B      |        7835 |
|     142 | 0x1E9D      |        7837 |
|     143 | 0x1E9E      |        7838 |
|     144 | 0x1E9F      |        7839 |
|     145 | 0x1EA0      |        7840 |
|     146 | 0x1EA1      |        7841 |
|     147 | 0x1EA2      |        7842 |
|     148 | 0x1EA3      |        7843 |
|     149 | 0x119B8     |       72120 |
|     150 | 0x51C91     |      334993 |
|     151 | 0x0360      |         864 |
|     152 | 0x0C3D      |        3133 |
|     153 | 0x1EA4      |        7844 |
|     154 | 0x1EA5      |        7845 |
|     155 | 0x1EA6      |        7846 |
|     156 | 0x000A      |          10 |
|     157 | 0x109AF     |       68015 |
|     158 | 0x502CD     |      328397 |
|     159 | 0x0D21      |        3361 |
|     160 | 0x12F9E     |       77726 |
|     161 | 0x51B65     |      334693 |
|     162 | 0x0299      |         665 |
|     163 | 0x0DA4      |        3492 |
|     164 | 0x1244A     |       74826 |
|     165 | 0x51E9D     |      335517 |
|     166 | 0x0325      |         805 |
|     167 | 0x121C9     |       74185 |
|     168 | 0x50DBA     |      331194 |
|     169 | 0x01C6      |         454 |
|     170 | 0x11323     |       70435 |
|     171 | 0x50F63     |      331619 |
|     172 | 0x0111      |         273 |
|     173 | 0x1EA7      |        7847 |
|     174 | 0x0C5F      |        3167 |
|     175 | 0x12A06     |       76294 |
|     176 | 0x517C0     |      333760 |
|     177 | 0x022C      |         556 |
|     178 | 0x05EE      |        1518 |
|     179 | 0x11E14     |       73236 |
|     180 | 0x51664     |      333412 |
|     181 | 0x027F      |         639 |
|     182 | 0x0304      |         772 |
|     183 | 0x1EA8      |        7848 |
|     184 | 0x1EA9      |        7849 |
|     185 | 0x1EAA      |        7850 |
|     186 | 0x1EAB      |        7851 |
|     187 | 0x1EAC      |        7852 |
|     188 | 0x1184E     |       71758 |
|     189 | 0x43190     |      274832 |
|     190 | 0x014F      |         335 |
|     191 | 0x115C1     |       71105 |
|     192 | 0x41CCD     |      269517 |
|     193 | 0x007E      |         126 |
|     194 | 0xFC8F      |       64655 |
|     195 | 0x42474     |      271476 |
|     196 | 0x02B5      |         693 |
|     197 | 0xFACC      |       64204 |
|     198 | 0x408A6     |      264358 |
|     199 | 0x03DD      |         989 |
|     200 | 0x10A90     |       68240 |
|     201 | 0x50861     |      329825 |
|     202 | 0x0063      |          99 |
|     203 | 0x00F1      |         241 |
|     204 | 0x1189D     |       71837 |
|     205 | 0x50E59     |      331353 |
|     206 | 0x01B0      |         432 |
|     207 | 0x02D7      |         727 |
|     208 | 0x10E3D     |       69181 |
|     209 | 0x50E14     |      331284 |
|     210 | 0x0042      |          66 |
|     211 | 0x00F3      |         243 |
|     212 | 0x1EAD      |        7853 |
|     213 | 0x1EAE      |        7854 |
|     214 | 0x10C78     |       68728 |
|     215 | 0x509C2     |      330178 |
|     216 | 0x0070      |         112 |
|     217 | 0x013A      |         314 |
|     218 | 0x115F0     |       71152 |
|     219 | 0x50EB5     |      331445 |
|     220 | 0x0DCC      |        3532 |
|     221 | 0x11072     |       69746 |
|     222 | 0x50E90     |      331408 |
|     223 | 0x00AE      |         174 |
|     224 | 0x01FB      |         507 |
|     225 | 0x11469     |       70761 |
|     226 | 0x501EA     |      328170 |
|     227 | 0x00EE      |         238 |
|     228 | 0x11F7A     |       73594 |
|     229 | 0x4F48A     |      324746 |
|     230 | 0x014A      |         330 |
|     231 | 0x091C      |        2332 |
|     232 | 0x1289A     |       75930 |
|     233 | 0x4F204     |      324100 |
|     234 | 0x00F4      |         244 |
|     235 | 0x0AF4      |        2804 |
|     236 | 0x11D05     |       72965 |
|     237 | 0x4E2EF     |      320239 |
|     238 | 0x0095      |         149 |
|     239 | 0x0C0B      |        3083 |
|     240 | 0x12B15     |       76565 |
|     241 | 0x5012B     |      327979 |
|     242 | 0x0198      |         408 |
|     243 | 0x0D09      |        3337 |
|     244 | 0x1EAF      |        7855 |
|     245 | 0x1EB0      |        7856 |
|     246 | 0x114FB     |       70907 |
|     247 | 0x50785     |      329605 |
|     248 | 0x0098      |         152 |
|     249 | 0x0537      |        1335 |
|     250 | 0x1EB1      |        7857 |
|     251 | 0x1EB2      |        7858 |
|     252 | 0x0014      |          20 |
|     253 | 0x1EB3      |        7859 |
|     254 | 0x1EB4      |        7860 |
|     255 | 0x1EB5      |        7861 |
|     256 | 0x1EB6      |        7862 |
|     257 | 0x1EB7      |        7863 |
|     258 | 0x1EB8      |        7864 |
|     259 | 0x00FB      |         251 |
|     260 | 0xFE7C      |       65148 |
|     261 | 0x4F8FF     |      325887 |
|     262 | 0x0219      |         537 |
|     263 | 0x06BF      |        1727 |
|     264 | 0xF63C      |       63036 |
|     265 | 0x4F2A2     |      324258 |
|     266 | 0x0329      |         809 |
|     267 | 0x07C4      |        1988 |
|     268 | 0xFA75      |       64117 |
|     269 | 0x4EECF     |      323279 |
|     270 | 0x0311      |         785 |
|     271 | 0xF400      |       62464 |
|     272 | 0x4F809     |      325641 |
|     273 | 0xDD34      |       56628 |
|     274 | 0x500F1     |      327921 |
|     275 | 0x02BA      |         698 |
|     276 | 0x0D3F      |        3391 |
|     277 | 0x1EB9      |        7865 |
|     278 | 0x1EBA      |        7866 |
|     279 | 0x1EBB      |        7867 |
|     280 | 0x1EBC      |        7868 |
|     281 | 0x1EBD      |        7869 |
|     282 | 0x1EBE      |        7870 |
|     283 | 0x1EBF      |        7871 |
|     284 | 0x1EC0      |        7872 |
|     285 | 0x1EC1      |        7873 |
|     286 | 0x1EC2      |        7874 |
|     287 | 0x0536      |        1334 |
|     288 | 0x1EC3      |        7875 |
|     289 | 0x1EC4      |        7876 |
|     290 | 0xF93A      |       63802 |
|     291 | 0x51F85     |      335749 |
|     292 | 0x004C      |          76 |
|     293 | 0x1EC5      |        7877 |
|     294 | 0x1EC6      |        7878 |
|     295 | 0x1EC7      |        7879 |
|     296 | 0x1EC8      |        7880 |
|     297 | 0x1EC9      |        7881 |
|     298 | 0x1ECA      |        7882 |
|     299 | 0x1ECB      |        7883 |
|     300 | 0x1ECC      |        7884 |
|     301 | 0x1ECD      |        7885 |
|     302 | 0x3905      |       14597 |
|     303 | 0x4A268     |      303720 |
|     304 | 0x098E      |        2446 |
|     305 | 0x07BD      |        1981 |
|     306 | 0x4224      |       16932 |
|     307 | 0x4A1BC     |      303548 |
|     308 | 0x0ADC      |        2780 |
|     309 | 0x07B6      |        1974 |
|     310 | 0x0064      |         100 |
|     311 | 0x100DE     |       65758 |
|     312 | 0x4F485     |      324741 |
|     313 | 0x0232      |         562 |
|     314 | 0x07BE      |        1982 |
|     315 | 0x1ECE      |        7886 |
|     316 | 0x04F9      |        1273 |
|     317 | 0x0096      |         150 |
|     318 | 0x1ECF      |        7887 |
|     319 | 0xEEC2      |       61122 |
|     320 | 0x4F71F     |      325407 |
|     321 | 0x02F9      |         761 |
|     322 | 0x01BB      |         443 |
|     323 | 0x16E1      |        5857 |
|     324 | 0x47B23     |      293667 |
|     325 | 0x06A6      |        1702 |
|     326 | 0x085C      |        2140 |
|     327 | 0x1ED0      |        7888 |
|     328 | 0x1ED1      |        7889 |
|     329 | 0x00C9      |         201 |

## Events

### Event 65535

#### Metadata

| Field        | Value   |
|--------------|---------|
| Entrypoint   | 0x0000  |
| Data Size    | 1 bytes |
| Instructions | 1       |

```
      00 01 02 03 04 05 06 07  08 09 0A 0B 0C 0D 0E 0F
      -- -- -- -- -- -- -- --  -- -- -- -- -- -- -- --
0000: 00                                                .               
```

#### Opcodes

```
  0: 0x0000 [0x00] END_REQSTACK()
```

### Event 200

#### Metadata

| Field        | Value      |
|--------------|------------|
| Entrypoint   | 0x0001     |
| Data Size    | 3266 bytes |
| Instructions | 363        |

```
      00 01 02 03 04 05 06 07  08 09 0A 0B 0C 0D 0E 0F
      -- -- -- -- -- -- -- --  -- -- -- -- -- -- -- --
0000:    42 46 01 1A 76 2C 38  00 80 92 01 54 23 05 01   BF..v,8....T#..
0010: 92 01 53 23 05 01 92 01  56 23 05 01 92 01 55 23  ..S#....V#....U#
0020: 05 01 92 01 62 23 05 01  92 01 63 23 05 01 92 01  ....b#....c#....
0030: 64 23 05 01 94 01 54 23  05 01 94 01 53 23 05 01  d#....T#....S#..
0040: 94 01 56 23 05 01 94 01  55 23 05 01 94 01 62 23  ..V#....U#....b#
0050: 05 01 94 01 63 23 05 01  94 01 64 23 05 01 BA F0  ....c#....d#....
0060: FF FF 7F 01 80 02 80 03  80 04 80 BA 56 23 05 01  ............V#..
0070: 05 80 06 80 07 80 08 80  BA 55 23 05 01 05 80 06  .........U#.....
0080: 80 07 80 08 80 BA 53 23  05 01 09 80 0A 80 0B 80  ......S#........
0090: 0C 80 BA 62 23 05 01 0D  80 0E 80 0F 80 0C 80 BA  ...b#...........
00A0: 63 23 05 01 10 80 11 80  12 80 0C 80 BA 64 23 05  c#...........d#.
00B0: 01 13 80 14 80 15 80 16  80 4E 00 F0 FF FF 7F 4E  .........N.....N
00C0: 00 54 23 05 01 4E 00 53  23 05 01 4E 00 56 23 05  .T#..N.S#..N.V#.
00D0: 01 4E 00 55 23 05 01 4E  00 62 23 05 01 4E 00 63  .N.U#..N.b#..N.c
00E0: 23 05 01 4E 00 64 23 05  01 80 F0 FF FF 7F 80 54  #..N.d#........T
00F0: 23 05 01 80 53 23 05 01  80 56 23 05 01 80 55 23  #...S#...V#...U#
0100: 05 01 80 62 23 05 01 80  63 23 05 01 80 64 23 05  ...b#...c#...d#.
0110: 01 81 00 62 23 05 01 7C  00 62 23 05 01 81 00 63  ...b#..|.b#....c
0120: 23 05 01 7C 00 63 23 05  01 81 00 64 23 05 01 7C  #..|.c#....d#..|
0130: 00 64 23 05 01 5B 17 80  62 23 05 01 62 23 05 01  .d#..[..b#..b#..
0140: 66 67 30 30 5B 17 80 63  23 05 01 63 23 05 01 66  fg00[..c#..c#..f
0150: 69 30 30 5B 17 80 64 23  05 01 64 23 05 01 66 66  i00[..d#..d#..ff
0160: 30 30 27 0F F0 FF FF 7F  0E 45 18 80 F8 FF FF 7F  00'......E......
0170: F8 FF FF 7F 73 30 39 35  19 80 1A 97 2C 55 18 80  ....s095....,U..
0180: F8 FF FF 7F F8 FF FF 7F  73 30 39 35 27 0F 53 23  ........s095'.S#
0190: 05 01 03 1C 1A 80 27 0F  62 23 05 01 06 1C 1A 80  ......'.b#......
01A0: 27 0F 63 23 05 01 06 1C  1A 80 27 0F 64 23 05 01  '.c#......'.d#..
01B0: 06 45 18 80 53 23 05 01  53 23 05 01 73 30 39 36  .E..S#..S#..s096
01C0: 19 80 55 18 80 53 23 05  01 53 23 05 01 73 30 39  ..U..S#..S#..s09
01D0: 36 2A 0F 53 23 05 01 7B  53 23 05 01 2A 0F 62 23  6*.S#..{S#..*.b#
01E0: 05 01 2A 0F 63 23 05 01  2A 0F 64 23 05 01 4A 62  ..*.c#..*.d#..Jb
01F0: 23 05 01 53 23 05 01 4A  63 23 05 01 53 23 05 01  #..S#..Jc#..S#..
0200: 4A 64 23 05 01 F0 FF FF  7F 7B 62 23 05 01 7B 63  Jd#......{b#..{c
0210: 23 05 01 7B 64 23 05 01  45 18 80 F8 FF FF 7F F8  #..{d#..E.......
0220: FF FF 7F 73 30 39 37 19  80 7C 01 53 23 05 01 5B  ...s097..|.S#..[
0230: 1B 80 53 23 05 01 53 23  05 01 74 6C 73 30 2B 53  ..S#..S#..tls0+S
0240: 23 05 01 1C 80 23 55 18  80 F8 FF FF 7F F8 FF FF  #....#U.........
0250: 7F 73 30 39 37 5B 1D 80  62 23 05 01 62 23 05 01  .s097[..b#..b#..
0260: 73 74 64 61 5B 1D 80 63  23 05 01 63 23 05 01 73  stda[..c#..c#..s
0270: 74 64 62 5B 1D 80 64 23  05 01 64 23 05 01 73 74  tdb[..d#..d#..st
0280: 64 63 45 18 80 F8 FF FF  7F F8 FF FF 7F 73 30 39  dcE..........s09
0290: 38 19 80 5B 1B 80 53 23  05 01 53 23 05 01 74 6C  8..[..S#..S#..tl
02A0: 73 31 2B 53 23 05 01 1E  80 23 2B 53 23 05 01 1F  s1+S#....#+S#...
02B0: 80 23 4B 53 23 05 01 0C  80 45 18 80 53 23 05 01  .#KS#....E..S#..
02C0: 53 23 05 01 68 72 6D 6B  19 80 52 18 80 F8 FF FF  S#..hrmk..R.....
02D0: 7F F8 FF FF 7F 73 30 39  38 45 18 80 F8 FF FF 7F  .....s098E......
02E0: F8 FF FF 7F 73 31 30 30  19 80 6F 76 53 23 05 01  ....s100..ovS#..
02F0: 2B 53 23 05 01 20 80 23  55 18 80 F8 FF FF 7F F8  +S#.. .#U.......
0300: FF FF 7F 73 31 30 30 45  18 80 F8 FF FF 7F F8 FF  ...s100E........
0310: FF 7F 73 31 32 37 19 80  81 01 53 23 05 01 7C 01  ..s127....S#..|.
0320: 53 23 05 01 5B 17 80 53  23 05 01 53 23 05 01 66  S#..[..S#..S#..f
0330: 66 30 30 55 18 80 F8 FF  FF 7F F8 FF FF 7F 73 31  f00U..........s1
0340: 32 37 45 18 80 F8 FF FF  7F F8 FF FF 7F 73 31 30  27E..........s10
0350: 32 19 80 5B 17 80 53 23  05 01 53 23 05 01 66 66  2..[..S#..S#..ff
0360: 30 31 2B 53 23 05 01 21  80 23 5B 17 80 53 23 05  01+S#..!.#[..S#.
0370: 01 53 23 05 01 66 66 30  30 52 18 80 F8 FF FF 7F  .S#..ff00R......
0380: F8 FF FF 7F 73 31 30 32  45 18 80 F8 FF FF 7F F8  ....s102E.......
0390: FF FF 7F 73 31 30 33 19  80 5B 17 80 53 23 05 01  ...s103..[..S#..
03A0: 53 23 05 01 66 63 30 31  2B 53 23 05 01 22 80 23  S#..fc01+S#..".#
03B0: 5B 17 80 53 23 05 01 53  23 05 01 66 63 30 30 55  [..S#..S#..fc00U
03C0: 18 80 F8 FF FF 7F F8 FF  FF 7F 73 31 30 33 1A 76  ..........s103.v
03D0: 2C 5D 19 80 23 80 5C 00  24 80 5C 01 24 80 9A BA  ,]..#.\.$.\.$...
03E0: 54 23 05 01 25 80 26 80  27 80 28 80 BA 56 23 05  T#..%.&.'.(..V#.
03F0: 01 29 80 2A 80 2B 80 28  80 BA 55 23 05 01 2C 80  .).*.+.(..U#..,.
0400: 2D 80 2E 80 2F 80 4A 54  23 05 01 56 23 05 01 4A  -.../.JT#..V#..J
0410: 56 23 05 01 54 23 05 01  4A 55 23 05 01 54 23 05  V#..T#..JU#..T#.
0420: 01 7B 54 23 05 01 7B 56  23 05 01 7B 55 23 05 01  .{T#..{V#..{U#..
0430: 4E 00 54 23 05 01 45 18  80 F8 FF FF 7F F8 FF FF  N.T#..E.........
0440: 7F 73 31 30 34 19 80 45  30 80 F8 FF FF 7F F8 FF  .s104..E0.......
0450: FF 7F 66 64 69 32 19 80  27 0F 54 23 05 01 0A 2A  ..fdi2..'.T#...*
0460: 0F 54 23 05 01 52 18 80  F8 FF FF 7F F8 FF FF 7F  .T#..R..........
0470: 73 31 30 34 45 18 80 F8  FF FF 7F F8 FF FF 7F 73  s104E..........s
0480: 31 32 39 19 80 27 0F 56  23 05 01 07 27 0F 55 23  129..'.V#...'.U#
0490: 05 01 08 4E 01 54 23 05  01 9F 31 80 F8 FF FF 7F  ...N.T#...1.....
04A0: F8 FF FF 7F 73 74 72 30  19 80 2A 0F 56 23 05 01  ....str0..*.V#..
04B0: 2A 0F 55 23 05 01 4E 00  54 23 05 01 52 18 80 F8  *.U#..N.T#..R...
04C0: FF FF 7F F8 FF FF 7F 73  31 32 39 27 0C 54 23 05  .......s129'.T#.
04D0: 01 06 45 18 80 F8 FF FF  7F F8 FF FF 7F 73 31 33  ..E..........s13
04E0: 30 19 80 27 0C 56 23 05  01 05 27 0C 55 23 05 01  0..'.V#...'.U#..
04F0: 06 79 00 56 23 05 01 54  23 05 01 79 00 55 23 05  .y.V#..T#..y.U#.
0500: 01 54 23 05 01 1C 32 80  9F 31 80 F8 FF FF 7F F8  .T#...2..1......
0510: FF FF 7F 6B 69 6C 6C 19  80 52 18 80 F8 FF FF 7F  ...kill..R......
0520: F8 FF FF 7F 73 31 33 30  45 18 80 F8 FF FF 7F F8  ....s130E.......
0530: FF FF 7F 73 31 30 35 19  80 1C 33 80 27 0B 56 23  ...s105...3.'.V#
0540: 05 01 06 1C 34 80 27 0B  55 23 05 01 07 2A 0F 54  ....4.'.U#...*.T
0550: 23 05 01 4B 54 23 05 01  35 80 55 18 80 F8 FF FF  #..KT#..5.U.....
0560: 7F F8 FF FF 7F 73 31 30  35 45 18 80 F8 FF FF 7F  .....s105E......
0570: F8 FF FF 7F 73 31 30 37  19 80 2A 0F 55 23 05 01  ....s107..*.U#..
0580: 2A 0F 56 23 05 01 4A 56  23 05 01 54 23 05 01 4A  *.V#..JV#..T#..J
0590: 55 23 05 01 54 23 05 01  7B 56 23 05 01 7B 55 23  U#..T#..{V#..{U#
05A0: 05 01 5B 36 80 56 23 05  01 56 23 05 01 74 6C 62  ..[6.V#..V#..tlb
05B0: 30 2B 56 23 05 01 37 80  23 5B 36 80 56 23 05 01  0+V#..7.#[6.V#..
05C0: 56 23 05 01 64 65 66 30  55 18 80 F8 FF FF 7F F8  V#..def0U.......
05D0: FF FF 7F 73 31 30 37 45  18 80 F8 FF FF 7F F8 FF  ...s107E........
05E0: FF 7F 73 30 30 31 19 80  5B 1B 80 54 23 05 01 54  ..s001..[..T#..T
05F0: 23 05 01 74 6C 73 30 2B  54 23 05 01 38 80 23 5B  #..tls0+T#..8.#[
0600: 1B 80 54 23 05 01 54 23  05 01 74 6C 73 31 52 18  ..T#..T#..tls1R.
0610: 80 F8 FF FF 7F F8 FF FF  7F 73 30 30 31 45 18 80  .........s001E..
0620: F8 FF FF 7F F8 FF FF 7F  73 30 30 32 19 80 5B 36  ........s002..[6
0630: 80 56 23 05 01 56 23 05  01 74 6C 62 30 2B 56 23  .V#..V#..tlb0+V#
0640: 05 01 39 80 23 5B 36 80  56 23 05 01 56 23 05 01  ..9.#[6.V#..V#..
0650: 64 65 66 30 52 18 80 F8  FF FF 7F F8 FF FF 7F 73  def0R..........s
0660: 30 30 32 45 18 80 F8 FF  FF 7F F8 FF FF 7F 73 30  002E..........s0
0670: 30 34 19 80 5B 3A 80 56  23 05 01 56 23 05 01 6C  04..[:.V#..V#..l
0680: 6B 6C 30 1C 33 80 5B 3A  80 56 23 05 01 56 23 05  kl0.3.[:.V#..V#.
0690: 01 6C 6B 6C 74 2B 56 23  05 01 3B 80 23 52 18 80  .lklt+V#..;.#R..
06A0: F8 FF FF 7F F8 FF FF 7F  73 30 30 34 45 18 80 F8  ........s004E...
06B0: FF FF 7F F8 FF FF 7F 73  30 30 33 19 80 5B 3C 80  .......s003..[<.
06C0: 54 23 05 01 54 23 05 01  70 76 30 30 5B 3A 80 55  T#..T#..pv00[:.U
06D0: 23 05 01 55 23 05 01 6C  6B 72 30 1C 33 80 5B 3A  #..U#..lkr0.3.[:
06E0: 80 55 23 05 01 55 23 05  01 6C 6B 72 74 2B 55 23  .U#..U#..lkrt+U#
06F0: 05 01 3D 80 23 5B 3E 80  56 23 05 01 56 23 05 01  ..=.#[>.V#..V#..
0700: 6C 6B 6C 31 52 18 80 F8  FF FF 7F F8 FF FF 7F 73  lkl1R..........s
0710: 30 30 33 45 18 80 F8 FF  FF 7F F8 FF FF 7F 73 30  003E..........s0
0720: 31 35 19 80 1C 33 80 5B  36 80 56 23 05 01 56 23  15...3.[6.V#..V#
0730: 05 01 74 6C 62 30 2B 56  23 05 01 3F 80 23 5B 36  ..tlb0+V#..?.#[6
0740: 80 56 23 05 01 56 23 05  01 64 65 66 30 52 18 80  .V#..V#..def0R..
0750: F8 FF FF 7F F8 FF FF 7F  73 30 31 35 45 18 80 F8  ........s015E...
0760: FF FF 7F F8 FF FF 7F 73  30 30 35 19 80 5B 3E 80  .......s005..[>.
0770: 55 23 05 01 55 23 05 01  6C 6B 72 31 5B 36 80 56  U#..U#..lkr1[6.V
0780: 23 05 01 56 23 05 01 74  6C 62 30 2B 56 23 05 01  #..V#..tlb0+V#..
0790: 40 80 23 5B 36 80 56 23  05 01 56 23 05 01 74 6C  @.#[6.V#..V#..tl
07A0: 62 30 52 18 80 F8 FF FF  7F F8 FF FF 7F 73 30 30  b0R..........s00
07B0: 35 45 18 80 F8 FF FF 7F  F8 FF FF 7F 73 30 30 36  5E..........s006
07C0: 19 80 5B 36 80 56 23 05  01 56 23 05 01 61 64 61  ..[6.V#..V#..ada
07D0: 30 29 0F 55 23 05 01 02  7B 55 23 05 01 4A 55 23  0).U#...{U#..JU#
07E0: 05 01 56 23 05 01 2B 55  23 05 01 41 80 23 52 18  ..V#..+U#..A.#R.
07F0: 80 F8 FF FF 7F F8 FF FF  7F 73 30 30 36 45 18 80  .........s006E..
0800: F8 FF FF 7F F8 FF FF 7F  73 30 30 37 19 80 4A 55  ........s007..JU
0810: 23 05 01 54 23 05 01 7B  55 23 05 01 5B 42 80 56  #..T#..{U#..[B.V
0820: 23 05 01 56 23 05 01 68  6F 75 30 2B 56 23 05 01  #..V#..hou0+V#..
0830: 43 80 23 55 18 80 F8 FF  FF 7F F8 FF FF 7F 73 30  C.#U..........s0
0840: 30 37 5B 44 80 55 23 05  01 55 23 05 01 70 76 61  07[D.U#..U#..pva
0850: 30 1C 45 80 45 18 80 F8  FF FF 7F F8 FF FF 7F 73  0.E.E..........s
0860: 30 31 36 19 80 5B 36 80  56 23 05 01 56 23 05 01  016..[6.V#..V#..
0870: 68 6F 75 31 1C 46 80 5B  42 80 56 23 05 01 56 23  hou1.F.[B.V#..V#
0880: 05 01 74 6C 61 30 2B 56  23 05 01 47 80 23 5B 36  ..tla0+V#..G.#[6
0890: 80 56 23 05 01 56 23 05  01 74 6C 62 31 52 18 80  .V#..V#..tlb1R..
08A0: F8 FF FF 7F F8 FF FF 7F  73 30 31 36 45 18 80 F8  ........s016E...
08B0: FF FF 7F F8 FF FF 7F 73  30 31 34 19 80 6B 69 64  .......s014..kid
08C0: 6C 30 56 23 05 01 2B 55  23 05 01 48 80 23 81 00  l0V#..+U#..H.#..
08D0: 54 23 05 01 7C 00 54 23  05 01 5B 17 80 54 23 05  T#..|.T#..[..T#.
08E0: 01 54 23 05 01 66 69 30  30 7B 54 23 05 01 45 18  .T#..fi00{T#..E.
08F0: 80 F8 FF FF 7F F8 FF FF  7F 73 30 30 39 19 80 5B  .........s009..[
0900: 17 80 54 23 05 01 54 23  05 01 66 69 30 31 5B 3C  ..T#..T#..fi01[<
0910: 80 54 23 05 01 54 23 05  01 70 76 30 31 1C 49 80  .T#..T#..pv01.I.
0920: 2B 54 23 05 01 4A 80 1C  34 80 4A 56 23 05 01 54  +T#..J..4.JV#..T
0930: 23 05 01 6F 76 56 23 05  01 4A 55 23 05 01 54 23  #..ovV#..JU#..T#
0940: 05 01 6F 76 55 23 05 01  7B 56 23 05 01 7B 55 23  ..ovU#..{V#..{U#
0950: 05 01 55 18 80 F8 FF FF  7F F8 FF FF 7F 73 30 30  ..U..........s00
0960: 39 6B 69 64 6C 30 56 23  05 01 2B 54 23 05 01 4B  9kidl0V#..+T#..K
0970: 80 23 45 18 80 F8 FF FF  7F F8 FF FF 7F 73 30 31  .#E..........s01
0980: 32 19 80 55 18 80 F8 FF  FF 7F F8 FF FF 7F 73 30  2..U..........s0
0990: 31 32 45 18 80 F8 FF FF  7F F8 FF FF 7F 73 30 31  12E..........s01
09A0: 30 19 80 5B 36 80 56 23  05 01 56 23 05 01 74 6C  0..[6.V#..V#..tl
09B0: 62 30 5B 17 80 54 23 05  01 54 23 05 01 66 69 30  b0[..T#..T#..fi0
09C0: 30 5B 3C 80 54 23 05 01  54 23 05 01 70 76 6C 31  0[<.T#..T#..pvl1
09D0: 2B 56 23 05 01 4C 80 23  81 01 54 23 05 01 7C 00  +V#..L.#..T#..|.
09E0: 54 23 05 01 52 18 80 F8  FF FF 7F F8 FF FF 7F 73  T#..R..........s
09F0: 30 31 30 45 18 80 F8 FF  FF 7F F8 FF FF 7F 73 30  010E..........s0
0A00: 31 31 19 80 6B 69 64 6C  30 55 23 05 01 2B 56 23  11..kidl0U#..+V#
0A10: 05 01 4D 80 23 5B 36 80  56 23 05 01 56 23 05 01  ..M.#[6.V#..V#..
0A20: 64 65 66 30 1A 76 2C 52  18 80 F8 FF FF 7F F8 FF  def0.v,R........
0A30: FF 7F 73 30 31 31 BA F0  FF FF 7F 4E 80 4F 80 50  ..s011.....N.O.P
0A40: 80 51 80 BA 53 23 05 01  52 80 53 80 54 80 55 80  .Q..S#..R.S.T.U.
0A50: BA 62 23 05 01 56 80 57  80 19 80 58 80 BA 63 23  .b#..V.W...X..c#
0A60: 05 01 59 80 5A 80 19 80  5B 80 BA 64 23 05 01 5C  ..Y.Z...[..d#..\
0A70: 80 5D 80 19 80 5E 80 4A  F0 FF FF 7F 62 23 05 01  .]...^.J....b#..
0A80: 4A 53 23 05 01 62 23 05  01 4A 62 23 05 01 53 23  JS#..b#..Jb#..S#
0A90: 05 01 4A 63 23 05 01 53  23 05 01 4A 64 23 05 01  ..Jc#..S#..Jd#..
0AA0: 53 23 05 01 7B 62 23 05  01 7B 63 23 05 01 7B 64  S#..{b#..{c#..{d
0AB0: 23 05 01 7B 53 23 05 01  6F 76 62 23 05 01 6F 76  #..{S#..ovb#..ov
0AC0: 63 23 05 01 6F 76 64 23  05 01 5B 17 80 62 23 05  c#..ovd#..[..b#.
0AD0: 01 62 23 05 01 66 67 30  30 5B 17 80 63 23 05 01  .b#..fg00[..c#..
0AE0: 63 23 05 01 66 69 30 30  5B 17 80 64 23 05 01 64  c#..fi00[..d#..d
0AF0: 23 05 01 66 66 30 30 4E  00 62 23 05 01 4E 00 63  #..ff00N.b#..N.c
0B00: 23 05 01 4E 00 64 23 05  01 1C 32 80 45 30 80 F8  #..N.d#...2.E0..
0B10: FF FF 7F F8 FF FF 7F 66  64 69 32 19 80 45 18 80  .......fdi2..E..
0B20: F8 FF FF 7F F8 FF FF 7F  73 31 30 39 19 80 81 01  ........s109....
0B30: 53 23 05 01 7C 01 53 23  05 01 5B 1B 80 53 23 05  S#..|.S#..[..S#.
0B40: 01 53 23 05 01 74 6C 62  30 2B 53 23 05 01 5F 80  .S#..tlb0+S#.._.
0B50: 23 5B 1B 80 53 23 05 01  53 23 05 01 74 6C 62 31  #[..S#..S#..tlb1
0B60: 81 00 53 23 05 01 7C 00  53 23 05 01 52 18 80 F8  ..S#..|.S#..R...
0B70: FF FF 7F F8 FF FF 7F 73  31 30 39 45 18 80 F8 FF  .......s109E....
0B80: FF 7F F8 FF FF 7F 73 31  31 30 19 80 27 0F 64 23  ......s110..'.d#
0B90: 05 01 07 1C 34 80 27 0F  63 23 05 01 07 1C 34 80  ....4.'.c#....4.
0BA0: 27 0F 62 23 05 01 07 55  18 80 F8 FF FF 7F F8 FF  '.b#...U........
0BB0: FF 7F 73 31 31 30 4A 53  23 05 01 F0 FF FF 7F 4A  ..s110JS#......J
0BC0: F0 FF FF 7F 53 23 05 01  45 18 80 F8 FF FF 7F F8  ....S#..E.......
0BD0: FF FF 7F 73 31 31 31 19  80 7B 53 23 05 01 6F 76  ...s111..{S#..ov
0BE0: 53 23 05 01 5B 17 80 53  23 05 01 53 23 05 01 66  S#..[..S#..S#..f
0BF0: 63 30 31 81 01 53 23 05  01 7C 01 53 23 05 01 5B  c01..S#..|.S#..[
0C00: 1B 80 53 23 05 01 53 23  05 01 74 6C 61 30 2B 53  ..S#..S#..tla0+S
0C10: 23 05 01 60 80 23 5B 1B  80 53 23 05 01 53 23 05  #..`.#[..S#..S#.
0C20: 01 74 6C 61 31 81 00 53  23 05 01 7C 00 53 23 05  .tla1..S#..|.S#.
0C30: 01 5B 17 80 53 23 05 01  53 23 05 01 66 63 30 30  .[..S#..S#..fc00
0C40: 52 18 80 F8 FF FF 7F F8  FF FF 7F 73 31 31 31 45  R..........s111E
0C50: 18 80 F8 FF FF 7F F8 FF  FF 7F 73 31 31 32 19 80  ..........s112..
0C60: 5B 17 80 53 23 05 01 53  23 05 01 66 63 30 31 2B  [..S#..S#..fc01+
0C70: 53 23 05 01 61 80 23 5B  17 80 53 23 05 01 53 23  S#..a.#[..S#..S#
0C80: 05 01 66 63 30 30 1A 76  2C 5D 19 80 23 80 52 18  ..fc00.v,]..#.R.
0C90: 80 F8 FF FF 7F F8 FF FF  7F 73 31 31 32 5C 00 19  .........s112\..
0CA0: 80 5C 01 19 80 5C 02 62  80 5C 03 63 80 9A 46 00  .\...\.b.\.c..F.
0CB0: 45 30 80 F0 FF FF 7F F0  FF FF 7F 66 64 69 32 19  E0.........fdi2.
0CC0: 80 21 00                                          .!.             
```

#### Opcodes

```
  0: 0x0001 [0x42] SET_CLI_EVENT_CANCEL_DATA()
  1: 0x0002 [0x46] CAMERA_CONTROL: Disable user control
  2: 0x0004 [0x1A] CALL_SUBROUTINE(address=0x2C76)
  3: 0x0007 [0x38] SET_CLIENT_EVENT_MODE(mode=19*)
  4: 0x000A [0x92] Excenmille (ID: 17113940/0x01052354)->Render.Flags3 ^= 0x01
  5: 0x0010 [0x92] Rahal (ID: 17113939/0x01052353)->Render.Flags3 ^= 0x01
  6: 0x0016 [0x92] Zogbog (ID: 17113942/0x01052356)->Render.Flags3 ^= 0x01
  7: 0x001C [0x92] Fingerfilcher Dradzad (ID: 17113941/0x01052355)->Render.Flags3 ^= 0x01
  8: 0x0022 [0x92] testA (ID: 17113954/0x01052362)->Render.Flags3 ^= 0x01
  9: 0x0028 [0x92] testB (ID: 17113955/0x01052363)->Render.Flags3 ^= 0x01
 10: 0x002E [0x92] testC (ID: 17113956/0x01052364)->Render.Flags3 ^= 0x01
 11: 0x0034 [0x94] Excenmille (ID: 17113940/0x01052354)->Render.Flags3 ^= 0x01
 12: 0x003A [0x94] Rahal (ID: 17113939/0x01052353)->Render.Flags3 ^= 0x01
 13: 0x0040 [0x94] Zogbog (ID: 17113942/0x01052356)->Render.Flags3 ^= 0x01
 14: 0x0046 [0x94] Fingerfilcher Dradzad (ID: 17113941/0x01052355)->Render.Flags3 ^= 0x01
 15: 0x004C [0x94] testA (ID: 17113954/0x01052362)->Render.Flags3 ^= 0x01
 16: 0x0052 [0x94] testB (ID: 17113955/0x01052363)->Render.Flags3 ^= 0x01
 17: 0x0058 [0x94] testC (ID: 17113956/0x01052364)->Render.Flags3 ^= 0x01
 18: 0x005E [0xBA] SET_ENTITY_POSITION(entity_id=LocalPlayer, pos_x=-325.961*, pos_z=444.632*, pos_y=-0.959*, direction=62.3°*)
 19: 0x006B [0xBA] SET_ENTITY_POSITION(entity_id=Zogbog (ID: 17113942/0x01052356), pos_x=33.882*, pos_z=-56.538*, pos_y=-6.605*, direction=31.6°*)
 20: 0x0078 [0xBA] SET_ENTITY_POSITION(entity_id=Fingerfilcher Dradzad (ID: 17113941/0x01052355), pos_x=33.882*, pos_z=-56.538*, pos_y=-6.605*, direction=31.6°*)
 21: 0x0085 [0xBA] SET_ENTITY_POSITION(entity_id=Rahal (ID: 17113939/0x01052353), pos_x=-319.693*, pos_z=424.317*, pos_y=0.764*, direction=87.9°*)
 22: 0x0092 [0xBA] SET_ENTITY_POSITION(entity_id=testA (ID: 17113954/0x01052362), pos_x=-318.668*, pos_z=422.003*, pos_y=0.899*, direction=87.9°*)
 23: 0x009F [0xBA] SET_ENTITY_POSITION(entity_id=testB (ID: 17113955/0x01052363), pos_x=-320.688*, pos_z=420.315*, pos_y=0.983*, direction=87.9°*)
 24: 0x00AC [0xBA] SET_ENTITY_POSITION(entity_id=testC (ID: 17113956/0x01052364), pos_x=-322.644*, pos_z=420.685*, pos_y=0.964*, direction=88.0°*)
 25: 0x00B9 [0x4E] SET_ENTITY_HIDE_FLAG: Show LocalPlayer
 26: 0x00BF [0x4E] SET_ENTITY_HIDE_FLAG: Show Excenmille (ID: 17113940/0x01052354)
 27: 0x00C5 [0x4E] SET_ENTITY_HIDE_FLAG: Show Rahal (ID: 17113939/0x01052353)
 28: 0x00CB [0x4E] SET_ENTITY_HIDE_FLAG: Show Zogbog (ID: 17113942/0x01052356)
 29: 0x00D1 [0x4E] SET_ENTITY_HIDE_FLAG: Show Fingerfilcher Dradzad (ID: 17113941/0x01052355)
 30: 0x00D7 [0x4E] SET_ENTITY_HIDE_FLAG: Show testA (ID: 17113954/0x01052362)
 31: 0x00DD [0x4E] SET_ENTITY_HIDE_FLAG: Show testB (ID: 17113955/0x01052363)
 32: 0x00E3 [0x4E] SET_ENTITY_HIDE_FLAG: Show testC (ID: 17113956/0x01052364)
 33: 0x00E9 [0x80] LOAD_WAIT(entity=LocalPlayer)
 34: 0x00EE [0x80] LOAD_WAIT(entity=Excenmille (ID: 17113940/0x01052354))
 35: 0x00F3 [0x80] LOAD_WAIT(entity=Rahal (ID: 17113939/0x01052353))
 36: 0x00F8 [0x80] LOAD_WAIT(entity=Zogbog (ID: 17113942/0x01052356))
 37: 0x00FD [0x80] LOAD_WAIT(entity=Fingerfilcher Dradzad (ID: 17113941/0x01052355))
 38: 0x0102 [0x80] LOAD_WAIT(entity=testA (ID: 17113954/0x01052362))
 39: 0x0107 [0x80] LOAD_WAIT(entity=testB (ID: 17113955/0x01052363))
 40: 0x010C [0x80] LOAD_WAIT(entity=testC (ID: 17113956/0x01052364))
 41: 0x0111 [0x81] SET_ENTITY_BLINKING(blink_flag=0x00, entity=testA (ID: 17113954/0x01052362))
 42: 0x0117 [0x7C] testA (ID: 17113954/0x01052362)->Render.Flags2 |= 0x00
 43: 0x011D [0x81] SET_ENTITY_BLINKING(blink_flag=0x00, entity=testB (ID: 17113955/0x01052363))
 44: 0x0123 [0x7C] testB (ID: 17113955/0x01052363)->Render.Flags2 |= 0x00
 45: 0x0129 [0x81] SET_ENTITY_BLINKING(blink_flag=0x00, entity=testC (ID: 17113956/0x01052364))
 46: 0x012F [0x7C] testC (ID: 17113956/0x01052364)->Render.Flags2 |= 0x00
 47: 0x0135 [0x5B] LOAD_EXT_SCHEDULER: Load scheduler "fg00" with entities [testA (ID: 17113954/0x01052362), testA (ID: 17113954/0x01052362)], work=1299*
 48: 0x0144 [0x5B] LOAD_EXT_SCHEDULER: Load scheduler "fi00" with entities [testB (ID: 17113955/0x01052363), testB (ID: 17113955/0x01052363)], work=1299*
 49: 0x0153 [0x5B] LOAD_EXT_SCHEDULER: Load scheduler "ff00" with entities [testC (ID: 17113956/0x01052364), testC (ID: 17113956/0x01052364)], work=1299*
 50: 0x0162 [0x27] REQ_SET(priority=0x0F, entity_id=LocalPlayer, tag_num=0x0E)
 51: 0x0169 [0x45] LOAD_SCHEDULED_TASK: Load scheduler "s095" with entities [EventEntity, EventEntity], work=[352*, 0*]
 52: 0x017A [0x1A] CALL_SUBROUTINE(address=0x2C97)
 53: 0x017D [0x55] WAIT_LOAD_SCHEDULER: Wait for scheduler "s095" with entities [EventEntity, EventEntity], work=352*
 54: 0x018C [0x27] REQ_SET(priority=0x0F, entity_id=Rahal (ID: 17113939/0x01052353), tag_num=0x03)
 55: 0x0193 [0x1C] WAIT(5* ticks)
 56: 0x0196 [0x27] REQ_SET(priority=0x0F, entity_id=testA (ID: 17113954/0x01052362), tag_num=0x06)
 57: 0x019D [0x1C] WAIT(5* ticks)
 58: 0x01A0 [0x27] REQ_SET(priority=0x0F, entity_id=testB (ID: 17113955/0x01052363), tag_num=0x06)
 59: 0x01A7 [0x1C] WAIT(5* ticks)
 60: 0x01AA [0x27] REQ_SET(priority=0x0F, entity_id=testC (ID: 17113956/0x01052364), tag_num=0x06)
 61: 0x01B1 [0x45] LOAD_SCHEDULED_TASK: Load scheduler "s096" with entities [Rahal (ID: 17113939/0x01052353), Rahal (ID: 17113939/0x01052353)], work=[352*, 0*]
 62: 0x01C2 [0x55] WAIT_LOAD_SCHEDULER: Wait for scheduler "s096" with entities [Rahal (ID: 17113939/0x01052353), Rahal (ID: 17113939/0x01052353)], work=352*
 63: 0x01D1 [0x2A] GET_REQ_LEVEL(level=15, entity_id=Rahal (ID: 17113939/0x01052353))
 64: 0x01D7 [0x7B] Rahal (ID: 17113939/0x01052353) stops talking
 65: 0x01DC [0x2A] GET_REQ_LEVEL(level=15, entity_id=testA (ID: 17113954/0x01052362))
 66: 0x01E2 [0x2A] GET_REQ_LEVEL(level=15, entity_id=testB (ID: 17113955/0x01052363))
 67: 0x01E8 [0x2A] GET_REQ_LEVEL(level=15, entity_id=testC (ID: 17113956/0x01052364))
 68: 0x01EE [0x4A] testA (ID: 17113954/0x01052362) looks at Rahal (ID: 17113939/0x01052353)
 69: 0x01F7 [0x4A] testB (ID: 17113955/0x01052363) looks at Rahal (ID: 17113939/0x01052353)
 70: 0x0200 [0x4A] testC (ID: 17113956/0x01052364) looks at LocalPlayer
 71: 0x0209 [0x7B] testA (ID: 17113954/0x01052362) stops talking
 72: 0x020E [0x7B] testB (ID: 17113955/0x01052363) stops talking
 73: 0x0213 [0x7B] testC (ID: 17113956/0x01052364) stops talking
 74: 0x0218 [0x45] LOAD_SCHEDULED_TASK: Load scheduler "s097" with entities [EventEntity, EventEntity], work=[352*, 0*]
 75: 0x0229 [0x7C] Rahal (ID: 17113939/0x01052353)->Render.Flags2 |= 0x01
 76: 0x022F [0x5B] LOAD_EXT_SCHEDULER: Load scheduler "tls0" with entities [Rahal (ID: 17113939/0x01052353), Rahal (ID: 17113939/0x01052353)], work=1272*
 77: 0x023E [0x2B] Rahal (ID: 17113939/0x01052353) [7802*]:
    → "<Player>! The plan has gone awry!"
 78: 0x0245 [0x23] WAIT_FOR_DIALOG_INTERACTION
 79: 0x0246 [0x55] WAIT_LOAD_SCHEDULER: Wait for scheduler "s097" with entities [EventEntity, EventEntity], work=352*
 80: 0x0255 [0x5B] LOAD_EXT_SCHEDULER: Load scheduler "stda" with entities [testA (ID: 17113954/0x01052362), testA (ID: 17113954/0x01052362)], work=1301*
 81: 0x0264 [0x5B] LOAD_EXT_SCHEDULER: Load scheduler "stdb" with entities [testB (ID: 17113955/0x01052363), testB (ID: 17113955/0x01052363)], work=1301*
 82: 0x0273 [0x5B] LOAD_EXT_SCHEDULER: Load scheduler "stdc" with entities [testC (ID: 17113956/0x01052364), testC (ID: 17113956/0x01052364)], work=1301*
 83: 0x0282 [0x45] LOAD_SCHEDULED_TASK: Load scheduler "s098" with entities [EventEntity, EventEntity], work=[352*, 0*]
 84: 0x0293 [0x5B] LOAD_EXT_SCHEDULER: Load scheduler "tls1" with entities [Rahal (ID: 17113939/0x01052353), Rahal (ID: 17113939/0x01052353)], work=1272*
 85: 0x02A2 [0x2B] Rahal (ID: 17113939/0x01052353) [7803*]:
    → "We were trying to reach Batallia Downs through the forest..."
 86: 0x02A9 [0x23] WAIT_FOR_DIALOG_INTERACTION
 87: 0x02AA [0x2B] Rahal (ID: 17113939/0x01052353) [7804*]:
    → "...but were set upon by Orcs..."
 88: 0x02B1 [0x23] WAIT_FOR_DIALOG_INTERACTION
 89: 0x02B2 [0x4B] UPDATE_ENTITY_YAW(entity=Rahal (ID: 17113939/0x01052353), yaw=5.5°*)
 90: 0x02B9 [0x45] LOAD_SCHEDULED_TASK: Load scheduler "hrmk" with entities [Rahal (ID: 17113939/0x01052353), Rahal (ID: 17113939/0x01052353)], work=[352*, 0*]
 91: 0x02CA [0x52] END_LOAD_SCHEDULER: End scheduler "s098" with entities [EventEntity, EventEntity], work=352*
 92: 0x02D9 [0x45] LOAD_SCHEDULED_TASK: Load scheduler "s100" with entities [EventEntity, EventEntity], work=[352*, 0*]
 93: 0x02EA [0x6F] WAIT_FRAME_DELAY: Yield until WaitTime reaches zero
 94: 0x02EB [0x76] CHECK_ENTITY_RENDER_FLAGS: Wait until Rahal (ID: 17113939/0x01052353) Render.Flags0 and Render.Flags3 conditions are met
 95: 0x02F0 [0x2B] Rahal (ID: 17113939/0x01052353) [7805*]:
    → "Eh!?"
 96: 0x02F7 [0x23] WAIT_FOR_DIALOG_INTERACTION
 97: 0x02F8 [0x55] WAIT_LOAD_SCHEDULER: Wait for scheduler "s100" with entities [EventEntity, EventEntity], work=352*
 98: 0x0307 [0x45] LOAD_SCHEDULED_TASK: Load scheduler "s127" with entities [EventEntity, EventEntity], work=[352*, 0*]
 99: 0x0318 [0x81] SET_ENTITY_BLINKING(blink_flag=0x01, entity=Rahal (ID: 17113939/0x01052353))
100: 0x031E [0x7C] Rahal (ID: 17113939/0x01052353)->Render.Flags2 |= 0x01
101: 0x0324 [0x5B] LOAD_EXT_SCHEDULER: Load scheduler "ff00" with entities [Rahal (ID: 17113939/0x01052353), Rahal (ID: 17113939/0x01052353)], work=1299*
102: 0x0333 [0x55] WAIT_LOAD_SCHEDULER: Wait for scheduler "s127" with entities [EventEntity, EventEntity], work=352*
103: 0x0342 [0x45] LOAD_SCHEDULED_TASK: Load scheduler "s102" with entities [EventEntity, EventEntity], work=[352*, 0*]
104: 0x0353 [0x5B] LOAD_EXT_SCHEDULER: Load scheduler "ff01" with entities [Rahal (ID: 17113939/0x01052353), Rahal (ID: 17113939/0x01052353)], work=1299*
105: 0x0362 [0x2B] Rahal (ID: 17113939/0x01052353) [7806*]:
    → "Excenmille!"
106: 0x0369 [0x23] WAIT_FOR_DIALOG_INTERACTION
107: 0x036A [0x5B] LOAD_EXT_SCHEDULER: Load scheduler "ff00" with entities [Rahal (ID: 17113939/0x01052353), Rahal (ID: 17113939/0x01052353)], work=1299*
108: 0x0379 [0x52] END_LOAD_SCHEDULER: End scheduler "s102" with entities [EventEntity, EventEntity], work=352*
109: 0x0388 [0x45] LOAD_SCHEDULED_TASK: Load scheduler "s103" with entities [EventEntity, EventEntity], work=[352*, 0*]
110: 0x0399 [0x5B] LOAD_EXT_SCHEDULER: Load scheduler "fc01" with entities [Rahal (ID: 17113939/0x01052353), Rahal (ID: 17113939/0x01052353)], work=1299*
111: 0x03A8 [0x2B] Rahal (ID: 17113939/0x01052353) [7807*]:
    → "He was right behind us. We must have been separated!"
112: 0x03AF [0x23] WAIT_FOR_DIALOG_INTERACTION
113: 0x03B0 [0x5B] LOAD_EXT_SCHEDULER: Load scheduler "fc00" with entities [Rahal (ID: 17113939/0x01052353), Rahal (ID: 17113939/0x01052353)], work=1299*
114: 0x03BF [0x55] WAIT_LOAD_SCHEDULER: Wait for scheduler "s103" with entities [EventEntity, EventEntity], work=352*
115: 0x03CE [0x1A] CALL_SUBROUTINE(address=0x2C76)
116: 0x03D1 [0x5D] SET_MUSIC_VOLUME(volume=0*, fade_time=240*)
117: 0x03D6 [0x5C] MUSIC_CONTROL: Set Idle (Day) music to song 250*
118: 0x03DA [0x5C] MUSIC_CONTROL: Set Idle (Night) music to song 250*
119: 0x03DE [0x9A] WAIT_MUSIC_SERVER()
120: 0x03DF [0xBA] SET_ENTITY_POSITION(entity_id=Excenmille (ID: 17113940/0x01052354), pos_x=76.735*, pos_z=321.372*, pos_y=0.084*, direction=263.7°*)
121: 0x03EC [0xBA] SET_ENTITY_POSITION(entity_id=Zogbog (ID: 17113942/0x01052356), pos_x=78.166*, pos_z=316.442*, pos_y=-0.001*, direction=263.7°*)
122: 0x03F9 [0xBA] SET_ENTITY_POSITION(entity_id=Fingerfilcher Dradzad (ID: 17113941/0x01052355), pos_x=74.997*, pos_z=316.558*, pos_y=0.047*, direction=268.7°*)
123: 0x0406 [0x4A] Excenmille (ID: 17113940/0x01052354) looks at Zogbog (ID: 17113942/0x01052356)
124: 0x040F [0x4A] Zogbog (ID: 17113942/0x01052356) looks at Excenmille (ID: 17113940/0x01052354)
125: 0x0418 [0x4A] Fingerfilcher Dradzad (ID: 17113941/0x01052355) looks at Excenmille (ID: 17113940/0x01052354)
126: 0x0421 [0x7B] Excenmille (ID: 17113940/0x01052354) stops talking
127: 0x0426 [0x7B] Zogbog (ID: 17113942/0x01052356) stops talking
128: 0x042B [0x7B] Fingerfilcher Dradzad (ID: 17113941/0x01052355) stops talking
129: 0x0430 [0x4E] SET_ENTITY_HIDE_FLAG: Show Excenmille (ID: 17113940/0x01052354)
130: 0x0436 [0x45] LOAD_SCHEDULED_TASK: Load scheduler "s104" with entities [EventEntity, EventEntity], work=[352*, 0*]
131: 0x0447 [0x45] LOAD_SCHEDULED_TASK: Load scheduler "fdi2" with entities [EventEntity, EventEntity], work=[200*, 0*]
132: 0x0458 [0x27] REQ_SET(priority=0x0F, entity_id=Excenmille (ID: 17113940/0x01052354), tag_num=0x0A)
133: 0x045F [0x2A] GET_REQ_LEVEL(level=15, entity_id=Excenmille (ID: 17113940/0x01052354))
134: 0x0465 [0x52] END_LOAD_SCHEDULER: End scheduler "s104" with entities [EventEntity, EventEntity], work=352*
135: 0x0474 [0x45] LOAD_SCHEDULED_TASK: Load scheduler "s129" with entities [EventEntity, EventEntity], work=[352*, 0*]
136: 0x0485 [0x27] REQ_SET(priority=0x0F, entity_id=Zogbog (ID: 17113942/0x01052356), tag_num=0x07)
137: 0x048C [0x27] REQ_SET(priority=0x0F, entity_id=Fingerfilcher Dradzad (ID: 17113941/0x01052355), tag_num=0x08)
138: 0x0493 [0x4E] SET_ENTITY_HIDE_FLAG: Hide Excenmille (ID: 17113940/0x01052354)
139: 0x0499 [0x9F] LOAD_SCHEDULED_TASK_ALT: Load scheduler "str0" with entities [EventEntity, EventEntity], work=[127*, 0*]
140: 0x04AA [0x2A] GET_REQ_LEVEL(level=15, entity_id=Zogbog (ID: 17113942/0x01052356))
141: 0x04B0 [0x2A] GET_REQ_LEVEL(level=15, entity_id=Fingerfilcher Dradzad (ID: 17113941/0x01052355))
142: 0x04B6 [0x4E] SET_ENTITY_HIDE_FLAG: Show Excenmille (ID: 17113940/0x01052354)
143: 0x04BC [0x52] END_LOAD_SCHEDULER: End scheduler "s129" with entities [EventEntity, EventEntity], work=352*
144: 0x04CB [0x27] REQ_SET(priority=0x0C, entity_id=Excenmille (ID: 17113940/0x01052354), tag_num=0x06)
145: 0x04D2 [0x45] LOAD_SCHEDULED_TASK: Load scheduler "s130" with entities [EventEntity, EventEntity], work=[352*, 0*]
146: 0x04E3 [0x27] REQ_SET(priority=0x0C, entity_id=Zogbog (ID: 17113942/0x01052356), tag_num=0x05)
147: 0x04EA [0x27] REQ_SET(priority=0x0C, entity_id=Fingerfilcher Dradzad (ID: 17113941/0x01052355), tag_num=0x06)
148: 0x04F1 [0x79] Zogbog (ID: 17113942/0x01052356) looks at Excenmille (ID: 17113940/0x01052354) (Basic look)
149: 0x04FB [0x79] Fingerfilcher Dradzad (ID: 17113941/0x01052355) looks at Excenmille (ID: 17113940/0x01052354) (Basic look)
150: 0x0505 [0x1C] WAIT(120* ticks)
151: 0x0508 [0x9F] LOAD_SCHEDULED_TASK_ALT: Load scheduler "kill" with entities [EventEntity, EventEntity], work=[127*, 0*]
152: 0x0519 [0x52] END_LOAD_SCHEDULER: End scheduler "s130" with entities [EventEntity, EventEntity], work=352*
153: 0x0528 [0x45] LOAD_SCHEDULED_TASK: Load scheduler "s105" with entities [EventEntity, EventEntity], work=[352*, 0*]
154: 0x0539 [0x1C] WAIT(60* ticks)
155: 0x053C [0x27] REQ_SET(priority=0x0B, entity_id=Zogbog (ID: 17113942/0x01052356), tag_num=0x06)
156: 0x0543 [0x1C] WAIT(30* ticks)
157: 0x0546 [0x27] REQ_SET(priority=0x0B, entity_id=Fingerfilcher Dradzad (ID: 17113941/0x01052355), tag_num=0x07)
158: 0x054D [0x2A] GET_REQ_LEVEL(level=15, entity_id=Excenmille (ID: 17113940/0x01052354))
159: 0x0553 [0x4B] UPDATE_ENTITY_YAW(entity=Excenmille (ID: 17113940/0x01052354), yaw=5.0°*)
160: 0x055A [0x55] WAIT_LOAD_SCHEDULER: Wait for scheduler "s105" with entities [EventEntity, EventEntity], work=352*
161: 0x0569 [0x45] LOAD_SCHEDULED_TASK: Load scheduler "s107" with entities [EventEntity, EventEntity], work=[352*, 0*]
162: 0x057A [0x2A] GET_REQ_LEVEL(level=15, entity_id=Fingerfilcher Dradzad (ID: 17113941/0x01052355))
163: 0x0580 [0x2A] GET_REQ_LEVEL(level=15, entity_id=Zogbog (ID: 17113942/0x01052356))
164: 0x0586 [0x4A] Zogbog (ID: 17113942/0x01052356) looks at Excenmille (ID: 17113940/0x01052354)
165: 0x058F [0x4A] Fingerfilcher Dradzad (ID: 17113941/0x01052355) looks at Excenmille (ID: 17113940/0x01052354)
166: 0x0598 [0x7B] Zogbog (ID: 17113942/0x01052356) stops talking
167: 0x059D [0x7B] Fingerfilcher Dradzad (ID: 17113941/0x01052355) stops talking
168: 0x05A2 [0x5B] LOAD_EXT_SCHEDULER: Load scheduler "tlb0" with entities [Zogbog (ID: 17113942/0x01052356), Zogbog (ID: 17113942/0x01052356)], work=225*
169: 0x05B1 [0x2B] Zogbog (ID: 17113942/0x01052356) [7808*]:
    → "<Pant...pant>... We have you now, little rabbit!"
170: 0x05B8 [0x23] WAIT_FOR_DIALOG_INTERACTION
171: 0x05B9 [0x5B] LOAD_EXT_SCHEDULER: Load scheduler "def0" with entities [Zogbog (ID: 17113942/0x01052356), Zogbog (ID: 17113942/0x01052356)], work=225*
172: 0x05C8 [0x55] WAIT_LOAD_SCHEDULER: Wait for scheduler "s107" with entities [EventEntity, EventEntity], work=352*
173: 0x05D7 [0x45] LOAD_SCHEDULED_TASK: Load scheduler "s001" with entities [EventEntity, EventEntity], work=[352*, 0*]
174: 0x05E8 [0x5B] LOAD_EXT_SCHEDULER: Load scheduler "tls0" with entities [Excenmille (ID: 17113940/0x01052354), Excenmille (ID: 17113940/0x01052354)], work=1272*
175: 0x05F7 [0x2B] Excenmille (ID: 17113940/0x01052354) [7809*]:
    → "Hmph. Wh-who has who!? I shall slay you myself!"
176: 0x05FE [0x23] WAIT_FOR_DIALOG_INTERACTION
177: 0x05FF [0x5B] LOAD_EXT_SCHEDULER: Load scheduler "tls1" with entities [Excenmille (ID: 17113940/0x01052354), Excenmille (ID: 17113940/0x01052354)], work=1272*
178: 0x060E [0x52] END_LOAD_SCHEDULER: End scheduler "s001" with entities [EventEntity, EventEntity], work=352*
179: 0x061D [0x45] LOAD_SCHEDULED_TASK: Load scheduler "s002" with entities [EventEntity, EventEntity], work=[352*, 0*]
180: 0x062E [0x5B] LOAD_EXT_SCHEDULER: Load scheduler "tlb0" with entities [Zogbog (ID: 17113942/0x01052356), Zogbog (ID: 17113942/0x01052356)], work=225*
181: 0x063D [0x2B] Zogbog (ID: 17113942/0x01052356) [7810*]:
    → "Ahaha... Careful, the little rabbit has fangs. Fangs I'll be happy to pull!"
182: 0x0644 [0x23] WAIT_FOR_DIALOG_INTERACTION
183: 0x0645 [0x5B] LOAD_EXT_SCHEDULER: Load scheduler "def0" with entities [Zogbog (ID: 17113942/0x01052356), Zogbog (ID: 17113942/0x01052356)], work=225*
184: 0x0654 [0x52] END_LOAD_SCHEDULER: End scheduler "s002" with entities [EventEntity, EventEntity], work=352*
185: 0x0663 [0x45] LOAD_SCHEDULED_TASK: Load scheduler "s004" with entities [EventEntity, EventEntity], work=[352*, 0*]
186: 0x0674 [0x5B] LOAD_EXT_SCHEDULER: Load scheduler "lkl0" with entities [Zogbog (ID: 17113942/0x01052356), Zogbog (ID: 17113942/0x01052356)], work=1416*
187: 0x0683 [0x1C] WAIT(60* ticks)
188: 0x0686 [0x5B] LOAD_EXT_SCHEDULER: Load scheduler "lklt" with entities [Zogbog (ID: 17113942/0x01052356), Zogbog (ID: 17113942/0x01052356)], work=1416*
189: 0x0695 [0x2B] Zogbog (ID: 17113942/0x01052356) [7811*]:
    → "(Krogvoghog zokvokzog?)"
190: 0x069C [0x23] WAIT_FOR_DIALOG_INTERACTION
191: 0x069D [0x52] END_LOAD_SCHEDULER: End scheduler "s004" with entities [EventEntity, EventEntity], work=352*
192: 0x06AC [0x45] LOAD_SCHEDULED_TASK: Load scheduler "s003" with entities [EventEntity, EventEntity], work=[352*, 0*]
193: 0x06BD [0x5B] LOAD_EXT_SCHEDULER: Load scheduler "pv00" with entities [Excenmille (ID: 17113940/0x01052354), Excenmille (ID: 17113940/0x01052354)], work=1271*
194: 0x06CC [0x5B] LOAD_EXT_SCHEDULER: Load scheduler "lkr0" with entities [Fingerfilcher Dradzad (ID: 17113941/0x01052355), Fingerfilcher Dradzad (ID: 17113941/0x01052355)], work=1416*
195: 0x06DB [0x1C] WAIT(60* ticks)
196: 0x06DE [0x5B] LOAD_EXT_SCHEDULER: Load scheduler "lkrt" with entities [Fingerfilcher Dradzad (ID: 17113941/0x01052355), Fingerfilcher Dradzad (ID: 17113941/0x01052355)], work=1416*
197: 0x06ED [0x2B] Fingerfilcher Dradzad (ID: 17113941/0x01052355) [7812*]:
    → "(Glogdregbrukdnog...)"
198: 0x06F4 [0x23] WAIT_FOR_DIALOG_INTERACTION
199: 0x06F5 [0x5B] LOAD_EXT_SCHEDULER: Load scheduler "lkl1" with entities [Zogbog (ID: 17113942/0x01052356), Zogbog (ID: 17113942/0x01052356)], work=1417*
200: 0x0704 [0x52] END_LOAD_SCHEDULER: End scheduler "s003" with entities [EventEntity, EventEntity], work=352*
201: 0x0713 [0x45] LOAD_SCHEDULED_TASK: Load scheduler "s015" with entities [EventEntity, EventEntity], work=[352*, 0*]
202: 0x0724 [0x1C] WAIT(60* ticks)
203: 0x0727 [0x5B] LOAD_EXT_SCHEDULER: Load scheduler "tlb0" with entities [Zogbog (ID: 17113942/0x01052356), Zogbog (ID: 17113942/0x01052356)], work=225*
204: 0x0736 [0x2B] Zogbog (ID: 17113942/0x01052356) [7813*]:
    → "They followed the others?"
205: 0x073D [0x23] WAIT_FOR_DIALOG_INTERACTION
206: 0x073E [0x5B] LOAD_EXT_SCHEDULER: Load scheduler "def0" with entities [Zogbog (ID: 17113942/0x01052356), Zogbog (ID: 17113942/0x01052356)], work=225*
207: 0x074D [0x52] END_LOAD_SCHEDULER: End scheduler "s015" with entities [EventEntity, EventEntity], work=352*
208: 0x075C [0x45] LOAD_SCHEDULED_TASK: Load scheduler "s005" with entities [EventEntity, EventEntity], work=[352*, 0*]
209: 0x076D [0x5B] LOAD_EXT_SCHEDULER: Load scheduler "lkr1" with entities [Fingerfilcher Dradzad (ID: 17113941/0x01052355), Fingerfilcher Dradzad (ID: 17113941/0x01052355)], work=1417*
210: 0x077C [0x5B] LOAD_EXT_SCHEDULER: Load scheduler "tlb0" with entities [Zogbog (ID: 17113942/0x01052356), Zogbog (ID: 17113942/0x01052356)], work=225*
211: 0x078B [0x2B] Zogbog (ID: 17113942/0x01052356) [7814*]:
    → "Well, little rabbit, it's your lucky day. You have only two Orcs to face."
212: 0x0792 [0x23] WAIT_FOR_DIALOG_INTERACTION
213: 0x0793 [0x5B] LOAD_EXT_SCHEDULER: Load scheduler "tlb0" with entities [Zogbog (ID: 17113942/0x01052356), Zogbog (ID: 17113942/0x01052356)], work=225*
214: 0x07A2 [0x52] END_LOAD_SCHEDULER: End scheduler "s005" with entities [EventEntity, EventEntity], work=352*
215: 0x07B1 [0x45] LOAD_SCHEDULED_TASK: Load scheduler "s006" with entities [EventEntity, EventEntity], work=[352*, 0*]
216: 0x07C2 [0x5B] LOAD_EXT_SCHEDULER: Load scheduler "ada0" with entities [Zogbog (ID: 17113942/0x01052356), Zogbog (ID: 17113942/0x01052356)], work=225*
217: 0x07D1 [0x29] REQ_SET_WAIT(priority=0x0F, entity_id=Fingerfilcher Dradzad (ID: 17113941/0x01052355), tag_num=0x02)
218: 0x07D8 [0x7B] Fingerfilcher Dradzad (ID: 17113941/0x01052355) stops talking
219: 0x07DD [0x4A] Fingerfilcher Dradzad (ID: 17113941/0x01052355) looks at Zogbog (ID: 17113942/0x01052356)
220: 0x07E6 [0x2B] Fingerfilcher Dradzad (ID: 17113941/0x01052355) [7815*]:
    → "Koddek drogvek vokbrokgreg!"
221: 0x07ED [0x23] WAIT_FOR_DIALOG_INTERACTION
222: 0x07EE [0x52] END_LOAD_SCHEDULER: End scheduler "s006" with entities [EventEntity, EventEntity], work=352*
223: 0x07FD [0x45] LOAD_SCHEDULED_TASK: Load scheduler "s007" with entities [EventEntity, EventEntity], work=[352*, 0*]
224: 0x080E [0x4A] Fingerfilcher Dradzad (ID: 17113941/0x01052355) looks at Excenmille (ID: 17113940/0x01052354)
225: 0x0817 [0x7B] Fingerfilcher Dradzad (ID: 17113941/0x01052355) stops talking
226: 0x081C [0x5B] LOAD_EXT_SCHEDULER: Load scheduler "hou0" with entities [Zogbog (ID: 17113942/0x01052356), Zogbog (ID: 17113942/0x01052356)], work=1415*
227: 0x082B [0x2B] Zogbog (ID: 17113942/0x01052356) [7816*]:
    → "He says he wants to slice your impudent hide into strips for his pet vulture!"
228: 0x0832 [0x23] WAIT_FOR_DIALOG_INTERACTION
229: 0x0833 [0x55] WAIT_LOAD_SCHEDULER: Wait for scheduler "s007" with entities [EventEntity, EventEntity], work=352*
230: 0x0842 [0x5B] LOAD_EXT_SCHEDULER: Load scheduler "pva0" with entities [Fingerfilcher Dradzad (ID: 17113941/0x01052355), Fingerfilcher Dradzad (ID: 17113941/0x01052355)], work=1262*
231: 0x0851 [0x1C] WAIT(1* ticks)
232: 0x0854 [0x45] LOAD_SCHEDULED_TASK: Load scheduler "s016" with entities [EventEntity, EventEntity], work=[352*, 0*]
233: 0x0865 [0x5B] LOAD_EXT_SCHEDULER: Load scheduler "hou1" with entities [Zogbog (ID: 17113942/0x01052356), Zogbog (ID: 17113942/0x01052356)], work=225*
234: 0x0874 [0x1C] WAIT(90* ticks)
235: 0x0877 [0x5B] LOAD_EXT_SCHEDULER: Load scheduler "tla0" with entities [Zogbog (ID: 17113942/0x01052356), Zogbog (ID: 17113942/0x01052356)], work=1415*
236: 0x0886 [0x2B] Zogbog (ID: 17113942/0x01052356) [7817*]:
    → "Well, perhaps not in quite so many words..."
237: 0x088D [0x23] WAIT_FOR_DIALOG_INTERACTION
238: 0x088E [0x5B] LOAD_EXT_SCHEDULER: Load scheduler "tlb1" with entities [Zogbog (ID: 17113942/0x01052356), Zogbog (ID: 17113942/0x01052356)], work=225*
239: 0x089D [0x52] END_LOAD_SCHEDULER: End scheduler "s016" with entities [EventEntity, EventEntity], work=352*
240: 0x08AC [0x45] LOAD_SCHEDULED_TASK: Load scheduler "s014" with entities [EventEntity, EventEntity], work=[352*, 0*]
241: 0x08BD [0x6B] STOP_AND_IDLE: Zogbog (ID: 17113942/0x01052356) stops current action and resets to idle (animation="idl0")
242: 0x08C6 [0x2B] Fingerfilcher Dradzad (ID: 17113941/0x01052355) [7818*]:
    → "Vokbrokgreg! Vokbrokgreg! Vokbrokgreg!"
243: 0x08CD [0x23] WAIT_FOR_DIALOG_INTERACTION
244: 0x08CE [0x81] SET_ENTITY_BLINKING(blink_flag=0x00, entity=Excenmille (ID: 17113940/0x01052354))
245: 0x08D4 [0x7C] Excenmille (ID: 17113940/0x01052354)->Render.Flags2 |= 0x00
246: 0x08DA [0x5B] LOAD_EXT_SCHEDULER: Load scheduler "fi00" with entities [Excenmille (ID: 17113940/0x01052354), Excenmille (ID: 17113940/0x01052354)], work=1299*
247: 0x08E9 [0x7B] Excenmille (ID: 17113940/0x01052354) stops talking
248: 0x08EE [0x45] LOAD_SCHEDULED_TASK: Load scheduler "s009" with entities [EventEntity, EventEntity], work=[352*, 0*]
249: 0x08FF [0x5B] LOAD_EXT_SCHEDULER: Load scheduler "fi01" with entities [Excenmille (ID: 17113940/0x01052354), Excenmille (ID: 17113940/0x01052354)], work=1299*
250: 0x090E [0x5B] LOAD_EXT_SCHEDULER: Load scheduler "pv01" with entities [Excenmille (ID: 17113940/0x01052354), Excenmille (ID: 17113940/0x01052354)], work=1271*
251: 0x091D [0x1C] WAIT(180* ticks)
252: 0x0920 [0x2B] Excenmille (ID: 17113940/0x01052354) [7819*]:
    → "..."
253: 0x0927 [0x1C] WAIT(30* ticks)
254: 0x092A [0x4A] Zogbog (ID: 17113942/0x01052356) looks at Excenmille (ID: 17113940/0x01052354)
255: 0x0933 [0x6F] WAIT_FRAME_DELAY: Yield until WaitTime reaches zero
256: 0x0934 [0x76] CHECK_ENTITY_RENDER_FLAGS: Wait until Zogbog (ID: 17113942/0x01052356) Render.Flags0 and Render.Flags3 conditions are met
257: 0x0939 [0x4A] Fingerfilcher Dradzad (ID: 17113941/0x01052355) looks at Excenmille (ID: 17113940/0x01052354)
258: 0x0942 [0x6F] WAIT_FRAME_DELAY: Yield until WaitTime reaches zero
259: 0x0943 [0x76] CHECK_ENTITY_RENDER_FLAGS: Wait until Fingerfilcher Dradzad (ID: 17113941/0x01052355) Render.Flags0 and Render.Flags3 conditions are met
260: 0x0948 [0x7B] Zogbog (ID: 17113942/0x01052356) stops talking
261: 0x094D [0x7B] Fingerfilcher Dradzad (ID: 17113941/0x01052355) stops talking
262: 0x0952 [0x55] WAIT_LOAD_SCHEDULER: Wait for scheduler "s009" with entities [EventEntity, EventEntity], work=352*
263: 0x0961 [0x6B] STOP_AND_IDLE: Zogbog (ID: 17113942/0x01052356) stops current action and resets to idle (animation="idl0")
264: 0x096A [0x2B] Excenmille (ID: 17113940/0x01052354) [7820*]:
    → "You fear not the blade of a child?"
265: 0x0971 [0x23] WAIT_FOR_DIALOG_INTERACTION
266: 0x0972 [0x45] LOAD_SCHEDULED_TASK: Load scheduler "s012" with entities [EventEntity, EventEntity], work=[352*, 0*]
267: 0x0983 [0x55] WAIT_LOAD_SCHEDULER: Wait for scheduler "s012" with entities [EventEntity, EventEntity], work=352*
268: 0x0992 [0x45] LOAD_SCHEDULED_TASK: Load scheduler "s010" with entities [EventEntity, EventEntity], work=[352*, 0*]
269: 0x09A3 [0x5B] LOAD_EXT_SCHEDULER: Load scheduler "tlb0" with entities [Zogbog (ID: 17113942/0x01052356), Zogbog (ID: 17113942/0x01052356)], work=225*
270: 0x09B2 [0x5B] LOAD_EXT_SCHEDULER: Load scheduler "fi00" with entities [Excenmille (ID: 17113940/0x01052354), Excenmille (ID: 17113940/0x01052354)], work=1299*
271: 0x09C1 [0x5B] LOAD_EXT_SCHEDULER: Load scheduler "pvl1" with entities [Excenmille (ID: 17113940/0x01052354), Excenmille (ID: 17113940/0x01052354)], work=1271*
272: 0x09D0 [0x2B] Zogbog (ID: 17113942/0x01052356) [7821*]:
    → "Vokkrok vogkratgek... Something familiar about you..."
273: 0x09D7 [0x23] WAIT_FOR_DIALOG_INTERACTION
274: 0x09D8 [0x81] SET_ENTITY_BLINKING(blink_flag=0x01, entity=Excenmille (ID: 17113940/0x01052354))
275: 0x09DE [0x7C] Excenmille (ID: 17113940/0x01052354)->Render.Flags2 |= 0x00
276: 0x09E4 [0x52] END_LOAD_SCHEDULER: End scheduler "s010" with entities [EventEntity, EventEntity], work=352*
277: 0x09F3 [0x45] LOAD_SCHEDULED_TASK: Load scheduler "s011" with entities [EventEntity, EventEntity], work=[352*, 0*]
278: 0x0A04 [0x6B] STOP_AND_IDLE: Fingerfilcher Dradzad (ID: 17113941/0x01052355) stops current action and resets to idle (animation="idl0")
279: 0x0A0D [0x2B] Zogbog (ID: 17113942/0x01052356) [7822*]:
    → "Those eyes..."
280: 0x0A14 [0x23] WAIT_FOR_DIALOG_INTERACTION
281: 0x0A15 [0x5B] LOAD_EXT_SCHEDULER: Load scheduler "def0" with entities [Zogbog (ID: 17113942/0x01052356), Zogbog (ID: 17113942/0x01052356)], work=225*
282: 0x0A24 [0x1A] CALL_SUBROUTINE(address=0x2C76)
283: 0x0A27 [0x52] END_LOAD_SCHEDULER: End scheduler "s011" with entities [EventEntity, EventEntity], work=352*
284: 0x0A36 [0xBA] SET_ENTITY_POSITION(entity_id=LocalPlayer, pos_x=-321.460*, pos_z=434.226*, pos_y=0.087*, direction=62.2°*)
285: 0x0A43 [0xBA] SET_ENTITY_POSITION(entity_id=Rahal (ID: 17113939/0x01052353), pos_x=-319.639*, pos_z=433.876*, pos_y=0.105*, direction=62.1°*)
286: 0x0A50 [0xBA] SET_ENTITY_POSITION(entity_id=testA (ID: 17113954/0x01052362), pos_x=-320.799*, pos_z=437.748*, pos_y=0.000*, direction=62.4°*)
287: 0x0A5D [0xBA] SET_ENTITY_POSITION(entity_id=testB (ID: 17113955/0x01052363), pos_x=-319.099*, pos_z=437.053*, pos_y=0.000*, direction=54.1°*)
288: 0x0A6A [0xBA] SET_ENTITY_POSITION(entity_id=testC (ID: 17113956/0x01052364), pos_x=-322.385*, pos_z=437.597*, pos_y=0.000*, direction=44.1°*)
289: 0x0A77 [0x4A] LocalPlayer looks at testA (ID: 17113954/0x01052362)
290: 0x0A80 [0x4A] Rahal (ID: 17113939/0x01052353) looks at testA (ID: 17113954/0x01052362)
291: 0x0A89 [0x4A] testA (ID: 17113954/0x01052362) looks at Rahal (ID: 17113939/0x01052353)
292: 0x0A92 [0x4A] testB (ID: 17113955/0x01052363) looks at Rahal (ID: 17113939/0x01052353)
293: 0x0A9B [0x4A] testC (ID: 17113956/0x01052364) looks at Rahal (ID: 17113939/0x01052353)
294: 0x0AA4 [0x7B] testA (ID: 17113954/0x01052362) stops talking
295: 0x0AA9 [0x7B] testB (ID: 17113955/0x01052363) stops talking
296: 0x0AAE [0x7B] testC (ID: 17113956/0x01052364) stops talking
297: 0x0AB3 [0x7B] Rahal (ID: 17113939/0x01052353) stops talking
298: 0x0AB8 [0x6F] WAIT_FRAME_DELAY: Yield until WaitTime reaches zero
299: 0x0AB9 [0x76] CHECK_ENTITY_RENDER_FLAGS: Wait until testA (ID: 17113954/0x01052362) Render.Flags0 and Render.Flags3 conditions are met
300: 0x0ABE [0x6F] WAIT_FRAME_DELAY: Yield until WaitTime reaches zero
301: 0x0ABF [0x76] CHECK_ENTITY_RENDER_FLAGS: Wait until testB (ID: 17113955/0x01052363) Render.Flags0 and Render.Flags3 conditions are met
302: 0x0AC4 [0x6F] WAIT_FRAME_DELAY: Yield until WaitTime reaches zero
303: 0x0AC5 [0x76] CHECK_ENTITY_RENDER_FLAGS: Wait until testC (ID: 17113956/0x01052364) Render.Flags0 and Render.Flags3 conditions are met
304: 0x0ACA [0x5B] LOAD_EXT_SCHEDULER: Load scheduler "fg00" with entities [testA (ID: 17113954/0x01052362), testA (ID: 17113954/0x01052362)], work=1299*
305: 0x0AD9 [0x5B] LOAD_EXT_SCHEDULER: Load scheduler "fi00" with entities [testB (ID: 17113955/0x01052363), testB (ID: 17113955/0x01052363)], work=1299*
306: 0x0AE8 [0x5B] LOAD_EXT_SCHEDULER: Load scheduler "ff00" with entities [testC (ID: 17113956/0x01052364), testC (ID: 17113956/0x01052364)], work=1299*
307: 0x0AF7 [0x4E] SET_ENTITY_HIDE_FLAG: Show testA (ID: 17113954/0x01052362)
308: 0x0AFD [0x4E] SET_ENTITY_HIDE_FLAG: Show testB (ID: 17113955/0x01052363)
309: 0x0B03 [0x4E] SET_ENTITY_HIDE_FLAG: Show testC (ID: 17113956/0x01052364)
310: 0x0B09 [0x1C] WAIT(120* ticks)
311: 0x0B0C [0x45] LOAD_SCHEDULED_TASK: Load scheduler "fdi2" with entities [EventEntity, EventEntity], work=[200*, 0*]
312: 0x0B1D [0x45] LOAD_SCHEDULED_TASK: Load scheduler "s109" with entities [EventEntity, EventEntity], work=[352*, 0*]
313: 0x0B2E [0x81] SET_ENTITY_BLINKING(blink_flag=0x01, entity=Rahal (ID: 17113939/0x01052353))
314: 0x0B34 [0x7C] Rahal (ID: 17113939/0x01052353)->Render.Flags2 |= 0x01
315: 0x0B3A [0x5B] LOAD_EXT_SCHEDULER: Load scheduler "tlb0" with entities [Rahal (ID: 17113939/0x01052353), Rahal (ID: 17113939/0x01052353)], work=1272*
316: 0x0B49 [0x2B] Rahal (ID: 17113939/0x01052353) [7823*]:
    → "The rest of you, return to San d'Oria and fetch reinforcements! Find Squire Altennia!"
317: 0x0B50 [0x23] WAIT_FOR_DIALOG_INTERACTION
318: 0x0B51 [0x5B] LOAD_EXT_SCHEDULER: Load scheduler "tlb1" with entities [Rahal (ID: 17113939/0x01052353), Rahal (ID: 17113939/0x01052353)], work=1272*
319: 0x0B60 [0x81] SET_ENTITY_BLINKING(blink_flag=0x00, entity=Rahal (ID: 17113939/0x01052353))
320: 0x0B66 [0x7C] Rahal (ID: 17113939/0x01052353)->Render.Flags2 |= 0x00
321: 0x0B6C [0x52] END_LOAD_SCHEDULER: End scheduler "s109" with entities [EventEntity, EventEntity], work=352*
322: 0x0B7B [0x45] LOAD_SCHEDULED_TASK: Load scheduler "s110" with entities [EventEntity, EventEntity], work=[352*, 0*]
323: 0x0B8C [0x27] REQ_SET(priority=0x0F, entity_id=testC (ID: 17113956/0x01052364), tag_num=0x07)
324: 0x0B93 [0x1C] WAIT(30* ticks)
325: 0x0B96 [0x27] REQ_SET(priority=0x0F, entity_id=testB (ID: 17113955/0x01052363), tag_num=0x07)
326: 0x0B9D [0x1C] WAIT(30* ticks)
327: 0x0BA0 [0x27] REQ_SET(priority=0x0F, entity_id=testA (ID: 17113954/0x01052362), tag_num=0x07)
328: 0x0BA7 [0x55] WAIT_LOAD_SCHEDULER: Wait for scheduler "s110" with entities [EventEntity, EventEntity], work=352*
329: 0x0BB6 [0x4A] Rahal (ID: 17113939/0x01052353) looks at LocalPlayer
330: 0x0BBF [0x4A] LocalPlayer looks at Rahal (ID: 17113939/0x01052353)
331: 0x0BC8 [0x45] LOAD_SCHEDULED_TASK: Load scheduler "s111" with entities [EventEntity, EventEntity], work=[352*, 0*]
332: 0x0BD9 [0x7B] Rahal (ID: 17113939/0x01052353) stops talking
333: 0x0BDE [0x6F] WAIT_FRAME_DELAY: Yield until WaitTime reaches zero
334: 0x0BDF [0x76] CHECK_ENTITY_RENDER_FLAGS: Wait until Rahal (ID: 17113939/0x01052353) Render.Flags0 and Render.Flags3 conditions are met
335: 0x0BE4 [0x5B] LOAD_EXT_SCHEDULER: Load scheduler "fc01" with entities [Rahal (ID: 17113939/0x01052353), Rahal (ID: 17113939/0x01052353)], work=1299*
336: 0x0BF3 [0x81] SET_ENTITY_BLINKING(blink_flag=0x01, entity=Rahal (ID: 17113939/0x01052353))
337: 0x0BF9 [0x7C] Rahal (ID: 17113939/0x01052353)->Render.Flags2 |= 0x01
338: 0x0BFF [0x5B] LOAD_EXT_SCHEDULER: Load scheduler "tla0" with entities [Rahal (ID: 17113939/0x01052353), Rahal (ID: 17113939/0x01052353)], work=1272*
339: 0x0C0E [0x2B] Rahal (ID: 17113939/0x01052353) [7824*]:
    → "We were ambushed to the east of here."
340: 0x0C15 [0x23] WAIT_FOR_DIALOG_INTERACTION
341: 0x0C16 [0x5B] LOAD_EXT_SCHEDULER: Load scheduler "tla1" with entities [Rahal (ID: 17113939/0x01052353), Rahal (ID: 17113939/0x01052353)], work=1272*
342: 0x0C25 [0x81] SET_ENTITY_BLINKING(blink_flag=0x00, entity=Rahal (ID: 17113939/0x01052353))
343: 0x0C2B [0x7C] Rahal (ID: 17113939/0x01052353)->Render.Flags2 |= 0x00
344: 0x0C31 [0x5B] LOAD_EXT_SCHEDULER: Load scheduler "fc00" with entities [Rahal (ID: 17113939/0x01052353), Rahal (ID: 17113939/0x01052353)], work=1299*
345: 0x0C40 [0x52] END_LOAD_SCHEDULER: End scheduler "s111" with entities [EventEntity, EventEntity], work=352*
346: 0x0C4F [0x45] LOAD_SCHEDULED_TASK: Load scheduler "s112" with entities [EventEntity, EventEntity], work=[352*, 0*]
347: 0x0C60 [0x5B] LOAD_EXT_SCHEDULER: Load scheduler "fc01" with entities [Rahal (ID: 17113939/0x01052353), Rahal (ID: 17113939/0x01052353)], work=1299*
348: 0x0C6F [0x2B] Rahal (ID: 17113939/0x01052353) [7825*]:
    → "Excenmille cannot be far!"
349: 0x0C76 [0x23] WAIT_FOR_DIALOG_INTERACTION
350: 0x0C77 [0x5B] LOAD_EXT_SCHEDULER: Load scheduler "fc00" with entities [Rahal (ID: 17113939/0x01052353), Rahal (ID: 17113939/0x01052353)], work=1299*
351: 0x0C86 [0x1A] CALL_SUBROUTINE(address=0x2C76)
352: 0x0C89 [0x5D] SET_MUSIC_VOLUME(volume=0*, fade_time=240*)
353: 0x0C8E [0x52] END_LOAD_SCHEDULER: End scheduler "s112" with entities [EventEntity, EventEntity], work=352*
354: 0x0C9D [0x5C] MUSIC_CONTROL: Set Idle (Day) music to song 0*
355: 0x0CA1 [0x5C] MUSIC_CONTROL: Set Idle (Night) music to song 0*
356: 0x0CA5 [0x5C] MUSIC_CONTROL: Set Combat (Solo) music to song 101*
357: 0x0CA9 [0x5C] MUSIC_CONTROL: Set Combat (Party) music to song 215*
358: 0x0CAD [0x9A] WAIT_MUSIC_SERVER()
359: 0x0CAE [0x46] CAMERA_CONTROL: Restore default settings
360: 0x0CB0 [0x45] LOAD_SCHEDULED_TASK: Load scheduler "fdi2" with entities [LocalPlayer, LocalPlayer], work=[200*, 0*]
361: 0x0CC1 [0x21] END_EVENT
362: 0x0CC2 [0x00] END_REQSTACK()
```

### Event 201

#### Metadata

| Field        | Value      |
|--------------|------------|
| Entrypoint   | 0x0CC3     |
| Data Size    | 2461 bytes |
| Instructions | 253        |

```
      00 01 02 03 04 05 06 07  08 09 0A 0B 0C 0D 0E 0F
      -- -- -- -- -- -- -- --  -- -- -- -- -- -- -- --
0CC0:          42 46 01 1A 76  2C 38 00 80 92 01 54 23     BF..v,8....T#
0CD0: 05 01 92 01 53 23 05 01  92 01 56 23 05 01 92 01  ....S#....V#....
0CE0: 55 23 05 01 92 01 62 23  05 01 92 01 63 23 05 01  U#....b#....c#..
0CF0: 92 01 64 23 05 01 92 01  65 23 05 01 94 01 54 23  ..d#....e#....T#
0D00: 05 01 94 01 53 23 05 01  94 01 56 23 05 01 94 01  ....S#....V#....
0D10: 55 23 05 01 94 01 62 23  05 01 94 01 63 23 05 01  U#....b#....c#..
0D20: 94 01 64 23 05 01 5D 19  80 23 80 5C 00 24 80 5C  ..d#..]..#.\.$.\
0D30: 01 24 80 5C 02 24 80 5C  03 24 80 9A BA F0 FF FF  .$.\.$.\.$......
0D40: 7F 64 80 65 80 66 80 67  80 BA 54 23 05 01 68 80  .d.e.f.g..T#..h.
0D50: 69 80 6A 80 6B 80 BA 53  23 05 01 6C 80 6D 80 6E  i.j.k..S#..l.m.n
0D60: 80 6F 80 BA 56 23 05 01  70 80 71 80 72 80 73 80  .o..V#..p.q.r.s.
0D70: BA 55 23 05 01 74 80 75  80 76 80 6F 80 BA 65 23  .U#..t.u.v.o..e#
0D80: 05 01 77 80 78 80 79 80  7A 80 4A F0 FF FF 7F 54  ..w.x.y.z.J....T
0D90: 23 05 01 4A 54 23 05 01  55 23 05 01 4A 53 23 05  #..JT#..U#..JS#.
0DA0: 01 54 23 05 01 4A 56 23  05 01 54 23 05 01 4A 55  .T#..JV#..T#..JU
0DB0: 23 05 01 54 23 05 01 7B  F0 FF FF 7F 7B 54 23 05  #..T#..{....{T#.
0DC0: 01 7B 53 23 05 01 7B 56  23 05 01 7B 55 23 05 01  .{S#..{V#..{U#..
0DD0: 4E 01 F0 FF FF 7F 4E 00  54 23 05 01 4E 00 56 23  N.....N.T#..N.V#
0DE0: 05 01 4E 00 55 23 05 01  80 F0 FF FF 7F 80 54 23  ..N.U#........T#
0DF0: 05 01 80 53 23 05 01 80  56 23 05 01 80 55 23 05  ...S#...V#...U#.
0E00: 01 81 00 54 23 05 01 7C  00 54 23 05 01 81 00 53  ...T#..|.T#....S
0E10: 23 05 01 7C 00 53 23 05  01 5B 7B 80 54 23 05 01  #..|.S#..[{.T#..
0E20: 54 23 05 01 67 6C 6B 30  5B 44 80 55 23 05 01 55  T#..glk0[D.U#..U
0E30: 23 05 01 70 76 30 30 1C  1A 80 45 18 80 F8 FF FF  #..pv00...E.....
0E40: 7F F8 FF FF 7F 73 30 31  37 19 80 45 30 80 F8 FF  .....s017..E0...
0E50: FF 7F F8 FF FF 7F 66 64  69 32 19 80 55 18 80 F8  ......fdi2..U...
0E60: FF FF 7F F8 FF FF 7F 73  30 31 37 45 18 80 F8 FF  .......s017E....
0E70: FF 7F F8 FF FF 7F 73 30  34 32 19 80 55 18 80 F8  ......s042..U...
0E80: FF FF 7F F8 FF FF 7F 73  30 34 32 45 18 80 F8 FF  .......s042E....
0E90: FF 7F F8 FF FF 7F 73 30  34 33 19 80 55 18 80 F8  ......s043..U...
0EA0: FF FF 7F F8 FF FF 7F 73  30 34 33 4E 00 F0 FF FF  .......s043N....
0EB0: 7F 27 0F F0 FF FF 7F 0B  45 18 80 F8 FF FF 7F F8  .'......E.......
0EC0: FF FF 7F 73 30 31 38 19  80 2A 0F F0 FF FF 7F 1C  ...s018..*......
0ED0: 34 80 52 18 80 F8 FF FF  7F F8 FF FF 7F 73 30 31  4.R..........s01
0EE0: 38 45 18 80 F8 FF FF 7F  F8 FF FF 7F 73 30 31 39  8E..........s019
0EF0: 19 80 5B 3E 80 55 23 05  01 55 23 05 01 73 70 6C  ..[>.U#..U#..spl
0F00: 30 45 18 80 55 23 05 01  55 23 05 01 68 72 6D 6B  0E..U#..U#..hrmk
0F10: 19 80 55 18 80 F8 FF FF  7F F8 FF FF 7F 73 30 31  ..U..........s01
0F20: 39 45 18 80 F8 FF FF 7F  F8 FF FF 7F 73 31 31 33  9E..........s113
0F30: 19 80 45 18 80 55 23 05  01 55 23 05 01 68 72 6D  ..E..U#..U#..hrm
0F40: 6B 19 80 2B 55 23 05 01  7C 80 23 52 18 80 F8 FF  k..+U#..|.#R....
0F50: FF 7F F8 FF FF 7F 73 31  31 33 45 18 80 F8 FF FF  ......s113E.....
0F60: 7F F8 FF FF 7F 73 31 31  34 19 80 5B 17 80 54 23  .....s114..[..T#
0F70: 05 01 54 23 05 01 66 63  30 30 5B 7B 80 54 23 05  ..T#..fc00[{.T#.
0F80: 01 54 23 05 01 67 6C 6B  31 5B 3E 80 56 23 05 01  .T#..glk1[>.V#..
0F90: 56 23 05 01 73 70 6C 61  45 18 80 56 23 05 01 56  V#..splaE..V#..V
0FA0: 23 05 01 68 72 6D 6B 19  80 2B 56 23 05 01 7D 80  #..hrmk..+V#..}.
0FB0: 23 52 18 80 F8 FF FF 7F  F8 FF FF 7F 73 31 31 34  #R..........s114
0FC0: 45 18 80 F8 FF FF 7F F8  FF FF 7F 73 31 31 35 19  E..........s115.
0FD0: 80 55 18 80 F8 FF FF 7F  F8 FF FF 7F 73 31 31 35  .U..........s115
0FE0: 45 18 80 F8 FF FF 7F F8  FF FF 7F 73 30 32 31 19  E..........s021.
0FF0: 80 4E 00 53 23 05 01 5B  17 80 54 23 05 01 54 23  .N.S#..[..T#..T#
1000: 05 01 66 63 30 31 2B 54  23 05 01 7E 80 23 5B 17  ..fc01+T#..~.#[.
1010: 80 54 23 05 01 54 23 05  01 66 63 30 30 52 18 80  .T#..T#..fc00R..
1020: F8 FF FF 7F F8 FF FF 7F  73 30 32 31 45 18 80 F8  ........s021E...
1030: FF FF 7F F8 FF FF 7F 73  30 32 32 19 80 BA 53 23  .......s022...S#
1040: 05 01 7F 80 80 80 81 80  6F 80 29 0F 53 23 05 01  ........o.).S#..
1050: 04 6B 69 64 6C 30 53 23  05 01 5B 1D 80 53 23 05  .kidl0S#..[..S#.
1060: 01 53 23 05 01 68 65 79  30 52 18 80 F8 FF FF 7F  .S#..hey0R......
1070: F8 FF FF 7F 73 30 32 32  45 18 80 F8 FF FF 7F F8  ....s022E.......
1080: FF FF 7F 73 30 32 33 19  80 2B 53 23 05 01 82 80  ...s023..+S#....
1090: 23 53 53 23 05 01 53 23  05 01 68 65 79 30 55 18  #SS#..S#..hey0U.
10A0: 80 F8 FF FF 7F F8 FF FF  7F 73 30 32 33 45 18 80  .........s023E..
10B0: F8 FF FF 7F F8 FF FF 7F  73 30 32 30 19 80 6B 69  ........s020..ki
10C0: 64 6C 30 55 23 05 01 4A  56 23 05 01 54 23 05 01  dl0U#..JV#..T#..
10D0: 4A 55 23 05 01 54 23 05  01 7B 56 23 05 01 7B 55  JU#..T#..{V#..{U
10E0: 23 05 01 5B 17 80 54 23  05 01 54 23 05 01 66 63  #..[..T#..T#..fc
10F0: 30 30 5B 17 80 54 23 05  01 54 23 05 01 66 63 30  00[..T#..T#..fc0
1100: 31 2B 54 23 05 01 83 80  23 5B 17 80 54 23 05 01  1+T#....#[..T#..
1110: 54 23 05 01 66 63 30 30  6F 76 56 23 05 01 6B 69  T#..fc00ovV#..ki
1120: 64 6C 30 56 23 05 01 6F  76 55 23 05 01 7B 54 23  dl0V#..ovU#..{T#
1130: 05 01 52 18 80 F8 FF FF  7F F8 FF FF 7F 73 30 32  ..R..........s02
1140: 30 45 18 80 F8 FF FF 7F  F8 FF FF 7F 73 30 32 34  0E..........s024
1150: 19 80 29 0F 53 23 05 01  05 5B 7B 80 53 23 05 01  ..).S#...[{.S#..
1160: 53 23 05 01 72 62 74 30  55 18 80 F8 FF FF 7F F8  S#..rbt0U.......
1170: FF FF 7F 73 30 32 34 45  18 80 F8 FF FF 7F F8 FF  ...s024E........
1180: FF 7F 73 30 32 35 19 80  4A 56 23 05 01 54 23 05  ..s025..JV#..T#.
1190: 01 4A 55 23 05 01 53 23  05 01 7B 56 23 05 01 7B  .JU#..S#..{V#..{
11A0: 55 23 05 01 55 18 80 F8  FF FF 7F F8 FF FF 7F 73  U#..U..........s
11B0: 30 32 35 45 18 80 F8 FF  FF 7F F8 FF FF 7F 73 30  025E..........s0
11C0: 32 36 19 80 5B 36 80 56  23 05 01 56 23 05 01 74  26..[6.V#..V#..t
11D0: 6C 62 30 2B 56 23 05 01  84 80 23 5B 36 80 56 23  lb0+V#....#[6.V#
11E0: 05 01 56 23 05 01 64 65  66 30 52 18 80 F8 FF FF  ..V#..def0R.....
11F0: 7F F8 FF FF 7F 73 30 32  36 45 18 80 F8 FF FF 7F  .....s026E......
1200: F8 FF FF 7F 73 30 32 37  19 80 4A 54 23 05 01 56  ....s027..JT#..V
1210: 23 05 01 5D 19 80 23 80  6F 76 54 23 05 01 7B 54  #..]..#.ovT#..{T
1220: 23 05 01 5B 36 80 56 23  05 01 56 23 05 01 74 6C  #..[6.V#..V#..tl
1230: 62 30 2B 56 23 05 01 85  80 23 5B 36 80 56 23 05  b0+V#....#[6.V#.
1240: 01 56 23 05 01 64 65 66  30 52 18 80 F8 FF FF 7F  .V#..def0R......
1250: F8 FF FF 7F 73 30 32 37  45 18 80 F8 FF FF 7F F8  ....s027E.......
1260: FF FF 7F 73 30 32 38 19  80 5B 36 80 56 23 05 01  ...s028..[6.V#..
1270: 56 23 05 01 61 64 61 30  2B 56 23 05 01 86 80 23  V#..ada0+V#....#
1280: 5C 00 87 80 5C 01 87 80  5C 02 87 80 5C 03 87 80  \...\...\...\...
1290: 9A 52 18 80 F8 FF FF 7F  F8 FF FF 7F 73 30 32 38  .R..........s028
12A0: 45 18 80 F8 FF FF 7F F8  FF FF 7F 73 30 32 39 19  E..........s029.
12B0: 80 5B 42 80 56 23 05 01  56 23 05 01 68 6F 75 30  .[B.V#..V#..hou0
12C0: 5B 3C 80 54 23 05 01 54  23 05 01 70 76 6C 31 2B  [<.T#..T#..pvl1+
12D0: 56 23 05 01 88 80 23 55  18 80 F8 FF FF 7F F8 FF  V#....#U........
12E0: FF 7F 73 30 32 39 45 18  80 F8 FF FF 7F F8 FF FF  ..s029E.........
12F0: 7F 73 30 33 30 19 80 BA  F0 FF FF 7F 89 80 8A 80  .s030...........
1300: 8B 80 8C 80 5B 17 80 54  23 05 01 54 23 05 01 66  ....[..T#..T#..f
1310: 63 30 30 55 18 80 F8 FF  FF 7F F8 FF FF 7F 73 30  c00U..........s0
1320: 33 30 5B 17 80 54 23 05  01 54 23 05 01 66 63 30  30[..T#..T#..fc0
1330: 31 2B 54 23 05 01 8D 80  23 5B 17 80 54 23 05 01  1+T#....#[..T#..
1340: 54 23 05 01 66 63 30 30  45 18 80 F8 FF FF 7F F8  T#..fc00E.......
1350: FF FF 7F 73 30 33 31 19  80 29 0F F0 FF FF 7F 0D  ...s031..)......
1360: 29 0F F0 FF FF 7F 11 52  18 80 F8 FF FF 7F F8 FF  )......R........
1370: FF 7F 73 30 33 31 45 18  80 F8 FF FF 7F F8 FF FF  ..s031E.........
1380: 7F 73 30 33 32 19 80 55  18 80 F8 FF FF 7F F8 FF  .s032..U........
1390: FF 7F 73 30 33 32 5B 36  80 56 23 05 01 56 23 05  ..s032[6.V#..V#.
13A0: 01 74 6C 62 30 2B 56 23  05 01 8E 80 23 5B 36 80  .tlb0+V#....#[6.
13B0: 56 23 05 01 56 23 05 01  64 65 66 30 45 18 80 F8  V#..V#..def0E...
13C0: FF FF 7F F8 FF FF 7F 73  30 33 33 19 80 5B 36 80  .......s033..[6.
13D0: 56 23 05 01 56 23 05 01  74 6C 62 30 2B 56 23 05  V#..V#..tlb0+V#.
13E0: 01 8F 80 23 5B 17 80 54  23 05 01 54 23 05 01 66  ...#[..T#..T#..f
13F0: 67 30 30 52 18 80 F8 FF  FF 7F F8 FF FF 7F 73 30  g00R..........s0
1400: 33 33 45 18 80 F8 FF FF  7F F8 FF FF 7F 73 30 34  33E..........s04
1410: 34 19 80 2B 54 23 05 01  90 80 23 52 18 80 F8 FF  4..+T#....#R....
1420: FF 7F F8 FF FF 7F 73 30  34 34 45 18 80 F8 FF FF  ......s044E.....
1430: 7F F8 FF FF 7F 73 30 33  34 19 80 5B 36 80 56 23  .....s034..[6.V#
1440: 05 01 56 23 05 01 61 64  61 30 5B 17 80 53 23 05  ..V#..ada0[..S#.
1450: 01 53 23 05 01 66 67 30  30 5B 17 80 53 23 05 01  .S#..fg00[..S#..
1460: 53 23 05 01 66 67 30 31  2B 53 23 05 01 91 80 23  S#..fg01+S#....#
1470: 5B 17 80 53 23 05 01 53  23 05 01 66 67 30 30 52  [..S#..S#..fg00R
1480: 18 80 F8 FF FF 7F F8 FF  FF 7F 73 30 33 34 45 18  ..........s034E.
1490: 80 F8 FF FF 7F F8 FF FF  7F 73 30 33 36 19 80 5B  .........s036..[
14A0: 42 80 56 23 05 01 56 23  05 01 74 6C 61 30 2B 56  B.V#..V#..tla0+V
14B0: 23 05 01 92 80 23 5B 36  80 56 23 05 01 56 23 05  #....#[6.V#..V#.
14C0: 01 64 65 66 30 52 18 80  F8 FF FF 7F F8 FF FF 7F  .def0R..........
14D0: 73 30 33 36 45 18 80 F8  FF FF 7F F8 FF FF 7F 73  s036E..........s
14E0: 30 33 35 19 80 2B 56 23  05 01 93 80 23 52 18 80  035..+V#....#R..
14F0: F8 FF FF 7F F8 FF FF 7F  73 30 33 35 45 18 80 F8  ........s035E...
1500: FF FF 7F F8 FF FF 7F 73  30 33 37 19 80 5B 42 80  .......s037..[B.
1510: 56 23 05 01 56 23 05 01  74 6C 62 30 2B 56 23 05  V#..V#..tlb0+V#.
1520: 01 94 80 23 BA 55 23 05  01 95 80 96 80 97 80 98  ...#.U#.........
1530: 80 5B 44 80 55 23 05 01  55 23 05 01 70 76 61 30  .[D.U#..U#..pva0
1540: 55 18 80 F8 FF FF 7F F8  FF FF 7F 73 30 33 37 45  U..........s037E
1550: 18 80 F8 FF FF 7F F8 FF  FF 7F 73 30 33 38 19 80  ..........s038..
1560: 2B 55 23 05 01 99 80 23  52 18 80 F8 FF FF 7F F8  +U#....#R.......
1570: FF FF 7F 73 30 33 38 45  18 80 F8 FF FF 7F F8 FF  ...s038E........
1580: FF 7F 73 30 33 39 19 80  5B 3A 80 56 23 05 01 56  ..s039..[:.V#..V
1590: 23 05 01 6C 6B 6C 30 1C  33 80 5B 3A 80 56 23 05  #..lkl0.3.[:.V#.
15A0: 01 56 23 05 01 6C 6B 6C  74 2B 56 23 05 01 9A 80  .V#..lklt+V#....
15B0: 23 52 18 80 F8 FF FF 7F  F8 FF FF 7F 73 30 33 39  #R..........s039
15C0: 45 18 80 F8 FF FF 7F F8  FF FF 7F 73 30 34 30 19  E..........s040.
15D0: 80 2B 55 23 05 01 9B 80  23 55 18 80 F8 FF FF 7F  .+U#....#U......
15E0: F8 FF FF 7F 73 30 34 30  45 18 80 F8 FF FF 7F F8  ....s040E.......
15F0: FF FF 7F 73 30 34 31 19  80 1A 76 2C 55 18 80 F8  ...s041...v,U...
1600: FF FF 7F F8 FF FF 7F 73  30 34 31 5D 19 80 23 80  .......s041]..#.
1610: 29 10 F0 FF FF 7F 12 1C  33 80 5C 00 19 80 5C 01  ).......3.\...\.
1620: 19 80 5C 02 62 80 5C 03  63 80 9A 46 00 45 18 80  ..\.b.\.c..F.E..
1630: F8 FF FF 7F F8 FF FF 7F  77 6F 66 66 19 80 55 18  ........woff..U.
1640: 80 F8 FF FF 7F F8 FF FF  7F 77 6F 66 66 45 30 80  .........woffE0.
1650: F0 FF FF 7F F0 FF FF 7F  66 64 69 32 19 80 21 00  ........fdi2..!.
```

#### Opcodes

```
  0: 0x0CC3 [0x42] SET_CLI_EVENT_CANCEL_DATA()
  1: 0x0CC4 [0x46] CAMERA_CONTROL: Disable user control
  2: 0x0CC6 [0x1A] CALL_SUBROUTINE(address=0x2C76)
  3: 0x0CC9 [0x38] SET_CLIENT_EVENT_MODE(mode=19*)
  4: 0x0CCC [0x92] Excenmille (ID: 17113940/0x01052354)->Render.Flags3 ^= 0x01
  5: 0x0CD2 [0x92] Rahal (ID: 17113939/0x01052353)->Render.Flags3 ^= 0x01
  6: 0x0CD8 [0x92] Zogbog (ID: 17113942/0x01052356)->Render.Flags3 ^= 0x01
  7: 0x0CDE [0x92] Fingerfilcher Dradzad (ID: 17113941/0x01052355)->Render.Flags3 ^= 0x01
  8: 0x0CE4 [0x92] testA (ID: 17113954/0x01052362)->Render.Flags3 ^= 0x01
  9: 0x0CEA [0x92] testB (ID: 17113955/0x01052363)->Render.Flags3 ^= 0x01
 10: 0x0CF0 [0x92] testC (ID: 17113956/0x01052364)->Render.Flags3 ^= 0x01
 11: 0x0CF6 [0x92] Unnamed NPC (ID: 17113957/0x01052365)->Render.Flags3 ^= 0x01
 12: 0x0CFC [0x94] Excenmille (ID: 17113940/0x01052354)->Render.Flags3 ^= 0x01
 13: 0x0D02 [0x94] Rahal (ID: 17113939/0x01052353)->Render.Flags3 ^= 0x01
 14: 0x0D08 [0x94] Zogbog (ID: 17113942/0x01052356)->Render.Flags3 ^= 0x01
 15: 0x0D0E [0x94] Fingerfilcher Dradzad (ID: 17113941/0x01052355)->Render.Flags3 ^= 0x01
 16: 0x0D14 [0x94] testA (ID: 17113954/0x01052362)->Render.Flags3 ^= 0x01
 17: 0x0D1A [0x94] testB (ID: 17113955/0x01052363)->Render.Flags3 ^= 0x01
 18: 0x0D20 [0x94] testC (ID: 17113956/0x01052364)->Render.Flags3 ^= 0x01
 19: 0x0D26 [0x5D] SET_MUSIC_VOLUME(volume=0*, fade_time=240*)
 20: 0x0D2B [0x5C] MUSIC_CONTROL: Set Idle (Day) music to song 250*
 21: 0x0D2F [0x5C] MUSIC_CONTROL: Set Idle (Night) music to song 250*
 22: 0x0D33 [0x5C] MUSIC_CONTROL: Set Combat (Solo) music to song 250*
 23: 0x0D37 [0x5C] MUSIC_CONTROL: Set Combat (Party) music to song 250*
 24: 0x0D3B [0x9A] WAIT_MUSIC_SERVER()
 25: 0x0D3C [0xBA] SET_ENTITY_POSITION(entity_id=LocalPlayer, pos_x=67.361*, pos_z=327.085*, pos_y=0.321*, direction=290.5°*)
 26: 0x0D49 [0xBA] SET_ENTITY_POSITION(entity_id=Excenmille (ID: 17113940/0x01052354), pos_x=73.924*, pos_z=340.934*, pos_y=0.876*, direction=107.3°*)
 27: 0x0D56 [0xBA] SET_ENTITY_POSITION(entity_id=Rahal (ID: 17113939/0x01052353), pos_x=62.538*, pos_z=334.185*, pos_y=0.220*, direction=306.5°*)
 28: 0x0D63 [0xBA] SET_ENTITY_POSITION(entity_id=Zogbog (ID: 17113942/0x01052356), pos_x=76.087*, pos_z=334.558*, pos_y=0.646*, direction=166.0°*)
 29: 0x0D70 [0xBA] SET_ENTITY_POSITION(entity_id=Fingerfilcher Dradzad (ID: 17113941/0x01052355), pos_x=73.148*, pos_z=335.968*, pos_y=0.934*, direction=306.5°*)
 30: 0x0D7D [0xBA] SET_ENTITY_POSITION(entity_id=Unnamed NPC (ID: 17113957/0x01052365), pos_x=76.029*, pos_z=335.558*, pos_y=0.749*, direction=304.4°*)
 31: 0x0D8A [0x4A] LocalPlayer looks at Excenmille (ID: 17113940/0x01052354)
 32: 0x0D93 [0x4A] Excenmille (ID: 17113940/0x01052354) looks at Fingerfilcher Dradzad (ID: 17113941/0x01052355)
 33: 0x0D9C [0x4A] Rahal (ID: 17113939/0x01052353) looks at Excenmille (ID: 17113940/0x01052354)
 34: 0x0DA5 [0x4A] Zogbog (ID: 17113942/0x01052356) looks at Excenmille (ID: 17113940/0x01052354)
 35: 0x0DAE [0x4A] Fingerfilcher Dradzad (ID: 17113941/0x01052355) looks at Excenmille (ID: 17113940/0x01052354)
 36: 0x0DB7 [0x7B] LocalPlayer stops talking
 37: 0x0DBC [0x7B] Excenmille (ID: 17113940/0x01052354) stops talking
 38: 0x0DC1 [0x7B] Rahal (ID: 17113939/0x01052353) stops talking
 39: 0x0DC6 [0x7B] Zogbog (ID: 17113942/0x01052356) stops talking
 40: 0x0DCB [0x7B] Fingerfilcher Dradzad (ID: 17113941/0x01052355) stops talking
 41: 0x0DD0 [0x4E] SET_ENTITY_HIDE_FLAG: Hide LocalPlayer
 42: 0x0DD6 [0x4E] SET_ENTITY_HIDE_FLAG: Show Excenmille (ID: 17113940/0x01052354)
 43: 0x0DDC [0x4E] SET_ENTITY_HIDE_FLAG: Show Zogbog (ID: 17113942/0x01052356)
 44: 0x0DE2 [0x4E] SET_ENTITY_HIDE_FLAG: Show Fingerfilcher Dradzad (ID: 17113941/0x01052355)
 45: 0x0DE8 [0x80] LOAD_WAIT(entity=LocalPlayer)
 46: 0x0DED [0x80] LOAD_WAIT(entity=Excenmille (ID: 17113940/0x01052354))
 47: 0x0DF2 [0x80] LOAD_WAIT(entity=Rahal (ID: 17113939/0x01052353))
 48: 0x0DF7 [0x80] LOAD_WAIT(entity=Zogbog (ID: 17113942/0x01052356))
 49: 0x0DFC [0x80] LOAD_WAIT(entity=Fingerfilcher Dradzad (ID: 17113941/0x01052355))
 50: 0x0E01 [0x81] SET_ENTITY_BLINKING(blink_flag=0x00, entity=Excenmille (ID: 17113940/0x01052354))
 51: 0x0E07 [0x7C] Excenmille (ID: 17113940/0x01052354)->Render.Flags2 |= 0x00
 52: 0x0E0D [0x81] SET_ENTITY_BLINKING(blink_flag=0x00, entity=Rahal (ID: 17113939/0x01052353))
 53: 0x0E13 [0x7C] Rahal (ID: 17113939/0x01052353)->Render.Flags2 |= 0x00
 54: 0x0E19 [0x5B] LOAD_EXT_SCHEDULER: Load scheduler "glk0" with entities [Excenmille (ID: 17113940/0x01052354), Excenmille (ID: 17113940/0x01052354)], work=1300*
 55: 0x0E28 [0x5B] LOAD_EXT_SCHEDULER: Load scheduler "pv00" with entities [Fingerfilcher Dradzad (ID: 17113941/0x01052355), Fingerfilcher Dradzad (ID: 17113941/0x01052355)], work=1262*
 56: 0x0E37 [0x1C] WAIT(5* ticks)
 57: 0x0E3A [0x45] LOAD_SCHEDULED_TASK: Load scheduler "s017" with entities [EventEntity, EventEntity], work=[352*, 0*]
 58: 0x0E4B [0x45] LOAD_SCHEDULED_TASK: Load scheduler "fdi2" with entities [EventEntity, EventEntity], work=[200*, 0*]
 59: 0x0E5C [0x55] WAIT_LOAD_SCHEDULER: Wait for scheduler "s017" with entities [EventEntity, EventEntity], work=352*
 60: 0x0E6B [0x45] LOAD_SCHEDULED_TASK: Load scheduler "s042" with entities [EventEntity, EventEntity], work=[352*, 0*]
 61: 0x0E7C [0x55] WAIT_LOAD_SCHEDULER: Wait for scheduler "s042" with entities [EventEntity, EventEntity], work=352*
 62: 0x0E8B [0x45] LOAD_SCHEDULED_TASK: Load scheduler "s043" with entities [EventEntity, EventEntity], work=[352*, 0*]
 63: 0x0E9C [0x55] WAIT_LOAD_SCHEDULER: Wait for scheduler "s043" with entities [EventEntity, EventEntity], work=352*
 64: 0x0EAB [0x4E] SET_ENTITY_HIDE_FLAG: Show LocalPlayer
 65: 0x0EB1 [0x27] REQ_SET(priority=0x0F, entity_id=LocalPlayer, tag_num=0x0B)
 66: 0x0EB8 [0x45] LOAD_SCHEDULED_TASK: Load scheduler "s018" with entities [EventEntity, EventEntity], work=[352*, 0*]
 67: 0x0EC9 [0x2A] GET_REQ_LEVEL(level=15, entity_id=LocalPlayer)
 68: 0x0ECF [0x1C] WAIT(30* ticks)
 69: 0x0ED2 [0x52] END_LOAD_SCHEDULER: End scheduler "s018" with entities [EventEntity, EventEntity], work=352*
 70: 0x0EE1 [0x45] LOAD_SCHEDULED_TASK: Load scheduler "s019" with entities [EventEntity, EventEntity], work=[352*, 0*]
 71: 0x0EF2 [0x5B] LOAD_EXT_SCHEDULER: Load scheduler "spl0" with entities [Fingerfilcher Dradzad (ID: 17113941/0x01052355), Fingerfilcher Dradzad (ID: 17113941/0x01052355)], work=1417*
 72: 0x0F01 [0x45] LOAD_SCHEDULED_TASK: Load scheduler "hrmk" with entities [Fingerfilcher Dradzad (ID: 17113941/0x01052355), Fingerfilcher Dradzad (ID: 17113941/0x01052355)], work=[352*, 0*]
 73: 0x0F12 [0x55] WAIT_LOAD_SCHEDULER: Wait for scheduler "s019" with entities [EventEntity, EventEntity], work=352*
 74: 0x0F21 [0x45] LOAD_SCHEDULED_TASK: Load scheduler "s113" with entities [EventEntity, EventEntity], work=[352*, 0*]
 75: 0x0F32 [0x45] LOAD_SCHEDULED_TASK: Load scheduler "hrmk" with entities [Fingerfilcher Dradzad (ID: 17113941/0x01052355), Fingerfilcher Dradzad (ID: 17113941/0x01052355)], work=[352*, 0*]
 76: 0x0F43 [0x2B] Fingerfilcher Dradzad (ID: 17113941/0x01052355) [7826*]:
    → "(Krogkrek!?)"
 77: 0x0F4A [0x23] WAIT_FOR_DIALOG_INTERACTION
 78: 0x0F4B [0x52] END_LOAD_SCHEDULER: End scheduler "s113" with entities [EventEntity, EventEntity], work=352*
 79: 0x0F5A [0x45] LOAD_SCHEDULED_TASK: Load scheduler "s114" with entities [EventEntity, EventEntity], work=[352*, 0*]
 80: 0x0F6B [0x5B] LOAD_EXT_SCHEDULER: Load scheduler "fc00" with entities [Excenmille (ID: 17113940/0x01052354), Excenmille (ID: 17113940/0x01052354)], work=1299*
 81: 0x0F7A [0x5B] LOAD_EXT_SCHEDULER: Load scheduler "glk1" with entities [Excenmille (ID: 17113940/0x01052354), Excenmille (ID: 17113940/0x01052354)], work=1300*
 82: 0x0F89 [0x5B] LOAD_EXT_SCHEDULER: Load scheduler "spla" with entities [Zogbog (ID: 17113942/0x01052356), Zogbog (ID: 17113942/0x01052356)], work=1417*
 83: 0x0F98 [0x45] LOAD_SCHEDULED_TASK: Load scheduler "hrmk" with entities [Zogbog (ID: 17113942/0x01052356), Zogbog (ID: 17113942/0x01052356)], work=[352*, 0*]
 84: 0x0FA9 [0x2B] Zogbog (ID: 17113942/0x01052356) [7827*]:
    → "(Krek?)"
 85: 0x0FB0 [0x23] WAIT_FOR_DIALOG_INTERACTION
 86: 0x0FB1 [0x52] END_LOAD_SCHEDULER: End scheduler "s114" with entities [EventEntity, EventEntity], work=352*
 87: 0x0FC0 [0x45] LOAD_SCHEDULED_TASK: Load scheduler "s115" with entities [EventEntity, EventEntity], work=[352*, 0*]
 88: 0x0FD1 [0x55] WAIT_LOAD_SCHEDULER: Wait for scheduler "s115" with entities [EventEntity, EventEntity], work=352*
 89: 0x0FE0 [0x45] LOAD_SCHEDULED_TASK: Load scheduler "s021" with entities [EventEntity, EventEntity], work=[352*, 0*]
 90: 0x0FF1 [0x4E] SET_ENTITY_HIDE_FLAG: Show Rahal (ID: 17113939/0x01052353)
 91: 0x0FF7 [0x5B] LOAD_EXT_SCHEDULER: Load scheduler "fc01" with entities [Excenmille (ID: 17113940/0x01052354), Excenmille (ID: 17113940/0x01052354)], work=1299*
 92: 0x1006 [0x2B] Excenmille (ID: 17113940/0x01052354) [7828*]:
    → "<Player>!?"
 93: 0x100D [0x23] WAIT_FOR_DIALOG_INTERACTION
 94: 0x100E [0x5B] LOAD_EXT_SCHEDULER: Load scheduler "fc00" with entities [Excenmille (ID: 17113940/0x01052354), Excenmille (ID: 17113940/0x01052354)], work=1299*
 95: 0x101D [0x52] END_LOAD_SCHEDULER: End scheduler "s021" with entities [EventEntity, EventEntity], work=352*
 96: 0x102C [0x45] LOAD_SCHEDULED_TASK: Load scheduler "s022" with entities [EventEntity, EventEntity], work=[352*, 0*]
 97: 0x103D [0xBA] SET_ENTITY_POSITION(entity_id=Rahal (ID: 17113939/0x01052353), pos_x=62.027*, pos_z=327.294*, pos_y=0.551*, direction=306.5°*)
 98: 0x104A [0x29] REQ_SET_WAIT(priority=0x0F, entity_id=Rahal (ID: 17113939/0x01052353), tag_num=0x04)
 99: 0x1051 [0x6B] STOP_AND_IDLE: Rahal (ID: 17113939/0x01052353) stops current action and resets to idle (animation="idl0")
100: 0x105A [0x5B] LOAD_EXT_SCHEDULER: Load scheduler "hey0" with entities [Rahal (ID: 17113939/0x01052353), Rahal (ID: 17113939/0x01052353)], work=1301*
101: 0x1069 [0x52] END_LOAD_SCHEDULER: End scheduler "s022" with entities [EventEntity, EventEntity], work=352*
102: 0x1078 [0x45] LOAD_SCHEDULED_TASK: Load scheduler "s023" with entities [EventEntity, EventEntity], work=[352*, 0*]
103: 0x1089 [0x2B] Rahal (ID: 17113939/0x01052353) [7829*]:
    → "Excenmille!!"
104: 0x1090 [0x23] WAIT_FOR_DIALOG_INTERACTION
105: 0x1091 [0x53] WAIT_SCHEDULER_TASK: Wait for scheduler "hey0" with entities [Rahal (ID: 17113939/0x01052353), Rahal (ID: 17113939/0x01052353)]
106: 0x109E [0x55] WAIT_LOAD_SCHEDULER: Wait for scheduler "s023" with entities [EventEntity, EventEntity], work=352*
107: 0x10AD [0x45] LOAD_SCHEDULED_TASK: Load scheduler "s020" with entities [EventEntity, EventEntity], work=[352*, 0*]
108: 0x10BE [0x6B] STOP_AND_IDLE: Fingerfilcher Dradzad (ID: 17113941/0x01052355) stops current action and resets to idle (animation="idl0")
109: 0x10C7 [0x4A] Zogbog (ID: 17113942/0x01052356) looks at Excenmille (ID: 17113940/0x01052354)
110: 0x10D0 [0x4A] Fingerfilcher Dradzad (ID: 17113941/0x01052355) looks at Excenmille (ID: 17113940/0x01052354)
111: 0x10D9 [0x7B] Zogbog (ID: 17113942/0x01052356) stops talking
112: 0x10DE [0x7B] Fingerfilcher Dradzad (ID: 17113941/0x01052355) stops talking
113: 0x10E3 [0x5B] LOAD_EXT_SCHEDULER: Load scheduler "fc00" with entities [Excenmille (ID: 17113940/0x01052354), Excenmille (ID: 17113940/0x01052354)], work=1299*
114: 0x10F2 [0x5B] LOAD_EXT_SCHEDULER: Load scheduler "fc01" with entities [Excenmille (ID: 17113940/0x01052354), Excenmille (ID: 17113940/0x01052354)], work=1299*
115: 0x1101 [0x2B] Excenmille (ID: 17113940/0x01052354) [7830*]:
    → "Rahal!"
116: 0x1108 [0x23] WAIT_FOR_DIALOG_INTERACTION
117: 0x1109 [0x5B] LOAD_EXT_SCHEDULER: Load scheduler "fc00" with entities [Excenmille (ID: 17113940/0x01052354), Excenmille (ID: 17113940/0x01052354)], work=1299*
118: 0x1118 [0x6F] WAIT_FRAME_DELAY: Yield until WaitTime reaches zero
119: 0x1119 [0x76] CHECK_ENTITY_RENDER_FLAGS: Wait until Zogbog (ID: 17113942/0x01052356) Render.Flags0 and Render.Flags3 conditions are met
120: 0x111E [0x6B] STOP_AND_IDLE: Zogbog (ID: 17113942/0x01052356) stops current action and resets to idle (animation="idl0")
121: 0x1127 [0x6F] WAIT_FRAME_DELAY: Yield until WaitTime reaches zero
122: 0x1128 [0x76] CHECK_ENTITY_RENDER_FLAGS: Wait until Fingerfilcher Dradzad (ID: 17113941/0x01052355) Render.Flags0 and Render.Flags3 conditions are met
123: 0x112D [0x7B] Excenmille (ID: 17113940/0x01052354) stops talking
124: 0x1132 [0x52] END_LOAD_SCHEDULER: End scheduler "s020" with entities [EventEntity, EventEntity], work=352*
125: 0x1141 [0x45] LOAD_SCHEDULED_TASK: Load scheduler "s024" with entities [EventEntity, EventEntity], work=[352*, 0*]
126: 0x1152 [0x29] REQ_SET_WAIT(priority=0x0F, entity_id=Rahal (ID: 17113939/0x01052353), tag_num=0x05)
127: 0x1159 [0x5B] LOAD_EXT_SCHEDULER: Load scheduler "rbt0" with entities [Rahal (ID: 17113939/0x01052353), Rahal (ID: 17113939/0x01052353)], work=1300*
128: 0x1168 [0x55] WAIT_LOAD_SCHEDULER: Wait for scheduler "s024" with entities [EventEntity, EventEntity], work=352*
129: 0x1177 [0x45] LOAD_SCHEDULED_TASK: Load scheduler "s025" with entities [EventEntity, EventEntity], work=[352*, 0*]
130: 0x1188 [0x4A] Zogbog (ID: 17113942/0x01052356) looks at Excenmille (ID: 17113940/0x01052354)
131: 0x1191 [0x4A] Fingerfilcher Dradzad (ID: 17113941/0x01052355) looks at Rahal (ID: 17113939/0x01052353)
132: 0x119A [0x7B] Zogbog (ID: 17113942/0x01052356) stops talking
133: 0x119F [0x7B] Fingerfilcher Dradzad (ID: 17113941/0x01052355) stops talking
134: 0x11A4 [0x55] WAIT_LOAD_SCHEDULER: Wait for scheduler "s025" with entities [EventEntity, EventEntity], work=352*
135: 0x11B3 [0x45] LOAD_SCHEDULED_TASK: Load scheduler "s026" with entities [EventEntity, EventEntity], work=[352*, 0*]
136: 0x11C4 [0x5B] LOAD_EXT_SCHEDULER: Load scheduler "tlb0" with entities [Zogbog (ID: 17113942/0x01052356), Zogbog (ID: 17113942/0x01052356)], work=225*
137: 0x11D3 [0x2B] Zogbog (ID: 17113942/0x01052356) [7831*]:
    → "Excen...mille?"
138: 0x11DA [0x23] WAIT_FOR_DIALOG_INTERACTION
139: 0x11DB [0x5B] LOAD_EXT_SCHEDULER: Load scheduler "def0" with entities [Zogbog (ID: 17113942/0x01052356), Zogbog (ID: 17113942/0x01052356)], work=225*
140: 0x11EA [0x52] END_LOAD_SCHEDULER: End scheduler "s026" with entities [EventEntity, EventEntity], work=352*
141: 0x11F9 [0x45] LOAD_SCHEDULED_TASK: Load scheduler "s027" with entities [EventEntity, EventEntity], work=[352*, 0*]
142: 0x120A [0x4A] Excenmille (ID: 17113940/0x01052354) looks at Zogbog (ID: 17113942/0x01052356)
143: 0x1213 [0x5D] SET_MUSIC_VOLUME(volume=0*, fade_time=240*)
144: 0x1218 [0x6F] WAIT_FRAME_DELAY: Yield until WaitTime reaches zero
145: 0x1219 [0x76] CHECK_ENTITY_RENDER_FLAGS: Wait until Excenmille (ID: 17113940/0x01052354) Render.Flags0 and Render.Flags3 conditions are met
146: 0x121E [0x7B] Excenmille (ID: 17113940/0x01052354) stops talking
147: 0x1223 [0x5B] LOAD_EXT_SCHEDULER: Load scheduler "tlb0" with entities [Zogbog (ID: 17113942/0x01052356), Zogbog (ID: 17113942/0x01052356)], work=225*
148: 0x1232 [0x2B] Zogbog (ID: 17113942/0x01052356) [7832*]:
    → "Yes...those eyes... You are him, only..."
149: 0x1239 [0x23] WAIT_FOR_DIALOG_INTERACTION
150: 0x123A [0x5B] LOAD_EXT_SCHEDULER: Load scheduler "def0" with entities [Zogbog (ID: 17113942/0x01052356), Zogbog (ID: 17113942/0x01052356)], work=225*
151: 0x1249 [0x52] END_LOAD_SCHEDULER: End scheduler "s027" with entities [EventEntity, EventEntity], work=352*
152: 0x1258 [0x45] LOAD_SCHEDULED_TASK: Load scheduler "s028" with entities [EventEntity, EventEntity], work=[352*, 0*]
153: 0x1269 [0x5B] LOAD_EXT_SCHEDULER: Load scheduler "ada0" with entities [Zogbog (ID: 17113942/0x01052356), Zogbog (ID: 17113942/0x01052356)], work=225*
154: 0x1278 [0x2B] Zogbog (ID: 17113942/0x01052356) [7833*]:
    → "Gahaha..."
155: 0x127F [0x23] WAIT_FOR_DIALOG_INTERACTION
156: 0x1280 [0x5C] MUSIC_CONTROL: Set Idle (Day) music to song 217*
157: 0x1284 [0x5C] MUSIC_CONTROL: Set Idle (Night) music to song 217*
158: 0x1288 [0x5C] MUSIC_CONTROL: Set Combat (Solo) music to song 217*
159: 0x128C [0x5C] MUSIC_CONTROL: Set Combat (Party) music to song 217*
160: 0x1290 [0x9A] WAIT_MUSIC_SERVER()
161: 0x1291 [0x52] END_LOAD_SCHEDULER: End scheduler "s028" with entities [EventEntity, EventEntity], work=352*
162: 0x12A0 [0x45] LOAD_SCHEDULED_TASK: Load scheduler "s029" with entities [EventEntity, EventEntity], work=[352*, 0*]
163: 0x12B1 [0x5B] LOAD_EXT_SCHEDULER: Load scheduler "hou0" with entities [Zogbog (ID: 17113942/0x01052356), Zogbog (ID: 17113942/0x01052356)], work=1415*
164: 0x12C0 [0x5B] LOAD_EXT_SCHEDULER: Load scheduler "pvl1" with entities [Excenmille (ID: 17113940/0x01052354), Excenmille (ID: 17113940/0x01052354)], work=1271*
165: 0x12CF [0x2B] Zogbog (ID: 17113942/0x01052356) [7834*]:
    → "I have found you, Excenmille M Aurchiat!"
166: 0x12D6 [0x23] WAIT_FOR_DIALOG_INTERACTION
167: 0x12D7 [0x55] WAIT_LOAD_SCHEDULER: Wait for scheduler "s029" with entities [EventEntity, EventEntity], work=352*
168: 0x12E6 [0x45] LOAD_SCHEDULED_TASK: Load scheduler "s030" with entities [EventEntity, EventEntity], work=[352*, 0*]
169: 0x12F7 [0xBA] SET_ENTITY_POSITION(entity_id=LocalPlayer, pos_x=70.255*, pos_z=338.521*, pos_y=0.999*, direction=69.7°*)
170: 0x1304 [0x5B] LOAD_EXT_SCHEDULER: Load scheduler "fc00" with entities [Excenmille (ID: 17113940/0x01052354), Excenmille (ID: 17113940/0x01052354)], work=1299*
171: 0x1313 [0x55] WAIT_LOAD_SCHEDULER: Wait for scheduler "s030" with entities [EventEntity, EventEntity], work=352*
172: 0x1322 [0x5B] LOAD_EXT_SCHEDULER: Load scheduler "fc01" with entities [Excenmille (ID: 17113940/0x01052354), Excenmille (ID: 17113940/0x01052354)], work=1299*
173: 0x1331 [0x2B] Excenmille (ID: 17113940/0x01052354) [7835*]:
    → "Speak not my family name, cur! And I am not yet..."
174: 0x1338 [0x23] WAIT_FOR_DIALOG_INTERACTION
175: 0x1339 [0x5B] LOAD_EXT_SCHEDULER: Load scheduler "fc00" with entities [Excenmille (ID: 17113940/0x01052354), Excenmille (ID: 17113940/0x01052354)], work=1299*
176: 0x1348 [0x45] LOAD_SCHEDULED_TASK: Load scheduler "s031" with entities [EventEntity, EventEntity], work=[352*, 0*]
177: 0x1359 [0x29] REQ_SET_WAIT(priority=0x0F, entity_id=LocalPlayer, tag_num=0x0D)
178: 0x1360 [0x29] REQ_SET_WAIT(priority=0x0F, entity_id=LocalPlayer, tag_num=0x11)
179: 0x1367 [0x52] END_LOAD_SCHEDULER: End scheduler "s031" with entities [EventEntity, EventEntity], work=352*
180: 0x1376 [0x45] LOAD_SCHEDULED_TASK: Load scheduler "s032" with entities [EventEntity, EventEntity], work=[352*, 0*]
181: 0x1387 [0x55] WAIT_LOAD_SCHEDULER: Wait for scheduler "s032" with entities [EventEntity, EventEntity], work=352*
182: 0x1396 [0x5B] LOAD_EXT_SCHEDULER: Load scheduler "tlb0" with entities [Zogbog (ID: 17113942/0x01052356), Zogbog (ID: 17113942/0x01052356)], work=225*
183: 0x13A5 [0x2B] Zogbog (ID: 17113942/0x01052356) [7837*]:
    → "Hm? Another face I recognize..."
184: 0x13AC [0x23] WAIT_FOR_DIALOG_INTERACTION
185: 0x13AD [0x5B] LOAD_EXT_SCHEDULER: Load scheduler "def0" with entities [Zogbog (ID: 17113942/0x01052356), Zogbog (ID: 17113942/0x01052356)], work=225*
186: 0x13BC [0x45] LOAD_SCHEDULED_TASK: Load scheduler "s033" with entities [EventEntity, EventEntity], work=[352*, 0*]
187: 0x13CD [0x5B] LOAD_EXT_SCHEDULER: Load scheduler "tlb0" with entities [Zogbog (ID: 17113942/0x01052356), Zogbog (ID: 17113942/0x01052356)], work=225*
188: 0x13DC [0x2B] Zogbog (ID: 17113942/0x01052356) [7838*]:
    → "You are the "kind stranger" that helped me escape from my cage in San d'Oria."
189: 0x13E3 [0x23] WAIT_FOR_DIALOG_INTERACTION
190: 0x13E4 [0x5B] LOAD_EXT_SCHEDULER: Load scheduler "fg00" with entities [Excenmille (ID: 17113940/0x01052354), Excenmille (ID: 17113940/0x01052354)], work=1299*
191: 0x13F3 [0x52] END_LOAD_SCHEDULER: End scheduler "s033" with entities [EventEntity, EventEntity], work=352*
192: 0x1402 [0x45] LOAD_SCHEDULED_TASK: Load scheduler "s044" with entities [EventEntity, EventEntity], work=[352*, 0*]
193: 0x1413 [0x2B] Excenmille (ID: 17113940/0x01052354) [7839*]:
    → "!?"
194: 0x141A [0x23] WAIT_FOR_DIALOG_INTERACTION
195: 0x141B [0x52] END_LOAD_SCHEDULER: End scheduler "s044" with entities [EventEntity, EventEntity], work=352*
196: 0x142A [0x45] LOAD_SCHEDULED_TASK: Load scheduler "s034" with entities [EventEntity, EventEntity], work=[352*, 0*]
197: 0x143B [0x5B] LOAD_EXT_SCHEDULER: Load scheduler "ada0" with entities [Zogbog (ID: 17113942/0x01052356), Zogbog (ID: 17113942/0x01052356)], work=225*
198: 0x144A [0x5B] LOAD_EXT_SCHEDULER: Load scheduler "fg00" with entities [Rahal (ID: 17113939/0x01052353), Rahal (ID: 17113939/0x01052353)], work=1299*
199: 0x1459 [0x5B] LOAD_EXT_SCHEDULER: Load scheduler "fg01" with entities [Rahal (ID: 17113939/0x01052353), Rahal (ID: 17113939/0x01052353)], work=1299*
200: 0x1468 [0x2B] Rahal (ID: 17113939/0x01052353) [7840*]:
    → "You helped an Orc escape...?"
201: 0x146F [0x23] WAIT_FOR_DIALOG_INTERACTION
202: 0x1470 [0x5B] LOAD_EXT_SCHEDULER: Load scheduler "fg00" with entities [Rahal (ID: 17113939/0x01052353), Rahal (ID: 17113939/0x01052353)], work=1299*
203: 0x147F [0x52] END_LOAD_SCHEDULER: End scheduler "s034" with entities [EventEntity, EventEntity], work=352*
204: 0x148E [0x45] LOAD_SCHEDULED_TASK: Load scheduler "s036" with entities [EventEntity, EventEntity], work=[352*, 0*]
205: 0x149F [0x5B] LOAD_EXT_SCHEDULER: Load scheduler "tla0" with entities [Zogbog (ID: 17113942/0x01052356), Zogbog (ID: 17113942/0x01052356)], work=1415*
206: 0x14AE [0x2B] Zogbog (ID: 17113942/0x01052356) [7841*]:
    → "My apologies, but after leaving my confinement, I recalled a rather important fact."
207: 0x14B5 [0x23] WAIT_FOR_DIALOG_INTERACTION
