# 17113940 - Excenmille

## Common Data

| Field            | Value                      |
|------------------|----------------------------|
| Zone             | Jugner Forest [S] (ID: 82) |
| Block Size       | 860 bytes                  |
| Total Events     | 30                         |
| References Count | 65                         |

## List of Events

| Event ID                   | Entrypoint   |   Size |   Instructions |
|----------------------------|--------------|--------|----------------|
| [65535](#event-65535)      | 0x0000       |      1 |              1 |
| [200](#event-200)          | 0x0001       |      1 |              1 |
| [201](#event-201)          | 0x0002       |      1 |              1 |
| [202](#event-202)          | 0x0003       |      1 |              1 |
| [203](#event-203)          | 0x0004       |      1 |              1 |
| [65535.1](#event-655351)   | 0x0005       |     15 |              5 |
| [65535.2](#event-655352)   | 0x0014       |     27 |              5 |
| [65535.3](#event-655353)   | 0x002F       |     34 |              4 |
| [65535.4](#event-655354)   | 0x0051       |     17 |              6 |
| [65535.5](#event-655355)   | 0x0062       |     35 |              9 |
| [65535.6](#event-655356)   | 0x0085       |     29 |              5 |
| [204](#event-204)          | 0x00A2       |      1 |              1 |
| [205](#event-205)          | 0x00A3       |      1 |              1 |
| [206](#event-206)          | 0x00A4       |      1 |              1 |
| [65535.7](#event-655357)   | 0x00A5       |     44 |             10 |
| [211](#event-211)          | 0x00D1       |      1 |              1 |
| [212](#event-212)          | 0x00D2       |      1 |              1 |
| [214](#event-214)          | 0x00D3       |      1 |              1 |
| [65535.8](#event-655358)   | 0x00D4       |     14 |              4 |
| [215](#event-215)          | 0x00E2       |      1 |              1 |
| [65535.9](#event-655359)   | 0x00E3       |     35 |              9 |
| [65535.10](#event-6553510) | 0x0106       |     35 |              9 |
| [65535.11](#event-6553511) | 0x0129       |     14 |              4 |
| [65535.12](#event-6553512) | 0x0137       |     24 |              6 |
| [65535.13](#event-6553513) | 0x014F       |     22 |              6 |
| [65535.14](#event-6553514) | 0x0165       |     15 |              5 |
| [65535.15](#event-6553515) | 0x0174       |     14 |              4 |
| [65535.16](#event-6553516) | 0x0182       |     27 |              7 |
| [65535.17](#event-6553517) | 0x019D       |     14 |              4 |
| [65535.18](#event-6553518) | 0x01AB       |     34 |              4 |

## DAT References (imed_data)

|   Index | Hex Value   |   Dec Value |
|---------|-------------|-------------|
|       0 | 0x0028      |          40 |
|       1 | 0xC013      |       49171 |
|       2 | 0x4DB6F     |      318319 |
|       3 | 0x0100      |         256 |
|       4 | 0x12974     |       76148 |
|       5 | 0x4E668     |      321128 |
|       6 | 0x003C      |          60 |
|       7 | 0x0BA2      |        2978 |
|       8 | 0x120C4     |       73924 |
|       9 | 0x533C6     |      340934 |
|      10 | 0x036C      |         876 |
|      11 | 0x0513      |        1299 |
|      12 | 0xFFFFCD7B  |  4294954363 |
|      13 | 0x45C7F     |      285823 |
|      14 | 0xFFFFF06E  |  4294963310 |
|      15 | 0x139A      |        5018 |
|      16 | 0x47C67     |      293991 |
|      17 | 0x050A      |        1290 |
|      18 | 0x12681     |       75393 |
|      19 | 0x410E8     |      266472 |
|      20 | 0xFFFFFF81  |  4294967169 |
|      21 | 0x0761      |        1889 |
|      22 | 0x126BF     |       75455 |
|      23 | 0x45569     |      284009 |
|      24 | 0x0017      |          23 |
|      25 | 0x0762      |        1890 |
|      26 | 0xFFFFFEE6  |  4294967014 |
|      27 | 0xFFFB01B9  |  4294640057 |
|      28 | 0x0306      |         774 |
|      29 | 0x05AF      |        1455 |
|      30 | 0xFFFFF370  |  4294964080 |
|      31 | 0xFFFB0F45  |  4294643525 |
|      32 | 0xFFFFFFB6  |  4294967222 |
|      33 | 0x61574     |      398708 |
|      34 | 0x676CA     |      423626 |
|      35 | 0x0397      |         919 |
|      36 | 0x000D      |          13 |
|      37 | 0x619C9     |      399817 |
|      38 | 0x675FE     |      423422 |
|      39 | 0x03E7      |         999 |
|      40 | 0x625E2     |      402914 |
|      41 | 0x6319F     |      405919 |
|      42 | 0xFFFFFEDF  |  4294967007 |
|      43 | 0x632B4     |      406196 |
|      44 | 0x61BA7     |      400295 |
|      45 | 0x0000      |           0 |
|      46 | 0xFFF92A90  |  4294519440 |
|      47 | 0xFFF8D6D0  |  4294498000 |
|      48 | 0x0102      |         258 |
|      49 | 0x001E      |          30 |
|      50 | 0xFFF9AEEB  |  4294553323 |
|      51 | 0xFFF905F3  |  4294510067 |
|      52 | 0x012B      |         299 |
|      53 | 0xFFF91D92  |  4294516114 |
|      54 | 0xFFF8DC66  |  4294499430 |
|      55 | 0x004E      |          78 |
|      56 | 0xFFF93857  |  4294522967 |
|      57 | 0xFFF8D207  |  4294496775 |
|      58 | 0x012C      |         300 |
|      59 | 0xFFF93F1E  |  4294524702 |
|      60 | 0xFFF8E3CE  |  4294501326 |
|      61 | 0x0257      |         599 |
|      62 | 0x005A      |          90 |
|      63 | 0x0A63      |        2659 |
|      64 | 0x098C      |        2444 |

## Events

### Event 65535

#### Metadata

| Field        | Value   |
|--------------|---------|
| Entrypoint   | 0x0000  |
| Data Size    | 1 bytes |
| Instructions | 1       |

```
      00 01 02 03 04 05 06 07  08 09 0A 0B 0C 0D 0E 0F
      -- -- -- -- -- -- -- --  -- -- -- -- -- -- -- --
0000: 00                                                .               
```

#### Opcodes

```
  0: 0x0000 [0x00] END_REQSTACK()
```

### Event 200

#### Metadata

| Field        | Value   |
|--------------|---------|
| Entrypoint   | 0x0001  |
| Data Size    | 1 bytes |
| Instructions | 1       |

```
      00 01 02 03 04 05 06 07  08 09 0A 0B 0C 0D 0E 0F
      -- -- -- -- -- -- -- --  -- -- -- -- -- -- -- --
0000:    00                                              .              
```

#### Opcodes

```
  0: 0x0001 [0x00] END_REQSTACK()
```

### Event 201

#### Metadata

| Field        | Value   |
|--------------|---------|
| Entrypoint   | 0x0002  |
| Data Size    | 1 bytes |
| Instructions | 1       |

```
      00 01 02 03 04 05 06 07  08 09 0A 0B 0C 0D 0E 0F
      -- -- -- -- -- -- -- --  -- -- -- -- -- -- -- --
0000:       00                                            .             
```

#### Opcodes

```
  0: 0x0002 [0x00] END_REQSTACK()
```

### Event 202

#### Metadata

| Field        | Value   |
|--------------|---------|
| Entrypoint   | 0x0003  |
| Data Size    | 1 bytes |
| Instructions | 1       |

```
      00 01 02 03 04 05 06 07  08 09 0A 0B 0C 0D 0E 0F
      -- -- -- -- -- -- -- --  -- -- -- -- -- -- -- --
0000:          00                                          .            
```

#### Opcodes

```
  0: 0x0003 [0x00] END_REQSTACK()
```

### Event 203

#### Metadata

| Field        | Value   |
|--------------|---------|
| Entrypoint   | 0x0004  |
| Data Size    | 1 bytes |
| Instructions | 1       |

```
      00 01 02 03 04 05 06 07  08 09 0A 0B 0C 0D 0E 0F
      -- -- -- -- -- -- -- --  -- -- -- -- -- -- -- --
0000:             00                                        .           
```

#### Opcodes

```
  0: 0x0004 [0x00] END_REQSTACK()
```

### Event 65535.1

#### Metadata

| Field        | Value    |
|--------------|----------|
| Entrypoint   | 0x0005   |
| Data Size    | 15 bytes |
| Instructions | 5        |

```
      00 01 02 03 04 05 06 07  08 09 0A 0B 0C 0D 0E 0F
      -- -- -- -- -- -- -- --  -- -- -- -- -- -- -- --
0000:                32 00 80  1F 00 01 80 02 80 03 80       2..........
0010: 1F 01 6F 00                                       ..o.            
```

#### Opcodes

```
  0: 0x0005 [0x32] ExtData[1]->MainSpeed = 40* * 0.1
  1: 0x0008 [0x1F] MOVE_ENTITY: EventEntity moves to X=49.171*, Z=318.319*, Y=0.256*
  2: 0x0010 [0x1F] MOVE_ENTITY: Update entity position (mode=1)
  3: 0x0012 [0x6F] WAIT_FRAME_DELAY: Yield until WaitTime reaches zero
  4: 0x0013 [0x00] END_REQSTACK()
```

### Event 65535.2

#### Metadata

| Field        | Value    |
|--------------|----------|
| Entrypoint   | 0x0014   |
| Data Size    | 27 bytes |
| Instructions | 5        |

```
      00 01 02 03 04 05 06 07  08 09 0A 0B 0C 0D 0E 0F
      -- -- -- -- -- -- -- --  -- -- -- -- -- -- -- --
0010:             32 00 80 BA  54 23 05 01 04 80 05 80      2...T#......
0020: 06 80 07 80 1F 00 08 80  09 80 0A 80 1F 01 00     ............... 
```

#### Opcodes

```
  0: 0x0014 [0x32] ExtData[1]->MainSpeed = 40* * 0.1
  1: 0x0017 [0xBA] SET_ENTITY_POSITION(entity_id=Excenmille (ID: 17113940/0x01052354), pos_x=76.148*, pos_z=321.128*, pos_y=0.060*, direction=261.7°*)
  2: 0x0024 [0x1F] MOVE_ENTITY: EventEntity moves to X=73.924*, Z=340.934*, Y=0.876*
  3: 0x002C [0x1F] MOVE_ENTITY: Update entity position (mode=1)
  4: 0x002E [0x00] END_REQSTACK()
```

### Event 65535.3

#### Metadata

| Field        | Value    |
|--------------|----------|
| Entrypoint   | 0x002F   |
| Data Size    | 34 bytes |
| Instructions | 4        |

```
      00 01 02 03 04 05 06 07  08 09 0A 0B 0C 0D 0E 0F
      -- -- -- -- -- -- -- --  -- -- -- -- -- -- -- --
0020:                                               5B                 [
0030: 0B 80 54 23 05 01 54 23  05 01 66 63 30 31 1C 06  ..T#..T#..fc01..
0040: 80 5B 0B 80 54 23 05 01  54 23 05 01 66 63 30 30  .[..T#..T#..fc00
0050: 00                                                .               
```

#### Opcodes

```
  0: 0x002F [0x5B] LOAD_EXT_SCHEDULER: Load scheduler "fc01" with entities [Excenmille (ID: 17113940/0x01052354), Excenmille (ID: 17113940/0x01052354)], work=1299*
  1: 0x003E [0x1C] WAIT(60* ticks)
  2: 0x0041 [0x5B] LOAD_EXT_SCHEDULER: Load scheduler "fc00" with entities [Excenmille (ID: 17113940/0x01052354), Excenmille (ID: 17113940/0x01052354)], work=1299*
  3: 0x0050 [0x00] END_REQSTACK()
```

### Event 65535.4

#### Metadata

| Field        | Value    |
|--------------|----------|
| Entrypoint   | 0x0051   |
| Data Size    | 17 bytes |
| Instructions | 6        |

```
      00 01 02 03 04 05 06 07  08 09 0A 0B 0C 0D 0E 0F
      -- -- -- -- -- -- -- --  -- -- -- -- -- -- -- --
0050:    32 00 80 1F 00 0C 80  0D 80 0E 80 1F 01 6F 22   2............o"
0060: 01 00                                             ..              
```

#### Opcodes

```
  0: 0x0051 [0x32] ExtData[1]->MainSpeed = 40* * 0.1
  1: 0x0054 [0x1F] MOVE_ENTITY: EventEntity moves to X=-12.933*, Z=285.823*, Y=-3.986*
  2: 0x005C [0x1F] MOVE_ENTITY: Update entity position (mode=1)
  3: 0x005E [0x6F] WAIT_FRAME_DELAY: Yield until WaitTime reaches zero
  4: 0x005F [0x22] ENTITY_HIDE_FLAG(enabled=0x01)
  5: 0x0061 [0x00] END_REQSTACK()
```

### Event 65535.5

#### Metadata

| Field        | Value    |
|--------------|----------|
| Entrypoint   | 0x0062   |
| Data Size    | 35 bytes |
| Instructions | 9        |

```
      00 01 02 03 04 05 06 07  08 09 0A 0B 0C 0D 0E 0F
      -- -- -- -- -- -- -- --  -- -- -- -- -- -- -- --
0060:       32 00 80 1F 00 0F  80 10 80 11 80 1F 01 6F    2............o
0070: 4A 54 23 05 01 5D 23 05  01 7B 54 23 05 01 6F 76  JT#..]#..{T#..ov
0080: 54 23 05 01 00                                    T#...           
```

#### Opcodes

```
  0: 0x0062 [0x32] ExtData[1]->MainSpeed = 40* * 0.1
  1: 0x0065 [0x1F] MOVE_ENTITY: EventEntity moves to X=5.018*, Z=293.991*, Y=1.290*
  2: 0x006D [0x1F] MOVE_ENTITY: Update entity position (mode=1)
  3: 0x006F [0x6F] WAIT_FRAME_DELAY: Yield until WaitTime reaches zero
  4: 0x0070 [0x4A] Excenmille (ID: 17113940/0x01052354) looks at Altennia (ID: 17113949/0x0105235D)
  5: 0x0079 [0x7B] Excenmille (ID: 17113940/0x01052354) stops talking
  6: 0x007E [0x6F] WAIT_FRAME_DELAY: Yield until WaitTime reaches zero
  7: 0x007F [0x76] CHECK_ENTITY_RENDER_FLAGS: Wait until Excenmille (ID: 17113940/0x01052354) Render.Flags0 and Render.Flags3 conditions are met
  8: 0x0084 [0x00] END_REQSTACK()
```

### Event 65535.6

#### Metadata

| Field        | Value    |
|--------------|----------|
| Entrypoint   | 0x0085   |
| Data Size    | 29 bytes |
| Instructions | 5        |

```
      00 01 02 03 04 05 06 07  08 09 0A 0B 0C 0D 0E 0F
      -- -- -- -- -- -- -- --  -- -- -- -- -- -- -- --
0080:                BA 54 23  05 01 12 80 13 80 14 80       .T#........
0090: 15 80 32 00 80 31 00 16  80 17 80 18 80 19 80 31  ..2..1.........1
00A0: 01 00                                             ..              
```

#### Opcodes

```
  0: 0x0085 [0xBA] SET_ENTITY_POSITION(entity_id=Excenmille (ID: 17113940/0x01052354), pos_x=75.393*, pos_z=266.472*, pos_y=-0.127*, direction=166.0°*)
  1: 0x0092 [0x32] ExtData[1]->MainSpeed = 40* * 0.1
  2: 0x0095 [0x31] UPDATE_ENTITY_POSITION: Set EventEntity goal position to X=75.455*, Z=284.009*, Y=0.023*, Time=1890*
  3: 0x009F [0x31] UPDATE_ENTITY_POSITION: Move EventEntity towards goal position
  4: 0x00A1 [0x00] END_REQSTACK()
```

### Event 204

#### Metadata

| Field        | Value   |
|--------------|---------|
| Entrypoint   | 0x00A2  |
| Data Size    | 1 bytes |
| Instructions | 1       |

```
      00 01 02 03 04 05 06 07  08 09 0A 0B 0C 0D 0E 0F
      -- -- -- -- -- -- -- --  -- -- -- -- -- -- -- --
00A0:       00                                            .             
```

#### Opcodes

```
  0: 0x00A2 [0x00] END_REQSTACK()
```

### Event 205

#### Metadata

| Field        | Value   |
|--------------|---------|
| Entrypoint   | 0x00A3  |
| Data Size    | 1 bytes |
| Instructions | 1       |

```
      00 01 02 03 04 05 06 07  08 09 0A 0B 0C 0D 0E 0F
      -- -- -- -- -- -- -- --  -- -- -- -- -- -- -- --
00A0:          00                                          .            
```

#### Opcodes

```
  0: 0x00A3 [0x00] END_REQSTACK()
```

### Event 206

#### Metadata

| Field        | Value   |
|--------------|---------|
| Entrypoint   | 0x00A4  |
| Data Size    | 1 bytes |
| Instructions | 1       |

```
      00 01 02 03 04 05 06 07  08 09 0A 0B 0C 0D 0E 0F
      -- -- -- -- -- -- -- --  -- -- -- -- -- -- -- --
00A0:             00                                        .           
```

#### Opcodes

```
  0: 0x00A4 [0x00] END_REQSTACK()
```

### Event 65535.7

#### Metadata

| Field        | Value    |
|--------------|----------|
| Entrypoint   | 0x00A5   |
| Data Size    | 44 bytes |
| Instructions | 10       |

```
      00 01 02 03 04 05 06 07  08 09 0A 0B 0C 0D 0E 0F
      -- -- -- -- -- -- -- --  -- -- -- -- -- -- -- --
00A0:                32 00 80  BA 54 23 05 01 1A 80 1B       2...T#.....
00B0: 80 1C 80 1D 80 1F 00 1E  80 1F 80 20 80 1F 01 6F  ........... ...o
00C0: 4A 54 23 05 01 57 23 05  01 7B 54 23 05 01 6F 70  JT#..W#..{T#..op
00D0: 00                                                .               
```

#### Opcodes

```
  0: 0x00A5 [0x32] ExtData[1]->MainSpeed = 40* * 0.1
  1: 0x00A8 [0xBA] SET_ENTITY_POSITION(entity_id=Excenmille (ID: 17113940/0x01052354), pos_x=-0.282*, pos_z=-327.239*, pos_y=0.774*, direction=127.9°*)
  2: 0x00B5 [0x1F] MOVE_ENTITY: EventEntity moves to X=-3.216*, Z=-323.771*, Y=-0.074*
  3: 0x00BD [0x1F] MOVE_ENTITY: Update entity position (mode=1)
  4: 0x00BF [0x6F] WAIT_FRAME_DELAY: Yield until WaitTime reaches zero
  5: 0x00C0 [0x4A] Excenmille (ID: 17113940/0x01052354) looks at Zogbog (ID: 17113943/0x01052357)
  6: 0x00C9 [0x7B] Excenmille (ID: 17113940/0x01052354) stops talking
  7: 0x00CE [0x6F] WAIT_FRAME_DELAY: Yield until WaitTime reaches zero
  8: 0x00CF [0x70] WAIT_ENTITY_RENDER_FLAG: Wait while EventEntity->Render.Flags3 bit 2 is set (cancel turn if not)
  9: 0x00D0 [0x00] END_REQSTACK()
```

### Event 211

#### Metadata

| Field        | Value   |
|--------------|---------|
| Entrypoint   | 0x00D1  |
| Data Size    | 1 bytes |
| Instructions | 1       |

```
      00 01 02 03 04 05 06 07  08 09 0A 0B 0C 0D 0E 0F
      -- -- -- -- -- -- -- --  -- -- -- -- -- -- -- --
00D0:    00                                              .              
```

#### Opcodes

```
  0: 0x00D1 [0x00] END_REQSTACK()
```

### Event 212

#### Metadata

| Field        | Value   |
|--------------|---------|
| Entrypoint   | 0x00D2  |
| Data Size    | 1 bytes |
| Instructions | 1       |

```
      00 01 02 03 04 05 06 07  08 09 0A 0B 0C 0D 0E 0F
      -- -- -- -- -- -- -- --  -- -- -- -- -- -- -- --
00D0:       00                                            .             
```

#### Opcodes

```
  0: 0x00D2 [0x00] END_REQSTACK()
```

### Event 214

#### Metadata

| Field        | Value   |
|--------------|---------|
| Entrypoint   | 0x00D3  |
| Data Size    | 1 bytes |
| Instructions | 1       |

```
      00 01 02 03 04 05 06 07  08 09 0A 0B 0C 0D 0E 0F
      -- -- -- -- -- -- -- --  -- -- -- -- -- -- -- --
00D0:          00                                          .            
```

#### Opcodes

```
  0: 0x00D3 [0x00] END_REQSTACK()
```

### Event 65535.8

#### Metadata

| Field        | Value    |
|--------------|----------|
| Entrypoint   | 0x00D4   |
| Data Size    | 14 bytes |
| Instructions | 4        |

```
      00 01 02 03 04 05 06 07  08 09 0A 0B 0C 0D 0E 0F
      -- -- -- -- -- -- -- --  -- -- -- -- -- -- -- --
00D0:             32 00 80 1F  00 21 80 22 80 23 80 1F      2....!.".#..
00E0: 01 00                                             ..              
```

#### Opcodes

```
  0: 0x00D4 [0x32] ExtData[1]->MainSpeed = 40* * 0.1
  1: 0x00D7 [0x1F] MOVE_ENTITY: EventEntity moves to X=398.708*, Z=423.626*, Y=0.919*
  2: 0x00DF [0x1F] MOVE_ENTITY: Update entity position (mode=1)
  3: 0x00E1 [0x00] END_REQSTACK()
```

### Event 215

#### Metadata

| Field        | Value   |
|--------------|---------|
| Entrypoint   | 0x00E2  |
| Data Size    | 1 bytes |
| Instructions | 1       |

```
      00 01 02 03 04 05 06 07  08 09 0A 0B 0C 0D 0E 0F
      -- -- -- -- -- -- -- --  -- -- -- -- -- -- -- --
00E0:       00                                            .             
```

#### Opcodes

```
  0: 0x00E2 [0x00] END_REQSTACK()
```

### Event 65535.9

#### Metadata

| Field        | Value    |
|--------------|----------|
| Entrypoint   | 0x00E3   |
| Data Size    | 35 bytes |
| Instructions | 9        |

```
      00 01 02 03 04 05 06 07  08 09 0A 0B 0C 0D 0E 0F
      -- -- -- -- -- -- -- --  -- -- -- -- -- -- -- --
00E0:          03 00 00 25 10  03 01 00 27 10 03 02 00     ...%....'....
00F0: 26 10 03 03 00 28 10 32  00 80 1F 00 00 00 01 00  &....(.2........
0100: 02 00 1F 01 6F 00                                 ....o.          
```

#### Opcodes

```
  0: 0x00E3 [0x03] ExtData[1]->WorkLocal[0] = Work_Zone[37]
  1: 0x00E8 [0x03] ExtData[1]->WorkLocal[1] = Work_Zone[39]
  2: 0x00ED [0x03] ExtData[1]->WorkLocal[2] = Work_Zone[38]
  3: 0x00F2 [0x03] ExtData[1]->WorkLocal[3] = Work_Zone[40]
  4: 0x00F7 [0x32] ExtData[1]->MainSpeed = 40* * 0.1
  5: 0x00FA [0x1F] MOVE_ENTITY: EventEntity moves to X=ExtData[1]->WorkLocal[0], Z=ExtData[1]->WorkLocal[1], Y=ExtData[1]->WorkLocal[2]
  6: 0x0102 [0x1F] MOVE_ENTITY: Update entity position (mode=1)
  7: 0x0104 [0x6F] WAIT_FRAME_DELAY: Yield until WaitTime reaches zero
  8: 0x0105 [0x00] END_REQSTACK()
```

### Event 65535.10

#### Metadata

| Field        | Value    |
|--------------|----------|
| Entrypoint   | 0x0106   |
| Data Size    | 35 bytes |
| Instructions | 9        |

```
      00 01 02 03 04 05 06 07  08 09 0A 0B 0C 0D 0E 0F
      -- -- -- -- -- -- -- --  -- -- -- -- -- -- -- --
0100:                   03 00  00 25 10 03 01 00 27 10        ...%....'.
0110: 03 02 00 26 10 03 03 00  28 10 32 24 80 1F 00 00  ...&....(.2$....
0120: 00 01 00 02 00 1F 01 6F  00                       .......o.       
```

#### Opcodes

```
  0: 0x0106 [0x03] ExtData[1]->WorkLocal[0] = Work_Zone[37]
  1: 0x010B [0x03] ExtData[1]->WorkLocal[1] = Work_Zone[39]
  2: 0x0110 [0x03] ExtData[1]->WorkLocal[2] = Work_Zone[38]
  3: 0x0115 [0x03] ExtData[1]->WorkLocal[3] = Work_Zone[40]
  4: 0x011A [0x32] ExtData[1]->MainSpeed = 13* * 0.1
  5: 0x011D [0x1F] MOVE_ENTITY: EventEntity moves to X=ExtData[1]->WorkLocal[0], Z=ExtData[1]->WorkLocal[1], Y=ExtData[1]->WorkLocal[2]
  6: 0x0125 [0x1F] MOVE_ENTITY: Update entity position (mode=1)
  7: 0x0127 [0x6F] WAIT_FRAME_DELAY: Yield until WaitTime reaches zero
  8: 0x0128 [0x00] END_REQSTACK()
```

### Event 65535.11

#### Metadata

| Field        | Value    |
|--------------|----------|
| Entrypoint   | 0x0129   |
| Data Size    | 14 bytes |
| Instructions | 4        |

```
      00 01 02 03 04 05 06 07  08 09 0A 0B 0C 0D 0E 0F
      -- -- -- -- -- -- -- --  -- -- -- -- -- -- -- --
0120:                             32 00 80 1F 00 25 80           2....%.
0130: 26 80 27 80 1F 01 00                              &.'....         
```

#### Opcodes

```
  0: 0x0129 [0x32] ExtData[1]->MainSpeed = 40* * 0.1
  1: 0x012C [0x1F] MOVE_ENTITY: EventEntity moves to X=399.817*, Z=423.422*, Y=0.999*
  2: 0x0134 [0x1F] MOVE_ENTITY: Update entity position (mode=1)
  3: 0x0136 [0x00] END_REQSTACK()
```

### Event 65535.12

#### Metadata

| Field        | Value    |
|--------------|----------|
| Entrypoint   | 0x0137   |
| Data Size    | 24 bytes |
| Instructions | 6        |

```
      00 01 02 03 04 05 06 07  08 09 0A 0B 0C 0D 0E 0F
      -- -- -- -- -- -- -- --  -- -- -- -- -- -- -- --
0130:                      32  00 80 1F 00 28 80 29 80         2....(.).
0140: 2A 80 1F 01 1F 00 2B 80  2C 80 2D 80 1F 01 00     *.....+.,.-.... 
```

#### Opcodes

```
  0: 0x0137 [0x32] ExtData[1]->MainSpeed = 40* * 0.1
  1: 0x013A [0x1F] MOVE_ENTITY: EventEntity moves to X=402.914*, Z=405.919*, Y=-0.289*
  2: 0x0142 [0x1F] MOVE_ENTITY: Update entity position (mode=1)
  3: 0x0144 [0x1F] MOVE_ENTITY: EventEntity moves to X=406.196*, Z=400.295*, Y=0.000*
  4: 0x014C [0x1F] MOVE_ENTITY: Update entity position (mode=1)
  5: 0x014E [0x00] END_REQSTACK()
```

### Event 65535.13

#### Metadata

| Field        | Value    |
|--------------|----------|
| Entrypoint   | 0x014F   |
| Data Size    | 22 bytes |
| Instructions | 6        |

```
      00 01 02 03 04 05 06 07  08 09 0A 0B 0C 0D 0E 0F
      -- -- -- -- -- -- -- --  -- -- -- -- -- -- -- --
0140:                                               32                 2
0150: 00 80 1F 00 2E 80 2F 80  30 80 1F 01 1E 56 23 05  ....../.0....V#.
0160: 01 1C 31 80 00                                    ..1..           
```

#### Opcodes

```
  0: 0x014F [0x32] ExtData[1]->MainSpeed = 40* * 0.1
  1: 0x0152 [0x1F] MOVE_ENTITY: EventEntity moves to X=-447.856*, Z=-469.296*, Y=0.258*
  2: 0x015A [0x1F] MOVE_ENTITY: Update entity position (mode=1)
  3: 0x015C [0x1E] EventEntity looks at Zogbog (ID: 17113942/0x01052356) and starts talking
  4: 0x0161 [0x1C] WAIT(30* ticks)
  5: 0x0164 [0x00] END_REQSTACK()
```

### Event 65535.14

#### Metadata

| Field        | Value    |
|--------------|----------|
| Entrypoint   | 0x0165   |
| Data Size    | 15 bytes |
| Instructions | 5        |

```
      00 01 02 03 04 05 06 07  08 09 0A 0B 0C 0D 0E 0F
      -- -- -- -- -- -- -- --  -- -- -- -- -- -- -- --
0160:                32 00 80  1F 00 32 80 33 80 34 80       2....2.3.4.
0170: 1F 01 6F 00                                       ..o.            
```

#### Opcodes

```
  0: 0x0165 [0x32] ExtData[1]->MainSpeed = 40* * 0.1
  1: 0x0168 [0x1F] MOVE_ENTITY: EventEntity moves to X=-413.973*, Z=-457.229*, Y=0.299*
  2: 0x0170 [0x1F] MOVE_ENTITY: Update entity position (mode=1)
  3: 0x0172 [0x6F] WAIT_FRAME_DELAY: Yield until WaitTime reaches zero
  4: 0x0173 [0x00] END_REQSTACK()
```

### Event 65535.15

#### Metadata

| Field        | Value    |
|--------------|----------|
| Entrypoint   | 0x0174   |
| Data Size    | 14 bytes |
| Instructions | 4        |

```
      00 01 02 03 04 05 06 07  08 09 0A 0B 0C 0D 0E 0F
      -- -- -- -- -- -- -- --  -- -- -- -- -- -- -- --
0170:             32 24 80 1F  00 35 80 36 80 37 80 1F      2$...5.6.7..
0180: 01 00                                             ..              
```

#### Opcodes

```
  0: 0x0174 [0x32] ExtData[1]->MainSpeed = 13* * 0.1
  1: 0x0177 [0x1F] MOVE_ENTITY: EventEntity moves to X=-451.182*, Z=-467.866*, Y=0.078*
  2: 0x017F [0x1F] MOVE_ENTITY: Update entity position (mode=1)
  3: 0x0181 [0x00] END_REQSTACK()
```

### Event 65535.16

#### Metadata

| Field        | Value    |
|--------------|----------|
| Entrypoint   | 0x0182   |
| Data Size    | 27 bytes |
| Instructions | 7        |

```
      00 01 02 03 04 05 06 07  08 09 0A 0B 0C 0D 0E 0F
      -- -- -- -- -- -- -- --  -- -- -- -- -- -- -- --
0180:       32 24 80 1F 00 38  80 39 80 3A 80 1F 01 1E    2$...8.9.:....
0190: F0 FF FF 7F 7B F8 FF FF  7F 1C 31 80 00           ....{.....1..   
```

#### Opcodes

```
  0: 0x0182 [0x32] ExtData[1]->MainSpeed = 13* * 0.1
  1: 0x0185 [0x1F] MOVE_ENTITY: EventEntity moves to X=-444.329*, Z=-470.521*, Y=0.300*
  2: 0x018D [0x1F] MOVE_ENTITY: Update entity position (mode=1)
  3: 0x018F [0x1E] EventEntity looks at LocalPlayer and starts talking
  4: 0x0194 [0x7B] EventEntity stops talking
  5: 0x0199 [0x1C] WAIT(30* ticks)
  6: 0x019C [0x00] END_REQSTACK()
```

### Event 65535.17

#### Metadata

| Field        | Value    |
|--------------|----------|
| Entrypoint   | 0x019D   |
| Data Size    | 14 bytes |
| Instructions | 4        |

```
      00 01 02 03 04 05 06 07  08 09 0A 0B 0C 0D 0E 0F
      -- -- -- -- -- -- -- --  -- -- -- -- -- -- -- --
0190:                                         32 00 80               2..
01A0: 1F 00 3B 80 3C 80 3D 80  1F 01 00                 ..;.<.=....     
```

#### Opcodes

```
  0: 0x019D [0x32] ExtData[1]->MainSpeed = 40* * 0.1
  1: 0x01A0 [0x1F] MOVE_ENTITY: EventEntity moves to X=-442.594*, Z=-465.970*, Y=0.599*
  2: 0x01A8 [0x1F] MOVE_ENTITY: Update entity position (mode=1)
  3: 0x01AA [0x00] END_REQSTACK()
```

### Event 65535.18

#### Metadata

| Field        | Value    |
|--------------|----------|
| Entrypoint   | 0x01AB   |
| Data Size    | 34 bytes |
| Instructions | 4        |

```
      00 01 02 03 04 05 06 07  08 09 0A 0B 0C 0D 0E 0F
      -- -- -- -- -- -- -- --  -- -- -- -- -- -- -- --
01A0:                                   1C 3E 80 5B 3F             .>.[?
01B0: 80 54 23 05 01 54 23 05  01 66 72 69 30 5B 40 80  .T#..T#..fri0[@.
01C0: 79 23 05 01 79 23 05 01  6C 72 6B 79 00           y#..y#..lrky.   
```

#### Opcodes

```
  0: 0x01AB [0x1C] WAIT(90* ticks)
  1: 0x01AE [0x5B] LOAD_EXT_SCHEDULER: Load scheduler "fri0" with entities [Excenmille (ID: 17113940/0x01052354), Excenmille (ID: 17113940/0x01052354)], work=2659*
  2: 0x01BD [0x5B] LOAD_EXT_SCHEDULER: Load scheduler "lrky" with entities [Cyranuce (ID: 17113977/0x01052379), Cyranuce (ID: 17113977/0x01052379)], work=2444*
  3: 0x01CC [0x00] END_REQSTACK()
```
