# 17113997

## Common Data

| Field            | Value                      |
|------------------|----------------------------|
| Zone             | Jugner Forest [S] (ID: 82) |
| Block Size       | 328 bytes                  |
| Total Events     | 9                          |
| References Count | 25                         |

## List of Events

| Event ID                 | Entrypoint   |   Size |   Instructions |
|--------------------------|--------------|--------|----------------|
| [65535](#event-65535)    | 0x0000       |      1 |              1 |
| [65535.1](#event-655351) | 0x0001       |     35 |              9 |
| [65535.2](#event-655352) | 0x0024       |     35 |              9 |
| [215](#event-215)        | 0x0047       |      1 |              1 |
| [65535.3](#event-655353) | 0x0048       |     26 |              7 |
| [65535.4](#event-655354) | 0x0062       |     24 |              6 |
| [65535.5](#event-655355) | 0x007A       |     14 |              4 |
| [65535.6](#event-655356) | 0x0088       |     24 |              6 |
| [65535.7](#event-655357) | 0x00A0       |     14 |              4 |

## DAT References (imed_data)

|   Index | Hex Value   |   Dec Value |
|---------|-------------|-------------|
|       0 | 0x0028      |          40 |
|       1 | 0x000D      |          13 |
|       2 | 0xFFF94F9D  |  4294528925 |
|       3 | 0xFFF8CE3A  |  4294495802 |
|       4 | 0x00DF      |         223 |
|       5 | 0x0973      |        2419 |
|       6 | 0x001E      |          30 |
|       7 | 0xFFFA42D4  |  4294591188 |
|       8 | 0xFFF985AC  |  4294542764 |
|       9 | 0xFFFFFD2A  |  4294966570 |
|      10 | 0xFFFA2D51  |  4294585681 |
|      11 | 0xFFF97809  |  4294539273 |
|      12 | 0xFFFFFED2  |  4294966994 |
|      13 | 0xFFF8E27D  |  4294500989 |
|      14 | 0xFFF9D4F7  |  4294563063 |
|      15 | 0x0332      |         818 |
|      16 | 0xFFF9FAB5  |  4294572725 |
|      17 | 0xFFF95731  |  4294530865 |
|      18 | 0x0046      |          70 |
|      19 | 0xFFFA23C9  |  4294583241 |
|      20 | 0xFFF984C6  |  4294542534 |
|      21 | 0xFFFFFE69  |  4294966889 |
|      22 | 0xFFF9C54E  |  4294559054 |
|      23 | 0xFFF9A6B5  |  4294551221 |
|      24 | 0x047B      |        1147 |

## Events

### Event 65535

#### Metadata

| Field        | Value   |
|--------------|---------|
| Entrypoint   | 0x0000  |
| Data Size    | 1 bytes |
| Instructions | 1       |

```
      00 01 02 03 04 05 06 07  08 09 0A 0B 0C 0D 0E 0F
      -- -- -- -- -- -- -- --  -- -- -- -- -- -- -- --
0000: 00                                                .               
```

#### Opcodes

```
  0: 0x0000 [0x00] END_REQSTACK()
```

### Event 65535.1

#### Metadata

| Field        | Value    |
|--------------|----------|
| Entrypoint   | 0x0001   |
| Data Size    | 35 bytes |
| Instructions | 9        |

```
      00 01 02 03 04 05 06 07  08 09 0A 0B 0C 0D 0E 0F
      -- -- -- -- -- -- -- --  -- -- -- -- -- -- -- --
0000:    03 00 00 25 10 03 01  00 27 10 03 02 00 26 10   ...%....'....&.
0010: 03 03 00 28 10 32 00 80  1F 00 00 00 01 00 02 00  ...(.2..........
0020: 1F 01 6F 00                                       ..o.            
```

#### Opcodes

```
  0: 0x0001 [0x03] ExtData[1]->WorkLocal[0] = Work_Zone[37]
  1: 0x0006 [0x03] ExtData[1]->WorkLocal[1] = Work_Zone[39]
  2: 0x000B [0x03] ExtData[1]->WorkLocal[2] = Work_Zone[38]
  3: 0x0010 [0x03] ExtData[1]->WorkLocal[3] = Work_Zone[40]
  4: 0x0015 [0x32] ExtData[1]->MainSpeed = 40* * 0.1
  5: 0x0018 [0x1F] MOVE_ENTITY: EventEntity moves to X=ExtData[1]->WorkLocal[0], Z=ExtData[1]->WorkLocal[1], Y=ExtData[1]->WorkLocal[2]
  6: 0x0020 [0x1F] MOVE_ENTITY: Update entity position (mode=1)
  7: 0x0022 [0x6F] WAIT_FRAME_DELAY: Yield until WaitTime reaches zero
  8: 0x0023 [0x00] END_REQSTACK()
```

### Event 65535.2

#### Metadata

| Field        | Value    |
|--------------|----------|
| Entrypoint   | 0x0024   |
| Data Size    | 35 bytes |
| Instructions | 9        |

```
      00 01 02 03 04 05 06 07  08 09 0A 0B 0C 0D 0E 0F
      -- -- -- -- -- -- -- --  -- -- -- -- -- -- -- --
0020:             03 00 00 25  10 03 01 00 27 10 03 02      ...%....'...
0030: 00 26 10 03 03 00 28 10  32 01 80 1F 00 00 00 01  .&....(.2.......
0040: 00 02 00 1F 01 6F 00                              .....o.         
```

#### Opcodes

```
  0: 0x0024 [0x03] ExtData[1]->WorkLocal[0] = Work_Zone[37]
  1: 0x0029 [0x03] ExtData[1]->WorkLocal[1] = Work_Zone[39]
  2: 0x002E [0x03] ExtData[1]->WorkLocal[2] = Work_Zone[38]
  3: 0x0033 [0x03] ExtData[1]->WorkLocal[3] = Work_Zone[40]
  4: 0x0038 [0x32] ExtData[1]->MainSpeed = 13* * 0.1
  5: 0x003B [0x1F] MOVE_ENTITY: EventEntity moves to X=ExtData[1]->WorkLocal[0], Z=ExtData[1]->WorkLocal[1], Y=ExtData[1]->WorkLocal[2]
  6: 0x0043 [0x1F] MOVE_ENTITY: Update entity position (mode=1)
  7: 0x0045 [0x6F] WAIT_FRAME_DELAY: Yield until WaitTime reaches zero
  8: 0x0046 [0x00] END_REQSTACK()
```

### Event 215

#### Metadata

| Field        | Value   |
|--------------|---------|
| Entrypoint   | 0x0047  |
| Data Size    | 1 bytes |
| Instructions | 1       |

```
      00 01 02 03 04 05 06 07  08 09 0A 0B 0C 0D 0E 0F
      -- -- -- -- -- -- -- --  -- -- -- -- -- -- -- --
0040:                      00                                  .        
```

#### Opcodes

```
  0: 0x0047 [0x00] END_REQSTACK()
```

### Event 65535.3

#### Metadata

| Field        | Value    |
|--------------|----------|
| Entrypoint   | 0x0048   |
| Data Size    | 26 bytes |
| Instructions | 7        |

```
      00 01 02 03 04 05 06 07  08 09 0A 0B 0C 0D 0E 0F
      -- -- -- -- -- -- -- --  -- -- -- -- -- -- -- --
0040:                          33 01 32 00 80 5A 00 02          3.2..Z..
0050: 80 03 80 04 80 5A 01 4B  F8 FF FF 7F 05 80 1C 06  .....Z.K........
0060: 80 00                                             ..              
```

#### Opcodes

```
  0: 0x0048 [0x33] EventEntity->Render.Flags0 |= 0x200000 // Bit 21 (flag=0x01)
  1: 0x004A [0x32] ExtData[1]->MainSpeed = 40* * 0.1
  2: 0x004D [0x5A] UPDATE_EVENT_POSITION: Set EventEntity MovePosition to X=-438.371*, Z=-471.494*, Y=0.223*
  3: 0x0055 [0x5A] UPDATE_EVENT_POSITION: Move EventEntity incrementally towards MovePosition
  4: 0x0057 [0x4B] UPDATE_ENTITY_YAW(entity=EventEntity, yaw=13.3°*)
  5: 0x005E [0x1C] WAIT(30* ticks)
  6: 0x0061 [0x00] END_REQSTACK()
```

### Event 65535.4

#### Metadata

| Field        | Value    |
|--------------|----------|
| Entrypoint   | 0x0062   |
| Data Size    | 24 bytes |
| Instructions | 6        |

```
      00 01 02 03 04 05 06 07  08 09 0A 0B 0C 0D 0E 0F
      -- -- -- -- -- -- -- --  -- -- -- -- -- -- -- --
0060:       32 00 80 5A 00 07  80 08 80 09 80 5A 01 5A    2..Z.......Z.Z
0070: 00 0A 80 0B 80 0C 80 5A  01 00                    .......Z..      
```

#### Opcodes

```
  0: 0x0062 [0x32] ExtData[1]->MainSpeed = 40* * 0.1
  1: 0x0065 [0x5A] UPDATE_EVENT_POSITION: Set EventEntity MovePosition to X=-376.108*, Z=-424.532*, Y=-0.726*
  2: 0x006D [0x5A] UPDATE_EVENT_POSITION: Move EventEntity incrementally towards MovePosition
  3: 0x006F [0x5A] UPDATE_EVENT_POSITION: Set EventEntity MovePosition to X=-381.615*, Z=-428.023*, Y=-0.302*
  4: 0x0077 [0x5A] UPDATE_EVENT_POSITION: Move EventEntity incrementally towards MovePosition
  5: 0x0079 [0x00] END_REQSTACK()
```

### Event 65535.5

#### Metadata

| Field        | Value    |
|--------------|----------|
| Entrypoint   | 0x007A   |
| Data Size    | 14 bytes |
| Instructions | 4        |

```
      00 01 02 03 04 05 06 07  08 09 0A 0B 0C 0D 0E 0F
      -- -- -- -- -- -- -- --  -- -- -- -- -- -- -- --
0070:                                32 00 80 5A 00 0D            2..Z..
0080: 80 0E 80 0F 80 5A 01 00                           .....Z..        
```

#### Opcodes

```
  0: 0x007A [0x32] ExtData[1]->MainSpeed = 40* * 0.1
  1: 0x007D [0x5A] UPDATE_EVENT_POSITION: Set EventEntity MovePosition to X=-466.307*, Z=-404.233*, Y=0.818*
  2: 0x0085 [0x5A] UPDATE_EVENT_POSITION: Move EventEntity incrementally towards MovePosition
  3: 0x0087 [0x00] END_REQSTACK()
```

### Event 65535.6

#### Metadata

| Field        | Value    |
|--------------|----------|
| Entrypoint   | 0x0088   |
| Data Size    | 24 bytes |
| Instructions | 6        |

```
      00 01 02 03 04 05 06 07  08 09 0A 0B 0C 0D 0E 0F
      -- -- -- -- -- -- -- --  -- -- -- -- -- -- -- --
0080:                          32 00 80 5A 00 10 80 11          2..Z....
0090: 80 12 80 5A 01 5A 00 13  80 14 80 15 80 5A 01 00  ...Z.Z.......Z..
```

#### Opcodes

```
  0: 0x0088 [0x32] ExtData[1]->MainSpeed = 40* * 0.1
  1: 0x008B [0x5A] UPDATE_EVENT_POSITION: Set EventEntity MovePosition to X=-394.571*, Z=-436.431*, Y=0.070*
  2: 0x0093 [0x5A] UPDATE_EVENT_POSITION: Move EventEntity incrementally towards MovePosition
  3: 0x0095 [0x5A] UPDATE_EVENT_POSITION: Set EventEntity MovePosition to X=-384.055*, Z=-424.762*, Y=-0.407*
  4: 0x009D [0x5A] UPDATE_EVENT_POSITION: Move EventEntity incrementally towards MovePosition
  5: 0x009F [0x00] END_REQSTACK()
```

### Event 65535.7

#### Metadata

| Field        | Value    |
|--------------|----------|
| Entrypoint   | 0x00A0   |
| Data Size    | 14 bytes |
| Instructions | 4        |

```
      00 01 02 03 04 05 06 07  08 09 0A 0B 0C 0D 0E 0F
      -- -- -- -- -- -- -- --  -- -- -- -- -- -- -- --
00A0: 32 00 80 5A 00 16 80 17  80 18 80 5A 01 00        2..Z.......Z..  
```

#### Opcodes

```
  0: 0x00A0 [0x32] ExtData[1]->MainSpeed = 40* * 0.1
  1: 0x00A3 [0x5A] UPDATE_EVENT_POSITION: Set EventEntity MovePosition to X=-408.242*, Z=-416.075*, Y=1.147*
  2: 0x00AB [0x5A] UPDATE_EVENT_POSITION: Move EventEntity incrementally towards MovePosition
  3: 0x00AD [0x00] END_REQSTACK()
```
