# 17113977 - Cyranuce

## Common Data

| Field            | Value                      |
|------------------|----------------------------|
| Zone             | Jugner Forest [S] (ID: 82) |
| Block Size       | 568 bytes                  |
| Total Events     | 18                         |
| References Count | 35                         |

## List of Events

| Event ID                   | Entrypoint   |   Size |   Instructions |
|----------------------------|--------------|--------|----------------|
| [65535](#event-65535)      | 0x0000       |      1 |              1 |
| [65535.1](#event-655351)   | 0x0001       |     35 |              9 |
| [65535.2](#event-655352)   | 0x0024       |     35 |              9 |
| [211](#event-211)          | 0x0047       |      1 |              1 |
| [212](#event-212)          | 0x0048       |      1 |              1 |
| [213](#event-213)          | 0x0049       |      1 |              1 |
| [214](#event-214)          | 0x004A       |      1 |              1 |
| [65535.3](#event-655353)   | 0x004B       |     43 |              7 |
| [65535.4](#event-655354)   | 0x0076       |     14 |              4 |
| [65535.5](#event-655355)   | 0x0084       |     15 |              5 |
| [65535.6](#event-655356)   | 0x0093       |     27 |              7 |
| [65535.7](#event-655357)   | 0x00AE       |     43 |              7 |
| [65535.8](#event-655358)   | 0x00D9       |     51 |              9 |
| [215](#event-215)          | 0x010C       |      1 |              1 |
| [65535.9](#event-655359)   | 0x010D       |     14 |              4 |
| [65535.10](#event-6553510) | 0x011B       |     22 |              6 |
| [65535.11](#event-6553511) | 0x0131       |     24 |              6 |
| [65535.12](#event-6553512) | 0x0149       |     11 |              3 |

## DAT References (imed_data)

|   Index | Hex Value   |   Dec Value |
|---------|-------------|-------------|
|       0 | 0x0028      |          40 |
|       1 | 0x000D      |          13 |
|       2 | 0x66796     |      419734 |
|       3 | 0x57282     |      356994 |
|       4 | 0x0070      |         112 |
|       5 | 0x098C      |        2444 |
|       6 | 0x66195     |      418197 |
|       7 | 0x5BCA2     |      375970 |
|       8 | 0xFFFFFD96  |  4294966678 |
|       9 | 0x66AF3     |      420595 |
|      10 | 0x5CDF8     |      380408 |
|      11 | 0xFFFFFCAD  |  4294966445 |
|      12 | 0x619E8     |      399848 |
|      13 | 0x64ADD     |      412381 |
|      14 | 0x03E7      |         999 |
|      15 | 0x001E      |          30 |
|      16 | 0x61B2E     |      400174 |
|      17 | 0x65F9E     |      417694 |
|      18 | 0x0514      |        1300 |
|      19 | 0x092D      |        2349 |
|      20 | 0x0078      |         120 |
|      21 | 0x0007      |           7 |
|      22 | 0x0050      |          80 |
|      23 | 0x61767     |      399207 |
|      24 | 0x6534E     |      414542 |
|      25 | 0xFFF92ABF  |  4294519487 |
|      26 | 0xFFF8DE55  |  4294499925 |
|      27 | 0x00D6      |         214 |
|      28 | 0xFFF93BD1  |  4294523857 |
|      29 | 0xFFF8DB30  |  4294499120 |
|      30 | 0x0179      |         377 |
|      31 | 0x0CD0      |        3280 |
|      32 | 0xFFFA7362  |  4294603618 |
|      33 | 0xFFFB35CE  |  4294653390 |
|      34 | 0x0067      |         103 |

## Events

### Event 65535

#### Metadata

| Field        | Value   |
|--------------|---------|
| Entrypoint   | 0x0000  |
| Data Size    | 1 bytes |
| Instructions | 1       |

```
      00 01 02 03 04 05 06 07  08 09 0A 0B 0C 0D 0E 0F
      -- -- -- -- -- -- -- --  -- -- -- -- -- -- -- --
0000: 00                                                .               
```

#### Opcodes

```
  0: 0x0000 [0x00] END_REQSTACK()
```

### Event 65535.1

#### Metadata

| Field        | Value    |
|--------------|----------|
| Entrypoint   | 0x0001   |
| Data Size    | 35 bytes |
| Instructions | 9        |

```
      00 01 02 03 04 05 06 07  08 09 0A 0B 0C 0D 0E 0F
      -- -- -- -- -- -- -- --  -- -- -- -- -- -- -- --
0000:    03 00 00 25 10 03 01  00 27 10 03 02 00 26 10   ...%....'....&.
0010: 03 03 00 28 10 32 00 80  1F 00 00 00 01 00 02 00  ...(.2..........
0020: 1F 01 6F 00                                       ..o.            
```

#### Opcodes

```
  0: 0x0001 [0x03] ExtData[1]->WorkLocal[0] = Work_Zone[37]
  1: 0x0006 [0x03] ExtData[1]->WorkLocal[1] = Work_Zone[39]
  2: 0x000B [0x03] ExtData[1]->WorkLocal[2] = Work_Zone[38]
  3: 0x0010 [0x03] ExtData[1]->WorkLocal[3] = Work_Zone[40]
  4: 0x0015 [0x32] ExtData[1]->MainSpeed = 40* * 0.1
  5: 0x0018 [0x1F] MOVE_ENTITY: EventEntity moves to X=ExtData[1]->WorkLocal[0], Z=ExtData[1]->WorkLocal[1], Y=ExtData[1]->WorkLocal[2]
  6: 0x0020 [0x1F] MOVE_ENTITY: Update entity position (mode=1)
  7: 0x0022 [0x6F] WAIT_FRAME_DELAY: Yield until WaitTime reaches zero
  8: 0x0023 [0x00] END_REQSTACK()
```

### Event 65535.2

#### Metadata

| Field        | Value    |
|--------------|----------|
| Entrypoint   | 0x0024   |
| Data Size    | 35 bytes |
| Instructions | 9        |

```
      00 01 02 03 04 05 06 07  08 09 0A 0B 0C 0D 0E 0F
      -- -- -- -- -- -- -- --  -- -- -- -- -- -- -- --
0020:             03 00 00 25  10 03 01 00 27 10 03 02      ...%....'...
0030: 00 26 10 03 03 00 28 10  32 01 80 1F 00 00 00 01  .&....(.2.......
0040: 00 02 00 1F 01 6F 00                              .....o.         
```

#### Opcodes

```
  0: 0x0024 [0x03] ExtData[1]->WorkLocal[0] = Work_Zone[37]
  1: 0x0029 [0x03] ExtData[1]->WorkLocal[1] = Work_Zone[39]
  2: 0x002E [0x03] ExtData[1]->WorkLocal[2] = Work_Zone[38]
  3: 0x0033 [0x03] ExtData[1]->WorkLocal[3] = Work_Zone[40]
  4: 0x0038 [0x32] ExtData[1]->MainSpeed = 13* * 0.1
  5: 0x003B [0x1F] MOVE_ENTITY: EventEntity moves to X=ExtData[1]->WorkLocal[0], Z=ExtData[1]->WorkLocal[1], Y=ExtData[1]->WorkLocal[2]
  6: 0x0043 [0x1F] MOVE_ENTITY: Update entity position (mode=1)
  7: 0x0045 [0x6F] WAIT_FRAME_DELAY: Yield until WaitTime reaches zero
  8: 0x0046 [0x00] END_REQSTACK()
```

### Event 211

#### Metadata

| Field        | Value   |
|--------------|---------|
| Entrypoint   | 0x0047  |
| Data Size    | 1 bytes |
| Instructions | 1       |

```
      00 01 02 03 04 05 06 07  08 09 0A 0B 0C 0D 0E 0F
      -- -- -- -- -- -- -- --  -- -- -- -- -- -- -- --
0040:                      00                                  .        
```

#### Opcodes

```
  0: 0x0047 [0x00] END_REQSTACK()
```

### Event 212

#### Metadata

| Field        | Value   |
|--------------|---------|
| Entrypoint   | 0x0048  |
| Data Size    | 1 bytes |
| Instructions | 1       |

```
      00 01 02 03 04 05 06 07  08 09 0A 0B 0C 0D 0E 0F
      -- -- -- -- -- -- -- --  -- -- -- -- -- -- -- --
0040:                          00                               .       
```

#### Opcodes

```
  0: 0x0048 [0x00] END_REQSTACK()
```

### Event 213

#### Metadata

| Field        | Value   |
|--------------|---------|
| Entrypoint   | 0x0049  |
| Data Size    | 1 bytes |
| Instructions | 1       |

```
      00 01 02 03 04 05 06 07  08 09 0A 0B 0C 0D 0E 0F
      -- -- -- -- -- -- -- --  -- -- -- -- -- -- -- --
0040:                             00                             .      
```

#### Opcodes

```
  0: 0x0049 [0x00] END_REQSTACK()
```

### Event 214

#### Metadata

| Field        | Value   |
|--------------|---------|
| Entrypoint   | 0x004A  |
| Data Size    | 1 bytes |
| Instructions | 1       |

```
      00 01 02 03 04 05 06 07  08 09 0A 0B 0C 0D 0E 0F
      -- -- -- -- -- -- -- --  -- -- -- -- -- -- -- --
0040:                                00                           .     
```

#### Opcodes

```
  0: 0x004A [0x00] END_REQSTACK()
```

### Event 65535.3

#### Metadata

| Field        | Value    |
|--------------|----------|
| Entrypoint   | 0x004B   |
| Data Size    | 43 bytes |
| Instructions | 7        |

```
      00 01 02 03 04 05 06 07  08 09 0A 0B 0C 0D 0E 0F
      -- -- -- -- -- -- -- --  -- -- -- -- -- -- -- --
0040:                                   32 00 80 1F 00             2....
0050: 02 80 03 80 04 80 1F 01  6F 5B 05 80 79 23 05 01  ........o[..y#..
0060: 79 23 05 01 6C 72 6B 79  53 79 23 05 01 79 23 05  y#..lrkySy#..y#.
0070: 01 6C 72 6B 79 00                                 .lrky.          
```

#### Opcodes

```
  0: 0x004B [0x32] ExtData[1]->MainSpeed = 40* * 0.1
  1: 0x004E [0x1F] MOVE_ENTITY: EventEntity moves to X=419.734*, Z=356.994*, Y=0.112*
  2: 0x0056 [0x1F] MOVE_ENTITY: Update entity position (mode=1)
  3: 0x0058 [0x6F] WAIT_FRAME_DELAY: Yield until WaitTime reaches zero
  4: 0x0059 [0x5B] LOAD_EXT_SCHEDULER: Load scheduler "lrky" with entities [Cyranuce (ID: 17113977/0x01052379), Cyranuce (ID: 17113977/0x01052379)], work=2444*
  5: 0x0068 [0x53] WAIT_SCHEDULER_TASK: Wait for scheduler "lrky" with entities [Cyranuce (ID: 17113977/0x01052379), Cyranuce (ID: 17113977/0x01052379)]
  6: 0x0075 [0x00] END_REQSTACK()
```

### Event 65535.4

#### Metadata

| Field        | Value    |
|--------------|----------|
| Entrypoint   | 0x0076   |
| Data Size    | 14 bytes |
| Instructions | 4        |

```
      00 01 02 03 04 05 06 07  08 09 0A 0B 0C 0D 0E 0F
      -- -- -- -- -- -- -- --  -- -- -- -- -- -- -- --
0070:                   32 00  80 1F 00 06 80 07 80 08        2.........
0080: 80 1F 01 00                                       ....            
```

#### Opcodes

```
  0: 0x0076 [0x32] ExtData[1]->MainSpeed = 40* * 0.1
  1: 0x0079 [0x1F] MOVE_ENTITY: EventEntity moves to X=418.197*, Z=375.970*, Y=-0.618*
  2: 0x0081 [0x1F] MOVE_ENTITY: Update entity position (mode=1)
  3: 0x0083 [0x00] END_REQSTACK()
```

### Event 65535.5

#### Metadata

| Field        | Value    |
|--------------|----------|
| Entrypoint   | 0x0084   |
| Data Size    | 15 bytes |
| Instructions | 5        |

```
      00 01 02 03 04 05 06 07  08 09 0A 0B 0C 0D 0E 0F
      -- -- -- -- -- -- -- --  -- -- -- -- -- -- -- --
0080:             32 00 80 1F  00 09 80 0A 80 0B 80 1F      2...........
0090: 01 6F 00                                          .o.             
```

#### Opcodes

```
  0: 0x0084 [0x32] ExtData[1]->MainSpeed = 40* * 0.1
  1: 0x0087 [0x1F] MOVE_ENTITY: EventEntity moves to X=420.595*, Z=380.408*, Y=-0.851*
  2: 0x008F [0x1F] MOVE_ENTITY: Update entity position (mode=1)
  3: 0x0091 [0x6F] WAIT_FRAME_DELAY: Yield until WaitTime reaches zero
  4: 0x0092 [0x00] END_REQSTACK()
```

### Event 65535.6

#### Metadata

| Field        | Value    |
|--------------|----------|
| Entrypoint   | 0x0093   |
| Data Size    | 27 bytes |
| Instructions | 7        |

```
      00 01 02 03 04 05 06 07  08 09 0A 0B 0C 0D 0E 0F
      -- -- -- -- -- -- -- --  -- -- -- -- -- -- -- --
0090:          32 00 80 1F 00  0C 80 0D 80 0E 80 1F 01     2............
00A0: 1E 54 23 05 01 7B F8 FF  FF 7F 1C 0F 80 00        .T#..{........  
```

#### Opcodes

```
  0: 0x0093 [0x32] ExtData[1]->MainSpeed = 40* * 0.1
  1: 0x0096 [0x1F] MOVE_ENTITY: EventEntity moves to X=399.848*, Z=412.381*, Y=0.999*
  2: 0x009E [0x1F] MOVE_ENTITY: Update entity position (mode=1)
  3: 0x00A0 [0x1E] EventEntity looks at Excenmille (ID: 17113940/0x01052354) and starts talking
  4: 0x00A5 [0x7B] EventEntity stops talking
  5: 0x00AA [0x1C] WAIT(30* ticks)
  6: 0x00AD [0x00] END_REQSTACK()
```

### Event 65535.7

#### Metadata

| Field        | Value    |
|--------------|----------|
| Entrypoint   | 0x00AE   |
| Data Size    | 43 bytes |
| Instructions | 7        |

```
      00 01 02 03 04 05 06 07  08 09 0A 0B 0C 0D 0E 0F
      -- -- -- -- -- -- -- --  -- -- -- -- -- -- -- --
00A0:                                            32 00                2.
00B0: 80 1F 00 10 80 11 80 0E  80 1F 01 6F 5B 12 80 79  ...........o[..y
00C0: 23 05 01 79 23 05 01 72  62 74 30 53 79 23 05 01  #..y#..rbt0Sy#..
00D0: 79 23 05 01 72 62 74 30  00                       y#..rbt0.       
```

#### Opcodes

```
  0: 0x00AE [0x32] ExtData[1]->MainSpeed = 40* * 0.1
  1: 0x00B1 [0x1F] MOVE_ENTITY: EventEntity moves to X=400.174*, Z=417.694*, Y=0.999*
  2: 0x00B9 [0x1F] MOVE_ENTITY: Update entity position (mode=1)
  3: 0x00BB [0x6F] WAIT_FRAME_DELAY: Yield until WaitTime reaches zero
  4: 0x00BC [0x5B] LOAD_EXT_SCHEDULER: Load scheduler "rbt0" with entities [Cyranuce (ID: 17113977/0x01052379), Cyranuce (ID: 17113977/0x01052379)], work=1300*
  5: 0x00CB [0x53] WAIT_SCHEDULER_TASK: Wait for scheduler "rbt0" with entities [Cyranuce (ID: 17113977/0x01052379), Cyranuce (ID: 17113977/0x01052379)]
  6: 0x00D8 [0x00] END_REQSTACK()
```

### Event 65535.8

#### Metadata

| Field        | Value    |
|--------------|----------|
| Entrypoint   | 0x00D9   |
| Data Size    | 51 bytes |
| Instructions | 9        |

```
      00 01 02 03 04 05 06 07  08 09 0A 0B 0C 0D 0E 0F
      -- -- -- -- -- -- -- --  -- -- -- -- -- -- -- --
00D0:                             5B 13 80 79 23 05 01           [..y#..
00E0: 79 23 05 01 79 65 73 30  1C 14 80 6E F0 FF FF 7F  y#..yes0...n....
00F0: 15 80 99 F0 FF FF 7F 1C  00 80 4A 79 23 05 01 F0  ..........Jy#...
0100: FF FF 7F 7B 79 23 05 01  1C 16 80 00              ...{y#......    
```

#### Opcodes

```
  0: 0x00D9 [0x5B] LOAD_EXT_SCHEDULER: Load scheduler "yes0" with entities [Cyranuce (ID: 17113977/0x01052379), Cyranuce (ID: 17113977/0x01052379)], work=2349*
  1: 0x00E8 [0x1C] WAIT(120* ticks)
  2: 0x00EB [0x6E] LocalPlayer uses emote 7*
  3: 0x00F2 [0x99] Wait for LocalPlayer animation to complete
  4: 0x00F7 [0x1C] WAIT(40* ticks)
  5: 0x00FA [0x4A] Cyranuce (ID: 17113977/0x01052379) looks at LocalPlayer
  6: 0x0103 [0x7B] Cyranuce (ID: 17113977/0x01052379) stops talking
  7: 0x0108 [0x1C] WAIT(80* ticks)
  8: 0x010B [0x00] END_REQSTACK()
```

### Event 215

#### Metadata

| Field        | Value   |
|--------------|---------|
| Entrypoint   | 0x010C  |
| Data Size    | 1 bytes |
| Instructions | 1       |

```
      00 01 02 03 04 05 06 07  08 09 0A 0B 0C 0D 0E 0F
      -- -- -- -- -- -- -- --  -- -- -- -- -- -- -- --
0100:                                      00                       .   
```

#### Opcodes

```
  0: 0x010C [0x00] END_REQSTACK()
```

### Event 65535.9

#### Metadata

| Field        | Value    |
|--------------|----------|
| Entrypoint   | 0x010D   |
| Data Size    | 14 bytes |
| Instructions | 4        |

```
      00 01 02 03 04 05 06 07  08 09 0A 0B 0C 0D 0E 0F
      -- -- -- -- -- -- -- --  -- -- -- -- -- -- -- --
0100:                                         32 00 80               2..
0110: 1F 00 17 80 18 80 0E 80  1F 01 00                 ...........     
```

#### Opcodes

```
  0: 0x010D [0x32] ExtData[1]->MainSpeed = 40* * 0.1
  1: 0x0110 [0x1F] MOVE_ENTITY: EventEntity moves to X=399.207*, Z=414.542*, Y=0.999*
  2: 0x0118 [0x1F] MOVE_ENTITY: Update entity position (mode=1)
  3: 0x011A [0x00] END_REQSTACK()
```

### Event 65535.10

#### Metadata

| Field        | Value    |
|--------------|----------|
| Entrypoint   | 0x011B   |
| Data Size    | 22 bytes |
| Instructions | 6        |

```
      00 01 02 03 04 05 06 07  08 09 0A 0B 0C 0D 0E 0F
      -- -- -- -- -- -- -- --  -- -- -- -- -- -- -- --
0110:                                   32 00 80 1F 00             2....
0120: 19 80 1A 80 1B 80 1F 01  1E 56 23 05 01 1C 0F 80  .........V#.....
0130: 00                                                .               
```

#### Opcodes

```
  0: 0x011B [0x32] ExtData[1]->MainSpeed = 40* * 0.1
  1: 0x011E [0x1F] MOVE_ENTITY: EventEntity moves to X=-447.809*, Z=-467.371*, Y=0.214*
  2: 0x0126 [0x1F] MOVE_ENTITY: Update entity position (mode=1)
  3: 0x0128 [0x1E] EventEntity looks at Zogbog (ID: 17113942/0x01052356) and starts talking
  4: 0x012D [0x1C] WAIT(30* ticks)
  5: 0x0130 [0x00] END_REQSTACK()
```

### Event 65535.11

#### Metadata

| Field        | Value    |
|--------------|----------|
| Entrypoint   | 0x0131   |
| Data Size    | 24 bytes |
| Instructions | 6        |

```
      00 01 02 03 04 05 06 07  08 09 0A 0B 0C 0D 0E 0F
      -- -- -- -- -- -- -- --  -- -- -- -- -- -- -- --
0130:    32 00 80 1F 00 1C 80  1D 80 1E 80 1F 01 4B F8   2............K.
0140: FF FF 7F 1F 80 1C 0F 80  00                       .........       
```

#### Opcodes

```
  0: 0x0131 [0x32] ExtData[1]->MainSpeed = 40* * 0.1
  1: 0x0134 [0x1F] MOVE_ENTITY: EventEntity moves to X=-443.439*, Z=-468.176*, Y=0.377*
  2: 0x013C [0x1F] MOVE_ENTITY: Update entity position (mode=1)
  3: 0x013E [0x4B] UPDATE_ENTITY_YAW(entity=EventEntity, yaw=18.0°*)
  4: 0x0145 [0x1C] WAIT(30* ticks)
  5: 0x0148 [0x00] END_REQSTACK()
```

### Event 65535.12

#### Metadata

| Field        | Value    |
|--------------|----------|
| Entrypoint   | 0x0149   |
| Data Size    | 11 bytes |
| Instructions | 3        |

```
      00 01 02 03 04 05 06 07  08 09 0A 0B 0C 0D 0E 0F
      -- -- -- -- -- -- -- --  -- -- -- -- -- -- -- --
0140:                             1F 00 20 80 21 80 22           .. .!."
0150: 80 1F 01 00                                       ....            
```

#### Opcodes

```
  0: 0x0149 [0x1F] MOVE_ENTITY: EventEntity moves to X=-363.678*, Z=-313.906*, Y=0.103*
  1: 0x0151 [0x1F] MOVE_ENTITY: Update entity position (mode=1)
  2: 0x0153 [0x00] END_REQSTACK()
```
