# 17113845

## Common Data

| Field            | Value                      |
|------------------|----------------------------|
| Zone             | Jugner Forest [S] (ID: 82) |
| Block Size       | 676 bytes                  |
| Total Events     | 2                          |
| References Count | 24                         |

## List of Events

| Event ID              | Entrypoint   |   Size |   Instructions |
|-----------------------|--------------|--------|----------------|
| [65535](#event-65535) | 0x0000       |      1 |              1 |
| [460](#event-460)     | 0x0001       |    552 |            102 |

## DAT References (imed_data)

|   Index | Hex Value   |   Dec Value |
|---------|-------------|-------------|
|       0 | 0x0000      |           0 |
|       1 | 0x0001      |           1 |
|       2 | 0x0002      |           2 |
|       3 | 0x0003      |           3 |
|       4 | 0x0005      |           5 |
|       5 | 0x0006      |           6 |
|       6 | 0x000B      |          11 |
|       7 | 0x000C      |          12 |
|       8 | 0x0011      |          17 |
|       9 | 0x0012      |          18 |
|      10 | 0x0017      |          23 |
|      11 | 0x0018      |          24 |
|      12 | 0x001D      |          29 |
|      13 | 0x003C      |          60 |
|      14 | 0x1CC4      |        7364 |
|      15 | 0x03E7      |         999 |
|      16 | 0x1CC5      |        7365 |
|      17 | 0x1CC6      |        7366 |
|      18 | 0x1CC7      |        7367 |
|      19 | 0x0032      |          50 |
|      20 | 0x0004      |           4 |
|      21 | 0x111110    |     1118480 |
|      22 | 0x1CCC      |        7372 |
|      23 | 0x1CC8      |        7368 |

## String References

- **7364**: Register for a union? [No./Yes.]
- **7365**: What will you do? [Nothing./Transfer to another union./Resign union membership.]
- **7366**: Your steadfast efforts have earned you a claim to share in your union's spoils of war. By [transferring to another union/resigning from your union], you will relinquish this right. It is not my place to question your decision, but I suggest you pay the matter due heed.
- **7367**: [Transfer unions/Resign from your current union]? [No./Yes.]
- **7368**: Register for which union? [None./Adder Union ($0 [member/members])./Bison Union ($1 [member/members])./Coyote Union ($2 [member/members])./Dhole Union ($3 [member/members])./Eland Union ($4 [member/members]).]
- **7372**: I am afraid that all unions are currently at their maximum enrollment, and unable to accept new recruits. For better or for worse, though, I suspect it shall not be long before we are in need of some new blood. Such is the nature of war...

## Events

### Event 65535

#### Metadata

| Field        | Value   |
|--------------|---------|
| Entrypoint   | 0x0000  |
| Data Size    | 1 bytes |
| Instructions | 1       |

```
      00 01 02 03 04 05 06 07  08 09 0A 0B 0C 0D 0E 0F
      -- -- -- -- -- -- -- --  -- -- -- -- -- -- -- --
0000: 00                                                .               
```

#### Opcodes

```
  0: 0x0000 [0x00] END_REQSTACK()
```

### Event 460

#### Metadata

| Field        | Value     |
|--------------|-----------|
| Entrypoint   | 0x0001    |
| Data Size    | 552 bytes |
| Instructions | 102       |

```
      00 01 02 03 04 05 06 07  08 09 0A 0B 0C 0D 0E 0F
      -- -- -- -- -- -- -- --  -- -- -- -- -- -- -- --
0000:    41 00 80 00 80 02 10  00 00 41 01 80 02 80 02   A........A.....
0010: 10 01 00 41 03 80 04 80  02 10 02 00 41 05 80 05  ...A........A...
0020: 80 02 10 03 00 41 00 80  04 80 03 10 04 00 41 05  .....A........A.
0030: 80 06 80 03 10 05 00 41  07 80 08 80 03 10 06 00  .......A........
0040: 41 09 80 0A 80 03 10 07  00 41 0B 80 0C 80 03 10  A........A......
0050: 08 00 20 01 1C 0D 80 03  09 00 00 80 02 00 00 00  .. .............
0060: 80 00 8F 00 24 0E 80 00  80 00 80 25 02 00 10 00  ....$......%....
0070: 80 00 7C 00 03 01 10 0F  80 01 8C 00 02 00 10 01  ..|.............
0080: 80 00 8C 00 03 09 00 01  80 01 8C 00 01 39 01 24  .............9.$
0090: 10 80 00 80 00 80 25 02  00 10 00 80 00 A7 00 03  ......%.........
00A0: 01 10 0F 80 01 39 01 02  00 10 01 80 00 F0 00 02  .....9..........
00B0: 03 00 01 80 00 C0 00 03  02 10 00 80 1D 11 80 23  ...............#
00C0: 03 02 10 00 80 24 12 80  00 80 00 80 25 02 00 10  .....$......%...
00D0: 00 80 00 DD 00 03 01 10  0F 80 01 ED 00 02 00 10  ................
00E0: 01 80 00 ED 00 03 09 00  01 80 01 ED 00 01 39 01  ..............9.
00F0: 02 00 10 02 80 00 39 01  02 03 00 01 80 00 09 01  ......9.........
0100: 03 02 10 01 80 1D 11 80  23 03 02 10 01 80 24 12  ........#.....$.
0110: 80 00 80 00 80 25 02 00  10 00 80 00 26 01 03 01  .....%......&...
0120: 10 0F 80 01 36 01 02 00  10 01 80 00 36 01 03 01  ....6.......6...
0130: 10 05 80 01 36 01 01 39  01 02 09 00 01 80 00 26  ....6..9.......&
0140: 02 03 0A 00 00 80 03 02  10 04 00 03 03 10 05 00  ................
0150: 03 04 10 06 00 03 05 10  07 00 03 06 10 08 00 02  ................
0160: 04 00 13 80 04 6E 01 3C  0A 00 01 80 01 80 02 05  .....n.<........
0170: 00 13 80 04 7D 01 3C 0A  00 02 80 01 80 02 06 00  ....}.<.........
0180: 13 80 04 8C 01 3C 0A 00  03 80 01 80 02 07 00 13  .....<..........
0190: 80 04 9B 01 3C 0A 00 14  80 01 80 02 08 00 13 80  ....<...........
01A0: 04 AA 01 3C 0A 00 04 80  01 80 02 0A 00 15 80 00  ...<............
01B0: BE 01 1D 16 80 23 03 01  10 0F 80 01 26 02 24 17  .....#......&.$.
01C0: 80 00 80 0A 00 25 02 00  10 00 80 00 D6 01 03 01  .....%..........
01D0: 10 0F 80 01 26 02 02 00  10 01 80 00 E6 01 03 01  ....&...........
01E0: 10 01 80 01 26 02 02 00  10 02 80 00 F6 01 03 01  ....&...........
01F0: 10 02 80 01 26 02 02 00  10 03 80 00 06 02 03 01  ....&...........
0200: 10 03 80 01 26 02 02 00  10 14 80 00 16 02 03 01  ....&...........
0210: 10 14 80 01 26 02 02 00  10 04 80 00 26 02 03 01  ....&.......&...
0220: 10 04 80 01 26 02 42 21  00                       ....&.B!.       
```

#### Opcodes

```
  0: 0x0001 [0x41] ExtData[1]->WorkLocal[0] = Work_Zone[2] (bits 0*-0*)
  1: 0x000A [0x41] ExtData[1]->WorkLocal[1] = Work_Zone[2] (bits 1*-2*)
  2: 0x0013 [0x41] ExtData[1]->WorkLocal[2] = Work_Zone[2] (bits 3*-5*)
  3: 0x001C [0x41] ExtData[1]->WorkLocal[3] = Work_Zone[2] (bits 6*-6*)
  4: 0x0025 [0x41] ExtData[1]->WorkLocal[4] = Work_Zone[3] (bits 0*-5*)
  5: 0x002E [0x41] ExtData[1]->WorkLocal[5] = Work_Zone[3] (bits 6*-11*)
  6: 0x0037 [0x41] ExtData[1]->WorkLocal[6] = Work_Zone[3] (bits 12*-17*)
  7: 0x0040 [0x41] ExtData[1]->WorkLocal[7] = Work_Zone[3] (bits 18*-23*)
  8: 0x0049 [0x41] ExtData[1]->WorkLocal[8] = Work_Zone[3] (bits 24*-29*)
  9: 0x0052 [0x20] SET_CLI_EVENT_UC_FLAG: Lock player control
 10: 0x0054 [0x1C] WAIT(60* ticks)
 11: 0x0057 [0x03] ExtData[1]->WorkLocal[9] = 0*
 12: 0x005C [0x02] IF !(ExtData[1]->WorkLocal[0] == 0*) GOTO 0x008F
 13: 0x0064 [0x24] CREATE_DIALOG(message_id=7364*, default_option=0*, option_flags=0*)
    → "Register for a union? [No./Yes.]"
 14: 0x006B [0x25] WAIT_DIALOG_SELECT()
 15: 0x006C [0x02] IF !(Work_Zone[0] == 0*) GOTO 0x007C
 16: 0x0074 [0x03] Work_Zone[1] = 999*
 17: 0x0079 [0x01] GOTO 0x008C
 18: 0x007C [0x02] IF !(Work_Zone[0] == 1*) GOTO 0x008C
 19: 0x0084 [0x03] ExtData[1]->WorkLocal[9] = 1*
 20: 0x0089 [0x01] GOTO 0x008C

SUBROUTINE_008C:
 21: 0x008C [0x01] GOTO 0x0139
 22: 0x008F [0x24] CREATE_DIALOG(message_id=7365*, default_option=0*, option_flags=0*)
    → "What will you do? [Nothing./Transfer to another union./Resign union membership.]"
 23: 0x0096 [0x25] WAIT_DIALOG_SELECT()
 24: 0x0097 [0x02] IF !(Work_Zone[0] == 0*) GOTO 0x00A7
 25: 0x009F [0x03] Work_Zone[1] = 999*
 26: 0x00A4 [0x01] GOTO 0x0139
 27: 0x00A7 [0x02] IF !(Work_Zone[0] == 1*) GOTO 0x00F0
 28: 0x00AF [0x02] IF !(ExtData[1]->WorkLocal[3] == 1*) GOTO 0x00C0
 29: 0x00B7 [0x03] Work_Zone[2] = 0*
 30: 0x00BC [0x1D] PRINT_EVENT_MESSAGE(message_id=7366*)
    → "Your steadfast efforts have earned you a claim to share in your union's spoils of war. By [transferring to another union/resigning from your union], you will relinquish this right. It is not my place to question your decision, but I suggest you pay the matter due heed."
 31: 0x00BF [0x23] WAIT_FOR_DIALOG_INTERACTION
 32: 0x00C0 [0x03] Work_Zone[2] = 0*
 33: 0x00C5 [0x24] CREATE_DIALOG(message_id=7367*, default_option=0*, option_flags=0*)
    → "[Transfer unions/Resign from your current union]? [No./Yes.]"
 34: 0x00CC [0x25] WAIT_DIALOG_SELECT()
 35: 0x00CD [0x02] IF !(Work_Zone[0] == 0*) GOTO 0x00DD
 36: 0x00D5 [0x03] Work_Zone[1] = 999*
 37: 0x00DA [0x01] GOTO 0x00ED
 38: 0x00DD [0x02] IF !(Work_Zone[0] == 1*) GOTO 0x00ED
 39: 0x00E5 [0x03] ExtData[1]->WorkLocal[9] = 1*
 40: 0x00EA [0x01] GOTO 0x00ED

SUBROUTINE_00ED:
 41: 0x00ED [0x01] GOTO 0x0139
 42: 0x00F0 [0x02] IF !(Work_Zone[0] == 2*) GOTO 0x0139
 43: 0x00F8 [0x02] IF !(ExtData[1]->WorkLocal[3] == 1*) GOTO 0x0109
 44: 0x0100 [0x03] Work_Zone[2] = 1*
 45: 0x0105 [0x1D] PRINT_EVENT_MESSAGE(message_id=7366*)
    → "Your steadfast efforts have earned you a claim to share in your union's spoils of war. By [transferring to another union/resigning from your union], you will relinquish this right. It is not my place to question your decision, but I suggest you pay the matter due heed."
 46: 0x0108 [0x23] WAIT_FOR_DIALOG_INTERACTION
 47: 0x0109 [0x03] Work_Zone[2] = 1*
 48: 0x010E [0x24] CREATE_DIALOG(message_id=7367*, default_option=0*, option_flags=0*)
    → "[Transfer unions/Resign from your current union]? [No./Yes.]"
 49: 0x0115 [0x25] WAIT_DIALOG_SELECT()
 50: 0x0116 [0x02] IF !(Work_Zone[0] == 0*) GOTO 0x0126
 51: 0x011E [0x03] Work_Zone[1] = 999*
 52: 0x0123 [0x01] GOTO 0x0136
 53: 0x0126 [0x02] IF !(Work_Zone[0] == 1*) GOTO 0x0136
 54: 0x012E [0x03] Work_Zone[1] = 6*
 55: 0x0133 [0x01] GOTO 0x0136

SUBROUTINE_0136:
 56: 0x0136 [0x01] GOTO 0x0139

SUBROUTINE_0139:
 57: 0x0139 [0x02] IF !(ExtData[1]->WorkLocal[9] == 1*) GOTO 0x0226
 58: 0x0141 [0x03] ExtData[1]->WorkLocal[10] = 0*
 59: 0x0146 [0x03] Work_Zone[2] = ExtData[1]->WorkLocal[4]
 60: 0x014B [0x03] Work_Zone[3] = ExtData[1]->WorkLocal[5]
 61: 0x0150 [0x03] Work_Zone[4] = ExtData[1]->WorkLocal[6]
 62: 0x0155 [0x03] Work_Zone[5] = ExtData[1]->WorkLocal[7]
 63: 0x015A [0x03] Work_Zone[6] = ExtData[1]->WorkLocal[8]
 64: 0x015F [0x02] IF !(ExtData[1]->WorkLocal[4] < 50*) GOTO 0x016E
 65: 0x0167 [0x3C] SET_BIT_FLAG_CONDITIONAL(target_work_offset=ExtData[1]->WorkLocal[10], bit_index_work_offset=1*, condition_work_offset=1*)
 66: 0x016E [0x02] IF !(ExtData[1]->WorkLocal[5] < 50*) GOTO 0x017D
 67: 0x0176 [0x3C] SET_BIT_FLAG_CONDITIONAL(target_work_offset=ExtData[1]->WorkLocal[10], bit_index_work_offset=2*, condition_work_offset=1*)
 68: 0x017D [0x02] IF !(ExtData[1]->WorkLocal[6] < 50*) GOTO 0x018C
 69: 0x0185 [0x3C] SET_BIT_FLAG_CONDITIONAL(target_work_offset=ExtData[1]->WorkLocal[10], bit_index_work_offset=3*, condition_work_offset=1*)
 70: 0x018C [0x02] IF !(ExtData[1]->WorkLocal[7] < 50*) GOTO 0x019B
 71: 0x0194 [0x3C] SET_BIT_FLAG_CONDITIONAL(target_work_offset=ExtData[1]->WorkLocal[10], bit_index_work_offset=4*, condition_work_offset=1*)
 72: 0x019B [0x02] IF !(ExtData[1]->WorkLocal[8] < 50*) GOTO 0x01AA
 73: 0x01A3 [0x3C] SET_BIT_FLAG_CONDITIONAL(target_work_offset=ExtData[1]->WorkLocal[10], bit_index_work_offset=5*, condition_work_offset=1*)
 74: 0x01AA [0x02] IF !(ExtData[1]->WorkLocal[10] == 1118480*) GOTO 0x01BE
 75: 0x01B2 [0x1D] PRINT_EVENT_MESSAGE(message_id=7372*)
    → "I am afraid that all unions are currently at their maximum enrollment, and unable to accept new recruits. For better or for worse, though, I suspect it shall not be long before we are in need of some new blood. Such is the nature of war..."
 76: 0x01B5 [0x23] WAIT_FOR_DIALOG_INTERACTION
 77: 0x01B6 [0x03] Work_Zone[1] = 999*
 78: 0x01BB [0x01] GOTO 0x0226
 79: 0x01BE [0x24] CREATE_DIALOG(message_id=7368*, default_option=0*, option_flags=ExtData[1]->WorkLocal[10])
    → "Register for which union? [None./Adder Union ($0 [member/members])./Bison Union ($1 [member/members])./Coyote Union ($2 [member/members])./Dhole Union ($3 [member/members])./Eland Union ($4 [member/members]).]"
 80: 0x01C5 [0x25] WAIT_DIALOG_SELECT()
 81: 0x01C6 [0x02] IF !(Work_Zone[0] == 0*) GOTO 0x01D6
 82: 0x01CE [0x03] Work_Zone[1] = 999*
 83: 0x01D3 [0x01] GOTO 0x0226
 84: 0x01D6 [0x02] IF !(Work_Zone[0] == 1*) GOTO 0x01E6
 85: 0x01DE [0x03] Work_Zone[1] = 1*
 86: 0x01E3 [0x01] GOTO 0x0226
 87: 0x01E6 [0x02] IF !(Work_Zone[0] == 2*) GOTO 0x01F6
 88: 0x01EE [0x03] Work_Zone[1] = 2*
 89: 0x01F3 [0x01] GOTO 0x0226
 90: 0x01F6 [0x02] IF !(Work_Zone[0] == 3*) GOTO 0x0206
 91: 0x01FE [0x03] Work_Zone[1] = 3*
 92: 0x0203 [0x01] GOTO 0x0226
 93: 0x0206 [0x02] IF !(Work_Zone[0] == 4*) GOTO 0x0216
 94: 0x020E [0x03] Work_Zone[1] = 4*
 95: 0x0213 [0x01] GOTO 0x0226
 96: 0x0216 [0x02] IF !(Work_Zone[0] == 5*) GOTO 0x0226
 97: 0x021E [0x03] Work_Zone[1] = 5*
 98: 0x0223 [0x01] GOTO 0x0226

SUBROUTINE_0226:
 99: 0x0226 [0x42] SET_CLI_EVENT_CANCEL_DATA()
100: 0x0227 [0x21] END_EVENT
101: 0x0228 [0x00] END_REQSTACK()
```
