# 17113939 - Rahal

## Common Data

| Field            | Value                      |
|------------------|----------------------------|
| Zone             | Jugner Forest [S] (ID: 82) |
| Block Size       | 580 bytes                  |
| Total Events     | 21                         |
| References Count | 31                         |

## List of Events

| Event ID                   | Entrypoint   |   Size |   Instructions |
|----------------------------|--------------|--------|----------------|
| [65535](#event-65535)      | 0x0000       |      1 |              1 |
| [200](#event-200)          | 0x0001       |      1 |              1 |
| [65535.1](#event-655351)   | 0x0002       |     15 |              5 |
| [65535.2](#event-655352)   | 0x0011       |     15 |              5 |
| [65535.3](#event-655353)   | 0x0020       |     35 |              9 |
| [65535.4](#event-655354)   | 0x0043       |     52 |             10 |
| [201](#event-201)          | 0x0077       |      1 |              1 |
| [202](#event-202)          | 0x0078       |      1 |              1 |
| [203](#event-203)          | 0x0079       |      1 |              1 |
| [65535.5](#event-655355)   | 0x007A       |     15 |              5 |
| [65535.6](#event-655356)   | 0x0089       |     49 |              5 |
| [65535.7](#event-655357)   | 0x00BA       |     17 |              6 |
| [65535.8](#event-655358)   | 0x00CB       |     35 |              9 |
| [204](#event-204)          | 0x00EE       |      1 |              1 |
| [205](#event-205)          | 0x00EF       |      1 |              1 |
| [206](#event-206)          | 0x00F0       |      1 |              1 |
| [65535.9](#event-655359)   | 0x00F1       |     15 |              5 |
| [65535.10](#event-6553510) | 0x0100       |     29 |              7 |
| [65535.11](#event-6553511) | 0x011D       |     35 |              9 |
| [65535.12](#event-6553512) | 0x0140       |     35 |              9 |
| [211](#event-211)          | 0x0163       |      1 |              1 |

## DAT References (imed_data)

|   Index | Hex Value   |   Dec Value |
|---------|-------------|-------------|
|       0 | 0x0028      |          40 |
|       1 | 0xFFFB1B97  |  4294646679 |
|       2 | 0x6AAE0     |      436960 |
|       3 | 0x0000      |           0 |
|       4 | 0xFFFB1D3E  |  4294647102 |
|       5 | 0x6AC5E     |      437342 |
|       6 | 0xFB91      |       64401 |
|       7 | 0x528DF     |      338143 |
|       8 | 0x002C      |          44 |
|       9 | 0x119EC     |       72172 |
|      10 | 0x53142     |      340290 |
|      11 | 0x03B0      |         944 |
|      12 | 0x0160      |         352 |
|      13 | 0xC013      |       49171 |
|      14 | 0x4DB6F     |      318319 |
|      15 | 0x0100      |         256 |
|      16 | 0x0513      |        1299 |
|      17 | 0x003C      |          60 |
|      18 | 0xFFFFD235  |  4294955573 |
|      19 | 0x456CC     |      284364 |
|      20 | 0xFFFFF1E2  |  4294963682 |
|      21 | 0x1C4A      |        7242 |
|      22 | 0x477AE     |      292782 |
|      23 | 0x08ED      |        2285 |
|      24 | 0xFFFFE2DC  |  4294959836 |
|      25 | 0xFFFB851C  |  4294673692 |
|      26 | 0x0125      |         293 |
|      27 | 0xFFFFF8CE  |  4294965454 |
|      28 | 0xFFFB0A16  |  4294642198 |
|      29 | 0x00F6      |         246 |
|      30 | 0x000D      |          13 |

## Events

### Event 65535

#### Metadata

| Field        | Value   |
|--------------|---------|
| Entrypoint   | 0x0000  |
| Data Size    | 1 bytes |
| Instructions | 1       |

```
      00 01 02 03 04 05 06 07  08 09 0A 0B 0C 0D 0E 0F
      -- -- -- -- -- -- -- --  -- -- -- -- -- -- -- --
0000: 00                                                .               
```

#### Opcodes

```
  0: 0x0000 [0x00] END_REQSTACK()
```

### Event 200

#### Metadata

| Field        | Value   |
|--------------|---------|
| Entrypoint   | 0x0001  |
| Data Size    | 1 bytes |
| Instructions | 1       |

```
      00 01 02 03 04 05 06 07  08 09 0A 0B 0C 0D 0E 0F
      -- -- -- -- -- -- -- --  -- -- -- -- -- -- -- --
0000:    00                                              .              
```

#### Opcodes

```
  0: 0x0001 [0x00] END_REQSTACK()
```

### Event 65535.1

#### Metadata

| Field        | Value    |
|--------------|----------|
| Entrypoint   | 0x0002   |
| Data Size    | 15 bytes |
| Instructions | 5        |

```
      00 01 02 03 04 05 06 07  08 09 0A 0B 0C 0D 0E 0F
      -- -- -- -- -- -- -- --  -- -- -- -- -- -- -- --
0000:       32 00 80 1F 00 01  80 02 80 03 80 1F 01 6F    2............o
0010: 00                                                .               
```

#### Opcodes

```
  0: 0x0002 [0x32] ExtData[1]->MainSpeed = 40* * 0.1
  1: 0x0005 [0x1F] MOVE_ENTITY: EventEntity moves to X=-320.617*, Z=436.960*, Y=0.000*
  2: 0x000D [0x1F] MOVE_ENTITY: Update entity position (mode=1)
  3: 0x000F [0x6F] WAIT_FRAME_DELAY: Yield until WaitTime reaches zero
  4: 0x0010 [0x00] END_REQSTACK()
```

### Event 65535.2

#### Metadata

| Field        | Value    |
|--------------|----------|
| Entrypoint   | 0x0011   |
| Data Size    | 15 bytes |
| Instructions | 5        |

```
      00 01 02 03 04 05 06 07  08 09 0A 0B 0C 0D 0E 0F
      -- -- -- -- -- -- -- --  -- -- -- -- -- -- -- --
0010:    32 00 80 1F 00 04 80  05 80 03 80 1F 01 6F 00   2............o.
```

#### Opcodes

```
  0: 0x0011 [0x32] ExtData[1]->MainSpeed = 40* * 0.1
  1: 0x0014 [0x1F] MOVE_ENTITY: EventEntity moves to X=-320.194*, Z=437.342*, Y=0.000*
  2: 0x001C [0x1F] MOVE_ENTITY: Update entity position (mode=1)
  3: 0x001E [0x6F] WAIT_FRAME_DELAY: Yield until WaitTime reaches zero
  4: 0x001F [0x00] END_REQSTACK()
```

### Event 65535.3

#### Metadata

| Field        | Value    |
|--------------|----------|
| Entrypoint   | 0x0020   |
| Data Size    | 35 bytes |
| Instructions | 9        |

```
      00 01 02 03 04 05 06 07  08 09 0A 0B 0C 0D 0E 0F
      -- -- -- -- -- -- -- --  -- -- -- -- -- -- -- --
0020: 32 00 80 1F 00 06 80 07  80 08 80 1F 01 6F 4A 53  2............oJS
0030: 23 05 01 54 23 05 01 7B  53 23 05 01 6F 76 53 23  #..T#..{S#..ovS#
0040: 05 01 00                                          ...             
```

#### Opcodes

```
  0: 0x0020 [0x32] ExtData[1]->MainSpeed = 40* * 0.1
  1: 0x0023 [0x1F] MOVE_ENTITY: EventEntity moves to X=64.401*, Z=338.143*, Y=0.044*
  2: 0x002B [0x1F] MOVE_ENTITY: Update entity position (mode=1)
  3: 0x002D [0x6F] WAIT_FRAME_DELAY: Yield until WaitTime reaches zero
  4: 0x002E [0x4A] Rahal (ID: 17113939/0x01052353) looks at Excenmille (ID: 17113940/0x01052354)
  5: 0x0037 [0x7B] Rahal (ID: 17113939/0x01052353) stops talking
  6: 0x003C [0x6F] WAIT_FRAME_DELAY: Yield until WaitTime reaches zero
  7: 0x003D [0x76] CHECK_ENTITY_RENDER_FLAGS: Wait until Rahal (ID: 17113939/0x01052353) Render.Flags0 and Render.Flags3 conditions are met
  8: 0x0042 [0x00] END_REQSTACK()
```

### Event 65535.4

#### Metadata

| Field        | Value    |
|--------------|----------|
| Entrypoint   | 0x0043   |
| Data Size    | 52 bytes |
| Instructions | 10       |

```
      00 01 02 03 04 05 06 07  08 09 0A 0B 0C 0D 0E 0F
      -- -- -- -- -- -- -- --  -- -- -- -- -- -- -- --
0040:          32 00 80 1F 00  09 80 0A 80 0B 80 1F 01     2............
0050: 6F 4A 53 23 05 01 55 23  05 01 45 0C 80 53 23 05  oJS#..U#..E..S#.
0060: 01 53 23 05 01 68 72 6D  6B 03 80 6F 76 53 23 05  .S#..hrmk..ovS#.
0070: 01 7B 53 23 05 01 00                              .{S#...         
```

#### Opcodes

```
  0: 0x0043 [0x32] ExtData[1]->MainSpeed = 40* * 0.1
  1: 0x0046 [0x1F] MOVE_ENTITY: EventEntity moves to X=72.172*, Z=340.290*, Y=0.944*
  2: 0x004E [0x1F] MOVE_ENTITY: Update entity position (mode=1)
  3: 0x0050 [0x6F] WAIT_FRAME_DELAY: Yield until WaitTime reaches zero
  4: 0x0051 [0x4A] Rahal (ID: 17113939/0x01052353) looks at Fingerfilcher Dradzad (ID: 17113941/0x01052355)
  5: 0x005A [0x45] LOAD_SCHEDULED_TASK: Load scheduler "hrmk" with entities [Rahal (ID: 17113939/0x01052353), Rahal (ID: 17113939/0x01052353)], work=[352*, 0*]
  6: 0x006B [0x6F] WAIT_FRAME_DELAY: Yield until WaitTime reaches zero
  7: 0x006C [0x76] CHECK_ENTITY_RENDER_FLAGS: Wait until Rahal (ID: 17113939/0x01052353) Render.Flags0 and Render.Flags3 conditions are met
  8: 0x0071 [0x7B] Rahal (ID: 17113939/0x01052353) stops talking
  9: 0x0076 [0x00] END_REQSTACK()
```

### Event 201

#### Metadata

| Field        | Value   |
|--------------|---------|
| Entrypoint   | 0x0077  |
| Data Size    | 1 bytes |
| Instructions | 1       |

```
      00 01 02 03 04 05 06 07  08 09 0A 0B 0C 0D 0E 0F
      -- -- -- -- -- -- -- --  -- -- -- -- -- -- -- --
0070:                      00                                  .        
```

#### Opcodes

```
  0: 0x0077 [0x00] END_REQSTACK()
```

### Event 202

#### Metadata

| Field        | Value   |
|--------------|---------|
| Entrypoint   | 0x0078  |
| Data Size    | 1 bytes |
| Instructions | 1       |

```
      00 01 02 03 04 05 06 07  08 09 0A 0B 0C 0D 0E 0F
      -- -- -- -- -- -- -- --  -- -- -- -- -- -- -- --
0070:                          00                               .       
```

#### Opcodes

```
  0: 0x0078 [0x00] END_REQSTACK()
```

### Event 203

#### Metadata

| Field        | Value   |
|--------------|---------|
| Entrypoint   | 0x0079  |
| Data Size    | 1 bytes |
| Instructions | 1       |

```
      00 01 02 03 04 05 06 07  08 09 0A 0B 0C 0D 0E 0F
      -- -- -- -- -- -- -- --  -- -- -- -- -- -- -- --
0070:                             00                             .      
```

#### Opcodes

```
  0: 0x0079 [0x00] END_REQSTACK()
```

### Event 65535.5

#### Metadata

| Field        | Value    |
|--------------|----------|
| Entrypoint   | 0x007A   |
| Data Size    | 15 bytes |
| Instructions | 5        |

```
      00 01 02 03 04 05 06 07  08 09 0A 0B 0C 0D 0E 0F
      -- -- -- -- -- -- -- --  -- -- -- -- -- -- -- --
0070:                                32 00 80 1F 00 0D            2.....
0080: 80 0E 80 0F 80 1F 01 6F  00                       .......o.       
```

#### Opcodes

```
  0: 0x007A [0x32] ExtData[1]->MainSpeed = 40* * 0.1
  1: 0x007D [0x1F] MOVE_ENTITY: EventEntity moves to X=49.171*, Z=318.319*, Y=0.256*
  2: 0x0085 [0x1F] MOVE_ENTITY: Update entity position (mode=1)
  3: 0x0087 [0x6F] WAIT_FRAME_DELAY: Yield until WaitTime reaches zero
  4: 0x0088 [0x00] END_REQSTACK()
```

### Event 65535.6

#### Metadata

| Field        | Value    |
|--------------|----------|
| Entrypoint   | 0x0089   |
| Data Size    | 49 bytes |
| Instructions | 5        |

```
      00 01 02 03 04 05 06 07  08 09 0A 0B 0C 0D 0E 0F
      -- -- -- -- -- -- -- --  -- -- -- -- -- -- -- --
0080:                             5B 10 80 54 23 05 01           [..T#..
0090: 54 23 05 01 66 63 30 30  5B 10 80 54 23 05 01 54  T#..fc00[..T#..T
00A0: 23 05 01 66 63 30 31 1C  11 80 5B 10 80 54 23 05  #..fc01...[..T#.
00B0: 01 54 23 05 01 66 63 30  30 00                    .T#..fc00.      
```

#### Opcodes

```
  0: 0x0089 [0x5B] LOAD_EXT_SCHEDULER: Load scheduler "fc00" with entities [Excenmille (ID: 17113940/0x01052354), Excenmille (ID: 17113940/0x01052354)], work=1299*
  1: 0x0098 [0x5B] LOAD_EXT_SCHEDULER: Load scheduler "fc01" with entities [Excenmille (ID: 17113940/0x01052354), Excenmille (ID: 17113940/0x01052354)], work=1299*
  2: 0x00A7 [0x1C] WAIT(60* ticks)
  3: 0x00AA [0x5B] LOAD_EXT_SCHEDULER: Load scheduler "fc00" with entities [Excenmille (ID: 17113940/0x01052354), Excenmille (ID: 17113940/0x01052354)], work=1299*
  4: 0x00B9 [0x00] END_REQSTACK()
```

### Event 65535.7

#### Metadata

| Field        | Value    |
|--------------|----------|
| Entrypoint   | 0x00BA   |
| Data Size    | 17 bytes |
| Instructions | 6        |

```
      00 01 02 03 04 05 06 07  08 09 0A 0B 0C 0D 0E 0F
      -- -- -- -- -- -- -- --  -- -- -- -- -- -- -- --
00B0:                                32 00 80 1F 00 12            2.....
00C0: 80 13 80 14 80 1F 01 6F  22 01 00                 .......o"..     
```

#### Opcodes

```
  0: 0x00BA [0x32] ExtData[1]->MainSpeed = 40* * 0.1
  1: 0x00BD [0x1F] MOVE_ENTITY: EventEntity moves to X=-11.723*, Z=284.364*, Y=-3.614*
  2: 0x00C5 [0x1F] MOVE_ENTITY: Update entity position (mode=1)
  3: 0x00C7 [0x6F] WAIT_FRAME_DELAY: Yield until WaitTime reaches zero
  4: 0x00C8 [0x22] ENTITY_HIDE_FLAG(enabled=0x01)
  5: 0x00CA [0x00] END_REQSTACK()
```

### Event 65535.8

#### Metadata

| Field        | Value    |
|--------------|----------|
| Entrypoint   | 0x00CB   |
| Data Size    | 35 bytes |
| Instructions | 9        |

```
      00 01 02 03 04 05 06 07  08 09 0A 0B 0C 0D 0E 0F
      -- -- -- -- -- -- -- --  -- -- -- -- -- -- -- --
00C0:                                   32 00 80 1F 00             2....
00D0: 15 80 16 80 17 80 1F 01  6F 4A 53 23 05 01 5D 23  ........oJS#..]#
00E0: 05 01 7B 53 23 05 01 6F  76 53 23 05 01 00        ..{S#..ovS#...  
```

#### Opcodes

```
  0: 0x00CB [0x32] ExtData[1]->MainSpeed = 40* * 0.1
  1: 0x00CE [0x1F] MOVE_ENTITY: EventEntity moves to X=7.242*, Z=292.782*, Y=2.285*
  2: 0x00D6 [0x1F] MOVE_ENTITY: Update entity position (mode=1)
  3: 0x00D8 [0x6F] WAIT_FRAME_DELAY: Yield until WaitTime reaches zero
  4: 0x00D9 [0x4A] Rahal (ID: 17113939/0x01052353) looks at Altennia (ID: 17113949/0x0105235D)
  5: 0x00E2 [0x7B] Rahal (ID: 17113939/0x01052353) stops talking
  6: 0x00E7 [0x6F] WAIT_FRAME_DELAY: Yield until WaitTime reaches zero
  7: 0x00E8 [0x76] CHECK_ENTITY_RENDER_FLAGS: Wait until Rahal (ID: 17113939/0x01052353) Render.Flags0 and Render.Flags3 conditions are met
  8: 0x00ED [0x00] END_REQSTACK()
```

### Event 204

#### Metadata

| Field        | Value   |
|--------------|---------|
| Entrypoint   | 0x00EE  |
| Data Size    | 1 bytes |
| Instructions | 1       |

```
      00 01 02 03 04 05 06 07  08 09 0A 0B 0C 0D 0E 0F
      -- -- -- -- -- -- -- --  -- -- -- -- -- -- -- --
00E0:                                            00                   . 
```

#### Opcodes

```
  0: 0x00EE [0x00] END_REQSTACK()
```

### Event 205

#### Metadata

| Field        | Value   |
|--------------|---------|
| Entrypoint   | 0x00EF  |
| Data Size    | 1 bytes |
| Instructions | 1       |

```
      00 01 02 03 04 05 06 07  08 09 0A 0B 0C 0D 0E 0F
      -- -- -- -- -- -- -- --  -- -- -- -- -- -- -- --
00E0:                                               00                 .
```

#### Opcodes

```
  0: 0x00EF [0x00] END_REQSTACK()
```

### Event 206

#### Metadata

| Field        | Value   |
|--------------|---------|
| Entrypoint   | 0x00F0  |
| Data Size    | 1 bytes |
| Instructions | 1       |

```
      00 01 02 03 04 05 06 07  08 09 0A 0B 0C 0D 0E 0F
      -- -- -- -- -- -- -- --  -- -- -- -- -- -- -- --
00F0: 00                                                .               
```

#### Opcodes

```
  0: 0x00F0 [0x00] END_REQSTACK()
```

### Event 65535.9

#### Metadata

| Field        | Value    |
|--------------|----------|
| Entrypoint   | 0x00F1   |
| Data Size    | 15 bytes |
| Instructions | 5        |

```
      00 01 02 03 04 05 06 07  08 09 0A 0B 0C 0D 0E 0F
      -- -- -- -- -- -- -- --  -- -- -- -- -- -- -- --
00F0:    32 00 80 1F 00 18 80  19 80 1A 80 1F 01 6F 00   2............o.
```

#### Opcodes

```
  0: 0x00F1 [0x32] ExtData[1]->MainSpeed = 40* * 0.1
  1: 0x00F4 [0x1F] MOVE_ENTITY: EventEntity moves to X=-7.460*, Z=-293.604*, Y=0.293*
  2: 0x00FC [0x1F] MOVE_ENTITY: Update entity position (mode=1)
  3: 0x00FE [0x6F] WAIT_FRAME_DELAY: Yield until WaitTime reaches zero
  4: 0x00FF [0x00] END_REQSTACK()
```

### Event 65535.10

#### Metadata

| Field        | Value    |
|--------------|----------|
| Entrypoint   | 0x0100   |
| Data Size    | 29 bytes |
| Instructions | 7        |

```
      00 01 02 03 04 05 06 07  08 09 0A 0B 0C 0D 0E 0F
      -- -- -- -- -- -- -- --  -- -- -- -- -- -- -- --
0100: 32 00 80 1F 00 1B 80 1C  80 1D 80 1F 01 6F 4A 53  2............oJS
0110: 23 05 01 59 23 05 01 7B  53 23 05 01 00           #..Y#..{S#...   
```

#### Opcodes

```
  0: 0x0100 [0x32] ExtData[1]->MainSpeed = 40* * 0.1
  1: 0x0103 [0x1F] MOVE_ENTITY: EventEntity moves to X=-1.842*, Z=-325.098*, Y=0.246*
  2: 0x010B [0x1F] MOVE_ENTITY: Update entity position (mode=1)
  3: 0x010D [0x6F] WAIT_FRAME_DELAY: Yield until WaitTime reaches zero
  4: 0x010E [0x4A] Rahal (ID: 17113939/0x01052353) looks at Unnamed NPC (ID: 17113945/0x01052359)
  5: 0x0117 [0x7B] Rahal (ID: 17113939/0x01052353) stops talking
  6: 0x011C [0x00] END_REQSTACK()
```

### Event 65535.11

#### Metadata

| Field        | Value    |
|--------------|----------|
| Entrypoint   | 0x011D   |
| Data Size    | 35 bytes |
| Instructions | 9        |

```
      00 01 02 03 04 05 06 07  08 09 0A 0B 0C 0D 0E 0F
      -- -- -- -- -- -- -- --  -- -- -- -- -- -- -- --
0110:                                         03 00 00               ...
0120: 25 10 03 01 00 27 10 03  02 00 26 10 03 03 00 28  %....'....&....(
0130: 10 32 00 80 1F 00 00 00  01 00 02 00 1F 01 6F 00  .2............o.
```

#### Opcodes

```
  0: 0x011D [0x03] ExtData[1]->WorkLocal[0] = Work_Zone[37]
  1: 0x0122 [0x03] ExtData[1]->WorkLocal[1] = Work_Zone[39]
  2: 0x0127 [0x03] ExtData[1]->WorkLocal[2] = Work_Zone[38]
  3: 0x012C [0x03] ExtData[1]->WorkLocal[3] = Work_Zone[40]
  4: 0x0131 [0x32] ExtData[1]->MainSpeed = 40* * 0.1
  5: 0x0134 [0x1F] MOVE_ENTITY: EventEntity moves to X=ExtData[1]->WorkLocal[0], Z=ExtData[1]->WorkLocal[1], Y=ExtData[1]->WorkLocal[2]
  6: 0x013C [0x1F] MOVE_ENTITY: Update entity position (mode=1)
  7: 0x013E [0x6F] WAIT_FRAME_DELAY: Yield until WaitTime reaches zero
  8: 0x013F [0x00] END_REQSTACK()
```

### Event 65535.12

#### Metadata

| Field        | Value    |
|--------------|----------|
| Entrypoint   | 0x0140   |
| Data Size    | 35 bytes |
| Instructions | 9        |

```
      00 01 02 03 04 05 06 07  08 09 0A 0B 0C 0D 0E 0F
      -- -- -- -- -- -- -- --  -- -- -- -- -- -- -- --
0140: 03 00 00 25 10 03 01 00  27 10 03 02 00 26 10 03  ...%....'....&..
0150: 03 00 28 10 32 1E 80 1F  00 00 00 01 00 02 00 1F  ..(.2...........
0160: 01 6F 00                                          .o.             
```

#### Opcodes

```
  0: 0x0140 [0x03] ExtData[1]->WorkLocal[0] = Work_Zone[37]
  1: 0x0145 [0x03] ExtData[1]->WorkLocal[1] = Work_Zone[39]
  2: 0x014A [0x03] ExtData[1]->WorkLocal[2] = Work_Zone[38]
  3: 0x014F [0x03] ExtData[1]->WorkLocal[3] = Work_Zone[40]
  4: 0x0154 [0x32] ExtData[1]->MainSpeed = 13* * 0.1
  5: 0x0157 [0x1F] MOVE_ENTITY: EventEntity moves to X=ExtData[1]->WorkLocal[0], Z=ExtData[1]->WorkLocal[1], Y=ExtData[1]->WorkLocal[2]
  6: 0x015F [0x1F] MOVE_ENTITY: Update entity position (mode=1)
  7: 0x0161 [0x6F] WAIT_FRAME_DELAY: Yield until WaitTime reaches zero
  8: 0x0162 [0x00] END_REQSTACK()
```

### Event 211

#### Metadata

| Field        | Value   |
|--------------|---------|
| Entrypoint   | 0x0163  |
| Data Size    | 1 bytes |
| Instructions | 1       |

```
      00 01 02 03 04 05 06 07  08 09 0A 0B 0C 0D 0E 0F
      -- -- -- -- -- -- -- --  -- -- -- -- -- -- -- --
0160:          00                                          .            
```

#### Opcodes

```
  0: 0x0163 [0x00] END_REQSTACK()
```
