# 17114031

## Common Data

| Field            | Value                      |
|------------------|----------------------------|
| Zone             | Jugner Forest [S] (ID: 82) |
| Block Size       | 1600 bytes                 |
| Total Events     | 23                         |
| References Count | 55                         |

## List of Events

| Event ID                   | Entrypoint   |   Size |   Instructions |
|----------------------------|--------------|--------|----------------|
| [65535](#event-65535)      | 0x0000       |      1 |              1 |
| [2](#event-2)              | 0x0001       |      1 |              1 |
| [3](#event-3)              | 0x0002       |      1 |              1 |
| [65535.1](#event-655351)   | 0x0003       |     10 |              2 |
| [65535.2](#event-655352)   | 0x000D       |     10 |              2 |
| [65535.3](#event-655353)   | 0x0017       |     10 |              2 |
| [65535.4](#event-655354)   | 0x0021       |     41 |              8 |
| [65535.5](#event-655355)   | 0x004A       |     64 |              6 |
| [65535.6](#event-655356)   | 0x008A       |    121 |             13 |
| [65535.7](#event-655357)   | 0x0103       |     50 |              8 |
| [65535.8](#event-655358)   | 0x0135       |     70 |              8 |
| [65535.9](#event-655359)   | 0x017B       |     61 |              5 |
| [65535.10](#event-6553510) | 0x01B8       |     70 |              8 |
| [65535.11](#event-6553511) | 0x01FE       |     61 |              5 |
| [65535.12](#event-6553512) | 0x023B       |     85 |              9 |
| [65535.13](#event-6553513) | 0x0290       |    103 |             11 |
| [65535.14](#event-6553514) | 0x02F7       |     91 |              7 |
| [65535.15](#event-6553515) | 0x0352       |    121 |              9 |
| [65535.16](#event-6553516) | 0x03CB       |    279 |             23 |
| [65535.17](#event-6553517) | 0x04E2       |     10 |              2 |
| [65535.18](#event-6553518) | 0x04EC       |     10 |              2 |
| [212](#event-212)          | 0x04F6       |      1 |              1 |
| [7](#event-7)              | 0x04F7       |      1 |              1 |

## DAT References (imed_data)

|   Index | Hex Value   |   Dec Value |
|---------|-------------|-------------|
|       0 | 0x0080      |         128 |
|       1 | 0x003C      |          60 |
|       2 | 0x0001      |           1 |
|       3 | 0x0025      |          37 |
|       4 | 0x0000      |           0 |
|       5 | 0x0078      |         120 |
|       6 | 0x0857      |        2135 |
|       7 | 0x0028      |          40 |
|       8 | 0x08C8      |        2248 |
|       9 | 0x09A4      |        2468 |
|      10 | 0x001E      |          30 |
|      11 | 0x002B      |          43 |
|      12 | 0x000A      |          10 |
|      13 | 0x0005      |           5 |
|      14 | 0x000F      |          15 |
|      15 | 0x0832      |        2098 |
|      16 | 0x0585      |        1413 |
|      17 | 0x09A8      |        2472 |
|      18 | 0x002D      |          45 |
|      19 | 0x005A      |          90 |
|      20 | 0x0833      |        2099 |
|      21 | 0x0584      |        1412 |
|      22 | 0x0834      |        2100 |
|      23 | 0xA426      |       42022 |
|      24 | 0x4E271     |      320113 |
|      25 | 0x0400      |        1024 |
|      26 | 0xA070      |       41072 |
|      27 | 0x4E051     |      319569 |
|      28 | 0x0315      |         789 |
|      29 | 0xA7FE      |       43006 |
|      30 | 0x4D7E1     |      317409 |
|      31 | 0xFFFFFFB9  |  4294967225 |
|      32 | 0x0800      |        2048 |
|      33 | 0xA05B      |       41051 |
|      34 | 0x4D7F5     |      317429 |
|      35 | 0x0E00      |        3584 |
|      36 | 0xA404      |       41988 |
|      37 | 0x4D59C     |      316828 |
|      38 | 0x0C00      |        3072 |
|      39 | 0x9B96      |       39830 |
|      40 | 0x4DA6B     |      318059 |
|      41 | 0x0F8F      |        3983 |
|      42 | 0x99A4      |       39332 |
|      43 | 0x4DEB4     |      319156 |
|      44 | 0xFFFFFC18  |  4294966296 |
|      45 | 0x0042      |          66 |
|      46 | 0xAD1C      |       44316 |
|      47 | 0x4DAA0     |      318112 |
|      48 | 0xFFFFFF6F  |  4294967151 |
|      49 | 0x0836      |        2102 |
|      50 | 0xAE37      |       44599 |
|      51 | 0x4E047     |      319559 |
|      52 | 0xFFFFF9C0  |  4294965696 |
|      53 | 0x071D      |        1821 |
|      54 | 0x051F      |        1311 |

## Events

### Event 65535

#### Metadata

| Field        | Value   |
|--------------|---------|
| Entrypoint   | 0x0000  |
| Data Size    | 1 bytes |
| Instructions | 1       |

```
      00 01 02 03 04 05 06 07  08 09 0A 0B 0C 0D 0E 0F
      -- -- -- -- -- -- -- --  -- -- -- -- -- -- -- --
0000: 00                                                .               
```

#### Opcodes

```
  0: 0x0000 [0x00] END_REQSTACK()
```

### Event 2

#### Metadata

| Field        | Value   |
|--------------|---------|
| Entrypoint   | 0x0001  |
| Data Size    | 1 bytes |
| Instructions | 1       |

```
      00 01 02 03 04 05 06 07  08 09 0A 0B 0C 0D 0E 0F
      -- -- -- -- -- -- -- --  -- -- -- -- -- -- -- --
0000:    00                                              .              
```

#### Opcodes

```
  0: 0x0001 [0x00] END_REQSTACK()
```

### Event 3

#### Metadata

| Field        | Value   |
|--------------|---------|
| Entrypoint   | 0x0002  |
| Data Size    | 1 bytes |
| Instructions | 1       |

```
      00 01 02 03 04 05 06 07  08 09 0A 0B 0C 0D 0E 0F
      -- -- -- -- -- -- -- --  -- -- -- -- -- -- -- --
0000:       00                                            .             
```

#### Opcodes

```
  0: 0x0002 [0x00] END_REQSTACK()
```

### Event 65535.1

#### Metadata

| Field        | Value    |
|--------------|----------|
| Entrypoint   | 0x0003   |
| Data Size    | 10 bytes |
| Instructions | 2        |

```
      00 01 02 03 04 05 06 07  08 09 0A 0B 0C 0D 0E 0F
      -- -- -- -- -- -- -- --  -- -- -- -- -- -- -- --
0000:          6C A9 23 05 01  00 80 01 80 00              l.#.......   
```

#### Opcodes

```
  0: 0x0003 [0x6C] FADE_ENTITY_COLOR(entity_id=Cait Sith Coig (ID: 17114025/0x010523A9), end_alpha=128*, fade_time=60*)
  1: 0x000C [0x00] END_REQSTACK()
```

### Event 65535.2

#### Metadata

| Field        | Value    |
|--------------|----------|
| Entrypoint   | 0x000D   |
| Data Size    | 10 bytes |
| Instructions | 2        |

```
      00 01 02 03 04 05 06 07  08 09 0A 0B 0C 0D 0E 0F
      -- -- -- -- -- -- -- --  -- -- -- -- -- -- -- --
0000:                                         6C AD 23               l.#
0010: 05 01 00 80 01 80 00                              .......         
```

#### Opcodes

```
  0: 0x000D [0x6C] FADE_ENTITY_COLOR(entity_id=Cait Sith Naoi (ID: 17114029/0x010523AD), end_alpha=128*, fade_time=60*)
  1: 0x0016 [0x00] END_REQSTACK()
```

### Event 65535.3

#### Metadata

| Field        | Value    |
|--------------|----------|
| Entrypoint   | 0x0017   |
| Data Size    | 10 bytes |
| Instructions | 2        |

```
      00 01 02 03 04 05 06 07  08 09 0A 0B 0C 0D 0E 0F
      -- -- -- -- -- -- -- --  -- -- -- -- -- -- -- --
0010:                      6C  A5 23 05 01 00 80 02 80         l.#......
0020: 00                                                .               
```

#### Opcodes

```
  0: 0x0017 [0x6C] FADE_ENTITY_COLOR(entity_id=Cait Sith Aon (ID: 17114021/0x010523A5), end_alpha=128*, fade_time=1*)
  1: 0x0020 [0x00] END_REQSTACK()
```

### Event 65535.4

#### Metadata

| Field        | Value    |
|--------------|----------|
| Entrypoint   | 0x0021   |
| Data Size    | 41 bytes |
| Instructions | 7        |

```
      00 01 02 03 04 05 06 07  08 09 0A 0B 0C 0D 0E 0F
      -- -- -- -- -- -- -- --  -- -- -- -- -- -- -- --
0020:    C5 03 80 A9 23 05 01  A9 23 05 01 73 30 30 31   ....#...#..s001
0030: 04 80 06 00 00 02 00 00  05 80 03 46 00 1C 02 80  ...........F....
0040: 57 00 00 01 35 00 01 21  00 00                    W...5..!..      
```

#### Opcodes

```
  0: 0x0021 [0xC5] LOAD_SCHEDULED_TASK_ALT3: Load scheduler 0x80043130 for entities [Cait Sith Coig (ID: 17114025/0x010523A9), Cait Sith Coig (ID: 17114025/0x010523A9)], work=37*, param=12403
  1: 0x0032 [0x06] ExtData[1]->WorkLocal[0] = 0
  2: 0x0035 [0x02] IF !(ExtData[1]->WorkLocal[0] >= 120*) GOTO 0x0046
  3: 0x003D [0x1C] WAIT(1* ticks)
  4: 0x0040 [0x57] CREATE_FRAME_DELAY(delay=ExtData[1]->WorkLocal[0])
  5: 0x0043 [0x01] GOTO 0x0035
  6: 0x0046 [0x01] GOTO 0x0021
```

#### Data or dead code:

```
# Dead code (unreachable instructions):
     0x0049 [0x00] END_REQSTACK()
```

### Event 65535.5

#### Metadata

| Field        | Value    |
|--------------|----------|
| Entrypoint   | 0x004A   |
| Data Size    | 64 bytes |
| Instructions | 6        |

```
      00 01 02 03 04 05 06 07  08 09 0A 0B 0C 0D 0E 0F
      -- -- -- -- -- -- -- --  -- -- -- -- -- -- -- --
0040:                                5B 06 80 9F 23 05            [...#.
0050: 01 9F 23 05 01 66 69 30  30 1C 07 80 5B 06 80 9F  ..#..fi00...[...
0060: 23 05 01 9F 23 05 01 66  69 30 31 5B 08 80 9F 23  #...#..fi01[...#
0070: 05 01 9F 23 05 01 67 65  74 32 5B 09 80 A9 23 05  ...#..get2[...#.
0080: 01 A9 23 05 01 67 65 74  32 00                    ..#..get2.      
```

#### Opcodes

```
  0: 0x004A [0x5B] LOAD_EXT_SCHEDULER: Load scheduler "fi00" with entities [Lilisette (ID: 17114015/0x0105239F), Lilisette (ID: 17114015/0x0105239F)], work=2135*
  1: 0x0059 [0x1C] WAIT(40* ticks)
  2: 0x005C [0x5B] LOAD_EXT_SCHEDULER: Load scheduler "fi01" with entities [Lilisette (ID: 17114015/0x0105239F), Lilisette (ID: 17114015/0x0105239F)], work=2135*
  3: 0x006B [0x5B] LOAD_EXT_SCHEDULER: Load scheduler "get2" with entities [Lilisette (ID: 17114015/0x0105239F), Lilisette (ID: 17114015/0x0105239F)], work=2248*
  4: 0x007A [0x5B] LOAD_EXT_SCHEDULER: Load scheduler "get2" with entities [Cait Sith Coig (ID: 17114025/0x010523A9), Cait Sith Coig (ID: 17114025/0x010523A9)], work=2468*
  5: 0x0089 [0x00] END_REQSTACK()
```

### Event 65535.6

#### Metadata

| Field        | Value     |
|--------------|-----------|
| Entrypoint   | 0x008A    |
| Data Size    | 121 bytes |
| Instructions | 13        |

```
      00 01 02 03 04 05 06 07  08 09 0A 0B 0C 0D 0E 0F
      -- -- -- -- -- -- -- --  -- -- -- -- -- -- -- --
0080:                                1C 0A 80 C5 0B 80            ......
0090: A6 23 05 01 A6 23 05 01  73 74 30 34 04 80 1C 0C  .#...#..st04....
00A0: 80 C5 0B 80 A7 23 05 01  A7 23 05 01 73 74 30 34  .....#...#..st04
00B0: 04 80 1C 0D 80 C5 0B 80  A8 23 05 01 A8 23 05 01  .........#...#..
00C0: 73 74 30 34 04 80 1C 0E  80 C5 0B 80 AA 23 05 01  st04.........#..
00D0: AA 23 05 01 73 74 30 34  04 80 1C 0C 80 C5 0B 80  .#..st04........
00E0: AB 23 05 01 AB 23 05 01  73 74 30 34 04 80 1C 0D  .#...#..st04....
00F0: 80 C5 0B 80 AC 23 05 01  AC 23 05 01 73 74 30 34  .....#...#..st04
0100: 04 80 00                                          ...             
```

#### Opcodes

```
  0: 0x008A [0x1C] WAIT(30* ticks)
  1: 0x008D [0xC5] LOAD_SCHEDULED_TASK_ALT3: Load scheduler 0x80043430 for entities [Cait Sith Dha (ID: 17114022/0x010523A6), Cait Sith Dha (ID: 17114022/0x010523A6)], work=43*, param=29811
  2: 0x009E [0x1C] WAIT(10* ticks)
  3: 0x00A1 [0xC5] LOAD_SCHEDULED_TASK_ALT3: Load scheduler 0x80043430 for entities [Cait Sith Tri (ID: 17114023/0x010523A7), Cait Sith Tri (ID: 17114023/0x010523A7)], work=43*, param=29811
  4: 0x00B2 [0x1C] WAIT(5* ticks)
  5: 0x00B5 [0xC5] LOAD_SCHEDULED_TASK_ALT3: Load scheduler 0x80043430 for entities [Cait Sith Ceithir (ID: 17114024/0x010523A8), Cait Sith Ceithir (ID: 17114024/0x010523A8)], work=43*, param=29811
  6: 0x00C6 [0x1C] WAIT(15* ticks)
  7: 0x00C9 [0xC5] LOAD_SCHEDULED_TASK_ALT3: Load scheduler 0x80043430 for entities [Cait Sith Sia (ID: 17114026/0x010523AA), Cait Sith Sia (ID: 17114026/0x010523AA)], work=43*, param=29811
  8: 0x00DA [0x1C] WAIT(10* ticks)
  9: 0x00DD [0xC5] LOAD_SCHEDULED_TASK_ALT3: Load scheduler 0x80043430 for entities [Cait Sith Seachd (ID: 17114027/0x010523AB), Cait Sith Seachd (ID: 17114027/0x010523AB)], work=43*, param=29811
 10: 0x00EE [0x1C] WAIT(5* ticks)
 11: 0x00F1 [0xC5] LOAD_SCHEDULED_TASK_ALT3: Load scheduler 0x80043430 for entities [Cait Sith Ochd (ID: 17114028/0x010523AC), Cait Sith Ochd (ID: 17114028/0x010523AC)], work=43*, param=29811
 12: 0x0102 [0x00] END_REQSTACK()
```

### Event 65535.7

#### Metadata

| Field        | Value    |
|--------------|----------|
| Entrypoint   | 0x0103   |
| Data Size    | 50 bytes |
| Instructions | 8        |

```
      00 01 02 03 04 05 06 07  08 09 0A 0B 0C 0D 0E 0F
      -- -- -- -- -- -- -- --  -- -- -- -- -- -- -- --
0100:          27 10 AB 23 05  01 09 27 10 AC 23 05 01     '..#...'..#..
0110: 09 27 10 AA 23 05 01 09  27 10 A8 23 05 01 09 27  .'..#...'..#...'
0120: 10 A7 23 05 01 09 27 10  A6 23 05 01 09 27 10 A5  ..#...'..#...'..
0130: 23 05 01 0A 00                                    #....           
```

#### Opcodes

```
  0: 0x0103 [0x27] REQ_SET(priority=0x10, entity_id=Cait Sith Seachd (ID: 17114027/0x010523AB), tag_num=0x09)
  1: 0x010A [0x27] REQ_SET(priority=0x10, entity_id=Cait Sith Ochd (ID: 17114028/0x010523AC), tag_num=0x09)
  2: 0x0111 [0x27] REQ_SET(priority=0x10, entity_id=Cait Sith Sia (ID: 17114026/0x010523AA), tag_num=0x09)
  3: 0x0118 [0x27] REQ_SET(priority=0x10, entity_id=Cait Sith Ceithir (ID: 17114024/0x010523A8), tag_num=0x09)
  4: 0x011F [0x27] REQ_SET(priority=0x10, entity_id=Cait Sith Tri (ID: 17114023/0x010523A7), tag_num=0x09)
  5: 0x0126 [0x27] REQ_SET(priority=0x10, entity_id=Cait Sith Dha (ID: 17114022/0x010523A6), tag_num=0x09)
  6: 0x012D [0x27] REQ_SET(priority=0x10, entity_id=Cait Sith Aon (ID: 17114021/0x010523A5), tag_num=0x0A)
  7: 0x0134 [0x00] END_REQSTACK()
```

### Event 65535.8

#### Metadata

| Field        | Value    |
|--------------|----------|
| Entrypoint   | 0x0135   |
| Data Size    | 70 bytes |
| Instructions | 8        |

```
      00 01 02 03 04 05 06 07  08 09 0A 0B 0C 0D 0E 0F
      -- -- -- -- -- -- -- --  -- -- -- -- -- -- -- --
0130:                5B 0F 80  AB 23 05 01 AB 23 05 01       [...#...#..
0140: 63 6F 62 34 1C 0A 80 5B  0F 80 A7 23 05 01 A7 23  cob4...[...#...#
0150: 05 01 63 6F 61 33 1C 01  80 5B 0F 80 AA 23 05 01  ..coa3...[...#..
0160: AA 23 05 01 73 69 61 34  1C 0E 80 5B 0F 80 A5 23  .#..sia4...[...#
0170: 05 01 A5 23 05 01 63 6F  61 35 00                 ...#..coa5.     
```

#### Opcodes

```
  0: 0x0135 [0x5B] LOAD_EXT_SCHEDULER: Load scheduler "cob4" with entities [Cait Sith Seachd (ID: 17114027/0x010523AB), Cait Sith Seachd (ID: 17114027/0x010523AB)], work=2098*
  1: 0x0144 [0x1C] WAIT(30* ticks)
  2: 0x0147 [0x5B] LOAD_EXT_SCHEDULER: Load scheduler "coa3" with entities [Cait Sith Tri (ID: 17114023/0x010523A7), Cait Sith Tri (ID: 17114023/0x010523A7)], work=2098*
  3: 0x0156 [0x1C] WAIT(60* ticks)
  4: 0x0159 [0x5B] LOAD_EXT_SCHEDULER: Load scheduler "sia4" with entities [Cait Sith Sia (ID: 17114026/0x010523AA), Cait Sith Sia (ID: 17114026/0x010523AA)], work=2098*
  5: 0x0168 [0x1C] WAIT(15* ticks)
  6: 0x016B [0x5B] LOAD_EXT_SCHEDULER: Load scheduler "coa5" with entities [Cait Sith Aon (ID: 17114021/0x010523A5), Cait Sith Aon (ID: 17114021/0x010523A5)], work=2098*
  7: 0x017A [0x00] END_REQSTACK()
```

### Event 65535.9

#### Metadata

| Field        | Value    |
|--------------|----------|
| Entrypoint   | 0x017B   |
| Data Size    | 61 bytes |
| Instructions | 5        |

```
      00 01 02 03 04 05 06 07  08 09 0A 0B 0C 0D 0E 0F
      -- -- -- -- -- -- -- --  -- -- -- -- -- -- -- --
0170:                                   5B 10 80 AB 23             [...#
0180: 05 01 AB 23 05 01 63 6F  6E 34 5B 10 80 A5 23 05  ...#..con4[...#.
0190: 01 A5 23 05 01 63 6F 6E  35 5B 10 80 A7 23 05 01  ..#..con5[...#..
01A0: A7 23 05 01 63 6F 6E 33  5B 11 80 AA 23 05 01 AA  .#..con3[...#...
01B0: 23 05 01 73 69 61 30 00                           #..sia0.        
```

#### Opcodes

```
  0: 0x017B [0x5B] LOAD_EXT_SCHEDULER: Load scheduler "con4" with entities [Cait Sith Seachd (ID: 17114027/0x010523AB), Cait Sith Seachd (ID: 17114027/0x010523AB)], work=1413*
  1: 0x018A [0x5B] LOAD_EXT_SCHEDULER: Load scheduler "con5" with entities [Cait Sith Aon (ID: 17114021/0x010523A5), Cait Sith Aon (ID: 17114021/0x010523A5)], work=1413*
  2: 0x0199 [0x5B] LOAD_EXT_SCHEDULER: Load scheduler "con3" with entities [Cait Sith Tri (ID: 17114023/0x010523A7), Cait Sith Tri (ID: 17114023/0x010523A7)], work=1413*
  3: 0x01A8 [0x5B] LOAD_EXT_SCHEDULER: Load scheduler "sia0" with entities [Cait Sith Sia (ID: 17114026/0x010523AA), Cait Sith Sia (ID: 17114026/0x010523AA)], work=2472*
  4: 0x01B7 [0x00] END_REQSTACK()
```

### Event 65535.10

#### Metadata

| Field        | Value    |
|--------------|----------|
| Entrypoint   | 0x01B8   |
| Data Size    | 70 bytes |
| Instructions | 8        |

```
      00 01 02 03 04 05 06 07  08 09 0A 0B 0C 0D 0E 0F
      -- -- -- -- -- -- -- --  -- -- -- -- -- -- -- --
01B0:                          5B 0F 80 A6 23 05 01 A6          [...#...
01C0: 23 05 01 63 6F 61 32 1C  12 80 5B 0F 80 A8 23 05  #..coa2...[...#.
01D0: 01 A8 23 05 01 63 6F 61  31 1C 13 80 5B 14 80 AC  ..#..coa1...[...
01E0: 23 05 01 AC 23 05 01 63  6F 61 39 1C 0A 80 5B 15  #...#..coa9...[.
01F0: 80 A9 23 05 01 A9 23 05  01 75 64 65 32 00        ..#...#..ude2.  
```

#### Opcodes

```
  0: 0x01B8 [0x5B] LOAD_EXT_SCHEDULER: Load scheduler "coa2" with entities [Cait Sith Dha (ID: 17114022/0x010523A6), Cait Sith Dha (ID: 17114022/0x010523A6)], work=2098*
  1: 0x01C7 [0x1C] WAIT(45* ticks)
  2: 0x01CA [0x5B] LOAD_EXT_SCHEDULER: Load scheduler "coa1" with entities [Cait Sith Ceithir (ID: 17114024/0x010523A8), Cait Sith Ceithir (ID: 17114024/0x010523A8)], work=2098*
  3: 0x01D9 [0x1C] WAIT(90* ticks)
  4: 0x01DC [0x5B] LOAD_EXT_SCHEDULER: Load scheduler "coa9" with entities [Cait Sith Ochd (ID: 17114028/0x010523AC), Cait Sith Ochd (ID: 17114028/0x010523AC)], work=2099*
  5: 0x01EB [0x1C] WAIT(30* ticks)
  6: 0x01EE [0x5B] LOAD_EXT_SCHEDULER: Load scheduler "ude2" with entities [Cait Sith Coig (ID: 17114025/0x010523A9), Cait Sith Coig (ID: 17114025/0x010523A9)], work=1412*
  7: 0x01FD [0x00] END_REQSTACK()
```

### Event 65535.11

#### Metadata

| Field        | Value    |
|--------------|----------|
| Entrypoint   | 0x01FE   |
| Data Size    | 61 bytes |
| Instructions | 5        |

```
      00 01 02 03 04 05 06 07  08 09 0A 0B 0C 0D 0E 0F
      -- -- -- -- -- -- -- --  -- -- -- -- -- -- -- --
01F0:                                            5B 10                [.
0200: 80 A8 23 05 01 A8 23 05  01 63 6F 6E 31 5B 14 80  ..#...#..con1[..
0210: AC 23 05 01 AC 23 05 01  63 6F 6E 39 5B 10 80 A6  .#...#..con9[...
0220: 23 05 01 A6 23 05 01 63  6F 6E 32 5B 15 80 A9 23  #...#..con2[...#
0230: 05 01 A9 23 05 01 75 64  65 6C 00                 ...#..udel.     
```

#### Opcodes

```
  0: 0x01FE [0x5B] LOAD_EXT_SCHEDULER: Load scheduler "con1" with entities [Cait Sith Ceithir (ID: 17114024/0x010523A8), Cait Sith Ceithir (ID: 17114024/0x010523A8)], work=1413*
  1: 0x020D [0x5B] LOAD_EXT_SCHEDULER: Load scheduler "con9" with entities [Cait Sith Ochd (ID: 17114028/0x010523AC), Cait Sith Ochd (ID: 17114028/0x010523AC)], work=2099*
  2: 0x021C [0x5B] LOAD_EXT_SCHEDULER: Load scheduler "con2" with entities [Cait Sith Dha (ID: 17114022/0x010523A6), Cait Sith Dha (ID: 17114022/0x010523A6)], work=1413*
  3: 0x022B [0x5B] LOAD_EXT_SCHEDULER: Load scheduler "udel" with entities [Cait Sith Coig (ID: 17114025/0x010523A9), Cait Sith Coig (ID: 17114025/0x010523A9)], work=1412*
  4: 0x023A [0x00] END_REQSTACK()
```

### Event 65535.12

#### Metadata

| Field        | Value    |
|--------------|----------|
| Entrypoint   | 0x023B   |
| Data Size    | 85 bytes |
| Instructions | 9        |

```
      00 01 02 03 04 05 06 07  08 09 0A 0B 0C 0D 0E 0F
      -- -- -- -- -- -- -- --  -- -- -- -- -- -- -- --
0230:                                   5B 16 80 A6 23             [...#
0240: 05 01 A6 23 05 01 74 6C  32 30 1C 12 80 5B 16 80  ...#..tl20...[..
0250: A6 23 05 01 A6 23 05 01  74 6C 32 31 5B 10 80 A7  .#...#..tl21[...
0260: 23 05 01 A7 23 05 01 74  6C 33 30 1C 0A 80 5B 10  #...#..tl30...[.
0270: 80 A7 23 05 01 A7 23 05  01 74 6C 33 31 1C 01 80  ..#...#..tl31...
0280: 5B 14 80 AC 23 05 01 AC  23 05 01 74 6C 39 31 00  [...#...#..tl91.
```

#### Opcodes

```
  0: 0x023B [0x5B] LOAD_EXT_SCHEDULER: Load scheduler "tl20" with entities [Cait Sith Dha (ID: 17114022/0x010523A6), Cait Sith Dha (ID: 17114022/0x010523A6)], work=2100*
  1: 0x024A [0x1C] WAIT(45* ticks)
  2: 0x024D [0x5B] LOAD_EXT_SCHEDULER: Load scheduler "tl21" with entities [Cait Sith Dha (ID: 17114022/0x010523A6), Cait Sith Dha (ID: 17114022/0x010523A6)], work=2100*
  3: 0x025C [0x5B] LOAD_EXT_SCHEDULER: Load scheduler "tl30" with entities [Cait Sith Tri (ID: 17114023/0x010523A7), Cait Sith Tri (ID: 17114023/0x010523A7)], work=1413*
  4: 0x026B [0x1C] WAIT(30* ticks)
  5: 0x026E [0x5B] LOAD_EXT_SCHEDULER: Load scheduler "tl31" with entities [Cait Sith Tri (ID: 17114023/0x010523A7), Cait Sith Tri (ID: 17114023/0x010523A7)], work=1413*
  6: 0x027D [0x1C] WAIT(60* ticks)
  7: 0x0280 [0x5B] LOAD_EXT_SCHEDULER: Load scheduler "tl91" with entities [Cait Sith Ochd (ID: 17114028/0x010523AC), Cait Sith Ochd (ID: 17114028/0x010523AC)], work=2099*
  8: 0x028F [0x00] END_REQSTACK()
```

### Event 65535.13

#### Metadata

| Field        | Value     |
|--------------|-----------|
| Entrypoint   | 0x0290    |
| Data Size    | 103 bytes |
| Instructions | 11        |

```
      00 01 02 03 04 05 06 07  08 09 0A 0B 0C 0D 0E 0F
      -- -- -- -- -- -- -- --  -- -- -- -- -- -- -- --
0290: 5B 16 80 A6 23 05 01 A6  23 05 01 77 73 61 32 1C  [...#...#..wsa2.
02A0: 01 80 5B 16 80 A8 23 05  01 A8 23 05 01 77 73 61  ..[...#...#..wsa
02B0: 31 1C 0E 80 5B 0F 80 AF  23 05 01 AF 23 05 01 6E  1...[...#...#..n
02C0: 79 61 6C 5B 16 80 A7 23  05 01 A7 23 05 01 77 73  yal[...#...#..ws
02D0: 61 33 1C 0A 80 5B 11 80  AA 23 05 01 AA 23 05 01  a3...[...#...#..
02E0: 73 69 61 31 5B 16 80 AB  23 05 01 AB 23 05 01 77  sia1[...#...#..w
02F0: 73 61 34 1C 12 80 00                              sa4....         
```

#### Opcodes

```
  0: 0x0290 [0x5B] LOAD_EXT_SCHEDULER: Load scheduler "wsa2" with entities [Cait Sith Dha (ID: 17114022/0x010523A6), Cait Sith Dha (ID: 17114022/0x010523A6)], work=2100*
  1: 0x029F [0x1C] WAIT(60* ticks)
  2: 0x02A2 [0x5B] LOAD_EXT_SCHEDULER: Load scheduler "wsa1" with entities [Cait Sith Ceithir (ID: 17114024/0x010523A8), Cait Sith Ceithir (ID: 17114024/0x010523A8)], work=2100*
  3: 0x02B1 [0x1C] WAIT(15* ticks)
  4: 0x02B4 [0x5B] LOAD_EXT_SCHEDULER: Load scheduler "nyal" with entities [Unnamed NPC (ID: 17114031/0x010523AF), Unnamed NPC (ID: 17114031/0x010523AF)], work=2098*
  5: 0x02C3 [0x5B] LOAD_EXT_SCHEDULER: Load scheduler "wsa3" with entities [Cait Sith Tri (ID: 17114023/0x010523A7), Cait Sith Tri (ID: 17114023/0x010523A7)], work=2100*
  6: 0x02D2 [0x1C] WAIT(30* ticks)
  7: 0x02D5 [0x5B] LOAD_EXT_SCHEDULER: Load scheduler "sia1" with entities [Cait Sith Sia (ID: 17114026/0x010523AA), Cait Sith Sia (ID: 17114026/0x010523AA)], work=2472*
  8: 0x02E4 [0x5B] LOAD_EXT_SCHEDULER: Load scheduler "wsa4" with entities [Cait Sith Seachd (ID: 17114027/0x010523AB), Cait Sith Seachd (ID: 17114027/0x010523AB)], work=2100*
  9: 0x02F3 [0x1C] WAIT(45* ticks)
 10: 0x02F6 [0x00] END_REQSTACK()
```

### Event 65535.14

#### Metadata

| Field        | Value    |
|--------------|----------|
| Entrypoint   | 0x02F7   |
| Data Size    | 91 bytes |
| Instructions | 7        |

```
      00 01 02 03 04 05 06 07  08 09 0A 0B 0C 0D 0E 0F
      -- -- -- -- -- -- -- --  -- -- -- -- -- -- -- --
02F0:                      5B  0F 80 AF 23 05 01 AF 23         [...#...#
0300: 05 01 6E 79 61 6B 5B 10  80 A6 23 05 01 A6 23 05  ..nyak[...#...#.
0310: 01 63 6F 6E 32 5B 10 80  A8 23 05 01 A8 23 05 01  .con2[...#...#..
0320: 63 6F 6E 31 5B 10 80 A7  23 05 01 A7 23 05 01 63  con1[...#...#..c
0330: 6F 6E 33 5B 10 80 AB 23  05 01 AB 23 05 01 63 6F  on3[...#...#..co
0340: 6E 34 5B 11 80 AA 23 05  01 AA 23 05 01 73 69 61  n4[...#...#..sia
0350: 30 00                                             0.              
```

#### Opcodes

```
  0: 0x02F7 [0x5B] LOAD_EXT_SCHEDULER: Load scheduler "nyak" with entities [Unnamed NPC (ID: 17114031/0x010523AF), Unnamed NPC (ID: 17114031/0x010523AF)], work=2098*
  1: 0x0306 [0x5B] LOAD_EXT_SCHEDULER: Load scheduler "con2" with entities [Cait Sith Dha (ID: 17114022/0x010523A6), Cait Sith Dha (ID: 17114022/0x010523A6)], work=1413*
  2: 0x0315 [0x5B] LOAD_EXT_SCHEDULER: Load scheduler "con1" with entities [Cait Sith Ceithir (ID: 17114024/0x010523A8), Cait Sith Ceithir (ID: 17114024/0x010523A8)], work=1413*
  3: 0x0324 [0x5B] LOAD_EXT_SCHEDULER: Load scheduler "con3" with entities [Cait Sith Tri (ID: 17114023/0x010523A7), Cait Sith Tri (ID: 17114023/0x010523A7)], work=1413*
  4: 0x0333 [0x5B] LOAD_EXT_SCHEDULER: Load scheduler "con4" with entities [Cait Sith Seachd (ID: 17114027/0x010523AB), Cait Sith Seachd (ID: 17114027/0x010523AB)], work=1413*
  5: 0x0342 [0x5B] LOAD_EXT_SCHEDULER: Load scheduler "sia0" with entities [Cait Sith Sia (ID: 17114026/0x010523AA), Cait Sith Sia (ID: 17114026/0x010523AA)], work=2472*
  6: 0x0351 [0x00] END_REQSTACK()
```

### Event 65535.15

#### Metadata

| Field        | Value     |
|--------------|-----------|
| Entrypoint   | 0x0352    |
| Data Size    | 121 bytes |
| Instructions | 9         |

```
      00 01 02 03 04 05 06 07  08 09 0A 0B 0C 0D 0E 0F
      -- -- -- -- -- -- -- --  -- -- -- -- -- -- -- --
0350:       5B 0F 80 AB 23 05  01 AB 23 05 01 63 6F 62    [...#...#..cob
0360: 34 5B 0F 80 A7 23 05 01  A7 23 05 01 63 6F 61 33  4[...#...#..coa3
0370: 5B 0F 80 AA 23 05 01 AA  23 05 01 73 69 61 34 5B  [...#...#..sia4[
0380: 0F 80 A5 23 05 01 A5 23  05 01 63 6F 61 35 5B 0F  ...#...#..coa5[.
0390: 80 A6 23 05 01 A6 23 05  01 63 6F 61 32 5B 14 80  ..#...#..coa2[..
03A0: AC 23 05 01 AC 23 05 01  63 6F 61 39 5B 0F 80 A8  .#...#..coa9[...
03B0: 23 05 01 A8 23 05 01 63  6F 61 31 5B 15 80 A9 23  #...#..coa1[...#
03C0: 05 01 A9 23 05 01 75 64  65 32 00                 ...#..ude2.     
```

#### Opcodes

```
  0: 0x0352 [0x5B] LOAD_EXT_SCHEDULER: Load scheduler "cob4" with entities [Cait Sith Seachd (ID: 17114027/0x010523AB), Cait Sith Seachd (ID: 17114027/0x010523AB)], work=2098*
  1: 0x0361 [0x5B] LOAD_EXT_SCHEDULER: Load scheduler "coa3" with entities [Cait Sith Tri (ID: 17114023/0x010523A7), Cait Sith Tri (ID: 17114023/0x010523A7)], work=2098*
  2: 0x0370 [0x5B] LOAD_EXT_SCHEDULER: Load scheduler "sia4" with entities [Cait Sith Sia (ID: 17114026/0x010523AA), Cait Sith Sia (ID: 17114026/0x010523AA)], work=2098*
  3: 0x037F [0x5B] LOAD_EXT_SCHEDULER: Load scheduler "coa5" with entities [Cait Sith Aon (ID: 17114021/0x010523A5), Cait Sith Aon (ID: 17114021/0x010523A5)], work=2098*
  4: 0x038E [0x5B] LOAD_EXT_SCHEDULER: Load scheduler "coa2" with entities [Cait Sith Dha (ID: 17114022/0x010523A6), Cait Sith Dha (ID: 17114022/0x010523A6)], work=2098*
  5: 0x039D [0x5B] LOAD_EXT_SCHEDULER: Load scheduler "coa9" with entities [Cait Sith Ochd (ID: 17114028/0x010523AC), Cait Sith Ochd (ID: 17114028/0x010523AC)], work=2099*
  6: 0x03AC [0x5B] LOAD_EXT_SCHEDULER: Load scheduler "coa1" with entities [Cait Sith Ceithir (ID: 17114024/0x010523A8), Cait Sith Ceithir (ID: 17114024/0x010523A8)], work=2098*
  7: 0x03BB [0x5B] LOAD_EXT_SCHEDULER: Load scheduler "ude2" with entities [Cait Sith Coig (ID: 17114025/0x010523A9), Cait Sith Coig (ID: 17114025/0x010523A9)], work=1412*
  8: 0x03CA [0x00] END_REQSTACK()
```

### Event 65535.16

#### Metadata

| Field        | Value     |
|--------------|-----------|
| Entrypoint   | 0x03CB    |
| Data Size    | 279 bytes |
| Instructions | 23        |

```
      00 01 02 03 04 05 06 07  08 09 0A 0B 0C 0D 0E 0F
      -- -- -- -- -- -- -- --  -- -- -- -- -- -- -- --
03C0:                                   BA AC 23 05 01             ..#..
03D0: 17 80 18 80 04 80 19 80  BA A6 23 05 01 1A 80 1B  ..........#.....
03E0: 80 04 80 1C 80 BA A8 23  05 01 1D 80 1E 80 1F 80  .......#........
03F0: 20 80 BA A7 23 05 01 21  80 22 80 1F 80 23 80 BA   ...#..!."...#..
0400: AB 23 05 01 24 80 25 80  04 80 26 80 BA AA 23 05  .#..$.%...&...#.
0410: 01 27 80 28 80 04 80 29  80 59 05 A5 23 05 01 01  .'.(...).Y..#...
0420: BA A5 23 05 01 2A 80 2B  80 2C 80 2D 80 BA A9 23  ..#..*.+.,.-...#
0430: 05 01 2E 80 2F 80 30 80  31 80 59 05 AD 23 05 01  ..../.0.1.Y..#..
0440: 01 BA AD 23 05 01 32 80  33 80 34 80 35 80 7C 01  ...#..2.3.4.5.|.
0450: A9 23 05 01 81 00 A9 23  05 01 5B 36 80 A9 23 05  .#.....#..[6..#.
0460: 01 A9 23 05 01 66 64 30  30 5B 14 80 AC 23 05 01  ..#..fd00[...#..
0470: AC 23 05 01 63 6F 6E 39  5B 10 80 A6 23 05 01 A6  .#..con9[...#...
0480: 23 05 01 63 6F 6E 32 5B  10 80 A8 23 05 01 A8 23  #..con2[...#...#
0490: 05 01 63 6F 6E 31 5B 10  80 A7 23 05 01 A7 23 05  ..con1[...#...#.
04A0: 01 63 6F 6E 33 5B 10 80  AB 23 05 01 AB 23 05 01  .con3[...#...#..
04B0: 63 6F 6E 34 5B 10 80 A5  23 05 01 A5 23 05 01 63  con4[...#...#..c
04C0: 6F 6E 35 5B 11 80 AA 23  05 01 AA 23 05 01 73 69  on5[...#...#..si
04D0: 61 30 5B 15 80 A9 23 05  01 A9 23 05 01 75 64 65  a0[...#...#..ude
04E0: 6C 00                                             l.              
```

#### Opcodes

```
  0: 0x03CB [0xBA] SET_ENTITY_POSITION(entity_id=Cait Sith Ochd (ID: 17114028/0x010523AC), pos_x=42.022*, pos_z=320.113*, pos_y=0.000*, direction=90.0°*)
  1: 0x03D8 [0xBA] SET_ENTITY_POSITION(entity_id=Cait Sith Dha (ID: 17114022/0x010523A6), pos_x=41.072*, pos_z=319.569*, pos_y=0.000*, direction=69.3°*)
  2: 0x03E5 [0xBA] SET_ENTITY_POSITION(entity_id=Cait Sith Ceithir (ID: 17114024/0x010523A8), pos_x=43.006*, pos_z=317.409*, pos_y=-0.071*, direction=180.0°*)
  3: 0x03F2 [0xBA] SET_ENTITY_POSITION(entity_id=Cait Sith Tri (ID: 17114023/0x010523A7), pos_x=41.051*, pos_z=317.429*, pos_y=-0.071*, direction=315.0°*)
  4: 0x03FF [0xBA] SET_ENTITY_POSITION(entity_id=Cait Sith Seachd (ID: 17114027/0x010523AB), pos_x=41.988*, pos_z=316.828*, pos_y=0.000*, direction=270.0°*)
  5: 0x040C [0xBA] SET_ENTITY_POSITION(entity_id=Cait Sith Sia (ID: 17114026/0x010523AA), pos_x=39.830*, pos_z=318.059*, pos_y=0.000*, direction=350.1°*)
  6: 0x0419 [0x59] UPDATE_ENTITY_DATA: Cait Sith Aon (ID: 17114021/0x010523A5)->Render.Flags0 |= 0x200000
  7: 0x0420 [0xBA] SET_ENTITY_POSITION(entity_id=Cait Sith Aon (ID: 17114021/0x010523A5), pos_x=39.332*, pos_z=319.156*, pos_y=-1.000*, direction=5.8°*)
  8: 0x042D [0xBA] SET_ENTITY_POSITION(entity_id=Cait Sith Coig (ID: 17114025/0x010523A9), pos_x=44.316*, pos_z=318.112*, pos_y=-0.145*, direction=184.7°*)
  9: 0x043A [0x59] UPDATE_ENTITY_DATA: Cait Sith Naoi (ID: 17114029/0x010523AD)->Render.Flags0 |= 0x200000
 10: 0x0441 [0xBA] SET_ENTITY_POSITION(entity_id=Cait Sith Naoi (ID: 17114029/0x010523AD), pos_x=44.599*, pos_z=319.559*, pos_y=-1.600*, direction=160.0°*)
 11: 0x044E [0x7C] Cait Sith Coig (ID: 17114025/0x010523A9)->Render.Flags2 |= 0x01
 12: 0x0454 [0x81] SET_ENTITY_BLINKING(blink_flag=0x00, entity=Cait Sith Coig (ID: 17114025/0x010523A9))
 13: 0x045A [0x5B] LOAD_EXT_SCHEDULER: Load scheduler "fd00" with entities [Cait Sith Coig (ID: 17114025/0x010523A9), Cait Sith Coig (ID: 17114025/0x010523A9)], work=1311*
 14: 0x0469 [0x5B] LOAD_EXT_SCHEDULER: Load scheduler "con9" with entities [Cait Sith Ochd (ID: 17114028/0x010523AC), Cait Sith Ochd (ID: 17114028/0x010523AC)], work=2099*
 15: 0x0478 [0x5B] LOAD_EXT_SCHEDULER: Load scheduler "con2" with entities [Cait Sith Dha (ID: 17114022/0x010523A6), Cait Sith Dha (ID: 17114022/0x010523A6)], work=1413*
 16: 0x0487 [0x5B] LOAD_EXT_SCHEDULER: Load scheduler "con1" with entities [Cait Sith Ceithir (ID: 17114024/0x010523A8), Cait Sith Ceithir (ID: 17114024/0x010523A8)], work=1413*
 17: 0x0496 [0x5B] LOAD_EXT_SCHEDULER: Load scheduler "con3" with entities [Cait Sith Tri (ID: 17114023/0x010523A7), Cait Sith Tri (ID: 17114023/0x010523A7)], work=1413*
 18: 0x04A5 [0x5B] LOAD_EXT_SCHEDULER: Load scheduler "con4" with entities [Cait Sith Seachd (ID: 17114027/0x010523AB), Cait Sith Seachd (ID: 17114027/0x010523AB)], work=1413*
 19: 0x04B4 [0x5B] LOAD_EXT_SCHEDULER: Load scheduler "con5" with entities [Cait Sith Aon (ID: 17114021/0x010523A5), Cait Sith Aon (ID: 17114021/0x010523A5)], work=1413*
 20: 0x04C3 [0x5B] LOAD_EXT_SCHEDULER: Load scheduler "sia0" with entities [Cait Sith Sia (ID: 17114026/0x010523AA), Cait Sith Sia (ID: 17114026/0x010523AA)], work=2472*
 21: 0x04D2 [0x5B] LOAD_EXT_SCHEDULER: Load scheduler "udel" with entities [Cait Sith Coig (ID: 17114025/0x010523A9), Cait Sith Coig (ID: 17114025/0x010523A9)], work=1412*
 22: 0x04E1 [0x00] END_REQSTACK()
```

### Event 65535.17

#### Metadata

| Field        | Value    |
|--------------|----------|
| Entrypoint   | 0x04E2   |
| Data Size    | 10 bytes |
| Instructions | 2        |

```
      00 01 02 03 04 05 06 07  08 09 0A 0B 0C 0D 0E 0F
      -- -- -- -- -- -- -- --  -- -- -- -- -- -- -- --
04E0:       6C A4 23 05 01 00  80 02 80 00                l.#.......    
```

#### Opcodes

```
  0: 0x04E2 [0x6C] FADE_ENTITY_COLOR(entity_id=Aquila (ID: 17114020/0x010523A4), end_alpha=128*, fade_time=1*)
  1: 0x04EB [0x00] END_REQSTACK()
```

### Event 65535.18

#### Metadata

| Field        | Value    |
|--------------|----------|
| Entrypoint   | 0x04EC   |
| Data Size    | 10 bytes |
| Instructions | 2        |

```
      00 01 02 03 04 05 06 07  08 09 0A 0B 0C 0D 0E 0F
      -- -- -- -- -- -- -- --  -- -- -- -- -- -- -- --
04E0:                                      6C A4 23 05              l.#.
04F0: 01 04 80 02 80 00                                 ......          
```

#### Opcodes

```
  0: 0x04EC [0x6C] FADE_ENTITY_COLOR(entity_id=Aquila (ID: 17114020/0x010523A4), end_alpha=0*, fade_time=1*)
  1: 0x04F5 [0x00] END_REQSTACK()
```

### Event 212

#### Metadata

| Field        | Value   |
|--------------|---------|
| Entrypoint   | 0x04F6  |
| Data Size    | 1 bytes |
| Instructions | 1       |

```
      00 01 02 03 04 05 06 07  08 09 0A 0B 0C 0D 0E 0F
      -- -- -- -- -- -- -- --  -- -- -- -- -- -- -- --
04F0:                   00                                    .         
```

#### Opcodes

```
  0: 0x04F6 [0x00] END_REQSTACK()
```

### Event 7

#### Metadata

| Field        | Value   |
|--------------|---------|
| Entrypoint   | 0x04F7  |
| Data Size    | 1 bytes |
| Instructions | 1       |

```
      00 01 02 03 04 05 06 07  08 09 0A 0B 0C 0D 0E 0F
      -- -- -- -- -- -- -- --  -- -- -- -- -- -- -- --
04F0:                      00                                  .        
```

#### Opcodes

```
  0: 0x04F7 [0x00] END_REQSTACK()
```
