# 17113986 - Jayramus

## Common Data

| Field            | Value                      |
|------------------|----------------------------|
| Zone             | Jugner Forest [S] (ID: 82) |
| Block Size       | 612 bytes                  |
| Total Events     | 20                         |
| References Count | 39                         |

## List of Events

| Event ID                   | Entrypoint   |   Size |   Instructions |
|----------------------------|--------------|--------|----------------|
| [65535](#event-65535)      | 0x0000       |      1 |              1 |
| [65535.1](#event-655351)   | 0x0001       |     28 |              4 |
| [65535.2](#event-655352)   | 0x001D       |      7 |              2 |
| [65535.3](#event-655353)   | 0x0024       |     35 |              9 |
| [65535.4](#event-655354)   | 0x0047       |     35 |              9 |
| [212](#event-212)          | 0x006A       |      1 |              1 |
| [214](#event-214)          | 0x006B       |      1 |              1 |
| [65535.5](#event-655355)   | 0x006C       |     14 |              4 |
| [65535.6](#event-655356)   | 0x007A       |     42 |             10 |
| [65535.7](#event-655357)   | 0x00A4       |     14 |              4 |
| [65535.8](#event-655358)   | 0x00B2       |     15 |              5 |
| [65535.9](#event-655359)   | 0x00C1       |     22 |              6 |
| [65535.10](#event-6553510) | 0x00D7       |     43 |              7 |
| [215](#event-215)          | 0x0102       |      1 |              1 |
| [65535.11](#event-6553511) | 0x0103       |     16 |              4 |
| [65535.12](#event-6553512) | 0x0113       |     14 |              4 |
| [65535.13](#event-6553513) | 0x0121       |     22 |              6 |
| [65535.14](#event-6553514) | 0x0137       |     35 |              9 |
| [213](#event-213)          | 0x015A       |      1 |              1 |
| [65535.15](#event-6553515) | 0x015B       |     11 |              3 |

## DAT References (imed_data)

|   Index | Hex Value   |   Dec Value |
|---------|-------------|-------------|
|       0 | 0x0050      |          80 |
|       1 | 0x0001      |           1 |
|       2 | 0x0000      |           0 |
|       3 | 0x0028      |          40 |
|       4 | 0x000D      |          13 |
|       5 | 0xFFFB9C76  |  4294679670 |
|       6 | 0x159AF     |       88495 |
|       7 | 0x0248      |         584 |
|       8 | 0x66796     |      419734 |
|       9 | 0x57282     |      356994 |
|      10 | 0x0070      |         112 |
|      11 | 0x66A1F     |      420383 |
|      12 | 0x57F30     |      360240 |
|      13 | 0x6659D     |      419229 |
|      14 | 0x58F2F     |      364335 |
|      15 | 0x001E      |          30 |
|      16 | 0x66671     |      419441 |
|      17 | 0x5CBD7     |      379863 |
|      18 | 0xFFFFFC7B  |  4294966395 |
|      19 | 0x66F20     |      421664 |
|      20 | 0x5DA0C     |      383500 |
|      21 | 0xFFFFFDE0  |  4294966752 |
|      22 | 0x615BB     |      398779 |
|      23 | 0x653D3     |      414675 |
|      24 | 0x03E7      |         999 |
|      25 | 0x6137A     |      398202 |
|      26 | 0x66F76     |      421750 |
|      27 | 0x032C      |         812 |
|      28 | 0x0063      |          99 |
|      29 | 0x0021      |          33 |
|      30 | 0x0078      |         120 |
|      31 | 0x61DA8     |      400808 |
|      32 | 0x652EE     |      414446 |
|      33 | 0xFFF93463  |  4294521955 |
|      34 | 0xFFF8DC08  |  4294499336 |
|      35 | 0x011F      |         287 |
|      36 | 0xFFFA6BA4  |  4294601636 |
|      37 | 0xFFFB2A67  |  4294650471 |
|      38 | 0x0051      |          81 |

## Events

### Event 65535

#### Metadata

| Field        | Value   |
|--------------|---------|
| Entrypoint   | 0x0000  |
| Data Size    | 1 bytes |
| Instructions | 1       |

```
      00 01 02 03 04 05 06 07  08 09 0A 0B 0C 0D 0E 0F
      -- -- -- -- -- -- -- --  -- -- -- -- -- -- -- --
0000: 00                                                .               
```

#### Opcodes

```
  0: 0x0000 [0x00] END_REQSTACK()
```

### Event 65535.1

#### Metadata

| Field        | Value    |
|--------------|----------|
| Entrypoint   | 0x0001   |
| Data Size    | 28 bytes |
| Instructions | 4        |

```
      00 01 02 03 04 05 06 07  08 09 0A 0B 0C 0D 0E 0F
      -- -- -- -- -- -- -- --  -- -- -- -- -- -- -- --
0000:    32 00 80 7E 06 F8 FF  FF 7F 01 80 02 80 01 80   2..~...........
0010: 01 80 01 80 01 80 7E 04  F8 FF FF 7F 00           ......~......   
```

#### Opcodes

```
  0: 0x0001 [0x32] ExtData[1]->MainSpeed = 80* * 0.1
  1: 0x0004 [0x7E] CHOCOBO_MOUNT: Mode 6 (custom mount) on EventEntity
  2: 0x0016 [0x7E] CHOCOBO_MOUNT: Mode 4 on EventEntity
  3: 0x001C [0x00] END_REQSTACK()
```

### Event 65535.2

#### Metadata

| Field        | Value   |
|--------------|---------|
| Entrypoint   | 0x001D  |
| Data Size    | 7 bytes |
| Instructions | 2       |

```
      00 01 02 03 04 05 06 07  08 09 0A 0B 0C 0D 0E 0F
      -- -- -- -- -- -- -- --  -- -- -- -- -- -- -- --
0010:                                         7E 05 F8               ~..
0020: FF FF 7F 00                                       ....            
```

#### Opcodes

```
  0: 0x001D [0x7E] CHOCOBO_MOUNT: Dismount EventEntity (status = 0)
  1: 0x0023 [0x00] END_REQSTACK()
```

### Event 65535.3

#### Metadata

| Field        | Value    |
|--------------|----------|
| Entrypoint   | 0x0024   |
| Data Size    | 35 bytes |
| Instructions | 9        |

```
      00 01 02 03 04 05 06 07  08 09 0A 0B 0C 0D 0E 0F
      -- -- -- -- -- -- -- --  -- -- -- -- -- -- -- --
0020:             03 00 00 25  10 03 01 00 27 10 03 02      ...%....'...
0030: 00 26 10 03 03 00 28 10  32 03 80 1F 00 00 00 01  .&....(.2.......
0040: 00 02 00 1F 01 6F 00                              .....o.         
```

#### Opcodes

```
  0: 0x0024 [0x03] ExtData[1]->WorkLocal[0] = Work_Zone[37]
  1: 0x0029 [0x03] ExtData[1]->WorkLocal[1] = Work_Zone[39]
  2: 0x002E [0x03] ExtData[1]->WorkLocal[2] = Work_Zone[38]
  3: 0x0033 [0x03] ExtData[1]->WorkLocal[3] = Work_Zone[40]
  4: 0x0038 [0x32] ExtData[1]->MainSpeed = 40* * 0.1
  5: 0x003B [0x1F] MOVE_ENTITY: EventEntity moves to X=ExtData[1]->WorkLocal[0], Z=ExtData[1]->WorkLocal[1], Y=ExtData[1]->WorkLocal[2]
  6: 0x0043 [0x1F] MOVE_ENTITY: Update entity position (mode=1)
  7: 0x0045 [0x6F] WAIT_FRAME_DELAY: Yield until WaitTime reaches zero
  8: 0x0046 [0x00] END_REQSTACK()
```

### Event 65535.4

#### Metadata

| Field        | Value    |
|--------------|----------|
| Entrypoint   | 0x0047   |
| Data Size    | 35 bytes |
| Instructions | 9        |

```
      00 01 02 03 04 05 06 07  08 09 0A 0B 0C 0D 0E 0F
      -- -- -- -- -- -- -- --  -- -- -- -- -- -- -- --
0040:                      03  00 00 25 10 03 01 00 27         ...%....'
0050: 10 03 02 00 26 10 03 03  00 28 10 32 04 80 1F 00  ....&....(.2....
0060: 00 00 01 00 02 00 1F 01  6F 00                    ........o.      
```

#### Opcodes

```
  0: 0x0047 [0x03] ExtData[1]->WorkLocal[0] = Work_Zone[37]
  1: 0x004C [0x03] ExtData[1]->WorkLocal[1] = Work_Zone[39]
  2: 0x0051 [0x03] ExtData[1]->WorkLocal[2] = Work_Zone[38]
  3: 0x0056 [0x03] ExtData[1]->WorkLocal[3] = Work_Zone[40]
  4: 0x005B [0x32] ExtData[1]->MainSpeed = 13* * 0.1
  5: 0x005E [0x1F] MOVE_ENTITY: EventEntity moves to X=ExtData[1]->WorkLocal[0], Z=ExtData[1]->WorkLocal[1], Y=ExtData[1]->WorkLocal[2]
  6: 0x0066 [0x1F] MOVE_ENTITY: Update entity position (mode=1)
  7: 0x0068 [0x6F] WAIT_FRAME_DELAY: Yield until WaitTime reaches zero
  8: 0x0069 [0x00] END_REQSTACK()
```

### Event 212

#### Metadata

| Field        | Value   |
|--------------|---------|
| Entrypoint   | 0x006A  |
| Data Size    | 1 bytes |
| Instructions | 1       |

```
      00 01 02 03 04 05 06 07  08 09 0A 0B 0C 0D 0E 0F
      -- -- -- -- -- -- -- --  -- -- -- -- -- -- -- --
0060:                                00                           .     
```

#### Opcodes

```
  0: 0x006A [0x00] END_REQSTACK()
```

### Event 214

#### Metadata

| Field        | Value   |
|--------------|---------|
| Entrypoint   | 0x006B  |
| Data Size    | 1 bytes |
| Instructions | 1       |

```
      00 01 02 03 04 05 06 07  08 09 0A 0B 0C 0D 0E 0F
      -- -- -- -- -- -- -- --  -- -- -- -- -- -- -- --
0060:                                   00                         .    
```

#### Opcodes

```
  0: 0x006B [0x00] END_REQSTACK()
```

### Event 65535.5

#### Metadata

| Field        | Value    |
|--------------|----------|
| Entrypoint   | 0x006C   |
| Data Size    | 14 bytes |
| Instructions | 4        |

```
      00 01 02 03 04 05 06 07  08 09 0A 0B 0C 0D 0E 0F
      -- -- -- -- -- -- -- --  -- -- -- -- -- -- -- --
0060:                                      32 03 80 1F              2...
0070: 00 05 80 06 80 07 80 1F  01 00                    ..........      
```

#### Opcodes

```
  0: 0x006C [0x32] ExtData[1]->MainSpeed = 40* * 0.1
  1: 0x006F [0x1F] MOVE_ENTITY: EventEntity moves to X=-287.626*, Z=88.495*, Y=0.584*
  2: 0x0077 [0x1F] MOVE_ENTITY: Update entity position (mode=1)
  3: 0x0079 [0x00] END_REQSTACK()
```

### Event 65535.6

#### Metadata

| Field        | Value    |
|--------------|----------|
| Entrypoint   | 0x007A   |
| Data Size    | 42 bytes |
| Instructions | 10       |

```
      00 01 02 03 04 05 06 07  08 09 0A 0B 0C 0D 0E 0F
      -- -- -- -- -- -- -- --  -- -- -- -- -- -- -- --
0070:                                32 03 80 1F 00 08            2.....
0080: 80 09 80 0A 80 1F 01 1F  00 0B 80 0C 80 02 80 1F  ................
0090: 01 1F 00 0D 80 0E 80 02  80 1F 01 1E 79 23 05 01  ............y#..
00A0: 1C 0F 80 00                                       ....            
```

#### Opcodes

```
  0: 0x007A [0x32] ExtData[1]->MainSpeed = 40* * 0.1
  1: 0x007D [0x1F] MOVE_ENTITY: EventEntity moves to X=419.734*, Z=356.994*, Y=0.112*
  2: 0x0085 [0x1F] MOVE_ENTITY: Update entity position (mode=1)
  3: 0x0087 [0x1F] MOVE_ENTITY: EventEntity moves to X=420.383*, Z=360.240*, Y=0.000*
  4: 0x008F [0x1F] MOVE_ENTITY: Update entity position (mode=1)
  5: 0x0091 [0x1F] MOVE_ENTITY: EventEntity moves to X=419.229*, Z=364.335*, Y=0.000*
  6: 0x0099 [0x1F] MOVE_ENTITY: Update entity position (mode=1)
  7: 0x009B [0x1E] EventEntity looks at Cyranuce (ID: 17113977/0x01052379) and starts talking
  8: 0x00A0 [0x1C] WAIT(30* ticks)
  9: 0x00A3 [0x00] END_REQSTACK()
```

### Event 65535.7

#### Metadata

| Field        | Value    |
|--------------|----------|
| Entrypoint   | 0x00A4   |
| Data Size    | 14 bytes |
| Instructions | 4        |

```
      00 01 02 03 04 05 06 07  08 09 0A 0B 0C 0D 0E 0F
      -- -- -- -- -- -- -- --  -- -- -- -- -- -- -- --
00A0:             32 03 80 1F  00 10 80 11 80 12 80 1F      2...........
00B0: 01 00                                             ..              
```

#### Opcodes

```
  0: 0x00A4 [0x32] ExtData[1]->MainSpeed = 40* * 0.1
  1: 0x00A7 [0x1F] MOVE_ENTITY: EventEntity moves to X=419.441*, Z=379.863*, Y=-0.901*
  2: 0x00AF [0x1F] MOVE_ENTITY: Update entity position (mode=1)
  3: 0x00B1 [0x00] END_REQSTACK()
```

### Event 65535.8

#### Metadata

| Field        | Value    |
|--------------|----------|
| Entrypoint   | 0x00B2   |
| Data Size    | 15 bytes |
| Instructions | 5        |

```
      00 01 02 03 04 05 06 07  08 09 0A 0B 0C 0D 0E 0F
      -- -- -- -- -- -- -- --  -- -- -- -- -- -- -- --
00B0:       32 03 80 1F 00 13  80 14 80 15 80 1F 01 6F    2............o
00C0: 00                                                .               
```

#### Opcodes

```
  0: 0x00B2 [0x32] ExtData[1]->MainSpeed = 40* * 0.1
  1: 0x00B5 [0x1F] MOVE_ENTITY: EventEntity moves to X=421.664*, Z=383.500*, Y=-0.544*
  2: 0x00BD [0x1F] MOVE_ENTITY: Update entity position (mode=1)
  3: 0x00BF [0x6F] WAIT_FRAME_DELAY: Yield until WaitTime reaches zero
  4: 0x00C0 [0x00] END_REQSTACK()
```

### Event 65535.9

#### Metadata

| Field        | Value    |
|--------------|----------|
| Entrypoint   | 0x00C1   |
| Data Size    | 22 bytes |
| Instructions | 6        |

```
      00 01 02 03 04 05 06 07  08 09 0A 0B 0C 0D 0E 0F
      -- -- -- -- -- -- -- --  -- -- -- -- -- -- -- --
00C0:    32 03 80 1F 00 16 80  17 80 18 80 1F 01 1E 54   2.............T
00D0: 23 05 01 1C 0F 80 00                              #......         
```

#### Opcodes

```
  0: 0x00C1 [0x32] ExtData[1]->MainSpeed = 40* * 0.1
  1: 0x00C4 [0x1F] MOVE_ENTITY: EventEntity moves to X=398.779*, Z=414.675*, Y=0.999*
  2: 0x00CC [0x1F] MOVE_ENTITY: Update entity position (mode=1)
  3: 0x00CE [0x1E] EventEntity looks at Excenmille (ID: 17113940/0x01052354) and starts talking
  4: 0x00D3 [0x1C] WAIT(30* ticks)
  5: 0x00D6 [0x00] END_REQSTACK()
```

### Event 65535.10

#### Metadata

| Field        | Value    |
|--------------|----------|
| Entrypoint   | 0x00D7   |
| Data Size    | 43 bytes |
| Instructions | 7        |

```
      00 01 02 03 04 05 06 07  08 09 0A 0B 0C 0D 0E 0F
      -- -- -- -- -- -- -- --  -- -- -- -- -- -- -- --
00D0:                      32  03 80 1F 00 19 80 1A 80         2........
00E0: 1B 80 1F 01 6F 66 1C 80  82 23 05 01 82 23 05 01  ....of...#...#..
00F0: 73 70 61 30 53 82 23 05  01 82 23 05 01 73 70 61  spa0S.#...#..spa
0100: 30 00                                             0.              
```

#### Opcodes

```
  0: 0x00D7 [0x32] ExtData[1]->MainSpeed = 40* * 0.1
  1: 0x00DA [0x1F] MOVE_ENTITY: EventEntity moves to X=398.202*, Z=421.750*, Y=0.812*
  2: 0x00E2 [0x1F] MOVE_ENTITY: Update entity position (mode=1)
  3: 0x00E4 [0x6F] WAIT_FRAME_DELAY: Yield until WaitTime reaches zero
  4: 0x00E5 [0x66] LOAD_EXT_SCHEDULER_MAIN: Load scheduler "spa0" with entities [Jayramus (ID: 17113986/0x01052382), Jayramus (ID: 17113986/0x01052382)], work=99*
  5: 0x00F4 [0x53] WAIT_SCHEDULER_TASK: Wait for scheduler "spa0" with entities [Jayramus (ID: 17113986/0x01052382), Jayramus (ID: 17113986/0x01052382)]
  6: 0x0101 [0x00] END_REQSTACK()
```

### Event 215

#### Metadata

| Field        | Value   |
|--------------|---------|
| Entrypoint   | 0x0102  |
| Data Size    | 1 bytes |
| Instructions | 1       |

```
      00 01 02 03 04 05 06 07  08 09 0A 0B 0C 0D 0E 0F
      -- -- -- -- -- -- -- --  -- -- -- -- -- -- -- --
0100:       00                                            .             
```

#### Opcodes

```
  0: 0x0102 [0x00] END_REQSTACK()
```

### Event 65535.11

#### Metadata

| Field        | Value    |
|--------------|----------|
| Entrypoint   | 0x0103   |
| Data Size    | 16 bytes |
| Instructions | 4        |

```
      00 01 02 03 04 05 06 07  08 09 0A 0B 0C 0D 0E 0F
      -- -- -- -- -- -- -- --  -- -- -- -- -- -- -- --
0100:          6E 82 23 05 01  1D 80 99 82 23 05 01 1C     n.#......#...
0110: 1E 80 00                                          ...             
```

#### Opcodes

```
  0: 0x0103 [0x6E] Jayramus (ID: 17113986/0x01052382) uses emote 33*
  1: 0x010A [0x99] Wait for Jayramus (ID: 17113986/0x01052382) animation to complete
  2: 0x010F [0x1C] WAIT(120* ticks)
  3: 0x0112 [0x00] END_REQSTACK()
```

### Event 65535.12

#### Metadata

| Field        | Value    |
|--------------|----------|
| Entrypoint   | 0x0113   |
| Data Size    | 14 bytes |
| Instructions | 4        |

```
      00 01 02 03 04 05 06 07  08 09 0A 0B 0C 0D 0E 0F
      -- -- -- -- -- -- -- --  -- -- -- -- -- -- -- --
0110:          32 03 80 1F 00  1F 80 20 80 18 80 1F 01     2...... .....
0120: 00                                                .               
```

#### Opcodes

```
  0: 0x0113 [0x32] ExtData[1]->MainSpeed = 40* * 0.1
  1: 0x0116 [0x1F] MOVE_ENTITY: EventEntity moves to X=400.808*, Z=414.446*, Y=0.999*
  2: 0x011E [0x1F] MOVE_ENTITY: Update entity position (mode=1)
  3: 0x0120 [0x00] END_REQSTACK()
```

### Event 65535.13

#### Metadata

| Field        | Value    |
|--------------|----------|
| Entrypoint   | 0x0121   |
| Data Size    | 22 bytes |
| Instructions | 6        |

```
      00 01 02 03 04 05 06 07  08 09 0A 0B 0C 0D 0E 0F
      -- -- -- -- -- -- -- --  -- -- -- -- -- -- -- --
0120:    32 03 80 1F 00 21 80  22 80 23 80 1F 01 1E 56   2....!.".#....V
0130: 23 05 01 1C 0F 80 00                              #......         
```

#### Opcodes

```
  0: 0x0121 [0x32] ExtData[1]->MainSpeed = 40* * 0.1
  1: 0x0124 [0x1F] MOVE_ENTITY: EventEntity moves to X=-445.341*, Z=-467.960*, Y=0.287*
  2: 0x012C [0x1F] MOVE_ENTITY: Update entity position (mode=1)
  3: 0x012E [0x1E] EventEntity looks at Zogbog (ID: 17113942/0x01052356) and starts talking
  4: 0x0133 [0x1C] WAIT(30* ticks)
  5: 0x0136 [0x00] END_REQSTACK()
```

### Event 65535.14

#### Metadata

| Field        | Value    |
|--------------|----------|
| Entrypoint   | 0x0137   |
| Data Size    | 35 bytes |
| Instructions | 9        |

```
      00 01 02 03 04 05 06 07  08 09 0A 0B 0C 0D 0E 0F
      -- -- -- -- -- -- -- --  -- -- -- -- -- -- -- --
0130:                      03  00 00 25 10 03 01 00 27         ...%....'
0140: 10 03 02 00 26 10 03 03  00 28 10 32 00 80 1F 00  ....&....(.2....
0150: 00 00 01 00 02 00 1F 01  6F 00                    ........o.      
```

#### Opcodes

```
  0: 0x0137 [0x03] ExtData[1]->WorkLocal[0] = Work_Zone[37]
  1: 0x013C [0x03] ExtData[1]->WorkLocal[1] = Work_Zone[39]
  2: 0x0141 [0x03] ExtData[1]->WorkLocal[2] = Work_Zone[38]
  3: 0x0146 [0x03] ExtData[1]->WorkLocal[3] = Work_Zone[40]
  4: 0x014B [0x32] ExtData[1]->MainSpeed = 80* * 0.1
  5: 0x014E [0x1F] MOVE_ENTITY: EventEntity moves to X=ExtData[1]->WorkLocal[0], Z=ExtData[1]->WorkLocal[1], Y=ExtData[1]->WorkLocal[2]
  6: 0x0156 [0x1F] MOVE_ENTITY: Update entity position (mode=1)
  7: 0x0158 [0x6F] WAIT_FRAME_DELAY: Yield until WaitTime reaches zero
  8: 0x0159 [0x00] END_REQSTACK()
```

### Event 213

#### Metadata

| Field        | Value   |
|--------------|---------|
| Entrypoint   | 0x015A  |
| Data Size    | 1 bytes |
| Instructions | 1       |

```
      00 01 02 03 04 05 06 07  08 09 0A 0B 0C 0D 0E 0F
      -- -- -- -- -- -- -- --  -- -- -- -- -- -- -- --
0150:                                00                           .     
```

#### Opcodes

```
  0: 0x015A [0x00] END_REQSTACK()
```

### Event 65535.15

#### Metadata

| Field        | Value    |
|--------------|----------|
| Entrypoint   | 0x015B   |
| Data Size    | 11 bytes |
| Instructions | 3        |

```
      00 01 02 03 04 05 06 07  08 09 0A 0B 0C 0D 0E 0F
      -- -- -- -- -- -- -- --  -- -- -- -- -- -- -- --
0150:                                   1F 00 24 80 25             ..$.%
0160: 80 26 80 1F 01 00                                 .&....          
```

#### Opcodes

```
  0: 0x015B [0x1F] MOVE_ENTITY: EventEntity moves to X=-365.660*, Z=-316.825*, Y=0.081*
  1: 0x0163 [0x1F] MOVE_ENTITY: Update entity position (mode=1)
  2: 0x0165 [0x00] END_REQSTACK()
```
