# 17114032

## Common Data

| Field            | Value                      |
|------------------|----------------------------|
| Zone             | Jugner Forest [S] (ID: 82) |
| Block Size       | 20832 bytes                |
| Total Events     | 3                          |
| References Count | 518                        |

## List of Events

| Event ID              | Entrypoint   |   Size |   Instructions |
|-----------------------|--------------|--------|----------------|
| [65535](#event-65535) | 0x0000       |      1 |              1 |
| [2](#event-2)         | 0x0001       |   6258 |            748 |
| [3](#event-3)         | 0x1873       |  12471 |           1337 |

## DAT References (imed_data)

|   Index | Hex Value   |   Dec Value |
|---------|-------------|-------------|
|       0 | 0x0013      |          19 |
|       1 | 0x0000      |           0 |
|       2 | 0x012C      |         300 |
|       3 | 0xB237      |       45623 |
|       4 | 0x4D535     |      316725 |
|       5 | 0x004F      |          79 |
|       6 | 0x0C3B      |        3131 |
|       7 | 0xB243      |       45635 |
|       8 | 0x4BB7D     |      310141 |
|       9 | 0x0074      |         116 |
|      10 | 0x0CC6      |        3270 |
|      11 | 0xC5C2      |       50626 |
|      12 | 0x4C792     |      313234 |
|      13 | 0x0031      |          49 |
|      14 | 0x0C80      |        3200 |
|      15 | 0xB629      |       46633 |
|      16 | 0x4CDDE     |      314846 |
|      17 | 0x0047      |          71 |
|      18 | 0x0C00      |        3072 |
|      19 | 0xAAA7      |       43687 |
|      20 | 0x4D7DC     |      317404 |
|      21 | 0xFFFFFFF0  |  4294967280 |
|      22 | 0x0D00      |        3328 |
|      23 | 0xBBB9      |       48057 |
|      24 | 0x4E15F     |      319839 |
|      25 | 0x00AE      |         174 |
|      26 | 0x0973      |        2419 |
|      27 | 0x000F      |          15 |
|      28 | 0x08BE      |        2238 |
|      29 | 0x08F4      |        2292 |
|      30 | 0x05CE      |        1486 |
|      31 | 0x09AD      |        2477 |
|      32 | 0x0920      |        2336 |
|      33 | 0x0030      |          48 |
|      34 | 0x01A1      |         417 |
|      35 | 0x0078      |         120 |
|      36 | 0x001A      |          26 |
|      37 | 0x001E      |          30 |
|      38 | 0x003C      |          60 |
|      39 | 0x0064      |         100 |
|      40 | 0x0028      |          40 |
|      41 | 0x00FA      |         250 |
|      42 | 0x20A0      |        8352 |
|      43 | 0x0046      |          70 |
|      44 | 0x005A      |          90 |
|      45 | 0x00A0      |         160 |
|      46 | 0x007F      |         127 |
|      47 | 0x01E0      |         480 |
|      48 | 0xBC02      |       48130 |
|      49 | 0x4D699     |      317081 |
|      50 | 0x00CC      |         204 |
|      51 | 0x0858      |        2136 |
|      52 | 0xBEE2      |       48866 |
|      53 | 0x4DD4C     |      318796 |
|      54 | 0x00F1      |         241 |
|      55 | 0x0470      |        1136 |
|      56 | 0xB0CB      |       45259 |
|      57 | 0x4D7D0     |      317392 |
|      58 | 0x003D      |          61 |
|      59 | 0x01CB      |         459 |
|      60 | 0x014A      |         330 |
|      61 | 0x20A1      |        8353 |
|      62 | 0x20A2      |        8354 |
|      63 | 0x20A3      |        8355 |
|      64 | 0x0857      |        2135 |
|      65 | 0x20A4      |        8356 |
|      66 | 0x085B      |        2139 |
|      67 | 0xBE4F      |       48719 |
|      68 | 0x4D666     |      317030 |
|      69 | 0x00EA      |         234 |
|      70 | 0x09C0      |        2496 |
|      71 | 0xB7F2      |       47090 |
|      72 | 0x4D214     |      315924 |
|      73 | 0x0093      |         147 |
|      74 | 0x0C0E      |        3086 |
|      75 | 0xBE73      |       48755 |
|      76 | 0x4CEA8     |      315048 |
|      77 | 0x0089      |         137 |
|      78 | 0x0ACF      |        2767 |
|      79 | 0x04E4      |        1252 |
|      80 | 0x0855      |        2133 |
|      81 | 0x2160      |        8544 |
|      82 | 0x0196      |         406 |
|      83 | 0x20A5      |        8357 |
|      84 | 0x0016      |          22 |
|      85 | 0x20A6      |        8358 |
|      86 | 0x000B      |          11 |
|      87 | 0x20A7      |        8359 |
|      88 | 0x0001      |           1 |
|      89 | 0x20A8      |        8360 |
|      90 | 0x0015      |          21 |
|      91 | 0x20A9      |        8361 |
|      92 | 0x08C0      |        2240 |
|      93 | 0x0096      |         150 |
|      94 | 0x20AA      |        8362 |
|      95 | 0x20AB      |        8363 |
|      96 | 0x20AC      |        8364 |
|      97 | 0x000A      |          10 |
|      98 | 0x20AD      |        8365 |
|      99 | 0x20AE      |        8366 |
|     100 | 0x20AF      |        8367 |
|     101 | 0x20B0      |        8368 |
|     102 | 0x0006      |           6 |
|     103 | 0x20B1      |        8369 |
|     104 | 0x0007      |           7 |
|     105 | 0x20B2      |        8370 |
|     106 | 0x04E5      |        1253 |
|     107 | 0x20B3      |        8371 |
|     108 | 0x6E80      |       28288 |
|     109 | 0x49EA9     |      302761 |
|     110 | 0x1115      |        4373 |
|     111 | 0x092F      |        2351 |
|     112 | 0x682A      |       26666 |
|     113 | 0x499E0     |      301536 |
|     114 | 0x0FF6      |        4086 |
|     115 | 0x08CD      |        2253 |
|     116 | 0x620D      |       25101 |
|     117 | 0x4A4E7     |      304359 |
|     118 | 0x0B93      |        2963 |
|     119 | 0x09E2      |        2530 |
|     120 | 0x20B4      |        8372 |
|     121 | 0x20B5      |        8373 |
|     122 | 0x0008      |           8 |
|     123 | 0x0004      |           4 |
|     124 | 0xC601      |       50689 |
|     125 | 0x4D05F     |      315487 |
|     126 | 0x0115      |         277 |
|     127 | 0x0A43      |        2627 |
|     128 | 0x20B6      |        8374 |
|     129 | 0x0854      |        2132 |
|     130 | 0x20B7      |        8375 |
|     131 | 0x20B8      |        8376 |
|     132 | 0x20B9      |        8377 |
|     133 | 0x0850      |        2128 |
|     134 | 0x20BA      |        8378 |
|     135 | 0x20BB      |        8379 |
|     136 | 0xB56B      |       46443 |
|     137 | 0x4B7A0     |      309152 |
|     138 | 0x0052      |          82 |
|     139 | 0x0C9C      |        3228 |
|     140 | 0x20BC      |        8380 |
|     141 | 0x20BD      |        8381 |
|     142 | 0x20BE      |        8382 |
|     143 | 0x20BF      |        8383 |
|     144 | 0x20C0      |        8384 |
|     145 | 0x20C1      |        8385 |
|     146 | 0x20C2      |        8386 |
|     147 | 0x20C3      |        8387 |
|     148 | 0x20C4      |        8388 |
|     149 | 0x0002      |           2 |
|     150 | 0xB1CF      |       45519 |
|     151 | 0x4DED5     |      319189 |
|     152 | 0xFFFFFC11  |  4294966289 |
|     153 | 0x0224      |         548 |
|     154 | 0xB3D5      |       46037 |
|     155 | 0x4D800     |      317440 |
|     156 | 0xB912      |       47378 |
|     157 | 0x4DDA2     |      318882 |
|     158 | 0x00A7      |         167 |
|     159 | 0x0636      |        1590 |
|     160 | 0x0081      |         129 |
|     161 | 0x08C2      |        2242 |
|     162 | 0x20C5      |        8389 |
|     163 | 0x051F      |        1311 |
|     164 | 0x20C6      |        8390 |
|     165 | 0x20C7      |        8391 |
|     166 | 0x0003      |           3 |
|     167 | 0x0582      |        1410 |
|     168 | 0x20C8      |        8392 |
|     169 | 0x20C9      |        8393 |
|     170 | 0x0005      |           5 |
|     171 | 0x20CA      |        8394 |
|     172 | 0x20CB      |        8395 |
|     173 | 0x0009      |           9 |
|     174 | 0x0A24      |        2596 |
|     175 | 0x0856      |        2134 |
|     176 | 0x20CC      |        8396 |
|     177 | 0x20CD      |        8397 |
|     178 | 0x000C      |          12 |
|     179 | 0x20CE      |        8398 |
|     180 | 0x20CF      |        8399 |
|     181 | 0x000D      |          13 |
|     182 | 0x000E      |          14 |
|     183 | 0x20D0      |        8400 |
|     184 | 0x20D1      |        8401 |
|     185 | 0x0010      |          16 |
|     186 | 0x0011      |          17 |
|     187 | 0x0012      |          18 |
|     188 | 0x20D2      |        8402 |
|     189 | 0x20D3      |        8403 |
|     190 | 0x051D      |        1309 |
|     191 | 0x1623      |        5667 |
|     192 | 0x20D4      |        8404 |
|     193 | 0x20D5      |        8405 |
|     194 | 0x02EC      |         748 |
|     195 | 0x20D6      |        8406 |
|     196 | 0x06AA      |        1706 |
|     197 | 0x20D7      |        8407 |
|     198 | 0x101CF     |       65999 |
|     199 | 0x58342     |      361282 |
|     200 | 0x116F      |        4463 |
|     201 | 0x0BCD      |        3021 |
|     202 | 0x20D8      |        8408 |
|     203 | 0x20D9      |        8409 |
|     204 | 0x00C8      |         200 |
|     205 | 0xB2AB      |       45739 |
|     206 | 0x4D3E0     |      316384 |
|     207 | 0x0055      |          85 |
|     208 | 0x0DCC      |        3532 |
|     209 | 0xBF2A      |       48938 |
|     210 | 0x4DDD4     |      318932 |
|     211 | 0x00F5      |         245 |
|     212 | 0x0774      |        1908 |
|     213 | 0xC90A      |       51466 |
|     214 | 0x4E289     |      320137 |
|     215 | 0x0172      |         370 |
|     216 | 0x07D3      |        2003 |
|     217 | 0x35D8A     |      220554 |
|     218 | 0x0DC9      |        3529 |
|     219 | 0x04A7      |        1191 |
|     220 | 0xB303      |       45827 |
|     221 | 0x4D71E     |      317214 |
|     222 | 0x0303      |         771 |
|     223 | 0xB72F      |       46895 |
|     224 | 0x4D249     |      315977 |
|     225 | 0x008D      |         141 |
|     226 | 0xBE36      |       48694 |
|     227 | 0x4D04B     |      315467 |
|     228 | 0x00AB      |         171 |
|     229 | 0xC522      |       50466 |
|     230 | 0x4D229     |      315945 |
|     231 | 0x0137      |         311 |
|     232 | 0xC917      |       51479 |
|     233 | 0x4D61D     |      316957 |
|     234 | 0x0173      |         371 |
|     235 | 0xCC2E      |       52270 |
|     236 | 0x4DB2A     |      318250 |
|     237 | 0x019A      |         410 |
|     238 | 0xCC3D      |       52285 |
|     239 | 0x4E0A7     |      319655 |
|     240 | 0x019B      |         411 |
|     241 | 0x0304      |         772 |
|     242 | 0xB158      |       45400 |
|     243 | 0x4DF43     |      319299 |
|     244 | 0xFFFFFC7D  |  4294966397 |
|     245 | 0x09AF      |        2479 |
|     246 | 0x20DD      |        8413 |
|     247 | 0x20DE      |        8414 |
|     248 | 0xD6C8      |       54984 |
|     249 | 0x49F6B     |      302955 |
|     250 | 0xFFFFFDDA  |  4294966746 |
|     251 | 0x0A69      |        2665 |
|     252 | 0xD961      |       55649 |
|     253 | 0x4A415     |      304149 |
|     254 | 0xFFFFFCA9  |  4294966441 |
|     255 | 0x0A62      |        2658 |
|     256 | 0x001D      |          29 |
|     257 | 0x0021      |          33 |
|     258 | 0x0025      |          37 |
|     259 | 0x00A3      |         163 |
|     260 | 0x00D9      |         217 |
|     261 | 0x00F0      |         240 |
|     262 | 0x20DF      |        8415 |
|     263 | 0x002D      |          45 |
|     264 | 0x09A3      |        2467 |
|     265 | 0x021C      |         540 |
|     266 | 0x20E0      |        8416 |
|     267 | 0x20E1      |        8417 |
|     268 | 0x20E2      |        8418 |
|     269 | 0x20E3      |        8419 |
|     270 | 0x0864      |        2148 |
|     271 | 0x20E4      |        8420 |
|     272 | 0xB6E1      |       46817 |
|     273 | 0x4DA32     |      318002 |
|     274 | 0x008B      |         139 |
|     275 | 0x0E07      |        3591 |
|     276 | 0xC0F8      |       49400 |
|     277 | 0x4D227     |      315943 |
|     278 | 0x0101      |         257 |
|     279 | 0x0B83      |        2947 |
|     280 | 0x20E5      |        8421 |
|     281 | 0x085C      |        2140 |
|     282 | 0x20E6      |        8422 |
|     283 | 0x20E7      |        8423 |
|     284 | 0x20EA      |        8426 |
|     285 | 0x20EB      |        8427 |
|     286 | 0xB44D      |       46157 |
|     287 | 0x4E9EC     |      322028 |
|     288 | 0x0162      |         354 |
|     289 | 0xBB5B      |       47963 |
|     290 | 0x4E2FD     |      320253 |
|     291 | 0x03C2      |         962 |
|     292 | 0x08C8      |        2248 |
|     293 | 0x09A4      |        2468 |
|     294 | 0x0585      |        1413 |
|     295 | 0x20EC      |        8428 |
|     296 | 0x20ED      |        8429 |
|     297 | 0x20EE      |        8430 |
|     298 | 0x20EF      |        8431 |
|     299 | 0x20F0      |        8432 |
|     300 | 0x20F1      |        8433 |
|     301 | 0x20F2      |        8434 |
|     302 | 0x20F3      |        8435 |
|     303 | 0x20F4      |        8436 |
|     304 | 0x20F5      |        8437 |
|     305 | 0x20F6      |        8438 |
|     306 | 0x20F7      |        8439 |
|     307 | 0x20F8      |        8440 |
|     308 | 0x20F9      |        8441 |
|     309 | 0x20FA      |        8442 |
|     310 | 0x20FB      |        8443 |
|     311 | 0x08C9      |        2249 |
|     312 | 0x09A5      |        2469 |
|     313 | 0x002B      |          43 |
|     314 | 0x006E      |         110 |
|     315 | 0x20FC      |        8444 |
|     316 | 0x00B4      |         180 |
|     317 | 0x20FD      |        8445 |
|     318 | 0x008C      |         140 |
|     319 | 0x20FE      |        8446 |
|     320 | 0x20FF      |        8447 |
|     321 | 0x00D2      |         210 |
|     322 | 0x2100      |        8448 |
|     323 | 0x2101      |        8449 |
|     324 | 0x2102      |        8450 |
|     325 | 0x2103      |        8451 |
|     326 | 0x0834      |        2100 |
|     327 | 0x2104      |        8452 |
|     328 | 0x09A8      |        2472 |
|     329 | 0xBB33      |       47923 |
|     330 | 0x4E51C     |      320796 |
|     331 | 0x0120      |         288 |
|     332 | 0x06AE      |        1710 |
|     333 | 0xB96F      |       47471 |
|     334 | 0x4E105     |      319749 |
|     335 | 0x0086      |         134 |
|     336 | 0x09A9      |        2473 |
|     337 | 0x2105      |        8453 |
|     338 | 0x0014      |          20 |
|     339 | 0x2106      |        8454 |
|     340 | 0x2107      |        8455 |
|     341 | 0x2108      |        8456 |
|     342 | 0x2109      |        8457 |
|     343 | 0x210A      |        8458 |
|     344 | 0x9C8A      |       40074 |
|     345 | 0x4EF3C     |      323388 |
|     346 | 0x0BFA      |        3066 |
|     347 | 0xA40D      |       41997 |
|     348 | 0x4F229     |      324137 |
|     349 | 0x01FF      |         511 |
|     350 | 0x0400      |        1024 |
|     351 | 0xA426      |       42022 |
|     352 | 0x4E271     |      320113 |
|     353 | 0xA070      |       41072 |
|     354 | 0x4E051     |      319569 |
|     355 | 0x0315      |         789 |
|     356 | 0xA7FE      |       43006 |
|     357 | 0x4D7E1     |      317409 |
|     358 | 0xFFFFFFB9  |  4294967225 |
|     359 | 0x0800      |        2048 |
|     360 | 0xA05B      |       41051 |
|     361 | 0x4D7F5     |      317429 |
|     362 | 0x0E00      |        3584 |
|     363 | 0xA404      |       41988 |
|     364 | 0x4D59C     |      316828 |
|     365 | 0x9B96      |       39830 |
|     366 | 0x4DA6B     |      318059 |
|     367 | 0x0F8F      |        3983 |
|     368 | 0x99A4      |       39332 |
|     369 | 0x4DEB4     |      319156 |
|     370 | 0xFFFFFC18  |  4294966296 |
|     371 | 0x0042      |          66 |
|     372 | 0xAD1C      |       44316 |
|     373 | 0x4DAA0     |      318112 |
|     374 | 0xFFFFFF6F  |  4294967151 |
|     375 | 0x0836      |        2102 |
|     376 | 0xAE37      |       44599 |
|     377 | 0x4E047     |      319559 |
|     378 | 0xFFFFF9C0  |  4294965696 |
|     379 | 0x071D      |        1821 |
|     380 | 0x0833      |        2099 |
|     381 | 0x0584      |        1412 |
|     382 | 0x088B      |        2187 |
|     383 | 0x0029      |          41 |
|     384 | 0x210B      |        8459 |
|     385 | 0x210C      |        8460 |
|     386 | 0x210D      |        8461 |
|     387 | 0x210E      |        8462 |
|     388 | 0x210F      |        8463 |
|     389 | 0x2110      |        8464 |
|     390 | 0x2111      |        8465 |
|     391 | 0x2112      |        8466 |
|     392 | 0x2113      |        8467 |
|     393 | 0x2114      |        8468 |
|     394 | 0x2115      |        8469 |
|     395 | 0x2116      |        8470 |
|     396 | 0x2117      |        8471 |
|     397 | 0x2118      |        8472 |
|     398 | 0x09B0      |        2480 |
|     399 | 0x01A4      |         420 |
|     400 | 0x2119      |        8473 |
|     401 | 0x211A      |        8474 |
|     402 | 0x211B      |        8475 |
|     403 | 0x211C      |        8476 |
|     404 | 0x0041      |          65 |
|     405 | 0x211D      |        8477 |
|     406 | 0x211E      |        8478 |
|     407 | 0x211F      |        8479 |
|     408 | 0x2120      |        8480 |
|     409 | 0x2121      |        8481 |
|     410 | 0x2122      |        8482 |
|     411 | 0xA1AF      |       41391 |
|     412 | 0x4DBB4     |      318388 |
|     413 | 0x2123      |        8483 |
|     414 | 0x2124      |        8484 |
|     415 | 0x2125      |        8485 |
|     416 | 0x2126      |        8486 |
|     417 | 0x2127      |        8487 |
|     418 | 0x0425      |        1061 |
|     419 | 0x2128      |        8488 |
|     420 | 0x2129      |        8489 |
|     421 | 0x083A      |        2106 |
|     422 | 0x0839      |        2105 |
|     423 | 0x0838      |        2104 |
|     424 | 0x212A      |        8490 |
|     425 | 0x212B      |        8491 |
|     426 | 0x0022      |          34 |
|     427 | 0x0023      |          35 |
|     428 | 0x0024      |          36 |
|     429 | 0x212C      |        8492 |
|     430 | 0x00C3      |         195 |
|     431 | 0x083B      |        2107 |
|     432 | 0x00AA      |         170 |
|     433 | 0x002E      |          46 |
|     434 | 0x212D      |        8493 |
|     435 | 0x9ED1      |       40657 |
|     436 | 0x4BC6E     |      310382 |
|     437 | 0x0116      |         278 |
|     438 | 0x0422      |        1058 |
|     439 | 0x0033      |          51 |
|     440 | 0x212E      |        8494 |
|     441 | 0x09A6      |        2470 |
|     442 | 0x0190      |         400 |
|     443 | 0x088C      |        2188 |
|     444 | 0x212F      |        8495 |
|     445 | 0x09B1      |        2481 |
|     446 | 0x2130      |        8496 |
|     447 | 0x2131      |        8497 |
|     448 | 0x2132      |        8498 |
|     449 | 0x2133      |        8499 |
|     450 | 0x09A7      |        2471 |
|     451 | 0x088D      |        2189 |
|     452 | 0x0020      |          32 |
|     453 | 0x2134      |        8500 |
|     454 | 0x2135      |        8501 |
|     455 | 0x2136      |        8502 |
|     456 | 0x2137      |        8503 |
|     457 | 0x0032      |          50 |
|     458 | 0x2138      |        8504 |
|     459 | 0xA58F      |       42383 |
|     460 | 0x4DEDB     |      319195 |
|     461 | 0xA6AC      |       42668 |
|     462 | 0x4ADE5     |      306661 |
|     463 | 0x0211      |         529 |
|     464 | 0x0887      |        2183 |
|     465 | 0x2139      |        8505 |
|     466 | 0x002F      |          47 |
|     467 | 0x213A      |        8506 |
|     468 | 0x213B      |        8507 |
|     469 | 0x001F      |          31 |
|     470 | 0x0082      |         130 |
|     471 | 0x213C      |        8508 |
|     472 | 0x0258      |         600 |
|     473 | 0xA4C0      |       42176 |
|     474 | 0x4EF1E     |      323358 |
|     475 | 0x019C      |         412 |
|     476 | 0x03D3      |         979 |
|     477 | 0x213D      |        8509 |
|     478 | 0x213E      |        8510 |
|     479 | 0x0B6A      |        2922 |
|     480 | 0x213F      |        8511 |
|     481 | 0x2140      |        8512 |
|     482 | 0x0886      |        2182 |
|     483 | 0x2141      |        8513 |
|     484 | 0x2142      |        8514 |
|     485 | 0x2143      |        8515 |
|     486 | 0x2144      |        8516 |
|     487 | 0x2145      |        8517 |
|     488 | 0x09EA      |        2538 |
|     489 | 0x0048      |          72 |
|     490 | 0x2146      |        8518 |
|     491 | 0x2147      |        8519 |
|     492 | 0x085F      |        2143 |
|     493 | 0x2148      |        8520 |
|     494 | 0x2149      |        8521 |
|     495 | 0x214A      |        8522 |
|     496 | 0x214B      |        8523 |
|     497 | 0x214C      |        8524 |
|     498 | 0x214D      |        8525 |
|     499 | 0x09EB      |        2539 |
|     500 | 0x002C      |          44 |
|     501 | 0x214E      |        8526 |
|     502 | 0x214F      |        8527 |
|     503 | 0x2150      |        8528 |
|     504 | 0x00DF      |         223 |
|     505 | 0x2151      |        8529 |
|     506 | 0x2152      |        8530 |
|     507 | 0x2153      |        8531 |
|     508 | 0x2154      |        8532 |
|     509 | 0x2155      |        8533 |
|     510 | 0x2156      |        8534 |
|     511 | 0x2157      |        8535 |
|     512 | 0x2158      |        8536 |
|     513 | 0x2159      |        8537 |
|     514 | 0x215A      |        8538 |
|     515 | 0x215B      |        8539 |
|     516 | 0x00C9      |         201 |
|     517 | 0x00D7      |         215 |

## String References

- **8377**: Will you honor your promise? [I surely will./Um, may I review the contract...?]
- **8385**: Try a new bait? [It might be for the best./Cats love fish, right?]
- **8391**: What is Cait Sith? [A cat of unknown breed./A Mithran child./A cat, yet, not a cat.]
- **8393**: Cait Sith's paw pads are... [Irresistibly soft./Tautly firm./Unpleasantly coarse.]
- **8395**: What does Cait Sith like best? [High places./The almighty gil./Culinary delights.]
- **8397**: Cait Sith's eyes are... [Blue, like the summer sky./Yellow, like the setting sun./Green, with envy.]
- **8399**: How does Cait Sith cry? [Kupoarrr./Grrrowl./Meowww.]
- **8401**: What does Cait Sith lack, appearance-wise? [Cuteness./Savageness./A pair of knee-high bottes.]
- **8492**: Nyaaaaaah!?
- **8544**: 

## Events

### Event 65535

#### Metadata

| Field        | Value   |
|--------------|---------|
| Entrypoint   | 0x0000  |
| Data Size    | 1 bytes |
| Instructions | 1       |

```
      00 01 02 03 04 05 06 07  08 09 0A 0B 0C 0D 0E 0F
      -- -- -- -- -- -- -- --  -- -- -- -- -- -- -- --
0000: 00                                                .               
```

#### Opcodes

```
  0: 0x0000 [0x00] END_REQSTACK()
```

### Event 2

#### Metadata

| Field        | Value      |
|--------------|------------|
| Entrypoint   | 0x0001     |
| Data Size    | 6258 bytes |
| Instructions | 747        |

```
      00 01 02 03 04 05 06 07  08 09 0A 0B 0C 0D 0E 0F
      -- -- -- -- -- -- -- --  -- -- -- -- -- -- -- --
0000:    42 1A FC 46 46 01 38  00 80 5D 01 80 02 80 27   B..FF.8..]....'
0010: 10 9F 23 05 01 04 27 10  A0 23 05 01 02 27 10 A1  ..#...'..#...'..
0020: 23 05 01 02 27 10 A2 23  05 01 02 27 10 A3 23 05  #...'..#...'..#.
0030: 01 04 92 01 9F 23 05 01  92 01 A0 23 05 01 92 01  .....#.....#....
0040: A1 23 05 01 92 01 A2 23  05 01 92 01 A5 23 05 01  .#.....#.....#..
0050: 92 01 A3 23 05 01 94 01  F0 FF FF 7F 94 01 9F 23  ...#...........#
0060: 05 01 94 01 A0 23 05 01  94 01 A1 23 05 01 94 01  .....#.....#....
0070: A2 23 05 01 94 01 A3 23  05 01 94 01 A3 23 05 01  .#.....#.....#..
0080: 94 01 9D 23 05 01 BA F0  FF FF 7F 03 80 04 80 05  ...#............
0090: 80 06 80 BA 9F 23 05 01  07 80 08 80 09 80 0A 80  .....#..........
00A0: BA A0 23 05 01 0B 80 0C  80 0D 80 0E 80 BA A1 23  ..#............#
00B0: 05 01 0F 80 10 80 11 80  12 80 BA A2 23 05 01 13  ............#...
00C0: 80 14 80 15 80 16 80 BA  A3 23 05 01 17 80 18 80  .........#......
00D0: 19 80 1A 80 80 F0 FF FF  7F 80 9F 23 05 01 80 A0  ...........#....
00E0: 23 05 01 80 A1 23 05 01  80 A2 23 05 01 80 A3 23  #....#....#....#
00F0: 05 01 1C 1B 80 81 00 9F  23 05 01 7C 00 9F 23 05  ........#..|..#.
0100: 01 5B 1C 80 A0 23 05 01  A0 23 05 01 6B 73 70 30  .[...#...#..ksp0
0110: 5B 1D 80 A1 23 05 01 A1  23 05 01 64 61 33 30 5B  [...#...#..da30[
0120: 1E 80 A2 23 05 01 A2 23  05 01 64 61 6E 30 5B 1F  ...#...#..dan0[.
0130: 80 9F 23 05 01 9F 23 05  01 74 72 65 30 5B 20 80  ..#...#..tre0[ .
0140: A3 23 05 01 A3 23 05 01  74 72 70 30 C5 21 80 9F  .#...#..trp0.!..
0150: 23 05 01 9F 23 05 01 73  30 30 30 01 80 29 10 F0  #...#..s000..)..
0160: FF FF 7F 09 79 00 F0 FF  FF 7F 9D 23 05 01 45 22  ....y......#..E"
0170: 80 F0 FF FF 7F F0 FF FF  7F 33 33 30 30 01 80 1A  .........3300...
0180: DB 46 1C 23 80 C5 24 80  A3 23 05 01 A3 23 05 01  .F.#..$..#...#..
0190: 73 30 30 31 01 80 1C 25  80 52 22 80 F0 FF FF 7F  s001...%.R".....
01A0: F0 FF FF 7F 33 33 30 30  45 22 80 F0 FF FF 7F F0  ....3300E"......
01B0: FF FF 7F 33 33 30 31 01  80 79 00 F0 FF FF 7F A3  ...3301..y......
01C0: 23 05 01 1C 26 80 27 10  F0 FF FF 7F 29 1C 27 80  #...&.'.....).'.
01D0: 52 22 80 F0 FF FF 7F F0  FF FF 7F 33 33 30 31 45  R".........3301E
01E0: 22 80 F0 FF FF 7F F0 FF  FF 7F 33 33 30 32 01 80  ".........3302..
01F0: 2A 10 F0 FF FF 7F 59 04  F0 FF FF 7F 28 80 C5 24  *.....Y.....(..$
0200: 80 A3 23 05 01 A3 23 05  01 73 30 30 31 01 80 1C  ..#...#..s001...
0210: 26 80 5C 00 29 80 5C 01  29 80 9A 52 22 80 F0 FF  &.\.).\.)..R"...
0220: FF 7F F0 FF FF 7F 33 33  30 32 45 22 80 F0 FF FF  ......3302E"....
0230: 7F F0 FF FF 7F 33 33 30  33 01 80 5B 1F 80 9F 23  .....3303..[...#
0240: 05 01 9F 23 05 01 74 72  65 31 1C 25 80 27 10 A0  ...#..tre1.%.'..
0250: 23 05 01 03 27 10 A1 23  05 01 03 27 10 A2 23 05  #...'..#...'..#.
0260: 01 03 52 22 80 F0 FF FF  7F F0 FF FF 7F 33 33 30  ..R".........330
0270: 33 45 22 80 F0 FF FF 7F  F0 FF FF 7F 33 33 30 34  3E".........3304
0280: 01 80 2B AE 23 05 01 2A  80 1C 2B 80 4A F0 FF FF  ..+.#..*..+.J...
0290: 7F 9F 23 05 01 52 22 80  F0 FF FF 7F F0 FF FF 7F  ..#..R".........
02A0: 33 33 30 34 45 22 80 F0  FF FF 7F F0 FF FF 7F 33  3304E".........3
02B0: 33 30 35 01 80 5B 1E 80  A2 23 05 01 A2 23 05 01  305..[...#...#..
02C0: 64 61 73 31 1C 26 80 52  22 80 F0 FF FF 7F F0 FF  das1.&.R".......
02D0: FF 7F 33 33 30 35 45 22  80 F0 FF FF 7F F0 FF FF  ..3305E"........
02E0: 7F 33 33 31 35 01 80 C5  28 80 A0 23 05 01 A0 23  .3315...(..#...#
02F0: 05 01 73 74 30 31 01 80  1C 25 80 BA A2 23 05 01  ..st01...%...#..
0300: 0F 80 10 80 11 80 12 80  5B 1D 80 A2 23 05 01 A2  ........[...#...
0310: 23 05 01 64 61 32 30 5B  1C 80 A0 23 05 01 A0 23  #..da20[...#...#
0320: 05 01 6B 73 70 31 C5 28  80 A0 23 05 01 A0 23 05  ..ksp1.(..#...#.
0330: 01 73 74 30 32 01 80 1C  1B 80 52 22 80 F0 FF FF  .st02.....R"....
0340: 7F F0 FF FF 7F 33 33 31  35 45 22 80 F0 FF FF 7F  .....3315E".....
0350: F0 FF FF 7F 33 33 30 36  01 80 1C 2C 80 27 10 AE  ....3306...,.'..
0360: 23 05 01 06 52 22 80 F0  FF FF 7F F0 FF FF 7F 33  #...R".........3
0370: 33 30 36 45 22 80 F0 FF  FF 7F F0 FF FF 7F 33 33  306E".........33
0380: 30 37 01 80 5B 1C 80 A0  23 05 01 A0 23 05 01 6B  07..[...#...#..k
0390: 73 70 31 C5 28 80 A0 23  05 01 A0 23 05 01 73 74  sp1.(..#...#..st
03A0: 30 32 01 80 C5 24 80 A3  23 05 01 A3 23 05 01 73  02...$..#...#..s
03B0: 30 30 31 01 80 1C 26 80  5B 1D 80 A1 23 05 01 A1  001...&.[...#...
03C0: 23 05 01 64 61 33 31 5B  1D 80 A2 23 05 01 A2 23  #..da31[...#...#
03D0: 05 01 64 61 32 31 1C 2C  80 52 22 80 F0 FF FF 7F  ..da21.,.R".....
03E0: F0 FF FF 7F 33 33 30 37  45 22 80 F0 FF FF 7F F0  ....3307E"......
03F0: FF FF 7F 33 33 30 38 01  80 5B 1C 80 A0 23 05 01  ...3308..[...#..
0400: A0 23 05 01 6B 73 70 32  C5 28 80 A0 23 05 01 A0  .#..ksp2.(..#...
0410: 23 05 01 73 74 30 33 01  80 1C 2D 80 27 10 A0 23  #..st03...-.'..#
0420: 05 01 0E 52 22 80 F0 FF  FF 7F F0 FF FF 7F 33 33  ...R".........33
0430: 30 38 45 22 80 F0 FF FF  7F F0 FF FF 7F 33 33 62  08E".........33b
0440: 64 01 80 1C 25 80 9F 2E  80 F8 FF FF 7F F8 FF FF  d...%...........
0450: 7F 73 74 72 30 01 80 27  10 AE 23 05 01 07 7B F0  .str0..'..#...{.
0460: FF FF 7F 1C 25 80 5D 01  80 2F 80 9F 2E 80 F8 FF  ....%.]../......
0470: FF 7F F8 FF FF 7F 6B 69  6C 6C 01 80 52 22 80 F0  ......kill..R"..
0480: FF FF 7F F0 FF FF 7F 33  33 62 64 45 22 80 F0 FF  .......33bdE"...
0490: FF 7F F0 FF FF 7F 33 33  30 39 01 80 1C 25 80 BA  ......3309...%..
04A0: A0 23 05 01 30 80 31 80  32 80 33 80 BA A1 23 05  .#..0.1.2.3...#.
04B0: 01 34 80 35 80 36 80 37  80 BA A2 23 05 01 38 80  .4.5.6.7...#..8.
04C0: 39 80 3A 80 3B 80 6B 69  64 6C 30 A1 23 05 01 6B  9.:.;.kidl0.#..k
04D0: 69 64 6C 30 A2 23 05 01  29 10 A0 23 05 01 09 79  idl0.#..)..#...y
04E0: 00 A1 23 05 01 A0 23 05  01 4A A2 23 05 01 F0 FF  ..#...#..J.#....
04F0: FF 7F 52 22 80 F0 FF FF  7F F0 FF FF 7F 33 33 30  ..R".........330
0500: 39 45 22 80 F0 FF FF 7F  F0 FF FF 7F 33 33 31 30  9E".........3310
0510: 01 80 1C 1B 80 5B 1F 80  9F 23 05 01 9F 23 05 01  .....[...#...#..
0520: 74 72 73 32 C5 21 80 9F  23 05 01 9F 23 05 01 73  trs2.!..#...#..s
0530: 30 30 31 01 80 03 02 10  3C 80 27 10 AE 23 05 01  001.....<.'..#..
0540: 01 1C 25 80 2B 9F 23 05  01 3D 80 1C 26 80 27 10  ..%.+.#..=..&.'.
0550: A0 23 05 01 0A 1C 1B 80  52 22 80 F0 FF FF 7F F0  .#......R"......
0560: FF FF 7F 33 33 31 30 45  22 80 F0 FF FF 7F F0 FF  ...3310E".......
0570: FF 7F 33 33 31 31 01 80  1C 26 80 2B 9F 23 05 01  ..3311...&.+.#..
0580: 3E 80 23 2A 10 AE 23 05  01 52 22 80 F0 FF FF 7F  >.#*..#..R".....
0590: F0 FF FF 7F 33 33 31 31  45 22 80 F0 FF FF 7F F0  ....3311E"......
05A0: FF FF 7F 33 33 31 36 01  80 5B 1F 80 9F 23 05 01  ...3316..[...#..
05B0: 9F 23 05 01 66 74 72 31  2B 9F 23 05 01 3F 80 23  .#..ftr1+.#..?.#
05C0: 52 22 80 F0 FF FF 7F F0  FF FF 7F 33 33 31 36 45  R".........3316E
05D0: 22 80 F0 FF FF 7F F0 FF  FF 7F 33 33 31 32 01 80  ".........3312..
05E0: 1C 25 80 81 01 9F 23 05  01 7C 01 9F 23 05 01 5B  .%....#..|..#..[
05F0: 40 80 9F 23 05 01 9F 23  05 01 66 30 30 30 27 10  @..#...#..f000'.
0600: 9F 23 05 01 0B 79 00 A0  23 05 01 9F 23 05 01 1C  .#...y..#...#...
0610: 26 80 79 00 A1 23 05 01  9F 23 05 01 1C 2C 80 2B  &.y..#...#...,.+
0620: 9F 23 05 01 41 80 23 2A  10 9F 23 05 01 52 22 80  .#..A.#*..#..R".
0630: F0 FF FF 7F F0 FF FF 7F  33 33 31 32 45 22 80 F0  ........3312E"..
0640: FF FF 7F F0 FF FF 7F 33  33 31 33 01 80 5B 42 80  .......3313..[B.
0650: 9F 23 05 01 9F 23 05 01  6E 6F 30 30 1C 26 80 1A  .#...#..no00.&..
0660: FC 46 1C 25 80 BA 9F 23  05 01 43 80 44 80 45 80  .F.%...#..C.D.E.
0670: 46 80 BA A0 23 05 01 47  80 48 80 49 80 4A 80 BA  F...#..G.H.I.J..
0680: A1 23 05 01 4B 80 4C 80  4D 80 4E 80 BA A2 23 05  .#..K.L.M.N...#.
0690: 01 38 80 39 80 3A 80 3B  80 4A A2 23 05 01 F0 FF  .8.9.:.;.J.#....
06A0: FF 7F 7B A2 23 05 01 79  00 F0 FF FF 7F F0 FF FF  ..{.#..y........
06B0: 7F C5 21 80 A2 23 05 01  A2 23 05 01 73 30 30 30  ..!..#...#..s000
06C0: 01 80 1C 1B 80 C5 21 80  A2 23 05 01 A2 23 05 01  ......!..#...#..
06D0: 6B 69 6C 31 01 80 C5 21  80 9F 23 05 01 9F 23 05  kil1...!..#...#.
06E0: 01 6B 69 6C 31 01 80 C5  21 80 9F 23 05 01 9F 23  .kil1...!..#...#
06F0: 05 01 6B 69 6C 32 01 80  29 10 F0 FF FF 7F 09 5B  ..kil2..)......[
0700: 4F 80 A2 23 05 01 A2 23  05 01 66 75 6E 6C 5B 50  O..#...#..funl[P
0710: 80 9F 23 05 01 9F 23 05  01 74 68 62 30 53 9F 23  ..#...#..thb0S.#
0720: 05 01 9F 23 05 01 74 68  62 30 48 51 80 23 52 22  ...#..thb0HQ.#R"
0730: 80 F0 FF FF 7F F0 FF FF  7F 33 33 31 33 45 52 80  .........3313ER.
0740: F0 FF FF 7F F0 FF FF 7F  73 30 30 30 01 80 1A DB  ........s000....
0750: 46 55 52 80 F0 FF FF 7F  F0 FF FF 7F 73 30 30 30  FUR.........s000
0760: 45 52 80 F0 FF FF 7F F0  FF FF 7F 73 30 30 31 01  ER.........s001.
0770: 80 6B 69 64 6C 30 A2 23  05 01 2B A0 23 05 01 53  .kidl0.#..+.#..S
0780: 80 23 79 00 A1 23 05 01  9F 23 05 01 52 52 80 F0  .#y..#...#..RR..
0790: FF FF 7F F0 FF FF 7F 73  30 30 31 45 52 80 F0 FF  .......s001ER...
07A0: FF 7F F0 FF FF 7F 73 30  30 36 01 80 6E A1 23 05  ......s006..n.#.
07B0: 01 54 80 99 A1 23 05 01  2B A1 23 05 01 55 80 23  .T...#..+.#..U.#
07C0: 52 52 80 F0 FF FF 7F F0  FF FF 7F 73 30 30 36 45  RR.........s006E
07D0: 52 80 F0 FF FF 7F F0 FF  FF 7F 73 30 30 32 01 80  R.........s002..
07E0: 4A A1 23 05 01 9F 23 05  01 6E A2 23 05 01 56 80  J.#...#..n.#..V.
07F0: 99 A2 23 05 01 2B A2 23  05 01 57 80 23 52 52 80  ..#..+.#..W.#RR.
0800: F0 FF FF 7F F0 FF FF 7F  73 30 30 32 27 10 F0 FF  ........s002'...
0810: FF 7F 0A 1C 1B 80 29 10  F0 FF FF 7F 10 02 02 10  ......).........
0820: 58 80 00 02 09 45 52 80  F0 FF FF 7F F0 FF FF 7F  X....ER.........
0830: 73 30 30 33 01 80 6E A1  23 05 01 54 80 99 A1 23  s003..n.#..T...#
0840: 05 01 2B A1 23 05 01 59  80 23 52 52 80 F0 FF FF  ..+.#..Y.#RR....
0850: 7F F0 FF FF 7F 73 30 30  33 45 52 80 F0 FF FF 7F  .....s003ER.....
0860: F0 FF FF 7F 73 30 30 34  01 80 4A 9F 23 05 01 A2  ....s004..J.#...
0870: 23 05 01 6E A2 23 05 01  5A 80 99 A2 23 05 01 2B  #..n.#..Z...#..+
0880: A2 23 05 01 5B 80 23 6F  76 9F 23 05 01 7B 9F 23  .#..[.#ov.#..{.#
0890: 05 01 52 52 80 F0 FF FF  7F F0 FF FF 7F 73 30 30  ..RR.........s00
08A0: 34 45 52 80 F0 FF FF 7F  F0 FF FF 7F 73 30 30 35  4ER.........s005
08B0: 01 80 4A A2 23 05 01 9F  23 05 01 5B 4F 80 A2 23  ..J.#...#..[O..#
08C0: 05 01 A2 23 05 01 66 75  6E 6C 5B 5C 80 9F 23 05  ...#..funl[\..#.
08D0: 01 9F 23 05 01 6B 61 69  30 03 02 10 5D 80 27 10  ..#..kai0...].'.
08E0: AE 23 05 01 01 1C 25 80  2B 9F 23 05 01 5E 80 23  .#....%.+.#..^.#
08F0: 52 52 80 F0 FF FF 7F F0  FF FF 7F 73 30 30 35 01  RR.........s005.
0900: 34 0A 45 52 80 F0 FF FF  7F F0 FF FF 7F 73 30 30  4.ER.........s00
0910: 33 01 80 6E A1 23 05 01  54 80 99 A1 23 05 01 2B  3..n.#..T...#..+
0920: A1 23 05 01 5F 80 23 79  00 A1 23 05 01 F0 FF FF  .#.._.#y..#.....
0930: 7F 52 52 80 F0 FF FF 7F  F0 FF FF 7F 73 30 30 33  .RR.........s003
0940: 45 52 80 F0 FF FF 7F F0  FF FF 7F 73 30 30 34 01  ER.........s004.
0950: 80 4A 9F 23 05 01 A2 23  05 01 4A A1 23 05 01 F0  .J.#...#..J.#...
0960: FF FF 7F 7B A1 23 05 01  2B A2 23 05 01 60 80 23  ...{.#..+.#..`.#
0970: 6E A2 23 05 01 61 80 99  A2 23 05 01 2B A2 23 05  n.#..a...#..+.#.
0980: 01 62 80 23 52 52 80 F0  FF FF 7F F0 FF FF 7F 73  .b.#RR.........s
0990: 30 30 34 45 52 80 F0 FF  FF 7F F0 FF FF 7F 73 30  004ER.........s0
09A0: 33 39 01 80 6E A1 23 05  01 56 80 99 A1 23 05 01  39..n.#..V...#..
09B0: 2B A1 23 05 01 63 80 23  6F 76 9F 23 05 01 7B 9F  +.#..c.#ov.#..{.
09C0: 23 05 01 52 52 80 F0 FF  FF 7F F0 FF FF 7F 73 30  #..RR.........s0
09D0: 33 39 45 52 80 F0 FF FF  7F F0 FF FF 7F 73 30 30  39ER.........s00
09E0: 35 01 80 4A A2 23 05 01  9F 23 05 01 5B 5C 80 9F  5..J.#...#..[\..
09F0: 23 05 01 9F 23 05 01 6B  61 69 30 03 02 10 5D 80  #...#..kai0...].
0A00: 27 10 AE 23 05 01 01 1C  25 80 79 00 A1 23 05 01  '..#....%.y..#..
0A10: 9F 23 05 01 4A A2 23 05  01 9F 23 05 01 2B 9F 23  .#..J.#...#..+.#
0A20: 05 01 64 80 23 52 52 80  F0 FF FF 7F F0 FF FF 7F  ..d.#RR.........
0A30: 73 30 30 35 2A 10 AE 23  05 01 45 52 80 F0 FF FF  s005*..#..ER....
0A40: 7F F0 FF FF 7F 73 30 30  37 01 80 5B 5C 80 9F 23  .....s007..[\..#
0A50: 05 01 9F 23 05 01 6B 61  69 31 03 02 10 02 80 27  ...#..kai1.....'
0A60: 10 AE 23 05 01 01 2B 9F  23 05 01 65 80 23 52 52  ..#...+.#..e.#RR
0A70: 80 F0 FF FF 7F F0 FF FF  7F 73 30 30 37 45 52 80  .........s007ER.
0A80: F0 FF FF 7F F0 FF FF 7F  73 30 30 38 01 80 6E A1  ........s008..n.
0A90: 23 05 01 66 80 99 A1 23  05 01 2B A1 23 05 01 67  #..f...#..+.#..g
0AA0: 80 23 52 52 80 F0 FF FF  7F F0 FF FF 7F 73 30 30  .#RR.........s00
0AB0: 38 45 52 80 F0 FF FF 7F  F0 FF FF 7F 73 30 30 39  8ER.........s009
0AC0: 01 80 6E A0 23 05 01 68  80 99 A0 23 05 01 2B A0  ..n.#..h...#..+.
0AD0: 23 05 01 69 80 23 5B 6A  80 A2 23 05 01 A2 23 05  #..i.#[j..#...#.
0AE0: 01 79 72 65 30 2B A2 23  05 01 6B 80 23 52 52 80  .yre0+.#..k.#RR.
0AF0: F0 FF FF 7F F0 FF FF 7F  73 30 30 39 2A 10 AE 23  ........s009*..#
0B00: 05 01 45 52 80 F0 FF FF  7F F0 FF FF 7F 73 30 31  ..ER.........s01
0B10: 31 01 80 27 0F A0 23 05  01 0B 1C 25 80 27 0F A1  1..'..#....%.'..
0B20: 23 05 01 09 1C 25 80 27  0F A2 23 05 01 09 1C 26  #....%.'..#....&
0B30: 80 55 52 80 F0 FF FF 7F  F0 FF FF 7F 73 30 31 31  .UR.........s011
0B40: 45 52 80 F0 FF FF 7F F0  FF FF 7F 73 30 31 32 01  ER.........s012.
0B50: 80 1C 61 80 BA A0 23 05  01 6C 80 6D 80 6E 80 6F  ..a...#..l.m.n.o
0B60: 80 BA A1 23 05 01 70 80  71 80 72 80 73 80 BA A2  ...#..p.q.r.s...
0B70: 23 05 01 74 80 75 80 76  80 77 80 55 52 80 F0 FF  #..t.u.v.w.UR...
0B80: FF 7F F0 FF FF 7F 73 30  31 32 27 0F A1 23 05 01  ......s012'..#..
0B90: 0A 27 0F A2 23 05 01 0A  1C 25 80 27 0F A1 23 05  .'..#....%.'..#.
0BA0: 01 0A 45 52 80 F0 FF FF  7F F0 FF FF 7F 73 30 31  ..ER.........s01
0BB0: 33 01 80 4A 9F 23 05 01  A0 23 05 01 4A F0 FF FF  3..J.#...#..J...
0BC0: 7F A0 23 05 01 4A A0 23  05 01 9F 23 05 01 7B 9F  ..#..J.#...#..{.
0BD0: 23 05 01 6F 76 A0 23 05  01 2B A0 23 05 01 78 80  #..ov.#..+.#..x.
0BE0: 23 52 52 80 F0 FF FF 7F  F0 FF FF 7F 73 30 31 33  #RR.........s013
0BF0: 5B 5C 80 9F 23 05 01 9F  23 05 01 6B 61 69 30 1C  [\..#...#..kai0.
0C00: 25 80 45 52 80 F0 FF FF  7F F0 FF FF 7F 73 30 31  %.ER.........s01
0C10: 34 01 80 2B 9F 23 05 01  79 80 23 2A 0F A1 23 05  4..+.#..y.#*..#.
0C20: 01 2A 0F A2 23 05 01 52  52 80 F0 FF FF 7F F0 FF  .*..#..RR.......
0C30: FF 7F 73 30 31 34 45 52  80 F0 FF FF 7F F0 FF FF  ..s014ER........
0C40: 7F 73 30 34 31 01 80 27  0F A0 23 05 01 0D 6E A1  .s041..'..#...n.
0C50: 23 05 01 7A 80 99 A1 23  05 01 6E A2 23 05 01 7B  #..z...#..n.#..{
0C60: 80 99 A2 23 05 01 1C 23  80 27 0F A1 23 05 01 0B  ...#...#.'..#...
0C70: 1C 26 80 27 0F A2 23 05  01 0B 1C 26 80 52 52 80  .&.'..#....&.RR.
0C80: F0 FF FF 7F F0 FF FF 7F  73 30 34 31 1A FC 46 1C  ........s041..F.
0C90: 25 80 7A 00 A0 23 05 01  7A 00 A1 23 05 01 7A 00  %.z..#..z..#..z.
0CA0: A2 23 05 01 1C 1B 80 4E  01 A0 23 05 01 4E 01 A1  .#.....N..#..N..
0CB0: 23 05 01 4E 01 A2 23 05  01 48 51 80 23 BA 9F 23  #..N..#..HQ.#..#
0CC0: 05 01 7C 80 7D 80 7E 80  7F 80 4A F0 FF FF 7F 9F  ..|.}.~...J.....
0CD0: 23 05 01 27 0F 9F 23 05  01 0C 45 52 80 F0 FF FF  #..'..#...ER....
0CE0: 7F F0 FF FF 7F 73 30 31  35 01 80 1A DB 46 2A 0F  .....s015....F*.
0CF0: 9F 23 05 01 4A 9F 23 05  01 F0 FF FF 7F 7B 9F 23  .#..J.#......{.#
0D00: 05 01 6F 76 9F 23 05 01  5B 42 80 9F 23 05 01 9F  ..ov.#..[B..#...
0D10: 23 05 01 6E 6F 30 30 2B  9F 23 05 01 80 80 23 55  #..no00+.#....#U
0D20: 52 80 F0 FF FF 7F F0 FF  FF 7F 73 30 31 35 45 52  R.........s015ER
0D30: 80 F0 FF FF 7F F0 FF FF  7F 73 30 31 36 01 80 27  .........s016..'
0D40: 0F 9F 23 05 01 0D 2A 0F  9F 23 05 01 4A F0 FF FF  ..#...*..#..J...
0D50: 7F 9F 23 05 01 5B 81 80  9F 23 05 01 9F 23 05 01  ..#..[...#...#..
0D60: 74 6C 64 30 2B 9F 23 05  01 82 80 23 5B 81 80 9F  tld0+.#....#[...
0D70: 23 05 01 9F 23 05 01 74  6C 64 31 52 52 80 F0 FF  #...#..tld1RR...
0D80: FF 7F F0 FF FF 7F 73 30  31 36 1C 26 80 45 52 80  ......s016.&.ER.
0D90: F0 FF FF 7F F0 FF FF 7F  73 30 31 37 01 80 4E 01  ........s017..N.
0DA0: A3 23 05 01 4A 9F 23 05  01 F0 FF FF 7F 6F 76 9F  .#..J.#......ov.
0DB0: 23 05 01 5B 81 80 9F 23  05 01 9F 23 05 01 74 6C  #..[...#...#..tl
0DC0: 65 30 2B 9F 23 05 01 83  80 23 24 84 80 01 80 01  e0+.#....#$.....
0DD0: 80 25 02 00 10 01 80 00  32 0E 5B 81 80 9F 23 05  .%......2.[...#.
0DE0: 01 9F 23 05 01 74 6C 65  31 52 52 80 F0 FF FF 7F  ..#..tle1RR.....
0DF0: F0 FF FF 7F 73 30 31 37  45 52 80 F0 FF FF 7F F0  ....s017ER......
0E00: FF FF 7F 73 30 31 38 01  80 5B 85 80 9F 23 05 01  ...s018..[...#..
0E10: 9F 23 05 01 68 64 62 30  2B 9F 23 05 01 86 80 23  .#..hdb0+.#....#
0E20: 52 52 80 F0 FF FF 7F F0  FF FF 7F 73 30 31 38 01  RR.........s018.
0E30: 9B 0E 02 00 10 58 80 00  9B 0E 5B 81 80 9F 23 05  .....X....[...#.
0E40: 01 9F 23 05 01 74 6C 65  31 52 52 80 F0 FF FF 7F  ..#..tle1RR.....
0E50: F0 FF FF 7F 73 30 31 37  45 52 80 F0 FF FF 7F F0  ....s017ER......
0E60: FF FF 7F 73 30 31 38 01  80 5B 85 80 9F 23 05 01  ...s018..[...#..
0E70: 9F 23 05 01 68 64 62 30  2B 9F 23 05 01 87 80 23  .#..hdb0+.#....#
0E80: 03 01 10 5A 80 52 52 80  F0 FF FF 7F F0 FF FF 7F  ...Z.RR.........
0E90: 73 30 31 38 43 00 43 01  01 9B 0E 1A FC 46 1C 25  s018C.C......F.%
0EA0: 80 4E 00 A3 23 05 01 BA  9F 23 05 01 07 80 08 80  .N..#....#......
0EB0: 09 80 0A 80 BA F0 FF FF  7F 88 80 89 80 8A 80 8B  ................
0EC0: 80 7B 9F 23 05 01 79 00  F0 FF FF 7F F0 FF FF 7F  .{.#..y.........
0ED0: 27 0F F0 FF FF 7F 09 C5  21 80 9F 23 05 01 9F 23  '.......!..#...#
0EE0: 05 01 73 30 30 30 01 80  81 00 9F 23 05 01 5B 1F  ..s000.....#..[.
0EF0: 80 9F 23 05 01 9F 23 05  01 74 72 65 30 48 51 80  ..#...#..tre0HQ.
0F00: 23 45 52 80 F0 FF FF 7F  F0 FF FF 7F 73 30 31 39  #ER.........s019
0F10: 01 80 1A DB 46 7C 00 9F  23 05 01 C5 24 80 A3 23  ....F|..#...$..#
0F20: 05 01 A3 23 05 01 73 30  30 31 01 80 55 52 80 F0  ...#..s001..UR..
0F30: FF FF 7F F0 FF FF 7F 73  30 31 39 45 52 80 F0 FF  .......s019ER...
0F40: FF 7F F0 FF FF 7F 73 30  32 30 01 80 2B 9F 23 05  ......s020..+.#.
0F50: 01 8C 80 23 52 52 80 F0  FF FF 7F F0 FF FF 7F 73  ...#RR.........s
0F60: 30 32 30 45 52 80 F0 FF  FF 7F F0 FF FF 7F 73 30  020ER.........s0
0F70: 32 31 01 80 C5 24 80 A3  23 05 01 A3 23 05 01 73  21...$..#...#..s
0F80: 30 30 31 01 80 55 52 80  F0 FF FF 7F F0 FF FF 7F  001..UR.........
0F90: 73 30 32 31 45 52 80 F0  FF FF 7F F0 FF FF 7F 73  s021ER.........s
0FA0: 30 32 32 01 80 2B 9F 23  05 01 8D 80 23 7C 01 9F  022..+.#....#|..
0FB0: 23 05 01 2B 9F 23 05 01  8E 80 23 52 52 80 F0 FF  #..+.#....#RR...
0FC0: FF 7F F0 FF FF 7F 73 30  32 32 45 52 80 F0 FF FF  ......s022ER....
0FD0: 7F F0 FF FF 7F 73 30 32  33 01 80 2B 9F 23 05 01  .....s023..+.#..
0FE0: 8F 80 23 52 52 80 F0 FF  FF 7F F0 FF FF 7F 73 30  ..#RR.........s0
0FF0: 32 33 45 52 80 F0 FF FF  7F F0 FF FF 7F 73 30 34  23ER.........s04
1000: 30 01 80 2B 9F 23 05 01  90 80 23 03 00 00 01 80  0..+.#....#.....
1010: 24 91 80 01 80 00 00 25  02 00 10 01 80 00 69 10  $......%......i.
1020: 52 52 80 F0 FF FF 7F F0  FF FF 7F 73 30 34 32 45  RR.........s042E
1030: 52 80 F0 FF FF 7F F0 FF  FF 7F 73 30 32 34 01 80  R.........s024..
1040: 2B 9F 23 05 01 92 80 23  52 52 80 F0 FF FF 7F F0  +.#....#RR......
1050: FF FF 7F 73 30 32 34 52  52 80 F0 FF FF 7F F0 FF  ...s024RR.......
1060: FF 7F 73 30 34 30 01 B5  10 02 00 10 58 80 00 B5  ..s040......X...
1070: 10 52 52 80 F0 FF FF 7F  F0 FF FF 7F 73 30 34 30  .RR.........s040
1080: 45 52 80 F0 FF FF 7F F0  FF FF 7F 73 30 34 32 01  ER.........s042.
1090: 80 2B 9F 23 05 01 93 80  23 2B 9F 23 05 01 94 80  .+.#....#+.#....
10A0: 23 03 01 10 54 80 43 00  43 01 03 00 00 95 80 01  #...T.C.C.......
10B0: 10 10 01 B5 10 45 52 80  F0 FF FF 7F F0 FF FF 7F  .....ER.........
10C0: 73 30 32 35 01 80 C5 24  80 A3 23 05 01 A3 23 05  s025...$..#...#.
10D0: 01 73 30 30 31 01 80 55  52 80 F0 FF FF 7F F0 FF  .s001..UR.......
10E0: FF 7F 73 30 32 35 1A FC  46 1C 25 80 4E 00 A5 23  ..s025..F.%.N..#
10F0: 05 01 4E 01 A3 23 05 01  27 0F A5 23 05 01 0B BA  ..N..#..'..#....
1100: A5 23 05 01 96 80 97 80  98 80 99 80 BA 9F 23 05  .#............#.
1110: 01 9A 80 9B 80 27 80 8B  80 BA F0 FF FF 7F 9C 80  .....'..........
1120: 9D 80 9E 80 9F 80 4A 9F  23 05 01 F0 FF FF 7F 4A  ......J.#......J
1130: F0 FF FF 7F 9F 23 05 01  7B 9F 23 05 01 6F 76 F0  .....#..{.#..ov.
1140: FF FF 7F 6F 76 9F 23 05  01 6B 69 64 6C 30 F0 FF  ...ov.#..kidl0..
1150: FF 7F 6B 69 64 6C 30 9F  23 05 01 C5 21 80 9F 23  ..kidl0.#...!..#
1160: 05 01 9F 23 05 01 6B 69  6C 31 01 80 C5 21 80 9F  ...#..kil1...!..
1170: 23 05 01 9F 23 05 01 6B  69 6C 32 01 80 48 51 80  #...#..kil2..HQ.
1180: 23 5C 00 A0 80 5C 01 A0  80 9A 45 52 80 F0 FF FF  #\...\....ER....
1190: 7F F0 FF FF 7F 73 30 32  36 01 80 1A DB 46 55 52  .....s026....FUR
11A0: 80 F0 FF FF 7F F0 FF FF  7F 73 30 32 36 45 52 80  .........s026ER.
11B0: F0 FF FF 7F F0 FF FF 7F  73 30 32 37 01 80 5B A1  ........s027..[.
11C0: 80 9F 23 05 01 9F 23 05  01 68 64 63 30 2B 9F 23  ..#...#..hdc0+.#
11D0: 05 01 A2 80 23 52 52 80  F0 FF FF 7F F0 FF FF 7F  ....#RR.........
11E0: 73 30 32 37 45 52 80 F0  FF FF 7F F0 FF FF 7F 73  s027ER.........s
11F0: 30 32 38 01 80 5B A3 80  A5 23 05 01 A5 23 05 01  028..[...#...#..
1200: 61 72 61 30 2B 9F 23 05  01 A4 80 23 24 A5 80 01  ara0+.#....#$...
1210: 80 01 80 25 02 00 10 01  80 00 24 12 03 01 10 58  ...%......$....X
1220: 80 01 44 12 02 00 10 58  80 00 34 12 03 01 10 95  ..D....X..4.....
1230: 80 01 44 12 02 00 10 95  80 00 44 12 03 01 10 A6  ..D.......D.....
1240: 80 01 44 12 27 0F F0 FF  FF 7F 2A 43 00 43 01 5B  ..D.'.....*C.C.[
1250: A1 80 9F 23 05 01 9F 23  05 01 68 64 63 31 5B A7  ...#...#..hdc1[.
1260: 80 A5 23 05 01 A5 23 05  01 68 69 67 72 1C 26 80  ..#...#..higr.&.
1270: 52 52 80 F0 FF FF 7F F0  FF FF 7F 73 30 32 38 45  RR.........s028E
1280: 52 80 F0 FF FF 7F F0 FF  FF 7F 73 30 32 39 01 80  R.........s029..
1290: 5B 81 80 9F 23 05 01 9F  23 05 01 74 68 62 30 2B  [...#...#..thb0+
12A0: 9F 23 05 01 A8 80 23 24  A9 80 01 80 01 80 25 02  .#....#$......%.
12B0: 00 10 01 80 00 BF 12 03  01 10 7B 80 01 DF 12 02  ..........{.....
12C0: 00 10 58 80 00 CF 12 03  01 10 AA 80 01 DF 12 02  ..X.............
12D0: 00 10 95 80 00 DF 12 03  01 10 66 80 01 DF 12 27  ..........f....'
12E0: 0F F0 FF FF 7F 2A 43 00  43 01 5B 81 80 9F 23 05  .....*C.C.[...#.
12F0: 01 9F 23 05 01 74 68 62  31 1C 2C 80 52 52 80 F0  ..#..thb1.,.RR..
1300: FF FF 7F F0 FF FF 7F 73  30 32 39 45 52 80 F0 FF  .......s029ER...
1310: FF 7F F0 FF FF 7F 73 30  33 30 01 80 5B 50 80 9F  ......s030..[P..
1320: 23 05 01 9F 23 05 01 74  6C 62 30 2B 9F 23 05 01  #...#..tlb0+.#..
1330: AB 80 23 24 AC 80 01 80  01 80 25 02 00 10 01 80  ..#$......%.....
1340: 00 4B 13 03 01 10 68 80  01 6B 13 02 00 10 58 80  .K....h..k....X.
1350: 00 5B 13 03 01 10 7A 80  01 6B 13 02 00 10 95 80  .[....z..k......
1360: 00 6B 13 03 01 10 AD 80  01 6B 13 27 0F F0 FF FF  .k.......k.'....
1370: 7F 2A 43 00 43 01 5B 50  80 9F 23 05 01 9F 23 05  .*C.C.[P..#...#.
1380: 01 74 6C 62 31 1C 26 80  52 52 80 F0 FF FF 7F F0  .tlb1.&.RR......
1390: FF FF 7F 73 30 33 30 45  52 80 F0 FF FF 7F F0 FF  ...s030ER.......
13A0: FF 7F 73 30 33 31 01 80  27 0F 9F 23 05 01 0E 2A  ..s031..'..#...*
13B0: 0F 9F 23 05 01 4B A5 23  05 01 AE 80 53 9F 23 05  ..#..K.#....S.#.
13C0: 01 9F 23 05 01 74 6C 62  31 7C 00 9F 23 05 01 81  ..#..tlb1|..#...
13D0: 00 9F 23 05 01 5B 40 80  9F 23 05 01 9F 23 05 01  ..#..[@..#...#..
13E0: 66 63 30 31 5B AF 80 9F  23 05 01 9F 23 05 01 74  fc01[...#...#..t
13F0: 68 61 30 2B 9F 23 05 01  B0 80 23 53 9F 23 05 01  ha0+.#....#S.#..
1400: 9F 23 05 01 74 68 61 30  5B 40 80 9F 23 05 01 9F  .#..tha0[@..#...
1410: 23 05 01 66 30 30 30 7C  01 9F 23 05 01 81 01 9F  #..f000|..#.....
1420: 23 05 01 24 B1 80 01 80  01 80 25 02 00 10 01 80  #..$......%.....
1430: 00 3B 14 03 01 10 61 80  01 5B 14 02 00 10 58 80  .;....a..[....X.
1440: 00 4B 14 03 01 10 56 80  01 5B 14 02 00 10 95 80  .K....V..[......
1450: 00 5B 14 03 01 10 B2 80  01 5B 14 27 0F F0 FF FF  .[.......[.'....
1460: 7F 2A 43 00 43 01 5B AF  80 9F 23 05 01 9F 23 05  .*C.C.[...#...#.
1470: 01 74 68 61 31 1C 26 80  4B A5 23 05 01 99 80 52  .tha1.&.K.#....R
1480: 52 80 F0 FF FF 7F F0 FF  FF 7F 73 30 33 31 4A 9F  R.........s031J.
1490: 23 05 01 F0 FF FF 7F 45  52 80 F0 FF FF 7F F0 FF  #......ER.......
14A0: FF 7F 73 30 33 32 01 80  7B 9F 23 05 01 6F 76 9F  ..s032..{.#..ov.
14B0: 23 05 01 5B 50 80 9F 23  05 01 9F 23 05 01 74 6C  #..[P..#...#..tl
14C0: 62 30 2B 9F 23 05 01 B3  80 23 24 B4 80 01 80 01  b0+.#....#$.....
14D0: 80 25 02 00 10 01 80 00  E2 14 03 01 10 B5 80 01  .%..............
14E0: 02 15 02 00 10 58 80 00  F2 14 03 01 10 B6 80 01  .....X..........
14F0: 02 15 02 00 10 95 80 00  02 15 03 01 10 1B 80 01  ................
1500: 02 15 27 0F F0 FF FF 7F  2A 43 00 43 01 5B 50 80  ..'.....*C.C.[P.
1510: 9F 23 05 01 9F 23 05 01  74 6C 62 31 1C 26 80 52  .#...#..tlb1.&.R
1520: 52 80 F0 FF FF 7F F0 FF  FF 7F 73 30 33 32 45 52  R.........s032ER
1530: 80 F0 FF FF 7F F0 FF FF  7F 73 30 33 33 01 80 5B  .........s033..[
1540: 81 80 9F 23 05 01 9F 23  05 01 74 6C 63 30 2B 9F  ...#...#..tlc0+.
1550: 23 05 01 B7 80 23 24 B8  80 01 80 01 80 25 02 00  #....#$......%..
1560: 10 01 80 00 6E 15 03 01  10 B9 80 01 8E 15 02 00  ....n...........
1570: 10 58 80 00 7E 15 03 01  10 BA 80 01 8E 15 02 00  .X..~...........
1580: 10 95 80 00 8E 15 03 01  10 BB 80 01 8E 15 27 0F  ..............'.
1590: F0 FF FF 7F 2A 43 00 43  01 5B 81 80 9F 23 05 01  ....*C.C.[...#..
15A0: 9F 23 05 01 74 6C 63 31  1C 26 80 52 52 80 F0 FF  .#..tlc1.&.RR...
15B0: FF 7F F0 FF FF 7F 73 30  33 33 45 52 80 F0 FF FF  ......s033ER....
15C0: 7F F0 FF FF 7F 73 30 33  34 01 80 27 0F 9F 23 05  .....s034..'..#.
15D0: 01 0F 2A 0F 9F 23 05 01  5B AF 80 9F 23 05 01 9F  ..*..#..[...#...
15E0: 23 05 01 74 68 61 30 2B  9F 23 05 01 BC 80 23 5B  #..tha0+.#....#[
15F0: AF 80 9F 23 05 01 9F 23  05 01 74 68 61 31 4A 9F  ...#...#..tha1J.
1600: 23 05 01 F0 FF FF 7F 7B  9F 23 05 01 6F 76 9F 23  #......{.#..ov.#
1610: 05 01 52 52 80 F0 FF FF  7F F0 FF FF 7F 73 30 33  ..RR.........s03
1620: 34 45 52 80 F0 FF FF 7F  F0 FF FF 7F 73 30 33 35  4ER.........s035
1630: 01 80 53 9F 23 05 01 9F  23 05 01 74 68 61 31 7C  ..S.#...#..tha1|
1640: 00 9F 23 05 01 81 00 9F  23 05 01 5B 40 80 9F 23  ..#.....#..[@..#
1650: 05 01 9F 23 05 01 66 64  30 31 5B A1 80 9F 23 05  ...#..fd01[...#.
1660: 01 9F 23 05 01 68 64 63  30 2B 9F 23 05 01 BD 80  ..#..hdc0+.#....
1670: 23 03 01 10 00 80 43 00  43 01 02 09 10 58 80 80  #.....C.C....X..
1680: DE 16 52 52 80 F0 FF FF  7F F0 FF FF 7F 73 30 33  ..RR.........s03
1690: 35 45 52 80 F0 FF FF 7F  F0 FF FF 7F 73 30 33 38  5ER.........s038
16A0: 01 80 5B BE 80 A5 23 05  01 A5 23 05 01 6E 6F 62  ..[...#...#..nob
16B0: 69 93 BF 80 03 02 10 BF  80 2B 9F 23 05 01 C0 80  i........+.#....
16C0: 23 93 01 80 2B 9F 23 05  01 C1 80 23 52 52 80 F0  #...+.#....#RR..
16D0: FF FF 7F F0 FF FF 7F 73  30 33 38 01 A6 17 02 09  .......s038.....
16E0: 10 95 80 80 42 17 52 52  80 F0 FF FF 7F F0 FF FF  ....B.RR........
16F0: 7F 73 30 33 35 45 52 80  F0 FF FF 7F F0 FF FF 7F  .s035ER.........
1700: 73 30 33 38 01 80 5B A3  80 A5 23 05 01 A5 23 05  s038..[...#...#.
1710: 01 61 72 61 30 93 C2 80  03 02 10 C2 80 2B 9F 23  .ara0........+.#
1720: 05 01 C0 80 23 93 01 80  2B 9F 23 05 01 C3 80 23  ....#...+.#....#
1730: 52 52 80 F0 FF FF 7F F0  FF FF 7F 73 30 33 38 01  RR.........s038.
1740: A6 17 02 09 10 A6 80 80  A6 17 52 52 80 F0 FF FF  ..........RR....
1750: 7F F0 FF FF 7F 73 30 33  35 45 52 80 F0 FF FF 7F  .....s035ER.....
1760: F0 FF FF 7F 73 30 34 33  01 80 5B A7 80 A5 23 05  ....s043..[...#.
1770: 01 A5 23 05 01 79 6F 79  30 93 C4 80 03 02 10 C4  ..#..yoy0.......
1780: 80 2B 9F 23 05 01 C0 80  23 93 01 80 2B 9F 23 05  .+.#....#...+.#.
1790: 01 C5 80 23 52 52 80 F0  FF FF 7F F0 FF FF 7F 73  ...#RR.........s
17A0: 30 34 33 01 A6 17 45 52  80 F0 FF FF 7F F0 FF FF  043...ER........
17B0: 7F 73 30 33 36 01 80 5B  85 80 9F 23 05 01 9F 23  .s036..[...#...#
17C0: 05 01 68 64 62 30 4E 00  A3 23 05 01 BA A3 23 05  ..hdb0N..#....#.
17D0: 01 C6 80 C7 80 C8 80 C9  80 2B 9F 23 05 01 CA 80  .........+.#....
17E0: 23 2B 9F 23 05 01 CB 80  23 52 52 80 F0 FF FF 7F  #+.#....#RR.....
17F0: F0 FF FF 7F 73 30 33 36  45 52 80 F0 FF FF 7F F0  ....s036ER......
1800: FF FF 7F 73 30 33 37 01  80 7C 01 9F 23 05 01 81  ...s037..|..#...
1810: 01 9F 23 05 01 5B 40 80  9F 23 05 01 9F 23 05 01  ..#..[@..#...#..
1820: 66 64 30 30 1C 26 80 C5  24 80 A3 23 05 01 A3 23  fd00.&..$..#...#
1830: 05 01 73 30 30 31 01 80  55 52 80 F0 FF FF 7F F0  ..s001..UR......
1840: FF FF 7F 73 30 33 37 1A  FC 46 1C 25 80 45 22 80  ...s037..F.%.E".
1850: F0 FF FF 7F F0 FF FF 7F  30 62 6C 66 01 80 46 00  ........0blf..F.
1860: 45 CC 80 F0 FF FF 7F F0  FF FF 7F 66 64 69 32 01  E..........fdi2.
1870: 80 21 00                                          .!.             
```

#### Opcodes

```
  0: 0x0001 [0x42] SET_CLI_EVENT_CANCEL_DATA()
  1: 0x0002 [0x1A] CALL_SUBROUTINE(address=0x46FC)
  2: 0x0005 [0x46] CAMERA_CONTROL: Disable user control
  3: 0x0007 [0x38] SET_CLIENT_EVENT_MODE(mode=19*)
  4: 0x000A [0x5D] SET_MUSIC_VOLUME(volume=0*, fade_time=300*)
  5: 0x000F [0x27] REQ_SET(priority=0x10, entity_id=Lilisette (ID: 17114015/0x0105239F), tag_num=0x04)
  6: 0x0016 [0x27] REQ_SET(priority=0x10, entity_id=Tanja (ID: 17114016/0x010523A0), tag_num=0x02)
  7: 0x001D [0x27] REQ_SET(priority=0x10, entity_id=Raina (ID: 17114017/0x010523A1), tag_num=0x02)
  8: 0x0024 [0x27] REQ_SET(priority=0x10, entity_id=Judith (ID: 17114018/0x010523A2), tag_num=0x02)
  9: 0x002B [0x27] REQ_SET(priority=0x10, entity_id=Unnamed NPC (ID: 17114019/0x010523A3), tag_num=0x04)
 10: 0x0032 [0x92] Lilisette (ID: 17114015/0x0105239F)->Render.Flags3 ^= 0x01
 11: 0x0038 [0x92] Tanja (ID: 17114016/0x010523A0)->Render.Flags3 ^= 0x01
 12: 0x003E [0x92] Raina (ID: 17114017/0x010523A1)->Render.Flags3 ^= 0x01
 13: 0x0044 [0x92] Judith (ID: 17114018/0x010523A2)->Render.Flags3 ^= 0x01
 14: 0x004A [0x92] Cait Sith Aon (ID: 17114021/0x010523A5)->Render.Flags3 ^= 0x01
 15: 0x0050 [0x92] Unnamed NPC (ID: 17114019/0x010523A3)->Render.Flags3 ^= 0x01
 16: 0x0056 [0x94] LocalPlayer->Render.Flags3 ^= 0x01
 17: 0x005C [0x94] Lilisette (ID: 17114015/0x0105239F)->Render.Flags3 ^= 0x01
 18: 0x0062 [0x94] Tanja (ID: 17114016/0x010523A0)->Render.Flags3 ^= 0x01
 19: 0x0068 [0x94] Raina (ID: 17114017/0x010523A1)->Render.Flags3 ^= 0x01
 20: 0x006E [0x94] Judith (ID: 17114018/0x010523A2)->Render.Flags3 ^= 0x01
 21: 0x0074 [0x94] Unnamed NPC (ID: 17114019/0x010523A3)->Render.Flags3 ^= 0x01
 22: 0x007A [0x94] Unnamed NPC (ID: 17114019/0x010523A3)->Render.Flags3 ^= 0x01
 23: 0x0080 [0x94] Elegant Footprints (ID: 17114013/0x0105239D)->Render.Flags3 ^= 0x01
 24: 0x0086 [0xBA] SET_ENTITY_POSITION(entity_id=LocalPlayer, pos_x=45.623*, pos_z=316.725*, pos_y=0.079*, direction=275.2*)
 25: 0x0093 [0xBA] SET_ENTITY_POSITION(entity_id=Lilisette (ID: 17114015/0x0105239F), pos_x=45.635*, pos_z=310.141*, pos_y=0.116*, direction=287.4*)
 26: 0x00A0 [0xBA] SET_ENTITY_POSITION(entity_id=Tanja (ID: 17114016/0x010523A0), pos_x=50.626*, pos_z=313.234*, pos_y=0.049*, direction=281.2*)
 27: 0x00AD [0xBA] SET_ENTITY_POSITION(entity_id=Raina (ID: 17114017/0x010523A1), pos_x=46.633*, pos_z=314.846*, pos_y=0.071*, direction=270.0*)
 28: 0x00BA [0xBA] SET_ENTITY_POSITION(entity_id=Judith (ID: 17114018/0x010523A2), pos_x=43.687*, pos_z=317.404*, pos_y=-0.016*, direction=292.5*)
 29: 0x00C7 [0xBA] SET_ENTITY_POSITION(entity_id=Unnamed NPC (ID: 17114019/0x010523A3), pos_x=48.057*, pos_z=319.839*, pos_y=0.174*, direction=212.6*)
 30: 0x00D4 [0x80] LOAD_WAIT(entity=LocalPlayer)
 31: 0x00D9 [0x80] LOAD_WAIT(entity=Lilisette (ID: 17114015/0x0105239F))
 32: 0x00DE [0x80] LOAD_WAIT(entity=Tanja (ID: 17114016/0x010523A0))
 33: 0x00E3 [0x80] LOAD_WAIT(entity=Raina (ID: 17114017/0x010523A1))
 34: 0x00E8 [0x80] LOAD_WAIT(entity=Judith (ID: 17114018/0x010523A2))
 35: 0x00ED [0x80] LOAD_WAIT(entity=Unnamed NPC (ID: 17114019/0x010523A3))
 36: 0x00F2 [0x1C] WAIT(15* ticks)
 37: 0x00F5 [0x81] SET_ENTITY_BLINKING(blink_flag=0x00, entity=Lilisette (ID: 17114015/0x0105239F))
 38: 0x00FB [0x7C] Lilisette (ID: 17114015/0x0105239F)->Render.Flags2 |= 0x00
 39: 0x0101 [0x5B] LOAD_EXT_SCHEDULER: Load scheduler "ksp0" with entities [Tanja (ID: 17114016/0x010523A0), Tanja (ID: 17114016/0x010523A0)], work=2238*
 40: 0x0110 [0x5B] LOAD_EXT_SCHEDULER: Load scheduler "da30" with entities [Raina (ID: 17114017/0x010523A1), Raina (ID: 17114017/0x010523A1)], work=2292*
 41: 0x011F [0x5B] LOAD_EXT_SCHEDULER: Load scheduler "dan0" with entities [Judith (ID: 17114018/0x010523A2), Judith (ID: 17114018/0x010523A2)], work=1486*
 42: 0x012E [0x5B] LOAD_EXT_SCHEDULER: Load scheduler "tre0" with entities [Lilisette (ID: 17114015/0x0105239F), Lilisette (ID: 17114015/0x0105239F)], work=2477*
 43: 0x013D [0x5B] LOAD_EXT_SCHEDULER: Load scheduler "trp0" with entities [Unnamed NPC (ID: 17114019/0x010523A3), Unnamed NPC (ID: 17114019/0x010523A3)], work=2336*
 44: 0x014C [0xC5] LOAD_SCHEDULED_TASK_ALT3: Load scheduler 0x80013030 for entities [Lilisette (ID: 17114015/0x0105239F), Lilisette (ID: 17114015/0x0105239F)], work=48*, param=12403
 45: 0x015D [0x29] REQ_SET_WAIT(priority=0x10, entity_id=LocalPlayer, tag_num=0x09)
 46: 0x0164 [0x79] LocalPlayer looks at Elegant Footprints (ID: 17114013/0x0105239D) (Basic look)
 47: 0x016E [0x45] LOAD_SCHEDULED_TASK: Load scheduler "3300" with entities [LocalPlayer, LocalPlayer], work=[417*, 0*]
 48: 0x017F [0x1A] CALL_SUBROUTINE(address=0x46DB)
 49: 0x0182 [0x1C] WAIT(120* ticks)
 50: 0x0185 [0xC5] LOAD_SCHEDULED_TASK_ALT3: Load scheduler 0x80013130 for entities [Unnamed NPC (ID: 17114019/0x010523A3), Unnamed NPC (ID: 17114019/0x010523A3)], work=26*, param=12403
 51: 0x0196 [0x1C] WAIT(30* ticks)
 52: 0x0199 [0x52] END_LOAD_SCHEDULER: End scheduler "3300" with entities [LocalPlayer, LocalPlayer], work=417*
 53: 0x01A8 [0x45] LOAD_SCHEDULED_TASK: Load scheduler "3301" with entities [LocalPlayer, LocalPlayer], work=[417*, 0*]
 54: 0x01B9 [0x79] LocalPlayer looks at Unnamed NPC (ID: 17114019/0x010523A3) (Basic look)
 55: 0x01C3 [0x1C] WAIT(60* ticks)
 56: 0x01C6 [0x27] REQ_SET(priority=0x10, entity_id=LocalPlayer, tag_num=0x29)
 57: 0x01CD [0x1C] WAIT(100* ticks)
 58: 0x01D0 [0x52] END_LOAD_SCHEDULER: End scheduler "3301" with entities [LocalPlayer, LocalPlayer], work=417*
 59: 0x01DF [0x45] LOAD_SCHEDULED_TASK: Load scheduler "3302" with entities [LocalPlayer, LocalPlayer], work=[417*, 0*]
 60: 0x01F0 [0x2A] GET_REQ_LEVEL(level=16, entity_id=LocalPlayer)
 61: 0x01F6 [0x59] UPDATE_ENTITY_DATA: Set LocalPlayer main speed = 40* * 0.1
 62: 0x01FE [0xC5] LOAD_SCHEDULED_TASK_ALT3: Load scheduler 0x80013130 for entities [Unnamed NPC (ID: 17114019/0x010523A3), Unnamed NPC (ID: 17114019/0x010523A3)], work=26*, param=12403
 63: 0x020F [0x1C] WAIT(60* ticks)
 64: 0x0212 [0x5C] MUSIC_CONTROL: Set Idle (Day) music to song 250*
 65: 0x0216 [0x5C] MUSIC_CONTROL: Set Idle (Night) music to song 250*
 66: 0x021A [0x9A] WAIT_MUSIC_SERVER()
 67: 0x021B [0x52] END_LOAD_SCHEDULER: End scheduler "3302" with entities [LocalPlayer, LocalPlayer], work=417*
 68: 0x022A [0x45] LOAD_SCHEDULED_TASK: Load scheduler "3303" with entities [LocalPlayer, LocalPlayer], work=[417*, 0*]
 69: 0x023B [0x5B] LOAD_EXT_SCHEDULER: Load scheduler "tre1" with entities [Lilisette (ID: 17114015/0x0105239F), Lilisette (ID: 17114015/0x0105239F)], work=2477*
 70: 0x024A [0x1C] WAIT(30* ticks)
 71: 0x024D [0x27] REQ_SET(priority=0x10, entity_id=Tanja (ID: 17114016/0x010523A0), tag_num=0x03)
 72: 0x0254 [0x27] REQ_SET(priority=0x10, entity_id=Raina (ID: 17114017/0x010523A1), tag_num=0x03)
 73: 0x025B [0x27] REQ_SET(priority=0x10, entity_id=Judith (ID: 17114018/0x010523A2), tag_num=0x03)
 74: 0x0262 [0x52] END_LOAD_SCHEDULER: End scheduler "3303" with entities [LocalPlayer, LocalPlayer], work=417*
 75: 0x0271 [0x45] LOAD_SCHEDULED_TASK: Load scheduler "3304" with entities [LocalPlayer, LocalPlayer], work=[417*, 0*]
 76: 0x0282 [0x2B] ??? (ID: 17114030/0x010523AE) [8352*]:
     "Haha!!! You're mine now, you pompous crown-wearing feline!"
 77: 0x0289 [0x1C] WAIT(70* ticks)
 78: 0x028C [0x4A] LocalPlayer looks at Lilisette (ID: 17114015/0x0105239F)
 79: 0x0295 [0x52] END_LOAD_SCHEDULER: End scheduler "3304" with entities [LocalPlayer, LocalPlayer], work=417*
 80: 0x02A4 [0x45] LOAD_SCHEDULED_TASK: Load scheduler "3305" with entities [LocalPlayer, LocalPlayer], work=[417*, 0*]
 81: 0x02B5 [0x5B] LOAD_EXT_SCHEDULER: Load scheduler "das1" with entities [Judith (ID: 17114018/0x010523A2), Judith (ID: 17114018/0x010523A2)], work=1486*
 82: 0x02C4 [0x1C] WAIT(60* ticks)
 83: 0x02C7 [0x52] END_LOAD_SCHEDULER: End scheduler "3305" with entities [LocalPlayer, LocalPlayer], work=417*
 84: 0x02D6 [0x45] LOAD_SCHEDULED_TASK: Load scheduler "3315" with entities [LocalPlayer, LocalPlayer], work=[417*, 0*]
 85: 0x02E7 [0xC5] LOAD_SCHEDULED_TASK_ALT3: Load scheduler 0x80013130 for entities [Tanja (ID: 17114016/0x010523A0), Tanja (ID: 17114016/0x010523A0)], work=40*, param=29811
 86: 0x02F8 [0x1C] WAIT(30* ticks)
 87: 0x02FB [0xBA] SET_ENTITY_POSITION(entity_id=Judith (ID: 17114018/0x010523A2), pos_x=46.633*, pos_z=314.846*, pos_y=0.071*, direction=270.0*)
 88: 0x0308 [0x5B] LOAD_EXT_SCHEDULER: Load scheduler "da20" with entities [Judith (ID: 17114018/0x010523A2), Judith (ID: 17114018/0x010523A2)], work=2292*
 89: 0x0317 [0x5B] LOAD_EXT_SCHEDULER: Load scheduler "ksp1" with entities [Tanja (ID: 17114016/0x010523A0), Tanja (ID: 17114016/0x010523A0)], work=2238*
 90: 0x0326 [0xC5] LOAD_SCHEDULED_TASK_ALT3: Load scheduler 0x80013230 for entities [Tanja (ID: 17114016/0x010523A0), Tanja (ID: 17114016/0x010523A0)], work=40*, param=29811
 91: 0x0337 [0x1C] WAIT(15* ticks)
 92: 0x033A [0x52] END_LOAD_SCHEDULER: End scheduler "3315" with entities [LocalPlayer, LocalPlayer], work=417*
 93: 0x0349 [0x45] LOAD_SCHEDULED_TASK: Load scheduler "3306" with entities [LocalPlayer, LocalPlayer], work=[417*, 0*]
 94: 0x035A [0x1C] WAIT(90* ticks)
 95: 0x035D [0x27] REQ_SET(priority=0x10, entity_id=??? (ID: 17114030/0x010523AE), tag_num=0x06)
 96: 0x0364 [0x52] END_LOAD_SCHEDULER: End scheduler "3306" with entities [LocalPlayer, LocalPlayer], work=417*
 97: 0x0373 [0x45] LOAD_SCHEDULED_TASK: Load scheduler "3307" with entities [LocalPlayer, LocalPlayer], work=[417*, 0*]
 98: 0x0384 [0x5B] LOAD_EXT_SCHEDULER: Load scheduler "ksp1" with entities [Tanja (ID: 17114016/0x010523A0), Tanja (ID: 17114016/0x010523A0)], work=2238*
 99: 0x0393 [0xC5] LOAD_SCHEDULED_TASK_ALT3: Load scheduler 0x80013230 for entities [Tanja (ID: 17114016/0x010523A0), Tanja (ID: 17114016/0x010523A0)], work=40*, param=29811
100: 0x03A4 [0xC5] LOAD_SCHEDULED_TASK_ALT3: Load scheduler 0x80013130 for entities [Unnamed NPC (ID: 17114019/0x010523A3), Unnamed NPC (ID: 17114019/0x010523A3)], work=26*, param=12403
101: 0x03B5 [0x1C] WAIT(60* ticks)
102: 0x03B8 [0x5B] LOAD_EXT_SCHEDULER: Load scheduler "da31" with entities [Raina (ID: 17114017/0x010523A1), Raina (ID: 17114017/0x010523A1)], work=2292*
103: 0x03C7 [0x5B] LOAD_EXT_SCHEDULER: Load scheduler "da21" with entities [Judith (ID: 17114018/0x010523A2), Judith (ID: 17114018/0x010523A2)], work=2292*
104: 0x03D6 [0x1C] WAIT(90* ticks)
105: 0x03D9 [0x52] END_LOAD_SCHEDULER: End scheduler "3307" with entities [LocalPlayer, LocalPlayer], work=417*
106: 0x03E8 [0x45] LOAD_SCHEDULED_TASK: Load scheduler "3308" with entities [LocalPlayer, LocalPlayer], work=[417*, 0*]
107: 0x03F9 [0x5B] LOAD_EXT_SCHEDULER: Load scheduler "ksp2" with entities [Tanja (ID: 17114016/0x010523A0), Tanja (ID: 17114016/0x010523A0)], work=2238*
108: 0x0408 [0xC5] LOAD_SCHEDULED_TASK_ALT3: Load scheduler 0x80013330 for entities [Tanja (ID: 17114016/0x010523A0), Tanja (ID: 17114016/0x010523A0)], work=40*, param=29811
109: 0x0419 [0x1C] WAIT(160* ticks)
110: 0x041C [0x27] REQ_SET(priority=0x10, entity_id=Tanja (ID: 17114016/0x010523A0), tag_num=0x0E)
111: 0x0423 [0x52] END_LOAD_SCHEDULER: End scheduler "3308" with entities [LocalPlayer, LocalPlayer], work=417*
112: 0x0432 [0x45] LOAD_SCHEDULED_TASK: Load scheduler "33bd" with entities [LocalPlayer, LocalPlayer], work=[417*, 0*]
113: 0x0443 [0x1C] WAIT(30* ticks)
114: 0x0446 [0x9F] LOAD_SCHEDULED_TASK_ALT: Load scheduler "str0" with entities [EventEntity, EventEntity], work=[127*, 0*]
115: 0x0457 [0x27] REQ_SET(priority=0x10, entity_id=??? (ID: 17114030/0x010523AE), tag_num=0x07)
116: 0x045E [0x7B] LocalPlayer stops talking
117: 0x0463 [0x1C] WAIT(30* ticks)
118: 0x0466 [0x5D] SET_MUSIC_VOLUME(volume=0*, fade_time=480*)
119: 0x046B [0x9F] LOAD_SCHEDULED_TASK_ALT: Load scheduler "kill" with entities [EventEntity, EventEntity], work=[127*, 0*]
120: 0x047C [0x52] END_LOAD_SCHEDULER: End scheduler "33bd" with entities [LocalPlayer, LocalPlayer], work=417*
121: 0x048B [0x45] LOAD_SCHEDULED_TASK: Load scheduler "3309" with entities [LocalPlayer, LocalPlayer], work=[417*, 0*]
122: 0x049C [0x1C] WAIT(30* ticks)
123: 0x049F [0xBA] SET_ENTITY_POSITION(entity_id=Tanja (ID: 17114016/0x010523A0), pos_x=48.130*, pos_z=317.081*, pos_y=0.204*, direction=187.7*)
124: 0x04AC [0xBA] SET_ENTITY_POSITION(entity_id=Raina (ID: 17114017/0x010523A1), pos_x=48.866*, pos_z=318.796*, pos_y=0.241*, direction=99.8*)
125: 0x04B9 [0xBA] SET_ENTITY_POSITION(entity_id=Judith (ID: 17114018/0x010523A2), pos_x=45.259*, pos_z=317.392*, pos_y=0.061*, direction=40.3*)
126: 0x04C6 [0x6B] STOP_AND_IDLE: Raina (ID: 17114017/0x010523A1) stops current action and resets to idle (animation="idl0")
127: 0x04CF [0x6B] STOP_AND_IDLE: Judith (ID: 17114018/0x010523A2) stops current action and resets to idle (animation="idl0")
128: 0x04D8 [0x29] REQ_SET_WAIT(priority=0x10, entity_id=Tanja (ID: 17114016/0x010523A0), tag_num=0x09)
129: 0x04DF [0x79] Raina (ID: 17114017/0x010523A1) looks at Tanja (ID: 17114016/0x010523A0) (Basic look)
130: 0x04E9 [0x4A] Judith (ID: 17114018/0x010523A2) looks at LocalPlayer
131: 0x04F2 [0x52] END_LOAD_SCHEDULER: End scheduler "3309" with entities [LocalPlayer, LocalPlayer], work=417*
132: 0x0501 [0x45] LOAD_SCHEDULED_TASK: Load scheduler "3310" with entities [LocalPlayer, LocalPlayer], work=[417*, 0*]
133: 0x0512 [0x1C] WAIT(15* ticks)
134: 0x0515 [0x5B] LOAD_EXT_SCHEDULER: Load scheduler "trs2" with entities [Lilisette (ID: 17114015/0x0105239F), Lilisette (ID: 17114015/0x0105239F)], work=2477*
135: 0x0524 [0xC5] LOAD_SCHEDULED_TASK_ALT3: Load scheduler 0x80013130 for entities [Lilisette (ID: 17114015/0x0105239F), Lilisette (ID: 17114015/0x0105239F)], work=48*, param=12403
136: 0x0535 [0x03] Work_Zone[2] = 330*
137: 0x053A [0x27] REQ_SET(priority=0x10, entity_id=??? (ID: 17114030/0x010523AE), tag_num=0x01)
138: 0x0541 [0x1C] WAIT(30* ticks)
139: 0x0544 [0x2B] Lilisette (ID: 17114015/0x0105239F) [8353*]:
     "...Huh?"
140: 0x054B [0x1C] WAIT(60* ticks)
141: 0x054E [0x27] REQ_SET(priority=0x10, entity_id=Tanja (ID: 17114016/0x010523A0), tag_num=0x0A)
142: 0x0555 [0x1C] WAIT(15* ticks)
143: 0x0558 [0x52] END_LOAD_SCHEDULER: End scheduler "3310" with entities [LocalPlayer, LocalPlayer], work=417*
144: 0x0567 [0x45] LOAD_SCHEDULED_TASK: Load scheduler "3311" with entities [LocalPlayer, LocalPlayer], work=[417*, 0*]
145: 0x0578 [0x1C] WAIT(60* ticks)
146: 0x057B [0x2B] Lilisette (ID: 17114015/0x0105239F) [8354*]:
     "<Player>!?"
147: 0x0582 [0x23] WAIT_FOR_DIALOG_INTERACTION
148: 0x0583 [0x2A] GET_REQ_LEVEL(level=16, entity_id=??? (ID: 17114030/0x010523AE))
149: 0x0589 [0x52] END_LOAD_SCHEDULER: End scheduler "3311" with entities [LocalPlayer, LocalPlayer], work=417*
150: 0x0598 [0x45] LOAD_SCHEDULED_TASK: Load scheduler "3316" with entities [LocalPlayer, LocalPlayer], work=[417*, 0*]
151: 0x05A9 [0x5B] LOAD_EXT_SCHEDULER: Load scheduler "ftr1" with entities [Lilisette (ID: 17114015/0x0105239F), Lilisette (ID: 17114015/0x0105239F)], work=2477*
152: 0x05B8 [0x2B] Lilisette (ID: 17114015/0x0105239F) [8355*]:
     "What do you think you're doing, wandering into the trap I'd laid out for that furball Cait Sith!?"
153: 0x05BF [0x23] WAIT_FOR_DIALOG_INTERACTION
154: 0x05C0 [0x52] END_LOAD_SCHEDULER: End scheduler "3316" with entities [LocalPlayer, LocalPlayer], work=417*
155: 0x05CF [0x45] LOAD_SCHEDULED_TASK: Load scheduler "3312" with entities [LocalPlayer, LocalPlayer], work=[417*, 0*]
156: 0x05E0 [0x1C] WAIT(30* ticks)
157: 0x05E3 [0x81] SET_ENTITY_BLINKING(blink_flag=0x01, entity=Lilisette (ID: 17114015/0x0105239F))
158: 0x05E9 [0x7C] Lilisette (ID: 17114015/0x0105239F)->Render.Flags2 |= 0x01
159: 0x05EF [0x5B] LOAD_EXT_SCHEDULER: Load scheduler "f000" with entities [Lilisette (ID: 17114015/0x0105239F), Lilisette (ID: 17114015/0x0105239F)], work=2135*
160: 0x05FE [0x27] REQ_SET(priority=0x10, entity_id=Lilisette (ID: 17114015/0x0105239F), tag_num=0x0B)
161: 0x0605 [0x79] Tanja (ID: 17114016/0x010523A0) looks at Lilisette (ID: 17114015/0x0105239F) (Basic look)
162: 0x060F [0x1C] WAIT(60* ticks)
163: 0x0612 [0x79] Raina (ID: 17114017/0x010523A1) looks at Lilisette (ID: 17114015/0x0105239F) (Basic look)
164: 0x061C [0x1C] WAIT(90* ticks)
165: 0x061F [0x2B] Lilisette (ID: 17114015/0x0105239F) [8356*]:
     "<Sigh>... Well, don't just lie there like a dolt. Up with you! Up!"
166: 0x0626 [0x23] WAIT_FOR_DIALOG_INTERACTION
167: 0x0627 [0x2A] GET_REQ_LEVEL(level=16, entity_id=Lilisette (ID: 17114015/0x0105239F))
168: 0x062D [0x52] END_LOAD_SCHEDULER: End scheduler "3312" with entities [LocalPlayer, LocalPlayer], work=417*
169: 0x063C [0x45] LOAD_SCHEDULED_TASK: Load scheduler "3313" with entities [LocalPlayer, LocalPlayer], work=[417*, 0*]
170: 0x064D [0x5B] LOAD_EXT_SCHEDULER: Load scheduler "no00" with entities [Lilisette (ID: 17114015/0x0105239F), Lilisette (ID: 17114015/0x0105239F)], work=2139*
171: 0x065C [0x1C] WAIT(60* ticks)
172: 0x065F [0x1A] CALL_SUBROUTINE(address=0x46FC)
173: 0x0662 [0x1C] WAIT(30* ticks)
174: 0x0665 [0xBA] SET_ENTITY_POSITION(entity_id=Lilisette (ID: 17114015/0x0105239F), pos_x=48.719*, pos_z=317.030*, pos_y=0.234*, direction=219.4*)
175: 0x0672 [0xBA] SET_ENTITY_POSITION(entity_id=Tanja (ID: 17114016/0x010523A0), pos_x=47.090*, pos_z=315.924*, pos_y=0.147*, direction=271.2*)
176: 0x067F [0xBA] SET_ENTITY_POSITION(entity_id=Raina (ID: 17114017/0x010523A1), pos_x=48.755*, pos_z=315.048*, pos_y=0.137*, direction=243.2*)
177: 0x068C [0xBA] SET_ENTITY_POSITION(entity_id=Judith (ID: 17114018/0x010523A2), pos_x=45.259*, pos_z=317.392*, pos_y=0.061*, direction=40.3*)
178: 0x0699 [0x4A] Judith (ID: 17114018/0x010523A2) looks at LocalPlayer
179: 0x06A2 [0x7B] Judith (ID: 17114018/0x010523A2) stops talking
180: 0x06A7 [0x79] LocalPlayer looks at LocalPlayer (Basic look)
181: 0x06B1 [0xC5] LOAD_SCHEDULED_TASK_ALT3: Load scheduler 0x80013030 for entities [Judith (ID: 17114018/0x010523A2), Judith (ID: 17114018/0x010523A2)], work=48*, param=12403
182: 0x06C2 [0x1C] WAIT(15* ticks)
183: 0x06C5 [0xC5] LOAD_SCHEDULED_TASK_ALT3: Load scheduler 0x8001316C for entities [Judith (ID: 17114018/0x010523A2), Judith (ID: 17114018/0x010523A2)], work=48*, param=26987
184: 0x06D6 [0xC5] LOAD_SCHEDULED_TASK_ALT3: Load scheduler 0x8001316C for entities [Lilisette (ID: 17114015/0x0105239F), Lilisette (ID: 17114015/0x0105239F)], work=48*, param=26987
185: 0x06E7 [0xC5] LOAD_SCHEDULED_TASK_ALT3: Load scheduler 0x8001326C for entities [Lilisette (ID: 17114015/0x0105239F), Lilisette (ID: 17114015/0x0105239F)], work=48*, param=26987
186: 0x06F8 [0x29] REQ_SET_WAIT(priority=0x10, entity_id=LocalPlayer, tag_num=0x09)
187: 0x06FF [0x5B] LOAD_EXT_SCHEDULER: Load scheduler "funl" with entities [Judith (ID: 17114018/0x010523A2), Judith (ID: 17114018/0x010523A2)], work=1252*
188: 0x070E [0x5B] LOAD_EXT_SCHEDULER: Load scheduler "thb0" with entities [Lilisette (ID: 17114015/0x0105239F), Lilisette (ID: 17114015/0x0105239F)], work=2133*
189: 0x071D [0x53] WAIT_SCHEDULER_TASK: Wait for scheduler "thb0" with entities [Lilisette (ID: 17114015/0x0105239F), Lilisette (ID: 17114015/0x0105239F)]
190: 0x072A [0x48] [System] [8544*]:
     ""
191: 0x072D [0x23] WAIT_FOR_DIALOG_INTERACTION
192: 0x072E [0x52] END_LOAD_SCHEDULER: End scheduler "3313" with entities [LocalPlayer, LocalPlayer], work=417*
193: 0x073D [0x45] LOAD_SCHEDULED_TASK: Load scheduler "s000" with entities [LocalPlayer, LocalPlayer], work=[406*, 0*]
194: 0x074E [0x1A] CALL_SUBROUTINE(address=0x46DB)
195: 0x0751 [0x55] WAIT_LOAD_SCHEDULER: Wait for scheduler "s000" with entities [LocalPlayer, LocalPlayer], work=406*
196: 0x0760 [0x45] LOAD_SCHEDULED_TASK: Load scheduler "s001" with entities [LocalPlayer, LocalPlayer], work=[406*, 0*]
197: 0x0771 [0x6B] STOP_AND_IDLE: Judith (ID: 17114018/0x010523A2) stops current action and resets to idle (animation="idl0")
198: 0x077A [0x2B] Tanja (ID: 17114016/0x010523A0) [8357*]:
     "And who have we here?"
199: 0x0781 [0x23] WAIT_FOR_DIALOG_INTERACTION
200: 0x0782 [0x79] Raina (ID: 17114017/0x010523A1) looks at Lilisette (ID: 17114015/0x0105239F) (Basic look)
201: 0x078C [0x52] END_LOAD_SCHEDULER: End scheduler "s001" with entities [LocalPlayer, LocalPlayer], work=406*
202: 0x079B [0x45] LOAD_SCHEDULED_TASK: Load scheduler "s006" with entities [LocalPlayer, LocalPlayer], work=[406*, 0*]
203: 0x07AC [0x6E] Raina (ID: 17114017/0x010523A1) uses emote 22*
204: 0x07B3 [0x99] Wait for Raina (ID: 17114017/0x010523A1) animation to complete
205: 0x07B8 [0x2B] Raina (ID: 17114017/0x010523A1) [8358*]:
     "Be this a friend of yours, Lili?"
206: 0x07BF [0x23] WAIT_FOR_DIALOG_INTERACTION
207: 0x07C0 [0x52] END_LOAD_SCHEDULER: End scheduler "s006" with entities [LocalPlayer, LocalPlayer], work=406*
208: 0x07CF [0x45] LOAD_SCHEDULED_TASK: Load scheduler "s002" with entities [LocalPlayer, LocalPlayer], work=[406*, 0*]
209: 0x07E0 [0x4A] Raina (ID: 17114017/0x010523A1) looks at Lilisette (ID: 17114015/0x0105239F)
210: 0x07E9 [0x6E] Judith (ID: 17114018/0x010523A2) uses emote 11*
211: 0x07F0 [0x99] Wait for Judith (ID: 17114018/0x010523A2) animation to complete
212: 0x07F5 [0x2B] Judith (ID: 17114018/0x010523A2) [8359*]:
     "Ooh, I recognize [him/her]! [He/She]'s the one we snagged in Ronfaure the other day!"
213: 0x07FC [0x23] WAIT_FOR_DIALOG_INTERACTION
214: 0x07FD [0x52] END_LOAD_SCHEDULER: End scheduler "s002" with entities [LocalPlayer, LocalPlayer], work=406*
215: 0x080C [0x27] REQ_SET(priority=0x10, entity_id=LocalPlayer, tag_num=0x0A)
216: 0x0813 [0x1C] WAIT(15* ticks)
217: 0x0816 [0x29] REQ_SET_WAIT(priority=0x10, entity_id=LocalPlayer, tag_num=0x10)
218: 0x081D [0x02] IF !(Work_Zone[2] == 1*) GOTO 0x0902
219: 0x0825 [0x45] LOAD_SCHEDULED_TASK: Load scheduler "s003" with entities [LocalPlayer, LocalPlayer], work=[406*, 0*]
220: 0x0836 [0x6E] Raina (ID: 17114017/0x010523A1) uses emote 22*
221: 0x083D [0x99] Wait for Raina (ID: 17114017/0x010523A1) animation to complete
222: 0x0842 [0x2B] Raina (ID: 17114017/0x010523A1) [8360*]:
     "Eh? You've been busy cozying up with this hunk of a man here, Lili, but never thought to tell us?"
223: 0x0849 [0x23] WAIT_FOR_DIALOG_INTERACTION
224: 0x084A [0x52] END_LOAD_SCHEDULER: End scheduler "s003" with entities [LocalPlayer, LocalPlayer], work=406*
225: 0x0859 [0x45] LOAD_SCHEDULED_TASK: Load scheduler "s004" with entities [LocalPlayer, LocalPlayer], work=[406*, 0*]
226: 0x086A [0x4A] Lilisette (ID: 17114015/0x0105239F) looks at Judith (ID: 17114018/0x010523A2)
227: 0x0873 [0x6E] Judith (ID: 17114018/0x010523A2) uses emote 21*
228: 0x087A [0x99] Wait for Judith (ID: 17114018/0x010523A2) animation to complete
229: 0x087F [0x2B] Judith (ID: 17114018/0x010523A2) [8361*]:
     "<Gasp>! Our ferocious, fang-baring Lili's finally managed to bag herself a...boyfriend!? And look, not even the slightest hint of a broken nose or dislocated jaw on him!"
230: 0x0886 [0x23] WAIT_FOR_DIALOG_INTERACTION
231: 0x0887 [0x6F] WAIT_FRAME_DELAY: Yield until WaitTime reaches zero
232: 0x0888 [0x76] CHECK_ENTITY_RENDER_FLAGS: Wait until Lilisette (ID: 17114015/0x0105239F) Render.Flags0 and Render.Flags3 conditions are met
233: 0x088D [0x7B] Lilisette (ID: 17114015/0x0105239F) stops talking
234: 0x0892 [0x52] END_LOAD_SCHEDULER: End scheduler "s004" with entities [LocalPlayer, LocalPlayer], work=406*
235: 0x08A1 [0x45] LOAD_SCHEDULED_TASK: Load scheduler "s005" with entities [LocalPlayer, LocalPlayer], work=[406*, 0*]
236: 0x08B2 [0x4A] Judith (ID: 17114018/0x010523A2) looks at Lilisette (ID: 17114015/0x0105239F)
237: 0x08BB [0x5B] LOAD_EXT_SCHEDULER: Load scheduler "funl" with entities [Judith (ID: 17114018/0x010523A2), Judith (ID: 17114018/0x010523A2)], work=1252*
238: 0x08CA [0x5B] LOAD_EXT_SCHEDULER: Load scheduler "kai0" with entities [Lilisette (ID: 17114015/0x0105239F), Lilisette (ID: 17114015/0x0105239F)], work=2240*
239: 0x08D9 [0x03] Work_Zone[2] = 150*
240: 0x08DE [0x27] REQ_SET(priority=0x10, entity_id=??? (ID: 17114030/0x010523AE), tag_num=0x01)
241: 0x08E5 [0x1C] WAIT(30* ticks)
242: 0x08E8 [0x2B] Lilisette (ID: 17114015/0x0105239F) [8362*]:
     "H-hey, stop jumping to deluded conclusions!"
243: 0x08EF [0x23] WAIT_FOR_DIALOG_INTERACTION
244: 0x08F0 [0x52] END_LOAD_SCHEDULER: End scheduler "s005" with entities [LocalPlayer, LocalPlayer], work=406*
245: 0x08FF [0x01] GOTO 0x0A34
246: 0x0902 [0x45] LOAD_SCHEDULED_TASK: Load scheduler "s003" with entities [LocalPlayer, LocalPlayer], work=[406*, 0*]
247: 0x0913 [0x6E] Raina (ID: 17114017/0x010523A1) uses emote 22*
248: 0x091A [0x99] Wait for Raina (ID: 17114017/0x010523A1) animation to complete
249: 0x091F [0x2B] Raina (ID: 17114017/0x010523A1) [8363*]:
     "So, you're a friend of Lili's, eh?"
250: 0x0926 [0x23] WAIT_FOR_DIALOG_INTERACTION
251: 0x0927 [0x79] Raina (ID: 17114017/0x010523A1) looks at LocalPlayer (Basic look)
252: 0x0931 [0x52] END_LOAD_SCHEDULER: End scheduler "s003" with entities [LocalPlayer, LocalPlayer], work=406*
253: 0x0940 [0x45] LOAD_SCHEDULED_TASK: Load scheduler "s004" with entities [LocalPlayer, LocalPlayer], work=[406*, 0*]
254: 0x0951 [0x4A] Lilisette (ID: 17114015/0x0105239F) looks at Judith (ID: 17114018/0x010523A2)
255: 0x095A [0x4A] Raina (ID: 17114017/0x010523A1) looks at LocalPlayer
256: 0x0963 [0x7B] Raina (ID: 17114017/0x010523A1) stops talking
257: 0x0968 [0x2B] Judith (ID: 17114018/0x010523A2) [8364*]:
     "But, my... I don't know how I failed to notice before, but you're absolutely gorgeous!"
258: 0x096F [0x23] WAIT_FOR_DIALOG_INTERACTION
259: 0x0970 [0x6E] Judith (ID: 17114018/0x010523A2) uses emote 10*
260: 0x0977 [0x99] Wait for Judith (ID: 17114018/0x010523A2) animation to complete
261: 0x097C [0x2B] Judith (ID: 17114018/0x010523A2) [8365*]:
     "You should seriously consider signing up for our dance troupe. All the men would fight tooth and nail just for a gander at a stunner like you on stage!"
262: 0x0983 [0x23] WAIT_FOR_DIALOG_INTERACTION
263: 0x0984 [0x52] END_LOAD_SCHEDULER: End scheduler "s004" with entities [LocalPlayer, LocalPlayer], work=406*
264: 0x0993 [0x45] LOAD_SCHEDULED_TASK: Load scheduler "s039" with entities [LocalPlayer, LocalPlayer], work=[406*, 0*]
265: 0x09A4 [0x6E] Raina (ID: 17114017/0x010523A1) uses emote 11*
266: 0x09AB [0x99] Wait for Raina (ID: 17114017/0x010523A1) animation to complete
267: 0x09B0 [0x2B] Raina (ID: 17114017/0x010523A1) [8366*]:
     "Hear, hear! Our dance troupe is the greatest. You get to travel to all sorts of exotic destinations, with board and lodging guaranteed! Win enough hearts, and a lucrative endorsement deal wouldn't be far-fetched, either!"
268: 0x09B7 [0x23] WAIT_FOR_DIALOG_INTERACTION
269: 0x09B8 [0x6F] WAIT_FRAME_DELAY: Yield until WaitTime reaches zero
270: 0x09B9 [0x76] CHECK_ENTITY_RENDER_FLAGS: Wait until Lilisette (ID: 17114015/0x0105239F) Render.Flags0 and Render.Flags3 conditions are met
271: 0x09BE [0x7B] Lilisette (ID: 17114015/0x0105239F) stops talking
272: 0x09C3 [0x52] END_LOAD_SCHEDULER: End scheduler "s039" with entities [LocalPlayer, LocalPlayer], work=406*
273: 0x09D2 [0x45] LOAD_SCHEDULED_TASK: Load scheduler "s005" with entities [LocalPlayer, LocalPlayer], work=[406*, 0*]
274: 0x09E3 [0x4A] Judith (ID: 17114018/0x010523A2) looks at Lilisette (ID: 17114015/0x0105239F)
275: 0x09EC [0x5B] LOAD_EXT_SCHEDULER: Load scheduler "kai0" with entities [Lilisette (ID: 17114015/0x0105239F), Lilisette (ID: 17114015/0x0105239F)], work=2240*
276: 0x09FB [0x03] Work_Zone[2] = 150*
277: 0x0A00 [0x27] REQ_SET(priority=0x10, entity_id=??? (ID: 17114030/0x010523AE), tag_num=0x01)
278: 0x0A07 [0x1C] WAIT(30* ticks)
279: 0x0A0A [0x79] Raina (ID: 17114017/0x010523A1) looks at Lilisette (ID: 17114015/0x0105239F) (Basic look)
280: 0x0A14 [0x4A] Judith (ID: 17114018/0x010523A2) looks at Lilisette (ID: 17114015/0x0105239F)
281: 0x0A1D [0x2B] Lilisette (ID: 17114015/0x0105239F) [8367*]:
     "H-hey, stop planting crazy ideas into <Player>'s head!"
282: 0x0A24 [0x23] WAIT_FOR_DIALOG_INTERACTION
283: 0x0A25 [0x52] END_LOAD_SCHEDULER: End scheduler "s005" with entities [LocalPlayer, LocalPlayer], work=406*

SUBROUTINE_0A34:
284: 0x0A34 [0x2A] GET_REQ_LEVEL(level=16, entity_id=??? (ID: 17114030/0x010523AE))
285: 0x0A3A [0x45] LOAD_SCHEDULED_TASK: Load scheduler "s007" with entities [LocalPlayer, LocalPlayer], work=[406*, 0*]
286: 0x0A4B [0x5B] LOAD_EXT_SCHEDULER: Load scheduler "kai1" with entities [Lilisette (ID: 17114015/0x0105239F), Lilisette (ID: 17114015/0x0105239F)], work=2240*
287: 0x0A5A [0x03] Work_Zone[2] = 300*
288: 0x0A5F [0x27] REQ_SET(priority=0x10, entity_id=??? (ID: 17114030/0x010523AE), tag_num=0x01)
289: 0x0A66 [0x2B] Lilisette (ID: 17114015/0x0105239F) [8368*]:
     "Hmph! I've suffered enough of your overactive imaginations for one day! I can handle the rest by myself, so get back to San d'Oria, the whole lot of you! Troupe dismissed!"
290: 0x0A6D [0x23] WAIT_FOR_DIALOG_INTERACTION
291: 0x0A6E [0x52] END_LOAD_SCHEDULER: End scheduler "s007" with entities [LocalPlayer, LocalPlayer], work=406*
292: 0x0A7D [0x45] LOAD_SCHEDULED_TASK: Load scheduler "s008" with entities [LocalPlayer, LocalPlayer], work=[406*, 0*]
293: 0x0A8E [0x6E] Raina (ID: 17114017/0x010523A1) uses emote 6*
294: 0x0A95 [0x99] Wait for Raina (ID: 17114017/0x010523A1) animation to complete
295: 0x0A9A [0x2B] Raina (ID: 17114017/0x010523A1) [8369*]:
     "Awww..."
296: 0x0AA1 [0x23] WAIT_FOR_DIALOG_INTERACTION
297: 0x0AA2 [0x52] END_LOAD_SCHEDULER: End scheduler "s008" with entities [LocalPlayer, LocalPlayer], work=406*
298: 0x0AB1 [0x45] LOAD_SCHEDULED_TASK: Load scheduler "s009" with entities [LocalPlayer, LocalPlayer], work=[406*, 0*]
299: 0x0AC2 [0x6E] Tanja (ID: 17114016/0x010523A0) uses emote 7*
300: 0x0AC9 [0x99] Wait for Tanja (ID: 17114016/0x010523A0) animation to complete
301: 0x0ACE [0x2B] Tanja (ID: 17114016/0x010523A0) [8370*]:
     "Well, we've been out here for too long as it is. Any longer, and the boss'll be screaming for the hides off our backs."
302: 0x0AD5 [0x23] WAIT_FOR_DIALOG_INTERACTION
303: 0x0AD6 [0x5B] LOAD_EXT_SCHEDULER: Load scheduler "yre0" with entities [Judith (ID: 17114018/0x010523A2), Judith (ID: 17114018/0x010523A2)], work=1253*
304: 0x0AE5 [0x2B] Judith (ID: 17114018/0x010523A2) [8371*]:
     "Agreed! A break from this catty obsession would do you a world of good, too, Lili."
305: 0x0AEC [0x23] WAIT_FOR_DIALOG_INTERACTION
306: 0x0AED [0x52] END_LOAD_SCHEDULER: End scheduler "s009" with entities [LocalPlayer, LocalPlayer], work=406*
307: 0x0AFC [0x2A] GET_REQ_LEVEL(level=16, entity_id=??? (ID: 17114030/0x010523AE))
308: 0x0B02 [0x45] LOAD_SCHEDULED_TASK: Load scheduler "s011" with entities [LocalPlayer, LocalPlayer], work=[406*, 0*]
309: 0x0B13 [0x27] REQ_SET(priority=0x0F, entity_id=Tanja (ID: 17114016/0x010523A0), tag_num=0x0B)
310: 0x0B1A [0x1C] WAIT(30* ticks)
311: 0x0B1D [0x27] REQ_SET(priority=0x0F, entity_id=Raina (ID: 17114017/0x010523A1), tag_num=0x09)
312: 0x0B24 [0x1C] WAIT(30* ticks)
313: 0x0B27 [0x27] REQ_SET(priority=0x0F, entity_id=Judith (ID: 17114018/0x010523A2), tag_num=0x09)
314: 0x0B2E [0x1C] WAIT(60* ticks)
315: 0x0B31 [0x55] WAIT_LOAD_SCHEDULER: Wait for scheduler "s011" with entities [LocalPlayer, LocalPlayer], work=406*
316: 0x0B40 [0x45] LOAD_SCHEDULED_TASK: Load scheduler "s012" with entities [LocalPlayer, LocalPlayer], work=[406*, 0*]
317: 0x0B51 [0x1C] WAIT(10* ticks)
318: 0x0B54 [0xBA] SET_ENTITY_POSITION(entity_id=Tanja (ID: 17114016/0x010523A0), pos_x=28.288*, pos_z=302.761*, pos_y=4.373*, direction=206.6*)
319: 0x0B61 [0xBA] SET_ENTITY_POSITION(entity_id=Raina (ID: 17114017/0x010523A1), pos_x=26.666*, pos_z=301.536*, pos_y=4.086*, direction=198.0*)
320: 0x0B6E [0xBA] SET_ENTITY_POSITION(entity_id=Judith (ID: 17114018/0x010523A2), pos_x=25.101*, pos_z=304.359*, pos_y=2.963*, direction=222.4*)
321: 0x0B7B [0x55] WAIT_LOAD_SCHEDULER: Wait for scheduler "s012" with entities [LocalPlayer, LocalPlayer], work=406*
322: 0x0B8A [0x27] REQ_SET(priority=0x0F, entity_id=Raina (ID: 17114017/0x010523A1), tag_num=0x0A)
323: 0x0B91 [0x27] REQ_SET(priority=0x0F, entity_id=Judith (ID: 17114018/0x010523A2), tag_num=0x0A)
324: 0x0B98 [0x1C] WAIT(30* ticks)
325: 0x0B9B [0x27] REQ_SET(priority=0x0F, entity_id=Raina (ID: 17114017/0x010523A1), tag_num=0x0A)
326: 0x0BA2 [0x45] LOAD_SCHEDULED_TASK: Load scheduler "s013" with entities [LocalPlayer, LocalPlayer], work=[406*, 0*]
327: 0x0BB3 [0x4A] Lilisette (ID: 17114015/0x0105239F) looks at Tanja (ID: 17114016/0x010523A0)
328: 0x0BBC [0x4A] LocalPlayer looks at Tanja (ID: 17114016/0x010523A0)
329: 0x0BC5 [0x4A] Tanja (ID: 17114016/0x010523A0) looks at Lilisette (ID: 17114015/0x0105239F)
330: 0x0BCE [0x7B] Lilisette (ID: 17114015/0x0105239F) stops talking
331: 0x0BD3 [0x6F] WAIT_FRAME_DELAY: Yield until WaitTime reaches zero
332: 0x0BD4 [0x76] CHECK_ENTITY_RENDER_FLAGS: Wait until Tanja (ID: 17114016/0x010523A0) Render.Flags0 and Render.Flags3 conditions are met
333: 0x0BD9 [0x2B] Tanja (ID: 17114016/0x010523A0) [8372*]:
     "And one more thing, before I forget. Don't you think using fish as bait to catch a cat is a wee bit...cliched?"
334: 0x0BE0 [0x23] WAIT_FOR_DIALOG_INTERACTION
335: 0x0BE1 [0x52] END_LOAD_SCHEDULER: End scheduler "s013" with entities [LocalPlayer, LocalPlayer], work=406*
336: 0x0BF0 [0x5B] LOAD_EXT_SCHEDULER: Load scheduler "kai0" with entities [Lilisette (ID: 17114015/0x0105239F), Lilisette (ID: 17114015/0x0105239F)], work=2240*
337: 0x0BFF [0x1C] WAIT(30* ticks)
338: 0x0C02 [0x45] LOAD_SCHEDULED_TASK: Load scheduler "s014" with entities [LocalPlayer, LocalPlayer], work=[406*, 0*]
339: 0x0C13 [0x2B] Lilisette (ID: 17114015/0x0105239F) [8373*]:
     "A-away with you!"
340: 0x0C1A [0x23] WAIT_FOR_DIALOG_INTERACTION
341: 0x0C1B [0x2A] GET_REQ_LEVEL(level=15, entity_id=Raina (ID: 17114017/0x010523A1))
342: 0x0C21 [0x2A] GET_REQ_LEVEL(level=15, entity_id=Judith (ID: 17114018/0x010523A2))
343: 0x0C27 [0x52] END_LOAD_SCHEDULER: End scheduler "s014" with entities [LocalPlayer, LocalPlayer], work=406*
344: 0x0C36 [0x45] LOAD_SCHEDULED_TASK: Load scheduler "s041" with entities [LocalPlayer, LocalPlayer], work=[406*, 0*]
345: 0x0C47 [0x27] REQ_SET(priority=0x0F, entity_id=Tanja (ID: 17114016/0x010523A0), tag_num=0x0D)
346: 0x0C4E [0x6E] Raina (ID: 17114017/0x010523A1) uses emote 8*
347: 0x0C55 [0x99] Wait for Raina (ID: 17114017/0x010523A1) animation to complete
348: 0x0C5A [0x6E] Judith (ID: 17114018/0x010523A2) uses emote 4*
349: 0x0C61 [0x99] Wait for Judith (ID: 17114018/0x010523A2) animation to complete
350: 0x0C66 [0x1C] WAIT(120* ticks)
351: 0x0C69 [0x27] REQ_SET(priority=0x0F, entity_id=Raina (ID: 17114017/0x010523A1), tag_num=0x0B)
352: 0x0C70 [0x1C] WAIT(60* ticks)
353: 0x0C73 [0x27] REQ_SET(priority=0x0F, entity_id=Judith (ID: 17114018/0x010523A2), tag_num=0x0B)
354: 0x0C7A [0x1C] WAIT(60* ticks)
355: 0x0C7D [0x52] END_LOAD_SCHEDULER: End scheduler "s041" with entities [LocalPlayer, LocalPlayer], work=406*
356: 0x0C8C [0x1A] CALL_SUBROUTINE(address=0x46FC)
357: 0x0C8F [0x1C] WAIT(30* ticks)
358: 0x0C92 [0x7A] VM_CONTROL: Reset VM for Tanja (ID: 17114016/0x010523A0)
359: 0x0C98 [0x7A] VM_CONTROL: Reset VM for Raina (ID: 17114017/0x010523A1)
360: 0x0C9E [0x7A] VM_CONTROL: Reset VM for Judith (ID: 17114018/0x010523A2)
361: 0x0CA4 [0x1C] WAIT(15* ticks)
362: 0x0CA7 [0x4E] SET_ENTITY_HIDE_FLAG: Hide Tanja (ID: 17114016/0x010523A0)
363: 0x0CAD [0x4E] SET_ENTITY_HIDE_FLAG: Hide Raina (ID: 17114017/0x010523A1)
364: 0x0CB3 [0x4E] SET_ENTITY_HIDE_FLAG: Hide Judith (ID: 17114018/0x010523A2)
365: 0x0CB9 [0x48] [System] [8544*]:
     ""
366: 0x0CBC [0x23] WAIT_FOR_DIALOG_INTERACTION
367: 0x0CBD [0xBA] SET_ENTITY_POSITION(entity_id=Lilisette (ID: 17114015/0x0105239F), pos_x=50.689*, pos_z=315.487*, pos_y=0.277*, direction=230.9*)
368: 0x0CCA [0x4A] LocalPlayer looks at Lilisette (ID: 17114015/0x0105239F)
369: 0x0CD3 [0x27] REQ_SET(priority=0x0F, entity_id=Lilisette (ID: 17114015/0x0105239F), tag_num=0x0C)
370: 0x0CDA [0x45] LOAD_SCHEDULED_TASK: Load scheduler "s015" with entities [LocalPlayer, LocalPlayer], work=[406*, 0*]
371: 0x0CEB [0x1A] CALL_SUBROUTINE(address=0x46DB)
372: 0x0CEE [0x2A] GET_REQ_LEVEL(level=15, entity_id=Lilisette (ID: 17114015/0x0105239F))
373: 0x0CF4 [0x4A] Lilisette (ID: 17114015/0x0105239F) looks at LocalPlayer
374: 0x0CFD [0x7B] Lilisette (ID: 17114015/0x0105239F) stops talking
375: 0x0D02 [0x6F] WAIT_FRAME_DELAY: Yield until WaitTime reaches zero
376: 0x0D03 [0x76] CHECK_ENTITY_RENDER_FLAGS: Wait until Lilisette (ID: 17114015/0x0105239F) Render.Flags0 and Render.Flags3 conditions are met
377: 0x0D08 [0x5B] LOAD_EXT_SCHEDULER: Load scheduler "no00" with entities [Lilisette (ID: 17114015/0x0105239F), Lilisette (ID: 17114015/0x0105239F)], work=2139*
378: 0x0D17 [0x2B] Lilisette (ID: 17114015/0x0105239F) [8374*]:
     "<Sigh>... <Player>, I trust it is still your intention to honor the promise you made?"
379: 0x0D1E [0x23] WAIT_FOR_DIALOG_INTERACTION
380: 0x0D1F [0x55] WAIT_LOAD_SCHEDULER: Wait for scheduler "s015" with entities [LocalPlayer, LocalPlayer], work=406*
381: 0x0D2E [0x45] LOAD_SCHEDULED_TASK: Load scheduler "s016" with entities [LocalPlayer, LocalPlayer], work=[406*, 0*]
382: 0x0D3F [0x27] REQ_SET(priority=0x0F, entity_id=Lilisette (ID: 17114015/0x0105239F), tag_num=0x0D)
383: 0x0D46 [0x2A] GET_REQ_LEVEL(level=15, entity_id=Lilisette (ID: 17114015/0x0105239F))
384: 0x0D4C [0x4A] LocalPlayer looks at Lilisette (ID: 17114015/0x0105239F)
385: 0x0D55 [0x5B] LOAD_EXT_SCHEDULER: Load scheduler "tld0" with entities [Lilisette (ID: 17114015/0x0105239F), Lilisette (ID: 17114015/0x0105239F)], work=2132*
386: 0x0D64 [0x2B] Lilisette (ID: 17114015/0x0105239F) [8375*]:
     "The promise to help me capture Cait Sith and save Sir Ragelise..."
387: 0x0D6B [0x23] WAIT_FOR_DIALOG_INTERACTION
388: 0x0D6C [0x5B] LOAD_EXT_SCHEDULER: Load scheduler "tld1" with entities [Lilisette (ID: 17114015/0x0105239F), Lilisette (ID: 17114015/0x0105239F)], work=2132*
389: 0x0D7B [0x52] END_LOAD_SCHEDULER: End scheduler "s016" with entities [LocalPlayer, LocalPlayer], work=406*
390: 0x0D8A [0x1C] WAIT(60* ticks)
391: 0x0D8D [0x45] LOAD_SCHEDULED_TASK: Load scheduler "s017" with entities [LocalPlayer, LocalPlayer], work=[406*, 0*]
392: 0x0D9E [0x4E] SET_ENTITY_HIDE_FLAG: Hide Unnamed NPC (ID: 17114019/0x010523A3)
393: 0x0DA4 [0x4A] Lilisette (ID: 17114015/0x0105239F) looks at LocalPlayer
394: 0x0DAD [0x6F] WAIT_FRAME_DELAY: Yield until WaitTime reaches zero
395: 0x0DAE [0x76] CHECK_ENTITY_RENDER_FLAGS: Wait until Lilisette (ID: 17114015/0x0105239F) Render.Flags0 and Render.Flags3 conditions are met
396: 0x0DB3 [0x5B] LOAD_EXT_SCHEDULER: Load scheduler "tle0" with entities [Lilisette (ID: 17114015/0x0105239F), Lilisette (ID: 17114015/0x0105239F)], work=2132*
397: 0x0DC2 [0x2B] Lilisette (ID: 17114015/0x0105239F) [8376*]:
     "After which, we make our long-awaited intercontinental debut as the professional tag-team duo, "Future Fabulous"?"
398: 0x0DC9 [0x23] WAIT_FOR_DIALOG_INTERACTION
399: 0x0DCA [0x24] CREATE_DIALOG(message_id=8377*, default_option=0*, option_flags=0*)
     "Will you honor your promise? [I surely will./Um, may I review the contract...?]"
400: 0x0DD1 [0x25] WAIT_DIALOG_SELECT()
401: 0x0DD2 [0x02] IF !(Work_Zone[0] == 0*) GOTO 0x0E32
402: 0x0DDA [0x5B] LOAD_EXT_SCHEDULER: Load scheduler "tle1" with entities [Lilisette (ID: 17114015/0x0105239F), Lilisette (ID: 17114015/0x0105239F)], work=2132*
403: 0x0DE9 [0x52] END_LOAD_SCHEDULER: End scheduler "s017" with entities [LocalPlayer, LocalPlayer], work=406*
404: 0x0DF8 [0x45] LOAD_SCHEDULED_TASK: Load scheduler "s018" with entities [LocalPlayer, LocalPlayer], work=[406*, 0*]
405: 0x0E09 [0x5B] LOAD_EXT_SCHEDULER: Load scheduler "hdb0" with entities [Lilisette (ID: 17114015/0x0105239F), Lilisette (ID: 17114015/0x0105239F)], work=2128*
406: 0x0E18 [0x2B] Lilisette (ID: 17114015/0x0105239F) [8378*]:
     "Great! I never doubted you for a second, <Player>! Now, with me! We're staking out that bumptious feline..."
407: 0x0E1F [0x23] WAIT_FOR_DIALOG_INTERACTION
408: 0x0E20 [0x52] END_LOAD_SCHEDULER: End scheduler "s018" with entities [LocalPlayer, LocalPlayer], work=406*
409: 0x0E2F [0x01] GOTO 0x0E9B
410: 0x0E32 [0x02] IF !(Work_Zone[0] == 1*) GOTO 0x0E9B
411: 0x0E3A [0x5B] LOAD_EXT_SCHEDULER: Load scheduler "tle1" with entities [Lilisette (ID: 17114015/0x0105239F), Lilisette (ID: 17114015/0x0105239F)], work=2132*
412: 0x0E49 [0x52] END_LOAD_SCHEDULER: End scheduler "s017" with entities [LocalPlayer, LocalPlayer], work=406*
413: 0x0E58 [0x45] LOAD_SCHEDULED_TASK: Load scheduler "s018" with entities [LocalPlayer, LocalPlayer], work=[406*, 0*]
414: 0x0E69 [0x5B] LOAD_EXT_SCHEDULER: Load scheduler "hdb0" with entities [Lilisette (ID: 17114015/0x0105239F), Lilisette (ID: 17114015/0x0105239F)], work=2128*
415: 0x0E78 [0x2B] Lilisette (ID: 17114015/0x0105239F) [8379*]:
     "Review what!? You've already given me your word, and that's the last I'll hear of it! Now, with me! We're staking out that bumptious feline..."
416: 0x0E7F [0x23] WAIT_FOR_DIALOG_INTERACTION
417: 0x0E80 [0x03] Work_Zone[1] = 21*
418: 0x0E85 [0x52] END_LOAD_SCHEDULER: End scheduler "s018" with entities [LocalPlayer, LocalPlayer], work=406*
419: 0x0E94 [0x43] SEND_EVENT_UPDATE: Send pending tag to server (packet 0x005B)
420: 0x0E96 [0x43] SEND_EVENT_UPDATE: Check pending flag (skip if not pending)
421: 0x0E98 [0x01] GOTO 0x0E9B

SUBROUTINE_0E9B:
422: 0x0E9B [0x1A] CALL_SUBROUTINE(address=0x46FC)
423: 0x0E9E [0x1C] WAIT(30* ticks)
424: 0x0EA1 [0x4E] SET_ENTITY_HIDE_FLAG: Show Unnamed NPC (ID: 17114019/0x010523A3)
425: 0x0EA7 [0xBA] SET_ENTITY_POSITION(entity_id=Lilisette (ID: 17114015/0x0105239F), pos_x=45.635*, pos_z=310.141*, pos_y=0.116*, direction=287.4*)
426: 0x0EB4 [0xBA] SET_ENTITY_POSITION(entity_id=LocalPlayer, pos_x=46.443*, pos_z=309.152*, pos_y=0.082*, direction=283.7*)
427: 0x0EC1 [0x7B] Lilisette (ID: 17114015/0x0105239F) stops talking
428: 0x0EC6 [0x79] LocalPlayer looks at LocalPlayer (Basic look)
429: 0x0ED0 [0x27] REQ_SET(priority=0x0F, entity_id=LocalPlayer, tag_num=0x09)
430: 0x0ED7 [0xC5] LOAD_SCHEDULED_TASK_ALT3: Load scheduler 0x80013030 for entities [Lilisette (ID: 17114015/0x0105239F), Lilisette (ID: 17114015/0x0105239F)], work=48*, param=12403
431: 0x0EE8 [0x81] SET_ENTITY_BLINKING(blink_flag=0x00, entity=Lilisette (ID: 17114015/0x0105239F))
432: 0x0EEE [0x5B] LOAD_EXT_SCHEDULER: Load scheduler "tre0" with entities [Lilisette (ID: 17114015/0x0105239F), Lilisette (ID: 17114015/0x0105239F)], work=2477*
433: 0x0EFD [0x48] [System] [8544*]:
     ""
434: 0x0F00 [0x23] WAIT_FOR_DIALOG_INTERACTION
435: 0x0F01 [0x45] LOAD_SCHEDULED_TASK: Load scheduler "s019" with entities [LocalPlayer, LocalPlayer], work=[406*, 0*]
436: 0x0F12 [0x1A] CALL_SUBROUTINE(address=0x46DB)
437: 0x0F15 [0x7C] Lilisette (ID: 17114015/0x0105239F)->Render.Flags2 |= 0x00
438: 0x0F1B [0xC5] LOAD_SCHEDULED_TASK_ALT3: Load scheduler 0x80013130 for entities [Unnamed NPC (ID: 17114019/0x010523A3), Unnamed NPC (ID: 17114019/0x010523A3)], work=26*, param=12403
439: 0x0F2C [0x55] WAIT_LOAD_SCHEDULER: Wait for scheduler "s019" with entities [LocalPlayer, LocalPlayer], work=406*
440: 0x0F3B [0x45] LOAD_SCHEDULED_TASK: Load scheduler "s020" with entities [LocalPlayer, LocalPlayer], work=[406*, 0*]
441: 0x0F4C [0x2B] Lilisette (ID: 17114015/0x0105239F) [8380*]:
     "..."
442: 0x0F53 [0x23] WAIT_FOR_DIALOG_INTERACTION
443: 0x0F54 [0x52] END_LOAD_SCHEDULER: End scheduler "s020" with entities [LocalPlayer, LocalPlayer], work=406*
444: 0x0F63 [0x45] LOAD_SCHEDULED_TASK: Load scheduler "s021" with entities [LocalPlayer, LocalPlayer], work=[406*, 0*]
445: 0x0F74 [0xC5] LOAD_SCHEDULED_TASK_ALT3: Load scheduler 0x80013130 for entities [Unnamed NPC (ID: 17114019/0x010523A3), Unnamed NPC (ID: 17114019/0x010523A3)], work=26*, param=12403
446: 0x0F85 [0x55] WAIT_LOAD_SCHEDULER: Wait for scheduler "s021" with entities [LocalPlayer, LocalPlayer], work=406*
447: 0x0F94 [0x45] LOAD_SCHEDULED_TASK: Load scheduler "s022" with entities [LocalPlayer, LocalPlayer], work=[406*, 0*]
448: 0x0FA5 [0x2B] Lilisette (ID: 17114015/0x0105239F) [8381*]:
     "......"
449: 0x0FAC [0x23] WAIT_FOR_DIALOG_INTERACTION
450: 0x0FAD [0x7C] Lilisette (ID: 17114015/0x0105239F)->Render.Flags2 |= 0x01
451: 0x0FB3 [0x2B] Lilisette (ID: 17114015/0x0105239F) [8382*]:
     "She's nowhere to be seen..."
452: 0x0FBA [0x23] WAIT_FOR_DIALOG_INTERACTION
453: 0x0FBB [0x52] END_LOAD_SCHEDULER: End scheduler "s022" with entities [LocalPlayer, LocalPlayer], work=406*
454: 0x0FCA [0x45] LOAD_SCHEDULED_TASK: Load scheduler "s023" with entities [LocalPlayer, LocalPlayer], work=[406*, 0*]
455: 0x0FDB [0x2B] Lilisette (ID: 17114015/0x0105239F) [8383*]:
     "Are we doing something wrong? Perhaps the bait is too...cliched, like Tanja suggested?"
456: 0x0FE2 [0x23] WAIT_FOR_DIALOG_INTERACTION
457: 0x0FE3 [0x52] END_LOAD_SCHEDULER: End scheduler "s023" with entities [LocalPlayer, LocalPlayer], work=406*
458: 0x0FF2 [0x45] LOAD_SCHEDULED_TASK: Load scheduler "s040" with entities [LocalPlayer, LocalPlayer], work=[406*, 0*]
459: 0x1003 [0x2B] Lilisette (ID: 17114015/0x0105239F) [8384*]:
     "<Player>, do you think we ought to try something different as bait?"
460: 0x100A [0x23] WAIT_FOR_DIALOG_INTERACTION
461: 0x100B [0x03] ExtData[1]->WorkLocal[0] = 0*

SUBROUTINE_1010:
462: 0x1010 [0x24] CREATE_DIALOG(message_id=8385*, default_option=0*, option_flags=ExtData[1]->WorkLocal[0])
     "Try a new bait? [It might be for the best./Cats love fish, right?]"
463: 0x1017 [0x25] WAIT_DIALOG_SELECT()
464: 0x1018 [0x02] IF !(Work_Zone[0] == 0*) GOTO 0x1069
465: 0x1020 [0x52] END_LOAD_SCHEDULER: End scheduler "s042" with entities [LocalPlayer, LocalPlayer], work=406*
466: 0x102F [0x45] LOAD_SCHEDULED_TASK: Load scheduler "s024" with entities [LocalPlayer, LocalPlayer], work=[406*, 0*]
467: 0x1040 [0x2B] Lilisette (ID: 17114015/0x0105239F) [8386*]:
     "Alright... But, what else would be worth trying?"
468: 0x1047 [0x23] WAIT_FOR_DIALOG_INTERACTION
469: 0x1048 [0x52] END_LOAD_SCHEDULER: End scheduler "s024" with entities [LocalPlayer, LocalPlayer], work=406*
470: 0x1057 [0x52] END_LOAD_SCHEDULER: End scheduler "s040" with entities [LocalPlayer, LocalPlayer], work=406*
471: 0x1066 [0x01] GOTO 0x10B5
472: 0x1069 [0x02] IF !(Work_Zone[0] == 1*) GOTO 0x10B5
473: 0x1071 [0x52] END_LOAD_SCHEDULER: End scheduler "s040" with entities [LocalPlayer, LocalPlayer], work=406*
474: 0x1080 [0x45] LOAD_SCHEDULED_TASK: Load scheduler "s042" with entities [LocalPlayer, LocalPlayer], work=[406*, 0*]
475: 0x1091 [0x2B] Lilisette (ID: 17114015/0x0105239F) [8387*]:
     "Naturally! Why did I ever doubt myself?"
476: 0x1098 [0x23] WAIT_FOR_DIALOG_INTERACTION
477: 0x1099 [0x2B] Lilisette (ID: 17114015/0x0105239F) [8388*]:
     "But still, that doesn't rule out the possibility that something more effective exists."
478: 0x10A0 [0x23] WAIT_FOR_DIALOG_INTERACTION
479: 0x10A1 [0x03] Work_Zone[1] = 22*
480: 0x10A6 [0x43] SEND_EVENT_UPDATE: Send pending tag to server (packet 0x005B)
481: 0x10A8 [0x43] SEND_EVENT_UPDATE: Check pending flag (skip if not pending)
482: 0x10AA [0x03] ExtData[1]->WorkLocal[0] = 2*
483: 0x10AF [0x01] GOTO 0x1010

SUBROUTINE_10B5:
484: 0x10B5 [0x45] LOAD_SCHEDULED_TASK: Load scheduler "s025" with entities [LocalPlayer, LocalPlayer], work=[406*, 0*]
485: 0x10C6 [0xC5] LOAD_SCHEDULED_TASK_ALT3: Load scheduler 0x80013130 for entities [Unnamed NPC (ID: 17114019/0x010523A3), Unnamed NPC (ID: 17114019/0x010523A3)], work=26*, param=12403
486: 0x10D7 [0x55] WAIT_LOAD_SCHEDULER: Wait for scheduler "s025" with entities [LocalPlayer, LocalPlayer], work=406*
487: 0x10E6 [0x1A] CALL_SUBROUTINE(address=0x46FC)
488: 0x10E9 [0x1C] WAIT(30* ticks)
489: 0x10EC [0x4E] SET_ENTITY_HIDE_FLAG: Show Cait Sith Aon (ID: 17114021/0x010523A5)
490: 0x10F2 [0x4E] SET_ENTITY_HIDE_FLAG: Hide Unnamed NPC (ID: 17114019/0x010523A3)
491: 0x10F8 [0x27] REQ_SET(priority=0x0F, entity_id=Cait Sith Aon (ID: 17114021/0x010523A5), tag_num=0x0B)
492: 0x10FF [0xBA] SET_ENTITY_POSITION(entity_id=Cait Sith Aon (ID: 17114021/0x010523A5), pos_x=45.519*, pos_z=319.189*, pos_y=-1.007*, direction=48.2*)
493: 0x110C [0xBA] SET_ENTITY_POSITION(entity_id=Lilisette (ID: 17114015/0x0105239F), pos_x=46.037*, pos_z=317.440*, pos_y=0.100*, direction=283.7*)
494: 0x1119 [0xBA] SET_ENTITY_POSITION(entity_id=LocalPlayer, pos_x=47.378*, pos_z=318.882*, pos_y=0.167*, direction=139.7*)
