# 17114037

## Common Data

| Field            | Value                      |
|------------------|----------------------------|
| Zone             | Jugner Forest [S] (ID: 82) |
| Block Size       | 5976 bytes                 |
| Total Events     | 3                          |
| References Count | 190                        |

## List of Events

| Event ID              | Entrypoint   |   Size |   Instructions |
|-----------------------|--------------|--------|----------------|
| [65535](#event-65535) | 0x0000       |      1 |              1 |
| [216](#event-216)     | 0x0001       |   1181 |            145 |
| [7](#event-7)         | 0x049E       |   4006 |            410 |

## DAT References (imed_data)

|   Index | Hex Value   |   Dec Value |
|---------|-------------|-------------|
|       0 | 0x0013      |          19 |
|       1 | 0x3CBBF     |      248767 |
|       2 | 0x7DADB     |      514779 |
|       3 | 0x000D      |          13 |
|       4 | 0x05B7      |        1463 |
|       5 | 0x3FDDB     |      261595 |
|       6 | 0x7B573     |      505203 |
|       7 | 0xFFFFF855  |  4294965333 |
|       8 | 0x3C994     |      248212 |
|       9 | 0x7D849     |      514121 |
|      10 | 0xFFFFFF7F  |  4294967167 |
|      11 | 0x0D8D      |        3469 |
|      12 | 0x01F6      |         502 |
|      13 | 0x0000      |           0 |
|      14 | 0x000F      |          15 |
|      15 | 0x001E      |          30 |
|      16 | 0x0078      |         120 |
|      17 | 0x3E14A     |      254282 |
|      18 | 0x7F16D     |      520557 |
|      19 | 0x0270      |         624 |
|      20 | 0x005A      |          90 |
|      21 | 0x002D      |          45 |
|      22 | 0x05A3      |        1443 |
|      23 | 0x1F37      |        7991 |
|      24 | 0x003C      |          60 |
|      25 | 0x1F38      |        7992 |
|      26 | 0x0438      |        1080 |
|      27 | 0x1F39      |        7993 |
|      28 | 0x1F3A      |        7994 |
|      29 | 0x0007      |           7 |
|      30 | 0x1F3B      |        7995 |
|      31 | 0x1F3C      |        7996 |
|      32 | 0x05A6      |        1446 |
|      33 | 0x1F3D      |        7997 |
|      34 | 0x1F3E      |        7998 |
|      35 | 0x0001      |           1 |
|      36 | 0x0002      |           2 |
|      37 | 0x0003      |           3 |
|      38 | 0x0004      |           4 |
|      39 | 0x0005      |           5 |
|      40 | 0x0006      |           6 |
|      41 | 0x0008      |           8 |
|      42 | 0x1F3F      |        7999 |
|      43 | 0x1F40      |        8000 |
|      44 | 0x1F41      |        8001 |
|      45 | 0x00C8      |         200 |
|      46 | 0xB9AF      |       47535 |
|      47 | 0x4BA2C     |      309804 |
|      48 | 0x0016      |          22 |
|      49 | 0x069C      |        1692 |
|      50 | 0x0228      |         552 |
|      51 | 0x0096      |         150 |
|      52 | 0xB44D      |       46157 |
|      53 | 0x4E9EC     |      322028 |
|      54 | 0x0162      |         354 |
|      55 | 0x0304      |         772 |
|      56 | 0xBB5B      |       47963 |
|      57 | 0x4E2FD     |      320253 |
|      58 | 0x00CC      |         204 |
|      59 | 0x03C2      |         962 |
|      60 | 0x35D8A     |      220554 |
|      61 | 0x0DC9      |        3529 |
|      62 | 0x04A7      |        1191 |
|      63 | 0xB303      |       45827 |
|      64 | 0x4D71E     |      317214 |
|      65 | 0x0303      |         771 |
|      66 | 0xB72F      |       46895 |
|      67 | 0x4D249     |      315977 |
|      68 | 0x008D      |         141 |
|      69 | 0xBE36      |       48694 |
|      70 | 0x4D04B     |      315467 |
|      71 | 0x00AB      |         171 |
|      72 | 0xC522      |       50466 |
|      73 | 0x4D229     |      315945 |
|      74 | 0x0137      |         311 |
|      75 | 0xC917      |       51479 |
|      76 | 0x4D61D     |      316957 |
|      77 | 0x0173      |         371 |
|      78 | 0xCC2E      |       52270 |
|      79 | 0x4DB2A     |      318250 |
|      80 | 0x019A      |         410 |
|      81 | 0xCC3D      |       52285 |
|      82 | 0x4E0A7     |      319655 |
|      83 | 0x019B      |         411 |
|      84 | 0xB158      |       45400 |
|      85 | 0x4DF43     |      319299 |
|      86 | 0xFFFFFC7D  |  4294966397 |
|      87 | 0x000C      |          12 |
|      88 | 0x0857      |        2135 |
|      89 | 0x08C8      |        2248 |
|      90 | 0x09A4      |        2468 |
|      91 | 0x0081      |         129 |
|      92 | 0x0585      |        1413 |
|      93 | 0x018C      |         396 |
|      94 | 0x00B4      |         180 |
|      95 | 0x00F0      |         240 |
|      96 | 0x08C9      |        2249 |
|      97 | 0x09A5      |        2469 |
|      98 | 0x002B      |          43 |
|      99 | 0x006E      |         110 |
|     100 | 0x012C      |         300 |
|     101 | 0x008C      |         140 |
|     102 | 0x0050      |          80 |
|     103 | 0x000A      |          10 |
|     104 | 0xB7F7      |       47095 |
|     105 | 0x4DC3B     |      318523 |
|     106 | 0x0099      |         153 |
|     107 | 0x0D7D      |        3453 |
|     108 | 0xBE4F      |       48719 |
|     109 | 0x4D666     |      317030 |
|     110 | 0x00EA      |         234 |
|     111 | 0x09C0      |        2496 |
|     112 | 0xB7F2      |       47090 |
|     113 | 0x4D214     |      315924 |
|     114 | 0x0093      |         147 |
|     115 | 0x0C0E      |        3086 |
|     116 | 0xBE73      |       48755 |
|     117 | 0x4CEA8     |      315048 |
|     118 | 0x0089      |         137 |
|     119 | 0x0ACF      |        2767 |
|     120 | 0xB0CB      |       45259 |
|     121 | 0x4D7D0     |      317392 |
|     122 | 0x003D      |          61 |
|     123 | 0x01CB      |         459 |
|     124 | 0x0030      |          48 |
|     125 | 0x0855      |        2133 |
|     126 | 0x000B      |          11 |
|     127 | 0x0833      |        2099 |
|     128 | 0x09A8      |        2472 |
|     129 | 0x0584      |        1412 |
|     130 | 0xA426      |       42022 |
|     131 | 0x4E271     |      320113 |
|     132 | 0x0400      |        1024 |
|     133 | 0xA070      |       41072 |
|     134 | 0x4E051     |      319569 |
|     135 | 0x0315      |         789 |
|     136 | 0xA7FE      |       43006 |
|     137 | 0x4D7E1     |      317409 |
|     138 | 0xFFFFFFB9  |  4294967225 |
|     139 | 0x0800      |        2048 |
|     140 | 0xA05B      |       41051 |
|     141 | 0x4D7F5     |      317429 |
|     142 | 0x0E00      |        3584 |
|     143 | 0xA404      |       41988 |
|     144 | 0x4D59C     |      316828 |
|     145 | 0x0C00      |        3072 |
|     146 | 0x9B96      |       39830 |
|     147 | 0x4DA6B     |      318059 |
|     148 | 0x0F8F      |        3983 |
|     149 | 0x99A4      |       39332 |
|     150 | 0x4DEB4     |      319156 |
|     151 | 0xFFFFFC18  |  4294966296 |
|     152 | 0x0042      |          66 |
|     153 | 0xAD1C      |       44316 |
|     154 | 0x4DAA0     |      318112 |
|     155 | 0xFFFFFF6F  |  4294967151 |
|     156 | 0x0836      |        2102 |
|     157 | 0xAE37      |       44599 |
|     158 | 0x4E047     |      319559 |
|     159 | 0xFFFFF9C0  |  4294965696 |
|     160 | 0x071D      |        1821 |
|     161 | 0x9C8A      |       40074 |
|     162 | 0x4EF3C     |      323388 |
|     163 | 0x01A1      |         417 |
|     164 | 0x0BFA      |        3066 |
|     165 | 0xD961      |       55649 |
|     166 | 0x4A415     |      304149 |
|     167 | 0xFFFFFCA9  |  4294966441 |
|     168 | 0x0A62      |        2658 |
|     169 | 0x09A9      |        2473 |
|     170 | 0x09AF      |        2479 |
|     171 | 0x088B      |        2187 |
|     172 | 0x083B      |        2107 |
|     173 | 0xD6C8      |       54984 |
|     174 | 0x49F6B     |      302955 |
|     175 | 0xFFFFFDDA  |  4294966746 |
|     176 | 0x0A69      |        2665 |
|     177 | 0xBE0D      |       48653 |
|     178 | 0x4E165     |      319845 |
|     179 | 0x08FC      |        2300 |
|     180 | 0xBBB9      |       48057 |
|     181 | 0x4E15F     |      319839 |
|     182 | 0x00AE      |         174 |
|     183 | 0x0973      |        2419 |
|     184 | 0x09A3      |        2467 |
|     185 | 0x021C      |         540 |
|     186 | 0x0025      |          37 |
|     187 | 0x0864      |        2148 |
|     188 | 0x00C9      |         201 |
|     189 | 0x00D7      |         215 |

## Events

### Event 65535

#### Metadata

| Field        | Value   |
|--------------|---------|
| Entrypoint   | 0x0000  |
| Data Size    | 1 bytes |
| Instructions | 1       |

```
      00 01 02 03 04 05 06 07  08 09 0A 0B 0C 0D 0E 0F
      -- -- -- -- -- -- -- --  -- -- -- -- -- -- -- --
0000: 00                                                .               
```

#### Opcodes

```
  0: 0x0000 [0x00] END_REQSTACK()
```

### Event 216

#### Metadata

| Field        | Value      |
|--------------|------------|
| Entrypoint   | 0x0001     |
| Data Size    | 1181 bytes |
| Instructions | 145        |

```
      00 01 02 03 04 05 06 07  08 09 0A 0B 0C 0D 0E 0F
      -- -- -- -- -- -- -- --  -- -- -- -- -- -- -- --
0000:    42 1A 16 12 46 01 38  00 80 4E 00 F0 FF FF 7F   B...F.8..N.....
0010: 27 10 B6 23 05 01 04 27  10 B7 23 05 01 04 92 01  '..#...'..#.....
0020: B6 23 05 01 92 01 B7 23  05 01 94 01 F0 FF FF 7F  .#.....#........
0030: 94 01 B6 23 05 01 94 01  B7 23 05 01 BA F0 FF FF  ...#.....#......
0040: 7F 01 80 02 80 03 80 04  80 BA B6 23 05 01 05 80  ...........#....
0050: 06 80 07 80 04 80 BA B7  23 05 01 08 80 09 80 0A  ........#.......
0060: 80 0B 80 80 F0 FF FF 7F  80 B6 23 05 01 80 B7 23  ..........#....#
0070: 05 01 81 00 B6 23 05 01  45 0C 80 F0 FF FF 7F F0  .....#..E.......
0080: FF FF 7F 73 30 33 61 0D  80 1C 0E 80 1A F5 11 27  ...s03a........'
0090: 10 F0 FF FF 7F 09 2A 10  F0 FF FF 7F 1C 0F 80 2C  ......*........,
00A0: B7 23 05 01 B7 23 05 01  6F 70 65 32 1C 10 80 27  .#...#..ope2...'
00B0: 10 F0 FF FF 7F 0A 2A 10  F0 FF FF 7F BA B6 23 05  ......*.......#.
00C0: 01 11 80 12 80 13 80 04  80 52 0C 80 F0 FF FF 7F  .........R......
00D0: F0 FF FF 7F 73 30 33 61  45 0C 80 F0 FF FF 7F F0  ....s03aE.......
00E0: FF FF 7F 73 30 33 62 0D  80 27 10 B6 23 05 01 0A  ...s03b..'..#...
00F0: 1C 14 80 4A F0 FF FF 7F  B6 23 05 01 1C 10 80 52  ...J.....#.....R
0100: 0C 80 F0 FF FF 7F F0 FF  FF 7F 73 30 33 62 45 0C  ..........s03bE.
0110: 80 F0 FF FF 7F F0 FF FF  7F 73 30 33 63 0D 80 2A  .........s03c..*
0120: 10 B6 23 05 01 4A B6 23  05 01 F0 FF FF 7F 4A F0  ..#..J.#......J.
0130: FF FF 7F B6 23 05 01 1C  15 80 5B 16 80 B6 23 05  ....#.....[...#.
0140: 01 B6 23 05 01 74 6C 61  30 2B B6 23 05 01 17 80  ..#..tla0+.#....
0150: 1C 18 80 23 5B 16 80 B6  23 05 01 B6 23 05 01 74  ...#[...#...#..t
0160: 6C 61 31 2B B6 23 05 01  19 80 1C 18 80 23 52 0C  la1+.#.......#R.
0170: 80 F0 FF FF 7F F0 FF FF  7F 73 30 33 63 45 0C 80  .........s03cE..
0180: F0 FF FF 7F F0 FF FF 7F  73 30 33 64 0D 80 5B 16  ........s03d..[.
0190: 80 B6 23 05 01 B6 23 05  01 74 6C 62 30 03 02 10  ..#...#..tlb0...
01A0: 1A 80 2B B6 23 05 01 1B  80 1C 18 80 23 5B 16 80  ..+.#.......#[..
01B0: B6 23 05 01 B6 23 05 01  74 6C 62 31 2B B6 23 05  .#...#..tlb1+.#.
01C0: 01 1C 80 23 6E F0 FF FF  7F 1D 80 99 F0 FF FF 7F  ...#n...........
01D0: 1C 14 80 52 0C 80 F0 FF  FF 7F F0 FF FF 7F 73 30  ...R..........s0
01E0: 33 64 45 0C 80 F0 FF FF  7F F0 FF FF 7F 73 30 33  3dE..........s03
01F0: 65 0D 80 27 10 B6 23 05  01 09 1C 14 80 2A 10 B6  e..'..#......*..
0200: 23 05 01 4A F0 FF FF 7F  B6 23 05 01 03 02 10 1A  #..J.....#......
0210: 80 2B B6 23 05 01 1E 80  1C 14 80 23 52 0C 80 F0  .+.#.......#R...
0220: FF FF 7F F0 FF FF 7F 73  30 33 65 45 0C 80 F0 FF  .......s03eE....
0230: FF 7F F0 FF FF 7F 73 30  33 66 0D 80 2B B6 23 05  ......s03f..+.#.
0240: 01 1F 80 23 4A B6 23 05  01 F0 FF FF 7F 5B 20 80  ...#J.#......[ .
0250: B6 23 05 01 B6 23 05 01  74 68 62 31 2B B6 23 05  .#...#..thb1+.#.
0260: 01 21 80 1C 14 80 23 52  0C 80 F0 FF FF 7F F0 FF  .!....#R........
0270: FF 7F 73 30 33 66 45 0C  80 F0 FF FF 7F F0 FF FF  ..s03fE.........
0280: 7F 73 30 33 67 0D 80 1C  15 80 27 10 B6 23 05 01  .s03g.....'..#..
0290: 0B 2B B6 23 05 01 22 80  2A 10 B6 23 05 01 1C 10  .+.#..".*..#....
02A0: 80 23 52 0C 80 F0 FF FF  7F F0 FF FF 7F 73 30 33  .#R..........s03
02B0: 67 29 10 F0 FF FF 7F 0F  02 02 10 23 80 80 D4 02  g).........#....
02C0: 45 0C 80 F0 FF FF 7F F0  FF FF 7F 33 68 6D 31 0D  E..........3hm1.
02D0: 80 01 98 03 02 02 10 24  80 80 F0 02 45 0C 80 F0  .......$....E...
02E0: FF FF 7F F0 FF FF 7F 33  68 66 31 0D 80 01 98 03  .......3hf1.....
02F0: 02 02 10 25 80 80 0C 03  45 0C 80 F0 FF FF 7F F0  ...%....E.......
0300: FF FF 7F 33 65 6D 31 0D  80 01 98 03 02 02 10 26  ...3em1........&
0310: 80 80 28 03 45 0C 80 F0  FF FF 7F F0 FF FF 7F 33  ..(.E..........3
0320: 65 66 31 0D 80 01 98 03  02 02 10 27 80 80 44 03  ef1........'..D.
0330: 45 0C 80 F0 FF FF 7F F0  FF FF 7F 33 74 72 31 0D  E..........3tr1.
0340: 80 01 98 03 02 02 10 28  80 80 60 03 45 0C 80 F0  .......(..`.E...
0350: FF FF 7F F0 FF FF 7F 33  74 72 31 0D 80 01 98 03  .......3tr1.....
0360: 02 02 10 1D 80 80 7C 03  45 0C 80 F0 FF FF 7F F0  ......|.E.......
0370: FF FF 7F 33 6D 74 31 0D  80 01 98 03 02 02 10 29  ...3mt1........)
0380: 80 80 98 03 45 0C 80 F0  FF FF 7F F0 FF FF 7F 33  ....E..........3
0390: 67 6C 31 0D 80 01 98 03  03 02 10 1A 80 2B B6 23  gl1..........+.#
03A0: 05 01 2A 80 1C 10 80 23  52 0C 80 F0 FF FF 7F F0  ..*....#R.......
03B0: FF FF 7F 33 68 6D 31 52  0C 80 F0 FF FF 7F F0 FF  ...3hm1R........
03C0: FF 7F 33 68 66 31 52 0C  80 F0 FF FF 7F F0 FF FF  ..3hf1R.........
03D0: 7F 33 65 6D 31 52 0C 80  F0 FF FF 7F F0 FF FF 7F  .3em1R..........
03E0: 33 65 66 31 52 0C 80 F0  FF FF 7F F0 FF FF 7F 33  3ef1R..........3
03F0: 74 72 31 52 0C 80 F0 FF  FF 7F F0 FF FF 7F 33 6D  tr1R..........3m
0400: 74 31 52 0C 80 F0 FF FF  7F F0 FF FF 7F 33 67 6C  t1R..........3gl
0410: 31 52 0C 80 F0 FF FF 7F  F0 FF FF 7F 73 30 33 68  1R..........s03h
0420: 45 0C 80 F0 FF FF 7F F0  FF FF 7F 73 30 33 69 0D  E..........s03i.
0430: 80 5B 16 80 B6 23 05 01  B6 23 05 01 74 6C 62 31  .[...#...#..tlb1
0440: 2B B6 23 05 01 2B 80 1C  14 80 23 66 16 80 B6 23  +.#..+....#f...#
0450: 05 01 B6 23 05 01 74 6C  61 30 2B B6 23 05 01 2C  ...#..tla0+.#..,
0460: 80 1C 18 80 23 66 16 80  B6 23 05 01 B6 23 05 01  ....#f...#...#..
0470: 74 6C 61 31 1A 16 12 1C  0F 80 52 0C 80 F0 FF FF  tla1......R.....
0480: 7F F0 FF FF 7F 73 30 33  69 46 00 45 2D 80 F0 FF  .....s03iF.E-...
0490: FF 7F F0 FF FF 7F 66 64  69 32 0D 80 21 00        ......fdi2..!.  
```

#### Opcodes

```
  0: 0x0001 [0x42] SET_CLI_EVENT_CANCEL_DATA()
  1: 0x0002 [0x1A] CALL_SUBROUTINE(address=0x1216)
  2: 0x0005 [0x46] CAMERA_CONTROL: Disable user control
  3: 0x0007 [0x38] SET_CLIENT_EVENT_MODE(mode=19*)
  4: 0x000A [0x4E] SET_ENTITY_HIDE_FLAG: Show LocalPlayer
  5: 0x0010 [0x27] REQ_SET(priority=0x10, entity_id=Lehko Habhoka (ID: 17114038/0x010523B6), tag_num=0x04)
  6: 0x0017 [0x27] REQ_SET(priority=0x10, entity_id=Unnamed NPC (ID: 17114039/0x010523B7), tag_num=0x04)
  7: 0x001E [0x92] Lehko Habhoka (ID: 17114038/0x010523B6)->Render.Flags3 ^= 0x01
  8: 0x0024 [0x92] Unnamed NPC (ID: 17114039/0x010523B7)->Render.Flags3 ^= 0x01
  9: 0x002A [0x94] LocalPlayer->Render.Flags3 ^= 0x01
 10: 0x0030 [0x94] Lehko Habhoka (ID: 17114038/0x010523B6)->Render.Flags3 ^= 0x01
 11: 0x0036 [0x94] Unnamed NPC (ID: 17114039/0x010523B7)->Render.Flags3 ^= 0x01
 12: 0x003C [0xBA] SET_ENTITY_POSITION(entity_id=LocalPlayer, pos_x=248.767*, pos_z=514.779*, pos_y=0.013*, direction=128.6°*)
 13: 0x0049 [0xBA] SET_ENTITY_POSITION(entity_id=Lehko Habhoka (ID: 17114038/0x010523B6), pos_x=261.595*, pos_z=505.203*, pos_y=-1.963*, direction=128.6°*)
 14: 0x0056 [0xBA] SET_ENTITY_POSITION(entity_id=Unnamed NPC (ID: 17114039/0x010523B7), pos_x=248.212*, pos_z=514.121*, pos_y=-0.129*, direction=304.9°*)
 15: 0x0063 [0x80] LOAD_WAIT(entity=LocalPlayer)
 16: 0x0068 [0x80] LOAD_WAIT(entity=Lehko Habhoka (ID: 17114038/0x010523B6))
 17: 0x006D [0x80] LOAD_WAIT(entity=Unnamed NPC (ID: 17114039/0x010523B7))
 18: 0x0072 [0x81] SET_ENTITY_BLINKING(blink_flag=0x00, entity=Lehko Habhoka (ID: 17114038/0x010523B6))
 19: 0x0078 [0x45] LOAD_SCHEDULED_TASK: Load scheduler "s03a" with entities [LocalPlayer, LocalPlayer], work=[502*, 0*]
 20: 0x0089 [0x1C] WAIT(15* ticks)
 21: 0x008C [0x1A] CALL_SUBROUTINE(address=0x11F5)
 22: 0x008F [0x27] REQ_SET(priority=0x10, entity_id=LocalPlayer, tag_num=0x09)
 23: 0x0096 [0x2A] GET_REQ_LEVEL(level=16, entity_id=LocalPlayer)
 24: 0x009C [0x1C] WAIT(30* ticks)
 25: 0x009F [0x2C] CREATE_SCHEDULER_TASK: Create scheduler "ope2" with entities [Unnamed NPC (ID: 17114039/0x010523B7), Unnamed NPC (ID: 17114039/0x010523B7)]
 26: 0x00AC [0x1C] WAIT(120* ticks)
 27: 0x00AF [0x27] REQ_SET(priority=0x10, entity_id=LocalPlayer, tag_num=0x0A)
 28: 0x00B6 [0x2A] GET_REQ_LEVEL(level=16, entity_id=LocalPlayer)
 29: 0x00BC [0xBA] SET_ENTITY_POSITION(entity_id=Lehko Habhoka (ID: 17114038/0x010523B6), pos_x=254.282*, pos_z=520.557*, pos_y=0.624*, direction=128.6°*)
 30: 0x00C9 [0x52] END_LOAD_SCHEDULER: End scheduler "s03a" with entities [LocalPlayer, LocalPlayer], work=502*
 31: 0x00D8 [0x45] LOAD_SCHEDULED_TASK: Load scheduler "s03b" with entities [LocalPlayer, LocalPlayer], work=[502*, 0*]
 32: 0x00E9 [0x27] REQ_SET(priority=0x10, entity_id=Lehko Habhoka (ID: 17114038/0x010523B6), tag_num=0x0A)
 33: 0x00F0 [0x1C] WAIT(90* ticks)
 34: 0x00F3 [0x4A] LocalPlayer looks at Lehko Habhoka (ID: 17114038/0x010523B6)
 35: 0x00FC [0x1C] WAIT(120* ticks)
 36: 0x00FF [0x52] END_LOAD_SCHEDULER: End scheduler "s03b" with entities [LocalPlayer, LocalPlayer], work=502*
 37: 0x010E [0x45] LOAD_SCHEDULED_TASK: Load scheduler "s03c" with entities [LocalPlayer, LocalPlayer], work=[502*, 0*]
 38: 0x011F [0x2A] GET_REQ_LEVEL(level=16, entity_id=Lehko Habhoka (ID: 17114038/0x010523B6))
 39: 0x0125 [0x4A] Lehko Habhoka (ID: 17114038/0x010523B6) looks at LocalPlayer
 40: 0x012E [0x4A] LocalPlayer looks at Lehko Habhoka (ID: 17114038/0x010523B6)
 41: 0x0137 [0x1C] WAIT(45* ticks)
 42: 0x013A [0x5B] LOAD_EXT_SCHEDULER: Load scheduler "tla0" with entities [Lehko Habhoka (ID: 17114038/0x010523B6), Lehko Habhoka (ID: 17114038/0x010523B6)], work=1443*
 43: 0x0149 [0x2B] Lehko Habhoka (ID: 17114038/0x010523B6) [7991*]:
    → "Looks like we've got the ingredients we came for, <Player>. Now, all we need to do is spice them up a bit...and we'll have a dish that'll be the hit of the party!"
 44: 0x0150 [0x1C] WAIT(60* ticks)
 45: 0x0153 [0x23] WAIT_FOR_DIALOG_INTERACTION
 46: 0x0154 [0x5B] LOAD_EXT_SCHEDULER: Load scheduler "tla1" with entities [Lehko Habhoka (ID: 17114038/0x010523B6), Lehko Habhoka (ID: 17114038/0x010523B6)], work=1443*
 47: 0x0163 [0x2B] Lehko Habhoka (ID: 17114038/0x010523B6) [7992*]:
    → "I've heard of these stones being used in the making of particularly potent enchanted arrowheads. Let me take care of them. I've got a friend in the Windurst Boneworkers' Guild who owes me a favorrr or two."
 48: 0x016A [0x1C] WAIT(60* ticks)
 49: 0x016D [0x23] WAIT_FOR_DIALOG_INTERACTION
 50: 0x016E [0x52] END_LOAD_SCHEDULER: End scheduler "s03c" with entities [LocalPlayer, LocalPlayer], work=502*
 51: 0x017D [0x45] LOAD_SCHEDULED_TASK: Load scheduler "s03d" with entities [LocalPlayer, LocalPlayer], work=[502*, 0*]
 52: 0x018E [0x5B] LOAD_EXT_SCHEDULER: Load scheduler "tlb0" with entities [Lehko Habhoka (ID: 17114038/0x010523B6), Lehko Habhoka (ID: 17114038/0x010523B6)], work=1443*
 53: 0x019D [0x03] Work_Zone[2] = 1080*
 54: 0x01A2 [0x2B] Lehko Habhoka (ID: 17114038/0x010523B6) [7993*]:
    → "As for the cinders... If my memorrry serves, these are used in the casting of what we call $5."
 55: 0x01A9 [0x1C] WAIT(60* ticks)
 56: 0x01AC [0x23] WAIT_FOR_DIALOG_INTERACTION
 57: 0x01AD [0x5B] LOAD_EXT_SCHEDULER: Load scheduler "tlb1" with entities [Lehko Habhoka (ID: 17114038/0x010523B6), Lehko Habhoka (ID: 17114038/0x010523B6)], work=1443*
 58: 0x01BC [0x2B] Lehko Habhoka (ID: 17114038/0x010523B6) [7994*]:
    → "I'll leave them to you. We'll give those beastmen a welcome they won't soon forget."
 59: 0x01C3 [0x23] WAIT_FOR_DIALOG_INTERACTION
 60: 0x01C4 [0x6E] LocalPlayer uses emote 7*
 61: 0x01CB [0x99] Wait for LocalPlayer animation to complete
 62: 0x01D0 [0x1C] WAIT(90* ticks)
 63: 0x01D3 [0x52] END_LOAD_SCHEDULER: End scheduler "s03d" with entities [LocalPlayer, LocalPlayer], work=502*
 64: 0x01E2 [0x45] LOAD_SCHEDULED_TASK: Load scheduler "s03e" with entities [LocalPlayer, LocalPlayer], work=[502*, 0*]
 65: 0x01F3 [0x27] REQ_SET(priority=0x10, entity_id=Lehko Habhoka (ID: 17114038/0x010523B6), tag_num=0x09)
 66: 0x01FA [0x1C] WAIT(90* ticks)
 67: 0x01FD [0x2A] GET_REQ_LEVEL(level=16, entity_id=Lehko Habhoka (ID: 17114038/0x010523B6))
 68: 0x0203 [0x4A] LocalPlayer looks at Lehko Habhoka (ID: 17114038/0x010523B6)
 69: 0x020C [0x03] Work_Zone[2] = 1080*
 70: 0x0211 [0x2B] Lehko Habhoka (ID: 17114038/0x010523B6) [7995*]:
    → "Now, the only place I rrrecall that could handle an order for $5 is the Gunpowder Room in Bastok."
 71: 0x0218 [0x1C] WAIT(90* ticks)
 72: 0x021B [0x23] WAIT_FOR_DIALOG_INTERACTION
 73: 0x021C [0x52] END_LOAD_SCHEDULER: End scheduler "s03e" with entities [LocalPlayer, LocalPlayer], work=502*
 74: 0x022B [0x45] LOAD_SCHEDULED_TASK: Load scheduler "s03f" with entities [LocalPlayer, LocalPlayer], work=[502*, 0*]
 75: 0x023C [0x2B] Lehko Habhoka (ID: 17114038/0x010523B6) [7996*]:
    → "But they've sealed their gates tight to outsiders ever since the war began..."
 76: 0x0243 [0x23] WAIT_FOR_DIALOG_INTERACTION
 77: 0x0244 [0x4A] Lehko Habhoka (ID: 17114038/0x010523B6) looks at LocalPlayer
 78: 0x024D [0x5B] LOAD_EXT_SCHEDULER: Load scheduler "thb1" with entities [Lehko Habhoka (ID: 17114038/0x010523B6), Lehko Habhoka (ID: 17114038/0x010523B6)], work=1446*
 79: 0x025C [0x2B] Lehko Habhoka (ID: 17114038/0x010523B6) [7997*]:
    → "If we were to go there now, we'd be turrrned away without a second thought."
 80: 0x0263 [0x1C] WAIT(90* ticks)
 81: 0x0266 [0x23] WAIT_FOR_DIALOG_INTERACTION
 82: 0x0267 [0x52] END_LOAD_SCHEDULER: End scheduler "s03f" with entities [LocalPlayer, LocalPlayer], work=502*
 83: 0x0276 [0x45] LOAD_SCHEDULED_TASK: Load scheduler "s03g" with entities [LocalPlayer, LocalPlayer], work=[502*, 0*]
 84: 0x0287 [0x1C] WAIT(45* ticks)
 85: 0x028A [0x27] REQ_SET(priority=0x10, entity_id=Lehko Habhoka (ID: 17114038/0x010523B6), tag_num=0x0B)
 86: 0x0291 [0x2B] Lehko Habhoka (ID: 17114038/0x010523B6) [7998*]:
    → "But you already know what I'm thinking...don't you, <Player>?"
 87: 0x0298 [0x2A] GET_REQ_LEVEL(level=16, entity_id=Lehko Habhoka (ID: 17114038/0x010523B6))
 88: 0x029E [0x1C] WAIT(120* ticks)
 89: 0x02A1 [0x23] WAIT_FOR_DIALOG_INTERACTION
 90: 0x02A2 [0x52] END_LOAD_SCHEDULER: End scheduler "s03g" with entities [LocalPlayer, LocalPlayer], work=502*
 91: 0x02B1 [0x29] REQ_SET_WAIT(priority=0x10, entity_id=LocalPlayer, tag_num=0x0F)
 92: 0x02B8 [0x02] IF !(Work_Zone[2] == 1*) GOTO 0x02D4
 93: 0x02C0 [0x45] LOAD_SCHEDULED_TASK: Load scheduler "3hm1" with entities [LocalPlayer, LocalPlayer], work=[502*, 0*]
 94: 0x02D1 [0x01] GOTO 0x0398
 95: 0x02D4 [0x02] IF !(Work_Zone[2] == 2*) GOTO 0x02F0
 96: 0x02DC [0x45] LOAD_SCHEDULED_TASK: Load scheduler "3hf1" with entities [LocalPlayer, LocalPlayer], work=[502*, 0*]
 97: 0x02ED [0x01] GOTO 0x0398
 98: 0x02F0 [0x02] IF !(Work_Zone[2] == 3*) GOTO 0x030C
 99: 0x02F8 [0x45] LOAD_SCHEDULED_TASK: Load scheduler "3em1" with entities [LocalPlayer, LocalPlayer], work=[502*, 0*]
100: 0x0309 [0x01] GOTO 0x0398
101: 0x030C [0x02] IF !(Work_Zone[2] == 4*) GOTO 0x0328
102: 0x0314 [0x45] LOAD_SCHEDULED_TASK: Load scheduler "3ef1" with entities [LocalPlayer, LocalPlayer], work=[502*, 0*]
103: 0x0325 [0x01] GOTO 0x0398
104: 0x0328 [0x02] IF !(Work_Zone[2] == 5*) GOTO 0x0344
105: 0x0330 [0x45] LOAD_SCHEDULED_TASK: Load scheduler "3tr1" with entities [LocalPlayer, LocalPlayer], work=[502*, 0*]
106: 0x0341 [0x01] GOTO 0x0398
107: 0x0344 [0x02] IF !(Work_Zone[2] == 6*) GOTO 0x0360
108: 0x034C [0x45] LOAD_SCHEDULED_TASK: Load scheduler "3tr1" with entities [LocalPlayer, LocalPlayer], work=[502*, 0*]
109: 0x035D [0x01] GOTO 0x0398
110: 0x0360 [0x02] IF !(Work_Zone[2] == 7*) GOTO 0x037C
111: 0x0368 [0x45] LOAD_SCHEDULED_TASK: Load scheduler "3mt1" with entities [LocalPlayer, LocalPlayer], work=[502*, 0*]
112: 0x0379 [0x01] GOTO 0x0398
113: 0x037C [0x02] IF !(Work_Zone[2] == 8*) GOTO 0x0398
114: 0x0384 [0x45] LOAD_SCHEDULED_TASK: Load scheduler "3gl1" with entities [LocalPlayer, LocalPlayer], work=[502*, 0*]
115: 0x0395 [0x01] GOTO 0x0398

SUBROUTINE_0398:
116: 0x0398 [0x03] Work_Zone[2] = 1080*
117: 0x039D [0x2B] Lehko Habhoka (ID: 17114038/0x010523B6) [7999*]:
    → "It's time for you to help us, in the way that only you can..."
118: 0x03A4 [0x1C] WAIT(120* ticks)
119: 0x03A7 [0x23] WAIT_FOR_DIALOG_INTERACTION
120: 0x03A8 [0x52] END_LOAD_SCHEDULER: End scheduler "3hm1" with entities [LocalPlayer, LocalPlayer], work=502*
121: 0x03B7 [0x52] END_LOAD_SCHEDULER: End scheduler "3hf1" with entities [LocalPlayer, LocalPlayer], work=502*
122: 0x03C6 [0x52] END_LOAD_SCHEDULER: End scheduler "3em1" with entities [LocalPlayer, LocalPlayer], work=502*
123: 0x03D5 [0x52] END_LOAD_SCHEDULER: End scheduler "3ef1" with entities [LocalPlayer, LocalPlayer], work=502*
124: 0x03E4 [0x52] END_LOAD_SCHEDULER: End scheduler "3tr1" with entities [LocalPlayer, LocalPlayer], work=502*
125: 0x03F3 [0x52] END_LOAD_SCHEDULER: End scheduler "3mt1" with entities [LocalPlayer, LocalPlayer], work=502*
126: 0x0402 [0x52] END_LOAD_SCHEDULER: End scheduler "3gl1" with entities [LocalPlayer, LocalPlayer], work=502*
127: 0x0411 [0x52] END_LOAD_SCHEDULER: End scheduler "s03h" with entities [LocalPlayer, LocalPlayer], work=502*
128: 0x0420 [0x45] LOAD_SCHEDULED_TASK: Load scheduler "s03i" with entities [LocalPlayer, LocalPlayer], work=[502*, 0*]
129: 0x0431 [0x5B] LOAD_EXT_SCHEDULER: Load scheduler "tlb1" with entities [Lehko Habhoka (ID: 17114038/0x010523B6), Lehko Habhoka (ID: 17114038/0x010523B6)], work=1443*
130: 0x0440 [0x2B] Lehko Habhoka (ID: 17114038/0x010523B6) [8000*]:
    → "We'll be waiting for you at Fort Karugo-Narugo. And do hurry...our guests are unlikely to have qualms about arriving early."
131: 0x0447 [0x1C] WAIT(90* ticks)
132: 0x044A [0x23] WAIT_FOR_DIALOG_INTERACTION
133: 0x044B [0x66] LOAD_EXT_SCHEDULER_MAIN: Load scheduler "tla0" with entities [Lehko Habhoka (ID: 17114038/0x010523B6), Lehko Habhoka (ID: 17114038/0x010523B6)], work=1443*
134: 0x045A [0x2B] Lehko Habhoka (ID: 17114038/0x010523B6) [8001*]:
    → "May the Goddess protect you!"
135: 0x0461 [0x1C] WAIT(60* ticks)
136: 0x0464 [0x23] WAIT_FOR_DIALOG_INTERACTION
137: 0x0465 [0x66] LOAD_EXT_SCHEDULER_MAIN: Load scheduler "tla1" with entities [Lehko Habhoka (ID: 17114038/0x010523B6), Lehko Habhoka (ID: 17114038/0x010523B6)], work=1443*
138: 0x0474 [0x1A] CALL_SUBROUTINE(address=0x1216)
139: 0x0477 [0x1C] WAIT(30* ticks)
140: 0x047A [0x52] END_LOAD_SCHEDULER: End scheduler "s03i" with entities [LocalPlayer, LocalPlayer], work=502*
141: 0x0489 [0x46] CAMERA_CONTROL: Restore default settings
142: 0x048B [0x45] LOAD_SCHEDULED_TASK: Load scheduler "fdi2" with entities [LocalPlayer, LocalPlayer], work=[200*, 0*]
143: 0x049C [0x21] END_EVENT
144: 0x049D [0x00] END_REQSTACK()
```

### Event 7

#### Metadata

| Field        | Value      |
|--------------|------------|
| Entrypoint   | 0x049E     |
| Data Size    | 4006 bytes |
| Instructions | 361        |

```
      00 01 02 03 04 05 06 07  08 09 0A 0B 0C 0D 0E 0F
      -- -- -- -- -- -- -- --  -- -- -- -- -- -- -- --
0490:                                            42 1A                B.
04A0: 16 12 46 01 38 00 80 27  10 A0 23 05 01 04 27 10  ..F.8..'..#...'.
04B0: A1 23 05 01 04 27 10 A2  23 05 01 04 27 10 9F 23  .#...'..#...'..#
04C0: 05 01 04 27 10 A9 23 05  01 04 27 10 A4 23 05 01  ...'..#...'..#..
04D0: 04 27 10 A5 23 05 01 04  27 10 A6 23 05 01 02 27  .'..#...'..#...'
04E0: 10 A7 23 05 01 02 27 10  A8 23 05 01 02 27 10 AA  ..#...'..#...'..
04F0: 23 05 01 02 27 10 AB 23  05 01 02 27 10 AC 23 05  #...'..#...'..#.
0500: 01 02 27 10 AD 23 05 01  02 4E 00 B8 23 05 01 2F  ..'..#...N..#../
0510: 00 AF 23 05 01 4E 00 AF  23 05 01 2F 00 AE 23 05  ..#..N..#../..#.
0520: 01 4E 00 AE 23 05 01 92  01 9F 23 05 01 92 01 A0  .N..#.....#.....
0530: 23 05 01 92 01 A1 23 05  01 92 01 A2 23 05 01 92  #.....#.....#...
0540: 01 A5 23 05 01 92 01 A5  23 05 01 92 01 A6 23 05  ..#.....#.....#.
0550: 01 92 01 A7 23 05 01 92  01 A8 23 05 01 92 01 A9  ....#.....#.....
0560: 23 05 01 92 01 AA 23 05  01 92 01 AB 23 05 01 92  #.....#.....#...
0570: 01 AC 23 05 01 92 01 AD  23 05 01 92 01 A4 23 05  ..#.....#.....#.
0580: 01 94 01 F0 FF FF 7F 94  01 9F 23 05 01 94 01 A4  ..........#.....
0590: 23 05 01 94 01 A5 23 05  01 94 01 A6 23 05 01 94  #.....#.....#...
05A0: 01 A7 23 05 01 94 01 A8  23 05 01 94 01 A9 23 05  ..#.....#.....#.
05B0: 01 94 01 AA 23 05 01 94  01 AB 23 05 01 94 01 AC  ....#.....#.....
05C0: 23 05 01 94 01 AD 23 05  01 94 01 AF 23 05 01 BA  #.....#.....#...
05D0: F0 FF FF 7F 2E 80 2F 80  30 80 31 80 80 F0 FF FF  ....../.0.1.....
05E0: 7F 80 9F 23 05 01 80 A4  23 05 01 80 A5 23 05 01  ...#....#....#..
05F0: 80 A6 23 05 01 80 A7 23  05 01 80 A8 23 05 01 80  ..#....#....#...
0600: A9 23 05 01 80 AA 23 05  01 80 AB 23 05 01 80 AC  .#....#....#....
0610: 23 05 01 80 AD 23 05 01  80 AF 23 05 01 80 B8 23  #....#....#....#
0620: 05 01 79 00 F0 FF FF 7F  B8 23 05 01 1C 0F 80 45  ..y......#.....E
0630: 32 80 F0 FF FF 7F F0 FF  FF 7F 30 30 30 32 0D 80  2.........0002..
0640: 1A F5 11 1C 0F 80 1C 33  80 5D 0D 80 14 80 1A 58  .......3.].....X
0650: 12 4E 01 B8 23 05 01 BA  F0 FF FF 7F 34 80 35 80  .N..#.......4.5.
0660: 36 80 37 80 BA 9F 23 05  01 38 80 39 80 3A 80 3B  6.7...#..8.9.:.;
0670: 80 BA A9 23 05 01 38 80  39 80 3A 80 3B 80 BA A4  ...#..8.9.:.;...
0680: 23 05 01 3C 80 3D 80 0D  80 3E 80 BA A5 23 05 01  #..<.=...>...#..
0690: 3F 80 40 80 14 80 41 80  BA A6 23 05 01 42 80 43  ?.@...A...#..B.C
06A0: 80 44 80 41 80 BA AB 23  05 01 45 80 46 80 47 80  .D.A...#..E.F.G.
06B0: 41 80 BA A8 23 05 01 48  80 49 80 4A 80 41 80 BA  A...#..H.I.J.A..
06C0: AA 23 05 01 4B 80 4C 80  4D 80 41 80 BA AC 23 05  .#..K.L.M.A...#.
06D0: 01 4E 80 4F 80 50 80 41  80 BA A7 23 05 01 51 80  .N.O.P.A...#..Q.
06E0: 52 80 53 80 37 80 59 05  AD 23 05 01 01 BA AD 23  R.S.7.Y..#.....#
06F0: 05 01 54 80 55 80 56 80  37 80 77 57 80 23 80 1C  ..T.U.V.7.wW.#..
0700: 0F 80 AB 09 1C 18 80 79  00 F0 FF FF 7F A9 23 05  .......y......#.
0710: 01 81 00 9F 23 05 01 81  00 A9 23 05 01 5B 58 80  ....#.....#..[X.
0720: 9F 23 05 01 9F 23 05 01  66 63 30 31 5B 59 80 9F  .#...#..fc01[Y..
0730: 23 05 01 9F 23 05 01 67  65 6C 32 5B 5A 80 A9 23  #...#..gel2[Z..#
0740: 05 01 A9 23 05 01 67 65  6C 32 4A A5 23 05 01 9F  ...#..gel2J.#...
0750: 23 05 01 4A A6 23 05 01  9F 23 05 01 4A A7 23 05  #..J.#...#..J.#.
0760: 01 9F 23 05 01 4A A8 23  05 01 9F 23 05 01 4A AA  ..#..J.#...#..J.
0770: 23 05 01 9F 23 05 01 4A  AB 23 05 01 9F 23 05 01  #...#..J.#...#..
0780: 4A AC 23 05 01 9F 23 05  01 4A AD 23 05 01 9F 23  J.#...#..J.#...#
0790: 05 01 1C 10 80 5C 00 5B  80 5C 01 5B 80 5C 02 5B  .....\.[.\.[.\.[
07A0: 80 5C 03 5B 80 9A 6A 0D  80 14 80 29 80 5B 5C 80  .\.[..j....).[\.
07B0: AD 23 05 01 AD 23 05 01  63 6F 6E 30 52 32 80 F0  .#...#..con0R2..
07C0: FF FF 7F F0 FF FF 7F 30  30 30 32 45 5D 80 F0 FF  .......0002E]...
07D0: FF 7F F0 FF FF 7F 6B 61  69 6E 0D 80 45 5D 80 F0  ......kain..E]..
07E0: FF FF 7F F0 FF FF 7F 33  34 32 33 0D 80 1A 37 12  .......3423...7.
07F0: 1C 5E 80 52 5D 80 F0 FF  FF 7F F0 FF FF 7F 33 34  .^.R].........34
0800: 32 33 45 5D 80 F0 FF FF  7F F0 FF FF 7F 33 34 33  23E].........343
0810: 33 0D 80 1C 14 80 5B 59  80 9F 23 05 01 9F 23 05  3.....[Y..#...#.
0820: 01 67 65 74 33 5B 5A 80  A9 23 05 01 A9 23 05 01  .get3[Z..#...#..
0830: 67 65 74 33 1C 5F 80 52  5D 80 F0 FF FF 7F F0 FF  get3._.R].......
0840: FF 7F 33 34 33 33 45 5D  80 F0 FF FF 7F F0 FF FF  ..3433E]........
0850: 7F 33 34 33 34 0D 80 1C  14 80 52 5D 80 F0 FF FF  .3434.....R]....
0860: 7F F0 FF FF 7F 33 34 33  34 45 5D 80 F0 FF FF 7F  .....3434E].....
0870: F0 FF FF 7F 33 34 33 35  0D 80 5B 59 80 9F 23 05  ....3435..[Y..#.
0880: 01 9F 23 05 01 67 65 74  31 5B 5A 80 A9 23 05 01  ..#..get1[Z..#..
0890: A9 23 05 01 67 65 74 31  1C 33 80 4E 00 A5 23 05  .#..get1.3.N..#.
08A0: 01 52 5D 80 F0 FF FF 7F  F0 FF FF 7F 33 34 33 35  .R].........3435
08B0: 45 5D 80 F0 FF FF 7F F0  FF FF 7F 33 34 33 36 0D  E].........3436.
08C0: 80 1C 0F 80 5B 58 80 9F  23 05 01 9F 23 05 01 66  ....[X..#...#..f
08D0: 66 30 31 5B 60 80 9F 23  05 01 9F 23 05 01 75 77  f01[`..#...#..uw
08E0: 61 30 5B 61 80 A9 23 05  01 A9 23 05 01 75 77 61  a0[a..#...#..uwa
08F0: 30 C5 62 80 A5 23 05 01  A5 23 05 01 73 74 30 31  0.b..#...#..st01
0900: 0D 80 1C 18 80 C5 62 80  A5 23 05 01 A5 23 05 01  ......b..#...#..
0910: 73 74 30 32 0D 80 1C 63  80 52 5D 80 F0 FF FF 7F  st02...c.R].....
0920: F0 FF FF 7F 33 34 33 36  45 5D 80 F0 FF FF 7F F0  ....3436E]......
0930: FF FF 7F 6E 79 61 30 0D  80 27 10 AF 23 05 01 08  ...nya0..'..#...
0940: 1C 64 80 52 5D 80 F0 FF  FF 7F F0 FF FF 7F 6E 79  .d.R].........ny
0950: 61 30 45 5D 80 F0 FF FF  7F F0 FF FF 7F 6E 79 61  a0E].........nya
0960: 33 0D 80 27 10 AF 23 05  01 04 27 10 AE 23 05 01  3..'..#...'..#..
0970: 05 1C 65 80 52 5D 80 F0  FF FF 7F F0 FF FF 7F 6E  ..e.R].........n
0980: 79 61 33 45 5D 80 F0 FF  FF 7F F0 FF FF 7F 6E 79  ya3E].........ny
0990: 61 36 0D 80 1C 66 80 5B  61 80 A7 23 05 01 A7 23  a6...f.[a..#...#
09A0: 05 01 73 65 6E 30 1C 67  80 52 5D 80 F0 FF FF 7F  ..sen0.g.R].....
09B0: F0 FF FF 7F 6E 79 61 36  45 5D 80 F0 FF FF 7F F0  ....nya6E]......
09C0: FF FF 7F 6E 79 61 35 0D  80 1C 14 80 52 5D 80 F0  ...nya5.....R]..
09D0: FF FF 7F F0 FF FF 7F 6E  79 61 35 45 5D 80 F0 FF  .......nya5E]...
09E0: FF 7F F0 FF FF 7F 33 34  33 38 0D 80 1C 0F 80 6B  ......3438.....k
09F0: 69 64 6C 30 A5 23 05 01  6B 69 64 6C 30 A6 23 05  idl0.#..kidl0.#.
0A00: 01 6B 69 64 6C 30 A7 23  05 01 6B 69 64 6C 30 A8  .kidl0.#..kidl0.
0A10: 23 05 01 6B 69 64 6C 30  AA 23 05 01 6B 69 64 6C  #..kidl0.#..kidl
0A20: 30 AB 23 05 01 6B 69 64  6C 30 AC 23 05 01 BA F0  0.#..kidl0.#....
0A30: FF FF 7F 68 80 69 80 6A  80 6B 80 BA 9F 23 05 01  ...h.i.j.k...#..
0A40: 6C 80 6D 80 6E 80 6F 80  BA A0 23 05 01 70 80 71  l.m.n.o...#..p.q
0A50: 80 72 80 73 80 BA A1 23  05 01 74 80 75 80 76 80  .r.s...#..t.u.v.
0A60: 77 80 BA A2 23 05 01 78  80 79 80 7A 80 7B 80 BA  w...#..x.y.z.{..
0A70: AC 23 05 01 0D 80 0D 80  0D 80 0D 80 BA A6 23 05  .#............#.
0A80: 01 0D 80 0D 80 0D 80 0D  80 BA A8 23 05 01 0D 80  ...........#....
0A90: 0D 80 0D 80 0D 80 BA A7  23 05 01 0D 80 0D 80 0D  ........#.......
0AA0: 80 0D 80 BA AB 23 05 01  0D 80 0D 80 0D 80 0D 80  .....#..........
0AB0: BA AA 23 05 01 0D 80 0D  80 0D 80 0D 80 BA A5 23  ..#............#
0AC0: 05 01 0D 80 0D 80 0D 80  0D 80 BA A9 23 05 01 0D  ............#...
0AD0: 80 0D 80 0D 80 0D 80 4A  A0 23 05 01 F0 FF FF 7F  .......J.#......
0AE0: 4A A1 23 05 01 F0 FF FF  7F 4A A2 23 05 01 F0 FF  J.#......J.#....
0AF0: FF 7F 7B A2 23 05 01 79  00 F0 FF FF 7F F0 FF FF  ..{.#..y........
0B00: 7F C5 7C 80 A2 23 05 01  A2 23 05 01 73 30 30 30  ..|..#...#..s000
0B10: 0D 80 C5 7C 80 9F 23 05  01 9F 23 05 01 73 30 30  ...|..#...#..s00
0B20: 30 0D 80 C5 7C 80 A2 23  05 01 A2 23 05 01 6B 69  0...|..#...#..ki
0B30: 6C 31 0D 80 C5 7C 80 9F  23 05 01 9F 23 05 01 6B  l1...|..#...#..k
0B40: 69 6C 31 0D 80 C5 7C 80  9F 23 05 01 9F 23 05 01  il1...|..#...#..
0B50: 6B 69 6C 32 0D 80 5B 58  80 9F 23 05 01 9F 23 05  kil2..[X..#...#.
0B60: 01 66 30 30 30 5B 7D 80  9F 23 05 01 9F 23 05 01  .f000[}..#...#..
0B70: 74 68 62 30 1C 10 80 52  5D 80 F0 FF FF 7F F0 FF  thb0...R].......
0B80: FF 7F 33 34 33 38 45 5D  80 F0 FF FF 7F F0 FF FF  ..3438E]........
0B90: 7F 73 30 30 32 0D 80 6E  A2 23 05 01 7E 80 99 A2  .s002..n.#..~...
0BA0: 23 05 01 BA AD 23 05 01  0D 80 0D 80 0D 80 0D 80  #....#..........
0BB0: 1C 10 80 52 5D 80 F0 FF  FF 7F F0 FF FF 7F 73 30  ...R].........s0
0BC0: 30 32 45 5D 80 F0 FF FF  7F F0 FF FF 7F 73 30 30  02E].........s00
0BD0: 36 0D 80 6E A1 23 05 01  30 80 99 A1 23 05 01 1C  6..n.#..0...#...
0BE0: 0F 80 5B 7F 80 AC 23 05  01 AC 23 05 01 63 6F 6E  ..[...#...#..con
0BF0: 39 5B 5C 80 A6 23 05 01  A6 23 05 01 63 6F 6E 32  9[\..#...#..con2
0C00: 5B 5C 80 A8 23 05 01 A8  23 05 01 63 6F 6E 31 5B  [\..#...#..con1[
0C10: 5C 80 A7 23 05 01 A7 23  05 01 63 6F 6E 33 5B 5C  \..#...#..con3[\
0C20: 80 AB 23 05 01 AB 23 05  01 63 6F 6E 34 5B 5C 80  ..#...#..con4[\.
0C30: A5 23 05 01 A5 23 05 01  63 6F 6E 35 5B 80 80 AA  .#...#..con5[...
0C40: 23 05 01 AA 23 05 01 73  69 61 30 5B 81 80 A9 23  #...#..sia0[...#
0C50: 05 01 A9 23 05 01 75 64  65 6C 59 05 A5 23 05 01  ...#..udelY..#..
0C60: 01 1C 14 80 52 5D 80 F0  FF FF 7F F0 FF FF 7F 73  ....R].........s
0C70: 30 30 36 45 5D 80 F0 FF  FF 7F F0 FF FF 7F 73 30  006E].........s0
0C80: 30 39 0D 80 6E A0 23 05  01 1D 80 99 A0 23 05 01  09..n.#......#..
0C90: 1C 10 80 52 5D 80 F0 FF  FF 7F F0 FF FF 7F 73 30  ...R].........s0
0CA0: 30 39 45 5D 80 F0 FF FF  7F F0 FF FF 7F 6F 76 61  09E].........ova
0CB0: 72 0D 80 45 5D 80 F0 FF  FF 7F F0 FF FF 7F 33 34  r..E].........34
0CC0: 36 35 0D 80 BA AC 23 05  01 82 80 83 80 0D 80 84  65....#.........
0CD0: 80 BA A6 23 05 01 85 80  86 80 0D 80 87 80 BA A8  ...#............
0CE0: 23 05 01 88 80 89 80 8A  80 8B 80 BA A7 23 05 01  #............#..
0CF0: 8C 80 8D 80 8A 80 8E 80  BA AB 23 05 01 8F 80 90  ..........#.....
0D00: 80 0D 80 91 80 BA AA 23  05 01 92 80 93 80 0D 80  .......#........
0D10: 94 80 BA A5 23 05 01 95  80 96 80 97 80 98 80 BA  ....#...........
0D20: A9 23 05 01 99 80 9A 80  9B 80 9C 80 BA AD 23 05  .#............#.
0D30: 01 9D 80 9E 80 9F 80 A0  80 BA F0 FF FF 7F A1 80  ................
0D40: A2 80 A3 80 A4 80 BA 9F  23 05 01 A5 80 A6 80 A7  ........#.......
0D50: 80 A8 80 BA A0 23 05 01  0D 80 0D 80 0D 80 0D 80  .....#..........
0D60: BA A1 23 05 01 0D 80 0D  80 0D 80 0D 80 BA A2 23  ..#............#
0D70: 05 01 0D 80 0D 80 0D 80  0D 80 4A A2 23 05 01 F0  ..........J.#...
0D80: FF FF 7F 27 10 A5 23 05  01 0C 27 10 F0 FF FF 7F  ...'..#...'.....
0D90: 07 C5 7C 80 9F 23 05 01  9F 23 05 01 6B 69 6C 61  ..|..#...#..kila
0DA0: 0D 80 5B A9 80 AD 23 05  01 AD 23 05 01 74 6C 30  ..[...#...#..tl0
0DB0: 30 5B 58 80 9F 23 05 01  9F 23 05 01 66 30 30 30  0[X..#...#..f000
0DC0: 5B AA 80 9F 23 05 01 9F  23 05 01 61 6B 69 30 1C  [...#...#..aki0.
0DD0: 10 80 52 5D 80 F0 FF FF  7F F0 FF FF 7F 33 34 36  ..R].........346
0DE0: 35 45 5D 80 F0 FF FF 7F  F0 FF FF 7F 33 34 35 33  5E].........3453
0DF0: 0D 80 5B 5C 80 A7 23 05  01 A7 23 05 01 74 6C 33  ..[\..#...#..tl3
0E00: 30 1C 10 80 52 5D 80 F0  FF FF 7F F0 FF FF 7F 33  0...R].........3
0E10: 34 35 33 45 5D 80 F0 FF  FF 7F F0 FF FF 7F 33 34  453E].........34
0E20: 35 34 0D 80 5B 5C 80 A7  23 05 01 A7 23 05 01 74  54..[\..#...#..t
0E30: 6C 33 31 1C 10 80 52 5D  80 F0 FF FF 7F F0 FF FF  l31...R]........
0E40: 7F 33 34 35 34 45 5D 80  F0 FF FF 7F F0 FF FF 7F  .3454E].........
0E50: 33 34 37 33 0D 80 5B A9  80 AD 23 05 01 AD 23 05  3473..[...#...#.
0E60: 01 74 6C 30 31 BA A4 23  05 01 82 80 83 80 0D 80  .tl01..#........
0E70: 84 80 5B AB 80 A4 23 05  01 A4 23 05 01 63 61 74  ..[...#...#..cat
0E80: 30 5B AC 80 AC 23 05 01  AC 23 05 01 6B 79 72 30  0[...#...#..kyr0
0E90: 7A 00 A5 23 05 01 1C 10  80 52 5D 80 F0 FF FF 7F  z..#.....R].....
0EA0: F0 FF FF 7F 33 34 37 33  45 5D 80 F0 FF FF 7F F0  ....3473E]......
0EB0: FF FF 7F 33 34 38 38 0D  80 1C 33 80 52 5D 80 F0  ...3488...3.R]..
0EC0: FF FF 7F F0 FF FF 7F 33  34 38 38 45 5D 80 F0 FF  .......3488E]...
0ED0: FF 7F F0 FF FF 7F 33 34  30 37 0D 80 1C 10 80 BA  ......3407......
0EE0: F0 FF FF 7F AD 80 AE 80  AF 80 B0 80 BA A9 23 05  ..............#.
0EF0: 01 B1 80 B2 80 3A 80 B3  80 BA AE 23 05 01 B4 80  .....:.....#....
0F00: B5 80 B6 80 B7 80 BA A5  23 05 01 0D 80 0D 80 0D  ........#.......
0F10: 80 0D 80 BA A6 23 05 01  0D 80 0D 80 0D 80 0D 80  .....#..........
0F20: BA AB 23 05 01 0D 80 0D  80 0D 80 0D 80 BA A8 23  ..#............#
0F30: 05 01 0D 80 0D 80 0D 80  0D 80 BA AA 23 05 01 0D  ............#...
0F40: 80 0D 80 0D 80 0D 80 BA  AC 23 05 01 0D 80 0D 80  .........#......
0F50: 0D 80 0D 80 BA A7 23 05  01 0D 80 0D 80 0D 80 0D  ......#.........
0F60: 80 BA AD 23 05 01 0D 80  0D 80 0D 80 0D 80 BA A4  ...#............
0F70: 23 05 01 0D 80 0D 80 0D  80 0D 80 4A A9 23 05 01  #..........J.#..
0F80: AE 23 05 01 7C 00 9F 23  05 01 5B AA 80 9F 23 05  .#..|..#..[...#.
0F90: 01 9F 23 05 01 6B 77 61  30 52 5D 80 F0 FF FF 7F  ..#..kwa0R].....
0FA0: F0 FF FF 7F 33 34 30 37  45 5D 80 F0 FF FF 7F F0  ....3407E]......
0FB0: FF FF 7F 33 34 30 38 0D  80 1C 18 80 5B B8 80 A9  ...3408.....[...
0FC0: 23 05 01 A9 23 05 01 74  72 70 30 C5 0F 80 AE 23  #...#..trp0....#
0FD0: 05 01 AE 23 05 01 6D 61  69 6E 0D 80 1C 27 80 52  ...#..main...'.R
0FE0: 5D 80 F0 FF FF 7F F0 FF  FF 7F 33 34 30 39 45 5D  ].........3409E]
0FF0: 80 F0 FF FF 7F F0 FF FF  7F 33 34 31 30 0D 80 81  .........3410...
1000: 00 A9 23 05 01 03 02 10  B9 80 27 10 AE 23 05 01  ..#.......'..#..
1010: 01 1C 10 80 52 5D 80 F0  FF FF 7F F0 FF FF 7F 33  ....R].........3
1020: 34 31 30 45 5D 80 F0 FF  FF 7F F0 FF FF 7F 33 34  410E].........34
1030: 31 31 0D 80 1C 10 80 1C  64 80 52 5D 80 F0 FF FF  11......d.R]....
1040: 7F F0 FF FF 7F 33 34 31  31 45 5D 80 F0 FF FF 7F  .....3411E].....
1050: F0 FF FF 7F 33 34 31 34  0D 80 C5 BA 80 A9 23 05  ....3414......#.
1060: 01 A9 23 05 01 73 30 30  30 0D 80 1C 18 80 6B 69  ..#..s000.....ki
1070: 64 6C 30 9F 23 05 01 1C  18 80 27 10 AF 23 05 01  dl0.#.....'..#..
1080: 06 1C 14 80 6B 69 64 6C  30 F0 FF FF 7F 5B BB 80  ....kidl0....[..
1090: 9F 23 05 01 9F 23 05 01  70 75 6C 33 1C 27 80 52  .#...#..pul3.'.R
10A0: 5D 80 F0 FF FF 7F F0 FF  FF 7F 33 34 31 34 45 5D  ].........3414E]
10B0: 80 F0 FF FF 7F F0 FF FF  7F 33 34 31 36 0D 80 1C  .........3416...
10C0: 15 80 27 10 AE 23 05 01  04 1C 14 80 5D 0D 80 10  ..'..#......]...
10D0: 80 1A 58 12 1C 0F 80 6B  69 64 6C 30 9F 23 05 01  ..X....kidl0.#..
10E0: BA AE 23 05 01 0D 80 0D  80 0D 80 0D 80 BA 9F 23  ..#............#
10F0: 05 01 0D 80 0D 80 0D 80  0D 80 BA A9 23 05 01 0D  ............#...
1100: 80 0D 80 0D 80 0D 80 C5  0F 80 AE 23 05 01 AE 23  ...........#...#
1110: 05 01 6B 69 6C 6C 0D 80  C5 BA 80 A9 23 05 01 A9  ..kill......#...
1120: 23 05 01 6B 69 6C 30 0D  80 78 1C 0E 80 AB 0A 1C  #..kil0..x......
1130: 10 80 4E 00 B8 23 05 01  1C 18 80 BA F0 FF FF 7F  ..N..#..........
1140: 2E 80 2F 80 30 80 31 80  1C 18 80 80 F0 FF FF 7F  ../.0.1.........
1150: 1C 18 80 79 00 F0 FF FF  7F B8 23 05 01 45 5D 80  ...y......#..E].
1160: F0 FF FF 7F F0 FF FF 7F  6B 61 69 66 0D 80 45 32  ........kaif..E2
1170: 80 F0 FF FF 7F F0 FF FF  7F 30 30 30 32 0D 80 1A  .........0002...
1180: 37 12 69 00 29 80 1C 5E  80 1A 16 12 1C 0F 80 52  7.i.)..^.......R
1190: 32 80 F0 FF FF 7F F0 FF  FF 7F 30 30 30 32 46 00  2.........0002F.
11A0: 45 2D 80 F0 FF FF 7F F0  FF FF 7F 66 64 69 32 0D  E-.........fdi2.
11B0: 80 21 00 45 2D 80 F0 FF  FF 7F F0 FF FF 7F 66 64  .!.E-.........fd
11C0: 69 30 0D 80 55 2D 80 F0  FF FF 7F F0 FF FF 7F 66  i0..U-.........f
11D0: 64 69 30 1B 45 2D 80 F0  FF FF 7F F0 FF FF 7F 66  di0.E-.........f
11E0: 64 6F 30 0D 80 55 2D 80  F0 FF FF 7F F0 FF FF 7F  do0..U-.........
11F0: 66 64 6F 30 1B 45 2D 80  F0 FF FF 7F F0 FF FF 7F  fdo0.E-.........
1200: 66 64 69 31 0D 80 55 2D  80 F0 FF FF 7F F0 FF FF  fdi1..U-........
1210: 7F 66 64 69 31 1B 45 2D  80 F0 FF FF 7F F0 FF FF  .fdi1.E-........
1220: 7F 66 64 6F 31 0D 80 55  2D 80 F0 FF FF 7F F0 FF  .fdo1..U-.......
1230: FF 7F 66 64 6F 31 1B 45  BC 80 F0 FF FF 7F F0 FF  ..fdo1.E........
1240: FF 7F 77 68 69 31 0D 80  55 BC 80 F0 FF FF 7F F0  ..whi1..U.......
1250: FF FF 7F 77 68 69 31 1B  45 BC 80 F0 FF FF 7F F0  ...whi1.E.......
1260: FF FF 7F 77 68 6F 31 0D  80 55 BC 80 F0 FF FF 7F  ...who1..U......
1270: F0 FF FF 7F 77 68 6F 31  1B 45 BC 80 F0 FF FF 7F  ....who1.E......
1280: F0 FF FF 7F 77 68 6F 32  0D 80 55 BC 80 F0 FF FF  ....who2..U.....
1290: 7F F0 FF FF 7F 77 68 6F  32 1B 45 BC 80 F0 FF FF  .....who2.E.....
12A0: 7F F0 FF FF 7F 77 68 6F  33 0D 80 55 BC 80 F0 FF  .....who3..U....
12B0: FF 7F F0 FF FF 7F 77 68  6F 33 1B 62 23 80 F0 FF  ......who3.b#...
12C0: FF 7F F0 FF FF 7F 6D 61  69 6E 0D 80 1C 15 80 45  ......main.....E
12D0: 2D 80 F0 FF FF 7F F0 FF  FF 7F 66 64 6F 31 0D 80  -.........fdo1..
12E0: 55 2D 80 F0 FF FF 7F F0  FF FF 7F 66 64 6F 31 1B  U-.........fdo1.
12F0: 45 2D 80 F0 FF FF 7F F0  FF FF 7F 66 64 69 31 0D  E-.........fdi1.
1300: 80 62 24 80 F0 FF FF 7F  F0 FF FF 7F 6D 61 69 6E  .b$.........main
1310: 0D 80 1C 0F 80 55 2D 80  F0 FF FF 7F F0 FF FF 7F  .....U-.........
1320: 66 64 69 31 1B 45 2D 80  F0 FF FF 7F F0 FF FF 7F  fdi1.E-.........
1330: 62 6C 6F 6E 0D 80 45 BC  80 F0 FF FF 7F F0 FF FF  blon..E.........
1340: 7F 62 6C 6F 6E 0D 80 1B  45 BC 80 F0 FF FF 7F F0  .blon...E.......
1350: FF FF 7F 77 68 69 30 0D  80 55 BC 80 F0 FF FF 7F  ...whi0..U......
1360: F0 FF FF 7F 77 68 69 30  1B 45 BC 80 F0 FF FF 7F  ....whi0.E......
1370: F0 FF FF 7F 77 68 6F 30  0D 80 55 BC 80 F0 FF FF  ....who0..U.....
1380: 7F F0 FF FF 7F 77 68 6F  30 1B 45 BD 80 F0 FF FF  .....who0.E.....
1390: 7F F0 FF FF 7F 65 66 6F  6E 0D 80 55 BD 80 F0 FF  .....efon..U....
13A0: FF 7F F0 FF FF 7F 65 66  6F 6E 1B 45 2D 80 F0 FF  ......efon.E-...
13B0: FF 7F F0 FF FF 7F 66 64  69 73 0D 80 1B 45 2D 80  ......fdis...E-.
13C0: F0 FF FF 7F F0 FF FF 7F  66 64 6F 73 0D 80 55 2D  ........fdos..U-
13D0: 80 F0 FF FF 7F F0 FF FF  7F 66 64 6F 73 1B 45 2D  .........fdos.E-
13E0: 80 F0 FF FF 7F F0 FF FF  7F 66 64 69 66 0D 80 1B  .........fdif...
13F0: 45 2D 80 F0 FF FF 7F F0  FF FF 7F 66 64 6F 66 0D  E-.........fdof.
1400: 80 55 2D 80 F0 FF FF 7F  F0 FF FF 7F 66 64 6F 66  .U-.........fdof
1410: 1B 45 2D 80 F0 FF FF 7F  F0 FF FF 7F 66 64 69 70  .E-.........fdip
1420: 0D 80 1B 45 2D 80 F0 FF  FF 7F F0 FF FF 7F 66 64  ...E-.........fd
1430: 6F 70 0D 80 55 2D 80 F0  FF FF 7F F0 FF FF 7F 66  op..U-.........f
1440: 64 6F 70 1B                                       dop.            
```

#### Opcodes

```
  0: 0x049E [0x42] SET_CLI_EVENT_CANCEL_DATA()
  1: 0x049F [0x1A] CALL_SUBROUTINE(address=0x1216)
  2: 0x04A2 [0x46] CAMERA_CONTROL: Disable user control
  3: 0x04A4 [0x38] SET_CLIENT_EVENT_MODE(mode=19*)
  4: 0x04A7 [0x27] REQ_SET(priority=0x10, entity_id=Tanja (ID: 17114016/0x010523A0), tag_num=0x04)
  5: 0x04AE [0x27] REQ_SET(priority=0x10, entity_id=Raina (ID: 17114017/0x010523A1), tag_num=0x04)
  6: 0x04B5 [0x27] REQ_SET(priority=0x10, entity_id=Judith (ID: 17114018/0x010523A2), tag_num=0x04)
  7: 0x04BC [0x27] REQ_SET(priority=0x10, entity_id=Lilisette (ID: 17114015/0x0105239F), tag_num=0x04)
  8: 0x04C3 [0x27] REQ_SET(priority=0x10, entity_id=Cait Sith Coig (ID: 17114025/0x010523A9), tag_num=0x04)
  9: 0x04CA [0x27] REQ_SET(priority=0x10, entity_id=Aquila (ID: 17114020/0x010523A4), tag_num=0x04)
 10: 0x04D1 [0x27] REQ_SET(priority=0x10, entity_id=Cait Sith Aon (ID: 17114021/0x010523A5), tag_num=0x04)
 11: 0x04D8 [0x27] REQ_SET(priority=0x10, entity_id=Cait Sith Dha (ID: 17114022/0x010523A6), tag_num=0x02)
 12: 0x04DF [0x27] REQ_SET(priority=0x10, entity_id=Cait Sith Tri (ID: 17114023/0x010523A7), tag_num=0x02)
 13: 0x04E6 [0x27] REQ_SET(priority=0x10, entity_id=Cait Sith Ceithir (ID: 17114024/0x010523A8), tag_num=0x02)
 14: 0x04ED [0x27] REQ_SET(priority=0x10, entity_id=Cait Sith Sia (ID: 17114026/0x010523AA), tag_num=0x02)
 15: 0x04F4 [0x27] REQ_SET(priority=0x10, entity_id=Cait Sith Seachd (ID: 17114027/0x010523AB), tag_num=0x02)
 16: 0x04FB [0x27] REQ_SET(priority=0x10, entity_id=Cait Sith Ochd (ID: 17114028/0x010523AC), tag_num=0x02)
 17: 0x0502 [0x27] REQ_SET(priority=0x10, entity_id=Cait Sith Naoi (ID: 17114029/0x010523AD), tag_num=0x02)
 18: 0x0509 [0x4E] SET_ENTITY_HIDE_FLAG: Show Unnamed NPC (ID: 17114040/0x010523B8)
 19: 0x050F [0x2F] Unnamed NPC (ID: 17114031/0x010523AF)->Render.Flags0 &= ~0x80000 // Bit 19
 20: 0x0515 [0x4E] SET_ENTITY_HIDE_FLAG: Show Unnamed NPC (ID: 17114031/0x010523AF)
 21: 0x051B [0x2F] ??? (ID: 17114030/0x010523AE)->Render.Flags0 &= ~0x80000 // Bit 19
 22: 0x0521 [0x4E] SET_ENTITY_HIDE_FLAG: Show ??? (ID: 17114030/0x010523AE)
 23: 0x0527 [0x92] Lilisette (ID: 17114015/0x0105239F)->Render.Flags3 ^= 0x01
 24: 0x052D [0x92] Tanja (ID: 17114016/0x010523A0)->Render.Flags3 ^= 0x01
 25: 0x0533 [0x92] Raina (ID: 17114017/0x010523A1)->Render.Flags3 ^= 0x01
 26: 0x0539 [0x92] Judith (ID: 17114018/0x010523A2)->Render.Flags3 ^= 0x01
 27: 0x053F [0x92] Cait Sith Aon (ID: 17114021/0x010523A5)->Render.Flags3 ^= 0x01
 28: 0x0545 [0x92] Cait Sith Aon (ID: 17114021/0x010523A5)->Render.Flags3 ^= 0x01
 29: 0x054B [0x92] Cait Sith Dha (ID: 17114022/0x010523A6)->Render.Flags3 ^= 0x01
 30: 0x0551 [0x92] Cait Sith Tri (ID: 17114023/0x010523A7)->Render.Flags3 ^= 0x01
 31: 0x0557 [0x92] Cait Sith Ceithir (ID: 17114024/0x010523A8)->Render.Flags3 ^= 0x01
 32: 0x055D [0x92] Cait Sith Coig (ID: 17114025/0x010523A9)->Render.Flags3 ^= 0x01
 33: 0x0563 [0x92] Cait Sith Sia (ID: 17114026/0x010523AA)->Render.Flags3 ^= 0x01
 34: 0x0569 [0x92] Cait Sith Seachd (ID: 17114027/0x010523AB)->Render.Flags3 ^= 0x01
 35: 0x056F [0x92] Cait Sith Ochd (ID: 17114028/0x010523AC)->Render.Flags3 ^= 0x01
 36: 0x0575 [0x92] Cait Sith Naoi (ID: 17114029/0x010523AD)->Render.Flags3 ^= 0x01
 37: 0x057B [0x92] Aquila (ID: 17114020/0x010523A4)->Render.Flags3 ^= 0x01
 38: 0x0581 [0x94] LocalPlayer->Render.Flags3 ^= 0x01
 39: 0x0587 [0x94] Lilisette (ID: 17114015/0x0105239F)->Render.Flags3 ^= 0x01
 40: 0x058D [0x94] Aquila (ID: 17114020/0x010523A4)->Render.Flags3 ^= 0x01
 41: 0x0593 [0x94] Cait Sith Aon (ID: 17114021/0x010523A5)->Render.Flags3 ^= 0x01
 42: 0x0599 [0x94] Cait Sith Dha (ID: 17114022/0x010523A6)->Render.Flags3 ^= 0x01
 43: 0x059F [0x94] Cait Sith Tri (ID: 17114023/0x010523A7)->Render.Flags3 ^= 0x01
 44: 0x05A5 [0x94] Cait Sith Ceithir (ID: 17114024/0x010523A8)->Render.Flags3 ^= 0x01
 45: 0x05AB [0x94] Cait Sith Coig (ID: 17114025/0x010523A9)->Render.Flags3 ^= 0x01
 46: 0x05B1 [0x94] Cait Sith Sia (ID: 17114026/0x010523AA)->Render.Flags3 ^= 0x01
 47: 0x05B7 [0x94] Cait Sith Seachd (ID: 17114027/0x010523AB)->Render.Flags3 ^= 0x01
 48: 0x05BD [0x94] Cait Sith Ochd (ID: 17114028/0x010523AC)->Render.Flags3 ^= 0x01
 49: 0x05C3 [0x94] Cait Sith Naoi (ID: 17114029/0x010523AD)->Render.Flags3 ^= 0x01
 50: 0x05C9 [0x94] Unnamed NPC (ID: 17114031/0x010523AF)->Render.Flags3 ^= 0x01
 51: 0x05CF [0xBA] SET_ENTITY_POSITION(entity_id=LocalPlayer, pos_x=47.535*, pos_z=309.804*, pos_y=0.022*, direction=148.7°*)
 52: 0x05DC [0x80] LOAD_WAIT(entity=LocalPlayer)
 53: 0x05E1 [0x80] LOAD_WAIT(entity=Lilisette (ID: 17114015/0x0105239F))
 54: 0x05E6 [0x80] LOAD_WAIT(entity=Aquila (ID: 17114020/0x010523A4))
 55: 0x05EB [0x80] LOAD_WAIT(entity=Cait Sith Aon (ID: 17114021/0x010523A5))
 56: 0x05F0 [0x80] LOAD_WAIT(entity=Cait Sith Dha (ID: 17114022/0x010523A6))
 57: 0x05F5 [0x80] LOAD_WAIT(entity=Cait Sith Tri (ID: 17114023/0x010523A7))
 58: 0x05FA [0x80] LOAD_WAIT(entity=Cait Sith Ceithir (ID: 17114024/0x010523A8))
 59: 0x05FF [0x80] LOAD_WAIT(entity=Cait Sith Coig (ID: 17114025/0x010523A9))
 60: 0x0604 [0x80] LOAD_WAIT(entity=Cait Sith Sia (ID: 17114026/0x010523AA))
 61: 0x0609 [0x80] LOAD_WAIT(entity=Cait Sith Seachd (ID: 17114027/0x010523AB))
 62: 0x060E [0x80] LOAD_WAIT(entity=Cait Sith Ochd (ID: 17114028/0x010523AC))
 63: 0x0613 [0x80] LOAD_WAIT(entity=Cait Sith Naoi (ID: 17114029/0x010523AD))
 64: 0x0618 [0x80] LOAD_WAIT(entity=Unnamed NPC (ID: 17114031/0x010523AF))
 65: 0x061D [0x80] LOAD_WAIT(entity=Unnamed NPC (ID: 17114040/0x010523B8))
 66: 0x0622 [0x79] LocalPlayer looks at Unnamed NPC (ID: 17114040/0x010523B8) (Basic look)
 67: 0x062C [0x1C] WAIT(30* ticks)
 68: 0x062F [0x45] LOAD_SCHEDULED_TASK: Load scheduler "0002" with entities [LocalPlayer, LocalPlayer], work=[552*, 0*]
 69: 0x0640 [0x1A] CALL_SUBROUTINE(address=0x11F5)
 70: 0x0643 [0x1C] WAIT(30* ticks)
 71: 0x0646 [0x1C] WAIT(150* ticks)
 72: 0x0649 [0x5D] SET_MUSIC_VOLUME(volume=0*, fade_time=90*)
 73: 0x064E [0x1A] CALL_SUBROUTINE(address=0x1258)
 74: 0x0651 [0x4E] SET_ENTITY_HIDE_FLAG: Hide Unnamed NPC (ID: 17114040/0x010523B8)
 75: 0x0657 [0xBA] SET_ENTITY_POSITION(entity_id=LocalPlayer, pos_x=46.157*, pos_z=322.028*, pos_y=0.354*, direction=67.8°*)
 76: 0x0664 [0xBA] SET_ENTITY_POSITION(entity_id=Lilisette (ID: 17114015/0x0105239F), pos_x=47.963*, pos_z=320.253*, pos_y=0.204*, direction=84.5°*)
 77: 0x0671 [0xBA] SET_ENTITY_POSITION(entity_id=Cait Sith Coig (ID: 17114025/0x010523A9), pos_x=47.963*, pos_z=320.253*, pos_y=0.204*, direction=84.5°*)
 78: 0x067E [0xBA] SET_ENTITY_POSITION(entity_id=Aquila (ID: 17114020/0x010523A4), pos_x=220.554*, pos_z=3.529*, pos_y=0.000*, direction=104.7°*)
 79: 0x068B [0xBA] SET_ENTITY_POSITION(entity_id=Cait Sith Aon (ID: 17114021/0x010523A5), pos_x=45.827*, pos_z=317.214*, pos_y=0.090*, direction=67.8°*)
 80: 0x0698 [0xBA] SET_ENTITY_POSITION(entity_id=Cait Sith Dha (ID: 17114022/0x010523A6), pos_x=46.895*, pos_z=315.977*, pos_y=0.141*, direction=67.8°*)
 81: 0x06A5 [0xBA] SET_ENTITY_POSITION(entity_id=Cait Sith Seachd (ID: 17114027/0x010523AB), pos_x=48.694*, pos_z=315.467*, pos_y=0.171*, direction=67.8°*)
 82: 0x06B2 [0xBA] SET_ENTITY_POSITION(entity_id=Cait Sith Ceithir (ID: 17114024/0x010523A8), pos_x=50.466*, pos_z=315.945*, pos_y=0.311*, direction=67.8°*)
 83: 0x06BF [0xBA] SET_ENTITY_POSITION(entity_id=Cait Sith Sia (ID: 17114026/0x010523AA), pos_x=51.479*, pos_z=316.957*, pos_y=0.371*, direction=67.8°*)
 84: 0x06CC [0xBA] SET_ENTITY_POSITION(entity_id=Cait Sith Ochd (ID: 17114028/0x010523AC), pos_x=52.270*, pos_z=318.250*, pos_y=0.410*, direction=67.8°*)
 85: 0x06D9 [0xBA] SET_ENTITY_POSITION(entity_id=Cait Sith Tri (ID: 17114023/0x010523A7), pos_x=52.285*, pos_z=319.655*, pos_y=0.411*, direction=67.8°*)
 86: 0x06E6 [0x59] UPDATE_ENTITY_DATA: Cait Sith Naoi (ID: 17114029/0x010523AD)->Render.Flags0 |= 0x200000
 87: 0x06ED [0xBA] SET_ENTITY_POSITION(entity_id=Cait Sith Naoi (ID: 17114029/0x010523AD), pos_x=45.400*, pos_z=319.299*, pos_y=-0.899*, direction=67.8°*)
 88: 0x06FA [0x77] SET_EVENT_TIME_WEATHER(hour=12*, weather=1*)
 89: 0x06FF [0x1C] WAIT(30* ticks)
 90: 0x0702 [0xAB] EventEntity->UnknownFlag = 1 // Enable unknown flag
 91: 0x0704 [0x1C] WAIT(60* ticks)
 92: 0x0707 [0x79] LocalPlayer looks at Cait Sith Coig (ID: 17114025/0x010523A9) (Basic look)
 93: 0x0711 [0x81] SET_ENTITY_BLINKING(blink_flag=0x00, entity=Lilisette (ID: 17114015/0x0105239F))
 94: 0x0717 [0x81] SET_ENTITY_BLINKING(blink_flag=0x00, entity=Cait Sith Coig (ID: 17114025/0x010523A9))
 95: 0x071D [0x5B] LOAD_EXT_SCHEDULER: Load scheduler "fc01" with entities [Lilisette (ID: 17114015/0x0105239F), Lilisette (ID: 17114015/0x0105239F)], work=2135*
 96: 0x072C [0x5B] LOAD_EXT_SCHEDULER: Load scheduler "gel2" with entities [Lilisette (ID: 17114015/0x0105239F), Lilisette (ID: 17114015/0x0105239F)], work=2248*
 97: 0x073B [0x5B] LOAD_EXT_SCHEDULER: Load scheduler "gel2" with entities [Cait Sith Coig (ID: 17114025/0x010523A9), Cait Sith Coig (ID: 17114025/0x010523A9)], work=2468*
 98: 0x074A [0x4A] Cait Sith Aon (ID: 17114021/0x010523A5) looks at Lilisette (ID: 17114015/0x0105239F)
 99: 0x0753 [0x4A] Cait Sith Dha (ID: 17114022/0x010523A6) looks at Lilisette (ID: 17114015/0x0105239F)
100: 0x075C [0x4A] Cait Sith Tri (ID: 17114023/0x010523A7) looks at Lilisette (ID: 17114015/0x0105239F)
101: 0x0765 [0x4A] Cait Sith Ceithir (ID: 17114024/0x010523A8) looks at Lilisette (ID: 17114015/0x0105239F)
102: 0x076E [0x4A] Cait Sith Sia (ID: 17114026/0x010523AA) looks at Lilisette (ID: 17114015/0x0105239F)
103: 0x0777 [0x4A] Cait Sith Seachd (ID: 17114027/0x010523AB) looks at Lilisette (ID: 17114015/0x0105239F)
104: 0x0780 [0x4A] Cait Sith Ochd (ID: 17114028/0x010523AC) looks at Lilisette (ID: 17114015/0x0105239F)
105: 0x0789 [0x4A] Cait Sith Naoi (ID: 17114029/0x010523AD) looks at Lilisette (ID: 17114015/0x0105239F)
106: 0x0792 [0x1C] WAIT(120* ticks)
107: 0x0795 [0x5C] MUSIC_CONTROL: Set Idle (Day) music to song 129*
108: 0x0799 [0x5C] MUSIC_CONTROL: Set Idle (Night) music to song 129*
109: 0x079D [0x5C] MUSIC_CONTROL: Set Combat (Solo) music to song 129*
110: 0x07A1 [0x5C] MUSIC_CONTROL: Set Combat (Party) music to song 129*
111: 0x07A5 [0x9A] WAIT_MUSIC_SERVER()
112: 0x07A6 [0x6A] CHANGE_SOUND_VOLUME: Set (Master)* volume to 0*, fade_time=90*
113: 0x07AD [0x5B] LOAD_EXT_SCHEDULER: Load scheduler "con0" with entities [Cait Sith Naoi (ID: 17114029/0x010523AD), Cait Sith Naoi (ID: 17114029/0x010523AD)], work=1413*
114: 0x07BC [0x52] END_LOAD_SCHEDULER: End scheduler "0002" with entities [LocalPlayer, LocalPlayer], work=552*
115: 0x07CB [0x45] LOAD_SCHEDULED_TASK: Load scheduler "kain" with entities [LocalPlayer, LocalPlayer], work=[396*, 0*]
116: 0x07DC [0x45] LOAD_SCHEDULED_TASK: Load scheduler "3423" with entities [LocalPlayer, LocalPlayer], work=[396*, 0*]
117: 0x07ED [0x1A] CALL_SUBROUTINE(address=0x1237)
118: 0x07F0 [0x1C] WAIT(180* ticks)
119: 0x07F3 [0x52] END_LOAD_SCHEDULER: End scheduler "3423" with entities [LocalPlayer, LocalPlayer], work=396*
120: 0x0802 [0x45] LOAD_SCHEDULED_TASK: Load scheduler "3433" with entities [LocalPlayer, LocalPlayer], work=[396*, 0*]
121: 0x0813 [0x1C] WAIT(90* ticks)
122: 0x0816 [0x5B] LOAD_EXT_SCHEDULER: Load scheduler "get3" with entities [Lilisette (ID: 17114015/0x0105239F), Lilisette (ID: 17114015/0x0105239F)], work=2248*
123: 0x0825 [0x5B] LOAD_EXT_SCHEDULER: Load scheduler "get3" with entities [Cait Sith Coig (ID: 17114025/0x010523A9), Cait Sith Coig (ID: 17114025/0x010523A9)], work=2468*
124: 0x0834 [0x1C] WAIT(240* ticks)
125: 0x0837 [0x52] END_LOAD_SCHEDULER: End scheduler "3433" with entities [LocalPlayer, LocalPlayer], work=396*
126: 0x0846 [0x45] LOAD_SCHEDULED_TASK: Load scheduler "3434" with entities [LocalPlayer, LocalPlayer], work=[396*, 0*]
127: 0x0857 [0x1C] WAIT(90* ticks)
128: 0x085A [0x52] END_LOAD_SCHEDULER: End scheduler "3434" with entities [LocalPlayer, LocalPlayer], work=396*
129: 0x0869 [0x45] LOAD_SCHEDULED_TASK: Load scheduler "3435" with entities [LocalPlayer, LocalPlayer], work=[396*, 0*]
130: 0x087A [0x5B] LOAD_EXT_SCHEDULER: Load scheduler "get1" with entities [Lilisette (ID: 17114015/0x0105239F), Lilisette (ID: 17114015/0x0105239F)], work=2248*
131: 0x0889 [0x5B] LOAD_EXT_SCHEDULER: Load scheduler "get1" with entities [Cait Sith Coig (ID: 17114025/0x010523A9), Cait Sith Coig (ID: 17114025/0x010523A9)], work=2468*
132: 0x0898 [0x1C] WAIT(150* ticks)
133: 0x089B [0x4E] SET_ENTITY_HIDE_FLAG: Show Cait Sith Aon (ID: 17114021/0x010523A5)
134: 0x08A1 [0x52] END_LOAD_SCHEDULER: End scheduler "3435" with entities [LocalPlayer, LocalPlayer], work=396*
135: 0x08B0 [0x45] LOAD_SCHEDULED_TASK: Load scheduler "3436" with entities [LocalPlayer, LocalPlayer], work=[396*, 0*]
136: 0x08C1 [0x1C] WAIT(30* ticks)
137: 0x08C4 [0x5B] LOAD_EXT_SCHEDULER: Load scheduler "ff01" with entities [Lilisette (ID: 17114015/0x0105239F), Lilisette (ID: 17114015/0x0105239F)], work=2135*
138: 0x08D3 [0x5B] LOAD_EXT_SCHEDULER: Load scheduler "uwa0" with entities [Lilisette (ID: 17114015/0x0105239F), Lilisette (ID: 17114015/0x0105239F)], work=2249*
139: 0x08E2 [0x5B] LOAD_EXT_SCHEDULER: Load scheduler "uwa0" with entities [Cait Sith Coig (ID: 17114025/0x010523A9), Cait Sith Coig (ID: 17114025/0x010523A9)], work=2469*
140: 0x08F1 [0xC5] LOAD_SCHEDULED_TASK_ALT3: Load scheduler 0x800D3130 for entities [Cait Sith Aon (ID: 17114021/0x010523A5), Cait Sith Aon (ID: 17114021/0x010523A5)], work=43*, param=29811
141: 0x0902 [0x1C] WAIT(60* ticks)
142: 0x0905 [0xC5] LOAD_SCHEDULED_TASK_ALT3: Load scheduler 0x800D3230 for entities [Cait Sith Aon (ID: 17114021/0x010523A5), Cait Sith Aon (ID: 17114021/0x010523A5)], work=43*, param=29811
143: 0x0916 [0x1C] WAIT(110* ticks)
144: 0x0919 [0x52] END_LOAD_SCHEDULER: End scheduler "3436" with entities [LocalPlayer, LocalPlayer], work=396*
145: 0x0928 [0x45] LOAD_SCHEDULED_TASK: Load scheduler "nya0" with entities [LocalPlayer, LocalPlayer], work=[396*, 0*]
146: 0x0939 [0x27] REQ_SET(priority=0x10, entity_id=Unnamed NPC (ID: 17114031/0x010523AF), tag_num=0x08)
147: 0x0940 [0x1C] WAIT(300* ticks)
148: 0x0943 [0x52] END_LOAD_SCHEDULER: End scheduler "nya0" with entities [LocalPlayer, LocalPlayer], work=396*
149: 0x0952 [0x45] LOAD_SCHEDULED_TASK: Load scheduler "nya3" with entities [LocalPlayer, LocalPlayer], work=[396*, 0*]
150: 0x0963 [0x27] REQ_SET(priority=0x10, entity_id=Unnamed NPC (ID: 17114031/0x010523AF), tag_num=0x04)
151: 0x096A [0x27] REQ_SET(priority=0x10, entity_id=??? (ID: 17114030/0x010523AE), tag_num=0x05)
152: 0x0971 [0x1C] WAIT(140* ticks)
153: 0x0974 [0x52] END_LOAD_SCHEDULER: End scheduler "nya3" with entities [LocalPlayer, LocalPlayer], work=396*
154: 0x0983 [0x45] LOAD_SCHEDULED_TASK: Load scheduler "nya6" with entities [LocalPlayer, LocalPlayer], work=[396*, 0*]
155: 0x0994 [0x1C] WAIT(80* ticks)
156: 0x0997 [0x5B] LOAD_EXT_SCHEDULER: Load scheduler "sen0" with entities [Cait Sith Tri (ID: 17114023/0x010523A7), Cait Sith Tri (ID: 17114023/0x010523A7)], work=2469*
157: 0x09A6 [0x1C] WAIT(10* ticks)
158: 0x09A9 [0x52] END_LOAD_SCHEDULER: End scheduler "nya6" with entities [LocalPlayer, LocalPlayer], work=396*
159: 0x09B8 [0x45] LOAD_SCHEDULED_TASK: Load scheduler "nya5" with entities [LocalPlayer, LocalPlayer], work=[396*, 0*]
160: 0x09C9 [0x1C] WAIT(90* ticks)
161: 0x09CC [0x52] END_LOAD_SCHEDULER: End scheduler "nya5" with entities [LocalPlayer, LocalPlayer], work=396*
162: 0x09DB [0x45] LOAD_SCHEDULED_TASK: Load scheduler "3438" with entities [LocalPlayer, LocalPlayer], work=[396*, 0*]
163: 0x09EC [0x1C] WAIT(30* ticks)
164: 0x09EF [0x6B] STOP_AND_IDLE: Cait Sith Aon (ID: 17114021/0x010523A5) stops current action and resets to idle (animation="idl0")
165: 0x09F8 [0x6B] STOP_AND_IDLE: Cait Sith Dha (ID: 17114022/0x010523A6) stops current action and resets to idle (animation="idl0")
166: 0x0A01 [0x6B] STOP_AND_IDLE: Cait Sith Tri (ID: 17114023/0x010523A7) stops current action and resets to idle (animation="idl0")
167: 0x0A0A [0x6B] STOP_AND_IDLE: Cait Sith Ceithir (ID: 17114024/0x010523A8) stops current action and resets to idle (animation="idl0")
168: 0x0A13 [0x6B] STOP_AND_IDLE: Cait Sith Sia (ID: 17114026/0x010523AA) stops current action and resets to idle (animation="idl0")
169: 0x0A1C [0x6B] STOP_AND_IDLE: Cait Sith Seachd (ID: 17114027/0x010523AB) stops current action and resets to idle (animation="idl0")
170: 0x0A25 [0x6B] STOP_AND_IDLE: Cait Sith Ochd (ID: 17114028/0x010523AC) stops current action and resets to idle (animation="idl0")
171: 0x0A2E [0xBA] SET_ENTITY_POSITION(entity_id=LocalPlayer, pos_x=47.095*, pos_z=318.523*, pos_y=0.153*, direction=303.5°*)
172: 0x0A3B [0xBA] SET_ENTITY_POSITION(entity_id=Lilisette (ID: 17114015/0x0105239F), pos_x=48.719*, pos_z=317.030*, pos_y=0.234*, direction=219.4°*)
173: 0x0A48 [0xBA] SET_ENTITY_POSITION(entity_id=Tanja (ID: 17114016/0x010523A0), pos_x=47.090*, pos_z=315.924*, pos_y=0.147*, direction=271.2°*)
174: 0x0A55 [0xBA] SET_ENTITY_POSITION(entity_id=Raina (ID: 17114017/0x010523A1), pos_x=48.755*, pos_z=315.048*, pos_y=0.137*, direction=243.2°*)
175: 0x0A62 [0xBA] SET_ENTITY_POSITION(entity_id=Judith (ID: 17114018/0x010523A2), pos_x=45.259*, pos_z=317.392*, pos_y=0.061*, direction=40.3°*)
176: 0x0A6F [0xBA] SET_ENTITY_POSITION(entity_id=Cait Sith Ochd (ID: 17114028/0x010523AC), pos_x=0.000*, pos_z=0.000*, pos_y=0.000*, direction=0.0°*)
177: 0x0A7C [0xBA] SET_ENTITY_POSITION(entity_id=Cait Sith Dha (ID: 17114022/0x010523A6), pos_x=0.000*, pos_z=0.000*, pos_y=0.000*, direction=0.0°*)
178: 0x0A89 [0xBA] SET_ENTITY_POSITION(entity_id=Cait Sith Ceithir (ID: 17114024/0x010523A8), pos_x=0.000*, pos_z=0.000*, pos_y=0.000*, direction=0.0°*)
179: 0x0A96 [0xBA] SET_ENTITY_POSITION(entity_id=Cait Sith Tri (ID: 17114023/0x010523A7), pos_x=0.000*, pos_z=0.000*, pos_y=0.000*, direction=0.0°*)
180: 0x0AA3 [0xBA] SET_ENTITY_POSITION(entity_id=Cait Sith Seachd (ID: 17114027/0x010523AB), pos_x=0.000*, pos_z=0.000*, pos_y=0.000*, direction=0.0°*)
181: 0x0AB0 [0xBA] SET_ENTITY_POSITION(entity_id=Cait Sith Sia (ID: 17114026/0x010523AA), pos_x=0.000*, pos_z=0.000*, pos_y=0.000*, direction=0.0°*)
182: 0x0ABD [0xBA] SET_ENTITY_POSITION(entity_id=Cait Sith Aon (ID: 17114021/0x010523A5), pos_x=0.000*, pos_z=0.000*, pos_y=0.000*, direction=0.0°*)
183: 0x0ACA [0xBA] SET_ENTITY_POSITION(entity_id=Cait Sith Coig (ID: 17114025/0x010523A9), pos_x=0.000*, pos_z=0.000*, pos_y=0.000*, direction=0.0°*)
184: 0x0AD7 [0x4A] Tanja (ID: 17114016/0x010523A0) looks at LocalPlayer
185: 0x0AE0 [0x4A] Raina (ID: 17114017/0x010523A1) looks at LocalPlayer
186: 0x0AE9 [0x4A] Judith (ID: 17114018/0x010523A2) looks at LocalPlayer
187: 0x0AF2 [0x7B] Judith (ID: 17114018/0x010523A2) stops talking
188: 0x0AF7 [0x79] LocalPlayer looks at LocalPlayer (Basic look)
189: 0x0B01 [0xC5] LOAD_SCHEDULED_TASK_ALT3: Load scheduler 0x800D3030 for entities [Judith (ID: 17114018/0x010523A2), Judith (ID: 17114018/0x010523A2)], work=48*, param=12403
190: 0x0B12 [0xC5] LOAD_SCHEDULED_TASK_ALT3: Load scheduler 0x800D3030 for entities [Lilisette (ID: 17114015/0x0105239F), Lilisette (ID: 17114015/0x0105239F)], work=48*, param=12403
191: 0x0B23 [0xC5] LOAD_SCHEDULED_TASK_ALT3: Load scheduler 0x800D316C for entities [Judith (ID: 17114018/0x010523A2), Judith (ID: 17114018/0x010523A2)], work=48*, param=26987
192: 0x0B34 [0xC5] LOAD_SCHEDULED_TASK_ALT3: Load scheduler 0x800D316C for entities [Lilisette (ID: 17114015/0x0105239F), Lilisette (ID: 17114015/0x0105239F)], work=48*, param=26987
193: 0x0B45 [0xC5] LOAD_SCHEDULED_TASK_ALT3: Load scheduler 0x800D326C for entities [Lilisette (ID: 17114015/0x0105239F), Lilisette (ID: 17114015/0x0105239F)], work=48*, param=26987
194: 0x0B56 [0x5B] LOAD_EXT_SCHEDULER: Load scheduler "f000" with entities [Lilisette (ID: 17114015/0x0105239F), Lilisette (ID: 17114015/0x0105239F)], work=2135*
195: 0x0B65 [0x5B] LOAD_EXT_SCHEDULER: Load scheduler "thb0" with entities [Lilisette (ID: 17114015/0x0105239F), Lilisette (ID: 17114015/0x0105239F)], work=2133*
196: 0x0B74 [0x1C] WAIT(120* ticks)
197: 0x0B77 [0x52] END_LOAD_SCHEDULER: End scheduler "3438" with entities [LocalPlayer, LocalPlayer], work=396*
198: 0x0B86 [0x45] LOAD_SCHEDULED_TASK: Load scheduler "s002" with entities [LocalPlayer, LocalPlayer], work=[396*, 0*]
199: 0x0B97 [0x6E] Judith (ID: 17114018/0x010523A2) uses emote 11*
200: 0x0B9E [0x99] Wait for Judith (ID: 17114018/0x010523A2) animation to complete
201: 0x0BA3 [0xBA] SET_ENTITY_POSITION(entity_id=Cait Sith Naoi (ID: 17114029/0x010523AD), pos_x=0.000*, pos_z=0.000*, pos_y=0.000*, direction=0.0°*)
202: 0x0BB0 [0x1C] WAIT(120* ticks)
203: 0x0BB3 [0x52] END_LOAD_SCHEDULER: End scheduler "s002" with entities [LocalPlayer, LocalPlayer], work=396*
204: 0x0BC2 [0x45] LOAD_SCHEDULED_TASK: Load scheduler "s006" with entities [LocalPlayer, LocalPlayer], work=[396*, 0*]
205: 0x0BD3 [0x6E] Raina (ID: 17114017/0x010523A1) uses emote 22*
206: 0x0BDA [0x99] Wait for Raina (ID: 17114017/0x010523A1) animation to complete
207: 0x0BDF [0x1C] WAIT(30* ticks)
208: 0x0BE2 [0x5B] LOAD_EXT_SCHEDULER: Load scheduler "con9" with entities [Cait Sith Ochd (ID: 17114028/0x010523AC), Cait Sith Ochd (ID: 17114028/0x010523AC)], work=2099*
209: 0x0BF1 [0x5B] LOAD_EXT_SCHEDULER: Load scheduler "con2" with entities [Cait Sith Dha (ID: 17114022/0x010523A6), Cait Sith Dha (ID: 17114022/0x010523A6)], work=1413*
210: 0x0C00 [0x5B] LOAD_EXT_SCHEDULER: Load scheduler "con1" with entities [Cait Sith Ceithir (ID: 17114024/0x010523A8), Cait Sith Ceithir (ID: 17114024/0x010523A8)], work=1413*
211: 0x0C0F [0x5B] LOAD_EXT_SCHEDULER: Load scheduler "con3" with entities [Cait Sith Tri (ID: 17114023/0x010523A7), Cait Sith Tri (ID: 17114023/0x010523A7)], work=1413*
212: 0x0C1E [0x5B] LOAD_EXT_SCHEDULER: Load scheduler "con4" with entities [Cait Sith Seachd (ID: 17114027/0x010523AB), Cait Sith Seachd (ID: 17114027/0x010523AB)], work=1413*
213: 0x0C2D [0x5B] LOAD_EXT_SCHEDULER: Load scheduler "con5" with entities [Cait Sith Aon (ID: 17114021/0x010523A5), Cait Sith Aon (ID: 17114021/0x010523A5)], work=1413*
214: 0x0C3C [0x5B] LOAD_EXT_SCHEDULER: Load scheduler "sia0" with entities [Cait Sith Sia (ID: 17114026/0x010523AA), Cait Sith Sia (ID: 17114026/0x010523AA)], work=2472*
215: 0x0C4B [0x5B] LOAD_EXT_SCHEDULER: Load scheduler "udel" with entities [Cait Sith Coig (ID: 17114025/0x010523A9), Cait Sith Coig (ID: 17114025/0x010523A9)], work=1412*
216: 0x0C5A [0x59] UPDATE_ENTITY_DATA: Cait Sith Aon (ID: 17114021/0x010523A5)->Render.Flags0 |= 0x200000
217: 0x0C61 [0x1C] WAIT(90* ticks)
218: 0x0C64 [0x52] END_LOAD_SCHEDULER: End scheduler "s006" with entities [LocalPlayer, LocalPlayer], work=396*
219: 0x0C73 [0x45] LOAD_SCHEDULED_TASK: Load scheduler "s009" with entities [LocalPlayer, LocalPlayer], work=[396*, 0*]
220: 0x0C84 [0x6E] Tanja (ID: 17114016/0x010523A0) uses emote 7*
221: 0x0C8B [0x99] Wait for Tanja (ID: 17114016/0x010523A0) animation to complete
222: 0x0C90 [0x1C] WAIT(120* ticks)
223: 0x0C93 [0x52] END_LOAD_SCHEDULER: End scheduler "s009" with entities [LocalPlayer, LocalPlayer], work=396*
224: 0x0CA2 [0x45] LOAD_SCHEDULED_TASK: Load scheduler "ovar" with entities [LocalPlayer, LocalPlayer], work=[396*, 0*]
225: 0x0CB3 [0x45] LOAD_SCHEDULED_TASK: Load scheduler "3465" with entities [LocalPlayer, LocalPlayer], work=[396*, 0*]
226: 0x0CC4 [0xBA] SET_ENTITY_POSITION(entity_id=Cait Sith Ochd (ID: 17114028/0x010523AC), pos_x=42.022*, pos_z=320.113*, pos_y=0.000*, direction=90.0°*)
227: 0x0CD1 [0xBA] SET_ENTITY_POSITION(entity_id=Cait Sith Dha (ID: 17114022/0x010523A6), pos_x=41.072*, pos_z=319.569*, pos_y=0.000*, direction=69.3°*)
228: 0x0CDE [0xBA] SET_ENTITY_POSITION(entity_id=Cait Sith Ceithir (ID: 17114024/0x010523A8), pos_x=43.006*, pos_z=317.409*, pos_y=-0.071*, direction=180.0°*)
229: 0x0CEB [0xBA] SET_ENTITY_POSITION(entity_id=Cait Sith Tri (ID: 17114023/0x010523A7), pos_x=41.051*, pos_z=317.429*, pos_y=-0.071*, direction=315.0°*)
230: 0x0CF8 [0xBA] SET_ENTITY_POSITION(entity_id=Cait Sith Seachd (ID: 17114027/0x010523AB), pos_x=41.988*, pos_z=316.828*, pos_y=0.000*, direction=270.0°*)
231: 0x0D05 [0xBA] SET_ENTITY_POSITION(entity_id=Cait Sith Sia (ID: 17114026/0x010523AA), pos_x=39.830*, pos_z=318.059*, pos_y=0.000*, direction=350.1°*)
232: 0x0D12 [0xBA] SET_ENTITY_POSITION(entity_id=Cait Sith Aon (ID: 17114021/0x010523A5), pos_x=39.332*, pos_z=319.156*, pos_y=-1.000*, direction=5.8°*)
233: 0x0D1F [0xBA] SET_ENTITY_POSITION(entity_id=Cait Sith Coig (ID: 17114025/0x010523A9), pos_x=44.316*, pos_z=318.112*, pos_y=-0.145*, direction=184.7°*)
234: 0x0D2C [0xBA] SET_ENTITY_POSITION(entity_id=Cait Sith Naoi (ID: 17114029/0x010523AD), pos_x=44.599*, pos_z=319.559*, pos_y=-1.600*, direction=160.0°*)
235: 0x0D39 [0xBA] SET_ENTITY_POSITION(entity_id=LocalPlayer, pos_x=40.074*, pos_z=323.388*, pos_y=0.417*, direction=269.5°*)
236: 0x0D46 [0xBA] SET_ENTITY_POSITION(entity_id=Lilisette (ID: 17114015/0x0105239F), pos_x=55.649*, pos_z=304.149*, pos_y=-0.855*, direction=233.6°*)
237: 0x0D53 [0xBA] SET_ENTITY_POSITION(entity_id=Tanja (ID: 17114016/0x010523A0), pos_x=0.000*, pos_z=0.000*, pos_y=0.000*, direction=0.0°*)
238: 0x0D60 [0xBA] SET_ENTITY_POSITION(entity_id=Raina (ID: 17114017/0x010523A1), pos_x=0.000*, pos_z=0.000*, pos_y=0.000*, direction=0.0°*)
239: 0x0D6D [0xBA] SET_ENTITY_POSITION(entity_id=Judith (ID: 17114018/0x010523A2), pos_x=0.000*, pos_z=0.000*, pos_y=0.000*, direction=0.0°*)
240: 0x0D7A [0x4A] Judith (ID: 17114018/0x010523A2) looks at LocalPlayer
241: 0x0D83 [0x27] REQ_SET(priority=0x10, entity_id=Cait Sith Aon (ID: 17114021/0x010523A5), tag_num=0x0C)
242: 0x0D8A [0x27] REQ_SET(priority=0x10, entity_id=LocalPlayer, tag_num=0x07)
243: 0x0D91 [0xC5] LOAD_SCHEDULED_TASK_ALT3: Load scheduler 0x800D616C for entities [Lilisette (ID: 17114015/0x0105239F), Lilisette (ID: 17114015/0x0105239F)], work=48*, param=26987
244: 0x0DA2 [0x5B] LOAD_EXT_SCHEDULER: Load scheduler "tl00" with entities [Cait Sith Naoi (ID: 17114029/0x010523AD), Cait Sith Naoi (ID: 17114029/0x010523AD)], work=2473*
245: 0x0DB1 [0x5B] LOAD_EXT_SCHEDULER: Load scheduler "f000" with entities [Lilisette (ID: 17114015/0x0105239F), Lilisette (ID: 17114015/0x0105239F)], work=2135*
246: 0x0DC0 [0x5B] LOAD_EXT_SCHEDULER: Load scheduler "aki0" with entities [Lilisette (ID: 17114015/0x0105239F), Lilisette (ID: 17114015/0x0105239F)], work=2479*
247: 0x0DCF [0x1C] WAIT(120* ticks)
248: 0x0DD2 [0x52] END_LOAD_SCHEDULER: End scheduler "3465" with entities [LocalPlayer, LocalPlayer], work=396*
249: 0x0DE1 [0x45] LOAD_SCHEDULED_TASK: Load scheduler "3453" with entities [LocalPlayer, LocalPlayer], work=[396*, 0*]
250: 0x0DF2 [0x5B] LOAD_EXT_SCHEDULER: Load scheduler "tl30" with entities [Cait Sith Tri (ID: 17114023/0x010523A7), Cait Sith Tri (ID: 17114023/0x010523A7)], work=1413*
251: 0x0E01 [0x1C] WAIT(120* ticks)
252: 0x0E04 [0x52] END_LOAD_SCHEDULER: End scheduler "3453" with entities [LocalPlayer, LocalPlayer], work=396*
253: 0x0E13 [0x45] LOAD_SCHEDULED_TASK: Load scheduler "3454" with entities [LocalPlayer, LocalPlayer], work=[396*, 0*]
254: 0x0E24 [0x5B] LOAD_EXT_SCHEDULER: Load scheduler "tl31" with entities [Cait Sith Tri (ID: 17114023/0x010523A7), Cait Sith Tri (ID: 17114023/0x010523A7)], work=1413*
255: 0x0E33 [0x1C] WAIT(120* ticks)
256: 0x0E36 [0x52] END_LOAD_SCHEDULER: End scheduler "3454" with entities [LocalPlayer, LocalPlayer], work=396*
257: 0x0E45 [0x45] LOAD_SCHEDULED_TASK: Load scheduler "3473" with entities [LocalPlayer, LocalPlayer], work=[396*, 0*]
258: 0x0E56 [0x5B] LOAD_EXT_SCHEDULER: Load scheduler "tl01" with entities [Cait Sith Naoi (ID: 17114029/0x010523AD), Cait Sith Naoi (ID: 17114029/0x010523AD)], work=2473*
259: 0x0E65 [0xBA] SET_ENTITY_POSITION(entity_id=Aquila (ID: 17114020/0x010523A4), pos_x=42.022*, pos_z=320.113*, pos_y=0.000*, direction=90.0°*)
260: 0x0E72 [0x5B] LOAD_EXT_SCHEDULER: Load scheduler "cat0" with entities [Aquila (ID: 17114020/0x010523A4), Aquila (ID: 17114020/0x010523A4)], work=2187*
261: 0x0E81 [0x5B] LOAD_EXT_SCHEDULER: Load scheduler "kyr0" with entities [Cait Sith Ochd (ID: 17114028/0x010523AC), Cait Sith Ochd (ID: 17114028/0x010523AC)], work=2107*
262: 0x0E90 [0x7A] VM_CONTROL: Reset VM for Cait Sith Aon (ID: 17114021/0x010523A5)
263: 0x0E96 [0x1C] WAIT(120* ticks)
264: 0x0E99 [0x52] END_LOAD_SCHEDULER: End scheduler "3473" with entities [LocalPlayer, LocalPlayer], work=396*
265: 0x0EA8 [0x45] LOAD_SCHEDULED_TASK: Load scheduler "3488" with entities [LocalPlayer, LocalPlayer], work=[396*, 0*]
266: 0x0EB9 [0x1C] WAIT(150* ticks)
267: 0x0EBC [0x52] END_LOAD_SCHEDULER: End scheduler "3488" with entities [LocalPlayer, LocalPlayer], work=396*
268: 0x0ECB [0x45] LOAD_SCHEDULED_TASK: Load scheduler "3407" with entities [LocalPlayer, LocalPlayer], work=[396*, 0*]
269: 0x0EDC [0x1C] WAIT(120* ticks)
270: 0x0EDF [0xBA] SET_ENTITY_POSITION(entity_id=LocalPlayer, pos_x=54.984*, pos_z=302.955*, pos_y=-0.550*, direction=234.2°*)
271: 0x0EEC [0xBA] SET_ENTITY_POSITION(entity_id=Cait Sith Coig (ID: 17114025/0x010523A9), pos_x=48.653*, pos_z=319.845*, pos_y=0.204*, direction=202.1°*)
272: 0x0EF9 [0xBA] SET_ENTITY_POSITION(entity_id=??? (ID: 17114030/0x010523AE), pos_x=48.057*, pos_z=319.839*, pos_y=0.174*, direction=212.6°*)
273: 0x0F06 [0xBA] SET_ENTITY_POSITION(entity_id=Cait Sith Aon (ID: 17114021/0x010523A5), pos_x=0.000*, pos_z=0.000*, pos_y=0.000*, direction=0.0°*)
274: 0x0F13 [0xBA] SET_ENTITY_POSITION(entity_id=Cait Sith Dha (ID: 17114022/0x010523A6), pos_x=0.000*, pos_z=0.000*, pos_y=0.000*, direction=0.0°*)
275: 0x0F20 [0xBA] SET_ENTITY_POSITION(entity_id=Cait Sith Seachd (ID: 17114027/0x010523AB), pos_x=0.000*, pos_z=0.000*, pos_y=0.000*, direction=0.0°*)
276: 0x0F2D [0xBA] SET_ENTITY_POSITION(entity_id=Cait Sith Ceithir (ID: 17114024/0x010523A8), pos_x=0.000*, pos_z=0.000*, pos_y=0.000*, direction=0.0°*)
277: 0x0F3A [0xBA] SET_ENTITY_POSITION(entity_id=Cait Sith Sia (ID: 17114026/0x010523AA), pos_x=0.000*, pos_z=0.000*, pos_y=0.000*, direction=0.0°*)
278: 0x0F47 [0xBA] SET_ENTITY_POSITION(entity_id=Cait Sith Ochd (ID: 17114028/0x010523AC), pos_x=0.000*, pos_z=0.000*, pos_y=0.000*, direction=0.0°*)
279: 0x0F54 [0xBA] SET_ENTITY_POSITION(entity_id=Cait Sith Tri (ID: 17114023/0x010523A7), pos_x=0.000*, pos_z=0.000*, pos_y=0.000*, direction=0.0°*)
280: 0x0F61 [0xBA] SET_ENTITY_POSITION(entity_id=Cait Sith Naoi (ID: 17114029/0x010523AD), pos_x=0.000*, pos_z=0.000*, pos_y=0.000*, direction=0.0°*)
281: 0x0F6E [0xBA] SET_ENTITY_POSITION(entity_id=Aquila (ID: 17114020/0x010523A4), pos_x=0.000*, pos_z=0.000*, pos_y=0.000*, direction=0.0°*)
282: 0x0F7B [0x4A] Cait Sith Coig (ID: 17114025/0x010523A9) looks at ??? (ID: 17114030/0x010523AE)
283: 0x0F84 [0x7C] Lilisette (ID: 17114015/0x0105239F)->Render.Flags2 |= 0x00
284: 0x0F8A [0x5B] LOAD_EXT_SCHEDULER: Load scheduler "kwa0" with entities [Lilisette (ID: 17114015/0x0105239F), Lilisette (ID: 17114015/0x0105239F)], work=2479*
285: 0x0F99 [0x52] END_LOAD_SCHEDULER: End scheduler "3407" with entities [LocalPlayer, LocalPlayer], work=396*
286: 0x0FA8 [0x45] LOAD_SCHEDULED_TASK: Load scheduler "3408" with entities [LocalPlayer, LocalPlayer], work=[396*, 0*]
287: 0x0FB9 [0x1C] WAIT(60* ticks)
288: 0x0FBC [0x5B] LOAD_EXT_SCHEDULER: Load scheduler "trp0" with entities [Cait Sith Coig (ID: 17114025/0x010523A9), Cait Sith Coig (ID: 17114025/0x010523A9)], work=2467*
289: 0x0FCB [0xC5] LOAD_SCHEDULED_TASK_ALT3: Load scheduler 0x800D6E69 for entities [??? (ID: 17114030/0x010523AE), ??? (ID: 17114030/0x010523AE)], work=30*, param=24941
290: 0x0FDC [0x1C] WAIT(5* ticks)
291: 0x0FDF [0x52] END_LOAD_SCHEDULER: End scheduler "3409" with entities [LocalPlayer, LocalPlayer], work=396*
292: 0x0FEE [0x45] LOAD_SCHEDULED_TASK: Load scheduler "3410" with entities [LocalPlayer, LocalPlayer], work=[396*, 0*]
293: 0x0FFF [0x81] SET_ENTITY_BLINKING(blink_flag=0x00, entity=Cait Sith Coig (ID: 17114025/0x010523A9))
294: 0x1005 [0x03] Work_Zone[2] = 540*
295: 0x100A [0x27] REQ_SET(priority=0x10, entity_id=??? (ID: 17114030/0x010523AE), tag_num=0x01)
296: 0x1011 [0x1C] WAIT(120* ticks)
297: 0x1014 [0x52] END_LOAD_SCHEDULER: End scheduler "3410" with entities [LocalPlayer, LocalPlayer], work=396*
298: 0x1023 [0x45] LOAD_SCHEDULED_TASK: Load scheduler "3411" with entities [LocalPlayer, LocalPlayer], work=[396*, 0*]
299: 0x1034 [0x1C] WAIT(120* ticks)
300: 0x1037 [0x1C] WAIT(300* ticks)
301: 0x103A [0x52] END_LOAD_SCHEDULER: End scheduler "3411" with entities [LocalPlayer, LocalPlayer], work=396*
302: 0x1049 [0x45] LOAD_SCHEDULED_TASK: Load scheduler "3414" with entities [LocalPlayer, LocalPlayer], work=[396*, 0*]
303: 0x105A [0xC5] LOAD_SCHEDULED_TASK_ALT3: Load scheduler 0x800D3030 for entities [Cait Sith Coig (ID: 17114025/0x010523A9), Cait Sith Coig (ID: 17114025/0x010523A9)], work=37*, param=12403
304: 0x106B [0x1C] WAIT(60* ticks)
305: 0x106E [0x6B] STOP_AND_IDLE: Lilisette (ID: 17114015/0x0105239F) stops current action and resets to idle (animation="idl0")
306: 0x1077 [0x1C] WAIT(60* ticks)
307: 0x107A [0x27] REQ_SET(priority=0x10, entity_id=Unnamed NPC (ID: 17114031/0x010523AF), tag_num=0x06)
308: 0x1081 [0x1C] WAIT(90* ticks)
309: 0x1084 [0x6B] STOP_AND_IDLE: LocalPlayer stops current action and resets to idle (animation="idl0")
310: 0x108D [0x5B] LOAD_EXT_SCHEDULER: Load scheduler "pul3" with entities [Lilisette (ID: 17114015/0x0105239F), Lilisette (ID: 17114015/0x0105239F)], work=2148*
311: 0x109C [0x1C] WAIT(5* ticks)
312: 0x109F [0x52] END_LOAD_SCHEDULER: End scheduler "3414" with entities [LocalPlayer, LocalPlayer], work=396*
313: 0x10AE [0x45] LOAD_SCHEDULED_TASK: Load scheduler "3416" with entities [LocalPlayer, LocalPlayer], work=[396*, 0*]
314: 0x10BF [0x1C] WAIT(45* ticks)
315: 0x10C2 [0x27] REQ_SET(priority=0x10, entity_id=??? (ID: 17114030/0x010523AE), tag_num=0x04)
316: 0x10C9 [0x1C] WAIT(90* ticks)
317: 0x10CC [0x5D] SET_MUSIC_VOLUME(volume=0*, fade_time=120*)
318: 0x10D1 [0x1A] CALL_SUBROUTINE(address=0x1258)
319: 0x10D4 [0x1C] WAIT(30* ticks)
320: 0x10D7 [0x6B] STOP_AND_IDLE: Lilisette (ID: 17114015/0x0105239F) stops current action and resets to idle (animation="idl0")
321: 0x10E0 [0xBA] SET_ENTITY_POSITION(entity_id=??? (ID: 17114030/0x010523AE), pos_x=0.000*, pos_z=0.000*, pos_y=0.000*, direction=0.0°*)
322: 0x10ED [0xBA] SET_ENTITY_POSITION(entity_id=Lilisette (ID: 17114015/0x0105239F), pos_x=0.000*, pos_z=0.000*, pos_y=0.000*, direction=0.0°*)
323: 0x10FA [0xBA] SET_ENTITY_POSITION(entity_id=Cait Sith Coig (ID: 17114025/0x010523A9), pos_x=0.000*, pos_z=0.000*, pos_y=0.000*, direction=0.0°*)
324: 0x1107 [0xC5] LOAD_SCHEDULED_TASK_ALT3: Load scheduler 0x800D6C6C for entities [??? (ID: 17114030/0x010523AE), ??? (ID: 17114030/0x010523AE)], work=30*, param=26987
325: 0x1118 [0xC5] LOAD_SCHEDULED_TASK_ALT3: Load scheduler 0x800D306C for entities [Cait Sith Coig (ID: 17114025/0x010523A9), Cait Sith Coig (ID: 17114025/0x010523A9)], work=37*, param=26987
326: 0x1129 [0x78] ENABLE_GAME_TIMER_RESET_WEATHER()
327: 0x112A [0x1C] WAIT(15* ticks)
328: 0x112D [0xAB] EventEntity->UnknownFlag = 0 // Disable unknown flag
329: 0x112F [0x1C] WAIT(120* ticks)
330: 0x1132 [0x4E] SET_ENTITY_HIDE_FLAG: Show Unnamed NPC (ID: 17114040/0x010523B8)
331: 0x1138 [0x1C] WAIT(60* ticks)
332: 0x113B [0xBA] SET_ENTITY_POSITION(entity_id=LocalPlayer, pos_x=47.535*, pos_z=309.804*, pos_y=0.022*, direction=148.7°*)
333: 0x1148 [0x1C] WAIT(60* ticks)
334: 0x114B [0x80] LOAD_WAIT(entity=LocalPlayer)
335: 0x1150 [0x1C] WAIT(60* ticks)
336: 0x1153 [0x79] LocalPlayer looks at Unnamed NPC (ID: 17114040/0x010523B8) (Basic look)
337: 0x115D [0x45] LOAD_SCHEDULED_TASK: Load scheduler "kaif" with entities [LocalPlayer, LocalPlayer], work=[396*, 0*]
338: 0x116E [0x45] LOAD_SCHEDULED_TASK: Load scheduler "0002" with entities [LocalPlayer, LocalPlayer], work=[552*, 0*]
339: 0x117F [0x1A] CALL_SUBROUTINE(address=0x1237)
340: 0x1182 [0x69] SET_SOUND_VOLUME: Unmute Effects/Master
341: 0x1186 [0x1C] WAIT(180* ticks)
342: 0x1189 [0x1A] CALL_SUBROUTINE(address=0x1216)
343: 0x118C [0x1C] WAIT(30* ticks)
344: 0x118F [0x52] END_LOAD_SCHEDULER: End scheduler "0002" with entities [LocalPlayer, LocalPlayer], work=552*
345: 0x119E [0x46] CAMERA_CONTROL: Restore default settings
346: 0x11A0 [0x45] LOAD_SCHEDULED_TASK: Load scheduler "fdi2" with entities [LocalPlayer, LocalPlayer], work=[200*, 0*]
347: 0x11B1 [0x21] END_EVENT
348: 0x11B2 [0x00] END_REQSTACK()

SUBROUTINE_11F5:
349: 0x11F5 [0x45] LOAD_SCHEDULED_TASK: Load scheduler "fdi1" with entities [LocalPlayer, LocalPlayer], work=[200*, 0*]
350: 0x1206 [0x55] WAIT_LOAD_SCHEDULER: Wait for scheduler "fdi1" with entities [LocalPlayer, LocalPlayer], work=200*
351: 0x1215 [0x1B] RETURN

SUBROUTINE_1216:
352: 0x1216 [0x45] LOAD_SCHEDULED_TASK: Load scheduler "fdo1" with entities [LocalPlayer, LocalPlayer], work=[200*, 0*]
353: 0x1227 [0x55] WAIT_LOAD_SCHEDULER: Wait for scheduler "fdo1" with entities [LocalPlayer, LocalPlayer], work=200*
354: 0x1236 [0x1B] RETURN

SUBROUTINE_1237:
355: 0x1237 [0x45] LOAD_SCHEDULED_TASK: Load scheduler "whi1" with entities [LocalPlayer, LocalPlayer], work=[201*, 0*]
356: 0x1248 [0x55] WAIT_LOAD_SCHEDULER: Wait for scheduler "whi1" with entities [LocalPlayer, LocalPlayer], work=201*
357: 0x1257 [0x1B] RETURN

SUBROUTINE_1258:
358: 0x1258 [0x45] LOAD_SCHEDULED_TASK: Load scheduler "who1" with entities [LocalPlayer, LocalPlayer], work=[201*, 0*]
359: 0x1269 [0x55] WAIT_LOAD_SCHEDULER: Wait for scheduler "who1" with entities [LocalPlayer, LocalPlayer], work=201*
360: 0x1278 [0x1B] RETURN
```

#### Data or dead code:

```
# Dead code (unreachable instructions):
     0x11B3 [0x45] LOAD_SCHEDULED_TASK: Load scheduler "fdi0" with entities [LocalPlayer, LocalPlayer], work=[200*, 0*]
     0x11C4 [0x55] WAIT_LOAD_SCHEDULER: Wait for scheduler "fdi0" with entities [LocalPlayer, LocalPlayer], work=200*
     0x11D3 [0x1B] RETURN
     0x11D4 [0x45] LOAD_SCHEDULED_TASK: Load scheduler "fdo0" with entities [LocalPlayer, LocalPlayer], work=[200*, 0*]
     0x11E5 [0x55] WAIT_LOAD_SCHEDULER: Wait for scheduler "fdo0" with entities [LocalPlayer, LocalPlayer], work=200*
     0x11F4 [0x1B] RETURN
# Dead code (unreachable instructions):
     0x1279 [0x45] LOAD_SCHEDULED_TASK: Load scheduler "who2" with entities [LocalPlayer, LocalPlayer], work=[201*, 0*]
     0x128A [0x55] WAIT_LOAD_SCHEDULER: Wait for scheduler "who2" with entities [LocalPlayer, LocalPlayer], work=201*
     0x1299 [0x1B] RETURN
     0x129A [0x45] LOAD_SCHEDULED_TASK: Load scheduler "who3" with entities [LocalPlayer, LocalPlayer], work=[201*, 0*]
     0x12AB [0x55] WAIT_LOAD_SCHEDULER: Wait for scheduler "who3" with entities [LocalPlayer, LocalPlayer], work=201*
     0x12BA [0x1B] RETURN
     0x12BB [0x62] LOAD_EVENT_SCHEDULER: Load scheduler "main" with entities [LocalPlayer, LocalPlayer], work=[1*, 0*]
     0x12CC [0x1C] WAIT(45* ticks)
     0x12CF [0x45] LOAD_SCHEDULED_TASK: Load scheduler "fdo1" with entities [LocalPlayer, LocalPlayer], work=[200*, 0*]
     0x12E0 [0x55] WAIT_LOAD_SCHEDULER: Wait for scheduler "fdo1" with entities [LocalPlayer, LocalPlayer], work=200*
     0x12EF [0x1B] RETURN
     0x12F0 [0x45] LOAD_SCHEDULED_TASK: Load scheduler "fdi1" with entities [LocalPlayer, LocalPlayer], work=[200*, 0*]
     0x1301 [0x62] LOAD_EVENT_SCHEDULER: Load scheduler "main" with entities [LocalPlayer, LocalPlayer], work=[2*, 0*]
     0x1312 [0x1C] WAIT(30* ticks)
     0x1315 [0x55] WAIT_LOAD_SCHEDULER: Wait for scheduler "fdi1" with entities [LocalPlayer, LocalPlayer], work=200*
     0x1324 [0x1B] RETURN
     0x1325 [0x45] LOAD_SCHEDULED_TASK: Load scheduler "blon" with entities [LocalPlayer, LocalPlayer], work=[200*, 0*]
     0x1336 [0x45] LOAD_SCHEDULED_TASK: Load scheduler "blon" with entities [LocalPlayer, LocalPlayer], work=[201*, 0*]
     0x1347 [0x1B] RETURN
     0x1348 [0x45] LOAD_SCHEDULED_TASK: Load scheduler "whi0" with entities [LocalPlayer, LocalPlayer], work=[201*, 0*]
     0x1359 [0x55] WAIT_LOAD_SCHEDULER: Wait for scheduler "whi0" with entities [LocalPlayer, LocalPlayer], work=201*
     0x1368 [0x1B] RETURN
     0x1369 [0x45] LOAD_SCHEDULED_TASK: Load scheduler "who0" with entities [LocalPlayer, LocalPlayer], work=[201*, 0*]
     0x137A [0x55] WAIT_LOAD_SCHEDULER: Wait for scheduler "who0" with entities [LocalPlayer, LocalPlayer], work=201*
     0x1389 [0x1B] RETURN
     0x138A [0x45] LOAD_SCHEDULED_TASK: Load scheduler "efon" with entities [LocalPlayer, LocalPlayer], work=[215*, 0*]
     0x139B [0x55] WAIT_LOAD_SCHEDULER: Wait for scheduler "efon" with entities [LocalPlayer, LocalPlayer], work=215*
     0x13AA [0x1B] RETURN
     0x13AB [0x45] LOAD_SCHEDULED_TASK: Load scheduler "fdis" with entities [LocalPlayer, LocalPlayer], work=[200*, 0*]
     0x13BC [0x1B] RETURN
     0x13BD [0x45] LOAD_SCHEDULED_TASK: Load scheduler "fdos" with entities [LocalPlayer, LocalPlayer], work=[200*, 0*]
     0x13CE [0x55] WAIT_LOAD_SCHEDULER: Wait for scheduler "fdos" with entities [LocalPlayer, LocalPlayer], work=200*
     0x13DD [0x1B] RETURN
     0x13DE [0x45] LOAD_SCHEDULED_TASK: Load scheduler "fdif" with entities [LocalPlayer, LocalPlayer], work=[200*, 0*]
     0x13EF [0x1B] RETURN
     0x13F0 [0x45] LOAD_SCHEDULED_TASK: Load scheduler "fdof" with entities [LocalPlayer, LocalPlayer], work=[200*, 0*]
     0x1401 [0x55] WAIT_LOAD_SCHEDULER: Wait for scheduler "fdof" with entities [LocalPlayer, LocalPlayer], work=200*
     0x1410 [0x1B] RETURN
     0x1411 [0x45] LOAD_SCHEDULED_TASK: Load scheduler "fdip" with entities [LocalPlayer, LocalPlayer], work=[200*, 0*]
     0x1422 [0x1B] RETURN
     0x1423 [0x45] LOAD_SCHEDULED_TASK: Load scheduler "fdop" with entities [LocalPlayer, LocalPlayer], work=[200*, 0*]
     0x1434 [0x55] WAIT_LOAD_SCHEDULER: Wait for scheduler "fdop" with entities [LocalPlayer, LocalPlayer], work=200*
     0x1443 [0x1B] RETURN
```
