# 17113879 - _2a0

## Common Data

| Field            | Value                      |
|------------------|----------------------------|
| Zone             | Jugner Forest [S] (ID: 82) |
| Block Size       | 1596 bytes                 |
| Total Events     | 7                          |
| References Count | 61                         |

## List of Events

| Event ID              | Entrypoint   |   Size |   Instructions |
|-----------------------|--------------|--------|----------------|
| [65535](#event-65535) | 0x0000       |      1 |              1 |
| [219](#event-219)     | 0x0001       |     14 |              6 |
| [220](#event-220)     | 0x000F       |     22 |              8 |
| [221](#event-221)     | 0x0025       |     27 |              9 |
| [223](#event-223)     | 0x0040       |     14 |              6 |
| [224](#event-224)     | 0x004E       |     14 |              6 |
| [222](#event-222)     | 0x005C       |   1213 |            193 |

## DAT References (imed_data)

|   Index | Hex Value   |   Dec Value |
|---------|-------------|-------------|
|       0 | 0x1F43      |        8003 |
|       1 | 0x1F44      |        8004 |
|       2 | 0x1F45      |        8005 |
|       3 | 0x1F46      |        8006 |
|       4 | 0x4097      |       16535 |
|       5 | 0x1F47      |        8007 |
|       6 | 0x1F5F      |        8031 |
|       7 | 0x1F60      |        8032 |
|       8 | 0x00C8      |         200 |
|       9 | 0x0000      |           0 |
|      10 | 0x003C      |          60 |
|      11 | 0x0013      |          19 |
|      12 | 0xFFFDCD80  |  4294823296 |
|      13 | 0x78518     |      492824 |
|      14 | 0x046C      |        1132 |
|      15 | 0x0239      |         569 |
|      16 | 0xFFFDD3BF  |  4294824895 |
|      17 | 0x77E1A     |      491034 |
|      18 | 0x0626      |        1574 |
|      19 | 0x0161      |         353 |
|      20 | 0x01C9      |         457 |
|      21 | 0x0014      |          20 |
|      22 | 0x0020      |          32 |
|      23 | 0x1F48      |        8008 |
|      24 | 0x1F49      |        8009 |
|      25 | 0x001D      |          29 |
|      26 | 0x0078      |         120 |
|      27 | 0x0022      |          34 |
|      28 | 0x001A      |          26 |
|      29 | 0x1F4A      |        8010 |
|      30 | 0x1F4B      |        8011 |
|      31 | 0x1F4C      |        8012 |
|      32 | 0x1F4D      |        8013 |
|      33 | 0x00F0      |         240 |
|      34 | 0x0001      |           1 |
|      35 | 0x1F4E      |        8014 |
|      36 | 0x1F4F      |        8015 |
|      37 | 0x1F50      |        8016 |
|      38 | 0x1F51      |        8017 |
|      39 | 0x0016      |          22 |
|      40 | 0x1F52      |        8018 |
|      41 | 0x1F53      |        8019 |
|      42 | 0x1F56      |        8022 |
|      43 | 0x1F54      |        8020 |
|      44 | 0x0002      |           2 |
|      45 | 0x0004      |           4 |
|      46 | 0x1F55      |        8021 |
|      47 | 0x1F57      |        8023 |
|      48 | 0x1F58      |        8024 |
|      49 | 0x1F59      |        8025 |
|      50 | 0x0019      |          25 |
|      51 | 0x1F5A      |        8026 |
|      52 | 0x0021      |          33 |
|      53 | 0x1F5B      |        8027 |
|      54 | 0x0003      |           3 |
|      55 | 0x0015      |          21 |
|      56 | 0x1F5C      |        8028 |
|      57 | 0x1F5D      |        8029 |
|      58 | 0x0007      |           7 |
|      59 | 0x1F5E      |        8030 |
|      60 | 0x0024      |          36 |

## String References

- **8011**: Something you need? [Ask for fishing advice./Ask about Exoroche.]
- **8015**: Has Exoroche been a nuisance? [Yes...the lousy punk./Not in the slightest!]
- **8019**: Why do you return the blade? [The boy's spirit is true./I've got a better one./My Gobbiebag was full.]
- **8023**: What does Exoroche aspire to do? [Earn the blade back from his father./Sell it and frivol away the money./Win fame and adulation in battle./Protect his family and kingdom.]

## Events

### Event 65535

#### Metadata

| Field        | Value   |
|--------------|---------|
| Entrypoint   | 0x0000  |
| Data Size    | 1 bytes |
| Instructions | 1       |

```
      00 01 02 03 04 05 06 07  08 09 0A 0B 0C 0D 0E 0F
      -- -- -- -- -- -- -- --  -- -- -- -- -- -- -- --
0000: 00                                                .               
```

#### Opcodes

```
  0: 0x0000 [0x00] END_REQSTACK()
```

### Event 219

#### Metadata

| Field        | Value    |
|--------------|----------|
| Entrypoint   | 0x0001   |
| Data Size    | 14 bytes |
| Instructions | 6        |

```
      00 01 02 03 04 05 06 07  08 09 0A 0B 0C 0D 0E 0F
      -- -- -- -- -- -- -- --  -- -- -- -- -- -- -- --
0000:    20 01 2B 37 23 05 01  00 80 23 20 00 21 00       .+7#....# .!. 
```

#### Opcodes

```
  0: 0x0001 [0x20] SET_CLI_EVENT_UC_FLAG: Lock player control
  1: 0x0003 [0x2B] Landeric (ID: 17113911/0x01052337) [8003*]:
    → "Silence those blundering footsteps, [man/woman]! You'll cost me my prize catch."
  2: 0x000A [0x23] WAIT_FOR_DIALOG_INTERACTION
  3: 0x000B [0x20] SET_CLI_EVENT_UC_FLAG: Unlock player control
  4: 0x000D [0x21] END_EVENT
  5: 0x000E [0x00] END_REQSTACK()
```

### Event 220

#### Metadata

| Field        | Value    |
|--------------|----------|
| Entrypoint   | 0x000F   |
| Data Size    | 22 bytes |
| Instructions | 8        |

```
      00 01 02 03 04 05 06 07  08 09 0A 0B 0C 0D 0E 0F
      -- -- -- -- -- -- -- --  -- -- -- -- -- -- -- --
0000:                                               20                  
0010: 01 2B 37 23 05 01 01 80  23 2B 37 23 05 01 02 80  .+7#....#+7#....
0020: 23 20 00 21 00                                    # .!.           
```

#### Opcodes

```
  0: 0x000F [0x20] SET_CLI_EVENT_UC_FLAG: Lock player control
  1: 0x0011 [0x2B] Landeric (ID: 17113911/0x01052337) [8004*]:
    → "Silence, I said-- What's that? My son is looking for me at San d'Oria Eastgate?"
  2: 0x0018 [0x23] WAIT_FOR_DIALOG_INTERACTION
  3: 0x0019 [0x2B] Landeric (ID: 17113911/0x01052337) [8005*]:
    → "...And bawling his eyes out, I imagine. Thank you for your troubles. Tell him to remain where he is, and that I shall return after I have seen to my errands."
  4: 0x0020 [0x23] WAIT_FOR_DIALOG_INTERACTION
  5: 0x0021 [0x20] SET_CLI_EVENT_UC_FLAG: Unlock player control
  6: 0x0023 [0x21] END_EVENT
  7: 0x0024 [0x00] END_REQSTACK()
```

### Event 221

#### Metadata

| Field        | Value    |
|--------------|----------|
| Entrypoint   | 0x0025   |
| Data Size    | 27 bytes |
| Instructions | 9        |

```
      00 01 02 03 04 05 06 07  08 09 0A 0B 0C 0D 0E 0F
      -- -- -- -- -- -- -- --  -- -- -- -- -- -- -- --
0020:                20 01 2B  37 23 05 01 03 80 23 03        .+7#....#.
0030: 02 10 04 80 2B 37 23 05  01 05 80 23 20 00 21 00  ....+7#....# .!.
```

#### Opcodes

```
  0: 0x0025 [0x20] SET_CLI_EVENT_UC_FLAG: Lock player control
  1: 0x0027 [0x2B] Landeric (ID: 17113911/0x01052337) [8006*]:
    → "Ah, it's you again. Pray accept my apologies for my son's shameful behavior the other day."
  2: 0x002E [0x23] WAIT_FOR_DIALOG_INTERACTION
  3: 0x002F [0x03] Work_Zone[2] = 16535*
  4: 0x0034 [0x2B] Landeric (ID: 17113911/0x01052337) [8007*]:
    → "I trust your new $0 is serving you well?"
  5: 0x003B [0x23] WAIT_FOR_DIALOG_INTERACTION
  6: 0x003C [0x20] SET_CLI_EVENT_UC_FLAG: Unlock player control
  7: 0x003E [0x21] END_EVENT
  8: 0x003F [0x00] END_REQSTACK()
```

### Event 223

#### Metadata

| Field        | Value    |
|--------------|----------|
| Entrypoint   | 0x0040   |
| Data Size    | 14 bytes |
| Instructions | 6        |

```
      00 01 02 03 04 05 06 07  08 09 0A 0B 0C 0D 0E 0F
      -- -- -- -- -- -- -- --  -- -- -- -- -- -- -- --
0040: 20 01 2B 37 23 05 01 06  80 23 20 00 21 00         .+7#....# .!.  
```

#### Opcodes

```
  0: 0x0040 [0x20] SET_CLI_EVENT_UC_FLAG: Lock player control
  1: 0x0042 [0x2B] Landeric (ID: 17113911/0x01052337) [8031*]:
    → "Forgive me, but there are still fish to be caught before my return. Tell my son that I will be along in due time."
  2: 0x0049 [0x23] WAIT_FOR_DIALOG_INTERACTION
  3: 0x004A [0x20] SET_CLI_EVENT_UC_FLAG: Unlock player control
  4: 0x004C [0x21] END_EVENT
  5: 0x004D [0x00] END_REQSTACK()
```

### Event 224

#### Metadata

| Field        | Value    |
|--------------|----------|
| Entrypoint   | 0x004E   |
| Data Size    | 14 bytes |
| Instructions | 6        |

```
      00 01 02 03 04 05 06 07  08 09 0A 0B 0C 0D 0E 0F
      -- -- -- -- -- -- -- --  -- -- -- -- -- -- -- --
0040:                                            20 01                 .
0050: 2B 37 23 05 01 07 80 23  20 00 21 00              +7#....# .!.    
```

#### Opcodes

```
  0: 0x004E [0x20] SET_CLI_EVENT_UC_FLAG: Lock player control
  1: 0x0050 [0x2B] Landeric (ID: 17113911/0x01052337) [8032*]:
    → "My thanks again for what you did for my son. I shall endeavor to see him raised to be as strong and honorable as yourself."
  2: 0x0057 [0x23] WAIT_FOR_DIALOG_INTERACTION
  3: 0x0058 [0x20] SET_CLI_EVENT_UC_FLAG: Unlock player control
  4: 0x005A [0x21] END_EVENT
  5: 0x005B [0x00] END_REQSTACK()
```

### Event 222

#### Metadata

| Field        | Value      |
|--------------|------------|
| Entrypoint   | 0x005C     |
| Data Size    | 1213 bytes |
| Instructions | 96         |

```
      00 01 02 03 04 05 06 07  08 09 0A 0B 0C 0D 0E 0F
      -- -- -- -- -- -- -- --  -- -- -- -- -- -- -- --
0050:                                      20 01 42 46               .BF
0060: 01 45 08 80 F0 FF FF 7F  F0 FF FF 7F 66 64 6F 31  .E..........fdo1
0070: 09 80 1C 0A 80 38 0B 80  BA F0 FF FF 7F 0C 80 0D  .....8..........
0080: 80 0E 80 0F 80 80 F0 FF  FF 7F 4E 00 38 23 05 01  ..........N.8#..
0090: BA 38 23 05 01 10 80 11  80 12 80 13 80 92 01 38  .8#............8
00A0: 23 05 01 80 38 23 05 01  4A 38 23 05 01 F0 FF FF  #...8#..J8#.....
00B0: 7F 45 14 80 F0 FF FF 7F  F0 FF FF 7F 35 37 30 36  .E..........5706
00C0: 09 80 45 08 80 F0 FF FF  7F F0 FF FF 7F 66 64 69  ..E..........fdi
00D0: 31 09 80 1C 0A 80 02 02  10 09 80 01 E1 00 01 66  1..............f
00E0: 01 66 15 80 38 23 05 01  38 23 05 01 74 6C 6B 30  .f..8#..8#..tlk0
00F0: 2B 38 23 05 01 03 80 23  6E 38 23 05 01 16 80 99  +8#....#n8#.....
0100: 38 23 05 01 2B 38 23 05  01 17 80 23 66 15 80 38  8#..+8#....#f..8
0110: 23 05 01 38 23 05 01 74  6C 6B 30 2B 38 23 05 01  #..8#..tlk0+8#..
0120: 18 80 23 4B 38 23 05 01  13 80 66 19 80 38 23 05  ..#K8#....f..8#.
0130: 01 38 23 05 01 73 68 61  30 1C 1A 80 6E F0 FF FF  .8#..sha0...n...
0140: 7F 1B 80 99 F0 FF FF 7F  1C 1A 80 66 19 80 38 23  ...........f..8#
0150: 05 01 38 23 05 01 73 68  61 31 1C 1A 80 4A 38 23  ..8#..sha1...J8#
0160: 05 01 F0 FF FF 7F 6E 38  23 05 01 1C 80 99 38 23  ......n8#.....8#
0170: 05 01 2B 38 23 05 01 1D  80 23 24 1E 80 09 80 09  ..+8#....#$.....
0180: 80 25 02 00 10 09 80 00  C8 01 66 15 80 38 23 05  .%........f..8#.
0190: 01 38 23 05 01 74 6C 6B  30 2B 38 23 05 01 1F 80  .8#..tlk0+8#....
01A0: 23 2B 38 23 05 01 20 80  23 66 15 80 38 23 05 01  #+8#.. .#f..8#..
01B0: 38 23 05 01 70 61 73 30  1C 21 80 4B 38 23 05 01  8#..pas0.!.K8#..
01C0: 13 80 01 DF 04 01 FC 01  02 00 10 22 80 00 FC 01  ..........."....
01D0: 66 15 80 38 23 05 01 38  23 05 01 74 6C 6B 30 2B  f..8#..8#..tlk0+
01E0: 38 23 05 01 23 80 23 66  15 80 38 23 05 01 38 23  8#..#.#f..8#..8#
01F0: 05 01 74 6C 6B 31 01 FC  01 01 FC 01 24 24 80 09  ..tlk1......$$..
0200: 80 09 80 25 02 00 10 09  80 00 47 02 6E 38 23 05  ...%......G.n8#.
0210: 01 1C 80 99 38 23 05 01  2B 38 23 05 01 25 80 23  ....8#..+8#..%.#
0220: 2B 38 23 05 01 20 80 23  66 15 80 38 23 05 01 38  +8#.. .#f..8#..8
0230: 23 05 01 70 61 73 30 1C  21 80 4B 38 23 05 01 13  #..pas0.!.K8#...
0240: 80 01 DF 04 01 80 02 02  00 10 22 80 00 80 02 66  .........."....f
0250: 15 80 38 23 05 01 38 23  05 01 74 6C 6B 30 2B 38  ..8#..8#..tlk0+8
0260: 23 05 01 26 80 23 6E 38  23 05 01 27 80 99 38 23  #..&.#n8#..'..8#
0270: 05 01 2B 38 23 05 01 28  80 23 01 80 02 01 80 02  ..+8#..(.#......
0280: 24 29 80 09 80 09 80 25  02 00 10 09 80 00 9E 02  $).....%........
0290: 2B 38 23 05 01 2A 80 23  01 24 03 01 24 03 02 00  +8#..*.#.$..$...
02A0: 10 22 80 00 E1 02 6E 38  23 05 01 0B 80 99 38 23  ."....n8#.....8#
02B0: 05 01 2B 38 23 05 01 2B  80 23 2B 38 23 05 01 20  ..+8#..+.#+8#.. 
02C0: 80 23 66 15 80 38 23 05  01 38 23 05 01 70 61 73  .#f..8#..8#..pas
02D0: 30 1C 21 80 4B 38 23 05  01 13 80 01 DF 04 01 24  0.!.K8#........$
02E0: 03 02 00 10 2C 80 00 24  03 6E 38 23 05 01 2D 80  ....,..$.n8#..-.
02F0: 99 38 23 05 01 2B 38 23  05 01 2E 80 23 2B 38 23  .8#..+8#....#+8#
0300: 05 01 20 80 23 66 15 80  38 23 05 01 38 23 05 01  .. .#f..8#..8#..
0310: 70 61 73 30 1C 21 80 4B  38 23 05 01 13 80 01 DF  pas0.!.K8#......
0320: 04 01 24 03 24 2F 80 09  80 09 80 25 02 00 10 09  ..$.$/.....%....
0330: 80 00 86 03 6E 38 23 05  01 16 80 99 38 23 05 01  ....n8#.....8#..
0340: 2B 38 23 05 01 30 80 23  66 15 80 38 23 05 01 38  +8#..0.#f..8#..8
0350: 23 05 01 74 6C 6B 30 2B  38 23 05 01 31 80 23 2B  #..tlk0+8#..1.#+
0360: 38 23 05 01 20 80 23 66  15 80 38 23 05 01 38 23  8#.. .#f..8#..8#
0370: 05 01 70 61 73 30 1C 21  80 4B 38 23 05 01 13 80  ..pas0.!.K8#....
0380: 01 DF 04 01 DF 04 02 00  10 22 80 00 C9 03 6E 38  ........."....n8
0390: 23 05 01 32 80 99 38 23  05 01 2B 38 23 05 01 33  #..2..8#..+8#..3
03A0: 80 23 2B 38 23 05 01 20  80 23 66 15 80 38 23 05  .#+8#.. .#f..8#.
03B0: 01 38 23 05 01 70 61 73  30 1C 21 80 4B 38 23 05  .8#..pas0.!.K8#.
03C0: 01 13 80 01 DF 04 01 DF  04 02 00 10 2C 80 00 0C  ............,...
03D0: 04 6E 38 23 05 01 34 80  99 38 23 05 01 2B 38 23  .n8#..4..8#..+8#
03E0: 05 01 35 80 23 2B 38 23  05 01 20 80 23 66 15 80  ..5.#+8#.. .#f..
03F0: 38 23 05 01 38 23 05 01  70 61 73 30 1C 21 80 4B  8#..8#..pas0.!.K
0400: 38 23 05 01 13 80 01 DF  04 01 DF 04 02 00 10 36  8#.............6
0410: 80 00 DF 04 7B 38 23 05  01 52 14 80 F0 FF FF 7F  ....{8#..R......
0420: F0 FF FF 7F 35 37 30 36  45 08 80 F0 FF FF 7F F0  ....5706E.......
0430: FF FF 7F 6F 76 6C 31 09  80 45 14 80 F0 FF FF 7F  ...ovl1..E......
0440: F0 FF FF 7F 35 37 30 37  09 80 6E 38 23 05 01 37  ....5707..n8#..7
0450: 80 99 38 23 05 01 03 01  10 22 80 03 02 10 04 80  ..8#....."......
0460: 2B 38 23 05 01 38 80 23  6E 38 23 05 01 0B 80 99  +8#..8.#n8#.....
0470: 38 23 05 01 2B 38 23 05  01 39 80 23 6E 38 23 05  8#..+8#..9.#n8#.
0480: 01 3A 80 99 38 23 05 01  2B 38 23 05 01 3B 80 23  .:..8#..+8#..;.#
0490: 52 14 80 F0 FF FF 7F F0  FF FF 7F 35 37 30 37 45  R..........5707E
04A0: 08 80 F0 FF FF 7F F0 FF  FF 7F 6F 76 6C 31 09 80  ..........ovl1..
04B0: 45 14 80 F0 FF FF 7F F0  FF FF 7F 35 37 30 38 09  E..........5708.
04C0: 80 6E 38 23 05 01 3C 80  99 38 23 05 01 2B 38 23  .n8#..<..8#..+8#
04D0: 05 01 06 80 23 4B 38 23  05 01 13 80 01 DF 04 45  ....#K8#.......E
04E0: 08 80 F0 FF FF 7F F0 FF  FF 7F 66 64 6F 31 09 80  ..........fdo1..
04F0: 1C 0A 80 52 14 80 F0 FF  FF 7F F0 FF FF 7F 35 37  ...R..........57
0500: 30 38 46 00 45 08 80 F0  FF FF 7F F0 FF FF 7F 66  08F.E..........f
0510: 64 69 31 09 80 20 00 21  00                       di1.. .!.       
```

#### Opcodes

```
  0: 0x005C [0x20] SET_CLI_EVENT_UC_FLAG: Lock player control
  1: 0x005E [0x42] SET_CLI_EVENT_CANCEL_DATA()
  2: 0x005F [0x46] CAMERA_CONTROL: Disable user control
  3: 0x0061 [0x45] LOAD_SCHEDULED_TASK: Load scheduler "fdo1" with entities [LocalPlayer, LocalPlayer], work=[200*, 0*]
  4: 0x0072 [0x1C] WAIT(60* ticks)
  5: 0x0075 [0x38] SET_CLIENT_EVENT_MODE(mode=19*)
  6: 0x0078 [0xBA] SET_ENTITY_POSITION(entity_id=LocalPlayer, pos_x=-144.000*, pos_z=492.824*, pos_y=1.132*, direction=50.0°*)
  7: 0x0085 [0x80] LOAD_WAIT(entity=LocalPlayer)
  8: 0x008A [0x4E] SET_ENTITY_HIDE_FLAG: Show Landeric (ID: 17113912/0x01052338)
  9: 0x0090 [0xBA] SET_ENTITY_POSITION(entity_id=Landeric (ID: 17113912/0x01052338), pos_x=-142.401*, pos_z=491.034*, pos_y=1.574*, direction=31.0°*)
 10: 0x009D [0x92] Landeric (ID: 17113912/0x01052338)->Render.Flags3 ^= 0x01
 11: 0x00A3 [0x80] LOAD_WAIT(entity=Landeric (ID: 17113912/0x01052338))
 12: 0x00A8 [0x4A] Landeric (ID: 17113912/0x01052338) looks at LocalPlayer
 13: 0x00B1 [0x45] LOAD_SCHEDULED_TASK: Load scheduler "5706" with entities [LocalPlayer, LocalPlayer], work=[457*, 0*]
 14: 0x00C2 [0x45] LOAD_SCHEDULED_TASK: Load scheduler "fdi1" with entities [LocalPlayer, LocalPlayer], work=[200*, 0*]
 15: 0x00D3 [0x1C] WAIT(60* ticks)
 16: 0x00D6 [0x02] IF !(Work_Zone[2] == 0*) GOTO 0x00E1
 17: 0x00DE [0x01] GOTO 0x0166
 18: 0x00E1 [0x66] LOAD_EXT_SCHEDULER_MAIN: Load scheduler "tlk0" with entities [Landeric (ID: 17113912/0x01052338), Landeric (ID: 17113912/0x01052338)], work=20*
 19: 0x00F0 [0x2B] Landeric (ID: 17113912/0x01052338) [8006*]:
    → "Ah, it's you again. Pray accept my apologies for my son's shameful behavior the other day."
 20: 0x00F7 [0x23] WAIT_FOR_DIALOG_INTERACTION
 21: 0x00F8 [0x6E] Landeric (ID: 17113912/0x01052338) uses emote 32*
 22: 0x00FF [0x99] Wait for Landeric (ID: 17113912/0x01052338) animation to complete
 23: 0x0104 [0x2B] Landeric (ID: 17113912/0x01052338) [8008*]:
    → "What is the meaning of this? You would disgrace a proud Elvaan by returning that which was gifted to you in good faith? I'll have no part of it!"
 24: 0x010B [0x23] WAIT_FOR_DIALOG_INTERACTION
 25: 0x010C [0x66] LOAD_EXT_SCHEDULER_MAIN: Load scheduler "tlk0" with entities [Landeric (ID: 17113912/0x01052338), Landeric (ID: 17113912/0x01052338)], work=20*
 26: 0x011B [0x2B] Landeric (ID: 17113912/0x01052338) [8009*]:
    → "At any rate, my piscine quarry here demands my full attention. If you would be so kind..."
 27: 0x0122 [0x23] WAIT_FOR_DIALOG_INTERACTION
 28: 0x0123 [0x4B] UPDATE_ENTITY_YAW(entity=Landeric (ID: 17113912/0x01052338), yaw=1.9°*)
 29: 0x012A [0x66] LOAD_EXT_SCHEDULER_MAIN: Load scheduler "sha0" with entities [Landeric (ID: 17113912/0x01052338), Landeric (ID: 17113912/0x01052338)], work=29*
 30: 0x0139 [0x1C] WAIT(120* ticks)
 31: 0x013C [0x6E] LocalPlayer uses emote 34*
 32: 0x0143 [0x99] Wait for LocalPlayer animation to complete
 33: 0x0148 [0x1C] WAIT(120* ticks)
 34: 0x014B [0x66] LOAD_EXT_SCHEDULER_MAIN: Load scheduler "sha1" with entities [Landeric (ID: 17113912/0x01052338), Landeric (ID: 17113912/0x01052338)], work=29*
 35: 0x015A [0x1C] WAIT(120* ticks)
 36: 0x015D [0x4A] Landeric (ID: 17113912/0x01052338) looks at LocalPlayer

SUBROUTINE_0166:
 37: 0x0166 [0x6E] Landeric (ID: 17113912/0x01052338) uses emote 26*
 38: 0x016D [0x99] Wait for Landeric (ID: 17113912/0x01052338) animation to complete
 39: 0x0172 [0x2B] Landeric (ID: 17113912/0x01052338) [8010*]:
    → "It would seem subtlety is not your strong suit. Or was there still something you would have of me?"
 40: 0x0179 [0x23] WAIT_FOR_DIALOG_INTERACTION
 41: 0x017A [0x24] CREATE_DIALOG(message_id=8011*, default_option=0*, option_flags=0*)
    → "Something you need? [Ask for fishing advice./Ask about Exoroche.]"
 42: 0x0181 [0x25] WAIT_DIALOG_SELECT()
 43: 0x0182 [0x02] IF !(Work_Zone[0] == 0*) GOTO 0x01C8
 44: 0x018A [0x66] LOAD_EXT_SCHEDULER_MAIN: Load scheduler "tlk0" with entities [Landeric (ID: 17113912/0x01052338), Landeric (ID: 17113912/0x01052338)], work=20*
 45: 0x0199 [0x2B] Landeric (ID: 17113912/0x01052338) [8012*]:
    → "Here's some advice: a [gentleman/gentlewoman] doesn't disturb [another/a] gentleman when he's busy fishing."
 46: 0x01A0 [0x23] WAIT_FOR_DIALOG_INTERACTION
 47: 0x01A1 [0x2B] Landeric (ID: 17113912/0x01052338) [8013*]:
    → "And here. Take my gift back, and I shall overlook your lack of decorum."
 48: 0x01A8 [0x23] WAIT_FOR_DIALOG_INTERACTION
 49: 0x01A9 [0x66] LOAD_EXT_SCHEDULER_MAIN: Load scheduler "pas0" with entities [Landeric (ID: 17113912/0x01052338), Landeric (ID: 17113912/0x01052338)], work=20*
 50: 0x01B8 [0x1C] WAIT(240* ticks)
 51: 0x01BB [0x4B] UPDATE_ENTITY_YAW(entity=Landeric (ID: 17113912/0x01052338), yaw=1.9°*)
 52: 0x01C2 [0x01] GOTO 0x04DF

SUBROUTINE_01FC:
 53: 0x01FC [0x24] CREATE_DIALOG(message_id=8015*, default_option=0*, option_flags=0*)
    → "Has Exoroche been a nuisance? [Yes...the lousy punk./Not in the slightest!]"
 54: 0x0203 [0x25] WAIT_DIALOG_SELECT()
 55: 0x0204 [0x02] IF !(Work_Zone[0] == 0*) GOTO 0x0247
 56: 0x020C [0x6E] Landeric (ID: 17113912/0x01052338) uses emote 26*
 57: 0x0213 [0x99] Wait for Landeric (ID: 17113912/0x01052338) animation to complete
 58: 0x0218 [0x2B] Landeric (ID: 17113912/0x01052338) [8016*]:
    → "You have my apologies. I shall be sure to give him a proper scolding upon my return."
 59: 0x021F [0x23] WAIT_FOR_DIALOG_INTERACTION
 60: 0x0220 [0x2B] Landeric (ID: 17113912/0x01052338) [8013*]:
    → "And here. Take my gift back, and I shall overlook your lack of decorum."
 61: 0x0227 [0x23] WAIT_FOR_DIALOG_INTERACTION
 62: 0x0228 [0x66] LOAD_EXT_SCHEDULER_MAIN: Load scheduler "pas0" with entities [Landeric (ID: 17113912/0x01052338), Landeric (ID: 17113912/0x01052338)], work=20*
 63: 0x0237 [0x1C] WAIT(240* ticks)
 64: 0x023A [0x4B] UPDATE_ENTITY_YAW(entity=Landeric (ID: 17113912/0x01052338), yaw=1.9°*)
 65: 0x0241 [0x01] GOTO 0x04DF

SUBROUTINE_0280:
 66: 0x0280 [0x24] CREATE_DIALOG(message_id=8019*, default_option=0*, option_flags=0*)
    → "Why do you return the blade? [The boy's spirit is true./I've got a better one./My Gobbiebag was full.]"
 67: 0x0287 [0x25] WAIT_DIALOG_SELECT()
 68: 0x0288 [0x02] IF !(Work_Zone[0] == 0*) GOTO 0x029E
 69: 0x0290 [0x2B] Landeric (ID: 17113912/0x01052338) [8022*]:
    → "Hah! Now that's a fine jest. That boy is too busy wetting his sleeves to show any higher aspirations. Or would you say otherwise?"
 70: 0x0297 [0x23] WAIT_FOR_DIALOG_INTERACTION
 71: 0x0298 [0x01] GOTO 0x0324

SUBROUTINE_0324:
 72: 0x0324 [0x24] CREATE_DIALOG(message_id=8023*, default_option=0*, option_flags=0*)
    → "What does Exoroche aspire to do? [Earn the blade back from his father./Sell it and frivol away the money./Win fame and adulation in battle./Protect his family and kingdom.]"
 73: 0x032B [0x25] WAIT_DIALOG_SELECT()
 74: 0x032C [0x02] IF !(Work_Zone[0] == 0*) GOTO 0x0386
 75: 0x0334 [0x6E] Landeric (ID: 17113912/0x01052338) uses emote 32*
 76: 0x033B [0x99] Wait for Landeric (ID: 17113912/0x01052338) animation to complete
 77: 0x0340 [0x2B] Landeric (ID: 17113912/0x01052338) [8024*]:
    → "The boy is true to his word, I will give him that. Still, he will have to show more than that to be worthy of a knight's weapon."
 78: 0x0347 [0x23] WAIT_FOR_DIALOG_INTERACTION
 79: 0x0348 [0x66] LOAD_EXT_SCHEDULER_MAIN: Load scheduler "tlk0" with entities [Landeric (ID: 17113912/0x01052338), Landeric (ID: 17113912/0x01052338)], work=20*
 80: 0x0357 [0x2B] Landeric (ID: 17113912/0x01052338) [8025*]:
    → "Now, as I believe I said a moment ago, I am a busy man. Pray leave me be."
 81: 0x035E [0x23] WAIT_FOR_DIALOG_INTERACTION
 82: 0x035F [0x2B] Landeric (ID: 17113912/0x01052338) [8013*]:
    → "And here. Take my gift back, and I shall overlook your lack of decorum."
 83: 0x0366 [0x23] WAIT_FOR_DIALOG_INTERACTION
 84: 0x0367 [0x66] LOAD_EXT_SCHEDULER_MAIN: Load scheduler "pas0" with entities [Landeric (ID: 17113912/0x01052338), Landeric (ID: 17113912/0x01052338)], work=20*
 85: 0x0376 [0x1C] WAIT(240* ticks)
 86: 0x0379 [0x4B] UPDATE_ENTITY_YAW(entity=Landeric (ID: 17113912/0x01052338), yaw=1.9°*)
 87: 0x0380 [0x01] GOTO 0x04DF

SUBROUTINE_04DF:
 88: 0x04DF [0x45] LOAD_SCHEDULED_TASK: Load scheduler "fdo1" with entities [LocalPlayer, LocalPlayer], work=[200*, 0*]
 89: 0x04F0 [0x1C] WAIT(60* ticks)
 90: 0x04F3 [0x52] END_LOAD_SCHEDULER: End scheduler "5708" with entities [LocalPlayer, LocalPlayer], work=457*
 91: 0x0502 [0x46] CAMERA_CONTROL: Restore default settings
 92: 0x0504 [0x45] LOAD_SCHEDULED_TASK: Load scheduler "fdi1" with entities [LocalPlayer, LocalPlayer], work=[200*, 0*]
 93: 0x0515 [0x20] SET_CLI_EVENT_UC_FLAG: Unlock player control
 94: 0x0517 [0x21] END_EVENT
 95: 0x0518 [0x00] END_REQSTACK()
```

#### Data or dead code:

```
# Dead code (unreachable instructions):
     0x01C5 [0x01] GOTO 0x01FC
     0x01F9 [0x01] GOTO 0x01FC
# Dead code (unreachable instructions):
     0x0244 [0x01] GOTO 0x0280
     0x027D [0x01] GOTO 0x0280
# Dead code (unreachable instructions):
     0x029B [0x01] GOTO 0x0324
     0x02DE [0x01] GOTO 0x0324
     0x0321 [0x01] GOTO 0x0324
# Dead code (unreachable instructions):
     0x0383 [0x01] GOTO 0x04DF
     0x03C6 [0x01] GOTO 0x04DF
     0x0409 [0x01] GOTO 0x04DF
```
