# 17114030

## Common Data

| Field            | Value                      |
|------------------|----------------------------|
| Zone             | Jugner Forest [S] (ID: 82) |
| Block Size       | 716 bytes                  |
| Total Events     | 14                         |
| References Count | 36                         |

## List of Events

| Event ID                   | Entrypoint   |   Size |   Instructions |
|----------------------------|--------------|--------|----------------|
| [65535](#event-65535)      | 0x0000       |      1 |              1 |
| [65535.1](#event-655351)   | 0x0001       |      4 |              2 |
| [2](#event-2)              | 0x0005       |      1 |              1 |
| [3](#event-3)              | 0x0006       |      1 |              1 |
| [65535.2](#event-655352)   | 0x0007       |     21 |              5 |
| [65535.3](#event-655353)   | 0x001C       |    138 |             14 |
| [65535.4](#event-655354)   | 0x00A6       |     13 |              3 |
| [65535.5](#event-655355)   | 0x00B3       |     14 |              2 |
| [65535.6](#event-655356)   | 0x00C1       |     55 |              7 |
| [65535.7](#event-655357)   | 0x00F8       |     37 |              7 |
| [65535.8](#event-655358)   | 0x011D       |    133 |             13 |
| [65535.9](#event-655359)   | 0x01A2       |     65 |              9 |
| [65535.10](#event-6553510) | 0x01E3       |     13 |              3 |
| [7](#event-7)              | 0x01F0       |      1 |              1 |

## DAT References (imed_data)

|   Index | Hex Value   |   Dec Value |
|---------|-------------|-------------|
|       0 | 0x000F      |          15 |
|       1 | 0x000D      |          13 |
|       2 | 0x002B      |          43 |
|       3 | 0x0000      |           0 |
|       4 | 0x000A      |          10 |
|       5 | 0x0014      |          20 |
|       6 | 0x001E      |          30 |
|       7 | 0x0019      |          25 |
|       8 | 0x001D      |          29 |
|       9 | 0x0585      |        1413 |
|      10 | 0x005A      |          90 |
|      11 | 0x09A9      |        2473 |
|      12 | 0x002D      |          45 |
|      13 | 0xA070      |       41072 |
|      14 | 0x4E051     |      319569 |
|      15 | 0x046F      |        1135 |
|      16 | 0xA825      |       43045 |
|      17 | 0x4D1B5     |      315829 |
|      18 | 0x0311      |         785 |
|      19 | 0xA054      |       41044 |
|      20 | 0x4D1F1     |      315889 |
|      21 | 0xFFFFFFFF  |  4294967295 |
|      22 | 0x04FE      |        1278 |
|      23 | 0xA3EF      |       41967 |
|      24 | 0x4D076     |      315510 |
|      25 | 0x0016      |          22 |
|      26 | 0x0423      |        1059 |
|      27 | 0xE063      |       57443 |
|      28 | 0x4C68B     |      312971 |
|      29 | 0x02CF      |         719 |
|      30 | 0x08E2      |        2274 |
|      31 | 0x0836      |        2102 |
|      32 | 0x0837      |        2103 |
|      33 | 0x010E      |         270 |
|      34 | 0x00C3      |         195 |
|      35 | 0x0032      |          50 |

## Events

### Event 65535

#### Metadata

| Field        | Value   |
|--------------|---------|
| Entrypoint   | 0x0000  |
| Data Size    | 1 bytes |
| Instructions | 1       |

```
      00 01 02 03 04 05 06 07  08 09 0A 0B 0C 0D 0E 0F
      -- -- -- -- -- -- -- --  -- -- -- -- -- -- -- --
0000: 00                                                .               
```

#### Opcodes

```
  0: 0x0000 [0x00] END_REQSTACK()
```

### Event 65535.1

#### Metadata

| Field        | Value   |
|--------------|---------|
| Entrypoint   | 0x0001  |
| Data Size    | 4 bytes |
| Instructions | 2       |

```
      00 01 02 03 04 05 06 07  08 09 0A 0B 0C 0D 0E 0F
      -- -- -- -- -- -- -- --  -- -- -- -- -- -- -- --
0000:    1C 02 10 00                                     ....           
```

#### Opcodes

```
  0: 0x0001 [0x1C] WAIT(Work_Zone[2] ticks)
  1: 0x0004 [0x00] END_REQSTACK()
```

### Event 2

#### Metadata

| Field        | Value   |
|--------------|---------|
| Entrypoint   | 0x0005  |
| Data Size    | 1 bytes |
| Instructions | 1       |

```
      00 01 02 03 04 05 06 07  08 09 0A 0B 0C 0D 0E 0F
      -- -- -- -- -- -- -- --  -- -- -- -- -- -- -- --
0000:                00                                      .          
```

#### Opcodes

```
  0: 0x0005 [0x00] END_REQSTACK()
```

### Event 3

#### Metadata

| Field        | Value   |
|--------------|---------|
| Entrypoint   | 0x0006  |
| Data Size    | 1 bytes |
| Instructions | 1       |

```
      00 01 02 03 04 05 06 07  08 09 0A 0B 0C 0D 0E 0F
      -- -- -- -- -- -- -- --  -- -- -- -- -- -- -- --
0000:                   00                                    .         
```

#### Opcodes

```
  0: 0x0006 [0x00] END_REQSTACK()
```

### Event 65535.2

#### Metadata

| Field        | Value    |
|--------------|----------|
| Entrypoint   | 0x0007   |
| Data Size    | 21 bytes |
| Instructions | 5        |

```
      00 01 02 03 04 05 06 07  08 09 0A 0B 0C 0D 0E 0F
      -- -- -- -- -- -- -- --  -- -- -- -- -- -- -- --
0000:                      1C  00 80 6E F0 FF FF 7F 01         ...n.....
0010: 80 99 F0 FF FF 7F 99 F0  FF FF 7F 00              ............    
```

#### Opcodes

```
  0: 0x0007 [0x1C] WAIT(15* ticks)
  1: 0x000A [0x6E] LocalPlayer uses emote 13*
  2: 0x0011 [0x99] Wait for LocalPlayer animation to complete
  3: 0x0016 [0x99] Wait for LocalPlayer animation to complete
  4: 0x001B [0x00] END_REQSTACK()
```

### Event 65535.3

#### Metadata

| Field        | Value     |
|--------------|-----------|
| Entrypoint   | 0x001C    |
| Data Size    | 138 bytes |
| Instructions | 14        |

```
      00 01 02 03 04 05 06 07  08 09 0A 0B 0C 0D 0E 0F
      -- -- -- -- -- -- -- --  -- -- -- -- -- -- -- --
0010:                                      C5 02 80 A7              ....
0020: 23 05 01 A7 23 05 01 73  74 30 33 03 80 1C 04 80  #...#..st03.....
0030: C5 02 80 AC 23 05 01 AC  23 05 01 73 74 30 33 03  ....#...#..st03.
0040: 80 1C 00 80 C5 02 80 AA  23 05 01 AA 23 05 01 73  ........#...#..s
0050: 74 30 33 03 80 1C 05 80  C5 02 80 A8 23 05 01 A8  t03.........#...
0060: 23 05 01 73 74 30 33 03  80 1C 06 80 C5 02 80 AB  #..st03.........
0070: 23 05 01 AB 23 05 01 73  74 30 33 03 80 1C 07 80  #...#..st03.....
0080: C5 02 80 A6 23 05 01 A6  23 05 01 73 74 30 33 03  ....#...#..st03.
0090: 80 1C 06 80 C5 02 80 A5  23 05 01 A5 23 05 01 73  ........#...#..s
00A0: 74 30 33 03 80 00                                 t03...          
```

#### Opcodes

```
  0: 0x001C [0xC5] LOAD_SCHEDULED_TASK_ALT3: Load scheduler 0x80033330 for entities [Cait Sith Tri (ID: 17114023/0x010523A7), Cait Sith Tri (ID: 17114023/0x010523A7)], work=43*, param=29811
  1: 0x002D [0x1C] WAIT(10* ticks)
  2: 0x0030 [0xC5] LOAD_SCHEDULED_TASK_ALT3: Load scheduler 0x80033330 for entities [Cait Sith Ochd (ID: 17114028/0x010523AC), Cait Sith Ochd (ID: 17114028/0x010523AC)], work=43*, param=29811
  3: 0x0041 [0x1C] WAIT(15* ticks)
  4: 0x0044 [0xC5] LOAD_SCHEDULED_TASK_ALT3: Load scheduler 0x80033330 for entities [Cait Sith Sia (ID: 17114026/0x010523AA), Cait Sith Sia (ID: 17114026/0x010523AA)], work=43*, param=29811
  5: 0x0055 [0x1C] WAIT(20* ticks)
  6: 0x0058 [0xC5] LOAD_SCHEDULED_TASK_ALT3: Load scheduler 0x80033330 for entities [Cait Sith Ceithir (ID: 17114024/0x010523A8), Cait Sith Ceithir (ID: 17114024/0x010523A8)], work=43*, param=29811
  7: 0x0069 [0x1C] WAIT(30* ticks)
  8: 0x006C [0xC5] LOAD_SCHEDULED_TASK_ALT3: Load scheduler 0x80033330 for entities [Cait Sith Seachd (ID: 17114027/0x010523AB), Cait Sith Seachd (ID: 17114027/0x010523AB)], work=43*, param=29811
  9: 0x007D [0x1C] WAIT(25* ticks)
 10: 0x0080 [0xC5] LOAD_SCHEDULED_TASK_ALT3: Load scheduler 0x80033330 for entities [Cait Sith Dha (ID: 17114022/0x010523A6), Cait Sith Dha (ID: 17114022/0x010523A6)], work=43*, param=29811
 11: 0x0091 [0x1C] WAIT(30* ticks)
 12: 0x0094 [0xC5] LOAD_SCHEDULED_TASK_ALT3: Load scheduler 0x80033330 for entities [Cait Sith Aon (ID: 17114021/0x010523A5), Cait Sith Aon (ID: 17114021/0x010523A5)], work=43*, param=29811
 13: 0x00A5 [0x00] END_REQSTACK()
```

### Event 65535.4

#### Metadata

| Field        | Value    |
|--------------|----------|
| Entrypoint   | 0x00A6   |
| Data Size    | 13 bytes |
| Instructions | 3        |

```
      00 01 02 03 04 05 06 07  08 09 0A 0B 0C 0D 0E 0F
      -- -- -- -- -- -- -- --  -- -- -- -- -- -- -- --
00A0:                   6E F0  FF FF 7F 08 80 99 F0 FF        n.........
00B0: FF 7F 00                                          ...             
```

#### Opcodes

```
  0: 0x00A6 [0x6E] LocalPlayer uses emote 29*
  1: 0x00AD [0x99] Wait for LocalPlayer animation to complete
  2: 0x00B2 [0x00] END_REQSTACK()
```

### Event 65535.5

#### Metadata

| Field        | Value    |
|--------------|----------|
| Entrypoint   | 0x00B3   |
| Data Size    | 14 bytes |
| Instructions | 2        |

```
      00 01 02 03 04 05 06 07  08 09 0A 0B 0C 0D 0E 0F
      -- -- -- -- -- -- -- --  -- -- -- -- -- -- -- --
00B0:          2C F0 FF FF 7F  F0 FF FF 7F 64 65 61 64     ,........dead
00C0: 00                                                .               
```

#### Opcodes

```
  0: 0x00B3 [0x2C] CREATE_SCHEDULER_TASK: Create scheduler "dead" with entities [LocalPlayer, LocalPlayer]
  1: 0x00C0 [0x00] END_REQSTACK()
```

### Event 65535.6

#### Metadata

| Field        | Value    |
|--------------|----------|
| Entrypoint   | 0x00C1   |
| Data Size    | 55 bytes |
| Instructions | 7        |

```
      00 01 02 03 04 05 06 07  08 09 0A 0B 0C 0D 0E 0F
      -- -- -- -- -- -- -- --  -- -- -- -- -- -- -- --
00C0:    1C 06 80 5B 09 80 AB  23 05 01 AB 23 05 01 74   ...[...#...#..t
00D0: 6C 34 30 1C 0A 80 5B 0B  80 AD 23 05 01 AD 23 05  l40...[...#...#.
00E0: 01 74 6C 30 30 1C 0C 80  5B 0B 80 AD 23 05 01 AD  .tl00...[...#...
00F0: 23 05 01 74 6C 30 31 00                           #..tl01.        
```

#### Opcodes

```
  0: 0x00C1 [0x1C] WAIT(30* ticks)
  1: 0x00C4 [0x5B] LOAD_EXT_SCHEDULER: Load scheduler "tl40" with entities [Cait Sith Seachd (ID: 17114027/0x010523AB), Cait Sith Seachd (ID: 17114027/0x010523AB)], work=1413*
  2: 0x00D3 [0x1C] WAIT(90* ticks)
  3: 0x00D6 [0x5B] LOAD_EXT_SCHEDULER: Load scheduler "tl00" with entities [Cait Sith Naoi (ID: 17114029/0x010523AD), Cait Sith Naoi (ID: 17114029/0x010523AD)], work=2473*
  4: 0x00E5 [0x1C] WAIT(45* ticks)
  5: 0x00E8 [0x5B] LOAD_EXT_SCHEDULER: Load scheduler "tl01" with entities [Cait Sith Naoi (ID: 17114029/0x010523AD), Cait Sith Naoi (ID: 17114029/0x010523AD)], work=2473*
  6: 0x00F7 [0x00] END_REQSTACK()
```

### Event 65535.7

#### Metadata

| Field        | Value    |
|--------------|----------|
| Entrypoint   | 0x00F8   |
| Data Size    | 37 bytes |
| Instructions | 7        |

```
      00 01 02 03 04 05 06 07  08 09 0A 0B 0C 0D 0E 0F
      -- -- -- -- -- -- -- --  -- -- -- -- -- -- -- --
00F0:                          81 00 A7 23 05 01 7C 00          ...#..|.
0100: A7 23 05 01 81 00 AB 23  05 01 7C 00 AB 23 05 01  .#.....#..|..#..
0110: 81 00 A8 23 05 01 7C 00  A8 23 05 01 00           ...#..|..#...   
```

#### Opcodes

```
  0: 0x00F8 [0x81] SET_ENTITY_BLINKING(blink_flag=0x00, entity=Cait Sith Tri (ID: 17114023/0x010523A7))
  1: 0x00FE [0x7C] Cait Sith Tri (ID: 17114023/0x010523A7)->Render.Flags2 |= 0x00
  2: 0x0104 [0x81] SET_ENTITY_BLINKING(blink_flag=0x00, entity=Cait Sith Seachd (ID: 17114027/0x010523AB))
  3: 0x010A [0x7C] Cait Sith Seachd (ID: 17114027/0x010523AB)->Render.Flags2 |= 0x00
  4: 0x0110 [0x81] SET_ENTITY_BLINKING(blink_flag=0x00, entity=Cait Sith Ceithir (ID: 17114024/0x010523A8))
  5: 0x0116 [0x7C] Cait Sith Ceithir (ID: 17114024/0x010523A8)->Render.Flags2 |= 0x00
  6: 0x011C [0x00] END_REQSTACK()
```

### Event 65535.8

#### Metadata

| Field        | Value     |
|--------------|-----------|
| Entrypoint   | 0x011D    |
| Data Size    | 133 bytes |
| Instructions | 13        |

```
      00 01 02 03 04 05 06 07  08 09 0A 0B 0C 0D 0E 0F
      -- -- -- -- -- -- -- --  -- -- -- -- -- -- -- --
0110:                                         BA A6 23               ..#
0120: 05 01 0D 80 0E 80 03 80  0F 80 BA A8 23 05 01 10  ............#...
0130: 80 11 80 03 80 12 80 BA  A7 23 05 01 13 80 14 80  .........#......
0140: 15 80 16 80 BA AB 23 05  01 17 80 18 80 19 80 1A  ......#.........
0150: 80 BA AD 23 05 01 1B 80  1C 80 1D 80 1E 80 BA A5  ...#............
0160: 23 05 01 1B 80 1C 80 1D  80 1E 80 5B 1F 80 AD 23  #..........[...#
0170: 05 01 AD 23 05 01 73 74  70 30 5B 20 80 A5 23 05  ...#..stp0[ ..#.
0180: 01 A5 23 05 01 73 74 70  30 81 00 A5 23 05 01 7C  ..#..stp0...#..|
0190: 00 A5 23 05 01 81 00 AD  23 05 01 7C 00 AD 23 05  ..#.....#..|..#.
01A0: 01 00                                             ..              
```

#### Opcodes

```
  0: 0x011D [0xBA] SET_ENTITY_POSITION(entity_id=Cait Sith Dha (ID: 17114022/0x010523A6), pos_x=41.072*, pos_z=319.569*, pos_y=0.000*, direction=99.8°*)
  1: 0x012A [0xBA] SET_ENTITY_POSITION(entity_id=Cait Sith Ceithir (ID: 17114024/0x010523A8), pos_x=43.045*, pos_z=315.829*, pos_y=0.000*, direction=69.0°*)
  2: 0x0137 [0xBA] SET_ENTITY_POSITION(entity_id=Cait Sith Tri (ID: 17114023/0x010523A7), pos_x=41.044*, pos_z=315.889*, pos_y=-0.001*, direction=112.3°*)
  3: 0x0144 [0xBA] SET_ENTITY_POSITION(entity_id=Cait Sith Seachd (ID: 17114027/0x010523AB), pos_x=41.967*, pos_z=315.510*, pos_y=0.022*, direction=93.1°*)
  4: 0x0151 [0xBA] SET_ENTITY_POSITION(entity_id=Cait Sith Naoi (ID: 17114029/0x010523AD), pos_x=57.443*, pos_z=312.971*, pos_y=0.719*, direction=199.9°*)
  5: 0x015E [0xBA] SET_ENTITY_POSITION(entity_id=Cait Sith Aon (ID: 17114021/0x010523A5), pos_x=57.443*, pos_z=312.971*, pos_y=0.719*, direction=199.9°*)
  6: 0x016B [0x5B] LOAD_EXT_SCHEDULER: Load scheduler "stp0" with entities [Cait Sith Naoi (ID: 17114029/0x010523AD), Cait Sith Naoi (ID: 17114029/0x010523AD)], work=2102*
  7: 0x017A [0x5B] LOAD_EXT_SCHEDULER: Load scheduler "stp0" with entities [Cait Sith Aon (ID: 17114021/0x010523A5), Cait Sith Aon (ID: 17114021/0x010523A5)], work=2103*
  8: 0x0189 [0x81] SET_ENTITY_BLINKING(blink_flag=0x00, entity=Cait Sith Aon (ID: 17114021/0x010523A5))
  9: 0x018F [0x7C] Cait Sith Aon (ID: 17114021/0x010523A5)->Render.Flags2 |= 0x00
 10: 0x0195 [0x81] SET_ENTITY_BLINKING(blink_flag=0x00, entity=Cait Sith Naoi (ID: 17114029/0x010523AD))
 11: 0x019B [0x7C] Cait Sith Naoi (ID: 17114029/0x010523AD)->Render.Flags2 |= 0x00
 12: 0x01A1 [0x00] END_REQSTACK()
```

### Event 65535.9

#### Metadata

| Field        | Value    |
|--------------|----------|
| Entrypoint   | 0x01A2   |
| Data Size    | 65 bytes |
| Instructions | 9        |

```
      00 01 02 03 04 05 06 07  08 09 0A 0B 0C 0D 0E 0F
      -- -- -- -- -- -- -- --  -- -- -- -- -- -- -- --
01A0:       81 00 A8 23 05 01  81 00 A7 23 05 01 81 00    ...#.....#....
01B0: AB 23 05 01 81 00 A6 23  05 01 1C 21 80 BB 22 80  .#.....#...!..".
01C0: A9 23 05 01 A9 23 05 01  73 74 30 32 03 80 1C 23  .#...#..st02...#
01D0: 80 BB 22 80 AA 23 05 01  AA 23 05 01 73 74 30 32  .."..#...#..st02
01E0: 03 80 00                                          ...             
```

#### Opcodes

```
  0: 0x01A2 [0x81] SET_ENTITY_BLINKING(blink_flag=0x00, entity=Cait Sith Ceithir (ID: 17114024/0x010523A8))
  1: 0x01A8 [0x81] SET_ENTITY_BLINKING(blink_flag=0x00, entity=Cait Sith Tri (ID: 17114023/0x010523A7))
  2: 0x01AE [0x81] SET_ENTITY_BLINKING(blink_flag=0x00, entity=Cait Sith Seachd (ID: 17114027/0x010523AB))
  3: 0x01B4 [0x81] SET_ENTITY_BLINKING(blink_flag=0x00, entity=Cait Sith Dha (ID: 17114022/0x010523A6))
  4: 0x01BA [0x1C] WAIT(270* ticks)
  5: 0x01BD [0xBB] LOAD_EVENT_SCHEDULER_ALT: Load scheduler "st02" with entities [Cait Sith Coig (ID: 17114025/0x010523A9), Cait Sith Coig (ID: 17114025/0x010523A9)], work=[195*, 0*]
  6: 0x01CE [0x1C] WAIT(50* ticks)
  7: 0x01D1 [0xBB] LOAD_EVENT_SCHEDULER_ALT: Load scheduler "st02" with entities [Cait Sith Sia (ID: 17114026/0x010523AA), Cait Sith Sia (ID: 17114026/0x010523AA)], work=[195*, 0*]
  8: 0x01E2 [0x00] END_REQSTACK()
```

### Event 65535.10

#### Metadata

| Field        | Value    |
|--------------|----------|
| Entrypoint   | 0x01E3   |
| Data Size    | 13 bytes |
| Instructions | 3        |

```
      00 01 02 03 04 05 06 07  08 09 0A 0B 0C 0D 0E 0F
      -- -- -- -- -- -- -- --  -- -- -- -- -- -- -- --
01E0:          1C 0C 80 4A F0  FF FF 7F 9F 23 05 01 00     ...J.....#...
```

#### Opcodes

```
  0: 0x01E3 [0x1C] WAIT(45* ticks)
  1: 0x01E6 [0x4A] LocalPlayer looks at Lilisette (ID: 17114015/0x0105239F)
  2: 0x01EF [0x00] END_REQSTACK()
```

### Event 7

#### Metadata

| Field        | Value   |
|--------------|---------|
| Entrypoint   | 0x01F0  |
| Data Size    | 1 bytes |
| Instructions | 1       |

```
      00 01 02 03 04 05 06 07  08 09 0A 0B 0C 0D 0E 0F
      -- -- -- -- -- -- -- --  -- -- -- -- -- -- -- --
01F0: 00                                                .               
```

#### Opcodes

```
  0: 0x01F0 [0x00] END_REQSTACK()
```
