# 0x7FFFFFF0 - Zone Events

## Common Data

| Field            | Value                      |
|------------------|----------------------------|
| Zone             | Jugner Forest [S] (ID: 82) |
| Block Size       | 8940 bytes                 |
| Total Events     | 48                         |
| References Count | 231                        |

## List of Events

| Event ID                   | Entrypoint   |   Size |   Instructions |
|----------------------------|--------------|--------|----------------|
| [65535](#event-65535)      | 0x0000       |      1 |              1 |
| [65534](#event-65534)      | 0x0001       |      1 |              1 |
| [5](#event-5)              | 0x0002       |    102 |             15 |
| [65535.1](#event-655351)   | 0x0068       |     16 |              3 |
| [65535.2](#event-655352)   | 0x0078       |     41 |              5 |
| [65535.3](#event-655353)   | 0x00A1       |     13 |              3 |
| [65535.4](#event-655354)   | 0x00AE       |     14 |              4 |
| [65535.5](#event-655355)   | 0x00BC       |     37 |              5 |
| [65535.6](#event-655356)   | 0x00E1       |     37 |              5 |
| [65535.7](#event-655357)   | 0x0106       |     37 |              5 |
| [65535.8](#event-655358)   | 0x012B       |     37 |              5 |
| [65535.9](#event-655359)   | 0x0150       |     15 |              5 |
| [65535.10](#event-6553510) | 0x015F       |     35 |              9 |
| [65535.11](#event-6553511) | 0x0182       |     33 |              9 |
| [65535.12](#event-6553512) | 0x01A3       |     24 |              6 |
| [65535.13](#event-6553513) | 0x01BB       |      6 |              2 |
| [65535.14](#event-6553514) | 0x01C1       |      6 |              2 |
| [65535.15](#event-6553515) | 0x01C7       |      7 |              3 |
| [65535.16](#event-6553516) | 0x01CE       |      7 |              3 |
| [65535.17](#event-6553517) | 0x01D5       |     15 |              5 |
| [65535.18](#event-6553518) | 0x01E4       |     29 |              7 |
| [65535.19](#event-6553519) | 0x0201       |     15 |              5 |
| [65535.20](#event-6553520) | 0x0210       |     35 |              9 |
| [65535.21](#event-6553521) | 0x0233       |     35 |              9 |
| [65535.22](#event-6553522) | 0x0256       |    180 |             40 |
| [100](#event-100)          | 0x030A       |   2389 |            259 |
| [65535.23](#event-6553523) | 0x0C5F       |     16 |              5 |
| [105](#event-105)          | 0x0C6F       |    912 |            103 |
| [106](#event-106)          | 0x0FFF       |    799 |             82 |
| [65535.24](#event-6553524) | 0x131E       |     22 |              6 |
| [107](#event-107)          | 0x1334       |   1345 |            142 |
| [65535.25](#event-6553525) | 0x1875       |     24 |              4 |
| [65535.26](#event-6553526) | 0x188D       |     24 |              4 |
| [65535.27](#event-6553527) | 0x18A5       |     32 |              8 |
| [65535.28](#event-6553528) | 0x18C5       |     14 |              4 |
| [65535.29](#event-6553529) | 0x18D3       |     14 |              4 |
| [65535.30](#event-6553530) | 0x18E1       |     22 |              6 |
| [65535.31](#event-6553531) | 0x18F7       |     27 |              6 |
| [65535.32](#event-6553532) | 0x1912       |     34 |              8 |
| [65535.33](#event-6553533) | 0x1934       |     22 |              6 |
| [65535.34](#event-6553534) | 0x194A       |     38 |              8 |
| [65535.35](#event-6553535) | 0x1970       |     51 |              9 |
| [65535.36](#event-6553536) | 0x19A3       |     42 |              6 |
| [65535.37](#event-6553537) | 0x19CD       |     27 |              7 |
| [65535.38](#event-6553538) | 0x19E8       |     38 |              5 |
| [65535.39](#event-6553539) | 0x1A0E       |     38 |              5 |
| [65535.40](#event-6553540) | 0x1A34       |     38 |              5 |
| [264](#event-264)          | 0x1A5A       |   1061 |            204 |

## DAT References (imed_data)

|   Index | Hex Value   |   Dec Value |
|---------|-------------|-------------|
|       0 | 0x216F      |        8559 |
|       1 | 0x00C8      |         200 |
|       2 | 0x0000      |           0 |
|       3 | 0x0001      |           1 |
|       4 | 0x005A      |          90 |
|       5 | 0x003C      |          60 |
|       6 | 0x00C9      |         201 |
|       7 | 0xFFFE2DB0  |  4294847920 |
|       8 | 0xFFF810E8  |  4294447336 |
|       9 | 0xFFFFE0C0  |  4294959296 |
|      10 | 0x0800      |        2048 |
|      11 | 0x0094      |         148 |
|      12 | 0x00F0      |         240 |
|      13 | 0xFFFCF38A  |  4294767498 |
|      14 | 0xFFF83F0C  |  4294459148 |
|      15 | 0xFFFFE23C  |  4294959676 |
|      16 | 0x0400      |        1024 |
|      17 | 0x000D      |          13 |
|      18 | 0xFFFCF26E  |  4294767214 |
|      19 | 0xFFF8287E  |  4294453374 |
|      20 | 0xFFFFE127  |  4294959399 |
|      21 | 0x0028      |          40 |
|      22 | 0x11242     |       70210 |
|      23 | 0x50CCA     |      330954 |
|      24 | 0x00CB      |         203 |
|      25 | 0x111F3     |       70131 |
|      26 | 0x527B5     |      337845 |
|      27 | 0x03D8      |         984 |
|      28 | 0x11FBA     |       73658 |
|      29 | 0x52B76     |      338806 |
|      30 | 0x0394      |         916 |
|      31 | 0x0319      |         793 |
|      32 | 0xFFFB1D1C  |  4294647068 |
|      33 | 0x6BB3A     |      441146 |
|      34 | 0xFFFFE7E0  |  4294961120 |
|      35 | 0xFFFB83F4  |  4294673396 |
|      36 | 0x00DE      |         222 |
|      37 | 0xFFFFF640  |  4294964800 |
|      38 | 0xFFFB162C  |  4294645292 |
|      39 | 0xFFFFF405  |  4294964229 |
|      40 | 0xFFFB256B  |  4294649195 |
|      41 | 0xFFF9DF42  |  4294565698 |
|      42 | 0xFFFB3FE3  |  4294655971 |
|      43 | 0xFFFFFF41  |  4294967105 |
|      44 | 0x0087      |         135 |
|      45 | 0x0005      |           5 |
|      46 | 0x0002      |           2 |
|      47 | 0x000A      |          10 |
|      48 | 0x0009      |           9 |
|      49 | 0x0046      |          70 |
|      50 | 0x008C      |         140 |
|      51 | 0x00D2      |         210 |
|      52 | 0x001B      |          27 |
|      53 | 0x192FC     |      103164 |
|      54 | 0x6C17D     |      442749 |
|      55 | 0x14F1      |        5361 |
|      56 | 0x07FA      |        2042 |
|      57 | 0x0120      |         288 |
|      58 | 0x000F      |          15 |
|      59 | 0x0003      |           3 |
|      60 | 0x1E37      |        7735 |
|      61 | 0x001E      |          30 |
|      62 | 0x0050      |          80 |
|      63 | 0x1E38      |        7736 |
|      64 | 0x1E39      |        7737 |
|      65 | 0x1E3A      |        7738 |
|      66 | 0x1E3B      |        7739 |
|      67 | 0x081F      |        2079 |
|      68 | 0x1E3C      |        7740 |
|      69 | 0x1E3D      |        7741 |
|      70 | 0x1E3E      |        7742 |
|      71 | 0x00FB      |         251 |
|      72 | 0x04FC      |        1276 |
|      73 | 0x1E3F      |        7743 |
|      74 | 0x1E40      |        7744 |
|      75 | 0x1E41      |        7745 |
|      76 | 0x1E42      |        7746 |
|      77 | 0x04FD      |        1277 |
|      78 | 0x0096      |         150 |
|      79 | 0x0078      |         120 |
|      80 | 0x00B4      |         180 |
|      81 | 0x18EF8     |      102136 |
|      82 | 0x6C442     |      443458 |
|      83 | 0x15CD      |        5581 |
|      84 | 0x0505      |        1285 |
|      85 | 0x190E0     |      102624 |
|      86 | 0x6B6B3     |      439987 |
|      87 | 0x1621      |        5665 |
|      88 | 0x0818      |        2072 |
|      89 | 0x1E43      |        7747 |
|      90 | 0x0004      |           4 |
|      91 | 0x0006      |           6 |
|      92 | 0x0008      |           8 |
|      93 | 0x1E44      |        7748 |
|      94 | 0x1E45      |        7749 |
|      95 | 0x1E46      |        7750 |
|      96 | 0x1A3C4     |      107460 |
|      97 | 0x6A6CC     |      435916 |
|      98 | 0x0FE1      |        4065 |
|      99 | 0x047D      |        1149 |
|     100 | 0x1E47      |        7751 |
|     101 | 0x1E48      |        7752 |
|     102 | 0x1E49      |        7753 |
|     103 | 0x000B      |          11 |
|     104 | 0x1E4A      |        7754 |
|     105 | 0x1E4B      |        7755 |
|     106 | 0x1E4C      |        7756 |
|     107 | 0x1E4D      |        7757 |
|     108 | 0x1E4E      |        7758 |
|     109 | 0x1E4F      |        7759 |
|     110 | 0x1E50      |        7760 |
|     111 | 0x1E51      |        7761 |
|     112 | 0x14A1      |        5281 |
|     113 | 0x6B671     |      439921 |
|     114 | 0x84277     |      541303 |
|     115 | 0x006B      |         107 |
|     116 | 0x6E968     |      452968 |
|     117 | 0x8333F     |      537407 |
|     118 | 0x0895      |        2197 |
|     119 | 0x08F5      |        2293 |
|     120 | 0x014F      |         335 |
|     121 | 0x0E10      |        3600 |
|     122 | 0x1F1C      |        7964 |
|     123 | 0x1F1D      |        7965 |
|     124 | 0x1F1E      |        7966 |
|     125 | 0x00D7      |         215 |
|     126 | 0x1F1F      |        7967 |
|     127 | 0x1C632     |      116274 |
|     128 | 0x686C3     |      427715 |
|     129 | 0x0366      |         870 |
|     130 | 0x0206      |         518 |
|     131 | 0x1F20      |        7968 |
|     132 | 0x6F281     |      455297 |
|     133 | 0x83AD7     |      539351 |
|     134 | 0x09F4      |        2548 |
|     135 | 0x0A56      |        2646 |
|     136 | 0x1F21      |        7969 |
|     137 | 0x1F22      |        7970 |
|     138 | 0x1F23      |        7971 |
|     139 | 0x1B1EA     |      111082 |
|     140 | 0x6DD83     |      449923 |
|     141 | 0x04D4      |        1236 |
|     142 | 0x0405      |        1029 |
|     143 | 0x0FDF      |        4063 |
|     144 | 0x0150      |         336 |
|     145 | 0x1A32D     |      107309 |
|     146 | 0x6C7DC     |      444380 |
|     147 | 0x0C1E      |        3102 |
|     148 | 0x0ED7      |        3799 |
|     149 | 0x1F24      |        7972 |
|     150 | 0x1F25      |        7973 |
|     151 | 0x1F26      |        7974 |
|     152 | 0x1F27      |        7975 |
|     153 | 0x09FE      |        2558 |
|     154 | 0x1F28      |        7976 |
|     155 | 0x1AC69     |      109673 |
|     156 | 0x6CB48     |      445256 |
|     157 | 0x08E0      |        2272 |
|     158 | 0x19643     |      104003 |
|     159 | 0x6A7BE     |      436158 |
|     160 | 0x1529      |        5417 |
|     161 | 0x0B5F      |        2911 |
|     162 | 0x1F29      |        7977 |
|     163 | 0x1F2A      |        7978 |
|     164 | 0x1F2B      |        7979 |
|     165 | 0x03E7      |         999 |
|     166 | 0x1F2C      |        7980 |
|     167 | 0x0042      |          66 |
|     168 | 0x0041      |          65 |
|     169 | 0x1F2D      |        7981 |
|     170 | 0x1F2E      |        7982 |
|     171 | 0x1F2F      |        7983 |
|     172 | 0x1F30      |        7984 |
|     173 | 0x1F31      |        7985 |
|     174 | 0x1F32      |        7986 |
|     175 | 0x1F33      |        7987 |
|     176 | 0x1F34      |        7988 |
|     177 | 0x1F35      |        7989 |
|     178 | 0x1F36      |        7990 |
|     179 | 0x66F10     |      421648 |
|     180 | 0x57A8A     |      359050 |
|     181 | 0x66BD6     |      420822 |
|     182 | 0x5899B     |      362907 |
|     183 | 0x66871     |      419953 |
|     184 | 0x5C5D0     |      378320 |
|     185 | 0xFFFFFCAC  |  4294966444 |
|     186 | 0x673BB     |      422843 |
|     187 | 0x5D5BC     |      382396 |
|     188 | 0xFFFFFE38  |  4294966840 |
|     189 | 0x61DB6     |      400822 |
|     190 | 0x653C0     |      414656 |
|     191 | 0x61BBE     |      400318 |
|     192 | 0x66F3A     |      421690 |
|     193 | 0x61F5F     |      401247 |
|     194 | 0x68DA9     |      429481 |
|     195 | 0x0261      |         609 |
|     196 | 0x61BBC     |      400316 |
|     197 | 0x67FC4     |      425924 |
|     198 | 0x61767     |      399207 |
|     199 | 0x6534E     |      414542 |
|     200 | 0xFFF93AE8  |  4294523624 |
|     201 | 0xFFF8DBC6  |  4294499270 |
|     202 | 0x0168      |         360 |
|     203 | 0xB7EB      |       47083 |
|     204 | 0x4DA34     |      318004 |
|     205 | 0x0098      |         152 |
|     206 | 0xB7F7      |       47095 |
|     207 | 0x4DC3B     |      318523 |
|     208 | 0x0099      |         153 |
|     209 | 0x3D735     |      251701 |
|     210 | 0x7EBE1     |      519137 |
|     211 | 0x017E      |         382 |
|     212 | 0x0007      |           7 |
|     213 | 0x0091      |         145 |
|     214 | 0x004F      |          79 |
|     215 | 0x004C      |          76 |
|     216 | 0x0018      |          24 |
|     217 | 0x0020      |          32 |
|     218 | 0x0030      |          48 |
|     219 | 0x0040      |          64 |
|     220 | 0x0013      |          19 |
|     221 | 0x0090      |         144 |
|     222 | 0x1BD0      |        7120 |
|     223 | 0x1BD1      |        7121 |
|     224 | 0x1BD3      |        7123 |
|     225 | 0x1BD4      |        7124 |
|     226 | 0x1BD5      |        7125 |
|     227 | 0x1BD6      |        7126 |
|     228 | 0x0102      |         258 |
|     229 | 0x0202      |         514 |
|     230 | 0x0156      |         342 |

## String References

- **7735**: You find a sparkling stone.
- **8559**: The order has been given by your party leader to enter [Everbloom Hollow/the Ruhotz Silvermines/Ghoyu's Reverie].

## Events

### Event 65535

#### Metadata

| Field        | Value   |
|--------------|---------|
| Entrypoint   | 0x0000  |
| Data Size    | 1 bytes |
| Instructions | 1       |

```
      00 01 02 03 04 05 06 07  08 09 0A 0B 0C 0D 0E 0F
      -- -- -- -- -- -- -- --  -- -- -- -- -- -- -- --
0000: 00                                                .               
```

#### Opcodes

```
  0: 0x0000 [0x00] END_REQSTACK()
```

### Event 65534

#### Metadata

| Field        | Value   |
|--------------|---------|
| Entrypoint   | 0x0001  |
| Data Size    | 1 bytes |
| Instructions | 1       |

```
      00 01 02 03 04 05 06 07  08 09 0A 0B 0C 0D 0E 0F
      -- -- -- -- -- -- -- --  -- -- -- -- -- -- -- --
0000:    00                                              .              
```

#### Opcodes

```
  0: 0x0001 [0x00] END_REQSTACK()
```

### Event 5

#### Metadata

| Field        | Value     |
|--------------|-----------|
| Entrypoint   | 0x0002    |
| Data Size    | 102 bytes |
| Instructions | 15        |

```
      00 01 02 03 04 05 06 07  08 09 0A 0B 0C 0D 0E 0F
      -- -- -- -- -- -- -- --  -- -- -- -- -- -- -- --
0000:       42 48 00 80 45 01  80 F0 FF FF 7F F0 FF FF    BH..E.........
0010: 7F 66 64 6F 31 02 80 02  03 10 02 80 00 33 00 62  .fdo1........3.b
0020: 03 80 F0 FF FF 7F F0 FF  FF 7F 6D 61 69 6E 02 80  ..........main..
0030: 1C 04 80 1C 05 80 83 1E  17 AA 1E 17 1E 17 1E 17  ................
0040: 1E 17 1E 17 1F 17 1E 17  1E 17 03 04 00 02 80 77  ...............w
0050: 1F 17 04 00 78 45 06 80  F0 FF FF 7F F0 FF FF 7F  ....xE..........
0060: 77 68 69 31 02 80 21 00                           whi1..!.        
```

#### Opcodes

```
  0: 0x0002 [0x42] SET_CLI_EVENT_CANCEL_DATA()
  1: 0x0003 [0x48] [System] [8559*]:
    → "The order has been given by your party leader to enter [Everbloom Hollow/the Ruhotz Silvermines/Ghoyu's Reverie]."
  2: 0x0006 [0x45] LOAD_SCHEDULED_TASK: Load scheduler "fdo1" with entities [LocalPlayer, LocalPlayer], work=[200*, 0*]
  3: 0x0017 [0x02] IF !(Work_Zone[3] == 0*) GOTO 0x0033
  4: 0x001F [0x62] LOAD_EVENT_SCHEDULER: Load scheduler "main" with entities [LocalPlayer, LocalPlayer], work=[1*, 0*]
  5: 0x0030 [0x1C] WAIT(90* ticks)
  6: 0x0033 [0x1C] WAIT(60* ticks)
  7: 0x0036 [0x83] Work_Zone_1700[30] = GetGameTime()
  8: 0x0039 [0xAA] VANA_DIEL_TIMESTAMP_CONVERTER(timestamp=Work_Zone_1700[30], year=Work_Zone_1700[30], month=Work_Zone_1700[30], day=Work_Zone_1700[30], weekday=Work_Zone_1700[30], hour=Work_Zone_1700[31], minute=Work_Zone_1700[30], moon=Work_Zone_1700[30])
  9: 0x004A [0x03] ExtData[1]->WorkLocal[4] = 0*
 10: 0x004F [0x77] SET_EVENT_TIME_WEATHER(hour=Work_Zone_1700[31], weather=ExtData[1]->WorkLocal[4])
 11: 0x0054 [0x78] ENABLE_GAME_TIMER_RESET_WEATHER()
 12: 0x0055 [0x45] LOAD_SCHEDULED_TASK: Load scheduler "whi1" with entities [LocalPlayer, LocalPlayer], work=[201*, 0*]
 13: 0x0066 [0x21] END_EVENT
 14: 0x0067 [0x00] END_REQSTACK()
```

### Event 65535.1

#### Metadata

| Field        | Value    |
|--------------|----------|
| Entrypoint   | 0x0068   |
| Data Size    | 16 bytes |
| Instructions | 3        |

```
      00 01 02 03 04 05 06 07  08 09 0A 0B 0C 0D 0E 0F
      -- -- -- -- -- -- -- --  -- -- -- -- -- -- -- --
0060:                          92 01 F0 FF FF 7F 37 07          ......7.
0070: 80 08 80 09 80 0A 80 00                           ........        
```

#### Opcodes

```
  0: 0x0068 [0x92] LocalPlayer->Render.Flags3 ^= 0x01
  1: 0x006E [0x37] UPDATE_EVENT_POSITION_AND_DIR: x=-119.376*, z=-519.960*, y=-8.000*, direction=180.0°*
  2: 0x0077 [0x00] END_REQSTACK()
```

### Event 65535.2

#### Metadata

| Field        | Value    |
|--------------|----------|
| Entrypoint   | 0x0078   |
| Data Size    | 41 bytes |
| Instructions | 5        |

```
      00 01 02 03 04 05 06 07  08 09 0A 0B 0C 0D 0E 0F
      -- -- -- -- -- -- -- --  -- -- -- -- -- -- -- --
0070:                          BB 0B 80 F0 FF FF 7F 29          .......)
0080: 23 05 01 6D 61 69 6E 02  80 1C 0C 80 45 01 80 F0  #..main.....E...
0090: FF FF 7F F0 FF FF 7F 66  64 6F 31 02 80 1C 05 80  .......fdo1.....
00A0: 00                                                .               
```

#### Opcodes

```
  0: 0x0078 [0xBB] LOAD_EVENT_SCHEDULER_ALT: Load scheduler "main" with entities [LocalPlayer, Cavernous Maw (ID: 17113897/0x01052329)], work=[148*, 0*]
  1: 0x0089 [0x1C] WAIT(240* ticks)
  2: 0x008C [0x45] LOAD_SCHEDULED_TASK: Load scheduler "fdo1" with entities [LocalPlayer, LocalPlayer], work=[200*, 0*]
  3: 0x009D [0x1C] WAIT(60* ticks)
  4: 0x00A0 [0x00] END_REQSTACK()
```

### Event 65535.3

#### Metadata

| Field        | Value    |
|--------------|----------|
| Entrypoint   | 0x00A1   |
| Data Size    | 13 bytes |
| Instructions | 3        |

```
      00 01 02 03 04 05 06 07  08 09 0A 0B 0C 0D 0E 0F
      -- -- -- -- -- -- -- --  -- -- -- -- -- -- -- --
00A0:    47 00 0D 80 0E 80 0F  80 10 80 47 01 00         G.........G..  
```

#### Opcodes

```
  0: 0x00A1 [0x47] UPDATE_PLAYER_POS(-199.798*, -508.148*, -7.620*, yaw=90.0°*)
  1: 0x00AB [0x47] WAIT_PLAYER_POS_UPDATE
  2: 0x00AD [0x00] END_REQSTACK()
```

### Event 65535.4

#### Metadata

| Field        | Value    |
|--------------|----------|
| Entrypoint   | 0x00AE   |
| Data Size    | 14 bytes |
| Instructions | 4        |

```
      00 01 02 03 04 05 06 07  08 09 0A 0B 0C 0D 0E 0F
      -- -- -- -- -- -- -- --  -- -- -- -- -- -- -- --
00A0:                                            32 11                2.
00B0: 80 1F 00 12 80 13 80 14  80 1F 01 00              ............    
```

#### Opcodes

```
  0: 0x00AE [0x32] ExtData[1]->MainSpeed = 13* * 0.1
  1: 0x00B1 [0x1F] MOVE_ENTITY: EventEntity moves to X=-200.082*, Z=-513.922*, Y=-7.897*
  2: 0x00B9 [0x1F] MOVE_ENTITY: Update entity position (mode=1)
  3: 0x00BB [0x00] END_REQSTACK()
```

### Event 65535.5

#### Metadata

| Field        | Value    |
|--------------|----------|
| Entrypoint   | 0x00BC   |
| Data Size    | 37 bytes |
| Instructions | 5        |

```
      00 01 02 03 04 05 06 07  08 09 0A 0B 0C 0D 0E 0F
      -- -- -- -- -- -- -- --  -- -- -- -- -- -- -- --
00B0:                                      03 05 00 07              ....
00C0: 7F 1A 76 02 66 06 00 F8  FF FF 7F F8 FF FF 7F 73  ..v.f..........s
00D0: 69 74 30 53 F8 FF FF 7F  F8 FF FF 7F 73 69 74 30  it0S........sit0
00E0: 00                                                .               
```

#### Opcodes

```
  0: 0x00BC [0x03] ExtData[1]->WorkLocal[5] = Entity->Race
  1: 0x00C1 [0x1A] CALL_SUBROUTINE(address=0x0276)
  2: 0x00C4 [0x66] LOAD_EXT_SCHEDULER_MAIN: Load scheduler "sit0" with entities [EventEntity, EventEntity], work=ExtData[1]->WorkLocal[6]
  3: 0x00D3 [0x53] WAIT_SCHEDULER_TASK: Wait for scheduler "sit0" with entities [EventEntity, EventEntity]
  4: 0x00E0 [0x00] END_REQSTACK()
```

### Event 65535.6

#### Metadata

| Field        | Value    |
|--------------|----------|
| Entrypoint   | 0x00E1   |
| Data Size    | 37 bytes |
| Instructions | 5        |

```
      00 01 02 03 04 05 06 07  08 09 0A 0B 0C 0D 0E 0F
      -- -- -- -- -- -- -- --  -- -- -- -- -- -- -- --
00E0:    03 05 00 07 7F 1A 76  02 66 06 00 F8 FF FF 7F   ......v.f......
00F0: F8 FF FF 7F 73 69 74 31  53 F8 FF FF 7F F8 FF FF  ....sit1S.......
0100: 7F 73 69 74 31 00                                 .sit1.          
```

#### Opcodes

```
  0: 0x00E1 [0x03] ExtData[1]->WorkLocal[5] = Entity->Race
  1: 0x00E6 [0x1A] CALL_SUBROUTINE(address=0x0276)
  2: 0x00E9 [0x66] LOAD_EXT_SCHEDULER_MAIN: Load scheduler "sit1" with entities [EventEntity, EventEntity], work=ExtData[1]->WorkLocal[6]
  3: 0x00F8 [0x53] WAIT_SCHEDULER_TASK: Wait for scheduler "sit1" with entities [EventEntity, EventEntity]
  4: 0x0105 [0x00] END_REQSTACK()
```

### Event 65535.7

#### Metadata

| Field        | Value    |
|--------------|----------|
| Entrypoint   | 0x0106   |
| Data Size    | 37 bytes |
| Instructions | 5        |

```
      00 01 02 03 04 05 06 07  08 09 0A 0B 0C 0D 0E 0F
      -- -- -- -- -- -- -- --  -- -- -- -- -- -- -- --
0100:                   03 05  00 07 7F 1A 76 02 66 06        ......v.f.
0110: 00 F8 FF FF 7F F8 FF FF  7F 73 68 61 30 53 F8 FF  .........sha0S..
0120: FF 7F F8 FF FF 7F 73 68  61 30 00                 ......sha0.     
```

#### Opcodes

```
  0: 0x0106 [0x03] ExtData[1]->WorkLocal[5] = Entity->Race
  1: 0x010B [0x1A] CALL_SUBROUTINE(address=0x0276)
  2: 0x010E [0x66] LOAD_EXT_SCHEDULER_MAIN: Load scheduler "sha0" with entities [EventEntity, EventEntity], work=ExtData[1]->WorkLocal[6]
  3: 0x011D [0x53] WAIT_SCHEDULER_TASK: Wait for scheduler "sha0" with entities [EventEntity, EventEntity]
  4: 0x012A [0x00] END_REQSTACK()
```

### Event 65535.8

#### Metadata

| Field        | Value    |
|--------------|----------|
| Entrypoint   | 0x012B   |
| Data Size    | 37 bytes |
| Instructions | 5        |

```
      00 01 02 03 04 05 06 07  08 09 0A 0B 0C 0D 0E 0F
      -- -- -- -- -- -- -- --  -- -- -- -- -- -- -- --
0120:                                   03 05 00 07 7F             .....
0130: 1A 76 02 66 06 00 F8 FF  FF 7F F8 FF FF 7F 73 68  .v.f..........sh
0140: 61 31 53 F8 FF FF 7F F8  FF FF 7F 73 68 61 31 00  a1S........sha1.
```

#### Opcodes

```
  0: 0x012B [0x03] ExtData[1]->WorkLocal[5] = Entity->Race
  1: 0x0130 [0x1A] CALL_SUBROUTINE(address=0x0276)
  2: 0x0133 [0x66] LOAD_EXT_SCHEDULER_MAIN: Load scheduler "sha1" with entities [EventEntity, EventEntity], work=ExtData[1]->WorkLocal[6]
  3: 0x0142 [0x53] WAIT_SCHEDULER_TASK: Wait for scheduler "sha1" with entities [EventEntity, EventEntity]
  4: 0x014F [0x00] END_REQSTACK()
```

### Event 65535.9

#### Metadata

| Field        | Value    |
|--------------|----------|
| Entrypoint   | 0x0150   |
| Data Size    | 15 bytes |
| Instructions | 5        |

```
      00 01 02 03 04 05 06 07  08 09 0A 0B 0C 0D 0E 0F
      -- -- -- -- -- -- -- --  -- -- -- -- -- -- -- --
0150: 32 15 80 1F 00 16 80 17  80 18 80 1F 01 6F 00     2............o. 
```

#### Opcodes

```
  0: 0x0150 [0x32] ExtData[1]->MainSpeed = 40* * 0.1
  1: 0x0153 [0x1F] MOVE_ENTITY: EventEntity moves to X=70.210*, Z=330.954*, Y=0.203*
  2: 0x015B [0x1F] MOVE_ENTITY: Update entity position (mode=1)
  3: 0x015D [0x6F] WAIT_FRAME_DELAY: Yield until WaitTime reaches zero
  4: 0x015E [0x00] END_REQSTACK()
```

### Event 65535.10

#### Metadata

| Field        | Value    |
|--------------|----------|
| Entrypoint   | 0x015F   |
| Data Size    | 35 bytes |
| Instructions | 9        |

```
      00 01 02 03 04 05 06 07  08 09 0A 0B 0C 0D 0E 0F
      -- -- -- -- -- -- -- --  -- -- -- -- -- -- -- --
0150:                                               32                 2
0160: 15 80 1F 00 19 80 1A 80  1B 80 1F 01 6F 4A F0 FF  ............oJ..
0170: FF 7F 55 23 05 01 6F 76  F0 FF FF 7F 7B F0 FF FF  ..U#..ov....{...
0180: 7F 00                                             ..              
```

#### Opcodes

```
  0: 0x015F [0x32] ExtData[1]->MainSpeed = 40* * 0.1
  1: 0x0162 [0x1F] MOVE_ENTITY: EventEntity moves to X=70.131*, Z=337.845*, Y=0.984*
  2: 0x016A [0x1F] MOVE_ENTITY: Update entity position (mode=1)
  3: 0x016C [0x6F] WAIT_FRAME_DELAY: Yield until WaitTime reaches zero
  4: 0x016D [0x4A] LocalPlayer looks at Fingerfilcher Dradzad (ID: 17113941/0x01052355)
  5: 0x0176 [0x6F] WAIT_FRAME_DELAY: Yield until WaitTime reaches zero
  6: 0x0177 [0x76] CHECK_ENTITY_RENDER_FLAGS: Wait until LocalPlayer Render.Flags0 and Render.Flags3 conditions are met
  7: 0x017C [0x7B] LocalPlayer stops talking
  8: 0x0181 [0x00] END_REQSTACK()
```

### Event 65535.11

#### Metadata

| Field        | Value    |
|--------------|----------|
| Entrypoint   | 0x0182   |
| Data Size    | 33 bytes |
| Instructions | 9        |

```
      00 01 02 03 04 05 06 07  08 09 0A 0B 0C 0D 0E 0F
      -- -- -- -- -- -- -- --  -- -- -- -- -- -- -- --
0180:       32 15 80 1F 00 1C  80 1D 80 1E 80 1F 01 6F    2............o
0190: 4B F0 FF FF 7F 1F 80 6F  76 F0 FF FF 7F 7B F0 FF  K......ov....{..
01A0: FF 7F 00                                          ...             
```

#### Opcodes

```
  0: 0x0182 [0x32] ExtData[1]->MainSpeed = 40* * 0.1
  1: 0x0185 [0x1F] MOVE_ENTITY: EventEntity moves to X=73.658*, Z=338.806*, Y=0.916*
  2: 0x018D [0x1F] MOVE_ENTITY: Update entity position (mode=1)
  3: 0x018F [0x6F] WAIT_FRAME_DELAY: Yield until WaitTime reaches zero
  4: 0x0190 [0x4B] UPDATE_ENTITY_YAW(entity=LocalPlayer, yaw=4.4°*)
  5: 0x0197 [0x6F] WAIT_FRAME_DELAY: Yield until WaitTime reaches zero
  6: 0x0198 [0x76] CHECK_ENTITY_RENDER_FLAGS: Wait until LocalPlayer Render.Flags0 and Render.Flags3 conditions are met
  7: 0x019D [0x7B] LocalPlayer stops talking
  8: 0x01A2 [0x00] END_REQSTACK()
```

### Event 65535.12

#### Metadata

| Field        | Value    |
|--------------|----------|
| Entrypoint   | 0x01A3   |
| Data Size    | 24 bytes |
| Instructions | 6        |

```
      00 01 02 03 04 05 06 07  08 09 0A 0B 0C 0D 0E 0F
      -- -- -- -- -- -- -- --  -- -- -- -- -- -- -- --
01A0:          32 11 80 1F 00  20 80 21 80 02 80 1F 01     2.... .!.....
01B0: 6F 4A F0 FF FF 7F 53 23  05 01 00                 oJ....S#...     
```

#### Opcodes

```
  0: 0x01A3 [0x32] ExtData[1]->MainSpeed = 13* * 0.1
  1: 0x01A6 [0x1F] MOVE_ENTITY: EventEntity moves to X=-320.228*, Z=441.146*, Y=0.000*
  2: 0x01AE [0x1F] MOVE_ENTITY: Update entity position (mode=1)
  3: 0x01B0 [0x6F] WAIT_FRAME_DELAY: Yield until WaitTime reaches zero
  4: 0x01B1 [0x4A] LocalPlayer looks at Rahal (ID: 17113939/0x01052353)
  5: 0x01BA [0x00] END_REQSTACK()
```

### Event 65535.13

#### Metadata

| Field        | Value   |
|--------------|---------|
| Entrypoint   | 0x01BB  |
| Data Size    | 6 bytes |
| Instructions | 2       |

```
      00 01 02 03 04 05 06 07  08 09 0A 0B 0C 0D 0E 0F
      -- -- -- -- -- -- -- --  -- -- -- -- -- -- -- --
01B0:                                   03 02 10 07 7F             .....
01C0: 00                                                .               
```

#### Opcodes

```
  0: 0x01BB [0x03] Work_Zone[2] = Entity->Race
  1: 0x01C0 [0x00] END_REQSTACK()
```

### Event 65535.14

#### Metadata

| Field        | Value   |
|--------------|---------|
| Entrypoint   | 0x01C1  |
| Data Size    | 6 bytes |
| Instructions | 2       |

```
      00 01 02 03 04 05 06 07  08 09 0A 0B 0C 0D 0E 0F
      -- -- -- -- -- -- -- --  -- -- -- -- -- -- -- --
01C0:    03 02 10 0B 7F 00                               ......         
```

#### Opcodes

```
  0: 0x01C1 [0x03] Work_Zone[2] = (Entity->Render.Flags01 >> 25) & 1
  1: 0x01C6 [0x00] END_REQSTACK()
```

### Event 65535.15

#### Metadata

| Field        | Value   |
|--------------|---------|
| Entrypoint   | 0x01C7  |
| Data Size    | 7 bytes |
| Instructions | 3       |

```
      00 01 02 03 04 05 06 07  08 09 0A 0B 0C 0D 0E 0F
      -- -- -- -- -- -- -- --  -- -- -- -- -- -- -- --
01C0:                      AB  03 AC 01 03 80 00               .......  
```

#### Opcodes

```
  0: 0x01C7 [0xAB] EventEntity->Render.Flags0 ^= 0x20000 // Toggle bit 17
  1: 0x01C9 [0xAC] EventEntity->StatusEvent = 1*
  2: 0x01CD [0x00] END_REQSTACK()
```

### Event 65535.16

#### Metadata

| Field        | Value   |
|--------------|---------|
| Entrypoint   | 0x01CE  |
| Data Size    | 7 bytes |
| Instructions | 3       |

```
      00 01 02 03 04 05 06 07  08 09 0A 0B 0C 0D 0E 0F
      -- -- -- -- -- -- -- --  -- -- -- -- -- -- -- --
01C0:                                            AC 01                ..
01D0: 02 80 AB 04 00                                    .....           
```

#### Opcodes

```
  0: 0x01CE [0xAC] EventEntity->StatusEvent = 0*
  1: 0x01D2 [0xAB] EventEntity->Render.Flags0 |= 0x40000 // Set bit 18
  2: 0x01D4 [0x00] END_REQSTACK()
```

### Event 65535.17

#### Metadata

| Field        | Value    |
|--------------|----------|
| Entrypoint   | 0x01D5   |
| Data Size    | 15 bytes |
| Instructions | 5        |

```
      00 01 02 03 04 05 06 07  08 09 0A 0B 0C 0D 0E 0F
      -- -- -- -- -- -- -- --  -- -- -- -- -- -- -- --
01D0:                32 11 80  1F 00 22 80 23 80 24 80       2....".#.$.
01E0: 1F 01 6F 00                                       ..o.            
```

#### Opcodes

```
  0: 0x01D5 [0x32] ExtData[1]->MainSpeed = 13* * 0.1
  1: 0x01D8 [0x1F] MOVE_ENTITY: EventEntity moves to X=-6.176*, Z=-293.900*, Y=0.222*
  2: 0x01E0 [0x1F] MOVE_ENTITY: Update entity position (mode=1)
  3: 0x01E2 [0x6F] WAIT_FRAME_DELAY: Yield until WaitTime reaches zero
  4: 0x01E3 [0x00] END_REQSTACK()
```

### Event 65535.18

#### Metadata

| Field        | Value    |
|--------------|----------|
| Entrypoint   | 0x01E4   |
| Data Size    | 29 bytes |
| Instructions | 7        |

```
      00 01 02 03 04 05 06 07  08 09 0A 0B 0C 0D 0E 0F
      -- -- -- -- -- -- -- --  -- -- -- -- -- -- -- --
01E0:             32 15 80 1F  00 25 80 26 80 02 80 1F      2....%.&....
01F0: 01 6F 4A F0 FF FF 7F 58  23 05 01 7B F0 FF FF 7F  .oJ....X#..{....
0200: 00                                                .               
```

#### Opcodes

```
  0: 0x01E4 [0x32] ExtData[1]->MainSpeed = 40* * 0.1
  1: 0x01E7 [0x1F] MOVE_ENTITY: EventEntity moves to X=-2.496*, Z=-322.004*, Y=0.000*
  2: 0x01EF [0x1F] MOVE_ENTITY: Update entity position (mode=1)
  3: 0x01F1 [0x6F] WAIT_FRAME_DELAY: Yield until WaitTime reaches zero
  4: 0x01F2 [0x4A] LocalPlayer looks at Unnamed NPC (ID: 17113944/0x01052358)
  5: 0x01FB [0x7B] LocalPlayer stops talking
  6: 0x0200 [0x00] END_REQSTACK()
```

### Event 65535.19

#### Metadata

| Field        | Value    |
|--------------|----------|
| Entrypoint   | 0x0201   |
| Data Size    | 15 bytes |
| Instructions | 5        |

```
      00 01 02 03 04 05 06 07  08 09 0A 0B 0C 0D 0E 0F
      -- -- -- -- -- -- -- --  -- -- -- -- -- -- -- --
0200:    32 15 80 1F 00 27 80  28 80 02 80 1F 01 6F 00   2....'.(.....o.
```

#### Opcodes

```
  0: 0x0201 [0x32] ExtData[1]->MainSpeed = 40* * 0.1
  1: 0x0204 [0x1F] MOVE_ENTITY: EventEntity moves to X=-3.067*, Z=-318.101*, Y=0.000*
  2: 0x020C [0x1F] MOVE_ENTITY: Update entity position (mode=1)
  3: 0x020E [0x6F] WAIT_FRAME_DELAY: Yield until WaitTime reaches zero
  4: 0x020F [0x00] END_REQSTACK()
```

### Event 65535.20

#### Metadata

| Field        | Value    |
|--------------|----------|
| Entrypoint   | 0x0210   |
| Data Size    | 35 bytes |
| Instructions | 9        |

```
      00 01 02 03 04 05 06 07  08 09 0A 0B 0C 0D 0E 0F
      -- -- -- -- -- -- -- --  -- -- -- -- -- -- -- --
0210: 03 00 00 25 10 03 02 00  27 10 03 01 00 26 10 03  ...%....'....&..
0220: 03 00 28 10 32 15 80 1F  00 00 00 02 00 01 00 1F  ..(.2...........
0230: 01 6F 00                                          .o.             
```

#### Opcodes

```
  0: 0x0210 [0x03] ExtData[1]->WorkLocal[0] = Work_Zone[37]
  1: 0x0215 [0x03] ExtData[1]->WorkLocal[2] = Work_Zone[39]
  2: 0x021A [0x03] ExtData[1]->WorkLocal[1] = Work_Zone[38]
  3: 0x021F [0x03] ExtData[1]->WorkLocal[3] = Work_Zone[40]
  4: 0x0224 [0x32] ExtData[1]->MainSpeed = 40* * 0.1
  5: 0x0227 [0x1F] MOVE_ENTITY: EventEntity moves to X=ExtData[1]->WorkLocal[0], Z=ExtData[1]->WorkLocal[2], Y=ExtData[1]->WorkLocal[1]
  6: 0x022F [0x1F] MOVE_ENTITY: Update entity position (mode=1)
  7: 0x0231 [0x6F] WAIT_FRAME_DELAY: Yield until WaitTime reaches zero
  8: 0x0232 [0x00] END_REQSTACK()
```

### Event 65535.21

#### Metadata

| Field        | Value    |
|--------------|----------|
| Entrypoint   | 0x0233   |
| Data Size    | 35 bytes |
| Instructions | 9        |

```
      00 01 02 03 04 05 06 07  08 09 0A 0B 0C 0D 0E 0F
      -- -- -- -- -- -- -- --  -- -- -- -- -- -- -- --
0230:          03 00 00 25 10  03 02 00 27 10 03 01 00     ...%....'....
0240: 26 10 03 03 00 28 10 32  11 80 1F 00 00 00 02 00  &....(.2........
0250: 01 00 1F 01 6F 00                                 ....o.          
```

#### Opcodes

```
  0: 0x0233 [0x03] ExtData[1]->WorkLocal[0] = Work_Zone[37]
  1: 0x0238 [0x03] ExtData[1]->WorkLocal[2] = Work_Zone[39]
  2: 0x023D [0x03] ExtData[1]->WorkLocal[1] = Work_Zone[38]
  3: 0x0242 [0x03] ExtData[1]->WorkLocal[3] = Work_Zone[40]
  4: 0x0247 [0x32] ExtData[1]->MainSpeed = 13* * 0.1
  5: 0x024A [0x1F] MOVE_ENTITY: EventEntity moves to X=ExtData[1]->WorkLocal[0], Z=ExtData[1]->WorkLocal[2], Y=ExtData[1]->WorkLocal[1]
  6: 0x0252 [0x1F] MOVE_ENTITY: Update entity position (mode=1)
  7: 0x0254 [0x6F] WAIT_FRAME_DELAY: Yield until WaitTime reaches zero
  8: 0x0255 [0x00] END_REQSTACK()
```

### Event 65535.22

#### Metadata

| Field        | Value     |
|--------------|-----------|
| Entrypoint   | 0x0256    |
| Data Size    | 180 bytes |
| Instructions | 8         |

```
      00 01 02 03 04 05 06 07  08 09 0A 0B 0C 0D 0E 0F
      -- -- -- -- -- -- -- --  -- -- -- -- -- -- -- --
0250:                   1F 00  29 80 2A 80 2B 80 1F 01        ..).*.+...
0260: 6F 4B F0 FF FF 7F 2C 80  6F 76 F0 FF FF 7F 27 10  oK....,.ov....'.
0270: F0 FF FF 7F 09 00 03 06  00 05 00 02 06 00 2D 80  ..............-.
0280: 05 8B 02 08 06 00 03 80  01 90 02 08 06 00 2E 80  ................
0290: 14 06 00 2F 80 07 06 00  30 80 1B 03 06 00 05 00  .../....0.......
02A0: 02 06 00 2D 80 05 B0 02  08 06 00 03 80 01 B5 02  ...-............
02B0: 08 06 00 2E 80 14 06 00  2F 80 07 06 00 31 80 1B  ......../....1..
02C0: 03 06 00 05 00 02 06 00  2D 80 05 D5 02 08 06 00  ........-.......
02D0: 03 80 01 DA 02 08 06 00  2E 80 14 06 00 2F 80 07  ............./..
02E0: 06 00 32 80 1B 03 06 00  05 00 02 06 00 2D 80 05  ..2..........-..
02F0: FA 02 08 06 00 03 80 01  FF 02 08 06 00 2E 80 14  ................
0300: 06 00 2F 80 07 06 00 33  80 1B                    ../....3..      
```

#### Opcodes

```
  0: 0x0256 [0x1F] MOVE_ENTITY: EventEntity moves to X=-401.598*, Z=-311.325*, Y=-0.191*
  1: 0x025E [0x1F] MOVE_ENTITY: Update entity position (mode=1)
  2: 0x0260 [0x6F] WAIT_FRAME_DELAY: Yield until WaitTime reaches zero
  3: 0x0261 [0x4B] UPDATE_ENTITY_YAW(entity=LocalPlayer, yaw=0.7°*)
  4: 0x0268 [0x6F] WAIT_FRAME_DELAY: Yield until WaitTime reaches zero
  5: 0x0269 [0x76] CHECK_ENTITY_RENDER_FLAGS: Wait until LocalPlayer Render.Flags0 and Render.Flags3 conditions are met
  6: 0x026E [0x27] REQ_SET(priority=0x10, entity_id=LocalPlayer, tag_num=0x09)
  7: 0x0275 [0x00] END_REQSTACK()
```

#### Data or dead code:

```
# Dead code (unreachable instructions):
     0x0276 [0x03] ExtData[1]->WorkLocal[6] = ExtData[1]->WorkLocal[5]
     0x027B [0x02] IF !(ExtData[1]->WorkLocal[6] > 5*) GOTO 0x028B
     0x0283 [0x08] ExtData[1]->WorkLocal[6] -= 1*
     0x0288 [0x01] GOTO 0x0290
     0x028B [0x08] ExtData[1]->WorkLocal[6] -= 2*
     0x0290 [0x14] ExtData[1]->WorkLocal[6] *= 10*
     0x0295 [0x07] ExtData[1]->WorkLocal[6] += 9*
     0x029A [0x1B] RETURN
     0x029B [0x03] ExtData[1]->WorkLocal[6] = ExtData[1]->WorkLocal[5]
     0x02A0 [0x02] IF !(ExtData[1]->WorkLocal[6] > 5*) GOTO 0x02B0
     0x02A8 [0x08] ExtData[1]->WorkLocal[6] -= 1*
     0x02AD [0x01] GOTO 0x02B5
     0x02B0 [0x08] ExtData[1]->WorkLocal[6] -= 2*
     0x02B5 [0x14] ExtData[1]->WorkLocal[6] *= 10*
     0x02BA [0x07] ExtData[1]->WorkLocal[6] += 70*
     0x02BF [0x1B] RETURN
     0x02C0 [0x03] ExtData[1]->WorkLocal[6] = ExtData[1]->WorkLocal[5]
     0x02C5 [0x02] IF !(ExtData[1]->WorkLocal[6] > 5*) GOTO 0x02D5
     0x02CD [0x08] ExtData[1]->WorkLocal[6] -= 1*
     0x02D2 [0x01] GOTO 0x02DA
     0x02D5 [0x08] ExtData[1]->WorkLocal[6] -= 2*
     0x02DA [0x14] ExtData[1]->WorkLocal[6] *= 10*
     0x02DF [0x07] ExtData[1]->WorkLocal[6] += 140*
     0x02E4 [0x1B] RETURN
     0x02E5 [0x03] ExtData[1]->WorkLocal[6] = ExtData[1]->WorkLocal[5]
     0x02EA [0x02] IF !(ExtData[1]->WorkLocal[6] > 5*) GOTO 0x02FA
     0x02F2 [0x08] ExtData[1]->WorkLocal[6] -= 1*
     0x02F7 [0x01] GOTO 0x02FF
     0x02FA [0x08] ExtData[1]->WorkLocal[6] -= 2*
     0x02FF [0x14] ExtData[1]->WorkLocal[6] *= 10*
     0x0304 [0x07] ExtData[1]->WorkLocal[6] += 210*
     0x0309 [0x1B] RETURN
```

### Event 100

#### Metadata

| Field        | Value      |
|--------------|------------|
| Entrypoint   | 0x030A     |
| Data Size    | 2389 bytes |
| Instructions | 259        |

```
      00 01 02 03 04 05 06 07  08 09 0A 0B 0C 0D 0E 0F
      -- -- -- -- -- -- -- --  -- -- -- -- -- -- -- --
0300:                                42 45 01 80 F8 FF            BE....
0310: FF 7F F8 FF FF 7F 66 64  6F 31 02 80 55 01 80 F8  ......fdo1..U...
0320: FF FF 7F F8 FF FF 7F 66  64 6F 31 46 01 38 34 80  .......fdo1F.84.
0330: 83 07 00 AA 07 00 07 00  07 00 07 00 07 00 08 00  ................
0340: 07 00 07 00 77 08 00 03  80 BA F0 FF FF 7F 35 80  ....w.........5.
0350: 36 80 37 80 38 80 80 F0  FF FF 7F 2F 00 1E 23 05  6.7.8....../..#.
0360: 01 4E 00 1E 23 05 01 80  1E 23 05 01 2F 00 1F 23  .N..#....#../..#
0370: 05 01 94 01 1E 23 05 01  94 01 1F 23 05 01 45 39  .....#.....#..E9
0380: 80 F8 FF FF 7F F8 FF FF  7F 73 30 35 32 02 80 1C  .........s052...
0390: 3A 80 45 01 80 F8 FF FF  7F F8 FF FF 7F 66 64 69  :.E..........fdi
03A0: 31 02 80 55 01 80 F8 FF  FF 7F F8 FF FF 7F 66 64  1..U..........fd
03B0: 69 31 62 3B 80 1D 23 05  01 1D 23 05 01 6D 61 69  i1b;..#...#..mai
03C0: 6E 02 80 48 3C 80 23 27  05 1E 23 05 01 02 1C 3D  n..H<.#'..#....=
03D0: 80 52 39 80 F8 FF FF 7F  F8 FF FF 7F 73 30 35 32  .R9.........s052
03E0: 45 39 80 F8 FF FF 7F F8  FF FF 7F 73 30 35 33 02  E9.........s053.
03F0: 80 2A 05 1E 23 05 01 4A  F0 FF FF 7F 1E 23 05 01  .*..#..J.....#..
0400: 1C 3D 80 5B 3E 80 1E 23  05 01 1E 23 05 01 65 30  .=.[>..#...#..e0
0410: 30 31 2B 1E 23 05 01 3F  80 23 53 1E 23 05 01 1E  01+.#..?.#S.#...
0420: 23 05 01 65 30 30 31 52  39 80 F8 FF FF 7F F8 FF  #..e001R9.......
0430: FF 7F 73 30 35 33 45 39  80 F8 FF FF 7F F8 FF FF  ..s053E9........
0440: 7F 73 30 35 34 02 80 4A  1E 23 05 01 F0 FF FF 7F  .s054..J.#......
0450: 1C 3D 80 2B 1E 23 05 01  40 80 23 52 39 80 F8 FF  .=.+.#..@.#R9...
0460: FF 7F F8 FF FF 7F 73 30  35 34 45 39 80 F8 FF FF  ......s054E9....
0470: 7F F8 FF FF 7F 73 30 35  35 02 80 5B 3E 80 1E 23  .....s055..[>..#
0480: 05 01 1E 23 05 01 61 77  77 30 2B 1E 23 05 01 41  ...#..aww0+.#..A
0490: 80 23 5B 3E 80 1E 23 05  01 1E 23 05 01 61 77 77  .#[>..#...#..aww
04A0: 31 2B 1E 23 05 01 42 80  23 52 39 80 F8 FF FF 7F  1+.#..B.#R9.....
04B0: F8 FF FF 7F 73 30 35 35  45 39 80 F8 FF FF 7F F8  ....s055E9......
04C0: FF FF 7F 73 30 35 36 02  80 4B 1E 23 05 01 43 80  ...s056..K.#..C.
04D0: 1C 05 80 2B 1E 23 05 01  44 80 23 2B 1E 23 05 01  ...+.#..D.#+.#..
04E0: 45 80 23 52 39 80 F8 FF  FF 7F F8 FF FF 7F 73 30  E.#R9.........s0
04F0: 35 36 45 39 80 F8 FF FF  7F F8 FF FF 7F 73 30 35  56E9.........s05
0500: 37 02 80 5B 3E 80 1E 23  05 01 1E 23 05 01 74 6C  7..[>..#...#..tl
0510: 6B 30 2B 1E 23 05 01 46  80 23 5B 3E 80 1E 23 05  k0+.#..F.#[>..#.
0520: 01 1E 23 05 01 74 6C 6B  31 5C 00 47 80 5C 01 47  ..#..tlk1\.G.\.G
0530: 80 9A 52 39 80 F8 FF FF  7F F8 FF FF 7F 73 30 35  ..R9.........s05
0540: 37 45 39 80 F8 FF FF 7F  F8 FF FF 7F 73 30 37 34  7E9.........s074
0550: 02 80 7C 00 1E 23 05 01  5B 48 80 1E 23 05 01 1E  ..|..#..[H..#...
0560: 23 05 01 64 61 6E 30 1C  33 80 52 39 80 F8 FF FF  #..dan0.3.R9....
0570: 7F F8 FF FF 7F 73 30 37  34 45 39 80 F8 FF FF 7F  .....s074E9.....
0580: F8 FF FF 7F 73 30 35 38  02 80 2B 1E 23 05 01 49  ....s058..+.#..I
0590: 80 23 53 1E 23 05 01 1E  23 05 01 64 61 6E 30 7C  .#S.#...#..dan0|
05A0: 01 1E 23 05 01 52 39 80  F8 FF FF 7F F8 FF FF 7F  ..#..R9.........
05B0: 73 30 35 38 45 39 80 F8  FF FF 7F F8 FF FF 7F 73  s058E9.........s
05C0: 30 38 34 02 80 2B 1E 23  05 01 4A 80 23 52 39 80  084..+.#..J.#R9.
05D0: F8 FF FF 7F F8 FF FF 7F  73 30 38 34 45 39 80 F8  ........s084E9..
05E0: FF FF 7F F8 FF FF 7F 73  30 35 39 02 80 2B 1E 23  .......s059..+.#
05F0: 05 01 4B 80 23 52 39 80  F8 FF FF 7F F8 FF FF 7F  ..K.#R9.........
0600: 73 30 35 39 45 39 80 F8  FF FF 7F F8 FF FF 7F 73  s059E9.........s
0610: 30 36 30 02 80 2B 1E 23  05 01 4C 80 23 52 39 80  060..+.#..L.#R9.
0620: F8 FF FF 7F F8 FF FF 7F  73 30 36 30 45 39 80 F8  ........s060E9..
0630: FF FF 7F F8 FF FF 7F 73  30 36 31 02 80 5B 4D 80  .......s061..[M.
0640: 1E 23 05 01 1E 23 05 01  64 61 6E 31 1C 0C 80 52  .#...#..dan1...R
0650: 39 80 F8 FF FF 7F F8 FF  FF 7F 73 30 36 31 45 39  9.........s061E9
0660: 80 F8 FF FF 7F F8 FF FF  7F 73 30 38 35 02 80 1C  .........s085...
0670: 4E 80 52 39 80 F8 FF FF  7F F8 FF FF 7F 73 30 38  N.R9.........s08
0680: 35 45 39 80 F8 FF FF 7F  F8 FF FF 7F 73 30 36 32  5E9.........s062
0690: 02 80 1C 4F 80 52 39 80  F8 FF FF 7F F8 FF FF 7F  ...O.R9.........
06A0: 73 30 36 32 45 39 80 F8  FF FF 7F F8 FF FF 7F 73  s062E9.........s
06B0: 30 36 33 02 80 1C 0C 80  52 39 80 F8 FF FF 7F F8  063.....R9......
06C0: FF FF 7F 73 30 36 33 45  39 80 F8 FF FF 7F F8 FF  ...s063E9.......
06D0: FF 7F 73 30 36 34 02 80  1C 33 80 52 39 80 F8 FF  ..s064...3.R9...
06E0: FF 7F F8 FF FF 7F 73 30  36 34 45 39 80 F8 FF FF  ......s064E9....
06F0: 7F F8 FF FF 7F 73 31 32  38 02 80 29 05 F0 FF FF  .....s128..)....
0700: 7F 1A 4A F0 FF FF 7F 1E  23 05 01 1C 3D 80 27 05  ..J.....#...=.'.
0710: F0 FF FF 7F 07 2A 05 F0  FF FF 7F 1C 4E 80 52 39  .....*......N.R9
0720: 80 F8 FF FF 7F F8 FF FF  7F 73 31 32 38 45 39 80  .........s128E9.
0730: F8 FF FF 7F F8 FF FF 7F  73 31 33 32 02 80 1C 50  ........s132...P
0740: 80 5D 02 80 4F 80 45 01  80 F8 FF FF 7F F8 FF FF  .]..O.E.........
0750: 7F 66 64 6F 31 02 80 55  01 80 F8 FF FF 7F F8 FF  .fdo1..U........
0760: FF 7F 66 64 6F 31 52 39  80 F8 FF FF 7F F8 FF FF  ..fdo1R9........
0770: 7F 73 31 33 32 6B 69 64  6C 30 1E 23 05 01 BA F0  .s132kidl0.#....
0780: FF FF 7F 51 80 52 80 53  80 54 80 BA 1E 23 05 01  ...Q.R.S.T...#..
0790: 55 80 56 80 57 80 58 80  80 F0 FF FF 7F 80 1E 23  U.V.W.X........#
07A0: 05 01 7B 1E 23 05 01 79  00 1E 23 05 01 1E 23 05  ..{.#..y..#...#.
07B0: 01 4A F0 FF FF 7F 1E 23  05 01 1C 3D 80 5C 00 02  .J.....#...=.\..
07C0: 80 5C 01 02 80 9A 45 39  80 F8 FF FF 7F F8 FF FF  .\....E9........
07D0: 7F 73 30 36 35 02 80 1C  3A 80 45 01 80 F8 FF FF  .s065...:.E.....
07E0: 7F F8 FF FF 7F 66 64 69  31 02 80 55 01 80 F8 FF  .....fdi1..U....
07F0: FF 7F F8 FF FF 7F 66 64  69 31 55 39 80 F8 FF FF  ......fdi1U9....
0800: 7F F8 FF FF 7F 73 30 36  35 1C 3D 80 45 39 80 F8  .....s065.=.E9..
0810: FF FF 7F F8 FF FF 7F 73  30 38 37 02 80 2B 1E 23  .......s087..+.#
0820: 05 01 59 80 23 27 05 F0  FF FF 7F 08 52 39 80 F8  ..Y.#'......R9..
0830: FF FF 7F F8 FF FF 7F 73  30 38 37 02 87 7F 3B 80  .......s087...;.
0840: 80 57 08 45 39 80 F8 FF  FF 7F F8 FF FF 7F 73 31  .W.E9.........s1
0850: 33 30 02 80 01 D8 08 02  87 7F 5A 80 80 73 08 45  30........Z..s.E
0860: 39 80 F8 FF FF 7F F8 FF  FF 7F 73 31 33 30 02 80  9.........s130..
0870: 01 D8 08 02 87 7F 2D 80  80 8F 08 45 39 80 F8 FF  ......-....E9...
0880: FF 7F F8 FF FF 7F 73 31  33 31 02 80 01 D8 08 02  ......s131......
0890: 87 7F 5B 80 80 AB 08 45  39 80 F8 FF FF 7F F8 FF  ..[....E9.......
08A0: FF 7F 73 31 33 31 02 80  01 D8 08 02 87 7F 5C 80  ..s131........\.
08B0: 80 C7 08 45 39 80 F8 FF  FF 7F F8 FF FF 7F 73 31  ...E9.........s1
08C0: 33 30 02 80 01 D8 08 45  39 80 F8 FF FF 7F F8 FF  30.....E9.......
08D0: FF 7F 73 31 32 39 02 80  1C 4F 80 6E F0 FF FF 7F  ..s129...O.n....
08E0: 11 80 99 F0 FF FF 7F 1C  4F 80 52 39 80 F8 FF FF  ........O.R9....
08F0: 7F F8 FF FF 7F 73 31 32  39 45 39 80 F8 FF FF 7F  .....s129E9.....
0900: F8 FF FF 7F 73 30 38 38  02 80 4A 1E 23 05 01 F0  ....s088..J.#...
0910: FF FF 7F 1C 3D 80 2B 1E  23 05 01 5D 80 23 52 39  ....=.+.#..].#R9
0920: 80 F8 FF FF 7F F8 FF FF  7F 73 30 38 38 45 39 80  .........s088E9.
0930: F8 FF FF 7F F8 FF FF 7F  73 30 38 39 02 80 4E 00  ........s089..N.
0940: 1F 23 05 01 80 1F 23 05  01 4A 1E 23 05 01 1F 23  .#....#..J.#...#
0950: 05 01 1C 3D 80 5B 3E 80  1E 23 05 01 1E 23 05 01  ...=.[>..#...#..
0960: 74 6C 6B 30 2B 1E 23 05  01 5E 80 23 27 05 1F 23  tlk0+.#..^.#'..#
0970: 05 01 02 1C 3D 80 52 39  80 F8 FF FF 7F F8 FF FF  ....=.R9........
0980: 7F 73 30 38 39 45 39 80  F8 FF FF 7F F8 FF FF 7F  .s089E9.........
0990: 73 30 37 35 02 80 2B 1F  23 05 01 5F 80 23 52 39  s075..+.#.._.#R9
09A0: 80 F8 FF FF 7F F8 FF FF  7F 73 30 37 35 45 39 80  .........s075E9.
09B0: F8 FF FF 7F F8 FF FF 7F  73 30 37 36 02 80 2A 05  ........s076..*.
09C0: 1F 23 05 01 BA 1F 23 05  01 60 80 61 80 62 80 63  .#....#..`.a.b.c
09D0: 80 80 1F 23 05 01 5B 3E  80 1E 23 05 01 1E 23 05  ...#..[>..#...#.
09E0: 01 74 6C 6B 31 2B 1E 23  05 01 64 80 23 27 05 1F  .tlk1+.#..d.#'..
09F0: 23 05 01 03 1C 3D 80 52  39 80 F8 FF FF 7F F8 FF  #....=.R9.......
0A00: FF 7F 73 30 37 36 45 39  80 F8 FF FF 7F F8 FF FF  ..s076E9........
0A10: 7F 73 30 36 36 02 80 2A  05 1F 23 05 01 2B 1F 23  .s066..*..#..+.#
0A20: 05 01 65 80 23 2B 1E 23  05 01 66 80 23 5B 67 80  ..e.#+.#..f.#[g.
0A30: 1F 23 05 01 1F 23 05 01  61 77 61 30 52 39 80 F8  .#...#..awa0R9..
0A40: FF FF 7F F8 FF FF 7F 73  30 36 36 45 39 80 F8 FF  .......s066E9...
0A50: FF 7F F8 FF FF 7F 73 30  36 38 02 80 4E 01 F0 FF  ......s068..N...
0A60: FF 7F 2B 1F 23 05 01 68  80 23 53 1F 23 05 01 1F  ..+.#..h.#S.#...
0A70: 23 05 01 61 77 61 30 52  39 80 F8 FF FF 7F F8 FF  #..awa0R9.......
0A80: FF 7F 73 30 36 38 45 39  80 F8 FF FF 7F F8 FF FF  ..s068E9........
0A90: 7F 73 30 36 39 02 80 2B  1E 23 05 01 69 80 23 2B  .s069..+.#..i.#+
0AA0: 1F 23 05 01 6A 80 23 52  39 80 F8 FF FF 7F F8 FF  .#..j.#R9.......
0AB0: FF 7F 73 30 36 39 45 39  80 F8 FF FF 7F F8 FF FF  ..s069E9........
0AC0: 7F 73 30 37 30 02 80 5B  3E 80 1E 23 05 01 1E 23  .s070..[>..#...#
0AD0: 05 01 74 6C 6B 30 2B 1E  23 05 01 6B 80 23 52 39  ..tlk0+.#..k.#R9
0AE0: 80 F8 FF FF 7F F8 FF FF  7F 73 30 37 30 45 39 80  .........s070E9.
0AF0: F8 FF FF 7F F8 FF FF 7F  73 30 36 37 02 80 2B 1E  ........s067..+.
0B00: 23 05 01 6C 80 23 52 39  80 F8 FF FF 7F F8 FF FF  #..l.#R9........
0B10: 7F 73 30 36 37 45 39 80  F8 FF FF 7F F8 FF FF 7F  .s067E9.........
0B20: 73 30 37 31 02 80 7B 1F  23 05 01 5B 3E 80 1E 23  s071..{.#..[>..#
0B30: 05 01 1E 23 05 01 74 6C  6B 31 2B 1E 23 05 01 6D  ...#..tlk1+.#..m
0B40: 80 23 52 39 80 F8 FF FF  7F F8 FF FF 7F 73 30 37  .#R9.........s07
0B50: 31 45 39 80 F8 FF FF 7F  F8 FF FF 7F 73 30 37 32  1E9.........s072
0B60: 02 80 5B 67 80 1F 23 05  01 1F 23 05 01 63 68 6F  ..[g..#...#..cho
0B70: 30 2B 1F 23 05 01 6E 80  23 4E 00 F0 FF FF 7F 80  0+.#..n.#N......
0B80: F0 FF FF 7F 53 1F 23 05  01 1F 23 05 01 63 68 6F  ....S.#...#..cho
0B90: 30 52 39 80 F8 FF FF 7F  F8 FF FF 7F 73 30 37 32  0R9.........s072
0BA0: 45 39 80 F8 FF FF 7F F8  FF FF 7F 73 30 37 33 02  E9.........s073.
0BB0: 80 5B 2F 80 1F 23 05 01  1F 23 05 01 74 6C 6B 30  .[/..#...#..tlk0
0BC0: 2B 1F 23 05 01 6F 80 23  5B 2F 80 1F 23 05 01 1F  +.#..o.#[/..#...
0BD0: 23 05 01 74 6C 6B 31 27  05 1E 23 05 01 03 1C 4F  #..tlk1'..#....O
0BE0: 80 4A 1F 23 05 01 1E 23  05 01 1C 3D 80 27 05 1F  .J.#...#...=.'..
0BF0: 23 05 01 04 52 39 80 F8  FF FF 7F F8 FF FF 7F 73  #...R9.........s
0C00: 30 37 33 45 39 80 F8 FF  FF 7F F8 FF FF 7F 73 30  073E9.........s0
0C10: 38 36 02 80 1C 05 80 45  01 80 F8 FF FF 7F F8 FF  86.....E........
0C20: FF 7F 66 64 6F 31 02 80  55 01 80 F8 FF FF 7F F8  ..fdo1..U.......
0C30: FF FF 7F 66 64 6F 31 52  39 80 F8 FF FF 7F F8 FF  ...fdo1R9.......
0C40: FF 7F 73 30 38 36 78 46  00 1C 05 80 45 01 80 F8  ..s086xF....E...
0C50: FF FF 7F F8 FF FF 7F 66  64 69 31 02 80 21 00     .......fdi1..!. 
```

#### Opcodes

```
  0: 0x030A [0x42] SET_CLI_EVENT_CANCEL_DATA()
  1: 0x030B [0x45] LOAD_SCHEDULED_TASK: Load scheduler "fdo1" with entities [EventEntity, EventEntity], work=[200*, 0*]
  2: 0x031C [0x55] WAIT_LOAD_SCHEDULER: Wait for scheduler "fdo1" with entities [EventEntity, EventEntity], work=200*
  3: 0x032B [0x46] CAMERA_CONTROL: Disable user control
  4: 0x032D [0x38] SET_CLIENT_EVENT_MODE(mode=27*)
  5: 0x0330 [0x83] ExtData[1]->WorkLocal[7] = GetGameTime()
  6: 0x0333 [0xAA] VANA_DIEL_TIMESTAMP_CONVERTER(timestamp=ExtData[1]->WorkLocal[7], year=ExtData[1]->WorkLocal[7], month=ExtData[1]->WorkLocal[7], day=ExtData[1]->WorkLocal[7], weekday=ExtData[1]->WorkLocal[7], hour=ExtData[1]->WorkLocal[8], minute=ExtData[1]->WorkLocal[7], moon=ExtData[1]->WorkLocal[7])
  7: 0x0344 [0x77] SET_EVENT_TIME_WEATHER(hour=ExtData[1]->WorkLocal[8], weather=1*)
  8: 0x0349 [0xBA] SET_ENTITY_POSITION(entity_id=LocalPlayer, pos_x=103.164*, pos_z=442.749*, pos_y=5.361*, direction=179.5°*)
  9: 0x0356 [0x80] LOAD_WAIT(entity=LocalPlayer)
 10: 0x035B [0x2F] Laila (ID: 17113886/0x0105231E)->Render.Flags0 &= ~0x80000 // Bit 19
 11: 0x0361 [0x4E] SET_ENTITY_HIDE_FLAG: Show Laila (ID: 17113886/0x0105231E)
 12: 0x0367 [0x80] LOAD_WAIT(entity=Laila (ID: 17113886/0x0105231E))
 13: 0x036C [0x2F] Fairaure (ID: 17113887/0x0105231F)->Render.Flags0 &= ~0x80000 // Bit 19
 14: 0x0372 [0x94] Laila (ID: 17113886/0x0105231E)->Render.Flags3 ^= 0x01
 15: 0x0378 [0x94] Fairaure (ID: 17113887/0x0105231F)->Render.Flags3 ^= 0x01
 16: 0x037E [0x45] LOAD_SCHEDULED_TASK: Load scheduler "s052" with entities [EventEntity, EventEntity], work=[288*, 0*]
 17: 0x038F [0x1C] WAIT(15* ticks)
 18: 0x0392 [0x45] LOAD_SCHEDULED_TASK: Load scheduler "fdi1" with entities [EventEntity, EventEntity], work=[200*, 0*]
 19: 0x03A3 [0x55] WAIT_LOAD_SCHEDULER: Wait for scheduler "fdi1" with entities [EventEntity, EventEntity], work=200*
 20: 0x03B2 [0x62] LOAD_EVENT_SCHEDULER: Load scheduler "main" with entities [Glowing Pebbles (ID: 17113885/0x0105231D), Glowing Pebbles (ID: 17113885/0x0105231D)], work=[3*, 0*]
 21: 0x03C3 [0x48] [System] [7735*]:
    → "You find a sparkling stone."
 22: 0x03C6 [0x23] WAIT_FOR_DIALOG_INTERACTION
 23: 0x03C7 [0x27] REQ_SET(priority=0x05, entity_id=Laila (ID: 17113886/0x0105231E), tag_num=0x02)
 24: 0x03CE [0x1C] WAIT(30* ticks)
 25: 0x03D1 [0x52] END_LOAD_SCHEDULER: End scheduler "s052" with entities [EventEntity, EventEntity], work=288*
 26: 0x03E0 [0x45] LOAD_SCHEDULED_TASK: Load scheduler "s053" with entities [EventEntity, EventEntity], work=[288*, 0*]
 27: 0x03F1 [0x2A] GET_REQ_LEVEL(level=5, entity_id=Laila (ID: 17113886/0x0105231E))
 28: 0x03F7 [0x4A] LocalPlayer looks at Laila (ID: 17113886/0x0105231E)
 29: 0x0400 [0x1C] WAIT(30* ticks)
 30: 0x0403 [0x5B] LOAD_EXT_SCHEDULER: Load scheduler "e001" with entities [Laila (ID: 17113886/0x0105231E), Laila (ID: 17113886/0x0105231E)], work=80*
 31: 0x0412 [0x2B] Laila (ID: 17113886/0x0105231E) [7736*]:
    → "Well, isn't that a pretty little thing. I'll have t'take one home with me!"
 32: 0x0419 [0x23] WAIT_FOR_DIALOG_INTERACTION
 33: 0x041A [0x53] WAIT_SCHEDULER_TASK: Wait for scheduler "e001" with entities [Laila (ID: 17113886/0x0105231E), Laila (ID: 17113886/0x0105231E)]
 34: 0x0427 [0x52] END_LOAD_SCHEDULER: End scheduler "s053" with entities [EventEntity, EventEntity], work=288*
 35: 0x0436 [0x45] LOAD_SCHEDULED_TASK: Load scheduler "s054" with entities [EventEntity, EventEntity], work=[288*, 0*]
 36: 0x0447 [0x4A] Laila (ID: 17113886/0x0105231E) looks at LocalPlayer
 37: 0x0450 [0x1C] WAIT(30* ticks)
 38: 0x0453 [0x2B] Laila (ID: 17113886/0x0105231E) [7737*]:
    → "What are you gawpin' at? I don't give out autographs."
 39: 0x045A [0x23] WAIT_FOR_DIALOG_INTERACTION
 40: 0x045B [0x52] END_LOAD_SCHEDULER: End scheduler "s054" with entities [EventEntity, EventEntity], work=288*
 41: 0x046A [0x45] LOAD_SCHEDULED_TASK: Load scheduler "s055" with entities [EventEntity, EventEntity], work=[288*, 0*]
 42: 0x047B [0x5B] LOAD_EXT_SCHEDULER: Load scheduler "aww0" with entities [Laila (ID: 17113886/0x0105231E), Laila (ID: 17113886/0x0105231E)], work=80*
 43: 0x048A [0x2B] Laila (ID: 17113886/0x0105231E) [7738*]:
    → "Hm? You have no idea who I am?"
 44: 0x0491 [0x23] WAIT_FOR_DIALOG_INTERACTION
 45: 0x0492 [0x5B] LOAD_EXT_SCHEDULER: Load scheduler "aww1" with entities [Laila (ID: 17113886/0x0105231E), Laila (ID: 17113886/0x0105231E)], work=80*
 46: 0x04A1 [0x2B] Laila (ID: 17113886/0x0105231E) [7739*]:
    → "Not ev'ryone appreciates the arts, I s'pose. I'll be quittin' the dancin' game soon, anyway. I'm meant to be at practice as we speak."
 47: 0x04A8 [0x23] WAIT_FOR_DIALOG_INTERACTION
 48: 0x04A9 [0x52] END_LOAD_SCHEDULER: End scheduler "s055" with entities [EventEntity, EventEntity], work=288*
 49: 0x04B8 [0x45] LOAD_SCHEDULED_TASK: Load scheduler "s056" with entities [EventEntity, EventEntity], work=[288*, 0*]
 50: 0x04C9 [0x4B] UPDATE_ENTITY_YAW(entity=Laila (ID: 17113886/0x0105231E), yaw=11.4°*)
 51: 0x04D0 [0x1C] WAIT(60* ticks)
 52: 0x04D3 [0x2B] Laila (ID: 17113886/0x0105231E) [7740*]:
    → "All my days have been filled with dance... I'm findin' it hard t'remember why I even started."
 53: 0x04DA [0x23] WAIT_FOR_DIALOG_INTERACTION
 54: 0x04DB [0x2B] Laila (ID: 17113886/0x0105231E) [7741*]:
    → "Dancin' never used t'be such a chore. And it made me mother and father so proud..."
 55: 0x04E2 [0x23] WAIT_FOR_DIALOG_INTERACTION
 56: 0x04E3 [0x52] END_LOAD_SCHEDULER: End scheduler "s056" with entities [EventEntity, EventEntity], work=288*
 57: 0x04F2 [0x45] LOAD_SCHEDULED_TASK: Load scheduler "s057" with entities [EventEntity, EventEntity], work=[288*, 0*]
 58: 0x0503 [0x5B] LOAD_EXT_SCHEDULER: Load scheduler "tlk0" with entities [Laila (ID: 17113886/0x0105231E), Laila (ID: 17113886/0x0105231E)], work=80*
 59: 0x0512 [0x2B] Laila (ID: 17113886/0x0105231E) [7742*]:
    → "But now..."
 60: 0x0519 [0x23] WAIT_FOR_DIALOG_INTERACTION
 61: 0x051A [0x5B] LOAD_EXT_SCHEDULER: Load scheduler "tlk1" with entities [Laila (ID: 17113886/0x0105231E), Laila (ID: 17113886/0x0105231E)], work=80*
 62: 0x0529 [0x5C] MUSIC_CONTROL: Set Idle (Day) music to song 251*
 63: 0x052D [0x5C] MUSIC_CONTROL: Set Idle (Night) music to song 251*
 64: 0x0531 [0x9A] WAIT_MUSIC_SERVER()
 65: 0x0532 [0x52] END_LOAD_SCHEDULER: End scheduler "s057" with entities [EventEntity, EventEntity], work=288*
 66: 0x0541 [0x45] LOAD_SCHEDULED_TASK: Load scheduler "s074" with entities [EventEntity, EventEntity], work=[288*, 0*]
 67: 0x0552 [0x7C] Laila (ID: 17113886/0x0105231E)->Render.Flags2 |= 0x00
 68: 0x0558 [0x5B] LOAD_EXT_SCHEDULER: Load scheduler "dan0" with entities [Laila (ID: 17113886/0x0105231E), Laila (ID: 17113886/0x0105231E)], work=1276*
 69: 0x0567 [0x1C] WAIT(210* ticks)
 70: 0x056A [0x52] END_LOAD_SCHEDULER: End scheduler "s074" with entities [EventEntity, EventEntity], work=288*
 71: 0x0579 [0x45] LOAD_SCHEDULED_TASK: Load scheduler "s058" with entities [EventEntity, EventEntity], work=[288*, 0*]
 72: 0x058A [0x2B] Laila (ID: 17113886/0x0105231E) [7743*]:
    → "...?"
 73: 0x0591 [0x23] WAIT_FOR_DIALOG_INTERACTION
 74: 0x0592 [0x53] WAIT_SCHEDULER_TASK: Wait for scheduler "dan0" with entities [Laila (ID: 17113886/0x0105231E), Laila (ID: 17113886/0x0105231E)]
 75: 0x059F [0x7C] Laila (ID: 17113886/0x0105231E)->Render.Flags2 |= 0x01
 76: 0x05A5 [0x52] END_LOAD_SCHEDULER: End scheduler "s058" with entities [EventEntity, EventEntity], work=288*
 77: 0x05B4 [0x45] LOAD_SCHEDULED_TASK: Load scheduler "s084" with entities [EventEntity, EventEntity], work=[288*, 0*]
 78: 0x05C5 [0x2B] Laila (ID: 17113886/0x0105231E) [7744*]:
    → "What a lovely, liltin' melody... I've never heard the pipes played so well."
 79: 0x05CC [0x23] WAIT_FOR_DIALOG_INTERACTION
 80: 0x05CD [0x52] END_LOAD_SCHEDULER: End scheduler "s084" with entities [EventEntity, EventEntity], work=288*
 81: 0x05DC [0x45] LOAD_SCHEDULED_TASK: Load scheduler "s059" with entities [EventEntity, EventEntity], work=[288*, 0*]
 82: 0x05ED [0x2B] Laila (ID: 17113886/0x0105231E) [7745*]:
    → "I...I feel so light all o' a sudden..."
 83: 0x05F4 [0x23] WAIT_FOR_DIALOG_INTERACTION
 84: 0x05F5 [0x52] END_LOAD_SCHEDULER: End scheduler "s059" with entities [EventEntity, EventEntity], work=288*
 85: 0x0604 [0x45] LOAD_SCHEDULED_TASK: Load scheduler "s060" with entities [EventEntity, EventEntity], work=[288*, 0*]
 86: 0x0615 [0x2B] Laila (ID: 17113886/0x0105231E) [7746*]:
    → "I feel like I could float right off the ground."
 87: 0x061C [0x23] WAIT_FOR_DIALOG_INTERACTION
 88: 0x061D [0x52] END_LOAD_SCHEDULER: End scheduler "s060" with entities [EventEntity, EventEntity], work=288*
 89: 0x062C [0x45] LOAD_SCHEDULED_TASK: Load scheduler "s061" with entities [EventEntity, EventEntity], work=[288*, 0*]
 90: 0x063D [0x5B] LOAD_EXT_SCHEDULER: Load scheduler "dan1" with entities [Laila (ID: 17113886/0x0105231E), Laila (ID: 17113886/0x0105231E)], work=1277*
 91: 0x064C [0x1C] WAIT(240* ticks)
 92: 0x064F [0x52] END_LOAD_SCHEDULER: End scheduler "s061" with entities [EventEntity, EventEntity], work=288*
 93: 0x065E [0x45] LOAD_SCHEDULED_TASK: Load scheduler "s085" with entities [EventEntity, EventEntity], work=[288*, 0*]
 94: 0x066F [0x1C] WAIT(150* ticks)
 95: 0x0672 [0x52] END_LOAD_SCHEDULER: End scheduler "s085" with entities [EventEntity, EventEntity], work=288*
 96: 0x0681 [0x45] LOAD_SCHEDULED_TASK: Load scheduler "s062" with entities [EventEntity, EventEntity], work=[288*, 0*]
 97: 0x0692 [0x1C] WAIT(120* ticks)
 98: 0x0695 [0x52] END_LOAD_SCHEDULER: End scheduler "s062" with entities [EventEntity, EventEntity], work=288*
 99: 0x06A4 [0x45] LOAD_SCHEDULED_TASK: Load scheduler "s063" with entities [EventEntity, EventEntity], work=[288*, 0*]
100: 0x06B5 [0x1C] WAIT(240* ticks)
101: 0x06B8 [0x52] END_LOAD_SCHEDULER: End scheduler "s063" with entities [EventEntity, EventEntity], work=288*
102: 0x06C7 [0x45] LOAD_SCHEDULED_TASK: Load scheduler "s064" with entities [EventEntity, EventEntity], work=[288*, 0*]
103: 0x06D8 [0x1C] WAIT(210* ticks)
104: 0x06DB [0x52] END_LOAD_SCHEDULER: End scheduler "s064" with entities [EventEntity, EventEntity], work=288*
105: 0x06EA [0x45] LOAD_SCHEDULED_TASK: Load scheduler "s128" with entities [EventEntity, EventEntity], work=[288*, 0*]
106: 0x06FB [0x29] REQ_SET_WAIT(priority=0x05, entity_id=LocalPlayer, tag_num=0x1A)
107: 0x0702 [0x4A] LocalPlayer looks at Laila (ID: 17113886/0x0105231E)
108: 0x070B [0x1C] WAIT(30* ticks)
109: 0x070E [0x27] REQ_SET(priority=0x05, entity_id=LocalPlayer, tag_num=0x07)
110: 0x0715 [0x2A] GET_REQ_LEVEL(level=5, entity_id=LocalPlayer)
111: 0x071B [0x1C] WAIT(150* ticks)
112: 0x071E [0x52] END_LOAD_SCHEDULER: End scheduler "s128" with entities [EventEntity, EventEntity], work=288*
113: 0x072D [0x45] LOAD_SCHEDULED_TASK: Load scheduler "s132" with entities [EventEntity, EventEntity], work=[288*, 0*]
114: 0x073E [0x1C] WAIT(180* ticks)
115: 0x0741 [0x5D] SET_MUSIC_VOLUME(volume=0*, fade_time=120*)
116: 0x0746 [0x45] LOAD_SCHEDULED_TASK: Load scheduler "fdo1" with entities [EventEntity, EventEntity], work=[200*, 0*]
117: 0x0757 [0x55] WAIT_LOAD_SCHEDULER: Wait for scheduler "fdo1" with entities [EventEntity, EventEntity], work=200*
118: 0x0766 [0x52] END_LOAD_SCHEDULER: End scheduler "s132" with entities [EventEntity, EventEntity], work=288*
119: 0x0775 [0x6B] STOP_AND_IDLE: Laila (ID: 17113886/0x0105231E) stops current action and resets to idle (animation="idl0")
120: 0x077E [0xBA] SET_ENTITY_POSITION(entity_id=LocalPlayer, pos_x=102.136*, pos_z=443.458*, pos_y=5.581*, direction=112.9°*)
121: 0x078B [0xBA] SET_ENTITY_POSITION(entity_id=Laila (ID: 17113886/0x0105231E), pos_x=102.624*, pos_z=439.987*, pos_y=5.665*, direction=182.1°*)
122: 0x0798 [0x80] LOAD_WAIT(entity=LocalPlayer)
123: 0x079D [0x80] LOAD_WAIT(entity=Laila (ID: 17113886/0x0105231E))
124: 0x07A2 [0x7B] Laila (ID: 17113886/0x0105231E) stops talking
125: 0x07A7 [0x79] Laila (ID: 17113886/0x0105231E) looks at Laila (ID: 17113886/0x0105231E) (Basic look)
126: 0x07B1 [0x4A] LocalPlayer looks at Laila (ID: 17113886/0x0105231E)
127: 0x07BA [0x1C] WAIT(30* ticks)
128: 0x07BD [0x5C] MUSIC_CONTROL: Set Idle (Day) music to song 0*
129: 0x07C1 [0x5C] MUSIC_CONTROL: Set Idle (Night) music to song 0*
130: 0x07C5 [0x9A] WAIT_MUSIC_SERVER()
131: 0x07C6 [0x45] LOAD_SCHEDULED_TASK: Load scheduler "s065" with entities [EventEntity, EventEntity], work=[288*, 0*]
132: 0x07D7 [0x1C] WAIT(15* ticks)
133: 0x07DA [0x45] LOAD_SCHEDULED_TASK: Load scheduler "fdi1" with entities [EventEntity, EventEntity], work=[200*, 0*]
134: 0x07EB [0x55] WAIT_LOAD_SCHEDULER: Wait for scheduler "fdi1" with entities [EventEntity, EventEntity], work=200*
135: 0x07FA [0x55] WAIT_LOAD_SCHEDULER: Wait for scheduler "s065" with entities [EventEntity, EventEntity], work=288*
136: 0x0809 [0x1C] WAIT(30* ticks)
137: 0x080C [0x45] LOAD_SCHEDULED_TASK: Load scheduler "s087" with entities [EventEntity, EventEntity], work=[288*, 0*]
138: 0x081D [0x2B] Laila (ID: 17113886/0x0105231E) [7747*]:
    → "I never knew I could enjoy dancin' just for the sake o' dancin'. No cheerin' audience. No dotin' parents..."
139: 0x0824 [0x23] WAIT_FOR_DIALOG_INTERACTION
140: 0x0825 [0x27] REQ_SET(priority=0x05, entity_id=LocalPlayer, tag_num=0x08)
141: 0x082C [0x52] END_LOAD_SCHEDULER: End scheduler "s087" with entities [EventEntity, EventEntity], work=288*
142: 0x083B [0x02] IF !(LocalPlayer->Race == 3*) GOTO 0x0857
143: 0x0843 [0x45] LOAD_SCHEDULED_TASK: Load scheduler "s130" with entities [EventEntity, EventEntity], work=[288*, 0*]
144: 0x0854 [0x01] GOTO 0x08D8
145: 0x0857 [0x02] IF !(LocalPlayer->Race == 4*) GOTO 0x0873
146: 0x085F [0x45] LOAD_SCHEDULED_TASK: Load scheduler "s130" with entities [EventEntity, EventEntity], work=[288*, 0*]
147: 0x0870 [0x01] GOTO 0x08D8
148: 0x0873 [0x02] IF !(LocalPlayer->Race == 5*) GOTO 0x088F
149: 0x087B [0x45] LOAD_SCHEDULED_TASK: Load scheduler "s131" with entities [EventEntity, EventEntity], work=[288*, 0*]
150: 0x088C [0x01] GOTO 0x08D8
151: 0x088F [0x02] IF !(LocalPlayer->Race == 6*) GOTO 0x08AB
152: 0x0897 [0x45] LOAD_SCHEDULED_TASK: Load scheduler "s131" with entities [EventEntity, EventEntity], work=[288*, 0*]
153: 0x08A8 [0x01] GOTO 0x08D8
154: 0x08AB [0x02] IF !(LocalPlayer->Race == 8*) GOTO 0x08C7
155: 0x08B3 [0x45] LOAD_SCHEDULED_TASK: Load scheduler "s130" with entities [EventEntity, EventEntity], work=[288*, 0*]
156: 0x08C4 [0x01] GOTO 0x08D8
157: 0x08C7 [0x45] LOAD_SCHEDULED_TASK: Load scheduler "s129" with entities [EventEntity, EventEntity], work=[288*, 0*]

SUBROUTINE_08D8:
158: 0x08D8 [0x1C] WAIT(120* ticks)
159: 0x08DB [0x6E] LocalPlayer uses emote 13*
160: 0x08E2 [0x99] Wait for LocalPlayer animation to complete
161: 0x08E7 [0x1C] WAIT(120* ticks)
162: 0x08EA [0x52] END_LOAD_SCHEDULER: End scheduler "s129" with entities [EventEntity, EventEntity], work=288*
163: 0x08F9 [0x45] LOAD_SCHEDULED_TASK: Load scheduler "s088" with entities [EventEntity, EventEntity], work=[288*, 0*]
164: 0x090A [0x4A] Laila (ID: 17113886/0x0105231E) looks at LocalPlayer
165: 0x0913 [0x1C] WAIT(30* ticks)
166: 0x0916 [0x2B] Laila (ID: 17113886/0x0105231E) [7748*]:
    → "Ye're fortunate, ye know. I usually perform before lords an' ladies."
167: 0x091D [0x23] WAIT_FOR_DIALOG_INTERACTION
168: 0x091E [0x52] END_LOAD_SCHEDULER: End scheduler "s088" with entities [EventEntity, EventEntity], work=288*
169: 0x092D [0x45] LOAD_SCHEDULED_TASK: Load scheduler "s089" with entities [EventEntity, EventEntity], work=[288*, 0*]
170: 0x093E [0x4E] SET_ENTITY_HIDE_FLAG: Show Fairaure (ID: 17113887/0x0105231F)
171: 0x0944 [0x80] LOAD_WAIT(entity=Fairaure (ID: 17113887/0x0105231F))
172: 0x0949 [0x4A] Laila (ID: 17113886/0x0105231E) looks at Fairaure (ID: 17113887/0x0105231F)
173: 0x0952 [0x1C] WAIT(30* ticks)
174: 0x0955 [0x5B] LOAD_EXT_SCHEDULER: Load scheduler "tlk0" with entities [Laila (ID: 17113886/0x0105231E), Laila (ID: 17113886/0x0105231E)], work=80*
175: 0x0964 [0x2B] Laila (ID: 17113886/0x0105231E) [7749*]:
    → "Now where did that pipe player go? Sure'n that was a sweet song..."
176: 0x096B [0x23] WAIT_FOR_DIALOG_INTERACTION
177: 0x096C [0x27] REQ_SET(priority=0x05, entity_id=Fairaure (ID: 17113887/0x0105231F), tag_num=0x02)
178: 0x0973 [0x1C] WAIT(30* ticks)
179: 0x0976 [0x52] END_LOAD_SCHEDULER: End scheduler "s089" with entities [EventEntity, EventEntity], work=288*
180: 0x0985 [0x45] LOAD_SCHEDULED_TASK: Load scheduler "s075" with entities [EventEntity, EventEntity], work=[288*, 0*]
181: 0x0996 [0x2B] Fairaure (ID: 17113887/0x0105231F) [7750*]:
    → "Milady!"
182: 0x099D [0x23] WAIT_FOR_DIALOG_INTERACTION
183: 0x099E [0x52] END_LOAD_SCHEDULER: End scheduler "s075" with entities [EventEntity, EventEntity], work=288*
184: 0x09AD [0x45] LOAD_SCHEDULED_TASK: Load scheduler "s076" with entities [EventEntity, EventEntity], work=[288*, 0*]
185: 0x09BE [0x2A] GET_REQ_LEVEL(level=5, entity_id=Fairaure (ID: 17113887/0x0105231F))
186: 0x09C4 [0xBA] SET_ENTITY_POSITION(entity_id=Fairaure (ID: 17113887/0x0105231F), pos_x=107.460*, pos_z=435.916*, pos_y=4.065*, direction=101.0°*)
187: 0x09D1 [0x80] LOAD_WAIT(entity=Fairaure (ID: 17113887/0x0105231F))
188: 0x09D6 [0x5B] LOAD_EXT_SCHEDULER: Load scheduler "tlk1" with entities [Laila (ID: 17113886/0x0105231E), Laila (ID: 17113886/0x0105231E)], work=80*
189: 0x09E5 [0x2B] Laila (ID: 17113886/0x0105231E) [7751*]:
    → "Fairaure!"
190: 0x09EC [0x23] WAIT_FOR_DIALOG_INTERACTION
191: 0x09ED [0x27] REQ_SET(priority=0x05, entity_id=Fairaure (ID: 17113887/0x0105231F), tag_num=0x03)
192: 0x09F4 [0x1C] WAIT(30* ticks)
193: 0x09F7 [0x52] END_LOAD_SCHEDULER: End scheduler "s076" with entities [EventEntity, EventEntity], work=288*
194: 0x0A06 [0x45] LOAD_SCHEDULED_TASK: Load scheduler "s066" with entities [EventEntity, EventEntity], work=[288*, 0*]
195: 0x0A17 [0x2A] GET_REQ_LEVEL(level=5, entity_id=Fairaure (ID: 17113887/0x0105231F))
196: 0x0A1D [0x2B] Fairaure (ID: 17113887/0x0105231F) [7752*]:
    → "Thank Altana I've found you safe and sound. If anything should happen to you, my honor would be irrevocably stained..."
197: 0x0A24 [0x23] WAIT_FOR_DIALOG_INTERACTION
198: 0x0A25 [0x2B] Laila (ID: 17113886/0x0105231E) [7753*]:
    → "Fairaure, how did you manage t'lag so far behind with those long Elvaan legs?"
199: 0x0A2C [0x23] WAIT_FOR_DIALOG_INTERACTION
200: 0x0A2D [0x5B] LOAD_EXT_SCHEDULER: Load scheduler "awa0" with entities [Fairaure (ID: 17113887/0x0105231F), Fairaure (ID: 17113887/0x0105231F)], work=11*
201: 0x0A3C [0x52] END_LOAD_SCHEDULER: End scheduler "s066" with entities [EventEntity, EventEntity], work=288*
202: 0x0A4B [0x45] LOAD_SCHEDULED_TASK: Load scheduler "s068" with entities [EventEntity, EventEntity], work=[288*, 0*]
203: 0x0A5C [0x4E] SET_ENTITY_HIDE_FLAG: Hide LocalPlayer
204: 0x0A62 [0x2B] Fairaure (ID: 17113887/0x0105231F) [7754*]:
    → "My apologies, milady! It shan't happen again!"
205: 0x0A69 [0x23] WAIT_FOR_DIALOG_INTERACTION
206: 0x0A6A [0x53] WAIT_SCHEDULER_TASK: Wait for scheduler "awa0" with entities [Fairaure (ID: 17113887/0x0105231F), Fairaure (ID: 17113887/0x0105231F)]
207: 0x0A77 [0x52] END_LOAD_SCHEDULER: End scheduler "s068" with entities [EventEntity, EventEntity], work=288*
208: 0x0A86 [0x45] LOAD_SCHEDULED_TASK: Load scheduler "s069" with entities [EventEntity, EventEntity], work=[288*, 0*]
209: 0x0A97 [0x2B] Laila (ID: 17113886/0x0105231E) [7755*]:
    → "Although, I s'pose I should be thankin' you."
210: 0x0A9E [0x23] WAIT_FOR_DIALOG_INTERACTION
211: 0x0A9F [0x2B] Fairaure (ID: 17113887/0x0105231F) [7756*]:
    → "Thanking me, milady?"
212: 0x0AA6 [0x23] WAIT_FOR_DIALOG_INTERACTION
213: 0x0AA7 [0x52] END_LOAD_SCHEDULER: End scheduler "s069" with entities [EventEntity, EventEntity], work=288*
214: 0x0AB6 [0x45] LOAD_SCHEDULED_TASK: Load scheduler "s070" with entities [EventEntity, EventEntity], work=[288*, 0*]
215: 0x0AC7 [0x5B] LOAD_EXT_SCHEDULER: Load scheduler "tlk0" with entities [Laila (ID: 17113886/0x0105231E), Laila (ID: 17113886/0x0105231E)], work=80*
216: 0x0AD6 [0x2B] Laila (ID: 17113886/0x0105231E) [7757*]:
    → "I was on the verge of givin' up everythin'. The only reason I said I wanted t'see the stones in the lake was t'escape from dance practice."
217: 0x0ADD [0x23] WAIT_FOR_DIALOG_INTERACTION
218: 0x0ADE [0x52] END_LOAD_SCHEDULER: End scheduler "s070" with entities [EventEntity, EventEntity], work=288*
219: 0x0AED [0x45] LOAD_SCHEDULED_TASK: Load scheduler "s067" with entities [EventEntity, EventEntity], work=[288*, 0*]
220: 0x0AFE [0x2B] Laila (ID: 17113886/0x0105231E) [7758*]:
    → "If you hadn't agreed to sneak me out, I might o' thrown away me dancin' forever..."
221: 0x0B05 [0x23] WAIT_FOR_DIALOG_INTERACTION
222: 0x0B06 [0x52] END_LOAD_SCHEDULER: End scheduler "s067" with entities [EventEntity, EventEntity], work=288*
223: 0x0B15 [0x45] LOAD_SCHEDULED_TASK: Load scheduler "s071" with entities [EventEntity, EventEntity], work=[288*, 0*]
224: 0x0B26 [0x7B] Fairaure (ID: 17113887/0x0105231F) stops talking
225: 0x0B2B [0x5B] LOAD_EXT_SCHEDULER: Load scheduler "tlk1" with entities [Laila (ID: 17113886/0x0105231E), Laila (ID: 17113886/0x0105231E)], work=80*
226: 0x0B3A [0x2B] Laila (ID: 17113886/0x0105231E) [7759*]:
    → "Fairaure, I've decided t'give dancin' another chance."
227: 0x0B41 [0x23] WAIT_FOR_DIALOG_INTERACTION
228: 0x0B42 [0x52] END_LOAD_SCHEDULER: End scheduler "s071" with entities [EventEntity, EventEntity], work=288*
229: 0x0B51 [0x45] LOAD_SCHEDULED_TASK: Load scheduler "s072" with entities [EventEntity, EventEntity], work=[288*, 0*]
230: 0x0B62 [0x5B] LOAD_EXT_SCHEDULER: Load scheduler "cho0" with entities [Fairaure (ID: 17113887/0x0105231F), Fairaure (ID: 17113887/0x0105231F)], work=11*
231: 0x0B71 [0x2B] Fairaure (ID: 17113887/0x0105231F) [7760*]:
    → "M-milady! I shall do everything in my power to see your dreams come to fruition!"
232: 0x0B78 [0x23] WAIT_FOR_DIALOG_INTERACTION
233: 0x0B79 [0x4E] SET_ENTITY_HIDE_FLAG: Show LocalPlayer
234: 0x0B7F [0x80] LOAD_WAIT(entity=LocalPlayer)
235: 0x0B84 [0x53] WAIT_SCHEDULER_TASK: Wait for scheduler "cho0" with entities [Fairaure (ID: 17113887/0x0105231F), Fairaure (ID: 17113887/0x0105231F)]
236: 0x0B91 [0x52] END_LOAD_SCHEDULER: End scheduler "s072" with entities [EventEntity, EventEntity], work=288*
237: 0x0BA0 [0x45] LOAD_SCHEDULED_TASK: Load scheduler "s073" with entities [EventEntity, EventEntity], work=[288*, 0*]
238: 0x0BB1 [0x5B] LOAD_EXT_SCHEDULER: Load scheduler "tlk0" with entities [Fairaure (ID: 17113887/0x0105231F), Fairaure (ID: 17113887/0x0105231F)], work=10*
239: 0x0BC0 [0x2B] Fairaure (ID: 17113887/0x0105231F) [7761*]:
    → "Let us return to the estate!"
240: 0x0BC7 [0x23] WAIT_FOR_DIALOG_INTERACTION
241: 0x0BC8 [0x5B] LOAD_EXT_SCHEDULER: Load scheduler "tlk1" with entities [Fairaure (ID: 17113887/0x0105231F), Fairaure (ID: 17113887/0x0105231F)], work=10*
242: 0x0BD7 [0x27] REQ_SET(priority=0x05, entity_id=Laila (ID: 17113886/0x0105231E), tag_num=0x03)
243: 0x0BDE [0x1C] WAIT(120* ticks)
244: 0x0BE1 [0x4A] Fairaure (ID: 17113887/0x0105231F) looks at Laila (ID: 17113886/0x0105231E)
245: 0x0BEA [0x1C] WAIT(30* ticks)
246: 0x0BED [0x27] REQ_SET(priority=0x05, entity_id=Fairaure (ID: 17113887/0x0105231F), tag_num=0x04)
247: 0x0BF4 [0x52] END_LOAD_SCHEDULER: End scheduler "s073" with entities [EventEntity, EventEntity], work=288*
248: 0x0C03 [0x45] LOAD_SCHEDULED_TASK: Load scheduler "s086" with entities [EventEntity, EventEntity], work=[288*, 0*]
249: 0x0C14 [0x1C] WAIT(60* ticks)
250: 0x0C17 [0x45] LOAD_SCHEDULED_TASK: Load scheduler "fdo1" with entities [EventEntity, EventEntity], work=[200*, 0*]
251: 0x0C28 [0x55] WAIT_LOAD_SCHEDULER: Wait for scheduler "fdo1" with entities [EventEntity, EventEntity], work=200*
252: 0x0C37 [0x52] END_LOAD_SCHEDULER: End scheduler "s086" with entities [EventEntity, EventEntity], work=288*
253: 0x0C46 [0x78] ENABLE_GAME_TIMER_RESET_WEATHER()
254: 0x0C47 [0x46] CAMERA_CONTROL: Restore default settings
255: 0x0C49 [0x1C] WAIT(60* ticks)
256: 0x0C4C [0x45] LOAD_SCHEDULED_TASK: Load scheduler "fdi1" with entities [EventEntity, EventEntity], work=[200*, 0*]
257: 0x0C5D [0x21] END_EVENT
258: 0x0C5E [0x00] END_REQSTACK()
```

### Event 65535.23

#### Metadata

| Field        | Value    |
|--------------|----------|
| Entrypoint   | 0x0C5F   |
| Data Size    | 16 bytes |
| Instructions | 5        |

```
      00 01 02 03 04 05 06 07  08 09 0A 0B 0C 0D 0E 0F
      -- -- -- -- -- -- -- --  -- -- -- -- -- -- -- --
0C50:                                               32                 2
0C60: 11 80 33 01 1F 00 51 80  52 80 70 80 1F 01 00     ..3...Q.R.p.... 
```

#### Opcodes

```
  0: 0x0C5F [0x32] ExtData[1]->MainSpeed = 13* * 0.1
  1: 0x0C62 [0x33] EventEntity->Render.Flags0 |= 0x200000 // Bit 21 (flag=0x01)
  2: 0x0C64 [0x1F] MOVE_ENTITY: EventEntity moves to X=102.136*, Z=443.458*, Y=5.281*
  3: 0x0C6C [0x1F] MOVE_ENTITY: Update entity position (mode=1)
  4: 0x0C6E [0x00] END_REQSTACK()
```

### Event 105

#### Metadata

| Field        | Value     |
|--------------|-----------|
| Entrypoint   | 0x0C6F    |
| Data Size    | 912 bytes |
| Instructions | 103       |

```
      00 01 02 03 04 05 06 07  08 09 0A 0B 0C 0D 0E 0F
      -- -- -- -- -- -- -- --  -- -- -- -- -- -- -- --
0C60:                                               42                 B
0C70: 5D 02 80 4F 80 45 01 80  F8 FF FF 7F F8 FF FF 7F  ]..O.E..........
0C80: 66 64 6F 31 02 80 55 01  80 F8 FF FF 7F F8 FF FF  fdo1..U.........
0C90: 7F 66 64 6F 31 46 01 38  34 80 2F 00 1F 23 05 01  .fdo1F.84./..#..
0CA0: 4E 00 1F 23 05 01 4E 00  F0 FF FF 7F BA 1F 23 05  N..#..N.......#.
0CB0: 01 71 80 72 80 43 80 73  80 BA F0 FF FF 7F 74 80  .q.r.C.s......t.
0CC0: 75 80 76 80 77 80 80 1F  23 05 01 80 F0 FF FF 7F  u.v.w...#.......
0CD0: 94 01 1F 23 05 01 27 05  1F 23 05 01 06 45 78 80  ...#..'..#...Ex.
0CE0: F8 FF FF 7F F8 FF FF 7F  73 31 34 31 02 80 1C 3A  ........s141...:
0CF0: 80 45 01 80 F8 FF FF 7F  F8 FF FF 7F 66 64 69 31  .E..........fdi1
0D00: 02 80 55 01 80 F8 FF FF  7F F8 FF FF 7F 66 64 69  ..U..........fdi
0D10: 31 1C 04 80 52 78 80 F8  FF FF 7F F8 FF FF 7F 73  1...Rx.........s
0D20: 31 34 31 45 78 80 F8 FF  FF 7F F8 FF FF 7F 73 31  141Ex.........s1
0D30: 34 32 02 80 4B F0 FF FF  7F 79 80 27 05 F0 FF FF  42..K....y.'....
0D40: 7F 1F 1C 3E 80 27 05 F0  FF FF 7F 20 52 78 80 F8  ...>.'..... Rx..
0D50: FF FF 7F F8 FF FF 7F 73  31 34 32 45 78 80 F8 FF  .......s142Ex...
0D60: FF 7F F8 FF FF 7F 73 31  34 33 02 80 2A 05 1F 23  ......s143..*..#
0D70: 05 01 2B 1F 23 05 01 7A  80 23 52 78 80 F8 FF FF  ..+.#..z.#Rx....
0D80: 7F F8 FF FF 7F 73 31 34  33 45 78 80 F8 FF FF 7F  .....s143Ex.....
0D90: F8 FF FF 7F 73 31 34 34  02 80 5B 2F 80 1F 23 05  ....s144..[/..#.
0DA0: 01 1F 23 05 01 74 6C 6B  30 2B 1F 23 05 01 7B 80  ..#..tlk0+.#..{.
0DB0: 23 2B 1F 23 05 01 7C 80  23 45 01 80 F8 FF FF 7F  #+.#..|.#E......
0DC0: F8 FF FF 7F 66 64 6F 31  02 80 55 01 80 F8 FF FF  ....fdo1..U.....
0DD0: 7F F8 FF FF 7F 66 64 6F  31 52 78 80 F8 FF FF 7F  .....fdo1Rx.....
0DE0: F8 FF FF 7F 73 31 34 34  6B 69 64 6C 30 1F 23 05  ....s144kidl0.#.
0DF0: 01 4E 01 F0 FF FF 7F 7C  00 1F 23 05 01 5C 00 47  .N.....|..#..\.G
0E00: 80 5C 01 47 80 9A 45 78  80 F8 FF FF 7F F8 FF FF  .\.G..Ex........
0E10: 7F 73 31 34 35 02 80 1C  3A 80 45 7D 80 F0 FF FF  .s145...:.E}....
0E20: 7F F0 FF FF 7F 65 66 6F  6E 02 80 55 7D 80 F0 FF  .....efon..U}...
0E30: FF 7F F0 FF FF 7F 65 66  6F 6E 27 05 1F 23 05 01  ......efon'..#..
0E40: 07 2B 1F 23 05 01 7E 80  23 55 78 80 F8 FF FF 7F  .+.#..~.#Ux.....
0E50: F8 FF FF 7F 73 31 34 35  45 78 80 F8 FF FF 7F F8  ....s145Ex......
0E60: FF FF 7F 73 31 34 36 02  80 5D 02 80 02 80 7A 00  ...s146..]....z.
0E70: 1F 23 05 01 BA 1F 23 05  01 7F 80 80 80 81 80 82  .#....#.........
0E80: 80 80 1F 23 05 01 27 05  1F 23 05 01 08 2B 1F 23  ...#..'..#...+.#
0E90: 05 01 83 80 23 2A 05 1F  23 05 01 55 78 80 F8 FF  ....#*..#..Ux...
0EA0: FF 7F F8 FF FF 7F 73 31  34 36 45 01 80 F8 FF FF  ......s146E.....
0EB0: 7F F8 FF FF 7F 66 64 6F  31 02 80 55 01 80 F8 FF  .....fdo1..U....
0EC0: FF 7F F8 FF FF 7F 66 64  6F 31 4E 00 F0 FF FF 7F  ......fdo1N.....
0ED0: BA 1F 23 05 01 84 80 85  80 86 80 87 80 80 1F 23  ..#............#
0EE0: 05 01 80 F0 FF FF 7F 4A  1F 23 05 01 F0 FF FF 7F  .......J.#......
0EF0: 7C 01 1F 23 05 01 5C 00  02 80 5C 01 02 80 9A 45  |..#..\...\....E
0F00: 78 80 F8 FF FF 7F F8 FF  FF 7F 73 31 34 37 02 80  x.........s147..
0F10: 1C 3A 80 45 01 80 F8 FF  FF 7F F8 FF FF 7F 66 64  .:.E..........fd
0F20: 69 31 02 80 55 01 80 F8  FF FF 7F F8 FF FF 7F 66  i1..U..........f
0F30: 64 69 31 2B 1F 23 05 01  88 80 23 52 78 80 F8 FF  di1+.#....#Rx...
0F40: FF 7F F8 FF FF 7F 73 31  34 37 45 78 80 F8 FF FF  ......s147Ex....
0F50: 7F F8 FF FF 7F 73 31 34  38 02 80 5B 2F 80 1F 23  .....s148..[/..#
0F60: 05 01 1F 23 05 01 74 6C  6B 30 2B 1F 23 05 01 89  ...#..tlk0+.#...
0F70: 80 23 5B 2F 80 1F 23 05  01 1F 23 05 01 74 6C 6B  .#[/..#...#..tlk
0F80: 31 7B 1F 23 05 01 2B 1F  23 05 01 8A 80 23 52 78  1{.#..+.#....#Rx
0F90: 80 F8 FF FF 7F F8 FF FF  7F 73 31 34 38 45 78 80  .........s148Ex.
0FA0: F8 FF FF 7F F8 FF FF 7F  73 31 34 39 02 80 27 05  ........s149..'.
0FB0: 1F 23 05 01 09 1C 04 80  45 01 80 F8 FF FF 7F F8  .#......E.......
0FC0: FF FF 7F 66 64 6F 31 02  80 55 01 80 F8 FF FF 7F  ...fdo1..U......
0FD0: F8 FF FF 7F 66 64 6F 31  52 78 80 F8 FF FF 7F F8  ....fdo1Rx......
0FE0: FF FF 7F 73 31 34 39 46  00 1C 05 80 45 01 80 F8  ...s149F....E...
0FF0: FF FF 7F F8 FF FF 7F 66  64 69 31 02 80 21 00     .......fdi1..!. 
```

#### Opcodes

```
  0: 0x0C6F [0x42] SET_CLI_EVENT_CANCEL_DATA()
  1: 0x0C70 [0x5D] SET_MUSIC_VOLUME(volume=0*, fade_time=120*)
  2: 0x0C75 [0x45] LOAD_SCHEDULED_TASK: Load scheduler "fdo1" with entities [EventEntity, EventEntity], work=[200*, 0*]
  3: 0x0C86 [0x55] WAIT_LOAD_SCHEDULER: Wait for scheduler "fdo1" with entities [EventEntity, EventEntity], work=200*
  4: 0x0C95 [0x46] CAMERA_CONTROL: Disable user control
  5: 0x0C97 [0x38] SET_CLIENT_EVENT_MODE(mode=27*)
  6: 0x0C9A [0x2F] Fairaure (ID: 17113887/0x0105231F)->Render.Flags0 &= ~0x80000 // Bit 19
  7: 0x0CA0 [0x4E] SET_ENTITY_HIDE_FLAG: Show Fairaure (ID: 17113887/0x0105231F)
  8: 0x0CA6 [0x4E] SET_ENTITY_HIDE_FLAG: Show LocalPlayer
  9: 0x0CAC [0xBA] SET_ENTITY_POSITION(entity_id=Fairaure (ID: 17113887/0x0105231F), pos_x=439.921*, pos_z=541.303*, pos_y=2.079*, direction=9.4°*)
 10: 0x0CB9 [0xBA] SET_ENTITY_POSITION(entity_id=LocalPlayer, pos_x=452.968*, pos_z=537.407*, pos_y=2.197*, direction=201.5°*)
 11: 0x0CC6 [0x80] LOAD_WAIT(entity=Fairaure (ID: 17113887/0x0105231F))
 12: 0x0CCB [0x80] LOAD_WAIT(entity=LocalPlayer)
 13: 0x0CD0 [0x94] Fairaure (ID: 17113887/0x0105231F)->Render.Flags3 ^= 0x01
 14: 0x0CD6 [0x27] REQ_SET(priority=0x05, entity_id=Fairaure (ID: 17113887/0x0105231F), tag_num=0x06)
 15: 0x0CDD [0x45] LOAD_SCHEDULED_TASK: Load scheduler "s141" with entities [EventEntity, EventEntity], work=[335*, 0*]
 16: 0x0CEE [0x1C] WAIT(15* ticks)
 17: 0x0CF1 [0x45] LOAD_SCHEDULED_TASK: Load scheduler "fdi1" with entities [EventEntity, EventEntity], work=[200*, 0*]
 18: 0x0D02 [0x55] WAIT_LOAD_SCHEDULER: Wait for scheduler "fdi1" with entities [EventEntity, EventEntity], work=200*
 19: 0x0D11 [0x1C] WAIT(90* ticks)
 20: 0x0D14 [0x52] END_LOAD_SCHEDULER: End scheduler "s141" with entities [EventEntity, EventEntity], work=335*
 21: 0x0D23 [0x45] LOAD_SCHEDULED_TASK: Load scheduler "s142" with entities [EventEntity, EventEntity], work=[335*, 0*]
 22: 0x0D34 [0x4B] UPDATE_ENTITY_YAW(entity=LocalPlayer, yaw=19.8°*)
 23: 0x0D3B [0x27] REQ_SET(priority=0x05, entity_id=LocalPlayer, tag_num=0x1F)
 24: 0x0D42 [0x1C] WAIT(80* ticks)
 25: 0x0D45 [0x27] REQ_SET(priority=0x05, entity_id=LocalPlayer, tag_num=0x20)
 26: 0x0D4C [0x52] END_LOAD_SCHEDULER: End scheduler "s142" with entities [EventEntity, EventEntity], work=335*
 27: 0x0D5B [0x45] LOAD_SCHEDULED_TASK: Load scheduler "s143" with entities [EventEntity, EventEntity], work=[335*, 0*]
 28: 0x0D6C [0x2A] GET_REQ_LEVEL(level=5, entity_id=Fairaure (ID: 17113887/0x0105231F))
 29: 0x0D72 [0x2B] Fairaure (ID: 17113887/0x0105231F) [7964*]:
    → "Oh...? I dare say, have we met before? How may I be of service?"
 30: 0x0D79 [0x23] WAIT_FOR_DIALOG_INTERACTION
 31: 0x0D7A [0x52] END_LOAD_SCHEDULER: End scheduler "s143" with entities [EventEntity, EventEntity], work=335*
 32: 0x0D89 [0x45] LOAD_SCHEDULED_TASK: Load scheduler "s144" with entities [EventEntity, EventEntity], work=[335*, 0*]
 33: 0x0D9A [0x5B] LOAD_EXT_SCHEDULER: Load scheduler "tlk0" with entities [Fairaure (ID: 17113887/0x0105231F), Fairaure (ID: 17113887/0x0105231F)], work=10*
 34: 0x0DA9 [0x2B] Fairaure (ID: 17113887/0x0105231F) [7965*]:
    → "What am I doing? I am in search of the bard who was playing a pipe somewhere in this forest the other day."
 35: 0x0DB0 [0x23] WAIT_FOR_DIALOG_INTERACTION
 36: 0x0DB1 [0x2B] Fairaure (ID: 17113887/0x0105231F) [7966*]:
    → "You see, milady was captivated by the tune, and strongly wishes to meet with the bard in person."
 37: 0x0DB8 [0x23] WAIT_FOR_DIALOG_INTERACTION
 38: 0x0DB9 [0x45] LOAD_SCHEDULED_TASK: Load scheduler "fdo1" with entities [EventEntity, EventEntity], work=[200*, 0*]
 39: 0x0DCA [0x55] WAIT_LOAD_SCHEDULER: Wait for scheduler "fdo1" with entities [EventEntity, EventEntity], work=200*
 40: 0x0DD9 [0x52] END_LOAD_SCHEDULER: End scheduler "s144" with entities [EventEntity, EventEntity], work=335*
 41: 0x0DE8 [0x6B] STOP_AND_IDLE: Fairaure (ID: 17113887/0x0105231F) stops current action and resets to idle (animation="idl0")
 42: 0x0DF1 [0x4E] SET_ENTITY_HIDE_FLAG: Hide LocalPlayer
 43: 0x0DF7 [0x7C] Fairaure (ID: 17113887/0x0105231F)->Render.Flags2 |= 0x00
 44: 0x0DFD [0x5C] MUSIC_CONTROL: Set Idle (Day) music to song 251*
 45: 0x0E01 [0x5C] MUSIC_CONTROL: Set Idle (Night) music to song 251*
 46: 0x0E05 [0x9A] WAIT_MUSIC_SERVER()
 47: 0x0E06 [0x45] LOAD_SCHEDULED_TASK: Load scheduler "s145" with entities [EventEntity, EventEntity], work=[335*, 0*]
 48: 0x0E17 [0x1C] WAIT(15* ticks)
 49: 0x0E1A [0x45] LOAD_SCHEDULED_TASK: Load scheduler "efon" with entities [LocalPlayer, LocalPlayer], work=[215*, 0*]
 50: 0x0E2B [0x55] WAIT_LOAD_SCHEDULER: Wait for scheduler "efon" with entities [LocalPlayer, LocalPlayer], work=215*
 51: 0x0E3A [0x27] REQ_SET(priority=0x05, entity_id=Fairaure (ID: 17113887/0x0105231F), tag_num=0x07)
 52: 0x0E41 [0x2B] Fairaure (ID: 17113887/0x0105231F) [7967*]:
    → "Just a moment ago I heard music being played on a pipe, and made haste towards it. But alas, the sound suddenly broke off..."
 53: 0x0E48 [0x23] WAIT_FOR_DIALOG_INTERACTION
 54: 0x0E49 [0x55] WAIT_LOAD_SCHEDULER: Wait for scheduler "s145" with entities [EventEntity, EventEntity], work=335*
 55: 0x0E58 [0x45] LOAD_SCHEDULED_TASK: Load scheduler "s146" with entities [EventEntity, EventEntity], work=[335*, 0*]
 56: 0x0E69 [0x5D] SET_MUSIC_VOLUME(volume=0*, fade_time=0*)
 57: 0x0E6E [0x7A] VM_CONTROL: Reset VM for Fairaure (ID: 17113887/0x0105231F)
 58: 0x0E74 [0xBA] SET_ENTITY_POSITION(entity_id=Fairaure (ID: 17113887/0x0105231F), pos_x=116.274*, pos_z=427.715*, pos_y=0.870*, direction=45.5°*)
 59: 0x0E81 [0x80] LOAD_WAIT(entity=Fairaure (ID: 17113887/0x0105231F))
 60: 0x0E86 [0x27] REQ_SET(priority=0x05, entity_id=Fairaure (ID: 17113887/0x0105231F), tag_num=0x08)
 61: 0x0E8D [0x2B] Fairaure (ID: 17113887/0x0105231F) [7968*]:
    → "I continued further on to the lake, only to discover a broken pipe. There were signs that suggested a struggle may have taken place."
 62: 0x0E94 [0x23] WAIT_FOR_DIALOG_INTERACTION
 63: 0x0E95 [0x2A] GET_REQ_LEVEL(level=5, entity_id=Fairaure (ID: 17113887/0x0105231F))
 64: 0x0E9B [0x55] WAIT_LOAD_SCHEDULER: Wait for scheduler "s146" with entities [EventEntity, EventEntity], work=335*
 65: 0x0EAA [0x45] LOAD_SCHEDULED_TASK: Load scheduler "fdo1" with entities [EventEntity, EventEntity], work=[200*, 0*]
 66: 0x0EBB [0x55] WAIT_LOAD_SCHEDULER: Wait for scheduler "fdo1" with entities [EventEntity, EventEntity], work=200*
 67: 0x0ECA [0x4E] SET_ENTITY_HIDE_FLAG: Show LocalPlayer
 68: 0x0ED0 [0xBA] SET_ENTITY_POSITION(entity_id=Fairaure (ID: 17113887/0x0105231F), pos_x=455.297*, pos_z=539.351*, pos_y=2.548*, direction=232.6°*)
 69: 0x0EDD [0x80] LOAD_WAIT(entity=Fairaure (ID: 17113887/0x0105231F))
 70: 0x0EE2 [0x80] LOAD_WAIT(entity=LocalPlayer)
 71: 0x0EE7 [0x4A] Fairaure (ID: 17113887/0x0105231F) looks at LocalPlayer
 72: 0x0EF0 [0x7C] Fairaure (ID: 17113887/0x0105231F)->Render.Flags2 |= 0x01
 73: 0x0EF6 [0x5C] MUSIC_CONTROL: Set Idle (Day) music to song 0*
 74: 0x0EFA [0x5C] MUSIC_CONTROL: Set Idle (Night) music to song 0*
 75: 0x0EFE [0x9A] WAIT_MUSIC_SERVER()
 76: 0x0EFF [0x45] LOAD_SCHEDULED_TASK: Load scheduler "s147" with entities [EventEntity, EventEntity], work=[335*, 0*]
 77: 0x0F10 [0x1C] WAIT(15* ticks)
 78: 0x0F13 [0x45] LOAD_SCHEDULED_TASK: Load scheduler "fdi1" with entities [EventEntity, EventEntity], work=[200*, 0*]
 79: 0x0F24 [0x55] WAIT_LOAD_SCHEDULER: Wait for scheduler "fdi1" with entities [EventEntity, EventEntity], work=200*
 80: 0x0F33 [0x2B] Fairaure (ID: 17113887/0x0105231F) [7969*]:
    → "I fear for the safety of the pipe's owner..."
 81: 0x0F3A [0x23] WAIT_FOR_DIALOG_INTERACTION
 82: 0x0F3B [0x52] END_LOAD_SCHEDULER: End scheduler "s147" with entities [EventEntity, EventEntity], work=335*
 83: 0x0F4A [0x45] LOAD_SCHEDULED_TASK: Load scheduler "s148" with entities [EventEntity, EventEntity], work=[335*, 0*]
 84: 0x0F5B [0x5B] LOAD_EXT_SCHEDULER: Load scheduler "tlk0" with entities [Fairaure (ID: 17113887/0x0105231F), Fairaure (ID: 17113887/0x0105231F)], work=10*
 85: 0x0F6A [0x2B] Fairaure (ID: 17113887/0x0105231F) [7970*]:
    → "I will continue my search for the bard."
 86: 0x0F71 [0x23] WAIT_FOR_DIALOG_INTERACTION
 87: 0x0F72 [0x5B] LOAD_EXT_SCHEDULER: Load scheduler "tlk1" with entities [Fairaure (ID: 17113887/0x0105231F), Fairaure (ID: 17113887/0x0105231F)], work=10*
 88: 0x0F81 [0x7B] Fairaure (ID: 17113887/0x0105231F) stops talking
 89: 0x0F86 [0x2B] Fairaure (ID: 17113887/0x0105231F) [7971*]:
    → "It would break my heart if I had to bring such tragic news back to milady..."
 90: 0x0F8D [0x23] WAIT_FOR_DIALOG_INTERACTION
 91: 0x0F8E [0x52] END_LOAD_SCHEDULER: End scheduler "s148" with entities [EventEntity, EventEntity], work=335*
 92: 0x0F9D [0x45] LOAD_SCHEDULED_TASK: Load scheduler "s149" with entities [EventEntity, EventEntity], work=[335*, 0*]
 93: 0x0FAE [0x27] REQ_SET(priority=0x05, entity_id=Fairaure (ID: 17113887/0x0105231F), tag_num=0x09)
 94: 0x0FB5 [0x1C] WAIT(90* ticks)
 95: 0x0FB8 [0x45] LOAD_SCHEDULED_TASK: Load scheduler "fdo1" with entities [EventEntity, EventEntity], work=[200*, 0*]
 96: 0x0FC9 [0x55] WAIT_LOAD_SCHEDULER: Wait for scheduler "fdo1" with entities [EventEntity, EventEntity], work=200*
 97: 0x0FD8 [0x52] END_LOAD_SCHEDULER: End scheduler "s149" with entities [EventEntity, EventEntity], work=335*
 98: 0x0FE7 [0x46] CAMERA_CONTROL: Restore default settings
 99: 0x0FE9 [0x1C] WAIT(60* ticks)
100: 0x0FEC [0x45] LOAD_SCHEDULED_TASK: Load scheduler "fdi1" with entities [EventEntity, EventEntity], work=[200*, 0*]
101: 0x0FFD [0x21] END_EVENT
102: 0x0FFE [0x00] END_REQSTACK()
```

### Event 106

#### Metadata

| Field        | Value     |
|--------------|-----------|
| Entrypoint   | 0x0FFF    |
| Data Size    | 799 bytes |
| Instructions | 82        |

```
      00 01 02 03 04 05 06 07  08 09 0A 0B 0C 0D 0E 0F
      -- -- -- -- -- -- -- --  -- -- -- -- -- -- -- --
0FF0:                                               42                 B
1000: 45 01 80 F8 FF FF 7F F8  FF FF 7F 66 64 6F 31 02  E..........fdo1.
1010: 80 55 01 80 F8 FF FF 7F  F8 FF FF 7F 66 64 6F 31  .U..........fdo1
1020: 46 01 38 34 80 2F 00 99  23 05 01 4E 00 99 23 05  F.84./..#..N..#.
1030: 01 BA 99 23 05 01 8B 80  8C 80 8D 80 8E 80 BA F0  ...#............
1040: FF FF 7F 35 80 36 80 37  80 38 80 80 99 23 05 01  ...5.6.7.8...#..
1050: 80 F0 FF FF 7F 4B F0 FF  FF 7F 8F 80 45 90 80 F8  .....K......E...
1060: FF FF 7F F8 FF FF 7F 73  74 65 73 02 80 1C 05 80  .......stes.....
1070: 27 05 99 23 05 01 02 45  78 80 F8 FF FF 7F F8 FF  '..#...Ex.......
1080: FF 7F 73 31 35 30 02 80  1C 3A 80 45 01 80 F8 FF  ..s150...:.E....
1090: FF 7F F8 FF FF 7F 66 64  69 31 02 80 55 01 80 F8  ......fdi1..U...
10A0: FF FF 7F F8 FF FF 7F 66  64 69 31 2A 05 99 23 05  .......fdi1*..#.
10B0: 01 52 78 80 F8 FF FF 7F  F8 FF FF 7F 73 31 35 30  .Rx.........s150
10C0: 45 90 80 F8 FF FF 7F F8  FF FF 7F 73 31 36 35 02  E..........s165.
10D0: 80 BA F0 FF FF 7F 91 80  92 80 93 80 94 80 80 F0  ................
10E0: FF FF 7F 29 05 99 23 05  01 03 52 90 80 F8 FF FF  ...)..#...R.....
10F0: 7F F8 FF FF 7F 73 31 36  35 45 78 80 F8 FF FF 7F  .....s165Ex.....
1100: F8 FF FF 7F 73 31 35 31  02 80 66 30 80 99 23 05  ....s151..f0..#.
1110: 01 99 23 05 01 73 68 61  31 29 05 F0 FF FF 7F 1D  ..#..sha1)......
1120: 6E 99 23 05 01 5B 80 99  99 23 05 01 27 05 F0 FF  n.#..[...#..'...
1130: FF 7F 1F 1C 3E 80 27 05  F0 FF FF 7F 20 1C 15 80  ....>.'..... ...
1140: 52 78 80 F8 FF FF 7F F8  FF FF 7F 73 31 35 31 45  Rx.........s151E
1150: 78 80 F8 FF FF 7F F8 FF  FF 7F 73 31 35 32 02 80  x.........s152..
1160: 29 05 99 23 05 01 04 2B  99 23 05 01 95 80 23 52  )..#...+.#....#R
1170: 78 80 F8 FF FF 7F F8 FF  FF 7F 73 31 35 32 45 78  x.........s152Ex
1180: 80 F8 FF FF 7F F8 FF FF  7F 73 31 35 33 02 80 66  .........s153..f
1190: 30 80 99 23 05 01 99 23  05 01 74 6C 6B 30 2B 99  0..#...#..tlk0+.
11A0: 23 05 01 96 80 23 2B 99  23 05 01 97 80 23 66 30  #....#+.#....#f0
11B0: 80 99 23 05 01 99 23 05  01 74 6C 6B 31 52 78 80  ..#...#..tlk1Rx.
11C0: F8 FF FF 7F F8 FF FF 7F  73 31 35 33 45 78 80 F8  ........s153Ex..
11D0: FF FF 7F F8 FF FF 7F 73  31 35 34 02 80 79 00 99  .......s154..y..
11E0: 23 05 01 1D 23 05 01 1C  04 80 52 78 80 F8 FF FF  #...#.....Rx....
11F0: 7F F8 FF FF 7F 73 31 35  34 45 78 80 F8 FF FF 7F  .....s154Ex.....
1200: F8 FF FF 7F 73 31 35 35  02 80 27 05 99 23 05 01  ....s155..'..#..
1210: 05 4A F0 FF FF 7F 1D 23  05 01 2B 99 23 05 01 98  .J.....#..+.#...
1220: 80 23 2A 05 99 23 05 01  66 30 80 99 23 05 01 99  .#*..#..f0..#...
1230: 23 05 01 73 68 61 30 52  78 80 F8 FF FF 7F F8 FF  #..sha0Rx.......
1240: FF 7F 73 31 35 35 45 78  80 F8 FF FF 7F F8 FF FF  ..s155Ex........
1250: 7F 73 31 35 36 02 80 53  99 23 05 01 99 23 05 01  .s156..S.#...#..
1260: 73 68 61 30 55 78 80 F8  FF FF 7F F8 FF FF 7F 73  sha0Ux.........s
1270: 31 35 36 45 78 80 F8 FF  FF 7F F8 FF FF 7F 73 31  156Ex.........s1
1280: 35 37 02 80 03 02 10 99  80 2B 99 23 05 01 9A 80  57.......+.#....
1290: 23 52 78 80 F8 FF FF 7F  F8 FF FF 7F 73 31 35 37  #Rx.........s157
12A0: 45 78 80 F8 FF FF 7F F8  FF FF 7F 73 31 35 38 02  Ex.........s158.
12B0: 80 66 30 80 99 23 05 01  99 23 05 01 73 68 61 31  .f0..#...#..sha1
12C0: 53 99 23 05 01 99 23 05  01 73 68 61 31 27 05 99  S.#...#..sha1'..
12D0: 23 05 01 06 1C 05 80 45  01 80 F8 FF FF 7F F8 FF  #......E........
12E0: FF 7F 66 64 6F 31 02 80  55 01 80 F8 FF FF 7F F8  ..fdo1..U.......
12F0: FF FF 7F 66 64 6F 31 52  78 80 F8 FF FF 7F F8 FF  ...fdo1Rx.......
1300: FF 7F 73 31 35 38 46 00  1C 05 80 45 01 80 F8 FF  ..s158F....E....
1310: FF 7F F8 FF FF 7F 66 64  69 31 02 80 21 00        ......fdi1..!.  
```

#### Opcodes

```
  0: 0x0FFF [0x42] SET_CLI_EVENT_CANCEL_DATA()
  1: 0x1000 [0x45] LOAD_SCHEDULED_TASK: Load scheduler "fdo1" with entities [EventEntity, EventEntity], work=[200*, 0*]
  2: 0x1011 [0x55] WAIT_LOAD_SCHEDULER: Wait for scheduler "fdo1" with entities [EventEntity, EventEntity], work=200*
  3: 0x1020 [0x46] CAMERA_CONTROL: Disable user control
  4: 0x1022 [0x38] SET_CLIENT_EVENT_MODE(mode=27*)
  5: 0x1025 [0x2F] Shrouded Piper (ID: 17114009/0x01052399)->Render.Flags0 &= ~0x80000 // Bit 19
  6: 0x102B [0x4E] SET_ENTITY_HIDE_FLAG: Show Shrouded Piper (ID: 17114009/0x01052399)
  7: 0x1031 [0xBA] SET_ENTITY_POSITION(entity_id=Shrouded Piper (ID: 17114009/0x01052399), pos_x=111.082*, pos_z=449.923*, pos_y=1.236*, direction=90.4°*)
  8: 0x103E [0xBA] SET_ENTITY_POSITION(entity_id=LocalPlayer, pos_x=103.164*, pos_z=442.749*, pos_y=5.361*, direction=179.5°*)
  9: 0x104B [0x80] LOAD_WAIT(entity=Shrouded Piper (ID: 17114009/0x01052399))
 10: 0x1050 [0x80] LOAD_WAIT(entity=LocalPlayer)
 11: 0x1055 [0x4B] UPDATE_ENTITY_YAW(entity=LocalPlayer, yaw=22.3°*)
 12: 0x105C [0x45] LOAD_SCHEDULED_TASK: Load scheduler "stes" with entities [EventEntity, EventEntity], work=[336*, 0*]
 13: 0x106D [0x1C] WAIT(60* ticks)
 14: 0x1070 [0x27] REQ_SET(priority=0x05, entity_id=Shrouded Piper (ID: 17114009/0x01052399), tag_num=0x02)
 15: 0x1077 [0x45] LOAD_SCHEDULED_TASK: Load scheduler "s150" with entities [EventEntity, EventEntity], work=[335*, 0*]
 16: 0x1088 [0x1C] WAIT(15* ticks)
 17: 0x108B [0x45] LOAD_SCHEDULED_TASK: Load scheduler "fdi1" with entities [EventEntity, EventEntity], work=[200*, 0*]
 18: 0x109C [0x55] WAIT_LOAD_SCHEDULER: Wait for scheduler "fdi1" with entities [EventEntity, EventEntity], work=200*
 19: 0x10AB [0x2A] GET_REQ_LEVEL(level=5, entity_id=Shrouded Piper (ID: 17114009/0x01052399))
 20: 0x10B1 [0x52] END_LOAD_SCHEDULER: End scheduler "s150" with entities [EventEntity, EventEntity], work=335*
 21: 0x10C0 [0x45] LOAD_SCHEDULED_TASK: Load scheduler "s165" with entities [EventEntity, EventEntity], work=[336*, 0*]
 22: 0x10D1 [0xBA] SET_ENTITY_POSITION(entity_id=LocalPlayer, pos_x=107.309*, pos_z=444.380*, pos_y=3.102*, direction=333.9°*)
 23: 0x10DE [0x80] LOAD_WAIT(entity=LocalPlayer)
 24: 0x10E3 [0x29] REQ_SET_WAIT(priority=0x05, entity_id=Shrouded Piper (ID: 17114009/0x01052399), tag_num=0x03)
 25: 0x10EA [0x52] END_LOAD_SCHEDULER: End scheduler "s165" with entities [EventEntity, EventEntity], work=336*
 26: 0x10F9 [0x45] LOAD_SCHEDULED_TASK: Load scheduler "s151" with entities [EventEntity, EventEntity], work=[335*, 0*]
 27: 0x110A [0x66] LOAD_EXT_SCHEDULER_MAIN: Load scheduler "sha1" with entities [Shrouded Piper (ID: 17114009/0x01052399), Shrouded Piper (ID: 17114009/0x01052399)], work=9*
 28: 0x1119 [0x29] REQ_SET_WAIT(priority=0x05, entity_id=LocalPlayer, tag_num=0x1D)
 29: 0x1120 [0x6E] Shrouded Piper (ID: 17114009/0x01052399) uses emote 6*
 30: 0x1127 [0x99] Wait for Shrouded Piper (ID: 17114009/0x01052399) animation to complete
 31: 0x112C [0x27] REQ_SET(priority=0x05, entity_id=LocalPlayer, tag_num=0x1F)
 32: 0x1133 [0x1C] WAIT(80* ticks)
 33: 0x1136 [0x27] REQ_SET(priority=0x05, entity_id=LocalPlayer, tag_num=0x20)
 34: 0x113D [0x1C] WAIT(40* ticks)
 35: 0x1140 [0x52] END_LOAD_SCHEDULER: End scheduler "s151" with entities [EventEntity, EventEntity], work=335*
 36: 0x114F [0x45] LOAD_SCHEDULED_TASK: Load scheduler "s152" with entities [EventEntity, EventEntity], work=[335*, 0*]
 37: 0x1160 [0x29] REQ_SET_WAIT(priority=0x05, entity_id=Shrouded Piper (ID: 17114009/0x01052399), tag_num=0x04)
 38: 0x1167 [0x2B] Shrouded Piper (ID: 17114009/0x01052399) [7972*]:
    → "What? You're looking for someone who was attacked by a monster and dropped a pipe?"
 39: 0x116E [0x23] WAIT_FOR_DIALOG_INTERACTION
 40: 0x116F [0x52] END_LOAD_SCHEDULER: End scheduler "s152" with entities [EventEntity, EventEntity], work=335*
 41: 0x117E [0x45] LOAD_SCHEDULED_TASK: Load scheduler "s153" with entities [EventEntity, EventEntity], work=[335*, 0*]
 42: 0x118F [0x66] LOAD_EXT_SCHEDULER_MAIN: Load scheduler "tlk0" with entities [Shrouded Piper (ID: 17114009/0x01052399), Shrouded Piper (ID: 17114009/0x01052399)], work=9*
 43: 0x119E [0x2B] Shrouded Piper (ID: 17114009/0x01052399) [7973*]:
    → "In that case, you need not look any further, for I am he. I love the beauty and solitude of this place, and often come here to play my pipe. Unfortunately, it seems a smilodon shares my sentiments."
 44: 0x11A5 [0x23] WAIT_FOR_DIALOG_INTERACTION
 45: 0x11A6 [0x2B] Shrouded Piper (ID: 17114009/0x01052399) [7974*]:
    → "I somehow managed to escape from its razor-sharp claws, but as luck would have it, I dropped my treasured pipe as I fled. I've been scouring the forest for it since. If I recall correctly..."
 46: 0x11AD [0x23] WAIT_FOR_DIALOG_INTERACTION
 47: 0x11AE [0x66] LOAD_EXT_SCHEDULER_MAIN: Load scheduler "tlk1" with entities [Shrouded Piper (ID: 17114009/0x01052399), Shrouded Piper (ID: 17114009/0x01052399)], work=9*
 48: 0x11BD [0x52] END_LOAD_SCHEDULER: End scheduler "s153" with entities [EventEntity, EventEntity], work=335*
 49: 0x11CC [0x45] LOAD_SCHEDULED_TASK: Load scheduler "s154" with entities [EventEntity, EventEntity], work=[335*, 0*]
 50: 0x11DD [0x79] Shrouded Piper (ID: 17114009/0x01052399) looks at Glowing Pebbles (ID: 17113885/0x0105231D) (Basic look)
 51: 0x11E7 [0x1C] WAIT(90* ticks)
 52: 0x11EA [0x52] END_LOAD_SCHEDULER: End scheduler "s154" with entities [EventEntity, EventEntity], work=335*
 53: 0x11F9 [0x45] LOAD_SCHEDULED_TASK: Load scheduler "s155" with entities [EventEntity, EventEntity], work=[335*, 0*]
 54: 0x120A [0x27] REQ_SET(priority=0x05, entity_id=Shrouded Piper (ID: 17114009/0x01052399), tag_num=0x05)
 55: 0x1211 [0x4A] LocalPlayer looks at Glowing Pebbles (ID: 17113885/0x0105231D)
 56: 0x121A [0x2B] Shrouded Piper (ID: 17114009/0x01052399) [7975*]:
    → "Found it! Altana be praised!"
 57: 0x1221 [0x23] WAIT_FOR_DIALOG_INTERACTION
 58: 0x1222 [0x2A] GET_REQ_LEVEL(level=5, entity_id=Shrouded Piper (ID: 17114009/0x01052399))
 59: 0x1228 [0x66] LOAD_EXT_SCHEDULER_MAIN: Load scheduler "sha0" with entities [Shrouded Piper (ID: 17114009/0x01052399), Shrouded Piper (ID: 17114009/0x01052399)], work=9*
 60: 0x1237 [0x52] END_LOAD_SCHEDULER: End scheduler "s155" with entities [EventEntity, EventEntity], work=335*
 61: 0x1246 [0x45] LOAD_SCHEDULED_TASK: Load scheduler "s156" with entities [EventEntity, EventEntity], work=[335*, 0*]
 62: 0x1257 [0x53] WAIT_SCHEDULER_TASK: Wait for scheduler "sha0" with entities [Shrouded Piper (ID: 17114009/0x01052399), Shrouded Piper (ID: 17114009/0x01052399)]
 63: 0x1264 [0x55] WAIT_LOAD_SCHEDULER: Wait for scheduler "s156" with entities [EventEntity, EventEntity], work=335*
 64: 0x1273 [0x45] LOAD_SCHEDULED_TASK: Load scheduler "s157" with entities [EventEntity, EventEntity], work=[335*, 0*]
 65: 0x1284 [0x03] Work_Zone[2] = 2558*
 66: 0x1289 [0x2B] Shrouded Piper (ID: 17114009/0x01052399) [7976*]:
    → "But it's broken... If I had $0, it might be possible to make repairs..."
 67: 0x1290 [0x23] WAIT_FOR_DIALOG_INTERACTION
 68: 0x1291 [0x52] END_LOAD_SCHEDULER: End scheduler "s157" with entities [EventEntity, EventEntity], work=335*
 69: 0x12A0 [0x45] LOAD_SCHEDULED_TASK: Load scheduler "s158" with entities [EventEntity, EventEntity], work=[335*, 0*]
 70: 0x12B1 [0x66] LOAD_EXT_SCHEDULER_MAIN: Load scheduler "sha1" with entities [Shrouded Piper (ID: 17114009/0x01052399), Shrouded Piper (ID: 17114009/0x01052399)], work=9*
 71: 0x12C0 [0x53] WAIT_SCHEDULER_TASK: Wait for scheduler "sha1" with entities [Shrouded Piper (ID: 17114009/0x01052399), Shrouded Piper (ID: 17114009/0x01052399)]
 72: 0x12CD [0x27] REQ_SET(priority=0x05, entity_id=Shrouded Piper (ID: 17114009/0x01052399), tag_num=0x06)
 73: 0x12D4 [0x1C] WAIT(60* ticks)
 74: 0x12D7 [0x45] LOAD_SCHEDULED_TASK: Load scheduler "fdo1" with entities [EventEntity, EventEntity], work=[200*, 0*]
 75: 0x12E8 [0x55] WAIT_LOAD_SCHEDULER: Wait for scheduler "fdo1" with entities [EventEntity, EventEntity], work=200*
 76: 0x12F7 [0x52] END_LOAD_SCHEDULER: End scheduler "s158" with entities [EventEntity, EventEntity], work=335*
