# Event 65535

## Metadata

| Field           | Value    |
|-----------------|----------|
| Event Index     | 16/27    |
| Offset          | 0x00A6   |
| Data Size       | 57 bytes |
| Calculated Size | 57 bytes |
| Instructions    | 7        |

```
      00 01 02 03 04 05 06 07  08 09 0A 0B 0C 0D 0E 0F
      -- -- -- -- -- -- -- --  -- -- -- -- -- -- -- --
00A0:                   5B 00  80 CC F2 0A 01 CC F2 0A        [.........
00B0: 01 72 62 30 30 1C 05 80  BB 02 80 D0 F2 0A 01 D0  .rb00...........
00C0: F2 0A 01 6D 61 69 6E 03  80 1C 01 80 5B 00 80 CC  ...main.....[...
00D0: F2 0A 01 CC F2 0A 01 72  62 30 31 1C 01 80 00     .......rb01.... 
```

## Opcodes

```
  0: 0x00A6 [0x5B] LOAD_EXT_SCHEDULER(work_offset=1290*, entity1=Erlene (ID: 17494732/0x010AF2CC), entity2=Erlene (ID: 17494732/0x010AF2CC), action="rb00")
  1: 0x00B5 [0x1C] WAIT(60* ticks)
  2: 0x00B8 [0xBB] LOAD_EVENT_SCHEDULER_ALT: Load scheduler "main" with entities [Unnamed NPC (ID: 17494736/0x010AF2D0), Unnamed NPC (ID: 17494736/0x010AF2D0)], work=[149*, 0*]
  3: 0x00C9 [0x1C] WAIT(120* ticks)
  4: 0x00CC [0x5B] LOAD_EXT_SCHEDULER(work_offset=1290*, entity1=Erlene (ID: 17494732/0x010AF2CC), entity2=Erlene (ID: 17494732/0x010AF2CC), action="rb01")
  5: 0x00DB [0x1C] WAIT(120* ticks)
  6: 0x00DE [0x00] END_REQSTACK()
```
