# Event 65535

## Metadata

| Field           | Value    |
|-----------------|----------|
| Event Index     | 20/27    |
| Offset          | 0x018A   |
| Data Size       | 57 bytes |
| Calculated Size | 57 bytes |
| Instructions    | 7        |

```
      00 01 02 03 04 05 06 07  08 09 0A 0B 0C 0D 0E 0F
      -- -- -- -- -- -- -- --  -- -- -- -- -- -- -- --
0180:                                5B 07 80 CE F2 0A            [.....
0190: 01 CE F2 0A 01 62 6F 6B  30 1C 05 80 BB 02 80 CE  .....bok0.......
01A0: F2 0A 01 CE F2 0A 01 6D  61 69 6E 03 80 1C 01 80  .......main.....
01B0: 5B 07 80 CE F2 0A 01 CE  F2 0A 01 62 6F 6B 31 1C  [..........bok1.
01C0: 01 80 00                                          ...             
```

## Opcodes

```
  0: 0x018A [0x5B] LOAD_EXT_SCHEDULER(work_offset=1296*, entity1=Schultz (ID: 17494734/0x010AF2CE), entity2=Schultz (ID: 17494734/0x010AF2CE), action="bok0")
  1: 0x0199 [0x1C] WAIT(60* ticks)
  2: 0x019C [0xBB] LOAD_EVENT_SCHEDULER_ALT: Load scheduler "main" with entities [Schultz (ID: 17494734/0x010AF2CE), Schultz (ID: 17494734/0x010AF2CE)], work=[149*, 0*]
  3: 0x01AD [0x1C] WAIT(120* ticks)
  4: 0x01B0 [0x5B] LOAD_EXT_SCHEDULER(work_offset=1296*, entity1=Schultz (ID: 17494734/0x010AF2CE), entity2=Schultz (ID: 17494734/0x010AF2CE), action="bok1")
  5: 0x01BF [0x1C] WAIT(120* ticks)
  6: 0x01C2 [0x00] END_REQSTACK()
```
