# Event 65535

## Metadata

| Field           | Value    |
|-----------------|----------|
| Event Index     | 17/27    |
| Offset          | 0x00DF   |
| Data Size       | 57 bytes |
| Calculated Size | 57 bytes |
| Instructions    | 7        |

```
      00 01 02 03 04 05 06 07  08 09 0A 0B 0C 0D 0E 0F
      -- -- -- -- -- -- -- --  -- -- -- -- -- -- -- --
00D0:                                               5B                 [
00E0: 00 80 CC F2 0A 01 CC F2  0A 01 6C 62 30 30 1C 05  ..........lb00..
00F0: 80 BB 06 80 D0 F2 0A 01  D0 F2 0A 01 6D 61 69 6E  ............main
0100: 03 80 1C 01 80 5B 00 80  CC F2 0A 01 CC F2 0A 01  .....[..........
0110: 6C 62 30 31 1C 01 80 00                           lb01....        
```

## Opcodes

```
  0: 0x00DF [0x5B] LOAD_EXT_SCHEDULER(work_offset=1290*, entity1=Erlene (ID: 17494732/0x010AF2CC), entity2=Erlene (ID: 17494732/0x010AF2CC), action="lb00")
  1: 0x00EE [0x1C] WAIT(60* ticks)
  2: 0x00F1 [0xBB] LOAD_EVENT_SCHEDULER_ALT: Load scheduler "main" with entities [Unnamed NPC (ID: 17494736/0x010AF2D0), Unnamed NPC (ID: 17494736/0x010AF2D0)], work=[150*, 0*]
  3: 0x0102 [0x1C] WAIT(120* ticks)
  4: 0x0105 [0x5B] LOAD_EXT_SCHEDULER(work_offset=1290*, entity1=Erlene (ID: 17494732/0x010AF2CC), entity2=Erlene (ID: 17494732/0x010AF2CC), action="lb01")
  5: 0x0114 [0x1C] WAIT(120* ticks)
  6: 0x0117 [0x00] END_REQSTACK()
```
