# Event 400

## Metadata

| Field           | Value    |
|-----------------|----------|
| Event Index     | 22/39    |
| Offset          | 0x01CE   |
| Data Size       | 45 bytes |
| Calculated Size | 45 bytes |
| Instructions    | 11       |

```
      00 01 02 03 04 05 06 07  08 09 0A 0B 0C 0D 0E 0F
      -- -- -- -- -- -- -- --  -- -- -- -- -- -- -- --
01C0:                                            20 01                 .
01D0: 42 1E F0 FF FF 7F 6F 70  29 0B 11 E0 0E 01 16 29  B.....op)......)
01E0: 0B 11 E0 0E 01 17 45 13  80 F0 FF FF 7F F0 FF FF  ......E.........
01F0: 7F 71 73 74 63 14 80 20  00 21 00                 .qstc.. .!.     
```

## Opcodes

```
  0: 0x01CE [0x20] SET_CLI_EVENT_UC_FLAG: Lock player control
  1: 0x01D0 [0x42] SET_CLI_EVENT_CANCEL_DATA()
  2: 0x01D1 [0x1E] EventEntity looks at LocalPlayer and starts talking
  3: 0x01D6 [0x6F] WAIT_FRAME_DELAY: Yield until WaitTime reaches zero
  4: 0x01D7 [0x70] WAIT_ENTITY_RENDER_FLAG: Wait while EventEntity->Render.Flags3 bit 2 is set (cancel turn if not)
  5: 0x01D8 [0x29] REQ_SET_WAIT(priority=0x0B, entity_id=Furakku-Norakku (ID: 17752081/0x010EE011), tag_num=0x16)
  6: 0x01DF [0x29] REQ_SET_WAIT(priority=0x0B, entity_id=Furakku-Norakku (ID: 17752081/0x010EE011), tag_num=0x17)
  7: 0x01E6 [0x45] LOAD_SCHEDULED_TASK(work_offset1=201*, entity1=LocalPlayer, entity2=LocalPlayer, scheduler_id="qstc", work_offset2=0*)
  8: 0x01F7 [0x20] SET_CLI_EVENT_UC_FLAG: Unlock player control
  9: 0x01F9 [0x21] END_EVENT
 10: 0x01FA [0x00] END_REQSTACK()
```
