# Event 3152

## Metadata

| Field           | Value    |
|-----------------|----------|
| Event Index     | 160/212  |
| Offset          | 0x0BAD   |
| Data Size       | 18 bytes |
| Calculated Size | 18 bytes |
| Instructions    | 10       |

```
      00 01 02 03 04 05 06 07  08 09 0A 0B 0C 0D 0E 0F
      -- -- -- -- -- -- -- --  -- -- -- -- -- -- -- --
0BA0:                                         42 1E F0               B..
0BB0: FF FF 7F 6F 70 1D 5D 81  23 1D 5E 81 23 21 00     ...op.].#.^.#!. 
```

## Opcodes

```
  0: 0x0BAD [0x42] SET_CLI_EVENT_CANCEL_DATA()
  1: 0x0BAE [0x1E] EventEntity looks at LocalPlayer and starts talking
  2: 0x0BB3 [0x6F] WAIT_FRAME_DELAY: Yield until WaitTime reaches zero
  3: 0x0BB4 [0x70] WAIT_ENTITY_RENDER_FLAG: Wait while EventEntity->Render.Flags3 bit 2 is set (cancel turn if not)
  4: 0x0BB5 [0x1D] PRINT_EVENT_MESSAGE(message_id=9903*)
    → "The Empress...\u0007The Empress spoke my name...\u007F1\u0000\u0007"
  5: 0x0BB8 [0x23] WAIT_FOR_DIALOG_INTERACTION
  6: 0x0BB9 [0x1D] PRINT_EVENT_MESSAGE(message_id=9904*)
    → "Hm!?\u0007No, it must have been a dream--how could Her Magnificence and Lady Aphmau be the same person?\u0007Impossible!\u007F1\u0000\u0007"
  7: 0x0BBC [0x23] WAIT_FOR_DIALOG_INTERACTION
  8: 0x0BBD [0x21] END_EVENT
  9: 0x0BBE [0x00] END_REQSTACK()
```
