# Event 3153

## Metadata

| Field           | Value    |
|-----------------|----------|
| Event Index     | 161/212  |
| Offset          | 0x0BBF   |
| Data Size       | 22 bytes |
| Calculated Size | 22 bytes |
| Instructions    | 12       |

```
      00 01 02 03 04 05 06 07  08 09 0A 0B 0C 0D 0E 0F
      -- -- -- -- -- -- -- --  -- -- -- -- -- -- -- --
0BB0:                                               42                 B
0BC0: 1E F0 FF FF 7F 6F 70 1D  5F 81 23 1D 60 81 23 1D  .....op._.#.`.#.
0BD0: 61 81 23 21 00                                    a.#!.           
```

## Opcodes

```
  0: 0x0BBF [0x42] SET_CLI_EVENT_CANCEL_DATA()
  1: 0x0BC0 [0x1E] EventEntity looks at LocalPlayer and starts talking
  2: 0x0BC5 [0x6F] WAIT_FRAME_DELAY: Yield until WaitTime reaches zero
  3: 0x0BC6 [0x70] WAIT_ENTITY_RENDER_FLAG: Wait while EventEntity->Render.Flags3 bit 2 is set (cancel turn if not)
  4: 0x0BC7 [0x1D] PRINT_EVENT_MESSAGE(message_id=9941*)
    → "How wonderful it must be to have the honor of escorting President Naja to the coronation ceremony!\u007F1\u0000\u0007"
  5: 0x0BCA [0x23] WAIT_FOR_DIALOG_INTERACTION
  6: 0x0BCB [0x1D] PRINT_EVENT_MESSAGE(message_id=9942*)
    → "But it's only fair, considering your part in all of this.\u007F1\u0000\u0007"
  7: 0x0BCE [0x23] WAIT_FOR_DIALOG_INTERACTION
  8: 0x0BCF [0x1D] PRINT_EVENT_MESSAGE(message_id=9943*)
    → "I'll just be here minding the office...all alone...as usual...\u0007But please, do go and enjoy the ceremony!\u007F1\u0000\u0007"
  9: 0x0BD2 [0x23] WAIT_FOR_DIALOG_INTERACTION
 10: 0x0BD3 [0x21] END_EVENT
 11: 0x0BD4 [0x00] END_REQSTACK()
```
