# Event 3154

## Metadata

| Field           | Value    |
|-----------------|----------|
| Event Index     | 162/212  |
| Offset          | 0x0BD5   |
| Data Size       | 18 bytes |
| Calculated Size | 18 bytes |
| Instructions    | 10       |

```
      00 01 02 03 04 05 06 07  08 09 0A 0B 0C 0D 0E 0F
      -- -- -- -- -- -- -- --  -- -- -- -- -- -- -- --
0BD0:                42 1E F0  FF FF 7F 6F 70 1D 62 81       B.....op.b.
0BE0: 23 1D 63 81 23 21 00                              #.c.#!.         
```

## Opcodes

```
  0: 0x0BD5 [0x42] SET_CLI_EVENT_CANCEL_DATA()
  1: 0x0BD6 [0x1E] EventEntity looks at LocalPlayer and starts talking
  2: 0x0BDB [0x6F] WAIT_FRAME_DELAY: Yield until WaitTime reaches zero
  3: 0x0BDC [0x70] WAIT_ENTITY_RENDER_FLAG: Wait while EventEntity->Render.Flags3 bit 2 is set (cancel turn if not)
  4: 0x0BDD [0x1D] PRINT_EVENT_MESSAGE(message_id=10205*)
    → "Every time I look at the accumulated total for your Nyzul Isle support and rescue fees, I start to feel faint...\u007F1\u0000\u0007"
  5: 0x0BE0 [0x23] WAIT_FOR_DIALOG_INTERACTION
  6: 0x0BE1 [0x1D] PRINT_EVENT_MESSAGE(message_id=10206*)
    → "But don't worry, I've been deducting a percentage from your salary.\u0007One day, far...far into the future, you'll be out of debt and fancy-free once more!\u007F1\u0000\u0007"
  7: 0x0BE4 [0x23] WAIT_FOR_DIALOG_INTERACTION
  8: 0x0BE5 [0x21] END_EVENT
  9: 0x0BE6 [0x00] END_REQSTACK()
```
