# Event 65535

## Metadata

| Field           | Value    |
|-----------------|----------|
| Event Index     | 97/212   |
| Offset          | 0x08D2   |
| Data Size       | 44 bytes |
| Calculated Size | 44 bytes |
| Instructions    | 14       |

```
      00 01 02 03 04 05 06 07  08 09 0A 0B 0C 0D 0E 0F
      -- -- -- -- -- -- -- --  -- -- -- -- -- -- -- --
08D0:       32 BB 80 1F 00 1E  81 1F 81 9D 80 1F 01 6F    2............o
08E0: 1F 00 1E 81 20 81 9A 80  1F 01 6F 1F 00 21 81 22  .... .....o..!."
08F0: 81 10 81 1F 01 6F 1E D8  20 03 01 6F 70 00        .....o.. ..op.  
```

## Opcodes

```
  0: 0x08D2 [0x32] ExtData[1]->MainSpeed = 40* * 0.1
  1: 0x08D5 [0x1F] MOVE_ENTITY: EventEntity moves to X=35.706*, Z=-51.616*, Y=-6.601*
  2: 0x08DD [0x1F] MOVE_ENTITY: Update entity position (mode=1)
  3: 0x08DF [0x6F] WAIT_FRAME_DELAY: Yield until WaitTime reaches zero
  4: 0x08E0 [0x1F] MOVE_ENTITY: EventEntity moves to X=35.706*, Z=-48.342*, Y=-7.199*
  5: 0x08E8 [0x1F] MOVE_ENTITY: Update entity position (mode=1)
  6: 0x08EA [0x6F] WAIT_FRAME_DELAY: Yield until WaitTime reaches zero
  7: 0x08EB [0x1F] MOVE_ENTITY: EventEntity moves to X=26.444*, Z=-46.659*, Y=-7.804*
  8: 0x08F3 [0x1F] MOVE_ENTITY: Update entity position (mode=1)
  9: 0x08F5 [0x6F] WAIT_FRAME_DELAY: Yield until WaitTime reaches zero
 10: 0x08F6 [0x1E] EventEntity looks at Naja Salaheem (ID: 16982232/0x010320D8) and starts talking
 11: 0x08FB [0x6F] WAIT_FRAME_DELAY: Yield until WaitTime reaches zero
 12: 0x08FC [0x70] WAIT_ENTITY_RENDER_FLAG: Wait while EventEntity->Render.Flags3 bit 2 is set (cancel turn if not)
 13: 0x08FD [0x00] END_REQSTACK()
```
