# Event 65535

## Metadata

| Field           | Value    |
|-----------------|----------|
| Event Index     | 52/212   |
| Offset          | 0x06A1   |
| Data Size       | 43 bytes |
| Calculated Size | 43 bytes |
| Instructions    | 15       |

```
      00 01 02 03 04 05 06 07  08 09 0A 0B 0C 0D 0E 0F
      -- -- -- -- -- -- -- --  -- -- -- -- -- -- -- --
06A0:    32 97 80 1F 00 DC 80  DD 80 06 80 1F 01 6F 1E   2............o.
06B0: 8C 20 03 01 6F 70 1C D6  80 1F 00 DE 80 DF 80 E0  . ..op..........
06C0: 80 1F 01 6F 1E 8C 20 03  01 6F 70 00              ...o.. ..op.    
```

## Opcodes

```
  0: 0x06A1 [0x32] ExtData[1]->MainSpeed = 46* * 0.1
  1: 0x06A4 [0x1F] MOVE_ENTITY: EventEntity moves to X=122.883*, Z=-5.800*, Y=0.000*
  2: 0x06AC [0x1F] MOVE_ENTITY: Update entity position (mode=1)
  3: 0x06AE [0x6F] WAIT_FRAME_DELAY: Yield until WaitTime reaches zero
  4: 0x06AF [0x1E] EventEntity looks at Naja Salaheem (ID: 16982156/0x0103208C) and starts talking
  5: 0x06B4 [0x6F] WAIT_FRAME_DELAY: Yield until WaitTime reaches zero
  6: 0x06B5 [0x70] WAIT_ENTITY_RENDER_FLAG: Wait while EventEntity->Render.Flags3 bit 2 is set (cancel turn if not)
  7: 0x06B6 [0x1C] WAIT(15* ticks)
  8: 0x06B9 [0x1F] MOVE_ENTITY: EventEntity moves to X=141.542*, Z=-1.869*, Y=-1.999*
  9: 0x06C1 [0x1F] MOVE_ENTITY: Update entity position (mode=1)
 10: 0x06C3 [0x6F] WAIT_FRAME_DELAY: Yield until WaitTime reaches zero
 11: 0x06C4 [0x1E] EventEntity looks at Naja Salaheem (ID: 16982156/0x0103208C) and starts talking
 12: 0x06C9 [0x6F] WAIT_FRAME_DELAY: Yield until WaitTime reaches zero
 13: 0x06CA [0x70] WAIT_ENTITY_RENDER_FLAG: Wait while EventEntity->Render.Flags3 bit 2 is set (cancel turn if not)
 14: 0x06CB [0x00] END_REQSTACK()
```
