# Event 65535

## Metadata

| Field           | Value    |
|-----------------|----------|
| Event Index     | 151/212  |
| Offset          | 0x0B2F   |
| Data Size       | 31 bytes |
| Calculated Size | 31 bytes |
| Instructions    | 11       |

```
      00 01 02 03 04 05 06 07  08 09 0A 0B 0C 0D 0E 0F
      -- -- -- -- -- -- -- --  -- -- -- -- -- -- -- --
0B20:                                               42                 B
0B30: 1E F0 FF FF 7F 6F 70 6E  8D 20 03 01 6E 80 99 8D  .....opn. ..n...
0B40: 20 03 01 99 8D 20 03 01  1D 51 81 23 21 00         .... ...Q.#!.  
```

## Opcodes

```
  0: 0x0B2F [0x42] SET_CLI_EVENT_CANCEL_DATA()
  1: 0x0B30 [0x1E] EventEntity looks at LocalPlayer and starts talking
  2: 0x0B35 [0x6F] WAIT_FRAME_DELAY: Yield until WaitTime reaches zero
  3: 0x0B36 [0x70] WAIT_ENTITY_RENDER_FLAG: Wait while EventEntity->Render.Flags3 bit 2 is set (cancel turn if not)
  4: 0x0B37 [0x6E] Abquhbah (ID: 16982157/0x0103208D) uses emote 5*
  5: 0x0B3E [0x99] Wait for Abquhbah (ID: 16982157/0x0103208D) animation to complete
  6: 0x0B43 [0x99] Wait for Abquhbah (ID: 16982157/0x0103208D) animation to complete
  7: 0x0B48 [0x1D] PRINT_EVENT_MESSAGE(message_id=9688*)
    → "Ahaha...\u0007Yes, this will certainly put me to sleep...\u007F1\u0000\u0007"
  8: 0x0B4B [0x23] WAIT_FOR_DIALOG_INTERACTION
  9: 0x0B4C [0x21] END_EVENT
 10: 0x0B4D [0x00] END_REQSTACK()
```
