# Event 27

## Metadata

| Field           | Value    |
|-----------------|----------|
| Event Index     | 3/71     |
| Offset          | 0x0030   |
| Data Size       | 47 bytes |
| Calculated Size | 47 bytes |
| Instructions    | 11       |

```
      00 01 02 03 04 05 06 07  08 09 0A 0B 0C 0D 0E 0F
      -- -- -- -- -- -- -- --  -- -- -- -- -- -- -- --
0030: 1E F0 FF FF 7F 6F 70 66  00 80 F8 FF FF 7F F8 FF  .....opf........
0040: FF 7F 74 6C 6B 30 1D 01  80 23 1D 03 80 23 66 00  ..tlk0...#...#f.
0050: 80 F8 FF FF 7F F8 FF FF  7F 74 6C 6B 31 21 00     .........tlk1!. 
```

## Opcodes

```
  0: 0x0030 [0x1E] EventEntity looks at LocalPlayer and starts talking
  1: 0x0035 [0x6F] WAIT_FRAME_DELAY: Yield until WaitTime reaches zero
  2: 0x0036 [0x70] WAIT_ENTITY_RENDER_FLAG: Wait while EventEntity->Render.Flags3 bit 2 is set (cancel turn if not)
  3: 0x0037 [0x66] LOAD_EXT_SCHEDULER_MAIN: Load scheduler "tlk0" with entities [EventEntity, EventEntity], work=39*
  4: 0x0046 [0x1D] PRINT_EVENT_MESSAGE(message_id=7299*)
    → "Welcome to the Celennia Memorial Library, an archive of everything related to Adoulin.\u007F1\u0000\u0007"
  5: 0x0049 [0x23] WAIT_FOR_DIALOG_INTERACTION
  6: 0x004A [0x1D] PRINT_EVENT_MESSAGE(message_id=7301*)
    → "The Scouts' Coalition is always adding to their stores of knowledge, so check back periodically to see if there's something new on which to feast your mind.\u007F1\u0000\u0007"
  7: 0x004D [0x23] WAIT_FOR_DIALOG_INTERACTION
  8: 0x004E [0x66] LOAD_EXT_SCHEDULER_MAIN: Load scheduler "tlk1" with entities [EventEntity, EventEntity], work=39*
  9: 0x005D [0x21] END_EVENT
 10: 0x005E [0x00] END_REQSTACK()
```
