# Event 404

## Metadata

| Field           | Value    |
|-----------------|----------|
| Event Index     | 5/8      |
| Offset          | 0x00F4   |
| Data Size       | 37 bytes |
| Calculated Size | 37 bytes |
| Instructions    | 13       |

```
      00 01 02 03 04 05 06 07  08 09 0A 0B 0C 0D 0E 0F
      -- -- -- -- -- -- -- --  -- -- -- -- -- -- -- --
00F0:             42 1E F0 FF  FF 7F 6F 70 1D 13 80 23      B.....op...#
0100: 66 02 80 F8 FF FF 7F F8  FF FF 7F 70 61 73 30 1D  f..........pas0.
0110: 14 80 23 1D 12 80 23 21  00                       ..#...#!.       
```

## Opcodes

```
  0: 0x00F4 [0x42] SET_CLI_EVENT_CANCEL_DATA()
  1: 0x00F5 [0x1E] EventEntity looks at LocalPlayer and starts talking
  2: 0x00FA [0x6F] WAIT_FRAME_DELAY: Yield until WaitTime reaches zero
  3: 0x00FB [0x70] WAIT_ENTITY_RENDER_FLAG: Wait while EventEntity->Render.Flags3 bit 2 is set (cancel turn if not)
  4: 0x00FC [0x1D] PRINT_EVENT_MESSAGE(message_id=8171*)
    → "The experiment was a failure!?\u0007You cannot be serious!\u007F1\u0000\u0007"
  5: 0x00FF [0x23] WAIT_FOR_DIALOG_INTERACTION
  6: 0x0100 [0x66] LOAD_EXT_SCHEDULER_MAIN: Load scheduler "pas0" with entities [EventEntity, EventEntity], work=20*
  7: 0x010F [0x1D] PRINT_EVENT_MESSAGE(message_id=8172*)
    → "Fortunately, I have a spare set of instruments.\u0007Take this, and do try to be more careful this time.\u007F1\u0000\u0007"
  8: 0x0112 [0x23] WAIT_FOR_DIALOG_INTERACTION
  9: 0x0113 [0x1D] PRINT_EVENT_MESSAGE(message_id=8164*)
    → "I await word of your success.\u0007Go in safety!\u007F1\u0000\u0007"
 10: 0x0116 [0x23] WAIT_FOR_DIALOG_INTERACTION
 11: 0x0117 [0x21] END_EVENT
 12: 0x0118 [0x00] END_REQSTACK()
```
