# Event 52

## Metadata

| Field           | Value    |
|-----------------|----------|
| Event Index     | 3/4      |
| Offset          | 0x0030   |
| Data Size       | 76 bytes |
| Calculated Size | 76 bytes |
| Instructions    | 13       |

```
      00 01 02 03 04 05 06 07  08 09 0A 0B 0C 0D 0E 0F
      -- -- -- -- -- -- -- --  -- -- -- -- -- -- -- --
0030: 20 01 42 CD 02 80 F0 FF  FF 7F F0 FF FF 7F 73 30   .B...........s0
0040: 30 30 01 80 1C 03 80 92  01 F0 FF FF 7F 1C 04 80  00..............
0050: 45 00 80 F0 FF FF 7F F0  FF FF 7F 66 64 6F 31 01  E..........fdo1.
0060: 80 55 00 80 F0 FF FF 7F  F0 FF FF 7F 66 64 6F 31  .U..........fdo1
0070: 03 05 10 05 80 1A C8 00  20 00 21 00              ........ .!.    
```

## Opcodes

```
  0: 0x0030 [0x20] SET_CLI_EVENT_UC_FLAG: Lock player control
  1: 0x0032 [0x42] SET_CLI_EVENT_CANCEL_DATA()
  2: 0x0033 [0xCD] LOAD_SCHEDULED_TASK_ALT4: Load scheduler "s000" with entities [LocalPlayer, LocalPlayer], work=[194*, 0*]
  3: 0x0044 [0x1C] WAIT(45* ticks)
  4: 0x0047 [0x92] LocalPlayer->Render.Flags3 ^= 0x01
  5: 0x004D [0x1C] WAIT(105* ticks)
  6: 0x0050 [0x45] LOAD_SCHEDULED_TASK: Load scheduler "fdo1" with entities [LocalPlayer, LocalPlayer], work=[200*, 0*]
  7: 0x0061 [0x55] WAIT_LOAD_SCHEDULER: Wait for scheduler "fdo1" with entities [LocalPlayer, LocalPlayer], work=200*
  8: 0x0070 [0x03] Work_Zone[5] = 1*
  9: 0x0075 [0x1A] CALL_SUBROUTINE(address=0x00C8)
 10: 0x0078 [0x20] SET_CLI_EVENT_UC_FLAG: Unlock player control
 11: 0x007A [0x21] END_EVENT
 12: 0x007B [0x00] END_REQSTACK()
```
