# Event 148

## Metadata

| Field           | Value    |
|-----------------|----------|
| Event Index     | 16/27    |
| Offset          | 0x0399   |
| Data Size       | 41 bytes |
| Calculated Size | 41 bytes |
| Instructions    | 11       |

```
      00 01 02 03 04 05 06 07  08 09 0A 0B 0C 0D 0E 0F
      -- -- -- -- -- -- -- --  -- -- -- -- -- -- -- --
0390:                             42 4A F0 FF FF 7F 59           BJ....Y
03A0: 70 0F 01 1C 10 80 1E F0  FF FF 7F 03 02 10 43 80  p.............C.
03B0: 2B 59 70 0F 01 44 80 23  2B 59 70 0F 01 45 80 23  +Yp..D.#+Yp..E.#
03C0: 21 00                                             !.              
```

## Opcodes

```
  0: 0x0399 [0x42] SET_CLI_EVENT_CANCEL_DATA()
  1: 0x039A [0x4A] LocalPlayer looks at Quwi Orihbhe (ID: 17789017/0x010F7059)
  2: 0x03A3 [0x1C] WAIT(20* ticks)
  3: 0x03A6 [0x1E] EventEntity looks at LocalPlayer and starts talking
  4: 0x03AB [0x03] Work_Zone[2] = 5940*
  5: 0x03B0 [0x2B] Quwi Orihbhe (ID: 17789017/0x010F7059) [11655*]:
    → "Yay!\u0007How did you know I love \u0001\u0005%\u0002\u0000\u0000\u0000? Can you rrread minds, too?\u007F1\u0000\u0007"
  6: 0x03B7 [0x23] WAIT_FOR_DIALOG_INTERACTION
  7: 0x03B8 [0x2B] Quwi Orihbhe (ID: 17789017/0x010F7059) [11656*]:
    → "My sincerrrest apologies, \u0008!\u0007I prrredict you're getting hungry watching me eat. Here, have this.\u007F1\u0000\u0007"
  8: 0x03BF [0x23] WAIT_FOR_DIALOG_INTERACTION
  9: 0x03C0 [0x21] END_EVENT
 10: 0x03C1 [0x00] END_REQSTACK()
```
