# Event 150

## Metadata

| Field           | Value    |
|-----------------|----------|
| Event Index     | 18/27    |
| Offset          | 0x03E3   |
| Data Size       | 29 bytes |
| Calculated Size | 29 bytes |
| Instructions    | 13       |

```
      00 01 02 03 04 05 06 07  08 09 0A 0B 0C 0D 0E 0F
      -- -- -- -- -- -- -- --  -- -- -- -- -- -- -- --
03E0:          42 1E F0 FF FF  7F 1D 46 80 23 1D 47 80     B......F.#.G.
03F0: 23 1D 48 80 23 1D 49 80  23 03 01 10 01 80 21 00  #.H.#.I.#.....!.
```

## Opcodes

```
  0: 0x03E3 [0x42] SET_CLI_EVENT_CANCEL_DATA()
  1: 0x03E4 [0x1E] EventEntity looks at LocalPlayer and starts talking
  2: 0x03E9 [0x1D] PRINT_EVENT_MESSAGE(message_id=11657*)
    → "Yes...everything is as forrreseen. Your arrival here was no accident.\u007F1\u0000\u0007"
  3: 0x03EC [0x23] WAIT_FOR_DIALOG_INTERACTION
  4: 0x03ED [0x1D] PRINT_EVENT_MESSAGE(message_id=11658*)
    → "And I know what you are going to tell me--Anastase wants a rrreport. Tell him that I will contact him once I have better results.\u007F1\u0000\u0007"
  5: 0x03F0 [0x23] WAIT_FOR_DIALOG_INTERACTION
  6: 0x03F1 [0x1D] PRINT_EVENT_MESSAGE(message_id=11659*)
    → "You brought some Adoulin cuisine for me? This was certainly unexpec--I mean, well within the rrrealm of the predictable.\u007F1\u0000\u0007"
  7: 0x03F4 [0x23] WAIT_FOR_DIALOG_INTERACTION
  8: 0x03F5 [0x1D] PRINT_EVENT_MESSAGE(message_id=11660*)
    → "My whiskerrrs are just quivering with anticipation! Thank you very much!\u007F1\u0000\u0007"
  9: 0x03F8 [0x23] WAIT_FOR_DIALOG_INTERACTION
 10: 0x03F9 [0x03] Work_Zone[1] = 1*
 11: 0x03FE [0x21] END_EVENT
 12: 0x03FF [0x00] END_REQSTACK()
```
