# Event 65535

## Metadata

| Field           | Value    |
|-----------------|----------|
| Event Index     | 6/27     |
| Offset          | 0x00E8   |
| Data Size       | 65 bytes |
| Calculated Size | 65 bytes |
| Instructions    | 8        |

```
      00 01 02 03 04 05 06 07  08 09 0A 0B 0C 0D 0E 0F
      -- -- -- -- -- -- -- --  -- -- -- -- -- -- -- --
00E0:                          BA F8 FF FF 7F 15 80 16          ........
00F0: 80 17 80 0E 80 80 F8 FF  FF 7F 03 00 00 07 7F 1A  ................
0100: 01 00 66 01 00 F8 FF FF  7F F8 FF FF 7F 73 68 61  ..f..........sha
0110: 30 53 F8 FF FF 7F F8 FF  FF 7F 73 68 61 30 79 02  0S........sha0y.
0120: F8 FF FF 7F 18 80 0E 80  00                       .........       
```

## Opcodes

```
  0: 0x00E8 [0xBA] SET_ENTITY_POSITION(entity_id=EventEntity, pos_x=14.759*, pos_z=8.250*, pos_y=7.999*, direction=0.0°*)
  1: 0x00F5 [0x80] LOAD_WAIT(entity=EventEntity)
  2: 0x00FA [0x03] ExtData[1]->WorkLocal[0] = Entity->Race
  3: 0x00FF [0x1A] CALL_SUBROUTINE(address=0x0001)
  4: 0x0102 [0x66] LOAD_EXT_SCHEDULER_MAIN: Load scheduler "sha0" with entities [EventEntity, EventEntity], work=ExtData[1]->WorkLocal[1]
  5: 0x0111 [0x53] WAIT_SCHEDULER_TASK: Wait for scheduler "sha0" with entities [EventEntity, EventEntity]
  6: 0x011E [0x79] EventEntity looks at Unknown NPC (ID: 2148433944/0x800E8018) (Direct axis set)
  7: 0x0128 [0x00] END_REQSTACK()
```
