# Event 65535

## Metadata

| Field           | Value    |
|-----------------|----------|
| Event Index     | 22/23    |
| Offset          | 0x00CB   |
| Data Size       | 60 bytes |
| Calculated Size | 60 bytes |
| Instructions    | 12       |

```
      00 01 02 03 04 05 06 07  08 09 0A 0B 0C 0D 0E 0F
      -- -- -- -- -- -- -- --  -- -- -- -- -- -- -- --
00C0:                                   32 16 80 5A 00             2..Z.
00D0: 17 80 18 80 19 80 5A 01  1C 1A 80 4B F8 FF FF 7F  ......Z....K....
00E0: 1B 80 1C 1C 80 4B F8 FF  FF 7F 1D 80 1C 1E 80 1E  .....K..........
00F0: 24 12 02 01 1C 1F 80 5B  09 80 20 12 02 01 20 12  $......[.. ... .
0100: 02 01 77 61 69 30 00                              ..wai0.         
```

## Opcodes

```
  0: 0x00CB [0x32] ExtData[1]->MainSpeed = 40* * 0.1
  1: 0x00CE [0x5A] UPDATE_EVENT_POSITION: Set EventEntity MovePosition to X=0.821*, Z=-519.131*, Y=-4.159*
  2: 0x00D6 [0x5A] UPDATE_EVENT_POSITION: Move EventEntity incrementally towards MovePosition
  3: 0x00D8 [0x1C] WAIT(30* ticks)
  4: 0x00DB [0x4B] UPDATE_ENTITY_YAW(entity=EventEntity, yaw=6.59°*)
  5: 0x00E2 [0x1C] WAIT(100* ticks)
  6: 0x00E5 [0x4B] UPDATE_ENTITY_YAW(entity=EventEntity, yaw=14.83°*)
  7: 0x00EC [0x1C] WAIT(45* ticks)
  8: 0x00EF [0x1E] EventEntity looks at Promathia (ID: 16912932/0x01021224) and starts talking
  9: 0x00F4 [0x1C] WAIT(15* ticks)
 10: 0x00F7 [0x5B] LOAD_EXT_SCHEDULER(work_offset=337*, entity1=Cherukiki (ID: 16912928/0x01021220), entity2=Cherukiki (ID: 16912928/0x01021220), action="wai0")
 11: 0x0106 [0x00] END_REQSTACK()
```
