# Event 444

## Metadata

| Field           | Value    |
|-----------------|----------|
| Event Index     | 61/71    |
| Offset          | 0x0BB5   |
| Data Size       | 33 bytes |
| Calculated Size | 33 bytes |
| Instructions    | 12       |

```
      00 01 02 03 04 05 06 07  08 09 0A 0B 0C 0D 0E 0F
      -- -- -- -- -- -- -- --  -- -- -- -- -- -- -- --
0BB0:                1E F0 FF  FF 7F 6F 70 29 08 35 E0       .....op).5.
0BC0: 0E 01 01 1D 5F 80 23 1D  60 80 23 29 08 35 E0 0E  ...._.#.`.#).5..
0BD0: 01 02 20 00 21 00                                 .. .!.          
```

## Opcodes

```
  0: 0x0BB5 [0x1E] EventEntity looks at LocalPlayer and starts talking
  1: 0x0BBA [0x6F] WAIT_FRAME_DELAY: Yield until WaitTime reaches zero
  2: 0x0BBB [0x70] WAIT_ENTITY_RENDER_FLAG: Wait while EventEntity->Render.Flags3 bit 2 is set (cancel turn if not)
  3: 0x0BBC [0x29] REQ_SET_WAIT(priority=0x08, entity_id=Moreno-Toeno (ID: 17752117/0x010EE035), tag_num=0x01)
  4: 0x0BC3 [0x1D] PRINT_EVENT_MESSAGE(message_id=8388*)
    → "What kind of person would pilfer Ms. Fuepepe's papers?\u007F1\u0000\u0007"
  5: 0x0BC6 [0x23] WAIT_FOR_DIALOG_INTERACTION
  6: 0x0BC7 [0x1D] PRINT_EVENT_MESSAGE(message_id=8389*)
    → "What would anyone want with them?\u007F1\u0000\u0007"
  7: 0x0BCA [0x23] WAIT_FOR_DIALOG_INTERACTION
  8: 0x0BCB [0x29] REQ_SET_WAIT(priority=0x08, entity_id=Moreno-Toeno (ID: 17752117/0x010EE035), tag_num=0x02)
  9: 0x0BD2 [0x20] SET_CLI_EVENT_UC_FLAG: Unlock player control
 10: 0x0BD4 [0x21] END_EVENT
 11: 0x0BD5 [0x00] END_REQSTACK()
```
