# Event 65535

## Metadata

| Field           | Value    |
|-----------------|----------|
| Event Index     | 26/71    |
| Offset          | 0x0335   |
| Data Size       | 37 bytes |
| Calculated Size | 37 bytes |
| Instructions    | 9        |

```
      00 01 02 03 04 05 06 07  08 09 0A 0B 0C 0D 0E 0F
      -- -- -- -- -- -- -- --  -- -- -- -- -- -- -- --
0330:                29 08 35  E0 0E 01 07 1D 19 80 23       ).5.......#
0340: 29 08 35 E0 0E 01 08 29  08 35 E0 0E 01 01 1D 1A  ).5....).5......
0350: 80 23 29 08 35 E0 0E 01  02 00                    .#).5.....      
```

## Opcodes

```
  0: 0x0335 [0x29] REQ_SET_WAIT(priority=0x08, entity_id=Moreno-Toeno (ID: 17752117/0x010EE035), tag_num=0x07)
  1: 0x033C [0x1D] PRINT_EVENT_MESSAGE(message_id=7734*)
    → "You're expecting an elementary exam, except at the School of Magic it is an enormous event that affects the educatees' enlightened existence and so we extoll excruciating exactness.\u007F1\u0000\u0007"
  2: 0x033F [0x23] WAIT_FOR_DIALOG_INTERACTION
  3: 0x0340 [0x29] REQ_SET_WAIT(priority=0x08, entity_id=Moreno-Toeno (ID: 17752117/0x010EE035), tag_num=0x08)
  4: 0x0347 [0x29] REQ_SET_WAIT(priority=0x08, entity_id=Moreno-Toeno (ID: 17752117/0x010EE035), tag_num=0x01)
  5: 0x034E [0x1D] PRINT_EVENT_MESSAGE(message_id=7735*)
    → "First, fine friend, find out how ferociously fierce the foes are in the field where the skills test is being formulated.\u007F1\u0000\u0007"
  6: 0x0351 [0x23] WAIT_FOR_DIALOG_INTERACTION
  7: 0x0352 [0x29] REQ_SET_WAIT(priority=0x08, entity_id=Moreno-Toeno (ID: 17752117/0x010EE035), tag_num=0x02)
  8: 0x0359 [0x00] END_REQSTACK()
```
