# Event 619

## Metadata

| Field           | Value    |
|-----------------|----------|
| Event Index     | 3/4      |
| Offset          | 0x004A   |
| Data Size       | 59 bytes |
| Calculated Size | 59 bytes |
| Instructions    | 11       |

```
      00 01 02 03 04 05 06 07  08 09 0A 0B 0C 0D 0E 0F
      -- -- -- -- -- -- -- --  -- -- -- -- -- -- -- --
0040:                                1E F0 FF FF 7F 6F            .....o
0050: 70 66 00 80 F8 FF FF 7F  F8 FF FF 7F 74 6C 6B 31  pf..........tlk1
0060: 1D 05 80 23 66 00 80 F8  FF FF 7F F8 FF FF 7F 74  ...#f..........t
0070: 65 6E 31 53 F8 FF FF 7F  F8 FF FF 7F 74 65 6E 31  en1S........ten1
0080: 1C 02 80 21 00                                    ...!.           
```

## Opcodes

```
  0: 0x004A [0x1E] EventEntity looks at LocalPlayer and starts talking
  1: 0x004F [0x6F] WAIT_FRAME_DELAY: Yield until WaitTime reaches zero
  2: 0x0050 [0x70] WAIT_ENTITY_RENDER_FLAG: Wait while EventEntity->Render.Flags3 bit 2 is set (cancel turn if not)
  3: 0x0051 [0x66] LOAD_EXT_SCHEDULER_MAIN: Load scheduler "tlk1" with entities [EventEntity, EventEntity], work=0*
  4: 0x0060 [0x1D] PRINT_EVENT_MESSAGE(message_id=8216*)
    → "Say, I found the examiner I was looking for! But he would only talk of taking up the sword. Why won't he test me?\u007F1\u0000\u0007"
  5: 0x0063 [0x23] WAIT_FOR_DIALOG_INTERACTION
  6: 0x0064 [0x66] LOAD_EXT_SCHEDULER_MAIN: Load scheduler "ten1" with entities [EventEntity, EventEntity], work=0*
  7: 0x0073 [0x53] WAIT_SCHEDULER_TASK: Wait for scheduler "ten1" with entities [EventEntity, EventEntity]
  8: 0x0080 [0x1C] WAIT(30* ticks)
  9: 0x0083 [0x21] END_EVENT
 10: 0x0084 [0x00] END_REQSTACK()
```
