# Event 620

## Metadata

| Field           | Value    |
|-----------------|----------|
| Event Index     | 4/4      |
| Offset          | 0x0085   |
| Data Size       | 64 bytes |
| Calculated Size | 64 bytes |
| Instructions    | 12       |

```
      00 01 02 03 04 05 06 07  08 09 0A 0B 0C 0D 0E 0F
      -- -- -- -- -- -- -- --  -- -- -- -- -- -- -- --
0080:                1E F0 FF  FF 7F 6F 70 66 00 80 F8       .....opf...
0090: FF FF 7F F8 FF FF 7F 74  6C 6B 30 03 02 10 06 80  .......tlk0.....
00A0: 1D 07 80 23 66 00 80 F8  FF FF 7F F8 FF FF 7F 74  ...#f..........t
00B0: 65 6E 30 53 F8 FF FF 7F  F8 FF FF 7F 74 65 6E 30  en0S........ten0
00C0: 1C 02 80 21 00                                    ...!.           
```

## Opcodes

```
  0: 0x0085 [0x1E] EventEntity looks at LocalPlayer and starts talking
  1: 0x008A [0x6F] WAIT_FRAME_DELAY: Yield until WaitTime reaches zero
  2: 0x008B [0x70] WAIT_ENTITY_RENDER_FLAG: Wait while EventEntity->Render.Flags3 bit 2 is set (cancel turn if not)
  3: 0x008C [0x66] LOAD_EXT_SCHEDULER_MAIN(work_offset=0*, entity1=EventEntity, entity2=EventEntity, action="tlk0")
  4: 0x009B [0x03] Work_Zone[2] = 940*
  5: 0x00A0 [0x1D] PRINT_EVENT_MESSAGE(message_id=8217*)
    → "The examiner finally offered me a task. He wants \u0001\u0001\u0001 \u0001\u0005$\u0002\u0000\u0000\u0000, but he won't tell me how to get one! Keeps saying I should use my head...\u007F1\u0000\u0007"
  6: 0x00A3 [0x23] WAIT_FOR_DIALOG_INTERACTION
  7: 0x00A4 [0x66] LOAD_EXT_SCHEDULER_MAIN(work_offset=0*, entity1=EventEntity, entity2=EventEntity, action="ten0")
  8: 0x00B3 [0x53] WAIT_SCHEDULER_TASK(entity1=EventEntity, entity2=EventEntity, action_id="ten0")
  9: 0x00C0 [0x1C] WAIT(30* ticks)
 10: 0x00C3 [0x21] END_EVENT
 11: 0x00C4 [0x00] END_REQSTACK()
```
