# Event 65535

## Metadata

| Field           | Value    |
|-----------------|----------|
| Event Index     | 17/33    |
| Offset          | 0x0045   |
| Data Size       | 80 bytes |
| Calculated Size | 80 bytes |
| Instructions    | 10       |

```
      00 01 02 03 04 05 06 07  08 09 0A 0B 0C 0D 0E 0F
      -- -- -- -- -- -- -- --  -- -- -- -- -- -- -- --
0040:                1C 06 80  4A F0 FF FF 7F E3 80 04       ...J.......
0050: 01 9F 07 80 E3 80 04 01  E3 80 04 01 6D 61 69 6E  ............main
0060: 01 80 1C 06 80 27 10 F0  FF FF 7F 47 9F 07 80 E4  .....'.....G....
0070: 80 04 01 E4 80 04 01 6D  61 69 6E 01 80 1C 06 80  .......main.....
0080: 9F 07 80 E5 80 04 01 E5  80 04 01 6D 61 69 6E 01  ...........main.
0090: 80 1C 06 80 00                                    .....           
```

## Opcodes

```
  0: 0x0045 [0x1C] WAIT(30* ticks)
  1: 0x0048 [0x4A] LocalPlayer looks at Unnamed NPC (ID: 17072355/0x010480E3)
  2: 0x0051 [0x9F] LOAD_SCHEDULED_TASK_ALT: Load scheduler "main" with entities [Unnamed NPC (ID: 17072355/0x010480E3), Unnamed NPC (ID: 17072355/0x010480E3)], work=[231*, 0*]
  3: 0x0062 [0x1C] WAIT(30* ticks)
  4: 0x0065 [0x27] REQ_SET(priority=0x10, entity_id=LocalPlayer, tag_num=0x47)
  5: 0x006C [0x9F] LOAD_SCHEDULED_TASK_ALT: Load scheduler "main" with entities [Unnamed NPC (ID: 17072356/0x010480E4), Unnamed NPC (ID: 17072356/0x010480E4)], work=[231*, 0*]
  6: 0x007D [0x1C] WAIT(30* ticks)
  7: 0x0080 [0x9F] LOAD_SCHEDULED_TASK_ALT: Load scheduler "main" with entities [Unnamed NPC (ID: 17072357/0x010480E5), Unnamed NPC (ID: 17072357/0x010480E5)], work=[231*, 0*]
  8: 0x0091 [0x1C] WAIT(30* ticks)
  9: 0x0094 [0x00] END_REQSTACK()
```
