# 17465554

## Common Data

| Field            | Value                        |
|------------------|------------------------------|
| Zone             | Chamber of Oracles (ID: 168) |
| Block Size       | 1576 bytes                   |
| Total Events     | 10                           |
| References Count | 12                           |

## List of Events

| Event ID                 | Entrypoint   |   Size |   Instructions |
|--------------------------|--------------|--------|----------------|
| [65535](#event-65535)    | 0x0000       |      1 |              1 |
| [0](#event-0)            | 0x0001       |      7 |              2 |
| [1](#event-1)            | 0x0008       |      7 |              2 |
| [65535.1](#event-655351) | 0x000F       |    358 |             36 |
| [65535.2](#event-655352) | 0x0175       |     72 |              6 |
| [65535.3](#event-655353) | 0x01BD       |     37 |              5 |
| [65535.4](#event-655354) | 0x01E2       |     83 |              9 |
| [65535.5](#event-655355) | 0x0235       |     83 |              9 |
| [65535.6](#event-655356) | 0x0288       |     83 |              9 |
| [65535.7](#event-655357) | 0x02DB       |    740 |             70 |

## DAT References (imed_data)

|   Index | Hex Value   |   Dec Value |
|---------|-------------|-------------|
|       0 | 0x0044      |          68 |
|       1 | 0x0000      |           0 |
|       2 | 0x00C8      |         200 |
|       3 | 0x002D      |          45 |
|       4 | 0x0001      |           1 |
|       5 | 0x0195      |         405 |
|       6 | 0x000F      |          15 |
|       7 | 0x00B4      |         180 |
|       8 | 0x00C9      |         201 |
|       9 | 0x0002      |           2 |
|      10 | 0x001E      |          30 |
|      11 | 0x00D7      |         215 |

## Events

### Event 65535

#### Metadata

| Field        | Value   |
|--------------|---------|
| Entrypoint   | 0x0000  |
| Data Size    | 1 bytes |
| Instructions | 1       |

```
      00 01 02 03 04 05 06 07  08 09 0A 0B 0C 0D 0E 0F
      -- -- -- -- -- -- -- --  -- -- -- -- -- -- -- --
0000: 00                                                .               
```

#### Opcodes

```
  0: 0x0000 [0x00] END_REQSTACK()
```

### Event 0

#### Metadata

| Field        | Value   |
|--------------|---------|
| Entrypoint   | 0x0001  |
| Data Size    | 7 bytes |
| Instructions | 2       |

```
      00 01 02 03 04 05 06 07  08 09 0A 0B 0C 0D 0E 0F
      -- -- -- -- -- -- -- --  -- -- -- -- -- -- -- --
0000:    2F 00 F8 FF FF 7F 00                            /......        
```

#### Opcodes

```
  0: 0x0001 [0x2F] EventEntity->Render.Flags0 &= ~0x80000 // Bit 19
  1: 0x0007 [0x00] END_REQSTACK()
```

### Event 1

#### Metadata

| Field        | Value   |
|--------------|---------|
| Entrypoint   | 0x0008  |
| Data Size    | 7 bytes |
| Instructions | 2       |

```
      00 01 02 03 04 05 06 07  08 09 0A 0B 0C 0D 0E 0F
      -- -- -- -- -- -- -- --  -- -- -- -- -- -- -- --
0000:                          2F 00 F8 FF FF 7F 00             /...... 
```

#### Opcodes

```
  0: 0x0008 [0x2F] EventEntity->Render.Flags0 &= ~0x80000 // Bit 19
  1: 0x000E [0x00] END_REQSTACK()
```

### Event 65535.1

#### Metadata

| Field        | Value     |
|--------------|-----------|
| Entrypoint   | 0x000F    |
| Data Size    | 358 bytes |
| Instructions | 36        |

```
      00 01 02 03 04 05 06 07  08 09 0A 0B 0C 0D 0E 0F
      -- -- -- -- -- -- -- --  -- -- -- -- -- -- -- --
0000:                                               27                 '
0010: 10 D1 80 0A 01 03 45 00  80 F0 FF FF 7F F0 FF FF  ......E.........
0020: 7F 73 67 30 31 01 80 55  00 80 F0 FF FF 7F F0 FF  .sg01..U........
0030: FF 7F 73 67 30 31 45 02  80 F0 FF FF 7F F0 FF FF  ..sg01E.........
0040: 7F 6F 76 6C 31 01 80 45  00 80 F0 FF FF 7F F0 FF  .ovl1..E........
0050: FF 7F 73 67 32 34 01 80  2A 10 D1 80 0A 01 1C 03  ..sg24..*.......
0060: 80 1A 4F 03 2D F0 FF FF  7F F0 FF FF 7F 64 69 6B  ..O.-........dik
0070: 69 52 00 80 F0 FF FF 7F  F0 FF FF 7F 73 67 32 34  iR..........sg24
0080: 1C 04 80 27 10 C9 80 0A  01 04 27 10 CD 80 0A 01  ...'......'.....
0090: 04 45 00 80 F0 FF FF 7F  F0 FF FF 7F 73 61 6C 31  .E..........sal1
00A0: 01 80 1C 03 80 45 00 80  F0 FF FF 7F F0 FF FF 7F  .....E..........
00B0: 73 67 30 33 01 80 27 10  D1 80 0A 01 04 1A 2E 03  sg03..'.........
00C0: 2A 10 D1 80 0A 01 27 10  F0 FF FF 7F 04 2D F0 FF  *.....'......-..
00D0: FF 7F F0 FF FF 7F 68 32  31 37 2D F0 FF FF 7F F0  ......h217-.....
00E0: FF FF 7F 6D 63 61 31 1C  05 80 45 02 80 F0 FF FF  ...mca1...E.....
00F0: 7F F0 FF FF 7F 6F 76 6C  31 01 80 45 00 80 D3 80  .....ovl1..E....
0100: 0A 01 D3 80 0A 01 73 32  31 38 01 80 52 00 80 F0  ......s218..R...
0110: FF FF 7F F0 FF FF 7F 73  67 30 33 45 00 80 F0 FF  .......sg03E....
0120: FF 7F F0 FF FF 7F 73 67  30 34 01 80 55 00 80 F0  ......sg04..U...
0130: FF FF 7F F0 FF FF 7F 73  67 30 34 1C 06 80 1A D3  .......sg04.....
0140: 03 1C 06 80 2D F0 FF FF  7F F0 FF FF 7F 32 31 39  ....-........219
0150: 73 45 00 80 F0 FF FF 7F  F0 FF FF 7F 73 67 30 37  sE..........sg07
0160: 01 80 1A B2 03 55 00 80  F0 FF FF 7F F0 FF FF 7F  .....U..........
0170: 73 67 30 37 00                                    sg07.           
```

#### Opcodes

```
  0: 0x000F [0x27] REQ_SET(priority=0x10, entity_id=Unnamed NPC (ID: 17465553/0x010A80D1), tag_num=0x03)
  1: 0x0016 [0x45] LOAD_SCHEDULED_TASK: Load scheduler "sg01" with entities [LocalPlayer, LocalPlayer], work=[68*, 0*]
  2: 0x0027 [0x55] WAIT_LOAD_SCHEDULER: Wait for scheduler "sg01" with entities [LocalPlayer, LocalPlayer], work=68*
  3: 0x0036 [0x45] LOAD_SCHEDULED_TASK: Load scheduler "ovl1" with entities [LocalPlayer, LocalPlayer], work=[200*, 0*]
  4: 0x0047 [0x45] LOAD_SCHEDULED_TASK: Load scheduler "sg24" with entities [LocalPlayer, LocalPlayer], work=[68*, 0*]
  5: 0x0058 [0x2A] GET_REQ_LEVEL(level=16, entity_id=Unnamed NPC (ID: 17465553/0x010A80D1))
  6: 0x005E [0x1C] WAIT(45* ticks)
  7: 0x0061 [0x1A] CALL_SUBROUTINE(address=0x034F)
  8: 0x0064 [0x2D] CREATE_ZONE_SCHEDULER_TASK: Create scheduler "diki" with entities [LocalPlayer, LocalPlayer]
  9: 0x0071 [0x52] END_LOAD_SCHEDULER: End scheduler "sg24" with entities [LocalPlayer, LocalPlayer], work=68*
 10: 0x0080 [0x1C] WAIT(1* ticks)
 11: 0x0083 [0x27] REQ_SET(priority=0x10, entity_id=Pedestal of Fire (ID: 17465545/0x010A80C9), tag_num=0x04)
 12: 0x008A [0x27] REQ_SET(priority=0x10, entity_id=Pedestal of Water (ID: 17465549/0x010A80CD), tag_num=0x04)
 13: 0x0091 [0x45] LOAD_SCHEDULED_TASK: Load scheduler "sal1" with entities [LocalPlayer, LocalPlayer], work=[68*, 0*]
 14: 0x00A2 [0x1C] WAIT(45* ticks)
 15: 0x00A5 [0x45] LOAD_SCHEDULED_TASK: Load scheduler "sg03" with entities [LocalPlayer, LocalPlayer], work=[68*, 0*]
 16: 0x00B6 [0x27] REQ_SET(priority=0x10, entity_id=Unnamed NPC (ID: 17465553/0x010A80D1), tag_num=0x04)
 17: 0x00BD [0x1A] CALL_SUBROUTINE(address=0x032E)
 18: 0x00C0 [0x2A] GET_REQ_LEVEL(level=16, entity_id=Unnamed NPC (ID: 17465553/0x010A80D1))
 19: 0x00C6 [0x27] REQ_SET(priority=0x10, entity_id=LocalPlayer, tag_num=0x04)
 20: 0x00CD [0x2D] CREATE_ZONE_SCHEDULER_TASK: Create scheduler "h217" with entities [LocalPlayer, LocalPlayer]
 21: 0x00DA [0x2D] CREATE_ZONE_SCHEDULER_TASK: Create scheduler "mca1" with entities [LocalPlayer, LocalPlayer]
 22: 0x00E7 [0x1C] WAIT(405* ticks)
 23: 0x00EA [0x45] LOAD_SCHEDULED_TASK: Load scheduler "ovl1" with entities [LocalPlayer, LocalPlayer], work=[200*, 0*]
 24: 0x00FB [0x45] LOAD_SCHEDULED_TASK: Load scheduler "s218" with entities [Unnamed NPC (ID: 17465555/0x010A80D3), Unnamed NPC (ID: 17465555/0x010A80D3)], work=[68*, 0*]
 25: 0x010C [0x52] END_LOAD_SCHEDULER: End scheduler "sg03" with entities [LocalPlayer, LocalPlayer], work=68*
 26: 0x011B [0x45] LOAD_SCHEDULED_TASK: Load scheduler "sg04" with entities [LocalPlayer, LocalPlayer], work=[68*, 0*]
 27: 0x012C [0x55] WAIT_LOAD_SCHEDULER: Wait for scheduler "sg04" with entities [LocalPlayer, LocalPlayer], work=68*
 28: 0x013B [0x1C] WAIT(15* ticks)
 29: 0x013E [0x1A] CALL_SUBROUTINE(address=0x03D3)
 30: 0x0141 [0x1C] WAIT(15* ticks)
 31: 0x0144 [0x2D] CREATE_ZONE_SCHEDULER_TASK: Create scheduler "219s" with entities [LocalPlayer, LocalPlayer]
 32: 0x0151 [0x45] LOAD_SCHEDULED_TASK: Load scheduler "sg07" with entities [LocalPlayer, LocalPlayer], work=[68*, 0*]
 33: 0x0162 [0x1A] CALL_SUBROUTINE(address=0x03B2)
 34: 0x0165 [0x55] WAIT_LOAD_SCHEDULER: Wait for scheduler "sg07" with entities [LocalPlayer, LocalPlayer], work=68*
 35: 0x0174 [0x00] END_REQSTACK()
```

### Event 65535.2

#### Metadata

| Field        | Value    |
|--------------|----------|
| Entrypoint   | 0x0175   |
| Data Size    | 72 bytes |
| Instructions | 6        |

```
      00 01 02 03 04 05 06 07  08 09 0A 0B 0C 0D 0E 0F
      -- -- -- -- -- -- -- --  -- -- -- -- -- -- -- --
0170:                45 00 80  F0 FF FF 7F F0 FF FF 7F       E..........
0180: 73 67 30 35 01 80 27 10  D1 80 0A 01 05 55 00 80  sg05..'......U..
0190: F0 FF FF 7F F0 FF FF 7F  73 67 30 35 45 00 80 F0  ........sg05E...
01A0: FF FF 7F F0 FF FF 7F 73  67 30 36 01 80 55 00 80  .......sg06..U..
01B0: F0 FF FF 7F F0 FF FF 7F  73 67 30 36 00           ........sg06.   
```

#### Opcodes

```
  0: 0x0175 [0x45] LOAD_SCHEDULED_TASK: Load scheduler "sg05" with entities [LocalPlayer, LocalPlayer], work=[68*, 0*]
  1: 0x0186 [0x27] REQ_SET(priority=0x10, entity_id=Unnamed NPC (ID: 17465553/0x010A80D1), tag_num=0x05)
  2: 0x018D [0x55] WAIT_LOAD_SCHEDULER: Wait for scheduler "sg05" with entities [LocalPlayer, LocalPlayer], work=68*
  3: 0x019C [0x45] LOAD_SCHEDULED_TASK: Load scheduler "sg06" with entities [LocalPlayer, LocalPlayer], work=[68*, 0*]
  4: 0x01AD [0x55] WAIT_LOAD_SCHEDULER: Wait for scheduler "sg06" with entities [LocalPlayer, LocalPlayer], work=68*
  5: 0x01BC [0x00] END_REQSTACK()
```

### Event 65535.3

#### Metadata

| Field        | Value    |
|--------------|----------|
| Entrypoint   | 0x01BD   |
| Data Size    | 37 bytes |
| Instructions | 5        |

```
      00 01 02 03 04 05 06 07  08 09 0A 0B 0C 0D 0E 0F
      -- -- -- -- -- -- -- --  -- -- -- -- -- -- -- --
01B0:                                         27 10 C0               '..
01C0: 80 0A 01 05 1C 07 80 2D  F0 FF FF 7F F0 FF FF 7F  .......-........
01D0: 32 32 31 69 2D F0 FF FF  7F F0 FF FF 7F 68 72 6D  221i-........hrm
01E0: 6B 00                                             k.              
```

#### Opcodes

```
  0: 0x01BD [0x27] REQ_SET(priority=0x10, entity_id=Illusory Image (ID: 17465536/0x010A80C0), tag_num=0x05)
  1: 0x01C4 [0x1C] WAIT(180* ticks)
  2: 0x01C7 [0x2D] CREATE_ZONE_SCHEDULER_TASK: Create scheduler "221i" with entities [LocalPlayer, LocalPlayer]
  3: 0x01D4 [0x2D] CREATE_ZONE_SCHEDULER_TASK: Create scheduler "hrmk" with entities [LocalPlayer, LocalPlayer]
  4: 0x01E1 [0x00] END_REQSTACK()
```

### Event 65535.4

#### Metadata

| Field        | Value    |
|--------------|----------|
| Entrypoint   | 0x01E2   |
| Data Size    | 83 bytes |
| Instructions | 9        |

```
      00 01 02 03 04 05 06 07  08 09 0A 0B 0C 0D 0E 0F
      -- -- -- -- -- -- -- --  -- -- -- -- -- -- -- --
01E0:       27 10 C1 80 0A 01  05 27 10 C3 80 0A 01 05    '......'......
01F0: 1C 07 80 2D F0 FF FF 7F  F0 FF FF 7F 32 32 31 61  ...-........221a
0200: 2D F0 FF FF 7F F0 FF FF  7F 32 32 31 65 2D F0 FF  -........221e-..
0210: FF 7F F0 FF FF 7F 68 72  61 6B 2D F0 FF FF 7F F0  ......hrak-.....
0220: FF FF 7F 6D 61 6B 69 2D  F0 FF FF 7F F0 FF FF 7F  ...maki-........
0230: 6D 61 6B 6D 00                                    makm.           
```

#### Opcodes

```
  0: 0x01E2 [0x27] REQ_SET(priority=0x10, entity_id=MaidenFire (ID: 17465537/0x010A80C1), tag_num=0x05)
  1: 0x01E9 [0x27] REQ_SET(priority=0x10, entity_id=MaidenIce (ID: 17465539/0x010A80C3), tag_num=0x05)
  2: 0x01F0 [0x1C] WAIT(180* ticks)
  3: 0x01F3 [0x2D] CREATE_ZONE_SCHEDULER_TASK: Create scheduler "221a" with entities [LocalPlayer, LocalPlayer]
  4: 0x0200 [0x2D] CREATE_ZONE_SCHEDULER_TASK: Create scheduler "221e" with entities [LocalPlayer, LocalPlayer]
  5: 0x020D [0x2D] CREATE_ZONE_SCHEDULER_TASK: Create scheduler "hrak" with entities [LocalPlayer, LocalPlayer]
  6: 0x021A [0x2D] CREATE_ZONE_SCHEDULER_TASK: Create scheduler "maki" with entities [LocalPlayer, LocalPlayer]
  7: 0x0227 [0x2D] CREATE_ZONE_SCHEDULER_TASK: Create scheduler "makm" with entities [LocalPlayer, LocalPlayer]
  8: 0x0234 [0x00] END_REQSTACK()
```

### Event 65535.5

#### Metadata

| Field        | Value    |
|--------------|----------|
| Entrypoint   | 0x0235   |
| Data Size    | 83 bytes |
| Instructions | 9        |

```
      00 01 02 03 04 05 06 07  08 09 0A 0B 0C 0D 0E 0F
      -- -- -- -- -- -- -- --  -- -- -- -- -- -- -- --
0230:                27 10 C5  80 0A 01 05 27 10 C6 80       '......'...
0240: 0A 01 05 1C 07 80 2D F0  FF FF 7F F0 FF FF 7F 32  ......-........2
0250: 32 31 62 2D F0 FF FF 7F  F0 FF FF 7F 32 32 31 66  21b-........221f
0260: 2D F0 FF FF 7F F0 FF FF  7F 68 72 62 6B 2D F0 FF  -........hrbk-..
0270: FF 7F F0 FF FF 7F 6D 62  6B 69 2D F0 FF FF 7F F0  ......mbki-.....
0280: FF FF 7F 6D 62 6B 6D 00                           ...mbkm.        
```

#### Opcodes

```
  0: 0x0235 [0x27] REQ_SET(priority=0x10, entity_id=MaidenWater (ID: 17465541/0x010A80C5), tag_num=0x05)
  1: 0x023C [0x27] REQ_SET(priority=0x10, entity_id=MaidenThunder (ID: 17465542/0x010A80C6), tag_num=0x05)
  2: 0x0243 [0x1C] WAIT(180* ticks)
  3: 0x0246 [0x2D] CREATE_ZONE_SCHEDULER_TASK: Create scheduler "221b" with entities [LocalPlayer, LocalPlayer]
  4: 0x0253 [0x2D] CREATE_ZONE_SCHEDULER_TASK: Create scheduler "221f" with entities [LocalPlayer, LocalPlayer]
  5: 0x0260 [0x2D] CREATE_ZONE_SCHEDULER_TASK: Create scheduler "hrbk" with entities [LocalPlayer, LocalPlayer]
  6: 0x026D [0x2D] CREATE_ZONE_SCHEDULER_TASK: Create scheduler "mbki" with entities [LocalPlayer, LocalPlayer]
  7: 0x027A [0x2D] CREATE_ZONE_SCHEDULER_TASK: Create scheduler "mbkm" with entities [LocalPlayer, LocalPlayer]
  8: 0x0287 [0x00] END_REQSTACK()
```

### Event 65535.6

#### Metadata

| Field        | Value    |
|--------------|----------|
| Entrypoint   | 0x0288   |
| Data Size    | 83 bytes |
| Instructions | 9        |

```
      00 01 02 03 04 05 06 07  08 09 0A 0B 0C 0D 0E 0F
      -- -- -- -- -- -- -- --  -- -- -- -- -- -- -- --
0280:                          27 10 C4 80 0A 01 05 27          '......'
0290: 10 C2 80 0A 01 05 1C 07  80 2D F0 FF FF 7F F0 FF  .........-......
02A0: FF 7F 32 32 31 63 2D F0  FF FF 7F F0 FF FF 7F 32  ..221c-........2
02B0: 32 31 67 2D F0 FF FF 7F  F0 FF FF 7F 68 72 63 6B  21g-........hrck
02C0: 2D F0 FF FF 7F F0 FF FF  7F 6D 63 6B 69 2D F0 FF  -........mcki-..
02D0: FF 7F F0 FF FF 7F 6D 63  6B 6D 00                 ......mckm.     
```

#### Opcodes

```
  0: 0x0288 [0x27] REQ_SET(priority=0x10, entity_id=MaidenWind (ID: 17465540/0x010A80C4), tag_num=0x05)
  1: 0x028F [0x27] REQ_SET(priority=0x10, entity_id=MaidenEarth (ID: 17465538/0x010A80C2), tag_num=0x05)
  2: 0x0296 [0x1C] WAIT(180* ticks)
  3: 0x0299 [0x2D] CREATE_ZONE_SCHEDULER_TASK: Create scheduler "221c" with entities [LocalPlayer, LocalPlayer]
  4: 0x02A6 [0x2D] CREATE_ZONE_SCHEDULER_TASK: Create scheduler "221g" with entities [LocalPlayer, LocalPlayer]
  5: 0x02B3 [0x2D] CREATE_ZONE_SCHEDULER_TASK: Create scheduler "hrck" with entities [LocalPlayer, LocalPlayer]
  6: 0x02C0 [0x2D] CREATE_ZONE_SCHEDULER_TASK: Create scheduler "mcki" with entities [LocalPlayer, LocalPlayer]
  7: 0x02CD [0x2D] CREATE_ZONE_SCHEDULER_TASK: Create scheduler "mckm" with entities [LocalPlayer, LocalPlayer]
  8: 0x02DA [0x00] END_REQSTACK()
```

### Event 65535.7

#### Metadata

| Field        | Value     |
|--------------|-----------|
| Entrypoint   | 0x02DB    |
| Data Size    | 740 bytes |
| Instructions | 9         |

```
      00 01 02 03 04 05 06 07  08 09 0A 0B 0C 0D 0E 0F
      -- -- -- -- -- -- -- --  -- -- -- -- -- -- -- --
02D0:                                   27 10 C7 80 0A             '....
02E0: 01 05 27 10 C8 80 0A 01  05 1C 07 80 2D F0 FF FF  ..'.........-...
02F0: 7F F0 FF FF 7F 32 32 31  64 2D F0 FF FF 7F F0 FF  .....221d-......
0300: FF 7F 32 32 31 68 2D F0  FF FF 7F F0 FF FF 7F 68  ..221h-........h
0310: 72 64 6B 2D F0 FF FF 7F  F0 FF FF 7F 6D 64 6B 69  rdk-........mdki
0320: 2D F0 FF FF 7F F0 FF FF  7F 6D 64 6B 6D 00 45 02  -........mdkm.E.
0330: 80 F0 FF FF 7F F0 FF FF  7F 66 64 69 30 01 80 55  .........fdi0..U
0340: 02 80 F0 FF FF 7F F0 FF  FF 7F 66 64 69 30 1B 45  ..........fdi0.E
0350: 02 80 F0 FF FF 7F F0 FF  FF 7F 66 64 6F 30 01 80  ..........fdo0..
0360: 55 02 80 F0 FF FF 7F F0  FF FF 7F 66 64 6F 30 1B  U..........fdo0.
0370: 45 02 80 F0 FF FF 7F F0  FF FF 7F 66 64 69 31 01  E..........fdi1.
0380: 80 55 02 80 F0 FF FF 7F  F0 FF FF 7F 66 64 69 31  .U..........fdi1
0390: 1B 45 02 80 F0 FF FF 7F  F0 FF FF 7F 66 64 6F 31  .E..........fdo1
03A0: 01 80 55 02 80 F0 FF FF  7F F0 FF FF 7F 66 64 6F  ..U..........fdo
03B0: 31 1B 45 08 80 F0 FF FF  7F F0 FF FF 7F 77 68 69  1.E..........whi
03C0: 31 01 80 55 08 80 F0 FF  FF 7F F0 FF FF 7F 77 68  1..U..........wh
03D0: 69 31 1B 45 08 80 F0 FF  FF 7F F0 FF FF 7F 77 68  i1.E..........wh
03E0: 6F 31 01 80 55 08 80 F0  FF FF 7F F0 FF FF 7F 77  o1..U..........w
03F0: 68 6F 31 1B 45 08 80 F0  FF FF 7F F0 FF FF 7F 77  ho1.E..........w
0400: 68 6F 32 01 80 55 08 80  F0 FF FF 7F F0 FF FF 7F  ho2..U..........
0410: 77 68 6F 32 1B 45 08 80  F0 FF FF 7F F0 FF FF 7F  who2.E..........
0420: 77 68 6F 33 01 80 55 08  80 F0 FF FF 7F F0 FF FF  who3..U.........
0430: 7F 77 68 6F 33 1B 62 04  80 F0 FF FF 7F F0 FF FF  .who3.b.........
0440: 7F 6D 61 69 6E 01 80 1C  03 80 45 02 80 F0 FF FF  .main.....E.....
0450: 7F F0 FF FF 7F 66 64 6F  31 01 80 55 02 80 F0 FF  .....fdo1..U....
0460: FF 7F F0 FF FF 7F 66 64  6F 31 1B 45 02 80 F0 FF  ......fdo1.E....
0470: FF 7F F0 FF FF 7F 66 64  69 31 01 80 62 09 80 F0  ......fdi1..b...
0480: FF FF 7F F0 FF FF 7F 6D  61 69 6E 01 80 1C 0A 80  .......main.....
0490: 55 02 80 F0 FF FF 7F F0  FF FF 7F 66 64 69 31 1B  U..........fdi1.
04A0: 45 02 80 F0 FF FF 7F F0  FF FF 7F 62 6C 6F 6E 01  E..........blon.
04B0: 80 45 08 80 F0 FF FF 7F  F0 FF FF 7F 62 6C 6F 6E  .E..........blon
04C0: 01 80 1B 45 08 80 F0 FF  FF 7F F0 FF FF 7F 77 68  ...E..........wh
04D0: 69 30 01 80 55 08 80 F0  FF FF 7F F0 FF FF 7F 77  i0..U..........w
04E0: 68 69 30 1B 45 08 80 F0  FF FF 7F F0 FF FF 7F 77  hi0.E..........w
04F0: 68 6F 30 01 80 55 08 80  F0 FF FF 7F F0 FF FF 7F  ho0..U..........
0500: 77 68 6F 30 1B 45 0B 80  F0 FF FF 7F F0 FF FF 7F  who0.E..........
0510: 65 66 6F 6E 01 80 55 0B  80 F0 FF FF 7F F0 FF FF  efon..U.........
0520: 7F 65 66 6F 6E 1B 45 02  80 F0 FF FF 7F F0 FF FF  .efon.E.........
0530: 7F 66 64 69 73 01 80 1B  45 02 80 F0 FF FF 7F F0  .fdis...E.......
0540: FF FF 7F 66 64 6F 73 01  80 55 02 80 F0 FF FF 7F  ...fdos..U......
0550: F0 FF FF 7F 66 64 6F 73  1B 45 02 80 F0 FF FF 7F  ....fdos.E......
0560: F0 FF FF 7F 66 64 69 66  01 80 1B 45 02 80 F0 FF  ....fdif...E....
0570: FF 7F F0 FF FF 7F 66 64  6F 66 01 80 55 02 80 F0  ......fdof..U...
0580: FF FF 7F F0 FF FF 7F 66  64 6F 66 1B 45 02 80 F0  .......fdof.E...
0590: FF FF 7F F0 FF FF 7F 66  64 69 70 01 80 1B 45 02  .......fdip...E.
05A0: 80 F0 FF FF 7F F0 FF FF  7F 66 64 6F 70 01 80 55  .........fdop..U
05B0: 02 80 F0 FF FF 7F F0 FF  FF 7F 66 64 6F 70 1B     ..........fdop. 
```

#### Opcodes

```
  0: 0x02DB [0x27] REQ_SET(priority=0x10, entity_id=MaidenLight (ID: 17465543/0x010A80C7), tag_num=0x05)
  1: 0x02E2 [0x27] REQ_SET(priority=0x10, entity_id=MaidenDark (ID: 17465544/0x010A80C8), tag_num=0x05)
  2: 0x02E9 [0x1C] WAIT(180* ticks)
  3: 0x02EC [0x2D] CREATE_ZONE_SCHEDULER_TASK: Create scheduler "221d" with entities [LocalPlayer, LocalPlayer]
  4: 0x02F9 [0x2D] CREATE_ZONE_SCHEDULER_TASK: Create scheduler "221h" with entities [LocalPlayer, LocalPlayer]
  5: 0x0306 [0x2D] CREATE_ZONE_SCHEDULER_TASK: Create scheduler "hrdk" with entities [LocalPlayer, LocalPlayer]
  6: 0x0313 [0x2D] CREATE_ZONE_SCHEDULER_TASK: Create scheduler "mdki" with entities [LocalPlayer, LocalPlayer]
  7: 0x0320 [0x2D] CREATE_ZONE_SCHEDULER_TASK: Create scheduler "mdkm" with entities [LocalPlayer, LocalPlayer]
  8: 0x032D [0x00] END_REQSTACK()
```

#### Data or dead code:

```
# Dead code (unreachable instructions):
     0x032E [0x45] LOAD_SCHEDULED_TASK: Load scheduler "fdi0" with entities [LocalPlayer, LocalPlayer], work=[200*, 0*]
     0x033F [0x55] WAIT_LOAD_SCHEDULER: Wait for scheduler "fdi0" with entities [LocalPlayer, LocalPlayer], work=200*
     0x034E [0x1B] RETURN
     0x034F [0x45] LOAD_SCHEDULED_TASK: Load scheduler "fdo0" with entities [LocalPlayer, LocalPlayer], work=[200*, 0*]
     0x0360 [0x55] WAIT_LOAD_SCHEDULER: Wait for scheduler "fdo0" with entities [LocalPlayer, LocalPlayer], work=200*
     0x036F [0x1B] RETURN
     0x0370 [0x45] LOAD_SCHEDULED_TASK: Load scheduler "fdi1" with entities [LocalPlayer, LocalPlayer], work=[200*, 0*]
     0x0381 [0x55] WAIT_LOAD_SCHEDULER: Wait for scheduler "fdi1" with entities [LocalPlayer, LocalPlayer], work=200*
     0x0390 [0x1B] RETURN
     0x0391 [0x45] LOAD_SCHEDULED_TASK: Load scheduler "fdo1" with entities [LocalPlayer, LocalPlayer], work=[200*, 0*]
     0x03A2 [0x55] WAIT_LOAD_SCHEDULER: Wait for scheduler "fdo1" with entities [LocalPlayer, LocalPlayer], work=200*
     0x03B1 [0x1B] RETURN
     0x03B2 [0x45] LOAD_SCHEDULED_TASK: Load scheduler "whi1" with entities [LocalPlayer, LocalPlayer], work=[201*, 0*]
     0x03C3 [0x55] WAIT_LOAD_SCHEDULER: Wait for scheduler "whi1" with entities [LocalPlayer, LocalPlayer], work=201*
     0x03D2 [0x1B] RETURN
     0x03D3 [0x45] LOAD_SCHEDULED_TASK: Load scheduler "who1" with entities [LocalPlayer, LocalPlayer], work=[201*, 0*]
     0x03E4 [0x55] WAIT_LOAD_SCHEDULER: Wait for scheduler "who1" with entities [LocalPlayer, LocalPlayer], work=201*
     0x03F3 [0x1B] RETURN
     0x03F4 [0x45] LOAD_SCHEDULED_TASK: Load scheduler "who2" with entities [LocalPlayer, LocalPlayer], work=[201*, 0*]
     0x0405 [0x55] WAIT_LOAD_SCHEDULER: Wait for scheduler "who2" with entities [LocalPlayer, LocalPlayer], work=201*
     0x0414 [0x1B] RETURN
     0x0415 [0x45] LOAD_SCHEDULED_TASK: Load scheduler "who3" with entities [LocalPlayer, LocalPlayer], work=[201*, 0*]
     0x0426 [0x55] WAIT_LOAD_SCHEDULER: Wait for scheduler "who3" with entities [LocalPlayer, LocalPlayer], work=201*
     0x0435 [0x1B] RETURN
     0x0436 [0x62] LOAD_EVENT_SCHEDULER: Load scheduler "main" with entities [LocalPlayer, LocalPlayer], work=[1*, 0*]
     0x0447 [0x1C] WAIT(45* ticks)
     0x044A [0x45] LOAD_SCHEDULED_TASK: Load scheduler "fdo1" with entities [LocalPlayer, LocalPlayer], work=[200*, 0*]
     0x045B [0x55] WAIT_LOAD_SCHEDULER: Wait for scheduler "fdo1" with entities [LocalPlayer, LocalPlayer], work=200*
     0x046A [0x1B] RETURN
     0x046B [0x45] LOAD_SCHEDULED_TASK: Load scheduler "fdi1" with entities [LocalPlayer, LocalPlayer], work=[200*, 0*]
     0x047C [0x62] LOAD_EVENT_SCHEDULER: Load scheduler "main" with entities [LocalPlayer, LocalPlayer], work=[2*, 0*]
     0x048D [0x1C] WAIT(30* ticks)
     0x0490 [0x55] WAIT_LOAD_SCHEDULER: Wait for scheduler "fdi1" with entities [LocalPlayer, LocalPlayer], work=200*
     0x049F [0x1B] RETURN
     0x04A0 [0x45] LOAD_SCHEDULED_TASK: Load scheduler "blon" with entities [LocalPlayer, LocalPlayer], work=[200*, 0*]
     0x04B1 [0x45] LOAD_SCHEDULED_TASK: Load scheduler "blon" with entities [LocalPlayer, LocalPlayer], work=[201*, 0*]
     0x04C2 [0x1B] RETURN
     0x04C3 [0x45] LOAD_SCHEDULED_TASK: Load scheduler "whi0" with entities [LocalPlayer, LocalPlayer], work=[201*, 0*]
     0x04D4 [0x55] WAIT_LOAD_SCHEDULER: Wait for scheduler "whi0" with entities [LocalPlayer, LocalPlayer], work=201*
     0x04E3 [0x1B] RETURN
     0x04E4 [0x45] LOAD_SCHEDULED_TASK: Load scheduler "who0" with entities [LocalPlayer, LocalPlayer], work=[201*, 0*]
     0x04F5 [0x55] WAIT_LOAD_SCHEDULER: Wait for scheduler "who0" with entities [LocalPlayer, LocalPlayer], work=201*
     0x0504 [0x1B] RETURN
     0x0505 [0x45] LOAD_SCHEDULED_TASK: Load scheduler "efon" with entities [LocalPlayer, LocalPlayer], work=[215*, 0*]
     0x0516 [0x55] WAIT_LOAD_SCHEDULER: Wait for scheduler "efon" with entities [LocalPlayer, LocalPlayer], work=215*
     0x0525 [0x1B] RETURN
     0x0526 [0x45] LOAD_SCHEDULED_TASK: Load scheduler "fdis" with entities [LocalPlayer, LocalPlayer], work=[200*, 0*]
     0x0537 [0x1B] RETURN
     0x0538 [0x45] LOAD_SCHEDULED_TASK: Load scheduler "fdos" with entities [LocalPlayer, LocalPlayer], work=[200*, 0*]
     0x0549 [0x55] WAIT_LOAD_SCHEDULER: Wait for scheduler "fdos" with entities [LocalPlayer, LocalPlayer], work=200*
     0x0558 [0x1B] RETURN
     0x0559 [0x45] LOAD_SCHEDULED_TASK: Load scheduler "fdif" with entities [LocalPlayer, LocalPlayer], work=[200*, 0*]
     0x056A [0x1B] RETURN
     0x056B [0x45] LOAD_SCHEDULED_TASK: Load scheduler "fdof" with entities [LocalPlayer, LocalPlayer], work=[200*, 0*]
     0x057C [0x55] WAIT_LOAD_SCHEDULER: Wait for scheduler "fdof" with entities [LocalPlayer, LocalPlayer], work=200*
     0x058B [0x1B] RETURN
     0x058C [0x45] LOAD_SCHEDULED_TASK: Load scheduler "fdip" with entities [LocalPlayer, LocalPlayer], work=[200*, 0*]
     0x059D [0x1B] RETURN
     0x059E [0x45] LOAD_SCHEDULED_TASK: Load scheduler "fdop" with entities [LocalPlayer, LocalPlayer], work=[200*, 0*]
     0x05AF [0x55] WAIT_LOAD_SCHEDULER: Wait for scheduler "fdop" with entities [LocalPlayer, LocalPlayer], work=200*
     0x05BE [0x1B] RETURN
```
