# 17465528 - Zeid

## Common Data

| Field            | Value                        |
|------------------|------------------------------|
| Zone             | Chamber of Oracles (ID: 168) |
| Block Size       | 380 bytes                    |
| Total Events     | 10                           |
| References Count | 32                           |

## List of Events

| Event ID                 | Entrypoint   |   Size |   Instructions |
|--------------------------|--------------|--------|----------------|
| [65535](#event-65535)    | 0x0000       |      1 |              1 |
| [0](#event-0)            | 0x0001       |     33 |              6 |
| [1](#event-1)            | 0x0022       |     33 |              6 |
| [65535.1](#event-655351) | 0x0043       |     33 |              6 |
| [65535.2](#event-655352) | 0x0064       |     23 |              5 |
| [65535.3](#event-655353) | 0x007B       |      6 |              2 |
| [65535.4](#event-655354) | 0x0081       |     34 |              8 |
| [65535.5](#event-655355) | 0x00A3       |     10 |              2 |
| [65535.6](#event-655356) | 0x00AD       |     10 |              2 |
| [65535.7](#event-655357) | 0x00B7       |     10 |              2 |

## DAT References (imed_data)

|   Index | Hex Value   |   Dec Value |
|---------|-------------|-------------|
|       0 | 0x0000      |           0 |
|       1 | 0x0001      |           1 |
|       2 | 0x2DF0C     |      188172 |
|       3 | 0x58FE      |       22782 |
|       4 | 0xFFFFFEEA  |  4294967018 |
|       5 | 0x0545      |        1349 |
|       6 | 0x007F      |         127 |
|       7 | 0x000D      |          13 |
|       8 | 0x2EB21     |      191265 |
|       9 | 0x5486      |       21638 |
|      10 | 0x0005      |           5 |
|      11 | 0x30810     |      198672 |
|      12 | 0x7125      |       28965 |
|      13 | 0xFFFFFB95  |  4294966165 |
|      14 | 0x0CA7      |        3239 |
|      15 | 0x30AA7     |      199335 |
|      16 | 0x8A44      |       35396 |
|      17 | 0xFFFFF736  |  4294965046 |
|      18 | 0x308E0     |      198880 |
|      19 | 0x8CDB      |       36059 |
|      20 | 0x30835     |      198709 |
|      21 | 0x9188      |       37256 |
|      22 | 0x3095C     |      199004 |
|      23 | 0x94A7      |       38055 |
|      24 | 0x0C2B      |        3115 |
|      25 | 0x304C2     |      197826 |
|      26 | 0x92F4      |       37620 |
|      27 | 0x0A41      |        2625 |
|      28 | 0x30C64     |      199780 |
|      29 | 0xB267      |       45671 |
|      30 | 0xFFFFE8C7  |  4294961351 |
|      31 | 0x0C8D      |        3213 |

## Events

### Event 65535

#### Metadata

| Field        | Value   |
|--------------|---------|
| Entrypoint   | 0x0000  |
| Data Size    | 1 bytes |
| Instructions | 1       |

```
      00 01 02 03 04 05 06 07  08 09 0A 0B 0C 0D 0E 0F
      -- -- -- -- -- -- -- --  -- -- -- -- -- -- -- --
0000: 00                                                .               
```

#### Opcodes

```
  0: 0x0000 [0x00] END_REQSTACK()
```

### Event 0

#### Metadata

| Field        | Value    |
|--------------|----------|
| Entrypoint   | 0x0001   |
| Data Size    | 33 bytes |
| Instructions | 6        |

```
      00 01 02 03 04 05 06 07  08 09 0A 0B 0C 0D 0E 0F
      -- -- -- -- -- -- -- --  -- -- -- -- -- -- -- --
0000:    22 00 2F 00 F8 FF FF  7F 92 01 B8 80 0A 01 6C   "./...........l
0010: F8 FF FF 7F 00 80 01 80  37 02 80 03 80 04 80 05  ........7.......
0020: 80 00                                             ..              
```

#### Opcodes

```
  0: 0x0001 [0x22] ENTITY_HIDE_FLAG(enabled=0x00)
  1: 0x0003 [0x2F] EventEntity->Render.Flags0 &= ~0x80000 // Bit 19
  2: 0x0009 [0x92] Zeid (ID: 17465528/0x010A80B8)->Render.Flags3 ^= 0x01
  3: 0x000F [0x6C] FADE_ENTITY_COLOR(entity_id=EventEntity, end_alpha=0*, fade_time=1*)
  4: 0x0018 [0x37] UPDATE_EVENT_POSITION_AND_DIR: x=188.172*, z=22.782*, y=-0.278*, direction=118.6°*
  5: 0x0021 [0x00] END_REQSTACK()
```

### Event 1

#### Metadata

| Field        | Value    |
|--------------|----------|
| Entrypoint   | 0x0022   |
| Data Size    | 33 bytes |
| Instructions | 6        |

```
      00 01 02 03 04 05 06 07  08 09 0A 0B 0C 0D 0E 0F
      -- -- -- -- -- -- -- --  -- -- -- -- -- -- -- --
0020:       22 00 2F 00 F8 FF  FF 7F 92 01 B8 80 0A 01    "./...........
0030: 6C F8 FF FF 7F 00 80 01  80 37 02 80 03 80 04 80  l........7......
0040: 05 80 00                                          ...             
```

#### Opcodes

```
  0: 0x0022 [0x22] ENTITY_HIDE_FLAG(enabled=0x00)
  1: 0x0024 [0x2F] EventEntity->Render.Flags0 &= ~0x80000 // Bit 19
  2: 0x002A [0x92] Zeid (ID: 17465528/0x010A80B8)->Render.Flags3 ^= 0x01
  3: 0x0030 [0x6C] FADE_ENTITY_COLOR(entity_id=EventEntity, end_alpha=0*, fade_time=1*)
  4: 0x0039 [0x37] UPDATE_EVENT_POSITION_AND_DIR: x=188.172*, z=22.782*, y=-0.278*, direction=118.6°*
  5: 0x0042 [0x00] END_REQSTACK()
```

### Event 65535.1

#### Metadata

| Field        | Value    |
|--------------|----------|
| Entrypoint   | 0x0043   |
| Data Size    | 33 bytes |
| Instructions | 6        |

```
      00 01 02 03 04 05 06 07  08 09 0A 0B 0C 0D 0E 0F
      -- -- -- -- -- -- -- --  -- -- -- -- -- -- -- --
0040:          6C F8 FF FF 7F  06 80 01 80 79 00 B8 80     l........y...
0050: 0A 01 F0 FF FF 7F 32 07  80 1F 00 08 80 09 80 0A  ......2.........
0060: 80 1F 01 00                                       ....            
```

#### Opcodes

```
  0: 0x0043 [0x6C] FADE_ENTITY_COLOR(entity_id=EventEntity, end_alpha=127*, fade_time=1*)
  1: 0x004C [0x79] Zeid (ID: 17465528/0x010A80B8) looks at LocalPlayer (Basic look)
  2: 0x0056 [0x32] ExtData[1]->MainSpeed = 13* * 0.1
  3: 0x0059 [0x1F] MOVE_ENTITY: EventEntity moves to X=191.265*, Z=21.638*, Y=0.005*
  4: 0x0061 [0x1F] MOVE_ENTITY: Update entity position (mode=1)
  5: 0x0063 [0x00] END_REQSTACK()
```

### Event 65535.2

#### Metadata

| Field        | Value    |
|--------------|----------|
| Entrypoint   | 0x0064   |
| Data Size    | 23 bytes |
| Instructions | 5        |

```
      00 01 02 03 04 05 06 07  08 09 0A 0B 0C 0D 0E 0F
      -- -- -- -- -- -- -- --  -- -- -- -- -- -- -- --
0060:             37 0B 80 0C  80 0D 80 0E 80 32 07 80      7........2..
0070: 1F 00 0F 80 10 80 11 80  1F 01 00                 ...........     
```

#### Opcodes

```
  0: 0x0064 [0x37] UPDATE_EVENT_POSITION_AND_DIR: x=198.672*, z=28.965*, y=-1.131*, direction=284.7°*
  1: 0x006D [0x32] ExtData[1]->MainSpeed = 13* * 0.1
  2: 0x0070 [0x1F] MOVE_ENTITY: EventEntity moves to X=199.335*, Z=35.396*, Y=-2.250*
  3: 0x0078 [0x1F] MOVE_ENTITY: Update entity position (mode=1)
  4: 0x007A [0x00] END_REQSTACK()
```

### Event 65535.3

#### Metadata

| Field        | Value   |
|--------------|---------|
| Entrypoint   | 0x007B  |
| Data Size    | 6 bytes |
| Instructions | 2       |

```
      00 01 02 03 04 05 06 07  08 09 0A 0B 0C 0D 0E 0F
      -- -- -- -- -- -- -- --  -- -- -- -- -- -- -- --
0070:                                   1E CE 80 0A 01             .....
0080: 00                                                .               
```

#### Opcodes

```
  0: 0x007B [0x1E] EventEntity looks at Pedestal of Lightning (ID: 17465550/0x010A80CE) and starts talking
  1: 0x0080 [0x00] END_REQSTACK()
```

### Event 65535.4

#### Metadata

| Field        | Value    |
|--------------|----------|
| Entrypoint   | 0x0081   |
| Data Size    | 34 bytes |
| Instructions | 8        |

```
      00 01 02 03 04 05 06 07  08 09 0A 0B 0C 0D 0E 0F
      -- -- -- -- -- -- -- --  -- -- -- -- -- -- -- --
0080:    32 07 80 1F 00 12 80  13 80 11 80 1F 01 1F 00   2..............
0090: 14 80 15 80 11 80 1F 01  1F 00 16 80 17 80 11 80  ................
00A0: 1F 01 00                                          ...             
```

#### Opcodes

```
  0: 0x0081 [0x32] ExtData[1]->MainSpeed = 13* * 0.1
  1: 0x0084 [0x1F] MOVE_ENTITY: EventEntity moves to X=198.880*, Z=36.059*, Y=-2.250*
  2: 0x008C [0x1F] MOVE_ENTITY: Update entity position (mode=1)
  3: 0x008E [0x1F] MOVE_ENTITY: EventEntity moves to X=198.709*, Z=37.256*, Y=-2.250*
  4: 0x0096 [0x1F] MOVE_ENTITY: Update entity position (mode=1)
  5: 0x0098 [0x1F] MOVE_ENTITY: EventEntity moves to X=199.004*, Z=38.055*, Y=-2.250*
  6: 0x00A0 [0x1F] MOVE_ENTITY: Update entity position (mode=1)
  7: 0x00A2 [0x00] END_REQSTACK()
```

### Event 65535.5

#### Metadata

| Field        | Value    |
|--------------|----------|
| Entrypoint   | 0x00A3   |
| Data Size    | 10 bytes |
| Instructions | 2        |

```
      00 01 02 03 04 05 06 07  08 09 0A 0B 0C 0D 0E 0F
      -- -- -- -- -- -- -- --  -- -- -- -- -- -- -- --
00A0:          37 16 80 17 80  11 80 18 80 00              7.........   
```

#### Opcodes

```
  0: 0x00A3 [0x37] UPDATE_EVENT_POSITION_AND_DIR: x=199.004*, z=38.055*, y=-2.250*, direction=273.8°*
  1: 0x00AC [0x00] END_REQSTACK()
```

### Event 65535.6

#### Metadata

| Field        | Value    |
|--------------|----------|
| Entrypoint   | 0x00AD   |
| Data Size    | 10 bytes |
| Instructions | 2        |

```
      00 01 02 03 04 05 06 07  08 09 0A 0B 0C 0D 0E 0F
      -- -- -- -- -- -- -- --  -- -- -- -- -- -- -- --
00A0:                                         37 19 80               7..
00B0: 1A 80 11 80 1B 80 00                              .......         
```

#### Opcodes

```
  0: 0x00AD [0x37] UPDATE_EVENT_POSITION_AND_DIR: x=197.826*, z=37.620*, y=-2.250*, direction=230.7°*
  1: 0x00B6 [0x00] END_REQSTACK()
```

### Event 65535.7

#### Metadata

| Field        | Value    |
|--------------|----------|
| Entrypoint   | 0x00B7   |
| Data Size    | 10 bytes |
| Instructions | 2        |

```
      00 01 02 03 04 05 06 07  08 09 0A 0B 0C 0D 0E 0F
      -- -- -- -- -- -- -- --  -- -- -- -- -- -- -- --
00B0:                      37  1C 80 1D 80 1E 80 1F 80         7........
00C0: 00                                                .               
```

#### Opcodes

```
  0: 0x00B7 [0x37] UPDATE_EVENT_POSITION_AND_DIR: x=199.780*, z=45.671*, y=-5.945*, direction=282.4°*
  1: 0x00C0 [0x00] END_REQSTACK()
```
