# 17465553

## Common Data

| Field            | Value                        |
|------------------|------------------------------|
| Zone             | Chamber of Oracles (ID: 168) |
| Block Size       | 824 bytes                    |
| Total Events     | 9                            |
| References Count | 9                            |

## List of Events

| Event ID                 | Entrypoint   |   Size |   Instructions |
|--------------------------|--------------|--------|----------------|
| [65535](#event-65535)    | 0x0000       |      1 |              1 |
| [0](#event-0)            | 0x0001       |      9 |              3 |
| [1](#event-1)            | 0x000A       |      9 |              3 |
| [65535.1](#event-655351) | 0x0013       |     41 |              9 |
| [65535.2](#event-655352) | 0x003C       |     47 |              7 |
| [65535.3](#event-655353) | 0x006B       |    225 |             25 |
| [65535.4](#event-655354) | 0x014C       |    196 |             16 |
| [65535.5](#event-655355) | 0x0210       |    196 |             16 |
| [65535.6](#event-655356) | 0x02D4       |     12 |              3 |

## DAT References (imed_data)

|   Index | Hex Value   |   Dec Value |
|---------|-------------|-------------|
|       0 | 0x004B      |          75 |
|       1 | 0x0069      |         105 |
|       2 | 0x005A      |          90 |
|       3 | 0x0078      |         120 |
|       4 | 0x00F0      |         240 |
|       5 | 0xFFFB8584  |  4294673796 |
|       6 | 0xFFFF9F8D  |  4294942605 |
|       7 | 0xFFFFFA0F  |  4294965775 |
|       8 | 0x07EC      |        2028 |

## Events

### Event 65535

#### Metadata

| Field        | Value   |
|--------------|---------|
| Entrypoint   | 0x0000  |
| Data Size    | 1 bytes |
| Instructions | 1       |

```
      00 01 02 03 04 05 06 07  08 09 0A 0B 0C 0D 0E 0F
      -- -- -- -- -- -- -- --  -- -- -- -- -- -- -- --
0000: 00                                                .               
```

#### Opcodes

```
  0: 0x0000 [0x00] END_REQSTACK()
```

### Event 0

#### Metadata

| Field        | Value   |
|--------------|---------|
| Entrypoint   | 0x0001  |
| Data Size    | 9 bytes |
| Instructions | 3       |

```
      00 01 02 03 04 05 06 07  08 09 0A 0B 0C 0D 0E 0F
      -- -- -- -- -- -- -- --  -- -- -- -- -- -- -- --
0000:    22 00 2F 00 F8 FF FF  7F 00                     "./......      
```

#### Opcodes

```
  0: 0x0001 [0x22] ENTITY_HIDE_FLAG(enabled=0x00)
  1: 0x0003 [0x2F] EventEntity->Render.Flags0 &= ~0x80000 // Bit 19
  2: 0x0009 [0x00] END_REQSTACK()
```

### Event 1

#### Metadata

| Field        | Value   |
|--------------|---------|
| Entrypoint   | 0x000A  |
| Data Size    | 9 bytes |
| Instructions | 3       |

```
      00 01 02 03 04 05 06 07  08 09 0A 0B 0C 0D 0E 0F
      -- -- -- -- -- -- -- --  -- -- -- -- -- -- -- --
0000:                                22 00 2F 00 F8 FF            "./...
0010: FF 7F 00                                          ...             
```

#### Opcodes

```
  0: 0x000A [0x22] ENTITY_HIDE_FLAG(enabled=0x00)
  1: 0x000C [0x2F] EventEntity->Render.Flags0 &= ~0x80000 // Bit 19
  2: 0x0012 [0x00] END_REQSTACK()
```

### Event 65535.1

#### Metadata

| Field        | Value    |
|--------------|----------|
| Entrypoint   | 0x0013   |
| Data Size    | 41 bytes |
| Instructions | 9        |

```
      00 01 02 03 04 05 06 07  08 09 0A 0B 0C 0D 0E 0F
      -- -- -- -- -- -- -- --  -- -- -- -- -- -- -- --
0010:          27 10 C9 80 0A  01 03 1C 00 80 27 10 CD     '.........'..
0020: 80 0A 01 03 1C 01 80 27  10 CC 80 0A 01 03 1C 02  .......'........
0030: 80 29 10 CF 80 0A 01 03  1C 03 80 00              .)..........    
```

#### Opcodes

```
  0: 0x0013 [0x27] REQ_SET(priority=0x10, entity_id=Pedestal of Fire (ID: 17465545/0x010A80C9), tag_num=0x03)
  1: 0x001A [0x1C] WAIT(75* ticks)
  2: 0x001D [0x27] REQ_SET(priority=0x10, entity_id=Pedestal of Water (ID: 17465549/0x010A80CD), tag_num=0x03)
  3: 0x0024 [0x1C] WAIT(105* ticks)
  4: 0x0027 [0x27] REQ_SET(priority=0x10, entity_id=Pedestal of Wind (ID: 17465548/0x010A80CC), tag_num=0x03)
  5: 0x002E [0x1C] WAIT(90* ticks)
  6: 0x0031 [0x29] REQ_SET_WAIT(priority=0x10, entity_id=Pedestal of Light (ID: 17465551/0x010A80CF), tag_num=0x03)
  7: 0x0038 [0x1C] WAIT(120* ticks)
  8: 0x003B [0x00] END_REQSTACK()
```

### Event 65535.2

#### Metadata

| Field        | Value    |
|--------------|----------|
| Entrypoint   | 0x003C   |
| Data Size    | 47 bytes |
| Instructions | 7        |

```
      00 01 02 03 04 05 06 07  08 09 0A 0B 0C 0D 0E 0F
      -- -- -- -- -- -- -- --  -- -- -- -- -- -- -- --
0030:                                      2D F0 FF FF              -...
0040: 7F F0 FF FF 7F 32 31 35  73 2D F0 FF FF 7F F0 FF  .....215s-......
0050: FF 7F 32 31 36 73 27 10  CC 80 0A 01 03 1C 00 80  ..216s'.........
0060: 29 10 CF 80 0A 01 03 1C  02 80 00                 )..........     
```

#### Opcodes

```
  0: 0x003C [0x2D] CREATE_ZONE_SCHEDULER_TASK: Create scheduler "215s" with entities [LocalPlayer, LocalPlayer]
  1: 0x0049 [0x2D] CREATE_ZONE_SCHEDULER_TASK: Create scheduler "216s" with entities [LocalPlayer, LocalPlayer]
  2: 0x0056 [0x27] REQ_SET(priority=0x10, entity_id=Pedestal of Wind (ID: 17465548/0x010A80CC), tag_num=0x03)
  3: 0x005D [0x1C] WAIT(75* ticks)
  4: 0x0060 [0x29] REQ_SET_WAIT(priority=0x10, entity_id=Pedestal of Light (ID: 17465551/0x010A80CF), tag_num=0x03)
  5: 0x0067 [0x1C] WAIT(90* ticks)
  6: 0x006A [0x00] END_REQSTACK()
```

### Event 65535.3

#### Metadata

| Field        | Value     |
|--------------|-----------|
| Entrypoint   | 0x006B    |
| Data Size    | 225 bytes |
| Instructions | 25        |

```
      00 01 02 03 04 05 06 07  08 09 0A 0B 0C 0D 0E 0F
      -- -- -- -- -- -- -- --  -- -- -- -- -- -- -- --
0060:                                   27 10 C7 80 0A             '....
0070: 01 03 27 10 C8 80 0A 01  03 2D F0 FF FF 7F F0 FF  ..'......-......
0080: FF 7F 32 32 30 61 2D F0  FF FF 7F F0 FF FF 7F 32  ..220a-........2
0090: 32 30 65 2D F0 FF FF 7F  F0 FF FF 7F 68 72 64 31  20e-........hrd1
00A0: 1C 04 80 27 10 C4 80 0A  01 03 27 10 C2 80 0A 01  ...'......'.....
00B0: 03 2D F0 FF FF 7F F0 FF  FF 7F 32 32 30 62 2D F0  .-........220b-.
00C0: FF FF 7F F0 FF FF 7F 32  32 30 66 2D F0 FF FF 7F  .......220f-....
00D0: F0 FF FF 7F 68 72 63 31  1C 04 80 27 10 C5 80 0A  ....hrc1...'....
00E0: 01 03 27 10 C6 80 0A 01  03 2D F0 FF FF 7F F0 FF  ..'......-......
00F0: FF 7F 32 32 30 63 2D F0  FF FF 7F F0 FF FF 7F 32  ..220c-........2
0100: 32 30 67 2D F0 FF FF 7F  F0 FF FF 7F 68 72 62 31  20g-........hrb1
0110: 1C 04 80 27 10 C1 80 0A  01 03 27 10 C3 80 0A 01  ...'......'.....
0120: 03 2D F0 FF FF 7F F0 FF  FF 7F 32 32 30 64 2D F0  .-........220d-.
0130: FF FF 7F F0 FF FF 7F 32  32 30 68 2D F0 FF FF 7F  .......220h-....
0140: F0 FF FF 7F 68 72 61 31  1C 04 80 00              ....hra1....    
```

#### Opcodes

```
  0: 0x006B [0x27] REQ_SET(priority=0x10, entity_id=MaidenLight (ID: 17465543/0x010A80C7), tag_num=0x03)
  1: 0x0072 [0x27] REQ_SET(priority=0x10, entity_id=MaidenDark (ID: 17465544/0x010A80C8), tag_num=0x03)
  2: 0x0079 [0x2D] CREATE_ZONE_SCHEDULER_TASK: Create scheduler "220a" with entities [LocalPlayer, LocalPlayer]
  3: 0x0086 [0x2D] CREATE_ZONE_SCHEDULER_TASK: Create scheduler "220e" with entities [LocalPlayer, LocalPlayer]
  4: 0x0093 [0x2D] CREATE_ZONE_SCHEDULER_TASK: Create scheduler "hrd1" with entities [LocalPlayer, LocalPlayer]
  5: 0x00A0 [0x1C] WAIT(240* ticks)
  6: 0x00A3 [0x27] REQ_SET(priority=0x10, entity_id=MaidenWind (ID: 17465540/0x010A80C4), tag_num=0x03)
  7: 0x00AA [0x27] REQ_SET(priority=0x10, entity_id=MaidenEarth (ID: 17465538/0x010A80C2), tag_num=0x03)
  8: 0x00B1 [0x2D] CREATE_ZONE_SCHEDULER_TASK: Create scheduler "220b" with entities [LocalPlayer, LocalPlayer]
  9: 0x00BE [0x2D] CREATE_ZONE_SCHEDULER_TASK: Create scheduler "220f" with entities [LocalPlayer, LocalPlayer]
 10: 0x00CB [0x2D] CREATE_ZONE_SCHEDULER_TASK: Create scheduler "hrc1" with entities [LocalPlayer, LocalPlayer]
 11: 0x00D8 [0x1C] WAIT(240* ticks)
 12: 0x00DB [0x27] REQ_SET(priority=0x10, entity_id=MaidenWater (ID: 17465541/0x010A80C5), tag_num=0x03)
 13: 0x00E2 [0x27] REQ_SET(priority=0x10, entity_id=MaidenThunder (ID: 17465542/0x010A80C6), tag_num=0x03)
 14: 0x00E9 [0x2D] CREATE_ZONE_SCHEDULER_TASK: Create scheduler "220c" with entities [LocalPlayer, LocalPlayer]
 15: 0x00F6 [0x2D] CREATE_ZONE_SCHEDULER_TASK: Create scheduler "220g" with entities [LocalPlayer, LocalPlayer]
 16: 0x0103 [0x2D] CREATE_ZONE_SCHEDULER_TASK: Create scheduler "hrb1" with entities [LocalPlayer, LocalPlayer]
 17: 0x0110 [0x1C] WAIT(240* ticks)
 18: 0x0113 [0x27] REQ_SET(priority=0x10, entity_id=MaidenFire (ID: 17465537/0x010A80C1), tag_num=0x03)
 19: 0x011A [0x27] REQ_SET(priority=0x10, entity_id=MaidenIce (ID: 17465539/0x010A80C3), tag_num=0x03)
 20: 0x0121 [0x2D] CREATE_ZONE_SCHEDULER_TASK: Create scheduler "220d" with entities [LocalPlayer, LocalPlayer]
 21: 0x012E [0x2D] CREATE_ZONE_SCHEDULER_TASK: Create scheduler "220h" with entities [LocalPlayer, LocalPlayer]
 22: 0x013B [0x2D] CREATE_ZONE_SCHEDULER_TASK: Create scheduler "hra1" with entities [LocalPlayer, LocalPlayer]
 23: 0x0148 [0x1C] WAIT(240* ticks)
 24: 0x014B [0x00] END_REQSTACK()
```

### Event 65535.4

#### Metadata

| Field        | Value     |
|--------------|-----------|
| Entrypoint   | 0x014C    |
| Data Size    | 196 bytes |
| Instructions | 16        |

```
      00 01 02 03 04 05 06 07  08 09 0A 0B 0C 0D 0E 0F
      -- -- -- -- -- -- -- --  -- -- -- -- -- -- -- --
0140:                                      2D F0 FF FF              -...
0150: 7F F0 FF FF 7F 6D 61 6B  69 2D F0 FF FF 7F F0 FF  .....maki-......
0160: FF 7F 6D 62 6B 69 2D F0  FF FF 7F F0 FF FF 7F 6D  ..mbki-........m
0170: 63 6B 69 2D F0 FF FF 7F  F0 FF FF 7F 6D 64 6B 69  cki-........mdki
0180: 2D F0 FF FF 7F F0 FF FF  7F 6D 61 6B 6D 2D F0 FF  -........makm-..
0190: FF 7F F0 FF FF 7F 6D 62  6B 6D 2D F0 FF FF 7F F0  ......mbkm-.....
01A0: FF FF 7F 6D 63 6B 6D 2D  F0 FF FF 7F F0 FF FF 7F  ...mckm-........
01B0: 6D 64 6B 6D 2D F0 FF FF  7F F0 FF FF 7F 6D 61 6B  mdkm-........mak
01C0: 63 2D F0 FF FF 7F F0 FF  FF 7F 68 72 61 6B 2D F0  c-........hrak-.
01D0: FF FF 7F F0 FF FF 7F 68  72 62 6B 2D F0 FF FF 7F  .......hrbk-....
01E0: F0 FF FF 7F 68 72 63 6B  2D F0 FF FF 7F F0 FF FF  ....hrck-.......
01F0: 7F 68 72 64 6B 2D F0 FF  FF 7F F0 FF FF 7F 63 73  .hrdk-........cs
0200: 6B 69 2D F0 FF FF 7F F0  FF FF 7F 68 72 6D 6B 00  ki-........hrmk.
```

#### Opcodes

```
  0: 0x014C [0x2D] CREATE_ZONE_SCHEDULER_TASK: Create scheduler "maki" with entities [LocalPlayer, LocalPlayer]
  1: 0x0159 [0x2D] CREATE_ZONE_SCHEDULER_TASK: Create scheduler "mbki" with entities [LocalPlayer, LocalPlayer]
  2: 0x0166 [0x2D] CREATE_ZONE_SCHEDULER_TASK: Create scheduler "mcki" with entities [LocalPlayer, LocalPlayer]
  3: 0x0173 [0x2D] CREATE_ZONE_SCHEDULER_TASK: Create scheduler "mdki" with entities [LocalPlayer, LocalPlayer]
  4: 0x0180 [0x2D] CREATE_ZONE_SCHEDULER_TASK: Create scheduler "makm" with entities [LocalPlayer, LocalPlayer]
  5: 0x018D [0x2D] CREATE_ZONE_SCHEDULER_TASK: Create scheduler "mbkm" with entities [LocalPlayer, LocalPlayer]
  6: 0x019A [0x2D] CREATE_ZONE_SCHEDULER_TASK: Create scheduler "mckm" with entities [LocalPlayer, LocalPlayer]
  7: 0x01A7 [0x2D] CREATE_ZONE_SCHEDULER_TASK: Create scheduler "mdkm" with entities [LocalPlayer, LocalPlayer]
  8: 0x01B4 [0x2D] CREATE_ZONE_SCHEDULER_TASK: Create scheduler "makc" with entities [LocalPlayer, LocalPlayer]
  9: 0x01C1 [0x2D] CREATE_ZONE_SCHEDULER_TASK: Create scheduler "hrak" with entities [LocalPlayer, LocalPlayer]
 10: 0x01CE [0x2D] CREATE_ZONE_SCHEDULER_TASK: Create scheduler "hrbk" with entities [LocalPlayer, LocalPlayer]
 11: 0x01DB [0x2D] CREATE_ZONE_SCHEDULER_TASK: Create scheduler "hrck" with entities [LocalPlayer, LocalPlayer]
 12: 0x01E8 [0x2D] CREATE_ZONE_SCHEDULER_TASK: Create scheduler "hrdk" with entities [LocalPlayer, LocalPlayer]
 13: 0x01F5 [0x2D] CREATE_ZONE_SCHEDULER_TASK: Create scheduler "cski" with entities [LocalPlayer, LocalPlayer]
 14: 0x0202 [0x2D] CREATE_ZONE_SCHEDULER_TASK: Create scheduler "hrmk" with entities [LocalPlayer, LocalPlayer]
 15: 0x020F [0x00] END_REQSTACK()
```

### Event 65535.5

#### Metadata

| Field        | Value     |
|--------------|-----------|
| Entrypoint   | 0x0210    |
| Data Size    | 196 bytes |
| Instructions | 16        |

```
      00 01 02 03 04 05 06 07  08 09 0A 0B 0C 0D 0E 0F
      -- -- -- -- -- -- -- --  -- -- -- -- -- -- -- --
0210: 2D F0 FF FF 7F F0 FF FF  7F 6D 73 61 31 2D F0 FF  -........msa1-..
0220: FF 7F F0 FF FF 7F 6D 73  62 31 2D F0 FF FF 7F F0  ......msb1-.....
0230: FF FF 7F 6D 73 63 31 2D  F0 FF FF 7F F0 FF FF 7F  ...msc1-........
0240: 6D 73 64 31 2D F0 FF FF  7F F0 FF FF 7F 6D 73 61  msd1-........msa
0250: 6D 2D F0 FF FF 7F F0 FF  FF 7F 6D 73 62 6D 2D F0  m-........msbm-.
0260: FF FF 7F F0 FF FF 7F 6D  73 63 6D 2D F0 FF FF 7F  .......mscm-....
0270: F0 FF FF 7F 6D 73 64 6D  2D F0 FF FF 7F F0 FF FF  ....msdm-.......
0280: 7F 6D 63 61 31 2D F0 FF  FF 7F F0 FF FF 7F 68 72  .mca1-........hr
0290: 64 31 2D F0 FF FF 7F F0  FF FF 7F 68 72 63 31 2D  d1-........hrc1-
02A0: F0 FF FF 7F F0 FF FF 7F  68 72 62 31 2D F0 FF FF  ........hrb1-...
02B0: 7F F0 FF FF 7F 68 72 61  31 2D F0 FF FF 7F F0 FF  .....hra1-......
02C0: FF 7F 63 72 73 74 2D F0  FF FF 7F F0 FF FF 7F 68  ..crst-........h
02D0: 72 6D 31 00                                       rm1.            
```

#### Opcodes

```
  0: 0x0210 [0x2D] CREATE_ZONE_SCHEDULER_TASK: Create scheduler "msa1" with entities [LocalPlayer, LocalPlayer]
  1: 0x021D [0x2D] CREATE_ZONE_SCHEDULER_TASK: Create scheduler "msb1" with entities [LocalPlayer, LocalPlayer]
  2: 0x022A [0x2D] CREATE_ZONE_SCHEDULER_TASK: Create scheduler "msc1" with entities [LocalPlayer, LocalPlayer]
  3: 0x0237 [0x2D] CREATE_ZONE_SCHEDULER_TASK: Create scheduler "msd1" with entities [LocalPlayer, LocalPlayer]
  4: 0x0244 [0x2D] CREATE_ZONE_SCHEDULER_TASK: Create scheduler "msam" with entities [LocalPlayer, LocalPlayer]
  5: 0x0251 [0x2D] CREATE_ZONE_SCHEDULER_TASK: Create scheduler "msbm" with entities [LocalPlayer, LocalPlayer]
  6: 0x025E [0x2D] CREATE_ZONE_SCHEDULER_TASK: Create scheduler "mscm" with entities [LocalPlayer, LocalPlayer]
  7: 0x026B [0x2D] CREATE_ZONE_SCHEDULER_TASK: Create scheduler "msdm" with entities [LocalPlayer, LocalPlayer]
  8: 0x0278 [0x2D] CREATE_ZONE_SCHEDULER_TASK: Create scheduler "mca1" with entities [LocalPlayer, LocalPlayer]
  9: 0x0285 [0x2D] CREATE_ZONE_SCHEDULER_TASK: Create scheduler "hrd1" with entities [LocalPlayer, LocalPlayer]
 10: 0x0292 [0x2D] CREATE_ZONE_SCHEDULER_TASK: Create scheduler "hrc1" with entities [LocalPlayer, LocalPlayer]
 11: 0x029F [0x2D] CREATE_ZONE_SCHEDULER_TASK: Create scheduler "hrb1" with entities [LocalPlayer, LocalPlayer]
 12: 0x02AC [0x2D] CREATE_ZONE_SCHEDULER_TASK: Create scheduler "hra1" with entities [LocalPlayer, LocalPlayer]
 13: 0x02B9 [0x2D] CREATE_ZONE_SCHEDULER_TASK: Create scheduler "crst" with entities [LocalPlayer, LocalPlayer]
 14: 0x02C6 [0x2D] CREATE_ZONE_SCHEDULER_TASK: Create scheduler "hrm1" with entities [LocalPlayer, LocalPlayer]
 15: 0x02D3 [0x00] END_REQSTACK()
```

### Event 65535.6

#### Metadata

| Field        | Value    |
|--------------|----------|
| Entrypoint   | 0x02D4   |
| Data Size    | 12 bytes |
| Instructions | 3        |

```
      00 01 02 03 04 05 06 07  08 09 0A 0B 0C 0D 0E 0F
      -- -- -- -- -- -- -- --  -- -- -- -- -- -- -- --
02D0:             33 01 37 05  80 06 80 07 80 08 80 00      3.7.........
```

#### Opcodes

```
  0: 0x02D4 [0x33] EventEntity->Render.Flags0 |= 0x200000 // Bit 21 (flag=0x01)
  1: 0x02D6 [0x37] UPDATE_EVENT_POSITION_AND_DIR: x=-293.500*, z=-24.691*, y=-1.521*, direction=178.2°*
  2: 0x02DF [0x00] END_REQSTACK()
```
