# 17465598 - Kupiruru

## Common Data

| Field            | Value                        |
|------------------|------------------------------|
| Zone             | Chamber of Oracles (ID: 168) |
| Block Size       | 368 bytes                    |
| Total Events     | 15                           |
| References Count | 16                           |

## List of Events

| Event ID                   | Entrypoint   |   Size |   Instructions |
|----------------------------|--------------|--------|----------------|
| [65535](#event-65535)      | 0x0000       |      1 |              1 |
| [65535.1](#event-655351)   | 0x0001       |     19 |              5 |
| [65535.2](#event-655352)   | 0x0014       |     10 |              2 |
| [65535.3](#event-655353)   | 0x001E       |     10 |              2 |
| [65535.4](#event-655354)   | 0x0028       |     15 |              5 |
| [5](#event-5)              | 0x0037       |      1 |              1 |
| [65535.5](#event-655355)   | 0x0038       |     16 |              2 |
| [65535.6](#event-655356)   | 0x0048       |     19 |              3 |
| [65535.7](#event-655357)   | 0x005B       |     19 |              3 |
| [65535.8](#event-655358)   | 0x006E       |     19 |              3 |
| [65535.9](#event-655359)   | 0x0081       |     19 |              3 |
| [65535.10](#event-6553510) | 0x0094       |     39 |              8 |
| [6](#event-6)              | 0x00BB       |      1 |              1 |
| [65535.11](#event-6553511) | 0x00BC       |     19 |              3 |
| [65535.12](#event-6553512) | 0x00CF       |     19 |              3 |

## DAT References (imed_data)

|   Index | Hex Value   |   Dec Value |
|---------|-------------|-------------|
|       0 | 0x093A      |        2362 |
|       1 | 0x0000      |           0 |
|       2 | 0x0080      |         128 |
|       3 | 0x000F      |          15 |
|       4 | 0x2FFE7     |      196583 |
|       5 | 0x92CF      |       37583 |
|       6 | 0xFFFFF736  |  4294965046 |
|       7 | 0x0A53      |        2643 |
|       8 | 0x0050      |          80 |
|       9 | 0x0060      |          96 |
|      10 | 0x001E      |          30 |
|      11 | 0x00A0      |         160 |
|      12 | 0x00C8      |         200 |
|      13 | 0x0001      |           1 |
|      14 | 0x0A57      |        2647 |
|      15 | 0x00F0      |         240 |

## Events

### Event 65535

#### Metadata

| Field        | Value   |
|--------------|---------|
| Entrypoint   | 0x0000  |
| Data Size    | 1 bytes |
| Instructions | 1       |

```
      00 01 02 03 04 05 06 07  08 09 0A 0B 0C 0D 0E 0F
      -- -- -- -- -- -- -- --  -- -- -- -- -- -- -- --
0000: 00                                                .               
```

#### Opcodes

```
  0: 0x0000 [0x00] END_REQSTACK()
```

### Event 65535.1

#### Metadata

| Field        | Value    |
|--------------|----------|
| Entrypoint   | 0x0001   |
| Data Size    | 19 bytes |
| Instructions | 5        |

```
      00 01 02 03 04 05 06 07  08 09 0A 0B 0C 0D 0E 0F
      -- -- -- -- -- -- -- --  -- -- -- -- -- -- -- --
0000:    B6 00 00 80 22 00 92  01 F8 FF FF 7F 94 01 F8   ...."..........
0010: FF FF 7F 00                                       ....            
```

#### Opcodes

```
  0: 0x0001 [0xB6] ENTITY_APPEARANCE_HANDLER(case=Hair style, value=2362*)
  1: 0x0005 [0x22] ENTITY_HIDE_FLAG(enabled=0x00)
  2: 0x0007 [0x92] EventEntity->Render.Flags3 ^= 0x01
  3: 0x000D [0x94] EventEntity->Render.Flags3 ^= 0x01
  4: 0x0013 [0x00] END_REQSTACK()
```

### Event 65535.2

#### Metadata

| Field        | Value    |
|--------------|----------|
| Entrypoint   | 0x0014   |
| Data Size    | 10 bytes |
| Instructions | 2        |

```
      00 01 02 03 04 05 06 07  08 09 0A 0B 0C 0D 0E 0F
      -- -- -- -- -- -- -- --  -- -- -- -- -- -- -- --
0010:             6C F8 FF FF  7F 01 80 01 80 00            l.........  
```

#### Opcodes

```
  0: 0x0014 [0x6C] FADE_ENTITY_COLOR(entity_id=EventEntity, end_alpha=0*, fade_time=0*)
  1: 0x001D [0x00] END_REQSTACK()
```

### Event 65535.3

#### Metadata

| Field        | Value    |
|--------------|----------|
| Entrypoint   | 0x001E   |
| Data Size    | 10 bytes |
| Instructions | 2        |

```
      00 01 02 03 04 05 06 07  08 09 0A 0B 0C 0D 0E 0F
      -- -- -- -- -- -- -- --  -- -- -- -- -- -- -- --
0010:                                            6C F8                l.
0020: FF FF 7F 02 80 01 80 00                           ........        
```

#### Opcodes

```
  0: 0x001E [0x6C] FADE_ENTITY_COLOR(entity_id=EventEntity, end_alpha=128*, fade_time=0*)
  1: 0x0027 [0x00] END_REQSTACK()
```

### Event 65535.4

#### Metadata

| Field        | Value    |
|--------------|----------|
| Entrypoint   | 0x0028   |
| Data Size    | 15 bytes |
| Instructions | 5        |

```
      00 01 02 03 04 05 06 07  08 09 0A 0B 0C 0D 0E 0F
      -- -- -- -- -- -- -- --  -- -- -- -- -- -- -- --
0020:                          32 03 80 1F 00 04 80 05          2.......
0030: 80 06 80 1F 01 6F 00                              .....o.         
```

#### Opcodes

```
  0: 0x0028 [0x32] ExtData[1]->MainSpeed = 15* * 0.1
  1: 0x002B [0x1F] MOVE_ENTITY: EventEntity moves to X=196.583*, Z=37.583*, Y=-2.250*
  2: 0x0033 [0x1F] MOVE_ENTITY: Update entity position (mode=1)
  3: 0x0035 [0x6F] WAIT_FRAME_DELAY: Yield until WaitTime reaches zero
  4: 0x0036 [0x00] END_REQSTACK()
```

### Event 5

#### Metadata

| Field        | Value   |
|--------------|---------|
| Entrypoint   | 0x0037  |
| Data Size    | 1 bytes |
| Instructions | 1       |

```
      00 01 02 03 04 05 06 07  08 09 0A 0B 0C 0D 0E 0F
      -- -- -- -- -- -- -- --  -- -- -- -- -- -- -- --
0030:                      00                                  .        
```

#### Opcodes

```
  0: 0x0037 [0x00] END_REQSTACK()
```

### Event 65535.5

#### Metadata

| Field        | Value    |
|--------------|----------|
| Entrypoint   | 0x0038   |
| Data Size    | 16 bytes |
| Instructions | 2        |

```
      00 01 02 03 04 05 06 07  08 09 0A 0B 0C 0D 0E 0F
      -- -- -- -- -- -- -- --  -- -- -- -- -- -- -- --
0030:                          5B 07 80 F8 FF FF 7F F8          [.......
0040: FF FF 7F 6B 70 73 64 00                           ...kpsd.        
```

#### Opcodes

```
  0: 0x0038 [0x5B] LOAD_EXT_SCHEDULER: Load scheduler "kpsd" with entities [EventEntity, EventEntity], work=2643*
  1: 0x0047 [0x00] END_REQSTACK()
```

### Event 65535.6

#### Metadata

| Field        | Value    |
|--------------|----------|
| Entrypoint   | 0x0048   |
| Data Size    | 19 bytes |
| Instructions | 3        |

```
      00 01 02 03 04 05 06 07  08 09 0A 0B 0C 0D 0E 0F
      -- -- -- -- -- -- -- --  -- -- -- -- -- -- -- --
0040:                          5B 07 80 F8 FF FF 7F F8          [.......
0050: FF FF 7F 6B 73 69 30 1C  08 80 00                 ...ksi0....     
```

#### Opcodes

```
  0: 0x0048 [0x5B] LOAD_EXT_SCHEDULER: Load scheduler "ksi0" with entities [EventEntity, EventEntity], work=2643*
  1: 0x0057 [0x1C] WAIT(80* ticks)
  2: 0x005A [0x00] END_REQSTACK()
```

### Event 65535.7

#### Metadata

| Field        | Value    |
|--------------|----------|
| Entrypoint   | 0x005B   |
| Data Size    | 19 bytes |
| Instructions | 3        |

```
      00 01 02 03 04 05 06 07  08 09 0A 0B 0C 0D 0E 0F
      -- -- -- -- -- -- -- --  -- -- -- -- -- -- -- --
0050:                                   5B 07 80 F8 FF             [....
0060: FF 7F F8 FF FF 7F 6B 73  69 31 1C 09 80 00        ......ksi1....  
```

#### Opcodes

```
  0: 0x005B [0x5B] LOAD_EXT_SCHEDULER: Load scheduler "ksi1" with entities [EventEntity, EventEntity], work=2643*
  1: 0x006A [0x1C] WAIT(96* ticks)
  2: 0x006D [0x00] END_REQSTACK()
```

### Event 65535.8

#### Metadata

| Field        | Value    |
|--------------|----------|
| Entrypoint   | 0x006E   |
| Data Size    | 19 bytes |
| Instructions | 3        |

```
      00 01 02 03 04 05 06 07  08 09 0A 0B 0C 0D 0E 0F
      -- -- -- -- -- -- -- --  -- -- -- -- -- -- -- --
0060:                                            5B 07                [.
0070: 80 F8 FF FF 7F F8 FF FF  7F 6E 73 74 64 1C 0A 80  .........nstd...
0080: 00                                                .               
```

#### Opcodes

```
  0: 0x006E [0x5B] LOAD_EXT_SCHEDULER: Load scheduler "nstd" with entities [EventEntity, EventEntity], work=2643*
  1: 0x007D [0x1C] WAIT(30* ticks)
  2: 0x0080 [0x00] END_REQSTACK()
```

### Event 65535.9

#### Metadata

| Field        | Value    |
|--------------|----------|
| Entrypoint   | 0x0081   |
| Data Size    | 19 bytes |
| Instructions | 3        |

```
      00 01 02 03 04 05 06 07  08 09 0A 0B 0C 0D 0E 0F
      -- -- -- -- -- -- -- --  -- -- -- -- -- -- -- --
0080:    5B 07 80 F8 FF FF 7F  F8 FF FF 7F 6B 73 75 30   [..........ksu0
0090: 1C 0B 80 00                                       ....            
```

#### Opcodes

```
  0: 0x0081 [0x5B] LOAD_EXT_SCHEDULER: Load scheduler "ksu0" with entities [EventEntity, EventEntity], work=2643*
  1: 0x0090 [0x1C] WAIT(160* ticks)
  2: 0x0093 [0x00] END_REQSTACK()
```

### Event 65535.10

#### Metadata

| Field        | Value    |
|--------------|----------|
| Entrypoint   | 0x0094   |
| Data Size    | 39 bytes |
| Instructions | 8        |

```
      00 01 02 03 04 05 06 07  08 09 0A 0B 0C 0D 0E 0F
      -- -- -- -- -- -- -- --  -- -- -- -- -- -- -- --
0090:             03 00 00 01  80 02 00 00 0C 80 03 BA      ............
00A0: 00 1C 0D 80 4A F8 FF FF  7F 00 81 0A 01 7B F8 FF  ....J........{..
00B0: FF 7F 07 00 00 0D 80 01  99 00 00                 ...........     
```

#### Opcodes

```
  0: 0x0094 [0x03] ExtData[1]->WorkLocal[0] = 0*
  1: 0x0099 [0x02] IF !(ExtData[1]->WorkLocal[0] >= 200*) GOTO 0x00BA
  2: 0x00A1 [0x1C] WAIT(1* ticks)
  3: 0x00A4 [0x4A] EventEntity looks at Goblin Repossessor (ID: 17465600/0x010A8100)
  4: 0x00AD [0x7B] EventEntity stops talking
  5: 0x00B2 [0x07] ExtData[1]->WorkLocal[0] += 1*
  6: 0x00B7 [0x01] GOTO 0x0099
  7: 0x00BA [0x00] END_REQSTACK()
```

### Event 6

#### Metadata

| Field        | Value   |
|--------------|---------|
| Entrypoint   | 0x00BB  |
| Data Size    | 1 bytes |
| Instructions | 1       |

```
      00 01 02 03 04 05 06 07  08 09 0A 0B 0C 0D 0E 0F
      -- -- -- -- -- -- -- --  -- -- -- -- -- -- -- --
00B0:                                   00                         .    
```

#### Opcodes

```
  0: 0x00BB [0x00] END_REQSTACK()
```

### Event 65535.11

#### Metadata

| Field        | Value    |
|--------------|----------|
| Entrypoint   | 0x00BC   |
| Data Size    | 19 bytes |
| Instructions | 3        |

```
      00 01 02 03 04 05 06 07  08 09 0A 0B 0C 0D 0E 0F
      -- -- -- -- -- -- -- --  -- -- -- -- -- -- -- --
00B0:                                      5B 0E 80 F8              [...
00C0: FF FF 7F F8 FF FF 7F 6D  75 70 30 1C 0F 80 00     .......mup0.... 
```

#### Opcodes

```
  0: 0x00BC [0x5B] LOAD_EXT_SCHEDULER: Load scheduler "mup0" with entities [EventEntity, EventEntity], work=2647*
  1: 0x00CB [0x1C] WAIT(240* ticks)
  2: 0x00CE [0x00] END_REQSTACK()
```

### Event 65535.12

#### Metadata

| Field        | Value    |
|--------------|----------|
| Entrypoint   | 0x00CF   |
| Data Size    | 19 bytes |
| Instructions | 3        |

```
      00 01 02 03 04 05 06 07  08 09 0A 0B 0C 0D 0E 0F
      -- -- -- -- -- -- -- --  -- -- -- -- -- -- -- --
00C0:                                               5B                 [
00D0: 0E 80 F8 FF FF 7F F8 FF  FF 7F 77 61 76 30 1C 0B  ..........wav0..
00E0: 80 00                                             ..              
```

#### Opcodes

```
  0: 0x00CF [0x5B] LOAD_EXT_SCHEDULER: Load scheduler "wav0" with entities [EventEntity, EventEntity], work=2647*
  1: 0x00DE [0x1C] WAIT(160* ticks)
  2: 0x00E1 [0x00] END_REQSTACK()
```
