# 17465597 - Moogle

## Common Data

| Field            | Value                        |
|------------------|------------------------------|
| Zone             | Chamber of Oracles (ID: 168) |
| Block Size       | 532 bytes                    |
| Total Events     | 21                           |
| References Count | 26                           |

## List of Events

| Event ID                   | Entrypoint   |   Size |   Instructions |
|----------------------------|--------------|--------|----------------|
| [65535](#event-65535)      | 0x0000       |      1 |              1 |
| [65535.1](#event-655351)   | 0x0001       |     19 |              5 |
| [65535.2](#event-655352)   | 0x0014       |     26 |              8 |
| [65535.3](#event-655353)   | 0x002E       |     19 |              3 |
| [65535.4](#event-655354)   | 0x0041       |     16 |              2 |
| [65535.5](#event-655355)   | 0x0051       |     16 |              2 |
| [65535.6](#event-655356)   | 0x0061       |     16 |              2 |
| [65535.7](#event-655357)   | 0x0071       |     16 |              2 |
| [5](#event-5)              | 0x0081       |      1 |              1 |
| [65535.8](#event-655358)   | 0x0082       |     16 |              2 |
| [65535.9](#event-655359)   | 0x0092       |     19 |              3 |
| [65535.10](#event-6553510) | 0x00A5       |     15 |              5 |
| [65535.11](#event-6553511) | 0x00B4       |     19 |              3 |
| [65535.12](#event-6553512) | 0x00C7       |     16 |              2 |
| [65535.13](#event-6553513) | 0x00D7       |     16 |              2 |
| [65535.14](#event-6553514) | 0x00E7       |     16 |              2 |
| [65535.15](#event-6553515) | 0x00F7       |     14 |              4 |
| [65535.16](#event-6553516) | 0x0105       |     34 |              7 |
| [65535.17](#event-6553517) | 0x0127       |     10 |              2 |
| [6](#event-6)              | 0x0131       |      1 |              1 |
| [65535.18](#event-6553518) | 0x0132       |     19 |              3 |

## DAT References (imed_data)

|   Index | Hex Value   |   Dec Value |
|---------|-------------|-------------|
|       0 | 0x0939      |        2361 |
|       1 | 0x0078      |         120 |
|       2 | 0x30D4B     |      200011 |
|       3 | 0x764A      |       30282 |
|       4 | 0xFFFFF8C6  |  4294965446 |
|       5 | 0x2FF84     |      196484 |
|       6 | 0x8739      |       34617 |
|       7 | 0xFFFFF736  |  4294965046 |
|       8 | 0x0A57      |        2647 |
|       9 | 0x00F0      |         240 |
|      10 | 0x0A4C      |        2636 |
|      11 | 0x0168      |         360 |
|      12 | 0x0032      |          50 |
|      13 | 0xFFFFFC7C  |  4294966396 |
|      14 | 0xFFFF88C8  |  4294936776 |
|      15 | 0xFFFFF63D  |  4294964797 |
|      16 | 0x0A53      |        2643 |
|      17 | 0x0A52      |        2642 |
|      18 | 0x0028      |          40 |
|      19 | 0xFFFFFA24  |  4294965796 |
|      20 | 0xFFFFF0B4  |  4294963380 |
|      21 | 0x031A      |         794 |
|      22 | 0x0000      |           0 |
|      23 | 0x00C8      |         200 |
|      24 | 0x0001      |           1 |
|      25 | 0x00A0      |         160 |

## Events

### Event 65535

#### Metadata

| Field        | Value   |
|--------------|---------|
| Entrypoint   | 0x0000  |
| Data Size    | 1 bytes |
| Instructions | 1       |

```
      00 01 02 03 04 05 06 07  08 09 0A 0B 0C 0D 0E 0F
      -- -- -- -- -- -- -- --  -- -- -- -- -- -- -- --
0000: 00                                                .               
```

#### Opcodes

```
  0: 0x0000 [0x00] END_REQSTACK()
```

### Event 65535.1

#### Metadata

| Field        | Value    |
|--------------|----------|
| Entrypoint   | 0x0001   |
| Data Size    | 19 bytes |
| Instructions | 5        |

```
      00 01 02 03 04 05 06 07  08 09 0A 0B 0C 0D 0E 0F
      -- -- -- -- -- -- -- --  -- -- -- -- -- -- -- --
0000:    B6 00 00 80 22 00 92  01 F8 FF FF 7F 94 01 F8   ...."..........
0010: FF FF 7F 00                                       ....            
```

#### Opcodes

```
  0: 0x0001 [0xB6] ENTITY_APPEARANCE_HANDLER(case=Hair style, value=2361*)
  1: 0x0005 [0x22] ENTITY_HIDE_FLAG(enabled=0x00)
  2: 0x0007 [0x92] EventEntity->Render.Flags3 ^= 0x01
  3: 0x000D [0x94] EventEntity->Render.Flags3 ^= 0x01
  4: 0x0013 [0x00] END_REQSTACK()
```

### Event 65535.2

#### Metadata

| Field        | Value    |
|--------------|----------|
| Entrypoint   | 0x0014   |
| Data Size    | 26 bytes |
| Instructions | 8        |

```
      00 01 02 03 04 05 06 07  08 09 0A 0B 0C 0D 0E 0F
      -- -- -- -- -- -- -- --  -- -- -- -- -- -- -- --
0010:             32 01 80 1F  00 02 80 03 80 04 80 1F      2...........
0020: 01 6F 1F 00 05 80 06 80  07 80 1F 01 6F 00        .o..........o.  
```

#### Opcodes

```
  0: 0x0014 [0x32] ExtData[1]->MainSpeed = 120* * 0.1
  1: 0x0017 [0x1F] MOVE_ENTITY: EventEntity moves to X=200.011*, Z=30.282*, Y=-1.850*
  2: 0x001F [0x1F] MOVE_ENTITY: Update entity position (mode=1)
  3: 0x0021 [0x6F] WAIT_FRAME_DELAY: Yield until WaitTime reaches zero
  4: 0x0022 [0x1F] MOVE_ENTITY: EventEntity moves to X=196.484*, Z=34.617*, Y=-2.250*
  5: 0x002A [0x1F] MOVE_ENTITY: Update entity position (mode=1)
  6: 0x002C [0x6F] WAIT_FRAME_DELAY: Yield until WaitTime reaches zero
  7: 0x002D [0x00] END_REQSTACK()
```

### Event 65535.3

#### Metadata

| Field        | Value    |
|--------------|----------|
| Entrypoint   | 0x002E   |
| Data Size    | 19 bytes |
| Instructions | 3        |

```
      00 01 02 03 04 05 06 07  08 09 0A 0B 0C 0D 0E 0F
      -- -- -- -- -- -- -- --  -- -- -- -- -- -- -- --
0020:                                            5B 08                [.
0030: 80 F8 FF FF 7F F8 FF FF  7F 6D 75 70 30 1C 09 80  .........mup0...
0040: 00                                                .               
```

#### Opcodes

```
  0: 0x002E [0x5B] LOAD_EXT_SCHEDULER: Load scheduler "mup0" with entities [EventEntity, EventEntity], work=2647*
  1: 0x003D [0x1C] WAIT(240* ticks)
  2: 0x0040 [0x00] END_REQSTACK()
```

### Event 65535.4

#### Metadata

| Field        | Value    |
|--------------|----------|
| Entrypoint   | 0x0041   |
| Data Size    | 16 bytes |
| Instructions | 2        |

```
      00 01 02 03 04 05 06 07  08 09 0A 0B 0C 0D 0E 0F
      -- -- -- -- -- -- -- --  -- -- -- -- -- -- -- --
0040:    5B 0A 80 F8 FF FF 7F  F8 FF FF 7F 74 6C 6B 30   [..........tlk0
0050: 00                                                .               
```

#### Opcodes

```
  0: 0x0041 [0x5B] LOAD_EXT_SCHEDULER: Load scheduler "tlk0" with entities [EventEntity, EventEntity], work=2636*
  1: 0x0050 [0x00] END_REQSTACK()
```

### Event 65535.5

#### Metadata

| Field        | Value    |
|--------------|----------|
| Entrypoint   | 0x0051   |
| Data Size    | 16 bytes |
| Instructions | 2        |

```
      00 01 02 03 04 05 06 07  08 09 0A 0B 0C 0D 0E 0F
      -- -- -- -- -- -- -- --  -- -- -- -- -- -- -- --
0050:    5B 0A 80 F8 FF FF 7F  F8 FF FF 7F 68 61 70 30   [..........hap0
0060: 00                                                .               
```

#### Opcodes

```
  0: 0x0051 [0x5B] LOAD_EXT_SCHEDULER: Load scheduler "hap0" with entities [EventEntity, EventEntity], work=2636*
  1: 0x0060 [0x00] END_REQSTACK()
```

### Event 65535.6

#### Metadata

| Field        | Value    |
|--------------|----------|
| Entrypoint   | 0x0061   |
| Data Size    | 16 bytes |
| Instructions | 2        |

```
      00 01 02 03 04 05 06 07  08 09 0A 0B 0C 0D 0E 0F
      -- -- -- -- -- -- -- --  -- -- -- -- -- -- -- --
0060:    5B 0A 80 F8 FF FF 7F  F8 FF FF 7F 6B 72 75 30   [..........kru0
0070: 00                                                .               
```

#### Opcodes

```
  0: 0x0061 [0x5B] LOAD_EXT_SCHEDULER: Load scheduler "kru0" with entities [EventEntity, EventEntity], work=2636*
  1: 0x0070 [0x00] END_REQSTACK()
```

### Event 65535.7

#### Metadata

| Field        | Value    |
|--------------|----------|
| Entrypoint   | 0x0071   |
| Data Size    | 16 bytes |
| Instructions | 2        |

```
      00 01 02 03 04 05 06 07  08 09 0A 0B 0C 0D 0E 0F
      -- -- -- -- -- -- -- --  -- -- -- -- -- -- -- --
0070:    5B 0A 80 F8 FF FF 7F  F8 FF FF 7F 73 74 64 30   [..........std0
0080: 00                                                .               
```

#### Opcodes

```
  0: 0x0071 [0x5B] LOAD_EXT_SCHEDULER: Load scheduler "std0" with entities [EventEntity, EventEntity], work=2636*
  1: 0x0080 [0x00] END_REQSTACK()
```

### Event 5

#### Metadata

| Field        | Value   |
|--------------|---------|
| Entrypoint   | 0x0081  |
| Data Size    | 1 bytes |
| Instructions | 1       |

```
      00 01 02 03 04 05 06 07  08 09 0A 0B 0C 0D 0E 0F
      -- -- -- -- -- -- -- --  -- -- -- -- -- -- -- --
0080:    00                                              .              
```

#### Opcodes

```
  0: 0x0081 [0x00] END_REQSTACK()
```

### Event 65535.8

#### Metadata

| Field        | Value    |
|--------------|----------|
| Entrypoint   | 0x0082   |
| Data Size    | 16 bytes |
| Instructions | 2        |

```
      00 01 02 03 04 05 06 07  08 09 0A 0B 0C 0D 0E 0F
      -- -- -- -- -- -- -- --  -- -- -- -- -- -- -- --
0080:       5B 08 80 F8 FF FF  7F F8 FF FF 7F 6D 64 77    [..........mdw
0090: 30 00                                             0.              
```

#### Opcodes

```
  0: 0x0082 [0x5B] LOAD_EXT_SCHEDULER: Load scheduler "mdw0" with entities [EventEntity, EventEntity], work=2647*
  1: 0x0091 [0x00] END_REQSTACK()
```

### Event 65535.9

#### Metadata

| Field        | Value    |
|--------------|----------|
| Entrypoint   | 0x0092   |
| Data Size    | 19 bytes |
| Instructions | 3        |

```
      00 01 02 03 04 05 06 07  08 09 0A 0B 0C 0D 0E 0F
      -- -- -- -- -- -- -- --  -- -- -- -- -- -- -- --
0090:       5B 08 80 F8 FF FF  7F F8 FF FF 7F 6D 64 77    [..........mdw
00A0: 31 1C 0B 80 00                                    1....           
```

#### Opcodes

```
  0: 0x0092 [0x5B] LOAD_EXT_SCHEDULER: Load scheduler "mdw1" with entities [EventEntity, EventEntity], work=2647*
  1: 0x00A1 [0x1C] WAIT(360* ticks)
  2: 0x00A4 [0x00] END_REQSTACK()
```

### Event 65535.10

#### Metadata

| Field        | Value    |
|--------------|----------|
| Entrypoint   | 0x00A5   |
| Data Size    | 15 bytes |
| Instructions | 5        |

```
      00 01 02 03 04 05 06 07  08 09 0A 0B 0C 0D 0E 0F
      -- -- -- -- -- -- -- --  -- -- -- -- -- -- -- --
00A0:                32 0C 80  1F 00 0D 80 0E 80 0F 80       2..........
00B0: 1F 01 6F 00                                       ..o.            
```

#### Opcodes

```
  0: 0x00A5 [0x32] ExtData[1]->MainSpeed = 50* * 0.1
  1: 0x00A8 [0x1F] MOVE_ENTITY: EventEntity moves to X=-0.900*, Z=-30.520*, Y=-2.499*
  2: 0x00B0 [0x1F] MOVE_ENTITY: Update entity position (mode=1)
  3: 0x00B2 [0x6F] WAIT_FRAME_DELAY: Yield until WaitTime reaches zero
  4: 0x00B3 [0x00] END_REQSTACK()
```

### Event 65535.11

#### Metadata

| Field        | Value    |
|--------------|----------|
| Entrypoint   | 0x00B4   |
| Data Size    | 19 bytes |
| Instructions | 3        |

```
      00 01 02 03 04 05 06 07  08 09 0A 0B 0C 0D 0E 0F
      -- -- -- -- -- -- -- --  -- -- -- -- -- -- -- --
00B0:             5B 10 80 F8  FF FF 7F F8 FF FF 7F 67      [..........g
00C0: 61 6B 30 1C 01 80 00                              ak0....         
```

#### Opcodes

```
  0: 0x00B4 [0x5B] LOAD_EXT_SCHEDULER: Load scheduler "gak0" with entities [EventEntity, EventEntity], work=2643*
  1: 0x00C3 [0x1C] WAIT(120* ticks)
  2: 0x00C6 [0x00] END_REQSTACK()
```

### Event 65535.12

#### Metadata

| Field        | Value    |
|--------------|----------|
| Entrypoint   | 0x00C7   |
| Data Size    | 16 bytes |
| Instructions | 2        |

```
      00 01 02 03 04 05 06 07  08 09 0A 0B 0C 0D 0E 0F
      -- -- -- -- -- -- -- --  -- -- -- -- -- -- -- --
00C0:                      5B  10 80 F8 FF FF 7F F8 FF         [........
00D0: FF 7F 67 61 6B 31 00                              ..gak1.         
```

#### Opcodes

```
  0: 0x00C7 [0x5B] LOAD_EXT_SCHEDULER: Load scheduler "gak1" with entities [EventEntity, EventEntity], work=2643*
  1: 0x00D6 [0x00] END_REQSTACK()
```

### Event 65535.13

#### Metadata

| Field        | Value    |
|--------------|----------|
| Entrypoint   | 0x00D7   |
| Data Size    | 16 bytes |
| Instructions | 2        |

```
      00 01 02 03 04 05 06 07  08 09 0A 0B 0C 0D 0E 0F
      -- -- -- -- -- -- -- --  -- -- -- -- -- -- -- --
00D0:                      5B  11 80 F8 FF FF 7F F8 FF         [........
00E0: FF 7F 6B 79 6F 30 00                              ..kyo0.         
```

#### Opcodes

```
  0: 0x00D7 [0x5B] LOAD_EXT_SCHEDULER: Load scheduler "kyo0" with entities [EventEntity, EventEntity], work=2642*
  1: 0x00E6 [0x00] END_REQSTACK()
```

### Event 65535.14

#### Metadata

| Field        | Value    |
|--------------|----------|
| Entrypoint   | 0x00E7   |
| Data Size    | 16 bytes |
| Instructions | 2        |

```
      00 01 02 03 04 05 06 07  08 09 0A 0B 0C 0D 0E 0F
      -- -- -- -- -- -- -- --  -- -- -- -- -- -- -- --
00E0:                      5B  0A 80 F8 FF FF 7F F8 FF         [........
00F0: FF 7F 70 6E 63 30 00                              ..pnc0.         
```

#### Opcodes

```
  0: 0x00E7 [0x5B] LOAD_EXT_SCHEDULER: Load scheduler "pnc0" with entities [EventEntity, EventEntity], work=2636*
  1: 0x00F6 [0x00] END_REQSTACK()
```

### Event 65535.15

#### Metadata

| Field        | Value    |
|--------------|----------|
| Entrypoint   | 0x00F7   |
| Data Size    | 14 bytes |
| Instructions | 4        |

```
      00 01 02 03 04 05 06 07  08 09 0A 0B 0C 0D 0E 0F
      -- -- -- -- -- -- -- --  -- -- -- -- -- -- -- --
00F0:                      32  12 80 5A 00 13 80 14 80         2..Z.....
0100: 15 80 5A 01 00                                    ..Z..           
```

#### Opcodes

```
  0: 0x00F7 [0x32] ExtData[1]->MainSpeed = 40* * 0.1
  1: 0x00FA [0x5A] UPDATE_EVENT_POSITION: Set EventEntity MovePosition to X=-1.500*, Z=-3.916*, Y=0.794*
  2: 0x0102 [0x5A] UPDATE_EVENT_POSITION: Move EventEntity incrementally towards MovePosition
  3: 0x0104 [0x00] END_REQSTACK()
```

### Event 65535.16

#### Metadata

| Field        | Value    |
|--------------|----------|
| Entrypoint   | 0x0105   |
| Data Size    | 34 bytes |
| Instructions | 7        |

```
      00 01 02 03 04 05 06 07  08 09 0A 0B 0C 0D 0E 0F
      -- -- -- -- -- -- -- --  -- -- -- -- -- -- -- --
0100:                03 00 00  16 80 02 00 00 17 80 03       ...........
0110: 26 01 1C 18 80 4A F8 FF  FF 7F 00 81 0A 01 07 00  &....J..........
0120: 00 18 80 01 0A 01 00                              .......         
```

#### Opcodes

```
  0: 0x0105 [0x03] ExtData[1]->WorkLocal[0] = 0*
  1: 0x010A [0x02] IF !(ExtData[1]->WorkLocal[0] >= 200*) GOTO 0x0126
  2: 0x0112 [0x1C] WAIT(1* ticks)
  3: 0x0115 [0x4A] EventEntity looks at Goblin Repossessor (ID: 17465600/0x010A8100)
  4: 0x011E [0x07] ExtData[1]->WorkLocal[0] += 1*
  5: 0x0123 [0x01] GOTO 0x010A
  6: 0x0126 [0x00] END_REQSTACK()
```

### Event 65535.17

#### Metadata

| Field        | Value    |
|--------------|----------|
| Entrypoint   | 0x0127   |
| Data Size    | 10 bytes |
| Instructions | 2        |

```
      00 01 02 03 04 05 06 07  08 09 0A 0B 0C 0D 0E 0F
      -- -- -- -- -- -- -- --  -- -- -- -- -- -- -- --
0120:                      6C  F8 FF FF 7F 16 80 16 80         l........
0130: 00                                                .               
```

#### Opcodes

```
  0: 0x0127 [0x6C] FADE_ENTITY_COLOR(entity_id=EventEntity, end_alpha=0*, fade_time=0*)
  1: 0x0130 [0x00] END_REQSTACK()
```

### Event 6

#### Metadata

| Field        | Value   |
|--------------|---------|
| Entrypoint   | 0x0131  |
| Data Size    | 1 bytes |
| Instructions | 1       |

```
      00 01 02 03 04 05 06 07  08 09 0A 0B 0C 0D 0E 0F
      -- -- -- -- -- -- -- --  -- -- -- -- -- -- -- --
0130:    00                                              .              
```

#### Opcodes

```
  0: 0x0131 [0x00] END_REQSTACK()
```

### Event 65535.18

#### Metadata

| Field        | Value    |
|--------------|----------|
| Entrypoint   | 0x0132   |
| Data Size    | 19 bytes |
| Instructions | 3        |

```
      00 01 02 03 04 05 06 07  08 09 0A 0B 0C 0D 0E 0F
      -- -- -- -- -- -- -- --  -- -- -- -- -- -- -- --
0130:       5B 08 80 F8 FF FF  7F F8 FF FF 7F 77 61 76    [..........wav
0140: 30 1C 19 80 00                                    0....           
```

#### Opcodes

```
  0: 0x0132 [0x5B] LOAD_EXT_SCHEDULER: Load scheduler "wav0" with entities [EventEntity, EventEntity], work=2647*
  1: 0x0141 [0x1C] WAIT(160* ticks)
  2: 0x0144 [0x00] END_REQSTACK()
```
