# 17465594

## Common Data

| Field            | Value                        |
|------------------|------------------------------|
| Zone             | Chamber of Oracles (ID: 168) |
| Block Size       | 7448 bytes                   |
| Total Events     | 3                            |
| References Count | 147                          |

## List of Events

| Event ID              | Entrypoint   |   Size |   Instructions |
|-----------------------|--------------|--------|----------------|
| [65535](#event-65535) | 0x0000       |      1 |              1 |
| [5](#event-5)         | 0x0001       |   3585 |            562 |
| [6](#event-6)         | 0x0E02       |   3245 |            490 |

## DAT References (imed_data)

|   Index | Hex Value   |   Dec Value |
|---------|-------------|-------------|
|       0 | 0x0013      |          19 |
|       1 | 0x0000      |           0 |
|       2 | 0xFFFEFE30  |  4294901296 |
|       3 | 0xFFFFF4C6  |  4294964422 |
|       4 | 0x0C00      |        3072 |
|       5 | 0xFFFFFC7C  |  4294966396 |
|       6 | 0xFFFF0DCA  |  4294905290 |
|       7 | 0x0C01      |        3073 |
|       8 | 0xFFFFF63C  |  4294964796 |
|       9 | 0xFFFFF60E  |  4294964750 |
|      10 | 0x0338      |         824 |
|      11 | 0x29A5      |       10661 |
|      12 | 0x1A03      |        6659 |
|      13 | 0xFFFFFFEE  |  4294967278 |
|      14 | 0x0CB4      |        3252 |
|      15 | 0x189C      |        6300 |
|      16 | 0x0DBC      |        3516 |
|      17 | 0x024A      |         586 |
|      18 | 0x09D0      |        2512 |
|      19 | 0x0430      |        1072 |
|      20 | 0xFFFF8769  |  4294936425 |
|      21 | 0xFFFFF63D  |  4294964797 |
|      22 | 0x039C      |         924 |
|      23 | 0x1FD6      |        8150 |
|      24 | 0x0C24      |        3108 |
|      25 | 0x00FC      |         252 |
|      26 | 0xFFFFFCEA  |  4294966506 |
|      27 | 0xFFFFEF48  |  4294963016 |
|      28 | 0x0319      |         793 |
|      29 | 0x001E      |          30 |
|      30 | 0x000F      |          15 |
|      31 | 0x0001      |           1 |
|      32 | 0x0014      |          20 |
|      33 | 0x0002      |           2 |
|      34 | 0x0003      |           3 |
|      35 | 0x0004      |           4 |
|      36 | 0x0005      |           5 |
|      37 | 0x0026      |          38 |
|      38 | 0x0006      |           6 |
|      39 | 0x0007      |           7 |
|      40 | 0xFFFFFA24  |  4294965796 |
|      41 | 0xFFFFF0B4  |  4294963380 |
|      42 | 0x031A      |         794 |
|      43 | 0xFFFFEDA4  |  4294962596 |
|      44 | 0x0008      |           8 |
|      45 | 0x0009      |           9 |
|      46 | 0x000A      |          10 |
|      47 | 0x000B      |          11 |
|      48 | 0x000C      |          12 |
|      49 | 0x000D      |          13 |
|      50 | 0x000E      |          14 |
|      51 | 0x0010      |          16 |
|      52 | 0x0011      |          17 |
|      53 | 0x0012      |          18 |
|      54 | 0xFFFFFCB2  |  4294966450 |
|      55 | 0xFFFFEEC8  |  4294962888 |
|      56 | 0x030F      |         783 |
|      57 | 0xFFFFF519  |  4294964505 |
|      58 | 0xFFFFF12C  |  4294963500 |
|      59 | 0x0300      |         768 |
|      60 | 0x0140      |         320 |
|      61 | 0xFFFFFFA1  |  4294967201 |
|      62 | 0x0DEC      |        3564 |
|      63 | 0x032C      |         812 |
|      64 | 0xFFFFF8DE  |  4294965470 |
|      65 | 0xFFFFF36F  |  4294964079 |
|      66 | 0xFFFFF36D  |  4294964077 |
|      67 | 0x0312      |         786 |
|      68 | 0x0015      |          21 |
|      69 | 0x003C      |          60 |
|      70 | 0x00C8      |         200 |
|      71 | 0x1E23      |        7715 |
|      72 | 0x01D2      |         466 |
|      73 | 0x00B4      |         180 |
|      74 | 0x0032      |          50 |
|      75 | 0x1E1A      |        7706 |
|      76 | 0x00C4      |         196 |
|      77 | 0x005A      |          90 |
|      78 | 0x0078      |         120 |
|      79 | 0x1E1B      |        7707 |
|      80 | 0x0028      |          40 |
|      81 | 0x1E1C      |        7708 |
|      82 | 0x1E1D      |        7709 |
|      83 | 0x1E1E      |        7710 |
|      84 | 0x1E1F      |        7711 |
|      85 | 0x1E20      |        7712 |
|      86 | 0x1E21      |        7713 |
|      87 | 0x1E22      |        7714 |
|      88 | 0x1E24      |        7716 |
|      89 | 0x1E25      |        7717 |
|      90 | 0x00A3      |         163 |
|      91 | 0x1E26      |        7718 |
|      92 | 0x1E27      |        7719 |
|      93 | 0x1E28      |        7720 |
|      94 | 0x1E29      |        7721 |
|      95 | 0x1E2A      |        7722 |
|      96 | 0x1E2B      |        7723 |
|      97 | 0x1E2C      |        7724 |
|      98 | 0x00C1      |         193 |
|      99 | 0x1E2D      |        7725 |
|     100 | 0x1E2E      |        7726 |
|     101 | 0x1E2F      |        7727 |
|     102 | 0x1E30      |        7728 |
|     103 | 0xFFFFF736  |  4294965046 |
|     104 | 0xFFFFF25F  |  4294963807 |
|     105 | 0x06BC      |        1724 |
|     106 | 0xFFFFF737  |  4294965047 |
|     107 | 0xFFFFF30B  |  4294963979 |
|     108 | 0x0B1A      |        2842 |
|     109 | 0x0CCF      |        3279 |
|     110 | 0x0BF2      |        3058 |
|     111 | 0x0849      |        2121 |
|     112 | 0x12FA      |        4858 |
|     113 | 0x0DF9      |        3577 |
|     114 | 0x101B      |        4123 |
|     115 | 0x048B      |        1163 |
|     116 | 0x174F      |        5967 |
|     117 | 0x07D0      |        2000 |
|     118 | 0x03E8      |        1000 |
|     119 | 0x1E31      |        7729 |
|     120 | 0x01D3      |         467 |
|     121 | 0x1E32      |        7730 |
|     122 | 0x1E33      |        7731 |
|     123 | 0x1E34      |        7732 |
|     124 | 0x002D      |          45 |
|     125 | 0x1E35      |        7733 |
|     126 | 0x1E36      |        7734 |
|     127 | 0x1E37      |        7735 |
|     128 | 0x012C      |         300 |
|     129 | 0x1E38      |        7736 |
|     130 | 0x00A1      |         161 |
|     131 | 0x1E39      |        7737 |
|     132 | 0x1E3A      |        7738 |
|     133 | 0x1E3B      |        7739 |
|     134 | 0x0050      |          80 |
|     135 | 0x0046      |          70 |
|     136 | 0x0064      |         100 |
|     137 | 0x1E3C      |        7740 |
|     138 | 0x0590      |        1424 |
|     139 | 0x0081      |         129 |
|     140 | 0x1DDF      |        7647 |
|     141 | 0x1E3D      |        7741 |
|     142 | 0x1E3E      |        7742 |
|     143 | 0x1E3F      |        7743 |
|     144 | 0x0096      |         150 |
|     145 | 0x00C9      |         201 |
|     146 | 0x00D7      |         215 |

## String References

- **7647**: 
- **7715**: Rescue? Whatever are you talking about?
- **7729**: Yeowch! You're strongerrr than ya look.

## Events

### Event 65535

#### Metadata

| Field        | Value   |
|--------------|---------|
| Entrypoint   | 0x0000  |
| Data Size    | 1 bytes |
| Instructions | 1       |

```
      00 01 02 03 04 05 06 07  08 09 0A 0B 0C 0D 0E 0F
      -- -- -- -- -- -- -- --  -- -- -- -- -- -- -- --
0000: 00                                                .               
```

#### Opcodes

```
  0: 0x0000 [0x00] END_REQSTACK()
```

### Event 5

#### Metadata

| Field        | Value      |
|--------------|------------|
| Entrypoint   | 0x0001     |
| Data Size    | 3585 bytes |
| Instructions | 562        |

```
      00 01 02 03 04 05 06 07  08 09 0A 0B 0C 0D 0E 0F
      -- -- -- -- -- -- -- --  -- -- -- -- -- -- -- --
0000:    42 1A E9 19 46 01 38  00 80 27 10 FB 80 0A 01   B...F.8..'.....
0010: 01 27 10 F0 FF FF 7F 17  27 10 FD 80 0A 01 01 27  .'......'......'
0020: 10 FE 80 0A 01 01 27 10  FF 80 0A 01 01 27 10 00  ......'......'..
0030: 81 0A 01 01 27 10 01 81  0A 01 01 27 10 02 81 0A  ....'......'....
0040: 01 01 27 10 03 81 0A 01  01 27 10 00 81 0A 01 04  ..'......'......
0050: 27 10 01 81 0A 01 04 27  10 02 81 0A 01 04 BA F0  '......'........
0060: FF FF 7F 01 80 02 80 03  80 04 80 BA FD 80 0A 01  ................
0070: 05 80 06 80 03 80 07 80  BA FE 80 0A 01 08 80 09  ................
0080: 80 0A 80 01 80 BA FF 80  0A 01 0B 80 0C 80 0D 80  ................
0090: 0E 80 BA 00 81 0A 01 0F  80 10 80 11 80 12 80 BA  ................
00A0: 01 81 0A 01 13 80 14 80  15 80 16 80 BA 02 81 0A  ................
00B0: 01 17 80 18 80 19 80 12  80 BA 03 81 0A 01 1A 80  ................
00C0: 1B 80 1C 80 12 80 80 F0  FF FF 7F 80 FD 80 0A 01  ................
00D0: 80 FE 80 0A 01 80 FF 80  0A 01 80 00 81 0A 01 80  ................
00E0: 01 81 0A 01 80 02 81 0A  01 80 03 81 0A 01 1C 1D  ................
00F0: 80 2C FE 80 0A 01 FE 80  0A 01 6B 69 6C 61 79 00  .,........kilay.
0100: F0 FF FF 7F FD 80 0A 01  4A FD 80 0A 01 F0 FF FF  ........J.......
0110: 7F 4A FE 80 0A 01 01 81  0A 01 4A FF 80 0A 01 F0  .J........J.....
0120: FF FF 7F 4A 00 81 0A 01  F0 FF FF 7F 4A 02 81 0A  ...J........J...
0130: 01 F0 FF FF 7F 6F 76 FD  80 0A 01 6F 76 FE 80 0A  .....ov....ov...
0140: 01 6F 76 FF 80 0A 01 6F  76 00 81 0A 01 6F 76 02  .ov....ov....ov.
0150: 81 0A 01 1C 1E 80 7B F0  FF FF 7F 7B FD 80 0A 01  ......{....{....
0160: 7B FF 80 0A 01 7B 00 81  0A 01 7B 01 81 0A 01 7B  {....{....{....{
0170: 02 81 0A 01 1C 1E 80 27  10 FE 80 0A 01 06 27 10  .......'......'.
0180: F0 FF FF 7F 1A 27 10 00  81 0A 01 02 27 10 01 81  .....'......'...
0190: 0A 01 02 27 10 02 81 0A  01 02 27 10 03 81 0A 01  ...'......'.....
01A0: 02 27 10 FF 80 0A 01 06  27 10 01 81 0A 01 05 1C  .'......'.......
01B0: 1D 80 03 00 00 1F 80 02  00 00 20 80 05 C4 05 02  .......... .....
01C0: 01 80 00 00 04 BC 05 02  00 00 21 80 80 E6 01 1A  ..........!.....
01D0: C8 19 27 10 F0 FF FF 7F  1C 79 00 F0 FF FF 7F FD  ..'......y......
01E0: 80 0A 01 01 BC 05 02 00  00 22 80 80 FF 01 27 10  ........."....'.
01F0: FD 80 0A 01 05 27 10 FD  80 0A 01 07 01 BC 05 02  .....'..........
0200: 00 00 23 80 80 24 02 7B  F0 FF FF 7F 27 10 F0 FF  ..#..$.{....'...
0210: FF 7F 1D 27 10 FD 80 0A  01 0B 27 10 D6 80 0A 01  ...'......'.....
0220: 01 01 BC 05 02 00 00 24  80 80 6E 02 27 10 01 81  .......$..n.'...
0230: 0A 01 06 27 10 01 81 0A  01 03 4A FD 80 0A 01 01  ...'......J.....
0240: 81 0A 01 4A F0 FF FF 7F  01 81 0A 01 6F 76 FD 80  ...J........ov..
0250: 0A 01 6F 76 F0 FF FF 7F  27 10 FD 80 0A 01 0F 6E  ..ov....'......n
0260: F0 FF FF 7F 25 80 99 F0  FF FF 7F 01 BC 05 02 00  ....%...........
0270: 00 26 80 80 AE 02 7B FD  80 0A 01 7B F0 FF FF 7F  .&....{....{....
0280: 4B FD 80 0A 01 04 80 4B  F0 FF FF 7F 04 80 6F 76  K......K......ov
0290: FD 80 0A 01 6F 76 F0 FF  FF 7F 27 10 FD 80 0A 01  ....ov....'.....
02A0: 10 27 10 F0 FF FF 7F 1E  1A E9 19 01 BC 05 02 00  .'..............
02B0: 00 27 80 80 19 03 BA FD  80 0A 01 28 80 29 80 2A  .'.........(.).*
02C0: 80 01 80 BA F0 FF FF 7F  01 80 2B 80 2A 80 01 80  ..........+.*...
02D0: 80 FD 80 0A 01 80 F0 FF  FF 7F 4A FD 80 0A 01 FE  ..........J.....
02E0: 80 0A 01 4A F0 FF FF 7F  FE 80 0A 01 4A FE 80 0A  ...J........J...
02F0: 01 FD 80 0A 01 6F 76 F0  FF FF 7F 6F 76 FD 80 0A  .....ov....ov...
0300: 01 6F 76 FE 80 0A 01 7B  FE 80 0A 01 1A C8 19 27  .ov....{.......'
0310: 10 D6 80 0A 01 02 01 BC  05 02 00 00 2C 80 80 49  ............,..I
0320: 03 7B FE 80 0A 01 27 10  FE 80 0A 01 07 27 10 FE  .{....'......'..
0330: 80 0A 01 08 4A 00 81 0A  01 FD 80 0A 01 4A 02 81  ....J........J..
0340: 0A 01 FD 80 0A 01 01 BC  05 02 00 00 2D 80 80 62  ............-..b
0350: 03 27 10 FD 80 0A 01 04  27 10 FD 80 0A 01 07 01  .'......'.......
0360: BC 05 02 00 00 2E 80 80  6D 03 01 BC 05 02 00 00  ........m.......
0370: 2F 80 80 94 03 27 10 FD  80 0A 01 0C 27 10 FD 80  /....'......'...
0380: 0A 01 0D 27 10 00 81 0A  01 03 27 10 02 81 0A 01  ...'......'.....
0390: 03 01 BC 05 02 00 00 30  80 80 CC 03 79 00 F0 FF  .......0....y...
03A0: FF 7F 00 81 0A 01 27 10  FD 80 0A 01 11 27 10 FE  ......'......'..
03B0: 80 0A 01 0B 27 10 00 81  0A 01 21 27 10 02 81 0A  ....'.....!'....
03C0: 01 06 27 10 F0 FF FF 7F  1F 01 BC 05 02 00 00 31  ..'............1
03D0: 80 80 E5 03 27 10 00 81  0A 01 22 27 10 00 81 0A  ....'....."'....
03E0: 01 23 01 BC 05 02 00 00  32 80 80 FE 03 27 10 FD  .#......2....'..
03F0: 80 0A 01 05 27 10 FD 80  0A 01 07 01 BC 05 02 00  ....'...........
0400: 00 1E 80 80 1E 04 27 10  00 81 0A 01 22 27 10 00  ......'....."'..
0410: 81 0A 01 23 27 10 00 81  0A 01 1F 01 BC 05 02 00  ...#'...........
0420: 00 33 80 80 55 04 27 10  00 81 0A 01 20 27 10 FF  .3..U.'..... '..
0430: 80 0A 01 07 4A 00 81 0A  01 FF 80 0A 01 4A 02 81  ....J........J..
0440: 0A 01 FF 80 0A 01 6F 76  00 81 0A 01 6F 76 02 81  ......ov....ov..
0450: 0A 01 01 BC 05 02 00 00  34 80 80 63 04 1A E9 19  ........4..c....
0460: 01 BC 05 02 00 00 35 80  80 7C 05 27 10 FF 80 0A  ......5..|.'....
0470: 01 07 4A 00 81 0A 01 03  81 0A 01 4A 02 81 0A 01  ..J........J....
0480: 03 81 0A 01 4A F0 FF FF  7F FF 80 0A 01 4A FD 80  ....J........J..
0490: 0A 01 FF 80 0A 01 4A FE  80 0A 01 FF 80 0A 01 6F  ......J........o
04A0: 76 F0 FF FF 7F 6F 76 FD  80 0A 01 6F 76 FE 80 0A  v....ov....ov...
04B0: 01 BA F0 FF FF 7F 36 80  37 80 38 80 0E 80 BA FD  ......6.7.8.....
04C0: 80 0A 01 39 80 3A 80 3B  80 0E 80 BA 00 81 0A 01  ...9.:.;........
04D0: 3C 80 3D 80 0A 80 3E 80  BA FF 80 0A 01 3F 80 40  <.=...>......?.@
04E0: 80 0A 80 01 80 BA FE 80  0A 01 41 80 42 80 43 80  ..........A.B.C.
04F0: 0E 80 80 F0 FF FF 7F 80  FD 80 0A 01 80 00 81 0A  ................
0500: 01 80 FF 80 0A 01 80 FE  80 0A 01 4A F0 FF FF 7F  ...........J....
0510: FF 80 0A 01 4A FD 80 0A  01 FF 80 0A 01 4A FE 80  ....J........J..
0520: 0A 01 FF 80 0A 01 4A FF  80 0A 01 03 81 0A 01 4A  ......J........J
0530: 00 81 0A 01 03 81 0A 01  6F 76 FF 80 0A 01 6F 76  ........ov....ov
0540: 00 81 0A 01 6F 76 FE 80  0A 01 6F 76 F0 FF FF 7F  ....ov....ov....
0550: 6F 76 FD 80 0A 01 7B FF  80 0A 01 7B FE 80 0A 01  ov....{....{....
0560: 7B FD 80 0A 01 7B 00 81  0A 01 7B 02 81 0A 01 1A  {....{....{.....
0570: C8 19 27 10 00 81 0A 01  1E 01 BC 05 02 00 00 00  ..'.............
0580: 80 80 8E 05 27 10 FF 80  0A 01 0A 01 BC 05 02 00  ....'...........
0590: 00 20 80 80 99 05 01 BC  05 02 00 00 44 80 80 BC  . ..........D...
05A0: 05 27 10 00 81 0A 01 1F  27 10 02 81 0A 01 11 27  .'......'......'
05B0: 10 F0 FF FF 7F 18 1A E9  19 01 BC 05 07 00 00 1F  ................
05C0: 80 01 B7 01 03 00 00 1F  80 02 00 00 20 80 05 E4  ............ ...
05D0: 05 02 01 80 00 00 05 DC  05 1A 22 06 07 00 00 1F  ..........".....
05E0: 80 01 C9 05 27 10 F0 FF  FF 7F 19 1C 45 80 1A E9  ....'.......E...
05F0: 19 1A 0A 1A 1C 1D 80 5C  00 01 80 5C 01 01 80 9A  .......\...\....
0600: 46 00 45 46 80 F0 FF FF  7F F0 FF FF 7F 66 64 69  F.EF.........fdi
0610: 32 01 80 21 00 02 01 80  1F 80 00 21 06 48 47 80  2..!.......!.HG.
0620: 23 1B 02 00 00 1F 80 80  67 06 45 48 80 F0 FF FF  #.......g.EH....
0630: 7F F0 FF FF 7F 6A 30 30  31 01 80 1A C8 19 27 10  .....j001.....'.
0640: F0 FF FF 7F 1C 1C 49 80  79 00 F0 FF FF 7F FD 80  ......I.y.......
0650: 0A 01 55 48 80 F0 FF FF  7F F0 FF FF 7F 6A 30 30  ..UH.........j00
0660: 31 1C 4A 80 01 01 0E 02  00 00 21 80 80 B4 06 45  1.J.......!....E
0670: 48 80 F0 FF FF 7F F0 FF  FF 7F 6A 30 30 32 01 80  H.........j002..
0680: 27 10 FD 80 0A 01 05 2B  FD 80 0A 01 4B 80 23 27  '......+....K.#'
0690: 10 FD 80 0A 01 07 5C 00  4C 80 5C 01 4C 80 9A 1C  ......\.L.\.L...
06A0: 1D 80 52 48 80 F0 FF FF  7F F0 FF FF 7F 6A 30 30  ..RH.........j00
06B0: 32 01 01 0E 02 00 00 22  80 80 13 07 45 48 80 F0  2......"....EH..
06C0: FF FF 7F F0 FF FF 7F 6A  30 30 33 01 80 7B F0 FF  .......j003..{..
06D0: FF 7F 1C 1D 80 27 10 F0  FF FF 7F 1D 1C 20 80 27  .....'....... .'
06E0: 10 FD 80 0A 01 0B 1C 4D  80 27 10 FB 80 0A 01 04  .......M.'......
06F0: 1C 4E 80 27 10 FB 80 0A  01 05 27 10 D6 80 0A 01  .N.'......'.....
0700: 01 55 48 80 F0 FF FF 7F  F0 FF FF 7F 6A 30 30 33  .UH.........j003
0710: 01 01 0E 02 00 00 23 80  80 CA 07 45 48 80 F0 FF  ......#....EH...
0720: FF 7F F0 FF FF 7F 6A 30  30 34 01 80 1C 4A 80 2B  ......j004...J.+
0730: FD 80 0A 01 4F 80 1C 1D  80 5D 01 80 45 80 27 10  ....O....]..E.'.
0740: 01 81 0A 01 06 27 10 01  81 0A 01 03 1C 50 80 4A  .....'.......P.J
0750: FD 80 0A 01 01 81 0A 01  4A F0 FF FF 7F 01 81 0A  ........J.......
0760: 01 6F 76 FD 80 0A 01 6F  76 F0 FF FF 7F 27 10 FD  .ov....ov....'..
0770: 80 0A 01 0F 6E F0 FF FF  7F 25 80 99 F0 FF FF 7F  ....n....%......
0780: 2B FD 80 0A 01 51 80 2A  10 FD 80 0A 01 1C 4E 80  +....Q.*......N.
0790: 55 48 80 F0 FF FF 7F F0  FF FF 7F 6A 30 30 34 45  UH.........j004E
07A0: 48 80 F0 FF FF 7F F0 FF  FF 7F 6A 34 30 34 01 80  H.........j404..
07B0: 2B FB 80 0A 01 52 80 23  52 48 80 F0 FF FF 7F F0  +....R.#RH......
07C0: FF FF 7F 6A 34 30 34 01  01 0E 02 00 00 24 80 80  ...j404......$..
07D0: 40 08 45 48 80 F0 FF FF  7F F0 FF FF 7F 6A 30 30  @.EH.........j00
07E0: 35 01 80 7B FD 80 0A 01  7B F0 FF FF 7F 1C 1D 80  5..{....{.......
07F0: 4B FD 80 0A 01 04 80 1C  2E 80 4B F0 FF FF 7F 04  K.........K.....
0800: 80 6F 76 FD 80 0A 01 6F  76 F0 FF FF 7F 1C 50 80  .ov....ov.....P.
0810: 2B FD 80 0A 01 53 80 1C  50 80 27 10 FD 80 0A 01  +....S..P.'.....
0820: 10 27 10 F0 FF FF 7F 1E  1C 45 80 1A E9 19 52 48  .'.......E....RH
0830: 80 F0 FF FF 7F F0 FF FF  7F 6A 30 30 35 01 01 0E  .........j005...
0840: 02 00 00 26 80 80 E6 08  1C 1E 80 BA FD 80 0A 01  ...&............
0850: 28 80 29 80 2A 80 01 80  BA F0 FF FF 7F 01 80 2B  (.).*..........+
0860: 80 2A 80 01 80 80 FD 80  0A 01 80 F0 FF FF 7F 1C  .*..............
0870: 1E 80 4A FD 80 0A 01 FE  80 0A 01 4A F0 FF FF 7F  ..J........J....
0880: FE 80 0A 01 4A FE 80 0A  01 FD 80 0A 01 6F 76 F0  ....J........ov.
0890: FF FF 7F 6F 76 FD 80 0A  01 6F 76 FE 80 0A 01 7B  ...ov....ov....{
08A0: FE 80 0A 01 1C 1D 80 45  48 80 F0 FF FF 7F F0 FF  .......EH.......
08B0: FF 7F 6A 30 30 36 01 80  1A C8 19 1C 1D 80 27 10  ..j006........'.
08C0: FD 80 0A 01 05 2B FD 80  0A 01 54 80 23 27 10 FD  .....+....T.#'..
08D0: 80 0A 01 07 52 48 80 F0  FF FF 7F F0 FF FF 7F 6A  ....RH.........j
08E0: 30 30 36 01 01 0E 02 00  00 27 80 80 48 09 45 48  006......'..H.EH
08F0: 80 F0 FF FF 7F F0 FF FF  7F 6A 30 30 37 01 80 1C  .........j007...
0900: 50 80 2B FE 80 0A 01 55  80 23 7B FE 80 0A 01 27  P.+....U.#{....'
0910: 10 FE 80 0A 01 07 2B FE  80 0A 01 56 80 23 2A 10  ......+....V.#*.
0920: FE 80 0A 01 4A 00 81 0A  01 FD 80 0A 01 4A 02 81  ....J........J..
0930: 0A 01 FD 80 0A 01 52 48  80 F0 FF FF 7F F0 FF FF  ......RH........
0940: 7F 6A 30 30 37 01 01 0E  02 00 00 2C 80 80 9E 09  .j007......,....
0950: 45 48 80 F0 FF FF 7F F0  FF FF 7F 6A 30 30 38 01  EH.........j008.
0960: 80 27 10 FD 80 0A 01 04  27 10 FE 80 0A 01 08 2B  .'......'......+
0970: FD 80 0A 01 57 80 23 2B  FE 80 0A 01 47 80 23 27  ....W.#+....G.#'
0980: 10 FD 80 0A 01 07 2A 10  FE 80 0A 01 52 48 80 F0  ......*.....RH..
0990: FF FF 7F F0 FF FF 7F 6A  30 30 38 01 01 0E 02 00  .......j008.....
09A0: 00 2D 80 80 E1 09 45 48  80 F0 FF FF 7F F0 FF FF  .-....EH........
09B0: 7F 6A 30 30 39 01 80 27  10 FE 80 0A 01 0A 1C 1E  .j009..'........
09C0: 80 2B FE 80 0A 01 58 80  23 2A 10 FE 80 0A 01 52  .+....X.#*.....R
09D0: 48 80 F0 FF FF 7F F0 FF  FF 7F 6A 30 30 39 01 01  H.........j009..
09E0: 0E 02 00 00 2E 80 80 42  0A 45 48 80 F0 FF FF 7F  .......B.EH.....
09F0: F0 FF FF 7F 6A 30 30 61  01 80 1C 1D 80 27 10 FD  ....j00a.....'..
0A00: 80 0A 01 0C 2B FD 80 0A  01 59 80 23 2A 10 FD 80  ....+....Y.#*...
0A10: 0A 01 5C 00 5A 80 5C 01  5A 80 9A 29 10 FD 80 0A  ..\.Z.\.Z..)....
0A20: 01 0D 27 10 00 81 0A 01  03 27 10 02 81 0A 01 03  ..'......'......
0A30: 52 48 80 F0 FF FF 7F F0  FF FF 7F 6A 30 30 61 01  RH.........j00a.
0A40: 01 0E 02 00 00 2F 80 80  B2 0A 45 48 80 F0 FF FF  ...../....EH....
0A50: 7F F0 FF FF 7F 6A 30 30  62 01 80 79 00 F0 FF FF  .....j00b..y....
0A60: 7F 00 81 0A 01 27 10 FD  80 0A 01 11 27 10 FE 80  .....'......'...
0A70: 0A 01 0B 27 10 00 81 0A  01 21 1C 2C 80 27 10 02  ...'.....!.,.'..
0A80: 81 0A 01 06 2B FB 80 0A  01 5B 80 4A F0 FF FF 7F  ....+....[.J....
0A90: 00 81 0A 01 2A 10 00 81  0A 01 2A 10 02 81 0A 01  ....*.....*.....
0AA0: 55 48 80 F0 FF FF 7F F0  FF FF 7F 6A 30 30 62 01  UH.........j00b.
0AB0: 01 0E 02 00 00 30 80 80  09 0B 45 48 80 F0 FF FF  .....0....EH....
0AC0: 7F F0 FF FF 7F 6A 30 30  63 01 80 27 10 02 81 0A  .....j00c..'....
0AD0: 01 0A 2B 02 81 0A 01 5C  80 23 29 10 02 81 0A 01  ..+....\.#).....
0AE0: 0B 27 10 00 81 0A 01 22  2B 00 81 0A 01 5D 80 23  .'....."+....].#
0AF0: 27 10 00 81 0A 01 23 52  48 80 F0 FF FF 7F F0 FF  '.....#RH.......
0B00: FF 7F 6A 30 30 63 01 01  0E 02 00 00 31 80 80 51  ..j00c......1..Q
0B10: 0B 27 10 FE 80 0A 01 02  45 48 80 F0 FF FF 7F F0  .'......EH......
0B20: FF FF 7F 6A 30 30 64 01  80 27 10 FD 80 0A 01 05  ...j00d..'......
0B30: 2B FD 80 0A 01 5E 80 23  27 10 FD 80 0A 01 07 52  +....^.#'......R
0B40: 48 80 F0 FF FF 7F F0 FF  FF 7F 6A 30 30 64 01 01  H.........j00d..
0B50: 0E 02 00 00 32 80 80 BF  0B 45 48 80 F0 FF FF 7F  ....2....EH.....
0B60: F0 FF FF 7F 6A 30 30 65  01 80 27 10 FE 80 0A 01  ....j00e..'.....
0B70: 03 27 10 00 81 0A 01 22  2B 00 81 0A 01 5F 80 23  .'....."+...._.#
0B80: 27 10 00 81 0A 01 23 27  10 00 81 0A 01 1F 5D 01  '.....#'......].
0B90: 80 45 80 1C 45 80 2B 00  81 0A 01 60 80 23 4A FF  .E..E.+....`.#J.
0BA0: 80 0A 01 F0 FF FF 7F 2A  10 00 81 0A 01 52 48 80  .......*.....RH.
0BB0: F0 FF FF 7F F0 FF FF 7F  6A 30 30 65 01 01 0E 02  ........j00e....
0BC0: 00 00 1E 80 80 CA 0B 01  01 0E 02 00 00 33 80 80  .............3..
0BD0: 40 0C 45 48 80 F0 FF FF  7F F0 FF FF 7F 6A 30 30  @.EH.........j00
0BE0: 66 01 80 1C 1D 80 27 10  FF 80 0A 01 07 1C 1D 80  f.....'.........
0BF0: 4A 02 81 0A 01 FF 80 0A  01 6F 76 02 81 0A 01 79  J........ov....y
0C00: 00 F0 FF FF 7F FF 80 0A  01 27 10 FF 80 0A 01 0B  .........'......
0C10: 1C 1D 80 27 10 02 81 0A  01 08 2B 02 81 0A 01 61  ...'......+....a
0C20: 80 27 10 02 81 0A 01 09  1A 15 06 55 48 80 F0 FF  .'.........UH...
0C30: FF 7F F0 FF FF 7F 6A 30  30 66 1A E9 19 01 01 0E  ......j00f......
0C40: 02 00 00 34 80 80 48 0D  29 10 00 81 0A 01 20 27  ...4..H.)..... '
0C50: 10 FD 80 0A 01 12 27 10  FE 80 0A 01 02 27 10 FF  ......'......'..
0C60: 80 0A 01 07 4A 00 81 0A  01 03 81 0A 01 4A 02 81  ....J........J..
0C70: 0A 01 03 81 0A 01 4A F0  FF FF 7F FF 80 0A 01 6F  ......J........o
0C80: 76 F0 FF FF 7F 1C 1D 80  BA F0 FF FF 7F 36 80 37  v............6.7
0C90: 80 38 80 0E 80 BA 00 81  0A 01 3C 80 3D 80 0A 80  .8........<.=...
0CA0: 3E 80 BA FF 80 0A 01 3F  80 40 80 0A 80 01 80 80  >......?.@......
0CB0: F0 FF FF 7F 80 00 81 0A  01 80 FF 80 0A 01 1C 1E  ................
0CC0: 80 4A F0 FF FF 7F FF 80  0A 01 4A FF 80 0A 01 03  .J........J.....
0CD0: 81 0A 01 4A 00 81 0A 01  03 81 0A 01 6F 76 FF 80  ...J........ov..
0CE0: 0A 01 6F 76 00 81 0A 01  6F 76 F0 FF FF 7F 1C 1E  ..ov....ov......
0CF0: 80 7B FF 80 0A 01 7B 00  81 0A 01 7B 02 81 0A 01  .{....{....{....
0D00: 5C 00 62 80 5C 01 62 80  9A 1C 1D 80 45 48 80 F0  \.b.\.b.....EH..
0D10: FF FF 7F F0 FF FF 7F 6A  30 30 67 01 80 1A C8 19  .......j00g.....
0D20: 27 10 00 81 0A 01 22 2B  00 81 0A 01 63 80 23 29  '....."+....c.#)
0D30: 10 00 81 0A 01 23 52 48  80 F0 FF FF 7F F0 FF FF  .....#RH........
0D40: 7F 6A 30 30 67 01 01 0E  02 00 00 35 80 80 85 0D  .j00g......5....
0D50: 45 48 80 F0 FF FF 7F F0  FF FF 7F 6A 30 30 68 01  EH.........j00h.
0D60: 80 29 10 FF 80 0A 01 0A  1C 1D 80 2B FF 80 0A 01  .).........+....
0D70: 64 80 23 52 48 80 F0 FF  FF 7F F0 FF FF 7F 6A 30  d.#RH.........j0
0D80: 30 68 01 01 0E 02 00 00  00 80 80 C6 0D 45 48 80  0h...........EH.
0D90: F0 FF FF 7F F0 FF FF 7F  6A 30 30 69 01 80 2B FF  ........j00i..+.
0DA0: 80 0A 01 65 80 23 27 10  00 81 0A 01 1F 27 10 02  ...e.#'......'..
0DB0: 81 0A 01 11 52 48 80 F0  FF FF 7F F0 FF FF 7F 6A  ....RH.........j
0DC0: 30 30 69 01 01 0E 02 00  00 20 80 80 01 0E 45 48  00i...... ....EH
0DD0: 80 F0 FF FF 7F F0 FF FF  7F 6A 30 30 6A 01 80 2B  .........j00j..+
0DE0: FF 80 0A 01 66 80 1C 50  80 1A 6D 1A 52 48 80 F0  ....f..P..m.RH..
0DF0: FF FF 7F F0 FF FF 7F 6A  30 30 6A 1C 1D 80 01 01  .......j00j.....
0E00: 0E 1B                                             ..              
```

#### Opcodes

```
  0: 0x0001 [0x42] SET_CLI_EVENT_CANCEL_DATA()
  1: 0x0002 [0x1A] CALL_SUBROUTINE(address=0x19E9)
  2: 0x0005 [0x46] CAMERA_CONTROL: Disable user control
  3: 0x0007 [0x38] SET_CLIENT_EVENT_MODE(mode=19*)
  4: 0x000A [0x27] REQ_SET(priority=0x10, entity_id=??? (ID: 17465595/0x010A80FB), tag_num=0x01)
  5: 0x0011 [0x27] REQ_SET(priority=0x10, entity_id=LocalPlayer, tag_num=0x17)
  6: 0x0018 [0x27] REQ_SET(priority=0x10, entity_id=Moogle (ID: 17465597/0x010A80FD), tag_num=0x01)
  7: 0x001F [0x27] REQ_SET(priority=0x10, entity_id=Kupiruru (ID: 17465598/0x010A80FE), tag_num=0x01)
  8: 0x0026 [0x27] REQ_SET(priority=0x10, entity_id=Nanaa Mihgo (ID: 17465599/0x010A80FF), tag_num=0x01)
  9: 0x002D [0x27] REQ_SET(priority=0x10, entity_id=Goblin Repossessor (ID: 17465600/0x010A8100), tag_num=0x01)
 10: 0x0034 [0x27] REQ_SET(priority=0x10, entity_id=Goblin Intimidator (ID: 17465601/0x010A8101), tag_num=0x01)
 11: 0x003B [0x27] REQ_SET(priority=0x10, entity_id=Goblin Enforcer (ID: 17465602/0x010A8102), tag_num=0x01)
 12: 0x0042 [0x27] REQ_SET(priority=0x10, entity_id=4 (ID: 17465603/0x010A8103), tag_num=0x01)
 13: 0x0049 [0x27] REQ_SET(priority=0x10, entity_id=Goblin Repossessor (ID: 17465600/0x010A8100), tag_num=0x04)
 14: 0x0050 [0x27] REQ_SET(priority=0x10, entity_id=Goblin Intimidator (ID: 17465601/0x010A8101), tag_num=0x04)
 15: 0x0057 [0x27] REQ_SET(priority=0x10, entity_id=Goblin Enforcer (ID: 17465602/0x010A8102), tag_num=0x04)
 16: 0x005E [0xBA] SET_ENTITY_POSITION(entity_id=LocalPlayer, pos_x=0.000*, pos_z=-66.000*, pos_y=-2.874*, direction=270.0°*)
 17: 0x006B [0xBA] SET_ENTITY_POSITION(entity_id=Moogle (ID: 17465597/0x010A80FD), pos_x=-0.900*, pos_z=-62.006*, pos_y=-2.874*, direction=270.1°*)
 18: 0x0078 [0xBA] SET_ENTITY_POSITION(entity_id=Kupiruru (ID: 17465598/0x010A80FE), pos_x=-2.500*, pos_z=-2.546*, pos_y=0.824*, direction=0.0°*)
 19: 0x0085 [0xBA] SET_ENTITY_POSITION(entity_id=Nanaa Mihgo (ID: 17465599/0x010A80FF), pos_x=10.661*, pos_z=6.659*, pos_y=-0.018*, direction=285.8°*)
 20: 0x0092 [0xBA] SET_ENTITY_POSITION(entity_id=Goblin Repossessor (ID: 17465600/0x010A8100), pos_x=6.300*, pos_z=3.516*, pos_y=0.586*, direction=220.8°*)
 21: 0x009F [0xBA] SET_ENTITY_POSITION(entity_id=Goblin Intimidator (ID: 17465601/0x010A8101), pos_x=1.072*, pos_z=-30.871*, pos_y=-2.499*, direction=81.2°*)
 22: 0x00AC [0xBA] SET_ENTITY_POSITION(entity_id=Goblin Enforcer (ID: 17465602/0x010A8102), pos_x=8.150*, pos_z=3.108*, pos_y=0.252*, direction=220.8°*)
 23: 0x00B9 [0xBA] SET_ENTITY_POSITION(entity_id=4 (ID: 17465603/0x010A8103), pos_x=-0.790*, pos_z=-4.280*, pos_y=0.793*, direction=220.8°*)
 24: 0x00C6 [0x80] LOAD_WAIT(entity=LocalPlayer)
 25: 0x00CB [0x80] LOAD_WAIT(entity=Moogle (ID: 17465597/0x010A80FD))
 26: 0x00D0 [0x80] LOAD_WAIT(entity=Kupiruru (ID: 17465598/0x010A80FE))
 27: 0x00D5 [0x80] LOAD_WAIT(entity=Nanaa Mihgo (ID: 17465599/0x010A80FF))
 28: 0x00DA [0x80] LOAD_WAIT(entity=Goblin Repossessor (ID: 17465600/0x010A8100))
 29: 0x00DF [0x80] LOAD_WAIT(entity=Goblin Intimidator (ID: 17465601/0x010A8101))
 30: 0x00E4 [0x80] LOAD_WAIT(entity=Goblin Enforcer (ID: 17465602/0x010A8102))
 31: 0x00E9 [0x80] LOAD_WAIT(entity=4 (ID: 17465603/0x010A8103))
 32: 0x00EE [0x1C] WAIT(30* ticks)
 33: 0x00F1 [0x2C] CREATE_SCHEDULER_TASK: Create scheduler "kila" with entities [Kupiruru (ID: 17465598/0x010A80FE), Kupiruru (ID: 17465598/0x010A80FE)]
 34: 0x00FE [0x79] LocalPlayer looks at Moogle (ID: 17465597/0x010A80FD) (Basic look)
 35: 0x0108 [0x4A] Moogle (ID: 17465597/0x010A80FD) looks at LocalPlayer
 36: 0x0111 [0x4A] Kupiruru (ID: 17465598/0x010A80FE) looks at Goblin Intimidator (ID: 17465601/0x010A8101)
 37: 0x011A [0x4A] Nanaa Mihgo (ID: 17465599/0x010A80FF) looks at LocalPlayer
 38: 0x0123 [0x4A] Goblin Repossessor (ID: 17465600/0x010A8100) looks at LocalPlayer
 39: 0x012C [0x4A] Goblin Enforcer (ID: 17465602/0x010A8102) looks at LocalPlayer
 40: 0x0135 [0x6F] WAIT_FRAME_DELAY: Yield until WaitTime reaches zero
 41: 0x0136 [0x76] CHECK_ENTITY_RENDER_FLAGS: Wait until Moogle (ID: 17465597/0x010A80FD) Render.Flags0 and Render.Flags3 conditions are met
 42: 0x013B [0x6F] WAIT_FRAME_DELAY: Yield until WaitTime reaches zero
 43: 0x013C [0x76] CHECK_ENTITY_RENDER_FLAGS: Wait until Kupiruru (ID: 17465598/0x010A80FE) Render.Flags0 and Render.Flags3 conditions are met
 44: 0x0141 [0x6F] WAIT_FRAME_DELAY: Yield until WaitTime reaches zero
 45: 0x0142 [0x76] CHECK_ENTITY_RENDER_FLAGS: Wait until Nanaa Mihgo (ID: 17465599/0x010A80FF) Render.Flags0 and Render.Flags3 conditions are met
 46: 0x0147 [0x6F] WAIT_FRAME_DELAY: Yield until WaitTime reaches zero
 47: 0x0148 [0x76] CHECK_ENTITY_RENDER_FLAGS: Wait until Goblin Repossessor (ID: 17465600/0x010A8100) Render.Flags0 and Render.Flags3 conditions are met
 48: 0x014D [0x6F] WAIT_FRAME_DELAY: Yield until WaitTime reaches zero
 49: 0x014E [0x76] CHECK_ENTITY_RENDER_FLAGS: Wait until Goblin Enforcer (ID: 17465602/0x010A8102) Render.Flags0 and Render.Flags3 conditions are met
 50: 0x0153 [0x1C] WAIT(15* ticks)
 51: 0x0156 [0x7B] LocalPlayer stops talking
 52: 0x015B [0x7B] Moogle (ID: 17465597/0x010A80FD) stops talking
 53: 0x0160 [0x7B] Nanaa Mihgo (ID: 17465599/0x010A80FF) stops talking
 54: 0x0165 [0x7B] Goblin Repossessor (ID: 17465600/0x010A8100) stops talking
 55: 0x016A [0x7B] Goblin Intimidator (ID: 17465601/0x010A8101) stops talking
 56: 0x016F [0x7B] Goblin Enforcer (ID: 17465602/0x010A8102) stops talking
 57: 0x0174 [0x1C] WAIT(15* ticks)
 58: 0x0177 [0x27] REQ_SET(priority=0x10, entity_id=Kupiruru (ID: 17465598/0x010A80FE), tag_num=0x06)
 59: 0x017E [0x27] REQ_SET(priority=0x10, entity_id=LocalPlayer, tag_num=0x1A)
 60: 0x0185 [0x27] REQ_SET(priority=0x10, entity_id=Goblin Repossessor (ID: 17465600/0x010A8100), tag_num=0x02)
 61: 0x018C [0x27] REQ_SET(priority=0x10, entity_id=Goblin Intimidator (ID: 17465601/0x010A8101), tag_num=0x02)
 62: 0x0193 [0x27] REQ_SET(priority=0x10, entity_id=Goblin Enforcer (ID: 17465602/0x010A8102), tag_num=0x02)
 63: 0x019A [0x27] REQ_SET(priority=0x10, entity_id=4 (ID: 17465603/0x010A8103), tag_num=0x02)
 64: 0x01A1 [0x27] REQ_SET(priority=0x10, entity_id=Nanaa Mihgo (ID: 17465599/0x010A80FF), tag_num=0x06)
 65: 0x01A8 [0x27] REQ_SET(priority=0x10, entity_id=Goblin Intimidator (ID: 17465601/0x010A8101), tag_num=0x05)
 66: 0x01AF [0x1C] WAIT(30* ticks)
 67: 0x01B2 [0x03] ExtData[1]->WorkLocal[0] = 1*
 68: 0x01B7 [0x02] IF !(ExtData[1]->WorkLocal[0] > 20*) GOTO 0x05C4
 69: 0x01BF [0x02] IF !(0* < ExtData[1]->WorkLocal[0]) GOTO 0x05BC
 70: 0x01C7 [0x02] IF !(ExtData[1]->WorkLocal[0] == 2*) GOTO 0x01E6
 71: 0x01CF [0x1A] CALL_SUBROUTINE(address=0x19C8)
 72: 0x01D2 [0x27] REQ_SET(priority=0x10, entity_id=LocalPlayer, tag_num=0x1C)
 73: 0x01D9 [0x79] LocalPlayer looks at Moogle (ID: 17465597/0x010A80FD) (Basic look)
 74: 0x01E3 [0x01] GOTO 0x05BC
 75: 0x01E6 [0x02] IF !(ExtData[1]->WorkLocal[0] == 3*) GOTO 0x01FF
 76: 0x01EE [0x27] REQ_SET(priority=0x10, entity_id=Moogle (ID: 17465597/0x010A80FD), tag_num=0x05)
 77: 0x01F5 [0x27] REQ_SET(priority=0x10, entity_id=Moogle (ID: 17465597/0x010A80FD), tag_num=0x07)
 78: 0x01FC [0x01] GOTO 0x05BC
 79: 0x01FF [0x02] IF !(ExtData[1]->WorkLocal[0] == 4*) GOTO 0x0224
 80: 0x0207 [0x7B] LocalPlayer stops talking
 81: 0x020C [0x27] REQ_SET(priority=0x10, entity_id=LocalPlayer, tag_num=0x1D)
 82: 0x0213 [0x27] REQ_SET(priority=0x10, entity_id=Moogle (ID: 17465597/0x010A80FD), tag_num=0x0B)
 83: 0x021A [0x27] REQ_SET(priority=0x10, entity_id=Cermet Door (ID: 17465558/0x010A80D6), tag_num=0x01)
 84: 0x0221 [0x01] GOTO 0x05BC
 85: 0x0224 [0x02] IF !(ExtData[1]->WorkLocal[0] == 5*) GOTO 0x026E
 86: 0x022C [0x27] REQ_SET(priority=0x10, entity_id=Goblin Intimidator (ID: 17465601/0x010A8101), tag_num=0x06)
 87: 0x0233 [0x27] REQ_SET(priority=0x10, entity_id=Goblin Intimidator (ID: 17465601/0x010A8101), tag_num=0x03)
 88: 0x023A [0x4A] Moogle (ID: 17465597/0x010A80FD) looks at Goblin Intimidator (ID: 17465601/0x010A8101)
 89: 0x0243 [0x4A] LocalPlayer looks at Goblin Intimidator (ID: 17465601/0x010A8101)
 90: 0x024C [0x6F] WAIT_FRAME_DELAY: Yield until WaitTime reaches zero
 91: 0x024D [0x76] CHECK_ENTITY_RENDER_FLAGS: Wait until Moogle (ID: 17465597/0x010A80FD) Render.Flags0 and Render.Flags3 conditions are met
 92: 0x0252 [0x6F] WAIT_FRAME_DELAY: Yield until WaitTime reaches zero
 93: 0x0253 [0x76] CHECK_ENTITY_RENDER_FLAGS: Wait until LocalPlayer Render.Flags0 and Render.Flags3 conditions are met
 94: 0x0258 [0x27] REQ_SET(priority=0x10, entity_id=Moogle (ID: 17465597/0x010A80FD), tag_num=0x0F)
 95: 0x025F [0x6E] LocalPlayer uses emote 38*
 96: 0x0266 [0x99] Wait for LocalPlayer animation to complete
 97: 0x026B [0x01] GOTO 0x05BC
 98: 0x026E [0x02] IF !(ExtData[1]->WorkLocal[0] == 6*) GOTO 0x02AE
 99: 0x0276 [0x7B] Moogle (ID: 17465597/0x010A80FD) stops talking
100: 0x027B [0x7B] LocalPlayer stops talking
101: 0x0280 [0x4B] UPDATE_ENTITY_YAW(entity=Moogle (ID: 17465597/0x010A80FD), yaw=16.9°*)
102: 0x0287 [0x4B] UPDATE_ENTITY_YAW(entity=LocalPlayer, yaw=16.9°*)
103: 0x028E [0x6F] WAIT_FRAME_DELAY: Yield until WaitTime reaches zero
104: 0x028F [0x76] CHECK_ENTITY_RENDER_FLAGS: Wait until Moogle (ID: 17465597/0x010A80FD) Render.Flags0 and Render.Flags3 conditions are met
105: 0x0294 [0x6F] WAIT_FRAME_DELAY: Yield until WaitTime reaches zero
106: 0x0295 [0x76] CHECK_ENTITY_RENDER_FLAGS: Wait until LocalPlayer Render.Flags0 and Render.Flags3 conditions are met
107: 0x029A [0x27] REQ_SET(priority=0x10, entity_id=Moogle (ID: 17465597/0x010A80FD), tag_num=0x10)
108: 0x02A1 [0x27] REQ_SET(priority=0x10, entity_id=LocalPlayer, tag_num=0x1E)
109: 0x02A8 [0x1A] CALL_SUBROUTINE(address=0x19E9)
110: 0x02AB [0x01] GOTO 0x05BC
111: 0x02AE [0x02] IF !(ExtData[1]->WorkLocal[0] == 7*) GOTO 0x0319
112: 0x02B6 [0xBA] SET_ENTITY_POSITION(entity_id=Moogle (ID: 17465597/0x010A80FD), pos_x=-1.500*, pos_z=-3.916*, pos_y=0.794*, direction=0.0°*)
113: 0x02C3 [0xBA] SET_ENTITY_POSITION(entity_id=LocalPlayer, pos_x=0.000*, pos_z=-4.700*, pos_y=0.794*, direction=0.0°*)
114: 0x02D0 [0x80] LOAD_WAIT(entity=Moogle (ID: 17465597/0x010A80FD))
115: 0x02D5 [0x80] LOAD_WAIT(entity=LocalPlayer)
116: 0x02DA [0x4A] Moogle (ID: 17465597/0x010A80FD) looks at Kupiruru (ID: 17465598/0x010A80FE)
117: 0x02E3 [0x4A] LocalPlayer looks at Kupiruru (ID: 17465598/0x010A80FE)
118: 0x02EC [0x4A] Kupiruru (ID: 17465598/0x010A80FE) looks at Moogle (ID: 17465597/0x010A80FD)
119: 0x02F5 [0x6F] WAIT_FRAME_DELAY: Yield until WaitTime reaches zero
120: 0x02F6 [0x76] CHECK_ENTITY_RENDER_FLAGS: Wait until LocalPlayer Render.Flags0 and Render.Flags3 conditions are met
121: 0x02FB [0x6F] WAIT_FRAME_DELAY: Yield until WaitTime reaches zero
122: 0x02FC [0x76] CHECK_ENTITY_RENDER_FLAGS: Wait until Moogle (ID: 17465597/0x010A80FD) Render.Flags0 and Render.Flags3 conditions are met
123: 0x0301 [0x6F] WAIT_FRAME_DELAY: Yield until WaitTime reaches zero
124: 0x0302 [0x76] CHECK_ENTITY_RENDER_FLAGS: Wait until Kupiruru (ID: 17465598/0x010A80FE) Render.Flags0 and Render.Flags3 conditions are met
125: 0x0307 [0x7B] Kupiruru (ID: 17465598/0x010A80FE) stops talking
126: 0x030C [0x1A] CALL_SUBROUTINE(address=0x19C8)
127: 0x030F [0x27] REQ_SET(priority=0x10, entity_id=Cermet Door (ID: 17465558/0x010A80D6), tag_num=0x02)
128: 0x0316 [0x01] GOTO 0x05BC
129: 0x0319 [0x02] IF !(ExtData[1]->WorkLocal[0] == 8*) GOTO 0x0349
130: 0x0321 [0x7B] Kupiruru (ID: 17465598/0x010A80FE) stops talking
131: 0x0326 [0x27] REQ_SET(priority=0x10, entity_id=Kupiruru (ID: 17465598/0x010A80FE), tag_num=0x07)
132: 0x032D [0x27] REQ_SET(priority=0x10, entity_id=Kupiruru (ID: 17465598/0x010A80FE), tag_num=0x08)
133: 0x0334 [0x4A] Goblin Repossessor (ID: 17465600/0x010A8100) looks at Moogle (ID: 17465597/0x010A80FD)
134: 0x033D [0x4A] Goblin Enforcer (ID: 17465602/0x010A8102) looks at Moogle (ID: 17465597/0x010A80FD)
135: 0x0346 [0x01] GOTO 0x05BC
136: 0x0349 [0x02] IF !(ExtData[1]->WorkLocal[0] == 9*) GOTO 0x0362
137: 0x0351 [0x27] REQ_SET(priority=0x10, entity_id=Moogle (ID: 17465597/0x010A80FD), tag_num=0x04)
138: 0x0358 [0x27] REQ_SET(priority=0x10, entity_id=Moogle (ID: 17465597/0x010A80FD), tag_num=0x07)
139: 0x035F [0x01] GOTO 0x05BC
140: 0x0362 [0x02] IF !(ExtData[1]->WorkLocal[0] == 10*) GOTO 0x036D
141: 0x036A [0x01] GOTO 0x05BC
142: 0x036D [0x02] IF !(ExtData[1]->WorkLocal[0] == 11*) GOTO 0x0394
143: 0x0375 [0x27] REQ_SET(priority=0x10, entity_id=Moogle (ID: 17465597/0x010A80FD), tag_num=0x0C)
144: 0x037C [0x27] REQ_SET(priority=0x10, entity_id=Moogle (ID: 17465597/0x010A80FD), tag_num=0x0D)
145: 0x0383 [0x27] REQ_SET(priority=0x10, entity_id=Goblin Repossessor (ID: 17465600/0x010A8100), tag_num=0x03)
146: 0x038A [0x27] REQ_SET(priority=0x10, entity_id=Goblin Enforcer (ID: 17465602/0x010A8102), tag_num=0x03)
147: 0x0391 [0x01] GOTO 0x05BC
148: 0x0394 [0x02] IF !(ExtData[1]->WorkLocal[0] == 12*) GOTO 0x03CC
149: 0x039C [0x79] LocalPlayer looks at Goblin Repossessor (ID: 17465600/0x010A8100) (Basic look)
150: 0x03A6 [0x27] REQ_SET(priority=0x10, entity_id=Moogle (ID: 17465597/0x010A80FD), tag_num=0x11)
151: 0x03AD [0x27] REQ_SET(priority=0x10, entity_id=Kupiruru (ID: 17465598/0x010A80FE), tag_num=0x0B)
152: 0x03B4 [0x27] REQ_SET(priority=0x10, entity_id=Goblin Repossessor (ID: 17465600/0x010A8100), tag_num=0x21)
153: 0x03BB [0x27] REQ_SET(priority=0x10, entity_id=Goblin Enforcer (ID: 17465602/0x010A8102), tag_num=0x06)
154: 0x03C2 [0x27] REQ_SET(priority=0x10, entity_id=LocalPlayer, tag_num=0x1F)
155: 0x03C9 [0x01] GOTO 0x05BC
156: 0x03CC [0x02] IF !(ExtData[1]->WorkLocal[0] == 13*) GOTO 0x03E5
157: 0x03D4 [0x27] REQ_SET(priority=0x10, entity_id=Goblin Repossessor (ID: 17465600/0x010A8100), tag_num=0x22)
158: 0x03DB [0x27] REQ_SET(priority=0x10, entity_id=Goblin Repossessor (ID: 17465600/0x010A8100), tag_num=0x23)
159: 0x03E2 [0x01] GOTO 0x05BC
160: 0x03E5 [0x02] IF !(ExtData[1]->WorkLocal[0] == 14*) GOTO 0x03FE
161: 0x03ED [0x27] REQ_SET(priority=0x10, entity_id=Moogle (ID: 17465597/0x010A80FD), tag_num=0x05)
162: 0x03F4 [0x27] REQ_SET(priority=0x10, entity_id=Moogle (ID: 17465597/0x010A80FD), tag_num=0x07)
163: 0x03FB [0x01] GOTO 0x05BC
164: 0x03FE [0x02] IF !(ExtData[1]->WorkLocal[0] == 15*) GOTO 0x041E
165: 0x0406 [0x27] REQ_SET(priority=0x10, entity_id=Goblin Repossessor (ID: 17465600/0x010A8100), tag_num=0x22)
166: 0x040D [0x27] REQ_SET(priority=0x10, entity_id=Goblin Repossessor (ID: 17465600/0x010A8100), tag_num=0x23)
167: 0x0414 [0x27] REQ_SET(priority=0x10, entity_id=Goblin Repossessor (ID: 17465600/0x010A8100), tag_num=0x1F)
168: 0x041B [0x01] GOTO 0x05BC
169: 0x041E [0x02] IF !(ExtData[1]->WorkLocal[0] == 16*) GOTO 0x0455
170: 0x0426 [0x27] REQ_SET(priority=0x10, entity_id=Goblin Repossessor (ID: 17465600/0x010A8100), tag_num=0x20)
171: 0x042D [0x27] REQ_SET(priority=0x10, entity_id=Nanaa Mihgo (ID: 17465599/0x010A80FF), tag_num=0x07)
172: 0x0434 [0x4A] Goblin Repossessor (ID: 17465600/0x010A8100) looks at Nanaa Mihgo (ID: 17465599/0x010A80FF)
173: 0x043D [0x4A] Goblin Enforcer (ID: 17465602/0x010A8102) looks at Nanaa Mihgo (ID: 17465599/0x010A80FF)
174: 0x0446 [0x6F] WAIT_FRAME_DELAY: Yield until WaitTime reaches zero
175: 0x0447 [0x76] CHECK_ENTITY_RENDER_FLAGS: Wait until Goblin Repossessor (ID: 17465600/0x010A8100) Render.Flags0 and Render.Flags3 conditions are met
176: 0x044C [0x6F] WAIT_FRAME_DELAY: Yield until WaitTime reaches zero
177: 0x044D [0x76] CHECK_ENTITY_RENDER_FLAGS: Wait until Goblin Enforcer (ID: 17465602/0x010A8102) Render.Flags0 and Render.Flags3 conditions are met
178: 0x0452 [0x01] GOTO 0x05BC
179: 0x0455 [0x02] IF !(ExtData[1]->WorkLocal[0] == 17*) GOTO 0x0463
180: 0x045D [0x1A] CALL_SUBROUTINE(address=0x19E9)
181: 0x0460 [0x01] GOTO 0x05BC
182: 0x0463 [0x02] IF !(ExtData[1]->WorkLocal[0] == 18*) GOTO 0x057C
183: 0x046B [0x27] REQ_SET(priority=0x10, entity_id=Nanaa Mihgo (ID: 17465599/0x010A80FF), tag_num=0x07)
184: 0x0472 [0x4A] Goblin Repossessor (ID: 17465600/0x010A8100) looks at 4 (ID: 17465603/0x010A8103)
185: 0x047B [0x4A] Goblin Enforcer (ID: 17465602/0x010A8102) looks at 4 (ID: 17465603/0x010A8103)
186: 0x0484 [0x4A] LocalPlayer looks at Nanaa Mihgo (ID: 17465599/0x010A80FF)
187: 0x048D [0x4A] Moogle (ID: 17465597/0x010A80FD) looks at Nanaa Mihgo (ID: 17465599/0x010A80FF)
188: 0x0496 [0x4A] Kupiruru (ID: 17465598/0x010A80FE) looks at Nanaa Mihgo (ID: 17465599/0x010A80FF)
189: 0x049F [0x6F] WAIT_FRAME_DELAY: Yield until WaitTime reaches zero
190: 0x04A0 [0x76] CHECK_ENTITY_RENDER_FLAGS: Wait until LocalPlayer Render.Flags0 and Render.Flags3 conditions are met
191: 0x04A5 [0x6F] WAIT_FRAME_DELAY: Yield until WaitTime reaches zero
192: 0x04A6 [0x76] CHECK_ENTITY_RENDER_FLAGS: Wait until Moogle (ID: 17465597/0x010A80FD) Render.Flags0 and Render.Flags3 conditions are met
193: 0x04AB [0x6F] WAIT_FRAME_DELAY: Yield until WaitTime reaches zero
194: 0x04AC [0x76] CHECK_ENTITY_RENDER_FLAGS: Wait until Kupiruru (ID: 17465598/0x010A80FE) Render.Flags0 and Render.Flags3 conditions are met
195: 0x04B1 [0xBA] SET_ENTITY_POSITION(entity_id=LocalPlayer, pos_x=-0.846*, pos_z=-4.408*, pos_y=0.783*, direction=285.8°*)
196: 0x04BE [0xBA] SET_ENTITY_POSITION(entity_id=Moogle (ID: 17465597/0x010A80FD), pos_x=-2.791*, pos_z=-3.796*, pos_y=0.768*, direction=285.8°*)
197: 0x04CB [0xBA] SET_ENTITY_POSITION(entity_id=Goblin Repossessor (ID: 17465600/0x010A8100), pos_x=0.320*, pos_z=-0.095*, pos_y=0.824*, direction=313.2°*)
198: 0x04D8 [0xBA] SET_ENTITY_POSITION(entity_id=Nanaa Mihgo (ID: 17465599/0x010A80FF), pos_x=0.812*, pos_z=-1.826*, pos_y=0.824*, direction=0.0°*)
199: 0x04E5 [0xBA] SET_ENTITY_POSITION(entity_id=Kupiruru (ID: 17465598/0x010A80FE), pos_x=-3.217*, pos_z=-3.219*, pos_y=0.786*, direction=285.8°*)
200: 0x04F2 [0x80] LOAD_WAIT(entity=LocalPlayer)
201: 0x04F7 [0x80] LOAD_WAIT(entity=Moogle (ID: 17465597/0x010A80FD))
202: 0x04FC [0x80] LOAD_WAIT(entity=Goblin Repossessor (ID: 17465600/0x010A8100))
203: 0x0501 [0x80] LOAD_WAIT(entity=Nanaa Mihgo (ID: 17465599/0x010A80FF))
204: 0x0506 [0x80] LOAD_WAIT(entity=Kupiruru (ID: 17465598/0x010A80FE))
205: 0x050B [0x4A] LocalPlayer looks at Nanaa Mihgo (ID: 17465599/0x010A80FF)
206: 0x0514 [0x4A] Moogle (ID: 17465597/0x010A80FD) looks at Nanaa Mihgo (ID: 17465599/0x010A80FF)
207: 0x051D [0x4A] Kupiruru (ID: 17465598/0x010A80FE) looks at Nanaa Mihgo (ID: 17465599/0x010A80FF)
208: 0x0526 [0x4A] Nanaa Mihgo (ID: 17465599/0x010A80FF) looks at 4 (ID: 17465603/0x010A8103)
209: 0x052F [0x4A] Goblin Repossessor (ID: 17465600/0x010A8100) looks at 4 (ID: 17465603/0x010A8103)
210: 0x0538 [0x6F] WAIT_FRAME_DELAY: Yield until WaitTime reaches zero
211: 0x0539 [0x76] CHECK_ENTITY_RENDER_FLAGS: Wait until Nanaa Mihgo (ID: 17465599/0x010A80FF) Render.Flags0 and Render.Flags3 conditions are met
212: 0x053E [0x6F] WAIT_FRAME_DELAY: Yield until WaitTime reaches zero
213: 0x053F [0x76] CHECK_ENTITY_RENDER_FLAGS: Wait until Goblin Repossessor (ID: 17465600/0x010A8100) Render.Flags0 and Render.Flags3 conditions are met
214: 0x0544 [0x6F] WAIT_FRAME_DELAY: Yield until WaitTime reaches zero
215: 0x0545 [0x76] CHECK_ENTITY_RENDER_FLAGS: Wait until Kupiruru (ID: 17465598/0x010A80FE) Render.Flags0 and Render.Flags3 conditions are met
216: 0x054A [0x6F] WAIT_FRAME_DELAY: Yield until WaitTime reaches zero
217: 0x054B [0x76] CHECK_ENTITY_RENDER_FLAGS: Wait until LocalPlayer Render.Flags0 and Render.Flags3 conditions are met
218: 0x0550 [0x6F] WAIT_FRAME_DELAY: Yield until WaitTime reaches zero
219: 0x0551 [0x76] CHECK_ENTITY_RENDER_FLAGS: Wait until Moogle (ID: 17465597/0x010A80FD) Render.Flags0 and Render.Flags3 conditions are met
220: 0x0556 [0x7B] Nanaa Mihgo (ID: 17465599/0x010A80FF) stops talking
221: 0x055B [0x7B] Kupiruru (ID: 17465598/0x010A80FE) stops talking
222: 0x0560 [0x7B] Moogle (ID: 17465597/0x010A80FD) stops talking
223: 0x0565 [0x7B] Goblin Repossessor (ID: 17465600/0x010A8100) stops talking
224: 0x056A [0x7B] Goblin Enforcer (ID: 17465602/0x010A8102) stops talking
225: 0x056F [0x1A] CALL_SUBROUTINE(address=0x19C8)
226: 0x0572 [0x27] REQ_SET(priority=0x10, entity_id=Goblin Repossessor (ID: 17465600/0x010A8100), tag_num=0x1E)
227: 0x0579 [0x01] GOTO 0x05BC
228: 0x057C [0x02] IF !(ExtData[1]->WorkLocal[0] == 19*) GOTO 0x058E
229: 0x0584 [0x27] REQ_SET(priority=0x10, entity_id=Nanaa Mihgo (ID: 17465599/0x010A80FF), tag_num=0x0A)
230: 0x058B [0x01] GOTO 0x05BC
231: 0x058E [0x02] IF !(ExtData[1]->WorkLocal[0] == 20*) GOTO 0x0599
232: 0x0596 [0x01] GOTO 0x05BC
233: 0x0599 [0x02] IF !(ExtData[1]->WorkLocal[0] == 21*) GOTO 0x05BC
234: 0x05A1 [0x27] REQ_SET(priority=0x10, entity_id=Goblin Repossessor (ID: 17465600/0x010A8100), tag_num=0x1F)
235: 0x05A8 [0x27] REQ_SET(priority=0x10, entity_id=Goblin Enforcer (ID: 17465602/0x010A8102), tag_num=0x11)
236: 0x05AF [0x27] REQ_SET(priority=0x10, entity_id=LocalPlayer, tag_num=0x18)
237: 0x05B6 [0x1A] CALL_SUBROUTINE(address=0x19E9)
238: 0x05B9 [0x01] GOTO 0x05BC

SUBROUTINE_05BC:
239: 0x05BC [0x07] ExtData[1]->WorkLocal[0] += 1*
240: 0x05C1 [0x01] GOTO 0x01B7
241: 0x05C4 [0x03] ExtData[1]->WorkLocal[0] = 1*

SUBROUTINE_05C9:
242: 0x05C9 [0x02] IF !(ExtData[1]->WorkLocal[0] > 20*) GOTO 0x05E4
243: 0x05D1 [0x02] IF !(0* > ExtData[1]->WorkLocal[0]) GOTO 0x05DC
244: 0x05D9 [0x1A] CALL_SUBROUTINE(address=0x0622)
245: 0x05DC [0x07] ExtData[1]->WorkLocal[0] += 1*
246: 0x05E1 [0x01] GOTO 0x05C9
247: 0x05E4 [0x27] REQ_SET(priority=0x10, entity_id=LocalPlayer, tag_num=0x19)
248: 0x05EB [0x1C] WAIT(60* ticks)
249: 0x05EE [0x1A] CALL_SUBROUTINE(address=0x19E9)
250: 0x05F1 [0x1A] CALL_SUBROUTINE(address=0x1A0A)
251: 0x05F4 [0x1C] WAIT(30* ticks)
252: 0x05F7 [0x5C] MUSIC_CONTROL: Set Idle (Day) music to song 0*
253: 0x05FB [0x5C] MUSIC_CONTROL: Set Idle (Night) music to song 0*
254: 0x05FF [0x9A] WAIT_MUSIC_SERVER()
255: 0x0600 [0x46] CAMERA_CONTROL: Restore default settings
256: 0x0602 [0x45] LOAD_SCHEDULED_TASK: Load scheduler "fdi2" with entities [LocalPlayer, LocalPlayer], work=[200*, 0*]
257: 0x0613 [0x21] END_EVENT
258: 0x0614 [0x00] END_REQSTACK()

SUBROUTINE_0615:
259: 0x0615 [0x02] IF !(0* == 1*) GOTO 0x0621
260: 0x061D [0x48] [System] [7715*]:
    → "Rescue? Whatever are you talking about?"
261: 0x0620 [0x23] WAIT_FOR_DIALOG_INTERACTION
262: 0x0621 [0x1B] RETURN

SUBROUTINE_0622:
263: 0x0622 [0x02] IF !(ExtData[1]->WorkLocal[0] == 1*) GOTO 0x0667
264: 0x062A [0x45] LOAD_SCHEDULED_TASK: Load scheduler "j001" with entities [LocalPlayer, LocalPlayer], work=[466*, 0*]
265: 0x063B [0x1A] CALL_SUBROUTINE(address=0x19C8)
266: 0x063E [0x27] REQ_SET(priority=0x10, entity_id=LocalPlayer, tag_num=0x1C)
267: 0x0645 [0x1C] WAIT(180* ticks)
268: 0x0648 [0x79] LocalPlayer looks at Moogle (ID: 17465597/0x010A80FD) (Basic look)
269: 0x0652 [0x55] WAIT_LOAD_SCHEDULER: Wait for scheduler "j001" with entities [LocalPlayer, LocalPlayer], work=466*
270: 0x0661 [0x1C] WAIT(50* ticks)
271: 0x0664 [0x01] GOTO 0x0E01
272: 0x0667 [0x02] IF !(ExtData[1]->WorkLocal[0] == 2*) GOTO 0x06B4
273: 0x066F [0x45] LOAD_SCHEDULED_TASK: Load scheduler "j002" with entities [LocalPlayer, LocalPlayer], work=[466*, 0*]
274: 0x0680 [0x27] REQ_SET(priority=0x10, entity_id=Moogle (ID: 17465597/0x010A80FD), tag_num=0x05)
275: 0x0687 [0x2B] Moogle (ID: 17465597/0x010A80FD) [7706*]:
    → "Master, I've come after all! No contract nor work order, nor even the mightiest magic can stop a moogle in love!"
276: 0x068E [0x23] WAIT_FOR_DIALOG_INTERACTION
277: 0x068F [0x27] REQ_SET(priority=0x10, entity_id=Moogle (ID: 17465597/0x010A80FD), tag_num=0x07)
278: 0x0696 [0x5C] MUSIC_CONTROL: Set Idle (Day) music to song 196*
279: 0x069A [0x5C] MUSIC_CONTROL: Set Idle (Night) music to song 196*
280: 0x069E [0x9A] WAIT_MUSIC_SERVER()
281: 0x069F [0x1C] WAIT(30* ticks)
282: 0x06A2 [0x52] END_LOAD_SCHEDULER: End scheduler "j002" with entities [LocalPlayer, LocalPlayer], work=466*
283: 0x06B1 [0x01] GOTO 0x0E01
284: 0x06B4 [0x02] IF !(ExtData[1]->WorkLocal[0] == 3*) GOTO 0x0713
285: 0x06BC [0x45] LOAD_SCHEDULED_TASK: Load scheduler "j003" with entities [LocalPlayer, LocalPlayer], work=[466*, 0*]
286: 0x06CD [0x7B] LocalPlayer stops talking
287: 0x06D2 [0x1C] WAIT(30* ticks)
288: 0x06D5 [0x27] REQ_SET(priority=0x10, entity_id=LocalPlayer, tag_num=0x1D)
289: 0x06DC [0x1C] WAIT(20* ticks)
290: 0x06DF [0x27] REQ_SET(priority=0x10, entity_id=Moogle (ID: 17465597/0x010A80FD), tag_num=0x0B)
291: 0x06E6 [0x1C] WAIT(90* ticks)
292: 0x06E9 [0x27] REQ_SET(priority=0x10, entity_id=??? (ID: 17465595/0x010A80FB), tag_num=0x04)
293: 0x06F0 [0x1C] WAIT(120* ticks)
294: 0x06F3 [0x27] REQ_SET(priority=0x10, entity_id=??? (ID: 17465595/0x010A80FB), tag_num=0x05)
295: 0x06FA [0x27] REQ_SET(priority=0x10, entity_id=Cermet Door (ID: 17465558/0x010A80D6), tag_num=0x01)
296: 0x0701 [0x55] WAIT_LOAD_SCHEDULER: Wait for scheduler "j003" with entities [LocalPlayer, LocalPlayer], work=466*
297: 0x0710 [0x01] GOTO 0x0E01
298: 0x0713 [0x02] IF !(ExtData[1]->WorkLocal[0] == 4*) GOTO 0x07CA
299: 0x071B [0x45] LOAD_SCHEDULED_TASK: Load scheduler "j004" with entities [LocalPlayer, LocalPlayer], work=[466*, 0*]
300: 0x072C [0x1C] WAIT(50* ticks)
301: 0x072F [0x2B] Moogle (ID: 17465597/0x010A80FD) [7707*]:
    → "My dear Kupi--"
302: 0x0736 [0x1C] WAIT(30* ticks)
303: 0x0739 [0x5D] SET_MUSIC_VOLUME(volume=0*, fade_time=60*)
304: 0x073E [0x27] REQ_SET(priority=0x10, entity_id=Goblin Intimidator (ID: 17465601/0x010A8101), tag_num=0x06)
305: 0x0745 [0x27] REQ_SET(priority=0x10, entity_id=Goblin Intimidator (ID: 17465601/0x010A8101), tag_num=0x03)
306: 0x074C [0x1C] WAIT(40* ticks)
307: 0x074F [0x4A] Moogle (ID: 17465597/0x010A80FD) looks at Goblin Intimidator (ID: 17465601/0x010A8101)
308: 0x0758 [0x4A] LocalPlayer looks at Goblin Intimidator (ID: 17465601/0x010A8101)
309: 0x0761 [0x6F] WAIT_FRAME_DELAY: Yield until WaitTime reaches zero
310: 0x0762 [0x76] CHECK_ENTITY_RENDER_FLAGS: Wait until Moogle (ID: 17465597/0x010A80FD) Render.Flags0 and Render.Flags3 conditions are met
311: 0x0767 [0x6F] WAIT_FRAME_DELAY: Yield until WaitTime reaches zero
312: 0x0768 [0x76] CHECK_ENTITY_RENDER_FLAGS: Wait until LocalPlayer Render.Flags0 and Render.Flags3 conditions are met
313: 0x076D [0x27] REQ_SET(priority=0x10, entity_id=Moogle (ID: 17465597/0x010A80FD), tag_num=0x0F)
314: 0x0774 [0x6E] LocalPlayer uses emote 38*
315: 0x077B [0x99] Wait for LocalPlayer animation to complete
316: 0x0780 [0x2B] Moogle (ID: 17465597/0x010A80FD) [7708*]:
    → "Y-yikes, kupo!"
317: 0x0787 [0x2A] GET_REQ_LEVEL(level=16, entity_id=Moogle (ID: 17465597/0x010A80FD))
318: 0x078D [0x1C] WAIT(120* ticks)
319: 0x0790 [0x55] WAIT_LOAD_SCHEDULER: Wait for scheduler "j004" with entities [LocalPlayer, LocalPlayer], work=466*
320: 0x079F [0x45] LOAD_SCHEDULED_TASK: Load scheduler "j404" with entities [LocalPlayer, LocalPlayer], work=[466*, 0*]
321: 0x07B0 [0x2B] ??? (ID: 17465595/0x010A80FB) [7709*]:
    → "Is someone out there, kupo?"
322: 0x07B7 [0x23] WAIT_FOR_DIALOG_INTERACTION
323: 0x07B8 [0x52] END_LOAD_SCHEDULER: End scheduler "j404" with entities [LocalPlayer, LocalPlayer], work=466*
324: 0x07C7 [0x01] GOTO 0x0E01
325: 0x07CA [0x02] IF !(ExtData[1]->WorkLocal[0] == 5*) GOTO 0x0840
326: 0x07D2 [0x45] LOAD_SCHEDULED_TASK: Load scheduler "j005" with entities [LocalPlayer, LocalPlayer], work=[466*, 0*]
327: 0x07E3 [0x7B] Moogle (ID: 17465597/0x010A80FD) stops talking
328: 0x07E8 [0x7B] LocalPlayer stops talking
329: 0x07ED [0x1C] WAIT(30* ticks)
330: 0x07F0 [0x4B] UPDATE_ENTITY_YAW(entity=Moogle (ID: 17465597/0x010A80FD), yaw=16.9°*)
331: 0x07F7 [0x1C] WAIT(10* ticks)
332: 0x07FA [0x4B] UPDATE_ENTITY_YAW(entity=LocalPlayer, yaw=16.9°*)
333: 0x0801 [0x6F] WAIT_FRAME_DELAY: Yield until WaitTime reaches zero
334: 0x0802 [0x76] CHECK_ENTITY_RENDER_FLAGS: Wait until Moogle (ID: 17465597/0x010A80FD) Render.Flags0 and Render.Flags3 conditions are met
335: 0x0807 [0x6F] WAIT_FRAME_DELAY: Yield until WaitTime reaches zero
336: 0x0808 [0x76] CHECK_ENTITY_RENDER_FLAGS: Wait until LocalPlayer Render.Flags0 and Render.Flags3 conditions are met
337: 0x080D [0x1C] WAIT(40* ticks)
338: 0x0810 [0x2B] Moogle (ID: 17465597/0x010A80FD) [7710*]:
    → "Kupiruru...my darling!"
339: 0x0817 [0x1C] WAIT(40* ticks)
340: 0x081A [0x27] REQ_SET(priority=0x10, entity_id=Moogle (ID: 17465597/0x010A80FD), tag_num=0x10)
341: 0x0821 [0x27] REQ_SET(priority=0x10, entity_id=LocalPlayer, tag_num=0x1E)
342: 0x0828 [0x1C] WAIT(60* ticks)
343: 0x082B [0x1A] CALL_SUBROUTINE(address=0x19E9)
344: 0x082E [0x52] END_LOAD_SCHEDULER: End scheduler "j005" with entities [LocalPlayer, LocalPlayer], work=466*
345: 0x083D [0x01] GOTO 0x0E01
346: 0x0840 [0x02] IF !(ExtData[1]->WorkLocal[0] == 6*) GOTO 0x08E6
347: 0x0848 [0x1C] WAIT(15* ticks)
348: 0x084B [0xBA] SET_ENTITY_POSITION(entity_id=Moogle (ID: 17465597/0x010A80FD), pos_x=-1.500*, pos_z=-3.916*, pos_y=0.794*, direction=0.0°*)
349: 0x0858 [0xBA] SET_ENTITY_POSITION(entity_id=LocalPlayer, pos_x=0.000*, pos_z=-4.700*, pos_y=0.794*, direction=0.0°*)
350: 0x0865 [0x80] LOAD_WAIT(entity=Moogle (ID: 17465597/0x010A80FD))
351: 0x086A [0x80] LOAD_WAIT(entity=LocalPlayer)
352: 0x086F [0x1C] WAIT(15* ticks)
353: 0x0872 [0x4A] Moogle (ID: 17465597/0x010A80FD) looks at Kupiruru (ID: 17465598/0x010A80FE)
354: 0x087B [0x4A] LocalPlayer looks at Kupiruru (ID: 17465598/0x010A80FE)
355: 0x0884 [0x4A] Kupiruru (ID: 17465598/0x010A80FE) looks at Moogle (ID: 17465597/0x010A80FD)
356: 0x088D [0x6F] WAIT_FRAME_DELAY: Yield until WaitTime reaches zero
357: 0x088E [0x76] CHECK_ENTITY_RENDER_FLAGS: Wait until LocalPlayer Render.Flags0 and Render.Flags3 conditions are met
358: 0x0893 [0x6F] WAIT_FRAME_DELAY: Yield until WaitTime reaches zero
359: 0x0894 [0x76] CHECK_ENTITY_RENDER_FLAGS: Wait until Moogle (ID: 17465597/0x010A80FD) Render.Flags0 and Render.Flags3 conditions are met
360: 0x0899 [0x6F] WAIT_FRAME_DELAY: Yield until WaitTime reaches zero
361: 0x089A [0x76] CHECK_ENTITY_RENDER_FLAGS: Wait until Kupiruru (ID: 17465598/0x010A80FE) Render.Flags0 and Render.Flags3 conditions are met
362: 0x089F [0x7B] Kupiruru (ID: 17465598/0x010A80FE) stops talking
363: 0x08A4 [0x1C] WAIT(30* ticks)
364: 0x08A7 [0x45] LOAD_SCHEDULED_TASK: Load scheduler "j006" with entities [LocalPlayer, LocalPlayer], work=[466*, 0*]
365: 0x08B8 [0x1A] CALL_SUBROUTINE(address=0x19C8)
366: 0x08BB [0x1C] WAIT(30* ticks)
367: 0x08BE [0x27] REQ_SET(priority=0x10, entity_id=Moogle (ID: 17465597/0x010A80FD), tag_num=0x05)
368: 0x08C5 [0x2B] Moogle (ID: 17465597/0x010A80FD) [7711*]:
    → "Are you hurt, kupo!? If these hoods have laid so much as a finger on you, why I swear, I'll--!"
369: 0x08CC [0x23] WAIT_FOR_DIALOG_INTERACTION
370: 0x08CD [0x27] REQ_SET(priority=0x10, entity_id=Moogle (ID: 17465597/0x010A80FD), tag_num=0x07)
371: 0x08D4 [0x52] END_LOAD_SCHEDULER: End scheduler "j006" with entities [LocalPlayer, LocalPlayer], work=466*
372: 0x08E3 [0x01] GOTO 0x0E01
373: 0x08E6 [0x02] IF !(ExtData[1]->WorkLocal[0] == 7*) GOTO 0x0948
374: 0x08EE [0x45] LOAD_SCHEDULED_TASK: Load scheduler "j007" with entities [LocalPlayer, LocalPlayer], work=[466*, 0*]
375: 0x08FF [0x1C] WAIT(40* ticks)
376: 0x0902 [0x2B] Kupiruru (ID: 17465598/0x010A80FE) [7712*]:
    → "Oh, my dear Moggie. Fancy meeting you here!"
377: 0x0909 [0x23] WAIT_FOR_DIALOG_INTERACTION
378: 0x090A [0x7B] Kupiruru (ID: 17465598/0x010A80FE) stops talking
379: 0x090F [0x27] REQ_SET(priority=0x10, entity_id=Kupiruru (ID: 17465598/0x010A80FE), tag_num=0x07)
380: 0x0916 [0x2B] Kupiruru (ID: 17465598/0x010A80FE) [7713*]:
    → "Why the worried face? Is something the matter, kupo?"
381: 0x091D [0x23] WAIT_FOR_DIALOG_INTERACTION
382: 0x091E [0x2A] GET_REQ_LEVEL(level=16, entity_id=Kupiruru (ID: 17465598/0x010A80FE))
383: 0x0924 [0x4A] Goblin Repossessor (ID: 17465600/0x010A8100) looks at Moogle (ID: 17465597/0x010A80FD)
384: 0x092D [0x4A] Goblin Enforcer (ID: 17465602/0x010A8102) looks at Moogle (ID: 17465597/0x010A80FD)
385: 0x0936 [0x52] END_LOAD_SCHEDULER: End scheduler "j007" with entities [LocalPlayer, LocalPlayer], work=466*
386: 0x0945 [0x01] GOTO 0x0E01
387: 0x0948 [0x02] IF !(ExtData[1]->WorkLocal[0] == 8*) GOTO 0x099E
388: 0x0950 [0x45] LOAD_SCHEDULED_TASK: Load scheduler "j008" with entities [LocalPlayer, LocalPlayer], work=[466*, 0*]
389: 0x0961 [0x27] REQ_SET(priority=0x10, entity_id=Moogle (ID: 17465597/0x010A80FD), tag_num=0x04)
390: 0x0968 [0x27] REQ_SET(priority=0x10, entity_id=Kupiruru (ID: 17465598/0x010A80FE), tag_num=0x08)
391: 0x096F [0x2B] Moogle (ID: 17465597/0x010A80FD) [7714*]:
    → "Is something the matter!? Why, I've come to rescue you from these sordid scoundrels, kupo!"
392: 0x0976 [0x23] WAIT_FOR_DIALOG_INTERACTION
393: 0x0977 [0x2B] Kupiruru (ID: 17465598/0x010A80FE) [7715*]:
    → "Rescue? Whatever are you talking about?"
394: 0x097E [0x23] WAIT_FOR_DIALOG_INTERACTION
395: 0x097F [0x27] REQ_SET(priority=0x10, entity_id=Moogle (ID: 17465597/0x010A80FD), tag_num=0x07)
396: 0x0986 [0x2A] GET_REQ_LEVEL(level=16, entity_id=Kupiruru (ID: 17465598/0x010A80FE))
397: 0x098C [0x52] END_LOAD_SCHEDULER: End scheduler "j008" with entities [LocalPlayer, LocalPlayer], work=466*
398: 0x099B [0x01] GOTO 0x0E01
399: 0x099E [0x02] IF !(ExtData[1]->WorkLocal[0] == 9*) GOTO 0x09E1
400: 0x09A6 [0x45] LOAD_SCHEDULED_TASK: Load scheduler "j009" with entities [LocalPlayer, LocalPlayer], work=[466*, 0*]
401: 0x09B7 [0x27] REQ_SET(priority=0x10, entity_id=Kupiruru (ID: 17465598/0x010A80FE), tag_num=0x0A)
402: 0x09BE [0x1C] WAIT(15* ticks)
403: 0x09C1 [0x2B] Kupiruru (ID: 17465598/0x010A80FE) [7716*]:
    → "Why, I was just playing dress-up with my new friends here. Do you like the cute costume they picked out for me, kupo?"
404: 0x09C8 [0x23] WAIT_FOR_DIALOG_INTERACTION
405: 0x09C9 [0x2A] GET_REQ_LEVEL(level=16, entity_id=Kupiruru (ID: 17465598/0x010A80FE))
406: 0x09CF [0x52] END_LOAD_SCHEDULER: End scheduler "j009" with entities [LocalPlayer, LocalPlayer], work=466*
407: 0x09DE [0x01] GOTO 0x0E01
408: 0x09E1 [0x02] IF !(ExtData[1]->WorkLocal[0] == 10*) GOTO 0x0A42
409: 0x09E9 [0x45] LOAD_SCHEDULED_TASK: Load scheduler "j00a" with entities [LocalPlayer, LocalPlayer], work=[466*, 0*]
410: 0x09FA [0x1C] WAIT(30* ticks)
411: 0x09FD [0x27] REQ_SET(priority=0x10, entity_id=Moogle (ID: 17465597/0x010A80FD), tag_num=0x0C)
412: 0x0A04 [0x2B] Moogle (ID: 17465597/0x010A80FD) [7717*]:
    → "The wh-what!?"
413: 0x0A0B [0x23] WAIT_FOR_DIALOG_INTERACTION
414: 0x0A0C [0x2A] GET_REQ_LEVEL(level=16, entity_id=Moogle (ID: 17465597/0x010A80FD))
415: 0x0A12 [0x5C] MUSIC_CONTROL: Set Idle (Day) music to song 163*
416: 0x0A16 [0x5C] MUSIC_CONTROL: Set Idle (Night) music to song 163*
417: 0x0A1A [0x9A] WAIT_MUSIC_SERVER()
418: 0x0A1B [0x29] REQ_SET_WAIT(priority=0x10, entity_id=Moogle (ID: 17465597/0x010A80FD), tag_num=0x0D)
419: 0x0A22 [0x27] REQ_SET(priority=0x10, entity_id=Goblin Repossessor (ID: 17465600/0x010A8100), tag_num=0x03)
420: 0x0A29 [0x27] REQ_SET(priority=0x10, entity_id=Goblin Enforcer (ID: 17465602/0x010A8102), tag_num=0x03)
421: 0x0A30 [0x52] END_LOAD_SCHEDULER: End scheduler "j00a" with entities [LocalPlayer, LocalPlayer], work=466*
422: 0x0A3F [0x01] GOTO 0x0E01
423: 0x0A42 [0x02] IF !(ExtData[1]->WorkLocal[0] == 11*) GOTO 0x0AB2
424: 0x0A4A [0x45] LOAD_SCHEDULED_TASK: Load scheduler "j00b" with entities [LocalPlayer, LocalPlayer], work=[466*, 0*]
425: 0x0A5B [0x79] LocalPlayer looks at Goblin Repossessor (ID: 17465600/0x010A8100) (Basic look)
426: 0x0A65 [0x27] REQ_SET(priority=0x10, entity_id=Moogle (ID: 17465597/0x010A80FD), tag_num=0x11)
427: 0x0A6C [0x27] REQ_SET(priority=0x10, entity_id=Kupiruru (ID: 17465598/0x010A80FE), tag_num=0x0B)
428: 0x0A73 [0x27] REQ_SET(priority=0x10, entity_id=Goblin Repossessor (ID: 17465600/0x010A8100), tag_num=0x21)
429: 0x0A7A [0x1C] WAIT(8* ticks)
430: 0x0A7D [0x27] REQ_SET(priority=0x10, entity_id=Goblin Enforcer (ID: 17465602/0x010A8102), tag_num=0x06)
431: 0x0A84 [0x2B] ??? (ID: 17465595/0x010A80FB) [7718*]:
    → "Oh ho! Looky who here."
432: 0x0A8B [0x4A] LocalPlayer looks at Goblin Repossessor (ID: 17465600/0x010A8100)
433: 0x0A94 [0x2A] GET_REQ_LEVEL(level=16, entity_id=Goblin Repossessor (ID: 17465600/0x010A8100))
434: 0x0A9A [0x2A] GET_REQ_LEVEL(level=16, entity_id=Goblin Enforcer (ID: 17465602/0x010A8102))
435: 0x0AA0 [0x55] WAIT_LOAD_SCHEDULER: Wait for scheduler "j00b" with entities [LocalPlayer, LocalPlayer], work=466*
436: 0x0AAF [0x01] GOTO 0x0E01
437: 0x0AB2 [0x02] IF !(ExtData[1]->WorkLocal[0] == 12*) GOTO 0x0B09
438: 0x0ABA [0x45] LOAD_SCHEDULED_TASK: Load scheduler "j00c" with entities [LocalPlayer, LocalPlayer], work=[466*, 0*]
439: 0x0ACB [0x27] REQ_SET(priority=0x10, entity_id=Goblin Enforcer (ID: 17465602/0x010A8102), tag_num=0x0A)
440: 0x0AD2 [0x2B] Goblin Enforcer (ID: 17465602/0x010A8102) [7719*]:
    → "Guess you no coward after all. No smart either, though...har har har."
441: 0x0AD9 [0x23] WAIT_FOR_DIALOG_INTERACTION
442: 0x0ADA [0x29] REQ_SET_WAIT(priority=0x10, entity_id=Goblin Enforcer (ID: 17465602/0x010A8102), tag_num=0x0B)
443: 0x0AE1 [0x27] REQ_SET(priority=0x10, entity_id=Goblin Repossessor (ID: 17465600/0x010A8100), tag_num=0x22)
444: 0x0AE8 [0x2B] Goblin Repossessor (ID: 17465600/0x010A8100) [7720*]:
    → "You sign contract? Hand over now, and we do this easy way."
445: 0x0AEF [0x23] WAIT_FOR_DIALOG_INTERACTION
446: 0x0AF0 [0x27] REQ_SET(priority=0x10, entity_id=Goblin Repossessor (ID: 17465600/0x010A8100), tag_num=0x23)
447: 0x0AF7 [0x52] END_LOAD_SCHEDULER: End scheduler "j00c" with entities [LocalPlayer, LocalPlayer], work=466*
448: 0x0B06 [0x01] GOTO 0x0E01
449: 0x0B09 [0x02] IF !(ExtData[1]->WorkLocal[0] == 13*) GOTO 0x0B51
450: 0x0B11 [0x27] REQ_SET(priority=0x10, entity_id=Kupiruru (ID: 17465598/0x010A80FE), tag_num=0x02)
451: 0x0B18 [0x45] LOAD_SCHEDULED_TASK: Load scheduler "j00d" with entities [LocalPlayer, LocalPlayer], work=[466*, 0*]
452: 0x0B29 [0x27] REQ_SET(priority=0x10, entity_id=Moogle (ID: 17465597/0x010A80FD), tag_num=0x05)
453: 0x0B30 [0x2B] Moogle (ID: 17465597/0x010A80FD) [7721*]:
    → "I haven't an onz of intention of signing that ridiculous thing, kupo! Kupiruru, the master and I will be heading back to our cozy Mog House right now, thank you very much!"
454: 0x0B37 [0x23] WAIT_FOR_DIALOG_INTERACTION
455: 0x0B38 [0x27] REQ_SET(priority=0x10, entity_id=Moogle (ID: 17465597/0x010A80FD), tag_num=0x07)
456: 0x0B3F [0x52] END_LOAD_SCHEDULER: End scheduler "j00d" with entities [LocalPlayer, LocalPlayer], work=466*
457: 0x0B4E [0x01] GOTO 0x0E01
458: 0x0B51 [0x02] IF !(ExtData[1]->WorkLocal[0] == 14*) GOTO 0x0BBF
459: 0x0B59 [0x45] LOAD_SCHEDULED_TASK: Load scheduler "j00e" with entities [LocalPlayer, LocalPlayer], work=[466*, 0*]
460: 0x0B6A [0x27] REQ_SET(priority=0x10, entity_id=Kupiruru (ID: 17465598/0x010A80FE), tag_num=0x03)
461: 0x0B71 [0x27] REQ_SET(priority=0x10, entity_id=Goblin Repossessor (ID: 17465600/0x010A8100), tag_num=0x22)
462: 0x0B78 [0x2B] Goblin Repossessor (ID: 17465600/0x010A8100) [7722*]:
    → "Heh. You really not so bright, are you?"
463: 0x0B7F [0x23] WAIT_FOR_DIALOG_INTERACTION
464: 0x0B80 [0x27] REQ_SET(priority=0x10, entity_id=Goblin Repossessor (ID: 17465600/0x010A8100), tag_num=0x23)
465: 0x0B87 [0x27] REQ_SET(priority=0x10, entity_id=Goblin Repossessor (ID: 17465600/0x010A8100), tag_num=0x1F)
466: 0x0B8E [0x5D] SET_MUSIC_VOLUME(volume=0*, fade_time=60*)
467: 0x0B93 [0x1C] WAIT(60* ticks)
468: 0x0B96 [0x2B] Goblin Repossessor (ID: 17465600/0x010A8100) [7723*]:
    → "Fine. You no want do easy way, we do it...fun way."
469: 0x0B9D [0x23] WAIT_FOR_DIALOG_INTERACTION
470: 0x0B9E [0x4A] Nanaa Mihgo (ID: 17465599/0x010A80FF) looks at LocalPlayer
471: 0x0BA7 [0x2A] GET_REQ_LEVEL(level=16, entity_id=Goblin Repossessor (ID: 17465600/0x010A8100))
472: 0x0BAD [0x52] END_LOAD_SCHEDULER: End scheduler "j00e" with entities [LocalPlayer, LocalPlayer], work=466*
473: 0x0BBC [0x01] GOTO 0x0E01
474: 0x0BBF [0x02] IF !(ExtData[1]->WorkLocal[0] == 15*) GOTO 0x0BCA
475: 0x0BC7 [0x01] GOTO 0x0E01
476: 0x0BCA [0x02] IF !(ExtData[1]->WorkLocal[0] == 16*) GOTO 0x0C40
477: 0x0BD2 [0x45] LOAD_SCHEDULED_TASK: Load scheduler "j00f" with entities [LocalPlayer, LocalPlayer], work=[466*, 0*]
478: 0x0BE3 [0x1C] WAIT(30* ticks)
479: 0x0BE6 [0x27] REQ_SET(priority=0x10, entity_id=Nanaa Mihgo (ID: 17465599/0x010A80FF), tag_num=0x07)
480: 0x0BED [0x1C] WAIT(30* ticks)
481: 0x0BF0 [0x4A] Goblin Enforcer (ID: 17465602/0x010A8102) looks at Nanaa Mihgo (ID: 17465599/0x010A80FF)
482: 0x0BF9 [0x6F] WAIT_FRAME_DELAY: Yield until WaitTime reaches zero
483: 0x0BFA [0x76] CHECK_ENTITY_RENDER_FLAGS: Wait until Goblin Enforcer (ID: 17465602/0x010A8102) Render.Flags0 and Render.Flags3 conditions are met
484: 0x0BFF [0x79] LocalPlayer looks at Nanaa Mihgo (ID: 17465599/0x010A80FF) (Basic look)
485: 0x0C09 [0x27] REQ_SET(priority=0x10, entity_id=Nanaa Mihgo (ID: 17465599/0x010A80FF), tag_num=0x0B)
486: 0x0C10 [0x1C] WAIT(30* ticks)
487: 0x0C13 [0x27] REQ_SET(priority=0x10, entity_id=Goblin Enforcer (ID: 17465602/0x010A8102), tag_num=0x08)
488: 0x0C1A [0x2B] Goblin Enforcer (ID: 17465602/0x010A8102) [7724*]:
    → "Boss have feeling you try this funny business. So he bring little...friend."
489: 0x0C21 [0x27] REQ_SET(priority=0x10, entity_id=Goblin Enforcer (ID: 17465602/0x010A8102), tag_num=0x09)
490: 0x0C28 [0x1A] CALL_SUBROUTINE(address=0x0615)
491: 0x0C2B [0x55] WAIT_LOAD_SCHEDULER: Wait for scheduler "j00f" with entities [LocalPlayer, LocalPlayer], work=466*
492: 0x0C3A [0x1A] CALL_SUBROUTINE(address=0x19E9)
493: 0x0C3D [0x01] GOTO 0x0E01
494: 0x0C40 [0x02] IF !(ExtData[1]->WorkLocal[0] == 17*) GOTO 0x0D48
495: 0x0C48 [0x29] REQ_SET_WAIT(priority=0x10, entity_id=Goblin Repossessor (ID: 17465600/0x010A8100), tag_num=0x20)
496: 0x0C4F [0x27] REQ_SET(priority=0x10, entity_id=Moogle (ID: 17465597/0x010A80FD), tag_num=0x12)
497: 0x0C56 [0x27] REQ_SET(priority=0x10, entity_id=Kupiruru (ID: 17465598/0x010A80FE), tag_num=0x02)
498: 0x0C5D [0x27] REQ_SET(priority=0x10, entity_id=Nanaa Mihgo (ID: 17465599/0x010A80FF), tag_num=0x07)
499: 0x0C64 [0x4A] Goblin Repossessor (ID: 17465600/0x010A8100) looks at 4 (ID: 17465603/0x010A8103)
500: 0x0C6D [0x4A] Goblin Enforcer (ID: 17465602/0x010A8102) looks at 4 (ID: 17465603/0x010A8103)
501: 0x0C76 [0x4A] LocalPlayer looks at Nanaa Mihgo (ID: 17465599/0x010A80FF)
502: 0x0C7F [0x6F] WAIT_FRAME_DELAY: Yield until WaitTime reaches zero
503: 0x0C80 [0x76] CHECK_ENTITY_RENDER_FLAGS: Wait until LocalPlayer Render.Flags0 and Render.Flags3 conditions are met
504: 0x0C85 [0x1C] WAIT(30* ticks)
505: 0x0C88 [0xBA] SET_ENTITY_POSITION(entity_id=LocalPlayer, pos_x=-0.846*, pos_z=-4.408*, pos_y=0.783*, direction=285.8°*)
506: 0x0C95 [0xBA] SET_ENTITY_POSITION(entity_id=Goblin Repossessor (ID: 17465600/0x010A8100), pos_x=0.320*, pos_z=-0.095*, pos_y=0.824*, direction=313.2°*)
507: 0x0CA2 [0xBA] SET_ENTITY_POSITION(entity_id=Nanaa Mihgo (ID: 17465599/0x010A80FF), pos_x=0.812*, pos_z=-1.826*, pos_y=0.824*, direction=0.0°*)
508: 0x0CAF [0x80] LOAD_WAIT(entity=LocalPlayer)
509: 0x0CB4 [0x80] LOAD_WAIT(entity=Goblin Repossessor (ID: 17465600/0x010A8100))
510: 0x0CB9 [0x80] LOAD_WAIT(entity=Nanaa Mihgo (ID: 17465599/0x010A80FF))
511: 0x0CBE [0x1C] WAIT(15* ticks)
512: 0x0CC1 [0x4A] LocalPlayer looks at Nanaa Mihgo (ID: 17465599/0x010A80FF)
513: 0x0CCA [0x4A] Nanaa Mihgo (ID: 17465599/0x010A80FF) looks at 4 (ID: 17465603/0x010A8103)
514: 0x0CD3 [0x4A] Goblin Repossessor (ID: 17465600/0x010A8100) looks at 4 (ID: 17465603/0x010A8103)
515: 0x0CDC [0x6F] WAIT_FRAME_DELAY: Yield until WaitTime reaches zero
516: 0x0CDD [0x76] CHECK_ENTITY_RENDER_FLAGS: Wait until Nanaa Mihgo (ID: 17465599/0x010A80FF) Render.Flags0 and Render.Flags3 conditions are met
517: 0x0CE2 [0x6F] WAIT_FRAME_DELAY: Yield until WaitTime reaches zero
518: 0x0CE3 [0x76] CHECK_ENTITY_RENDER_FLAGS: Wait until Goblin Repossessor (ID: 17465600/0x010A8100) Render.Flags0 and Render.Flags3 conditions are met
519: 0x0CE8 [0x6F] WAIT_FRAME_DELAY: Yield until WaitTime reaches zero
520: 0x0CE9 [0x76] CHECK_ENTITY_RENDER_FLAGS: Wait until LocalPlayer Render.Flags0 and Render.Flags3 conditions are met
521: 0x0CEE [0x1C] WAIT(15* ticks)
522: 0x0CF1 [0x7B] Nanaa Mihgo (ID: 17465599/0x010A80FF) stops talking
523: 0x0CF6 [0x7B] Goblin Repossessor (ID: 17465600/0x010A8100) stops talking
524: 0x0CFB [0x7B] Goblin Enforcer (ID: 17465602/0x010A8102) stops talking
525: 0x0D00 [0x5C] MUSIC_CONTROL: Set Idle (Day) music to song 193*
526: 0x0D04 [0x5C] MUSIC_CONTROL: Set Idle (Night) music to song 193*
527: 0x0D08 [0x9A] WAIT_MUSIC_SERVER()
528: 0x0D09 [0x1C] WAIT(30* ticks)
529: 0x0D0C [0x45] LOAD_SCHEDULED_TASK: Load scheduler "j00g" with entities [LocalPlayer, LocalPlayer], work=[466*, 0*]
530: 0x0D1D [0x1A] CALL_SUBROUTINE(address=0x19C8)
531: 0x0D20 [0x27] REQ_SET(priority=0x10, entity_id=Goblin Repossessor (ID: 17465600/0x010A8100), tag_num=0x22)
532: 0x0D27 [0x2B] Goblin Repossessor (ID: 17465600/0x010A8100) [7725*]:
    → "Maybe you know Nanaa Mihgo. She come to play with you today. Teach you good lesson about paying rent on time...har har har."
533: 0x0D2E [0x23] WAIT_FOR_DIALOG_INTERACTION
534: 0x0D2F [0x29] REQ_SET_WAIT(priority=0x10, entity_id=Goblin Repossessor (ID: 17465600/0x010A8100), tag_num=0x23)
535: 0x0D36 [0x52] END_LOAD_SCHEDULER: End scheduler "j00g" with entities [LocalPlayer, LocalPlayer], work=466*
536: 0x0D45 [0x01] GOTO 0x0E01
537: 0x0D48 [0x02] IF !(ExtData[1]->WorkLocal[0] == 18*) GOTO 0x0D85
538: 0x0D50 [0x45] LOAD_SCHEDULED_TASK: Load scheduler "j00h" with entities [LocalPlayer, LocalPlayer], work=[466*, 0*]
539: 0x0D61 [0x29] REQ_SET_WAIT(priority=0x10, entity_id=Nanaa Mihgo (ID: 17465599/0x010A80FF), tag_num=0x0A)
540: 0x0D68 [0x1C] WAIT(30* ticks)
541: 0x0D6B [0x2B] Nanaa Mihgo (ID: 17465599/0x010A80FF) [7726*]:
    → "Awww, don't look at me with those little kitty-cat eyes..."
542: 0x0D72 [0x23] WAIT_FOR_DIALOG_INTERACTION
543: 0x0D73 [0x52] END_LOAD_SCHEDULER: End scheduler "j00h" with entities [LocalPlayer, LocalPlayer], work=466*
544: 0x0D82 [0x01] GOTO 0x0E01
545: 0x0D85 [0x02] IF !(ExtData[1]->WorkLocal[0] == 19*) GOTO 0x0DC6
546: 0x0D8D [0x45] LOAD_SCHEDULED_TASK: Load scheduler "j00i" with entities [LocalPlayer, LocalPlayer], work=[466*, 0*]
547: 0x0D9E [0x2B] Nanaa Mihgo (ID: 17465599/0x010A80FF) [7727*]:
    → "I mean, what gil-loving cat burrrglar in her rrright mind could turn down such a lucrrrative offer?"
548: 0x0DA5 [0x23] WAIT_FOR_DIALOG_INTERACTION
549: 0x0DA6 [0x27] REQ_SET(priority=0x10, entity_id=Goblin Repossessor (ID: 17465600/0x010A8100), tag_num=0x1F)
550: 0x0DAD [0x27] REQ_SET(priority=0x10, entity_id=Goblin Enforcer (ID: 17465602/0x010A8102), tag_num=0x11)
551: 0x0DB4 [0x52] END_LOAD_SCHEDULER: End scheduler "j00i" with entities [LocalPlayer, LocalPlayer], work=466*
552: 0x0DC3 [0x01] GOTO 0x0E01
553: 0x0DC6 [0x02] IF !(ExtData[1]->WorkLocal[0] == 20*) GOTO 0x0E01
554: 0x0DCE [0x45] LOAD_SCHEDULED_TASK: Load scheduler "j00j" with entities [LocalPlayer, LocalPlayer], work=[466*, 0*]
555: 0x0DDF [0x2B] Nanaa Mihgo (ID: 17465599/0x010A80FF) [7728*]:
    → "So no harrrd feelings, okay? I'll make this quick and painless for ya!"
556: 0x0DE6 [0x1C] WAIT(40* ticks)
557: 0x0DE9 [0x1A] CALL_SUBROUTINE(address=0x1A6D)
558: 0x0DEC [0x52] END_LOAD_SCHEDULER: End scheduler "j00j" with entities [LocalPlayer, LocalPlayer], work=466*
559: 0x0DFB [0x1C] WAIT(30* ticks)
560: 0x0DFE [0x01] GOTO 0x0E01

SUBROUTINE_0E01:
561: 0x0E01 [0x1B] RETURN
```

### Event 6

#### Metadata

| Field        | Value      |
|--------------|------------|
| Entrypoint   | 0x0E02     |
| Data Size    | 3245 bytes |
| Instructions | 469        |

```
      00 01 02 03 04 05 06 07  08 09 0A 0B 0C 0D 0E 0F
      -- -- -- -- -- -- -- --  -- -- -- -- -- -- -- --
0E00:       42 1A E9 19 46 01  38 00 80 4E 00 F0 FF FF    B...F.8..N....
0E10: 7F 27 10 F0 FF FF 7F 17  27 10 FD 80 0A 01 01 27  .'......'......'
0E20: 10 FE 80 0A 01 01 27 10  FF 80 0A 01 01 27 10 00  ......'......'..
0E30: 81 0A 01 01 27 10 01 81  0A 01 01 27 10 02 81 0A  ....'......'....
0E40: 01 01 27 10 00 81 0A 01  04 27 10 01 81 0A 01 04  ..'......'......
0E50: 27 10 02 81 0A 01 04 BA  F0 FF FF 7F 01 80 01 80  '...............
0E60: 67 80 01 80 BA FD 80 0A  01 68 80 69 80 6A 80 07  g........h.i.j..
0E70: 80 BA FE 80 0A 01 6B 80  6C 80 6A 80 07 80 BA FF  ......k.l.j.....
0E80: 80 0A 01 01 80 6D 80 67  80 6E 80 BA 00 81 0A 01  .....m.g.n......
0E90: 6F 80 70 80 6A 80 07 80  BA 01 81 0A 01 71 80 72  o.p.j........q.r
0EA0: 80 6A 80 07 80 BA 02 81  0A 01 73 80 74 80 6A 80  .j........s.t.j.
0EB0: 07 80 80 F0 FF FF 7F 80  FD 80 0A 01 80 FE 80 0A  ................
0EC0: 01 80 FF 80 0A 01 80 00  81 0A 01 80 01 81 0A 01  ................
0ED0: 80 02 81 0A 01 1C 1E 80  2C FE 80 0A 01 FE 80 0A  ........,.......
0EE0: 01 6B 69 6C 61 4A F0 FF  FF 7F FF 80 0A 01 4A FD  .kilaJ........J.
0EF0: 80 0A 01 FF 80 0A 01 4A  FE 80 0A 01 FF 80 0A 01  .......J........
0F00: 4A FF 80 0A 01 F0 FF FF  7F 4A 00 81 0A 01 F0 FF  J........J......
0F10: FF 7F 4A 01 81 0A 01 F0  FF FF 7F 4A 02 81 0A 01  ..J........J....
0F20: F0 FF FF 7F 6F 76 F0 FF  FF 7F 6F 76 FD 80 0A 01  ....ov....ov....
0F30: 6F 76 FE 80 0A 01 6F 76  FF 80 0A 01 6F 76 00 81  ov....ov....ov..
0F40: 0A 01 6F 76 01 81 0A 01  6F 76 02 81 0A 01 1C 1E  ..ov....ov......
0F50: 80 7B F0 FF FF 7F 7B FD  80 0A 01 7B FE 80 0A 01  .{....{....{....
0F60: 7B FF 80 0A 01 7B 00 81  0A 01 7B 01 81 0A 01 7B  {....{....{....{
0F70: 02 81 0A 01 27 10 FF 80  0A 01 0E 27 10 D6 80 0A  ....'......'....
0F80: 01 01 27 10 FE 80 0A 01  06 27 10 00 81 0A 01 0D  ..'......'......
0F90: 1C 4D 80 5C 00 62 80 5C  01 62 80 9A 03 01 00 1F  .M.\.b.\.b......
0FA0: 80 02 01 00 30 80 05 70  12 02 01 80 01 00 04 68  ....0..p.......h
0FB0: 12 02 01 00 21 80 80 BF  0F 1A C8 19 01 68 12 02  ....!........h..
0FC0: 01 00 22 80 80 D7 0F 27  10 FF 80 0A 01 0F 7C 01  .."....'......|.
0FD0: FF 80 0A 01 01 68 12 02  01 00 23 80 80 15 10 4A  .....h....#....J
0FE0: FF 80 0A 01 00 81 0A 01  27 10 00 81 0A 01 08 27  ........'......'
0FF0: 10 01 81 0A 01 0F 27 10  02 81 0A 01 0D 27 10 00  ......'......'..
1000: 81 0A 01 09 27 10 01 81  0A 01 11 27 10 02 81 0A  ....'......'....
1010: 01 0F 01 68 12 02 01 00  24 80 80 4E 10 4A F0 FF  ...h....$..N.J..
1020: FF 7F 00 81 0A 01 27 10  00 81 0A 01 0A 27 10 01  ......'......'..
1030: 81 0A 01 12 27 10 02 81  0A 01 10 6F 76 F0 FF FF  ....'......ov...
1040: 7F 79 00 F0 FF FF 7F 00  81 0A 01 01 68 12 02 01  .y..........h...
1050: 00 26 80 80 65 10 7B FF  80 0A 01 27 10 FF 80 0A  .&..e.{....'....
1060: 01 0D 01 68 12 02 01 00  27 80 80 A9 10 4A F0 FF  ...h....'....J..
1070: FF 7F FF 80 0A 01 4A FD  80 0A 01 FF 80 0A 01 4A  ......J........J
1080: FE 80 0A 01 FF 80 0A 01  4A 00 81 0A 01 FF 80 0A  ........J.......
1090: 01 4A 01 81 0A 01 FF 80  0A 01 4A 02 81 0A 01 FF  .J........J.....
10A0: 80 0A 01 1A E9 19 01 68  12 02 01 00 2C 80 80 1D  .......h....,...
10B0: 11 4E 01 FF 80 0A 01 1A  C8 19 4A 00 81 0A 01 F0  .N........J.....
10C0: FF FF 7F 4A 01 81 0A 01  F0 FF FF 7F 4A 02 81 0A  ...J........J...
10D0: 01 F0 FF FF 7F 4A F0 FF  FF 7F 00 81 0A 01 4A FD  .....J........J.
10E0: 80 0A 01 00 81 0A 01 4A  FE 80 0A 01 00 81 0A 01  .......J........
10F0: 27 10 00 81 0A 01 1F 27  10 01 81 0A 01 13 27 10  '......'......'.
1100: 02 81 0A 01 11 27 10 00  81 0A 01 20 27 10 01 81  .....'..... '...
1110: 0A 01 14 27 10 02 81 0A  01 12 01 68 12 02 01 00  ...'.......h....
1120: 2D 80 80 58 11 27 10 00  81 0A 01 05 27 10 01 81  -..X.'......'...
1130: 0A 01 10 27 10 02 81 0A  01 0E 4A F0 FF FF 7F 00  ...'......J.....
1140: 81 0A 01 4A FD 80 0A 01  00 81 0A 01 4A FE 80 0A  ...J........J...
1150: 01 00 81 0A 01 01 68 12  02 01 00 2E 80 80 6D 11  ......h.......m.
1160: 27 10 FD 80 0A 01 14 1A  E9 19 01 68 12 02 01 00  '..........h....
1170: 2F 80 80 00 12 4E 01 FF  80 0A 01 4E 01 00 81 0A  /....N.....N....
1180: 01 4E 01 01 81 0A 01 4E  01 02 81 0A 01 BA FD 80  .N.....N........
1190: 0A 01 01 80 75 80 6A 80  07 80 BA FE 80 0A 01 76  ....u.j........v
11A0: 80 75 80 6A 80 07 80 80  FD 80 0A 01 80 FE 80 0A  .u.j............
11B0: 01 4A F0 FF FF 7F FD 80  0A 01 4A FD 80 0A 01 F0  .J........J.....
11C0: FF FF 7F 4A FE 80 0A 01  F0 FF FF 7F 6F 76 F0 FF  ...J........ov..
11D0: FF 7F 6F 76 FD 80 0A 01  6F 76 FE 80 0A 01 1A C8  ..ov....ov......
11E0: 19 27 10 FD 80 0A 01 04  29 10 FD 80 0A 01 07 4A  .'......)......J
11F0: F0 FF FF 7F FD 80 0A 01  7B FD 80 0A 01 01 68 12  ........{.....h.
1200: 02 01 00 30 80 80 4F 12  4A FD 80 0A 01 FE 80 0A  ...0..O.J.......
1210: 01 7B FD 80 0A 01 6F 76  FD 80 0A 01 27 10 FD 80  .{....ov....'...
1220: 0A 01 05 29 10 FD 80 0A  01 07 4A FE 80 0A 01 FD  ...)......J.....
1230: 80 0A 01 6F 76 FE 80 0A  01 7B FE 80 0A 01 27 10  ...ov....{....'.
1240: FE 80 0A 01 07 29 10 FE  80 0A 01 08 01 68 12 02  .....).......h..
1250: 01 00 31 80 80 68 12 27  10 FD 80 0A 01 03 29 10  ..1..h.'......).
1260: FE 80 0A 01 0D 01 68 12  07 01 00 1F 80 01 A1 0F  ......h.........
1270: 03 01 00 1F 80 02 01 00  30 80 05 90 12 02 01 80  ........0.......
1280: 01 00 05 88 12 1A BB 12  07 01 00 1F 80 01 75 12  ..............u.
1290: 5C 00 01 80 5C 01 01 80  9A 46 00 45 46 80 F0 FF  \...\....F.EF...
12A0: FF 7F F0 FF FF 7F 66 64  69 32 01 80 21 00 02 01  ......fdi2..!...
12B0: 80 1F 80 00 BA 12 48 77  80 23 1B 02 01 00 1F 80  ......Hw.#......
12C0: 80 E9 12 45 78 80 F0 FF  FF 7F F0 FF FF 7F 6C 31  ...Ex.........l1
12D0: 30 31 01 80 1A C8 19 55  78 80 F0 FF FF 7F F0 FF  01.....Ux.......
12E0: FF 7F 6C 31 30 31 01 85  19 02 01 00 21 80 80 8D  ..l101......!...
12F0: 13 4E 01 FE 80 0A 01 45  78 80 F0 FF FF 7F F0 FF  .N.....Ex.......
1300: FF 7F 6C 30 30 31 01 80  27 10 00 81 0A 01 0E 27  ..l001..'......'
1310: 10 00 81 0A 01 02 2B FF  80 0A 01 77 80 23 2A 10  ......+....w.#*.
1320: 00 81 0A 01 52 78 80 F0  FF FF 7F F0 FF FF 7F 6C  ....Rx.........l
1330: 30 30 31 45 78 80 F0 FF  FF 7F F0 FF FF 7F 6C 30  001Ex.........l0
1340: 30 32 01 80 27 10 FF 80  0A 01 0F 1C 20 80 4E 00  02..'....... .N.
1350: FE 80 0A 01 2B FF 80 0A  01 79 80 23 2A 10 FF 80  ....+....y.#*...
1360: 0A 01 7C 01 FF 80 0A 01  2B FF 80 0A 01 7A 80 23  ..|.....+....z.#
1370: 2B FF 80 0A 01 7B 80 23  1A AE 12 52 78 80 F0 FF  +....{.#...Rx...
1380: FF 7F F0 FF FF 7F 6C 30  30 32 01 85 19 02 01 00  ......l002......
1390: 22 80 80 4D 14 45 78 80  F0 FF FF 7F F0 FF FF 7F  "..M.Ex.........
13A0: 6C 30 30 35 01 80 27 10  00 81 0A 01 03 7B FF 80  l005..'......{..
13B0: 0A 01 4A FF 80 0A 01 00  81 0A 01 6F 76 FF 80 0A  ..J........ov...
13C0: 01 1C 1E 80 4A 00 81 0A  01 FF 80 0A 01 1C 2E 80  ....J...........
13D0: 4A 01 81 0A 01 FF 80 0A  01 1C 1E 80 4A 02 81 0A  J...........J...
13E0: 01 FF 80 0A 01 1C 7C 80  2C FE 80 0A 01 FE 80 0A  ......|.,.......
13F0: 01 6B 69 6C 61 2B FF 80  0A 01 7D 80 23 52 78 80  .kila+....}.#Rx.
1400: F0 FF FF 7F F0 FF FF 7F  6C 30 30 35 45 78 80 F0  ........l005Ex..
1410: FF FF 7F F0 FF FF 7F 6C  31 30 35 01 80 27 10 00  .......l105..'..
1420: 81 0A 01 09 27 10 01 81  0A 01 11 27 10 02 81 0A  ....'......'....
1430: 01 0F 1C 45 80 1A AE 12  55 78 80 F0 FF FF 7F F0  ...E....Ux......
1440: FF FF 7F 6C 31 30 35 1C  45 80 01 85 19 02 01 00  ...l105.E.......
1450: 23 80 80 DF 14 45 78 80  F0 FF FF 7F F0 FF FF 7F  #....Ex.........
1460: 6C 30 30 36 01 80 4A F0  FF FF 7F 00 81 0A 01 27  l006..J........'
1470: 10 00 81 0A 01 0A 1C 24  80 27 10 01 81 0A 01 12  .......$.'......
1480: 1C 1E 80 27 10 02 81 0A  01 10 2B FF 80 0A 01 7E  ...'......+....~
1490: 80 23 1A AE 12 6F 76 F0  FF FF 7F 79 00 F0 FF FF  .#...ov....y....
14A0: 7F 00 81 0A 01 52 78 80  F0 FF FF 7F F0 FF FF 7F  .....Rx.........
14B0: 6C 30 30 36 45 78 80 F0  FF FF 7F F0 FF FF 7F 6C  l006Ex.........l
14C0: 31 30 36 01 80 2B FF 80  0A 01 7F 80 23 52 78 80  106..+......#Rx.
14D0: F0 FF FF 7F F0 FF FF 7F  6C 31 30 36 01 85 19 02  ........l106....
14E0: 01 00 24 80 80 7F 15 45  78 80 F0 FF FF 7F F0 FF  ..$....Ex.......
14F0: FF 7F 6C 30 30 37 01 80  7B FF 80 0A 01 1C 2E 80  ..l007..{.......
1500: 27 10 FF 80 0A 01 0D 1A  AE 12 5D 01 80 80 80 2B  '.........]....+
1510: 01 81 0A 01 81 80 1C 45  80 4A F0 FF FF 7F FF 80  .......E.J......
1520: 0A 01 4A 00 81 0A 01 FF  80 0A 01 1C 24 80 4A 01  ..J.........$.J.
1530: 81 0A 01 FF 80 0A 01 1C  27 80 4A 02 81 0A 01 FF  ........'.J.....
1540: 80 0A 01 1C 4A 80 4A FD  80 0A 01 FF 80 0A 01 4A  ....J.J........J
1550: FE 80 0A 01 FF 80 0A 01  1C 20 80 4A F0 FF FF 7F  ......... .J....
1560: FF 80 0A 01 1A AE 12 1C  2E 80 1A E9 19 55 78 80  .............Ux.
1570: F0 FF FF 7F F0 FF FF 7F  6C 30 30 37 01 85 19 02  ........l007....
1580: 01 00 26 80 80 8A 15 01  85 19 02 01 00 27 80 80  ..&..........'..
1590: 9D 16 4E 01 FF 80 0A 01  4A 00 81 0A 01 F0 FF FF  ..N.....J.......
15A0: 7F 4A 01 81 0A 01 F0 FF  FF 7F 4A 02 81 0A 01 F0  .J........J.....
15B0: FF FF 7F 6F 76 00 81 0A  01 6F 76 01 81 0A 01 6F  ...ov....ov....o
15C0: 76 02 81 0A 01 5C 00 82  80 5C 01 82 80 9A 1C 1D  v....\...\......
15D0: 80 45 78 80 F0 FF FF 7F  F0 FF FF 7F 6C 30 30 39  .Ex.........l009
15E0: 01 80 1A C8 19 2B 02 81  0A 01 83 80 23 52 78 80  .....+......#Rx.
15F0: F0 FF FF 7F F0 FF FF 7F  6C 30 30 39 45 78 80 F0  ........l009Ex..
1600: FF FF 7F F0 FF FF 7F 6C  31 30 39 01 80 2B 00 81  .......l109..+..
1610: 0A 01 84 80 23 52 78 80  F0 FF FF 7F F0 FF FF 7F  ....#Rx.........
1620: 6C 31 30 39 45 78 80 F0  FF FF 7F F0 FF FF 7F 6C  l109Ex.........l
1630: 32 30 39 01 80 4A F0 FF  FF 7F 00 81 0A 01 1C 24  209..J.........$
1640: 80 4A FD 80 0A 01 00 81  0A 01 1C 1F 80 4A FE 80  .J...........J..
1650: 0A 01 00 81 0A 01 27 10  00 81 0A 01 1F 27 10 01  ......'......'..
1660: 81 0A 01 13 27 10 02 81  0A 01 11 2B 01 81 0A 01  ....'......+....
1670: 85 80 23 2A 10 00 81 0A  01 2A 10 01 81 0A 01 2A  ..#*.....*.....*
1680: 10 02 81 0A 01 1C 45 80  1A AE 12 52 78 80 F0 FF  ......E....Rx...
1690: FF 7F F0 FF FF 7F 6C 32  30 39 01 85 19 02 01 00  ......l209......
16A0: 2C 80 80 66 17 45 78 80  F0 FF FF 7F F0 FF FF 7F  ,..f.Ex.........
16B0: 6C 30 30 62 01 80 27 10  00 81 0A 01 20 1C 24 80  l00b..'..... .$.
16C0: 27 10 01 81 0A 01 14 1C  22 80 29 10 02 81 0A 01  '.......".).....
16D0: 12 27 10 00 81 0A 01 05  1C 1D 80 5D 01 80 4E 80  .'.........]..N.
16E0: 27 10 01 81 0A 01 10 1C  2E 80 27 10 02 81 0A 01  '.........'.....
16F0: 0E 1C 86 80 4A F0 FF FF  7F 00 81 0A 01 1A AE 12  ....J...........
1700: 1C 1E 80 52 78 80 F0 FF  FF 7F F0 FF FF 7F 6C 30  ...Rx.........l0
1710: 30 62 45 78 80 F0 FF FF  7F F0 FF FF 7F 6C 32 30  0bEx.........l20
1720: 62 01 80 1C 7C 80 4A FD  80 0A 01 00 81 0A 01 4A  b...|.J........J
1730: FE 80 0A 01 00 81 0A 01  6F 76 FD 80 0A 01 6F 76  ........ov....ov
1740: FE 80 0A 01 1C 1E 80 7B  FD 80 0A 01 7B FE 80 0A  .......{....{...
1750: 01 1C 87 80 52 78 80 F0  FF FF 7F F0 FF FF 7F 6C  ....Rx.........l
1760: 32 30 62 01 85 19 02 01  00 2D 80 80 AF 17 45 78  20b......-....Ex
1770: 80 F0 FF FF 7F F0 FF FF  7F 6C 31 30 62 01 80 27  .........l10b..'
1780: 10 FE 80 0A 01 0E 1C 88  80 2B FE 80 0A 01 89 80  .........+......
1790: 23 2A 10 FD 80 0A 01 1A  AE 12 1A E9 19 52 78 80  #*...........Rx.
17A0: F0 FF FF 7F F0 FF FF 7F  6C 31 30 62 01 85 19 02  ........l10b....
17B0: 01 00 2E 80 80 8D 18 4E  01 FF 80 0A 01 4E 01 00  .......N.....N..
17C0: 81 0A 01 4E 01 01 81 0A  01 4E 01 02 81 0A 01 BA  ...N.....N......
17D0: FD 80 0A 01 01 80 75 80  6A 80 07 80 BA FE 80 0A  ......u.j.......
17E0: 01 76 80 75 80 6A 80 07  80 80 FD 80 0A 01 80 FE  .v.u.j..........
17F0: 80 0A 01 1C 1E 80 4A F0  FF FF 7F FD 80 0A 01 4A  ......J........J
1800: FD 80 0A 01 F0 FF FF 7F  4B FE 80 0A 01 8A 80 6F  ........K......o
1810: 76 F0 FF FF 7F 6F 76 FD  80 0A 01 6F 76 FE 80 0A  v....ov....ov...
1820: 01 1C 1E 80 7B FE 80 0A  01 27 10 FE 80 0A 01 06  ....{....'......
1830: 5C 00 8B 80 5C 01 8B 80  9A 48 8C 80 23 1C 1D 80  \...\....H..#...
1840: 45 78 80 F0 FF FF 7F F0  FF FF 7F 6C 30 30 63 01  Ex.........l00c.
1850: 80 1A C8 19 27 10 FD 80  0A 01 04 2B FD 80 0A 01  ....'......+....
1860: 8D 80 23 29 10 FD 80 0A  01 07 4A F0 FF FF 7F FD  ..#)......J.....
1870: 80 0A 01 7B FD 80 0A 01  1A AE 12 52 78 80 F0 FF  ...{.......Rx...
1880: FF 7F F0 FF FF 7F 6C 30  30 63 01 85 19 02 01 00  ......l00c......
1890: 2F 80 80 3D 19 45 78 80  F0 FF FF 7F F0 FF FF 7F  /..=.Ex.........
18A0: 6C 30 30 64 01 80 4A FD  80 0A 01 FE 80 0A 01 7B  l00d..J........{
18B0: FD 80 0A 01 6F 76 FD 80  0A 01 1C 1D 80 27 10 FD  ....ov.......'..
18C0: 80 0A 01 05 2B FD 80 0A  01 8E 80 23 29 10 FD 80  ....+......#)...
18D0: 0A 01 07 1A AE 12 52 78  80 F0 FF FF 7F F0 FF FF  ......Rx........
18E0: 7F 6C 30 30 64 45 78 80  F0 FF FF 7F F0 FF FF 7F  .l00dEx.........
18F0: 6C 31 30 64 01 80 1C 1D  80 59 01 FE 80 0A 01 4A  l10d.....Y.....J
1900: 80 4A FE 80 0A 01 FD 80  0A 01 7B FE 80 0A 01 6F  .J........{....o
1910: 76 FE 80 0A 01 27 10 FE  80 0A 01 07 2B FE 80 0A  v....'......+...
1920: 01 8F 80 23 29 10 FE 80  0A 01 08 52 78 80 F0 FF  ...#)......Rx...
1930: FF 7F F0 FF FF 7F 6C 31  30 64 01 85 19 02 01 00  ......l10d......
1940: 30 80 80 85 19 45 78 80  F0 FF FF 7F F0 FF FF 7F  0....Ex.........
1950: 6C 30 30 65 01 80 27 10  FD 80 0A 01 03 1C 1E 80  l00e..'.........
1960: 27 10 FE 80 0A 01 0D 1A  AE 12 1C 90 80 1A E9 19  '...............
1970: 1C 1D 80 52 78 80 F0 FF  FF 7F F0 FF FF 7F 6C 30  ...Rx.........l0
1980: 30 65 01 85 19 1B 45 46  80 F0 FF FF 7F F0 FF FF  0e....EF........
1990: 7F 66 64 69 30 01 80 55  46 80 F0 FF FF 7F F0 FF  .fdi0..UF.......
19A0: FF 7F 66 64 69 30 1B 45  46 80 F0 FF FF 7F F0 FF  ..fdi0.EF.......
19B0: FF 7F 66 64 6F 30 01 80  55 46 80 F0 FF FF 7F F0  ..fdo0..UF......
19C0: FF FF 7F 66 64 6F 30 1B  45 46 80 F0 FF FF 7F F0  ...fdo0.EF......
19D0: FF FF 7F 66 64 69 31 01  80 55 46 80 F0 FF FF 7F  ...fdi1..UF.....
19E0: F0 FF FF 7F 66 64 69 31  1B 45 46 80 F0 FF FF 7F  ....fdi1.EF.....
19F0: F0 FF FF 7F 66 64 6F 31  01 80 55 46 80 F0 FF FF  ....fdo1..UF....
1A00: 7F F0 FF FF 7F 66 64 6F  31 1B 45 91 80 F0 FF FF  .....fdo1.E.....
1A10: 7F F0 FF FF 7F 77 68 69  31 01 80 55 91 80 F0 FF  .....whi1..U....
1A20: FF 7F F0 FF FF 7F 77 68  69 31 1B 45 91 80 F0 FF  ......whi1.E....
1A30: FF 7F F0 FF FF 7F 77 68  6F 31 01 80 55 91 80 F0  ......who1..U...
1A40: FF FF 7F F0 FF FF 7F 77  68 6F 31 1B 45 91 80 F0  .......who1.E...
1A50: FF FF 7F F0 FF FF 7F 77  68 69 30 01 80 55 91 80  .......whi0..U..
1A60: F0 FF FF 7F F0 FF FF 7F  77 68 69 30 1B 45 91 80  ........whi0.E..
1A70: F0 FF FF 7F F0 FF FF 7F  77 68 6F 30 01 80 55 91  ........who0..U.
1A80: 80 F0 FF FF 7F F0 FF FF  7F 77 68 6F 30 1B 45 92  .........who0.E.
1A90: 80 F0 FF FF 7F F0 FF FF  7F 65 66 6F 6E 01 80 55  .........efon..U
1AA0: 92 80 F0 FF FF 7F F0 FF  FF 7F 65 66 6F 6E 1B     ..........efon. 
```

#### Opcodes

```
  0: 0x0E02 [0x42] SET_CLI_EVENT_CANCEL_DATA()
  1: 0x0E03 [0x1A] CALL_SUBROUTINE(address=0x19E9)
  2: 0x0E06 [0x46] CAMERA_CONTROL: Disable user control
  3: 0x0E08 [0x38] SET_CLIENT_EVENT_MODE(mode=19*)
  4: 0x0E0B [0x4E] SET_ENTITY_HIDE_FLAG: Show LocalPlayer
  5: 0x0E11 [0x27] REQ_SET(priority=0x10, entity_id=LocalPlayer, tag_num=0x17)
  6: 0x0E18 [0x27] REQ_SET(priority=0x10, entity_id=Moogle (ID: 17465597/0x010A80FD), tag_num=0x01)
  7: 0x0E1F [0x27] REQ_SET(priority=0x10, entity_id=Kupiruru (ID: 17465598/0x010A80FE), tag_num=0x01)
  8: 0x0E26 [0x27] REQ_SET(priority=0x10, entity_id=Nanaa Mihgo (ID: 17465599/0x010A80FF), tag_num=0x01)
  9: 0x0E2D [0x27] REQ_SET(priority=0x10, entity_id=Goblin Repossessor (ID: 17465600/0x010A8100), tag_num=0x01)
 10: 0x0E34 [0x27] REQ_SET(priority=0x10, entity_id=Goblin Intimidator (ID: 17465601/0x010A8101), tag_num=0x01)
 11: 0x0E3B [0x27] REQ_SET(priority=0x10, entity_id=Goblin Enforcer (ID: 17465602/0x010A8102), tag_num=0x01)
 12: 0x0E42 [0x27] REQ_SET(priority=0x10, entity_id=Goblin Repossessor (ID: 17465600/0x010A8100), tag_num=0x04)
 13: 0x0E49 [0x27] REQ_SET(priority=0x10, entity_id=Goblin Intimidator (ID: 17465601/0x010A8101), tag_num=0x04)
 14: 0x0E50 [0x27] REQ_SET(priority=0x10, entity_id=Goblin Enforcer (ID: 17465602/0x010A8102), tag_num=0x04)
 15: 0x0E57 [0xBA] SET_ENTITY_POSITION(entity_id=LocalPlayer, pos_x=0.000*, pos_z=0.000*, pos_y=-2.250*, direction=0.0°*)
 16: 0x0E64 [0xBA] SET_ENTITY_POSITION(entity_id=Moogle (ID: 17465597/0x010A80FD), pos_x=-3.489*, pos_z=1.724*, pos_y=-2.249*, direction=270.1°*)
 17: 0x0E71 [0xBA] SET_ENTITY_POSITION(entity_id=Kupiruru (ID: 17465598/0x010A80FE), pos_x=-3.317*, pos_z=2.842*, pos_y=-2.249*, direction=270.1°*)
 18: 0x0E7E [0xBA] SET_ENTITY_POSITION(entity_id=Nanaa Mihgo (ID: 17465599/0x010A80FF), pos_x=0.000*, pos_z=3.279*, pos_y=-2.250*, direction=268.8°*)
 19: 0x0E8B [0xBA] SET_ENTITY_POSITION(entity_id=Goblin Repossessor (ID: 17465600/0x010A8100), pos_x=2.121*, pos_z=4.858*, pos_y=-2.249*, direction=270.1°*)
 20: 0x0E98 [0xBA] SET_ENTITY_POSITION(entity_id=Goblin Intimidator (ID: 17465601/0x010A8101), pos_x=3.577*, pos_z=4.123*, pos_y=-2.249*, direction=270.1°*)
 21: 0x0EA5 [0xBA] SET_ENTITY_POSITION(entity_id=Goblin Enforcer (ID: 17465602/0x010A8102), pos_x=1.163*, pos_z=5.967*, pos_y=-2.249*, direction=270.1°*)
 22: 0x0EB2 [0x80] LOAD_WAIT(entity=LocalPlayer)
 23: 0x0EB7 [0x80] LOAD_WAIT(entity=Moogle (ID: 17465597/0x010A80FD))
 24: 0x0EBC [0x80] LOAD_WAIT(entity=Kupiruru (ID: 17465598/0x010A80FE))
 25: 0x0EC1 [0x80] LOAD_WAIT(entity=Nanaa Mihgo (ID: 17465599/0x010A80FF))
 26: 0x0EC6 [0x80] LOAD_WAIT(entity=Goblin Repossessor (ID: 17465600/0x010A8100))
 27: 0x0ECB [0x80] LOAD_WAIT(entity=Goblin Intimidator (ID: 17465601/0x010A8101))
 28: 0x0ED0 [0x80] LOAD_WAIT(entity=Goblin Enforcer (ID: 17465602/0x010A8102))
 29: 0x0ED5 [0x1C] WAIT(15* ticks)
 30: 0x0ED8 [0x2C] CREATE_SCHEDULER_TASK: Create scheduler "kila" with entities [Kupiruru (ID: 17465598/0x010A80FE), Kupiruru (ID: 17465598/0x010A80FE)]
 31: 0x0EE5 [0x4A] LocalPlayer looks at Nanaa Mihgo (ID: 17465599/0x010A80FF)
 32: 0x0EEE [0x4A] Moogle (ID: 17465597/0x010A80FD) looks at Nanaa Mihgo (ID: 17465599/0x010A80FF)
 33: 0x0EF7 [0x4A] Kupiruru (ID: 17465598/0x010A80FE) looks at Nanaa Mihgo (ID: 17465599/0x010A80FF)
 34: 0x0F00 [0x4A] Nanaa Mihgo (ID: 17465599/0x010A80FF) looks at LocalPlayer
 35: 0x0F09 [0x4A] Goblin Repossessor (ID: 17465600/0x010A8100) looks at LocalPlayer
 36: 0x0F12 [0x4A] Goblin Intimidator (ID: 17465601/0x010A8101) looks at LocalPlayer
 37: 0x0F1B [0x4A] Goblin Enforcer (ID: 17465602/0x010A8102) looks at LocalPlayer
 38: 0x0F24 [0x6F] WAIT_FRAME_DELAY: Yield until WaitTime reaches zero
 39: 0x0F25 [0x76] CHECK_ENTITY_RENDER_FLAGS: Wait until LocalPlayer Render.Flags0 and Render.Flags3 conditions are met
 40: 0x0F2A [0x6F] WAIT_FRAME_DELAY: Yield until WaitTime reaches zero
 41: 0x0F2B [0x76] CHECK_ENTITY_RENDER_FLAGS: Wait until Moogle (ID: 17465597/0x010A80FD) Render.Flags0 and Render.Flags3 conditions are met
 42: 0x0F30 [0x6F] WAIT_FRAME_DELAY: Yield until WaitTime reaches zero
 43: 0x0F31 [0x76] CHECK_ENTITY_RENDER_FLAGS: Wait until Kupiruru (ID: 17465598/0x010A80FE) Render.Flags0 and Render.Flags3 conditions are met
 44: 0x0F36 [0x6F] WAIT_FRAME_DELAY: Yield until WaitTime reaches zero
 45: 0x0F37 [0x76] CHECK_ENTITY_RENDER_FLAGS: Wait until Nanaa Mihgo (ID: 17465599/0x010A80FF) Render.Flags0 and Render.Flags3 conditions are met
 46: 0x0F3C [0x6F] WAIT_FRAME_DELAY: Yield until WaitTime reaches zero
 47: 0x0F3D [0x76] CHECK_ENTITY_RENDER_FLAGS: Wait until Goblin Repossessor (ID: 17465600/0x010A8100) Render.Flags0 and Render.Flags3 conditions are met
 48: 0x0F42 [0x6F] WAIT_FRAME_DELAY: Yield until WaitTime reaches zero
 49: 0x0F43 [0x76] CHECK_ENTITY_RENDER_FLAGS: Wait until Goblin Intimidator (ID: 17465601/0x010A8101) Render.Flags0 and Render.Flags3 conditions are met
 50: 0x0F48 [0x6F] WAIT_FRAME_DELAY: Yield until WaitTime reaches zero
 51: 0x0F49 [0x76] CHECK_ENTITY_RENDER_FLAGS: Wait until Goblin Enforcer (ID: 17465602/0x010A8102) Render.Flags0 and Render.Flags3 conditions are met
 52: 0x0F4E [0x1C] WAIT(15* ticks)
 53: 0x0F51 [0x7B] LocalPlayer stops talking
 54: 0x0F56 [0x7B] Moogle (ID: 17465597/0x010A80FD) stops talking
 55: 0x0F5B [0x7B] Kupiruru (ID: 17465598/0x010A80FE) stops talking
 56: 0x0F60 [0x7B] Nanaa Mihgo (ID: 17465599/0x010A80FF) stops talking
 57: 0x0F65 [0x7B] Goblin Repossessor (ID: 17465600/0x010A8100) stops talking
 58: 0x0F6A [0x7B] Goblin Intimidator (ID: 17465601/0x010A8101) stops talking
 59: 0x0F6F [0x7B] Goblin Enforcer (ID: 17465602/0x010A8102) stops talking
 60: 0x0F74 [0x27] REQ_SET(priority=0x10, entity_id=Nanaa Mihgo (ID: 17465599/0x010A80FF), tag_num=0x0E)
 61: 0x0F7B [0x27] REQ_SET(priority=0x10, entity_id=Cermet Door (ID: 17465558/0x010A80D6), tag_num=0x01)
 62: 0x0F82 [0x27] REQ_SET(priority=0x10, entity_id=Kupiruru (ID: 17465598/0x010A80FE), tag_num=0x06)
 63: 0x0F89 [0x27] REQ_SET(priority=0x10, entity_id=Goblin Repossessor (ID: 17465600/0x010A8100), tag_num=0x0D)
 64: 0x0F90 [0x1C] WAIT(90* ticks)
 65: 0x0F93 [0x5C] MUSIC_CONTROL: Set Idle (Day) music to song 193*
 66: 0x0F97 [0x5C] MUSIC_CONTROL: Set Idle (Night) music to song 193*
 67: 0x0F9B [0x9A] WAIT_MUSIC_SERVER()
 68: 0x0F9C [0x03] ExtData[1]->WorkLocal[1] = 1*
 69: 0x0FA1 [0x02] IF !(ExtData[1]->WorkLocal[1] > 12*) GOTO 0x1270
 70: 0x0FA9 [0x02] IF !(0* < ExtData[1]->WorkLocal[1]) GOTO 0x1268
 71: 0x0FB1 [0x02] IF !(ExtData[1]->WorkLocal[1] == 2*) GOTO 0x0FBF
 72: 0x0FB9 [0x1A] CALL_SUBROUTINE(address=0x19C8)
 73: 0x0FBC [0x01] GOTO 0x1268
 74: 0x0FBF [0x02] IF !(ExtData[1]->WorkLocal[1] == 3*) GOTO 0x0FD7
 75: 0x0FC7 [0x27] REQ_SET(priority=0x10, entity_id=Nanaa Mihgo (ID: 17465599/0x010A80FF), tag_num=0x0F)
 76: 0x0FCE [0x7C] Nanaa Mihgo (ID: 17465599/0x010A80FF)->Render.Flags2 |= 0x01
 77: 0x0FD4 [0x01] GOTO 0x1268
 78: 0x0FD7 [0x02] IF !(ExtData[1]->WorkLocal[1] == 4*) GOTO 0x1015
 79: 0x0FDF [0x4A] Nanaa Mihgo (ID: 17465599/0x010A80FF) looks at Goblin Repossessor (ID: 17465600/0x010A8100)
 80: 0x0FE8 [0x27] REQ_SET(priority=0x10, entity_id=Goblin Repossessor (ID: 17465600/0x010A8100), tag_num=0x08)
 81: 0x0FEF [0x27] REQ_SET(priority=0x10, entity_id=Goblin Intimidator (ID: 17465601/0x010A8101), tag_num=0x0F)
 82: 0x0FF6 [0x27] REQ_SET(priority=0x10, entity_id=Goblin Enforcer (ID: 17465602/0x010A8102), tag_num=0x0D)
 83: 0x0FFD [0x27] REQ_SET(priority=0x10, entity_id=Goblin Repossessor (ID: 17465600/0x010A8100), tag_num=0x09)
 84: 0x1004 [0x27] REQ_SET(priority=0x10, entity_id=Goblin Intimidator (ID: 17465601/0x010A8101), tag_num=0x11)
 85: 0x100B [0x27] REQ_SET(priority=0x10, entity_id=Goblin Enforcer (ID: 17465602/0x010A8102), tag_num=0x0F)
 86: 0x1012 [0x01] GOTO 0x1268
 87: 0x1015 [0x02] IF !(ExtData[1]->WorkLocal[1] == 5*) GOTO 0x104E
 88: 0x101D [0x4A] LocalPlayer looks at Goblin Repossessor (ID: 17465600/0x010A8100)
 89: 0x1026 [0x27] REQ_SET(priority=0x10, entity_id=Goblin Repossessor (ID: 17465600/0x010A8100), tag_num=0x0A)
 90: 0x102D [0x27] REQ_SET(priority=0x10, entity_id=Goblin Intimidator (ID: 17465601/0x010A8101), tag_num=0x12)
 91: 0x1034 [0x27] REQ_SET(priority=0x10, entity_id=Goblin Enforcer (ID: 17465602/0x010A8102), tag_num=0x10)
 92: 0x103B [0x6F] WAIT_FRAME_DELAY: Yield until WaitTime reaches zero
 93: 0x103C [0x76] CHECK_ENTITY_RENDER_FLAGS: Wait until LocalPlayer Render.Flags0 and Render.Flags3 conditions are met
 94: 0x1041 [0x79] LocalPlayer looks at Goblin Repossessor (ID: 17465600/0x010A8100) (Basic look)
 95: 0x104B [0x01] GOTO 0x1268
 96: 0x104E [0x02] IF !(ExtData[1]->WorkLocal[1] == 6*) GOTO 0x1065
 97: 0x1056 [0x7B] Nanaa Mihgo (ID: 17465599/0x010A80FF) stops talking
 98: 0x105B [0x27] REQ_SET(priority=0x10, entity_id=Nanaa Mihgo (ID: 17465599/0x010A80FF), tag_num=0x0D)
 99: 0x1062 [0x01] GOTO 0x1268
100: 0x1065 [0x02] IF !(ExtData[1]->WorkLocal[1] == 7*) GOTO 0x10A9
101: 0x106D [0x4A] LocalPlayer looks at Nanaa Mihgo (ID: 17465599/0x010A80FF)
102: 0x1076 [0x4A] Moogle (ID: 17465597/0x010A80FD) looks at Nanaa Mihgo (ID: 17465599/0x010A80FF)
103: 0x107F [0x4A] Kupiruru (ID: 17465598/0x010A80FE) looks at Nanaa Mihgo (ID: 17465599/0x010A80FF)
104: 0x1088 [0x4A] Goblin Repossessor (ID: 17465600/0x010A8100) looks at Nanaa Mihgo (ID: 17465599/0x010A80FF)
105: 0x1091 [0x4A] Goblin Intimidator (ID: 17465601/0x010A8101) looks at Nanaa Mihgo (ID: 17465599/0x010A80FF)
106: 0x109A [0x4A] Goblin Enforcer (ID: 17465602/0x010A8102) looks at Nanaa Mihgo (ID: 17465599/0x010A80FF)
107: 0x10A3 [0x1A] CALL_SUBROUTINE(address=0x19E9)
108: 0x10A6 [0x01] GOTO 0x1268
109: 0x10A9 [0x02] IF !(ExtData[1]->WorkLocal[1] == 8*) GOTO 0x111D
110: 0x10B1 [0x4E] SET_ENTITY_HIDE_FLAG: Hide Nanaa Mihgo (ID: 17465599/0x010A80FF)
111: 0x10B7 [0x1A] CALL_SUBROUTINE(address=0x19C8)
112: 0x10BA [0x4A] Goblin Repossessor (ID: 17465600/0x010A8100) looks at LocalPlayer
113: 0x10C3 [0x4A] Goblin Intimidator (ID: 17465601/0x010A8101) looks at LocalPlayer
114: 0x10CC [0x4A] Goblin Enforcer (ID: 17465602/0x010A8102) looks at LocalPlayer
115: 0x10D5 [0x4A] LocalPlayer looks at Goblin Repossessor (ID: 17465600/0x010A8100)
116: 0x10DE [0x4A] Moogle (ID: 17465597/0x010A80FD) looks at Goblin Repossessor (ID: 17465600/0x010A8100)
117: 0x10E7 [0x4A] Kupiruru (ID: 17465598/0x010A80FE) looks at Goblin Repossessor (ID: 17465600/0x010A8100)
118: 0x10F0 [0x27] REQ_SET(priority=0x10, entity_id=Goblin Repossessor (ID: 17465600/0x010A8100), tag_num=0x1F)
119: 0x10F7 [0x27] REQ_SET(priority=0x10, entity_id=Goblin Intimidator (ID: 17465601/0x010A8101), tag_num=0x13)
120: 0x10FE [0x27] REQ_SET(priority=0x10, entity_id=Goblin Enforcer (ID: 17465602/0x010A8102), tag_num=0x11)
121: 0x1105 [0x27] REQ_SET(priority=0x10, entity_id=Goblin Repossessor (ID: 17465600/0x010A8100), tag_num=0x20)
122: 0x110C [0x27] REQ_SET(priority=0x10, entity_id=Goblin Intimidator (ID: 17465601/0x010A8101), tag_num=0x14)
123: 0x1113 [0x27] REQ_SET(priority=0x10, entity_id=Goblin Enforcer (ID: 17465602/0x010A8102), tag_num=0x12)
124: 0x111A [0x01] GOTO 0x1268
125: 0x111D [0x02] IF !(ExtData[1]->WorkLocal[1] == 9*) GOTO 0x1158
126: 0x1125 [0x27] REQ_SET(priority=0x10, entity_id=Goblin Repossessor (ID: 17465600/0x010A8100), tag_num=0x05)
127: 0x112C [0x27] REQ_SET(priority=0x10, entity_id=Goblin Intimidator (ID: 17465601/0x010A8101), tag_num=0x10)
128: 0x1133 [0x27] REQ_SET(priority=0x10, entity_id=Goblin Enforcer (ID: 17465602/0x010A8102), tag_num=0x0E)
129: 0x113A [0x4A] LocalPlayer looks at Goblin Repossessor (ID: 17465600/0x010A8100)
130: 0x1143 [0x4A] Moogle (ID: 17465597/0x010A80FD) looks at Goblin Repossessor (ID: 17465600/0x010A8100)
131: 0x114C [0x4A] Kupiruru (ID: 17465598/0x010A80FE) looks at Goblin Repossessor (ID: 17465600/0x010A8100)
132: 0x1155 [0x01] GOTO 0x1268
133: 0x1158 [0x02] IF !(ExtData[1]->WorkLocal[1] == 10*) GOTO 0x116D
134: 0x1160 [0x27] REQ_SET(priority=0x10, entity_id=Moogle (ID: 17465597/0x010A80FD), tag_num=0x14)
135: 0x1167 [0x1A] CALL_SUBROUTINE(address=0x19E9)
136: 0x116A [0x01] GOTO 0x1268
137: 0x116D [0x02] IF !(ExtData[1]->WorkLocal[1] == 11*) GOTO 0x1200
138: 0x1175 [0x4E] SET_ENTITY_HIDE_FLAG: Hide Nanaa Mihgo (ID: 17465599/0x010A80FF)
139: 0x117B [0x4E] SET_ENTITY_HIDE_FLAG: Hide Goblin Repossessor (ID: 17465600/0x010A8100)
140: 0x1181 [0x4E] SET_ENTITY_HIDE_FLAG: Hide Goblin Intimidator (ID: 17465601/0x010A8101)
141: 0x1187 [0x4E] SET_ENTITY_HIDE_FLAG: Hide Goblin Enforcer (ID: 17465602/0x010A8102)
142: 0x118D [0xBA] SET_ENTITY_POSITION(entity_id=Moogle (ID: 17465597/0x010A80FD), pos_x=0.000*, pos_z=2.000*, pos_y=-2.249*, direction=270.1°*)
143: 0x119A [0xBA] SET_ENTITY_POSITION(entity_id=Kupiruru (ID: 17465598/0x010A80FE), pos_x=1.000*, pos_z=2.000*, pos_y=-2.249*, direction=270.1°*)
144: 0x11A7 [0x80] LOAD_WAIT(entity=Moogle (ID: 17465597/0x010A80FD))
145: 0x11AC [0x80] LOAD_WAIT(entity=Kupiruru (ID: 17465598/0x010A80FE))
146: 0x11B1 [0x4A] LocalPlayer looks at Moogle (ID: 17465597/0x010A80FD)
147: 0x11BA [0x4A] Moogle (ID: 17465597/0x010A80FD) looks at LocalPlayer
148: 0x11C3 [0x4A] Kupiruru (ID: 17465598/0x010A80FE) looks at LocalPlayer
149: 0x11CC [0x6F] WAIT_FRAME_DELAY: Yield until WaitTime reaches zero
150: 0x11CD [0x76] CHECK_ENTITY_RENDER_FLAGS: Wait until LocalPlayer Render.Flags0 and Render.Flags3 conditions are met
151: 0x11D2 [0x6F] WAIT_FRAME_DELAY: Yield until WaitTime reaches zero
152: 0x11D3 [0x76] CHECK_ENTITY_RENDER_FLAGS: Wait until Moogle (ID: 17465597/0x010A80FD) Render.Flags0 and Render.Flags3 conditions are met
