# 0x7FFFFFF0 - Zone Events

## Common Data

| Field            | Value                        |
|------------------|------------------------------|
| Zone             | Chamber of Oracles (ID: 168) |
| Block Size       | 7104 bytes                   |
| Total Events     | 32                           |
| References Count | 221                          |

## List of Events

| Event ID                   | Entrypoint   |   Size |   Instructions |
|----------------------------|--------------|--------|----------------|
| [65535](#event-65535)      | 0x0000       |      1 |              1 |
| [65534](#event-65534)      | 0x0001       |      1 |              1 |
| [65535.1](#event-655351)   | 0x0002       |     40 |              7 |
| [65535.2](#event-655352)   | 0x002A       |     20 |              3 |
| [65535.3](#event-655353)   | 0x003E       |     11 |              2 |
| [65535.4](#event-655354)   | 0x0049       |      9 |              3 |
| [65535.5](#event-655355)   | 0x0052       |      8 |              4 |
| [65535.6](#event-655356)   | 0x005A       |      6 |              2 |
| [65535.7](#event-655357)   | 0x0060       |     10 |              2 |
| [65535.8](#event-655358)   | 0x006A       |     15 |              5 |
| [65535.9](#event-655359)   | 0x0079       |     15 |              5 |
| [65535.10](#event-6553510) | 0x0088       |     10 |              2 |
| [65535.11](#event-6553511) | 0x0092       |     40 |             10 |
| [65535.12](#event-6553512) | 0x00BA       |     42 |             10 |
| [65535.13](#event-6553513) | 0x00E4       |     10 |              2 |
| [65535.14](#event-6553514) | 0x00EE       |     15 |              5 |
| [32000](#event-32000)      | 0x00FD       |   2116 |            412 |
| [32002](#event-32002)      | 0x0941       |    494 |             83 |
| [32001](#event-32001)      | 0x0B2F       |   1033 |            179 |
| [32003](#event-32003)      | 0x0F38       |   2041 |            295 |
| [65535.15](#event-6553515) | 0x1731       |     10 |              2 |
| [65535.16](#event-6553516) | 0x173B       |     17 |              5 |
| [65535.17](#event-6553517) | 0x174C       |     10 |              2 |
| [65535.18](#event-6553518) | 0x1756       |      9 |              3 |
| [65535.19](#event-6553519) | 0x175F       |      7 |              3 |
| [65535.20](#event-6553520) | 0x1766       |      7 |              3 |
| [65535.21](#event-6553521) | 0x176D       |     10 |              2 |
| [65535.22](#event-6553522) | 0x1777       |     10 |              2 |
| [65535.23](#event-6553523) | 0x1781       |     18 |              2 |
| [65535.24](#event-6553524) | 0x1793       |     14 |              4 |
| [65535.25](#event-6553525) | 0x17A1       |     14 |              4 |
| [65535.26](#event-6553526) | 0x17AF       |     13 |              3 |

## DAT References (imed_data)

|   Index | Hex Value   |   Dec Value |
|---------|-------------|-------------|
|       0 | 0xFFFCA485  |  4294747269 |
|       1 | 0x47E1      |       18401 |
|       2 | 0xFFFFF7DE  |  4294965214 |
|       3 | 0x0C17      |        3095 |
|       4 | 0x000D      |          13 |
|       5 | 0xFFFCA482  |  4294747266 |
|       6 | 0x59A2      |       22946 |
|       7 | 0xFFFFF8A6  |  4294965414 |
|       8 | 0x03E7      |         999 |
|       9 | 0x30F97     |      200599 |
|      10 | 0x8E8D      |       36493 |
|      11 | 0xFFFFF736  |  4294965046 |
|      12 | 0x0B88      |        2952 |
|      13 | 0x001E      |          30 |
|      14 | 0x000A      |          10 |
|      15 | 0x30CC7     |      199879 |
|      16 | 0x95B8      |       38328 |
|      17 | 0x0009      |           9 |
|      18 | 0x30C8F     |      199823 |
|      19 | 0x9902      |       39170 |
|      20 | 0x3113E     |      201022 |
|      21 | 0xB621      |       46625 |
|      22 | 0xFFFFE8C7  |  4294961351 |
|      23 | 0x0810      |        2064 |
|      24 | 0x0033      |          51 |
|      25 | 0xFFFB5EC1  |  4294663873 |
|      26 | 0x17B64     |       97124 |
|      27 | 0x03F4      |        1012 |
|      28 | 0x0001      |           1 |
|      29 | 0x0026      |          38 |
|      30 | 0xFFFB5381  |  4294660993 |
|      31 | 0x0C04      |        3076 |
|      32 | 0x000B      |          11 |
|      33 | 0xFFFC8846  |  4294740038 |
|      34 | 0x17ECF     |       97999 |
|      35 | 0x0BF4      |        3060 |
|      36 | 0xFFFFFFE5  |  4294967269 |
|      37 | 0xFFFC8EE1  |  4294741729 |
|      38 | 0x0003      |           3 |
|      39 | 0x002D      |          45 |
|      40 | 0x30D08     |      199944 |
|      41 | 0xFFFFC21E  |  4294951454 |
|      42 | 0xFFFFFF01  |  4294967041 |
|      43 | 0x03EF      |        1007 |
|      44 | 0x30D85     |      200069 |
|      45 | 0xFFFFAE55  |  4294946389 |
|      46 | 0xFFFFFF06  |  4294967046 |
|      47 | 0x0000      |           0 |
|      48 | 0x000F      |          15 |
|      49 | 0x0010      |          16 |
|      50 | 0x001F      |          31 |
|      51 | 0xFFFFFFFF  |  4294967295 |
|      52 | 0x1DB5      |        7605 |
|      53 | 0x1DA8      |        7592 |
|      54 | 0x0005      |           5 |
|      55 | 0x0002      |           2 |
|      56 | 0x0004      |           4 |
|      57 | 0x1C3B      |        7227 |
|      58 | 0x00FF      |         255 |
|      59 | 0x00C8      |         200 |
|      60 | 0x0013      |          19 |
|      61 | 0x0008      |           8 |
|      62 | 0x1C46      |        7238 |
|      63 | 0x1C47      |        7239 |
|      64 | 0x1C48      |        7240 |
|      65 | 0x1C49      |        7241 |
|      66 | 0x1C6D      |        7277 |
|      67 | 0x0006      |           6 |
|      68 | 0x0007      |           7 |
|      69 | 0x000C      |          12 |
|      70 | 0x000E      |          14 |
|      71 | 0x0011      |          17 |
|      72 | 0x0012      |          18 |
|      73 | 0x0014      |          20 |
|      74 | 0x0015      |          21 |
|      75 | 0x0016      |          22 |
|      76 | 0x0017      |          23 |
|      77 | 0x0018      |          24 |
|      78 | 0x0019      |          25 |
|      79 | 0x001A      |          26 |
|      80 | 0x001B      |          27 |
|      81 | 0x001C      |          28 |
|      82 | 0x001D      |          29 |
|      83 | 0x1DA2      |        7586 |
|      84 | 0x1DA7      |        7591 |
|      85 | 0x1DA6      |        7590 |
|      86 | 0x003C      |          60 |
|      87 | 0x1DB3      |        7603 |
|      88 | 0x1DB2      |        7602 |
|      89 | 0x0064      |         100 |
|      90 | 0x1D8E      |        7566 |
|      91 | 0x00C1      |         193 |
|      92 | 0x1C3E      |        7230 |
|      93 | 0x00C9      |         201 |
|      94 | 0xFFFAEFFC  |  4294635516 |
|      95 | 0xFFFB712C  |  4294668588 |
|      96 | 0x00DC      |         220 |
|      97 | 0x0150      |         336 |
|      98 | 0x00B4      |         180 |
|      99 | 0xFFF6C42B  |  4294362155 |
|     100 | 0x752B9     |      479929 |
|     101 | 0xFFFFA767  |  4294944615 |
|     102 | 0x03E0      |         992 |
|     103 | 0xFFFBFE43  |  4294704707 |
|     104 | 0x5C401     |      377857 |
|     105 | 0xFFFDE79F  |  4294829983 |
|     106 | 0x0D92      |        3474 |
|     107 | 0x47AC      |       18348 |
|     108 | 0x76E1C     |      486940 |
|     109 | 0xFFFC93B2  |  4294742962 |
|     110 | 0x00C2      |         194 |
|     111 | 0x388A9     |      231593 |
|     112 | 0x57E9E     |      360094 |
|     113 | 0xFFFD59FC  |  4294793724 |
|     114 | 0x0726      |        1830 |
|     115 | 0x872C0     |      553664 |
|     116 | 0x7FEA3     |      523939 |
|     117 | 0xFFFF6AC3  |  4294929091 |
|     118 | 0x0A65      |        2661 |
|     119 | 0xFFFCA666  |  4294747750 |
|     120 | 0x0EB7      |        3767 |
|     121 | 0xFFFFFD57  |  4294966615 |
|     122 | 0x03CD      |         973 |
|     123 | 0xFFF2A593  |  4294092179 |
|     124 | 0xFFFF548C  |  4294923404 |
|     125 | 0xFFFF442C  |  4294919212 |
|     126 | 0x0201      |         513 |
|     127 | 0xFFF478D5  |  4294211797 |
|     128 | 0x89AEB     |      563947 |
|     129 | 0xFFFE4A5D  |  4294855261 |
|     130 | 0x0DEF      |        3567 |
|     131 | 0x1E173     |      123251 |
|     132 | 0xB8221     |      754209 |
|     133 | 0xFFFD5FA4  |  4294795172 |
|     134 | 0x01B8      |         440 |
|     135 | 0xFFF81ECC  |  4294450892 |
|     136 | 0xFFF3BE05  |  4294163973 |
|     137 | 0x5E8E      |       24206 |
|     138 | 0x01B5      |         437 |
|     139 | 0x012C      |         300 |
|     140 | 0x0080      |         128 |
|     141 | 0xFFF690A7  |  4294348967 |
|     142 | 0xFFF62CE4  |  4294323428 |
|     143 | 0xFFFF9B33  |  4294941491 |
|     144 | 0x0EB1      |        3761 |
|     145 | 0xFFFAEE7D  |  4294635133 |
|     146 | 0xFFF941C6  |  4294525382 |
|     147 | 0xFFFE8CB1  |  4294872241 |
|     148 | 0x0EB0      |        3760 |
|     149 | 0xFFFFCF50  |  4294954832 |
|     150 | 0xFFF61B47  |  4294318919 |
|     151 | 0xFFFD07BB  |  4294772667 |
|     152 | 0x0EBA      |        3770 |
|     153 | 0x4EF35     |      323381 |
|     154 | 0xFFF93A6F  |  4294523503 |
|     155 | 0xFFFE5868  |  4294858856 |
|     156 | 0x0EA0      |        3744 |
|     157 | 0x92763     |      599907 |
|     158 | 0xFFF5AB97  |  4294290327 |
|     159 | 0xFFFFA837  |  4294944823 |
|     160 | 0x0EB3      |        3763 |
|     161 | 0x30D19     |      199961 |
|     162 | 0x0A72      |        2674 |
|     163 | 0x023E      |         574 |
|     164 | 0x0C08      |        3080 |
|     165 | 0x00A8      |         168 |
|     166 | 0x30D7B     |      200059 |
|     167 | 0xFFFFAA3A  |  4294945338 |
|     168 | 0x0411      |        1041 |
|     169 | 0x00CA      |         202 |
|     170 | 0x837EC     |      538604 |
|     171 | 0x7A88C     |      501900 |
|     172 | 0xFFFFC98A  |  4294953354 |
|     173 | 0x0CBC      |        3260 |
|     174 | 0x00CB      |         203 |
|     175 | 0x870F5     |      553205 |
|     176 | 0x8FF41     |      589633 |
|     177 | 0xFFFFFFEB  |  4294967275 |
|     178 | 0x0587      |        1415 |
|     179 | 0x00D3      |         211 |
|     180 | 0x8AF88     |      569224 |
|     181 | 0x85E6E     |      548462 |
|     182 | 0x8FE5      |       36837 |
|     183 | 0x02A1      |         673 |
|     184 | 0x0024      |          36 |
|     185 | 0x1D90      |        7568 |
|     186 | 0x1D8F      |        7567 |
|     187 | 0x1DB1      |        7601 |
|     188 | 0x1D92      |        7570 |
|     189 | 0x1D91      |        7569 |
|     190 | 0x0044      |          68 |
|     191 | 0xFFFFFFD9  |  4294967257 |
|     192 | 0xFFFB52CD  |  4294660813 |
|     193 | 0x0C02      |        3074 |
|     194 | 0x1C3C      |        7228 |
|     195 | 0x0067      |         103 |
|     196 | 0x006A      |         106 |
|     197 | 0x006D      |         109 |
|     198 | 0x0077      |         119 |
|     199 | 0x0081      |         129 |
|     200 | 0x00D7      |         215 |
|     201 | 0xFFFFFFF2  |  4294967282 |
|     202 | 0xFFFEFC9E  |  4294900894 |
|     203 | 0xFFFFF4C6  |  4294964422 |
|     204 | 0x0C18      |        3096 |
|     205 | 0x2A71C     |      173852 |
|     206 | 0xFFFE6E26  |  4294864422 |
|     207 | 0x0BF1      |        3057 |
|     208 | 0x0060      |          96 |
|     209 | 0xFFFC0427  |  4294706215 |
|     210 | 0x17DF4     |       97780 |
|     211 | 0x0C06      |        3078 |
|     212 | 0xFFFFFFC6  |  4294967238 |
|     213 | 0xFFFC4F78  |  4294725496 |
|     214 | 0x189D8     |      100824 |
|     215 | 0x0032      |          50 |
|     216 | 0xFFFF8300  |  4294935296 |
|     217 | 0x0028      |          40 |
|     218 | 0xFFFFEDA4  |  4294962596 |
|     219 | 0x0338      |         824 |
|     220 | 0x0168      |         360 |

## String References

- **7227**: Enter the battlefield? [Enter./Decline.]
- **7228**: Leave the battlefield? [Run away./Stay.]
- **7230**: You cannot enter the battlefield at present. Please wait a little longer.
- **7238**: You are cleared to enter the battlefield, but you cannot while party members are engaged in combat.
- **7239**: You are cleared to enter the battlefield, but you cannot while party members are engaged in combat.
- **7240**: You are cleared to enter the battlefield, but you cannot while party members are engaged in combat.
- **7241**: You are cleared to enter the battlefield, but you cannot while party members are engaged in combat.
- **7277**: You do not meet the requirements to enter the battlefield. Access is denied.
- **7566**: Skip the event? [Yes./No.]
- **7567**: Battlefield clear time: $3 second[/s]!
- **7568**: Battlefield clear time: $3 minute[/s], $2 second[/s]!
- **7569**: The current battlefield clear time record is $3 second[/s].
- **7570**: The current battlefield clear time record is $3 minute[/s] $2 second[/s].
- **7586**: Only $3 [member/members] have clearance to enter the battlefield. This room has reached its maximum capacity.
- **7590**: That record is held by $5 adventurers, including %0!
- **7591**: That record is held by %0!
- **7592**: Select difficulty. [Very difficult. (Level: ???)/Difficult. (Level: ???)/Normal. (Level: $18)/Easy. (Level: $17)/Very Easy. (Level: $16)/Leave.]
- **7601**: You have broken the clear time record for "[Through the Quicksand Caves/Legion XI Comitatensis/Shattering Stars (SAM)/Shattering Stars (NIN)/Shattering Stars (DRG)/Cactuar Suave/Eye of the Storm/The Scarlet King/Roar! A Cat Burglar Bares Her Fangs/Dragon Scales/$26Legion XI Comitatensis]"!
- **7602**: The current battlefield clear time record for "[Through the Quicksand Caves/Legion XI Comitatensis/Shattering Stars (SAM)/Shattering Stars (NIN)/Shattering Stars (DRG)/Cactuar Suave/Eye of the Storm/The Scarlet King/Roar! A Cat Burglar Bares Her Fangs/Dragon Scales/$26Legion XI Comitatensis]" is $3 second[/s].
- **7603**: The current battlefield clear time record for "[Through the Quicksand Caves/Legion XI Comitatensis/Shattering Stars (SAM)/Shattering Stars (NIN)/Shattering Stars (DRG)/Cactuar Suave/Eye of the Storm/The Scarlet King/Roar! A Cat Burglar Bares Her Fangs/Dragon Scales/$26Legion XI Comitatensis]" is $3 minute[/s] $2 second[/s].
- **7605**: Which battlefield will you enter? [None./Through the Quicksand Caves./Legion XI Comitatensis./Shattering Stars (SAM)./Shattering Stars (NIN)./Shattering Stars (DRG)./Cactuar Suave./Eye of the Storm./The Scarlet King./Roar! A Cat Burglar Bares Her Fangs./Dragon Scales./$26Legion XI Comitatensis././././././././././././././././././././]

## Events

### Event 65535

#### Metadata

| Field        | Value   |
|--------------|---------|
| Entrypoint   | 0x0000  |
| Data Size    | 1 bytes |
| Instructions | 1       |

```
      00 01 02 03 04 05 06 07  08 09 0A 0B 0C 0D 0E 0F
      -- -- -- -- -- -- -- --  -- -- -- -- -- -- -- --
0000: 00                                                .               
```

#### Opcodes

```
  0: 0x0000 [0x00] END_REQSTACK()
```

### Event 65534

#### Metadata

| Field        | Value   |
|--------------|---------|
| Entrypoint   | 0x0001  |
| Data Size    | 1 bytes |
| Instructions | 1       |

```
      00 01 02 03 04 05 06 07  08 09 0A 0B 0C 0D 0E 0F
      -- -- -- -- -- -- -- --  -- -- -- -- -- -- -- --
0000:    00                                              .              
```

#### Opcodes

```
  0: 0x0001 [0x00] END_REQSTACK()
```

### Event 65535.1

#### Metadata

| Field        | Value    |
|--------------|----------|
| Entrypoint   | 0x0002   |
| Data Size    | 40 bytes |
| Instructions | 7        |

```
      00 01 02 03 04 05 06 07  08 09 0A 0B 0C 0D 0E 0F
      -- -- -- -- -- -- -- --  -- -- -- -- -- -- -- --
0000:       79 00 F0 FF FF 7F  F0 FF FF 7F 37 00 80 01    y.........7...
0010: 80 02 80 03 80 32 04 80  1F 00 05 80 06 80 07 80  .....2..........
0020: 1F 01 4B F0 FF FF 7F 08  80 00                    ..K.......      
```

#### Opcodes

```
  0: 0x0002 [0x79] LocalPlayer looks at LocalPlayer (Basic look)
  1: 0x000C [0x37] UPDATE_EVENT_POSITION_AND_DIR: x=-220.027*, z=18.401*, y=-2.082*, direction=272.0°*
  2: 0x0015 [0x32] ExtData[1]->MainSpeed = 13* * 0.1
  3: 0x0018 [0x1F] MOVE_ENTITY: EventEntity moves to X=-220.030*, Z=22.946*, Y=-1.882*
  4: 0x0020 [0x1F] MOVE_ENTITY: Update entity position (mode=1)
  5: 0x0022 [0x4B] UPDATE_ENTITY_YAW(entity=LocalPlayer, yaw=5.5°*)
  6: 0x0029 [0x00] END_REQSTACK()
```

### Event 65535.2

#### Metadata

| Field        | Value    |
|--------------|----------|
| Entrypoint   | 0x002A   |
| Data Size    | 20 bytes |
| Instructions | 3        |

```
      00 01 02 03 04 05 06 07  08 09 0A 0B 0C 0D 0E 0F
      -- -- -- -- -- -- -- --  -- -- -- -- -- -- -- --
0020:                                37 09 80 0A 80 0B            7.....
0030: 80 0C 80 79 00 F0 FF FF  7F CE 80 0A 01 00        ...y..........  
```

#### Opcodes

```
  0: 0x002A [0x37] UPDATE_EVENT_POSITION_AND_DIR: x=200.599*, z=36.493*, y=-2.250*, direction=259.4°*
  1: 0x0033 [0x79] LocalPlayer looks at Pedestal of Lightning (ID: 17465550/0x010A80CE) (Basic look)
  2: 0x003D [0x00] END_REQSTACK()
```

### Event 65535.3

#### Metadata

| Field        | Value    |
|--------------|----------|
| Entrypoint   | 0x003E   |
| Data Size    | 11 bytes |
| Instructions | 2        |

```
      00 01 02 03 04 05 06 07  08 09 0A 0B 0C 0D 0E 0F
      -- -- -- -- -- -- -- --  -- -- -- -- -- -- -- --
0030:                                            79 00                y.
0040: F0 FF FF 7F CD 80 0A 01  00                       .........       
```

#### Opcodes

```
  0: 0x003E [0x79] LocalPlayer looks at Pedestal of Water (ID: 17465549/0x010A80CD) (Basic look)
  1: 0x0048 [0x00] END_REQSTACK()
```

### Event 65535.4

#### Metadata

| Field        | Value   |
|--------------|---------|
| Entrypoint   | 0x0049  |
| Data Size    | 9 bytes |
| Instructions | 3       |

```
      00 01 02 03 04 05 06 07  08 09 0A 0B 0C 0D 0E 0F
      -- -- -- -- -- -- -- --  -- -- -- -- -- -- -- --
0040:                             1C 0D 80 1E B8 80 0A           .......
0050: 01 00                                             ..              
```

#### Opcodes

```
  0: 0x0049 [0x1C] WAIT(30* ticks)
  1: 0x004C [0x1E] EventEntity looks at Zeid (ID: 17465528/0x010A80B8) and starts talking
  2: 0x0051 [0x00] END_REQSTACK()
```

### Event 65535.5

#### Metadata

| Field        | Value   |
|--------------|---------|
| Entrypoint   | 0x0052  |
| Data Size    | 8 bytes |
| Instructions | 4       |

```
      00 01 02 03 04 05 06 07  08 09 0A 0B 0C 0D 0E 0F
      -- -- -- -- -- -- -- --  -- -- -- -- -- -- -- --
0050:       1E CD 80 0A 01 6F  70 00                      .....op.      
```

#### Opcodes

```
  0: 0x0052 [0x1E] EventEntity looks at Pedestal of Water (ID: 17465549/0x010A80CD) and starts talking
  1: 0x0057 [0x6F] WAIT_FRAME_DELAY: Yield until WaitTime reaches zero
  2: 0x0058 [0x70] WAIT_ENTITY_RENDER_FLAG: Wait while EventEntity->Render.Flags3 bit 2 is set (cancel turn if not)
  3: 0x0059 [0x00] END_REQSTACK()
```

### Event 65535.6

#### Metadata

| Field        | Value   |
|--------------|---------|
| Entrypoint   | 0x005A  |
| Data Size    | 6 bytes |
| Instructions | 2       |

```
      00 01 02 03 04 05 06 07  08 09 0A 0B 0C 0D 0E 0F
      -- -- -- -- -- -- -- --  -- -- -- -- -- -- -- --
0050:                                1E CC 80 0A 01 00            ......
```

#### Opcodes

```
  0: 0x005A [0x1E] EventEntity looks at Pedestal of Wind (ID: 17465548/0x010A80CC) and starts talking
  1: 0x005F [0x00] END_REQSTACK()
```

### Event 65535.7

#### Metadata

| Field        | Value    |
|--------------|----------|
| Entrypoint   | 0x0060   |
| Data Size    | 10 bytes |
| Instructions | 2        |

```
      00 01 02 03 04 05 06 07  08 09 0A 0B 0C 0D 0E 0F
      -- -- -- -- -- -- -- --  -- -- -- -- -- -- -- --
0060: 37 09 80 0A 80 0B 80 0C  80 00                    7.........      
```

#### Opcodes

```
  0: 0x0060 [0x37] UPDATE_EVENT_POSITION_AND_DIR: x=200.599*, z=36.493*, y=-2.250*, direction=259.4°*
  1: 0x0069 [0x00] END_REQSTACK()
```

### Event 65535.8

#### Metadata

| Field        | Value    |
|--------------|----------|
| Entrypoint   | 0x006A   |
| Data Size    | 15 bytes |
| Instructions | 5        |

```
      00 01 02 03 04 05 06 07  08 09 0A 0B 0C 0D 0E 0F
      -- -- -- -- -- -- -- --  -- -- -- -- -- -- -- --
0060:                                32 0E 80 1F 00 0F            2.....
0070: 80 10 80 0B 80 1F 01 6F  00                       .......o.       
```

#### Opcodes

```
  0: 0x006A [0x32] ExtData[1]->MainSpeed = 10* * 0.1
  1: 0x006D [0x1F] MOVE_ENTITY: EventEntity moves to X=199.879*, Z=38.328*, Y=-2.250*
  2: 0x0075 [0x1F] MOVE_ENTITY: Update entity position (mode=1)
  3: 0x0077 [0x6F] WAIT_FRAME_DELAY: Yield until WaitTime reaches zero
  4: 0x0078 [0x00] END_REQSTACK()
```

### Event 65535.9

#### Metadata

| Field        | Value    |
|--------------|----------|
| Entrypoint   | 0x0079   |
| Data Size    | 15 bytes |
| Instructions | 5        |

```
      00 01 02 03 04 05 06 07  08 09 0A 0B 0C 0D 0E 0F
      -- -- -- -- -- -- -- --  -- -- -- -- -- -- -- --
0070:                             32 11 80 1F 00 12 80           2......
0080: 13 80 0B 80 1F 01 6F 00                           ......o.        
```

#### Opcodes

```
  0: 0x0079 [0x32] ExtData[1]->MainSpeed = 9* * 0.1
  1: 0x007C [0x1F] MOVE_ENTITY: EventEntity moves to X=199.823*, Z=39.170*, Y=-2.250*
  2: 0x0084 [0x1F] MOVE_ENTITY: Update entity position (mode=1)
  3: 0x0086 [0x6F] WAIT_FRAME_DELAY: Yield until WaitTime reaches zero
  4: 0x0087 [0x00] END_REQSTACK()
```

### Event 65535.10

#### Metadata

| Field        | Value    |
|--------------|----------|
| Entrypoint   | 0x0088   |
| Data Size    | 10 bytes |
| Instructions | 2        |

```
      00 01 02 03 04 05 06 07  08 09 0A 0B 0C 0D 0E 0F
      -- -- -- -- -- -- -- --  -- -- -- -- -- -- -- --
0080:                          37 14 80 15 80 16 80 17          7.......
0090: 80 00                                             ..              
```

#### Opcodes

```
  0: 0x0088 [0x37] UPDATE_EVENT_POSITION_AND_DIR: x=201.022*, z=46.625*, y=-5.945*, direction=181.4°*
  1: 0x0091 [0x00] END_REQSTACK()
```

### Event 65535.11

#### Metadata

| Field        | Value    |
|--------------|----------|
| Entrypoint   | 0x0092   |
| Data Size    | 40 bytes |
| Instructions | 10       |

```
      00 01 02 03 04 05 06 07  08 09 0A 0B 0C 0D 0E 0F
      -- -- -- -- -- -- -- --  -- -- -- -- -- -- -- --
0090:       37 18 80 19 80 1A  80 1B 80 1C 1C 80 32 04    7...........2.
00A0: 80 1F 00 1D 80 1E 80 1A  80 1F 01 6F 4B F8 FF FF  ...........oK...
00B0: 7F 1F 80 6F 76 F8 FF FF  7F 00                    ...ov.....      
```

#### Opcodes

```
  0: 0x0092 [0x37] UPDATE_EVENT_POSITION_AND_DIR: x=0.051*, z=-303.423*, y=97.124*, direction=88.9°*
  1: 0x009B [0x1C] WAIT(1* ticks)
  2: 0x009E [0x32] ExtData[1]->MainSpeed = 13* * 0.1
  3: 0x00A1 [0x1F] MOVE_ENTITY: EventEntity moves to X=0.038*, Z=-306.303*, Y=97.124*
  4: 0x00A9 [0x1F] MOVE_ENTITY: Update entity position (mode=1)
  5: 0x00AB [0x6F] WAIT_FRAME_DELAY: Yield until WaitTime reaches zero
  6: 0x00AC [0x4B] UPDATE_ENTITY_YAW(entity=EventEntity, yaw=16.9°*)
  7: 0x00B3 [0x6F] WAIT_FRAME_DELAY: Yield until WaitTime reaches zero
  8: 0x00B4 [0x76] CHECK_ENTITY_RENDER_FLAGS: Wait until EventEntity Render.Flags0 and Render.Flags3 conditions are met
  9: 0x00B9 [0x00] END_REQSTACK()
```

### Event 65535.12

#### Metadata

| Field        | Value    |
|--------------|----------|
| Entrypoint   | 0x00BA   |
| Data Size    | 42 bytes |
| Instructions | 10       |

```
      00 01 02 03 04 05 06 07  08 09 0A 0B 0C 0D 0E 0F
      -- -- -- -- -- -- -- --  -- -- -- -- -- -- -- --
00B0:                                37 20 80 21 80 22            7 .!."
00C0: 80 23 80 1C 1C 80 32 04  80 1F 00 24 80 25 80 22  .#....2....$.%."
00D0: 80 1F 01 6F 6E F8 FF FF  7F 26 80 99 F8 FF FF 7F  ...on....&......
00E0: 1C 27 80 00                                       .'..            
```

#### Opcodes

```
  0: 0x00BA [0x37] UPDATE_EVENT_POSITION_AND_DIR: x=0.011*, z=-227.258*, y=97.999*, direction=268.9°*
  1: 0x00C3 [0x1C] WAIT(1* ticks)
  2: 0x00C6 [0x32] ExtData[1]->MainSpeed = 13* * 0.1
  3: 0x00C9 [0x1F] MOVE_ENTITY: EventEntity moves to X=-0.027*, Z=-225.567*, Y=97.999*
  4: 0x00D1 [0x1F] MOVE_ENTITY: Update entity position (mode=1)
  5: 0x00D3 [0x6F] WAIT_FRAME_DELAY: Yield until WaitTime reaches zero
  6: 0x00D4 [0x6E] EventEntity uses emote 3*
  7: 0x00DB [0x99] Wait for EventEntity animation to complete
  8: 0x00E0 [0x1C] WAIT(45* ticks)
  9: 0x00E3 [0x00] END_REQSTACK()
```

### Event 65535.13

#### Metadata

| Field        | Value    |
|--------------|----------|
| Entrypoint   | 0x00E4   |
| Data Size    | 10 bytes |
| Instructions | 2        |

```
      00 01 02 03 04 05 06 07  08 09 0A 0B 0C 0D 0E 0F
      -- -- -- -- -- -- -- --  -- -- -- -- -- -- -- --
00E0:             37 28 80 29  80 2A 80 2B 80 00            7(.).*.+..  
```

#### Opcodes

```
  0: 0x00E4 [0x37] UPDATE_EVENT_POSITION_AND_DIR: x=199.944*, z=-15.842*, y=-0.255*, direction=88.5°*
  1: 0x00ED [0x00] END_REQSTACK()
```

### Event 65535.14

#### Metadata

| Field        | Value    |
|--------------|----------|
| Entrypoint   | 0x00EE   |
| Data Size    | 15 bytes |
| Instructions | 5        |

```
      00 01 02 03 04 05 06 07  08 09 0A 0B 0C 0D 0E 0F
      -- -- -- -- -- -- -- --  -- -- -- -- -- -- -- --
00E0:                                            32 04                2.
00F0: 80 1F 00 2C 80 2D 80 2E  80 1F 01 6F 00           ...,.-.....o.   
```

#### Opcodes

```
  0: 0x00EE [0x32] ExtData[1]->MainSpeed = 13* * 0.1
  1: 0x00F1 [0x1F] MOVE_ENTITY: EventEntity moves to X=200.069*, Z=-20.907*, Y=-0.250*
  2: 0x00F9 [0x1F] MOVE_ENTITY: Update entity position (mode=1)
  3: 0x00FB [0x6F] WAIT_FRAME_DELAY: Yield until WaitTime reaches zero
  4: 0x00FC [0x00] END_REQSTACK()
```

### Event 32000

#### Metadata

| Field        | Value      |
|--------------|------------|
| Entrypoint   | 0x00FD     |
| Data Size    | 2116 bytes |
| Instructions | 279        |

```
      00 01 02 03 04 05 06 07  08 09 0A 0B 0C 0D 0E 0F
      -- -- -- -- -- -- -- --  -- -- -- -- -- -- -- --
00F0:                                         20 01 79                .y
0100: 00 F0 FF FF 7F F0 FF FF  7F 03 02 00 02 10 03 03  ................
0110: 00 03 10 03 05 00 04 10  03 06 00 05 10 03 0F 00  ................
0120: 06 10 03 10 00 07 10 03  11 00 08 10 41 2F 80 30  ............A/.0
0130: 80 09 10 07 00 41 31 80  32 80 09 10 06 10 06 01  .....A1.2.......
0140: 00 02 07 00 2F 80 00 40  02 03 08 00 33 80 0F 08  ..../..@....3...
0150: 00 06 00 10 08 00 1C 80  24 34 80 2F 80 08 00 25  ........$4./...%
0160: 02 00 10 2F 80 00 6E 01  01 26 09 01 40 02 03 03  .../..n..&..@...
0170: 00 00 10 0C 03 00 06 16  00 06 13 00 3E 0F 00 03  ............>...
0180: 00 1C 02 06 0F 00 06 08  00 3E 11 00 03 00 93 01  .........>......
0190: 01 9A 01 3C 08 00 2F 80  1C 80 3E 10 00 03 00 A4  ...<../...>.....
01A0: 01 01 AB 01 3C 08 00 1C  80 1C 80 1A FE 13 24 35  ....<.........$5
01B0: 80 36 80 08 00 25 02 00  10 2F 80 00 C6 01 03 0F  .6...%.../......
01C0: 00 1C 80 01 19 02 02 00  10 1C 80 00 D6 01 03 0F  ................
01D0: 00 37 80 01 19 02 02 00  10 37 80 00 E6 01 03 0F  .7.......7......
01E0: 00 26 80 01 19 02 02 00  10 26 80 00 F6 01 03 0F  .&.......&......
01F0: 00 38 80 01 19 02 02 00  10 38 80 00 06 02 03 0F  .8.......8......
0200: 00 36 80 01 19 02 02 00  10 36 80 00 14 02 01 26  .6.......6.....&
0210: 09 01 19 02 03 0F 00 26  80 01 40 02 06 0F 00 1A  .......&..@.....
0220: 40 09 02 16 00 1C 80 00  40 02 24 39 80 1C 80 2F  @.......@.$9.../
0230: 80 25 02 00 10 1C 80 00  40 02 01 26 09 01 40 02  .%......@..&..@.
0240: 42 03 01 10 3A 80 43 00  43 01 06 01 10 45 3B 80  B...:.C.C....E;.
0250: F0 FF FF 7F F0 FF FF 7F  66 64 6F 31 2F 80 55 3B  ........fdo1/.U;
0260: 80 F0 FF FF 7F F0 FF FF  7F 66 64 6F 31 3B F0 FF  .........fdo1;..
0270: FF 7F 20 10 21 10 22 10  38 3C 80 02 07 00 1C 80  .. .!.".8<......
0280: 00 9A 02 03 00 00 1C 80  03 04 00 03 00 03 02 00  ................
0290: 2F 80 03 1C 00 2F 80 01  5A 06 03 00 00 1C 80 02  /..../..Z.......
02A0: 00 00 26 80 05 EF 08 02  2F 80 1C 80 00 B4 02 03  ..&...../.......
02B0: 00 00 05 00 40 2F 80 26  80 01 10 00 00 40 38 80  ....@/.&.....@8.
02C0: 3D 80 01 10 03 00 40 11  80 20 80 01 10 0F 00 06  =.....@.. ......
02D0: 02 10 06 03 10 06 04 10  1A B4 16 47 00 09 00 0A  ...........G....
02E0: 00 0B 00 0C 00 47 01 03  04 00 03 10 03 02 00 04  .....G..........
02F0: 10 03 1A 00 05 10 03 0D  00 06 10 03 0E 00 07 10  ................
0300: 03 1C 00 09 10 02 02 10  1C 80 80 10 03 01 DC 08  ................
0310: 02 02 10 38 80 80 5A 03  02 00 00 1C 80 80 27 03  ...8..Z.......'.
0320: 48 3E 80 23 01 54 03 02  00 00 37 80 80 36 03 48  H>.#.T....7..6.H
0330: 3F 80 23 01 54 03 02 00  00 26 80 80 45 03 48 40  ?.#.T....&..E.H@
0340: 80 23 01 54 03 02 00 00  38 80 80 54 03 48 41 80  .#.T....8..T.HA.
0350: 23 01 54 03 01 F3 08 01  DC 08 02 02 10 36 80 80  #.T..........6..
0360: 6C 03 48 42 80 23 01 F3  08 01 DC 08 02 02 10 43  l.HB.#.........C
0370: 80 80 6E 05 02 04 00 2F  80 80 84 03 03 05 10 43  ..n..../.......C
0380: 80 01 64 05 02 04 00 1C  80 80 94 03 03 05 10 43  ..d............C
0390: 80 01 64 05 02 04 00 37  80 80 A4 03 03 05 10 1C  ..d....7........
03A0: 80 01 64 05 02 04 00 26  80 80 B4 03 03 05 10 1C  ..d....&........
03B0: 80 01 64 05 02 04 00 38  80 80 C4 03 03 05 10 1C  ..d....8........
03C0: 80 01 64 05 02 04 00 36  80 80 D4 03 03 05 10 43  ..d....6.......C
03D0: 80 01 64 05 02 04 00 43  80 80 E4 03 03 05 10 43  ..d....C.......C
03E0: 80 01 64 05 02 04 00 44  80 80 F4 03 03 05 10 43  ..d....D.......C
03F0: 80 01 64 05 02 04 00 3D  80 80 04 04 03 05 10 43  ..d....=.......C
0400: 80 01 64 05 02 04 00 11  80 80 14 04 03 05 10 43  ..d............C
0410: 80 01 64 05 02 04 00 0E  80 80 24 04 03 05 10 43  ..d.......$....C
0420: 80 01 64 05 02 04 00 20  80 80 34 04 03 05 10 2F  ..d.... ..4..../
0430: 80 01 64 05 02 04 00 45  80 80 44 04 03 05 10 2F  ..d....E..D..../
0440: 80 01 64 05 02 04 00 04  80 80 54 04 03 05 10 2F  ..d.......T..../
0450: 80 01 64 05 02 04 00 46  80 80 64 04 03 05 10 2F  ..d....F..d..../
0460: 80 01 64 05 02 04 00 30  80 80 74 04 03 05 10 2F  ..d....0..t..../
0470: 80 01 64 05 02 04 00 31  80 80 84 04 03 05 10 2F  ..d....1......./
0480: 80 01 64 05 02 04 00 47  80 80 94 04 03 05 10 2F  ..d....G......./
0490: 80 01 64 05 02 04 00 48  80 80 A4 04 03 05 10 2F  ..d....H......./
04A0: 80 01 64 05 02 04 00 3C  80 80 B4 04 03 05 10 2F  ..d....<......./
04B0: 80 01 64 05 02 04 00 49  80 80 C4 04 03 05 10 2F  ..d....I......./
04C0: 80 01 64 05 02 04 00 4A  80 80 D4 04 03 05 10 2F  ..d....J......./
04D0: 80 01 64 05 02 04 00 4B  80 80 E4 04 03 05 10 2F  ..d....K......./
04E0: 80 01 64 05 02 04 00 4C  80 80 F4 04 03 05 10 2F  ..d....L......./
04F0: 80 01 64 05 02 04 00 4D  80 80 04 05 03 05 10 2F  ..d....M......./
0500: 80 01 64 05 02 04 00 4E  80 80 14 05 03 05 10 2F  ..d....N......./
0510: 80 01 64 05 02 04 00 4F  80 80 24 05 03 05 10 2F  ..d....O..$..../
0520: 80 01 64 05 02 04 00 50  80 80 34 05 03 05 10 2F  ..d....P..4..../
0530: 80 01 64 05 02 04 00 51  80 80 44 05 03 05 10 2F  ..d....Q..D..../
0540: 80 01 64 05 02 04 00 52  80 80 54 05 03 05 10 2F  ..d....R..T..../
0550: 80 01 64 05 02 04 00 0D  80 80 64 05 03 05 10 2F  ..d.......d..../
0560: 80 01 64 05 48 53 80 23  01 F3 08 01 DC 08 02 02  ..d.HS.#........
0570: 10 26 80 80 7C 05 01 9A  02 01 DC 08 02 02 10 37  .&..|..........7
0580: 80 80 DC 08 02 0D 00 2F  80 01 10 06 02 13 00 2F  ......./......./
0590: 80 01 C4 05 03 05 10 1A  00 02 1A 00 2F 80 02 A1  ............/...
05A0: 05 02 0D 00 1C 80 05 B0  05 48 54 80 23 01 C1 05  .........HT.#...
05B0: 03 06 10 0D 00 0C 06 10  03 07 10 0D 00 48 55 80  .............HU.
05C0: 23 01 10 06 03 05 10 1A  00 02 1A 00 2F 80 02 F0  #.........../...
05D0: 05 02 1A 00 56 80 04 EC  05 3F 04 10 05 10 56 80  ....V....?....V.
05E0: 15 05 10 56 80 48 57 80  23 01 F0 05 48 58 80 23  ...V.HW.#...HX.#
05F0: 02 0D 00 1C 80 05 FF 05  48 54 80 23 01 10 06 03  ........HT.#....
0600: 06 10 0D 00 0C 06 10 03  07 10 0D 00 48 55 80 23  ............HU.#
0610: 03 03 00 04 00 03 14 00  59 80 07 14 00 03 00 02  ........Y.......
0620: 02 00 14 00 00 2F 06 03  02 00 1C 80 01 34 06 03  ...../.......4..
0630: 02 00 2F 80 02 02 00 2F  80 00 5A 06 02 0E 00 1C  ../..../..Z.....
0640: 80 00 5A 06 24 5A 80 1C  80 2F 80 25 02 00 10 2F  ..Z.$Z.../.%.../
0650: 80 00 5A 06 05 02 00 01  5A 06 06 15 00 02 04 00  ..Z.....Z.......
0660: 2F 80 80 6D 06 03 15 00  2F 80 01 52 08 02 04 00  /..m..../..R....
0670: 1C 80 80 7D 06 03 15 00  2F 80 01 52 08 02 04 00  ...}..../..R....
0680: 37 80 80 8D 06 03 15 00  2F 80 01 52 08 02 04 00  7......./..R....
0690: 26 80 80 9D 06 03 15 00  2F 80 01 52 08 02 04 00  &......./..R....
06A0: 38 80 80 AD 06 03 15 00  2F 80 01 52 08 02 04 00  8......./..R....
06B0: 36 80 80 BD 06 03 15 00  2F 80 01 52 08 02 04 00  6......./..R....
06C0: 43 80 80 CD 06 03 15 00  2F 80 01 52 08 02 04 00  C......./..R....
06D0: 44 80 80 DD 06 03 15 00  2F 80 01 52 08 02 04 00  D......./..R....
06E0: 3D 80 80 ED 06 03 15 00  2F 80 01 52 08 02 04 00  =......./..R....
06F0: 11 80 80 FD 06 03 15 00  2F 80 01 52 08 02 04 00  ......../..R....
0700: 0E 80 80 0D 07 03 15 00  2F 80 01 52 08 02 04 00  ......../..R....
0710: 20 80 80 1D 07 03 15 00  2F 80 01 52 08 02 04 00   ......./..R....
0720: 45 80 80 2D 07 03 15 00  2F 80 01 52 08 02 04 00  E..-..../..R....
0730: 04 80 80 3D 07 03 15 00  2F 80 01 52 08 02 04 00  ...=..../..R....
0740: 46 80 80 4D 07 03 15 00  2F 80 01 52 08 02 04 00  F..M..../..R....
0750: 30 80 80 5D 07 03 15 00  2F 80 01 52 08 02 04 00  0..]..../..R....
0760: 31 80 80 6D 07 03 15 00  2F 80 01 52 08 02 04 00  1..m..../..R....
0770: 47 80 80 7D 07 03 15 00  2F 80 01 52 08 02 04 00  G..}..../..R....
0780: 48 80 80 8D 07 03 15 00  2F 80 01 52 08 02 04 00  H......./..R....
0790: 3C 80 80 9D 07 03 15 00  2F 80 01 52 08 02 04 00  <......./..R....
07A0: 49 80 80 AD 07 03 15 00  2F 80 01 52 08 02 04 00  I......./..R....
07B0: 4A 80 80 BD 07 03 15 00  2F 80 01 52 08 02 04 00  J......./..R....
07C0: 4B 80 80 CD 07 03 15 00  2F 80 01 52 08 02 04 00  K......./..R....
07D0: 4C 80 80 DD 07 03 15 00  2F 80 01 52 08 02 04 00  L......./..R....
07E0: 4D 80 80 ED 07 03 15 00  2F 80 01 52 08 02 04 00  M......./..R....
07F0: 4E 80 80 FD 07 03 15 00  2F 80 01 52 08 02 04 00  N......./..R....
0800: 4F 80 80 0D 08 03 15 00  2F 80 01 52 08 02 04 00  O......./..R....
0810: 50 80 80 1D 08 03 15 00  2F 80 01 52 08 02 04 00  P......./..R....
0820: 51 80 80 2D 08 03 15 00  2F 80 01 52 08 02 04 00  Q..-..../..R....
0830: 52 80 80 3D 08 03 15 00  2F 80 01 52 08 02 04 00  R..=..../..R....
0840: 0D 80 80 4D 08 03 15 00  2F 80 01 52 08 03 15 00  ...M..../..R....
0850: 2F 80 02 02 00 1C 80 00  6D 08 5C 00 5B 80 5C 01  /.......m.\.[.\.
0860: 5B 80 5C 02 5B 80 5C 03  5B 80 01 85 08 02 15 00  [.\.[.\.[.......
0870: 2F 80 00 85 08 5C 00 5B  80 5C 01 5B 80 5C 02 5B  /....\.[.\.[.\.[
0880: 80 5C 03 5B 80 02 02 00  2F 80 00 93 08 1A 02 11  .\.[..../.......
0890: 01 CC 08 6C F0 FF FF 7F  2F 80 1C 80 62 37 80 F0  ...l..../...b7..
08A0: FF FF 7F F0 FF FF 7F 6D  61 69 6E 2F 80 45 3B 80  .......main/.E;.
08B0: F0 FF FF 7F F0 FF FF 7F  6F 76 6C 31 2F 80 46 02  ........ovl1/.F.
08C0: 12 00 02 12 00 2F 80 00  CC 08 46 00 03 01 10 59  ...../....F....Y
08D0: 80 07 01 10 03 00 01 F3  08 01 DC 08 0B 00 00 02  ................
08E0: 2F 80 1C 80 00 EC 08 03  00 00 38 80 01 9F 02 48  /.........8....H
08F0: 5C 80 23 45 5D 80 F0 FF  FF 7F F0 FF FF 7F 77 68  \.#E].........wh
0900: 69 31 2F 80 45 3B 80 F0  FF FF 7F F0 FF FF 7F 62  i1/.E;.........b
0910: 6C 6F 66 2F 80 45 3B 80  F0 FF FF 7F F0 FF FF 7F  lof/.E;.........
0920: 66 64 69 30 2F 80 02 07  00 1C 80 00 3E 09 5C 00  fdi0/.......>.\.
0930: 2F 80 5C 01 2F 80 5C 02  5B 80 5C 03 5B 80 21 00  /.\./.\.[.\.[.!.
0940: 1B                                                .               
```

#### Opcodes

```
  0: 0x00FD [0x20] SET_CLI_EVENT_UC_FLAG: Lock player control
  1: 0x00FF [0x79] LocalPlayer looks at LocalPlayer (Basic look)
  2: 0x0109 [0x03] ExtData[1]->WorkLocal[2] = Work_Zone[2]
  3: 0x010E [0x03] ExtData[1]->WorkLocal[3] = Work_Zone[3]
  4: 0x0113 [0x03] ExtData[1]->WorkLocal[5] = Work_Zone[4]
  5: 0x0118 [0x03] ExtData[1]->WorkLocal[6] = Work_Zone[5]
  6: 0x011D [0x03] ExtData[1]->WorkLocal[15] = Work_Zone[6]
  7: 0x0122 [0x03] ExtData[1]->WorkLocal[16] = Work_Zone[7]
  8: 0x0127 [0x03] ExtData[1]->WorkLocal[17] = Work_Zone[8]
  9: 0x012C [0x41] ExtData[1]->WorkLocal[7] = Work_Zone[9] (bits 0*-15*)
 10: 0x0135 [0x41] Work_Zone[6] = Work_Zone[9] (bits 16*-31*)
 11: 0x013E [0x06] ExtData[1]->WorkLocal[1] = 0
 12: 0x0141 [0x02] IF !(ExtData[1]->WorkLocal[7] == 0*) GOTO 0x0240
 13: 0x0149 [0x03] ExtData[1]->WorkLocal[8] = 4294967295*
 14: 0x014E [0x0F] ExtData[1]->WorkLocal[8] ^= ExtData[1]->WorkLocal[6]
 15: 0x0153 [0x10] ExtData[1]->WorkLocal[8] <<= 1*
 16: 0x0158 [0x24] CREATE_DIALOG(message_id=7605*, default_option=0*, option_flags=ExtData[1]->WorkLocal[8])
    → "Which battlefield will you enter? [None./Through the Quicksand Caves./Legion XI Comitatensis./Shattering Stars (SAM)./Shattering Stars (NIN)./Shattering Stars (DRG)./Cactuar Suave./Eye of the Storm./The Scarlet King./Roar! A Cat Burglar Bares Her Fangs./Dragon Scales./$26Legion XI Comitatensis././././././././././././././././././././]"
 17: 0x015F [0x25] WAIT_DIALOG_SELECT()
 18: 0x0160 [0x02] IF !(Work_Zone[0] == 0*) GOTO 0x016E
 19: 0x0168 [0x01] GOTO 0x0926

SUBROUTINE_019A:
 20: 0x019A [0x3E] IF !(ExtData[1]->WorkLocal[16] bit ExtData[1]->WorkLocal[3]) GOTO 0x01A4
 21: 0x01A1 [0x01] GOTO 0x01AB
 22: 0x01A4 [0x3C] SET_BIT_FLAG_CONDITIONAL(target_work_offset=ExtData[1]->WorkLocal[8], bit_index_work_offset=1*, condition_work_offset=1*)

SUBROUTINE_01AB:
 23: 0x01AB [0x1A] CALL_SUBROUTINE(address=0x13FE)
 24: 0x01AE [0x24] CREATE_DIALOG(message_id=7592*, default_option=5*, option_flags=ExtData[1]->WorkLocal[8])
    → "Select difficulty. [Very difficult. (Level: ???)/Difficult. (Level: ???)/Normal. (Level: $18)/Easy. (Level: $17)/Very Easy. (Level: $16)/Leave.]"
 25: 0x01B5 [0x25] WAIT_DIALOG_SELECT()
 26: 0x01B6 [0x02] IF !(Work_Zone[0] == 0*) GOTO 0x01C6
 27: 0x01BE [0x03] ExtData[1]->WorkLocal[15] = 1*
 28: 0x01C3 [0x01] GOTO 0x0219
 29: 0x01C6 [0x02] IF !(Work_Zone[0] == 1*) GOTO 0x01D6
 30: 0x01CE [0x03] ExtData[1]->WorkLocal[15] = 2*
 31: 0x01D3 [0x01] GOTO 0x0219
 32: 0x01D6 [0x02] IF !(Work_Zone[0] == 2*) GOTO 0x01E6
 33: 0x01DE [0x03] ExtData[1]->WorkLocal[15] = 3*
 34: 0x01E3 [0x01] GOTO 0x0219
 35: 0x01E6 [0x02] IF !(Work_Zone[0] == 3*) GOTO 0x01F6
 36: 0x01EE [0x03] ExtData[1]->WorkLocal[15] = 4*
 37: 0x01F3 [0x01] GOTO 0x0219
 38: 0x01F6 [0x02] IF !(Work_Zone[0] == 4*) GOTO 0x0206
 39: 0x01FE [0x03] ExtData[1]->WorkLocal[15] = 5*
 40: 0x0203 [0x01] GOTO 0x0219
 41: 0x0206 [0x02] IF !(Work_Zone[0] == 5*) GOTO 0x0214
 42: 0x020E [0x01] GOTO 0x0926

SUBROUTINE_0219:
 43: 0x0219 [0x01] GOTO 0x0240
 44: 0x021C [0x06] ExtData[1]->WorkLocal[15] = 0
 45: 0x021F [0x1A] CALL_SUBROUTINE(address=0x0940)
 46: 0x0222 [0x02] IF !(ExtData[1]->WorkLocal[22] == 1*) GOTO 0x0240
 47: 0x022A [0x24] CREATE_DIALOG(message_id=7227*, default_option=1*, option_flags=0*)
    → "Enter the battlefield? [Enter./Decline.]"
 48: 0x0231 [0x25] WAIT_DIALOG_SELECT()
 49: 0x0232 [0x02] IF !(Work_Zone[0] == 1*) GOTO 0x0240
 50: 0x023A [0x01] GOTO 0x0926

SUBROUTINE_0240:
 51: 0x0240 [0x42] SET_CLI_EVENT_CANCEL_DATA()
 52: 0x0241 [0x03] Work_Zone[1] = 255*
 53: 0x0246 [0x43] SEND_EVENT_UPDATE: Send pending tag to server (packet 0x005B)
 54: 0x0248 [0x43] SEND_EVENT_UPDATE: Check pending flag (skip if not pending)
 55: 0x024A [0x06] Work_Zone[1] = 0
 56: 0x024D [0x45] LOAD_SCHEDULED_TASK: Load scheduler "fdo1" with entities [LocalPlayer, LocalPlayer], work=[200*, 0*]
 57: 0x025E [0x55] WAIT_LOAD_SCHEDULER: Wait for scheduler "fdo1" with entities [LocalPlayer, LocalPlayer], work=200*
 58: 0x026D [0x3B] GET_ENTITY_POSITION(entity=LocalPlayer, x_destination=Work_Zone[32], y_destination=Work_Zone[33], z_destination=Work_Zone[34])
 59: 0x0278 [0x38] SET_CLIENT_EVENT_MODE(mode=19*)
 60: 0x027B [0x02] IF !(ExtData[1]->WorkLocal[7] == 1*) GOTO 0x029A
 61: 0x0283 [0x03] ExtData[1]->WorkLocal[0] = 1*
 62: 0x0288 [0x03] ExtData[1]->WorkLocal[4] = ExtData[1]->WorkLocal[3]
 63: 0x028D [0x03] ExtData[1]->WorkLocal[2] = 0*
 64: 0x0292 [0x03] ExtData[1]->WorkLocal[28] = 0*
 65: 0x0297 [0x01] GOTO 0x065A

SUBROUTINE_029A:
 66: 0x029A [0x03] ExtData[1]->WorkLocal[0] = 1*

SUBROUTINE_029F:
 67: 0x029F [0x02] IF !(ExtData[1]->WorkLocal[0] > 3*) GOTO 0x08EF
 68: 0x02A7 [0x02] IF !(0* == 1*) GOTO 0x02B4
 69: 0x02AF [0x03] ExtData[1]->WorkLocal[0] = ExtData[1]->WorkLocal[5]
 70: 0x02B4 [0x40] SET_BIT_WORK_RANGE(start_bit=0*, end_bit=3*, target=Work_Zone[1], source=ExtData[1]->WorkLocal[0])
 71: 0x02BD [0x40] SET_BIT_WORK_RANGE(start_bit=4*, end_bit=8*, target=Work_Zone[1], source=ExtData[1]->WorkLocal[3])
 72: 0x02C6 [0x40] SET_BIT_WORK_RANGE(start_bit=9*, end_bit=11*, target=Work_Zone[1], source=ExtData[1]->WorkLocal[15])
 73: 0x02CF [0x06] Work_Zone[2] = 0
 74: 0x02D2 [0x06] Work_Zone[3] = 0
 75: 0x02D5 [0x06] Work_Zone[4] = 0
 76: 0x02D8 [0x1A] CALL_SUBROUTINE(address=0x16B4)
 77: 0x02DB [0x47] UPDATE_PLAYER_POS(ExtData[1]->WorkLocal[9], ExtData[1]->WorkLocal[10], ExtData[1]->WorkLocal[11], yaw=ExtData[1]->WorkLocal[12])
 78: 0x02E5 [0x47] WAIT_PLAYER_POS_UPDATE
 79: 0x02E7 [0x03] ExtData[1]->WorkLocal[4] = Work_Zone[3]
 80: 0x02EC [0x03] ExtData[1]->WorkLocal[2] = Work_Zone[4]
 81: 0x02F1 [0x03] ExtData[1]->WorkLocal[26] = Work_Zone[5]
 82: 0x02F6 [0x03] ExtData[1]->WorkLocal[13] = Work_Zone[6]
 83: 0x02FB [0x03] ExtData[1]->WorkLocal[14] = Work_Zone[7]
 84: 0x0300 [0x03] ExtData[1]->WorkLocal[28] = Work_Zone[9]
 85: 0x0305 [0x02] IF !(Work_Zone[2] == 1*) GOTO 0x0310
 86: 0x030D [0x01] GOTO 0x08DC
 87: 0x0310 [0x02] IF !(Work_Zone[2] == 4*) GOTO 0x035A
 88: 0x0318 [0x02] IF !(ExtData[1]->WorkLocal[0] == 1*) GOTO 0x0327
 89: 0x0320 [0x48] [System] [7238*]:
    → "You are cleared to enter the battlefield, but you cannot while party members are engaged in combat."
 90: 0x0323 [0x23] WAIT_FOR_DIALOG_INTERACTION
 91: 0x0324 [0x01] GOTO 0x0354
 92: 0x0327 [0x02] IF !(ExtData[1]->WorkLocal[0] == 2*) GOTO 0x0336
 93: 0x032F [0x48] [System] [7239*]:
    → "You are cleared to enter the battlefield, but you cannot while party members are engaged in combat."
 94: 0x0332 [0x23] WAIT_FOR_DIALOG_INTERACTION
 95: 0x0333 [0x01] GOTO 0x0354
 96: 0x0336 [0x02] IF !(ExtData[1]->WorkLocal[0] == 3*) GOTO 0x0345
 97: 0x033E [0x48] [System] [7240*]:
    → "You are cleared to enter the battlefield, but you cannot while party members are engaged in combat."
 98: 0x0341 [0x23] WAIT_FOR_DIALOG_INTERACTION
 99: 0x0342 [0x01] GOTO 0x0354
100: 0x0345 [0x02] IF !(ExtData[1]->WorkLocal[0] == 4*) GOTO 0x0354
101: 0x034D [0x48] [System] [7241*]:
    → "You are cleared to enter the battlefield, but you cannot while party members are engaged in combat."
102: 0x0350 [0x23] WAIT_FOR_DIALOG_INTERACTION
103: 0x0351 [0x01] GOTO 0x0354

SUBROUTINE_0354:
104: 0x0354 [0x01] GOTO 0x08F3

SUBROUTINE_0564:
105: 0x0564 [0x48] [System] [7586*]:
    → "Only $3 [member/members] have clearance to enter the battlefield. This room has reached its maximum capacity."
106: 0x0567 [0x23] WAIT_FOR_DIALOG_INTERACTION
107: 0x0568 [0x01] GOTO 0x08F3

SUBROUTINE_05C1:
108: 0x05C1 [0x01] GOTO 0x0610
109: 0x05C4 [0x03] Work_Zone[5] = ExtData[1]->WorkLocal[26]
110: 0x05C9 [0x02] IF !(ExtData[1]->WorkLocal[26] <= 0*) GOTO 0x05F0
111: 0x05D1 [0x02] IF !(ExtData[1]->WorkLocal[26] < 60*) GOTO 0x05EC
112: 0x05D9 [0x3F] Work_Zone[4] = Work_Zone[5] % 60*
113: 0x05E0 [0x15] Work_Zone[5] /= 60*
114: 0x05E5 [0x48] [System] [7603*]:
    → "The current battlefield clear time record for "[Through the Quicksand Caves/Legion XI Comitatensis/Shattering Stars (SAM)/Shattering Stars (NIN)/Shattering Stars (DRG)/Cactuar Suave/Eye of the Storm/The Scarlet King/Roar! A Cat Burglar Bares Her Fangs/Dragon Scales/$26Legion XI Comitatensis]" is $3 minute[/s] $2 second[/s]."
115: 0x05E8 [0x23] WAIT_FOR_DIALOG_INTERACTION
116: 0x05E9 [0x01] GOTO 0x05F0
117: 0x05EC [0x48] [System] [7602*]:
    → "The current battlefield clear time record for "[Through the Quicksand Caves/Legion XI Comitatensis/Shattering Stars (SAM)/Shattering Stars (NIN)/Shattering Stars (DRG)/Cactuar Suave/Eye of the Storm/The Scarlet King/Roar! A Cat Burglar Bares Her Fangs/Dragon Scales/$26Legion XI Comitatensis]" is $3 second[/s]."
118: 0x05EF [0x23] WAIT_FOR_DIALOG_INTERACTION

SUBROUTINE_05F0:
119: 0x05F0 [0x02] IF !(ExtData[1]->WorkLocal[13] > 1*) GOTO 0x05FF
120: 0x05F8 [0x48] [System] [7591*]:
    → "That record is held by %0!"
121: 0x05FB [0x23] WAIT_FOR_DIALOG_INTERACTION
122: 0x05FC [0x01] GOTO 0x0610
123: 0x05FF [0x03] Work_Zone[6] = ExtData[1]->WorkLocal[13]
124: 0x0604 [0x0C] Work_Zone[6]--
125: 0x0607 [0x03] Work_Zone[7] = ExtData[1]->WorkLocal[13]
126: 0x060C [0x48] [System] [7590*]:
    → "That record is held by $5 adventurers, including %0!"
127: 0x060F [0x23] WAIT_FOR_DIALOG_INTERACTION

SUBROUTINE_0610:
128: 0x0610 [0x03] ExtData[1]->WorkLocal[3] = ExtData[1]->WorkLocal[4]
129: 0x0615 [0x03] ExtData[1]->WorkLocal[20] = 100*
130: 0x061A [0x07] ExtData[1]->WorkLocal[20] += ExtData[1]->WorkLocal[3]
131: 0x061F [0x02] IF !(ExtData[1]->WorkLocal[2] == ExtData[1]->WorkLocal[20]) GOTO 0x062F
132: 0x0627 [0x03] ExtData[1]->WorkLocal[2] = 1*
133: 0x062C [0x01] GOTO 0x0634
134: 0x062F [0x03] ExtData[1]->WorkLocal[2] = 0*

SUBROUTINE_0634:
135: 0x0634 [0x02] IF !(ExtData[1]->WorkLocal[2] == 0*) GOTO 0x065A
136: 0x063C [0x02] IF !(ExtData[1]->WorkLocal[14] == 1*) GOTO 0x065A
137: 0x0644 [0x24] CREATE_DIALOG(message_id=7566*, default_option=1*, option_flags=0*)
    → "Skip the event? [Yes./No.]"
138: 0x064B [0x25] WAIT_DIALOG_SELECT()
139: 0x064C [0x02] IF !(Work_Zone[0] == 0*) GOTO 0x065A
140: 0x0654 [0x05] ExtData[1]->WorkLocal[2] = 1
141: 0x0657 [0x01] GOTO 0x065A

SUBROUTINE_065A:
142: 0x065A [0x06] ExtData[1]->WorkLocal[21] = 0
143: 0x065D [0x02] IF !(ExtData[1]->WorkLocal[4] == 0*) GOTO 0x066D
144: 0x0665 [0x03] ExtData[1]->WorkLocal[21] = 0*
145: 0x066A [0x01] GOTO 0x0852
146: 0x066D [0x02] IF !(ExtData[1]->WorkLocal[4] == 1*) GOTO 0x067D
147: 0x0675 [0x03] ExtData[1]->WorkLocal[21] = 0*
148: 0x067A [0x01] GOTO 0x0852
149: 0x067D [0x02] IF !(ExtData[1]->WorkLocal[4] == 2*) GOTO 0x068D
150: 0x0685 [0x03] ExtData[1]->WorkLocal[21] = 0*
151: 0x068A [0x01] GOTO 0x0852
152: 0x068D [0x02] IF !(ExtData[1]->WorkLocal[4] == 3*) GOTO 0x069D
153: 0x0695 [0x03] ExtData[1]->WorkLocal[21] = 0*
154: 0x069A [0x01] GOTO 0x0852
155: 0x069D [0x02] IF !(ExtData[1]->WorkLocal[4] == 4*) GOTO 0x06AD
156: 0x06A5 [0x03] ExtData[1]->WorkLocal[21] = 0*
157: 0x06AA [0x01] GOTO 0x0852
158: 0x06AD [0x02] IF !(ExtData[1]->WorkLocal[4] == 5*) GOTO 0x06BD
159: 0x06B5 [0x03] ExtData[1]->WorkLocal[21] = 0*
160: 0x06BA [0x01] GOTO 0x0852
161: 0x06BD [0x02] IF !(ExtData[1]->WorkLocal[4] == 6*) GOTO 0x06CD
162: 0x06C5 [0x03] ExtData[1]->WorkLocal[21] = 0*
163: 0x06CA [0x01] GOTO 0x0852
164: 0x06CD [0x02] IF !(ExtData[1]->WorkLocal[4] == 7*) GOTO 0x06DD
165: 0x06D5 [0x03] ExtData[1]->WorkLocal[21] = 0*
166: 0x06DA [0x01] GOTO 0x0852
167: 0x06DD [0x02] IF !(ExtData[1]->WorkLocal[4] == 8*) GOTO 0x06ED
168: 0x06E5 [0x03] ExtData[1]->WorkLocal[21] = 0*
169: 0x06EA [0x01] GOTO 0x0852
170: 0x06ED [0x02] IF !(ExtData[1]->WorkLocal[4] == 9*) GOTO 0x06FD
171: 0x06F5 [0x03] ExtData[1]->WorkLocal[21] = 0*
172: 0x06FA [0x01] GOTO 0x0852
173: 0x06FD [0x02] IF !(ExtData[1]->WorkLocal[4] == 10*) GOTO 0x070D
174: 0x0705 [0x03] ExtData[1]->WorkLocal[21] = 0*
175: 0x070A [0x01] GOTO 0x0852
176: 0x070D [0x02] IF !(ExtData[1]->WorkLocal[4] == 11*) GOTO 0x071D
177: 0x0715 [0x03] ExtData[1]->WorkLocal[21] = 0*
178: 0x071A [0x01] GOTO 0x0852
179: 0x071D [0x02] IF !(ExtData[1]->WorkLocal[4] == 12*) GOTO 0x072D
180: 0x0725 [0x03] ExtData[1]->WorkLocal[21] = 0*
181: 0x072A [0x01] GOTO 0x0852
182: 0x072D [0x02] IF !(ExtData[1]->WorkLocal[4] == 13*) GOTO 0x073D
183: 0x0735 [0x03] ExtData[1]->WorkLocal[21] = 0*
184: 0x073A [0x01] GOTO 0x0852
185: 0x073D [0x02] IF !(ExtData[1]->WorkLocal[4] == 14*) GOTO 0x074D
186: 0x0745 [0x03] ExtData[1]->WorkLocal[21] = 0*
187: 0x074A [0x01] GOTO 0x0852
188: 0x074D [0x02] IF !(ExtData[1]->WorkLocal[4] == 15*) GOTO 0x075D
189: 0x0755 [0x03] ExtData[1]->WorkLocal[21] = 0*
190: 0x075A [0x01] GOTO 0x0852
191: 0x075D [0x02] IF !(ExtData[1]->WorkLocal[4] == 16*) GOTO 0x076D
192: 0x0765 [0x03] ExtData[1]->WorkLocal[21] = 0*
193: 0x076A [0x01] GOTO 0x0852
194: 0x076D [0x02] IF !(ExtData[1]->WorkLocal[4] == 17*) GOTO 0x077D
195: 0x0775 [0x03] ExtData[1]->WorkLocal[21] = 0*
196: 0x077A [0x01] GOTO 0x0852
197: 0x077D [0x02] IF !(ExtData[1]->WorkLocal[4] == 18*) GOTO 0x078D
198: 0x0785 [0x03] ExtData[1]->WorkLocal[21] = 0*
199: 0x078A [0x01] GOTO 0x0852
200: 0x078D [0x02] IF !(ExtData[1]->WorkLocal[4] == 19*) GOTO 0x079D
201: 0x0795 [0x03] ExtData[1]->WorkLocal[21] = 0*
202: 0x079A [0x01] GOTO 0x0852
203: 0x079D [0x02] IF !(ExtData[1]->WorkLocal[4] == 20*) GOTO 0x07AD
204: 0x07A5 [0x03] ExtData[1]->WorkLocal[21] = 0*
205: 0x07AA [0x01] GOTO 0x0852
206: 0x07AD [0x02] IF !(ExtData[1]->WorkLocal[4] == 21*) GOTO 0x07BD
207: 0x07B5 [0x03] ExtData[1]->WorkLocal[21] = 0*
208: 0x07BA [0x01] GOTO 0x0852
209: 0x07BD [0x02] IF !(ExtData[1]->WorkLocal[4] == 22*) GOTO 0x07CD
210: 0x07C5 [0x03] ExtData[1]->WorkLocal[21] = 0*
211: 0x07CA [0x01] GOTO 0x0852
212: 0x07CD [0x02] IF !(ExtData[1]->WorkLocal[4] == 23*) GOTO 0x07DD
213: 0x07D5 [0x03] ExtData[1]->WorkLocal[21] = 0*
214: 0x07DA [0x01] GOTO 0x0852
215: 0x07DD [0x02] IF !(ExtData[1]->WorkLocal[4] == 24*) GOTO 0x07ED
216: 0x07E5 [0x03] ExtData[1]->WorkLocal[21] = 0*
217: 0x07EA [0x01] GOTO 0x0852
218: 0x07ED [0x02] IF !(ExtData[1]->WorkLocal[4] == 25*) GOTO 0x07FD
219: 0x07F5 [0x03] ExtData[1]->WorkLocal[21] = 0*
220: 0x07FA [0x01] GOTO 0x0852
221: 0x07FD [0x02] IF !(ExtData[1]->WorkLocal[4] == 26*) GOTO 0x080D
222: 0x0805 [0x03] ExtData[1]->WorkLocal[21] = 0*
223: 0x080A [0x01] GOTO 0x0852
224: 0x080D [0x02] IF !(ExtData[1]->WorkLocal[4] == 27*) GOTO 0x081D
225: 0x0815 [0x03] ExtData[1]->WorkLocal[21] = 0*
226: 0x081A [0x01] GOTO 0x0852
227: 0x081D [0x02] IF !(ExtData[1]->WorkLocal[4] == 28*) GOTO 0x082D
228: 0x0825 [0x03] ExtData[1]->WorkLocal[21] = 0*
229: 0x082A [0x01] GOTO 0x0852
230: 0x082D [0x02] IF !(ExtData[1]->WorkLocal[4] == 29*) GOTO 0x083D
231: 0x0835 [0x03] ExtData[1]->WorkLocal[21] = 0*
232: 0x083A [0x01] GOTO 0x0852
233: 0x083D [0x02] IF !(ExtData[1]->WorkLocal[4] == 30*) GOTO 0x084D
234: 0x0845 [0x03] ExtData[1]->WorkLocal[21] = 0*
235: 0x084A [0x01] GOTO 0x0852
236: 0x084D [0x03] ExtData[1]->WorkLocal[21] = 0*

SUBROUTINE_0852:
237: 0x0852 [0x02] IF !(ExtData[1]->WorkLocal[2] == 1*) GOTO 0x086D
238: 0x085A [0x5C] MUSIC_CONTROL: Set Idle (Day) music to song 193*
239: 0x085E [0x5C] MUSIC_CONTROL: Set Idle (Night) music to song 193*
240: 0x0862 [0x5C] MUSIC_CONTROL: Set Combat (Solo) music to song 193*
241: 0x0866 [0x5C] MUSIC_CONTROL: Set Combat (Party) music to song 193*
242: 0x086A [0x01] GOTO 0x0885
243: 0x086D [0x02] IF !(ExtData[1]->WorkLocal[21] == 0*) GOTO 0x0885
244: 0x0875 [0x5C] MUSIC_CONTROL: Set Idle (Day) music to song 193*
245: 0x0879 [0x5C] MUSIC_CONTROL: Set Idle (Night) music to song 193*
246: 0x087D [0x5C] MUSIC_CONTROL: Set Combat (Solo) music to song 193*
247: 0x0881 [0x5C] MUSIC_CONTROL: Set Combat (Party) music to song 193*

SUBROUTINE_0885:
248: 0x0885 [0x02] IF !(ExtData[1]->WorkLocal[2] == 0*) GOTO 0x0893
249: 0x088D [0x1A] CALL_SUBROUTINE(address=0x1102)
250: 0x0890 [0x01] GOTO 0x08CC
251: 0x0893 [0x6C] FADE_ENTITY_COLOR(entity_id=LocalPlayer, end_alpha=0*, fade_time=1*)
252: 0x089C [0x62] LOAD_EVENT_SCHEDULER: Load scheduler "main" with entities [LocalPlayer, LocalPlayer], work=[2*, 0*]
253: 0x08AD [0x45] LOAD_SCHEDULED_TASK: Load scheduler "ovl1" with entities [LocalPlayer, LocalPlayer], work=[200*, 0*]
254: 0x08BE [0x46] CAMERA_CONTROL: Query status
255: 0x08C0 [0x12] 0x0200 = rand()
256: 0x08C3 [0x12] 0x2F00 = rand()
257: 0x08C6 [0x80] LOAD_WAIT(entity=Unknown NPC (ID: 1174981632/0x4608CC00))
258: 0x08CB [0x00] END_REQSTACK()

SUBROUTINE_08CC:
259: 0x08CC [0x03] Work_Zone[1] = 100*
260: 0x08D1 [0x07] Work_Zone[1] += ExtData[1]->WorkLocal[3]
261: 0x08D6 [0x01] GOTO 0x08F3

SUBROUTINE_08DC:
262: 0x08DC [0x0B] ExtData[1]->WorkLocal[0]++
263: 0x08DF [0x02] IF !(0* == 1*) GOTO 0x08EC
264: 0x08E7 [0x03] ExtData[1]->WorkLocal[0] = 4*
265: 0x08EC [0x01] GOTO 0x029F
266: 0x08EF [0x48] [System] [7230*]:
    → "You cannot enter the battlefield at present. Please wait a little longer."
267: 0x08F2 [0x23] WAIT_FOR_DIALOG_INTERACTION

SUBROUTINE_08F3:
268: 0x08F3 [0x45] LOAD_SCHEDULED_TASK: Load scheduler "whi1" with entities [LocalPlayer, LocalPlayer], work=[201*, 0*]
269: 0x0904 [0x45] LOAD_SCHEDULED_TASK: Load scheduler "blof" with entities [LocalPlayer, LocalPlayer], work=[200*, 0*]
270: 0x0915 [0x45] LOAD_SCHEDULED_TASK: Load scheduler "fdi0" with entities [LocalPlayer, LocalPlayer], work=[200*, 0*]

SUBROUTINE_0926:
271: 0x0926 [0x02] IF !(ExtData[1]->WorkLocal[7] == 1*) GOTO 0x093E
272: 0x092E [0x5C] MUSIC_CONTROL: Set Idle (Day) music to song 0*
273: 0x0932 [0x5C] MUSIC_CONTROL: Set Idle (Night) music to song 0*
274: 0x0936 [0x5C] MUSIC_CONTROL: Set Combat (Solo) music to song 193*
275: 0x093A [0x5C] MUSIC_CONTROL: Set Combat (Party) music to song 193*
276: 0x093E [0x21] END_EVENT
277: 0x093F [0x00] END_REQSTACK()

SUBROUTINE_0940:
278: 0x0940 [0x1B] RETURN
```

#### Data or dead code:

```
# Dead code (unreachable instructions):
     0x016B [0x01] GOTO 0x0240
# Dead code (unreachable instructions):
     0x0211 [0x01] GOTO 0x0219
# Dead code (unreachable instructions):
     0x023D [0x01] GOTO 0x0240
# Dead code (unreachable instructions):
     0x0357 [0x01] GOTO 0x08DC
     0x0369 [0x01] GOTO 0x08DC
# Dead code (unreachable instructions):
     0x056B [0x01] GOTO 0x08DC
     0x0579 [0x01] GOTO 0x08DC
# Dead code (unreachable instructions):
     0x08D9 [0x01] GOTO 0x08DC
```

### Event 32002

#### Metadata

| Field        | Value     |
|--------------|-----------|
| Entrypoint   | 0x0941    |
| Data Size    | 494 bytes |
| Instructions | 83        |

```
      00 01 02 03 04 05 06 07  08 09 0A 0B 0C 0D 0E 0F
      -- -- -- -- -- -- -- --  -- -- -- -- -- -- -- --
0940:    03 05 00 06 10 03 21  00 07 10 03 20 00 08 10   ......!.... ...
0950: 20 01 42 3B F0 FF FF 7F  20 10 21 10 22 10 3A F0   .B;.... .!.".:.
0960: FF FF 7F 23 10 45 3B 80  F0 FF FF 7F F0 FF FF 7F  ...#.E;.........
0970: 66 64 6F 31 2F 80 55 3B  80 F0 FF FF 7F F0 FF FF  fdo1/.U;........
0980: 7F 66 64 6F 31 02 2F 80  1C 80 00 EC 09 02 05 00  .fdo1./.........
0990: 1C 80 80 A4 09 47 00 5E  80 5F 80 60 80 61 80 47  .....G.^._.`.a.G
09A0: 01 01 E9 09 02 05 00 37  80 80 BB 09 47 00 5E 80  .......7....G.^.
09B0: 5F 80 60 80 61 80 47 01  01 E9 09 02 05 00 26 80  _.`.a.G.......&.
09C0: 80 D2 09 47 00 5E 80 5F  80 60 80 61 80 47 01 01  ...G.^._.`.a.G..
09D0: E9 09 02 05 00 38 80 80  E9 09 47 00 5E 80 5F 80  .....8....G.^._.
09E0: 60 80 61 80 47 01 01 E9  09 01 F5 0A 02 20 00 62  `.a.G........ .b
09F0: 80 80 76 0A 02 21 00 2F  80 80 0B 0A 47 00 63 80  ..v..!./....G.c.
0A00: 64 80 65 80 66 80 47 01  01 73 0A 02 21 00 1C 80  d.e.f.G..s..!...
0A10: 80 22 0A 47 00 67 80 68  80 69 80 6A 80 47 01 01  .".G.g.h.i.j.G..
0A20: 73 0A 02 21 00 37 80 80  39 0A 47 00 6B 80 6C 80  s..!.7..9.G.k.l.
0A30: 6D 80 6E 80 47 01 01 73  0A 02 21 00 26 80 80 50  m.n.G..s..!.&..P
0A40: 0A 47 00 6F 80 70 80 71  80 72 80 47 01 01 73 0A  .G.o.p.q.r.G..s.
0A50: 02 21 00 38 80 80 67 0A  47 00 73 80 74 80 75 80  .!.8..g.G.s.t.u.
0A60: 76 80 47 01 01 73 0A 47  00 77 80 78 80 79 80 7A  v.G..s.G.w.x.y.z
0A70: 80 47 01 01 F5 0A 02 20  00 43 80 80 E9 0A 02 21  .G..... .C.....!
0A80: 00 1C 80 80 95 0A 47 00  7B 80 7C 80 7D 80 7E 80  ......G.{.|.}.~.
0A90: 47 01 01 E6 0A 02 21 00  37 80 80 AC 0A 47 00 7F  G.....!.7....G..
0AA0: 80 80 80 81 80 82 80 47  01 01 E6 0A 02 21 00 26  .......G.....!.&
0AB0: 80 80 C3 0A 47 00 83 80  84 80 85 80 86 80 47 01  ....G.........G.
0AC0: 01 E6 0A 02 21 00 38 80  80 DA 0A 47 00 87 80 88  ....!.8....G....
0AD0: 80 89 80 8A 80 47 01 01  E6 0A 47 00 77 80 78 80  .....G....G.w.x.
0AE0: 79 80 7A 80 47 01 01 F5  0A 47 00 77 80 78 80 79  y.z.G....G.w.x.y
0AF0: 80 7A 80 47 01 38 3C 80  1A CA 13 45 5D 80 F0 FF  .z.G.8<....E]...
0B00: FF 7F F0 FF FF 7F 77 68  69 31 2F 80 45 3B 80 F0  ......whi1/.E;..
0B10: FF FF 7F F0 FF FF 7F 62  6C 6F 66 2F 80 5C 00 2F  .......blof/.\./
0B20: 80 5C 01 2F 80 5C 02 5B  80 5C 03 5B 80 21 00     .\./.\.[.\.[.!. 
```

#### Opcodes

```
  0: 0x0941 [0x03] ExtData[1]->WorkLocal[5] = Work_Zone[6]
  1: 0x0946 [0x03] ExtData[1]->WorkLocal[33] = Work_Zone[7]
  2: 0x094B [0x03] ExtData[1]->WorkLocal[32] = Work_Zone[8]
  3: 0x0950 [0x20] SET_CLI_EVENT_UC_FLAG: Lock player control
  4: 0x0952 [0x42] SET_CLI_EVENT_CANCEL_DATA()
  5: 0x0953 [0x3B] GET_ENTITY_POSITION(entity=LocalPlayer, x_destination=Work_Zone[32], y_destination=Work_Zone[33], z_destination=Work_Zone[34])
  6: 0x095E [0x3A] CONVERT_YAW_TO_BYTE(entity=LocalPlayer, result_destination=Work_Zone[35])
  7: 0x0965 [0x45] LOAD_SCHEDULED_TASK: Load scheduler "fdo1" with entities [LocalPlayer, LocalPlayer], work=[200*, 0*]
  8: 0x0976 [0x55] WAIT_LOAD_SCHEDULER: Wait for scheduler "fdo1" with entities [LocalPlayer, LocalPlayer], work=200*
  9: 0x0985 [0x02] IF !(0* == 1*) GOTO 0x09EC
 10: 0x098D [0x02] IF !(ExtData[1]->WorkLocal[5] == 1*) GOTO 0x09A4
 11: 0x0995 [0x47] UPDATE_PLAYER_POS(-331.780*, -298.708*, 0.220*, yaw=29.5°*)
 12: 0x099F [0x47] WAIT_PLAYER_POS_UPDATE
 13: 0x09A1 [0x01] GOTO 0x09E9
 14: 0x09A4 [0x02] IF !(ExtData[1]->WorkLocal[5] == 2*) GOTO 0x09BB
 15: 0x09AC [0x47] UPDATE_PLAYER_POS(-331.780*, -298.708*, 0.220*, yaw=29.5°*)
 16: 0x09B6 [0x47] WAIT_PLAYER_POS_UPDATE
 17: 0x09B8 [0x01] GOTO 0x09E9
 18: 0x09BB [0x02] IF !(ExtData[1]->WorkLocal[5] == 3*) GOTO 0x09D2
 19: 0x09C3 [0x47] UPDATE_PLAYER_POS(-331.780*, -298.708*, 0.220*, yaw=29.5°*)
 20: 0x09CD [0x47] WAIT_PLAYER_POS_UPDATE
 21: 0x09CF [0x01] GOTO 0x09E9
 22: 0x09D2 [0x02] IF !(ExtData[1]->WorkLocal[5] == 4*) GOTO 0x09E9
 23: 0x09DA [0x47] UPDATE_PLAYER_POS(-331.780*, -298.708*, 0.220*, yaw=29.5°*)
 24: 0x09E4 [0x47] WAIT_PLAYER_POS_UPDATE
 25: 0x09E6 [0x01] GOTO 0x09E9

SUBROUTINE_09E9:
 26: 0x09E9 [0x01] GOTO 0x0AF5
 27: 0x09EC [0x02] IF !(ExtData[1]->WorkLocal[32] == 180*) GOTO 0x0A76
 28: 0x09F4 [0x02] IF !(ExtData[1]->WorkLocal[33] == 0*) GOTO 0x0A0B
 29: 0x09FC [0x47] UPDATE_PLAYER_POS(-605.141*, 479.929*, -22.681*, yaw=87.2°*)
 30: 0x0A06 [0x47] WAIT_PLAYER_POS_UPDATE
 31: 0x0A08 [0x01] GOTO 0x0A73
 32: 0x0A0B [0x02] IF !(ExtData[1]->WorkLocal[33] == 1*) GOTO 0x0A22
 33: 0x0A13 [0x47] UPDATE_PLAYER_POS(-262.589*, 377.857*, -137.313*, yaw=305.3°*)
 34: 0x0A1D [0x47] WAIT_PLAYER_POS_UPDATE
 35: 0x0A1F [0x01] GOTO 0x0A73
 36: 0x0A22 [0x02] IF !(ExtData[1]->WorkLocal[33] == 2*) GOTO 0x0A39
 37: 0x0A2A [0x47] UPDATE_PLAYER_POS(18.348*, 486.940*, -224.334*, yaw=17.1°*)
 38: 0x0A34 [0x47] WAIT_PLAYER_POS_UPDATE
 39: 0x0A36 [0x01] GOTO 0x0A73
 40: 0x0A39 [0x02] IF !(ExtData[1]->WorkLocal[33] == 3*) GOTO 0x0A50
 41: 0x0A41 [0x47] UPDATE_PLAYER_POS(231.593*, 360.094*, -173.572*, yaw=160.8°*)
 42: 0x0A4B [0x47] WAIT_PLAYER_POS_UPDATE
 43: 0x0A4D [0x01] GOTO 0x0A73
 44: 0x0A50 [0x02] IF !(ExtData[1]->WorkLocal[33] == 4*) GOTO 0x0A67
 45: 0x0A58 [0x47] UPDATE_PLAYER_POS(553.664*, 523.939*, -38.205*, yaw=233.9°*)
 46: 0x0A62 [0x47] WAIT_PLAYER_POS_UPDATE
 47: 0x0A64 [0x01] GOTO 0x0A73
 48: 0x0A67 [0x47] UPDATE_PLAYER_POS(-219.546*, 3.767*, -0.681*, yaw=85.5°*)
 49: 0x0A71 [0x47] WAIT_PLAYER_POS_UPDATE

SUBROUTINE_0A73:
 50: 0x0A73 [0x01] GOTO 0x0AF5
 51: 0x0A76 [0x02] IF !(ExtData[1]->WorkLocal[32] == 6*) GOTO 0x0AE9
 52: 0x0A7E [0x02] IF !(ExtData[1]->WorkLocal[33] == 1*) GOTO 0x0A95
 53: 0x0A86 [0x47] UPDATE_PLAYER_POS(-875.117*, -43.892*, -48.084*, yaw=45.1°*)
 54: 0x0A90 [0x47] WAIT_PLAYER_POS_UPDATE
 55: 0x0A92 [0x01] GOTO 0x0AE6
 56: 0x0A95 [0x02] IF !(ExtData[1]->WorkLocal[33] == 2*) GOTO 0x0AAC
 57: 0x0A9D [0x47] UPDATE_PLAYER_POS(-755.499*, 563.947*, -112.035*, yaw=313.5°*)
 58: 0x0AA7 [0x47] WAIT_PLAYER_POS_UPDATE
 59: 0x0AA9 [0x01] GOTO 0x0AE6
 60: 0x0AAC [0x02] IF !(ExtData[1]->WorkLocal[33] == 3*) GOTO 0x0AC3
 61: 0x0AB4 [0x47] UPDATE_PLAYER_POS(123.251*, 754.209*, -172.124*, yaw=38.7°*)
 62: 0x0ABE [0x47] WAIT_PLAYER_POS_UPDATE
 63: 0x0AC0 [0x01] GOTO 0x0AE6
 64: 0x0AC3 [0x02] IF !(ExtData[1]->WorkLocal[33] == 4*) GOTO 0x0ADA
 65: 0x0ACB [0x47] UPDATE_PLAYER_POS(-516.404*, -803.323*, 24.206*, yaw=38.4°*)
 66: 0x0AD5 [0x47] WAIT_PLAYER_POS_UPDATE
 67: 0x0AD7 [0x01] GOTO 0x0AE6
 68: 0x0ADA [0x47] UPDATE_PLAYER_POS(-219.546*, 3.767*, -0.681*, yaw=85.5°*)
 69: 0x0AE4 [0x47] WAIT_PLAYER_POS_UPDATE

SUBROUTINE_0AE6:
 70: 0x0AE6 [0x01] GOTO 0x0AF5
 71: 0x0AE9 [0x47] UPDATE_PLAYER_POS(-219.546*, 3.767*, -0.681*, yaw=85.5°*)
 72: 0x0AF3 [0x47] WAIT_PLAYER_POS_UPDATE

SUBROUTINE_0AF5:
 73: 0x0AF5 [0x38] SET_CLIENT_EVENT_MODE(mode=19*)
 74: 0x0AF8 [0x1A] CALL_SUBROUTINE(address=0x13CA)
 75: 0x0AFB [0x45] LOAD_SCHEDULED_TASK: Load scheduler "whi1" with entities [LocalPlayer, LocalPlayer], work=[201*, 0*]
 76: 0x0B0C [0x45] LOAD_SCHEDULED_TASK: Load scheduler "blof" with entities [LocalPlayer, LocalPlayer], work=[200*, 0*]
 77: 0x0B1D [0x5C] MUSIC_CONTROL: Set Idle (Day) music to song 0*
 78: 0x0B21 [0x5C] MUSIC_CONTROL: Set Idle (Night) music to song 0*
 79: 0x0B25 [0x5C] MUSIC_CONTROL: Set Combat (Solo) music to song 193*
 80: 0x0B29 [0x5C] MUSIC_CONTROL: Set Combat (Party) music to song 193*
 81: 0x0B2D [0x21] END_EVENT
 82: 0x0B2E [0x00] END_REQSTACK()
```

### Event 32001

#### Metadata

| Field        | Value      |
|--------------|------------|
| Entrypoint   | 0x0B2F     |
| Data Size    | 1033 bytes |
| Instructions | 177        |

```
      00 01 02 03 04 05 06 07  08 09 0A 0B 0C 0D 0E 0F
      -- -- -- -- -- -- -- --  -- -- -- -- -- -- -- --
0B20:                                               79                 y
0B30: 00 F0 FF FF 7F F0 FF FF  7F 03 21 00 02 10 03 1A  ..........!.....
0B40: 00 03 10 03 1B 00 05 10  03 20 00 06 10 03 19 00  ......... ......
0B50: 07 10 03 17 00 08 10 02  17 00 26 80 04 64 0B 03  ..........&..d..
0B60: 17 00 2F 80 03 1C 00 09  10 20 01 42 3B F0 FF FF  ../...... .B;...
0B70: 7F 20 10 21 10 22 10 3A  F0 FF FF 7F 23 10 02 20  . .!.".:....#.. 
0B80: 00 62 80 01 89 0B 1C 8B  80 45 5D 80 F0 FF FF 7F  .b.......E].....
0B90: F0 FF FF 7F 77 68 69 31  2F 80 45 3B 80 F0 FF FF  ....whi1/.E;....
0BA0: 7F F0 FF FF 7F 62 6C 6F  66 2F 80 45 3B 80 F0 FF  .....blof/.E;...
0BB0: FF 7F F0 FF FF 7F 66 64  6F 31 2F 80 55 3B 80 F0  ......fdo1/.U;..
0BC0: FF FF 7F F0 FF FF 7F 66  64 6F 31 6C F0 FF FF 7F  .......fdo1l....
0BD0: 8C 80 1C 80 06 01 10 02  17 00 2F 80 03 E2 0B 01  ........../.....
0BE0: 30 0D 02 20 00 62 80 80  6C 0C 02 21 00 2F 80 80  0.. .b..l..!./..
0BF0: 01 0C 47 00 8D 80 8E 80  8F 80 90 80 47 01 01 69  ..G.........G..i
0C00: 0C 02 21 00 1C 80 80 18  0C 47 00 91 80 92 80 93  ..!......G......
0C10: 80 94 80 47 01 01 69 0C  02 21 00 37 80 80 2F 0C  ...G..i..!.7../.
0C20: 47 00 95 80 96 80 97 80  98 80 47 01 01 69 0C 02  G.........G..i..
0C30: 21 00 26 80 80 46 0C 47  00 99 80 9A 80 9B 80 9C  !.&..F.G........
0C40: 80 47 01 01 69 0C 02 21  00 38 80 80 5D 0C 47 00  .G..i..!.8..].G.
0C50: 9D 80 9E 80 9F 80 A0 80  47 01 01 69 0C 47 00 A1  ........G..i.G..
0C60: 80 A2 80 A3 80 A4 80 47  01 01 30 0D 02 20 00 A5  .......G..0.. ..
0C70: 80 80 9A 0C 02 19 00 2F  80 80 8B 0C 47 00 A1 80  ......./....G...
0C80: A2 80 A3 80 A4 80 47 01  01 97 0C 47 00 A6 80 A7  ......G....G....
0C90: 80 2E 80 A8 80 47 01 01  30 0D 02 20 00 A9 80 80  .....G..0.. ....
0CA0: C8 0C 02 19 00 38 80 80  B9 0C 47 00 AA 80 AB 80  .....8....G.....
0CB0: AC 80 AD 80 47 01 01 C5  0C 47 00 A1 80 A2 80 A3  ....G....G......
0CC0: 80 A4 80 47 01 01 30 0D  02 20 00 AE 80 80 F6 0C  ...G..0.. ......
0CD0: 02 19 00 38 80 80 E7 0C  47 00 AF 80 B0 80 B1 80  ...8....G.......
0CE0: B2 80 47 01 01 F3 0C 47  00 A1 80 A2 80 A3 80 A4  ..G....G........
0CF0: 80 47 01 01 30 0D 02 20  00 B3 80 80 24 0D 02 19  .G..0.. ....$...
0D00: 00 26 80 80 15 0D 47 00  B4 80 B5 80 B6 80 B7 80  .&....G.........
0D10: 47 01 01 21 0D 47 00 A1  80 A2 80 A3 80 A4 80 47  G..!.G.........G
0D20: 01 01 30 0D 47 00 A1 80  A2 80 A3 80 A4 80 47 01  ..0.G.........G.
0D30: 38 3C 80 02 17 00 37 80  00 3E 0D 01 59 0D 02 17  8<....7..>..Y...
0D40: 00 1C 80 00 09 0E 1C 30  80 24 5A 80 1C 80 2F 80  .......0.$Z.../.
0D50: 25 02 00 10 2F 80 00 09  0E 02 20 00 62 80 00 C5  %.../..... .b...
0D60: 0D 02 21 00 2F 80 80 73  0D 36 8D 80 8E 80 8F 80  ..!./..s.6......
0D70: 01 C2 0D 02 21 00 1C 80  80 85 0D 36 91 80 92 80  ....!......6....
0D80: 93 80 01 C2 0D 02 21 00  37 80 80 97 0D 36 95 80  ......!.7....6..
0D90: 96 80 97 80 01 C2 0D 02  21 00 26 80 80 A9 0D 36  ........!.&....6
0DA0: 99 80 9A 80 9B 80 01 C2  0D 02 21 00 38 80 80 BB  ..........!.8...
0DB0: 0D 36 9D 80 9E 80 9F 80  01 C2 0D 36 A1 80 A2 80  .6.........6....
0DC0: A3 80 01 CE 0D 37 A1 80  A2 80 A3 80 A4 80 80 F0  .....7..........
0DD0: FF FF 7F 62 37 80 F0 FF  FF 7F F0 FF FF 7F 6D 61  ...b7.........ma
0DE0: 69 6E 2F 80 45 3B 80 F0  FF FF 7F F0 FF FF 7F 66  in/.E;.........f
0DF0: 64 69 32 2F 80 46 02 12  00 02 12 00 2F 80 00 03  di2/.F....../...
0E00: 0E 46 00 01 30 0E 01 09  0E 02 17 00 33 80 04 22  .F..0.......3.."
0E10: 0E 5C 00 5B 80 5C 01 5B  80 5C 02 5B 80 5C 03 5B  .\.[.\.[.\.[.\.[
0E20: 80 9A 1A A1 11 02 17 00  2F 80 03 30 0E 01 D0 0E  ......../..0....
0E30: 02 20 00 B8 80 80 3B 0E  01 3B 0E 02 20 00 47 80  . ....;..;.. .G.
0E40: 80 46 0E 01 D0 0E 02 20  00 3C 80 80 51 0E 01 D0  .F..... .<..Q...
0E50: 0E 02 20 00 4A 80 80 5C  0E 01 D0 0E 02 20 00 4C  .. .J..\..... .L
0E60: 80 80 67 0E 01 D0 0E 03  05 10 1B 00 02 05 10 2F  ..g............/
0E70: 80 02 D0 0E 02 05 10 56  80 04 8F 0E 3F 04 10 05  .......V....?...
0E80: 10 56 80 15 05 10 56 80  48 B9 80 23 01 93 0E 48  .V....V.H..#...H
0E90: BA 80 23 02 1B 00 1A 00  05 A7 0E 03 07 10 19 00  ..#.............
0EA0: 48 BB 80 23 01 D0 0E 02  1A 00 56 80 04 C7 0E 03  H..#......V.....
0EB0: 05 10 1A 00 3F 04 10 05  10 56 80 15 05 10 56 80  ....?....V....V.
0EC0: 48 BC 80 23 01 D0 0E 03  05 10 1A 00 48 BD 80 23  H..#........H..#
0ED0: 02 18 00 2F 80 00 E8 0E  5C 00 2F 80 5C 01 2F 80  .../....\./.\./.
0EE0: 5C 02 5B 80 5C 03 5B 80  02 17 00 2F 80 03 11 0F  \.[.\.[..../....
0EF0: 45 3B 80 F0 FF FF 7F F0  FF FF 7F 66 64 69 32 2F  E;.........fdi2/
0F00: 80 5C 00 2F 80 5C 01 2F  80 5C 02 5B 80 5C 03 5B  .\./.\./.\.[.\.[
0F10: 80 06 18 00 45 5D 80 F0  FF FF 7F F0 FF FF 7F 77  ....E].........w
0F20: 68 69 31 2F 80 45 3B 80  F0 FF FF 7F F0 FF FF 7F  hi1/.E;.........
0F30: 62 6C 6F 66 2F 80 21 00                           blof/.!.        
```

#### Opcodes

```
  0: 0x0B2F [0x79] LocalPlayer looks at LocalPlayer (Basic look)
  1: 0x0B39 [0x03] ExtData[1]->WorkLocal[33] = Work_Zone[2]
  2: 0x0B3E [0x03] ExtData[1]->WorkLocal[26] = Work_Zone[3]
  3: 0x0B43 [0x03] ExtData[1]->WorkLocal[27] = Work_Zone[5]
  4: 0x0B48 [0x03] ExtData[1]->WorkLocal[32] = Work_Zone[6]
  5: 0x0B4D [0x03] ExtData[1]->WorkLocal[25] = Work_Zone[7]
  6: 0x0B52 [0x03] ExtData[1]->WorkLocal[23] = Work_Zone[8]
  7: 0x0B57 [0x02] IF !(ExtData[1]->WorkLocal[23] < 3*) GOTO 0x0B64
  8: 0x0B5F [0x03] ExtData[1]->WorkLocal[23] = 0*
  9: 0x0B64 [0x03] ExtData[1]->WorkLocal[28] = Work_Zone[9]
 10: 0x0B69 [0x20] SET_CLI_EVENT_UC_FLAG: Lock player control
 11: 0x0B6B [0x42] SET_CLI_EVENT_CANCEL_DATA()
 12: 0x0B6C [0x3B] GET_ENTITY_POSITION(entity=LocalPlayer, x_destination=Work_Zone[32], y_destination=Work_Zone[33], z_destination=Work_Zone[34])
 13: 0x0B77 [0x3A] CONVERT_YAW_TO_BYTE(entity=LocalPlayer, result_destination=Work_Zone[35])
 14: 0x0B7E [0x02] IF !(ExtData[1]->WorkLocal[32] == 180*) GOTO 0x0B89
 15: 0x0B86 [0x1C] WAIT(300* ticks)
 16: 0x0B89 [0x45] LOAD_SCHEDULED_TASK: Load scheduler "whi1" with entities [LocalPlayer, LocalPlayer], work=[201*, 0*]
 17: 0x0B9A [0x45] LOAD_SCHEDULED_TASK: Load scheduler "blof" with entities [LocalPlayer, LocalPlayer], work=[200*, 0*]
 18: 0x0BAB [0x45] LOAD_SCHEDULED_TASK: Load scheduler "fdo1" with entities [LocalPlayer, LocalPlayer], work=[200*, 0*]
 19: 0x0BBC [0x55] WAIT_LOAD_SCHEDULER: Wait for scheduler "fdo1" with entities [LocalPlayer, LocalPlayer], work=200*
 20: 0x0BCB [0x6C] FADE_ENTITY_COLOR(entity_id=LocalPlayer, end_alpha=128*, fade_time=1*)
 21: 0x0BD4 [0x06] Work_Zone[1] = 0
 22: 0x0BD7 [0x02] IF !(ExtData[1]->WorkLocal[23] >= 0*) GOTO 0x0BE2
 23: 0x0BDF [0x01] GOTO 0x0D30
 24: 0x0BE2 [0x02] IF !(ExtData[1]->WorkLocal[32] == 180*) GOTO 0x0C6C
 25: 0x0BEA [0x02] IF !(ExtData[1]->WorkLocal[33] == 0*) GOTO 0x0C01
 26: 0x0BF2 [0x47] UPDATE_PLAYER_POS(-618.329*, -643.868*, -25.805*, yaw=330.5°*)
 27: 0x0BFC [0x47] WAIT_PLAYER_POS_UPDATE
 28: 0x0BFE [0x01] GOTO 0x0C69
 29: 0x0C01 [0x02] IF !(ExtData[1]->WorkLocal[33] == 1*) GOTO 0x0C18
 30: 0x0C09 [0x47] UPDATE_PLAYER_POS(-332.163*, -441.914*, -95.055*, yaw=330.5°*)
 31: 0x0C13 [0x47] WAIT_PLAYER_POS_UPDATE
 32: 0x0C15 [0x01] GOTO 0x0C69
 33: 0x0C18 [0x02] IF !(ExtData[1]->WorkLocal[33] == 2*) GOTO 0x0C2F
 34: 0x0C20 [0x47] UPDATE_PLAYER_POS(-12.464*, -648.377*, -194.629*, yaw=331.3°*)
 35: 0x0C2A [0x47] WAIT_PLAYER_POS_UPDATE
 36: 0x0C2C [0x01] GOTO 0x0C69
 37: 0x0C2F [0x02] IF !(ExtData[1]->WorkLocal[33] == 3*) GOTO 0x0C46
 38: 0x0C37 [0x47] UPDATE_PLAYER_POS(323.381*, -443.793*, -108.440*, yaw=329.1°*)
 39: 0x0C41 [0x47] WAIT_PLAYER_POS_UPDATE
 40: 0x0C43 [0x01] GOTO 0x0C69
 41: 0x0C46 [0x02] IF !(ExtData[1]->WorkLocal[33] == 4*) GOTO 0x0C5D
 42: 0x0C4E [0x47] UPDATE_PLAYER_POS(599.907*, -676.969*, -22.473*, yaw=330.7°*)
 43: 0x0C58 [0x47] WAIT_PLAYER_POS_UPDATE
 44: 0x0C5A [0x01] GOTO 0x0C69
 45: 0x0C5D [0x47] UPDATE_PLAYER_POS(199.961*, 2.674*, 0.574*, yaw=270.7°*)
 46: 0x0C67 [0x47] WAIT_PLAYER_POS_UPDATE

SUBROUTINE_0C69:
 47: 0x0C69 [0x01] GOTO 0x0D30
 48: 0x0C6C [0x02] IF !(ExtData[1]->WorkLocal[32] == 168*) GOTO 0x0C9A
 49: 0x0C74 [0x02] IF !(ExtData[1]->WorkLocal[25] == 0*) GOTO 0x0C8B
 50: 0x0C7C [0x47] UPDATE_PLAYER_POS(199.961*, 2.674*, 0.574*, yaw=270.7°*)
 51: 0x0C86 [0x47] WAIT_PLAYER_POS_UPDATE
 52: 0x0C88 [0x01] GOTO 0x0C97
 53: 0x0C8B [0x47] UPDATE_PLAYER_POS(200.059*, -21.958*, -0.250*, yaw=91.5°*)
 54: 0x0C95 [0x47] WAIT_PLAYER_POS_UPDATE

SUBROUTINE_0C97:
 55: 0x0C97 [0x01] GOTO 0x0D30
 56: 0x0C9A [0x02] IF !(ExtData[1]->WorkLocal[32] == 202*) GOTO 0x0CC8
 57: 0x0CA2 [0x02] IF !(ExtData[1]->WorkLocal[25] == 4*) GOTO 0x0CB9
 58: 0x0CAA [0x47] UPDATE_PLAYER_POS(538.604*, 501.900*, -13.942*, yaw=286.5°*)
 59: 0x0CB4 [0x47] WAIT_PLAYER_POS_UPDATE
 60: 0x0CB6 [0x01] GOTO 0x0CC5
 61: 0x0CB9 [0x47] UPDATE_PLAYER_POS(199.961*, 2.674*, 0.574*, yaw=270.7°*)
 62: 0x0CC3 [0x47] WAIT_PLAYER_POS_UPDATE

SUBROUTINE_0CC5:
 63: 0x0CC5 [0x01] GOTO 0x0D30
 64: 0x0CC8 [0x02] IF !(ExtData[1]->WorkLocal[32] == 203*) GOTO 0x0CF6
 65: 0x0CD0 [0x02] IF !(ExtData[1]->WorkLocal[25] == 4*) GOTO 0x0CE7
 66: 0x0CD8 [0x47] UPDATE_PLAYER_POS(553.205*, 589.633*, -0.021*, yaw=124.4°*)
 67: 0x0CE2 [0x47] WAIT_PLAYER_POS_UPDATE
 68: 0x0CE4 [0x01] GOTO 0x0CF3
 69: 0x0CE7 [0x47] UPDATE_PLAYER_POS(199.961*, 2.674*, 0.574*, yaw=270.7°*)
 70: 0x0CF1 [0x47] WAIT_PLAYER_POS_UPDATE

SUBROUTINE_0CF3:
 71: 0x0CF3 [0x01] GOTO 0x0D30
 72: 0x0CF6 [0x02] IF !(ExtData[1]->WorkLocal[32] == 211*) GOTO 0x0D24
 73: 0x0CFE [0x02] IF !(ExtData[1]->WorkLocal[25] == 3*) GOTO 0x0D15
 74: 0x0D06 [0x47] UPDATE_PLAYER_POS(569.224*, 548.462*, 36.837*, yaw=59.1°*)
 75: 0x0D10 [0x47] WAIT_PLAYER_POS_UPDATE
 76: 0x0D12 [0x01] GOTO 0x0D21
 77: 0x0D15 [0x47] UPDATE_PLAYER_POS(199.961*, 2.674*, 0.574*, yaw=270.7°*)
 78: 0x0D1F [0x47] WAIT_PLAYER_POS_UPDATE

SUBROUTINE_0D21:
 79: 0x0D21 [0x01] GOTO 0x0D30
 80: 0x0D24 [0x47] UPDATE_PLAYER_POS(199.961*, 2.674*, 0.574*, yaw=270.7°*)
 81: 0x0D2E [0x47] WAIT_PLAYER_POS_UPDATE

SUBROUTINE_0D30:
 82: 0x0D30 [0x38] SET_CLIENT_EVENT_MODE(mode=19*)
 83: 0x0D33 [0x02] IF !(ExtData[1]->WorkLocal[23] == 2*) GOTO 0x0D3E
 84: 0x0D3B [0x01] GOTO 0x0D59
 85: 0x0D3E [0x02] IF !(ExtData[1]->WorkLocal[23] == 1*) GOTO 0x0E09
 86: 0x0D46 [0x1C] WAIT(15* ticks)
 87: 0x0D49 [0x24] CREATE_DIALOG(message_id=7566*, default_option=1*, option_flags=0*)
    → "Skip the event? [Yes./No.]"
 88: 0x0D50 [0x25] WAIT_DIALOG_SELECT()
 89: 0x0D51 [0x02] IF !(Work_Zone[0] == 0*) GOTO 0x0E09

SUBROUTINE_0D59:
 90: 0x0D59 [0x02] IF !(ExtData[1]->WorkLocal[32] == 180*) GOTO 0x0DC5
 91: 0x0D61 [0x02] IF !(ExtData[1]->WorkLocal[33] == 0*) GOTO 0x0D73
 92: 0x0D69 [0x36] SET_ENTITY_EVENT_POSITION(pos_x=-618.329*, pos_z=-643.868*, pos_y=-25.805*)
 93: 0x0D70 [0x01] GOTO 0x0DC2
 94: 0x0D73 [0x02] IF !(ExtData[1]->WorkLocal[33] == 1*) GOTO 0x0D85
 95: 0x0D7B [0x36] SET_ENTITY_EVENT_POSITION(pos_x=-332.163*, pos_z=-441.914*, pos_y=-95.055*)
 96: 0x0D82 [0x01] GOTO 0x0DC2
 97: 0x0D85 [0x02] IF !(ExtData[1]->WorkLocal[33] == 2*) GOTO 0x0D97
 98: 0x0D8D [0x36] SET_ENTITY_EVENT_POSITION(pos_x=-12.464*, pos_z=-648.377*, pos_y=-194.629*)
 99: 0x0D94 [0x01] GOTO 0x0DC2
100: 0x0D97 [0x02] IF !(ExtData[1]->WorkLocal[33] == 3*) GOTO 0x0DA9
101: 0x0D9F [0x36] SET_ENTITY_EVENT_POSITION(pos_x=323.381*, pos_z=-443.793*, pos_y=-108.440*)
102: 0x0DA6 [0x01] GOTO 0x0DC2
103: 0x0DA9 [0x02] IF !(ExtData[1]->WorkLocal[33] == 4*) GOTO 0x0DBB
104: 0x0DB1 [0x36] SET_ENTITY_EVENT_POSITION(pos_x=599.907*, pos_z=-676.969*, pos_y=-22.473*)
105: 0x0DB8 [0x01] GOTO 0x0DC2
106: 0x0DBB [0x36] SET_ENTITY_EVENT_POSITION(pos_x=199.961*, pos_z=2.674*, pos_y=0.574*)

SUBROUTINE_0DC2:
107: 0x0DC2 [0x01] GOTO 0x0DCE
108: 0x0DC5 [0x37] UPDATE_EVENT_POSITION_AND_DIR: x=199.961*, z=2.674*, y=0.574*, direction=270.7°*

SUBROUTINE_0DCE:
109: 0x0DCE [0x80] LOAD_WAIT(entity=LocalPlayer)
110: 0x0DD3 [0x62] LOAD_EVENT_SCHEDULER: Load scheduler "main" with entities [LocalPlayer, LocalPlayer], work=[2*, 0*]
111: 0x0DE4 [0x45] LOAD_SCHEDULED_TASK: Load scheduler "fdi2" with entities [LocalPlayer, LocalPlayer], work=[200*, 0*]
112: 0x0DF5 [0x46] CAMERA_CONTROL: Query status
113: 0x0DF7 [0x12] 0x0200 = rand()
114: 0x0DFA [0x12] 0x2F00 = rand()
115: 0x0DFD [0x80] LOAD_WAIT(entity=Unknown NPC (ID: 1175323392/0x460E0300))
116: 0x0E02 [0x00] END_REQSTACK()

SUBROUTINE_0E09:
117: 0x0E09 [0x02] IF !(ExtData[1]->WorkLocal[23] < 4294967295*) GOTO 0x0E22
118: 0x0E11 [0x5C] MUSIC_CONTROL: Set Idle (Day) music to song 193*
119: 0x0E15 [0x5C] MUSIC_CONTROL: Set Idle (Night) music to song 193*
120: 0x0E19 [0x5C] MUSIC_CONTROL: Set Combat (Solo) music to song 193*
121: 0x0E1D [0x5C] MUSIC_CONTROL: Set Combat (Party) music to song 193*
122: 0x0E21 [0x9A] WAIT_MUSIC_SERVER()
123: 0x0E22 [0x1A] CALL_SUBROUTINE(address=0x11A1)
124: 0x0E25 [0x02] IF !(ExtData[1]->WorkLocal[23] >= 0*) GOTO 0x0E30
125: 0x0E2D [0x01] GOTO 0x0ED0

SUBROUTINE_0E30:
126: 0x0E30 [0x02] IF !(ExtData[1]->WorkLocal[32] == 36*) GOTO 0x0E3B
127: 0x0E38 [0x01] GOTO 0x0E3B

SUBROUTINE_0E3B:
128: 0x0E3B [0x02] IF !(ExtData[1]->WorkLocal[32] == 17*) GOTO 0x0E46
129: 0x0E43 [0x01] GOTO 0x0ED0
130: 0x0E46 [0x02] IF !(ExtData[1]->WorkLocal[32] == 19*) GOTO 0x0E51
131: 0x0E4E [0x01] GOTO 0x0ED0
132: 0x0E51 [0x02] IF !(ExtData[1]->WorkLocal[32] == 21*) GOTO 0x0E5C
133: 0x0E59 [0x01] GOTO 0x0ED0
134: 0x0E5C [0x02] IF !(ExtData[1]->WorkLocal[32] == 23*) GOTO 0x0E67
135: 0x0E64 [0x01] GOTO 0x0ED0
136: 0x0E67 [0x03] Work_Zone[5] = ExtData[1]->WorkLocal[27]
137: 0x0E6C [0x02] IF !(Work_Zone[5] <= 0*) GOTO 0x0ED0
138: 0x0E74 [0x02] IF !(Work_Zone[5] < 60*) GOTO 0x0E8F
139: 0x0E7C [0x3F] Work_Zone[4] = Work_Zone[5] % 60*
140: 0x0E83 [0x15] Work_Zone[5] /= 60*
141: 0x0E88 [0x48] [System] [7568*]:
    → "Battlefield clear time: $3 minute[/s], $2 second[/s]!"
142: 0x0E8B [0x23] WAIT_FOR_DIALOG_INTERACTION
143: 0x0E8C [0x01] GOTO 0x0E93
144: 0x0E8F [0x48] [System] [7567*]:
    → "Battlefield clear time: $3 second[/s]!"
145: 0x0E92 [0x23] WAIT_FOR_DIALOG_INTERACTION

SUBROUTINE_0E93:
146: 0x0E93 [0x02] IF !(ExtData[1]->WorkLocal[27] > ExtData[1]->WorkLocal[26]) GOTO 0x0EA7
147: 0x0E9B [0x03] Work_Zone[7] = ExtData[1]->WorkLocal[25]
148: 0x0EA0 [0x48] [System] [7601*]:
    → "You have broken the clear time record for "[Through the Quicksand Caves/Legion XI Comitatensis/Shattering Stars (SAM)/Shattering Stars (NIN)/Shattering Stars (DRG)/Cactuar Suave/Eye of the Storm/The Scarlet King/Roar! A Cat Burglar Bares Her Fangs/Dragon Scales/$26Legion XI Comitatensis]"!"
149: 0x0EA3 [0x23] WAIT_FOR_DIALOG_INTERACTION
150: 0x0EA4 [0x01] GOTO 0x0ED0
151: 0x0EA7 [0x02] IF !(ExtData[1]->WorkLocal[26] < 60*) GOTO 0x0EC7
152: 0x0EAF [0x03] Work_Zone[5] = ExtData[1]->WorkLocal[26]
153: 0x0EB4 [0x3F] Work_Zone[4] = Work_Zone[5] % 60*
154: 0x0EBB [0x15] Work_Zone[5] /= 60*
155: 0x0EC0 [0x48] [System] [7570*]:
    → "The current battlefield clear time record is $3 minute[/s] $2 second[/s]."
156: 0x0EC3 [0x23] WAIT_FOR_DIALOG_INTERACTION
157: 0x0EC4 [0x01] GOTO 0x0ED0
158: 0x0EC7 [0x03] Work_Zone[5] = ExtData[1]->WorkLocal[26]
159: 0x0ECC [0x48] [System] [7569*]:
    → "The current battlefield clear time record is $3 second[/s]."
160: 0x0ECF [0x23] WAIT_FOR_DIALOG_INTERACTION

SUBROUTINE_0ED0:
161: 0x0ED0 [0x02] IF !(ExtData[1]->WorkLocal[24] == 0*) GOTO 0x0EE8
162: 0x0ED8 [0x5C] MUSIC_CONTROL: Set Idle (Day) music to song 0*
163: 0x0EDC [0x5C] MUSIC_CONTROL: Set Idle (Night) music to song 0*
164: 0x0EE0 [0x5C] MUSIC_CONTROL: Set Combat (Solo) music to song 193*
165: 0x0EE4 [0x5C] MUSIC_CONTROL: Set Combat (Party) music to song 193*
166: 0x0EE8 [0x02] IF !(ExtData[1]->WorkLocal[23] >= 0*) GOTO 0x0F11
167: 0x0EF0 [0x45] LOAD_SCHEDULED_TASK: Load scheduler "fdi2" with entities [LocalPlayer, LocalPlayer], work=[200*, 0*]
168: 0x0F01 [0x5C] MUSIC_CONTROL: Set Idle (Day) music to song 0*
169: 0x0F05 [0x5C] MUSIC_CONTROL: Set Idle (Night) music to song 0*
170: 0x0F09 [0x5C] MUSIC_CONTROL: Set Combat (Solo) music to song 193*
171: 0x0F0D [0x5C] MUSIC_CONTROL: Set Combat (Party) music to song 193*
172: 0x0F11 [0x06] ExtData[1]->WorkLocal[24] = 0
173: 0x0F14 [0x45] LOAD_SCHEDULED_TASK: Load scheduler "whi1" with entities [LocalPlayer, LocalPlayer], work=[201*, 0*]
174: 0x0F25 [0x45] LOAD_SCHEDULED_TASK: Load scheduler "blof" with entities [LocalPlayer, LocalPlayer], work=[200*, 0*]
175: 0x0F36 [0x21] END_EVENT
176: 0x0F37 [0x00] END_REQSTACK()
```

#### Data or dead code:

```
# Dead code (unreachable instructions):
     0x0E03 [0x01] GOTO 0x0E30
     0x0E06 [0x01] GOTO 0x0E09
```

### Event 32003

#### Metadata

| Field        | Value      |
|--------------|------------|
| Entrypoint   | 0x0F38     |
| Data Size    | 2041 bytes |
| Instructions | 119        |

```
      00 01 02 03 04 05 06 07  08 09 0A 0B 0C 0D 0E 0F
      -- -- -- -- -- -- -- --  -- -- -- -- -- -- -- --
0F30:                          06 1D 00 06 1E 00 03 21          .......!
0F40: 00 06 10 03 20 00 07 10  03 1F 00 08 10 06 01 10  .... ...........
0F50: 1A 20 13 02 1D 00 1C 80  00 E9 10 42 03 01 10 37  . .........B...7
0F60: 80 43 00 43 01 03 01 10  26 80 43 00 43 01 1A 37  .C.C....&.C.C..7
0F70: 13 02 1E 00 1C 80 00 E9  10 45 3B 80 F0 FF FF 7F  .........E;.....
0F80: F0 FF FF 7F 66 64 6F 31  2F 80 55 3B 80 F0 FF FF  ....fdo1/.U;....
0F90: 7F F0 FF FF 7F 66 64 6F  31 03 01 10 38 80 02 20  .....fdo1...8.. 
0FA0: 00 62 80 80 28 10 02 21  00 2F 80 80 BD 0F 47 00  .b..(..!./....G.
0FB0: 63 80 64 80 65 80 66 80  47 01 01 25 10 02 21 00  c.d.e.f.G..%..!.
0FC0: 1C 80 80 D4 0F 47 00 67  80 68 80 69 80 6A 80 47  .....G.g.h.i.j.G
0FD0: 01 01 25 10 02 21 00 37  80 80 EB 0F 47 00 6B 80  ..%..!.7....G.k.
0FE0: 6C 80 6D 80 6E 80 47 01  01 25 10 02 21 00 26 80  l.m.n.G..%..!.&.
0FF0: 80 02 10 47 00 6F 80 70  80 71 80 72 80 47 01 01  ...G.o.p.q.r.G..
1000: 25 10 02 21 00 38 80 80  19 10 47 00 73 80 74 80  %..!.8....G.s.t.
1010: 75 80 76 80 47 01 01 25  10 47 00 77 80 78 80 79  u.v.G..%.G.w.x.y
1020: 80 7A 80 47 01 01 A7 10  02 20 00 43 80 80 9B 10  .z.G..... .C....
1030: 02 1F 00 1C 80 80 47 10  47 00 7B 80 7C 80 7D 80  ......G.G.{.|.}.
1040: 7E 80 47 01 01 98 10 02  1F 00 37 80 80 5E 10 47  ~.G.......7..^.G
1050: 00 7F 80 80 80 81 80 82  80 47 01 01 98 10 02 1F  .........G......
1060: 00 26 80 80 75 10 47 00  83 80 84 80 85 80 86 80  .&..u.G.........
1070: 47 01 01 98 10 02 1F 00  38 80 80 8C 10 47 00 87  G.......8....G..
1080: 80 88 80 89 80 8A 80 47  01 01 98 10 47 00 77 80  .......G....G.w.
1090: 78 80 79 80 7A 80 47 01  01 A7 10 47 00 77 80 78  x.y.z.G....G.w.x
10A0: 80 79 80 7A 80 47 01 38  3C 80 79 00 F0 FF FF 7F  .y.z.G.8<.y.....
10B0: F0 FF FF 7F 1A 3B 13 45  5D 80 F0 FF FF 7F F0 FF  .....;.E].......
10C0: FF 7F 77 68 69 31 2F 80  45 3B 80 F0 FF FF 7F F0  ..whi1/.E;......
10D0: FF FF 7F 62 6C 6F 66 2F  80 5C 00 2F 80 5C 01 2F  ...blof/.\./.\./
10E0: 80 5C 02 5B 80 5C 03 5B  80 21 00 24 39 80 1C 80  .\.[.\.[.!.$9...
10F0: 2F 80 25 02 00 10 2F 80  00 01 11 05 01 00 01 01  /.%.../.........
1100: 11 1B 1A 44 14 46 01 79  00 F0 FF FF 7F F0 FF FF  ...D.F.y........
1110: 7F 37 00 80 01 80 02 80  03 80 45 BE 80 F0 FF FF  .7........E.....
1120: 7F F0 FF FF 7F 73 67 30  67 2F 80 45 3B 80 F0 FF  .....sg0g/.E;...
1130: FF 7F F0 FF FF 7F 66 64  69 32 2F 80 32 04 80 1F  ......fdi2/.2...
1140: 00 05 80 06 80 07 80 1F  01 6F 4B F0 FF FF 7F 08  .........oK.....
1150: 80 1A 2B 15 1A 44 14 52  BE 80 F0 FF FF 7F F0 FF  ..+..D.R........
1160: FF 7F 73 67 30 67 02 03  00 2F 80 80 71 11 01 71  ..sg0g.../..q..q
1170: 11 37 BF 80 C0 80 1A 80  C1 80 45 BE 80 F0 FF FF  .7........E.....
1180: 7F F0 FF FF 7F 73 67 30  61 2F 80 1A 60 15 55 BE  .....sg0a/..`.U.
1190: 80 F0 FF FF 7F F0 FF FF  7F 73 67 30 61 46 00 1B  .........sg0aF..
11A0: 1B 1A 44 14 46 01 02 19  00 2F 80 80 14 12 37 20  ..D.F..../....7 
11B0: 80 21 80 22 80 23 80 1C  1C 80 45 BE 80 F0 FF FF  .!.".#....E.....
11C0: 7F F0 FF FF 7F 73 30 65  32 2F 80 45 3B 80 F0 FF  .....s0e2/.E;...
11D0: FF 7F F0 FF FF 7F 66 64  69 32 2F 80 32 04 80 1F  ......fdi2/.2...
11E0: 00 24 80 25 80 22 80 1F  01 6F 6E F8 FF FF 7F 26  .$.%."...on....&
11F0: 80 99 F8 FF FF 7F 1C 56  80 1A 2B 15 1A 44 14 52  .......V..+..D.R
1200: BE 80 F0 FF FF 7F F0 FF  FF 7F 73 30 65 32 1A F3  ..........s0e2..
1210: 12 01 F0 12 02 19 00 3D  80 80 61 12 03 01 10 36  .......=..a....6
1220: 80 43 00 43 01 02 02 10  1C 80 00 2F 12 30 1B 37  .C.C......./.0.7
1230: A6 80 A7 80 2E 80 A8 80  1C 1C 80 45 BE 80 F0 FF  ...........E....
1240: FF 7F F0 FF FF 7F 73 67  65 32 2F 80 1A 60 15 55  ......sge2/..`.U
1250: BE 80 F0 FF FF 7F F0 FF  FF 7F 73 67 65 32 01 F0  ..........sge2..
1260: 12 37 20 80 21 80 22 80  23 80 1C 1C 80 45 BE 80  .7 .!.".#....E..
1270: F0 FF FF 7F F0 FF FF 7F  73 30 65 32 2F 80 45 3B  ........s0e2/.E;
1280: 80 F0 FF FF 7F F0 FF FF  7F 66 64 69 32 2F 80 32  .........fdi2/.2
1290: 04 80 1F 00 24 80 25 80  22 80 1F 01 6F 6E F8 FF  ....$.%."...on..
12A0: FF 7F 26 80 99 F8 FF FF  7F 1C 56 80 1A 2B 15 1A  ..&.......V..+..
12B0: 44 14 52 BE 80 F0 FF FF  7F F0 FF FF 7F 73 30 65  D.R..........s0e
12C0: 32 37 A6 80 A7 80 2E 80  A8 80 1C 1C 80 45 BE 80  27...........E..
12D0: F0 FF FF 7F F0 FF FF 7F  73 67 65 32 2F 80 1A 60  ........sge2/..`
12E0: 15 55 BE 80 F0 FF FF 7F  F0 FF FF 7F 73 67 65 32  .U..........sge2
12F0: 46 00 1B 37 A1 80 A2 80  A3 80 A4 80 45 BE 80 F0  F..7........E...
1300: FF FF 7F F0 FF FF 7F 73  67 30 65 2F 80 1A 60 15  .......sg0e/..`.
1310: 55 BE 80 F0 FF FF 7F F0  FF FF 7F 73 67 30 65 1B  U..........sg0e.
1320: 24 C2 80 1C 80 2F 80 25  02 00 10 2F 80 00 36 13  $..../.%.../..6.
1330: 05 1D 00 01 36 13 1B 05  1E 00 1B 1A 44 14 46 01  ....6.......D.F.
1340: 37 18 80 19 80 1A 80 1B  80 1C 1C 80 45 BE 80 F0  7...........E...
1350: FF FF 7F F0 FF FF 7F 73  30 65 31 2F 80 45 3B 80  .......s0e1/.E;.
1360: F0 FF FF 7F F0 FF FF 7F  66 64 69 32 2F 80 32 04  ........fdi2/.2.
1370: 80 1F 00 1D 80 1E 80 1A  80 1F 01 6F 4B F8 FF FF  ...........oK...
1380: 7F 1F 80 6F 76 F8 FF FF  7F 1A 2B 15 52 BE 80 F0  ...ov.....+.R...
1390: FF FF 7F F0 FF FF 7F 73  30 65 31 37 77 80 78 80  .......s0e17w.x.
13A0: 79 80 7A 80 45 BE 80 F0  FF FF 7F F0 FF FF 7F 73  y.z.E..........s
13B0: 67 30 73 2F 80 1A 60 15  55 BE 80 F0 FF FF 7F F0  g0s/..`.U.......
13C0: FF FF 7F 73 67 30 73 46  00 1B 1A 44 14 46 01 37  ...sg0sF...D.F.7
13D0: 77 80 78 80 79 80 7A 80  45 BE 80 F0 FF FF 7F F0  w.x.y.z.E.......
13E0: FF FF 7F 73 67 30 73 2F  80 1A 60 15 55 BE 80 F0  ...sg0s/..`.U...
13F0: FF FF 7F F0 FF FF 7F 73  67 30 73 46 00 1B 02 03  .......sg0sF....
1400: 00 0E 80 80 22 14 03 08  17 C3 80 03 09 17 C4 80  ...."...........
1410: 03 0A 17 C5 80 03 0B 17  C6 80 03 0C 17 C7 80 01  ................
1420: 22 14 1B 45 3B 80 F0 FF  FF 7F F0 FF FF 7F 66 64  "..E;.........fd
1430: 69 30 2F 80 55 3B 80 F0  FF FF 7F F0 FF FF 7F 66  i0/.U;.........f
1440: 64 69 30 1B 45 3B 80 F0  FF FF 7F F0 FF FF 7F 66  di0.E;.........f
1450: 64 6F 30 2F 80 55 3B 80  F0 FF FF 7F F0 FF FF 7F  do0/.U;.........
1460: 66 64 6F 30 1B 45 3B 80  F0 FF FF 7F F0 FF FF 7F  fdo0.E;.........
1470: 66 64 69 31 2F 80 55 3B  80 F0 FF FF 7F F0 FF FF  fdi1/.U;........
1480: 7F 66 64 69 31 1B 45 3B  80 F0 FF FF 7F F0 FF FF  .fdi1.E;........
1490: 7F 66 64 6F 31 2F 80 55  3B 80 F0 FF FF 7F F0 FF  .fdo1/.U;.......
14A0: FF 7F 66 64 6F 31 1B 45  5D 80 F0 FF FF 7F F0 FF  ..fdo1.E].......
14B0: FF 7F 77 68 69 31 2F 80  55 5D 80 F0 FF FF 7F F0  ..whi1/.U]......
14C0: FF FF 7F 77 68 69 31 1B  45 5D 80 F0 FF FF 7F F0  ...whi1.E]......
14D0: FF FF 7F 77 68 6F 31 2F  80 55 5D 80 F0 FF FF 7F  ...who1/.U].....
14E0: F0 FF FF 7F 77 68 6F 31  1B 45 5D 80 F0 FF FF 7F  ....who1.E].....
14F0: F0 FF FF 7F 77 68 6F 32  2F 80 55 5D 80 F0 FF FF  ....who2/.U]....
1500: 7F F0 FF FF 7F 77 68 6F  32 1B 45 5D 80 F0 FF FF  .....who2.E]....
1510: 7F F0 FF FF 7F 77 68 6F  33 2F 80 55 5D 80 F0 FF  .....who3/.U]...
1520: FF 7F F0 FF FF 7F 77 68  6F 33 1B 62 1C 80 F0 FF  ......who3.b....
1530: FF 7F F0 FF FF 7F 6D 61  69 6E 2F 80 1C 27 80 45  ......main/..'.E
1540: 3B 80 F0 FF FF 7F F0 FF  FF 7F 66 64 6F 31 2F 80  ;.........fdo1/.
1550: 55 3B 80 F0 FF FF 7F F0  FF FF 7F 66 64 6F 31 1B  U;.........fdo1.
1560: 45 3B 80 F0 FF FF 7F F0  FF FF 7F 66 64 69 31 2F  E;.........fdi1/
1570: 80 62 37 80 F0 FF FF 7F  F0 FF FF 7F 6D 61 69 6E  .b7.........main
1580: 2F 80 1C 0D 80 55 3B 80  F0 FF FF 7F F0 FF FF 7F  /....U;.........
1590: 66 64 69 31 1B 45 3B 80  F0 FF FF 7F F0 FF FF 7F  fdi1.E;.........
15A0: 62 6C 6F 6E 2F 80 45 5D  80 F0 FF FF 7F F0 FF FF  blon/.E]........
15B0: 7F 62 6C 6F 6E 2F 80 1B  45 5D 80 F0 FF FF 7F F0  .blon/..E]......
15C0: FF FF 7F 77 68 69 30 2F  80 55 5D 80 F0 FF FF 7F  ...whi0/.U].....
15D0: F0 FF FF 7F 77 68 69 30  1B 45 5D 80 F0 FF FF 7F  ....whi0.E].....
15E0: F0 FF FF 7F 77 68 6F 30  2F 80 55 5D 80 F0 FF FF  ....who0/.U]....
15F0: 7F F0 FF FF 7F 77 68 6F  30 1B 45 C8 80 F0 FF FF  .....who0.E.....
1600: 7F F0 FF FF 7F 65 66 6F  6E 2F 80 55 C8 80 F0 FF  .....efon/.U....
1610: FF 7F F0 FF FF 7F 65 66  6F 6E 1B 45 3B 80 F0 FF  ......efon.E;...
1620: FF 7F F0 FF FF 7F 66 64  69 73 2F 80 1B 45 3B 80  ......fdis/..E;.
1630: F0 FF FF 7F F0 FF FF 7F  66 64 6F 73 2F 80 55 3B  ........fdos/.U;
1640: 80 F0 FF FF 7F F0 FF FF  7F 66 64 6F 73 1B 45 3B  .........fdos.E;
1650: 80 F0 FF FF 7F F0 FF FF  7F 66 64 69 66 2F 80 1B  .........fdif/..
1660: 45 3B 80 F0 FF FF 7F F0  FF FF 7F 66 64 6F 66 2F  E;.........fdof/
1670: 80 55 3B 80 F0 FF FF 7F  F0 FF FF 7F 66 64 6F 66  .U;.........fdof
1680: 1B 45 3B 80 F0 FF FF 7F  F0 FF FF 7F 66 64 69 70  .E;.........fdip
1690: 2F 80 1B 45 3B 80 F0 FF  FF 7F F0 FF FF 7F 66 64  /..E;.........fd
16A0: 6F 70 2F 80 55 3B 80 F0  FF FF 7F F0 FF FF 7F 66  op/.U;.........f
16B0: 64 6F 70 1B 02 00 00 1C  80 80 D3 16 03 09 00 BF  dop.............
16C0: 80 03 0A 00 C0 80 03 0B  00 1A 80 03 0C 00 C1 80  ................
16D0: 01 30 17 02 00 00 37 80  80 F2 16 03 09 00 C9 80  .0....7.........
16E0: 03 0A 00 CA 80 03 0B 00  CB 80 03 0C 00 CC 80 01  ................
16F0: 30 17 02 00 00 26 80 80  11 17 03 09 00 31 80 03  0....&.......1..
1700: 0A 00 CD 80 03 0B 00 CE  80 03 0C 00 CF 80 01 30  ...............0
1710: 17 02 00 00 38 80 80 30  17 03 09 00 2F 80 03 0A  ....8..0..../...
1720: 00 2F 80 03 0B 00 2F 80  03 0C 00 2F 80 01 30 17  ./..../..../..0.
1730: 1B                                                .               
```

#### Opcodes

```
  0: 0x0F38 [0x06] ExtData[1]->WorkLocal[29] = 0
  1: 0x0F3B [0x06] ExtData[1]->WorkLocal[30] = 0
  2: 0x0F3E [0x03] ExtData[1]->WorkLocal[33] = Work_Zone[6]
  3: 0x0F43 [0x03] ExtData[1]->WorkLocal[32] = Work_Zone[7]
  4: 0x0F48 [0x03] ExtData[1]->WorkLocal[31] = Work_Zone[8]
  5: 0x0F4D [0x06] Work_Zone[1] = 0
  6: 0x0F50 [0x1A] CALL_SUBROUTINE(address=0x1320)
  7: 0x0F53 [0x02] IF !(ExtData[1]->WorkLocal[29] == 1*) GOTO 0x10E9
  8: 0x0F5B [0x42] SET_CLI_EVENT_CANCEL_DATA()
  9: 0x0F5C [0x03] Work_Zone[1] = 2*
 10: 0x0F61 [0x43] SEND_EVENT_UPDATE: Send pending tag to server (packet 0x005B)
 11: 0x0F63 [0x43] SEND_EVENT_UPDATE: Check pending flag (skip if not pending)
 12: 0x0F65 [0x03] Work_Zone[1] = 3*
 13: 0x0F6A [0x43] SEND_EVENT_UPDATE: Send pending tag to server (packet 0x005B)
 14: 0x0F6C [0x43] SEND_EVENT_UPDATE: Check pending flag (skip if not pending)
 15: 0x0F6E [0x1A] CALL_SUBROUTINE(address=0x1337)
 16: 0x0F71 [0x02] IF !(ExtData[1]->WorkLocal[30] == 1*) GOTO 0x10E9
 17: 0x0F79 [0x45] LOAD_SCHEDULED_TASK: Load scheduler "fdo1" with entities [LocalPlayer, LocalPlayer], work=[200*, 0*]
 18: 0x0F8A [0x55] WAIT_LOAD_SCHEDULER: Wait for scheduler "fdo1" with entities [LocalPlayer, LocalPlayer], work=200*
 19: 0x0F99 [0x03] Work_Zone[1] = 4*
 20: 0x0F9E [0x02] IF !(ExtData[1]->WorkLocal[32] == 180*) GOTO 0x1028
 21: 0x0FA6 [0x02] IF !(ExtData[1]->WorkLocal[33] == 0*) GOTO 0x0FBD
 22: 0x0FAE [0x47] UPDATE_PLAYER_POS(-605.141*, 479.929*, -22.681*, yaw=87.2°*)
 23: 0x0FB8 [0x47] WAIT_PLAYER_POS_UPDATE
 24: 0x0FBA [0x01] GOTO 0x1025
 25: 0x0FBD [0x02] IF !(ExtData[1]->WorkLocal[33] == 1*) GOTO 0x0FD4
 26: 0x0FC5 [0x47] UPDATE_PLAYER_POS(-262.589*, 377.857*, -137.313*, yaw=305.3°*)
 27: 0x0FCF [0x47] WAIT_PLAYER_POS_UPDATE
 28: 0x0FD1 [0x01] GOTO 0x1025
 29: 0x0FD4 [0x02] IF !(ExtData[1]->WorkLocal[33] == 2*) GOTO 0x0FEB
 30: 0x0FDC [0x47] UPDATE_PLAYER_POS(18.348*, 486.940*, -224.334*, yaw=17.1°*)
 31: 0x0FE6 [0x47] WAIT_PLAYER_POS_UPDATE
 32: 0x0FE8 [0x01] GOTO 0x1025
 33: 0x0FEB [0x02] IF !(ExtData[1]->WorkLocal[33] == 3*) GOTO 0x1002
 34: 0x0FF3 [0x47] UPDATE_PLAYER_POS(231.593*, 360.094*, -173.572*, yaw=160.8°*)
 35: 0x0FFD [0x47] WAIT_PLAYER_POS_UPDATE
 36: 0x0FFF [0x01] GOTO 0x1025
 37: 0x1002 [0x02] IF !(ExtData[1]->WorkLocal[33] == 4*) GOTO 0x1019
 38: 0x100A [0x47] UPDATE_PLAYER_POS(553.664*, 523.939*, -38.205*, yaw=233.9°*)
 39: 0x1014 [0x47] WAIT_PLAYER_POS_UPDATE
 40: 0x1016 [0x01] GOTO 0x1025
 41: 0x1019 [0x47] UPDATE_PLAYER_POS(-219.546*, 3.767*, -0.681*, yaw=85.5°*)
 42: 0x1023 [0x47] WAIT_PLAYER_POS_UPDATE

SUBROUTINE_1025:
 43: 0x1025 [0x01] GOTO 0x10A7
 44: 0x1028 [0x02] IF !(ExtData[1]->WorkLocal[32] == 6*) GOTO 0x109B
 45: 0x1030 [0x02] IF !(ExtData[1]->WorkLocal[31] == 1*) GOTO 0x1047
 46: 0x1038 [0x47] UPDATE_PLAYER_POS(-875.117*, -43.892*, -48.084*, yaw=45.1°*)
 47: 0x1042 [0x47] WAIT_PLAYER_POS_UPDATE
 48: 0x1044 [0x01] GOTO 0x1098
 49: 0x1047 [0x02] IF !(ExtData[1]->WorkLocal[31] == 2*) GOTO 0x105E
 50: 0x104F [0x47] UPDATE_PLAYER_POS(-755.499*, 563.947*, -112.035*, yaw=313.5°*)
 51: 0x1059 [0x47] WAIT_PLAYER_POS_UPDATE
 52: 0x105B [0x01] GOTO 0x1098
 53: 0x105E [0x02] IF !(ExtData[1]->WorkLocal[31] == 3*) GOTO 0x1075
 54: 0x1066 [0x47] UPDATE_PLAYER_POS(123.251*, 754.209*, -172.124*, yaw=38.7°*)
 55: 0x1070 [0x47] WAIT_PLAYER_POS_UPDATE
 56: 0x1072 [0x01] GOTO 0x1098
 57: 0x1075 [0x02] IF !(ExtData[1]->WorkLocal[31] == 4*) GOTO 0x108C
 58: 0x107D [0x47] UPDATE_PLAYER_POS(-516.404*, -803.323*, 24.206*, yaw=38.4°*)
 59: 0x1087 [0x47] WAIT_PLAYER_POS_UPDATE
 60: 0x1089 [0x01] GOTO 0x1098
 61: 0x108C [0x47] UPDATE_PLAYER_POS(-219.546*, 3.767*, -0.681*, yaw=85.5°*)
 62: 0x1096 [0x47] WAIT_PLAYER_POS_UPDATE

SUBROUTINE_1098:
 63: 0x1098 [0x01] GOTO 0x10A7
 64: 0x109B [0x47] UPDATE_PLAYER_POS(-219.546*, 3.767*, -0.681*, yaw=85.5°*)
 65: 0x10A5 [0x47] WAIT_PLAYER_POS_UPDATE

SUBROUTINE_10A7:
 66: 0x10A7 [0x38] SET_CLIENT_EVENT_MODE(mode=19*)
 67: 0x10AA [0x79] LocalPlayer looks at LocalPlayer (Basic look)
 68: 0x10B4 [0x1A] CALL_SUBROUTINE(address=0x133B)
 69: 0x10B7 [0x45] LOAD_SCHEDULED_TASK: Load scheduler "whi1" with entities [LocalPlayer, LocalPlayer], work=[201*, 0*]
 70: 0x10C8 [0x45] LOAD_SCHEDULED_TASK: Load scheduler "blof" with entities [LocalPlayer, LocalPlayer], work=[200*, 0*]
 71: 0x10D9 [0x5C] MUSIC_CONTROL: Set Idle (Day) music to song 0*
 72: 0x10DD [0x5C] MUSIC_CONTROL: Set Idle (Night) music to song 0*
 73: 0x10E1 [0x5C] MUSIC_CONTROL: Set Combat (Solo) music to song 193*
 74: 0x10E5 [0x5C] MUSIC_CONTROL: Set Combat (Party) music to song 193*
 75: 0x10E9 [0x21] END_EVENT
 76: 0x10EA [0x00] END_REQSTACK()

SUBROUTINE_1320:
 77: 0x1320 [0x24] CREATE_DIALOG(message_id=7228*, default_option=1*, option_flags=0*)
    → "Leave the battlefield? [Run away./Stay.]"
 78: 0x1327 [0x25] WAIT_DIALOG_SELECT()
 79: 0x1328 [0x02] IF !(Work_Zone[0] == 0*) GOTO 0x1336
 80: 0x1330 [0x05] ExtData[1]->WorkLocal[29] = 1
 81: 0x1333 [0x01] GOTO 0x1336

SUBROUTINE_1336:
 82: 0x1336 [0x1B] RETURN

SUBROUTINE_1337:
 83: 0x1337 [0x05] ExtData[1]->WorkLocal[30] = 1
 84: 0x133A [0x1B] RETURN

SUBROUTINE_133B:
 85: 0x133B [0x1A] CALL_SUBROUTINE(address=0x1444)
 86: 0x133E [0x46] CAMERA_CONTROL: Disable user control
 87: 0x1340 [0x37] UPDATE_EVENT_POSITION_AND_DIR: x=0.051*, z=-303.423*, y=97.124*, direction=88.9°*
 88: 0x1349 [0x1C] WAIT(1* ticks)
 89: 0x134C [0x45] LOAD_SCHEDULED_TASK: Load scheduler "s0e1" with entities [LocalPlayer, LocalPlayer], work=[68*, 0*]
 90: 0x135D [0x45] LOAD_SCHEDULED_TASK: Load scheduler "fdi2" with entities [LocalPlayer, LocalPlayer], work=[200*, 0*]
 91: 0x136E [0x32] ExtData[1]->MainSpeed = 13* * 0.1
 92: 0x1371 [0x1F] MOVE_ENTITY: EventEntity moves to X=0.038*, Z=-306.303*, Y=97.124*
 93: 0x1379 [0x1F] MOVE_ENTITY: Update entity position (mode=1)
 94: 0x137B [0x6F] WAIT_FRAME_DELAY: Yield until WaitTime reaches zero
 95: 0x137C [0x4B] UPDATE_ENTITY_YAW(entity=EventEntity, yaw=16.9°*)
 96: 0x1383 [0x6F] WAIT_FRAME_DELAY: Yield until WaitTime reaches zero
 97: 0x1384 [0x76] CHECK_ENTITY_RENDER_FLAGS: Wait until EventEntity Render.Flags0 and Render.Flags3 conditions are met
 98: 0x1389 [0x1A] CALL_SUBROUTINE(address=0x152B)
 99: 0x138C [0x52] END_LOAD_SCHEDULER: End scheduler "s0e1" with entities [LocalPlayer, LocalPlayer], work=68*
100: 0x139B [0x37] UPDATE_EVENT_POSITION_AND_DIR: x=-219.546*, z=3.767*, y=-0.681*, direction=85.5°*
101: 0x13A4 [0x45] LOAD_SCHEDULED_TASK: Load scheduler "sg0s" with entities [LocalPlayer, LocalPlayer], work=[68*, 0*]
102: 0x13B5 [0x1A] CALL_SUBROUTINE(address=0x1560)
103: 0x13B8 [0x55] WAIT_LOAD_SCHEDULER: Wait for scheduler "sg0s" with entities [LocalPlayer, LocalPlayer], work=68*
104: 0x13C7 [0x46] CAMERA_CONTROL: Restore default settings
105: 0x13C9 [0x1B] RETURN

SUBROUTINE_1444:
106: 0x1444 [0x45] LOAD_SCHEDULED_TASK: Load scheduler "fdo0" with entities [LocalPlayer, LocalPlayer], work=[200*, 0*]
107: 0x1455 [0x55] WAIT_LOAD_SCHEDULER: Wait for scheduler "fdo0" with entities [LocalPlayer, LocalPlayer], work=200*
108: 0x1464 [0x1B] RETURN

SUBROUTINE_152B:
109: 0x152B [0x62] LOAD_EVENT_SCHEDULER: Load scheduler "main" with entities [LocalPlayer, LocalPlayer], work=[1*, 0*]
110: 0x153C [0x1C] WAIT(45* ticks)
111: 0x153F [0x45] LOAD_SCHEDULED_TASK: Load scheduler "fdo1" with entities [LocalPlayer, LocalPlayer], work=[200*, 0*]
112: 0x1550 [0x55] WAIT_LOAD_SCHEDULER: Wait for scheduler "fdo1" with entities [LocalPlayer, LocalPlayer], work=200*
113: 0x155F [0x1B] RETURN

SUBROUTINE_1560:
114: 0x1560 [0x45] LOAD_SCHEDULED_TASK: Load scheduler "fdi1" with entities [LocalPlayer, LocalPlayer], work=[200*, 0*]
115: 0x1571 [0x62] LOAD_EVENT_SCHEDULER: Load scheduler "main" with entities [LocalPlayer, LocalPlayer], work=[2*, 0*]
116: 0x1582 [0x1C] WAIT(30* ticks)
117: 0x1585 [0x55] WAIT_LOAD_SCHEDULER: Wait for scheduler "fdi1" with entities [LocalPlayer, LocalPlayer], work=200*
118: 0x1594 [0x1B] RETURN
```

#### Data or dead code:

```
# Dead code (unreachable instructions):
     0x10EB [0x24] CREATE_DIALOG(message_id=7227*, default_option=1*, option_flags=0*)
    → "Enter the battlefield? [Enter./Decline.]"
     0x10F2 [0x25] WAIT_DIALOG_SELECT()
     0x10F3 [0x02] IF !(Work_Zone[0] == 0*) GOTO 0x1101
     0x10FB [0x05] ExtData[1]->WorkLocal[1] = 1
     0x10FE [0x01] GOTO 0x1101
     0x1101 [0x1B] RETURN
     0x1102 [0x1A] CALL_SUBROUTINE(address=0x1444)
     0x1105 [0x46] CAMERA_CONTROL: Disable user control
     0x1107 [0x79] LocalPlayer looks at LocalPlayer (Basic look)
     0x1111 [0x37] UPDATE_EVENT_POSITION_AND_DIR: x=-220.027*, z=18.401*, y=-2.082*, direction=272.0°*
     0x111A [0x45] LOAD_SCHEDULED_TASK: Load scheduler "sg0g" with entities [LocalPlayer, LocalPlayer], work=[68*, 0*]
     0x112B [0x45] LOAD_SCHEDULED_TASK: Load scheduler "fdi2" with entities [LocalPlayer, LocalPlayer], work=[200*, 0*]
     0x113C [0x32] ExtData[1]->MainSpeed = 13* * 0.1
     0x113F [0x1F] MOVE_ENTITY: EventEntity moves to X=-220.030*, Z=22.946*, Y=-1.882*
     0x1147 [0x1F] MOVE_ENTITY: Update entity position (mode=1)
     0x1149 [0x6F] WAIT_FRAME_DELAY: Yield until WaitTime reaches zero
     0x114A [0x4B] UPDATE_ENTITY_YAW(entity=LocalPlayer, yaw=5.5°*)
     0x1151 [0x1A] CALL_SUBROUTINE(address=0x152B)
     0x1154 [0x1A] CALL_SUBROUTINE(address=0x1444)
     0x1157 [0x52] END_LOAD_SCHEDULER: End scheduler "sg0g" with entities [LocalPlayer, LocalPlayer], work=68*
     0x1166 [0x02] IF !(ExtData[1]->WorkLocal[3] == 0*) GOTO 0x1171
     0x116E [0x01] GOTO 0x1171
     0x1171 [0x37] UPDATE_EVENT_POSITION_AND_DIR: x=-0.039*, z=-306.483*, y=97.124*, direction=270.2°*
     0x117A [0x45] LOAD_SCHEDULED_TASK: Load scheduler "sg0a" with entities [LocalPlayer, LocalPlayer], work=[68*, 0*]
     0x118B [0x1A] CALL_SUBROUTINE(address=0x1560)
     0x118E [0x55] WAIT_LOAD_SCHEDULER: Wait for scheduler "sg0a" with entities [LocalPlayer, LocalPlayer], work=68*
     0x119D [0x46] CAMERA_CONTROL: Restore default settings
     0x119F [0x1B] RETURN
     0x11A0 [0x1B] RETURN
     0x11A1 [0x1A] CALL_SUBROUTINE(address=0x1444)
     0x11A4 [0x46] CAMERA_CONTROL: Disable user control
     0x11A6 [0x02] IF !(ExtData[1]->WorkLocal[25] == 0*) GOTO 0x1214
     0x11AE [0x37] UPDATE_EVENT_POSITION_AND_DIR: x=0.011*, z=-227.258*, y=97.999*, direction=268.9°*
     0x11B7 [0x1C] WAIT(1* ticks)
     0x11BA [0x45] LOAD_SCHEDULED_TASK: Load scheduler "s0e2" with entities [LocalPlayer, LocalPlayer], work=[68*, 0*]
     0x11CB [0x45] LOAD_SCHEDULED_TASK: Load scheduler "fdi2" with entities [LocalPlayer, LocalPlayer], work=[200*, 0*]
     0x11DC [0x32] ExtData[1]->MainSpeed = 13* * 0.1
     0x11DF [0x1F] MOVE_ENTITY: EventEntity moves to X=-0.027*, Z=-225.567*, Y=97.999*
     0x11E7 [0x1F] MOVE_ENTITY: Update entity position (mode=1)
     0x11E9 [0x6F] WAIT_FRAME_DELAY: Yield until WaitTime reaches zero
     0x11EA [0x6E] EventEntity uses emote 3*
     0x11F1 [0x99] Wait for EventEntity animation to complete
     0x11F6 [0x1C] WAIT(60* ticks)
     0x11F9 [0x1A] CALL_SUBROUTINE(address=0x152B)
     0x11FC [0x1A] CALL_SUBROUTINE(address=0x1444)
     0x11FF [0x52] END_LOAD_SCHEDULER: End scheduler "s0e2" with entities [LocalPlayer, LocalPlayer], work=68*
     0x120E [0x1A] CALL_SUBROUTINE(address=0x12F3)
     0x1211 [0x01] GOTO 0x12F0
     0x1214 [0x02] IF !(ExtData[1]->WorkLocal[25] == 8*) GOTO 0x1261
     0x121C [0x03] Work_Zone[1] = 5*
     0x1221 [0x43] SEND_EVENT_UPDATE: Send pending tag to server (packet 0x005B)
     0x1223 [0x43] SEND_EVENT_UPDATE: Check pending flag (skip if not pending)
     0x1225 [0x02] IF !(Work_Zone[2] == 1*) GOTO 0x122F
     0x122D [0x30] SET_UCOFF_CONTINUE_ZERO()
     0x122E [0x1B] RETURN
