# Event 65535

## Metadata

| Field           | Value    |
|-----------------|----------|
| Event Index     | 50/59    |
| Offset          | 0x0875   |
| Data Size       | 48 bytes |
| Calculated Size | 48 bytes |
| Instructions    | 11       |

```
      00 01 02 03 04 05 06 07  08 09 0A 0B 0C 0D 0E 0F
      -- -- -- -- -- -- -- --  -- -- -- -- -- -- -- --
0870:                02 04 00  83 80 01 A4 08 32 69 80       ........2i.
0880: 1F 00 A9 80 AA 80 AB 80  1F 01 1C 09 80 1F 00 AC  ................
0890: 80 AD 80 AE 80 1F 01 1F  00 AF 80 B0 80 B1 80 1F  ................
08A0: 01 01 75 08 00                                    ..u..           
```

## Opcodes

```
  0: 0x0875 [0x02] IF !(ExtData[1]->WorkLocal[4] == 1*) GOTO 0x08A4
  1: 0x087D [0x32] ExtData[1]->MainSpeed = 15* * 0.1
  2: 0x0880 [0x1F] MOVE_ENTITY: EventEntity moves to X=-604.743*, Z=600.818*, Y=0.035*
  3: 0x0888 [0x1F] MOVE_ENTITY: Update entity position (mode=1)
  4: 0x088A [0x1C] WAIT(60* ticks)
  5: 0x088D [0x1F] MOVE_ENTITY: EventEntity moves to X=-608.317*, Z=600.631*, Y=0.214*
  6: 0x0895 [0x1F] MOVE_ENTITY: Update entity position (mode=1)
  7: 0x0897 [0x1F] MOVE_ENTITY: EventEntity moves to X=-606.086*, Z=601.808*, Y=0.102*
  8: 0x089F [0x1F] MOVE_ENTITY: Update entity position (mode=1)
  9: 0x08A1 [0x01] GOTO 0x0875

SUBROUTINE_08A4:
 10: 0x08A4 [0x00] END_REQSTACK()
```
