# Event 65535

## Metadata

| Field           | Value    |
|-----------------|----------|
| Event Index     | 56/59    |
| Offset          | 0x091F   |
| Data Size       | 67 bytes |
| Calculated Size | 67 bytes |
| Instructions    | 15       |

```
      00 01 02 03 04 05 06 07  08 09 0A 0B 0C 0D 0E 0F
      -- -- -- -- -- -- -- --  -- -- -- -- -- -- -- --
0910:                                               32                 2
0920: C7 80 1F 00 C8 80 C9 80  CA 80 1F 01 4B 4A 10 0F  ............KJ..
0930: 01 CB 80 1C 09 80 1F 00  CC 80 CD 80 CE 80 1F 01  ................
0940: 4B 4A 10 0F 01 CF 80 1C  D0 80 1F 00 D1 80 D2 80  KJ..............
0950: D3 80 1F 01 1C 19 80 4B  4A 10 0F 01 D4 80 1C 09  .......KJ.......
0960: 80 00                                             ..              
```

## Opcodes

```
  0: 0x091F [0x32] ExtData[1]->MainSpeed = 45* * 0.1
  1: 0x0922 [0x1F] MOVE_ENTITY: EventEntity moves to X=-599.295*, Z=590.678*, Y=0.264*
  2: 0x092A [0x1F] MOVE_ENTITY: Update entity position (mode=1)
  3: 0x092C [0x4B] UPDATE_ENTITY_YAW(entity=Unnamed NPC (ID: 17764426/0x010F104A), yaw=5.27°*)
  4: 0x0933 [0x1C] WAIT(60* ticks)
  5: 0x0936 [0x1F] MOVE_ENTITY: EventEntity moves to X=-604.353*, Z=586.292*, Y=0.138*
  6: 0x093E [0x1F] MOVE_ENTITY: Update entity position (mode=1)
  7: 0x0940 [0x4B] UPDATE_ENTITY_YAW(entity=Unnamed NPC (ID: 17764426/0x010F104A), yaw=0.20°*)
  8: 0x0947 [0x1C] WAIT(240* ticks)
  9: 0x094A [0x1F] MOVE_ENTITY: EventEntity moves to X=-600.328*, Z=582.410*, Y=0.802*
 10: 0x0952 [0x1F] MOVE_ENTITY: Update entity position (mode=1)
 11: 0x0954 [0x1C] WAIT(30* ticks)
 12: 0x0957 [0x4B] UPDATE_ENTITY_YAW(entity=Unnamed NPC (ID: 17764426/0x010F104A), yaw=16.63°*)
 13: 0x095E [0x1C] WAIT(60* ticks)
 14: 0x0961 [0x00] END_REQSTACK()
```
