# Event 65535

## Metadata

| Field           | Value    |
|-----------------|----------|
| Event Index     | 17/59    |
| Offset          | 0x010C   |
| Data Size       | 57 bytes |
| Calculated Size | 57 bytes |
| Instructions    | 9        |

```
      00 01 02 03 04 05 06 07  08 09 0A 0B 0C 0D 0E 0F
      -- -- -- -- -- -- -- --  -- -- -- -- -- -- -- --
0100:                                      32 14 80 1F              2...
0110: 00 15 80 16 80 17 80 1F  01 4B 4A 10 0F 01 18 80  .........KJ.....
0120: 1C 19 80 5B 1A 80 4A 10  0F 01 4A 10 0F 01 6A 6F  ...[..J...J...jo
0130: 79 30 5B 1B 80 4A 10 0F  01 4A 10 0F 01 31 30 31  y0[..J...J...101
0140: 31 1C 09 80 00                                    1....           
```

## Opcodes

```
  0: 0x010C [0x32] ExtData[1]->MainSpeed = 25* * 0.1
  1: 0x010F [0x1F] MOVE_ENTITY: EventEntity moves to X=-21.755*, Z=54.271*, Y=-4.250*
  2: 0x0117 [0x1F] MOVE_ENTITY: Update entity position (mode=1)
  3: 0x0119 [0x4B] UPDATE_ENTITY_YAW(entity=Unnamed NPC (ID: 17764426/0x010F104A), yaw=18.56°*)
  4: 0x0120 [0x1C] WAIT(30* ticks)
  5: 0x0123 [0x5B] LOAD_EXT_SCHEDULER: Load scheduler "joy0" with entities [Unnamed NPC (ID: 17764426/0x010F104A), Unnamed NPC (ID: 17764426/0x010F104A)], work=222*
  6: 0x0132 [0x5B] LOAD_EXT_SCHEDULER: Load scheduler "1011" with entities [Unnamed NPC (ID: 17764426/0x010F104A), Unnamed NPC (ID: 17764426/0x010F104A)], work=224*
  7: 0x0141 [0x1C] WAIT(60* ticks)
  8: 0x0144 [0x00] END_REQSTACK()
```
