# Event 65535

## Metadata

| Field           | Value    |
|-----------------|----------|
| Event Index     | 39/59    |
| Offset          | 0x05F5   |
| Data Size       | 70 bytes |
| Calculated Size | 70 bytes |
| Instructions    | 12       |

```
      00 01 02 03 04 05 06 07  08 09 0A 0B 0C 0D 0E 0F
      -- -- -- -- -- -- -- --  -- -- -- -- -- -- -- --
05F0:                32 69 80  1F 00 7B 80 7C 80 7D 80       2i...{.|.}.
0600: 1F 01 4B 4A 10 0F 01 7E  80 1C 09 80 1E F0 FF FF  ..KJ...~........
0610: 7F 1C 19 80 5B 0A 80 4A  10 0F 01 4A 10 0F 01 6E  ....[..J...J...n
0620: 61 6B 30 1C 6D 80 45 6E  80 F0 FF FF 7F F0 FF FF  ak0.m.En........
0630: 7F 6E 61 6B 32 04 80 1C  5E 80 00                 .nak2...^..     
```

## Opcodes

```
  0: 0x05F5 [0x32] ExtData[1]->MainSpeed = 15* * 0.1
  1: 0x05F8 [0x1F] MOVE_ENTITY: EventEntity moves to X=662.704*, Z=-418.496*, Y=0.112*
  2: 0x0600 [0x1F] MOVE_ENTITY: Update entity position (mode=1)
  3: 0x0602 [0x4B] UPDATE_ENTITY_YAW(entity=Unnamed NPC (ID: 17764426/0x010F104A), yaw=7.58°*)
  4: 0x0609 [0x1C] WAIT(60* ticks)
  5: 0x060C [0x1E] EventEntity looks at LocalPlayer and starts talking
  6: 0x0611 [0x1C] WAIT(30* ticks)
  7: 0x0614 [0x5B] LOAD_EXT_SCHEDULER(work_offset=223*, entity1=Unnamed NPC (ID: 17764426/0x010F104A), entity2=Unnamed NPC (ID: 17764426/0x010F104A), action="nak0")
  8: 0x0623 [0x1C] WAIT(10* ticks)
  9: 0x0626 [0x45] LOAD_SCHEDULED_TASK(work_offset1=144*, entity1=LocalPlayer, entity2=LocalPlayer, scheduler_id="nak2", work_offset2=0*)
 10: 0x0637 [0x1C] WAIT(90* ticks)
 11: 0x063A [0x00] END_REQSTACK()
```
