# Event 65535

## Metadata

| Field           | Value    |
|-----------------|----------|
| Event Index     | 35/59    |
| Offset          | 0x055F   |
| Data Size       | 60 bytes |
| Calculated Size | 60 bytes |
| Instructions    | 10       |

```
      00 01 02 03 04 05 06 07  08 09 0A 0B 0C 0D 0E 0F
      -- -- -- -- -- -- -- --  -- -- -- -- -- -- -- --
0550:                                               32                 2
0560: 69 80 1F 00 6A 80 6B 80  6C 80 1F 01 1E F0 FF FF  i...j.k.l.......
0570: 7F 1C 19 80 5B 0A 80 4A  10 0F 01 4A 10 0F 01 6E  ....[..J...J...n
0580: 61 6B 30 1C 6D 80 45 6E  80 F0 FF FF 7F F0 FF FF  ak0.m.En........
0590: 7F 6E 61 6B 32 04 80 1C  5E 80 00                 .nak2...^..     
```

## Opcodes

```
  0: 0x055F [0x32] ExtData[1]->MainSpeed = 15* * 0.1
  1: 0x0562 [0x1F] MOVE_ENTITY: EventEntity moves to X=-21.253*, Z=-134.145*, Y=1.419*
  2: 0x056A [0x1F] MOVE_ENTITY: Update entity position (mode=1)
  3: 0x056C [0x1E] EventEntity looks at LocalPlayer and starts talking
  4: 0x0571 [0x1C] WAIT(30* ticks)
  5: 0x0574 [0x5B] LOAD_EXT_SCHEDULER(work_offset=223*, entity1=Unnamed NPC (ID: 17764426/0x010F104A), entity2=Unnamed NPC (ID: 17764426/0x010F104A), action="nak0")
  6: 0x0583 [0x1C] WAIT(10* ticks)
  7: 0x0586 [0x45] LOAD_SCHEDULED_TASK(work_offset1=144*, entity1=LocalPlayer, entity2=LocalPlayer, scheduler_id="nak2", work_offset2=0*)
  8: 0x0597 [0x1C] WAIT(90* ticks)
  9: 0x059A [0x00] END_REQSTACK()
```
