# Event 65535

## Metadata

| Field           | Value    |
|-----------------|----------|
| Event Index     | 37/59    |
| Offset          | 0x05A5   |
| Data Size       | 70 bytes |
| Calculated Size | 70 bytes |
| Instructions    | 12       |

```
      00 01 02 03 04 05 06 07  08 09 0A 0B 0C 0D 0E 0F
      -- -- -- -- -- -- -- --  -- -- -- -- -- -- -- --
05A0:                32 69 80  1F 00 73 80 74 80 75 80       2i...s.t.u.
05B0: 1F 01 4B 4A 10 0F 01 76  80 1C 09 80 1E F0 FF FF  ..KJ...v........
05C0: 7F 1C 19 80 5B 0A 80 4A  10 0F 01 4A 10 0F 01 6E  ....[..J...J...n
05D0: 61 6B 30 1C 6D 80 45 6E  80 F0 FF FF 7F F0 FF FF  ak0.m.En........
05E0: 7F 6E 61 6B 32 04 80 1C  5E 80 00                 .nak2...^..     
```

## Opcodes

```
  0: 0x05A5 [0x32] ExtData[1]->MainSpeed = 15* * 0.1
  1: 0x05A8 [0x1F] MOVE_ENTITY: EventEntity moves to X=143.485*, Z=-166.896*, Y=-13.580*
  2: 0x05B0 [0x1F] MOVE_ENTITY: Update entity position (mode=1)
  3: 0x05B2 [0x4B] UPDATE_ENTITY_YAW(entity=Unnamed NPC (ID: 17764426/0x010F104A), yaw=20.84°*)
  4: 0x05B9 [0x1C] WAIT(60* ticks)
  5: 0x05BC [0x1E] EventEntity looks at LocalPlayer and starts talking
  6: 0x05C1 [0x1C] WAIT(30* ticks)
  7: 0x05C4 [0x5B] LOAD_EXT_SCHEDULER: Load scheduler "nak0" with entities [Unnamed NPC (ID: 17764426/0x010F104A), Unnamed NPC (ID: 17764426/0x010F104A)], work=223*
  8: 0x05D3 [0x1C] WAIT(10* ticks)
  9: 0x05D6 [0x45] LOAD_SCHEDULED_TASK: Load scheduler "nak2" with entities [LocalPlayer, LocalPlayer], work=[144*, 0*]
 10: 0x05E7 [0x1C] WAIT(90* ticks)
 11: 0x05EA [0x00] END_REQSTACK()
```
