# Event 2048

## Metadata

| Field           | Value    |
|-----------------|----------|
| Event Index     | 5/5      |
| Offset          | 0x0031   |
| Data Size       | 71 bytes |
| Calculated Size | 71 bytes |
| Instructions    | 7        |

```
      00 01 02 03 04 05 06 07  08 09 0A 0B 0C 0D 0E 0F
      -- -- -- -- -- -- -- --  -- -- -- -- -- -- -- --
0030:    30 42 45 02 80 F0 FF  FF 7F F0 FF FF 7F 66 64   0BE..........fd
0040: 6F 30 03 80 55 02 80 F0  FF FF 7F F0 FF FF 7F 66  o0..U..........f
0050: 64 6F 30 21 00 30 42 45  02 80 F0 FF FF 7F F0 FF  do0!.0BE........
0060: FF 7F 66 64 6F 32 03 80  55 02 80 F0 FF FF 7F F0  ..fdo2..U.......
0070: FF FF 7F 66 64 6F 32 1B                           ...fdo2.        
```

## Opcodes

```
  0: 0x0031 [0x30] SET_UCOFF_CONTINUE_ZERO()
  1: 0x0032 [0x42] SET_CLI_EVENT_CANCEL_DATA()
  2: 0x0033 [0x45] LOAD_SCHEDULED_TASK: Load scheduler "fdo0" with entities [LocalPlayer, LocalPlayer], work=[200*, 0*]
  3: 0x0044 [0x55] WAIT_LOAD_SCHEDULER: Wait for scheduler "fdo0" with entities [LocalPlayer, LocalPlayer], work=200*
  4: 0x0053 [0x21] END_EVENT
  5: 0x0054 [0x00] END_REQSTACK()
```

## Data or dead code:

```
# Data Section: 0x0055 (35 bytes)
     0x0055: 30 42 45 02 80 F0 FF FF 7F F0 FF FF 7F 66 64 6F
     0x0065: 32 03 80 55 02 80 F0 FF FF 7F F0 FF FF 7F 66 64
     0x0075: 6F 32 1B
```