# Event 65535

## Metadata

| Field           | Value    |
|-----------------|----------|
| Event Index     | 29/41    |
| Offset          | 0x054C   |
| Data Size       | 45 bytes |
| Calculated Size | 45 bytes |
| Instructions    | 13       |

```
      00 01 02 03 04 05 06 07  08 09 0A 0B 0C 0D 0E 0F
      -- -- -- -- -- -- -- --  -- -- -- -- -- -- -- --
0540:                                      32 1C 80 1F              2...
0550: 00 68 80 69 80 03 80 1F  01 1C 53 80 39 6A 80 1C  .h.i......S.9j..
0560: 6B 80 1F 00 6C 80 6D 80  03 80 1F 01 1C 53 80 39  k...l.m......S.9
0570: 6E 80 1C 6B 80 01 4C 05  00                       n..k..L..       
```

## Opcodes

```
  0: 0x054C [0x32] ExtData[1]->MainSpeed = 13* * 0.1
  1: 0x054F [0x1F] MOVE_ENTITY: EventEntity moves to X=-96.584*, Z=-8.519*, Y=0.000*
  2: 0x0557 [0x1F] MOVE_ENTITY: Update entity position (mode=1)
  3: 0x0559 [0x1C] WAIT(30* ticks)
  4: 0x055C [0x39] SET_ENTITY_DIRECTION(direction=19.7°*)
  5: 0x055F [0x1C] WAIT(360* ticks)
  6: 0x0562 [0x1F] MOVE_ENTITY: EventEntity moves to X=-96.241*, Z=8.872*, Y=0.000*
  7: 0x056A [0x1F] MOVE_ENTITY: Update entity position (mode=1)
  8: 0x056C [0x1C] WAIT(30* ticks)
  9: 0x056F [0x39] SET_ENTITY_DIRECTION(direction=2.8°*)
 10: 0x0572 [0x1C] WAIT(360* ticks)
 11: 0x0575 [0x01] GOTO 0x054C
```

## Data or dead code:

```
# Dead code (unreachable instructions):
     0x0578 [0x00] END_REQSTACK()
```