# Event 65535

## Metadata

| Field           | Value    |
|-----------------|----------|
| Event Index     | 41/41    |
| Offset          | 0x0701   |
| Data Size       | 58 bytes |
| Calculated Size | 58 bytes |
| Instructions    | 11       |

```
      00 01 02 03 04 05 06 07  08 09 0A 0B 0C 0D 0E 0F
      -- -- -- -- -- -- -- --  -- -- -- -- -- -- -- --
0700:    32 1C 80 79 00 3E 60  0F 01 28 60 0F 01 1F 00   2..y.>`..(`....
0710: 8B 80 8C 80 03 80 1F 01  6F 1C 20 80 4A 3E 60 0F  ........o. .J>`.
0720: 01 28 60 0F 01 6F 76 3E  60 0F 01 66 28 80 3E 60  .(`..ov>`..f(.>`
0730: 0F 01 3E 60 0F 01 74 6C  6B 30 00                 ..>`..tlk0.     
```

## Opcodes

```
  0: 0x0701 [0x32] ExtData[1]->MainSpeed = 13* * 0.1
  1: 0x0704 [0x79] Leffquen (ID: 17784894/0x010F603E) looks at Ramicharaux (ID: 17784872/0x010F6028) (Basic look)
  2: 0x070E [0x1F] MOVE_ENTITY: EventEntity moves to X=-52.055*, Z=2.177*, Y=0.000*
  3: 0x0716 [0x1F] MOVE_ENTITY: Update entity position (mode=1)
  4: 0x0718 [0x6F] WAIT_FRAME_DELAY: Yield until WaitTime reaches zero
  5: 0x0719 [0x1C] WAIT(15* ticks)
  6: 0x071C [0x4A] Leffquen (ID: 17784894/0x010F603E) looks at Ramicharaux (ID: 17784872/0x010F6028)
  7: 0x0725 [0x6F] WAIT_FRAME_DELAY: Yield until WaitTime reaches zero
  8: 0x0726 [0x76] CHECK_ENTITY_RENDER_FLAGS: Wait until Leffquen (ID: 17784894/0x010F603E) Render.Flags0 and Render.Flags3 conditions are met
  9: 0x072B [0x66] LOAD_EXT_SCHEDULER_MAIN: Load scheduler "tlk0" with entities [Leffquen (ID: 17784894/0x010F603E), Leffquen (ID: 17784894/0x010F603E)], work=19*
 10: 0x073A [0x00] END_REQSTACK()
```
