# Event 65535

## Metadata

| Field           | Value    |
|-----------------|----------|
| Event Index     | 10/14    |
| Offset          | 0x0054   |
| Data Size       | 70 bytes |
| Calculated Size | 70 bytes |
| Instructions    | 8        |

```
      00 01 02 03 04 05 06 07  08 09 0A 0B 0C 0D 0E 0F
      -- -- -- -- -- -- -- --  -- -- -- -- -- -- -- --
0050:             66 01 80 F8  FF FF 7F F8 FF FF 7F 77      f..........w
0060: 61 76 30 1C 05 80 5B 06  80 C0 40 0F 01 C0 40 0F  av0...[...@...@.
0070: 01 74 6C 6B 30 1C 05 80  5B 06 80 C0 40 0F 01 C0  .tlk0...[...@...
0080: 40 0F 01 74 6C 6B 31 5B  05 80 C1 40 0F 01 C1 40  @..tlk1[...@...@
0090: 0F 01 74 6C 6B 30 1C 07  80 00                    ..tlk0....      
```

## Opcodes

```
  0: 0x0054 [0x66] LOAD_EXT_SCHEDULER_MAIN: Load scheduler "wav0" with entities [EventEntity, EventEntity], work=10*
  1: 0x0063 [0x1C] WAIT(80* ticks)
  2: 0x0066 [0x5B] LOAD_EXT_SCHEDULER: Load scheduler "tlk0" with entities [Turlough (ID: 17776832/0x010F40C0), Turlough (ID: 17776832/0x010F40C0)], work=60*
  3: 0x0075 [0x1C] WAIT(80* ticks)
  4: 0x0078 [0x5B] LOAD_EXT_SCHEDULER: Load scheduler "tlk1" with entities [Turlough (ID: 17776832/0x010F40C0), Turlough (ID: 17776832/0x010F40C0)], work=60*
  5: 0x0087 [0x5B] LOAD_EXT_SCHEDULER: Load scheduler "tlk0" with entities [Alfrieda (ID: 17776833/0x010F40C1), Alfrieda (ID: 17776833/0x010F40C1)], work=80*
  6: 0x0096 [0x1C] WAIT(120* ticks)
  7: 0x0099 [0x00] END_REQSTACK()
```
