# Event 531

## Metadata

| Field           | Value    |
|-----------------|----------|
| Event Index     | 7/44     |
| Offset          | 0x0332   |
| Data Size       | 45 bytes |
| Calculated Size | 45 bytes |
| Instructions    | 13       |

```
      00 01 02 03 04 05 06 07  08 09 0A 0B 0C 0D 0E 0F
      -- -- -- -- -- -- -- --  -- -- -- -- -- -- -- --
0330:       20 01 1E F0 FF FF  7F 6F 70 66 05 80 F8 FF     ......opf....
0340: FF 7F F8 FF FF 7F 74 6C  6B 30 03 02 10 13 80 1D  ......tlk0......
0350: 1C 80 23 5E 69 64 6C 30  1C 07 80 20 00 21 00     ..#^idl0... .!. 
```

## Opcodes

```
  0: 0x0332 [0x20] SET_CLI_EVENT_UC_FLAG: Lock player control
  1: 0x0334 [0x1E] EventEntity looks at LocalPlayer and starts talking
  2: 0x0339 [0x6F] WAIT_FRAME_DELAY: Yield until WaitTime reaches zero
  3: 0x033A [0x70] WAIT_ENTITY_RENDER_FLAG: Wait while EventEntity->Render.Flags3 bit 2 is set (cancel turn if not)
  4: 0x033B [0x66] LOAD_EXT_SCHEDULER_MAIN(work_offset=20*, entity1=EventEntity, entity2=EventEntity, action="tlk0")
  5: 0x034A [0x03] Work_Zone[2] = 4358*
  6: 0x034F [0x1D] PRINT_EVENT_MESSAGE(message_id=7444*)
    → "Why, these are fine \u0001\u0005%\u0002\u0000\u0000\u0000! Hand them to the chef, friend, right away!\u007F1\u0000\u0007"
  7: 0x0352 [0x23] WAIT_FOR_DIALOG_INTERACTION
  8: 0x0353 [0x5E] EventEntity goes idle (kills current action) (animation: "idl0")
  9: 0x0358 [0x1C] WAIT(30* ticks)
 10: 0x035B [0x20] SET_CLI_EVENT_UC_FLAG: Unlock player control
 11: 0x035D [0x21] END_EVENT
 12: 0x035E [0x00] END_REQSTACK()
```
