# Event 533

## Metadata

| Field           | Value    |
|-----------------|----------|
| Event Index     | 9/44     |
| Offset          | 0x0387   |
| Data Size       | 40 bytes |
| Calculated Size | 40 bytes |
| Instructions    | 12       |

```
      00 01 02 03 04 05 06 07  08 09 0A 0B 0C 0D 0E 0F
      -- -- -- -- -- -- -- --  -- -- -- -- -- -- -- --
0380:                      20  01 1E F0 FF FF 7F 6F 70          ......op
0390: 66 05 80 F8 FF FF 7F F8  FF FF 7F 74 6C 6B 30 1D  f..........tlk0.
03A0: 1E 80 23 5E 69 64 6C 30  1C 07 80 20 00 21 00     ..#^idl0... .!. 
```

## Opcodes

```
  0: 0x0387 [0x20] SET_CLI_EVENT_UC_FLAG: Lock player control
  1: 0x0389 [0x1E] EventEntity looks at LocalPlayer and starts talking
  2: 0x038E [0x6F] WAIT_FRAME_DELAY: Yield until WaitTime reaches zero
  3: 0x038F [0x70] WAIT_ENTITY_RENDER_FLAG: Wait while EventEntity->Render.Flags3 bit 2 is set (cancel turn if not)
  4: 0x0390 [0x66] LOAD_EXT_SCHEDULER_MAIN: Load scheduler "tlk0" with entities [EventEntity, EventEntity], work=20*
  5: 0x039F [0x1D] PRINT_EVENT_MESSAGE(message_id=7453*)
    → "Go on, take it.\u007F1\u0000\u0007"
  6: 0x03A2 [0x23] WAIT_FOR_DIALOG_INTERACTION
  7: 0x03A3 [0x5E] EventEntity goes idle (kills current action) (animation: "idl0")
  8: 0x03A8 [0x1C] WAIT(30* ticks)
  9: 0x03AB [0x20] SET_CLI_EVENT_UC_FLAG: Unlock player control
 10: 0x03AD [0x21] END_EVENT
 11: 0x03AE [0x00] END_REQSTACK()
```
