# Event 65535

## Metadata

| Field           | Value    |
|-----------------|----------|
| Event Index     | 13/18    |
| Offset          | 0x00D9   |
| Data Size       | 51 bytes |
| Calculated Size | 51 bytes |
| Instructions    | 9        |

```
      00 01 02 03 04 05 06 07  08 09 0A 0B 0C 0D 0E 0F
      -- -- -- -- -- -- -- --  -- -- -- -- -- -- -- --
00D0:                             5B 13 80 79 23 05 01           [..y#..
00E0: 79 23 05 01 79 65 73 30  1C 14 80 6E F0 FF FF 7F  y#..yes0...n....
00F0: 15 80 99 F0 FF FF 7F 1C  00 80 4A 79 23 05 01 F0  ..........Jy#...
0100: FF FF 7F 7B 79 23 05 01  1C 16 80 00              ...{y#......    
```

## Opcodes

```
  0: 0x00D9 [0x5B] LOAD_EXT_SCHEDULER(work_offset=2349*, entity1=Cyranuce (ID: 17113977/0x01052379), entity2=Cyranuce (ID: 17113977/0x01052379), action="yes0")
  1: 0x00E8 [0x1C] WAIT(120* ticks)
  2: 0x00EB [0x6E] LocalPlayer uses emote 7*
  3: 0x00F2 [0x99] Wait for LocalPlayer animation to complete
  4: 0x00F7 [0x1C] WAIT(40* ticks)
  5: 0x00FA [0x4A] Cyranuce (ID: 17113977/0x01052379) looks at LocalPlayer
  6: 0x0103 [0x7B] Cyranuce (ID: 17113977/0x01052379) stops talking
  7: 0x0108 [0x1C] WAIT(80* ticks)
  8: 0x010B [0x00] END_REQSTACK()
```
