# Event 65535

## Metadata

| Field           | Value    |
|-----------------|----------|
| Event Index     | 19/19    |
| Offset          | 0x0060   |
| Data Size       | 54 bytes |
| Calculated Size | 54 bytes |
| Instructions    | 12       |

```
      00 01 02 03 04 05 06 07  08 09 0A 0B 0C 0D 0E 0F
      -- -- -- -- -- -- -- --  -- -- -- -- -- -- -- --
0060: 32 03 80 1C 04 80 1F 00  05 80 06 80 07 80 1F 01  2...............
0070: 1F 00 08 80 09 80 0A 80  1F 01 6F 1E 65 50 03 01  ..........o.eP..
0080: 6F 76 F8 FF FF 7F 5B 0B  80 68 50 03 01 68 50 03  ov....[..hP..hP.
0090: 01 70 6E 74 30 00                                 .pnt0.          
```

## Opcodes

```
  0: 0x0060 [0x32] ExtData[1]->MainSpeed = 38* * 0.1
  1: 0x0063 [0x1C] WAIT(40* ticks)
  2: 0x0066 [0x1F] MOVE_ENTITY: EventEntity moves to X=3.523*, Z=68.334*, Y=-6.435*
  3: 0x006E [0x1F] MOVE_ENTITY: Update entity position (mode=1)
  4: 0x0070 [0x1F] MOVE_ENTITY: EventEntity moves to X=-1.955*, Z=68.149*, Y=-6.667*
  5: 0x0078 [0x1F] MOVE_ENTITY: Update entity position (mode=1)
  6: 0x007A [0x6F] WAIT_FRAME_DELAY: Yield until WaitTime reaches zero
  7: 0x007B [0x1E] EventEntity looks at Yoyoroon (ID: 16994405/0x01035065) and starts talking
  8: 0x0080 [0x6F] WAIT_FRAME_DELAY: Yield until WaitTime reaches zero
  9: 0x0081 [0x76] CHECK_ENTITY_RENDER_FLAGS: Wait until EventEntity Render.Flags0 and Render.Flags3 conditions are met
 10: 0x0086 [0x5B] LOAD_EXT_SCHEDULER: Load scheduler "pnt0" with entities [Unnamed NPC (ID: 16994408/0x01035068), Unnamed NPC (ID: 16994408/0x01035068)], work=843*
 11: 0x0095 [0x00] END_REQSTACK()
```
