# Event 72

## Metadata

| Field           | Value    |
|-----------------|----------|
| Event Index     | 3/3      |
| Offset          | 0x0550   |
| Data Size       | 49 bytes |
| Calculated Size | 49 bytes |
| Instructions    | 10       |

```
      00 01 02 03 04 05 06 07  08 09 0A 0B 0C 0D 0E 0F
      -- -- -- -- -- -- -- --  -- -- -- -- -- -- -- --
0550: 42 62 17 80 89 91 0A 01  89 91 0A 01 6D 61 69 6E  Bb..........main
0560: 00 80 1C 13 80 1D 18 80  23 62 17 80 89 91 0A 01  ........#b......
0570: 89 91 0A 01 73 65 6E 64  00 80 1C 13 80 20 00 21  ....send..... .!
0580: 00                                                .               
```

## Opcodes

```
  0: 0x0550 [0x42] SET_CLI_EVENT_CANCEL_DATA()
  1: 0x0551 [0x62] LOAD_EVENT_SCHEDULER: Load scheduler "main" with entities [Tome of Magic (ID: 17469833/0x010A9189), Tome of Magic (ID: 17469833/0x010A9189)], work=[48*, 0*]
  2: 0x0562 [0x1C] WAIT(100* ticks)
  3: 0x0565 [0x1D] PRINT_EVENT_MESSAGE(message_id=7470*)
    → "You feel an overwhelming aura of foreboding from this tome. You can almost hear someone whispering for you to stay away... \u007F4\u0002\u007F1\u0000\u0007"
  4: 0x0568 [0x23] WAIT_FOR_DIALOG_INTERACTION
  5: 0x0569 [0x62] LOAD_EVENT_SCHEDULER: Load scheduler "send" with entities [Tome of Magic (ID: 17469833/0x010A9189), Tome of Magic (ID: 17469833/0x010A9189)], work=[48*, 0*]
  6: 0x057A [0x1C] WAIT(100* ticks)
  7: 0x057D [0x20] SET_CLI_EVENT_UC_FLAG: Unlock player control
  8: 0x057F [0x21] END_EVENT
  9: 0x0580 [0x00] END_REQSTACK()
```
