# 16982575 - Kalidaaf

## Common Data

| Field            | Value                          |
|------------------|--------------------------------|
| Zone             | Aht Urhgan Whitegate2 (ID: 50) |
| Block Size       | 160 bytes                      |
| Total Events     | 6                              |
| References Count | 10                             |

## List of Events

| Event ID                  | Entrypoint   |   Size |   Instructions |
|---------------------------|--------------|--------|----------------|
| [65535](#event-65535)     | 0x0000       |      1 |              1 |
| [920](#event-920)         | 0x0001       |      1 |              1 |
| [65535.1](#event-65535-1) | 0x0002       |     19 |              4 |
| [65535.2](#event-65535-2) | 0x0015       |     18 |              4 |
| [65535.3](#event-65535-3) | 0x0027       |     18 |              4 |
| [65535.4](#event-65535-4) | 0x0039       |     23 |              7 |

## DAT References (imed_data)

|   Index | Hex Value   |   Dec Value |
|---------|-------------|-------------|
|       0 | 0x000C      |          12 |
|       1 | 0x133F2     |       78834 |
|       2 | 0xFFFE0E28  |  4294839848 |
|       3 | 0xFFFFE890  |  4294961296 |
|       4 | 0x0000      |           0 |
|       5 | 0x000A      |          10 |
|       6 | 0x001E      |          30 |
|       7 | 0x000D      |          13 |
|       8 | 0x13DD5     |       81365 |
|       9 | 0xFFFE0970  |  4294838640 |

## Events

### Event 65535

#### Metadata

| Field        | Value   |
|--------------|---------|
| Entrypoint   | 0x0000  |
| Data Size    | 1 bytes |
| Instructions | 1       |

```
      00 01 02 03 04 05 06 07  08 09 0A 0B 0C 0D 0E 0F
      -- -- -- -- -- -- -- --  -- -- -- -- -- -- -- --
0000: 00                                                .               
```

#### Opcodes

```
  0: 0x0000 [0x00] END_REQSTACK()
```

### Event 920

#### Metadata

| Field        | Value   |
|--------------|---------|
| Entrypoint   | 0x0001  |
| Data Size    | 1 bytes |
| Instructions | 1       |

```
      00 01 02 03 04 05 06 07  08 09 0A 0B 0C 0D 0E 0F
      -- -- -- -- -- -- -- --  -- -- -- -- -- -- -- --
0000:    00                                              .              
```

#### Opcodes

```
  0: 0x0001 [0x00] END_REQSTACK()
```

### Event 65535.1

#### Metadata

| Field        | Value    |
|--------------|----------|
| Entrypoint   | 0x0002   |
| Data Size    | 19 bytes |
| Instructions | 4        |

```
      00 01 02 03 04 05 06 07  08 09 0A 0B 0C 0D 0E 0F
      -- -- -- -- -- -- -- --  -- -- -- -- -- -- -- --
0000:       59 04 2F 22 03 01  00 80 1F 00 01 80 02 80    Y./"..........
0010: 03 80 1F 01 00                                    .....           
```

#### Opcodes

```
  0: 0x0002 [0x59] UPDATE_ENTITY_DATA: Set Kalidaaf (ID: 16982575/0x0103222F) main speed = 12* * 0.1
  1: 0x000A [0x1F] MOVE_ENTITY: EventEntity moves to X=78.834*, Z=-127.448*, Y=-6.000*
  2: 0x0012 [0x1F] MOVE_ENTITY: Update entity position (mode=1)
  3: 0x0014 [0x00] END_REQSTACK()
```

### Event 65535.2

#### Metadata

| Field        | Value    |
|--------------|----------|
| Entrypoint   | 0x0015   |
| Data Size    | 18 bytes |
| Instructions | 4        |

```
      00 01 02 03 04 05 06 07  08 09 0A 0B 0C 0D 0E 0F
      -- -- -- -- -- -- -- --  -- -- -- -- -- -- -- --
0010:                6E 2F 22  03 01 04 80 99 2F 22 03       n/"...../".
0020: 01 99 2F 22 03 01 00                              ../"...         
```

#### Opcodes

```
  0: 0x0015 [0x6E] Kalidaaf (ID: 16982575/0x0103222F) uses emote 0*
  1: 0x001C [0x99] Wait for Kalidaaf (ID: 16982575/0x0103222F) animation to complete
  2: 0x0021 [0x99] Wait for Kalidaaf (ID: 16982575/0x0103222F) animation to complete
  3: 0x0026 [0x00] END_REQSTACK()
```

### Event 65535.3

#### Metadata

| Field        | Value    |
|--------------|----------|
| Entrypoint   | 0x0027   |
| Data Size    | 18 bytes |
| Instructions | 4        |

```
      00 01 02 03 04 05 06 07  08 09 0A 0B 0C 0D 0E 0F
      -- -- -- -- -- -- -- --  -- -- -- -- -- -- -- --
0020:                      6E  2F 22 03 01 05 80 99 2F         n/"...../
0030: 22 03 01 99 2F 22 03 01  00                       ".../"...       
```

#### Opcodes

```
  0: 0x0027 [0x6E] Kalidaaf (ID: 16982575/0x0103222F) uses emote 10*
  1: 0x002E [0x99] Wait for Kalidaaf (ID: 16982575/0x0103222F) animation to complete
  2: 0x0033 [0x99] Wait for Kalidaaf (ID: 16982575/0x0103222F) animation to complete
  3: 0x0038 [0x00] END_REQSTACK()
```

### Event 65535.4

#### Metadata

| Field        | Value    |
|--------------|----------|
| Entrypoint   | 0x0039   |
| Data Size    | 23 bytes |
| Instructions | 7        |

```
      00 01 02 03 04 05 06 07  08 09 0A 0B 0C 0D 0E 0F
      -- -- -- -- -- -- -- --  -- -- -- -- -- -- -- --
0030:                             1C 06 80 32 07 80 1F           ...2...
0040: 00 08 80 09 80 03 80 1F  01 6F 1E 5C 21 03 01 00  .........o.\!...
```

#### Opcodes

```
  0: 0x0039 [0x1C] WAIT(30* ticks)
  1: 0x003C [0x32] ExtData[1]->MainSpeed = 13* * 0.1
  2: 0x003F [0x1F] MOVE_ENTITY: EventEntity moves to X=81.365*, Z=-128.656*, Y=-6.000*
  3: 0x0047 [0x1F] MOVE_ENTITY: Update entity position (mode=1)
  4: 0x0049 [0x6F] WAIT_FRAME_DELAY: Yield until WaitTime reaches zero
  5: 0x004A [0x1E] EventEntity looks at Fari-Wari (ID: 16982364/0x0103215C) and starts talking
  6: 0x004F [0x00] END_REQSTACK()
```
