# 16982570

## Common Data

| Field            | Value                          |
|------------------|--------------------------------|
| Zone             | Aht Urhgan Whitegate2 (ID: 50) |
| Block Size       | 11980 bytes                    |
| Total Events     | 5                              |
| References Count | 231                            |

## List of Events

| Event ID              | Entrypoint   |   Size |   Instructions |
|-----------------------|--------------|--------|----------------|
| [65535](#event-65535) | 0x0000       |      1 |              1 |
| [920](#event-920)     | 0x0001       |   6657 |            819 |
| [921](#event-921)     | 0x1A02       |   4319 |            495 |
| [977](#event-977)     | 0x2AE1       |     20 |              4 |
| [978](#event-978)     | 0x2AF5       |     20 |              4 |

## DAT References (imed_data)

|   Index | Hex Value   |   Dec Value |
|---------|-------------|-------------|
|       0 | 0x00C8      |         200 |
|       1 | 0x0000      |           0 |
|       2 | 0x0013      |          19 |
|       3 | 0x0235      |         565 |
|       4 | 0x1331B     |       78619 |
|       5 | 0xFFFDECBE  |  4294831294 |
|       6 | 0xFFFFE890  |  4294961296 |
|       7 | 0x0190      |         400 |
|       8 | 0x13A07     |       80391 |
|       9 | 0xFFFDE965  |  4294830437 |
|      10 | 0x0418      |        1048 |
|      11 | 0x171BE     |       94654 |
|      12 | 0xFFFE26F4  |  4294846196 |
|      13 | 0xFFFFC8BA  |  4294953146 |
|      14 | 0x02A2      |         674 |
|      15 | 0x12DAF     |       77231 |
|      16 | 0xFFFE06B1  |  4294837937 |
|      17 | 0x12886     |       75910 |
|      18 | 0xFFFE0A99  |  4294838937 |
|      19 | 0xFFFE02C9  |  4294836937 |
|      20 | 0x14476     |       83062 |
|      21 | 0xFFFE19A9  |  4294842793 |
|      22 | 0x0670      |        1648 |
|      23 | 0x1360B     |       79371 |
|      24 | 0xFFFE16A1  |  4294842017 |
|      25 | 0x0834      |        2100 |
|      26 | 0x12F23     |       77603 |
|      27 | 0xFFFE191F  |  4294842655 |
|      28 | 0x0064      |         100 |
|      29 | 0x156E0     |       87776 |
|      30 | 0xFFFDFF6E  |  4294836078 |
|      31 | 0x14422     |       82978 |
|      32 | 0xFFFDE567  |  4294829415 |
|      33 | 0x0379      |         889 |
|      34 | 0x14F77     |       85879 |
|      35 | 0xFFFDE597  |  4294829463 |
|      36 | 0x03FA      |        1018 |
|      37 | 0x13DA9     |       81321 |
|      38 | 0xFFFDDC7E  |  4294827134 |
|      39 | 0x0BEB      |        3051 |
|      40 | 0x12C59     |       76889 |
|      41 | 0xFFFDDBA5  |  4294826917 |
|      42 | 0x0BEC      |        3052 |
|      43 | 0x13927     |       80167 |
|      44 | 0xFFFDF5BF  |  4294833599 |
|      45 | 0x0125      |         293 |
|      46 | 0x139B2     |       80306 |
|      47 | 0xFFFE1E9B  |  4294844059 |
|      48 | 0x0417      |        1047 |
|      49 | 0x138CF     |       80079 |
|      50 | 0xFFFDF22F  |  4294832687 |
|      51 | 0x01B3      |         435 |
|      52 | 0x003C      |          60 |
|      53 | 0x0031      |          49 |
|      54 | 0x39B0      |       14768 |
|      55 | 0x001E      |          30 |
|      56 | 0x0014      |          20 |
|      57 | 0x39B1      |       14769 |
|      58 | 0x0016      |          22 |
|      59 | 0x39B2      |       14770 |
|      60 | 0x000A      |          10 |
|      61 | 0x39B3      |       14771 |
|      62 | 0x000F      |          15 |
|      63 | 0x0009      |           9 |
|      64 | 0x39B4      |       14772 |
|      65 | 0x0168      |         360 |
|      66 | 0x022F      |         559 |
|      67 | 0x0001      |           1 |
|      68 | 0xFFFF8815  |  4294936597 |
|      69 | 0x0C87      |        3207 |
|      70 | 0xFFFFFBB4  |  4294966196 |
|      71 | 0xFFFFF5D8  |  4294964696 |
|      72 | 0xFFFFEFFC  |  4294963196 |
|      73 | 0xFFFFA434  |  4294943796 |
|      74 | 0x03E8      |        1000 |
|      75 | 0x0723      |        1827 |
|      76 | 0xFFFF956E  |  4294940014 |
|      77 | 0x07D0      |        2000 |
|      78 | 0xFFFFF67A  |  4294964858 |
|      79 | 0xFFFF94DE  |  4294939870 |
|      80 | 0x0443      |        1091 |
|      81 | 0x034E      |         846 |
|      82 | 0x008F      |         143 |
|      83 | 0x001D      |          29 |
|      84 | 0x007D      |         125 |
|      85 | 0x004F      |          79 |
|      86 | 0x00C3      |         195 |
|      87 | 0x00C9      |         201 |
|      88 | 0x0096      |         150 |
|      89 | 0x0032      |          50 |
|      90 | 0x0003      |           3 |
|      91 | 0x0110      |         272 |
|      92 | 0x03E7      |         999 |
|      93 | 0x0493      |        1171 |
|      94 | 0x0028      |          40 |
|      95 | 0x00B2      |         178 |
|      96 | 0x39B7      |       14775 |
|      97 | 0x39B8      |       14776 |
|      98 | 0x39B9      |       14777 |
|      99 | 0x39BA      |       14778 |
|     100 | 0x088B      |        2187 |
|     101 | 0x39BB      |       14779 |
|     102 | 0x0018      |          24 |
|     103 | 0x39BC      |       14780 |
|     104 | 0x39BD      |       14781 |
|     105 | 0x39BE      |       14782 |
|     106 | 0x0004      |           4 |
|     107 | 0x39BF      |       14783 |
|     108 | 0x0AA9      |        2729 |
|     109 | 0x39C0      |       14784 |
|     110 | 0x39C1      |       14785 |
|     111 | 0x39C2      |       14786 |
|     112 | 0x39C3      |       14787 |
|     113 | 0x39C4      |       14788 |
|     114 | 0x0015      |          21 |
|     115 | 0x39C5      |       14789 |
|     116 | 0x39C6      |       14790 |
|     117 | 0x0019      |          25 |
|     118 | 0x39C7      |       14791 |
|     119 | 0x39C9      |       14793 |
|     120 | 0x002D      |          45 |
|     121 | 0x39CA      |       14794 |
|     122 | 0x39CB      |       14795 |
|     123 | 0x000B      |          11 |
|     124 | 0x39CC      |       14796 |
|     125 | 0x39CD      |       14797 |
|     126 | 0x39CE      |       14798 |
|     127 | 0x39CF      |       14799 |
|     128 | 0x0024      |          36 |
|     129 | 0x39D0      |       14800 |
|     130 | 0x14296     |       82582 |
|     131 | 0xFFFE12E5  |  4294841061 |
|     132 | 0x15009     |       86025 |
|     133 | 0xFFFE0554  |  4294837588 |
|     134 | 0x05DC      |        1500 |
|     135 | 0x164EE     |       91374 |
|     136 | 0xFFFE0BD5  |  4294839253 |
|     137 | 0xFFFFE69D  |  4294960797 |
|     138 | 0x0830      |        2096 |
|     139 | 0x008E      |         142 |
|     140 | 0x39D1      |       14801 |
|     141 | 0x39D2      |       14802 |
|     142 | 0x00B4      |         180 |
|     143 | 0x39D3      |       14803 |
|     144 | 0x39D4      |       14804 |
|     145 | 0x39D5      |       14805 |
|     146 | 0x0082      |         130 |
|     147 | 0x39D6      |       14806 |
|     148 | 0x39D7      |       14807 |
|     149 | 0x39D8      |       14808 |
|     150 | 0x39D9      |       14809 |
|     151 | 0x143DB     |       82907 |
|     152 | 0xFFFDFAD6  |  4294834902 |
|     153 | 0xFFFFE891  |  4294961297 |
|     154 | 0x0DA8      |        3496 |
|     155 | 0x14BA0     |       84896 |
|     156 | 0xFFFDF8FC  |  4294834428 |
|     157 | 0x000D      |          13 |
|     158 | 0x39DA      |       14810 |
|     159 | 0x39DB      |       14811 |
|     160 | 0x0078      |         120 |
|     161 | 0x0008      |           8 |
|     162 | 0x134CC     |       79052 |
|     163 | 0xFFFDF63B  |  4294833723 |
|     164 | 0x1359F     |       79263 |
|     165 | 0xFFFDFD44  |  4294835524 |
|     166 | 0x39DC      |       14812 |
|     167 | 0x39DD      |       14813 |
|     168 | 0x39DE      |       14814 |
|     169 | 0x39DF      |       14815 |
|     170 | 0x006E      |         110 |
|     171 | 0x1243C     |       74812 |
|     172 | 0xFFFE2D63  |  4294847843 |
|     173 | 0x0DDE      |        3550 |
|     174 | 0x39E1      |       14817 |
|     175 | 0x000E      |          14 |
|     176 | 0x39E2      |       14818 |
|     177 | 0x39E3      |       14819 |
|     178 | 0x12801     |       75777 |
|     179 | 0xFFFE27CF  |  4294846415 |
|     180 | 0x0ED8      |        3800 |
|     181 | 0x0050      |          80 |
|     182 | 0x00E6      |         230 |
|     183 | 0x13234     |       78388 |
|     184 | 0xFFFDFF31  |  4294836017 |
|     185 | 0x0432      |        1074 |
|     186 | 0x135C5     |       79301 |
|     187 | 0xFFFDEFBB  |  4294832059 |
|     188 | 0x13B2A     |       80682 |
|     189 | 0xFFFE06AB  |  4294837931 |
|     190 | 0x13A8E     |       80526 |
|     191 | 0xFFFDF578  |  4294833528 |
|     192 | 0x125D9     |       75225 |
|     193 | 0xFFFDE80D  |  4294830093 |
|     194 | 0x0D3F      |        3391 |
|     195 | 0x39E4      |       14820 |
|     196 | 0x39E5      |       14821 |
|     197 | 0x39E6      |       14822 |
|     198 | 0x0046      |          70 |
|     199 | 0x39E7      |       14823 |
|     200 | 0x05B3      |        1459 |
|     201 | 0x39E8      |       14824 |
|     202 | 0x39E9      |       14825 |
|     203 | 0x0080      |         128 |
|     204 | 0x054B      |        1355 |
|     205 | 0x39EA      |       14826 |
|     206 | 0x05B7      |        1463 |
|     207 | 0x094F      |        2383 |
|     208 | 0x0007      |           7 |
|     209 | 0x0002      |           2 |
|     210 | 0x0005      |           5 |
|     211 | 0x0006      |           6 |
|     212 | 0x39EB      |       14827 |
|     213 | 0x39EC      |       14828 |
|     214 | 0x39ED      |       14829 |
|     215 | 0x39EE      |       14830 |
|     216 | 0x39EF      |       14831 |
|     217 | 0x39F0      |       14832 |
|     218 | 0x39F1      |       14833 |
|     219 | 0x39F2      |       14834 |
|     220 | 0x0E42      |        3650 |
|     221 | 0x39F3      |       14835 |
|     222 | 0x09B7      |        2487 |
|     223 | 0x39F4      |       14836 |
|     224 | 0x002A      |          42 |
|     225 | 0x39F5      |       14837 |
|     226 | 0x39F6      |       14838 |
|     227 | 0x39F7      |       14839 |
|     228 | 0x39F8      |       14840 |
|     229 | 0x39F9      |       14841 |
|     230 | 0x000C      |          12 |

## Events

### Event 65535

#### Metadata

| Field        | Value   |
|--------------|---------|
| Entrypoint   | 0x0000  |
| Data Size    | 1 bytes |
| Instructions | 1       |

```
      00 01 02 03 04 05 06 07  08 09 0A 0B 0C 0D 0E 0F
      -- -- -- -- -- -- -- --  -- -- -- -- -- -- -- --
0000: 00                                                .               
```

#### Opcodes

```
  0: 0x0000 [0x00] END_REQSTACK()
```

### Event 920

#### Metadata

| Field        | Value      |
|--------------|------------|
| Entrypoint   | 0x0001     |
| Data Size    | 6657 bytes |
| Instructions | 819        |

```
      00 01 02 03 04 05 06 07  08 09 0A 0B 0C 0D 0E 0F
      -- -- -- -- -- -- -- --  -- -- -- -- -- -- -- --
0000:    42 45 00 80 F0 FF FF  7F F0 FF FF 7F 66 64 6F   BE..........fdo
0010: 31 01 80 55 00 80 F0 FF  FF 7F F0 FF FF 7F 66 64  1..U..........fd
0020: 6F 31 46 01 38 02 80 29  10 0B 22 03 01 1C 92 01  o1F.8..)..".....
0030: 5C 21 03 01 92 01 60 21  03 01 92 01 2B 22 03 01  \!....`!....+"..
0040: 92 01 AC 21 03 01 92 01  2C 22 03 01 92 01 2D 22  ...!....,"....-"
0050: 03 01 92 01 2E 22 03 01  92 01 2F 22 03 01 92 01  ....."..../"....
0060: 30 22 03 01 92 01 31 22  03 01 92 01 34 22 03 01  0"....1"....4"..
0070: 92 01 82 20 03 01 92 01  7E 20 03 01 92 01 53 20  ... ....~ ....S 
0080: 03 01 92 01 54 20 03 01  75 00 03 80 75 01 94 01  ....T ..u...u...
0090: F0 FF FF 7F 94 01 0B 22  03 01 94 01 5C 21 03 01  ......."....\!..
00A0: 94 01 60 21 03 01 94 01  2B 22 03 01 94 01 AC 21  ..`!....+".....!
00B0: 03 01 94 01 2C 22 03 01  94 01 2D 22 03 01 94 01  ....,"....-"....
00C0: 2E 22 03 01 94 01 2F 22  03 01 94 01 30 22 03 01  ."..../"....0"..
00D0: 94 01 31 22 03 01 94 01  34 22 03 01 94 01 82 20  ..1"....4"..... 
00E0: 03 01 94 01 7E 20 03 01  94 01 53 20 03 01 94 01  ....~ ....S ....
00F0: 54 20 03 01 4E 00 0B 22  03 01 4E 00 5C 21 03 01  T ..N.."..N.\!..
0100: 4E 00 60 21 03 01 4E 00  2B 22 03 01 4E 00 AC 21  N.`!..N.+"..N..!
0110: 03 01 4E 00 82 20 03 01  4E 00 7E 20 03 01 4E 00  ..N.. ..N.~ ..N.
0120: 53 20 03 01 4E 00 54 20  03 01 4E 01 1E 20 03 01  S ..N.T ..N.. ..
0130: 2F 00 0B 22 03 01 2F 00  5C 21 03 01 2F 00 AC 21  /.."../.\!../..!
0140: 03 01 2F 00 60 21 03 01  BA F0 FF FF 7F 04 80 05  ../.`!..........
0150: 80 06 80 07 80 BA 0B 22  03 01 04 80 05 80 06 80  ......."........
0160: 07 80 BA 5C 21 03 01 08  80 09 80 06 80 0A 80 BA  ...\!...........
0170: 60 21 03 01 0B 80 0C 80  0D 80 0E 80 BA 2C 22 03  `!...........,".
0180: 01 0F 80 10 80 06 80 01  80 BA 2D 22 03 01 11 80  ..........-"....
0190: 12 80 06 80 01 80 BA 2E  22 03 01 11 80 13 80 06  ........".......
01A0: 80 01 80 BA 2F 22 03 01  14 80 15 80 06 80 16 80  ..../"..........
01B0: BA 30 22 03 01 17 80 18  80 06 80 19 80 BA 31 22  .0"...........1"
01C0: 03 01 1A 80 1B 80 06 80  1C 80 BA 34 22 03 01 1D  ...........4"...
01D0: 80 1E 80 06 80 16 80 BA  82 20 03 01 1F 80 20 80  ......... .... .
01E0: 06 80 21 80 BA 7E 20 03  01 22 80 23 80 06 80 24  ..!..~ ..".#...$
01F0: 80 BA 53 20 03 01 25 80  26 80 06 80 27 80 BA 54  ..S ..%.&...'..T
0200: 20 03 01 28 80 29 80 06  80 2A 80 80 0B 22 03 01   ..(.)...*..."..
0210: 80 5C 21 03 01 80 60 21  03 01 80 2C 22 03 01 80  .\!...`!...,"...
0220: 2D 22 03 01 80 2E 22 03  01 80 2F 22 03 01 80 30  -"....".../"...0
0230: 22 03 01 80 31 22 03 01  80 34 22 03 01 80 82 20  "...1"...4".... 
0240: 03 01 80 7E 20 03 01 80  53 20 03 01 80 54 20 03  ...~ ...S ...T .
0250: 01 79 00 F0 FF FF 7F F0  FF FF 7F 79 00 0B 22 03  .y.........y..".
0260: 01 0B 22 03 01 7B 5C 21  03 01 7B 60 21 03 01 7B  .."..{\!..{`!..{
0270: 2C 22 03 01 7B 2D 22 03  01 7B 2E 22 03 01 7B 2F  ,"..{-"..{."..{/
0280: 22 03 01 7B 30 22 03 01  7B 31 22 03 01 7B 34 22  "..{0"..{1"..{4"
0290: 03 01 7B 82 20 03 01 7B  7E 20 03 01 7B 53 20 03  ..{. ..{~ ..{S .
02A0: 01 7B 54 20 03 01 BA F0  FF FF 7F 2B 80 2C 80 06  .{T .......+.,..
02B0: 80 2D 80 BA 0B 22 03 01  2B 80 2C 80 06 80 2D 80  .-..."..+.,...-.
02C0: 4A 5C 21 03 01 F0 FF FF  7F 6F 76 5C 21 03 01 4A  J\!......ov\!..J
02D0: F0 FF FF 7F 5C 21 03 01  79 00 F0 FF FF 7F 5C 21  ....\!..y.....\!
02E0: 03 01 6F 76 F0 FF FF 7F  BA AC 21 03 01 2E 80 2F  ..ov......!..../
02F0: 80 06 80 30 80 BA 37 22  03 01 31 80 32 80 06 80  ...0..7"..1.2...
0300: 0A 80 80 AC 21 03 01 80  37 22 03 01 45 33 80 F0  ....!...7"..E3..
0310: FF FF 7F F0 FF FF 7F 73  61 30 30 01 80 45 00 80  .......sa00..E..
0320: F0 FF FF 7F F0 FF FF 7F  66 64 69 31 01 80 55 00  ........fdi1..U.
0330: 80 F0 FF FF 7F F0 FF FF  7F 66 64 69 31 1C 34 80  .........fdi1.4.
0340: 66 35 80 5C 21 03 01 5C  21 03 01 74 6C 6B 30 2B  f5.\!..\!..tlk0+
0350: 5C 21 03 01 36 80 23 1C  37 80 66 35 80 5C 21 03  \!..6.#.7.f5.\!.
0360: 01 5C 21 03 01 74 6C 6B  31 53 5C 21 03 01 5C 21  .\!..tlk1S\!..\!
0370: 03 01 74 6C 6B 31 27 10  0B 22 03 01 69 1C 38 80  ..tlk1'.."..i.8.
0380: 52 33 80 F0 FF FF 7F F0  FF FF 7F 73 61 30 30 45  R3.........sa00E
0390: 33 80 F0 FF FF 7F F0 FF  FF 7F 73 61 30 31 01 80  3.........sa01..
03A0: 1C 37 80 4A 5C 21 03 01  F0 FF FF 7F 2B 5C 21 03  .7.J\!......+\!.
03B0: 01 39 80 23 6E F0 FF FF  7F 3A 80 99 F0 FF FF 7F  .9.#n....:......
03C0: 1C 34 80 27 10 37 22 03  01 03 1C 38 80 52 33 80  .4.'.7"....8.R3.
03D0: F0 FF FF 7F F0 FF FF 7F  73 61 30 31 45 33 80 F0  ........sa01E3..
03E0: FF FF 7F F0 FF FF 7F 73  61 30 32 01 80 BA F0 FF  .......sa02.....
03F0: FF 7F 04 80 05 80 06 80  07 80 BA 0B 22 03 01 04  ............"...
0400: 80 05 80 06 80 07 80 27  10 38 22 03 01 03 1C 37  .......'.8"....7
0410: 80 2B AC 21 03 01 3B 80  23 2A 10 37 22 03 01 1C  .+.!..;.#*.7"...
0420: 37 80 52 33 80 F0 FF FF  7F F0 FF FF 7F 73 61 30  7.R3.........sa0
0430: 32 45 33 80 F0 FF FF 7F  F0 FF FF 7F 73 61 30 33  2E3.........sa03
0440: 01 80 2A 10 AC 21 03 01  6E 5C 21 03 01 3C 80 99  ..*..!..n\!..<..
0450: 5C 21 03 01 99 5C 21 03  01 2B 5C 21 03 01 3D 80  \!...\!..+\!..=.
0460: 23 1C 37 80 52 33 80 F0  FF FF 7F F0 FF FF 7F 73  #.7.R3.........s
0470: 61 30 33 45 33 80 F0 FF  FF 7F F0 FF FF 7F 73 61  a03E3.........sa
0480: 30 34 01 80 1C 3E 80 66  3F 80 AC 21 03 01 AC 21  04...>.f?..!...!
0490: 03 01 74 68 6B 31 2B AC  21 03 01 40 80 23 1C 37  ..thk1+.!..@.#.7
04A0: 80 66 3F 80 AC 21 03 01  AC 21 03 01 74 68 6B 32  .f?..!...!..thk2
04B0: 1C 34 80 5D 01 80 00 80  45 00 80 F0 FF FF 7F F0  .4.]....E.......
04C0: FF FF 7F 66 64 6F 31 01  80 55 00 80 F0 FF FF 7F  ...fdo1..U......
04D0: F0 FF FF 7F 66 64 6F 31  52 33 80 F0 FF FF 7F F0  ....fdo1R3......
04E0: FF FF 7F 73 61 30 34 52  33 80 F0 FF FF 7F F0 FF  ...sa04R3.......
04F0: FF 7F 73 61 30 36 1C 41  80 34 42 80 77 01 80 43  ..sa06.A.4B.w..C
0500: 80 1C 37 80 4E 01 1E 20  03 01 AB 09 1C 3C 80 4E  ..7.N.. .....<.N
0510: 01 5C 21 03 01 4E 01 AC  21 03 01 4E 01 2C 22 03  .\!..N..!..N.,".
0520: 01 4E 01 2D 22 03 01 4E  01 2E 22 03 01 4E 01 2F  .N.-"..N.."..N./
0530: 22 03 01 4E 01 30 22 03  01 4E 01 31 22 03 01 4E  "..N.0"..N.1"..N
0540: 01 34 22 03 01 4E 01 82  20 03 01 4E 01 7E 20 03  .4"..N.. ..N.~ .
0550: 01 4E 01 53 20 03 01 4E  01 54 20 03 01 BA 47 22  .N.S ..N.T ...G"
0560: 03 01 07 80 44 80 01 80  45 80 BA 48 22 03 01 46  ....D...E..H"..F
0570: 80 44 80 01 80 45 80 BA  49 22 03 01 47 80 44 80  .D...E..I"..G.D.
0580: 01 80 45 80 BA 4A 22 03  01 48 80 44 80 01 80 45  ..E..J"..H.D...E
0590: 80 BA 4B 22 03 01 07 80  49 80 01 80 4A 80 BA 4C  ..K"....I...J..L
05A0: 22 03 01 46 80 49 80 01  80 4A 80 BA 4D 22 03 01  "..F.I...J..M"..
05B0: 47 80 49 80 01 80 4A 80  BA 4E 22 03 01 48 80 49  G.I...J..N"..H.I
05C0: 80 01 80 4A 80 BA 2B 22  03 01 4B 80 4C 80 01 80  ...J..+"..K.L...
05D0: 4D 80 BA 60 21 03 01 4E  80 4F 80 01 80 01 80 80  M..`!..N.O......
05E0: F0 FF FF 7F 80 60 21 03  01 80 2B 22 03 01 5B 50  .....`!...+"..[P
05F0: 80 60 21 03 01 60 21 03  01 66 67 68 30 53 60 21  .`!..`!..fgh0S`!
0600: 03 01 60 21 03 01 66 67  68 30 5B 51 80 2B 22 03  ..`!..fgh0[Q.+".
0610: 01 2B 22 03 01 63 72 30  30 53 2B 22 03 01 2B 22  .+"..cr00S+"..+"
0620: 03 01 63 72 30 30 4A 60  21 03 01 2B 22 03 01 79  ..cr00J`!..+"..y
0630: 00 60 21 03 01 2B 22 03  01 6F 76 60 21 03 01 4A  .`!..+"..ov`!..J
0640: 2B 22 03 01 60 21 03 01  79 00 2B 22 03 01 60 21  +"..`!..y.+"..`!
0650: 03 01 6F 76 2B 22 03 01  5C 00 52 80 5C 01 52 80  ..ov+"..\.R.\.R.
0660: 9A 45 33 80 F0 FF FF 7F  F0 FF FF 7F 74 6B 30 34  .E3.........tk04
0670: 01 80 45 00 80 F0 FF FF  7F F0 FF FF 7F 66 64 69  ..E..........fdi
0680: 31 01 80 55 00 80 F0 FF  FF 7F F0 FF FF 7F 66 64  1..U..........fd
0690: 69 31 6E 2B 22 03 01 53  80 99 2B 22 03 01 1C 54  i1n+"..S..+"...T
06A0: 80 52 33 80 F0 FF FF 7F  F0 FF FF 7F 74 6B 30 34  .R3.........tk04
06B0: 45 33 80 F0 FF FF 7F F0  FF FF 7F 74 6B 30 35 01  E3.........tk05.
06C0: 80 5B 50 80 60 21 03 01  60 21 03 01 73 74 6D 30  .[P.`!..`!..stm0
06D0: BB 55 80 60 21 03 01 60  21 03 01 73 74 30 30 01  .U.`!..`!..st00.
06E0: 80 1C 56 80 45 57 80 F0  FF FF 7F F0 FF FF 7F 77  ..V.EW.........w
06F0: 68 6F 31 01 80 55 57 80  F0 FF FF 7F F0 FF FF 7F  ho1..UW.........
0700: 77 68 6F 31 52 33 80 F0  FF FF 7F F0 FF FF 7F 74  who1R3.........t
0710: 6B 30 35 45 33 80 F0 FF  FF 7F F0 FF FF 7F 30 30  k05E3.........00
0720: 30 30 01 80 55 33 80 F0  FF FF 7F F0 FF FF 7F 30  00..U3.........0
0730: 30 30 30 52 33 80 F0 FF  FF 7F F0 FF FF 7F 30 30  000R3.........00
0740: 30 30 6B 69 64 6C 30 60  21 03 01 5D 01 80 58 80  00kidl0`!..]..X.
0750: 6A 01 80 34 80 3E 80 45  00 80 F0 FF FF 7F F0 FF  j..4.>.E........
0760: FF 7F 66 64 6F 31 01 80  55 00 80 F0 FF FF 7F F0  ..fdo1..U.......
0770: FF FF 7F 66 64 6F 31 52  33 80 F0 FF FF 7F F0 FF  ...fdo1R3.......
0780: FF 7F 73 61 36 30 45 57  80 F0 FF FF 7F F0 FF FF  ..sa60EW........
0790: 7F 77 68 69 31 01 80 55  57 80 F0 FF FF 7F F0 FF  .whi1..UW.......
07A0: FF 7F 77 68 69 31 35 59  80 78 1C 5A 80 22 00 45  ..whi15Y.x.Z.".E
07B0: 5B 80 F0 FF FF 7F F0 FF  FF 7F 6E 6F 73 65 01 80  [.........nose..
07C0: 55 5B 80 F0 FF FF 7F F0  FF FF 7F 6E 6F 73 65 6A  U[.........nosej
07D0: 5C 80 34 80 3E 80 AB 0A  2D F0 FF FF 7F F0 FF FF  \.4.>...-.......
07E0: 7F 31 70 62 31 1C 37 80  4E 00 1E 20 03 01 29 10  .1pb1.7.N.. ..).
07F0: 0B 22 03 01 1C 29 10 2B  22 03 01 03 80 2B 22 03  ."...).+"....+".
0800: 01 75 00 03 80 75 01 4E  00 5C 21 03 01 4E 00 AC  .u...u.N.\!..N..
0810: 21 03 01 4E 00 2F 22 03  01 4E 00 30 22 03 01 4E  !..N./"..N.0"..N
0820: 00 31 22 03 01 4E 00 34  22 03 01 4E 00 82 20 03  .1"..N.4"..N.. .
0830: 01 4E 00 7E 20 03 01 4E  00 53 20 03 01 4E 00 54  .N.~ ..N.S ..N.T
0840: 20 03 01 4E 01 2B 22 03  01 BA 0B 22 03 01 04 80   ..N.+"...."....
0850: 05 80 06 80 07 80 BA 60  21 03 01 0B 80 0C 80 0D  .......`!.......
0860: 80 0E 80 80 F0 FF FF 7F  80 0B 22 03 01 80 5C 21  .........."...\!
0870: 03 01 80 60 21 03 01 80  AC 21 03 01 80 2C 22 03  ...`!....!...,".
0880: 01 80 2D 22 03 01 80 2E  22 03 01 80 2F 22 03 01  ..-"....".../"..
0890: 80 30 22 03 01 80 31 22  03 01 80 34 22 03 01 80  .0"...1"...4"...
08A0: 82 20 03 01 80 7E 20 03  01 80 53 20 03 01 80 54  . ...~ ...S ...T
08B0: 20 03 01 79 00 F0 FF FF  7F F0 FF FF 7F 79 00 0B   ..y.........y..
08C0: 22 03 01 0B 22 03 01 79  00 5C 21 03 01 AC 21 03  "..."..y.\!...!.
08D0: 01 7B 60 21 03 01 79 00  AC 21 03 01 5C 21 03 01  .{`!..y..!..\!..
08E0: 7B 2C 22 03 01 7B 2D 22  03 01 7B 2E 22 03 01 7B  {,"..{-"..{."..{
08F0: 2F 22 03 01 7B 30 22 03  01 7B 31 22 03 01 7B 34  /"..{0"..{1"..{4
0900: 22 03 01 7B 82 20 03 01  7B 7E 20 03 01 7B 53 20  "..{. ..{~ ..{S 
0910: 03 01 7B 54 20 03 01 5B  5D 80 60 21 03 01 60 21  ..{T ..[].`!..`!
0920: 03 01 6D 67 64 30 53 60  21 03 01 60 21 03 01 6D  ..mgd0S`!..`!..m
0930: 67 64 30 4A AC 21 03 01  5C 21 03 01 79 00 AC 21  gd0J.!..\!..y..!
0940: 03 01 5C 21 03 01 4A 5C  21 03 01 37 22 03 01 79  ..\!..J\!..7"..y
0950: 00 5C 21 03 01 37 22 03  01 4A F0 FF FF 7F 37 22  .\!..7"..J....7"
0960: 03 01 79 00 F0 FF FF 7F  AC 21 03 01 6F 76 5C 21  ..y......!..ov\!
0970: 03 01 66 5E 80 5C 21 03  01 5C 21 03 01 6F 62 69  ..f^.\!..\!..obi
0980: 30 53 5C 21 03 01 5C 21  03 01 6F 62 69 30 5C 00  0S\!..\!..obi0\.
0990: 5F 80 5C 01 5F 80 45 33  80 F0 FF FF 7F F0 FF FF  _.\._.E3........
09A0: 7F 73 61 30 37 01 80 45  00 80 F0 FF FF 7F F0 FF  .sa07..E........
09B0: FF 7F 66 64 69 31 01 80  55 00 80 F0 FF FF 7F F0  ..fdi1..U.......
09C0: FF FF 7F 66 64 69 31 2B  5C 21 03 01 60 80 23 1C  ...fdi1+\!..`.#.
09D0: 37 80 52 33 80 F0 FF FF  7F F0 FF FF 7F 73 61 30  7.R3.........sa0
09E0: 37 9A 45 33 80 F0 FF FF  7F F0 FF FF 7F 73 61 30  7.E3.........sa0
09F0: 38 01 80 66 5E 80 5C 21  03 01 5C 21 03 01 6F 62  8..f^.\!..\!..ob
0A00: 69 31 6E AC 21 03 01 02  80 99 AC 21 03 01 2B AC  i1n.!......!..+.
0A10: 21 03 01 61 80 23 53 5C  21 03 01 5C 21 03 01 74  !..a.#S\!..\!..t
0A20: 6C 6B 31 52 33 80 F0 FF  FF 7F F0 FF FF 7F 73 61  lk1R3.........sa
0A30: 30 38 45 33 80 F0 FF FF  7F F0 FF FF 7F 73 61 30  08E3.........sa0
0A40: 39 01 80 1C 3C 80 66 35  80 5C 21 03 01 5C 21 03  9...<.f5.\!..\!.
0A50: 01 74 6C 6B 30 2B 5C 21  03 01 62 80 23 66 35 80  .tlk0+\!..b.#f5.
0A60: 5C 21 03 01 5C 21 03 01  74 6C 6B 31 2B AC 21 03  \!..\!..tlk1+.!.
0A70: 01 63 80 23 1C 37 80 52  33 80 F0 FF FF 7F F0 FF  .c.#.7.R3.......
0A80: FF 7F 73 61 30 39 45 33  80 F0 FF FF 7F F0 FF FF  ..sa09E3........
0A90: 7F 73 61 31 30 01 80 1C  38 80 4A AC 21 03 01 F0  .sa10...8.J.!...
0AA0: FF FF 7F 03 02 10 64 80  2B AC 21 03 01 65 80 23  ......d.+.!..e.#
0AB0: 52 33 80 F0 FF FF 7F F0  FF FF 7F 73 61 31 30 45  R3.........sa10E
0AC0: 33 80 F0 FF FF 7F F0 FF  FF 7F 74 6B 30 30 01 80  3.........tk00..
0AD0: 6E 5C 21 03 01 66 80 99  5C 21 03 01 2B 5C 21 03  n\!..f..\!..+\!.
0AE0: 01 67 80 23 52 33 80 F0  FF FF 7F F0 FF FF 7F 74  .g.#R3.........t
0AF0: 6B 30 30 45 33 80 F0 FF  FF 7F F0 FF FF 7F 74 6B  k00E3.........tk
0B00: 30 31 01 80 4A AC 21 03  01 5C 21 03 01 2B AC 21  01..J.!..\!..+.!
0B10: 03 01 68 80 23 6E 5C 21  03 01 02 80 99 5C 21 03  ..h.#n\!.....\!.
0B20: 01 2B 5C 21 03 01 69 80  23 52 33 80 F0 FF FF 7F  .+\!..i.#R3.....
0B30: F0 FF FF 7F 74 6B 30 31  45 33 80 F0 FF FF 7F F0  ....tk01E3......
0B40: FF FF 7F 73 61 31 31 01  80 7B AC 21 03 01 6E AC  ...sa11..{.!..n.
0B50: 21 03 01 6A 80 99 AC 21  03 01 2B AC 21 03 01 6B  !..j...!..+.!..k
0B60: 80 23 1C 34 80 52 33 80  F0 FF FF 7F F0 FF FF 7F  .#.4.R3.........
0B70: 73 61 31 31 45 33 80 F0  FF FF 7F F0 FF FF 7F 73  sa11E3.........s
0B80: 61 31 32 01 80 4A AC 21  03 01 5C 21 03 01 1C 34  a12..J.!..\!...4
0B90: 80 03 02 10 6C 80 66 35  80 5C 21 03 01 5C 21 03  ....l.f5.\!..\!.
0BA0: 01 74 68 6B 31 2B 5C 21  03 01 6D 80 23 1C 37 80  .thk1+\!..m.#.7.
0BB0: 66 35 80 5C 21 03 01 5C  21 03 01 74 68 6B 32 52  f5.\!..\!..thk2R
0BC0: 33 80 F0 FF FF 7F F0 FF  FF 7F 73 61 31 32 45 33  3.........sa12E3
0BD0: 80 F0 FF FF 7F F0 FF FF  7F 73 61 31 33 01 80 66  .........sa13..f
0BE0: 3F 80 AC 21 03 01 AC 21  03 01 74 6C 6B 30 2B AC  ?..!...!..tlk0+.
0BF0: 21 03 01 6E 80 23 1C 3E  80 03 02 10 6C 80 2B AC  !..n.#.>....l.+.
0C00: 21 03 01 6F 80 23 1C 3E  80 53 AC 21 03 01 AC 21  !..o.#.>.S.!...!
0C10: 03 01 74 6C 6B 30 66 3F  80 AC 21 03 01 AC 21 03  ..tlk0f?..!...!.
0C20: 01 74 6C 6B 31 53 AC 21  03 01 AC 21 03 01 74 6C  .tlk1S.!...!..tl
0C30: 6B 31 52 33 80 F0 FF FF  7F F0 FF FF 7F 73 61 31  k1R3.........sa1
0C40: 33 45 33 80 F0 FF FF 7F  F0 FF FF 7F 73 61 31 35  3E3.........sa15
0C50: 01 80 7B AC 21 03 01 1C  37 80 66 3F 80 AC 21 03  ..{.!...7.f?..!.
0C60: 01 AC 21 03 01 74 68 6B  31 2B AC 21 03 01 70 80  ..!..thk1+.!..p.
0C70: 23 2B AC 21 03 01 71 80  23 1C 37 80 66 3F 80 AC  #+.!..q.#.7.f?..
0C80: 21 03 01 AC 21 03 01 74  68 6B 32 53 AC 21 03 01  !...!..thk2S.!..
0C90: AC 21 03 01 74 68 6B 32  52 33 80 F0 FF FF 7F F0  .!..thk2R3......
0CA0: FF FF 7F 73 61 31 35 45  33 80 F0 FF FF 7F F0 FF  ...sa15E3.......
0CB0: FF 7F 73 61 31 36 01 80  6E 5C 21 03 01 72 80 99  ..sa16..n\!..r..
0CC0: 5C 21 03 01 2B 5C 21 03  01 73 80 23 1C 37 80 79  \!..+\!..s.#.7.y
0CD0: 00 AC 21 03 01 5C 21 03  01 52 33 80 F0 FF FF 7F  ..!..\!..R3.....
0CE0: F0 FF FF 7F 73 61 31 36  45 33 80 F0 FF FF 7F F0  ....sa16E3......
0CF0: FF FF 7F 73 61 31 37 01  80 1C 3E 80 66 3F 80 AC  ...sa17...>.f?..
0D00: 21 03 01 AC 21 03 01 74  6C 6B 30 2B AC 21 03 01  !...!..tlk0+.!..
0D10: 74 80 23 66 3F 80 AC 21  03 01 AC 21 03 01 74 6C  t.#f?..!...!..tl
0D20: 6B 31 1C 37 80 6E 5C 21  03 01 75 80 99 5C 21 03  k1.7.n\!..u..\!.
0D30: 01 2B 5C 21 03 01 76 80  23 1C 3E 80 52 33 80 F0  .+\!..v.#.>.R3..
0D40: FF FF 7F F0 FF FF 7F 73  61 31 37 45 33 80 F0 FF  .......sa17E3...
0D50: FF 7F F0 FF FF 7F 73 61  31 39 01 80 1C 37 80 66  ......sa19...7.f
0D60: 5E 80 5C 21 03 01 5C 21  03 01 74 68 6B 31 2B 5C  ^.\!..\!..thk1+\
0D70: 21 03 01 77 80 23 66 5E  80 5C 21 03 01 5C 21 03  !..w.#f^.\!..\!.
0D80: 01 74 68 6B 32 1C 78 80  6E 5C 21 03 01 01 80 99  .thk2.x.n\!.....
0D90: 5C 21 03 01 2B 5C 21 03  01 79 80 23 1C 37 80 52  \!..+\!..y.#.7.R
0DA0: 33 80 F0 FF FF 7F F0 FF  FF 7F 73 61 31 39 45 33  3.........sa19E3
0DB0: 80 F0 FF FF 7F F0 FF FF  7F 73 61 32 30 01 80 66  .........sa20..f
0DC0: 3F 80 AC 21 03 01 AC 21  03 01 74 6C 6B 30 2B AC  ?..!...!..tlk0+.
0DD0: 21 03 01 7A 80 23 1C 37  80 52 33 80 F0 FF FF 7F  !..z.#.7.R3.....
0DE0: F0 FF FF 7F 73 61 32 30  45 33 80 F0 FF FF 7F F0  ....sa20E3......
0DF0: FF FF 7F 73 61 32 31 01  80 66 3F 80 AC 21 03 01  ...sa21..f?..!..
0E00: AC 21 03 01 74 6C 6B 31  7B AC 21 03 01 6E 5C 21  .!..tlk1{.!..n\!
0E10: 03 01 7B 80 99 5C 21 03  01 2B 5C 21 03 01 7C 80  ..{..\!..+\!..|.
0E20: 23 1C 37 80 66 35 80 5C  21 03 01 5C 21 03 01 74  #.7.f5.\!..\!..t
0E30: 6C 6B 30 2B 5C 21 03 01  7D 80 23 1C 37 80 66 35  lk0+\!..}.#.7.f5
0E40: 80 5C 21 03 01 5C 21 03  01 74 6C 6B 31 52 33 80  .\!..\!..tlk1R3.
0E50: F0 FF FF 7F F0 FF FF 7F  73 61 32 31 45 33 80 F0  ........sa21E3..
0E60: FF FF 7F F0 FF FF 7F 73  61 32 33 01 80 66 35 80  .......sa23..f5.
0E70: 5C 21 03 01 5C 21 03 01  74 68 6B 31 4A F0 FF FF  \!..\!..thk1J...
0E80: 7F 5C 21 03 01 1C 78 80  2B 5C 21 03 01 7E 80 23  .\!...x.+\!..~.#
0E90: 66 35 80 5C 21 03 01 5C  21 03 01 74 68 6B 32 1C  f5.\!..\!..thk2.
0EA0: 37 80 52 33 80 F0 FF FF  7F F0 FF FF 7F 73 61 32  7.R3.........sa2
0EB0: 33 45 33 80 F0 FF FF 7F  F0 FF FF 7F 74 6B 30 33  3E3.........tk03
0EC0: 01 80 1C 3C 80 66 5E 80  5C 21 03 01 5C 21 03 01  ...<.f^.\!..\!..
0ED0: 77 61 69 30 2B 5C 21 03  01 7F 80 23 1C 38 80 52  wai0+\!....#.8.R
0EE0: 33 80 F0 FF FF 7F F0 FF  FF 7F 74 6B 30 33 45 33  3.........tk03E3
0EF0: 80 F0 FF FF 7F F0 FF FF  7F 73 61 32 34 01 80 6E  .........sa24..n
0F00: AC 21 03 01 80 80 99 AC  21 03 01 27 10 0B 22 03  .!......!..'..".
0F10: 01 6A 2B AC 21 03 01 81  80 23 1C 37 80 52 33 80  .j+.!....#.7.R3.
0F20: F0 FF FF 7F F0 FF FF 7F  73 61 32 34 45 33 80 F0  ........sa24E3..
0F30: FF FF 7F F0 FF FF 7F 73  61 32 35 01 80 1C 37 80  .......sa25...7.
0F40: 27 10 5C 21 03 01 0E 5D  01 80 58 80 1C 34 80 45  '.\!...]..X..4.E
0F50: 00 80 F0 FF FF 7F F0 FF  FF 7F 66 64 6F 31 01 80  ..........fdo1..
0F60: 55 00 80 F0 FF FF 7F F0  FF FF 7F 66 64 6F 31 52  U..........fdo1R
0F70: 33 80 F0 FF FF 7F F0 FF  FF 7F 73 61 32 35 BA 2F  3.........sa25./
0F80: 22 03 01 82 80 83 80 06  80 16 80 BA 34 22 03 01  "...........4"..
0F90: 84 80 85 80 06 80 16 80  80 2F 22 03 01 80 34 22  ........./"...4"
0FA0: 03 01 4A 2F 22 03 01 5C  21 03 01 4A 34 22 03 01  ..J/"..\!..J4"..
0FB0: 5C 21 03 01 79 00 2F 22  03 01 5C 21 03 01 79 00  \!..y./"..\!..y.
0FC0: 34 22 03 01 5C 21 03 01  2A 10 5C 21 03 01 4A AC  4"..\!..*.\!..J.
0FD0: 21 03 01 5C 21 03 01 79  00 AC 21 03 01 5C 21 03  !..\!..y..!..\!.
0FE0: 01 4A F0 FF FF 7F 5C 21  03 01 79 00 F0 FF FF 7F  .J....\!..y.....
0FF0: F0 FF FF 7F 4B 5C 21 03  01 86 80 79 00 5C 21 03  ....K\!....y.\!.
1000: 01 5C 21 03 01 6F 76 5C  21 03 01 7A 00 5C 21 03  .\!..ov\!..z.\!.
1010: 01 BA 5C 21 03 01 87 80  88 80 89 80 8A 80 7B 5C  ..\!..........{\
1020: 21 03 01 1C 37 80 45 33  80 F0 FF FF 7F F0 FF FF  !...7.E3........
1030: 7F 73 61 32 37 01 80 45  00 80 F0 FF FF 7F F0 FF  .sa27..E........
1040: FF 7F 66 64 69 31 01 80  55 00 80 F0 FF FF 7F F0  ..fdi1..U.......
1050: FF FF 7F 66 64 69 31 5C  00 8B 80 5C 01 8B 80 1C  ...fdi1\...\....
1060: 34 80 4A 82 20 03 01 5C  21 03 01 1C 34 80 2C 5C  4.J. ..\!...4.,\
1070: 21 03 01 5C 21 03 01 63  61 73 6F 2B 5C 21 03 01  !..\!..caso+\!..
1080: 8C 80 1C 3E 80 52 33 80  F0 FF FF 7F F0 FF FF 7F  ...>.R3.........
1090: 73 61 32 37 45 33 80 F0  FF FF 7F F0 FF FF 7F 73  sa27E3.........s
10A0: 61 32 38 01 80 1C 3E 80  2B 5C 21 03 01 8D 80 1C  a28...>.+\!.....
10B0: 8E 80 52 33 80 F0 FF FF  7F F0 FF FF 7F 73 61 32  ..R3.........sa2
10C0: 38 45 33 80 F0 FF FF 7F  F0 FF FF 7F 73 61 32 39  8E3.........sa29
10D0: 01 80 2B 5C 21 03 01 8F  80 1C 8E 80 52 33 80 F0  ..+\!.......R3..
10E0: FF FF 7F F0 FF FF 7F 73  61 32 39 4E 00 2C 22 03  .......sa29N.,".
10F0: 01 4E 00 2D 22 03 01 4E  00 2E 22 03 01 4E 00 2F  .N.-"..N.."..N./
1100: 22 03 01 4E 00 30 22 03  01 4E 00 31 22 03 01 4E  "..N.0"..N.1"..N
1110: 00 34 22 03 01 45 33 80  F0 FF FF 7F F0 FF FF 7F  .4"..E3.........
1120: 74 6B 30 38 01 80 1C 3C  80 2B 5C 21 03 01 90 80  tk08...<.+\!....
1130: 1C 8E 80 2B 5C 21 03 01  91 80 23 1C 92 80 4A 34  ...+\!....#...J4
1140: 22 03 01 5C 21 03 01 4A  2F 22 03 01 5C 21 03 01  "..\!..J/"..\!..
1150: 4A 30 22 03 01 5C 21 03  01 4A 31 22 03 01 5C 21  J0"..\!..J1"..\!
1160: 03 01 52 33 80 F0 FF FF  7F F0 FF FF 7F 74 6B 30  ..R3.........tk0
1170: 38 45 33 80 F0 FF FF 7F  F0 FF FF 7F 74 6B 30 39  8E3.........tk09
1180: 01 80 2C 5C 21 03 01 5C  21 03 01 73 68 73 6F 2B  ..,\!..\!..shso+
1190: 5C 21 03 01 93 80 23 1C  37 80 52 33 80 F0 FF FF  \!....#.7.R3....
11A0: 7F F0 FF FF 7F 74 6B 30  39 45 33 80 F0 FF FF 7F  .....tk09E3.....
11B0: F0 FF FF 7F 74 6B 31 30  01 80 2C 5C 21 03 01 5C  ....tk10..,\!..\
11C0: 21 03 01 63 61 73 6F 1C  3E 80 2B 5C 21 03 01 94  !..caso.>.+\!...
11D0: 80 23 52 33 80 F0 FF FF  7F F0 FF FF 7F 74 6B 31  .#R3.........tk1
11E0: 30 45 33 80 F0 FF FF 7F  F0 FF FF 7F 74 6B 31 31  0E3.........tk11
11F0: 01 80 1C 38 80 2C 5C 21  03 01 5C 21 03 01 73 68  ...8.,\!..\!..sh
1200: 73 6F 2B 5C 21 03 01 95  80 23 1C 37 80 52 33 80  so+\!....#.7.R3.
1210: F0 FF FF 7F F0 FF FF 7F  74 6B 31 31 45 33 80 F0  ........tk11E3..
1220: FF FF 7F F0 FF FF 7F 74  6B 31 32 01 80 1C 3E 80  .......tk12...>.
1230: 2C 5C 21 03 01 5C 21 03  01 63 61 73 6F 2B 5C 21  ,\!..\!..caso+\!
1240: 03 01 96 80 23 1C 34 80  2C 5C 21 03 01 5C 21 03  ....#.4.,\!..\!.
1250: 01 73 68 73 6F 1C 34 80  BA F0 FF FF 7F 97 80 98  .shso.4.........
1260: 80 99 80 9A 80 BA AC 21  03 01 9B 80 9C 80 99 80  .......!........
1270: 9A 80 4A F0 FF FF 7F 5C  21 03 01 4A AC 21 03 01  ..J....\!..J.!..
1280: 5C 21 03 01 5D 01 80 8E  80 52 33 80 F0 FF FF 7F  \!..]....R3.....
1290: F0 FF FF 7F 74 6B 31 32  45 33 80 F0 FF FF 7F F0  ....tk12E3......
12A0: FF FF 7F 73 61 33 31 01  80 59 03 2C 22 03 01 58  ...sa31..Y.,"..X
12B0: 80 79 00 2C 22 03 01 5C  21 03 01 59 03 2C 22 03  .y.,"..\!..Y.,".
12C0: 01 58 80 79 00 2D 22 03  01 5C 21 03 01 59 03 2C  .X.y.-"..\!..Y.,
12D0: 22 03 01 58 80 79 00 2E  22 03 01 5C 21 03 01 1C  "..X.y.."..\!...
12E0: 37 80 6E 34 22 03 01 9D  80 99 34 22 03 01 1C 34  7.n4".....4"...4
12F0: 80 66 01 80 2C 22 03 01  2C 22 03 01 74 6C 6B 30  .f..,"..,"..tlk0
1300: 2B 2C 22 03 01 9E 80 23  1C 37 80 66 01 80 2C 22  +,"....#.7.f..,"
1310: 03 01 2C 22 03 01 74 65  6E 30 1C 37 80 52 33 80  ..,"..ten0.7.R3.
1320: F0 FF FF 7F F0 FF FF 7F  73 61 33 31 45 33 80 F0  ........sa31E3..
1330: FF FF 7F F0 FF FF 7F 73  61 33 32 01 80 53 2C 22  .......sa32..S,"
1340: 03 01 2C 22 03 01 74 65  6E 30 7B 2C 22 03 01 1C  ..,"..ten0{,"...
1350: 34 80 2C 2C 22 03 01 2C  22 03 01 63 61 73 6F 2C  4.,,"..,"..caso,
1360: 2D 22 03 01 2D 22 03 01  63 61 73 6F 2C 2E 22 03  -"..-"..caso,.".
1370: 01 2E 22 03 01 63 61 73  6F 2B 2C 22 03 01 9F 80  .."..caso+,"....
1380: 23 1C A0 80 4A 30 22 03  01 2C 22 03 01 7B 30 22  #...J0"..,"..{0"
1390: 03 01 6F 76 30 22 03 01  52 33 80 F0 FF FF 7F F0  ..ov0"..R3......
13A0: FF FF 7F 73 61 33 32 45  33 80 F0 FF FF 7F F0 FF  ...sa32E3.......
13B0: FF 7F 73 61 33 35 01 80  4A 31 22 03 01 2C 22 03  ..sa35..J1"..,".
13C0: 01 79 00 31 22 03 01 2C  22 03 01 6F 76 31 22 03  .y.1"..,"..ov1".
13D0: 01 66 A1 80 31 22 03 01  31 22 03 01 75 72 65 30  .f..1"..1"..ure0
13E0: 1C 1C 80 52 33 80 F0 FF  FF 7F F0 FF FF 7F 73 61  ...R3.........sa
13F0: 33 35 45 33 80 F0 FF FF  7F F0 FF FF 7F 73 61 33  35E3.........sa3
1400: 36 01 80 79 00 34 22 03  01 2C 22 03 01 1C 34 80  6..y.4"..,"...4.
1410: 27 10 38 22 03 01 04 1C  5E 80 27 10 37 22 03 01  '.8"....^.'.7"..
1420: 0A 1C 5E 80 BA 82 20 03  01 A2 80 A3 80 99 80 9A  ..^... .........
1430: 80 BA 7E 20 03 01 A4 80  A5 80 99 80 9A 80 4A 82  ..~ ..........J.
1440: 20 03 01 2C 22 03 01 4A  7E 20 03 01 2C 22 03 01   ..,"..J~ ..,"..
1450: 52 33 80 F0 FF FF 7F F0  FF FF 7F 73 61 33 36 45  R3.........sa36E
1460: 33 80 F0 FF FF 7F F0 FF  FF 7F 74 6B 30 32 01 80  3.........tk02..
1470: 2A 10 37 22 03 01 1C 3C  80 6E 7E 20 03 01 9D 80  *.7"...<.n~ ....
1480: 99 7E 20 03 01 1C 78 80  52 33 80 F0 FF FF 7F F0  .~ ...x.R3......
1490: FF FF 7F 74 6B 30 32 45  33 80 F0 FF FF 7F F0 FF  ...tk02E3.......
14A0: FF 7F 73 61 33 37 01 80  27 10 5C 21 03 01 24 1C  ..sa37..'.\!..$.
14B0: 3C 80 2B 5C 21 03 01 A6  80 23 2C 2C 22 03 01 2C  <.+\!....#,,"..,
14C0: 22 03 01 73 68 73 6F 2C  2D 22 03 01 2D 22 03 01  "..shso,-"..-"..
14D0: 73 68 73 6F 2C 2E 22 03  01 2E 22 03 01 73 68 73  shso,."..."..shs
14E0: 6F 1C 5E 80 52 33 80 F0  FF FF 7F F0 FF FF 7F 73  o.^.R3.........s
14F0: 61 33 37 45 33 80 F0 FF  FF 7F F0 FF FF 7F 73 61  a37E3.........sa
1500: 33 38 01 80 6B 69 64 6C  30 5C 21 03 01 1C 37 80  38..kidl0\!...7.
1510: 2A 10 5C 21 03 01 6E 5C  21 03 01 75 80 99 5C 21  *.\!..n\!..u..\!
1520: 03 01 2B 5C 21 03 01 A7  80 23 4A F0 FF FF 7F 5C  ..+\!....#J....\
1530: 21 03 01 4A AC 21 03 01  5C 21 03 01 1C 37 80 2A  !..J.!..\!...7.*
1540: 10 37 22 03 01 2A 10 38  22 03 01 52 33 80 F0 FF  .7"..*.8"..R3...
1550: FF 7F F0 FF FF 7F 73 61  33 38 45 33 80 F0 FF FF  ......sa38E3....
1560: 7F F0 FF FF 7F 73 61 34  31 01 80 1C 34 80 7B 5C  .....sa41...4.{\
1570: 21 03 01 66 5E 80 5C 21  03 01 5C 21 03 01 6D 74  !..f^.\!..\!..mt
1580: 6B 30 2B 5C 21 03 01 A8  80 23 1C 78 80 2B 5C 21  k0+\!....#.x.+\!
1590: 03 01 A9 80 23 1C 34 80  66 5E 80 5C 21 03 01 5C  ....#.4.f^.\!..\
15A0: 21 03 01 6D 74 6B 31 1C  37 80 52 33 80 F0 FF FF  !..mtk1.7.R3....
15B0: 7F F0 FF FF 7F 73 61 34  31 45 33 80 F0 FF FF 7F  .....sa41E3.....
15C0: F0 FF FF 7F 73 61 34 32  01 80 5C 00 A0 80 5C 01  ....sa42..\...\.
15D0: A0 80 1C 78 80 BB AA 80  5C 21 03 01 5C 21 03 01  ...x....\!..\!..
15E0: 73 30 30 31 01 80 1C 78  80 6E 5C 21 03 01 53 80  s001...x.n\!..S.
15F0: 99 5C 21 03 01 4A 2F 22  03 01 5C 21 03 01 79 00  .\!..J/"..\!..y.
1600: 2F 22 03 01 5C 21 03 01  6F 76 2F 22 03 01 1C 92  /"..\!..ov/"....
1610: 80 C1 5C 21 03 01 C1 60  21 03 01 C1 2B 22 03 01  ..\!...`!...+"..
1620: C1 AC 21 03 01 C1 2C 22  03 01 C1 2D 22 03 01 C1  ..!...,"...-"...
1630: 2E 22 03 01 C1 2F 22 03  01 C1 30 22 03 01 C1 31  .".../"...0"...1
1640: 22 03 01 C1 34 22 03 01  52 33 80 F0 FF FF 7F F0  "...4"..R3......
1650: FF FF 7F 73 61 34 32 45  33 80 F0 FF FF 7F F0 FF  ...sa42E3.......
1660: FF 7F 73 61 34 34 01 80  2C 5C 21 03 01 5C 21 03  ..sa44..,\!..\!.
1670: 01 63 61 73 6F BA 60 21  03 01 AB 80 AC 80 06 80  .caso.`!........
1680: AD 80 4A 60 21 03 01 5C  21 03 01 5B 5D 80 60 21  ..J`!..\!..[].`!
1690: 03 01 60 21 03 01 6D 67  64 30 7B 60 21 03 01 4A  ..`!..mgd0{`!..J
16A0: 34 22 03 01 5C 21 03 01  6E 2F 22 03 01 01 80 99  4"..\!..n/".....
16B0: 2F 22 03 01 4A 7E 20 03  01 5C 21 03 01 4A 82 20  /"..J~ ..\!..J. 
16C0: 03 01 5C 21 03 01 27 10  30 22 03 01 04 27 10 31  ..\!..'.0"...'.1
16D0: 22 03 01 02 27 10 34 22  03 01 05 2B 2F 22 03 01  "...'.4"...+/"..
16E0: AE 80 23 1C 37 80 52 33  80 F0 FF FF 7F F0 FF FF  ..#.7.R3........
16F0: 7F 73 61 34 34 45 33 80  F0 FF FF 7F F0 FF FF 7F  .sa44E3.........
1700: 74 6B 30 36 01 80 1C 37  80 4A 7E 20 03 01 5C 21  tk06...7.J~ ..\!
1710: 03 01 4A 7E 20 03 01 5C  21 03 01 6E AC 21 03 01  ..J~ ..\!..n.!..
1720: AF 80 99 AC 21 03 01 1C  34 80 6E F0 FF FF 7F AF  ....!...4.n.....
1730: 80 99 F0 FF FF 7F 1C 34  80 52 33 80 F0 FF FF 7F  .......4.R3.....
1740: F0 FF FF 7F 74 6B 30 36  45 33 80 F0 FF FF 7F F0  ....tk06E3......
1750: FF FF 7F 73 61 34 35 01  80 27 10 2F 22 03 01 05  ...sa45..'./"...
1760: 2C 5C 21 03 01 5C 21 03  01 63 61 73 6F 4A 30 22  ,\!..\!..casoJ0"
1770: 03 01 5C 21 03 01 7B 30  22 03 01 6F 76 30 22 03  ..\!..{0"..ov0".
1780: 01 1C 3E 80 66 3C 80 30  22 03 01 30 22 03 01 74  ..>.f<.0"..0"..t
1790: 6C 6B 30 2B 30 22 03 01  B0 80 23 1C 37 80 66 3C  lk0+0"....#.7.f<
17A0: 80 30 22 03 01 30 22 03  01 74 6C 6B 31 4A 31 22  .0"..0"..tlk1J1"
17B0: 03 01 5C 21 03 01 79 00  31 22 03 01 5C 21 03 01  ..\!..y.1"..\!..
17C0: 1C 3E 80 4A 34 22 03 01  5C 21 03 01 79 00 34 22  .>.J4"..\!..y.4"
17D0: 03 01 5C 21 03 01 1C 75  80 4A 2C 22 03 01 5C 21  ..\!...u.J,"..\!
17E0: 03 01 79 00 2C 22 03 01  5C 21 03 01 BB A0 80 60  ..y.,"..\!.....`
17F0: 21 03 01 60 21 03 01 00  FE FE FE 01 80 52 33 80  !..`!........R3.
1800: F0 FF FF 7F F0 FF FF 7F  73 61 34 35 45 33 80 F0  ........sa45E3..
1810: FF FF 7F F0 FF FF 7F 73  61 34 36 01 80 6F 76 2C  .......sa46..ov,
1820: 22 03 01 4E 01 82 20 03  01 4E 01 53 20 03 01 4E  "..N.. ..N.S ..N
1830: 01 54 20 03 01 6E 2F 22  03 01 9D 80 99 2F 22 03  .T ..n/"...../".
1840: 01 6E 31 22 03 01 9D 80  99 31 22 03 01 2B 2F 22  .n1".....1"..+/"
1850: 03 01 B1 80 23 6E 30 22  03 01 9D 80 99 30 22 03  ....#n0".....0".
1860: 01 6E 34 22 03 01 9D 80  99 34 22 03 01 1C 37 80  .n4".....4"...7.
1870: 2A 10 37 22 03 01 BA 60  21 03 01 B2 80 B3 80 99  *.7"...`!.......
1880: 80 B4 80 1C 43 80 BB A0  80 60 21 03 01 60 21 03  ....C....`!..`!.
1890: 01 73 30 30 31 01 80 5B  5D 80 60 21 03 01 60 21  .s001..[].`!..`!
18A0: 03 01 6D 67 64 30 53 60  21 03 01 60 21 03 01 6D  ..mgd0S`!..`!..m
18B0: 67 64 30 52 33 80 F0 FF  FF 7F F0 FF FF 7F 73 61  gd0R3.........sa
18C0: 34 36 45 33 80 F0 FF FF  7F F0 FF FF 7F 73 61 34  46E3.........sa4
18D0: 37 01 80 2C 5C 21 03 01  5C 21 03 01 73 68 73 6F  7..,\!..\!..shso
18E0: 6E 2C 22 03 01 3A 80 99  2C 22 03 01 6E 34 22 03  n,"..:..,"..n4".
18F0: 01 9D 80 99 34 22 03 01  6E 2F 22 03 01 9D 80 99  ....4"..n/".....
1900: 2F 22 03 01 6E 30 22 03  01 9D 80 99 30 22 03 01  /"..n0".....0"..
1910: 1C 58 80 52 33 80 F0 FF  FF 7F F0 FF FF 7F 73 61  .X.R3.........sa
1920: 34 37 45 33 80 F0 FF FF  7F F0 FF FF 7F 73 61 34  47E3.........sa4
1930: 39 01 80 2C 5C 21 03 01  5C 21 03 01 63 61 73 6F  9..,\!..\!..caso
1940: 1C 00 80 2C 5C 21 03 01  5C 21 03 01 73 68 73 6F  ...,\!..\!..shso
1950: 1C B5 80 52 33 80 F0 FF  FF 7F F0 FF FF 7F 73 61  ...R3.........sa
1960: 34 39 45 33 80 F0 FF FF  7F F0 FF FF 7F 73 61 36  49E3.........sa6
1970: 32 01 80 1C 00 80 5D 01  80 B6 80 45 00 80 F0 FF  2.....]....E....
1980: FF 7F F0 FF FF 7F 66 64  6F 31 01 80 55 00 80 F0  ......fdo1..U...
1990: FF FF 7F F0 FF FF 7F 66  64 6F 31 52 33 80 F0 FF  .......fdo1R3...
19A0: FF 7F F0 FF FF 7F 73 61  36 32 BB AA 80 5C 21 03  ......sa62...\!.
19B0: 01 5C 21 03 01 73 30 30  32 01 80 BB A0 80 60 21  .\!..s002.....`!
19C0: 03 01 60 21 03 01 73 30  30 32 01 80 29 10 0B 22  ..`!..s002..).."
19D0: 03 01 1D 5C 00 5F 80 5C  01 5F 80 9A 46 00 45 00  ...\._.\._..F.E.
19E0: 80 F0 FF FF 7F F0 FF FF  7F 66 64 69 32 01 80 45  .........fdi2..E
19F0: 57 80 F8 FF FF 7F F8 FF  FF 7F 71 73 74 63 01 80  W.........qstc..
1A00: 21 00                                             !.              
```

#### Opcodes

```
  0: 0x0001 [0x42] SET_CLI_EVENT_CANCEL_DATA()
  1: 0x0002 [0x45] LOAD_SCHEDULED_TASK: Load scheduler "fdo1" with entities [LocalPlayer, LocalPlayer], work=[200*, 0*]
  2: 0x0013 [0x55] WAIT_LOAD_SCHEDULER: Wait for scheduler "fdo1" with entities [LocalPlayer, LocalPlayer], work=200*
  3: 0x0022 [0x46] CAMERA_CONTROL: Disable user control
  4: 0x0024 [0x38] SET_CLIENT_EVENT_MODE(mode=19*)
  5: 0x0027 [0x29] REQ_SET_WAIT(priority=0x10, entity_id=Unnamed NPC (ID: 16982539/0x0103220B), tag_num=0x1C)
  6: 0x002E [0x92] Fari-Wari (ID: 16982364/0x0103215C)->Render.Flags3 ^= 0x01
  7: 0x0034 [0x92] Gadalar (ID: 16982368/0x01032160)->Render.Flags3 ^= 0x01
  8: 0x003A [0x92] Malzaab (ID: 16982571/0x0103222B)->Render.Flags3 ^= 0x01
  9: 0x0040 [0x92] Shayadar (ID: 16982444/0x010321AC)->Render.Flags3 ^= 0x01
 10: 0x0046 [0x92] Wajran (ID: 16982572/0x0103222C)->Render.Flags3 ^= 0x01
 11: 0x004C [0x92] PAKU02 (ID: 16982573/0x0103222D)->Render.Flags3 ^= 0x01
 12: 0x0052 [0x92] PAKU03 (ID: 16982574/0x0103222E)->Render.Flags3 ^= 0x01
 13: 0x0058 [0x92] Kalidaaf (ID: 16982575/0x0103222F)->Render.Flags3 ^= 0x01
 14: 0x005E [0x92] Shaeema (ID: 16982576/0x01032230)->Render.Flags3 ^= 0x01
 15: 0x0064 [0x92] Rhub Wusthamoi (ID: 16982577/0x01032231)->Render.Flags3 ^= 0x01
 16: 0x006A [0x92] kenbutsu10 (ID: 16982580/0x01032234)->Render.Flags3 ^= 0x01
 17: 0x0070 [0x92] Zubyahn (ID: 16982146/0x01032082)->Render.Flags3 ^= 0x01
 18: 0x0076 [0x92] Halbeeya (ID: 16982142/0x0103207E)->Render.Flags3 ^= 0x01
 19: 0x007C [0x92] Fayeewah (ID: 16982099/0x01032053)->Render.Flags3 ^= 0x01
 20: 0x0082 [0x92] Yafaaf (ID: 16982100/0x01032054)->Render.Flags3 ^= 0x01
 21: 0x0088 [0x75] LOAD_ROOM(Load indoor room, room=565*)
 22: 0x008C [0x75] LOAD_ROOM(No action)
 23: 0x008E [0x94] LocalPlayer->Render.Flags3 ^= 0x01
 24: 0x0094 [0x94] Unnamed NPC (ID: 16982539/0x0103220B)->Render.Flags3 ^= 0x01
 25: 0x009A [0x94] Fari-Wari (ID: 16982364/0x0103215C)->Render.Flags3 ^= 0x01
 26: 0x00A0 [0x94] Gadalar (ID: 16982368/0x01032160)->Render.Flags3 ^= 0x01
 27: 0x00A6 [0x94] Malzaab (ID: 16982571/0x0103222B)->Render.Flags3 ^= 0x01
 28: 0x00AC [0x94] Shayadar (ID: 16982444/0x010321AC)->Render.Flags3 ^= 0x01
 29: 0x00B2 [0x94] Wajran (ID: 16982572/0x0103222C)->Render.Flags3 ^= 0x01
 30: 0x00B8 [0x94] PAKU02 (ID: 16982573/0x0103222D)->Render.Flags3 ^= 0x01
 31: 0x00BE [0x94] PAKU03 (ID: 16982574/0x0103222E)->Render.Flags3 ^= 0x01
 32: 0x00C4 [0x94] Kalidaaf (ID: 16982575/0x0103222F)->Render.Flags3 ^= 0x01
 33: 0x00CA [0x94] Shaeema (ID: 16982576/0x01032230)->Render.Flags3 ^= 0x01
 34: 0x00D0 [0x94] Rhub Wusthamoi (ID: 16982577/0x01032231)->Render.Flags3 ^= 0x01
 35: 0x00D6 [0x94] kenbutsu10 (ID: 16982580/0x01032234)->Render.Flags3 ^= 0x01
 36: 0x00DC [0x94] Zubyahn (ID: 16982146/0x01032082)->Render.Flags3 ^= 0x01
 37: 0x00E2 [0x94] Halbeeya (ID: 16982142/0x0103207E)->Render.Flags3 ^= 0x01
 38: 0x00E8 [0x94] Fayeewah (ID: 16982099/0x01032053)->Render.Flags3 ^= 0x01
 39: 0x00EE [0x94] Yafaaf (ID: 16982100/0x01032054)->Render.Flags3 ^= 0x01
 40: 0x00F4 [0x4E] SET_ENTITY_HIDE_FLAG: Show Unnamed NPC (ID: 16982539/0x0103220B)
 41: 0x00FA [0x4E] SET_ENTITY_HIDE_FLAG: Show Fari-Wari (ID: 16982364/0x0103215C)
 42: 0x0100 [0x4E] SET_ENTITY_HIDE_FLAG: Show Gadalar (ID: 16982368/0x01032160)
 43: 0x0106 [0x4E] SET_ENTITY_HIDE_FLAG: Show Malzaab (ID: 16982571/0x0103222B)
 44: 0x010C [0x4E] SET_ENTITY_HIDE_FLAG: Show Shayadar (ID: 16982444/0x010321AC)
 45: 0x0112 [0x4E] SET_ENTITY_HIDE_FLAG: Show Zubyahn (ID: 16982146/0x01032082)
 46: 0x0118 [0x4E] SET_ENTITY_HIDE_FLAG: Show Halbeeya (ID: 16982142/0x0103207E)
 47: 0x011E [0x4E] SET_ENTITY_HIDE_FLAG: Show Fayeewah (ID: 16982099/0x01032053)
 48: 0x0124 [0x4E] SET_ENTITY_HIDE_FLAG: Show Yafaaf (ID: 16982100/0x01032054)
 49: 0x012A [0x4E] SET_ENTITY_HIDE_FLAG: Hide Unknown NPC (ID: 16982046/0x0103201E)
 50: 0x0130 [0x2F] Unnamed NPC (ID: 16982539/0x0103220B)->Render.Flags0 &= ~0x80000 // Bit 19
 51: 0x0136 [0x2F] Fari-Wari (ID: 16982364/0x0103215C)->Render.Flags0 &= ~0x80000 // Bit 19
 52: 0x013C [0x2F] Shayadar (ID: 16982444/0x010321AC)->Render.Flags0 &= ~0x80000 // Bit 19
 53: 0x0142 [0x2F] Gadalar (ID: 16982368/0x01032160)->Render.Flags0 &= ~0x80000 // Bit 19
 54: 0x0148 [0xBA] SET_ENTITY_POSITION(entity_id=LocalPlayer, pos_x=78.619*, pos_z=-136.002*, pos_y=-6.000*, direction=35.2°*)
 55: 0x0155 [0xBA] SET_ENTITY_POSITION(entity_id=Unnamed NPC (ID: 16982539/0x0103220B), pos_x=78.619*, pos_z=-136.002*, pos_y=-6.000*, direction=35.2°*)
 56: 0x0162 [0xBA] SET_ENTITY_POSITION(entity_id=Fari-Wari (ID: 16982364/0x0103215C), pos_x=80.391*, pos_z=-136.859*, pos_y=-6.000*, direction=92.1°*)
 57: 0x016F [0xBA] SET_ENTITY_POSITION(entity_id=Gadalar (ID: 16982368/0x01032160), pos_x=94.654*, pos_z=-121.100*, pos_y=-14.150*, direction=59.2°*)
 58: 0x017C [0xBA] SET_ENTITY_POSITION(entity_id=Wajran (ID: 16982572/0x0103222C), pos_x=77.231*, pos_z=-129.359*, pos_y=-6.000*, direction=0.0°*)
 59: 0x0189 [0xBA] SET_ENTITY_POSITION(entity_id=PAKU02 (ID: 16982573/0x0103222D), pos_x=75.910*, pos_z=-128.359*, pos_y=-6.000*, direction=0.0°*)
 60: 0x0196 [0xBA] SET_ENTITY_POSITION(entity_id=PAKU03 (ID: 16982574/0x0103222E), pos_x=75.910*, pos_z=-130.359*, pos_y=-6.000*, direction=0.0°*)
 61: 0x01A3 [0xBA] SET_ENTITY_POSITION(entity_id=Kalidaaf (ID: 16982575/0x0103222F), pos_x=83.062*, pos_z=-124.503*, pos_y=-6.000*, direction=144.8°*)
 62: 0x01B0 [0xBA] SET_ENTITY_POSITION(entity_id=Shaeema (ID: 16982576/0x01032230), pos_x=79.371*, pos_z=-125.279*, pos_y=-6.000*, direction=184.6°*)
 63: 0x01BD [0xBA] SET_ENTITY_POSITION(entity_id=Rhub Wusthamoi (ID: 16982577/0x01032231), pos_x=77.603*, pos_z=-124.641*, pos_y=-6.000*, direction=8.8°*)
 64: 0x01CA [0xBA] SET_ENTITY_POSITION(entity_id=kenbutsu10 (ID: 16982580/0x01032234), pos_x=87.776*, pos_z=-131.218*, pos_y=-6.000*, direction=144.8°*)
 65: 0x01D7 [0xBA] SET_ENTITY_POSITION(entity_id=Zubyahn (ID: 16982146/0x01032082), pos_x=82.978*, pos_z=-137.881*, pos_y=-6.000*, direction=78.1°*)
 66: 0x01E4 [0xBA] SET_ENTITY_POSITION(entity_id=Halbeeya (ID: 16982142/0x0103207E), pos_x=85.879*, pos_z=-137.833*, pos_y=-6.000*, direction=89.5°*)
 67: 0x01F1 [0xBA] SET_ENTITY_POSITION(entity_id=Fayeewah (ID: 16982099/0x01032053), pos_x=81.321*, pos_z=-140.162*, pos_y=-6.000*, direction=268.1°*)
 68: 0x01FE [0xBA] SET_ENTITY_POSITION(entity_id=Yafaaf (ID: 16982100/0x01032054), pos_x=76.889*, pos_z=-140.379*, pos_y=-6.000*, direction=268.2°*)
 69: 0x020B [0x80] LOAD_WAIT(entity=Unnamed NPC (ID: 16982539/0x0103220B))
 70: 0x0210 [0x80] LOAD_WAIT(entity=Fari-Wari (ID: 16982364/0x0103215C))
 71: 0x0215 [0x80] LOAD_WAIT(entity=Gadalar (ID: 16982368/0x01032160))
 72: 0x021A [0x80] LOAD_WAIT(entity=Wajran (ID: 16982572/0x0103222C))
 73: 0x021F [0x80] LOAD_WAIT(entity=PAKU02 (ID: 16982573/0x0103222D))
 74: 0x0224 [0x80] LOAD_WAIT(entity=PAKU03 (ID: 16982574/0x0103222E))
 75: 0x0229 [0x80] LOAD_WAIT(entity=Kalidaaf (ID: 16982575/0x0103222F))
 76: 0x022E [0x80] LOAD_WAIT(entity=Shaeema (ID: 16982576/0x01032230))
 77: 0x0233 [0x80] LOAD_WAIT(entity=Rhub Wusthamoi (ID: 16982577/0x01032231))
 78: 0x0238 [0x80] LOAD_WAIT(entity=kenbutsu10 (ID: 16982580/0x01032234))
 79: 0x023D [0x80] LOAD_WAIT(entity=Zubyahn (ID: 16982146/0x01032082))
 80: 0x0242 [0x80] LOAD_WAIT(entity=Halbeeya (ID: 16982142/0x0103207E))
 81: 0x0247 [0x80] LOAD_WAIT(entity=Fayeewah (ID: 16982099/0x01032053))
 82: 0x024C [0x80] LOAD_WAIT(entity=Yafaaf (ID: 16982100/0x01032054))
 83: 0x0251 [0x79] LocalPlayer looks at LocalPlayer (Basic look)
 84: 0x025B [0x79] Unnamed NPC (ID: 16982539/0x0103220B) looks at Unnamed NPC (ID: 16982539/0x0103220B) (Basic look)
 85: 0x0265 [0x7B] Fari-Wari (ID: 16982364/0x0103215C) stops talking
 86: 0x026A [0x7B] Gadalar (ID: 16982368/0x01032160) stops talking
 87: 0x026F [0x7B] Wajran (ID: 16982572/0x0103222C) stops talking
 88: 0x0274 [0x7B] PAKU02 (ID: 16982573/0x0103222D) stops talking
 89: 0x0279 [0x7B] PAKU03 (ID: 16982574/0x0103222E) stops talking
 90: 0x027E [0x7B] Kalidaaf (ID: 16982575/0x0103222F) stops talking
 91: 0x0283 [0x7B] Shaeema (ID: 16982576/0x01032230) stops talking
 92: 0x0288 [0x7B] Rhub Wusthamoi (ID: 16982577/0x01032231) stops talking
 93: 0x028D [0x7B] kenbutsu10 (ID: 16982580/0x01032234) stops talking
 94: 0x0292 [0x7B] Zubyahn (ID: 16982146/0x01032082) stops talking
 95: 0x0297 [0x7B] Halbeeya (ID: 16982142/0x0103207E) stops talking
 96: 0x029C [0x7B] Fayeewah (ID: 16982099/0x01032053) stops talking
 97: 0x02A1 [0x7B] Yafaaf (ID: 16982100/0x01032054) stops talking
 98: 0x02A6 [0xBA] SET_ENTITY_POSITION(entity_id=LocalPlayer, pos_x=80.167*, pos_z=-133.697*, pos_y=-6.000*, direction=25.8°*)
 99: 0x02B3 [0xBA] SET_ENTITY_POSITION(entity_id=Unnamed NPC (ID: 16982539/0x0103220B), pos_x=80.167*, pos_z=-133.697*, pos_y=-6.000*, direction=25.8°*)
100: 0x02C0 [0x4A] Fari-Wari (ID: 16982364/0x0103215C) looks at LocalPlayer
101: 0x02C9 [0x6F] WAIT_FRAME_DELAY: Yield until WaitTime reaches zero
102: 0x02CA [0x76] CHECK_ENTITY_RENDER_FLAGS: Wait until Fari-Wari (ID: 16982364/0x0103215C) Render.Flags0 and Render.Flags3 conditions are met
103: 0x02CF [0x4A] LocalPlayer looks at Fari-Wari (ID: 16982364/0x0103215C)
104: 0x02D8 [0x79] LocalPlayer looks at Fari-Wari (ID: 16982364/0x0103215C) (Basic look)
105: 0x02E2 [0x6F] WAIT_FRAME_DELAY: Yield until WaitTime reaches zero
106: 0x02E3 [0x76] CHECK_ENTITY_RENDER_FLAGS: Wait until LocalPlayer Render.Flags0 and Render.Flags3 conditions are met
107: 0x02E8 [0xBA] SET_ENTITY_POSITION(entity_id=Shayadar (ID: 16982444/0x010321AC), pos_x=80.306*, pos_z=-123.237*, pos_y=-6.000*, direction=92.0°*)
108: 0x02F5 [0xBA] SET_ENTITY_POSITION(entity_id=??? (ID: 16982583/0x01032237), pos_x=80.079*, pos_z=-134.609*, pos_y=-6.000*, direction=92.1°*)
109: 0x0302 [0x80] LOAD_WAIT(entity=Shayadar (ID: 16982444/0x010321AC))
110: 0x0307 [0x80] LOAD_WAIT(entity=??? (ID: 16982583/0x01032237))
111: 0x030C [0x45] LOAD_SCHEDULED_TASK: Load scheduler "sa00" with entities [LocalPlayer, LocalPlayer], work=[435*, 0*]
112: 0x031D [0x45] LOAD_SCHEDULED_TASK: Load scheduler "fdi1" with entities [LocalPlayer, LocalPlayer], work=[200*, 0*]
113: 0x032E [0x55] WAIT_LOAD_SCHEDULER: Wait for scheduler "fdi1" with entities [LocalPlayer, LocalPlayer], work=200*
114: 0x033D [0x1C] WAIT(60* ticks)
115: 0x0340 [0x66] LOAD_EXT_SCHEDULER_MAIN: Load scheduler "tlk0" with entities [Fari-Wari (ID: 16982364/0x0103215C), Fari-Wari (ID: 16982364/0x0103215C)], work=49*
116: 0x034F [0x2B] Fari-Wari (ID: 16982364/0x0103215C) [14768*]:
    → "Oh, my attendant! Ever the leisurely [fellow/lass], aren't you? Listen, the streets are positively abuzz! Rumor has it that the traitor is a high-ranking Imperial general!"
117: 0x0356 [0x23] WAIT_FOR_DIALOG_INTERACTION
118: 0x0357 [0x1C] WAIT(30* ticks)
119: 0x035A [0x66] LOAD_EXT_SCHEDULER_MAIN: Load scheduler "tlk1" with entities [Fari-Wari (ID: 16982364/0x0103215C), Fari-Wari (ID: 16982364/0x0103215C)], work=49*
120: 0x0369 [0x53] WAIT_SCHEDULER_TASK: Wait for scheduler "tlk1" with entities [Fari-Wari (ID: 16982364/0x0103215C), Fari-Wari (ID: 16982364/0x0103215C)]
121: 0x0376 [0x27] REQ_SET(priority=0x10, entity_id=Unnamed NPC (ID: 16982539/0x0103220B), tag_num=0x69)
122: 0x037D [0x1C] WAIT(20* ticks)
123: 0x0380 [0x52] END_LOAD_SCHEDULER: End scheduler "sa00" with entities [LocalPlayer, LocalPlayer], work=435*
124: 0x038F [0x45] LOAD_SCHEDULED_TASK: Load scheduler "sa01" with entities [LocalPlayer, LocalPlayer], work=[435*, 0*]
125: 0x03A0 [0x1C] WAIT(30* ticks)
126: 0x03A3 [0x4A] Fari-Wari (ID: 16982364/0x0103215C) looks at LocalPlayer
127: 0x03AC [0x2B] Fari-Wari (ID: 16982364/0x0103215C) [14769*]:
    → "I would have been able to rush in for the exclusive scoop if I wasn't stuck here waiting for you! How are you going to make it up to me this time? Hmmmmmm?"
128: 0x03B3 [0x23] WAIT_FOR_DIALOG_INTERACTION
129: 0x03B4 [0x6E] LocalPlayer uses emote 22*
130: 0x03BB [0x99] Wait for LocalPlayer animation to complete
131: 0x03C0 [0x1C] WAIT(60* ticks)
132: 0x03C3 [0x27] REQ_SET(priority=0x10, entity_id=??? (ID: 16982583/0x01032237), tag_num=0x03)
133: 0x03CA [0x1C] WAIT(20* ticks)
134: 0x03CD [0x52] END_LOAD_SCHEDULER: End scheduler "sa01" with entities [LocalPlayer, LocalPlayer], work=435*
135: 0x03DC [0x45] LOAD_SCHEDULED_TASK: Load scheduler "sa02" with entities [LocalPlayer, LocalPlayer], work=[435*, 0*]
136: 0x03ED [0xBA] SET_ENTITY_POSITION(entity_id=LocalPlayer, pos_x=78.619*, pos_z=-136.002*, pos_y=-6.000*, direction=35.2°*)
137: 0x03FA [0xBA] SET_ENTITY_POSITION(entity_id=Unnamed NPC (ID: 16982539/0x0103220B), pos_x=78.619*, pos_z=-136.002*, pos_y=-6.000*, direction=35.2°*)
138: 0x0407 [0x27] REQ_SET(priority=0x10, entity_id=??? (ID: 16982584/0x01032238), tag_num=0x03)
139: 0x040E [0x1C] WAIT(30* ticks)
140: 0x0411 [0x2B] Shayadar (ID: 16982444/0x010321AC) [14770*]:
    → "Master Fari-Wari. <Player>. My apologies if I've kept you waiting."
141: 0x0418 [0x23] WAIT_FOR_DIALOG_INTERACTION
142: 0x0419 [0x2A] GET_REQ_LEVEL(level=16, entity_id=??? (ID: 16982583/0x01032237))
143: 0x041F [0x1C] WAIT(30* ticks)
144: 0x0422 [0x52] END_LOAD_SCHEDULER: End scheduler "sa02" with entities [LocalPlayer, LocalPlayer], work=435*
145: 0x0431 [0x45] LOAD_SCHEDULED_TASK: Load scheduler "sa03" with entities [LocalPlayer, LocalPlayer], work=[435*, 0*]
146: 0x0442 [0x2A] GET_REQ_LEVEL(level=16, entity_id=Shayadar (ID: 16982444/0x010321AC))
147: 0x0448 [0x6E] Fari-Wari (ID: 16982364/0x0103215C) uses emote 10*
148: 0x044F [0x99] Wait for Fari-Wari (ID: 16982364/0x0103215C) animation to complete
149: 0x0454 [0x99] Wait for Fari-Wari (ID: 16982364/0x0103215C) animation to complete
150: 0x0459 [0x2B] Fari-Wari (ID: 16982364/0x0103215C) [14771*]:
    → "You most certainly have. I tell you, the moss that was growing on me is now growing its own moss! So Shayadar, good man, are the stories true?"
151: 0x0460 [0x23] WAIT_FOR_DIALOG_INTERACTION
152: 0x0461 [0x1C] WAIT(30* ticks)
153: 0x0464 [0x52] END_LOAD_SCHEDULER: End scheduler "sa03" with entities [LocalPlayer, LocalPlayer], work=435*
154: 0x0473 [0x45] LOAD_SCHEDULED_TASK: Load scheduler "sa04" with entities [LocalPlayer, LocalPlayer], work=[435*, 0*]
155: 0x0484 [0x1C] WAIT(15* ticks)
156: 0x0487 [0x66] LOAD_EXT_SCHEDULER_MAIN: Load scheduler "thk1" with entities [Shayadar (ID: 16982444/0x010321AC), Shayadar (ID: 16982444/0x010321AC)], work=9*
157: 0x0496 [0x2B] Shayadar (ID: 16982444/0x010321AC) [14772*]:
    → "They are. No sooner had General Gadalar presented himself than he proceeded to confront the traitorous Malzaab in front of the whole committee. Which was all well and good, of course, but..."
158: 0x049D [0x23] WAIT_FOR_DIALOG_INTERACTION
159: 0x049E [0x1C] WAIT(30* ticks)
160: 0x04A1 [0x66] LOAD_EXT_SCHEDULER_MAIN: Load scheduler "thk2" with entities [Shayadar (ID: 16982444/0x010321AC), Shayadar (ID: 16982444/0x010321AC)], work=9*
161: 0x04B0 [0x1C] WAIT(60* ticks)
162: 0x04B3 [0x5D] SET_MUSIC_VOLUME(volume=0*, fade_time=200*)
163: 0x04B8 [0x45] LOAD_SCHEDULED_TASK: Load scheduler "fdo1" with entities [LocalPlayer, LocalPlayer], work=[200*, 0*]
164: 0x04C9 [0x55] WAIT_LOAD_SCHEDULER: Wait for scheduler "fdo1" with entities [LocalPlayer, LocalPlayer], work=200*
165: 0x04D8 [0x52] END_LOAD_SCHEDULER: End scheduler "sa04" with entities [LocalPlayer, LocalPlayer], work=435*
166: 0x04E7 [0x52] END_LOAD_SCHEDULER: End scheduler "sa06" with entities [LocalPlayer, LocalPlayer], work=435*
167: 0x04F6 [0x1C] WAIT(360* ticks)
168: 0x04F9 [0x34] LOAD_UNLOAD_ZONE(zone_id=559*)
169: 0x04FC [0x77] SET_EVENT_TIME_WEATHER(hour=0*, weather=1*)
170: 0x0501 [0x1C] WAIT(30* ticks)
171: 0x0504 [0x4E] SET_ENTITY_HIDE_FLAG: Hide Unknown NPC (ID: 16982046/0x0103201E)
172: 0x050A [0xAB] EventEntity->UnknownFlag = 1 // Enable unknown flag
173: 0x050C [0x1C] WAIT(10* ticks)
174: 0x050F [0x4E] SET_ENTITY_HIDE_FLAG: Hide Fari-Wari (ID: 16982364/0x0103215C)
175: 0x0515 [0x4E] SET_ENTITY_HIDE_FLAG: Hide Shayadar (ID: 16982444/0x010321AC)
176: 0x051B [0x4E] SET_ENTITY_HIDE_FLAG: Hide Wajran (ID: 16982572/0x0103222C)
177: 0x0521 [0x4E] SET_ENTITY_HIDE_FLAG: Hide PAKU02 (ID: 16982573/0x0103222D)
178: 0x0527 [0x4E] SET_ENTITY_HIDE_FLAG: Hide PAKU03 (ID: 16982574/0x0103222E)
179: 0x052D [0x4E] SET_ENTITY_HIDE_FLAG: Hide Kalidaaf (ID: 16982575/0x0103222F)
180: 0x0533 [0x4E] SET_ENTITY_HIDE_FLAG: Hide Shaeema (ID: 16982576/0x01032230)
181: 0x0539 [0x4E] SET_ENTITY_HIDE_FLAG: Hide Rhub Wusthamoi (ID: 16982577/0x01032231)
182: 0x053F [0x4E] SET_ENTITY_HIDE_FLAG: Hide kenbutsu10 (ID: 16982580/0x01032234)
183: 0x0545 [0x4E] SET_ENTITY_HIDE_FLAG: Hide Zubyahn (ID: 16982146/0x01032082)
184: 0x054B [0x4E] SET_ENTITY_HIDE_FLAG: Hide Halbeeya (ID: 16982142/0x0103207E)
185: 0x0551 [0x4E] SET_ENTITY_HIDE_FLAG: Hide Fayeewah (ID: 16982099/0x01032053)
186: 0x0557 [0x4E] SET_ENTITY_HIDE_FLAG: Hide Yafaaf (ID: 16982100/0x01032054)
187: 0x055D [0xBA] SET_ENTITY_POSITION(entity_id=HEI1 (ID: 16982599/0x01032247), pos_x=0.400*, pos_z=-30.699*, pos_y=0.000*, direction=281.9°*)
188: 0x056A [0xBA] SET_ENTITY_POSITION(entity_id=HEI2 (ID: 16982600/0x01032248), pos_x=-1.100*, pos_z=-30.699*, pos_y=0.000*, direction=281.9°*)
189: 0x0577 [0xBA] SET_ENTITY_POSITION(entity_id=HEI3 (ID: 16982601/0x01032249), pos_x=-2.600*, pos_z=-30.699*, pos_y=0.000*, direction=281.9°*)
190: 0x0584 [0xBA] SET_ENTITY_POSITION(entity_id=HEI4 (ID: 16982602/0x0103224A), pos_x=-4.100*, pos_z=-30.699*, pos_y=0.000*, direction=281.9°*)
191: 0x0591 [0xBA] SET_ENTITY_POSITION(entity_id=HEI5 (ID: 16982603/0x0103224B), pos_x=0.400*, pos_z=-23.500*, pos_y=0.000*, direction=87.9°*)
192: 0x059E [0xBA] SET_ENTITY_POSITION(entity_id=HEI6 (ID: 16982604/0x0103224C), pos_x=-1.100*, pos_z=-23.500*, pos_y=0.000*, direction=87.9°*)
193: 0x05AB [0xBA] SET_ENTITY_POSITION(entity_id=HEI7 (ID: 16982605/0x0103224D), pos_x=-2.600*, pos_z=-23.500*, pos_y=0.000*, direction=87.9°*)
194: 0x05B8 [0xBA] SET_ENTITY_POSITION(entity_id=HEI8 (ID: 16982606/0x0103224E), pos_x=-4.100*, pos_z=-23.500*, pos_y=0.000*, direction=87.9°*)
195: 0x05C5 [0xBA] SET_ENTITY_POSITION(entity_id=Malzaab (ID: 16982571/0x0103222B), pos_x=1.827*, pos_z=-27.282*, pos_y=0.000*, direction=175.8°*)
196: 0x05D2 [0xBA] SET_ENTITY_POSITION(entity_id=Gadalar (ID: 16982368/0x01032160), pos_x=-2.438*, pos_z=-27.426*, pos_y=0.000*, direction=0.0°*)
197: 0x05DF [0x80] LOAD_WAIT(entity=LocalPlayer)
198: 0x05E4 [0x80] LOAD_WAIT(entity=Gadalar (ID: 16982368/0x01032160))
199: 0x05E9 [0x80] LOAD_WAIT(entity=Malzaab (ID: 16982571/0x0103222B))
200: 0x05EE [0x5B] LOAD_EXT_SCHEDULER: Load scheduler "fgh0" with entities [Gadalar (ID: 16982368/0x01032160), Gadalar (ID: 16982368/0x01032160)], work=1091*
201: 0x05FD [0x53] WAIT_SCHEDULER_TASK: Wait for scheduler "fgh0" with entities [Gadalar (ID: 16982368/0x01032160), Gadalar (ID: 16982368/0x01032160)]
202: 0x060A [0x5B] LOAD_EXT_SCHEDULER: Load scheduler "cr00" with entities [Malzaab (ID: 16982571/0x0103222B), Malzaab (ID: 16982571/0x0103222B)], work=846*
203: 0x0619 [0x53] WAIT_SCHEDULER_TASK: Wait for scheduler "cr00" with entities [Malzaab (ID: 16982571/0x0103222B), Malzaab (ID: 16982571/0x0103222B)]
204: 0x0626 [0x4A] Gadalar (ID: 16982368/0x01032160) looks at Malzaab (ID: 16982571/0x0103222B)
205: 0x062F [0x79] Gadalar (ID: 16982368/0x01032160) looks at Malzaab (ID: 16982571/0x0103222B) (Basic look)
206: 0x0639 [0x6F] WAIT_FRAME_DELAY: Yield until WaitTime reaches zero
207: 0x063A [0x76] CHECK_ENTITY_RENDER_FLAGS: Wait until Gadalar (ID: 16982368/0x01032160) Render.Flags0 and Render.Flags3 conditions are met
208: 0x063F [0x4A] Malzaab (ID: 16982571/0x0103222B) looks at Gadalar (ID: 16982368/0x01032160)
209: 0x0648 [0x79] Malzaab (ID: 16982571/0x0103222B) looks at Gadalar (ID: 16982368/0x01032160) (Basic look)
210: 0x0652 [0x6F] WAIT_FRAME_DELAY: Yield until WaitTime reaches zero
211: 0x0653 [0x76] CHECK_ENTITY_RENDER_FLAGS: Wait until Malzaab (ID: 16982571/0x0103222B) Render.Flags0 and Render.Flags3 conditions are met
212: 0x0658 [0x5C] MUSIC_CONTROL: Set Idle (Day) music to song 143*
213: 0x065C [0x5C] MUSIC_CONTROL: Set Idle (Night) music to song 143*
214: 0x0660 [0x9A] WAIT_MUSIC_SERVER()
215: 0x0661 [0x45] LOAD_SCHEDULED_TASK: Load scheduler "tk04" with entities [LocalPlayer, LocalPlayer], work=[435*, 0*]
216: 0x0672 [0x45] LOAD_SCHEDULED_TASK: Load scheduler "fdi1" with entities [LocalPlayer, LocalPlayer], work=[200*, 0*]
217: 0x0683 [0x55] WAIT_LOAD_SCHEDULER: Wait for scheduler "fdi1" with entities [LocalPlayer, LocalPlayer], work=200*
218: 0x0692 [0x6E] Malzaab (ID: 16982571/0x0103222B) uses emote 29*
219: 0x0699 [0x99] Wait for Malzaab (ID: 16982571/0x0103222B) animation to complete
220: 0x069E [0x1C] WAIT(125* ticks)
221: 0x06A1 [0x52] END_LOAD_SCHEDULER: End scheduler "tk04" with entities [LocalPlayer, LocalPlayer], work=435*
222: 0x06B0 [0x45] LOAD_SCHEDULED_TASK: Load scheduler "tk05" with entities [LocalPlayer, LocalPlayer], work=[435*, 0*]
223: 0x06C1 [0x5B] LOAD_EXT_SCHEDULER: Load scheduler "stm0" with entities [Gadalar (ID: 16982368/0x01032160), Gadalar (ID: 16982368/0x01032160)], work=1091*
224: 0x06D0 [0xBB] LOAD_EVENT_SCHEDULER_ALT: Load scheduler "st00" with entities [Gadalar (ID: 16982368/0x01032160), Gadalar (ID: 16982368/0x01032160)], work=[79*, 0*]
225: 0x06E1 [0x1C] WAIT(195* ticks)
226: 0x06E4 [0x45] LOAD_SCHEDULED_TASK: Load scheduler "who1" with entities [LocalPlayer, LocalPlayer], work=[201*, 0*]
227: 0x06F5 [0x55] WAIT_LOAD_SCHEDULER: Wait for scheduler "who1" with entities [LocalPlayer, LocalPlayer], work=201*
228: 0x0704 [0x52] END_LOAD_SCHEDULER: End scheduler "tk05" with entities [LocalPlayer, LocalPlayer], work=435*
229: 0x0713 [0x45] LOAD_SCHEDULED_TASK: Load scheduler "0000" with entities [LocalPlayer, LocalPlayer], work=[435*, 0*]
230: 0x0724 [0x55] WAIT_LOAD_SCHEDULER: Wait for scheduler "0000" with entities [LocalPlayer, LocalPlayer], work=435*
231: 0x0733 [0x52] END_LOAD_SCHEDULER: End scheduler "0000" with entities [LocalPlayer, LocalPlayer], work=435*
232: 0x0742 [0x6B] STOP_AND_IDLE: Gadalar (ID: 16982368/0x01032160) stops current action and resets to idle (animation="idl0")
233: 0x074B [0x5D] SET_MUSIC_VOLUME(volume=0*, fade_time=150*)
234: 0x0750 [0x6A] CHANGE_SOUND_VOLUME: Set (Effects/System/Zone/Master)* volume to 0*, fade_time=60*
235: 0x0757 [0x45] LOAD_SCHEDULED_TASK: Load scheduler "fdo1" with entities [LocalPlayer, LocalPlayer], work=[200*, 0*]
236: 0x0768 [0x55] WAIT_LOAD_SCHEDULER: Wait for scheduler "fdo1" with entities [LocalPlayer, LocalPlayer], work=200*
237: 0x0777 [0x52] END_LOAD_SCHEDULER: End scheduler "sa60" with entities [LocalPlayer, LocalPlayer], work=435*
238: 0x0786 [0x45] LOAD_SCHEDULED_TASK: Load scheduler "whi1" with entities [LocalPlayer, LocalPlayer], work=[201*, 0*]
239: 0x0797 [0x55] WAIT_LOAD_SCHEDULER: Wait for scheduler "whi1" with entities [LocalPlayer, LocalPlayer], work=201*
240: 0x07A6 [0x35] LOAD_ZONE_NO_CLOSE(zone_id=50*)
241: 0x07A9 [0x78] ENABLE_GAME_TIMER_RESET_WEATHER()
242: 0x07AA [0x1C] WAIT(3* ticks)
243: 0x07AD [0x22] ENTITY_HIDE_FLAG(enabled=0x00)
244: 0x07AF [0x45] LOAD_SCHEDULED_TASK: Load scheduler "nose" with entities [LocalPlayer, LocalPlayer], work=[272*, 0*]
245: 0x07C0 [0x55] WAIT_LOAD_SCHEDULER: Wait for scheduler "nose" with entities [LocalPlayer, LocalPlayer], work=272*
246: 0x07CF [0x6A] CHANGE_SOUND_VOLUME: Set (Effects/System/Zone/Master)* volume to 999*, fade_time=60*
247: 0x07D6 [0xAB] EventEntity->UnknownFlag = 0 // Disable unknown flag
248: 0x07D8 [0x2D] CREATE_ZONE_SCHEDULER_TASK: Create scheduler "1pb1" with entities [LocalPlayer, LocalPlayer]
249: 0x07E5 [0x1C] WAIT(30* ticks)
250: 0x07E8 [0x4E] SET_ENTITY_HIDE_FLAG: Show Unknown NPC (ID: 16982046/0x0103201E)
251: 0x07EE [0x29] REQ_SET_WAIT(priority=0x10, entity_id=Unnamed NPC (ID: 16982539/0x0103220B), tag_num=0x1C)
252: 0x07F5 [0x29] REQ_SET_WAIT(priority=0x10, entity_id=Malzaab (ID: 16982571/0x0103222B), tag_num=0x03)
253: 0x07FC [0x80] LOAD_WAIT(entity=Malzaab (ID: 16982571/0x0103222B))
254: 0x0801 [0x75] LOAD_ROOM(Load indoor room, room=565*)
255: 0x0805 [0x75] LOAD_ROOM(No action)
256: 0x0807 [0x4E] SET_ENTITY_HIDE_FLAG: Show Fari-Wari (ID: 16982364/0x0103215C)
257: 0x080D [0x4E] SET_ENTITY_HIDE_FLAG: Show Shayadar (ID: 16982444/0x010321AC)
258: 0x0813 [0x4E] SET_ENTITY_HIDE_FLAG: Show Kalidaaf (ID: 16982575/0x0103222F)
259: 0x0819 [0x4E] SET_ENTITY_HIDE_FLAG: Show Shaeema (ID: 16982576/0x01032230)
260: 0x081F [0x4E] SET_ENTITY_HIDE_FLAG: Show Rhub Wusthamoi (ID: 16982577/0x01032231)
261: 0x0825 [0x4E] SET_ENTITY_HIDE_FLAG: Show kenbutsu10 (ID: 16982580/0x01032234)
262: 0x082B [0x4E] SET_ENTITY_HIDE_FLAG: Show Zubyahn (ID: 16982146/0x01032082)
263: 0x0831 [0x4E] SET_ENTITY_HIDE_FLAG: Show Halbeeya (ID: 16982142/0x0103207E)
264: 0x0837 [0x4E] SET_ENTITY_HIDE_FLAG: Show Fayeewah (ID: 16982099/0x01032053)
265: 0x083D [0x4E] SET_ENTITY_HIDE_FLAG: Show Yafaaf (ID: 16982100/0x01032054)
266: 0x0843 [0x4E] SET_ENTITY_HIDE_FLAG: Hide Malzaab (ID: 16982571/0x0103222B)
267: 0x0849 [0xBA] SET_ENTITY_POSITION(entity_id=Unnamed NPC (ID: 16982539/0x0103220B), pos_x=78.619*, pos_z=-136.002*, pos_y=-6.000*, direction=35.2°*)
268: 0x0856 [0xBA] SET_ENTITY_POSITION(entity_id=Gadalar (ID: 16982368/0x01032160), pos_x=94.654*, pos_z=-121.100*, pos_y=-14.150*, direction=59.2°*)
269: 0x0863 [0x80] LOAD_WAIT(entity=LocalPlayer)
270: 0x0868 [0x80] LOAD_WAIT(entity=Unnamed NPC (ID: 16982539/0x0103220B))
271: 0x086D [0x80] LOAD_WAIT(entity=Fari-Wari (ID: 16982364/0x0103215C))
272: 0x0872 [0x80] LOAD_WAIT(entity=Gadalar (ID: 16982368/0x01032160))
273: 0x0877 [0x80] LOAD_WAIT(entity=Shayadar (ID: 16982444/0x010321AC))
274: 0x087C [0x80] LOAD_WAIT(entity=Wajran (ID: 16982572/0x0103222C))
275: 0x0881 [0x80] LOAD_WAIT(entity=PAKU02 (ID: 16982573/0x0103222D))
276: 0x0886 [0x80] LOAD_WAIT(entity=PAKU03 (ID: 16982574/0x0103222E))
277: 0x088B [0x80] LOAD_WAIT(entity=Kalidaaf (ID: 16982575/0x0103222F))
278: 0x0890 [0x80] LOAD_WAIT(entity=Shaeema (ID: 16982576/0x01032230))
279: 0x0895 [0x80] LOAD_WAIT(entity=Rhub Wusthamoi (ID: 16982577/0x01032231))
280: 0x089A [0x80] LOAD_WAIT(entity=kenbutsu10 (ID: 16982580/0x01032234))
281: 0x089F [0x80] LOAD_WAIT(entity=Zubyahn (ID: 16982146/0x01032082))
282: 0x08A4 [0x80] LOAD_WAIT(entity=Halbeeya (ID: 16982142/0x0103207E))
283: 0x08A9 [0x80] LOAD_WAIT(entity=Fayeewah (ID: 16982099/0x01032053))
284: 0x08AE [0x80] LOAD_WAIT(entity=Yafaaf (ID: 16982100/0x01032054))
285: 0x08B3 [0x79] LocalPlayer looks at LocalPlayer (Basic look)
286: 0x08BD [0x79] Unnamed NPC (ID: 16982539/0x0103220B) looks at Unnamed NPC (ID: 16982539/0x0103220B) (Basic look)
287: 0x08C7 [0x79] Fari-Wari (ID: 16982364/0x0103215C) looks at Shayadar (ID: 16982444/0x010321AC) (Basic look)
288: 0x08D1 [0x7B] Gadalar (ID: 16982368/0x01032160) stops talking
289: 0x08D6 [0x79] Shayadar (ID: 16982444/0x010321AC) looks at Fari-Wari (ID: 16982364/0x0103215C) (Basic look)
290: 0x08E0 [0x7B] Wajran (ID: 16982572/0x0103222C) stops talking
291: 0x08E5 [0x7B] PAKU02 (ID: 16982573/0x0103222D) stops talking
292: 0x08EA [0x7B] PAKU03 (ID: 16982574/0x0103222E) stops talking
293: 0x08EF [0x7B] Kalidaaf (ID: 16982575/0x0103222F) stops talking
294: 0x08F4 [0x7B] Shaeema (ID: 16982576/0x01032230) stops talking
295: 0x08F9 [0x7B] Rhub Wusthamoi (ID: 16982577/0x01032231) stops talking
296: 0x08FE [0x7B] kenbutsu10 (ID: 16982580/0x01032234) stops talking
297: 0x0903 [0x7B] Zubyahn (ID: 16982146/0x01032082) stops talking
298: 0x0908 [0x7B] Halbeeya (ID: 16982142/0x0103207E) stops talking
299: 0x090D [0x7B] Fayeewah (ID: 16982099/0x01032053) stops talking
300: 0x0912 [0x7B] Yafaaf (ID: 16982100/0x01032054) stops talking
301: 0x0917 [0x5B] LOAD_EXT_SCHEDULER: Load scheduler "mgd0" with entities [Gadalar (ID: 16982368/0x01032160), Gadalar (ID: 16982368/0x01032160)], work=1171*
302: 0x0926 [0x53] WAIT_SCHEDULER_TASK: Wait for scheduler "mgd0" with entities [Gadalar (ID: 16982368/0x01032160), Gadalar (ID: 16982368/0x01032160)]
303: 0x0933 [0x4A] Shayadar (ID: 16982444/0x010321AC) looks at Fari-Wari (ID: 16982364/0x0103215C)
304: 0x093C [0x79] Shayadar (ID: 16982444/0x010321AC) looks at Fari-Wari (ID: 16982364/0x0103215C) (Basic look)
305: 0x0946 [0x4A] Fari-Wari (ID: 16982364/0x0103215C) looks at ??? (ID: 16982583/0x01032237)
306: 0x094F [0x79] Fari-Wari (ID: 16982364/0x0103215C) looks at ??? (ID: 16982583/0x01032237) (Basic look)
307: 0x0959 [0x4A] LocalPlayer looks at ??? (ID: 16982583/0x01032237)
308: 0x0962 [0x79] LocalPlayer looks at Shayadar (ID: 16982444/0x010321AC) (Basic look)
309: 0x096C [0x6F] WAIT_FRAME_DELAY: Yield until WaitTime reaches zero
310: 0x096D [0x76] CHECK_ENTITY_RENDER_FLAGS: Wait until Fari-Wari (ID: 16982364/0x0103215C) Render.Flags0 and Render.Flags3 conditions are met
311: 0x0972 [0x66] LOAD_EXT_SCHEDULER_MAIN: Load scheduler "obi0" with entities [Fari-Wari (ID: 16982364/0x0103215C), Fari-Wari (ID: 16982364/0x0103215C)], work=40*
312: 0x0981 [0x53] WAIT_SCHEDULER_TASK: Wait for scheduler "obi0" with entities [Fari-Wari (ID: 16982364/0x0103215C), Fari-Wari (ID: 16982364/0x0103215C)]
313: 0x098E [0x5C] MUSIC_CONTROL: Set Idle (Day) music to song 178*
314: 0x0992 [0x5C] MUSIC_CONTROL: Set Idle (Night) music to song 178*
315: 0x0996 [0x45] LOAD_SCHEDULED_TASK: Load scheduler "sa07" with entities [LocalPlayer, LocalPlayer], work=[435*, 0*]
316: 0x09A7 [0x45] LOAD_SCHEDULED_TASK: Load scheduler "fdi1" with entities [LocalPlayer, LocalPlayer], work=[200*, 0*]
317: 0x09B8 [0x55] WAIT_LOAD_SCHEDULER: Wait for scheduler "fdi1" with entities [LocalPlayer, LocalPlayer], work=200*
318: 0x09C7 [0x2B] Fari-Wari (ID: 16982364/0x0103215C) [14775*]:
    → "...And the hall was left in shambles?"
319: 0x09CE [0x23] WAIT_FOR_DIALOG_INTERACTION
320: 0x09CF [0x1C] WAIT(30* ticks)
321: 0x09D2 [0x52] END_LOAD_SCHEDULER: End scheduler "sa07" with entities [LocalPlayer, LocalPlayer], work=435*
322: 0x09E1 [0x9A] WAIT_MUSIC_SERVER()
323: 0x09E2 [0x45] LOAD_SCHEDULED_TASK: Load scheduler "sa08" with entities [LocalPlayer, LocalPlayer], work=[435*, 0*]
324: 0x09F3 [0x66] LOAD_EXT_SCHEDULER_MAIN: Load scheduler "obi1" with entities [Fari-Wari (ID: 16982364/0x0103215C), Fari-Wari (ID: 16982364/0x0103215C)], work=40*
325: 0x0A02 [0x6E] Shayadar (ID: 16982444/0x010321AC) uses emote 19*
326: 0x0A09 [0x99] Wait for Shayadar (ID: 16982444/0x010321AC) animation to complete
327: 0x0A0E [0x2B] Shayadar (ID: 16982444/0x010321AC) [14776*]:
    → "Indeed. 'Tis not likely to go unpunished. Still, needless to say, he's been cleared of all allegations of treason."
328: 0x0A15 [0x23] WAIT_FOR_DIALOG_INTERACTION
329: 0x0A16 [0x53] WAIT_SCHEDULER_TASK: Wait for scheduler "tlk1" with entities [Fari-Wari (ID: 16982364/0x0103215C), Fari-Wari (ID: 16982364/0x0103215C)]
330: 0x0A23 [0x52] END_LOAD_SCHEDULER: End scheduler "sa08" with entities [LocalPlayer, LocalPlayer], work=435*
331: 0x0A32 [0x45] LOAD_SCHEDULED_TASK: Load scheduler "sa09" with entities [LocalPlayer, LocalPlayer], work=[435*, 0*]
332: 0x0A43 [0x1C] WAIT(10* ticks)
333: 0x0A46 [0x66] LOAD_EXT_SCHEDULER_MAIN: Load scheduler "tlk0" with entities [Fari-Wari (ID: 16982364/0x0103215C), Fari-Wari (ID: 16982364/0x0103215C)], work=49*
334: 0x0A55 [0x2B] Fari-Wari (ID: 16982364/0x0103215C) [14777*]:
    → "Now that's a relief!"
335: 0x0A5C [0x23] WAIT_FOR_DIALOG_INTERACTION
336: 0x0A5D [0x66] LOAD_EXT_SCHEDULER_MAIN: Load scheduler "tlk1" with entities [Fari-Wari (ID: 16982364/0x0103215C), Fari-Wari (ID: 16982364/0x0103215C)], work=49*
337: 0x0A6C [0x2B] Shayadar (ID: 16982444/0x010321AC) [14778*]:
    → "Verily."
338: 0x0A73 [0x23] WAIT_FOR_DIALOG_INTERACTION
339: 0x0A74 [0x1C] WAIT(30* ticks)
340: 0x0A77 [0x52] END_LOAD_SCHEDULER: End scheduler "sa09" with entities [LocalPlayer, LocalPlayer], work=435*
341: 0x0A86 [0x45] LOAD_SCHEDULED_TASK: Load scheduler "sa10" with entities [LocalPlayer, LocalPlayer], work=[435*, 0*]
342: 0x0A97 [0x1C] WAIT(20* ticks)
343: 0x0A9A [0x4A] Shayadar (ID: 16982444/0x010321AC) looks at LocalPlayer
344: 0x0AA3 [0x03] Work_Zone[2] = 2187*
345: 0x0AA8 [0x2B] Shayadar (ID: 16982444/0x010321AC) [14779*]:
    → "Oho, which reminds me! It might not be much, but here's a humble reward for your efforts."
346: 0x0AAF [0x23] WAIT_FOR_DIALOG_INTERACTION
347: 0x0AB0 [0x52] END_LOAD_SCHEDULER: End scheduler "sa10" with entities [LocalPlayer, LocalPlayer], work=435*
348: 0x0ABF [0x45] LOAD_SCHEDULED_TASK: Load scheduler "tk00" with entities [LocalPlayer, LocalPlayer], work=[435*, 0*]
349: 0x0AD0 [0x6E] Fari-Wari (ID: 16982364/0x0103215C) uses emote 24*
350: 0x0AD7 [0x99] Wait for Fari-Wari (ID: 16982364/0x0103215C) animation to complete
351: 0x0ADC [0x2B] Fari-Wari (ID: 16982364/0x0103215C) [14780*]:
    → "A present for Fari-Wari the Courageous? Shayadar, my good man, you're far too kind! After all, I did little but risk life, limb, and my most fashionable attire in a selfless attempt to defend the Flameserpent General's honor--"
352: 0x0AE3 [0x23] WAIT_FOR_DIALOG_INTERACTION
353: 0x0AE4 [0x52] END_LOAD_SCHEDULER: End scheduler "tk00" with entities [LocalPlayer, LocalPlayer], work=435*
354: 0x0AF3 [0x45] LOAD_SCHEDULED_TASK: Load scheduler "tk01" with entities [LocalPlayer, LocalPlayer], work=[435*, 0*]
355: 0x0B04 [0x4A] Shayadar (ID: 16982444/0x010321AC) looks at Fari-Wari (ID: 16982364/0x0103215C)
356: 0x0B0D [0x2B] Shayadar (ID: 16982444/0x010321AC) [14781*]:
    → "Ah... My pardons, Master Fari-Wari. I'm under strict orders from the gift's bestower to present it directly to <Player>."
357: 0x0B14 [0x23] WAIT_FOR_DIALOG_INTERACTION
358: 0x0B15 [0x6E] Fari-Wari (ID: 16982364/0x0103215C) uses emote 19*
359: 0x0B1C [0x99] Wait for Fari-Wari (ID: 16982364/0x0103215C) animation to complete
360: 0x0B21 [0x2B] Fari-Wari (ID: 16982364/0x0103215C) [14782*]:
    → "Wh-what!? The indignity! Who could possibly be so callous as to say such a thing?"
361: 0x0B28 [0x23] WAIT_FOR_DIALOG_INTERACTION
362: 0x0B29 [0x52] END_LOAD_SCHEDULER: End scheduler "tk01" with entities [LocalPlayer, LocalPlayer], work=435*
363: 0x0B38 [0x45] LOAD_SCHEDULED_TASK: Load scheduler "sa11" with entities [LocalPlayer, LocalPlayer], work=[435*, 0*]
364: 0x0B49 [0x7B] Shayadar (ID: 16982444/0x010321AC) stops talking
365: 0x0B4E [0x6E] Shayadar (ID: 16982444/0x010321AC) uses emote 4*
366: 0x0B55 [0x99] Wait for Shayadar (ID: 16982444/0x010321AC) animation to complete
367: 0x0B5A [0x2B] Shayadar (ID: 16982444/0x010321AC) [14783*]:
    → "Hah hah, I'm afraid I couldn't say..."
368: 0x0B61 [0x23] WAIT_FOR_DIALOG_INTERACTION
369: 0x0B62 [0x1C] WAIT(60* ticks)
370: 0x0B65 [0x52] END_LOAD_SCHEDULER: End scheduler "sa11" with entities [LocalPlayer, LocalPlayer], work=435*
371: 0x0B74 [0x45] LOAD_SCHEDULED_TASK: Load scheduler "sa12" with entities [LocalPlayer, LocalPlayer], work=[435*, 0*]
372: 0x0B85 [0x4A] Shayadar (ID: 16982444/0x010321AC) looks at Fari-Wari (ID: 16982364/0x0103215C)
373: 0x0B8E [0x1C] WAIT(60* ticks)
374: 0x0B91 [0x03] Work_Zone[2] = 2729*
375: 0x0B96 [0x66] LOAD_EXT_SCHEDULER_MAIN: Load scheduler "thk1" with entities [Fari-Wari (ID: 16982364/0x0103215C), Fari-Wari (ID: 16982364/0x0103215C)], work=49*
376: 0x0BA5 [0x2B] Fari-Wari (ID: 16982364/0x0103215C) [14784*]:
    → "I must say, though, it's still a mystery to me. What possessed General Gadalar to go around at night with that $0 in hand?"
377: 0x0BAC [0x23] WAIT_FOR_DIALOG_INTERACTION
378: 0x0BAD [0x1C] WAIT(30* ticks)
379: 0x0BB0 [0x66] LOAD_EXT_SCHEDULER_MAIN: Load scheduler "thk2" with entities [Fari-Wari (ID: 16982364/0x0103215C), Fari-Wari (ID: 16982364/0x0103215C)], work=49*
380: 0x0BBF [0x52] END_LOAD_SCHEDULER: End scheduler "sa12" with entities [LocalPlayer, LocalPlayer], work=435*
381: 0x0BCE [0x45] LOAD_SCHEDULED_TASK: Load scheduler "sa13" with entities [LocalPlayer, LocalPlayer], work=[435*, 0*]
382: 0x0BDF [0x66] LOAD_EXT_SCHEDULER_MAIN: Load scheduler "tlk0" with entities [Shayadar (ID: 16982444/0x010321AC), Shayadar (ID: 16982444/0x010321AC)], work=9*
383: 0x0BEE [0x2B] Shayadar (ID: 16982444/0x010321AC) [14785*]:
    → "It's interesting, that. The $0 is used in our army to pay tribute to the spirits of our fallen comrades. A symbol of our bonds of loyalty, as it were."
384: 0x0BF5 [0x23] WAIT_FOR_DIALOG_INTERACTION
385: 0x0BF6 [0x1C] WAIT(15* ticks)
386: 0x0BF9 [0x03] Work_Zone[2] = 2729*
387: 0x0BFE [0x2B] Shayadar (ID: 16982444/0x010321AC) [14786*]:
    → "'Tis also known as the "Flower of Many Faces." Its petals shift color, from one brilliant hue to the next."
388: 0x0C05 [0x23] WAIT_FOR_DIALOG_INTERACTION
389: 0x0C06 [0x1C] WAIT(15* ticks)
390: 0x0C09 [0x53] WAIT_SCHEDULER_TASK: Wait for scheduler "tlk0" with entities [Shayadar (ID: 16982444/0x010321AC), Shayadar (ID: 16982444/0x010321AC)]
391: 0x0C16 [0x66] LOAD_EXT_SCHEDULER_MAIN: Load scheduler "tlk1" with entities [Shayadar (ID: 16982444/0x010321AC), Shayadar (ID: 16982444/0x010321AC)], work=9*
392: 0x0C25 [0x53] WAIT_SCHEDULER_TASK: Wait for scheduler "tlk1" with entities [Shayadar (ID: 16982444/0x010321AC), Shayadar (ID: 16982444/0x010321AC)]
393: 0x0C32 [0x52] END_LOAD_SCHEDULER: End scheduler "sa13" with entities [LocalPlayer, LocalPlayer], work=435*
394: 0x0C41 [0x45] LOAD_SCHEDULED_TASK: Load scheduler "sa15" with entities [LocalPlayer, LocalPlayer], work=[435*, 0*]
395: 0x0C52 [0x7B] Shayadar (ID: 16982444/0x010321AC) stops talking
396: 0x0C57 [0x1C] WAIT(30* ticks)
397: 0x0C5A [0x66] LOAD_EXT_SCHEDULER_MAIN: Load scheduler "thk1" with entities [Shayadar (ID: 16982444/0x010321AC), Shayadar (ID: 16982444/0x010321AC)], work=9*
398: 0x0C69 [0x2B] Shayadar (ID: 16982444/0x010321AC) [14787*]:
    → "I suspect General Gadalar was paying tribute, in his own way... To his fallen comrades, and to that Elvaan lass who now stands with our foes."
399: 0x0C70 [0x23] WAIT_FOR_DIALOG_INTERACTION
400: 0x0C71 [0x2B] Shayadar (ID: 16982444/0x010321AC) [14788*]:
    → "And so he cast those many-colored petals into the ocean. That no matter how many leagues separate them as their worlds drift further and further apart... That the bonds they once shared should never break."
401: 0x0C78 [0x23] WAIT_FOR_DIALOG_INTERACTION
402: 0x0C79 [0x1C] WAIT(30* ticks)
403: 0x0C7C [0x66] LOAD_EXT_SCHEDULER_MAIN: Load scheduler "thk2" with entities [Shayadar (ID: 16982444/0x010321AC), Shayadar (ID: 16982444/0x010321AC)], work=9*
404: 0x0C8B [0x53] WAIT_SCHEDULER_TASK: Wait for scheduler "thk2" with entities [Shayadar (ID: 16982444/0x010321AC), Shayadar (ID: 16982444/0x010321AC)]
405: 0x0C98 [0x52] END_LOAD_SCHEDULER: End scheduler "sa15" with entities [LocalPlayer, LocalPlayer], work=435*
406: 0x0CA7 [0x45] LOAD_SCHEDULED_TASK: Load scheduler "sa16" with entities [LocalPlayer, LocalPlayer], work=[435*, 0*]
407: 0x0CB8 [0x6E] Fari-Wari (ID: 16982364/0x0103215C) uses emote 21*
408: 0x0CBF [0x99] Wait for Fari-Wari (ID: 16982364/0x0103215C) animation to complete
409: 0x0CC4 [0x2B] Fari-Wari (ID: 16982364/0x0103215C) [14789*]:
    → "Incredible...!"
410: 0x0CCB [0x23] WAIT_FOR_DIALOG_INTERACTION
411: 0x0CCC [0x1C] WAIT(30* ticks)
412: 0x0CCF [0x79] Shayadar (ID: 16982444/0x010321AC) looks at Fari-Wari (ID: 16982364/0x0103215C) (Basic look)
413: 0x0CD9 [0x52] END_LOAD_SCHEDULER: End scheduler "sa16" with entities [LocalPlayer, LocalPlayer], work=435*
414: 0x0CE8 [0x45] LOAD_SCHEDULED_TASK: Load scheduler "sa17" with entities [LocalPlayer, LocalPlayer], work=[435*, 0*]
415: 0x0CF9 [0x1C] WAIT(15* ticks)
416: 0x0CFC [0x66] LOAD_EXT_SCHEDULER_MAIN: Load scheduler "tlk0" with entities [Shayadar (ID: 16982444/0x010321AC), Shayadar (ID: 16982444/0x010321AC)], work=9*
417: 0x0D0B [0x2B] Shayadar (ID: 16982444/0x010321AC) [14790*]:
    → "Really though, 'tis only idle conjecture."
418: 0x0D12 [0x23] WAIT_FOR_DIALOG_INTERACTION
419: 0x0D13 [0x66] LOAD_EXT_SCHEDULER_MAIN: Load scheduler "tlk1" with entities [Shayadar (ID: 16982444/0x010321AC), Shayadar (ID: 16982444/0x010321AC)], work=9*
420: 0x0D22 [0x1C] WAIT(30* ticks)
421: 0x0D25 [0x6E] Fari-Wari (ID: 16982364/0x0103215C) uses emote 25*
422: 0x0D2C [0x99] Wait for Fari-Wari (ID: 16982364/0x0103215C) animation to complete
423: 0x0D31 [0x2B] Fari-Wari (ID: 16982364/0x0103215C) [14791*]:
    → "Why, friend Shayadar...of course! Of course! It couldn't be more obvious!"
424: 0x0D38 [0x23] WAIT_FOR_DIALOG_INTERACTION
425: 0x0D39 [0x1C] WAIT(15* ticks)
426: 0x0D3C [0x52] END_LOAD_SCHEDULER: End scheduler "sa17" with entities [LocalPlayer, LocalPlayer], work=435*
427: 0x0D4B [0x45] LOAD_SCHEDULED_TASK: Load scheduler "sa19" with entities [LocalPlayer, LocalPlayer], work=[435*, 0*]
428: 0x0D5C [0x1C] WAIT(30* ticks)
429: 0x0D5F [0x66] LOAD_EXT_SCHEDULER_MAIN: Load scheduler "thk1" with entities [Fari-Wari (ID: 16982364/0x0103215C), Fari-Wari (ID: 16982364/0x0103215C)], work=40*
430: 0x0D6E [0x2B] Fari-Wari (ID: 16982364/0x0103215C) [14793*]:
    → "That the petals would float out into the open sea, ride the waves across leagues of ocean, and someday find their way to the East-- ...To the delicate hands of his eternal love, the fair Shayeeha!"
431: 0x0D75 [0x23] WAIT_FOR_DIALOG_INTERACTION
432: 0x0D76 [0x66] LOAD_EXT_SCHEDULER_MAIN: Load scheduler "thk2" with entities [Fari-Wari (ID: 16982364/0x0103215C), Fari-Wari (ID: 16982364/0x0103215C)], work=40*
433: 0x0D85 [0x1C] WAIT(45* ticks)
434: 0x0D88 [0x6E] Fari-Wari (ID: 16982364/0x0103215C) uses emote 0*
435: 0x0D8F [0x99] Wait for Fari-Wari (ID: 16982364/0x0103215C) animation to complete
436: 0x0D94 [0x2B] Fari-Wari (ID: 16982364/0x0103215C) [14794*]:
    → "How thoroughly, how heart-meltingly romantic! A love story for the ages!"
437: 0x0D9B [0x23] WAIT_FOR_DIALOG_INTERACTION
438: 0x0D9C [0x1C] WAIT(30* ticks)
439: 0x0D9F [0x52] END_LOAD_SCHEDULER: End scheduler "sa19" with entities [LocalPlayer, LocalPlayer], work=435*
440: 0x0DAE [0x45] LOAD_SCHEDULED_TASK: Load scheduler "sa20" with entities [LocalPlayer, LocalPlayer], work=[435*, 0*]
441: 0x0DBF [0x66] LOAD_EXT_SCHEDULER_MAIN: Load scheduler "tlk0" with entities [Shayadar (ID: 16982444/0x010321AC), Shayadar (ID: 16982444/0x010321AC)], work=9*
442: 0x0DCE [0x2B] Shayadar (ID: 16982444/0x010321AC) [14795*]:
    → "A...a what? No, no, you see, you've got it all wrong--"
443: 0x0DD5 [0x23] WAIT_FOR_DIALOG_INTERACTION
444: 0x0DD6 [0x1C] WAIT(30* ticks)
445: 0x0DD9 [0x52] END_LOAD_SCHEDULER: End scheduler "sa20" with entities [LocalPlayer, LocalPlayer], work=435*
446: 0x0DE8 [0x45] LOAD_SCHEDULED_TASK: Load scheduler "sa21" with entities [LocalPlayer, LocalPlayer], work=[435*, 0*]
447: 0x0DF9 [0x66] LOAD_EXT_SCHEDULER_MAIN: Load scheduler "tlk1" with entities [Shayadar (ID: 16982444/0x010321AC), Shayadar (ID: 16982444/0x010321AC)], work=9*
448: 0x0E08 [0x7B] Shayadar (ID: 16982444/0x010321AC) stops talking
449: 0x0E0D [0x6E] Fari-Wari (ID: 16982364/0x0103215C) uses emote 11*
450: 0x0E14 [0x99] Wait for Fari-Wari (ID: 16982364/0x0103215C) animation to complete
451: 0x0E19 [0x2B] Fari-Wari (ID: 16982364/0x0103215C) [14796*]:
    → "Shayadar, my good man, I think not! I couldn't be more right!"
452: 0x0E20 [0x23] WAIT_FOR_DIALOG_INTERACTION
453: 0x0E21 [0x1C] WAIT(30* ticks)
454: 0x0E24 [0x66] LOAD_EXT_SCHEDULER_MAIN: Load scheduler "tlk0" with entities [Fari-Wari (ID: 16982364/0x0103215C), Fari-Wari (ID: 16982364/0x0103215C)], work=49*
455: 0x0E33 [0x2B] Fari-Wari (ID: 16982364/0x0103215C) [14797*]:
    → "I knew it! Under that rough and rugged exterior, the Flameserpent General's heart burns with the ardent flames of passion! A furious rapture that shall not be contained!"
456: 0x0E3A [0x23] WAIT_FOR_DIALOG_INTERACTION
457: 0x0E3B [0x1C] WAIT(30* ticks)
458: 0x0E3E [0x66] LOAD_EXT_SCHEDULER_MAIN: Load scheduler "tlk1" with entities [Fari-Wari (ID: 16982364/0x0103215C), Fari-Wari (ID: 16982364/0x0103215C)], work=49*
459: 0x0E4D [0x52] END_LOAD_SCHEDULER: End scheduler "sa21" with entities [LocalPlayer, LocalPlayer], work=435*
460: 0x0E5C [0x45] LOAD_SCHEDULED_TASK: Load scheduler "sa23" with entities [LocalPlayer, LocalPlayer], work=[435*, 0*]
461: 0x0E6D [0x66] LOAD_EXT_SCHEDULER_MAIN: Load scheduler "thk1" with entities [Fari-Wari (ID: 16982364/0x0103215C), Fari-Wari (ID: 16982364/0x0103215C)], work=49*
462: 0x0E7C [0x4A] LocalPlayer looks at Fari-Wari (ID: 16982364/0x0103215C)
463: 0x0E85 [0x1C] WAIT(45* ticks)
464: 0x0E88 [0x2B] Fari-Wari (ID: 16982364/0x0103215C) [14798*]:
    → "What's this...!? Tra-la!t Tru-lu-lu!t Tri-li-li-li-li!t"
465: 0x0E8F [0x23] WAIT_FOR_DIALOG_INTERACTION
466: 0x0E90 [0x66] LOAD_EXT_SCHEDULER_MAIN: Load scheduler "thk2" with entities [Fari-Wari (ID: 16982364/0x0103215C), Fari-Wari (ID: 16982364/0x0103215C)], work=49*
467: 0x0E9F [0x1C] WAIT(30* ticks)
468: 0x0EA2 [0x52] END_LOAD_SCHEDULER: End scheduler "sa23" with entities [LocalPlayer, LocalPlayer], work=435*
469: 0x0EB1 [0x45] LOAD_SCHEDULED_TASK: Load scheduler "tk03" with entities [LocalPlayer, LocalPlayer], work=[435*, 0*]
470: 0x0EC2 [0x1C] WAIT(10* ticks)
471: 0x0EC5 [0x66] LOAD_EXT_SCHEDULER_MAIN: Load scheduler "wai0" with entities [Fari-Wari (ID: 16982364/0x0103215C), Fari-Wari (ID: 16982364/0x0103215C)], work=40*
472: 0x0ED4 [0x2B] Fari-Wari (ID: 16982364/0x0103215C) [14799*]:
    → "My heart is aflutter... I can barely breathe... There's no mistaking this feeling... Yes, inspiration! Inspiration has struck!"
473: 0x0EDB [0x23] WAIT_FOR_DIALOG_INTERACTION
474: 0x0EDC [0x1C] WAIT(20* ticks)
475: 0x0EDF [0x52] END_LOAD_SCHEDULER: End scheduler "tk03" with entities [LocalPlayer, LocalPlayer], work=435*
476: 0x0EEE [0x45] LOAD_SCHEDULED_TASK: Load scheduler "sa24" with entities [LocalPlayer, LocalPlayer], work=[435*, 0*]
477: 0x0EFF [0x6E] Shayadar (ID: 16982444/0x010321AC) uses emote 36*
478: 0x0F06 [0x99] Wait for Shayadar (ID: 16982444/0x010321AC) animation to complete
479: 0x0F0B [0x27] REQ_SET(priority=0x10, entity_id=Unnamed NPC (ID: 16982539/0x0103220B), tag_num=0x6A)
480: 0x0F12 [0x2B] Shayadar (ID: 16982444/0x010321AC) [14800*]:
    → "Oho!"
481: 0x0F19 [0x23] WAIT_FOR_DIALOG_INTERACTION
482: 0x0F1A [0x1C] WAIT(30* ticks)
483: 0x0F1D [0x52] END_LOAD_SCHEDULER: End scheduler "sa24" with entities [LocalPlayer, LocalPlayer], work=435*
484: 0x0F2C [0x45] LOAD_SCHEDULED_TASK: Load scheduler "sa25" with entities [LocalPlayer, LocalPlayer], work=[435*, 0*]
485: 0x0F3D [0x1C] WAIT(30* ticks)
486: 0x0F40 [0x27] REQ_SET(priority=0x10, entity_id=Fari-Wari (ID: 16982364/0x0103215C), tag_num=0x0E)
487: 0x0F47 [0x5D] SET_MUSIC_VOLUME(volume=0*, fade_time=150*)
488: 0x0F4C [0x1C] WAIT(60* ticks)
489: 0x0F4F [0x45] LOAD_SCHEDULED_TASK: Load scheduler "fdo1" with entities [LocalPlayer, LocalPlayer], work=[200*, 0*]
490: 0x0F60 [0x55] WAIT_LOAD_SCHEDULER: Wait for scheduler "fdo1" with entities [LocalPlayer, LocalPlayer], work=200*
491: 0x0F6F [0x52] END_LOAD_SCHEDULER: End scheduler "sa25" with entities [LocalPlayer, LocalPlayer], work=435*
492: 0x0F7E [0xBA] SET_ENTITY_POSITION(entity_id=Kalidaaf (ID: 16982575/0x0103222F), pos_x=82.582*, pos_z=-126.235*, pos_y=-6.000*, direction=144.8°*)
493: 0x0F8B [0xBA] SET_ENTITY_POSITION(entity_id=kenbutsu10 (ID: 16982580/0x01032234), pos_x=86.025*, pos_z=-129.708*, pos_y=-6.000*, direction=144.8°*)
494: 0x0F98 [0x80] LOAD_WAIT(entity=Kalidaaf (ID: 16982575/0x0103222F))
495: 0x0F9D [0x80] LOAD_WAIT(entity=kenbutsu10 (ID: 16982580/0x01032234))
496: 0x0FA2 [0x4A] Kalidaaf (ID: 16982575/0x0103222F) looks at Fari-Wari (ID: 16982364/0x0103215C)
497: 0x0FAB [0x4A] kenbutsu10 (ID: 16982580/0x01032234) looks at Fari-Wari (ID: 16982364/0x0103215C)
498: 0x0FB4 [0x79] Kalidaaf (ID: 16982575/0x0103222F) looks at Fari-Wari (ID: 16982364/0x0103215C) (Basic look)
499: 0x0FBE [0x79] kenbutsu10 (ID: 16982580/0x01032234) looks at Fari-Wari (ID: 16982364/0x0103215C) (Basic look)
500: 0x0FC8 [0x2A] GET_REQ_LEVEL(level=16, entity_id=Fari-Wari (ID: 16982364/0x0103215C))
501: 0x0FCE [0x4A] Shayadar (ID: 16982444/0x010321AC) looks at Fari-Wari (ID: 16982364/0x0103215C)
502: 0x0FD7 [0x79] Shayadar (ID: 16982444/0x010321AC) looks at Fari-Wari (ID: 16982364/0x0103215C) (Basic look)
503: 0x0FE1 [0x4A] LocalPlayer looks at Fari-Wari (ID: 16982364/0x0103215C)
504: 0x0FEA [0x79] LocalPlayer looks at LocalPlayer (Basic look)
505: 0x0FF4 [0x4B] UPDATE_ENTITY_YAW(entity=Fari-Wari (ID: 16982364/0x0103215C), yaw=8.2°*)
506: 0x0FFB [0x79] Fari-Wari (ID: 16982364/0x0103215C) looks at Fari-Wari (ID: 16982364/0x0103215C) (Basic look)
507: 0x1005 [0x6F] WAIT_FRAME_DELAY: Yield until WaitTime reaches zero
508: 0x1006 [0x76] CHECK_ENTITY_RENDER_FLAGS: Wait until Fari-Wari (ID: 16982364/0x0103215C) Render.Flags0 and Render.Flags3 conditions are met
509: 0x100B [0x7A] VM_CONTROL: Reset VM for Fari-Wari (ID: 16982364/0x0103215C)
510: 0x1011 [0xBA] SET_ENTITY_POSITION(entity_id=Fari-Wari (ID: 16982364/0x0103215C), pos_x=91.374*, pos_z=-128.043*, pos_y=-6.499*, direction=184.2°*)
511: 0x101E [0x7B] Fari-Wari (ID: 16982364/0x0103215C) stops talking
512: 0x1023 [0x1C] WAIT(30* ticks)
513: 0x1026 [0x45] LOAD_SCHEDULED_TASK: Load scheduler "sa27" with entities [LocalPlayer, LocalPlayer], work=[435*, 0*]
514: 0x1037 [0x45] LOAD_SCHEDULED_TASK: Load scheduler "fdi1" with entities [LocalPlayer, LocalPlayer], work=[200*, 0*]
515: 0x1048 [0x55] WAIT_LOAD_SCHEDULER: Wait for scheduler "fdi1" with entities [LocalPlayer, LocalPlayer], work=200*
516: 0x1057 [0x5C] MUSIC_CONTROL: Set Idle (Day) music to song 142*
517: 0x105B [0x5C] MUSIC_CONTROL: Set Idle (Night) music to song 142*
518: 0x105F [0x1C] WAIT(60* ticks)
519: 0x1062 [0x4A] Zubyahn (ID: 16982146/0x01032082) looks at Fari-Wari (ID: 16982364/0x0103215C)
520: 0x106B [0x1C] WAIT(60* ticks)
521: 0x106E [0x2C] CREATE_SCHEDULER_TASK: Create scheduler "caso" with entities [Fari-Wari (ID: 16982364/0x0103215C), Fari-Wari (ID: 16982364/0x0103215C)]
522: 0x107B [0x2B] Fari-Wari (ID: 16982364/0x0103215C) [14801*]:
    → "Fire, fire.t My heart's desire!t"
523: 0x1082 [0x1C] WAIT(15* ticks)
524: 0x1085 [0x52] END_LOAD_SCHEDULER: End scheduler "sa27" with entities [LocalPlayer, LocalPlayer], work=435*
525: 0x1094 [0x45] LOAD_SCHEDULED_TASK: Load scheduler "sa28" with entities [LocalPlayer, LocalPlayer], work=[435*, 0*]
526: 0x10A5 [0x1C] WAIT(15* ticks)
527: 0x10A8 [0x2B] Fari-Wari (ID: 16982364/0x0103215C) [14802*]:
    → "Fire, firet My heart's desiret"
528: 0x10AF [0x1C] WAIT(180* ticks)
529: 0x10B2 [0x52] END_LOAD_SCHEDULER: End scheduler "sa28" with entities [LocalPlayer, LocalPlayer], work=435*
530: 0x10C1 [0x45] LOAD_SCHEDULED_TASK: Load scheduler "sa29" with entities [LocalPlayer, LocalPlayer], work=[435*, 0*]
531: 0x10D2 [0x2B] Fari-Wari (ID: 16982364/0x0103215C) [14803*]:
    → "Encircled by flames, there he stands.t Flaming scythe, held in his hands!t"
532: 0x10D9 [0x1C] WAIT(180* ticks)
533: 0x10DC [0x52] END_LOAD_SCHEDULER: End scheduler "sa29" with entities [LocalPlayer, LocalPlayer], work=435*
534: 0x10EB [0x4E] SET_ENTITY_HIDE_FLAG: Show Wajran (ID: 16982572/0x0103222C)
535: 0x10F1 [0x4E] SET_ENTITY_HIDE_FLAG: Show PAKU02 (ID: 16982573/0x0103222D)
536: 0x10F7 [0x4E] SET_ENTITY_HIDE_FLAG: Show PAKU03 (ID: 16982574/0x0103222E)
537: 0x10FD [0x4E] SET_ENTITY_HIDE_FLAG: Show Kalidaaf (ID: 16982575/0x0103222F)
538: 0x1103 [0x4E] SET_ENTITY_HIDE_FLAG: Show Shaeema (ID: 16982576/0x01032230)
539: 0x1109 [0x4E] SET_ENTITY_HIDE_FLAG: Show Rhub Wusthamoi (ID: 16982577/0x01032231)
540: 0x110F [0x4E] SET_ENTITY_HIDE_FLAG: Show kenbutsu10 (ID: 16982580/0x01032234)
541: 0x1115 [0x45] LOAD_SCHEDULED_TASK: Load scheduler "tk08" with entities [LocalPlayer, LocalPlayer], work=[435*, 0*]
542: 0x1126 [0x1C] WAIT(10* ticks)
543: 0x1129 [0x2B] Fari-Wari (ID: 16982364/0x0103215C) [14804*]:
    → "Who's the perfect warrior, who's our man?t Gaaadaaalar!t"
544: 0x1130 [0x1C] WAIT(180* ticks)
545: 0x1133 [0x2B] Fari-Wari (ID: 16982364/0x0103215C) [14805*]:
    → "Slicing through the darkness...t And through legions of crows!t"
546: 0x113A [0x23] WAIT_FOR_DIALOG_INTERACTION
547: 0x113B [0x1C] WAIT(130* ticks)
548: 0x113E [0x4A] kenbutsu10 (ID: 16982580/0x01032234) looks at Fari-Wari (ID: 16982364/0x0103215C)
549: 0x1147 [0x4A] Kalidaaf (ID: 16982575/0x0103222F) looks at Fari-Wari (ID: 16982364/0x0103215C)
550: 0x1150 [0x4A] Shaeema (ID: 16982576/0x01032230) looks at Fari-Wari (ID: 16982364/0x0103215C)
551: 0x1159 [0x4A] Rhub Wusthamoi (ID: 16982577/0x01032231) looks at Fari-Wari (ID: 16982364/0x0103215C)
552: 0x1162 [0x52] END_LOAD_SCHEDULER: End scheduler "tk08" with entities [LocalPlayer, LocalPlayer], work=435*
553: 0x1171 [0x45] LOAD_SCHEDULED_TASK: Load scheduler "tk09" with entities [LocalPlayer, LocalPlayer], work=[435*, 0*]
554: 0x1182 [0x2C] CREATE_SCHEDULER_TASK: Create scheduler "shso" with entities [Fari-Wari (ID: 16982364/0x0103215C), Fari-Wari (ID: 16982364/0x0103215C)]
555: 0x118F [0x2B] Fari-Wari (ID: 16982364/0x0103215C) [14806*]:
    → ""Cross...Reaper!""
556: 0x1196 [0x23] WAIT_FOR_DIALOG_INTERACTION
557: 0x1197 [0x1C] WAIT(30* ticks)
558: 0x119A [0x52] END_LOAD_SCHEDULER: End scheduler "tk09" with entities [LocalPlayer, LocalPlayer], work=435*
559: 0x11A9 [0x45] LOAD_SCHEDULED_TASK: Load scheduler "tk10" with entities [LocalPlayer, LocalPlayer], work=[435*, 0*]
560: 0x11BA [0x2C] CREATE_SCHEDULER_TASK: Create scheduler "caso" with entities [Fari-Wari (ID: 16982364/0x0103215C), Fari-Wari (ID: 16982364/0x0103215C)]
561: 0x11C7 [0x1C] WAIT(15* ticks)
562: 0x11CA [0x2B] Fari-Wari (ID: 16982364/0x0103215C) [14807*]:
    → "Yet at the heated core of his raaaging ire...t His love burns true for his heart's deeesire!t"
563: 0x11D1 [0x23] WAIT_FOR_DIALOG_INTERACTION
564: 0x11D2 [0x52] END_LOAD_SCHEDULER: End scheduler "tk10" with entities [LocalPlayer, LocalPlayer], work=435*
565: 0x11E1 [0x45] LOAD_SCHEDULED_TASK: Load scheduler "tk11" with entities [LocalPlayer, LocalPlayer], work=[435*, 0*]
566: 0x11F2 [0x1C] WAIT(20* ticks)
567: 0x11F5 [0x2C] CREATE_SCHEDULER_TASK: Create scheduler "shso" with entities [Fari-Wari (ID: 16982364/0x0103215C), Fari-Wari (ID: 16982364/0x0103215C)]
568: 0x1202 [0x2B] Fari-Wari (ID: 16982364/0x0103215C) [14808*]:
    → ""Salamander...Flame!""
569: 0x1209 [0x23] WAIT_FOR_DIALOG_INTERACTION
570: 0x120A [0x1C] WAIT(30* ticks)
571: 0x120D [0x52] END_LOAD_SCHEDULER: End scheduler "tk11" with entities [LocalPlayer, LocalPlayer], work=435*
572: 0x121C [0x45] LOAD_SCHEDULED_TASK: Load scheduler "tk12" with entities [LocalPlayer, LocalPlayer], work=[435*, 0*]
573: 0x122D [0x1C] WAIT(15* ticks)
574: 0x1230 [0x2C] CREATE_SCHEDULER_TASK: Create scheduler "caso" with entities [Fari-Wari (ID: 16982364/0x0103215C), Fari-Wari (ID: 16982364/0x0103215C)]
575: 0x123D [0x2B] Fari-Wari (ID: 16982364/0x0103215C) [14809*]:
    → "Torch them! Scorch them! All will burn!t Yet sealed within, my heart still yearns...t Yes, my name is Gaaadaaalar!t"
576: 0x1244 [0x23] WAIT_FOR_DIALOG_INTERACTION
577: 0x1245 [0x1C] WAIT(60* ticks)
578: 0x1248 [0x2C] CREATE_SCHEDULER_TASK: Create scheduler "shso" with entities [Fari-Wari (ID: 16982364/0x0103215C), Fari-Wari (ID: 16982364/0x0103215C)]
579: 0x1255 [0x1C] WAIT(60* ticks)
580: 0x1258 [0xBA] SET_ENTITY_POSITION(entity_id=LocalPlayer, pos_x=82.907*, pos_z=-132.394*, pos_y=-5.999*, direction=307.3°*)
581: 0x1265 [0xBA] SET_ENTITY_POSITION(entity_id=Shayadar (ID: 16982444/0x010321AC), pos_x=84.896*, pos_z=-132.868*, pos_y=-5.999*, direction=307.3°*)
582: 0x1272 [0x4A] LocalPlayer looks at Fari-Wari (ID: 16982364/0x0103215C)
583: 0x127B [0x4A] Shayadar (ID: 16982444/0x010321AC) looks at Fari-Wari (ID: 16982364/0x0103215C)
584: 0x1284 [0x5D] SET_MUSIC_VOLUME(volume=0*, fade_time=180*)
585: 0x1289 [0x52] END_LOAD_SCHEDULER: End scheduler "tk12" with entities [LocalPlayer, LocalPlayer], work=435*
586: 0x1298 [0x45] LOAD_SCHEDULED_TASK: Load scheduler "sa31" with entities [LocalPlayer, LocalPlayer], work=[435*, 0*]
587: 0x12A9 [0x59] UPDATE_ENTITY_DATA: Set Wajran (ID: 16982572/0x0103222C) turn speed head = 150*
588: 0x12B1 [0x79] Wajran (ID: 16982572/0x0103222C) looks at Fari-Wari (ID: 16982364/0x0103215C) (Basic look)
589: 0x12BB [0x59] UPDATE_ENTITY_DATA: Set Wajran (ID: 16982572/0x0103222C) turn speed head = 150*
590: 0x12C3 [0x79] PAKU02 (ID: 16982573/0x0103222D) looks at Fari-Wari (ID: 16982364/0x0103215C) (Basic look)
591: 0x12CD [0x59] UPDATE_ENTITY_DATA: Set Wajran (ID: 16982572/0x0103222C) turn speed head = 150*
592: 0x12D5 [0x79] PAKU03 (ID: 16982574/0x0103222E) looks at Fari-Wari (ID: 16982364/0x0103215C) (Basic look)
593: 0x12DF [0x1C] WAIT(30* ticks)
594: 0x12E2 [0x6E] kenbutsu10 (ID: 16982580/0x01032234) uses emote 13*
595: 0x12E9 [0x99] Wait for kenbutsu10 (ID: 16982580/0x01032234) animation to complete
596: 0x12EE [0x1C] WAIT(60* ticks)
597: 0x12F1 [0x66] LOAD_EXT_SCHEDULER_MAIN: Load scheduler "tlk0" with entities [Wajran (ID: 16982572/0x0103222C), Wajran (ID: 16982572/0x0103222C)], work=0*
598: 0x1300 [0x2B] Wajran (ID: 16982572/0x0103222C) [14810*]:
    → "What's this? A new piece!?"
599: 0x1307 [0x23] WAIT_FOR_DIALOG_INTERACTION
600: 0x1308 [0x1C] WAIT(30* ticks)
601: 0x130B [0x66] LOAD_EXT_SCHEDULER_MAIN: Load scheduler "ten0" with entities [Wajran (ID: 16982572/0x0103222C), Wajran (ID: 16982572/0x0103222C)], work=0*
602: 0x131A [0x1C] WAIT(30* ticks)
603: 0x131D [0x52] END_LOAD_SCHEDULER: End scheduler "sa31" with entities [LocalPlayer, LocalPlayer], work=435*
604: 0x132C [0x45] LOAD_SCHEDULED_TASK: Load scheduler "sa32" with entities [LocalPlayer, LocalPlayer], work=[435*, 0*]
605: 0x133D [0x53] WAIT_SCHEDULER_TASK: Wait for scheduler "ten0" with entities [Wajran (ID: 16982572/0x0103222C), Wajran (ID: 16982572/0x0103222C)]
606: 0x134A [0x7B] Wajran (ID: 16982572/0x0103222C) stops talking
607: 0x134F [0x1C] WAIT(60* ticks)
608: 0x1352 [0x2C] CREATE_SCHEDULER_TASK: Create scheduler "caso" with entities [Wajran (ID: 16982572/0x0103222C), Wajran (ID: 16982572/0x0103222C)]
609: 0x135F [0x2C] CREATE_SCHEDULER_TASK: Create scheduler "caso" with entities [PAKU02 (ID: 16982573/0x0103222D), PAKU02 (ID: 16982573/0x0103222D)]
610: 0x136C [0x2C] CREATE_SCHEDULER_TASK: Create scheduler "caso" with entities [PAKU03 (ID: 16982574/0x0103222E), PAKU03 (ID: 16982574/0x0103222E)]
611: 0x1379 [0x2B] Wajran (ID: 16982572/0x0103222C) [14811*]:
    → "Torch them! And scorch them!t All--yes, all--will burn, burn, burn!tt"
612: 0x1380 [0x23] WAIT_FOR_DIALOG_INTERACTION
613: 0x1381 [0x1C] WAIT(120* ticks)
614: 0x1384 [0x4A] Shaeema (ID: 16982576/0x01032230) looks at Wajran (ID: 16982572/0x0103222C)
615: 0x138D [0x7B] Shaeema (ID: 16982576/0x01032230) stops talking
616: 0x1392 [0x6F] WAIT_FRAME_DELAY: Yield until WaitTime reaches zero
617: 0x1393 [0x76] CHECK_ENTITY_RENDER_FLAGS: Wait until Shaeema (ID: 16982576/0x01032230) Render.Flags0 and Render.Flags3 conditions are met
