# 16982364 - Fari-Wari

## Common Data

| Field            | Value                          |
|------------------|--------------------------------|
| Zone             | Aht Urhgan Whitegate2 (ID: 50) |
| Block Size       | 1240 bytes                     |
| Total Events     | 44                             |
| References Count | 77                             |

## List of Events

| Event ID                   | Entrypoint   |   Size |   Instructions |
|----------------------------|--------------|--------|----------------|
| [65535](#event-65535)      | 0x0000       |      1 |              1 |
| [823](#event-823)          | 0x0001       |      1 |              1 |
| [824](#event-824)          | 0x0002       |      1 |              1 |
| [825](#event-825)          | 0x0003       |      1 |              1 |
| [941](#event-941)          | 0x0004       |      1 |              1 |
| [65535.1](#event-655351)   | 0x0005       |     19 |              5 |
| [3136](#event-3136)        | 0x0018       |      7 |              2 |
| [894](#event-894)          | 0x001F       |      1 |              1 |
| [897](#event-897)          | 0x0020       |      1 |              1 |
| [65535.2](#event-655352)   | 0x0021       |     15 |              5 |
| [920](#event-920)          | 0x0030       |      1 |              1 |
| [921](#event-921)          | 0x0031       |      1 |              1 |
| [65535.3](#event-655353)   | 0x0032       |     19 |              4 |
| [65535.4](#event-655354)   | 0x0045       |     19 |              4 |
| [65535.5](#event-655355)   | 0x0058       |     19 |              4 |
| [65535.6](#event-655356)   | 0x006B       |     19 |              4 |
| [65535.7](#event-655357)   | 0x007E       |     19 |              4 |
| [65535.8](#event-655358)   | 0x0091       |     13 |              3 |
| [65535.9](#event-655359)   | 0x009E       |     19 |              4 |
| [65535.10](#event-6553510) | 0x00B1       |     19 |              4 |
| [65535.11](#event-6553511) | 0x00C4       |     19 |              4 |
| [65535.12](#event-6553512) | 0x00D7       |     28 |              7 |
| [65535.13](#event-6553513) | 0x00F3       |     11 |              3 |
| [65535.14](#event-6553514) | 0x00FE       |     34 |              8 |
| [65535.15](#event-6553515) | 0x0120       |     67 |             13 |
| [65535.16](#event-6553516) | 0x0163       |     37 |              7 |
| [65535.17](#event-6553517) | 0x0188       |     37 |              7 |
| [65535.18](#event-6553518) | 0x01AD       |     15 |              5 |
| [65535.19](#event-6553519) | 0x01BC       |      5 |              2 |
| [65535.20](#event-6553520) | 0x01C1       |      5 |              2 |
| [65535.21](#event-6553521) | 0x01C6       |      5 |              2 |
| [65535.22](#event-6553522) | 0x01CB       |      5 |              2 |
| [65535.23](#event-6553523) | 0x01D0       |     27 |              7 |
| [65535.24](#event-6553524) | 0x01EB       |     27 |              7 |
| [65535.25](#event-6553525) | 0x0206       |     40 |              6 |
| [65535.26](#event-6553526) | 0x022E       |     19 |              3 |
| [65535.27](#event-6553527) | 0x0241       |     24 |              6 |
| [5091](#event-5091)        | 0x0259       |      1 |              1 |
| [65535.28](#event-6553528) | 0x025A       |     47 |             11 |
| [65535.29](#event-6553529) | 0x0289       |     14 |              4 |
| [5093](#event-5093)        | 0x0297       |      1 |              1 |
| [65535.30](#event-6553530) | 0x0298       |     33 |              9 |
| [65535.31](#event-6553531) | 0x02B9       |     32 |              8 |
| [65535.32](#event-6553532) | 0x02D9       |     10 |              2 |

## DAT References (imed_data)

|   Index | Hex Value   |   Dec Value |
|---------|-------------|-------------|
|       0 | 0x000D      |          13 |
|       1 | 0x10762     |       67426 |
|       2 | 0xFFFE0EF6  |  4294840054 |
|       3 | 0xFFFFE69D  |  4294960797 |
|       4 | 0x1389C     |       80028 |
|       5 | 0xFFFDE5E0  |  4294829536 |
|       6 | 0xFFFFE890  |  4294961296 |
|       7 | 0x0027      |          39 |
|       8 | 0x138CF     |       80079 |
|       9 | 0xFFFDF22F  |  4294832687 |
|      10 | 0x14661     |       83553 |
|      11 | 0xFFFE030D  |  4294837005 |
|      12 | 0x0025      |          37 |
|      13 | 0x148F7     |       84215 |
|      14 | 0xFFFE0A93  |  4294838931 |
|      15 | 0x13583     |       79235 |
|      16 | 0xFFFDEB63  |  4294830947 |
|      17 | 0x13A07     |       80391 |
|      18 | 0xFFFDE965  |  4294830437 |
|      19 | 0x0026      |          38 |
|      20 | 0x000F      |          15 |
|      21 | 0x13A8E     |       80526 |
|      22 | 0xFFFDF578  |  4294833528 |
|      23 | 0x000B      |          11 |
|      24 | 0x13B2A     |       80682 |
|      25 | 0xFFFE06AB  |  4294837931 |
|      26 | 0xFFFE2203  |  4294844931 |
|      27 | 0x13359     |       78681 |
|      28 | 0xFFFDFA56  |  4294834774 |
|      29 | 0x001E      |          30 |
|      30 | 0x02A8      |         680 |
|      31 | 0x13332     |       78642 |
|      32 | 0xFFFE2D9D  |  4294847901 |
|      33 | 0x0003      |           3 |
|      34 | 0x0002      |           2 |
|      35 | 0x0005      |           5 |
|      36 | 0x0530      |        1328 |
|      37 | 0x0004      |           4 |
|      38 | 0x0008      |           8 |
|      39 | 0x0001      |           1 |
|      40 | 0x000A      |          10 |
|      41 | 0x0041      |          65 |
|      42 | 0x0028      |          40 |
|      43 | 0xFFFE615D  |  4294861149 |
|      44 | 0x8576      |       34166 |
|      45 | 0xFFFFE891  |  4294961297 |
|      46 | 0x0000      |           0 |
|      47 | 0x004B      |          75 |
|      48 | 0xFFFFE9BC  |  4294961596 |
|      49 | 0xFFFF9148  |  4294938952 |
|      50 | 0xFFFFF154  |  4294963540 |
|      51 | 0xFFFF934E  |  4294939470 |
|      52 | 0xFFFFF67A  |  4294964858 |
|      53 | 0xFFFF94DE  |  4294939870 |
|      54 | 0x001D      |          29 |
|      55 | 0x002D      |          45 |
|      56 | 0x002A      |          42 |
|      57 | 0x151E7     |       86503 |
|      58 | 0xFFFE0500  |  4294837504 |
|      59 | 0x14840     |       84032 |
|      60 | 0xFFFDECBE  |  4294831294 |
|      61 | 0x14DA6     |       85414 |
|      62 | 0xFFFDF643  |  4294833731 |
|      63 | 0x13B51     |       80721 |
|      64 | 0xFFFE1D4F  |  4294843727 |
|      65 | 0x0429      |        1065 |
|      66 | 0x13BE4     |       80868 |
|      67 | 0xFFFE0824  |  4294838308 |
|      68 | 0x005A      |          90 |
|      69 | 0x13633     |       79411 |
|      70 | 0xFFFDF8A3  |  4294834339 |
|      71 | 0x0DE8      |        3560 |
|      72 | 0x131D8     |       78296 |
|      73 | 0xFFFE0334  |  4294837044 |
|      74 | 0x125F0     |       75248 |
|      75 | 0xFFFE15ED  |  4294841837 |
|      76 | 0x026D      |         621 |

## Events

### Event 65535

#### Metadata

| Field        | Value   |
|--------------|---------|
| Entrypoint   | 0x0000  |
| Data Size    | 1 bytes |
| Instructions | 1       |

```
      00 01 02 03 04 05 06 07  08 09 0A 0B 0C 0D 0E 0F
      -- -- -- -- -- -- -- --  -- -- -- -- -- -- -- --
0000: 00                                                .               
```

#### Opcodes

```
  0: 0x0000 [0x00] END_REQSTACK()
```

### Event 823

#### Metadata

| Field        | Value   |
|--------------|---------|
| Entrypoint   | 0x0001  |
| Data Size    | 1 bytes |
| Instructions | 1       |

```
      00 01 02 03 04 05 06 07  08 09 0A 0B 0C 0D 0E 0F
      -- -- -- -- -- -- -- --  -- -- -- -- -- -- -- --
0000:    00                                              .              
```

#### Opcodes

```
  0: 0x0001 [0x00] END_REQSTACK()
```

### Event 824

#### Metadata

| Field        | Value   |
|--------------|---------|
| Entrypoint   | 0x0002  |
| Data Size    | 1 bytes |
| Instructions | 1       |

```
      00 01 02 03 04 05 06 07  08 09 0A 0B 0C 0D 0E 0F
      -- -- -- -- -- -- -- --  -- -- -- -- -- -- -- --
0000:       00                                            .             
```

#### Opcodes

```
  0: 0x0002 [0x00] END_REQSTACK()
```

### Event 825

#### Metadata

| Field        | Value   |
|--------------|---------|
| Entrypoint   | 0x0003  |
| Data Size    | 1 bytes |
| Instructions | 1       |

```
      00 01 02 03 04 05 06 07  08 09 0A 0B 0C 0D 0E 0F
      -- -- -- -- -- -- -- --  -- -- -- -- -- -- -- --
0000:          00                                          .            
```

#### Opcodes

```
  0: 0x0003 [0x00] END_REQSTACK()
```

### Event 941

#### Metadata

| Field        | Value   |
|--------------|---------|
| Entrypoint   | 0x0004  |
| Data Size    | 1 bytes |
| Instructions | 1       |

```
      00 01 02 03 04 05 06 07  08 09 0A 0B 0C 0D 0E 0F
      -- -- -- -- -- -- -- --  -- -- -- -- -- -- -- --
0000:             00                                        .           
```

#### Opcodes

```
  0: 0x0004 [0x00] END_REQSTACK()
```

### Event 65535.1

#### Metadata

| Field        | Value    |
|--------------|----------|
| Entrypoint   | 0x0005   |
| Data Size    | 19 bytes |
| Instructions | 5        |

```
      00 01 02 03 04 05 06 07  08 09 0A 0B 0C 0D 0E 0F
      -- -- -- -- -- -- -- --  -- -- -- -- -- -- -- --
0000:                32 00 80  1F 00 01 80 02 80 03 80       2..........
0010: 1F 01 1E 5D 21 03 01 00                           ...]!...        
```

#### Opcodes

```
  0: 0x0005 [0x32] ExtData[1]->MainSpeed = 13* * 0.1
  1: 0x0008 [0x1F] MOVE_ENTITY: EventEntity moves to X=67.426*, Z=-127.242*, Y=-6.499*
  2: 0x0010 [0x1F] MOVE_ENTITY: Update entity position (mode=1)
  3: 0x0012 [0x1E] EventEntity looks at Biyaada (ID: 16982365/0x0103215D) and starts talking
  4: 0x0017 [0x00] END_REQSTACK()
```

### Event 3136

#### Metadata

| Field        | Value   |
|--------------|---------|
| Entrypoint   | 0x0018  |
| Data Size    | 7 bytes |
| Instructions | 2       |

```
      00 01 02 03 04 05 06 07  08 09 0A 0B 0C 0D 0E 0F
      -- -- -- -- -- -- -- --  -- -- -- -- -- -- -- --
0010:                          92 01 F8 FF FF 7F 00             ....... 
```

#### Opcodes

```
  0: 0x0018 [0x92] EventEntity->Render.Flags3 ^= 0x01
  1: 0x001E [0x00] END_REQSTACK()
```

### Event 894

#### Metadata

| Field        | Value   |
|--------------|---------|
| Entrypoint   | 0x001F  |
| Data Size    | 1 bytes |
| Instructions | 1       |

```
      00 01 02 03 04 05 06 07  08 09 0A 0B 0C 0D 0E 0F
      -- -- -- -- -- -- -- --  -- -- -- -- -- -- -- --
0010:                                               00                 .
```

#### Opcodes

```
  0: 0x001F [0x00] END_REQSTACK()
```

### Event 897

#### Metadata

| Field        | Value   |
|--------------|---------|
| Entrypoint   | 0x0020  |
| Data Size    | 1 bytes |
| Instructions | 1       |

```
      00 01 02 03 04 05 06 07  08 09 0A 0B 0C 0D 0E 0F
      -- -- -- -- -- -- -- --  -- -- -- -- -- -- -- --
0020: 00                                                .               
```

#### Opcodes

```
  0: 0x0020 [0x00] END_REQSTACK()
```

### Event 65535.2

#### Metadata

| Field        | Value    |
|--------------|----------|
| Entrypoint   | 0x0021   |
| Data Size    | 15 bytes |
| Instructions | 5        |

```
      00 01 02 03 04 05 06 07  08 09 0A 0B 0C 0D 0E 0F
      -- -- -- -- -- -- -- --  -- -- -- -- -- -- -- --
0020:    32 00 80 1F 00 04 80  05 80 06 80 1F 01 6F 00   2............o.
```

#### Opcodes

```
  0: 0x0021 [0x32] ExtData[1]->MainSpeed = 13* * 0.1
  1: 0x0024 [0x1F] MOVE_ENTITY: EventEntity moves to X=80.028*, Z=-137.760*, Y=-6.000*
  2: 0x002C [0x1F] MOVE_ENTITY: Update entity position (mode=1)
  3: 0x002E [0x6F] WAIT_FRAME_DELAY: Yield until WaitTime reaches zero
  4: 0x002F [0x00] END_REQSTACK()
```

### Event 920

#### Metadata

| Field        | Value   |
|--------------|---------|
| Entrypoint   | 0x0030  |
| Data Size    | 1 bytes |
| Instructions | 1       |

```
      00 01 02 03 04 05 06 07  08 09 0A 0B 0C 0D 0E 0F
      -- -- -- -- -- -- -- --  -- -- -- -- -- -- -- --
0030: 00                                                .               
```

#### Opcodes

```
  0: 0x0030 [0x00] END_REQSTACK()
```

### Event 921

#### Metadata

| Field        | Value   |
|--------------|---------|
| Entrypoint   | 0x0031  |
| Data Size    | 1 bytes |
| Instructions | 1       |

```
      00 01 02 03 04 05 06 07  08 09 0A 0B 0C 0D 0E 0F
      -- -- -- -- -- -- -- --  -- -- -- -- -- -- -- --
0030:    00                                              .              
```

#### Opcodes

```
  0: 0x0031 [0x00] END_REQSTACK()
```

### Event 65535.3

#### Metadata

| Field        | Value    |
|--------------|----------|
| Entrypoint   | 0x0032   |
| Data Size    | 19 bytes |
| Instructions | 4        |

```
      00 01 02 03 04 05 06 07  08 09 0A 0B 0C 0D 0E 0F
      -- -- -- -- -- -- -- --  -- -- -- -- -- -- -- --
0030:       59 04 AC 21 03 01  07 80 1F 00 08 80 09 80    Y..!..........
0040: 06 80 1F 01 00                                    .....           
```

#### Opcodes

```
  0: 0x0032 [0x59] UPDATE_ENTITY_DATA: Set Shayadar (ID: 16982444/0x010321AC) main speed = 39* * 0.1
  1: 0x003A [0x1F] MOVE_ENTITY: EventEntity moves to X=80.079*, Z=-134.609*, Y=-6.000*
  2: 0x0042 [0x1F] MOVE_ENTITY: Update entity position (mode=1)
  3: 0x0044 [0x00] END_REQSTACK()
```

### Event 65535.4

#### Metadata

| Field        | Value    |
|--------------|----------|
| Entrypoint   | 0x0045   |
| Data Size    | 19 bytes |
| Instructions | 4        |

```
      00 01 02 03 04 05 06 07  08 09 0A 0B 0C 0D 0E 0F
      -- -- -- -- -- -- -- --  -- -- -- -- -- -- -- --
0040:                59 04 AC  21 03 01 00 80 1F 00 0A       Y..!.......
0050: 80 0B 80 06 80 1F 01 00                           ........        
```

#### Opcodes

```
  0: 0x0045 [0x59] UPDATE_ENTITY_DATA: Set Shayadar (ID: 16982444/0x010321AC) main speed = 13* * 0.1
  1: 0x004D [0x1F] MOVE_ENTITY: EventEntity moves to X=83.553*, Z=-130.291*, Y=-6.000*
  2: 0x0055 [0x1F] MOVE_ENTITY: Update entity position (mode=1)
  3: 0x0057 [0x00] END_REQSTACK()
```

### Event 65535.5

#### Metadata

| Field        | Value    |
|--------------|----------|
| Entrypoint   | 0x0058   |
| Data Size    | 19 bytes |
| Instructions | 4        |

```
      00 01 02 03 04 05 06 07  08 09 0A 0B 0C 0D 0E 0F
      -- -- -- -- -- -- -- --  -- -- -- -- -- -- -- --
0050:                          59 04 5C 21 03 01 0C 80          Y.\!....
0060: 1F 00 0D 80 0E 80 06 80  1F 01 00                 ...........     
```

#### Opcodes

```
  0: 0x0058 [0x59] UPDATE_ENTITY_DATA: Set Fari-Wari (ID: 16982364/0x0103215C) main speed = 37* * 0.1
  1: 0x0060 [0x1F] MOVE_ENTITY: EventEntity moves to X=84.215*, Z=-128.365*, Y=-6.000*
  2: 0x0068 [0x1F] MOVE_ENTITY: Update entity position (mode=1)
  3: 0x006A [0x00] END_REQSTACK()
```

### Event 65535.6

#### Metadata

| Field        | Value    |
|--------------|----------|
| Entrypoint   | 0x006B   |
| Data Size    | 19 bytes |
| Instructions | 4        |

```
      00 01 02 03 04 05 06 07  08 09 0A 0B 0C 0D 0E 0F
      -- -- -- -- -- -- -- --  -- -- -- -- -- -- -- --
0060:                                   59 04 5C 21 03             Y.\!.
0070: 01 00 80 1F 00 0F 80 10  80 06 80 1F 01 00        ..............  
```

#### Opcodes

```
  0: 0x006B [0x59] UPDATE_ENTITY_DATA: Set Fari-Wari (ID: 16982364/0x0103215C) main speed = 13* * 0.1
  1: 0x0073 [0x1F] MOVE_ENTITY: EventEntity moves to X=79.235*, Z=-136.349*, Y=-6.000*
  2: 0x007B [0x1F] MOVE_ENTITY: Update entity position (mode=1)
  3: 0x007D [0x00] END_REQSTACK()
```

### Event 65535.7

#### Metadata

| Field        | Value    |
|--------------|----------|
| Entrypoint   | 0x007E   |
| Data Size    | 19 bytes |
| Instructions | 4        |

```
      00 01 02 03 04 05 06 07  08 09 0A 0B 0C 0D 0E 0F
      -- -- -- -- -- -- -- --  -- -- -- -- -- -- -- --
0070:                                            59 04                Y.
0080: 5C 21 03 01 00 80 1F 00  11 80 12 80 06 80 1F 01  \!..............
0090: 00                                                .               
```

#### Opcodes

```
  0: 0x007E [0x59] UPDATE_ENTITY_DATA: Set Fari-Wari (ID: 16982364/0x0103215C) main speed = 13* * 0.1
  1: 0x0086 [0x1F] MOVE_ENTITY: EventEntity moves to X=80.391*, Z=-136.859*, Y=-6.000*
  2: 0x008E [0x1F] MOVE_ENTITY: Update entity position (mode=1)
  3: 0x0090 [0x00] END_REQSTACK()
```

### Event 65535.8

#### Metadata

| Field        | Value    |
|--------------|----------|
| Entrypoint   | 0x0091   |
| Data Size    | 13 bytes |
| Instructions | 3        |

```
      00 01 02 03 04 05 06 07  08 09 0A 0B 0C 0D 0E 0F
      -- -- -- -- -- -- -- --  -- -- -- -- -- -- -- --
0090:    6E 5C 21 03 01 13 80  99 5C 21 03 01 00         n\!.....\!...  
```

#### Opcodes

```
  0: 0x0091 [0x6E] Fari-Wari (ID: 16982364/0x0103215C) uses emote 38*
  1: 0x0098 [0x99] Wait for Fari-Wari (ID: 16982364/0x0103215C) animation to complete
  2: 0x009D [0x00] END_REQSTACK()
```

### Event 65535.9

#### Metadata

| Field        | Value    |
|--------------|----------|
| Entrypoint   | 0x009E   |
| Data Size    | 19 bytes |
| Instructions | 4        |

```
      00 01 02 03 04 05 06 07  08 09 0A 0B 0C 0D 0E 0F
      -- -- -- -- -- -- -- --  -- -- -- -- -- -- -- --
0090:                                            59 04                Y.
00A0: 60 21 03 01 14 80 1F 00  15 80 16 80 06 80 1F 01  `!..............
00B0: 00                                                .               
```

#### Opcodes

```
  0: 0x009E [0x59] UPDATE_ENTITY_DATA: Set Gadalar (ID: 16982368/0x01032160) main speed = 15* * 0.1
  1: 0x00A6 [0x1F] MOVE_ENTITY: EventEntity moves to X=80.526*, Z=-133.768*, Y=-6.000*
  2: 0x00AE [0x1F] MOVE_ENTITY: Update entity position (mode=1)
  3: 0x00B0 [0x00] END_REQSTACK()
```

### Event 65535.10

#### Metadata

| Field        | Value    |
|--------------|----------|
| Entrypoint   | 0x00B1   |
| Data Size    | 19 bytes |
| Instructions | 4        |

```
      00 01 02 03 04 05 06 07  08 09 0A 0B 0C 0D 0E 0F
      -- -- -- -- -- -- -- --  -- -- -- -- -- -- -- --
00B0:    59 04 60 21 03 01 17  80 1F 00 18 80 19 80 06   Y.`!...........
00C0: 80 1F 01 00                                       ....            
```

#### Opcodes

```
  0: 0x00B1 [0x59] UPDATE_ENTITY_DATA: Set Gadalar (ID: 16982368/0x01032160) main speed = 11* * 0.1
  1: 0x00B9 [0x1F] MOVE_ENTITY: EventEntity moves to X=80.682*, Z=-129.365*, Y=-6.000*
  2: 0x00C1 [0x1F] MOVE_ENTITY: Update entity position (mode=1)
  3: 0x00C3 [0x00] END_REQSTACK()
```

### Event 65535.11

#### Metadata

| Field        | Value    |
|--------------|----------|
| Entrypoint   | 0x00C4   |
| Data Size    | 19 bytes |
| Instructions | 4        |

```
      00 01 02 03 04 05 06 07  08 09 0A 0B 0C 0D 0E 0F
      -- -- -- -- -- -- -- --  -- -- -- -- -- -- -- --
00C0:             59 04 60 21  03 01 17 80 1F 00 18 80      Y.`!........
00D0: 1A 80 06 80 1F 01 00                              .......         
```

#### Opcodes

```
  0: 0x00C4 [0x59] UPDATE_ENTITY_DATA: Set Gadalar (ID: 16982368/0x01032160) main speed = 11* * 0.1
  1: 0x00CC [0x1F] MOVE_ENTITY: EventEntity moves to X=80.682*, Z=-122.365*, Y=-6.000*
  2: 0x00D4 [0x1F] MOVE_ENTITY: Update entity position (mode=1)
  3: 0x00D6 [0x00] END_REQSTACK()
```

### Event 65535.12

#### Metadata

| Field        | Value    |
|--------------|----------|
| Entrypoint   | 0x00D7   |
| Data Size    | 28 bytes |
| Instructions | 7        |

```
      00 01 02 03 04 05 06 07  08 09 0A 0B 0C 0D 0E 0F
      -- -- -- -- -- -- -- --  -- -- -- -- -- -- -- --
00D0:                      1F  00 1B 80 1C 80 06 80 1F         .........
00E0: 01 6F 79 00 AC 21 03 01  5C 21 03 01 1C 1D 80 39  .oy..!..\!.....9
00F0: 1E 80 00                                          ...             
```

#### Opcodes

```
  0: 0x00D7 [0x1F] MOVE_ENTITY: EventEntity moves to X=78.681*, Z=-132.522*, Y=-6.000*
  1: 0x00DF [0x1F] MOVE_ENTITY: Update entity position (mode=1)
  2: 0x00E1 [0x6F] WAIT_FRAME_DELAY: Yield until WaitTime reaches zero
  3: 0x00E2 [0x79] Shayadar (ID: 16982444/0x010321AC) looks at Fari-Wari (ID: 16982364/0x0103215C) (Basic look)
  4: 0x00EC [0x1C] WAIT(30* ticks)
  5: 0x00EF [0x39] SET_ENTITY_DIRECTION(direction=3.7째*)
  6: 0x00F2 [0x00] END_REQSTACK()
```

### Event 65535.13

#### Metadata

| Field        | Value    |
|--------------|----------|
| Entrypoint   | 0x00F3   |
| Data Size    | 11 bytes |
| Instructions | 3        |

```
      00 01 02 03 04 05 06 07  08 09 0A 0B 0C 0D 0E 0F
      -- -- -- -- -- -- -- --  -- -- -- -- -- -- -- --
00F0:          1F 00 1F 80 20  80 06 80 1F 01 00           .... ......  
```

#### Opcodes

```
  0: 0x00F3 [0x1F] MOVE_ENTITY: EventEntity moves to X=78.642*, Z=-119.395*, Y=-6.000*
  1: 0x00FB [0x1F] MOVE_ENTITY: Update entity position (mode=1)
  2: 0x00FD [0x00] END_REQSTACK()
```

### Event 65535.14

#### Metadata

| Field        | Value    |
|--------------|----------|
| Entrypoint   | 0x00FE   |
| Data Size    | 34 bytes |
| Instructions | 8        |

```
      00 01 02 03 04 05 06 07  08 09 0A 0B 0C 0D 0E 0F
      -- -- -- -- -- -- -- --  -- -- -- -- -- -- -- --
00F0:                                            1C 21                .!
0100: 80 1C 22 80 6E 45 22 03  01 17 80 99 45 22 03 01  ..".nE".....E"..
0110: 1C 23 80 6E 46 22 03 01  00 80 99 46 22 03 01 00  .#.nF".....F"...
```

#### Opcodes

```
  0: 0x00FE [0x1C] WAIT(3* ticks)
  1: 0x0101 [0x1C] WAIT(2* ticks)
  2: 0x0104 [0x6E] FAN7 (ID: 16982597/0x01032245) uses emote 11*
  3: 0x010B [0x99] Wait for FAN7 (ID: 16982597/0x01032245) animation to complete
  4: 0x0110 [0x1C] WAIT(5* ticks)
  5: 0x0113 [0x6E] FAN8 (ID: 16982598/0x01032246) uses emote 13*
  6: 0x011A [0x99] Wait for FAN8 (ID: 16982598/0x01032246) animation to complete
  7: 0x011F [0x00] END_REQSTACK()
```

### Event 65535.15

#### Metadata

| Field        | Value    |
|--------------|----------|
| Entrypoint   | 0x0120   |
| Data Size    | 67 bytes |
| Instructions | 13       |

```
      00 01 02 03 04 05 06 07  08 09 0A 0B 0C 0D 0E 0F
      -- -- -- -- -- -- -- --  -- -- -- -- -- -- -- --
0120: 6E 41 22 03 01 17 80 99  41 22 03 01 1C 21 80 5B  nA".....A"...!.[
0130: 24 80 42 22 03 01 42 22  03 01 69 72 6F 30 1C 25  $.B"..B"..iro0.%
0140: 80 1C 21 80 1C 22 80 6E  45 22 03 01 26 80 99 45  ..!..".nE"..&..E
0150: 22 03 01 1C 23 80 6E 46  22 03 01 17 80 99 46 22  "...#.nF".....F"
0160: 03 01 00                                          ...             
```

#### Opcodes

```
  0: 0x0120 [0x6E] FAN3 (ID: 16982593/0x01032241) uses emote 11*
  1: 0x0127 [0x99] Wait for FAN3 (ID: 16982593/0x01032241) animation to complete
  2: 0x012C [0x1C] WAIT(3* ticks)
  3: 0x012F [0x5B] LOAD_EXT_SCHEDULER: Load scheduler "iro0" with entities [FAN4 (ID: 16982594/0x01032242), FAN4 (ID: 16982594/0x01032242)], work=1328*
  4: 0x013E [0x1C] WAIT(4* ticks)
  5: 0x0141 [0x1C] WAIT(3* ticks)
  6: 0x0144 [0x1C] WAIT(2* ticks)
  7: 0x0147 [0x6E] FAN7 (ID: 16982597/0x01032245) uses emote 8*
  8: 0x014E [0x99] Wait for FAN7 (ID: 16982597/0x01032245) animation to complete
  9: 0x0153 [0x1C] WAIT(5* ticks)
 10: 0x0156 [0x6E] FAN8 (ID: 16982598/0x01032246) uses emote 11*
 11: 0x015D [0x99] Wait for FAN8 (ID: 16982598/0x01032246) animation to complete
 12: 0x0162 [0x00] END_REQSTACK()
```

### Event 65535.16

#### Metadata

| Field        | Value    |
|--------------|----------|
| Entrypoint   | 0x0163   |
| Data Size    | 37 bytes |
| Instructions | 7        |

```
      00 01 02 03 04 05 06 07  08 09 0A 0B 0C 0D 0E 0F
      -- -- -- -- -- -- -- --  -- -- -- -- -- -- -- --
0160:          6E 3C 22 03 01  27 80 99 3C 22 03 01 6E     n<"..'..<"..n
0170: 3D 22 03 01 26 80 99 3D  22 03 01 6E 3E 22 03 01  ="..&..="..n>"..
0180: 28 80 99 3E 22 03 01 00                           (..>"...        
```

#### Opcodes

```
  0: 0x0163 [0x6E] Wajran (ID: 16982588/0x0103223C) uses emote 1*
  1: 0x016A [0x99] Wait for Wajran (ID: 16982588/0x0103223C) animation to complete
  2: 0x016F [0x6E] PAKU02 (ID: 16982589/0x0103223D) uses emote 8*
  3: 0x0176 [0x99] Wait for PAKU02 (ID: 16982589/0x0103223D) animation to complete
  4: 0x017B [0x6E] PAKU03 (ID: 16982590/0x0103223E) uses emote 10*
  5: 0x0182 [0x99] Wait for PAKU03 (ID: 16982590/0x0103223E) animation to complete
  6: 0x0187 [0x00] END_REQSTACK()
```

### Event 65535.17

#### Metadata

| Field        | Value    |
|--------------|----------|
| Entrypoint   | 0x0188   |
| Data Size    | 37 bytes |
| Instructions | 7        |

```
      00 01 02 03 04 05 06 07  08 09 0A 0B 0C 0D 0E 0F
      -- -- -- -- -- -- -- --  -- -- -- -- -- -- -- --
0180:                          6E 3C 22 03 01 29 80 99          n<"..)..
0190: 3C 22 03 01 6E 3D 22 03  01 29 80 99 3D 22 03 01  <"..n="..)..="..
01A0: 6E 3E 22 03 01 29 80 99  3E 22 03 01 00           n>"..)..>"...   
```

#### Opcodes

```
  0: 0x0188 [0x6E] Wajran (ID: 16982588/0x0103223C) uses emote 65*
  1: 0x018F [0x99] Wait for Wajran (ID: 16982588/0x0103223C) animation to complete
  2: 0x0194 [0x6E] PAKU02 (ID: 16982589/0x0103223D) uses emote 65*
  3: 0x019B [0x99] Wait for PAKU02 (ID: 16982589/0x0103223D) animation to complete
  4: 0x01A0 [0x6E] PAKU03 (ID: 16982590/0x0103223E) uses emote 65*
  5: 0x01A7 [0x99] Wait for PAKU03 (ID: 16982590/0x0103223E) animation to complete
  6: 0x01AC [0x00] END_REQSTACK()
```

### Event 65535.18

#### Metadata

| Field        | Value    |
|--------------|----------|
| Entrypoint   | 0x01AD   |
| Data Size    | 15 bytes |
| Instructions | 5        |

```
      00 01 02 03 04 05 06 07  08 09 0A 0B 0C 0D 0E 0F
      -- -- -- -- -- -- -- --  -- -- -- -- -- -- -- --
01A0:                                         32 2A 80               2*.
01B0: 1F 00 2B 80 2C 80 2D 80  1F 01 6F 00              ..+.,.-...o.    
```

#### Opcodes

```
  0: 0x01AD [0x32] ExtData[1]->MainSpeed = 40* * 0.1
  1: 0x01B0 [0x1F] MOVE_ENTITY: EventEntity moves to X=-106.147*, Z=34.166*, Y=-5.999*
  2: 0x01B8 [0x1F] MOVE_ENTITY: Update entity position (mode=1)
  3: 0x01BA [0x6F] WAIT_FRAME_DELAY: Yield until WaitTime reaches zero
  4: 0x01BB [0x00] END_REQSTACK()
```

### Event 65535.19

#### Metadata

| Field        | Value   |
|--------------|---------|
| Entrypoint   | 0x01BC  |
| Data Size    | 5 bytes |
| Instructions | 2       |

```
      00 01 02 03 04 05 06 07  08 09 0A 0B 0C 0D 0E 0F
      -- -- -- -- -- -- -- --  -- -- -- -- -- -- -- --
01B0:                                      B6 0A 29 80              ..).
01C0: 00                                                .               
```

#### Opcodes

```
  0: 0x01BC [0xB6] ENTITY_APPEARANCE_HANDLER(case=Ranged, value=65*)
  1: 0x01C0 [0x00] END_REQSTACK()
```

### Event 65535.20

#### Metadata

| Field        | Value   |
|--------------|---------|
| Entrypoint   | 0x01C1  |
| Data Size    | 5 bytes |
| Instructions | 2       |

```
      00 01 02 03 04 05 06 07  08 09 0A 0B 0C 0D 0E 0F
      -- -- -- -- -- -- -- --  -- -- -- -- -- -- -- --
01C0:    B6 0A 2E 80 00                                  .....          
```

#### Opcodes

```
  0: 0x01C1 [0xB6] ENTITY_APPEARANCE_HANDLER(case=Ranged, value=0*)
  1: 0x01C5 [0x00] END_REQSTACK()
```

### Event 65535.21

#### Metadata

| Field        | Value   |
|--------------|---------|
| Entrypoint   | 0x01C6  |
| Data Size    | 5 bytes |
| Instructions | 2       |

```
      00 01 02 03 04 05 06 07  08 09 0A 0B 0C 0D 0E 0F
      -- -- -- -- -- -- -- --  -- -- -- -- -- -- -- --
01C0:                   B6 0A  2F 80 00                       ../..     
```

#### Opcodes

```
  0: 0x01C6 [0xB6] ENTITY_APPEARANCE_HANDLER(case=Ranged, value=75*)
  1: 0x01CA [0x00] END_REQSTACK()
```

### Event 65535.22

#### Metadata

| Field        | Value   |
|--------------|---------|
| Entrypoint   | 0x01CB  |
| Data Size    | 5 bytes |
| Instructions | 2       |

```
      00 01 02 03 04 05 06 07  08 09 0A 0B 0C 0D 0E 0F
      -- -- -- -- -- -- -- --  -- -- -- -- -- -- -- --
01C0:                                   B6 0A 2E 80 00             .....
```

#### Opcodes

```
  0: 0x01CB [0xB6] ENTITY_APPEARANCE_HANDLER(case=Ranged, value=0*)
  1: 0x01CF [0x00] END_REQSTACK()
```

### Event 65535.23

#### Metadata

| Field        | Value    |
|--------------|----------|
| Entrypoint   | 0x01D0   |
| Data Size    | 27 bytes |
| Instructions | 7        |

```
      00 01 02 03 04 05 06 07  08 09 0A 0B 0C 0D 0E 0F
      -- -- -- -- -- -- -- --  -- -- -- -- -- -- -- --
01D0: 1F 00 30 80 31 80 2E 80  1F 01 6F 4A 61 21 03 01  ..0.1.....oJa!..
01E0: 5F 21 03 01 6F 76 61 21  03 01 00                 _!..ova!...     
```

#### Opcodes

```
  0: 0x01D0 [0x1F] MOVE_ENTITY: EventEntity moves to X=-5.700*, Z=-28.344*, Y=0.000*
  1: 0x01D8 [0x1F] MOVE_ENTITY: Update entity position (mode=1)
  2: 0x01DA [0x6F] WAIT_FRAME_DELAY: Yield until WaitTime reaches zero
  3: 0x01DB [0x4A] Najelith (ID: 16982369/0x01032161) looks at Rughadjeen (ID: 16982367/0x0103215F)
  4: 0x01E4 [0x6F] WAIT_FRAME_DELAY: Yield until WaitTime reaches zero
  5: 0x01E5 [0x76] CHECK_ENTITY_RENDER_FLAGS: Wait until Najelith (ID: 16982369/0x01032161) Render.Flags0 and Render.Flags3 conditions are met
  6: 0x01EA [0x00] END_REQSTACK()
```

### Event 65535.24

#### Metadata

| Field        | Value    |
|--------------|----------|
| Entrypoint   | 0x01EB   |
| Data Size    | 27 bytes |
| Instructions | 7        |

```
      00 01 02 03 04 05 06 07  08 09 0A 0B 0C 0D 0E 0F
      -- -- -- -- -- -- -- --  -- -- -- -- -- -- -- --
01E0:                                   1F 00 32 80 33             ..2.3
01F0: 80 2E 80 1F 01 6F 4A 5F  21 03 01 61 21 03 01 6F  .....oJ_!..a!..o
0200: 76 5F 21 03 01 00                                 v_!...          
```

#### Opcodes

```
  0: 0x01EB [0x1F] MOVE_ENTITY: EventEntity moves to X=-3.756*, Z=-27.826*, Y=0.000*
  1: 0x01F3 [0x1F] MOVE_ENTITY: Update entity position (mode=1)
  2: 0x01F5 [0x6F] WAIT_FRAME_DELAY: Yield until WaitTime reaches zero
  3: 0x01F6 [0x4A] Rughadjeen (ID: 16982367/0x0103215F) looks at Najelith (ID: 16982369/0x01032161)
  4: 0x01FF [0x6F] WAIT_FRAME_DELAY: Yield until WaitTime reaches zero
  5: 0x0200 [0x76] CHECK_ENTITY_RENDER_FLAGS: Wait until Rughadjeen (ID: 16982367/0x0103215F) Render.Flags0 and Render.Flags3 conditions are met
  6: 0x0205 [0x00] END_REQSTACK()
```

### Event 65535.25

#### Metadata

| Field        | Value    |
|--------------|----------|
| Entrypoint   | 0x0206   |
| Data Size    | 40 bytes |
| Instructions | 6        |

```
      00 01 02 03 04 05 06 07  08 09 0A 0B 0C 0D 0E 0F
      -- -- -- -- -- -- -- --  -- -- -- -- -- -- -- --
0200:                   1F 00  34 80 35 80 2E 80 1F 01        ..4.5.....
0210: 6F 66 36 80 5F 21 03 01  5F 21 03 01 73 68 61 30  of6._!.._!..sha0
0220: 53 5F 21 03 01 5F 21 03  01 73 68 61 30 00        S_!.._!..sha0.  
```

#### Opcodes

```
  0: 0x0206 [0x1F] MOVE_ENTITY: EventEntity moves to X=-2.438*, Z=-27.426*, Y=0.000*
  1: 0x020E [0x1F] MOVE_ENTITY: Update entity position (mode=1)
  2: 0x0210 [0x6F] WAIT_FRAME_DELAY: Yield until WaitTime reaches zero
  3: 0x0211 [0x66] LOAD_EXT_SCHEDULER_MAIN: Load scheduler "sha0" with entities [Rughadjeen (ID: 16982367/0x0103215F), Rughadjeen (ID: 16982367/0x0103215F)], work=29*
  4: 0x0220 [0x53] WAIT_SCHEDULER_TASK: Wait for scheduler "sha0" with entities [Rughadjeen (ID: 16982367/0x0103215F), Rughadjeen (ID: 16982367/0x0103215F)]
  5: 0x022D [0x00] END_REQSTACK()
```

### Event 65535.26

#### Metadata

| Field        | Value    |
|--------------|----------|
| Entrypoint   | 0x022E   |
| Data Size    | 19 bytes |
| Instructions | 3        |

```
      00 01 02 03 04 05 06 07  08 09 0A 0B 0C 0D 0E 0F
      -- -- -- -- -- -- -- --  -- -- -- -- -- -- -- --
0220:                                            1C 37                .7
0230: 80 66 38 80 5C 21 03 01  5C 21 03 01 62 73 6B 30  .f8.\!..\!..bsk0
0240: 00                                                .               
```

#### Opcodes

```
  0: 0x022E [0x1C] WAIT(45* ticks)
  1: 0x0231 [0x66] LOAD_EXT_SCHEDULER_MAIN: Load scheduler "bsk0" with entities [Fari-Wari (ID: 16982364/0x0103215C), Fari-Wari (ID: 16982364/0x0103215C)], work=42*
  2: 0x0240 [0x00] END_REQSTACK()
```

### Event 65535.27

#### Metadata

| Field        | Value    |
|--------------|----------|
| Entrypoint   | 0x0241   |
| Data Size    | 24 bytes |
| Instructions | 6        |

```
      00 01 02 03 04 05 06 07  08 09 0A 0B 0C 0D 0E 0F
      -- -- -- -- -- -- -- --  -- -- -- -- -- -- -- --
0240:    32 2A 80 1F 00 39 80  3A 80 2D 80 1F 01 6F 4A   2*...9.:.-...oJ
0250: 5C 21 03 01 2C 22 03 01  00                       \!..,"...       
```

#### Opcodes

```
  0: 0x0241 [0x32] ExtData[1]->MainSpeed = 40* * 0.1
  1: 0x0244 [0x1F] MOVE_ENTITY: EventEntity moves to X=86.503*, Z=-129.792*, Y=-5.999*
  2: 0x024C [0x1F] MOVE_ENTITY: Update entity position (mode=1)
  3: 0x024E [0x6F] WAIT_FRAME_DELAY: Yield until WaitTime reaches zero
  4: 0x024F [0x4A] Fari-Wari (ID: 16982364/0x0103215C) looks at Wajran (ID: 16982572/0x0103222C)
  5: 0x0258 [0x00] END_REQSTACK()
```

### Event 5091

#### Metadata

| Field        | Value   |
|--------------|---------|
| Entrypoint   | 0x0259  |
| Data Size    | 1 bytes |
| Instructions | 1       |

```
      00 01 02 03 04 05 06 07  08 09 0A 0B 0C 0D 0E 0F
      -- -- -- -- -- -- -- --  -- -- -- -- -- -- -- --
0250:                             00                             .      
```

#### Opcodes

```
  0: 0x0259 [0x00] END_REQSTACK()
```

### Event 65535.28

#### Metadata

| Field        | Value    |
|--------------|----------|
| Entrypoint   | 0x025A   |
| Data Size    | 47 bytes |
| Instructions | 11       |

```
      00 01 02 03 04 05 06 07  08 09 0A 0B 0C 0D 0E 0F
      -- -- -- -- -- -- -- --  -- -- -- -- -- -- -- --
0250:                                32 2A 80 1F 00 3B            2*...;
0260: 80 3C 80 2D 80 1F 01 1F  00 3D 80 3E 80 2D 80 1F  .<.-.....=.>.-..
0270: 01 1F 00 3F 80 40 80 2D  80 1F 01 4B F8 FF FF 7F  ...?.@.-...K....
0280: 41 80 6F 76 F8 FF FF 7F  00                       A.ov.....       
```

#### Opcodes

```
  0: 0x025A [0x32] ExtData[1]->MainSpeed = 40* * 0.1
  1: 0x025D [0x1F] MOVE_ENTITY: EventEntity moves to X=84.032*, Z=-136.002*, Y=-5.999*
  2: 0x0265 [0x1F] MOVE_ENTITY: Update entity position (mode=1)
  3: 0x0267 [0x1F] MOVE_ENTITY: EventEntity moves to X=85.414*, Z=-133.565*, Y=-5.999*
  4: 0x026F [0x1F] MOVE_ENTITY: Update entity position (mode=1)
  5: 0x0271 [0x1F] MOVE_ENTITY: EventEntity moves to X=80.721*, Z=-123.569*, Y=-5.999*
  6: 0x0279 [0x1F] MOVE_ENTITY: Update entity position (mode=1)
  7: 0x027B [0x4B] UPDATE_ENTITY_YAW(entity=EventEntity, yaw=5.9째*)
  8: 0x0282 [0x6F] WAIT_FRAME_DELAY: Yield until WaitTime reaches zero
  9: 0x0283 [0x76] CHECK_ENTITY_RENDER_FLAGS: Wait until EventEntity Render.Flags0 and Render.Flags3 conditions are met
 10: 0x0288 [0x00] END_REQSTACK()
```

### Event 65535.29

#### Metadata

| Field        | Value    |
|--------------|----------|
| Entrypoint   | 0x0289   |
| Data Size    | 14 bytes |
| Instructions | 4        |

```
      00 01 02 03 04 05 06 07  08 09 0A 0B 0C 0D 0E 0F
      -- -- -- -- -- -- -- --  -- -- -- -- -- -- -- --
0280:                             32 00 80 1F 00 42 80           2....B.
0290: 43 80 06 80 1F 01 00                              C......         
```

#### Opcodes

```
  0: 0x0289 [0x32] ExtData[1]->MainSpeed = 13* * 0.1
  1: 0x028C [0x1F] MOVE_ENTITY: EventEntity moves to X=80.868*, Z=-128.988*, Y=-6.000*
  2: 0x0294 [0x1F] MOVE_ENTITY: Update entity position (mode=1)
  3: 0x0296 [0x00] END_REQSTACK()
```

### Event 5093

#### Metadata

| Field        | Value   |
|--------------|---------|
| Entrypoint   | 0x0297  |
| Data Size    | 1 bytes |
| Instructions | 1       |

```
      00 01 02 03 04 05 06 07  08 09 0A 0B 0C 0D 0E 0F
      -- -- -- -- -- -- -- --  -- -- -- -- -- -- -- --
0290:                      00                                  .        
```

#### Opcodes

```
  0: 0x0297 [0x00] END_REQSTACK()
```

### Event 65535.30

#### Metadata

| Field        | Value    |
|--------------|----------|
| Entrypoint   | 0x0298   |
| Data Size    | 33 bytes |
| Instructions | 9        |

```
      00 01 02 03 04 05 06 07  08 09 0A 0B 0C 0D 0E 0F
      -- -- -- -- -- -- -- --  -- -- -- -- -- -- -- --
0290:                          1C 44 80 32 00 80 1F 00          .D.2....
02A0: 45 80 46 80 06 80 1F 01  1C 28 80 4B F8 FF FF 7F  E.F......(.K....
02B0: 47 80 6F 76 F8 FF FF 7F  00                       G.ov.....       
```

#### Opcodes

```
  0: 0x0298 [0x1C] WAIT(90* ticks)
  1: 0x029B [0x32] ExtData[1]->MainSpeed = 13* * 0.1
  2: 0x029E [0x1F] MOVE_ENTITY: EventEntity moves to X=79.411*, Z=-132.957*, Y=-6.000*
  3: 0x02A6 [0x1F] MOVE_ENTITY: Update entity position (mode=1)
  4: 0x02A8 [0x1C] WAIT(10* ticks)
  5: 0x02AB [0x4B] UPDATE_ENTITY_YAW(entity=EventEntity, yaw=19.6째*)
  6: 0x02B2 [0x6F] WAIT_FRAME_DELAY: Yield until WaitTime reaches zero
  7: 0x02B3 [0x76] CHECK_ENTITY_RENDER_FLAGS: Wait until EventEntity Render.Flags0 and Render.Flags3 conditions are met
  8: 0x02B8 [0x00] END_REQSTACK()
```

### Event 65535.31

#### Metadata

| Field        | Value    |
|--------------|----------|
| Entrypoint   | 0x02B9   |
| Data Size    | 32 bytes |
| Instructions | 8        |

```
      00 01 02 03 04 05 06 07  08 09 0A 0B 0C 0D 0E 0F
      -- -- -- -- -- -- -- --  -- -- -- -- -- -- -- --
02B0:                             32 2A 80 1F 00 48 80           2*...H.
02C0: 49 80 06 80 1F 01 1C 28  80 4A F8 FF FF 7F 9A 21  I......(.J.....!
02D0: 03 01 6F 76 F8 FF FF 7F  00                       ..ov.....       
```

#### Opcodes

```
  0: 0x02B9 [0x32] ExtData[1]->MainSpeed = 40* * 0.1
  1: 0x02BC [0x1F] MOVE_ENTITY: EventEntity moves to X=78.296*, Z=-130.252*, Y=-6.000*
  2: 0x02C4 [0x1F] MOVE_ENTITY: Update entity position (mode=1)
  3: 0x02C6 [0x1C] WAIT(10* ticks)
  4: 0x02C9 [0x4A] EventEntity looks at Zazarg (ID: 16982426/0x0103219A)
  5: 0x02D2 [0x6F] WAIT_FRAME_DELAY: Yield until WaitTime reaches zero
  6: 0x02D3 [0x76] CHECK_ENTITY_RENDER_FLAGS: Wait until EventEntity Render.Flags0 and Render.Flags3 conditions are met
  7: 0x02D8 [0x00] END_REQSTACK()
```

### Event 65535.32

#### Metadata

| Field        | Value    |
|--------------|----------|
| Entrypoint   | 0x02D9   |
| Data Size    | 10 bytes |
| Instructions | 2        |

```
      00 01 02 03 04 05 06 07  08 09 0A 0B 0C 0D 0E 0F
      -- -- -- -- -- -- -- --  -- -- -- -- -- -- -- --
02D0:                             37 4A 80 4B 80 06 80           7J.K...
02E0: 4C 80 00                                          L..             
```

#### Opcodes

```
  0: 0x02D9 [0x37] UPDATE_EVENT_POSITION_AND_DIR: x=75.248*, z=-125.459*, y=-6.000*, direction=54.6째*
  1: 0x02E2 [0x00] END_REQSTACK()
```
