# 16982362

## Common Data

| Field            | Value                          |
|------------------|--------------------------------|
| Zone             | Aht Urhgan Whitegate2 (ID: 50) |
| Block Size       | 16012 bytes                    |
| Total Events     | 6                              |
| References Count | 392                            |

## List of Events

| Event ID              | Entrypoint   |   Size |   Instructions |
|-----------------------|--------------|--------|----------------|
| [65535](#event-65535) | 0x0000       |      1 |              1 |
| [894](#event-894)     | 0x0001       |   4154 |            513 |
| [895](#event-895)     | 0x103B       |   2258 |            281 |
| [896](#event-896)     | 0x190D       |   2081 |            249 |
| [897](#event-897)     | 0x212E       |   2286 |            281 |
| [5090](#event-5090)   | 0x2A1C       |   3624 |            428 |

## DAT References (imed_data)

|   Index | Hex Value   |   Dec Value |
|---------|-------------|-------------|
|       0 | 0x00C8      |         200 |
|       1 | 0x0000      |           0 |
|       2 | 0x0013      |          19 |
|       3 | 0x0235      |         565 |
|       4 | 0x13B1B     |       80667 |
|       5 | 0xFFFE01A7  |  4294836647 |
|       6 | 0xFFFFE890  |  4294961296 |
|       7 | 0x0418      |        1048 |
|       8 | 0x1380A     |       79882 |
|       9 | 0xFFFDEAE2  |  4294830818 |
|      10 | 0x0C02      |        3074 |
|      11 | 0x135CB     |       79307 |
|      12 | 0xFFFDF2B1  |  4294832817 |
|      13 | 0x044F      |        1103 |
|      14 | 0x13B97     |       80791 |
|      15 | 0xFFFDF2C2  |  4294832834 |
|      16 | 0xFFFFE891  |  4294961297 |
|      17 | 0x02CF      |         719 |
|      18 | 0x003C      |          60 |
|      19 | 0x013A      |         314 |
|      20 | 0x00A3      |         163 |
|      21 | 0x0016      |          22 |
|      22 | 0x2F33      |       12083 |
|      23 | 0x000F      |          15 |
|      24 | 0x2F34      |       12084 |
|      25 | 0x0019      |          25 |
|      26 | 0x2F35      |       12085 |
|      27 | 0x2F36      |       12086 |
|      28 | 0x2F37      |       12087 |
|      29 | 0x0014      |          20 |
|      30 | 0x2F38      |       12088 |
|      31 | 0x001D      |          29 |
|      32 | 0x2F39      |       12089 |
|      33 | 0x2F3A      |       12090 |
|      34 | 0x0022      |          34 |
|      35 | 0x2F3B      |       12091 |
|      36 | 0x2F3C      |       12092 |
|      37 | 0x2F3D      |       12093 |
|      38 | 0x2F3E      |       12094 |
|      39 | 0x000A      |          10 |
|      40 | 0x2F3F      |       12095 |
|      41 | 0x2F40      |       12096 |
|      42 | 0x2F41      |       12097 |
|      43 | 0x001A      |          26 |
|      44 | 0x2F42      |       12098 |
|      45 | 0x2F43      |       12099 |
|      46 | 0x138A0     |       80032 |
|      47 | 0xFFFDF85C  |  4294834268 |
|      48 | 0x2F44      |       12100 |
|      49 | 0x0031      |          49 |
|      50 | 0x2F45      |       12101 |
|      51 | 0x001E      |          30 |
|      52 | 0x2F46      |       12102 |
|      53 | 0x2F47      |       12103 |
|      54 | 0x2F48      |       12104 |
|      55 | 0x000B      |          11 |
|      56 | 0x2F49      |       12105 |
|      57 | 0x005A      |          90 |
|      58 | 0x2F4A      |       12106 |
|      59 | 0x0021      |          33 |
|      60 | 0x2F4B      |       12107 |
|      61 | 0x0020      |          32 |
|      62 | 0x2F4C      |       12108 |
|      63 | 0x2F4D      |       12109 |
|      64 | 0x2F4E      |       12110 |
|      65 | 0x2F4F      |       12111 |
|      66 | 0x2F50      |       12112 |
|      67 | 0x2F51      |       12113 |
|      68 | 0x2F52      |       12114 |
|      69 | 0x2F53      |       12115 |
|      70 | 0x2F54      |       12116 |
|      71 | 0x2F55      |       12117 |
|      72 | 0x0004      |           4 |
|      73 | 0x2F56      |       12118 |
|      74 | 0x2F57      |       12119 |
|      75 | 0x2F58      |       12120 |
|      76 | 0x2F59      |       12121 |
|      77 | 0x2F5A      |       12122 |
|      78 | 0x2F5B      |       12123 |
|      79 | 0x2F5C      |       12124 |
|      80 | 0x0064      |         100 |
|      81 | 0x0078      |         120 |
|      82 | 0x00B2      |         178 |
|      83 | 0x2F5D      |       12125 |
|      84 | 0x2F5E      |       12126 |
|      85 | 0x2F5F      |       12127 |
|      86 | 0x2F60      |       12128 |
|      87 | 0x0023      |          35 |
|      88 | 0x2F61      |       12129 |
|      89 | 0x2F62      |       12130 |
|      90 | 0x2F63      |       12131 |
|      91 | 0x2F64      |       12132 |
|      92 | 0x2F65      |       12133 |
|      93 | 0x2F66      |       12134 |
|      94 | 0x0015      |          21 |
|      95 | 0x2F67      |       12135 |
|      96 | 0x2F68      |       12136 |
|      97 | 0x2F69      |       12137 |
|      98 | 0x2F6A      |       12138 |
|      99 | 0x000D      |          13 |
|     100 | 0x2F6B      |       12139 |
|     101 | 0x0001      |           1 |
|     102 | 0x2F6C      |       12140 |
|     103 | 0x2F6D      |       12141 |
|     104 | 0x2F6E      |       12142 |
|     105 | 0x0003      |           3 |
|     106 | 0x2F6F      |       12143 |
|     107 | 0x2F70      |       12144 |
|     108 | 0x2F71      |       12145 |
|     109 | 0x2F72      |       12146 |
|     110 | 0x2F73      |       12147 |
|     111 | 0x2F74      |       12148 |
|     112 | 0x13680     |       79488 |
|     113 | 0xFFFDECA7  |  4294831271 |
|     114 | 0x00A4      |         164 |
|     115 | 0x2F75      |       12149 |
|     116 | 0x2F76      |       12150 |
|     117 | 0x2F77      |       12151 |
|     118 | 0x2F78      |       12152 |
|     119 | 0x2F79      |       12153 |
|     120 | 0x2F7A      |       12154 |
|     121 | 0x2F7B      |       12155 |
|     122 | 0x2F7C      |       12156 |
|     123 | 0x2F7D      |       12157 |
|     124 | 0x2F7E      |       12158 |
|     125 | 0x2F7F      |       12159 |
|     126 | 0x2F80      |       12160 |
|     127 | 0x2F81      |       12161 |
|     128 | 0x2F82      |       12162 |
|     129 | 0x2F83      |       12163 |
|     130 | 0x2F84      |       12164 |
|     131 | 0x2F85      |       12165 |
|     132 | 0x2F86      |       12166 |
|     133 | 0x2F87      |       12167 |
|     134 | 0x2F88      |       12168 |
|     135 | 0x2F89      |       12169 |
|     136 | 0x2F8A      |       12170 |
|     137 | 0xFFFF1A21  |  4294908449 |
|     138 | 0xFFFFF522  |  4294964514 |
|     139 | 0x011B      |         283 |
|     140 | 0x2F8B      |       12171 |
|     141 | 0x2F8C      |       12172 |
|     142 | 0x2F8D      |       12173 |
|     143 | 0x2F8E      |       12174 |
|     144 | 0x2F8F      |       12175 |
|     145 | 0x2F90      |       12176 |
|     146 | 0x2F91      |       12177 |
|     147 | 0x2F92      |       12178 |
|     148 | 0x2F93      |       12179 |
|     149 | 0xFFFFBA06  |  4294949382 |
|     150 | 0x18A58     |      100952 |
|     151 | 0x07CF      |        1999 |
|     152 | 0x0A24      |        2596 |
|     153 | 0xFFFFB02D  |  4294946861 |
|     154 | 0x18759     |      100185 |
|     155 | 0x0A22      |        2594 |
|     156 | 0xFFFFB24F  |  4294947407 |
|     157 | 0x18A55     |      100949 |
|     158 | 0x0898      |        2200 |
|     159 | 0x007B      |         123 |
|     160 | 0x2F94      |       12180 |
|     161 | 0x2F95      |       12181 |
|     162 | 0x2F96      |       12182 |
|     163 | 0x2F97      |       12183 |
|     164 | 0x2F98      |       12184 |
|     165 | 0x2F99      |       12185 |
|     166 | 0x2F9A      |       12186 |
|     167 | 0x2F9B      |       12187 |
|     168 | 0xFFFFDFA5  |  4294959013 |
|     169 | 0x16FDE     |       94174 |
|     170 | 0x0A23      |        2595 |
|     171 | 0x2F9C      |       12188 |
|     172 | 0x2F9D      |       12189 |
|     173 | 0x002D      |          45 |
|     174 | 0x2F9E      |       12190 |
|     175 | 0x2F9F      |       12191 |
|     176 | 0x2FA0      |       12192 |
|     177 | 0x2FA1      |       12193 |
|     178 | 0x2FA2      |       12194 |
|     179 | 0x2FA3      |       12195 |
|     180 | 0x2FA4      |       12196 |
|     181 | 0x2FA5      |       12197 |
|     182 | 0x2FA6      |       12198 |
|     183 | 0x2FA7      |       12199 |
|     184 | 0x2FA8      |       12200 |
|     185 | 0x2FA9      |       12201 |
|     186 | 0x0009      |           9 |
|     187 | 0x2FAA      |       12202 |
|     188 | 0x2FAB      |       12203 |
|     189 | 0x2FAC      |       12204 |
|     190 | 0x2FAD      |       12205 |
|     191 | 0x0007      |           7 |
|     192 | 0x2FAE      |       12206 |
|     193 | 0x0139      |         313 |
|     194 | 0xFFFF2383  |  4294910851 |
|     195 | 0xFFFFF357  |  4294964055 |
|     196 | 0x07D8      |        2008 |
|     197 | 0x2FAF      |       12207 |
|     198 | 0x2FB0      |       12208 |
|     199 | 0x2FB1      |       12209 |
|     200 | 0x2FB2      |       12210 |
|     201 | 0x2FB3      |       12211 |
|     202 | 0x2FB4      |       12212 |
|     203 | 0x2FB5      |       12213 |
|     204 | 0x2FB6      |       12214 |
|     205 | 0x2FB7      |       12215 |
|     206 | 0x0002      |           2 |
|     207 | 0x2FB8      |       12216 |
|     208 | 0x2FB9      |       12217 |
|     209 | 0x2FBA      |       12218 |
|     210 | 0x2FBB      |       12219 |
|     211 | 0x2FBC      |       12220 |
|     212 | 0x2FBD      |       12221 |
|     213 | 0x136E3     |       79587 |
|     214 | 0xC37E      |       50046 |
|     215 | 0x01E0      |         480 |
|     216 | 0x0BB8      |        3000 |
|     217 | 0x0232      |         562 |
|     218 | 0x2FBE      |       12222 |
|     219 | 0x2FBF      |       12223 |
|     220 | 0x2FC0      |       12224 |
|     221 | 0x2FC1      |       12225 |
|     222 | 0x2FC2      |       12226 |
|     223 | 0x2FC3      |       12227 |
|     224 | 0x2FC4      |       12228 |
|     225 | 0x2FC5      |       12229 |
|     226 | 0x2FC6      |       12230 |
|     227 | 0xFAF6      |       64246 |
|     228 | 0x4357      |       17239 |
|     229 | 0xDF12      |       57106 |
|     230 | 0x6C37      |       27703 |
|     231 | 0x0174      |         372 |
|     232 | 0x04D0      |        1232 |
|     233 | 0x00B7      |         183 |
|     234 | 0x2FC7      |       12231 |
|     235 | 0x2FC8      |       12232 |
|     236 | 0x2FC9      |       12233 |
|     237 | 0x2FCA      |       12234 |
|     238 | 0x2FCB      |       12235 |
|     239 | 0x2FCC      |       12236 |
|     240 | 0x2FCD      |       12237 |
|     241 | 0x2FCE      |       12238 |
|     242 | 0x2FCF      |       12239 |
|     243 | 0x2FD0      |       12240 |
|     244 | 0x2FD1      |       12241 |
|     245 | 0x2FD2      |       12242 |
|     246 | 0x2FD3      |       12243 |
|     247 | 0x036E      |         878 |
|     248 | 0x2FD4      |       12244 |
|     249 | 0x2FD5      |       12245 |
|     250 | 0x2FD6      |       12246 |
|     251 | 0x10DC7     |       69063 |
|     252 | 0x4626      |       17958 |
|     253 | 0x071E      |        1822 |
|     254 | 0x2FD7      |       12247 |
|     255 | 0x2FD8      |       12248 |
|     256 | 0x2FD9      |       12249 |
|     257 | 0x2FDA      |       12250 |
|     258 | 0x2FDB      |       12251 |
|     259 | 0x2FDC      |       12252 |
|     260 | 0x2FDD      |       12253 |
|     261 | 0x2FDE      |       12254 |
|     262 | 0x2FDF      |       12255 |
|     263 | 0x1389B     |       80027 |
|     264 | 0xD720      |       55072 |
|     265 | 0xFFFFFEBB  |  4294966971 |
|     266 | 0x0400      |        1024 |
|     267 | 0x2FE0      |       12256 |
|     268 | 0x2FE1      |       12257 |
|     269 | 0x2FE2      |       12258 |
|     270 | 0x2FE3      |       12259 |
|     271 | 0x2FE4      |       12260 |
|     272 | 0x2FE5      |       12261 |
|     273 | 0x138F6     |       80118 |
|     274 | 0xFFFDF4D3  |  4294833363 |
|     275 | 0x13C60     |       80992 |
|     276 | 0xFFFDF229  |  4294832681 |
|     277 | 0x0482      |        1154 |
|     278 | 0x2FE6      |       12262 |
|     279 | 0x2FE7      |       12263 |
|     280 | 0x2FE8      |       12264 |
|     281 | 0x2FE9      |       12265 |
|     282 | 0x2FEA      |       12266 |
|     283 | 0x2FEB      |       12267 |
|     284 | 0x2FEC      |       12268 |
|     285 | 0x2FED      |       12269 |
|     286 | 0x2FEE      |       12270 |
|     287 | 0x2FEF      |       12271 |
|     288 | 0x2FF0      |       12272 |
|     289 | 0x2FF1      |       12273 |
|     290 | 0x2FF2      |       12274 |
|     291 | 0x2FF3      |       12275 |
|     292 | 0x2FF4      |       12276 |
|     293 | 0x2FF5      |       12277 |
|     294 | 0x2FF6      |       12278 |
|     295 | 0x2FF7      |       12279 |
|     296 | 0x2FF8      |       12280 |
|     297 | 0x2FF9      |       12281 |
|     298 | 0x2FFA      |       12282 |
|     299 | 0x2FFB      |       12283 |
|     300 | 0x2FFC      |       12284 |
|     301 | 0x2FFD      |       12285 |
|     302 | 0x2FFE      |       12286 |
|     303 | 0x13256     |       78422 |
|     304 | 0xFFFDEB26  |  4294830886 |
|     305 | 0x0026      |          38 |
|     306 | 0x2FFF      |       12287 |
|     307 | 0x3000      |       12288 |
|     308 | 0x0118      |         280 |
|     309 | 0x3001      |       12289 |
|     310 | 0x3002      |       12290 |
|     311 | 0x3003      |       12291 |
|     312 | 0x3004      |       12292 |
|     313 | 0x3005      |       12293 |
|     314 | 0x003B      |          59 |
|     315 | 0x3006      |       12294 |
|     316 | 0x3007      |       12295 |
|     317 | 0x3008      |       12296 |
|     318 | 0x3009      |       12297 |
|     319 | 0x300A      |       12298 |
|     320 | 0x004B      |          75 |
|     321 | 0x03BB      |         955 |
|     322 | 0x300B      |       12299 |
|     323 | 0x00C9      |         201 |
|     324 | 0x0190      |         400 |
|     325 | 0x10B12     |       68370 |
|     326 | 0xFFFE0BB5  |  4294839221 |
|     327 | 0xFFFFE69D  |  4294960797 |
|     328 | 0x0E3A      |        3642 |
|     329 | 0x11704     |       71428 |
|     330 | 0xFFFE1430  |  4294841392 |
|     331 | 0x064F      |        1615 |
|     332 | 0x125D9     |       75225 |
|     333 | 0xFFFDE80D  |  4294830093 |
|     334 | 0x0D3F      |        3391 |
|     335 | 0x0455      |        1109 |
|     336 | 0x02A7      |         679 |
|     337 | 0x3C20      |       15392 |
|     338 | 0x3C21      |       15393 |
|     339 | 0x0005      |           5 |
|     340 | 0x0006      |           6 |
|     341 | 0x0050      |          80 |
|     342 | 0x3C22      |       15394 |
|     343 | 0x103EA     |       66538 |
|     344 | 0xFFFE103F  |  4294840383 |
|     345 | 0xFFFFE69C  |  4294960796 |
|     346 | 0x0181      |         385 |
|     347 | 0x10B5D     |       68445 |
|     348 | 0xFFFE0AF0  |  4294839024 |
|     349 | 0x0984      |        2436 |
|     350 | 0x007F      |         127 |
|     351 | 0x0318      |         792 |
|     352 | 0x3C23      |       15395 |
|     353 | 0x3C24      |       15396 |
|     354 | 0x3C25      |       15397 |
|     355 | 0x3C26      |       15398 |
|     356 | 0x3C27      |       15399 |
|     357 | 0x0008      |           8 |
|     358 | 0x3C28      |       15400 |
|     359 | 0x3C29      |       15401 |
|     360 | 0x3C2A      |       15402 |
|     361 | 0x3C2C      |       15404 |
|     362 | 0x3C2D      |       15405 |
|     363 | 0x3C2E      |       15406 |
|     364 | 0x3C2F      |       15407 |
|     365 | 0x3C30      |       15408 |
|     366 | 0x3C31      |       15409 |
|     367 | 0x3C32      |       15410 |
|     368 | 0x3C33      |       15411 |
|     369 | 0x3C34      |       15412 |
|     370 | 0x3C36      |       15414 |
|     371 | 0x3C37      |       15415 |
|     372 | 0x3C38      |       15416 |
|     373 | 0x3C39      |       15417 |
|     374 | 0x3C3A      |       15418 |
|     375 | 0x3C3B      |       15419 |
|     376 | 0x3C3C      |       15420 |
|     377 | 0x3C3D      |       15421 |
|     378 | 0x3C3E      |       15422 |
|     379 | 0x00AE      |         174 |
|     380 | 0x104BA     |       66746 |
|     381 | 0xFFFE0886  |  4294838406 |
|     382 | 0x0F85      |        3973 |
|     383 | 0x00B1      |         177 |
|     384 | 0x0096      |         150 |
|     385 | 0x3C3F      |       15423 |
|     386 | 0x3C40      |       15424 |
|     387 | 0x3C41      |       15425 |
|     388 | 0x00FE      |         254 |
|     389 | 0x3C35      |       15413 |
|     390 | 0x0402      |        1026 |
|     391 | 0x3C2B      |       15403 |

## String References

- **12138**: Do you agree? [Oh, absolutely./Not really...]
- **12264**: What do you tell Fari-Wari? [The "safe" version./The "full" version.]
- **15402**: What will you do? [Keep his secret./Betray his confidence.]
- **15412**: How do you respond? [Engage away!/I'm not so sure...]

## Events

### Event 65535

#### Metadata

| Field        | Value   |
|--------------|---------|
| Entrypoint   | 0x0000  |
| Data Size    | 1 bytes |
| Instructions | 1       |

```
      00 01 02 03 04 05 06 07  08 09 0A 0B 0C 0D 0E 0F
      -- -- -- -- -- -- -- --  -- -- -- -- -- -- -- --
0000: 00                                                .               
```

#### Opcodes

```
  0: 0x0000 [0x00] END_REQSTACK()
```

### Event 894

#### Metadata

| Field        | Value      |
|--------------|------------|
| Entrypoint   | 0x0001     |
| Data Size    | 4154 bytes |
| Instructions | 513        |

```
      00 01 02 03 04 05 06 07  08 09 0A 0B 0C 0D 0E 0F
      -- -- -- -- -- -- -- --  -- -- -- -- -- -- -- --
0000:    42 45 00 80 F8 FF FF  7F F8 FF FF 7F 66 64 6F   BE..........fdo
0010: 31 01 80 55 00 80 F8 FF  FF 7F F8 FF FF 7F 66 64  1..U..........fd
0020: 6F 31 46 01 38 02 80 75  00 03 80 75 01 4E 00 A8  o1F.8..u...u.N..
0030: 21 03 01 4E 00 A9 21 03  01 92 01 5C 21 03 01 92  !..N..!....\!...
0040: 01 A8 21 03 01 92 01 A9  21 03 01 92 01 F8 20 03  ..!.....!..... .
0050: 01 94 01 F0 FF FF 7F 94  01 5C 21 03 01 22 01 4E  .........\!..".N
0060: 01 F0 FF FF 7F BA F0 FF  FF 7F 04 80 05 80 06 80  ................
0070: 07 80 BA 5C 21 03 01 08  80 09 80 06 80 0A 80 BA  ...\!...........
0080: A8 21 03 01 0B 80 0C 80  06 80 0D 80 BA A9 21 03  .!............!.
0090: 01 0E 80 0F 80 10 80 07  80 80 F0 FF FF 7F 80 5C  ...............\
00A0: 21 03 01 80 A8 21 03 01  80 A9 21 03 01 5B 11 80  !....!....!..[..
00B0: 5C 21 03 01 5C 21 03 01  64 67 65 30 53 5C 21 03  \!..\!..dge0S\!.
00C0: 01 5C 21 03 01 64 67 65  30 79 00 A9 21 03 01 5C  .\!..dge0y..!..\
00D0: 21 03 01 4E 01 F8 20 03  01 29 10 F0 FF FF 7F 08  !..N.. ..)......
00E0: 1C 12 80 45 13 80 F0 FF  FF 7F F0 FF FF 7F 78 78  ...E..........xx
00F0: 78 78 01 80 45 00 80 F0  FF FF 7F F0 FF FF 7F 66  xx..E..........f
0100: 64 69 31 01 80 5C 00 14  80 5C 01 14 80 9A 1C 12  di1..\...\......
0110: 80 6E A8 21 03 01 15 80  99 A8 21 03 01 2B A8 21  .n.!......!..+.!
0120: 03 01 16 80 23 52 13 80  F0 FF FF 7F F0 FF FF 7F  ....#R..........
0130: 78 78 78 78 45 13 80 F0  FF FF 7F F0 FF FF 7F 62  xxxxE..........b
0140: 30 30 30 01 80 1C 17 80  2B 5C 21 03 01 18 80 23  000.....+\!....#
0150: 99 A8 21 03 01 52 13 80  F0 FF FF 7F F0 FF FF 7F  ..!..R..........
0160: 62 30 30 30 45 13 80 F0  FF FF 7F F0 FF FF 7F 62  b000E..........b
0170: 30 30 31 01 80 6E A9 21  03 01 19 80 99 A9 21 03  001..n.!......!.
0180: 01 2B A9 21 03 01 1A 80  23 52 13 80 F0 FF FF 7F  .+.!....#R......
0190: F0 FF FF 7F 62 30 30 31  45 13 80 F0 FF FF 7F F0  ....b001E.......
01A0: FF FF 7F 62 62 62 62 01  80 2B 5C 21 03 01 1B 80  ...bbbb..+\!....
01B0: 23 52 13 80 F0 FF FF 7F  F0 FF FF 7F 62 62 62 62  #R..........bbbb
01C0: 45 13 80 F0 FF FF 7F F0  FF FF 7F 62 62 62 63 01  E..........bbbc.
01D0: 80 79 00 A8 21 03 01 5C  21 03 01 1C 17 80 2B A8  .y..!..\!.....+.
01E0: 21 03 01 1C 80 23 52 13  80 F0 FF FF 7F F0 FF FF  !....#R.........
01F0: 7F 62 62 62 63 45 13 80  F0 FF FF 7F F0 FF FF 7F  .bbbcE..........
0200: 62 30 30 32 01 80 1C 1D  80 2B 5C 21 03 01 1E 80  b002.....+\!....
0210: 23 52 13 80 F0 FF FF 7F  F0 FF FF 7F 62 30 30 32  #R..........b002
0220: 45 13 80 F0 FF FF 7F F0  FF FF 7F 62 62 62 31 01  E..........bbb1.
0230: 80 66 1F 80 A8 21 03 01  A8 21 03 01 74 68 6B 31  .f...!...!..thk1
0240: 1C 1D 80 2B A8 21 03 01  20 80 23 2B 5C 21 03 01  ...+.!.. .#+\!..
0250: 21 80 23 52 13 80 F0 FF  FF 7F F0 FF FF 7F 62 62  !.#R..........bb
0260: 62 31 45 13 80 F0 FF FF  7F F0 FF FF 7F 62 30 30  b1E..........b00
0270: 33 01 80 66 1F 80 A8 21  03 01 A8 21 03 01 74 68  3..f...!...!..th
0280: 6B 32 6E A9 21 03 01 22  80 99 A9 21 03 01 2B A9  k2n.!.."...!..+.
0290: 21 03 01 23 80 23 99 A9  21 03 01 52 13 80 F0 FF  !..#.#..!..R....
02A0: FF 7F F0 FF FF 7F 62 30  30 33 45 13 80 F0 FF FF  ......b003E.....
02B0: 7F F0 FF FF 7F 62 30 30  34 01 80 1C 17 80 5B 11  .....b004.....[.
02C0: 80 5C 21 03 01 5C 21 03  01 64 67 65 31 2B 5C 21  .\!..\!..dge1+\!
02D0: 03 01 24 80 23 1C 17 80  52 13 80 F0 FF FF 7F F0  ..$.#...R.......
02E0: FF FF 7F 62 30 30 34 45  13 80 F0 FF FF 7F F0 FF  ...b004E........
02F0: FF 7F 62 30 30 35 01 80  6E A9 21 03 01 19 80 99  ..b005..n.!.....
0300: A9 21 03 01 2B A9 21 03  01 25 80 23 66 1F 80 A8  .!..+.!..%.#f...
0310: 21 03 01 A8 21 03 01 74  77 62 30 2B A8 21 03 01  !...!..twb0+.!..
0320: 26 80 23 66 1F 80 A8 21  03 01 A8 21 03 01 74 77  &.#f...!...!..tw
0330: 62 31 52 13 80 F0 FF FF  7F F0 FF FF 7F 62 30 30  b1R..........b00
0340: 35 45 13 80 F0 FF FF 7F  F0 FF FF 7F 62 30 30 36  5E..........b006
0350: 01 80 1C 27 80 5B 11 80  5C 21 03 01 5C 21 03 01  ...'.[..\!..\!..
0360: 64 67 65 32 2B 5C 21 03  01 28 80 23 52 13 80 F0  dge2+\!..(.#R...
0370: FF FF 7F F0 FF FF 7F 62  30 30 36 45 13 80 F0 FF  .......b006E....
0380: FF 7F F0 FF FF 7F 62 62  62 64 01 80 1C 27 80 2B  ......bbbd...'.+
0390: 5C 21 03 01 29 80 23 52  13 80 F0 FF FF 7F F0 FF  \!..).#R........
03A0: FF 7F 62 62 62 64 45 13  80 F0 FF FF 7F F0 FF FF  ..bbbdE.........
03B0: 7F 62 62 62 65 01 80 1C  17 80 2B 5C 21 03 01 2A  .bbbe.....+\!..*
03C0: 80 23 52 13 80 F0 FF FF  7F F0 FF FF 7F 62 62 62  .#R..........bbb
03D0: 65 45 13 80 F0 FF FF 7F  F0 FF FF 7F 62 30 30 37  eE..........b007
03E0: 01 80 6E A9 21 03 01 19  80 99 A9 21 03 01 6E A8  ..n.!......!..n.
03F0: 21 03 01 2B 80 99 A8 21  03 01 2B A9 21 03 01 2C  !..+...!..+.!..,
0400: 80 23 5B 11 80 5C 21 03  01 5C 21 03 01 64 67 65  .#[..\!..\!..dge
0410: 31 1C 1D 80 52 13 80 F0  FF FF 7F F0 FF FF 7F 62  1...R..........b
0420: 30 30 37 45 13 80 F0 FF  FF 7F F0 FF FF 7F 62 30  007E..........b0
0430: 30 38 01 80 2B 5C 21 03  01 2D 80 23 52 13 80 F0  08..+\!..-.#R...
0440: FF FF 7F F0 FF FF 7F 62  30 30 38 4E 00 F0 FF FF  .......b008N....
0450: 7F BA F0 FF FF 7F 2E 80  2F 80 10 80 07 80 45 13  ......../.....E.
0460: 80 F0 FF FF 7F F0 FF FF  7F 62 30 30 39 01 80 1C  .........b009...
0470: 17 80 5B 11 80 5C 21 03  01 5C 21 03 01 64 67 65  ..[..\!..\!..dge
0480: 32 2B 5C 21 03 01 30 80  23 52 13 80 F0 FF FF 7F  2+\!..0.#R......
0490: F0 FF FF 7F 62 30 30 39  45 13 80 F0 FF FF 7F F0  ....b009E.......
04A0: FF FF 7F 62 30 31 30 01  80 4A A8 21 03 01 F0 FF  ...b010..J.!....
04B0: FF 7F 4A A9 21 03 01 F0  FF FF 7F 66 31 80 5C 21  ..J.!......f1.\!
04C0: 03 01 5C 21 03 01 73 68  61 30 2B A9 21 03 01 32  ..\!..sha0+.!..2
04D0: 80 23 52 13 80 F0 FF FF  7F F0 FF FF 7F 62 30 31  .#R..........b01
04E0: 30 45 13 80 F0 FF FF 7F  F0 FF FF 7F 62 30 31 31  0E..........b011
04F0: 01 80 66 31 80 5C 21 03  01 5C 21 03 01 73 68 61  ..f1.\!..\!..sha
0500: 31 1C 33 80 66 31 80 5C  21 03 01 5C 21 03 01 74  1.3.f1.\!..\!..t
0510: 6C 6B 30 2B 5C 21 03 01  34 80 23 66 31 80 5C 21  lk0+\!..4.#f1.\!
0520: 03 01 5C 21 03 01 74 6C  6B 31 2B A9 21 03 01 35  ..\!..tlk1+.!..5
0530: 80 23 52 13 80 F0 FF FF  7F F0 FF FF 7F 62 30 31  .#R..........b01
0540: 31 45 13 80 F0 FF FF 7F  F0 FF FF 7F 62 30 31 32  1E..........b012
0550: 01 80 2B A9 21 03 01 36  80 23 4A A9 21 03 01 F0  ..+.!..6.#J.!...
0560: FF FF 7F 6E 5C 21 03 01  37 80 99 5C 21 03 01 2B  ...n\!..7..\!..+
0570: 5C 21 03 01 38 80 23 52  13 80 F0 FF FF 7F F0 FF  \!..8.#R........
0580: FF 7F 62 30 31 32 45 13  80 F0 FF FF 7F F0 FF FF  ..b012E.........
0590: 7F 62 30 31 33 01 80 6E  F0 FF FF 7F 1F 80 99 F0  .b013..n........
05A0: FF FF 7F 1C 39 80 4A A9  21 03 01 5C 21 03 01 2B  ....9.J.!..\!..+
05B0: A9 21 03 01 3A 80 23 6E  5C 21 03 01 3B 80 99 5C  .!..:.#n\!..;..\
05C0: 21 03 01 2B 5C 21 03 01  3C 80 23 52 13 80 F0 FF  !..+\!..<.#R....
05D0: FF 7F F0 FF FF 7F 62 30  31 33 45 13 80 F0 FF FF  ......b013E.....
05E0: 7F F0 FF FF 7F 62 30 31  34 01 80 6E A8 21 03 01  .....b014..n.!..
05F0: 3D 80 99 A8 21 03 01 1C  12 80 2B A8 21 03 01 3E  =...!.....+.!..>
0600: 80 23 4A A9 21 03 01 A8  21 03 01 2B A9 21 03 01  .#J.!...!..+.!..
0610: 3F 80 23 2B A8 21 03 01  40 80 23 27 10 A8 21 03  ?.#+.!..@.#'..!.
0620: 01 03 1C 17 80 52 13 80  F0 FF FF 7F F0 FF FF 7F  .....R..........
0630: 62 30 31 34 45 13 80 F0  FF FF 7F F0 FF FF 7F 62  b014E..........b
0640: 30 31 35 01 80 27 10 A9  21 03 01 04 2A 10 A9 21  015..'..!...*..!
0650: 03 01 4A A8 21 03 01 A9  21 03 01 4A A9 21 03 01  ..J.!...!..J.!..
0660: A8 21 03 01 1C 17 80 2B  A8 21 03 01 41 80 23 52  .!.....+.!..A.#R
0670: 13 80 F0 FF FF 7F F0 FF  FF 7F 62 30 31 35 45 13  ..........b015E.
0680: 80 F0 FF FF 7F F0 FF FF  7F 62 30 31 36 01 80 4A  .........b016..J
0690: 5C 21 03 01 A9 21 03 01  4A F0 FF FF 7F A9 21 03  \!...!..J.....!.
06A0: 01 2B A9 21 03 01 42 80  23 66 1F 80 A8 21 03 01  .+.!..B.#f...!..
06B0: A8 21 03 01 74 77 62 30  2B A8 21 03 01 43 80 23  .!..twb0+.!..C.#
06C0: 66 1F 80 A8 21 03 01 A8  21 03 01 74 77 62 31 2B  f...!...!..twb1+
06D0: A9 21 03 01 44 80 23 52  13 80 F0 FF FF 7F F0 FF  .!..D.#R........
06E0: FF 7F 62 30 31 36 45 13  80 F0 FF FF 7F F0 FF FF  ..b016E.........
06F0: 7F 62 30 31 37 01 80 2B  A8 21 03 01 45 80 23 6E  .b017..+.!..E.#n
0700: A9 21 03 01 3D 80 99 A9  21 03 01 2B A9 21 03 01  .!..=...!..+.!..
0710: 46 80 23 2B A8 21 03 01  47 80 23 52 13 80 F0 FF  F.#+.!..G.#R....
0720: FF 7F F0 FF FF 7F 62 30  31 37 45 13 80 F0 FF FF  ......b017E.....
0730: 7F F0 FF FF 7F 62 30 31  38 01 80 1C 33 80 6E A9  .....b018...3.n.
0740: 21 03 01 48 80 99 A9 21  03 01 2B A9 21 03 01 49  !..H...!..+.!..I
0750: 80 23 99 A9 21 03 01 27  10 A9 21 03 01 05 1C 1D  .#..!..'..!.....
0760: 80 52 13 80 F0 FF FF 7F  F0 FF FF 7F 62 30 31 38  .R..........b018
0770: 45 13 80 F0 FF FF 7F F0  FF FF 7F 62 30 31 39 01  E..........b019.
0780: 80 27 10 A8 21 03 01 04  2A 10 A9 21 03 01 4A 5C  .'..!...*..!..J\
0790: 21 03 01 A8 21 03 01 4A  F0 FF FF 7F 5C 21 03 01  !...!..J....\!..
07A0: 2B A9 21 03 01 4A 80 23  66 1F 80 A8 21 03 01 A8  +.!..J.#f...!...
07B0: 21 03 01 74 77 62 30 2B  A8 21 03 01 4B 80 23 66  !..twb0+.!..K.#f
07C0: 1F 80 A8 21 03 01 A8 21  03 01 74 77 62 31 52 13  ...!...!..twb1R.
07D0: 80 F0 FF FF 7F F0 FF FF  7F 62 30 31 39 45 13 80  .........b019E..
07E0: F0 FF FF 7F F0 FF FF 7F  62 30 32 30 01 80 1C 17  ........b020....
07F0: 80 2B A8 21 03 01 4C 80  23 52 13 80 F0 FF FF 7F  .+.!..L.#R......
0800: F0 FF FF 7F 62 30 32 30  45 13 80 F0 FF FF 7F F0  ....b020E.......
0810: FF FF 7F 62 30 32 31 01  80 6E 5C 21 03 01 37 80  ...b021..n\!..7.
0820: 99 5C 21 03 01 2B 5C 21  03 01 4D 80 23 6E A9 21  .\!..+\!..M.#n.!
0830: 03 01 3D 80 99 A9 21 03  01 2B A9 21 03 01 4E 80  ..=...!..+.!..N.
0840: 23 2B A8 21 03 01 4F 80  23 27 10 A8 21 03 01 05  #+.!..O.#'..!...
0850: 1C 1D 80 52 13 80 F0 FF  FF 7F F0 FF FF 7F 62 30  ...R..........b0
0860: 32 31 45 13 80 F0 FF FF  7F F0 FF FF 7F 62 30 32  21E..........b02
0870: 32 01 80 27 10 A9 21 03  01 03 1C 50 80 5D 01 80  2..'..!....P.]..
0880: 51 80 45 00 80 F8 FF FF  7F F8 FF FF 7F 66 64 6F  Q.E..........fdo
0890: 31 01 80 55 00 80 F8 FF  FF 7F F8 FF FF 7F 66 64  1..U..........fd
08A0: 6F 31 52 13 80 F0 FF FF  7F F0 FF FF 7F 62 30 32  o1R..........b02
08B0: 32 4E 01 A8 21 03 01 4E  01 A9 21 03 01 1C 12 80  2N..!..N..!.....
08C0: 4A 5C 21 03 01 F0 FF FF  7F 45 13 80 F0 FF FF 7F  J\!......E......
08D0: F0 FF FF 7F 62 30 32 33  01 80 45 00 80 F0 FF FF  ....b023..E.....
08E0: 7F F0 FF FF 7F 66 64 69  31 01 80 5C 00 52 80 5C  .....fdi1..\.R.\
08F0: 01 52 80 9A 1C 12 80 2B  5C 21 03 01 53 80 23 2B  .R.....+\!..S.#+
0900: 5C 21 03 01 54 80 23 52  13 80 F0 FF FF 7F F0 FF  \!..T.#R........
0910: FF 7F 62 30 32 33 45 13  80 F0 FF FF 7F F0 FF FF  ..b023E.........
0920: 7F 62 30 32 35 01 80 66  31 80 5C 21 03 01 5C 21  .b025..f1.\!..\!
0930: 03 01 74 6C 6B 30 2B 5C  21 03 01 55 80 23 2B 5C  ..tlk0+\!..U.#+\
0940: 21 03 01 56 80 23 66 31  80 5C 21 03 01 5C 21 03  !..V.#f1.\!..\!.
0950: 01 74 6C 6B 31 52 13 80  F0 FF FF 7F F0 FF FF 7F  .tlk1R..........
0960: 62 30 32 35 45 13 80 F0  FF FF 7F F0 FF FF 7F 62  b025E..........b
0970: 30 32 34 01 80 6E 5C 21  03 01 57 80 99 5C 21 03  024..n\!..W..\!.
0980: 01 2B 5C 21 03 01 58 80  23 52 13 80 F0 FF FF 7F  .+\!..X.#R......
0990: F0 FF FF 7F 62 30 32 34  45 13 80 F0 FF FF 7F F0  ....b024E.......
09A0: FF FF 7F 62 30 32 36 01  80 1C 17 80 2B 5C 21 03  ...b026.....+\!.
09B0: 01 59 80 23 1C 17 80 66  31 80 5C 21 03 01 5C 21  .Y.#...f1.\!..\!
09C0: 03 01 74 6C 6B 30 2B 5C  21 03 01 5A 80 23 2B 5C  ..tlk0+\!..Z.#+\
09D0: 21 03 01 5B 80 23 66 31  80 5C 21 03 01 5C 21 03  !..[.#f1.\!..\!.
09E0: 01 74 6C 6B 31 52 13 80  F0 FF FF 7F F0 FF FF 7F  .tlk1R..........
09F0: 62 30 32 36 45 13 80 F0  FF FF 7F F0 FF FF 7F 62  b026E..........b
0A00: 30 32 37 01 80 1C 17 80  6E 5C 21 03 01 3D 80 99  027.....n\!..=..
0A10: 5C 21 03 01 2B 5C 21 03  01 5C 80 23 2B 5C 21 03  \!..+\!..\.#+\!.
0A20: 01 5D 80 23 52 13 80 F0  FF FF 7F F0 FF FF 7F 62  .].#R..........b
0A30: 30 32 37 45 13 80 F0 FF  FF 7F F0 FF FF 7F 62 30  027E..........b0
0A40: 32 38 01 80 6E 5C 21 03  01 5E 80 99 5C 21 03 01  28..n\!..^..\!..
0A50: 2B 5C 21 03 01 5F 80 23  99 5C 21 03 01 52 13 80  +\!.._.#.\!..R..
0A60: F0 FF FF 7F F0 FF FF 7F  62 30 32 38 45 13 80 F0  ........b028E...
0A70: FF FF 7F F0 FF FF 7F 62  62 62 32 01 80 1C 17 80  .......bbb2.....
0A80: 6E 5C 21 03 01 01 80 99  5C 21 03 01 2B 5C 21 03  n\!.....\!..+\!.
0A90: 01 60 80 23 52 13 80 F0  FF FF 7F F0 FF FF 7F 62  .`.#R..........b
0AA0: 62 62 32 45 13 80 F0 FF  FF 7F F0 FF FF 7F 62 30  bb2E..........b0
0AB0: 32 39 01 80 2B 5C 21 03  01 61 80 23 24 62 80 01  29..+\!..a.#$b..
0AC0: 80 01 80 25 02 00 10 01  80 00 03 0B 52 13 80 F0  ...%........R...
0AD0: FF FF 7F F0 FF FF 7F 62  30 32 39 45 13 80 F0 FF  .......b029E....
0AE0: FF 7F F0 FF FF 7F 62 30  33 30 01 80 6E 5C 21 03  ......b030..n\!.
0AF0: 01 63 80 99 5C 21 03 01  2B 5C 21 03 01 64 80 23  .c..\!..+\!..d.#
0B00: 01 4A 0B 02 00 10 65 80  00 4A 0B 52 13 80 F0 FF  .J....e..J.R....
0B10: FF 7F F0 FF FF 7F 62 30  32 39 45 13 80 F0 FF FF  ......b029E.....
0B20: 7F F0 FF FF 7F 62 30 33  30 01 80 6E 5C 21 03 01  .....b030..n\!..
0B30: 15 80 99 5C 21 03 01 2B  5C 21 03 01 66 80 23 2B  ...\!..+\!..f.#+
0B40: 5C 21 03 01 67 80 23 01  4A 0B 29 10 F8 20 03 01  \!..g.#.J.).. ..
0B50: 02 1C 27 80 52 13 80 F0  FF FF 7F F0 FF FF 7F 62  ..'.R..........b
0B60: 30 33 30 45 13 80 F0 FF  FF 7F F0 FF FF 7F 61 61  030E..........aa
0B70: 61 61 01 80 4E 00 F8 20  03 01 5D 01 80 51 80 1C  aa..N.. ..]..Q..
0B80: 12 80 2B 11 21 03 01 68  80 23 52 13 80 F0 FF FF  ..+.!..h.#R.....
0B90: 7F F0 FF FF 7F 61 61 61  61 45 13 80 F0 FF FF 7F  .....aaaaE......
0BA0: F0 FF FF 7F 61 61 61 62  01 80 5C 00 14 80 5C 01  ....aaab..\...\.
0BB0: 14 80 66 69 80 F8 20 03  01 F8 20 03 01 74 61 74  ..fi.. ... ..tat
0BC0: 30 1C 17 80 9A 4A 5C 21  03 01 F8 20 03 01 2B 5C  0....J\!... ..+\
0BD0: 21 03 01 6A 80 23 52 13  80 F0 FF FF 7F F0 FF FF  !..j.#R.........
0BE0: 7F 61 61 61 62 45 13 80  F0 FF FF 7F F0 FF FF 7F  .aaabE..........
0BF0: 61 61 61 63 01 80 27 10  5C 21 03 01 09 2B F8 20  aaac..'.\!...+. 
0C00: 03 01 6B 80 23 66 01 80  F8 20 03 01 F8 20 03 01  ..k.#f... ... ..
0C10: 74 6C 6B 30 2B F8 20 03  01 6C 80 23 66 01 80 F8  tlk0+. ..l.#f...
0C20: 20 03 01 F8 20 03 01 74  65 6E 30 52 13 80 F0 FF   ... ..ten0R....
0C30: FF 7F F0 FF FF 7F 61 61  61 63 45 13 80 F0 FF FF  ......aaacE.....
0C40: 7F F0 FF FF 7F 61 61 61  64 01 80 6E 5C 21 03 01  .....aaad..n\!..
0C50: 27 80 99 5C 21 03 01 2B  5C 21 03 01 6D 80 23 2B  '..\!..+\!..m.#+
0C60: 5C 21 03 01 6E 80 23 52  13 80 F0 FF FF 7F F0 FF  \!..n.#R........
0C70: FF 7F 61 61 61 64 45 13  80 F0 FF FF 7F F0 FF FF  ..aaadE.........
0C80: 7F 61 61 61 65 01 80 5D  01 80 51 80 1C 33 80 66  .aaae..]..Q..3.f
0C90: 01 80 F8 20 03 01 F8 20  03 01 74 6C 6B 30 2B F8  ... ... ..tlk0+.
0CA0: 20 03 01 6F 80 23 66 01  80 F8 20 03 01 F8 20 03   ..o.#f... ... .
0CB0: 01 74 65 6E 30 52 13 80  F0 FF FF 7F F0 FF FF 7F  .ten0R..........
0CC0: 61 61 61 65 45 13 80 F0  FF FF 7F F0 FF FF 7F 61  aaaeE..........a
0CD0: 61 61 66 01 80 BA F0 FF  FF 7F 70 80 71 80 06 80  aaf.......p.q...
0CE0: 07 80 5C 00 72 80 5C 01  72 80 9A 1C 17 80 2B 5C  ..\.r.\.r.....+\
0CF0: 21 03 01 73 80 23 2B F8  20 03 01 74 80 23 52 13  !..s.#+. ..t.#R.
0D00: 80 F0 FF FF 7F F0 FF FF  7F 61 61 61 66 45 13 80  .........aaafE..
0D10: F0 FF FF 7F F0 FF FF 7F  61 61 61 67 01 80 66 01  ........aaag..f.
0D20: 80 F8 20 03 01 F8 20 03  01 74 6C 6B 31 2B F8 20  .. ... ..tlk1+. 
0D30: 03 01 75 80 23 2B F8 20  03 01 76 80 23 66 01 80  ..u.#+. ..v.#f..
0D40: F8 20 03 01 F8 20 03 01  74 65 6E 31 52 13 80 F0  . ... ..ten1R...
0D50: FF FF 7F F0 FF FF 7F 61  61 61 67 45 13 80 F0 FF  .......aaagE....
0D60: FF 7F F0 FF FF 7F 61 61  61 68 01 80 6E 5C 21 03  ......aaah..n\!.
0D70: 01 3D 80 99 5C 21 03 01  2B 5C 21 03 01 77 80 23  .=..\!..+\!..w.#
0D80: 2B F8 20 03 01 78 80 23  99 5C 21 03 01 52 13 80  +. ..x.#.\!..R..
0D90: F0 FF FF 7F F0 FF FF 7F  61 61 61 68 45 13 80 F0  ........aaahE...
0DA0: FF FF 7F F0 FF FF 7F 61  61 61 69 01 80 66 31 80  .......aaai..f1.
0DB0: 5C 21 03 01 5C 21 03 01  74 6C 6B 30 2B 5C 21 03  \!..\!..tlk0+\!.
0DC0: 01 79 80 23 66 31 80 5C  21 03 01 5C 21 03 01 74  .y.#f1.\!..\!..t
0DD0: 6C 6B 31 66 01 80 F8 20  03 01 F8 20 03 01 74 6C  lk1f... ... ..tl
0DE0: 6B 30 2B F8 20 03 01 7A  80 23 2B 5C 21 03 01 7B  k0+. ..z.#+\!..{
0DF0: 80 23 52 13 80 F0 FF FF  7F F0 FF FF 7F 61 61 61  .#R..........aaa
0E00: 69 45 13 80 F0 FF FF 7F  F0 FF FF 7F 61 61 61 6F  iE..........aaao
0E10: 01 80 1C 17 80 2B F8 20  03 01 7C 80 23 66 01 80  .....+. ..|.#f..
0E20: F8 20 03 01 F8 20 03 01  74 65 6E 31 52 13 80 F0  . ... ..ten1R...
0E30: FF FF 7F F0 FF FF 7F 61  61 61 6F 45 13 80 F0 FF  .......aaaoE....
0E40: FF 7F F0 FF FF 7F 61 61  61 6A 01 80 6E 5C 21 03  ......aaaj..n\!.
0E50: 01 15 80 99 5C 21 03 01  2B 5C 21 03 01 7D 80 23  ....\!..+\!..}.#
0E60: 52 13 80 F0 FF FF 7F F0  FF FF 7F 61 61 61 6A 45  R..........aaajE
0E70: 13 80 F0 FF FF 7F F0 FF  FF 7F 61 61 61 6B 01 80  ..........aaak..
0E80: 2B F8 20 03 01 7E 80 23  6E 5C 21 03 01 3D 80 99  +. ..~.#n\!..=..
0E90: 5C 21 03 01 2B 5C 21 03  01 7F 80 23 66 01 80 F8  \!..+\!....#f...
0EA0: 20 03 01 F8 20 03 01 74  6C 6B 31 2B F8 20 03 01   ... ..tlk1+. ..
0EB0: 80 80 23 66 01 80 F8 20  03 01 F8 20 03 01 74 65  ..#f... ... ..te
0EC0: 6E 31 52 13 80 F0 FF FF  7F F0 FF FF 7F 61 61 61  n1R..........aaa
0ED0: 6B 45 13 80 F0 FF FF 7F  F0 FF FF 7F 61 61 61 6C  kE..........aaal
0EE0: 01 80 5D 01 80 51 80 66  31 80 5C 21 03 01 5C 21  ..]..Q.f1.\!..\!
0EF0: 03 01 74 6C 6B 30 2B 5C  21 03 01 81 80 23 66 31  ..tlk0+\!....#f1
0F00: 80 5C 21 03 01 5C 21 03  01 74 6C 6B 31 2B F8 20  .\!..\!..tlk1+. 
0F10: 03 01 82 80 23 52 13 80  F0 FF FF 7F F0 FF FF 7F  ....#R..........
0F20: 61 61 61 6C 45 13 80 F0  FF FF 7F F0 FF FF 7F 61  aaalE..........a
0F30: 61 61 6D 01 80 5C 00 52  80 5C 01 52 80 9A 66 01  aam..\.R.\.R..f.
0F40: 80 F8 20 03 01 F8 20 03  01 74 6C 6B 30 2B F8 20  .. ... ..tlk0+. 
0F50: 03 01 83 80 23 2B F8 20  03 01 84 80 23 66 01 80  ....#+. ....#f..
0F60: F8 20 03 01 F8 20 03 01  74 65 6E 31 52 13 80 F0  . ... ..ten1R...
0F70: FF FF 7F F0 FF FF 7F 61  61 61 6D 45 13 80 F0 FF  .......aaamE....
0F80: FF 7F F0 FF FF 7F 61 61  61 6A 01 80 2B 5C 21 03  ......aaaj..+\!.
0F90: 01 85 80 23 6E 5C 21 03  01 63 80 99 5C 21 03 01  ...#n\!..c..\!..
0FA0: 2B 5C 21 03 01 86 80 23  52 13 80 F0 FF FF 7F F0  +\!....#R.......
0FB0: FF FF 7F 61 61 61 6A 45  13 80 F0 FF FF 7F F0 FF  ...aaajE........
0FC0: FF 7F 61 61 61 6E 01 80  2B F8 20 03 01 87 80 23  ..aaan..+. ....#
0FD0: 4A 5C 21 03 01 F0 FF FF  7F 2B 5C 21 03 01 88 80  J\!......+\!....
0FE0: 23 6F 70 6E 5C 21 03 01  01 80 99 5C 21 03 01 1C  #opn\!.....\!...
0FF0: 12 80 99 5C 21 03 01 45  00 80 F8 FF FF 7F F8 FF  ...\!..E........
1000: FF 7F 66 64 6F 31 01 80  55 00 80 F8 FF FF 7F F8  ..fdo1..U.......
1010: FF FF 7F 66 64 6F 31 52  13 80 F0 FF FF 7F F0 FF  ...fdo1R........
1020: FF 7F 61 61 61 6E 46 00  45 00 80 F0 FF FF 7F F0  ..aaanF.E.......
1030: FF FF 7F 66 64 69 32 01  80 21 00                 ...fdi2..!.     
```

#### Opcodes

```
  0: 0x0001 [0x42] SET_CLI_EVENT_CANCEL_DATA()
  1: 0x0002 [0x45] LOAD_SCHEDULED_TASK: Load scheduler "fdo1" with entities [EventEntity, EventEntity], work=[200*, 0*]
  2: 0x0013 [0x55] WAIT_LOAD_SCHEDULER: Wait for scheduler "fdo1" with entities [EventEntity, EventEntity], work=200*
  3: 0x0022 [0x46] CAMERA_CONTROL: Disable user control
  4: 0x0024 [0x38] SET_CLIENT_EVENT_MODE(mode=19*)
  5: 0x0027 [0x75] LOAD_ROOM(Load indoor room, room=565*)
  6: 0x002B [0x75] LOAD_ROOM(No action)
  7: 0x002D [0x4E] SET_ENTITY_HIDE_FLAG: Show Sahnadjean (ID: 16982440/0x010321A8)
  8: 0x0033 [0x4E] SET_ENTITY_HIDE_FLAG: Show Dalfhum (ID: 16982441/0x010321A9)
  9: 0x0039 [0x92] Fari-Wari (ID: 16982364/0x0103215C)->Render.Flags3 ^= 0x01
 10: 0x003F [0x92] Sahnadjean (ID: 16982440/0x010321A8)->Render.Flags3 ^= 0x01
 11: 0x0045 [0x92] Dalfhum (ID: 16982441/0x010321A9)->Render.Flags3 ^= 0x01
 12: 0x004B [0x92] Ratihb (ID: 16982264/0x010320F8)->Render.Flags3 ^= 0x01
 13: 0x0051 [0x94] LocalPlayer->Render.Flags3 ^= 0x01
 14: 0x0057 [0x94] Fari-Wari (ID: 16982364/0x0103215C)->Render.Flags3 ^= 0x01
 15: 0x005D [0x22] ENTITY_HIDE_FLAG(enabled=0x01)
 16: 0x005F [0x4E] SET_ENTITY_HIDE_FLAG: Hide LocalPlayer
 17: 0x0065 [0xBA] SET_ENTITY_POSITION(entity_id=LocalPlayer, pos_x=80.667*, pos_z=-130.649*, pos_y=-6.000*, direction=92.1°*)
 18: 0x0072 [0xBA] SET_ENTITY_POSITION(entity_id=Fari-Wari (ID: 16982364/0x0103215C), pos_x=79.882*, pos_z=-136.478*, pos_y=-6.000*, direction=270.2°*)
 19: 0x007F [0xBA] SET_ENTITY_POSITION(entity_id=Sahnadjean (ID: 16982440/0x010321A8), pos_x=79.307*, pos_z=-134.479*, pos_y=-6.000*, direction=96.9°*)
 20: 0x008C [0xBA] SET_ENTITY_POSITION(entity_id=Dalfhum (ID: 16982441/0x010321A9), pos_x=80.791*, pos_z=-134.462*, pos_y=-5.999*, direction=92.1°*)
 21: 0x0099 [0x80] LOAD_WAIT(entity=LocalPlayer)
 22: 0x009E [0x80] LOAD_WAIT(entity=Fari-Wari (ID: 16982364/0x0103215C))
 23: 0x00A3 [0x80] LOAD_WAIT(entity=Sahnadjean (ID: 16982440/0x010321A8))
 24: 0x00A8 [0x80] LOAD_WAIT(entity=Dalfhum (ID: 16982441/0x010321A9))
 25: 0x00AD [0x5B] LOAD_EXT_SCHEDULER: Load scheduler "dge0" with entities [Fari-Wari (ID: 16982364/0x0103215C), Fari-Wari (ID: 16982364/0x0103215C)], work=719*
 26: 0x00BC [0x53] WAIT_SCHEDULER_TASK: Wait for scheduler "dge0" with entities [Fari-Wari (ID: 16982364/0x0103215C), Fari-Wari (ID: 16982364/0x0103215C)]
 27: 0x00C9 [0x79] Dalfhum (ID: 16982441/0x010321A9) looks at Fari-Wari (ID: 16982364/0x0103215C) (Basic look)
 28: 0x00D3 [0x4E] SET_ENTITY_HIDE_FLAG: Hide Ratihb (ID: 16982264/0x010320F8)
 29: 0x00D9 [0x29] REQ_SET_WAIT(priority=0x10, entity_id=LocalPlayer, tag_num=0x08)
 30: 0x00E0 [0x1C] WAIT(60* ticks)
 31: 0x00E3 [0x45] LOAD_SCHEDULED_TASK: Load scheduler "xxxx" with entities [LocalPlayer, LocalPlayer], work=[314*, 0*]
 32: 0x00F4 [0x45] LOAD_SCHEDULED_TASK: Load scheduler "fdi1" with entities [LocalPlayer, LocalPlayer], work=[200*, 0*]
 33: 0x0105 [0x5C] MUSIC_CONTROL: Set Idle (Day) music to song 163*
 34: 0x0109 [0x5C] MUSIC_CONTROL: Set Idle (Night) music to song 163*
 35: 0x010D [0x9A] WAIT_MUSIC_SERVER()
 36: 0x010E [0x1C] WAIT(60* ticks)
 37: 0x0111 [0x6E] Sahnadjean (ID: 16982440/0x010321A8) uses emote 22*
 38: 0x0118 [0x99] Wait for Sahnadjean (ID: 16982440/0x010321A8) animation to complete
 39: 0x011D [0x2B] Sahnadjean (ID: 16982440/0x010321A8) [12083*]:
    → "Things are looking grim, Master Fari-Wari. You do realize you are an entire week late with your repayment...?"
 40: 0x0124 [0x23] WAIT_FOR_DIALOG_INTERACTION
 41: 0x0125 [0x52] END_LOAD_SCHEDULER: End scheduler "xxxx" with entities [LocalPlayer, LocalPlayer], work=314*
 42: 0x0134 [0x45] LOAD_SCHEDULED_TASK: Load scheduler "b000" with entities [LocalPlayer, LocalPlayer], work=[314*, 0*]
 43: 0x0145 [0x1C] WAIT(15* ticks)
 44: 0x0148 [0x2B] Fari-Wari (ID: 16982364/0x0103215C) [12084*]:
    → "I'll have it ready! If you come by tomorrow... Yes! The adulation of my audience tonight will provide the funds I require to pay you back in full!"
 45: 0x014F [0x23] WAIT_FOR_DIALOG_INTERACTION
 46: 0x0150 [0x99] Wait for Sahnadjean (ID: 16982440/0x010321A8) animation to complete
 47: 0x0155 [0x52] END_LOAD_SCHEDULER: End scheduler "b000" with entities [LocalPlayer, LocalPlayer], work=314*
 48: 0x0164 [0x45] LOAD_SCHEDULED_TASK: Load scheduler "b001" with entities [LocalPlayer, LocalPlayer], work=[314*, 0*]
 49: 0x0175 [0x6E] Dalfhum (ID: 16982441/0x010321A9) uses emote 25*
 50: 0x017C [0x99] Wait for Dalfhum (ID: 16982441/0x010321A9) animation to complete
 51: 0x0181 [0x2B] Dalfhum (ID: 16982441/0x010321A9) [12085*]:
    → "You're not gettin' rid of us that easily, pint-size! We're under orders to get that money today. Now, are you gonna pay up, or do we gotta mess you up!?"
 52: 0x0188 [0x23] WAIT_FOR_DIALOG_INTERACTION
 53: 0x0189 [0x52] END_LOAD_SCHEDULER: End scheduler "b001" with entities [LocalPlayer, LocalPlayer], work=314*
 54: 0x0198 [0x45] LOAD_SCHEDULED_TASK: Load scheduler "bbbb" with entities [LocalPlayer, LocalPlayer], work=[314*, 0*]
 55: 0x01A9 [0x2B] Fari-Wari (ID: 16982364/0x0103215C) [12086*]:
    → "Well, of course I intend to pay! My career as a bard depends on my stainless reputation. I am true to my word, as words are all I have..."
 56: 0x01B0 [0x23] WAIT_FOR_DIALOG_INTERACTION
 57: 0x01B1 [0x52] END_LOAD_SCHEDULER: End scheduler "bbbb" with entities [LocalPlayer, LocalPlayer], work=314*
 58: 0x01C0 [0x45] LOAD_SCHEDULED_TASK: Load scheduler "bbbc" with entities [LocalPlayer, LocalPlayer], work=[314*, 0*]
 59: 0x01D1 [0x79] Sahnadjean (ID: 16982440/0x010321A8) looks at Fari-Wari (ID: 16982364/0x0103215C) (Basic look)
 60: 0x01DB [0x1C] WAIT(15* ticks)
 61: 0x01DE [0x2B] Sahnadjean (ID: 16982440/0x010321A8) [12087*]:
    → "Master Fari-Wari... We are not children to be distracted by flowery speech. If we return empty-handed, our employer will not be pleased. Do you see our predicament?"
 62: 0x01E5 [0x23] WAIT_FOR_DIALOG_INTERACTION
 63: 0x01E6 [0x52] END_LOAD_SCHEDULER: End scheduler "bbbc" with entities [LocalPlayer, LocalPlayer], work=314*
 64: 0x01F5 [0x45] LOAD_SCHEDULED_TASK: Load scheduler "b002" with entities [LocalPlayer, LocalPlayer], work=[314*, 0*]
 65: 0x0206 [0x1C] WAIT(20* ticks)
 66: 0x0209 [0x2B] Fari-Wari (ID: 16982364/0x0103215C) [12088*]:
    → "Uh...let's see here... Oh! I have some chocolates in my satchel. P-perhaps you might accept one in good faith...?"
 67: 0x0210 [0x23] WAIT_FOR_DIALOG_INTERACTION
 68: 0x0211 [0x52] END_LOAD_SCHEDULER: End scheduler "b002" with entities [LocalPlayer, LocalPlayer], work=314*
 69: 0x0220 [0x45] LOAD_SCHEDULED_TASK: Load scheduler "bbb1" with entities [LocalPlayer, LocalPlayer], work=[314*, 0*]
 70: 0x0231 [0x66] LOAD_EXT_SCHEDULER_MAIN: Load scheduler "thk1" with entities [Sahnadjean (ID: 16982440/0x010321A8), Sahnadjean (ID: 16982440/0x010321A8)], work=29*
 71: 0x0240 [0x1C] WAIT(20* ticks)
 72: 0x0243 [0x2B] Sahnadjean (ID: 16982440/0x010321A8) [12089*]:
    → "Uh...let's see here... Isn't this the logo of that ludicrously expensive club "Merrows"...?"
 73: 0x024A [0x23] WAIT_FOR_DIALOG_INTERACTION
 74: 0x024B [0x2B] Fari-Wari (ID: 16982364/0x0103215C) [12090*]:
    → "Ah! Y-you see, I...I found that chocolate on the street in Balrahn Way!"
 75: 0x0252 [0x23] WAIT_FOR_DIALOG_INTERACTION
 76: 0x0253 [0x52] END_LOAD_SCHEDULER: End scheduler "bbb1" with entities [LocalPlayer, LocalPlayer], work=314*
 77: 0x0262 [0x45] LOAD_SCHEDULED_TASK: Load scheduler "b003" with entities [LocalPlayer, LocalPlayer], work=[314*, 0*]
 78: 0x0273 [0x66] LOAD_EXT_SCHEDULER_MAIN: Load scheduler "thk2" with entities [Sahnadjean (ID: 16982440/0x010321A8), Sahnadjean (ID: 16982440/0x010321A8)], work=29*
 79: 0x0282 [0x6E] Dalfhum (ID: 16982441/0x010321A9) uses emote 34*
 80: 0x0289 [0x99] Wait for Dalfhum (ID: 16982441/0x010321A9) animation to complete
 81: 0x028E [0x2B] Dalfhum (ID: 16982441/0x010321A9) [12091*]:
    → "Huh!? Are you tryin' to feed us trash you picked up off the street!?"
 82: 0x0295 [0x23] WAIT_FOR_DIALOG_INTERACTION
 83: 0x0296 [0x99] Wait for Dalfhum (ID: 16982441/0x010321A9) animation to complete
 84: 0x029B [0x52] END_LOAD_SCHEDULER: End scheduler "b003" with entities [LocalPlayer, LocalPlayer], work=314*
 85: 0x02AA [0x45] LOAD_SCHEDULED_TASK: Load scheduler "b004" with entities [LocalPlayer, LocalPlayer], work=[314*, 0*]
 86: 0x02BB [0x1C] WAIT(15* ticks)
 87: 0x02BE [0x5B] LOAD_EXT_SCHEDULER: Load scheduler "dge1" with entities [Fari-Wari (ID: 16982364/0x0103215C), Fari-Wari (ID: 16982364/0x0103215C)], work=719*
 88: 0x02CD [0x2B] Fari-Wari (ID: 16982364/0x0103215C) [12092*]:
    → "N-no, of course not! I would never...! Please, if you could allow this transgression to pass for today, I will be able to pay you back in the form of ear--"
 89: 0x02D4 [0x23] WAIT_FOR_DIALOG_INTERACTION
 90: 0x02D5 [0x1C] WAIT(15* ticks)
 91: 0x02D8 [0x52] END_LOAD_SCHEDULER: End scheduler "b004" with entities [LocalPlayer, LocalPlayer], work=314*
 92: 0x02E7 [0x45] LOAD_SCHEDULED_TASK: Load scheduler "b005" with entities [LocalPlayer, LocalPlayer], work=[314*, 0*]
 93: 0x02F8 [0x6E] Dalfhum (ID: 16982441/0x010321A9) uses emote 25*
 94: 0x02FF [0x99] Wait for Dalfhum (ID: 16982441/0x010321A9) animation to complete
 95: 0x0304 [0x2B] Dalfhum (ID: 16982441/0x010321A9) [12093*]:
    → "Damn straight we'll take your ears! You'll be lucky if that's the only body part we chop off!"
 96: 0x030B [0x23] WAIT_FOR_DIALOG_INTERACTION
 97: 0x030C [0x66] LOAD_EXT_SCHEDULER_MAIN: Load scheduler "twb0" with entities [Sahnadjean (ID: 16982440/0x010321A8), Sahnadjean (ID: 16982440/0x010321A8)], work=29*
 98: 0x031B [0x2B] Sahnadjean (ID: 16982440/0x010321A8) [12094*]:
    → "I believe Master Fari-Wari is referring to the earring. This particular bauble is one of Kshama's works, if I'm not mistaken?"
 99: 0x0322 [0x23] WAIT_FOR_DIALOG_INTERACTION
100: 0x0323 [0x66] LOAD_EXT_SCHEDULER_MAIN: Load scheduler "twb1" with entities [Sahnadjean (ID: 16982440/0x010321A8), Sahnadjean (ID: 16982440/0x010321A8)], work=29*
101: 0x0332 [0x52] END_LOAD_SCHEDULER: End scheduler "b005" with entities [LocalPlayer, LocalPlayer], work=314*
102: 0x0341 [0x45] LOAD_SCHEDULED_TASK: Load scheduler "b006" with entities [LocalPlayer, LocalPlayer], work=[314*, 0*]
103: 0x0352 [0x1C] WAIT(10* ticks)
104: 0x0355 [0x5B] LOAD_EXT_SCHEDULER: Load scheduler "dge2" with entities [Fari-Wari (ID: 16982364/0x0103215C), Fari-Wari (ID: 16982364/0x0103215C)], work=719*
105: 0x0364 [0x2B] Fari-Wari (ID: 16982364/0x0103215C) [12095*]:
    → "Yes! You have quite the eye for jewelry! The ladies really gasp and swoon when you walk into the club wearing one of..."
106: 0x036B [0x23] WAIT_FOR_DIALOG_INTERACTION
107: 0x036C [0x52] END_LOAD_SCHEDULER: End scheduler "b006" with entities [LocalPlayer, LocalPlayer], work=314*
108: 0x037B [0x45] LOAD_SCHEDULED_TASK: Load scheduler "bbbd" with entities [LocalPlayer, LocalPlayer], work=[314*, 0*]
109: 0x038C [0x1C] WAIT(10* ticks)
110: 0x038F [0x2B] Fari-Wari (ID: 16982364/0x0103215C) [12096*]:
    → "!!!"
111: 0x0396 [0x23] WAIT_FOR_DIALOG_INTERACTION
112: 0x0397 [0x52] END_LOAD_SCHEDULER: End scheduler "bbbd" with entities [LocalPlayer, LocalPlayer], work=314*
113: 0x03A6 [0x45] LOAD_SCHEDULED_TASK: Load scheduler "bbbe" with entities [LocalPlayer, LocalPlayer], work=[314*, 0*]
114: 0x03B7 [0x1C] WAIT(15* ticks)
115: 0x03BA [0x2B] Fari-Wari (ID: 16982364/0x0103215C) [12097*]:
    → "Ah, I mean, this is an heirloom passed down from my dear old grandma. I'm sorry, I don't think I could part with it, to be honest..."
116: 0x03C1 [0x23] WAIT_FOR_DIALOG_INTERACTION
117: 0x03C2 [0x52] END_LOAD_SCHEDULER: End scheduler "bbbe" with entities [LocalPlayer, LocalPlayer], work=314*
118: 0x03D1 [0x45] LOAD_SCHEDULED_TASK: Load scheduler "b007" with entities [LocalPlayer, LocalPlayer], work=[314*, 0*]
119: 0x03E2 [0x6E] Dalfhum (ID: 16982441/0x010321A9) uses emote 25*
120: 0x03E9 [0x99] Wait for Dalfhum (ID: 16982441/0x010321A9) animation to complete
121: 0x03EE [0x6E] Sahnadjean (ID: 16982440/0x010321A8) uses emote 26*
122: 0x03F5 [0x99] Wait for Sahnadjean (ID: 16982440/0x010321A8) animation to complete
123: 0x03FA [0x2B] Dalfhum (ID: 16982441/0x010321A9) [12098*]:
    → "I think you'll be surprised what you can part with if we yank on it hard enough!"
124: 0x0401 [0x23] WAIT_FOR_DIALOG_INTERACTION
125: 0x0402 [0x5B] LOAD_EXT_SCHEDULER: Load scheduler "dge1" with entities [Fari-Wari (ID: 16982364/0x0103215C), Fari-Wari (ID: 16982364/0x0103215C)], work=719*
126: 0x0411 [0x1C] WAIT(20* ticks)
127: 0x0414 [0x52] END_LOAD_SCHEDULER: End scheduler "b007" with entities [LocalPlayer, LocalPlayer], work=314*
128: 0x0423 [0x45] LOAD_SCHEDULED_TASK: Load scheduler "b008" with entities [LocalPlayer, LocalPlayer], work=[314*, 0*]
129: 0x0434 [0x2B] Fari-Wari (ID: 16982364/0x0103215C) [12099*]:
    → "Gyaaah! Hm?"
130: 0x043B [0x23] WAIT_FOR_DIALOG_INTERACTION
131: 0x043C [0x52] END_LOAD_SCHEDULER: End scheduler "b008" with entities [LocalPlayer, LocalPlayer], work=314*
132: 0x044B [0x4E] SET_ENTITY_HIDE_FLAG: Show LocalPlayer
133: 0x0451 [0xBA] SET_ENTITY_POSITION(entity_id=LocalPlayer, pos_x=80.032*, pos_z=-133.028*, pos_y=-5.999*, direction=92.1°*)
134: 0x045E [0x45] LOAD_SCHEDULED_TASK: Load scheduler "b009" with entities [LocalPlayer, LocalPlayer], work=[314*, 0*]
135: 0x046F [0x1C] WAIT(15* ticks)
136: 0x0472 [0x5B] LOAD_EXT_SCHEDULER: Load scheduler "dge2" with entities [Fari-Wari (ID: 16982364/0x0103215C), Fari-Wari (ID: 16982364/0x0103215C)], work=719*
137: 0x0481 [0x2B] Fari-Wari (ID: 16982364/0x0103215C) [12100*]:
    → "Oh! My prayers are answered! Great Walahra and Merciful Zahak, it's [Lord/Lady] <Player>!"
138: 0x0488 [0x23] WAIT_FOR_DIALOG_INTERACTION
139: 0x0489 [0x52] END_LOAD_SCHEDULER: End scheduler "b009" with entities [LocalPlayer, LocalPlayer], work=314*
140: 0x0498 [0x45] LOAD_SCHEDULED_TASK: Load scheduler "b010" with entities [LocalPlayer, LocalPlayer], work=[314*, 0*]
141: 0x04A9 [0x4A] Sahnadjean (ID: 16982440/0x010321A8) looks at LocalPlayer
142: 0x04B2 [0x4A] Dalfhum (ID: 16982441/0x010321A9) looks at LocalPlayer
143: 0x04BB [0x66] LOAD_EXT_SCHEDULER_MAIN: Load scheduler "sha0" with entities [Fari-Wari (ID: 16982364/0x0103215C), Fari-Wari (ID: 16982364/0x0103215C)], work=49*
144: 0x04CA [0x2B] Dalfhum (ID: 16982441/0x010321A9) [12101*]:
    → "You lookin' for trouble, creampuff? 'Cos we're givin' it out for free!"
145: 0x04D1 [0x23] WAIT_FOR_DIALOG_INTERACTION
146: 0x04D2 [0x52] END_LOAD_SCHEDULER: End scheduler "b010" with entities [LocalPlayer, LocalPlayer], work=314*
147: 0x04E1 [0x45] LOAD_SCHEDULED_TASK: Load scheduler "b011" with entities [LocalPlayer, LocalPlayer], work=[314*, 0*]
148: 0x04F2 [0x66] LOAD_EXT_SCHEDULER_MAIN: Load scheduler "sha1" with entities [Fari-Wari (ID: 16982364/0x0103215C), Fari-Wari (ID: 16982364/0x0103215C)], work=49*
149: 0x0501 [0x1C] WAIT(30* ticks)
150: 0x0504 [0x66] LOAD_EXT_SCHEDULER_MAIN: Load scheduler "tlk0" with entities [Fari-Wari (ID: 16982364/0x0103215C), Fari-Wari (ID: 16982364/0x0103215C)], work=49*
151: 0x0513 [0x2B] Fari-Wari (ID: 16982364/0x0103215C) [12102*]:
    → "P-please, allow me to explain! It may seem unlikely, but this unassuming [fellow/lass] is actually my exceedingly wealthy patron!"
152: 0x051A [0x23] WAIT_FOR_DIALOG_INTERACTION
153: 0x051B [0x66] LOAD_EXT_SCHEDULER_MAIN: Load scheduler "tlk1" with entities [Fari-Wari (ID: 16982364/0x0103215C), Fari-Wari (ID: 16982364/0x0103215C)], work=49*
154: 0x052A [0x2B] Dalfhum (ID: 16982441/0x010321A9) [12103*]:
    → "Is that right...?"
155: 0x0531 [0x23] WAIT_FOR_DIALOG_INTERACTION
156: 0x0532 [0x52] END_LOAD_SCHEDULER: End scheduler "b011" with entities [LocalPlayer, LocalPlayer], work=314*
157: 0x0541 [0x45] LOAD_SCHEDULED_TASK: Load scheduler "b012" with entities [LocalPlayer, LocalPlayer], work=[314*, 0*]
158: 0x0552 [0x2B] Dalfhum (ID: 16982441/0x010321A9) [12104*]:
    → "So you're tellin' me this scruffy-lookin' "patron" of yours is gonna pay off all your debts?"
159: 0x0559 [0x23] WAIT_FOR_DIALOG_INTERACTION
160: 0x055A [0x4A] Dalfhum (ID: 16982441/0x010321A9) looks at LocalPlayer
161: 0x0563 [0x6E] Fari-Wari (ID: 16982364/0x0103215C) uses emote 11*
162: 0x056A [0x99] Wait for Fari-Wari (ID: 16982364/0x0103215C) animation to complete
163: 0x056F [0x2B] Fari-Wari (ID: 16982364/0x0103215C) [12105*]:
    → "Y-yes!"
164: 0x0576 [0x23] WAIT_FOR_DIALOG_INTERACTION
165: 0x0577 [0x52] END_LOAD_SCHEDULER: End scheduler "b012" with entities [LocalPlayer, LocalPlayer], work=314*
166: 0x0586 [0x45] LOAD_SCHEDULED_TASK: Load scheduler "b013" with entities [LocalPlayer, LocalPlayer], work=[314*, 0*]
167: 0x0597 [0x6E] LocalPlayer uses emote 29*
168: 0x059E [0x99] Wait for LocalPlayer animation to complete
169: 0x05A3 [0x1C] WAIT(90* ticks)
170: 0x05A6 [0x4A] Dalfhum (ID: 16982441/0x010321A9) looks at Fari-Wari (ID: 16982364/0x0103215C)
171: 0x05AF [0x2B] Dalfhum (ID: 16982441/0x010321A9) [12106*]:
    → "[He/She] doesn't look too sure of that from where I'm standin'! I'm gettin' tired of your squirmin', shark bait!"
172: 0x05B6 [0x23] WAIT_FOR_DIALOG_INTERACTION
173: 0x05B7 [0x6E] Fari-Wari (ID: 16982364/0x0103215C) uses emote 33*
174: 0x05BE [0x99] Wait for Fari-Wari (ID: 16982364/0x0103215C) animation to complete
175: 0x05C3 [0x2B] Fari-Wari (ID: 16982364/0x0103215C) [12107*]:
    → "For the love of literature! Save me, [Lord/Lady] <Player>!"
176: 0x05CA [0x23] WAIT_FOR_DIALOG_INTERACTION
177: 0x05CB [0x52] END_LOAD_SCHEDULER: End scheduler "b013" with entities [LocalPlayer, LocalPlayer], work=314*
178: 0x05DA [0x45] LOAD_SCHEDULED_TASK: Load scheduler "b014" with entities [LocalPlayer, LocalPlayer], work=[314*, 0*]
179: 0x05EB [0x6E] Sahnadjean (ID: 16982440/0x010321A8) uses emote 32*
180: 0x05F2 [0x99] Wait for Sahnadjean (ID: 16982440/0x010321A8) animation to complete
181: 0x05F7 [0x1C] WAIT(60* ticks)
182: 0x05FA [0x2B] Sahnadjean (ID: 16982440/0x010321A8) [12108*]:
    → "Very well. In light of recent developments, I've decided to grant you a period of grace."
183: 0x0601 [0x23] WAIT_FOR_DIALOG_INTERACTION
184: 0x0602 [0x4A] Dalfhum (ID: 16982441/0x010321A9) looks at Sahnadjean (ID: 16982440/0x010321A8)
185: 0x060B [0x2B] Dalfhum (ID: 16982441/0x010321A9) [12109*]:
    → "What in blazes...? Are you goin' soft on me?"
186: 0x0612 [0x23] WAIT_FOR_DIALOG_INTERACTION
187: 0x0613 [0x2B] Sahnadjean (ID: 16982440/0x010321A8) [12110*]:
    → "If you'll excuse us for a moment..."
188: 0x061A [0x23] WAIT_FOR_DIALOG_INTERACTION
189: 0x061B [0x27] REQ_SET(priority=0x10, entity_id=Sahnadjean (ID: 16982440/0x010321A8), tag_num=0x03)
190: 0x0622 [0x1C] WAIT(15* ticks)
191: 0x0625 [0x52] END_LOAD_SCHEDULER: End scheduler "b014" with entities [LocalPlayer, LocalPlayer], work=314*
192: 0x0634 [0x45] LOAD_SCHEDULED_TASK: Load scheduler "b015" with entities [LocalPlayer, LocalPlayer], work=[314*, 0*]
193: 0x0645 [0x27] REQ_SET(priority=0x10, entity_id=Dalfhum (ID: 16982441/0x010321A9), tag_num=0x04)
194: 0x064C [0x2A] GET_REQ_LEVEL(level=16, entity_id=Dalfhum (ID: 16982441/0x010321A9))
195: 0x0652 [0x4A] Sahnadjean (ID: 16982440/0x010321A8) looks at Dalfhum (ID: 16982441/0x010321A9)
196: 0x065B [0x4A] Dalfhum (ID: 16982441/0x010321A9) looks at Sahnadjean (ID: 16982440/0x010321A8)
197: 0x0664 [0x1C] WAIT(15* ticks)
198: 0x0667 [0x2B] Sahnadjean (ID: 16982440/0x010321A8) [12111*]:
    → "Doesn't this [Lord/Lady] <Player> look at all familiar to you? If the rumors are true, [he's/she's] really the one who conversed with the Serpent Generals and procured the intimate details for Master Fari-Wari's epic poems..."
199: 0x066E [0x23] WAIT_FOR_DIALOG_INTERACTION
200: 0x066F [0x52] END_LOAD_SCHEDULER: End scheduler "b015" with entities [LocalPlayer, LocalPlayer], work=314*
201: 0x067E [0x45] LOAD_SCHEDULED_TASK: Load scheduler "b016" with entities [LocalPlayer, LocalPlayer], work=[314*, 0*]
202: 0x068F [0x4A] Fari-Wari (ID: 16982364/0x0103215C) looks at Dalfhum (ID: 16982441/0x010321A9)
203: 0x0698 [0x4A] LocalPlayer looks at Dalfhum (ID: 16982441/0x010321A9)
204: 0x06A1 [0x2B] Dalfhum (ID: 16982441/0x010321A9) [12112*]:
    → "It wasn't the big-mouthed bard? You wouldn't know it, listenin' to that spineless slug tell the tale."
205: 0x06A8 [0x23] WAIT_FOR_DIALOG_INTERACTION
206: 0x06A9 [0x66] LOAD_EXT_SCHEDULER_MAIN: Load scheduler "twb0" with entities [Sahnadjean (ID: 16982440/0x010321A8), Sahnadjean (ID: 16982440/0x010321A8)], work=29*
207: 0x06B8 [0x2B] Sahnadjean (ID: 16982440/0x010321A8) [12113*]:
    → "You're missing the point. If [Lord/Lady] <Player> is acquainted with the Serpent Generals, we may be able to squeeze a far larger purse than the one belonging to our merry minstrel..."
208: 0x06BF [0x23] WAIT_FOR_DIALOG_INTERACTION
209: 0x06C0 [0x66] LOAD_EXT_SCHEDULER_MAIN: Load scheduler "twb1" with entities [Sahnadjean (ID: 16982440/0x010321A8), Sahnadjean (ID: 16982440/0x010321A8)], work=29*
210: 0x06CF [0x2B] Dalfhum (ID: 16982441/0x010321A9) [12114*]:
    → "I don't get it..."
211: 0x06D6 [0x23] WAIT_FOR_DIALOG_INTERACTION
212: 0x06D7 [0x52] END_LOAD_SCHEDULER: End scheduler "b016" with entities [LocalPlayer, LocalPlayer], work=314*
213: 0x06E6 [0x45] LOAD_SCHEDULED_TASK: Load scheduler "b017" with entities [LocalPlayer, LocalPlayer], work=[314*, 0*]
214: 0x06F7 [0x2B] Sahnadjean (ID: 16982440/0x010321A8) [12115*]:
    → "The generals are the linchpin in the defense of the city. A highly respectable position. I'm sure they would go to any lengths to prevent a money-lending scandal in their immediate circle of colleagues from reaching the general public."
215: 0x06FE [0x23] WAIT_FOR_DIALOG_INTERACTION
216: 0x06FF [0x6E] Dalfhum (ID: 16982441/0x010321A9) uses emote 32*
217: 0x0706 [0x99] Wait for Dalfhum (ID: 16982441/0x010321A9) animation to complete
218: 0x070B [0x2B] Dalfhum (ID: 16982441/0x010321A9) [12116*]:
    → "So you're sayin'...we could lean on them for hush money!"
219: 0x0712 [0x23] WAIT_FOR_DIALOG_INTERACTION
220: 0x0713 [0x2B] Sahnadjean (ID: 16982440/0x010321A8) [12117*]:
    → "I'm saying, that if we do this right, we could be dipping our paws into the palace treasury itself... A risky venture, to be sure, but the chance of a lifetime!"
221: 0x071A [0x23] WAIT_FOR_DIALOG_INTERACTION
222: 0x071B [0x52] END_LOAD_SCHEDULER: End scheduler "b017" with entities [LocalPlayer, LocalPlayer], work=314*
223: 0x072A [0x45] LOAD_SCHEDULED_TASK: Load scheduler "b018" with entities [LocalPlayer, LocalPlayer], work=[314*, 0*]
224: 0x073B [0x1C] WAIT(30* ticks)
225: 0x073E [0x6E] Dalfhum (ID: 16982441/0x010321A9) uses emote 4*
226: 0x0745 [0x99] Wait for Dalfhum (ID: 16982441/0x010321A9) animation to complete
227: 0x074A [0x2B] Dalfhum (ID: 16982441/0x010321A9) [12118*]:
    → "I like the sound of that... I'm in!"
228: 0x0751 [0x23] WAIT_FOR_DIALOG_INTERACTION
229: 0x0752 [0x99] Wait for Dalfhum (ID: 16982441/0x010321A9) animation to complete
230: 0x0757 [0x27] REQ_SET(priority=0x10, entity_id=Dalfhum (ID: 16982441/0x010321A9), tag_num=0x05)
231: 0x075E [0x1C] WAIT(20* ticks)
232: 0x0761 [0x52] END_LOAD_SCHEDULER: End scheduler "b018" with entities [LocalPlayer, LocalPlayer], work=314*
233: 0x0770 [0x45] LOAD_SCHEDULED_TASK: Load scheduler "b019" with entities [LocalPlayer, LocalPlayer], work=[314*, 0*]
234: 0x0781 [0x27] REQ_SET(priority=0x10, entity_id=Sahnadjean (ID: 16982440/0x010321A8), tag_num=0x04)
235: 0x0788 [0x2A] GET_REQ_LEVEL(level=16, entity_id=Dalfhum (ID: 16982441/0x010321A9))
236: 0x078E [0x4A] Fari-Wari (ID: 16982364/0x0103215C) looks at Sahnadjean (ID: 16982440/0x010321A8)
237: 0x0797 [0x4A] LocalPlayer looks at Fari-Wari (ID: 16982364/0x0103215C)
238: 0x07A0 [0x2B] Dalfhum (ID: 16982441/0x010321A9) [12119*]:
    → "After talkin' it over with me partner, I've agreed to let you off the hook...for now."
239: 0x07A7 [0x23] WAIT_FOR_DIALOG_INTERACTION
240: 0x07A8 [0x66] LOAD_EXT_SCHEDULER_MAIN: Load scheduler "twb0" with entities [Sahnadjean (ID: 16982440/0x010321A8), Sahnadjean (ID: 16982440/0x010321A8)], work=29*
241: 0x07B7 [0x2B] Sahnadjean (ID: 16982440/0x010321A8) [12120*]:
    → "We are in the business of making profits, Master Fari-Wari. Removing vital portions of your anatomy does little to fill our purses."
242: 0x07BE [0x23] WAIT_FOR_DIALOG_INTERACTION
243: 0x07BF [0x66] LOAD_EXT_SCHEDULER_MAIN: Load scheduler "twb1" with entities [Sahnadjean (ID: 16982440/0x010321A8), Sahnadjean (ID: 16982440/0x010321A8)], work=29*
244: 0x07CE [0x52] END_LOAD_SCHEDULER: End scheduler "b019" with entities [LocalPlayer, LocalPlayer], work=314*
245: 0x07DD [0x45] LOAD_SCHEDULED_TASK: Load scheduler "b020" with entities [LocalPlayer, LocalPlayer], work=[314*, 0*]
246: 0x07EE [0x1C] WAIT(15* ticks)
247: 0x07F1 [0x2B] Sahnadjean (ID: 16982440/0x010321A8) [12121*]:
    → "I expect the entire sum of two hundred gold coins to be waiting for us the next time we come calling..."
248: 0x07F8 [0x23] WAIT_FOR_DIALOG_INTERACTION
249: 0x07F9 [0x52] END_LOAD_SCHEDULER: End scheduler "b020" with entities [LocalPlayer, LocalPlayer], work=314*
250: 0x0808 [0x45] LOAD_SCHEDULED_TASK: Load scheduler "b021" with entities [LocalPlayer, LocalPlayer], work=[314*, 0*]
251: 0x0819 [0x6E] Fari-Wari (ID: 16982364/0x0103215C) uses emote 11*
252: 0x0820 [0x99] Wait for Fari-Wari (ID: 16982364/0x0103215C) animation to complete
253: 0x0825 [0x2B] Fari-Wari (ID: 16982364/0x0103215C) [12122*]:
    → "Yes, yes, of course! A mere pinprick in the fantastic fortune of my prosperous patron! Isn't that right, [Lord/Lady] <Player>!?"
254: 0x082C [0x23] WAIT_FOR_DIALOG_INTERACTION
255: 0x082D [0x6E] Dalfhum (ID: 16982441/0x010321A9) uses emote 32*
256: 0x0834 [0x99] Wait for Dalfhum (ID: 16982441/0x010321A9) animation to complete
257: 0x0839 [0x2B] Dalfhum (ID: 16982441/0x010321A9) [12123*]:
    → "Keep yappin', you little..."
258: 0x0840 [0x23] WAIT_FOR_DIALOG_INTERACTION
259: 0x0841 [0x2B] Sahnadjean (ID: 16982440/0x010321A8) [12124*]:
    → "Ohoho, I trust we won't be disappointed, then. Until next we meet."
260: 0x0848 [0x23] WAIT_FOR_DIALOG_INTERACTION
261: 0x0849 [0x27] REQ_SET(priority=0x10, entity_id=Sahnadjean (ID: 16982440/0x010321A8), tag_num=0x05)
262: 0x0850 [0x1C] WAIT(20* ticks)
263: 0x0853 [0x52] END_LOAD_SCHEDULER: End scheduler "b021" with entities [LocalPlayer, LocalPlayer], work=314*
264: 0x0862 [0x45] LOAD_SCHEDULED_TASK: Load scheduler "b022" with entities [LocalPlayer, LocalPlayer], work=[314*, 0*]
265: 0x0873 [0x27] REQ_SET(priority=0x10, entity_id=Dalfhum (ID: 16982441/0x010321A9), tag_num=0x03)
266: 0x087A [0x1C] WAIT(100* ticks)
267: 0x087D [0x5D] SET_MUSIC_VOLUME(volume=0*, fade_time=120*)
268: 0x0882 [0x45] LOAD_SCHEDULED_TASK: Load scheduler "fdo1" with entities [EventEntity, EventEntity], work=[200*, 0*]
269: 0x0893 [0x55] WAIT_LOAD_SCHEDULER: Wait for scheduler "fdo1" with entities [EventEntity, EventEntity], work=200*
270: 0x08A2 [0x52] END_LOAD_SCHEDULER: End scheduler "b022" with entities [LocalPlayer, LocalPlayer], work=314*
271: 0x08B1 [0x4E] SET_ENTITY_HIDE_FLAG: Hide Sahnadjean (ID: 16982440/0x010321A8)
272: 0x08B7 [0x4E] SET_ENTITY_HIDE_FLAG: Hide Dalfhum (ID: 16982441/0x010321A9)
273: 0x08BD [0x1C] WAIT(60* ticks)
274: 0x08C0 [0x4A] Fari-Wari (ID: 16982364/0x0103215C) looks at LocalPlayer
275: 0x08C9 [0x45] LOAD_SCHEDULED_TASK: Load scheduler "b023" with entities [LocalPlayer, LocalPlayer], work=[314*, 0*]
276: 0x08DA [0x45] LOAD_SCHEDULED_TASK: Load scheduler "fdi1" with entities [LocalPlayer, LocalPlayer], work=[200*, 0*]
277: 0x08EB [0x5C] MUSIC_CONTROL: Set Idle (Day) music to song 178*
278: 0x08EF [0x5C] MUSIC_CONTROL: Set Idle (Night) music to song 178*
279: 0x08F3 [0x9A] WAIT_MUSIC_SERVER()
280: 0x08F4 [0x1C] WAIT(60* ticks)
281: 0x08F7 [0x2B] Fari-Wari (ID: 16982364/0x0103215C) [12125*]:
    → "..."
282: 0x08FE [0x23] WAIT_FOR_DIALOG_INTERACTION
283: 0x08FF [0x2B] Fari-Wari (ID: 16982364/0x0103215C) [12126*]:
    → "Phew..."
284: 0x0906 [0x23] WAIT_FOR_DIALOG_INTERACTION
285: 0x0907 [0x52] END_LOAD_SCHEDULER: End scheduler "b023" with entities [LocalPlayer, LocalPlayer], work=314*
286: 0x0916 [0x45] LOAD_SCHEDULED_TASK: Load scheduler "b025" with entities [LocalPlayer, LocalPlayer], work=[314*, 0*]
287: 0x0927 [0x66] LOAD_EXT_SCHEDULER_MAIN: Load scheduler "tlk0" with entities [Fari-Wari (ID: 16982364/0x0103215C), Fari-Wari (ID: 16982364/0x0103215C)], work=49*
288: 0x0936 [0x2B] Fari-Wari (ID: 16982364/0x0103215C) [12127*]:
    → "Yes, yes, I see the disapproval on your face. If you could write up a list of grievances, I'll add them to the pile."
289: 0x093D [0x23] WAIT_FOR_DIALOG_INTERACTION
290: 0x093E [0x2B] Fari-Wari (ID: 16982364/0x0103215C) [12128*]:
    → "But there is no time for such trivialities. Your continued well-being and my poor ears (and Walahra knows what other bodily appendages) are at stake here!"
291: 0x0945 [0x23] WAIT_FOR_DIALOG_INTERACTION
292: 0x0946 [0x66] LOAD_EXT_SCHEDULER_MAIN: Load scheduler "tlk1" with entities [Fari-Wari (ID: 16982364/0x0103215C), Fari-Wari (ID: 16982364/0x0103215C)], work=49*
293: 0x0955 [0x52] END_LOAD_SCHEDULER: End scheduler "b025" with entities [LocalPlayer, LocalPlayer], work=314*
294: 0x0964 [0x45] LOAD_SCHEDULED_TASK: Load scheduler "b024" with entities [LocalPlayer, LocalPlayer], work=[314*, 0*]
295: 0x0975 [0x6E] Fari-Wari (ID: 16982364/0x0103215C) uses emote 35*
296: 0x097C [0x99] Wait for Fari-Wari (ID: 16982364/0x0103215C) animation to complete
297: 0x0981 [0x2B] Fari-Wari (ID: 16982364/0x0103215C) [12129*]:
    → "Ah, the acquisition of sordid coin... There must be money to be found somewhere...in your bank, for instance? No?"
298: 0x0988 [0x23] WAIT_FOR_DIALOG_INTERACTION
299: 0x0989 [0x52] END_LOAD_SCHEDULER: End scheduler "b024" with entities [LocalPlayer, LocalPlayer], work=314*
300: 0x0998 [0x45] LOAD_SCHEDULED_TASK: Load scheduler "b026" with entities [LocalPlayer, LocalPlayer], work=[314*, 0*]
301: 0x09A9 [0x1C] WAIT(15* ticks)
302: 0x09AC [0x2B] Fari-Wari (ID: 16982364/0x0103215C) [12130*]:
    → "You think I should attempt to pen another chapter in the Serpent General saga?"
303: 0x09B3 [0x23] WAIT_FOR_DIALOG_INTERACTION
304: 0x09B4 [0x1C] WAIT(15* ticks)
305: 0x09B7 [0x66] LOAD_EXT_SCHEDULER_MAIN: Load scheduler "tlk0" with entities [Fari-Wari (ID: 16982364/0x0103215C), Fari-Wari (ID: 16982364/0x0103215C)], work=49*
306: 0x09C6 [0x2B] Fari-Wari (ID: 16982364/0x0103215C) [12131*]:
    → "Oh no no no. I am an artiste--covering the same, tired old theme rails against my creative nature!"
307: 0x09CD [0x23] WAIT_FOR_DIALOG_INTERACTION
308: 0x09CE [0x2B] Fari-Wari (ID: 16982364/0x0103215C) [12132*]:
    → "No, my works must be innovative, fantastic, inspiring!"
309: 0x09D5 [0x23] WAIT_FOR_DIALOG_INTERACTION
310: 0x09D6 [0x66] LOAD_EXT_SCHEDULER_MAIN: Load scheduler "tlk1" with entities [Fari-Wari (ID: 16982364/0x0103215C), Fari-Wari (ID: 16982364/0x0103215C)], work=49*
311: 0x09E5 [0x52] END_LOAD_SCHEDULER: End scheduler "b026" with entities [LocalPlayer, LocalPlayer], work=314*
312: 0x09F4 [0x45] LOAD_SCHEDULED_TASK: Load scheduler "b027" with entities [LocalPlayer, LocalPlayer], work=[314*, 0*]
313: 0x0A05 [0x1C] WAIT(15* ticks)
314: 0x0A08 [0x6E] Fari-Wari (ID: 16982364/0x0103215C) uses emote 32*
315: 0x0A0F [0x99] Wait for Fari-Wari (ID: 16982364/0x0103215C) animation to complete
316: 0x0A14 [0x2B] Fari-Wari (ID: 16982364/0x0103215C) [12133*]:
    → "How can I explain this...?"
317: 0x0A1B [0x23] WAIT_FOR_DIALOG_INTERACTION
318: 0x0A1C [0x2B] Fari-Wari (ID: 16982364/0x0103215C) [12134*]:
    → "It should be verse that grips the reader in inescapable coils of anticipation and excitement..."
319: 0x0A23 [0x23] WAIT_FOR_DIALOG_INTERACTION
320: 0x0A24 [0x52] END_LOAD_SCHEDULER: End scheduler "b027" with entities [LocalPlayer, LocalPlayer], work=314*
321: 0x0A33 [0x45] LOAD_SCHEDULED_TASK: Load scheduler "b028" with entities [LocalPlayer, LocalPlayer], work=[314*, 0*]
322: 0x0A44 [0x6E] Fari-Wari (ID: 16982364/0x0103215C) uses emote 21*
323: 0x0A4B [0x99] Wait for Fari-Wari (ID: 16982364/0x0103215C) animation to complete
324: 0x0A50 [0x2B] Fari-Wari (ID: 16982364/0x0103215C) [12135*]:
    → "Hm...? I'm getting something... Yes. Yes! I have it!"
325: 0x0A57 [0x23] WAIT_FOR_DIALOG_INTERACTION
326: 0x0A58 [0x99] Wait for Fari-Wari (ID: 16982364/0x0103215C) animation to complete
327: 0x0A5D [0x52] END_LOAD_SCHEDULER: End scheduler "b028" with entities [LocalPlayer, LocalPlayer], work=314*
328: 0x0A6C [0x45] LOAD_SCHEDULED_TASK: Load scheduler "bbb2" with entities [LocalPlayer, LocalPlayer], work=[314*, 0*]
329: 0x0A7D [0x1C] WAIT(15* ticks)
330: 0x0A80 [0x6E] Fari-Wari (ID: 16982364/0x0103215C) uses emote 0*
331: 0x0A87 [0x99] Wait for Fari-Wari (ID: 16982364/0x0103215C) animation to complete
332: 0x0A8C [0x2B] Fari-Wari (ID: 16982364/0x0103215C) [12136*]:
    → "I shall compose a chilling tale that keeps my readers on the edge of their seats from the first syllable to the last! A suspense poem thriller!"
333: 0x0A93 [0x23] WAIT_FOR_DIALOG_INTERACTION
334: 0x0A94 [0x52] END_LOAD_SCHEDULER: End scheduler "bbb2" with entities [LocalPlayer, LocalPlayer], work=314*
335: 0x0AA3 [0x45] LOAD_SCHEDULED_TASK: Load scheduler "b029" with entities [LocalPlayer, LocalPlayer], work=[314*, 0*]
336: 0x0AB4 [0x2B] Fari-Wari (ID: 16982364/0x0103215C) [12137*]:
    → "What say you, my faithful attendant? Do you not agree that this will be the next craze to capture the hearts of the citizenry?"
337: 0x0ABB [0x23] WAIT_FOR_DIALOG_INTERACTION
338: 0x0ABC [0x24] CREATE_DIALOG(message_id=12138*, default_option=0*, option_flags=0*)
    → "Do you agree? [Oh, absolutely./Not really...]"
339: 0x0AC3 [0x25] WAIT_DIALOG_SELECT()
340: 0x0AC4 [0x02] IF !(Work_Zone[0] == 0*) GOTO 0x0B03
341: 0x0ACC [0x52] END_LOAD_SCHEDULER: End scheduler "b029" with entities [LocalPlayer, LocalPlayer], work=314*
342: 0x0ADB [0x45] LOAD_SCHEDULED_TASK: Load scheduler "b030" with entities [LocalPlayer, LocalPlayer], work=[314*, 0*]
343: 0x0AEC [0x6E] Fari-Wari (ID: 16982364/0x0103215C) uses emote 13*
344: 0x0AF3 [0x99] Wait for Fari-Wari (ID: 16982364/0x0103215C) animation to complete
345: 0x0AF8 [0x2B] Fari-Wari (ID: 16982364/0x0103215C) [12139*]:
    → "Yes! Absolute madness of the masses! You know, sometimes I'm so brilliant I even scare myself."
346: 0x0AFF [0x23] WAIT_FOR_DIALOG_INTERACTION
347: 0x0B00 [0x01] GOTO 0x0B4A
348: 0x0B03 [0x02] IF !(Work_Zone[0] == 1*) GOTO 0x0B4A
349: 0x0B0B [0x52] END_LOAD_SCHEDULER: End scheduler "b029" with entities [LocalPlayer, LocalPlayer], work=314*
350: 0x0B1A [0x45] LOAD_SCHEDULED_TASK: Load scheduler "b030" with entities [LocalPlayer, LocalPlayer], work=[314*, 0*]
351: 0x0B2B [0x6E] Fari-Wari (ID: 16982364/0x0103215C) uses emote 22*
352: 0x0B32 [0x99] Wait for Fari-Wari (ID: 16982364/0x0103215C) animation to complete
353: 0x0B37 [0x2B] Fari-Wari (ID: 16982364/0x0103215C) [12140*]:
    → "Great and merciful Zahak! How cruel of you to deprive this simple being of the slightest hint of good taste!"
354: 0x0B3E [0x23] WAIT_FOR_DIALOG_INTERACTION
355: 0x0B3F [0x2B] Fari-Wari (ID: 16982364/0x0103215C) [12141*]:
    → "My dear attendant, if you do not pry open that rusty mind of yours, you'll never survive in the constantly evolving world of written entertainment!"
356: 0x0B46 [0x23] WAIT_FOR_DIALOG_INTERACTION
357: 0x0B47 [0x01] GOTO 0x0B4A

SUBROUTINE_0B4A:
358: 0x0B4A [0x29] REQ_SET_WAIT(priority=0x10, entity_id=Ratihb (ID: 16982264/0x010320F8), tag_num=0x02)
359: 0x0B51 [0x1C] WAIT(10* ticks)
360: 0x0B54 [0x52] END_LOAD_SCHEDULER: End scheduler "b030" with entities [LocalPlayer, LocalPlayer], work=314*
361: 0x0B63 [0x45] LOAD_SCHEDULED_TASK: Load scheduler "aaaa" with entities [LocalPlayer, LocalPlayer], work=[314*, 0*]
362: 0x0B74 [0x4E] SET_ENTITY_HIDE_FLAG: Show Ratihb (ID: 16982264/0x010320F8)
363: 0x0B7A [0x5D] SET_MUSIC_VOLUME(volume=0*, fade_time=120*)
364: 0x0B7F [0x1C] WAIT(60* ticks)
365: 0x0B82 [0x2B] ??? (ID: 16982289/0x01032111) [12142*]:
    → "I couldn't help overhearing your conversation, Mister Fari-Wari. Perhaps I can be of some service?"
366: 0x0B89 [0x23] WAIT_FOR_DIALOG_INTERACTION
367: 0x0B8A [0x52] END_LOAD_SCHEDULER: End scheduler "aaaa" with entities [LocalPlayer, LocalPlayer], work=314*
368: 0x0B99 [0x45] LOAD_SCHEDULED_TASK: Load scheduler "aaab" with entities [LocalPlayer, LocalPlayer], work=[314*, 0*]
369: 0x0BAA [0x5C] MUSIC_CONTROL: Set Idle (Day) music to song 163*
370: 0x0BAE [0x5C] MUSIC_CONTROL: Set Idle (Night) music to song 163*
371: 0x0BB2 [0x66] LOAD_EXT_SCHEDULER_MAIN: Load scheduler "tat0" with entities [Ratihb (ID: 16982264/0x010320F8), Ratihb (ID: 16982264/0x010320F8)], work=3*
372: 0x0BC1 [0x1C] WAIT(15* ticks)
373: 0x0BC4 [0x9A] WAIT_MUSIC_SERVER()
374: 0x0BC5 [0x4A] Fari-Wari (ID: 16982364/0x0103215C) looks at Ratihb (ID: 16982264/0x010320F8)
375: 0x0BCE [0x2B] Fari-Wari (ID: 16982364/0x0103215C) [12143*]:
    → "Hm? You have a sack of coins under the counter for just such an emergency? Wonderful! Sling it over, my good man!"
376: 0x0BD5 [0x23] WAIT_FOR_DIALOG_INTERACTION
377: 0x0BD6 [0x52] END_LOAD_SCHEDULER: End scheduler "aaab" with entities [LocalPlayer, LocalPlayer], work=314*
378: 0x0BE5 [0x45] LOAD_SCHEDULED_TASK: Load scheduler "aaac" with entities [LocalPlayer, LocalPlayer], work=[314*, 0*]
379: 0x0BF6 [0x27] REQ_SET(priority=0x10, entity_id=Fari-Wari (ID: 16982364/0x0103215C), tag_num=0x09)
380: 0x0BFD [0x2B] Ratihb (ID: 16982264/0x010320F8) [12144*]:
    → "Ah, no. I was talking about the new poem..."
381: 0x0C04 [0x23] WAIT_FOR_DIALOG_INTERACTION
382: 0x0C05 [0x66] LOAD_EXT_SCHEDULER_MAIN: Load scheduler "tlk0" with entities [Ratihb (ID: 16982264/0x010320F8), Ratihb (ID: 16982264/0x010320F8)], work=0*
383: 0x0C14 [0x2B] Ratihb (ID: 16982264/0x010320F8) [12145*]:
    → "If it's suspense and thrills you're looking for, I might have the very tale to base it on..."
384: 0x0C1B [0x23] WAIT_FOR_DIALOG_INTERACTION
385: 0x0C1C [0x66] LOAD_EXT_SCHEDULER_MAIN: Load scheduler "ten0" with entities [Ratihb (ID: 16982264/0x010320F8), Ratihb (ID: 16982264/0x010320F8)], work=0*
386: 0x0C2B [0x52] END_LOAD_SCHEDULER: End scheduler "aaac" with entities [LocalPlayer, LocalPlayer], work=314*
387: 0x0C3A [0x45] LOAD_SCHEDULED_TASK: Load scheduler "aaad" with entities [LocalPlayer, LocalPlayer], work=[314*, 0*]
388: 0x0C4B [0x6E] Fari-Wari (ID: 16982364/0x0103215C) uses emote 10*
389: 0x0C52 [0x99] Wait for Fari-Wari (ID: 16982364/0x0103215C) animation to complete
390: 0x0C57 [0x2B] Fari-Wari (ID: 16982364/0x0103215C) [12146*]:
    → "Oho! Fari-Wari the Eloquent (and never Egotistical!) is always open to suggestions!"
391: 0x0C5E [0x23] WAIT_FOR_DIALOG_INTERACTION
392: 0x0C5F [0x2B] Fari-Wari (ID: 16982364/0x0103215C) [12147*]:
    → "So, what juicy rumors does the master of the teahouse keep under his apron? I'll be more than happy to appropriate and elaborate in the name of art!"
393: 0x0C66 [0x23] WAIT_FOR_DIALOG_INTERACTION
394: 0x0C67 [0x52] END_LOAD_SCHEDULER: End scheduler "aaad" with entities [LocalPlayer, LocalPlayer], work=314*
395: 0x0C76 [0x45] LOAD_SCHEDULED_TASK: Load scheduler "aaae" with entities [LocalPlayer, LocalPlayer], work=[314*, 0*]
396: 0x0C87 [0x5D] SET_MUSIC_VOLUME(volume=0*, fade_time=120*)
397: 0x0C8C [0x1C] WAIT(30* ticks)
398: 0x0C8F [0x66] LOAD_EXT_SCHEDULER_MAIN: Load scheduler "tlk0" with entities [Ratihb (ID: 16982264/0x010320F8), Ratihb (ID: 16982264/0x010320F8)], work=0*
399: 0x0C9E [0x2B] Ratihb (ID: 16982264/0x010320F8) [12148*]:
    → "Ah...well, then... Did you ever hear about the "Pamama Murders"?"
400: 0x0CA5 [0x23] WAIT_FOR_DIALOG_INTERACTION
401: 0x0CA6 [0x66] LOAD_EXT_SCHEDULER_MAIN: Load scheduler "ten0" with entities [Ratihb (ID: 16982264/0x010320F8), Ratihb (ID: 16982264/0x010320F8)], work=0*
402: 0x0CB5 [0x52] END_LOAD_SCHEDULER: End scheduler "aaae" with entities [LocalPlayer, LocalPlayer], work=314*
403: 0x0CC4 [0x45] LOAD_SCHEDULED_TASK: Load scheduler "aaaf" with entities [LocalPlayer, LocalPlayer], work=[314*, 0*]
404: 0x0CD5 [0xBA] SET_ENTITY_POSITION(entity_id=LocalPlayer, pos_x=79.488*, pos_z=-136.025*, pos_y=-6.000*, direction=92.1°*)
405: 0x0CE2 [0x5C] MUSIC_CONTROL: Set Idle (Day) music to song 164*
406: 0x0CE6 [0x5C] MUSIC_CONTROL: Set Idle (Night) music to song 164*
407: 0x0CEA [0x9A] WAIT_MUSIC_SERVER()
408: 0x0CEB [0x1C] WAIT(15* ticks)
409: 0x0CEE [0x2B] Fari-Wari (ID: 16982364/0x0103215C) [12149*]:
    → "Pamamas? As in the yellow curved fruit? My dear fellow, please tell me you aren't about to explain a series of unfortunate slippings on pamama peels?"
410: 0x0CF5 [0x23] WAIT_FOR_DIALOG_INTERACTION
411: 0x0CF6 [0x2B] Ratihb (ID: 16982264/0x010320F8) [12150*]:
    → "Ah, so you don't know. It was the talk of the town for a short while, before the Immortals declared the reports false and ruthlessly quashed the story."
412: 0x0CFD [0x23] WAIT_FOR_DIALOG_INTERACTION
413: 0x0CFE [0x52] END_LOAD_SCHEDULER: End scheduler "aaaf" with entities [LocalPlayer, LocalPlayer], work=314*
414: 0x0D0D [0x45] LOAD_SCHEDULED_TASK: Load scheduler "aaag" with entities [LocalPlayer, LocalPlayer], work=[314*, 0*]
415: 0x0D1E [0x66] LOAD_EXT_SCHEDULER_MAIN: Load scheduler "tlk1" with entities [Ratihb (ID: 16982264/0x010320F8), Ratihb (ID: 16982264/0x010320F8)], work=0*
416: 0x0D2D [0x2B] Ratihb (ID: 16982264/0x010320F8) [12151*]:
    → "It all happened about two years ago. A series of incidents began, where every night an important Imperial official or officer was assassinated."
417: 0x0D34 [0x23] WAIT_FOR_DIALOG_INTERACTION
418: 0x0D35 [0x2B] Ratihb (ID: 16982264/0x010320F8) [12152*]:
    → "Matters became so serious, that a nightly curfew was imposed on the capital."
419: 0x0D3C [0x23] WAIT_FOR_DIALOG_INTERACTION
420: 0x0D3D [0x66] LOAD_EXT_SCHEDULER_MAIN: Load scheduler "ten1" with entities [Ratihb (ID: 16982264/0x010320F8), Ratihb (ID: 16982264/0x010320F8)], work=0*
421: 0x0D4C [0x52] END_LOAD_SCHEDULER: End scheduler "aaag" with entities [LocalPlayer, LocalPlayer], work=314*
422: 0x0D5B [0x45] LOAD_SCHEDULED_TASK: Load scheduler "aaah" with entities [LocalPlayer, LocalPlayer], work=[314*, 0*]
423: 0x0D6C [0x6E] Fari-Wari (ID: 16982364/0x0103215C) uses emote 32*
424: 0x0D73 [0x99] Wait for Fari-Wari (ID: 16982364/0x0103215C) animation to complete
425: 0x0D78 [0x2B] Fari-Wari (ID: 16982364/0x0103215C) [12153*]:
    → "Aha! That explains my inability to locate any charming young ladies to woo during that stretch of time..."
426: 0x0D7F [0x23] WAIT_FOR_DIALOG_INTERACTION
427: 0x0D80 [0x2B] Ratihb (ID: 16982264/0x010320F8) [12154*]:
    → "I'm sorry?"
428: 0x0D87 [0x23] WAIT_FOR_DIALOG_INTERACTION
429: 0x0D88 [0x99] Wait for Fari-Wari (ID: 16982364/0x0103215C) animation to complete
430: 0x0D8D [0x52] END_LOAD_SCHEDULER: End scheduler "aaah" with entities [LocalPlayer, LocalPlayer], work=314*
431: 0x0D9C [0x45] LOAD_SCHEDULED_TASK: Load scheduler "aaai" with entities [LocalPlayer, LocalPlayer], work=[314*, 0*]
432: 0x0DAD [0x66] LOAD_EXT_SCHEDULER_MAIN: Load scheduler "tlk0" with entities [Fari-Wari (ID: 16982364/0x0103215C), Fari-Wari (ID: 16982364/0x0103215C)], work=49*
433: 0x0DBC [0x2B] Fari-Wari (ID: 16982364/0x0103215C) [12155*]:
    → "Ahem... Nothing at all! Please, do continue with your tale."
434: 0x0DC3 [0x23] WAIT_FOR_DIALOG_INTERACTION
435: 0x0DC4 [0x66] LOAD_EXT_SCHEDULER_MAIN: Load scheduler "tlk1" with entities [Fari-Wari (ID: 16982364/0x0103215C), Fari-Wari (ID: 16982364/0x0103215C)], work=49*
436: 0x0DD3 [0x66] LOAD_EXT_SCHEDULER_MAIN: Load scheduler "tlk0" with entities [Ratihb (ID: 16982264/0x010320F8), Ratihb (ID: 16982264/0x010320F8)], work=0*
437: 0x0DE2 [0x2B] Ratihb (ID: 16982264/0x010320F8) [12156*]:
    → "They were truly bizarre cases--all of the victims were wealthy and had expensive tastes, but nothing was ever taken. And there was a single common factor in all of the murders..."
438: 0x0DE9 [0x23] WAIT_FOR_DIALOG_INTERACTION
439: 0x0DEA [0x2B] Fari-Wari (ID: 16982364/0x0103215C) [12157*]:
    → "A common factor?"
440: 0x0DF1 [0x23] WAIT_FOR_DIALOG_INTERACTION
441: 0x0DF2 [0x52] END_LOAD_SCHEDULER: End scheduler "aaai" with entities [LocalPlayer, LocalPlayer], work=314*
442: 0x0E01 [0x45] LOAD_SCHEDULED_TASK: Load scheduler "aaao" with entities [LocalPlayer, LocalPlayer], work=[314*, 0*]
443: 0x0E12 [0x1C] WAIT(15* ticks)
444: 0x0E15 [0x2B] Ratihb (ID: 16982264/0x010320F8) [12158*]:
    → "Without fail, the victim's face was covered with a carefully splayed pamama peel, like a large, yellow flower in full bloom..."
445: 0x0E1C [0x23] WAIT_FOR_DIALOG_INTERACTION
446: 0x0E1D [0x66] LOAD_EXT_SCHEDULER_MAIN: Load scheduler "ten1" with entities [Ratihb (ID: 16982264/0x010320F8), Ratihb (ID: 16982264/0x010320F8)], work=0*
447: 0x0E2C [0x52] END_LOAD_SCHEDULER: End scheduler "aaao" with entities [LocalPlayer, LocalPlayer], work=314*
448: 0x0E3B [0x45] LOAD_SCHEDULED_TASK: Load scheduler "aaaj" with entities [LocalPlayer, LocalPlayer], work=[314*, 0*]
449: 0x0E4C [0x6E] Fari-Wari (ID: 16982364/0x0103215C) uses emote 22*
450: 0x0E53 [0x99] Wait for Fari-Wari (ID: 16982364/0x0103215C) animation to complete
451: 0x0E58 [0x2B] Fari-Wari (ID: 16982364/0x0103215C) [12159*]:
    → "<Snort>...surely you jest?"
452: 0x0E5F [0x23] WAIT_FOR_DIALOG_INTERACTION
453: 0x0E60 [0x52] END_LOAD_SCHEDULER: End scheduler "aaaj" with entities [LocalPlayer, LocalPlayer], work=314*
454: 0x0E6F [0x45] LOAD_SCHEDULED_TASK: Load scheduler "aaak" with entities [LocalPlayer, LocalPlayer], work=[314*, 0*]
455: 0x0E80 [0x2B] Ratihb (ID: 16982264/0x010320F8) [12160*]:
    → "It was no laughing matter. The murderer was never caught, and the case was officially shut down. It remains a mystery until this day."
456: 0x0E87 [0x23] WAIT_FOR_DIALOG_INTERACTION
457: 0x0E88 [0x6E] Fari-Wari (ID: 16982364/0x0103215C) uses emote 32*
458: 0x0E8F [0x99] Wait for Fari-Wari (ID: 16982364/0x0103215C) animation to complete
459: 0x0E94 [0x2B] Fari-Wari (ID: 16982364/0x0103215C) [12161*]:
    → "Hmmm...might it have been some Far Eastern ninja spy? A Lamia hitwoman? This story reeks...of untapped potential!"
460: 0x0E9B [0x23] WAIT_FOR_DIALOG_INTERACTION
461: 0x0E9C [0x66] LOAD_EXT_SCHEDULER_MAIN: Load scheduler "tlk1" with entities [Ratihb (ID: 16982264/0x010320F8), Ratihb (ID: 16982264/0x010320F8)], work=0*
462: 0x0EAB [0x2B] Ratihb (ID: 16982264/0x010320F8) [12162*]:
    → "I had hoped as much. As it happens, the detective originally assigned to the case by the Imperial Palace is one of my regulars. Shall I introduce you?"
463: 0x0EB2 [0x23] WAIT_FOR_DIALOG_INTERACTION
464: 0x0EB3 [0x66] LOAD_EXT_SCHEDULER_MAIN: Load scheduler "ten1" with entities [Ratihb (ID: 16982264/0x010320F8), Ratihb (ID: 16982264/0x010320F8)], work=0*
465: 0x0EC2 [0x52] END_LOAD_SCHEDULER: End scheduler "aaak" with entities [LocalPlayer, LocalPlayer], work=314*
466: 0x0ED1 [0x45] LOAD_SCHEDULED_TASK: Load scheduler "aaal" with entities [LocalPlayer, LocalPlayer], work=[314*, 0*]
467: 0x0EE2 [0x5D] SET_MUSIC_VOLUME(volume=0*, fade_time=120*)
468: 0x0EE7 [0x66] LOAD_EXT_SCHEDULER_MAIN: Load scheduler "tlk0" with entities [Fari-Wari (ID: 16982364/0x0103215C), Fari-Wari (ID: 16982364/0x0103215C)], work=49*
469: 0x0EF6 [0x2B] Fari-Wari (ID: 16982364/0x0103215C) [12163*]:
    → "Do moneylenders like to break kneecaps? I would be overjoyed to meet this detective. I should frame an autograph for your store to express my gratitude..."
470: 0x0EFD [0x23] WAIT_FOR_DIALOG_INTERACTION
471: 0x0EFE [0x66] LOAD_EXT_SCHEDULER_MAIN: Load scheduler "tlk1" with entities [Fari-Wari (ID: 16982364/0x0103215C), Fari-Wari (ID: 16982364/0x0103215C)], work=49*
472: 0x0F0D [0x2B] Ratihb (ID: 16982264/0x010320F8) [12164*]:
    → "Ah...it's really no trouble. After all, your fans are the reason my teahouse is doing so well."
473: 0x0F14 [0x23] WAIT_FOR_DIALOG_INTERACTION
474: 0x0F15 [0x52] END_LOAD_SCHEDULER: End scheduler "aaal" with entities [LocalPlayer, LocalPlayer], work=314*
475: 0x0F24 [0x45] LOAD_SCHEDULED_TASK: Load scheduler "aaam" with entities [LocalPlayer, LocalPlayer], work=[314*, 0*]
476: 0x0F35 [0x5C] MUSIC_CONTROL: Set Idle (Day) music to song 178*
477: 0x0F39 [0x5C] MUSIC_CONTROL: Set Idle (Night) music to song 178*
478: 0x0F3D [0x9A] WAIT_MUSIC_SERVER()
479: 0x0F3E [0x66] LOAD_EXT_SCHEDULER_MAIN: Load scheduler "tlk0" with entities [Ratihb (ID: 16982264/0x010320F8), Ratihb (ID: 16982264/0x010320F8)], work=0*
480: 0x0F4D [0x2B] Ratihb (ID: 16982264/0x010320F8) [12165*]:
    → "The detective is a Hume by the name of Eunheem."
481: 0x0F54 [0x23] WAIT_FOR_DIALOG_INTERACTION
482: 0x0F55 [0x2B] Ratihb (ID: 16982264/0x010320F8) [12166*]:
    → "Well, to be precise, he is no longer a detective. After the failed case, he enlisted in the Imperial Army and now serves as a guard on Balrahn Way."
483: 0x0F5C [0x23] WAIT_FOR_DIALOG_INTERACTION
484: 0x0F5D [0x66] LOAD_EXT_SCHEDULER_MAIN: Load scheduler "ten1" with entities [Ratihb (ID: 16982264/0x010320F8), Ratihb (ID: 16982264/0x010320F8)], work=0*
485: 0x0F6C [0x52] END_LOAD_SCHEDULER: End scheduler "aaam" with entities [LocalPlayer, LocalPlayer], work=314*
486: 0x0F7B [0x45] LOAD_SCHEDULED_TASK: Load scheduler "aaaj" with entities [LocalPlayer, LocalPlayer], work=[314*, 0*]
487: 0x0F8C [0x2B] Fari-Wari (ID: 16982364/0x0103215C) [12167*]:
    → "My eternal thanks. Once my suspense poem thriller has sold in the millions, I shall be delighted to compose a jingle for your store at a discounted rate!"
488: 0x0F93 [0x23] WAIT_FOR_DIALOG_INTERACTION
489: 0x0F94 [0x6E] Fari-Wari (ID: 16982364/0x0103215C) uses emote 13*
490: 0x0F9B [0x99] Wait for Fari-Wari (ID: 16982364/0x0103215C) animation to complete
491: 0x0FA0 [0x2B] Fari-Wari (ID: 16982364/0x0103215C) [12168*]:
    → "Everyone try the sutlac, so creamy and sweet.t Shararat Teahouse, where Fari-Wari comes to eat!t"
492: 0x0FA7 [0x23] WAIT_FOR_DIALOG_INTERACTION
493: 0x0FA8 [0x52] END_LOAD_SCHEDULER: End scheduler "aaaj" with entities [LocalPlayer, LocalPlayer], work=314*
494: 0x0FB7 [0x45] LOAD_SCHEDULED_TASK: Load scheduler "aaan" with entities [LocalPlayer, LocalPlayer], work=[314*, 0*]
495: 0x0FC8 [0x2B] Ratihb (ID: 16982264/0x010320F8) [12169*]:
    → "Ah! No no no, you've already done so much for my business! That really won't be necessary!"
496: 0x0FCF [0x23] WAIT_FOR_DIALOG_INTERACTION
497: 0x0FD0 [0x4A] Fari-Wari (ID: 16982364/0x0103215C) looks at LocalPlayer
498: 0x0FD9 [0x2B] Fari-Wari (ID: 16982364/0x0103215C) [12170*]:
    → "You heard the man, <Player>. It's time for us to pick up the trail! And by "us," I mean "you," of course!"
499: 0x0FE0 [0x23] WAIT_FOR_DIALOG_INTERACTION
500: 0x0FE1 [0x6F] WAIT_FRAME_DELAY: Yield until WaitTime reaches zero
501: 0x0FE2 [0x70] WAIT_ENTITY_RENDER_FLAG: Wait while EventEntity->Render.Flags3 bit 2 is set (cancel turn if not)
502: 0x0FE3 [0x6E] Fari-Wari (ID: 16982364/0x0103215C) uses emote 0*
503: 0x0FEA [0x99] Wait for Fari-Wari (ID: 16982364/0x0103215C) animation to complete
504: 0x0FEF [0x1C] WAIT(60* ticks)
505: 0x0FF2 [0x99] Wait for Fari-Wari (ID: 16982364/0x0103215C) animation to complete
506: 0x0FF7 [0x45] LOAD_SCHEDULED_TASK: Load scheduler "fdo1" with entities [EventEntity, EventEntity], work=[200*, 0*]
507: 0x1008 [0x55] WAIT_LOAD_SCHEDULER: Wait for scheduler "fdo1" with entities [EventEntity, EventEntity], work=200*
508: 0x1017 [0x52] END_LOAD_SCHEDULER: End scheduler "aaan" with entities [LocalPlayer, LocalPlayer], work=314*
509: 0x1026 [0x46] CAMERA_CONTROL: Restore default settings
510: 0x1028 [0x45] LOAD_SCHEDULED_TASK: Load scheduler "fdi2" with entities [LocalPlayer, LocalPlayer], work=[200*, 0*]
511: 0x1039 [0x21] END_EVENT
512: 0x103A [0x00] END_REQSTACK()
```

### Event 895

#### Metadata

| Field        | Value      |
|--------------|------------|
| Entrypoint   | 0x103B     |
| Data Size    | 2258 bytes |
| Instructions | 281        |

```
      00 01 02 03 04 05 06 07  08 09 0A 0B 0C 0D 0E 0F
      -- -- -- -- -- -- -- --  -- -- -- -- -- -- -- --
1030:                                   42 45 00 80 F8             BE...
1040: FF FF 7F F8 FF FF 7F 66  64 6F 31 01 80 55 00 80  .......fdo1..U..
1050: F8 FF FF 7F F8 FF FF 7F  66 64 6F 31 46 01 38 02  ........fdo1F.8.
1060: 80 94 01 F0 FF FF 7F 94  01 5C 21 03 01 94 01 AB  .........\!.....
1070: 21 03 01 94 01 5F 21 03  01 94 01 1A 21 03 01 22  !...._!.....!.."
1080: 01 92 01 61 20 03 01 92  01 5F 21 03 01 92 01 1A  ...a ...._!.....
1090: 21 03 01 92 01 C6 20 03  01 BA F0 FF FF 7F 89 80  !..... .........
10A0: 8A 80 01 80 8B 80 4A F0  FF FF 7F 61 20 03 01 4A  ......J....a ..J
10B0: 61 20 03 01 F0 FF FF 7F  80 F0 FF FF 7F 80 61 20  a ............a 
10C0: 03 01 1C 33 80 45 13 80  F0 FF FF 7F F0 FF FF 7F  ...3.E..........
10D0: 7A 7A 7A 7A 01 80 45 00  80 F0 FF FF 7F F0 FF FF  zzzz..E.........
10E0: 7F 66 64 69 31 01 80 1C  12 80 2B 61 20 03 01 8C  .fdi1.....+a ...
10F0: 80 23 52 13 80 F0 FF FF  7F F0 FF FF 7F 7A 7A 7A  .#R..........zzz
1100: 7A 45 13 80 F0 FF FF 7F  F0 FF FF 7F 7A 30 30 30  zE..........z000
1110: 01 80 2B 61 20 03 01 8D  80 23 52 13 80 F0 FF FF  ..+a ....#R.....
1120: 7F F0 FF FF 7F 7A 30 30  30 45 13 80 F0 FF FF 7F  .....z000E......
1130: F0 FF FF 7F 7A 30 30 31  01 80 66 01 80 61 20 03  ....z001..f..a .
1140: 01 61 20 03 01 74 68 6B  31 2B 61 20 03 01 8E 80  .a ..thk1+a ....
1150: 23 2B 61 20 03 01 8F 80  23 52 13 80 F0 FF FF 7F  #+a ....#R......
1160: F0 FF FF 7F 7A 30 30 31  45 13 80 F0 FF FF 7F F0  ....z001E.......
1170: FF FF 7F 7A 30 30 32 01  80 1C 33 80 2B 61 20 03  ...z002...3.+a .
1180: 01 90 80 23 2B 61 20 03  01 91 80 23 66 01 80 61  ...#+a ....#f..a
1190: 20 03 01 61 20 03 01 74  68 6B 32 1C 33 80 52 13   ..a ..thk2.3.R.
11A0: 80 F0 FF FF 7F F0 FF FF  7F 7A 30 30 32 45 13 80  .........z002E..
11B0: F0 FF FF 7F F0 FF FF 7F  7A 30 30 33 01 80 1C 17  ........z003....
11C0: 80 2B 61 20 03 01 92 80  23 66 01 80 61 20 03 01  .+a ....#f..a ..
11D0: 61 20 03 01 74 6C 6B 30  2B 61 20 03 01 93 80 23  a ..tlk0+a ....#
11E0: 2B 61 20 03 01 94 80 23  1C 12 80 5D 01 80 51 80  +a ....#...]..Q.
11F0: 45 00 80 F8 FF FF 7F F8  FF FF 7F 66 64 6F 31 01  E..........fdo1.
1200: 80 55 00 80 F8 FF FF 7F  F8 FF FF 7F 66 64 6F 31  .U..........fdo1
1210: 52 13 80 F0 FF FF 7F F0  FF FF 7F 7A 30 30 33 4E  R..........z003N
1220: 01 1E 20 03 01 77 15 80  65 80 4E 00 AB 21 03 01  .. ..w..e.N..!..
1230: 4E 00 5F 21 03 01 BA 5F  21 03 01 95 80 96 80 97  N._!..._!.......
1240: 80 98 80 BA 61 20 03 01  99 80 9A 80 97 80 9B 80  ....a ..........
1250: BA AB 21 03 01 9C 80 9D  80 97 80 9E 80 29 10 61  ..!..........).a
1260: 20 03 01 02 80 5F 21 03  01 80 AB 21 03 01 2C AB   ...._!....!..,.
1270: 21 03 01 AB 21 03 01 64  65 61 64 4A 61 20 03 01  !...!..deadJa ..
1280: AB 21 03 01 4A 5F 21 03  01 AB 21 03 01 66 69 80  .!..J_!...!..fi.
1290: 61 20 03 01 61 20 03 01  73 67 6D 30 1C 39 80 45  a ..a ..sgm0.9.E
12A0: 13 80 F0 FF FF 7F F0 FF  FF 7F 79 79 79 79 01 80  ..........yyyy..
12B0: 45 00 80 F0 FF FF 7F F0  FF FF 7F 66 64 69 31 01  E..........fdi1.
12C0: 80 5C 00 9F 80 5C 01 9F  80 9A 1C 39 80 2B 5F 21  .\...\.....9.+_!
12D0: 03 01 A0 80 23 52 13 80  F0 FF FF 7F F0 FF FF 7F  ....#R..........
12E0: 79 79 79 79 45 13 80 F0  FF FF 7F F0 FF FF 7F 79  yyyyE..........y
12F0: 30 30 31 01 80 1C 17 80  2B 61 20 03 01 A1 80 23  001.....+a ....#
1300: 2B 5F 21 03 01 A2 80 23  1C 27 80 52 13 80 F0 FF  +_!....#.'.R....
1310: FF 7F F0 FF FF 7F 79 30  30 31 45 13 80 F0 FF FF  ......y001E.....
1320: 7F F0 FF FF 7F 79 30 30  30 01 80 1C 17 80 2B 61  .....y000.....+a
1330: 20 03 01 A3 80 23 6E 5F  21 03 01 3D 80 99 5F 21   ....#n_!..=.._!
1340: 03 01 2B 5F 21 03 01 A4  80 23 52 13 80 F0 FF FF  ..+_!....#R.....
1350: 7F F0 FF FF 7F 79 30 30  30 45 13 80 F0 FF FF 7F  .....y000E......
1360: F0 FF FF 7F 79 79 30 30  01 80 1C 33 80 2B 61 20  ....yy00...3.+a 
1370: 03 01 A5 80 23 52 13 80  F0 FF FF 7F F0 FF FF 7F  ....#R..........
1380: 79 79 30 30 45 13 80 F0  FF FF 7F F0 FF FF 7F 79  yy00E..........y
1390: 30 30 33 01 80 1C 17 80  2B 5F 21 03 01 A6 80 23  003.....+_!....#
13A0: 2B 5F 21 03 01 A7 80 23  52 13 80 F0 FF FF 7F F0  +_!....#R.......
13B0: FF FF 7F 79 30 30 33 4E  00 1A 21 03 01 4E 00 C6  ...y003N..!..N..
13C0: 20 03 01 BA 1A 21 03 01  A8 80 A9 80 97 80 AA 80   ....!..........
13D0: 80 1A 21 03 01 45 13 80  F0 FF FF 7F F0 FF FF 7F  ..!..E..........
13E0: 79 30 30 34 01 80 1C 17  80 2B 61 20 03 01 AB 80  y004.....+a ....
13F0: 23 2B 5F 21 03 01 AC 80  23 52 13 80 F0 FF FF 7F  #+_!....#R......
1400: F0 FF FF 7F 79 30 30 34  27 10 1A 21 03 01 29 27  ....y004'..!..)'
1410: 10 C6 20 03 01 2B 45 13  80 F0 FF FF 7F F0 FF FF  .. ..+E.........
1420: 7F 79 30 30 35 01 80 79  00 1A 21 03 01 5F 21 03  .y005..y..!.._!.
1430: 01 1C AD 80 2B 1A 21 03  01 AE 80 23 2A 10 1A 21  ....+.!....#*..!
1440: 03 01 4A 5F 21 03 01 1A  21 03 01 2B 5F 21 03 01  ..J_!...!..+_!..
1450: AF 80 23 52 13 80 F0 FF  FF 7F F0 FF FF 7F 79 30  ..#R..........y0
1460: 30 35 45 13 80 F0 FF FF  7F F0 FF FF 7F 79 30 30  05E..........y00
1470: 36 01 80 79 00 1A 21 03  01 AB 21 03 01 2B 1A 21  6..y..!...!..+.!
1480: 03 01 B0 80 23 2B 1A 21  03 01 B1 80 23 2B 1A 21  ....#+.!....#+.!
1490: 03 01 B2 80 23 52 13 80  F0 FF FF 7F F0 FF FF 7F  ....#R..........
14A0: 79 30 30 36 45 13 80 F0  FF FF 7F F0 FF FF 7F 79  y006E..........y
14B0: 30 30 37 01 80 2B 61 20  03 01 B3 80 23 79 00 1A  007..+a ....#y..
14C0: 21 03 01 5F 21 03 01 2B  1A 21 03 01 B4 80 23 2B  !.._!..+.!....#+
14D0: 5F 21 03 01 B5 80 23 52  13 80 F0 FF FF 7F F0 FF  _!....#R........
14E0: FF 7F 79 30 30 37 45 13  80 F0 FF FF 7F F0 FF FF  ..y007E.........
14F0: 7F 79 30 30 38 01 80 2B  1A 21 03 01 B6 80 23 4A  .y008..+.!....#J
1500: 5F 21 03 01 AB 21 03 01  2B 1A 21 03 01 B7 80 23  _!...!..+.!....#
1510: 52 13 80 F0 FF FF 7F F0  FF FF 7F 79 30 30 38 45  R..........y008E
1520: 13 80 F0 FF FF 7F F0 FF  FF 7F 79 79 79 30 01 80  ..........yyy0..
1530: 1C 33 80 2B 1A 21 03 01  B8 80 23 52 13 80 F0 FF  .3.+.!....#R....
1540: FF 7F F0 FF FF 7F 79 79  79 30 45 13 80 F0 FF FF  ......yyy0E.....
1550: 7F F0 FF FF 7F 79 30 30  39 01 80 4A 5F 21 03 01  .....y009..J_!..
1560: 1A 21 03 01 1C 33 80 2B  5F 21 03 01 B9 80 23 52  .!...3.+_!....#R
1570: 13 80 F0 FF FF 7F F0 FF  FF 7F 79 30 30 39 45 13  ..........y009E.
1580: 80 F0 FF FF 7F F0 FF FF  7F 79 30 31 30 01 80 1C  .........y010...
1590: 17 80 66 BA 80 1A 21 03  01 1A 21 03 01 74 77 62  ..f...!...!..twb
15A0: 30 2B 1A 21 03 01 BB 80  23 2B 1A 21 03 01 BC 80  0+.!....#+.!....
15B0: 23 66 BA 80 1A 21 03 01  1A 21 03 01 74 77 62 31  #f...!...!..twb1
15C0: 52 13 80 F0 FF FF 7F F0  FF FF 7F 79 30 31 30 45  R..........y010E
15D0: 13 80 F0 FF FF 7F F0 FF  FF 7F 79 30 31 31 01 80  ..........y011..
15E0: 2B 5F 21 03 01 BD 80 23  4A 5F 21 03 01 1A 21 03  +_!....#J_!...!.
15F0: 01 2B 5F 21 03 01 BE 80  23 4A 1A 21 03 01 5F 21  .+_!....#J.!.._!
1600: 03 01 6E 1A 21 03 01 BF  80 99 1A 21 03 01 2B 1A  ..n.!......!..+.
1610: 21 03 01 C0 80 23 52 13  80 F0 FF FF 7F F0 FF FF  !....#R.........
1620: 7F 79 30 31 31 45 13 80  F0 FF FF 7F F0 FF FF 7F  .y011E..........
1630: 79 30 31 32 01 80 66 69  80 61 20 03 01 61 20 03  y012..fi.a ..a .
1640: 01 74 61 74 30 53 61 20  03 01 61 20 03 01 74 61  .tat0Sa ..a ..ta
1650: 74 30 27 10 5F 21 03 01  09 1C 17 80 27 10 61 20  t0'._!......'.a 
1660: 03 01 04 1C 51 80 5D 01  80 51 80 45 00 80 F8 FF  ....Q.]..Q.E....
1670: FF 7F F8 FF FF 7F 66 64  6F 31 01 80 55 00 80 F8  ......fdo1..U...
1680: FF FF 7F F8 FF FF 7F 66  64 6F 31 52 13 80 F0 FF  .......fdo1R....
1690: FF 7F F0 FF FF 7F 79 30  31 32 45 C1 80 F0 FF FF  ......y012E.....
16A0: 7F F0 FF FF 7F 6B 69 6C  6C 01 80 78 4E 00 1E 20  .....kill..xN.. 
16B0: 03 01 4E 01 5F 21 03 01  4E 01 1A 21 03 01 4E 01  ..N._!..N..!..N.
16C0: AB 21 03 01 29 10 61 20  03 01 03 BA F0 FF FF 7F  .!..).a ........
16D0: 89 80 8A 80 01 80 8B 80  BA 61 20 03 01 C2 80 C3  .........a .....
16E0: 80 01 80 C4 80 4A 61 20  03 01 F0 FF FF 7F 1C 39  .....Ja .......9
16F0: 80 45 13 80 F0 FF FF 7F  F0 FF FF 7F 7A 7A 7A 7A  .E..........zzzz
1700: 01 80 45 00 80 F0 FF FF  7F F0 FF FF 7F 66 64 69  ..E..........fdi
1710: 31 01 80 5C 00 52 80 5C  01 52 80 9A 1C 12 80 66  1..\.R.\.R.....f
1720: 01 80 61 20 03 01 61 20  03 01 74 6C 6B 31 2B 61  ..a ..a ..tlk1+a
1730: 20 03 01 C5 80 23 2B 61  20 03 01 C6 80 23 66 01   ....#+a ....#f.
1740: 80 61 20 03 01 61 20 03  01 74 65 6E 31 52 13 80  .a ..a ..ten1R..
1750: F0 FF FF 7F F0 FF FF 7F  7A 7A 7A 7A 45 13 80 F0  ........zzzzE...
1760: FF FF 7F F0 FF FF 7F 7A  30 30 30 01 80 2B 61 20  .......z000..+a 
1770: 03 01 C7 80 23 66 01 80  61 20 03 01 61 20 03 01  ....#f..a ..a ..
1780: 64 69 73 30 2B 61 20 03  01 C8 80 23 52 13 80 F0  dis0+a ....#R...
1790: FF FF 7F F0 FF FF 7F 7A  30 30 30 45 13 80 F0 FF  .......z000E....
17A0: FF 7F F0 FF FF 7F 7A 30  30 34 01 80 2B 61 20 03  ......z004..+a .
17B0: 01 C9 80 23 66 01 80 61  20 03 01 61 20 03 01 74  ...#f..a ..a ..t
17C0: 6C 6B 31 2B 61 20 03 01  CA 80 23 2B 61 20 03 01  lk1+a ....#+a ..
17D0: CB 80 23 52 13 80 F0 FF  FF 7F F0 FF FF 7F 7A 30  ..#R..........z0
17E0: 30 34 45 13 80 F0 FF FF  7F F0 FF FF 7F 7A 30 30  04E..........z00
17F0: 35 01 80 2B 61 20 03 01  CC 80 23 66 01 80 61 20  5..+a ....#f..a 
1800: 03 01 61 20 03 01 74 65  6E 31 2B 61 20 03 01 CD  ..a ..ten1+a ...
1810: 80 23 52 13 80 F0 FF FF  7F F0 FF FF 7F 7A 30 30  .#R..........z00
1820: 35 45 13 80 F0 FF FF 7F  F0 FF FF 7F 7A 30 30 30  5E..........z000
1830: 01 80 66 CE 80 61 20 03  01 61 20 03 01 74 68 62  ..f..a ..a ..thb
1840: 31 2B 61 20 03 01 CF 80  23 1C 33 80 66 CE 80 61  1+a ....#.3.f..a
1850: 20 03 01 61 20 03 01 74  68 62 32 2B 61 20 03 01   ..a ..thb2+a ..
1860: D0 80 23 52 13 80 F0 FF  FF 7F F0 FF FF 7F 7A 30  ..#R..........z0
1870: 30 30 45 13 80 F0 FF FF  7F F0 FF FF 7F 7A 30 30  00E..........z00
1880: 36 01 80 2B 61 20 03 01  D1 80 23 2B 61 20 03 01  6..+a ....#+a ..
1890: D2 80 23 52 13 80 F0 FF  FF 7F F0 FF FF 7F 7A 30  ..#R..........z0
18A0: 30 36 45 13 80 F0 FF FF  7F F0 FF FF 7F 7A 30 30  06E..........z00
18B0: 37 01 80 1C 17 80 2B 61  20 03 01 D3 80 23 2B 61  7.....+a ....#+a
18C0: 20 03 01 D4 80 23 1C 12  80 45 00 80 F8 FF FF 7F   ....#...E......
18D0: F8 FF FF 7F 66 64 6F 31  01 80 55 00 80 F8 FF FF  ....fdo1..U.....
18E0: 7F F8 FF FF 7F 66 64 6F  31 52 13 80 F0 FF FF 7F  .....fdo1R......
18F0: F0 FF FF 7F 7A 30 30 37  46 00 45 00 80 F0 FF FF  ....z007F.E.....
1900: 7F F0 FF FF 7F 66 64 69  32 01 80 21 00           .....fdi2..!.   
```

#### Opcodes

```
  0: 0x103B [0x42] SET_CLI_EVENT_CANCEL_DATA()
  1: 0x103C [0x45] LOAD_SCHEDULED_TASK: Load scheduler "fdo1" with entities [EventEntity, EventEntity], work=[200*, 0*]
  2: 0x104D [0x55] WAIT_LOAD_SCHEDULER: Wait for scheduler "fdo1" with entities [EventEntity, EventEntity], work=200*
  3: 0x105C [0x46] CAMERA_CONTROL: Disable user control
  4: 0x105E [0x38] SET_CLIENT_EVENT_MODE(mode=19*)
  5: 0x1061 [0x94] LocalPlayer->Render.Flags3 ^= 0x01
  6: 0x1067 [0x94] Fari-Wari (ID: 16982364/0x0103215C)->Render.Flags3 ^= 0x01
  7: 0x106D [0x94] Unnamed NPC (ID: 16982443/0x010321AB)->Render.Flags3 ^= 0x01
  8: 0x1073 [0x94] Rughadjeen (ID: 16982367/0x0103215F)->Render.Flags3 ^= 0x01
  9: 0x1079 [0x94] Raubahn (ID: 16982298/0x0103211A)->Render.Flags3 ^= 0x01
 10: 0x107F [0x22] ENTITY_HIDE_FLAG(enabled=0x01)
 11: 0x1081 [0x92] Eunheem (ID: 16982113/0x01032061)->Render.Flags3 ^= 0x01
 12: 0x1087 [0x92] Rughadjeen (ID: 16982367/0x0103215F)->Render.Flags3 ^= 0x01
