# 16982221 - Raillefal

## Common Data

| Field            | Value                          |
|------------------|--------------------------------|
| Zone             | Aht Urhgan Whitegate2 (ID: 50) |
| Block Size       | 1736 bytes                     |
| Total Events     | 61                             |
| References Count | 121                            |

## List of Events

| Event ID                   | Entrypoint   |   Size |   Instructions |
|----------------------------|--------------|--------|----------------|
| [65535](#event-65535)      | 0x0000       |      1 |              1 |
| [65535.1](#event-655351)   | 0x0001       |      1 |              1 |
| [65535.2](#event-655352)   | 0x0002       |     18 |              4 |
| [65535.3](#event-655353)   | 0x0014       |     10 |              2 |
| [65535.4](#event-655354)   | 0x001E       |      9 |              3 |
| [65535.5](#event-655355)   | 0x0027       |      9 |              3 |
| [65535.6](#event-655356)   | 0x0030       |     10 |              2 |
| [65535.7](#event-655357)   | 0x003A       |     10 |              2 |
| [65535.8](#event-655358)   | 0x0044       |      1 |              1 |
| [65535.9](#event-655359)   | 0x0045       |     10 |              2 |
| [3020](#event-3020)        | 0x004F       |      1 |              1 |
| [3022](#event-3022)        | 0x0050       |      1 |              1 |
| [3024](#event-3024)        | 0x0051       |      1 |              1 |
| [3026](#event-3026)        | 0x0052       |      1 |              1 |
| [3027](#event-3027)        | 0x0053       |      1 |              1 |
| [3030](#event-3030)        | 0x0054       |      1 |              1 |
| [3031](#event-3031)        | 0x0055       |      1 |              1 |
| [3032](#event-3032)        | 0x0056       |      1 |              1 |
| [3033](#event-3033)        | 0x0057       |      1 |              1 |
| [3034](#event-3034)        | 0x0058       |      1 |              1 |
| [65535.10](#event-6553510) | 0x0059       |     10 |              2 |
| [65535.11](#event-6553511) | 0x0063       |     41 |              9 |
| [65535.12](#event-6553512) | 0x008C       |     25 |              7 |
| [65535.13](#event-6553513) | 0x00A5       |     18 |              6 |
| [65535.14](#event-6553514) | 0x00B7       |     34 |              4 |
| [65535.15](#event-6553515) | 0x00D9       |     10 |              2 |
| [65535.16](#event-6553516) | 0x00E3       |     25 |              6 |
| [65535.17](#event-6553517) | 0x00FC       |     42 |             10 |
| [65535.18](#event-6553518) | 0x0126       |     42 |             10 |
| [65535.19](#event-6553519) | 0x0150       |     10 |              2 |
| [65535.20](#event-6553520) | 0x015A       |     25 |              6 |
| [65535.21](#event-6553521) | 0x0173       |     25 |              6 |
| [65535.22](#event-6553522) | 0x018C       |     24 |              6 |
| [65535.23](#event-6553523) | 0x01A4       |     14 |              4 |
| [65535.24](#event-6553524) | 0x01B2       |     34 |              8 |
| [65535.25](#event-6553525) | 0x01D4       |     27 |              5 |
| [65535.26](#event-6553526) | 0x01EF       |     15 |              5 |
| [65535.27](#event-6553527) | 0x01FE       |     91 |             17 |
| [65535.28](#event-6553528) | 0x0259       |     19 |              3 |
| [65535.29](#event-6553529) | 0x026C       |     29 |              3 |
| [65535.30](#event-6553530) | 0x0289       |     19 |              3 |
| [65535.31](#event-6553531) | 0x029C       |     29 |              3 |
| [65535.32](#event-6553532) | 0x02B9       |     19 |              3 |
| [65535.33](#event-6553533) | 0x02CC       |     29 |              3 |
| [65535.34](#event-6553534) | 0x02E9       |     29 |              3 |
| [65535.35](#event-6553535) | 0x0306       |     12 |              3 |
| [65535.36](#event-6553536) | 0x0312       |     12 |              3 |
| [65535.37](#event-6553537) | 0x031E       |     25 |              6 |
| [65535.38](#event-6553538) | 0x0337       |     12 |              4 |
| [3035](#event-3035)        | 0x0343       |      1 |              1 |
| [3037](#event-3037)        | 0x0344       |      1 |              1 |
| [65535.39](#event-6553539) | 0x0345       |     12 |              3 |
| [65535.40](#event-6553540) | 0x0351       |     12 |              3 |
| [65535.41](#event-6553541) | 0x035D       |     12 |              3 |
| [65535.42](#event-6553542) | 0x0369       |     52 |             12 |
| [65535.43](#event-6553543) | 0x039D       |     10 |              2 |
| [65535.44](#event-6553544) | 0x03A7       |     15 |              5 |
| [65535.45](#event-6553545) | 0x03B6       |     15 |              5 |
| [65535.46](#event-6553546) | 0x03C5       |     15 |              5 |
| [65535.47](#event-6553547) | 0x03D4       |     10 |              2 |
| [65535.48](#event-6553548) | 0x03DE       |      1 |              1 |

## DAT References (imed_data)

|   Index | Hex Value   |   Dec Value |
|---------|-------------|-------------|
|       0 | 0x0000      |           0 |
|       1 | 0x0001      |           1 |
|       2 | 0x0080      |         128 |
|       3 | 0x1361D     |       79389 |
|       4 | 0xBDBF      |       48575 |
|       5 | 0x01E0      |         480 |
|       6 | 0x01C8      |         456 |
|       7 | 0x5D95      |       23957 |
|       8 | 0xFFFF0E5A  |  4294905434 |
|       9 | 0xFFFFE890  |  4294961296 |
|      10 | 0x0C09      |        3081 |
|      11 | 0x000D      |          13 |
|      12 | 0x5DB3      |       23987 |
|      13 | 0xFFFF18F2  |  4294908146 |
|      14 | 0xFFFFE891  |  4294961297 |
|      15 | 0x5DC2      |       24002 |
|      16 | 0xFFFF1E6A  |  4294909546 |
|      17 | 0x7DBF      |       32191 |
|      18 | 0xFFFF4707  |  4294919943 |
|      19 | 0xFFFFE3DD  |  4294960093 |
|      20 | 0x08D7      |        2263 |
|      21 | 0x7158      |       29016 |
|      22 | 0xFFFF4B01  |  4294920961 |
|      23 | 0xFFFFE184  |  4294959492 |
|      24 | 0x65A3      |       26019 |
|      25 | 0xFFFF4C7B  |  4294921339 |
|      26 | 0x002D      |          45 |
|      27 | 0x000B      |          11 |
|      28 | 0x63D0      |       25552 |
|      29 | 0xFFFF4CB9  |  4294921401 |
|      30 | 0x0073      |         115 |
|      31 | 0x0014      |          20 |
|      32 | 0x6E2F      |       28207 |
|      33 | 0xFFFF4885  |  4294920325 |
|      34 | 0x0C60      |        3168 |
|      35 | 0x000F      |          15 |
|      36 | 0x672A      |       26410 |
|      37 | 0xFFFF4AF9  |  4294920953 |
|      38 | 0x807C      |       32892 |
|      39 | 0xFFFF4430  |  4294919216 |
|      40 | 0xFFFFE3E1  |  4294960097 |
|      41 | 0x8640      |       34368 |
|      42 | 0xFFFF3CA3  |  4294917283 |
|      43 | 0xFFFFE50F  |  4294960399 |
|      44 | 0x83A1      |       33697 |
|      45 | 0xFFFF3051  |  4294914129 |
|      46 | 0xFFFFE637  |  4294960695 |
|      47 | 0xFFFEFCAD  |  4294900909 |
|      48 | 0xFFFE8B74  |  4294871924 |
|      49 | 0x0480      |        1152 |
|      50 | 0xFFFEF90C  |  4294899980 |
|      51 | 0xFFFE85EF  |  4294870511 |
|      52 | 0x0473      |        1139 |
|      53 | 0xFFFEFB33  |  4294900531 |
|      54 | 0xFFFE6E92  |  4294864530 |
|      55 | 0xFFFEFC9B  |  4294900891 |
|      56 | 0xFFFE87F3  |  4294871027 |
|      57 | 0xFFFFE882  |  4294961282 |
|      58 | 0x0B96      |        2966 |
|      59 | 0xFFFEFAAD  |  4294900397 |
|      60 | 0xFFFE910F  |  4294873359 |
|      61 | 0xFFFEFEDB  |  4294901467 |
|      62 | 0xFFFEB0D4  |  4294881492 |
|      63 | 0x0625      |        1573 |
|      64 | 0xFFFEF07E  |  4294897790 |
|      65 | 0xFFFEAD8E  |  4294880654 |
|      66 | 0xFFFEE9C4  |  4294896068 |
|      67 | 0xFFFEA808  |  4294879240 |
|      68 | 0xFFFEE306  |  4294894342 |
|      69 | 0xFFFEA4A7  |  4294878375 |
|      70 | 0xFFFEC660  |  4294887008 |
|      71 | 0xFFFEA8A3  |  4294879395 |
|      72 | 0xFFFEABB0  |  4294880176 |
|      73 | 0xFFFECC2E  |  4294888494 |
|      74 | 0x147FA     |       83962 |
|      75 | 0xB9FE      |       47614 |
|      76 | 0x0A8F      |        2703 |
|      77 | 0xFFFFFC18  |  4294966296 |
|      78 | 0x14F46     |       85830 |
|      79 | 0xA73B      |       42811 |
|      80 | 0x0181      |         385 |
|      81 | 0x14C68     |       85096 |
|      82 | 0x8C92      |       35986 |
|      83 | 0x00B4      |         180 |
|      84 | 0x001E      |          30 |
|      85 | 0x0074      |         116 |
|      86 | 0x0128      |         296 |
|      87 | 0x10550     |       66896 |
|      88 | 0xFFFE14CB  |  4294841547 |
|      89 | 0xFFFFE69C  |  4294960796 |
|      90 | 0x0007      |           7 |
|      91 | 0x115E7     |       71143 |
|      92 | 0xFFFE103B  |  4294840379 |
|      93 | 0x121D2     |       74194 |
|      94 | 0xFFFE128C  |  4294840972 |
|      95 | 0x12990     |       76176 |
|      96 | 0xFFFE18C7  |  4294842567 |
|      97 | 0xFFFFE5D4  |  4294960596 |
|      98 | 0x11F1A     |       73498 |
|      99 | 0xFFFE0CD7  |  4294839511 |
|     100 | 0x0E59      |        3673 |
|     101 | 0x128C3     |       75971 |
|     102 | 0xFFFE12F2  |  4294841074 |
|     103 | 0x12D4A     |       77130 |
|     104 | 0xFFFE1B6F  |  4294843247 |
|     105 | 0x12EEA     |       77546 |
|     106 | 0xFFFE261E  |  4294845982 |
|     107 | 0x129EF     |       76271 |
|     108 | 0xFFFE308C  |  4294848652 |
|     109 | 0xFFFFEE6E  |  4294962798 |
|     110 | 0xFFFED55A  |  4294890842 |
|     111 | 0x0315      |         789 |
|     112 | 0xFFFFF5B4  |  4294964660 |
|     113 | 0xFFFEB7A0  |  4294883232 |
|     114 | 0x12497     |       74903 |
|     115 | 0xFFFE0DFD  |  4294839805 |
|     116 | 0x12A55     |       76373 |
|     117 | 0xFFFE12F8  |  4294841080 |
|     118 | 0x1259B     |       75163 |
|     119 | 0xFFFE0C7B  |  4294839419 |
|     120 | 0x0540      |        1344 |

## Events

### Event 65535

#### Metadata

| Field        | Value   |
|--------------|---------|
| Entrypoint   | 0x0000  |
| Data Size    | 1 bytes |
| Instructions | 1       |

```
      00 01 02 03 04 05 06 07  08 09 0A 0B 0C 0D 0E 0F
      -- -- -- -- -- -- -- --  -- -- -- -- -- -- -- --
0000: 00                                                .               
```

#### Opcodes

```
  0: 0x0000 [0x00] END_REQSTACK()
```

### Event 65535.1

#### Metadata

| Field        | Value   |
|--------------|---------|
| Entrypoint   | 0x0001  |
| Data Size    | 1 bytes |
| Instructions | 1       |

```
      00 01 02 03 04 05 06 07  08 09 0A 0B 0C 0D 0E 0F
      -- -- -- -- -- -- -- --  -- -- -- -- -- -- -- --
0000:    00                                              .              
```

#### Opcodes

```
  0: 0x0001 [0x00] END_REQSTACK()
```

### Event 65535.2

#### Metadata

| Field        | Value    |
|--------------|----------|
| Entrypoint   | 0x0002   |
| Data Size    | 18 bytes |
| Instructions | 4        |

```
      00 01 02 03 04 05 06 07  08 09 0A 0B 0C 0D 0E 0F
      -- -- -- -- -- -- -- --  -- -- -- -- -- -- -- --
0000:       22 00 2F 00 F8 FF  FF 7F 6C F8 FF FF 7F 00    "./.....l.....
0010: 80 01 80 00                                       ....            
```

#### Opcodes

```
  0: 0x0002 [0x22] ENTITY_HIDE_FLAG(enabled=0x00)
  1: 0x0004 [0x2F] EventEntity->Render.Flags0 &= ~0x80000 // Bit 19
  2: 0x000A [0x6C] FADE_ENTITY_COLOR(entity_id=EventEntity, end_alpha=0*, fade_time=1*)
  3: 0x0013 [0x00] END_REQSTACK()
```

### Event 65535.3

#### Metadata

| Field        | Value    |
|--------------|----------|
| Entrypoint   | 0x0014   |
| Data Size    | 10 bytes |
| Instructions | 2        |

```
      00 01 02 03 04 05 06 07  08 09 0A 0B 0C 0D 0E 0F
      -- -- -- -- -- -- -- --  -- -- -- -- -- -- -- --
0010:             6C F8 FF FF  7F 02 80 01 80 00            l.........  
```

#### Opcodes

```
  0: 0x0014 [0x6C] FADE_ENTITY_COLOR(entity_id=EventEntity, end_alpha=128*, fade_time=1*)
  1: 0x001D [0x00] END_REQSTACK()
```

### Event 65535.4

#### Metadata

| Field        | Value   |
|--------------|---------|
| Entrypoint   | 0x001E  |
| Data Size    | 9 bytes |
| Instructions | 3       |

```
      00 01 02 03 04 05 06 07  08 09 0A 0B 0C 0D 0E 0F
      -- -- -- -- -- -- -- --  -- -- -- -- -- -- -- --
0010:                                            22 00                ".
0020: 2F 00 F8 FF FF 7F 00                              /......         
```

#### Opcodes

```
  0: 0x001E [0x22] ENTITY_HIDE_FLAG(enabled=0x00)
  1: 0x0020 [0x2F] EventEntity->Render.Flags0 &= ~0x80000 // Bit 19
  2: 0x0026 [0x00] END_REQSTACK()
```

### Event 65535.5

#### Metadata

| Field        | Value   |
|--------------|---------|
| Entrypoint   | 0x0027  |
| Data Size    | 9 bytes |
| Instructions | 3       |

```
      00 01 02 03 04 05 06 07  08 09 0A 0B 0C 0D 0E 0F
      -- -- -- -- -- -- -- --  -- -- -- -- -- -- -- --
0020:                      22  01 2F 01 F8 FF FF 7F 00         "./......
```

#### Opcodes

```
  0: 0x0027 [0x22] ENTITY_HIDE_FLAG(enabled=0x01)
  1: 0x0029 [0x2F] EventEntity->Render.Flags0 |= 0x80000 // Bit 19
  2: 0x002F [0x00] END_REQSTACK()
```

### Event 65535.6

#### Metadata

| Field        | Value    |
|--------------|----------|
| Entrypoint   | 0x0030   |
| Data Size    | 10 bytes |
| Instructions | 2        |

```
      00 01 02 03 04 05 06 07  08 09 0A 0B 0C 0D 0E 0F
      -- -- -- -- -- -- -- --  -- -- -- -- -- -- -- --
0030: 6C F8 FF FF 7F 00 80 01  80 00                    l.........      
```

#### Opcodes

```
  0: 0x0030 [0x6C] FADE_ENTITY_COLOR(entity_id=EventEntity, end_alpha=0*, fade_time=1*)
  1: 0x0039 [0x00] END_REQSTACK()
```

### Event 65535.7

#### Metadata

| Field        | Value    |
|--------------|----------|
| Entrypoint   | 0x003A   |
| Data Size    | 10 bytes |
| Instructions | 2        |

```
      00 01 02 03 04 05 06 07  08 09 0A 0B 0C 0D 0E 0F
      -- -- -- -- -- -- -- --  -- -- -- -- -- -- -- --
0030:                                6C F8 FF FF 7F 02            l.....
0040: 80 01 80 00                                       ....            
```

#### Opcodes

```
  0: 0x003A [0x6C] FADE_ENTITY_COLOR(entity_id=EventEntity, end_alpha=128*, fade_time=1*)
  1: 0x0043 [0x00] END_REQSTACK()
```

### Event 65535.8

#### Metadata

| Field        | Value   |
|--------------|---------|
| Entrypoint   | 0x0044  |
| Data Size    | 1 bytes |
| Instructions | 1       |

```
      00 01 02 03 04 05 06 07  08 09 0A 0B 0C 0D 0E 0F
      -- -- -- -- -- -- -- --  -- -- -- -- -- -- -- --
0040:             00                                        .           
```

#### Opcodes

```
  0: 0x0044 [0x00] END_REQSTACK()
```

### Event 65535.9

#### Metadata

| Field        | Value    |
|--------------|----------|
| Entrypoint   | 0x0045   |
| Data Size    | 10 bytes |
| Instructions | 2        |

```
      00 01 02 03 04 05 06 07  08 09 0A 0B 0C 0D 0E 0F
      -- -- -- -- -- -- -- --  -- -- -- -- -- -- -- --
0040:                37 03 80  04 80 05 80 06 80 00          7......... 
```

#### Opcodes

```
  0: 0x0045 [0x37] UPDATE_EVENT_POSITION_AND_DIR: x=79.389*, z=48.575*, y=0.480*, direction=40.1°*
  1: 0x004E [0x00] END_REQSTACK()
```

### Event 3020

#### Metadata

| Field        | Value   |
|--------------|---------|
| Entrypoint   | 0x004F  |
| Data Size    | 1 bytes |
| Instructions | 1       |

```
      00 01 02 03 04 05 06 07  08 09 0A 0B 0C 0D 0E 0F
      -- -- -- -- -- -- -- --  -- -- -- -- -- -- -- --
0040:                                               00                 .
```

#### Opcodes

```
  0: 0x004F [0x00] END_REQSTACK()
```

### Event 3022

#### Metadata

| Field        | Value   |
|--------------|---------|
| Entrypoint   | 0x0050  |
| Data Size    | 1 bytes |
| Instructions | 1       |

```
      00 01 02 03 04 05 06 07  08 09 0A 0B 0C 0D 0E 0F
      -- -- -- -- -- -- -- --  -- -- -- -- -- -- -- --
0050: 00                                                .               
```

#### Opcodes

```
  0: 0x0050 [0x00] END_REQSTACK()
```

### Event 3024

#### Metadata

| Field        | Value   |
|--------------|---------|
| Entrypoint   | 0x0051  |
| Data Size    | 1 bytes |
| Instructions | 1       |

```
      00 01 02 03 04 05 06 07  08 09 0A 0B 0C 0D 0E 0F
      -- -- -- -- -- -- -- --  -- -- -- -- -- -- -- --
0050:    00                                              .              
```

#### Opcodes

```
  0: 0x0051 [0x00] END_REQSTACK()
```

### Event 3026

#### Metadata

| Field        | Value   |
|--------------|---------|
| Entrypoint   | 0x0052  |
| Data Size    | 1 bytes |
| Instructions | 1       |

```
      00 01 02 03 04 05 06 07  08 09 0A 0B 0C 0D 0E 0F
      -- -- -- -- -- -- -- --  -- -- -- -- -- -- -- --
0050:       00                                            .             
```

#### Opcodes

```
  0: 0x0052 [0x00] END_REQSTACK()
```

### Event 3027

#### Metadata

| Field        | Value   |
|--------------|---------|
| Entrypoint   | 0x0053  |
| Data Size    | 1 bytes |
| Instructions | 1       |

```
      00 01 02 03 04 05 06 07  08 09 0A 0B 0C 0D 0E 0F
      -- -- -- -- -- -- -- --  -- -- -- -- -- -- -- --
0050:          00                                          .            
```

#### Opcodes

```
  0: 0x0053 [0x00] END_REQSTACK()
```

### Event 3030

#### Metadata

| Field        | Value   |
|--------------|---------|
| Entrypoint   | 0x0054  |
| Data Size    | 1 bytes |
| Instructions | 1       |

```
      00 01 02 03 04 05 06 07  08 09 0A 0B 0C 0D 0E 0F
      -- -- -- -- -- -- -- --  -- -- -- -- -- -- -- --
0050:             00                                        .           
```

#### Opcodes

```
  0: 0x0054 [0x00] END_REQSTACK()
```

### Event 3031

#### Metadata

| Field        | Value   |
|--------------|---------|
| Entrypoint   | 0x0055  |
| Data Size    | 1 bytes |
| Instructions | 1       |

```
      00 01 02 03 04 05 06 07  08 09 0A 0B 0C 0D 0E 0F
      -- -- -- -- -- -- -- --  -- -- -- -- -- -- -- --
0050:                00                                      .          
```

#### Opcodes

```
  0: 0x0055 [0x00] END_REQSTACK()
```

### Event 3032

#### Metadata

| Field        | Value   |
|--------------|---------|
| Entrypoint   | 0x0056  |
| Data Size    | 1 bytes |
| Instructions | 1       |

```
      00 01 02 03 04 05 06 07  08 09 0A 0B 0C 0D 0E 0F
      -- -- -- -- -- -- -- --  -- -- -- -- -- -- -- --
0050:                   00                                    .         
```

#### Opcodes

```
  0: 0x0056 [0x00] END_REQSTACK()
```

### Event 3033

#### Metadata

| Field        | Value   |
|--------------|---------|
| Entrypoint   | 0x0057  |
| Data Size    | 1 bytes |
| Instructions | 1       |

```
      00 01 02 03 04 05 06 07  08 09 0A 0B 0C 0D 0E 0F
      -- -- -- -- -- -- -- --  -- -- -- -- -- -- -- --
0050:                      00                                  .        
```

#### Opcodes

```
  0: 0x0057 [0x00] END_REQSTACK()
```

### Event 3034

#### Metadata

| Field        | Value   |
|--------------|---------|
| Entrypoint   | 0x0058  |
| Data Size    | 1 bytes |
| Instructions | 1       |

```
      00 01 02 03 04 05 06 07  08 09 0A 0B 0C 0D 0E 0F
      -- -- -- -- -- -- -- --  -- -- -- -- -- -- -- --
0050:                          00                               .       
```

#### Opcodes

```
  0: 0x0058 [0x00] END_REQSTACK()
```

### Event 65535.10

#### Metadata

| Field        | Value    |
|--------------|----------|
| Entrypoint   | 0x0059   |
| Data Size    | 10 bytes |
| Instructions | 2        |

```
      00 01 02 03 04 05 06 07  08 09 0A 0B 0C 0D 0E 0F
      -- -- -- -- -- -- -- --  -- -- -- -- -- -- -- --
0050:                             37 07 80 08 80 09 80           7......
0060: 0A 80 00                                          ...             
```

#### Opcodes

```
  0: 0x0059 [0x37] UPDATE_EVENT_POSITION_AND_DIR: x=23.957*, z=-61.862*, y=-6.000*, direction=270.8°*
  1: 0x0062 [0x00] END_REQSTACK()
```

### Event 65535.11

#### Metadata

| Field        | Value    |
|--------------|----------|
| Entrypoint   | 0x0063   |
| Data Size    | 41 bytes |
| Instructions | 9        |

```
      00 01 02 03 04 05 06 07  08 09 0A 0B 0C 0D 0E 0F
      -- -- -- -- -- -- -- --  -- -- -- -- -- -- -- --
0060:          32 0B 80 1F 00  0C 80 0D 80 0E 80 1F 01     2............
0070: 27 10 8B 20 03 01 17 1F  00 0F 80 10 80 0E 80 1F  '.. ............
0080: 01 6F 37 11 80 12 80 13  80 14 80 00              .o7.........    
```

#### Opcodes

```
  0: 0x0063 [0x32] ExtData[1]->MainSpeed = 13* * 0.1
  1: 0x0066 [0x1F] MOVE_ENTITY: EventEntity moves to X=23.987*, Z=-59.150*, Y=-5.999*
  2: 0x006E [0x1F] MOVE_ENTITY: Update entity position (mode=1)
  3: 0x0070 [0x27] REQ_SET(priority=0x10, entity_id=Salaheem's Sentinels (ID: 16982155/0x0103208B), tag_num=0x17)
  4: 0x0077 [0x1F] MOVE_ENTITY: EventEntity moves to X=24.002*, Z=-57.750*, Y=-5.999*
  5: 0x007F [0x1F] MOVE_ENTITY: Update entity position (mode=1)
  6: 0x0081 [0x6F] WAIT_FRAME_DELAY: Yield until WaitTime reaches zero
  7: 0x0082 [0x37] UPDATE_EVENT_POSITION_AND_DIR: x=32.191*, z=-47.353*, y=-7.203*, direction=198.9°*
  8: 0x008B [0x00] END_REQSTACK()
```

### Event 65535.12

#### Metadata

| Field        | Value    |
|--------------|----------|
| Entrypoint   | 0x008C   |
| Data Size    | 25 bytes |
| Instructions | 7        |

```
      00 01 02 03 04 05 06 07  08 09 0A 0B 0C 0D 0E 0F
      -- -- -- -- -- -- -- --  -- -- -- -- -- -- -- --
0080:                                      32 0B 80 1F              2...
0090: 00 15 80 16 80 17 80 1F  01 1F 00 18 80 19 80 17  ................
00A0: 80 1F 01 6F 00                                    ...o.           
```

#### Opcodes

```
  0: 0x008C [0x32] ExtData[1]->MainSpeed = 13* * 0.1
  1: 0x008F [0x1F] MOVE_ENTITY: EventEntity moves to X=29.016*, Z=-46.335*, Y=-7.804*
  2: 0x0097 [0x1F] MOVE_ENTITY: Update entity position (mode=1)
  3: 0x0099 [0x1F] MOVE_ENTITY: EventEntity moves to X=26.019*, Z=-45.957*, Y=-7.804*
  4: 0x00A1 [0x1F] MOVE_ENTITY: Update entity position (mode=1)
  5: 0x00A3 [0x6F] WAIT_FRAME_DELAY: Yield until WaitTime reaches zero
  6: 0x00A4 [0x00] END_REQSTACK()
```

### Event 65535.13

#### Metadata

| Field        | Value    |
|--------------|----------|
| Entrypoint   | 0x00A5   |
| Data Size    | 18 bytes |
| Instructions | 6        |

```
      00 01 02 03 04 05 06 07  08 09 0A 0B 0C 0D 0E 0F
      -- -- -- -- -- -- -- --  -- -- -- -- -- -- -- --
00A0:                1C 1A 80  32 1B 80 1F 00 1C 80 1D       ...2.......
00B0: 80 17 80 1F 01 6F 00                              .....o.         
```

#### Opcodes

```
  0: 0x00A5 [0x1C] WAIT(45* ticks)
  1: 0x00A8 [0x32] ExtData[1]->MainSpeed = 11* * 0.1
  2: 0x00AB [0x1F] MOVE_ENTITY: EventEntity moves to X=25.552*, Z=-45.895*, Y=-7.804*
  3: 0x00B3 [0x1F] MOVE_ENTITY: Update entity position (mode=1)
  4: 0x00B5 [0x6F] WAIT_FRAME_DELAY: Yield until WaitTime reaches zero
  5: 0x00B6 [0x00] END_REQSTACK()
```

### Event 65535.14

#### Metadata

| Field        | Value    |
|--------------|----------|
| Entrypoint   | 0x00B7   |
| Data Size    | 34 bytes |
| Instructions | 4        |

```
      00 01 02 03 04 05 06 07  08 09 0A 0B 0C 0D 0E 0F
      -- -- -- -- -- -- -- --  -- -- -- -- -- -- -- --
00B0:                      5B  1E 80 CD 20 03 01 CD 20         [... ... 
00C0: 03 01 61 72 61 30 1C 1F  80 5B 1E 80 CD 20 03 01  ..ara0...[... ..
00D0: CD 20 03 01 61 72 61 31  00                       . ..ara1.       
```

#### Opcodes

```
  0: 0x00B7 [0x5B] LOAD_EXT_SCHEDULER: Load scheduler "ara0" with entities [Raillefal (ID: 16982221/0x010320CD), Raillefal (ID: 16982221/0x010320CD)], work=115*
  1: 0x00C6 [0x1C] WAIT(20* ticks)
  2: 0x00C9 [0x5B] LOAD_EXT_SCHEDULER: Load scheduler "ara1" with entities [Raillefal (ID: 16982221/0x010320CD), Raillefal (ID: 16982221/0x010320CD)], work=115*
  3: 0x00D8 [0x00] END_REQSTACK()
```

### Event 65535.15

#### Metadata

| Field        | Value    |
|--------------|----------|
| Entrypoint   | 0x00D9   |
| Data Size    | 10 bytes |
| Instructions | 2        |

```
      00 01 02 03 04 05 06 07  08 09 0A 0B 0C 0D 0E 0F
      -- -- -- -- -- -- -- --  -- -- -- -- -- -- -- --
00D0:                             37 20 80 21 80 17 80           7 .!...
00E0: 22 80 00                                          "..             
```

#### Opcodes

```
  0: 0x00D9 [0x37] UPDATE_EVENT_POSITION_AND_DIR: x=28.207*, z=-46.971*, y=-7.804*, direction=278.4°*
  1: 0x00E2 [0x00] END_REQSTACK()
```

### Event 65535.16

#### Metadata

| Field        | Value    |
|--------------|----------|
| Entrypoint   | 0x00E3   |
| Data Size    | 25 bytes |
| Instructions | 6        |

```
      00 01 02 03 04 05 06 07  08 09 0A 0B 0C 0D 0E 0F
      -- -- -- -- -- -- -- --  -- -- -- -- -- -- -- --
00E0:          79 00 F8 FF FF  7F 8C 20 03 01 32 23 80     y...... ..2#.
00F0: 1F 00 24 80 25 80 17 80  1F 01 6F 00              ..$.%.....o.    
```

#### Opcodes

```
  0: 0x00E3 [0x79] EventEntity looks at Naja Salaheem (ID: 16982156/0x0103208C) (Basic look)
  1: 0x00ED [0x32] ExtData[1]->MainSpeed = 15* * 0.1
  2: 0x00F0 [0x1F] MOVE_ENTITY: EventEntity moves to X=26.410*, Z=-46.343*, Y=-7.804*
  3: 0x00F8 [0x1F] MOVE_ENTITY: Update entity position (mode=1)
  4: 0x00FA [0x6F] WAIT_FRAME_DELAY: Yield until WaitTime reaches zero
  5: 0x00FB [0x00] END_REQSTACK()
```

### Event 65535.17

#### Metadata

| Field        | Value    |
|--------------|----------|
| Entrypoint   | 0x00FC   |
| Data Size    | 42 bytes |
| Instructions | 10       |

```
      00 01 02 03 04 05 06 07  08 09 0A 0B 0C 0D 0E 0F
      -- -- -- -- -- -- -- --  -- -- -- -- -- -- -- --
00F0:                                      32 0B 80 1F              2...
0100: 00 26 80 27 80 28 80 1F  01 27 10 12 21 03 01 58  .&.'.(...'..!..X
0110: 1F 00 29 80 2A 80 2B 80  1F 01 1F 00 2C 80 2D 80  ..).*.+.....,.-.
0120: 2E 80 1F 01 6F 00                                 ....o.          
```

#### Opcodes

```
  0: 0x00FC [0x32] ExtData[1]->MainSpeed = 13* * 0.1
  1: 0x00FF [0x1F] MOVE_ENTITY: EventEntity moves to X=32.892*, Z=-48.080*, Y=-7.199*
  2: 0x0107 [0x1F] MOVE_ENTITY: Update entity position (mode=1)
  3: 0x0109 [0x27] REQ_SET(priority=0x10, entity_id=Unnamed NPC (ID: 16982290/0x01032112), tag_num=0x58)
  4: 0x0110 [0x1F] MOVE_ENTITY: EventEntity moves to X=34.368*, Z=-50.013*, Y=-6.897*
  5: 0x0118 [0x1F] MOVE_ENTITY: Update entity position (mode=1)
  6: 0x011A [0x1F] MOVE_ENTITY: EventEntity moves to X=33.697*, Z=-53.167*, Y=-6.601*
  7: 0x0122 [0x1F] MOVE_ENTITY: Update entity position (mode=1)
  8: 0x0124 [0x6F] WAIT_FRAME_DELAY: Yield until WaitTime reaches zero
  9: 0x0125 [0x00] END_REQSTACK()
```

### Event 65535.18

#### Metadata

| Field        | Value    |
|--------------|----------|
| Entrypoint   | 0x0126   |
| Data Size    | 42 bytes |
| Instructions | 10       |

```
      00 01 02 03 04 05 06 07  08 09 0A 0B 0C 0D 0E 0F
      -- -- -- -- -- -- -- --  -- -- -- -- -- -- -- --
0120:                   32 0B  80 1F 00 26 80 27 80 28        2....&.'.(
0130: 80 1F 01 27 10 12 21 03  01 59 1F 00 29 80 2A 80  ...'..!..Y..).*.
0140: 2B 80 1F 01 1F 00 2C 80  2D 80 2E 80 1F 01 6F 00  +.....,.-.....o.
```

#### Opcodes

```
  0: 0x0126 [0x32] ExtData[1]->MainSpeed = 13* * 0.1
  1: 0x0129 [0x1F] MOVE_ENTITY: EventEntity moves to X=32.892*, Z=-48.080*, Y=-7.199*
  2: 0x0131 [0x1F] MOVE_ENTITY: Update entity position (mode=1)
  3: 0x0133 [0x27] REQ_SET(priority=0x10, entity_id=Unnamed NPC (ID: 16982290/0x01032112), tag_num=0x59)
  4: 0x013A [0x1F] MOVE_ENTITY: EventEntity moves to X=34.368*, Z=-50.013*, Y=-6.897*
  5: 0x0142 [0x1F] MOVE_ENTITY: Update entity position (mode=1)
  6: 0x0144 [0x1F] MOVE_ENTITY: EventEntity moves to X=33.697*, Z=-53.167*, Y=-6.601*
  7: 0x014C [0x1F] MOVE_ENTITY: Update entity position (mode=1)
  8: 0x014E [0x6F] WAIT_FRAME_DELAY: Yield until WaitTime reaches zero
  9: 0x014F [0x00] END_REQSTACK()
```

### Event 65535.19

#### Metadata

| Field        | Value    |
|--------------|----------|
| Entrypoint   | 0x0150   |
| Data Size    | 10 bytes |
| Instructions | 2        |

```
      00 01 02 03 04 05 06 07  08 09 0A 0B 0C 0D 0E 0F
      -- -- -- -- -- -- -- --  -- -- -- -- -- -- -- --
0150: 37 2F 80 30 80 0E 80 31  80 00                    7/.0...1..      
```

#### Opcodes

```
  0: 0x0150 [0x37] UPDATE_EVENT_POSITION_AND_DIR: x=-66.387*, z=-95.372*, y=-5.999*, direction=101.2°*
  1: 0x0159 [0x00] END_REQSTACK()
```

### Event 65535.20

#### Metadata

| Field        | Value    |
|--------------|----------|
| Entrypoint   | 0x015A   |
| Data Size    | 25 bytes |
| Instructions | 6        |

```
      00 01 02 03 04 05 06 07  08 09 0A 0B 0C 0D 0E 0F
      -- -- -- -- -- -- -- --  -- -- -- -- -- -- -- --
0150:                                32 0B 80 33 01 37            2..3.7
0160: 32 80 33 80 0E 80 34 80  1F 00 35 80 36 80 0E 80  2.3...4...5.6...
0170: 1F 01 00                                          ...             
```

#### Opcodes

```
  0: 0x015A [0x32] ExtData[1]->MainSpeed = 13* * 0.1
  1: 0x015D [0x33] EventEntity->Render.Flags0 |= 0x200000 // Bit 21 (flag=0x01)
  2: 0x015F [0x37] UPDATE_EVENT_POSITION_AND_DIR: x=-67.316*, z=-96.785*, y=-5.999*, direction=100.1°*
  3: 0x0168 [0x1F] MOVE_ENTITY: EventEntity moves to X=-66.765*, Z=-102.766*, Y=-5.999*
  4: 0x0170 [0x1F] MOVE_ENTITY: Update entity position (mode=1)
  5: 0x0172 [0x00] END_REQSTACK()
```

### Event 65535.21

#### Metadata

| Field        | Value    |
|--------------|----------|
| Entrypoint   | 0x0173   |
| Data Size    | 25 bytes |
| Instructions | 6        |

```
      00 01 02 03 04 05 06 07  08 09 0A 0B 0C 0D 0E 0F
      -- -- -- -- -- -- -- --  -- -- -- -- -- -- -- --
0170:          32 0B 80 33 01  37 37 80 38 80 39 80 3A     2..3.77.8.9.:
0180: 80 1F 00 3B 80 3C 80 09  80 1F 01 00              ...;.<......    
```

#### Opcodes

```
  0: 0x0173 [0x32] ExtData[1]->MainSpeed = 13* * 0.1
  1: 0x0176 [0x33] EventEntity->Render.Flags0 |= 0x200000 // Bit 21 (flag=0x01)
  2: 0x0178 [0x37] UPDATE_EVENT_POSITION_AND_DIR: x=-66.405*, z=-96.269*, y=-6.014*, direction=260.7°*
  3: 0x0181 [0x1F] MOVE_ENTITY: EventEntity moves to X=-66.899*, Z=-93.937*, Y=-6.000*
  4: 0x0189 [0x1F] MOVE_ENTITY: Update entity position (mode=1)
  5: 0x018B [0x00] END_REQSTACK()
```

### Event 65535.22

#### Metadata

| Field        | Value    |
|--------------|----------|
| Entrypoint   | 0x018C   |
| Data Size    | 24 bytes |
| Instructions | 6        |

```
      00 01 02 03 04 05 06 07  08 09 0A 0B 0C 0D 0E 0F
      -- -- -- -- -- -- -- --  -- -- -- -- -- -- -- --
0180:                                      32 0B 80 37              2..7
0190: 3D 80 3E 80 00 80 3F 80  1F 00 40 80 41 80 00 80  =.>...?...@.A...
01A0: 1F 01 6F 00                                       ..o.            
```

#### Opcodes

```
  0: 0x018C [0x32] ExtData[1]->MainSpeed = 13* * 0.1
  1: 0x018F [0x37] UPDATE_EVENT_POSITION_AND_DIR: x=-65.829*, z=-85.804*, y=0.000*, direction=138.2°*
  2: 0x0198 [0x1F] MOVE_ENTITY: EventEntity moves to X=-69.506*, Z=-86.642*, Y=0.000*
  3: 0x01A0 [0x1F] MOVE_ENTITY: Update entity position (mode=1)
  4: 0x01A2 [0x6F] WAIT_FRAME_DELAY: Yield until WaitTime reaches zero
  5: 0x01A3 [0x00] END_REQSTACK()
```

### Event 65535.23

#### Metadata

| Field        | Value    |
|--------------|----------|
| Entrypoint   | 0x01A4   |
| Data Size    | 14 bytes |
| Instructions | 4        |

```
      00 01 02 03 04 05 06 07  08 09 0A 0B 0C 0D 0E 0F
      -- -- -- -- -- -- -- --  -- -- -- -- -- -- -- --
01A0:             32 0B 80 1F  00 42 80 43 80 00 80 1F      2....B.C....
01B0: 01 00                                             ..              
```

#### Opcodes

```
  0: 0x01A4 [0x32] ExtData[1]->MainSpeed = 13* * 0.1
  1: 0x01A7 [0x1F] MOVE_ENTITY: EventEntity moves to X=-71.228*, Z=-88.056*, Y=0.000*
  2: 0x01AF [0x1F] MOVE_ENTITY: Update entity position (mode=1)
  3: 0x01B1 [0x00] END_REQSTACK()
```

### Event 65535.24

#### Metadata

| Field        | Value    |
|--------------|----------|
| Entrypoint   | 0x01B2   |
| Data Size    | 34 bytes |
| Instructions | 8        |

```
      00 01 02 03 04 05 06 07  08 09 0A 0B 0C 0D 0E 0F
      -- -- -- -- -- -- -- --  -- -- -- -- -- -- -- --
01B0:       32 0B 80 1F 00 44  80 45 80 00 80 1F 01 1F    2....D.E......
01C0: 00 46 80 47 80 00 80 1F  01 1F 00 48 80 49 80 00  .F.G.......H.I..
01D0: 80 1F 01 00                                       ....            
```

#### Opcodes

```
  0: 0x01B2 [0x32] ExtData[1]->MainSpeed = 13* * 0.1
  1: 0x01B5 [0x1F] MOVE_ENTITY: EventEntity moves to X=-72.954*, Z=-88.921*, Y=0.000*
  2: 0x01BD [0x1F] MOVE_ENTITY: Update entity position (mode=1)
  3: 0x01BF [0x1F] MOVE_ENTITY: EventEntity moves to X=-80.288*, Z=-87.901*, Y=0.000*
  4: 0x01C7 [0x1F] MOVE_ENTITY: Update entity position (mode=1)
  5: 0x01C9 [0x1F] MOVE_ENTITY: EventEntity moves to X=-87.120*, Z=-78.802*, Y=0.000*
  6: 0x01D1 [0x1F] MOVE_ENTITY: Update entity position (mode=1)
  7: 0x01D3 [0x00] END_REQSTACK()
```

### Event 65535.25

#### Metadata

| Field        | Value    |
|--------------|----------|
| Entrypoint   | 0x01D4   |
| Data Size    | 27 bytes |
| Instructions | 5        |

```
      00 01 02 03 04 05 06 07  08 09 0A 0B 0C 0D 0E 0F
      -- -- -- -- -- -- -- --  -- -- -- -- -- -- -- --
01D0:             37 4A 80 4B  80 05 80 4C 80 03 00 00      7J.K...L....
01E0: 4D 80 1A 15 02 37 01 00  02 00 03 00 04 00 00     M....7......... 
```

#### Opcodes

```
  0: 0x01D4 [0x37] UPDATE_EVENT_POSITION_AND_DIR: x=83.962*, z=47.614*, y=0.480*, direction=237.6°*
  1: 0x01DD [0x03] ExtData[1]->WorkLocal[0] = 4294966296*
  2: 0x01E2 [0x1A] CALL_SUBROUTINE(address=0x0215)
  3: 0x01E5 [0x37] UPDATE_EVENT_POSITION_AND_DIR: x=ExtData[1]->WorkLocal[1], z=ExtData[1]->WorkLocal[2], y=ExtData[1]->WorkLocal[3], direction=ExtData[1]->WorkLocal[4]
  4: 0x01EE [0x00] END_REQSTACK()
```

### Event 65535.26

#### Metadata

| Field        | Value    |
|--------------|----------|
| Entrypoint   | 0x01EF   |
| Data Size    | 15 bytes |
| Instructions | 5        |

```
      00 01 02 03 04 05 06 07  08 09 0A 0B 0C 0D 0E 0F
      -- -- -- -- -- -- -- --  -- -- -- -- -- -- -- --
01E0:                                               32                 2
01F0: 0B 80 1F 00 4A 80 4B 80  05 80 1F 01 6F 00        ....J.K.....o.  
```

#### Opcodes

```
  0: 0x01EF [0x32] ExtData[1]->MainSpeed = 13* * 0.1
  1: 0x01F2 [0x1F] MOVE_ENTITY: EventEntity moves to X=83.962*, Z=47.614*, Y=0.480*
  2: 0x01FA [0x1F] MOVE_ENTITY: Update entity position (mode=1)
  3: 0x01FC [0x6F] WAIT_FRAME_DELAY: Yield until WaitTime reaches zero
  4: 0x01FD [0x00] END_REQSTACK()
```

### Event 65535.27

#### Metadata

| Field        | Value    |
|--------------|----------|
| Entrypoint   | 0x01FE   |
| Data Size    | 91 bytes |
| Instructions | 5        |

```
      00 01 02 03 04 05 06 07  08 09 0A 0B 0C 0D 0E 0F
      -- -- -- -- -- -- -- --  -- -- -- -- -- -- -- --
01F0:                                            1F 00                ..
0200: 4E 80 4F 80 50 80 1F 01  31 00 51 80 52 80 05 80  N.O.P...1.Q.R...
0210: 53 80 31 01 00 3B F8 FF  FF 7F 01 00 02 00 03 00  S.1..;..........
0220: 3A F8 FF FF 7F 04 00 17  05 00 04 00 00 00 16 06  :...............
0230: 00 04 00 00 00 07 01 00  05 00 07 02 00 06 00 1B  ................
0240: 17 05 00 04 00 00 00 16  06 00 04 00 00 00 07 01  ................
0250: 00 05 00 07 02 00 06 00  1B                       .........       
```

#### Opcodes

```
  0: 0x01FE [0x1F] MOVE_ENTITY: EventEntity moves to X=85.830*, Z=42.811*, Y=0.385*
  1: 0x0206 [0x1F] MOVE_ENTITY: Update entity position (mode=1)
  2: 0x0208 [0x31] UPDATE_ENTITY_POSITION: Set EventEntity goal position to X=85.096*, Z=35.986*, Y=0.480*, Time=180*
  3: 0x0212 [0x31] UPDATE_ENTITY_POSITION: Move EventEntity towards goal position
  4: 0x0214 [0x00] END_REQSTACK()
```

#### Data or dead code:

```
# Dead code (unreachable instructions):
     0x0215 [0x3B] GET_ENTITY_POSITION(entity=EventEntity, x_destination=ExtData[1]->WorkLocal[1], y_destination=ExtData[1]->WorkLocal[2], z_destination=ExtData[1]->WorkLocal[3])
     0x0220 [0x3A] CONVERT_YAW_TO_BYTE(entity=EventEntity, result_destination=ExtData[1]->WorkLocal[4])
     0x0227 [0x17] ExtData[1]->WorkLocal[5] = cos(ExtData[1]->WorkLocal[4]) * ExtData[1]->WorkLocal[0]
     0x022E [0x16] ExtData[1]->WorkLocal[6] = sin(ExtData[1]->WorkLocal[4]) * ExtData[1]->WorkLocal[0]
     0x0235 [0x07] ExtData[1]->WorkLocal[1] += ExtData[1]->WorkLocal[5]
     0x023A [0x07] ExtData[1]->WorkLocal[2] += ExtData[1]->WorkLocal[6]
     0x023F [0x1B] RETURN
     0x0240 [0x17] ExtData[1]->WorkLocal[5] = cos(ExtData[1]->WorkLocal[4]) * ExtData[1]->WorkLocal[0]
     0x0247 [0x16] ExtData[1]->WorkLocal[6] = sin(ExtData[1]->WorkLocal[4]) * ExtData[1]->WorkLocal[0]
     0x024E [0x07] ExtData[1]->WorkLocal[1] += ExtData[1]->WorkLocal[5]
     0x0253 [0x07] ExtData[1]->WorkLocal[2] += ExtData[1]->WorkLocal[6]
     0x0258 [0x1B] RETURN
```

### Event 65535.28

#### Metadata

| Field        | Value    |
|--------------|----------|
| Entrypoint   | 0x0259   |
| Data Size    | 19 bytes |
| Instructions | 3        |

```
      00 01 02 03 04 05 06 07  08 09 0A 0B 0C 0D 0E 0F
      -- -- -- -- -- -- -- --  -- -- -- -- -- -- -- --
0250:                             5B 1E 80 F8 FF FF 7F           [......
0260: F8 FF FF 7F 74 6C 6B 30  1C 54 80 00              ....tlk0.T..    
```

#### Opcodes

```
  0: 0x0259 [0x5B] LOAD_EXT_SCHEDULER: Load scheduler "tlk0" with entities [EventEntity, EventEntity], work=115*
  1: 0x0268 [0x1C] WAIT(30* ticks)
  2: 0x026B [0x00] END_REQSTACK()
```

### Event 65535.29

#### Metadata

| Field        | Value    |
|--------------|----------|
| Entrypoint   | 0x026C   |
| Data Size    | 29 bytes |
| Instructions | 3        |

```
      00 01 02 03 04 05 06 07  08 09 0A 0B 0C 0D 0E 0F
      -- -- -- -- -- -- -- --  -- -- -- -- -- -- -- --
0260:                                      5B 1E 80 F8              [...
0270: FF FF 7F F8 FF FF 7F 74  6C 6B 31 53 F8 FF FF 7F  .......tlk1S....
0280: F8 FF FF 7F 74 6C 6B 31  00                       ....tlk1.       
```

#### Opcodes

```
  0: 0x026C [0x5B] LOAD_EXT_SCHEDULER: Load scheduler "tlk1" with entities [EventEntity, EventEntity], work=115*
  1: 0x027B [0x53] WAIT_SCHEDULER_TASK: Wait for scheduler "tlk1" with entities [EventEntity, EventEntity]
  2: 0x0288 [0x00] END_REQSTACK()
```

### Event 65535.30

#### Metadata

| Field        | Value    |
|--------------|----------|
| Entrypoint   | 0x0289   |
| Data Size    | 19 bytes |
| Instructions | 3        |

```
      00 01 02 03 04 05 06 07  08 09 0A 0B 0C 0D 0E 0F
      -- -- -- -- -- -- -- --  -- -- -- -- -- -- -- --
0280:                             5B 55 80 F8 FF FF 7F           [U.....
0290: F8 FF FF 7F 74 68 6B 30  1C 54 80 00              ....thk0.T..    
```

#### Opcodes

```
  0: 0x0289 [0x5B] LOAD_EXT_SCHEDULER: Load scheduler "thk0" with entities [EventEntity, EventEntity], work=116*
  1: 0x0298 [0x1C] WAIT(30* ticks)
  2: 0x029B [0x00] END_REQSTACK()
```

### Event 65535.31

#### Metadata

| Field        | Value    |
|--------------|----------|
| Entrypoint   | 0x029C   |
| Data Size    | 29 bytes |
| Instructions | 3        |

```
      00 01 02 03 04 05 06 07  08 09 0A 0B 0C 0D 0E 0F
      -- -- -- -- -- -- -- --  -- -- -- -- -- -- -- --
0290:                                      5B 55 80 F8              [U..
02A0: FF FF 7F F8 FF FF 7F 74  68 6B 31 53 F8 FF FF 7F  .......thk1S....
02B0: F8 FF FF 7F 74 68 6B 31  00                       ....thk1.       
```

#### Opcodes

```
  0: 0x029C [0x5B] LOAD_EXT_SCHEDULER: Load scheduler "thk1" with entities [EventEntity, EventEntity], work=116*
  1: 0x02AB [0x53] WAIT_SCHEDULER_TASK: Wait for scheduler "thk1" with entities [EventEntity, EventEntity]
  2: 0x02B8 [0x00] END_REQSTACK()
```

### Event 65535.32

#### Metadata

| Field        | Value    |
|--------------|----------|
| Entrypoint   | 0x02B9   |
| Data Size    | 19 bytes |
| Instructions | 3        |

```
      00 01 02 03 04 05 06 07  08 09 0A 0B 0C 0D 0E 0F
      -- -- -- -- -- -- -- --  -- -- -- -- -- -- -- --
02B0:                             5B 1E 80 F8 FF FF 7F           [......
02C0: F8 FF FF 7F 61 72 61 30  1C 54 80 00              ....ara0.T..    
```

#### Opcodes

```
  0: 0x02B9 [0x5B] LOAD_EXT_SCHEDULER: Load scheduler "ara0" with entities [EventEntity, EventEntity], work=115*
  1: 0x02C8 [0x1C] WAIT(30* ticks)
  2: 0x02CB [0x00] END_REQSTACK()
```

### Event 65535.33

#### Metadata

| Field        | Value    |
|--------------|----------|
| Entrypoint   | 0x02CC   |
| Data Size    | 29 bytes |
| Instructions | 3        |

```
      00 01 02 03 04 05 06 07  08 09 0A 0B 0C 0D 0E 0F
      -- -- -- -- -- -- -- --  -- -- -- -- -- -- -- --
02C0:                                      5B 1E 80 F8              [...
02D0: FF FF 7F F8 FF FF 7F 61  72 61 31 53 F8 FF FF 7F  .......ara1S....
02E0: F8 FF FF 7F 61 72 61 31  00                       ....ara1.       
```

#### Opcodes

```
  0: 0x02CC [0x5B] LOAD_EXT_SCHEDULER: Load scheduler "ara1" with entities [EventEntity, EventEntity], work=115*
  1: 0x02DB [0x53] WAIT_SCHEDULER_TASK: Wait for scheduler "ara1" with entities [EventEntity, EventEntity]
  2: 0x02E8 [0x00] END_REQSTACK()
```

### Event 65535.34

#### Metadata

| Field        | Value    |
|--------------|----------|
| Entrypoint   | 0x02E9   |
| Data Size    | 29 bytes |
| Instructions | 3        |

```
      00 01 02 03 04 05 06 07  08 09 0A 0B 0C 0D 0E 0F
      -- -- -- -- -- -- -- --  -- -- -- -- -- -- -- --
02E0:                             5B 56 80 F8 FF FF 7F           [V.....
02F0: F8 FF FF 7F 70 61 73 30  53 F8 FF FF 7F F8 FF FF  ....pas0S.......
0300: 7F 70 61 73 30 00                                 .pas0.          
```

#### Opcodes

```
  0: 0x02E9 [0x5B] LOAD_EXT_SCHEDULER: Load scheduler "pas0" with entities [EventEntity, EventEntity], work=296*
  1: 0x02F8 [0x53] WAIT_SCHEDULER_TASK: Wait for scheduler "pas0" with entities [EventEntity, EventEntity]
  2: 0x0305 [0x00] END_REQSTACK()
```

### Event 65535.35

#### Metadata

| Field        | Value    |
|--------------|----------|
| Entrypoint   | 0x0306   |
| Data Size    | 12 bytes |
| Instructions | 3        |

```
      00 01 02 03 04 05 06 07  08 09 0A 0B 0C 0D 0E 0F
      -- -- -- -- -- -- -- --  -- -- -- -- -- -- -- --
0300:                   33 01  37 57 80 58 80 59 80 5A        3.7W.X.Y.Z
0310: 80 00                                             ..              
```

#### Opcodes

```
  0: 0x0306 [0x33] EventEntity->Render.Flags0 |= 0x200000 // Bit 21 (flag=0x01)
  1: 0x0308 [0x37] UPDATE_EVENT_POSITION_AND_DIR: x=66.896*, z=-125.749*, y=-6.500*, direction=0.6°*
  2: 0x0311 [0x00] END_REQSTACK()
```

### Event 65535.36

#### Metadata

| Field        | Value    |
|--------------|----------|
| Entrypoint   | 0x0312   |
| Data Size    | 12 bytes |
| Instructions | 3        |

```
      00 01 02 03 04 05 06 07  08 09 0A 0B 0C 0D 0E 0F
      -- -- -- -- -- -- -- --  -- -- -- -- -- -- -- --
0310:       33 00 37 5B 80 5C  80 09 80 01 80 00          3.7[.\......  
```

#### Opcodes

```
  0: 0x0312 [0x33] EventEntity->Render.Flags0 &= ~ 0x200000 // Bit 21 (flag=0x00)
  1: 0x0314 [0x37] UPDATE_EVENT_POSITION_AND_DIR: x=71.143*, z=-126.917*, y=-6.000*, direction=0.1°*
  2: 0x031D [0x00] END_REQSTACK()
```

### Event 65535.37

#### Metadata

| Field        | Value    |
|--------------|----------|
| Entrypoint   | 0x031E   |
| Data Size    | 25 bytes |
| Instructions | 6        |

```
      00 01 02 03 04 05 06 07  08 09 0A 0B 0C 0D 0E 0F
      -- -- -- -- -- -- -- --  -- -- -- -- -- -- -- --
0310:                                            32 0B                2.
0320: 80 1F 00 5D 80 5E 80 09  80 1F 01 6F 79 00 F8 FF  ...].^.....oy...
0330: FF 7F F0 FF FF 7F 00                              .......         
```

#### Opcodes

```
  0: 0x031E [0x32] ExtData[1]->MainSpeed = 13* * 0.1
  1: 0x0321 [0x1F] MOVE_ENTITY: EventEntity moves to X=74.194*, Z=-126.324*, Y=-6.000*
  2: 0x0329 [0x1F] MOVE_ENTITY: Update entity position (mode=1)
  3: 0x032B [0x6F] WAIT_FRAME_DELAY: Yield until WaitTime reaches zero
  4: 0x032C [0x79] EventEntity looks at LocalPlayer (Basic look)
  5: 0x0336 [0x00] END_REQSTACK()
```

### Event 65535.38

#### Metadata

| Field        | Value    |
|--------------|----------|
| Entrypoint   | 0x0337   |
| Data Size    | 12 bytes |
| Instructions | 4        |

```
      00 01 02 03 04 05 06 07  08 09 0A 0B 0C 0D 0E 0F
      -- -- -- -- -- -- -- --  -- -- -- -- -- -- -- --
0330:                      1F  00 5F 80 60 80 09 80 1F         .._.`....
0340: 01 6F 00                                          .o.             
```

#### Opcodes

```
  0: 0x0337 [0x1F] MOVE_ENTITY: EventEntity moves to X=76.176*, Z=-124.729*, Y=-6.000*
  1: 0x033F [0x1F] MOVE_ENTITY: Update entity position (mode=1)
  2: 0x0341 [0x6F] WAIT_FRAME_DELAY: Yield until WaitTime reaches zero
  3: 0x0342 [0x00] END_REQSTACK()
```

### Event 3035

#### Metadata

| Field        | Value   |
|--------------|---------|
| Entrypoint   | 0x0343  |
| Data Size    | 1 bytes |
| Instructions | 1       |

```
      00 01 02 03 04 05 06 07  08 09 0A 0B 0C 0D 0E 0F
      -- -- -- -- -- -- -- --  -- -- -- -- -- -- -- --
0340:          00                                          .            
```

#### Opcodes

```
  0: 0x0343 [0x00] END_REQSTACK()
```

### Event 3037

#### Metadata

| Field        | Value   |
|--------------|---------|
| Entrypoint   | 0x0344  |
| Data Size    | 1 bytes |
| Instructions | 1       |

```
      00 01 02 03 04 05 06 07  08 09 0A 0B 0C 0D 0E 0F
      -- -- -- -- -- -- -- --  -- -- -- -- -- -- -- --
0340:             00                                        .           
```

#### Opcodes

```
  0: 0x0344 [0x00] END_REQSTACK()
```

### Event 65535.39

#### Metadata

| Field        | Value    |
|--------------|----------|
| Entrypoint   | 0x0345   |
| Data Size    | 12 bytes |
| Instructions | 3        |

```
      00 01 02 03 04 05 06 07  08 09 0A 0B 0C 0D 0E 0F
      -- -- -- -- -- -- -- --  -- -- -- -- -- -- -- --
0340:                33 01 37  57 80 58 80 59 80 5A 80       3.7W.X.Y.Z.
0350: 00                                                .               
```

#### Opcodes

```
  0: 0x0345 [0x33] EventEntity->Render.Flags0 |= 0x200000 // Bit 21 (flag=0x01)
  1: 0x0347 [0x37] UPDATE_EVENT_POSITION_AND_DIR: x=66.896*, z=-125.749*, y=-6.500*, direction=0.6°*
  2: 0x0350 [0x00] END_REQSTACK()
```

### Event 65535.40

#### Metadata

| Field        | Value    |
|--------------|----------|
| Entrypoint   | 0x0351   |
| Data Size    | 12 bytes |
| Instructions | 3        |

```
      00 01 02 03 04 05 06 07  08 09 0A 0B 0C 0D 0E 0F
      -- -- -- -- -- -- -- --  -- -- -- -- -- -- -- --
0350:    33 01 37 57 80 58 80  61 80 5A 80 00            3.7W.X.a.Z..   
```

#### Opcodes

```
  0: 0x0351 [0x33] EventEntity->Render.Flags0 |= 0x200000 // Bit 21 (flag=0x01)
  1: 0x0353 [0x37] UPDATE_EVENT_POSITION_AND_DIR: x=66.896*, z=-125.749*, y=-6.700*, direction=0.6°*
  2: 0x035C [0x00] END_REQSTACK()
```

### Event 65535.41

#### Metadata

| Field        | Value    |
|--------------|----------|
| Entrypoint   | 0x035D   |
| Data Size    | 12 bytes |
| Instructions | 3        |

```
      00 01 02 03 04 05 06 07  08 09 0A 0B 0C 0D 0E 0F
      -- -- -- -- -- -- -- --  -- -- -- -- -- -- -- --
0350:                                         33 00 37               3.7
0360: 62 80 63 80 09 80 64 80  00                       b.c...d..       
```

#### Opcodes

```
  0: 0x035D [0x33] EventEntity->Render.Flags0 &= ~ 0x200000 // Bit 21 (flag=0x00)
  1: 0x035F [0x37] UPDATE_EVENT_POSITION_AND_DIR: x=73.498*, z=-127.785*, y=-6.000*, direction=322.8°*
  2: 0x0368 [0x00] END_REQSTACK()
```

### Event 65535.42

#### Metadata

| Field        | Value    |
|--------------|----------|
| Entrypoint   | 0x0369   |
| Data Size    | 52 bytes |
| Instructions | 12       |

```
      00 01 02 03 04 05 06 07  08 09 0A 0B 0C 0D 0E 0F
      -- -- -- -- -- -- -- --  -- -- -- -- -- -- -- --
0360:                             32 0B 80 1F 00 65 80           2....e.
0370: 66 80 09 80 1F 01 1F 00  67 80 68 80 09 80 1F 01  f.......g.h.....
0380: 27 10 D2 20 03 01 0D 1F  00 69 80 6A 80 09 80 1F  '.. .....i.j....
0390: 01 1F 00 6B 80 6C 80 09  80 1F 01 6F 00           ...k.l.....o.   
```

#### Opcodes

```
  0: 0x0369 [0x32] ExtData[1]->MainSpeed = 13* * 0.1
  1: 0x036C [0x1F] MOVE_ENTITY: EventEntity moves to X=75.971*, Z=-126.222*, Y=-6.000*
  2: 0x0374 [0x1F] MOVE_ENTITY: Update entity position (mode=1)
  3: 0x0376 [0x1F] MOVE_ENTITY: EventEntity moves to X=77.130*, Z=-124.049*, Y=-6.000*
  4: 0x037E [0x1F] MOVE_ENTITY: Update entity position (mode=1)
  5: 0x0380 [0x27] REQ_SET(priority=0x10, entity_id=Travialce (ID: 16982226/0x010320D2), tag_num=0x0D)
  6: 0x0387 [0x1F] MOVE_ENTITY: EventEntity moves to X=77.546*, Z=-121.314*, Y=-6.000*
  7: 0x038F [0x1F] MOVE_ENTITY: Update entity position (mode=1)
  8: 0x0391 [0x1F] MOVE_ENTITY: EventEntity moves to X=76.271*, Z=-118.644*, Y=-6.000*
  9: 0x0399 [0x1F] MOVE_ENTITY: Update entity position (mode=1)
 10: 0x039B [0x6F] WAIT_FRAME_DELAY: Yield until WaitTime reaches zero
 11: 0x039C [0x00] END_REQSTACK()
```

### Event 65535.43

#### Metadata

| Field        | Value    |
|--------------|----------|
| Entrypoint   | 0x039D   |
| Data Size    | 10 bytes |
| Instructions | 2        |

```
      00 01 02 03 04 05 06 07  08 09 0A 0B 0C 0D 0E 0F
      -- -- -- -- -- -- -- --  -- -- -- -- -- -- -- --
0390:                                         37 6D 80               7m.
03A0: 6E 80 00 80 6F 80 00                              n...o..         
```

#### Opcodes

```
  0: 0x039D [0x37] UPDATE_EVENT_POSITION_AND_DIR: x=-4.498*, z=-76.454*, y=0.000*, direction=69.3°*
  1: 0x03A6 [0x00] END_REQSTACK()
```

### Event 65535.44

#### Metadata

| Field        | Value    |
|--------------|----------|
| Entrypoint   | 0x03A7   |
| Data Size    | 15 bytes |
| Instructions | 5        |

```
      00 01 02 03 04 05 06 07  08 09 0A 0B 0C 0D 0E 0F
      -- -- -- -- -- -- -- --  -- -- -- -- -- -- -- --
03A0:                      32  0B 80 1F 00 70 80 71 80         2....p.q.
03B0: 00 80 1F 01 6F 00                                 ....o.          
```

#### Opcodes

```
  0: 0x03A7 [0x32] ExtData[1]->MainSpeed = 13* * 0.1
  1: 0x03AA [0x1F] MOVE_ENTITY: EventEntity moves to X=-2.636*, Z=-84.064*, Y=0.000*
  2: 0x03B2 [0x1F] MOVE_ENTITY: Update entity position (mode=1)
  3: 0x03B4 [0x6F] WAIT_FRAME_DELAY: Yield until WaitTime reaches zero
  4: 0x03B5 [0x00] END_REQSTACK()
```

### Event 65535.45

#### Metadata

| Field        | Value    |
|--------------|----------|
| Entrypoint   | 0x03B6   |
| Data Size    | 15 bytes |
| Instructions | 5        |

```
      00 01 02 03 04 05 06 07  08 09 0A 0B 0C 0D 0E 0F
      -- -- -- -- -- -- -- --  -- -- -- -- -- -- -- --
03B0:                   32 0B  80 1F 00 72 80 73 80 0E        2....r.s..
03C0: 80 1F 01 6F 00                                    ...o.           
```

#### Opcodes

```
  0: 0x03B6 [0x32] ExtData[1]->MainSpeed = 13* * 0.1
  1: 0x03B9 [0x1F] MOVE_ENTITY: EventEntity moves to X=74.903*, Z=-127.491*, Y=-5.999*
  2: 0x03C1 [0x1F] MOVE_ENTITY: Update entity position (mode=1)
  3: 0x03C3 [0x6F] WAIT_FRAME_DELAY: Yield until WaitTime reaches zero
  4: 0x03C4 [0x00] END_REQSTACK()
```

### Event 65535.46

#### Metadata

| Field        | Value    |
|--------------|----------|
| Entrypoint   | 0x03C5   |
| Data Size    | 15 bytes |
| Instructions | 5        |

```
      00 01 02 03 04 05 06 07  08 09 0A 0B 0C 0D 0E 0F
      -- -- -- -- -- -- -- --  -- -- -- -- -- -- -- --
03C0:                32 1B 80  1F 00 74 80 75 80 09 80       2....t.u...
03D0: 1F 01 6F 00                                       ..o.            
```

#### Opcodes

```
  0: 0x03C5 [0x32] ExtData[1]->MainSpeed = 11* * 0.1
  1: 0x03C8 [0x1F] MOVE_ENTITY: EventEntity moves to X=76.373*, Z=-126.216*, Y=-6.000*
  2: 0x03D0 [0x1F] MOVE_ENTITY: Update entity position (mode=1)
  3: 0x03D2 [0x6F] WAIT_FRAME_DELAY: Yield until WaitTime reaches zero
  4: 0x03D3 [0x00] END_REQSTACK()
```

### Event 65535.47

#### Metadata

| Field        | Value    |
|--------------|----------|
| Entrypoint   | 0x03D4   |
| Data Size    | 10 bytes |
| Instructions | 2        |

```
      00 01 02 03 04 05 06 07  08 09 0A 0B 0C 0D 0E 0F
      -- -- -- -- -- -- -- --  -- -- -- -- -- -- -- --
03D0:             37 76 80 77  80 09 80 78 80 00            7v.w...x..  
```

#### Opcodes

```
  0: 0x03D4 [0x37] UPDATE_EVENT_POSITION_AND_DIR: x=75.163*, z=-127.877*, y=-6.000*, direction=118.1°*
  1: 0x03DD [0x00] END_REQSTACK()
```

### Event 65535.48

#### Metadata

| Field        | Value   |
|--------------|---------|
| Entrypoint   | 0x03DE  |
| Data Size    | 1 bytes |
| Instructions | 1       |

```
      00 01 02 03 04 05 06 07  08 09 0A 0B 0C 0D 0E 0F
      -- -- -- -- -- -- -- --  -- -- -- -- -- -- -- --
03D0:                                            00                   . 
```

#### Opcodes

```
  0: 0x03DE [0x00] END_REQSTACK()
```
