# 16982157 - Abquhbah

## Common Data

| Field            | Value                          |
|------------------|--------------------------------|
| Zone             | Aht Urhgan Whitegate2 (ID: 50) |
| Block Size       | 6228 bytes                     |
| Total Events     | 212                            |
| References Count | 406                            |

## List of Events

| Event ID                      | Entrypoint   |   Size |   Instructions |
|-------------------------------|--------------|--------|----------------|
| [65535](#event-65535)         | 0x0000       |      1 |              1 |
| [65535.1](#event-65535-1)     | 0x0001       |     21 |             11 |
| [65535.2](#event-65535-2)     | 0x0016       |   1095 |            374 |
| [65535.3](#event-65535-3)     | 0x045D       |      1 |              1 |
| [3000](#event-3000)           | 0x045E       |      1 |              1 |
| [3002](#event-3002)           | 0x045F       |      1 |              1 |
| [73](#event-73)               | 0x0460       |      1 |              1 |
| [3020](#event-3020)           | 0x0461       |      1 |              1 |
| [3030](#event-3030)           | 0x0462       |      1 |              1 |
| [3028](#event-3028)           | 0x0463       |      1 |              1 |
| [5000](#event-5000)           | 0x0464       |      1 |              1 |
| [5002](#event-5002)           | 0x0465       |      1 |              1 |
| [5020](#event-5020)           | 0x0466       |      1 |              1 |
| [5022](#event-5022)           | 0x0467       |      1 |              1 |
| [74](#event-74)               | 0x0468       |      1 |              1 |
| [75](#event-75)               | 0x0469       |      1 |              1 |
| [3050](#event-3050)           | 0x046A       |      1 |              1 |
| [3052](#event-3052)           | 0x046B       |      1 |              1 |
| [3070](#event-3070)           | 0x046C       |      1 |              1 |
| [3072](#event-3072)           | 0x046D       |      1 |              1 |
| [3074](#event-3074)           | 0x046E       |      1 |              1 |
| [3076](#event-3076)           | 0x046F       |      1 |              1 |
| [3078](#event-3078)           | 0x0470       |      1 |              1 |
| [65535.4](#event-65535-4)     | 0x0471       |     22 |              8 |
| [65535.5](#event-65535-5)     | 0x0487       |     15 |              5 |
| [65535.6](#event-65535-6)     | 0x0496       |     20 |              3 |
| [65535.7](#event-65535-7)     | 0x04AA       |     13 |              3 |
| [65535.8](#event-65535-8)     | 0x04B7       |     52 |             21 |
| [65535.9](#event-65535-9)     | 0x04EB       |     48 |             19 |
| [65535.10](#event-65535-10)   | 0x051B       |     52 |             21 |
| [65535.11](#event-65535-11)   | 0x054F       |     52 |             21 |
| [65535.12](#event-65535-12)   | 0x0583       |     10 |              2 |
| [5030](#event-5030)           | 0x058D       |      1 |              1 |
| [65535.13](#event-65535-13)   | 0x058E       |     10 |              2 |
| [65535.14](#event-65535-14)   | 0x0598       |     19 |              6 |
| [65535.15](#event-65535-15)   | 0x05AB       |     22 |              6 |
| [5031](#event-5031)           | 0x05C1       |      1 |              1 |
| [5032](#event-5032)           | 0x05C2       |     25 |              9 |
| [5033](#event-5033)           | 0x05DB       |     25 |              9 |
| [5034](#event-5034)           | 0x05F4       |     33 |             11 |
| [5045](#event-5045)           | 0x0615       |      1 |              1 |
| [5046](#event-5046)           | 0x0616       |      1 |              1 |
| [65535.16](#event-65535-16)   | 0x0617       |     10 |              2 |
| [65535.17](#event-65535-17)   | 0x0621       |     10 |              2 |
| [65535.18](#event-65535-18)   | 0x062B       |     25 |              9 |
| [65535.19](#event-65535-19)   | 0x0644       |     15 |              3 |
| [65535.20](#event-65535-20)   | 0x0653       |     25 |              9 |
| [65535.21](#event-65535-21)   | 0x066C       |     15 |              5 |
| [65535.22](#event-65535-22)   | 0x067B       |     10 |              2 |
| [65535.23](#event-65535-23)   | 0x0685       |     18 |              4 |
| [65535.24](#event-65535-24)   | 0x0697       |     10 |              2 |
| [65535.25](#event-65535-25)   | 0x06A1       |     43 |             15 |
| [3090](#event-3090)           | 0x06CC       |      1 |              1 |
| [65535.26](#event-65535-26)   | 0x06CD       |      1 |              1 |
| [65535.27](#event-65535-27)   | 0x06CE       |      1 |              1 |
| [65535.28](#event-65535-28)   | 0x06CF       |      1 |              1 |
| [65535.29](#event-65535-29)   | 0x06D0       |      1 |              1 |
| [65535.30](#event-65535-30)   | 0x06D1       |      1 |              1 |
| [65535.31](#event-65535-31)   | 0x06D2       |      1 |              1 |
| [65535.32](#event-65535-32)   | 0x06D3       |      1 |              1 |
| [65535.33](#event-65535-33)   | 0x06D4       |     10 |              2 |
| [65535.34](#event-65535-34)   | 0x06DE       |     15 |              5 |
| [65535.35](#event-65535-35)   | 0x06ED       |     15 |              5 |
| [65535.36](#event-65535-36)   | 0x06FC       |     25 |              7 |
| [5055](#event-5055)           | 0x0715       |      1 |              1 |
| [5057](#event-5057)           | 0x0716       |      1 |              1 |
| [3093](#event-3093)           | 0x0717       |      1 |              1 |
| [65535.37](#event-65535-37)   | 0x0718       |     29 |              7 |
| [65535.38](#event-65535-38)   | 0x0735       |     24 |              6 |
| [65535.39](#event-65535-39)   | 0x074D       |      4 |              2 |
| [65535.40](#event-65535-40)   | 0x0751       |     29 |              7 |
| [65535.41](#event-65535-41)   | 0x076E       |     14 |              4 |
| [65535.42](#event-65535-42)   | 0x077C       |     14 |              4 |
| [65535.43](#event-65535-43)   | 0x078A       |     14 |              4 |
| [65535.44](#event-65535-44)   | 0x0798       |     26 |              3 |
| [65535.45](#event-65535-45)   | 0x07B2       |     21 |              2 |
| [65535.46](#event-65535-46)   | 0x07C7       |      4 |              2 |
| [65535.47](#event-65535-47)   | 0x07CB       |      4 |              2 |
| [65535.48](#event-65535-48)   | 0x07CF       |      2 |              2 |
| [65535.49](#event-65535-49)   | 0x07D1       |     21 |              5 |
| [3095](#event-3095)           | 0x07E6       |      1 |              1 |
| [65535.50](#event-65535-50)   | 0x07E7       |     10 |              2 |
| [65535.51](#event-65535-51)   | 0x07F1       |     22 |              6 |
| [65535.52](#event-65535-52)   | 0x0807       |     22 |              6 |
| [65535.53](#event-65535-53)   | 0x081D       |     19 |              5 |
| [65535.54](#event-65535-54)   | 0x0830       |     24 |              6 |
| [3106](#event-3106)           | 0x0848       |     26 |             10 |
| [3107](#event-3107)           | 0x0862       |     26 |             10 |
| [3108](#event-3108)           | 0x087C       |     18 |              8 |
| [3109](#event-3109)           | 0x088E       |     18 |              8 |
| [3097](#event-3097)           | 0x08A0       |      1 |              1 |
| [65535.55](#event-65535-55)   | 0x08A1       |     10 |              2 |
| [65535.56](#event-65535-56)   | 0x08AB       |     15 |              5 |
| [65535.57](#event-65535-57)   | 0x08BA       |     22 |              8 |
| [3110](#event-3110)           | 0x08D0       |      1 |              1 |
| [3113](#event-3113)           | 0x08D1       |      1 |              1 |
| [65535.58](#event-65535-58)   | 0x08D2       |     44 |             14 |
| [5060](#event-5060)           | 0x08FE       |      1 |              1 |
| [5062](#event-5062)           | 0x08FF       |      1 |              1 |
| [5067](#event-5067)           | 0x0900       |      1 |              1 |
| [5068](#event-5068)           | 0x0901       |      1 |              1 |
| [65535.59](#event-65535-59)   | 0x0902       |     15 |              5 |
| [65535.60](#event-65535-60)   | 0x0911       |     24 |              6 |
| [65535.61](#event-65535-61)   | 0x0929       |     32 |              8 |
| [5063](#event-5063)           | 0x0949       |      1 |              1 |
| [5061](#event-5061)           | 0x094A       |      1 |              1 |
| [5064](#event-5064)           | 0x094B       |      1 |              1 |
| [5069](#event-5069)           | 0x094C       |      1 |              1 |
| [5070](#event-5070)           | 0x094D       |      1 |              1 |
| [65535.62](#event-65535-62)   | 0x094E       |      5 |              2 |
| [65535.63](#event-65535-63)   | 0x0953       |      9 |              3 |
| [65535.64](#event-65535-64)   | 0x095C       |     16 |              2 |
| [65535.65](#event-65535-65)   | 0x096C       |     16 |              2 |
| [65535.66](#event-65535-66)   | 0x097C       |     16 |              2 |
| [65535.67](#event-65535-67)   | 0x098C       |     16 |              2 |
| [65535.68](#event-65535-68)   | 0x099C       |     20 |              6 |
| [65535.69](#event-65535-69)   | 0x09B0       |     15 |              5 |
| [65535.70](#event-65535-70)   | 0x09BF       |     31 |              9 |
| [65535.71](#event-65535-71)   | 0x09DE       |     29 |              7 |
| [65535.72](#event-65535-72)   | 0x09FB       |     13 |              3 |
| [3130](#event-3130)           | 0x0A08       |      1 |              1 |
| [65535.73](#event-65535-73)   | 0x0A09       |     22 |              8 |
| [5071](#event-5071)           | 0x0A1F       |      1 |              1 |
| [65535.74](#event-65535-74)   | 0x0A20       |     11 |              3 |
| [65535.75](#event-65535-75)   | 0x0A2B       |     12 |              4 |
| [65535.76](#event-65535-76)   | 0x0A37       |     14 |              4 |
| [5073](#event-5073)           | 0x0A45       |      1 |              1 |
| [65535.77](#event-65535-77)   | 0x0A46       |     11 |              3 |
| [5075](#event-5075)           | 0x0A51       |      1 |              1 |
| [5076](#event-5076)           | 0x0A52       |      1 |              1 |
| [5077](#event-5077)           | 0x0A53       |      1 |              1 |
| [5078](#event-5078)           | 0x0A54       |      1 |              1 |
| [5072](#event-5072)           | 0x0A55       |      1 |              1 |
| [5074](#event-5074)           | 0x0A56       |      1 |              1 |
| [5079](#event-5079)           | 0x0A57       |      1 |              1 |
| [5080](#event-5080)           | 0x0A58       |      1 |              1 |
| [65535.78](#event-65535-78)   | 0x0A59       |     20 |              6 |
| [5081](#event-5081)           | 0x0A6D       |      1 |              1 |
| [5082](#event-5082)           | 0x0A6E       |      1 |              1 |
| [5083](#event-5083)           | 0x0A6F       |      1 |              1 |
| [5084](#event-5084)           | 0x0A70       |      1 |              1 |
| [5085](#event-5085)           | 0x0A71       |      1 |              1 |
| [5086](#event-5086)           | 0x0A72       |      1 |              1 |
| [65535.79](#event-65535-79)   | 0x0A73       |     39 |              9 |
| [5087](#event-5087)           | 0x0A9A       |      1 |              1 |
| [5088](#event-5088)           | 0x0A9B       |      1 |              1 |
| [5089](#event-5089)           | 0x0A9C       |      1 |              1 |
| [65535.80](#event-65535-80)   | 0x0A9D       |     47 |             17 |
| [65535.81](#event-65535-81)   | 0x0ACC       |     47 |             17 |
| [65535.82](#event-65535-82)   | 0x0AFB       |     52 |             18 |
| [65535.83](#event-65535-83)   | 0x0B2F       |     31 |             11 |
| [3143](#event-3143)           | 0x0B4E       |      1 |              1 |
| [3138](#event-3138)           | 0x0B4F       |      1 |              1 |
| [3139](#event-3139)           | 0x0B50       |      1 |              1 |
| [65535.84](#event-65535-84)   | 0x0B51       |     24 |              6 |
| [65535.85](#event-65535-85)   | 0x0B69       |     19 |              5 |
| [65535.86](#event-65535-86)   | 0x0B7C       |     28 |              8 |
| [3144](#event-3144)           | 0x0B98       |      1 |              1 |
| [65535.87](#event-65535-87)   | 0x0B99       |     20 |              6 |
| [3152](#event-3152)           | 0x0BAD       |     18 |             10 |
| [3153](#event-3153)           | 0x0BBF       |     22 |             12 |
| [3154](#event-3154)           | 0x0BD5       |     18 |             10 |
| [3200](#event-3200)           | 0x0BE7       |      1 |              1 |
| [65535.88](#event-65535-88)   | 0x0BE8       |     42 |              6 |
| [3202](#event-3202)           | 0x0C12       |      1 |              1 |
| [65535.89](#event-65535-89)   | 0x0C13       |     14 |              4 |
| [3204](#event-3204)           | 0x0C21       |      1 |              1 |
| [65535.90](#event-65535-90)   | 0x0C22       |     22 |              6 |
| [65535.91](#event-65535-91)   | 0x0C38       |     55 |              9 |
| [3201](#event-3201)           | 0x0C6F       |      1 |              1 |
| [3207](#event-3207)           | 0x0C70       |      1 |              1 |
| [65535.92](#event-65535-92)   | 0x0C71       |     10 |              3 |
| [65535.93](#event-65535-93)   | 0x0C7B       |     14 |              4 |
| [65535.94](#event-65535-94)   | 0x0C89       |     10 |              3 |
| [65535.95](#event-65535-95)   | 0x0C93       |     10 |              3 |
| [65535.96](#event-65535-96)   | 0x0C9D       |     10 |              3 |
| [65535.97](#event-65535-97)   | 0x0CA7       |     10 |              3 |
| [65535.98](#event-65535-98)   | 0x0CB1       |     10 |              3 |
| [65535.99](#event-65535-99)   | 0x0CBB       |     10 |              3 |
| [65535.100](#event-65535-100) | 0x0CC5       |     10 |              3 |
| [65535.101](#event-65535-101) | 0x0CCF       |     10 |              3 |
| [65535.102](#event-65535-102) | 0x0CD9       |     10 |              3 |
| [65535.103](#event-65535-103) | 0x0CE3       |     10 |              3 |
| [65535.104](#event-65535-104) | 0x0CED       |     10 |              3 |
| [65535.105](#event-65535-105) | 0x0CF7       |     10 |              3 |
| [65535.106](#event-65535-106) | 0x0D01       |     10 |              3 |
| [65535.107](#event-65535-107) | 0x0D0B       |     10 |              3 |
| [65535.108](#event-65535-108) | 0x0D15       |     10 |              3 |
| [65535.109](#event-65535-109) | 0x0D1F       |     14 |              4 |
| [65535.110](#event-65535-110) | 0x0D2D       |     10 |              3 |
| [65535.111](#event-65535-111) | 0x0D37       |     10 |              3 |
| [65535.112](#event-65535-112) | 0x0D41       |     14 |              4 |
| [3217](#event-3217)           | 0x0D4F       |      1 |              1 |
| [65535.113](#event-65535-113) | 0x0D50       |     28 |              8 |
| [65535.114](#event-65535-114) | 0x0D6C       |      9 |              3 |
| [925](#event-925)             | 0x0D75       |      1 |              1 |
| [929](#event-929)             | 0x0D76       |      1 |              1 |
| [930](#event-930)             | 0x0D77       |      1 |              1 |
| [932](#event-932)             | 0x0D78       |      1 |              1 |
| [65535.115](#event-65535-115) | 0x0D79       |     17 |              5 |
| [936](#event-936)             | 0x0D8A       |      1 |              1 |
| [942](#event-942)             | 0x0D8B       |      1 |              1 |
| [65535.116](#event-65535-116) | 0x0D8C       |     20 |              6 |
| [65535.117](#event-65535-117) | 0x0DA0       |     13 |              3 |
| [65535.118](#event-65535-118) | 0x0DAD       |     39 |              9 |
| [65535.119](#event-65535-119) | 0x0DD4       |     39 |              9 |
| [3220](#event-3220)           | 0x0DFB       |      1 |              1 |
| [65535.120](#event-65535-120) | 0x0DFC       |     14 |              4 |
| [170](#event-170)             | 0x0E0A       |    140 |             31 |
| [173](#event-173)             | 0x0E96       |      1 |              1 |
| [174](#event-174)             | 0x0E97       |      1 |              1 |
| [176](#event-176)             | 0x0E98       |      1 |              1 |

## DAT References (imed_data)

|   Index | Hex Value   |   Dec Value |
|---------|-------------|-------------|
|       0 | 0x254D      |        9549 |
|       1 | 0x254E      |        9550 |
|       2 | 0x254F      |        9551 |
|       3 | 0x2550      |        9552 |
|       4 | 0x2551      |        9553 |
|       5 | 0x2552      |        9554 |
|       6 | 0x0000      |           0 |
|       7 | 0x2553      |        9555 |
|       8 | 0x2554      |        9556 |
|       9 | 0x2555      |        9557 |
|      10 | 0x0001      |           1 |
|      11 | 0x2556      |        9558 |
|      12 | 0x2557      |        9559 |
|      13 | 0x2558      |        9560 |
|      14 | 0x2559      |        9561 |
|      15 | 0x255A      |        9562 |
|      16 | 0x255B      |        9563 |
|      17 | 0x003C      |          60 |
|      18 | 0x255C      |        9564 |
|      19 | 0x0002      |           2 |
|      20 | 0x255D      |        9565 |
|      21 | 0x255E      |        9566 |
|      22 | 0x255F      |        9567 |
|      23 | 0x2560      |        9568 |
|      24 | 0x2561      |        9569 |
|      25 | 0x2562      |        9570 |
|      26 | 0x0003      |           3 |
|      27 | 0x0004      |           4 |
|      28 | 0x0006      |           6 |
|      29 | 0x2585      |        9605 |
|      30 | 0x2586      |        9606 |
|      31 | 0x2587      |        9607 |
|      32 | 0x2588      |        9608 |
|      33 | 0x2589      |        9609 |
|      34 | 0x258A      |        9610 |
|      35 | 0x258B      |        9611 |
|      36 | 0x258C      |        9612 |
|      37 | 0x258D      |        9613 |
|      38 | 0x258E      |        9614 |
|      39 | 0x258F      |        9615 |
|      40 | 0x001E      |          30 |
|      41 | 0x2590      |        9616 |
|      42 | 0x2591      |        9617 |
|      43 | 0x2592      |        9618 |
|      44 | 0x2593      |        9619 |
|      45 | 0x2594      |        9620 |
|      46 | 0x2595      |        9621 |
|      47 | 0x2596      |        9622 |
|      48 | 0x2597      |        9623 |
|      49 | 0x0007      |           7 |
|      50 | 0x2598      |        9624 |
|      51 | 0x2599      |        9625 |
|      52 | 0x259A      |        9626 |
|      53 | 0x259B      |        9627 |
|      54 | 0x259C      |        9628 |
|      55 | 0x259D      |        9629 |
|      56 | 0x259E      |        9630 |
|      57 | 0x259F      |        9631 |
|      58 | 0x25A0      |        9632 |
|      59 | 0x15C5      |        5573 |
|      60 | 0x15CA      |        5578 |
|      61 | 0x25A1      |        9633 |
|      62 | 0x25A2      |        9634 |
|      63 | 0x25A3      |        9635 |
|      64 | 0x25A4      |        9636 |
|      65 | 0x25A5      |        9637 |
|      66 | 0x25A6      |        9638 |
|      67 | 0x25A7      |        9639 |
|      68 | 0x25A8      |        9640 |
|      69 | 0x0008      |           8 |
|      70 | 0x25A9      |        9641 |
|      71 | 0x25AA      |        9642 |
|      72 | 0x25AC      |        9644 |
|      73 | 0x15D8      |        5592 |
|      74 | 0x25AD      |        9645 |
|      75 | 0x25AE      |        9646 |
|      76 | 0x25AF      |        9647 |
|      77 | 0x25B0      |        9648 |
|      78 | 0x25B1      |        9649 |
|      79 | 0x25B2      |        9650 |
|      80 | 0x25B3      |        9651 |
|      81 | 0x25B4      |        9652 |
|      82 | 0x25B5      |        9653 |
|      83 | 0x0009      |           9 |
|      84 | 0x25B6      |        9654 |
|      85 | 0x25B7      |        9655 |
|      86 | 0x25B8      |        9656 |
|      87 | 0x25B9      |        9657 |
|      88 | 0x25BA      |        9658 |
|      89 | 0x000A      |          10 |
|      90 | 0x25C4      |        9668 |
|      91 | 0x0307      |         775 |
|      92 | 0x25C5      |        9669 |
|      93 | 0x25C6      |        9670 |
|      94 | 0x25C7      |        9671 |
|      95 | 0x25C8      |        9672 |
|      96 | 0x25C9      |        9673 |
|      97 | 0x25CA      |        9674 |
|      98 | 0x25CB      |        9675 |
|      99 | 0x0013      |          19 |
|     100 | 0x25CC      |        9676 |
|     101 | 0x11FB      |        4603 |
|     102 | 0x11AF      |        4527 |
|     103 | 0x10BE      |        4286 |
|     104 | 0x25CD      |        9677 |
|     105 | 0x1041      |        4161 |
|     106 | 0x25CE      |        9678 |
|     107 | 0x0023      |          35 |
|     108 | 0x25CF      |        9679 |
|     109 | 0x25D0      |        9680 |
|     110 | 0x0005      |           5 |
|     111 | 0x000B      |          11 |
|     112 | 0x25DA      |        9690 |
|     113 | 0x25DB      |        9691 |
|     114 | 0x25DC      |        9692 |
|     115 | 0x25DD      |        9693 |
|     116 | 0x25DE      |        9694 |
|     117 | 0x25DF      |        9695 |
|     118 | 0x25E0      |        9696 |
|     119 | 0x25E1      |        9697 |
|     120 | 0x25E2      |        9698 |
|     121 | 0x25E3      |        9699 |
|     122 | 0x25E4      |        9700 |
|     123 | 0x25E5      |        9701 |
|     124 | 0x25E6      |        9702 |
|     125 | 0x25E7      |        9703 |
|     126 | 0x25E8      |        9704 |
|     127 | 0x25E9      |        9705 |
|     128 | 0x25EA      |        9706 |
|     129 | 0x25EB      |        9707 |
|     130 | 0x25EC      |        9708 |
|     131 | 0x2563      |        9571 |
|     132 | 0x2564      |        9572 |
|     133 | 0x2565      |        9573 |
|     134 | 0x2566      |        9574 |
|     135 | 0x2567      |        9575 |
|     136 | 0x2568      |        9576 |
|     137 | 0x0063      |          99 |
|     138 | 0x2569      |        9577 |
|     139 | 0x256A      |        9578 |
|     140 | 0x256B      |        9579 |
|     141 | 0x256C      |        9580 |
|     142 | 0x256D      |        9581 |
|     143 | 0x256E      |        9582 |
|     144 | 0x256F      |        9583 |
|     145 | 0x2570      |        9584 |
|     146 | 0x2572      |        9586 |
|     147 | 0x2573      |        9587 |
|     148 | 0x2574      |        9588 |
|     149 | 0x000C      |          12 |
|     150 | 0x2571      |        9585 |
|     151 | 0x002E      |          46 |
|     152 | 0x88F0      |       35056 |
|     153 | 0xFFFF4218  |  4294918680 |
|     154 | 0xFFFFE3E1  |  4294960097 |
|     155 | 0x8AC4      |       35524 |
|     156 | 0xFFFF1C83  |  4294909059 |
|     157 | 0xFFFFE637  |  4294960695 |
|     158 | 0x8EA7      |       36519 |
|     159 | 0xFFFF457C  |  4294919548 |
|     160 | 0xFFFFE3DD  |  4294960093 |
|     161 | 0x07D9      |        2009 |
|     162 | 0x02F1      |         753 |
|     163 | 0x2575      |        9589 |
|     164 | 0x2576      |        9590 |
|     165 | 0x2577      |        9591 |
|     166 | 0x2578      |        9592 |
|     167 | 0x2584      |        9604 |
|     168 | 0x02F2      |         754 |
|     169 | 0x2579      |        9593 |
|     170 | 0x257A      |        9594 |
|     171 | 0x257B      |        9595 |
|     172 | 0x02F3      |         755 |
|     173 | 0x257C      |        9596 |
|     174 | 0x257D      |        9597 |
|     175 | 0x257E      |        9598 |
|     176 | 0x257F      |        9599 |
|     177 | 0x02F4      |         756 |
|     178 | 0x2580      |        9600 |
|     179 | 0x2581      |        9601 |
|     180 | 0x2582      |        9602 |
|     181 | 0x2583      |        9603 |
|     182 | 0x0400      |        1024 |
|     183 | 0x7C2A      |       31786 |
|     184 | 0xFFFF394A  |  4294916426 |
|     185 | 0x090D      |        2317 |
|     186 | 0x00FA      |         250 |
|     187 | 0x0028      |          40 |
|     188 | 0x7BEB      |       31723 |
|     189 | 0xFFFF35A7  |  4294915495 |
|     190 | 0x000D      |          13 |
|     191 | 0x7C0E      |       31758 |
|     192 | 0xFFFF3888  |  4294916232 |
|     193 | 0x2A18      |       10776 |
|     194 | 0x2A19      |       10777 |
|     195 | 0x2A58      |       10840 |
|     196 | 0x2A59      |       10841 |
|     197 | 0x2A91      |       10897 |
|     198 | 0x2A92      |       10898 |
|     199 | 0x2A93      |       10899 |
|     200 | 0x7B9B      |       31643 |
|     201 | 0xFFFF502D  |  4294922285 |
|     202 | 0x0944      |        2372 |
|     203 | 0x8B7E      |       35710 |
|     204 | 0xFFFF4464  |  4294919268 |
|     205 | 0x08AD      |        2221 |
|     206 | 0x8993      |       35219 |
|     207 | 0xFFFF3095  |  4294914197 |
|     208 | 0x8DA6      |       36262 |
|     209 | 0xFFFF2BCF  |  4294912975 |
|     210 | 0xFFFFE633  |  4294960691 |
|     211 | 0x07F6      |        2038 |
|     212 | 0x8DBA      |       36282 |
|     213 | 0xFFFF494D  |  4294920525 |
|     214 | 0x000F      |          15 |
|     215 | 0x85F7      |       34295 |
|     216 | 0xFFFF598F  |  4294924687 |
|     217 | 0x1DE92     |      122514 |
|     218 | 0xFFFFE292  |  4294959762 |
|     219 | 0x0F71      |        3953 |
|     220 | 0x1E003     |      122883 |
|     221 | 0xFFFFE958  |  4294961496 |
|     222 | 0x228E6     |      141542 |
|     223 | 0xFFFFF8B3  |  4294965427 |
|     224 | 0xFFFFF831  |  4294965297 |
|     225 | 0x33C7      |       13255 |
|     226 | 0xFFFEFBAD  |  4294900653 |
|     227 | 0xFFFFE890  |  4294961296 |
|     228 | 0x07A5      |        1957 |
|     229 | 0x859F      |       34207 |
|     230 | 0xFFFF424C  |  4294918732 |
|     231 | 0x816A      |       33130 |
|     232 | 0xFFFF443D  |  4294919229 |
|     233 | 0x8508      |       34056 |
|     234 | 0xFFFF4055  |  4294918229 |
|     235 | 0xFFFFE397  |  4294960023 |
|     236 | 0x840E      |       33806 |
|     237 | 0xFFFF2D02  |  4294913282 |
|     238 | 0x876C      |       34668 |
|     239 | 0xFFFF3E6F  |  4294917743 |
|     240 | 0xFFFFE441  |  4294960193 |
|     241 | 0x760C      |       30220 |
|     242 | 0xFFFF46C1  |  4294919873 |
|     243 | 0xFFFFE268  |  4294959720 |
|     244 | 0x8597      |       34199 |
|     245 | 0xFFFF431B  |  4294918939 |
|     246 | 0x8893      |       34963 |
|     247 | 0xFFFF2A66  |  4294912614 |
|     248 | 0x7444      |       29764 |
|     249 | 0xFFFF4A69  |  4294920809 |
|     250 | 0xFFFFE18A  |  4294959498 |
|     251 | 0x6BDA      |       27610 |
|     252 | 0xFFFF589C  |  4294924444 |
|     253 | 0xFFFFE188  |  4294959496 |
|     254 | 0x84D4      |       34004 |
|     255 | 0xFFFF455A  |  4294919514 |
|     256 | 0x847D      |       33917 |
|     257 | 0xFFFF3AF5  |  4294916853 |
|     258 | 0xFFFFE5B3  |  4294960563 |
|     259 | 0x0077      |         119 |
|     260 | 0x0021      |          33 |
|     261 | 0x00AD      |         173 |
|     262 | 0x0087      |         135 |
|     263 | 0x00AC      |         172 |
|     264 | 0x00B4      |         180 |
|     265 | 0x8897      |       34967 |
|     266 | 0xFFFF44BC  |  4294919356 |
|     267 | 0x0801      |        2049 |
|     268 | 0x7B5A      |       31578 |
|     269 | 0xFFFF4CEF  |  4294921455 |
|     270 | 0x712F      |       28975 |
|     271 | 0xFFFF4D61  |  4294921569 |
|     272 | 0xFFFFE184  |  4294959492 |
|     273 | 0x232C      |        9004 |
|     274 | 0x232D      |        9005 |
|     275 | 0x2336      |        9014 |
|     276 | 0x2337      |        9015 |
|     277 | 0x2340      |        9024 |
|     278 | 0x2348      |        9032 |
|     279 | 0x70EB      |       28907 |
|     280 | 0xFFFF4BD7  |  4294921175 |
|     281 | 0x0805      |        2053 |
|     282 | 0x63E2      |       25570 |
|     283 | 0xFFFF4CBD  |  4294921405 |
|     284 | 0x645C      |       25692 |
|     285 | 0xFFFF4F2F  |  4294922031 |
|     286 | 0x8B7A      |       35706 |
|     287 | 0xFFFF3660  |  4294915680 |
|     288 | 0xFFFF432A  |  4294918954 |
|     289 | 0x674C      |       26444 |
|     290 | 0xFFFF49BD  |  4294920637 |
|     291 | 0x6A86      |       27270 |
|     292 | 0xFFFF552A  |  4294923562 |
|     293 | 0x83E2      |       33762 |
|     294 | 0xFFFF4C02  |  4294921218 |
|     295 | 0x9044      |       36932 |
|     296 | 0xFFFF2782  |  4294911874 |
|     297 | 0x8D83      |       36227 |
|     298 | 0xFFFF256F  |  4294911343 |
|     299 | 0x0168      |         360 |
|     300 | 0x0438      |        1080 |
|     301 | 0x0439      |        1081 |
|     302 | 0x690A      |       26890 |
|     303 | 0xFFFF47E8  |  4294920168 |
|     304 | 0x822A      |       33322 |
|     305 | 0xFFFF44C2  |  4294919362 |
|     306 | 0x82FB      |       33531 |
|     307 | 0xFFFF41EE  |  4294918638 |
|     308 | 0x6D38      |       27960 |
|     309 | 0xFFFF5250  |  4294922832 |
|     310 | 0x66A4      |       26276 |
|     311 | 0xFFFF5422  |  4294923298 |
|     312 | 0x062B      |        1579 |
|     313 | 0x893B      |       35131 |
|     314 | 0xFFFF4E2F  |  4294921775 |
|     315 | 0x62B3      |       25267 |
|     316 | 0xFFFF45D1  |  4294919633 |
|     317 | 0x8962      |       35170 |
|     318 | 0xFFFF43E5  |  4294919141 |
|     319 | 0x7C48      |       31816 |
|     320 | 0xFFFF1B5C  |  4294908764 |
|     321 | 0x638B      |       25483 |
|     322 | 0xFFFF4577  |  4294919543 |
|     323 | 0x7B8A      |       31626 |
|     324 | 0xFFFF466B  |  4294919787 |
|     325 | 0x0820      |        2080 |
|     326 | 0x6431      |       25649 |
|     327 | 0xFFFF44F2  |  4294919410 |
|     328 | 0x25D1      |        9681 |
|     329 | 0x25D2      |        9682 |
|     330 | 0x1055      |        4181 |
|     331 | 0x18F7      |        6391 |
|     332 | 0x25D4      |        9684 |
|     333 | 0x1056      |        4182 |
|     334 | 0x25D5      |        9685 |
|     335 | 0x25D6      |        9686 |
|     336 | 0x25D7      |        9687 |
|     337 | 0x25D8      |        9688 |
|     338 | 0x826A      |       33386 |
|     339 | 0xFFFF4AED  |  4294920941 |
|     340 | 0x6745      |       26437 |
|     341 | 0xFFFF51F0  |  4294922736 |
|     342 | 0x66FC      |       26364 |
|     343 | 0xFFFF5660  |  4294923872 |
|     344 | 0x0030      |          48 |
|     345 | 0x81D9      |       33241 |
|     346 | 0xFFFF2FF0  |  4294914032 |
|     347 | 0x6576      |       25974 |
|     348 | 0xFFFF560D  |  4294923789 |
|     349 | 0x26AF      |        9903 |
|     350 | 0x26B0      |        9904 |
|     351 | 0x26D5      |        9941 |
|     352 | 0x26D6      |        9942 |
|     353 | 0x26D7      |        9943 |
|     354 | 0x27DD      |       10205 |
|     355 | 0x27DE      |       10206 |
|     356 | 0x8BEB      |       35819 |
|     357 | 0xFFFF407D  |  4294918269 |
|     358 | 0x7B60      |       31584 |
|     359 | 0xFFFF470E  |  4294919950 |
|     360 | 0x6F7B      |       28539 |
|     361 | 0xFFFF4A1B  |  4294920731 |
|     362 | 0x016C      |         364 |
|     363 | 0x0086      |         134 |
|     364 | 0x006F      |         111 |
|     365 | 0x0121      |         289 |
|     366 | 0x00BF      |         191 |
|     367 | 0x00AF      |         175 |
|     368 | 0x0119      |         281 |
|     369 | 0x015E      |         350 |
|     370 | 0x0054      |          84 |
|     371 | 0x00B2      |         178 |
|     372 | 0x0034      |          52 |
|     373 | 0x009C      |         156 |
|     374 | 0x0185      |         389 |
|     375 | 0x0172      |         370 |
|     376 | 0x012D      |         301 |
|     377 | 0x0177      |         375 |
|     378 | 0x005C      |          92 |
|     379 | 0x01FC      |         508 |
|     380 | 0x00B0      |         176 |
|     381 | 0x0126      |         294 |
|     382 | 0x005A      |          90 |
|     383 | 0x62A6      |       25254 |
|     384 | 0xFFFF4616  |  4294919702 |
|     385 | 0x6E7D      |       28285 |
|     386 | 0xFFFF570E  |  4294924046 |
|     387 | 0x0026      |          38 |
|     388 | 0x68BE      |       26814 |
|     389 | 0xFFFF46A1  |  4294919841 |
|     390 | 0x001D      |          29 |
|     391 | 0x80D1      |       32977 |
|     392 | 0xFFFF509D  |  4294922397 |
|     393 | 0x03DE      |         990 |
|     394 | 0x0024      |          36 |
|     395 | 0x0050      |          80 |
|     396 | 0x5DC4      |       24004 |
|     397 | 0xFFFF1EDB  |  4294909659 |
|     398 | 0x3DA8      |       15784 |
|     399 | 0x0047      |          71 |
|     400 | 0x3DA9      |       15785 |
|     401 | 0x3DAA      |       15786 |
|     402 | 0x3DAB      |       15787 |
|     403 | 0x3DAC      |       15788 |
|     404 | 0x3DAD      |       15789 |
|     405 | 0x3DAE      |       15790 |

## Events

### Event 65535

#### Metadata

| Field        | Value   |
|--------------|---------|
| Entrypoint   | 0x0000  |
| Data Size    | 1 bytes |
| Instructions | 1       |

```
      00 01 02 03 04 05 06 07  08 09 0A 0B 0C 0D 0E 0F
      -- -- -- -- -- -- -- --  -- -- -- -- -- -- -- --
0000: 00                                                .               
```

#### Opcodes

```
  0: 0x0000 [0x00] END_REQSTACK()
```

### Event 65535.1

#### Metadata

| Field        | Value    |
|--------------|----------|
| Entrypoint   | 0x0001   |
| Data Size    | 21 bytes |
| Instructions | 11       |

```
      00 01 02 03 04 05 06 07  08 09 0A 0B 0C 0D 0E 0F
      -- -- -- -- -- -- -- --  -- -- -- -- -- -- -- --
0000:    1D 00 80 23 1E F0 FF  FF 7F 6F 70 1D 01 80 23   ...#.....op...#
0010: 1D 02 80 23 21 00                                 ...#!.          
```

#### Opcodes

```
  0: 0x0001 [0x1D] PRINT_EVENT_MESSAGE(message_id=9549*)
    → "Now that everyone is off recruiting in the Middle Lands, I've been left alone to deal with President Naja's mood swi...\u007F1\u0000\u0007"
  1: 0x0004 [0x23] WAIT_FOR_DIALOG_INTERACTION
  2: 0x0005 [0x1E] EventEntity looks at LocalPlayer and starts talking
  3: 0x000A [0x6F] WAIT_FRAME_DELAY: Yield until WaitTime reaches zero
  4: 0x000B [0x70] WAIT_ENTITY_RENDER_FLAG: Wait while EventEntity->Render.Flags3 bit 2 is set (cancel turn if not)
  5: 0x000C [0x1D] PRINT_EVENT_MESSAGE(message_id=9550*)
    → "Ah...that is say, it's so quiet with only the two of us.\u007F1\u0000\u0007"
  6: 0x000F [0x23] WAIT_FOR_DIALOG_INTERACTION
  7: 0x0010 [0x1D] PRINT_EVENT_MESSAGE(message_id=9551*)
    → "What? Why are you looking at me like that!?\u007F1\u0000\u0007"
  8: 0x0013 [0x23] WAIT_FOR_DIALOG_INTERACTION
  9: 0x0014 [0x21] END_EVENT
 10: 0x0015 [0x00] END_REQSTACK()
```

### Event 65535.2

#### Metadata

| Field        | Value      |
|--------------|------------|
| Entrypoint   | 0x0016     |
| Data Size    | 1095 bytes |
| Instructions | 373        |

```
      00 01 02 03 04 05 06 07  08 09 0A 0B 0C 0D 0E 0F
      -- -- -- -- -- -- -- --  -- -- -- -- -- -- -- --
0010:                   1E F0  FF FF 7F 6F 70 1D 03 80        .....op...
0020: 23 1D 04 80 23 24 05 80  06 80 06 80 25 02 00 10  #...#$......%...
0030: 06 80 00 44 00 1D 07 80  23 1D 08 80 23 1D 09 80  ...D....#...#...
0040: 23 01 58 04 02 00 10 0A  80 00 6E 00 1D 0B 80 23  #.X.......n....#
0050: 1D 0C 80 23 1D 0D 80 23  1D 0E 80 23 1D 0F 80 23  ...#...#...#...#
0060: 1D 10 80 23 1C 11 80 1D  12 80 23 01 58 04 02 00  ...#......#.X...
0070: 10 13 80 00 91 00 1D 14  80 23 1D 15 80 23 1D 16  .........#...#..
0080: 80 23 1D 17 80 23 1D 18  80 23 1D 19 80 23 01 58  .#...#...#...#.X
0090: 04 02 00 10 1A 80 00 63  03 03 01 10 0A 80 43 00  .......c......C.
00A0: 43 01 02 02 10 1B 80 04  5C 03 02 02 10 1C 80 03  C.......\.......
00B0: 37 01 1D 1D 80 23 1D 1E  80 23 1D 1F 80 23 1D 20  7....#...#...#. 
00C0: 80 23 13 00 00 1A 80 02  00 00 06 80 80 DA 00 1D  .#..............
00D0: 21 80 23 1D 22 80 23 01  19 01 02 00 00 0A 80 80  !.#.".#.........
00E0: ED 00 1D 23 80 23 1D 24  80 23 01 19 01 02 00 00  ...#.#.$.#......
00F0: 13 80 80 00 01 1D 25 80  23 1D 26 80 23 01 19 01  ......%.#.&.#...
0100: 02 00 00 1A 80 80 19 01  1D 27 80 23 1C 28 80 48  .........'.#.(.H
0110: 29 80 1D 2A 80 23 01 19  01 1D 2B 80 23 1D 2C 80  )..*.#....+.#.,.
0120: 23 1C 28 80 1D 2D 80 23  1D 2E 80 23 1D 2F 80 23  #.(..-.#...#./.#
0130: 1D 30 80 23 01 59 03 02  02 10 31 80 03 B9 01 1D  .0.#.Y....1.....
0140: 1D 80 23 1D 32 80 23 1D  33 80 23 1D 34 80 23 24  ..#.2.#.3.#.4.#$
0150: 35 80 06 80 06 80 25 02  00 10 06 80 00 76 01 1D  5.....%......v..
0160: 36 80 23 1D 37 80 23 1D  38 80 23 1D 39 80 23 1D  6.#.7.#.8.#.9.#.
0170: 3A 80 23 01 B6 01 02 00  10 0A 80 00 9B 01 03 03  :.#.............
0180: 10 3B 80 03 04 10 3C 80  1D 3D 80 23 1D 3E 80 23  .;....<..=.#.>.#
0190: 1D 3F 80 23 1D 40 80 23  01 B6 01 02 00 10 13 80  .?.#.@.#........
01A0: 00 B6 01 1D 41 80 23 1D  42 80 23 1D 43 80 23 1D  ....A.#.B.#.C.#.
01B0: 44 80 23 01 B6 01 01 59  03 02 02 10 45 80 03 22  D.#....Y....E.."
01C0: 02 1D 46 80 23 1D 47 80  23 1D 34 80 23 24 48 80  ..F.#.G.#.4.#$H.
01D0: 06 80 06 80 25 02 00 10  06 80 00 F1 01 03 03 10  ....%...........
01E0: 49 80 1D 4A 80 23 1D 4B  80 23 1D 4C 80 23 01 1F  I..J.#.K.#.L.#..
01F0: 02 02 00 10 0A 80 00 08  02 1D 4D 80 23 1D 4E 80  ..........M.#.N.
0200: 23 1D 4F 80 23 01 1F 02  02 00 10 13 80 00 1F 02  #.O.#...........
0210: 1D 50 80 23 1D 51 80 23  1D 52 80 23 01 1F 02 01  .P.#.Q.#.R.#....
0220: 59 03 02 02 10 53 80 03  54 02 03 03 10 3B 80 03  Y....S..T....;..
0230: 04 10 3C 80 1D 54 80 23  1D 55 80 23 1D 56 80 23  ..<..T.#.U.#.V.#
0240: 1D 57 80 23 1D 58 80 23  03 01 10 1B 80 43 00 43  .W.#.X.#.....C.C
0250: 01 01 59 03 02 02 10 59  80 03 FA 02 1D 5A 80 23  ..Y....Y.....Z.#
0260: 66 53 80 8D 20 03 01 8D  20 03 01 74 6C 6B 30 03  fS.. ... ..tlk0.
0270: 02 10 5B 80 1D 5C 80 23  1D 5D 80 23 66 53 80 8D  ..[..\.#.].#fS..
0280: 20 03 01 8D 20 03 01 74  6C 6B 31 03 02 10 5B 80   ... ..tlk1...[.
0290: 1D 5E 80 23 1D 5F 80 23  1D 60 80 23 1D 61 80 23  .^.#._.#.`.#.a.#
02A0: 1D 62 80 23 6E 8D 20 03  01 63 80 99 8D 20 03 01  .b.#n. ..c... ..
02B0: 99 8D 20 03 01 1D 64 80  23 03 02 10 65 80 03 03  .. ...d.#...e...
02C0: 10 66 80 03 04 10 67 80  1D 68 80 23 03 05 10 69  .f....g..h.#...i
02D0: 80 1D 6A 80 23 6E 8D 20  03 01 6B 80 99 8D 20 03  ..j.#n. ..k... .
02E0: 01 99 8D 20 03 01 1D 6C  80 23 1D 6D 80 23 03 01  ... ...l.#.m.#..
02F0: 10 6E 80 43 00 43 01 01  59 03 02 02 10 6F 80 03  .n.C.C..Y....o..
0300: 29 03 1D 1D 80 23 1D 70  80 23 1D 71 80 23 1D 72  )....#.p.#.q.#.r
0310: 80 23 1D 73 80 23 1D 74  80 23 1D 75 80 23 1D 76  .#.s.#.t.#.u.#.v
0320: 80 23 1D 77 80 23 01 59  03 1D 1D 80 23 1D 78 80  .#.w.#.Y....#.x.
0330: 23 1D 79 80 23 1D 7A 80  23 1D 7B 80 23 1D 7C 80  #.y.#.z.#.{.#.|.
0340: 23 1D 7D 80 23 1D 7E 80  23 1D 7F 80 23 1D 80 80  #.}.#.~.#...#...
0350: 23 1D 81 80 23 1D 82 80  23 01 60 03 1D 83 80 23  #...#...#.`....#
0360: 01 58 04 02 00 10 1B 80  00 1B 04 03 01 10 0A 80  .X..............
0370: 43 00 43 01 02 02 10 6F  80 00 93 03 1D 84 80 23  C.C....o.......#
0380: 1D 85 80 23 1D 86 80 23  1D 87 80 23 1D 88 80 23  ...#...#...#...#
0390: 01 25 00 03 01 10 89 80  43 00 43 01 02 02 10 0A  .%......C.C.....
03A0: 80 00 BC 03 1D 84 80 23  1D 85 80 23 1D 86 80 23  .......#...#...#
03B0: 1D 87 80 23 1D 88 80 23  1D 8A 80 23 03 01 10 13  ...#...#...#....
03C0: 80 43 00 43 01 02 02 10  0A 80 80 D8 03 1D 8B 80  .C.C............
03D0: 23 1D 8C 80 23 01 18 04  02 02 10 13 80 80 E7 03  #...#...........
03E0: 1D 8D 80 23 01 18 04 02  02 10 1A 80 80 F6 03 1D  ...#............
03F0: 8E 80 23 01 18 04 02 02  10 1B 80 80 05 04 1D 8F  ..#.............
0400: 80 23 01 18 04 02 02 10  6E 80 80 18 04 1D 90 80  .#......n.......
0410: 23 1D 91 80 23 01 18 04  01 58 04 02 00 10 6E 80  #...#....X....n.
0420: 00 32 04 1D 92 80 23 1D  93 80 23 1D 94 80 23 01  .2....#...#...#.
0430: 58 04 02 00 10 1C 80 00  58 04 6E F8 FF FF 7F 95  X.......X.n.....
0440: 80 99 F8 FF FF 7F 99 F8  FF FF 7F 1C 28 80 1D 96  ............(...
0450: 80 23 01 5B 04 01 58 04  01 25 00 21 00           .#.[..X..%.!.   
```

#### Opcodes

```
  0: 0x0016 [0x1E] EventEntity looks at LocalPlayer and starts talking
  1: 0x001B [0x6F] WAIT_FRAME_DELAY: Yield until WaitTime reaches zero
  2: 0x001C [0x70] WAIT_ENTITY_RENDER_FLAG: Wait while EventEntity->Render.Flags3 bit 2 is set (cancel turn if not)
  3: 0x001D [0x1D] PRINT_EVENT_MESSAGE(message_id=9552*)
    → "Me? Yes, I'm here to answer all your mercenary questions.\u007F1\u0000\u0007"
  4: 0x0020 [0x23] WAIT_FOR_DIALOG_INTERACTION
  5: 0x0021 [0x1D] PRINT_EVENT_MESSAGE(message_id=9553*)
    → "Is there anything you'd like to know before you get started?\u007F1\u0000\u0007"
  6: 0x0024 [0x23] WAIT_FOR_DIALOG_INTERACTION
  7: 0x0025 [0x24] CREATE_DIALOG(message_id=9554*, default_option=0*, option_flags=0*)
    → "What do you ask about?\u0007\u000BMercenaries.\u0007Salaheem's Sentinels.\u0007The Commissions Agency.\u0007President Naja.\u0007Mercenary assessments.\u0007Salary.\u0007Nothing right now.\u007F1\u0000\u0007"
  8: 0x002C [0x25] WAIT_DIALOG_SELECT()
  9: 0x002D [0x02] IF !(Work_Zone[0] == 0*) GOTO 0x0044
 10: 0x0035 [0x1D] PRINT_EVENT_MESSAGE(message_id=9555*)
    → "Mercenaries are at the mercy of President Na...\u0007Ah...that is to say, your road to the top depends on your dedication.\u007F1\u0000\u0007"
 11: 0x0038 [0x23] WAIT_FOR_DIALOG_INTERACTION
 12: 0x0039 [0x1D] PRINT_EVENT_MESSAGE(message_id=9556*)
    → "Once your mercenary rank starts to rise, so will the size of your bonuses!\u0007(Not that I've seen anyone receive a bonus lately...)\u007F1\u0000\u0007"
 13: 0x003C [0x23] WAIT_FOR_DIALOG_INTERACTION
 14: 0x003D [0x1D] PRINT_EVENT_MESSAGE(message_id=9557*)
    → "You'll make a fortune! Really!\u0007(\u00072Fortune\u00073 is such a relative word, though...)\u007F1\u0000\u0007"
 15: 0x0040 [0x23] WAIT_FOR_DIALOG_INTERACTION
 16: 0x0041 [0x01] GOTO 0x0458
 17: 0x0044 [0x02] IF !(Work_Zone[0] == 1*) GOTO 0x006E
 18: 0x004C [0x1D] PRINT_EVENT_MESSAGE(message_id=9558*)
    → "\u00072Salaheem's Sentinels is an upstanding mercenary company with direct authorization from Her Magnificence, the Empress.\u007F1\u0000\u0007"
 19: 0x004F [0x23] WAIT_FOR_DIALOG_INTERACTION
 20: 0x0050 [0x1D] PRINT_EVENT_MESSAGE(message_id=9559*)
    → "High salary. Top-class benefits.\u0007Transportation allowance negotiable. Company dorm available.\u007F1\u0000\u0007"
 21: 0x0053 [0x23] WAIT_FOR_DIALOG_INTERACTION
 22: 0x0054 [0x1D] PRINT_EVENT_MESSAGE(message_id=9560*)
    → "With the right attitude, a monthly salary of 10 million gil is not beyond your reach.\u007F1\u0000\u0007"
 23: 0x0057 [0x23] WAIT_FOR_DIALOG_INTERACTION
 24: 0x0058 [0x1D] PRINT_EVENT_MESSAGE(message_id=9561*)
    → "Experience a plus.\u0007On the lookout for adventurers with extensive battle experience.\u00073\u007F1\u0000\u0007"
 25: 0x005B [0x23] WAIT_FOR_DIALOG_INTERACTION
 26: 0x005C [0x1D] PRINT_EVENT_MESSAGE(message_id=9562*)
    → "That's from our company flier. Pretty impressive, don't you think?\u007F1\u0000\u0007"
 27: 0x005F [0x23] WAIT_FOR_DIALOG_INTERACTION
 28: 0x0060 [0x1D] PRINT_EVENT_MESSAGE(message_id=9563*)
    → "They're signed by President Naja herself!\u007F1\u0000\u0007"
 29: 0x0063 [0x23] WAIT_FOR_DIALOG_INTERACTION
 30: 0x0064 [0x1C] WAIT(60* ticks)
 31: 0x0067 [0x1D] PRINT_EVENT_MESSAGE(message_id=9564*)
    → "What?\u0007You think it's over-the-top?\u007F1\u0000\u0007"
 32: 0x006A [0x23] WAIT_FOR_DIALOG_INTERACTION
 33: 0x006B [0x01] GOTO 0x0458
 34: 0x006E [0x02] IF !(Work_Zone[0] == 2*) GOTO 0x0091
 35: 0x0076 [0x1D] PRINT_EVENT_MESSAGE(message_id=9565*)
    → "The Commissions Agency is the place where you sign up for all your mercenary missions.\u0007Talk to one of the employees for a full explanation on the type of work available.\u007F1\u0000\u0007"
 36: 0x0079 [0x23] WAIT_FOR_DIALOG_INTERACTION
 37: 0x007A [0x1D] PRINT_EVENT_MESSAGE(message_id=9566*)
    → "You can find the Commissions Agency in Aht Urhgan Whitegate. Head east from Serpentking Square to the Way of the Devout. You can't miss it.\u007F1\u0000\u0007"
 38: 0x007D [0x23] WAIT_FOR_DIALOG_INTERACTION
 39: 0x007E [0x1D] PRINT_EVENT_MESSAGE(message_id=9567*)
    → "Why don't you try going there yourself?\u0007They're much better at explaining things than I am!\u007F1\u0000\u0007"
 40: 0x0081 [0x23] WAIT_FOR_DIALOG_INTERACTION
 41: 0x0082 [0x1D] PRINT_EVENT_MESSAGE(message_id=9568*)
    → "I will warn you, though.\u007F1\u0000\u0007"
 42: 0x0085 [0x23] WAIT_FOR_DIALOG_INTERACTION
 43: 0x0086 [0x1D] PRINT_EVENT_MESSAGE(message_id=9569*)
    → "Think of yourself as a walking advertisement for Salaheem's Sentinels.\u007F1\u0000\u0007"
 44: 0x0089 [0x23] WAIT_FOR_DIALOG_INTERACTION
 45: 0x008A [0x1D] PRINT_EVENT_MESSAGE(message_id=9570*)
    → "If you bring shame onto the company, the president will introduce you to her spiky \u00072friend.\u00073\u007F1\u0000\u0007"
 46: 0x008D [0x23] WAIT_FOR_DIALOG_INTERACTION
 47: 0x008E [0x01] GOTO 0x0458
 48: 0x0091 [0x02] IF !(Work_Zone[0] == 3*) GOTO 0x0363
 49: 0x0099 [0x03] Work_Zone[1] = 1*
 50: 0x009E [0x43] SEND_EVENT_UPDATE: Send pending tag to server (packet 0x005B)
 51: 0x00A0 [0x43] SEND_EVENT_UPDATE: Check pending flag (skip if not pending)
 52: 0x00A2 [0x02] IF !(Work_Zone[2] < 4*) GOTO 0x035C
 53: 0x00AA [0x02] IF !(Work_Zone[2] >= 6*) GOTO 0x0137
 54: 0x00B2 [0x1D] PRINT_EVENT_MESSAGE(message_id=9605*)
    → "Ummm, well, okay then!\u0007I don't usually tell this sort of thing to \u000C\u0000[non-employees/second class privates/first class privates/superior privates/lance corporals/corporals/sergeants/sergeant majors/chief sergeants/second lieutenants/first lieutenants/captains]...\u007F1\u0000\u0007"
 55: 0x00B5 [0x23] WAIT_FOR_DIALOG_INTERACTION
 56: 0x00B6 [0x1D] PRINT_EVENT_MESSAGE(message_id=9606*)
    → "(Finally, a chance to pass on some of the gossip I've heard from my colleagues over the years...)\u007F1\u0000\u0007"
 57: 0x00B9 [0x23] WAIT_FOR_DIALOG_INTERACTION
 58: 0x00BA [0x1D] PRINT_EVENT_MESSAGE(message_id=9607*)
    → "Let's just start with one little tidbit, shall we?\u0007(I wouldn't want to waste all that prime gossip all at once.)\u007F1\u0000\u0007"
 59: 0x00BD [0x23] WAIT_FOR_DIALOG_INTERACTION
 60: 0x00BE [0x1D] PRINT_EVENT_MESSAGE(message_id=9608*)
    → "President Naja's favorite food is fish.\u0007(According to Amutiyaal...)\u007F1\u0000\u0007"
 61: 0x00C1 [0x23] WAIT_FOR_DIALOG_INTERACTION
 62: 0x00C2 [0x13] ExtData[1]->WorkLocal[0] = rand() % 3*
 63: 0x00C7 [0x02] IF !(ExtData[1]->WorkLocal[0] == 0*) GOTO 0x00DA
 64: 0x00CF [0x1D] PRINT_EVENT_MESSAGE(message_id=9609*)
    → "And the fish she loves the most is mercanbaligi sashimi.\u0007(Not the fish mithkabob I was expecting...)\u007F1\u0000\u0007"
 65: 0x00D2 [0x23] WAIT_FOR_DIALOG_INTERACTION
 66: 0x00D3 [0x1D] PRINT_EVENT_MESSAGE(message_id=9610*)
    → "Apparently, her best memory is eating raw Gugrusaurus with rock salt and olive oil on a fishing boat.\u007F1\u0000\u0007"
 67: 0x00D6 [0x23] WAIT_FOR_DIALOG_INTERACTION
 68: 0x00D7 [0x01] GOTO 0x0119
 69: 0x00DA [0x02] IF !(ExtData[1]->WorkLocal[0] == 1*) GOTO 0x00ED
 70: 0x00E2 [0x1D] PRINT_EVENT_MESSAGE(message_id=9611*)
    → "And when she's feeling listless and tired she just likes to roast a whole fish over a fire and eat it right off the stick.\u007F1\u0000\u0007"
 71: 0x00E5 [0x23] WAIT_FOR_DIALOG_INTERACTION
 72: 0x00E6 [0x1D] PRINT_EVENT_MESSAGE(message_id=9612*)
    → "(Not that I've ever seen or heard of President Naja lacking energy...)\u007F1\u0000\u0007"
 73: 0x00E9 [0x23] WAIT_FOR_DIALOG_INTERACTION
 74: 0x00EA [0x01] GOTO 0x0119
 75: 0x00ED [0x02] IF !(ExtData[1]->WorkLocal[0] == 2*) GOTO 0x0100
 76: 0x00F5 [0x1D] PRINT_EVENT_MESSAGE(message_id=9613*)
    → "Although, I have heard she can never forget the taste of a freshly caught Bibiki urchin.\u0007(I wonder if President Naja can swim...)\u007F1\u0000\u0007"
 77: 0x00F8 [0x23] WAIT_FOR_DIALOG_INTERACTION
 78: 0x00F9 [0x1D] PRINT_EVENT_MESSAGE(message_id=9614*)
    → "Seawater gives them just the right amount of salty seasoning, apparently.\u007F1\u0000\u0007"
 79: 0x00FC [0x23] WAIT_FOR_DIALOG_INTERACTION
 80: 0x00FD [0x01] GOTO 0x0119
 81: 0x0100 [0x02] IF !(ExtData[1]->WorkLocal[0] == 3*) GOTO 0x0119
 82: 0x0108 [0x1D] PRINT_EVENT_MESSAGE(message_id=9615*)
    → "This is just a theory, but I think there's one fish that President Naja loves more than any other...\u007F1\u0000\u0007"
 83: 0x010B [0x23] WAIT_FOR_DIALOG_INTERACTION
 84: 0x010C [0x1C] WAIT(30* ticks)
 85: 0x010F [0x48] [System] [9616*]:
    → "\u001F\u000FAbquhbah is staring at \u0008's mercenary badge...\u0000\u0007"
 86: 0x0112 [0x1D] PRINT_EVENT_MESSAGE(message_id=9617*)
    → "What do you think it might be?\u007F1\u0000\u0007"
 87: 0x0115 [0x23] WAIT_FOR_DIALOG_INTERACTION
 88: 0x0116 [0x01] GOTO 0x0119

SUBROUTINE_0119:
 89: 0x0119 [0x1D] PRINT_EVENT_MESSAGE(message_id=9618*)
    → "President Naja is only interested in the freshest fish.\u007F1\u0000\u0007"
 90: 0x011C [0x23] WAIT_FOR_DIALOG_INTERACTION
 91: 0x011D [0x1D] PRINT_EVENT_MESSAGE(message_id=9619*)
    → "And she seems to know the names of foods that I've never even heard of.\u0007(Where is President Naja from originally anyway...?)\u007F1\u0000\u0007"
 92: 0x0120 [0x23] WAIT_FOR_DIALOG_INTERACTION
 93: 0x0121 [0x1C] WAIT(30* ticks)
 94: 0x0124 [0x1D] PRINT_EVENT_MESSAGE(message_id=9620*)
    → "Oh! Could she be affiliated with the Epicureans in the Shararat Teahouse?\u0007(I don't even want to think about that!)\u007F1\u0000\u0007"
 95: 0x0127 [0x23] WAIT_FOR_DIALOG_INTERACTION
 96: 0x0128 [0x1D] PRINT_EVENT_MESSAGE(message_id=9621*)
    → "Oh, yes! A long while ago, someone trying to bribe the president with a freshly caught fish was showered with \u00072spiky affection.\u00073\u0007(Poor Amutiyaal...)\u007F1\u0000\u0007"
 97: 0x012B [0x23] WAIT_FOR_DIALOG_INTERACTION
 98: 0x012C [0x1D] PRINT_EVENT_MESSAGE(message_id=9622*)
    → "So I suggest you refrain from attempting any spontaneous acts of kindness!\u007F1\u0000\u0007"
 99: 0x012F [0x23] WAIT_FOR_DIALOG_INTERACTION
100: 0x0130 [0x1D] PRINT_EVENT_MESSAGE(message_id=9623*)
    → "The president's ignorance of your existence is bliss!\u007F1\u0000\u0007"
101: 0x0133 [0x23] WAIT_FOR_DIALOG_INTERACTION
102: 0x0134 [0x01] GOTO 0x0359
103: 0x0137 [0x02] IF !(Work_Zone[2] >= 7*) GOTO 0x01B9
104: 0x013F [0x1D] PRINT_EVENT_MESSAGE(message_id=9605*)
    → "Ummm, well, okay then!\u0007I don't usually tell this sort of thing to \u000C\u0000[non-employees/second class privates/first class privates/superior privates/lance corporals/corporals/sergeants/sergeant majors/chief sergeants/second lieutenants/first lieutenants/captains]...\u007F1\u0000\u0007"
105: 0x0142 [0x23] WAIT_FOR_DIALOG_INTERACTION
106: 0x0143 [0x1D] PRINT_EVENT_MESSAGE(message_id=9624*)
    → "All the things I've seen over the past two years I've pushed away into some dark corner of my mind...\u007F1\u0000\u0007"
107: 0x0146 [0x23] WAIT_FOR_DIALOG_INTERACTION
108: 0x0147 [0x1D] PRINT_EVENT_MESSAGE(message_id=9625*)
    → "I'm only going to tell you things about President Naja that pertain to work!\u0007(I wouldn't want to waste that prime gossip all at once.)\u007F1\u0000\u0007"
109: 0x014A [0x23] WAIT_FOR_DIALOG_INTERACTION
110: 0x014B [0x1D] PRINT_EVENT_MESSAGE(message_id=9626*)
    → "So, \u0008.\u0007Pick a time and I'll tell you what President Naja would be doing.\u007F1\u0000\u0007"
111: 0x014E [0x23] WAIT_FOR_DIALOG_INTERACTION
112: 0x014F [0x24] CREATE_DIALOG(message_id=9627*, default_option=0*, option_flags=0*)
    → "Which time do you choose?\u0007\u000B9:00.\u000712:00.\u000717:00.\u007F1\u0000\u0007"
113: 0x0156 [0x25] WAIT_DIALOG_SELECT()
114: 0x0157 [0x02] IF !(Work_Zone[0] == 0*) GOTO 0x0176
115: 0x015F [0x1D] PRINT_EVENT_MESSAGE(message_id=9628*)
    → "At 9:00, President Naja is here, conducting the morning meeting.\u007F1\u0000\u0007"
116: 0x0162 [0x23] WAIT_FOR_DIALOG_INTERACTION
117: 0x0163 [0x1D] PRINT_EVENT_MESSAGE(message_id=9629*)
    → "This is when I report the previous day's profits.\u0007It's also a time for taking attendance and assigning duties.\u007F1\u0000\u0007"
118: 0x0166 [0x23] WAIT_FOR_DIALOG_INTERACTION
119: 0x0167 [0x1D] PRINT_EVENT_MESSAGE(message_id=9630*)
    → "Huh!?\u0007Does anyone else work here besides me?\u007F1\u0000\u0007"
120: 0x016A [0x23] WAIT_FOR_DIALOG_INTERACTION
121: 0x016B [0x1D] PRINT_EVENT_MESSAGE(message_id=9631*)
    → "Why, Ugrihd and Fubruhn, senior employees in the company, are always here in the morning!\u007F1\u0000\u0007"
122: 0x016E [0x23] WAIT_FOR_DIALOG_INTERACTION
123: 0x016F [0x1D] PRINT_EVENT_MESSAGE(message_id=9632*)
    → "You can't tell me you've never heard of them!\u007F1\u0000\u0007"
124: 0x0172 [0x23] WAIT_FOR_DIALOG_INTERACTION
125: 0x0173 [0x01] GOTO 0x01B6
126: 0x0176 [0x02] IF !(Work_Zone[0] == 1*) GOTO 0x019B
127: 0x017E [0x03] Work_Zone[3] = 5573*
128: 0x0183 [0x03] Work_Zone[4] = 5578*
129: 0x0188 [0x1D] PRINT_EVENT_MESSAGE(message_id=9633*)
    → "12:00 is President Naja's lunch time.\u0007She usually eats out...\u007F1\u0000\u0007"
130: 0x018B [0x23] WAIT_FOR_DIALOG_INTERACTION
131: 0x018C [0x1D] PRINT_EVENT_MESSAGE(message_id=9634*)
    → "She often lunches with the officials from the Commissions Agency and discusses business.\u0007(I wish she would invite me occasionally...)\u007F1\u0000\u0007"
132: 0x018F [0x23] WAIT_FOR_DIALOG_INTERACTION
133: 0x0190 [0x1D] PRINT_EVENT_MESSAGE(message_id=9635*)
    → "President Naja's favorite Shararat Teahouse desserts are \u0001\u0005%\u0002\u0001\u0000\u0000 and \u0001\u0005%\u0002\u0002\u0000\u0000.\u007F1\u0000\u0007"
134: 0x0193 [0x23] WAIT_FOR_DIALOG_INTERACTION
135: 0x0194 [0x1D] PRINT_EVENT_MESSAGE(message_id=9636*)
    → "Although, she's so often plagued by thorny problems she rarely has time to sit and enjoy them.\u007F1\u0000\u0007"
136: 0x0197 [0x23] WAIT_FOR_DIALOG_INTERACTION
137: 0x0198 [0x01] GOTO 0x01B6
138: 0x019B [0x02] IF !(Work_Zone[0] == 2*) GOTO 0x01B6
139: 0x01A3 [0x1D] PRINT_EVENT_MESSAGE(message_id=9637*)
    → "At 17:00 the yawning becomes more obvious...\u0007Then sometimes she suddenly starts to clean her precious morning star.\u007F1\u0000\u0007"
140: 0x01A6 [0x23] WAIT_FOR_DIALOG_INTERACTION
141: 0x01A7 [0x1D] PRINT_EVENT_MESSAGE(message_id=9638*)
    → "She brushes off the dust, and polishes the head with a cloth soaked in olive oil...\u007F1\u0000\u0007"
142: 0x01AA [0x23] WAIT_FOR_DIALOG_INTERACTION
143: 0x01AB [0x1D] PRINT_EVENT_MESSAGE(message_id=9639*)
    → "The spikes gleam quite spectacularly after she's finished.\u007F1\u0000\u0007"
144: 0x01AE [0x23] WAIT_FOR_DIALOG_INTERACTION
145: 0x01AF [0x1D] PRINT_EVENT_MESSAGE(message_id=9640*)
    → "That always brings a smile to President Naja's face.\u0007(A frightening sight to see...)\u007F1\u0000\u0007"
146: 0x01B2 [0x23] WAIT_FOR_DIALOG_INTERACTION
147: 0x01B3 [0x01] GOTO 0x01B6

SUBROUTINE_01B6:
148: 0x01B6 [0x01] GOTO 0x0359
149: 0x01B9 [0x02] IF !(Work_Zone[2] >= 8*) GOTO 0x0222
150: 0x01C1 [0x1D] PRINT_EVENT_MESSAGE(message_id=9641*)
    → "All the things I've seen over the past two years I've pushed away into some dark corner of my mind...\u007F1\u0000\u0007"
151: 0x01C4 [0x23] WAIT_FOR_DIALOG_INTERACTION
152: 0x01C5 [0x1D] PRINT_EVENT_MESSAGE(message_id=9642*)
    → "But it's never healthy to suppress your feelings!\u007F1\u0000\u0007"
153: 0x01C8 [0x23] WAIT_FOR_DIALOG_INTERACTION
154: 0x01C9 [0x1D] PRINT_EVENT_MESSAGE(message_id=9626*)
    → "So, \u0008.\u0007Pick a time and I'll tell you what President Naja would be doing.\u007F1\u0000\u0007"
155: 0x01CC [0x23] WAIT_FOR_DIALOG_INTERACTION
156: 0x01CD [0x24] CREATE_DIALOG(message_id=9644*, default_option=0*, option_flags=0*)
    → "What time do you choose?\u0007\u000BMorning.\u0007Afternoon.\u0007Evening.\u007F1\u0000\u0007"
157: 0x01D4 [0x25] WAIT_DIALOG_SELECT()
158: 0x01D5 [0x02] IF !(Work_Zone[0] == 0*) GOTO 0x01F1
159: 0x01DD [0x03] Work_Zone[3] = 5592*
160: 0x01E2 [0x1D] PRINT_EVENT_MESSAGE(message_id=9645*)
    → "In the morning, President Naja always partakes of 2 \u0001\u0005%\u0002\u0001\u0000\u0000.\u007F1\u0000\u0007"
161: 0x01E5 [0x23] WAIT_FOR_DIALOG_INTERACTION
162: 0x01E6 [0x1D] PRINT_EVENT_MESSAGE(message_id=9646*)
    → "Naturally, it falls on me to head out and buy them from the Shararat Teahouse.\u007F1\u0000\u0007"
163: 0x01E9 [0x23] WAIT_FOR_DIALOG_INTERACTION
164: 0x01EA [0x1D] PRINT_EVENT_MESSAGE(message_id=9647*)
    → "Serving cold coffee is asking for an entire day of dark moods, so I always dash on the way back.\u0007(I've built up a fair amount of speed over the years!)\u007F1\u0000\u0007"
165: 0x01ED [0x23] WAIT_FOR_DIALOG_INTERACTION
166: 0x01EE [0x01] GOTO 0x021F
167: 0x01F1 [0x02] IF !(Work_Zone[0] == 1*) GOTO 0x0208
168: 0x01F9 [0x1D] PRINT_EVENT_MESSAGE(message_id=9648*)
    → "After lunch, it's time for the president's catnap.\u0007There's a small room in the back for her private use.\u007F1\u0000\u0007"
169: 0x01FC [0x23] WAIT_FOR_DIALOG_INTERACTION
170: 0x01FD [0x1D] PRINT_EVENT_MESSAGE(message_id=9649*)
    → "It's my job to wake her, but either she sleeps so soundly I can't stir her with the most furious knocking...\u007F1\u0000\u0007"
171: 0x0200 [0x23] WAIT_FOR_DIALOG_INTERACTION
172: 0x0201 [0x1D] PRINT_EVENT_MESSAGE(message_id=9650*)
    → "Or, I find myself ducking from a spike-tipped frenzy!\u0007(I pride myself on my reflexes!)\u007F1\u0000\u0007"
173: 0x0204 [0x23] WAIT_FOR_DIALOG_INTERACTION
174: 0x0205 [0x01] GOTO 0x021F
175: 0x0208 [0x02] IF !(Work_Zone[0] == 2*) GOTO 0x021F
176: 0x0210 [0x1D] PRINT_EVENT_MESSAGE(message_id=9651*)
    → "In the evening, President Naja often heads out without the slightest warning.\u0007When that happens, it's usually some time before she returns.\u007F1\u0000\u0007"
177: 0x0213 [0x23] WAIT_FOR_DIALOG_INTERACTION
178: 0x0214 [0x1D] PRINT_EVENT_MESSAGE(message_id=9652*)
    → "Where do you think she goes, \u0008?\u007F1\u0000\u0007"
179: 0x0217 [0x23] WAIT_FOR_DIALOG_INTERACTION
180: 0x0218 [0x1D] PRINT_EVENT_MESSAGE(message_id=9653*)
    → "I wonder what causes the stormclouds to pass over our president's almost perpetually sunny disposition...\u0007(I need to work on my analytical skills...)\u007F1\u0000\u0007"
181: 0x021B [0x23] WAIT_FOR_DIALOG_INTERACTION
182: 0x021C [0x01] GOTO 0x021F

SUBROUTINE_021F:
183: 0x021F [0x01] GOTO 0x0359
184: 0x0222 [0x02] IF !(Work_Zone[2] >= 9*) GOTO 0x0254
185: 0x022A [0x03] Work_Zone[3] = 5573*
186: 0x022F [0x03] Work_Zone[4] = 5578*
187: 0x0234 [0x1D] PRINT_EVENT_MESSAGE(message_id=9654*)
    → "Do you remember I mentioned that \u0001\u0005%\u0002\u0001\u0000\u0000 and \u0001\u0005%\u0002\u0002\u0000\u0000 from the Shararat Teahouse are two of President Naja's favorite desserts?\u007F1\u0000\u0007"
188: 0x0237 [0x23] WAIT_FOR_DIALOG_INTERACTION
189: 0x0238 [0x1D] PRINT_EVENT_MESSAGE(message_id=9655*)
    → "It seems a shame that she only gets to enjoy them during stressful business lunches.\u007F1\u0000\u0007"
190: 0x023B [0x23] WAIT_FOR_DIALOG_INTERACTION
191: 0x023C [0x1D] PRINT_EVENT_MESSAGE(message_id=9656*)
    → "You see...what I'm trying to say is...\u007F1\u0000\u0007"
192: 0x023F [0x23] WAIT_FOR_DIALOG_INTERACTION
193: 0x0240 [0x1D] PRINT_EVENT_MESSAGE(message_id=9657*)
    → "Maybe you could show appreciation for your president in a more \u00072substantial\u00073 manner.\u007F1\u0000\u0007"
194: 0x0243 [0x23] WAIT_FOR_DIALOG_INTERACTION
195: 0x0244 [0x1D] PRINT_EVENT_MESSAGE(message_id=9658*)
    → "Now that you've reached the rank of Chief Sergeant, I'm sure President Naja will be more than delighted to see how much you value your new position in the company...\u007F1\u0000\u0007"
196: 0x0247 [0x23] WAIT_FOR_DIALOG_INTERACTION
197: 0x0248 [0x03] Work_Zone[1] = 4*
198: 0x024D [0x43] SEND_EVENT_UPDATE: Send pending tag to server (packet 0x005B)
199: 0x024F [0x43] SEND_EVENT_UPDATE: Check pending flag (skip if not pending)
200: 0x0251 [0x01] GOTO 0x0359
201: 0x0254 [0x02] IF !(Work_Zone[2] >= 10*) GOTO 0x02FA
202: 0x025C [0x1D] PRINT_EVENT_MESSAGE(message_id=9668*)
    → "Ummm, well, okay then!\u0007I don't usually tell this sort of thing to \u000C\u0000[non-employees/second class privates/first class privates/superior privates/lance corporals/corporals/sergeants/sergeant majors/chief sergeants/second lieutenants/first lieutenants/captains]...\u007F1\u0000\u0007"
203: 0x025F [0x23] WAIT_FOR_DIALOG_INTERACTION
204: 0x0260 [0x66] LOAD_EXT_SCHEDULER_MAIN: Load scheduler "tlk0" with entities [Abquhbah (ID: 16982157/0x0103208D), Abquhbah (ID: 16982157/0x0103208D)], work=9*
205: 0x026F [0x03] Work_Zone[2] = 775*
206: 0x0274 [0x1D] PRINT_EVENT_MESSAGE(message_id=9669*)
    → "Do you remember the \u0001\u00053\u0002\u0000\u0000\u0000 you delivered to each of the Immortals in the staging areas?\u007F1\u0000\u0007"
207: 0x0277 [0x23] WAIT_FOR_DIALOG_INTERACTION
208: 0x0278 [0x1D] PRINT_EVENT_MESSAGE(message_id=9670*)
    → "Sure you do!\u0007It was one of the first things President Naja asked you to do when you joined the company.\u007F1\u0000\u0007"
209: 0x027B [0x23] WAIT_FOR_DIALOG_INTERACTION
210: 0x027C [0x66] LOAD_EXT_SCHEDULER_MAIN: Load scheduler "tlk1" with entities [Abquhbah (ID: 16982157/0x0103208D), Abquhbah (ID: 16982157/0x0103208D)], work=9*
211: 0x028B [0x03] Work_Zone[2] = 775*
212: 0x0290 [0x1D] PRINT_EVENT_MESSAGE(message_id=9671*)
    → "The \u0001\u00053\u0002\u0000\u0000\u0000 contained a fragrance made with a rare oil. This oil is extracted from a berry that only grows in the nation of Zwha.\u007F1\u0000\u0007"
213: 0x0293 [0x23] WAIT_FOR_DIALOG_INTERACTION
214: 0x0294 [0x1D] PRINT_EVENT_MESSAGE(message_id=9672*)
    → "A nation far, far, unbelievably far to the south...\u007F1\u0000\u0007"
215: 0x0297 [0x23] WAIT_FOR_DIALOG_INTERACTION
216: 0x0298 [0x1D] PRINT_EVENT_MESSAGE(message_id=9673*)
    → "Did you know that President Naja originally came from there?\u0007(I personally had no idea...)\u007F1\u0000\u0007"
217: 0x029B [0x23] WAIT_FOR_DIALOG_INTERACTION
218: 0x029C [0x1D] PRINT_EVENT_MESSAGE(message_id=9674*)
    → "She braved the ridiculously long journey to Aht Urhgan, and then founded her own mercenary company--amazing!\u007F1\u0000\u0007"
219: 0x029F [0x23] WAIT_FOR_DIALOG_INTERACTION
220: 0x02A0 [0x1D] PRINT_EVENT_MESSAGE(message_id=9675*)
    → "I have nothing but admiration for our fearless leader!\u0007But I wonder if there was some other, deeper, reason for her trip...\u007F1\u0000\u0007"
221: 0x02A3 [0x23] WAIT_FOR_DIALOG_INTERACTION
222: 0x02A4 [0x6E] Abquhbah (ID: 16982157/0x0103208D) uses emote 19*
223: 0x02AB [0x99] Wait for Abquhbah (ID: 16982157/0x0103208D) animation to complete
224: 0x02B0 [0x99] Wait for Abquhbah (ID: 16982157/0x0103208D) animation to complete
225: 0x02B5 [0x1D] PRINT_EVENT_MESSAGE(message_id=9676*)
    → "The speculation gets me so excited I can barely sleep at night.\u0007There must be something you can do for me, \u0008.\u007F1\u0000\u0007"
226: 0x02B8 [0x23] WAIT_FOR_DIALOG_INTERACTION
227: 0x02B9 [0x03] Work_Zone[2] = 4603*
228: 0x02BE [0x03] Work_Zone[3] = 4527*
229: 0x02C3 [0x03] Work_Zone[4] = 4286*
230: 0x02C8 [0x1D] PRINT_EVENT_MESSAGE(message_id=9677*)
    → "I've heard of some interesting cures for insomnia: \u0001\u0001\u0001 \u0001\u0005$\u0002\u0000\u0000\u0000, \u0001\u0001\u0001 \u0001\u0005$\u0002\u0001\u0000\u0000, or even \u0001\u0001\u0001 \u0001\u0005$\u0002\u0002\u0000\u0000.\u007F1\u0000\u0007"
231: 0x02CB [0x23] WAIT_FOR_DIALOG_INTERACTION
232: 0x02CC [0x03] Work_Zone[5] = 4161*
233: 0x02D1 [0x1D] PRINT_EVENT_MESSAGE(message_id=9678*)
    → "President Naja suggests I try \u0001\u0001\u0001 \u0001\u0005$\u0002\u0003\u0000\u0000, although I'd rather not go to those extremes...\u007F1\u0000\u0007"
234: 0x02D4 [0x23] WAIT_FOR_DIALOG_INTERACTION
235: 0x02D5 [0x6E] Abquhbah (ID: 16982157/0x0103208D) uses emote 35*
236: 0x02DC [0x99] Wait for Abquhbah (ID: 16982157/0x0103208D) animation to complete
237: 0x02E1 [0x99] Wait for Abquhbah (ID: 16982157/0x0103208D) animation to complete
238: 0x02E6 [0x1D] PRINT_EVENT_MESSAGE(message_id=9679*)
    → "But if I don't get a decent night's sleep sometime soon, my work will begin to suffer. And then I'll be made to suffer...\u007F1\u0000\u0007"
239: 0x02E9 [0x23] WAIT_FOR_DIALOG_INTERACTION
240: 0x02EA [0x1D] PRINT_EVENT_MESSAGE(message_id=9680*)
    → "Please, \u0008.\u0007You have to help me!\u007F1\u0000\u0007"
241: 0x02ED [0x23] WAIT_FOR_DIALOG_INTERACTION
242: 0x02EE [0x03] Work_Zone[1] = 5*
243: 0x02F3 [0x43] SEND_EVENT_UPDATE: Send pending tag to server (packet 0x005B)
244: 0x02F5 [0x43] SEND_EVENT_UPDATE: Check pending flag (skip if not pending)
245: 0x02F7 [0x01] GOTO 0x0359
246: 0x02FA [0x02] IF !(Work_Zone[2] >= 11*) GOTO 0x0329
247: 0x0302 [0x1D] PRINT_EVENT_MESSAGE(message_id=9605*)
    → "Ummm, well, okay then!\u0007I don't usually tell this sort of thing to \u000C\u0000[non-employees/second class privates/first class privates/superior privates/lance corporals/corporals/sergeants/sergeant majors/chief sergeants/second lieutenants/first lieutenants/captains]...\u007F1\u0000\u0007"
248: 0x0305 [0x23] WAIT_FOR_DIALOG_INTERACTION
249: 0x0306 [0x1D] PRINT_EVENT_MESSAGE(message_id=9690*)
    → "I can't keep this to myself any longer...\u0007President Naja's real name is...Naja Zhwan!\u007F1\u0000\u0007"
250: 0x0309 [0x23] WAIT_FOR_DIALOG_INTERACTION
251: 0x030A [0x1D] PRINT_EVENT_MESSAGE(message_id=9691*)
    → "That name only belongs to the royal family of the Kingdom of Zhwa.\u0007Do you realize what this means? Our beloved president is also a princess! Incredible!\u007F1\u0000\u0007"
252: 0x030D [0x23] WAIT_FOR_DIALOG_INTERACTION
253: 0x030E [0x1D] PRINT_EVENT_MESSAGE(message_id=9692*)
    → "The Kingdom of Zhwa is an island nation found in the southern seas. Ever since the time of Koja Zhwan, a close friend of Imperial hero Balrahn, successive generations of this remote country have been entrusted with the defense of the Empire's interests.\u007F1\u0000\u0007"
254: 0x0311 [0x23] WAIT_FOR_DIALOG_INTERACTION
255: 0x0312 [0x1D] PRINT_EVENT_MESSAGE(message_id=9693*)
    → "After hearing of the beastman threat to the Empire, President Naja...ahem, Princess Naja...led a force of Zhwan soldiers across the waves to assist the distant capital of Al Zahbi.\u007F1\u0000\u0007"
256: 0x0315 [0x23] WAIT_FOR_DIALOG_INTERACTION
257: 0x0316 [0x1D] PRINT_EVENT_MESSAGE(message_id=9694*)
    → "How this resulted in a princess becoming a president of a mercenary company is anyone's guess...\u007F1\u0000\u0007"
258: 0x0319 [0x23] WAIT_FOR_DIALOG_INTERACTION
259: 0x031A [0x1D] PRINT_EVENT_MESSAGE(message_id=9695*)
    → "Where did I learn about all this, you ask?\u007F1\u0000\u0007"
260: 0x031D [0x23] WAIT_FOR_DIALOG_INTERACTION
261: 0x031E [0x1D] PRINT_EVENT_MESSAGE(message_id=9696*)
    → "Why, I just did what any concerned subordinate would do--I followed her after company hours.\u007F1\u0000\u0007"
262: 0x0321 [0x23] WAIT_FOR_DIALOG_INTERACTION
263: 0x0322 [0x1D] PRINT_EVENT_MESSAGE(message_id=9697*)
    → "Though I wasn't really prepared to see her chatting about the \u00072old days\u00073 while she was waited on hand, foot, and finger by three overly-familiar young men...<sniff>...\u007F1\u0000\u0007"
264: 0x0325 [0x23] WAIT_FOR_DIALOG_INTERACTION
265: 0x0326 [0x01] GOTO 0x0359
266: 0x0329 [0x1D] PRINT_EVENT_MESSAGE(message_id=9605*)
    → "Ummm, well, okay then!\u0007I don't usually tell this sort of thing to \u000C\u0000[non-employees/second class privates/first class privates/superior privates/lance corporals/corporals/sergeants/sergeant majors/chief sergeants/second lieutenants/first lieutenants/captains]...\u007F1\u0000\u0007"
267: 0x032C [0x23] WAIT_FOR_DIALOG_INTERACTION
268: 0x032D [0x1D] PRINT_EVENT_MESSAGE(message_id=9698*)
    → "But this secret is so huge it cannot be kept by one man alone!\u007F1\u0000\u0007"
269: 0x0330 [0x23] WAIT_FOR_DIALOG_INTERACTION
270: 0x0331 [0x1D] PRINT_EVENT_MESSAGE(message_id=9699*)
    → "After leading her army to Al Zahbi and being disgusted by the corrupt state of the Imperial Army, President Naja decided to establish her own mercenary company...without any kind of authorization.\u007F1\u0000\u0007"
271: 0x0334 [0x23] WAIT_FOR_DIALOG_INTERACTION
272: 0x0335 [0x1D] PRINT_EVENT_MESSAGE(message_id=9700*)
    → "She was then accused of inciting civil strife by the Immortals! This case escalated into a scandal in which the Kingdom of Zhwa was stripped of its autonomy and the Zhwan royal family was threatened with obliteration.\u007F1\u0000\u0007"
273: 0x0338 [0x23] WAIT_FOR_DIALOG_INTERACTION
274: 0x0339 [0x1D] PRINT_EVENT_MESSAGE(message_id=9701*)
    → "Thankfully, the recently-inaugurated Empress Nashmeira II reduced the Zhwan family's punishment to a suspension of powers, and then formally recognized Salaheem's Sentinels as a legitimate company.\u007F1\u0000\u0007"
275: 0x033C [0x23] WAIT_FOR_DIALOG_INTERACTION
276: 0x033D [0x1D] PRINT_EVENT_MESSAGE(message_id=9702*)
    → "But, with matters as they were, President Naja was forced to borrow the capital to fund her mercenary enterprise. The island princess had been disowned by her own family...\u007F1\u0000\u0007"
277: 0x0340 [0x23] WAIT_FOR_DIALOG_INTERACTION
278: 0x0341 [0x1D] PRINT_EVENT_MESSAGE(message_id=9703*)
    → "Our beloved president has certainly seen some hard times. The financial state of Salaheem's Sentinels was in tatters when I first joined the company...\u007F1\u0000\u0007"
279: 0x0344 [0x23] WAIT_FOR_DIALOG_INTERACTION
280: 0x0345 [0x1D] PRINT_EVENT_MESSAGE(message_id=9704*)
    → "However, Her Magnificence would send letters to President Naja expressing her simple hope for the happiness and fortune of all her subjects.\u007F1\u0000\u0007"
281: 0x0348 [0x23] WAIT_FOR_DIALOG_INTERACTION
282: 0x0349 [0x1D] PRINT_EVENT_MESSAGE(message_id=9705*)
    → "Those words inspired our fearless leader to throw all her energy into building the successful business you see today. She may seem rough and uncomprimising at times, but President Naja is not one to forget her obligations.\u007F1\u0000\u0007"
283: 0x034C [0x23] WAIT_FOR_DIALOG_INTERACTION
284: 0x034D [0x1D] PRINT_EVENT_MESSAGE(message_id=9706*)
    → "Oh, and I've decided to stop my life of furtive stalking.\u0007Since the Empress's coronation, President Naja seems to have been freed from her most pressing worries.\u007F1\u0000\u0007"
285: 0x0350 [0x23] WAIT_FOR_DIALOG_INTERACTION
286: 0x0351 [0x1D] PRINT_EVENT_MESSAGE(message_id=9707*)
    → "4\u0007And the young men she was meeting with at the teahouse? They were retainers from her family estate, asking her to return home.\u007F1\u0000\u0007"
287: 0x0354 [0x23] WAIT_FOR_DIALOG_INTERACTION
288: 0x0355 [0x1D] PRINT_EVENT_MESSAGE(message_id=9708*)
    → "And she refused them, saying she could never leave behind her \u00072prrrecious pawns\u00073.\u0007Doesn't that make you feel all warm inside!?\u007F1\u0000\u0007"
289: 0x0358 [0x23] WAIT_FOR_DIALOG_INTERACTION

SUBROUTINE_0359:
290: 0x0359 [0x01] GOTO 0x0360
291: 0x035C [0x1D] PRINT_EVENT_MESSAGE(message_id=9571*)
    → "An excellent question!\u0007However, that information is classified. Certainly not suitable for the ears of \u000C\u0000[non-employees/second class privates/first class privates/superior privates/lance corporals/corporals/sergeants/sergeant majors/chief sergeants/second lieutenants/first lieutenants/captains].\u007F1\u0000\u0007"
292: 0x035F [0x23] WAIT_FOR_DIALOG_INTERACTION

SUBROUTINE_0360:
293: 0x0360 [0x01] GOTO 0x0458
294: 0x0363 [0x02] IF !(Work_Zone[0] == 4*) GOTO 0x041B
295: 0x036B [0x03] Work_Zone[1] = 1*
296: 0x0370 [0x43] SEND_EVENT_UPDATE: Send pending tag to server (packet 0x005B)
297: 0x0372 [0x43] SEND_EVENT_UPDATE: Check pending flag (skip if not pending)
298: 0x0374 [0x02] IF !(Work_Zone[2] == 11*) GOTO 0x0393
299: 0x037C [0x1D] PRINT_EVENT_MESSAGE(message_id=9572*)
    → "You want to hear that again?\u0007Seriously?\u0007Okay, here goes...\u007F1\u0000\u0007"
300: 0x037F [0x23] WAIT_FOR_DIALOG_INTERACTION
301: 0x0380 [0x1D] PRINT_EVENT_MESSAGE(message_id=9573*)
    → "Article 1.\u0007\u00072Follow President Naja's orders without question!\u00073\u007F1\u0000\u0007"
302: 0x0383 [0x23] WAIT_FOR_DIALOG_INTERACTION
303: 0x0384 [0x1D] PRINT_EVENT_MESSAGE(message_id=9574*)
    → "Article 2.\u0007\u00072Fulfill President Naja's requests without fail!\u00073\u007F1\u0000\u0007"
304: 0x0387 [0x23] WAIT_FOR_DIALOG_INTERACTION
305: 0x0388 [0x1D] PRINT_EVENT_MESSAGE(message_id=9575*)
    → "Article 3.\u0007\u00072Run President Naja's errands without complaint!\u00073\u007F1\u0000\u0007"
306: 0x038B [0x23] WAIT_FOR_DIALOG_INTERACTION
307: 0x038C [0x1D] PRINT_EVENT_MESSAGE(message_id=9576*)
    → "Aside from that...\u0007It's probably better that you don't know.\u007F1\u0000\u0007"
308: 0x038F [0x23] WAIT_FOR_DIALOG_INTERACTION
309: 0x0390 [0x01] GOTO 0x0025
310: 0x0393 [0x03] Work_Zone[1] = 99*
311: 0x0398 [0x43] SEND_EVENT_UPDATE: Send pending tag to server (packet 0x005B)
312: 0x039A [0x43] SEND_EVENT_UPDATE: Check pending flag (skip if not pending)
313: 0x039C [0x02] IF !(Work_Zone[2] == 1*) GOTO 0x03BC
314: 0x03A4 [0x1D] PRINT_EVENT_MESSAGE(message_id=9572*)
    → "You want to hear that again?\u0007Seriously?\u0007Okay, here goes...\u007F1\u0000\u0007"
315: 0x03A7 [0x23] WAIT_FOR_DIALOG_INTERACTION
316: 0x03A8 [0x1D] PRINT_EVENT_MESSAGE(message_id=9573*)
    → "Article 1.\u0007\u00072Follow President Naja's orders without question!\u00073\u007F1\u0000\u0007"
317: 0x03AB [0x23] WAIT_FOR_DIALOG_INTERACTION
318: 0x03AC [0x1D] PRINT_EVENT_MESSAGE(message_id=9574*)
    → "Article 2.\u0007\u00072Fulfill President Naja's requests without fail!\u00073\u007F1\u0000\u0007"
319: 0x03AF [0x23] WAIT_FOR_DIALOG_INTERACTION
320: 0x03B0 [0x1D] PRINT_EVENT_MESSAGE(message_id=9575*)
    → "Article 3.\u0007\u00072Run President Naja's errands without complaint!\u00073\u007F1\u0000\u0007"
321: 0x03B3 [0x23] WAIT_FOR_DIALOG_INTERACTION
322: 0x03B4 [0x1D] PRINT_EVENT_MESSAGE(message_id=9576*)
    → "Aside from that...\u0007It's probably better that you don't know.\u007F1\u0000\u0007"
323: 0x03B7 [0x23] WAIT_FOR_DIALOG_INTERACTION
324: 0x03B8 [0x1D] PRINT_EVENT_MESSAGE(message_id=9577*)
    → "Oh, by the way, I have the records for your mercenary assessment if you'd like to hear it...\u007F1\u0000\u0007"
325: 0x03BB [0x23] WAIT_FOR_DIALOG_INTERACTION
326: 0x03BC [0x03] Work_Zone[1] = 2*
327: 0x03C1 [0x43] SEND_EVENT_UPDATE: Send pending tag to server (packet 0x005B)
328: 0x03C3 [0x43] SEND_EVENT_UPDATE: Check pending flag (skip if not pending)
329: 0x03C5 [0x02] IF !(Work_Zone[2] == 1*) GOTO 0x03D8
330: 0x03CD [0x1D] PRINT_EVENT_MESSAGE(message_id=9578*)
    → "...\u0007At your current pace, you'll be doomed to a meeting with President Naja's spiky \u00072friend.\u00073\u007F1\u0000\u0007"
331: 0x03D0 [0x23] WAIT_FOR_DIALOG_INTERACTION
332: 0x03D1 [0x1D] PRINT_EVENT_MESSAGE(message_id=9579*)
    → "If you want to dig yourself out of that pit, you've got to hit the Commissions Agency and run up some successful Assault missions....\u0007(That's the only option left to you...)\u007F1\u0000\u0007"
333: 0x03D4 [0x23] WAIT_FOR_DIALOG_INTERACTION
334: 0x03D5 [0x01] GOTO 0x0418
335: 0x03D8 [0x02] IF !(Work_Zone[2] == 2*) GOTO 0x03E7
336: 0x03E0 [0x1D] PRINT_EVENT_MESSAGE(message_id=9580*)
    → "...\u0007Hmmm. You seem to be out of the woods as far as being beaten to a pulp goes, but you're still somewhere south of the middle.\u007F1\u0000\u0007"
337: 0x03E3 [0x23] WAIT_FOR_DIALOG_INTERACTION
338: 0x03E4 [0x01] GOTO 0x0418
339: 0x03E7 [0x02] IF !(Work_Zone[2] == 3*) GOTO 0x03F6
340: 0x03EF [0x1D] PRINT_EVENT_MESSAGE(message_id=9581*)
    → "Hello...\u0007Seems someone has been a good little mercenary. You have some glowing reports from the Commissions Agency here.\u0007You've finally pulled yourself up to the borderline between worthless pile of beaten pulp and respectable employee.\u007F1\u0000\u0007"
341: 0x03F2 [0x23] WAIT_FOR_DIALOG_INTERACTION
342: 0x03F3 [0x01] GOTO 0x0418
343: 0x03F6 [0x02] IF !(Work_Zone[2] == 4*) GOTO 0x0405
344: 0x03FE [0x1D] PRINT_EVENT_MESSAGE(message_id=9582*)
    → "Let's see now.\u0007A few more successful missions and the president herself might have a word with you. Keep this up and the next mercenary rank is not far off!\u007F1\u0000\u0007"
345: 0x0401 [0x23] WAIT_FOR_DIALOG_INTERACTION
346: 0x0402 [0x01] GOTO 0x0418
347: 0x0405 [0x02] IF !(Work_Zone[2] == 5*) GOTO 0x0418
348: 0x040D [0x1D] PRINT_EVENT_MESSAGE(message_id=9583*)
    → "Hello, hello.\u0007You'll be hearing from President Naja any day now!\u007F1\u0000\u0007"
349: 0x0410 [0x23] WAIT_FOR_DIALOG_INTERACTION
350: 0x0411 [0x1D] PRINT_EVENT_MESSAGE(message_id=9584*)
    → "(Poor thing, you'll wish you'd stayed a worthless pile of beaten pulp...)\u007F1\u0000\u0007"
351: 0x0414 [0x23] WAIT_FOR_DIALOG_INTERACTION
352: 0x0415 [0x01] GOTO 0x0418

SUBROUTINE_0418:
353: 0x0418 [0x01] GOTO 0x0458
354: 0x041B [0x02] IF !(Work_Zone[0] == 5*) GOTO 0x0432
355: 0x0423 [0x1D] PRINT_EVENT_MESSAGE(message_id=9586*)
    → "A mercenary's pay is completely commission-based--you get out what you put in.\u007F1\u0000\u0007"
356: 0x0426 [0x23] WAIT_FOR_DIALOG_INTERACTION
357: 0x0427 [0x1D] PRINT_EVENT_MESSAGE(message_id=9587*)
    → "If you visit our branch office on the second level of Balrahn Way, you can exchange your Imperial Standing credits for Aht Urhgan currency.\u007F1\u0000\u0007"
358: 0x042A [0x23] WAIT_FOR_DIALOG_INTERACTION
359: 0x042B [0x1D] PRINT_EVENT_MESSAGE(message_id=9588*)
    → "Start raking in that cash and enjoy the luxuries it brings.\u0007Hooray for the mercenary life!\u0007Ahahaha...hmmm.\u007F1\u0000\u0007"
360: 0x042E [0x23] WAIT_FOR_DIALOG_INTERACTION
361: 0x042F [0x01] GOTO 0x0458
362: 0x0432 [0x02] IF !(Work_Zone[0] == 6*) GOTO 0x0458
363: 0x043A [0x6E] EventEntity uses emote 12*
364: 0x0441 [0x99] Wait for EventEntity animation to complete
365: 0x0446 [0x99] Wait for EventEntity animation to complete
366: 0x044B [0x1C] WAIT(30* ticks)
367: 0x044E [0x1D] PRINT_EVENT_MESSAGE(message_id=9585*)
    → "You know all there is to know, do you?\u0007Well then, time to get to work, soldier!\u007F1\u0000\u0007"
368: 0x0451 [0x23] WAIT_FOR_DIALOG_INTERACTION
369: 0x0452 [0x01] GOTO 0x045B

SUBROUTINE_0458:
370: 0x0458 [0x01] GOTO 0x0025

SUBROUTINE_045B:
371: 0x045B [0x21] END_EVENT
372: 0x045C [0x00] END_REQSTACK()
```

#### Data or dead code:

```
# Dead code (unreachable instructions):
     0x0455 [0x01] GOTO 0x0458
```

### Event 65535.3

#### Metadata

| Field        | Value   |
|--------------|---------|
| Entrypoint   | 0x045D  |
| Data Size    | 1 bytes |
| Instructions | 1       |

```
      00 01 02 03 04 05 06 07  08 09 0A 0B 0C 0D 0E 0F
      -- -- -- -- -- -- -- --  -- -- -- -- -- -- -- --
0450:                                         00                     .  
```

#### Opcodes

```
  0: 0x045D [0x00] END_REQSTACK()
```

### Event 3000

#### Metadata

| Field        | Value   |
|--------------|---------|
| Entrypoint   | 0x045E  |
| Data Size    | 1 bytes |
| Instructions | 1       |

```
      00 01 02 03 04 05 06 07  08 09 0A 0B 0C 0D 0E 0F
      -- -- -- -- -- -- -- --  -- -- -- -- -- -- -- --
0450:                                            00                   . 
```

#### Opcodes

```
  0: 0x045E [0x00] END_REQSTACK()
```

### Event 3002

#### Metadata

| Field        | Value   |
|--------------|---------|
| Entrypoint   | 0x045F  |
| Data Size    | 1 bytes |
| Instructions | 1       |

```
      00 01 02 03 04 05 06 07  08 09 0A 0B 0C 0D 0E 0F
      -- -- -- -- -- -- -- --  -- -- -- -- -- -- -- --
0450:                                               00                 .
```

#### Opcodes

```
  0: 0x045F [0x00] END_REQSTACK()
```

### Event 73

#### Metadata

| Field        | Value   |
|--------------|---------|
| Entrypoint   | 0x0460  |
| Data Size    | 1 bytes |
| Instructions | 1       |

```
      00 01 02 03 04 05 06 07  08 09 0A 0B 0C 0D 0E 0F
      -- -- -- -- -- -- -- --  -- -- -- -- -- -- -- --
0460: 00                                                .               
```

#### Opcodes

```
  0: 0x0460 [0x00] END_REQSTACK()
```

### Event 3020

#### Metadata

| Field        | Value   |
|--------------|---------|
| Entrypoint   | 0x0461  |
| Data Size    | 1 bytes |
| Instructions | 1       |

```
      00 01 02 03 04 05 06 07  08 09 0A 0B 0C 0D 0E 0F
      -- -- -- -- -- -- -- --  -- -- -- -- -- -- -- --
0460:    00                                              .              
```

#### Opcodes

```
  0: 0x0461 [0x00] END_REQSTACK()
```

### Event 3030

#### Metadata

| Field        | Value   |
|--------------|---------|
| Entrypoint   | 0x0462  |
| Data Size    | 1 bytes |
| Instructions | 1       |

```
      00 01 02 03 04 05 06 07  08 09 0A 0B 0C 0D 0E 0F
      -- -- -- -- -- -- -- --  -- -- -- -- -- -- -- --
0460:       00                                            .             
```

#### Opcodes

```
  0: 0x0462 [0x00] END_REQSTACK()
```

### Event 3028

#### Metadata

| Field        | Value   |
|--------------|---------|
| Entrypoint   | 0x0463  |
| Data Size    | 1 bytes |
| Instructions | 1       |

```
      00 01 02 03 04 05 06 07  08 09 0A 0B 0C 0D 0E 0F
      -- -- -- -- -- -- -- --  -- -- -- -- -- -- -- --
0460:          00                                          .            
```

#### Opcodes

```
  0: 0x0463 [0x00] END_REQSTACK()
```

### Event 5000

#### Metadata

| Field        | Value   |
|--------------|---------|
| Entrypoint   | 0x0464  |
| Data Size    | 1 bytes |
| Instructions | 1       |

```
      00 01 02 03 04 05 06 07  08 09 0A 0B 0C 0D 0E 0F
      -- -- -- -- -- -- -- --  -- -- -- -- -- -- -- --
0460:             00                                        .           
```

#### Opcodes

```
  0: 0x0464 [0x00] END_REQSTACK()
```

### Event 5002

#### Metadata

| Field        | Value   |
|--------------|---------|
| Entrypoint   | 0x0465  |
| Data Size    | 1 bytes |
| Instructions | 1       |

```
      00 01 02 03 04 05 06 07  08 09 0A 0B 0C 0D 0E 0F
      -- -- -- -- -- -- -- --  -- -- -- -- -- -- -- --
0460:                00                                      .          
```

#### Opcodes

```
  0: 0x0465 [0x00] END_REQSTACK()
```

### Event 5020

#### Metadata

| Field        | Value   |
|--------------|---------|
| Entrypoint   | 0x0466  |
| Data Size    | 1 bytes |
| Instructions | 1       |

```
      00 01 02 03 04 05 06 07  08 09 0A 0B 0C 0D 0E 0F
      -- -- -- -- -- -- -- --  -- -- -- -- -- -- -- --
0460:                   00                                    .         
```

#### Opcodes

```
  0: 0x0466 [0x00] END_REQSTACK()
```

### Event 5022

#### Metadata

| Field        | Value   |
|--------------|---------|
| Entrypoint   | 0x0467  |
| Data Size    | 1 bytes |
| Instructions | 1       |

```
      00 01 02 03 04 05 06 07  08 09 0A 0B 0C 0D 0E 0F
      -- -- -- -- -- -- -- --  -- -- -- -- -- -- -- --
0460:                      00                                  .        
```

#### Opcodes

```
  0: 0x0467 [0x00] END_REQSTACK()
```

### Event 74

#### Metadata

| Field        | Value   |
|--------------|---------|
| Entrypoint   | 0x0468  |
| Data Size    | 1 bytes |
| Instructions | 1       |

```
      00 01 02 03 04 05 06 07  08 09 0A 0B 0C 0D 0E 0F
      -- -- -- -- -- -- -- --  -- -- -- -- -- -- -- --
0460:                          00                               .       
```

#### Opcodes

```
  0: 0x0468 [0x00] END_REQSTACK()
```

### Event 75

#### Metadata

| Field        | Value   |
|--------------|---------|
| Entrypoint   | 0x0469  |
| Data Size    | 1 bytes |
| Instructions | 1       |

```
      00 01 02 03 04 05 06 07  08 09 0A 0B 0C 0D 0E 0F
      -- -- -- -- -- -- -- --  -- -- -- -- -- -- -- --
0460:                             00                             .      
```

#### Opcodes

```
  0: 0x0469 [0x00] END_REQSTACK()
```

### Event 3050

#### Metadata

| Field        | Value   |
|--------------|---------|
| Entrypoint   | 0x046A  |
| Data Size    | 1 bytes |
| Instructions | 1       |

```
      00 01 02 03 04 05 06 07  08 09 0A 0B 0C 0D 0E 0F
      -- -- -- -- -- -- -- --  -- -- -- -- -- -- -- --
0460:                                00                           .     
```

#### Opcodes

```
  0: 0x046A [0x00] END_REQSTACK()
```

### Event 3052

#### Metadata

| Field        | Value   |
|--------------|---------|
| Entrypoint   | 0x046B  |
| Data Size    | 1 bytes |
| Instructions | 1       |

```
      00 01 02 03 04 05 06 07  08 09 0A 0B 0C 0D 0E 0F
      -- -- -- -- -- -- -- --  -- -- -- -- -- -- -- --
0460:                                   00                         .    
```

#### Opcodes

```
  0: 0x046B [0x00] END_REQSTACK()
```

### Event 3070

#### Metadata

| Field        | Value   |
|--------------|---------|
| Entrypoint   | 0x046C  |
| Data Size    | 1 bytes |
| Instructions | 1       |

```
      00 01 02 03 04 05 06 07  08 09 0A 0B 0C 0D 0E 0F
      -- -- -- -- -- -- -- --  -- -- -- -- -- -- -- --
0460:                                      00                       .   
```

#### Opcodes

```
  0: 0x046C [0x00] END_REQSTACK()
```

### Event 3072

#### Metadata

| Field        | Value   |
|--------------|---------|
| Entrypoint   | 0x046D  |
| Data Size    | 1 bytes |
| Instructions | 1       |

```
      00 01 02 03 04 05 06 07  08 09 0A 0B 0C 0D 0E 0F
      -- -- -- -- -- -- -- --  -- -- -- -- -- -- -- --
0460:                                         00                     .  
```

#### Opcodes

```
  0: 0x046D [0x00] END_REQSTACK()
```

### Event 3074

#### Metadata

| Field        | Value   |
|--------------|---------|
| Entrypoint   | 0x046E  |
| Data Size    | 1 bytes |
| Instructions | 1       |

```
      00 01 02 03 04 05 06 07  08 09 0A 0B 0C 0D 0E 0F
      -- -- -- -- -- -- -- --  -- -- -- -- -- -- -- --
0460:                                            00                   . 
```

#### Opcodes

```
  0: 0x046E [0x00] END_REQSTACK()
```

### Event 3076

#### Metadata

| Field        | Value   |
|--------------|---------|
| Entrypoint   | 0x046F  |
| Data Size    | 1 bytes |
| Instructions | 1       |

```
      00 01 02 03 04 05 06 07  08 09 0A 0B 0C 0D 0E 0F
      -- -- -- -- -- -- -- --  -- -- -- -- -- -- -- --
0460:                                               00                 .
```

#### Opcodes

```
  0: 0x046F [0x00] END_REQSTACK()
```

### Event 3078

#### Metadata

| Field        | Value   |
|--------------|---------|
| Entrypoint   | 0x0470  |
| Data Size    | 1 bytes |
| Instructions | 1       |

```
      00 01 02 03 04 05 06 07  08 09 0A 0B 0C 0D 0E 0F
      -- -- -- -- -- -- -- --  -- -- -- -- -- -- -- --
0470: 00                                                .               
```

#### Opcodes

```
  0: 0x0470 [0x00] END_REQSTACK()
```

### Event 65535.4

#### Metadata

| Field        | Value    |
|--------------|----------|
| Entrypoint   | 0x0471   |
| Data Size    | 22 bytes |
| Instructions | 8        |

```
      00 01 02 03 04 05 06 07  08 09 0A 0B 0C 0D 0E 0F
      -- -- -- -- -- -- -- --  -- -- -- -- -- -- -- --
0470:    32 97 80 1F 00 98 80  99 80 9A 80 1F 01 6F 1E   2............o.
0480: 8C 20 03 01 6F 70 00                              . ..op.         
```

#### Opcodes

```
  0: 0x0471 [0x32] ExtData[1]->MainSpeed = 46* * 0.1
  1: 0x0474 [0x1F] MOVE_ENTITY: EventEntity moves to X=35.056*, Z=-48.616*, Y=-7.199*
  2: 0x047C [0x1F] MOVE_ENTITY: Update entity position (mode=1)
  3: 0x047E [0x6F] WAIT_FRAME_DELAY: Yield until WaitTime reaches zero
  4: 0x047F [0x1E] EventEntity looks at Naja Salaheem (ID: 16982156/0x0103208C) and starts talking
  5: 0x0484 [0x6F] WAIT_FRAME_DELAY: Yield until WaitTime reaches zero
  6: 0x0485 [0x70] WAIT_ENTITY_RENDER_FLAG: Wait while EventEntity->Render.Flags3 bit 2 is set (cancel turn if not)
  7: 0x0486 [0x00] END_REQSTACK()
```

### Event 65535.5

#### Metadata

| Field        | Value    |
|--------------|----------|
| Entrypoint   | 0x0487   |
| Data Size    | 15 bytes |
| Instructions | 5        |

```
      00 01 02 03 04 05 06 07  08 09 0A 0B 0C 0D 0E 0F
      -- -- -- -- -- -- -- --  -- -- -- -- -- -- -- --
0480:                      32  97 80 1F 00 9B 80 9C 80         2........
0490: 9D 80 1F 01 6F 00                                 ....o.          
```

#### Opcodes

```
  0: 0x0487 [0x32] ExtData[1]->MainSpeed = 46* * 0.1
  1: 0x048A [0x1F] MOVE_ENTITY: EventEntity moves to X=35.524*, Z=-58.237*, Y=-6.601*
  2: 0x0492 [0x1F] MOVE_ENTITY: Update entity position (mode=1)
  3: 0x0494 [0x6F] WAIT_FRAME_DELAY: Yield until WaitTime reaches zero
  4: 0x0495 [0x00] END_REQSTACK()
```

### Event 65535.6

#### Metadata

| Field        | Value    |
|--------------|----------|
| Entrypoint   | 0x0496   |
| Data Size    | 20 bytes |
| Instructions | 3        |

```
      00 01 02 03 04 05 06 07  08 09 0A 0B 0C 0D 0E 0F
      -- -- -- -- -- -- -- --  -- -- -- -- -- -- -- --
0490:                   79 00  F8 FF FF 7F CD 20 03 01        y...... ..
04A0: 37 9E 80 9F 80 A0 80 A1  80 00                    7.........      
```

#### Opcodes

```
  0: 0x0496 [0x79] EventEntity looks at Raillefal (ID: 16982221/0x010320CD) (Basic look)
  1: 0x04A0 [0x37] UPDATE_EVENT_POSITION_AND_DIR: x=36.519*, z=-47.748*, y=-7.203*, direction=176.6°*
  2: 0x04A9 [0x00] END_REQSTACK()
```

### Event 65535.7

#### Metadata

| Field        | Value    |
|--------------|----------|
| Entrypoint   | 0x04AA   |
| Data Size    | 13 bytes |
| Instructions | 3        |

```
      00 01 02 03 04 05 06 07  08 09 0A 0B 0C 0D 0E 0F
      -- -- -- -- -- -- -- --  -- -- -- -- -- -- -- --
04A0:                                6E F8 FF FF 7F 6E            n....n
04B0: 80 99 F8 FF FF 7F 00                              .......         
```

#### Opcodes

```
  0: 0x04AA [0x6E] EventEntity uses emote 5*
  1: 0x04B1 [0x99] Wait for EventEntity animation to complete
  2: 0x04B6 [0x00] END_REQSTACK()
```

### Event 65535.8

#### Metadata

| Field        | Value    |
|--------------|----------|
| Entrypoint   | 0x04B7   |
| Data Size    | 52 bytes |
| Instructions | 21       |

```
      00 01 02 03 04 05 06 07  08 09 0A 0B 0C 0D 0E 0F
      -- -- -- -- -- -- -- --  -- -- -- -- -- -- -- --
04B0:                      42  1E F0 FF FF 7F 6F 70 03         B.....op.
04C0: 02 10 A2 80 1D A3 80 23  1D A4 80 23 1D A5 80 23  .......#...#...#
04D0: 1D A6 80 23 03 01 10 1A  80 43 00 43 01 02 08 10  ...#.....C.C....
04E0: 06 80 00 E9 04 1D A7 80  23 21 00                 ........#!.     
```

#### Opcodes

```
  0: 0x04B7 [0x42] SET_CLI_EVENT_CANCEL_DATA()
  1: 0x04B8 [0x1E] EventEntity looks at LocalPlayer and starts talking
  2: 0x04BD [0x6F] WAIT_FRAME_DELAY: Yield until WaitTime reaches zero
  3: 0x04BE [0x70] WAIT_ENTITY_RENDER_FLAG: Wait while EventEntity->Render.Flags3 bit 2 is set (cancel turn if not)
  4: 0x04BF [0x03] Work_Zone[2] = 753*
  5: 0x04C4 [0x1D] PRINT_EVENT_MESSAGE(message_id=9589*)
    → "Hello, isn't that \u0001\u00056\u0002\u0000\u0000\u0000?\u007F1\u0000\u0007"
  6: 0x04C7 [0x23] WAIT_FOR_DIALOG_INTERACTION
  7: 0x04C8 [0x1D] PRINT_EVENT_MESSAGE(message_id=9590*)
    → "I wonder if Amutiyaal is recruiting many mercenaries in the Kingdom of San d'Oria...\u007F1\u0000\u0007"
  8: 0x04CB [0x23] WAIT_FOR_DIALOG_INTERACTION
  9: 0x04CC [0x1D] PRINT_EVENT_MESSAGE(message_id=9591*)
    → "There was a letter from him a while back asking after the health of his \u00072beautiful, little flower.\u00073\u007F1\u0000\u0007"
 10: 0x04CF [0x23] WAIT_FOR_DIALOG_INTERACTION
 11: 0x04D0 [0x1D] PRINT_EVENT_MESSAGE(message_id=9592*)
    → "I don't think he needs to worry about President Naja. Her temper is as feisty as ever!\u007F1\u0000\u0007"
 12: 0x04D3 [0x23] WAIT_FOR_DIALOG_INTERACTION
 13: 0x04D4 [0x03] Work_Zone[1] = 3*
 14: 0x04D9 [0x43] SEND_EVENT_UPDATE: Send pending tag to server (packet 0x005B)
 15: 0x04DB [0x43] SEND_EVENT_UPDATE: Check pending flag (skip if not pending)
 16: 0x04DD [0x02] IF !(Work_Zone[8] == 0*) GOTO 0x04E9
 17: 0x04E5 [0x1D] PRINT_EVENT_MESSAGE(message_id=9604*)
    → "There should be four types of those invitation cards in total.\u0007Show them to President Naja once you have all four.\u0007(But don't let her know that I told you...)\u007F1\u0000\u0007"
 18: 0x04E8 [0x23] WAIT_FOR_DIALOG_INTERACTION
 19: 0x04E9 [0x21] END_EVENT
 20: 0x04EA [0x00] END_REQSTACK()
```

### Event 65535.9

#### Metadata

| Field        | Value    |
|--------------|----------|
| Entrypoint   | 0x04EB   |
| Data Size    | 48 bytes |
| Instructions | 19       |

```
      00 01 02 03 04 05 06 07  08 09 0A 0B 0C 0D 0E 0F
      -- -- -- -- -- -- -- --  -- -- -- -- -- -- -- --
04E0:                                   42 1E F0 FF FF             B....
04F0: 7F 6F 70 03 02 10 A8 80  1D A9 80 23 1D AA 80 23  .op........#...#
0500: 1D AB 80 23 03 01 10 1A  80 43 00 43 01 02 08 10  ...#.....C.C....
0510: 06 80 00 19 05 1D A7 80  23 21 00                 ........#!.     
```

#### Opcodes

```
  0: 0x04EB [0x42] SET_CLI_EVENT_CANCEL_DATA()
  1: 0x04EC [0x1E] EventEntity looks at LocalPlayer and starts talking
  2: 0x04F1 [0x6F] WAIT_FRAME_DELAY: Yield until WaitTime reaches zero
  3: 0x04F2 [0x70] WAIT_ENTITY_RENDER_FLAG: Wait while EventEntity->Render.Flags3 bit 2 is set (cancel turn if not)
  4: 0x04F3 [0x03] Work_Zone[2] = 754*
  5: 0x04F8 [0x1D] PRINT_EVENT_MESSAGE(message_id=9593*)
    → "Hello, isn't that \u0001\u00056\u0002\u0000\u0000\u0000?\u007F1\u0000\u0007"
  6: 0x04FB [0x23] WAIT_FOR_DIALOG_INTERACTION
  7: 0x04FC [0x1D] PRINT_EVENT_MESSAGE(message_id=9594*)
    → "I wonder if Alib-Mufalib is recruiting many mercenaries in the Republic of Bastok...\u007F1\u0000\u0007"
  8: 0x04FF [0x23] WAIT_FOR_DIALOG_INTERACTION
  9: 0x0500 [0x1D] PRINT_EVENT_MESSAGE(message_id=9595*)
    → "He does tend to take things a little easy.\u0007(I wish I was brave enough to be like that...)\u007F1\u0000\u0007"
 10: 0x0503 [0x23] WAIT_FOR_DIALOG_INTERACTION
 11: 0x0504 [0x03] Work_Zone[1] = 3*
 12: 0x0509 [0x43] SEND_EVENT_UPDATE: Send pending tag to server (packet 0x005B)
 13: 0x050B [0x43] SEND_EVENT_UPDATE: Check pending flag (skip if not pending)
 14: 0x050D [0x02] IF !(Work_Zone[8] == 0*) GOTO 0x0519
 15: 0x0515 [0x1D] PRINT_EVENT_MESSAGE(message_id=9604*)
    → "There should be four types of those invitation cards in total.\u0007Show them to President Naja once you have all four.\u0007(But don't let her know that I told you...)\u007F1\u0000\u0007"
 16: 0x0518 [0x23] WAIT_FOR_DIALOG_INTERACTION
 17: 0x0519 [0x21] END_EVENT
 18: 0x051A [0x00] END_REQSTACK()
```

### Event 65535.10

#### Metadata

| Field        | Value    |
|--------------|----------|
| Entrypoint   | 0x051B   |
| Data Size    | 52 bytes |
| Instructions | 21       |

```
      00 01 02 03 04 05 06 07  08 09 0A 0B 0C 0D 0E 0F
      -- -- -- -- -- -- -- --  -- -- -- -- -- -- -- --
0510:                                   42 1E F0 FF FF             B....
0520: 7F 6F 70 03 02 10 AC 80  1D AD 80 23 1D AE 80 23  .op........#...#
0530: 1D AF 80 23 1D B0 80 23  03 01 10 1A 80 43 00 43  ...#...#.....C.C
0540: 01 02 08 10 06 80 00 4D  05 1D A7 80 23 21 00     .......M....#!. 
```

#### Opcodes

```
  0: 0x051B [0x42] SET_CLI_EVENT_CANCEL_DATA()
  1: 0x051C [0x1E] EventEntity looks at LocalPlayer and starts talking
  2: 0x0521 [0x6F] WAIT_FRAME_DELAY: Yield until WaitTime reaches zero
  3: 0x0522 [0x70] WAIT_ENTITY_RENDER_FLAG: Wait while EventEntity->Render.Flags3 bit 2 is set (cancel turn if not)
  4: 0x0523 [0x03] Work_Zone[2] = 755*
  5: 0x0528 [0x1D] PRINT_EVENT_MESSAGE(message_id=9596*)
    → "Hello, isn't that \u0001\u00056\u0002\u0000\u0000\u0000?\u007F1\u0000\u0007"
  6: 0x052B [0x23] WAIT_FOR_DIALOG_INTERACTION
  7: 0x052C [0x1D] PRINT_EVENT_MESSAGE(message_id=9597*)
    → "I wonder if Ibwam is recruiting many mercenaries in the Federation of Windurst...\u007F1\u0000\u0007"
  8: 0x052F [0x23] WAIT_FOR_DIALOG_INTERACTION
  9: 0x0530 [0x1D] PRINT_EVENT_MESSAGE(message_id=9598*)
    → "I'm sure he's doing just fine though.\u0007He's always so friendly...\u007F1\u0000\u0007"
 10: 0x0533 [0x23] WAIT_FOR_DIALOG_INTERACTION
 11: 0x0534 [0x1D] PRINT_EVENT_MESSAGE(message_id=9599*)
    → "Sometimes overwhelmingly so...\u007F1\u0000\u0007"
 12: 0x0537 [0x23] WAIT_FOR_DIALOG_INTERACTION
 13: 0x0538 [0x03] Work_Zone[1] = 3*
 14: 0x053D [0x43] SEND_EVENT_UPDATE: Send pending tag to server (packet 0x005B)
 15: 0x053F [0x43] SEND_EVENT_UPDATE: Check pending flag (skip if not pending)
 16: 0x0541 [0x02] IF !(Work_Zone[8] == 0*) GOTO 0x054D
 17: 0x0549 [0x1D] PRINT_EVENT_MESSAGE(message_id=9604*)
    → "There should be four types of those invitation cards in total.\u0007Show them to President Naja once you have all four.\u0007(But don't let her know that I told you...)\u007F1\u0000\u0007"
 18: 0x054C [0x23] WAIT_FOR_DIALOG_INTERACTION
 19: 0x054D [0x21] END_EVENT
 20: 0x054E [0x00] END_REQSTACK()
```

### Event 65535.11

#### Metadata

| Field        | Value    |
|--------------|----------|
| Entrypoint   | 0x054F   |
| Data Size    | 52 bytes |
| Instructions | 21       |

```
      00 01 02 03 04 05 06 07  08 09 0A 0B 0C 0D 0E 0F
      -- -- -- -- -- -- -- --  -- -- -- -- -- -- -- --
0540:                                               42                 B
0550: 1E F0 FF FF 7F 6F 70 03  02 10 B1 80 1D B2 80 23  .....op........#
0560: 1D B3 80 23 1D B4 80 23  1D B5 80 23 03 01 10 1A  ...#...#...#....
0570: 80 43 00 43 01 02 08 10  06 80 00 81 05 1D A7 80  .C.C............
0580: 23 21 00                                          #!.             
```

#### Opcodes

```
  0: 0x054F [0x42] SET_CLI_EVENT_CANCEL_DATA()
  1: 0x0550 [0x1E] EventEntity looks at LocalPlayer and starts talking
  2: 0x0555 [0x6F] WAIT_FRAME_DELAY: Yield until WaitTime reaches zero
  3: 0x0556 [0x70] WAIT_ENTITY_RENDER_FLAG: Wait while EventEntity->Render.Flags3 bit 2 is set (cancel turn if not)
  4: 0x0557 [0x03] Work_Zone[2] = 756*
  5: 0x055C [0x1D] PRINT_EVENT_MESSAGE(message_id=9600*)
    → "Hello, isn't that \u0001\u00056\u0002\u0000\u0000\u0000?\u007F1\u0000\u0007"
  6: 0x055F [0x23] WAIT_FOR_DIALOG_INTERACTION
  7: 0x0560 [0x1D] PRINT_EVENT_MESSAGE(message_id=9601*)
    → "I wonder if Ajithaam is recruiting many mercenaries in the Duchy of Jeuno...\u007F1\u0000\u0007"
  8: 0x0563 [0x23] WAIT_FOR_DIALOG_INTERACTION
  9: 0x0564 [0x1D] PRINT_EVENT_MESSAGE(message_id=9602*)
    → "I'm a little worried.\u0007Ajithaam is...\u0007Ajithaam is...\u007F1\u0000\u0007"
 10: 0x0567 [0x23] WAIT_FOR_DIALOG_INTERACTION
 11: 0x0568 [0x1D] PRINT_EVENT_MESSAGE(message_id=9603*)
    → "No, no, I'm sure everything is fine...\u007F1\u0000\u0007"
 12: 0x056B [0x23] WAIT_FOR_DIALOG_INTERACTION
 13: 0x056C [0x03] Work_Zone[1] = 3*
 14: 0x0571 [0x43] SEND_EVENT_UPDATE: Send pending tag to server (packet 0x005B)
 15: 0x0573 [0x43] SEND_EVENT_UPDATE: Check pending flag (skip if not pending)
 16: 0x0575 [0x02] IF !(Work_Zone[8] == 0*) GOTO 0x0581
 17: 0x057D [0x1D] PRINT_EVENT_MESSAGE(message_id=9604*)
    → "There should be four types of those invitation cards in total.\u0007Show them to President Naja once you have all four.\u0007(But don't let her know that I told you...)\u007F1\u0000\u0007"
 18: 0x0580 [0x23] WAIT_FOR_DIALOG_INTERACTION
 19: 0x0581 [0x21] END_EVENT
 20: 0x0582 [0x00] END_REQSTACK()
```

### Event 65535.12

#### Metadata

| Field        | Value    |
|--------------|----------|
| Entrypoint   | 0x0583   |
| Data Size    | 10 bytes |
| Instructions | 2        |

```
      00 01 02 03 04 05 06 07  08 09 0A 0B 0C 0D 0E 0F
      -- -- -- -- -- -- -- --  -- -- -- -- -- -- -- --
0580:          37 9B 80 9C 80  9D 80 B6 80 00              7.........   
```

#### Opcodes

```
  0: 0x0583 [0x37] UPDATE_EVENT_POSITION_AND_DIR: x=35.524*, z=-58.237*, y=-6.601*, direction=90.0°*
  1: 0x058C [0x00] END_REQSTACK()
```

### Event 5030

#### Metadata

| Field        | Value   |
|--------------|---------|
| Entrypoint   | 0x058D  |
| Data Size    | 1 bytes |
| Instructions | 1       |

```
      00 01 02 03 04 05 06 07  08 09 0A 0B 0C 0D 0E 0F
