# 16982113 - Eunheem

## Common Data

| Field            | Value                          |
|------------------|--------------------------------|
| Zone             | Aht Urhgan Whitegate2 (ID: 50) |
| Block Size       | 156 bytes                      |
| Total Events     | 5                              |
| References Count | 12                             |

## List of Events

| Event ID                  | Entrypoint   |   Size |   Instructions |
|---------------------------|--------------|--------|----------------|
| [65535](#event-65535)     | 0x0000       |      1 |              1 |
| [895](#event-895)         | 0x0001       |      1 |              1 |
| [65535.1](#event-65535-1) | 0x0002       |     21 |              2 |
| [65535.2](#event-65535-2) | 0x0017       |     21 |              2 |
| [65535.3](#event-65535-3) | 0x002C       |     26 |              8 |

## DAT References (imed_data)

|   Index | Hex Value   |   Dec Value |
|---------|-------------|-------------|
|       0 | 0x0001      |           1 |
|       1 | 0x000C      |          12 |
|       2 | 0x0000      |           0 |
|       3 | 0x003B      |          59 |
|       4 | 0x00A0      |         160 |
|       5 | 0x00AB      |         171 |
|       6 | 0x000D      |          13 |
|       7 | 0xFFFFBB99  |  4294949785 |
|       8 | 0x17D70     |       97648 |
|       9 | 0x07CF      |        1999 |
|      10 | 0xFFFFCD5E  |  4294954334 |
|      11 | 0x17B02     |       97026 |

## Events

### Event 65535

#### Metadata

| Field        | Value   |
|--------------|---------|
| Entrypoint   | 0x0000  |
| Data Size    | 1 bytes |
| Instructions | 1       |

```
      00 01 02 03 04 05 06 07  08 09 0A 0B 0C 0D 0E 0F
      -- -- -- -- -- -- -- --  -- -- -- -- -- -- -- --
0000: 00                                                .               
```

#### Opcodes

```
  0: 0x0000 [0x00] END_REQSTACK()
```

### Event 895

#### Metadata

| Field        | Value   |
|--------------|---------|
| Entrypoint   | 0x0001  |
| Data Size    | 1 bytes |
| Instructions | 1       |

```
      00 01 02 03 04 05 06 07  08 09 0A 0B 0C 0D 0E 0F
      -- -- -- -- -- -- -- --  -- -- -- -- -- -- -- --
0000:    00                                              .              
```

#### Opcodes

```
  0: 0x0001 [0x00] END_REQSTACK()
```

### Event 65535.1

#### Metadata

| Field        | Value    |
|--------------|----------|
| Entrypoint   | 0x0002   |
| Data Size    | 21 bytes |
| Instructions | 2        |

```
      00 01 02 03 04 05 06 07  08 09 0A 0B 0C 0D 0E 0F
      -- -- -- -- -- -- -- --  -- -- -- -- -- -- -- --
0000:       B6 0B 00 80 01 80  02 80 03 80 02 80 03 80    ..............
0010: 04 80 02 80 02 80 00                              .......         
```

#### Opcodes

```
  0: 0x0002 [0xB6] ENTITY_APPEARANCE_HANDLER(case=Full entity look, race=1*, hair=12*, head=0*, body=59*, hands=0*, legs=59*, feet=160*, main=0*, sub=0*)
  1: 0x0016 [0x00] END_REQSTACK()
```

### Event 65535.2

#### Metadata

| Field        | Value    |
|--------------|----------|
| Entrypoint   | 0x0017   |
| Data Size    | 21 bytes |
| Instructions | 2        |

```
      00 01 02 03 04 05 06 07  08 09 0A 0B 0C 0D 0E 0F
      -- -- -- -- -- -- -- --  -- -- -- -- -- -- -- --
0010:                      B6  0B 00 80 01 80 05 80 05         .........
0020: 80 05 80 05 80 05 80 02  80 02 80 00              ............    
```

#### Opcodes

```
  0: 0x0017 [0xB6] ENTITY_APPEARANCE_HANDLER(case=Full entity look, race=1*, hair=12*, head=171*, body=171*, hands=171*, legs=171*, feet=171*, main=0*, sub=0*)
  1: 0x002B [0x00] END_REQSTACK()
```

### Event 65535.3

#### Metadata

| Field        | Value    |
|--------------|----------|
| Entrypoint   | 0x002C   |
| Data Size    | 26 bytes |
| Instructions | 8        |

```
      00 01 02 03 04 05 06 07  08 09 0A 0B 0C 0D 0E 0F
      -- -- -- -- -- -- -- --  -- -- -- -- -- -- -- --
0020:                                      32 06 80 1F              2...
0030: 00 07 80 08 80 09 80 1F  01 6F 1F 00 0A 80 0B 80  .........o......
0040: 09 80 1F 01 6F 00                                 ....o.          
```

#### Opcodes

```
  0: 0x002C [0x32] ExtData[1]->MainSpeed = 13* * 0.1
  1: 0x002F [0x1F] MOVE_ENTITY: EventEntity moves to X=-17.511*, Z=97.648*, Y=1.999*
  2: 0x0037 [0x1F] MOVE_ENTITY: Update entity position (mode=1)
  3: 0x0039 [0x6F] WAIT_FRAME_DELAY: Yield until WaitTime reaches zero
  4: 0x003A [0x1F] MOVE_ENTITY: EventEntity moves to X=-12.962*, Z=97.026*, Y=1.999*
  5: 0x0042 [0x1F] MOVE_ENTITY: Update entity position (mode=1)
  6: 0x0044 [0x6F] WAIT_FRAME_DELAY: Yield until WaitTime reaches zero
  7: 0x0045 [0x00] END_REQSTACK()
```
