# 16982475 - Neosaliat

## Common Data

| Field            | Value                          |
|------------------|--------------------------------|
| Zone             | Aht Urhgan Whitegate2 (ID: 50) |
| Block Size       | 284 bytes                      |
| Total Events     | 15                             |
| References Count | 15                             |

## List of Events

| Event ID                 | Entrypoint   |   Size |   Instructions |
|--------------------------|--------------|--------|----------------|
| [65535](#event-65535)    | 0x0000       |      1 |              1 |
| [5080](#event-5080)      | 0x0001       |      1 |              1 |
| [5081](#event-5081)      | 0x0002       |      1 |              1 |
| [5082](#event-5082)      | 0x0003       |      1 |              1 |
| [5083](#event-5083)      | 0x0004       |      1 |              1 |
| [5084](#event-5084)      | 0x0005       |      1 |              1 |
| [5085](#event-5085)      | 0x0006       |      1 |              1 |
| [65535.1](#event-655351) | 0x0007       |     29 |              7 |
| [65535.2](#event-655352) | 0x0024       |     29 |              7 |
| [65535.3](#event-655353) | 0x0041       |     10 |              2 |
| [65535.4](#event-655354) | 0x004B       |     10 |              2 |
| [65535.5](#event-655355) | 0x0055       |     30 |              8 |
| [65535.6](#event-655356) | 0x0073       |     15 |              5 |
| [65535.7](#event-655357) | 0x0082       |     15 |              5 |
| [5086](#event-5086)      | 0x0091       |      1 |              1 |

## DAT References (imed_data)

|   Index | Hex Value   |   Dec Value |
|---------|-------------|-------------|
|       0 | 0x000D      |          13 |
|       1 | 0xFFF74F36  |  4294397750 |
|       2 | 0x9B0B      |       39691 |
|       3 | 0x07CF      |        1999 |
|       4 | 0xFFF7499D  |  4294396317 |
|       5 | 0xA5EB      |       42475 |
|       6 | 0x0000      |           0 |
|       7 | 0x003C      |          60 |
|       8 | 0x0080      |         128 |
|       9 | 0xFFF7555D  |  4294399325 |
|      10 | 0x8A11      |       35345 |
|      11 | 0xFFF7681F  |  4294404127 |
|      12 | 0x9BD1      |       39889 |
|      13 | 0xFFF7624D  |  4294402637 |
|      14 | 0xABE3      |       44003 |

## Events

### Event 65535

#### Metadata

| Field        | Value   |
|--------------|---------|
| Entrypoint   | 0x0000  |
| Data Size    | 1 bytes |
| Instructions | 1       |

```
      00 01 02 03 04 05 06 07  08 09 0A 0B 0C 0D 0E 0F
      -- -- -- -- -- -- -- --  -- -- -- -- -- -- -- --
0000: 00                                                .               
```

#### Opcodes

```
  0: 0x0000 [0x00] END_REQSTACK()
```

### Event 5080

#### Metadata

| Field        | Value   |
|--------------|---------|
| Entrypoint   | 0x0001  |
| Data Size    | 1 bytes |
| Instructions | 1       |

```
      00 01 02 03 04 05 06 07  08 09 0A 0B 0C 0D 0E 0F
      -- -- -- -- -- -- -- --  -- -- -- -- -- -- -- --
0000:    00                                              .              
```

#### Opcodes

```
  0: 0x0001 [0x00] END_REQSTACK()
```

### Event 5081

#### Metadata

| Field        | Value   |
|--------------|---------|
| Entrypoint   | 0x0002  |
| Data Size    | 1 bytes |
| Instructions | 1       |

```
      00 01 02 03 04 05 06 07  08 09 0A 0B 0C 0D 0E 0F
      -- -- -- -- -- -- -- --  -- -- -- -- -- -- -- --
0000:       00                                            .             
```

#### Opcodes

```
  0: 0x0002 [0x00] END_REQSTACK()
```

### Event 5082

#### Metadata

| Field        | Value   |
|--------------|---------|
| Entrypoint   | 0x0003  |
| Data Size    | 1 bytes |
| Instructions | 1       |

```
      00 01 02 03 04 05 06 07  08 09 0A 0B 0C 0D 0E 0F
      -- -- -- -- -- -- -- --  -- -- -- -- -- -- -- --
0000:          00                                          .            
```

#### Opcodes

```
  0: 0x0003 [0x00] END_REQSTACK()
```

### Event 5083

#### Metadata

| Field        | Value   |
|--------------|---------|
| Entrypoint   | 0x0004  |
| Data Size    | 1 bytes |
| Instructions | 1       |

```
      00 01 02 03 04 05 06 07  08 09 0A 0B 0C 0D 0E 0F
      -- -- -- -- -- -- -- --  -- -- -- -- -- -- -- --
0000:             00                                        .           
```

#### Opcodes

```
  0: 0x0004 [0x00] END_REQSTACK()
```

### Event 5084

#### Metadata

| Field        | Value   |
|--------------|---------|
| Entrypoint   | 0x0005  |
| Data Size    | 1 bytes |
| Instructions | 1       |

```
      00 01 02 03 04 05 06 07  08 09 0A 0B 0C 0D 0E 0F
      -- -- -- -- -- -- -- --  -- -- -- -- -- -- -- --
0000:                00                                      .          
```

#### Opcodes

```
  0: 0x0005 [0x00] END_REQSTACK()
```

### Event 5085

#### Metadata

| Field        | Value   |
|--------------|---------|
| Entrypoint   | 0x0006  |
| Data Size    | 1 bytes |
| Instructions | 1       |

```
      00 01 02 03 04 05 06 07  08 09 0A 0B 0C 0D 0E 0F
      -- -- -- -- -- -- -- --  -- -- -- -- -- -- -- --
0000:                   00                                    .         
```

#### Opcodes

```
  0: 0x0006 [0x00] END_REQSTACK()
```

### Event 65535.1

#### Metadata

| Field        | Value    |
|--------------|----------|
| Entrypoint   | 0x0007   |
| Data Size    | 29 bytes |
| Instructions | 7        |

```
      00 01 02 03 04 05 06 07  08 09 0A 0B 0C 0D 0E 0F
      -- -- -- -- -- -- -- --  -- -- -- -- -- -- -- --
0000:                      7B  CB 21 03 01 32 00 80 1F         {.!..2...
0010: 00 01 80 02 80 03 80 1F  01 6F 4A CB 21 03 01 C6  .........oJ.!...
0020: 21 03 01 00                                       !...            
```

#### Opcodes

```
  0: 0x0007 [0x7B] Neosaliat (ID: 16982475/0x010321CB) stops talking
  1: 0x000C [0x32] ExtData[1]->MainSpeed = 13* * 0.1
  2: 0x000F [0x1F] MOVE_ENTITY: EventEntity moves to X=-569.546*, Z=39.691*, Y=1.999*
  3: 0x0017 [0x1F] MOVE_ENTITY: Update entity position (mode=1)
  4: 0x0019 [0x6F] WAIT_FRAME_DELAY: Yield until WaitTime reaches zero
  5: 0x001A [0x4A] Neosaliat (ID: 16982475/0x010321CB) looks at Rongelouts (ID: 16982470/0x010321C6)
  6: 0x0023 [0x00] END_REQSTACK()
```

### Event 65535.2

#### Metadata

| Field        | Value    |
|--------------|----------|
| Entrypoint   | 0x0024   |
| Data Size    | 29 bytes |
| Instructions | 7        |

```
      00 01 02 03 04 05 06 07  08 09 0A 0B 0C 0D 0E 0F
      -- -- -- -- -- -- -- --  -- -- -- -- -- -- -- --
0020:             7B CB 21 03  01 32 00 80 1F 00 04 80      {.!..2......
0030: 05 80 03 80 1F 01 6F 4A  CB 21 03 01 C6 21 03 01  ......oJ.!...!..
0040: 00                                                .               
```

#### Opcodes

```
  0: 0x0024 [0x7B] Neosaliat (ID: 16982475/0x010321CB) stops talking
  1: 0x0029 [0x32] ExtData[1]->MainSpeed = 13* * 0.1
  2: 0x002C [0x1F] MOVE_ENTITY: EventEntity moves to X=-570.979*, Z=42.475*, Y=1.999*
  3: 0x0034 [0x1F] MOVE_ENTITY: Update entity position (mode=1)
  4: 0x0036 [0x6F] WAIT_FRAME_DELAY: Yield until WaitTime reaches zero
  5: 0x0037 [0x4A] Neosaliat (ID: 16982475/0x010321CB) looks at Rongelouts (ID: 16982470/0x010321C6)
  6: 0x0040 [0x00] END_REQSTACK()
```

### Event 65535.3

#### Metadata

| Field        | Value    |
|--------------|----------|
| Entrypoint   | 0x0041   |
| Data Size    | 10 bytes |
| Instructions | 2        |

```
      00 01 02 03 04 05 06 07  08 09 0A 0B 0C 0D 0E 0F
      -- -- -- -- -- -- -- --  -- -- -- -- -- -- -- --
0040:    6C F8 FF FF 7F 06 80  07 80 00                  l.........     
```

#### Opcodes

```
  0: 0x0041 [0x6C] FADE_ENTITY_COLOR(entity_id=EventEntity, end_alpha=0*, fade_time=60*)
  1: 0x004A [0x00] END_REQSTACK()
```

### Event 65535.4

#### Metadata

| Field        | Value    |
|--------------|----------|
| Entrypoint   | 0x004B   |
| Data Size    | 10 bytes |
| Instructions | 2        |

```
      00 01 02 03 04 05 06 07  08 09 0A 0B 0C 0D 0E 0F
      -- -- -- -- -- -- -- --  -- -- -- -- -- -- -- --
0040:                                   6C F8 FF FF 7F             l....
0050: 08 80 07 80 00                                    .....           
```

#### Opcodes

```
  0: 0x004B [0x6C] FADE_ENTITY_COLOR(entity_id=EventEntity, end_alpha=128*, fade_time=60*)
  1: 0x0054 [0x00] END_REQSTACK()
```

### Event 65535.5

#### Metadata

| Field        | Value    |
|--------------|----------|
| Entrypoint   | 0x0055   |
| Data Size    | 30 bytes |
| Instructions | 8        |

```
      00 01 02 03 04 05 06 07  08 09 0A 0B 0C 0D 0E 0F
      -- -- -- -- -- -- -- --  -- -- -- -- -- -- -- --
0050:                32 00 80  1F 00 09 80 0A 80 03 80       2..........
0060: 1F 01 6F 4A CB 21 03 01  CC 21 03 01 6F 76 CB 21  ..oJ.!...!..ov.!
0070: 03 01 00                                          ...             
```

#### Opcodes

```
  0: 0x0055 [0x32] ExtData[1]->MainSpeed = 13* * 0.1
  1: 0x0058 [0x1F] MOVE_ENTITY: EventEntity moves to X=-567.971*, Z=35.345*, Y=1.999*
  2: 0x0060 [0x1F] MOVE_ENTITY: Update entity position (mode=1)
  3: 0x0062 [0x6F] WAIT_FRAME_DELAY: Yield until WaitTime reaches zero
  4: 0x0063 [0x4A] Neosaliat (ID: 16982475/0x010321CB) looks at Silver Kettle (ID: 16982476/0x010321CC)
  5: 0x006C [0x6F] WAIT_FRAME_DELAY: Yield until WaitTime reaches zero
  6: 0x006D [0x76] CHECK_ENTITY_RENDER_FLAGS: Wait until Neosaliat (ID: 16982475/0x010321CB) Render.Flags0 and Render.Flags3 conditions are met
  7: 0x0072 [0x00] END_REQSTACK()
```

### Event 65535.6

#### Metadata

| Field        | Value    |
|--------------|----------|
| Entrypoint   | 0x0073   |
| Data Size    | 15 bytes |
| Instructions | 5        |

```
      00 01 02 03 04 05 06 07  08 09 0A 0B 0C 0D 0E 0F
      -- -- -- -- -- -- -- --  -- -- -- -- -- -- -- --
0070:          32 00 80 1F 00  0B 80 0C 80 03 80 1F 01     2............
0080: 6F 00                                             o.              
```

#### Opcodes

```
  0: 0x0073 [0x32] ExtData[1]->MainSpeed = 13* * 0.1
  1: 0x0076 [0x1F] MOVE_ENTITY: EventEntity moves to X=-563.169*, Z=39.889*, Y=1.999*
  2: 0x007E [0x1F] MOVE_ENTITY: Update entity position (mode=1)
  3: 0x0080 [0x6F] WAIT_FRAME_DELAY: Yield until WaitTime reaches zero
  4: 0x0081 [0x00] END_REQSTACK()
```

### Event 65535.7

#### Metadata

| Field        | Value    |
|--------------|----------|
| Entrypoint   | 0x0082   |
| Data Size    | 15 bytes |
| Instructions | 5        |

```
      00 01 02 03 04 05 06 07  08 09 0A 0B 0C 0D 0E 0F
      -- -- -- -- -- -- -- --  -- -- -- -- -- -- -- --
0080:       32 00 80 1F 00 0D  80 0E 80 03 80 1F 01 6F    2............o
0090: 00                                                .               
```

#### Opcodes

```
  0: 0x0082 [0x32] ExtData[1]->MainSpeed = 13* * 0.1
  1: 0x0085 [0x1F] MOVE_ENTITY: EventEntity moves to X=-564.659*, Z=44.003*, Y=1.999*
  2: 0x008D [0x1F] MOVE_ENTITY: Update entity position (mode=1)
  3: 0x008F [0x6F] WAIT_FRAME_DELAY: Yield until WaitTime reaches zero
  4: 0x0090 [0x00] END_REQSTACK()
```

### Event 5086

#### Metadata

| Field        | Value   |
|--------------|---------|
| Entrypoint   | 0x0091  |
| Data Size    | 1 bytes |
| Instructions | 1       |

```
      00 01 02 03 04 05 06 07  08 09 0A 0B 0C 0D 0E 0F
      -- -- -- -- -- -- -- --  -- -- -- -- -- -- -- --
0090:    00                                              .              
```

#### Opcodes

```
  0: 0x0091 [0x00] END_REQSTACK()
```
