# 16982426 - Zazarg

## Common Data

| Field            | Value                          |
|------------------|--------------------------------|
| Zone             | Aht Urhgan Whitegate2 (ID: 50) |
| Block Size       | 424 bytes                      |
| Total Events     | 16                             |
| References Count | 19                             |

## List of Events

| Event ID                   | Entrypoint   |   Size |   Instructions |
|----------------------------|--------------|--------|----------------|
| [65535](#event-65535)      | 0x0000       |      1 |              1 |
| [65535.1](#event-655351)   | 0x0001       |     49 |              7 |
| [65535.2](#event-655352)   | 0x0032       |     16 |              2 |
| [65535.3](#event-655353)   | 0x0042       |     14 |              2 |
| [65535.4](#event-655354)   | 0x0050       |     29 |              3 |
| [65535.5](#event-655355)   | 0x006D       |     16 |              2 |
| [65535.6](#event-655356)   | 0x007D       |     14 |              2 |
| [65535.7](#event-655357)   | 0x008B       |     16 |              2 |
| [65535.8](#event-655358)   | 0x009B       |     14 |              2 |
| [65535.9](#event-655359)   | 0x00A9       |     16 |              2 |
| [65535.10](#event-6553510) | 0x00B9       |     14 |              2 |
| [5093](#event-5093)        | 0x00C7       |      1 |              1 |
| [65535.11](#event-6553511) | 0x00C8       |     21 |              2 |
| [65535.12](#event-6553512) | 0x00DD       |     21 |              2 |
| [65535.13](#event-6553513) | 0x00F2       |     14 |              4 |
| [65535.14](#event-6553514) | 0x0100       |     10 |              2 |

## DAT References (imed_data)

|   Index | Hex Value   |   Dec Value |
|---------|-------------|-------------|
|       0 | 0x0478      |        1144 |
|       1 | 0x003C      |          60 |
|       2 | 0x037F      |         895 |
|       3 | 0x0008      |           8 |
|       4 | 0x000F      |          15 |
|       5 | 0x009F      |         159 |
|       6 | 0x00AE      |         174 |
|       7 | 0x01FE      |         510 |
|       8 | 0x0088      |         136 |
|       9 | 0x006E      |         110 |
|      10 | 0x0086      |         134 |
|      11 | 0x13999     |       80281 |
|      12 | 0xFFFDE2C1  |  4294828737 |
|      13 | 0xFFFFC54A  |  4294952266 |
|      14 | 0x0BD1      |        3025 |
|      15 | 0x138E9     |       80105 |
|      16 | 0xFFFDFA5F  |  4294834783 |
|      17 | 0xFFFFE890  |  4294961296 |
|      18 | 0x0A2E      |        2606 |

## Events

### Event 65535

#### Metadata

| Field        | Value   |
|--------------|---------|
| Entrypoint   | 0x0000  |
| Data Size    | 1 bytes |
| Instructions | 1       |

```
      00 01 02 03 04 05 06 07  08 09 0A 0B 0C 0D 0E 0F
      -- -- -- -- -- -- -- --  -- -- -- -- -- -- -- --
0000: 00                                                .               
```

#### Opcodes

```
  0: 0x0000 [0x00] END_REQSTACK()
```

### Event 65535.1

#### Metadata

| Field        | Value    |
|--------------|----------|
| Entrypoint   | 0x0001   |
| Data Size    | 49 bytes |
| Instructions | 7        |

```
      00 01 02 03 04 05 06 07  08 09 0A 0B 0C 0D 0E 0F
      -- -- -- -- -- -- -- --  -- -- -- -- -- -- -- --
0000:    7C 00 F8 FF FF 7F 5B  00 80 F8 FF FF 7F F8 FF   |.....[........
0010: FF 7F 67 61 68 30 53 F8  FF FF 7F F8 FF FF 7F 67  ..gah0S........g
0020: 61 68 30 7C 01 F8 FF FF  7F 5E 69 64 6C 30 1C 01  ah0|.....^idl0..
0030: 80 00                                             ..              
```

#### Opcodes

```
  0: 0x0001 [0x7C] EventEntity->Render.Flags2 |= 0x00
  1: 0x0007 [0x5B] LOAD_EXT_SCHEDULER: Load scheduler "gah0" with entities [EventEntity, EventEntity], work=1144*
  2: 0x0016 [0x53] WAIT_SCHEDULER_TASK: Wait for scheduler "gah0" with entities [EventEntity, EventEntity]
  3: 0x0023 [0x7C] EventEntity->Render.Flags2 |= 0x01
  4: 0x0029 [0x5E] EventEntity goes idle (kills current action) (animation: "idl0")
  5: 0x002E [0x1C] WAIT(60* ticks)
  6: 0x0031 [0x00] END_REQSTACK()
```

### Event 65535.2

#### Metadata

| Field        | Value    |
|--------------|----------|
| Entrypoint   | 0x0032   |
| Data Size    | 16 bytes |
| Instructions | 2        |

```
      00 01 02 03 04 05 06 07  08 09 0A 0B 0C 0D 0E 0F
      -- -- -- -- -- -- -- --  -- -- -- -- -- -- -- --
0030:       5B 00 80 F8 FF FF  7F F8 FF FF 7F 6A 6D 70    [..........jmp
0040: 30 00                                             0.              
```

#### Opcodes

```
  0: 0x0032 [0x5B] LOAD_EXT_SCHEDULER: Load scheduler "jmp0" with entities [EventEntity, EventEntity], work=1144*
  1: 0x0041 [0x00] END_REQSTACK()
```

### Event 65535.3

#### Metadata

| Field        | Value    |
|--------------|----------|
| Entrypoint   | 0x0042   |
| Data Size    | 14 bytes |
| Instructions | 2        |

```
      00 01 02 03 04 05 06 07  08 09 0A 0B 0C 0D 0E 0F
      -- -- -- -- -- -- -- --  -- -- -- -- -- -- -- --
0040:       53 F8 FF FF 7F F8  FF FF 7F 6A 6D 70 30 00    S........jmp0.
```

#### Opcodes

```
  0: 0x0042 [0x53] WAIT_SCHEDULER_TASK: Wait for scheduler "jmp0" with entities [EventEntity, EventEntity]
  1: 0x004F [0x00] END_REQSTACK()
```

### Event 65535.4

#### Metadata

| Field        | Value    |
|--------------|----------|
| Entrypoint   | 0x0050   |
| Data Size    | 29 bytes |
| Instructions | 3        |

```
      00 01 02 03 04 05 06 07  08 09 0A 0B 0C 0D 0E 0F
      -- -- -- -- -- -- -- --  -- -- -- -- -- -- -- --
0050: 5B 00 80 F8 FF FF 7F F8  FF FF 7F 6A 6D 70 31 53  [..........jmp1S
0060: F8 FF FF 7F F8 FF FF 7F  6A 6D 70 31 00           ........jmp1.   
```

#### Opcodes

```
  0: 0x0050 [0x5B] LOAD_EXT_SCHEDULER: Load scheduler "jmp1" with entities [EventEntity, EventEntity], work=1144*
  1: 0x005F [0x53] WAIT_SCHEDULER_TASK: Wait for scheduler "jmp1" with entities [EventEntity, EventEntity]
  2: 0x006C [0x00] END_REQSTACK()
```

### Event 65535.5

#### Metadata

| Field        | Value    |
|--------------|----------|
| Entrypoint   | 0x006D   |
| Data Size    | 16 bytes |
| Instructions | 2        |

```
      00 01 02 03 04 05 06 07  08 09 0A 0B 0C 0D 0E 0F
      -- -- -- -- -- -- -- --  -- -- -- -- -- -- -- --
0060:                                         5B 02 80               [..
0070: F8 FF FF 7F F8 FF FF 7F  77 61 72 30 00           ........war0.   
```

#### Opcodes

```
  0: 0x006D [0x5B] LOAD_EXT_SCHEDULER: Load scheduler "war0" with entities [EventEntity, EventEntity], work=895*
  1: 0x007C [0x00] END_REQSTACK()
```

### Event 65535.6

#### Metadata

| Field        | Value    |
|--------------|----------|
| Entrypoint   | 0x007D   |
| Data Size    | 14 bytes |
| Instructions | 2        |

```
      00 01 02 03 04 05 06 07  08 09 0A 0B 0C 0D 0E 0F
      -- -- -- -- -- -- -- --  -- -- -- -- -- -- -- --
0070:                                         53 F8 FF               S..
0080: FF 7F F8 FF FF 7F 77 61  72 30 00                 ......war0.     
```

#### Opcodes

```
  0: 0x007D [0x53] WAIT_SCHEDULER_TASK: Wait for scheduler "war0" with entities [EventEntity, EventEntity]
  1: 0x008A [0x00] END_REQSTACK()
```

### Event 65535.7

#### Metadata

| Field        | Value    |
|--------------|----------|
| Entrypoint   | 0x008B   |
| Data Size    | 16 bytes |
| Instructions | 2        |

```
      00 01 02 03 04 05 06 07  08 09 0A 0B 0C 0D 0E 0F
      -- -- -- -- -- -- -- --  -- -- -- -- -- -- -- --
0080:                                   5B 02 80 F8 FF             [....
0090: FF 7F F8 FF FF 7F 77 61  72 31 00                 ......war1.     
```

#### Opcodes

```
  0: 0x008B [0x5B] LOAD_EXT_SCHEDULER: Load scheduler "war1" with entities [EventEntity, EventEntity], work=895*
  1: 0x009A [0x00] END_REQSTACK()
```

### Event 65535.8

#### Metadata

| Field        | Value    |
|--------------|----------|
| Entrypoint   | 0x009B   |
| Data Size    | 14 bytes |
| Instructions | 2        |

```
      00 01 02 03 04 05 06 07  08 09 0A 0B 0C 0D 0E 0F
      -- -- -- -- -- -- -- --  -- -- -- -- -- -- -- --
0090:                                   53 F8 FF FF 7F             S....
00A0: F8 FF FF 7F 77 61 72 31  00                       ....war1.       
```

#### Opcodes

```
  0: 0x009B [0x53] WAIT_SCHEDULER_TASK: Wait for scheduler "war1" with entities [EventEntity, EventEntity]
  1: 0x00A8 [0x00] END_REQSTACK()
```

### Event 65535.9

#### Metadata

| Field        | Value    |
|--------------|----------|
| Entrypoint   | 0x00A9   |
| Data Size    | 16 bytes |
| Instructions | 2        |

```
      00 01 02 03 04 05 06 07  08 09 0A 0B 0C 0D 0E 0F
      -- -- -- -- -- -- -- --  -- -- -- -- -- -- -- --
00A0:                             5B 02 80 F8 FF FF 7F           [......
00B0: F8 FF FF 7F 77 61 72 32  00                       ....war2.       
```

#### Opcodes

```
  0: 0x00A9 [0x5B] LOAD_EXT_SCHEDULER: Load scheduler "war2" with entities [EventEntity, EventEntity], work=895*
  1: 0x00B8 [0x00] END_REQSTACK()
```

### Event 65535.10

#### Metadata

| Field        | Value    |
|--------------|----------|
| Entrypoint   | 0x00B9   |
| Data Size    | 14 bytes |
| Instructions | 2        |

```
      00 01 02 03 04 05 06 07  08 09 0A 0B 0C 0D 0E 0F
      -- -- -- -- -- -- -- --  -- -- -- -- -- -- -- --
00B0:                             53 F8 FF FF 7F F8 FF           S......
00C0: FF 7F 77 61 72 32 00                              ..war2.         
```

#### Opcodes

```
  0: 0x00B9 [0x53] WAIT_SCHEDULER_TASK: Wait for scheduler "war2" with entities [EventEntity, EventEntity]
  1: 0x00C6 [0x00] END_REQSTACK()
```

### Event 5093

#### Metadata

| Field        | Value   |
|--------------|---------|
| Entrypoint   | 0x00C7  |
| Data Size    | 1 bytes |
| Instructions | 1       |

```
      00 01 02 03 04 05 06 07  08 09 0A 0B 0C 0D 0E 0F
      -- -- -- -- -- -- -- --  -- -- -- -- -- -- -- --
00C0:                      00                                  .        
```

#### Opcodes

```
  0: 0x00C7 [0x00] END_REQSTACK()
```

### Event 65535.11

#### Metadata

| Field        | Value    |
|--------------|----------|
| Entrypoint   | 0x00C8   |
| Data Size    | 21 bytes |
| Instructions | 2        |

```
      00 01 02 03 04 05 06 07  08 09 0A 0B 0C 0D 0E 0F
      -- -- -- -- -- -- -- --  -- -- -- -- -- -- -- --
00C0:                          B6 0B 03 80 04 80 05 80          ........
00D0: 06 80 06 80 06 80 06 80  07 80 07 80 00           .............   
```

#### Opcodes

```
  0: 0x00C8 [0xB6] ENTITY_APPEARANCE_HANDLER(case=Full entity look, race=8*, hair=15*, head=159*, body=174*, hands=174*, legs=174*, feet=174*, main=510*, sub=510*)
  1: 0x00DC [0x00] END_REQSTACK()
```

### Event 65535.12

#### Metadata

| Field        | Value    |
|--------------|----------|
| Entrypoint   | 0x00DD   |
| Data Size    | 21 bytes |
| Instructions | 2        |

```
      00 01 02 03 04 05 06 07  08 09 0A 0B 0C 0D 0E 0F
      -- -- -- -- -- -- -- --  -- -- -- -- -- -- -- --
00D0:                                         B6 0B 03               ...
00E0: 80 04 80 08 80 09 80 09  80 09 80 09 80 0A 80 0A  ................
00F0: 80 00                                             ..              
```

#### Opcodes

```
  0: 0x00DD [0xB6] ENTITY_APPEARANCE_HANDLER(case=Full entity look, race=8*, hair=15*, head=136*, body=110*, hands=110*, legs=110*, feet=110*, main=134*, sub=134*)
  1: 0x00F1 [0x00] END_REQSTACK()
```

### Event 65535.13

#### Metadata

| Field        | Value    |
|--------------|----------|
| Entrypoint   | 0x00F2   |
| Data Size    | 14 bytes |
| Instructions | 4        |

```
      00 01 02 03 04 05 06 07  08 09 0A 0B 0C 0D 0E 0F
      -- -- -- -- -- -- -- --  -- -- -- -- -- -- -- --
00F0:       33 01 37 0B 80 0C  80 0D 80 0E 80 33 01 00    3.7........3..
```

#### Opcodes

```
  0: 0x00F2 [0x33] EventEntity->Render.Flags0 |= 0x200000 // Bit 21 (flag=0x01)
  1: 0x00F4 [0x37] UPDATE_EVENT_POSITION_AND_DIR: x=80.281*, z=-138.559*, y=-15.030*, direction=265.9°*
  2: 0x00FD [0x33] EventEntity->Render.Flags0 |= 0x200000 // Bit 21 (flag=0x01)
  3: 0x00FF [0x00] END_REQSTACK()
```

### Event 65535.14

#### Metadata

| Field        | Value    |
|--------------|----------|
| Entrypoint   | 0x0100   |
| Data Size    | 10 bytes |
| Instructions | 2        |

```
      00 01 02 03 04 05 06 07  08 09 0A 0B 0C 0D 0E 0F
      -- -- -- -- -- -- -- --  -- -- -- -- -- -- -- --
0100: 37 0F 80 10 80 11 80 12  80 00                    7.........      
```

#### Opcodes

```
  0: 0x0100 [0x37] UPDATE_EVENT_POSITION_AND_DIR: x=80.105*, z=-132.513*, y=-6.000*, direction=229.0°*
  1: 0x0109 [0x00] END_REQSTACK()
```
