# 16982615

## Common Data

| Field            | Value                          |
|------------------|--------------------------------|
| Zone             | Aht Urhgan Whitegate2 (ID: 50) |
| Block Size       | 22124 bytes                    |
| Total Events     | 9                              |
| References Count | 366                            |

## List of Events

| Event ID              | Entrypoint   |   Size |   Instructions |
|-----------------------|--------------|--------|----------------|
| [65535](#event-65535) | 0x0000       |    658 |             62 |
| [925](#event-925)     | 0x0292       |   1887 |            216 |
| [926](#event-926)     | 0x09F1       |   4209 |            493 |
| [927](#event-927)     | 0x1A62       |   2068 |            255 |
| [928](#event-928)     | 0x2276       |   3152 |            406 |
| [929](#event-929)     | 0x2EC6       |   2282 |            312 |
| [930](#event-930)     | 0x37B0       |   2169 |            272 |
| [931](#event-931)     | 0x4029       |   1898 |            228 |
| [932](#event-932)     | 0x4793       |   2282 |            312 |

## DAT References (imed_data)

|   Index | Hex Value   |   Dec Value |
|---------|-------------|-------------|
|       0 | 0x00C8      |         200 |
|       1 | 0x0000      |           0 |
|       2 | 0x00C9      |         201 |
|       3 | 0x0001      |           1 |
|       4 | 0x002D      |          45 |
|       5 | 0x0002      |           2 |
|       6 | 0x001E      |          30 |
|       7 | 0x00D7      |         215 |
|       8 | 0x0013      |          19 |
|       9 | 0x0233      |         563 |
|      10 | 0x5E0A      |       24074 |
|      11 | 0xFFFF25A8  |  4294911400 |
|      12 | 0xFFFFE890  |  4294961296 |
|      13 | 0x0FFC      |        4092 |
|      14 | 0x6D67      |       28007 |
|      15 | 0xFFFF4D79  |  4294921593 |
|      16 | 0xFFFFE184  |  4294959492 |
|      17 | 0x0A14      |        2580 |
|      18 | 0x035F      |         863 |
|      19 | 0x0342      |         834 |
|      20 | 0x000F      |          15 |
|      21 | 0x01EE      |         494 |
|      22 | 0x007F      |         127 |
|      23 | 0x0069      |         105 |
|      24 | 0x39FA      |       14842 |
|      25 | 0x39FB      |       14843 |
|      26 | 0x39FC      |       14844 |
|      27 | 0x39FD      |       14845 |
|      28 | 0x001D      |          29 |
|      29 | 0x0356      |         854 |
|      30 | 0x39FE      |       14846 |
|      31 | 0x39FF      |       14847 |
|      32 | 0x0015      |          21 |
|      33 | 0x8A62      |       35426 |
|      34 | 0xFFFF3745  |  4294915909 |
|      35 | 0xFFFFE637  |  4294960695 |
|      36 | 0x0C1C      |        3100 |
|      37 | 0x3A00      |       14848 |
|      38 | 0x00B2      |         178 |
|      39 | 0x3A01      |       14849 |
|      40 | 0x000A      |          10 |
|      41 | 0x0064      |         100 |
|      42 | 0x0014      |          20 |
|      43 | 0x003C      |          60 |
|      44 | 0x3A02      |       14850 |
|      45 | 0x3A03      |       14851 |
|      46 | 0x3A04      |       14852 |
|      47 | 0x3A05      |       14853 |
|      48 | 0x63FB      |       25595 |
|      49 | 0xFFFF4DA6  |  4294921638 |
|      50 | 0x0810      |        2064 |
|      51 | 0x0003      |           3 |
|      52 | 0x0004      |           4 |
|      53 | 0x0005      |           5 |
|      54 | 0x0006      |           6 |
|      55 | 0x0007      |           7 |
|      56 | 0x0008      |           8 |
|      57 | 0x0078      |         120 |
|      58 | 0x3A06      |       14854 |
|      59 | 0x0028      |          40 |
|      60 | 0x3A07      |       14855 |
|      61 | 0x3A08      |       14856 |
|      62 | 0x0344      |         836 |
|      63 | 0x3A09      |       14857 |
|      64 | 0x0141      |         321 |
|      65 | 0x022F      |         559 |
|      66 | 0x000B      |          11 |
|      67 | 0xAA0E      |       43534 |
|      68 | 0x0B9F      |        2975 |
|      69 | 0xFFFFFFE6  |  4294967270 |
|      70 | 0xC15A      |       49498 |
|      71 | 0x03F1      |        1009 |
|      72 | 0xFFFFFAB6  |  4294965942 |
|      73 | 0xC436      |       50230 |
|      74 | 0x03E8      |        1000 |
|      75 | 0x03C1      |         961 |
|      76 | 0xC4D2      |       50386 |
|      77 | 0xFFFFF37C  |  4294964092 |
|      78 | 0xBD54      |       48468 |
|      79 | 0x022B      |         555 |
|      80 | 0x0D87      |        3463 |
|      81 | 0xBF1A      |       48922 |
|      82 | 0x04C4      |        1220 |
|      83 | 0x0D41      |        3393 |
|      84 | 0xB409      |       46089 |
|      85 | 0x0389      |         905 |
|      86 | 0x037B      |         891 |
|      87 | 0x3A0A      |       14858 |
|      88 | 0x3A0B      |       14859 |
|      89 | 0x3A0C      |       14860 |
|      90 | 0x0351      |         849 |
|      91 | 0x006E      |         110 |
|      92 | 0x3A0D      |       14861 |
|      93 | 0x3A0E      |       14862 |
|      94 | 0x3A0F      |       14863 |
|      95 | 0x3A10      |       14864 |
|      96 | 0x046E      |        1134 |
|      97 | 0x3A11      |       14865 |
|      98 | 0x3A12      |       14866 |
|      99 | 0x004D      |          77 |
|     100 | 0x0010      |          16 |
|     101 | 0xFFF8AD5F  |  4294487391 |
|     102 | 0x65476     |      414838 |
|     103 | 0xFFFFF061  |  4294963297 |
|     104 | 0x0C0F      |        3087 |
|     105 | 0xFFF89ACD  |  4294482637 |
|     106 | 0x668A0     |      420000 |
|     107 | 0xFFFFF093  |  4294963347 |
|     108 | 0x0495      |        1173 |
|     109 | 0x04A4      |        1188 |
|     110 | 0x049E      |        1182 |
|     111 | 0x00B9      |         185 |
|     112 | 0x283D      |       10301 |
|     113 | 0x0144      |         324 |
|     114 | 0x3A13      |       14867 |
|     115 | 0x3A14      |       14868 |
|     116 | 0x3A15      |       14869 |
|     117 | 0x3A16      |       14870 |
|     118 | 0x3A17      |       14871 |
|     119 | 0x3A18      |       14872 |
|     120 | 0x0045      |          69 |
|     121 | 0x3A19      |       14873 |
|     122 | 0x3A1A      |       14874 |
|     123 | 0x3A1B      |       14875 |
|     124 | 0x3A1C      |       14876 |
|     125 | 0x3A1D      |       14877 |
|     126 | 0x3A1E      |       14878 |
|     127 | 0x3A1F      |       14879 |
|     128 | 0x3A20      |       14880 |
|     129 | 0x3A21      |       14881 |
|     130 | 0xFFF8B140  |  4294488384 |
|     131 | 0x668C2     |      420034 |
|     132 | 0x0800      |        2048 |
|     133 | 0xFFF87842  |  4294473794 |
|     134 | 0x61841     |      399425 |
|     135 | 0x0C00      |        3072 |
|     136 | 0xFFF87E20  |  4294475296 |
|     137 | 0x65518     |      415000 |
|     138 | 0xFFFFF060  |  4294963296 |
|     139 | 0xFFF89379  |  4294480761 |
|     140 | 0x04A5      |        1189 |
|     141 | 0x0497      |        1175 |
|     142 | 0x049B      |        1179 |
|     143 | 0x0428      |        1064 |
|     144 | 0x0140      |         320 |
|     145 | 0x3A22      |       14882 |
|     146 | 0x005A      |          90 |
|     147 | 0x0186      |         390 |
|     148 | 0x3A23      |       14883 |
|     149 | 0x0046      |          70 |
|     150 | 0x0050      |          80 |
|     151 | 0x3A24      |       14884 |
|     152 | 0x0096      |         150 |
|     153 | 0x00B4      |         180 |
|     154 | 0x3A25      |       14885 |
|     155 | 0x3A26      |       14886 |
|     156 | 0x0024      |          36 |
|     157 | 0x3A27      |       14887 |
|     158 | 0x0353      |         851 |
|     159 | 0x3A28      |       14888 |
|     160 | 0x3A29      |       14889 |
|     161 | 0x3A2A      |       14890 |
|     162 | 0x3A2B      |       14891 |
|     163 | 0x000D      |          13 |
|     164 | 0x3A2C      |       14892 |
|     165 | 0x3A2D      |       14893 |
|     166 | 0x0032      |          50 |
|     167 | 0x03E7      |         999 |
|     168 | 0x017F      |         383 |
|     169 | 0x01C2      |         450 |
|     170 | 0x3A2E      |       14894 |
|     171 | 0x3A2F      |       14895 |
|     172 | 0x3A30      |       14896 |
|     173 | 0x00AA      |         170 |
|     174 | 0x3A31      |       14897 |
|     175 | 0x3A32      |       14898 |
|     176 | 0x0094      |         148 |
|     177 | 0x3A33      |       14899 |
|     178 | 0x04DE      |        1246 |
|     179 | 0x3A34      |       14900 |
|     180 | 0x3A35      |       14901 |
|     181 | 0x3A36      |       14902 |
|     182 | 0x3A37      |       14903 |
|     183 | 0xFFFFF728  |  4294965032 |
|     184 | 0xB61E      |       46622 |
|     185 | 0x0BA0      |        2976 |
|     186 | 0x3A38      |       14904 |
|     187 | 0x3A39      |       14905 |
|     188 | 0x3A3A      |       14906 |
|     189 | 0x3A3B      |       14907 |
|     190 | 0x3A3C      |       14908 |
|     191 | 0x3A3D      |       14909 |
|     192 | 0x3A3E      |       14910 |
|     193 | 0x03A5      |         933 |
|     194 | 0x3A3F      |       14911 |
|     195 | 0x0086      |         134 |
|     196 | 0x01EF      |         495 |
|     197 | 0x3A40      |       14912 |
|     198 | 0x3A41      |       14913 |
|     199 | 0x3A42      |       14914 |
|     200 | 0x03A0      |         928 |
|     201 | 0x3A43      |       14915 |
|     202 | 0x008C      |         140 |
|     203 | 0x3A44      |       14916 |
|     204 | 0x3A45      |       14917 |
|     205 | 0x03A2      |         930 |
|     206 | 0x0080      |         128 |
|     207 | 0x008A      |         138 |
|     208 | 0x006B      |         107 |
|     209 | 0x009F      |         159 |
|     210 | 0x3A46      |       14918 |
|     211 | 0x3A47      |       14919 |
|     212 | 0x3A48      |       14920 |
|     213 | 0x3A49      |       14921 |
|     214 | 0x0258      |         600 |
|     215 | 0x3A4A      |       14922 |
|     216 | 0x3A4B      |       14923 |
|     217 | 0x3A4C      |       14924 |
|     218 | 0x3A4D      |       14925 |
|     219 | 0x3A4E      |       14926 |
|     220 | 0x3A4F      |       14927 |
|     221 | 0x004E      |          78 |
|     222 | 0x0047      |          71 |
|     223 | 0xFFFBC9F8  |  4294691320 |
|     224 | 0xFFFF73BB  |  4294931387 |
|     225 | 0x8496      |       33942 |
|     226 | 0x0E00      |        3584 |
|     227 | 0x013E      |         318 |
|     228 | 0x3A50      |       14928 |
|     229 | 0x3A51      |       14929 |
|     230 | 0x00F0      |         240 |
|     231 | 0x00AE      |         174 |
|     232 | 0x3A52      |       14930 |
|     233 | 0x3A53      |       14931 |
|     234 | 0x3A54      |       14932 |
|     235 | 0x3A55      |       14933 |
|     236 | 0x3A56      |       14934 |
|     237 | 0x3A57      |       14935 |
|     238 | 0x3A58      |       14936 |
|     239 | 0x2FE3      |       12259 |
|     240 | 0xD44D      |       54349 |
|     241 | 0x06D6      |        1750 |
|     242 | 0x3A59      |       14937 |
|     243 | 0x00A0      |         160 |
|     244 | 0x007C      |         124 |
|     245 | 0x11C8      |        4552 |
|     246 | 0xC3E2      |       50146 |
|     247 | 0x3A5A      |       14938 |
|     248 | 0x3A5B      |       14939 |
|     249 | 0x3A5C      |       14940 |
|     250 | 0x3A5D      |       14941 |
|     251 | 0x3A5E      |       14942 |
|     252 | 0x3A5F      |       14943 |
|     253 | 0x3A60      |       14944 |
|     254 | 0x3A61      |       14945 |
|     255 | 0x3A62      |       14946 |
|     256 | 0x3A63      |       14947 |
|     257 | 0x3A64      |       14948 |
|     258 | 0x3A65      |       14949 |
|     259 | 0x75E6      |       30182 |
|     260 | 0xFFFF2537  |  4294911287 |
|     261 | 0x07CA      |        1994 |
|     262 | 0x6D38      |       27960 |
|     263 | 0xFFFF5250  |  4294922832 |
|     264 | 0x0834      |        2100 |
|     265 | 0x0343      |         835 |
|     266 | 0x3A66      |       14950 |
|     267 | 0x3A67      |       14951 |
|     268 | 0x81AA      |       33194 |
|     269 | 0xFFFF4CB8  |  4294921400 |
|     270 | 0xFFFFE3DD  |  4294960093 |
|     271 | 0x07D0      |        2000 |
|     272 | 0x3A68      |       14952 |
|     273 | 0x0104      |         260 |
|     274 | 0x3A69      |       14953 |
|     275 | 0x3A6A      |       14954 |
|     276 | 0x2D1B      |       11547 |
|     277 | 0x3EBA      |       16058 |
|     278 | 0x2D46      |       11590 |
|     279 | 0x3A6B      |       14955 |
|     280 | 0x3A6C      |       14956 |
|     281 | 0x3A6D      |       14957 |
|     282 | 0x3A6E      |       14958 |
|     283 | 0x3A6F      |       14959 |
|     284 | 0x3A71      |       14961 |
|     285 | 0x3A72      |       14962 |
|     286 | 0x0016      |          22 |
|     287 | 0x3A73      |       14963 |
|     288 | 0x3A74      |       14964 |
|     289 | 0x3A75      |       14965 |
|     290 | 0x3A76      |       14966 |
|     291 | 0x3A77      |       14967 |
|     292 | 0x3A78      |       14968 |
|     293 | 0x3A79      |       14969 |
|     294 | 0x3A7A      |       14970 |
|     295 | 0x3A7B      |       14971 |
|     296 | 0x3A7C      |       14972 |
|     297 | 0x3A7D      |       14973 |
|     298 | 0x3A7E      |       14974 |
|     299 | 0x3A7F      |       14975 |
|     300 | 0x6CFC      |       27900 |
|     301 | 0xFFFF56AB  |  4294923947 |
|     302 | 0x6E89      |       28297 |
|     303 | 0x0355      |         853 |
|     304 | 0x3A80      |       14976 |
|     305 | 0x3A81      |       14977 |
|     306 | 0x3A82      |       14978 |
|     307 | 0x3A83      |       14979 |
|     308 | 0x0033      |          51 |
|     309 | 0x000E      |          14 |
|     310 | 0x0110      |         272 |
|     311 | 0xFFFFB201  |  4294947329 |
|     312 | 0xFFFC65B6  |  4294731190 |
|     313 | 0xFFFFB8B4  |  4294949044 |
|     314 | 0xFFFFAF78  |  4294946680 |
|     315 | 0xFFFC7717  |  4294735639 |
|     316 | 0xFFFFB9D8  |  4294949336 |
|     317 | 0xFFFFB353  |  4294947667 |
|     318 | 0xFFFC82D0  |  4294738640 |
|     319 | 0xFFFFBA32  |  4294949426 |
|     320 | 0xFFFFADF4  |  4294946292 |
|     321 | 0xFFFC8FC1  |  4294741953 |
|     322 | 0xFFFFBA68  |  4294949480 |
|     323 | 0x0FFD      |        4093 |
|     324 | 0x0095      |         149 |
|     325 | 0x3A84      |       14980 |
|     326 | 0xFFFFFC6A  |  4294966378 |
|     327 | 0xFFFBB1C3  |  4294685123 |
|     328 | 0xFFFFC180  |  4294951296 |
|     329 | 0xFFFFF5FD  |  4294964733 |
|     330 | 0xFFFBB7DD  |  4294686685 |
|     331 | 0xFFFFEE6E  |  4294962798 |
|     332 | 0xFFFBB01B  |  4294684699 |
|     333 | 0xFFFFC13C  |  4294951228 |
|     334 | 0xFFFBBDB3  |  4294688179 |
|     335 | 0x0FEC      |        4076 |
|     336 | 0x3A85      |       14981 |
|     337 | 0x84AA      |       33962 |
|     338 | 0xFFFF3459  |  4294915161 |
|     339 | 0x000C      |          12 |
|     340 | 0x3A86      |       14982 |
|     341 | 0x3A87      |       14983 |
|     342 | 0x3A88      |       14984 |
|     343 | 0x3A89      |       14985 |
|     344 | 0x3A8A      |       14986 |
|     345 | 0x3A8B      |       14987 |
|     346 | 0x3A8C      |       14988 |
|     347 | 0x3A8D      |       14989 |
|     348 | 0x3A8E      |       14990 |
|     349 | 0x3A8F      |       14991 |
|     350 | 0x3A93      |       14995 |
|     351 | 0x035A      |         858 |
|     352 | 0x3A90      |       14992 |
|     353 | 0x3A91      |       14993 |
|     354 | 0x3A92      |       14994 |
|     355 | 0x3A94      |       14996 |
|     356 | 0x3A95      |       14997 |
|     357 | 0x3A96      |       14998 |
|     358 | 0x3A97      |       14999 |
|     359 | 0x3A98      |       15000 |
|     360 | 0x3A99      |       15001 |
|     361 | 0x3A9A      |       15002 |
|     362 | 0x3A9B      |       15003 |
|     363 | 0x3A9C      |       15004 |
|     364 | 0x0352      |         850 |
|     365 | 0x3A9D      |       15005 |

## Events

### Event 65535

#### Metadata

| Field        | Value     |
|--------------|-----------|
| Entrypoint   | 0x0000    |
| Data Size    | 658 bytes |
| Instructions | 1         |

```
      00 01 02 03 04 05 06 07  08 09 0A 0B 0C 0D 0E 0F
      -- -- -- -- -- -- -- --  -- -- -- -- -- -- -- --
0000: 00 45 00 80 F0 FF FF 7F  F0 FF FF 7F 66 64 69 30  .E..........fdi0
0010: 01 80 55 00 80 F0 FF FF  7F F0 FF FF 7F 66 64 69  ..U..........fdi
0020: 30 1B 45 00 80 F0 FF FF  7F F0 FF FF 7F 66 64 6F  0.E..........fdo
0030: 30 01 80 55 00 80 F0 FF  FF 7F F0 FF FF 7F 66 64  0..U..........fd
0040: 6F 30 1B 45 00 80 F0 FF  FF 7F F0 FF FF 7F 66 64  o0.E..........fd
0050: 69 31 01 80 55 00 80 F0  FF FF 7F F0 FF FF 7F 66  i1..U..........f
0060: 64 69 31 1B 45 00 80 F0  FF FF 7F F0 FF FF 7F 66  di1.E..........f
0070: 64 6F 31 01 80 55 00 80  F0 FF FF 7F F0 FF FF 7F  do1..U..........
0080: 66 64 6F 31 1B 45 02 80  F0 FF FF 7F F0 FF FF 7F  fdo1.E..........
0090: 77 68 69 31 01 80 55 02  80 F0 FF FF 7F F0 FF FF  whi1..U.........
00A0: 7F 77 68 69 31 1B 45 02  80 F0 FF FF 7F F0 FF FF  .whi1.E.........
00B0: 7F 77 68 6F 31 01 80 55  02 80 F0 FF FF 7F F0 FF  .who1..U........
00C0: FF 7F 77 68 6F 31 1B 45  02 80 F0 FF FF 7F F0 FF  ..who1.E........
00D0: FF 7F 77 68 6F 32 01 80  55 02 80 F0 FF FF 7F F0  ..who2..U.......
00E0: FF FF 7F 77 68 6F 32 1B  45 02 80 F0 FF FF 7F F0  ...who2.E.......
00F0: FF FF 7F 77 68 6F 33 01  80 55 02 80 F0 FF FF 7F  ...who3..U......
0100: F0 FF FF 7F 77 68 6F 33  1B 62 03 80 F0 FF FF 7F  ....who3.b......
0110: F0 FF FF 7F 6D 61 69 6E  01 80 1C 04 80 45 00 80  ....main.....E..
0120: F0 FF FF 7F F0 FF FF 7F  66 64 6F 31 01 80 55 00  ........fdo1..U.
0130: 80 F0 FF FF 7F F0 FF FF  7F 66 64 6F 31 1B 45 00  .........fdo1.E.
0140: 80 F0 FF FF 7F F0 FF FF  7F 66 64 69 31 01 80 62  .........fdi1..b
0150: 05 80 F0 FF FF 7F F0 FF  FF 7F 6D 61 69 6E 01 80  ..........main..
0160: 1C 06 80 55 00 80 F0 FF  FF 7F F0 FF FF 7F 66 64  ...U..........fd
0170: 69 31 1B 45 00 80 F0 FF  FF 7F F0 FF FF 7F 62 6C  i1.E..........bl
0180: 6F 6E 01 80 45 02 80 F0  FF FF 7F F0 FF FF 7F 62  on..E..........b
0190: 6C 6F 6E 01 80 1B 45 02  80 F0 FF FF 7F F0 FF FF  lon...E.........
01A0: 7F 77 68 69 30 01 80 55  02 80 F0 FF FF 7F F0 FF  .whi0..U........
01B0: FF 7F 77 68 69 30 1B 45  02 80 F0 FF FF 7F F0 FF  ..whi0.E........
01C0: FF 7F 77 68 6F 30 01 80  55 02 80 F0 FF FF 7F F0  ..who0..U.......
01D0: FF FF 7F 77 68 6F 30 1B  45 07 80 F0 FF FF 7F F0  ...who0.E.......
01E0: FF FF 7F 65 66 6F 6E 01  80 55 07 80 F0 FF FF 7F  ...efon..U......
01F0: F0 FF FF 7F 65 66 6F 6E  1B 45 00 80 F0 FF FF 7F  ....efon.E......
0200: F0 FF FF 7F 66 64 69 73  01 80 1B 45 00 80 F0 FF  ....fdis...E....
0210: FF 7F F0 FF FF 7F 66 64  6F 73 01 80 55 00 80 F0  ......fdos..U...
0220: FF FF 7F F0 FF FF 7F 66  64 6F 73 1B 45 00 80 F0  .......fdos.E...
0230: FF FF 7F F0 FF FF 7F 66  64 69 66 01 80 1B 45 00  .......fdif...E.
0240: 80 F0 FF FF 7F F0 FF FF  7F 66 64 6F 66 01 80 55  .........fdof..U
0250: 00 80 F0 FF FF 7F F0 FF  FF 7F 66 64 6F 66 1B 45  ..........fdof.E
0260: 00 80 F0 FF FF 7F F0 FF  FF 7F 66 64 69 70 01 80  ..........fdip..
0270: 1B 45 00 80 F0 FF FF 7F  F0 FF FF 7F 66 64 6F 70  .E..........fdop
0280: 01 80 55 00 80 F0 FF FF  7F F0 FF FF 7F 66 64 6F  ..U..........fdo
0290: 70 1B                                             p.              
```

#### Opcodes

```
  0: 0x0000 [0x00] END_REQSTACK()
```

#### Data or dead code:

```
# Dead code (unreachable instructions):
     0x0001 [0x45] LOAD_SCHEDULED_TASK: Load scheduler "fdi0" with entities [LocalPlayer, LocalPlayer], work=[200*, 0*]
     0x0012 [0x55] WAIT_LOAD_SCHEDULER: Wait for scheduler "fdi0" with entities [LocalPlayer, LocalPlayer], work=200*
     0x0021 [0x1B] RETURN
     0x0022 [0x45] LOAD_SCHEDULED_TASK: Load scheduler "fdo0" with entities [LocalPlayer, LocalPlayer], work=[200*, 0*]
     0x0033 [0x55] WAIT_LOAD_SCHEDULER: Wait for scheduler "fdo0" with entities [LocalPlayer, LocalPlayer], work=200*
     0x0042 [0x1B] RETURN
     0x0043 [0x45] LOAD_SCHEDULED_TASK: Load scheduler "fdi1" with entities [LocalPlayer, LocalPlayer], work=[200*, 0*]
     0x0054 [0x55] WAIT_LOAD_SCHEDULER: Wait for scheduler "fdi1" with entities [LocalPlayer, LocalPlayer], work=200*
     0x0063 [0x1B] RETURN
     0x0064 [0x45] LOAD_SCHEDULED_TASK: Load scheduler "fdo1" with entities [LocalPlayer, LocalPlayer], work=[200*, 0*]
     0x0075 [0x55] WAIT_LOAD_SCHEDULER: Wait for scheduler "fdo1" with entities [LocalPlayer, LocalPlayer], work=200*
     0x0084 [0x1B] RETURN
     0x0085 [0x45] LOAD_SCHEDULED_TASK: Load scheduler "whi1" with entities [LocalPlayer, LocalPlayer], work=[201*, 0*]
     0x0096 [0x55] WAIT_LOAD_SCHEDULER: Wait for scheduler "whi1" with entities [LocalPlayer, LocalPlayer], work=201*
     0x00A5 [0x1B] RETURN
     0x00A6 [0x45] LOAD_SCHEDULED_TASK: Load scheduler "who1" with entities [LocalPlayer, LocalPlayer], work=[201*, 0*]
     0x00B7 [0x55] WAIT_LOAD_SCHEDULER: Wait for scheduler "who1" with entities [LocalPlayer, LocalPlayer], work=201*
     0x00C6 [0x1B] RETURN
     0x00C7 [0x45] LOAD_SCHEDULED_TASK: Load scheduler "who2" with entities [LocalPlayer, LocalPlayer], work=[201*, 0*]
     0x00D8 [0x55] WAIT_LOAD_SCHEDULER: Wait for scheduler "who2" with entities [LocalPlayer, LocalPlayer], work=201*
     0x00E7 [0x1B] RETURN
     0x00E8 [0x45] LOAD_SCHEDULED_TASK: Load scheduler "who3" with entities [LocalPlayer, LocalPlayer], work=[201*, 0*]
     0x00F9 [0x55] WAIT_LOAD_SCHEDULER: Wait for scheduler "who3" with entities [LocalPlayer, LocalPlayer], work=201*
     0x0108 [0x1B] RETURN
     0x0109 [0x62] LOAD_EVENT_SCHEDULER: Load scheduler "main" with entities [LocalPlayer, LocalPlayer], work=[1*, 0*]
     0x011A [0x1C] WAIT(45* ticks)
     0x011D [0x45] LOAD_SCHEDULED_TASK: Load scheduler "fdo1" with entities [LocalPlayer, LocalPlayer], work=[200*, 0*]
     0x012E [0x55] WAIT_LOAD_SCHEDULER: Wait for scheduler "fdo1" with entities [LocalPlayer, LocalPlayer], work=200*
     0x013D [0x1B] RETURN
     0x013E [0x45] LOAD_SCHEDULED_TASK: Load scheduler "fdi1" with entities [LocalPlayer, LocalPlayer], work=[200*, 0*]
     0x014F [0x62] LOAD_EVENT_SCHEDULER: Load scheduler "main" with entities [LocalPlayer, LocalPlayer], work=[2*, 0*]
     0x0160 [0x1C] WAIT(30* ticks)
     0x0163 [0x55] WAIT_LOAD_SCHEDULER: Wait for scheduler "fdi1" with entities [LocalPlayer, LocalPlayer], work=200*
     0x0172 [0x1B] RETURN
     0x0173 [0x45] LOAD_SCHEDULED_TASK: Load scheduler "blon" with entities [LocalPlayer, LocalPlayer], work=[200*, 0*]
     0x0184 [0x45] LOAD_SCHEDULED_TASK: Load scheduler "blon" with entities [LocalPlayer, LocalPlayer], work=[201*, 0*]
     0x0195 [0x1B] RETURN
     0x0196 [0x45] LOAD_SCHEDULED_TASK: Load scheduler "whi0" with entities [LocalPlayer, LocalPlayer], work=[201*, 0*]
     0x01A7 [0x55] WAIT_LOAD_SCHEDULER: Wait for scheduler "whi0" with entities [LocalPlayer, LocalPlayer], work=201*
     0x01B6 [0x1B] RETURN
     0x01B7 [0x45] LOAD_SCHEDULED_TASK: Load scheduler "who0" with entities [LocalPlayer, LocalPlayer], work=[201*, 0*]
     0x01C8 [0x55] WAIT_LOAD_SCHEDULER: Wait for scheduler "who0" with entities [LocalPlayer, LocalPlayer], work=201*
     0x01D7 [0x1B] RETURN
     0x01D8 [0x45] LOAD_SCHEDULED_TASK: Load scheduler "efon" with entities [LocalPlayer, LocalPlayer], work=[215*, 0*]
     0x01E9 [0x55] WAIT_LOAD_SCHEDULER: Wait for scheduler "efon" with entities [LocalPlayer, LocalPlayer], work=215*
     0x01F8 [0x1B] RETURN
     0x01F9 [0x45] LOAD_SCHEDULED_TASK: Load scheduler "fdis" with entities [LocalPlayer, LocalPlayer], work=[200*, 0*]
     0x020A [0x1B] RETURN
     0x020B [0x45] LOAD_SCHEDULED_TASK: Load scheduler "fdos" with entities [LocalPlayer, LocalPlayer], work=[200*, 0*]
     0x021C [0x55] WAIT_LOAD_SCHEDULER: Wait for scheduler "fdos" with entities [LocalPlayer, LocalPlayer], work=200*
     0x022B [0x1B] RETURN
     0x022C [0x45] LOAD_SCHEDULED_TASK: Load scheduler "fdif" with entities [LocalPlayer, LocalPlayer], work=[200*, 0*]
     0x023D [0x1B] RETURN
     0x023E [0x45] LOAD_SCHEDULED_TASK: Load scheduler "fdof" with entities [LocalPlayer, LocalPlayer], work=[200*, 0*]
     0x024F [0x55] WAIT_LOAD_SCHEDULER: Wait for scheduler "fdof" with entities [LocalPlayer, LocalPlayer], work=200*
     0x025E [0x1B] RETURN
     0x025F [0x45] LOAD_SCHEDULED_TASK: Load scheduler "fdip" with entities [LocalPlayer, LocalPlayer], work=[200*, 0*]
     0x0270 [0x1B] RETURN
     0x0271 [0x45] LOAD_SCHEDULED_TASK: Load scheduler "fdop" with entities [LocalPlayer, LocalPlayer], work=[200*, 0*]
     0x0282 [0x55] WAIT_LOAD_SCHEDULER: Wait for scheduler "fdop" with entities [LocalPlayer, LocalPlayer], work=200*
     0x0291 [0x1B] RETURN
```

### Event 925

#### Metadata

| Field        | Value      |
|--------------|------------|
| Entrypoint   | 0x0292     |
| Data Size    | 1887 bytes |
| Instructions | 216        |

```
      00 01 02 03 04 05 06 07  08 09 0A 0B 0C 0D 0E 0F
      -- -- -- -- -- -- -- --  -- -- -- -- -- -- -- --
0290:       42 45 00 80 F8 FF  FF 7F F8 FF FF 7F 66 64    BE..........fd
02A0: 6F 31 01 80 55 00 80 F8  FF FF 7F F8 FF FF 7F 66  o1..U..........f
02B0: 64 6F 31 46 01 38 08 80  75 00 09 80 75 01 4E 00  do1F.8..u...u.N.
02C0: 0B 22 03 01 29 10 8C 20  03 01 24 92 01 8C 20 03  ."..).. ..$... .
02D0: 01 92 01 8D 20 03 01 29  10 0B 22 03 01 1C 94 01  .... ..)..".....
02E0: F0 FF FF 7F 94 01 0B 22  03 01 94 01 8C 20 03 01  ......."..... ..
02F0: 94 01 8D 20 03 01 BA F0  FF FF 7F 0A 80 0B 80 0C  ... ............
0300: 80 0D 80 BA 0B 22 03 01  0A 80 0B 80 0C 80 0D 80  ....."..........
0310: BA 8D 20 03 01 0E 80 0F  80 10 80 11 80 7B F0 FF  .. ..........{..
0320: FF 7F 7B 8C 20 03 01 7B  8D 20 03 01 80 F0 FF FF  ..{. ..{. ......
0330: 7F 80 8C 20 03 01 80 8D  20 03 01 4A 8D 20 03 01  ... .... ..J. ..
0340: 8C 20 03 01 6F 76 8D 20  03 01 5B 12 80 8D 20 03  . ..ov. ..[... .
0350: 01 8D 20 03 01 61 73 74  30 5C 00 01 80 5C 01 01  .. ..ast0\...\..
0360: 80 9A 9A 81 00 8C 20 03  01 5B 13 80 8C 20 03 01  ...... ..[... ..
0370: 8C 20 03 01 61 67 72 30  1C 14 80 45 15 80 F0 FF  . ..agr0...E....
0380: FF 7F F0 FF FF 7F 73 31  30 31 01 80 9F 16 80 F8  ......s101......
0390: FF FF 7F F8 FF FF 7F 73  74 72 30 01 80 1A 43 00  .......str0...C.
03A0: 1C 14 80 9F 16 80 F8 FF  FF 7F F8 FF FF 7F 6B 69  ..............ki
03B0: 6C 6C 01 80 1C 17 80 52  15 80 F0 FF FF 7F F0 FF  ll.....R........
03C0: FF 7F 73 31 30 31 45 15  80 F0 FF FF 7F F0 FF FF  ..s101E.........
03D0: 7F 73 31 30 32 01 80 2B  8C 20 03 01 18 80 23 52  .s102..+. ....#R
03E0: 15 80 F0 FF FF 7F F0 FF  FF 7F 73 31 30 32 45 15  ..........s102E.
03F0: 80 F0 FF FF 7F F0 FF FF  7F 73 31 30 33 01 80 2B  .........s103..+
0400: 8C 20 03 01 19 80 23 52  15 80 F0 FF FF 7F F0 FF  . ....#R........
0410: FF 7F 73 31 30 33 45 15  80 F0 FF FF 7F F0 FF FF  ..s103E.........
0420: 7F 73 31 30 34 01 80 2B  8D 20 03 01 1A 80 23 5B  .s104..+. ....#[
0430: 13 80 8C 20 03 01 8C 20  03 01 61 67 62 30 52 15  ... ... ..agb0R.
0440: 80 F0 FF FF 7F F0 FF FF  7F 73 31 30 34 45 15 80  .........s104E..
0450: F0 FF FF 7F F0 FF FF 7F  73 31 30 35 01 80 2B 8C  ........s105..+.
0460: 20 03 01 1B 80 23 53 8C  20 03 01 8C 20 03 01 61   ....#S. ... ..a
0470: 67 62 30 6E 8D 20 03 01  1C 80 99 8D 20 03 01 52  gb0n. ...... ..R
0480: 15 80 F0 FF FF 7F F0 FF  FF 7F 73 31 30 35 45 15  ..........s105E.
0490: 80 F0 FF FF 7F F0 FF FF  7F 73 31 30 36 01 80 5B  .........s106..[
04A0: 1D 80 8C 20 03 01 8C 20  03 01 74 6C 63 30 2B 8D  ... ... ..tlc0+.
04B0: 20 03 01 1E 80 23 52 15  80 F0 FF FF 7F F0 FF FF   ....#R.........
04C0: 7F 73 31 30 36 45 15 80  F0 FF FF 7F F0 FF FF 7F  .s106E..........
04D0: 73 31 30 37 01 80 2B 8C  20 03 01 1F 80 23 6E 8D  s107..+. ....#n.
04E0: 20 03 01 20 80 99 8D 20  03 01 52 15 80 F0 FF FF   .. ... ..R.....
04F0: 7F F0 FF FF 7F 73 31 30  37 45 15 80 F0 FF FF 7F  .....s107E......
0500: F0 FF FF 7F 73 31 30 38  01 80 BA F0 FF FF 7F 21  ....s108.......!
0510: 80 22 80 23 80 24 80 BA  0B 22 03 01 21 80 22 80  .".#.$..."..!.".
0520: 23 80 24 80 2B 8D 20 03  01 25 80 23 27 10 0B 22  #.$.+. ..%.#'.."
0530: 03 01 74 1C 06 80 5C 00  26 80 5C 01 26 80 9A 52  ..t...\.&.\.&..R
0540: 15 80 F0 FF FF 7F F0 FF  FF 7F 73 31 30 38 45 15  ..........s108E.
0550: 80 F0 FF FF 7F F0 FF FF  7F 73 31 30 39 01 80 5B  .........s109..[
0560: 1D 80 8C 20 03 01 8C 20  03 01 74 6C 63 31 1C 00  ... ... ..tlc1..
0570: 80 4A 8D 20 03 01 F0 FF  FF 7F 1C 06 80 52 15 80  .J. .........R..
0580: F0 FF FF 7F F0 FF FF 7F  73 31 30 39 45 15 80 F0  ........s109E...
0590: FF FF 7F F0 FF FF 7F 73  31 31 30 01 80 6F 76 8D  .......s110..ov.
05A0: 20 03 01 2B 8D 20 03 01  27 80 23 1C 28 80 27 10   ..+. ..'.#.(.'.
05B0: 0B 22 03 01 09 27 10 8D  20 03 01 C7 1C 29 80 5B  ."...'.. ....).[
05C0: 13 80 8C 20 03 01 8C 20  03 01 61 67 72 30 1C 2A  ... ... ..agr0.*
05D0: 80 52 15 80 F0 FF FF 7F  F0 FF FF 7F 73 31 31 30  .R..........s110
05E0: 4A 8D 20 03 01 8C 20 03  01 45 15 80 F0 FF FF 7F  J. ... ..E......
05F0: F0 FF FF 7F 73 31 31 32  01 80 03 02 10 2B 80 27  ....s112.....+.'
0600: 10 59 22 03 01 07 2B 8C  20 03 01 2C 80 2A 10 59  .Y"...+. ..,.*.Y
0610: 22 03 01 5B 13 80 8C 20  03 01 8C 20 03 01 61 67  "..[... ... ..ag
0620: 62 30 1C 2A 80 52 15 80  F0 FF FF 7F F0 FF FF 7F  b0.*.R..........
0630: 73 31 31 32 45 15 80 F0  FF FF 7F F0 FF FF 7F 73  s112E..........s
0640: 31 31 31 01 80 03 02 10  2B 80 27 10 59 22 03 01  111.....+.'.Y"..
0650: 07 2B 8C 20 03 01 2D 80  2A 10 59 22 03 01 5B 13  .+. ..-.*.Y"..[.
0660: 80 8C 20 03 01 8C 20 03  01 61 67 62 30 1C 2A 80  .. ... ..agb0.*.
0670: 52 15 80 F0 FF FF 7F F0  FF FF 7F 73 31 31 31 45  R..........s111E
0680: 15 80 F0 FF FF 7F F0 FF  FF 7F 73 31 31 33 01 80  ..........s113..
0690: 03 02 10 2B 80 27 10 59  22 03 01 07 2B 8C 20 03  ...+.'.Y"...+. .
06A0: 01 2E 80 7A 00 0B 22 03  01 2A 10 59 22 03 01 5B  ...z.."..*.Y"..[
06B0: 13 80 8C 20 03 01 8C 20  03 01 61 67 62 30 1C 2A  ... ... ..agb0.*
06C0: 80 52 15 80 F0 FF FF 7F  F0 FF FF 7F 73 31 31 33  .R..........s113
06D0: 45 15 80 F0 FF FF 7F F0  FF FF 7F 73 31 31 34 01  E..........s114.
06E0: 80 03 02 10 29 80 27 10  59 22 03 01 07 2B 8C 20  ....).'.Y"...+. 
06F0: 03 01 2F 80 BA F0 FF FF  7F 30 80 31 80 10 80 32  ../......0.1...2
0700: 80 2A 10 59 22 03 01 29  10 F0 FF FF 7F 07 45 15  .*.Y"..)......E.
0710: 80 F0 FF FF 7F F0 FF FF  7F 62 6C 6F 66 01 80 02  .........blof...
0720: 02 10 03 80 80 4A 07 52  15 80 F0 FF FF 7F F0 FF  .....J.R........
0730: FF 7F 73 31 31 34 45 15  80 F0 FF FF 7F F0 FF FF  ..s114E.........
0740: 7F 73 68 6D 31 01 80 01  77 08 02 02 10 05 80 80  .shm1...w.......
0750: 75 07 52 15 80 F0 FF FF  7F F0 FF FF 7F 73 31 31  u.R..........s11
0760: 34 45 15 80 F0 FF FF 7F  F0 FF FF 7F 73 68 6D 31  4E..........shm1
0770: 01 80 01 77 08 02 02 10  33 80 80 A0 07 52 15 80  ...w....3....R..
0780: F0 FF FF 7F F0 FF FF 7F  73 31 31 34 45 15 80 F0  ........s114E...
0790: FF FF 7F F0 FF FF 7F 73  65 6D 31 01 80 01 77 08  .......sem1...w.
07A0: 02 02 10 34 80 80 CB 07  52 15 80 F0 FF FF 7F F0  ...4....R.......
07B0: FF FF 7F 73 31 31 34 45  15 80 F0 FF FF 7F F0 FF  ...s114E........
07C0: FF 7F 73 65 6D 31 01 80  01 77 08 02 02 10 35 80  ..sem1...w....5.
07D0: 80 F6 07 52 15 80 F0 FF  FF 7F F0 FF FF 7F 73 31  ...R..........s1
07E0: 31 34 45 15 80 F0 FF FF  7F F0 FF FF 7F 73 74 72  14E..........str
07F0: 31 01 80 01 77 08 02 02  10 36 80 80 21 08 52 15  1...w....6..!.R.
0800: 80 F0 FF FF 7F F0 FF FF  7F 73 31 31 34 45 15 80  .........s114E..
0810: F0 FF FF 7F F0 FF FF 7F  73 74 72 31 01 80 01 77  ........str1...w
0820: 08 02 02 10 37 80 80 4C  08 52 15 80 F0 FF FF 7F  ....7..L.R......
0830: F0 FF FF 7F 73 31 31 34  45 15 80 F0 FF FF 7F F0  ....s114E.......
0840: FF FF 7F 73 6D 74 31 01  80 01 77 08 02 02 10 38  ...smt1...w....8
0850: 80 80 77 08 52 15 80 F0  FF FF 7F F0 FF FF 7F 73  ..w.R..........s
0860: 31 31 34 45 15 80 F0 FF  FF 7F F0 FF FF 7F 73 67  114E..........sg
0870: 6C 31 01 80 01 77 08 6E  F0 FF FF 7F 35 80 99 F0  l1...w.n....5...
0880: FF FF 7F 1C 39 80 52 15  80 F0 FF FF 7F F0 FF FF  ....9.R.........
0890: 7F 73 68 6D 31 52 15 80  F0 FF FF 7F F0 FF FF 7F  .shm1R..........
08A0: 73 65 6D 31 52 15 80 F0  FF FF 7F F0 FF FF 7F 73  sem1R..........s
08B0: 74 72 31 52 15 80 F0 FF  FF 7F F0 FF FF 7F 73 6D  tr1R..........sm
08C0: 74 31 52 15 80 F0 FF FF  7F F0 FF FF 7F 73 67 6C  t1R..........sgl
08D0: 31 45 15 80 F0 FF FF 7F  F0 FF FF 7F 73 31 31 36  1E..........s116
08E0: 01 80 2B 8D 20 03 01 3A  80 23 5B 13 80 8C 20 03  ..+. ..:.#[... .
08F0: 01 8C 20 03 01 61 67 72  31 1C 3B 80 52 15 80 F0  .. ..agr1.;.R...
0900: FF FF 7F F0 FF FF 7F 73  31 31 36 45 15 80 F0 FF  .......s116E....
0910: FF 7F F0 FF FF 7F 73 31  31 37 01 80 1C 2B 80 2B  ......s117...+.+
0920: 8C 20 03 01 3C 80 23 2B  8C 20 03 01 3D 80 23 5B  . ..<.#+. ..=.#[
0930: 3E 80 8C 20 03 01 8C 20  03 01 70 6E 62 30 7B F0  >.. ... ..pnb0{.
0940: FF FF 7F 1C 2A 80 52 15  80 F0 FF FF 7F F0 FF FF  ....*.R.........
0950: 7F 73 31 31 37 45 15 80  F0 FF FF 7F F0 FF FF 7F  .s117E..........
0960: 73 31 31 38 01 80 2B 8C  20 03 01 3F 80 23 52 15  s118..+. ..?.#R.
0970: 80 F0 FF FF 7F F0 FF FF  7F 73 31 31 38 45 15 80  .........s118E..
0980: F0 FF FF 7F F0 FF FF 7F  73 31 31 39 01 80 27 10  ........s119..'.
0990: 0B 22 03 01 0B 1C 2B 80  1A 64 00 1C 06 80 59 05  ."....+..d....Y.
09A0: F0 FF FF 7F 00 52 15 80  F0 FF FF 7F F0 FF FF 7F  .....R..........
09B0: 73 31 31 39 78 1C 14 80  AB 09 1C 14 80 AB 11 01  s119x...........
09C0: 80 1C 03 80 45 40 80 F0  FF FF 7F F0 FF FF 7F 30  ....E@.........0
09D0: 62 6C 66 01 80 29 10 0B  22 03 01 1D 46 00 45 00  blf..).."...F.E.
09E0: 80 F0 FF FF 7F F0 FF FF  7F 66 64 69 32 01 80 21  .........fdi2..!
09F0: 00                                                .               
```

#### Opcodes

```
  0: 0x0292 [0x42] SET_CLI_EVENT_CANCEL_DATA()
  1: 0x0293 [0x45] LOAD_SCHEDULED_TASK: Load scheduler "fdo1" with entities [EventEntity, EventEntity], work=[200*, 0*]
  2: 0x02A4 [0x55] WAIT_LOAD_SCHEDULER: Wait for scheduler "fdo1" with entities [EventEntity, EventEntity], work=200*
  3: 0x02B3 [0x46] CAMERA_CONTROL: Disable user control
  4: 0x02B5 [0x38] SET_CLIENT_EVENT_MODE(mode=19*)
  5: 0x02B8 [0x75] LOAD_ROOM(Load indoor room, room=563*)
  6: 0x02BC [0x75] LOAD_ROOM(No action)
  7: 0x02BE [0x4E] SET_ENTITY_HIDE_FLAG: Show Unnamed NPC (ID: 16982539/0x0103220B)
  8: 0x02C4 [0x29] REQ_SET_WAIT(priority=0x10, entity_id=Naja Salaheem (ID: 16982156/0x0103208C), tag_num=0x24)
  9: 0x02CB [0x92] Naja Salaheem (ID: 16982156/0x0103208C)->Render.Flags3 ^= 0x01
 10: 0x02D1 [0x92] Abquhbah (ID: 16982157/0x0103208D)->Render.Flags3 ^= 0x01
 11: 0x02D7 [0x29] REQ_SET_WAIT(priority=0x10, entity_id=Unnamed NPC (ID: 16982539/0x0103220B), tag_num=0x1C)
 12: 0x02DE [0x94] LocalPlayer->Render.Flags3 ^= 0x01
 13: 0x02E4 [0x94] Unnamed NPC (ID: 16982539/0x0103220B)->Render.Flags3 ^= 0x01
 14: 0x02EA [0x94] Naja Salaheem (ID: 16982156/0x0103208C)->Render.Flags3 ^= 0x01
 15: 0x02F0 [0x94] Abquhbah (ID: 16982157/0x0103208D)->Render.Flags3 ^= 0x01
 16: 0x02F6 [0xBA] SET_ENTITY_POSITION(entity_id=LocalPlayer, pos_x=24.074*, pos_z=-55.896*, pos_y=-6.000*, direction=359.6°*)
 17: 0x0303 [0xBA] SET_ENTITY_POSITION(entity_id=Unnamed NPC (ID: 16982539/0x0103220B), pos_x=24.074*, pos_z=-55.896*, pos_y=-6.000*, direction=359.6°*)
 18: 0x0310 [0xBA] SET_ENTITY_POSITION(entity_id=Abquhbah (ID: 16982157/0x0103208D), pos_x=28.007*, pos_z=-45.703*, pos_y=-7.804*, direction=226.8°*)
 19: 0x031D [0x7B] LocalPlayer stops talking
 20: 0x0322 [0x7B] Naja Salaheem (ID: 16982156/0x0103208C) stops talking
 21: 0x0327 [0x7B] Abquhbah (ID: 16982157/0x0103208D) stops talking
 22: 0x032C [0x80] LOAD_WAIT(entity=LocalPlayer)
 23: 0x0331 [0x80] LOAD_WAIT(entity=Naja Salaheem (ID: 16982156/0x0103208C))
 24: 0x0336 [0x80] LOAD_WAIT(entity=Abquhbah (ID: 16982157/0x0103208D))
 25: 0x033B [0x4A] Abquhbah (ID: 16982157/0x0103208D) looks at Naja Salaheem (ID: 16982156/0x0103208C)
 26: 0x0344 [0x6F] WAIT_FRAME_DELAY: Yield until WaitTime reaches zero
 27: 0x0345 [0x76] CHECK_ENTITY_RENDER_FLAGS: Wait until Abquhbah (ID: 16982157/0x0103208D) Render.Flags0 and Render.Flags3 conditions are met
 28: 0x034A [0x5B] LOAD_EXT_SCHEDULER: Load scheduler "ast0" with entities [Abquhbah (ID: 16982157/0x0103208D), Abquhbah (ID: 16982157/0x0103208D)], work=863*
 29: 0x0359 [0x5C] MUSIC_CONTROL: Set Idle (Day) music to song 0*
 30: 0x035D [0x5C] MUSIC_CONTROL: Set Idle (Night) music to song 0*
 31: 0x0361 [0x9A] WAIT_MUSIC_SERVER()
 32: 0x0362 [0x9A] WAIT_MUSIC_SERVER()
 33: 0x0363 [0x81] SET_ENTITY_BLINKING(blink_flag=0x00, entity=Naja Salaheem (ID: 16982156/0x0103208C))
 34: 0x0369 [0x5B] LOAD_EXT_SCHEDULER: Load scheduler "agr0" with entities [Naja Salaheem (ID: 16982156/0x0103208C), Naja Salaheem (ID: 16982156/0x0103208C)], work=834*
 35: 0x0378 [0x1C] WAIT(15* ticks)
 36: 0x037B [0x45] LOAD_SCHEDULED_TASK: Load scheduler "s101" with entities [LocalPlayer, LocalPlayer], work=[494*, 0*]
 37: 0x038C [0x9F] LOAD_SCHEDULED_TASK_ALT: Load scheduler "str0" with entities [EventEntity, EventEntity], work=[127*, 0*]
 38: 0x039D [0x1A] CALL_SUBROUTINE(address=0x0043)
 39: 0x03A0 [0x1C] WAIT(15* ticks)
 40: 0x03A3 [0x9F] LOAD_SCHEDULED_TASK_ALT: Load scheduler "kill" with entities [EventEntity, EventEntity], work=[127*, 0*]
 41: 0x03B4 [0x1C] WAIT(105* ticks)
 42: 0x03B7 [0x52] END_LOAD_SCHEDULER: End scheduler "s101" with entities [LocalPlayer, LocalPlayer], work=494*
 43: 0x03C6 [0x45] LOAD_SCHEDULED_TASK: Load scheduler "s102" with entities [LocalPlayer, LocalPlayer], work=[494*, 0*]
 44: 0x03D7 [0x2B] Naja Salaheem (ID: 16982156/0x0103208C) [14842*]:
    → "What d'ya mean you can't find \u007F\u0005[him/her]!?\u007F1\u0000\u0007"
 45: 0x03DE [0x23] WAIT_FOR_DIALOG_INTERACTION
 46: 0x03DF [0x52] END_LOAD_SCHEDULER: End scheduler "s102" with entities [LocalPlayer, LocalPlayer], work=494*
 47: 0x03EE [0x45] LOAD_SCHEDULED_TASK: Load scheduler "s103" with entities [LocalPlayer, LocalPlayer], work=[494*, 0*]
 48: 0x03FF [0x2B] Naja Salaheem (ID: 16982156/0x0103208C) [14843*]:
    → "If ya can't keep my mercenaries in order, I'll just hafta to find myself a new assistant who can!\u007F1\u0000\u0007"
 49: 0x0406 [0x23] WAIT_FOR_DIALOG_INTERACTION
 50: 0x0407 [0x52] END_LOAD_SCHEDULER: End scheduler "s103" with entities [LocalPlayer, LocalPlayer], work=494*
 51: 0x0416 [0x45] LOAD_SCHEDULED_TASK: Load scheduler "s104" with entities [LocalPlayer, LocalPlayer], work=[494*, 0*]
 52: 0x0427 [0x2B] Abquhbah (ID: 16982157/0x0103208D) [14844*]:
    → "Ah, y-yes, President Naja, ma'am.\u0007With Falzum on the search, I'm sure that any m-minute now--\u007F1\u0000\u0007"
 53: 0x042E [0x23] WAIT_FOR_DIALOG_INTERACTION
 54: 0x042F [0x5B] LOAD_EXT_SCHEDULER: Load scheduler "agb0" with entities [Naja Salaheem (ID: 16982156/0x0103208C), Naja Salaheem (ID: 16982156/0x0103208C)], work=834*
 55: 0x043E [0x52] END_LOAD_SCHEDULER: End scheduler "s104" with entities [LocalPlayer, LocalPlayer], work=494*
 56: 0x044D [0x45] LOAD_SCHEDULED_TASK: Load scheduler "s105" with entities [LocalPlayer, LocalPlayer], work=[494*, 0*]
 57: 0x045E [0x2B] Naja Salaheem (ID: 16982156/0x0103208C) [14845*]:
    → "\u00072Any minute now\u00073 ain't good enough!\u0007The rrreputation of Salaheem's Sentinels is at stake!\u007F1\u0000\u0007"
 58: 0x0465 [0x23] WAIT_FOR_DIALOG_INTERACTION
 59: 0x0466 [0x53] WAIT_SCHEDULER_TASK: Wait for scheduler "agb0" with entities [Naja Salaheem (ID: 16982156/0x0103208C), Naja Salaheem (ID: 16982156/0x0103208C)]
 60: 0x0473 [0x6E] Abquhbah (ID: 16982157/0x0103208D) uses emote 29*
 61: 0x047A [0x99] Wait for Abquhbah (ID: 16982157/0x0103208D) animation to complete
 62: 0x047F [0x52] END_LOAD_SCHEDULER: End scheduler "s105" with entities [LocalPlayer, LocalPlayer], work=494*
 63: 0x048E [0x45] LOAD_SCHEDULED_TASK: Load scheduler "s106" with entities [LocalPlayer, LocalPlayer], work=[494*, 0*]
 64: 0x049F [0x5B] LOAD_EXT_SCHEDULER: Load scheduler "tlc0" with entities [Naja Salaheem (ID: 16982156/0x0103208C), Naja Salaheem (ID: 16982156/0x0103208C)], work=854*
 65: 0x04AE [0x2B] Abquhbah (ID: 16982157/0x0103208D) [14846*]:
    → "Y-yes, ma'am!\u0007(<Gulp>... P-please don't fire me!)\u007F1\u0000\u0007"
 66: 0x04B5 [0x23] WAIT_FOR_DIALOG_INTERACTION
 67: 0x04B6 [0x52] END_LOAD_SCHEDULER: End scheduler "s106" with entities [LocalPlayer, LocalPlayer], work=494*
 68: 0x04C5 [0x45] LOAD_SCHEDULED_TASK: Load scheduler "s107" with entities [LocalPlayer, LocalPlayer], work=[494*, 0*]
 69: 0x04D6 [0x2B] Naja Salaheem (ID: 16982156/0x0103208C) [14847*]:
    → "In desperrrate times, ya gotta think outside the box.\u0007A bounty of ten Imperial gold pieces on \u0008's hide should do the trrrick, I'd wager...\u007F1\u0000\u0007"
 70: 0x04DD [0x23] WAIT_FOR_DIALOG_INTERACTION
 71: 0x04DE [0x6E] Abquhbah (ID: 16982157/0x0103208D) uses emote 21*
 72: 0x04E5 [0x99] Wait for Abquhbah (ID: 16982157/0x0103208D) animation to complete
 73: 0x04EA [0x52] END_LOAD_SCHEDULER: End scheduler "s107" with entities [LocalPlayer, LocalPlayer], work=494*
 74: 0x04F9 [0x45] LOAD_SCHEDULED_TASK: Load scheduler "s108" with entities [LocalPlayer, LocalPlayer], work=[494*, 0*]
 75: 0x050A [0xBA] SET_ENTITY_POSITION(entity_id=LocalPlayer, pos_x=35.426*, pos_z=-51.387*, pos_y=-6.601*, direction=272.5°*)
 76: 0x0517 [0xBA] SET_ENTITY_POSITION(entity_id=Unnamed NPC (ID: 16982539/0x0103220B), pos_x=35.426*, pos_z=-51.387*, pos_y=-6.601*, direction=272.5°*)
 77: 0x0524 [0x2B] Abquhbah (ID: 16982157/0x0103208D) [14848*]:
    → "But, P-President Naja...!\u0007(She can't be serious...or can she?)\u007F1\u0000\u0007"
 78: 0x052B [0x23] WAIT_FOR_DIALOG_INTERACTION
 79: 0x052C [0x27] REQ_SET(priority=0x10, entity_id=Unnamed NPC (ID: 16982539/0x0103220B), tag_num=0x74)
 80: 0x0533 [0x1C] WAIT(30* ticks)
 81: 0x0536 [0x5C] MUSIC_CONTROL: Set Idle (Day) music to song 178*
 82: 0x053A [0x5C] MUSIC_CONTROL: Set Idle (Night) music to song 178*
 83: 0x053E [0x9A] WAIT_MUSIC_SERVER()
 84: 0x053F [0x52] END_LOAD_SCHEDULER: End scheduler "s108" with entities [LocalPlayer, LocalPlayer], work=494*
 85: 0x054E [0x45] LOAD_SCHEDULED_TASK: Load scheduler "s109" with entities [LocalPlayer, LocalPlayer], work=[494*, 0*]
 86: 0x055F [0x5B] LOAD_EXT_SCHEDULER: Load scheduler "tlc1" with entities [Naja Salaheem (ID: 16982156/0x0103208C), Naja Salaheem (ID: 16982156/0x0103208C)], work=854*
 87: 0x056E [0x1C] WAIT(200* ticks)
 88: 0x0571 [0x4A] Abquhbah (ID: 16982157/0x0103208D) looks at LocalPlayer
 89: 0x057A [0x1C] WAIT(30* ticks)
 90: 0x057D [0x52] END_LOAD_SCHEDULER: End scheduler "s109" with entities [LocalPlayer, LocalPlayer], work=494*
 91: 0x058C [0x45] LOAD_SCHEDULED_TASK: Load scheduler "s110" with entities [LocalPlayer, LocalPlayer], work=[494*, 0*]
 92: 0x059D [0x6F] WAIT_FRAME_DELAY: Yield until WaitTime reaches zero
 93: 0x059E [0x76] CHECK_ENTITY_RENDER_FLAGS: Wait until Abquhbah (ID: 16982157/0x0103208D) Render.Flags0 and Render.Flags3 conditions are met
 94: 0x05A3 [0x2B] Abquhbah (ID: 16982157/0x0103208D) [14849*]:
    → "\u0008! Thank heavens it's you!\u0007(You always have the most remarkable timing!)\u007F1\u0000\u0007"
 95: 0x05AA [0x23] WAIT_FOR_DIALOG_INTERACTION
 96: 0x05AB [0x1C] WAIT(10* ticks)
 97: 0x05AE [0x27] REQ_SET(priority=0x10, entity_id=Unnamed NPC (ID: 16982539/0x0103220B), tag_num=0x09)
 98: 0x05B5 [0x27] REQ_SET(priority=0x10, entity_id=Abquhbah (ID: 16982157/0x0103208D), tag_num=0xC7)
 99: 0x05BC [0x1C] WAIT(100* ticks)
100: 0x05BF [0x5B] LOAD_EXT_SCHEDULER: Load scheduler "agr0" with entities [Naja Salaheem (ID: 16982156/0x0103208C), Naja Salaheem (ID: 16982156/0x0103208C)], work=834*
101: 0x05CE [0x1C] WAIT(20* ticks)
102: 0x05D1 [0x52] END_LOAD_SCHEDULER: End scheduler "s110" with entities [LocalPlayer, LocalPlayer], work=494*
103: 0x05E0 [0x4A] Abquhbah (ID: 16982157/0x0103208D) looks at Naja Salaheem (ID: 16982156/0x0103208C)
104: 0x05E9 [0x45] LOAD_SCHEDULED_TASK: Load scheduler "s112" with entities [LocalPlayer, LocalPlayer], work=[494*, 0*]
105: 0x05FA [0x03] Work_Zone[2] = 60*
106: 0x05FF [0x27] REQ_SET(priority=0x10, entity_id=Unnamed NPC (ID: 16982617/0x01032259), tag_num=0x07)
107: 0x0606 [0x2B] Naja Salaheem (ID: 16982156/0x0103208C) [14850*]:
    → "\u0008! Where in the Empire have you been!?\u0007I don't recall grrrantin' yer slackin' behind any holiday leave!\u007F1\u0000\u0007"
108: 0x060D [0x2A] GET_REQ_LEVEL(level=16, entity_id=Unnamed NPC (ID: 16982617/0x01032259))
109: 0x0613 [0x5B] LOAD_EXT_SCHEDULER: Load scheduler "agb0" with entities [Naja Salaheem (ID: 16982156/0x0103208C), Naja Salaheem (ID: 16982156/0x0103208C)], work=834*
110: 0x0622 [0x1C] WAIT(20* ticks)
111: 0x0625 [0x52] END_LOAD_SCHEDULER: End scheduler "s112" with entities [LocalPlayer, LocalPlayer], work=494*
112: 0x0634 [0x45] LOAD_SCHEDULED_TASK: Load scheduler "s111" with entities [LocalPlayer, LocalPlayer], work=[494*, 0*]
113: 0x0645 [0x03] Work_Zone[2] = 60*
114: 0x064A [0x27] REQ_SET(priority=0x10, entity_id=Unnamed NPC (ID: 16982617/0x01032259), tag_num=0x07)
115: 0x0651 [0x2B] Naja Salaheem (ID: 16982156/0x0103208C) [14851*]:
    → "Why, I've had it up to here with your insubordination!\u0007You insolent, ungrrrateful...\u007F1\u0000\u0007"
116: 0x0658 [0x2A] GET_REQ_LEVEL(level=16, entity_id=Unnamed NPC (ID: 16982617/0x01032259))
117: 0x065E [0x5B] LOAD_EXT_SCHEDULER: Load scheduler "agb0" with entities [Naja Salaheem (ID: 16982156/0x0103208C), Naja Salaheem (ID: 16982156/0x0103208C)], work=834*
118: 0x066D [0x1C] WAIT(20* ticks)
119: 0x0670 [0x52] END_LOAD_SCHEDULER: End scheduler "s111" with entities [LocalPlayer, LocalPlayer], work=494*
120: 0x067F [0x45] LOAD_SCHEDULED_TASK: Load scheduler "s113" with entities [LocalPlayer, LocalPlayer], work=[494*, 0*]
121: 0x0690 [0x03] Work_Zone[2] = 60*
122: 0x0695 [0x27] REQ_SET(priority=0x10, entity_id=Unnamed NPC (ID: 16982617/0x01032259), tag_num=0x07)
123: 0x069C [0x2B] Naja Salaheem (ID: 16982156/0x0103208C) [14852*]:
    → "...bumbling, blundering...\u0000\u0007"
124: 0x06A3 [0x7A] VM_CONTROL: Reset VM for Unnamed NPC (ID: 16982539/0x0103220B)
125: 0x06A9 [0x2A] GET_REQ_LEVEL(level=16, entity_id=Unnamed NPC (ID: 16982617/0x01032259))
126: 0x06AF [0x5B] LOAD_EXT_SCHEDULER: Load scheduler "agb0" with entities [Naja Salaheem (ID: 16982156/0x0103208C), Naja Salaheem (ID: 16982156/0x0103208C)], work=834*
127: 0x06BE [0x1C] WAIT(20* ticks)
128: 0x06C1 [0x52] END_LOAD_SCHEDULER: End scheduler "s113" with entities [LocalPlayer, LocalPlayer], work=494*
129: 0x06D0 [0x45] LOAD_SCHEDULED_TASK: Load scheduler "s114" with entities [LocalPlayer, LocalPlayer], work=[494*, 0*]
130: 0x06E1 [0x03] Work_Zone[2] = 100*
131: 0x06E6 [0x27] REQ_SET(priority=0x10, entity_id=Unnamed NPC (ID: 16982617/0x01032259), tag_num=0x07)
132: 0x06ED [0x2B] Naja Salaheem (ID: 16982156/0x0103208C) [14853*]:
    → "...cross-eyed, pudding-brained, troll-faced lout!\u0000\u0007"
133: 0x06F4 [0xBA] SET_ENTITY_POSITION(entity_id=LocalPlayer, pos_x=25.595*, pos_z=-45.658*, pos_y=-7.804*, direction=181.4°*)
134: 0x0701 [0x2A] GET_REQ_LEVEL(level=16, entity_id=Unnamed NPC (ID: 16982617/0x01032259))
135: 0x0707 [0x29] REQ_SET_WAIT(priority=0x10, entity_id=LocalPlayer, tag_num=0x07)
136: 0x070E [0x45] LOAD_SCHEDULED_TASK: Load scheduler "blof" with entities [LocalPlayer, LocalPlayer], work=[494*, 0*]
137: 0x071F [0x02] IF !(Work_Zone[2] == 1*) GOTO 0x074A
138: 0x0727 [0x52] END_LOAD_SCHEDULER: End scheduler "s114" with entities [LocalPlayer, LocalPlayer], work=494*
139: 0x0736 [0x45] LOAD_SCHEDULED_TASK: Load scheduler "shm1" with entities [LocalPlayer, LocalPlayer], work=[494*, 0*]
140: 0x0747 [0x01] GOTO 0x0877
141: 0x074A [0x02] IF !(Work_Zone[2] == 2*) GOTO 0x0775
142: 0x0752 [0x52] END_LOAD_SCHEDULER: End scheduler "s114" with entities [LocalPlayer, LocalPlayer], work=494*
143: 0x0761 [0x45] LOAD_SCHEDULED_TASK: Load scheduler "shm1" with entities [LocalPlayer, LocalPlayer], work=[494*, 0*]
144: 0x0772 [0x01] GOTO 0x0877
145: 0x0775 [0x02] IF !(Work_Zone[2] == 3*) GOTO 0x07A0
146: 0x077D [0x52] END_LOAD_SCHEDULER: End scheduler "s114" with entities [LocalPlayer, LocalPlayer], work=494*
147: 0x078C [0x45] LOAD_SCHEDULED_TASK: Load scheduler "sem1" with entities [LocalPlayer, LocalPlayer], work=[494*, 0*]
148: 0x079D [0x01] GOTO 0x0877
149: 0x07A0 [0x02] IF !(Work_Zone[2] == 4*) GOTO 0x07CB
150: 0x07A8 [0x52] END_LOAD_SCHEDULER: End scheduler "s114" with entities [LocalPlayer, LocalPlayer], work=494*
151: 0x07B7 [0x45] LOAD_SCHEDULED_TASK: Load scheduler "sem1" with entities [LocalPlayer, LocalPlayer], work=[494*, 0*]
152: 0x07C8 [0x01] GOTO 0x0877
153: 0x07CB [0x02] IF !(Work_Zone[2] == 5*) GOTO 0x07F6
154: 0x07D3 [0x52] END_LOAD_SCHEDULER: End scheduler "s114" with entities [LocalPlayer, LocalPlayer], work=494*
155: 0x07E2 [0x45] LOAD_SCHEDULED_TASK: Load scheduler "str1" with entities [LocalPlayer, LocalPlayer], work=[494*, 0*]
156: 0x07F3 [0x01] GOTO 0x0877
157: 0x07F6 [0x02] IF !(Work_Zone[2] == 6*) GOTO 0x0821
158: 0x07FE [0x52] END_LOAD_SCHEDULER: End scheduler "s114" with entities [LocalPlayer, LocalPlayer], work=494*
159: 0x080D [0x45] LOAD_SCHEDULED_TASK: Load scheduler "str1" with entities [LocalPlayer, LocalPlayer], work=[494*, 0*]
160: 0x081E [0x01] GOTO 0x0877
161: 0x0821 [0x02] IF !(Work_Zone[2] == 7*) GOTO 0x084C
162: 0x0829 [0x52] END_LOAD_SCHEDULER: End scheduler "s114" with entities [LocalPlayer, LocalPlayer], work=494*
163: 0x0838 [0x45] LOAD_SCHEDULED_TASK: Load scheduler "smt1" with entities [LocalPlayer, LocalPlayer], work=[494*, 0*]
164: 0x0849 [0x01] GOTO 0x0877
165: 0x084C [0x02] IF !(Work_Zone[2] == 8*) GOTO 0x0877
166: 0x0854 [0x52] END_LOAD_SCHEDULER: End scheduler "s114" with entities [LocalPlayer, LocalPlayer], work=494*
167: 0x0863 [0x45] LOAD_SCHEDULED_TASK: Load scheduler "sgl1" with entities [LocalPlayer, LocalPlayer], work=[494*, 0*]
168: 0x0874 [0x01] GOTO 0x0877

SUBROUTINE_0877:
169: 0x0877 [0x6E] LocalPlayer uses emote 5*
170: 0x087E [0x99] Wait for LocalPlayer animation to complete
171: 0x0883 [0x1C] WAIT(120* ticks)
172: 0x0886 [0x52] END_LOAD_SCHEDULER: End scheduler "shm1" with entities [LocalPlayer, LocalPlayer], work=494*
173: 0x0895 [0x52] END_LOAD_SCHEDULER: End scheduler "sem1" with entities [LocalPlayer, LocalPlayer], work=494*
174: 0x08A4 [0x52] END_LOAD_SCHEDULER: End scheduler "str1" with entities [LocalPlayer, LocalPlayer], work=494*
175: 0x08B3 [0x52] END_LOAD_SCHEDULER: End scheduler "smt1" with entities [LocalPlayer, LocalPlayer], work=494*
176: 0x08C2 [0x52] END_LOAD_SCHEDULER: End scheduler "sgl1" with entities [LocalPlayer, LocalPlayer], work=494*
177: 0x08D1 [0x45] LOAD_SCHEDULED_TASK: Load scheduler "s116" with entities [LocalPlayer, LocalPlayer], work=[494*, 0*]
178: 0x08E2 [0x2B] Abquhbah (ID: 16982157/0x0103208D) [14854*]:
    → "(Ouch. Why does she always have to make it personal?)\u007F1\u0000\u0007"
179: 0x08E9 [0x23] WAIT_FOR_DIALOG_INTERACTION
180: 0x08EA [0x5B] LOAD_EXT_SCHEDULER: Load scheduler "agr1" with entities [Naja Salaheem (ID: 16982156/0x0103208C), Naja Salaheem (ID: 16982156/0x0103208C)], work=834*
181: 0x08F9 [0x1C] WAIT(40* ticks)
182: 0x08FC [0x52] END_LOAD_SCHEDULER: End scheduler "s116" with entities [LocalPlayer, LocalPlayer], work=494*
183: 0x090B [0x45] LOAD_SCHEDULED_TASK: Load scheduler "s117" with entities [LocalPlayer, LocalPlayer], work=[494*, 0*]
184: 0x091C [0x1C] WAIT(60* ticks)
185: 0x091F [0x2B] Naja Salaheem (ID: 16982156/0x0103208C) [14855*]:
    → "What I'm sayin' is, ya've been summoned to the Imperrrial Palace!\u0007The Empress only knows what they want with yer sorry self, but an order's an order.\u007F1\u0000\u0007"
186: 0x0926 [0x23] WAIT_FOR_DIALOG_INTERACTION
187: 0x0927 [0x2B] Naja Salaheem (ID: 16982156/0x0103208C) [14856*]:
    → "Now are ya just gonna stand around with that dopey exprrression on your face?\u007F1\u0000\u0007"
188: 0x092E [0x23] WAIT_FOR_DIALOG_INTERACTION
189: 0x092F [0x5B] LOAD_EXT_SCHEDULER: Load scheduler "pnb0" with entities [Naja Salaheem (ID: 16982156/0x0103208C), Naja Salaheem (ID: 16982156/0x0103208C)], work=836*
190: 0x093E [0x7B] LocalPlayer stops talking
191: 0x0943 [0x1C] WAIT(20* ticks)
192: 0x0946 [0x52] END_LOAD_SCHEDULER: End scheduler "s117" with entities [LocalPlayer, LocalPlayer], work=494*
193: 0x0955 [0x45] LOAD_SCHEDULED_TASK: Load scheduler "s118" with entities [LocalPlayer, LocalPlayer], work=[494*, 0*]
194: 0x0966 [0x2B] Naja Salaheem (ID: 16982156/0x0103208C) [14857*]:
    → "'Cause my little friend here'd be happy to give ya some extrrra encouragement.\u0007Ya catchin' my drift, \u0008?\u007F1\u0000\u0007"
195: 0x096D [0x23] WAIT_FOR_DIALOG_INTERACTION
196: 0x096E [0x52] END_LOAD_SCHEDULER: End scheduler "s118" with entities [LocalPlayer, LocalPlayer], work=494*
197: 0x097D [0x45] LOAD_SCHEDULED_TASK: Load scheduler "s119" with entities [LocalPlayer, LocalPlayer], work=[494*, 0*]
198: 0x098E [0x27] REQ_SET(priority=0x10, entity_id=Unnamed NPC (ID: 16982539/0x0103220B), tag_num=0x0B)
199: 0x0995 [0x1C] WAIT(60* ticks)
200: 0x0998 [0x1A] CALL_SUBROUTINE(address=0x0064)
201: 0x099B [0x1C] WAIT(30* ticks)
202: 0x099E [0x59] UPDATE_ENTITY_DATA: LocalPlayer->Render.Flags0 &= ~0x200000
203: 0x09A5 [0x52] END_LOAD_SCHEDULER: End scheduler "s119" with entities [LocalPlayer, LocalPlayer], work=494*
204: 0x09B4 [0x78] ENABLE_GAME_TIMER_RESET_WEATHER()
205: 0x09B5 [0x1C] WAIT(15* ticks)
206: 0x09B8 [0xAB] EventEntity->UnknownFlag = 1 // Enable unknown flag
207: 0x09BA [0x1C] WAIT(15* ticks)
208: 0x09BD [0xAB] EventEntity->DespawnValue = 0* // Set despawn value
209: 0x09C1 [0x1C] WAIT(1* ticks)
210: 0x09C4 [0x45] LOAD_SCHEDULED_TASK: Load scheduler "0blf" with entities [LocalPlayer, LocalPlayer], work=[321*, 0*]
211: 0x09D5 [0x29] REQ_SET_WAIT(priority=0x10, entity_id=Unnamed NPC (ID: 16982539/0x0103220B), tag_num=0x1D)
212: 0x09DC [0x46] CAMERA_CONTROL: Restore default settings
213: 0x09DE [0x45] LOAD_SCHEDULED_TASK: Load scheduler "fdi2" with entities [LocalPlayer, LocalPlayer], work=[200*, 0*]
214: 0x09EF [0x21] END_EVENT
215: 0x09F0 [0x00] END_REQSTACK()
```

### Event 926

#### Metadata

| Field        | Value      |
|--------------|------------|
| Entrypoint   | 0x09F1     |
| Data Size    | 4209 bytes |
| Instructions | 492        |

```
      00 01 02 03 04 05 06 07  08 09 0A 0B 0C 0D 0E 0F
      -- -- -- -- -- -- -- --  -- -- -- -- -- -- -- --
09F0:    42 45 00 80 F8 FF FF  7F F8 FF FF 7F 66 64 6F   BE..........fdo
0A00: 31 01 80 55 00 80 F8 FF  FF 7F F8 FF FF 7F 66 64  1..U..........fd
0A10: 6F 31 46 01 38 08 80 34  41 80 77 01 80 03 80 4E  o1F.8..4A.w....N
0A20: 01 1E 20 03 01 AB 09 27  10 C4 20 03 01 04 27 10  .. ....'.. ...'.
0A30: C7 20 03 01 04 2F 00 CC  20 03 01 2F 00 95 20 03  . .../.. ../.. .
0A40: 01 2F 00 E6 20 03 01 2F  00 1A 21 03 01 4E 00 CC  ./.. ../..!..N..
0A50: 20 03 01 4E 00 95 20 03  01 4E 00 0B 22 03 01 4E   ..N.. ..N.."..N
0A60: 00 E6 20 03 01 4E 00 1A  21 03 01 92 01 CC 20 03  .. ..N..!..... .
0A70: 01 92 01 95 20 03 01 92  01 C4 20 03 01 92 01 C7  .... ..... .....
0A80: 20 03 01 92 01 E6 20 03  01 92 01 1A 21 03 01 92   ..... .....!...
0A90: 01 C4 20 03 01 92 01 C7  20 03 01 29 10 0B 22 03  .. ..... ..)..".
0AA0: 01 1C 94 01 F0 FF FF 7F  94 01 0B 22 03 01 94 01  ..........."....
0AB0: CC 20 03 01 94 01 95 20  03 01 94 01 E6 20 03 01  . ..... ..... ..
0AC0: 94 01 1A 21 03 01 BA F0  FF FF 7F 42 80 43 80 01  ...!.......B.C..
0AD0: 80 44 80 BA 0B 22 03 01  42 80 43 80 01 80 44 80  .D..."..B.C...D.
0AE0: BA CC 20 03 01 45 80 46  80 01 80 47 80 BA C4 20  .. ..E.F...G... 
0AF0: 03 01 48 80 49 80 01 80  4A 80 BA C7 20 03 01 4B  ..H.I...J... ..K
0B00: 80 4C 80 01 80 4A 80 BA  95 20 03 01 4D 80 4E 80  .L...J... ..M.N.
0B10: 01 80 4F 80 BA E6 20 03  01 50 80 51 80 01 80 52  ..O... ..P.Q...R
0B20: 80 BA 1A 21 03 01 53 80  54 80 01 80 52 80 7B F0  ...!..S.T...R.{.
0B30: FF FF 7F 7B 0B 22 03 01  7B CC 20 03 01 7B 95 20  ...{."..{. ..{. 
0B40: 03 01 7B C4 20 03 01 7B  C7 20 03 01 7B E6 20 03  ..{. ..{. ..{. .
0B50: 01 7B 1A 21 03 01 80 F0  FF FF 7F 80 0B 22 03 01  .{.!........."..
0B60: 80 CC 20 03 01 80 95 20  03 01 80 C4 20 03 01 80  .. .... .... ...
0B70: C7 20 03 01 80 E6 20 03  01 80 1A 21 03 01 4A CC  . .... ....!..J.
0B80: 20 03 01 F0 FF FF 7F 4A  95 20 03 01 F0 FF FF 7F   ......J. ......
0B90: 4A C4 20 03 01 F0 FF FF  7F 4A C7 20 03 01 F0 FF  J. ......J. ....
0BA0: FF 7F 4A E6 20 03 01 F0  FF FF 7F 4A 1A 21 03 01  ..J. ......J.!..
0BB0: F0 FF FF 7F 29 05 0B 22  03 01 3A 29 10 F0 FF FF  ....).."..:)....
0BC0: 7F 03 5D 01 80 39 80 1C  06 80 5B 12 80 1A 21 03  ..]..9....[...!.
0BD0: 01 1A 21 03 01 61 73 74  6C 5B 55 80 C4 20 03 01  ..!..astl[U.. ..
0BE0: C4 20 03 01 75 73 69 30  1C 2B 80 45 15 80 F0 FF  . ..usi0.+.E....
0BF0: FF 7F F0 FF FF 7F 72 31  30 31 01 80 1A 43 00 1C  ......r101...C..
0C00: 00 80 5C 00 01 80 5C 01  01 80 9A 2A 05 0B 22 03  ..\...\....*..".
0C10: 01 52 15 80 F0 FF FF 7F  F0 FF FF 7F 72 31 30 31  .R..........r101
0C20: 45 15 80 F0 FF FF 7F F0  FF FF 7F 72 31 30 32 01  E..........r102.
0C30: 80 5B 56 80 CC 20 03 01  CC 20 03 01 74 6C 6B 30  .[V.. ... ..tlk0
0C40: 2B CC 20 03 01 57 80 23  2B CC 20 03 01 58 80 23  +. ..W.#+. ..X.#
0C50: 5B 56 80 CC 20 03 01 CC  20 03 01 74 6C 6B 31 79  [V.. ... ..tlk1y
0C60: 00 CC 20 03 01 95 20 03  01 1C 06 80 4A 95 20 03  .. ... .....J. .
0C70: 01 CC 20 03 01 52 15 80  F0 FF FF 7F F0 FF FF 7F  .. ..R..........
0C80: 72 31 30 32 45 15 80 F0  FF FF 7F F0 FF FF 7F 72  r102E..........r
0C90: 31 30 33 01 80 2B CC 20  03 01 59 80 23 6F 76 95  103..+. ..Y.#ov.
0CA0: 20 03 01 5B 5A 80 95 20  03 01 95 20 03 01 61 6B   ..[Z.. ... ..ak
0CB0: 61 30 1C 06 80 52 15 80  F0 FF FF 7F F0 FF FF 7F  a0...R..........
0CC0: 72 31 30 33 45 15 80 F0  FF FF 7F F0 FF FF 7F 72  r103E..........r
0CD0: 31 30 39 01 80 1C 29 80  5B 5A 80 95 20 03 01 95  109...).[Z.. ...
0CE0: 20 03 01 61 6B 61 31 1C  5B 80 4A 95 20 03 01 F0   ..aka1.[.J. ...
0CF0: FF FF 7F 52 15 80 F0 FF  FF 7F F0 FF FF 7F 72 31  ...R..........r1
0D00: 30 39 45 15 80 F0 FF FF  7F F0 FF FF 7F 72 31 30  09E..........r10
0D10: 38 01 80 1C 2A 80 6F 76  95 20 03 01 2B 95 20 03  8...*.ov. ..+. .
0D20: 01 5C 80 23 24 5D 80 01  80 01 80 25 02 00 10 01  .\.#$].....%....
0D30: 80 00 5F 0D 7B CC 20 03  01 6E 95 20 03 01 37 80  .._.{. ..n. ..7.
0D40: 99 95 20 03 01 2B 95 20  03 01 5E 80 23 52 15 80  .. ..+. ..^.#R..
0D50: F0 FF FF 7F F0 FF FF 7F  72 31 30 38 01 F1 0D 02  ........r108....
0D60: 00 10 03 80 00 F1 0D 2B  95 20 03 01 5F 80 23 52  .......+. .._.#R
0D70: 15 80 F0 FF FF 7F F0 FF  FF 7F 72 31 30 38 45 15  ..........r108E.
0D80: 80 F0 FF FF 7F F0 FF FF  7F 72 31 30 37 01 80 5B  .........r107..[
0D90: 60 80 CC 20 03 01 CC 20  03 01 6B 6F 75 30 2B CC  `.. ... ..kou0+.
0DA0: 20 03 01 61 80 23 52 15  80 F0 FF FF 7F F0 FF FF   ..a.#R.........
0DB0: 7F 72 31 30 37 45 15 80  F0 FF FF 7F F0 FF FF 7F  .r107E..........
0DC0: 72 31 30 35 01 80 7B CC  20 03 01 6E 95 20 03 01  r105..{. ..n. ..
0DD0: 37 80 99 95 20 03 01 2B  95 20 03 01 62 80 23 52  7... ..+. ..b.#R
0DE0: 15 80 F0 FF FF 7F F0 FF  FF 7F 72 31 30 35 01 F1  ..........r105..
0DF0: 0D 5D 01 80 39 80 45 00  80 F0 FF FF 7F F0 FF FF  .]..9.E.........
0E00: 7F 66 64 6F 32 01 80 55  00 80 F0 FF FF 7F F0 FF  .fdo2..U........
0E10: FF 7F 66 64 6F 32 34 63  80 77 64 80 03 80 1C 06  ..fdo24c.wd.....
0E20: 80 AB 09 29 10 EA 20 03  01 02 4E 01 1E 20 03 01  ...).. ...N.. ..
0E30: 27 10 E8 20 03 01 04 27  10 E9 20 03 01 04 92 01  '.. ...'.. .....
0E40: F0 FF FF 7F 92 01 95 20  03 01 92 01 E8 20 03 01  ....... ..... ..
0E50: 92 01 E9 20 03 01 94 01  95 20 03 01 94 01 E8 20  ... ..... ..... 
0E60: 03 01 94 01 E9 20 03 01  BA 95 20 03 01 65 80 66  ..... .... ..e.f
0E70: 80 67 80 68 80 BA E9 20  03 01 65 80 66 80 67 80  .g.h... ..e.f.g.
0E80: 68 80 BA E8 20 03 01 69  80 6A 80 6B 80 01 80 80  h... ..i.j.k....
0E90: 95 20 03 01 80 E8 20 03  01 80 E9 20 03 01 5B 6C  . .... .... ..[l
0EA0: 80 95 20 03 01 95 20 03  01 70 61 6E 33 5B 6D 80  .. ... ..pan3[m.
0EB0: E9 20 03 01 E9 20 03 01  61 6C 78 30 5B 6E 80 E8  . ... ..alx0[n..
0EC0: 20 03 01 E8 20 03 01 62  32 6C 35 5C 00 6F 80 5C   ... ..b2l5\.o.\
0ED0: 01 6F 80 9A 48 70 80 23  1C 14 80 45 71 80 F0 FF  .o..Hp.#...Eq...
0EE0: FF 7F F0 FF FF 7F 70 61  30 30 01 80 45 07 80 F0  ......pa00..E...
0EF0: FF FF 7F F0 FF FF 7F 65  66 6F 6E 01 80 55 07 80  .......efon..U..
0F00: F0 FF FF 7F F0 FF FF 7F  65 66 6F 6E 1C 39 80 7C  ........efon.9.|
0F10: 00 95 20 03 01 2B 95 20  03 01 72 80 23 2B 95 20  .. ..+. ..r.#+. 
0F20: 03 01 73 80 23 52 71 80  F0 FF FF 7F F0 FF FF 7F  ..s.#Rq.........
0F30: 70 61 30 30 45 71 80 F0  FF FF 7F F0 FF FF 7F 70  pa00Eq.........p
0F40: 61 30 31 01 80 5B 6C 80  95 20 03 01 95 20 03 01  a01..[l.. ... ..
0F50: 70 61 6E 30 2B 95 20 03  01 74 80 23 2B 95 20 03  pan0+. ..t.#+. .
0F60: 01 75 80 23 52 71 80 F0  FF FF 7F F0 FF FF 7F 70  .u.#Rq.........p
0F70: 61 30 31 45 71 80 F0 FF  FF 7F F0 FF FF 7F 70 61  a01Eq.........pa
0F80: 30 32 01 80 5B 6C 80 95  20 03 01 95 20 03 01 70  02..[l.. ... ..p
0F90: 61 6E 31 2B 95 20 03 01  76 80 23 52 71 80 F0 FF  an1+. ..v.#Rq...
0FA0: FF 7F F0 FF FF 7F 70 61  30 32 45 15 80 F0 FF FF  ......pa02E.....
0FB0: 7F F0 FF FF 7F 72 31 31  32 01 80 2B 95 20 03 01  .....r112..+. ..
0FC0: 77 80 23 45 00 80 F0 FF  FF 7F F0 FF FF 7F 66 64  w.#E..........fd
0FD0: 6F 32 01 80 55 00 80 F0  FF FF 7F F0 FF FF 7F 66  o2..U..........f
0FE0: 64 6F 32 52 15 80 F0 FF  FF 7F F0 FF FF 7F 72 31  do2R..........r1
0FF0: 31 32 34 41 80 77 01 80  03 80 1C 06 80 92 00 F0  124A.w..........
1000: FF FF 7F 4E 01 1E 20 03  01 4E 01 E8 20 03 01 4E  ...N.. ..N.. ..N
1010: 01 E9 20 03 01 4E 00 F0  FF FF 7F 4E 00 0B 22 03  .. ..N.....N..".
1020: 01 4E 00 CC 20 03 01 4E  00 95 20 03 01 80 F0 FF  .N.. ..N.. .....
1030: FF 7F 80 0B 22 03 01 80  CC 20 03 01 80 95 20 03  ....".... .... .
1040: 01 BA 95 20 03 01 4D 80  4E 80 01 80 4F 80 4A 95  ... ..M.N...O.J.
1050: 20 03 01 F0 FF FF 7F 27  10 F0 FF FF 7F 03 7C 01   ......'......|.
1060: 95 20 03 01 1C 29 80 45  15 80 F0 FF FF 7F F0 FF  . ...).E........
1070: FF 7F 72 31 31 33 01 80  45 00 80 F0 FF FF 7F F0  ..r113..E.......
1080: FF FF 7F 66 64 69 32 01  80 55 00 80 F0 FF FF 7F  ...fdi2..U......
1090: F0 FF FF 7F 66 64 69 32  1C 39 80 52 15 80 F0 FF  ....fdi2.9.R....
10A0: FF 7F F0 FF FF 7F 72 31  31 33 45 15 80 F0 FF FF  ......r113E.....
10B0: 7F F0 FF FF 7F 72 31 31  34 01 80 66 78 80 95 20  .....r114..fx.. 
10C0: 03 01 95 20 03 01 74 6C  6B 30 2B 95 20 03 01 79  ... ..tlk0+. ..y
10D0: 80 23 2B 95 20 03 01 7A  80 23 52 15 80 F0 FF FF  .#+. ..z.#R.....
10E0: 7F F0 FF FF 7F 72 31 31  34 45 15 80 F0 FF FF 7F  .....r114E......
10F0: F0 FF FF 7F 72 31 31 35  01 80 2B 95 20 03 01 7B  ....r115..+. ..{
1100: 80 23 2B 95 20 03 01 7C  80 23 66 78 80 95 20 03  .#+. ..|.#fx.. .
1110: 01 95 20 03 01 74 6C 6B  31 52 15 80 F0 FF FF 7F  .. ..tlk1R......
1120: F0 FF FF 7F 72 31 31 35  45 15 80 F0 FF FF 7F F0  ....r115E.......
1130: FF FF 7F 72 31 31 36 01  80 5B 56 80 CC 20 03 01  ...r116..[V.. ..
1140: CC 20 03 01 74 6C 6B 30  2B CC 20 03 01 7D 80 23  . ..tlk0+. ..}.#
1150: 2B CC 20 03 01 7E 80 23  5B 56 80 CC 20 03 01 CC  +. ..~.#[V.. ...
1160: 20 03 01 74 6C 6B 31 52  15 80 F0 FF FF 7F F0 FF   ..tlk1R........
1170: FF 7F 72 31 31 36 45 15  80 F0 FF FF 7F F0 FF FF  ..r116E.........
1180: 7F 72 31 31 37 01 80 66  78 80 95 20 03 01 95 20  .r117..fx.. ... 
1190: 03 01 74 6C 6B 30 2B 95  20 03 01 7F 80 23 2B 95  ..tlk0+. ....#+.
11A0: 20 03 01 80 80 23 66 78  80 95 20 03 01 95 20 03   ....#fx.. ... .
11B0: 01 74 6C 6B 31 52 15 80  F0 FF FF 7F F0 FF FF 7F  .tlk1R..........
11C0: 72 31 31 37 45 15 80 F0  FF FF 7F F0 FF FF 7F 72  r117E..........r
11D0: 31 31 38 01 80 2B 95 20  03 01 81 80 23 45 00 80  118..+. ....#E..
11E0: F0 FF FF 7F F0 FF FF 7F  66 64 6F 32 01 80 55 00  ........fdo2..U.
11F0: 80 F0 FF FF 7F F0 FF FF  7F 66 64 6F 32 52 15 80  .........fdo2R..
1200: F0 FF FF 7F F0 FF FF 7F  72 31 31 38 34 63 80 77  ........r1184c.w
1210: 64 80 03 80 1C 06 80 AB  09 29 10 EA 20 03 01 02  d........).. ...
1220: 4E 01 1E 20 03 01 27 10  C8 20 03 01 04 27 10 E8  N.. ..'.. ...'..
1230: 20 03 01 04 27 10 E9 20  03 01 04 92 01 F0 FF FF   ...'.. ........
1240: 7F 92 01 C8 20 03 01 92  01 CC 20 03 01 92 01 E8  .... ..... .....
1250: 20 03 01 92 01 E9 20 03  01 94 01 C8 20 03 01 94   ..... ..... ...
1260: 01 CC 20 03 01 94 01 E8  20 03 01 94 01 E9 20 03  .. ..... ..... .
1270: 01 BA F0 FF FF 7F 82 80  83 80 67 80 84 80 BA C8  ..........g.....
1280: 20 03 01 85 80 86 80 67  80 87 80 BA CC 20 03 01   ......g..... ..
1290: 88 80 89 80 8A 80 01 80  BA 95 20 03 01 88 80 89  .......... .....
12A0: 80 8A 80 01 80 BA E9 20  03 01 88 80 89 80 8A 80  ....... ........
12B0: 01 80 BA E8 20 03 01 8B  80 6A 80 6B 80 01 80 6C  .... ....j.k...l
12C0: CC 20 03 01 01 80 03 80  80 91 20 03 01 80 C8 20  . ........ .... 
12D0: 03 01 80 CC 20 03 01 80  E8 20 03 01 80 E9 20 03  .... .... .... .
12E0: 01 5B 8C 80 CC 20 03 01  CC 20 03 01 00 FE FE FE  .[... ... ......
12F0: 5B 8D 80 95 20 03 01 95  20 03 01 00 FE FE FE 5B  [... ... ......[
1300: 6D 80 E9 20 03 01 E9 20  03 01 61 6C 78 30 5B 6C  m.. ... ..alx0[l
1310: 80 95 20 03 01 95 20 03  01 70 61 6E 30 5B 8E 80  .. ... ..pan0[..
1320: E8 20 03 01 E8 20 03 01  62 31 30 30 5B 8F 80 C8  . ... ..b100[...
1330: 20 03 01 C8 20 03 01 62  32 30 30 BB 17 80 E8 20   ... ..b200.... 
1340: 03 01 E8 20 03 01 73 30  30 30 01 80 1C 14 80 45  ... ..s000.....E
1350: 90 80 F0 FF FF 7F F0 FF  FF 7F 30 64 61 33 01 80  ..........0da3..
1360: 45 07 80 F0 FF FF 7F F0  FF FF 7F 65 66 6F 6E 01  E..........efon.
1370: 80 55 07 80 F0 FF FF 7F  F0 FF FF 7F 65 66 6F 6E  .U..........efon
1380: BB 17 80 E8 20 03 01 E8  20 03 01 73 30 30 31 01  .... ... ..s001.
1390: 80 5B 8E 80 E8 20 03 01  E8 20 03 01 62 31 30 31  .[... ... ..b101
13A0: 27 10 59 22 03 01 04 2B  95 20 03 01 91 80 1C 92  '.Y"...+. ......
13B0: 80 1C 93 80 52 90 80 F0  FF FF 7F F0 FF FF 7F 62  ....R..........b
13C0: 32 30 30 45 90 80 F0 FF  FF 7F F0 FF FF 7F 30 64  200E..........0d
13D0: 61 34 01 80 2B 95 20 03  01 94 80 1C 92 80 52 90  a4..+. .......R.
13E0: 80 F0 FF FF 7F F0 FF FF  7F 30 64 61 34 45 90 80  .........0da4E..
13F0: F0 FF FF 7F F0 FF FF 7F  62 32 30 32 01 80 1C 95  ........b202....
1400: 80 1C 96 80 52 90 80 F0  FF FF 7F F0 FF FF 7F 62  ....R..........b
1410: 32 30 32 45 90 80 F0 FF  FF 7F F0 FF FF 7F 30 64  202E..........0d
1420: 61 35 01 80 1C 2B 80 2B  95 20 03 01 97 80 5B 8F  a5...+.+. ....[.
1430: 80 C8 20 03 01 C8 20 03  01 62 32 30 31 1C 06 80  .. ... ..b201...
1440: 52 90 80 F0 FF FF 7F F0  FF FF 7F 30 64 61 35 45  R..........0da5E
1450: 90 80 F0 FF FF 7F F0 FF  FF 7F 30 64 61 36 01 80  ..........0da6..
1460: 1C 39 80 5B 8C 80 CC 20  03 01 CC 20 03 01 62 32  .9.[... ... ..b2
1470: 30 32 5B 8D 80 95 20 03  01 95 20 03 01 70 61 6E  02[... ... ..pan
1480: 35 52 90 80 F0 FF FF 7F  F0 FF FF 7F 30 64 61 36  5R..........0da6
1490: 45 90 80 F0 FF FF 7F F0  FF FF 7F 30 64 61 37 01  E..........0da7.
14A0: 80 27 10 59 22 03 01 03  27 10 5A 22 03 01 02 1C  .'.Y"...'.Z"....
14B0: 2B 80 1C 92 80 52 90 80  F0 FF FF 7F F0 FF FF 7F  +....R..........
14C0: 30 64 61 37 45 90 80 F0  FF FF 7F F0 FF FF 7F 62  0da7E..........b
14D0: 32 30 36 01 80 1C 98 80  52 90 80 F0 FF FF 7F F0  206.....R.......
14E0: FF FF 7F 62 32 30 36 45  90 80 F0 FF FF 7F F0 FF  ...b206E........
14F0: FF 7F 62 32 30 35 01 80  1C 39 80 52 90 80 F0 FF  ..b205...9.R....
1500: FF 7F F0 FF FF 7F 30 64  61 37 45 90 80 F0 FF FF  ......0da7E.....
1510: 7F F0 FF FF 7F 30 64 61  39 01 80 1C 99 80 45 00  .....0da9.....E.
1520: 80 F0 FF FF 7F F0 FF FF  7F 66 64 6F 32 01 80 55  .........fdo2..U
1530: 00 80 F0 FF FF 7F F0 FF  FF 7F 66 64 6F 32 52 90  ..........fdo2R.
1540: 80 F0 FF FF 7F F0 FF FF  7F 30 64 61 39 34 41 80  .........0da94A.
1550: 77 01 80 03 80 1C 06 80  92 00 F0 FF FF 7F 4E 01  w.............N.
1560: C8 20 03 01 4E 01 91 20  03 01 4E 01 E8 20 03 01  . ..N.. ..N.. ..
1570: 4E 01 1E 20 03 01 4E 01  E9 20 03 01 4E 00 F0 FF  N.. ..N.. ..N...
1580: FF 7F 4E 00 0B 22 03 01  4E 00 CC 20 03 01 4E 00  ..N.."..N.. ..N.
1590: 95 20 03 01 80 F0 FF FF  7F 80 0B 22 03 01 80 CC  . ........."....
15A0: 20 03 01 80 95 20 03 01  BA F0 FF FF 7F 42 80 43   .... .......B.C
15B0: 80 01 80 44 80 BA 0B 22  03 01 42 80 43 80 01 80  ...D..."..B.C...
15C0: 44 80 BA CC 20 03 01 45  80 46 80 01 80 47 80 BA  D... ..E.F...G..
15D0: 95 20 03 01 4D 80 4E 80  01 80 4F 80 4A CC 20 03  . ..M.N...O.J. .
15E0: 01 F0 FF FF 7F 4A 95 20  03 01 F0 FF FF 7F 5B 55  .....J. ......[U
15F0: 80 C4 20 03 01 C4 20 03  01 75 73 69 30 27 10 F0  .. ... ..usi0'..
1600: FF FF 7F 03 1C 29 80 45  15 80 F0 FF FF 7F F0 FF  .....).E........
1610: FF 7F 72 31 32 31 01 80  45 00 80 F0 FF FF 7F F0  ..r121..E.......
1620: FF FF 7F 66 64 69 32 01  80 55 00 80 F0 FF FF 7F  ...fdi2..U......
1630: F0 FF FF 7F 66 64 69 32  5B 60 80 CC 20 03 01 CC  ....fdi2[`.. ...
1640: 20 03 01 6B 6F 75 30 2B  CC 20 03 01 9A 80 23 24   ..kou0+. ....#$
1650: 9B 80 01 80 01 80 25 02  00 10 01 80 00 62 18 29  ......%......b.)
1660: 10 F0 FF FF 7F 07 02 02  10 03 80 80 91 16 52 15  ..............R.
1670: 80 F0 FF FF 7F F0 FF FF  7F 72 31 32 31 45 15 80  .........r121E..
1680: F0 FF FF 7F F0 FF FF 7F  72 68 6D 31 01 80 01 BE  ........rhm1....
1690: 17 02 02 10 05 80 80 BC  16 52 15 80 F0 FF FF 7F  .........R......
16A0: F0 FF FF 7F 72 31 32 31  45 15 80 F0 FF FF 7F F0  ....r121E.......
16B0: FF FF 7F 72 68 6D 31 01  80 01 BE 17 02 02 10 33  ...rhm1........3
16C0: 80 80 E7 16 52 15 80 F0  FF FF 7F F0 FF FF 7F 72  ....R..........r
16D0: 31 32 31 45 15 80 F0 FF  FF 7F F0 FF FF 7F 72 65  121E..........re
16E0: 6D 31 01 80 01 BE 17 02  02 10 34 80 80 12 17 52  m1........4....R
16F0: 15 80 F0 FF FF 7F F0 FF  FF 7F 72 31 32 31 45 15  ..........r121E.
1700: 80 F0 FF FF 7F F0 FF FF  7F 72 65 6D 31 01 80 01  .........rem1...
1710: BE 17 02 02 10 35 80 80  3D 17 52 15 80 F0 FF FF  .....5..=.R.....
1720: 7F F0 FF FF 7F 72 31 32  31 45 15 80 F0 FF FF 7F  .....r121E......
1730: F0 FF FF 7F 72 74 72 31  01 80 01 BE 17 02 02 10  ....rtr1........
1740: 36 80 80 68 17 52 15 80  F0 FF FF 7F F0 FF FF 7F  6..h.R..........
1750: 72 31 32 31 45 15 80 F0  FF FF 7F F0 FF FF 7F 72  r121E..........r
1760: 74 72 31 01 80 01 BE 17  02 02 10 37 80 80 93 17  tr1........7....
1770: 52 15 80 F0 FF FF 7F F0  FF FF 7F 72 31 32 31 45  R..........r121E
1780: 15 80 F0 FF FF 7F F0 FF  FF 7F 72 6D 74 31 01 80  ..........rmt1..
1790: 01 BE 17 02 02 10 38 80  80 BE 17 52 15 80 F0 FF  ......8....R....
17A0: FF 7F F0 FF FF 7F 72 31  32 31 45 15 80 F0 FF FF  ......r121E.....
17B0: 7F F0 FF FF 7F 72 67 6C  31 01 80 01 BE 17 27 10  .....rgl1.....'.
17C0: F0 FF FF 7F 04 1C 06 80  2A 10 F0 FF FF 7F 6E F0  ........*.....n.
17D0: FF FF 7F 9C 80 99 F0 FF  FF 7F 1C 39 80 52 15 80  ...........9.R..
17E0: F0 FF FF 7F F0 FF FF 7F  72 68 6D 31 52 15 80 F0  ........rhm1R...
17F0: FF FF 7F F0 FF FF 7F 72  65 6D 31 52 15 80 F0 FF  .......rem1R....
1800: FF 7F F0 FF FF 7F 72 74  72 31 52 15 80 F0 FF FF  ......rtr1R.....
1810: 7F F0 FF FF 7F 72 6D 74  31 52 15 80 F0 FF FF 7F  .....rmt1R......
1820: F0 FF FF 7F 72 67 6C 31  45 15 80 F0 FF FF 7F F0  ....rgl1E.......
1830: FF FF 7F 72 31 32 32 01  80 5B 60 80 CC 20 03 01  ...r122..[`.. ..
1840: CC 20 03 01 6B 6F 75 31  2B CC 20 03 01 9D 80 23  . ..kou1+. ....#
1850: 52 15 80 F0 FF FF 7F F0  FF FF 7F 72 31 32 32 01  R..........r122.
1860: 15 19 02 00 10 03 80 00  15 19 52 15 80 F0 FF FF  ..........R.....
1870: 7F F0 FF FF 7F 72 31 32  31 45 15 80 F0 FF FF 7F  .....r121E......
1880: F0 FF FF 7F 72 31 32 34  01 80 5B 9E 80 C7 20 03  ....r124..[... .
1890: 01 C7 20 03 01 79 61 68  30 2B C7 20 03 01 9F 80  .. ..yah0+. ....
18A0: 23 52 15 80 F0 FF FF 7F  F0 FF FF 7F 72 31 32 34  #R..........r124
18B0: 45 15 80 F0 FF FF 7F F0  FF FF 7F 72 31 32 35 01  E..........r125.
18C0: 80 5B 55 80 C4 20 03 01  C4 20 03 01 68 69 6B 30  .[U.. ... ..hik0
18D0: 2B C4 20 03 01 A0 80 23  52 15 80 F0 FF FF 7F F0  +. ....#R.......
18E0: FF FF 7F 72 31 32 35 45  15 80 F0 FF FF 7F F0 FF  ...r125E........
18F0: FF 7F 72 31 32 31 01 80  2B CC 20 03 01 A1 80 23  ..r121..+. ....#
1900: 5B 55 80 C4 20 03 01 C4  20 03 01 68 69 6B 31 01  [U.. ... ..hik1.
1910: 4F 16 01 15 19 45 15 80  F0 FF FF 7F F0 FF FF 7F  O....E..........
1920: 72 31 32 37 01 80 79 00  CC 20 03 01 95 20 03 01  r127..y.. ... ..
1930: 2B CC 20 03 01 A2 80 23  52 15 80 F0 FF FF 7F F0  +. ....#R.......
1940: FF FF 7F 72 31 32 37 45  15 80 F0 FF FF 7F F0 FF  ...r127E........
1950: FF 7F 72 31 32 38 01 80  59 04 95 20 03 01 A3 80  ..r128..Y.. ....
1960: 7B CC 20 03 01 27 10 95  20 03 01 30 1C 92 80 52  {. ..'.. ..0...R
1970: 15 80 F0 FF FF 7F F0 FF  FF 7F 72 31 32 38 45 15  ..........r128E.
1980: 80 F0 FF FF 7F F0 FF FF  7F 72 31 32 36 01 80 1C  .........r126...
1990: 2B 80 2B 95 20 03 01 A4  80 23 2A 10 95 20 03 01  +.+. ....#*.. ..
19A0: 1C 06 80 52 15 80 F0 FF  FF 7F F0 FF FF 7F 72 31  ...R..........r1
19B0: 32 36 45 15 80 F0 FF FF  7F F0 FF FF 7F 72 31 32  26E..........r12
19C0: 39 01 80 27 10 95 20 03  01 31 2B CC 20 03 01 A5  9..'.. ..1+. ...
19D0: 80 23 52 15 80 F0 FF FF  7F F0 FF FF 7F 72 31 32  .#R..........r12
19E0: 39 45 15 80 F0 FF FF 7F  F0 FF FF 7F 72 31 33 30  9E..........r130
19F0: 01 80 6E F0 FF FF 7F 37  80 99 F0 FF FF 7F 1C 39  ..n....7.......9
1A00: 80 1A 64 00 1C 06 80 59  05 F0 FF FF 7F 00 52 15  ..d....Y......R.
1A10: 80 F0 FF FF 7F F0 FF FF  7F 72 31 33 30 29 10 0B  .........r130)..
1A20: 22 03 01 1D 35 A6 80 78  1C 03 80 6A A7 80 2B 80  "...5..x...j..+.
1A30: 14 80 AB 0A 2D F0 FF FF  7F F0 FF FF 7F 31 70 62  ....-........1pb
1A40: 31 5C 00 26 80 5C 01 26  80 9A 46 00 1C 2B 80 45  1\.&.\.&..F..+.E
1A50: 00 80 F8 FF FF 7F F8 FF  FF 7F 66 64 69 32 01 80  ..........fdi2..
1A60: 21 00                                             !.              
```

#### Opcodes

```
  0: 0x09F1 [0x42] SET_CLI_EVENT_CANCEL_DATA()
  1: 0x09F2 [0x45] LOAD_SCHEDULED_TASK: Load scheduler "fdo1" with entities [EventEntity, EventEntity], work=[200*, 0*]
  2: 0x0A03 [0x55] WAIT_LOAD_SCHEDULER: Wait for scheduler "fdo1" with entities [EventEntity, EventEntity], work=200*
  3: 0x0A12 [0x46] CAMERA_CONTROL: Disable user control
  4: 0x0A14 [0x38] SET_CLIENT_EVENT_MODE(mode=19*)
  5: 0x0A17 [0x34] LOAD_UNLOAD_ZONE(zone_id=559*)
  6: 0x0A1A [0x77] SET_EVENT_TIME_WEATHER(hour=0*, weather=1*)
  7: 0x0A1F [0x4E] SET_ENTITY_HIDE_FLAG: Hide Unknown NPC (ID: 16982046/0x0103201E)
  8: 0x0A25 [0xAB] EventEntity->UnknownFlag = 1 // Enable unknown flag
  9: 0x0A27 [0x27] REQ_SET(priority=0x10, entity_id=Mnejing (ID: 16982212/0x010320C4), tag_num=0x04)
 10: 0x0A2E [0x27] REQ_SET(priority=0x10, entity_id=Ovjang (ID: 16982215/0x010320C7), tag_num=0x04)
 11: 0x0A35 [0x2F] Nashmeira (ID: 16982220/0x010320CC)->Render.Flags0 &= ~0x80000 // Bit 19
 12: 0x0A3B [0x2F] Ghatsad (ID: 16982165/0x01032095)->Render.Flags0 &= ~0x80000 // Bit 19
 13: 0x0A41 [0x2F] Bharifhal (ID: 16982246/0x010320E6)->Render.Flags0 &= ~0x80000 // Bit 19
 14: 0x0A47 [0x2F] Raubahn (ID: 16982298/0x0103211A)->Render.Flags0 &= ~0x80000 // Bit 19
 15: 0x0A4D [0x4E] SET_ENTITY_HIDE_FLAG: Show Nashmeira (ID: 16982220/0x010320CC)
 16: 0x0A53 [0x4E] SET_ENTITY_HIDE_FLAG: Show Ghatsad (ID: 16982165/0x01032095)
 17: 0x0A59 [0x4E] SET_ENTITY_HIDE_FLAG: Show Unnamed NPC (ID: 16982539/0x0103220B)
 18: 0x0A5F [0x4E] SET_ENTITY_HIDE_FLAG: Show Bharifhal (ID: 16982246/0x010320E6)
 19: 0x0A65 [0x4E] SET_ENTITY_HIDE_FLAG: Show Raubahn (ID: 16982298/0x0103211A)
 20: 0x0A6B [0x92] Nashmeira (ID: 16982220/0x010320CC)->Render.Flags3 ^= 0x01
 21: 0x0A71 [0x92] Ghatsad (ID: 16982165/0x01032095)->Render.Flags3 ^= 0x01
 22: 0x0A77 [0x92] Mnejing (ID: 16982212/0x010320C4)->Render.Flags3 ^= 0x01
 23: 0x0A7D [0x92] Ovjang (ID: 16982215/0x010320C7)->Render.Flags3 ^= 0x01
 24: 0x0A83 [0x92] Bharifhal (ID: 16982246/0x010320E6)->Render.Flags3 ^= 0x01
 25: 0x0A89 [0x92] Raubahn (ID: 16982298/0x0103211A)->Render.Flags3 ^= 0x01
 26: 0x0A8F [0x92] Mnejing (ID: 16982212/0x010320C4)->Render.Flags3 ^= 0x01
 27: 0x0A95 [0x92] Ovjang (ID: 16982215/0x010320C7)->Render.Flags3 ^= 0x01
 28: 0x0A9B [0x29] REQ_SET_WAIT(priority=0x10, entity_id=Unnamed NPC (ID: 16982539/0x0103220B), tag_num=0x1C)
 29: 0x0AA2 [0x94] LocalPlayer->Render.Flags3 ^= 0x01
 30: 0x0AA8 [0x94] Unnamed NPC (ID: 16982539/0x0103220B)->Render.Flags3 ^= 0x01
 31: 0x0AAE [0x94] Nashmeira (ID: 16982220/0x010320CC)->Render.Flags3 ^= 0x01
 32: 0x0AB4 [0x94] Ghatsad (ID: 16982165/0x01032095)->Render.Flags3 ^= 0x01
 33: 0x0ABA [0x94] Bharifhal (ID: 16982246/0x010320E6)->Render.Flags3 ^= 0x01
 34: 0x0AC0 [0x94] Raubahn (ID: 16982298/0x0103211A)->Render.Flags3 ^= 0x01
 35: 0x0AC6 [0xBA] SET_ENTITY_POSITION(entity_id=LocalPlayer, pos_x=0.011*, pos_z=43.534*, pos_y=0.000*, direction=261.5°*)
 36: 0x0AD3 [0xBA] SET_ENTITY_POSITION(entity_id=Unnamed NPC (ID: 16982539/0x0103220B), pos_x=0.011*, pos_z=43.534*, pos_y=0.000*, direction=261.5°*)
 37: 0x0AE0 [0xBA] SET_ENTITY_POSITION(entity_id=Nashmeira (ID: 16982220/0x010320CC), pos_x=-0.026*, pos_z=49.498*, pos_y=0.000*, direction=88.7°*)
 38: 0x0AED [0xBA] SET_ENTITY_POSITION(entity_id=Mnejing (ID: 16982212/0x010320C4), pos_x=-1.354*, pos_z=50.230*, pos_y=0.000*, direction=87.9°*)
 39: 0x0AFA [0xBA] SET_ENTITY_POSITION(entity_id=Ovjang (ID: 16982215/0x010320C7), pos_x=0.961*, pos_z=50.386*, pos_y=0.000*, direction=87.9°*)
 40: 0x0B07 [0xBA] SET_ENTITY_POSITION(entity_id=Ghatsad (ID: 16982165/0x01032095), pos_x=-3.204*, pos_z=48.468*, pos_y=0.000*, direction=48.8°*)
 41: 0x0B14 [0xBA] SET_ENTITY_POSITION(entity_id=Bharifhal (ID: 16982246/0x010320E6), pos_x=3.463*, pos_z=48.922*, pos_y=0.000*, direction=107.2°*)
 42: 0x0B21 [0xBA] SET_ENTITY_POSITION(entity_id=Raubahn (ID: 16982298/0x0103211A), pos_x=3.393*, pos_z=46.089*, pos_y=0.000*, direction=107.2°*)
 43: 0x0B2E [0x7B] LocalPlayer stops talking
 44: 0x0B33 [0x7B] Unnamed NPC (ID: 16982539/0x0103220B) stops talking
 45: 0x0B38 [0x7B] Nashmeira (ID: 16982220/0x010320CC) stops talking
 46: 0x0B3D [0x7B] Ghatsad (ID: 16982165/0x01032095) stops talking
 47: 0x0B42 [0x7B] Mnejing (ID: 16982212/0x010320C4) stops talking
 48: 0x0B47 [0x7B] Ovjang (ID: 16982215/0x010320C7) stops talking
 49: 0x0B4C [0x7B] Bharifhal (ID: 16982246/0x010320E6) stops talking
 50: 0x0B51 [0x7B] Raubahn (ID: 16982298/0x0103211A) stops talking
 51: 0x0B56 [0x80] LOAD_WAIT(entity=LocalPlayer)
 52: 0x0B5B [0x80] LOAD_WAIT(entity=Unnamed NPC (ID: 16982539/0x0103220B))
 53: 0x0B60 [0x80] LOAD_WAIT(entity=Nashmeira (ID: 16982220/0x010320CC))
 54: 0x0B65 [0x80] LOAD_WAIT(entity=Ghatsad (ID: 16982165/0x01032095))
 55: 0x0B6A [0x80] LOAD_WAIT(entity=Mnejing (ID: 16982212/0x010320C4))
 56: 0x0B6F [0x80] LOAD_WAIT(entity=Ovjang (ID: 16982215/0x010320C7))
 57: 0x0B74 [0x80] LOAD_WAIT(entity=Bharifhal (ID: 16982246/0x010320E6))
 58: 0x0B79 [0x80] LOAD_WAIT(entity=Raubahn (ID: 16982298/0x0103211A))
 59: 0x0B7E [0x4A] Nashmeira (ID: 16982220/0x010320CC) looks at LocalPlayer
 60: 0x0B87 [0x4A] Ghatsad (ID: 16982165/0x01032095) looks at LocalPlayer
 61: 0x0B90 [0x4A] Mnejing (ID: 16982212/0x010320C4) looks at LocalPlayer
 62: 0x0B99 [0x4A] Ovjang (ID: 16982215/0x010320C7) looks at LocalPlayer
 63: 0x0BA2 [0x4A] Bharifhal (ID: 16982246/0x010320E6) looks at LocalPlayer
 64: 0x0BAB [0x4A] Raubahn (ID: 16982298/0x0103211A) looks at LocalPlayer
 65: 0x0BB4 [0x29] REQ_SET_WAIT(priority=0x05, entity_id=Unnamed NPC (ID: 16982539/0x0103220B), tag_num=0x3A)
 66: 0x0BBB [0x29] REQ_SET_WAIT(priority=0x10, entity_id=LocalPlayer, tag_num=0x03)
 67: 0x0BC2 [0x5D] SET_MUSIC_VOLUME(volume=0*, fade_time=120*)
 68: 0x0BC7 [0x1C] WAIT(30* ticks)
 69: 0x0BCA [0x5B] LOAD_EXT_SCHEDULER: Load scheduler "astl" with entities [Raubahn (ID: 16982298/0x0103211A), Raubahn (ID: 16982298/0x0103211A)], work=863*
 70: 0x0BD9 [0x5B] LOAD_EXT_SCHEDULER: Load scheduler "usi0" with entities [Mnejing (ID: 16982212/0x010320C4), Mnejing (ID: 16982212/0x010320C4)], work=905*
 71: 0x0BE8 [0x1C] WAIT(60* ticks)
 72: 0x0BEB [0x45] LOAD_SCHEDULED_TASK: Load scheduler "r101" with entities [LocalPlayer, LocalPlayer], work=[494*, 0*]
 73: 0x0BFC [0x1A] CALL_SUBROUTINE(address=0x0043)
 74: 0x0BFF [0x1C] WAIT(200* ticks)
 75: 0x0C02 [0x5C] MUSIC_CONTROL: Set Idle (Day) music to song 0*
 76: 0x0C06 [0x5C] MUSIC_CONTROL: Set Idle (Night) music to song 0*
 77: 0x0C0A [0x9A] WAIT_MUSIC_SERVER()
 78: 0x0C0B [0x2A] GET_REQ_LEVEL(level=5, entity_id=Unnamed NPC (ID: 16982539/0x0103220B))
 79: 0x0C11 [0x52] END_LOAD_SCHEDULER: End scheduler "r101" with entities [LocalPlayer, LocalPlayer], work=494*
 80: 0x0C20 [0x45] LOAD_SCHEDULED_TASK: Load scheduler "r102" with entities [LocalPlayer, LocalPlayer], work=[494*, 0*]
 81: 0x0C31 [0x5B] LOAD_EXT_SCHEDULER: Load scheduler "tlk0" with entities [Nashmeira (ID: 16982220/0x010320CC), Nashmeira (ID: 16982220/0x010320CC)], work=891*
 82: 0x0C40 [0x2B] Nashmeira (ID: 16982220/0x010320CC) [14858*]:
    → "\u0008. You honor us with your presence.\u007F1\u0000\u0007"
 83: 0x0C47 [0x23] WAIT_FOR_DIALOG_INTERACTION
 84: 0x0C48 [0x2B] Nashmeira (ID: 16982220/0x010320CC) [14859*]:
    → "Forgive us if we dispense with the pleasantries.\u0007We have summoned you today to discuss a matter of utmost importance.\u007F1\u0000\u0007"
 85: 0x0C4F [0x23] WAIT_FOR_DIALOG_INTERACTION
 86: 0x0C50 [0x5B] LOAD_EXT_SCHEDULER: Load scheduler "tlk1" with entities [Nashmeira (ID: 16982220/0x010320CC), Nashmeira (ID: 16982220/0x010320CC)], work=891*
 87: 0x0C5F [0x79] Nashmeira (ID: 16982220/0x010320CC) looks at Ghatsad (ID: 16982165/0x01032095) (Basic look)
 88: 0x0C69 [0x1C] WAIT(30* ticks)
 89: 0x0C6C [0x4A] Ghatsad (ID: 16982165/0x01032095) looks at Nashmeira (ID: 16982220/0x010320CC)
 90: 0x0C75 [0x52] END_LOAD_SCHEDULER: End scheduler "r102" with entities [LocalPlayer, LocalPlayer], work=494*
 91: 0x0C84 [0x45] LOAD_SCHEDULED_TASK: Load scheduler "r103" with entities [LocalPlayer, LocalPlayer], work=[494*, 0*]
 92: 0x0C95 [0x2B] Nashmeira (ID: 16982220/0x010320CC) [14860*]:
    → "Master Ghatsad, if you would.\u007F1\u0000\u0007"
 93: 0x0C9C [0x23] WAIT_FOR_DIALOG_INTERACTION
 94: 0x0C9D [0x6F] WAIT_FRAME_DELAY: Yield until WaitTime reaches zero
 95: 0x0C9E [0x76] CHECK_ENTITY_RENDER_FLAGS: Wait until Ghatsad (ID: 16982165/0x01032095) Render.Flags0 and Render.Flags3 conditions are met
 96: 0x0CA3 [0x5B] LOAD_EXT_SCHEDULER: Load scheduler "aka0" with entities [Ghatsad (ID: 16982165/0x01032095), Ghatsad (ID: 16982165/0x01032095)], work=849*
 97: 0x0CB2 [0x1C] WAIT(30* ticks)
 98: 0x0CB5 [0x52] END_LOAD_SCHEDULER: End scheduler "r103" with entities [LocalPlayer, LocalPlayer], work=494*
 99: 0x0CC4 [0x45] LOAD_SCHEDULED_TASK: Load scheduler "r109" with entities [LocalPlayer, LocalPlayer], work=[494*, 0*]
100: 0x0CD5 [0x1C] WAIT(100* ticks)
101: 0x0CD8 [0x5B] LOAD_EXT_SCHEDULER: Load scheduler "aka1" with entities [Ghatsad (ID: 16982165/0x01032095), Ghatsad (ID: 16982165/0x01032095)], work=849*
102: 0x0CE7 [0x1C] WAIT(110* ticks)
103: 0x0CEA [0x4A] Ghatsad (ID: 16982165/0x01032095) looks at LocalPlayer
104: 0x0CF3 [0x52] END_LOAD_SCHEDULER: End scheduler "r109" with entities [LocalPlayer, LocalPlayer], work=494*
105: 0x0D02 [0x45] LOAD_SCHEDULED_TASK: Load scheduler "r108" with entities [LocalPlayer, LocalPlayer], work=[494*, 0*]
106: 0x0D13 [0x1C] WAIT(20* ticks)
107: 0x0D16 [0x6F] WAIT_FRAME_DELAY: Yield until WaitTime reaches zero
108: 0x0D17 [0x76] CHECK_ENTITY_RENDER_FLAGS: Wait until Ghatsad (ID: 16982165/0x01032095) Render.Flags0 and Render.Flags3 conditions are met
109: 0x0D1C [0x2B] Ghatsad (ID: 16982165/0x01032095) [14861*]:
    → "\u0008. I trust you remember the iron colossus?\u007F1\u0000\u0007"
110: 0x0D23 [0x23] WAIT_FOR_DIALOG_INTERACTION
111: 0x0D24 [0x24] CREATE_DIALOG(message_id=14862*, default_option=0*, option_flags=0*)
    → "Do you remember the iron colossus?\u0007\u000BDo I ever!\u0007The iron cowhatsits?\u007F1\u0000\u0007"
112: 0x0D2B [0x25] WAIT_DIALOG_SELECT()
113: 0x0D2C [0x02] IF !(Work_Zone[0] == 0*) GOTO 0x0D5F
114: 0x0D34 [0x7B] Nashmeira (ID: 16982220/0x010320CC) stops talking
115: 0x0D39 [0x6E] Ghatsad (ID: 16982165/0x01032095) uses emote 7*
116: 0x0D40 [0x99] Wait for Ghatsad (ID: 16982165/0x01032095) animation to complete
117: 0x0D45 [0x2B] Ghatsad (ID: 16982165/0x01032095) [14863*]:
    → "Yes, the events of that day are burned into my memory as well.\u0007In that case, let us delve straight into the heart of the matter.\u007F1\u0000\u0007"
118: 0x0D4C [0x23] WAIT_FOR_DIALOG_INTERACTION
119: 0x0D4D [0x52] END_LOAD_SCHEDULER: End scheduler "r108" with entities [LocalPlayer, LocalPlayer], work=494*
120: 0x0D5C [0x01] GOTO 0x0DF1
121: 0x0D5F [0x02] IF !(Work_Zone[0] == 1*) GOTO 0x0DF1
122: 0x0D67 [0x2B] Ghatsad (ID: 16982165/0x01032095) [14864*]:
    → "Hm. I suppose it is a memory you care not to recall.\u0007You and Her Majesty risked life and limb to silence the rampaging machine and bring peace to our Empire once more.\u007F1\u0000\u0007"
123: 0x0D6E [0x23] WAIT_FOR_DIALOG_INTERACTION
124: 0x0D6F [0x52] END_LOAD_SCHEDULER: End scheduler "r108" with entities [LocalPlayer, LocalPlayer], work=494*
125: 0x0D7E [0x45] LOAD_SCHEDULED_TASK: Load scheduler "r107" with entities [LocalPlayer, LocalPlayer], work=[494*, 0*]
126: 0x0D8F [0x5B] LOAD_EXT_SCHEDULER: Load scheduler "kou0" with entities [Nashmeira (ID: 16982220/0x010320CC), Nashmeira (ID: 16982220/0x010320CC)], work=1134*
127: 0x0D9E [0x2B] Nashmeira (ID: 16982220/0x010320CC) [14865*]:
    → "It was not by our strength alone, Ghatsad.\u0007Were it not for the sacrifices of Prince Luzaf and...my brother...we would never have succeeded that day.\u007F1\u0000\u0007"
128: 0x0DA5 [0x23] WAIT_FOR_DIALOG_INTERACTION
129: 0x0DA6 [0x52] END_LOAD_SCHEDULER: End scheduler "r107" with entities [LocalPlayer, LocalPlayer], work=494*
130: 0x0DB5 [0x45] LOAD_SCHEDULED_TASK: Load scheduler "r105" with entities [LocalPlayer, LocalPlayer], work=[494*, 0*]
131: 0x0DC6 [0x7B] Nashmeira (ID: 16982220/0x010320CC) stops talking
132: 0x0DCB [0x6E] Ghatsad (ID: 16982165/0x01032095) uses emote 7*
133: 0x0DD2 [0x99] Wait for Ghatsad (ID: 16982165/0x01032095) animation to complete
134: 0x0DD7 [0x2B] Ghatsad (ID: 16982165/0x01032095) [14866*]:
    → "Quite so. Forgive me, Your Highness.\u007F1\u0000\u0007"
135: 0x0DDE [0x23] WAIT_FOR_DIALOG_INTERACTION
136: 0x0DDF [0x52] END_LOAD_SCHEDULER: End scheduler "r105" with entities [LocalPlayer, LocalPlayer], work=494*
137: 0x0DEE [0x01] GOTO 0x0DF1

SUBROUTINE_0DF1:
138: 0x0DF1 [0x5D] SET_MUSIC_VOLUME(volume=0*, fade_time=120*)
139: 0x0DF6 [0x45] LOAD_SCHEDULED_TASK: Load scheduler "fdo2" with entities [LocalPlayer, LocalPlayer], work=[200*, 0*]
140: 0x0E07 [0x55] WAIT_LOAD_SCHEDULER: Wait for scheduler "fdo2" with entities [LocalPlayer, LocalPlayer], work=200*
141: 0x0E16 [0x34] LOAD_UNLOAD_ZONE(zone_id=77*)
142: 0x0E19 [0x77] SET_EVENT_TIME_WEATHER(hour=16*, weather=1*)
143: 0x0E1E [0x1C] WAIT(30* ticks)
144: 0x0E21 [0xAB] EventEntity->UnknownFlag = 1 // Enable unknown flag
145: 0x0E23 [0x29] REQ_SET_WAIT(priority=0x10, entity_id=Unnamed NPC (ID: 16982250/0x010320EA), tag_num=0x02)
146: 0x0E2A [0x4E] SET_ENTITY_HIDE_FLAG: Hide Unknown NPC (ID: 16982046/0x0103201E)
147: 0x0E30 [0x27] REQ_SET(priority=0x10, entity_id=Alexander (ID: 16982248/0x010320E8), tag_num=0x04)
148: 0x0E37 [0x27] REQ_SET(priority=0x10, entity_id=Unnamed NPC (ID: 16982249/0x010320E9), tag_num=0x04)
149: 0x0E3E [0x92] LocalPlayer->Render.Flags3 ^= 0x01
150: 0x0E44 [0x92] Ghatsad (ID: 16982165/0x01032095)->Render.Flags3 ^= 0x01
151: 0x0E4A [0x92] Alexander (ID: 16982248/0x010320E8)->Render.Flags3 ^= 0x01
152: 0x0E50 [0x92] Unnamed NPC (ID: 16982249/0x010320E9)->Render.Flags3 ^= 0x01
153: 0x0E56 [0x94] Ghatsad (ID: 16982165/0x01032095)->Render.Flags3 ^= 0x01
154: 0x0E5C [0x94] Alexander (ID: 16982248/0x010320E8)->Render.Flags3 ^= 0x01
155: 0x0E62 [0x94] Unnamed NPC (ID: 16982249/0x010320E9)->Render.Flags3 ^= 0x01
156: 0x0E68 [0xBA] SET_ENTITY_POSITION(entity_id=Ghatsad (ID: 16982165/0x01032095), pos_x=-479.905*, pos_z=414.838*, pos_y=-3.999*, direction=271.3°*)
157: 0x0E75 [0xBA] SET_ENTITY_POSITION(entity_id=Unnamed NPC (ID: 16982249/0x010320E9), pos_x=-479.905*, pos_z=414.838*, pos_y=-3.999*, direction=271.3°*)
158: 0x0E82 [0xBA] SET_ENTITY_POSITION(entity_id=Alexander (ID: 16982248/0x010320E8), pos_x=-484.659*, pos_z=420.000*, pos_y=-3.949*, direction=0.0°*)
159: 0x0E8F [0x80] LOAD_WAIT(entity=Ghatsad (ID: 16982165/0x01032095))
160: 0x0E94 [0x80] LOAD_WAIT(entity=Alexander (ID: 16982248/0x010320E8))
161: 0x0E99 [0x80] LOAD_WAIT(entity=Unnamed NPC (ID: 16982249/0x010320E9))
162: 0x0E9E [0x5B] LOAD_EXT_SCHEDULER: Load scheduler "pan3" with entities [Ghatsad (ID: 16982165/0x01032095), Ghatsad (ID: 16982165/0x01032095)], work=1173*
163: 0x0EAD [0x5B] LOAD_EXT_SCHEDULER: Load scheduler "alx0" with entities [Unnamed NPC (ID: 16982249/0x010320E9), Unnamed NPC (ID: 16982249/0x010320E9)], work=1188*
164: 0x0EBC [0x5B] LOAD_EXT_SCHEDULER: Load scheduler "b2l5" with entities [Alexander (ID: 16982248/0x010320E8), Alexander (ID: 16982248/0x010320E8)], work=1182*
165: 0x0ECB [0x5C] MUSIC_CONTROL: Set Idle (Day) music to song 185*
166: 0x0ECF [0x5C] MUSIC_CONTROL: Set Idle (Night) music to song 185*
167: 0x0ED3 [0x9A] WAIT_MUSIC_SERVER()
168: 0x0ED4 [0x48] [System] [10301*]:
    → "\u007F4\u0001\u0000\u0007"
169: 0x0ED7 [0x23] WAIT_FOR_DIALOG_INTERACTION
170: 0x0ED8 [0x1C] WAIT(15* ticks)
171: 0x0EDB [0x45] LOAD_SCHEDULED_TASK: Load scheduler "pa00" with entities [LocalPlayer, LocalPlayer], work=[324*, 0*]
172: 0x0EEC [0x45] LOAD_SCHEDULED_TASK: Load scheduler "efon" with entities [LocalPlayer, LocalPlayer], work=[215*, 0*]
173: 0x0EFD [0x55] WAIT_LOAD_SCHEDULER: Wait for scheduler "efon" with entities [LocalPlayer, LocalPlayer], work=215*
174: 0x0F0C [0x1C] WAIT(120* ticks)
175: 0x0F0F [0x7C] Ghatsad (ID: 16982165/0x01032095)->Render.Flags2 |= 0x00
176: 0x0F15 [0x2B] Ghatsad (ID: 16982165/0x01032095) [14867*]:
    → "After the dust settled, we sealed the chamber, my research team monitoring the remains closely to ensure that such a calamity would never again befall the Empire.\u007F1\u0000\u0007"
177: 0x0F1C [0x23] WAIT_FOR_DIALOG_INTERACTION
178: 0x0F1D [0x2B] Ghatsad (ID: 16982165/0x01032095) [14868*]:
    → "All was in order...until recently.\u007F1\u0000\u0007"
179: 0x0F24 [0x23] WAIT_FOR_DIALOG_INTERACTION
180: 0x0F25 [0x52] END_LOAD_SCHEDULER: End scheduler "pa00" with entities [LocalPlayer, LocalPlayer], work=324*
181: 0x0F34 [0x45] LOAD_SCHEDULED_TASK: Load scheduler "pa01" with entities [LocalPlayer, LocalPlayer], work=[324*, 0*]
182: 0x0F45 [0x5B] LOAD_EXT_SCHEDULER: Load scheduler "pan0" with entities [Ghatsad (ID: 16982165/0x01032095), Ghatsad (ID: 16982165/0x01032095)], work=1173*
183: 0x0F54 [0x2B] Ghatsad (ID: 16982165/0x01032095) [14869*]:
    → "A spatial distortion--an \u00072Astral Gate,\u00073 as the Windurstian ambassador put it...\u0007The fluctuations are so subtle as to be almost undetectable, but something is clearly amiss.\u007F1\u0000\u0007"
184: 0x0F5B [0x23] WAIT_FOR_DIALOG_INTERACTION
185: 0x0F5C [0x2B] Ghatsad (ID: 16982165/0x01032095) [14870*]:
    → "An unidentified energy source, pushing against the gate from beyond...as if some extradimensional being is straining to cross over into our world.\u007F1\u0000\u0007"
186: 0x0F63 [0x23] WAIT_FOR_DIALOG_INTERACTION
187: 0x0F64 [0x52] END_LOAD_SCHEDULER: End scheduler "pa01" with entities [LocalPlayer, LocalPlayer], work=324*
188: 0x0F73 [0x45] LOAD_SCHEDULED_TASK: Load scheduler "pa02" with entities [LocalPlayer, LocalPlayer], work=[324*, 0*]
189: 0x0F84 [0x5B] LOAD_EXT_SCHEDULER: Load scheduler "pan1" with entities [Ghatsad (ID: 16982165/0x01032095), Ghatsad (ID: 16982165/0x01032095)], work=1173*
190: 0x0F93 [0x2B] Ghatsad (ID: 16982165/0x01032095) [14871*]:
    → "I'm sure you can form a hypothesis as well as I, \u0008.\u0007Yes, I speak of the god who descended into the colossus that day...\u007F1\u0000\u0007"
191: 0x0F9A [0x23] WAIT_FOR_DIALOG_INTERACTION
192: 0x0F9B [0x52] END_LOAD_SCHEDULER: End scheduler "pa02" with entities [LocalPlayer, LocalPlayer], work=324*
193: 0x0FAA [0x45] LOAD_SCHEDULED_TASK: Load scheduler "r112" with entities [LocalPlayer, LocalPlayer], work=[494*, 0*]
194: 0x0FBB [0x2B] Ghatsad (ID: 16982165/0x01032095) [14872*]:
    → "...Alexander.\u007F1\u0000\u0007"
195: 0x0FC2 [0x23] WAIT_FOR_DIALOG_INTERACTION
196: 0x0FC3 [0x45] LOAD_SCHEDULED_TASK: Load scheduler "fdo2" with entities [LocalPlayer, LocalPlayer], work=[200*, 0*]
197: 0x0FD4 [0x55] WAIT_LOAD_SCHEDULER: Wait for scheduler "fdo2" with entities [LocalPlayer, LocalPlayer], work=200*
198: 0x0FE3 [0x52] END_LOAD_SCHEDULER: End scheduler "r112" with entities [LocalPlayer, LocalPlayer], work=494*
199: 0x0FF2 [0x34] LOAD_UNLOAD_ZONE(zone_id=559*)
200: 0x0FF5 [0x77] SET_EVENT_TIME_WEATHER(hour=0*, weather=1*)
201: 0x0FFA [0x1C] WAIT(30* ticks)
202: 0x0FFD [0x92] LocalPlayer->Render.Flags3 = Flags3  // No change (flag=0)
203: 0x1003 [0x4E] SET_ENTITY_HIDE_FLAG: Hide Unknown NPC (ID: 16982046/0x0103201E)
204: 0x1009 [0x4E] SET_ENTITY_HIDE_FLAG: Hide Alexander (ID: 16982248/0x010320E8)
205: 0x100F [0x4E] SET_ENTITY_HIDE_FLAG: Hide Unnamed NPC (ID: 16982249/0x010320E9)
206: 0x1015 [0x4E] SET_ENTITY_HIDE_FLAG: Show LocalPlayer
207: 0x101B [0x4E] SET_ENTITY_HIDE_FLAG: Show Unnamed NPC (ID: 16982539/0x0103220B)
208: 0x1021 [0x4E] SET_ENTITY_HIDE_FLAG: Show Nashmeira (ID: 16982220/0x010320CC)
209: 0x1027 [0x4E] SET_ENTITY_HIDE_FLAG: Show Ghatsad (ID: 16982165/0x01032095)
210: 0x102D [0x80] LOAD_WAIT(entity=LocalPlayer)
211: 0x1032 [0x80] LOAD_WAIT(entity=Unnamed NPC (ID: 16982539/0x0103220B))
212: 0x1037 [0x80] LOAD_WAIT(entity=Nashmeira (ID: 16982220/0x010320CC))
213: 0x103C [0x80] LOAD_WAIT(entity=Ghatsad (ID: 16982165/0x01032095))
214: 0x1041 [0xBA] SET_ENTITY_POSITION(entity_id=Ghatsad (ID: 16982165/0x01032095), pos_x=-3.204*, pos_z=48.468*, pos_y=0.000*, direction=48.8°*)
215: 0x104E [0x4A] Ghatsad (ID: 16982165/0x01032095) looks at LocalPlayer
216: 0x1057 [0x27] REQ_SET(priority=0x10, entity_id=LocalPlayer, tag_num=0x03)
217: 0x105E [0x7C] Ghatsad (ID: 16982165/0x01032095)->Render.Flags2 |= 0x01
218: 0x1064 [0x1C] WAIT(100* ticks)
219: 0x1067 [0x45] LOAD_SCHEDULED_TASK: Load scheduler "r113" with entities [LocalPlayer, LocalPlayer], work=[494*, 0*]
220: 0x1078 [0x45] LOAD_SCHEDULED_TASK: Load scheduler "fdi2" with entities [LocalPlayer, LocalPlayer], work=[200*, 0*]
221: 0x1089 [0x55] WAIT_LOAD_SCHEDULER: Wait for scheduler "fdi2" with entities [LocalPlayer, LocalPlayer], work=200*
222: 0x1098 [0x1C] WAIT(120* ticks)
223: 0x109B [0x52] END_LOAD_SCHEDULER: End scheduler "r113" with entities [LocalPlayer, LocalPlayer], work=494*
224: 0x10AA [0x45] LOAD_SCHEDULED_TASK: Load scheduler "r114" with entities [LocalPlayer, LocalPlayer], work=[494*, 0*]
225: 0x10BB [0x66] LOAD_EXT_SCHEDULER_MAIN: Load scheduler "tlk0" with entities [Ghatsad (ID: 16982165/0x01032095), Ghatsad (ID: 16982165/0x01032095)], work=69*
226: 0x10CA [0x2B] Ghatsad (ID: 16982165/0x01032095) [14873*]:
    → "We have yet to objectively verify this, but there can be no other explanation.\u0007Even now, the colossus remains a divine vessel...and thus, a significant danger.\u007F1\u0000\u0007"
227: 0x10D1 [0x23] WAIT_FOR_DIALOG_INTERACTION
228: 0x10D2 [0x2B] Ghatsad (ID: 16982165/0x01032095) [14874*]:
    → "Perhaps you are aware, but this is not the only spatial distortion within Imperial territory.\u0007A similar phenomenon exists at Hazhalm, where my team and I work tirelessly to develop a means to seal it permanently.\u007F1\u0000\u0007"
229: 0x10D9 [0x23] WAIT_FOR_DIALOG_INTERACTION
230: 0x10DA [0x52] END_LOAD_SCHEDULER: End scheduler "r114" with entities [LocalPlayer, LocalPlayer], work=494*
231: 0x10E9 [0x45] LOAD_SCHEDULED_TASK: Load scheduler "r115" with entities [LocalPlayer, LocalPlayer], work=[494*, 0*]
232: 0x10FA [0x2B] Ghatsad (ID: 16982165/0x01032095) [14875*]:
    → "As a scientist, it pains me to admit this, but our technology has proven too primitive, our knowledge too limited for the task.\u007F1\u0000\u0007"
233: 0x1101 [0x23] WAIT_FOR_DIALOG_INTERACTION
234: 0x1102 [0x2B] Ghatsad (ID: 16982165/0x01032095) [14876*]:
    → "Still, one thing is clear: we must address the situation, and without delay.\u007F1\u0000\u0007"
235: 0x1109 [0x23] WAIT_FOR_DIALOG_INTERACTION
236: 0x110A [0x66] LOAD_EXT_SCHEDULER_MAIN: Load scheduler "tlk1" with entities [Ghatsad (ID: 16982165/0x01032095), Ghatsad (ID: 16982165/0x01032095)], work=69*
237: 0x1119 [0x52] END_LOAD_SCHEDULER: End scheduler "r115" with entities [LocalPlayer, LocalPlayer], work=494*
238: 0x1128 [0x45] LOAD_SCHEDULED_TASK: Load scheduler "r116" with entities [LocalPlayer, LocalPlayer], work=[494*, 0*]
239: 0x1139 [0x5B] LOAD_EXT_SCHEDULER: Load scheduler "tlk0" with entities [Nashmeira (ID: 16982220/0x010320CC), Nashmeira (ID: 16982220/0x010320CC)], work=891*
240: 0x1148 [0x2B] Nashmeira (ID: 16982220/0x010320CC) [14877*]:
    → "Ghatsad assures me that leaving the distortion untouched would have only one result.\u0007We must not--we will not--inflict the suffering of that day upon our people anew.\u007F1\u0000\u0007"
241: 0x114F [0x23] WAIT_FOR_DIALOG_INTERACTION
242: 0x1150 [0x2B] Nashmeira (ID: 16982220/0x010320CC) [14878*]:
    → "And so it is that we have made our decision.\u0007We shall repair the colossus and bring it to life ourselves!\u007F1\u0000\u0007"
243: 0x1157 [0x23] WAIT_FOR_DIALOG_INTERACTION
244: 0x1158 [0x5B] LOAD_EXT_SCHEDULER: Load scheduler "tlk1" with entities [Nashmeira (ID: 16982220/0x010320CC), Nashmeira (ID: 16982220/0x010320CC)], work=891*
245: 0x1167 [0x52] END_LOAD_SCHEDULER: End scheduler "r116" with entities [LocalPlayer, LocalPlayer], work=494*
246: 0x1176 [0x45] LOAD_SCHEDULED_TASK: Load scheduler "r117" with entities [LocalPlayer, LocalPlayer], work=[494*, 0*]
247: 0x1187 [0x66] LOAD_EXT_SCHEDULER_MAIN: Load scheduler "tlk0" with entities [Ghatsad (ID: 16982165/0x01032095), Ghatsad (ID: 16982165/0x01032095)], work=69*
248: 0x1196 [0x2B] Ghatsad (ID: 16982165/0x01032095) [14879*]:
    → "Ah, but do not be startled. Allow me to explain.\u007F1\u0000\u0007"
249: 0x119D [0x23] WAIT_FOR_DIALOG_INTERACTION
250: 0x119E [0x2B] Ghatsad (ID: 16982165/0x01032095) [14880*]:
    → "Our observations confirm that the distortion is still in the early stages of development.\u0007Even if the extradimensional force were to interfere at this stage, its powers would be considerably limited.\u007F1\u0000\u0007"
251: 0x11A5 [0x23] WAIT_FOR_DIALOG_INTERACTION
252: 0x11A6 [0x66] LOAD_EXT_SCHEDULER_MAIN: Load scheduler "tlk1" with entities [Ghatsad (ID: 16982165/0x01032095), Ghatsad (ID: 16982165/0x01032095)], work=69*
253: 0x11B5 [0x52] END_LOAD_SCHEDULER: End scheduler "r117" with entities [LocalPlayer, LocalPlayer], work=494*
254: 0x11C4 [0x45] LOAD_SCHEDULED_TASK: Load scheduler "r118" with entities [LocalPlayer, LocalPlayer], work=[494*, 0*]
255: 0x11D5 [0x2B] Ghatsad (ID: 16982165/0x01032095) [14881*]:
    → "If we act quickly, we can counteract the disturbance from this side.\u0007We take a minor risk now to avert certain disaster later.\u007F1\u0000\u0007"
256: 0x11DC [0x23] WAIT_FOR_DIALOG_INTERACTION
257: 0x11DD [0x45] LOAD_SCHEDULED_TASK: Load scheduler "fdo2" with entities [LocalPlayer, LocalPlayer], work=[200*, 0*]
258: 0x11EE [0x55] WAIT_LOAD_SCHEDULER: Wait for scheduler "fdo2" with entities [LocalPlayer, LocalPlayer], work=200*
259: 0x11FD [0x52] END_LOAD_SCHEDULER: End scheduler "r118" with entities [LocalPlayer, LocalPlayer], work=494*
260: 0x120C [0x34] LOAD_UNLOAD_ZONE(zone_id=77*)
261: 0x120F [0x77] SET_EVENT_TIME_WEATHER(hour=16*, weather=1*)
262: 0x1214 [0x1C] WAIT(30* ticks)
263: 0x1217 [0xAB] EventEntity->UnknownFlag = 1 // Enable unknown flag
264: 0x1219 [0x29] REQ_SET_WAIT(priority=0x10, entity_id=Unnamed NPC (ID: 16982250/0x010320EA), tag_num=0x02)
265: 0x1220 [0x4E] SET_ENTITY_HIDE_FLAG: Hide Unknown NPC (ID: 16982046/0x0103201E)
266: 0x1226 [0x27] REQ_SET(priority=0x10, entity_id=Aphmau (ID: 16982216/0x010320C8), tag_num=0x04)
267: 0x122D [0x27] REQ_SET(priority=0x10, entity_id=Alexander (ID: 16982248/0x010320E8), tag_num=0x04)
268: 0x1234 [0x27] REQ_SET(priority=0x10, entity_id=Unnamed NPC (ID: 16982249/0x010320E9), tag_num=0x04)
269: 0x123B [0x92] LocalPlayer->Render.Flags3 ^= 0x01
