# 16982545

## Common Data

| Field            | Value                          |
|------------------|--------------------------------|
| Zone             | Aht Urhgan Whitegate2 (ID: 50) |
| Block Size       | 224 bytes                      |
| Total Events     | 7                              |
| References Count | 18                             |

## List of Events

| Event ID                 | Entrypoint   |   Size |   Instructions |
|--------------------------|--------------|--------|----------------|
| [65535](#event-65535)    | 0x0000       |      1 |              1 |
| [889](#event-889)        | 0x0001       |      1 |              1 |
| [65535.1](#event-655351) | 0x0002       |     25 |              5 |
| [65535.2](#event-655352) | 0x001B       |     39 |              8 |
| [65535.3](#event-655353) | 0x0042       |     14 |              2 |
| [65535.4](#event-655354) | 0x0050       |     24 |              6 |
| [65535.5](#event-655355) | 0x0068       |      1 |              1 |

## DAT References (imed_data)

|   Index | Hex Value   |   Dec Value |
|---------|-------------|-------------|
|       0 | 0xFFF8B69B  |  4294489755 |
|       1 | 0xEB6D      |       60269 |
|       2 | 0xFFFFD5F4  |  4294956532 |
|       3 | 0x0800      |        2048 |
|       4 | 0x000A      |          10 |
|       5 | 0x000D      |          13 |
|       6 | 0xFFF8AA19  |  4294486553 |
|       7 | 0xEB21      |       60193 |
|       8 | 0xFFFFD64D  |  4294956621 |
|       9 | 0x008C      |         140 |
|      10 | 0x014A      |         330 |
|      11 | 0x276EA     |      161514 |
|      12 | 0x4811D     |      295197 |
|      13 | 0xFFFFA401  |  4294943745 |
|      14 | 0x0B46      |        2886 |
|      15 | 0x010E      |         270 |
|      16 | 0x00C8      |         200 |
|      17 | 0x000B      |          11 |

## Events

### Event 65535

#### Metadata

| Field        | Value   |
|--------------|---------|
| Entrypoint   | 0x0000  |
| Data Size    | 1 bytes |
| Instructions | 1       |

```
      00 01 02 03 04 05 06 07  08 09 0A 0B 0C 0D 0E 0F
      -- -- -- -- -- -- -- --  -- -- -- -- -- -- -- --
0000: 00                                                .               
```

#### Opcodes

```
  0: 0x0000 [0x00] END_REQSTACK()
```

### Event 889

#### Metadata

| Field        | Value   |
|--------------|---------|
| Entrypoint   | 0x0001  |
| Data Size    | 1 bytes |
| Instructions | 1       |

```
      00 01 02 03 04 05 06 07  08 09 0A 0B 0C 0D 0E 0F
      -- -- -- -- -- -- -- --  -- -- -- -- -- -- -- --
0000:    00                                              .              
```

#### Opcodes

```
  0: 0x0001 [0x00] END_REQSTACK()
```

### Event 65535.1

#### Metadata

| Field        | Value    |
|--------------|----------|
| Entrypoint   | 0x0002   |
| Data Size    | 25 bytes |
| Instructions | 5        |

```
      00 01 02 03 04 05 06 07  08 09 0A 0B 0C 0D 0E 0F
      -- -- -- -- -- -- -- --  -- -- -- -- -- -- -- --
0000:       22 00 2F 00 F8 FF  FF 7F BA F8 FF FF 7F 00    "./...........
0010: 80 01 80 02 80 03 80 1C  04 80 00                 ...........     
```

#### Opcodes

```
  0: 0x0002 [0x22] ENTITY_HIDE_FLAG(enabled=0x00)
  1: 0x0004 [0x2F] EventEntity->Render.Flags0 &= ~0x80000 // Bit 19
  2: 0x000A [0xBA] SET_ENTITY_POSITION(entity_id=EventEntity, pos_x=-477.541*, pos_z=60.269*, pos_y=-10.764*, direction=180.0°*)
  3: 0x0017 [0x1C] WAIT(10* ticks)
  4: 0x001A [0x00] END_REQSTACK()
```

### Event 65535.2

#### Metadata

| Field        | Value    |
|--------------|----------|
| Entrypoint   | 0x001B   |
| Data Size    | 39 bytes |
| Instructions | 8        |

```
      00 01 02 03 04 05 06 07  08 09 0A 0B 0C 0D 0E 0F
      -- -- -- -- -- -- -- --  -- -- -- -- -- -- -- --
0010:                                   32 05 80 31 00             2..1.
0020: 06 80 07 80 08 80 09 80  31 01 79 00 F8 FF FF 7F  ........1.y.....
0030: 18 22 03 01 1C 0A 80 7B  F8 FF FF 7F 1E 10 22 03  .".....{......".
0040: 01 00                                             ..              
```

#### Opcodes

```
  0: 0x001B [0x32] ExtData[1]->MainSpeed = 13* * 0.1
  1: 0x001E [0x31] UPDATE_ENTITY_POSITION: Set EventEntity goal position to X=-480.743*, Z=60.193*, Y=-10.675*, Time=140*
  2: 0x0028 [0x31] UPDATE_ENTITY_POSITION: Move EventEntity towards goal position
  3: 0x002A [0x79] EventEntity looks at Unnamed NPC (ID: 16982552/0x01032218) (Basic look)
  4: 0x0034 [0x1C] WAIT(330* ticks)
  5: 0x0037 [0x7B] EventEntity stops talking
  6: 0x003C [0x1E] EventEntity looks at Clavauert (ID: 16982544/0x01032210) and starts talking
  7: 0x0041 [0x00] END_REQSTACK()
```

### Event 65535.3

#### Metadata

| Field        | Value    |
|--------------|----------|
| Entrypoint   | 0x0042   |
| Data Size    | 14 bytes |
| Instructions | 2        |

```
      00 01 02 03 04 05 06 07  08 09 0A 0B 0C 0D 0E 0F
      -- -- -- -- -- -- -- --  -- -- -- -- -- -- -- --
0040:       BA F8 FF FF 7F 0B  80 0C 80 0D 80 0E 80 00    ..............
```

#### Opcodes

```
  0: 0x0042 [0xBA] SET_ENTITY_POSITION(entity_id=EventEntity, pos_x=161.514*, pos_z=295.197*, pos_y=-23.551*, direction=253.6°*)
  1: 0x004F [0x00] END_REQSTACK()
```

### Event 65535.4

#### Metadata

| Field        | Value    |
|--------------|----------|
| Entrypoint   | 0x0050   |
| Data Size    | 24 bytes |
| Instructions | 6        |

```
      00 01 02 03 04 05 06 07  08 09 0A 0B 0C 0D 0E 0F
      -- -- -- -- -- -- -- --  -- -- -- -- -- -- -- --
0050: 1C 0F 80 1E 10 22 03 01  1C 10 80 6E F8 FF FF 7F  .....".....n....
0060: 11 80 99 F8 FF FF 7F 00                           ........        
```

#### Opcodes

```
  0: 0x0050 [0x1C] WAIT(270* ticks)
  1: 0x0053 [0x1E] EventEntity looks at Clavauert (ID: 16982544/0x01032210) and starts talking
  2: 0x0058 [0x1C] WAIT(200* ticks)
  3: 0x005B [0x6E] EventEntity uses emote 11*
  4: 0x0062 [0x99] Wait for EventEntity animation to complete
  5: 0x0067 [0x00] END_REQSTACK()
```

### Event 65535.5

#### Metadata

| Field        | Value   |
|--------------|---------|
| Entrypoint   | 0x0068  |
| Data Size    | 1 bytes |
| Instructions | 1       |

```
      00 01 02 03 04 05 06 07  08 09 0A 0B 0C 0D 0E 0F
      -- -- -- -- -- -- -- --  -- -- -- -- -- -- -- --
0060:                          00                               .       
```

#### Opcodes

```
  0: 0x0068 [0x00] END_REQSTACK()
```
