# 16982481 - BomeNPC

## Common Data

| Field            | Value                          |
|------------------|--------------------------------|
| Zone             | Aht Urhgan Whitegate2 (ID: 50) |
| Block Size       | 756 bytes                      |
| Total Events     | 34                             |
| References Count | 8                              |

## List of Events

| Event ID                    | Entrypoint   |   Size |   Instructions |
|-----------------------------|--------------|--------|----------------|
| [65535](#event-65535)       | 0x0000       |      1 |              1 |
| [65535.1](#event-65535-1)   | 0x0001       |     10 |              2 |
| [5084](#event-5084)         | 0x000B       |      1 |              1 |
| [65535.2](#event-65535-2)   | 0x000C       |     10 |              2 |
| [65535.3](#event-65535-3)   | 0x0016       |     10 |              2 |
| [65535.4](#event-65535-4)   | 0x0020       |     18 |              2 |
| [65535.5](#event-65535-5)   | 0x0032       |     14 |              2 |
| [65535.6](#event-65535-6)   | 0x0040       |     14 |              2 |
| [65535.7](#event-65535-7)   | 0x004E       |     14 |              2 |
| [65535.8](#event-65535-8)   | 0x005C       |     18 |              2 |
| [65535.9](#event-65535-9)   | 0x006E       |     18 |              2 |
| [65535.10](#event-65535-10) | 0x0080       |     18 |              2 |
| [65535.11](#event-65535-11) | 0x0092       |     18 |              2 |
| [65535.12](#event-65535-12) | 0x00A4       |     18 |              2 |
| [65535.13](#event-65535-13) | 0x00B6       |     18 |              2 |
| [65535.14](#event-65535-14) | 0x00C8       |     18 |              2 |
| [65535.15](#event-65535-15) | 0x00DA       |     18 |              2 |
| [65535.16](#event-65535-16) | 0x00EC       |     18 |              2 |
| [65535.17](#event-65535-17) | 0x00FE       |     18 |              2 |
| [65535.18](#event-65535-18) | 0x0110       |     18 |              2 |
| [65535.19](#event-65535-19) | 0x0122       |     18 |              2 |
| [65535.20](#event-65535-20) | 0x0134       |     18 |              2 |
| [65535.21](#event-65535-21) | 0x0146       |     25 |              3 |
| [65535.22](#event-65535-22) | 0x015F       |     25 |              3 |
| [65535.23](#event-65535-23) | 0x0178       |     25 |              3 |
| [65535.24](#event-65535-24) | 0x0191       |     25 |              3 |
| [65535.25](#event-65535-25) | 0x01AA       |     18 |              2 |
| [65535.26](#event-65535-26) | 0x01BC       |     18 |              2 |
| [65535.27](#event-65535-27) | 0x01CE       |     18 |              2 |
| [65535.28](#event-65535-28) | 0x01E0       |     18 |              2 |
| [65535.29](#event-65535-29) | 0x01F2       |     18 |              2 |
| [65535.30](#event-65535-30) | 0x0204       |     18 |              2 |
| [65535.31](#event-65535-31) | 0x0216       |     18 |              2 |
| [65535.32](#event-65535-32) | 0x0228       |     18 |              2 |

## DAT References (imed_data)

|   Index | Hex Value   |   Dec Value |
|---------|-------------|-------------|
|       0 | 0x0000      |           0 |
|       1 | 0x0001      |           1 |
|       2 | 0x003C      |          60 |
|       3 | 0x0080      |         128 |
|       4 | 0x0075      |         117 |
|       5 | 0x0076      |         118 |
|       6 | 0x0077      |         119 |
|       7 | 0x0073      |         115 |

## Events

### Event 65535

#### Metadata

| Field        | Value   |
|--------------|---------|
| Entrypoint   | 0x0000  |
| Data Size    | 1 bytes |
| Instructions | 1       |

```
      00 01 02 03 04 05 06 07  08 09 0A 0B 0C 0D 0E 0F
      -- -- -- -- -- -- -- --  -- -- -- -- -- -- -- --
0000: 00                                                .               
```

#### Opcodes

```
  0: 0x0000 [0x00] END_REQSTACK()
```

### Event 65535.1

#### Metadata

| Field        | Value    |
|--------------|----------|
| Entrypoint   | 0x0001   |
| Data Size    | 10 bytes |
| Instructions | 2        |

```
      00 01 02 03 04 05 06 07  08 09 0A 0B 0C 0D 0E 0F
      -- -- -- -- -- -- -- --  -- -- -- -- -- -- -- --
0000:    6C F8 FF FF 7F 00 80  01 80 00                  l.........     
```

#### Opcodes

```
  0: 0x0001 [0x6C] FADE_ENTITY_COLOR(entity_id=EventEntity, end_alpha=0*, fade_time=1*)
  1: 0x000A [0x00] END_REQSTACK()
```

### Event 5084

#### Metadata

| Field        | Value   |
|--------------|---------|
| Entrypoint   | 0x000B  |
| Data Size    | 1 bytes |
| Instructions | 1       |

```
      00 01 02 03 04 05 06 07  08 09 0A 0B 0C 0D 0E 0F
      -- -- -- -- -- -- -- --  -- -- -- -- -- -- -- --
0000:                                   00                         .    
```

#### Opcodes

```
  0: 0x000B [0x00] END_REQSTACK()
```

### Event 65535.2

#### Metadata

| Field        | Value    |
|--------------|----------|
| Entrypoint   | 0x000C   |
| Data Size    | 10 bytes |
| Instructions | 2        |

```
      00 01 02 03 04 05 06 07  08 09 0A 0B 0C 0D 0E 0F
      -- -- -- -- -- -- -- --  -- -- -- -- -- -- -- --
0000:                                      6C F8 FF FF              l...
0010: 7F 00 80 02 80 00                                 ......          
```

#### Opcodes

```
  0: 0x000C [0x6C] FADE_ENTITY_COLOR(entity_id=EventEntity, end_alpha=0*, fade_time=60*)
  1: 0x0015 [0x00] END_REQSTACK()
```

### Event 65535.3

#### Metadata

| Field        | Value    |
|--------------|----------|
| Entrypoint   | 0x0016   |
| Data Size    | 10 bytes |
| Instructions | 2        |

```
      00 01 02 03 04 05 06 07  08 09 0A 0B 0C 0D 0E 0F
      -- -- -- -- -- -- -- --  -- -- -- -- -- -- -- --
0010:                   6C F8  FF FF 7F 03 80 02 80 00        l.........
```

#### Opcodes

```
  0: 0x0016 [0x6C] FADE_ENTITY_COLOR(entity_id=EventEntity, end_alpha=128*, fade_time=60*)
  1: 0x001F [0x00] END_REQSTACK()
```

### Event 65535.4

#### Metadata

| Field        | Value    |
|--------------|----------|
| Entrypoint   | 0x0020   |
| Data Size    | 18 bytes |
| Instructions | 2        |

```
      00 01 02 03 04 05 06 07  08 09 0A 0B 0C 0D 0E 0F
      -- -- -- -- -- -- -- --  -- -- -- -- -- -- -- --
0020: BB 04 80 F8 FF FF 7F F8  FF FF 7F 64 65 72 75 00  ...........deru.
0030: 80 00                                             ..              
```

#### Opcodes

```
  0: 0x0020 [0xBB] LOAD_EVENT_SCHEDULER_ALT: Load scheduler "deru" with entities [EventEntity, EventEntity], work=[117*, 0*]
  1: 0x0031 [0x00] END_REQSTACK()
```

### Event 65535.5

#### Metadata

| Field        | Value    |
|--------------|----------|
| Entrypoint   | 0x0032   |
| Data Size    | 14 bytes |
| Instructions | 2        |

```
      00 01 02 03 04 05 06 07  08 09 0A 0B 0C 0D 0E 0F
      -- -- -- -- -- -- -- --  -- -- -- -- -- -- -- --
0030:       2C F8 FF FF 7F F8  FF FF 7F 69 6E 69 31 00    ,........ini1.
```

#### Opcodes

```
  0: 0x0032 [0x2C] CREATE_SCHEDULER_TASK: Create scheduler "ini1" with entities [EventEntity, EventEntity]
  1: 0x003F [0x00] END_REQSTACK()
```

### Event 65535.6

#### Metadata

| Field        | Value    |
|--------------|----------|
| Entrypoint   | 0x0040   |
| Data Size    | 14 bytes |
| Instructions | 2        |

```
      00 01 02 03 04 05 06 07  08 09 0A 0B 0C 0D 0E 0F
      -- -- -- -- -- -- -- --  -- -- -- -- -- -- -- --
0040: 2C F8 FF FF 7F F8 FF FF  7F 69 6E 69 32 00        ,........ini2.  
```

#### Opcodes

```
  0: 0x0040 [0x2C] CREATE_SCHEDULER_TASK: Create scheduler "ini2" with entities [EventEntity, EventEntity]
  1: 0x004D [0x00] END_REQSTACK()
```

### Event 65535.7

#### Metadata

| Field        | Value    |
|--------------|----------|
| Entrypoint   | 0x004E   |
| Data Size    | 14 bytes |
| Instructions | 2        |

```
      00 01 02 03 04 05 06 07  08 09 0A 0B 0C 0D 0E 0F
      -- -- -- -- -- -- -- --  -- -- -- -- -- -- -- --
0040:                                            2C F8                ,.
0050: FF FF 7F F8 FF FF 7F 69  6E 69 33 00              .......ini3.    
```

#### Opcodes

```
  0: 0x004E [0x2C] CREATE_SCHEDULER_TASK: Create scheduler "ini3" with entities [EventEntity, EventEntity]
  1: 0x005B [0x00] END_REQSTACK()
```

### Event 65535.8

#### Metadata

| Field        | Value    |
|--------------|----------|
| Entrypoint   | 0x005C   |
| Data Size    | 18 bytes |
| Instructions | 2        |

```
      00 01 02 03 04 05 06 07  08 09 0A 0B 0C 0D 0E 0F
      -- -- -- -- -- -- -- --  -- -- -- -- -- -- -- --
0050:                                      BB 04 80 F8              ....
0060: FF FF 7F CC 21 03 01 6D  61 69 6E 00 80 00        ....!..main...  
```

#### Opcodes

```
  0: 0x005C [0xBB] LOAD_EVENT_SCHEDULER_ALT: Load scheduler "main" with entities [EventEntity, Silver Kettle (ID: 16982476/0x010321CC)], work=[117*, 0*]
  1: 0x006D [0x00] END_REQSTACK()
```

### Event 65535.9

#### Metadata

| Field        | Value    |
|--------------|----------|
| Entrypoint   | 0x006E   |
| Data Size    | 18 bytes |
| Instructions | 2        |

```
      00 01 02 03 04 05 06 07  08 09 0A 0B 0C 0D 0E 0F
      -- -- -- -- -- -- -- --  -- -- -- -- -- -- -- --
0060:                                            BB 05                ..
0070: 80 F8 FF FF 7F CC 21 03  01 6D 61 69 6E 00 80 00  ......!..main...
```

#### Opcodes

```
  0: 0x006E [0xBB] LOAD_EVENT_SCHEDULER_ALT: Load scheduler "main" with entities [EventEntity, Silver Kettle (ID: 16982476/0x010321CC)], work=[118*, 0*]
  1: 0x007F [0x00] END_REQSTACK()
```

### Event 65535.10

#### Metadata

| Field        | Value    |
|--------------|----------|
| Entrypoint   | 0x0080   |
| Data Size    | 18 bytes |
| Instructions | 2        |

```
      00 01 02 03 04 05 06 07  08 09 0A 0B 0C 0D 0E 0F
      -- -- -- -- -- -- -- --  -- -- -- -- -- -- -- --
0080: BB 06 80 F8 FF FF 7F CC  21 03 01 6D 61 69 6E 00  ........!..main.
0090: 80 00                                             ..              
```

#### Opcodes

```
  0: 0x0080 [0xBB] LOAD_EVENT_SCHEDULER_ALT: Load scheduler "main" with entities [EventEntity, Silver Kettle (ID: 16982476/0x010321CC)], work=[119*, 0*]
  1: 0x0091 [0x00] END_REQSTACK()
```

### Event 65535.11

#### Metadata

| Field        | Value    |
|--------------|----------|
| Entrypoint   | 0x0092   |
| Data Size    | 18 bytes |
| Instructions | 2        |

```
      00 01 02 03 04 05 06 07  08 09 0A 0B 0C 0D 0E 0F
      -- -- -- -- -- -- -- --  -- -- -- -- -- -- -- --
0090:       BB 07 80 F8 FF FF  7F CC 21 03 01 6D 61 69    ........!..mai
00A0: 6E 00 80 00                                       n...            
```

#### Opcodes

```
  0: 0x0092 [0xBB] LOAD_EVENT_SCHEDULER_ALT: Load scheduler "main" with entities [EventEntity, Silver Kettle (ID: 16982476/0x010321CC)], work=[115*, 0*]
  1: 0x00A3 [0x00] END_REQSTACK()
```

### Event 65535.12

#### Metadata

| Field        | Value    |
|--------------|----------|
| Entrypoint   | 0x00A4   |
| Data Size    | 18 bytes |
| Instructions | 2        |

```
      00 01 02 03 04 05 06 07  08 09 0A 0B 0C 0D 0E 0F
      -- -- -- -- -- -- -- --  -- -- -- -- -- -- -- --
00A0:             BB 04 80 F8  FF FF 7F F2 21 03 01 6D      ........!..m
00B0: 61 69 6E 00 80 00                                 ain...          
```

#### Opcodes

```
  0: 0x00A4 [0xBB] LOAD_EVENT_SCHEDULER_ALT: Load scheduler "main" with entities [EventEntity, Abquhbah (ID: 16982514/0x010321F2)], work=[117*, 0*]
  1: 0x00B5 [0x00] END_REQSTACK()
```

### Event 65535.13

#### Metadata

| Field        | Value    |
|--------------|----------|
| Entrypoint   | 0x00B6   |
| Data Size    | 18 bytes |
| Instructions | 2        |

```
      00 01 02 03 04 05 06 07  08 09 0A 0B 0C 0D 0E 0F
      -- -- -- -- -- -- -- --  -- -- -- -- -- -- -- --
00B0:                   BB 05  80 F8 FF FF 7F F2 21 03        ........!.
00C0: 01 6D 61 69 6E 00 80 00                           .main...        
```

#### Opcodes

```
  0: 0x00B6 [0xBB] LOAD_EVENT_SCHEDULER_ALT: Load scheduler "main" with entities [EventEntity, Abquhbah (ID: 16982514/0x010321F2)], work=[118*, 0*]
  1: 0x00C7 [0x00] END_REQSTACK()
```

### Event 65535.14

#### Metadata

| Field        | Value    |
|--------------|----------|
| Entrypoint   | 0x00C8   |
| Data Size    | 18 bytes |
| Instructions | 2        |

```
      00 01 02 03 04 05 06 07  08 09 0A 0B 0C 0D 0E 0F
      -- -- -- -- -- -- -- --  -- -- -- -- -- -- -- --
00C0:                          BB 06 80 F8 FF FF 7F F2          ........
00D0: 21 03 01 6D 61 69 6E 00  80 00                    !..main...      
```

#### Opcodes

```
  0: 0x00C8 [0xBB] LOAD_EVENT_SCHEDULER_ALT: Load scheduler "main" with entities [EventEntity, Abquhbah (ID: 16982514/0x010321F2)], work=[119*, 0*]
  1: 0x00D9 [0x00] END_REQSTACK()
```

### Event 65535.15

#### Metadata

| Field        | Value    |
|--------------|----------|
| Entrypoint   | 0x00DA   |
| Data Size    | 18 bytes |
| Instructions | 2        |

```
      00 01 02 03 04 05 06 07  08 09 0A 0B 0C 0D 0E 0F
      -- -- -- -- -- -- -- --  -- -- -- -- -- -- -- --
00D0:                                BB 07 80 F8 FF FF            ......
00E0: 7F F2 21 03 01 6D 61 69  6E 00 80 00              ..!..main...    
```

#### Opcodes

```
  0: 0x00DA [0xBB] LOAD_EVENT_SCHEDULER_ALT: Load scheduler "main" with entities [EventEntity, Abquhbah (ID: 16982514/0x010321F2)], work=[115*, 0*]
  1: 0x00EB [0x00] END_REQSTACK()
```

### Event 65535.16

#### Metadata

| Field        | Value    |
|--------------|----------|
| Entrypoint   | 0x00EC   |
| Data Size    | 18 bytes |
| Instructions | 2        |

```
      00 01 02 03 04 05 06 07  08 09 0A 0B 0C 0D 0E 0F
      -- -- -- -- -- -- -- --  -- -- -- -- -- -- -- --
00E0:                                      BB 04 80 F8              ....
00F0: FF FF 7F C9 21 03 01 6D  61 69 6E 00 80 00        ....!..main...  
```

#### Opcodes

```
  0: 0x00EC [0xBB] LOAD_EVENT_SCHEDULER_ALT: Load scheduler "main" with entities [EventEntity, Arcuhbah (ID: 16982473/0x010321C9)], work=[117*, 0*]
  1: 0x00FD [0x00] END_REQSTACK()
```

### Event 65535.17

#### Metadata

| Field        | Value    |
|--------------|----------|
| Entrypoint   | 0x00FE   |
| Data Size    | 18 bytes |
| Instructions | 2        |

```
      00 01 02 03 04 05 06 07  08 09 0A 0B 0C 0D 0E 0F
      -- -- -- -- -- -- -- --  -- -- -- -- -- -- -- --
00F0:                                            BB 04                ..
0100: 80 F8 FF FF 7F 8D 20 03  01 6D 61 69 6E 00 80 00  ...... ..main...
```

#### Opcodes

```
  0: 0x00FE [0xBB] LOAD_EVENT_SCHEDULER_ALT: Load scheduler "main" with entities [EventEntity, Abquhbah (ID: 16982157/0x0103208D)], work=[117*, 0*]
  1: 0x010F [0x00] END_REQSTACK()
```

### Event 65535.18

#### Metadata

| Field        | Value    |
|--------------|----------|
| Entrypoint   | 0x0110   |
| Data Size    | 18 bytes |
| Instructions | 2        |

```
      00 01 02 03 04 05 06 07  08 09 0A 0B 0C 0D 0E 0F
      -- -- -- -- -- -- -- --  -- -- -- -- -- -- -- --
0110: BB 05 80 F8 FF FF 7F 8D  20 03 01 6D 61 69 6E 00  ........ ..main.
0120: 80 00                                             ..              
```

#### Opcodes

```
  0: 0x0110 [0xBB] LOAD_EVENT_SCHEDULER_ALT: Load scheduler "main" with entities [EventEntity, Abquhbah (ID: 16982157/0x0103208D)], work=[118*, 0*]
  1: 0x0121 [0x00] END_REQSTACK()
```

### Event 65535.19

#### Metadata

| Field        | Value    |
|--------------|----------|
| Entrypoint   | 0x0122   |
| Data Size    | 18 bytes |
| Instructions | 2        |

```
      00 01 02 03 04 05 06 07  08 09 0A 0B 0C 0D 0E 0F
      -- -- -- -- -- -- -- --  -- -- -- -- -- -- -- --
0120:       BB 06 80 F8 FF FF  7F 8D 20 03 01 6D 61 69    ........ ..mai
0130: 6E 00 80 00                                       n...            
```

#### Opcodes

```
  0: 0x0122 [0xBB] LOAD_EVENT_SCHEDULER_ALT: Load scheduler "main" with entities [EventEntity, Abquhbah (ID: 16982157/0x0103208D)], work=[119*, 0*]
  1: 0x0133 [0x00] END_REQSTACK()
```

### Event 65535.20

#### Metadata

| Field        | Value    |
|--------------|----------|
| Entrypoint   | 0x0134   |
| Data Size    | 18 bytes |
| Instructions | 2        |

```
      00 01 02 03 04 05 06 07  08 09 0A 0B 0C 0D 0E 0F
      -- -- -- -- -- -- -- --  -- -- -- -- -- -- -- --
0130:             BB 07 80 F8  FF FF 7F 8D 20 03 01 6D      ........ ..m
0140: 61 69 6E 00 80 00                                 ain...          
```

#### Opcodes

```
  0: 0x0134 [0xBB] LOAD_EVENT_SCHEDULER_ALT: Load scheduler "main" with entities [EventEntity, Abquhbah (ID: 16982157/0x0103208D)], work=[115*, 0*]
  1: 0x0145 [0x00] END_REQSTACK()
```

### Event 65535.21

#### Metadata

| Field        | Value    |
|--------------|----------|
| Entrypoint   | 0x0146   |
| Data Size    | 25 bytes |
| Instructions | 3        |

```
      00 01 02 03 04 05 06 07  08 09 0A 0B 0C 0D 0E 0F
      -- -- -- -- -- -- -- --  -- -- -- -- -- -- -- --
0140:                   BB 04  80 F8 FF FF 7F CD 21 03        ........!.
0150: 01 6D 61 69 6E 00 80 27  0F D2 21 03 01 09 00     .main..'..!.... 
```

#### Opcodes

```
  0: 0x0146 [0xBB] LOAD_EVENT_SCHEDULER_ALT: Load scheduler "main" with entities [EventEntity, Ugrihd (ID: 16982477/0x010321CD)], work=[117*, 0*]
  1: 0x0157 [0x27] REQ_SET(priority=0x0F, entity_id=Bome3 (ID: 16982482/0x010321D2), tag_num=0x09)
  2: 0x015E [0x00] END_REQSTACK()
```

### Event 65535.22

#### Metadata

| Field        | Value    |
|--------------|----------|
| Entrypoint   | 0x015F   |
| Data Size    | 25 bytes |
| Instructions | 3        |

```
      00 01 02 03 04 05 06 07  08 09 0A 0B 0C 0D 0E 0F
      -- -- -- -- -- -- -- --  -- -- -- -- -- -- -- --
0150:                                               BB                 .
0160: 05 80 F8 FF FF 7F CD 21  03 01 6D 61 69 6E 00 80  .......!..main..
0170: 27 0F D2 21 03 01 09 00                           '..!....        
```

#### Opcodes

```
  0: 0x015F [0xBB] LOAD_EVENT_SCHEDULER_ALT: Load scheduler "main" with entities [EventEntity, Ugrihd (ID: 16982477/0x010321CD)], work=[118*, 0*]
  1: 0x0170 [0x27] REQ_SET(priority=0x0F, entity_id=Bome3 (ID: 16982482/0x010321D2), tag_num=0x09)
  2: 0x0177 [0x00] END_REQSTACK()
```

### Event 65535.23

#### Metadata

| Field        | Value    |
|--------------|----------|
| Entrypoint   | 0x0178   |
| Data Size    | 25 bytes |
| Instructions | 3        |

```
      00 01 02 03 04 05 06 07  08 09 0A 0B 0C 0D 0E 0F
      -- -- -- -- -- -- -- --  -- -- -- -- -- -- -- --
0170:                          BB 06 80 F8 FF FF 7F CD          ........
0180: 21 03 01 6D 61 69 6E 00  80 27 0F D2 21 03 01 09  !..main..'..!...
0190: 00                                                .               
```

#### Opcodes

```
  0: 0x0178 [0xBB] LOAD_EVENT_SCHEDULER_ALT: Load scheduler "main" with entities [EventEntity, Ugrihd (ID: 16982477/0x010321CD)], work=[119*, 0*]
  1: 0x0189 [0x27] REQ_SET(priority=0x0F, entity_id=Bome3 (ID: 16982482/0x010321D2), tag_num=0x09)
  2: 0x0190 [0x00] END_REQSTACK()
```

### Event 65535.24

#### Metadata

| Field        | Value    |
|--------------|----------|
| Entrypoint   | 0x0191   |
| Data Size    | 25 bytes |
| Instructions | 3        |

```
      00 01 02 03 04 05 06 07  08 09 0A 0B 0C 0D 0E 0F
      -- -- -- -- -- -- -- --  -- -- -- -- -- -- -- --
0190:    BB 07 80 F8 FF FF 7F  CD 21 03 01 6D 61 69 6E   ........!..main
01A0: 00 80 27 0F D2 21 03 01  09 00                    ..'..!....      
```

#### Opcodes

```
  0: 0x0191 [0xBB] LOAD_EVENT_SCHEDULER_ALT: Load scheduler "main" with entities [EventEntity, Ugrihd (ID: 16982477/0x010321CD)], work=[115*, 0*]
  1: 0x01A2 [0x27] REQ_SET(priority=0x0F, entity_id=Bome3 (ID: 16982482/0x010321D2), tag_num=0x09)
  2: 0x01A9 [0x00] END_REQSTACK()
```

### Event 65535.25

#### Metadata

| Field        | Value    |
|--------------|----------|
| Entrypoint   | 0x01AA   |
| Data Size    | 18 bytes |
| Instructions | 2        |

```
      00 01 02 03 04 05 06 07  08 09 0A 0B 0C 0D 0E 0F
      -- -- -- -- -- -- -- --  -- -- -- -- -- -- -- --
01A0:                                BB 04 80 F8 FF FF            ......
01B0: 7F C6 21 03 01 6D 61 69  6E 00 80 00              ..!..main...    
```

#### Opcodes

```
  0: 0x01AA [0xBB] LOAD_EVENT_SCHEDULER_ALT: Load scheduler "main" with entities [EventEntity, Rongelouts (ID: 16982470/0x010321C6)], work=[117*, 0*]
  1: 0x01BB [0x00] END_REQSTACK()
```

### Event 65535.26

#### Metadata

| Field        | Value    |
|--------------|----------|
| Entrypoint   | 0x01BC   |
| Data Size    | 18 bytes |
| Instructions | 2        |

```
      00 01 02 03 04 05 06 07  08 09 0A 0B 0C 0D 0E 0F
      -- -- -- -- -- -- -- --  -- -- -- -- -- -- -- --
01B0:                                      BB 05 80 F8              ....
01C0: FF FF 7F C6 21 03 01 6D  61 69 6E 00 80 00        ....!..main...  
```

#### Opcodes

```
  0: 0x01BC [0xBB] LOAD_EVENT_SCHEDULER_ALT: Load scheduler "main" with entities [EventEntity, Rongelouts (ID: 16982470/0x010321C6)], work=[118*, 0*]
  1: 0x01CD [0x00] END_REQSTACK()
```

### Event 65535.27

#### Metadata

| Field        | Value    |
|--------------|----------|
| Entrypoint   | 0x01CE   |
| Data Size    | 18 bytes |
| Instructions | 2        |

```
      00 01 02 03 04 05 06 07  08 09 0A 0B 0C 0D 0E 0F
      -- -- -- -- -- -- -- --  -- -- -- -- -- -- -- --
01C0:                                            BB 06                ..
01D0: 80 F8 FF FF 7F C6 21 03  01 6D 61 69 6E 00 80 00  ......!..main...
```

#### Opcodes

```
  0: 0x01CE [0xBB] LOAD_EVENT_SCHEDULER_ALT: Load scheduler "main" with entities [EventEntity, Rongelouts (ID: 16982470/0x010321C6)], work=[119*, 0*]
  1: 0x01DF [0x00] END_REQSTACK()
```

### Event 65535.28

#### Metadata

| Field        | Value    |
|--------------|----------|
| Entrypoint   | 0x01E0   |
| Data Size    | 18 bytes |
| Instructions | 2        |

```
      00 01 02 03 04 05 06 07  08 09 0A 0B 0C 0D 0E 0F
      -- -- -- -- -- -- -- --  -- -- -- -- -- -- -- --
01E0: BB 07 80 F8 FF FF 7F C6  21 03 01 6D 61 69 6E 00  ........!..main.
01F0: 80 00                                             ..              
```

#### Opcodes

```
  0: 0x01E0 [0xBB] LOAD_EVENT_SCHEDULER_ALT: Load scheduler "main" with entities [EventEntity, Rongelouts (ID: 16982470/0x010321C6)], work=[115*, 0*]
  1: 0x01F1 [0x00] END_REQSTACK()
```

### Event 65535.29

#### Metadata

| Field        | Value    |
|--------------|----------|
| Entrypoint   | 0x01F2   |
| Data Size    | 18 bytes |
| Instructions | 2        |

```
      00 01 02 03 04 05 06 07  08 09 0A 0B 0C 0D 0E 0F
      -- -- -- -- -- -- -- --  -- -- -- -- -- -- -- --
01F0:       BB 04 80 F8 FF FF  7F C8 21 03 01 6D 61 69    ........!..mai
0200: 6E 00 80 00                                       n...            
```

#### Opcodes

```
  0: 0x01F2 [0xBB] LOAD_EVENT_SCHEDULER_ALT: Load scheduler "main" with entities [EventEntity, Koja Salaheem (ID: 16982472/0x010321C8)], work=[117*, 0*]
  1: 0x0203 [0x00] END_REQSTACK()
```

### Event 65535.30

#### Metadata

| Field        | Value    |
|--------------|----------|
| Entrypoint   | 0x0204   |
| Data Size    | 18 bytes |
| Instructions | 2        |

```
      00 01 02 03 04 05 06 07  08 09 0A 0B 0C 0D 0E 0F
      -- -- -- -- -- -- -- --  -- -- -- -- -- -- -- --
0200:             BB 05 80 F8  FF FF 7F C8 21 03 01 6D      ........!..m
0210: 61 69 6E 00 80 00                                 ain...          
```

#### Opcodes

```
  0: 0x0204 [0xBB] LOAD_EVENT_SCHEDULER_ALT: Load scheduler "main" with entities [EventEntity, Koja Salaheem (ID: 16982472/0x010321C8)], work=[118*, 0*]
  1: 0x0215 [0x00] END_REQSTACK()
```

### Event 65535.31

#### Metadata

| Field        | Value    |
|--------------|----------|
| Entrypoint   | 0x0216   |
| Data Size    | 18 bytes |
| Instructions | 2        |

```
      00 01 02 03 04 05 06 07  08 09 0A 0B 0C 0D 0E 0F
      -- -- -- -- -- -- -- --  -- -- -- -- -- -- -- --
0210:                   BB 06  80 F8 FF FF 7F C8 21 03        ........!.
0220: 01 6D 61 69 6E 00 80 00                           .main...        
```

#### Opcodes

```
  0: 0x0216 [0xBB] LOAD_EVENT_SCHEDULER_ALT: Load scheduler "main" with entities [EventEntity, Koja Salaheem (ID: 16982472/0x010321C8)], work=[119*, 0*]
  1: 0x0227 [0x00] END_REQSTACK()
```

### Event 65535.32

#### Metadata

| Field        | Value    |
|--------------|----------|
| Entrypoint   | 0x0228   |
| Data Size    | 18 bytes |
| Instructions | 2        |

```
      00 01 02 03 04 05 06 07  08 09 0A 0B 0C 0D 0E 0F
      -- -- -- -- -- -- -- --  -- -- -- -- -- -- -- --
0220:                          BB 07 80 F8 FF FF 7F C8          ........
0230: 21 03 01 6D 61 69 6E 00  80 00                    !..main...      
```

#### Opcodes

```
  0: 0x0228 [0xBB] LOAD_EVENT_SCHEDULER_ALT: Load scheduler "main" with entities [EventEntity, Koja Salaheem (ID: 16982472/0x010321C8)], work=[115*, 0*]
  1: 0x0239 [0x00] END_REQSTACK()
```
