# 16982156 - Naja Salaheem

## Common Data

| Field            | Value                          |
|------------------|--------------------------------|
| Zone             | Aht Urhgan Whitegate2 (ID: 50) |
| Block Size       | 5472 bytes                     |
| Total Events     | 212                            |
| References Count | 232                            |

## List of Events

| Event ID                     | Entrypoint   |   Size |   Instructions |
|------------------------------|--------------|--------|----------------|
| [65535](#event-65535)        | 0x0000       |      1 |              1 |
| [65535.1](#event-655351)     | 0x0001       |      1 |              1 |
| [3000](#event-3000)          | 0x0002       |      1 |              1 |
| [3001](#event-3001)          | 0x0003       |     48 |             16 |
| [3002](#event-3002)          | 0x0033       |      1 |              1 |
| [3003](#event-3003)          | 0x0034       |     52 |             18 |
| [73](#event-73)              | 0x0068       |      1 |              1 |
| [3020](#event-3020)          | 0x0069       |      1 |              1 |
| [3030](#event-3030)          | 0x006A       |      1 |              1 |
| [3021](#event-3021)          | 0x006B       |     17 |              9 |
| [3028](#event-3028)          | 0x007C       |      1 |              1 |
| [3029](#event-3029)          | 0x007D       |     71 |             24 |
| [5000](#event-5000)          | 0x00C4       |      1 |              1 |
| [5001](#event-5001)          | 0x00C5       |     40 |             12 |
| [5002](#event-5002)          | 0x00ED       |      1 |              1 |
| [5020](#event-5020)          | 0x00EE       |      1 |              1 |
| [5021](#event-5021)          | 0x00EF       |      1 |              1 |
| [5022](#event-5022)          | 0x00F0       |      1 |              1 |
| [74](#event-74)              | 0x00F1       |      1 |              1 |
| [75](#event-75)              | 0x00F2       |      1 |              1 |
| [3050](#event-3050)          | 0x00F3       |      1 |              1 |
| [3051](#event-3051)          | 0x00F4       |     61 |             18 |
| [3052](#event-3052)          | 0x0131       |      1 |              1 |
| [3053](#event-3053)          | 0x0132       |     71 |             24 |
| [3070](#event-3070)          | 0x0179       |      1 |              1 |
| [3071](#event-3071)          | 0x017A       |     21 |             11 |
| [3072](#event-3072)          | 0x018F       |      1 |              1 |
| [3073](#event-3073)          | 0x0190       |     21 |             11 |
| [3074](#event-3074)          | 0x01A5       |      1 |              1 |
| [3076](#event-3076)          | 0x01A6       |      1 |              1 |
| [3080](#event-3080)          | 0x01A7       |     13 |              7 |
| [3077](#event-3077)          | 0x01B4       |     52 |             23 |
| [3078](#event-3078)          | 0x01E8       |      1 |              1 |
| [3079](#event-3079)          | 0x01E9       |     76 |             25 |
| [65535.2](#event-655352)     | 0x0235       |     22 |              4 |
| [65535.3](#event-655353)     | 0x024B       |     22 |              4 |
| [65535.4](#event-655354)     | 0x0261       |      4 |              2 |
| [65535.5](#event-655355)     | 0x0265       |      2 |              2 |
| [65535.6](#event-655356)     | 0x0267       |     16 |              2 |
| [65535.7](#event-655357)     | 0x0277       |     14 |              2 |
| [65535.8](#event-655358)     | 0x0285       |     16 |              2 |
| [65535.9](#event-655359)     | 0x0295       |     14 |              2 |
| [65535.10](#event-6553510)   | 0x02A3       |     22 |              3 |
| [65535.11](#event-6553511)   | 0x02B9       |     14 |              2 |
| [65535.12](#event-6553512)   | 0x02C7       |     16 |              2 |
| [65535.13](#event-6553513)   | 0x02D7       |     20 |              3 |
| [65535.14](#event-6553514)   | 0x02EB       |     22 |              3 |
| [65535.15](#event-6553515)   | 0x0301       |     14 |              2 |
| [65535.16](#event-6553516)   | 0x030F       |     16 |              2 |
| [65535.17](#event-6553517)   | 0x031F       |     20 |              3 |
| [65535.18](#event-6553518)   | 0x0333       |     16 |              2 |
| [65535.19](#event-6553519)   | 0x0343       |     14 |              2 |
| [65535.20](#event-6553520)   | 0x0351       |     16 |              2 |
| [65535.21](#event-6553521)   | 0x0361       |     14 |              2 |
| [65535.22](#event-6553522)   | 0x036F       |     22 |              3 |
| [65535.23](#event-6553523)   | 0x0385       |     20 |              3 |
| [65535.24](#event-6553524)   | 0x0399       |     16 |              2 |
| [65535.25](#event-6553525)   | 0x03A9       |     14 |              2 |
| [65535.26](#event-6553526)   | 0x03B7       |     22 |              3 |
| [65535.27](#event-6553527)   | 0x03CD       |     14 |              2 |
| [65535.28](#event-6553528)   | 0x03DB       |     16 |              2 |
| [65535.29](#event-6553529)   | 0x03EB       |     14 |              2 |
| [65535.30](#event-6553530)   | 0x03F9       |     16 |              2 |
| [65535.31](#event-6553531)   | 0x0409       |     20 |              3 |
| [65535.32](#event-6553532)   | 0x041D       |     16 |              2 |
| [65535.33](#event-6553533)   | 0x042D       |     14 |              2 |
| [65535.34](#event-6553534)   | 0x043B       |     16 |              2 |
| [65535.35](#event-6553535)   | 0x044B       |     14 |              2 |
| [65535.36](#event-6553536)   | 0x0459       |     22 |              3 |
| [65535.37](#event-6553537)   | 0x046F       |     14 |              2 |
| [65535.38](#event-6553538)   | 0x047D       |     16 |              2 |
| [65535.39](#event-6553539)   | 0x048D       |     20 |              3 |
| [65535.40](#event-6553540)   | 0x04A1       |     22 |              3 |
| [65535.41](#event-6553541)   | 0x04B7       |     14 |              2 |
| [65535.42](#event-6553542)   | 0x04C5       |     16 |              2 |
| [65535.43](#event-6553543)   | 0x04D5       |     20 |              3 |
| [65535.44](#event-6553544)   | 0x04E9       |     22 |              3 |
| [65535.45](#event-6553545)   | 0x04FF       |     14 |              2 |
| [65535.46](#event-6553546)   | 0x050D       |     16 |              2 |
| [65535.47](#event-6553547)   | 0x051D       |     20 |              3 |
| [65535.48](#event-6553548)   | 0x0531       |     16 |              2 |
| [65535.49](#event-6553549)   | 0x0541       |     14 |              2 |
| [65535.50](#event-6553550)   | 0x054F       |     16 |              2 |
| [65535.51](#event-6553551)   | 0x055F       |     14 |              2 |
| [65535.52](#event-6553552)   | 0x056D       |     16 |              2 |
| [65535.53](#event-6553553)   | 0x057D       |     14 |              2 |
| [65535.54](#event-6553554)   | 0x058B       |     16 |              2 |
| [65535.55](#event-6553555)   | 0x059B       |     14 |              2 |
| [65535.56](#event-6553556)   | 0x05A9       |     16 |              2 |
| [65535.57](#event-6553557)   | 0x05B9       |     14 |              2 |
| [65535.58](#event-6553558)   | 0x05C7       |     22 |              3 |
| [65535.59](#event-6553559)   | 0x05DD       |     14 |              2 |
| [65535.60](#event-6553560)   | 0x05EB       |     16 |              2 |
| [65535.61](#event-6553561)   | 0x05FB       |     20 |              3 |
| [65535.62](#event-6553562)   | 0x060F       |     22 |              3 |
| [65535.63](#event-6553563)   | 0x0625       |     14 |              2 |
| [65535.64](#event-6553564)   | 0x0633       |     53 |              9 |
| [65535.65](#event-6553565)   | 0x0668       |     28 |              8 |
| [65535.66](#event-6553566)   | 0x0684       |      1 |              1 |
| [65535.67](#event-6553567)   | 0x0685       |     10 |              2 |
| [65535.68](#event-6553568)   | 0x068F       |     15 |              5 |
| [65535.69](#event-6553569)   | 0x069E       |     10 |              2 |
| [65535.70](#event-6553570)   | 0x06A8       |     10 |              2 |
| [65535.71](#event-6553571)   | 0x06B2       |     32 |              4 |
| [3115](#event-3115)          | 0x06D2       |     25 |              9 |
| [3116](#event-3116)          | 0x06EB       |     33 |             11 |
| [3117](#event-3117)          | 0x070C       |     33 |             11 |
| [3118](#event-3118)          | 0x072D       |     33 |             11 |
| [3119](#event-3119)          | 0x074E       |     33 |             11 |
| [3120](#event-3120)          | 0x076F       |     75 |             26 |
| [65535.72](#event-6553572)   | 0x07BA       |     15 |              5 |
| [3026](#event-3026)          | 0x07C9       |     13 |              3 |
| [3033](#event-3033)          | 0x07D6       |     13 |              3 |
| [65535.73](#event-6553573)   | 0x07E3       |     50 |              6 |
| [65535.74](#event-6553574)   | 0x0815       |     64 |              6 |
| [65535.75](#event-6553575)   | 0x0855       |     10 |              2 |
| [65535.76](#event-6553576)   | 0x085F       |     25 |              7 |
| [65535.77](#event-6553577)   | 0x0878       |    110 |              9 |
| [5030](#event-5030)          | 0x08E6       |      1 |              1 |
| [5031](#event-5031)          | 0x08E7       |      1 |              1 |
| [5045](#event-5045)          | 0x08E8       |      1 |              1 |
| [5046](#event-5046)          | 0x08E9       |      1 |              1 |
| [5047](#event-5047)          | 0x08EA       |     38 |             12 |
| [65535.78](#event-6553578)   | 0x0910       |     47 |              5 |
| [65535.79](#event-6553579)   | 0x093F       |     10 |              2 |
| [65535.80](#event-6553580)   | 0x0949       |     10 |              2 |
| [65535.81](#event-6553581)   | 0x0953       |     15 |              5 |
| [65535.82](#event-6553582)   | 0x0962       |     10 |              2 |
| [65535.83](#event-6553583)   | 0x096C       |     15 |              5 |
| [65535.84](#event-6553584)   | 0x097B       |     15 |              5 |
| [65535.85](#event-6553585)   | 0x098A       |     15 |              5 |
| [65535.86](#event-6553586)   | 0x0999       |     10 |              2 |
| [65535.87](#event-6553587)   | 0x09A3       |     10 |              2 |
| [65535.88](#event-6553588)   | 0x09AD       |     15 |              5 |
| [65535.89](#event-6553589)   | 0x09BC       |     10 |              2 |
| [65535.90](#event-6553590)   | 0x09C6       |     15 |              5 |
| [65535.91](#event-6553591)   | 0x09D5       |     15 |              5 |
| [65535.92](#event-6553592)   | 0x09E4       |      1 |              1 |
| [65535.93](#event-6553593)   | 0x09E5       |      1 |              1 |
| [65535.94](#event-6553594)   | 0x09E6       |      1 |              1 |
| [65535.95](#event-6553595)   | 0x09E7       |      1 |              1 |
| [65535.96](#event-6553596)   | 0x09E8       |      1 |              1 |
| [65535.97](#event-6553597)   | 0x09E9       |      1 |              1 |
| [65535.98](#event-6553598)   | 0x09EA       |      1 |              1 |
| [5055](#event-5055)          | 0x09EB       |      1 |              1 |
| [5057](#event-5057)          | 0x09EC       |      1 |              1 |
| [65535.99](#event-6553599)   | 0x09ED       |     31 |              9 |
| [3091](#event-3091)          | 0x0A0C       |     26 |             10 |
| [3094](#event-3094)          | 0x0A26       |     26 |             10 |
| [3096](#event-3096)          | 0x0A40       |     26 |             10 |
| [3098](#event-3098)          | 0x0A5A       |     96 |             29 |
| [5059](#event-5059)          | 0x0ABA       |    168 |             40 |
| [5060](#event-5060)          | 0x0B62       |      1 |              1 |
| [5062](#event-5062)          | 0x0B63       |      1 |              1 |
| [5067](#event-5067)          | 0x0B64       |      1 |              1 |
| [5068](#event-5068)          | 0x0B65       |      1 |              1 |
| [5063](#event-5063)          | 0x0B66       |      1 |              1 |
| [5061](#event-5061)          | 0x0B67       |      1 |              1 |
| [65535.100](#event-65535100) | 0x0B68       |     34 |              8 |
| [65535.101](#event-65535101) | 0x0B8A       |     10 |              2 |
| [65535.102](#event-65535102) | 0x0B94       |     20 |              6 |
| [5064](#event-5064)          | 0x0BA8       |      1 |              1 |
| [5069](#event-5069)          | 0x0BA9       |      1 |              1 |
| [65535.103](#event-65535103) | 0x0BAA       |     15 |              5 |
| [3132](#event-3132)          | 0x0BB9       |     88 |             24 |
| [5071](#event-5071)          | 0x0C11       |      1 |              1 |
| [5073](#event-5073)          | 0x0C12       |      1 |              1 |
| [5075](#event-5075)          | 0x0C13       |      1 |              1 |
| [5076](#event-5076)          | 0x0C14       |      1 |              1 |
| [5077](#event-5077)          | 0x0C15       |      1 |              1 |
| [5078](#event-5078)          | 0x0C16       |      1 |              1 |
| [5080](#event-5080)          | 0x0C17       |      1 |              1 |
| [5083](#event-5083)          | 0x0C18       |      1 |              1 |
| [5084](#event-5084)          | 0x0C19       |      1 |              1 |
| [5085](#event-5085)          | 0x0C1A       |      1 |              1 |
| [5086](#event-5086)          | 0x0C1B       |      1 |              1 |
| [3133](#event-3133)          | 0x0C1C       |     68 |             20 |
| [3134](#event-3134)          | 0x0C60       |     53 |             17 |
| [3138](#event-3138)          | 0x0C95       |      1 |              1 |
| [3139](#event-3139)          | 0x0C96       |      7 |              2 |
| [65535.104](#event-65535104) | 0x0C9D       |     22 |              6 |
| [65535.105](#event-65535105) | 0x0CB3       |     14 |              4 |
| [65535.106](#event-65535106) | 0x0CC1       |     14 |              4 |
| [3140](#event-3140)          | 0x0CCF       |      7 |              2 |
| [3144](#event-3144)          | 0x0CD6       |      1 |              1 |
| [3148](#event-3148)          | 0x0CD7       |     81 |             26 |
| [3149](#event-3149)          | 0x0D28       |     17 |              9 |
| [3150](#event-3150)          | 0x0D39       |     13 |              7 |
| [3151](#event-3151)          | 0x0D46       |     57 |             21 |
| [65535.107](#event-65535107) | 0x0D7F       |     15 |              5 |
| [65535.108](#event-65535108) | 0x0D8E       |     25 |              7 |
| [65535.109](#event-65535109) | 0x0DA7       |     29 |              7 |
| [3156](#event-3156)          | 0x0DC4       |     38 |             16 |
| [3200](#event-3200)          | 0x0DEA       |      1 |              1 |
| [3202](#event-3202)          | 0x0DEB       |      1 |              1 |
| [65535.110](#event-65535110) | 0x0DEC       |     31 |              7 |
| [65535.111](#event-65535111) | 0x0E0B       |     14 |              4 |
| [3203](#event-3203)          | 0x0E19       |      1 |              1 |
| [3204](#event-3204)          | 0x0E1A       |      1 |              1 |
| [3205](#event-3205)          | 0x0E1B       |     26 |             10 |
| [3207](#event-3207)          | 0x0E35       |      1 |              1 |
| [3217](#event-3217)          | 0x0E36       |      1 |              1 |
| [925](#event-925)            | 0x0E37       |      1 |              1 |
| [929](#event-929)            | 0x0E38       |      1 |              1 |
| [930](#event-930)            | 0x0E39       |      1 |              1 |
| [932](#event-932)            | 0x0E3A       |      1 |              1 |
| [936](#event-936)            | 0x0E3B       |      1 |              1 |
| [942](#event-942)            | 0x0E3C       |      1 |              1 |
| [65535.112](#event-65535112) | 0x0E3D       |     31 |              7 |
| [173](#event-173)            | 0x0E5C       |      1 |              1 |
| [174](#event-174)            | 0x0E5D       |      1 |              1 |
| [175](#event-175)            | 0x0E5E       |      1 |              1 |

## DAT References (imed_data)

|   Index | Hex Value   |   Dec Value |
|---------|-------------|-------------|
|       0 | 0x0000      |           0 |
|       1 | 0x1BB7      |        7095 |
|       2 | 0x1BB8      |        7096 |
|       3 | 0x0001      |           1 |
|       4 | 0x1BB9      |        7097 |
|       5 | 0x1BDD      |        7133 |
|       6 | 0x1BDE      |        7134 |
|       7 | 0x1BDF      |        7135 |
|       8 | 0x1BE0      |        7136 |
|       9 | 0x1C3C      |        7228 |
|      10 | 0x1C3E      |        7230 |
|      11 | 0x0002      |           2 |
|      12 | 0x1D92      |        7570 |
|      13 | 0x1D93      |        7571 |
|      14 | 0x0873      |        2163 |
|      15 | 0x292A      |       10538 |
|      16 | 0x292B      |       10539 |
|      17 | 0x1DD6      |        7638 |
|      18 | 0x1DD7      |        7639 |
|      19 | 0x1DD8      |        7640 |
|      20 | 0x1DD9      |        7641 |
|      21 | 0x1DDA      |        7642 |
|      22 | 0x1E4D      |        7757 |
|      23 | 0x1E4E      |        7758 |
|      24 | 0x1EB9      |        7865 |
|      25 | 0x1EBA      |        7866 |
|      26 | 0x1EBB      |        7867 |
|      27 | 0x1EF5      |        7925 |
|      28 | 0x1EF3      |        7923 |
|      29 | 0x1EF6      |        7926 |
|      30 | 0x1F3E      |        7998 |
|      31 | 0x1F4A      |        8010 |
|      32 | 0x1F47      |        8007 |
|      33 | 0x1F4B      |        8011 |
|      34 | 0x1F4C      |        8012 |
|      35 | 0x1F4E      |        8014 |
|      36 | 0x1F4F      |        8015 |
|      37 | 0x3EC6      |       16070 |
|      38 | 0x1FEC      |        8172 |
|      39 | 0x1FEE      |        8174 |
|      40 | 0x0341      |         833 |
|      41 | 0x0342      |         834 |
|      42 | 0x0343      |         835 |
|      43 | 0x0344      |         836 |
|      44 | 0x0356      |         854 |
|      45 | 0x0363      |         867 |
|      46 | 0x000B      |          11 |
|      47 | 0x57AB      |       22443 |
|      48 | 0xFFFF57AE  |  4294924206 |
|      49 | 0xFFFFE188  |  4294959496 |
|      50 | 0x5D75      |       23925 |
|      51 | 0xFFFF5745  |  4294924101 |
|      52 | 0x58AC      |       22700 |
|      53 | 0xFFFF4DE9  |  4294921705 |
|      54 | 0xFFFFE184  |  4294959492 |
|      55 | 0x0043      |          67 |
|      56 | 0x6822      |       26658 |
|      57 | 0xFFFF5722  |  4294924066 |
|      58 | 0x6397      |       25495 |
|      59 | 0xFFFF5430  |  4294923312 |
|      60 | 0x0C10      |        3088 |
|      61 | 0x0096      |         150 |
|      62 | 0x2423      |        9251 |
|      63 | 0x2424      |        9252 |
|      64 | 0x2425      |        9253 |
|      65 | 0x2426      |        9254 |
|      66 | 0x2427      |        9255 |
|      67 | 0x2428      |        9256 |
|      68 | 0x2429      |        9257 |
|      69 | 0x242A      |        9258 |
|      70 | 0x242B      |        9259 |
|      71 | 0x242C      |        9260 |
|      72 | 0x242D      |        9261 |
|      73 | 0x242E      |        9262 |
|      74 | 0x242F      |        9263 |
|      75 | 0x2430      |        9264 |
|      76 | 0x2431      |        9265 |
|      77 | 0x2432      |        9266 |
|      78 | 0x2433      |        9267 |
|      79 | 0x000A      |          10 |
|      80 | 0x58A0      |       22688 |
|      81 | 0xFFFF5C32  |  4294925362 |
|      82 | 0x0014      |          20 |
|      83 | 0x001E      |          30 |
|      84 | 0x0110      |         272 |
|      85 | 0x610D      |       24845 |
|      86 | 0xFFFF5537  |  4294923575 |
|      87 | 0x585A      |       22618 |
|      88 | 0xFFFF5525  |  4294923557 |
|      89 | 0x0102      |         258 |
|      90 | 0x2B0A      |       11018 |
|      91 | 0x2B0B      |       11019 |
|      92 | 0x0338      |         824 |
|      93 | 0x2B0C      |       11020 |
|      94 | 0x6F79      |       28537 |
|      95 | 0xFFFF497E  |  4294920574 |
|      96 | 0x08D2      |        2258 |
|      97 | 0x88A7      |       34983 |
|      98 | 0xFFFF5863  |  4294924387 |
|      99 | 0xFFFFE3E1  |  4294960097 |
|     100 | 0x0400      |        1024 |
|     101 | 0x88B3      |       34995 |
|     102 | 0xFFFF55AC  |  4294923692 |
|     103 | 0xFFFFE3DD  |  4294960093 |
|     104 | 0x22D88     |      142728 |
|     105 | 0x005E      |          94 |
|     106 | 0xFFFFF830  |  4294965296 |
|     107 | 0x000D      |          13 |
|     108 | 0x000C      |          12 |
|     109 | 0x23BED     |      146413 |
|     110 | 0x240EF     |      147695 |
|     111 | 0xFFFFFFB3  |  4294967219 |
|     112 | 0x24EE3     |      151267 |
|     113 | 0xFFFFFFF4  |  4294967284 |
|     114 | 0xFFFFF769  |  4294965097 |
|     115 | 0xFFFFFCE8  |  4294966504 |
|     116 | 0xB4C2      |       46274 |
|     117 | 0x0C00      |        3072 |
|     118 | 0x24193     |      147859 |
|     119 | 0xFFFFFF8D  |  4294967181 |
|     120 | 0x0809      |        2057 |
|     121 | 0x23782     |      145282 |
|     122 | 0x00B2      |         178 |
|     123 | 0x22740     |      141120 |
|     124 | 0xFFFFFC3F  |  4294966335 |
|     125 | 0x070F      |        1807 |
|     126 | 0x20C04     |      134148 |
|     127 | 0xFFFFF691  |  4294964881 |
|     128 | 0xFFFFF9E7  |  4294965735 |
|     129 | 0x58B8      |       22712 |
|     130 | 0xFFFF45FE  |  4294919678 |
|     131 | 0x60B2      |       24754 |
|     132 | 0xFFFF466A  |  4294919786 |
|     133 | 0x20AC      |        8364 |
|     134 | 0x232B      |        9003 |
|     135 | 0x2334      |        9012 |
|     136 | 0x2335      |        9013 |
|     137 | 0x233E      |        9022 |
|     138 | 0x233F      |        9023 |
|     139 | 0x2344      |        9028 |
|     140 | 0x2345      |        9029 |
|     141 | 0x2346      |        9030 |
|     142 | 0x2347      |        9031 |
|     143 | 0x15C5      |        5573 |
|     144 | 0x25BB      |        9659 |
|     145 | 0x15CA      |        5578 |
|     146 | 0x25BC      |        9660 |
|     147 | 0x25BD      |        9661 |
|     148 | 0x25BE      |        9662 |
|     149 | 0x25BF      |        9663 |
|     150 | 0x25C0      |        9664 |
|     151 | 0x25C1      |        9665 |
|     152 | 0x1056      |        4182 |
|     153 | 0x25C2      |        9666 |
|     154 | 0x003C      |          60 |
|     155 | 0x25C3      |        9667 |
|     156 | 0x8D3A      |       36154 |
|     157 | 0xFFFF2603  |  4294911491 |
|     158 | 0xFFFFE633  |  4294960691 |
|     159 | 0x8E78      |       36472 |
|     160 | 0xFFFF4D65  |  4294921573 |
|     161 | 0x6396      |       25494 |
|     162 | 0xFFFF4D32  |  4294921522 |
|     163 | 0x07DF      |        2015 |
|     164 | 0x6F20      |       28448 |
|     165 | 0xFFFF4D6D  |  4294921581 |
|     166 | 0x4F22      |       20258 |
|     167 | 0xFFFF073E  |  4294903614 |
|     168 | 0xFFFFE891  |  4294961297 |
|     169 | 0x2475      |        9333 |
|     170 | 0x2476      |        9334 |
|     171 | 0x2477      |        9335 |
|     172 | 0x2478      |        9336 |
|     173 | 0x2479      |        9337 |
|     174 | 0x247A      |        9338 |
|     175 | 0x247B      |        9339 |
|     176 | 0x2516      |        9494 |
|     177 | 0x088B      |        2187 |
|     178 | 0x07D0      |        2000 |
|     179 | 0x2517      |        9495 |
|     180 | 0x2518      |        9496 |
|     181 | 0x2519      |        9497 |
|     182 | 0x251A      |        9498 |
|     183 | 0x251B      |        9499 |
|     184 | 0x037D      |         893 |
|     185 | 0x251C      |        9500 |
|     186 | 0x251D      |        9501 |
|     187 | 0x251E      |        9502 |
|     188 | 0x251F      |        9503 |
|     189 | 0x2520      |        9504 |
|     190 | 0x031E      |         798 |
|     191 | 0xFFFFF40D  |  4294964237 |
|     192 | 0x03C3      |         963 |
|     193 | 0x15F4      |        5620 |
|     194 | 0x026C      |         620 |
|     195 | 0xB724      |       46884 |
|     196 | 0x2547      |        9543 |
|     197 | 0x2548      |        9544 |
|     198 | 0x254C      |        9548 |
|     199 | 0x2549      |        9545 |
|     200 | 0x254A      |        9546 |
|     201 | 0x254B      |        9547 |
|     202 | 0x26AD      |        9901 |
|     203 | 0x26AE      |        9902 |
|     204 | 0x26D4      |        9940 |
|     205 | 0x27D9      |       10201 |
|     206 | 0x27DA      |       10202 |
|     207 | 0x27DB      |       10203 |
|     208 | 0x27DC      |       10204 |
|     209 | 0x69E5      |       27109 |
|     210 | 0xFFFF4D89  |  4294921609 |
|     211 | 0x6248      |       25160 |
|     212 | 0xFFFF4613  |  4294919699 |
|     213 | 0x5C7A      |       23674 |
|     214 | 0xFFFF4619  |  4294919705 |
|     215 | 0xFFFF486E  |  4294920302 |
|     216 | 0x09B8      |        2488 |
|     217 | 0x0383      |         899 |
|     218 | 0x26B1      |        9905 |
|     219 | 0x26B2      |        9906 |
|     220 | 0x26B3      |        9907 |
|     221 | 0x26B4      |        9908 |
|     222 | 0x6808      |       26632 |
|     223 | 0xFFFF4756  |  4294920022 |
|     224 | 0x7ACF      |       31439 |
|     225 | 0xFFFF46CF  |  4294919887 |
|     226 | 0x38C8      |       14536 |
|     227 | 0x38C9      |       14537 |
|     228 | 0x5887      |       22663 |
|     229 | 0xFFFF4432  |  4294919218 |
|     230 | 0x60B7      |       24759 |
|     231 | 0xFFFF4532  |  4294919474 |

## String References

- **7095**: Remember, take it to the Ilrusi Atoll, Dvucca Isle, Halvung, the domain of the Mamool Ja, or Azouph Isle. I don't give a damn who you decide on, as long as it's a member of the Immortals.
- **7096**: Get out there now and show me what ya can do!
- **7097**: Ya think you can be a good mercenary if ya can't even rrrun a simple errand? Get outta here!
- **7133**: Hoho, the [/Private Second Class/Private First Class/Superior Private/Lance Corporal/Corporal/Sergeant/Sergeant Major/Chief Sergeant/Second Lieutenant/First Lieutenant/Captain] is back. Just who d'ya think you are, waitin' around for the world to come to you?
- **7134**: We've got no place for sluggards here. Get your head outta the clouds and get to work!
- **7135**: Good [boy/girl]. Keep gettin' those jobs done.
- **7136**: Salaheem's Sentinels are known for quality, precision, and speed. So get out there and prrrove your worth!
- **7228**: <Player>, if I were you, I'd curse the luck that brought you here!
- **7230**: Go, and don't let that clot out of your sight!
- **7570**: I'm glad ya decided to walk in my door. It's okay, you can tear up a little.
- **7571**: Take that feelin' and burn it deep into your heart.
- **7757**: I don't like bein' manipulated, even if it is by the Empress herself.
- **7758**: Time to remind the Empire that the wildcat has claws...
- **7865**: A lot of people have been seein' that ship in the waters around the Arrapago Islands. Ya might wanna try interrogatin' the Nashmau locals first and see what ya can find out.
- **7866**: Go after that ghost ship and don't come back till ya learn somethin' useful!
- **7867**: With the rrreward I'm expectin' from the Empress, this company'll be rollin' in cash for the next ten years.
- **7923**: Why don't ya go check out Dvucca Isle yourself, and take that coin with you.
- **7925**: And if ya come back with any more half-baked ghost stories, I'll take this morningstar and show you just how "affectionate" I can be!
- **7926**: He said somethin' about feelin' an "ominous presence" to the west of Dvucca Isle...
- **7998**: When you're rrready to go to the palace, come and show me your wardrobe. I'll see if ya pass muster.
- **8007**: Oh, and rrremember that weapons are forbidden within the palace grounds.
- **8010**: Choose your words carefully when you're speakin' with the Empress.
- **8011**: At least ya know how to drrress. Ya shouldn't have a prrroblem in that department.
- **8012**: Okay, then. I'll meet ya by the Imperial Whitegate.
- **8014**: What happened to the outfit you were wearing before!?
- **8015**: We can't have ya turnin' up to the palace in that...
- **8172**: When you've managed to become the best mercenary ya can be, I'll be rrready to hand over the $0 to ya.
- **8174**: Of course, if ya start slackin' off, I might change my mind and just sell it at the auction house.
- **9265**: I hope you're keepin' an eye out, <Player>.
- **9266**: The pride of Salaheem's Sentinels depends on us claimin' the bounty on Duzaf the Blackbelly.
- **9267**: This is one of those once-in-a-lifetime, make-or-brrreak opportunities!
- **9334**: Somethin' ya wanted to ask about? [The cutter./The fare.]
- **9502**: Naja Salaheem stares piercingly at <Player>...
- **9543**: Ah, just the mercenary I wanted to see. Tell me, have ya been to Nyzul Isle at all?
- **9544**: Been to Nyzul Isle? [I just got back from there!/Not recently, no.]
- **9545**: Is that rrright!? I should've expected nothing less from ya, [entry-level employee/Private Second Class/Private First Class/Superior Private/Lance Corporal/Corporal/Sergeant/Sergeant Major/Chief Sergeant/Second Lieutenant/First Lieutenant/Captain] <Player>. So, what's it like in there?
- **9546**: What's it like? [Full of nasty monsters./Not as tough as you'd think.]
- **9547**: Hmmm... Well...I heard that there was a lot of trrreasure to be found. Got my whiskers to twitchin', is all.
- **9548**: No? Well...I heard that there was a lot of trrreasure to be found. Got my whiskers to twitchin', is all. Carry on, soldier.
- **9666**: Naja Salaheem hands you $0!
- **9901**: Ya leave that luscious Luzaf to me! Ya just concentrrrate on protectin' the Empress.
- **9902**: Don't go losin' your mercenary mettle!
- **9905**: Ya did what!? Ya lost the $3 entrrrusted to ya by Her Magnificence!
- **9906**: I've got no time to lecture ya rrright now...
- **9907**: Naja Salaheem hands you another $3!
- **9908**: Just be sure ya take better care of Empress Nashmeira!
- **9940**: You better get prrreparin' for your visit to the palace! If ya show up late to the ceremony, I'll have your hide for a thrrrow rug!
- **10201**: [/Private Second Class/Private First Class/Superior Private/Lance Corporal/Corporal/Sergeant/Sergeant Major/Chief Sergeant/Second Lieutenant/First Lieutenant/Captain] <Player>. Ya look surprrrisingly free of worries, considerin'...
- **10202**: ...the immense debt you owe to Salaheem's Sentinels! Why aren't ya out there makin' fistfuls of money!?
- **10203**: Quality. Precision. Speed. That's our motto.
- **10204**: Keep ya nose to the grrrindstone, <Player>! You've still got a hell of a large debt to pay off!

## Events

### Event 65535

#### Metadata

| Field        | Value   |
|--------------|---------|
| Entrypoint   | 0x0000  |
| Data Size    | 1 bytes |
| Instructions | 1       |

```
      00 01 02 03 04 05 06 07  08 09 0A 0B 0C 0D 0E 0F
      -- -- -- -- -- -- -- --  -- -- -- -- -- -- -- --
0000: 00                                                .               
```

#### Opcodes

```
  0: 0x0000 [0x00] END_REQSTACK()
```

### Event 65535.1

#### Metadata

| Field        | Value   |
|--------------|---------|
| Entrypoint   | 0x0001  |
| Data Size    | 1 bytes |
| Instructions | 1       |

```
      00 01 02 03 04 05 06 07  08 09 0A 0B 0C 0D 0E 0F
      -- -- -- -- -- -- -- --  -- -- -- -- -- -- -- --
0000:    00                                              .              
```

#### Opcodes

```
  0: 0x0001 [0x00] END_REQSTACK()
```

### Event 3000

#### Metadata

| Field        | Value   |
|--------------|---------|
| Entrypoint   | 0x0002  |
| Data Size    | 1 bytes |
| Instructions | 1       |

```
      00 01 02 03 04 05 06 07  08 09 0A 0B 0C 0D 0E 0F
      -- -- -- -- -- -- -- --  -- -- -- -- -- -- -- --
0000:       00                                            .             
```

#### Opcodes

```
  0: 0x0002 [0x00] END_REQSTACK()
```

### Event 3001

#### Metadata

| Field        | Value    |
|--------------|----------|
| Entrypoint   | 0x0003   |
| Data Size    | 48 bytes |
| Instructions | 16       |

```
      00 01 02 03 04 05 06 07  08 09 0A 0B 0C 0D 0E 0F
      -- -- -- -- -- -- -- --  -- -- -- -- -- -- -- --
0000:          03 00 00 09 10  1E F0 FF FF 7F 6F 70 02     ..........op.
0010: 00 00 00 80 80 22 00 1D  01 80 23 1D 02 80 23 01  ....."....#...#.
0020: 31 00 02 00 00 03 80 80  31 00 1D 04 80 23 01 31  1.......1....#.1
0030: 00 21 00                                          .!.             
```

#### Opcodes

```
  0: 0x0003 [0x03] ExtData[1]->WorkLocal[0] = Work_Zone[9]
  1: 0x0008 [0x1E] EventEntity looks at LocalPlayer and starts talking
  2: 0x000D [0x6F] WAIT_FRAME_DELAY: Yield until WaitTime reaches zero
  3: 0x000E [0x70] WAIT_ENTITY_RENDER_FLAG: Wait while EventEntity->Render.Flags3 bit 2 is set (cancel turn if not)
  4: 0x000F [0x02] IF !(ExtData[1]->WorkLocal[0] == 0*) GOTO 0x0022
  5: 0x0017 [0x1D] PRINT_EVENT_MESSAGE(message_id=7095*)
    → "Remember, take it to the Ilrusi Atoll, Dvucca Isle, Halvung, the domain of the Mamool Ja, or Azouph Isle. I don't give a damn who you decide on, as long as it's a member of the Immortals."
  6: 0x001A [0x23] WAIT_FOR_DIALOG_INTERACTION
  7: 0x001B [0x1D] PRINT_EVENT_MESSAGE(message_id=7096*)
    → "Get out there now and show me what ya can do!"
  8: 0x001E [0x23] WAIT_FOR_DIALOG_INTERACTION
  9: 0x001F [0x01] GOTO 0x0031
 10: 0x0022 [0x02] IF !(ExtData[1]->WorkLocal[0] == 1*) GOTO 0x0031
 11: 0x002A [0x1D] PRINT_EVENT_MESSAGE(message_id=7097*)
    → "Ya think you can be a good mercenary if ya can't even rrrun a simple errand? Get outta here!"
 12: 0x002D [0x23] WAIT_FOR_DIALOG_INTERACTION
 13: 0x002E [0x01] GOTO 0x0031

SUBROUTINE_0031:
 14: 0x0031 [0x21] END_EVENT
 15: 0x0032 [0x00] END_REQSTACK()
```

### Event 3002

#### Metadata

| Field        | Value   |
|--------------|---------|
| Entrypoint   | 0x0033  |
| Data Size    | 1 bytes |
| Instructions | 1       |

```
      00 01 02 03 04 05 06 07  08 09 0A 0B 0C 0D 0E 0F
      -- -- -- -- -- -- -- --  -- -- -- -- -- -- -- --
0030:          00                                          .            
```

#### Opcodes

```
  0: 0x0033 [0x00] END_REQSTACK()
```

### Event 3003

#### Metadata

| Field        | Value    |
|--------------|----------|
| Entrypoint   | 0x0034   |
| Data Size    | 52 bytes |
| Instructions | 18       |

```
      00 01 02 03 04 05 06 07  08 09 0A 0B 0C 0D 0E 0F
      -- -- -- -- -- -- -- --  -- -- -- -- -- -- -- --
0030:             03 00 00 09  10 1E F0 FF FF 7F 6F 70      ..........op
0040: 02 00 00 00 80 80 53 00  1D 05 80 23 1D 06 80 23  ......S....#...#
0050: 01 66 00 02 00 00 03 80  80 66 00 1D 07 80 23 1D  .f.......f....#.
0060: 08 80 23 01 66 00 21 00                           ..#.f.!.        
```

#### Opcodes

```
  0: 0x0034 [0x03] ExtData[1]->WorkLocal[0] = Work_Zone[9]
  1: 0x0039 [0x1E] EventEntity looks at LocalPlayer and starts talking
  2: 0x003E [0x6F] WAIT_FRAME_DELAY: Yield until WaitTime reaches zero
  3: 0x003F [0x70] WAIT_ENTITY_RENDER_FLAG: Wait while EventEntity->Render.Flags3 bit 2 is set (cancel turn if not)
  4: 0x0040 [0x02] IF !(ExtData[1]->WorkLocal[0] == 0*) GOTO 0x0053
  5: 0x0048 [0x1D] PRINT_EVENT_MESSAGE(message_id=7133*)
    → "Hoho, the [/Private Second Class/Private First Class/Superior Private/Lance Corporal/Corporal/Sergeant/Sergeant Major/Chief Sergeant/Second Lieutenant/First Lieutenant/Captain] is back. Just who d'ya think you are, waitin' around for the world to come to you?"
  6: 0x004B [0x23] WAIT_FOR_DIALOG_INTERACTION
  7: 0x004C [0x1D] PRINT_EVENT_MESSAGE(message_id=7134*)
    → "We've got no place for sluggards here. Get your head outta the clouds and get to work!"
  8: 0x004F [0x23] WAIT_FOR_DIALOG_INTERACTION
  9: 0x0050 [0x01] GOTO 0x0066
 10: 0x0053 [0x02] IF !(ExtData[1]->WorkLocal[0] == 1*) GOTO 0x0066
 11: 0x005B [0x1D] PRINT_EVENT_MESSAGE(message_id=7135*)
    → "Good [boy/girl]. Keep gettin' those jobs done."
 12: 0x005E [0x23] WAIT_FOR_DIALOG_INTERACTION
 13: 0x005F [0x1D] PRINT_EVENT_MESSAGE(message_id=7136*)
    → "Salaheem's Sentinels are known for quality, precision, and speed. So get out there and prrrove your worth!"
 14: 0x0062 [0x23] WAIT_FOR_DIALOG_INTERACTION
 15: 0x0063 [0x01] GOTO 0x0066

SUBROUTINE_0066:
 16: 0x0066 [0x21] END_EVENT
 17: 0x0067 [0x00] END_REQSTACK()
```

### Event 73

#### Metadata

| Field        | Value   |
|--------------|---------|
| Entrypoint   | 0x0068  |
| Data Size    | 1 bytes |
| Instructions | 1       |

```
      00 01 02 03 04 05 06 07  08 09 0A 0B 0C 0D 0E 0F
      -- -- -- -- -- -- -- --  -- -- -- -- -- -- -- --
0060:                          00                               .       
```

#### Opcodes

```
  0: 0x0068 [0x00] END_REQSTACK()
```

### Event 3020

#### Metadata

| Field        | Value   |
|--------------|---------|
| Entrypoint   | 0x0069  |
| Data Size    | 1 bytes |
| Instructions | 1       |

```
      00 01 02 03 04 05 06 07  08 09 0A 0B 0C 0D 0E 0F
      -- -- -- -- -- -- -- --  -- -- -- -- -- -- -- --
0060:                             00                             .      
```

#### Opcodes

```
  0: 0x0069 [0x00] END_REQSTACK()
```

### Event 3030

#### Metadata

| Field        | Value   |
|--------------|---------|
| Entrypoint   | 0x006A  |
| Data Size    | 1 bytes |
| Instructions | 1       |

```
      00 01 02 03 04 05 06 07  08 09 0A 0B 0C 0D 0E 0F
      -- -- -- -- -- -- -- --  -- -- -- -- -- -- -- --
0060:                                00                           .     
```

#### Opcodes

```
  0: 0x006A [0x00] END_REQSTACK()
```

### Event 3021

#### Metadata

| Field        | Value    |
|--------------|----------|
| Entrypoint   | 0x006B   |
| Data Size    | 17 bytes |
| Instructions | 9        |

```
      00 01 02 03 04 05 06 07  08 09 0A 0B 0C 0D 0E 0F
      -- -- -- -- -- -- -- --  -- -- -- -- -- -- -- --
0060:                                   1E F0 FF FF 7F             .....
0070: 6F 70 1D 09 80 23 1D 0A  80 23 21 00              op...#...#!.    
```

#### Opcodes

```
  0: 0x006B [0x1E] EventEntity looks at LocalPlayer and starts talking
  1: 0x0070 [0x6F] WAIT_FRAME_DELAY: Yield until WaitTime reaches zero
  2: 0x0071 [0x70] WAIT_ENTITY_RENDER_FLAG: Wait while EventEntity->Render.Flags3 bit 2 is set (cancel turn if not)
  3: 0x0072 [0x1D] PRINT_EVENT_MESSAGE(message_id=7228*)
    → "<Player>, if I were you, I'd curse the luck that brought you here!"
  4: 0x0075 [0x23] WAIT_FOR_DIALOG_INTERACTION
  5: 0x0076 [0x1D] PRINT_EVENT_MESSAGE(message_id=7230*)
    → "Go, and don't let that clot out of your sight!"
  6: 0x0079 [0x23] WAIT_FOR_DIALOG_INTERACTION
  7: 0x007A [0x21] END_EVENT
  8: 0x007B [0x00] END_REQSTACK()
```

### Event 3028

#### Metadata

| Field        | Value   |
|--------------|---------|
| Entrypoint   | 0x007C  |
| Data Size    | 1 bytes |
| Instructions | 1       |

```
      00 01 02 03 04 05 06 07  08 09 0A 0B 0C 0D 0E 0F
      -- -- -- -- -- -- -- --  -- -- -- -- -- -- -- --
0070:                                      00                       .   
```

#### Opcodes

```
  0: 0x007C [0x00] END_REQSTACK()
```

### Event 3029

#### Metadata

| Field        | Value    |
|--------------|----------|
| Entrypoint   | 0x007D   |
| Data Size    | 71 bytes |
| Instructions | 24       |

```
      00 01 02 03 04 05 06 07  08 09 0A 0B 0C 0D 0E 0F
      -- -- -- -- -- -- -- --  -- -- -- -- -- -- -- --
0070:                                         03 00 00               ...
0080: 09 10 1E F0 FF FF 7F 6F  70 02 00 00 00 80 80 9C  .......op.......
0090: 00 1D 05 80 23 1D 06 80  23 01 C2 00 02 00 00 03  ....#...#.......
00A0: 80 80 AF 00 1D 07 80 23  1D 08 80 23 01 C2 00 02  .......#...#....
00B0: 00 00 0B 80 80 C2 00 1D  0C 80 23 1D 0D 80 23 01  ..........#...#.
00C0: C2 00 21 00                                       ..!.            
```

#### Opcodes

```
  0: 0x007D [0x03] ExtData[1]->WorkLocal[0] = Work_Zone[9]
  1: 0x0082 [0x1E] EventEntity looks at LocalPlayer and starts talking
  2: 0x0087 [0x6F] WAIT_FRAME_DELAY: Yield until WaitTime reaches zero
  3: 0x0088 [0x70] WAIT_ENTITY_RENDER_FLAG: Wait while EventEntity->Render.Flags3 bit 2 is set (cancel turn if not)
  4: 0x0089 [0x02] IF !(ExtData[1]->WorkLocal[0] == 0*) GOTO 0x009C
  5: 0x0091 [0x1D] PRINT_EVENT_MESSAGE(message_id=7133*)
    → "Hoho, the [/Private Second Class/Private First Class/Superior Private/Lance Corporal/Corporal/Sergeant/Sergeant Major/Chief Sergeant/Second Lieutenant/First Lieutenant/Captain] is back. Just who d'ya think you are, waitin' around for the world to come to you?"
  6: 0x0094 [0x23] WAIT_FOR_DIALOG_INTERACTION
  7: 0x0095 [0x1D] PRINT_EVENT_MESSAGE(message_id=7134*)
    → "We've got no place for sluggards here. Get your head outta the clouds and get to work!"
  8: 0x0098 [0x23] WAIT_FOR_DIALOG_INTERACTION
  9: 0x0099 [0x01] GOTO 0x00C2
 10: 0x009C [0x02] IF !(ExtData[1]->WorkLocal[0] == 1*) GOTO 0x00AF
 11: 0x00A4 [0x1D] PRINT_EVENT_MESSAGE(message_id=7135*)
    → "Good [boy/girl]. Keep gettin' those jobs done."
 12: 0x00A7 [0x23] WAIT_FOR_DIALOG_INTERACTION
 13: 0x00A8 [0x1D] PRINT_EVENT_MESSAGE(message_id=7136*)
    → "Salaheem's Sentinels are known for quality, precision, and speed. So get out there and prrrove your worth!"
 14: 0x00AB [0x23] WAIT_FOR_DIALOG_INTERACTION
 15: 0x00AC [0x01] GOTO 0x00C2
 16: 0x00AF [0x02] IF !(ExtData[1]->WorkLocal[0] == 2*) GOTO 0x00C2
 17: 0x00B7 [0x1D] PRINT_EVENT_MESSAGE(message_id=7570*)
    → "I'm glad ya decided to walk in my door. It's okay, you can tear up a little."
 18: 0x00BA [0x23] WAIT_FOR_DIALOG_INTERACTION
 19: 0x00BB [0x1D] PRINT_EVENT_MESSAGE(message_id=7571*)
    → "Take that feelin' and burn it deep into your heart."
 20: 0x00BE [0x23] WAIT_FOR_DIALOG_INTERACTION
 21: 0x00BF [0x01] GOTO 0x00C2

SUBROUTINE_00C2:
 22: 0x00C2 [0x21] END_EVENT
 23: 0x00C3 [0x00] END_REQSTACK()
```

### Event 5000

#### Metadata

| Field        | Value   |
|--------------|---------|
| Entrypoint   | 0x00C4  |
| Data Size    | 1 bytes |
| Instructions | 1       |

```
      00 01 02 03 04 05 06 07  08 09 0A 0B 0C 0D 0E 0F
      -- -- -- -- -- -- -- --  -- -- -- -- -- -- -- --
00C0:             00                                        .           
```

#### Opcodes

```
  0: 0x00C4 [0x00] END_REQSTACK()
```

### Event 5001

#### Metadata

| Field        | Value    |
|--------------|----------|
| Entrypoint   | 0x00C5   |
| Data Size    | 40 bytes |
| Instructions | 12       |

```
      00 01 02 03 04 05 06 07  08 09 0A 0B 0C 0D 0E 0F
      -- -- -- -- -- -- -- --  -- -- -- -- -- -- -- --
00C0:                1E F0 FF  FF 7F 6F 70 03 02 10 0E       .....op....
00D0: 80 03 03 10 0B 80 2B 8C  20 03 01 0F 80 23 03 03  ......+. ....#..
00E0: 10 03 80 2B 8C 20 03 01  10 80 23 21 00           ...+. ....#!.   
```

#### Opcodes

```
  0: 0x00C5 [0x1E] EventEntity looks at LocalPlayer and starts talking
  1: 0x00CA [0x6F] WAIT_FRAME_DELAY: Yield until WaitTime reaches zero
  2: 0x00CB [0x70] WAIT_ENTITY_RENDER_FLAG: Wait while EventEntity->Render.Flags3 bit 2 is set (cancel turn if not)
  3: 0x00CC [0x03] Work_Zone[2] = 2163*
  4: 0x00D1 [0x03] Work_Zone[3] = 2*
  5: 0x00D6 [0x2B] Naja Salaheem (ID: 16982156/0x0103208C) [10538*]:
    → "I need to have $1 $0 to make my charm against the darkness."
  6: 0x00DD [0x23] WAIT_FOR_DIALOG_INTERACTION
  7: 0x00DE [0x03] Work_Zone[3] = 1*
  8: 0x00E3 [0x2B] Naja Salaheem (ID: 16982156/0x0103208C) [10539*]:
    → "I only need $1 more! Get on it, <Player>!"
  9: 0x00EA [0x23] WAIT_FOR_DIALOG_INTERACTION
 10: 0x00EB [0x21] END_EVENT
 11: 0x00EC [0x00] END_REQSTACK()
```

### Event 5002

#### Metadata

| Field        | Value   |
|--------------|---------|
| Entrypoint   | 0x00ED  |
| Data Size    | 1 bytes |
| Instructions | 1       |

```
      00 01 02 03 04 05 06 07  08 09 0A 0B 0C 0D 0E 0F
      -- -- -- -- -- -- -- --  -- -- -- -- -- -- -- --
00E0:                                         00                     .  
```

#### Opcodes

```
  0: 0x00ED [0x00] END_REQSTACK()
```

### Event 5020

#### Metadata

| Field        | Value   |
|--------------|---------|
| Entrypoint   | 0x00EE  |
| Data Size    | 1 bytes |
| Instructions | 1       |

```
      00 01 02 03 04 05 06 07  08 09 0A 0B 0C 0D 0E 0F
      -- -- -- -- -- -- -- --  -- -- -- -- -- -- -- --
00E0:                                            00                   . 
```

#### Opcodes

```
  0: 0x00EE [0x00] END_REQSTACK()
```

### Event 5021

#### Metadata

| Field        | Value   |
|--------------|---------|
| Entrypoint   | 0x00EF  |
| Data Size    | 1 bytes |
| Instructions | 1       |

```
      00 01 02 03 04 05 06 07  08 09 0A 0B 0C 0D 0E 0F
      -- -- -- -- -- -- -- --  -- -- -- -- -- -- -- --
00E0:                                               00                 .
```

#### Opcodes

```
  0: 0x00EF [0x00] END_REQSTACK()
```

### Event 5022

#### Metadata

| Field        | Value   |
|--------------|---------|
| Entrypoint   | 0x00F0  |
| Data Size    | 1 bytes |
| Instructions | 1       |

```
      00 01 02 03 04 05 06 07  08 09 0A 0B 0C 0D 0E 0F
      -- -- -- -- -- -- -- --  -- -- -- -- -- -- -- --
00F0: 00                                                .               
```

#### Opcodes

```
  0: 0x00F0 [0x00] END_REQSTACK()
```

### Event 74

#### Metadata

| Field        | Value   |
|--------------|---------|
| Entrypoint   | 0x00F1  |
| Data Size    | 1 bytes |
| Instructions | 1       |

```
      00 01 02 03 04 05 06 07  08 09 0A 0B 0C 0D 0E 0F
      -- -- -- -- -- -- -- --  -- -- -- -- -- -- -- --
00F0:    00                                              .              
```

#### Opcodes

```
  0: 0x00F1 [0x00] END_REQSTACK()
```

### Event 75

#### Metadata

| Field        | Value   |
|--------------|---------|
| Entrypoint   | 0x00F2  |
| Data Size    | 1 bytes |
| Instructions | 1       |

```
      00 01 02 03 04 05 06 07  08 09 0A 0B 0C 0D 0E 0F
      -- -- -- -- -- -- -- --  -- -- -- -- -- -- -- --
00F0:       00                                            .             
```

#### Opcodes

```
  0: 0x00F2 [0x00] END_REQSTACK()
```

### Event 3050

#### Metadata

| Field        | Value   |
|--------------|---------|
| Entrypoint   | 0x00F3  |
| Data Size    | 1 bytes |
| Instructions | 1       |

```
      00 01 02 03 04 05 06 07  08 09 0A 0B 0C 0D 0E 0F
      -- -- -- -- -- -- -- --  -- -- -- -- -- -- -- --
00F0:          00                                          .            
```

#### Opcodes

```
  0: 0x00F3 [0x00] END_REQSTACK()
```

### Event 3051

#### Metadata

| Field        | Value    |
|--------------|----------|
| Entrypoint   | 0x00F4   |
| Data Size    | 61 bytes |
| Instructions | 18       |

```
      00 01 02 03 04 05 06 07  08 09 0A 0B 0C 0D 0E 0F
      -- -- -- -- -- -- -- --  -- -- -- -- -- -- -- --
00F0:             42 1E F0 FF  FF 7F 6F 70 02 09 10 00      B.....op....
0100: 80 00 17 01 2B 8C 20 03  01 11 80 23 2B 8C 20 03  ....+. ....#+. .
0110: 01 12 80 23 01 2F 01 2B  8C 20 03 01 13 80 23 2B  ...#./.+. ....#+
0120: 8C 20 03 01 14 80 23 2B  8C 20 03 01 15 80 23 21  . ....#+. ....#!
0130: 00                                                .               
```

#### Opcodes

```
  0: 0x00F4 [0x42] SET_CLI_EVENT_CANCEL_DATA()
  1: 0x00F5 [0x1E] EventEntity looks at LocalPlayer and starts talking
  2: 0x00FA [0x6F] WAIT_FRAME_DELAY: Yield until WaitTime reaches zero
  3: 0x00FB [0x70] WAIT_ENTITY_RENDER_FLAG: Wait while EventEntity->Render.Flags3 bit 2 is set (cancel turn if not)
  4: 0x00FC [0x02] IF !(Work_Zone[9] == 0*) GOTO 0x0117
  5: 0x0104 [0x2B] Naja Salaheem (ID: 16982156/0x0103208C) [7638*]:
    → "You still here? Head to the Alzadaal Undersea Ruins and scout the area."
  6: 0x010B [0x23] WAIT_FOR_DIALOG_INTERACTION
  7: 0x010C [0x2B] Naja Salaheem (ID: 16982156/0x0103208C) [7639*]:
    → "This is a direct rrrequest from the Empress. If you mess this up, someone's head is gonna rrroll!"
  8: 0x0113 [0x23] WAIT_FOR_DIALOG_INTERACTION
  9: 0x0114 [0x01] GOTO 0x012F
 10: 0x0117 [0x2B] Naja Salaheem (ID: 16982156/0x0103208C) [7640*]:
    → "How do ya get to the ruins? Are ya ears filled with cotton?"
 11: 0x011E [0x23] WAIT_FOR_DIALOG_INTERACTION
 12: 0x011F [0x2B] Naja Salaheem (ID: 16982156/0x0103208C) [7641*]:
    → "If ya can't learn to listen the first time, you'll just have to ask one of the Imperial soldiers."
 13: 0x0126 [0x23] WAIT_FOR_DIALOG_INTERACTION
 14: 0x0127 [0x2B] Naja Salaheem (ID: 16982156/0x0103208C) [7642*]:
    → "I'm sure they'll be happy to point ya in the rrright direction."
 15: 0x012E [0x23] WAIT_FOR_DIALOG_INTERACTION

SUBROUTINE_012F:
 16: 0x012F [0x21] END_EVENT
 17: 0x0130 [0x00] END_REQSTACK()
```

### Event 3052

#### Metadata

| Field        | Value   |
|--------------|---------|
| Entrypoint   | 0x0131  |
| Data Size    | 1 bytes |
| Instructions | 1       |

```
      00 01 02 03 04 05 06 07  08 09 0A 0B 0C 0D 0E 0F
      -- -- -- -- -- -- -- --  -- -- -- -- -- -- -- --
0130:    00                                              .              
```

#### Opcodes

```
  0: 0x0131 [0x00] END_REQSTACK()
```

### Event 3053

#### Metadata

| Field        | Value    |
|--------------|----------|
| Entrypoint   | 0x0132   |
| Data Size    | 71 bytes |
| Instructions | 24       |

```
      00 01 02 03 04 05 06 07  08 09 0A 0B 0C 0D 0E 0F
      -- -- -- -- -- -- -- --  -- -- -- -- -- -- -- --
0130:       03 00 00 09 10 1E  F0 FF FF 7F 6F 70 02 00    ..........op..
0140: 00 00 80 80 51 01 1D 05  80 23 1D 06 80 23 01 77  ....Q....#...#.w
0150: 01 02 00 00 03 80 80 64  01 1D 07 80 23 1D 08 80  .......d....#...
0160: 23 01 77 01 02 00 00 0B  80 80 77 01 1D 16 80 23  #.w.......w....#
0170: 1D 17 80 23 01 77 01 21  00                       ...#.w.!.       
```

#### Opcodes

```
  0: 0x0132 [0x03] ExtData[1]->WorkLocal[0] = Work_Zone[9]
  1: 0x0137 [0x1E] EventEntity looks at LocalPlayer and starts talking
  2: 0x013C [0x6F] WAIT_FRAME_DELAY: Yield until WaitTime reaches zero
  3: 0x013D [0x70] WAIT_ENTITY_RENDER_FLAG: Wait while EventEntity->Render.Flags3 bit 2 is set (cancel turn if not)
  4: 0x013E [0x02] IF !(ExtData[1]->WorkLocal[0] == 0*) GOTO 0x0151
  5: 0x0146 [0x1D] PRINT_EVENT_MESSAGE(message_id=7133*)
    → "Hoho, the [/Private Second Class/Private First Class/Superior Private/Lance Corporal/Corporal/Sergeant/Sergeant Major/Chief Sergeant/Second Lieutenant/First Lieutenant/Captain] is back. Just who d'ya think you are, waitin' around for the world to come to you?"
  6: 0x0149 [0x23] WAIT_FOR_DIALOG_INTERACTION
  7: 0x014A [0x1D] PRINT_EVENT_MESSAGE(message_id=7134*)
    → "We've got no place for sluggards here. Get your head outta the clouds and get to work!"
  8: 0x014D [0x23] WAIT_FOR_DIALOG_INTERACTION
  9: 0x014E [0x01] GOTO 0x0177
 10: 0x0151 [0x02] IF !(ExtData[1]->WorkLocal[0] == 1*) GOTO 0x0164
 11: 0x0159 [0x1D] PRINT_EVENT_MESSAGE(message_id=7135*)
    → "Good [boy/girl]. Keep gettin' those jobs done."
 12: 0x015C [0x23] WAIT_FOR_DIALOG_INTERACTION
 13: 0x015D [0x1D] PRINT_EVENT_MESSAGE(message_id=7136*)
    → "Salaheem's Sentinels are known for quality, precision, and speed. So get out there and prrrove your worth!"
 14: 0x0160 [0x23] WAIT_FOR_DIALOG_INTERACTION
 15: 0x0161 [0x01] GOTO 0x0177
 16: 0x0164 [0x02] IF !(ExtData[1]->WorkLocal[0] == 2*) GOTO 0x0177
 17: 0x016C [0x1D] PRINT_EVENT_MESSAGE(message_id=7757*)
    → "I don't like bein' manipulated, even if it is by the Empress herself."
 18: 0x016F [0x23] WAIT_FOR_DIALOG_INTERACTION
 19: 0x0170 [0x1D] PRINT_EVENT_MESSAGE(message_id=7758*)
    → "Time to remind the Empire that the wildcat has claws..."
 20: 0x0173 [0x23] WAIT_FOR_DIALOG_INTERACTION
 21: 0x0174 [0x01] GOTO 0x0177

SUBROUTINE_0177:
 22: 0x0177 [0x21] END_EVENT
 23: 0x0178 [0x00] END_REQSTACK()
```

### Event 3070

#### Metadata

| Field        | Value   |
|--------------|---------|
| Entrypoint   | 0x0179  |
| Data Size    | 1 bytes |
| Instructions | 1       |

```
      00 01 02 03 04 05 06 07  08 09 0A 0B 0C 0D 0E 0F
      -- -- -- -- -- -- -- --  -- -- -- -- -- -- -- --
0170:                             00                             .      
```

#### Opcodes

```
  0: 0x0179 [0x00] END_REQSTACK()
```

### Event 3071

#### Metadata

| Field        | Value    |
|--------------|----------|
| Entrypoint   | 0x017A   |
| Data Size    | 21 bytes |
| Instructions | 11       |

```
      00 01 02 03 04 05 06 07  08 09 0A 0B 0C 0D 0E 0F
      -- -- -- -- -- -- -- --  -- -- -- -- -- -- -- --
0170:                                1E F0 FF FF 7F 6F            .....o
0180: 70 1D 18 80 23 1D 19 80  23 1D 1A 80 23 21 00     p...#...#...#!. 
```

#### Opcodes

```
  0: 0x017A [0x1E] EventEntity looks at LocalPlayer and starts talking
  1: 0x017F [0x6F] WAIT_FRAME_DELAY: Yield until WaitTime reaches zero
  2: 0x0180 [0x70] WAIT_ENTITY_RENDER_FLAG: Wait while EventEntity->Render.Flags3 bit 2 is set (cancel turn if not)
  3: 0x0181 [0x1D] PRINT_EVENT_MESSAGE(message_id=7865*)
    → "A lot of people have been seein' that ship in the waters around the Arrapago Islands. Ya might wanna try interrogatin' the Nashmau locals first and see what ya can find out."
  4: 0x0184 [0x23] WAIT_FOR_DIALOG_INTERACTION
  5: 0x0185 [0x1D] PRINT_EVENT_MESSAGE(message_id=7866*)
    → "Go after that ghost ship and don't come back till ya learn somethin' useful!"
  6: 0x0188 [0x23] WAIT_FOR_DIALOG_INTERACTION
  7: 0x0189 [0x1D] PRINT_EVENT_MESSAGE(message_id=7867*)
    → "With the rrreward I'm expectin' from the Empress, this company'll be rollin' in cash for the next ten years."
  8: 0x018C [0x23] WAIT_FOR_DIALOG_INTERACTION
  9: 0x018D [0x21] END_EVENT
 10: 0x018E [0x00] END_REQSTACK()
```

### Event 3072

#### Metadata

| Field        | Value   |
|--------------|---------|
| Entrypoint   | 0x018F  |
| Data Size    | 1 bytes |
| Instructions | 1       |

```
      00 01 02 03 04 05 06 07  08 09 0A 0B 0C 0D 0E 0F
      -- -- -- -- -- -- -- --  -- -- -- -- -- -- -- --
0180:                                               00                 .
```

#### Opcodes

```
  0: 0x018F [0x00] END_REQSTACK()
```

### Event 3073

#### Metadata

| Field        | Value    |
|--------------|----------|
| Entrypoint   | 0x0190   |
| Data Size    | 21 bytes |
| Instructions | 11       |

```
      00 01 02 03 04 05 06 07  08 09 0A 0B 0C 0D 0E 0F
      -- -- -- -- -- -- -- --  -- -- -- -- -- -- -- --
0190: 1E F0 FF FF 7F 6F 70 1D  1B 80 23 1D 1C 80 23 1D  .....op...#...#.
01A0: 1D 80 23 21 00                                    ..#!.           
```

#### Opcodes

```
  0: 0x0190 [0x1E] EventEntity looks at LocalPlayer and starts talking
  1: 0x0195 [0x6F] WAIT_FRAME_DELAY: Yield until WaitTime reaches zero
  2: 0x0196 [0x70] WAIT_ENTITY_RENDER_FLAG: Wait while EventEntity->Render.Flags3 bit 2 is set (cancel turn if not)
  3: 0x0197 [0x1D] PRINT_EVENT_MESSAGE(message_id=7925*)
    → "And if ya come back with any more half-baked ghost stories, I'll take this morningstar and show you just how "affectionate" I can be!"
  4: 0x019A [0x23] WAIT_FOR_DIALOG_INTERACTION
  5: 0x019B [0x1D] PRINT_EVENT_MESSAGE(message_id=7923*)
    → "Why don't ya go check out Dvucca Isle yourself, and take that coin with you."
  6: 0x019E [0x23] WAIT_FOR_DIALOG_INTERACTION
  7: 0x019F [0x1D] PRINT_EVENT_MESSAGE(message_id=7926*)
    → "He said somethin' about feelin' an "ominous presence" to the west of Dvucca Isle..."
  8: 0x01A2 [0x23] WAIT_FOR_DIALOG_INTERACTION
  9: 0x01A3 [0x21] END_EVENT
 10: 0x01A4 [0x00] END_REQSTACK()
```

### Event 3074

#### Metadata

| Field        | Value   |
|--------------|---------|
| Entrypoint   | 0x01A5  |
| Data Size    | 1 bytes |
| Instructions | 1       |

```
      00 01 02 03 04 05 06 07  08 09 0A 0B 0C 0D 0E 0F
      -- -- -- -- -- -- -- --  -- -- -- -- -- -- -- --
01A0:                00                                      .          
```

#### Opcodes

```
  0: 0x01A5 [0x00] END_REQSTACK()
```

### Event 3076

#### Metadata

| Field        | Value   |
|--------------|---------|
| Entrypoint   | 0x01A6  |
| Data Size    | 1 bytes |
| Instructions | 1       |

```
      00 01 02 03 04 05 06 07  08 09 0A 0B 0C 0D 0E 0F
      -- -- -- -- -- -- -- --  -- -- -- -- -- -- -- --
01A0:                   00                                    .         
```

#### Opcodes

```
  0: 0x01A6 [0x00] END_REQSTACK()
```

### Event 3080

#### Metadata

| Field        | Value    |
|--------------|----------|
| Entrypoint   | 0x01A7   |
| Data Size    | 13 bytes |
| Instructions | 7        |

```
      00 01 02 03 04 05 06 07  08 09 0A 0B 0C 0D 0E 0F
      -- -- -- -- -- -- -- --  -- -- -- -- -- -- -- --
01A0:                      1E  F0 FF FF 7F 6F 70 1D 1E         .....op..
01B0: 80 23 21 00                                       .#!.            
```

#### Opcodes

```
  0: 0x01A7 [0x1E] EventEntity looks at LocalPlayer and starts talking
  1: 0x01AC [0x6F] WAIT_FRAME_DELAY: Yield until WaitTime reaches zero
  2: 0x01AD [0x70] WAIT_ENTITY_RENDER_FLAG: Wait while EventEntity->Render.Flags3 bit 2 is set (cancel turn if not)
  3: 0x01AE [0x1D] PRINT_EVENT_MESSAGE(message_id=7998*)
    → "When you're rrready to go to the palace, come and show me your wardrobe. I'll see if ya pass muster."
  4: 0x01B1 [0x23] WAIT_FOR_DIALOG_INTERACTION
  5: 0x01B2 [0x21] END_EVENT
  6: 0x01B3 [0x00] END_REQSTACK()
```

### Event 3077

#### Metadata

| Field        | Value    |
|--------------|----------|
| Entrypoint   | 0x01B4   |
| Data Size    | 52 bytes |
| Instructions | 23       |

```
      00 01 02 03 04 05 06 07  08 09 0A 0B 0C 0D 0E 0F
      -- -- -- -- -- -- -- --  -- -- -- -- -- -- -- --
01B0:             1E F0 FF FF  7F 6F 70 02 09 10 03 80      .....op.....
01C0: 00 D6 01 1D 1F 80 23 1D  20 80 23 1D 21 80 23 1D  ......#. .#.!.#.
01D0: 22 80 23 01 E6 01 1D 1F  80 23 1D 20 80 23 1D 23  ".#......#. .#.#
01E0: 80 23 1D 24 80 23 21 00                           .#.$.#!.        
```

#### Opcodes

```
  0: 0x01B4 [0x1E] EventEntity looks at LocalPlayer and starts talking
  1: 0x01B9 [0x6F] WAIT_FRAME_DELAY: Yield until WaitTime reaches zero
  2: 0x01BA [0x70] WAIT_ENTITY_RENDER_FLAG: Wait while EventEntity->Render.Flags3 bit 2 is set (cancel turn if not)
  3: 0x01BB [0x02] IF !(Work_Zone[9] == 1*) GOTO 0x01D6
  4: 0x01C3 [0x1D] PRINT_EVENT_MESSAGE(message_id=8010*)
    → "Choose your words carefully when you're speakin' with the Empress."
  5: 0x01C6 [0x23] WAIT_FOR_DIALOG_INTERACTION
  6: 0x01C7 [0x1D] PRINT_EVENT_MESSAGE(message_id=8007*)
    → "Oh, and rrremember that weapons are forbidden within the palace grounds."
  7: 0x01CA [0x23] WAIT_FOR_DIALOG_INTERACTION
  8: 0x01CB [0x1D] PRINT_EVENT_MESSAGE(message_id=8011*)
    → "At least ya know how to drrress. Ya shouldn't have a prrroblem in that department."
  9: 0x01CE [0x23] WAIT_FOR_DIALOG_INTERACTION
 10: 0x01CF [0x1D] PRINT_EVENT_MESSAGE(message_id=8012*)
    → "Okay, then. I'll meet ya by the Imperial Whitegate."
 11: 0x01D2 [0x23] WAIT_FOR_DIALOG_INTERACTION
 12: 0x01D3 [0x01] GOTO 0x01E6
 13: 0x01D6 [0x1D] PRINT_EVENT_MESSAGE(message_id=8010*)
    → "Choose your words carefully when you're speakin' with the Empress."
 14: 0x01D9 [0x23] WAIT_FOR_DIALOG_INTERACTION
 15: 0x01DA [0x1D] PRINT_EVENT_MESSAGE(message_id=8007*)
    → "Oh, and rrremember that weapons are forbidden within the palace grounds."
 16: 0x01DD [0x23] WAIT_FOR_DIALOG_INTERACTION
 17: 0x01DE [0x1D] PRINT_EVENT_MESSAGE(message_id=8014*)
    → "What happened to the outfit you were wearing before!?"
 18: 0x01E1 [0x23] WAIT_FOR_DIALOG_INTERACTION
 19: 0x01E2 [0x1D] PRINT_EVENT_MESSAGE(message_id=8015*)
    → "We can't have ya turnin' up to the palace in that..."
 20: 0x01E5 [0x23] WAIT_FOR_DIALOG_INTERACTION

SUBROUTINE_01E6:
 21: 0x01E6 [0x21] END_EVENT
 22: 0x01E7 [0x00] END_REQSTACK()
```

### Event 3078

#### Metadata

| Field        | Value   |
|--------------|---------|
| Entrypoint   | 0x01E8  |
| Data Size    | 1 bytes |
| Instructions | 1       |

```
      00 01 02 03 04 05 06 07  08 09 0A 0B 0C 0D 0E 0F
      -- -- -- -- -- -- -- --  -- -- -- -- -- -- -- --
01E0:                          00                               .       
```

#### Opcodes

```
  0: 0x01E8 [0x00] END_REQSTACK()
```

### Event 3079

#### Metadata

| Field        | Value    |
|--------------|----------|
| Entrypoint   | 0x01E9   |
| Data Size    | 76 bytes |
| Instructions | 25       |

```
      00 01 02 03 04 05 06 07  08 09 0A 0B 0C 0D 0E 0F
      -- -- -- -- -- -- -- --  -- -- -- -- -- -- -- --
01E0:                             03 00 00 09 10 1E F0           .......
01F0: FF FF 7F 6F 70 02 00 00  00 80 80 08 02 1D 05 80  ...op...........
0200: 23 1D 06 80 23 01 33 02  02 00 00 03 80 80 1B 02  #...#.3.........
0210: 1D 07 80 23 1D 08 80 23  01 33 02 02 00 00 0B 80  ...#...#.3......
0220: 80 33 02 03 02 10 25 80  1D 26 80 23 1D 27 80 23  .3....%..&.#.'.#
0230: 01 33 02 21 00                                    .3.!.           
```

#### Opcodes

```
  0: 0x01E9 [0x03] ExtData[1]->WorkLocal[0] = Work_Zone[9]
  1: 0x01EE [0x1E] EventEntity looks at LocalPlayer and starts talking
  2: 0x01F3 [0x6F] WAIT_FRAME_DELAY: Yield until WaitTime reaches zero
  3: 0x01F4 [0x70] WAIT_ENTITY_RENDER_FLAG: Wait while EventEntity->Render.Flags3 bit 2 is set (cancel turn if not)
  4: 0x01F5 [0x02] IF !(ExtData[1]->WorkLocal[0] == 0*) GOTO 0x0208
  5: 0x01FD [0x1D] PRINT_EVENT_MESSAGE(message_id=7133*)
    → "Hoho, the [/Private Second Class/Private First Class/Superior Private/Lance Corporal/Corporal/Sergeant/Sergeant Major/Chief Sergeant/Second Lieutenant/First Lieutenant/Captain] is back. Just who d'ya think you are, waitin' around for the world to come to you?"
  6: 0x0200 [0x23] WAIT_FOR_DIALOG_INTERACTION
  7: 0x0201 [0x1D] PRINT_EVENT_MESSAGE(message_id=7134*)
    → "We've got no place for sluggards here. Get your head outta the clouds and get to work!"
  8: 0x0204 [0x23] WAIT_FOR_DIALOG_INTERACTION
  9: 0x0205 [0x01] GOTO 0x0233
 10: 0x0208 [0x02] IF !(ExtData[1]->WorkLocal[0] == 1*) GOTO 0x021B
 11: 0x0210 [0x1D] PRINT_EVENT_MESSAGE(message_id=7135*)
    → "Good [boy/girl]. Keep gettin' those jobs done."
 12: 0x0213 [0x23] WAIT_FOR_DIALOG_INTERACTION
 13: 0x0214 [0x1D] PRINT_EVENT_MESSAGE(message_id=7136*)
    → "Salaheem's Sentinels are known for quality, precision, and speed. So get out there and prrrove your worth!"
 14: 0x0217 [0x23] WAIT_FOR_DIALOG_INTERACTION
 15: 0x0218 [0x01] GOTO 0x0233
 16: 0x021B [0x02] IF !(ExtData[1]->WorkLocal[0] == 2*) GOTO 0x0233
 17: 0x0223 [0x03] Work_Zone[2] = 16070*
 18: 0x0228 [0x1D] PRINT_EVENT_MESSAGE(message_id=8172*)
    → "When you've managed to become the best mercenary ya can be, I'll be rrready to hand over the $0 to ya."
 19: 0x022B [0x23] WAIT_FOR_DIALOG_INTERACTION
 20: 0x022C [0x1D] PRINT_EVENT_MESSAGE(message_id=8174*)
    → "Of course, if ya start slackin' off, I might change my mind and just sell it at the auction house."
 21: 0x022F [0x23] WAIT_FOR_DIALOG_INTERACTION
 22: 0x0230 [0x01] GOTO 0x0233

SUBROUTINE_0233:
 23: 0x0233 [0x21] END_EVENT
 24: 0x0234 [0x00] END_REQSTACK()
```

### Event 65535.2

#### Metadata

| Field        | Value    |
|--------------|----------|
| Entrypoint   | 0x0235   |
| Data Size    | 22 bytes |
| Instructions | 4        |

```
      00 01 02 03 04 05 06 07  08 09 0A 0B 0C 0D 0E 0F
      -- -- -- -- -- -- -- --  -- -- -- -- -- -- -- --
0230:                95 0B 80  80 F8 FF FF 7F 2C 8C 20       ........,. 
0240: 03 01 8C 20 03 01 77 6F  66 32 00                 ... ..wof2.     
```

#### Opcodes

```
  0: 0x0235 [0x95] SETUP_EVENT_NPC: Prepare NPC for event (Render.Flags3 = 2*)
  1: 0x0238 [0x80] LOAD_WAIT(entity=EventEntity)
  2: 0x023D [0x2C] CREATE_SCHEDULER_TASK: Create scheduler "wof2" with entities [Naja Salaheem (ID: 16982156/0x0103208C), Naja Salaheem (ID: 16982156/0x0103208C)]
  3: 0x024A [0x00] END_REQSTACK()
```

### Event 65535.3

#### Metadata

| Field        | Value    |
|--------------|----------|
| Entrypoint   | 0x024B   |
| Data Size    | 22 bytes |
| Instructions | 4        |

```
      00 01 02 03 04 05 06 07  08 09 0A 0B 0C 0D 0E 0F
      -- -- -- -- -- -- -- --  -- -- -- -- -- -- -- --
0240:                                   95 00 80 80 F8             .....
0250: FF FF 7F 2C 8C 20 03 01  8C 20 03 01 77 6F 6E 32  ...,. ... ..won2
0260: 00                                                .               
```

#### Opcodes

```
  0: 0x024B [0x95] SETUP_EVENT_NPC: Prepare NPC for event (Render.Flags3 = 0*)
  1: 0x024E [0x80] LOAD_WAIT(entity=EventEntity)
  2: 0x0253 [0x2C] CREATE_SCHEDULER_TASK: Create scheduler "won2" with entities [Naja Salaheem (ID: 16982156/0x0103208C), Naja Salaheem (ID: 16982156/0x0103208C)]
  3: 0x0260 [0x00] END_REQSTACK()
```

### Event 65535.4

#### Metadata

| Field        | Value   |
|--------------|---------|
| Entrypoint   | 0x0261  |
| Data Size    | 4 bytes |
| Instructions | 2       |

```
      00 01 02 03 04 05 06 07  08 09 0A 0B 0C 0D 0E 0F
      -- -- -- -- -- -- -- --  -- -- -- -- -- -- -- --
0260:    95 00 80 00                                     ....           
```

#### Opcodes

```
  0: 0x0261 [0x95] SETUP_EVENT_NPC: Prepare NPC for event (Render.Flags3 = 0*)
  1: 0x0264 [0x00] END_REQSTACK()
```

### Event 65535.5

#### Metadata

| Field        | Value   |
|--------------|---------|
| Entrypoint   | 0x0265  |
| Data Size    | 2 bytes |
| Instructions | 2       |

```
      00 01 02 03 04 05 06 07  08 09 0A 0B 0C 0D 0E 0F
      -- -- -- -- -- -- -- --  -- -- -- -- -- -- -- --
0260:                96 00                                   ..         
```

#### Opcodes

```
  0: 0x0265 [0x96] UNSET_EVENT_NPC: Restore NPC after event (removes event NPC status)
  1: 0x0266 [0x00] END_REQSTACK()
```

### Event 65535.6

#### Metadata

| Field        | Value    |
|--------------|----------|
| Entrypoint   | 0x0267   |
| Data Size    | 16 bytes |
| Instructions | 2        |

```
      00 01 02 03 04 05 06 07  08 09 0A 0B 0C 0D 0E 0F
      -- -- -- -- -- -- -- --  -- -- -- -- -- -- -- --
0260:                      5B  28 80 F8 FF FF 7F F8 FF         [(.......
0270: FF 7F 74 6C 6B 30 00                              ..tlk0.         
```

#### Opcodes

```
  0: 0x0267 [0x5B] LOAD_EXT_SCHEDULER: Load scheduler "tlk0" with entities [EventEntity, EventEntity], work=833*
  1: 0x0276 [0x00] END_REQSTACK()
```

### Event 65535.7

#### Metadata

| Field        | Value    |
|--------------|----------|
| Entrypoint   | 0x0277   |
| Data Size    | 14 bytes |
| Instructions | 2        |

```
      00 01 02 03 04 05 06 07  08 09 0A 0B 0C 0D 0E 0F
      -- -- -- -- -- -- -- --  -- -- -- -- -- -- -- --
0270:                      53  F8 FF FF 7F F8 FF FF 7F         S........
0280: 74 6C 6B 30 00                                    tlk0.           
```

#### Opcodes

```
  0: 0x0277 [0x53] WAIT_SCHEDULER_TASK: Wait for scheduler "tlk0" with entities [EventEntity, EventEntity]
  1: 0x0284 [0x00] END_REQSTACK()
```

### Event 65535.8

#### Metadata

| Field        | Value    |
|--------------|----------|
| Entrypoint   | 0x0285   |
| Data Size    | 16 bytes |
| Instructions | 2        |

```
      00 01 02 03 04 05 06 07  08 09 0A 0B 0C 0D 0E 0F
      -- -- -- -- -- -- -- --  -- -- -- -- -- -- -- --
0280:                5B 28 80  F8 FF FF 7F F8 FF FF 7F       [(.........
0290: 74 6C 6B 31 00                                    tlk1.           
```

#### Opcodes

```
  0: 0x0285 [0x5B] LOAD_EXT_SCHEDULER: Load scheduler "tlk1" with entities [EventEntity, EventEntity], work=833*
  1: 0x0294 [0x00] END_REQSTACK()
```

### Event 65535.9

#### Metadata

| Field        | Value    |
|--------------|----------|
| Entrypoint   | 0x0295   |
| Data Size    | 14 bytes |
| Instructions | 2        |

```
      00 01 02 03 04 05 06 07  08 09 0A 0B 0C 0D 0E 0F
      -- -- -- -- -- -- -- --  -- -- -- -- -- -- -- --
0290:                53 F8 FF  FF 7F F8 FF FF 7F 74 6C       S........tl
02A0: 6B 31 00                                          k1.             
```

#### Opcodes

```
  0: 0x0295 [0x53] WAIT_SCHEDULER_TASK: Wait for scheduler "tlk1" with entities [EventEntity, EventEntity]
  1: 0x02A2 [0x00] END_REQSTACK()
```

### Event 65535.10

#### Metadata

| Field        | Value    |
|--------------|----------|
| Entrypoint   | 0x02A3   |
| Data Size    | 22 bytes |
| Instructions | 3        |

```
      00 01 02 03 04 05 06 07  08 09 0A 0B 0C 0D 0E 0F
      -- -- -- -- -- -- -- --  -- -- -- -- -- -- -- --
02A0:          81 00 F8 FF FF  7F 5B 28 80 F8 FF FF 7F     ......[(.....
02B0: F8 FF FF 7F 74 68 6B 30  00                       ....thk0.       
```

#### Opcodes

```
  0: 0x02A3 [0x81] SET_ENTITY_BLINKING(blink_flag=0x00, entity=EventEntity)
  1: 0x02A9 [0x5B] LOAD_EXT_SCHEDULER: Load scheduler "thk0" with entities [EventEntity, EventEntity], work=833*
  2: 0x02B8 [0x00] END_REQSTACK()
```

### Event 65535.11

#### Metadata

| Field        | Value    |
|--------------|----------|
| Entrypoint   | 0x02B9   |
| Data Size    | 14 bytes |
| Instructions | 2        |

```
      00 01 02 03 04 05 06 07  08 09 0A 0B 0C 0D 0E 0F
      -- -- -- -- -- -- -- --  -- -- -- -- -- -- -- --
02B0:                             53 F8 FF FF 7F F8 FF           S......
02C0: FF 7F 74 68 6B 30 00                              ..thk0.         
```

#### Opcodes

```
  0: 0x02B9 [0x53] WAIT_SCHEDULER_TASK: Wait for scheduler "thk0" with entities [EventEntity, EventEntity]
  1: 0x02C6 [0x00] END_REQSTACK()
```

### Event 65535.12

#### Metadata

| Field        | Value    |
|--------------|----------|
| Entrypoint   | 0x02C7   |
| Data Size    | 16 bytes |
| Instructions | 2        |

```
      00 01 02 03 04 05 06 07  08 09 0A 0B 0C 0D 0E 0F
      -- -- -- -- -- -- -- --  -- -- -- -- -- -- -- --
02C0:                      5B  28 80 F8 FF FF 7F F8 FF         [(.......
02D0: FF 7F 74 68 6B 31 00                              ..thk1.         
```

#### Opcodes

```
  0: 0x02C7 [0x5B] LOAD_EXT_SCHEDULER: Load scheduler "thk1" with entities [EventEntity, EventEntity], work=833*
  1: 0x02D6 [0x00] END_REQSTACK()
```

### Event 65535.13

#### Metadata

| Field        | Value    |
|--------------|----------|
| Entrypoint   | 0x02D7   |
| Data Size    | 20 bytes |
| Instructions | 3        |

```
      00 01 02 03 04 05 06 07  08 09 0A 0B 0C 0D 0E 0F
      -- -- -- -- -- -- -- --  -- -- -- -- -- -- -- --
02D0:                      53  F8 FF FF 7F F8 FF FF 7F         S........
02E0: 74 68 6B 31 81 01 F8 FF  FF 7F 00                 thk1.......     
```

#### Opcodes

```
  0: 0x02D7 [0x53] WAIT_SCHEDULER_TASK: Wait for scheduler "thk1" with entities [EventEntity, EventEntity]
  1: 0x02E4 [0x81] SET_ENTITY_BLINKING(blink_flag=0x01, entity=EventEntity)
  2: 0x02EA [0x00] END_REQSTACK()
```

### Event 65535.14

#### Metadata

| Field        | Value    |
|--------------|----------|
| Entrypoint   | 0x02EB   |
| Data Size    | 22 bytes |
| Instructions | 3        |

```
      00 01 02 03 04 05 06 07  08 09 0A 0B 0C 0D 0E 0F
      -- -- -- -- -- -- -- --  -- -- -- -- -- -- -- --
02E0:                                   81 00 F8 FF FF             .....
02F0: 7F 5B 28 80 F8 FF FF 7F  F8 FF FF 7F 70 6E 74 30  .[(.........pnt0
0300: 00                                                .               
```

#### Opcodes

```
  0: 0x02EB [0x81] SET_ENTITY_BLINKING(blink_flag=0x00, entity=EventEntity)
  1: 0x02F1 [0x5B] LOAD_EXT_SCHEDULER: Load scheduler "pnt0" with entities [EventEntity, EventEntity], work=833*
  2: 0x0300 [0x00] END_REQSTACK()
```

### Event 65535.15

#### Metadata

| Field        | Value    |
|--------------|----------|
| Entrypoint   | 0x0301   |
| Data Size    | 14 bytes |
| Instructions | 2        |

```
      00 01 02 03 04 05 06 07  08 09 0A 0B 0C 0D 0E 0F
      -- -- -- -- -- -- -- --  -- -- -- -- -- -- -- --
0300:    53 F8 FF FF 7F F8 FF  FF 7F 70 6E 74 30 00      S........pnt0. 
```

#### Opcodes

```
  0: 0x0301 [0x53] WAIT_SCHEDULER_TASK: Wait for scheduler "pnt0" with entities [EventEntity, EventEntity]
  1: 0x030E [0x00] END_REQSTACK()
```

### Event 65535.16

#### Metadata

| Field        | Value    |
|--------------|----------|
| Entrypoint   | 0x030F   |
| Data Size    | 16 bytes |
| Instructions | 2        |

```
      00 01 02 03 04 05 06 07  08 09 0A 0B 0C 0D 0E 0F
      -- -- -- -- -- -- -- --  -- -- -- -- -- -- -- --
0300:                                               5B                 [
0310: 28 80 F8 FF FF 7F F8 FF  FF 7F 70 6E 74 31 00     (.........pnt1. 
```

#### Opcodes

```
  0: 0x030F [0x5B] LOAD_EXT_SCHEDULER: Load scheduler "pnt1" with entities [EventEntity, EventEntity], work=833*
  1: 0x031E [0x00] END_REQSTACK()
```

### Event 65535.17

#### Metadata

| Field        | Value    |
|--------------|----------|
| Entrypoint   | 0x031F   |
| Data Size    | 20 bytes |
| Instructions | 3        |

```
      00 01 02 03 04 05 06 07  08 09 0A 0B 0C 0D 0E 0F
      -- -- -- -- -- -- -- --  -- -- -- -- -- -- -- --
0310:                                               53                 S
0320: F8 FF FF 7F F8 FF FF 7F  70 6E 74 31 81 01 F8 FF  ........pnt1....
0330: FF 7F 00                                          ...             
```

#### Opcodes

```
  0: 0x031F [0x53] WAIT_SCHEDULER_TASK: Wait for scheduler "pnt1" with entities [EventEntity, EventEntity]
  1: 0x032C [0x81] SET_ENTITY_BLINKING(blink_flag=0x01, entity=EventEntity)
  2: 0x0332 [0x00] END_REQSTACK()
```

### Event 65535.18

#### Metadata

| Field        | Value    |
|--------------|----------|
| Entrypoint   | 0x0333   |
| Data Size    | 16 bytes |
| Instructions | 2        |

```
      00 01 02 03 04 05 06 07  08 09 0A 0B 0C 0D 0E 0F
      -- -- -- -- -- -- -- --  -- -- -- -- -- -- -- --
0330:          5B 29 80 F8 FF  FF 7F F8 FF FF 7F 61 67     [).........ag
0340: 72 30 00                                          r0.             
```

#### Opcodes

```
  0: 0x0333 [0x5B] LOAD_EXT_SCHEDULER: Load scheduler "agr0" with entities [EventEntity, EventEntity], work=834*
  1: 0x0342 [0x00] END_REQSTACK()
```

### Event 65535.19

#### Metadata

| Field        | Value    |
|--------------|----------|
| Entrypoint   | 0x0343   |
| Data Size    | 14 bytes |
| Instructions | 2        |

```
      00 01 02 03 04 05 06 07  08 09 0A 0B 0C 0D 0E 0F
      -- -- -- -- -- -- -- --  -- -- -- -- -- -- -- --
0340:          53 F8 FF FF 7F  F8 FF FF 7F 61 67 72 30     S........agr0
0350: 00                                                .               
```

#### Opcodes

```
  0: 0x0343 [0x53] WAIT_SCHEDULER_TASK: Wait for scheduler "agr0" with entities [EventEntity, EventEntity]
  1: 0x0350 [0x00] END_REQSTACK()
```

### Event 65535.20

#### Metadata

| Field        | Value    |
|--------------|----------|
| Entrypoint   | 0x0351   |
| Data Size    | 16 bytes |
| Instructions | 2        |

```
      00 01 02 03 04 05 06 07  08 09 0A 0B 0C 0D 0E 0F
      -- -- -- -- -- -- -- --  -- -- -- -- -- -- -- --
0350:    5B 29 80 F8 FF FF 7F  F8 FF FF 7F 61 67 72 31   [).........agr1
0360: 00                                                .               
```

#### Opcodes

```
  0: 0x0351 [0x5B] LOAD_EXT_SCHEDULER: Load scheduler "agr1" with entities [EventEntity, EventEntity], work=834*
  1: 0x0360 [0x00] END_REQSTACK()
```

### Event 65535.21

#### Metadata

| Field        | Value    |
|--------------|----------|
| Entrypoint   | 0x0361   |
| Data Size    | 14 bytes |
| Instructions | 2        |

```
      00 01 02 03 04 05 06 07  08 09 0A 0B 0C 0D 0E 0F
      -- -- -- -- -- -- -- --  -- -- -- -- -- -- -- --
0360:    53 F8 FF FF 7F F8 FF  FF 7F 61 67 72 31 00      S........agr1. 
```

#### Opcodes

```
  0: 0x0361 [0x53] WAIT_SCHEDULER_TASK: Wait for scheduler "agr1" with entities [EventEntity, EventEntity]
  1: 0x036E [0x00] END_REQSTACK()
```

### Event 65535.22

#### Metadata

| Field        | Value    |
|--------------|----------|
| Entrypoint   | 0x036F   |
| Data Size    | 22 bytes |
| Instructions | 3        |

```
      00 01 02 03 04 05 06 07  08 09 0A 0B 0C 0D 0E 0F
      -- -- -- -- -- -- -- --  -- -- -- -- -- -- -- --
0360:                                               81                 .
0370: 00 F8 FF FF 7F 5B 29 80  F8 FF FF 7F F8 FF FF 7F  .....[).........
0380: 61 67 62 30 00                                    agb0.           
```

#### Opcodes

```
  0: 0x036F [0x81] SET_ENTITY_BLINKING(blink_flag=0x00, entity=EventEntity)
  1: 0x0375 [0x5B] LOAD_EXT_SCHEDULER: Load scheduler "agb0" with entities [EventEntity, EventEntity], work=834*
  2: 0x0384 [0x00] END_REQSTACK()
```

### Event 65535.23

#### Metadata

| Field        | Value    |
|--------------|----------|
| Entrypoint   | 0x0385   |
| Data Size    | 20 bytes |
| Instructions | 3        |

```
      00 01 02 03 04 05 06 07  08 09 0A 0B 0C 0D 0E 0F
      -- -- -- -- -- -- -- --  -- -- -- -- -- -- -- --
0380:                53 F8 FF  FF 7F F8 FF FF 7F 61 67       S........ag
0390: 62 30 81 01 F8 FF FF 7F  00                       b0.......       
```

#### Opcodes

```
  0: 0x0385 [0x53] WAIT_SCHEDULER_TASK: Wait for scheduler "agb0" with entities [EventEntity, EventEntity]
  1: 0x0392 [0x81] SET_ENTITY_BLINKING(blink_flag=0x01, entity=EventEntity)
  2: 0x0398 [0x00] END_REQSTACK()
```

### Event 65535.24

#### Metadata

| Field        | Value    |
|--------------|----------|
| Entrypoint   | 0x0399   |
| Data Size    | 16 bytes |
| Instructions | 2        |

```
      00 01 02 03 04 05 06 07  08 09 0A 0B 0C 0D 0E 0F
      -- -- -- -- -- -- -- --  -- -- -- -- -- -- -- --
0390:                             5B 2A 80 F8 FF FF 7F           [*.....
03A0: F8 FF FF 7F 70 61 73 30  00                       ....pas0.       
```

#### Opcodes

```
  0: 0x0399 [0x5B] LOAD_EXT_SCHEDULER: Load scheduler "pas0" with entities [EventEntity, EventEntity], work=835*
  1: 0x03A8 [0x00] END_REQSTACK()
```

### Event 65535.25

#### Metadata

| Field        | Value    |
|--------------|----------|
| Entrypoint   | 0x03A9   |
| Data Size    | 14 bytes |
| Instructions | 2        |

```
      00 01 02 03 04 05 06 07  08 09 0A 0B 0C 0D 0E 0F
      -- -- -- -- -- -- -- --  -- -- -- -- -- -- -- --
03A0:                             53 F8 FF FF 7F F8 FF           S......
03B0: FF 7F 70 61 73 30 00                              ..pas0.         
```

#### Opcodes

```
  0: 0x03A9 [0x53] WAIT_SCHEDULER_TASK: Wait for scheduler "pas0" with entities [EventEntity, EventEntity]
  1: 0x03B6 [0x00] END_REQSTACK()
```

### Event 65535.26

#### Metadata

| Field        | Value    |
|--------------|----------|
| Entrypoint   | 0x03B7   |
| Data Size    | 22 bytes |
| Instructions | 3        |

```
      00 01 02 03 04 05 06 07  08 09 0A 0B 0C 0D 0E 0F
      -- -- -- -- -- -- -- --  -- -- -- -- -- -- -- --
03B0:                      81  00 F8 FF FF 7F 5B 2A 80         ......[*.
03C0: F8 FF FF 7F F8 FF FF 7F  68 61 70 30 00           ........hap0.   
```

#### Opcodes

```
  0: 0x03B7 [0x81] SET_ENTITY_BLINKING(blink_flag=0x00, entity=EventEntity)
  1: 0x03BD [0x5B] LOAD_EXT_SCHEDULER: Load scheduler "hap0" with entities [EventEntity, EventEntity], work=835*
  2: 0x03CC [0x00] END_REQSTACK()
```

### Event 65535.27

#### Metadata

| Field        | Value    |
|--------------|----------|
| Entrypoint   | 0x03CD   |
| Data Size    | 14 bytes |
| Instructions | 2        |

```
      00 01 02 03 04 05 06 07  08 09 0A 0B 0C 0D 0E 0F
      -- -- -- -- -- -- -- --  -- -- -- -- -- -- -- --
03C0:                                         53 F8 FF               S..
03D0: FF 7F F8 FF FF 7F 68 61  70 30 00                 ......hap0.     
```

#### Opcodes

```
  0: 0x03CD [0x53] WAIT_SCHEDULER_TASK: Wait for scheduler "hap0" with entities [EventEntity, EventEntity]
  1: 0x03DA [0x00] END_REQSTACK()
```

### Event 65535.28

#### Metadata

| Field        | Value    |
|--------------|----------|
| Entrypoint   | 0x03DB   |
| Data Size    | 16 bytes |
| Instructions | 2        |

```
      00 01 02 03 04 05 06 07  08 09 0A 0B 0C 0D 0E 0F
      -- -- -- -- -- -- -- --  -- -- -- -- -- -- -- --
03D0:                                   5B 2A 80 F8 FF             [*...
03E0: FF 7F F8 FF FF 7F 68 61  70 31 00                 ......hap1.     
```

#### Opcodes

```
  0: 0x03DB [0x5B] LOAD_EXT_SCHEDULER: Load scheduler "hap1" with entities [EventEntity, EventEntity], work=835*
  1: 0x03EA [0x00] END_REQSTACK()
```

### Event 65535.29

#### Metadata

| Field        | Value    |
|--------------|----------|
| Entrypoint   | 0x03EB   |
| Data Size    | 14 bytes |
| Instructions | 2        |

```
      00 01 02 03 04 05 06 07  08 09 0A 0B 0C 0D 0E 0F
      -- -- -- -- -- -- -- --  -- -- -- -- -- -- -- --
03E0:                                   53 F8 FF FF 7F             S....
03F0: F8 FF FF 7F 68 61 70 31  00                       ....hap1.       
```

#### Opcodes

```
  0: 0x03EB [0x53] WAIT_SCHEDULER_TASK: Wait for scheduler "hap1" with entities [EventEntity, EventEntity]
  1: 0x03F8 [0x00] END_REQSTACK()
```

### Event 65535.30

#### Metadata

| Field        | Value    |
|--------------|----------|
| Entrypoint   | 0x03F9   |
| Data Size    | 16 bytes |
| Instructions | 2        |

```
      00 01 02 03 04 05 06 07  08 09 0A 0B 0C 0D 0E 0F
      -- -- -- -- -- -- -- --  -- -- -- -- -- -- -- --
03F0:                             5B 2A 80 F8 FF FF 7F           [*.....
0400: F8 FF FF 7F 68 61 70 72  00                       ....hapr.       
```

#### Opcodes

```
  0: 0x03F9 [0x5B] LOAD_EXT_SCHEDULER: Load scheduler "hapr" with entities [EventEntity, EventEntity], work=835*
  1: 0x0408 [0x00] END_REQSTACK()
```

### Event 65535.31

#### Metadata

| Field        | Value    |
|--------------|----------|
| Entrypoint   | 0x0409   |
| Data Size    | 20 bytes |
| Instructions | 3        |

```
      00 01 02 03 04 05 06 07  08 09 0A 0B 0C 0D 0E 0F
      -- -- -- -- -- -- -- --  -- -- -- -- -- -- -- --
0400:                             53 F8 FF FF 7F F8 FF           S......
0410: FF 7F 68 61 70 72 81 01  F8 FF FF 7F 00           ..hapr.......   
```

#### Opcodes

```
  0: 0x0409 [0x53] WAIT_SCHEDULER_TASK: Wait for scheduler "hapr" with entities [EventEntity, EventEntity]
  1: 0x0416 [0x81] SET_ENTITY_BLINKING(blink_flag=0x01, entity=EventEntity)
  2: 0x041C [0x00] END_REQSTACK()
```

### Event 65535.32

#### Metadata

| Field        | Value    |
|--------------|----------|
| Entrypoint   | 0x041D   |
| Data Size    | 16 bytes |
| Instructions | 2        |

```
      00 01 02 03 04 05 06 07  08 09 0A 0B 0C 0D 0E 0F
      -- -- -- -- -- -- -- --  -- -- -- -- -- -- -- --
0410:                                         5B 2B 80               [+.
0420: F8 FF FF 7F F8 FF FF 7F  70 6E 62 30 00           ........pnb0.   
```

#### Opcodes

```
  0: 0x041D [0x5B] LOAD_EXT_SCHEDULER: Load scheduler "pnb0" with entities [EventEntity, EventEntity], work=836*
  1: 0x042C [0x00] END_REQSTACK()
```

### Event 65535.33

#### Metadata

| Field        | Value    |
|--------------|----------|
| Entrypoint   | 0x042D   |
| Data Size    | 14 bytes |
| Instructions | 2        |

```
      00 01 02 03 04 05 06 07  08 09 0A 0B 0C 0D 0E 0F
      -- -- -- -- -- -- -- --  -- -- -- -- -- -- -- --
0420:                                         53 F8 FF               S..
0430: FF 7F F8 FF FF 7F 70 6E  62 30 00                 ......pnb0.     
```

#### Opcodes

```
  0: 0x042D [0x53] WAIT_SCHEDULER_TASK: Wait for scheduler "pnb0" with entities [EventEntity, EventEntity]
  1: 0x043A [0x00] END_REQSTACK()
```

### Event 65535.34

#### Metadata

| Field        | Value    |
|--------------|----------|
| Entrypoint   | 0x043B   |
| Data Size    | 16 bytes |
| Instructions | 2        |

```
      00 01 02 03 04 05 06 07  08 09 0A 0B 0C 0D 0E 0F
      -- -- -- -- -- -- -- --  -- -- -- -- -- -- -- --
0430:                                   5B 2B 80 F8 FF             [+...
0440: FF 7F F8 FF FF 7F 70 6E  62 31 00                 ......pnb1.     
```

#### Opcodes

```
  0: 0x043B [0x5B] LOAD_EXT_SCHEDULER: Load scheduler "pnb1" with entities [EventEntity, EventEntity], work=836*
  1: 0x044A [0x00] END_REQSTACK()
```

### Event 65535.35

#### Metadata

| Field        | Value    |
|--------------|----------|
| Entrypoint   | 0x044B   |
| Data Size    | 14 bytes |
| Instructions | 2        |

```
      00 01 02 03 04 05 06 07  08 09 0A 0B 0C 0D 0E 0F
      -- -- -- -- -- -- -- --  -- -- -- -- -- -- -- --
0440:                                   53 F8 FF FF 7F             S....
0450: F8 FF FF 7F 70 6E 62 31  00                       ....pnb1.       
```

#### Opcodes

```
  0: 0x044B [0x53] WAIT_SCHEDULER_TASK: Wait for scheduler "pnb1" with entities [EventEntity, EventEntity]
  1: 0x0458 [0x00] END_REQSTACK()
```

### Event 65535.36

#### Metadata

| Field        | Value    |
|--------------|----------|
| Entrypoint   | 0x0459   |
| Data Size    | 22 bytes |
| Instructions | 3        |

```
      00 01 02 03 04 05 06 07  08 09 0A 0B 0C 0D 0E 0F
      -- -- -- -- -- -- -- --  -- -- -- -- -- -- -- --
0450:                             81 00 F8 FF FF 7F 5B           ......[
0460: 2C 80 F8 FF FF 7F F8 FF  FF 7F 74 6C 63 30 00     ,.........tlc0. 
```

#### Opcodes

```
  0: 0x0459 [0x81] SET_ENTITY_BLINKING(blink_flag=0x00, entity=EventEntity)
  1: 0x045F [0x5B] LOAD_EXT_SCHEDULER: Load scheduler "tlc0" with entities [EventEntity, EventEntity], work=854*
  2: 0x046E [0x00] END_REQSTACK()
```

### Event 65535.37

#### Metadata

| Field        | Value    |
|--------------|----------|
| Entrypoint   | 0x046F   |
| Data Size    | 14 bytes |
| Instructions | 2        |

```
      00 01 02 03 04 05 06 07  08 09 0A 0B 0C 0D 0E 0F
      -- -- -- -- -- -- -- --  -- -- -- -- -- -- -- --
0460:                                               53                 S
0470: F8 FF FF 7F F8 FF FF 7F  74 6C 63 30 00           ........tlc0.   
```

#### Opcodes

```
  0: 0x046F [0x53] WAIT_SCHEDULER_TASK: Wait for scheduler "tlc0" with entities [EventEntity, EventEntity]
  1: 0x047C [0x00] END_REQSTACK()
```

### Event 65535.38

#### Metadata

| Field        | Value    |
|--------------|----------|
| Entrypoint   | 0x047D   |
| Data Size    | 16 bytes |
| Instructions | 2        |

```
      00 01 02 03 04 05 06 07  08 09 0A 0B 0C 0D 0E 0F
      -- -- -- -- -- -- -- --  -- -- -- -- -- -- -- --
0470:                                         5B 2C 80               [,.
0480: F8 FF FF 7F F8 FF FF 7F  74 6C 63 31 00           ........tlc1.   
```

#### Opcodes

```
  0: 0x047D [0x5B] LOAD_EXT_SCHEDULER: Load scheduler "tlc1" with entities [EventEntity, EventEntity], work=854*
  1: 0x048C [0x00] END_REQSTACK()
```

### Event 65535.39

#### Metadata

| Field        | Value    |
|--------------|----------|
| Entrypoint   | 0x048D   |
| Data Size    | 20 bytes |
| Instructions | 3        |

```
      00 01 02 03 04 05 06 07  08 09 0A 0B 0C 0D 0E 0F
      -- -- -- -- -- -- -- --  -- -- -- -- -- -- -- --
0480:                                         53 F8 FF               S..
0490: FF 7F F8 FF FF 7F 74 6C  63 31 81 01 F8 FF FF 7F  ......tlc1......
04A0: 00                                                .               
```

#### Opcodes

```
  0: 0x048D [0x53] WAIT_SCHEDULER_TASK: Wait for scheduler "tlc1" with entities [EventEntity, EventEntity]
  1: 0x049A [0x81] SET_ENTITY_BLINKING(blink_flag=0x01, entity=EventEntity)
  2: 0x04A0 [0x00] END_REQSTACK()
```

### Event 65535.40

#### Metadata

| Field        | Value    |
|--------------|----------|
| Entrypoint   | 0x04A1   |
| Data Size    | 22 bytes |
| Instructions | 3        |

```
      00 01 02 03 04 05 06 07  08 09 0A 0B 0C 0D 0E 0F
      -- -- -- -- -- -- -- --  -- -- -- -- -- -- -- --
04A0:    81 00 F8 FF FF 7F 5B  2C 80 F8 FF FF 7F F8 FF   ......[,.......
04B0: FF 7F 74 6C 64 30 00                              ..tld0.         
```

#### Opcodes

```
  0: 0x04A1 [0x81] SET_ENTITY_BLINKING(blink_flag=0x00, entity=EventEntity)
  1: 0x04A7 [0x5B] LOAD_EXT_SCHEDULER: Load scheduler "tld0" with entities [EventEntity, EventEntity], work=854*
  2: 0x04B6 [0x00] END_REQSTACK()
```

### Event 65535.41

#### Metadata

| Field        | Value    |
|--------------|----------|
| Entrypoint   | 0x04B7   |
| Data Size    | 14 bytes |
| Instructions | 2        |

```
      00 01 02 03 04 05 06 07  08 09 0A 0B 0C 0D 0E 0F
      -- -- -- -- -- -- -- --  -- -- -- -- -- -- -- --
04B0:                      53  F8 FF FF 7F F8 FF FF 7F         S........
04C0: 74 6C 64 30 00                                    tld0.           
```

#### Opcodes

```
  0: 0x04B7 [0x53] WAIT_SCHEDULER_TASK: Wait for scheduler "tld0" with entities [EventEntity, EventEntity]
  1: 0x04C4 [0x00] END_REQSTACK()
```

### Event 65535.42

#### Metadata

| Field        | Value    |
|--------------|----------|
| Entrypoint   | 0x04C5   |
| Data Size    | 16 bytes |
| Instructions | 2        |

```
      00 01 02 03 04 05 06 07  08 09 0A 0B 0C 0D 0E 0F
      -- -- -- -- -- -- -- --  -- -- -- -- -- -- -- --
04C0:                5B 2C 80  F8 FF FF 7F F8 FF FF 7F       [,.........
04D0: 74 6C 64 31 00                                    tld1.           
```

#### Opcodes

```
  0: 0x04C5 [0x5B] LOAD_EXT_SCHEDULER: Load scheduler "tld1" with entities [EventEntity, EventEntity], work=854*
  1: 0x04D4 [0x00] END_REQSTACK()
```

### Event 65535.43

#### Metadata

| Field        | Value    |
|--------------|----------|
| Entrypoint   | 0x04D5   |
| Data Size    | 20 bytes |
| Instructions | 3        |

```
      00 01 02 03 04 05 06 07  08 09 0A 0B 0C 0D 0E 0F
      -- -- -- -- -- -- -- --  -- -- -- -- -- -- -- --
04D0:                53 F8 FF  FF 7F F8 FF FF 7F 74 6C       S........tl
04E0: 64 31 81 01 F8 FF FF 7F  00                       d1.......       
```

#### Opcodes

```
  0: 0x04D5 [0x53] WAIT_SCHEDULER_TASK: Wait for scheduler "tld1" with entities [EventEntity, EventEntity]
  1: 0x04E2 [0x81] SET_ENTITY_BLINKING(blink_flag=0x01, entity=EventEntity)
  2: 0x04E8 [0x00] END_REQSTACK()
```

### Event 65535.44

#### Metadata

| Field        | Value    |
|--------------|----------|
| Entrypoint   | 0x04E9   |
| Data Size    | 22 bytes |
| Instructions | 3        |

```
      00 01 02 03 04 05 06 07  08 09 0A 0B 0C 0D 0E 0F
      -- -- -- -- -- -- -- --  -- -- -- -- -- -- -- --
04E0:                             81 00 F8 FF FF 7F 5B           ......[
04F0: 2D 80 F8 FF FF 7F F8 FF  FF 7F 61 67 73 30 00     -.........ags0. 
```

#### Opcodes

```
  0: 0x04E9 [0x81] SET_ENTITY_BLINKING(blink_flag=0x00, entity=EventEntity)
  1: 0x04EF [0x5B] LOAD_EXT_SCHEDULER: Load scheduler "ags0" with entities [EventEntity, EventEntity], work=867*
  2: 0x04FE [0x00] END_REQSTACK()
```

### Event 65535.45

#### Metadata

| Field        | Value    |
|--------------|----------|
| Entrypoint   | 0x04FF   |
| Data Size    | 14 bytes |
| Instructions | 2        |

```
      00 01 02 03 04 05 06 07  08 09 0A 0B 0C 0D 0E 0F
      -- -- -- -- -- -- -- --  -- -- -- -- -- -- -- --
04F0:                                               53                 S
0500: F8 FF FF 7F F8 FF FF 7F  61 67 73 30 00           ........ags0.   
```

#### Opcodes

```
  0: 0x04FF [0x53] WAIT_SCHEDULER_TASK: Wait for scheduler "ags0" with entities [EventEntity, EventEntity]
  1: 0x050C [0x00] END_REQSTACK()
```

### Event 65535.46

#### Metadata

| Field        | Value    |
|--------------|----------|
| Entrypoint   | 0x050D   |
| Data Size    | 16 bytes |
| Instructions | 2        |

```
      00 01 02 03 04 05 06 07  08 09 0A 0B 0C 0D 0E 0F
      -- -- -- -- -- -- -- --  -- -- -- -- -- -- -- --
0500:                                         5B 2D 80               [-.
0510: F8 FF FF 7F F8 FF FF 7F  61 67 73 31 00           ........ags1.   
```

#### Opcodes

```
  0: 0x050D [0x5B] LOAD_EXT_SCHEDULER: Load scheduler "ags1" with entities [EventEntity, EventEntity], work=867*
  1: 0x051C [0x00] END_REQSTACK()
```

### Event 65535.47

#### Metadata

| Field        | Value    |
|--------------|----------|
| Entrypoint   | 0x051D   |
| Data Size    | 20 bytes |
| Instructions | 3        |

```
      00 01 02 03 04 05 06 07  08 09 0A 0B 0C 0D 0E 0F
      -- -- -- -- -- -- -- --  -- -- -- -- -- -- -- --
0510:                                         53 F8 FF               S..
0520: FF 7F F8 FF FF 7F 61 67  73 31 81 01 F8 FF FF 7F  ......ags1......
0530: 00                                                .               
```

#### Opcodes

```
  0: 0x051D [0x53] WAIT_SCHEDULER_TASK: Wait for scheduler "ags1" with entities [EventEntity, EventEntity]
  1: 0x052A [0x81] SET_ENTITY_BLINKING(blink_flag=0x01, entity=EventEntity)
  2: 0x0530 [0x00] END_REQSTACK()
```

### Event 65535.48

#### Metadata

| Field        | Value    |
|--------------|----------|
| Entrypoint   | 0x0531   |
| Data Size    | 16 bytes |
| Instructions | 2        |

```
      00 01 02 03 04 05 06 07  08 09 0A 0B 0C 0D 0E 0F
      -- -- -- -- -- -- -- --  -- -- -- -- -- -- -- --
0530:    5B 29 80 F8 FF FF 7F  F8 FF FF 7F 64 73 6B 30   [).........dsk0
0540: 00                                                .               
```

#### Opcodes

```
  0: 0x0531 [0x5B] LOAD_EXT_SCHEDULER: Load scheduler "dsk0" with entities [EventEntity, EventEntity], work=834*
  1: 0x0540 [0x00] END_REQSTACK()
```

### Event 65535.49

#### Metadata

| Field        | Value    |
|--------------|----------|
| Entrypoint   | 0x0541   |
| Data Size    | 14 bytes |
| Instructions | 2        |

```
      00 01 02 03 04 05 06 07  08 09 0A 0B 0C 0D 0E 0F
      -- -- -- -- -- -- -- --  -- -- -- -- -- -- -- --
0540:    53 F8 FF FF 7F F8 FF  FF 7F 64 73 6B 30 00      S........dsk0. 
```

#### Opcodes

```
  0: 0x0541 [0x53] WAIT_SCHEDULER_TASK: Wait for scheduler "dsk0" with entities [EventEntity, EventEntity]
  1: 0x054E [0x00] END_REQSTACK()
```

### Event 65535.50

#### Metadata

| Field        | Value    |
|--------------|----------|
| Entrypoint   | 0x054F   |
| Data Size    | 16 bytes |
| Instructions | 2        |

```
      00 01 02 03 04 05 06 07  08 09 0A 0B 0C 0D 0E 0F
      -- -- -- -- -- -- -- --  -- -- -- -- -- -- -- --
0540:                                               5B                 [
0550: 29 80 F8 FF FF 7F F8 FF  FF 7F 64 73 6B 31 00     ).........dsk1. 
```

#### Opcodes

```
  0: 0x054F [0x5B] LOAD_EXT_SCHEDULER: Load scheduler "dsk1" with entities [EventEntity, EventEntity], work=834*
  1: 0x055E [0x00] END_REQSTACK()
```

### Event 65535.51

#### Metadata

| Field        | Value    |
|--------------|----------|
| Entrypoint   | 0x055F   |
| Data Size    | 14 bytes |
| Instructions | 2        |

```
      00 01 02 03 04 05 06 07  08 09 0A 0B 0C 0D 0E 0F
      -- -- -- -- -- -- -- --  -- -- -- -- -- -- -- --
0550:                                               53                 S
0560: F8 FF FF 7F F8 FF FF 7F  64 73 6B 31 00           ........dsk1.   
```

#### Opcodes

```
  0: 0x055F [0x53] WAIT_SCHEDULER_TASK: Wait for scheduler "dsk1" with entities [EventEntity, EventEntity]
  1: 0x056C [0x00] END_REQSTACK()
```

### Event 65535.52

#### Metadata

| Field        | Value    |
|--------------|----------|
| Entrypoint   | 0x056D   |
| Data Size    | 16 bytes |
| Instructions | 2        |

```
      00 01 02 03 04 05 06 07  08 09 0A 0B 0C 0D 0E 0F
      -- -- -- -- -- -- -- --  -- -- -- -- -- -- -- --
0560:                                         5B 29 80               [).
0570: F8 FF FF 7F F8 FF FF 7F  64 73 6B 6C 00           ........dskl.   
```

#### Opcodes

```
  0: 0x056D [0x5B] LOAD_EXT_SCHEDULER: Load scheduler "dskl" with entities [EventEntity, EventEntity], work=834*
  1: 0x057C [0x00] END_REQSTACK()
```

### Event 65535.53

#### Metadata

| Field        | Value    |
|--------------|----------|
| Entrypoint   | 0x057D   |
| Data Size    | 14 bytes |
| Instructions | 2        |

```
      00 01 02 03 04 05 06 07  08 09 0A 0B 0C 0D 0E 0F
      -- -- -- -- -- -- -- --  -- -- -- -- -- -- -- --
0570:                                         53 F8 FF               S..
0580: FF 7F F8 FF FF 7F 64 73  6B 6C 00                 ......dskl.     
```

#### Opcodes

```
  0: 0x057D [0x53] WAIT_SCHEDULER_TASK: Wait for scheduler "dskl" with entities [EventEntity, EventEntity]
  1: 0x058A [0x00] END_REQSTACK()
```

### Event 65535.54

#### Metadata

| Field        | Value    |
|--------------|----------|
| Entrypoint   | 0x058B   |
| Data Size    | 16 bytes |
| Instructions | 2        |

```
      00 01 02 03 04 05 06 07  08 09 0A 0B 0C 0D 0E 0F
      -- -- -- -- -- -- -- --  -- -- -- -- -- -- -- --
0580:                                   5B 29 80 F8 FF             [)...
0590: FF 7F F8 FF FF 7F 64 73  74 30 00                 ......dst0.     
```

#### Opcodes

```
  0: 0x058B [0x5B] LOAD_EXT_SCHEDULER: Load scheduler "dst0" with entities [EventEntity, EventEntity], work=834*
  1: 0x059A [0x00] END_REQSTACK()
```

### Event 65535.55

#### Metadata

| Field        | Value    |
|--------------|----------|
| Entrypoint   | 0x059B   |
| Data Size    | 14 bytes |
| Instructions | 2        |

```
      00 01 02 03 04 05 06 07  08 09 0A 0B 0C 0D 0E 0F
      -- -- -- -- -- -- -- --  -- -- -- -- -- -- -- --
0590:                                   53 F8 FF FF 7F             S....
05A0: F8 FF FF 7F 64 73 74 30  00                       ....dst0.       
```

#### Opcodes

```
  0: 0x059B [0x53] WAIT_SCHEDULER_TASK: Wait for scheduler "dst0" with entities [EventEntity, EventEntity]
  1: 0x05A8 [0x00] END_REQSTACK()
```

### Event 65535.56

#### Metadata

| Field        | Value    |
|--------------|----------|
| Entrypoint   | 0x05A9   |
| Data Size    | 16 bytes |
| Instructions | 2        |

```
      00 01 02 03 04 05 06 07  08 09 0A 0B 0C 0D 0E 0F
      -- -- -- -- -- -- -- --  -- -- -- -- -- -- -- --
05A0:                             5B 29 80 F8 FF FF 7F           [).....
05B0: F8 FF FF 7F 64 73 74 31  00                       ....dst1.       
```

#### Opcodes

```
  0: 0x05A9 [0x5B] LOAD_EXT_SCHEDULER: Load scheduler "dst1" with entities [EventEntity, EventEntity], work=834*
  1: 0x05B8 [0x00] END_REQSTACK()
```

### Event 65535.57

#### Metadata

| Field        | Value    |
|--------------|----------|
| Entrypoint   | 0x05B9   |
| Data Size    | 14 bytes |
| Instructions | 2        |

```
      00 01 02 03 04 05 06 07  08 09 0A 0B 0C 0D 0E 0F
      -- -- -- -- -- -- -- --  -- -- -- -- -- -- -- --
05B0:                             53 F8 FF FF 7F F8 FF           S......
05C0: FF 7F 64 73 74 31 00                              ..dst1.         
```

#### Opcodes

```
  0: 0x05B9 [0x53] WAIT_SCHEDULER_TASK: Wait for scheduler "dst1" with entities [EventEntity, EventEntity]
  1: 0x05C6 [0x00] END_REQSTACK()
```

### Event 65535.58

#### Metadata

| Field        | Value    |
|--------------|----------|
| Entrypoint   | 0x05C7   |
| Data Size    | 22 bytes |
| Instructions | 3        |

```
      00 01 02 03 04 05 06 07  08 09 0A 0B 0C 0D 0E 0F
      -- -- -- -- -- -- -- --  -- -- -- -- -- -- -- --
05C0:                      81  00 F8 FF FF 7F 5B 29 80         ......[).
05D0: F8 FF FF 7F F8 FF FF 7F  64 73 63 30 00           ........dsc0.   
```

#### Opcodes

```
  0: 0x05C7 [0x81] SET_ENTITY_BLINKING(blink_flag=0x00, entity=EventEntity)
  1: 0x05CD [0x5B] LOAD_EXT_SCHEDULER: Load scheduler "dsc0" with entities [EventEntity, EventEntity], work=834*
  2: 0x05DC [0x00] END_REQSTACK()
```

### Event 65535.59

#### Metadata

| Field        | Value    |
|--------------|----------|
| Entrypoint   | 0x05DD   |
| Data Size    | 14 bytes |
| Instructions | 2        |

```
      00 01 02 03 04 05 06 07  08 09 0A 0B 0C 0D 0E 0F
      -- -- -- -- -- -- -- --  -- -- -- -- -- -- -- --
05D0:                                         53 F8 FF               S..
05E0: FF 7F F8 FF FF 7F 64 73  63 30 00                 ......dsc0.     
```

#### Opcodes

```
  0: 0x05DD [0x53] WAIT_SCHEDULER_TASK: Wait for scheduler "dsc0" with entities [EventEntity, EventEntity]
  1: 0x05EA [0x00] END_REQSTACK()
```

### Event 65535.60

