# 16982163 - Tateeya

## Common Data

| Field            | Value                          |
|------------------|--------------------------------|
| Zone             | Aht Urhgan Whitegate2 (ID: 50) |
| Block Size       | 1596 bytes                     |
| Total Events     | 85                             |
| References Count | 31                             |

## List of Events

| Event ID                    | Entrypoint   |   Size |   Instructions |
|-----------------------------|--------------|--------|----------------|
| [65535](#event-65535)       | 0x0000       |      1 |              1 |
| [65535.1](#event-65535-1)   | 0x0001       |     16 |              2 |
| [65535.2](#event-65535-2)   | 0x0011       |     14 |              2 |
| [65535.3](#event-65535-3)   | 0x001F       |     16 |              2 |
| [65535.4](#event-65535-4)   | 0x002F       |     14 |              2 |
| [65535.5](#event-65535-5)   | 0x003D       |     16 |              2 |
| [65535.6](#event-65535-6)   | 0x004D       |     14 |              2 |
| [65535.7](#event-65535-7)   | 0x005B       |     16 |              2 |
| [65535.8](#event-65535-8)   | 0x006B       |     14 |              2 |
| [65535.9](#event-65535-9)   | 0x0079       |     16 |              2 |
| [65535.10](#event-65535-10) | 0x0089       |     14 |              2 |
| [65535.11](#event-65535-11) | 0x0097       |     16 |              2 |
| [65535.12](#event-65535-12) | 0x00A7       |     14 |              2 |
| [65535.13](#event-65535-13) | 0x00B5       |     16 |              2 |
| [65535.14](#event-65535-14) | 0x00C5       |     14 |              2 |
| [65535.15](#event-65535-15) | 0x00D3       |     16 |              2 |
| [65535.16](#event-65535-16) | 0x00E3       |     14 |              2 |
| [65535.17](#event-65535-17) | 0x00F1       |     16 |              2 |
| [65535.18](#event-65535-18) | 0x0101       |     14 |              2 |
| [65535.19](#event-65535-19) | 0x010F       |     16 |              2 |
| [65535.20](#event-65535-20) | 0x011F       |     14 |              2 |
| [65535.21](#event-65535-21) | 0x012D       |     16 |              2 |
| [65535.22](#event-65535-22) | 0x013D       |     14 |              2 |
| [65535.23](#event-65535-23) | 0x014B       |     16 |              2 |
| [65535.24](#event-65535-24) | 0x015B       |     14 |              2 |
| [65535.25](#event-65535-25) | 0x0169       |     16 |              2 |
| [65535.26](#event-65535-26) | 0x0179       |     14 |              2 |
| [65535.27](#event-65535-27) | 0x0187       |     16 |              2 |
| [65535.28](#event-65535-28) | 0x0197       |     14 |              2 |
| [65535.29](#event-65535-29) | 0x01A5       |     16 |              2 |
| [65535.30](#event-65535-30) | 0x01B5       |     14 |              2 |
| [65535.31](#event-65535-31) | 0x01C3       |     16 |              2 |
| [65535.32](#event-65535-32) | 0x01D3       |     14 |              2 |
| [65535.33](#event-65535-33) | 0x01E1       |     16 |              2 |
| [65535.34](#event-65535-34) | 0x01F1       |     14 |              2 |
| [65535.35](#event-65535-35) | 0x01FF       |     16 |              2 |
| [65535.36](#event-65535-36) | 0x020F       |     14 |              2 |
| [65535.37](#event-65535-37) | 0x021D       |     16 |              2 |
| [65535.38](#event-65535-38) | 0x022D       |     14 |              2 |
| [65535.39](#event-65535-39) | 0x023B       |     16 |              2 |
| [65535.40](#event-65535-40) | 0x024B       |     14 |              2 |
| [65535.41](#event-65535-41) | 0x0259       |     16 |              2 |
| [65535.42](#event-65535-42) | 0x0269       |     14 |              2 |
| [65535.43](#event-65535-43) | 0x0277       |     57 |              5 |
| [65535.44](#event-65535-44) | 0x02B0       |     16 |              2 |
| [65535.45](#event-65535-45) | 0x02C0       |     14 |              2 |
| [65535.46](#event-65535-46) | 0x02CE       |     16 |              2 |
| [65535.47](#event-65535-47) | 0x02DE       |     14 |              2 |
| [65535.48](#event-65535-48) | 0x02EC       |     16 |              2 |
| [65535.49](#event-65535-49) | 0x02FC       |     14 |              2 |
| [65535.50](#event-65535-50) | 0x030A       |     16 |              2 |
| [65535.51](#event-65535-51) | 0x031A       |     14 |              2 |
| [65535.52](#event-65535-52) | 0x0328       |      9 |              3 |
| [65535.53](#event-65535-53) | 0x0331       |     16 |              2 |
| [65535.54](#event-65535-54) | 0x0341       |     14 |              2 |
| [65535.55](#event-65535-55) | 0x034F       |     16 |              2 |
| [65535.56](#event-65535-56) | 0x035F       |     14 |              2 |
| [65535.57](#event-65535-57) | 0x036D       |     16 |              2 |
| [65535.58](#event-65535-58) | 0x037D       |     14 |              2 |
| [180](#event-180)           | 0x038B       |      1 |              1 |
| [65535.59](#event-65535-59) | 0x038C       |     15 |              5 |
| [181](#event-181)           | 0x039B       |      1 |              1 |
| [65535.60](#event-65535-60) | 0x039C       |     22 |              8 |
| [184](#event-184)           | 0x03B2       |      1 |              1 |
| [186](#event-186)           | 0x03B3       |      1 |              1 |
| [65535.61](#event-65535-61) | 0x03B4       |     15 |              5 |
| [65535.62](#event-65535-62) | 0x03C3       |     15 |              5 |
| [65535.63](#event-65535-63) | 0x03D2       |     15 |              5 |
| [65535.64](#event-65535-64) | 0x03E1       |     22 |              8 |
| [187](#event-187)           | 0x03F7       |      1 |              1 |
| [190](#event-190)           | 0x03F8       |      1 |              1 |
| [192](#event-192)           | 0x03F9       |      1 |              1 |
| [193](#event-193)           | 0x03FA       |      1 |              1 |
| [194](#event-194)           | 0x03FB       |      1 |              1 |
| [65535.65](#event-65535-65) | 0x03FC       |     15 |              5 |
| [65535.66](#event-65535-66) | 0x040B       |     15 |              5 |
| [65535.67](#event-65535-67) | 0x041A       |     15 |              5 |
| [197](#event-197)           | 0x0429       |      1 |              1 |
| [208](#event-208)           | 0x042A       |      1 |              1 |
| [65535.68](#event-65535-68) | 0x042B       |     22 |              8 |
| [211](#event-211)           | 0x0441       |      1 |              1 |
| [212](#event-212)           | 0x0442       |      1 |              1 |
| [213](#event-213)           | 0x0443       |      1 |              1 |
| [216](#event-216)           | 0x0444       |      1 |              1 |
| [65535.69](#event-65535-69) | 0x0445       |     22 |              8 |

## DAT References (imed_data)

|   Index | Hex Value   |   Dec Value |
|---------|-------------|-------------|
|       0 | 0x000A      |          10 |
|       1 | 0x000D      |          13 |
|       2 | 0x000B      |          11 |
|       3 | 0x000C      |          12 |
|       4 | 0x003C      |          60 |
|       5 | 0x0013      |          19 |
|       6 | 0x81A3      |       33187 |
|       7 | 0xBB5A      |       47962 |
|       8 | 0xFFFFE3DD  |  4294960093 |
|       9 | 0x858F      |       34191 |
|      10 | 0xCDC5      |       52677 |
|      11 | 0xFFFFE184  |  4294959492 |
|      12 | 0x8DD1      |       36305 |
|      13 | 0xBD54      |       48468 |
|      14 | 0x8D3A      |       36154 |
|      15 | 0xC19E      |       49566 |
|      16 | 0xFFFFE2BD  |  4294959805 |
|      17 | 0x8E80      |       36480 |
|      18 | 0xD599      |       54681 |
|      19 | 0x05B5      |        1461 |
|      20 | 0x962E      |       38446 |
|      21 | 0x0000      |           0 |
|      22 | 0x23C78     |      146552 |
|      23 | 0x0993      |        2451 |
|      24 | 0xFFFFF830  |  4294965296 |
|      25 | 0x21BA8     |      138152 |
|      26 | 0x0985      |        2437 |
|      27 | 0x8849      |       34889 |
|      28 | 0xD398      |       54168 |
|      29 | 0x8AEB      |       35563 |
|      30 | 0xCE26      |       52774 |

## Events

### Event 65535

#### Metadata

| Field        | Value   |
|--------------|---------|
| Entrypoint   | 0x0000  |
| Data Size    | 1 bytes |
| Instructions | 1       |

```
      00 01 02 03 04 05 06 07  08 09 0A 0B 0C 0D 0E 0F
      -- -- -- -- -- -- -- --  -- -- -- -- -- -- -- --
0000: 00                                                .               
```

#### Opcodes

```
  0: 0x0000 [0x00] END_REQSTACK()
```

### Event 65535.1

#### Metadata

| Field        | Value    |
|--------------|----------|
| Entrypoint   | 0x0001   |
| Data Size    | 16 bytes |
| Instructions | 2        |

```
      00 01 02 03 04 05 06 07  08 09 0A 0B 0C 0D 0E 0F
      -- -- -- -- -- -- -- --  -- -- -- -- -- -- -- --
0000:    66 00 80 F8 FF FF 7F  F8 FF FF 7F 74 6C 6B 30   f..........tlk0
0010: 00                                                .               
```

#### Opcodes

```
  0: 0x0001 [0x66] LOAD_EXT_SCHEDULER_MAIN: Load scheduler "tlk0" with entities [EventEntity, EventEntity], work=10*
  1: 0x0010 [0x00] END_REQSTACK()
```

### Event 65535.2

#### Metadata

| Field        | Value    |
|--------------|----------|
| Entrypoint   | 0x0011   |
| Data Size    | 14 bytes |
| Instructions | 2        |

```
      00 01 02 03 04 05 06 07  08 09 0A 0B 0C 0D 0E 0F
      -- -- -- -- -- -- -- --  -- -- -- -- -- -- -- --
0010:    53 F8 FF FF 7F F8 FF  FF 7F 74 6C 6B 30 00      S........tlk0. 
```

#### Opcodes

```
  0: 0x0011 [0x53] WAIT_SCHEDULER_TASK: Wait for scheduler "tlk0" with entities [EventEntity, EventEntity]
  1: 0x001E [0x00] END_REQSTACK()
```

### Event 65535.3

#### Metadata

| Field        | Value    |
|--------------|----------|
| Entrypoint   | 0x001F   |
| Data Size    | 16 bytes |
| Instructions | 2        |

```
      00 01 02 03 04 05 06 07  08 09 0A 0B 0C 0D 0E 0F
      -- -- -- -- -- -- -- --  -- -- -- -- -- -- -- --
0010:                                               66                 f
0020: 00 80 F8 FF FF 7F F8 FF  FF 7F 74 6C 6B 31 00     ..........tlk1. 
```

#### Opcodes

```
  0: 0x001F [0x66] LOAD_EXT_SCHEDULER_MAIN: Load scheduler "tlk1" with entities [EventEntity, EventEntity], work=10*
  1: 0x002E [0x00] END_REQSTACK()
```

### Event 65535.4

#### Metadata

| Field        | Value    |
|--------------|----------|
| Entrypoint   | 0x002F   |
| Data Size    | 14 bytes |
| Instructions | 2        |

```
      00 01 02 03 04 05 06 07  08 09 0A 0B 0C 0D 0E 0F
      -- -- -- -- -- -- -- --  -- -- -- -- -- -- -- --
0020:                                               53                 S
0030: F8 FF FF 7F F8 FF FF 7F  74 6C 6B 31 00           ........tlk1.   
```

#### Opcodes

```
  0: 0x002F [0x53] WAIT_SCHEDULER_TASK: Wait for scheduler "tlk1" with entities [EventEntity, EventEntity]
  1: 0x003C [0x00] END_REQSTACK()
```

### Event 65535.5

#### Metadata

| Field        | Value    |
|--------------|----------|
| Entrypoint   | 0x003D   |
| Data Size    | 16 bytes |
| Instructions | 2        |

```
      00 01 02 03 04 05 06 07  08 09 0A 0B 0C 0D 0E 0F
      -- -- -- -- -- -- -- --  -- -- -- -- -- -- -- --
0030:                                         66 00 80               f..
0040: F8 FF FF 7F F8 FF FF 7F  70 61 73 30 00           ........pas0.   
```

#### Opcodes

```
  0: 0x003D [0x66] LOAD_EXT_SCHEDULER_MAIN: Load scheduler "pas0" with entities [EventEntity, EventEntity], work=10*
  1: 0x004C [0x00] END_REQSTACK()
```

### Event 65535.6

#### Metadata

| Field        | Value    |
|--------------|----------|
| Entrypoint   | 0x004D   |
| Data Size    | 14 bytes |
| Instructions | 2        |

```
      00 01 02 03 04 05 06 07  08 09 0A 0B 0C 0D 0E 0F
      -- -- -- -- -- -- -- --  -- -- -- -- -- -- -- --
0040:                                         53 F8 FF               S..
0050: FF 7F F8 FF FF 7F 70 61  73 30 00                 ......pas0.     
```

#### Opcodes

```
  0: 0x004D [0x53] WAIT_SCHEDULER_TASK: Wait for scheduler "pas0" with entities [EventEntity, EventEntity]
  1: 0x005A [0x00] END_REQSTACK()
```

### Event 65535.7

#### Metadata

| Field        | Value    |
|--------------|----------|
| Entrypoint   | 0x005B   |
| Data Size    | 16 bytes |
| Instructions | 2        |

```
      00 01 02 03 04 05 06 07  08 09 0A 0B 0C 0D 0E 0F
      -- -- -- -- -- -- -- --  -- -- -- -- -- -- -- --
0050:                                   66 01 80 F8 FF             f....
0060: FF 7F F8 FF FF 7F 74 6C  62 30 00                 ......tlb0.     
```

#### Opcodes

```
  0: 0x005B [0x66] LOAD_EXT_SCHEDULER_MAIN: Load scheduler "tlb0" with entities [EventEntity, EventEntity], work=13*
  1: 0x006A [0x00] END_REQSTACK()
```

### Event 65535.8

#### Metadata

| Field        | Value    |
|--------------|----------|
| Entrypoint   | 0x006B   |
| Data Size    | 14 bytes |
| Instructions | 2        |

```
      00 01 02 03 04 05 06 07  08 09 0A 0B 0C 0D 0E 0F
      -- -- -- -- -- -- -- --  -- -- -- -- -- -- -- --
0060:                                   53 F8 FF FF 7F             S....
0070: F8 FF FF 7F 74 6C 62 30  00                       ....tlb0.       
```

#### Opcodes

```
  0: 0x006B [0x53] WAIT_SCHEDULER_TASK: Wait for scheduler "tlb0" with entities [EventEntity, EventEntity]
  1: 0x0078 [0x00] END_REQSTACK()
```

### Event 65535.9

#### Metadata

| Field        | Value    |
|--------------|----------|
| Entrypoint   | 0x0079   |
| Data Size    | 16 bytes |
| Instructions | 2        |

```
      00 01 02 03 04 05 06 07  08 09 0A 0B 0C 0D 0E 0F
      -- -- -- -- -- -- -- --  -- -- -- -- -- -- -- --
0070:                             66 01 80 F8 FF FF 7F           f......
0080: F8 FF FF 7F 74 6C 62 31  00                       ....tlb1.       
```

#### Opcodes

```
  0: 0x0079 [0x66] LOAD_EXT_SCHEDULER_MAIN: Load scheduler "tlb1" with entities [EventEntity, EventEntity], work=13*
  1: 0x0088 [0x00] END_REQSTACK()
```

### Event 65535.10

#### Metadata

| Field        | Value    |
|--------------|----------|
| Entrypoint   | 0x0089   |
| Data Size    | 14 bytes |
| Instructions | 2        |

```
      00 01 02 03 04 05 06 07  08 09 0A 0B 0C 0D 0E 0F
      -- -- -- -- -- -- -- --  -- -- -- -- -- -- -- --
0080:                             53 F8 FF FF 7F F8 FF           S......
0090: FF 7F 74 6C 62 31 00                              ..tlb1.         
```

#### Opcodes

```
  0: 0x0089 [0x53] WAIT_SCHEDULER_TASK: Wait for scheduler "tlb1" with entities [EventEntity, EventEntity]
  1: 0x0096 [0x00] END_REQSTACK()
```

### Event 65535.11

#### Metadata

| Field        | Value    |
|--------------|----------|
| Entrypoint   | 0x0097   |
| Data Size    | 16 bytes |
| Instructions | 2        |

```
      00 01 02 03 04 05 06 07  08 09 0A 0B 0C 0D 0E 0F
      -- -- -- -- -- -- -- --  -- -- -- -- -- -- -- --
0090:                      66  00 80 F8 FF FF 7F F8 FF         f........
00A0: FF 7F 74 68 6B 30 00                              ..thk0.         
```

#### Opcodes

```
  0: 0x0097 [0x66] LOAD_EXT_SCHEDULER_MAIN: Load scheduler "thk0" with entities [EventEntity, EventEntity], work=10*
  1: 0x00A6 [0x00] END_REQSTACK()
```

### Event 65535.12

#### Metadata

| Field        | Value    |
|--------------|----------|
| Entrypoint   | 0x00A7   |
| Data Size    | 14 bytes |
| Instructions | 2        |

```
      00 01 02 03 04 05 06 07  08 09 0A 0B 0C 0D 0E 0F
      -- -- -- -- -- -- -- --  -- -- -- -- -- -- -- --
00A0:                      53  F8 FF FF 7F F8 FF FF 7F         S........
00B0: 74 68 6B 30 00                                    thk0.           
```

#### Opcodes

```
  0: 0x00A7 [0x53] WAIT_SCHEDULER_TASK: Wait for scheduler "thk0" with entities [EventEntity, EventEntity]
  1: 0x00B4 [0x00] END_REQSTACK()
```

### Event 65535.13

#### Metadata

| Field        | Value    |
|--------------|----------|
| Entrypoint   | 0x00B5   |
| Data Size    | 16 bytes |
| Instructions | 2        |

```
      00 01 02 03 04 05 06 07  08 09 0A 0B 0C 0D 0E 0F
      -- -- -- -- -- -- -- --  -- -- -- -- -- -- -- --
00B0:                66 00 80  F8 FF FF 7F F8 FF FF 7F       f..........
00C0: 74 68 6B 31 00                                    thk1.           
```

#### Opcodes

```
  0: 0x00B5 [0x66] LOAD_EXT_SCHEDULER_MAIN: Load scheduler "thk1" with entities [EventEntity, EventEntity], work=10*
  1: 0x00C4 [0x00] END_REQSTACK()
```

### Event 65535.14

#### Metadata

| Field        | Value    |
|--------------|----------|
| Entrypoint   | 0x00C5   |
| Data Size    | 14 bytes |
| Instructions | 2        |

```
      00 01 02 03 04 05 06 07  08 09 0A 0B 0C 0D 0E 0F
      -- -- -- -- -- -- -- --  -- -- -- -- -- -- -- --
00C0:                53 F8 FF  FF 7F F8 FF FF 7F 74 68       S........th
00D0: 6B 31 00                                          k1.             
```

#### Opcodes

```
  0: 0x00C5 [0x53] WAIT_SCHEDULER_TASK: Wait for scheduler "thk1" with entities [EventEntity, EventEntity]
  1: 0x00D2 [0x00] END_REQSTACK()
```

### Event 65535.15

#### Metadata

| Field        | Value    |
|--------------|----------|
| Entrypoint   | 0x00D3   |
| Data Size    | 16 bytes |
| Instructions | 2        |

```
      00 01 02 03 04 05 06 07  08 09 0A 0B 0C 0D 0E 0F
      -- -- -- -- -- -- -- --  -- -- -- -- -- -- -- --
00D0:          66 00 80 F8 FF  FF 7F F8 FF FF 7F 74 68     f..........th
00E0: 6B 32 00                                          k2.             
```

#### Opcodes

```
  0: 0x00D3 [0x66] LOAD_EXT_SCHEDULER_MAIN: Load scheduler "thk2" with entities [EventEntity, EventEntity], work=10*
  1: 0x00E2 [0x00] END_REQSTACK()
```

### Event 65535.16

#### Metadata

| Field        | Value    |
|--------------|----------|
| Entrypoint   | 0x00E3   |
| Data Size    | 14 bytes |
| Instructions | 2        |

```
      00 01 02 03 04 05 06 07  08 09 0A 0B 0C 0D 0E 0F
      -- -- -- -- -- -- -- --  -- -- -- -- -- -- -- --
00E0:          53 F8 FF FF 7F  F8 FF FF 7F 74 68 6B 32     S........thk2
00F0: 00                                                .               
```

#### Opcodes

```
  0: 0x00E3 [0x53] WAIT_SCHEDULER_TASK: Wait for scheduler "thk2" with entities [EventEntity, EventEntity]
  1: 0x00F0 [0x00] END_REQSTACK()
```

### Event 65535.17

#### Metadata

| Field        | Value    |
|--------------|----------|
| Entrypoint   | 0x00F1   |
| Data Size    | 16 bytes |
| Instructions | 2        |

```
      00 01 02 03 04 05 06 07  08 09 0A 0B 0C 0D 0E 0F
      -- -- -- -- -- -- -- --  -- -- -- -- -- -- -- --
00F0:    66 00 80 F8 FF FF 7F  F8 FF FF 7F 77 61 76 30   f..........wav0
0100: 00                                                .               
```

#### Opcodes

```
  0: 0x00F1 [0x66] LOAD_EXT_SCHEDULER_MAIN: Load scheduler "wav0" with entities [EventEntity, EventEntity], work=10*
  1: 0x0100 [0x00] END_REQSTACK()
```

### Event 65535.18

#### Metadata

| Field        | Value    |
|--------------|----------|
| Entrypoint   | 0x0101   |
| Data Size    | 14 bytes |
| Instructions | 2        |

```
      00 01 02 03 04 05 06 07  08 09 0A 0B 0C 0D 0E 0F
      -- -- -- -- -- -- -- --  -- -- -- -- -- -- -- --
0100:    53 F8 FF FF 7F F8 FF  FF 7F 77 61 76 30 00      S........wav0. 
```

#### Opcodes

```
  0: 0x0101 [0x53] WAIT_SCHEDULER_TASK: Wait for scheduler "wav0" with entities [EventEntity, EventEntity]
  1: 0x010E [0x00] END_REQSTACK()
```

### Event 65535.19

#### Metadata

| Field        | Value    |
|--------------|----------|
| Entrypoint   | 0x010F   |
| Data Size    | 16 bytes |
| Instructions | 2        |

```
      00 01 02 03 04 05 06 07  08 09 0A 0B 0C 0D 0E 0F
      -- -- -- -- -- -- -- --  -- -- -- -- -- -- -- --
0100:                                               66                 f
0110: 00 80 F8 FF FF 7F F8 FF  FF 7F 64 69 73 30 00     ..........dis0. 
```

#### Opcodes

```
  0: 0x010F [0x66] LOAD_EXT_SCHEDULER_MAIN: Load scheduler "dis0" with entities [EventEntity, EventEntity], work=10*
  1: 0x011E [0x00] END_REQSTACK()
```

### Event 65535.20

#### Metadata

| Field        | Value    |
|--------------|----------|
| Entrypoint   | 0x011F   |
| Data Size    | 14 bytes |
| Instructions | 2        |

```
      00 01 02 03 04 05 06 07  08 09 0A 0B 0C 0D 0E 0F
      -- -- -- -- -- -- -- --  -- -- -- -- -- -- -- --
0110:                                               53                 S
0120: F8 FF FF 7F F8 FF FF 7F  64 69 73 30 00           ........dis0.   
```

#### Opcodes

```
  0: 0x011F [0x53] WAIT_SCHEDULER_TASK: Wait for scheduler "dis0" with entities [EventEntity, EventEntity]
  1: 0x012C [0x00] END_REQSTACK()
```

### Event 65535.21

#### Metadata

| Field        | Value    |
|--------------|----------|
| Entrypoint   | 0x012D   |
| Data Size    | 16 bytes |
| Instructions | 2        |

```
      00 01 02 03 04 05 06 07  08 09 0A 0B 0C 0D 0E 0F
      -- -- -- -- -- -- -- --  -- -- -- -- -- -- -- --
0120:                                         66 02 80               f..
0130: F8 FF FF 7F F8 FF FF 7F  6B 61 73 30 00           ........kas0.   
```

#### Opcodes

```
  0: 0x012D [0x66] LOAD_EXT_SCHEDULER_MAIN: Load scheduler "kas0" with entities [EventEntity, EventEntity], work=11*
  1: 0x013C [0x00] END_REQSTACK()
```

### Event 65535.22

#### Metadata

| Field        | Value    |
|--------------|----------|
| Entrypoint   | 0x013D   |
| Data Size    | 14 bytes |
| Instructions | 2        |

```
      00 01 02 03 04 05 06 07  08 09 0A 0B 0C 0D 0E 0F
      -- -- -- -- -- -- -- --  -- -- -- -- -- -- -- --
0130:                                         53 F8 FF               S..
0140: FF 7F F8 FF FF 7F 6B 61  73 30 00                 ......kas0.     
```

#### Opcodes

```
  0: 0x013D [0x53] WAIT_SCHEDULER_TASK: Wait for scheduler "kas0" with entities [EventEntity, EventEntity]
  1: 0x014A [0x00] END_REQSTACK()
```

### Event 65535.23

#### Metadata

| Field        | Value    |
|--------------|----------|
| Entrypoint   | 0x014B   |
| Data Size    | 16 bytes |
| Instructions | 2        |

```
      00 01 02 03 04 05 06 07  08 09 0A 0B 0C 0D 0E 0F
      -- -- -- -- -- -- -- --  -- -- -- -- -- -- -- --
0140:                                   66 02 80 F8 FF             f....
0150: FF 7F F8 FF FF 7F 61 74  30 30 00                 ......at00.     
```

#### Opcodes

```
  0: 0x014B [0x66] LOAD_EXT_SCHEDULER_MAIN: Load scheduler "at00" with entities [EventEntity, EventEntity], work=11*
  1: 0x015A [0x00] END_REQSTACK()
```

### Event 65535.24

#### Metadata

| Field        | Value    |
|--------------|----------|
| Entrypoint   | 0x015B   |
| Data Size    | 14 bytes |
| Instructions | 2        |

```
      00 01 02 03 04 05 06 07  08 09 0A 0B 0C 0D 0E 0F
      -- -- -- -- -- -- -- --  -- -- -- -- -- -- -- --
0150:                                   53 F8 FF FF 7F             S....
0160: F8 FF FF 7F 61 74 30 30  00                       ....at00.       
```

#### Opcodes

```
  0: 0x015B [0x53] WAIT_SCHEDULER_TASK: Wait for scheduler "at00" with entities [EventEntity, EventEntity]
  1: 0x0168 [0x00] END_REQSTACK()
```

### Event 65535.25

#### Metadata

| Field        | Value    |
|--------------|----------|
| Entrypoint   | 0x0169   |
| Data Size    | 16 bytes |
| Instructions | 2        |

```
      00 01 02 03 04 05 06 07  08 09 0A 0B 0C 0D 0E 0F
      -- -- -- -- -- -- -- --  -- -- -- -- -- -- -- --
0160:                             66 02 80 F8 FF FF 7F           f......
0170: F8 FF FF 7F 62 74 6C 30  00                       ....btl0.       
```

#### Opcodes

```
  0: 0x0169 [0x66] LOAD_EXT_SCHEDULER_MAIN: Load scheduler "btl0" with entities [EventEntity, EventEntity], work=11*
  1: 0x0178 [0x00] END_REQSTACK()
```

### Event 65535.26

#### Metadata

| Field        | Value    |
|--------------|----------|
| Entrypoint   | 0x0179   |
| Data Size    | 14 bytes |
| Instructions | 2        |

```
      00 01 02 03 04 05 06 07  08 09 0A 0B 0C 0D 0E 0F
      -- -- -- -- -- -- -- --  -- -- -- -- -- -- -- --
0170:                             53 F8 FF FF 7F F8 FF           S......
0180: FF 7F 62 74 6C 30 00                              ..btl0.         
```

#### Opcodes

```
  0: 0x0179 [0x53] WAIT_SCHEDULER_TASK: Wait for scheduler "btl0" with entities [EventEntity, EventEntity]
  1: 0x0186 [0x00] END_REQSTACK()
```

### Event 65535.27

#### Metadata

| Field        | Value    |
|--------------|----------|
| Entrypoint   | 0x0187   |
| Data Size    | 16 bytes |
| Instructions | 2        |

```
      00 01 02 03 04 05 06 07  08 09 0A 0B 0C 0D 0E 0F
      -- -- -- -- -- -- -- --  -- -- -- -- -- -- -- --
0180:                      66  02 80 F8 FF FF 7F F8 FF         f........
0190: FF 7F 75 74 6C 30 00                              ..utl0.         
```

#### Opcodes

```
  0: 0x0187 [0x66] LOAD_EXT_SCHEDULER_MAIN: Load scheduler "utl0" with entities [EventEntity, EventEntity], work=11*
  1: 0x0196 [0x00] END_REQSTACK()
```

### Event 65535.28

#### Metadata

| Field        | Value    |
|--------------|----------|
| Entrypoint   | 0x0197   |
| Data Size    | 14 bytes |
| Instructions | 2        |

```
      00 01 02 03 04 05 06 07  08 09 0A 0B 0C 0D 0E 0F
      -- -- -- -- -- -- -- --  -- -- -- -- -- -- -- --
0190:                      53  F8 FF FF 7F F8 FF FF 7F         S........
01A0: 75 74 6C 30 00                                    utl0.           
```

#### Opcodes

```
  0: 0x0197 [0x53] WAIT_SCHEDULER_TASK: Wait for scheduler "utl0" with entities [EventEntity, EventEntity]
  1: 0x01A4 [0x00] END_REQSTACK()
```

### Event 65535.29

#### Metadata

| Field        | Value    |
|--------------|----------|
| Entrypoint   | 0x01A5   |
| Data Size    | 16 bytes |
| Instructions | 2        |

```
      00 01 02 03 04 05 06 07  08 09 0A 0B 0C 0D 0E 0F
      -- -- -- -- -- -- -- --  -- -- -- -- -- -- -- --
01A0:                66 02 80  F8 FF FF 7F F8 FF FF 7F       f..........
01B0: 75 74 6C 31 00                                    utl1.           
```

#### Opcodes

```
  0: 0x01A5 [0x66] LOAD_EXT_SCHEDULER_MAIN: Load scheduler "utl1" with entities [EventEntity, EventEntity], work=11*
  1: 0x01B4 [0x00] END_REQSTACK()
```

### Event 65535.30

#### Metadata

| Field        | Value    |
|--------------|----------|
| Entrypoint   | 0x01B5   |
| Data Size    | 14 bytes |
| Instructions | 2        |

```
      00 01 02 03 04 05 06 07  08 09 0A 0B 0C 0D 0E 0F
      -- -- -- -- -- -- -- --  -- -- -- -- -- -- -- --
01B0:                53 F8 FF  FF 7F F8 FF FF 7F 75 74       S........ut
01C0: 6C 31 00                                          l1.             
```

#### Opcodes

```
  0: 0x01B5 [0x53] WAIT_SCHEDULER_TASK: Wait for scheduler "utl1" with entities [EventEntity, EventEntity]
  1: 0x01C2 [0x00] END_REQSTACK()
```

### Event 65535.31

#### Metadata

| Field        | Value    |
|--------------|----------|
| Entrypoint   | 0x01C3   |
| Data Size    | 16 bytes |
| Instructions | 2        |

```
      00 01 02 03 04 05 06 07  08 09 0A 0B 0C 0D 0E 0F
      -- -- -- -- -- -- -- --  -- -- -- -- -- -- -- --
01C0:          66 02 80 F8 FF  FF 7F F8 FF FF 7F 6E 74     f..........nt
01D0: 6C 30 00                                          l0.             
```

#### Opcodes

```
  0: 0x01C3 [0x66] LOAD_EXT_SCHEDULER_MAIN: Load scheduler "ntl0" with entities [EventEntity, EventEntity], work=11*
  1: 0x01D2 [0x00] END_REQSTACK()
```

### Event 65535.32

#### Metadata

| Field        | Value    |
|--------------|----------|
| Entrypoint   | 0x01D3   |
| Data Size    | 14 bytes |
| Instructions | 2        |

```
      00 01 02 03 04 05 06 07  08 09 0A 0B 0C 0D 0E 0F
      -- -- -- -- -- -- -- --  -- -- -- -- -- -- -- --
01D0:          53 F8 FF FF 7F  F8 FF FF 7F 6E 74 6C 30     S........ntl0
01E0: 00                                                .               
```

#### Opcodes

```
  0: 0x01D3 [0x53] WAIT_SCHEDULER_TASK: Wait for scheduler "ntl0" with entities [EventEntity, EventEntity]
  1: 0x01E0 [0x00] END_REQSTACK()
```

### Event 65535.33

#### Metadata

| Field        | Value    |
|--------------|----------|
| Entrypoint   | 0x01E1   |
| Data Size    | 16 bytes |
| Instructions | 2        |

```
      00 01 02 03 04 05 06 07  08 09 0A 0B 0C 0D 0E 0F
      -- -- -- -- -- -- -- --  -- -- -- -- -- -- -- --
01E0:    66 02 80 F8 FF FF 7F  F8 FF FF 7F 6E 74 6C 31   f..........ntl1
01F0: 00                                                .               
```

#### Opcodes

```
  0: 0x01E1 [0x66] LOAD_EXT_SCHEDULER_MAIN: Load scheduler "ntl1" with entities [EventEntity, EventEntity], work=11*
  1: 0x01F0 [0x00] END_REQSTACK()
```

### Event 65535.34

#### Metadata

| Field        | Value    |
|--------------|----------|
| Entrypoint   | 0x01F1   |
| Data Size    | 14 bytes |
| Instructions | 2        |

```
      00 01 02 03 04 05 06 07  08 09 0A 0B 0C 0D 0E 0F
      -- -- -- -- -- -- -- --  -- -- -- -- -- -- -- --
01F0:    53 F8 FF FF 7F F8 FF  FF 7F 6E 74 6C 31 00      S........ntl1. 
```

#### Opcodes

```
  0: 0x01F1 [0x53] WAIT_SCHEDULER_TASK: Wait for scheduler "ntl1" with entities [EventEntity, EventEntity]
  1: 0x01FE [0x00] END_REQSTACK()
```

### Event 65535.35

#### Metadata

| Field        | Value    |
|--------------|----------|
| Entrypoint   | 0x01FF   |
| Data Size    | 16 bytes |
| Instructions | 2        |

```
      00 01 02 03 04 05 06 07  08 09 0A 0B 0C 0D 0E 0F
      -- -- -- -- -- -- -- --  -- -- -- -- -- -- -- --
01F0:                                               66                 f
0200: 02 80 F8 FF FF 7F F8 FF  FF 7F 6E 67 74 30 00     ..........ngt0. 
```

#### Opcodes

```
  0: 0x01FF [0x66] LOAD_EXT_SCHEDULER_MAIN: Load scheduler "ngt0" with entities [EventEntity, EventEntity], work=11*
  1: 0x020E [0x00] END_REQSTACK()
```

### Event 65535.36

#### Metadata

| Field        | Value    |
|--------------|----------|
| Entrypoint   | 0x020F   |
| Data Size    | 14 bytes |
| Instructions | 2        |

```
      00 01 02 03 04 05 06 07  08 09 0A 0B 0C 0D 0E 0F
      -- -- -- -- -- -- -- --  -- -- -- -- -- -- -- --
0200:                                               53                 S
0210: F8 FF FF 7F F8 FF FF 7F  6E 67 74 30 00           ........ngt0.   
```

#### Opcodes

```
  0: 0x020F [0x53] WAIT_SCHEDULER_TASK: Wait for scheduler "ngt0" with entities [EventEntity, EventEntity]
  1: 0x021C [0x00] END_REQSTACK()
```

### Event 65535.37

#### Metadata

| Field        | Value    |
|--------------|----------|
| Entrypoint   | 0x021D   |
| Data Size    | 16 bytes |
| Instructions | 2        |

```
      00 01 02 03 04 05 06 07  08 09 0A 0B 0C 0D 0E 0F
      -- -- -- -- -- -- -- --  -- -- -- -- -- -- -- --
0210:                                         66 02 80               f..
0220: F8 FF FF 7F F8 FF FF 7F  6E 67 74 31 00           ........ngt1.   
```

#### Opcodes

```
  0: 0x021D [0x66] LOAD_EXT_SCHEDULER_MAIN: Load scheduler "ngt1" with entities [EventEntity, EventEntity], work=11*
  1: 0x022C [0x00] END_REQSTACK()
```

### Event 65535.38

#### Metadata

| Field        | Value    |
|--------------|----------|
| Entrypoint   | 0x022D   |
| Data Size    | 14 bytes |
| Instructions | 2        |

```
      00 01 02 03 04 05 06 07  08 09 0A 0B 0C 0D 0E 0F
      -- -- -- -- -- -- -- --  -- -- -- -- -- -- -- --
0220:                                         53 F8 FF               S..
0230: FF 7F F8 FF FF 7F 6E 67  74 31 00                 ......ngt1.     
```

#### Opcodes

```
  0: 0x022D [0x53] WAIT_SCHEDULER_TASK: Wait for scheduler "ngt1" with entities [EventEntity, EventEntity]
  1: 0x023A [0x00] END_REQSTACK()
```

### Event 65535.39

#### Metadata

| Field        | Value    |
|--------------|----------|
| Entrypoint   | 0x023B   |
| Data Size    | 16 bytes |
| Instructions | 2        |

```
      00 01 02 03 04 05 06 07  08 09 0A 0B 0C 0D 0E 0F
      -- -- -- -- -- -- -- --  -- -- -- -- -- -- -- --
0230:                                   66 02 80 F8 FF             f....
0240: FF 7F F8 FF FF 7F 61 69  67 30 00                 ......aig0.     
```

#### Opcodes

```
  0: 0x023B [0x66] LOAD_EXT_SCHEDULER_MAIN: Load scheduler "aig0" with entities [EventEntity, EventEntity], work=11*
  1: 0x024A [0x00] END_REQSTACK()
```

### Event 65535.40

#### Metadata

| Field        | Value    |
|--------------|----------|
| Entrypoint   | 0x024B   |
| Data Size    | 14 bytes |
| Instructions | 2        |

```
      00 01 02 03 04 05 06 07  08 09 0A 0B 0C 0D 0E 0F
      -- -- -- -- -- -- -- --  -- -- -- -- -- -- -- --
0240:                                   53 F8 FF FF 7F             S....
0250: F8 FF FF 7F 61 69 67 30  00                       ....aig0.       
```

#### Opcodes

```
  0: 0x024B [0x53] WAIT_SCHEDULER_TASK: Wait for scheduler "aig0" with entities [EventEntity, EventEntity]
  1: 0x0258 [0x00] END_REQSTACK()
```

### Event 65535.41

#### Metadata

| Field        | Value    |
|--------------|----------|
| Entrypoint   | 0x0259   |
| Data Size    | 16 bytes |
| Instructions | 2        |

```
      00 01 02 03 04 05 06 07  08 09 0A 0B 0C 0D 0E 0F
      -- -- -- -- -- -- -- --  -- -- -- -- -- -- -- --
0250:                             66 02 80 F8 FF FF 7F           f......
0260: F8 FF FF 7F 61 69 67 31  00                       ....aig1.       
```

#### Opcodes

```
  0: 0x0259 [0x66] LOAD_EXT_SCHEDULER_MAIN: Load scheduler "aig1" with entities [EventEntity, EventEntity], work=11*
  1: 0x0268 [0x00] END_REQSTACK()
```

### Event 65535.42

#### Metadata

| Field        | Value    |
|--------------|----------|
| Entrypoint   | 0x0269   |
| Data Size    | 14 bytes |
| Instructions | 2        |

```
      00 01 02 03 04 05 06 07  08 09 0A 0B 0C 0D 0E 0F
      -- -- -- -- -- -- -- --  -- -- -- -- -- -- -- --
0260:                             53 F8 FF FF 7F F8 FF           S......
0270: FF 7F 61 69 67 31 00                              ..aig1.         
```

#### Opcodes

```
  0: 0x0269 [0x53] WAIT_SCHEDULER_TASK: Wait for scheduler "aig1" with entities [EventEntity, EventEntity]
  1: 0x0276 [0x00] END_REQSTACK()
```

### Event 65535.43

#### Metadata

| Field        | Value    |
|--------------|----------|
| Entrypoint   | 0x0277   |
| Data Size    | 57 bytes |
| Instructions | 5        |

```
      00 01 02 03 04 05 06 07  08 09 0A 0B 0C 0D 0E 0F
      -- -- -- -- -- -- -- --  -- -- -- -- -- -- -- --
0270:                      66  02 80 F8 FF FF 7F F8 FF         f........
0280: FF 7F 61 69 67 30 53 F8  FF FF 7F F8 FF FF 7F 61  ..aig0S........a
0290: 69 67 30 66 02 80 F8 FF  FF 7F F8 FF FF 7F 61 69  ig0f..........ai
02A0: 67 31 53 F8 FF FF 7F F8  FF FF 7F 61 69 67 31 00  g1S........aig1.
```

#### Opcodes

```
  0: 0x0277 [0x66] LOAD_EXT_SCHEDULER_MAIN: Load scheduler "aig0" with entities [EventEntity, EventEntity], work=11*
  1: 0x0286 [0x53] WAIT_SCHEDULER_TASK: Wait for scheduler "aig0" with entities [EventEntity, EventEntity]
  2: 0x0293 [0x66] LOAD_EXT_SCHEDULER_MAIN: Load scheduler "aig1" with entities [EventEntity, EventEntity], work=11*
  3: 0x02A2 [0x53] WAIT_SCHEDULER_TASK: Wait for scheduler "aig1" with entities [EventEntity, EventEntity]
  4: 0x02AF [0x00] END_REQSTACK()
```

### Event 65535.44

#### Metadata

| Field        | Value    |
|--------------|----------|
| Entrypoint   | 0x02B0   |
| Data Size    | 16 bytes |
| Instructions | 2        |

```
      00 01 02 03 04 05 06 07  08 09 0A 0B 0C 0D 0E 0F
      -- -- -- -- -- -- -- --  -- -- -- -- -- -- -- --
02B0: 66 02 80 F8 FF FF 7F F8  FF FF 7F 75 6E 7A 30 00  f..........unz0.
```

#### Opcodes

```
  0: 0x02B0 [0x66] LOAD_EXT_SCHEDULER_MAIN: Load scheduler "unz0" with entities [EventEntity, EventEntity], work=11*
  1: 0x02BF [0x00] END_REQSTACK()
```

### Event 65535.45

#### Metadata

| Field        | Value    |
|--------------|----------|
| Entrypoint   | 0x02C0   |
| Data Size    | 14 bytes |
| Instructions | 2        |

```
      00 01 02 03 04 05 06 07  08 09 0A 0B 0C 0D 0E 0F
      -- -- -- -- -- -- -- --  -- -- -- -- -- -- -- --
02C0: 53 F8 FF FF 7F F8 FF FF  7F 75 6E 7A 30 00        S........unz0.  
```

#### Opcodes

```
  0: 0x02C0 [0x53] WAIT_SCHEDULER_TASK: Wait for scheduler "unz0" with entities [EventEntity, EventEntity]
  1: 0x02CD [0x00] END_REQSTACK()
```

### Event 65535.46

#### Metadata

| Field        | Value    |
|--------------|----------|
| Entrypoint   | 0x02CE   |
| Data Size    | 16 bytes |
| Instructions | 2        |

```
      00 01 02 03 04 05 06 07  08 09 0A 0B 0C 0D 0E 0F
      -- -- -- -- -- -- -- --  -- -- -- -- -- -- -- --
02C0:                                            66 03                f.
02D0: 80 F8 FF FF 7F F8 FF FF  7F 64 6B 30 30 00        .........dk00.  
```

#### Opcodes

```
  0: 0x02CE [0x66] LOAD_EXT_SCHEDULER_MAIN: Load scheduler "dk00" with entities [EventEntity, EventEntity], work=12*
  1: 0x02DD [0x00] END_REQSTACK()
```

### Event 65535.47

#### Metadata

| Field        | Value    |
|--------------|----------|
| Entrypoint   | 0x02DE   |
| Data Size    | 14 bytes |
| Instructions | 2        |

```
      00 01 02 03 04 05 06 07  08 09 0A 0B 0C 0D 0E 0F
      -- -- -- -- -- -- -- --  -- -- -- -- -- -- -- --
02D0:                                            53 F8                S.
02E0: FF FF 7F F8 FF FF 7F 64  6B 30 30 00              .......dk00.    
```

#### Opcodes

```
  0: 0x02DE [0x53] WAIT_SCHEDULER_TASK: Wait for scheduler "dk00" with entities [EventEntity, EventEntity]
  1: 0x02EB [0x00] END_REQSTACK()
```

### Event 65535.48

#### Metadata

| Field        | Value    |
|--------------|----------|
| Entrypoint   | 0x02EC   |
| Data Size    | 16 bytes |
| Instructions | 2        |

```
      00 01 02 03 04 05 06 07  08 09 0A 0B 0C 0D 0E 0F
      -- -- -- -- -- -- -- --  -- -- -- -- -- -- -- --
02E0:                                      66 03 80 F8              f...
02F0: FF FF 7F F8 FF FF 7F 64  6B 30 31 00              .......dk01.    
```

#### Opcodes

```
  0: 0x02EC [0x66] LOAD_EXT_SCHEDULER_MAIN: Load scheduler "dk01" with entities [EventEntity, EventEntity], work=12*
  1: 0x02FB [0x00] END_REQSTACK()
```

### Event 65535.49

#### Metadata

| Field        | Value    |
|--------------|----------|
| Entrypoint   | 0x02FC   |
| Data Size    | 14 bytes |
| Instructions | 2        |

```
      00 01 02 03 04 05 06 07  08 09 0A 0B 0C 0D 0E 0F
      -- -- -- -- -- -- -- --  -- -- -- -- -- -- -- --
02F0:                                      53 F8 FF FF              S...
0300: 7F F8 FF FF 7F 64 6B 30  31 00                    .....dk01.      
```

#### Opcodes

```
  0: 0x02FC [0x53] WAIT_SCHEDULER_TASK: Wait for scheduler "dk01" with entities [EventEntity, EventEntity]
  1: 0x0309 [0x00] END_REQSTACK()
```

### Event 65535.50

#### Metadata

| Field        | Value    |
|--------------|----------|
| Entrypoint   | 0x030A   |
| Data Size    | 16 bytes |
| Instructions | 2        |

```
      00 01 02 03 04 05 06 07  08 09 0A 0B 0C 0D 0E 0F
      -- -- -- -- -- -- -- --  -- -- -- -- -- -- -- --
0300:                                66 03 80 F8 FF FF            f.....
0310: 7F F8 FF FF 7F 64 6B 75  30 00                    .....dku0.      
```

#### Opcodes

```
  0: 0x030A [0x66] LOAD_EXT_SCHEDULER_MAIN: Load scheduler "dku0" with entities [EventEntity, EventEntity], work=12*
  1: 0x0319 [0x00] END_REQSTACK()
```

### Event 65535.51

#### Metadata

| Field        | Value    |
|--------------|----------|
| Entrypoint   | 0x031A   |
| Data Size    | 14 bytes |
| Instructions | 2        |

```
      00 01 02 03 04 05 06 07  08 09 0A 0B 0C 0D 0E 0F
      -- -- -- -- -- -- -- --  -- -- -- -- -- -- -- --
0310:                                53 F8 FF FF 7F F8            S.....
0320: FF FF 7F 64 6B 75 30 00                           ...dku0.        
```

#### Opcodes

```
  0: 0x031A [0x53] WAIT_SCHEDULER_TASK: Wait for scheduler "dku0" with entities [EventEntity, EventEntity]
  1: 0x0327 [0x00] END_REQSTACK()
```

### Event 65535.52

#### Metadata

| Field        | Value   |
|--------------|---------|
| Entrypoint   | 0x0328  |
| Data Size    | 9 bytes |
| Instructions | 3       |

```
      00 01 02 03 04 05 06 07  08 09 0A 0B 0C 0D 0E 0F
      -- -- -- -- -- -- -- --  -- -- -- -- -- -- -- --
0320:                          5E 69 64 6C 30 1C 04 80          ^idl0...
0330: 00                                                .               
```

#### Opcodes

```
  0: 0x0328 [0x5E] EventEntity goes idle (kills current action) (animation: "idl0")
  1: 0x032D [0x1C] WAIT(60* ticks)
  2: 0x0330 [0x00] END_REQSTACK()
```

### Event 65535.53

#### Metadata

| Field        | Value    |
|--------------|----------|
| Entrypoint   | 0x0331   |
| Data Size    | 16 bytes |
| Instructions | 2        |

```
      00 01 02 03 04 05 06 07  08 09 0A 0B 0C 0D 0E 0F
      -- -- -- -- -- -- -- --  -- -- -- -- -- -- -- --
0330:    66 05 80 F8 FF FF 7F  F8 FF FF 7F 73 68 61 30   f..........sha0
0340: 00                                                .               
```

#### Opcodes

```
  0: 0x0331 [0x66] LOAD_EXT_SCHEDULER_MAIN: Load scheduler "sha0" with entities [EventEntity, EventEntity], work=19*
  1: 0x0340 [0x00] END_REQSTACK()
```

### Event 65535.54

#### Metadata

| Field        | Value    |
|--------------|----------|
| Entrypoint   | 0x0341   |
| Data Size    | 14 bytes |
| Instructions | 2        |

```
      00 01 02 03 04 05 06 07  08 09 0A 0B 0C 0D 0E 0F
      -- -- -- -- -- -- -- --  -- -- -- -- -- -- -- --
0340:    53 F8 FF FF 7F F8 FF  FF 7F 73 68 61 30 00      S........sha0. 
```

#### Opcodes

```
  0: 0x0341 [0x53] WAIT_SCHEDULER_TASK: Wait for scheduler "sha0" with entities [EventEntity, EventEntity]
  1: 0x034E [0x00] END_REQSTACK()
```

### Event 65535.55

#### Metadata

| Field        | Value    |
|--------------|----------|
| Entrypoint   | 0x034F   |
| Data Size    | 16 bytes |
| Instructions | 2        |

```
      00 01 02 03 04 05 06 07  08 09 0A 0B 0C 0D 0E 0F
      -- -- -- -- -- -- -- --  -- -- -- -- -- -- -- --
0340:                                               66                 f
0350: 05 80 F8 FF FF 7F F8 FF  FF 7F 73 68 61 31 00     ..........sha1. 
```

#### Opcodes

```
  0: 0x034F [0x66] LOAD_EXT_SCHEDULER_MAIN: Load scheduler "sha1" with entities [EventEntity, EventEntity], work=19*
  1: 0x035E [0x00] END_REQSTACK()
```

### Event 65535.56

#### Metadata

| Field        | Value    |
|--------------|----------|
| Entrypoint   | 0x035F   |
| Data Size    | 14 bytes |
| Instructions | 2        |

```
      00 01 02 03 04 05 06 07  08 09 0A 0B 0C 0D 0E 0F
      -- -- -- -- -- -- -- --  -- -- -- -- -- -- -- --
0350:                                               53                 S
0360: F8 FF FF 7F F8 FF FF 7F  73 68 61 31 00           ........sha1.   
```

#### Opcodes

```
  0: 0x035F [0x53] WAIT_SCHEDULER_TASK: Wait for scheduler "sha1" with entities [EventEntity, EventEntity]
  1: 0x036C [0x00] END_REQSTACK()
```

### Event 65535.57

#### Metadata

| Field        | Value    |
|--------------|----------|
| Entrypoint   | 0x036D   |
| Data Size    | 16 bytes |
| Instructions | 2        |

```
      00 01 02 03 04 05 06 07  08 09 0A 0B 0C 0D 0E 0F
      -- -- -- -- -- -- -- --  -- -- -- -- -- -- -- --
0360:                                         66 05 80               f..
0370: F8 FF FF 7F F8 FF FF 7F  73 68 61 6C 00           ........shal.   
```

#### Opcodes

```
  0: 0x036D [0x66] LOAD_EXT_SCHEDULER_MAIN: Load scheduler "shal" with entities [EventEntity, EventEntity], work=19*
  1: 0x037C [0x00] END_REQSTACK()
```

### Event 65535.58

#### Metadata

| Field        | Value    |
|--------------|----------|
| Entrypoint   | 0x037D   |
| Data Size    | 14 bytes |
| Instructions | 2        |

```
      00 01 02 03 04 05 06 07  08 09 0A 0B 0C 0D 0E 0F
      -- -- -- -- -- -- -- --  -- -- -- -- -- -- -- --
0370:                                         53 F8 FF               S..
0380: FF 7F F8 FF FF 7F 73 68  61 6C 00                 ......shal.     
```

#### Opcodes

```
  0: 0x037D [0x53] WAIT_SCHEDULER_TASK: Wait for scheduler "shal" with entities [EventEntity, EventEntity]
  1: 0x038A [0x00] END_REQSTACK()
```

### Event 180

#### Metadata

| Field        | Value   |
|--------------|---------|
| Entrypoint   | 0x038B  |
| Data Size    | 1 bytes |
| Instructions | 1       |

```
      00 01 02 03 04 05 06 07  08 09 0A 0B 0C 0D 0E 0F
      -- -- -- -- -- -- -- --  -- -- -- -- -- -- -- --
0380:                                   00                         .    
```

#### Opcodes

```
  0: 0x038B [0x00] END_REQSTACK()
```

### Event 65535.59

#### Metadata

| Field        | Value    |
|--------------|----------|
| Entrypoint   | 0x038C   |
| Data Size    | 15 bytes |
| Instructions | 5        |

```
      00 01 02 03 04 05 06 07  08 09 0A 0B 0C 0D 0E 0F
      -- -- -- -- -- -- -- --  -- -- -- -- -- -- -- --
0380:                                      32 01 80 1F              2...
0390: 00 06 80 07 80 08 80 1F  01 6F 00                 .........o.     
```

#### Opcodes

```
  0: 0x038C [0x32] ExtData[1]->MainSpeed = 13* * 0.1
  1: 0x038F [0x1F] MOVE_ENTITY: EventEntity moves to X=33.187*, Z=47.962*, Y=-7.203*
  2: 0x0397 [0x1F] MOVE_ENTITY: Update entity position (mode=1)
  3: 0x0399 [0x6F] WAIT_FRAME_DELAY: Yield until WaitTime reaches zero
  4: 0x039A [0x00] END_REQSTACK()
```

### Event 181

#### Metadata

| Field        | Value   |
|--------------|---------|
| Entrypoint   | 0x039B  |
| Data Size    | 1 bytes |
| Instructions | 1       |

```
      00 01 02 03 04 05 06 07  08 09 0A 0B 0C 0D 0E 0F
      -- -- -- -- -- -- -- --  -- -- -- -- -- -- -- --
0390:                                   00                         .    
```

#### Opcodes

```
  0: 0x039B [0x00] END_REQSTACK()
```

### Event 65535.60

#### Metadata

| Field        | Value    |
|--------------|----------|
| Entrypoint   | 0x039C   |
| Data Size    | 22 bytes |
| Instructions | 8        |

```
      00 01 02 03 04 05 06 07  08 09 0A 0B 0C 0D 0E 0F
      -- -- -- -- -- -- -- --  -- -- -- -- -- -- -- --
0390:                                      32 01 80 1F              2...
03A0: 00 09 80 0A 80 0B 80 1F  01 6F 1E F0 FF FF 7F 6F  .........o.....o
03B0: 70 00                                             p.              
```

#### Opcodes

```
  0: 0x039C [0x32] ExtData[1]->MainSpeed = 13* * 0.1
  1: 0x039F [0x1F] MOVE_ENTITY: EventEntity moves to X=34.191*, Z=52.677*, Y=-7.804*
  2: 0x03A7 [0x1F] MOVE_ENTITY: Update entity position (mode=1)
  3: 0x03A9 [0x6F] WAIT_FRAME_DELAY: Yield until WaitTime reaches zero
  4: 0x03AA [0x1E] EventEntity looks at LocalPlayer and starts talking
  5: 0x03AF [0x6F] WAIT_FRAME_DELAY: Yield until WaitTime reaches zero
  6: 0x03B0 [0x70] WAIT_ENTITY_RENDER_FLAG: Wait while EventEntity->Render.Flags3 bit 2 is set (cancel turn if not)
  7: 0x03B1 [0x00] END_REQSTACK()
```

### Event 184

#### Metadata

| Field        | Value   |
|--------------|---------|
| Entrypoint   | 0x03B2  |
| Data Size    | 1 bytes |
| Instructions | 1       |

```
      00 01 02 03 04 05 06 07  08 09 0A 0B 0C 0D 0E 0F
      -- -- -- -- -- -- -- --  -- -- -- -- -- -- -- --
03B0:       00                                            .             
```

#### Opcodes

```
  0: 0x03B2 [0x00] END_REQSTACK()
```

### Event 186

#### Metadata

| Field        | Value   |
|--------------|---------|
| Entrypoint   | 0x03B3  |
| Data Size    | 1 bytes |
| Instructions | 1       |

```
      00 01 02 03 04 05 06 07  08 09 0A 0B 0C 0D 0E 0F
      -- -- -- -- -- -- -- --  -- -- -- -- -- -- -- --
03B0:          00                                          .            
```

#### Opcodes

```
  0: 0x03B3 [0x00] END_REQSTACK()
```

### Event 65535.61

#### Metadata

| Field        | Value    |
|--------------|----------|
| Entrypoint   | 0x03B4   |
| Data Size    | 15 bytes |
| Instructions | 5        |

```
      00 01 02 03 04 05 06 07  08 09 0A 0B 0C 0D 0E 0F
      -- -- -- -- -- -- -- --  -- -- -- -- -- -- -- --
03B0:             32 01 80 1F  00 0C 80 0D 80 08 80 1F      2...........
03C0: 01 6F 00                                          .o.             
```

#### Opcodes

```
  0: 0x03B4 [0x32] ExtData[1]->MainSpeed = 13* * 0.1
  1: 0x03B7 [0x1F] MOVE_ENTITY: EventEntity moves to X=36.305*, Z=48.468*, Y=-7.203*
  2: 0x03BF [0x1F] MOVE_ENTITY: Update entity position (mode=1)
  3: 0x03C1 [0x6F] WAIT_FRAME_DELAY: Yield until WaitTime reaches zero
  4: 0x03C2 [0x00] END_REQSTACK()
```

### Event 65535.62

#### Metadata

| Field        | Value    |
|--------------|----------|
| Entrypoint   | 0x03C3   |
| Data Size    | 15 bytes |
| Instructions | 5        |

```
      00 01 02 03 04 05 06 07  08 09 0A 0B 0C 0D 0E 0F
      -- -- -- -- -- -- -- --  -- -- -- -- -- -- -- --
03C0:          32 01 80 1F 00  0E 80 0F 80 10 80 1F 01     2............
03D0: 6F 00                                             o.              
```

#### Opcodes

```
  0: 0x03C3 [0x32] ExtData[1]->MainSpeed = 13* * 0.1
  1: 0x03C6 [0x1F] MOVE_ENTITY: EventEntity moves to X=36.154*, Z=49.566*, Y=-7.491*
  2: 0x03CE [0x1F] MOVE_ENTITY: Update entity position (mode=1)
  3: 0x03D0 [0x6F] WAIT_FRAME_DELAY: Yield until WaitTime reaches zero
  4: 0x03D1 [0x00] END_REQSTACK()
```

### Event 65535.63

#### Metadata

| Field        | Value    |
|--------------|----------|
| Entrypoint   | 0x03D2   |
| Data Size    | 15 bytes |
| Instructions | 5        |

```
      00 01 02 03 04 05 06 07  08 09 0A 0B 0C 0D 0E 0F
      -- -- -- -- -- -- -- --  -- -- -- -- -- -- -- --
03D0:       32 01 80 1F 00 11  80 12 80 0B 80 1F 01 6F    2............o
03E0: 00                                                .               
```

#### Opcodes

```
  0: 0x03D2 [0x32] ExtData[1]->MainSpeed = 13* * 0.1
  1: 0x03D5 [0x1F] MOVE_ENTITY: EventEntity moves to X=36.480*, Z=54.681*, Y=-7.804*
  2: 0x03DD [0x1F] MOVE_ENTITY: Update entity position (mode=1)
  3: 0x03DF [0x6F] WAIT_FRAME_DELAY: Yield until WaitTime reaches zero
  4: 0x03E0 [0x00] END_REQSTACK()
```

### Event 65535.64

#### Metadata

| Field        | Value    |
|--------------|----------|
| Entrypoint   | 0x03E1   |
| Data Size    | 22 bytes |
| Instructions | 8        |

```
      00 01 02 03 04 05 06 07  08 09 0A 0B 0C 0D 0E 0F
      -- -- -- -- -- -- -- --  -- -- -- -- -- -- -- --
03E0:    32 01 80 1F 00 0C 80  0D 80 08 80 1F 01 6F 1E   2............o.
03F0: F0 FF FF 7F 6F 70 00                              ....op.         
```

#### Opcodes

```
  0: 0x03E1 [0x32] ExtData[1]->MainSpeed = 13* * 0.1
  1: 0x03E4 [0x1F] MOVE_ENTITY: EventEntity moves to X=36.305*, Z=48.468*, Y=-7.203*
  2: 0x03EC [0x1F] MOVE_ENTITY: Update entity position (mode=1)
  3: 0x03EE [0x6F] WAIT_FRAME_DELAY: Yield until WaitTime reaches zero
  4: 0x03EF [0x1E] EventEntity looks at LocalPlayer and starts talking
  5: 0x03F4 [0x6F] WAIT_FRAME_DELAY: Yield until WaitTime reaches zero
  6: 0x03F5 [0x70] WAIT_ENTITY_RENDER_FLAG: Wait while EventEntity->Render.Flags3 bit 2 is set (cancel turn if not)
  7: 0x03F6 [0x00] END_REQSTACK()
```

### Event 187

#### Metadata

| Field        | Value   |
|--------------|---------|
| Entrypoint   | 0x03F7  |
| Data Size    | 1 bytes |
| Instructions | 1       |

```
      00 01 02 03 04 05 06 07  08 09 0A 0B 0C 0D 0E 0F
      -- -- -- -- -- -- -- --  -- -- -- -- -- -- -- --
03F0:                      00                                  .        
```

#### Opcodes

```
  0: 0x03F7 [0x00] END_REQSTACK()
```

### Event 190

#### Metadata

| Field        | Value   |
|--------------|---------|
| Entrypoint   | 0x03F8  |
| Data Size    | 1 bytes |
| Instructions | 1       |

```
      00 01 02 03 04 05 06 07  08 09 0A 0B 0C 0D 0E 0F
      -- -- -- -- -- -- -- --  -- -- -- -- -- -- -- --
03F0:                          00                               .       
```

#### Opcodes

```
  0: 0x03F8 [0x00] END_REQSTACK()
```

### Event 192

#### Metadata

| Field        | Value   |
|--------------|---------|
| Entrypoint   | 0x03F9  |
| Data Size    | 1 bytes |
| Instructions | 1       |

```
      00 01 02 03 04 05 06 07  08 09 0A 0B 0C 0D 0E 0F
      -- -- -- -- -- -- -- --  -- -- -- -- -- -- -- --
03F0:                             00                             .      
```

#### Opcodes

```
  0: 0x03F9 [0x00] END_REQSTACK()
```

### Event 193

#### Metadata

| Field        | Value   |
|--------------|---------|
| Entrypoint   | 0x03FA  |
| Data Size    | 1 bytes |
| Instructions | 1       |

```
      00 01 02 03 04 05 06 07  08 09 0A 0B 0C 0D 0E 0F
      -- -- -- -- -- -- -- --  -- -- -- -- -- -- -- --
03F0:                                00                           .     
```

#### Opcodes

```
  0: 0x03FA [0x00] END_REQSTACK()
```

### Event 194

#### Metadata

| Field        | Value   |
|--------------|---------|
| Entrypoint   | 0x03FB  |
| Data Size    | 1 bytes |
| Instructions | 1       |

```
      00 01 02 03 04 05 06 07  08 09 0A 0B 0C 0D 0E 0F
      -- -- -- -- -- -- -- --  -- -- -- -- -- -- -- --
03F0:                                   00                         .    
```

#### Opcodes

```
  0: 0x03FB [0x00] END_REQSTACK()
```

### Event 65535.65

#### Metadata

| Field        | Value    |
|--------------|----------|
| Entrypoint   | 0x03FC   |
| Data Size    | 15 bytes |
| Instructions | 5        |

```
      00 01 02 03 04 05 06 07  08 09 0A 0B 0C 0D 0E 0F
      -- -- -- -- -- -- -- --  -- -- -- -- -- -- -- --
03F0:                                      32 01 80 1F              2...
0400: 00 13 80 14 80 15 80 1F  01 6F 00                 .........o.     
```

#### Opcodes

```
  0: 0x03FC [0x32] ExtData[1]->MainSpeed = 13* * 0.1
  1: 0x03FF [0x1F] MOVE_ENTITY: EventEntity moves to X=1.461*, Z=38.446*, Y=0.000*
  2: 0x0407 [0x1F] MOVE_ENTITY: Update entity position (mode=1)
  3: 0x0409 [0x6F] WAIT_FRAME_DELAY: Yield until WaitTime reaches zero
  4: 0x040A [0x00] END_REQSTACK()
```

### Event 65535.66

#### Metadata

| Field        | Value    |
|--------------|----------|
| Entrypoint   | 0x040B   |
| Data Size    | 15 bytes |
| Instructions | 5        |

```
      00 01 02 03 04 05 06 07  08 09 0A 0B 0C 0D 0E 0F
      -- -- -- -- -- -- -- --  -- -- -- -- -- -- -- --
0400:                                   32 01 80 1F 00             2....
0410: 16 80 17 80 18 80 1F 01  6F 00                    ........o.      
```

#### Opcodes

```
  0: 0x040B [0x32] ExtData[1]->MainSpeed = 13* * 0.1
  1: 0x040E [0x1F] MOVE_ENTITY: EventEntity moves to X=146.552*, Z=2.451*, Y=-2.000*
  2: 0x0416 [0x1F] MOVE_ENTITY: Update entity position (mode=1)
  3: 0x0418 [0x6F] WAIT_FRAME_DELAY: Yield until WaitTime reaches zero
  4: 0x0419 [0x00] END_REQSTACK()
```

### Event 65535.67

#### Metadata

| Field        | Value    |
|--------------|----------|
| Entrypoint   | 0x041A   |
| Data Size    | 15 bytes |
| Instructions | 5        |

```
      00 01 02 03 04 05 06 07  08 09 0A 0B 0C 0D 0E 0F
      -- -- -- -- -- -- -- --  -- -- -- -- -- -- -- --
0410:                                32 01 80 1F 00 19            2.....
0420: 80 1A 80 18 80 1F 01 6F  00                       .......o.       
```

#### Opcodes

```
  0: 0x041A [0x32] ExtData[1]->MainSpeed = 13* * 0.1
  1: 0x041D [0x1F] MOVE_ENTITY: EventEntity moves to X=138.152*, Z=2.437*, Y=-2.000*
  2: 0x0425 [0x1F] MOVE_ENTITY: Update entity position (mode=1)
  3: 0x0427 [0x6F] WAIT_FRAME_DELAY: Yield until WaitTime reaches zero
  4: 0x0428 [0x00] END_REQSTACK()
```

### Event 197

#### Metadata

| Field        | Value   |
|--------------|---------|
| Entrypoint   | 0x0429  |
| Data Size    | 1 bytes |
| Instructions | 1       |

```
      00 01 02 03 04 05 06 07  08 09 0A 0B 0C 0D 0E 0F
      -- -- -- -- -- -- -- --  -- -- -- -- -- -- -- --
0420:                             00                             .      
```

#### Opcodes

```
  0: 0x0429 [0x00] END_REQSTACK()
```

### Event 208

#### Metadata

| Field        | Value   |
|--------------|---------|
| Entrypoint   | 0x042A  |
| Data Size    | 1 bytes |
| Instructions | 1       |

```
      00 01 02 03 04 05 06 07  08 09 0A 0B 0C 0D 0E 0F
      -- -- -- -- -- -- -- --  -- -- -- -- -- -- -- --
0420:                                00                           .     
```

#### Opcodes

```
  0: 0x042A [0x00] END_REQSTACK()
```

### Event 65535.68

#### Metadata

| Field        | Value    |
|--------------|----------|
| Entrypoint   | 0x042B   |
| Data Size    | 22 bytes |
| Instructions | 8        |

```
      00 01 02 03 04 05 06 07  08 09 0A 0B 0C 0D 0E 0F
      -- -- -- -- -- -- -- --  -- -- -- -- -- -- -- --
0420:                                   32 01 80 1F 00             2....
0430: 1B 80 1C 80 0B 80 1F 01  6F 1E 95 20 03 01 6F 70  ........o.. ..op
0440: 00                                                .               
```

#### Opcodes

```
  0: 0x042B [0x32] ExtData[1]->MainSpeed = 13* * 0.1
  1: 0x042E [0x1F] MOVE_ENTITY: EventEntity moves to X=34.889*, Z=54.168*, Y=-7.804*
  2: 0x0436 [0x1F] MOVE_ENTITY: Update entity position (mode=1)
  3: 0x0438 [0x6F] WAIT_FRAME_DELAY: Yield until WaitTime reaches zero
  4: 0x0439 [0x1E] EventEntity looks at Ghatsad (ID: 16982165/0x01032095) and starts talking
  5: 0x043E [0x6F] WAIT_FRAME_DELAY: Yield until WaitTime reaches zero
  6: 0x043F [0x70] WAIT_ENTITY_RENDER_FLAG: Wait while EventEntity->Render.Flags3 bit 2 is set (cancel turn if not)
  7: 0x0440 [0x00] END_REQSTACK()
```

### Event 211

#### Metadata

| Field        | Value   |
|--------------|---------|
| Entrypoint   | 0x0441  |
| Data Size    | 1 bytes |
| Instructions | 1       |

```
      00 01 02 03 04 05 06 07  08 09 0A 0B 0C 0D 0E 0F
      -- -- -- -- -- -- -- --  -- -- -- -- -- -- -- --
0440:    00                                              .              
```

#### Opcodes

```
  0: 0x0441 [0x00] END_REQSTACK()
```

### Event 212

#### Metadata

| Field        | Value   |
|--------------|---------|
| Entrypoint   | 0x0442  |
| Data Size    | 1 bytes |
| Instructions | 1       |

```
      00 01 02 03 04 05 06 07  08 09 0A 0B 0C 0D 0E 0F
      -- -- -- -- -- -- -- --  -- -- -- -- -- -- -- --
0440:       00                                            .             
```

#### Opcodes

```
  0: 0x0442 [0x00] END_REQSTACK()
```

### Event 213

#### Metadata

| Field        | Value   |
|--------------|---------|
| Entrypoint   | 0x0443  |
| Data Size    | 1 bytes |
| Instructions | 1       |

```
      00 01 02 03 04 05 06 07  08 09 0A 0B 0C 0D 0E 0F
      -- -- -- -- -- -- -- --  -- -- -- -- -- -- -- --
0440:          00                                          .            
```

#### Opcodes

```
  0: 0x0443 [0x00] END_REQSTACK()
```

### Event 216

#### Metadata

| Field        | Value   |
|--------------|---------|
| Entrypoint   | 0x0444  |
| Data Size    | 1 bytes |
| Instructions | 1       |

```
      00 01 02 03 04 05 06 07  08 09 0A 0B 0C 0D 0E 0F
      -- -- -- -- -- -- -- --  -- -- -- -- -- -- -- --
0440:             00                                        .           
```

#### Opcodes

```
  0: 0x0444 [0x00] END_REQSTACK()
```

### Event 65535.69

#### Metadata

| Field        | Value    |
|--------------|----------|
| Entrypoint   | 0x0445   |
| Data Size    | 22 bytes |
| Instructions | 8        |

```
      00 01 02 03 04 05 06 07  08 09 0A 0B 0C 0D 0E 0F
      -- -- -- -- -- -- -- --  -- -- -- -- -- -- -- --
0440:                32 01 80  1F 00 1D 80 1E 80 0B 80       2..........
0450: 1F 01 6F 1E 80 22 03 01  6F 70 00                 ..o.."..op.     
```

#### Opcodes

```
  0: 0x0445 [0x32] ExtData[1]->MainSpeed = 13* * 0.1
  1: 0x0448 [0x1F] MOVE_ENTITY: EventEntity moves to X=35.563*, Z=52.774*, Y=-7.804*
  2: 0x0450 [0x1F] MOVE_ENTITY: Update entity position (mode=1)
  3: 0x0452 [0x6F] WAIT_FRAME_DELAY: Yield until WaitTime reaches zero
  4: 0x0453 [0x1E] EventEntity looks at Memorian (ID: 16982656/0x01032280) and starts talking
  5: 0x0458 [0x6F] WAIT_FRAME_DELAY: Yield until WaitTime reaches zero
  6: 0x0459 [0x70] WAIT_ENTITY_RENDER_FLAG: Wait while EventEntity->Render.Flags3 bit 2 is set (cancel turn if not)
  7: 0x045A [0x00] END_REQSTACK()
```
