# 16982576 - Shaeema

## Common Data

| Field            | Value                          |
|------------------|--------------------------------|
| Zone             | Aht Urhgan Whitegate2 (ID: 50) |
| Block Size       | 124 bytes                      |
| Total Events     | 5                              |
| References Count | 6                              |

## List of Events

| Event ID                  | Entrypoint   |   Size |   Instructions |
|---------------------------|--------------|--------|----------------|
| [65535](#event-65535)     | 0x0000       |      1 |              1 |
| [920](#event-920)         | 0x0001       |      1 |              1 |
| [65535.1](#event-65535-1) | 0x0002       |     18 |              4 |
| [65535.2](#event-65535-2) | 0x0014       |     18 |              4 |
| [65535.3](#event-65535-3) | 0x0026       |     23 |              7 |

## DAT References (imed_data)

|   Index | Hex Value   |   Dec Value |
|---------|-------------|-------------|
|       0 | 0x000B      |          11 |
|       1 | 0x001E      |          30 |
|       2 | 0x000D      |          13 |
|       3 | 0x141EE     |       82414 |
|       4 | 0xFFFE0F76  |  4294840182 |
|       5 | 0xFFFFE890  |  4294961296 |

## Events

### Event 65535

#### Metadata

| Field        | Value   |
|--------------|---------|
| Entrypoint   | 0x0000  |
| Data Size    | 1 bytes |
| Instructions | 1       |

```
      00 01 02 03 04 05 06 07  08 09 0A 0B 0C 0D 0E 0F
      -- -- -- -- -- -- -- --  -- -- -- -- -- -- -- --
0000: 00                                                .               
```

#### Opcodes

```
  0: 0x0000 [0x00] END_REQSTACK()
```

### Event 920

#### Metadata

| Field        | Value   |
|--------------|---------|
| Entrypoint   | 0x0001  |
| Data Size    | 1 bytes |
| Instructions | 1       |

```
      00 01 02 03 04 05 06 07  08 09 0A 0B 0C 0D 0E 0F
      -- -- -- -- -- -- -- --  -- -- -- -- -- -- -- --
0000:    00                                              .              
```

#### Opcodes

```
  0: 0x0001 [0x00] END_REQSTACK()
```

### Event 65535.1

#### Metadata

| Field        | Value    |
|--------------|----------|
| Entrypoint   | 0x0002   |
| Data Size    | 18 bytes |
| Instructions | 4        |

```
      00 01 02 03 04 05 06 07  08 09 0A 0B 0C 0D 0E 0F
      -- -- -- -- -- -- -- --  -- -- -- -- -- -- -- --
0000:       6E 30 22 03 01 00  80 99 30 22 03 01 99 30    n0".....0"...0
0010: 22 03 01 00                                       "...            
```

#### Opcodes

```
  0: 0x0002 [0x6E] Shaeema (ID: 16982576/0x01032230) uses emote 11*
  1: 0x0009 [0x99] Wait for Shaeema (ID: 16982576/0x01032230) animation to complete
  2: 0x000E [0x99] Wait for Shaeema (ID: 16982576/0x01032230) animation to complete
  3: 0x0013 [0x00] END_REQSTACK()
```

### Event 65535.2

#### Metadata

| Field        | Value    |
|--------------|----------|
| Entrypoint   | 0x0014   |
| Data Size    | 18 bytes |
| Instructions | 4        |

```
      00 01 02 03 04 05 06 07  08 09 0A 0B 0C 0D 0E 0F
      -- -- -- -- -- -- -- --  -- -- -- -- -- -- -- --
0010:             6E 30 22 03  01 00 80 99 30 22 03 01      n0".....0"..
0020: 99 30 22 03 01 00                                 .0"...          
```

#### Opcodes

```
  0: 0x0014 [0x6E] Shaeema (ID: 16982576/0x01032230) uses emote 11*
  1: 0x001B [0x99] Wait for Shaeema (ID: 16982576/0x01032230) animation to complete
  2: 0x0020 [0x99] Wait for Shaeema (ID: 16982576/0x01032230) animation to complete
  3: 0x0025 [0x00] END_REQSTACK()
```

### Event 65535.3

#### Metadata

| Field        | Value    |
|--------------|----------|
| Entrypoint   | 0x0026   |
| Data Size    | 23 bytes |
| Instructions | 7        |

```
      00 01 02 03 04 05 06 07  08 09 0A 0B 0C 0D 0E 0F
      -- -- -- -- -- -- -- --  -- -- -- -- -- -- -- --
0020:                   1C 01  80 32 02 80 1F 00 03 80        ...2......
0030: 04 80 05 80 1F 01 6F 1E  5C 21 03 01 00           ......o.\!...   
```

#### Opcodes

```
  0: 0x0026 [0x1C] WAIT(30* ticks)
  1: 0x0029 [0x32] ExtData[1]->MainSpeed = 13* * 0.1
  2: 0x002C [0x1F] MOVE_ENTITY: EventEntity moves to X=82.414*, Z=-127.114*, Y=-6.000*
  3: 0x0034 [0x1F] MOVE_ENTITY: Update entity position (mode=1)
  4: 0x0036 [0x6F] WAIT_FRAME_DELAY: Yield until WaitTime reaches zero
  5: 0x0037 [0x1E] EventEntity looks at Fari-Wari (ID: 16982364/0x0103215C) and starts talking
  6: 0x003C [0x00] END_REQSTACK()
```
