# 16982322 - Wahboud

## Common Data

| Field            | Value                          |
|------------------|--------------------------------|
| Zone             | Aht Urhgan Whitegate2 (ID: 50) |
| Block Size       | 544 bytes                      |
| Total Events     | 15                             |
| References Count | 48                             |

## List of Events

| Event ID                   | Entrypoint   |   Size |   Instructions |
|----------------------------|--------------|--------|----------------|
| [65535](#event-65535)      | 0x0000       |      1 |              1 |
| [65535.1](#event-655351)   | 0x0001       |     24 |              3 |
| [65535.2](#event-655352)   | 0x0019       |     22 |              3 |
| [65535.3](#event-655353)   | 0x002F       |     15 |              3 |
| [65535.4](#event-655354)   | 0x003E       |     13 |              3 |
| [269](#event-269)          | 0x004B       |      1 |              1 |
| [65535.5](#event-655355)   | 0x004C       |     15 |              3 |
| [65535.6](#event-655356)   | 0x005B       |     34 |              8 |
| [65535.7](#event-655357)   | 0x007D       |     31 |              7 |
| [65535.8](#event-655358)   | 0x009C       |     19 |              5 |
| [65535.9](#event-655359)   | 0x00AF       |     14 |              4 |
| [65535.10](#event-6553510) | 0x00BD       |     20 |              4 |
| [65535.11](#event-6553511) | 0x00D1       |     35 |              7 |
| [65535.12](#event-6553512) | 0x00F4       |     15 |              3 |
| [65535.13](#event-6553513) | 0x0103       |     14 |              4 |

## DAT References (imed_data)

|   Index | Hex Value   |   Dec Value |
|---------|-------------|-------------|
|       0 | 0x0000      |           0 |
|       1 | 0x0001      |           1 |
|       2 | 0x0010      |          16 |
|       3 | 0x010E      |         270 |
|       4 | 0x72209     |      467465 |
|       5 | 0x39AFB     |      236283 |
|       6 | 0xFFFFA35A  |  4294943578 |
|       7 | 0x0418      |        1048 |
|       8 | 0x002B      |          43 |
|       9 | 0x1BBCC     |      113612 |
|      10 | 0x45BE      |       17854 |
|      11 | 0x07C2      |        1986 |
|      12 | 0x0078      |         120 |
|      13 | 0x0028      |          40 |
|      14 | 0x1B05D     |      110685 |
|      15 | 0x432E      |       17198 |
|      16 | 0x001E      |          30 |
|      17 | 0x000D      |          13 |
|      18 | 0x1B41B     |      111643 |
|      19 | 0x516F      |       20847 |
|      20 | 0xFFFFFE04  |  4294966788 |
|      21 | 0x1B575     |      111989 |
|      22 | 0x6F8E      |       28558 |
|      23 | 0xFFFFFEBA  |  4294966970 |
|      24 | 0x1D932     |      121138 |
|      25 | 0x75FC      |       30204 |
|      26 | 0xFFFFFEC5  |  4294966981 |
|      27 | 0x1DF64     |      122724 |
|      28 | 0x7942      |       31042 |
|      29 | 0xFFFCDB5F  |  4294761311 |
|      30 | 0xFFF414C9  |  4294186185 |
|      31 | 0xFFFFD31B  |  4294955803 |
|      32 | 0x09BF      |        2495 |
|      33 | 0xFFFD3495  |  4294784149 |
|      34 | 0xFFF363A0  |  4294140832 |
|      35 | 0xFFFFE8EA  |  4294961386 |
|      36 | 0x0414      |        1044 |
|      37 | 0xFFFD3D4E  |  4294786382 |
|      38 | 0xFFF3539D  |  4294136733 |
|      39 | 0xFFFFECEA  |  4294962410 |
|      40 | 0x0373      |         883 |
|      41 | 0xFFFB2CB7  |  4294651063 |
|      42 | 0xFFFAD26C  |  4294627948 |
|      43 | 0xFFFFDB00  |  4294957824 |
|      44 | 0x0782      |        1922 |
|      45 | 0xFFFAE42C  |  4294632492 |
|      46 | 0xFFFAC868  |  4294625384 |
|      47 | 0xFFFFDBDC  |  4294958044 |

## Events

### Event 65535

#### Metadata

| Field        | Value   |
|--------------|---------|
| Entrypoint   | 0x0000  |
| Data Size    | 1 bytes |
| Instructions | 1       |

```
      00 01 02 03 04 05 06 07  08 09 0A 0B 0C 0D 0E 0F
      -- -- -- -- -- -- -- --  -- -- -- -- -- -- -- --
0000: 00                                                .               
```

#### Opcodes

```
  0: 0x0000 [0x00] END_REQSTACK()
```

### Event 65535.1

#### Metadata

| Field        | Value    |
|--------------|----------|
| Entrypoint   | 0x0001   |
| Data Size    | 24 bytes |
| Instructions | 3        |

```
      00 01 02 03 04 05 06 07  08 09 0A 0B 0C 0D 0E 0F
      -- -- -- -- -- -- -- --  -- -- -- -- -- -- -- --
0000:    95 00 80 B6 0B 01 80  00 80 00 80 02 80 02 80   ...............
0010: 02 80 02 80 03 80 00 80  00                       .........       
```

#### Opcodes

```
  0: 0x0001 [0x95] SETUP_EVENT_NPC: Prepare NPC for event (Render.Flags3 = 0*)
  1: 0x0004 [0xB6] ENTITY_APPEARANCE_HANDLER(case=Full entity look, race=1*, hair=0*, head=0*, body=16*, hands=16*, legs=16*, feet=16*, main=270*, sub=0*)
  2: 0x0018 [0x00] END_REQSTACK()
```

### Event 65535.2

#### Metadata

| Field        | Value    |
|--------------|----------|
| Entrypoint   | 0x0019   |
| Data Size    | 22 bytes |
| Instructions | 3        |

```
      00 01 02 03 04 05 06 07  08 09 0A 0B 0C 0D 0E 0F
      -- -- -- -- -- -- -- --  -- -- -- -- -- -- -- --
0010:                             96 B6 0B 01 80 00 80           .......
0020: 00 80 02 80 02 80 02 80  02 80 00 80 00 80 00     ............... 
```

#### Opcodes

```
  0: 0x0019 [0x96] UNSET_EVENT_NPC: Restore NPC after event (removes event NPC status)
  1: 0x001A [0xB6] ENTITY_APPEARANCE_HANDLER(case=Full entity look, race=1*, hair=0*, head=0*, body=16*, hands=16*, legs=16*, feet=16*, main=0*, sub=0*)
  2: 0x002E [0x00] END_REQSTACK()
```

### Event 65535.3

#### Metadata

| Field        | Value    |
|--------------|----------|
| Entrypoint   | 0x002F   |
| Data Size    | 15 bytes |
| Instructions | 3        |

```
      00 01 02 03 04 05 06 07  08 09 0A 0B 0C 0D 0E 0F
      -- -- -- -- -- -- -- --  -- -- -- -- -- -- -- --
0020:                                               37                 7
0030: 04 80 05 80 06 80 07 80  80 F8 FF FF 7F 00        ..............  
```

#### Opcodes

```
  0: 0x002F [0x37] UPDATE_EVENT_POSITION_AND_DIR: x=467.465*, z=236.283*, y=-23.718*, direction=92.1°*
  1: 0x0038 [0x80] LOAD_WAIT(entity=EventEntity)
  2: 0x003D [0x00] END_REQSTACK()
```

### Event 65535.4

#### Metadata

| Field        | Value    |
|--------------|----------|
| Entrypoint   | 0x003E   |
| Data Size    | 13 bytes |
| Instructions | 3        |

```
      00 01 02 03 04 05 06 07  08 09 0A 0B 0C 0D 0E 0F
      -- -- -- -- -- -- -- --  -- -- -- -- -- -- -- --
0030:                                            6E 32                n2
0040: 21 03 01 08 80 99 32 21  03 01 00                 !.....2!...     
```

#### Opcodes

```
  0: 0x003E [0x6E] Wahboud (ID: 16982322/0x01032132) uses emote 43*
  1: 0x0045 [0x99] Wait for Wahboud (ID: 16982322/0x01032132) animation to complete
  2: 0x004A [0x00] END_REQSTACK()
```

### Event 269

#### Metadata

| Field        | Value   |
|--------------|---------|
| Entrypoint   | 0x004B  |
| Data Size    | 1 bytes |
| Instructions | 1       |

```
      00 01 02 03 04 05 06 07  08 09 0A 0B 0C 0D 0E 0F
      -- -- -- -- -- -- -- --  -- -- -- -- -- -- -- --
0040:                                   00                         .    
```

#### Opcodes

```
  0: 0x004B [0x00] END_REQSTACK()
```

### Event 65535.5

#### Metadata

| Field        | Value    |
|--------------|----------|
| Entrypoint   | 0x004C   |
| Data Size    | 15 bytes |
| Instructions | 3        |

```
      00 01 02 03 04 05 06 07  08 09 0A 0B 0C 0D 0E 0F
      -- -- -- -- -- -- -- --  -- -- -- -- -- -- -- --
0040:                                      37 09 80 0A              7...
0050: 80 00 80 0B 80 80 F8 FF  FF 7F 00                 ...........     
```

#### Opcodes

```
  0: 0x004C [0x37] UPDATE_EVENT_POSITION_AND_DIR: x=113.612*, z=17.854*, y=0.000*, direction=174.5°*
  1: 0x0055 [0x80] LOAD_WAIT(entity=EventEntity)
  2: 0x005A [0x00] END_REQSTACK()
```

### Event 65535.6

#### Metadata

| Field        | Value    |
|--------------|----------|
| Entrypoint   | 0x005B   |
| Data Size    | 34 bytes |
| Instructions | 8        |

```
      00 01 02 03 04 05 06 07  08 09 0A 0B 0C 0D 0E 0F
      -- -- -- -- -- -- -- --  -- -- -- -- -- -- -- --
0050:                                   1C 0C 80 4A 30             ...J0
0060: 21 03 01 32 21 03 01 32  0D 80 1F 00 0E 80 0F 80  !..2!..2........
0070: 00 80 1F 01 1E 30 21 03  01 1C 10 80 00           .....0!......   
```

#### Opcodes

```
  0: 0x005B [0x1C] WAIT(120* ticks)
  1: 0x005E [0x4A] Bashraf (ID: 16982320/0x01032130) looks at Wahboud (ID: 16982322/0x01032132)
  2: 0x0067 [0x32] ExtData[1]->MainSpeed = 40* * 0.1
  3: 0x006A [0x1F] MOVE_ENTITY: EventEntity moves to X=110.685*, Z=17.198*, Y=0.000*
  4: 0x0072 [0x1F] MOVE_ENTITY: Update entity position (mode=1)
  5: 0x0074 [0x1E] EventEntity looks at Bashraf (ID: 16982320/0x01032130) and starts talking
  6: 0x0079 [0x1C] WAIT(30* ticks)
  7: 0x007C [0x00] END_REQSTACK()
```

### Event 65535.7

#### Metadata

| Field        | Value    |
|--------------|----------|
| Entrypoint   | 0x007D   |
| Data Size    | 31 bytes |
| Instructions | 7        |

```
      00 01 02 03 04 05 06 07  08 09 0A 0B 0C 0D 0E 0F
      -- -- -- -- -- -- -- --  -- -- -- -- -- -- -- --
0070:                                         32 11 80               2..
0080: 1F 00 12 80 13 80 14 80  1F 01 1F 00 15 80 16 80  ................
0090: 17 80 1F 01 27 05 34 20  03 01 03 00              ....'.4 ....    
```

#### Opcodes

```
  0: 0x007D [0x32] ExtData[1]->MainSpeed = 13* * 0.1
  1: 0x0080 [0x1F] MOVE_ENTITY: EventEntity moves to X=111.643*, Z=20.847*, Y=-0.508*
  2: 0x0088 [0x1F] MOVE_ENTITY: Update entity position (mode=1)
  3: 0x008A [0x1F] MOVE_ENTITY: EventEntity moves to X=111.989*, Z=28.558*, Y=-0.326*
  4: 0x0092 [0x1F] MOVE_ENTITY: Update entity position (mode=1)
  5: 0x0094 [0x27] REQ_SET(priority=0x05, entity_id=Door: Chamber of Passage (ID: 16982068/0x01032034), tag_num=0x03)
  6: 0x009B [0x00] END_REQSTACK()
```

### Event 65535.8

#### Metadata

| Field        | Value    |
|--------------|----------|
| Entrypoint   | 0x009C   |
| Data Size    | 19 bytes |
| Instructions | 5        |

```
      00 01 02 03 04 05 06 07  08 09 0A 0B 0C 0D 0E 0F
      -- -- -- -- -- -- -- --  -- -- -- -- -- -- -- --
0090:                                      32 11 80 1F              2...
00A0: 00 18 80 19 80 1A 80 1F  01 1E 35 20 03 01 00     ..........5 ... 
```

#### Opcodes

```
  0: 0x009C [0x32] ExtData[1]->MainSpeed = 13* * 0.1
  1: 0x009F [0x1F] MOVE_ENTITY: EventEntity moves to X=121.138*, Z=30.204*, Y=-0.315*
  2: 0x00A7 [0x1F] MOVE_ENTITY: Update entity position (mode=1)
  3: 0x00A9 [0x1E] EventEntity looks at Sharin-Garin (ID: 16982069/0x01032035) and starts talking
  4: 0x00AE [0x00] END_REQSTACK()
```

### Event 65535.9

#### Metadata

| Field        | Value    |
|--------------|----------|
| Entrypoint   | 0x00AF   |
| Data Size    | 14 bytes |
| Instructions | 4        |

```
      00 01 02 03 04 05 06 07  08 09 0A 0B 0C 0D 0E 0F
      -- -- -- -- -- -- -- --  -- -- -- -- -- -- -- --
00A0:                                               32                 2
00B0: 11 80 1F 00 1B 80 1C 80  1A 80 1F 01 00           .............   
```

#### Opcodes

```
  0: 0x00AF [0x32] ExtData[1]->MainSpeed = 13* * 0.1
  1: 0x00B2 [0x1F] MOVE_ENTITY: EventEntity moves to X=122.724*, Z=31.042*, Y=-0.315*
  2: 0x00BA [0x1F] MOVE_ENTITY: Update entity position (mode=1)
  3: 0x00BC [0x00] END_REQSTACK()
```

### Event 65535.10

#### Metadata

| Field        | Value    |
|--------------|----------|
| Entrypoint   | 0x00BD   |
| Data Size    | 20 bytes |
| Instructions | 4        |

```
      00 01 02 03 04 05 06 07  08 09 0A 0B 0C 0D 0E 0F
      -- -- -- -- -- -- -- --  -- -- -- -- -- -- -- --
00B0:                                         37 1D 80               7..
00C0: 1E 80 1F 80 20 80 80 F8  FF FF 7F 1E A5 20 03 01  .... ........ ..
00D0: 00                                                .               
```

#### Opcodes

```
  0: 0x00BD [0x37] UPDATE_EVENT_POSITION_AND_DIR: x=-205.985*, z=-781.111*, y=-11.493*, direction=219.3°*
  1: 0x00C6 [0x80] LOAD_WAIT(entity=EventEntity)
  2: 0x00CB [0x1E] EventEntity looks at Unnamed NPC (ID: 16982181/0x010320A5) and starts talking
  3: 0x00D0 [0x00] END_REQSTACK()
```

### Event 65535.11

#### Metadata

| Field        | Value    |
|--------------|----------|
| Entrypoint   | 0x00D1   |
| Data Size    | 35 bytes |
| Instructions | 7        |

```
      00 01 02 03 04 05 06 07  08 09 0A 0B 0C 0D 0E 0F
      -- -- -- -- -- -- -- --  -- -- -- -- -- -- -- --
00D0:    37 21 80 22 80 23 80  24 80 80 F8 FF FF 7F 32   7!.".#.$......2
00E0: 11 80 1F 00 25 80 26 80  27 80 1F 01 4B 32 21 03  ....%.&.'...K2!.
00F0: 01 28 80 00                                       .(..            
```

#### Opcodes

```
  0: 0x00D1 [0x37] UPDATE_EVENT_POSITION_AND_DIR: x=-183.147*, z=-826.464*, y=-5.910*, direction=91.8°*
  1: 0x00DA [0x80] LOAD_WAIT(entity=EventEntity)
  2: 0x00DF [0x32] ExtData[1]->MainSpeed = 13* * 0.1
  3: 0x00E2 [0x1F] MOVE_ENTITY: EventEntity moves to X=-180.914*, Z=-830.563*, Y=-4.886*
  4: 0x00EA [0x1F] MOVE_ENTITY: Update entity position (mode=1)
  5: 0x00EC [0x4B] UPDATE_ENTITY_YAW(entity=Wahboud (ID: 16982322/0x01032132), yaw=4.9°*)
  6: 0x00F3 [0x00] END_REQSTACK()
```

### Event 65535.12

#### Metadata

| Field        | Value    |
|--------------|----------|
| Entrypoint   | 0x00F4   |
| Data Size    | 15 bytes |
| Instructions | 3        |

```
      00 01 02 03 04 05 06 07  08 09 0A 0B 0C 0D 0E 0F
      -- -- -- -- -- -- -- --  -- -- -- -- -- -- -- --
00F0:             37 29 80 2A  80 2B 80 2C 80 80 F8 FF      7).*.+.,....
0100: FF 7F 00                                          ...             
```

#### Opcodes

```
  0: 0x00F4 [0x37] UPDATE_EVENT_POSITION_AND_DIR: x=-316.233*, z=-339.348*, y=-9.472*, direction=168.9°*
  1: 0x00FD [0x80] LOAD_WAIT(entity=EventEntity)
  2: 0x0102 [0x00] END_REQSTACK()
```

### Event 65535.13

#### Metadata

| Field        | Value    |
|--------------|----------|
| Entrypoint   | 0x0103   |
| Data Size    | 14 bytes |
| Instructions | 4        |

```
      00 01 02 03 04 05 06 07  08 09 0A 0B 0C 0D 0E 0F
      -- -- -- -- -- -- -- --  -- -- -- -- -- -- -- --
0100:          32 0D 80 1F 00  2D 80 2E 80 2F 80 1F 01     2....-.../...
0110: 00                                                .               
```

#### Opcodes

```
  0: 0x0103 [0x32] ExtData[1]->MainSpeed = 40* * 0.1
  1: 0x0106 [0x1F] MOVE_ENTITY: EventEntity moves to X=-334.804*, Z=-341.912*, Y=-9.252*
  2: 0x010E [0x1F] MOVE_ENTITY: Update entity position (mode=1)
  3: 0x0110 [0x00] END_REQSTACK()
```
