# 16982310

## Common Data

| Field            | Value                          |
|------------------|--------------------------------|
| Zone             | Aht Urhgan Whitegate2 (ID: 50) |
| Block Size       | 21216 bytes                    |
| Total Events     | 8                              |
| References Count | 427                            |

## List of Events

| Event ID              | Entrypoint   |   Size |   Instructions |
|-----------------------|--------------|--------|----------------|
| [65535](#event-65535) | 0x0000       |      1 |              1 |
| [3137](#event-3137)   | 0x0001       |   3142 |            353 |
| [3141](#event-3141)   | 0x0C47       |    152 |             25 |
| [3142](#event-3142)   | 0x0CDF       |    171 |             29 |
| [3143](#event-3143)   | 0x0D8A       |    637 |             87 |
| [3144](#event-3144)   | 0x1007       |   5526 |            657 |
| [3155](#event-3155)   | 0x259D       |   2983 |            399 |
| [3138](#event-3138)   | 0x3144       |   6845 |            809 |

## DAT References (imed_data)

|   Index | Hex Value   |   Dec Value |
|---------|-------------|-------------|
|       0 | 0x0013      |          19 |
|       1 | 0x3A68      |       14952 |
|       2 | 0xC8D5      |       51413 |
|       3 | 0xFFFFE890  |  4294961296 |
|       4 | 0x006D      |         109 |
|       5 | 0x4E96      |       20118 |
|       6 | 0xF7DA      |       63450 |
|       7 | 0xFFFFE891  |  4294961297 |
|       8 | 0x07FE      |        2046 |
|       9 | 0x423D      |       16957 |
|      10 | 0xC6F9      |       50937 |
|      11 | 0x09CA      |        2506 |
|      12 | 0x000F      |          15 |
|      13 | 0x00B2      |         178 |
|      14 | 0x0141      |         321 |
|      15 | 0x0000      |           0 |
|      16 | 0x012C      |         300 |
|      17 | 0x0028      |          40 |
|      18 | 0x25F5      |        9717 |
|      19 | 0x25F6      |        9718 |
|      20 | 0x00E3      |         227 |
|      21 | 0x0014      |          20 |
|      22 | 0x003C      |          60 |
|      23 | 0x25F7      |        9719 |
|      24 | 0x0096      |         150 |
|      25 | 0x25F8      |        9720 |
|      26 | 0x001E      |          30 |
|      27 | 0x0029      |          41 |
|      28 | 0x000A      |          10 |
|      29 | 0x00B6      |         182 |
|      30 | 0x25F9      |        9721 |
|      31 | 0x25FA      |        9722 |
|      32 | 0x25FB      |        9723 |
|      33 | 0x25FC      |        9724 |
|      34 | 0x25FD      |        9725 |
|      35 | 0x25FE      |        9726 |
|      36 | 0x25FF      |        9727 |
|      37 | 0x2600      |        9728 |
|      38 | 0x2601      |        9729 |
|      39 | 0x2602      |        9730 |
|      40 | 0x002A      |          42 |
|      41 | 0x2603      |        9731 |
|      42 | 0x2604      |        9732 |
|      43 | 0x2605      |        9733 |
|      44 | 0x2606      |        9734 |
|      45 | 0x2607      |        9735 |
|      46 | 0x2608      |        9736 |
|      47 | 0x00B4      |         180 |
|      48 | 0x00B5      |         181 |
|      49 | 0x2609      |        9737 |
|      50 | 0x260A      |        9738 |
|      51 | 0x00A3      |         163 |
|      52 | 0x260B      |        9739 |
|      53 | 0x260C      |        9740 |
|      54 | 0x260D      |        9741 |
|      55 | 0x260E      |        9742 |
|      56 | 0x260F      |        9743 |
|      57 | 0x2610      |        9744 |
|      58 | 0x2611      |        9745 |
|      59 | 0x2612      |        9746 |
|      60 | 0x2613      |        9747 |
|      61 | 0x2614      |        9748 |
|      62 | 0x002D      |          45 |
|      63 | 0x2615      |        9749 |
|      64 | 0x2616      |        9750 |
|      65 | 0x2617      |        9751 |
|      66 | 0x2618      |        9752 |
|      67 | 0x2619      |        9753 |
|      68 | 0x0001      |           1 |
|      69 | 0x0023      |          35 |
|      70 | 0x261A      |        9754 |
|      71 | 0x261B      |        9755 |
|      72 | 0x261C      |        9756 |
|      73 | 0x261D      |        9757 |
|      74 | 0x0002      |           2 |
|      75 | 0x0024      |          36 |
|      76 | 0x261E      |        9758 |
|      77 | 0x0382      |         898 |
|      78 | 0x261F      |        9759 |
|      79 | 0x0078      |         120 |
|      80 | 0x2620      |        9760 |
|      81 | 0x2621      |        9761 |
|      82 | 0x2622      |        9762 |
|      83 | 0x2623      |        9763 |
|      84 | 0x2624      |        9764 |
|      85 | 0x2625      |        9765 |
|      86 | 0x2626      |        9766 |
|      87 | 0x2627      |        9767 |
|      88 | 0x2628      |        9768 |
|      89 | 0x2629      |        9769 |
|      90 | 0x00C8      |         200 |
|      91 | 0x262A      |        9770 |
|      92 | 0x262B      |        9771 |
|      93 | 0x0016      |          22 |
|      94 | 0x262E      |        9774 |
|      95 | 0x262F      |        9775 |
|      96 | 0x262C      |        9772 |
|      97 | 0x262D      |        9773 |
|      98 | 0x0233      |         563 |
|      99 | 0x70C2      |       28866 |
|     100 | 0xFFFF2693  |  4294911635 |
|     101 | 0x0010      |          16 |
|     102 | 0x913A      |       37178 |
|     103 | 0xFFFF4C8A  |  4294921354 |
|     104 | 0xFFFFE3DD  |  4294960093 |
|     105 | 0x0003      |           3 |
|     106 | 0x2630      |        9776 |
|     107 | 0x0022      |          34 |
|     108 | 0x2631      |        9777 |
|     109 | 0x0009      |           9 |
|     110 | 0x2632      |        9778 |
|     111 | 0x2633      |        9779 |
|     112 | 0x2634      |        9780 |
|     113 | 0x2635      |        9781 |
|     114 | 0x2636      |        9782 |
|     115 | 0x5DAA      |       23978 |
|     116 | 0xFFFF0390  |  4294902672 |
|     117 | 0x0400      |        1024 |
|     118 | 0x693D      |       26941 |
|     119 | 0xFFFF4D67  |  4294921575 |
|     120 | 0xFFFFE184  |  4294959492 |
|     121 | 0x07FF      |        2047 |
|     122 | 0x58AC      |       22700 |
|     123 | 0xFFFF4DE9  |  4294921705 |
|     124 | 0x0342      |         834 |
|     125 | 0x2798      |       10136 |
|     126 | 0x2799      |       10137 |
|     127 | 0x279A      |       10138 |
|     128 | 0x279B      |       10139 |
|     129 | 0x279C      |       10140 |
|     130 | 0x279D      |       10141 |
|     131 | 0x59D8      |       23000 |
|     132 | 0x0488      |        1160 |
|     133 | 0x0498      |        1176 |
|     134 | 0x0080      |         128 |
|     135 | 0x283D      |       10301 |
|     136 | 0x007A      |         122 |
|     137 | 0x279E      |       10142 |
|     138 | 0x00F0      |         240 |
|     139 | 0x279F      |       10143 |
|     140 | 0x27A0      |       10144 |
|     141 | 0x27A1      |       10145 |
|     142 | 0x0005      |           5 |
|     143 | 0x3EC6      |       16070 |
|     144 | 0x27A2      |       10146 |
|     145 | 0x00D2      |         210 |
|     146 | 0x00C9      |         201 |
|     147 | 0x648B      |       25739 |
|     148 | 0xFFFF4DF6  |  4294921718 |
|     149 | 0x0800      |        2048 |
|     150 | 0x6D78      |       28024 |
|     151 | 0xFFFF598E  |  4294924686 |
|     152 | 0xFFFFE188  |  4294959496 |
|     153 | 0x0623      |        1571 |
|     154 | 0x0356      |         854 |
|     155 | 0x27A3      |       10147 |
|     156 | 0x27A4      |       10148 |
|     157 | 0x27A5      |       10149 |
|     158 | 0x27A6      |       10150 |
|     159 | 0x00BD      |         189 |
|     160 | 0x0007      |           7 |
|     161 | 0x27A7      |       10151 |
|     162 | 0x0476      |        1142 |
|     163 | 0x27A8      |       10152 |
|     164 | 0x27A9      |       10153 |
|     165 | 0x0094      |         148 |
|     166 | 0x27AA      |       10154 |
|     167 | 0x0004      |           4 |
|     168 | 0x0006      |           6 |
|     169 | 0x0008      |           8 |
|     170 | 0x27AB      |       10155 |
|     171 | 0x27AC      |       10156 |
|     172 | 0x27AD      |       10157 |
|     173 | 0x045B      |        1115 |
|     174 | 0x27AE      |       10158 |
|     175 | 0x27AF      |       10159 |
|     176 | 0x00BB      |         187 |
|     177 | 0x27B0      |       10160 |
|     178 | 0x001D      |          29 |
|     179 | 0x27B1      |       10161 |
|     180 | 0x0018      |          24 |
|     181 | 0x27B2      |       10162 |
|     182 | 0x27B3      |       10163 |
|     183 | 0x27B4      |       10164 |
|     184 | 0x0258      |         600 |
|     185 | 0x27B5      |       10165 |
|     186 | 0x27B6      |       10166 |
|     187 | 0x27B7      |       10167 |
|     188 | 0x27B8      |       10168 |
|     189 | 0x27B9      |       10169 |
|     190 | 0x0050      |          80 |
|     191 | 0x27BA      |       10170 |
|     192 | 0x005A      |          90 |
|     193 | 0x27BB      |       10171 |
|     194 | 0x27BC      |       10172 |
|     195 | 0x27BD      |       10173 |
|     196 | 0x27BE      |       10174 |
|     197 | 0x0015      |          21 |
|     198 | 0x27BF      |       10175 |
|     199 | 0x035F      |         863 |
|     200 | 0x27C0      |       10176 |
|     201 | 0x088B      |        2187 |
|     202 | 0x27C1      |       10177 |
|     203 | 0x27C2      |       10178 |
|     204 | 0x27C3      |       10179 |
|     205 | 0x27C4      |       10180 |
|     206 | 0x27C5      |       10181 |
|     207 | 0x27C6      |       10182 |
|     208 | 0x15CA      |        5578 |
|     209 | 0x27C7      |       10183 |
|     210 | 0x15D9      |        5593 |
|     211 | 0x27C8      |       10184 |
|     212 | 0x15D7      |        5591 |
|     213 | 0x27C9      |       10185 |
|     214 | 0x27CA      |       10186 |
|     215 | 0x03C8      |         968 |
|     216 | 0x27CB      |       10187 |
|     217 | 0x08F1      |        2289 |
|     218 | 0x27CC      |       10188 |
|     219 | 0x078A      |        1930 |
|     220 | 0x27CD      |       10189 |
|     221 | 0x031A      |         794 |
|     222 | 0x27CE      |       10190 |
|     223 | 0x0365      |         869 |
|     224 | 0x27CF      |       10191 |
|     225 | 0x27D0      |       10192 |
|     226 | 0x27D1      |       10193 |
|     227 | 0x27D2      |       10194 |
|     228 | 0x27D3      |       10195 |
|     229 | 0x27D4      |       10196 |
|     230 | 0x27D5      |       10197 |
|     231 | 0x27D6      |       10198 |
|     232 | 0x0341      |         833 |
|     233 | 0x27D7      |       10199 |
|     234 | 0x27D8      |       10200 |
|     235 | 0x022F      |         559 |
|     236 | 0xFFFFFFBD  |  4294967229 |
|     237 | 0xB91B      |       47387 |
|     238 | 0x0C06      |        3078 |
|     239 | 0x00B7      |         183 |
|     240 | 0x0081      |         129 |
|     241 | 0x2797      |       10135 |
|     242 | 0x0143      |         323 |
|     243 | 0x0353      |         851 |
|     244 | 0x2784      |       10116 |
|     245 | 0x2785      |       10117 |
|     246 | 0x0352      |         850 |
|     247 | 0x277B      |       10107 |
|     248 | 0x2786      |       10118 |
|     249 | 0x035A      |         858 |
|     250 | 0x2787      |       10119 |
|     251 | 0x2789      |       10121 |
|     252 | 0x2788      |       10120 |
|     253 | 0x278A      |       10122 |
|     254 | 0x0063      |          99 |
|     255 | 0x278B      |       10123 |
|     256 | 0x278C      |       10124 |
|     257 | 0x2764      |       10084 |
|     258 | 0x3DBF      |       15807 |
|     259 | 0x278D      |       10125 |
|     260 | 0x2768      |       10088 |
|     261 | 0x2790      |       10128 |
|     262 | 0x2793      |       10131 |
|     263 | 0x2794      |       10132 |
|     264 | 0x038A      |         906 |
|     265 | 0x2791      |       10129 |
|     266 | 0x03A5      |         933 |
|     267 | 0x2792      |       10130 |
|     268 | 0x3DC0      |       15808 |
|     269 | 0x278E      |       10126 |
|     270 | 0x3DC1      |       15809 |
|     271 | 0x278F      |       10127 |
|     272 | 0x2795      |       10133 |
|     273 | 0x2796      |       10134 |
|     274 | 0x0032      |          50 |
|     275 | 0x0110      |         272 |
|     276 | 0x03E7      |         999 |
|     277 | 0x834E      |       33614 |
|     278 | 0xFFFF41E4  |  4294918628 |
|     279 | 0xFFFFE3E1  |  4294960097 |
|     280 | 0x095A      |        2394 |
|     281 | 0x6564      |       25956 |
|     282 | 0xFFFF4DBE  |  4294921662 |
|     283 | 0x07B6      |        1974 |
|     284 | 0x6D93      |       28051 |
|     285 | 0xFFFF5159  |  4294922585 |
|     286 | 0x0988      |        2440 |
|     287 | 0x59CC      |       22988 |
|     288 | 0xFFFF63EA  |  4294927338 |
|     289 | 0x0BEF      |        3055 |
|     290 | 0x007F      |         127 |
|     291 | 0x263B      |        9787 |
|     292 | 0x263C      |        9788 |
|     293 | 0x263D      |        9789 |
|     294 | 0x263E      |        9790 |
|     295 | 0x263F      |        9791 |
|     296 | 0x2640      |        9792 |
|     297 | 0x2641      |        9793 |
|     298 | 0x2642      |        9794 |
|     299 | 0x0343      |         835 |
|     300 | 0x2643      |        9795 |
|     301 | 0x2644      |        9796 |
|     302 | 0x2645      |        9797 |
|     303 | 0x2646      |        9798 |
|     304 | 0x2647      |        9799 |
|     305 | 0x2648      |        9800 |
|     306 | 0x2649      |        9801 |
|     307 | 0x264A      |        9802 |
|     308 | 0x264B      |        9803 |
|     309 | 0x264C      |        9804 |
|     310 | 0x03D3      |         979 |
|     311 | 0x264D      |        9805 |
|     312 | 0x264E      |        9806 |
|     313 | 0x264F      |        9807 |
|     314 | 0x2650      |        9808 |
|     315 | 0x5877      |       22647 |
|     316 | 0xFFFF55D7  |  4294923735 |
|     317 | 0x04C3      |        1219 |
|     318 | 0x0167      |         359 |
|     319 | 0x2651      |        9809 |
|     320 | 0x01E8      |         488 |
|     321 | 0x0168      |         360 |
|     322 | 0x2652      |        9810 |
|     323 | 0x2653      |        9811 |
|     324 | 0x2654      |        9812 |
|     325 | 0x2655      |        9813 |
|     326 | 0x2656      |        9814 |
|     327 | 0x2657      |        9815 |
|     328 | 0x2658      |        9816 |
|     329 | 0x2659      |        9817 |
|     330 | 0x265A      |        9818 |
|     331 | 0x265B      |        9819 |
|     332 | 0x265C      |        9820 |
|     333 | 0x265D      |        9821 |
|     334 | 0x265E      |        9822 |
|     335 | 0x265F      |        9823 |
|     336 | 0x2660      |        9824 |
|     337 | 0x2661      |        9825 |
|     338 | 0x2662      |        9826 |
|     339 | 0x2663      |        9827 |
|     340 | 0x041D      |        1053 |
|     341 | 0x2664      |        9828 |
|     342 | 0x2665      |        9829 |
|     343 | 0x2666      |        9830 |
|     344 | 0x2667      |        9831 |
|     345 | 0x2668      |        9832 |
|     346 | 0x2669      |        9833 |
|     347 | 0x037B      |         891 |
|     348 | 0x266A      |        9834 |
|     349 | 0x266B      |        9835 |
|     350 | 0x266C      |        9836 |
|     351 | 0x266D      |        9837 |
|     352 | 0x037D      |         893 |
|     353 | 0x266E      |        9838 |
|     354 | 0x266F      |        9839 |
|     355 | 0x2670      |        9840 |
|     356 | 0x2671      |        9841 |
|     357 | 0x039E      |         926 |
|     358 | 0x2672      |        9842 |
|     359 | 0x2673      |        9843 |
|     360 | 0x2674      |        9844 |
|     361 | 0x2675      |        9845 |
|     362 | 0x2676      |        9846 |
|     363 | 0x0434      |        1076 |
|     364 | 0x2677      |        9847 |
|     365 | 0x2678      |        9848 |
|     366 | 0x03C7      |         967 |
|     367 | 0x0144      |         324 |
|     368 | 0x2679      |        9849 |
|     369 | 0x267A      |        9850 |
|     370 | 0x267B      |        9851 |
|     371 | 0x267C      |        9852 |
|     372 | 0x267D      |        9853 |
|     373 | 0x267E      |        9854 |
|     374 | 0x267F      |        9855 |
|     375 | 0x2680      |        9856 |
|     376 | 0x2681      |        9857 |
|     377 | 0x2682      |        9858 |
|     378 | 0x048B      |        1163 |
|     379 | 0x2683      |        9859 |
|     380 | 0x2684      |        9860 |
|     381 | 0x2685      |        9861 |
|     382 | 0x2686      |        9862 |
|     383 | 0x0383      |         899 |
|     384 | 0x2687      |        9863 |
|     385 | 0x2688      |        9864 |
|     386 | 0x2689      |        9865 |
|     387 | 0x268A      |        9866 |
|     388 | 0x268B      |        9867 |
|     389 | 0x268C      |        9868 |
|     390 | 0x268D      |        9869 |
|     391 | 0x0477      |        1143 |
|     392 | 0x268E      |        9870 |
|     393 | 0x268F      |        9871 |
|     394 | 0x2690      |        9872 |
|     395 | 0x046D      |        1133 |
|     396 | 0x2691      |        9873 |
|     397 | 0x2692      |        9874 |
|     398 | 0x2693      |        9875 |
|     399 | 0x2694      |        9876 |
|     400 | 0x2695      |        9877 |
|     401 | 0x2696      |        9878 |
|     402 | 0x2697      |        9879 |
|     403 | 0x2698      |        9880 |
|     404 | 0x2699      |        9881 |
|     405 | 0x269A      |        9882 |
|     406 | 0x269B      |        9883 |
|     407 | 0x009F      |         159 |
|     408 | 0x269C      |        9884 |
|     409 | 0x269D      |        9885 |
|     410 | 0x04C4      |        1220 |
|     411 | 0x269E      |        9886 |
|     412 | 0x269F      |        9887 |
|     413 | 0x26A3      |        9891 |
|     414 | 0x26A4      |        9892 |
|     415 | 0x26A5      |        9893 |
|     416 | 0x26A6      |        9894 |
|     417 | 0x26A0      |        9888 |
|     418 | 0x26A1      |        9889 |
|     419 | 0x26A2      |        9890 |
|     420 | 0x26A7      |        9895 |
|     421 | 0x26A8      |        9896 |
|     422 | 0x26A9      |        9897 |
|     423 | 0x26AA      |        9898 |
|     424 | 0x26AB      |        9899 |
|     425 | 0x26AC      |        9900 |
|     426 | 0x00D7      |         215 |

## Events

### Event 65535

#### Metadata

| Field        | Value   |
|--------------|---------|
| Entrypoint   | 0x0000  |
| Data Size    | 1 bytes |
| Instructions | 1       |

```
      00 01 02 03 04 05 06 07  08 09 0A 0B 0C 0D 0E 0F
      -- -- -- -- -- -- -- --  -- -- -- -- -- -- -- --
0000: 00                                                .               
```

#### Opcodes

```
  0: 0x0000 [0x00] END_REQSTACK()
```

### Event 3137

#### Metadata

| Field        | Value      |
|--------------|------------|
| Entrypoint   | 0x0001     |
| Data Size    | 3142 bytes |
| Instructions | 352        |

```
      00 01 02 03 04 05 06 07  08 09 0A 0B 0C 0D 0E 0F
      -- -- -- -- -- -- -- --  -- -- -- -- -- -- -- --
0000:    42 03 00 00 09 10 1A  D3 49 46 01 38 00 80 79   B.......IF.8..y
0010: 00 F0 FF FF 7F F0 FF FF  7F 27 10 D7 20 03 01 04  .........'.. ...
0020: 29 10 0B 22 03 01 1C 92  01 79 20 03 01 92 01 D7  )..".....y .....
0030: 20 03 01 94 01 F0 FF FF  7F 94 01 79 20 03 01 94   ..........y ...
0040: 01 D7 20 03 01 80 F0 FF  FF 7F 80 79 20 03 01 80  .. ........y ...
0050: D7 20 03 01 BA F0 FF FF  7F 01 80 02 80 03 80 04  . ..............
0060: 80 BA 0B 22 03 01 01 80  02 80 03 80 04 80 BA D7  ..."............
0070: 20 03 01 05 80 06 80 07  80 08 80 BA 79 20 03 01   ...........y ..
0080: 09 80 0A 80 03 80 0B 80  4A F0 FF FF 7F 79 20 03  ........J....y .
0090: 01 4A 79 20 03 01 F0 FF  FF 7F 1C 0C 80 5C 00 0D  .Jy .........\..
00A0: 80 5C 01 0D 80 9A 45 0E  80 F0 FF FF 7F F0 FF FF  .\....E.........
00B0: 7F 72 64 30 30 0F 80 1C  0C 80 1A B2 49 5D 0F 80  .rd00.......I]..
00C0: 10 80 66 11 80 79 20 03  01 79 20 03 01 74 6C 6B  ..f..y ..y ..tlk
00D0: 30 2B 79 20 03 01 12 80  23 66 11 80 79 20 03 01  0+y ....#f..y ..
00E0: 79 20 03 01 74 6C 6B 31  2B 79 20 03 01 13 80 23  y ..tlk1+y ....#
00F0: 5C 00 14 80 5C 01 14 80  9A 27 10 D7 20 03 01 22  \...\....'.. .."
0100: 1C 15 80 52 0E 80 F0 FF  FF 7F F0 FF FF 7F 72 64  ...R..........rd
0110: 30 30 45 0E 80 F0 FF FF  7F F0 FF FF 7F 72 64 30  00E..........rd0
0120: 31 0F 80 1C 16 80 2B 11  21 03 01 17 80 1C 18 80  1.....+.!.......
0130: 4A F0 FF FF 7F D7 20 03  01 2B 11 21 03 01 19 80  J..... ..+.!....
0140: 1C 1A 80 4A 79 20 03 01  D7 20 03 01 1C 0C 80 2A  ...Jy ... .....*
0150: 10 D7 20 03 01 45 0E 80  F0 FF FF 7F F0 FF FF 7F  .. ..E..........
0160: 6B 64 77 6E 0F 80 1C 0C  80 66 1B 80 79 20 03 01  kdwn.....f..y ..
0170: 79 20 03 01 73 68 6B 30  1C 1C 80 52 0E 80 F0 FF  y ..shk0...R....
0180: FF 7F F0 FF FF 7F 72 64  30 31 45 0E 80 F0 FF FF  ......rd01E.....
0190: 7F F0 FF FF 7F 72 64 30  32 0F 80 5B 1D 80 D7 20  .....rd02..[... 
01A0: 03 01 D7 20 03 01 64 77  6E 30 2B 79 20 03 01 1E  ... ..dwn0+y ...
01B0: 80 23 27 10 79 20 03 01  0E 1C 15 80 52 0E 80 F0  .#'.y ......R...
01C0: FF FF 7F F0 FF FF 7F 72  64 30 32 45 0E 80 F0 FF  .......rd02E....
01D0: FF 7F F0 FF FF 7F 72 64  30 33 0F 80 4A F0 FF FF  ......rd03..J...
01E0: 7F 79 20 03 01 2B 79 20  03 01 1F 80 23 27 10 0B  .y ..+y ....#'..
01F0: 22 03 01 32 52 0E 80 F0  FF FF 7F F0 FF FF 7F 72  "..2R..........r
0200: 64 30 33 45 0E 80 F0 FF  FF 7F F0 FF FF 7F 72 64  d03E..........rd
0210: 30 34 0F 80 2B D7 20 03  01 20 80 23 2B 79 20 03  04..+. .. .#+y .
0220: 01 21 80 23 52 0E 80 F0  FF FF 7F F0 FF FF 7F 72  .!.#R..........r
0230: 64 30 34 45 0E 80 F0 FF  FF 7F F0 FF FF 7F 72 64  d04E..........rd
0240: 30 35 0F 80 27 10 D7 20  03 01 23 2B D7 20 03 01  05..'.. ..#+. ..
0250: 22 80 23 2A 10 D7 20 03  01 5B 1D 80 D7 20 03 01  ".#*.. ..[... ..
0260: D7 20 03 01 79 62 69 30  53 D7 20 03 01 D7 20 03  . ..ybi0S. ... .
0270: 01 79 62 69 30 1C 16 80  66 11 80 79 20 03 01 79  .ybi0...f..y ..y
0280: 20 03 01 74 6C 6B 30 2B  79 20 03 01 23 80 23 66   ..tlk0+y ..#.#f
0290: 11 80 79 20 03 01 79 20  03 01 74 6C 6B 31 5B 1D  ..y ..y ..tlk1[.
02A0: 80 D7 20 03 01 D7 20 03  01 6B 61 69 30 2B D7 20  .. ... ..kai0+. 
02B0: 03 01 24 80 23 52 0E 80  F0 FF FF 7F F0 FF FF 7F  ..$.#R..........
02C0: 72 64 30 35 45 0E 80 F0  FF FF 7F F0 FF FF 7F 72  rd05E..........r
02D0: 64 30 36 0F 80 53 D7 20  03 01 D7 20 03 01 6B 61  d06..S. ... ..ka
02E0: 69 30 7C 00 79 20 03 01  2B 79 20 03 01 25 80 23  i0|.y ..+y ..%.#
02F0: 7C 01 79 20 03 01 66 11  80 79 20 03 01 79 20 03  |.y ..f..y ..y .
0300: 01 74 6C 6B 30 2B 79 20  03 01 26 80 23 66 11 80  .tlk0+y ..&.#f..
0310: 79 20 03 01 79 20 03 01  74 6C 6B 31 52 0E 80 F0  y ..y ..tlk1R...
0320: FF FF 7F F0 FF FF 7F 72  64 30 36 45 0E 80 F0 FF  .......rd06E....
0330: FF 7F F0 FF FF 7F 72 64  30 37 0F 80 5B 1D 80 D7  ......rd07..[...
0340: 20 03 01 D7 20 03 01 6B  61 69 30 2B D7 20 03 01   ... ..kai0+. ..
0350: 27 80 23 53 D7 20 03 01  D7 20 03 01 6B 61 69 30  '.#S. ... ..kai0
0360: 52 0E 80 F0 FF FF 7F F0  FF FF 7F 72 64 30 37 45  R..........rd07E
0370: 0E 80 F0 FF FF 7F F0 FF  FF 7F 72 64 30 38 0F 80  ..........rd08..
0380: 66 28 80 79 20 03 01 79  20 03 01 62 69 6B 30 2B  f(.y ..y ..bik0+
0390: 79 20 03 01 29 80 23 52  0E 80 F0 FF FF 7F F0 FF  y ..).#R........
03A0: FF 7F 72 64 30 38 45 0E  80 F0 FF FF 7F F0 FF FF  ..rd08E.........
03B0: 7F 72 64 30 39 0F 80 66  11 80 79 20 03 01 79 20  .rd09..f..y ..y 
03C0: 03 01 74 6C 6B 30 2B 79  20 03 01 2A 80 23 66 11  ..tlk0+y ..*.#f.
03D0: 80 79 20 03 01 79 20 03  01 74 6C 6B 31 5B 1D 80  .y ..y ..tlk1[..
03E0: D7 20 03 01 D7 20 03 01  6B 61 69 30 2B D7 20 03  . ... ..kai0+. .
03F0: 01 2B 80 23 53 D7 20 03  01 D7 20 03 01 6B 61 69  .+.#S. ... ..kai
0400: 30 52 0E 80 F0 FF FF 7F  F0 FF FF 7F 72 64 30 39  0R..........rd09
0410: 45 0E 80 F0 FF FF 7F F0  FF FF 7F 72 64 31 30 0F  E..........rd10.
0420: 80 66 1B 80 79 20 03 01  79 20 03 01 73 68 6B 30  .f..y ..y ..shk0
0430: 2B 79 20 03 01 2C 80 23  66 11 80 79 20 03 01 79  +y ..,.#f..y ..y
0440: 20 03 01 67 6B 72 30 2B  79 20 03 01 2D 80 23 52   ..gkr0+y ..-.#R
0450: 0E 80 F0 FF FF 7F F0 FF  FF 7F 72 64 31 30 45 0E  ..........rd10E.
0460: 80 F0 FF FF 7F F0 FF FF  7F 72 64 31 38 0F 80 5B  .........rd18..[
0470: 1D 80 D7 20 03 01 D7 20  03 01 6B 61 69 30 2B D7  ... ... ..kai0+.
0480: 20 03 01 2E 80 23 53 D7  20 03 01 D7 20 03 01 6B   ....#S. ... ..k
0490: 61 69 30 52 0E 80 F0 FF  FF 7F F0 FF FF 7F 72 64  ai0R..........rd
04A0: 31 38 45 0E 80 F0 FF FF  7F F0 FF FF 7F 72 64 31  18E..........rd1
04B0: 31 0F 80 5D 0F 80 2F 80  5B 30 80 D7 20 03 01 D7  1..]../.[0.. ...
04C0: 20 03 01 74 6C 61 30 2B  D7 20 03 01 31 80 23 5B   ..tla0+. ..1.#[
04D0: 30 80 D7 20 03 01 D7 20  03 01 74 6C 61 31 66 11  0.. ... ..tla1f.
04E0: 80 79 20 03 01 79 20 03  01 67 6B 72 31 2B 79 20  .y ..y ..gkr1+y 
04F0: 03 01 32 80 23 52 0E 80  F0 FF FF 7F F0 FF FF 7F  ..2.#R..........
0500: 72 64 31 31 45 0E 80 F0  FF FF 7F F0 FF FF 7F 72  rd11E..........r
0510: 64 31 32 0F 80 5C 00 33  80 5C 01 33 80 9A 66 11  d12..\.3.\.3..f.
0520: 80 79 20 03 01 79 20 03  01 74 6C 6B 30 2B 79 20  .y ..y ..tlk0+y 
0530: 03 01 34 80 23 66 11 80  79 20 03 01 79 20 03 01  ..4.#f..y ..y ..
0540: 74 6C 6B 31 5B 1D 80 D7  20 03 01 D7 20 03 01 6D  tlk1[... ... ..m
0550: 67 63 30 52 0E 80 F0 FF  FF 7F F0 FF FF 7F 72 64  gc0R..........rd
0560: 31 32 45 0E 80 F0 FF FF  7F F0 FF FF 7F 72 64 31  12E..........rd1
0570: 33 0F 80 2B D7 20 03 01  35 80 23 52 0E 80 F0 FF  3..+. ..5.#R....
0580: FF 7F F0 FF FF 7F 72 64  31 33 45 0E 80 F0 FF FF  ......rd13E.....
0590: 7F F0 FF FF 7F 72 64 31  34 0F 80 66 1B 80 79 20  .....rd14..f..y 
05A0: 03 01 79 20 03 01 6F 68  68 30 2B 79 20 03 01 36  ..y ..ohh0+y ..6
05B0: 80 23 2B 79 20 03 01 37  80 23 5B 1D 80 D7 20 03  .#+y ..7.#[... .
05C0: 01 D7 20 03 01 6D 65 6E  30 2B D7 20 03 01 38 80  .. ..men0+. ..8.
05D0: 23 66 1B 80 79 20 03 01  79 20 03 01 6F 68 68 31  #f..y ..y ..ohh1
05E0: 1C 0C 80 52 0E 80 F0 FF  FF 7F F0 FF FF 7F 72 64  ...R..........rd
05F0: 31 34 45 0E 80 F0 FF FF  7F F0 FF FF 7F 72 64 31  14E..........rd1
0600: 35 0F 80 2B 79 20 03 01  39 80 23 5B 1D 80 D7 20  5..+y ..9.#[... 
0610: 03 01 D7 20 03 01 6B 61  69 30 2B D7 20 03 01 3A  ... ..kai0+. ..:
0620: 80 23 53 D7 20 03 01 D7  20 03 01 6B 61 69 30 52  .#S. ... ..kai0R
0630: 0E 80 F0 FF FF 7F F0 FF  FF 7F 72 64 31 35 45 0E  ..........rd15E.
0640: 80 F0 FF FF 7F F0 FF FF  7F 72 64 31 36 0F 80 66  .........rd16..f
0650: 11 80 79 20 03 01 79 20  03 01 74 6C 6B 30 2B 79  ..y ..y ..tlk0+y
0660: 20 03 01 3B 80 23 66 11  80 79 20 03 01 79 20 03   ..;.#f..y ..y .
0670: 01 74 6C 6B 31 52 0E 80  F0 FF FF 7F F0 FF FF 7F  .tlk1R..........
0680: 72 64 31 36 45 0E 80 F0  FF FF 7F F0 FF FF 7F 72  rd16E..........r
0690: 64 31 37 0F 80 5B 1D 80  D7 20 03 01 D7 20 03 01  d17..[... ... ..
06A0: 6B 61 69 30 2B D7 20 03  01 3C 80 23 53 D7 20 03  kai0+. ..<.#S. .
06B0: 01 D7 20 03 01 6B 61 69  30 52 0E 80 F0 FF FF 7F  .. ..kai0R......
06C0: F0 FF FF 7F 72 64 31 37  45 0E 80 F0 FF FF 7F F0  ....rd17E.......
06D0: FF FF 7F 72 64 31 39 0F  80 27 10 D7 20 03 01 24  ...rd19..'.. ..$
06E0: 1C 16 80 4A F0 FF FF 7F  D7 20 03 01 4A 79 20 03  ...J..... ..Jy .
06F0: 01 D7 20 03 01 2A 10 D7  20 03 01 52 0E 80 F0 FF  .. ..*.. ..R....
0700: FF 7F F0 FF FF 7F 72 64  31 39 45 0E 80 F0 FF FF  ......rd19E.....
0710: 7F F0 FF FF 7F 72 64 32  30 0F 80 7B 79 20 03 01  .....rd20..{y ..
0720: 66 11 80 79 20 03 01 79  20 03 01 74 68 6B 31 2B  f..y ..y ..thk1+
0730: 79 20 03 01 3D 80 23 27  10 D7 20 03 01 25 1C 3E  y ..=.#'.. ..%.>
0740: 80 52 0E 80 F0 FF FF 7F  F0 FF FF 7F 72 64 32 30  .R..........rd20
0750: 45 0E 80 F0 FF FF 7F F0  FF FF 7F 72 64 32 31 0F  E..........rd21.
0760: 80 66 11 80 79 20 03 01  79 20 03 01 74 68 6B 32  .f..y ..y ..thk2
0770: 2B D7 20 03 01 3F 80 23  2A 10 D7 20 03 01 66 1B  +. ..?.#*.. ..f.
0780: 80 79 20 03 01 79 20 03  01 6F 68 68 30 2B 79 20  .y ..y ..ohh0+y 
0790: 03 01 40 80 23 27 10 D7  20 03 01 26 1C 15 80 66  ..@.#'.. ..&...f
07A0: 1B 80 79 20 03 01 79 20  03 01 6F 68 68 31 4A 79  ..y ..y ..ohh1Jy
07B0: 20 03 01 F0 FF FF 7F 52  0E 80 F0 FF FF 7F F0 FF   ......R........
07C0: FF 7F 72 64 32 31 45 0E  80 F0 FF FF 7F F0 FF FF  ..rd21E.........
07D0: 7F 72 64 32 32 0F 80 79  00 F0 FF FF 7F 79 20 03  .rd22..y.....y .
07E0: 01 2B 79 20 03 01 41 80  23 66 1B 80 79 20 03 01  .+y ..A.#f..y ..
07F0: 79 20 03 01 65 68 6E 30  2B 79 20 03 01 42 80 23  y ..ehn0+y ..B.#
0800: 66 1B 80 79 20 03 01 79  20 03 01 65 68 6E 31 06  f..y ..y ..ehn1.
0810: 01 00 24 43 80 44 80 01  00 25 02 00 10 44 80 00  ..$C.D...%...D..
0820: 6B 09 6E F0 FF FF 7F 45  80 99 F0 FF FF 7F 99 F0  k.n....E........
0830: FF FF 7F 1C 16 80 52 0E  80 F0 FF FF 7F F0 FF FF  ......R.........
0840: 7F 72 64 32 32 45 0E 80  F0 FF FF 7F F0 FF FF 7F  .rd22E..........
0850: 72 64 32 33 0F 80 4A 79  20 03 01 D7 20 03 01 79  rd23..Jy ... ..y
0860: 00 F0 FF FF 7F D7 20 03  01 2B D7 20 03 01 46 80  ...... ..+. ..F.
0870: 23 45 0E 80 D7 20 03 01  D7 20 03 01 30 73 62 6B  #E... ... ..0sbk
0880: 0F 80 52 0E 80 F0 FF FF  7F F0 FF FF 7F 72 64 32  ..R..........rd2
0890: 33 45 0E 80 F0 FF FF 7F  F0 FF FF 7F 72 64 32 34  3E..........rd24
08A0: 0F 80 66 1B 80 79 20 03  01 79 20 03 01 6F 68 68  ..f..y ..y ..ohh
08B0: 30 2B 79 20 03 01 47 80  23 66 1B 80 79 20 03 01  0+y ..G.#f..y ..
08C0: 79 20 03 01 6F 68 68 31  4A 79 20 03 01 F0 FF FF  y ..ohh1Jy .....
08D0: 7F 6F 76 79 20 03 01 79  00 F0 FF FF 7F 79 20 03  .ovy ..y.....y .
08E0: 01 45 0E 80 D7 20 03 01  D7 20 03 01 30 65 62 6B  .E... ... ..0ebk
08F0: 0F 80 2B 79 20 03 01 48  80 23 52 0E 80 F0 FF FF  ..+y ..H.#R.....
0900: 7F F0 FF FF 7F 72 64 32  34 45 0E 80 F0 FF FF 7F  .....rd24E......
0910: F0 FF FF 7F 72 64 32 35  0F 80 66 11 80 79 20 03  ....rd25..f..y .
0920: 01 79 20 03 01 74 6C 6B  30 2B 79 20 03 01 49 80  .y ..tlk0+y ..I.
0930: 23 66 11 80 79 20 03 01  79 20 03 01 74 6C 6B 31  #f..y ..y ..tlk1
0940: 52 0E 80 F0 FF FF 7F F0  FF FF 7F 72 64 32 35 45  R..........rd25E
0950: 0E 80 F0 FF FF 7F F0 FF  FF 7F 72 64 32 32 0F 80  ..........rd22..
0960: 03 01 00 4A 80 01 12 08  01 6B 09 6E F0 FF FF 7F  ...J.....k.n....
0970: 4B 80 99 F0 FF FF 7F 99  F0 FF FF 7F 1C 16 80 52  K..............R
0980: 0E 80 F0 FF FF 7F F0 FF  FF 7F 72 64 32 32 45 0E  ..........rd22E.
0990: 80 F0 FF FF 7F F0 FF FF  7F 72 64 32 35 0F 80 66  .........rd25..f
09A0: 11 80 79 20 03 01 79 20  03 01 70 61 73 30 2B 79  ..y ..y ..pas0+y
09B0: 20 03 01 4C 80 23 03 02  10 4D 80 48 4E 80 1C 4F   ..L.#...M.HN..O
09C0: 80 52 0E 80 F0 FF FF 7F  F0 FF FF 7F 72 64 32 35  .R..........rd25
09D0: 45 0E 80 F0 FF FF 7F F0  FF FF 7F 72 64 32 36 0F  E..........rd26.
09E0: 80 66 11 80 79 20 03 01  79 20 03 01 74 6C 6B 30  .f..y ..y ..tlk0
09F0: 2B 79 20 03 01 50 80 23  2B 79 20 03 01 51 80 23  +y ..P.#+y ..Q.#
0A00: 66 11 80 79 20 03 01 79  20 03 01 74 6C 6B 31 4A  f..y ..y ..tlk1J
0A10: 79 20 03 01 D7 20 03 01  52 0E 80 F0 FF FF 7F F0  y ... ..R.......
0A20: FF FF 7F 72 64 32 36 45  0E 80 F0 FF FF 7F F0 FF  ...rd26E........
0A30: FF 7F 72 64 32 33 0F 80  79 00 F0 FF FF 7F D7 20  ..rd23..y...... 
0A40: 03 01 2B D7 20 03 01 52  80 23 45 0E 80 D7 20 03  ..+. ..R.#E... .
0A50: 01 D7 20 03 01 30 73 62  6B 0F 80 66 1B 80 79 20  .. ..0sbk..f..y 
0A60: 03 01 79 20 03 01 6F 68  68 30 2B 79 20 03 01 53  ..y ..ohh0+y ..S
0A70: 80 23 52 0E 80 F0 FF FF  7F F0 FF FF 7F 72 64 32  .#R..........rd2
0A80: 33 45 0E 80 F0 FF FF 7F  F0 FF FF 7F 72 64 32 37  3E..........rd27
0A90: 0F 80 66 1B 80 79 20 03  01 79 20 03 01 6F 68 68  ..f..y ..y ..ohh
0AA0: 31 2B 79 20 03 01 54 80  23 52 0E 80 F0 FF FF 7F  1+y ..T.#R......
0AB0: F0 FF FF 7F 72 64 32 37  45 0E 80 F0 FF FF 7F F0  ....rd27E.......
0AC0: FF FF 7F 72 64 32 39 0F  80 45 0E 80 D7 20 03 01  ...rd29..E... ..
0AD0: D7 20 03 01 30 65 62 6B  0F 80 2B D7 20 03 01 55  . ..0ebk..+. ..U
0AE0: 80 23 52 0E 80 F0 FF FF  7F F0 FF FF 7F 72 64 32  .#R..........rd2
0AF0: 39 45 0E 80 F0 FF FF 7F  F0 FF FF 7F 72 64 32 38  9E..........rd28
0B00: 0F 80 66 11 80 79 20 03  01 79 20 03 01 73 79 75  ..f..y ..y ..syu
0B10: 30 2B 79 20 03 01 56 80  23 5B 1D 80 D7 20 03 01  0+y ..V.#[... ..
0B20: D7 20 03 01 6B 61 69 30  2B D7 20 03 01 57 80 23  . ..kai0+. ..W.#
0B30: 53 D7 20 03 01 D7 20 03  01 6B 61 69 30 27 10 D7  S. ... ..kai0'..
0B40: 20 03 01 28 52 0E 80 F0  FF FF 7F F0 FF FF 7F 72   ..(R..........r
0B50: 64 32 38 45 0E 80 F0 FF  FF 7F F0 FF FF 7F 72 64  d28E..........rd
0B60: 33 30 0F 80 7B 79 20 03  01 66 11 80 79 20 03 01  30..{y ..f..y ..
0B70: 79 20 03 01 67 6B 72 30  1C 15 80 2B 79 20 03 01  y ..gkr0...+y ..
0B80: 58 80 23 53 79 20 03 01  79 20 03 01 67 6B 72 30  X.#Sy ..y ..gkr0
0B90: 2A 10 D7 20 03 01 52 0E  80 F0 FF FF 7F F0 FF FF  *.. ..R.........
0BA0: 7F 72 64 33 30 45 0E 80  F0 FF FF 7F F0 FF FF 7F  .rd30E..........
0BB0: 72 64 33 31 0F 80 27 10  D7 20 03 01 29 66 11 80  rd31..'.. ..)f..
0BC0: 79 20 03 01 79 20 03 01  67 6B 72 31 1C 15 80 4A  y ..y ..gkr1...J
0BD0: 79 20 03 01 F0 FF FF 7F  6F 76 79 20 03 01 79 00  y ......ovy ..y.
0BE0: F0 FF FF 7F 79 20 03 01  66 1B 80 79 20 03 01 79  ....y ..f..y ..y
0BF0: 20 03 01 6F 68 68 30 2B  79 20 03 01 59 80 23 1A   ..ohh0+y ..Y.#.
0C00: D3 49 1C 1A 80 2A 10 D7  20 03 01 29 10 0B 22 03  .I...*.. ..)..".
0C10: 01 1D 52 0E 80 F0 FF FF  7F F0 FF FF 7F 72 64 33  ..R..........rd3
0C20: 31 02 00 00 44 80 01 29  0C 5C 00 0D 80 5C 01 0D  1...D..).\...\..
0C30: 80 9A 46 00 45 5A 80 F0  FF FF 7F F0 FF FF 7F 66  ..F.EZ.........f
0C40: 64 69 32 0F 80 21 00                              di2..!.         
```

#### Opcodes

```
  0: 0x0001 [0x42] SET_CLI_EVENT_CANCEL_DATA()
  1: 0x0002 [0x03] ExtData[1]->WorkLocal[0] = Work_Zone[9]
  2: 0x0007 [0x1A] CALL_SUBROUTINE(address=0x49D3)
  3: 0x000A [0x46] CAMERA_CONTROL: Disable user control
  4: 0x000C [0x38] SET_CLIENT_EVENT_MODE(mode=19*)
  5: 0x000F [0x79] LocalPlayer looks at LocalPlayer (Basic look)
  6: 0x0019 [0x27] REQ_SET(priority=0x10, entity_id=King of Hearts (ID: 16982231/0x010320D7), tag_num=0x04)
  7: 0x0020 [0x29] REQ_SET_WAIT(priority=0x10, entity_id=Unnamed NPC (ID: 16982539/0x0103220B), tag_num=0x1C)
  8: 0x0027 [0x92] Rodin-Comidin (ID: 16982137/0x01032079)->Render.Flags3 ^= 0x01
  9: 0x002D [0x92] King of Hearts (ID: 16982231/0x010320D7)->Render.Flags3 ^= 0x01
 10: 0x0033 [0x94] LocalPlayer->Render.Flags3 ^= 0x01
 11: 0x0039 [0x94] Rodin-Comidin (ID: 16982137/0x01032079)->Render.Flags3 ^= 0x01
 12: 0x003F [0x94] King of Hearts (ID: 16982231/0x010320D7)->Render.Flags3 ^= 0x01
 13: 0x0045 [0x80] LOAD_WAIT(entity=LocalPlayer)
 14: 0x004A [0x80] LOAD_WAIT(entity=Rodin-Comidin (ID: 16982137/0x01032079))
 15: 0x004F [0x80] LOAD_WAIT(entity=King of Hearts (ID: 16982231/0x010320D7))
 16: 0x0054 [0xBA] SET_ENTITY_POSITION(entity_id=LocalPlayer, pos_x=14.952*, pos_z=51.413*, pos_y=-6.000*, direction=9.6°*)
 17: 0x0061 [0xBA] SET_ENTITY_POSITION(entity_id=Unnamed NPC (ID: 16982539/0x0103220B), pos_x=14.952*, pos_z=51.413*, pos_y=-6.000*, direction=9.6°*)
 18: 0x006E [0xBA] SET_ENTITY_POSITION(entity_id=King of Hearts (ID: 16982231/0x010320D7), pos_x=20.118*, pos_z=63.450*, pos_y=-5.999*, direction=179.8°*)
 19: 0x007B [0xBA] SET_ENTITY_POSITION(entity_id=Rodin-Comidin (ID: 16982137/0x01032079), pos_x=16.957*, pos_z=50.937*, pos_y=-6.000*, direction=220.2°*)
 20: 0x0088 [0x4A] LocalPlayer looks at Rodin-Comidin (ID: 16982137/0x01032079)
 21: 0x0091 [0x4A] Rodin-Comidin (ID: 16982137/0x01032079) looks at LocalPlayer
 22: 0x009A [0x1C] WAIT(15* ticks)
 23: 0x009D [0x5C] MUSIC_CONTROL: Set Idle (Day) music to song 178*
 24: 0x00A1 [0x5C] MUSIC_CONTROL: Set Idle (Night) music to song 178*
 25: 0x00A5 [0x9A] WAIT_MUSIC_SERVER()
 26: 0x00A6 [0x45] LOAD_SCHEDULED_TASK: Load scheduler "rd00" with entities [LocalPlayer, LocalPlayer], work=[321*, 0*]
 27: 0x00B7 [0x1C] WAIT(15* ticks)
 28: 0x00BA [0x1A] CALL_SUBROUTINE(address=0x49B2)
 29: 0x00BD [0x5D] SET_MUSIC_VOLUME(volume=0*, fade_time=300*)
 30: 0x00C2 [0x66] LOAD_EXT_SCHEDULER_MAIN: Load scheduler "tlk0" with entities [Rodin-Comidin (ID: 16982137/0x01032079), Rodin-Comidin (ID: 16982137/0x01032079)], work=40*
 31: 0x00D1 [0x2B] Rodin-Comidin (ID: 16982137/0x01032079) [9717*]:
    → "\u0008!\u0007I heard the news from Lady Karababa!\u0007You've had quite the adventure already, it seems!\u007F1\u0000\u0007"
 32: 0x00D8 [0x23] WAIT_FOR_DIALOG_INTERACTION
 33: 0x00D9 [0x66] LOAD_EXT_SCHEDULER_MAIN: Load scheduler "tlk1" with entities [Rodin-Comidin (ID: 16982137/0x01032079), Rodin-Comidin (ID: 16982137/0x01032079)], work=40*
 34: 0x00E8 [0x2B] Rodin-Comidin (ID: 16982137/0x01032079) [9718*]:
    → "Um...where is the King of Hearts?\u0007I thought he was supposed to be with you...?\u007F1\u0000\u0007"
 35: 0x00EF [0x23] WAIT_FOR_DIALOG_INTERACTION
 36: 0x00F0 [0x5C] MUSIC_CONTROL: Set Idle (Day) music to song 227*
 37: 0x00F4 [0x5C] MUSIC_CONTROL: Set Idle (Night) music to song 227*
 38: 0x00F8 [0x9A] WAIT_MUSIC_SERVER()
 39: 0x00F9 [0x27] REQ_SET(priority=0x10, entity_id=King of Hearts (ID: 16982231/0x010320D7), tag_num=0x22)
 40: 0x0100 [0x1C] WAIT(20* ticks)
 41: 0x0103 [0x52] END_LOAD_SCHEDULER: End scheduler "rd00" with entities [LocalPlayer, LocalPlayer], work=321*
 42: 0x0112 [0x45] LOAD_SCHEDULED_TASK: Load scheduler "rd01" with entities [LocalPlayer, LocalPlayer], work=[321*, 0*]
 43: 0x0123 [0x1C] WAIT(60* ticks)
 44: 0x0126 [0x2B] ??? (ID: 16982289/0x01032111) [9719*]:
    → "WatER iN\u0001\u001AtHE baY!\u0001t\u0000\u0007"
 45: 0x012D [0x1C] WAIT(150* ticks)
 46: 0x0130 [0x4A] LocalPlayer looks at King of Hearts (ID: 16982231/0x010320D7)
 47: 0x0139 [0x2B] ??? (ID: 16982289/0x01032111) [9720*]:
    → "SpLisHY-spLasHY\u0001\u001AwaTEr!\u0001t\u0000\u0007"
 48: 0x0140 [0x1C] WAIT(30* ticks)
 49: 0x0143 [0x4A] Rodin-Comidin (ID: 16982137/0x01032079) looks at King of Hearts (ID: 16982231/0x010320D7)
 50: 0x014C [0x1C] WAIT(15* ticks)
 51: 0x014F [0x2A] GET_REQ_LEVEL(level=16, entity_id=King of Hearts (ID: 16982231/0x010320D7))
 52: 0x0155 [0x45] LOAD_SCHEDULED_TASK: Load scheduler "kdwn" with entities [LocalPlayer, LocalPlayer], work=[321*, 0*]
 53: 0x0166 [0x1C] WAIT(15* ticks)
 54: 0x0169 [0x66] LOAD_EXT_SCHEDULER_MAIN: Load scheduler "shk0" with entities [Rodin-Comidin (ID: 16982137/0x01032079), Rodin-Comidin (ID: 16982137/0x01032079)], work=41*
 55: 0x0178 [0x1C] WAIT(10* ticks)
 56: 0x017B [0x52] END_LOAD_SCHEDULER: End scheduler "rd01" with entities [LocalPlayer, LocalPlayer], work=321*
 57: 0x018A [0x45] LOAD_SCHEDULED_TASK: Load scheduler "rd02" with entities [LocalPlayer, LocalPlayer], work=[321*, 0*]
 58: 0x019B [0x5B] LOAD_EXT_SCHEDULER: Load scheduler "dwn0" with entities [King of Hearts (ID: 16982231/0x010320D7), King of Hearts (ID: 16982231/0x010320D7)], work=182*
 59: 0x01AA [0x2B] Rodin-Comidin (ID: 16982137/0x01032079) [9721*]:
    → "King of Hearts!?\u007F1\u0000\u0007"
 60: 0x01B1 [0x23] WAIT_FOR_DIALOG_INTERACTION
 61: 0x01B2 [0x27] REQ_SET(priority=0x10, entity_id=Rodin-Comidin (ID: 16982137/0x01032079), tag_num=0x0E)
 62: 0x01B9 [0x1C] WAIT(20* ticks)
 63: 0x01BC [0x52] END_LOAD_SCHEDULER: End scheduler "rd02" with entities [LocalPlayer, LocalPlayer], work=321*
 64: 0x01CB [0x45] LOAD_SCHEDULED_TASK: Load scheduler "rd03" with entities [LocalPlayer, LocalPlayer], work=[321*, 0*]
 65: 0x01DC [0x4A] LocalPlayer looks at Rodin-Comidin (ID: 16982137/0x01032079)
 66: 0x01E5 [0x2B] Rodin-Comidin (ID: 16982137/0x01032079) [9722*]:
    → "Welcome, welcome!\u0007So good to have you back in Al Zahbi!\u007F1\u0000\u0007"
 67: 0x01EC [0x23] WAIT_FOR_DIALOG_INTERACTION
 68: 0x01ED [0x27] REQ_SET(priority=0x10, entity_id=Unnamed NPC (ID: 16982539/0x0103220B), tag_num=0x32)
 69: 0x01F4 [0x52] END_LOAD_SCHEDULER: End scheduler "rd03" with entities [LocalPlayer, LocalPlayer], work=321*
 70: 0x0203 [0x45] LOAD_SCHEDULED_TASK: Load scheduler "rd04" with entities [LocalPlayer, LocalPlayer], work=[321*, 0*]
 71: 0x0214 [0x2B] King of Hearts (ID: 16982231/0x010320D7) [9723*]:
    → "HehE\u0001\u001AheHEhE...\u0007LaDy\u0001\u001AKaRabAbA, tHE KiNg\u0001\u001AiS hErE aNd At\u0001\u001AyoUR sERviCe!\u007F1\u0000\u0007"
 72: 0x021B [0x23] WAIT_FOR_DIALOG_INTERACTION
 73: 0x021C [0x2B] Rodin-Comidin (ID: 16982137/0x01032079) [9724*]:
    → "Huh...?\u007F1\u0000\u0007"
 74: 0x0223 [0x23] WAIT_FOR_DIALOG_INTERACTION
 75: 0x0224 [0x52] END_LOAD_SCHEDULER: End scheduler "rd04" with entities [LocalPlayer, LocalPlayer], work=321*
 76: 0x0233 [0x45] LOAD_SCHEDULED_TASK: Load scheduler "rd05" with entities [LocalPlayer, LocalPlayer], work=[321*, 0*]
 77: 0x0244 [0x27] REQ_SET(priority=0x10, entity_id=King of Hearts (ID: 16982231/0x010320D7), tag_num=0x23)
 78: 0x024B [0x2B] King of Hearts (ID: 16982231/0x010320D7) [9725*]:
    → "ThE KiNg\u0001\u001AhAS coMe wiTH\u0001\u001Aa pREseNt foR\u0001\u001AyOU.\u0007A ToY\u0001\u001AfoR LaDy\u0001\u001AKaRabAbA!\u007F1\u0000\u0007"
 79: 0x0252 [0x23] WAIT_FOR_DIALOG_INTERACTION
 80: 0x0253 [0x2A] GET_REQ_LEVEL(level=16, entity_id=King of Hearts (ID: 16982231/0x010320D7))
 81: 0x0259 [0x5B] LOAD_EXT_SCHEDULER: Load scheduler "ybi0" with entities [King of Hearts (ID: 16982231/0x010320D7), King of Hearts (ID: 16982231/0x010320D7)], work=182*
 82: 0x0268 [0x53] WAIT_SCHEDULER_TASK: Wait for scheduler "ybi0" with entities [King of Hearts (ID: 16982231/0x010320D7), King of Hearts (ID: 16982231/0x010320D7)]
 83: 0x0275 [0x1C] WAIT(60* ticks)
 84: 0x0278 [0x66] LOAD_EXT_SCHEDULER_MAIN: Load scheduler "tlk0" with entities [Rodin-Comidin (ID: 16982137/0x01032079), Rodin-Comidin (ID: 16982137/0x01032079)], work=40*
 85: 0x0287 [0x2B] Rodin-Comidin (ID: 16982137/0x01032079) [9726*]:
    → "Um, King...?\u0007Th-this device seems to be broken...and soaking wet.\u007F1\u0000\u0007"
 86: 0x028E [0x23] WAIT_FOR_DIALOG_INTERACTION
 87: 0x028F [0x66] LOAD_EXT_SCHEDULER_MAIN: Load scheduler "tlk1" with entities [Rodin-Comidin (ID: 16982137/0x01032079), Rodin-Comidin (ID: 16982137/0x01032079)], work=40*
 88: 0x029E [0x5B] LOAD_EXT_SCHEDULER: Load scheduler "kai0" with entities [King of Hearts (ID: 16982231/0x010320D7), King of Hearts (ID: 16982231/0x010320D7)], work=182*
 89: 0x02AD [0x2B] King of Hearts (ID: 16982231/0x010320D7) [9727*]:
    → "HehE\u0001\u001AheHEhE!\u0007A woNDerFuL\u0001\u001AjESt, LaDy\u0001\u001AKaRabAbA!\u007F1\u0000\u0007"
 90: 0x02B4 [0x23] WAIT_FOR_DIALOG_INTERACTION
 91: 0x02B5 [0x52] END_LOAD_SCHEDULER: End scheduler "rd05" with entities [LocalPlayer, LocalPlayer], work=321*
 92: 0x02C4 [0x45] LOAD_SCHEDULED_TASK: Load scheduler "rd06" with entities [LocalPlayer, LocalPlayer], work=[321*, 0*]
 93: 0x02D5 [0x53] WAIT_SCHEDULER_TASK: Wait for scheduler "kai0" with entities [King of Hearts (ID: 16982231/0x010320D7), King of Hearts (ID: 16982231/0x010320D7)]
 94: 0x02E2 [0x7C] Rodin-Comidin (ID: 16982137/0x01032079)->Render.Flags2 |= 0x00
 95: 0x02E8 [0x2B] Rodin-Comidin (ID: 16982137/0x01032079) [9728*]:
    → "...\u007F1\u0000\u0007"
 96: 0x02EF [0x23] WAIT_FOR_DIALOG_INTERACTION
 97: 0x02F0 [0x7C] Rodin-Comidin (ID: 16982137/0x01032079)->Render.Flags2 |= 0x01
 98: 0x02F6 [0x66] LOAD_EXT_SCHEDULER_MAIN: Load scheduler "tlk0" with entities [Rodin-Comidin (ID: 16982137/0x01032079), Rodin-Comidin (ID: 16982137/0x01032079)], work=40*
 99: 0x0305 [0x2B] Rodin-Comidin (ID: 16982137/0x01032079) [9729*]:
    → "A-and, I'm sorry to correct you, but you seem to have mistaken me for Lady Karababa.\u0007I am Rodin-Comidin...\u007F1\u0000\u0007"
100: 0x030C [0x23] WAIT_FOR_DIALOG_INTERACTION
101: 0x030D [0x66] LOAD_EXT_SCHEDULER_MAIN: Load scheduler "tlk1" with entities [Rodin-Comidin (ID: 16982137/0x01032079), Rodin-Comidin (ID: 16982137/0x01032079)], work=40*
102: 0x031C [0x52] END_LOAD_SCHEDULER: End scheduler "rd06" with entities [LocalPlayer, LocalPlayer], work=321*
103: 0x032B [0x45] LOAD_SCHEDULED_TASK: Load scheduler "rd07" with entities [LocalPlayer, LocalPlayer], work=[321*, 0*]
104: 0x033C [0x5B] LOAD_EXT_SCHEDULER: Load scheduler "kai0" with entities [King of Hearts (ID: 16982231/0x010320D7), King of Hearts (ID: 16982231/0x010320D7)], work=182*
105: 0x034B [0x2B] King of Hearts (ID: 16982231/0x010320D7) [9730*]:
    → "Oho!\u0007AnoTHeR\u0001\u001AmaRveLouS\u0001\u001AjoKE!\u007F1\u0000\u0007"
106: 0x0352 [0x23] WAIT_FOR_DIALOG_INTERACTION
107: 0x0353 [0x53] WAIT_SCHEDULER_TASK: Wait for scheduler "kai0" with entities [King of Hearts (ID: 16982231/0x010320D7), King of Hearts (ID: 16982231/0x010320D7)]
108: 0x0360 [0x52] END_LOAD_SCHEDULER: End scheduler "rd07" with entities [LocalPlayer, LocalPlayer], work=321*
109: 0x036F [0x45] LOAD_SCHEDULED_TASK: Load scheduler "rd08" with entities [LocalPlayer, LocalPlayer], work=[321*, 0*]
110: 0x0380 [0x66] LOAD_EXT_SCHEDULER_MAIN: Load scheduler "bik0" with entities [Rodin-Comidin (ID: 16982137/0x01032079), Rodin-Comidin (ID: 16982137/0x01032079)], work=42*
111: 0x038F [0x2B] Rodin-Comidin (ID: 16982137/0x01032079) [9731*]:
    → "Oh...oh no...\u007F1\u0000\u0007"
112: 0x0396 [0x23] WAIT_FOR_DIALOG_INTERACTION
113: 0x0397 [0x52] END_LOAD_SCHEDULER: End scheduler "rd08" with entities [LocalPlayer, LocalPlayer], work=321*
114: 0x03A6 [0x45] LOAD_SCHEDULED_TASK: Load scheduler "rd09" with entities [LocalPlayer, LocalPlayer], work=[321*, 0*]
115: 0x03B7 [0x66] LOAD_EXT_SCHEDULER_MAIN: Load scheduler "tlk0" with entities [Rodin-Comidin (ID: 16982137/0x01032079), Rodin-Comidin (ID: 16982137/0x01032079)], work=40*
116: 0x03C6 [0x2B] Rodin-Comidin (ID: 16982137/0x01032079) [9732*]:
    → "Um, King of Hearts?\u0007How exactly did you enter Al Zahbi?\u007F1\u0000\u0007"
117: 0x03CD [0x23] WAIT_FOR_DIALOG_INTERACTION
118: 0x03CE [0x66] LOAD_EXT_SCHEDULER_MAIN: Load scheduler "tlk1" with entities [Rodin-Comidin (ID: 16982137/0x01032079), Rodin-Comidin (ID: 16982137/0x01032079)], work=40*
119: 0x03DD [0x5B] LOAD_EXT_SCHEDULER: Load scheduler "kai0" with entities [King of Hearts (ID: 16982231/0x010320D7), King of Hearts (ID: 16982231/0x010320D7)], work=182*
120: 0x03EC [0x2B] King of Hearts (ID: 16982231/0x010320D7) [9733*]:
    → "I caME iN\u0001\u001AthROuGh tHE\u0001\u001ApoRt, LaDy\u0001\u001AKaRabAbA.\u007F1\u0000\u0007"
121: 0x03F3 [0x23] WAIT_FOR_DIALOG_INTERACTION
122: 0x03F4 [0x53] WAIT_SCHEDULER_TASK: Wait for scheduler "kai0" with entities [King of Hearts (ID: 16982231/0x010320D7), King of Hearts (ID: 16982231/0x010320D7)]
123: 0x0401 [0x52] END_LOAD_SCHEDULER: End scheduler "rd09" with entities [LocalPlayer, LocalPlayer], work=321*
124: 0x0410 [0x45] LOAD_SCHEDULED_TASK: Load scheduler "rd10" with entities [LocalPlayer, LocalPlayer], work=[321*, 0*]
125: 0x0421 [0x66] LOAD_EXT_SCHEDULER_MAIN: Load scheduler "shk0" with entities [Rodin-Comidin (ID: 16982137/0x01032079), Rodin-Comidin (ID: 16982137/0x01032079)], work=41*
126: 0x0430 [0x2B] Rodin-Comidin (ID: 16982137/0x01032079) [9734*]:
    → "Through the port...?\u0007You mean, underwater!?\u007F1\u0000\u0007"
127: 0x0437 [0x23] WAIT_FOR_DIALOG_INTERACTION
128: 0x0438 [0x66] LOAD_EXT_SCHEDULER_MAIN: Load scheduler "gkr0" with entities [Rodin-Comidin (ID: 16982137/0x01032079), Rodin-Comidin (ID: 16982137/0x01032079)], work=40*
129: 0x0447 [0x2B] Rodin-Comidin (ID: 16982137/0x01032079) [9735*]:
    → "You've saturated your star fruit again!\u0007You were designed to withstand a certain amount of moisture, but if you jump in the bay...\u007F1\u0000\u0007"
130: 0x044E [0x23] WAIT_FOR_DIALOG_INTERACTION
131: 0x044F [0x52] END_LOAD_SCHEDULER: End scheduler "rd10" with entities [LocalPlayer, LocalPlayer], work=321*
132: 0x045E [0x45] LOAD_SCHEDULED_TASK: Load scheduler "rd18" with entities [LocalPlayer, LocalPlayer], work=[321*, 0*]
133: 0x046F [0x5B] LOAD_EXT_SCHEDULER: Load scheduler "kai0" with entities [King of Hearts (ID: 16982231/0x010320D7), King of Hearts (ID: 16982231/0x010320D7)], work=182*
134: 0x047E [0x2B] King of Hearts (ID: 16982231/0x010320D7) [9736*]:
    → "I aM fuLLy\u0001\u001AfuNCtiOnaL, LaDy\u0001\u001AKaRabAbA!\u0007FoR yOU, I\u0001\u001AwoULd JuMp thROuGh\u0001\u001A fiRE, WatER, cHOcoLAte\u0001\u001ApUddiNg...\u007F1\u0000\u0007"
135: 0x0485 [0x23] WAIT_FOR_DIALOG_INTERACTION
136: 0x0486 [0x53] WAIT_SCHEDULER_TASK: Wait for scheduler "kai0" with entities [King of Hearts (ID: 16982231/0x010320D7), King of Hearts (ID: 16982231/0x010320D7)]
137: 0x0493 [0x52] END_LOAD_SCHEDULER: End scheduler "rd18" with entities [LocalPlayer, LocalPlayer], work=321*
138: 0x04A2 [0x45] LOAD_SCHEDULED_TASK: Load scheduler "rd11" with entities [LocalPlayer, LocalPlayer], work=[321*, 0*]
139: 0x04B3 [0x5D] SET_MUSIC_VOLUME(volume=0*, fade_time=180*)
140: 0x04B8 [0x5B] LOAD_EXT_SCHEDULER: Load scheduler "tla0" with entities [King of Hearts (ID: 16982231/0x010320D7), King of Hearts (ID: 16982231/0x010320D7)], work=181*
141: 0x04C7 [0x2B] King of Hearts (ID: 16982231/0x010320D7) [9737*]:
    → "BuT wE\u0001\u001AshoULd bE geTTiNg\u0001\u001AbACk tO\u0001\u001AtHE miSSioN!\u0007HiDe aNd SeEK!\u0001\u001ASeARcH aNd\u0001\u001AdEStroY! LuZaF, LuZaF, hERe\u0001\u001AwE cOMe!\u007F1\u0000\u0007"
142: 0x04CE [0x23] WAIT_FOR_DIALOG_INTERACTION
143: 0x04CF [0x5B] LOAD_EXT_SCHEDULER: Load scheduler "tla1" with entities [King of Hearts (ID: 16982231/0x010320D7), King of Hearts (ID: 16982231/0x010320D7)], work=181*
144: 0x04DE [0x66] LOAD_EXT_SCHEDULER_MAIN: Load scheduler "gkr1" with entities [Rodin-Comidin (ID: 16982137/0x01032079), Rodin-Comidin (ID: 16982137/0x01032079)], work=40*
145: 0x04ED [0x2B] Rodin-Comidin (ID: 16982137/0x01032079) [9738*]:
    → "W-well, you see, King...\u0007Luzaf has been taken outside of the capital to another holding facility.\u007F1\u0000\u0007"
146: 0x04F4 [0x23] WAIT_FOR_DIALOG_INTERACTION
147: 0x04F5 [0x52] END_LOAD_SCHEDULER: End scheduler "rd11" with entities [LocalPlayer, LocalPlayer], work=321*
148: 0x0504 [0x45] LOAD_SCHEDULED_TASK: Load scheduler "rd12" with entities [LocalPlayer, LocalPlayer], work=[321*, 0*]
149: 0x0515 [0x5C] MUSIC_CONTROL: Set Idle (Day) music to song 163*
150: 0x0519 [0x5C] MUSIC_CONTROL: Set Idle (Night) music to song 163*
151: 0x051D [0x9A] WAIT_MUSIC_SERVER()
152: 0x051E [0x66] LOAD_EXT_SCHEDULER_MAIN: Load scheduler "tlk0" with entities [Rodin-Comidin (ID: 16982137/0x01032079), Rodin-Comidin (ID: 16982137/0x01032079)], work=40*
153: 0x052D [0x2B] Rodin-Comidin (ID: 16982137/0x01032079) [9739*]:
    → "Um...to teach him humility?\u0007(Might as well play the part...)\u007F1\u0000\u0007"
154: 0x0534 [0x23] WAIT_FOR_DIALOG_INTERACTION
155: 0x0535 [0x66] LOAD_EXT_SCHEDULER_MAIN: Load scheduler "tlk1" with entities [Rodin-Comidin (ID: 16982137/0x01032079), Rodin-Comidin (ID: 16982137/0x01032079)], work=40*
156: 0x0544 [0x5B] LOAD_EXT_SCHEDULER: Load scheduler "mgc0" with entities [King of Hearts (ID: 16982231/0x010320D7), King of Hearts (ID: 16982231/0x010320D7)], work=182*
157: 0x0553 [0x52] END_LOAD_SCHEDULER: End scheduler "rd12" with entities [LocalPlayer, LocalPlayer], work=321*
158: 0x0562 [0x45] LOAD_SCHEDULED_TASK: Load scheduler "rd13" with entities [LocalPlayer, LocalPlayer], work=[321*, 0*]
159: 0x0573 [0x2B] King of Hearts (ID: 16982231/0x010320D7) [9740*]:
    → "A cHAnGe\u0001\u001AoF pLaNS, LaDy\u0001\u001AKaRabAbA?\u007F1\u0000\u0007"
160: 0x057A [0x23] WAIT_FOR_DIALOG_INTERACTION
161: 0x057B [0x52] END_LOAD_SCHEDULER: End scheduler "rd13" with entities [LocalPlayer, LocalPlayer], work=321*
162: 0x058A [0x45] LOAD_SCHEDULED_TASK: Load scheduler "rd14" with entities [LocalPlayer, LocalPlayer], work=[321*, 0*]
163: 0x059B [0x66] LOAD_EXT_SCHEDULER_MAIN: Load scheduler "ohh0" with entities [Rodin-Comidin (ID: 16982137/0x01032079), Rodin-Comidin (ID: 16982137/0x01032079)], work=41*
164: 0x05AA [0x2B] Rodin-Comidin (ID: 16982137/0x01032079) [9741*]:
    → "Not to worry...my dear King.\u0007We've taken care of everything.\u007F1\u0000\u0007"
165: 0x05B1 [0x23] WAIT_FOR_DIALOG_INTERACTION
166: 0x05B2 [0x2B] Rodin-Comidin (ID: 16982137/0x01032079) [9742*]:
    → "Nyzul Isle in the Ruins of Alzadaal is his new location...\u007F1\u0000\u0007"
167: 0x05B9 [0x23] WAIT_FOR_DIALOG_INTERACTION
168: 0x05BA [0x5B] LOAD_EXT_SCHEDULER: Load scheduler "men0" with entities [King of Hearts (ID: 16982231/0x010320D7), King of Hearts (ID: 16982231/0x010320D7)], work=182*
169: 0x05C9 [0x2B] King of Hearts (ID: 16982231/0x010320D7) [9743*]:
    → "ALZadaAL?\u007F1\u0000\u0007"
170: 0x05D0 [0x23] WAIT_FOR_DIALOG_INTERACTION
171: 0x05D1 [0x66] LOAD_EXT_SCHEDULER_MAIN: Load scheduler "ohh1" with entities [Rodin-Comidin (ID: 16982137/0x01032079), Rodin-Comidin (ID: 16982137/0x01032079)], work=41*
172: 0x05E0 [0x1C] WAIT(15* ticks)
173: 0x05E3 [0x52] END_LOAD_SCHEDULER: End scheduler "rd14" with entities [LocalPlayer, LocalPlayer], work=321*
174: 0x05F2 [0x45] LOAD_SCHEDULED_TASK: Load scheduler "rd15" with entities [LocalPlayer, LocalPlayer], work=[321*, 0*]
175: 0x0603 [0x2B] Rodin-Comidin (ID: 16982137/0x01032079) [9744*]:
    → "We have Travi--ah, Rodin-Comidin to thank for this information!\u0007(This rhyming thing is hard--how does she keep it up...?)\u007F1\u0000\u0007"
176: 0x060A [0x23] WAIT_FOR_DIALOG_INTERACTION
177: 0x060B [0x5B] LOAD_EXT_SCHEDULER: Load scheduler "kai0" with entities [King of Hearts (ID: 16982231/0x010320D7), King of Hearts (ID: 16982231/0x010320D7)], work=182*
178: 0x061A [0x2B] King of Hearts (ID: 16982231/0x010320D7) [9745*]:
    → "WoNdeRfuL\u0001\u001AnEWs!\u0007RoDin-CoMidiN iS\u0001\u001ATo bE\u0001\u001AcoMmeNDed!\u007F1\u0000\u0007"
179: 0x0621 [0x23] WAIT_FOR_DIALOG_INTERACTION
180: 0x0622 [0x53] WAIT_SCHEDULER_TASK: Wait for scheduler "kai0" with entities [King of Hearts (ID: 16982231/0x010320D7), King of Hearts (ID: 16982231/0x010320D7)]
181: 0x062F [0x52] END_LOAD_SCHEDULER: End scheduler "rd15" with entities [LocalPlayer, LocalPlayer], work=321*
182: 0x063E [0x45] LOAD_SCHEDULED_TASK: Load scheduler "rd16" with entities [LocalPlayer, LocalPlayer], work=[321*, 0*]
183: 0x064F [0x66] LOAD_EXT_SCHEDULER_MAIN: Load scheduler "tlk0" with entities [Rodin-Comidin (ID: 16982137/0x01032079), Rodin-Comidin (ID: 16982137/0x01032079)], work=40*
184: 0x065E [0x2B] Rodin-Comidin (ID: 16982137/0x01032079) [9746*]:
    → "Oho...hohoho.\u0007Too right you are!\u0007He's earned a shiny gold star!\u0007(Oh dear, that was terrible...)\u007F1\u0000\u0007"
185: 0x0665 [0x23] WAIT_FOR_DIALOG_INTERACTION
186: 0x0666 [0x66] LOAD_EXT_SCHEDULER_MAIN: Load scheduler "tlk1" with entities [Rodin-Comidin (ID: 16982137/0x01032079), Rodin-Comidin (ID: 16982137/0x01032079)], work=40*
187: 0x0675 [0x52] END_LOAD_SCHEDULER: End scheduler "rd16" with entities [LocalPlayer, LocalPlayer], work=321*
188: 0x0684 [0x45] LOAD_SCHEDULED_TASK: Load scheduler "rd17" with entities [LocalPlayer, LocalPlayer], work=[321*, 0*]
189: 0x0695 [0x5B] LOAD_EXT_SCHEDULER: Load scheduler "kai0" with entities [King of Hearts (ID: 16982231/0x010320D7), King of Hearts (ID: 16982231/0x010320D7)], work=182*
190: 0x06A4 [0x2B] King of Hearts (ID: 16982231/0x010320D7) [9747*]:
    → "TheN wE\u0001\u001AmuST mAkE\u0001\u001AfOr NyZuL IsLe!\u0007AnoTHeR diP\u0001\u001AiN tHE\u0001\u001AsPLishY-spLAshY waTEr!\u007F1\u0000\u0007"
191: 0x06AB [0x23] WAIT_FOR_DIALOG_INTERACTION
192: 0x06AC [0x53] WAIT_SCHEDULER_TASK: Wait for scheduler "kai0" with entities [King of Hearts (ID: 16982231/0x010320D7), King of Hearts (ID: 16982231/0x010320D7)]
193: 0x06B9 [0x52] END_LOAD_SCHEDULER: End scheduler "rd17" with entities [LocalPlayer, LocalPlayer], work=321*
194: 0x06C8 [0x45] LOAD_SCHEDULED_TASK: Load scheduler "rd19" with entities [LocalPlayer, LocalPlayer], work=[321*, 0*]
195: 0x06D9 [0x27] REQ_SET(priority=0x10, entity_id=King of Hearts (ID: 16982231/0x010320D7), tag_num=0x24)
196: 0x06E0 [0x1C] WAIT(60* ticks)
197: 0x06E3 [0x4A] LocalPlayer looks at King of Hearts (ID: 16982231/0x010320D7)
198: 0x06EC [0x4A] Rodin-Comidin (ID: 16982137/0x01032079) looks at King of Hearts (ID: 16982231/0x010320D7)
199: 0x06F5 [0x2A] GET_REQ_LEVEL(level=16, entity_id=King of Hearts (ID: 16982231/0x010320D7))
200: 0x06FB [0x52] END_LOAD_SCHEDULER: End scheduler "rd19" with entities [LocalPlayer, LocalPlayer], work=321*
201: 0x070A [0x45] LOAD_SCHEDULED_TASK: Load scheduler "rd20" with entities [LocalPlayer, LocalPlayer], work=[321*, 0*]
202: 0x071B [0x7B] Rodin-Comidin (ID: 16982137/0x01032079) stops talking
203: 0x0720 [0x66] LOAD_EXT_SCHEDULER_MAIN: Load scheduler "thk1" with entities [Rodin-Comidin (ID: 16982137/0x01032079), Rodin-Comidin (ID: 16982137/0x01032079)], work=40*
204: 0x072F [0x2B] Rodin-Comidin (ID: 16982137/0x01032079) [9748*]:
    → "Oh dear, oh dear, oh dear...\u0007We can't take the King along with us in this state--he'll bring the entire Imperial Army down upon us.\u007F1\u0000\u0007"
205: 0x0736 [0x23] WAIT_FOR_DIALOG_INTERACTION
206: 0x0737 [0x27] REQ_SET(priority=0x10, entity_id=King of Hearts (ID: 16982231/0x010320D7), tag_num=0x25)
207: 0x073E [0x1C] WAIT(45* ticks)
208: 0x0741 [0x52] END_LOAD_SCHEDULER: End scheduler "rd20" with entities [LocalPlayer, LocalPlayer], work=321*
209: 0x0750 [0x45] LOAD_SCHEDULED_TASK: Load scheduler "rd21" with entities [LocalPlayer, LocalPlayer], work=[321*, 0*]
210: 0x0761 [0x66] LOAD_EXT_SCHEDULER_MAIN: Load scheduler "thk2" with entities [Rodin-Comidin (ID: 16982137/0x01032079), Rodin-Comidin (ID: 16982137/0x01032079)], work=40*
211: 0x0770 [0x2B] King of Hearts (ID: 16982231/0x010320D7) [9749*]:
    → "ArE yOU\u0001\u001AreADy tO\u0001\u001AGo, LaDy\u0001\u001AKaRabAbA?\u007F1\u0000\u0007"
212: 0x0777 [0x23] WAIT_FOR_DIALOG_INTERACTION
213: 0x0778 [0x2A] GET_REQ_LEVEL(level=16, entity_id=King of Hearts (ID: 16982231/0x010320D7))
214: 0x077E [0x66] LOAD_EXT_SCHEDULER_MAIN: Load scheduler "ohh0" with entities [Rodin-Comidin (ID: 16982137/0x01032079), Rodin-Comidin (ID: 16982137/0x01032079)], work=41*
215: 0x078D [0x2B] Rodin-Comidin (ID: 16982137/0x01032079) [9750*]:
    → "Oho...hohoho!\u0007Just a moment, King of Hearts!\u0007I'm just...going over the charts!\u007F1\u0000\u0007"
216: 0x0794 [0x23] WAIT_FOR_DIALOG_INTERACTION
217: 0x0795 [0x27] REQ_SET(priority=0x10, entity_id=King of Hearts (ID: 16982231/0x010320D7), tag_num=0x26)
218: 0x079C [0x1C] WAIT(20* ticks)
219: 0x079F [0x66] LOAD_EXT_SCHEDULER_MAIN: Load scheduler "ohh1" with entities [Rodin-Comidin (ID: 16982137/0x01032079), Rodin-Comidin (ID: 16982137/0x01032079)], work=41*
220: 0x07AE [0x4A] Rodin-Comidin (ID: 16982137/0x01032079) looks at LocalPlayer
221: 0x07B7 [0x52] END_LOAD_SCHEDULER: End scheduler "rd21" with entities [LocalPlayer, LocalPlayer], work=321*
222: 0x07C6 [0x45] LOAD_SCHEDULED_TASK: Load scheduler "rd22" with entities [LocalPlayer, LocalPlayer], work=[321*, 0*]
223: 0x07D7 [0x79] LocalPlayer looks at Rodin-Comidin (ID: 16982137/0x01032079) (Basic look)
224: 0x07E1 [0x2B] Rodin-Comidin (ID: 16982137/0x01032079) [9751*]:
    → "\u0008.\u0007I'll do my best to keep the King occupied and out of your way.\u007F1\u0000\u0007"
225: 0x07E8 [0x23] WAIT_FOR_DIALOG_INTERACTION
226: 0x07E9 [0x66] LOAD_EXT_SCHEDULER_MAIN: Load scheduler "ehn0" with entities [Rodin-Comidin (ID: 16982137/0x01032079), Rodin-Comidin (ID: 16982137/0x01032079)], work=41*
227: 0x07F8 [0x2B] Rodin-Comidin (ID: 16982137/0x01032079) [9752*]:
    → "Unfortunately, that leaves you and you alone to break out Luzaf.\u0007Do you think you can do it?\u007F1\u0000\u0007"
228: 0x07FF [0x23] WAIT_FOR_DIALOG_INTERACTION
229: 0x0800 [0x66] LOAD_EXT_SCHEDULER_MAIN: Load scheduler "ehn1" with entities [Rodin-Comidin (ID: 16982137/0x01032079), Rodin-Comidin (ID: 16982137/0x01032079)], work=41*
230: 0x080F [0x06] ExtData[1]->WorkLocal[1] = 0
231: 0x0812 [0x24] CREATE_DIALOG(message_id=9753*, default_option=1*, option_flags=ExtData[1]->WorkLocal[1])
    → "Can you rescue Luzaf alone?\u0007\u000BLeave it to me!\u0007Not likely...\u007F1\u0000\u0007"
232: 0x0819 [0x25] WAIT_DIALOG_SELECT()
233: 0x081A [0x02] IF !(Work_Zone[0] == 1*) GOTO 0x096B
234: 0x0822 [0x6E] LocalPlayer uses emote 35*
235: 0x0829 [0x99] Wait for LocalPlayer animation to complete
236: 0x082E [0x99] Wait for LocalPlayer animation to complete
237: 0x0833 [0x1C] WAIT(60* ticks)
238: 0x0836 [0x52] END_LOAD_SCHEDULER: End scheduler "rd22" with entities [LocalPlayer, LocalPlayer], work=321*
239: 0x0845 [0x45] LOAD_SCHEDULED_TASK: Load scheduler "rd23" with entities [LocalPlayer, LocalPlayer], work=[321*, 0*]
240: 0x0856 [0x4A] Rodin-Comidin (ID: 16982137/0x01032079) looks at King of Hearts (ID: 16982231/0x010320D7)
241: 0x085F [0x79] LocalPlayer looks at King of Hearts (ID: 16982231/0x010320D7) (Basic look)
242: 0x0869 [0x2B] King of Hearts (ID: 16982231/0x010320D7) [9754*]:
    → "LaDy\u0001\u001AKaRabAbA?\u0007NyZuL IsLE\u0001\u001AiS tHiS\u0001\u001AwaY!\u007F1\u0000\u0007"
243: 0x0870 [0x23] WAIT_FOR_DIALOG_INTERACTION
244: 0x0871 [0x45] LOAD_SCHEDULED_TASK: Load scheduler "0sbk" with entities [King of Hearts (ID: 16982231/0x010320D7), King of Hearts (ID: 16982231/0x010320D7)], work=[321*, 0*]
245: 0x0882 [0x52] END_LOAD_SCHEDULER: End scheduler "rd23" with entities [LocalPlayer, LocalPlayer], work=321*
246: 0x0891 [0x45] LOAD_SCHEDULED_TASK: Load scheduler "rd24" with entities [LocalPlayer, LocalPlayer], work=[321*, 0*]
247: 0x08A2 [0x66] LOAD_EXT_SCHEDULER_MAIN: Load scheduler "ohh0" with entities [Rodin-Comidin (ID: 16982137/0x01032079), Rodin-Comidin (ID: 16982137/0x01032079)], work=41*
248: 0x08B1 [0x2B] Rodin-Comidin (ID: 16982137/0x01032079) [9755*]:
    → "Ohohohoho!\u0007Hold your chocobos, my feisty friend!\u0007Uh...no need to rush to the end!\u007F1\u0000\u0007"
249: 0x08B8 [0x23] WAIT_FOR_DIALOG_INTERACTION
250: 0x08B9 [0x66] LOAD_EXT_SCHEDULER_MAIN: Load scheduler "ohh1" with entities [Rodin-Comidin (ID: 16982137/0x01032079), Rodin-Comidin (ID: 16982137/0x01032079)], work=41*
251: 0x08C8 [0x4A] Rodin-Comidin (ID: 16982137/0x01032079) looks at LocalPlayer
252: 0x08D1 [0x6F] WAIT_FRAME_DELAY: Yield until WaitTime reaches zero
253: 0x08D2 [0x76] CHECK_ENTITY_RENDER_FLAGS: Wait until Rodin-Comidin (ID: 16982137/0x01032079) Render.Flags0 and Render.Flags3 conditions are met
254: 0x08D7 [0x79] LocalPlayer looks at Rodin-Comidin (ID: 16982137/0x01032079) (Basic look)
255: 0x08E1 [0x45] LOAD_SCHEDULED_TASK: Load scheduler "0ebk" with entities [King of Hearts (ID: 16982231/0x010320D7), King of Hearts (ID: 16982231/0x010320D7)], work=[321*, 0*]
256: 0x08F2 [0x2B] Rodin-Comidin (ID: 16982137/0x01032079) [9756*]:
    → "He's completely off his rocker!\u007F1\u0000\u0007"
257: 0x08F9 [0x23] WAIT_FOR_DIALOG_INTERACTION
258: 0x08FA [0x52] END_LOAD_SCHEDULER: End scheduler "rd24" with entities [LocalPlayer, LocalPlayer], work=321*
259: 0x0909 [0x45] LOAD_SCHEDULED_TASK: Load scheduler "rd25" with entities [LocalPlayer, LocalPlayer], work=[321*, 0*]
260: 0x091A [0x66] LOAD_EXT_SCHEDULER_MAIN: Load scheduler "tlk0" with entities [Rodin-Comidin (ID: 16982137/0x01032079), Rodin-Comidin (ID: 16982137/0x01032079)], work=40*
261: 0x0929 [0x2B] Rodin-Comidin (ID: 16982137/0x01032079) [9757*]:
    → "Please, \u0008, you're the only hope we have left.\u007F1\u0000\u0007"
262: 0x0930 [0x23] WAIT_FOR_DIALOG_INTERACTION
263: 0x0931 [0x66] LOAD_EXT_SCHEDULER_MAIN: Load scheduler "tlk1" with entities [Rodin-Comidin (ID: 16982137/0x01032079), Rodin-Comidin (ID: 16982137/0x01032079)], work=40*
264: 0x0940 [0x52] END_LOAD_SCHEDULER: End scheduler "rd25" with entities [LocalPlayer, LocalPlayer], work=321*
265: 0x094F [0x45] LOAD_SCHEDULED_TASK: Load scheduler "rd22" with entities [LocalPlayer, LocalPlayer], work=[321*, 0*]
266: 0x0960 [0x03] ExtData[1]->WorkLocal[1] = 2*
267: 0x0965 [0x01] GOTO 0x0812

SUBROUTINE_096B:
268: 0x096B [0x6E] LocalPlayer uses emote 36*
269: 0x0972 [0x99] Wait for LocalPlayer animation to complete
270: 0x0977 [0x99] Wait for LocalPlayer animation to complete
271: 0x097C [0x1C] WAIT(60* ticks)
272: 0x097F [0x52] END_LOAD_SCHEDULER: End scheduler "rd22" with entities [LocalPlayer, LocalPlayer], work=321*
273: 0x098E [0x45] LOAD_SCHEDULED_TASK: Load scheduler "rd25" with entities [LocalPlayer, LocalPlayer], work=[321*, 0*]
274: 0x099F [0x66] LOAD_EXT_SCHEDULER_MAIN: Load scheduler "pas0" with entities [Rodin-Comidin (ID: 16982137/0x01032079), Rodin-Comidin (ID: 16982137/0x01032079)], work=40*
275: 0x09AE [0x2B] Rodin-Comidin (ID: 16982137/0x01032079) [9758*]:
    → "I knew you'd come through for us, \u0008!\u0007Here, you'll need this.\u007F1\u0000\u0007"
276: 0x09B5 [0x23] WAIT_FOR_DIALOG_INTERACTION
277: 0x09B6 [0x03] Work_Zone[2] = 898*
278: 0x09BB [0x48] [System] [9759*]:
    → "\u001F\u000FRodin-Comidin hands you \u0001\u00056\u0002\u0000\u0000\u0000!\u0000\u0007"
279: 0x09BE [0x1C] WAIT(120* ticks)
280: 0x09C1 [0x52] END_LOAD_SCHEDULER: End scheduler "rd25" with entities [LocalPlayer, LocalPlayer], work=321*
281: 0x09D0 [0x45] LOAD_SCHEDULED_TASK: Load scheduler "rd26" with entities [LocalPlayer, LocalPlayer], work=[321*, 0*]
282: 0x09E1 [0x66] LOAD_EXT_SCHEDULER_MAIN: Load scheduler "tlk0" with entities [Rodin-Comidin (ID: 16982137/0x01032079), Rodin-Comidin (ID: 16982137/0x01032079)], work=40*
283: 0x09F0 [0x2B] Rodin-Comidin (ID: 16982137/0x01032079) [9760*]:
    → "This is the secret route Luzaf and his captors took through Nyzul Isle.\u007F1\u0000\u0007"
284: 0x09F7 [0x23] WAIT_FOR_DIALOG_INTERACTION
285: 0x09F8 [0x2B] Rodin-Comidin (ID: 16982137/0x01032079) [9761*]:
    → "Travialce was almost killed obtaining this information, so don't let his effort go to waste by being careless.\u007F1\u0000\u0007"
286: 0x09FF [0x23] WAIT_FOR_DIALOG_INTERACTION
287: 0x0A00 [0x66] LOAD_EXT_SCHEDULER_MAIN: Load scheduler "tlk1" with entities [Rodin-Comidin (ID: 16982137/0x01032079), Rodin-Comidin (ID: 16982137/0x01032079)], work=40*
288: 0x0A0F [0x4A] Rodin-Comidin (ID: 16982137/0x01032079) looks at King of Hearts (ID: 16982231/0x010320D7)
289: 0x0A18 [0x52] END_LOAD_SCHEDULER: End scheduler "rd26" with entities [LocalPlayer, LocalPlayer], work=321*
290: 0x0A27 [0x45] LOAD_SCHEDULED_TASK: Load scheduler "rd23" with entities [LocalPlayer, LocalPlayer], work=[321*, 0*]
291: 0x0A38 [0x79] LocalPlayer looks at King of Hearts (ID: 16982231/0x010320D7) (Basic look)
292: 0x0A42 [0x2B] King of Hearts (ID: 16982231/0x010320D7) [9762*]:
    → "LaDy\u0001\u001AKaRabAbA?\u0007NyZuL IsLE\u0001\u001AiS tHiS\u0001\u001AwaY!\u007F1\u0000\u0007"
293: 0x0A49 [0x23] WAIT_FOR_DIALOG_INTERACTION
294: 0x0A4A [0x45] LOAD_SCHEDULED_TASK: Load scheduler "0sbk" with entities [King of Hearts (ID: 16982231/0x010320D7), King of Hearts (ID: 16982231/0x010320D7)], work=[321*, 0*]
295: 0x0A5B [0x66] LOAD_EXT_SCHEDULER_MAIN: Load scheduler "ohh0" with entities [Rodin-Comidin (ID: 16982137/0x01032079), Rodin-Comidin (ID: 16982137/0x01032079)], work=41*
296: 0x0A6A [0x2B] Rodin-Comidin (ID: 16982137/0x01032079) [9763*]:
    → "Ohohohoho!\u0007Please, King, one moment more...!\u007F1\u0000\u0007"
297: 0x0A71 [0x23] WAIT_FOR_DIALOG_INTERACTION
298: 0x0A72 [0x52] END_LOAD_SCHEDULER: End scheduler "rd23" with entities [LocalPlayer, LocalPlayer], work=321*
299: 0x0A81 [0x45] LOAD_SCHEDULED_TASK: Load scheduler "rd27" with entities [LocalPlayer, LocalPlayer], work=[321*, 0*]
300: 0x0A92 [0x66] LOAD_EXT_SCHEDULER_MAIN: Load scheduler "ohh1" with entities [Rodin-Comidin (ID: 16982137/0x01032079), Rodin-Comidin (ID: 16982137/0x01032079)], work=41*
301: 0x0AA1 [0x2B] Rodin-Comidin (ID: 16982137/0x01032079) [9764*]:
    → "(Ah, I know!)\u0007First, I believe I need something sweet before we undertake this chore!\u007F1\u0000\u0007"
302: 0x0AA8 [0x23] WAIT_FOR_DIALOG_INTERACTION
303: 0x0AA9 [0x52] END_LOAD_SCHEDULER: End scheduler "rd27" with entities [LocalPlayer, LocalPlayer], work=321*
304: 0x0AB8 [0x45] LOAD_SCHEDULED_TASK: Load scheduler "rd29" with entities [LocalPlayer, LocalPlayer], work=[321*, 0*]
305: 0x0AC9 [0x45] LOAD_SCHEDULED_TASK: Load scheduler "0ebk" with entities [King of Hearts (ID: 16982231/0x010320D7), King of Hearts (ID: 16982231/0x010320D7)], work=[321*, 0*]
306: 0x0ADA [0x2B] King of Hearts (ID: 16982231/0x010320D7) [9765*]:
    → "SweeTs\u0001\u001AbeFoRE tHE\u0001\u001AmiSsioN?\u007F1\u0000\u0007"
307: 0x0AE1 [0x23] WAIT_FOR_DIALOG_INTERACTION
308: 0x0AE2 [0x52] END_LOAD_SCHEDULER: End scheduler "rd29" with entities [LocalPlayer, LocalPlayer], work=321*
309: 0x0AF1 [0x45] LOAD_SCHEDULED_TASK: Load scheduler "rd28" with entities [LocalPlayer, LocalPlayer], work=[321*, 0*]
310: 0x0B02 [0x66] LOAD_EXT_SCHEDULER_MAIN: Load scheduler "syu0" with entities [Rodin-Comidin (ID: 16982137/0x01032079), Rodin-Comidin (ID: 16982137/0x01032079)], work=40*
311: 0x0B11 [0x2B] Rodin-Comidin (ID: 16982137/0x01032079) [9766*]:
    → "Yes! Yes, something tasty and sweet!\u0007I think I recall a lovely shop just down that street...\u007F1\u0000\u0007"
312: 0x0B18 [0x23] WAIT_FOR_DIALOG_INTERACTION
313: 0x0B19 [0x5B] LOAD_EXT_SCHEDULER: Load scheduler "kai0" with entities [King of Hearts (ID: 16982231/0x010320D7), King of Hearts (ID: 16982231/0x010320D7)], work=182*
314: 0x0B28 [0x2B] King of Hearts (ID: 16982231/0x010320D7) [9767*]:
    → "SWeeTs\u0001\u001AaRe bESt\u0001\u001AfoR tHE weARy\u0001\u001ASouL!\u007F1\u0000\u0007"
315: 0x0B2F [0x23] WAIT_FOR_DIALOG_INTERACTION
316: 0x0B30 [0x53] WAIT_SCHEDULER_TASK: Wait for scheduler "kai0" with entities [King of Hearts (ID: 16982231/0x010320D7), King of Hearts (ID: 16982231/0x010320D7)]
317: 0x0B3D [0x27] REQ_SET(priority=0x10, entity_id=King of Hearts (ID: 16982231/0x010320D7), tag_num=0x28)
318: 0x0B44 [0x52] END_LOAD_SCHEDULER: End scheduler "rd28" with entities [LocalPlayer, LocalPlayer], work=321*
319: 0x0B53 [0x45] LOAD_SCHEDULED_TASK: Load scheduler "rd30" with entities [LocalPlayer, LocalPlayer], work=[321*, 0*]
320: 0x0B64 [0x7B] Rodin-Comidin (ID: 16982137/0x01032079) stops talking
321: 0x0B69 [0x66] LOAD_EXT_SCHEDULER_MAIN: Load scheduler "gkr0" with entities [Rodin-Comidin (ID: 16982137/0x01032079), Rodin-Comidin (ID: 16982137/0x01032079)], work=40*
322: 0x0B78 [0x1C] WAIT(20* ticks)
323: 0x0B7B [0x2B] Rodin-Comidin (ID: 16982137/0x01032079) [9768*]:
    → "Phew...\u007F1\u0000\u0007"
324: 0x0B82 [0x23] WAIT_FOR_DIALOG_INTERACTION
325: 0x0B83 [0x53] WAIT_SCHEDULER_TASK: Wait for scheduler "gkr0" with entities [Rodin-Comidin (ID: 16982137/0x01032079), Rodin-Comidin (ID: 16982137/0x01032079)]
326: 0x0B90 [0x2A] GET_REQ_LEVEL(level=16, entity_id=King of Hearts (ID: 16982231/0x010320D7))
327: 0x0B96 [0x52] END_LOAD_SCHEDULER: End scheduler "rd30" with entities [LocalPlayer, LocalPlayer], work=321*
328: 0x0BA5 [0x45] LOAD_SCHEDULED_TASK: Load scheduler "rd31" with entities [LocalPlayer, LocalPlayer], work=[321*, 0*]
329: 0x0BB6 [0x27] REQ_SET(priority=0x10, entity_id=King of Hearts (ID: 16982231/0x010320D7), tag_num=0x29)
330: 0x0BBD [0x66] LOAD_EXT_SCHEDULER_MAIN: Load scheduler "gkr1" with entities [Rodin-Comidin (ID: 16982137/0x01032079), Rodin-Comidin (ID: 16982137/0x01032079)], work=40*
331: 0x0BCC [0x1C] WAIT(20* ticks)
332: 0x0BCF [0x4A] Rodin-Comidin (ID: 16982137/0x01032079) looks at LocalPlayer
333: 0x0BD8 [0x6F] WAIT_FRAME_DELAY: Yield until WaitTime reaches zero
334: 0x0BD9 [0x76] CHECK_ENTITY_RENDER_FLAGS: Wait until Rodin-Comidin (ID: 16982137/0x01032079) Render.Flags0 and Render.Flags3 conditions are met
335: 0x0BDE [0x79] LocalPlayer looks at Rodin-Comidin (ID: 16982137/0x01032079) (Basic look)
336: 0x0BE8 [0x66] LOAD_EXT_SCHEDULER_MAIN: Load scheduler "ohh0" with entities [Rodin-Comidin (ID: 16982137/0x01032079), Rodin-Comidin (ID: 16982137/0x01032079)], work=41*
337: 0x0BF7 [0x2B] Rodin-Comidin (ID: 16982137/0x01032079) [9769*]:
    → "Right then, \u0008.\u0007May Altana's fortune find you!\u007F1\u0000\u0007"
338: 0x0BFE [0x23] WAIT_FOR_DIALOG_INTERACTION
339: 0x0BFF [0x1A] CALL_SUBROUTINE(address=0x49D3)
340: 0x0C02 [0x1C] WAIT(30* ticks)
341: 0x0C05 [0x2A] GET_REQ_LEVEL(level=16, entity_id=King of Hearts (ID: 16982231/0x010320D7))
342: 0x0C0B [0x29] REQ_SET_WAIT(priority=0x10, entity_id=Unnamed NPC (ID: 16982539/0x0103220B), tag_num=0x1D)
343: 0x0C12 [0x52] END_LOAD_SCHEDULER: End scheduler "rd31" with entities [LocalPlayer, LocalPlayer], work=321*
344: 0x0C21 [0x02] IF !(ExtData[1]->WorkLocal[0] == 1*) GOTO 0x0C29
345: 0x0C29 [0x5C] MUSIC_CONTROL: Set Idle (Day) music to song 178*
346: 0x0C2D [0x5C] MUSIC_CONTROL: Set Idle (Night) music to song 178*
347: 0x0C31 [0x9A] WAIT_MUSIC_SERVER()
348: 0x0C32 [0x46] CAMERA_CONTROL: Restore default settings
349: 0x0C34 [0x45] LOAD_SCHEDULED_TASK: Load scheduler "fdi2" with entities [LocalPlayer, LocalPlayer], work=[200*, 0*]
350: 0x0C45 [0x21] END_EVENT
351: 0x0C46 [0x00] END_REQSTACK()
```

#### Data or dead code:

```
# Dead code (unreachable instructions):
     0x0968 [0x01] GOTO 0x096B
```

### Event 3141

#### Metadata

| Field        | Value     |
|--------------|-----------|
| Entrypoint   | 0x0C47    |
| Data Size    | 152 bytes |
| Instructions | 25        |

```
      00 01 02 03 04 05 06 07  08 09 0A 0B 0C 0D 0E 0F
      -- -- -- -- -- -- -- --  -- -- -- -- -- -- -- --
0C40:                      4A  F0 FF FF 7F 79 20 03 01         J....y ..
0C50: 4A 79 20 03 01 F0 FF FF  7F 6F 76 79 20 03 01 66  Jy ......ovy ..f
0C60: 11 80 79 20 03 01 79 20  03 01 73 79 75 30 2B 79  ..y ..y ..syu0+y
0C70: 20 03 01 5B 80 23 02 09  10 0F 80 00 98 0C 66 1B   ..[.#........f.
0C80: 80 79 20 03 01 79 20 03  01 65 68 6E 30 2B 79 20  .y ..y ..ehn0+y 
0C90: 03 01 5C 80 23 01 CB 0C  6E F0 FF FF 7F 5D 80 99  ..\.#...n....]..
0CA0: F0 FF FF 7F 99 F0 FF FF  7F 1C 16 80 2B 79 20 03  ............+y .
0CB0: 01 5E 80 23 66 1B 80 79  20 03 01 79 20 03 01 65  .^.#f..y ..y ..e
0CC0: 68 6E 30 2B 79 20 03 01  5F 80 23 66 1B 80 79 20  hn0+y .._.#f..y 
0CD0: 03 01 79 20 03 01 65 68  6E 31 1C 3E 80 21 00     ..y ..ehn1.>.!. 
```

#### Opcodes

```
  0: 0x0C47 [0x4A] LocalPlayer looks at Rodin-Comidin (ID: 16982137/0x01032079)
  1: 0x0C50 [0x4A] Rodin-Comidin (ID: 16982137/0x01032079) looks at LocalPlayer
  2: 0x0C59 [0x6F] WAIT_FRAME_DELAY: Yield until WaitTime reaches zero
  3: 0x0C5A [0x76] CHECK_ENTITY_RENDER_FLAGS: Wait until Rodin-Comidin (ID: 16982137/0x01032079) Render.Flags0 and Render.Flags3 conditions are met
  4: 0x0C5F [0x66] LOAD_EXT_SCHEDULER_MAIN: Load scheduler "syu0" with entities [Rodin-Comidin (ID: 16982137/0x01032079), Rodin-Comidin (ID: 16982137/0x01032079)], work=40*
  5: 0x0C6E [0x2B] Rodin-Comidin (ID: 16982137/0x01032079) [9770*]:
    → "This mission is the culmination of the efforts of agents from every nation.\u0007A lot is riding on your shoulders!\u007F1\u0000\u0007"
  6: 0x0C75 [0x23] WAIT_FOR_DIALOG_INTERACTION
  7: 0x0C76 [0x02] IF !(Work_Zone[9] == 0*) GOTO 0x0C98
  8: 0x0C7E [0x66] LOAD_EXT_SCHEDULER_MAIN: Load scheduler "ehn0" with entities [Rodin-Comidin (ID: 16982137/0x01032079), Rodin-Comidin (ID: 16982137/0x01032079)], work=41*
  9: 0x0C8D [0x2B] Rodin-Comidin (ID: 16982137/0x01032079) [9771*]:
    → "You can leave the King of Hearts to me, of course!\u007F1\u0000\u0007"
 10: 0x0C94 [0x23] WAIT_FOR_DIALOG_INTERACTION
 11: 0x0C95 [0x01] GOTO 0x0CCB
 12: 0x0C98 [0x6E] LocalPlayer uses emote 22*
 13: 0x0C9F [0x99] Wait for LocalPlayer animation to complete
 14: 0x0CA4 [0x99] Wait for LocalPlayer animation to complete
 15: 0x0CA9 [0x1C] WAIT(60* ticks)
 16: 0x0CAC [0x2B] Rodin-Comidin (ID: 16982137/0x01032079) [9774*]:
    → "Hm?\u0007What happened to the King of Hearts?\u007F1\u0000\u0007"
 17: 0x0CB3 [0x23] WAIT_FOR_DIALOG_INTERACTION
 18: 0x0CB4 [0x66] LOAD_EXT_SCHEDULER_MAIN: Load scheduler "ehn0" with entities [Rodin-Comidin (ID: 16982137/0x01032079), Rodin-Comidin (ID: 16982137/0x01032079)], work=41*
 19: 0x0CC3 [0x2B] Rodin-Comidin (ID: 16982137/0x01032079) [9775*]:
    → "Let's just say I was forced to warp him back to Windurst...ohohohoho!\u007F1\u0000\u0007"
 20: 0x0CCA [0x23] WAIT_FOR_DIALOG_INTERACTION

SUBROUTINE_0CCB:
 21: 0x0CCB [0x66] LOAD_EXT_SCHEDULER_MAIN: Load scheduler "ehn1" with entities [Rodin-Comidin (ID: 16982137/0x01032079), Rodin-Comidin (ID: 16982137/0x01032079)], work=41*
 22: 0x0CDA [0x1C] WAIT(45* ticks)
 23: 0x0CDD [0x21] END_EVENT
 24: 0x0CDE [0x00] END_REQSTACK()
```

### Event 3142

#### Metadata

| Field        | Value     |
|--------------|-----------|
| Entrypoint   | 0x0CDF    |
| Data Size    | 171 bytes |
| Instructions | 29        |

```
      00 01 02 03 04 05 06 07  08 09 0A 0B 0C 0D 0E 0F
      -- -- -- -- -- -- -- --  -- -- -- -- -- -- -- --
0CD0:                                               42                 B
0CE0: 4A F0 FF FF 7F 79 20 03  01 4A 79 20 03 01 F0 FF  J....y ..Jy ....
0CF0: FF 7F 6F 76 79 20 03 01  66 11 80 79 20 03 01 79  ..ovy ..f..y ..y
0D00: 20 03 01 7A 69 74 30 03  02 10 4D 80 2B 79 20 03   ..zit0...M.+y .
0D10: 01 60 80 23 66 1B 80 79  20 03 01 79 20 03 01 65  .`.#f..y ..y ..e
0D20: 68 6E 30 2B 79 20 03 01  61 80 23 66 11 80 79 20  hn0+y ..a.#f..y 
0D30: 03 01 79 20 03 01 70 61  73 30 1C 16 80 48 4E 80  ..y ..pas0...HN.
0D40: 1C 16 80 6E F0 FF FF 7F  5D 80 99 F0 FF FF 7F 99  ...n....].......
0D50: F0 FF FF 7F 1C 16 80 2B  79 20 03 01 5E 80 23 66  .......+y ..^.#f
0D60: 1B 80 79 20 03 01 79 20  03 01 65 68 6E 30 2B 79  ..y ..y ..ehn0+y
0D70: 20 03 01 5F 80 23 66 1B  80 79 20 03 01 79 20 03   .._.#f..y ..y .
0D80: 01 65 68 6E 31 1C 3E 80  21 00                    .ehn1.>.!.      
```

#### Opcodes

```
  0: 0x0CDF [0x42] SET_CLI_EVENT_CANCEL_DATA()
  1: 0x0CE0 [0x4A] LocalPlayer looks at Rodin-Comidin (ID: 16982137/0x01032079)
  2: 0x0CE9 [0x4A] Rodin-Comidin (ID: 16982137/0x01032079) looks at LocalPlayer
  3: 0x0CF2 [0x6F] WAIT_FRAME_DELAY: Yield until WaitTime reaches zero
  4: 0x0CF3 [0x76] CHECK_ENTITY_RENDER_FLAGS: Wait until Rodin-Comidin (ID: 16982137/0x01032079) Render.Flags0 and Render.Flags3 conditions are met
  5: 0x0CF8 [0x66] LOAD_EXT_SCHEDULER_MAIN: Load scheduler "zit0" with entities [Rodin-Comidin (ID: 16982137/0x01032079), Rodin-Comidin (ID: 16982137/0x01032079)], work=40*
  6: 0x0D07 [0x03] Work_Zone[2] = 898*
  7: 0x0D0C [0x2B] Rodin-Comidin (ID: 16982137/0x01032079) [9772*]:
    → "Oh dear, oh dear, oh dear!\u0007Are you telling me you've lost the \u0001\u00053\u0002\u0000\u0000\u0000!?\u007F1\u0000\u0007"
  8: 0x0D13 [0x23] WAIT_FOR_DIALOG_INTERACTION
  9: 0x0D14 [0x66] LOAD_EXT_SCHEDULER_MAIN: Load scheduler "ehn0" with entities [Rodin-Comidin (ID: 16982137/0x01032079), Rodin-Comidin (ID: 16982137/0x01032079)], work=41*
 10: 0x0D23 [0x2B] Rodin-Comidin (ID: 16982137/0x01032079) [9773*]:
    → "Hehehe, lucky for you I foresaw this predicament and made several copies.\u0007I am a professional, after all!\u007F1\u0000\u0007"
 11: 0x0D2A [0x23] WAIT_FOR_DIALOG_INTERACTION
 12: 0x0D2B [0x66] LOAD_EXT_SCHEDULER_MAIN: Load scheduler "pas0" with entities [Rodin-Comidin (ID: 16982137/0x01032079), Rodin-Comidin (ID: 16982137/0x01032079)], work=40*
 13: 0x0D3A [0x1C] WAIT(60* ticks)
 14: 0x0D3D [0x48] [System] [9759*]:
    → "\u001F\u000FRodin-Comidin hands you \u0001\u00056\u0002\u0000\u0000\u0000!\u0000\u0007"
 15: 0x0D40 [0x1C] WAIT(60* ticks)
 16: 0x0D43 [0x6E] LocalPlayer uses emote 22*
 17: 0x0D4A [0x99] Wait for LocalPlayer animation to complete
 18: 0x0D4F [0x99] Wait for LocalPlayer animation to complete
 19: 0x0D54 [0x1C] WAIT(60* ticks)
 20: 0x0D57 [0x2B] Rodin-Comidin (ID: 16982137/0x01032079) [9774*]:
    → "Hm?\u0007What happened to the King of Hearts?\u007F1\u0000\u0007"
 21: 0x0D5E [0x23] WAIT_FOR_DIALOG_INTERACTION
 22: 0x0D5F [0x66] LOAD_EXT_SCHEDULER_MAIN: Load scheduler "ehn0" with entities [Rodin-Comidin (ID: 16982137/0x01032079), Rodin-Comidin (ID: 16982137/0x01032079)], work=41*
 23: 0x0D6E [0x2B] Rodin-Comidin (ID: 16982137/0x01032079) [9775*]:
    → "Let's just say I was forced to warp him back to Windurst...ohohohoho!\u007F1\u0000\u0007"
 24: 0x0D75 [0x23] WAIT_FOR_DIALOG_INTERACTION
 25: 0x0D76 [0x66] LOAD_EXT_SCHEDULER_MAIN: Load scheduler "ehn1" with entities [Rodin-Comidin (ID: 16982137/0x01032079), Rodin-Comidin (ID: 16982137/0x01032079)], work=41*
 26: 0x0D85 [0x1C] WAIT(45* ticks)
 27: 0x0D88 [0x21] END_EVENT
 28: 0x0D89 [0x00] END_REQSTACK()
```

### Event 3143

#### Metadata

| Field        | Value     |
|--------------|-----------|
| Entrypoint   | 0x0D8A    |
| Data Size    | 637 bytes |
| Instructions | 87        |

```
      00 01 02 03 04 05 06 07  08 09 0A 0B 0C 0D 0E 0F
      -- -- -- -- -- -- -- --  -- -- -- -- -- -- -- --
0D80:                                42 03 02 00 09 10            B.....
0D90: 03 03 00 08 10 1A D3 49  46 01 38 00 80 75 00 62  .......IF.8..u.b
0DA0: 80 75 01 79 00 F0 FF FF  7F F0 FF FF 7F 29 10 0B  .u.y.........)..
0DB0: 22 03 01 1C 92 01 8D 20  03 01 94 01 F0 FF FF 7F  "...... ........
0DC0: 94 01 8D 20 03 01 BA F0  FF FF 7F 63 80 64 80 03  ... .......c.d..
0DD0: 80 65 80 BA 0B 22 03 01  63 80 64 80 03 80 65 80  .e..."..c.d...e.
0DE0: BA 8D 20 03 01 66 80 67  80 68 80 69 80 80 F0 FF  .. ..f.g.h.i....
0DF0: FF 7F 80 8D 20 03 01 02  03 00 0F 80 00 08 0E 5C  .... ..........\
0E00: 00 33 80 5C 01 33 80 9A  45 0E 80 F0 FF FF 7F F0  .3.\.3..E.......
0E10: FF FF 7F 61 62 30 30 0F  80 1C 0C 80 27 10 0B 22  ...ab00.....'.."
0E20: 03 01 30 1A B2 49 1C 3E  80 02 03 00 0F 80 00 39  ..0..I.>.......9
0E30: 0F 52 0E 80 F0 FF FF 7F  F0 FF FF 7F 61 62 30 30  .R..........ab00
0E40: 45 0E 80 F0 FF FF 7F F0  FF FF 7F 61 62 30 31 0F  E..........ab01.
0E50: 80 1C 15 80 27 10 8D 20  03 01 9C 2B 8D 20 03 01  ....'.. ...+. ..
0E60: 6A 80 23 2A 10 8D 20 03  01 52 0E 80 F0 FF FF 7F  j.#*.. ..R......
0E70: F0 FF FF 7F 61 62 30 31  45 0E 80 F0 FF FF 7F F0  ....ab01E.......
0E80: FF FF 7F 61 62 30 32 0F  80 6E F0 FF FF 7F 6B 80  ...ab02..n....k.
0E90: 99 F0 FF FF 7F 99 F0 FF  FF 7F 2B 8D 20 03 01 6C  ..........+. ..l
0EA0: 80 23 7B 8D 20 03 01 52  0E 80 F0 FF FF 7F F0 FF  .#{. ..R........
0EB0: FF 7F 61 62 30 32 45 0E  80 F0 FF FF 7F F0 FF FF  ..ab02E.........
0EC0: 7F 61 62 30 33 0F 80 66  6D 80 8D 20 03 01 8D 20  .ab03..fm.. ... 
0ED0: 03 01 74 68 6B 31 2B 8D  20 03 01 6E 80 23 7C 00  ..thk1+. ..n.#|.
0EE0: 8D 20 03 01 2B 8D 20 03  01 6F 80 23 52 0E 80 F0  . ..+. ..o.#R...
0EF0: FF FF 7F F0 FF FF 7F 61  62 30 33 45 0E 80 F0 FF  .......ab03E....
0F00: FF 7F F0 FF FF 7F 61 62  30 34 0F 80 66 6D 80 8D  ......ab04..fm..
0F10: 20 03 01 8D 20 03 01 74  68 6B 32 1C 1A 80 79 00   ... ..thk2...y.
0F20: 8D 20 03 01 F0 FF FF 7F  7C 01 8D 20 03 01 2B 8D  . ......|.. ..+.
0F30: 20 03 01 70 80 23 01 99  0F 52 0E 80 F0 FF FF 7F   ..p.#...R......
0F40: F0 FF FF 7F 61 62 30 30  45 0E 80 F0 FF FF 7F F0  ....ab00E.......
0F50: FF FF 7F 61 62 30 31 0F  80 1C 15 80 27 10 8D 20  ...ab01.....'.. 
0F60: 03 01 9C 2B 8D 20 03 01  71 80 23 2A 10 8D 20 03  ...+. ..q.#*.. .
0F70: 01 52 0E 80 F0 FF FF 7F  F0 FF FF 7F 61 62 30 31  .R..........ab01
0F80: 45 0E 80 F0 FF FF 7F F0  FF FF 7F 61 62 30 32 0F  E..........ab02.
0F90: 80 2B 8D 20 03 01 72 80  23 1A D3 49 1C 1A 80 29  .+. ..r.#..I...)
0FA0: 10 0B 22 03 01 1D 52 0E  80 F0 FF FF 7F F0 FF FF  .."...R.........
0FB0: 7F 61 62 30 32 52 0E 80  F0 FF FF 7F F0 FF FF 7F  .ab02R..........
0FC0: 61 62 30 34 45 0E 80 F0  FF FF 7F F0 FF FF 7F 30  ab04E..........0
0FD0: 62 6C 66 0F 80 02 02 00  44 80 01 E9 0F 47 00 73  blf.....D....G.s
0FE0: 80 74 80 07 80 75 80 47  01 5C 00 0D 80 5C 01 0D  .t...u.G.\...\..
0FF0: 80 9A 46 00 45 5A 80 F0  FF FF 7F F0 FF FF 7F 66  ..F.EZ.........f
1000: 64 69 32 0F 80 21 00                              di2..!.         
```

#### Opcodes

```
  0: 0x0D8A [0x42] SET_CLI_EVENT_CANCEL_DATA()
  1: 0x0D8B [0x03] ExtData[1]->WorkLocal[2] = Work_Zone[9]
  2: 0x0D90 [0x03] ExtData[1]->WorkLocal[3] = Work_Zone[8]
  3: 0x0D95 [0x1A] CALL_SUBROUTINE(address=0x49D3)
  4: 0x0D98 [0x46] CAMERA_CONTROL: Disable user control
  5: 0x0D9A [0x38] SET_CLIENT_EVENT_MODE(mode=19*)
  6: 0x0D9D [0x75] LOAD_ROOM(Load indoor room, room=563*)
  7: 0x0DA1 [0x75] LOAD_ROOM(No action)
  8: 0x0DA3 [0x79] LocalPlayer looks at LocalPlayer (Basic look)
  9: 0x0DAD [0x29] REQ_SET_WAIT(priority=0x10, entity_id=Unnamed NPC (ID: 16982539/0x0103220B), tag_num=0x1C)
 10: 0x0DB4 [0x92] Abquhbah (ID: 16982157/0x0103208D)->Render.Flags3 ^= 0x01
 11: 0x0DBA [0x94] LocalPlayer->Render.Flags3 ^= 0x01
 12: 0x0DC0 [0x94] Abquhbah (ID: 16982157/0x0103208D)->Render.Flags3 ^= 0x01
 13: 0x0DC6 [0xBA] SET_ENTITY_POSITION(entity_id=LocalPlayer, pos_x=28.866*, pos_z=-55.661*, pos_y=-6.000*, direction=1.4°*)
 14: 0x0DD3 [0xBA] SET_ENTITY_POSITION(entity_id=Unnamed NPC (ID: 16982539/0x0103220B), pos_x=28.866*, pos_z=-55.661*, pos_y=-6.000*, direction=1.4°*)
 15: 0x0DE0 [0xBA] SET_ENTITY_POSITION(entity_id=Abquhbah (ID: 16982157/0x0103208D), pos_x=37.178*, pos_z=-45.942*, pos_y=-7.203*, direction=0.3°*)
 16: 0x0DED [0x80] LOAD_WAIT(entity=LocalPlayer)
 17: 0x0DF2 [0x80] LOAD_WAIT(entity=Abquhbah (ID: 16982157/0x0103208D))
 18: 0x0DF7 [0x02] IF !(ExtData[1]->WorkLocal[3] == 0*) GOTO 0x0E08
 19: 0x0DFF [0x5C] MUSIC_CONTROL: Set Idle (Day) music to song 163*
 20: 0x0E03 [0x5C] MUSIC_CONTROL: Set Idle (Night) music to song 163*
 21: 0x0E07 [0x9A] WAIT_MUSIC_SERVER()
 22: 0x0E08 [0x45] LOAD_SCHEDULED_TASK: Load scheduler "ab00" with entities [LocalPlayer, LocalPlayer], work=[321*, 0*]
 23: 0x0E19 [0x1C] WAIT(15* ticks)
 24: 0x0E1C [0x27] REQ_SET(priority=0x10, entity_id=Unnamed NPC (ID: 16982539/0x0103220B), tag_num=0x30)
 25: 0x0E23 [0x1A] CALL_SUBROUTINE(address=0x49B2)
 26: 0x0E26 [0x1C] WAIT(45* ticks)
 27: 0x0E29 [0x02] IF !(ExtData[1]->WorkLocal[3] == 0*) GOTO 0x0F39
 28: 0x0E31 [0x52] END_LOAD_SCHEDULER: End scheduler "ab00" with entities [LocalPlayer, LocalPlayer], work=321*
 29: 0x0E40 [0x45] LOAD_SCHEDULED_TASK: Load scheduler "ab01" with entities [LocalPlayer, LocalPlayer], work=[321*, 0*]
 30: 0x0E51 [0x1C] WAIT(20* ticks)
 31: 0x0E54 [0x27] REQ_SET(priority=0x10, entity_id=Abquhbah (ID: 16982157/0x0103208D), tag_num=0x9C)
 32: 0x0E5B [0x2B] Abquhbah (ID: 16982157/0x0103208D) [9776*]:
    → "Stop right there, \u0008!\u0007Only administration staff members are allowed to enter the president's office at this time.\u007F1\u0000\u0007"
 33: 0x0E62 [0x23] WAIT_FOR_DIALOG_INTERACTION
 34: 0x0E63 [0x2A] GET_REQ_LEVEL(level=16, entity_id=Abquhbah (ID: 16982157/0x0103208D))
 35: 0x0E69 [0x52] END_LOAD_SCHEDULER: End scheduler "ab01" with entities [LocalPlayer, LocalPlayer], work=321*
 36: 0x0E78 [0x45] LOAD_SCHEDULED_TASK: Load scheduler "ab02" with entities [LocalPlayer, LocalPlayer], work=[321*, 0*]
 37: 0x0E89 [0x6E] LocalPlayer uses emote 34*
 38: 0x0E90 [0x99] Wait for LocalPlayer animation to complete
 39: 0x0E95 [0x99] Wait for LocalPlayer animation to complete
 40: 0x0E9A [0x2B] Abquhbah (ID: 16982157/0x0103208D) [9777*]:
    → "Hm?\u0007Why the sudden restricted access?\u007F1\u0000\u0007"
 41: 0x0EA1 [0x23] WAIT_FOR_DIALOG_INTERACTION
 42: 0x0EA2 [0x7B] Abquhbah (ID: 16982157/0x0103208D) stops talking
 43: 0x0EA7 [0x52] END_LOAD_SCHEDULER: End scheduler "ab02" with entities [LocalPlayer, LocalPlayer], work=321*
 44: 0x0EB6 [0x45] LOAD_SCHEDULED_TASK: Load scheduler "ab03" with entities [LocalPlayer, LocalPlayer], work=[321*, 0*]
 45: 0x0EC7 [0x66] LOAD_EXT_SCHEDULER_MAIN: Load scheduler "thk1" with entities [Abquhbah (ID: 16982157/0x0103208D), Abquhbah (ID: 16982157/0x0103208D)], work=9*
 46: 0x0ED6 [0x2B] Abquhbah (ID: 16982157/0x0103208D) [9778*]:
    → "Well, about that...\u007F1\u0000\u0007"
 47: 0x0EDD [0x23] WAIT_FOR_DIALOG_INTERACTION
 48: 0x0EDE [0x7C] Abquhbah (ID: 16982157/0x0103208D)->Render.Flags2 |= 0x00
 49: 0x0EE4 [0x2B] Abquhbah (ID: 16982157/0x0103208D) [9779*]:
    → "President Naja has ordered me to organize the mercenary assessment documents...and those contain classified information.\u007F1\u0000\u0007"
 50: 0x0EEB [0x23] WAIT_FOR_DIALOG_INTERACTION
 51: 0x0EEC [0x52] END_LOAD_SCHEDULER: End scheduler "ab03" with entities [LocalPlayer, LocalPlayer], work=321*
 52: 0x0EFB [0x45] LOAD_SCHEDULED_TASK: Load scheduler "ab04" with entities [LocalPlayer, LocalPlayer], work=[321*, 0*]
 53: 0x0F0C [0x66] LOAD_EXT_SCHEDULER_MAIN: Load scheduler "thk2" with entities [Abquhbah (ID: 16982157/0x0103208D), Abquhbah (ID: 16982157/0x0103208D)], work=9*
 54: 0x0F1B [0x1C] WAIT(30* ticks)
 55: 0x0F1E [0x79] Abquhbah (ID: 16982157/0x0103208D) looks at LocalPlayer (Basic look)
 56: 0x0F28 [0x7C] Abquhbah (ID: 16982157/0x0103208D)->Render.Flags2 |= 0x01
 57: 0x0F2E [0x2B] Abquhbah (ID: 16982157/0x0103208D) [9780*]:
    → "A thousand pardons, but if you could just wait outside until the files are in order...?\u007F1\u0000\u0007"
 58: 0x0F35 [0x23] WAIT_FOR_DIALOG_INTERACTION
 59: 0x0F36 [0x01] GOTO 0x0F99
 60: 0x0F39 [0x52] END_LOAD_SCHEDULER: End scheduler "ab00" with entities [LocalPlayer, LocalPlayer], work=321*
 61: 0x0F48 [0x45] LOAD_SCHEDULED_TASK: Load scheduler "ab01" with entities [LocalPlayer, LocalPlayer], work=[321*, 0*]
 62: 0x0F59 [0x1C] WAIT(20* ticks)
 63: 0x0F5C [0x27] REQ_SET(priority=0x10, entity_id=Abquhbah (ID: 16982157/0x0103208D), tag_num=0x9C)
 64: 0x0F63 [0x2B] Abquhbah (ID: 16982157/0x0103208D) [9781*]:
    → "Stop right there, \u0008!\u0007Only administration staff members are allowed to enter the president's office at this time.\u007F1\u0000\u0007"
 65: 0x0F6A [0x23] WAIT_FOR_DIALOG_INTERACTION
 66: 0x0F6B [0x2A] GET_REQ_LEVEL(level=16, entity_id=Abquhbah (ID: 16982157/0x0103208D))
 67: 0x0F71 [0x52] END_LOAD_SCHEDULER: End scheduler "ab01" with entities [LocalPlayer, LocalPlayer], work=321*
 68: 0x0F80 [0x45] LOAD_SCHEDULED_TASK: Load scheduler "ab02" with entities [LocalPlayer, LocalPlayer], work=[321*, 0*]
 69: 0x0F91 [0x2B] Abquhbah (ID: 16982157/0x0103208D) [9782*]:
    → "You can come in once the files are in order.\u0007(Which are still covering the desk, the floor, President Naja's chair...)\u007F1\u0000\u0007"
 70: 0x0F98 [0x23] WAIT_FOR_DIALOG_INTERACTION

SUBROUTINE_0F99:
 71: 0x0F99 [0x1A] CALL_SUBROUTINE(address=0x49D3)
 72: 0x0F9C [0x1C] WAIT(30* ticks)
 73: 0x0F9F [0x29] REQ_SET_WAIT(priority=0x10, entity_id=Unnamed NPC (ID: 16982539/0x0103220B), tag_num=0x1D)
 74: 0x0FA6 [0x52] END_LOAD_SCHEDULER: End scheduler "ab02" with entities [LocalPlayer, LocalPlayer], work=321*
 75: 0x0FB5 [0x52] END_LOAD_SCHEDULER: End scheduler "ab04" with entities [LocalPlayer, LocalPlayer], work=321*
 76: 0x0FC4 [0x45] LOAD_SCHEDULED_TASK: Load scheduler "0blf" with entities [LocalPlayer, LocalPlayer], work=[321*, 0*]
 77: 0x0FD5 [0x02] IF !(ExtData[1]->WorkLocal[2] == 1*) GOTO 0x0FE9
 78: 0x0FDD [0x47] UPDATE_PLAYER_POS(23.978*, -64.624*, -5.999*, yaw=90.0°*)
 79: 0x0FE7 [0x47] WAIT_PLAYER_POS_UPDATE
 80: 0x0FE9 [0x5C] MUSIC_CONTROL: Set Idle (Day) music to song 178*
 81: 0x0FED [0x5C] MUSIC_CONTROL: Set Idle (Night) music to song 178*
 82: 0x0FF1 [0x9A] WAIT_MUSIC_SERVER()
 83: 0x0FF2 [0x46] CAMERA_CONTROL: Restore default settings
 84: 0x0FF4 [0x45] LOAD_SCHEDULED_TASK: Load scheduler "fdi2" with entities [LocalPlayer, LocalPlayer], work=[200*, 0*]
 85: 0x1005 [0x21] END_EVENT
 86: 0x1006 [0x00] END_REQSTACK()
```

### Event 3144

#### Metadata

| Field        | Value      |
|--------------|------------|
| Entrypoint   | 0x1007     |
| Data Size    | 5526 bytes |
| Instructions | 657        |

```
      00 01 02 03 04 05 06 07  08 09 0A 0B 0C 0D 0E 0F
      -- -- -- -- -- -- -- --  -- -- -- -- -- -- -- --
1000:                      42  03 05 00 02 10 03 00 00         B........
1010: 09 10 1A D3 49 46 01 38  00 80 75 00 62 80 75 01  ....IF.8..u.b.u.
1020: 79 00 F0 FF FF 7F F0 FF  FF 7F 27 10 8C 20 03 01  y.........'.. ..
1030: 24 29 10 0B 22 03 01 1C  92 01 8C 20 03 01 92 01  $).."...... ....
1040: 8D 20 03 01 94 01 F0 FF  FF 7F 94 01 8C 20 03 01  . ........... ..
1050: 94 01 8D 20 03 01 BA F0  FF FF 7F 76 80 77 80 78  ... .......v.w.x
1060: 80 79 80 BA 0B 22 03 01  76 80 77 80 78 80 79 80  .y..."..v.w.x.y.
1070: BA 8C 20 03 01 7A 80 7B  80 78 80 0F 80 80 F0 FF  .. ..z.{.x......
1080: FF 7F 80 8C 20 03 01 80  8D 20 03 01 1C 0C 80 81  .... .... ......
1090: 00 8C 20 03 01 5B 7C 80  8C 20 03 01 8C 20 03 01  .. ..[|.. ... ..
10A0: 64 73 63 6C 53 8C 20 03  01 8C 20 03 01 64 73 63  dsclS. ... ..dsc
10B0: 6C 5C 00 0D 80 5C 01 0D  80 9A 27 10 0B 22 03 01  l\...\....'.."..
10C0: 09 45 0E 80 F0 FF FF 7F  F0 FF FF 7F 65 64 30 30  .E..........ed00
10D0: 0F 80 1C 0C 80 1A B2 49  2A 10 F0 FF FF 7F 1C 4F  .......I*......O
10E0: 80 2B 8C 20 03 01 7D 80  23 5B 7C 80 8C 20 03 01  .+. ..}.#[|.. ..
10F0: 8C 20 03 01 64 73 63 31  03 02 10 4F 80 27 10 11  . ..dsc1...O.'..
1100: 21 03 01 6C 52 0E 80 F0  FF FF 7F F0 FF FF 7F 65  !..lR..........e
1110: 64 30 30 45 0E 80 F0 FF  FF 7F F0 FF FF 7F 65 64  d00E..........ed
1120: 30 31 0F 80 2B 8C 20 03  01 7E 80 23 2A 10 11 21  01..+. ..~.#*..!
1130: 03 01 81 01 8C 20 03 01  03 02 10 05 00 2B 8C 20  ..... .......+. 
1140: 03 01 7F 80 23 52 0E 80  F0 FF FF 7F F0 FF FF 7F  ....#R..........
1150: 65 64 30 31 45 0E 80 F0  FF FF 7F F0 FF FF 7F 65  ed01E..........e
1160: 64 30 32 0F 80 5B 7C 80  8C 20 03 01 8C 20 03 01  d02..[|.. ... ..
1170: 64 73 6B 31 03 02 10 2F  80 27 10 11 21 03 01 6C  dsk1.../.'..!..l
1180: 1C 3E 80 2B 8C 20 03 01  80 80 23 2A 10 11 21 03  .>.+. ....#*..!.
1190: 01 52 0E 80 F0 FF FF 7F  F0 FF FF 7F 65 64 30 32  .R..........ed02
11A0: 45 0E 80 F0 FF FF 7F F0  FF FF 7F 65 64 30 33 0F  E..........ed03.
11B0: 80 5D 0F 80 2F 80 2B 8C  20 03 01 81 80 23 52 0E  .]../.+. ....#R.
11C0: 80 F0 FF FF 7F F0 FF FF  7F 65 64 30 33 45 0E 80  .........ed03E..
11D0: F0 FF FF 7F F0 FF FF 7F  65 64 30 34 0F 80 1C 0C  ........ed04....
11E0: 80 27 10 8C 20 03 01 6E  1C 1A 80 2B 8C 20 03 01  .'.. ..n...+. ..
11F0: 82 80 23 1A D3 49 1C 1A  80 2A 10 8C 20 03 01 27  ..#..I...*.. ..'
1200: 10 E7 20 03 01 04 92 01  E7 20 03 01 94 01 E7 20  .. ...... ..... 
1210: 03 01 29 10 E7 20 03 01  09 BA 8C 20 03 01 83 80  ..).. ..... ....
1220: 7B 80 78 80 0F 80 80 E7  20 03 01 81 00 8C 20 03  {.x..... ..... .
1230: 01 5B 84 80 8C 20 03 01  8C 20 03 01 63 72 77 30  .[... ... ..crw0
1240: 5B 85 80 E7 20 03 01 E7  20 03 01 63 72 77 30 6C  [... ... ..crw0l
1250: E7 20 03 01 86 80 44 80  48 87 80 23 1C 16 80 45  . ....D.H..#...E
1260: 0E 80 F0 FF FF 7F F0 FF  FF 7F 30 63 72 6E 0F 80  ..........0crn..
1270: 1C 1A 80 5C 00 88 80 5C  01 88 80 9A 52 0E 80 F0  ...\...\....R...
1280: FF FF 7F F0 FF FF 7F 65  64 30 34 45 0E 80 F0 FF  .......ed04E....
1290: FF 7F F0 FF FF 7F 65 64  30 35 0F 80 1A B2 49 1C  ......ed05....I.
12A0: 15 80 2B 8C 20 03 01 89  80 23 55 0E 80 F0 FF FF  ..+. ....#U.....
12B0: 7F F0 FF FF 7F 65 64 30  35 45 0E 80 F0 FF FF 7F  .....ed05E......
12C0: F0 FF FF 7F 65 64 30 37  0F 80 5B 85 80 E7 20 03  ....ed07..[... .
12D0: 01 E7 20 03 01 63 72 77  31 5B 84 80 8C 20 03 01  .. ..crw1[... ..
12E0: 8C 20 03 01 63 72 77 31  03 02 10 8A 80 27 10 11  . ..crw1.....'..
12F0: 21 03 01 6C 2B 8C 20 03  01 8B 80 23 2A 10 11 21  !..l+. ....#*..!
1300: 03 01 55 0E 80 F0 FF FF  7F F0 FF FF 7F 65 64 30  ..U..........ed0
1310: 37 45 0E 80 F0 FF FF 7F  F0 FF FF 7F 65 64 31 30  7E..........ed10
1320: 0F 80 1C 16 80 7C 01 8C  20 03 01 2B 8C 20 03 01  .....|.. ..+. ..
1330: 8C 80 23 52 0E 80 F0 FF  FF 7F F0 FF FF 7F 65 64  ..#R..........ed
1340: 31 30 45 0E 80 F0 FF FF  7F F0 FF FF 7F 65 64 30  10E..........ed0
1350: 39 0F 80 2B 8C 20 03 01  8D 80 23 52 0E 80 F0 FF  9..+. ....#R....
1360: FF 7F F0 FF FF 7F 65 64  30 39 45 0E 80 F0 FF FF  ......ed09E.....
1370: 7F F0 FF FF 7F 65 64 31  31 0F 80 6E F0 FF FF 7F  .....ed11..n....
1380: 8E 80 99 F0 FF FF 7F 99  F0 FF FF 7F 93 8F 80 03  ................
1390: 02 10 8F 80 48 90 80 1C  91 80 45 92 80 F8 FF FF  ....H.....E.....
13A0: 7F F8 FF FF 7F 71 73 74  63 0F 80 93 0F 80 1A D3  .....qstc.......
13B0: 49 1C 3E 80 4E 01 E7 20  03 01 BA F0 FF FF 7F 93  I.>.N.. ........
13C0: 80 94 80 78 80 95 80 BA  0B 22 03 01 93 80 94 80  ...x....."......
13D0: 78 80 95 80 BA 8C 20 03  01 7A 80 7B 80 78 80 0F  x..... ..z.{.x..
13E0: 80 BA 8D 20 03 01 96 80  97 80 98 80 99 80 5B 9A  ... ..........[.
13F0: 80 8C 20 03 01 8C 20 03  01 74 6C 64 30 48 87 80  .. ... ..tld0H..
1400: 23 5D 0F 80 10 80 1C 0C  80 52 0E 80 F0 FF FF 7F  #].......R......
1410: F0 FF FF 7F 65 64 31 31  45 0E 80 F0 FF FF 7F F0  ....ed11E.......
1420: FF FF 7F 65 64 31 32 0F  80 45 5A 80 F0 FF FF 7F  ...ed12..EZ.....
1430: F0 FF FF 7F 66 64 69 32  0F 80 1C 1A 80 2B 8C 20  ....fdi2.....+. 
1440: 03 01 9B 80 23 52 0E 80  F0 FF FF 7F F0 FF FF 7F  ....#R..........
1450: 65 64 31 32 45 0E 80 F0  FF FF 7F F0 FF FF 7F 65  ed12E..........e
1460: 64 31 33 0F 80 2B 8C 20  03 01 9C 80 23 5B 9A 80  d13..+. ....#[..
1470: 8C 20 03 01 8C 20 03 01  74 6C 64 31 81 01 8C 20  . ... ..tld1... 
1480: 03 01 2B 8C 20 03 01 9D  80 23 52 0E 80 F0 FF FF  ..+. ....#R.....
1490: 7F F0 FF FF 7F 65 64 31  33 45 0E 80 F0 FF FF 7F  .....ed13E......
14A0: F0 FF FF 7F 65 64 31 34  0F 80 24 9E 80 0F 80 0F  ....ed14..$.....
14B0: 80 25 02 00 10 0F 80 00  B4 18 5C 00 9F 80 5C 01  .%........\...\.
14C0: 9F 80 9A 6E F0 FF FF 7F  A0 80 99 F0 FF FF 7F 99  ...n............
14D0: F0 FF FF 7F 1C 16 80 27  10 8D 20 03 01 9E 1C 0C  .......'.. .....
14E0: 80 52 0E 80 F0 FF FF 7F  F0 FF FF 7F 65 64 31 34  .R..........ed14
14F0: 45 0E 80 F0 FF FF 7F F0  FF FF 7F 65 64 31 35 0F  E..........ed15.
1500: 80 4A F0 FF FF 7F 8D 20  03 01 2B 8D 20 03 01 A1  .J..... ..+. ...
1510: 80 23 2A 10 8D 20 03 01  52 0E 80 F0 FF FF 7F F0  .#*.. ..R.......
1520: FF FF 7F 65 64 31 35 45  0E 80 F0 FF FF 7F F0 FF  ...ed15E........
1530: FF 7F 65 64 31 36 0F 80  81 00 8C 20 03 01 5B A2  ..ed16..... ..[.
1540: 80 8C 20 03 01 8C 20 03  01 73 65 69 30 27 10 12  .. ... ..sei0'..
1550: 21 03 01 56 2B 8C 20 03  01 A3 80 23 4A 8D 20 03  !..V+. ....#J. .
1560: 01 8C 20 03 01 2B 8D 20  03 01 A4 80 23 52 0E 80  .. ..+. ....#R..
1570: F0 FF FF 7F F0 FF FF 7F  65 64 31 36 45 0E 80 F0  ........ed16E...
1580: FF FF 7F F0 FF FF 7F 65  64 31 37 0F 80 9F A5 80  .......ed17.....
1590: 8C 20 03 01 8C 20 03 01  73 74 72 31 0F 80 1C 16  . ... ..str1....
15A0: 80 2B 8C 20 03 01 A6 80  23 29 10 F0 FF FF 7F 07  .+. ....#)......
15B0: 52 0E 80 F0 FF FF 7F F0  FF FF 7F 65 64 31 37 02  R..........ed17.
15C0: 02 10 44 80 80 DB 15 45  0E 80 F0 FF FF 7F F0 FF  ..D....E........
15D0: FF 7F 65 68 6D 30 0F 80  01 9F 16 02 02 10 4A 80  ..ehm0........J.
15E0: 80 F7 15 45 0E 80 F0 FF  FF 7F F0 FF FF 7F 65 68  ...E..........eh
15F0: 66 30 0F 80 01 9F 16 02  02 10 69 80 80 13 16 45  f0........i....E
1600: 0E 80 F0 FF FF 7F F0 FF  FF 7F 65 65 6D 30 0F 80  ..........eem0..
1610: 01 9F 16 02 02 10 A7 80  80 2F 16 45 0E 80 F0 FF  ........./.E....
1620: FF 7F F0 FF FF 7F 65 65  66 30 0F 80 01 9F 16 02  ......eef0......
1630: 02 10 8E 80 80 4B 16 45  0E 80 F0 FF FF 7F F0 FF  .....K.E........
1640: FF 7F 65 74 72 30 0F 80  01 9F 16 02 02 10 A8 80  ..etr0..........
1650: 80 67 16 45 0E 80 F0 FF  FF 7F F0 FF FF 7F 65 74  .g.E..........et
1660: 72 30 0F 80 01 9F 16 02  02 10 A0 80 80 83 16 45  r0.............E
1670: 0E 80 F0 FF FF 7F F0 FF  FF 7F 65 6D 74 30 0F 80  ..........emt0..
1680: 01 9F 16 02 02 10 A9 80  80 9F 16 45 0E 80 F0 FF  ...........E....
1690: FF 7F F0 FF FF 7F 65 67  6C 30 0F 80 01 9F 16 6B  ......egl0.....k
16A0: 69 64 6C 30 8C 20 03 01  2B 8C 20 03 01 AA 80 23  idl0. ..+. ....#
16B0: 52 0E 80 F0 FF FF 7F F0  FF FF 7F 65 68 6D 30 52  R..........ehm0R
16C0: 0E 80 F0 FF FF 7F F0 FF  FF 7F 65 68 66 30 52 0E  ..........ehf0R.
16D0: 80 F0 FF FF 7F F0 FF FF  7F 65 65 6D 30 52 0E 80  .........eem0R..
16E0: F0 FF FF 7F F0 FF FF 7F  65 65 66 30 52 0E 80 F0  ........eef0R...
16F0: FF FF 7F F0 FF FF 7F 65  74 72 30 52 0E 80 F0 FF  .......etr0R....
1700: FF 7F F0 FF FF 7F 65 6D  74 30 52 0E 80 F0 FF FF  ......emt0R.....
1710: 7F F0 FF FF 7F 65 67 6C  30 45 0E 80 F0 FF FF 7F  .....egl0E......
1720: F0 FF FF 7F 65 64 31 38  0F 80 6E 8D 20 03 01 00  ....ed18..n. ...
1730: 80 99 8D 20 03 01 99 8D  20 03 01 2B 8D 20 03 01  ... .... ..+. ..
1740: AB 80 23 52 0E 80 F0 FF  FF 7F F0 FF FF 7F 65 64  ..#R..........ed
1750: 31 38 45 0E 80 F0 FF FF  7F F0 FF FF 7F 65 64 31  18E..........ed1
1760: 39 0F 80 4A 8D 20 03 01  F0 FF FF 7F 6F 76 8D 20  9..J. ......ov. 
1770: 03 01 27 10 0B 22 03 01  0A 2B 8D 20 03 01 AC 80  ..'.."...+. ....
1780: 23 52 0E 80 F0 FF FF 7F  F0 FF FF 7F 65 64 31 39  #R..........ed19
1790: 45 0E 80 F0 FF FF 7F F0  FF FF 7F 65 64 32 30 0F  E..........ed20.
17A0: 80 5B AD 80 8C 20 03 01  8C 20 03 01 73 72 79 30  .[... ... ..sry0
17B0: 1C 16 80 27 10 12 21 03  01 56 2B 8C 20 03 01 AE  ...'..!..V+. ...
17C0: 80 23 4A 8D 20 03 01 8C  20 03 01 53 8C 20 03 01  .#J. ... ..S. ..
17D0: 8C 20 03 01 73 72 79 30  5C 00 0F 80 5C 01 0F 80  . ..sry0\...\...
