# 16982584

## Common Data

| Field            | Value                          |
|------------------|--------------------------------|
| Zone             | Aht Urhgan Whitegate2 (ID: 50) |
| Block Size       | 572 bytes                      |
| Total Events     | 11                             |
| References Count | 14                             |

## List of Events

| Event ID                  | Entrypoint   |   Size |   Instructions |
|---------------------------|--------------|--------|----------------|
| [65535](#event-65535)     | 0x0000       |      1 |              1 |
| [920](#event-920)         | 0x0001       |      1 |              1 |
| [921](#event-921)         | 0x0002       |      1 |              1 |
| [65535.1](#event-65535-1) | 0x0003       |     67 |             11 |
| [65535.2](#event-65535-2) | 0x0046       |     28 |              6 |
| [65535.3](#event-65535-3) | 0x0062       |     92 |             18 |
| [65535.4](#event-65535-4) | 0x00BE       |     27 |              4 |
| [65535.5](#event-65535-5) | 0x00D9       |     32 |              6 |
| [65535.6](#event-65535-6) | 0x00F9       |     52 |              8 |
| [65535.7](#event-65535-7) | 0x012D       |     91 |              9 |
| [65535.8](#event-65535-8) | 0x0188       |     64 |              9 |

## DAT References (imed_data)

|   Index | Hex Value   |   Dec Value |
|---------|-------------|-------------|
|       0 | 0x0014      |          20 |
|       1 | 0x0046      |          70 |
|       2 | 0x003C      |          60 |
|       3 | 0x000B      |          11 |
|       4 | 0x000A      |          10 |
|       5 | 0x000D      |          13 |
|       6 | 0x0005      |           5 |
|       7 | 0x0019      |          25 |
|       8 | 0x00F0      |         240 |
|       9 | 0x0016      |          22 |
|      10 | 0x0078      |         120 |
|      11 | 0x0031      |          49 |
|      12 | 0x001E      |          30 |
|      13 | 0x0028      |          40 |

## Events

### Event 65535

#### Metadata

| Field        | Value   |
|--------------|---------|
| Entrypoint   | 0x0000  |
| Data Size    | 1 bytes |
| Instructions | 1       |

```
      00 01 02 03 04 05 06 07  08 09 0A 0B 0C 0D 0E 0F
      -- -- -- -- -- -- -- --  -- -- -- -- -- -- -- --
0000: 00                                                .               
```

#### Opcodes

```
  0: 0x0000 [0x00] END_REQSTACK()
```

### Event 920

#### Metadata

| Field        | Value   |
|--------------|---------|
| Entrypoint   | 0x0001  |
| Data Size    | 1 bytes |
| Instructions | 1       |

```
      00 01 02 03 04 05 06 07  08 09 0A 0B 0C 0D 0E 0F
      -- -- -- -- -- -- -- --  -- -- -- -- -- -- -- --
0000:    00                                              .              
```

#### Opcodes

```
  0: 0x0001 [0x00] END_REQSTACK()
```

### Event 921

#### Metadata

| Field        | Value   |
|--------------|---------|
| Entrypoint   | 0x0002  |
| Data Size    | 1 bytes |
| Instructions | 1       |

```
      00 01 02 03 04 05 06 07  08 09 0A 0B 0C 0D 0E 0F
      -- -- -- -- -- -- -- --  -- -- -- -- -- -- -- --
0000:       00                                            .             
```

#### Opcodes

```
  0: 0x0002 [0x00] END_REQSTACK()
```

### Event 65535.1

#### Metadata

| Field        | Value    |
|--------------|----------|
| Entrypoint   | 0x0003   |
| Data Size    | 67 bytes |
| Instructions | 11       |

```
      00 01 02 03 04 05 06 07  08 09 0A 0B 0C 0D 0E 0F
      -- -- -- -- -- -- -- --  -- -- -- -- -- -- -- --
0000:          1C 00 80 59 01  5C 21 03 01 01 80 4A 5C     ...Y.\!....J\
0010: 21 03 01 37 22 03 01 79  00 5C 21 03 01 37 22 03  !..7"..y.\!..7".
0020: 01 1C 00 80 59 01 F0 FF  FF 7F 02 80 4A F0 FF FF  ....Y.......J...
0030: 7F 37 22 03 01 79 00 F0  FF FF 7F AC 21 03 01 6F  .7"..y......!..o
0040: 76 5C 21 03 01 00                                 v\!...          
```

#### Opcodes

```
  0: 0x0003 [0x1C] WAIT(20* ticks)
  1: 0x0006 [0x59] UPDATE_ENTITY_DATA: Set Fari-Wari (ID: 16982364/0x0103215C) turn speed = 70*
  2: 0x000E [0x4A] Fari-Wari (ID: 16982364/0x0103215C) looks at ??? (ID: 16982583/0x01032237)
  3: 0x0017 [0x79] Fari-Wari (ID: 16982364/0x0103215C) looks at ??? (ID: 16982583/0x01032237) (Basic look)
  4: 0x0021 [0x1C] WAIT(20* ticks)
  5: 0x0024 [0x59] UPDATE_ENTITY_DATA: Set LocalPlayer turn speed = 60*
  6: 0x002C [0x4A] LocalPlayer looks at ??? (ID: 16982583/0x01032237)
  7: 0x0035 [0x79] LocalPlayer looks at Shayadar (ID: 16982444/0x010321AC) (Basic look)
  8: 0x003F [0x6F] WAIT_FRAME_DELAY: Yield until WaitTime reaches zero
  9: 0x0040 [0x76] CHECK_ENTITY_RENDER_FLAGS: Wait until Fari-Wari (ID: 16982364/0x0103215C) Render.Flags0 and Render.Flags3 conditions are met
 10: 0x0045 [0x00] END_REQSTACK()
```

### Event 65535.2

#### Metadata

| Field        | Value    |
|--------------|----------|
| Entrypoint   | 0x0046   |
| Data Size    | 28 bytes |
| Instructions | 6        |

```
      00 01 02 03 04 05 06 07  08 09 0A 0B 0C 0D 0E 0F
      -- -- -- -- -- -- -- --  -- -- -- -- -- -- -- --
0040:                   29 10  34 22 03 01 02 4A 34 22        ).4"...J4"
0050: 03 01 2C 22 03 01 7B 34  22 03 01 6F 76 34 22 03  ..,"..{4"..ov4".
0060: 01 00                                             ..              
```

#### Opcodes

```
  0: 0x0046 [0x29] REQ_SET_WAIT(priority=0x10, entity_id=kenbutsu10 (ID: 16982580/0x01032234), tag_num=0x02)
  1: 0x004D [0x4A] kenbutsu10 (ID: 16982580/0x01032234) looks at Wajran (ID: 16982572/0x0103222C)
  2: 0x0056 [0x7B] kenbutsu10 (ID: 16982580/0x01032234) stops talking
  3: 0x005B [0x6F] WAIT_FRAME_DELAY: Yield until WaitTime reaches zero
  4: 0x005C [0x76] CHECK_ENTITY_RENDER_FLAGS: Wait until kenbutsu10 (ID: 16982580/0x01032234) Render.Flags0 and Render.Flags3 conditions are met
  5: 0x0061 [0x00] END_REQSTACK()
```

### Event 65535.3

#### Metadata

| Field        | Value    |
|--------------|----------|
| Entrypoint   | 0x0062   |
| Data Size    | 92 bytes |
| Instructions | 18       |

```
      00 01 02 03 04 05 06 07  08 09 0A 0B 0C 0D 0E 0F
      -- -- -- -- -- -- -- --  -- -- -- -- -- -- -- --
0060:       6E 30 22 03 01 03  80 99 30 22 03 01 99 30    n0".....0"...0
0070: 22 03 01 1C 04 80 6E 34  22 03 01 03 80 99 34 22  ".....n4".....4"
0080: 03 01 99 34 22 03 01 6E  33 22 03 01 05 80 99 33  ...4"..n3".....3
0090: 22 03 01 99 33 22 03 01  6E 32 22 03 01 05 80 99  "...3"..n2".....
00A0: 32 22 03 01 99 32 22 03  01 6E 31 22 03 01 05 80  2"...2"..n1"....
00B0: 99 31 22 03 01 99 31 22  03 01 1C 06 80 00        .1"...1"......  
```

#### Opcodes

```
  0: 0x0062 [0x6E] Shaeema (ID: 16982576/0x01032230) uses emote 11*
  1: 0x0069 [0x99] Wait for Shaeema (ID: 16982576/0x01032230) animation to complete
  2: 0x006E [0x99] Wait for Shaeema (ID: 16982576/0x01032230) animation to complete
  3: 0x0073 [0x1C] WAIT(10* ticks)
  4: 0x0076 [0x6E] kenbutsu10 (ID: 16982580/0x01032234) uses emote 11*
  5: 0x007D [0x99] Wait for kenbutsu10 (ID: 16982580/0x01032234) animation to complete
  6: 0x0082 [0x99] Wait for kenbutsu10 (ID: 16982580/0x01032234) animation to complete
  7: 0x0087 [0x6E] kenbutsu09 (ID: 16982579/0x01032233) uses emote 13*
  8: 0x008E [0x99] Wait for kenbutsu09 (ID: 16982579/0x01032233) animation to complete
  9: 0x0093 [0x99] Wait for kenbutsu09 (ID: 16982579/0x01032233) animation to complete
 10: 0x0098 [0x6E] kenbutsu04 (ID: 16982578/0x01032232) uses emote 13*
 11: 0x009F [0x99] Wait for kenbutsu04 (ID: 16982578/0x01032232) animation to complete
 12: 0x00A4 [0x99] Wait for kenbutsu04 (ID: 16982578/0x01032232) animation to complete
 13: 0x00A9 [0x6E] Rhub Wusthamoi (ID: 16982577/0x01032231) uses emote 13*
 14: 0x00B0 [0x99] Wait for Rhub Wusthamoi (ID: 16982577/0x01032231) animation to complete
 15: 0x00B5 [0x99] Wait for Rhub Wusthamoi (ID: 16982577/0x01032231) animation to complete
 16: 0x00BA [0x1C] WAIT(5* ticks)
 17: 0x00BD [0x00] END_REQSTACK()
```

### Event 65535.4

#### Metadata

| Field        | Value    |
|--------------|----------|
| Entrypoint   | 0x00BE   |
| Data Size    | 27 bytes |
| Instructions | 4        |

```
      00 01 02 03 04 05 06 07  08 09 0A 0B 0C 0D 0E 0F
      -- -- -- -- -- -- -- --  -- -- -- -- -- -- -- --
00B0:                                            29 10                ).
00C0: 0B 22 03 01 67 4A F0 FF  FF 7F 5C 21 03 01 79 00  ."..gJ....\!..y.
00D0: F0 FF FF 7F 5C 21 03 01  00                       ....\!...       
```

#### Opcodes

```
  0: 0x00BE [0x29] REQ_SET_WAIT(priority=0x10, entity_id=Unnamed NPC (ID: 16982539/0x0103220B), tag_num=0x67)
  1: 0x00C5 [0x4A] LocalPlayer looks at Fari-Wari (ID: 16982364/0x0103215C)
  2: 0x00CE [0x79] LocalPlayer looks at Fari-Wari (ID: 16982364/0x0103215C) (Basic look)
  3: 0x00D8 [0x00] END_REQSTACK()
```

### Event 65535.5

#### Metadata

| Field        | Value    |
|--------------|----------|
| Entrypoint   | 0x00D9   |
| Data Size    | 32 bytes |
| Instructions | 6        |

```
      00 01 02 03 04 05 06 07  08 09 0A 0B 0C 0D 0E 0F
      -- -- -- -- -- -- -- --  -- -- -- -- -- -- -- --
00D0:                             6E 5C 21 03 01 07 80           n\!....
00E0: 99 5C 21 03 01 59 06 5C  21 03 01 1C 08 80 79 00  .\!..Y.\!.....y.
00F0: 5C 21 03 01 37 22 03 01  00                       \!..7"...       
```

#### Opcodes

```
  0: 0x00D9 [0x6E] Fari-Wari (ID: 16982364/0x0103215C) uses emote 25*
  1: 0x00E0 [0x99] Wait for Fari-Wari (ID: 16982364/0x0103215C) animation to complete
  2: 0x00E5 [0x59] UPDATE_ENTITY_DATA: Check if Fari-Wari (ID: 16982364/0x0103215C) is performing moving action
  3: 0x00EB [0x1C] WAIT(240* ticks)
  4: 0x00EE [0x79] Fari-Wari (ID: 16982364/0x0103215C) looks at ??? (ID: 16982583/0x01032237) (Basic look)
  5: 0x00F8 [0x00] END_REQSTACK()
```

### Event 65535.6

#### Metadata

| Field        | Value    |
|--------------|----------|
| Entrypoint   | 0x00F9   |
| Data Size    | 52 bytes |
| Instructions | 8        |

```
      00 01 02 03 04 05 06 07  08 09 0A 0B 0C 0D 0E 0F
      -- -- -- -- -- -- -- --  -- -- -- -- -- -- -- --
00F0:                             6E 5C 21 03 01 09 80           n\!....
0100: 99 5C 21 03 01 99 5C 21  03 01 1C 0A 80 66 0B 80  .\!...\!.....f..
0110: 5C 21 03 01 5C 21 03 01  74 6C 6B 30 53 5C 21 03  \!..\!..tlk0S\!.
0120: 01 5C 21 03 01 74 6C 6B  30 1C 0C 80 00           .\!..tlk0....   
```

#### Opcodes

```
  0: 0x00F9 [0x6E] Fari-Wari (ID: 16982364/0x0103215C) uses emote 22*
  1: 0x0100 [0x99] Wait for Fari-Wari (ID: 16982364/0x0103215C) animation to complete
  2: 0x0105 [0x99] Wait for Fari-Wari (ID: 16982364/0x0103215C) animation to complete
  3: 0x010A [0x1C] WAIT(120* ticks)
  4: 0x010D [0x66] LOAD_EXT_SCHEDULER_MAIN: Load scheduler "tlk0" with entities [Fari-Wari (ID: 16982364/0x0103215C), Fari-Wari (ID: 16982364/0x0103215C)], work=49*
  5: 0x011C [0x53] WAIT_SCHEDULER_TASK: Wait for scheduler "tlk0" with entities [Fari-Wari (ID: 16982364/0x0103215C), Fari-Wari (ID: 16982364/0x0103215C)]
  6: 0x0129 [0x1C] WAIT(30* ticks)
  7: 0x012C [0x00] END_REQSTACK()
```

### Event 65535.7

#### Metadata

| Field        | Value    |
|--------------|----------|
| Entrypoint   | 0x012D   |
| Data Size    | 91 bytes |
| Instructions | 9        |

```
      00 01 02 03 04 05 06 07  08 09 0A 0B 0C 0D 0E 0F
      -- -- -- -- -- -- -- --  -- -- -- -- -- -- -- --
0120:                                         66 0B 80               f..
0130: 5C 21 03 01 5C 21 03 01  74 6C 6B 30 53 5C 21 03  \!..\!..tlk0S\!.
0140: 01 5C 21 03 01 74 6C 6B  30 1C 0C 80 66 0B 80 5C  .\!..tlk0...f..\
0150: 21 03 01 5C 21 03 01 74  6C 6B 31 53 5C 21 03 01  !..\!..tlk1S\!..
0160: 5C 21 03 01 74 6C 6B 31  66 0D 80 5C 21 03 01 5C  \!..tlk1f..\!..\
0170: 21 03 01 74 68 6B 31 53  5C 21 03 01 5C 21 03 01  !..thk1S\!..\!..
0180: 74 68 6B 31 1C 0C 80 00                           thk1....        
```

#### Opcodes

```
  0: 0x012D [0x66] LOAD_EXT_SCHEDULER_MAIN: Load scheduler "tlk0" with entities [Fari-Wari (ID: 16982364/0x0103215C), Fari-Wari (ID: 16982364/0x0103215C)], work=49*
  1: 0x013C [0x53] WAIT_SCHEDULER_TASK: Wait for scheduler "tlk0" with entities [Fari-Wari (ID: 16982364/0x0103215C), Fari-Wari (ID: 16982364/0x0103215C)]
  2: 0x0149 [0x1C] WAIT(30* ticks)
  3: 0x014C [0x66] LOAD_EXT_SCHEDULER_MAIN: Load scheduler "tlk1" with entities [Fari-Wari (ID: 16982364/0x0103215C), Fari-Wari (ID: 16982364/0x0103215C)], work=49*
  4: 0x015B [0x53] WAIT_SCHEDULER_TASK: Wait for scheduler "tlk1" with entities [Fari-Wari (ID: 16982364/0x0103215C), Fari-Wari (ID: 16982364/0x0103215C)]
  5: 0x0168 [0x66] LOAD_EXT_SCHEDULER_MAIN: Load scheduler "thk1" with entities [Fari-Wari (ID: 16982364/0x0103215C), Fari-Wari (ID: 16982364/0x0103215C)], work=40*
  6: 0x0177 [0x53] WAIT_SCHEDULER_TASK: Wait for scheduler "thk1" with entities [Fari-Wari (ID: 16982364/0x0103215C), Fari-Wari (ID: 16982364/0x0103215C)]
  7: 0x0184 [0x1C] WAIT(30* ticks)
  8: 0x0187 [0x00] END_REQSTACK()
```

### Event 65535.8

#### Metadata

| Field        | Value    |
|--------------|----------|
| Entrypoint   | 0x0188   |
| Data Size    | 64 bytes |
| Instructions | 9        |

```
      00 01 02 03 04 05 06 07  08 09 0A 0B 0C 0D 0E 0F
      -- -- -- -- -- -- -- --  -- -- -- -- -- -- -- --
0180:                          1C 0C 80 29 10 5C 21 03          ...).\!.
0190: 01 0F 4A 5C 21 03 01 60  21 03 01 79 00 5C 21 03  ..J\!..`!..y.\!.
01A0: 01 60 21 03 01 6F 76 5C  21 03 01 66 0D 80 5C 21  .`!..ov\!..f..\!
01B0: 03 01 5C 21 03 01 6F 62  69 30 53 5C 21 03 01 5C  ..\!..obi0S\!..\
01C0: 21 03 01 6F 62 69 30 00                           !..obi0.        
```

#### Opcodes

```
  0: 0x0188 [0x1C] WAIT(30* ticks)
  1: 0x018B [0x29] REQ_SET_WAIT(priority=0x10, entity_id=Fari-Wari (ID: 16982364/0x0103215C), tag_num=0x0F)
  2: 0x0192 [0x4A] Fari-Wari (ID: 16982364/0x0103215C) looks at Gadalar (ID: 16982368/0x01032160)
  3: 0x019B [0x79] Fari-Wari (ID: 16982364/0x0103215C) looks at Gadalar (ID: 16982368/0x01032160) (Basic look)
  4: 0x01A5 [0x6F] WAIT_FRAME_DELAY: Yield until WaitTime reaches zero
  5: 0x01A6 [0x76] CHECK_ENTITY_RENDER_FLAGS: Wait until Fari-Wari (ID: 16982364/0x0103215C) Render.Flags0 and Render.Flags3 conditions are met
  6: 0x01AB [0x66] LOAD_EXT_SCHEDULER_MAIN: Load scheduler "obi0" with entities [Fari-Wari (ID: 16982364/0x0103215C), Fari-Wari (ID: 16982364/0x0103215C)], work=40*
  7: 0x01BA [0x53] WAIT_SCHEDULER_TASK: Wait for scheduler "obi0" with entities [Fari-Wari (ID: 16982364/0x0103215C), Fari-Wari (ID: 16982364/0x0103215C)]
  8: 0x01C7 [0x00] END_REQSTACK()
```
