# 16982320 - Bashraf

## Common Data

| Field            | Value                          |
|------------------|--------------------------------|
| Zone             | Aht Urhgan Whitegate2 (ID: 50) |
| Block Size       | 520 bytes                      |
| Total Events     | 14                             |
| References Count | 47                             |

## List of Events

| Event ID                    | Entrypoint   |   Size |   Instructions |
|-----------------------------|--------------|--------|----------------|
| [65535](#event-65535)       | 0x0000       |      1 |              1 |
| [65535.1](#event-65535-1)   | 0x0001       |     24 |              3 |
| [65535.2](#event-65535-2)   | 0x0019       |     22 |              3 |
| [65535.3](#event-65535-3)   | 0x002F       |     15 |              3 |
| [65535.4](#event-65535-4)   | 0x003E       |     13 |              3 |
| [269](#event-269)           | 0x004B       |      1 |              1 |
| [65535.5](#event-65535-5)   | 0x004C       |     15 |              3 |
| [65535.6](#event-65535-6)   | 0x005B       |     34 |              8 |
| [65535.7](#event-65535-7)   | 0x007D       |     19 |              5 |
| [65535.8](#event-65535-8)   | 0x0090       |     14 |              4 |
| [65535.9](#event-65535-9)   | 0x009E       |     20 |              4 |
| [65535.10](#event-65535-10) | 0x00B2       |     53 |             11 |
| [65535.11](#event-65535-11) | 0x00E7       |     15 |              3 |
| [65535.12](#event-65535-12) | 0x00F6       |     14 |              4 |

## DAT References (imed_data)

|   Index | Hex Value   |   Dec Value |
|---------|-------------|-------------|
|       0 | 0x0000      |           0 |
|       1 | 0x0001      |           1 |
|       2 | 0x0002      |           2 |
|       3 | 0x0006      |           6 |
|       4 | 0x00FB      |         251 |
|       5 | 0x727F0     |      468976 |
|       6 | 0x3980C     |      235532 |
|       7 | 0xFFFFA2D4  |  4294943444 |
|       8 | 0x0465      |        1125 |
|       9 | 0x002B      |          43 |
|      10 | 0x1A82D     |      108589 |
|      11 | 0x410F      |       16655 |
|      12 | 0x0F58      |        3928 |
|      13 | 0x000D      |          13 |
|      14 | 0x1B1ED     |      111085 |
|      15 | 0x55B6      |       21942 |
|      16 | 0xFFFFFEC4  |  4294966980 |
|      17 | 0x001E      |          30 |
|      18 | 0x1B54F     |      111951 |
|      19 | 0x7326      |       29478 |
|      20 | 0xFFFFFEBA  |  4294966970 |
|      21 | 0x1DA19     |      121369 |
|      22 | 0x7B55      |       31573 |
|      23 | 0xFFFFFEC5  |  4294966981 |
|      24 | 0x1E543     |      124227 |
|      25 | 0x7CB6      |       31926 |
|      26 | 0xFFFCD5F8  |  4294759928 |
|      27 | 0xFFF413B8  |  4294185912 |
|      28 | 0xFFFFD2E7  |  4294955751 |
|      29 | 0x0A8E      |        2702 |
|      30 | 0xFFFD3495  |  4294784149 |
|      31 | 0xFFF363A0  |  4294140832 |
|      32 | 0xFFFFE8EA  |  4294961386 |
|      33 | 0x0414      |        1044 |
|      34 | 0xFFFD4024  |  4294787108 |
|      35 | 0xFFF34FA6  |  4294135718 |
|      36 | 0xFFFFEDE8  |  4294962664 |
|      37 | 0x0373      |         883 |
|      38 | 0x005A      |          90 |
|      39 | 0xFFFB27F5  |  4294649845 |
|      40 | 0xFFFAD116  |  4294627606 |
|      41 | 0xFFFFDBC8  |  4294958024 |
|      42 | 0x07E0      |        2016 |
|      43 | 0x0028      |          40 |
|      44 | 0xFFFADFD8  |  4294631384 |
|      45 | 0xFFFAC5E8  |  4294624744 |
|      46 | 0xFFFFDB96  |  4294957974 |

## Events

### Event 65535

#### Metadata

| Field        | Value   |
|--------------|---------|
| Entrypoint   | 0x0000  |
| Data Size    | 1 bytes |
| Instructions | 1       |

```
      00 01 02 03 04 05 06 07  08 09 0A 0B 0C 0D 0E 0F
      -- -- -- -- -- -- -- --  -- -- -- -- -- -- -- --
0000: 00                                                .               
```

#### Opcodes

```
  0: 0x0000 [0x00] END_REQSTACK()
```

### Event 65535.1

#### Metadata

| Field        | Value    |
|--------------|----------|
| Entrypoint   | 0x0001   |
| Data Size    | 24 bytes |
| Instructions | 3        |

```
      00 01 02 03 04 05 06 07  08 09 0A 0B 0C 0D 0E 0F
      -- -- -- -- -- -- -- --  -- -- -- -- -- -- -- --
0000:    95 00 80 B6 0B 01 80  02 80 00 80 03 80 03 80   ...............
0010: 03 80 03 80 04 80 00 80  00                       .........       
```

#### Opcodes

```
  0: 0x0001 [0x95] SETUP_EVENT_NPC: Prepare NPC for event (Render.Flags3 = 0*)
  1: 0x0004 [0xB6] ENTITY_APPEARANCE_HANDLER(case=Full entity look, race=1*, hair=2*, head=0*, body=6*, hands=6*, legs=6*, feet=6*, main=251*, sub=0*)
  2: 0x0018 [0x00] END_REQSTACK()
```

### Event 65535.2

#### Metadata

| Field        | Value    |
|--------------|----------|
| Entrypoint   | 0x0019   |
| Data Size    | 22 bytes |
| Instructions | 3        |

```
      00 01 02 03 04 05 06 07  08 09 0A 0B 0C 0D 0E 0F
      -- -- -- -- -- -- -- --  -- -- -- -- -- -- -- --
0010:                             96 B6 0B 01 80 02 80           .......
0020: 00 80 03 80 03 80 03 80  03 80 00 80 00 80 00     ............... 
```

#### Opcodes

```
  0: 0x0019 [0x96] UNSET_EVENT_NPC: Restore NPC after event (removes event NPC status)
  1: 0x001A [0xB6] ENTITY_APPEARANCE_HANDLER(case=Full entity look, race=1*, hair=2*, head=0*, body=6*, hands=6*, legs=6*, feet=6*, main=0*, sub=0*)
  2: 0x002E [0x00] END_REQSTACK()
```

### Event 65535.3

#### Metadata

| Field        | Value    |
|--------------|----------|
| Entrypoint   | 0x002F   |
| Data Size    | 15 bytes |
| Instructions | 3        |

```
      00 01 02 03 04 05 06 07  08 09 0A 0B 0C 0D 0E 0F
      -- -- -- -- -- -- -- --  -- -- -- -- -- -- -- --
0020:                                               37                 7
0030: 05 80 06 80 07 80 08 80  80 F8 FF FF 7F 00        ..............  
```

#### Opcodes

```
  0: 0x002F [0x37] UPDATE_EVENT_POSITION_AND_DIR: x=468.976*, z=235.532*, y=-23.852*, direction=98.9°*
  1: 0x0038 [0x80] LOAD_WAIT(entity=EventEntity)
  2: 0x003D [0x00] END_REQSTACK()
```

### Event 65535.4

#### Metadata

| Field        | Value    |
|--------------|----------|
| Entrypoint   | 0x003E   |
| Data Size    | 13 bytes |
| Instructions | 3        |

```
      00 01 02 03 04 05 06 07  08 09 0A 0B 0C 0D 0E 0F
      -- -- -- -- -- -- -- --  -- -- -- -- -- -- -- --
0030:                                            6E 30                n0
0040: 21 03 01 09 80 99 30 21  03 01 00                 !.....0!...     
```

#### Opcodes

```
  0: 0x003E [0x6E] Bashraf (ID: 16982320/0x01032130) uses emote 43*
  1: 0x0045 [0x99] Wait for Bashraf (ID: 16982320/0x01032130) animation to complete
  2: 0x004A [0x00] END_REQSTACK()
```

### Event 269

#### Metadata

| Field        | Value   |
|--------------|---------|
| Entrypoint   | 0x004B  |
| Data Size    | 1 bytes |
| Instructions | 1       |

```
      00 01 02 03 04 05 06 07  08 09 0A 0B 0C 0D 0E 0F
      -- -- -- -- -- -- -- --  -- -- -- -- -- -- -- --
0040:                                   00                         .    
```

#### Opcodes

```
  0: 0x004B [0x00] END_REQSTACK()
```

### Event 65535.5

#### Metadata

| Field        | Value    |
|--------------|----------|
| Entrypoint   | 0x004C   |
| Data Size    | 15 bytes |
| Instructions | 3        |

```
      00 01 02 03 04 05 06 07  08 09 0A 0B 0C 0D 0E 0F
      -- -- -- -- -- -- -- --  -- -- -- -- -- -- -- --
0040:                                      37 0A 80 0B              7...
0050: 80 00 80 0C 80 80 F8 FF  FF 7F 00                 ...........     
```

#### Opcodes

```
  0: 0x004C [0x37] UPDATE_EVENT_POSITION_AND_DIR: x=108.589*, z=16.655*, y=0.000*, direction=345.2°*
  1: 0x0055 [0x80] LOAD_WAIT(entity=EventEntity)
  2: 0x005A [0x00] END_REQSTACK()
```

### Event 65535.6

#### Metadata

| Field        | Value    |
|--------------|----------|
| Entrypoint   | 0x005B   |
| Data Size    | 34 bytes |
| Instructions | 8        |

```
      00 01 02 03 04 05 06 07  08 09 0A 0B 0C 0D 0E 0F
      -- -- -- -- -- -- -- --  -- -- -- -- -- -- -- --
0050:                                   32 0D 80 1F 00             2....
0060: 0E 80 0F 80 10 80 1F 01  27 05 34 20 03 01 02 1C  ........'.4 ....
0070: 11 80 1F 00 12 80 13 80  14 80 1F 01 00           .............   
```

#### Opcodes

```
  0: 0x005B [0x32] ExtData[1]->MainSpeed = 13* * 0.1
  1: 0x005E [0x1F] MOVE_ENTITY: EventEntity moves to X=111.085*, Z=21.942*, Y=-0.316*
  2: 0x0066 [0x1F] MOVE_ENTITY: Update entity position (mode=1)
  3: 0x0068 [0x27] REQ_SET(priority=0x05, entity_id=Door: Chamber of Passage (ID: 16982068/0x01032034), tag_num=0x02)
  4: 0x006F [0x1C] WAIT(30* ticks)
  5: 0x0072 [0x1F] MOVE_ENTITY: EventEntity moves to X=111.951*, Z=29.478*, Y=-0.326*
  6: 0x007A [0x1F] MOVE_ENTITY: Update entity position (mode=1)
  7: 0x007C [0x00] END_REQSTACK()
```

### Event 65535.7

#### Metadata

| Field        | Value    |
|--------------|----------|
| Entrypoint   | 0x007D   |
| Data Size    | 19 bytes |
| Instructions | 5        |

```
      00 01 02 03 04 05 06 07  08 09 0A 0B 0C 0D 0E 0F
      -- -- -- -- -- -- -- --  -- -- -- -- -- -- -- --
0070:                                         32 0D 80               2..
0080: 1F 00 15 80 16 80 17 80  1F 01 1E 35 20 03 01 00  ...........5 ...
```

#### Opcodes

```
  0: 0x007D [0x32] ExtData[1]->MainSpeed = 13* * 0.1
  1: 0x0080 [0x1F] MOVE_ENTITY: EventEntity moves to X=121.369*, Z=31.573*, Y=-0.315*
  2: 0x0088 [0x1F] MOVE_ENTITY: Update entity position (mode=1)
  3: 0x008A [0x1E] EventEntity looks at Sharin-Garin (ID: 16982069/0x01032035) and starts talking
  4: 0x008F [0x00] END_REQSTACK()
```

### Event 65535.8

#### Metadata

| Field        | Value    |
|--------------|----------|
| Entrypoint   | 0x0090   |
| Data Size    | 14 bytes |
| Instructions | 4        |

```
      00 01 02 03 04 05 06 07  08 09 0A 0B 0C 0D 0E 0F
      -- -- -- -- -- -- -- --  -- -- -- -- -- -- -- --
0090: 32 0D 80 1F 00 18 80 19  80 17 80 1F 01 00        2.............  
```

#### Opcodes

```
  0: 0x0090 [0x32] ExtData[1]->MainSpeed = 13* * 0.1
  1: 0x0093 [0x1F] MOVE_ENTITY: EventEntity moves to X=124.227*, Z=31.926*, Y=-0.315*
  2: 0x009B [0x1F] MOVE_ENTITY: Update entity position (mode=1)
  3: 0x009D [0x00] END_REQSTACK()
```

### Event 65535.9

#### Metadata

| Field        | Value    |
|--------------|----------|
| Entrypoint   | 0x009E   |
| Data Size    | 20 bytes |
| Instructions | 4        |

```
      00 01 02 03 04 05 06 07  08 09 0A 0B 0C 0D 0E 0F
      -- -- -- -- -- -- -- --  -- -- -- -- -- -- -- --
0090:                                            37 1A                7.
00A0: 80 1B 80 1C 80 1D 80 80  F8 FF FF 7F 1E A5 20 03  .............. .
00B0: 01 00                                             ..              
```

#### Opcodes

```
  0: 0x009E [0x37] UPDATE_EVENT_POSITION_AND_DIR: x=-207.368*, z=-781.384*, y=-11.545*, direction=237.5°*
  1: 0x00A7 [0x80] LOAD_WAIT(entity=EventEntity)
  2: 0x00AC [0x1E] EventEntity looks at Unnamed NPC (ID: 16982181/0x010320A5) and starts talking
  3: 0x00B1 [0x00] END_REQSTACK()
```

### Event 65535.10

#### Metadata

| Field        | Value    |
|--------------|----------|
| Entrypoint   | 0x00B2   |
| Data Size    | 53 bytes |
| Instructions | 11       |

```
      00 01 02 03 04 05 06 07  08 09 0A 0B 0C 0D 0E 0F
      -- -- -- -- -- -- -- --  -- -- -- -- -- -- -- --
00B0:       37 1E 80 1F 80 20  80 21 80 80 F8 FF FF 7F    7.... .!......
00C0: 32 0D 80 1F 00 22 80 23  80 24 80 1F 01 4B 30 21  2....".#.$...K0!
00D0: 03 01 25 80 1C 11 80 6E  30 21 03 01 00 80 99 30  ..%....n0!.....0
00E0: 21 03 01 1C 26 80 00                              !...&..         
```

#### Opcodes

```
  0: 0x00B2 [0x37] UPDATE_EVENT_POSITION_AND_DIR: x=-183.147*, z=-826.464*, y=-5.910*, direction=91.8°*
  1: 0x00BB [0x80] LOAD_WAIT(entity=EventEntity)
  2: 0x00C0 [0x32] ExtData[1]->MainSpeed = 13* * 0.1
  3: 0x00C3 [0x1F] MOVE_ENTITY: EventEntity moves to X=-180.188*, Z=-831.578*, Y=-4.632*
  4: 0x00CB [0x1F] MOVE_ENTITY: Update entity position (mode=1)
  5: 0x00CD [0x4B] UPDATE_ENTITY_YAW(entity=Bashraf (ID: 16982320/0x01032130), yaw=4.9°*)
  6: 0x00D4 [0x1C] WAIT(30* ticks)
  7: 0x00D7 [0x6E] Bashraf (ID: 16982320/0x01032130) uses emote 0*
  8: 0x00DE [0x99] Wait for Bashraf (ID: 16982320/0x01032130) animation to complete
  9: 0x00E3 [0x1C] WAIT(90* ticks)
 10: 0x00E6 [0x00] END_REQSTACK()
```

### Event 65535.11

#### Metadata

| Field        | Value    |
|--------------|----------|
| Entrypoint   | 0x00E7   |
| Data Size    | 15 bytes |
| Instructions | 3        |

```
      00 01 02 03 04 05 06 07  08 09 0A 0B 0C 0D 0E 0F
      -- -- -- -- -- -- -- --  -- -- -- -- -- -- -- --
00E0:                      37  27 80 28 80 29 80 2A 80         7'.(.).*.
00F0: 80 F8 FF FF 7F 00                                 ......          
```

#### Opcodes

```
  0: 0x00E7 [0x37] UPDATE_EVENT_POSITION_AND_DIR: x=-317.451*, z=-339.690*, y=-9.272*, direction=177.2°*
  1: 0x00F0 [0x80] LOAD_WAIT(entity=EventEntity)
  2: 0x00F5 [0x00] END_REQSTACK()
```

### Event 65535.12

#### Metadata

| Field        | Value    |
|--------------|----------|
| Entrypoint   | 0x00F6   |
| Data Size    | 14 bytes |
| Instructions | 4        |

```
      00 01 02 03 04 05 06 07  08 09 0A 0B 0C 0D 0E 0F
      -- -- -- -- -- -- -- --  -- -- -- -- -- -- -- --
00F0:                   32 2B  80 1F 00 2C 80 2D 80 2E        2+...,.-..
0100: 80 1F 01 00                                       ....            
```

#### Opcodes

```
  0: 0x00F6 [0x32] ExtData[1]->MainSpeed = 40* * 0.1
  1: 0x00F9 [0x1F] MOVE_ENTITY: EventEntity moves to X=-335.912*, Z=-342.552*, Y=-9.322*
  2: 0x0101 [0x1F] MOVE_ENTITY: Update entity position (mode=1)
  3: 0x0103 [0x00] END_REQSTACK()
```
