# 16982218 - Aphmau

## Common Data

| Field            | Value                          |
|------------------|--------------------------------|
| Zone             | Aht Urhgan Whitegate2 (ID: 50) |
| Block Size       | 932 bytes                      |
| Total Events     | 39                             |
| References Count | 71                             |

## List of Events

| Event ID                    | Entrypoint   |   Size |   Instructions |
|-----------------------------|--------------|--------|----------------|
| [65535](#event-65535)       | 0x0000       |      1 |              1 |
| [65535.1](#event-65535-1)   | 0x0001       |      1 |              1 |
| [65535.2](#event-65535-2)   | 0x0002       |     18 |              4 |
| [65535.3](#event-65535-3)   | 0x0014       |     10 |              2 |
| [65535.4](#event-65535-4)   | 0x001E       |      9 |              3 |
| [65535.5](#event-65535-5)   | 0x0027       |      9 |              3 |
| [65535.6](#event-65535-6)   | 0x0030       |     10 |              2 |
| [65535.7](#event-65535-7)   | 0x003A       |     10 |              2 |
| [3090](#event-3090)         | 0x0044       |      1 |              1 |
| [3092](#event-3092)         | 0x0045       |      1 |              1 |
| [65535.8](#event-65535-8)   | 0x0046       |     10 |              2 |
| [65535.9](#event-65535-9)   | 0x0050       |     12 |              3 |
| [65535.10](#event-65535-10) | 0x005C       |     20 |              6 |
| [65535.11](#event-65535-11) | 0x0070       |      4 |              2 |
| [3093](#event-3093)         | 0x0074       |      1 |              1 |
| [65535.12](#event-65535-12) | 0x0075       |     15 |              5 |
| [65535.13](#event-65535-13) | 0x0084       |     15 |              5 |
| [65535.14](#event-65535-14) | 0x0093       |     10 |              2 |
| [65535.15](#event-65535-15) | 0x009D       |     22 |              8 |
| [65535.16](#event-65535-16) | 0x00B3       |      4 |              2 |
| [65535.17](#event-65535-17) | 0x00B7       |     17 |              6 |
| [65535.18](#event-65535-18) | 0x00C8       |      3 |              2 |
| [65535.19](#event-65535-19) | 0x00CB       |     15 |              5 |
| [65535.20](#event-65535-20) | 0x00DA       |     20 |              6 |
| [65535.21](#event-65535-21) | 0x00EE       |     15 |              5 |
| [65535.22](#event-65535-22) | 0x00FD       |     15 |              5 |
| [3112](#event-3112)         | 0x010C       |      1 |              1 |
| [65535.23](#event-65535-23) | 0x010D       |      4 |              2 |
| [65535.24](#event-65535-24) | 0x0111       |      2 |              2 |
| [65535.25](#event-65535-25) | 0x0113       |     62 |             14 |
| [65535.26](#event-65535-26) | 0x0151       |     14 |              4 |
| [65535.27](#event-65535-27) | 0x015F       |     14 |              4 |
| [65535.28](#event-65535-28) | 0x016D       |     22 |              6 |
| [65535.29](#event-65535-29) | 0x0183       |     14 |              4 |
| [65535.30](#event-65535-30) | 0x0191       |     19 |              5 |
| [65535.31](#event-65535-31) | 0x01A4       |     14 |              4 |
| [65535.32](#event-65535-32) | 0x01B2       |     21 |              5 |
| [3215](#event-3215)         | 0x01C7       |      1 |              1 |
| [65535.33](#event-65535-33) | 0x01C8       |     19 |              5 |

## DAT References (imed_data)

|   Index | Hex Value   |   Dec Value |
|---------|-------------|-------------|
|       0 | 0x0000      |           0 |
|       1 | 0x0001      |           1 |
|       2 | 0x0080      |         128 |
|       3 | 0xFFFFF774  |  4294965108 |
|       4 | 0xC256      |       49750 |
|       5 | 0x00F1      |         241 |
|       6 | 0x11288     |       70280 |
|       7 | 0xFFFE16A3  |  4294842019 |
|       8 | 0xFFFFD8B4  |  4294957236 |
|       9 | 0x000B      |          11 |
|      10 | 0x12D99     |       77209 |
|      11 | 0xFFFE330A  |  4294849290 |
|      12 | 0xFFFFE890  |  4294961296 |
|      13 | 0x03E8      |        1000 |
|      14 | 0xFFFFDB02  |  4294957826 |
|      15 | 0x848C      |       33932 |
|      16 | 0xFFFFF2DB  |  4294963931 |
|      17 | 0x7573      |       30067 |
|      18 | 0xFFFFE78E  |  4294961038 |
|      19 | 0xCB8A      |       52106 |
|      20 | 0x0103      |         259 |
|      21 | 0xFFFFF643  |  4294964803 |
|      22 | 0xC344      |       49988 |
|      23 | 0x0DAC      |        3500 |
|      24 | 0x0026      |          38 |
|      25 | 0x10A10     |       68112 |
|      26 | 0xFFFE2C00  |  4294847488 |
|      27 | 0xFFFFE69C  |  4294960796 |
|      28 | 0xFFFFFFDD  |  4294967261 |
|      29 | 0x5BAD      |       23469 |
|      30 | 0xFFFFFF2C  |  4294967084 |
|      31 | 0x2C76      |       11382 |
|      32 | 0x12A6C     |       76396 |
|      33 | 0xFFFE286A  |  4294846570 |
|      34 | 0x000D      |          13 |
|      35 | 0xFFFFDFA4  |  4294959012 |
|      36 | 0xCE0A      |       52746 |
|      37 | 0x0002      |           2 |
|      38 | 0x140E4     |       82148 |
|      39 | 0x88C7      |       35015 |
|      40 | 0x01E0      |         480 |
|      41 | 0x13EA3     |       81571 |
|      42 | 0x87BB      |       34747 |
|      43 | 0x13C6F     |       81007 |
|      44 | 0x85E9      |       34281 |
|      45 | 0x13A02     |       80386 |
|      46 | 0x8366      |       33638 |
|      47 | 0x1394F     |       80207 |
|      48 | 0x8287      |       33415 |
|      49 | 0x001E      |          30 |
|      50 | 0x13915     |       80149 |
|      51 | 0x75C5      |       30149 |
|      52 | 0xFFFFFEC5  |  4294966981 |
|      53 | 0x1DD06     |      122118 |
|      54 | 0x1D288     |      119432 |
|      55 | 0x0BB7      |        2999 |
|      56 | 0x1A911     |      108817 |
|      57 | 0x1D1C2     |      119234 |
|      58 | 0x07D0      |        2000 |
|      59 | 0x17B2F     |       97071 |
|      60 | 0x1D4A4     |      119972 |
|      61 | 0x13343     |       78659 |
|      62 | 0xC33B      |       49979 |
|      63 | 0x11CE8     |       72936 |
|      64 | 0xB0CC      |       45260 |
|      65 | 0x13878     |       79992 |
|      66 | 0x5EBA      |       24250 |
|      67 | 0xFFFFFEC4  |  4294966980 |
|      68 | 0xFFFFFF69  |  4294967145 |
|      69 | 0xC553      |       50515 |
|      70 | 0xFFFFFFEC  |  4294967276 |

## Events

### Event 65535

#### Metadata

| Field        | Value   |
|--------------|---------|
| Entrypoint   | 0x0000  |
| Data Size    | 1 bytes |
| Instructions | 1       |

```
      00 01 02 03 04 05 06 07  08 09 0A 0B 0C 0D 0E 0F
      -- -- -- -- -- -- -- --  -- -- -- -- -- -- -- --
0000: 00                                                .               
```

#### Opcodes

```
  0: 0x0000 [0x00] END_REQSTACK()
```

### Event 65535.1

#### Metadata

| Field        | Value   |
|--------------|---------|
| Entrypoint   | 0x0001  |
| Data Size    | 1 bytes |
| Instructions | 1       |

```
      00 01 02 03 04 05 06 07  08 09 0A 0B 0C 0D 0E 0F
      -- -- -- -- -- -- -- --  -- -- -- -- -- -- -- --
0000:    00                                              .              
```

#### Opcodes

```
  0: 0x0001 [0x00] END_REQSTACK()
```

### Event 65535.2

#### Metadata

| Field        | Value    |
|--------------|----------|
| Entrypoint   | 0x0002   |
| Data Size    | 18 bytes |
| Instructions | 4        |

```
      00 01 02 03 04 05 06 07  08 09 0A 0B 0C 0D 0E 0F
      -- -- -- -- -- -- -- --  -- -- -- -- -- -- -- --
0000:       22 00 2F 00 F8 FF  FF 7F 6C F8 FF FF 7F 00    "./.....l.....
0010: 80 01 80 00                                       ....            
```

#### Opcodes

```
  0: 0x0002 [0x22] ENTITY_HIDE_FLAG(enabled=0x00)
  1: 0x0004 [0x2F] EventEntity->Render.Flags0 &= ~0x80000 // Bit 19
  2: 0x000A [0x6C] FADE_ENTITY_COLOR(entity_id=EventEntity, end_alpha=0*, fade_time=1*)
  3: 0x0013 [0x00] END_REQSTACK()
```

### Event 65535.3

#### Metadata

| Field        | Value    |
|--------------|----------|
| Entrypoint   | 0x0014   |
| Data Size    | 10 bytes |
| Instructions | 2        |

```
      00 01 02 03 04 05 06 07  08 09 0A 0B 0C 0D 0E 0F
      -- -- -- -- -- -- -- --  -- -- -- -- -- -- -- --
0010:             6C F8 FF FF  7F 02 80 01 80 00            l.........  
```

#### Opcodes

```
  0: 0x0014 [0x6C] FADE_ENTITY_COLOR(entity_id=EventEntity, end_alpha=128*, fade_time=1*)
  1: 0x001D [0x00] END_REQSTACK()
```

### Event 65535.4

#### Metadata

| Field        | Value   |
|--------------|---------|
| Entrypoint   | 0x001E  |
| Data Size    | 9 bytes |
| Instructions | 3       |

```
      00 01 02 03 04 05 06 07  08 09 0A 0B 0C 0D 0E 0F
      -- -- -- -- -- -- -- --  -- -- -- -- -- -- -- --
0010:                                            22 00                ".
0020: 2F 00 F8 FF FF 7F 00                              /......         
```

#### Opcodes

```
  0: 0x001E [0x22] ENTITY_HIDE_FLAG(enabled=0x00)
  1: 0x0020 [0x2F] EventEntity->Render.Flags0 &= ~0x80000 // Bit 19
  2: 0x0026 [0x00] END_REQSTACK()
```

### Event 65535.5

#### Metadata

| Field        | Value   |
|--------------|---------|
| Entrypoint   | 0x0027  |
| Data Size    | 9 bytes |
| Instructions | 3       |

```
      00 01 02 03 04 05 06 07  08 09 0A 0B 0C 0D 0E 0F
      -- -- -- -- -- -- -- --  -- -- -- -- -- -- -- --
0020:                      22  01 2F 01 F8 FF FF 7F 00         "./......
```

#### Opcodes

```
  0: 0x0027 [0x22] ENTITY_HIDE_FLAG(enabled=0x01)
  1: 0x0029 [0x2F] EventEntity->Render.Flags0 |= 0x80000 // Bit 19
  2: 0x002F [0x00] END_REQSTACK()
```

### Event 65535.6

#### Metadata

| Field        | Value    |
|--------------|----------|
| Entrypoint   | 0x0030   |
| Data Size    | 10 bytes |
| Instructions | 2        |

```
      00 01 02 03 04 05 06 07  08 09 0A 0B 0C 0D 0E 0F
      -- -- -- -- -- -- -- --  -- -- -- -- -- -- -- --
0030: 6C F8 FF FF 7F 00 80 01  80 00                    l.........      
```

#### Opcodes

```
  0: 0x0030 [0x6C] FADE_ENTITY_COLOR(entity_id=EventEntity, end_alpha=0*, fade_time=1*)
  1: 0x0039 [0x00] END_REQSTACK()
```

### Event 65535.7

#### Metadata

| Field        | Value    |
|--------------|----------|
| Entrypoint   | 0x003A   |
| Data Size    | 10 bytes |
| Instructions | 2        |

```
      00 01 02 03 04 05 06 07  08 09 0A 0B 0C 0D 0E 0F
      -- -- -- -- -- -- -- --  -- -- -- -- -- -- -- --
0030:                                6C F8 FF FF 7F 02            l.....
0040: 80 01 80 00                                       ....            
```

#### Opcodes

```
  0: 0x003A [0x6C] FADE_ENTITY_COLOR(entity_id=EventEntity, end_alpha=128*, fade_time=1*)
  1: 0x0043 [0x00] END_REQSTACK()
```

### Event 3090

#### Metadata

| Field        | Value   |
|--------------|---------|
| Entrypoint   | 0x0044  |
| Data Size    | 1 bytes |
| Instructions | 1       |

```
      00 01 02 03 04 05 06 07  08 09 0A 0B 0C 0D 0E 0F
      -- -- -- -- -- -- -- --  -- -- -- -- -- -- -- --
0040:             00                                        .           
```

#### Opcodes

```
  0: 0x0044 [0x00] END_REQSTACK()
```

### Event 3092

#### Metadata

| Field        | Value   |
|--------------|---------|
| Entrypoint   | 0x0045  |
| Data Size    | 1 bytes |
| Instructions | 1       |

```
      00 01 02 03 04 05 06 07  08 09 0A 0B 0C 0D 0E 0F
      -- -- -- -- -- -- -- --  -- -- -- -- -- -- -- --
0040:                00                                      .          
```

#### Opcodes

```
  0: 0x0045 [0x00] END_REQSTACK()
```

### Event 65535.8

#### Metadata

| Field        | Value    |
|--------------|----------|
| Entrypoint   | 0x0046   |
| Data Size    | 10 bytes |
| Instructions | 2        |

```
      00 01 02 03 04 05 06 07  08 09 0A 0B 0C 0D 0E 0F
      -- -- -- -- -- -- -- --  -- -- -- -- -- -- -- --
0040:                   37 03  80 04 80 00 80 05 80 00        7.........
```

#### Opcodes

```
  0: 0x0046 [0x37] UPDATE_EVENT_POSITION_AND_DIR: x=-2.188*, z=49.750*, y=0.000*, direction=21.2°*
  1: 0x004F [0x00] END_REQSTACK()
```

### Event 65535.9

#### Metadata

| Field        | Value    |
|--------------|----------|
| Entrypoint   | 0x0050   |
| Data Size    | 12 bytes |
| Instructions | 3        |

```
      00 01 02 03 04 05 06 07  08 09 0A 0B 0C 0D 0E 0F
      -- -- -- -- -- -- -- --  -- -- -- -- -- -- -- --
0050: 33 01 37 06 80 07 80 08  80 00 80 00              3.7.........    
```

#### Opcodes

```
  0: 0x0050 [0x33] EventEntity->Render.Flags0 |= 0x200000 // Bit 21 (flag=0x01)
  1: 0x0052 [0x37] UPDATE_EVENT_POSITION_AND_DIR: x=70.280*, z=-125.277*, y=-10.060*, direction=0.0°*
  2: 0x005B [0x00] END_REQSTACK()
```

### Event 65535.10

#### Metadata

| Field        | Value    |
|--------------|----------|
| Entrypoint   | 0x005C   |
| Data Size    | 20 bytes |
| Instructions | 6        |

```
      00 01 02 03 04 05 06 07  08 09 0A 0B 0C 0D 0E 0F
      -- -- -- -- -- -- -- --  -- -- -- -- -- -- -- --
0050:                                      32 09 80 1F              2...
0060: 00 0A 80 0B 80 0C 80 1F  01 6F 1E C7 20 03 01 00  .........o.. ...
```

#### Opcodes

```
  0: 0x005C [0x32] ExtData[1]->MainSpeed = 11* * 0.1
  1: 0x005F [0x1F] MOVE_ENTITY: EventEntity moves to X=77.209*, Z=-118.006*, Y=-6.000*
  2: 0x0067 [0x1F] MOVE_ENTITY: Update entity position (mode=1)
  3: 0x0069 [0x6F] WAIT_FRAME_DELAY: Yield until WaitTime reaches zero
  4: 0x006A [0x1E] EventEntity looks at Ovjang (ID: 16982215/0x010320C7) and starts talking
  5: 0x006F [0x00] END_REQSTACK()
```

### Event 65535.11

#### Metadata

| Field        | Value   |
|--------------|---------|
| Entrypoint   | 0x0070  |
| Data Size    | 4 bytes |
| Instructions | 2       |

```
      00 01 02 03 04 05 06 07  08 09 0A 0B 0C 0D 0E 0F
      -- -- -- -- -- -- -- --  -- -- -- -- -- -- -- --
0070: 39 0D 80 00                                       9...            
```

#### Opcodes

```
  0: 0x0070 [0x39] SET_ENTITY_DIRECTION(direction=5.5°*)
  1: 0x0073 [0x00] END_REQSTACK()
```

### Event 3093

#### Metadata

| Field        | Value   |
|--------------|---------|
| Entrypoint   | 0x0074  |
| Data Size    | 1 bytes |
| Instructions | 1       |

```
      00 01 02 03 04 05 06 07  08 09 0A 0B 0C 0D 0E 0F
      -- -- -- -- -- -- -- --  -- -- -- -- -- -- -- --
0070:             00                                        .           
```

#### Opcodes

```
  0: 0x0074 [0x00] END_REQSTACK()
```

### Event 65535.12

#### Metadata

| Field        | Value    |
|--------------|----------|
| Entrypoint   | 0x0075   |
| Data Size    | 15 bytes |
| Instructions | 5        |

```
      00 01 02 03 04 05 06 07  08 09 0A 0B 0C 0D 0E 0F
      -- -- -- -- -- -- -- --  -- -- -- -- -- -- -- --
0070:                32 09 80  1F 00 0E 80 0F 80 00 80       2..........
0080: 1F 01 6F 00                                       ..o.            
```

#### Opcodes

```
  0: 0x0075 [0x32] ExtData[1]->MainSpeed = 11* * 0.1
  1: 0x0078 [0x1F] MOVE_ENTITY: EventEntity moves to X=-9.470*, Z=33.932*, Y=0.000*
  2: 0x0080 [0x1F] MOVE_ENTITY: Update entity position (mode=1)
  3: 0x0082 [0x6F] WAIT_FRAME_DELAY: Yield until WaitTime reaches zero
  4: 0x0083 [0x00] END_REQSTACK()
```

### Event 65535.13

#### Metadata

| Field        | Value    |
|--------------|----------|
| Entrypoint   | 0x0084   |
| Data Size    | 15 bytes |
| Instructions | 5        |

```
      00 01 02 03 04 05 06 07  08 09 0A 0B 0C 0D 0E 0F
      -- -- -- -- -- -- -- --  -- -- -- -- -- -- -- --
0080:             32 09 80 1F  00 10 80 11 80 00 80 1F      2...........
0090: 01 6F 00                                          .o.             
```

#### Opcodes

```
  0: 0x0084 [0x32] ExtData[1]->MainSpeed = 11* * 0.1
  1: 0x0087 [0x1F] MOVE_ENTITY: EventEntity moves to X=-3.365*, Z=30.067*, Y=0.000*
  2: 0x008F [0x1F] MOVE_ENTITY: Update entity position (mode=1)
  3: 0x0091 [0x6F] WAIT_FRAME_DELAY: Yield until WaitTime reaches zero
  4: 0x0092 [0x00] END_REQSTACK()
```

### Event 65535.14

#### Metadata

| Field        | Value    |
|--------------|----------|
| Entrypoint   | 0x0093   |
| Data Size    | 10 bytes |
| Instructions | 2        |

```
      00 01 02 03 04 05 06 07  08 09 0A 0B 0C 0D 0E 0F
      -- -- -- -- -- -- -- --  -- -- -- -- -- -- -- --
0090:          37 12 80 13 80  00 80 14 80 00              7.........   
```

#### Opcodes

```
  0: 0x0093 [0x37] UPDATE_EVENT_POSITION_AND_DIR: x=-6.258*, z=52.106*, y=0.000*, direction=22.8°*
  1: 0x009C [0x00] END_REQSTACK()
```

### Event 65535.15

#### Metadata

| Field        | Value    |
|--------------|----------|
| Entrypoint   | 0x009D   |
| Data Size    | 22 bytes |
| Instructions | 8        |

```
      00 01 02 03 04 05 06 07  08 09 0A 0B 0C 0D 0E 0F
      -- -- -- -- -- -- -- --  -- -- -- -- -- -- -- --
0090:                                         32 09 80               2..
00A0: 1F 00 15 80 16 80 00 80  1F 01 6F 1E C7 20 03 01  ..........o.. ..
00B0: 6F 70 00                                          op.             
```

#### Opcodes

```
  0: 0x009D [0x32] ExtData[1]->MainSpeed = 11* * 0.1
  1: 0x00A0 [0x1F] MOVE_ENTITY: EventEntity moves to X=-2.493*, Z=49.988*, Y=0.000*
  2: 0x00A8 [0x1F] MOVE_ENTITY: Update entity position (mode=1)
  3: 0x00AA [0x6F] WAIT_FRAME_DELAY: Yield until WaitTime reaches zero
  4: 0x00AB [0x1E] EventEntity looks at Ovjang (ID: 16982215/0x010320C7) and starts talking
  5: 0x00B0 [0x6F] WAIT_FRAME_DELAY: Yield until WaitTime reaches zero
  6: 0x00B1 [0x70] WAIT_ENTITY_RENDER_FLAG: Wait while EventEntity->Render.Flags3 bit 2 is set (cancel turn if not)
  7: 0x00B2 [0x00] END_REQSTACK()
```

### Event 65535.16

#### Metadata

| Field        | Value   |
|--------------|---------|
| Entrypoint   | 0x00B3  |
| Data Size    | 4 bytes |
| Instructions | 2       |

```
      00 01 02 03 04 05 06 07  08 09 0A 0B 0C 0D 0E 0F
      -- -- -- -- -- -- -- --  -- -- -- -- -- -- -- --
00B0:          39 17 80 00                                 9...         
```

#### Opcodes

```
  0: 0x00B3 [0x39] SET_ENTITY_DIRECTION(direction=19.2°*)
  1: 0x00B6 [0x00] END_REQSTACK()
```

### Event 65535.17

#### Metadata

| Field        | Value    |
|--------------|----------|
| Entrypoint   | 0x00B7   |
| Data Size    | 17 bytes |
| Instructions | 6        |

```
      00 01 02 03 04 05 06 07  08 09 0A 0B 0C 0D 0E 0F
      -- -- -- -- -- -- -- --  -- -- -- -- -- -- -- --
00B0:                      61  00 32 18 80 1F 00 19 80         a.2......
00C0: 1A 80 1B 80 1F 01 6F 00                           ......o.        
```

#### Opcodes

```
  0: 0x00B7 [0x61] EventEntity->Render.Flags2 &= ~0x00000001
  1: 0x00B9 [0x32] ExtData[1]->MainSpeed = 38* * 0.1
  2: 0x00BC [0x1F] MOVE_ENTITY: EventEntity moves to X=68.112*, Z=-119.808*, Y=-6.500*
  3: 0x00C4 [0x1F] MOVE_ENTITY: Update entity position (mode=1)
  4: 0x00C6 [0x6F] WAIT_FRAME_DELAY: Yield until WaitTime reaches zero
  5: 0x00C7 [0x00] END_REQSTACK()
```

### Event 65535.18

#### Metadata

| Field        | Value   |
|--------------|---------|
| Entrypoint   | 0x00C8  |
| Data Size    | 3 bytes |
| Instructions | 2       |

```
      00 01 02 03 04 05 06 07  08 09 0A 0B 0C 0D 0E 0F
      -- -- -- -- -- -- -- --  -- -- -- -- -- -- -- --
00C0:                          61 01 00                         a..     
```

#### Opcodes

```
  0: 0x00C8 [0x61] EventEntity->Render.Flags2 |= 0x00000001
  1: 0x00CA [0x00] END_REQSTACK()
```

### Event 65535.19

#### Metadata

| Field        | Value    |
|--------------|----------|
| Entrypoint   | 0x00CB   |
| Data Size    | 15 bytes |
| Instructions | 5        |

```
      00 01 02 03 04 05 06 07  08 09 0A 0B 0C 0D 0E 0F
      -- -- -- -- -- -- -- --  -- -- -- -- -- -- -- --
00C0:                                   32 09 80 1F 00             2....
00D0: 1C 80 1D 80 00 80 1F 01  6F 00                    ........o.      
```

#### Opcodes

```
  0: 0x00CB [0x32] ExtData[1]->MainSpeed = 11* * 0.1
  1: 0x00CE [0x1F] MOVE_ENTITY: EventEntity moves to X=-0.035*, Z=23.469*, Y=0.000*
  2: 0x00D6 [0x1F] MOVE_ENTITY: Update entity position (mode=1)
  3: 0x00D8 [0x6F] WAIT_FRAME_DELAY: Yield until WaitTime reaches zero
  4: 0x00D9 [0x00] END_REQSTACK()
```

### Event 65535.20

#### Metadata

| Field        | Value    |
|--------------|----------|
| Entrypoint   | 0x00DA   |
| Data Size    | 20 bytes |
| Instructions | 6        |

```
      00 01 02 03 04 05 06 07  08 09 0A 0B 0C 0D 0E 0F
      -- -- -- -- -- -- -- --  -- -- -- -- -- -- -- --
00D0:                                32 09 80 1F 00 1E            2.....
00E0: 80 1F 80 00 80 1F 01 6F  1E A9 20 03 01 00        .......o.. ...  
```

#### Opcodes

```
  0: 0x00DA [0x32] ExtData[1]->MainSpeed = 11* * 0.1
  1: 0x00DD [0x1F] MOVE_ENTITY: EventEntity moves to X=-0.212*, Z=11.382*, Y=0.000*
  2: 0x00E5 [0x1F] MOVE_ENTITY: Update entity position (mode=1)
  3: 0x00E7 [0x6F] WAIT_FRAME_DELAY: Yield until WaitTime reaches zero
  4: 0x00E8 [0x1E] EventEntity looks at Razfahd (ID: 16982185/0x010320A9) and starts talking
  5: 0x00ED [0x00] END_REQSTACK()
```

### Event 65535.21

#### Metadata

| Field        | Value    |
|--------------|----------|
| Entrypoint   | 0x00EE   |
| Data Size    | 15 bytes |
| Instructions | 5        |

```
      00 01 02 03 04 05 06 07  08 09 0A 0B 0C 0D 0E 0F
      -- -- -- -- -- -- -- --  -- -- -- -- -- -- -- --
00E0:                                            32 09                2.
00F0: 80 1F 00 20 80 21 80 1B  80 1F 01 6F 00           ... .!.....o.   
```

#### Opcodes

```
  0: 0x00EE [0x32] ExtData[1]->MainSpeed = 11* * 0.1
  1: 0x00F1 [0x1F] MOVE_ENTITY: EventEntity moves to X=76.396*, Z=-120.726*, Y=-6.500*
  2: 0x00F9 [0x1F] MOVE_ENTITY: Update entity position (mode=1)
  3: 0x00FB [0x6F] WAIT_FRAME_DELAY: Yield until WaitTime reaches zero
  4: 0x00FC [0x00] END_REQSTACK()
```

### Event 65535.22

#### Metadata

| Field        | Value    |
|--------------|----------|
| Entrypoint   | 0x00FD   |
| Data Size    | 15 bytes |
| Instructions | 5        |

```
      00 01 02 03 04 05 06 07  08 09 0A 0B 0C 0D 0E 0F
      -- -- -- -- -- -- -- --  -- -- -- -- -- -- -- --
00F0:                                         32 22 80               2".
0100: 1F 00 23 80 24 80 00 80  1F 01 6F 00              ..#.$.....o.    
```

#### Opcodes

```
  0: 0x00FD [0x32] ExtData[1]->MainSpeed = 13* * 0.1
  1: 0x0100 [0x1F] MOVE_ENTITY: EventEntity moves to X=-8.284*, Z=52.746*, Y=0.000*
  2: 0x0108 [0x1F] MOVE_ENTITY: Update entity position (mode=1)
  3: 0x010A [0x6F] WAIT_FRAME_DELAY: Yield until WaitTime reaches zero
  4: 0x010B [0x00] END_REQSTACK()
```

### Event 3112

#### Metadata

| Field        | Value   |
|--------------|---------|
| Entrypoint   | 0x010C  |
| Data Size    | 1 bytes |
| Instructions | 1       |

```
      00 01 02 03 04 05 06 07  08 09 0A 0B 0C 0D 0E 0F
      -- -- -- -- -- -- -- --  -- -- -- -- -- -- -- --
0100:                                      00                       .   
```

#### Opcodes

```
  0: 0x010C [0x00] END_REQSTACK()
```

### Event 65535.23

#### Metadata

| Field        | Value   |
|--------------|---------|
| Entrypoint   | 0x010D  |
| Data Size    | 4 bytes |
| Instructions | 2       |

```
      00 01 02 03 04 05 06 07  08 09 0A 0B 0C 0D 0E 0F
      -- -- -- -- -- -- -- --  -- -- -- -- -- -- -- --
0100:                                         95 25 80               .%.
0110: 00                                                .               
```

#### Opcodes

```
  0: 0x010D [0x95] SETUP_EVENT_NPC: Prepare NPC for event (Render.Flags3 = 2*)
  1: 0x0110 [0x00] END_REQSTACK()
```

### Event 65535.24

#### Metadata

| Field        | Value   |
|--------------|---------|
| Entrypoint   | 0x0111  |
| Data Size    | 2 bytes |
| Instructions | 2       |

```
      00 01 02 03 04 05 06 07  08 09 0A 0B 0C 0D 0E 0F
      -- -- -- -- -- -- -- --  -- -- -- -- -- -- -- --
0110:    96 00                                           ..             
```

#### Opcodes

```
  0: 0x0111 [0x96] UNSET_EVENT_NPC: Restore NPC after event (removes event NPC status)
  1: 0x0112 [0x00] END_REQSTACK()
```

### Event 65535.25

#### Metadata

| Field        | Value    |
|--------------|----------|
| Entrypoint   | 0x0113   |
| Data Size    | 62 bytes |
| Instructions | 14       |

```
      00 01 02 03 04 05 06 07  08 09 0A 0B 0C 0D 0E 0F
      -- -- -- -- -- -- -- --  -- -- -- -- -- -- -- --
0110:          32 22 80 1F 00  26 80 27 80 28 80 1F 01     2"...&.'.(...
0120: 1F 00 29 80 2A 80 28 80  1F 01 1F 00 2B 80 2C 80  ..).*.(.....+.,.
0130: 28 80 1F 01 1F 00 2D 80  2E 80 28 80 1F 01 1F 00  (.....-...(.....
0140: 2F 80 30 80 28 80 1F 01  1E A9 20 03 01 1C 31 80  /.0.(..... ...1.
0150: 00                                                .               
```

#### Opcodes

```
  0: 0x0113 [0x32] ExtData[1]->MainSpeed = 13* * 0.1
  1: 0x0116 [0x1F] MOVE_ENTITY: EventEntity moves to X=82.148*, Z=35.015*, Y=0.480*
  2: 0x011E [0x1F] MOVE_ENTITY: Update entity position (mode=1)
  3: 0x0120 [0x1F] MOVE_ENTITY: EventEntity moves to X=81.571*, Z=34.747*, Y=0.480*
  4: 0x0128 [0x1F] MOVE_ENTITY: Update entity position (mode=1)
  5: 0x012A [0x1F] MOVE_ENTITY: EventEntity moves to X=81.007*, Z=34.281*, Y=0.480*
  6: 0x0132 [0x1F] MOVE_ENTITY: Update entity position (mode=1)
  7: 0x0134 [0x1F] MOVE_ENTITY: EventEntity moves to X=80.386*, Z=33.638*, Y=0.480*
  8: 0x013C [0x1F] MOVE_ENTITY: Update entity position (mode=1)
  9: 0x013E [0x1F] MOVE_ENTITY: EventEntity moves to X=80.207*, Z=33.415*, Y=0.480*
 10: 0x0146 [0x1F] MOVE_ENTITY: Update entity position (mode=1)
 11: 0x0148 [0x1E] EventEntity looks at Razfahd (ID: 16982185/0x010320A9) and starts talking
 12: 0x014D [0x1C] WAIT(30* ticks)
 13: 0x0150 [0x00] END_REQSTACK()
```

### Event 65535.26

#### Metadata

| Field        | Value    |
|--------------|----------|
| Entrypoint   | 0x0151   |
| Data Size    | 14 bytes |
| Instructions | 4        |

```
      00 01 02 03 04 05 06 07  08 09 0A 0B 0C 0D 0E 0F
      -- -- -- -- -- -- -- --  -- -- -- -- -- -- -- --
0150:    32 22 80 1F 00 32 80  33 80 34 80 1F 01 00      2"...2.3.4.... 
```

#### Opcodes

```
  0: 0x0151 [0x32] ExtData[1]->MainSpeed = 13* * 0.1
  1: 0x0154 [0x1F] MOVE_ENTITY: EventEntity moves to X=80.149*, Z=30.149*, Y=-0.315*
  2: 0x015C [0x1F] MOVE_ENTITY: Update entity position (mode=1)
  3: 0x015E [0x00] END_REQSTACK()
```

### Event 65535.27

#### Metadata

| Field        | Value    |
|--------------|----------|
| Entrypoint   | 0x015F   |
| Data Size    | 14 bytes |
| Instructions | 4        |

```
      00 01 02 03 04 05 06 07  08 09 0A 0B 0C 0D 0E 0F
      -- -- -- -- -- -- -- --  -- -- -- -- -- -- -- --
0150:                                               32                 2
0160: 22 80 1F 00 35 80 36 80  37 80 1F 01 00           "...5.6.7....   
```

#### Opcodes

```
  0: 0x015F [0x32] ExtData[1]->MainSpeed = 13* * 0.1
  1: 0x0162 [0x1F] MOVE_ENTITY: EventEntity moves to X=122.118*, Z=119.432*, Y=2.999*
  2: 0x016A [0x1F] MOVE_ENTITY: Update entity position (mode=1)
  3: 0x016C [0x00] END_REQSTACK()
```

### Event 65535.28

#### Metadata

| Field        | Value    |
|--------------|----------|
| Entrypoint   | 0x016D   |
| Data Size    | 22 bytes |
| Instructions | 6        |

```
      00 01 02 03 04 05 06 07  08 09 0A 0B 0C 0D 0E 0F
      -- -- -- -- -- -- -- --  -- -- -- -- -- -- -- --
0160:                                         32 22 80               2".
0170: 1F 00 38 80 39 80 3A 80  1F 01 1E F0 FF FF 7F 1C  ..8.9.:.........
0180: 31 80 00                                          1..             
```

#### Opcodes

```
  0: 0x016D [0x32] ExtData[1]->MainSpeed = 13* * 0.1
  1: 0x0170 [0x1F] MOVE_ENTITY: EventEntity moves to X=108.817*, Z=119.234*, Y=2.000*
  2: 0x0178 [0x1F] MOVE_ENTITY: Update entity position (mode=1)
  3: 0x017A [0x1E] EventEntity looks at LocalPlayer and starts talking
  4: 0x017F [0x1C] WAIT(30* ticks)
  5: 0x0182 [0x00] END_REQSTACK()
```

### Event 65535.29

#### Metadata

| Field        | Value    |
|--------------|----------|
| Entrypoint   | 0x0183   |
| Data Size    | 14 bytes |
| Instructions | 4        |

```
      00 01 02 03 04 05 06 07  08 09 0A 0B 0C 0D 0E 0F
      -- -- -- -- -- -- -- --  -- -- -- -- -- -- -- --
0180:          32 22 80 1F 00  3B 80 3C 80 3A 80 1F 01     2"...;.<.:...
0190: 00                                                .               
```

#### Opcodes

```
  0: 0x0183 [0x32] ExtData[1]->MainSpeed = 13* * 0.1
  1: 0x0186 [0x1F] MOVE_ENTITY: EventEntity moves to X=97.071*, Z=119.972*, Y=2.000*
  2: 0x018E [0x1F] MOVE_ENTITY: Update entity position (mode=1)
  3: 0x0190 [0x00] END_REQSTACK()
```

### Event 65535.30

#### Metadata

| Field        | Value    |
|--------------|----------|
| Entrypoint   | 0x0191   |
| Data Size    | 19 bytes |
| Instructions | 5        |

```
      00 01 02 03 04 05 06 07  08 09 0A 0B 0C 0D 0E 0F
      -- -- -- -- -- -- -- --  -- -- -- -- -- -- -- --
0190:    32 22 80 1F 00 3D 80  3E 80 28 80 1F 01 1E C5   2"...=.>.(.....
01A0: 20 03 01 00                                        ...            
```

#### Opcodes

```
  0: 0x0191 [0x32] ExtData[1]->MainSpeed = 13* * 0.1
  1: 0x0194 [0x1F] MOVE_ENTITY: EventEntity moves to X=78.659*, Z=49.979*, Y=0.480*
  2: 0x019C [0x1F] MOVE_ENTITY: Update entity position (mode=1)
  3: 0x019E [0x1E] EventEntity looks at Rishfee (ID: 16982213/0x010320C5) and starts talking
  4: 0x01A3 [0x00] END_REQSTACK()
```

### Event 65535.31

#### Metadata

| Field        | Value    |
|--------------|----------|
| Entrypoint   | 0x01A4   |
| Data Size    | 14 bytes |
| Instructions | 4        |

```
      00 01 02 03 04 05 06 07  08 09 0A 0B 0C 0D 0E 0F
      -- -- -- -- -- -- -- --  -- -- -- -- -- -- -- --
01A0:             32 22 80 1F  00 3F 80 40 80 28 80 1F      2"...?.@.(..
01B0: 01 00                                             ..              
```

#### Opcodes

```
  0: 0x01A4 [0x32] ExtData[1]->MainSpeed = 13* * 0.1
  1: 0x01A7 [0x1F] MOVE_ENTITY: EventEntity moves to X=72.936*, Z=45.260*, Y=0.480*
  2: 0x01AF [0x1F] MOVE_ENTITY: Update entity position (mode=1)
  3: 0x01B1 [0x00] END_REQSTACK()
```

### Event 65535.32

#### Metadata

| Field        | Value    |
|--------------|----------|
| Entrypoint   | 0x01B2   |
| Data Size    | 21 bytes |
| Instructions | 5        |

```
      00 01 02 03 04 05 06 07  08 09 0A 0B 0C 0D 0E 0F
      -- -- -- -- -- -- -- --  -- -- -- -- -- -- -- --
01B0:       32 22 80 1F 00 41  80 42 80 43 80 1F 01 27    2"...A.B.C...'
01C0: 05 EF 20 03 01 06 00                              .. ....         
```

#### Opcodes

```
  0: 0x01B2 [0x32] ExtData[1]->MainSpeed = 13* * 0.1
  1: 0x01B5 [0x1F] MOVE_ENTITY: EventEntity moves to X=79.992*, Z=24.250*, Y=-0.316*
  2: 0x01BD [0x1F] MOVE_ENTITY: Update entity position (mode=1)
  3: 0x01BF [0x27] REQ_SET(priority=0x05, entity_id=Door: Walahra Temple (ID: 16982255/0x010320EF), tag_num=0x06)
  4: 0x01C6 [0x00] END_REQSTACK()
```

### Event 3215

#### Metadata

| Field        | Value   |
|--------------|---------|
| Entrypoint   | 0x01C7  |
| Data Size    | 1 bytes |
| Instructions | 1       |

```
      00 01 02 03 04 05 06 07  08 09 0A 0B 0C 0D 0E 0F
      -- -- -- -- -- -- -- --  -- -- -- -- -- -- -- --
01C0:                      00                                  .        
```

#### Opcodes

```
  0: 0x01C7 [0x00] END_REQSTACK()
```

### Event 65535.33

#### Metadata

| Field        | Value    |
|--------------|----------|
| Entrypoint   | 0x01C8   |
| Data Size    | 19 bytes |
| Instructions | 5        |

```
      00 01 02 03 04 05 06 07  08 09 0A 0B 0C 0D 0E 0F
      -- -- -- -- -- -- -- --  -- -- -- -- -- -- -- --
01C0:                          32 22 80 1F 00 44 80 45          2"...D.E
01D0: 80 46 80 1F 01 1E F0 FF  FF 7F 00                 .F.........     
```

#### Opcodes

```
  0: 0x01C8 [0x32] ExtData[1]->MainSpeed = 13* * 0.1
  1: 0x01CB [0x1F] MOVE_ENTITY: EventEntity moves to X=-0.151*, Z=50.515*, Y=-0.020*
  2: 0x01D3 [0x1F] MOVE_ENTITY: Update entity position (mode=1)
  3: 0x01D5 [0x1E] EventEntity looks at LocalPlayer and starts talking
  4: 0x01DA [0x00] END_REQSTACK()
```
