# 16982366 - Rughadjeen

## Common Data

| Field            | Value                          |
|------------------|--------------------------------|
| Zone             | Aht Urhgan Whitegate2 (ID: 50) |
| Block Size       | 508 bytes                      |
| Total Events     | 20                             |
| References Count | 41                             |

## List of Events

| Event ID                   | Entrypoint   |   Size |   Instructions |
|----------------------------|--------------|--------|----------------|
| [65535](#event-65535)      | 0x0000       |      1 |              1 |
| [824](#event-824)          | 0x0001       |      1 |              1 |
| [825](#event-825)          | 0x0002       |      1 |              1 |
| [940](#event-940)          | 0x0003       |      1 |              1 |
| [941](#event-941)          | 0x0004       |      1 |              1 |
| [65535.1](#event-655351)   | 0x0005       |     19 |              5 |
| [65535.2](#event-655352)   | 0x0018       |     33 |              7 |
| [65535.3](#event-655353)   | 0x0039       |     15 |              5 |
| [65535.4](#event-655354)   | 0x0048       |     20 |              6 |
| [65535.5](#event-655355)   | 0x005C       |     14 |              4 |
| [65535.6](#event-655356)   | 0x006A       |     20 |              6 |
| [65535.7](#event-655357)   | 0x007E       |      4 |              2 |
| [65535.8](#event-655358)   | 0x0082       |     21 |              2 |
| [65535.9](#event-655359)   | 0x0097       |     21 |              2 |
| [65535.10](#event-6553510) | 0x00AC       |     14 |              4 |
| [65535.11](#event-6553511) | 0x00BA       |     15 |              5 |
| [65535.12](#event-6553512) | 0x00C9       |     14 |              4 |
| [65535.13](#event-6553513) | 0x00D7       |     14 |              4 |
| [65535.14](#event-6553514) | 0x00E5       |      4 |              2 |
| [65535.15](#event-6553515) | 0x00E9       |     14 |              4 |

## DAT References (imed_data)

|   Index | Hex Value   |   Dec Value |
|---------|-------------|-------------|
|       0 | 0x0028      |          40 |
|       1 | 0xFFFF0BB7  |  4294904759 |
|       2 | 0x6CD8      |       27864 |
|       3 | 0xFFFFE891  |  4294961297 |
|       4 | 0xFFFF0987  |  4294904199 |
|       5 | 0xB6C8      |       46792 |
|       6 | 0xFFFFE890  |  4294961296 |
|       7 | 0x0B54      |        2900 |
|       8 | 0xFFFF0627  |  4294903335 |
|       9 | 0xC2CD      |       49869 |
|      10 | 0xFFFF063F  |  4294903359 |
|      11 | 0xE033      |       57395 |
|      12 | 0xFFFF10E0  |  4294906080 |
|      13 | 0xF4D7      |       62679 |
|      14 | 0x000D      |          13 |
|      15 | 0xFFFF0AD8  |  4294904536 |
|      16 | 0x7BFF      |       31743 |
|      17 | 0xFFFFF284  |  4294963844 |
|      18 | 0xB967      |       47463 |
|      19 | 0x0000      |           0 |
|      20 | 0x0D8A      |        3466 |
|      21 | 0x0003      |           3 |
|      22 | 0x0007      |           7 |
|      23 | 0x00B2      |         178 |
|      24 | 0x00AB      |         171 |
|      25 | 0x00AE      |         174 |
|      26 | 0x0179      |         377 |
|      27 | 0x016A      |         362 |
|      28 | 0xFFFFFE9A  |  4294966938 |
|      29 | 0xFFFFB256  |  4294947414 |
|      30 | 0xFFFFFF46  |  4294967110 |
|      31 | 0xFFFFD6C3  |  4294956739 |
|      32 | 0x20D63     |      134499 |
|      33 | 0x054F      |        1359 |
|      34 | 0xFFFFF98D  |  4294965645 |
|      35 | 0x2040E     |      132110 |
|      36 | 0x0454      |        1108 |
|      37 | 0xFFFFFBE5  |  4294966245 |
|      38 | 0x00C8      |         200 |
|      39 | 0xFFFF5337  |  4294923063 |
|      40 | 0x7059      |       28761 |

## Events

### Event 65535

#### Metadata

| Field        | Value   |
|--------------|---------|
| Entrypoint   | 0x0000  |
| Data Size    | 1 bytes |
| Instructions | 1       |

```
      00 01 02 03 04 05 06 07  08 09 0A 0B 0C 0D 0E 0F
      -- -- -- -- -- -- -- --  -- -- -- -- -- -- -- --
0000: 00                                                .               
```

#### Opcodes

```
  0: 0x0000 [0x00] END_REQSTACK()
```

### Event 824

#### Metadata

| Field        | Value   |
|--------------|---------|
| Entrypoint   | 0x0001  |
| Data Size    | 1 bytes |
| Instructions | 1       |

```
      00 01 02 03 04 05 06 07  08 09 0A 0B 0C 0D 0E 0F
      -- -- -- -- -- -- -- --  -- -- -- -- -- -- -- --
0000:    00                                              .              
```

#### Opcodes

```
  0: 0x0001 [0x00] END_REQSTACK()
```

### Event 825

#### Metadata

| Field        | Value   |
|--------------|---------|
| Entrypoint   | 0x0002  |
| Data Size    | 1 bytes |
| Instructions | 1       |

```
      00 01 02 03 04 05 06 07  08 09 0A 0B 0C 0D 0E 0F
      -- -- -- -- -- -- -- --  -- -- -- -- -- -- -- --
0000:       00                                            .             
```

#### Opcodes

```
  0: 0x0002 [0x00] END_REQSTACK()
```

### Event 940

#### Metadata

| Field        | Value   |
|--------------|---------|
| Entrypoint   | 0x0003  |
| Data Size    | 1 bytes |
| Instructions | 1       |

```
      00 01 02 03 04 05 06 07  08 09 0A 0B 0C 0D 0E 0F
      -- -- -- -- -- -- -- --  -- -- -- -- -- -- -- --
0000:          00                                          .            
```

#### Opcodes

```
  0: 0x0003 [0x00] END_REQSTACK()
```

### Event 941

#### Metadata

| Field        | Value   |
|--------------|---------|
| Entrypoint   | 0x0004  |
| Data Size    | 1 bytes |
| Instructions | 1       |

```
      00 01 02 03 04 05 06 07  08 09 0A 0B 0C 0D 0E 0F
      -- -- -- -- -- -- -- --  -- -- -- -- -- -- -- --
0000:             00                                        .           
```

#### Opcodes

```
  0: 0x0004 [0x00] END_REQSTACK()
```

### Event 65535.1

#### Metadata

| Field        | Value    |
|--------------|----------|
| Entrypoint   | 0x0005   |
| Data Size    | 19 bytes |
| Instructions | 5        |

```
      00 01 02 03 04 05 06 07  08 09 0A 0B 0C 0D 0E 0F
      -- -- -- -- -- -- -- --  -- -- -- -- -- -- -- --
0000:                7B 5E 21  03 01 32 00 80 1F 00 01       {^!..2.....
0010: 80 02 80 03 80 1F 01 00                           ........        
```

#### Opcodes

```
  0: 0x0005 [0x7B] Rughadjeen (ID: 16982366/0x0103215E) stops talking
  1: 0x000A [0x32] ExtData[1]->MainSpeed = 40* * 0.1
  2: 0x000D [0x1F] MOVE_ENTITY: EventEntity moves to X=-62.537*, Z=27.864*, Y=-5.999*
  3: 0x0015 [0x1F] MOVE_ENTITY: Update entity position (mode=1)
  4: 0x0017 [0x00] END_REQSTACK()
```

### Event 65535.2

#### Metadata

| Field        | Value    |
|--------------|----------|
| Entrypoint   | 0x0018   |
| Data Size    | 33 bytes |
| Instructions | 7        |

```
      00 01 02 03 04 05 06 07  08 09 0A 0B 0C 0D 0E 0F
      -- -- -- -- -- -- -- --  -- -- -- -- -- -- -- --
0010:                          1E C7 20 03 01 37 04 80          .. ..7..
0020: 05 80 06 80 07 80 32 00  80 1F 00 08 80 09 80 03  ......2.........
0030: 80 1F 01 1E C7 20 03 01  00                       ..... ...       
```

#### Opcodes

```
  0: 0x0018 [0x1E] EventEntity looks at Ovjang (ID: 16982215/0x010320C7) and starts talking
  1: 0x001D [0x37] UPDATE_EVENT_POSITION_AND_DIR: x=-63.097*, z=46.792*, y=-6.000*, direction=254.9°*
  2: 0x0026 [0x32] ExtData[1]->MainSpeed = 40* * 0.1
  3: 0x0029 [0x1F] MOVE_ENTITY: EventEntity moves to X=-63.961*, Z=49.869*, Y=-5.999*
  4: 0x0031 [0x1F] MOVE_ENTITY: Update entity position (mode=1)
  5: 0x0033 [0x1E] EventEntity looks at Ovjang (ID: 16982215/0x010320C7) and starts talking
  6: 0x0038 [0x00] END_REQSTACK()
```

### Event 65535.3

#### Metadata

| Field        | Value    |
|--------------|----------|
| Entrypoint   | 0x0039   |
| Data Size    | 15 bytes |
| Instructions | 5        |

```
      00 01 02 03 04 05 06 07  08 09 0A 0B 0C 0D 0E 0F
      -- -- -- -- -- -- -- --  -- -- -- -- -- -- -- --
0030:                             32 00 80 1F 00 0A 80           2......
0040: 0B 80 06 80 1F 01 6F 00                           ......o.        
```

#### Opcodes

```
  0: 0x0039 [0x32] ExtData[1]->MainSpeed = 40* * 0.1
  1: 0x003C [0x1F] MOVE_ENTITY: EventEntity moves to X=-63.937*, Z=57.395*, Y=-6.000*
  2: 0x0044 [0x1F] MOVE_ENTITY: Update entity position (mode=1)
  3: 0x0046 [0x6F] WAIT_FRAME_DELAY: Yield until WaitTime reaches zero
  4: 0x0047 [0x00] END_REQSTACK()
```

### Event 65535.4

#### Metadata

| Field        | Value    |
|--------------|----------|
| Entrypoint   | 0x0048   |
| Data Size    | 20 bytes |
| Instructions | 6        |

```
      00 01 02 03 04 05 06 07  08 09 0A 0B 0C 0D 0E 0F
      -- -- -- -- -- -- -- --  -- -- -- -- -- -- -- --
0040:                          1E C8 20 03 01 32 00 80          .. ..2..
0050: 1F 00 0C 80 0D 80 03 80  1F 01 6F 00              ..........o.    
```

#### Opcodes

```
  0: 0x0048 [0x1E] EventEntity looks at Aphmau (ID: 16982216/0x010320C8) and starts talking
  1: 0x004D [0x32] ExtData[1]->MainSpeed = 40* * 0.1
  2: 0x0050 [0x1F] MOVE_ENTITY: EventEntity moves to X=-61.216*, Z=62.679*, Y=-5.999*
  3: 0x0058 [0x1F] MOVE_ENTITY: Update entity position (mode=1)
  4: 0x005A [0x6F] WAIT_FRAME_DELAY: Yield until WaitTime reaches zero
  5: 0x005B [0x00] END_REQSTACK()
```

### Event 65535.5

#### Metadata

| Field        | Value    |
|--------------|----------|
| Entrypoint   | 0x005C   |
| Data Size    | 14 bytes |
| Instructions | 4        |

```
      00 01 02 03 04 05 06 07  08 09 0A 0B 0C 0D 0E 0F
      -- -- -- -- -- -- -- --  -- -- -- -- -- -- -- --
0050:                                      32 0E 80 1F              2...
0060: 00 0F 80 10 80 06 80 1F  01 00                    ..........      
```

#### Opcodes

```
  0: 0x005C [0x32] ExtData[1]->MainSpeed = 13* * 0.1
  1: 0x005F [0x1F] MOVE_ENTITY: EventEntity moves to X=-62.760*, Z=31.743*, Y=-6.000*
  2: 0x0067 [0x1F] MOVE_ENTITY: Update entity position (mode=1)
  3: 0x0069 [0x00] END_REQSTACK()
```

### Event 65535.6

#### Metadata

| Field        | Value    |
|--------------|----------|
| Entrypoint   | 0x006A   |
| Data Size    | 20 bytes |
| Instructions | 6        |

```
      00 01 02 03 04 05 06 07  08 09 0A 0B 0C 0D 0E 0F
      -- -- -- -- -- -- -- --  -- -- -- -- -- -- -- --
0060:                                32 0E 80 1F 00 11            2.....
0070: 80 12 80 13 80 1F 01 6F  1E 6E 21 03 01 00        .......o.n!...  
```

#### Opcodes

```
  0: 0x006A [0x32] ExtData[1]->MainSpeed = 13* * 0.1
  1: 0x006D [0x1F] MOVE_ENTITY: EventEntity moves to X=-3.452*, Z=47.463*, Y=0.000*
  2: 0x0075 [0x1F] MOVE_ENTITY: Update entity position (mode=1)
  3: 0x0077 [0x6F] WAIT_FRAME_DELAY: Yield until WaitTime reaches zero
  4: 0x0078 [0x1E] EventEntity looks at Unnamed NPC (ID: 16982382/0x0103216E) and starts talking
  5: 0x007D [0x00] END_REQSTACK()
```

### Event 65535.7

#### Metadata

| Field        | Value   |
|--------------|---------|
| Entrypoint   | 0x007E  |
| Data Size    | 4 bytes |
| Instructions | 2       |

```
      00 01 02 03 04 05 06 07  08 09 0A 0B 0C 0D 0E 0F
      -- -- -- -- -- -- -- --  -- -- -- -- -- -- -- --
0070:                                            39 14                9.
0080: 80 00                                             ..              
```

#### Opcodes

```
  0: 0x007E [0x39] SET_ENTITY_DIRECTION(direction=19.0°*)
  1: 0x0081 [0x00] END_REQSTACK()
```

### Event 65535.8

#### Metadata

| Field        | Value    |
|--------------|----------|
| Entrypoint   | 0x0082   |
| Data Size    | 21 bytes |
| Instructions | 2        |

```
      00 01 02 03 04 05 06 07  08 09 0A 0B 0C 0D 0E 0F
      -- -- -- -- -- -- -- --  -- -- -- -- -- -- -- --
0080:       B6 0B 15 80 16 80  17 80 18 80 18 80 19 80    ..............
0090: 18 80 1A 80 13 80 00                              .......         
```

#### Opcodes

```
  0: 0x0082 [0xB6] ENTITY_APPEARANCE_HANDLER(case=Full entity look, race=3*, hair=7*, head=178*, body=171*, hands=171*, legs=174*, feet=171*, main=377*, sub=0*)
  1: 0x0096 [0x00] END_REQSTACK()
```

### Event 65535.9

#### Metadata

| Field        | Value    |
|--------------|----------|
| Entrypoint   | 0x0097   |
| Data Size    | 21 bytes |
| Instructions | 2        |

```
      00 01 02 03 04 05 06 07  08 09 0A 0B 0C 0D 0E 0F
      -- -- -- -- -- -- -- --  -- -- -- -- -- -- -- --
0090:                      B6  0B 15 80 16 80 17 80 18         .........
00A0: 80 18 80 19 80 18 80 1B  80 13 80 00              ............    
```

#### Opcodes

```
  0: 0x0097 [0xB6] ENTITY_APPEARANCE_HANDLER(case=Full entity look, race=3*, hair=7*, head=178*, body=171*, hands=171*, legs=174*, feet=171*, main=362*, sub=0*)
  1: 0x00AB [0x00] END_REQSTACK()
```

### Event 65535.10

#### Metadata

| Field        | Value    |
|--------------|----------|
| Entrypoint   | 0x00AC   |
| Data Size    | 14 bytes |
| Instructions | 4        |

```
      00 01 02 03 04 05 06 07  08 09 0A 0B 0C 0D 0E 0F
      -- -- -- -- -- -- -- --  -- -- -- -- -- -- -- --
00A0:                                      32 0E 80 1F              2...
00B0: 00 1C 80 1D 80 13 80 1F  01 00                    ..........      
```

#### Opcodes

```
  0: 0x00AC [0x32] ExtData[1]->MainSpeed = 13* * 0.1
  1: 0x00AF [0x1F] MOVE_ENTITY: EventEntity moves to X=-0.358*, Z=-19.882*, Y=0.000*
  2: 0x00B7 [0x1F] MOVE_ENTITY: Update entity position (mode=1)
  3: 0x00B9 [0x00] END_REQSTACK()
```

### Event 65535.11

#### Metadata

| Field        | Value    |
|--------------|----------|
| Entrypoint   | 0x00BA   |
| Data Size    | 15 bytes |
| Instructions | 5        |

```
      00 01 02 03 04 05 06 07  08 09 0A 0B 0C 0D 0E 0F
      -- -- -- -- -- -- -- --  -- -- -- -- -- -- -- --
00B0:                                32 0E 80 1F 00 1E            2.....
00C0: 80 1F 80 13 80 1F 01 6F  00                       .......o.       
```

#### Opcodes

```
  0: 0x00BA [0x32] ExtData[1]->MainSpeed = 13* * 0.1
  1: 0x00BD [0x1F] MOVE_ENTITY: EventEntity moves to X=-0.186*, Z=-10.557*, Y=0.000*
  2: 0x00C5 [0x1F] MOVE_ENTITY: Update entity position (mode=1)
  3: 0x00C7 [0x6F] WAIT_FRAME_DELAY: Yield until WaitTime reaches zero
  4: 0x00C8 [0x00] END_REQSTACK()
```

### Event 65535.12

#### Metadata

| Field        | Value    |
|--------------|----------|
| Entrypoint   | 0x00C9   |
| Data Size    | 14 bytes |
| Instructions | 4        |

```
      00 01 02 03 04 05 06 07  08 09 0A 0B 0C 0D 0E 0F
      -- -- -- -- -- -- -- --  -- -- -- -- -- -- -- --
00C0:                             32 0E 80 1F 00 20 80           2.... .
00D0: 21 80 22 80 1F 01 00                              !."....         
```

#### Opcodes

```
  0: 0x00C9 [0x32] ExtData[1]->MainSpeed = 13* * 0.1
  1: 0x00CC [0x1F] MOVE_ENTITY: EventEntity moves to X=134.499*, Z=1.359*, Y=-1.651*
  2: 0x00D4 [0x1F] MOVE_ENTITY: Update entity position (mode=1)
  3: 0x00D6 [0x00] END_REQSTACK()
```

### Event 65535.13

#### Metadata

| Field        | Value    |
|--------------|----------|
| Entrypoint   | 0x00D7   |
| Data Size    | 14 bytes |
| Instructions | 4        |

```
      00 01 02 03 04 05 06 07  08 09 0A 0B 0C 0D 0E 0F
      -- -- -- -- -- -- -- --  -- -- -- -- -- -- -- --
00D0:                      32  0E 80 1F 00 23 80 24 80         2....#.$.
00E0: 25 80 1F 01 00                                    %....           
```

#### Opcodes

```
  0: 0x00D7 [0x32] ExtData[1]->MainSpeed = 13* * 0.1
  1: 0x00DA [0x1F] MOVE_ENTITY: EventEntity moves to X=132.110*, Z=1.108*, Y=-1.051*
  2: 0x00E2 [0x1F] MOVE_ENTITY: Update entity position (mode=1)
  3: 0x00E4 [0x00] END_REQSTACK()
```

### Event 65535.14

#### Metadata

| Field        | Value   |
|--------------|---------|
| Entrypoint   | 0x00E5  |
| Data Size    | 4 bytes |
| Instructions | 2       |

```
      00 01 02 03 04 05 06 07  08 09 0A 0B 0C 0D 0E 0F
      -- -- -- -- -- -- -- --  -- -- -- -- -- -- -- --
00E0:                39 26 80  00                            9&..       
```

#### Opcodes

```
  0: 0x00E5 [0x39] SET_ENTITY_DIRECTION(direction=1.1°*)
  1: 0x00E8 [0x00] END_REQSTACK()
```

### Event 65535.15

#### Metadata

| Field        | Value    |
|--------------|----------|
| Entrypoint   | 0x00E9   |
| Data Size    | 14 bytes |
| Instructions | 4        |

```
      00 01 02 03 04 05 06 07  08 09 0A 0B 0C 0D 0E 0F
      -- -- -- -- -- -- -- --  -- -- -- -- -- -- -- --
00E0:                             32 00 80 1F 00 27 80           2....'.
00F0: 28 80 13 80 1F 01 00                              (......         
```

#### Opcodes

```
  0: 0x00E9 [0x32] ExtData[1]->MainSpeed = 40* * 0.1
  1: 0x00EC [0x1F] MOVE_ENTITY: EventEntity moves to X=-44.233*, Z=28.761*, Y=0.000*
  2: 0x00F4 [0x1F] MOVE_ENTITY: Update entity position (mode=1)
  3: 0x00F6 [0x00] END_REQSTACK()
```
