# 16982215 - Ovjang

## Common Data

| Field            | Value                          |
|------------------|--------------------------------|
| Zone             | Aht Urhgan Whitegate2 (ID: 50) |
| Block Size       | 3404 bytes                     |
| Total Events     | 164                            |
| References Count | 139                            |

## List of Events

| Event ID                      | Entrypoint   |   Size |   Instructions |
|-------------------------------|--------------|--------|----------------|
| [65535](#event-65535)         | 0x0000       |      1 |              1 |
| [65535.1](#event-65535-1)     | 0x0001       |      1 |              1 |
| [65535.2](#event-65535-2)     | 0x0002       |     18 |              4 |
| [65535.3](#event-65535-3)     | 0x0014       |     10 |              2 |
| [65535.4](#event-65535-4)     | 0x001E       |      9 |              3 |
| [65535.5](#event-65535-5)     | 0x0027       |      9 |              3 |
| [65535.6](#event-65535-6)     | 0x0030       |     10 |              2 |
| [65535.7](#event-65535-7)     | 0x003A       |     10 |              2 |
| [3052](#event-3052)           | 0x0044       |      1 |              1 |
| [65535.8](#event-65535-8)     | 0x0045       |     10 |              2 |
| [3070](#event-3070)           | 0x004F       |      1 |              1 |
| [65535.9](#event-65535-9)     | 0x0050       |     10 |              2 |
| [3078](#event-3078)           | 0x005A       |      1 |              1 |
| [65535.10](#event-65535-10)   | 0x005B       |     19 |              7 |
| [65535.11](#event-65535-11)   | 0x006E       |     15 |              5 |
| [65535.12](#event-65535-12)   | 0x007D       |     15 |              5 |
| [65535.13](#event-65535-13)   | 0x008C       |     10 |              2 |
| [65535.14](#event-65535-14)   | 0x0096       |     35 |             13 |
| [65535.15](#event-65535-15)   | 0x00B9       |     27 |              9 |
| [65535.16](#event-65535-16)   | 0x00D4       |     10 |              2 |
| [65535.17](#event-65535-17)   | 0x00DE       |     22 |              8 |
| [3090](#event-3090)           | 0x00F4       |      1 |              1 |
| [3092](#event-3092)           | 0x00F5       |      1 |              1 |
| [65535.18](#event-65535-18)   | 0x00F6       |     10 |              2 |
| [65535.19](#event-65535-19)   | 0x0100       |     12 |              3 |
| [65535.20](#event-65535-20)   | 0x010C       |     15 |              5 |
| [65535.21](#event-65535-21)   | 0x011B       |     25 |              7 |
| [65535.22](#event-65535-22)   | 0x0134       |      4 |              2 |
| [65535.23](#event-65535-23)   | 0x0138       |      4 |              2 |
| [65535.24](#event-65535-24)   | 0x013C       |     15 |              5 |
| [65535.25](#event-65535-25)   | 0x014B       |     31 |             10 |
| [65535.26](#event-65535-26)   | 0x016A       |     15 |              5 |
| [65535.27](#event-65535-27)   | 0x0179       |      3 |              2 |
| [823](#event-823)             | 0x017C       |      1 |              1 |
| [824](#event-824)             | 0x017D       |      1 |              1 |
| [940](#event-940)             | 0x017E       |      1 |              1 |
| [941](#event-941)             | 0x017F       |      1 |              1 |
| [825](#event-825)             | 0x0180       |      1 |              1 |
| [65535.28](#event-65535-28)   | 0x0181       |     15 |              5 |
| [65535.29](#event-65535-29)   | 0x0190       |      3 |              2 |
| [65535.30](#event-65535-30)   | 0x0193       |      3 |              2 |
| [3112](#event-3112)           | 0x0196       |      1 |              1 |
| [65535.31](#event-65535-31)   | 0x0197       |     14 |              4 |
| [65535.32](#event-65535-32)   | 0x01A5       |     22 |              6 |
| [3130](#event-3130)           | 0x01BB       |      3 |              2 |
| [3131](#event-3131)           | 0x01BE       |      1 |              1 |
| [3140](#event-3140)           | 0x01BF       |      7 |              2 |
| [65535.33](#event-65535-33)   | 0x01C6       |     22 |              6 |
| [65535.34](#event-65535-34)   | 0x01DC       |     22 |              6 |
| [3155](#event-3155)           | 0x01F2       |      1 |              1 |
| [3200](#event-3200)           | 0x01F3       |      1 |              1 |
| [65535.35](#event-65535-35)   | 0x01F4       |     44 |             10 |
| [3215](#event-3215)           | 0x0220       |      1 |              1 |
| [3216](#event-3216)           | 0x0221       |      1 |              1 |
| [926](#event-926)             | 0x0222       |      1 |              1 |
| [927](#event-927)             | 0x0223       |      1 |              1 |
| [928](#event-928)             | 0x0224       |      1 |              1 |
| [931](#event-931)             | 0x0225       |      1 |              1 |
| [933](#event-933)             | 0x0226       |      1 |              1 |
| [934](#event-934)             | 0x0227       |      1 |              1 |
| [935](#event-935)             | 0x0228       |      1 |              1 |
| [937](#event-937)             | 0x0229       |      1 |              1 |
| [938](#event-938)             | 0x022A       |      1 |              1 |
| [939](#event-939)             | 0x022B       |      1 |              1 |
| [943](#event-943)             | 0x022C       |      1 |              1 |
| [944](#event-944)             | 0x022D       |      1 |              1 |
| [945](#event-945)             | 0x022E       |      1 |              1 |
| [65535.36](#event-65535-36)   | 0x022F       |     28 |              8 |
| [65535.37](#event-65535-37)   | 0x024B       |     15 |              5 |
| [65535.38](#event-65535-38)   | 0x025A       |     30 |              8 |
| [65535.39](#event-65535-39)   | 0x0278       |     15 |              5 |
| [65535.40](#event-65535-40)   | 0x0287       |     14 |              4 |
| [65535.41](#event-65535-41)   | 0x0295       |     34 |              8 |
| [65535.42](#event-65535-42)   | 0x02B7       |     24 |              6 |
| [65535.43](#event-65535-43)   | 0x02CF       |     20 |              6 |
| [65535.44](#event-65535-44)   | 0x02E3       |     22 |              8 |
| [65535.45](#event-65535-45)   | 0x02F9       |     34 |              4 |
| [65535.46](#event-65535-46)   | 0x031B       |     44 |             10 |
| [65535.47](#event-65535-47)   | 0x0347       |     20 |              6 |
| [65535.48](#event-65535-48)   | 0x035B       |     25 |              7 |
| [65535.49](#event-65535-49)   | 0x0374       |     10 |              2 |
| [65535.50](#event-65535-50)   | 0x037E       |     10 |              2 |
| [65535.51](#event-65535-51)   | 0x0388       |     15 |              5 |
| [65535.52](#event-65535-52)   | 0x0397       |     26 |              8 |
| [65535.53](#event-65535-53)   | 0x03B1       |     19 |              5 |
| [961](#event-961)             | 0x03C4       |      1 |              1 |
| [962](#event-962)             | 0x03C5       |      1 |              1 |
| [65535.54](#event-65535-54)   | 0x03C6       |     15 |              5 |
| [65535.55](#event-65535-55)   | 0x03D5       |     25 |              3 |
| [65535.56](#event-65535-56)   | 0x03EE       |     25 |              3 |
| [65535.57](#event-65535-57)   | 0x0407       |     16 |              2 |
| [65535.58](#event-65535-58)   | 0x0417       |     14 |              2 |
| [65535.59](#event-65535-59)   | 0x0425       |     16 |              2 |
| [65535.60](#event-65535-60)   | 0x0435       |     14 |              2 |
| [65535.61](#event-65535-61)   | 0x0443       |     16 |              2 |
| [65535.62](#event-65535-62)   | 0x0453       |     14 |              2 |
| [65535.63](#event-65535-63)   | 0x0461       |     16 |              2 |
| [65535.64](#event-65535-64)   | 0x0471       |     14 |              2 |
| [65535.65](#event-65535-65)   | 0x047F       |     16 |              2 |
| [65535.66](#event-65535-66)   | 0x048F       |     14 |              2 |
| [65535.67](#event-65535-67)   | 0x049D       |     16 |              2 |
| [65535.68](#event-65535-68)   | 0x04AD       |     14 |              2 |
| [65535.69](#event-65535-69)   | 0x04BB       |     16 |              2 |
| [65535.70](#event-65535-70)   | 0x04CB       |     14 |              2 |
| [65535.71](#event-65535-71)   | 0x04D9       |     16 |              2 |
| [65535.72](#event-65535-72)   | 0x04E9       |     14 |              2 |
| [65535.73](#event-65535-73)   | 0x04F7       |     16 |              2 |
| [65535.74](#event-65535-74)   | 0x0507       |     14 |              2 |
| [65535.75](#event-65535-75)   | 0x0515       |     16 |              2 |
| [65535.76](#event-65535-76)   | 0x0525       |     14 |              2 |
| [65535.77](#event-65535-77)   | 0x0533       |      9 |              3 |
| [65535.78](#event-65535-78)   | 0x053C       |     16 |              2 |
| [65535.79](#event-65535-79)   | 0x054C       |     14 |              2 |
| [65535.80](#event-65535-80)   | 0x055A       |     16 |              2 |
| [65535.81](#event-65535-81)   | 0x056A       |     14 |              2 |
| [65535.82](#event-65535-82)   | 0x0578       |     16 |              2 |
| [65535.83](#event-65535-83)   | 0x0588       |     14 |              2 |
| [65535.84](#event-65535-84)   | 0x0596       |     16 |              2 |
| [65535.85](#event-65535-85)   | 0x05A6       |     14 |              2 |
| [65535.86](#event-65535-86)   | 0x05B4       |     44 |              4 |
| [65535.87](#event-65535-87)   | 0x05E0       |     14 |              2 |
| [65535.88](#event-65535-88)   | 0x05EE       |     16 |              2 |
| [65535.89](#event-65535-89)   | 0x05FE       |     14 |              2 |
| [65535.90](#event-65535-90)   | 0x060C       |     16 |              2 |
| [65535.91](#event-65535-91)   | 0x061C       |     14 |              2 |
| [65535.92](#event-65535-92)   | 0x062A       |     16 |              2 |
| [65535.93](#event-65535-93)   | 0x063A       |     14 |              2 |
| [65535.94](#event-65535-94)   | 0x0648       |     16 |              2 |
| [65535.95](#event-65535-95)   | 0x0658       |     14 |              2 |
| [65535.96](#event-65535-96)   | 0x0666       |     16 |              2 |
| [65535.97](#event-65535-97)   | 0x0676       |     14 |              2 |
| [65535.98](#event-65535-98)   | 0x0684       |     16 |              2 |
| [65535.99](#event-65535-99)   | 0x0694       |     14 |              2 |
| [65535.100](#event-65535-100) | 0x06A2       |     16 |              2 |
| [65535.101](#event-65535-101) | 0x06B2       |     14 |              2 |
| [65535.102](#event-65535-102) | 0x06C0       |     16 |              2 |
| [65535.103](#event-65535-103) | 0x06D0       |     14 |              2 |
| [65535.104](#event-65535-104) | 0x06DE       |     16 |              2 |
| [65535.105](#event-65535-105) | 0x06EE       |     14 |              2 |
| [65535.106](#event-65535-106) | 0x06FC       |     16 |              2 |
| [65535.107](#event-65535-107) | 0x070C       |     14 |              2 |
| [65535.108](#event-65535-108) | 0x071A       |     16 |              2 |
| [65535.109](#event-65535-109) | 0x072A       |     14 |              2 |
| [65535.110](#event-65535-110) | 0x0738       |     16 |              2 |
| [65535.111](#event-65535-111) | 0x0748       |     14 |              2 |
| [65535.112](#event-65535-112) | 0x0756       |     16 |              2 |
| [65535.113](#event-65535-113) | 0x0766       |     14 |              2 |
| [65535.114](#event-65535-114) | 0x0774       |     16 |              2 |
| [65535.115](#event-65535-115) | 0x0784       |     14 |              2 |
| [65535.116](#event-65535-116) | 0x0792       |     16 |              2 |
| [65535.117](#event-65535-117) | 0x07A2       |     14 |              2 |
| [65535.118](#event-65535-118) | 0x07B0       |     16 |              2 |
| [65535.119](#event-65535-119) | 0x07C0       |     14 |              2 |
| [65535.120](#event-65535-120) | 0x07CE       |     16 |              2 |
| [65535.121](#event-65535-121) | 0x07DE       |     14 |              2 |
| [65535.122](#event-65535-122) | 0x07EC       |     57 |              5 |
| [5092](#event-5092)           | 0x0825       |      1 |              1 |
| [65535.123](#event-65535-123) | 0x0826       |     17 |              5 |
| [65535.124](#event-65535-124) | 0x0837       |     27 |              7 |
| [166](#event-166)             | 0x0852       |      1 |              1 |
| [65535.125](#event-65535-125) | 0x0853       |     22 |              6 |
| [178](#event-178)             | 0x0869       |      7 |              2 |
| [179](#event-179)             | 0x0870       |      7 |              2 |
| [194](#event-194)             | 0x0877       |      7 |              2 |

## DAT References (imed_data)

|   Index | Hex Value   |   Dec Value |
|---------|-------------|-------------|
|       0 | 0x0000      |           0 |
|       1 | 0x0001      |           1 |
|       2 | 0x0080      |         128 |
|       3 | 0xFFFFF5F6  |  4294964726 |
|       4 | 0xBEF2      |       48882 |
|       5 | 0x0011      |          17 |
|       6 | 0x886C      |       34924 |
|       7 | 0xFFFF36D3  |  4294915795 |
|       8 | 0xFFFFE637  |  4294960695 |
|       9 | 0x0C00      |        3072 |
|      10 | 0x0026      |          38 |
|      11 | 0xFFFFFBBA  |  4294966202 |
|      12 | 0x8165      |       33125 |
|      13 | 0x000B      |          11 |
|      14 | 0x88C9      |       35017 |
|      15 | 0xFFFF4917  |  4294920471 |
|      16 | 0xFFFFE3DD  |  4294960093 |
|      17 | 0x889D      |       34973 |
|      18 | 0xFFFF33E9  |  4294915049 |
|      19 | 0xFFFFFA8A  |  4294965898 |
|      20 | 0xC7A7      |       51111 |
|      21 | 0x0400      |        1024 |
|      22 | 0x000F      |          15 |
|      23 | 0x000A      |          10 |
|      24 | 0xFFFFFD73  |  4294966643 |
|      25 | 0xBE71      |       48753 |
|      26 | 0xFFFFFBBD  |  4294966205 |
|      27 | 0xB604      |       46596 |
|      28 | 0x0028      |          40 |
|      29 | 0xFFFFEC08  |  4294962184 |
|      30 | 0xBAEA      |       47850 |
|      31 | 0xFFFFFB9C  |  4294966172 |
|      32 | 0xC085      |       49285 |
|      33 | 0x08F1      |        2289 |
|      34 | 0x11288     |       70280 |
|      35 | 0xFFFE16A3  |  4294842019 |
|      36 | 0xFFFFD8B4  |  4294957236 |
|      37 | 0x128CA     |       75978 |
|      38 | 0xFFFE300C  |  4294848524 |
|      39 | 0xFFFFE890  |  4294961296 |
|      40 | 0xFFFFFA93  |  4294965907 |
|      41 | 0xC345      |       49989 |
|      42 | 0xFFFFF893  |  4294965395 |
|      43 | 0xC49B      |       50331 |
|      44 | 0x02BC      |         700 |
|      45 | 0x0C9D      |        3229 |
|      46 | 0x127EC     |       75756 |
|      47 | 0xFFFE29C0  |  4294846912 |
|      48 | 0xFFFFE69C  |  4294960796 |
|      49 | 0x0019      |          25 |
|      50 | 0x1259F     |       75167 |
|      51 | 0xFFFE2E1F  |  4294848031 |
|      52 | 0x10FAD     |       69549 |
|      53 | 0xFFFE2B72  |  4294847346 |
|      54 | 0xFFFFD917  |  4294957335 |
|      55 | 0xCFB9      |       53177 |
|      56 | 0xFFFF0A03  |  4294904323 |
|      57 | 0xDF60      |       57184 |
|      58 | 0xFFFFE891  |  4294961297 |
|      59 | 0x000D      |          13 |
|      60 | 0x1339D     |       78749 |
|      61 | 0xBF01      |       48897 |
|      62 | 0x01E0      |         480 |
|      63 | 0x13ACB     |       80587 |
|      64 | 0x8A83      |       35459 |
|      65 | 0x001E      |          30 |
|      66 | 0x0382      |         898 |
|      67 | 0xC37E      |       50046 |
|      68 | 0xFFFFFC9E  |  4294966430 |
|      69 | 0xC342      |       49986 |
|      70 | 0x6A83      |       27267 |
|      71 | 0xFFFF49A6  |  4294920614 |
|      72 | 0xFFFFE184  |  4294959492 |
|      73 | 0x71E9      |       29161 |
|      74 | 0xFFFF481D  |  4294920221 |
|      75 | 0x84D0      |       34000 |
|      76 | 0xFFFF466A  |  4294919786 |
|      77 | 0x8526      |       34086 |
|      78 | 0xFFFF2C62  |  4294913122 |
|      79 | 0xFFFFE633  |  4294960691 |
|      80 | 0x000E      |          14 |
|      81 | 0x1464F     |       83535 |
|      82 | 0xBD70      |       48496 |
|      83 | 0x0514      |        1300 |
|      84 | 0x148C0     |       84160 |
|      85 | 0xBF28      |       48936 |
|      86 | 0x14827     |       84007 |
|      87 | 0xC19F      |       49567 |
|      88 | 0x1525A     |       86618 |
|      89 | 0xB7FB      |       47099 |
|      90 | 0x1538B     |       86923 |
|      91 | 0xB4BD      |       46269 |
|      92 | 0x01C9      |         457 |
|      93 | 0xFFFF7D79  |  4294933881 |
|      94 | 0x14ED0     |       85712 |
|      95 | 0xB32E      |       45870 |
|      96 | 0x14EE4     |       85732 |
|      97 | 0xB002      |       45058 |
|      98 | 0x15311     |       86801 |
|      99 | 0xA2D5      |       41685 |
|     100 | 0x0035      |          53 |
|     101 | 0xFFFF805A  |  4294934618 |
|     102 | 0x0061      |          97 |
|     103 | 0xFFFF8022  |  4294934562 |
|     104 | 0x01B6      |         438 |
|     105 | 0xB623      |       46627 |
|     106 | 0x035A      |         858 |
|     107 | 0x020D      |         525 |
|     108 | 0xBA91      |       47761 |
|     109 | 0x0353      |         851 |
|     110 | 0x0032      |          50 |
|     111 | 0x0568      |        1384 |
|     112 | 0xB401      |       46081 |
|     113 | 0x06B4      |        1716 |
|     114 | 0xB6E5      |       46821 |
|     115 | 0xFFFFFD82  |  4294966658 |
|     116 | 0xFFFFD804  |  4294957060 |
|     117 | 0xFFFFFD85  |  4294966661 |
|     118 | 0xFFFF8DE2  |  4294938082 |
|     119 | 0xFFF89806  |  4294481926 |
|     120 | 0x64E6E     |      413294 |
|     121 | 0xFFFFF060  |  4294963296 |
|     122 | 0x12A85     |       76421 |
|     123 | 0xC1C2      |       49602 |
|     124 | 0x0389      |         905 |
|     125 | 0x03A5      |         933 |
|     126 | 0x042D      |        1069 |
|     127 | 0x042C      |        1068 |
|     128 | 0x003C      |          60 |
|     129 | 0x038A      |         906 |
|     130 | 0x038B      |         907 |
|     131 | 0x0078      |         120 |
|     132 | 0xB651      |       46673 |
|     133 | 0x02C7      |         711 |
|     134 | 0xC100      |       49408 |
|     135 | 0xFFFFF768  |  4294965096 |
|     136 | 0x23AF9     |      146169 |
|     137 | 0x03D0      |         976 |
|     138 | 0xFFFFF830  |  4294965296 |

## Events

### Event 65535

#### Metadata

| Field        | Value   |
|--------------|---------|
| Entrypoint   | 0x0000  |
| Data Size    | 1 bytes |
| Instructions | 1       |

```
      00 01 02 03 04 05 06 07  08 09 0A 0B 0C 0D 0E 0F
      -- -- -- -- -- -- -- --  -- -- -- -- -- -- -- --
0000: 00                                                .               
```

#### Opcodes

```
  0: 0x0000 [0x00] END_REQSTACK()
```

### Event 65535.1

#### Metadata

| Field        | Value   |
|--------------|---------|
| Entrypoint   | 0x0001  |
| Data Size    | 1 bytes |
| Instructions | 1       |

```
      00 01 02 03 04 05 06 07  08 09 0A 0B 0C 0D 0E 0F
      -- -- -- -- -- -- -- --  -- -- -- -- -- -- -- --
0000:    00                                              .              
```

#### Opcodes

```
  0: 0x0001 [0x00] END_REQSTACK()
```

### Event 65535.2

#### Metadata

| Field        | Value    |
|--------------|----------|
| Entrypoint   | 0x0002   |
| Data Size    | 18 bytes |
| Instructions | 4        |

```
      00 01 02 03 04 05 06 07  08 09 0A 0B 0C 0D 0E 0F
      -- -- -- -- -- -- -- --  -- -- -- -- -- -- -- --
0000:       22 00 2F 00 F8 FF  FF 7F 6C F8 FF FF 7F 00    "./.....l.....
0010: 80 01 80 00                                       ....            
```

#### Opcodes

```
  0: 0x0002 [0x22] ENTITY_HIDE_FLAG(enabled=0x00)
  1: 0x0004 [0x2F] EventEntity->Render.Flags0 &= ~0x80000 // Bit 19
  2: 0x000A [0x6C] FADE_ENTITY_COLOR(entity_id=EventEntity, end_alpha=0*, fade_time=1*)
  3: 0x0013 [0x00] END_REQSTACK()
```

### Event 65535.3

#### Metadata

| Field        | Value    |
|--------------|----------|
| Entrypoint   | 0x0014   |
| Data Size    | 10 bytes |
| Instructions | 2        |

```
      00 01 02 03 04 05 06 07  08 09 0A 0B 0C 0D 0E 0F
      -- -- -- -- -- -- -- --  -- -- -- -- -- -- -- --
0010:             6C F8 FF FF  7F 02 80 01 80 00            l.........  
```

#### Opcodes

```
  0: 0x0014 [0x6C] FADE_ENTITY_COLOR(entity_id=EventEntity, end_alpha=128*, fade_time=1*)
  1: 0x001D [0x00] END_REQSTACK()
```

### Event 65535.4

#### Metadata

| Field        | Value   |
|--------------|---------|
| Entrypoint   | 0x001E  |
| Data Size    | 9 bytes |
| Instructions | 3       |

```
      00 01 02 03 04 05 06 07  08 09 0A 0B 0C 0D 0E 0F
      -- -- -- -- -- -- -- --  -- -- -- -- -- -- -- --
0010:                                            22 00                ".
0020: 2F 00 F8 FF FF 7F 00                              /......         
```

#### Opcodes

```
  0: 0x001E [0x22] ENTITY_HIDE_FLAG(enabled=0x00)
  1: 0x0020 [0x2F] EventEntity->Render.Flags0 &= ~0x80000 // Bit 19
  2: 0x0026 [0x00] END_REQSTACK()
```

### Event 65535.5

#### Metadata

| Field        | Value   |
|--------------|---------|
| Entrypoint   | 0x0027  |
| Data Size    | 9 bytes |
| Instructions | 3       |

```
      00 01 02 03 04 05 06 07  08 09 0A 0B 0C 0D 0E 0F
      -- -- -- -- -- -- -- --  -- -- -- -- -- -- -- --
0020:                      22  01 2F 01 F8 FF FF 7F 00         "./......
```

#### Opcodes

```
  0: 0x0027 [0x22] ENTITY_HIDE_FLAG(enabled=0x01)
  1: 0x0029 [0x2F] EventEntity->Render.Flags0 |= 0x80000 // Bit 19
  2: 0x002F [0x00] END_REQSTACK()
```

### Event 65535.6

#### Metadata

| Field        | Value    |
|--------------|----------|
| Entrypoint   | 0x0030   |
| Data Size    | 10 bytes |
| Instructions | 2        |

```
      00 01 02 03 04 05 06 07  08 09 0A 0B 0C 0D 0E 0F
      -- -- -- -- -- -- -- --  -- -- -- -- -- -- -- --
0030: 6C F8 FF FF 7F 00 80 01  80 00                    l.........      
```

#### Opcodes

```
  0: 0x0030 [0x6C] FADE_ENTITY_COLOR(entity_id=EventEntity, end_alpha=0*, fade_time=1*)
  1: 0x0039 [0x00] END_REQSTACK()
```

### Event 65535.7

#### Metadata

| Field        | Value    |
|--------------|----------|
| Entrypoint   | 0x003A   |
| Data Size    | 10 bytes |
| Instructions | 2        |

```
      00 01 02 03 04 05 06 07  08 09 0A 0B 0C 0D 0E 0F
      -- -- -- -- -- -- -- --  -- -- -- -- -- -- -- --
0030:                                6C F8 FF FF 7F 02            l.....
0040: 80 01 80 00                                       ....            
```

#### Opcodes

```
  0: 0x003A [0x6C] FADE_ENTITY_COLOR(entity_id=EventEntity, end_alpha=128*, fade_time=1*)
  1: 0x0043 [0x00] END_REQSTACK()
```

### Event 3052

#### Metadata

| Field        | Value   |
|--------------|---------|
| Entrypoint   | 0x0044  |
| Data Size    | 1 bytes |
| Instructions | 1       |

```
      00 01 02 03 04 05 06 07  08 09 0A 0B 0C 0D 0E 0F
      -- -- -- -- -- -- -- --  -- -- -- -- -- -- -- --
0040:             00                                        .           
```

#### Opcodes

```
  0: 0x0044 [0x00] END_REQSTACK()
```

### Event 65535.8

#### Metadata

| Field        | Value    |
|--------------|----------|
| Entrypoint   | 0x0045   |
| Data Size    | 10 bytes |
| Instructions | 2        |

```
      00 01 02 03 04 05 06 07  08 09 0A 0B 0C 0D 0E 0F
      -- -- -- -- -- -- -- --  -- -- -- -- -- -- -- --
0040:                37 03 80  04 80 00 80 05 80 00          7......... 
```

#### Opcodes

```
  0: 0x0045 [0x37] UPDATE_EVENT_POSITION_AND_DIR: x=-2.570*, z=48.882*, y=0.000*, direction=1.5°*
  1: 0x004E [0x00] END_REQSTACK()
```

### Event 3070

#### Metadata

| Field        | Value   |
|--------------|---------|
| Entrypoint   | 0x004F  |
| Data Size    | 1 bytes |
| Instructions | 1       |

```
      00 01 02 03 04 05 06 07  08 09 0A 0B 0C 0D 0E 0F
      -- -- -- -- -- -- -- --  -- -- -- -- -- -- -- --
0040:                                               00                 .
```

#### Opcodes

```
  0: 0x004F [0x00] END_REQSTACK()
```

### Event 65535.9

#### Metadata

| Field        | Value    |
|--------------|----------|
| Entrypoint   | 0x0050   |
| Data Size    | 10 bytes |
| Instructions | 2        |

```
      00 01 02 03 04 05 06 07  08 09 0A 0B 0C 0D 0E 0F
      -- -- -- -- -- -- -- --  -- -- -- -- -- -- -- --
0050: 37 06 80 07 80 08 80 09  80 00                    7.........      
```

#### Opcodes

```
  0: 0x0050 [0x37] UPDATE_EVENT_POSITION_AND_DIR: x=34.924*, z=-51.501*, y=-6.601*, direction=270.0°*
  1: 0x0059 [0x00] END_REQSTACK()
```

### Event 3078

#### Metadata

| Field        | Value   |
|--------------|---------|
| Entrypoint   | 0x005A  |
| Data Size    | 1 bytes |
| Instructions | 1       |

```
      00 01 02 03 04 05 06 07  08 09 0A 0B 0C 0D 0E 0F
      -- -- -- -- -- -- -- --  -- -- -- -- -- -- -- --
0050:                                00                           .     
```

#### Opcodes

```
  0: 0x005A [0x00] END_REQSTACK()
```

### Event 65535.10

#### Metadata

| Field        | Value    |
|--------------|----------|
| Entrypoint   | 0x005B   |
| Data Size    | 19 bytes |
| Instructions | 7        |

```
      00 01 02 03 04 05 06 07  08 09 0A 0B 0C 0D 0E 0F
      -- -- -- -- -- -- -- --  -- -- -- -- -- -- -- --
0050:                                   AB 08 32 0A 80             ..2..
0060: 1F 00 0B 80 0C 80 00 80  1F 01 6F AB 07 00        ..........o...  
```

#### Opcodes

```
  0: 0x005B [0xAB] EventEntity->Render.Flags2 |= 0x02 // Set bit 1
  1: 0x005D [0x32] ExtData[1]->MainSpeed = 38* * 0.1
  2: 0x0060 [0x1F] MOVE_ENTITY: EventEntity moves to X=-1.094*, Z=33.125*, Y=0.000*
  3: 0x0068 [0x1F] MOVE_ENTITY: Update entity position (mode=1)
  4: 0x006A [0x6F] WAIT_FRAME_DELAY: Yield until WaitTime reaches zero
  5: 0x006B [0xAB] EventEntity->Render.Flags2 |= 0x01 // Set bit 0
  6: 0x006D [0x00] END_REQSTACK()
```

### Event 65535.11

#### Metadata

| Field        | Value    |
|--------------|----------|
| Entrypoint   | 0x006E   |
| Data Size    | 15 bytes |
| Instructions | 5        |

```
      00 01 02 03 04 05 06 07  08 09 0A 0B 0C 0D 0E 0F
      -- -- -- -- -- -- -- --  -- -- -- -- -- -- -- --
0060:                                            32 0D                2.
0070: 80 1F 00 0E 80 0F 80 10  80 1F 01 6F 00           ...........o.   
```

#### Opcodes

```
  0: 0x006E [0x32] ExtData[1]->MainSpeed = 11* * 0.1
  1: 0x0071 [0x1F] MOVE_ENTITY: EventEntity moves to X=35.017*, Z=-46.825*, Y=-7.203*
  2: 0x0079 [0x1F] MOVE_ENTITY: Update entity position (mode=1)
  3: 0x007B [0x6F] WAIT_FRAME_DELAY: Yield until WaitTime reaches zero
  4: 0x007C [0x00] END_REQSTACK()
```

### Event 65535.12

#### Metadata

| Field        | Value    |
|--------------|----------|
| Entrypoint   | 0x007D   |
| Data Size    | 15 bytes |
| Instructions | 5        |

```
      00 01 02 03 04 05 06 07  08 09 0A 0B 0C 0D 0E 0F
      -- -- -- -- -- -- -- --  -- -- -- -- -- -- -- --
0070:                                         32 0D 80               2..
0080: 1F 00 11 80 12 80 08 80  1F 01 6F 00              ..........o.    
```

#### Opcodes

```
  0: 0x007D [0x32] ExtData[1]->MainSpeed = 11* * 0.1
  1: 0x0080 [0x1F] MOVE_ENTITY: EventEntity moves to X=34.973*, Z=-52.247*, Y=-6.601*
  2: 0x0088 [0x1F] MOVE_ENTITY: Update entity position (mode=1)
  3: 0x008A [0x6F] WAIT_FRAME_DELAY: Yield until WaitTime reaches zero
  4: 0x008B [0x00] END_REQSTACK()
```

### Event 65535.13

#### Metadata

| Field        | Value    |
|--------------|----------|
| Entrypoint   | 0x008C   |
| Data Size    | 10 bytes |
| Instructions | 2        |

```
      00 01 02 03 04 05 06 07  08 09 0A 0B 0C 0D 0E 0F
      -- -- -- -- -- -- -- --  -- -- -- -- -- -- -- --
0080:                                      37 13 80 14              7...
0090: 80 00 80 15 80 00                                 ......          
```

#### Opcodes

```
  0: 0x008C [0x37] UPDATE_EVENT_POSITION_AND_DIR: x=-1.398*, z=51.111*, y=0.000*, direction=90.0°*
  1: 0x0095 [0x00] END_REQSTACK()
```

### Event 65535.14

#### Metadata

| Field        | Value    |
|--------------|----------|
| Entrypoint   | 0x0096   |
| Data Size    | 35 bytes |
| Instructions | 13       |

```
      00 01 02 03 04 05 06 07  08 09 0A 0B 0C 0D 0E 0F
      -- -- -- -- -- -- -- --  -- -- -- -- -- -- -- --
0090:                   1E F0  FF FF 7F 6F 70 1C 16 80        .....op...
00A0: 32 17 80 1F 00 18 80 19  80 00 80 1F 01 6F 1C 16  2............o..
00B0: 80 1E F0 FF FF 7F 6F 70  00                       ......op.       
```

#### Opcodes

```
  0: 0x0096 [0x1E] EventEntity looks at LocalPlayer and starts talking
  1: 0x009B [0x6F] WAIT_FRAME_DELAY: Yield until WaitTime reaches zero
  2: 0x009C [0x70] WAIT_ENTITY_RENDER_FLAG: Wait while EventEntity->Render.Flags3 bit 2 is set (cancel turn if not)
  3: 0x009D [0x1C] WAIT(15* ticks)
  4: 0x00A0 [0x32] ExtData[1]->MainSpeed = 10* * 0.1
  5: 0x00A3 [0x1F] MOVE_ENTITY: EventEntity moves to X=-0.653*, Z=48.753*, Y=0.000*
  6: 0x00AB [0x1F] MOVE_ENTITY: Update entity position (mode=1)
  7: 0x00AD [0x6F] WAIT_FRAME_DELAY: Yield until WaitTime reaches zero
  8: 0x00AE [0x1C] WAIT(15* ticks)
  9: 0x00B1 [0x1E] EventEntity looks at LocalPlayer and starts talking
 10: 0x00B6 [0x6F] WAIT_FRAME_DELAY: Yield until WaitTime reaches zero
 11: 0x00B7 [0x70] WAIT_ENTITY_RENDER_FLAG: Wait while EventEntity->Render.Flags3 bit 2 is set (cancel turn if not)
 12: 0x00B8 [0x00] END_REQSTACK()
```

### Event 65535.15

#### Metadata

| Field        | Value    |
|--------------|----------|
| Entrypoint   | 0x00B9   |
| Data Size    | 27 bytes |
| Instructions | 9        |

```
      00 01 02 03 04 05 06 07  08 09 0A 0B 0C 0D 0E 0F
      -- -- -- -- -- -- -- --  -- -- -- -- -- -- -- --
00B0:                             32 0D 80 1F 00 13 80           2......
00C0: 14 80 00 80 1F 01 6F 1C  16 80 4B F8 FF FF 7F 15  ......o...K.....
00D0: 80 6F 70 00                                       .op.            
```

#### Opcodes

```
  0: 0x00B9 [0x32] ExtData[1]->MainSpeed = 11* * 0.1
  1: 0x00BC [0x1F] MOVE_ENTITY: EventEntity moves to X=-1.398*, Z=51.111*, Y=0.000*
  2: 0x00C4 [0x1F] MOVE_ENTITY: Update entity position (mode=1)
  3: 0x00C6 [0x6F] WAIT_FRAME_DELAY: Yield until WaitTime reaches zero
  4: 0x00C7 [0x1C] WAIT(15* ticks)
  5: 0x00CA [0x4B] UPDATE_ENTITY_YAW(entity=EventEntity, yaw=5.6°*)
  6: 0x00D1 [0x6F] WAIT_FRAME_DELAY: Yield until WaitTime reaches zero
  7: 0x00D2 [0x70] WAIT_ENTITY_RENDER_FLAG: Wait while EventEntity->Render.Flags3 bit 2 is set (cancel turn if not)
  8: 0x00D3 [0x00] END_REQSTACK()
```

### Event 65535.16

#### Metadata

| Field        | Value    |
|--------------|----------|
| Entrypoint   | 0x00D4   |
| Data Size    | 10 bytes |
| Instructions | 2        |

```
      00 01 02 03 04 05 06 07  08 09 0A 0B 0C 0D 0E 0F
      -- -- -- -- -- -- -- --  -- -- -- -- -- -- -- --
00D0:             37 1A 80 1B  80 00 80 09 80 00            7.........  
```

#### Opcodes

```
  0: 0x00D4 [0x37] UPDATE_EVENT_POSITION_AND_DIR: x=-1.091*, z=46.596*, y=0.000*, direction=270.0°*
  1: 0x00DD [0x00] END_REQSTACK()
```

### Event 65535.17

#### Metadata

| Field        | Value    |
|--------------|----------|
| Entrypoint   | 0x00DE   |
| Data Size    | 22 bytes |
| Instructions | 8        |

```
      00 01 02 03 04 05 06 07  08 09 0A 0B 0C 0D 0E 0F
      -- -- -- -- -- -- -- --  -- -- -- -- -- -- -- --
00D0:                                            32 1C                2.
00E0: 80 1F 00 1D 80 1E 80 00  80 1F 01 6F 1E A9 20 03  ...........o.. .
00F0: 01 6F 70 00                                       .op.            
```

#### Opcodes

```
  0: 0x00DE [0x32] ExtData[1]->MainSpeed = 40* * 0.1
  1: 0x00E1 [0x1F] MOVE_ENTITY: EventEntity moves to X=-5.112*, Z=47.850*, Y=0.000*
  2: 0x00E9 [0x1F] MOVE_ENTITY: Update entity position (mode=1)
  3: 0x00EB [0x6F] WAIT_FRAME_DELAY: Yield until WaitTime reaches zero
  4: 0x00EC [0x1E] EventEntity looks at Razfahd (ID: 16982185/0x010320A9) and starts talking
  5: 0x00F1 [0x6F] WAIT_FRAME_DELAY: Yield until WaitTime reaches zero
  6: 0x00F2 [0x70] WAIT_ENTITY_RENDER_FLAG: Wait while EventEntity->Render.Flags3 bit 2 is set (cancel turn if not)
  7: 0x00F3 [0x00] END_REQSTACK()
```

### Event 3090

#### Metadata

| Field        | Value   |
|--------------|---------|
| Entrypoint   | 0x00F4  |
| Data Size    | 1 bytes |
| Instructions | 1       |

```
      00 01 02 03 04 05 06 07  08 09 0A 0B 0C 0D 0E 0F
      -- -- -- -- -- -- -- --  -- -- -- -- -- -- -- --
00F0:             00                                        .           
```

#### Opcodes

```
  0: 0x00F4 [0x00] END_REQSTACK()
```

### Event 3092

#### Metadata

| Field        | Value   |
|--------------|---------|
| Entrypoint   | 0x00F5  |
| Data Size    | 1 bytes |
| Instructions | 1       |

```
      00 01 02 03 04 05 06 07  08 09 0A 0B 0C 0D 0E 0F
      -- -- -- -- -- -- -- --  -- -- -- -- -- -- -- --
00F0:                00                                      .          
```

#### Opcodes

```
  0: 0x00F5 [0x00] END_REQSTACK()
```

### Event 65535.18

#### Metadata

| Field        | Value    |
|--------------|----------|
| Entrypoint   | 0x00F6   |
| Data Size    | 10 bytes |
| Instructions | 2        |

```
      00 01 02 03 04 05 06 07  08 09 0A 0B 0C 0D 0E 0F
      -- -- -- -- -- -- -- --  -- -- -- -- -- -- -- --
00F0:                   37 1F  80 20 80 00 80 21 80 00        7.. ...!..
```

#### Opcodes

```
  0: 0x00F6 [0x37] UPDATE_EVENT_POSITION_AND_DIR: x=-1.124*, z=49.285*, y=0.000*, direction=201.2°*
  1: 0x00FF [0x00] END_REQSTACK()
```

### Event 65535.19

#### Metadata

| Field        | Value    |
|--------------|----------|
| Entrypoint   | 0x0100   |
| Data Size    | 12 bytes |
| Instructions | 3        |

```
      00 01 02 03 04 05 06 07  08 09 0A 0B 0C 0D 0E 0F
      -- -- -- -- -- -- -- --  -- -- -- -- -- -- -- --
0100: 33 01 37 22 80 23 80 24  80 00 80 00              3.7".#.$....    
```

#### Opcodes

```
  0: 0x0100 [0x33] EventEntity->Render.Flags0 |= 0x200000 // Bit 21 (flag=0x01)
  1: 0x0102 [0x37] UPDATE_EVENT_POSITION_AND_DIR: x=70.280*, z=-125.277*, y=-10.060*, direction=0.0°*
  2: 0x010B [0x00] END_REQSTACK()
```

### Event 65535.20

#### Metadata

| Field        | Value    |
|--------------|----------|
| Entrypoint   | 0x010C   |
| Data Size    | 15 bytes |
| Instructions | 5        |

```
      00 01 02 03 04 05 06 07  08 09 0A 0B 0C 0D 0E 0F
      -- -- -- -- -- -- -- --  -- -- -- -- -- -- -- --
0100:                                      32 0D 80 1F              2...
0110: 00 25 80 26 80 27 80 1F  01 6F 00                 .%.&.'...o.     
```

#### Opcodes

```
  0: 0x010C [0x32] ExtData[1]->MainSpeed = 11* * 0.1
  1: 0x010F [0x1F] MOVE_ENTITY: EventEntity moves to X=75.978*, Z=-118.772*, Y=-6.000*
  2: 0x0117 [0x1F] MOVE_ENTITY: Update entity position (mode=1)
  3: 0x0119 [0x6F] WAIT_FRAME_DELAY: Yield until WaitTime reaches zero
  4: 0x011A [0x00] END_REQSTACK()
```

### Event 65535.21

#### Metadata

| Field        | Value    |
|--------------|----------|
| Entrypoint   | 0x011B   |
| Data Size    | 25 bytes |
| Instructions | 7        |

```
      00 01 02 03 04 05 06 07  08 09 0A 0B 0C 0D 0E 0F
      -- -- -- -- -- -- -- --  -- -- -- -- -- -- -- --
0110:                                   32 0D 80 1F 00             2....
0120: 28 80 29 80 00 80 1F 01  1F 00 2A 80 2B 80 00 80  (.).......*.+...
0130: 1F 01 6F 00                                       ..o.            
```

#### Opcodes

```
  0: 0x011B [0x32] ExtData[1]->MainSpeed = 11* * 0.1
  1: 0x011E [0x1F] MOVE_ENTITY: EventEntity moves to X=-1.389*, Z=49.989*, Y=0.000*
  2: 0x0126 [0x1F] MOVE_ENTITY: Update entity position (mode=1)
  3: 0x0128 [0x1F] MOVE_ENTITY: EventEntity moves to X=-1.901*, Z=50.331*, Y=0.000*
  4: 0x0130 [0x1F] MOVE_ENTITY: Update entity position (mode=1)
  5: 0x0132 [0x6F] WAIT_FRAME_DELAY: Yield until WaitTime reaches zero
  6: 0x0133 [0x00] END_REQSTACK()
```

### Event 65535.22

#### Metadata

| Field        | Value   |
|--------------|---------|
| Entrypoint   | 0x0134  |
| Data Size    | 4 bytes |
| Instructions | 2       |

```
      00 01 02 03 04 05 06 07  08 09 0A 0B 0C 0D 0E 0F
      -- -- -- -- -- -- -- --  -- -- -- -- -- -- -- --
0130:             39 2C 80 00                               9,..        
```

#### Opcodes

```
  0: 0x0134 [0x39] SET_ENTITY_DIRECTION(direction=3.8°*)
  1: 0x0137 [0x00] END_REQSTACK()
```

### Event 65535.23

#### Metadata

| Field        | Value   |
|--------------|---------|
| Entrypoint   | 0x0138  |
| Data Size    | 4 bytes |
| Instructions | 2       |

```
      00 01 02 03 04 05 06 07  08 09 0A 0B 0C 0D 0E 0F
      -- -- -- -- -- -- -- --  -- -- -- -- -- -- -- --
0130:                          39 2D 80 00                      9-..    
```

#### Opcodes

```
  0: 0x0138 [0x39] SET_ENTITY_DIRECTION(direction=17.7°*)
  1: 0x013B [0x00] END_REQSTACK()
```

### Event 65535.24

#### Metadata

| Field        | Value    |
|--------------|----------|
| Entrypoint   | 0x013C   |
| Data Size    | 15 bytes |
| Instructions | 5        |

```
      00 01 02 03 04 05 06 07  08 09 0A 0B 0C 0D 0E 0F
      -- -- -- -- -- -- -- --  -- -- -- -- -- -- -- --
0130:                                      32 0D 80 1F              2...
0140: 00 2E 80 2F 80 30 80 1F  01 6F 00                 .../.0...o.     
```

#### Opcodes

```
  0: 0x013C [0x32] ExtData[1]->MainSpeed = 11* * 0.1
  1: 0x013F [0x1F] MOVE_ENTITY: EventEntity moves to X=75.756*, Z=-120.384*, Y=-6.500*
  2: 0x0147 [0x1F] MOVE_ENTITY: Update entity position (mode=1)
  3: 0x0149 [0x6F] WAIT_FRAME_DELAY: Yield until WaitTime reaches zero
  4: 0x014A [0x00] END_REQSTACK()
```

### Event 65535.25

#### Metadata

| Field        | Value    |
|--------------|----------|
| Entrypoint   | 0x014B   |
| Data Size    | 31 bytes |
| Instructions | 10       |

```
      00 01 02 03 04 05 06 07  08 09 0A 0B 0C 0D 0E 0F
      -- -- -- -- -- -- -- --  -- -- -- -- -- -- -- --
0140:                                   61 00 1C 31 80             a..1.
0150: 32 0A 80 1F 00 32 80 33  80 30 80 1F 01 6F 1F 00  2....2.3.0...o..
0160: 34 80 35 80 30 80 1F 01  6F 00                    4.5.0...o.      
```

#### Opcodes

```
  0: 0x014B [0x61] EventEntity->Render.Flags2 &= ~0x00000001
  1: 0x014D [0x1C] WAIT(25* ticks)
  2: 0x0150 [0x32] ExtData[1]->MainSpeed = 38* * 0.1
  3: 0x0153 [0x1F] MOVE_ENTITY: EventEntity moves to X=75.167*, Z=-119.265*, Y=-6.500*
  4: 0x015B [0x1F] MOVE_ENTITY: Update entity position (mode=1)
  5: 0x015D [0x6F] WAIT_FRAME_DELAY: Yield until WaitTime reaches zero
  6: 0x015E [0x1F] MOVE_ENTITY: EventEntity moves to X=69.549*, Z=-119.950*, Y=-6.500*
  7: 0x0166 [0x1F] MOVE_ENTITY: Update entity position (mode=1)
  8: 0x0168 [0x6F] WAIT_FRAME_DELAY: Yield until WaitTime reaches zero
  9: 0x0169 [0x00] END_REQSTACK()
```

### Event 65535.26

#### Metadata

| Field        | Value    |
|--------------|----------|
| Entrypoint   | 0x016A   |
| Data Size    | 15 bytes |
| Instructions | 5        |

```
      00 01 02 03 04 05 06 07  08 09 0A 0B 0C 0D 0E 0F
      -- -- -- -- -- -- -- --  -- -- -- -- -- -- -- --
0160:                                32 1C 80 1F 00 36            2....6
0170: 80 37 80 00 80 1F 01 6F  00                       .7.....o.       
```

#### Opcodes

```
  0: 0x016A [0x32] ExtData[1]->MainSpeed = 40* * 0.1
  1: 0x016D [0x1F] MOVE_ENTITY: EventEntity moves to X=-9.961*, Z=53.177*, Y=0.000*
  2: 0x0175 [0x1F] MOVE_ENTITY: Update entity position (mode=1)
  3: 0x0177 [0x6F] WAIT_FRAME_DELAY: Yield until WaitTime reaches zero
  4: 0x0178 [0x00] END_REQSTACK()
```

### Event 65535.27

#### Metadata

| Field        | Value   |
|--------------|---------|
| Entrypoint   | 0x0179  |
| Data Size    | 3 bytes |
| Instructions | 2       |

```
      00 01 02 03 04 05 06 07  08 09 0A 0B 0C 0D 0E 0F
      -- -- -- -- -- -- -- --  -- -- -- -- -- -- -- --
0170:                             61 01 00                       a..    
```

#### Opcodes

```
  0: 0x0179 [0x61] EventEntity->Render.Flags2 |= 0x00000001
  1: 0x017B [0x00] END_REQSTACK()
```

### Event 823

#### Metadata

| Field        | Value   |
|--------------|---------|
| Entrypoint   | 0x017C  |
| Data Size    | 1 bytes |
| Instructions | 1       |

```
      00 01 02 03 04 05 06 07  08 09 0A 0B 0C 0D 0E 0F
      -- -- -- -- -- -- -- --  -- -- -- -- -- -- -- --
0170:                                      00                       .   
```

#### Opcodes

```
  0: 0x017C [0x00] END_REQSTACK()
```

### Event 824

#### Metadata

| Field        | Value   |
|--------------|---------|
| Entrypoint   | 0x017D  |
| Data Size    | 1 bytes |
| Instructions | 1       |

```
      00 01 02 03 04 05 06 07  08 09 0A 0B 0C 0D 0E 0F
      -- -- -- -- -- -- -- --  -- -- -- -- -- -- -- --
0170:                                         00                     .  
```

#### Opcodes

```
  0: 0x017D [0x00] END_REQSTACK()
```

### Event 940

#### Metadata

| Field        | Value   |
|--------------|---------|
| Entrypoint   | 0x017E  |
| Data Size    | 1 bytes |
| Instructions | 1       |

```
      00 01 02 03 04 05 06 07  08 09 0A 0B 0C 0D 0E 0F
      -- -- -- -- -- -- -- --  -- -- -- -- -- -- -- --
0170:                                            00                   . 
```

#### Opcodes

```
  0: 0x017E [0x00] END_REQSTACK()
```

### Event 941

#### Metadata

| Field        | Value   |
|--------------|---------|
| Entrypoint   | 0x017F  |
| Data Size    | 1 bytes |
| Instructions | 1       |

```
      00 01 02 03 04 05 06 07  08 09 0A 0B 0C 0D 0E 0F
      -- -- -- -- -- -- -- --  -- -- -- -- -- -- -- --
0170:                                               00                 .
```

#### Opcodes

```
  0: 0x017F [0x00] END_REQSTACK()
```

### Event 825

#### Metadata

| Field        | Value   |
|--------------|---------|
| Entrypoint   | 0x0180  |
| Data Size    | 1 bytes |
| Instructions | 1       |

```
      00 01 02 03 04 05 06 07  08 09 0A 0B 0C 0D 0E 0F
      -- -- -- -- -- -- -- --  -- -- -- -- -- -- -- --
0180: 00                                                .               
```

#### Opcodes

```
  0: 0x0180 [0x00] END_REQSTACK()
```

### Event 65535.28

#### Metadata

| Field        | Value    |
|--------------|----------|
| Entrypoint   | 0x0181   |
| Data Size    | 15 bytes |
| Instructions | 5        |

```
      00 01 02 03 04 05 06 07  08 09 0A 0B 0C 0D 0E 0F
      -- -- -- -- -- -- -- --  -- -- -- -- -- -- -- --
0180:    32 1C 80 1F 00 38 80  39 80 3A 80 1F 01 6F 00   2....8.9.:...o.
```

#### Opcodes

```
  0: 0x0181 [0x32] ExtData[1]->MainSpeed = 40* * 0.1
  1: 0x0184 [0x1F] MOVE_ENTITY: EventEntity moves to X=-62.973*, Z=57.184*, Y=-5.999*
  2: 0x018C [0x1F] MOVE_ENTITY: Update entity position (mode=1)
  3: 0x018E [0x6F] WAIT_FRAME_DELAY: Yield until WaitTime reaches zero
  4: 0x018F [0x00] END_REQSTACK()
```

### Event 65535.29

#### Metadata

| Field        | Value   |
|--------------|---------|
| Entrypoint   | 0x0190  |
| Data Size    | 3 bytes |
| Instructions | 2       |

```
      00 01 02 03 04 05 06 07  08 09 0A 0B 0C 0D 0E 0F
      -- -- -- -- -- -- -- --  -- -- -- -- -- -- -- --
0190: AB 08 00                                          ...             
```

#### Opcodes

```
  0: 0x0190 [0xAB] EventEntity->Render.Flags2 |= 0x02 // Set bit 1
  1: 0x0192 [0x00] END_REQSTACK()
```

### Event 65535.30

#### Metadata

| Field        | Value   |
|--------------|---------|
| Entrypoint   | 0x0193  |
| Data Size    | 3 bytes |
| Instructions | 2       |

```
      00 01 02 03 04 05 06 07  08 09 0A 0B 0C 0D 0E 0F
      -- -- -- -- -- -- -- --  -- -- -- -- -- -- -- --
0190:          AB 07 00                                    ...          
```

#### Opcodes

```
  0: 0x0193 [0xAB] EventEntity->Render.Flags2 |= 0x01 // Set bit 0
  1: 0x0195 [0x00] END_REQSTACK()
```

### Event 3112

#### Metadata

| Field        | Value   |
|--------------|---------|
| Entrypoint   | 0x0196  |
| Data Size    | 1 bytes |
| Instructions | 1       |

```
      00 01 02 03 04 05 06 07  08 09 0A 0B 0C 0D 0E 0F
      -- -- -- -- -- -- -- --  -- -- -- -- -- -- -- --
0190:                   00                                    .         
```

#### Opcodes

```
  0: 0x0196 [0x00] END_REQSTACK()
```

### Event 65535.31

#### Metadata

| Field        | Value    |
|--------------|----------|
| Entrypoint   | 0x0197   |
| Data Size    | 14 bytes |
| Instructions | 4        |

```
      00 01 02 03 04 05 06 07  08 09 0A 0B 0C 0D 0E 0F
      -- -- -- -- -- -- -- --  -- -- -- -- -- -- -- --
0190:                      32  3B 80 1F 00 3C 80 3D 80         2;...<.=.
01A0: 3E 80 1F 01 00                                    >....           
```

#### Opcodes

```
  0: 0x0197 [0x32] ExtData[1]->MainSpeed = 13* * 0.1
  1: 0x019A [0x1F] MOVE_ENTITY: EventEntity moves to X=78.749*, Z=48.897*, Y=0.480*
  2: 0x01A2 [0x1F] MOVE_ENTITY: Update entity position (mode=1)
  3: 0x01A4 [0x00] END_REQSTACK()
```

### Event 65535.32

#### Metadata

| Field        | Value    |
|--------------|----------|
| Entrypoint   | 0x01A5   |
| Data Size    | 22 bytes |
| Instructions | 6        |

```
      00 01 02 03 04 05 06 07  08 09 0A 0B 0C 0D 0E 0F
      -- -- -- -- -- -- -- --  -- -- -- -- -- -- -- --
01A0:                32 3B 80  1F 00 3F 80 40 80 3E 80       2;...?.@.>.
01B0: 1F 01 1E A9 20 03 01 1C  41 80 00                 .... ...A..     
```

#### Opcodes

```
  0: 0x01A5 [0x32] ExtData[1]->MainSpeed = 13* * 0.1
  1: 0x01A8 [0x1F] MOVE_ENTITY: EventEntity moves to X=80.587*, Z=35.459*, Y=0.480*
  2: 0x01B0 [0x1F] MOVE_ENTITY: Update entity position (mode=1)
  3: 0x01B2 [0x1E] EventEntity looks at Razfahd (ID: 16982185/0x010320A9) and starts talking
  4: 0x01B7 [0x1C] WAIT(30* ticks)
  5: 0x01BA [0x00] END_REQSTACK()
```

### Event 3130

#### Metadata

| Field        | Value   |
|--------------|---------|
| Entrypoint   | 0x01BB  |
| Data Size    | 3 bytes |
| Instructions | 2       |

```
      00 01 02 03 04 05 06 07  08 09 0A 0B 0C 0D 0E 0F
      -- -- -- -- -- -- -- --  -- -- -- -- -- -- -- --
01B0:                                   A4 01 00                   ...  
```

#### Opcodes

```
  0: 0x01BB [0xA4] EventEntity->Flags3.unknown_3_2 = 1
  1: 0x01BD [0x00] END_REQSTACK()
```

### Event 3131

#### Metadata

| Field        | Value   |
|--------------|---------|
| Entrypoint   | 0x01BE  |
| Data Size    | 1 bytes |
| Instructions | 1       |

```
      00 01 02 03 04 05 06 07  08 09 0A 0B 0C 0D 0E 0F
      -- -- -- -- -- -- -- --  -- -- -- -- -- -- -- --
01B0:                                            00                   . 
```

#### Opcodes

```
  0: 0x01BE [0x00] END_REQSTACK()
```

### Event 3140

#### Metadata

| Field        | Value   |
|--------------|---------|
| Entrypoint   | 0x01BF  |
| Data Size    | 7 bytes |
| Instructions | 2       |

```
      00 01 02 03 04 05 06 07  08 09 0A 0B 0C 0D 0E 0F
      -- -- -- -- -- -- -- --  -- -- -- -- -- -- -- --
01B0:                                               92                 .
01C0: 01 F8 FF FF 7F 00                                 ......          
```

#### Opcodes

```
  0: 0x01BF [0x92] EventEntity->Render.Flags3 ^= 0x01
  1: 0x01C5 [0x00] END_REQSTACK()
```

### Event 65535.33

#### Metadata

| Field        | Value    |
|--------------|----------|
| Entrypoint   | 0x01C6   |
| Data Size    | 22 bytes |
| Instructions | 6        |

```
      00 01 02 03 04 05 06 07  08 09 0A 0B 0C 0D 0E 0F
      -- -- -- -- -- -- -- --  -- -- -- -- -- -- -- --
01C0:                   32 3B  80 1F 00 42 80 43 80 00        2;...B.C..
01D0: 80 1F 01 1E F0 FF FF 7F  1C 41 80 00              .........A..    
```

#### Opcodes

```
  0: 0x01C6 [0x32] ExtData[1]->MainSpeed = 13* * 0.1
  1: 0x01C9 [0x1F] MOVE_ENTITY: EventEntity moves to X=0.898*, Z=50.046*, Y=0.000*
  2: 0x01D1 [0x1F] MOVE_ENTITY: Update entity position (mode=1)
  3: 0x01D3 [0x1E] EventEntity looks at LocalPlayer and starts talking
  4: 0x01D8 [0x1C] WAIT(30* ticks)
  5: 0x01DB [0x00] END_REQSTACK()
```

### Event 65535.34

#### Metadata

| Field        | Value    |
|--------------|----------|
| Entrypoint   | 0x01DC   |
| Data Size    | 22 bytes |
| Instructions | 6        |

```
      00 01 02 03 04 05 06 07  08 09 0A 0B 0C 0D 0E 0F
      -- -- -- -- -- -- -- --  -- -- -- -- -- -- -- --
01D0:                                      32 3B 80 1F              2;..
01E0: 00 44 80 45 80 00 80 1F  01 1E F0 FF FF 7F 1C 41  .D.E...........A
01F0: 80 00                                             ..              
```

#### Opcodes

```
  0: 0x01DC [0x32] ExtData[1]->MainSpeed = 13* * 0.1
  1: 0x01DF [0x1F] MOVE_ENTITY: EventEntity moves to X=-0.866*, Z=49.986*, Y=0.000*
  2: 0x01E7 [0x1F] MOVE_ENTITY: Update entity position (mode=1)
  3: 0x01E9 [0x1E] EventEntity looks at LocalPlayer and starts talking
  4: 0x01EE [0x1C] WAIT(30* ticks)
  5: 0x01F1 [0x00] END_REQSTACK()
```

### Event 3155

#### Metadata

| Field        | Value   |
|--------------|---------|
| Entrypoint   | 0x01F2  |
| Data Size    | 1 bytes |
| Instructions | 1       |

```
      00 01 02 03 04 05 06 07  08 09 0A 0B 0C 0D 0E 0F
      -- -- -- -- -- -- -- --  -- -- -- -- -- -- -- --
01F0:       00                                            .             
```

#### Opcodes

```
  0: 0x01F2 [0x00] END_REQSTACK()
```

### Event 3200

#### Metadata

| Field        | Value   |
|--------------|---------|
| Entrypoint   | 0x01F3  |
| Data Size    | 1 bytes |
| Instructions | 1       |

```
      00 01 02 03 04 05 06 07  08 09 0A 0B 0C 0D 0E 0F
      -- -- -- -- -- -- -- --  -- -- -- -- -- -- -- --
01F0:          00                                          .            
```

#### Opcodes

```
  0: 0x01F3 [0x00] END_REQSTACK()
```

### Event 65535.35

#### Metadata

| Field        | Value    |
|--------------|----------|
| Entrypoint   | 0x01F4   |
| Data Size    | 44 bytes |
| Instructions | 10       |

```
      00 01 02 03 04 05 06 07  08 09 0A 0B 0C 0D 0E 0F
      -- -- -- -- -- -- -- --  -- -- -- -- -- -- -- --
01F0:             32 3B 80 1F  00 46 80 47 80 48 80 1F      2;...F.G.H..
0200: 01 1F 00 49 80 4A 80 48  80 1F 01 1F 00 4B 80 4C  ...I.J.H.....K.L
0210: 80 10 80 1F 01 1F 00 4D  80 4E 80 4F 80 1F 01 00  .......M.N.O....
```

#### Opcodes

```
  0: 0x01F4 [0x32] ExtData[1]->MainSpeed = 13* * 0.1
  1: 0x01F7 [0x1F] MOVE_ENTITY: EventEntity moves to X=27.267*, Z=-46.682*, Y=-7.804*
  2: 0x01FF [0x1F] MOVE_ENTITY: Update entity position (mode=1)
  3: 0x0201 [0x1F] MOVE_ENTITY: EventEntity moves to X=29.161*, Z=-47.075*, Y=-7.804*
  4: 0x0209 [0x1F] MOVE_ENTITY: Update entity position (mode=1)
  5: 0x020B [0x1F] MOVE_ENTITY: EventEntity moves to X=34.000*, Z=-47.510*, Y=-7.203*
  6: 0x0213 [0x1F] MOVE_ENTITY: Update entity position (mode=1)
  7: 0x0215 [0x1F] MOVE_ENTITY: EventEntity moves to X=34.086*, Z=-54.174*, Y=-6.605*
  8: 0x021D [0x1F] MOVE_ENTITY: Update entity position (mode=1)
  9: 0x021F [0x00] END_REQSTACK()
```

### Event 3215

#### Metadata

| Field        | Value   |
|--------------|---------|
| Entrypoint   | 0x0220  |
| Data Size    | 1 bytes |
| Instructions | 1       |

```
      00 01 02 03 04 05 06 07  08 09 0A 0B 0C 0D 0E 0F
      -- -- -- -- -- -- -- --  -- -- -- -- -- -- -- --
0220: 00                                                .               
```

#### Opcodes

```
  0: 0x0220 [0x00] END_REQSTACK()
```

### Event 3216

#### Metadata

| Field        | Value   |
|--------------|---------|
| Entrypoint   | 0x0221  |
| Data Size    | 1 bytes |
| Instructions | 1       |

```
      00 01 02 03 04 05 06 07  08 09 0A 0B 0C 0D 0E 0F
      -- -- -- -- -- -- -- --  -- -- -- -- -- -- -- --
0220:    00                                              .              
```

#### Opcodes

```
  0: 0x0221 [0x00] END_REQSTACK()
```

### Event 926

#### Metadata

| Field        | Value   |
|--------------|---------|
| Entrypoint   | 0x0222  |
| Data Size    | 1 bytes |
| Instructions | 1       |

```
      00 01 02 03 04 05 06 07  08 09 0A 0B 0C 0D 0E 0F
      -- -- -- -- -- -- -- --  -- -- -- -- -- -- -- --
0220:       00                                            .             
```

#### Opcodes

```
  0: 0x0222 [0x00] END_REQSTACK()
```

### Event 927

#### Metadata

| Field        | Value   |
|--------------|---------|
| Entrypoint   | 0x0223  |
| Data Size    | 1 bytes |
| Instructions | 1       |

```
      00 01 02 03 04 05 06 07  08 09 0A 0B 0C 0D 0E 0F
      -- -- -- -- -- -- -- --  -- -- -- -- -- -- -- --
0220:          00                                          .            
```

#### Opcodes

```
  0: 0x0223 [0x00] END_REQSTACK()
```

### Event 928

#### Metadata

| Field        | Value   |
|--------------|---------|
| Entrypoint   | 0x0224  |
| Data Size    | 1 bytes |
| Instructions | 1       |

```
      00 01 02 03 04 05 06 07  08 09 0A 0B 0C 0D 0E 0F
      -- -- -- -- -- -- -- --  -- -- -- -- -- -- -- --
0220:             00                                        .           
```

#### Opcodes

```
  0: 0x0224 [0x00] END_REQSTACK()
```

### Event 931

#### Metadata

| Field        | Value   |
|--------------|---------|
| Entrypoint   | 0x0225  |
| Data Size    | 1 bytes |
| Instructions | 1       |

```
      00 01 02 03 04 05 06 07  08 09 0A 0B 0C 0D 0E 0F
      -- -- -- -- -- -- -- --  -- -- -- -- -- -- -- --
0220:                00                                      .          
```

#### Opcodes

```
  0: 0x0225 [0x00] END_REQSTACK()
```

### Event 933

#### Metadata

| Field        | Value   |
|--------------|---------|
| Entrypoint   | 0x0226  |
| Data Size    | 1 bytes |
| Instructions | 1       |

```
      00 01 02 03 04 05 06 07  08 09 0A 0B 0C 0D 0E 0F
      -- -- -- -- -- -- -- --  -- -- -- -- -- -- -- --
0220:                   00                                    .         
```

#### Opcodes

```
  0: 0x0226 [0x00] END_REQSTACK()
```

### Event 934

#### Metadata

| Field        | Value   |
|--------------|---------|
| Entrypoint   | 0x0227  |
| Data Size    | 1 bytes |
| Instructions | 1       |

```
      00 01 02 03 04 05 06 07  08 09 0A 0B 0C 0D 0E 0F
      -- -- -- -- -- -- -- --  -- -- -- -- -- -- -- --
0220:                      00                                  .        
```

#### Opcodes

```
  0: 0x0227 [0x00] END_REQSTACK()
```

### Event 935

#### Metadata

| Field        | Value   |
|--------------|---------|
| Entrypoint   | 0x0228  |
| Data Size    | 1 bytes |
| Instructions | 1       |

```
      00 01 02 03 04 05 06 07  08 09 0A 0B 0C 0D 0E 0F
      -- -- -- -- -- -- -- --  -- -- -- -- -- -- -- --
0220:                          00                               .       
```

#### Opcodes

```
  0: 0x0228 [0x00] END_REQSTACK()
```

### Event 937

#### Metadata

| Field        | Value   |
|--------------|---------|
| Entrypoint   | 0x0229  |
| Data Size    | 1 bytes |
| Instructions | 1       |

```
      00 01 02 03 04 05 06 07  08 09 0A 0B 0C 0D 0E 0F
      -- -- -- -- -- -- -- --  -- -- -- -- -- -- -- --
0220:                             00                             .      
```

#### Opcodes

```
  0: 0x0229 [0x00] END_REQSTACK()
```

### Event 938

#### Metadata

| Field        | Value   |
|--------------|---------|
| Entrypoint   | 0x022A  |
| Data Size    | 1 bytes |
| Instructions | 1       |

```
      00 01 02 03 04 05 06 07  08 09 0A 0B 0C 0D 0E 0F
      -- -- -- -- -- -- -- --  -- -- -- -- -- -- -- --
0220:                                00                           .     
```

#### Opcodes

```
  0: 0x022A [0x00] END_REQSTACK()
```

### Event 939

#### Metadata

| Field        | Value   |
|--------------|---------|
| Entrypoint   | 0x022B  |
| Data Size    | 1 bytes |
| Instructions | 1       |

```
      00 01 02 03 04 05 06 07  08 09 0A 0B 0C 0D 0E 0F
      -- -- -- -- -- -- -- --  -- -- -- -- -- -- -- --
0220:                                   00                         .    
```

#### Opcodes

```
  0: 0x022B [0x00] END_REQSTACK()
```

### Event 943

#### Metadata

| Field        | Value   |
|--------------|---------|
| Entrypoint   | 0x022C  |
| Data Size    | 1 bytes |
| Instructions | 1       |

```
      00 01 02 03 04 05 06 07  08 09 0A 0B 0C 0D 0E 0F
      -- -- -- -- -- -- -- --  -- -- -- -- -- -- -- --
0220:                                      00                       .   
```

#### Opcodes

```
  0: 0x022C [0x00] END_REQSTACK()
```

### Event 944

#### Metadata

| Field        | Value   |
|--------------|---------|
| Entrypoint   | 0x022D  |
| Data Size    | 1 bytes |
| Instructions | 1       |

```
      00 01 02 03 04 05 06 07  08 09 0A 0B 0C 0D 0E 0F
      -- -- -- -- -- -- -- --  -- -- -- -- -- -- -- --
0220:                                         00                     .  
```

#### Opcodes

```
  0: 0x022D [0x00] END_REQSTACK()
```

### Event 945

#### Metadata

| Field        | Value   |
|--------------|---------|
| Entrypoint   | 0x022E  |
| Data Size    | 1 bytes |
| Instructions | 1       |

```
      00 01 02 03 04 05 06 07  08 09 0A 0B 0C 0D 0E 0F
      -- -- -- -- -- -- -- --  -- -- -- -- -- -- -- --
0220:                                            00                   . 
```

#### Opcodes

```
  0: 0x022E [0x00] END_REQSTACK()
```

### Event 65535.36

#### Metadata

| Field        | Value    |
|--------------|----------|
| Entrypoint   | 0x022F   |
| Data Size    | 28 bytes |
| Instructions | 8        |

```
      00 01 02 03 04 05 06 07  08 09 0A 0B 0C 0D 0E 0F
      -- -- -- -- -- -- -- --  -- -- -- -- -- -- -- --
0220:                                               32                 2
0230: 50 80 1F 00 51 80 52 80  3E 80 1F 01 6F 4B F8 FF  P...Q.R.>...oK..
0240: FF 7F 53 80 6F 76 F8 FF  FF 7F 00                 ..S.ov.....     
```

#### Opcodes

```
  0: 0x022F [0x32] ExtData[1]->MainSpeed = 14* * 0.1
  1: 0x0232 [0x1F] MOVE_ENTITY: EventEntity moves to X=83.535*, Z=48.496*, Y=0.480*
  2: 0x023A [0x1F] MOVE_ENTITY: Update entity position (mode=1)
  3: 0x023C [0x6F] WAIT_FRAME_DELAY: Yield until WaitTime reaches zero
  4: 0x023D [0x4B] UPDATE_ENTITY_YAW(entity=EventEntity, yaw=7.1°*)
  5: 0x0244 [0x6F] WAIT_FRAME_DELAY: Yield until WaitTime reaches zero
  6: 0x0245 [0x76] CHECK_ENTITY_RENDER_FLAGS: Wait until EventEntity Render.Flags0 and Render.Flags3 conditions are met
  7: 0x024A [0x00] END_REQSTACK()
```

### Event 65535.37

#### Metadata

| Field        | Value    |
|--------------|----------|
| Entrypoint   | 0x024B   |
| Data Size    | 15 bytes |
| Instructions | 5        |

```
      00 01 02 03 04 05 06 07  08 09 0A 0B 0C 0D 0E 0F
      -- -- -- -- -- -- -- --  -- -- -- -- -- -- -- --
0240:                                   32 50 80 1F 00             2P...
0250: 54 80 55 80 3E 80 1F 01  6F 00                    T.U.>...o.      
```

#### Opcodes

```
  0: 0x024B [0x32] ExtData[1]->MainSpeed = 14* * 0.1
  1: 0x024E [0x1F] MOVE_ENTITY: EventEntity moves to X=84.160*, Z=48.936*, Y=0.480*
  2: 0x0256 [0x1F] MOVE_ENTITY: Update entity position (mode=1)
  3: 0x0258 [0x6F] WAIT_FRAME_DELAY: Yield until WaitTime reaches zero
  4: 0x0259 [0x00] END_REQSTACK()
```

### Event 65535.38

#### Metadata

| Field        | Value    |
|--------------|----------|
| Entrypoint   | 0x025A   |
| Data Size    | 30 bytes |
| Instructions | 8        |

```
      00 01 02 03 04 05 06 07  08 09 0A 0B 0C 0D 0E 0F
      -- -- -- -- -- -- -- --  -- -- -- -- -- -- -- --
0250:                                32 50 80 1F 00 56            2P...V
0260: 80 57 80 3E 80 1F 01 1F  00 58 80 59 80 3E 80 1F  .W.>.....X.Y.>..
0270: 01 6F 1E F0 FF FF 7F 00                           .o......        
```

#### Opcodes

```
  0: 0x025A [0x32] ExtData[1]->MainSpeed = 14* * 0.1
  1: 0x025D [0x1F] MOVE_ENTITY: EventEntity moves to X=84.007*, Z=49.567*, Y=0.480*
  2: 0x0265 [0x1F] MOVE_ENTITY: Update entity position (mode=1)
  3: 0x0267 [0x1F] MOVE_ENTITY: EventEntity moves to X=86.618*, Z=47.099*, Y=0.480*
  4: 0x026F [0x1F] MOVE_ENTITY: Update entity position (mode=1)
  5: 0x0271 [0x6F] WAIT_FRAME_DELAY: Yield until WaitTime reaches zero
  6: 0x0272 [0x1E] EventEntity looks at LocalPlayer and starts talking
  7: 0x0277 [0x00] END_REQSTACK()
```

### Event 65535.39

#### Metadata

| Field        | Value    |
|--------------|----------|
| Entrypoint   | 0x0278   |
| Data Size    | 15 bytes |
| Instructions | 5        |

```
      00 01 02 03 04 05 06 07  08 09 0A 0B 0C 0D 0E 0F
      -- -- -- -- -- -- -- --  -- -- -- -- -- -- -- --
0270:                          32 3B 80 1F 00 5A 80 5B          2;...Z.[
0280: 80 3E 80 1F 01 6F 00                              .>...o.         
```

#### Opcodes

```
  0: 0x0278 [0x32] ExtData[1]->MainSpeed = 13* * 0.1
  1: 0x027B [0x1F] MOVE_ENTITY: EventEntity moves to X=86.923*, Z=46.269*, Y=0.480*
  2: 0x0283 [0x1F] MOVE_ENTITY: Update entity position (mode=1)
  3: 0x0285 [0x6F] WAIT_FRAME_DELAY: Yield until WaitTime reaches zero
  4: 0x0286 [0x00] END_REQSTACK()
```

### Event 65535.40

#### Metadata

| Field        | Value    |
|--------------|----------|
| Entrypoint   | 0x0287   |
| Data Size    | 14 bytes |
| Instructions | 4        |

```
      00 01 02 03 04 05 06 07  08 09 0A 0B 0C 0D 0E 0F
      -- -- -- -- -- -- -- --  -- -- -- -- -- -- -- --
0280:                      32  0D 80 1F 00 5C 80 5D 80         2....\.].
0290: 00 80 1F 01 00                                    .....           
```

#### Opcodes

```
  0: 0x0287 [0x32] ExtData[1]->MainSpeed = 11* * 0.1
  1: 0x028A [0x1F] MOVE_ENTITY: EventEntity moves to X=0.457*, Z=-33.415*, Y=0.000*
  2: 0x0292 [0x1F] MOVE_ENTITY: Update entity position (mode=1)
  3: 0x0294 [0x00] END_REQSTACK()
```

### Event 65535.41

#### Metadata

| Field        | Value    |
|--------------|----------|
| Entrypoint   | 0x0295   |
| Data Size    | 34 bytes |
| Instructions | 8        |

```
      00 01 02 03 04 05 06 07  08 09 0A 0B 0C 0D 0E 0F
      -- -- -- -- -- -- -- --  -- -- -- -- -- -- -- --
0290:                32 3B 80  1F 00 5E 80 5F 80 3E 80       2;...^._.>.
02A0: 1F 01 1F 00 60 80 61 80  3E 80 1F 01 1F 00 62 80  ....`.a.>.....b.
02B0: 63 80 3E 80 1F 01 00                              c.>....         
```

#### Opcodes

```
  0: 0x0295 [0x32] ExtData[1]->MainSpeed = 13* * 0.1
  1: 0x0298 [0x1F] MOVE_ENTITY: EventEntity moves to X=85.712*, Z=45.870*, Y=0.480*
  2: 0x02A0 [0x1F] MOVE_ENTITY: Update entity position (mode=1)
  3: 0x02A2 [0x1F] MOVE_ENTITY: EventEntity moves to X=85.732*, Z=45.058*, Y=0.480*
  4: 0x02AA [0x1F] MOVE_ENTITY: Update entity position (mode=1)
  5: 0x02AC [0x1F] MOVE_ENTITY: EventEntity moves to X=86.801*, Z=41.685*, Y=0.480*
  6: 0x02B4 [0x1F] MOVE_ENTITY: Update entity position (mode=1)
  7: 0x02B6 [0x00] END_REQSTACK()
```

### Event 65535.42

#### Metadata

| Field        | Value    |
|--------------|----------|
| Entrypoint   | 0x02B7   |
| Data Size    | 24 bytes |
| Instructions | 6        |

```
      00 01 02 03 04 05 06 07  08 09 0A 0B 0C 0D 0E 0F
      -- -- -- -- -- -- -- --  -- -- -- -- -- -- -- --
02B0:                      32  3B 80 1F 00 64 80 65 80         2;...d.e.
02C0: 00 80 1F 01 6F 4A F8 FF  FF 7F CC 20 03 01 00     ....oJ..... ... 
```

#### Opcodes

```
  0: 0x02B7 [0x32] ExtData[1]->MainSpeed = 13* * 0.1
  1: 0x02BA [0x1F] MOVE_ENTITY: EventEntity moves to X=0.053*, Z=-32.678*, Y=0.000*
  2: 0x02C2 [0x1F] MOVE_ENTITY: Update entity position (mode=1)
  3: 0x02C4 [0x6F] WAIT_FRAME_DELAY: Yield until WaitTime reaches zero
  4: 0x02C5 [0x4A] EventEntity looks at Nashmeira (ID: 16982220/0x010320CC)
  5: 0x02CE [0x00] END_REQSTACK()
```

### Event 65535.43

#### Metadata

| Field        | Value    |
|--------------|----------|
| Entrypoint   | 0x02CF   |
| Data Size    | 20 bytes |
| Instructions | 6        |

```
      00 01 02 03 04 05 06 07  08 09 0A 0B 0C 0D 0E 0F
      -- -- -- -- -- -- -- --  -- -- -- -- -- -- -- --
02C0:                                               32                 2
02D0: 3B 80 1F 00 66 80 67 80  00 80 1F 01 6F 1E CC 20  ;...f.g.....o.. 
02E0: 03 01 00                                          ...             
```

#### Opcodes

```
  0: 0x02CF [0x32] ExtData[1]->MainSpeed = 13* * 0.1
  1: 0x02D2 [0x1F] MOVE_ENTITY: EventEntity moves to X=0.097*, Z=-32.734*, Y=0.000*
  2: 0x02DA [0x1F] MOVE_ENTITY: Update entity position (mode=1)
  3: 0x02DC [0x6F] WAIT_FRAME_DELAY: Yield until WaitTime reaches zero
  4: 0x02DD [0x1E] EventEntity looks at Nashmeira (ID: 16982220/0x010320CC) and starts talking
  5: 0x02E2 [0x00] END_REQSTACK()
```

### Event 65535.44

#### Metadata

| Field        | Value    |
|--------------|----------|
| Entrypoint   | 0x02E3   |
| Data Size    | 22 bytes |
| Instructions | 8        |

```
      00 01 02 03 04 05 06 07  08 09 0A 0B 0C 0D 0E 0F
      -- -- -- -- -- -- -- --  -- -- -- -- -- -- -- --
02E0:          32 0D 80 1F 00  68 80 69 80 00 80 1F 01     2....h.i.....
02F0: 6F 1E CC 20 03 01 6F 70  00                       o.. ..op.       
```

#### Opcodes

```
  0: 0x02E3 [0x32] ExtData[1]->MainSpeed = 11* * 0.1
  1: 0x02E6 [0x1F] MOVE_ENTITY: EventEntity moves to X=0.438*, Z=46.627*, Y=0.000*
  2: 0x02EE [0x1F] MOVE_ENTITY: Update entity position (mode=1)
  3: 0x02F0 [0x6F] WAIT_FRAME_DELAY: Yield until WaitTime reaches zero
  4: 0x02F1 [0x1E] EventEntity looks at Nashmeira (ID: 16982220/0x010320CC) and starts talking
  5: 0x02F6 [0x6F] WAIT_FRAME_DELAY: Yield until WaitTime reaches zero
  6: 0x02F7 [0x70] WAIT_ENTITY_RENDER_FLAG: Wait while EventEntity->Render.Flags3 bit 2 is set (cancel turn if not)
  7: 0x02F8 [0x00] END_REQSTACK()
```

### Event 65535.45

#### Metadata

| Field        | Value    |
|--------------|----------|
| Entrypoint   | 0x02F9   |
| Data Size    | 34 bytes |
| Instructions | 4        |

```
      00 01 02 03 04 05 06 07  08 09 0A 0B 0C 0D 0E 0F
      -- -- -- -- -- -- -- --  -- -- -- -- -- -- -- --
02F0:                             5B 6A 80 C7 20 03 01           [j.. ..
0300: C7 20 03 01 74 68 6B 31  53 C7 20 03 01 C7 20 03  . ..thk1S. ... .
0310: 01 74 68 6B 31 1E 95 20  03 01 00                 .thk1.. ...     
```

#### Opcodes

```
  0: 0x02F9 [0x5B] LOAD_EXT_SCHEDULER: Load scheduler "thk1" with entities [Ovjang (ID: 16982215/0x010320C7), Ovjang (ID: 16982215/0x010320C7)], work=858*
  1: 0x0308 [0x53] WAIT_SCHEDULER_TASK: Wait for scheduler "thk1" with entities [Ovjang (ID: 16982215/0x010320C7), Ovjang (ID: 16982215/0x010320C7)]
  2: 0x0315 [0x1E] EventEntity looks at Ghatsad (ID: 16982165/0x01032095) and starts talking
  3: 0x031A [0x00] END_REQSTACK()
```

### Event 65535.46

#### Metadata

| Field        | Value    |
|--------------|----------|
| Entrypoint   | 0x031B   |
| Data Size    | 44 bytes |
| Instructions | 10       |

```
      00 01 02 03 04 05 06 07  08 09 0A 0B 0C 0D 0E 0F
      -- -- -- -- -- -- -- --  -- -- -- -- -- -- -- --
0310:                                   32 3B 80 1F 00             2;...
0320: 6B 80 6C 80 00 80 1F 01  6F 1E 95 20 03 01 6F 76  k.l.....o.. ..ov
0330: F8 FF FF 7F 5B 6D 80 C7  20 03 01 C7 20 03 01 79  ....[m.. ... ..y
0340: 61 68 30 1C 6E 80 00                              ah0.n..         
```

#### Opcodes

```
  0: 0x031B [0x32] ExtData[1]->MainSpeed = 13* * 0.1
  1: 0x031E [0x1F] MOVE_ENTITY: EventEntity moves to X=0.525*, Z=47.761*, Y=0.000*
  2: 0x0326 [0x1F] MOVE_ENTITY: Update entity position (mode=1)
  3: 0x0328 [0x6F] WAIT_FRAME_DELAY: Yield until WaitTime reaches zero
  4: 0x0329 [0x1E] EventEntity looks at Ghatsad (ID: 16982165/0x01032095) and starts talking
  5: 0x032E [0x6F] WAIT_FRAME_DELAY: Yield until WaitTime reaches zero
  6: 0x032F [0x76] CHECK_ENTITY_RENDER_FLAGS: Wait until EventEntity Render.Flags0 and Render.Flags3 conditions are met
  7: 0x0334 [0x5B] LOAD_EXT_SCHEDULER: Load scheduler "yah0" with entities [Ovjang (ID: 16982215/0x010320C7), Ovjang (ID: 16982215/0x010320C7)], work=851*
  8: 0x0343 [0x1C] WAIT(50* ticks)
  9: 0x0346 [0x00] END_REQSTACK()
```

### Event 65535.47

#### Metadata

| Field        | Value    |
|--------------|----------|
| Entrypoint   | 0x0347   |
| Data Size    | 20 bytes |
| Instructions | 6        |

```
      00 01 02 03 04 05 06 07  08 09 0A 0B 0C 0D 0E 0F
      -- -- -- -- -- -- -- --  -- -- -- -- -- -- -- --
0340:                      32  0D 80 1F 00 6F 80 70 80         2....o.p.
0350: 00 80 1F 01 6F 1E CC 20  03 01 00                 ....o.. ...     
```

#### Opcodes

```
  0: 0x0347 [0x32] ExtData[1]->MainSpeed = 11* * 0.1
  1: 0x034A [0x1F] MOVE_ENTITY: EventEntity moves to X=1.384*, Z=46.081*, Y=0.000*
  2: 0x0352 [0x1F] MOVE_ENTITY: Update entity position (mode=1)
  3: 0x0354 [0x6F] WAIT_FRAME_DELAY: Yield until WaitTime reaches zero
  4: 0x0355 [0x1E] EventEntity looks at Nashmeira (ID: 16982220/0x010320CC) and starts talking
  5: 0x035A [0x00] END_REQSTACK()
```

### Event 65535.48

#### Metadata

| Field        | Value    |
|--------------|----------|
| Entrypoint   | 0x035B   |
| Data Size    | 25 bytes |
| Instructions | 7        |

```
      00 01 02 03 04 05 06 07  08 09 0A 0B 0C 0D 0E 0F
      -- -- -- -- -- -- -- --  -- -- -- -- -- -- -- --
0350:                                   32 3B 80 1F 00             2;...
0360: 71 80 72 80 00 80 1F 01  1E F0 FF FF 7F 6F 76 F8  q.r..........ov.
0370: FF FF 7F 00                                       ....            
```

#### Opcodes

```
  0: 0x035B [0x32] ExtData[1]->MainSpeed = 13* * 0.1
  1: 0x035E [0x1F] MOVE_ENTITY: EventEntity moves to X=1.716*, Z=46.821*, Y=0.000*
  2: 0x0366 [0x1F] MOVE_ENTITY: Update entity position (mode=1)
  3: 0x0368 [0x1E] EventEntity looks at LocalPlayer and starts talking
  4: 0x036D [0x6F] WAIT_FRAME_DELAY: Yield until WaitTime reaches zero
  5: 0x036E [0x76] CHECK_ENTITY_RENDER_FLAGS: Wait until EventEntity Render.Flags0 and Render.Flags3 conditions are met
  6: 0x0373 [0x00] END_REQSTACK()
```

### Event 65535.49

#### Metadata

| Field        | Value    |
|--------------|----------|
| Entrypoint   | 0x0374   |
| Data Size    | 10 bytes |
| Instructions | 2        |

```
      00 01 02 03 04 05 06 07  08 09 0A 0B 0C 0D 0E 0F
      -- -- -- -- -- -- -- --  -- -- -- -- -- -- -- --
0370:             6C F8 FF FF  7F 00 80 01 80 00            l.........  
```

#### Opcodes

```
  0: 0x0374 [0x6C] FADE_ENTITY_COLOR(entity_id=EventEntity, end_alpha=0*, fade_time=1*)
  1: 0x037D [0x00] END_REQSTACK()
```

### Event 65535.50

#### Metadata

| Field        | Value    |
|--------------|----------|
| Entrypoint   | 0x037E   |
| Data Size    | 10 bytes |
| Instructions | 2        |

```
      00 01 02 03 04 05 06 07  08 09 0A 0B 0C 0D 0E 0F
      -- -- -- -- -- -- -- --  -- -- -- -- -- -- -- --
0370:                                            6C F8                l.
0380: FF FF 7F 02 80 01 80 00                           ........        
```

#### Opcodes

```
  0: 0x037E [0x6C] FADE_ENTITY_COLOR(entity_id=EventEntity, end_alpha=128*, fade_time=1*)
  1: 0x0387 [0x00] END_REQSTACK()
```

### Event 65535.51

#### Metadata

| Field        | Value    |
|--------------|----------|
| Entrypoint   | 0x0388   |
| Data Size    | 15 bytes |
| Instructions | 5        |

```
      00 01 02 03 04 05 06 07  08 09 0A 0B 0C 0D 0E 0F
      -- -- -- -- -- -- -- --  -- -- -- -- -- -- -- --
0380:                          32 3B 80 1F 00 73 80 74          2;...s.t
0390: 80 00 80 1F 01 6F 00                              .....o.         
```

#### Opcodes

```
  0: 0x0388 [0x32] ExtData[1]->MainSpeed = 13* * 0.1
  1: 0x038B [0x1F] MOVE_ENTITY: EventEntity moves to X=-0.638*, Z=-10.236*, Y=0.000*
  2: 0x0393 [0x1F] MOVE_ENTITY: Update entity position (mode=1)
  3: 0x0395 [0x6F] WAIT_FRAME_DELAY: Yield until WaitTime reaches zero
  4: 0x0396 [0x00] END_REQSTACK()
```

### Event 65535.52

#### Metadata

| Field        | Value    |
|--------------|----------|
| Entrypoint   | 0x0397   |
| Data Size    | 26 bytes |
| Instructions | 8        |

```
      00 01 02 03 04 05 06 07  08 09 0A 0B 0C 0D 0E 0F
      -- -- -- -- -- -- -- --  -- -- -- -- -- -- -- --
0390:                      32  3B 80 1F 00 75 80 76 80         2;...u.v.
03A0: 00 80 1F 01 6F 1E F0 FF  FF 7F 6F 76 F8 FF FF 7F  ....o.....ov....
03B0: 00                                                .               
```

#### Opcodes

```
  0: 0x0397 [0x32] ExtData[1]->MainSpeed = 13* * 0.1
  1: 0x039A [0x1F] MOVE_ENTITY: EventEntity moves to X=-0.635*, Z=-29.214*, Y=0.000*
  2: 0x03A2 [0x1F] MOVE_ENTITY: Update entity position (mode=1)
  3: 0x03A4 [0x6F] WAIT_FRAME_DELAY: Yield until WaitTime reaches zero
  4: 0x03A5 [0x1E] EventEntity looks at LocalPlayer and starts talking
  5: 0x03AA [0x6F] WAIT_FRAME_DELAY: Yield until WaitTime reaches zero
  6: 0x03AB [0x76] CHECK_ENTITY_RENDER_FLAGS: Wait until EventEntity Render.Flags0 and Render.Flags3 conditions are met
  7: 0x03B0 [0x00] END_REQSTACK()
```

### Event 65535.53

#### Metadata

| Field        | Value    |
|--------------|----------|
| Entrypoint   | 0x03B1   |
| Data Size    | 19 bytes |
| Instructions | 5        |

```
      00 01 02 03 04 05 06 07  08 09 0A 0B 0C 0D 0E 0F
      -- -- -- -- -- -- -- --  -- -- -- -- -- -- -- --
03B0:    32 3B 80 1F 00 77 80  78 80 79 80 1F 01 1E CC   2;...w.x.y.....
03C0: 20 03 01 00                                        ...            
```

#### Opcodes

```
  0: 0x03B1 [0x32] ExtData[1]->MainSpeed = 13* * 0.1
  1: 0x03B4 [0x1F] MOVE_ENTITY: EventEntity moves to X=-485.370*, Z=413.294*, Y=-4.000*
  2: 0x03BC [0x1F] MOVE_ENTITY: Update entity position (mode=1)
  3: 0x03BE [0x1E] EventEntity looks at Nashmeira (ID: 16982220/0x010320CC) and starts talking
  4: 0x03C3 [0x00] END_REQSTACK()
```

### Event 961

#### Metadata

| Field        | Value   |
|--------------|---------|
| Entrypoint   | 0x03C4  |
| Data Size    | 1 bytes |
| Instructions | 1       |

```
      00 01 02 03 04 05 06 07  08 09 0A 0B 0C 0D 0E 0F
      -- -- -- -- -- -- -- --  -- -- -- -- -- -- -- --
03C0:             00                                        .           
```

#### Opcodes

```
  0: 0x03C4 [0x00] END_REQSTACK()
```

### Event 962

#### Metadata

| Field        | Value   |
|--------------|---------|
| Entrypoint   | 0x03C5  |
| Data Size    | 1 bytes |
| Instructions | 1       |

```
      00 01 02 03 04 05 06 07  08 09 0A 0B 0C 0D 0E 0F
      -- -- -- -- -- -- -- --  -- -- -- -- -- -- -- --
03C0:                00                                      .          
```

#### Opcodes

```
  0: 0x03C5 [0x00] END_REQSTACK()
```

### Event 65535.54

#### Metadata

| Field        | Value    |
|--------------|----------|
| Entrypoint   | 0x03C6   |
| Data Size    | 15 bytes |
| Instructions | 5        |

```
      00 01 02 03 04 05 06 07  08 09 0A 0B 0C 0D 0E 0F
      -- -- -- -- -- -- -- --  -- -- -- -- -- -- -- --
03C0:                   32 0D  80 1F 00 7A 80 7B 80 3E        2....z.{.>
03D0: 80 1F 01 6F 00                                    ...o.           
```

#### Opcodes

```
  0: 0x03C6 [0x32] ExtData[1]->MainSpeed = 11* * 0.1
  1: 0x03C9 [0x1F] MOVE_ENTITY: EventEntity moves to X=76.421*, Z=49.602*, Y=0.480*
  2: 0x03D1 [0x1F] MOVE_ENTITY: Update entity position (mode=1)
  3: 0x03D3 [0x6F] WAIT_FRAME_DELAY: Yield until WaitTime reaches zero
  4: 0x03D4 [0x00] END_REQSTACK()
```

### Event 65535.55

#### Metadata

| Field        | Value    |
|--------------|----------|
| Entrypoint   | 0x03D5   |
| Data Size    | 25 bytes |
| Instructions | 3        |

```
      00 01 02 03 04 05 06 07  08 09 0A 0B 0C 0D 0E 0F
      -- -- -- -- -- -- -- --  -- -- -- -- -- -- -- --
03D0:                B4 00 00  00 3F 3F 3F 00 00 00 00       ....???....
03E0: 00 00 00 00 00 00 00 00  00 B5 00 00 00 00        ..............  
```

#### Opcodes

```
  0: 0x03D5 [0xB4] UI_WINDOW_STRING_HANDLER(case=0x00 - Copy string from opcode, work_offset=ExtData[1]->WorkLocal[0], string="???")
  1: 0x03E9 [0xB5] SET_EVENT_ENTITY_NAME: Change EventEntity name to ExtData[1]->WorkLocal[0]
  2: 0x03ED [0x00] END_REQSTACK()
```

### Event 65535.56

#### Metadata

| Field        | Value    |
|--------------|----------|
| Entrypoint   | 0x03EE   |
| Data Size    | 25 bytes |
| Instructions | 3        |

```
      00 01 02 03 04 05 06 07  08 09 0A 0B 0C 0D 0E 0F
      -- -- -- -- -- -- -- --  -- -- -- -- -- -- -- --
03E0:                                            B4 00                ..
03F0: 00 00 4F 76 6A 61 6E 67  00 00 00 00 00 00 00 00  ..Ovjang........
0400: 00 00 B5 00 00 00 00                              .......         
```

#### Opcodes

```
  0: 0x03EE [0xB4] UI_WINDOW_STRING_HANDLER(case=0x00 - Copy string from opcode, work_offset=ExtData[1]->WorkLocal[0], string="Ovjang")
  1: 0x0402 [0xB5] SET_EVENT_ENTITY_NAME: Change EventEntity name to ExtData[1]->WorkLocal[0]
  2: 0x0406 [0x00] END_REQSTACK()
```

### Event 65535.57

#### Metadata

| Field        | Value    |
|--------------|----------|
| Entrypoint   | 0x0407   |
| Data Size    | 16 bytes |
| Instructions | 2        |

```
      00 01 02 03 04 05 06 07  08 09 0A 0B 0C 0D 0E 0F
      -- -- -- -- -- -- -- --  -- -- -- -- -- -- -- --
0400:                      5B  7C 80 F8 FF FF 7F F8 FF         [|.......
0410: FF 7F 75 73 69 30 00                              ..usi0.         
```

#### Opcodes

```
  0: 0x0407 [0x5B] LOAD_EXT_SCHEDULER: Load scheduler "usi0" with entities [EventEntity, EventEntity], work=905*
  1: 0x0416 [0x00] END_REQSTACK()
```

### Event 65535.58

#### Metadata

| Field        | Value    |
|--------------|----------|
| Entrypoint   | 0x0417   |
| Data Size    | 14 bytes |
| Instructions | 2        |

```
      00 01 02 03 04 05 06 07  08 09 0A 0B 0C 0D 0E 0F
      -- -- -- -- -- -- -- --  -- -- -- -- -- -- -- --
0410:                      53  F8 FF FF 7F F8 FF FF 7F         S........
0420: 75 73 69 30 00                                    usi0.           
```

#### Opcodes

```
  0: 0x0417 [0x53] WAIT_SCHEDULER_TASK: Wait for scheduler "usi0" with entities [EventEntity, EventEntity]
  1: 0x0424 [0x00] END_REQSTACK()
```

### Event 65535.59

#### Metadata

| Field        | Value    |
|--------------|----------|
| Entrypoint   | 0x0425   |
| Data Size    | 16 bytes |
| Instructions | 2        |

```
      00 01 02 03 04 05 06 07  08 09 0A 0B 0C 0D 0E 0F
      -- -- -- -- -- -- -- --  -- -- -- -- -- -- -- --
0420:                5B 7C 80  F8 FF FF 7F F8 FF FF 7F       [|.........
0430: 68 69 6B 30 00                                    hik0.           
```

#### Opcodes

```
  0: 0x0425 [0x5B] LOAD_EXT_SCHEDULER: Load scheduler "hik0" with entities [EventEntity, EventEntity], work=905*
  1: 0x0434 [0x00] END_REQSTACK()
```

### Event 65535.60

#### Metadata

| Field        | Value    |
|--------------|----------|
| Entrypoint   | 0x0435   |
| Data Size    | 14 bytes |
| Instructions | 2        |

```
      00 01 02 03 04 05 06 07  08 09 0A 0B 0C 0D 0E 0F
      -- -- -- -- -- -- -- --  -- -- -- -- -- -- -- --
0430:                53 F8 FF  FF 7F F8 FF FF 7F 68 69       S........hi
0440: 6B 30 00                                          k0.             
```

#### Opcodes

```
  0: 0x0435 [0x53] WAIT_SCHEDULER_TASK: Wait for scheduler "hik0" with entities [EventEntity, EventEntity]
  1: 0x0442 [0x00] END_REQSTACK()
```

### Event 65535.61

#### Metadata

| Field        | Value    |
|--------------|----------|
| Entrypoint   | 0x0443   |
| Data Size    | 16 bytes |
| Instructions | 2        |

```
      00 01 02 03 04 05 06 07  08 09 0A 0B 0C 0D 0E 0F
      -- -- -- -- -- -- -- --  -- -- -- -- -- -- -- --
0440:          5B 7C 80 F8 FF  FF 7F F8 FF FF 7F 68 69     [|.........hi
0450: 6B 31 00                                          k1.             
```

#### Opcodes

```
  0: 0x0443 [0x5B] LOAD_EXT_SCHEDULER: Load scheduler "hik1" with entities [EventEntity, EventEntity], work=905*
  1: 0x0452 [0x00] END_REQSTACK()
```

### Event 65535.62

#### Metadata

| Field        | Value    |
|--------------|----------|
| Entrypoint   | 0x0453   |
| Data Size    | 14 bytes |
| Instructions | 2        |

```
      00 01 02 03 04 05 06 07  08 09 0A 0B 0C 0D 0E 0F
      -- -- -- -- -- -- -- --  -- -- -- -- -- -- -- --
0450:          53 F8 FF FF 7F  F8 FF FF 7F 68 69 6B 31     S........hik1
0460: 00                                                .               
```

#### Opcodes

```
  0: 0x0453 [0x53] WAIT_SCHEDULER_TASK: Wait for scheduler "hik1" with entities [EventEntity, EventEntity]
  1: 0x0460 [0x00] END_REQSTACK()
```

### Event 65535.63

#### Metadata

| Field        | Value    |
|--------------|----------|
| Entrypoint   | 0x0461   |
| Data Size    | 16 bytes |
| Instructions | 2        |

```
      00 01 02 03 04 05 06 07  08 09 0A 0B 0C 0D 0E 0F
      -- -- -- -- -- -- -- --  -- -- -- -- -- -- -- --
0460:    5B 7C 80 F8 FF FF 7F  F8 FF FF 7F 75 64 65 30   [|.........ude0
0470: 00                                                .               
```

#### Opcodes

```
  0: 0x0461 [0x5B] LOAD_EXT_SCHEDULER: Load scheduler "ude0" with entities [EventEntity, EventEntity], work=905*
  1: 0x0470 [0x00] END_REQSTACK()
```

### Event 65535.64

#### Metadata

| Field        | Value    |
|--------------|----------|
| Entrypoint   | 0x0471   |
| Data Size    | 14 bytes |
| Instructions | 2        |

```
      00 01 02 03 04 05 06 07  08 09 0A 0B 0C 0D 0E 0F
      -- -- -- -- -- -- -- --  -- -- -- -- -- -- -- --
0470:    53 F8 FF FF 7F F8 FF  FF 7F 75 64 65 30 00      S........ude0. 
```

#### Opcodes

```
  0: 0x0471 [0x53] WAIT_SCHEDULER_TASK: Wait for scheduler "ude0" with entities [EventEntity, EventEntity]
  1: 0x047E [0x00] END_REQSTACK()
```

### Event 65535.65

#### Metadata

| Field        | Value    |
|--------------|----------|
| Entrypoint   | 0x047F   |
| Data Size    | 16 bytes |
| Instructions | 2        |

```
      00 01 02 03 04 05 06 07  08 09 0A 0B 0C 0D 0E 0F
      -- -- -- -- -- -- -- --  -- -- -- -- -- -- -- --
0470:                                               5B                 [
0480: 7C 80 F8 FF FF 7F F8 FF  FF 7F 75 64 65 31 00     |.........ude1. 
```

#### Opcodes

```
  0: 0x047F [0x5B] LOAD_EXT_SCHEDULER: Load scheduler "ude1" with entities [EventEntity, EventEntity], work=905*
  1: 0x048E [0x00] END_REQSTACK()
```

### Event 65535.66

#### Metadata

| Field        | Value    |
|--------------|----------|
| Entrypoint   | 0x048F   |
| Data Size    | 14 bytes |
| Instructions | 2        |

```
      00 01 02 03 04 05 06 07  08 09 0A 0B 0C 0D 0E 0F
      -- -- -- -- -- -- -- --  -- -- -- -- -- -- -- --
0480:                                               53                 S
0490: F8 FF FF 7F F8 FF FF 7F  75 64 65 31 00           ........ude1.   
```

#### Opcodes

```
  0: 0x048F [0x53] WAIT_SCHEDULER_TASK: Wait for scheduler "ude1" with entities [EventEntity, EventEntity]
  1: 0x049C [0x00] END_REQSTACK()
```

### Event 65535.67

#### Metadata

| Field        | Value    |
|--------------|----------|
| Entrypoint   | 0x049D   |
| Data Size    | 16 bytes |
| Instructions | 2        |

```
      00 01 02 03 04 05 06 07  08 09 0A 0B 0C 0D 0E 0F
      -- -- -- -- -- -- -- --  -- -- -- -- -- -- -- --
0490:                                         5B 7D 80               [}.
04A0: F8 FF FF 7F F8 FF FF 7F  75 64 62 73 00           ........udbs.   
```

#### Opcodes

```
  0: 0x049D [0x5B] LOAD_EXT_SCHEDULER: Load scheduler "udbs" with entities [EventEntity, EventEntity], work=933*
  1: 0x04AC [0x00] END_REQSTACK()
```

### Event 65535.68

#### Metadata

| Field        | Value    |
|--------------|----------|
| Entrypoint   | 0x04AD   |
| Data Size    | 14 bytes |
| Instructions | 2        |

```
      00 01 02 03 04 05 06 07  08 09 0A 0B 0C 0D 0E 0F
      -- -- -- -- -- -- -- --  -- -- -- -- -- -- -- --
04A0:                                         53 F8 FF               S..
04B0: FF 7F F8 FF FF 7F 75 64  62 73 00                 ......udbs.     
```

#### Opcodes

```
  0: 0x04AD [0x53] WAIT_SCHEDULER_TASK: Wait for scheduler "udbs" with entities [EventEntity, EventEntity]
  1: 0x04BA [0x00] END_REQSTACK()
```

### Event 65535.69

#### Metadata

| Field        | Value    |
|--------------|----------|
| Entrypoint   | 0x04BB   |
| Data Size    | 16 bytes |
| Instructions | 2        |

```
      00 01 02 03 04 05 06 07  08 09 0A 0B 0C 0D 0E 0F
      -- -- -- -- -- -- -- --  -- -- -- -- -- -- -- --
04B0:                                   5B 7D 80 F8 FF             [}...
04C0: FF 7F F8 FF FF 7F 75 64  62 31 00                 ......udb1.     
```

#### Opcodes

```
  0: 0x04BB [0x5B] LOAD_EXT_SCHEDULER: Load scheduler "udb1" with entities [EventEntity, EventEntity], work=933*
  1: 0x04CA [0x00] END_REQSTACK()
```

### Event 65535.70

#### Metadata

| Field        | Value    |
|--------------|----------|
| Entrypoint   | 0x04CB   |
| Data Size    | 14 bytes |
| Instructions | 2        |

```
      00 01 02 03 04 05 06 07  08 09 0A 0B 0C 0D 0E 0F
      -- -- -- -- -- -- -- --  -- -- -- -- -- -- -- --
04C0:                                   53 F8 FF FF 7F             S....
04D0: F8 FF FF 7F 75 64 62 31  00                       ....udb1.       
```

#### Opcodes

```
  0: 0x04CB [0x53] WAIT_SCHEDULER_TASK: Wait for scheduler "udb1" with entities [EventEntity, EventEntity]
  1: 0x04D8 [0x00] END_REQSTACK()
```

### Event 65535.71

#### Metadata

| Field        | Value    |
|--------------|----------|
| Entrypoint   | 0x04D9   |
| Data Size    | 16 bytes |
| Instructions | 2        |

```
      00 01 02 03 04 05 06 07  08 09 0A 0B 0C 0D 0E 0F
      -- -- -- -- -- -- -- --  -- -- -- -- -- -- -- --
04D0:                             5B 7E 80 F8 FF FF 7F           [~.....
04E0: F8 FF FF 7F 75 73 69 30  00                       ....usi0.       
```

#### Opcodes

```
  0: 0x04D9 [0x5B] LOAD_EXT_SCHEDULER: Load scheduler "usi0" with entities [EventEntity, EventEntity], work=1069*
  1: 0x04E8 [0x00] END_REQSTACK()
```

### Event 65535.72

#### Metadata

| Field        | Value    |
|--------------|----------|
| Entrypoint   | 0x04E9   |
| Data Size    | 14 bytes |
| Instructions | 2        |

```
      00 01 02 03 04 05 06 07  08 09 0A 0B 0C 0D 0E 0F
      -- -- -- -- -- -- -- --  -- -- -- -- -- -- -- --
04E0:                             53 F8 FF FF 7F F8 FF           S......
04F0: FF 7F 75 73 69 30 00                              ..usi0.         
```

#### Opcodes

```
  0: 0x04E9 [0x53] WAIT_SCHEDULER_TASK: Wait for scheduler "usi0" with entities [EventEntity, EventEntity]
  1: 0x04F6 [0x00] END_REQSTACK()
```

### Event 65535.73

#### Metadata

| Field        | Value    |
|--------------|----------|
| Entrypoint   | 0x04F7   |
| Data Size    | 16 bytes |
| Instructions | 2        |

```
      00 01 02 03 04 05 06 07  08 09 0A 0B 0C 0D 0E 0F
      -- -- -- -- -- -- -- --  -- -- -- -- -- -- -- --
04F0:                      5B  7F 80 F8 FF FF 7F F8 FF         [........
0500: FF 7F 73 74 70 30 00                              ..stp0.         
```

#### Opcodes

```
  0: 0x04F7 [0x5B] LOAD_EXT_SCHEDULER: Load scheduler "stp0" with entities [EventEntity, EventEntity], work=1068*
  1: 0x0506 [0x00] END_REQSTACK()
```

### Event 65535.74

#### Metadata

| Field        | Value    |
|--------------|----------|
| Entrypoint   | 0x0507   |
| Data Size    | 14 bytes |
| Instructions | 2        |

```
      00 01 02 03 04 05 06 07  08 09 0A 0B 0C 0D 0E 0F
      -- -- -- -- -- -- -- --  -- -- -- -- -- -- -- --
0500:                      53  F8 FF FF 7F F8 FF FF 7F         S........
0510: 73 74 70 30 00                                    stp0.           
```

#### Opcodes

```
  0: 0x0507 [0x53] WAIT_SCHEDULER_TASK: Wait for scheduler "stp0" with entities [EventEntity, EventEntity]
  1: 0x0514 [0x00] END_REQSTACK()
```

### Event 65535.75

#### Metadata

| Field        | Value    |
|--------------|----------|
| Entrypoint   | 0x0515   |
| Data Size    | 16 bytes |
| Instructions | 2        |

```
      00 01 02 03 04 05 06 07  08 09 0A 0B 0C 0D 0E 0F
      -- -- -- -- -- -- -- --  -- -- -- -- -- -- -- --
0510:                5B 7F 80  F8 FF FF 7F F8 FF FF 7F       [..........
0520: 6D 6E 30 30 00                                    mn00.           
```

#### Opcodes

```
  0: 0x0515 [0x5B] LOAD_EXT_SCHEDULER: Load scheduler "mn00" with entities [EventEntity, EventEntity], work=1068*
  1: 0x0524 [0x00] END_REQSTACK()
```

### Event 65535.76

#### Metadata

| Field        | Value    |
|--------------|----------|
| Entrypoint   | 0x0525   |
| Data Size    | 14 bytes |
| Instructions | 2        |

```
      00 01 02 03 04 05 06 07  08 09 0A 0B 0C 0D 0E 0F
      -- -- -- -- -- -- -- --  -- -- -- -- -- -- -- --
0520:                53 F8 FF  FF 7F F8 FF FF 7F 6D 6E       S........mn
0530: 30 30 00                                          00.             
```

#### Opcodes

```
  0: 0x0525 [0x53] WAIT_SCHEDULER_TASK: Wait for scheduler "mn00" with entities [EventEntity, EventEntity]
  1: 0x0532 [0x00] END_REQSTACK()
```

### Event 65535.77

#### Metadata

| Field        | Value   |
|--------------|---------|
| Entrypoint   | 0x0533  |
| Data Size    | 9 bytes |
| Instructions | 3       |

```
      00 01 02 03 04 05 06 07  08 09 0A 0B 0C 0D 0E 0F
      -- -- -- -- -- -- -- --  -- -- -- -- -- -- -- --
0530:          5E 69 64 6C 30  1C 80 80 00                 ^idl0....    
```

#### Opcodes

```
  0: 0x0533 [0x5E] EventEntity goes idle (kills current action) (animation: "idl0")
  1: 0x0538 [0x1C] WAIT(60* ticks)
  2: 0x053B [0x00] END_REQSTACK()
```

### Event 65535.78

#### Metadata

| Field        | Value    |
|--------------|----------|
| Entrypoint   | 0x053C   |
| Data Size    | 16 bytes |
| Instructions | 2        |

```
      00 01 02 03 04 05 06 07  08 09 0A 0B 0C 0D 0E 0F
      -- -- -- -- -- -- -- --  -- -- -- -- -- -- -- --
0530:                                      5B 6D 80 F8              [m..
0540: FF FF 7F F8 FF FF 7F 73  69 6C 30 00              .......sil0.    
```

#### Opcodes

```
  0: 0x053C [0x5B] LOAD_EXT_SCHEDULER: Load scheduler "sil0" with entities [EventEntity, EventEntity], work=851*
  1: 0x054B [0x00] END_REQSTACK()
```

### Event 65535.79

#### Metadata

| Field        | Value    |
|--------------|----------|
| Entrypoint   | 0x054C   |
| Data Size    | 14 bytes |
| Instructions | 2        |

```
      00 01 02 03 04 05 06 07  08 09 0A 0B 0C 0D 0E 0F
      -- -- -- -- -- -- -- --  -- -- -- -- -- -- -- --
0540:                                      53 F8 FF FF              S...
0550: 7F F8 FF FF 7F 73 69 6C  30 00                    .....sil0.      
```

#### Opcodes

```
  0: 0x054C [0x53] WAIT_SCHEDULER_TASK: Wait for scheduler "sil0" with entities [EventEntity, EventEntity]
  1: 0x0559 [0x00] END_REQSTACK()
```

### Event 65535.80

#### Metadata

| Field        | Value    |
|--------------|----------|
| Entrypoint   | 0x055A   |
| Data Size    | 16 bytes |
| Instructions | 2        |

```
      00 01 02 03 04 05 06 07  08 09 0A 0B 0C 0D 0E 0F
      -- -- -- -- -- -- -- --  -- -- -- -- -- -- -- --
0550:                                5B 6D 80 F8 FF FF            [m....
0560: 7F F8 FF FF 7F 79 61 68  30 00                    .....yah0.      
```

#### Opcodes

```
  0: 0x055A [0x5B] LOAD_EXT_SCHEDULER: Load scheduler "yah0" with entities [EventEntity, EventEntity], work=851*
  1: 0x0569 [0x00] END_REQSTACK()
```

### Event 65535.81

#### Metadata

| Field        | Value    |
|--------------|----------|
| Entrypoint   | 0x056A   |
| Data Size    | 14 bytes |
| Instructions | 2        |

```
      00 01 02 03 04 05 06 07  08 09 0A 0B 0C 0D 0E 0F
      -- -- -- -- -- -- -- --  -- -- -- -- -- -- -- --
0560:                                53 F8 FF FF 7F F8            S.....
0570: FF FF 7F 79 61 68 30 00                           ...yah0.        
```

#### Opcodes

```
  0: 0x056A [0x53] WAIT_SCHEDULER_TASK: Wait for scheduler "yah0" with entities [EventEntity, EventEntity]
  1: 0x0577 [0x00] END_REQSTACK()
```

### Event 65535.82

#### Metadata

| Field        | Value    |
|--------------|----------|
| Entrypoint   | 0x0578   |
| Data Size    | 16 bytes |
| Instructions | 2        |

```
      00 01 02 03 04 05 06 07  08 09 0A 0B 0C 0D 0E 0F
      -- -- -- -- -- -- -- --  -- -- -- -- -- -- -- --
0570:                          5B 6A 80 F8 FF FF 7F F8          [j......
0580: FF FF 7F 74 6C 6B 30 00                           ...tlk0.        
```

#### Opcodes

```
  0: 0x0578 [0x5B] LOAD_EXT_SCHEDULER: Load scheduler "tlk0" with entities [EventEntity, EventEntity], work=858*
  1: 0x0587 [0x00] END_REQSTACK()
```

### Event 65535.83

#### Metadata

| Field        | Value    |
|--------------|----------|
| Entrypoint   | 0x0588   |
| Data Size    | 14 bytes |
| Instructions | 2        |

```
      00 01 02 03 04 05 06 07  08 09 0A 0B 0C 0D 0E 0F
      -- -- -- -- -- -- -- --  -- -- -- -- -- -- -- --
0580:                          53 F8 FF FF 7F F8 FF FF          S.......
0590: 7F 74 6C 6B 30 00                                 .tlk0.          
```

#### Opcodes

```
  0: 0x0588 [0x53] WAIT_SCHEDULER_TASK: Wait for scheduler "tlk0" with entities [EventEntity, EventEntity]
  1: 0x0595 [0x00] END_REQSTACK()
```

### Event 65535.84

#### Metadata

| Field        | Value    |
|--------------|----------|
| Entrypoint   | 0x0596   |
| Data Size    | 16 bytes |
| Instructions | 2        |

```
      00 01 02 03 04 05 06 07  08 09 0A 0B 0C 0D 0E 0F
      -- -- -- -- -- -- -- --  -- -- -- -- -- -- -- --
0590:                   5B 6A  80 F8 FF FF 7F F8 FF FF        [j........
05A0: 7F 74 6C 6B 31 00                                 .tlk1.          
```

#### Opcodes

```
  0: 0x0596 [0x5B] LOAD_EXT_SCHEDULER: Load scheduler "tlk1" with entities [EventEntity, EventEntity], work=858*
  1: 0x05A5 [0x00] END_REQSTACK()
```

### Event 65535.85

#### Metadata

| Field        | Value    |
|--------------|----------|
| Entrypoint   | 0x05A6   |
| Data Size    | 14 bytes |
| Instructions | 2        |

```
      00 01 02 03 04 05 06 07  08 09 0A 0B 0C 0D 0E 0F
      -- -- -- -- -- -- -- --  -- -- -- -- -- -- -- --
05A0:                   53 F8  FF FF 7F F8 FF FF 7F 74        S........t
05B0: 6C 6B 31 00                                       lk1.            
```

#### Opcodes

```
  0: 0x05A6 [0x53] WAIT_SCHEDULER_TASK: Wait for scheduler "tlk1" with entities [EventEntity, EventEntity]
  1: 0x05B3 [0x00] END_REQSTACK()
```

### Event 65535.86

#### Metadata

| Field        | Value    |
|--------------|----------|
| Entrypoint   | 0x05B4   |
| Data Size    | 44 bytes |
| Instructions | 4        |

```
      00 01 02 03 04 05 06 07  08 09 0A 0B 0C 0D 0E 0F
      -- -- -- -- -- -- -- --  -- -- -- -- -- -- -- --
05B0:             5B 6A 80 F8  FF FF 7F F8 FF FF 7F 74      [j.........t
05C0: 6C 6B 30 53 F8 FF FF 7F  F8 FF FF 7F 74 6C 6B 30  lk0S........tlk0
05D0: 5B 6A 80 F8 FF FF 7F F8  FF FF 7F 74 6C 6B 31 00  [j.........tlk1.
```

#### Opcodes

```
  0: 0x05B4 [0x5B] LOAD_EXT_SCHEDULER: Load scheduler "tlk0" with entities [EventEntity, EventEntity], work=858*
  1: 0x05C3 [0x53] WAIT_SCHEDULER_TASK: Wait for scheduler "tlk0" with entities [EventEntity, EventEntity]
  2: 0x05D0 [0x5B] LOAD_EXT_SCHEDULER: Load scheduler "tlk1" with entities [EventEntity, EventEntity], work=858*
  3: 0x05DF [0x00] END_REQSTACK()
```

### Event 65535.87

#### Metadata

| Field        | Value    |
|--------------|----------|
| Entrypoint   | 0x05E0   |
| Data Size    | 14 bytes |
| Instructions | 2        |

```
      00 01 02 03 04 05 06 07  08 09 0A 0B 0C 0D 0E 0F
      -- -- -- -- -- -- -- --  -- -- -- -- -- -- -- --
05E0: 53 F8 FF FF 7F F8 FF FF  7F 74 6C 6B 31 00        S........tlk1.  
```

#### Opcodes

```
  0: 0x05E0 [0x53] WAIT_SCHEDULER_TASK: Wait for scheduler "tlk1" with entities [EventEntity, EventEntity]
  1: 0x05ED [0x00] END_REQSTACK()
```

### Event 65535.88

#### Metadata

| Field        | Value    |
|--------------|----------|
| Entrypoint   | 0x05EE   |
| Data Size    | 16 bytes |
| Instructions | 2        |

```
      00 01 02 03 04 05 06 07  08 09 0A 0B 0C 0D 0E 0F
      -- -- -- -- -- -- -- --  -- -- -- -- -- -- -- --
05E0:                                            5B 6A                [j
05F0: 80 F8 FF FF 7F F8 FF FF  7F 74 68 6B 30 00        .........thk0.  
```

#### Opcodes

```
  0: 0x05EE [0x5B] LOAD_EXT_SCHEDULER: Load scheduler "thk0" with entities [EventEntity, EventEntity], work=858*
  1: 0x05FD [0x00] END_REQSTACK()
```

### Event 65535.89

#### Metadata

| Field        | Value    |
|--------------|----------|
| Entrypoint   | 0x05FE   |
| Data Size    | 14 bytes |
| Instructions | 2        |

```
      00 01 02 03 04 05 06 07  08 09 0A 0B 0C 0D 0E 0F
      -- -- -- -- -- -- -- --  -- -- -- -- -- -- -- --
05F0:                                            53 F8                S.
0600: FF FF 7F F8 FF FF 7F 74  68 6B 30 00              .......thk0.    
```

#### Opcodes

```
  0: 0x05FE [0x53] WAIT_SCHEDULER_TASK: Wait for scheduler "thk0" with entities [EventEntity, EventEntity]
  1: 0x060B [0x00] END_REQSTACK()
```

### Event 65535.90

#### Metadata

| Field        | Value    |
|--------------|----------|
| Entrypoint   | 0x060C   |
| Data Size    | 16 bytes |
| Instructions | 2        |

```
      00 01 02 03 04 05 06 07  08 09 0A 0B 0C 0D 0E 0F
      -- -- -- -- -- -- -- --  -- -- -- -- -- -- -- --
0600:                                      5B 6A 80 F8              [j..
0610: FF FF 7F F8 FF FF 7F 74  68 6B 31 00              .......thk1.    
```

#### Opcodes

```
  0: 0x060C [0x5B] LOAD_EXT_SCHEDULER: Load scheduler "thk1" with entities [EventEntity, EventEntity], work=858*
  1: 0x061B [0x00] END_REQSTACK()
```

### Event 65535.91

#### Metadata

| Field        | Value    |
|--------------|----------|
| Entrypoint   | 0x061C   |
| Data Size    | 14 bytes |
| Instructions | 2        |

```
      00 01 02 03 04 05 06 07  08 09 0A 0B 0C 0D 0E 0F
      -- -- -- -- -- -- -- --  -- -- -- -- -- -- -- --
0610:                                      53 F8 FF FF              S...
0620: 7F F8 FF FF 7F 74 68 6B  31 00                    .....thk1.      
```

#### Opcodes

```
  0: 0x061C [0x53] WAIT_SCHEDULER_TASK: Wait for scheduler "thk1" with entities [EventEntity, EventEntity]
  1: 0x0629 [0x00] END_REQSTACK()
```

### Event 65535.92

#### Metadata

| Field        | Value    |
|--------------|----------|
| Entrypoint   | 0x062A   |
| Data Size    | 16 bytes |
| Instructions | 2        |

```
      00 01 02 03 04 05 06 07  08 09 0A 0B 0C 0D 0E 0F
      -- -- -- -- -- -- -- --  -- -- -- -- -- -- -- --
0620:                                5B 6A 80 F8 FF FF            [j....
0630: 7F F8 FF FF 7F 74 6B 61  30 00                    .....tka0.      
```

#### Opcodes

```
  0: 0x062A [0x5B] LOAD_EXT_SCHEDULER: Load scheduler "tka0" with entities [EventEntity, EventEntity], work=858*
  1: 0x0639 [0x00] END_REQSTACK()
```

### Event 65535.93

#### Metadata

| Field        | Value    |
|--------------|----------|
| Entrypoint   | 0x063A   |
| Data Size    | 14 bytes |
| Instructions | 2        |

```
      00 01 02 03 04 05 06 07  08 09 0A 0B 0C 0D 0E 0F
      -- -- -- -- -- -- -- --  -- -- -- -- -- -- -- --
0630:                                53 F8 FF FF 7F F8            S.....
0640: FF FF 7F 74 6B 61 30 00                           ...tka0.        
```

#### Opcodes

```
  0: 0x063A [0x53] WAIT_SCHEDULER_TASK: Wait for scheduler "tka0" with entities [EventEntity, EventEntity]
  1: 0x0647 [0x00] END_REQSTACK()
```

### Event 65535.94

#### Metadata

| Field        | Value    |
|--------------|----------|
| Entrypoint   | 0x0648   |
| Data Size    | 16 bytes |
| Instructions | 2        |

```
      00 01 02 03 04 05 06 07  08 09 0A 0B 0C 0D 0E 0F
      -- -- -- -- -- -- -- --  -- -- -- -- -- -- -- --
0640:                          5B 6A 80 F8 FF FF 7F F8          [j......
0650: FF FF 7F 74 6B 61 31 00                           ...tka1.        
```

#### Opcodes

```
  0: 0x0648 [0x5B] LOAD_EXT_SCHEDULER: Load scheduler "tka1" with entities [EventEntity, EventEntity], work=858*
  1: 0x0657 [0x00] END_REQSTACK()
```

### Event 65535.95

