# 16982321 - Foudeel

## Common Data

| Field            | Value                          |
|------------------|--------------------------------|
| Zone             | Aht Urhgan Whitegate2 (ID: 50) |
| Block Size       | 552 bytes                      |
| Total Events     | 16                             |
| References Count | 50                             |

## List of Events

| Event ID                   | Entrypoint   |   Size |   Instructions |
|----------------------------|--------------|--------|----------------|
| [65535](#event-65535)      | 0x0000       |      1 |              1 |
| [65535.1](#event-655351)   | 0x0001       |     24 |              3 |
| [65535.2](#event-655352)   | 0x0019       |     22 |              3 |
| [65535.3](#event-655353)   | 0x002F       |     15 |              3 |
| [65535.4](#event-655354)   | 0x003E       |     15 |              3 |
| [65535.5](#event-655355)   | 0x004D       |     13 |              3 |
| [269](#event-269)          | 0x005A       |      1 |              1 |
| [65535.6](#event-655356)   | 0x005B       |     15 |              3 |
| [65535.7](#event-655357)   | 0x006A       |     22 |              6 |
| [65535.8](#event-655358)   | 0x0080       |     24 |              6 |
| [65535.9](#event-655359)   | 0x0098       |     19 |              5 |
| [65535.10](#event-6553510) | 0x00AB       |     14 |              4 |
| [65535.11](#event-6553511) | 0x00B9       |     20 |              4 |
| [65535.12](#event-6553512) | 0x00CD       |     35 |              7 |
| [65535.13](#event-6553513) | 0x00F0       |     15 |              3 |
| [65535.14](#event-6553514) | 0x00FF       |     14 |              4 |

## DAT References (imed_data)

|   Index | Hex Value   |   Dec Value |
|---------|-------------|-------------|
|       0 | 0x0000      |           0 |
|       1 | 0x0001      |           1 |
|       2 | 0x0005      |           5 |
|       3 | 0x008A      |         138 |
|       4 | 0x00F9      |         249 |
|       5 | 0x72BE9     |      469993 |
|       6 | 0x398BA     |      235706 |
|       7 | 0xFFFFA304  |  4294943492 |
|       8 | 0x04D4      |        1236 |
|       9 | 0x8E7D0     |      583632 |
|      10 | 0x575D5     |      357845 |
|      11 | 0xFFFF99AB  |  4294941099 |
|      12 | 0x035D      |         861 |
|      13 | 0x002B      |          43 |
|      14 | 0x1BB66     |      113510 |
|      15 | 0x36FE      |       14078 |
|      16 | 0x09A9      |        2473 |
|      17 | 0x0028      |          40 |
|      18 | 0x1B02A     |      110634 |
|      19 | 0x3B0E      |       15118 |
|      20 | 0x001E      |          30 |
|      21 | 0x000D      |          13 |
|      22 | 0x1B4B8     |      111800 |
|      23 | 0x4E75      |       20085 |
|      24 | 0x1B55C     |      111964 |
|      25 | 0x6A0A      |       27146 |
|      26 | 0xFFFFFEC5  |  4294966981 |
|      27 | 0x1D53D     |      120125 |
|      28 | 0x7A54      |       31316 |
|      29 | 0x1DE7F     |      122495 |
|      30 | 0x7D81      |       32129 |
|      31 | 0xFFFCD584  |  4294759812 |
|      32 | 0xFFF40FB1  |  4294184881 |
|      33 | 0xFFFFD361  |  4294955873 |
|      34 | 0x0B0B      |        2827 |
|      35 | 0xFFFD3495  |  4294784149 |
|      36 | 0xFFF363A0  |  4294140832 |
|      37 | 0xFFFFE8EA  |  4294961386 |
|      38 | 0x0414      |        1044 |
|      39 | 0xFFFD41FF  |  4294787583 |
|      40 | 0xFFF354F0  |  4294137072 |
|      41 | 0xFFFFEC96  |  4294962326 |
|      42 | 0x0373      |         883 |
|      43 | 0xFFFB2BE2  |  4294650850 |
|      44 | 0xFFFACD17  |  4294626583 |
|      45 | 0xFFFFDAF1  |  4294957809 |
|      46 | 0x080A      |        2058 |
|      47 | 0xFFFAE3C1  |  4294632385 |
|      48 | 0xFFFAC137  |  4294623543 |
|      49 | 0xFFFFDB6A  |  4294957930 |

## Events

### Event 65535

#### Metadata

| Field        | Value   |
|--------------|---------|
| Entrypoint   | 0x0000  |
| Data Size    | 1 bytes |
| Instructions | 1       |

```
      00 01 02 03 04 05 06 07  08 09 0A 0B 0C 0D 0E 0F
      -- -- -- -- -- -- -- --  -- -- -- -- -- -- -- --
0000: 00                                                .               
```

#### Opcodes

```
  0: 0x0000 [0x00] END_REQSTACK()
```

### Event 65535.1

#### Metadata

| Field        | Value    |
|--------------|----------|
| Entrypoint   | 0x0001   |
| Data Size    | 24 bytes |
| Instructions | 3        |

```
      00 01 02 03 04 05 06 07  08 09 0A 0B 0C 0D 0E 0F
      -- -- -- -- -- -- -- --  -- -- -- -- -- -- -- --
0000:    95 00 80 B6 0B 01 80  02 80 00 80 03 80 03 80   ...............
0010: 03 80 03 80 04 80 00 80  00                       .........       
```

#### Opcodes

```
  0: 0x0001 [0x95] SETUP_EVENT_NPC: Prepare NPC for event (Render.Flags3 = 0*)
  1: 0x0004 [0xB6] ENTITY_APPEARANCE_HANDLER(case=Full entity look, race=1*, hair=5*, head=0*, body=138*, hands=138*, legs=138*, feet=138*, main=249*, sub=0*)
  2: 0x0018 [0x00] END_REQSTACK()
```

### Event 65535.2

#### Metadata

| Field        | Value    |
|--------------|----------|
| Entrypoint   | 0x0019   |
| Data Size    | 22 bytes |
| Instructions | 3        |

```
      00 01 02 03 04 05 06 07  08 09 0A 0B 0C 0D 0E 0F
      -- -- -- -- -- -- -- --  -- -- -- -- -- -- -- --
0010:                             96 B6 0B 01 80 02 80           .......
0020: 00 80 03 80 03 80 03 80  03 80 00 80 00 80 00     ............... 
```

#### Opcodes

```
  0: 0x0019 [0x96] UNSET_EVENT_NPC: Restore NPC after event (removes event NPC status)
  1: 0x001A [0xB6] ENTITY_APPEARANCE_HANDLER(case=Full entity look, race=1*, hair=5*, head=0*, body=138*, hands=138*, legs=138*, feet=138*, main=0*, sub=0*)
  2: 0x002E [0x00] END_REQSTACK()
```

### Event 65535.3

#### Metadata

| Field        | Value    |
|--------------|----------|
| Entrypoint   | 0x002F   |
| Data Size    | 15 bytes |
| Instructions | 3        |

```
      00 01 02 03 04 05 06 07  08 09 0A 0B 0C 0D 0E 0F
      -- -- -- -- -- -- -- --  -- -- -- -- -- -- -- --
0020:                                               37                 7
0030: 05 80 06 80 07 80 08 80  80 F8 FF FF 7F 00        ..............  
```

#### Opcodes

```
  0: 0x002F [0x37] UPDATE_EVENT_POSITION_AND_DIR: x=469.993*, z=235.706*, y=-23.804*, direction=108.6°*
  1: 0x0038 [0x80] LOAD_WAIT(entity=EventEntity)
  2: 0x003D [0x00] END_REQSTACK()
```

### Event 65535.4

#### Metadata

| Field        | Value    |
|--------------|----------|
| Entrypoint   | 0x003E   |
| Data Size    | 15 bytes |
| Instructions | 3        |

```
      00 01 02 03 04 05 06 07  08 09 0A 0B 0C 0D 0E 0F
      -- -- -- -- -- -- -- --  -- -- -- -- -- -- -- --
0030:                                            37 09                7.
0040: 80 0A 80 0B 80 0C 80 80  F8 FF FF 7F 00           .............   
```

#### Opcodes

```
  0: 0x003E [0x37] UPDATE_EVENT_POSITION_AND_DIR: x=583.632*, z=357.845*, y=-26.197*, direction=75.7°*
  1: 0x0047 [0x80] LOAD_WAIT(entity=EventEntity)
  2: 0x004C [0x00] END_REQSTACK()
```

### Event 65535.5

#### Metadata

| Field        | Value    |
|--------------|----------|
| Entrypoint   | 0x004D   |
| Data Size    | 13 bytes |
| Instructions | 3        |

```
      00 01 02 03 04 05 06 07  08 09 0A 0B 0C 0D 0E 0F
      -- -- -- -- -- -- -- --  -- -- -- -- -- -- -- --
0040:                                         6E 31 21               n1!
0050: 03 01 0D 80 99 31 21 03  01 00                    .....1!...      
```

#### Opcodes

```
  0: 0x004D [0x6E] Foudeel (ID: 16982321/0x01032131) uses emote 43*
  1: 0x0054 [0x99] Wait for Foudeel (ID: 16982321/0x01032131) animation to complete
  2: 0x0059 [0x00] END_REQSTACK()
```

### Event 269

#### Metadata

| Field        | Value   |
|--------------|---------|
| Entrypoint   | 0x005A  |
| Data Size    | 1 bytes |
| Instructions | 1       |

```
      00 01 02 03 04 05 06 07  08 09 0A 0B 0C 0D 0E 0F
      -- -- -- -- -- -- -- --  -- -- -- -- -- -- -- --
0050:                                00                           .     
```

#### Opcodes

```
  0: 0x005A [0x00] END_REQSTACK()
```

### Event 65535.6

#### Metadata

| Field        | Value    |
|--------------|----------|
| Entrypoint   | 0x005B   |
| Data Size    | 15 bytes |
| Instructions | 3        |

```
      00 01 02 03 04 05 06 07  08 09 0A 0B 0C 0D 0E 0F
      -- -- -- -- -- -- -- --  -- -- -- -- -- -- -- --
0050:                                   37 0E 80 0F 80             7....
0060: 00 80 10 80 80 F8 FF FF  7F 00                    ..........      
```

#### Opcodes

```
  0: 0x005B [0x37] UPDATE_EVENT_POSITION_AND_DIR: x=113.510*, z=14.078*, y=0.000*, direction=217.3°*
  1: 0x0064 [0x80] LOAD_WAIT(entity=EventEntity)
  2: 0x0069 [0x00] END_REQSTACK()
```

### Event 65535.7

#### Metadata

| Field        | Value    |
|--------------|----------|
| Entrypoint   | 0x006A   |
| Data Size    | 22 bytes |
| Instructions | 6        |

```
      00 01 02 03 04 05 06 07  08 09 0A 0B 0C 0D 0E 0F
      -- -- -- -- -- -- -- --  -- -- -- -- -- -- -- --
0060:                                32 11 80 1F 00 12            2.....
0070: 80 13 80 00 80 1F 01 1E  30 21 03 01 1C 14 80 00  ........0!......
```

#### Opcodes

```
  0: 0x006A [0x32] ExtData[1]->MainSpeed = 40* * 0.1
  1: 0x006D [0x1F] MOVE_ENTITY: EventEntity moves to X=110.634*, Z=15.118*, Y=0.000*
  2: 0x0075 [0x1F] MOVE_ENTITY: Update entity position (mode=1)
  3: 0x0077 [0x1E] EventEntity looks at Bashraf (ID: 16982320/0x01032130) and starts talking
  4: 0x007C [0x1C] WAIT(30* ticks)
  5: 0x007F [0x00] END_REQSTACK()
```

### Event 65535.8

#### Metadata

| Field        | Value    |
|--------------|----------|
| Entrypoint   | 0x0080   |
| Data Size    | 24 bytes |
| Instructions | 6        |

```
      00 01 02 03 04 05 06 07  08 09 0A 0B 0C 0D 0E 0F
      -- -- -- -- -- -- -- --  -- -- -- -- -- -- -- --
0080: 32 15 80 1F 00 16 80 17  80 00 80 1F 01 1F 00 18  2...............
0090: 80 19 80 1A 80 1F 01 00                           ........        
```

#### Opcodes

```
  0: 0x0080 [0x32] ExtData[1]->MainSpeed = 13* * 0.1
  1: 0x0083 [0x1F] MOVE_ENTITY: EventEntity moves to X=111.800*, Z=20.085*, Y=0.000*
  2: 0x008B [0x1F] MOVE_ENTITY: Update entity position (mode=1)
  3: 0x008D [0x1F] MOVE_ENTITY: EventEntity moves to X=111.964*, Z=27.146*, Y=-0.315*
  4: 0x0095 [0x1F] MOVE_ENTITY: Update entity position (mode=1)
  5: 0x0097 [0x00] END_REQSTACK()
```

### Event 65535.9

#### Metadata

| Field        | Value    |
|--------------|----------|
| Entrypoint   | 0x0098   |
| Data Size    | 19 bytes |
| Instructions | 5        |

```
      00 01 02 03 04 05 06 07  08 09 0A 0B 0C 0D 0E 0F
      -- -- -- -- -- -- -- --  -- -- -- -- -- -- -- --
0090:                          32 15 80 1F 00 1B 80 1C          2.......
00A0: 80 1A 80 1F 01 1E 35 20  03 01 00                 ......5 ...     
```

#### Opcodes

```
  0: 0x0098 [0x32] ExtData[1]->MainSpeed = 13* * 0.1
  1: 0x009B [0x1F] MOVE_ENTITY: EventEntity moves to X=120.125*, Z=31.316*, Y=-0.315*
  2: 0x00A3 [0x1F] MOVE_ENTITY: Update entity position (mode=1)
  3: 0x00A5 [0x1E] EventEntity looks at Sharin-Garin (ID: 16982069/0x01032035) and starts talking
  4: 0x00AA [0x00] END_REQSTACK()
```

### Event 65535.10

#### Metadata

| Field        | Value    |
|--------------|----------|
| Entrypoint   | 0x00AB   |
| Data Size    | 14 bytes |
| Instructions | 4        |

```
      00 01 02 03 04 05 06 07  08 09 0A 0B 0C 0D 0E 0F
      -- -- -- -- -- -- -- --  -- -- -- -- -- -- -- --
00A0:                                   32 15 80 1F 00             2....
00B0: 1D 80 1E 80 1A 80 1F 01  00                       .........       
```

#### Opcodes

```
  0: 0x00AB [0x32] ExtData[1]->MainSpeed = 13* * 0.1
  1: 0x00AE [0x1F] MOVE_ENTITY: EventEntity moves to X=122.495*, Z=32.129*, Y=-0.315*
  2: 0x00B6 [0x1F] MOVE_ENTITY: Update entity position (mode=1)
  3: 0x00B8 [0x00] END_REQSTACK()
```

### Event 65535.11

#### Metadata

| Field        | Value    |
|--------------|----------|
| Entrypoint   | 0x00B9   |
| Data Size    | 20 bytes |
| Instructions | 4        |

```
      00 01 02 03 04 05 06 07  08 09 0A 0B 0C 0D 0E 0F
      -- -- -- -- -- -- -- --  -- -- -- -- -- -- -- --
00B0:                             37 1F 80 20 80 21 80           7.. .!.
00C0: 22 80 80 F8 FF FF 7F 1E  A5 20 03 01 00           "........ ...   
```

#### Opcodes

```
  0: 0x00B9 [0x37] UPDATE_EVENT_POSITION_AND_DIR: x=-207.484*, z=-782.415*, y=-11.423*, direction=248.5°*
  1: 0x00C2 [0x80] LOAD_WAIT(entity=EventEntity)
  2: 0x00C7 [0x1E] EventEntity looks at Unnamed NPC (ID: 16982181/0x010320A5) and starts talking
  3: 0x00CC [0x00] END_REQSTACK()
```

### Event 65535.12

#### Metadata

| Field        | Value    |
|--------------|----------|
| Entrypoint   | 0x00CD   |
| Data Size    | 35 bytes |
| Instructions | 7        |

```
      00 01 02 03 04 05 06 07  08 09 0A 0B 0C 0D 0E 0F
      -- -- -- -- -- -- -- --  -- -- -- -- -- -- -- --
00C0:                                         37 23 80               7#.
00D0: 24 80 25 80 26 80 80 F8  FF FF 7F 32 15 80 1F 00  $.%.&......2....
00E0: 27 80 28 80 29 80 1F 01  4B 31 21 03 01 2A 80 00  '.(.)...K1!..*..
```

#### Opcodes

```
  0: 0x00CD [0x37] UPDATE_EVENT_POSITION_AND_DIR: x=-183.147*, z=-826.464*, y=-5.910*, direction=91.8°*
  1: 0x00D6 [0x80] LOAD_WAIT(entity=EventEntity)
  2: 0x00DB [0x32] ExtData[1]->MainSpeed = 13* * 0.1
  3: 0x00DE [0x1F] MOVE_ENTITY: EventEntity moves to X=-179.713*, Z=-830.224*, Y=-4.970*
  4: 0x00E6 [0x1F] MOVE_ENTITY: Update entity position (mode=1)
  5: 0x00E8 [0x4B] UPDATE_ENTITY_YAW(entity=Foudeel (ID: 16982321/0x01032131), yaw=4.9°*)
  6: 0x00EF [0x00] END_REQSTACK()
```

### Event 65535.13

#### Metadata

| Field        | Value    |
|--------------|----------|
| Entrypoint   | 0x00F0   |
| Data Size    | 15 bytes |
| Instructions | 3        |

```
      00 01 02 03 04 05 06 07  08 09 0A 0B 0C 0D 0E 0F
      -- -- -- -- -- -- -- --  -- -- -- -- -- -- -- --
00F0: 37 2B 80 2C 80 2D 80 2E  80 80 F8 FF FF 7F 00     7+.,.-......... 
```

#### Opcodes

```
  0: 0x00F0 [0x37] UPDATE_EVENT_POSITION_AND_DIR: x=-316.446*, z=-340.713*, y=-9.487*, direction=180.9°*
  1: 0x00F9 [0x80] LOAD_WAIT(entity=EventEntity)
  2: 0x00FE [0x00] END_REQSTACK()
```

### Event 65535.14

#### Metadata

| Field        | Value    |
|--------------|----------|
| Entrypoint   | 0x00FF   |
| Data Size    | 14 bytes |
| Instructions | 4        |

```
      00 01 02 03 04 05 06 07  08 09 0A 0B 0C 0D 0E 0F
      -- -- -- -- -- -- -- --  -- -- -- -- -- -- -- --
00F0:                                               32                 2
0100: 11 80 1F 00 2F 80 30 80  31 80 1F 01 00           ..../.0.1....   
```

#### Opcodes

```
  0: 0x00FF [0x32] ExtData[1]->MainSpeed = 40* * 0.1
  1: 0x0102 [0x1F] MOVE_ENTITY: EventEntity moves to X=-334.911*, Z=-343.753*, Y=-9.366*
  2: 0x010A [0x1F] MOVE_ENTITY: Update entity position (mode=1)
  3: 0x010C [0x00] END_REQSTACK()
```
