# 16982365 - Biyaada

## Common Data

| Field            | Value                          |
|------------------|--------------------------------|
| Zone             | Aht Urhgan Whitegate2 (ID: 50) |
| Block Size       | 1048 bytes                     |
| Total Events     | 35                             |
| References Count | 66                             |

## List of Events

| Event ID                    | Entrypoint   |   Size |   Instructions |
|-----------------------------|--------------|--------|----------------|
| [65535](#event-65535)       | 0x0000       |      1 |              1 |
| [823](#event-823)           | 0x0001       |      1 |              1 |
| [824](#event-824)           | 0x0002       |      1 |              1 |
| [825](#event-825)           | 0x0003       |      1 |              1 |
| [941](#event-941)           | 0x0004       |      1 |              1 |
| [65535.1](#event-65535-1)   | 0x0005       |     38 |              8 |
| [65535.2](#event-65535-2)   | 0x002B       |     26 |              8 |
| [65535.3](#event-65535-3)   | 0x0045       |      4 |              2 |
| [920](#event-920)           | 0x0049       |      1 |              1 |
| [921](#event-921)           | 0x004A       |      1 |              1 |
| [65535.4](#event-65535-4)   | 0x004B       |     19 |              4 |
| [65535.5](#event-65535-5)   | 0x005E       |     19 |              4 |
| [65535.6](#event-65535-6)   | 0x0071       |     19 |              4 |
| [65535.7](#event-65535-7)   | 0x0084       |     19 |              4 |
| [65535.8](#event-65535-8)   | 0x0097       |     19 |              4 |
| [65535.9](#event-65535-9)   | 0x00AA       |     13 |              3 |
| [65535.10](#event-65535-10) | 0x00B7       |     19 |              4 |
| [65535.11](#event-65535-11) | 0x00CA       |     19 |              4 |
| [65535.12](#event-65535-12) | 0x00DD       |     19 |              4 |
| [65535.13](#event-65535-13) | 0x00F0       |     28 |              7 |
| [65535.14](#event-65535-14) | 0x010C       |     11 |              3 |
| [65535.15](#event-65535-15) | 0x0117       |     34 |              8 |
| [65535.16](#event-65535-16) | 0x0139       |     67 |             13 |
| [65535.17](#event-65535-17) | 0x017C       |     37 |              7 |
| [65535.18](#event-65535-18) | 0x01A1       |     37 |              7 |
| [65535.19](#event-65535-19) | 0x01C6       |     15 |              5 |
| [65535.20](#event-65535-20) | 0x01D5       |      5 |              2 |
| [65535.21](#event-65535-21) | 0x01DA       |      5 |              2 |
| [65535.22](#event-65535-22) | 0x01DF       |      5 |              2 |
| [65535.23](#event-65535-23) | 0x01E4       |      5 |              2 |
| [65535.24](#event-65535-24) | 0x01E9       |     27 |              7 |
| [65535.25](#event-65535-25) | 0x0204       |     27 |              7 |
| [65535.26](#event-65535-26) | 0x021F       |     40 |              6 |
| [65535.27](#event-65535-27) | 0x0247       |     19 |              3 |
| [65535.28](#event-65535-28) | 0x025A       |     24 |              6 |

## DAT References (imed_data)

|   Index | Hex Value   |   Dec Value |
|---------|-------------|-------------|
|       0 | 0x14C2E     |       85038 |
|       1 | 0xFFFE0181  |  4294836609 |
|       2 | 0xFFFFE891  |  4294961297 |
|       3 | 0x0417      |        1047 |
|       4 | 0x0028      |          40 |
|       5 | 0x14D9A     |       85402 |
|       6 | 0xFFFDF028  |  4294832168 |
|       7 | 0x13F1F     |       81695 |
|       8 | 0xFFFDED31  |  4294831409 |
|       9 | 0x14909     |       84233 |
|      10 | 0xFFFDF1BF  |  4294832575 |
|      11 | 0xFFFFE890  |  4294961296 |
|      12 | 0x147AE     |       83886 |
|      13 | 0xFFFDFF5B  |  4294836059 |
|      14 | 0x0726      |        1830 |
|      15 | 0x0027      |          39 |
|      16 | 0x138CF     |       80079 |
|      17 | 0xFFFDF22F  |  4294832687 |
|      18 | 0x000D      |          13 |
|      19 | 0x14661     |       83553 |
|      20 | 0xFFFE030D  |  4294837005 |
|      21 | 0x0025      |          37 |
|      22 | 0x148F7     |       84215 |
|      23 | 0xFFFE0A93  |  4294838931 |
|      24 | 0x13583     |       79235 |
|      25 | 0xFFFDEB63  |  4294830947 |
|      26 | 0x13A07     |       80391 |
|      27 | 0xFFFDE965  |  4294830437 |
|      28 | 0x0026      |          38 |
|      29 | 0x000F      |          15 |
|      30 | 0x13A8E     |       80526 |
|      31 | 0xFFFDF578  |  4294833528 |
|      32 | 0x000B      |          11 |
|      33 | 0x13B2A     |       80682 |
|      34 | 0xFFFE06AB  |  4294837931 |
|      35 | 0xFFFE2203  |  4294844931 |
|      36 | 0x13359     |       78681 |
|      37 | 0xFFFDFA56  |  4294834774 |
|      38 | 0x001E      |          30 |
|      39 | 0x02A8      |         680 |
|      40 | 0x13332     |       78642 |
|      41 | 0xFFFE2D9D  |  4294847901 |
|      42 | 0x0003      |           3 |
|      43 | 0x0002      |           2 |
|      44 | 0x0005      |           5 |
|      45 | 0x0530      |        1328 |
|      46 | 0x0004      |           4 |
|      47 | 0x0008      |           8 |
|      48 | 0x0001      |           1 |
|      49 | 0x000A      |          10 |
|      50 | 0x0041      |          65 |
|      51 | 0xFFFE615D  |  4294861149 |
|      52 | 0x8576      |       34166 |
|      53 | 0x0000      |           0 |
|      54 | 0x004B      |          75 |
|      55 | 0xFFFFE9BC  |  4294961596 |
|      56 | 0xFFFF9148  |  4294938952 |
|      57 | 0xFFFFF154  |  4294963540 |
|      58 | 0xFFFF934E  |  4294939470 |
|      59 | 0xFFFFF67A  |  4294964858 |
|      60 | 0xFFFF94DE  |  4294939870 |
|      61 | 0x001D      |          29 |
|      62 | 0x002D      |          45 |
|      63 | 0x002A      |          42 |
|      64 | 0x151E7     |       86503 |
|      65 | 0xFFFE0500  |  4294837504 |

## Events

### Event 65535

#### Metadata

| Field        | Value   |
|--------------|---------|
| Entrypoint   | 0x0000  |
| Data Size    | 1 bytes |
| Instructions | 1       |

```
      00 01 02 03 04 05 06 07  08 09 0A 0B 0C 0D 0E 0F
      -- -- -- -- -- -- -- --  -- -- -- -- -- -- -- --
0000: 00                                                .               
```

#### Opcodes

```
  0: 0x0000 [0x00] END_REQSTACK()
```

### Event 823

#### Metadata

| Field        | Value   |
|--------------|---------|
| Entrypoint   | 0x0001  |
| Data Size    | 1 bytes |
| Instructions | 1       |

```
      00 01 02 03 04 05 06 07  08 09 0A 0B 0C 0D 0E 0F
      -- -- -- -- -- -- -- --  -- -- -- -- -- -- -- --
0000:    00                                              .              
```

#### Opcodes

```
  0: 0x0001 [0x00] END_REQSTACK()
```

### Event 824

#### Metadata

| Field        | Value   |
|--------------|---------|
| Entrypoint   | 0x0002  |
| Data Size    | 1 bytes |
| Instructions | 1       |

```
      00 01 02 03 04 05 06 07  08 09 0A 0B 0C 0D 0E 0F
      -- -- -- -- -- -- -- --  -- -- -- -- -- -- -- --
0000:       00                                            .             
```

#### Opcodes

```
  0: 0x0002 [0x00] END_REQSTACK()
```

### Event 825

#### Metadata

| Field        | Value   |
|--------------|---------|
| Entrypoint   | 0x0003  |
| Data Size    | 1 bytes |
| Instructions | 1       |

```
      00 01 02 03 04 05 06 07  08 09 0A 0B 0C 0D 0E 0F
      -- -- -- -- -- -- -- --  -- -- -- -- -- -- -- --
0000:          00                                          .            
```

#### Opcodes

```
  0: 0x0003 [0x00] END_REQSTACK()
```

### Event 941

#### Metadata

| Field        | Value   |
|--------------|---------|
| Entrypoint   | 0x0004  |
| Data Size    | 1 bytes |
| Instructions | 1       |

```
      00 01 02 03 04 05 06 07  08 09 0A 0B 0C 0D 0E 0F
      -- -- -- -- -- -- -- --  -- -- -- -- -- -- -- --
0000:             00                                        .           
```

#### Opcodes

```
  0: 0x0004 [0x00] END_REQSTACK()
```

### Event 65535.1

#### Metadata

| Field        | Value    |
|--------------|----------|
| Entrypoint   | 0x0005   |
| Data Size    | 38 bytes |
| Instructions | 8        |

```
      00 01 02 03 04 05 06 07  08 09 0A 0B 0C 0D 0E 0F
      -- -- -- -- -- -- -- --  -- -- -- -- -- -- -- --
0000:                37 00 80  01 80 02 80 03 80 32 04       7........2.
0010: 80 1F 00 05 80 06 80 02  80 1F 01 1F 00 07 80 08  ................
0020: 80 02 80 1F 01 1E 5C 21  03 01 00                 ......\!...     
```

#### Opcodes

```
  0: 0x0005 [0x37] UPDATE_EVENT_POSITION_AND_DIR: x=85.038*, z=-130.687*, y=-5.999*, direction=92.0°*
  1: 0x000E [0x32] ExtData[1]->MainSpeed = 40* * 0.1
  2: 0x0011 [0x1F] MOVE_ENTITY: EventEntity moves to X=85.402*, Z=-135.128*, Y=-5.999*
  3: 0x0019 [0x1F] MOVE_ENTITY: Update entity position (mode=1)
  4: 0x001B [0x1F] MOVE_ENTITY: EventEntity moves to X=81.695*, Z=-135.887*, Y=-5.999*
  5: 0x0023 [0x1F] MOVE_ENTITY: Update entity position (mode=1)
  6: 0x0025 [0x1E] EventEntity looks at Fari-Wari (ID: 16982364/0x0103215C) and starts talking
  7: 0x002A [0x00] END_REQSTACK()
```

### Event 65535.2

#### Metadata

| Field        | Value    |
|--------------|----------|
| Entrypoint   | 0x002B   |
| Data Size    | 26 bytes |
| Instructions | 8        |

```
      00 01 02 03 04 05 06 07  08 09 0A 0B 0C 0D 0E 0F
      -- -- -- -- -- -- -- --  -- -- -- -- -- -- -- --
0020:                                   32 04 80 1F 00             2....
0030: 09 80 0A 80 0B 80 1F 01  6F 1F 00 0C 80 0D 80 0B  ........o.......
0040: 80 1F 01 6F 00                                    ...o.           
```

#### Opcodes

```
  0: 0x002B [0x32] ExtData[1]->MainSpeed = 40* * 0.1
  1: 0x002E [0x1F] MOVE_ENTITY: EventEntity moves to X=84.233*, Z=-134.721*, Y=-6.000*
  2: 0x0036 [0x1F] MOVE_ENTITY: Update entity position (mode=1)
  3: 0x0038 [0x6F] WAIT_FRAME_DELAY: Yield until WaitTime reaches zero
  4: 0x0039 [0x1F] MOVE_ENTITY: EventEntity moves to X=83.886*, Z=-131.237*, Y=-6.000*
  5: 0x0041 [0x1F] MOVE_ENTITY: Update entity position (mode=1)
  6: 0x0043 [0x6F] WAIT_FRAME_DELAY: Yield until WaitTime reaches zero
  7: 0x0044 [0x00] END_REQSTACK()
```

### Event 65535.3

#### Metadata

| Field        | Value   |
|--------------|---------|
| Entrypoint   | 0x0045  |
| Data Size    | 4 bytes |
| Instructions | 2       |

```
      00 01 02 03 04 05 06 07  08 09 0A 0B 0C 0D 0E 0F
      -- -- -- -- -- -- -- --  -- -- -- -- -- -- -- --
0040:                39 0E 80  00                            9...       
```

#### Opcodes

```
  0: 0x0045 [0x39] SET_ENTITY_DIRECTION(direction=10.1°*)
  1: 0x0048 [0x00] END_REQSTACK()
```

### Event 920

#### Metadata

| Field        | Value   |
|--------------|---------|
| Entrypoint   | 0x0049  |
| Data Size    | 1 bytes |
| Instructions | 1       |

```
      00 01 02 03 04 05 06 07  08 09 0A 0B 0C 0D 0E 0F
      -- -- -- -- -- -- -- --  -- -- -- -- -- -- -- --
0040:                             00                             .      
```

#### Opcodes

```
  0: 0x0049 [0x00] END_REQSTACK()
```

### Event 921

#### Metadata

| Field        | Value   |
|--------------|---------|
| Entrypoint   | 0x004A  |
| Data Size    | 1 bytes |
| Instructions | 1       |

```
      00 01 02 03 04 05 06 07  08 09 0A 0B 0C 0D 0E 0F
      -- -- -- -- -- -- -- --  -- -- -- -- -- -- -- --
0040:                                00                           .     
```

#### Opcodes

```
  0: 0x004A [0x00] END_REQSTACK()
```

### Event 65535.4

#### Metadata

| Field        | Value    |
|--------------|----------|
| Entrypoint   | 0x004B   |
| Data Size    | 19 bytes |
| Instructions | 4        |

```
      00 01 02 03 04 05 06 07  08 09 0A 0B 0C 0D 0E 0F
      -- -- -- -- -- -- -- --  -- -- -- -- -- -- -- --
0040:                                   59 04 AC 21 03             Y..!.
0050: 01 0F 80 1F 00 10 80 11  80 0B 80 1F 01 00        ..............  
```

#### Opcodes

```
  0: 0x004B [0x59] UPDATE_ENTITY_DATA: Set Shayadar (ID: 16982444/0x010321AC) main speed = 39* * 0.1
  1: 0x0053 [0x1F] MOVE_ENTITY: EventEntity moves to X=80.079*, Z=-134.609*, Y=-6.000*
  2: 0x005B [0x1F] MOVE_ENTITY: Update entity position (mode=1)
  3: 0x005D [0x00] END_REQSTACK()
```

### Event 65535.5

#### Metadata

| Field        | Value    |
|--------------|----------|
| Entrypoint   | 0x005E   |
| Data Size    | 19 bytes |
| Instructions | 4        |

```
      00 01 02 03 04 05 06 07  08 09 0A 0B 0C 0D 0E 0F
      -- -- -- -- -- -- -- --  -- -- -- -- -- -- -- --
0050:                                            59 04                Y.
0060: AC 21 03 01 12 80 1F 00  13 80 14 80 0B 80 1F 01  .!..............
0070: 00                                                .               
```

#### Opcodes

```
  0: 0x005E [0x59] UPDATE_ENTITY_DATA: Set Shayadar (ID: 16982444/0x010321AC) main speed = 13* * 0.1
  1: 0x0066 [0x1F] MOVE_ENTITY: EventEntity moves to X=83.553*, Z=-130.291*, Y=-6.000*
  2: 0x006E [0x1F] MOVE_ENTITY: Update entity position (mode=1)
  3: 0x0070 [0x00] END_REQSTACK()
```

### Event 65535.6

#### Metadata

| Field        | Value    |
|--------------|----------|
| Entrypoint   | 0x0071   |
| Data Size    | 19 bytes |
| Instructions | 4        |

```
      00 01 02 03 04 05 06 07  08 09 0A 0B 0C 0D 0E 0F
      -- -- -- -- -- -- -- --  -- -- -- -- -- -- -- --
0070:    59 04 5C 21 03 01 15  80 1F 00 16 80 17 80 0B   Y.\!...........
0080: 80 1F 01 00                                       ....            
```

#### Opcodes

```
  0: 0x0071 [0x59] UPDATE_ENTITY_DATA: Set Fari-Wari (ID: 16982364/0x0103215C) main speed = 37* * 0.1
  1: 0x0079 [0x1F] MOVE_ENTITY: EventEntity moves to X=84.215*, Z=-128.365*, Y=-6.000*
  2: 0x0081 [0x1F] MOVE_ENTITY: Update entity position (mode=1)
  3: 0x0083 [0x00] END_REQSTACK()
```

### Event 65535.7

#### Metadata

| Field        | Value    |
|--------------|----------|
| Entrypoint   | 0x0084   |
| Data Size    | 19 bytes |
| Instructions | 4        |

```
      00 01 02 03 04 05 06 07  08 09 0A 0B 0C 0D 0E 0F
      -- -- -- -- -- -- -- --  -- -- -- -- -- -- -- --
0080:             59 04 5C 21  03 01 12 80 1F 00 18 80      Y.\!........
0090: 19 80 0B 80 1F 01 00                              .......         
```

#### Opcodes

```
  0: 0x0084 [0x59] UPDATE_ENTITY_DATA: Set Fari-Wari (ID: 16982364/0x0103215C) main speed = 13* * 0.1
  1: 0x008C [0x1F] MOVE_ENTITY: EventEntity moves to X=79.235*, Z=-136.349*, Y=-6.000*
  2: 0x0094 [0x1F] MOVE_ENTITY: Update entity position (mode=1)
  3: 0x0096 [0x00] END_REQSTACK()
```

### Event 65535.8

#### Metadata

| Field        | Value    |
|--------------|----------|
| Entrypoint   | 0x0097   |
| Data Size    | 19 bytes |
| Instructions | 4        |

```
      00 01 02 03 04 05 06 07  08 09 0A 0B 0C 0D 0E 0F
      -- -- -- -- -- -- -- --  -- -- -- -- -- -- -- --
0090:                      59  04 5C 21 03 01 12 80 1F         Y.\!.....
00A0: 00 1A 80 1B 80 0B 80 1F  01 00                    ..........      
```

#### Opcodes

```
  0: 0x0097 [0x59] UPDATE_ENTITY_DATA: Set Fari-Wari (ID: 16982364/0x0103215C) main speed = 13* * 0.1
  1: 0x009F [0x1F] MOVE_ENTITY: EventEntity moves to X=80.391*, Z=-136.859*, Y=-6.000*
  2: 0x00A7 [0x1F] MOVE_ENTITY: Update entity position (mode=1)
  3: 0x00A9 [0x00] END_REQSTACK()
```

### Event 65535.9

#### Metadata

| Field        | Value    |
|--------------|----------|
| Entrypoint   | 0x00AA   |
| Data Size    | 13 bytes |
| Instructions | 3        |

```
      00 01 02 03 04 05 06 07  08 09 0A 0B 0C 0D 0E 0F
      -- -- -- -- -- -- -- --  -- -- -- -- -- -- -- --
00A0:                                6E 5C 21 03 01 1C            n\!...
00B0: 80 99 5C 21 03 01 00                              ..\!...         
```

#### Opcodes

```
  0: 0x00AA [0x6E] Fari-Wari (ID: 16982364/0x0103215C) uses emote 38*
  1: 0x00B1 [0x99] Wait for Fari-Wari (ID: 16982364/0x0103215C) animation to complete
  2: 0x00B6 [0x00] END_REQSTACK()
```

### Event 65535.10

#### Metadata

| Field        | Value    |
|--------------|----------|
| Entrypoint   | 0x00B7   |
| Data Size    | 19 bytes |
| Instructions | 4        |

```
      00 01 02 03 04 05 06 07  08 09 0A 0B 0C 0D 0E 0F
      -- -- -- -- -- -- -- --  -- -- -- -- -- -- -- --
00B0:                      59  04 60 21 03 01 1D 80 1F         Y.`!.....
00C0: 00 1E 80 1F 80 0B 80 1F  01 00                    ..........      
```

#### Opcodes

```
  0: 0x00B7 [0x59] UPDATE_ENTITY_DATA: Set Gadalar (ID: 16982368/0x01032160) main speed = 15* * 0.1
  1: 0x00BF [0x1F] MOVE_ENTITY: EventEntity moves to X=80.526*, Z=-133.768*, Y=-6.000*
  2: 0x00C7 [0x1F] MOVE_ENTITY: Update entity position (mode=1)
  3: 0x00C9 [0x00] END_REQSTACK()
```

### Event 65535.11

#### Metadata

| Field        | Value    |
|--------------|----------|
| Entrypoint   | 0x00CA   |
| Data Size    | 19 bytes |
| Instructions | 4        |

```
      00 01 02 03 04 05 06 07  08 09 0A 0B 0C 0D 0E 0F
      -- -- -- -- -- -- -- --  -- -- -- -- -- -- -- --
00C0:                                59 04 60 21 03 01            Y.`!..
00D0: 20 80 1F 00 21 80 22 80  0B 80 1F 01 00            ...!."......   
```

#### Opcodes

```
  0: 0x00CA [0x59] UPDATE_ENTITY_DATA: Set Gadalar (ID: 16982368/0x01032160) main speed = 11* * 0.1
  1: 0x00D2 [0x1F] MOVE_ENTITY: EventEntity moves to X=80.682*, Z=-129.365*, Y=-6.000*
  2: 0x00DA [0x1F] MOVE_ENTITY: Update entity position (mode=1)
  3: 0x00DC [0x00] END_REQSTACK()
```

### Event 65535.12

#### Metadata

| Field        | Value    |
|--------------|----------|
| Entrypoint   | 0x00DD   |
| Data Size    | 19 bytes |
| Instructions | 4        |

```
      00 01 02 03 04 05 06 07  08 09 0A 0B 0C 0D 0E 0F
      -- -- -- -- -- -- -- --  -- -- -- -- -- -- -- --
00D0:                                         59 04 60               Y.`
00E0: 21 03 01 20 80 1F 00 21  80 23 80 0B 80 1F 01 00  !.. ...!.#......
```

#### Opcodes

```
  0: 0x00DD [0x59] UPDATE_ENTITY_DATA: Set Gadalar (ID: 16982368/0x01032160) main speed = 11* * 0.1
  1: 0x00E5 [0x1F] MOVE_ENTITY: EventEntity moves to X=80.682*, Z=-122.365*, Y=-6.000*
  2: 0x00ED [0x1F] MOVE_ENTITY: Update entity position (mode=1)
  3: 0x00EF [0x00] END_REQSTACK()
```

### Event 65535.13

#### Metadata

| Field        | Value    |
|--------------|----------|
| Entrypoint   | 0x00F0   |
| Data Size    | 28 bytes |
| Instructions | 7        |

```
      00 01 02 03 04 05 06 07  08 09 0A 0B 0C 0D 0E 0F
      -- -- -- -- -- -- -- --  -- -- -- -- -- -- -- --
00F0: 1F 00 24 80 25 80 0B 80  1F 01 6F 79 00 AC 21 03  ..$.%.....oy..!.
0100: 01 5C 21 03 01 1C 26 80  39 27 80 00              .\!...&.9'..    
```

#### Opcodes

```
  0: 0x00F0 [0x1F] MOVE_ENTITY: EventEntity moves to X=78.681*, Z=-132.522*, Y=-6.000*
  1: 0x00F8 [0x1F] MOVE_ENTITY: Update entity position (mode=1)
  2: 0x00FA [0x6F] WAIT_FRAME_DELAY: Yield until WaitTime reaches zero
  3: 0x00FB [0x79] Shayadar (ID: 16982444/0x010321AC) looks at Fari-Wari (ID: 16982364/0x0103215C) (Basic look)
  4: 0x0105 [0x1C] WAIT(30* ticks)
  5: 0x0108 [0x39] SET_ENTITY_DIRECTION(direction=3.7°*)
  6: 0x010B [0x00] END_REQSTACK()
```

### Event 65535.14

#### Metadata

| Field        | Value    |
|--------------|----------|
| Entrypoint   | 0x010C   |
| Data Size    | 11 bytes |
| Instructions | 3        |

```
      00 01 02 03 04 05 06 07  08 09 0A 0B 0C 0D 0E 0F
      -- -- -- -- -- -- -- --  -- -- -- -- -- -- -- --
0100:                                      1F 00 28 80              ..(.
0110: 29 80 0B 80 1F 01 00                              )......         
```

#### Opcodes

```
  0: 0x010C [0x1F] MOVE_ENTITY: EventEntity moves to X=78.642*, Z=-119.395*, Y=-6.000*
  1: 0x0114 [0x1F] MOVE_ENTITY: Update entity position (mode=1)
  2: 0x0116 [0x00] END_REQSTACK()
```

### Event 65535.15

#### Metadata

| Field        | Value    |
|--------------|----------|
| Entrypoint   | 0x0117   |
| Data Size    | 34 bytes |
| Instructions | 8        |

```
      00 01 02 03 04 05 06 07  08 09 0A 0B 0C 0D 0E 0F
      -- -- -- -- -- -- -- --  -- -- -- -- -- -- -- --
0110:                      1C  2A 80 1C 2B 80 6E 45 22         .*..+.nE"
0120: 03 01 20 80 99 45 22 03  01 1C 2C 80 6E 46 22 03  .. ..E"...,.nF".
0130: 01 12 80 99 46 22 03 01  00                       ....F"...       
```

#### Opcodes

```
  0: 0x0117 [0x1C] WAIT(3* ticks)
  1: 0x011A [0x1C] WAIT(2* ticks)
  2: 0x011D [0x6E] FAN7 (ID: 16982597/0x01032245) uses emote 11*
  3: 0x0124 [0x99] Wait for FAN7 (ID: 16982597/0x01032245) animation to complete
  4: 0x0129 [0x1C] WAIT(5* ticks)
  5: 0x012C [0x6E] FAN8 (ID: 16982598/0x01032246) uses emote 13*
  6: 0x0133 [0x99] Wait for FAN8 (ID: 16982598/0x01032246) animation to complete
  7: 0x0138 [0x00] END_REQSTACK()
```

### Event 65535.16

#### Metadata

| Field        | Value    |
|--------------|----------|
| Entrypoint   | 0x0139   |
| Data Size    | 67 bytes |
| Instructions | 13       |

```
      00 01 02 03 04 05 06 07  08 09 0A 0B 0C 0D 0E 0F
      -- -- -- -- -- -- -- --  -- -- -- -- -- -- -- --
0130:                             6E 41 22 03 01 20 80           nA".. .
0140: 99 41 22 03 01 1C 2A 80  5B 2D 80 42 22 03 01 42  .A"...*.[-.B"..B
0150: 22 03 01 69 72 6F 30 1C  2E 80 1C 2A 80 1C 2B 80  "..iro0....*..+.
0160: 6E 45 22 03 01 2F 80 99  45 22 03 01 1C 2C 80 6E  nE"../..E"...,.n
0170: 46 22 03 01 20 80 99 46  22 03 01 00              F".. ..F"...    
```

#### Opcodes

```
  0: 0x0139 [0x6E] FAN3 (ID: 16982593/0x01032241) uses emote 11*
  1: 0x0140 [0x99] Wait for FAN3 (ID: 16982593/0x01032241) animation to complete
  2: 0x0145 [0x1C] WAIT(3* ticks)
  3: 0x0148 [0x5B] LOAD_EXT_SCHEDULER: Load scheduler "iro0" with entities [FAN4 (ID: 16982594/0x01032242), FAN4 (ID: 16982594/0x01032242)], work=1328*
  4: 0x0157 [0x1C] WAIT(4* ticks)
  5: 0x015A [0x1C] WAIT(3* ticks)
  6: 0x015D [0x1C] WAIT(2* ticks)
  7: 0x0160 [0x6E] FAN7 (ID: 16982597/0x01032245) uses emote 8*
  8: 0x0167 [0x99] Wait for FAN7 (ID: 16982597/0x01032245) animation to complete
  9: 0x016C [0x1C] WAIT(5* ticks)
 10: 0x016F [0x6E] FAN8 (ID: 16982598/0x01032246) uses emote 11*
 11: 0x0176 [0x99] Wait for FAN8 (ID: 16982598/0x01032246) animation to complete
 12: 0x017B [0x00] END_REQSTACK()
```

### Event 65535.17

#### Metadata

| Field        | Value    |
|--------------|----------|
| Entrypoint   | 0x017C   |
| Data Size    | 37 bytes |
| Instructions | 7        |

```
      00 01 02 03 04 05 06 07  08 09 0A 0B 0C 0D 0E 0F
      -- -- -- -- -- -- -- --  -- -- -- -- -- -- -- --
0170:                                      6E 3C 22 03              n<".
0180: 01 30 80 99 3C 22 03 01  6E 3D 22 03 01 2F 80 99  .0..<"..n="../..
0190: 3D 22 03 01 6E 3E 22 03  01 31 80 99 3E 22 03 01  ="..n>"..1..>"..
01A0: 00                                                .               
```

#### Opcodes

```
  0: 0x017C [0x6E] Wajran (ID: 16982588/0x0103223C) uses emote 1*
  1: 0x0183 [0x99] Wait for Wajran (ID: 16982588/0x0103223C) animation to complete
  2: 0x0188 [0x6E] PAKU02 (ID: 16982589/0x0103223D) uses emote 8*
  3: 0x018F [0x99] Wait for PAKU02 (ID: 16982589/0x0103223D) animation to complete
  4: 0x0194 [0x6E] PAKU03 (ID: 16982590/0x0103223E) uses emote 10*
  5: 0x019B [0x99] Wait for PAKU03 (ID: 16982590/0x0103223E) animation to complete
  6: 0x01A0 [0x00] END_REQSTACK()
```

### Event 65535.18

#### Metadata

| Field        | Value    |
|--------------|----------|
| Entrypoint   | 0x01A1   |
| Data Size    | 37 bytes |
| Instructions | 7        |

```
      00 01 02 03 04 05 06 07  08 09 0A 0B 0C 0D 0E 0F
      -- -- -- -- -- -- -- --  -- -- -- -- -- -- -- --
01A0:    6E 3C 22 03 01 32 80  99 3C 22 03 01 6E 3D 22   n<"..2..<"..n="
01B0: 03 01 32 80 99 3D 22 03  01 6E 3E 22 03 01 32 80  ..2..="..n>"..2.
01C0: 99 3E 22 03 01 00                                 .>"...          
```

#### Opcodes

```
  0: 0x01A1 [0x6E] Wajran (ID: 16982588/0x0103223C) uses emote 65*
  1: 0x01A8 [0x99] Wait for Wajran (ID: 16982588/0x0103223C) animation to complete
  2: 0x01AD [0x6E] PAKU02 (ID: 16982589/0x0103223D) uses emote 65*
  3: 0x01B4 [0x99] Wait for PAKU02 (ID: 16982589/0x0103223D) animation to complete
  4: 0x01B9 [0x6E] PAKU03 (ID: 16982590/0x0103223E) uses emote 65*
  5: 0x01C0 [0x99] Wait for PAKU03 (ID: 16982590/0x0103223E) animation to complete
  6: 0x01C5 [0x00] END_REQSTACK()
```

### Event 65535.19

#### Metadata

| Field        | Value    |
|--------------|----------|
| Entrypoint   | 0x01C6   |
| Data Size    | 15 bytes |
| Instructions | 5        |

```
      00 01 02 03 04 05 06 07  08 09 0A 0B 0C 0D 0E 0F
      -- -- -- -- -- -- -- --  -- -- -- -- -- -- -- --
01C0:                   32 04  80 1F 00 33 80 34 80 02        2....3.4..
01D0: 80 1F 01 6F 00                                    ...o.           
```

#### Opcodes

```
  0: 0x01C6 [0x32] ExtData[1]->MainSpeed = 40* * 0.1
  1: 0x01C9 [0x1F] MOVE_ENTITY: EventEntity moves to X=-106.147*, Z=34.166*, Y=-5.999*
  2: 0x01D1 [0x1F] MOVE_ENTITY: Update entity position (mode=1)
  3: 0x01D3 [0x6F] WAIT_FRAME_DELAY: Yield until WaitTime reaches zero
  4: 0x01D4 [0x00] END_REQSTACK()
```

### Event 65535.20

#### Metadata

| Field        | Value   |
|--------------|---------|
| Entrypoint   | 0x01D5  |
| Data Size    | 5 bytes |
| Instructions | 2       |

```
      00 01 02 03 04 05 06 07  08 09 0A 0B 0C 0D 0E 0F
      -- -- -- -- -- -- -- --  -- -- -- -- -- -- -- --
01D0:                B6 0A 32  80 00                         ..2..      
```

#### Opcodes

```
  0: 0x01D5 [0xB6] ENTITY_APPEARANCE_HANDLER(case=Ranged, value=65*)
  1: 0x01D9 [0x00] END_REQSTACK()
```

### Event 65535.21

#### Metadata

| Field        | Value   |
|--------------|---------|
| Entrypoint   | 0x01DA  |
| Data Size    | 5 bytes |
| Instructions | 2       |

```
      00 01 02 03 04 05 06 07  08 09 0A 0B 0C 0D 0E 0F
      -- -- -- -- -- -- -- --  -- -- -- -- -- -- -- --
01D0:                                B6 0A 35 80 00               ..5.. 
```

#### Opcodes

```
  0: 0x01DA [0xB6] ENTITY_APPEARANCE_HANDLER(case=Ranged, value=0*)
  1: 0x01DE [0x00] END_REQSTACK()
```

### Event 65535.22

#### Metadata

| Field        | Value   |
|--------------|---------|
| Entrypoint   | 0x01DF  |
| Data Size    | 5 bytes |
| Instructions | 2       |

```
      00 01 02 03 04 05 06 07  08 09 0A 0B 0C 0D 0E 0F
      -- -- -- -- -- -- -- --  -- -- -- -- -- -- -- --
01D0:                                               B6                 .
01E0: 0A 36 80 00                                       .6..            
```

#### Opcodes

```
  0: 0x01DF [0xB6] ENTITY_APPEARANCE_HANDLER(case=Ranged, value=75*)
  1: 0x01E3 [0x00] END_REQSTACK()
```

### Event 65535.23

#### Metadata

| Field        | Value   |
|--------------|---------|
| Entrypoint   | 0x01E4  |
| Data Size    | 5 bytes |
| Instructions | 2       |

```
      00 01 02 03 04 05 06 07  08 09 0A 0B 0C 0D 0E 0F
      -- -- -- -- -- -- -- --  -- -- -- -- -- -- -- --
01E0:             B6 0A 35 80  00                           ..5..       
```

#### Opcodes

```
  0: 0x01E4 [0xB6] ENTITY_APPEARANCE_HANDLER(case=Ranged, value=0*)
  1: 0x01E8 [0x00] END_REQSTACK()
```

### Event 65535.24

#### Metadata

| Field        | Value    |
|--------------|----------|
| Entrypoint   | 0x01E9   |
| Data Size    | 27 bytes |
| Instructions | 7        |

```
      00 01 02 03 04 05 06 07  08 09 0A 0B 0C 0D 0E 0F
      -- -- -- -- -- -- -- --  -- -- -- -- -- -- -- --
01E0:                             1F 00 37 80 38 80 35           ..7.8.5
01F0: 80 1F 01 6F 4A 61 21 03  01 5F 21 03 01 6F 76 61  ...oJa!.._!..ova
0200: 21 03 01 00                                       !...            
```

#### Opcodes

```
  0: 0x01E9 [0x1F] MOVE_ENTITY: EventEntity moves to X=-5.700*, Z=-28.344*, Y=0.000*
  1: 0x01F1 [0x1F] MOVE_ENTITY: Update entity position (mode=1)
  2: 0x01F3 [0x6F] WAIT_FRAME_DELAY: Yield until WaitTime reaches zero
  3: 0x01F4 [0x4A] Najelith (ID: 16982369/0x01032161) looks at Rughadjeen (ID: 16982367/0x0103215F)
  4: 0x01FD [0x6F] WAIT_FRAME_DELAY: Yield until WaitTime reaches zero
  5: 0x01FE [0x76] CHECK_ENTITY_RENDER_FLAGS: Wait until Najelith (ID: 16982369/0x01032161) Render.Flags0 and Render.Flags3 conditions are met
  6: 0x0203 [0x00] END_REQSTACK()
```

### Event 65535.25

#### Metadata

| Field        | Value    |
|--------------|----------|
| Entrypoint   | 0x0204   |
| Data Size    | 27 bytes |
| Instructions | 7        |

```
      00 01 02 03 04 05 06 07  08 09 0A 0B 0C 0D 0E 0F
      -- -- -- -- -- -- -- --  -- -- -- -- -- -- -- --
0200:             1F 00 39 80  3A 80 35 80 1F 01 6F 4A      ..9.:.5...oJ
0210: 5F 21 03 01 61 21 03 01  6F 76 5F 21 03 01 00     _!..a!..ov_!... 
```

#### Opcodes

```
  0: 0x0204 [0x1F] MOVE_ENTITY: EventEntity moves to X=-3.756*, Z=-27.826*, Y=0.000*
  1: 0x020C [0x1F] MOVE_ENTITY: Update entity position (mode=1)
  2: 0x020E [0x6F] WAIT_FRAME_DELAY: Yield until WaitTime reaches zero
  3: 0x020F [0x4A] Rughadjeen (ID: 16982367/0x0103215F) looks at Najelith (ID: 16982369/0x01032161)
  4: 0x0218 [0x6F] WAIT_FRAME_DELAY: Yield until WaitTime reaches zero
  5: 0x0219 [0x76] CHECK_ENTITY_RENDER_FLAGS: Wait until Rughadjeen (ID: 16982367/0x0103215F) Render.Flags0 and Render.Flags3 conditions are met
  6: 0x021E [0x00] END_REQSTACK()
```

### Event 65535.26

#### Metadata

| Field        | Value    |
|--------------|----------|
| Entrypoint   | 0x021F   |
| Data Size    | 40 bytes |
| Instructions | 6        |

```
      00 01 02 03 04 05 06 07  08 09 0A 0B 0C 0D 0E 0F
      -- -- -- -- -- -- -- --  -- -- -- -- -- -- -- --
0210:                                               1F                 .
0220: 00 3B 80 3C 80 35 80 1F  01 6F 66 3D 80 5F 21 03  .;.<.5...of=._!.
0230: 01 5F 21 03 01 73 68 61  30 53 5F 21 03 01 5F 21  ._!..sha0S_!.._!
0240: 03 01 73 68 61 30 00                              ..sha0.         
```

#### Opcodes

```
  0: 0x021F [0x1F] MOVE_ENTITY: EventEntity moves to X=-2.438*, Z=-27.426*, Y=0.000*
  1: 0x0227 [0x1F] MOVE_ENTITY: Update entity position (mode=1)
  2: 0x0229 [0x6F] WAIT_FRAME_DELAY: Yield until WaitTime reaches zero
  3: 0x022A [0x66] LOAD_EXT_SCHEDULER_MAIN: Load scheduler "sha0" with entities [Rughadjeen (ID: 16982367/0x0103215F), Rughadjeen (ID: 16982367/0x0103215F)], work=29*
  4: 0x0239 [0x53] WAIT_SCHEDULER_TASK: Wait for scheduler "sha0" with entities [Rughadjeen (ID: 16982367/0x0103215F), Rughadjeen (ID: 16982367/0x0103215F)]
  5: 0x0246 [0x00] END_REQSTACK()
```

### Event 65535.27

#### Metadata

| Field        | Value    |
|--------------|----------|
| Entrypoint   | 0x0247   |
| Data Size    | 19 bytes |
| Instructions | 3        |

```
      00 01 02 03 04 05 06 07  08 09 0A 0B 0C 0D 0E 0F
      -- -- -- -- -- -- -- --  -- -- -- -- -- -- -- --
0240:                      1C  3E 80 66 3F 80 5C 21 03         .>.f?.\!.
0250: 01 5C 21 03 01 62 73 6B  30 00                    .\!..bsk0.      
```

#### Opcodes

```
  0: 0x0247 [0x1C] WAIT(45* ticks)
  1: 0x024A [0x66] LOAD_EXT_SCHEDULER_MAIN: Load scheduler "bsk0" with entities [Fari-Wari (ID: 16982364/0x0103215C), Fari-Wari (ID: 16982364/0x0103215C)], work=42*
  2: 0x0259 [0x00] END_REQSTACK()
```

### Event 65535.28

#### Metadata

| Field        | Value    |
|--------------|----------|
| Entrypoint   | 0x025A   |
| Data Size    | 24 bytes |
| Instructions | 6        |

```
      00 01 02 03 04 05 06 07  08 09 0A 0B 0C 0D 0E 0F
      -- -- -- -- -- -- -- --  -- -- -- -- -- -- -- --
0250:                                32 04 80 1F 00 40            2....@
0260: 80 41 80 02 80 1F 01 6F  4A 5C 21 03 01 2C 22 03  .A.....oJ\!..,".
0270: 01 00                                             ..              
```

#### Opcodes

```
  0: 0x025A [0x32] ExtData[1]->MainSpeed = 40* * 0.1
  1: 0x025D [0x1F] MOVE_ENTITY: EventEntity moves to X=86.503*, Z=-129.792*, Y=-5.999*
  2: 0x0265 [0x1F] MOVE_ENTITY: Update entity position (mode=1)
  3: 0x0267 [0x6F] WAIT_FRAME_DELAY: Yield until WaitTime reaches zero
  4: 0x0268 [0x4A] Fari-Wari (ID: 16982364/0x0103215C) looks at Wajran (ID: 16982572/0x0103222C)
  5: 0x0271 [0x00] END_REQSTACK()
```
