# 16982230 - Karababa

## Common Data

| Field            | Value                          |
|------------------|--------------------------------|
| Zone             | Aht Urhgan Whitegate2 (ID: 50) |
| Block Size       | 896 bytes                      |
| Total Events     | 33                             |
| References Count | 63                             |

## List of Events

| Event ID                   | Entrypoint   |   Size |   Instructions |
|----------------------------|--------------|--------|----------------|
| [65535](#event-65535)      | 0x0000       |      1 |              1 |
| [65535.1](#event-655351)   | 0x0001       |      1 |              1 |
| [65535.2](#event-655352)   | 0x0002       |     18 |              4 |
| [65535.3](#event-655353)   | 0x0014       |     10 |              2 |
| [65535.4](#event-655354)   | 0x001E       |      9 |              3 |
| [65535.5](#event-655355)   | 0x0027       |      9 |              3 |
| [65535.6](#event-655356)   | 0x0030       |     10 |              2 |
| [65535.7](#event-655357)   | 0x003A       |     10 |              2 |
| [3090](#event-3090)        | 0x0044       |      1 |              1 |
| [3092](#event-3092)        | 0x0045       |      1 |              1 |
| [3093](#event-3093)        | 0x0046       |      1 |              1 |
| [65535.8](#event-655358)   | 0x0047       |     12 |              3 |
| [65535.9](#event-655359)   | 0x0053       |     15 |              5 |
| [65535.10](#event-6553510) | 0x0062       |     15 |              5 |
| [65535.11](#event-6553511) | 0x0071       |     15 |              5 |
| [65535.12](#event-6553512) | 0x0080       |      4 |              2 |
| [65535.13](#event-6553513) | 0x0084       |     15 |              5 |
| [65535.14](#event-6553514) | 0x0093       |     12 |              3 |
| [65535.15](#event-6553515) | 0x009F       |     48 |             14 |
| [3095](#event-3095)        | 0x00CF       |      1 |              1 |
| [65535.16](#event-6553516) | 0x00D0       |     10 |              2 |
| [65535.17](#event-6553517) | 0x00DA       |     22 |              6 |
| [65535.18](#event-6553518) | 0x00F0       |     22 |              6 |
| [65535.19](#event-6553519) | 0x0106       |     14 |              4 |
| [65535.20](#event-6553520) | 0x0114       |     54 |             12 |
| [65535.21](#event-6553521) | 0x014A       |     42 |             10 |
| [65535.22](#event-6553522) | 0x0174       |     19 |              3 |
| [65535.23](#event-6553523) | 0x0187       |     14 |              4 |
| [65535.24](#event-6553524) | 0x0195       |     14 |              4 |
| [65535.25](#event-6553525) | 0x01A3       |     15 |              5 |
| [65535.26](#event-6553526) | 0x01B2       |     51 |              9 |
| [3097](#event-3097)        | 0x01E5       |      1 |              1 |
| [3140](#event-3140)        | 0x01E6       |      7 |              2 |

## DAT References (imed_data)

|   Index | Hex Value   |   Dec Value |
|---------|-------------|-------------|
|       0 | 0x0000      |           0 |
|       1 | 0x0001      |           1 |
|       2 | 0x0080      |         128 |
|       3 | 0x10BE0     |       68576 |
|       4 | 0xFFFE14B8  |  4294841528 |
|       5 | 0xFFFFE674  |  4294960756 |
|       6 | 0x047D      |        1149 |
|       7 | 0x000B      |          11 |
|       8 | 0xFFFFFFF6  |  4294967286 |
|       9 | 0xFFFE9196  |  4294873494 |
|      10 | 0xFFFFFFBF  |  4294967231 |
|      11 | 0xFFFE9FCA  |  4294877130 |
|      12 | 0x10D92     |       69010 |
|      13 | 0xFFFE0F5B  |  4294840155 |
|      14 | 0xFFFFE69D  |  4294960797 |
|      15 | 0x0A00      |        2560 |
|      16 | 0x107E7     |       67559 |
|      17 | 0xFFFE1667  |  4294841959 |
|      18 | 0xFFFFE610  |  4294960656 |
|      19 | 0x10BF8     |       68600 |
|      20 | 0xFFFE14BB  |  4294841531 |
|      21 | 0xFFFFE67E  |  4294960766 |
|      22 | 0x07E9      |        2025 |
|      23 | 0x6CC0      |       27840 |
|      24 | 0xFFFF4857  |  4294920279 |
|      25 | 0xFFFFE184  |  4294959492 |
|      26 | 0x875D      |       34653 |
|      27 | 0xFFFF4197  |  4294918551 |
|      28 | 0xFFFFE3E1  |  4294960097 |
|      29 | 0x8EA0      |       36512 |
|      30 | 0xFFFF2590  |  4294911376 |
|      31 | 0xFFFFE633  |  4294960691 |
|      32 | 0x87A4      |       34724 |
|      33 | 0xFFFF1E15  |  4294909461 |
|      34 | 0x6488      |       25736 |
|      35 | 0xFFFF4DC3  |  4294921667 |
|      36 | 0x0812      |        2066 |
|      37 | 0x000D      |          13 |
|      38 | 0x6C94      |       27796 |
|      39 | 0xFFFF4DB6  |  4294921654 |
|      40 | 0x003C      |          60 |
|      41 | 0x6AC2      |       27330 |
|      42 | 0xFFFF446B  |  4294919275 |
|      43 | 0xFFFFE188  |  4294959496 |
|      44 | 0x64CD      |       25805 |
|      45 | 0xFFFF466B  |  4294919787 |
|      46 | 0x5843      |       22595 |
|      47 | 0xFFFF4631  |  4294919729 |
|      48 | 0x5834      |       22580 |
|      49 | 0xFFFF4A2F  |  4294920751 |
|      50 | 0x001E      |          30 |
|      51 | 0x0029      |          41 |
|      52 | 0x7089      |       28809 |
|      53 | 0xFFFF485D  |  4294920285 |
|      54 | 0x869E      |       34462 |
|      55 | 0xFFFF4637  |  4294919735 |
|      56 | 0xFFFFE3DD  |  4294960093 |
|      57 | 0x0009      |           9 |
|      58 | 0xFFFFF604  |  4294964740 |
|      59 | 0xFFFEFB73  |  4294900595 |
|      60 | 0x005A      |          90 |
|      61 | 0x000F      |          15 |
|      62 | 0xFFFF09F0  |  4294904304 |

## Events

### Event 65535

#### Metadata

| Field        | Value   |
|--------------|---------|
| Entrypoint   | 0x0000  |
| Data Size    | 1 bytes |
| Instructions | 1       |

```
      00 01 02 03 04 05 06 07  08 09 0A 0B 0C 0D 0E 0F
      -- -- -- -- -- -- -- --  -- -- -- -- -- -- -- --
0000: 00                                                .               
```

#### Opcodes

```
  0: 0x0000 [0x00] END_REQSTACK()
```

### Event 65535.1

#### Metadata

| Field        | Value   |
|--------------|---------|
| Entrypoint   | 0x0001  |
| Data Size    | 1 bytes |
| Instructions | 1       |

```
      00 01 02 03 04 05 06 07  08 09 0A 0B 0C 0D 0E 0F
      -- -- -- -- -- -- -- --  -- -- -- -- -- -- -- --
0000:    00                                              .              
```

#### Opcodes

```
  0: 0x0001 [0x00] END_REQSTACK()
```

### Event 65535.2

#### Metadata

| Field        | Value    |
|--------------|----------|
| Entrypoint   | 0x0002   |
| Data Size    | 18 bytes |
| Instructions | 4        |

```
      00 01 02 03 04 05 06 07  08 09 0A 0B 0C 0D 0E 0F
      -- -- -- -- -- -- -- --  -- -- -- -- -- -- -- --
0000:       22 00 2F 00 F8 FF  FF 7F 6C F8 FF FF 7F 00    "./.....l.....
0010: 80 01 80 00                                       ....            
```

#### Opcodes

```
  0: 0x0002 [0x22] ENTITY_HIDE_FLAG(enabled=0x00)
  1: 0x0004 [0x2F] EventEntity->Render.Flags0 &= ~0x80000 // Bit 19
  2: 0x000A [0x6C] FADE_ENTITY_COLOR(entity_id=EventEntity, end_alpha=0*, fade_time=1*)
  3: 0x0013 [0x00] END_REQSTACK()
```

### Event 65535.3

#### Metadata

| Field        | Value    |
|--------------|----------|
| Entrypoint   | 0x0014   |
| Data Size    | 10 bytes |
| Instructions | 2        |

```
      00 01 02 03 04 05 06 07  08 09 0A 0B 0C 0D 0E 0F
      -- -- -- -- -- -- -- --  -- -- -- -- -- -- -- --
0010:             6C F8 FF FF  7F 02 80 01 80 00            l.........  
```

#### Opcodes

```
  0: 0x0014 [0x6C] FADE_ENTITY_COLOR(entity_id=EventEntity, end_alpha=128*, fade_time=1*)
  1: 0x001D [0x00] END_REQSTACK()
```

### Event 65535.4

#### Metadata

| Field        | Value   |
|--------------|---------|
| Entrypoint   | 0x001E  |
| Data Size    | 9 bytes |
| Instructions | 3       |

```
      00 01 02 03 04 05 06 07  08 09 0A 0B 0C 0D 0E 0F
      -- -- -- -- -- -- -- --  -- -- -- -- -- -- -- --
0010:                                            22 00                ".
0020: 2F 00 F8 FF FF 7F 00                              /......         
```

#### Opcodes

```
  0: 0x001E [0x22] ENTITY_HIDE_FLAG(enabled=0x00)
  1: 0x0020 [0x2F] EventEntity->Render.Flags0 &= ~0x80000 // Bit 19
  2: 0x0026 [0x00] END_REQSTACK()
```

### Event 65535.5

#### Metadata

| Field        | Value   |
|--------------|---------|
| Entrypoint   | 0x0027  |
| Data Size    | 9 bytes |
| Instructions | 3       |

```
      00 01 02 03 04 05 06 07  08 09 0A 0B 0C 0D 0E 0F
      -- -- -- -- -- -- -- --  -- -- -- -- -- -- -- --
0020:                      22  01 2F 01 F8 FF FF 7F 00         "./......
```

#### Opcodes

```
  0: 0x0027 [0x22] ENTITY_HIDE_FLAG(enabled=0x01)
  1: 0x0029 [0x2F] EventEntity->Render.Flags0 |= 0x80000 // Bit 19
  2: 0x002F [0x00] END_REQSTACK()
```

### Event 65535.6

#### Metadata

| Field        | Value    |
|--------------|----------|
| Entrypoint   | 0x0030   |
| Data Size    | 10 bytes |
| Instructions | 2        |

```
      00 01 02 03 04 05 06 07  08 09 0A 0B 0C 0D 0E 0F
      -- -- -- -- -- -- -- --  -- -- -- -- -- -- -- --
0030: 6C F8 FF FF 7F 00 80 01  80 00                    l.........      
```

#### Opcodes

```
  0: 0x0030 [0x6C] FADE_ENTITY_COLOR(entity_id=EventEntity, end_alpha=0*, fade_time=1*)
  1: 0x0039 [0x00] END_REQSTACK()
```

### Event 65535.7

#### Metadata

| Field        | Value    |
|--------------|----------|
| Entrypoint   | 0x003A   |
| Data Size    | 10 bytes |
| Instructions | 2        |

```
      00 01 02 03 04 05 06 07  08 09 0A 0B 0C 0D 0E 0F
      -- -- -- -- -- -- -- --  -- -- -- -- -- -- -- --
0030:                                6C F8 FF FF 7F 02            l.....
0040: 80 01 80 00                                       ....            
```

#### Opcodes

```
  0: 0x003A [0x6C] FADE_ENTITY_COLOR(entity_id=EventEntity, end_alpha=128*, fade_time=1*)
  1: 0x0043 [0x00] END_REQSTACK()
```

### Event 3090

#### Metadata

| Field        | Value   |
|--------------|---------|
| Entrypoint   | 0x0044  |
| Data Size    | 1 bytes |
| Instructions | 1       |

```
      00 01 02 03 04 05 06 07  08 09 0A 0B 0C 0D 0E 0F
      -- -- -- -- -- -- -- --  -- -- -- -- -- -- -- --
0040:             00                                        .           
```

#### Opcodes

```
  0: 0x0044 [0x00] END_REQSTACK()
```

### Event 3092

#### Metadata

| Field        | Value   |
|--------------|---------|
| Entrypoint   | 0x0045  |
| Data Size    | 1 bytes |
| Instructions | 1       |

```
      00 01 02 03 04 05 06 07  08 09 0A 0B 0C 0D 0E 0F
      -- -- -- -- -- -- -- --  -- -- -- -- -- -- -- --
0040:                00                                      .          
```

#### Opcodes

```
  0: 0x0045 [0x00] END_REQSTACK()
```

### Event 3093

#### Metadata

| Field        | Value   |
|--------------|---------|
| Entrypoint   | 0x0046  |
| Data Size    | 1 bytes |
| Instructions | 1       |

```
      00 01 02 03 04 05 06 07  08 09 0A 0B 0C 0D 0E 0F
      -- -- -- -- -- -- -- --  -- -- -- -- -- -- -- --
0040:                   00                                    .         
```

#### Opcodes

```
  0: 0x0046 [0x00] END_REQSTACK()
```

### Event 65535.8

#### Metadata

| Field        | Value    |
|--------------|----------|
| Entrypoint   | 0x0047   |
| Data Size    | 12 bytes |
| Instructions | 3        |

```
      00 01 02 03 04 05 06 07  08 09 0A 0B 0C 0D 0E 0F
      -- -- -- -- -- -- -- --  -- -- -- -- -- -- -- --
0040:                      33  01 37 03 80 04 80 05 80         3.7......
0050: 06 80 00                                          ...             
```

#### Opcodes

```
  0: 0x0047 [0x33] EventEntity->Render.Flags0 |= 0x200000 // Bit 21 (flag=0x01)
  1: 0x0049 [0x37] UPDATE_EVENT_POSITION_AND_DIR: x=68.576*, z=-125.768*, y=-6.540*, direction=101.0째*
  2: 0x0052 [0x00] END_REQSTACK()
```

### Event 65535.9

#### Metadata

| Field        | Value    |
|--------------|----------|
| Entrypoint   | 0x0053   |
| Data Size    | 15 bytes |
| Instructions | 5        |

```
      00 01 02 03 04 05 06 07  08 09 0A 0B 0C 0D 0E 0F
      -- -- -- -- -- -- -- --  -- -- -- -- -- -- -- --
0050:          32 07 80 1F 00  08 80 09 80 00 80 1F 01     2............
0060: 6F 00                                             o.              
```

#### Opcodes

```
  0: 0x0053 [0x32] ExtData[1]->MainSpeed = 11* * 0.1
  1: 0x0056 [0x1F] MOVE_ENTITY: EventEntity moves to X=-0.010*, Z=-93.802*, Y=0.000*
  2: 0x005E [0x1F] MOVE_ENTITY: Update entity position (mode=1)
  3: 0x0060 [0x6F] WAIT_FRAME_DELAY: Yield until WaitTime reaches zero
  4: 0x0061 [0x00] END_REQSTACK()
```

### Event 65535.10

#### Metadata

| Field        | Value    |
|--------------|----------|
| Entrypoint   | 0x0062   |
| Data Size    | 15 bytes |
| Instructions | 5        |

```
      00 01 02 03 04 05 06 07  08 09 0A 0B 0C 0D 0E 0F
      -- -- -- -- -- -- -- --  -- -- -- -- -- -- -- --
0060:       32 07 80 1F 00 0A  80 0B 80 00 80 1F 01 6F    2............o
0070: 00                                                .               
```

#### Opcodes

```
  0: 0x0062 [0x32] ExtData[1]->MainSpeed = 11* * 0.1
  1: 0x0065 [0x1F] MOVE_ENTITY: EventEntity moves to X=-0.065*, Z=-90.166*, Y=0.000*
  2: 0x006D [0x1F] MOVE_ENTITY: Update entity position (mode=1)
  3: 0x006F [0x6F] WAIT_FRAME_DELAY: Yield until WaitTime reaches zero
  4: 0x0070 [0x00] END_REQSTACK()
```

### Event 65535.11

#### Metadata

| Field        | Value    |
|--------------|----------|
| Entrypoint   | 0x0071   |
| Data Size    | 15 bytes |
| Instructions | 5        |

```
      00 01 02 03 04 05 06 07  08 09 0A 0B 0C 0D 0E 0F
      -- -- -- -- -- -- -- --  -- -- -- -- -- -- -- --
0070:    32 07 80 1F 00 0C 80  0D 80 0E 80 1F 01 6F 00   2............o.
```

#### Opcodes

```
  0: 0x0071 [0x32] ExtData[1]->MainSpeed = 11* * 0.1
  1: 0x0074 [0x1F] MOVE_ENTITY: EventEntity moves to X=69.010*, Z=-127.141*, Y=-6.499*
  2: 0x007C [0x1F] MOVE_ENTITY: Update entity position (mode=1)
  3: 0x007E [0x6F] WAIT_FRAME_DELAY: Yield until WaitTime reaches zero
  4: 0x007F [0x00] END_REQSTACK()
```

### Event 65535.12

#### Metadata

| Field        | Value   |
|--------------|---------|
| Entrypoint   | 0x0080  |
| Data Size    | 4 bytes |
| Instructions | 2       |

```
      00 01 02 03 04 05 06 07  08 09 0A 0B 0C 0D 0E 0F
      -- -- -- -- -- -- -- --  -- -- -- -- -- -- -- --
0080: 39 0F 80 00                                       9...            
```

#### Opcodes

```
  0: 0x0080 [0x39] SET_ENTITY_DIRECTION(direction=14.1째*)
  1: 0x0083 [0x00] END_REQSTACK()
```

### Event 65535.13

#### Metadata

| Field        | Value    |
|--------------|----------|
| Entrypoint   | 0x0084   |
| Data Size    | 15 bytes |
| Instructions | 5        |

```
      00 01 02 03 04 05 06 07  08 09 0A 0B 0C 0D 0E 0F
      -- -- -- -- -- -- -- --  -- -- -- -- -- -- -- --
0080:             32 07 80 1F  00 10 80 11 80 12 80 1F      2...........
0090: 01 6F 00                                          .o.             
```

#### Opcodes

```
  0: 0x0084 [0x32] ExtData[1]->MainSpeed = 11* * 0.1
  1: 0x0087 [0x1F] MOVE_ENTITY: EventEntity moves to X=67.559*, Z=-125.337*, Y=-6.640*
  2: 0x008F [0x1F] MOVE_ENTITY: Update entity position (mode=1)
  3: 0x0091 [0x6F] WAIT_FRAME_DELAY: Yield until WaitTime reaches zero
  4: 0x0092 [0x00] END_REQSTACK()
```

### Event 65535.14

#### Metadata

| Field        | Value    |
|--------------|----------|
| Entrypoint   | 0x0093   |
| Data Size    | 12 bytes |
| Instructions | 3        |

```
      00 01 02 03 04 05 06 07  08 09 0A 0B 0C 0D 0E 0F
      -- -- -- -- -- -- -- --  -- -- -- -- -- -- -- --
0090:          33 01 37 13 80  14 80 15 80 16 80 00        3.7......... 
```

#### Opcodes

```
  0: 0x0093 [0x33] EventEntity->Render.Flags0 |= 0x200000 // Bit 21 (flag=0x01)
  1: 0x0095 [0x37] UPDATE_EVENT_POSITION_AND_DIR: x=68.600*, z=-125.765*, y=-6.530*, direction=178.0째*
  2: 0x009E [0x00] END_REQSTACK()
```

### Event 65535.15

#### Metadata

| Field        | Value    |
|--------------|----------|
| Entrypoint   | 0x009F   |
| Data Size    | 48 bytes |
| Instructions | 14       |

```
      00 01 02 03 04 05 06 07  08 09 0A 0B 0C 0D 0E 0F
      -- -- -- -- -- -- -- --  -- -- -- -- -- -- -- --
0090:                                               32                 2
00A0: 07 80 1F 00 17 80 18 80  19 80 1F 01 6F 1F 00 1A  ............o...
00B0: 80 1B 80 1C 80 1F 01 6F  1F 00 1D 80 1E 80 1F 80  .......o........
00C0: 1F 01 6F 1F 00 20 80 21  80 1F 80 1F 01 6F 00     ..o.. .!.....o. 
```

#### Opcodes

```
  0: 0x009F [0x32] ExtData[1]->MainSpeed = 11* * 0.1
  1: 0x00A2 [0x1F] MOVE_ENTITY: EventEntity moves to X=27.840*, Z=-47.017*, Y=-7.804*
  2: 0x00AA [0x1F] MOVE_ENTITY: Update entity position (mode=1)
  3: 0x00AC [0x6F] WAIT_FRAME_DELAY: Yield until WaitTime reaches zero
  4: 0x00AD [0x1F] MOVE_ENTITY: EventEntity moves to X=34.653*, Z=-48.745*, Y=-7.199*
  5: 0x00B5 [0x1F] MOVE_ENTITY: Update entity position (mode=1)
  6: 0x00B7 [0x6F] WAIT_FRAME_DELAY: Yield until WaitTime reaches zero
  7: 0x00B8 [0x1F] MOVE_ENTITY: EventEntity moves to X=36.512*, Z=-55.920*, Y=-6.605*
  8: 0x00C0 [0x1F] MOVE_ENTITY: Update entity position (mode=1)
  9: 0x00C2 [0x6F] WAIT_FRAME_DELAY: Yield until WaitTime reaches zero
 10: 0x00C3 [0x1F] MOVE_ENTITY: EventEntity moves to X=34.724*, Z=-57.835*, Y=-6.605*
 11: 0x00CB [0x1F] MOVE_ENTITY: Update entity position (mode=1)
 12: 0x00CD [0x6F] WAIT_FRAME_DELAY: Yield until WaitTime reaches zero
 13: 0x00CE [0x00] END_REQSTACK()
```

### Event 3095

#### Metadata

| Field        | Value   |
|--------------|---------|
| Entrypoint   | 0x00CF  |
| Data Size    | 1 bytes |
| Instructions | 1       |

```
      00 01 02 03 04 05 06 07  08 09 0A 0B 0C 0D 0E 0F
      -- -- -- -- -- -- -- --  -- -- -- -- -- -- -- --
00C0:                                               00                 .
```

#### Opcodes

```
  0: 0x00CF [0x00] END_REQSTACK()
```

### Event 65535.16

#### Metadata

| Field        | Value    |
|--------------|----------|
| Entrypoint   | 0x00D0   |
| Data Size    | 10 bytes |
| Instructions | 2        |

```
      00 01 02 03 04 05 06 07  08 09 0A 0B 0C 0D 0E 0F
      -- -- -- -- -- -- -- --  -- -- -- -- -- -- -- --
00D0: 37 22 80 23 80 19 80 24  80 00                    7".#...$..      
```

#### Opcodes

```
  0: 0x00D0 [0x37] UPDATE_EVENT_POSITION_AND_DIR: x=25.736*, z=-45.629*, y=-7.804*, direction=181.6째*
  1: 0x00D9 [0x00] END_REQSTACK()
```

### Event 65535.17

#### Metadata

| Field        | Value    |
|--------------|----------|
| Entrypoint   | 0x00DA   |
| Data Size    | 22 bytes |
| Instructions | 6        |

```
      00 01 02 03 04 05 06 07  08 09 0A 0B 0C 0D 0E 0F
      -- -- -- -- -- -- -- --  -- -- -- -- -- -- -- --
00D0:                                32 25 80 1F 00 26            2%...&
00E0: 80 27 80 19 80 1F 01 1E  8D 20 03 01 1C 28 80 00  .'....... ...(..
```

#### Opcodes

```
  0: 0x00DA [0x32] ExtData[1]->MainSpeed = 13* * 0.1
  1: 0x00DD [0x1F] MOVE_ENTITY: EventEntity moves to X=27.796*, Z=-45.642*, Y=-7.804*
  2: 0x00E5 [0x1F] MOVE_ENTITY: Update entity position (mode=1)
  3: 0x00E7 [0x1E] EventEntity looks at Abquhbah (ID: 16982157/0x0103208D) and starts talking
  4: 0x00EC [0x1C] WAIT(60* ticks)
  5: 0x00EF [0x00] END_REQSTACK()
```

### Event 65535.18

#### Metadata

| Field        | Value    |
|--------------|----------|
| Entrypoint   | 0x00F0   |
| Data Size    | 22 bytes |
| Instructions | 6        |

```
      00 01 02 03 04 05 06 07  08 09 0A 0B 0C 0D 0E 0F
      -- -- -- -- -- -- -- --  -- -- -- -- -- -- -- --
00F0: 32 25 80 1F 00 22 80 23  80 19 80 1F 01 1E D8 20  2%...".#....... 
0100: 03 01 1C 28 80 00                                 ...(..          
```

#### Opcodes

```
  0: 0x00F0 [0x32] ExtData[1]->MainSpeed = 13* * 0.1
  1: 0x00F3 [0x1F] MOVE_ENTITY: EventEntity moves to X=25.736*, Z=-45.629*, Y=-7.804*
  2: 0x00FB [0x1F] MOVE_ENTITY: Update entity position (mode=1)
  3: 0x00FD [0x1E] EventEntity looks at Naja Salaheem (ID: 16982232/0x010320D8) and starts talking
  4: 0x0102 [0x1C] WAIT(60* ticks)
  5: 0x0105 [0x00] END_REQSTACK()
```

### Event 65535.19

#### Metadata

| Field        | Value    |
|--------------|----------|
| Entrypoint   | 0x0106   |
| Data Size    | 14 bytes |
| Instructions | 4        |

```
      00 01 02 03 04 05 06 07  08 09 0A 0B 0C 0D 0E 0F
      -- -- -- -- -- -- -- --  -- -- -- -- -- -- -- --
0100:                   32 25  80 1F 00 29 80 2A 80 2B        2%...).*.+
0110: 80 1F 01 00                                       ....            
```

#### Opcodes

```
  0: 0x0106 [0x32] ExtData[1]->MainSpeed = 13* * 0.1
  1: 0x0109 [0x1F] MOVE_ENTITY: EventEntity moves to X=27.330*, Z=-48.021*, Y=-7.800*
  2: 0x0111 [0x1F] MOVE_ENTITY: Update entity position (mode=1)
  3: 0x0113 [0x00] END_REQSTACK()
```

### Event 65535.20

#### Metadata

| Field        | Value    |
|--------------|----------|
| Entrypoint   | 0x0114   |
| Data Size    | 54 bytes |
| Instructions | 12       |

```
      00 01 02 03 04 05 06 07  08 09 0A 0B 0C 0D 0E 0F
      -- -- -- -- -- -- -- --  -- -- -- -- -- -- -- --
0110:             32 25 80 1F  00 2C 80 2D 80 19 80 1F      2%...,.-....
0120: 01 1F 00 2E 80 2F 80 19  80 1F 01 1F 00 30 80 31  ...../.......0.1
0130: 80 19 80 1F 01 1E D8 20  03 01 1C 28 80 4A D8 20  ....... ...(.J. 
0140: 03 01 D6 20 03 01 1C 28  80 00                    ... ...(..      
```

#### Opcodes

```
  0: 0x0114 [0x32] ExtData[1]->MainSpeed = 13* * 0.1
  1: 0x0117 [0x1F] MOVE_ENTITY: EventEntity moves to X=25.805*, Z=-47.509*, Y=-7.804*
  2: 0x011F [0x1F] MOVE_ENTITY: Update entity position (mode=1)
  3: 0x0121 [0x1F] MOVE_ENTITY: EventEntity moves to X=22.595*, Z=-47.567*, Y=-7.804*
  4: 0x0129 [0x1F] MOVE_ENTITY: Update entity position (mode=1)
  5: 0x012B [0x1F] MOVE_ENTITY: EventEntity moves to X=22.580*, Z=-46.545*, Y=-7.804*
  6: 0x0133 [0x1F] MOVE_ENTITY: Update entity position (mode=1)
  7: 0x0135 [0x1E] EventEntity looks at Naja Salaheem (ID: 16982232/0x010320D8) and starts talking
  8: 0x013A [0x1C] WAIT(60* ticks)
  9: 0x013D [0x4A] Naja Salaheem (ID: 16982232/0x010320D8) looks at Karababa (ID: 16982230/0x010320D6)
 10: 0x0146 [0x1C] WAIT(60* ticks)
 11: 0x0149 [0x00] END_REQSTACK()
```

### Event 65535.21

#### Metadata

| Field        | Value    |
|--------------|----------|
| Entrypoint   | 0x014A   |
| Data Size    | 42 bytes |
| Instructions | 10       |

```
      00 01 02 03 04 05 06 07  08 09 0A 0B 0C 0D 0E 0F
      -- -- -- -- -- -- -- --  -- -- -- -- -- -- -- --
0140:                                32 25 80 1F 00 2E            2%....
0150: 80 2F 80 19 80 1F 01 1F  00 2C 80 2D 80 19 80 1F  ./.......,.-....
0160: 01 1F 00 22 80 23 80 19  80 1F 01 1E D8 20 03 01  ...".#....... ..
0170: 1C 28 80 00                                       .(..            
```

#### Opcodes

```
  0: 0x014A [0x32] ExtData[1]->MainSpeed = 13* * 0.1
  1: 0x014D [0x1F] MOVE_ENTITY: EventEntity moves to X=22.595*, Z=-47.567*, Y=-7.804*
  2: 0x0155 [0x1F] MOVE_ENTITY: Update entity position (mode=1)
  3: 0x0157 [0x1F] MOVE_ENTITY: EventEntity moves to X=25.805*, Z=-47.509*, Y=-7.804*
  4: 0x015F [0x1F] MOVE_ENTITY: Update entity position (mode=1)
  5: 0x0161 [0x1F] MOVE_ENTITY: EventEntity moves to X=25.736*, Z=-45.629*, Y=-7.804*
  6: 0x0169 [0x1F] MOVE_ENTITY: Update entity position (mode=1)
  7: 0x016B [0x1E] EventEntity looks at Naja Salaheem (ID: 16982232/0x010320D8) and starts talking
  8: 0x0170 [0x1C] WAIT(60* ticks)
  9: 0x0173 [0x00] END_REQSTACK()
```

### Event 65535.22

#### Metadata

| Field        | Value    |
|--------------|----------|
| Entrypoint   | 0x0174   |
| Data Size    | 19 bytes |
| Instructions | 3        |

```
      00 01 02 03 04 05 06 07  08 09 0A 0B 0C 0D 0E 0F
      -- -- -- -- -- -- -- --  -- -- -- -- -- -- -- --
0170:             1C 32 80 66  33 80 D6 20 03 01 D6 20      .2.f3.. ... 
0180: 03 01 65 68 6E 30 00                              ..ehn0.         
```

#### Opcodes

```
  0: 0x0174 [0x1C] WAIT(30* ticks)
  1: 0x0177 [0x66] LOAD_EXT_SCHEDULER_MAIN: Load scheduler "ehn0" with entities [Karababa (ID: 16982230/0x010320D6), Karababa (ID: 16982230/0x010320D6)], work=41*
  2: 0x0186 [0x00] END_REQSTACK()
```

### Event 65535.23

#### Metadata

| Field        | Value    |
|--------------|----------|
| Entrypoint   | 0x0187   |
| Data Size    | 14 bytes |
| Instructions | 4        |

```
      00 01 02 03 04 05 06 07  08 09 0A 0B 0C 0D 0E 0F
      -- -- -- -- -- -- -- --  -- -- -- -- -- -- -- --
0180:                      32  25 80 1F 00 34 80 35 80         2%...4.5.
0190: 19 80 1F 01 00                                    .....           
```

#### Opcodes

```
  0: 0x0187 [0x32] ExtData[1]->MainSpeed = 13* * 0.1
  1: 0x018A [0x1F] MOVE_ENTITY: EventEntity moves to X=28.809*, Z=-47.011*, Y=-7.804*
  2: 0x0192 [0x1F] MOVE_ENTITY: Update entity position (mode=1)
  3: 0x0194 [0x00] END_REQSTACK()
```

### Event 65535.24

#### Metadata

| Field        | Value    |
|--------------|----------|
| Entrypoint   | 0x0195   |
| Data Size    | 14 bytes |
| Instructions | 4        |

```
      00 01 02 03 04 05 06 07  08 09 0A 0B 0C 0D 0E 0F
      -- -- -- -- -- -- -- --  -- -- -- -- -- -- -- --
0190:                32 25 80  1F 00 36 80 37 80 38 80       2%...6.7.8.
01A0: 1F 01 00                                          ...             
```

#### Opcodes

```
  0: 0x0195 [0x32] ExtData[1]->MainSpeed = 13* * 0.1
  1: 0x0198 [0x1F] MOVE_ENTITY: EventEntity moves to X=34.462*, Z=-47.561*, Y=-7.203*
  2: 0x01A0 [0x1F] MOVE_ENTITY: Update entity position (mode=1)
  3: 0x01A2 [0x00] END_REQSTACK()
```

### Event 65535.25

#### Metadata

| Field        | Value    |
|--------------|----------|
| Entrypoint   | 0x01A3   |
| Data Size    | 15 bytes |
| Instructions | 5        |

```
      00 01 02 03 04 05 06 07  08 09 0A 0B 0C 0D 0E 0F
      -- -- -- -- -- -- -- --  -- -- -- -- -- -- -- --
01A0:          32 39 80 1F 00  3A 80 3B 80 00 80 1F 01     29...:.;.....
01B0: 6F 00                                             o.              
```

#### Opcodes

```
  0: 0x01A3 [0x32] ExtData[1]->MainSpeed = 9* * 0.1
  1: 0x01A6 [0x1F] MOVE_ENTITY: EventEntity moves to X=-2.556*, Z=-66.701*, Y=0.000*
  2: 0x01AE [0x1F] MOVE_ENTITY: Update entity position (mode=1)
  3: 0x01B0 [0x6F] WAIT_FRAME_DELAY: Yield until WaitTime reaches zero
  4: 0x01B1 [0x00] END_REQSTACK()
```

### Event 65535.26

#### Metadata

| Field        | Value    |
|--------------|----------|
| Entrypoint   | 0x01B2   |
| Data Size    | 51 bytes |
| Instructions | 9        |

```
      00 01 02 03 04 05 06 07  08 09 0A 0B 0C 0D 0E 0F
      -- -- -- -- -- -- -- --  -- -- -- -- -- -- -- --
01B0:       66 33 80 D6 20 03  01 D6 20 03 01 6F 68 68    f3.. ... ..ohh
01C0: 30 1C 3C 80 66 33 80 D6  20 03 01 D6 20 03 01 6F  0.<.f3.. ... ..o
01D0: 68 68 31 1C 3D 80 32 07  80 1F 00 15 80 3E 80 00  hh1.=.2......>..
01E0: 80 1F 01 6F 00                                    ...o.           
```

#### Opcodes

```
  0: 0x01B2 [0x66] LOAD_EXT_SCHEDULER_MAIN: Load scheduler "ohh0" with entities [Karababa (ID: 16982230/0x010320D6), Karababa (ID: 16982230/0x010320D6)], work=41*
  1: 0x01C1 [0x1C] WAIT(90* ticks)
  2: 0x01C4 [0x66] LOAD_EXT_SCHEDULER_MAIN: Load scheduler "ohh1" with entities [Karababa (ID: 16982230/0x010320D6), Karababa (ID: 16982230/0x010320D6)], work=41*
  3: 0x01D3 [0x1C] WAIT(15* ticks)
  4: 0x01D6 [0x32] ExtData[1]->MainSpeed = 11* * 0.1
  5: 0x01D9 [0x1F] MOVE_ENTITY: EventEntity moves to X=-6.530*, Z=-62.992*, Y=0.000*
  6: 0x01E1 [0x1F] MOVE_ENTITY: Update entity position (mode=1)
  7: 0x01E3 [0x6F] WAIT_FRAME_DELAY: Yield until WaitTime reaches zero
  8: 0x01E4 [0x00] END_REQSTACK()
```

### Event 3097

#### Metadata

| Field        | Value   |
|--------------|---------|
| Entrypoint   | 0x01E5  |
| Data Size    | 1 bytes |
| Instructions | 1       |

```
      00 01 02 03 04 05 06 07  08 09 0A 0B 0C 0D 0E 0F
      -- -- -- -- -- -- -- --  -- -- -- -- -- -- -- --
01E0:                00                                      .          
```

#### Opcodes

```
  0: 0x01E5 [0x00] END_REQSTACK()
```

### Event 3140

#### Metadata

| Field        | Value   |
|--------------|---------|
| Entrypoint   | 0x01E6  |
| Data Size    | 7 bytes |
| Instructions | 2       |

```
      00 01 02 03 04 05 06 07  08 09 0A 0B 0C 0D 0E 0F
      -- -- -- -- -- -- -- --  -- -- -- -- -- -- -- --
01E0:                   92 01  F8 FF FF 7F 00                 .......   
```

#### Opcodes

```
  0: 0x01E6 [0x92] EventEntity->Render.Flags3 ^= 0x01
  1: 0x01EC [0x00] END_REQSTACK()
```
