# 16982646

## Common Data

| Field            | Value                          |
|------------------|--------------------------------|
| Zone             | Aht Urhgan Whitegate2 (ID: 50) |
| Block Size       | 18236 bytes                    |
| Total Events     | 9                              |
| References Count | 413                            |

## List of Events

| Event ID              | Entrypoint   |   Size |   Instructions |
|-----------------------|--------------|--------|----------------|
| [65535](#event-65535) | 0x0000       |      1 |              1 |
| [171](#event-171)     | 0x0001       |     39 |              8 |
| [172](#event-172)     | 0x0028       |     19 |              7 |
| [165](#event-165)     | 0x003B       |      6 |              4 |
| [164](#event-164)     | 0x0041       |   2195 |            261 |
| [166](#event-166)     | 0x08D4       |   5099 |            607 |
| [167](#event-167)     | 0x1CBF       |   5418 |            600 |
| [168](#event-168)     | 0x31E9       |   1303 |            159 |
| [169](#event-169)     | 0x3700       |   2449 |            299 |

## DAT References (imed_data)

|   Index | Hex Value   |   Dec Value |
|---------|-------------|-------------|
|       0 | 0x00C8      |         200 |
|       1 | 0x0000      |           0 |
|       2 | 0x1B88      |        7048 |
|       3 | 0x0001      |           1 |
|       4 | 0x001B      |          27 |
|       5 | 0xFFFFFF95  |  4294967189 |
|       6 | 0xFFFEC469  |  4294886505 |
|       7 | 0x0401      |        1025 |
|       8 | 0xFFFFD0F1  |  4294955249 |
|       9 | 0xFFFE98C6  |  4294875334 |
|      10 | 0x000F      |          15 |
|      11 | 0x07D4      |        2004 |
|      12 | 0xFFFE9924  |  4294875428 |
|      13 | 0x08F3      |        2291 |
|      14 | 0x001E      |          30 |
|      15 | 0x0D24      |        3364 |
|      16 | 0x02FC      |         764 |
|      17 | 0x0078      |         120 |
|      18 | 0x3CC5      |       15557 |
|      19 | 0xFFFFFFEE  |  4294967278 |
|      20 | 0xFFFE933B  |  4294873915 |
|      21 | 0x003C      |          60 |
|      22 | 0x3CC6      |       15558 |
|      23 | 0x3CC7      |       15559 |
|      24 | 0x3CC8      |       15560 |
|      25 | 0x01A9      |         425 |
|      26 | 0x3CC9      |       15561 |
|      27 | 0x3CCA      |       15562 |
|      28 | 0x3CCB      |       15563 |
|      29 | 0x00A4      |         164 |
|      30 | 0x3CCC      |       15564 |
|      31 | 0x3CCD      |       15565 |
|      32 | 0x3CCE      |       15566 |
|      33 | 0x3CCF      |       15567 |
|      34 | 0x3CD0      |       15568 |
|      35 | 0x0280      |         640 |
|      36 | 0x3CD1      |       15569 |
|      37 | 0x3CD2      |       15570 |
|      38 | 0x0064      |         100 |
|      39 | 0x3CD3      |       15571 |
|      40 | 0x3CD4      |       15572 |
|      41 | 0x3CD5      |       15573 |
|      42 | 0x3CD6      |       15574 |
|      43 | 0x3CD7      |       15575 |
|      44 | 0x3CD8      |       15576 |
|      45 | 0x3CD9      |       15577 |
|      46 | 0x3CDA      |       15578 |
|      47 | 0x3CDB      |       15579 |
|      48 | 0x3CDE      |       15582 |
|      49 | 0x3CDC      |       15580 |
|      50 | 0x3CDD      |       15581 |
|      51 | 0x3CDF      |       15583 |
|      52 | 0x3CE1      |       15585 |
|      53 | 0x3CE2      |       15586 |
|      54 | 0x3CE3      |       15587 |
|      55 | 0x3CE4      |       15588 |
|      56 | 0x3CE5      |       15589 |
|      57 | 0x3CE6      |       15590 |
|      58 | 0x3CE7      |       15591 |
|      59 | 0x3CE8      |       15592 |
|      60 | 0x3CE9      |       15593 |
|      61 | 0x3CEA      |       15594 |
|      62 | 0x3CED      |       15597 |
|      63 | 0x3CEB      |       15595 |
|      64 | 0x3CEC      |       15596 |
|      65 | 0x0014      |          20 |
|      66 | 0x3CEE      |       15598 |
|      67 | 0x3CEF      |       15599 |
|      68 | 0x3CF0      |       15600 |
|      69 | 0x3CF1      |       15601 |
|      70 | 0x3CF2      |       15602 |
|      71 | 0x3CF3      |       15603 |
|      72 | 0x0013      |          19 |
|      73 | 0x0072      |         114 |
|      74 | 0x005A      |          90 |
|      75 | 0x22908     |      141576 |
|      76 | 0xFFFFFD8D  |  4294966669 |
|      77 | 0xFFFFF830  |  4294965296 |
|      78 | 0x0FEF      |        4079 |
|      79 | 0x22E4B     |      142923 |
|      80 | 0xFFFFF717  |  4294965015 |
|      81 | 0x2333E     |      144190 |
|      82 | 0x0035      |          53 |
|      83 | 0x243CC     |      148428 |
|      84 | 0x0BE4      |        3044 |
|      85 | 0x0FFE      |        4094 |
|      86 | 0x3D01      |       15617 |
|      87 | 0x3D02      |       15618 |
|      88 | 0x3D03      |       15619 |
|      89 | 0x0050      |          80 |
|      90 | 0x0028      |          40 |
|      91 | 0x3D04      |       15620 |
|      92 | 0x3D05      |       15621 |
|      93 | 0x3D06      |       15622 |
|      94 | 0x0007      |           7 |
|      95 | 0x3D07      |       15623 |
|      96 | 0x3D08      |       15624 |
|      97 | 0x0016      |          22 |
|      98 | 0x3D09      |       15625 |
|      99 | 0x0003      |           3 |
|     100 | 0x3D0A      |       15626 |
|     101 | 0x0006      |           6 |
|     102 | 0x3D0B      |       15627 |
|     103 | 0x0002      |           2 |
|     104 | 0x3D0C      |       15628 |
|     105 | 0x3D0D      |       15629 |
|     106 | 0x3D0E      |       15630 |
|     107 | 0x0005      |           5 |
|     108 | 0x3D0F      |       15631 |
|     109 | 0x036E      |         878 |
|     110 | 0x3D10      |       15632 |
|     111 | 0x3D11      |       15633 |
|     112 | 0x3D12      |       15634 |
|     113 | 0x037B      |         891 |
|     114 | 0x3D13      |       15635 |
|     115 | 0x3D14      |       15636 |
|     116 | 0x3D15      |       15637 |
|     117 | 0x3D16      |       15638 |
|     118 | 0x3D17      |       15639 |
|     119 | 0x3D18      |       15640 |
|     120 | 0x3D19      |       15641 |
|     121 | 0x3D1A      |       15642 |
|     122 | 0x3D1B      |       15643 |
|     123 | 0x3D1C      |       15644 |
|     124 | 0x3D1D      |       15645 |
|     125 | 0x00B4      |         180 |
|     126 | 0x022F      |         559 |
|     127 | 0x0008      |           8 |
|     128 | 0xFFFFFFE5  |  4294967269 |
|     129 | 0xC644      |       50756 |
|     130 | 0xFFFFFFEC  |  4294967276 |
|     131 | 0x0BF4      |        3060 |
|     132 | 0xFFFFFFB4  |  4294967220 |
|     133 | 0xBAC0      |       47808 |
|     134 | 0xBA22      |       47650 |
|     135 | 0xFFFFFB50  |  4294966096 |
|     136 | 0x0004      |           4 |
|     137 | 0xFFFFFED4  |  4294966996 |
|     138 | 0xBA54      |       47700 |
|     139 | 0xFFFFFC4A  |  4294966346 |
|     140 | 0xFFFFFC18  |  4294966296 |
|     141 | 0x0414      |        1044 |
|     142 | 0xC365      |       50021 |
|     143 | 0xFFFFFC1B  |  4294966299 |
|     144 | 0xC3AC      |       50092 |
|     145 | 0x0F26      |        3878 |
|     146 | 0x283D      |       10301 |
|     147 | 0x004F      |          79 |
|     148 | 0x3D1E      |       15646 |
|     149 | 0x3D23      |       15651 |
|     150 | 0x3D1F      |       15647 |
|     151 | 0x035A      |         858 |
|     152 | 0x3D20      |       15648 |
|     153 | 0x0389      |         905 |
|     154 | 0x3D21      |       15649 |
|     155 | 0x3D22      |       15650 |
|     156 | 0x3D24      |       15652 |
|     157 | 0x3D25      |       15653 |
|     158 | 0x3D26      |       15654 |
|     159 | 0x3D27      |       15655 |
|     160 | 0x3D28      |       15656 |
|     161 | 0x3D29      |       15657 |
|     162 | 0x3D2A      |       15658 |
|     163 | 0x3D2B      |       15659 |
|     164 | 0x3D2C      |       15660 |
|     165 | 0x3D2D      |       15661 |
|     166 | 0x3D2E      |       15662 |
|     167 | 0x3D2F      |       15663 |
|     168 | 0x3D30      |       15664 |
|     169 | 0x3D31      |       15665 |
|     170 | 0x3D32      |       15666 |
|     171 | 0x3D33      |       15667 |
|     172 | 0x3D34      |       15668 |
|     173 | 0x039E      |         926 |
|     174 | 0x3D35      |       15669 |
|     175 | 0x3D36      |       15670 |
|     176 | 0x0067      |         103 |
|     177 | 0x3D38      |       15672 |
|     178 | 0x0096      |         150 |
|     179 | 0x04CC      |        1228 |
|     180 | 0x3D37      |       15671 |
|     181 | 0x0032      |          50 |
|     182 | 0x0075      |         117 |
|     183 | 0x00C9      |         201 |
|     184 | 0x3D39      |       15673 |
|     185 | 0x3D3A      |       15674 |
|     186 | 0x3D3B      |       15675 |
|     187 | 0x3D3C      |       15676 |
|     188 | 0x0434      |        1076 |
|     189 | 0x3D3D      |       15677 |
|     190 | 0x3D3E      |       15678 |
|     191 | 0x3D3F      |       15679 |
|     192 | 0x3D40      |       15680 |
|     193 | 0x3D42      |       15682 |
|     194 | 0x3D43      |       15683 |
|     195 | 0x3D41      |       15681 |
|     196 | 0x3D44      |       15684 |
|     197 | 0x3D45      |       15685 |
|     198 | 0x0110      |         272 |
|     199 | 0x03E7      |         999 |
|     200 | 0x00B2      |         178 |
|     201 | 0x0232      |         562 |
|     202 | 0x13864     |       79972 |
|     203 | 0xDA8F      |       55951 |
|     204 | 0xFFFFFEBB  |  4294966971 |
|     205 | 0x043B      |        1083 |
|     206 | 0x13288     |       78472 |
|     207 | 0xC686      |       50822 |
|     208 | 0x01E0      |         480 |
|     209 | 0x0C8B      |        3211 |
|     210 | 0x13C96     |       81046 |
|     211 | 0xD0D4      |       53460 |
|     212 | 0x02DE      |         734 |
|     213 | 0x3D46      |       15686 |
|     214 | 0x3D47      |       15687 |
|     215 | 0x3D48      |       15688 |
|     216 | 0x0030      |          48 |
|     217 | 0x0011      |          17 |
|     218 | 0x175F2     |       95730 |
|     219 | 0x1D876     |      120950 |
|     220 | 0x07CF      |        1999 |
|     221 | 0x000C      |          12 |
|     222 | 0x1C327     |      115495 |
|     223 | 0x1D4C3     |      120003 |
|     224 | 0x18D59     |      101721 |
|     225 | 0x1D56D     |      120173 |
|     226 | 0x2161C     |      136732 |
|     227 | 0x1C6ED     |      116461 |
|     228 | 0xFFFFF831  |  4294965297 |
|     229 | 0x0C15      |        3093 |
|     230 | 0x16D8A     |       93578 |
|     231 | 0x1D1DA     |      119258 |
|     232 | 0x1B612     |      112146 |
|     233 | 0x1B844     |      112708 |
|     234 | 0x0E0E      |        3598 |
|     235 | 0x1B1F5     |      111093 |
|     236 | 0x1C164     |      115044 |
|     237 | 0x01AD      |         429 |
|     238 | 0x0D04      |        3332 |
|     239 | 0x0090      |         144 |
|     240 | 0x3D49      |       15689 |
|     241 | 0x03AF      |         943 |
|     242 | 0x0046      |          70 |
|     243 | 0x006E      |         110 |
|     244 | 0x0082      |         130 |
|     245 | 0x3D4A      |       15690 |
|     246 | 0x3D4B      |       15691 |
|     247 | 0x010E      |         270 |
|     248 | 0x3D4E      |       15694 |
|     249 | 0x3D4F      |       15695 |
|     250 | 0x3D4C      |       15692 |
|     251 | 0x3D4D      |       15693 |
|     252 | 0x3D50      |       15696 |
|     253 | 0x3D51      |       15697 |
|     254 | 0x000A      |          10 |
|     255 | 0x0069      |         105 |
|     256 | 0x1A0B6     |      106678 |
|     257 | 0x1D994     |      121236 |
|     258 | 0x0037      |          55 |
|     259 | 0x3D52      |       15698 |
|     260 | 0x00A0      |         160 |
|     261 | 0x3D53      |       15699 |
|     262 | 0x3D54      |       15700 |
|     263 | 0x0157      |         343 |
|     264 | 0x0D05      |        3333 |
|     265 | 0x0FA0      |        4000 |
|     266 | 0x1B738     |      112440 |
|     267 | 0x1D673     |      120435 |
|     268 | 0x1BF54     |      114516 |
|     269 | 0x1D1E4     |      119268 |
|     270 | 0x0BD2      |        3026 |
|     271 | 0x3D55      |       15701 |
|     272 | 0x0470      |        1136 |
|     273 | 0x006C      |         108 |
|     274 | 0x007A      |         122 |
|     275 | 0x041B      |        1051 |
|     276 | 0x008C      |         140 |
|     277 | 0x00AA      |         170 |
|     278 | 0x00BE      |         190 |
|     279 | 0x002D      |          45 |
|     280 | 0x209AE     |      133550 |
|     281 | 0x1D4AB     |      119979 |
|     282 | 0x0BB7      |        2999 |
|     283 | 0x07F0      |        2032 |
|     284 | 0x20202     |      131586 |
|     285 | 0x1D285     |      119429 |
|     286 | 0x0F3C      |        3900 |
|     287 | 0x1F604     |      128516 |
|     288 | 0x1D7D8     |      120792 |
|     289 | 0x0BE9      |        3049 |
|     290 | 0x1F247     |      127559 |
|     291 | 0x1D26A     |      119402 |
|     292 | 0x1E92C     |      125228 |
|     293 | 0x1D514     |      120084 |
|     294 | 0x0296      |         662 |
|     295 | 0x3D56      |       15702 |
|     296 | 0x0095      |         149 |
|     297 | 0x3D57      |       15703 |
|     298 | 0x3D58      |       15704 |
|     299 | 0x0CF0      |        3312 |
|     300 | 0x3D59      |       15705 |
|     301 | 0x3D5A      |       15706 |
|     302 | 0x3D5B      |       15707 |
|     303 | 0x3D5C      |       15708 |
|     304 | 0x3D5D      |       15709 |
|     305 | 0x08C7      |        2247 |
|     306 | 0x044C      |        1100 |
|     307 | 0x0294      |         660 |
|     308 | 0x05A3      |        1443 |
|     309 | 0x3D5E      |       15710 |
|     310 | 0x3D5F      |       15711 |
|     311 | 0x3D60      |       15712 |
|     312 | 0x006A      |         106 |
|     313 | 0x3D61      |       15713 |
|     314 | 0x1B514     |      111892 |
|     315 | 0x1C8B1     |      116913 |
|     316 | 0x06B1      |        1713 |
|     317 | 0x1AD75     |      109941 |
|     318 | 0x1C2B1     |      115377 |
|     319 | 0x1AA61     |      109153 |
|     320 | 0x1CAA0     |      117408 |
|     321 | 0x3D62      |       15714 |
|     322 | 0x3D63      |       15715 |
|     323 | 0x3D64      |       15716 |
|     324 | 0x3D65      |       15717 |
|     325 | 0xFFFFE891  |  4294961297 |
|     326 | 0x0E1E      |        3614 |
|     327 | 0x3D66      |       15718 |
|     328 | 0x3D67      |       15719 |
|     329 | 0x0235      |         565 |
|     330 | 0x13892     |       80018 |
|     331 | 0xFFFE3163  |  4294848867 |
|     332 | 0xFFFFE890  |  4294961296 |
|     333 | 0x0433      |        1075 |
|     334 | 0x13833     |       79923 |
|     335 | 0xFFFE241E  |  4294845470 |
|     336 | 0x0400      |        1024 |
|     337 | 0x3D68      |       15720 |
|     338 | 0x3D69      |       15721 |
|     339 | 0x3D6A      |       15722 |
|     340 | 0x01AA      |         426 |
|     341 | 0x3D6B      |       15723 |
|     342 | 0x3D6C      |       15724 |
|     343 | 0x3D6D      |       15725 |
|     344 | 0x3D6E      |       15726 |
|     345 | 0x3D6F      |       15727 |
|     346 | 0x3D70      |       15728 |
|     347 | 0x3D71      |       15729 |
|     348 | 0x3D72      |       15730 |
|     349 | 0x3D73      |       15731 |
|     350 | 0x3D74      |       15732 |
|     351 | 0x3D75      |       15733 |
|     352 | 0x3D76      |       15734 |
|     353 | 0x3D77      |       15735 |
|     354 | 0x3D78      |       15736 |
|     355 | 0x0020      |          32 |
|     356 | 0x3D79      |       15737 |
|     357 | 0x3D7A      |       15738 |
|     358 | 0x3D7B      |       15739 |
|     359 | 0x3D7C      |       15740 |
|     360 | 0x3D7D      |       15741 |
|     361 | 0x3D7E      |       15742 |
|     362 | 0x3D7F      |       15743 |
|     363 | 0x3D81      |       15745 |
|     364 | 0x3D82      |       15746 |
|     365 | 0x3D83      |       15747 |
|     366 | 0x3D84      |       15748 |
|     367 | 0x3D85      |       15749 |
|     368 | 0x3D86      |       15750 |
|     369 | 0x3D87      |       15751 |
|     370 | 0x3D8F      |       15759 |
|     371 | 0x3D90      |       15760 |
|     372 | 0x3D93      |       15763 |
|     373 | 0x3D95      |       15765 |
|     374 | 0x3D80      |       15744 |
|     375 | 0x3D88      |       15752 |
|     376 | 0x3D89      |       15753 |
|     377 | 0x3D8A      |       15754 |
|     378 | 0x3D8B      |       15755 |
|     379 | 0x3D8C      |       15756 |
|     380 | 0x3D8D      |       15757 |
|     381 | 0x3D8E      |       15758 |
|     382 | 0x3D91      |       15761 |
|     383 | 0x3D92      |       15762 |
|     384 | 0x3D94      |       15764 |
|     385 | 0x3D96      |       15766 |
|     386 | 0xFFFFEE64  |  4294962788 |
|     387 | 0xC5D7      |       50647 |
|     388 | 0x012B      |         299 |
|     389 | 0x0F1F      |        3871 |
|     390 | 0x3D97      |       15767 |
|     391 | 0x3D98      |       15768 |
|     392 | 0x3D99      |       15769 |
|     393 | 0x3D9A      |       15770 |
|     394 | 0x3D9B      |       15771 |
|     395 | 0x3D9C      |       15772 |
|     396 | 0x3D9D      |       15773 |
|     397 | 0x3D9E      |       15774 |
|     398 | 0x3D9F      |       15775 |
|     399 | 0xFFFFEE18  |  4294962712 |
|     400 | 0xB9FB      |       47611 |
|     401 | 0x03F8      |        1016 |
|     402 | 0x3DA0      |       15776 |
|     403 | 0x3DA1      |       15777 |
|     404 | 0x3DA2      |       15778 |
|     405 | 0x3DA3      |       15779 |
|     406 | 0x05EC      |        1516 |
|     407 | 0x3DA4      |       15780 |
|     408 | 0x3DA5      |       15781 |
|     409 | 0xFFFFEE56  |  4294962774 |
|     410 | 0xA94B      |       43339 |
|     411 | 0x3DA6      |       15782 |
|     412 | 0x3DA7      |       15783 |

## String References

- **7048**: You are unable to make further progress in Rhapsodies of Vana'diel due to an event occurring in the [Chains of Promathia/Treasures of Aht Urhgan/Wings of the Goddess/Seekers of Adoulin/Rise of the Zilart] missions.
- **10301**: 
- **15560**: Ask him what happened? [Yes./No.]
- **15579**: How do you respond? [I'll do it./You aren't going to?]
- **15594**: How do you respond? [I'll do it./You aren't going to?]
- **15622**: Are you one of his cohorts? [That's right./You've got the wrong guy./His "gang"? How many are there?]
- **15699**: Think fast! [We've got to stop her!/We've got to do something!]
- **15722**: How do you respond? [Why?/And those in the Hall of Binding?/I don't want to go.]

## Events

### Event 65535

#### Metadata

| Field        | Value   |
|--------------|---------|
| Entrypoint   | 0x0000  |
| Data Size    | 1 bytes |
| Instructions | 1       |

```
      00 01 02 03 04 05 06 07  08 09 0A 0B 0C 0D 0E 0F
      -- -- -- -- -- -- -- --  -- -- -- -- -- -- -- --
0000: 00                                                .               
```

#### Opcodes

```
  0: 0x0000 [0x00] END_REQSTACK()
```

### Event 171

#### Metadata

| Field        | Value    |
|--------------|----------|
| Entrypoint   | 0x0001   |
| Data Size    | 39 bytes |
| Instructions | 8        |

```
      00 01 02 03 04 05 06 07  08 09 0A 0B 0C 0D 0E 0F
      -- -- -- -- -- -- -- --  -- -- -- -- -- -- -- --
0000:    42 4E 00 F0 FF FF 7F  80 F0 FF FF 7F 45 00 80   BN..........E..
0010: F8 FF FF 7F F8 FF FF 7F  66 64 69 31 01 80 03 03  ........fdi1....
0020: 10 01 80 48 02 80 21 00                           ...H..!.        
```

#### Opcodes

```
  0: 0x0001 [0x42] SET_CLI_EVENT_CANCEL_DATA()
  1: 0x0002 [0x4E] SET_ENTITY_HIDE_FLAG: Show LocalPlayer
  2: 0x0008 [0x80] LOAD_WAIT(entity=LocalPlayer)
  3: 0x000D [0x45] LOAD_SCHEDULED_TASK: Load scheduler "fdi1" with entities [EventEntity, EventEntity], work=[200*, 0*]
  4: 0x001E [0x03] Work_Zone[3] = 0*
  5: 0x0023 [0x48] [System] [7048*]:
    → "You are unable to make further progress in Rhapsodies of Vana'diel due to an event occurring in the [Chains of Promathia/Treasures of Aht Urhgan/Wings of the Goddess/Seekers of Adoulin/Rise of the Zilart] missions."
  6: 0x0026 [0x21] END_EVENT
  7: 0x0027 [0x00] END_REQSTACK()
```

### Event 172

#### Metadata

| Field        | Value    |
|--------------|----------|
| Entrypoint   | 0x0028   |
| Data Size    | 19 bytes |
| Instructions | 7        |

```
      00 01 02 03 04 05 06 07  08 09 0A 0B 0C 0D 0E 0F
      -- -- -- -- -- -- -- --  -- -- -- -- -- -- -- --
0020:                          42 03 03 10 01 80 48 02          B.....H.
0030: 80 03 03 10 03 80 48 02  80 21 00                 ......H..!.     
```

#### Opcodes

```
  0: 0x0028 [0x42] SET_CLI_EVENT_CANCEL_DATA()
  1: 0x0029 [0x03] Work_Zone[3] = 0*
  2: 0x002E [0x48] [System] [7048*]:
    → "You are unable to make further progress in Rhapsodies of Vana'diel due to an event occurring in the [Chains of Promathia/Treasures of Aht Urhgan/Wings of the Goddess/Seekers of Adoulin/Rise of the Zilart] missions."
  3: 0x0031 [0x03] Work_Zone[3] = 1*
  4: 0x0036 [0x48] [System] [7048*]:
    → "You are unable to make further progress in Rhapsodies of Vana'diel due to an event occurring in the [Chains of Promathia/Treasures of Aht Urhgan/Wings of the Goddess/Seekers of Adoulin/Rise of the Zilart] missions."
  5: 0x0039 [0x21] END_EVENT
  6: 0x003A [0x00] END_REQSTACK()
```

### Event 165

#### Metadata

| Field        | Value   |
|--------------|---------|
| Entrypoint   | 0x003B  |
| Data Size    | 6 bytes |
| Instructions | 4       |

```
      00 01 02 03 04 05 06 07  08 09 0A 0B 0C 0D 0E 0F
      -- -- -- -- -- -- -- --  -- -- -- -- -- -- -- --
0030:                                   42 1A 50 00 21             B.P.!
0040: 00                                                .               
```

#### Opcodes

```
  0: 0x003B [0x42] SET_CLI_EVENT_CANCEL_DATA()
  1: 0x003C [0x1A] CALL_SUBROUTINE(address=0x0050)
  2: 0x003F [0x21] END_EVENT
  3: 0x0040 [0x00] END_REQSTACK()
```

### Event 164

#### Metadata

| Field        | Value      |
|--------------|------------|
| Entrypoint   | 0x0041     |
| Data Size    | 2195 bytes |
| Instructions | 261        |

```
      00 01 02 03 04 05 06 07  08 09 0A 0B 0C 0D 0E 0F
      -- -- -- -- -- -- -- --  -- -- -- -- -- -- -- --
0040:    42 03 01 10 03 80 43  00 43 01 1A 50 00 21 00   B.....C.C..P.!.
0050: 03 00 00 02 10 03 01 00  03 10 03 02 00 04 10 45  ...............E
0060: 00 80 F8 FF FF 7F F8 FF  FF 7F 66 64 6F 31 01 80  ..........fdo1..
0070: 55 00 80 F8 FF FF 7F F8  FF FF 7F 66 64 6F 31 46  U..........fdo1F
0080: 01 38 04 80 2F 00 77 22  03 01 2F 00 78 22 03 01  .8../.w"../.x"..
0090: 4E 00 77 22 03 01 4E 00  78 22 03 01 4E 00 F0 FF  N.w"..N.x"..N...
00A0: FF 7F 92 01 77 22 03 01  92 01 78 22 03 01 94 01  ....w"....x"....
00B0: F0 FF FF 7F 94 01 77 22  03 01 94 01 78 22 03 01  ......w"....x"..
00C0: BA 77 22 03 01 05 80 06  80 01 80 07 80 BA F0 FF  .w".............
00D0: FF 7F 08 80 09 80 01 80  0A 80 BA 78 22 03 01 0B  ...........x"...
00E0: 80 0C 80 01 80 0D 80 80  77 22 03 01 80 F0 FF FF  ........w"......
00F0: 7F 80 78 22 03 01 1C 0E  80 27 05 78 22 03 01 03  ..x".....'.x"...
0100: 5B 0F 80 78 22 03 01 78  22 03 01 6E 69 6E 6C 27  [..x"..x"..ninl'
0110: 05 F0 FF FF 7F 6D 45 10  80 F8 FF FF 7F F8 FF FF  .....mE.........
0120: 7F 73 30 30 30 01 80 1C  0A 80 45 00 80 F8 FF FF  .s000.....E.....
0130: 7F F8 FF FF 7F 66 64 69  31 01 80 1C 11 80 27 05  .....fdi1.....'.
0140: 77 22 03 01 03 1C 0A 80  52 10 80 F8 FF FF 7F F8  w"......R.......
0150: FF FF 7F 73 30 30 30 45  10 80 F8 FF FF 7F F8 FF  ...s000E........
0160: FF 7F 73 30 30 31 01 80  2B 77 22 03 01 12 80 1C  ..s001..+w".....
0170: 0E 80 7A 00 F0 FF FF 7F  BA F0 FF FF 7F 13 80 14  ..z.............
0180: 80 01 80 0A 80 1C 15 80  52 10 80 F8 FF FF 7F F8  ........R.......
0190: FF FF 7F 73 30 30 31 45  10 80 F8 FF FF 7F F8 FF  ...s001E........
01A0: FF 7F 73 30 30 32 01 80  4A F0 FF FF 7F 77 22 03  ..s002..J....w".
01B0: 01 02 02 00 01 80 00 C4  01 2B 77 22 03 01 16 80  .........+w"....
01C0: 23 01 CC 01 2B 77 22 03  01 17 80 23 24 18 80 01  #...+w"....#$...
01D0: 80 01 80 25 02 00 10 01  80 00 DF 01 01 DF 01 52  ...%...........R
01E0: 10 80 F8 FF FF 7F F8 FF  FF 7F 73 30 30 32 45 10  ..........s002E.
01F0: 80 F8 FF FF 7F F8 FF FF  7F 73 30 30 33 01 80 5B  .........s003..[
0200: 19 80 77 22 03 01 77 22  03 01 74 6C 61 30 02 00  ..w"..w"..tla0..
0210: 00 01 80 00 21 02 2B 77  22 03 01 1A 80 23 01 3C  ....!.+w"....#.<
0220: 02 02 00 00 03 80 00 34  02 2B 77 22 03 01 1B 80  .......4.+w"....
0230: 23 01 3C 02 2B 77 22 03  01 1C 80 23 5B 19 80 77  #.<.+w"....#[..w
0240: 22 03 01 77 22 03 01 74  6C 61 31 55 10 80 F8 FF  "..w"..tla1U....
0250: FF 7F F8 FF FF 7F 73 30  30 33 45 10 80 F8 FF FF  ......s003E.....
0260: 7F F8 FF FF 7F 73 30 30  34 01 80 9F 1D 80 78 22  .....s004.....x"
0270: 03 01 78 22 03 01 6D 61  69 6E 01 80 27 05 78 22  ..x"..main..'.x"
0280: 03 01 04 1C 15 80 79 00  F0 FF FF 7F 78 22 03 01  ......y.....x"..
0290: 1C 15 80 52 10 80 F8 FF  FF 7F F8 FF FF 7F 73 30  ...R..........s0
02A0: 30 34 45 10 80 F8 FF FF  7F F8 FF FF 7F 73 30 30  04E..........s00
02B0: 35 01 80 2B 78 22 03 01  1E 80 23 79 00 77 22 03  5..+x"....#y.w".
02C0: 01 78 22 03 01 2B 77 22  03 01 1F 80 23 52 10 80  .x"..+w"....#R..
02D0: F8 FF FF 7F F8 FF FF 7F  73 30 30 35 45 10 80 F8  ........s005E...
02E0: FF FF 7F F8 FF FF 7F 73  30 30 36 01 80 79 00 77  .......s006..y.w
02F0: 22 03 01 F0 FF FF 7F 79  00 F0 FF FF 7F 77 22 03  "......y.....w".
0300: 01 5B 19 80 77 22 03 01  77 22 03 01 74 6C 61 30  .[..w"..w"..tla0
0310: 2B 77 22 03 01 20 80 23  2B 77 22 03 01 21 80 23  +w".. .#+w"..!.#
0320: 5B 19 80 77 22 03 01 77  22 03 01 74 6C 61 31 2B  [..w"..w"..tla1+
0330: 77 22 03 01 22 80 23 5B  23 80 77 22 03 01 77 22  w"..".#[#.w"..w"
0340: 03 01 74 6C 68 32 52 10  80 F8 FF FF 7F F8 FF FF  ..tlh2R.........
0350: 7F 73 30 30 36 45 10 80  F8 FF FF 7F F8 FF FF 7F  .s006E..........
0360: 73 30 30 37 01 80 2B 77  22 03 01 24 80 23 5B 0F  s007..+w"..$.#[.
0370: 80 78 22 03 01 78 22 03  01 6E 69 6E 32 52 10 80  .x"..x"..nin2R..
0380: F8 FF FF 7F F8 FF FF 7F  73 30 30 37 45 10 80 F8  ........s007E...
0390: FF FF 7F F8 FF FF 7F 73  30 30 38 01 80 2B 78 22  .......s008..+x"
03A0: 03 01 25 80 1C 26 80 23  5B 0F 80 78 22 03 01 78  ..%..&.#[..x"..x
03B0: 22 03 01 6E 69 6E 33 2B  78 22 03 01 27 80 1C 26  "..nin3+x"..'..&
03C0: 80 23 52 10 80 F8 FF FF  7F F8 FF FF 7F 73 30 30  .#R..........s00
03D0: 38 45 10 80 F8 FF FF 7F  F8 FF FF 7F 73 30 30 39  8E..........s009
03E0: 01 80 5B 23 80 77 22 03  01 77 22 03 01 74 6C 68  ..[#.w"..w"..tlh
03F0: 33 2B 77 22 03 01 28 80  23 02 00 00 01 80 00 EE  3+w"..(.#.......
0400: 05 5B 19 80 77 22 03 01  77 22 03 01 74 6C 61 30  .[..w"..w"..tla0
0410: 2B 77 22 03 01 29 80 23  2B 77 22 03 01 2A 80 23  +w"..).#+w"..*.#
0420: 5B 19 80 77 22 03 01 77  22 03 01 74 6C 61 31 2B  [..w"..w"..tla1+
0430: 77 22 03 01 2B 80 23 52  10 80 F8 FF FF 7F F8 FF  w"..+.#R........
0440: FF 7F 73 30 30 39 45 10  80 F8 FF FF 7F F8 FF FF  ..s009E.........
0450: 7F 73 30 31 30 01 80 2B  77 22 03 01 2C 80 23 2B  .s010..+w"..,.#+
0460: 77 22 03 01 2D 80 23 52  10 80 F8 FF FF 7F F8 FF  w"..-.#R........
0470: FF 7F 73 30 31 30 45 10  80 F8 FF FF 7F F8 FF FF  ..s010E.........
0480: 7F 73 30 31 31 01 80 2B  77 22 03 01 2E 80 23 52  .s011..+w"....#R
0490: 10 80 F8 FF FF 7F F8 FF  FF 7F 73 30 31 31 45 10  ..........s011E.
04A0: 80 F8 FF FF 7F F8 FF FF  7F 73 30 31 32 01 80 24  .........s012..$
04B0: 2F 80 01 80 01 80 25 02  00 10 01 80 00 F9 04 52  /.....%........R
04C0: 10 80 F8 FF FF 7F F8 FF  FF 7F 73 30 31 32 45 10  ..........s012E.
04D0: 80 F8 FF FF 7F F8 FF FF  7F 73 30 31 33 01 80 5B  .........s013..[
04E0: 19 80 77 22 03 01 77 22  03 01 74 6C 61 30 2B 77  ..w"..w"..tla0+w
04F0: 22 03 01 30 80 23 01 43  05 02 00 10 03 80 00 43  "..0.#.C.......C
0500: 05 52 10 80 F8 FF FF 7F  F8 FF FF 7F 73 30 31 32  .R..........s012
0510: 45 10 80 F8 FF FF 7F F8  FF FF 7F 73 30 31 33 01  E..........s013.
0520: 80 5B 19 80 77 22 03 01  77 22 03 01 74 6C 61 30  .[..w"..w"..tla0
0530: 2B 77 22 03 01 31 80 23  2B 77 22 03 01 32 80 23  +w"..1.#+w"..2.#
0540: 01 43 05 52 10 80 F8 FF  FF 7F F8 FF FF 7F 73 30  .C.R..........s0
0550: 31 33 45 10 80 F8 FF FF  7F F8 FF FF 7F 73 30 31  13E..........s01
0560: 34 01 80 2B 77 22 03 01  33 80 1C 11 80 45 00 80  4..+w"..3....E..
0570: F0 FF FF 7F F0 FF FF 7F  6F 76 6C 31 01 80 52 10  ........ovl1..R.
0580: 80 F8 FF FF 7F F8 FF FF  7F 73 30 31 34 45 10 80  .........s014E..
0590: F8 FF FF 7F F8 FF FF 7F  73 30 31 36 01 80 1C 11  ........s016....
05A0: 80 23 52 10 80 F8 FF FF  7F F8 FF FF 7F 73 30 31  .#R..........s01
05B0: 36 45 10 80 F8 FF FF 7F  F8 FF FF 7F 73 30 31 37  6E..........s017
05C0: 01 80 5B 19 80 77 22 03  01 77 22 03 01 74 6C 61  ..[..w"..w"..tla
05D0: 31 2B 77 22 03 01 34 80  23 79 00 77 22 03 01 78  1+w"..4.#y.w"..x
05E0: 22 03 01 2B 77 22 03 01  35 80 23 01 47 08 5B 19  "..+w"..5.#.G.[.
05F0: 80 77 22 03 01 77 22 03  01 74 6C 61 30 2B 77 22  .w"..w"..tla0+w"
0600: 03 01 36 80 23 2B 77 22  03 01 37 80 23 02 01 00  ..6.#+w"..7.#...
0610: 03 80 00 25 06 2B 77 22  03 01 38 80 23 03 04 10  ...%.+w"..8.#...
0620: 01 80 01 32 06 2B 77 22  03 01 39 80 23 03 04 10  ...2.+w"..9.#...
0630: 03 80 52 10 80 F8 FF FF  7F F8 FF FF 7F 73 30 30  ..R..........s00
0640: 39 45 10 80 F8 FF FF 7F  F8 FF FF 7F 73 30 31 30  9E..........s010
0650: 01 80 5B 19 80 77 22 03  01 77 22 03 01 74 6C 61  ..[..w"..w"..tla
0660: 31 2B 77 22 03 01 3A 80  23 2B 77 22 03 01 3B 80  1+w"..:.#+w"..;.
0670: 23 52 10 80 F8 FF FF 7F  F8 FF FF 7F 73 30 31 30  #R..........s010
0680: 45 10 80 F8 FF FF 7F F8  FF FF 7F 73 30 31 31 01  E..........s011.
0690: 80 2B 77 22 03 01 3C 80  23 52 10 80 F8 FF FF 7F  .+w"..<.#R......
06A0: F8 FF FF 7F 73 30 31 31  45 10 80 F8 FF FF 7F F8  ....s011E.......
06B0: FF FF 7F 73 30 31 32 01  80 24 3D 80 01 80 01 80  ...s012..$=.....
06C0: 25 02 00 10 01 80 00 03  07 52 10 80 F8 FF FF 7F  %........R......
06D0: F8 FF FF 7F 73 30 31 32  45 10 80 F8 FF FF 7F F8  ....s012E.......
06E0: FF FF 7F 73 30 31 33 01  80 5B 19 80 77 22 03 01  ...s013..[..w"..
06F0: 77 22 03 01 74 6C 61 30  2B 77 22 03 01 3E 80 23  w"..tla0+w"..>.#
0700: 01 4D 07 02 00 10 03 80  00 4D 07 52 10 80 F8 FF  .M.......M.R....
0710: FF 7F F8 FF FF 7F 73 30  31 32 45 10 80 F8 FF FF  ......s012E.....
0720: 7F F8 FF FF 7F 73 30 31  33 01 80 5B 19 80 77 22  .....s013..[..w"
0730: 03 01 77 22 03 01 74 6C  61 30 2B 77 22 03 01 3F  ..w"..tla0+w"..?
0740: 80 23 2B 77 22 03 01 40  80 23 01 4D 07 5B 19 80  .#+w"..@.#.M.[..
0750: 77 22 03 01 77 22 03 01  74 6C 61 31 5B 0F 80 78  w"..w"..tla1[..x
0760: 22 03 01 78 22 03 01 6E  69 6E 32 1C 41 80 52 10  "..x"..nin2.A.R.
0770: 80 F8 FF FF 7F F8 FF FF  7F 73 30 31 33 02 00 00  .........s013...
0780: 03 80 00 0A 08 45 10 80  F8 FF FF 7F F8 FF FF 7F  .....E..........
0790: 73 30 31 38 01 80 79 00  77 22 03 01 78 22 03 01  s018..y.w"..x"..
07A0: 2B 78 22 03 01 42 80 23  2B 77 22 03 01 43 80 23  +x"..B.#+w"..C.#
07B0: 7B 77 22 03 01 52 10 80  F8 FF FF 7F F8 FF FF 7F  {w"..R..........
07C0: 73 30 31 38 45 10 80 F8  FF FF 7F F8 FF FF 7F 73  s018E..........s
07D0: 30 31 39 01 80 5B 19 80  77 22 03 01 77 22 03 01  019..[..w"..w"..
07E0: 74 68 6B 30 2B 77 22 03  01 44 80 23 5B 19 80 77  thk0+w"..D.#[..w
07F0: 22 03 01 77 22 03 01 74  68 6B 31 52 10 80 F8 FF  "..w"..thk1R....
0800: FF 7F F8 FF FF 7F 73 30  31 39 45 10 80 F8 FF FF  ......s019E.....
0810: 7F F8 FF FF 7F 73 30 31  37 01 80 79 00 77 22 03  .....s017..y.w".
0820: 01 F0 FF FF 7F 2B 77 22  03 01 45 80 23 2B 77 22  .....+w"..E.#+w"
0830: 03 01 46 80 23 79 00 77  22 03 01 78 22 03 01 2B  ..F.#y.w"..x"..+
0840: 77 22 03 01 47 80 23 52  10 80 F8 FF FF 7F F8 FF  w"..G.#R........
0850: FF 7F 73 30 31 37 45 10  80 F8 FF FF 7F F8 FF FF  ..s017E.........
0860: 7F 73 30 32 30 01 80 27  05 77 22 03 01 04 66 48  .s020..'.w"...fH
0870: 80 78 22 03 01 78 22 03  01 6E 69 6E 31 9F 49 80  .x"..x"..nin1.I.
0880: 78 22 03 01 78 22 03 01  6D 61 69 6E 01 80 1C 4A  x"..x"..main...J
0890: 80 45 00 80 F8 FF FF 7F  F8 FF FF 7F 66 64 6F 31  .E..........fdo1
08A0: 01 80 55 00 80 F8 FF FF  7F F8 FF FF 7F 66 64 6F  ..U..........fdo
08B0: 31 52 10 80 F8 FF FF 7F  F8 FF FF 7F 73 30 32 30  1R..........s020
08C0: 46 00 45 00 80 F0 FF FF  7F F0 FF FF 7F 66 64 69  F.E..........fdi
08D0: 32 01 80 1B                                       2...            
```

#### Opcodes

```
  0: 0x0041 [0x42] SET_CLI_EVENT_CANCEL_DATA()
  1: 0x0042 [0x03] Work_Zone[1] = 1*
  2: 0x0047 [0x43] SEND_EVENT_UPDATE: Send pending tag to server (packet 0x005B)
  3: 0x0049 [0x43] SEND_EVENT_UPDATE: Check pending flag (skip if not pending)
  4: 0x004B [0x1A] CALL_SUBROUTINE(address=0x0050)
  5: 0x004E [0x21] END_EVENT
  6: 0x004F [0x00] END_REQSTACK()

SUBROUTINE_0050:
  7: 0x0050 [0x03] ExtData[1]->WorkLocal[0] = Work_Zone[2]
  8: 0x0055 [0x03] ExtData[1]->WorkLocal[1] = Work_Zone[3]
  9: 0x005A [0x03] ExtData[1]->WorkLocal[2] = Work_Zone[4]
 10: 0x005F [0x45] LOAD_SCHEDULED_TASK: Load scheduler "fdo1" with entities [EventEntity, EventEntity], work=[200*, 0*]
 11: 0x0070 [0x55] WAIT_LOAD_SCHEDULER: Wait for scheduler "fdo1" with entities [EventEntity, EventEntity], work=200*
 12: 0x007F [0x46] CAMERA_CONTROL: Disable user control
 13: 0x0081 [0x38] SET_CLIENT_EVENT_MODE(mode=27*)
 14: 0x0084 [0x2F] Tenzen (ID: 16982647/0x01032277)->Render.Flags0 &= ~0x80000 // Bit 19
 15: 0x008A [0x2F] Kagero (ID: 16982648/0x01032278)->Render.Flags0 &= ~0x80000 // Bit 19
 16: 0x0090 [0x4E] SET_ENTITY_HIDE_FLAG: Show Tenzen (ID: 16982647/0x01032277)
 17: 0x0096 [0x4E] SET_ENTITY_HIDE_FLAG: Show Kagero (ID: 16982648/0x01032278)
 18: 0x009C [0x4E] SET_ENTITY_HIDE_FLAG: Show LocalPlayer
 19: 0x00A2 [0x92] Tenzen (ID: 16982647/0x01032277)->Render.Flags3 ^= 0x01
 20: 0x00A8 [0x92] Kagero (ID: 16982648/0x01032278)->Render.Flags3 ^= 0x01
 21: 0x00AE [0x94] LocalPlayer->Render.Flags3 ^= 0x01
 22: 0x00B4 [0x94] Tenzen (ID: 16982647/0x01032277)->Render.Flags3 ^= 0x01
 23: 0x00BA [0x94] Kagero (ID: 16982648/0x01032278)->Render.Flags3 ^= 0x01
 24: 0x00C0 [0xBA] SET_ENTITY_POSITION(entity_id=Tenzen (ID: 16982647/0x01032277), pos_x=-0.107*, pos_z=-80.791*, pos_y=0.000*, direction=90.1°*)
 25: 0x00CD [0xBA] SET_ENTITY_POSITION(entity_id=LocalPlayer, pos_x=-12.047*, pos_z=-91.962*, pos_y=0.000*, direction=1.3°*)
 26: 0x00DA [0xBA] SET_ENTITY_POSITION(entity_id=Kagero (ID: 16982648/0x01032278), pos_x=2.004*, pos_z=-91.868*, pos_y=0.000*, direction=201.4°*)
 27: 0x00E7 [0x80] LOAD_WAIT(entity=Tenzen (ID: 16982647/0x01032277))
 28: 0x00EC [0x80] LOAD_WAIT(entity=LocalPlayer)
 29: 0x00F1 [0x80] LOAD_WAIT(entity=Kagero (ID: 16982648/0x01032278))
 30: 0x00F6 [0x1C] WAIT(30* ticks)
 31: 0x00F9 [0x27] REQ_SET(priority=0x05, entity_id=Kagero (ID: 16982648/0x01032278), tag_num=0x03)
 32: 0x0100 [0x5B] LOAD_EXT_SCHEDULER: Load scheduler "ninl" with entities [Kagero (ID: 16982648/0x01032278), Kagero (ID: 16982648/0x01032278)], work=3364*
 33: 0x010F [0x27] REQ_SET(priority=0x05, entity_id=LocalPlayer, tag_num=0x6D)
 34: 0x0116 [0x45] LOAD_SCHEDULED_TASK: Load scheduler "s000" with entities [EventEntity, EventEntity], work=[764*, 0*]
 35: 0x0127 [0x1C] WAIT(15* ticks)
 36: 0x012A [0x45] LOAD_SCHEDULED_TASK: Load scheduler "fdi1" with entities [EventEntity, EventEntity], work=[200*, 0*]
 37: 0x013B [0x1C] WAIT(120* ticks)
 38: 0x013E [0x27] REQ_SET(priority=0x05, entity_id=Tenzen (ID: 16982647/0x01032277), tag_num=0x03)
 39: 0x0145 [0x1C] WAIT(15* ticks)
 40: 0x0148 [0x52] END_LOAD_SCHEDULER: End scheduler "s000" with entities [EventEntity, EventEntity], work=764*
 41: 0x0157 [0x45] LOAD_SCHEDULED_TASK: Load scheduler "s001" with entities [EventEntity, EventEntity], work=[764*, 0*]
 42: 0x0168 [0x2B] Tenzen (ID: 16982647/0x01032277) [15557*]:
    → "[Lord/Lady] <Player>!"
 43: 0x016F [0x1C] WAIT(30* ticks)
 44: 0x0172 [0x7A] VM_CONTROL: Reset VM for LocalPlayer
 45: 0x0178 [0xBA] SET_ENTITY_POSITION(entity_id=LocalPlayer, pos_x=-0.018*, pos_z=-93.381*, pos_y=0.000*, direction=1.3°*)
 46: 0x0185 [0x1C] WAIT(60* ticks)
 47: 0x0188 [0x52] END_LOAD_SCHEDULER: End scheduler "s001" with entities [EventEntity, EventEntity], work=764*
 48: 0x0197 [0x45] LOAD_SCHEDULED_TASK: Load scheduler "s002" with entities [EventEntity, EventEntity], work=[764*, 0*]
 49: 0x01A8 [0x4A] LocalPlayer looks at Tenzen (ID: 16982647/0x01032277)
 50: 0x01B1 [0x02] IF !(ExtData[1]->WorkLocal[2] == 0*) GOTO 0x01C4
 51: 0x01B9 [0x2B] Tenzen (ID: 16982647/0x01032277) [15558*]:
    → "I urgently request your aid!"
 52: 0x01C0 [0x23] WAIT_FOR_DIALOG_INTERACTION
 53: 0x01C1 [0x01] GOTO 0x01CC
 54: 0x01C4 [0x2B] Tenzen (ID: 16982647/0x01032277) [15559*]:
    → "<Player>, I understand that you may still be upset with me, but I urgently request your aid!"
 55: 0x01CB [0x23] WAIT_FOR_DIALOG_INTERACTION

SUBROUTINE_01CC:
 56: 0x01CC [0x24] CREATE_DIALOG(message_id=15560*, default_option=0*, option_flags=0*)
    → "Ask him what happened? [Yes./No.]"
 57: 0x01D3 [0x25] WAIT_DIALOG_SELECT()
 58: 0x01D4 [0x02] IF !(Work_Zone[0] == 0*) GOTO 0x01DF
 59: 0x01DC [0x01] GOTO 0x01DF

SUBROUTINE_01DF:
 60: 0x01DF [0x52] END_LOAD_SCHEDULER: End scheduler "s002" with entities [EventEntity, EventEntity], work=764*
 61: 0x01EE [0x45] LOAD_SCHEDULED_TASK: Load scheduler "s003" with entities [EventEntity, EventEntity], work=[764*, 0*]
 62: 0x01FF [0x5B] LOAD_EXT_SCHEDULER: Load scheduler "tla0" with entities [Tenzen (ID: 16982647/0x01032277), Tenzen (ID: 16982647/0x01032277)], work=425*
 63: 0x020E [0x02] IF !(ExtData[1]->WorkLocal[0] == 0*) GOTO 0x0221
 64: 0x0216 [0x2B] Tenzen (ID: 16982647/0x01032277) [15561*]:
    → "I need you to infiltrate an organization known as Salaheem's Sentinels!"
 65: 0x021D [0x23] WAIT_FOR_DIALOG_INTERACTION
 66: 0x021E [0x01] GOTO 0x023C
 67: 0x0221 [0x02] IF !(ExtData[1]->WorkLocal[0] == 1*) GOTO 0x0234
 68: 0x0229 [0x2B] Tenzen (ID: 16982647/0x01032277) [15562*]:
    → "I must ask you to infiltrate the palace!"
 69: 0x0230 [0x23] WAIT_FOR_DIALOG_INTERACTION
 70: 0x0231 [0x01] GOTO 0x023C
 71: 0x0234 [0x2B] Tenzen (ID: 16982647/0x01032277) [15563*]:
    → "I must ask you to infiltrate the palace!"
 72: 0x023B [0x23] WAIT_FOR_DIALOG_INTERACTION

SUBROUTINE_023C:
 73: 0x023C [0x5B] LOAD_EXT_SCHEDULER: Load scheduler "tla1" with entities [Tenzen (ID: 16982647/0x01032277), Tenzen (ID: 16982647/0x01032277)], work=425*
 74: 0x024B [0x55] WAIT_LOAD_SCHEDULER: Wait for scheduler "s003" with entities [EventEntity, EventEntity], work=764*
 75: 0x025A [0x45] LOAD_SCHEDULED_TASK: Load scheduler "s004" with entities [EventEntity, EventEntity], work=[764*, 0*]
 76: 0x026B [0x9F] LOAD_SCHEDULED_TASK_ALT: Load scheduler "main" with entities [Kagero (ID: 16982648/0x01032278), Kagero (ID: 16982648/0x01032278)], work=[164*, 0*]
 77: 0x027C [0x27] REQ_SET(priority=0x05, entity_id=Kagero (ID: 16982648/0x01032278), tag_num=0x04)
 78: 0x0283 [0x1C] WAIT(60* ticks)
 79: 0x0286 [0x79] LocalPlayer looks at Kagero (ID: 16982648/0x01032278) (Basic look)
 80: 0x0290 [0x1C] WAIT(60* ticks)
 81: 0x0293 [0x52] END_LOAD_SCHEDULER: End scheduler "s004" with entities [EventEntity, EventEntity], work=764*
 82: 0x02A2 [0x45] LOAD_SCHEDULED_TASK: Load scheduler "s005" with entities [EventEntity, EventEntity], work=[764*, 0*]
 83: 0x02B3 [0x2B] Kagero (ID: 16982648/0x01032278) [15564*]:
    → "Forgive me for speaking out of turn, but our adventurer companion must be completely lost without a clear explanation."
 84: 0x02BA [0x23] WAIT_FOR_DIALOG_INTERACTION
 85: 0x02BB [0x79] Tenzen (ID: 16982647/0x01032277) looks at Kagero (ID: 16982648/0x01032278) (Basic look)
 86: 0x02C5 [0x2B] Tenzen (ID: 16982647/0x01032277) [15565*]:
    → "O-of course!"
 87: 0x02CC [0x23] WAIT_FOR_DIALOG_INTERACTION
 88: 0x02CD [0x52] END_LOAD_SCHEDULER: End scheduler "s005" with entities [EventEntity, EventEntity], work=764*
 89: 0x02DC [0x45] LOAD_SCHEDULED_TASK: Load scheduler "s006" with entities [EventEntity, EventEntity], work=[764*, 0*]
 90: 0x02ED [0x79] Tenzen (ID: 16982647/0x01032277) looks at LocalPlayer (Basic look)
 91: 0x02F7 [0x79] LocalPlayer looks at Tenzen (ID: 16982647/0x01032277) (Basic look)
 92: 0x0301 [0x5B] LOAD_EXT_SCHEDULER: Load scheduler "tla0" with entities [Tenzen (ID: 16982647/0x01032277), Tenzen (ID: 16982647/0x01032277)], work=425*
 93: 0x0310 [0x2B] Tenzen (ID: 16982647/0x01032277) [15566*]:
    → "I met with a particular someone upon setting foot here in Aht Urhgan."
 94: 0x0317 [0x23] WAIT_FOR_DIALOG_INTERACTION
 95: 0x0318 [0x2B] Tenzen (ID: 16982647/0x01032277) [15567*]:
    → "A staunch ally known as Gessho."
 96: 0x031F [0x23] WAIT_FOR_DIALOG_INTERACTION
 97: 0x0320 [0x5B] LOAD_EXT_SCHEDULER: Load scheduler "tla1" with entities [Tenzen (ID: 16982647/0x01032277), Tenzen (ID: 16982647/0x01032277)], work=425*
 98: 0x032F [0x2B] Tenzen (ID: 16982647/0x01032277) [15568*]:
    → "He shrouds himself in a tarnished black outfit--a ridiculous costume the likes of which I have never seen!"
 99: 0x0336 [0x23] WAIT_FOR_DIALOG_INTERACTION
100: 0x0337 [0x5B] LOAD_EXT_SCHEDULER: Load scheduler "tlh2" with entities [Tenzen (ID: 16982647/0x01032277), Tenzen (ID: 16982647/0x01032277)], work=640*
101: 0x0346 [0x52] END_LOAD_SCHEDULER: End scheduler "s006" with entities [EventEntity, EventEntity], work=764*
102: 0x0355 [0x45] LOAD_SCHEDULED_TASK: Load scheduler "s007" with entities [EventEntity, EventEntity], work=[764*, 0*]
103: 0x0366 [0x2B] Tenzen (ID: 16982647/0x01032277) [15569*]:
    → "One cannot help but admire his commitment to the cause, playing dress-up in a bid to fully maintain his cover!"
104: 0x036D [0x23] WAIT_FOR_DIALOG_INTERACTION
105: 0x036E [0x5B] LOAD_EXT_SCHEDULER: Load scheduler "nin2" with entities [Kagero (ID: 16982648/0x01032278), Kagero (ID: 16982648/0x01032278)], work=3364*
106: 0x037D [0x52] END_LOAD_SCHEDULER: End scheduler "s007" with entities [EventEntity, EventEntity], work=764*
107: 0x038C [0x45] LOAD_SCHEDULED_TASK: Load scheduler "s008" with entities [EventEntity, EventEntity], work=[764*, 0*]
108: 0x039D [0x2B] Kagero (ID: 16982648/0x01032278) [15570*]:
    → "Sir Tenzen, that is no costume..."
109: 0x03A4 [0x1C] WAIT(100* ticks)
110: 0x03A7 [0x23] WAIT_FOR_DIALOG_INTERACTION
111: 0x03A8 [0x5B] LOAD_EXT_SCHEDULER: Load scheduler "nin3" with entities [Kagero (ID: 16982648/0x01032278), Kagero (ID: 16982648/0x01032278)], work=3364*
112: 0x03B7 [0x2B] Kagero (ID: 16982648/0x01032278) [15571*]:
    → "And furthermore, it is wholly irrelevant to this discussion."
113: 0x03BE [0x1C] WAIT(100* ticks)
114: 0x03C1 [0x23] WAIT_FOR_DIALOG_INTERACTION
115: 0x03C2 [0x52] END_LOAD_SCHEDULER: End scheduler "s008" with entities [EventEntity, EventEntity], work=764*
116: 0x03D1 [0x45] LOAD_SCHEDULED_TASK: Load scheduler "s009" with entities [EventEntity, EventEntity], work=[764*, 0*]
117: 0x03E2 [0x5B] LOAD_EXT_SCHEDULER: Load scheduler "tlh3" with entities [Tenzen (ID: 16982647/0x01032277), Tenzen (ID: 16982647/0x01032277)], work=640*
118: 0x03F1 [0x2B] Tenzen (ID: 16982647/0x01032277) [15572*]:
    → "Ahem. Let me get back on track."
119: 0x03F8 [0x23] WAIT_FOR_DIALOG_INTERACTION
120: 0x03F9 [0x02] IF !(ExtData[1]->WorkLocal[0] == 0*) GOTO 0x05EE
121: 0x0401 [0x5B] LOAD_EXT_SCHEDULER: Load scheduler "tla0" with entities [Tenzen (ID: 16982647/0x01032277), Tenzen (ID: 16982647/0x01032277)], work=425*
122: 0x0410 [0x2B] Tenzen (ID: 16982647/0x01032277) [15573*]:
    → "Gessho strove to find out all he could about this ambassador."
123: 0x0417 [0x23] WAIT_FOR_DIALOG_INTERACTION
124: 0x0418 [0x2B] Tenzen (ID: 16982647/0x01032277) [15574*]:
    → "But a Mithra of most vile temperament dragged him kicking and screaming while he was in the midst of an interrogation."
125: 0x041F [0x23] WAIT_FOR_DIALOG_INTERACTION
126: 0x0420 [0x5B] LOAD_EXT_SCHEDULER: Load scheduler "tla1" with entities [Tenzen (ID: 16982647/0x01032277), Tenzen (ID: 16982647/0x01032277)], work=425*
127: 0x042F [0x2B] Tenzen (ID: 16982647/0x01032277) [15575*]:
    → "It was then that we lost all contact."
128: 0x0436 [0x23] WAIT_FOR_DIALOG_INTERACTION
129: 0x0437 [0x52] END_LOAD_SCHEDULER: End scheduler "s009" with entities [EventEntity, EventEntity], work=764*
130: 0x0446 [0x45] LOAD_SCHEDULED_TASK: Load scheduler "s010" with entities [EventEntity, EventEntity], work=[764*, 0*]
131: 0x0457 [0x2B] Tenzen (ID: 16982647/0x01032277) [15576*]:
    → "Kagero, for her part, turned up something interesting: that Mithra belongs to an organization known as "Salaheem's Sentinels.""
132: 0x045E [0x23] WAIT_FOR_DIALOG_INTERACTION
133: 0x045F [0x2B] Tenzen (ID: 16982647/0x01032277) [15577*]:
    → "What is more, this company is currently recruiting adventurers to aid in their cause."
134: 0x0466 [0x23] WAIT_FOR_DIALOG_INTERACTION
135: 0x0467 [0x52] END_LOAD_SCHEDULER: End scheduler "s010" with entities [EventEntity, EventEntity], work=764*
136: 0x0476 [0x45] LOAD_SCHEDULED_TASK: Load scheduler "s011" with entities [EventEntity, EventEntity], work=[764*, 0*]
137: 0x0487 [0x2B] Tenzen (ID: 16982647/0x01032277) [15578*]:
    → "I fear your joining this band of mercenaries is the only way to make contact with Gessho."
138: 0x048E [0x23] WAIT_FOR_DIALOG_INTERACTION
139: 0x048F [0x52] END_LOAD_SCHEDULER: End scheduler "s011" with entities [EventEntity, EventEntity], work=764*
140: 0x049E [0x45] LOAD_SCHEDULED_TASK: Load scheduler "s012" with entities [EventEntity, EventEntity], work=[764*, 0*]
141: 0x04AF [0x24] CREATE_DIALOG(message_id=15579*, default_option=0*, option_flags=0*)
    → "How do you respond? [I'll do it./You aren't going to?]"
142: 0x04B6 [0x25] WAIT_DIALOG_SELECT()
143: 0x04B7 [0x02] IF !(Work_Zone[0] == 0*) GOTO 0x04F9
144: 0x04BF [0x52] END_LOAD_SCHEDULER: End scheduler "s012" with entities [EventEntity, EventEntity], work=764*
145: 0x04CE [0x45] LOAD_SCHEDULED_TASK: Load scheduler "s013" with entities [EventEntity, EventEntity], work=[764*, 0*]
146: 0x04DF [0x5B] LOAD_EXT_SCHEDULER: Load scheduler "tla0" with entities [Tenzen (ID: 16982647/0x01032277), Tenzen (ID: 16982647/0x01032277)], work=425*
147: 0x04EE [0x2B] Tenzen (ID: 16982647/0x01032277) [15582*]:
    → "Those were the words I had been hoping to hear!"
148: 0x04F5 [0x23] WAIT_FOR_DIALOG_INTERACTION
149: 0x04F6 [0x01] GOTO 0x0543
150: 0x04F9 [0x02] IF !(Work_Zone[0] == 1*) GOTO 0x0543
151: 0x0501 [0x52] END_LOAD_SCHEDULER: End scheduler "s012" with entities [EventEntity, EventEntity], work=764*
152: 0x0510 [0x45] LOAD_SCHEDULED_TASK: Load scheduler "s013" with entities [EventEntity, EventEntity], work=[764*, 0*]
153: 0x0521 [0x5B] LOAD_EXT_SCHEDULER: Load scheduler "tla0" with entities [Tenzen (ID: 16982647/0x01032277), Tenzen (ID: 16982647/0x01032277)], work=425*
154: 0x0530 [0x2B] Tenzen (ID: 16982647/0x01032277) [15580*]:
    → "Her violence and rage may be concerning, to be sure..."
155: 0x0537 [0x23] WAIT_FOR_DIALOG_INTERACTION
156: 0x0538 [0x2B] Tenzen (ID: 16982647/0x01032277) [15581*]:
    → "But the only adventurer here is you!"
157: 0x053F [0x23] WAIT_FOR_DIALOG_INTERACTION
158: 0x0540 [0x01] GOTO 0x0543

SUBROUTINE_0543:
159: 0x0543 [0x52] END_LOAD_SCHEDULER: End scheduler "s013" with entities [EventEntity, EventEntity], work=764*
160: 0x0552 [0x45] LOAD_SCHEDULED_TASK: Load scheduler "s014" with entities [EventEntity, EventEntity], work=[764*, 0*]
161: 0x0563 [0x2B] Tenzen (ID: 16982647/0x01032277) [15583*]:
    → "Salaheem's Sentinels' office is located in the building just beyond here."
162: 0x056A [0x1C] WAIT(120* ticks)
163: 0x056D [0x45] LOAD_SCHEDULED_TASK: Load scheduler "ovl1" with entities [LocalPlayer, LocalPlayer], work=[200*, 0*]
164: 0x057E [0x52] END_LOAD_SCHEDULER: End scheduler "s014" with entities [EventEntity, EventEntity], work=764*
165: 0x058D [0x45] LOAD_SCHEDULED_TASK: Load scheduler "s016" with entities [EventEntity, EventEntity], work=[764*, 0*]
166: 0x059E [0x1C] WAIT(120* ticks)
167: 0x05A1 [0x23] WAIT_FOR_DIALOG_INTERACTION
168: 0x05A2 [0x52] END_LOAD_SCHEDULER: End scheduler "s016" with entities [EventEntity, EventEntity], work=764*
169: 0x05B1 [0x45] LOAD_SCHEDULED_TASK: Load scheduler "s017" with entities [EventEntity, EventEntity], work=[764*, 0*]
170: 0x05C2 [0x5B] LOAD_EXT_SCHEDULER: Load scheduler "tla1" with entities [Tenzen (ID: 16982647/0x01032277), Tenzen (ID: 16982647/0x01032277)], work=425*
171: 0x05D1 [0x2B] Tenzen (ID: 16982647/0x01032277) [15585*]:
    → "While you surreptitiously "serve" in Salaheem's Sentinels, I will make inquiries of my own."
172: 0x05D8 [0x23] WAIT_FOR_DIALOG_INTERACTION
173: 0x05D9 [0x79] Tenzen (ID: 16982647/0x01032277) looks at Kagero (ID: 16982648/0x01032278) (Basic look)
174: 0x05E3 [0x2B] Tenzen (ID: 16982647/0x01032277) [15586*]:
    → "Come, Kagero."
175: 0x05EA [0x23] WAIT_FOR_DIALOG_INTERACTION
176: 0x05EB [0x01] GOTO 0x0847
177: 0x05EE [0x5B] LOAD_EXT_SCHEDULER: Load scheduler "tla0" with entities [Tenzen (ID: 16982647/0x01032277), Tenzen (ID: 16982647/0x01032277)], work=425*
178: 0x05FD [0x2B] Tenzen (ID: 16982647/0x01032277) [15587*]:
    → "Gessho strove to find out all he could about this ambassador."
179: 0x0604 [0x23] WAIT_FOR_DIALOG_INTERACTION
180: 0x0605 [0x2B] Tenzen (ID: 16982647/0x01032277) [15588*]:
    → "He received credible information about a man matching his description visiting an Imperial alchemist in the palace."
181: 0x060C [0x23] WAIT_FOR_DIALOG_INTERACTION
182: 0x060D [0x02] IF !(ExtData[1]->WorkLocal[1] == 1*) GOTO 0x0625
183: 0x0615 [0x2B] Tenzen (ID: 16982647/0x01032277) [15589*]:
    → "Whispers abound that he is after something called "Ghatsad's Astral Candescence.""
184: 0x061C [0x23] WAIT_FOR_DIALOG_INTERACTION
185: 0x061D [0x03] Work_Zone[4] = 0*
186: 0x0622 [0x01] GOTO 0x0632
187: 0x0625 [0x2B] Tenzen (ID: 16982647/0x01032277) [15590*]:
    → "Would that I had more information about the location, but Gessho himself remains uncertain."
188: 0x062C [0x23] WAIT_FOR_DIALOG_INTERACTION
189: 0x062D [0x03] Work_Zone[4] = 1*

SUBROUTINE_0632:
190: 0x0632 [0x52] END_LOAD_SCHEDULER: End scheduler "s009" with entities [EventEntity, EventEntity], work=764*
191: 0x0641 [0x45] LOAD_SCHEDULED_TASK: Load scheduler "s010" with entities [EventEntity, EventEntity], work=[764*, 0*]
192: 0x0652 [0x5B] LOAD_EXT_SCHEDULER: Load scheduler "tla1" with entities [Tenzen (ID: 16982647/0x01032277), Tenzen (ID: 16982647/0x01032277)], work=425*
193: 0x0661 [0x2B] Tenzen (ID: 16982647/0x01032277) [15591*]:
    → "[Thankfully/On the bright side], Gessho was able to foil his plot before it bore fruit."
194: 0x0668 [0x23] WAIT_FOR_DIALOG_INTERACTION
195: 0x0669 [0x2B] Tenzen (ID: 16982647/0x01032277) [15592*]:
    → "I scarce need point out that he will not turn tail and saunter away."
196: 0x0670 [0x23] WAIT_FOR_DIALOG_INTERACTION
197: 0x0671 [0x52] END_LOAD_SCHEDULER: End scheduler "s010" with entities [EventEntity, EventEntity], work=764*
198: 0x0680 [0x45] LOAD_SCHEDULED_TASK: Load scheduler "s011" with entities [EventEntity, EventEntity], work=[764*, 0*]
199: 0x0691 [0x2B] Tenzen (ID: 16982647/0x01032277) [15593*]:
    → "And that is why I need you to infiltrate the palace."
200: 0x0698 [0x23] WAIT_FOR_DIALOG_INTERACTION
201: 0x0699 [0x52] END_LOAD_SCHEDULER: End scheduler "s011" with entities [EventEntity, EventEntity], work=764*
202: 0x06A8 [0x45] LOAD_SCHEDULED_TASK: Load scheduler "s012" with entities [EventEntity, EventEntity], work=[764*, 0*]
203: 0x06B9 [0x24] CREATE_DIALOG(message_id=15594*, default_option=0*, option_flags=0*)
    → "How do you respond? [I'll do it./You aren't going to?]"
204: 0x06C0 [0x25] WAIT_DIALOG_SELECT()
205: 0x06C1 [0x02] IF !(Work_Zone[0] == 0*) GOTO 0x0703
206: 0x06C9 [0x52] END_LOAD_SCHEDULER: End scheduler "s012" with entities [EventEntity, EventEntity], work=764*
207: 0x06D8 [0x45] LOAD_SCHEDULED_TASK: Load scheduler "s013" with entities [EventEntity, EventEntity], work=[764*, 0*]
208: 0x06E9 [0x5B] LOAD_EXT_SCHEDULER: Load scheduler "tla0" with entities [Tenzen (ID: 16982647/0x01032277), Tenzen (ID: 16982647/0x01032277)], work=425*
209: 0x06F8 [0x2B] Tenzen (ID: 16982647/0x01032277) [15597*]:
    → "Those were the words I had been hoping to hear!"
210: 0x06FF [0x23] WAIT_FOR_DIALOG_INTERACTION
211: 0x0700 [0x01] GOTO 0x074D
212: 0x0703 [0x02] IF !(Work_Zone[0] == 1*) GOTO 0x074D
213: 0x070B [0x52] END_LOAD_SCHEDULER: End scheduler "s012" with entities [EventEntity, EventEntity], work=764*
214: 0x071A [0x45] LOAD_SCHEDULED_TASK: Load scheduler "s013" with entities [EventEntity, EventEntity], work=[764*, 0*]
215: 0x072B [0x5B] LOAD_EXT_SCHEDULER: Load scheduler "tla0" with entities [Tenzen (ID: 16982647/0x01032277), Tenzen (ID: 16982647/0x01032277)], work=425*
216: 0x073A [0x2B] Tenzen (ID: 16982647/0x01032277) [15595*]:
    → "Oh, I have every intention of going."
217: 0x0741 [0x23] WAIT_FOR_DIALOG_INTERACTION
218: 0x0742 [0x2B] Tenzen (ID: 16982647/0x01032277) [15596*]:
    → "Kagero is perfectly aware of your every movement, and I shall attempt to catch the ambassador in a pincer."
219: 0x0749 [0x23] WAIT_FOR_DIALOG_INTERACTION
220: 0x074A [0x01] GOTO 0x074D

SUBROUTINE_074D:
221: 0x074D [0x5B] LOAD_EXT_SCHEDULER: Load scheduler "tla1" with entities [Tenzen (ID: 16982647/0x01032277), Tenzen (ID: 16982647/0x01032277)], work=425*
222: 0x075C [0x5B] LOAD_EXT_SCHEDULER: Load scheduler "nin2" with entities [Kagero (ID: 16982648/0x01032278), Kagero (ID: 16982648/0x01032278)], work=3364*
223: 0x076B [0x1C] WAIT(20* ticks)
224: 0x076E [0x52] END_LOAD_SCHEDULER: End scheduler "s013" with entities [EventEntity, EventEntity], work=764*
225: 0x077D [0x02] IF !(ExtData[1]->WorkLocal[0] == 1*) GOTO 0x080A
226: 0x0785 [0x45] LOAD_SCHEDULED_TASK: Load scheduler "s018" with entities [EventEntity, EventEntity], work=[764*, 0*]
227: 0x0796 [0x79] Tenzen (ID: 16982647/0x01032277) looks at Kagero (ID: 16982648/0x01032278) (Basic look)
228: 0x07A0 [0x2B] Kagero (ID: 16982648/0x01032278) [15598*]:
    → "Ah, but Sir Tenzen, [Lord/Lady] <Player> would make for a most unwelcome guest at present."
229: 0x07A7 [0x23] WAIT_FOR_DIALOG_INTERACTION
230: 0x07A8 [0x2B] Tenzen (ID: 16982647/0x01032277) [15599*]:
    → "Hmmm...that does pose quite the dilemma."
231: 0x07AF [0x23] WAIT_FOR_DIALOG_INTERACTION
232: 0x07B0 [0x7B] Tenzen (ID: 16982647/0x01032277) stops talking
233: 0x07B5 [0x52] END_LOAD_SCHEDULER: End scheduler "s018" with entities [EventEntity, EventEntity], work=764*
234: 0x07C4 [0x45] LOAD_SCHEDULED_TASK: Load scheduler "s019" with entities [EventEntity, EventEntity], work=[764*, 0*]
235: 0x07D5 [0x5B] LOAD_EXT_SCHEDULER: Load scheduler "thk0" with entities [Tenzen (ID: 16982647/0x01032277), Tenzen (ID: 16982647/0x01032277)], work=425*
236: 0x07E4 [0x2B] Tenzen (ID: 16982647/0x01032277) [15600*]:
    → "The only path that lies before you is to work to gain the trust of the Empire."
237: 0x07EB [0x23] WAIT_FOR_DIALOG_INTERACTION
238: 0x07EC [0x5B] LOAD_EXT_SCHEDULER: Load scheduler "thk1" with entities [Tenzen (ID: 16982647/0x01032277), Tenzen (ID: 16982647/0x01032277)], work=425*
239: 0x07FB [0x52] END_LOAD_SCHEDULER: End scheduler "s019" with entities [EventEntity, EventEntity], work=764*
240: 0x080A [0x45] LOAD_SCHEDULED_TASK: Load scheduler "s017" with entities [EventEntity, EventEntity], work=[764*, 0*]
241: 0x081B [0x79] Tenzen (ID: 16982647/0x01032277) looks at LocalPlayer (Basic look)
242: 0x0825 [0x2B] Tenzen (ID: 16982647/0x01032277) [15601*]:
    → "That will doubtlessly provide you with the opportunity to make our cause known."
243: 0x082C [0x23] WAIT_FOR_DIALOG_INTERACTION
244: 0x082D [0x2B] Tenzen (ID: 16982647/0x01032277) [15602*]:
    → "I wish you good fortune."
245: 0x0834 [0x23] WAIT_FOR_DIALOG_INTERACTION
246: 0x0835 [0x79] Tenzen (ID: 16982647/0x01032277) looks at Kagero (ID: 16982648/0x01032278) (Basic look)
247: 0x083F [0x2B] Tenzen (ID: 16982647/0x01032277) [15603*]:
    → "Kagero, come."
248: 0x0846 [0x23] WAIT_FOR_DIALOG_INTERACTION

SUBROUTINE_0847:
249: 0x0847 [0x52] END_LOAD_SCHEDULER: End scheduler "s017" with entities [EventEntity, EventEntity], work=764*
250: 0x0856 [0x45] LOAD_SCHEDULED_TASK: Load scheduler "s020" with entities [EventEntity, EventEntity], work=[764*, 0*]
251: 0x0867 [0x27] REQ_SET(priority=0x05, entity_id=Tenzen (ID: 16982647/0x01032277), tag_num=0x04)
252: 0x086E [0x66] LOAD_EXT_SCHEDULER_MAIN: Load scheduler "nin1" with entities [Kagero (ID: 16982648/0x01032278), Kagero (ID: 16982648/0x01032278)], work=19*
253: 0x087D [0x9F] LOAD_SCHEDULED_TASK_ALT: Load scheduler "main" with entities [Kagero (ID: 16982648/0x01032278), Kagero (ID: 16982648/0x01032278)], work=[114*, 0*]
254: 0x088E [0x1C] WAIT(90* ticks)
255: 0x0891 [0x45] LOAD_SCHEDULED_TASK: Load scheduler "fdo1" with entities [EventEntity, EventEntity], work=[200*, 0*]
256: 0x08A2 [0x55] WAIT_LOAD_SCHEDULER: Wait for scheduler "fdo1" with entities [EventEntity, EventEntity], work=200*
257: 0x08B1 [0x52] END_LOAD_SCHEDULER: End scheduler "s020" with entities [EventEntity, EventEntity], work=764*
258: 0x08C0 [0x46] CAMERA_CONTROL: Restore default settings
259: 0x08C2 [0x45] LOAD_SCHEDULED_TASK: Load scheduler "fdi2" with entities [LocalPlayer, LocalPlayer], work=[200*, 0*]
260: 0x08D3 [0x1B] RETURN
```

### Event 166

#### Metadata

| Field        | Value      |
|--------------|------------|
| Entrypoint   | 0x08D4     |
| Data Size    | 5099 bytes |
| Instructions | 607        |

```
      00 01 02 03 04 05 06 07  08 09 0A 0B 0C 0D 0E 0F
      -- -- -- -- -- -- -- --  -- -- -- -- -- -- -- --
08D0:             42 03 03 00  02 10 03 04 00 03 10 03      B...........
08E0: 05 00 04 10 03 06 00 05  10 45 00 80 F8 FF FF 7F  .........E......
08F0: F8 FF FF 7F 66 64 6F 31  01 80 55 00 80 F8 FF FF  ....fdo1..U.....
0900: 7F F8 FF FF 7F 66 64 6F  31 46 01 38 04 80 2F 00  .....fdo1F.8../.
0910: A8 20 03 01 92 01 A8 20  03 01 92 01 5E 20 03 01  . ..... ....^ ..
0920: 92 01 5F 20 03 01 94 01  5E 20 03 01 94 01 5F 20  .._ ....^ ...._ 
0930: 03 01 94 01 A8 20 03 01  94 01 F0 FF FF 7F 02 03  ..... ..........
0940: 00 01 80 00 50 09 27 05  A8 20 03 01 47 01 57 09  ....P.'.. ..G.W.
0950: 27 05 A8 20 03 01 48 02  04 00 01 80 00 66 09 27  '.. ..H......f.'
0960: 05 A8 20 03 01 49 02 05  00 03 80 00 AF 09 2F 00  .. ..I......../.
0970: C7 20 03 01 2F 00 C4 20  03 01 92 01 C7 20 03 01  . ../.. ..... ..
0980: 92 01 C4 20 03 01 94 01  C7 20 03 01 94 01 C4 20  ... ..... ..... 
0990: 03 01 BA C7 20 03 01 4B  80 4C 80 4D 80 4E 80 BA  .... ..K.L.M.N..
09A0: C4 20 03 01 4F 80 50 80  4D 80 4E 80 01 CE 09 2F  . ..O.P.M.N..../
09B0: 00 1A 21 03 01 92 01 1A  21 03 01 94 01 1A 21 03  ..!.....!.....!.
09C0: 01 BA 1A 21 03 01 4F 80  50 80 4D 80 4E 80 BA A8  ...!..O.P.M.N...
09D0: 20 03 01 51 80 52 80 4D  80 4E 80 BA F0 FF FF 7F   ..Q.R.M.N......
09E0: 53 80 54 80 4D 80 55 80  80 5E 20 03 01 80 5F 20  S.T.M.U..^ ..._ 
09F0: 03 01 80 F0 FF FF 7F 4A  5E 20 03 01 F0 FF FF 7F  .......J^ ......
0A00: 4A F0 FF FF 7F 5E 20 03  01 1C 0E 80 45 10 80 F8  J....^ .....E...
0A10: FF FF 7F F8 FF FF 7F 73  30 33 37 01 80 1C 0A 80  .......s037.....
0A20: 45 00 80 F0 FF FF 7F F0  FF FF 7F 66 64 69 31 01  E..........fdi1.
0A30: 80 66 01 80 5E 20 03 01  5E 20 03 01 74 6C 6B 30  .f..^ ..^ ..tlk0
0A40: 02 06 00 01 80 00 34 0E  2B 5E 20 03 01 56 80 23  ......4.+^ ..V.#
0A50: 52 10 80 F8 FF FF 7F F8  FF FF 7F 73 30 33 37 45  R..........s037E
0A60: 10 80 F8 FF FF 7F F8 FF  FF 7F 73 30 33 36 01 80  ..........s036..
0A70: 2B 5E 20 03 01 57 80 23  2B 5E 20 03 01 58 80 23  +^ ..W.#+^ ..X.#
0A80: 66 01 80 5E 20 03 01 5E  20 03 01 74 65 6E 30 27  f..^ ..^ ..ten0'
0A90: 05 F0 FF FF 7F 69 1C 59  80 27 05 F0 FF FF 7F 6A  .....i.Y.'.....j
0AA0: 1C 5A 80 52 10 80 F8 FF  FF 7F F8 FF FF 7F 73 30  .Z.R..........s0
0AB0: 33 36 45 10 80 F8 FF FF  7F F8 FF FF 7F 73 30 33  36E..........s03
0AC0: 39 01 80 66 01 80 5E 20  03 01 5E 20 03 01 74 6C  9..f..^ ..^ ..tl
0AD0: 6B 31 2B 5E 20 03 01 5B  80 23 2B 5E 20 03 01 5C  k1+^ ..[.#+^ ..\
0AE0: 80 23 66 01 80 5E 20 03  01 5E 20 03 01 74 65 6E  .#f..^ ..^ ..ten
0AF0: 31 52 10 80 F8 FF FF 7F  F8 FF FF 7F 73 30 33 39  1R..........s039
0B00: 45 10 80 F8 FF FF 7F F8  FF FF 7F 73 30 33 38 01  E..........s038.
0B10: 80 24 5D 80 01 80 01 80  25 02 00 10 01 80 00 0F  .$].....%.......
0B20: 0C 6E F0 FF FF 7F 5E 80  99 F0 FF FF 7F 1C 4A 80  .n....^.......J.
0B30: 52 10 80 F8 FF FF 7F F8  FF FF 7F 73 30 33 38 45  R..........s038E
0B40: 10 80 F8 FF FF 7F F8 FF  FF 7F 73 30 34 30 01 80  ..........s040..
0B50: 66 01 80 5E 20 03 01 5E  20 03 01 74 6C 6B 30 2B  f..^ ..^ ..tlk0+
0B60: 5E 20 03 01 5F 80 23 2B  5E 20 03 01 60 80 23 66  ^ .._.#+^ ..`.#f
0B70: 01 80 5E 20 03 01 5E 20  03 01 74 65 6E 30 6E F0  ..^ ..^ ..ten0n.
0B80: FF FF 7F 61 80 99 F0 FF  FF 7F 1C 11 80 52 10 80  ...a.........R..
0B90: F8 FF FF 7F F8 FF FF 7F  73 30 34 30 45 10 80 F8  ........s040E...
0BA0: FF FF 7F F8 FF FF 7F 73  30 34 31 01 80 7B 5E 20  .......s041..{^ 
0BB0: 03 01 2B 5E 20 03 01 62  80 23 81 00 5E 20 03 01  ..+^ ..b.#..^ ..
0BC0: 66 63 80 5E 20 03 01 5E  20 03 01 73 64 6F 30 55  fc.^ ..^ ..sdo0U
0BD0: 10 80 F8 FF FF 7F F8 FF  FF 7F 73 30 34 31 45 10  ..........s041E.
0BE0: 80 F8 FF FF 7F F8 FF FF  7F 73 30 34 32 01 80 2B  .........s042..+
0BF0: 5E 20 03 01 64 80 23 81  01 5E 20 03 01 66 63 80  ^ ..d.#..^ ..fc.
0C00: 5E 20 03 01 5E 20 03 01  73 64 6F 31 01 F5 0C 02  ^ ..^ ..sdo1....
0C10: 00 10 03 80 00 65 0C 6E  F0 FF FF 7F 65 80 99 F0  .....e.n....e...
0C20: FF FF 7F 1C 4A 80 52 10  80 F8 FF FF 7F F8 FF FF  ....J.R.........
0C30: 7F 73 30 33 38 45 10 80  F8 FF FF 7F F8 FF FF 7F  .s038E..........
0C40: 73 30 34 31 01 80 7B 5E  20 03 01 2B 5E 20 03 01  s041..{^ ..+^ ..
0C50: 66 80 23 55 10 80 F8 FF  FF 7F F8 FF FF 7F 73 30  f.#U..........s0
0C60: 34 31 01 F5 0C 02 00 10  67 80 00 F5 0C 52 10 80  41......g....R..
0C70: F8 FF FF 7F F8 FF FF 7F  73 30 33 38 45 10 80 F8  ........s038E...
0C80: FF FF 7F F8 FF FF 7F 73  30 34 30 01 80 66 01 80  .......s040..f..
0C90: 5E 20 03 01 5E 20 03 01  74 6C 6B 30 2B 5E 20 03  ^ ..^ ..tlk0+^ .
0CA0: 01 68 80 23 2B 5E 20 03  01 69 80 23 52 10 80 F8  .h.#+^ ..i.#R...
0CB0: FF FF 7F F8 FF FF 7F 73  30 34 30 45 10 80 F8 FF  .......s040E....
0CC0: FF 7F F8 FF FF 7F 73 30  34 31 01 80 66 01 80 5E  ......s041..f..^
0CD0: 20 03 01 5E 20 03 01 74  65 6E 30 2B 5E 20 03 01   ..^ ..ten0+^ ..
0CE0: 6A 80 23 55 10 80 F8 FF  FF 7F F8 FF FF 7F 73 30  j.#U..........s0
0CF0: 34 31 01 F5 0C 4E 00 A8  20 03 01 80 A8 20 03 01  41...N.. .... ..
0D00: 02 05 00 03 80 00 32 0D  4E 00 C7 20 03 01 4E 00  ......2.N.. ..N.
0D10: C4 20 03 01 80 C4 20 03  01 80 C7 20 03 01 27 05  . .... .... ..'.
0D20: C4 20 03 01 96 27 05 C7  20 03 01 A0 1C 6B 80 01  . ...'.. ....k..
0D30: 47 0D 4E 00 1A 21 03 01  80 1A 21 03 01 27 05 1A  G.N..!....!..'..
0D40: 21 03 01 33 1C 6B 80 27  05 A8 20 03 01 4B 1C 0A  !..3.k.'.. ..K..
0D50: 80 52 10 80 F8 FF FF 7F  F8 FF FF 7F 73 30 34 32  .R..........s042
0D60: 45 10 80 F8 FF FF 7F F8  FF FF 7F 73 30 34 33 01  E..........s043.
0D70: 80 02 03 00 01 80 00 CD  0D 2B A8 20 03 01 6C 80  .........+. ..l.
0D80: 1C 0E 80 4A F0 FF FF 7F  A8 20 03 01 23 2A 05 A8  ...J..... ..#*..
0D90: 20 03 01 52 10 80 F8 FF  FF 7F F8 FF FF 7F 73 30   ..R..........s0
0DA0: 34 33 45 10 80 F8 FF FF  7F F8 FF FF 7F 73 30 34  43E..........s04
0DB0: 34 01 80 5B 6D 80 A8 20  03 01 A8 20 03 01 74 6C  4..[m.. ... ..tl
0DC0: 61 30 2B A8 20 03 01 6E  80 23 01 31 0E 2B A8 20  a0+. ..n.#.1.+. 
0DD0: 03 01 6F 80 1C 0E 80 4A  F0 FF FF 7F A8 20 03 01  ..o....J..... ..
0DE0: 23 2A 05 A8 20 03 01 4A  5E 20 03 01 A8 20 03 01  #*.. ..J^ ... ..
0DF0: 2B 5E 20 03 01 70 80 1C  4A 80 52 10 80 F8 FF FF  +^ ..p..J.R.....
0E00: 7F F8 FF FF 7F 73 30 34  33 45 10 80 F8 FF FF 7F  .....s043E......
0E10: F8 FF FF 7F 73 30 34 35  01 80 5B 71 80 A8 20 03  ....s045..[q.. .
0E20: 01 A8 20 03 01 74 6C 6B  30 2B A8 20 03 01 72 80  .. ..tlk0+. ..r.
0E30: 23 01 A3 10 2B 5E 20 03  01 73 80 23 66 01 80 5E  #...+^ ..s.#f..^
0E40: 20 03 01 5E 20 03 01 74  65 6E 30 52 10 80 F8 FF   ..^ ..ten0R....
0E50: FF 7F F8 FF FF 7F 73 30  33 37 45 10 80 F8 FF FF  ......s037E.....
0E60: 7F F8 FF FF 7F 73 30 33  36 01 80 27 05 F0 FF FF  .....s036..'....
0E70: 7F 69 1C 59 80 27 05 F0  FF FF 7F 6A 1C 5A 80 52  .i.Y.'.....j.Z.R
0E80: 10 80 F8 FF FF 7F F8 FF  FF 7F 73 30 33 36 45 10  ..........s036E.
0E90: 80 F8 FF FF 7F F8 FF FF  7F 73 30 33 39 01 80 66  .........s039..f
0EA0: 01 80 5E 20 03 01 5E 20  03 01 74 6C 6B 31 2B 5E  ..^ ..^ ..tlk1+^
0EB0: 20 03 01 74 80 23 66 01  80 5E 20 03 01 5E 20 03   ..t.#f..^ ..^ .
0EC0: 01 74 65 6E 31 4E 00 A8  20 03 01 80 A8 20 03 01  .ten1N.. .... ..
0ED0: 02 05 00 03 80 00 02 0F  4E 00 C7 20 03 01 4E 00  ........N.. ..N.
0EE0: C4 20 03 01 80 C4 20 03  01 80 C7 20 03 01 27 05  . .... .... ..'.
0EF0: C4 20 03 01 96 27 05 C7  20 03 01 A0 1C 6B 80 01  . ...'.. ....k..
0F00: 17 0F 4E 00 1A 21 03 01  80 1A 21 03 01 27 05 1A  ..N..!....!..'..
0F10: 21 03 01 33 1C 6B 80 27  05 A8 20 03 01 4B 1C 41  !..3.k.'.. ..K.A
0F20: 80 52 10 80 F8 FF FF 7F  F8 FF FF 7F 73 30 33 39  .R..........s039
0F30: 45 10 80 F8 FF FF 7F F8  FF FF 7F 73 30 34 33 01  E..........s043.
0F40: 80 02 03 00 01 80 00 72  0F 2B A8 20 03 01 75 80  .......r.+. ..u.
0F50: 1C 0E 80 4A F0 FF FF 7F  A8 20 03 01 23 2A 05 A8  ...J..... ..#*..
0F60: 20 03 01 4A F0 FF FF 7F  5E 20 03 01 1C 0E 80 01   ..J....^ ......
0F70: B4 0F 2B A8 20 03 01 76  80 1C 0E 80 4A F0 FF FF  ..+. ..v....J...
0F80: 7F A8 20 03 01 23 2A 05  A8 20 03 01 4A 5E 20 03  .. ..#*.. ..J^ .
0F90: 01 A8 20 03 01 2B 5E 20  03 01 77 80 1C 15 80 4A  .. ..+^ ..w....J
0FA0: F0 FF FF 7F 5E 20 03 01  1C 0E 80 4A 5E 20 03 01  ....^ .....J^ ..
0FB0: F0 FF FF 7F 52 10 80 F8  FF FF 7F F8 FF FF 7F 73  ....R..........s
0FC0: 30 34 33 45 10 80 F8 FF  FF 7F F8 FF FF 7F 73 30  043E..........s0
0FD0: 34 30 01 80 27 05 F0 FF  FF 7F 69 1C 59 80 27 05  40..'.....i.Y.'.
0FE0: F0 FF FF 7F 6A 1C 5A 80  66 01 80 5E 20 03 01 5E  ....j.Z.f..^ ..^
0FF0: 20 03 01 74 6C 6B 30 2B  5E 20 03 01 78 80 23 52   ..tlk0+^ ..x.#R
1000: 10 80 F8 FF FF 7F F8 FF  FF 7F 73 30 34 30 45 10  ..........s040E.
1010: 80 F8 FF FF 7F F8 FF FF  7F 73 30 34 36 01 80 2B  .........s046..+
1020: 5E 20 03 01 79 80 23 2B  5E 20 03 01 7A 80 23 66  ^ ..y.#+^ ..z.#f
1030: 01 80 5E 20 03 01 5E 20  03 01 74 65 6E 30 52 10  ..^ ..^ ..ten0R.
1040: 80 F8 FF FF 7F F8 FF FF  7F 73 30 34 36 45 10 80  .........s046E..
1050: F8 FF FF 7F F8 FF FF 7F  73 30 34 37 01 80 4A A8  ........s047..J.
1060: 20 03 01 F0 FF FF 7F 1C  0E 80 02 03 00 01 80 00   ...............
1070: 8C 10 5B 6D 80 A8 20 03  01 A8 20 03 01 74 6C 61  ..[m.. ... ..tla
1080: 30 2B A8 20 03 01 7B 80  23 01 A3 10 5B 71 80 A8  0+. ..{.#...[q..
1090: 20 03 01 A8 20 03 01 74  6C 6B 30 2B A8 20 03 01   ... ..tlk0+. ..
10A0: 7C 80 23 5D 01 80 7D 80  45 00 80 F8 FF FF 7F F8  |.#]..}.E.......
10B0: FF FF 7F 66 64 6F 31 01  80 55 00 80 F8 FF FF 7F  ...fdo1..U......
10C0: F8 FF FF 7F 66 64 6F 31  52 10 80 F8 FF FF 7F F8  ....fdo1R.......
10D0: FF FF 7F 73 30 34 34 52  10 80 F8 FF FF 7F F8 FF  ...s044R........
10E0: FF 7F 73 30 34 35 52 10  80 F8 FF FF 7F F8 FF FF  ..s045R.........
10F0: 7F 73 30 34 37 6B 69 64  6C 30 A8 20 03 01 34 7E  .s047kidl0. ..4~
1100: 80 77 01 80 03 80 1C 0E  80 4E 01 1E 20 03 01 AB  .w.......N.. ...
1110: 09 46 01 2F 00 79 22 03  01 2F 00 7A 22 03 01 4E  .F./.y"../.z"..N
1120: 00 79 22 03 01 4E 00 7A  22 03 01 94 01 79 22 03  .y"..N.z"....y".
1130: 01 94 01 7A 22 03 01 59  05 7A 22 03 01 01 02 87  ...z"..Y.z".....
1140: 7F 6B 80 80 50 11 27 05  F0 FF FF 7F 70 01 8D 11  .k..P.'.....p...
1150: 02 87 7F 65 80 80 62 11  27 05 F0 FF FF 7F 70 01  ...e..b.'.....p.
1160: 8D 11 02 87 7F 5E 80 80  74 11 27 05 F0 FF FF 7F  .....^..t.'.....
1170: 71 01 8D 11 02 87 7F 7F  80 80 86 11 27 05 F0 FF  q...........'...
1180: FF 7F 72 01 8D 11 27 05  F0 FF FF 7F 73 BA A8 20  ..r...'.....s.. 
1190: 03 01 80 80 81 80 82 80  83 80 BA F0 FF FF 7F 84  ................
11A0: 80 85 80 01 80 83 80 02  87 7F 63 80 80 BF 11 BA  ..........c.....
11B0: 7A 22 03 01 01 80 86 80  87 80 83 80 01 44 12 02  z"...........D..
11C0: 87 7F 88 80 80 D7 11 BA  7A 22 03 01 01 80 86 80  ........z"......
11D0: 87 80 83 80 01 44 12 02  87 7F 6B 80 80 EF 11 BA  .....D....k.....
11E0: 7A 22 03 01 01 80 86 80  89 80 83 80 01 44 12 02  z"...........D..
11F0: 87 7F 65 80 80 07 12 BA  7A 22 03 01 01 80 86 80  ..e.....z"......
1200: 89 80 83 80 01 44 12 02  87 7F 5E 80 80 1F 12 BA  .....D....^.....
1210: 7A 22 03 01 01 80 8A 80  8B 80 83 80 01 44 12 02  z"...........D..
1220: 87 7F 7F 80 80 37 12 BA  7A 22 03 01 01 80 86 80  .....7..z"......
1230: 87 80 83 80 01 44 12 BA  7A 22 03 01 01 80 86 80  .....D..z"......
1240: 8C 80 83 80 BA 79 22 03  01 84 80 85 80 01 80 83  .....y".........
1250: 80 80 7A 22 03 01 80 79  22 03 01 80 A8 20 03 01  ..z"...y".... ..
1260: 80 F0 FF FF 7F 4A F0 FF  FF 7F A8 20 03 01 4A A8  .....J..... ..J.
1270: 20 03 01 F0 FF FF 7F 02  03 00 01 80 00 84 12 7B   ..............{
1280: A8 20 03 01 02 05 00 03  80 00 C2 12 BA C7 20 03  . ............ .
1290: 01 8D 80 8E 80 01 80 83  80 BA C4 20 03 01 8F 80  ........... ....
12A0: 90 80 01 80 83 80 80 C4  20 03 01 80 C7 20 03 01  ........ .... ..
12B0: 4A C7 20 03 01 F0 FF FF  7F 4A C4 20 03 01 F0 FF  J. ......J. ....
12C0: FF 7F 1C 15 80 02 87 7F  03 80 80 E0 12 5F 03 91  ............._..
12D0: 80 79 22 03 01 79 22 03  01 68 6D 6D 6C 01 9D 13  .y"..y"..hmml...
12E0: 02 87 7F 67 80 80 FB 12  5F 03 91 80 79 22 03 01  ...g...._...y"..
12F0: 79 22 03 01 68 66 6D 6C  01 9D 13 02 87 7F 63 80  y"..hfml......c.
1300: 80 16 13 5F 03 91 80 79  22 03 01 79 22 03 01 65  ..._...y"..y"..e
1310: 6D 6D 6C 01 9D 13 02 87  7F 88 80 80 31 13 5F 03  mml.........1._.
1320: 91 80 79 22 03 01 79 22  03 01 65 66 6D 6C 01 9D  ..y"..y"..efml..
1330: 13 02 87 7F 6B 80 80 4C  13 5F 03 91 80 79 22 03  ....k..L._...y".
1340: 01 79 22 03 01 74 6D 61  6C 01 9D 13 02 87 7F 65  .y"..tmal......e
1350: 80 80 67 13 5F 03 91 80  79 22 03 01 79 22 03 01  ..g._...y"..y"..
1360: 74 6D 61 6C 01 9D 13 02  87 7F 5E 80 80 82 13 5F  tmal......^...._
1370: 03 91 80 79 22 03 01 79  22 03 01 6D 6D 61 6C 01  ...y"..y"..mmal.
1380: 9D 13 02 87 7F 7F 80 80  9D 13 5F 03 91 80 79 22  .........._...y"
1390: 03 01 79 22 03 01 67 6D  61 6C 01 9D 13 48 92 80  ..y"..gmal...H..
13A0: 23 1C 15 80 5C 00 93 80  5C 01 93 80 9A 45 10 80  #...\...\....E..
13B0: F8 FF FF 7F F8 FF FF 7F  73 30 34 38 01 80 1C 0A  ........s048....
13C0: 80 45 00 80 F0 FF FF 7F  F0 FF FF 7F 66 64 69 31  .E..........fdi1
13D0: 01 80 02 03 00 01 80 00  3A 14 2B A8 20 03 01 94  ........:.+. ...
13E0: 80 23 52 10 80 F8 FF FF  7F F8 FF FF 7F 73 30 34  .#R..........s04
13F0: 38 45 10 80 F8 FF FF 7F  F8 FF FF 7F 73 30 35 31  8E..........s051
1400: 01 80 5B 6D 80 A8 20 03  01 A8 20 03 01 74 6C 61  ..[m.. ... ..tla
1410: 30 2B A8 20 03 01 95 80  23 5B 6D 80 A8 20 03 01  0+. ....#[m.. ..
1420: A8 20 03 01 74 6C 61 31  52 10 80 F8 FF FF 7F F8  . ..tla1R.......
1430: FF FF 7F 73 30 35 31 01  54 15 2B A8 20 03 01 96  ...s051.T.+. ...
1440: 80 23 52 10 80 F8 FF FF  7F F8 FF FF 7F 73 30 34  .#R..........s04
1450: 38 02 05 00 03 80 00 DE  14 45 10 80 F8 FF FF 7F  8........E......
1460: F8 FF FF 7F 73 30 34 39  01 80 5B 97 80 C7 20 03  ....s049..[... .
1470: 01 C7 20 03 01 74 6C 6B  30 2B C7 20 03 01 98 80  .. ..tlk0+. ....
1480: 23 5B 97 80 C7 20 03 01  C7 20 03 01 74 6C 6B 31  #[... ... ..tlk1
1490: 52 10 80 F8 FF FF 7F F8  FF FF 7F 73 30 34 39 45  R..........s049E
14A0: 10 80 F8 FF FF 7F F8 FF  FF 7F 73 30 35 30 01 80  ..........s050..
14B0: 5B 99 80 C4 20 03 01 C4  20 03 01 75 64 65 30 2B  [... ... ..ude0+
14C0: C4 20 03 01 9A 80 23 2B  C4 20 03 01 9B 80 23 52  . ....#+. ....#R
14D0: 10 80 F8 FF FF 7F F8 FF  FF 7F 73 30 35 30 45 10  ..........s050E.
14E0: 80 F8 FF FF 7F F8 FF FF  7F 73 30 35 32 01 80 5B  .........s052..[
14F0: 71 80 A8 20 03 01 A8 20  03 01 74 6C 6B 30 2B A8  q.. ... ..tlk0+.
1500: 20 03 01 9C 80 23 5B 71  80 A8 20 03 01 A8 20 03   ....#[q.. ... .
1510: 01 74 6C 6B 31 52 10 80  F8 FF FF 7F F8 FF FF 7F  .tlk1R..........
1520: 73 30 35 32 02 05 00 03  80 00 54 15 45 10 80 F8  s052......T.E...
1530: FF FF 7F F8 FF FF 7F 73  30 35 33 01 80 2B C4 20  .......s053..+. 
1540: 03 01 9D 80 23 52 10 80  F8 FF FF 7F F8 FF FF 7F  ....#R..........
1550: 73 30 35 33 02 03 00 01  80 00 8B 16 45 10 80 F8  s053........E...
1560: FF FF 7F F8 FF FF 7F 73  30 35 37 01 80 2B A8 20  .......s057..+. 
1570: 03 01 9E 80 23 2B A8 20  03 01 9F 80 23 52 10 80  ....#+. ....#R..
1580: F8 FF FF 7F F8 FF FF 7F  73 30 35 37 45 10 80 F8  ........s057E...
1590: FF FF 7F F8 FF FF 7F 73  30 35 36 01 80 5B 6D 80  .......s056..[m.
15A0: A8 20 03 01 A8 20 03 01  74 6C 61 30 2B A8 20 03  . ... ..tla0+. .
15B0: 01 A0 80 23 2B A8 20 03  01 A1 80 23 5B 6D 80 A8  ...#+. ....#[m..
15C0: 20 03 01 A8 20 03 01 74  6C 61 31 52 10 80 F8 FF   ... ..tla1R....
15D0: FF 7F F8 FF FF 7F 73 30  35 36 45 10 80 F8 FF FF  ......s056E.....
15E0: 7F F8 FF FF 7F 73 30 35  39 01 80 2B A8 20 03 01  .....s059..+. ..
15F0: A2 80 23 2B A8 20 03 01  A3 80 23 52 10 80 F8 FF  ..#+. ....#R....
1600: FF 7F F8 FF FF 7F 73 30  35 39 45 10 80 F8 FF FF  ......s059E.....
1610: 7F F8 FF FF 7F 73 30 36  30 01 80 5B 6D 80 A8 20  .....s060..[m.. 
1620: 03 01 A8 20 03 01 74 6C  61 30 2B A8 20 03 01 A4  ... ..tla0+. ...
1630: 80 23 2B A8 20 03 01 A5  80 23 2B A8 20 03 01 A6  .#+. ....#+. ...
1640: 80 23 52 10 80 F8 FF FF  7F F8 FF FF 7F 73 30 36  .#R..........s06
1650: 30 45 10 80 F8 FF FF 7F  F8 FF FF 7F 73 30 36 31  0E..........s061
1660: 01 80 2B A8 20 03 01 A7  80 23 5B 6D 80 A8 20 03  ..+. ....#[m.. .
1670: 01 A8 20 03 01 74 6C 61  31 52 10 80 F8 FF FF 7F  .. ..tla1R......
1680: F8 FF FF 7F 73 30 36 31  01 77 17 45 10 80 F8 FF  ....s061.w.E....
1690: FF 7F F8 FF FF 7F 73 30  36 33 01 80 5B 71 80 A8  ......s063..[q..
16A0: 20 03 01 A8 20 03 01 74  6C 6B 30 2B A8 20 03 01   ... ..tlk0+. ..
16B0: A8 80 23 5B 71 80 A8 20  03 01 A8 20 03 01 74 6C  ..#[q.. ... ..tl
16C0: 6B 31 02 05 00 03 80 00  21 17 2B C4 20 03 01 A9  k1......!.+. ...
16D0: 80 23 5B 97 80 C7 20 03  01 C7 20 03 01 74 6C 6B  .#[... ... ..tlk
16E0: 30 2B C7 20 03 01 AA 80  23 5B 97 80 C7 20 03 01  0+. ....#[... ..
16F0: C7 20 03 01 74 6C 6B 31  5B 99 80 C4 20 03 01 C4  . ..tlk1[... ...
1700: 20 03 01 75 64 65 31 2B  C4 20 03 01 AB 80 23 52   ..ude1+. ....#R
1710: 10 80 F8 FF FF 7F F8 FF  FF 7F 73 30 36 33 01 38  ..........s063.8
1720: 17 2B A8 20 03 01 AC 80  23 52 10 80 F8 FF FF 7F  .+. ....#R......
1730: F8 FF FF 7F 73 30 36 33  45 10 80 F8 FF FF 7F F8  ....s063E.......
1740: FF FF 7F 73 30 36 35 01  80 5B AD 80 A8 20 03 01  ...s065..[... ..
1750: A8 20 03 01 79 65 73 30  2B A8 20 03 01 AE 80 23  . ..yes0+. ....#
1760: 2B A8 20 03 01 AF 80 23  52 10 80 F8 FF FF 7F F8  +. ....#R.......
1770: FF FF 7F 73 30 36 35 02  87 7F 63 80 80 93 17 45  ...s065...c....E
1780: 10 80 F8 FF FF 7F F8 FF  FF 7F 73 30 36 37 01 80  ..........s067..
1790: 01 14 18 02 87 7F 88 80  80 AF 17 45 10 80 F8 FF  ...........E....
17A0: FF 7F F8 FF FF 7F 73 30  36 37 01 80 01 14 18 02  ......s067......
17B0: 87 7F 6B 80 80 CB 17 45  10 80 F8 FF FF 7F F8 FF  ..k....E........
17C0: FF 7F 73 30 36 38 01 80  01 14 18 02 87 7F 65 80  ..s068........e.
17D0: 80 E7 17 45 10 80 F8 FF  FF 7F F8 FF FF 7F 73 30  ...E..........s0
17E0: 36 38 01 80 01 14 18 02  87 7F 7F 80 80 03 18 45  68.............E
17F0: 10 80 F8 FF FF 7F F8 FF  FF 7F 73 30 36 37 01 80  ..........s067..
1800: 01 14 18 45 10 80 F8 FF  FF 7F F8 FF FF 7F 73 30  ...E..........s0
1810: 36 36 01 80 D0 B0 80 7A  22 03 01 7A 22 03 01 73  66.....z"..z"..s
1820: 74 61 31 01 80 1C 11 80  D0 B0 80 7A 22 03 01 7A  ta1........z"..z
1830: 22 03 01 6B 69 6C 32 01  80 52 10 80 F8 FF FF 7F  "..kil2..R......
1840: F8 FF FF 7F 73 30 36 36  52 10 80 F8 FF FF 7F F8  ....s066R.......
1850: FF FF 7F 73 30 36 37 52  10 80 F8 FF FF 7F F8 FF  ...s067R........
1860: FF 7F 73 30 36 38 02 05  00 03 80 00 B7 18 45 10  ..s068........E.
1870: 80 F8 FF FF 7F F8 FF FF  7F 73 30 37 30 01 80 27  .........s070..'
1880: 05 F0 FF FF 7F 6E 2B C4  20 03 01 B1 80 1C B2 80  .....n+. .......
1890: D0 B0 80 79 22 03 01 79  22 03 01 73 74 61 72 01  ...y"..y"..star.
18A0: 80 1C 4A 80 23 52 10 80  F8 FF FF 7F F8 FF FF 7F  ..J.#R..........
18B0: 73 30 37 30 01 F5 18 45  10 80 F8 FF FF 7F F8 FF  s070...E........
18C0: FF 7F 73 31 35 34 01 80  27 05 F0 FF FF 7F 6E 1C  ..s154..'.....n.
18D0: B2 80 D0 B0 80 79 22 03  01 79 22 03 01 73 74 61  .....y"..y"..sta
18E0: 72 01 80 1C 4A 80 52 10  80 F8 FF FF 7F F8 FF FF  r...J.R.........
18F0: 7F 73 31 35 34 02 87 7F  6B 80 80 11 19 45 10 80  .s154...k....E..
1900: F8 FF FF 7F F8 FF FF 7F  73 31 35 36 01 80 01 3E  ........s156...>
1910: 19 02 87 7F 65 80 80 2D  19 45 10 80 F8 FF FF 7F  ....e..-.E......
1920: F8 FF FF 7F 73 31 35 36  01 80 01 3E 19 45 10 80  ....s156...>.E..
1930: F8 FF FF 7F F8 FF FF 7F  73 31 35 35 01 80 D0 B2  ........s155....
1940: 80 79 22 03 01 79 22 03  01 6D 61 78 30 01 80 D0  .y"..y"..max0...
1950: B0 80 79 22 03 01 79 22  03 01 6B 69 6C 6C 01 80  ..y"..y"..kill..
1960: 1C 59 80 81 00 A8 20 03  01 5B B3 80 A8 20 03 01  .Y.... ..[... ..
1970: A8 20 03 01 68 61 6E 30  52 10 80 F8 FF FF 7F F8  . ..han0R.......
1980: FF FF 7F 73 31 35 35 52  10 80 F8 FF FF 7F F8 FF  ...s155R........
1990: FF 7F 73 31 35 36 45 10  80 F8 FF FF 7F F8 FF FF  ..s156E.........
19A0: 7F 73 30 36 39 01 80 2B  A8 20 03 01 B4 80 1C B5  .s069..+. ......
19B0: 80 D0 B0 80 79 22 03 01  79 22 03 01 73 74 61 72  ....y"..y"..star
19C0: 01 80 1C 0E 80 52 10 80  F8 FF FF 7F F8 FF FF 7F  .....R..........
19D0: 73 30 36 39 45 10 80 F8  FF FF 7F F8 FF FF 7F 73  s069E..........s
19E0: 30 37 31 01 80 D0 B6 80  F0 FF FF 7F F0 FF FF 7F  071.............
19F0: 74 67 74 30 01 80 1C 7D  80 45 B7 80 F0 FF FF 7F  tgt0...}.E......
1A00: F0 FF FF 7F 77 68 6F 31  01 80 55 B7 80 F0 FF FF  ....who1..U.....
1A10: 7F F0 FF FF 7F 77 68 6F  31 52 10 80 F8 FF FF 7F  .....who1R......
1A20: F8 FF FF 7F 73 30 37 31  D0 B0 80 79 22 03 01 79  ....s071...y"..y
1A30: 22 03 01 6B 69 6C 6C 01  80 6B 69 64 6C 30 A8 20  "..kill..kidl0. 
1A40: 03 01 81 01 A8 20 03 01  27 05 F0 FF FF 7F 6F 1C  ..... ..'.....o.
1A50: 0E 80 45 10 80 F8 FF FF  7F F8 FF FF 7F 73 30 37  ..E..........s07
1A60: 32 01 80 1C 0A 80 45 B7  80 F0 FF FF 7F F0 FF FF  2.....E.........
1A70: 7F 77 68 69 31 01 80 02  06 00 01 80 00 59 1B 02  .whi1........Y..
1A80: 03 00 01 80 00 D1 1A 2B  A8 20 03 01 B8 80 23 52  .......+. ....#R
1A90: 10 80 F8 FF FF 7F F8 FF  FF 7F 73 30 37 32 45 10  ..........s072E.
1AA0: 80 F8 FF FF 7F F8 FF FF  7F 73 30 37 33 01 80 2B  .........s073..+
1AB0: A8 20 03 01 B9 80 23 2B  A8 20 03 01 BA 80 23 52  . ....#+. ....#R
1AC0: 10 80 F8 FF FF 7F F8 FF  FF 7F 73 30 37 33 01 45  ..........s073.E
1AD0: 1B 5B AD 80 A8 20 03 01  A8 20 03 01 6E 6F 30 30  .[... ... ..no00
1AE0: 2B A8 20 03 01 BB 80 23  52 10 80 F8 FF FF 7F F8  +. ....#R.......
1AF0: FF FF 7F 73 30 37 32 45  10 80 F8 FF FF 7F F8 FF  ...s072E........
1B00: FF 7F 73 30 37 34 01 80  5B BC 80 A8 20 03 01 A8  ..s074..[... ...
1B10: 20 03 01 74 6C 65 30 2B  A8 20 03 01 BD 80 23 2B   ..tle0+. ....#+
1B20: A8 20 03 01 BE 80 23 5B  BC 80 A8 20 03 01 A8 20  . ....#[... ... 
1B30: 03 01 74 6C 65 31 52 10  80 F8 FF FF 7F F8 FF FF  ..tle1R.........
1B40: 7F 73 30 37 34 45 10 80  F8 FF FF 7F F8 FF FF 7F  .s074E..........
1B50: 73 30 37 35 01 80 01 72  1B 45 10 80 F8 FF FF 7F  s075...r.E......
1B60: F8 FF FF 7F 73 30 37 35  01 80 2B A8 20 03 01 BF  ....s075..+. ...
1B70: 80 23 02 03 00 01 80 00  D3 1B 5B 6D 80 A8 20 03  .#........[m.. .
1B80: 01 A8 20 03 01 74 6C 61  30 2B A8 20 03 01 C0 80  .. ..tla0+. ....
1B90: 23 5B 6D 80 A8 20 03 01  A8 20 03 01 74 6C 61 31  #[m.. ... ..tla1
1BA0: 52 10 80 F8 FF FF 7F F8  FF FF 7F 73 30 37 35 45  R..........s075E
1BB0: 10 80 F8 FF FF 7F F8 FF  FF 7F 73 30 37 36 01 80  ..........s076..
1BC0: 2B A8 20 03 01 C1 80 23  2B A8 20 03 01 C2 80 23  +. ....#+. ....#
1BD0: 01 0B 1C 2B A8 20 03 01  C3 80 23 52 10 80 F8 FF  ...+. ....#R....
1BE0: FF 7F F8 FF FF 7F 73 30  37 35 45 10 80 F8 FF FF  ......s075E.....
1BF0: 7F F8 FF FF 7F 73 30 37  37 01 80 2B A8 20 03 01  .....s077..+. ..
1C00: C4 80 23 2B A8 20 03 01  C5 80 23 5D 01 80 7D 80  ..#+. ....#]..}.
1C10: 45 00 80 F8 FF FF 7F F8  FF FF 7F 66 64 6F 31 01  E..........fdo1.
1C20: 80 55 00 80 F8 FF FF 7F  F8 FF FF 7F 66 64 6F 31  .U..........fdo1
1C30: 52 10 80 F8 FF FF 7F F8  FF FF 7F 73 30 37 36 52  R..........s076R
1C40: 10 80 F8 FF FF 7F F8 FF  FF 7F 73 30 37 37 02 03  ..........s077..
1C50: 00 01 80 00 5D 1C 27 05  A8 20 03 01 4D 27 05 A8  ....].'.. ..M'..
1C60: 20 03 01 4C 35 B5 80 78  1C 03 80 45 C6 80 F0 FF   ..L5..x...E....
1C70: FF 7F F0 FF FF 7F 6E 6F  73 65 01 80 55 C6 80 F0  ......nose..U...
1C80: FF FF 7F F0 FF FF 7F 6E  6F 73 65 6A C7 80 15 80  .......nosej....
1C90: 0A 80 AB 0A 2D F0 FF FF  7F F0 FF FF 7F 31 70 62  ....-........1pb
1CA0: 31 5C 00 C8 80 5C 01 C8  80 9A 46 00 45 00 80 F0  1\...\....F.E...
1CB0: FF FF 7F F0 FF FF 7F 66  64 69 32 01 80 21 00     .......fdi2..!. 
```

#### Opcodes

```
  0: 0x08D4 [0x42] SET_CLI_EVENT_CANCEL_DATA()
  1: 0x08D5 [0x03] ExtData[1]->WorkLocal[3] = Work_Zone[2]
  2: 0x08DA [0x03] ExtData[1]->WorkLocal[4] = Work_Zone[3]
  3: 0x08DF [0x03] ExtData[1]->WorkLocal[5] = Work_Zone[4]
  4: 0x08E4 [0x03] ExtData[1]->WorkLocal[6] = Work_Zone[5]
  5: 0x08E9 [0x45] LOAD_SCHEDULED_TASK: Load scheduler "fdo1" with entities [EventEntity, EventEntity], work=[200*, 0*]
  6: 0x08FA [0x55] WAIT_LOAD_SCHEDULER: Wait for scheduler "fdo1" with entities [EventEntity, EventEntity], work=200*
  7: 0x0909 [0x46] CAMERA_CONTROL: Disable user control
  8: 0x090B [0x38] SET_CLIENT_EVENT_MODE(mode=27*)
  9: 0x090E [0x2F] Nashmeira (ID: 16982184/0x010320A8)->Render.Flags0 &= ~0x80000 // Bit 19
 10: 0x0914 [0x92] Nashmeira (ID: 16982184/0x010320A8)->Render.Flags3 ^= 0x01
 11: 0x091A [0x92] Arzizah (ID: 16982110/0x0103205E)->Render.Flags3 ^= 0x01
 12: 0x0920 [0x92] Mafwahb (ID: 16982111/0x0103205F)->Render.Flags3 ^= 0x01
 13: 0x0926 [0x94] Arzizah (ID: 16982110/0x0103205E)->Render.Flags3 ^= 0x01
 14: 0x092C [0x94] Mafwahb (ID: 16982111/0x0103205F)->Render.Flags3 ^= 0x01
 15: 0x0932 [0x94] Nashmeira (ID: 16982184/0x010320A8)->Render.Flags3 ^= 0x01
 16: 0x0938 [0x94] LocalPlayer->Render.Flags3 ^= 0x01
 17: 0x093E [0x02] IF !(ExtData[1]->WorkLocal[3] == 0*) GOTO 0x0950
 18: 0x0946 [0x27] REQ_SET(priority=0x05, entity_id=Nashmeira (ID: 16982184/0x010320A8), tag_num=0x47)
 19: 0x094D [0x01] GOTO 0x0957
 20: 0x0950 [0x27] REQ_SET(priority=0x05, entity_id=Nashmeira (ID: 16982184/0x010320A8), tag_num=0x48)

SUBROUTINE_0957:
 21: 0x0957 [0x02] IF !(ExtData[1]->WorkLocal[4] == 0*) GOTO 0x0966
 22: 0x095F [0x27] REQ_SET(priority=0x05, entity_id=Nashmeira (ID: 16982184/0x010320A8), tag_num=0x49)
 23: 0x0966 [0x02] IF !(ExtData[1]->WorkLocal[5] == 1*) GOTO 0x09AF
 24: 0x096E [0x2F] Ovjang (ID: 16982215/0x010320C7)->Render.Flags0 &= ~0x80000 // Bit 19
 25: 0x0974 [0x2F] Mnejing (ID: 16982212/0x010320C4)->Render.Flags0 &= ~0x80000 // Bit 19
 26: 0x097A [0x92] Ovjang (ID: 16982215/0x010320C7)->Render.Flags3 ^= 0x01
 27: 0x0980 [0x92] Mnejing (ID: 16982212/0x010320C4)->Render.Flags3 ^= 0x01
 28: 0x0986 [0x94] Ovjang (ID: 16982215/0x010320C7)->Render.Flags3 ^= 0x01
 29: 0x098C [0x94] Mnejing (ID: 16982212/0x010320C4)->Render.Flags3 ^= 0x01
 30: 0x0992 [0xBA] SET_ENTITY_POSITION(entity_id=Ovjang (ID: 16982215/0x010320C7), pos_x=141.576*, pos_z=-0.627*, pos_y=-2.000*, direction=358.5°*)
 31: 0x099F [0xBA] SET_ENTITY_POSITION(entity_id=Mnejing (ID: 16982212/0x010320C4), pos_x=142.923*, pos_z=-2.281*, pos_y=-2.000*, direction=358.5°*)
 32: 0x09AC [0x01] GOTO 0x09CE
 33: 0x09AF [0x2F] Raubahn (ID: 16982298/0x0103211A)->Render.Flags0 &= ~0x80000 // Bit 19
 34: 0x09B5 [0x92] Raubahn (ID: 16982298/0x0103211A)->Render.Flags3 ^= 0x01
 35: 0x09BB [0x94] Raubahn (ID: 16982298/0x0103211A)->Render.Flags3 ^= 0x01
 36: 0x09C1 [0xBA] SET_ENTITY_POSITION(entity_id=Raubahn (ID: 16982298/0x0103211A), pos_x=142.923*, pos_z=-2.281*, pos_y=-2.000*, direction=358.5°*)

SUBROUTINE_09CE:
 37: 0x09CE [0xBA] SET_ENTITY_POSITION(entity_id=Nashmeira (ID: 16982184/0x010320A8), pos_x=144.190*, pos_z=0.053*, pos_y=-2.000*, direction=358.5°*)
 38: 0x09DB [0xBA] SET_ENTITY_POSITION(entity_id=LocalPlayer, pos_x=148.428*, pos_z=3.044*, pos_y=-2.000*, direction=359.8°*)
 39: 0x09E8 [0x80] LOAD_WAIT(entity=Arzizah (ID: 16982110/0x0103205E))
 40: 0x09ED [0x80] LOAD_WAIT(entity=Mafwahb (ID: 16982111/0x0103205F))
 41: 0x09F2 [0x80] LOAD_WAIT(entity=LocalPlayer)
 42: 0x09F7 [0x4A] Arzizah (ID: 16982110/0x0103205E) looks at LocalPlayer
 43: 0x0A00 [0x4A] LocalPlayer looks at Arzizah (ID: 16982110/0x0103205E)
 44: 0x0A09 [0x1C] WAIT(30* ticks)
 45: 0x0A0C [0x45] LOAD_SCHEDULED_TASK: Load scheduler "s037" with entities [EventEntity, EventEntity], work=[764*, 0*]
 46: 0x0A1D [0x1C] WAIT(15* ticks)
 47: 0x0A20 [0x45] LOAD_SCHEDULED_TASK: Load scheduler "fdi1" with entities [LocalPlayer, LocalPlayer], work=[200*, 0*]
 48: 0x0A31 [0x66] LOAD_EXT_SCHEDULER_MAIN: Load scheduler "tlk0" with entities [Arzizah (ID: 16982110/0x0103205E), Arzizah (ID: 16982110/0x0103205E)], work=0*
 49: 0x0A40 [0x02] IF !(ExtData[1]->WorkLocal[6] == 0*) GOTO 0x0E34
 50: 0x0A48 [0x2B] Arzizah (ID: 16982110/0x0103205E) [15617*]:
    → "You want to know what's behind the gate?"
 51: 0x0A4F [0x23] WAIT_FOR_DIALOG_INTERACTION
 52: 0x0A50 [0x52] END_LOAD_SCHEDULER: End scheduler "s037" with entities [EventEntity, EventEntity], work=764*
 53: 0x0A5F [0x45] LOAD_SCHEDULED_TASK: Load scheduler "s036" with entities [EventEntity, EventEntity], work=[764*, 0*]
 54: 0x0A70 [0x2B] Arzizah (ID: 16982110/0x0103205E) [15618*]:
    → "This gate leads to the Imperial Ward. You may only enter by the grace of Her Magnificence, the Empress, or if you have Al Zahbi citizenship."
 55: 0x0A77 [0x23] WAIT_FOR_DIALOG_INTERACTION
 56: 0x0A78 [0x2B] Arzizah (ID: 16982110/0x0103205E) [15619*]:
    → "No place for a mercenary like you. Be on your way."
 57: 0x0A7F [0x23] WAIT_FOR_DIALOG_INTERACTION
 58: 0x0A80 [0x66] LOAD_EXT_SCHEDULER_MAIN: Load scheduler "ten0" with entities [Arzizah (ID: 16982110/0x0103205E), Arzizah (ID: 16982110/0x0103205E)], work=0*
 59: 0x0A8F [0x27] REQ_SET(priority=0x05, entity_id=LocalPlayer, tag_num=0x69)
 60: 0x0A96 [0x1C] WAIT(80* ticks)
 61: 0x0A99 [0x27] REQ_SET(priority=0x05, entity_id=LocalPlayer, tag_num=0x6A)
 62: 0x0AA0 [0x1C] WAIT(40* ticks)
 63: 0x0AA3 [0x52] END_LOAD_SCHEDULER: End scheduler "s036" with entities [EventEntity, EventEntity], work=764*
 64: 0x0AB2 [0x45] LOAD_SCHEDULED_TASK: Load scheduler "s039" with entities [EventEntity, EventEntity], work=[764*, 0*]
 65: 0x0AC3 [0x66] LOAD_EXT_SCHEDULER_MAIN: Load scheduler "tlk1" with entities [Arzizah (ID: 16982110/0x0103205E), Arzizah (ID: 16982110/0x0103205E)], work=0*
 66: 0x0AD2 [0x2B] Arzizah (ID: 16982110/0x0103205E) [15620*]:
    → "You know an awful lot about this masked man and his gang. Which can mean only one thing..."
 67: 0x0AD9 [0x23] WAIT_FOR_DIALOG_INTERACTION
 68: 0x0ADA [0x2B] Arzizah (ID: 16982110/0x0103205E) [15621*]:
    → "You're one of his cohorts!"
 69: 0x0AE1 [0x23] WAIT_FOR_DIALOG_INTERACTION
 70: 0x0AE2 [0x66] LOAD_EXT_SCHEDULER_MAIN: Load scheduler "ten1" with entities [Arzizah (ID: 16982110/0x0103205E), Arzizah (ID: 16982110/0x0103205E)], work=0*
 71: 0x0AF1 [0x52] END_LOAD_SCHEDULER: End scheduler "s039" with entities [EventEntity, EventEntity], work=764*
 72: 0x0B00 [0x45] LOAD_SCHEDULED_TASK: Load scheduler "s038" with entities [EventEntity, EventEntity], work=[764*, 0*]
 73: 0x0B11 [0x24] CREATE_DIALOG(message_id=15622*, default_option=0*, option_flags=0*)
    → "Are you one of his cohorts? [That's right./You've got the wrong guy./His "gang"? How many are there?]"
 74: 0x0B18 [0x25] WAIT_DIALOG_SELECT()
 75: 0x0B19 [0x02] IF !(Work_Zone[0] == 0*) GOTO 0x0C0F
 76: 0x0B21 [0x6E] LocalPlayer uses emote 7*
 77: 0x0B28 [0x99] Wait for LocalPlayer animation to complete
 78: 0x0B2D [0x1C] WAIT(90* ticks)
 79: 0x0B30 [0x52] END_LOAD_SCHEDULER: End scheduler "s038" with entities [EventEntity, EventEntity], work=764*
 80: 0x0B3F [0x45] LOAD_SCHEDULED_TASK: Load scheduler "s040" with entities [EventEntity, EventEntity], work=[764*, 0*]
 81: 0x0B50 [0x66] LOAD_EXT_SCHEDULER_MAIN: Load scheduler "tlk0" with entities [Arzizah (ID: 16982110/0x0103205E), Arzizah (ID: 16982110/0x0103205E)], work=0*
 82: 0x0B5F [0x2B] Arzizah (ID: 16982110/0x0103205E) [15623*]:
    → "Aha! I knew it!"
 83: 0x0B66 [0x23] WAIT_FOR_DIALOG_INTERACTION
 84: 0x0B67 [0x2B] Arzizah (ID: 16982110/0x0103205E) [15624*]:
    → "You might not be clad in that hideous mask now, but you're just the right size!"
 85: 0x0B6E [0x23] WAIT_FOR_DIALOG_INTERACTION
 86: 0x0B6F [0x66] LOAD_EXT_SCHEDULER_MAIN: Load scheduler "ten0" with entities [Arzizah (ID: 16982110/0x0103205E), Arzizah (ID: 16982110/0x0103205E)], work=0*
 87: 0x0B7E [0x6E] LocalPlayer uses emote 22*
 88: 0x0B85 [0x99] Wait for LocalPlayer animation to complete
 89: 0x0B8A [0x1C] WAIT(120* ticks)
 90: 0x0B8D [0x52] END_LOAD_SCHEDULER: End scheduler "s040" with entities [EventEntity, EventEntity], work=764*
 91: 0x0B9C [0x45] LOAD_SCHEDULED_TASK: Load scheduler "s041" with entities [EventEntity, EventEntity], work=[764*, 0*]
 92: 0x0BAD [0x7B] Arzizah (ID: 16982110/0x0103205E) stops talking
 93: 0x0BB2 [0x2B] Arzizah (ID: 16982110/0x0103205E) [15625*]:
    → "...That was a joke?"
 94: 0x0BB9 [0x23] WAIT_FOR_DIALOG_INTERACTION
 95: 0x0BBA [0x81] SET_ENTITY_BLINKING(blink_flag=0x00, entity=Arzizah (ID: 16982110/0x0103205E))
 96: 0x0BC0 [0x66] LOAD_EXT_SCHEDULER_MAIN: Load scheduler "sdo0" with entities [Arzizah (ID: 16982110/0x0103205E), Arzizah (ID: 16982110/0x0103205E)], work=3*
 97: 0x0BCF [0x55] WAIT_LOAD_SCHEDULER: Wait for scheduler "s041" with entities [EventEntity, EventEntity], work=764*
 98: 0x0BDE [0x45] LOAD_SCHEDULED_TASK: Load scheduler "s042" with entities [EventEntity, EventEntity], work=[764*, 0*]
 99: 0x0BEF [0x2B] Arzizah (ID: 16982110/0x0103205E) [15626*]:
    → "Well, that was in incredibly poor taste!"
100: 0x0BF6 [0x23] WAIT_FOR_DIALOG_INTERACTION
101: 0x0BF7 [0x81] SET_ENTITY_BLINKING(blink_flag=0x01, entity=Arzizah (ID: 16982110/0x0103205E))
102: 0x0BFD [0x66] LOAD_EXT_SCHEDULER_MAIN: Load scheduler "sdo1" with entities [Arzizah (ID: 16982110/0x0103205E), Arzizah (ID: 16982110/0x0103205E)], work=3*
103: 0x0C0C [0x01] GOTO 0x0CF5
104: 0x0C0F [0x02] IF !(Work_Zone[0] == 1*) GOTO 0x0C65
105: 0x0C17 [0x6E] LocalPlayer uses emote 6*
106: 0x0C1E [0x99] Wait for LocalPlayer animation to complete
107: 0x0C23 [0x1C] WAIT(90* ticks)
108: 0x0C26 [0x52] END_LOAD_SCHEDULER: End scheduler "s038" with entities [EventEntity, EventEntity], work=764*
109: 0x0C35 [0x45] LOAD_SCHEDULED_TASK: Load scheduler "s041" with entities [EventEntity, EventEntity], work=[764*, 0*]
110: 0x0C46 [0x7B] Arzizah (ID: 16982110/0x0103205E) stops talking
111: 0x0C4B [0x2B] Arzizah (ID: 16982110/0x0103205E) [15627*]:
    → "Don't think you can pull the wool over my eyes! You're the perfect height for one of his goons!"
112: 0x0C52 [0x23] WAIT_FOR_DIALOG_INTERACTION
113: 0x0C53 [0x55] WAIT_LOAD_SCHEDULER: Wait for scheduler "s041" with entities [EventEntity, EventEntity], work=764*
114: 0x0C62 [0x01] GOTO 0x0CF5
115: 0x0C65 [0x02] IF !(Work_Zone[0] == 2*) GOTO 0x0CF5
116: 0x0C6D [0x52] END_LOAD_SCHEDULER: End scheduler "s038" with entities [EventEntity, EventEntity], work=764*
117: 0x0C7C [0x45] LOAD_SCHEDULED_TASK: Load scheduler "s040" with entities [EventEntity, EventEntity], work=[764*, 0*]
118: 0x0C8D [0x66] LOAD_EXT_SCHEDULER_MAIN: Load scheduler "tlk0" with entities [Arzizah (ID: 16982110/0x0103205E), Arzizah (ID: 16982110/0x0103205E)], work=0*
119: 0x0C9C [0x2B] Arzizah (ID: 16982110/0x0103205E) [15628*]:
    → "Several days after he came storming into the palace, a woman with the same patterned mask slipped in too."
120: 0x0CA3 [0x23] WAIT_FOR_DIALOG_INTERACTION
121: 0x0CA4 [0x2B] Arzizah (ID: 16982110/0x0103205E) [15629*]:
    → "And when combined with all the other reports we've received, that makes a total of seven or eight."
122: 0x0CAB [0x23] WAIT_FOR_DIALOG_INTERACTION
123: 0x0CAC [0x52] END_LOAD_SCHEDULER: End scheduler "s040" with entities [EventEntity, EventEntity], work=764*
124: 0x0CBB [0x45] LOAD_SCHEDULED_TASK: Load scheduler "s041" with entities [EventEntity, EventEntity], work=[764*, 0*]
125: 0x0CCC [0x66] LOAD_EXT_SCHEDULER_MAIN: Load scheduler "ten0" with entities [Arzizah (ID: 16982110/0x0103205E), Arzizah (ID: 16982110/0x0103205E)], work=0*
126: 0x0CDB [0x2B] Arzizah (ID: 16982110/0x0103205E) [15630*]:
    → "But why am I telling you this!? After all, you're one of them!"
127: 0x0CE2 [0x23] WAIT_FOR_DIALOG_INTERACTION
128: 0x0CE3 [0x55] WAIT_LOAD_SCHEDULER: Wait for scheduler "s041" with entities [EventEntity, EventEntity], work=764*
129: 0x0CF2 [0x01] GOTO 0x0CF5

SUBROUTINE_0CF5:
130: 0x0CF5 [0x4E] SET_ENTITY_HIDE_FLAG: Show Nashmeira (ID: 16982184/0x010320A8)
131: 0x0CFB [0x80] LOAD_WAIT(entity=Nashmeira (ID: 16982184/0x010320A8))
132: 0x0D00 [0x02] IF !(ExtData[1]->WorkLocal[5] == 1*) GOTO 0x0D32
133: 0x0D08 [0x4E] SET_ENTITY_HIDE_FLAG: Show Ovjang (ID: 16982215/0x010320C7)
134: 0x0D0E [0x4E] SET_ENTITY_HIDE_FLAG: Show Mnejing (ID: 16982212/0x010320C4)
135: 0x0D14 [0x80] LOAD_WAIT(entity=Mnejing (ID: 16982212/0x010320C4))
136: 0x0D19 [0x80] LOAD_WAIT(entity=Ovjang (ID: 16982215/0x010320C7))
137: 0x0D1E [0x27] REQ_SET(priority=0x05, entity_id=Mnejing (ID: 16982212/0x010320C4), tag_num=0x96)
138: 0x0D25 [0x27] REQ_SET(priority=0x05, entity_id=Ovjang (ID: 16982215/0x010320C7), tag_num=0xA0)
139: 0x0D2C [0x1C] WAIT(5* ticks)
140: 0x0D2F [0x01] GOTO 0x0D47
141: 0x0D32 [0x4E] SET_ENTITY_HIDE_FLAG: Show Raubahn (ID: 16982298/0x0103211A)
142: 0x0D38 [0x80] LOAD_WAIT(entity=Raubahn (ID: 16982298/0x0103211A))
143: 0x0D3D [0x27] REQ_SET(priority=0x05, entity_id=Raubahn (ID: 16982298/0x0103211A), tag_num=0x33)
144: 0x0D44 [0x1C] WAIT(5* ticks)

SUBROUTINE_0D47:
145: 0x0D47 [0x27] REQ_SET(priority=0x05, entity_id=Nashmeira (ID: 16982184/0x010320A8), tag_num=0x4B)
146: 0x0D4E [0x1C] WAIT(15* ticks)
147: 0x0D51 [0x52] END_LOAD_SCHEDULER: End scheduler "s042" with entities [EventEntity, EventEntity], work=764*
148: 0x0D60 [0x45] LOAD_SCHEDULED_TASK: Load scheduler "s043" with entities [EventEntity, EventEntity], work=[764*, 0*]
149: 0x0D71 [0x02] IF !(ExtData[1]->WorkLocal[3] == 0*) GOTO 0x0DCD
150: 0x0D79 [0x2B] Nashmeira (ID: 16982184/0x010320A8) [15631*]:
    → "All this shouting is sending the birds scattering."
151: 0x0D80 [0x1C] WAIT(30* ticks)
152: 0x0D83 [0x4A] LocalPlayer looks at Nashmeira (ID: 16982184/0x010320A8)
153: 0x0D8C [0x23] WAIT_FOR_DIALOG_INTERACTION
154: 0x0D8D [0x2A] GET_REQ_LEVEL(level=5, entity_id=Nashmeira (ID: 16982184/0x010320A8))
155: 0x0D93 [0x52] END_LOAD_SCHEDULER: End scheduler "s043" with entities [EventEntity, EventEntity], work=764*
156: 0x0DA2 [0x45] LOAD_SCHEDULED_TASK: Load scheduler "s044" with entities [EventEntity, EventEntity], work=[764*, 0*]
157: 0x0DB3 [0x5B] LOAD_EXT_SCHEDULER: Load scheduler "tla0" with entities [Nashmeira (ID: 16982184/0x010320A8), Nashmeira (ID: 16982184/0x010320A8)], work=878*
158: 0x0DC2 [0x2B] Nashmeira (ID: 16982184/0x010320A8) [15632*]:
    → "Please, come inside."
159: 0x0DC9 [0x23] WAIT_FOR_DIALOG_INTERACTION
160: 0x0DCA [0x01] GOTO 0x0E31
161: 0x0DCD [0x2B] Nashmeira (ID: 16982184/0x010320A8) [15633*]:
    → "Arzizah, all your shouting is sending the birds scattering."
162: 0x0DD4 [0x1C] WAIT(30* ticks)
163: 0x0DD7 [0x4A] LocalPlayer looks at Nashmeira (ID: 16982184/0x010320A8)
164: 0x0DE0 [0x23] WAIT_FOR_DIALOG_INTERACTION
165: 0x0DE1 [0x2A] GET_REQ_LEVEL(level=5, entity_id=Nashmeira (ID: 16982184/0x010320A8))
166: 0x0DE7 [0x4A] Arzizah (ID: 16982110/0x0103205E) looks at Nashmeira (ID: 16982184/0x010320A8)
167: 0x0DF0 [0x2B] Arzizah (ID: 16982110/0x0103205E) [15634*]:
    → "Empress!?"
168: 0x0DF7 [0x1C] WAIT(90* ticks)
169: 0x0DFA [0x52] END_LOAD_SCHEDULER: End scheduler "s043" with entities [EventEntity, EventEntity], work=764*
170: 0x0E09 [0x45] LOAD_SCHEDULED_TASK: Load scheduler "s045" with entities [EventEntity, EventEntity], work=[764*, 0*]
171: 0x0E1A [0x5B] LOAD_EXT_SCHEDULER: Load scheduler "tlk0" with entities [Nashmeira (ID: 16982184/0x010320A8), Nashmeira (ID: 16982184/0x010320A8)], work=891*
172: 0x0E29 [0x2B] Nashmeira (ID: 16982184/0x010320A8) [15635*]:
    → "Please, come inside."
173: 0x0E30 [0x23] WAIT_FOR_DIALOG_INTERACTION

SUBROUTINE_0E31:
174: 0x0E31 [0x01] GOTO 0x10A3
175: 0x0E34 [0x2B] Arzizah (ID: 16982110/0x0103205E) [15636*]:
    → "Wait...I recognize you. But I'll be damned if I let you enter the palace without an invitation."
176: 0x0E3B [0x23] WAIT_FOR_DIALOG_INTERACTION
177: 0x0E3C [0x66] LOAD_EXT_SCHEDULER_MAIN: Load scheduler "ten0" with entities [Arzizah (ID: 16982110/0x0103205E), Arzizah (ID: 16982110/0x0103205E)], work=0*
178: 0x0E4B [0x52] END_LOAD_SCHEDULER: End scheduler "s037" with entities [EventEntity, EventEntity], work=764*
179: 0x0E5A [0x45] LOAD_SCHEDULED_TASK: Load scheduler "s036" with entities [EventEntity, EventEntity], work=[764*, 0*]
180: 0x0E6B [0x27] REQ_SET(priority=0x05, entity_id=LocalPlayer, tag_num=0x69)
181: 0x0E72 [0x1C] WAIT(80* ticks)
182: 0x0E75 [0x27] REQ_SET(priority=0x05, entity_id=LocalPlayer, tag_num=0x6A)
183: 0x0E7C [0x1C] WAIT(40* ticks)
184: 0x0E7F [0x52] END_LOAD_SCHEDULER: End scheduler "s036" with entities [EventEntity, EventEntity], work=764*
185: 0x0E8E [0x45] LOAD_SCHEDULED_TASK: Load scheduler "s039" with entities [EventEntity, EventEntity], work=[764*, 0*]
186: 0x0E9F [0x66] LOAD_EXT_SCHEDULER_MAIN: Load scheduler "tlk1" with entities [Arzizah (ID: 16982110/0x0103205E), Arzizah (ID: 16982110/0x0103205E)], work=0*
187: 0x0EAE [0x2B] Arzizah (ID: 16982110/0x0103205E) [15637*]:
    → "You know an awful lot about this masked man and his gang..."
188: 0x0EB5 [0x23] WAIT_FOR_DIALOG_INTERACTION
189: 0x0EB6 [0x66] LOAD_EXT_SCHEDULER_MAIN: Load scheduler "ten1" with entities [Arzizah (ID: 16982110/0x0103205E), Arzizah (ID: 16982110/0x0103205E)], work=0*
190: 0x0EC5 [0x4E] SET_ENTITY_HIDE_FLAG: Show Nashmeira (ID: 16982184/0x010320A8)
191: 0x0ECB [0x80] LOAD_WAIT(entity=Nashmeira (ID: 16982184/0x010320A8))
192: 0x0ED0 [0x02] IF !(ExtData[1]->WorkLocal[5] == 1*) GOTO 0x0F02
193: 0x0ED8 [0x4E] SET_ENTITY_HIDE_FLAG: Show Ovjang (ID: 16982215/0x010320C7)
194: 0x0EDE [0x4E] SET_ENTITY_HIDE_FLAG: Show Mnejing (ID: 16982212/0x010320C4)
195: 0x0EE4 [0x80] LOAD_WAIT(entity=Mnejing (ID: 16982212/0x010320C4))
196: 0x0EE9 [0x80] LOAD_WAIT(entity=Ovjang (ID: 16982215/0x010320C7))
197: 0x0EEE [0x27] REQ_SET(priority=0x05, entity_id=Mnejing (ID: 16982212/0x010320C4), tag_num=0x96)
198: 0x0EF5 [0x27] REQ_SET(priority=0x05, entity_id=Ovjang (ID: 16982215/0x010320C7), tag_num=0xA0)
199: 0x0EFC [0x1C] WAIT(5* ticks)
200: 0x0EFF [0x01] GOTO 0x0F17
201: 0x0F02 [0x4E] SET_ENTITY_HIDE_FLAG: Show Raubahn (ID: 16982298/0x0103211A)
202: 0x0F08 [0x80] LOAD_WAIT(entity=Raubahn (ID: 16982298/0x0103211A))
203: 0x0F0D [0x27] REQ_SET(priority=0x05, entity_id=Raubahn (ID: 16982298/0x0103211A), tag_num=0x33)
204: 0x0F14 [0x1C] WAIT(5* ticks)

SUBROUTINE_0F17:
205: 0x0F17 [0x27] REQ_SET(priority=0x05, entity_id=Nashmeira (ID: 16982184/0x010320A8), tag_num=0x4B)
206: 0x0F1E [0x1C] WAIT(20* ticks)
207: 0x0F21 [0x52] END_LOAD_SCHEDULER: End scheduler "s039" with entities [EventEntity, EventEntity], work=764*
208: 0x0F30 [0x45] LOAD_SCHEDULED_TASK: Load scheduler "s043" with entities [EventEntity, EventEntity], work=[764*, 0*]
209: 0x0F41 [0x02] IF !(ExtData[1]->WorkLocal[3] == 0*) GOTO 0x0F72
210: 0x0F49 [0x2B] Nashmeira (ID: 16982184/0x010320A8) [15638*]:
    → "It's not fair to accuse someone without proof."
211: 0x0F50 [0x1C] WAIT(30* ticks)
212: 0x0F53 [0x4A] LocalPlayer looks at Nashmeira (ID: 16982184/0x010320A8)
213: 0x0F5C [0x23] WAIT_FOR_DIALOG_INTERACTION
214: 0x0F5D [0x2A] GET_REQ_LEVEL(level=5, entity_id=Nashmeira (ID: 16982184/0x010320A8))
215: 0x0F63 [0x4A] LocalPlayer looks at Arzizah (ID: 16982110/0x0103205E)
216: 0x0F6C [0x1C] WAIT(30* ticks)
217: 0x0F6F [0x01] GOTO 0x0FB4
218: 0x0F72 [0x2B] Nashmeira (ID: 16982184/0x010320A8) [15639*]:
    → "Arzizah, there is no cause for that here. I can personally vouch for this [man's/woman's] character."
219: 0x0F79 [0x1C] WAIT(30* ticks)
220: 0x0F7C [0x4A] LocalPlayer looks at Nashmeira (ID: 16982184/0x010320A8)
221: 0x0F85 [0x23] WAIT_FOR_DIALOG_INTERACTION
