# 16982578 - kenbutsu04

## Common Data

| Field            | Value                          |
|------------------|--------------------------------|
| Zone             | Aht Urhgan Whitegate2 (ID: 50) |
| Block Size       | 48 bytes                       |
| Total Events     | 2                              |
| References Count | 1                              |

## List of Events

| Event ID                  | Entrypoint   |   Size |   Instructions |
|---------------------------|--------------|--------|----------------|
| [65535](#event-65535)     | 0x0000       |      1 |              1 |
| [65535.1](#event-65535-1) | 0x0001       |     18 |              4 |

## DAT References (imed_data)

|   Index | Hex Value   |   Dec Value |
|---------|-------------|-------------|
|       0 | 0x000D      |          13 |

## Events

### Event 65535

#### Metadata

| Field        | Value   |
|--------------|---------|
| Entrypoint   | 0x0000  |
| Data Size    | 1 bytes |
| Instructions | 1       |

```
      00 01 02 03 04 05 06 07  08 09 0A 0B 0C 0D 0E 0F
      -- -- -- -- -- -- -- --  -- -- -- -- -- -- -- --
0000: 00                                                .               
```

#### Opcodes

```
  0: 0x0000 [0x00] END_REQSTACK()
```

### Event 65535.1

#### Metadata

| Field        | Value    |
|--------------|----------|
| Entrypoint   | 0x0001   |
| Data Size    | 18 bytes |
| Instructions | 4        |

```
      00 01 02 03 04 05 06 07  08 09 0A 0B 0C 0D 0E 0F
      -- -- -- -- -- -- -- --  -- -- -- -- -- -- -- --
0000:    6E 32 22 03 01 00 80  99 32 22 03 01 99 32 22   n2".....2"...2"
0010: 03 01 00                                          ...             
```

#### Opcodes

```
  0: 0x0001 [0x6E] kenbutsu04 (ID: 16982578/0x01032232) uses emote 13*
  1: 0x0008 [0x99] Wait for kenbutsu04 (ID: 16982578/0x01032232) animation to complete
  2: 0x000D [0x99] Wait for kenbutsu04 (ID: 16982578/0x01032232) animation to complete
  3: 0x0012 [0x00] END_REQSTACK()
```
