# 16982480 - BomePC

## Common Data

| Field            | Value                          |
|------------------|--------------------------------|
| Zone             | Aht Urhgan Whitegate2 (ID: 50) |
| Block Size       | 396 bytes                      |
| Total Events     | 19                             |
| References Count | 8                              |

## List of Events

| Event ID                   | Entrypoint   |   Size |   Instructions |
|----------------------------|--------------|--------|----------------|
| [65535](#event-65535)      | 0x0000       |      1 |              1 |
| [65535.1](#event-655351)   | 0x0001       |     10 |              2 |
| [5084](#event-5084)        | 0x000B       |      1 |              1 |
| [65535.2](#event-655352)   | 0x000C       |     10 |              2 |
| [65535.3](#event-655353)   | 0x0016       |     10 |              2 |
| [65535.4](#event-655354)   | 0x0020       |     18 |              2 |
| [65535.5](#event-655355)   | 0x0032       |     14 |              2 |
| [65535.6](#event-655356)   | 0x0040       |     14 |              2 |
| [65535.7](#event-655357)   | 0x004E       |     14 |              2 |
| [65535.8](#event-655358)   | 0x005C       |     18 |              2 |
| [65535.9](#event-655359)   | 0x006E       |     18 |              2 |
| [65535.10](#event-6553510) | 0x0080       |     18 |              2 |
| [65535.11](#event-6553511) | 0x0092       |     18 |              2 |
| [65535.12](#event-6553512) | 0x00A4       |     18 |              2 |
| [65535.13](#event-6553513) | 0x00B6       |     18 |              2 |
| [65535.14](#event-6553514) | 0x00C8       |     18 |              2 |
| [65535.15](#event-6553515) | 0x00DA       |     18 |              2 |
| [65535.16](#event-6553516) | 0x00EC       |     18 |              2 |
| [65535.17](#event-6553517) | 0x00FE       |     18 |              2 |

## DAT References (imed_data)

|   Index | Hex Value   |   Dec Value |
|---------|-------------|-------------|
|       0 | 0x0000      |           0 |
|       1 | 0x0001      |           1 |
|       2 | 0x003C      |          60 |
|       3 | 0x0080      |         128 |
|       4 | 0x0073      |         115 |
|       5 | 0x0075      |         117 |
|       6 | 0x0076      |         118 |
|       7 | 0x0077      |         119 |

## Events

### Event 65535

#### Metadata

| Field        | Value   |
|--------------|---------|
| Entrypoint   | 0x0000  |
| Data Size    | 1 bytes |
| Instructions | 1       |

```
      00 01 02 03 04 05 06 07  08 09 0A 0B 0C 0D 0E 0F
      -- -- -- -- -- -- -- --  -- -- -- -- -- -- -- --
0000: 00                                                .               
```

#### Opcodes

```
  0: 0x0000 [0x00] END_REQSTACK()
```

### Event 65535.1

#### Metadata

| Field        | Value    |
|--------------|----------|
| Entrypoint   | 0x0001   |
| Data Size    | 10 bytes |
| Instructions | 2        |

```
      00 01 02 03 04 05 06 07  08 09 0A 0B 0C 0D 0E 0F
      -- -- -- -- -- -- -- --  -- -- -- -- -- -- -- --
0000:    6C F8 FF FF 7F 00 80  01 80 00                  l.........     
```

#### Opcodes

```
  0: 0x0001 [0x6C] FADE_ENTITY_COLOR(entity_id=EventEntity, end_alpha=0*, fade_time=1*)
  1: 0x000A [0x00] END_REQSTACK()
```

### Event 5084

#### Metadata

| Field        | Value   |
|--------------|---------|
| Entrypoint   | 0x000B  |
| Data Size    | 1 bytes |
| Instructions | 1       |

```
      00 01 02 03 04 05 06 07  08 09 0A 0B 0C 0D 0E 0F
      -- -- -- -- -- -- -- --  -- -- -- -- -- -- -- --
0000:                                   00                         .    
```

#### Opcodes

```
  0: 0x000B [0x00] END_REQSTACK()
```

### Event 65535.2

#### Metadata

| Field        | Value    |
|--------------|----------|
| Entrypoint   | 0x000C   |
| Data Size    | 10 bytes |
| Instructions | 2        |

```
      00 01 02 03 04 05 06 07  08 09 0A 0B 0C 0D 0E 0F
      -- -- -- -- -- -- -- --  -- -- -- -- -- -- -- --
0000:                                      6C F8 FF FF              l...
0010: 7F 00 80 02 80 00                                 ......          
```

#### Opcodes

```
  0: 0x000C [0x6C] FADE_ENTITY_COLOR(entity_id=EventEntity, end_alpha=0*, fade_time=60*)
  1: 0x0015 [0x00] END_REQSTACK()
```

### Event 65535.3

#### Metadata

| Field        | Value    |
|--------------|----------|
| Entrypoint   | 0x0016   |
| Data Size    | 10 bytes |
| Instructions | 2        |

```
      00 01 02 03 04 05 06 07  08 09 0A 0B 0C 0D 0E 0F
      -- -- -- -- -- -- -- --  -- -- -- -- -- -- -- --
0010:                   6C F8  FF FF 7F 03 80 02 80 00        l.........
```

#### Opcodes

```
  0: 0x0016 [0x6C] FADE_ENTITY_COLOR(entity_id=EventEntity, end_alpha=128*, fade_time=60*)
  1: 0x001F [0x00] END_REQSTACK()
```

### Event 65535.4

#### Metadata

| Field        | Value    |
|--------------|----------|
| Entrypoint   | 0x0020   |
| Data Size    | 18 bytes |
| Instructions | 2        |

```
      00 01 02 03 04 05 06 07  08 09 0A 0B 0C 0D 0E 0F
      -- -- -- -- -- -- -- --  -- -- -- -- -- -- -- --
0020: BB 04 80 F8 FF FF 7F F8  FF FF 7F 64 65 72 75 00  ...........deru.
0030: 80 00                                             ..              
```

#### Opcodes

```
  0: 0x0020 [0xBB] LOAD_EVENT_SCHEDULER_ALT: Load scheduler "deru" with entities [EventEntity, EventEntity], work=[115*, 0*]
  1: 0x0031 [0x00] END_REQSTACK()
```

### Event 65535.5

#### Metadata

| Field        | Value    |
|--------------|----------|
| Entrypoint   | 0x0032   |
| Data Size    | 14 bytes |
| Instructions | 2        |

```
      00 01 02 03 04 05 06 07  08 09 0A 0B 0C 0D 0E 0F
      -- -- -- -- -- -- -- --  -- -- -- -- -- -- -- --
0030:       2C F8 FF FF 7F F8  FF FF 7F 69 6E 69 31 00    ,........ini1.
```

#### Opcodes

```
  0: 0x0032 [0x2C] CREATE_SCHEDULER_TASK: Create scheduler "ini1" with entities [EventEntity, EventEntity]
  1: 0x003F [0x00] END_REQSTACK()
```

### Event 65535.6

#### Metadata

| Field        | Value    |
|--------------|----------|
| Entrypoint   | 0x0040   |
| Data Size    | 14 bytes |
| Instructions | 2        |

```
      00 01 02 03 04 05 06 07  08 09 0A 0B 0C 0D 0E 0F
      -- -- -- -- -- -- -- --  -- -- -- -- -- -- -- --
0040: 2C F8 FF FF 7F F8 FF FF  7F 69 6E 69 32 00        ,........ini2.  
```

#### Opcodes

```
  0: 0x0040 [0x2C] CREATE_SCHEDULER_TASK: Create scheduler "ini2" with entities [EventEntity, EventEntity]
  1: 0x004D [0x00] END_REQSTACK()
```

### Event 65535.7

#### Metadata

| Field        | Value    |
|--------------|----------|
| Entrypoint   | 0x004E   |
| Data Size    | 14 bytes |
| Instructions | 2        |

```
      00 01 02 03 04 05 06 07  08 09 0A 0B 0C 0D 0E 0F
      -- -- -- -- -- -- -- --  -- -- -- -- -- -- -- --
0040:                                            2C F8                ,.
0050: FF FF 7F F8 FF FF 7F 69  6E 69 33 00              .......ini3.    
```

#### Opcodes

```
  0: 0x004E [0x2C] CREATE_SCHEDULER_TASK: Create scheduler "ini3" with entities [EventEntity, EventEntity]
  1: 0x005B [0x00] END_REQSTACK()
```

### Event 65535.8

#### Metadata

| Field        | Value    |
|--------------|----------|
| Entrypoint   | 0x005C   |
| Data Size    | 18 bytes |
| Instructions | 2        |

```
      00 01 02 03 04 05 06 07  08 09 0A 0B 0C 0D 0E 0F
      -- -- -- -- -- -- -- --  -- -- -- -- -- -- -- --
0050:                                      BB 05 80 F8              ....
0060: FF FF 7F CB 21 03 01 6D  61 69 6E 00 80 00        ....!..main...  
```

#### Opcodes

```
  0: 0x005C [0xBB] LOAD_EVENT_SCHEDULER_ALT: Load scheduler "main" with entities [EventEntity, Neosaliat (ID: 16982475/0x010321CB)], work=[117*, 0*]
  1: 0x006D [0x00] END_REQSTACK()
```

### Event 65535.9

#### Metadata

| Field        | Value    |
|--------------|----------|
| Entrypoint   | 0x006E   |
| Data Size    | 18 bytes |
| Instructions | 2        |

```
      00 01 02 03 04 05 06 07  08 09 0A 0B 0C 0D 0E 0F
      -- -- -- -- -- -- -- --  -- -- -- -- -- -- -- --
0060:                                            BB 05                ..
0070: 80 F8 FF FF 7F CA 21 03  01 6D 61 69 6E 00 80 00  ......!..main...
```

#### Opcodes

```
  0: 0x006E [0xBB] LOAD_EVENT_SCHEDULER_ALT: Load scheduler "main" with entities [EventEntity, Yasmeel (ID: 16982474/0x010321CA)], work=[117*, 0*]
  1: 0x007F [0x00] END_REQSTACK()
```

### Event 65535.10

#### Metadata

| Field        | Value    |
|--------------|----------|
| Entrypoint   | 0x0080   |
| Data Size    | 18 bytes |
| Instructions | 2        |

```
      00 01 02 03 04 05 06 07  08 09 0A 0B 0C 0D 0E 0F
      -- -- -- -- -- -- -- --  -- -- -- -- -- -- -- --
0080: BB 04 80 F8 FF FF 7F CA  21 03 01 6D 61 69 6E 00  ........!..main.
0090: 80 00                                             ..              
```

#### Opcodes

```
  0: 0x0080 [0xBB] LOAD_EVENT_SCHEDULER_ALT: Load scheduler "main" with entities [EventEntity, Yasmeel (ID: 16982474/0x010321CA)], work=[115*, 0*]
  1: 0x0091 [0x00] END_REQSTACK()
```

### Event 65535.11

#### Metadata

| Field        | Value    |
|--------------|----------|
| Entrypoint   | 0x0092   |
| Data Size    | 18 bytes |
| Instructions | 2        |

```
      00 01 02 03 04 05 06 07  08 09 0A 0B 0C 0D 0E 0F
      -- -- -- -- -- -- -- --  -- -- -- -- -- -- -- --
0090:       BB 05 80 F8 FF FF  7F D3 20 03 01 6D 61 69    ........ ..mai
00A0: 6E 00 80 00                                       n...            
```

#### Opcodes

```
  0: 0x0092 [0xBB] LOAD_EVENT_SCHEDULER_ALT: Load scheduler "main" with entities [EventEntity, Falzum (ID: 16982227/0x010320D3)], work=[117*, 0*]
  1: 0x00A3 [0x00] END_REQSTACK()
```

### Event 65535.12

#### Metadata

| Field        | Value    |
|--------------|----------|
| Entrypoint   | 0x00A4   |
| Data Size    | 18 bytes |
| Instructions | 2        |

```
      00 01 02 03 04 05 06 07  08 09 0A 0B 0C 0D 0E 0F
      -- -- -- -- -- -- -- --  -- -- -- -- -- -- -- --
00A0:             BB 06 80 F8  FF FF 7F D3 20 03 01 6D      ........ ..m
00B0: 61 69 6E 00 80 00                                 ain...          
```

#### Opcodes

```
  0: 0x00A4 [0xBB] LOAD_EVENT_SCHEDULER_ALT: Load scheduler "main" with entities [EventEntity, Falzum (ID: 16982227/0x010320D3)], work=[118*, 0*]
  1: 0x00B5 [0x00] END_REQSTACK()
```

### Event 65535.13

#### Metadata

| Field        | Value    |
|--------------|----------|
| Entrypoint   | 0x00B6   |
| Data Size    | 18 bytes |
| Instructions | 2        |

```
      00 01 02 03 04 05 06 07  08 09 0A 0B 0C 0D 0E 0F
      -- -- -- -- -- -- -- --  -- -- -- -- -- -- -- --
00B0:                   BB 05  80 F8 FF FF 7F 76 20 03        .......v .
00C0: 01 6D 61 69 6E 00 80 00                           .main...        
```

#### Opcodes

```
  0: 0x00B6 [0xBB] LOAD_EVENT_SCHEDULER_ALT: Load scheduler "main" with entities [EventEntity, Kubhe Ijyuhla (ID: 16982134/0x01032076)], work=[117*, 0*]
  1: 0x00C7 [0x00] END_REQSTACK()
```

### Event 65535.14

#### Metadata

| Field        | Value    |
|--------------|----------|
| Entrypoint   | 0x00C8   |
| Data Size    | 18 bytes |
| Instructions | 2        |

```
      00 01 02 03 04 05 06 07  08 09 0A 0B 0C 0D 0E 0F
      -- -- -- -- -- -- -- --  -- -- -- -- -- -- -- --
00C0:                          BB 05 80 F8 FF FF 7F F0          ........
00D0: FF FF 7F 6D 61 69 6E 00  80 00                    ...main...      
```

#### Opcodes

```
  0: 0x00C8 [0xBB] LOAD_EVENT_SCHEDULER_ALT: Load scheduler "main" with entities [EventEntity, LocalPlayer], work=[117*, 0*]
  1: 0x00D9 [0x00] END_REQSTACK()
```

### Event 65535.15

#### Metadata

| Field        | Value    |
|--------------|----------|
| Entrypoint   | 0x00DA   |
| Data Size    | 18 bytes |
| Instructions | 2        |

```
      00 01 02 03 04 05 06 07  08 09 0A 0B 0C 0D 0E 0F
      -- -- -- -- -- -- -- --  -- -- -- -- -- -- -- --
00D0:                                BB 06 80 F8 FF FF            ......
00E0: 7F F0 FF FF 7F 6D 61 69  6E 00 80 00              .....main...    
```

#### Opcodes

```
  0: 0x00DA [0xBB] LOAD_EVENT_SCHEDULER_ALT: Load scheduler "main" with entities [EventEntity, LocalPlayer], work=[118*, 0*]
  1: 0x00EB [0x00] END_REQSTACK()
```

### Event 65535.16

#### Metadata

| Field        | Value    |
|--------------|----------|
| Entrypoint   | 0x00EC   |
| Data Size    | 18 bytes |
| Instructions | 2        |

```
      00 01 02 03 04 05 06 07  08 09 0A 0B 0C 0D 0E 0F
      -- -- -- -- -- -- -- --  -- -- -- -- -- -- -- --
00E0:                                      BB 07 80 F8              ....
00F0: FF FF 7F F0 FF FF 7F 6D  61 69 6E 00 80 00        .......main...  
```

#### Opcodes

```
  0: 0x00EC [0xBB] LOAD_EVENT_SCHEDULER_ALT: Load scheduler "main" with entities [EventEntity, LocalPlayer], work=[119*, 0*]
  1: 0x00FD [0x00] END_REQSTACK()
```

### Event 65535.17

#### Metadata

| Field        | Value    |
|--------------|----------|
| Entrypoint   | 0x00FE   |
| Data Size    | 18 bytes |
| Instructions | 2        |

```
      00 01 02 03 04 05 06 07  08 09 0A 0B 0C 0D 0E 0F
      -- -- -- -- -- -- -- --  -- -- -- -- -- -- -- --
00F0:                                            BB 04                ..
0100: 80 F8 FF FF 7F F0 FF FF  7F 6D 61 69 6E 00 80 00  .........main...
```

#### Opcodes

```
  0: 0x00FE [0xBB] LOAD_EVENT_SCHEDULER_ALT: Load scheduler "main" with entities [EventEntity, LocalPlayer], work=[115*, 0*]
  1: 0x010F [0x00] END_REQSTACK()
```
