# 16982617

## Common Data

| Field            | Value                          |
|------------------|--------------------------------|
| Zone             | Aht Urhgan Whitegate2 (ID: 50) |
| Block Size       | 320 bytes                      |
| Total Events     | 12                             |
| References Count | 14                             |

## List of Events

| Event ID                 | Entrypoint   |   Size |   Instructions |
|--------------------------|--------------|--------|----------------|
| [926](#event-926)        | 0x0000       |      1 |              1 |
| [65535](#event-65535)    | 0x0001       |     10 |              2 |
| [65535.1](#event-655351) | 0x000B       |     10 |              2 |
| [65535.2](#event-655352) | 0x0015       |    124 |             12 |
| [928](#event-928)        | 0x0091       |      1 |              1 |
| [65535.3](#event-655353) | 0x0092       |     12 |              3 |
| [65535.4](#event-655354) | 0x009E       |      4 |              2 |
| [65535.5](#event-655355) | 0x00A2       |     34 |              6 |
| [925](#event-925)        | 0x00C4       |      1 |              1 |
| [929](#event-929)        | 0x00C5       |      1 |              1 |
| [932](#event-932)        | 0x00C6       |      1 |              1 |

## DAT References (imed_data)

|   Index | Hex Value   |   Dec Value |
|---------|-------------|-------------|
|       0 | 0x0080      |         128 |
|       1 | 0x000F      |          15 |
|       2 | 0x0000      |           0 |
|       3 | 0x0064      |         100 |
|       4 | 0x0140      |         320 |
|       5 | 0x005A      |          90 |
|       6 | 0x006E      |         110 |
|       7 | 0x0496      |        1174 |
|       8 | 0x0078      |         120 |
|       9 | 0xFFF83253  |  4294455891 |
|      10 | 0x667FC     |      419836 |
|      11 | 0xFFFF7692  |  4294932114 |
|      12 | 0x0071      |         113 |
|      13 | 0x000A      |          10 |

## Events

### Event 926

#### Metadata

| Field        | Value   |
|--------------|---------|
| Entrypoint   | 0x0000  |
| Data Size    | 1 bytes |
| Instructions | 1       |

```
      00 01 02 03 04 05 06 07  08 09 0A 0B 0C 0D 0E 0F
      -- -- -- -- -- -- -- --  -- -- -- -- -- -- -- --
0000: 00                                                .               
```

#### Opcodes

```
  0: 0x0000 [0x00] END_REQSTACK()
```

### Event 65535

#### Metadata

| Field        | Value    |
|--------------|----------|
| Entrypoint   | 0x0001   |
| Data Size    | 10 bytes |
| Instructions | 2        |

```
      00 01 02 03 04 05 06 07  08 09 0A 0B 0C 0D 0E 0F
      -- -- -- -- -- -- -- --  -- -- -- -- -- -- -- --
0000:    6C C8 20 03 01 00 80  01 80 00                  l. .......     
```

#### Opcodes

```
  0: 0x0001 [0x6C] FADE_ENTITY_COLOR(entity_id=Aphmau (ID: 16982216/0x010320C8), end_alpha=128*, fade_time=15*)
  1: 0x000A [0x00] END_REQSTACK()
```

### Event 65535.1

#### Metadata

| Field        | Value    |
|--------------|----------|
| Entrypoint   | 0x000B   |
| Data Size    | 10 bytes |
| Instructions | 2        |

```
      00 01 02 03 04 05 06 07  08 09 0A 0B 0C 0D 0E 0F
      -- -- -- -- -- -- -- --  -- -- -- -- -- -- -- --
0000:                                   6C C8 20 03 01             l. ..
0010: 02 80 01 80 00                                    .....           
```

#### Opcodes

```
  0: 0x000B [0x6C] FADE_ENTITY_COLOR(entity_id=Aphmau (ID: 16982216/0x010320C8), end_alpha=0*, fade_time=15*)
  1: 0x0014 [0x00] END_REQSTACK()
```

### Event 65535.2

#### Metadata

| Field        | Value     |
|--------------|-----------|
| Entrypoint   | 0x0015    |
| Data Size    | 124 bytes |
| Instructions | 12        |

```
      00 01 02 03 04 05 06 07  08 09 0A 0B 0C 0D 0E 0F
      -- -- -- -- -- -- -- --  -- -- -- -- -- -- -- --
0010:                1C 03 80  52 04 80 F0 FF FF 7F F0       ...R.......
0020: FF FF 7F 30 64 61 33 45  04 80 F0 FF FF 7F F0 FF  ...0da3E........
0030: FF 7F 62 32 30 33 02 80  1C 05 80 52 04 80 F0 FF  ..b203.....R....
0040: FF 7F F0 FF FF 7F 62 32  30 33 45 04 80 F0 FF FF  ......b203E.....
0050: 7F F0 FF FF 7F 62 32 30  31 02 80 1C 06 80 52 04  .....b201.....R.
0060: 80 F0 FF FF 7F F0 FF FF  7F 62 32 30 31 45 04 80  .........b201E..
0070: F0 FF FF 7F F0 FF FF 7F  62 32 30 30 02 80 5B 07  ........b200..[.
0080: 80 91 20 03 01 91 20 03  01 70 61 6E 34 1C 08 80  .. ... ..pan4...
0090: 00                                                .               
```

#### Opcodes

```
  0: 0x0015 [0x1C] WAIT(100* ticks)
  1: 0x0018 [0x52] END_LOAD_SCHEDULER: End scheduler "0da3" with entities [LocalPlayer, LocalPlayer], work=320*
  2: 0x0027 [0x45] LOAD_SCHEDULED_TASK: Load scheduler "b203" with entities [LocalPlayer, LocalPlayer], work=[320*, 0*]
  3: 0x0038 [0x1C] WAIT(90* ticks)
  4: 0x003B [0x52] END_LOAD_SCHEDULER: End scheduler "b203" with entities [LocalPlayer, LocalPlayer], work=320*
  5: 0x004A [0x45] LOAD_SCHEDULED_TASK: Load scheduler "b201" with entities [LocalPlayer, LocalPlayer], work=[320*, 0*]
  6: 0x005B [0x1C] WAIT(110* ticks)
  7: 0x005E [0x52] END_LOAD_SCHEDULER: End scheduler "b201" with entities [LocalPlayer, LocalPlayer], work=320*
  8: 0x006D [0x45] LOAD_SCHEDULED_TASK: Load scheduler "b200" with entities [LocalPlayer, LocalPlayer], work=[320*, 0*]
  9: 0x007E [0x5B] LOAD_EXT_SCHEDULER: Load scheduler "pan4" with entities [Ghatsad (ID: 16982161/0x01032091), Ghatsad (ID: 16982161/0x01032091)], work=1174*
 10: 0x008D [0x1C] WAIT(120* ticks)
 11: 0x0090 [0x00] END_REQSTACK()
```

### Event 928

#### Metadata

| Field        | Value   |
|--------------|---------|
| Entrypoint   | 0x0091  |
| Data Size    | 1 bytes |
| Instructions | 1       |

```
      00 01 02 03 04 05 06 07  08 09 0A 0B 0C 0D 0E 0F
      -- -- -- -- -- -- -- --  -- -- -- -- -- -- -- --
0090:    00                                              .              
```

#### Opcodes

```
  0: 0x0091 [0x00] END_REQSTACK()
```

### Event 65535.3

#### Metadata

| Field        | Value    |
|--------------|----------|
| Entrypoint   | 0x0092   |
| Data Size    | 12 bytes |
| Instructions | 3        |

```
      00 01 02 03 04 05 06 07  08 09 0A 0B 0C 0D 0E 0F
      -- -- -- -- -- -- -- --  -- -- -- -- -- -- -- --
0090:       33 01 37 09 80 0A  80 0B 80 0C 80 00          3.7.........  
```

#### Opcodes

```
  0: 0x0092 [0x33] EventEntity->Render.Flags0 |= 0x200000 // Bit 21 (flag=0x01)
  1: 0x0094 [0x37] UPDATE_EVENT_POSITION_AND_DIR: x=-511.405*, z=419.836*, y=-35.182*, direction=9.9°*
  2: 0x009D [0x00] END_REQSTACK()
```

### Event 65535.4

#### Metadata

| Field        | Value   |
|--------------|---------|
| Entrypoint   | 0x009E  |
| Data Size    | 4 bytes |
| Instructions | 2       |

```
      00 01 02 03 04 05 06 07  08 09 0A 0B 0C 0D 0E 0F
      -- -- -- -- -- -- -- --  -- -- -- -- -- -- -- --
0090:                                            1C 02                ..
00A0: 10 00                                             ..              
```

#### Opcodes

```
  0: 0x009E [0x1C] WAIT(Work_Zone[2] ticks)
  1: 0x00A1 [0x00] END_REQSTACK()
```

### Event 65535.5

#### Metadata

| Field        | Value    |
|--------------|----------|
| Entrypoint   | 0x00A2   |
| Data Size    | 34 bytes |
| Instructions | 6        |

```
      00 01 02 03 04 05 06 07  08 09 0A 0B 0C 0D 0E 0F
      -- -- -- -- -- -- -- --  -- -- -- -- -- -- -- --
00A0:       4A CC 20 03 01 58  22 03 01 1C 0D 80 4A C4    J. ..X".....J.
00B0: 20 03 01 58 22 03 01 1C  0D 80 4A C7 20 03 01 58   ..X".....J. ..X
00C0: 22 03 01 00                                       "...            
```

#### Opcodes

```
  0: 0x00A2 [0x4A] Nashmeira (ID: 16982220/0x010320CC) looks at Razfahd (ID: 16982616/0x01032258)
  1: 0x00AB [0x1C] WAIT(10* ticks)
  2: 0x00AE [0x4A] Mnejing (ID: 16982212/0x010320C4) looks at Razfahd (ID: 16982616/0x01032258)
  3: 0x00B7 [0x1C] WAIT(10* ticks)
  4: 0x00BA [0x4A] Ovjang (ID: 16982215/0x010320C7) looks at Razfahd (ID: 16982616/0x01032258)
  5: 0x00C3 [0x00] END_REQSTACK()
```

### Event 925

#### Metadata

| Field        | Value   |
|--------------|---------|
| Entrypoint   | 0x00C4  |
| Data Size    | 1 bytes |
| Instructions | 1       |

```
      00 01 02 03 04 05 06 07  08 09 0A 0B 0C 0D 0E 0F
      -- -- -- -- -- -- -- --  -- -- -- -- -- -- -- --
00C0:             00                                        .           
```

#### Opcodes

```
  0: 0x00C4 [0x00] END_REQSTACK()
```

### Event 929

#### Metadata

| Field        | Value   |
|--------------|---------|
| Entrypoint   | 0x00C5  |
| Data Size    | 1 bytes |
| Instructions | 1       |

```
      00 01 02 03 04 05 06 07  08 09 0A 0B 0C 0D 0E 0F
      -- -- -- -- -- -- -- --  -- -- -- -- -- -- -- --
00C0:                00                                      .          
```

#### Opcodes

```
  0: 0x00C5 [0x00] END_REQSTACK()
```

### Event 932

#### Metadata

| Field        | Value   |
|--------------|---------|
| Entrypoint   | 0x00C6  |
| Data Size    | 1 bytes |
| Instructions | 1       |

```
      00 01 02 03 04 05 06 07  08 09 0A 0B 0C 0D 0E 0F
      -- -- -- -- -- -- -- --  -- -- -- -- -- -- -- --
00C0:                   00                                    .         
```

#### Opcodes

```
  0: 0x00C6 [0x00] END_REQSTACK()
```
