# 16982367 - Rughadjeen

## Common Data

| Field            | Value                          |
|------------------|--------------------------------|
| Zone             | Aht Urhgan Whitegate2 (ID: 50) |
| Block Size       | 1100 bytes                     |
| Total Events     | 36                             |
| References Count | 70                             |

## List of Events

| Event ID                    | Entrypoint   |   Size |   Instructions |
|-----------------------------|--------------|--------|----------------|
| [65535](#event-65535)       | 0x0000       |      1 |              1 |
| [825](#event-825)           | 0x0001       |      1 |              1 |
| [65535.1](#event-65535-1)   | 0x0002       |     20 |              6 |
| [65535.2](#event-65535-2)   | 0x0016       |     29 |              7 |
| [65535.3](#event-65535-3)   | 0x0033       |      1 |              1 |
| [65535.4](#event-65535-4)   | 0x0034       |      7 |              3 |
| [65535.5](#event-65535-5)   | 0x003B       |      7 |              3 |
| [65535.6](#event-65535-6)   | 0x0042       |     15 |              5 |
| [895](#event-895)           | 0x0051       |      1 |              1 |
| [65535.7](#event-65535-7)   | 0x0052       |     26 |              8 |
| [920](#event-920)           | 0x006C       |      1 |              1 |
| [65535.8](#event-65535-8)   | 0x006D       |     19 |              4 |
| [65535.9](#event-65535-9)   | 0x0080       |     19 |              4 |
| [65535.10](#event-65535-10) | 0x0093       |     19 |              4 |
| [65535.11](#event-65535-11) | 0x00A6       |     19 |              4 |
| [65535.12](#event-65535-12) | 0x00B9       |     19 |              4 |
| [65535.13](#event-65535-13) | 0x00CC       |     13 |              3 |
| [65535.14](#event-65535-14) | 0x00D9       |     19 |              4 |
| [65535.15](#event-65535-15) | 0x00EC       |     19 |              4 |
| [65535.16](#event-65535-16) | 0x00FF       |     19 |              4 |
| [65535.17](#event-65535-17) | 0x0112       |     28 |              7 |
| [65535.18](#event-65535-18) | 0x012E       |     11 |              3 |
| [65535.19](#event-65535-19) | 0x0139       |     34 |              8 |
| [65535.20](#event-65535-20) | 0x015B       |     67 |             13 |
| [65535.21](#event-65535-21) | 0x019E       |     37 |              7 |
| [65535.22](#event-65535-22) | 0x01C3       |     37 |              7 |
| [65535.23](#event-65535-23) | 0x01E8       |     15 |              5 |
| [65535.24](#event-65535-24) | 0x01F7       |      5 |              2 |
| [65535.25](#event-65535-25) | 0x01FC       |      5 |              2 |
| [65535.26](#event-65535-26) | 0x0201       |      5 |              2 |
| [65535.27](#event-65535-27) | 0x0206       |      5 |              2 |
| [65535.28](#event-65535-28) | 0x020B       |     27 |              7 |
| [65535.29](#event-65535-29) | 0x0226       |     27 |              7 |
| [65535.30](#event-65535-30) | 0x0241       |     40 |              6 |
| [65535.31](#event-65535-31) | 0x0269       |     19 |              3 |
| [65535.32](#event-65535-32) | 0x027C       |     24 |              6 |

## DAT References (imed_data)

|   Index | Hex Value   |   Dec Value |
|---------|-------------|-------------|
|       0 | 0x0028      |          40 |
|       1 | 0x14022     |       81954 |
|       2 | 0x51D4B     |      335179 |
|       3 | 0xFFFF91A7  |  4294939047 |
|       4 | 0x12A43     |       76355 |
|       5 | 0xFFFDF0EB  |  4294832363 |
|       6 | 0xFFFFE891  |  4294961297 |
|       7 | 0x02F2      |         754 |
|       8 | 0x000D      |          13 |
|       9 | 0x134EF     |       79087 |
|      10 | 0xFFFDEBBC  |  4294831036 |
|      11 | 0x0001      |           1 |
|      12 | 0x0000      |           0 |
|      13 | 0xFFFD586E  |  4294793326 |
|      14 | 0xFFFD06E2  |  4294772450 |
|      15 | 0x3D32      |       15666 |
|      16 | 0xFFFFCF06  |  4294954758 |
|      17 | 0x185BE     |       99774 |
|      18 | 0x07CF      |        1999 |
|      19 | 0xFFFFD7FF  |  4294957055 |
|      20 | 0x17B5E     |       97118 |
|      21 | 0x0027      |          39 |
|      22 | 0x138CF     |       80079 |
|      23 | 0xFFFDF22F  |  4294832687 |
|      24 | 0xFFFFE890  |  4294961296 |
|      25 | 0x14661     |       83553 |
|      26 | 0xFFFE030D  |  4294837005 |
|      27 | 0x0025      |          37 |
|      28 | 0x148F7     |       84215 |
|      29 | 0xFFFE0A93  |  4294838931 |
|      30 | 0x13583     |       79235 |
|      31 | 0xFFFDEB63  |  4294830947 |
|      32 | 0x13A07     |       80391 |
|      33 | 0xFFFDE965  |  4294830437 |
|      34 | 0x0026      |          38 |
|      35 | 0x000F      |          15 |
|      36 | 0x13A8E     |       80526 |
|      37 | 0xFFFDF578  |  4294833528 |
|      38 | 0x000B      |          11 |
|      39 | 0x13B2A     |       80682 |
|      40 | 0xFFFE06AB  |  4294837931 |
|      41 | 0xFFFE2203  |  4294844931 |
|      42 | 0x13359     |       78681 |
|      43 | 0xFFFDFA56  |  4294834774 |
|      44 | 0x001E      |          30 |
|      45 | 0x02A8      |         680 |
|      46 | 0x13332     |       78642 |
|      47 | 0xFFFE2D9D  |  4294847901 |
|      48 | 0x0003      |           3 |
|      49 | 0x0002      |           2 |
|      50 | 0x0005      |           5 |
|      51 | 0x0530      |        1328 |
|      52 | 0x0004      |           4 |
|      53 | 0x0008      |           8 |
|      54 | 0x000A      |          10 |
|      55 | 0x0041      |          65 |
|      56 | 0xFFFE615D  |  4294861149 |
|      57 | 0x8576      |       34166 |
|      58 | 0x004B      |          75 |
|      59 | 0xFFFFE9BC  |  4294961596 |
|      60 | 0xFFFF9148  |  4294938952 |
|      61 | 0xFFFFF154  |  4294963540 |
|      62 | 0xFFFF934E  |  4294939470 |
|      63 | 0xFFFFF67A  |  4294964858 |
|      64 | 0xFFFF94DE  |  4294939870 |
|      65 | 0x001D      |          29 |
|      66 | 0x002D      |          45 |
|      67 | 0x002A      |          42 |
|      68 | 0x151E7     |       86503 |
|      69 | 0xFFFE0500  |  4294837504 |

## Events

### Event 65535

#### Metadata

| Field        | Value   |
|--------------|---------|
| Entrypoint   | 0x0000  |
| Data Size    | 1 bytes |
| Instructions | 1       |

```
      00 01 02 03 04 05 06 07  08 09 0A 0B 0C 0D 0E 0F
      -- -- -- -- -- -- -- --  -- -- -- -- -- -- -- --
0000: 00                                                .               
```

#### Opcodes

```
  0: 0x0000 [0x00] END_REQSTACK()
```

### Event 825

#### Metadata

| Field        | Value   |
|--------------|---------|
| Entrypoint   | 0x0001  |
| Data Size    | 1 bytes |
| Instructions | 1       |

```
      00 01 02 03 04 05 06 07  08 09 0A 0B 0C 0D 0E 0F
      -- -- -- -- -- -- -- --  -- -- -- -- -- -- -- --
0000:    00                                              .              
```

#### Opcodes

```
  0: 0x0001 [0x00] END_REQSTACK()
```

### Event 65535.1

#### Metadata

| Field        | Value    |
|--------------|----------|
| Entrypoint   | 0x0002   |
| Data Size    | 20 bytes |
| Instructions | 6        |

```
      00 01 02 03 04 05 06 07  08 09 0A 0B 0C 0D 0E 0F
      -- -- -- -- -- -- -- --  -- -- -- -- -- -- -- --
0000:       32 00 80 1F 00 01  80 02 80 03 80 1F 01 6F    2............o
0010: 1E 65 21 03 01 00                                 .e!...          
```

#### Opcodes

```
  0: 0x0002 [0x32] ExtData[1]->MainSpeed = 40* * 0.1
  1: 0x0005 [0x1F] MOVE_ENTITY: EventEntity moves to X=81.954*, Z=335.179*, Y=-28.249*
  2: 0x000D [0x1F] MOVE_ENTITY: Update entity position (mode=1)
  3: 0x000F [0x6F] WAIT_FRAME_DELAY: Yield until WaitTime reaches zero
  4: 0x0010 [0x1E] EventEntity looks at Gadalar (ID: 16982373/0x01032165) and starts talking
  5: 0x0015 [0x00] END_REQSTACK()
```

### Event 65535.2

#### Metadata

| Field        | Value    |
|--------------|----------|
| Entrypoint   | 0x0016   |
| Data Size    | 29 bytes |
| Instructions | 7        |

```
      00 01 02 03 04 05 06 07  08 09 0A 0B 0C 0D 0E 0F
      -- -- -- -- -- -- -- --  -- -- -- -- -- -- -- --
0010:                   37 04  80 05 80 06 80 07 80 32        7........2
0020: 08 80 1F 00 09 80 0A 80  06 80 1F 01 6F 1E 5D 21  ............o.]!
0030: 03 01 00                                          ...             
```

#### Opcodes

```
  0: 0x0016 [0x37] UPDATE_EVENT_POSITION_AND_DIR: x=76.355*, z=-134.933*, y=-5.999*, direction=66.3°*
  1: 0x001F [0x32] ExtData[1]->MainSpeed = 13* * 0.1
  2: 0x0022 [0x1F] MOVE_ENTITY: EventEntity moves to X=79.087*, Z=-136.260*, Y=-5.999*
  3: 0x002A [0x1F] MOVE_ENTITY: Update entity position (mode=1)
  4: 0x002C [0x6F] WAIT_FRAME_DELAY: Yield until WaitTime reaches zero
  5: 0x002D [0x1E] EventEntity looks at Biyaada (ID: 16982365/0x0103215D) and starts talking
  6: 0x0032 [0x00] END_REQSTACK()
```

### Event 65535.3

#### Metadata

| Field        | Value   |
|--------------|---------|
| Entrypoint   | 0x0033  |
| Data Size    | 1 bytes |
| Instructions | 1       |

```
      00 01 02 03 04 05 06 07  08 09 0A 0B 0C 0D 0E 0F
      -- -- -- -- -- -- -- --  -- -- -- -- -- -- -- --
0030:          00                                          .            
```

#### Opcodes

```
  0: 0x0033 [0x00] END_REQSTACK()
```

### Event 65535.4

#### Metadata

| Field        | Value   |
|--------------|---------|
| Entrypoint   | 0x0034  |
| Data Size    | 7 bytes |
| Instructions | 3       |

```
      00 01 02 03 04 05 06 07  08 09 0A 0B 0C 0D 0E 0F
      -- -- -- -- -- -- -- --  -- -- -- -- -- -- -- --
0030:             AB 03 AC 01  0B 80 00                     .......     
```

#### Opcodes

```
  0: 0x0034 [0xAB] EventEntity->Render.Flags0 ^= 0x20000 // Toggle bit 17
  1: 0x0036 [0xAC] EventEntity->StatusEvent = 1*
  2: 0x003A [0x00] END_REQSTACK()
```

### Event 65535.5

#### Metadata

| Field        | Value   |
|--------------|---------|
| Entrypoint   | 0x003B  |
| Data Size    | 7 bytes |
| Instructions | 3       |

```
      00 01 02 03 04 05 06 07  08 09 0A 0B 0C 0D 0E 0F
      -- -- -- -- -- -- -- --  -- -- -- -- -- -- -- --
0030:                                   AC 01 0C 80 AB             .....
0040: 04 00                                             ..              
```

#### Opcodes

```
  0: 0x003B [0xAC] EventEntity->StatusEvent = 0*
  1: 0x003F [0xAB] EventEntity->Render.Flags0 |= 0x40000 // Set bit 18
  2: 0x0041 [0x00] END_REQSTACK()
```

### Event 65535.6

#### Metadata

| Field        | Value    |
|--------------|----------|
| Entrypoint   | 0x0042   |
| Data Size    | 15 bytes |
| Instructions | 5        |

```
      00 01 02 03 04 05 06 07  08 09 0A 0B 0C 0D 0E 0F
      -- -- -- -- -- -- -- --  -- -- -- -- -- -- -- --
0040:       32 00 80 1F 00 0D  80 0E 80 0F 80 1F 01 6F    2............o
0050: 00                                                .               
```

#### Opcodes

```
  0: 0x0042 [0x32] ExtData[1]->MainSpeed = 40* * 0.1
  1: 0x0045 [0x1F] MOVE_ENTITY: EventEntity moves to X=-173.970*, Z=-194.846*, Y=15.666*
  2: 0x004D [0x1F] MOVE_ENTITY: Update entity position (mode=1)
  3: 0x004F [0x6F] WAIT_FRAME_DELAY: Yield until WaitTime reaches zero
  4: 0x0050 [0x00] END_REQSTACK()
```

### Event 895

#### Metadata

| Field        | Value   |
|--------------|---------|
| Entrypoint   | 0x0051  |
| Data Size    | 1 bytes |
| Instructions | 1       |

```
      00 01 02 03 04 05 06 07  08 09 0A 0B 0C 0D 0E 0F
      -- -- -- -- -- -- -- --  -- -- -- -- -- -- -- --
0050:    00                                              .              
```

#### Opcodes

```
  0: 0x0051 [0x00] END_REQSTACK()
```

### Event 65535.7

#### Metadata

| Field        | Value    |
|--------------|----------|
| Entrypoint   | 0x0052   |
| Data Size    | 26 bytes |
| Instructions | 8        |

```
      00 01 02 03 04 05 06 07  08 09 0A 0B 0C 0D 0E 0F
      -- -- -- -- -- -- -- --  -- -- -- -- -- -- -- --
0050:       32 08 80 1F 00 10  80 11 80 12 80 1F 01 6F    2............o
0060: 1F 00 13 80 14 80 12 80  1F 01 6F 00              ..........o.    
```

#### Opcodes

```
  0: 0x0052 [0x32] ExtData[1]->MainSpeed = 13* * 0.1
  1: 0x0055 [0x1F] MOVE_ENTITY: EventEntity moves to X=-12.538*, Z=99.774*, Y=1.999*
  2: 0x005D [0x1F] MOVE_ENTITY: Update entity position (mode=1)
  3: 0x005F [0x6F] WAIT_FRAME_DELAY: Yield until WaitTime reaches zero
  4: 0x0060 [0x1F] MOVE_ENTITY: EventEntity moves to X=-10.241*, Z=97.118*, Y=1.999*
  5: 0x0068 [0x1F] MOVE_ENTITY: Update entity position (mode=1)
  6: 0x006A [0x6F] WAIT_FRAME_DELAY: Yield until WaitTime reaches zero
  7: 0x006B [0x00] END_REQSTACK()
```

### Event 920

#### Metadata

| Field        | Value   |
|--------------|---------|
| Entrypoint   | 0x006C  |
| Data Size    | 1 bytes |
| Instructions | 1       |

```
      00 01 02 03 04 05 06 07  08 09 0A 0B 0C 0D 0E 0F
      -- -- -- -- -- -- -- --  -- -- -- -- -- -- -- --
0060:                                      00                       .   
```

#### Opcodes

```
  0: 0x006C [0x00] END_REQSTACK()
```

### Event 65535.8

#### Metadata

| Field        | Value    |
|--------------|----------|
| Entrypoint   | 0x006D   |
| Data Size    | 19 bytes |
| Instructions | 4        |

```
      00 01 02 03 04 05 06 07  08 09 0A 0B 0C 0D 0E 0F
      -- -- -- -- -- -- -- --  -- -- -- -- -- -- -- --
0060:                                         59 04 AC               Y..
0070: 21 03 01 15 80 1F 00 16  80 17 80 18 80 1F 01 00  !...............
```

#### Opcodes

```
  0: 0x006D [0x59] UPDATE_ENTITY_DATA: Set Shayadar (ID: 16982444/0x010321AC) main speed = 39* * 0.1
  1: 0x0075 [0x1F] MOVE_ENTITY: EventEntity moves to X=80.079*, Z=-134.609*, Y=-6.000*
  2: 0x007D [0x1F] MOVE_ENTITY: Update entity position (mode=1)
  3: 0x007F [0x00] END_REQSTACK()
```

### Event 65535.9

#### Metadata

| Field        | Value    |
|--------------|----------|
| Entrypoint   | 0x0080   |
| Data Size    | 19 bytes |
| Instructions | 4        |

```
      00 01 02 03 04 05 06 07  08 09 0A 0B 0C 0D 0E 0F
      -- -- -- -- -- -- -- --  -- -- -- -- -- -- -- --
0080: 59 04 AC 21 03 01 08 80  1F 00 19 80 1A 80 18 80  Y..!............
0090: 1F 01 00                                          ...             
```

#### Opcodes

```
  0: 0x0080 [0x59] UPDATE_ENTITY_DATA: Set Shayadar (ID: 16982444/0x010321AC) main speed = 13* * 0.1
  1: 0x0088 [0x1F] MOVE_ENTITY: EventEntity moves to X=83.553*, Z=-130.291*, Y=-6.000*
  2: 0x0090 [0x1F] MOVE_ENTITY: Update entity position (mode=1)
  3: 0x0092 [0x00] END_REQSTACK()
```

### Event 65535.10

#### Metadata

| Field        | Value    |
|--------------|----------|
| Entrypoint   | 0x0093   |
| Data Size    | 19 bytes |
| Instructions | 4        |

```
      00 01 02 03 04 05 06 07  08 09 0A 0B 0C 0D 0E 0F
      -- -- -- -- -- -- -- --  -- -- -- -- -- -- -- --
0090:          59 04 5C 21 03  01 1B 80 1F 00 1C 80 1D     Y.\!.........
00A0: 80 18 80 1F 01 00                                 ......          
```

#### Opcodes

```
  0: 0x0093 [0x59] UPDATE_ENTITY_DATA: Set Fari-Wari (ID: 16982364/0x0103215C) main speed = 37* * 0.1
  1: 0x009B [0x1F] MOVE_ENTITY: EventEntity moves to X=84.215*, Z=-128.365*, Y=-6.000*
  2: 0x00A3 [0x1F] MOVE_ENTITY: Update entity position (mode=1)
  3: 0x00A5 [0x00] END_REQSTACK()
```

### Event 65535.11

#### Metadata

| Field        | Value    |
|--------------|----------|
| Entrypoint   | 0x00A6   |
| Data Size    | 19 bytes |
| Instructions | 4        |

```
      00 01 02 03 04 05 06 07  08 09 0A 0B 0C 0D 0E 0F
      -- -- -- -- -- -- -- --  -- -- -- -- -- -- -- --
00A0:                   59 04  5C 21 03 01 08 80 1F 00        Y.\!......
00B0: 1E 80 1F 80 18 80 1F 01  00                       .........       
```

#### Opcodes

```
  0: 0x00A6 [0x59] UPDATE_ENTITY_DATA: Set Fari-Wari (ID: 16982364/0x0103215C) main speed = 13* * 0.1
  1: 0x00AE [0x1F] MOVE_ENTITY: EventEntity moves to X=79.235*, Z=-136.349*, Y=-6.000*
  2: 0x00B6 [0x1F] MOVE_ENTITY: Update entity position (mode=1)
  3: 0x00B8 [0x00] END_REQSTACK()
```

### Event 65535.12

#### Metadata

| Field        | Value    |
|--------------|----------|
| Entrypoint   | 0x00B9   |
| Data Size    | 19 bytes |
| Instructions | 4        |

```
      00 01 02 03 04 05 06 07  08 09 0A 0B 0C 0D 0E 0F
      -- -- -- -- -- -- -- --  -- -- -- -- -- -- -- --
00B0:                             59 04 5C 21 03 01 08           Y.\!...
00C0: 80 1F 00 20 80 21 80 18  80 1F 01 00              ... .!......    
```

#### Opcodes

```
  0: 0x00B9 [0x59] UPDATE_ENTITY_DATA: Set Fari-Wari (ID: 16982364/0x0103215C) main speed = 13* * 0.1
  1: 0x00C1 [0x1F] MOVE_ENTITY: EventEntity moves to X=80.391*, Z=-136.859*, Y=-6.000*
  2: 0x00C9 [0x1F] MOVE_ENTITY: Update entity position (mode=1)
  3: 0x00CB [0x00] END_REQSTACK()
```

### Event 65535.13

#### Metadata

| Field        | Value    |
|--------------|----------|
| Entrypoint   | 0x00CC   |
| Data Size    | 13 bytes |
| Instructions | 3        |

```
      00 01 02 03 04 05 06 07  08 09 0A 0B 0C 0D 0E 0F
      -- -- -- -- -- -- -- --  -- -- -- -- -- -- -- --
00C0:                                      6E 5C 21 03              n\!.
00D0: 01 22 80 99 5C 21 03 01  00                       ."..\!...       
```

#### Opcodes

```
  0: 0x00CC [0x6E] Fari-Wari (ID: 16982364/0x0103215C) uses emote 38*
  1: 0x00D3 [0x99] Wait for Fari-Wari (ID: 16982364/0x0103215C) animation to complete
  2: 0x00D8 [0x00] END_REQSTACK()
```

### Event 65535.14

#### Metadata

| Field        | Value    |
|--------------|----------|
| Entrypoint   | 0x00D9   |
| Data Size    | 19 bytes |
| Instructions | 4        |

```
      00 01 02 03 04 05 06 07  08 09 0A 0B 0C 0D 0E 0F
      -- -- -- -- -- -- -- --  -- -- -- -- -- -- -- --
00D0:                             59 04 60 21 03 01 23           Y.`!..#
00E0: 80 1F 00 24 80 25 80 18  80 1F 01 00              ...$.%......    
```

#### Opcodes

```
  0: 0x00D9 [0x59] UPDATE_ENTITY_DATA: Set Gadalar (ID: 16982368/0x01032160) main speed = 15* * 0.1
  1: 0x00E1 [0x1F] MOVE_ENTITY: EventEntity moves to X=80.526*, Z=-133.768*, Y=-6.000*
  2: 0x00E9 [0x1F] MOVE_ENTITY: Update entity position (mode=1)
  3: 0x00EB [0x00] END_REQSTACK()
```

### Event 65535.15

#### Metadata

| Field        | Value    |
|--------------|----------|
| Entrypoint   | 0x00EC   |
| Data Size    | 19 bytes |
| Instructions | 4        |

```
      00 01 02 03 04 05 06 07  08 09 0A 0B 0C 0D 0E 0F
      -- -- -- -- -- -- -- --  -- -- -- -- -- -- -- --
00E0:                                      59 04 60 21              Y.`!
00F0: 03 01 26 80 1F 00 27 80  28 80 18 80 1F 01 00     ..&...'.(...... 
```

#### Opcodes

```
  0: 0x00EC [0x59] UPDATE_ENTITY_DATA: Set Gadalar (ID: 16982368/0x01032160) main speed = 11* * 0.1
  1: 0x00F4 [0x1F] MOVE_ENTITY: EventEntity moves to X=80.682*, Z=-129.365*, Y=-6.000*
  2: 0x00FC [0x1F] MOVE_ENTITY: Update entity position (mode=1)
  3: 0x00FE [0x00] END_REQSTACK()
```

### Event 65535.16

#### Metadata

| Field        | Value    |
|--------------|----------|
| Entrypoint   | 0x00FF   |
| Data Size    | 19 bytes |
| Instructions | 4        |

```
      00 01 02 03 04 05 06 07  08 09 0A 0B 0C 0D 0E 0F
      -- -- -- -- -- -- -- --  -- -- -- -- -- -- -- --
00F0:                                               59                 Y
0100: 04 60 21 03 01 26 80 1F  00 27 80 29 80 18 80 1F  .`!..&...'.)....
0110: 01 00                                             ..              
```

#### Opcodes

```
  0: 0x00FF [0x59] UPDATE_ENTITY_DATA: Set Gadalar (ID: 16982368/0x01032160) main speed = 11* * 0.1
  1: 0x0107 [0x1F] MOVE_ENTITY: EventEntity moves to X=80.682*, Z=-122.365*, Y=-6.000*
  2: 0x010F [0x1F] MOVE_ENTITY: Update entity position (mode=1)
  3: 0x0111 [0x00] END_REQSTACK()
```

### Event 65535.17

#### Metadata

| Field        | Value    |
|--------------|----------|
| Entrypoint   | 0x0112   |
| Data Size    | 28 bytes |
| Instructions | 7        |

```
      00 01 02 03 04 05 06 07  08 09 0A 0B 0C 0D 0E 0F
      -- -- -- -- -- -- -- --  -- -- -- -- -- -- -- --
0110:       1F 00 2A 80 2B 80  18 80 1F 01 6F 79 00 AC    ..*.+.....oy..
0120: 21 03 01 5C 21 03 01 1C  2C 80 39 2D 80 00        !..\!...,.9-..  
```

#### Opcodes

```
  0: 0x0112 [0x1F] MOVE_ENTITY: EventEntity moves to X=78.681*, Z=-132.522*, Y=-6.000*
  1: 0x011A [0x1F] MOVE_ENTITY: Update entity position (mode=1)
  2: 0x011C [0x6F] WAIT_FRAME_DELAY: Yield until WaitTime reaches zero
  3: 0x011D [0x79] Shayadar (ID: 16982444/0x010321AC) looks at Fari-Wari (ID: 16982364/0x0103215C) (Basic look)
  4: 0x0127 [0x1C] WAIT(30* ticks)
  5: 0x012A [0x39] SET_ENTITY_DIRECTION(direction=3.7°*)
  6: 0x012D [0x00] END_REQSTACK()
```

### Event 65535.18

#### Metadata

| Field        | Value    |
|--------------|----------|
| Entrypoint   | 0x012E   |
| Data Size    | 11 bytes |
| Instructions | 3        |

```
      00 01 02 03 04 05 06 07  08 09 0A 0B 0C 0D 0E 0F
      -- -- -- -- -- -- -- --  -- -- -- -- -- -- -- --
0120:                                            1F 00                ..
0130: 2E 80 2F 80 18 80 1F 01  00                       ../......       
```

#### Opcodes

```
  0: 0x012E [0x1F] MOVE_ENTITY: EventEntity moves to X=78.642*, Z=-119.395*, Y=-6.000*
  1: 0x0136 [0x1F] MOVE_ENTITY: Update entity position (mode=1)
  2: 0x0138 [0x00] END_REQSTACK()
```

### Event 65535.19

#### Metadata

| Field        | Value    |
|--------------|----------|
| Entrypoint   | 0x0139   |
| Data Size    | 34 bytes |
| Instructions | 8        |

```
      00 01 02 03 04 05 06 07  08 09 0A 0B 0C 0D 0E 0F
      -- -- -- -- -- -- -- --  -- -- -- -- -- -- -- --
0130:                             1C 30 80 1C 31 80 6E           .0..1.n
0140: 45 22 03 01 26 80 99 45  22 03 01 1C 32 80 6E 46  E"..&..E"...2.nF
0150: 22 03 01 08 80 99 46 22  03 01 00                 ".....F"...     
```

#### Opcodes

```
  0: 0x0139 [0x1C] WAIT(3* ticks)
  1: 0x013C [0x1C] WAIT(2* ticks)
  2: 0x013F [0x6E] FAN7 (ID: 16982597/0x01032245) uses emote 11*
  3: 0x0146 [0x99] Wait for FAN7 (ID: 16982597/0x01032245) animation to complete
  4: 0x014B [0x1C] WAIT(5* ticks)
  5: 0x014E [0x6E] FAN8 (ID: 16982598/0x01032246) uses emote 13*
  6: 0x0155 [0x99] Wait for FAN8 (ID: 16982598/0x01032246) animation to complete
  7: 0x015A [0x00] END_REQSTACK()
```

### Event 65535.20

#### Metadata

| Field        | Value    |
|--------------|----------|
| Entrypoint   | 0x015B   |
| Data Size    | 67 bytes |
| Instructions | 13       |

```
      00 01 02 03 04 05 06 07  08 09 0A 0B 0C 0D 0E 0F
      -- -- -- -- -- -- -- --  -- -- -- -- -- -- -- --
0150:                                   6E 41 22 03 01             nA"..
0160: 26 80 99 41 22 03 01 1C  30 80 5B 33 80 42 22 03  &..A"...0.[3.B".
0170: 01 42 22 03 01 69 72 6F  30 1C 34 80 1C 30 80 1C  .B"..iro0.4..0..
0180: 31 80 6E 45 22 03 01 35  80 99 45 22 03 01 1C 32  1.nE"..5..E"...2
0190: 80 6E 46 22 03 01 26 80  99 46 22 03 01 00        .nF"..&..F"...  
```

#### Opcodes

```
  0: 0x015B [0x6E] FAN3 (ID: 16982593/0x01032241) uses emote 11*
  1: 0x0162 [0x99] Wait for FAN3 (ID: 16982593/0x01032241) animation to complete
  2: 0x0167 [0x1C] WAIT(3* ticks)
  3: 0x016A [0x5B] LOAD_EXT_SCHEDULER: Load scheduler "iro0" with entities [FAN4 (ID: 16982594/0x01032242), FAN4 (ID: 16982594/0x01032242)], work=1328*
  4: 0x0179 [0x1C] WAIT(4* ticks)
  5: 0x017C [0x1C] WAIT(3* ticks)
  6: 0x017F [0x1C] WAIT(2* ticks)
  7: 0x0182 [0x6E] FAN7 (ID: 16982597/0x01032245) uses emote 8*
  8: 0x0189 [0x99] Wait for FAN7 (ID: 16982597/0x01032245) animation to complete
  9: 0x018E [0x1C] WAIT(5* ticks)
 10: 0x0191 [0x6E] FAN8 (ID: 16982598/0x01032246) uses emote 11*
 11: 0x0198 [0x99] Wait for FAN8 (ID: 16982598/0x01032246) animation to complete
 12: 0x019D [0x00] END_REQSTACK()
```

### Event 65535.21

#### Metadata

| Field        | Value    |
|--------------|----------|
| Entrypoint   | 0x019E   |
| Data Size    | 37 bytes |
| Instructions | 7        |

```
      00 01 02 03 04 05 06 07  08 09 0A 0B 0C 0D 0E 0F
      -- -- -- -- -- -- -- --  -- -- -- -- -- -- -- --
0190:                                            6E 3C                n<
01A0: 22 03 01 0B 80 99 3C 22  03 01 6E 3D 22 03 01 35  ".....<"..n="..5
01B0: 80 99 3D 22 03 01 6E 3E  22 03 01 36 80 99 3E 22  ..="..n>"..6..>"
01C0: 03 01 00                                          ...             
```

#### Opcodes

```
  0: 0x019E [0x6E] Wajran (ID: 16982588/0x0103223C) uses emote 1*
  1: 0x01A5 [0x99] Wait for Wajran (ID: 16982588/0x0103223C) animation to complete
  2: 0x01AA [0x6E] PAKU02 (ID: 16982589/0x0103223D) uses emote 8*
  3: 0x01B1 [0x99] Wait for PAKU02 (ID: 16982589/0x0103223D) animation to complete
  4: 0x01B6 [0x6E] PAKU03 (ID: 16982590/0x0103223E) uses emote 10*
  5: 0x01BD [0x99] Wait for PAKU03 (ID: 16982590/0x0103223E) animation to complete
  6: 0x01C2 [0x00] END_REQSTACK()
```

### Event 65535.22

#### Metadata

| Field        | Value    |
|--------------|----------|
| Entrypoint   | 0x01C3   |
| Data Size    | 37 bytes |
| Instructions | 7        |

```
      00 01 02 03 04 05 06 07  08 09 0A 0B 0C 0D 0E 0F
      -- -- -- -- -- -- -- --  -- -- -- -- -- -- -- --
01C0:          6E 3C 22 03 01  37 80 99 3C 22 03 01 6E     n<"..7..<"..n
01D0: 3D 22 03 01 37 80 99 3D  22 03 01 6E 3E 22 03 01  ="..7..="..n>"..
01E0: 37 80 99 3E 22 03 01 00                           7..>"...        
```

#### Opcodes

```
  0: 0x01C3 [0x6E] Wajran (ID: 16982588/0x0103223C) uses emote 65*
  1: 0x01CA [0x99] Wait for Wajran (ID: 16982588/0x0103223C) animation to complete
  2: 0x01CF [0x6E] PAKU02 (ID: 16982589/0x0103223D) uses emote 65*
  3: 0x01D6 [0x99] Wait for PAKU02 (ID: 16982589/0x0103223D) animation to complete
  4: 0x01DB [0x6E] PAKU03 (ID: 16982590/0x0103223E) uses emote 65*
  5: 0x01E2 [0x99] Wait for PAKU03 (ID: 16982590/0x0103223E) animation to complete
  6: 0x01E7 [0x00] END_REQSTACK()
```

### Event 65535.23

#### Metadata

| Field        | Value    |
|--------------|----------|
| Entrypoint   | 0x01E8   |
| Data Size    | 15 bytes |
| Instructions | 5        |

```
      00 01 02 03 04 05 06 07  08 09 0A 0B 0C 0D 0E 0F
      -- -- -- -- -- -- -- --  -- -- -- -- -- -- -- --
01E0:                          32 00 80 1F 00 38 80 39          2....8.9
01F0: 80 06 80 1F 01 6F 00                              .....o.         
```

#### Opcodes

```
  0: 0x01E8 [0x32] ExtData[1]->MainSpeed = 40* * 0.1
  1: 0x01EB [0x1F] MOVE_ENTITY: EventEntity moves to X=-106.147*, Z=34.166*, Y=-5.999*
  2: 0x01F3 [0x1F] MOVE_ENTITY: Update entity position (mode=1)
  3: 0x01F5 [0x6F] WAIT_FRAME_DELAY: Yield until WaitTime reaches zero
  4: 0x01F6 [0x00] END_REQSTACK()
```

### Event 65535.24

#### Metadata

| Field        | Value   |
|--------------|---------|
| Entrypoint   | 0x01F7  |
| Data Size    | 5 bytes |
| Instructions | 2       |

```
      00 01 02 03 04 05 06 07  08 09 0A 0B 0C 0D 0E 0F
      -- -- -- -- -- -- -- --  -- -- -- -- -- -- -- --
01F0:                      B6  0A 37 80 00                     ..7..    
```

#### Opcodes

```
  0: 0x01F7 [0xB6] ENTITY_APPEARANCE_HANDLER(case=Ranged, value=65*)
  1: 0x01FB [0x00] END_REQSTACK()
```

### Event 65535.25

#### Metadata

| Field        | Value   |
|--------------|---------|
| Entrypoint   | 0x01FC  |
| Data Size    | 5 bytes |
| Instructions | 2       |

```
      00 01 02 03 04 05 06 07  08 09 0A 0B 0C 0D 0E 0F
      -- -- -- -- -- -- -- --  -- -- -- -- -- -- -- --
01F0:                                      B6 0A 0C 80              ....
0200: 00                                                .               
```

#### Opcodes

```
  0: 0x01FC [0xB6] ENTITY_APPEARANCE_HANDLER(case=Ranged, value=0*)
  1: 0x0200 [0x00] END_REQSTACK()
```

### Event 65535.26

#### Metadata

| Field        | Value   |
|--------------|---------|
| Entrypoint   | 0x0201  |
| Data Size    | 5 bytes |
| Instructions | 2       |

```
      00 01 02 03 04 05 06 07  08 09 0A 0B 0C 0D 0E 0F
      -- -- -- -- -- -- -- --  -- -- -- -- -- -- -- --
0200:    B6 0A 3A 80 00                                  ..:..          
```

#### Opcodes

```
  0: 0x0201 [0xB6] ENTITY_APPEARANCE_HANDLER(case=Ranged, value=75*)
  1: 0x0205 [0x00] END_REQSTACK()
```

### Event 65535.27

#### Metadata

| Field        | Value   |
|--------------|---------|
| Entrypoint   | 0x0206  |
| Data Size    | 5 bytes |
| Instructions | 2       |

```
      00 01 02 03 04 05 06 07  08 09 0A 0B 0C 0D 0E 0F
      -- -- -- -- -- -- -- --  -- -- -- -- -- -- -- --
0200:                   B6 0A  0C 80 00                       .....     
```

#### Opcodes

```
  0: 0x0206 [0xB6] ENTITY_APPEARANCE_HANDLER(case=Ranged, value=0*)
  1: 0x020A [0x00] END_REQSTACK()
```

### Event 65535.28

#### Metadata

| Field        | Value    |
|--------------|----------|
| Entrypoint   | 0x020B   |
| Data Size    | 27 bytes |
| Instructions | 7        |

```
      00 01 02 03 04 05 06 07  08 09 0A 0B 0C 0D 0E 0F
      -- -- -- -- -- -- -- --  -- -- -- -- -- -- -- --
0200:                                   1F 00 3B 80 3C             ..;.<
0210: 80 0C 80 1F 01 6F 4A 61  21 03 01 5F 21 03 01 6F  .....oJa!.._!..o
0220: 76 61 21 03 01 00                                 va!...          
```

#### Opcodes

```
  0: 0x020B [0x1F] MOVE_ENTITY: EventEntity moves to X=-5.700*, Z=-28.344*, Y=0.000*
  1: 0x0213 [0x1F] MOVE_ENTITY: Update entity position (mode=1)
  2: 0x0215 [0x6F] WAIT_FRAME_DELAY: Yield until WaitTime reaches zero
  3: 0x0216 [0x4A] Najelith (ID: 16982369/0x01032161) looks at Rughadjeen (ID: 16982367/0x0103215F)
  4: 0x021F [0x6F] WAIT_FRAME_DELAY: Yield until WaitTime reaches zero
  5: 0x0220 [0x76] CHECK_ENTITY_RENDER_FLAGS: Wait until Najelith (ID: 16982369/0x01032161) Render.Flags0 and Render.Flags3 conditions are met
  6: 0x0225 [0x00] END_REQSTACK()
```

### Event 65535.29

#### Metadata

| Field        | Value    |
|--------------|----------|
| Entrypoint   | 0x0226   |
| Data Size    | 27 bytes |
| Instructions | 7        |

```
      00 01 02 03 04 05 06 07  08 09 0A 0B 0C 0D 0E 0F
      -- -- -- -- -- -- -- --  -- -- -- -- -- -- -- --
0220:                   1F 00  3D 80 3E 80 0C 80 1F 01        ..=.>.....
0230: 6F 4A 5F 21 03 01 61 21  03 01 6F 76 5F 21 03 01  oJ_!..a!..ov_!..
0240: 00                                                .               
```

#### Opcodes

```
  0: 0x0226 [0x1F] MOVE_ENTITY: EventEntity moves to X=-3.756*, Z=-27.826*, Y=0.000*
  1: 0x022E [0x1F] MOVE_ENTITY: Update entity position (mode=1)
  2: 0x0230 [0x6F] WAIT_FRAME_DELAY: Yield until WaitTime reaches zero
  3: 0x0231 [0x4A] Rughadjeen (ID: 16982367/0x0103215F) looks at Najelith (ID: 16982369/0x01032161)
  4: 0x023A [0x6F] WAIT_FRAME_DELAY: Yield until WaitTime reaches zero
  5: 0x023B [0x76] CHECK_ENTITY_RENDER_FLAGS: Wait until Rughadjeen (ID: 16982367/0x0103215F) Render.Flags0 and Render.Flags3 conditions are met
  6: 0x0240 [0x00] END_REQSTACK()
```

### Event 65535.30

#### Metadata

| Field        | Value    |
|--------------|----------|
| Entrypoint   | 0x0241   |
| Data Size    | 40 bytes |
| Instructions | 6        |

```
      00 01 02 03 04 05 06 07  08 09 0A 0B 0C 0D 0E 0F
      -- -- -- -- -- -- -- --  -- -- -- -- -- -- -- --
0240:    1F 00 3F 80 40 80 0C  80 1F 01 6F 66 41 80 5F   ..?.@.....ofA._
0250: 21 03 01 5F 21 03 01 73  68 61 30 53 5F 21 03 01  !.._!..sha0S_!..
0260: 5F 21 03 01 73 68 61 30  00                       _!..sha0.       
```

#### Opcodes

```
  0: 0x0241 [0x1F] MOVE_ENTITY: EventEntity moves to X=-2.438*, Z=-27.426*, Y=0.000*
  1: 0x0249 [0x1F] MOVE_ENTITY: Update entity position (mode=1)
  2: 0x024B [0x6F] WAIT_FRAME_DELAY: Yield until WaitTime reaches zero
  3: 0x024C [0x66] LOAD_EXT_SCHEDULER_MAIN: Load scheduler "sha0" with entities [Rughadjeen (ID: 16982367/0x0103215F), Rughadjeen (ID: 16982367/0x0103215F)], work=29*
  4: 0x025B [0x53] WAIT_SCHEDULER_TASK: Wait for scheduler "sha0" with entities [Rughadjeen (ID: 16982367/0x0103215F), Rughadjeen (ID: 16982367/0x0103215F)]
  5: 0x0268 [0x00] END_REQSTACK()
```

### Event 65535.31

#### Metadata

| Field        | Value    |
|--------------|----------|
| Entrypoint   | 0x0269   |
| Data Size    | 19 bytes |
| Instructions | 3        |

```
      00 01 02 03 04 05 06 07  08 09 0A 0B 0C 0D 0E 0F
      -- -- -- -- -- -- -- --  -- -- -- -- -- -- -- --
0260:                             1C 42 80 66 43 80 5C           .B.fC.\
0270: 21 03 01 5C 21 03 01 62  73 6B 30 00              !..\!..bsk0.    
```

#### Opcodes

```
  0: 0x0269 [0x1C] WAIT(45* ticks)
  1: 0x026C [0x66] LOAD_EXT_SCHEDULER_MAIN: Load scheduler "bsk0" with entities [Fari-Wari (ID: 16982364/0x0103215C), Fari-Wari (ID: 16982364/0x0103215C)], work=42*
  2: 0x027B [0x00] END_REQSTACK()
```

### Event 65535.32

#### Metadata

| Field        | Value    |
|--------------|----------|
| Entrypoint   | 0x027C   |
| Data Size    | 24 bytes |
| Instructions | 6        |

```
      00 01 02 03 04 05 06 07  08 09 0A 0B 0C 0D 0E 0F
      -- -- -- -- -- -- -- --  -- -- -- -- -- -- -- --
0270:                                      32 00 80 1F              2...
0280: 00 44 80 45 80 06 80 1F  01 6F 4A 5C 21 03 01 2C  .D.E.....oJ\!..,
0290: 22 03 01 00                                       "...            
```

#### Opcodes

```
  0: 0x027C [0x32] ExtData[1]->MainSpeed = 40* * 0.1
  1: 0x027F [0x1F] MOVE_ENTITY: EventEntity moves to X=86.503*, Z=-129.792*, Y=-5.999*
  2: 0x0287 [0x1F] MOVE_ENTITY: Update entity position (mode=1)
  3: 0x0289 [0x6F] WAIT_FRAME_DELAY: Yield until WaitTime reaches zero
  4: 0x028A [0x4A] Fari-Wari (ID: 16982364/0x0103215C) looks at Wajran (ID: 16982572/0x0103222C)
  5: 0x0293 [0x00] END_REQSTACK()
```
