# 16982118 - Kaduru-Haiduru

## Common Data

| Field            | Value                          |
|------------------|--------------------------------|
| Zone             | Aht Urhgan Whitegate2 (ID: 50) |
| Block Size       | 880 bytes                      |
| Total Events     | 6                              |
| References Count | 28                             |

## List of Events

| Event ID              | Entrypoint   |   Size |   Instructions |
|-----------------------|--------------|--------|----------------|
| [65535](#event-65535) | 0x0000       |      1 |              1 |
| [151](#event-151)     | 0x0001       |    198 |             41 |
| [152](#event-152)     | 0x00C7       |    106 |             20 |
| [153](#event-153)     | 0x0131       |    109 |             19 |
| [154](#event-154)     | 0x019E       |    221 |             40 |
| [155](#event-155)     | 0x027B       |     90 |             16 |

## DAT References (imed_data)

|   Index | Hex Value   |   Dec Value |
|---------|-------------|-------------|
|       0 | 0x001E      |          30 |
|       1 | 0x0028      |          40 |
|       2 | 0x0000      |           0 |
|       3 | 0x37F1      |       14321 |
|       4 | 0x0001      |           1 |
|       5 | 0x37FA      |       14330 |
|       6 | 0x0002      |           2 |
|       7 | 0x37FB      |       14331 |
|       8 | 0x0003      |           3 |
|       9 | 0x37FC      |       14332 |
|      10 | 0x37F2      |       14322 |
|      11 | 0x37FD      |       14333 |
|      12 | 0x0889      |        2185 |
|      13 | 0x37F3      |       14323 |
|      14 | 0x37FE      |       14334 |
|      15 | 0x37F4      |       14324 |
|      16 | 0x37F5      |       14325 |
|      17 | 0x37F6      |       14326 |
|      18 | 0x010A      |         266 |
|      19 | 0x012C      |         300 |
|      20 | 0x00C8      |         200 |
|      21 | 0x003C      |          60 |
|      22 | 0x37F7      |       14327 |
|      23 | 0x37F8      |       14328 |
|      24 | 0x37F9      |       14329 |
|      25 | 0x37FF      |       14335 |
|      26 | 0x3800      |       14336 |
|      27 | 0x3801      |       14337 |

## String References

- **14321**: Greetings... I see you have been drawn in by the spectacle of my massive magical aura... Do not be embarrassed. You are not the first.
- **14322**: Perhaps I shall bless you with a demonstration? I can snatch you up in an eldritch embrace and transport you to a far-off land. How does Jeuno sound?
- **14323**: But I must have a tribute to match my brilliance... Ah yes, $0 would be perfect!
- **14324**: There is no hurry--the stream of time shall wait for one such as I. When you are prepared, trade me the treasure I ask for and you will find yourself whisked to the center of Jeuno in a twinkling...
- **14325**: I see you have brought me my $0. Your tribute has bought you a first-class ticket to the Duchy of Jeuno!
- **14326**: Prepare yourself for the height of teleportation excellence!
- **14327**: That smell... You reek of amateur sorcery.
- **14328**: It seems my superior services have been spurned for back-alley parlor tricks.
- **14329**: I'll thank you to take that offensive stink elsewhere.
- **14330**: I see you have developed a fondness for my mystical magnificence.
- **14331**: Again, you come to me. You can never forget the enchanted exhiliration that accompanies a top-class teleportation...
- **14332**: You are a slave to my superlative spellcraft.
- **14333**: And since you find me in high spirits this day, I will even consent to transport you to the nation of your allegiance.
- **14334**: There is no hurry--the stream of time shall wait for one such as I. When you are prepared, trade me the treasure I ask for and you will find yourself instantly whisked to the center of your destination...
- **14335**: Have you decided the destination for this intoxicating transit?
- **14336**: Your destination? [The Duchy of Jeuno./Nation of allegiance.]
- **14337**: I see you have brought me my $0. Your tribute has bought you a first-class ticket to [the Kingdom of San d'Oria/the Republic of Bastok/the Federation of Windurst]!

## Events

### Event 65535

#### Metadata

| Field        | Value   |
|--------------|---------|
| Entrypoint   | 0x0000  |
| Data Size    | 1 bytes |
| Instructions | 1       |

```
      00 01 02 03 04 05 06 07  08 09 0A 0B 0C 0D 0E 0F
      -- -- -- -- -- -- -- --  -- -- -- -- -- -- -- --
0000: 00                                                .               
```

#### Opcodes

```
  0: 0x0000 [0x00] END_REQSTACK()
```

### Event 151

#### Metadata

| Field        | Value     |
|--------------|-----------|
| Entrypoint   | 0x0001    |
| Data Size    | 198 bytes |
| Instructions | 41        |

```
      00 01 02 03 04 05 06 07  08 09 0A 0B 0C 0D 0E 0F
      -- -- -- -- -- -- -- --  -- -- -- -- -- -- -- --
0000:    1E F0 FF FF 7F 1C 00  80 79 00 F8 FF FF 7F F0   ........y......
0010: FF FF 7F 1C 00 80 66 01  80 F8 FF FF 7F F8 FF FF  ......f.........
0020: 7F 74 68 6B 31 02 04 10  02 80 80 34 00 1D 03 80  .thk1......4....
0030: 23 01 61 00 02 04 10 04  80 80 43 00 1D 05 80 23  #.a.......C....#
0040: 01 61 00 02 04 10 06 80  80 52 00 1D 07 80 23 01  .a.......R....#.
0050: 61 00 02 04 10 08 80 80  61 00 1D 09 80 23 01 61  a.......a....#.a
0060: 00 1D 0A 80 23 02 04 10  08 80 00 71 00 1D 0B 80  ....#......q....
0070: 23 66 01 80 F8 FF FF 7F  F8 FF FF 7F 70 6F 69 30  #f..........poi0
0080: 03 02 10 0C 80 1D 0D 80  23 53 F8 FF FF 7F F8 FF  ........#S......
0090: FF 7F 70 6F 69 30 66 01  80 F8 FF FF 7F F8 FF FF  ..poi0f.........
00A0: 7F 64 69 73 30 02 04 10  08 80 00 B4 00 1D 0E 80  .dis0...........
00B0: 23 01 B8 00 1D 0F 80 23  53 F8 FF FF 7F F8 FF FF  #......#S.......
00C0: 7F 64 69 73 30 21 00                              .dis0!.         
```

#### Opcodes

```
  0: 0x0001 [0x1E] EventEntity looks at LocalPlayer and starts talking
  1: 0x0006 [0x1C] WAIT(30* ticks)
  2: 0x0009 [0x79] EventEntity looks at LocalPlayer (Basic look)
  3: 0x0013 [0x1C] WAIT(30* ticks)
  4: 0x0016 [0x66] LOAD_EXT_SCHEDULER_MAIN: Load scheduler "thk1" with entities [EventEntity, EventEntity], work=40*
  5: 0x0025 [0x02] IF !(Work_Zone[4] == 0*) GOTO 0x0034
  6: 0x002D [0x1D] PRINT_EVENT_MESSAGE(message_id=14321*)
    → "Greetings... I see you have been drawn in by the spectacle of my massive magical aura... Do not be embarrassed. You are not the first."
  7: 0x0030 [0x23] WAIT_FOR_DIALOG_INTERACTION
  8: 0x0031 [0x01] GOTO 0x0061
  9: 0x0034 [0x02] IF !(Work_Zone[4] == 1*) GOTO 0x0043
 10: 0x003C [0x1D] PRINT_EVENT_MESSAGE(message_id=14330*)
    → "I see you have developed a fondness for my mystical magnificence."
 11: 0x003F [0x23] WAIT_FOR_DIALOG_INTERACTION
 12: 0x0040 [0x01] GOTO 0x0061
 13: 0x0043 [0x02] IF !(Work_Zone[4] == 2*) GOTO 0x0052
 14: 0x004B [0x1D] PRINT_EVENT_MESSAGE(message_id=14331*)
    → "Again, you come to me. You can never forget the enchanted exhiliration that accompanies a top-class teleportation..."
 15: 0x004E [0x23] WAIT_FOR_DIALOG_INTERACTION
 16: 0x004F [0x01] GOTO 0x0061
 17: 0x0052 [0x02] IF !(Work_Zone[4] == 3*) GOTO 0x0061
 18: 0x005A [0x1D] PRINT_EVENT_MESSAGE(message_id=14332*)
    → "You are a slave to my superlative spellcraft."
 19: 0x005D [0x23] WAIT_FOR_DIALOG_INTERACTION
 20: 0x005E [0x01] GOTO 0x0061

SUBROUTINE_0061:
 21: 0x0061 [0x1D] PRINT_EVENT_MESSAGE(message_id=14322*)
    → "Perhaps I shall bless you with a demonstration? I can snatch you up in an eldritch embrace and transport you to a far-off land. How does Jeuno sound?"
 22: 0x0064 [0x23] WAIT_FOR_DIALOG_INTERACTION
 23: 0x0065 [0x02] IF !(Work_Zone[4] == 3*) GOTO 0x0071
 24: 0x006D [0x1D] PRINT_EVENT_MESSAGE(message_id=14333*)
    → "And since you find me in high spirits this day, I will even consent to transport you to the nation of your allegiance."
 25: 0x0070 [0x23] WAIT_FOR_DIALOG_INTERACTION
 26: 0x0071 [0x66] LOAD_EXT_SCHEDULER_MAIN: Load scheduler "poi0" with entities [EventEntity, EventEntity], work=40*
 27: 0x0080 [0x03] Work_Zone[2] = 2185*
 28: 0x0085 [0x1D] PRINT_EVENT_MESSAGE(message_id=14323*)
    → "But I must have a tribute to match my brilliance... Ah yes, $0 would be perfect!"
 29: 0x0088 [0x23] WAIT_FOR_DIALOG_INTERACTION
 30: 0x0089 [0x53] WAIT_SCHEDULER_TASK: Wait for scheduler "poi0" with entities [EventEntity, EventEntity]
 31: 0x0096 [0x66] LOAD_EXT_SCHEDULER_MAIN: Load scheduler "dis0" with entities [EventEntity, EventEntity], work=40*
 32: 0x00A5 [0x02] IF !(Work_Zone[4] == 3*) GOTO 0x00B4
 33: 0x00AD [0x1D] PRINT_EVENT_MESSAGE(message_id=14334*)
    → "There is no hurry--the stream of time shall wait for one such as I. When you are prepared, trade me the treasure I ask for and you will find yourself instantly whisked to the center of your destination..."
 34: 0x00B0 [0x23] WAIT_FOR_DIALOG_INTERACTION
 35: 0x00B1 [0x01] GOTO 0x00B8
 36: 0x00B4 [0x1D] PRINT_EVENT_MESSAGE(message_id=14324*)
    → "There is no hurry--the stream of time shall wait for one such as I. When you are prepared, trade me the treasure I ask for and you will find yourself whisked to the center of Jeuno in a twinkling..."
 37: 0x00B7 [0x23] WAIT_FOR_DIALOG_INTERACTION

SUBROUTINE_00B8:
 38: 0x00B8 [0x53] WAIT_SCHEDULER_TASK: Wait for scheduler "dis0" with entities [EventEntity, EventEntity]
 39: 0x00C5 [0x21] END_EVENT
 40: 0x00C6 [0x00] END_REQSTACK()
```

### Event 152

#### Metadata

| Field        | Value     |
|--------------|-----------|
| Entrypoint   | 0x00C7    |
| Data Size    | 106 bytes |
| Instructions | 20        |

```
      00 01 02 03 04 05 06 07  08 09 0A 0B 0C 0D 0E 0F
      -- -- -- -- -- -- -- --  -- -- -- -- -- -- -- --
00C0:                      42  20 01 1E F0 FF FF 7F 1C         B .......
00D0: 00 80 79 00 F8 FF FF 7F  F0 FF FF 7F 66 01 80 F8  ..y.........f...
00E0: FF FF 7F F8 FF FF 7F 77  61 69 30 03 02 10 0C 80  .......wai0.....
00F0: 1D 10 80 23 53 F8 FF FF  7F F8 FF FF 7F 77 61 69  ...#S........wai
0100: 30 1D 11 80 03 01 10 04  80 73 12 80 66 20 03 01  0........s..f ..
0110: F0 FF FF 7F 1C 13 80 45  14 80 F0 FF FF 7F F0 FF  .......E........
0120: FF 7F 66 64 6F 31 02 80  1C 15 80 46 00 20 00 21  ..fdo1.....F. .!
0130: 00                                                .               
```

#### Opcodes

```
  0: 0x00C7 [0x42] SET_CLI_EVENT_CANCEL_DATA()
  1: 0x00C8 [0x20] SET_CLI_EVENT_UC_FLAG: Lock player control
  2: 0x00CA [0x1E] EventEntity looks at LocalPlayer and starts talking
  3: 0x00CF [0x1C] WAIT(30* ticks)
  4: 0x00D2 [0x79] EventEntity looks at LocalPlayer (Basic look)
  5: 0x00DC [0x66] LOAD_EXT_SCHEDULER_MAIN: Load scheduler "wai0" with entities [EventEntity, EventEntity], work=40*
  6: 0x00EB [0x03] Work_Zone[2] = 2185*
  7: 0x00F0 [0x1D] PRINT_EVENT_MESSAGE(message_id=14325*)
    → "I see you have brought me my $0. Your tribute has bought you a first-class ticket to the Duchy of Jeuno!"
  8: 0x00F3 [0x23] WAIT_FOR_DIALOG_INTERACTION
  9: 0x00F4 [0x53] WAIT_SCHEDULER_TASK: Wait for scheduler "wai0" with entities [EventEntity, EventEntity]
 10: 0x0101 [0x1D] PRINT_EVENT_MESSAGE(message_id=14326*)
    → "Prepare yourself for the height of teleportation excellence!"
 11: 0x0104 [0x03] Work_Zone[1] = 1*
 12: 0x0109 [0x73] Kaduru-Haiduru (ID: 16982118/0x01032066) casts magic 266* on LocalPlayer
 13: 0x0114 [0x1C] WAIT(300* ticks)
 14: 0x0117 [0x45] LOAD_SCHEDULED_TASK: Load scheduler "fdo1" with entities [LocalPlayer, LocalPlayer], work=[200*, 0*]
 15: 0x0128 [0x1C] WAIT(60* ticks)
 16: 0x012B [0x46] CAMERA_CONTROL: Restore default settings
 17: 0x012D [0x20] SET_CLI_EVENT_UC_FLAG: Unlock player control
 18: 0x012F [0x21] END_EVENT
 19: 0x0130 [0x00] END_REQSTACK()
```

### Event 153

#### Metadata

| Field        | Value     |
|--------------|-----------|
| Entrypoint   | 0x0131    |
| Data Size    | 109 bytes |
| Instructions | 19        |

```
      00 01 02 03 04 05 06 07  08 09 0A 0B 0C 0D 0E 0F
      -- -- -- -- -- -- -- --  -- -- -- -- -- -- -- --
0130:    42 20 01 1E F0 FF FF  7F 1C 00 80 79 00 F8 FF   B .........y...
0140: FF 7F F0 FF FF 7F 1C 00  80 66 01 80 F8 FF FF 7F  .........f......
0150: F8 FF FF 7F 74 68 6B 31  1D 16 80 23 66 01 80 F8  ....thk1...#f...
0160: FF FF 7F F8 FF FF 7F 70  6F 69 30 1D 17 80 23 53  .......poi0...#S
0170: F8 FF FF 7F F8 FF FF 7F  70 6F 69 30 66 01 80 F8  ........poi0f...
0180: FF FF 7F F8 FF FF 7F 64  69 73 30 1D 18 80 23 53  .......dis0...#S
0190: F8 FF FF 7F F8 FF FF 7F  64 69 73 30 21 00        ........dis0!.  
```

#### Opcodes

```
  0: 0x0131 [0x42] SET_CLI_EVENT_CANCEL_DATA()
  1: 0x0132 [0x20] SET_CLI_EVENT_UC_FLAG: Lock player control
  2: 0x0134 [0x1E] EventEntity looks at LocalPlayer and starts talking
  3: 0x0139 [0x1C] WAIT(30* ticks)
  4: 0x013C [0x79] EventEntity looks at LocalPlayer (Basic look)
  5: 0x0146 [0x1C] WAIT(30* ticks)
  6: 0x0149 [0x66] LOAD_EXT_SCHEDULER_MAIN: Load scheduler "thk1" with entities [EventEntity, EventEntity], work=40*
  7: 0x0158 [0x1D] PRINT_EVENT_MESSAGE(message_id=14327*)
    → "That smell... You reek of amateur sorcery."
  8: 0x015B [0x23] WAIT_FOR_DIALOG_INTERACTION
  9: 0x015C [0x66] LOAD_EXT_SCHEDULER_MAIN: Load scheduler "poi0" with entities [EventEntity, EventEntity], work=40*
 10: 0x016B [0x1D] PRINT_EVENT_MESSAGE(message_id=14328*)
    → "It seems my superior services have been spurned for back-alley parlor tricks."
 11: 0x016E [0x23] WAIT_FOR_DIALOG_INTERACTION
 12: 0x016F [0x53] WAIT_SCHEDULER_TASK: Wait for scheduler "poi0" with entities [EventEntity, EventEntity]
 13: 0x017C [0x66] LOAD_EXT_SCHEDULER_MAIN: Load scheduler "dis0" with entities [EventEntity, EventEntity], work=40*
 14: 0x018B [0x1D] PRINT_EVENT_MESSAGE(message_id=14329*)
    → "I'll thank you to take that offensive stink elsewhere."
 15: 0x018E [0x23] WAIT_FOR_DIALOG_INTERACTION
 16: 0x018F [0x53] WAIT_SCHEDULER_TASK: Wait for scheduler "dis0" with entities [EventEntity, EventEntity]
 17: 0x019C [0x21] END_EVENT
 18: 0x019D [0x00] END_REQSTACK()
```

### Event 154

#### Metadata

| Field        | Value     |
|--------------|-----------|
| Entrypoint   | 0x019E    |
| Data Size    | 221 bytes |
| Instructions | 40        |

```
      00 01 02 03 04 05 06 07  08 09 0A 0B 0C 0D 0E 0F
      -- -- -- -- -- -- -- --  -- -- -- -- -- -- -- --
0190:                                            42 20                B 
01A0: 01 1E F0 FF FF 7F 1C 00  80 79 00 F8 FF FF 7F F0  .........y......
01B0: FF FF 7F 1D 19 80 23 24  1A 80 02 80 02 80 25 02  ......#$......%.
01C0: 00 10 02 80 00 1B 02 66  01 80 F8 FF FF 7F F8 FF  .......f........
01D0: FF 7F 77 61 69 30 03 02  10 0C 80 1D 10 80 23 53  ..wai0........#S
01E0: F8 FF FF 7F F8 FF FF 7F  77 61 69 30 1D 11 80 03  ........wai0....
01F0: 01 10 04 80 73 12 80 66  20 03 01 F0 FF FF 7F 1C  ....s..f .......
0200: 13 80 45 14 80 F0 FF FF  7F F0 FF FF 7F 66 64 6F  ..E..........fdo
0210: 31 02 80 1C 15 80 46 00  01 77 02 02 00 10 04 80  1.....F..w......
0220: 00 77 02 66 01 80 F8 FF  FF 7F F8 FF FF 7F 77 61  .w.f..........wa
0230: 69 30 03 02 10 0C 80 1D  1B 80 23 53 F8 FF FF 7F  i0........#S....
0240: F8 FF FF 7F 77 61 69 30  1D 11 80 03 01 10 06 80  ....wai0........
0250: 73 12 80 66 20 03 01 F0  FF FF 7F 1C 13 80 45 14  s..f .........E.
0260: 80 F0 FF FF 7F F0 FF FF  7F 66 64 6F 31 02 80 1C  .........fdo1...
0270: 15 80 46 00 01 77 02 20  00 21 00                 ..F..w. .!.     
```

#### Opcodes

```
  0: 0x019E [0x42] SET_CLI_EVENT_CANCEL_DATA()
  1: 0x019F [0x20] SET_CLI_EVENT_UC_FLAG: Lock player control
  2: 0x01A1 [0x1E] EventEntity looks at LocalPlayer and starts talking
  3: 0x01A6 [0x1C] WAIT(30* ticks)
  4: 0x01A9 [0x79] EventEntity looks at LocalPlayer (Basic look)
  5: 0x01B3 [0x1D] PRINT_EVENT_MESSAGE(message_id=14335*)
    → "Have you decided the destination for this intoxicating transit?"
  6: 0x01B6 [0x23] WAIT_FOR_DIALOG_INTERACTION
  7: 0x01B7 [0x24] CREATE_DIALOG(message_id=14336*, default_option=0*, option_flags=0*)
    → "Your destination? [The Duchy of Jeuno./Nation of allegiance.]"
  8: 0x01BE [0x25] WAIT_DIALOG_SELECT()
  9: 0x01BF [0x02] IF !(Work_Zone[0] == 0*) GOTO 0x021B
 10: 0x01C7 [0x66] LOAD_EXT_SCHEDULER_MAIN: Load scheduler "wai0" with entities [EventEntity, EventEntity], work=40*
 11: 0x01D6 [0x03] Work_Zone[2] = 2185*
 12: 0x01DB [0x1D] PRINT_EVENT_MESSAGE(message_id=14325*)
    → "I see you have brought me my $0. Your tribute has bought you a first-class ticket to the Duchy of Jeuno!"
 13: 0x01DE [0x23] WAIT_FOR_DIALOG_INTERACTION
 14: 0x01DF [0x53] WAIT_SCHEDULER_TASK: Wait for scheduler "wai0" with entities [EventEntity, EventEntity]
 15: 0x01EC [0x1D] PRINT_EVENT_MESSAGE(message_id=14326*)
    → "Prepare yourself for the height of teleportation excellence!"
 16: 0x01EF [0x03] Work_Zone[1] = 1*
 17: 0x01F4 [0x73] Kaduru-Haiduru (ID: 16982118/0x01032066) casts magic 266* on LocalPlayer
 18: 0x01FF [0x1C] WAIT(300* ticks)
 19: 0x0202 [0x45] LOAD_SCHEDULED_TASK: Load scheduler "fdo1" with entities [LocalPlayer, LocalPlayer], work=[200*, 0*]
 20: 0x0213 [0x1C] WAIT(60* ticks)
 21: 0x0216 [0x46] CAMERA_CONTROL: Restore default settings
 22: 0x0218 [0x01] GOTO 0x0277
 23: 0x021B [0x02] IF !(Work_Zone[0] == 1*) GOTO 0x0277
 24: 0x0223 [0x66] LOAD_EXT_SCHEDULER_MAIN: Load scheduler "wai0" with entities [EventEntity, EventEntity], work=40*
 25: 0x0232 [0x03] Work_Zone[2] = 2185*
 26: 0x0237 [0x1D] PRINT_EVENT_MESSAGE(message_id=14337*)
    → "I see you have brought me my $0. Your tribute has bought you a first-class ticket to [the Kingdom of San d'Oria/the Republic of Bastok/the Federation of Windurst]!"
 27: 0x023A [0x23] WAIT_FOR_DIALOG_INTERACTION
 28: 0x023B [0x53] WAIT_SCHEDULER_TASK: Wait for scheduler "wai0" with entities [EventEntity, EventEntity]
 29: 0x0248 [0x1D] PRINT_EVENT_MESSAGE(message_id=14326*)
    → "Prepare yourself for the height of teleportation excellence!"
 30: 0x024B [0x03] Work_Zone[1] = 2*
 31: 0x0250 [0x73] Kaduru-Haiduru (ID: 16982118/0x01032066) casts magic 266* on LocalPlayer
 32: 0x025B [0x1C] WAIT(300* ticks)
 33: 0x025E [0x45] LOAD_SCHEDULED_TASK: Load scheduler "fdo1" with entities [LocalPlayer, LocalPlayer], work=[200*, 0*]
 34: 0x026F [0x1C] WAIT(60* ticks)
 35: 0x0272 [0x46] CAMERA_CONTROL: Restore default settings
 36: 0x0274 [0x01] GOTO 0x0277

SUBROUTINE_0277:
 37: 0x0277 [0x20] SET_CLI_EVENT_UC_FLAG: Unlock player control
 38: 0x0279 [0x21] END_EVENT
 39: 0x027A [0x00] END_REQSTACK()
```

### Event 155

#### Metadata

| Field        | Value    |
|--------------|----------|
| Entrypoint   | 0x027B   |
| Data Size    | 90 bytes |
| Instructions | 16       |

```
      00 01 02 03 04 05 06 07  08 09 0A 0B 0C 0D 0E 0F
      -- -- -- -- -- -- -- --  -- -- -- -- -- -- -- --
0270:                                   42 20 01 1E F0             B ...
0280: FF FF 7F 1C 00 80 79 00  F8 FF FF 7F F0 FF FF 7F  ......y.........
0290: 1C 00 80 66 01 80 F8 FF  FF 7F F8 FF FF 7F 70 6F  ...f..........po
02A0: 69 30 1D 17 80 23 53 F8  FF FF 7F F8 FF FF 7F 70  i0...#S........p
02B0: 6F 69 30 66 01 80 F8 FF  FF 7F F8 FF FF 7F 64 69  oi0f..........di
02C0: 73 30 1D 18 80 23 53 F8  FF FF 7F F8 FF FF 7F 64  s0...#S........d
02D0: 69 73 30 21 00                                    is0!.           
```

#### Opcodes

```
  0: 0x027B [0x42] SET_CLI_EVENT_CANCEL_DATA()
  1: 0x027C [0x20] SET_CLI_EVENT_UC_FLAG: Lock player control
  2: 0x027E [0x1E] EventEntity looks at LocalPlayer and starts talking
  3: 0x0283 [0x1C] WAIT(30* ticks)
  4: 0x0286 [0x79] EventEntity looks at LocalPlayer (Basic look)
  5: 0x0290 [0x1C] WAIT(30* ticks)
  6: 0x0293 [0x66] LOAD_EXT_SCHEDULER_MAIN: Load scheduler "poi0" with entities [EventEntity, EventEntity], work=40*
  7: 0x02A2 [0x1D] PRINT_EVENT_MESSAGE(message_id=14328*)
    → "It seems my superior services have been spurned for back-alley parlor tricks."
  8: 0x02A5 [0x23] WAIT_FOR_DIALOG_INTERACTION
  9: 0x02A6 [0x53] WAIT_SCHEDULER_TASK: Wait for scheduler "poi0" with entities [EventEntity, EventEntity]
 10: 0x02B3 [0x66] LOAD_EXT_SCHEDULER_MAIN: Load scheduler "dis0" with entities [EventEntity, EventEntity], work=40*
 11: 0x02C2 [0x1D] PRINT_EVENT_MESSAGE(message_id=14329*)
    → "I'll thank you to take that offensive stink elsewhere."
 12: 0x02C5 [0x23] WAIT_FOR_DIALOG_INTERACTION
 13: 0x02C6 [0x53] WAIT_SCHEDULER_TASK: Wait for scheduler "dis0" with entities [EventEntity, EventEntity]
 14: 0x02D3 [0x21] END_EVENT
 15: 0x02D4 [0x00] END_REQSTACK()
```
