# 16982269

## Common Data

| Field            | Value                          |
|------------------|--------------------------------|
| Zone             | Aht Urhgan Whitegate2 (ID: 50) |
| Block Size       | 1280 bytes                     |
| Total Events     | 50                             |
| References Count | 103                            |

## List of Events

| Event ID                   | Entrypoint   |   Size |   Instructions |
|----------------------------|--------------|--------|----------------|
| [65535](#event-65535)      | 0x0000       |      1 |              1 |
| [65535.1](#event-655351)   | 0x0001       |      7 |              2 |
| [65535.2](#event-655352)   | 0x0008       |      7 |              2 |
| [65535.3](#event-655353)   | 0x000F       |      7 |              2 |
| [65535.4](#event-655354)   | 0x0016       |      7 |              2 |
| [65535.5](#event-655355)   | 0x001D       |      7 |              2 |
| [65535.6](#event-655356)   | 0x0024       |      7 |              2 |
| [65535.7](#event-655357)   | 0x002B       |      7 |              2 |
| [65535.8](#event-655358)   | 0x0032       |      7 |              2 |
| [65535.9](#event-655359)   | 0x0039       |      7 |              2 |
| [65535.10](#event-6553510) | 0x0040       |      7 |              2 |
| [65535.11](#event-6553511) | 0x0047       |     20 |              5 |
| [65535.12](#event-6553512) | 0x005B       |     20 |              5 |
| [65535.13](#event-6553513) | 0x006F       |     20 |              5 |
| [65535.14](#event-6553514) | 0x0083       |     18 |              4 |
| [65535.15](#event-6553515) | 0x0095       |     14 |              4 |
| [65535.16](#event-6553516) | 0x00A3       |     20 |              5 |
| [65535.17](#event-6553517) | 0x00B7       |     20 |              5 |
| [65535.18](#event-6553518) | 0x00CB       |     20 |              5 |
| [65535.19](#event-6553519) | 0x00DF       |     20 |              5 |
| [65535.20](#event-6553520) | 0x00F3       |     20 |              5 |
| [65535.21](#event-6553521) | 0x0107       |     20 |              5 |
| [65535.22](#event-6553522) | 0x011B       |     20 |              5 |
| [65535.23](#event-6553523) | 0x012F       |     20 |              5 |
| [65535.24](#event-6553524) | 0x0143       |     20 |              5 |
| [65535.25](#event-6553525) | 0x0157       |     20 |              5 |
| [65535.26](#event-6553526) | 0x016B       |     20 |              5 |
| [65535.27](#event-6553527) | 0x017F       |     20 |              5 |
| [65535.28](#event-6553528) | 0x0193       |     20 |              5 |
| [65535.29](#event-6553529) | 0x01A7       |      1 |              1 |
| [65535.30](#event-6553530) | 0x01A8       |      1 |              1 |
| [65535.31](#event-6553531) | 0x01A9       |      1 |              1 |
| [65535.32](#event-6553532) | 0x01AA       |      1 |              1 |
| [65535.33](#event-6553533) | 0x01AB       |      1 |              1 |
| [65535.34](#event-6553534) | 0x01AC       |      1 |              1 |
| [65535.35](#event-6553535) | 0x01AD       |      1 |              1 |
| [65535.36](#event-6553536) | 0x01AE       |     20 |              5 |
| [65535.37](#event-6553537) | 0x01C2       |     18 |              4 |
| [65535.38](#event-6553538) | 0x01D4       |     18 |              4 |
| [65535.39](#event-6553539) | 0x01E6       |     18 |              4 |
| [65535.40](#event-6553540) | 0x01F8       |     18 |              4 |
| [65535.41](#event-6553541) | 0x020A       |     20 |              5 |
| [65535.42](#event-6553542) | 0x021E       |     20 |              5 |
| [65535.43](#event-6553543) | 0x0232       |     20 |              5 |
| [65535.44](#event-6553544) | 0x0246       |     20 |              5 |
| [65535.45](#event-6553545) | 0x025A       |     20 |              5 |
| [65535.46](#event-6553546) | 0x026E       |      3 |              2 |
| [3090](#event-3090)        | 0x0271       |      1 |              1 |
| [65535.47](#event-6553547) | 0x0272       |     12 |              3 |
| [65535.48](#event-6553548) | 0x027E       |     12 |              3 |

## DAT References (imed_data)

|   Index | Hex Value   |   Dec Value |
|---------|-------------|-------------|
|       0 | 0x6C12      |       27666 |
|       1 | 0xFFFE178F  |  4294842255 |
|       2 | 0x0000      |           0 |
|       3 | 0x0A68      |        2664 |
|       4 | 0x73CF      |       29647 |
|       5 | 0xFFFE0C6A  |  4294839402 |
|       6 | 0xFFFFF830  |  4294965296 |
|       7 | 0x6A85      |       27269 |
|       8 | 0xFFFE1DFB  |  4294843899 |
|       9 | 0x0496      |        1174 |
|      10 | 0x68C8      |       26824 |
|      11 | 0xFFFDEA26  |  4294830630 |
|      12 | 0x1F40      |        8000 |
|      13 | 0x0D8F      |        3471 |
|      14 | 0x13861     |       79969 |
|      15 | 0xA3E3      |       41955 |
|      16 | 0xFFFFF5E1  |  4294964705 |
|      17 | 0x0BFB      |        3067 |
|      18 | 0x16ACB     |       92875 |
|      19 | 0xFFFE110D  |  4294840589 |
|      20 | 0xFFFFE69C  |  4294960796 |
|      21 | 0x023E      |         574 |
|      22 | 0x0179      |         377 |
|      23 | 0xFFFFD22F  |  4294955567 |
|      24 | 0x0EE3      |        3811 |
|      25 | 0xFFFFFD41  |  4294966593 |
|      26 | 0xFFFFDA52  |  4294957650 |
|      27 | 0xFFFFFE72  |  4294966898 |
|      28 | 0x0B69      |        2921 |
|      29 | 0x1561      |        5473 |
|      30 | 0xFFFFD206  |  4294955526 |
|      31 | 0x0203      |         515 |
|      32 | 0x10F5      |        4341 |
|      33 | 0xFFFFD0C6  |  4294955206 |
|      34 | 0x0960      |        2400 |
|      35 | 0xFFFE9AE5  |  4294875877 |
|      36 | 0x1ECBD     |      126141 |
|      37 | 0xFFFFE890  |  4294961296 |
|      38 | 0x09F9      |        2553 |
|      39 | 0xFFFE9721  |  4294874913 |
|      40 | 0x1F17C     |      127356 |
|      41 | 0xFFFFE493  |  4294960275 |
|      42 | 0x080F      |        2063 |
|      43 | 0xFFFED360  |  4294890336 |
|      44 | 0x21F23     |      139043 |
|      45 | 0xFFFFE505  |  4294960389 |
|      46 | 0x0C45      |        3141 |
|      47 | 0xFFFEA339  |  4294878009 |
|      48 | 0x1ED6C     |      126316 |
|      49 | 0x01D8      |         472 |
|      50 | 0xFFFE9E45  |  4294876741 |
|      51 | 0x1E6FC     |      124668 |
|      52 | 0x0612      |        1554 |
|      53 | 0xFFFEA96A  |  4294879594 |
|      54 | 0x1E8EA     |      125162 |
|      55 | 0x02B2      |         690 |
|      56 | 0x1678D     |       92045 |
|      57 | 0xFFFE0B14  |  4294839060 |
|      58 | 0xFFFFE69D  |  4294960797 |
|      59 | 0x0033      |          51 |
|      60 | 0x1647D     |       91261 |
|      61 | 0xFFFE0735  |  4294838069 |
|      62 | 0x0F6F      |        3951 |
|      63 | 0xFFFF1759  |  4294907737 |
|      64 | 0xF6A3      |       63139 |
|      65 | 0x0A7E      |        2686 |
|      66 | 0x689A      |       26778 |
|      67 | 0xFFFE03EB  |  4294837227 |
|      68 | 0x0D22      |        3362 |
|      69 | 0x04AA      |        1194 |
|      70 | 0xFFFE8E8C  |  4294872716 |
|      71 | 0xFFFE964B  |  4294874699 |
|      72 | 0xFFFFEC79  |  4294962297 |
|      73 | 0x0F3C      |        3900 |
|      74 | 0x468E      |       18062 |
|      75 | 0xFFFE2E51  |  4294848081 |
|      76 | 0x0110      |         272 |
|      77 | 0xFFFE8E25  |  4294872613 |
|      78 | 0xFFFE9290  |  4294873744 |
|      79 | 0xFFFFEC71  |  4294962289 |
|      80 | 0x05AB      |        1451 |
|      81 | 0xFFFF15A0  |  4294907296 |
|      82 | 0x10549     |       66889 |
|      83 | 0x042F      |        1071 |
|      84 | 0xFFFE696E  |  4294863214 |
|      85 | 0x522B      |       21035 |
|      86 | 0x0C55      |        3157 |
|      87 | 0xFFFE691E  |  4294863134 |
|      88 | 0x4C84      |       19588 |
|      89 | 0x03E8      |        1000 |
|      90 | 0xFFFE5CB5  |  4294859957 |
|      91 | 0x3C86      |       15494 |
|      92 | 0x0E48      |        3656 |
|      93 | 0xFFFF1146  |  4294906182 |
|      94 | 0xFBB8      |       64440 |
|      95 | 0x0185      |         389 |
|      96 | 0xFFFFFD3E  |  4294966590 |
|      97 | 0xFFFEE691  |  4294895249 |
|      98 | 0xFFFFFC18  |  4294966296 |
|      99 | 0x0722      |        1826 |
|     100 | 0xFFFFFC64  |  4294966372 |
|     101 | 0xFFFEFC2B  |  4294900779 |
|     102 | 0x0721      |        1825 |

## Events

### Event 65535

#### Metadata

| Field        | Value   |
|--------------|---------|
| Entrypoint   | 0x0000  |
| Data Size    | 1 bytes |
| Instructions | 1       |

```
      00 01 02 03 04 05 06 07  08 09 0A 0B 0C 0D 0E 0F
      -- -- -- -- -- -- -- --  -- -- -- -- -- -- -- --
0000: 00                                                .               
```

#### Opcodes

```
  0: 0x0000 [0x00] END_REQSTACK()
```

### Event 65535.1

#### Metadata

| Field        | Value   |
|--------------|---------|
| Entrypoint   | 0x0001  |
| Data Size    | 7 bytes |
| Instructions | 2       |

```
      00 01 02 03 04 05 06 07  08 09 0A 0B 0C 0D 0E 0F
      -- -- -- -- -- -- -- --  -- -- -- -- -- -- -- --
0000:    94 01 F8 FF FF 7F 00                            .......        
```

#### Opcodes

```
  0: 0x0001 [0x94] EventEntity->Render.Flags3 ^= 0x01
  1: 0x0007 [0x00] END_REQSTACK()
```

### Event 65535.2

#### Metadata

| Field        | Value   |
|--------------|---------|
| Entrypoint   | 0x0008  |
| Data Size    | 7 bytes |
| Instructions | 2       |

```
      00 01 02 03 04 05 06 07  08 09 0A 0B 0C 0D 0E 0F
      -- -- -- -- -- -- -- --  -- -- -- -- -- -- -- --
0000:                          94 01 F8 FF FF 7F 00             ....... 
```

#### Opcodes

```
  0: 0x0008 [0x94] EventEntity->Render.Flags3 ^= 0x01
  1: 0x000E [0x00] END_REQSTACK()
```

### Event 65535.3

#### Metadata

| Field        | Value   |
|--------------|---------|
| Entrypoint   | 0x000F  |
| Data Size    | 7 bytes |
| Instructions | 2       |

```
      00 01 02 03 04 05 06 07  08 09 0A 0B 0C 0D 0E 0F
      -- -- -- -- -- -- -- --  -- -- -- -- -- -- -- --
0000:                                               94                 .
0010: 01 F8 FF FF 7F 00                                 ......          
```

#### Opcodes

```
  0: 0x000F [0x94] EventEntity->Render.Flags3 ^= 0x01
  1: 0x0015 [0x00] END_REQSTACK()
```

### Event 65535.4

#### Metadata

| Field        | Value   |
|--------------|---------|
| Entrypoint   | 0x0016  |
| Data Size    | 7 bytes |
| Instructions | 2       |

```
      00 01 02 03 04 05 06 07  08 09 0A 0B 0C 0D 0E 0F
      -- -- -- -- -- -- -- --  -- -- -- -- -- -- -- --
0010:                   94 01  F8 FF FF 7F 00                 .......   
```

#### Opcodes

```
  0: 0x0016 [0x94] EventEntity->Render.Flags3 ^= 0x01
  1: 0x001C [0x00] END_REQSTACK()
```

### Event 65535.5

#### Metadata

| Field        | Value   |
|--------------|---------|
| Entrypoint   | 0x001D  |
| Data Size    | 7 bytes |
| Instructions | 2       |

```
      00 01 02 03 04 05 06 07  08 09 0A 0B 0C 0D 0E 0F
      -- -- -- -- -- -- -- --  -- -- -- -- -- -- -- --
0010:                                         94 01 F8               ...
0020: FF FF 7F 00                                       ....            
```

#### Opcodes

```
  0: 0x001D [0x94] EventEntity->Render.Flags3 ^= 0x01
  1: 0x0023 [0x00] END_REQSTACK()
```

### Event 65535.6

#### Metadata

| Field        | Value   |
|--------------|---------|
| Entrypoint   | 0x0024  |
| Data Size    | 7 bytes |
| Instructions | 2       |

```
      00 01 02 03 04 05 06 07  08 09 0A 0B 0C 0D 0E 0F
      -- -- -- -- -- -- -- --  -- -- -- -- -- -- -- --
0020:             94 01 F8 FF  FF 7F 00                     .......     
```

#### Opcodes

```
  0: 0x0024 [0x94] EventEntity->Render.Flags3 ^= 0x01
  1: 0x002A [0x00] END_REQSTACK()
```

### Event 65535.7

#### Metadata

| Field        | Value   |
|--------------|---------|
| Entrypoint   | 0x002B  |
| Data Size    | 7 bytes |
| Instructions | 2       |

```
      00 01 02 03 04 05 06 07  08 09 0A 0B 0C 0D 0E 0F
      -- -- -- -- -- -- -- --  -- -- -- -- -- -- -- --
0020:                                   94 01 F8 FF FF             .....
0030: 7F 00                                             ..              
```

#### Opcodes

```
  0: 0x002B [0x94] EventEntity->Render.Flags3 ^= 0x01
  1: 0x0031 [0x00] END_REQSTACK()
```

### Event 65535.8

#### Metadata

| Field        | Value   |
|--------------|---------|
| Entrypoint   | 0x0032  |
| Data Size    | 7 bytes |
| Instructions | 2       |

```
      00 01 02 03 04 05 06 07  08 09 0A 0B 0C 0D 0E 0F
      -- -- -- -- -- -- -- --  -- -- -- -- -- -- -- --
0030:       94 01 F8 FF FF 7F  00                         .......       
```

#### Opcodes

```
  0: 0x0032 [0x94] EventEntity->Render.Flags3 ^= 0x01
  1: 0x0038 [0x00] END_REQSTACK()
```

### Event 65535.9

#### Metadata

| Field        | Value   |
|--------------|---------|
| Entrypoint   | 0x0039  |
| Data Size    | 7 bytes |
| Instructions | 2       |

```
      00 01 02 03 04 05 06 07  08 09 0A 0B 0C 0D 0E 0F
      -- -- -- -- -- -- -- --  -- -- -- -- -- -- -- --
0030:                             94 01 F8 FF FF 7F 00           .......
```

#### Opcodes

```
  0: 0x0039 [0x94] EventEntity->Render.Flags3 ^= 0x01
  1: 0x003F [0x00] END_REQSTACK()
```

### Event 65535.10

#### Metadata

| Field        | Value   |
|--------------|---------|
| Entrypoint   | 0x0040  |
| Data Size    | 7 bytes |
| Instructions | 2       |

```
      00 01 02 03 04 05 06 07  08 09 0A 0B 0C 0D 0E 0F
      -- -- -- -- -- -- -- --  -- -- -- -- -- -- -- --
0040: 94 01 F8 FF FF 7F 00                              .......         
```

#### Opcodes

```
  0: 0x0040 [0x94] EventEntity->Render.Flags3 ^= 0x01
  1: 0x0046 [0x00] END_REQSTACK()
```

### Event 65535.11

#### Metadata

| Field        | Value    |
|--------------|----------|
| Entrypoint   | 0x0047   |
| Data Size    | 20 bytes |
| Instructions | 5        |

```
      00 01 02 03 04 05 06 07  08 09 0A 0B 0C 0D 0E 0F
      -- -- -- -- -- -- -- --  -- -- -- -- -- -- -- --
0040:                      22  00 33 01 37 00 80 01 80         ".3.7....
0050: 02 80 03 80 94 01 F8 FF  FF 7F 00                 ...........     
```

#### Opcodes

```
  0: 0x0047 [0x22] ENTITY_HIDE_FLAG(enabled=0x00)
  1: 0x0049 [0x33] EventEntity->Render.Flags0 |= 0x200000 // Bit 21 (flag=0x01)
  2: 0x004B [0x37] UPDATE_EVENT_POSITION_AND_DIR: x=27.666*, z=-125.041*, y=0.000*, direction=234.1°*
  3: 0x0054 [0x94] EventEntity->Render.Flags3 ^= 0x01
  4: 0x005A [0x00] END_REQSTACK()
```

### Event 65535.12

#### Metadata

| Field        | Value    |
|--------------|----------|
| Entrypoint   | 0x005B   |
| Data Size    | 20 bytes |
| Instructions | 5        |

```
      00 01 02 03 04 05 06 07  08 09 0A 0B 0C 0D 0E 0F
      -- -- -- -- -- -- -- --  -- -- -- -- -- -- -- --
0050:                                   22 00 33 01 37             ".3.7
0060: 04 80 05 80 06 80 03 80  94 01 F8 FF FF 7F 00     ............... 
```

#### Opcodes

```
  0: 0x005B [0x22] ENTITY_HIDE_FLAG(enabled=0x00)
  1: 0x005D [0x33] EventEntity->Render.Flags0 |= 0x200000 // Bit 21 (flag=0x01)
  2: 0x005F [0x37] UPDATE_EVENT_POSITION_AND_DIR: x=29.647*, z=-127.894*, y=-2.000*, direction=234.1°*
  3: 0x0068 [0x94] EventEntity->Render.Flags3 ^= 0x01
  4: 0x006E [0x00] END_REQSTACK()
```

### Event 65535.13

#### Metadata

| Field        | Value    |
|--------------|----------|
| Entrypoint   | 0x006F   |
| Data Size    | 20 bytes |
| Instructions | 5        |

```
      00 01 02 03 04 05 06 07  08 09 0A 0B 0C 0D 0E 0F
      -- -- -- -- -- -- -- --  -- -- -- -- -- -- -- --
0060:                                               22                 "
0070: 00 33 01 37 07 80 08 80  02 80 09 80 94 01 F8 FF  .3.7............
0080: FF 7F 00                                          ...             
```

#### Opcodes

```
  0: 0x006F [0x22] ENTITY_HIDE_FLAG(enabled=0x00)
  1: 0x0071 [0x33] EventEntity->Render.Flags0 |= 0x200000 // Bit 21 (flag=0x01)
  2: 0x0073 [0x37] UPDATE_EVENT_POSITION_AND_DIR: x=27.269*, z=-123.397*, y=0.000*, direction=103.2°*
  3: 0x007C [0x94] EventEntity->Render.Flags3 ^= 0x01
  4: 0x0082 [0x00] END_REQSTACK()
```

### Event 65535.14

#### Metadata

| Field        | Value    |
|--------------|----------|
| Entrypoint   | 0x0083   |
| Data Size    | 18 bytes |
| Instructions | 4        |

```
      00 01 02 03 04 05 06 07  08 09 0A 0B 0C 0D 0E 0F
      -- -- -- -- -- -- -- --  -- -- -- -- -- -- -- --
0080:          22 00 37 0A 80  0B 80 0C 80 0D 80 94 01     ".7..........
0090: F8 FF FF 7F 00                                    .....           
```

#### Opcodes

```
  0: 0x0083 [0x22] ENTITY_HIDE_FLAG(enabled=0x00)
  1: 0x0085 [0x37] UPDATE_EVENT_POSITION_AND_DIR: x=26.824*, z=-136.666*, y=8.000*, direction=305.1°*
  2: 0x008E [0x94] EventEntity->Render.Flags3 ^= 0x01
  3: 0x0094 [0x00] END_REQSTACK()
```

### Event 65535.15

#### Metadata

| Field        | Value    |
|--------------|----------|
| Entrypoint   | 0x0095   |
| Data Size    | 14 bytes |
| Instructions | 4        |

```
      00 01 02 03 04 05 06 07  08 09 0A 0B 0C 0D 0E 0F
      -- -- -- -- -- -- -- --  -- -- -- -- -- -- -- --
0090:                22 00 33  01 37 0E 80 0F 80 10 80       ".3.7......
00A0: 11 80 00                                          ...             
```

#### Opcodes

```
  0: 0x0095 [0x22] ENTITY_HIDE_FLAG(enabled=0x00)
  1: 0x0097 [0x33] EventEntity->Render.Flags0 |= 0x200000 // Bit 21 (flag=0x01)
  2: 0x0099 [0x37] UPDATE_EVENT_POSITION_AND_DIR: x=79.969*, z=41.955*, y=-2.591*, direction=269.6°*
  3: 0x00A2 [0x00] END_REQSTACK()
```

### Event 65535.16

#### Metadata

| Field        | Value    |
|--------------|----------|
| Entrypoint   | 0x00A3   |
| Data Size    | 20 bytes |
| Instructions | 5        |

```
      00 01 02 03 04 05 06 07  08 09 0A 0B 0C 0D 0E 0F
      -- -- -- -- -- -- -- --  -- -- -- -- -- -- -- --
00A0:          22 00 33 01 37  12 80 13 80 14 80 15 80     ".3.7........
00B0: 94 01 F8 FF FF 7F 00                              .......         
```

#### Opcodes

```
  0: 0x00A3 [0x22] ENTITY_HIDE_FLAG(enabled=0x00)
  1: 0x00A5 [0x33] EventEntity->Render.Flags0 |= 0x200000 // Bit 21 (flag=0x01)
  2: 0x00A7 [0x37] UPDATE_EVENT_POSITION_AND_DIR: x=92.875*, z=-126.707*, y=-6.500*, direction=50.4°*
  3: 0x00B0 [0x94] EventEntity->Render.Flags3 ^= 0x01
  4: 0x00B6 [0x00] END_REQSTACK()
```

### Event 65535.17

#### Metadata

| Field        | Value    |
|--------------|----------|
| Entrypoint   | 0x00B7   |
| Data Size    | 20 bytes |
| Instructions | 5        |

```
      00 01 02 03 04 05 06 07  08 09 0A 0B 0C 0D 0E 0F
      -- -- -- -- -- -- -- --  -- -- -- -- -- -- -- --
00B0:                      22  00 33 01 37 16 80 17 80         ".3.7....
00C0: 02 80 18 80 94 01 F8 FF  FF 7F 00                 ...........     
```

#### Opcodes

```
  0: 0x00B7 [0x22] ENTITY_HIDE_FLAG(enabled=0x00)
  1: 0x00B9 [0x33] EventEntity->Render.Flags0 |= 0x200000 // Bit 21 (flag=0x01)
  2: 0x00BB [0x37] UPDATE_EVENT_POSITION_AND_DIR: x=0.377*, z=-11.729*, y=0.000*, direction=334.9°*
  3: 0x00C4 [0x94] EventEntity->Render.Flags3 ^= 0x01
  4: 0x00CA [0x00] END_REQSTACK()
```

### Event 65535.18

#### Metadata

| Field        | Value    |
|--------------|----------|
| Entrypoint   | 0x00CB   |
| Data Size    | 20 bytes |
| Instructions | 5        |

```
      00 01 02 03 04 05 06 07  08 09 0A 0B 0C 0D 0E 0F
      -- -- -- -- -- -- -- --  -- -- -- -- -- -- -- --
00C0:                                   22 00 33 01 37             ".3.7
00D0: 19 80 1A 80 1B 80 1C 80  94 01 F8 FF FF 7F 00     ............... 
```

#### Opcodes

```
  0: 0x00CB [0x22] ENTITY_HIDE_FLAG(enabled=0x00)
  1: 0x00CD [0x33] EventEntity->Render.Flags0 |= 0x200000 // Bit 21 (flag=0x01)
  2: 0x00CF [0x37] UPDATE_EVENT_POSITION_AND_DIR: x=-0.703*, z=-9.646*, y=-0.398*, direction=256.7°*
  3: 0x00D8 [0x94] EventEntity->Render.Flags3 ^= 0x01
  4: 0x00DE [0x00] END_REQSTACK()
```

### Event 65535.19

#### Metadata

| Field        | Value    |
|--------------|----------|
| Entrypoint   | 0x00DF   |
| Data Size    | 20 bytes |
| Instructions | 5        |

```
      00 01 02 03 04 05 06 07  08 09 0A 0B 0C 0D 0E 0F
      -- -- -- -- -- -- -- --  -- -- -- -- -- -- -- --
00D0:                                               22                 "
00E0: 00 33 01 37 1D 80 1E 80  02 80 1F 80 94 01 F8 FF  .3.7............
00F0: FF 7F 00                                          ...             
```

#### Opcodes

```
  0: 0x00DF [0x22] ENTITY_HIDE_FLAG(enabled=0x00)
  1: 0x00E1 [0x33] EventEntity->Render.Flags0 |= 0x200000 // Bit 21 (flag=0x01)
  2: 0x00E3 [0x37] UPDATE_EVENT_POSITION_AND_DIR: x=5.473*, z=-11.770*, y=0.000*, direction=45.3°*
  3: 0x00EC [0x94] EventEntity->Render.Flags3 ^= 0x01
  4: 0x00F2 [0x00] END_REQSTACK()
```

### Event 65535.20

#### Metadata

| Field        | Value    |
|--------------|----------|
| Entrypoint   | 0x00F3   |
| Data Size    | 20 bytes |
| Instructions | 5        |

```
      00 01 02 03 04 05 06 07  08 09 0A 0B 0C 0D 0E 0F
      -- -- -- -- -- -- -- --  -- -- -- -- -- -- -- --
00F0:          22 00 33 01 37  20 80 21 80 02 80 22 80     ".3.7 .!...".
0100: 94 01 F8 FF FF 7F 00                              .......         
```

#### Opcodes

```
  0: 0x00F3 [0x22] ENTITY_HIDE_FLAG(enabled=0x00)
  1: 0x00F5 [0x33] EventEntity->Render.Flags0 |= 0x200000 // Bit 21 (flag=0x01)
  2: 0x00F7 [0x37] UPDATE_EVENT_POSITION_AND_DIR: x=4.341*, z=-12.090*, y=0.000*, direction=210.9°*
  3: 0x0100 [0x94] EventEntity->Render.Flags3 ^= 0x01
  4: 0x0106 [0x00] END_REQSTACK()
```

### Event 65535.21

#### Metadata

| Field        | Value    |
|--------------|----------|
| Entrypoint   | 0x0107   |
| Data Size    | 20 bytes |
| Instructions | 5        |

```
      00 01 02 03 04 05 06 07  08 09 0A 0B 0C 0D 0E 0F
      -- -- -- -- -- -- -- --  -- -- -- -- -- -- -- --
0100:                      22  00 33 01 37 23 80 24 80         ".3.7#.$.
0110: 25 80 26 80 94 01 F8 FF  FF 7F 00                 %.&........     
```

#### Opcodes

```
  0: 0x0107 [0x22] ENTITY_HIDE_FLAG(enabled=0x00)
  1: 0x0109 [0x33] EventEntity->Render.Flags0 |= 0x200000 // Bit 21 (flag=0x01)
  2: 0x010B [0x37] UPDATE_EVENT_POSITION_AND_DIR: x=-91.419*, z=126.141*, y=-6.000*, direction=224.4°*
  3: 0x0114 [0x94] EventEntity->Render.Flags3 ^= 0x01
  4: 0x011A [0x00] END_REQSTACK()
```

### Event 65535.22

#### Metadata

| Field        | Value    |
|--------------|----------|
| Entrypoint   | 0x011B   |
| Data Size    | 20 bytes |
| Instructions | 5        |

```
      00 01 02 03 04 05 06 07  08 09 0A 0B 0C 0D 0E 0F
      -- -- -- -- -- -- -- --  -- -- -- -- -- -- -- --
0110:                                   22 00 33 01 37             ".3.7
0120: 27 80 28 80 29 80 2A 80  94 01 F8 FF FF 7F 00     '.(.).*........ 
```

#### Opcodes

```
  0: 0x011B [0x22] ENTITY_HIDE_FLAG(enabled=0x00)
  1: 0x011D [0x33] EventEntity->Render.Flags0 |= 0x200000 // Bit 21 (flag=0x01)
  2: 0x011F [0x37] UPDATE_EVENT_POSITION_AND_DIR: x=-92.383*, z=127.356*, y=-7.021*, direction=181.3°*
  3: 0x0128 [0x94] EventEntity->Render.Flags3 ^= 0x01
  4: 0x012E [0x00] END_REQSTACK()
```

### Event 65535.23

#### Metadata

| Field        | Value    |
|--------------|----------|
| Entrypoint   | 0x012F   |
| Data Size    | 20 bytes |
| Instructions | 5        |

```
      00 01 02 03 04 05 06 07  08 09 0A 0B 0C 0D 0E 0F
      -- -- -- -- -- -- -- --  -- -- -- -- -- -- -- --
0120:                                               22                 "
0130: 00 33 01 37 2B 80 2C 80  2D 80 2E 80 94 01 F8 FF  .3.7+.,.-.......
0140: FF 7F 00                                          ...             
```

#### Opcodes

```
  0: 0x012F [0x22] ENTITY_HIDE_FLAG(enabled=0x00)
  1: 0x0131 [0x33] EventEntity->Render.Flags0 |= 0x200000 // Bit 21 (flag=0x01)
  2: 0x0133 [0x37] UPDATE_EVENT_POSITION_AND_DIR: x=-76.960*, z=139.043*, y=-6.907*, direction=276.1°*
  3: 0x013C [0x94] EventEntity->Render.Flags3 ^= 0x01
  4: 0x0142 [0x00] END_REQSTACK()
```

### Event 65535.24

#### Metadata

| Field        | Value    |
|--------------|----------|
| Entrypoint   | 0x0143   |
| Data Size    | 20 bytes |
| Instructions | 5        |

```
      00 01 02 03 04 05 06 07  08 09 0A 0B 0C 0D 0E 0F
      -- -- -- -- -- -- -- --  -- -- -- -- -- -- -- --
0140:          22 00 33 01 37  2F 80 30 80 25 80 31 80     ".3.7/.0.%.1.
0150: 94 01 F8 FF FF 7F 00                              .......         
```

#### Opcodes

```
  0: 0x0143 [0x22] ENTITY_HIDE_FLAG(enabled=0x00)
  1: 0x0145 [0x33] EventEntity->Render.Flags0 |= 0x200000 // Bit 21 (flag=0x01)
  2: 0x0147 [0x37] UPDATE_EVENT_POSITION_AND_DIR: x=-89.287*, z=126.316*, y=-6.000*, direction=41.5°*
  3: 0x0150 [0x94] EventEntity->Render.Flags3 ^= 0x01
  4: 0x0156 [0x00] END_REQSTACK()
```

### Event 65535.25

#### Metadata

| Field        | Value    |
|--------------|----------|
| Entrypoint   | 0x0157   |
| Data Size    | 20 bytes |
| Instructions | 5        |

```
      00 01 02 03 04 05 06 07  08 09 0A 0B 0C 0D 0E 0F
      -- -- -- -- -- -- -- --  -- -- -- -- -- -- -- --
0150:                      22  00 33 01 37 32 80 33 80         ".3.72.3.
0160: 25 80 34 80 94 01 F8 FF  FF 7F 00                 %.4........     
```

#### Opcodes

```
  0: 0x0157 [0x22] ENTITY_HIDE_FLAG(enabled=0x00)
  1: 0x0159 [0x33] EventEntity->Render.Flags0 |= 0x200000 // Bit 21 (flag=0x01)
  2: 0x015B [0x37] UPDATE_EVENT_POSITION_AND_DIR: x=-90.555*, z=124.668*, y=-6.000*, direction=136.6°*
  3: 0x0164 [0x94] EventEntity->Render.Flags3 ^= 0x01
  4: 0x016A [0x00] END_REQSTACK()
```

### Event 65535.26

#### Metadata

| Field        | Value    |
|--------------|----------|
| Entrypoint   | 0x016B   |
| Data Size    | 20 bytes |
| Instructions | 5        |

```
      00 01 02 03 04 05 06 07  08 09 0A 0B 0C 0D 0E 0F
      -- -- -- -- -- -- -- --  -- -- -- -- -- -- -- --
0160:                                   22 00 33 01 37             ".3.7
0170: 35 80 36 80 25 80 37 80  94 01 F8 FF FF 7F 00     5.6.%.7........ 
```

#### Opcodes

```
  0: 0x016B [0x22] ENTITY_HIDE_FLAG(enabled=0x00)
  1: 0x016D [0x33] EventEntity->Render.Flags0 |= 0x200000 // Bit 21 (flag=0x01)
  2: 0x016F [0x37] UPDATE_EVENT_POSITION_AND_DIR: x=-87.702*, z=125.162*, y=-6.000*, direction=60.6°*
  3: 0x0178 [0x94] EventEntity->Render.Flags3 ^= 0x01
  4: 0x017E [0x00] END_REQSTACK()
```

### Event 65535.27

#### Metadata

| Field        | Value    |
|--------------|----------|
| Entrypoint   | 0x017F   |
| Data Size    | 20 bytes |
| Instructions | 5        |

```
      00 01 02 03 04 05 06 07  08 09 0A 0B 0C 0D 0E 0F
      -- -- -- -- -- -- -- --  -- -- -- -- -- -- -- --
0170:                                               22                 "
0180: 00 33 01 37 38 80 39 80  3A 80 3B 80 94 01 F8 FF  .3.78.9.:.;.....
0190: FF 7F 00                                          ...             
```

#### Opcodes

```
  0: 0x017F [0x22] ENTITY_HIDE_FLAG(enabled=0x00)
  1: 0x0181 [0x33] EventEntity->Render.Flags0 |= 0x200000 // Bit 21 (flag=0x01)
  2: 0x0183 [0x37] UPDATE_EVENT_POSITION_AND_DIR: x=92.045*, z=-128.236*, y=-6.499*, direction=4.5°*
  3: 0x018C [0x94] EventEntity->Render.Flags3 ^= 0x01
  4: 0x0192 [0x00] END_REQSTACK()
```

### Event 65535.28

#### Metadata

| Field        | Value    |
|--------------|----------|
| Entrypoint   | 0x0193   |
| Data Size    | 20 bytes |
| Instructions | 5        |

```
      00 01 02 03 04 05 06 07  08 09 0A 0B 0C 0D 0E 0F
      -- -- -- -- -- -- -- --  -- -- -- -- -- -- -- --
0190:          22 00 33 01 37  3C 80 3D 80 14 80 3E 80     ".3.7<.=...>.
01A0: 94 01 F8 FF FF 7F 00                              .......         
```

#### Opcodes

```
  0: 0x0193 [0x22] ENTITY_HIDE_FLAG(enabled=0x00)
  1: 0x0195 [0x33] EventEntity->Render.Flags0 |= 0x200000 // Bit 21 (flag=0x01)
  2: 0x0197 [0x37] UPDATE_EVENT_POSITION_AND_DIR: x=91.261*, z=-129.227*, y=-6.500*, direction=347.2°*
  3: 0x01A0 [0x94] EventEntity->Render.Flags3 ^= 0x01
  4: 0x01A6 [0x00] END_REQSTACK()
```

### Event 65535.29

#### Metadata

| Field        | Value   |
|--------------|---------|
| Entrypoint   | 0x01A7  |
| Data Size    | 1 bytes |
| Instructions | 1       |

```
      00 01 02 03 04 05 06 07  08 09 0A 0B 0C 0D 0E 0F
      -- -- -- -- -- -- -- --  -- -- -- -- -- -- -- --
01A0:                      00                                  .        
```

#### Opcodes

```
  0: 0x01A7 [0x00] END_REQSTACK()
```

### Event 65535.30

#### Metadata

| Field        | Value   |
|--------------|---------|
| Entrypoint   | 0x01A8  |
| Data Size    | 1 bytes |
| Instructions | 1       |

```
      00 01 02 03 04 05 06 07  08 09 0A 0B 0C 0D 0E 0F
      -- -- -- -- -- -- -- --  -- -- -- -- -- -- -- --
01A0:                          00                               .       
```

#### Opcodes

```
  0: 0x01A8 [0x00] END_REQSTACK()
```

### Event 65535.31

#### Metadata

| Field        | Value   |
|--------------|---------|
| Entrypoint   | 0x01A9  |
| Data Size    | 1 bytes |
| Instructions | 1       |

```
      00 01 02 03 04 05 06 07  08 09 0A 0B 0C 0D 0E 0F
      -- -- -- -- -- -- -- --  -- -- -- -- -- -- -- --
01A0:                             00                             .      
```

#### Opcodes

```
  0: 0x01A9 [0x00] END_REQSTACK()
```

### Event 65535.32

#### Metadata

| Field        | Value   |
|--------------|---------|
| Entrypoint   | 0x01AA  |
| Data Size    | 1 bytes |
| Instructions | 1       |

```
      00 01 02 03 04 05 06 07  08 09 0A 0B 0C 0D 0E 0F
      -- -- -- -- -- -- -- --  -- -- -- -- -- -- -- --
01A0:                                00                           .     
```

#### Opcodes

```
  0: 0x01AA [0x00] END_REQSTACK()
```

### Event 65535.33

#### Metadata

| Field        | Value   |
|--------------|---------|
| Entrypoint   | 0x01AB  |
| Data Size    | 1 bytes |
| Instructions | 1       |

```
      00 01 02 03 04 05 06 07  08 09 0A 0B 0C 0D 0E 0F
      -- -- -- -- -- -- -- --  -- -- -- -- -- -- -- --
01A0:                                   00                         .    
```

#### Opcodes

```
  0: 0x01AB [0x00] END_REQSTACK()
```

### Event 65535.34

#### Metadata

| Field        | Value   |
|--------------|---------|
| Entrypoint   | 0x01AC  |
| Data Size    | 1 bytes |
| Instructions | 1       |

```
      00 01 02 03 04 05 06 07  08 09 0A 0B 0C 0D 0E 0F
      -- -- -- -- -- -- -- --  -- -- -- -- -- -- -- --
01A0:                                      00                       .   
```

#### Opcodes

```
  0: 0x01AC [0x00] END_REQSTACK()
```

### Event 65535.35

#### Metadata

| Field        | Value   |
|--------------|---------|
| Entrypoint   | 0x01AD  |
| Data Size    | 1 bytes |
| Instructions | 1       |

```
      00 01 02 03 04 05 06 07  08 09 0A 0B 0C 0D 0E 0F
      -- -- -- -- -- -- -- --  -- -- -- -- -- -- -- --
01A0:                                         00                     .  
```

#### Opcodes

```
  0: 0x01AD [0x00] END_REQSTACK()
```

### Event 65535.36

#### Metadata

| Field        | Value    |
|--------------|----------|
| Entrypoint   | 0x01AE   |
| Data Size    | 20 bytes |
| Instructions | 5        |

```
      00 01 02 03 04 05 06 07  08 09 0A 0B 0C 0D 0E 0F
      -- -- -- -- -- -- -- --  -- -- -- -- -- -- -- --
01A0:                                            37 3F                7?
01B0: 80 40 80 02 80 41 80 22  00 33 01 94 01 F8 FF FF  .@...A.".3......
01C0: 7F 00                                             ..              
```

#### Opcodes

```
  0: 0x01AE [0x37] UPDATE_EVENT_POSITION_AND_DIR: x=-59.559*, z=63.139*, y=0.000*, direction=236.1°*
  1: 0x01B7 [0x22] ENTITY_HIDE_FLAG(enabled=0x00)
  2: 0x01B9 [0x33] EventEntity->Render.Flags0 |= 0x200000 // Bit 21 (flag=0x01)
  3: 0x01BB [0x94] EventEntity->Render.Flags3 ^= 0x01
  4: 0x01C1 [0x00] END_REQSTACK()
```

### Event 65535.37

#### Metadata

| Field        | Value    |
|--------------|----------|
| Entrypoint   | 0x01C2   |
| Data Size    | 18 bytes |
| Instructions | 4        |

```
      00 01 02 03 04 05 06 07  08 09 0A 0B 0C 0D 0E 0F
      -- -- -- -- -- -- -- --  -- -- -- -- -- -- -- --
01C0:       37 42 80 43 80 44  80 45 80 22 00 94 01 F8    7B.C.D.E."....
01D0: FF FF 7F 00                                       ....            
```

#### Opcodes

```
  0: 0x01C2 [0x37] UPDATE_EVENT_POSITION_AND_DIR: x=26.778*, z=-130.069*, y=3.362*, direction=104.9°*
  1: 0x01CB [0x22] ENTITY_HIDE_FLAG(enabled=0x00)
  2: 0x01CD [0x94] EventEntity->Render.Flags3 ^= 0x01
  3: 0x01D3 [0x00] END_REQSTACK()
```

### Event 65535.38

#### Metadata

| Field        | Value    |
|--------------|----------|
| Entrypoint   | 0x01D4   |
| Data Size    | 18 bytes |
| Instructions | 4        |

```
      00 01 02 03 04 05 06 07  08 09 0A 0B 0C 0D 0E 0F
      -- -- -- -- -- -- -- --  -- -- -- -- -- -- -- --
01D0:             37 46 80 47  80 48 80 49 80 33 01 94      7F.G.H.I.3..
01E0: 01 F8 FF FF 7F 00                                 ......          
```

#### Opcodes

```
  0: 0x01D4 [0x37] UPDATE_EVENT_POSITION_AND_DIR: x=-94.580*, z=-92.597*, y=-4.999*, direction=342.8°*
  1: 0x01DD [0x33] EventEntity->Render.Flags0 |= 0x200000 // Bit 21 (flag=0x01)
  2: 0x01DF [0x94] EventEntity->Render.Flags3 ^= 0x01
  3: 0x01E5 [0x00] END_REQSTACK()
```

### Event 65535.39

#### Metadata

| Field        | Value    |
|--------------|----------|
| Entrypoint   | 0x01E6   |
| Data Size    | 18 bytes |
| Instructions | 4        |

```
      00 01 02 03 04 05 06 07  08 09 0A 0B 0C 0D 0E 0F
      -- -- -- -- -- -- -- --  -- -- -- -- -- -- -- --
01E0:                   37 4A  80 4B 80 44 80 4C 80 33        7J.K.D.L.3
01F0: 01 94 01 F8 FF FF 7F 00                           ........        
```

#### Opcodes

```
  0: 0x01E6 [0x37] UPDATE_EVENT_POSITION_AND_DIR: x=18.062*, z=-119.215*, y=3.362*, direction=23.9°*
  1: 0x01EF [0x33] EventEntity->Render.Flags0 |= 0x200000 // Bit 21 (flag=0x01)
  2: 0x01F1 [0x94] EventEntity->Render.Flags3 ^= 0x01
  3: 0x01F7 [0x00] END_REQSTACK()
```

### Event 65535.40

#### Metadata

| Field        | Value    |
|--------------|----------|
| Entrypoint   | 0x01F8   |
| Data Size    | 18 bytes |
| Instructions | 4        |

```
      00 01 02 03 04 05 06 07  08 09 0A 0B 0C 0D 0E 0F
      -- -- -- -- -- -- -- --  -- -- -- -- -- -- -- --
01F0:                          37 4D 80 4E 80 4F 80 50          7M.N.O.P
0200: 80 33 01 94 01 F8 FF FF  7F 00                    .3........      
```

#### Opcodes

```
  0: 0x01F8 [0x37] UPDATE_EVENT_POSITION_AND_DIR: x=-94.683*, z=-93.552*, y=-5.007*, direction=127.5°*
  1: 0x0201 [0x33] EventEntity->Render.Flags0 |= 0x200000 // Bit 21 (flag=0x01)
  2: 0x0203 [0x94] EventEntity->Render.Flags3 ^= 0x01
  3: 0x0209 [0x00] END_REQSTACK()
```

### Event 65535.41

#### Metadata

| Field        | Value    |
|--------------|----------|
| Entrypoint   | 0x020A   |
| Data Size    | 20 bytes |
| Instructions | 5        |

```
      00 01 02 03 04 05 06 07  08 09 0A 0B 0C 0D 0E 0F
      -- -- -- -- -- -- -- --  -- -- -- -- -- -- -- --
0200:                                37 51 80 52 80 02            7Q.R..
0210: 80 53 80 33 01 22 00 94  01 F8 FF FF 7F 00        .S.3."........  
```

#### Opcodes

```
  0: 0x020A [0x37] UPDATE_EVENT_POSITION_AND_DIR: x=-60.000*, z=66.889*, y=0.000*, direction=94.1°*
  1: 0x0213 [0x33] EventEntity->Render.Flags0 |= 0x200000 // Bit 21 (flag=0x01)
  2: 0x0215 [0x22] ENTITY_HIDE_FLAG(enabled=0x00)
  3: 0x0217 [0x94] EventEntity->Render.Flags3 ^= 0x01
  4: 0x021D [0x00] END_REQSTACK()
```

### Event 65535.42

#### Metadata

| Field        | Value    |
|--------------|----------|
| Entrypoint   | 0x021E   |
| Data Size    | 20 bytes |
| Instructions | 5        |

```
      00 01 02 03 04 05 06 07  08 09 0A 0B 0C 0D 0E 0F
      -- -- -- -- -- -- -- --  -- -- -- -- -- -- -- --
0210:                                            37 54                7T
0220: 80 55 80 02 80 56 80 33  01 22 00 94 01 F8 FF FF  .U...V.3."......
0230: 7F 00                                             ..              
```

#### Opcodes

```
  0: 0x021E [0x37] UPDATE_EVENT_POSITION_AND_DIR: x=-104.082*, z=21.035*, y=0.000*, direction=277.5°*
  1: 0x0227 [0x33] EventEntity->Render.Flags0 |= 0x200000 // Bit 21 (flag=0x01)
  2: 0x0229 [0x22] ENTITY_HIDE_FLAG(enabled=0x00)
  3: 0x022B [0x94] EventEntity->Render.Flags3 ^= 0x01
  4: 0x0231 [0x00] END_REQSTACK()
```

### Event 65535.43

#### Metadata

| Field        | Value    |
|--------------|----------|
| Entrypoint   | 0x0232   |
| Data Size    | 20 bytes |
| Instructions | 5        |

```
      00 01 02 03 04 05 06 07  08 09 0A 0B 0C 0D 0E 0F
      -- -- -- -- -- -- -- --  -- -- -- -- -- -- -- --
0230:       37 57 80 58 80 02  80 59 80 33 01 22 00 94    7W.X...Y.3."..
0240: 01 F8 FF FF 7F 00                                 ......          
```

#### Opcodes

```
  0: 0x0232 [0x37] UPDATE_EVENT_POSITION_AND_DIR: x=-104.162*, z=19.588*, y=0.000*, direction=87.9°*
  1: 0x023B [0x33] EventEntity->Render.Flags0 |= 0x200000 // Bit 21 (flag=0x01)
  2: 0x023D [0x22] ENTITY_HIDE_FLAG(enabled=0x00)
  3: 0x023F [0x94] EventEntity->Render.Flags3 ^= 0x01
  4: 0x0245 [0x00] END_REQSTACK()
```

### Event 65535.44

#### Metadata

| Field        | Value    |
|--------------|----------|
| Entrypoint   | 0x0246   |
| Data Size    | 20 bytes |
| Instructions | 5        |

```
      00 01 02 03 04 05 06 07  08 09 0A 0B 0C 0D 0E 0F
      -- -- -- -- -- -- -- --  -- -- -- -- -- -- -- --
0240:                   37 5A  80 5B 80 02 80 5C 80 33        7Z.[...\.3
0250: 01 22 00 94 01 F8 FF FF  7F 00                    ."........      
```

#### Opcodes

```
  0: 0x0246 [0x37] UPDATE_EVENT_POSITION_AND_DIR: x=-107.339*, z=15.494*, y=0.000*, direction=321.3°*
  1: 0x024F [0x33] EventEntity->Render.Flags0 |= 0x200000 // Bit 21 (flag=0x01)
  2: 0x0251 [0x22] ENTITY_HIDE_FLAG(enabled=0x00)
  3: 0x0253 [0x94] EventEntity->Render.Flags3 ^= 0x01
  4: 0x0259 [0x00] END_REQSTACK()
```

### Event 65535.45

#### Metadata

| Field        | Value    |
|--------------|----------|
| Entrypoint   | 0x025A   |
| Data Size    | 20 bytes |
| Instructions | 5        |

```
      00 01 02 03 04 05 06 07  08 09 0A 0B 0C 0D 0E 0F
      -- -- -- -- -- -- -- --  -- -- -- -- -- -- -- --
0250:                                37 5D 80 5E 80 02            7].^..
0260: 80 5F 80 33 01 22 00 94  01 F8 FF FF 7F 00        ._.3."........  
```

#### Opcodes

```
  0: 0x025A [0x37] UPDATE_EVENT_POSITION_AND_DIR: x=-61.114*, z=64.440*, y=0.000*, direction=34.2°*
  1: 0x0263 [0x33] EventEntity->Render.Flags0 |= 0x200000 // Bit 21 (flag=0x01)
  2: 0x0265 [0x22] ENTITY_HIDE_FLAG(enabled=0x00)
  3: 0x0267 [0x94] EventEntity->Render.Flags3 ^= 0x01
  4: 0x026D [0x00] END_REQSTACK()
```

### Event 65535.46

#### Metadata

| Field        | Value   |
|--------------|---------|
| Entrypoint   | 0x026E  |
| Data Size    | 3 bytes |
| Instructions | 2       |

```
      00 01 02 03 04 05 06 07  08 09 0A 0B 0C 0D 0E 0F
      -- -- -- -- -- -- -- --  -- -- -- -- -- -- -- --
0260:                                            22 01                ".
0270: 00                                                .               
```

#### Opcodes

```
  0: 0x026E [0x22] ENTITY_HIDE_FLAG(enabled=0x01)
  1: 0x0270 [0x00] END_REQSTACK()
```

### Event 3090

#### Metadata

| Field        | Value   |
|--------------|---------|
| Entrypoint   | 0x0271  |
| Data Size    | 1 bytes |
| Instructions | 1       |

```
      00 01 02 03 04 05 06 07  08 09 0A 0B 0C 0D 0E 0F
      -- -- -- -- -- -- -- --  -- -- -- -- -- -- -- --
0270:    00                                              .              
```

#### Opcodes

```
  0: 0x0271 [0x00] END_REQSTACK()
```

### Event 65535.47

#### Metadata

| Field        | Value    |
|--------------|----------|
| Entrypoint   | 0x0272   |
| Data Size    | 12 bytes |
| Instructions | 3        |

```
      00 01 02 03 04 05 06 07  08 09 0A 0B 0C 0D 0E 0F
      -- -- -- -- -- -- -- --  -- -- -- -- -- -- -- --
0270:       33 01 37 60 80 61  80 62 80 63 80 00          3.7`.a.b.c..  
```

#### Opcodes

```
  0: 0x0272 [0x33] EventEntity->Render.Flags0 |= 0x200000 // Bit 21 (flag=0x01)
  1: 0x0274 [0x37] UPDATE_EVENT_POSITION_AND_DIR: x=-0.706*, z=-72.047*, y=-1.000*, direction=160.5°*
  2: 0x027D [0x00] END_REQSTACK()
```

### Event 65535.48

#### Metadata

| Field        | Value    |
|--------------|----------|
| Entrypoint   | 0x027E   |
| Data Size    | 12 bytes |
| Instructions | 3        |

```
      00 01 02 03 04 05 06 07  08 09 0A 0B 0C 0D 0E 0F
      -- -- -- -- -- -- -- --  -- -- -- -- -- -- -- --
0270:                                            33 01                3.
0280: 37 64 80 65 80 62 80 66  80 00                    7d.e.b.f..      
```

#### Opcodes

```
  0: 0x027E [0x33] EventEntity->Render.Flags0 |= 0x200000 // Bit 21 (flag=0x01)
  1: 0x0280 [0x37] UPDATE_EVENT_POSITION_AND_DIR: x=-0.924*, z=-66.517*, y=-1.000*, direction=160.4°*
  2: 0x0289 [0x00] END_REQSTACK()
```
