# 16982291

## Common Data

| Field            | Value                          |
|------------------|--------------------------------|
| Zone             | Aht Urhgan Whitegate2 (ID: 50) |
| Block Size       | 52040 bytes                    |
| Total Events     | 22                             |
| References Count | 693                            |

## List of Events

| Event ID              | Entrypoint   |   Size |   Instructions |
|-----------------------|--------------|--------|----------------|
| [65535](#event-65535) | 0x0000       |      1 |              1 |
| [3000](#event-3000)   | 0x0001       |   1828 |            227 |
| [3002](#event-3002)   | 0x0725       |   2464 |            312 |
| [73](#event-73)       | 0x10C5       |    497 |             67 |
| [74](#event-74)       | 0x12B6       |   1929 |            236 |
| [75](#event-75)       | 0x1A3F       |   1166 |            157 |
| [3020](#event-3020)   | 0x1ECD       |   2762 |            339 |
| [3026](#event-3026)   | 0x2997       |   4039 |            495 |
| [3027](#event-3027)   | 0x395E       |   4819 |            611 |
| [3028](#event-3028)   | 0x4C31       |   2661 |            304 |
| [3030](#event-3030)   | 0x5696       |   3710 |            455 |
| [3033](#event-3033)   | 0x6514       |   5972 |            720 |
| [3034](#event-3034)   | 0x7C68       |   4738 |            604 |
| [5000](#event-5000)   | 0x8EEA       |   1699 |            203 |
| [5002](#event-5002)   | 0x958D       |    608 |             75 |
| [5020](#event-5020)   | 0x97ED       |   2020 |            293 |
| [5021](#event-5021)   | 0x9FD1       |   1220 |            162 |
| [5022](#event-5022)   | 0xA495       |    590 |             82 |
| [3035](#event-3035)   | 0xA6E3       |   1029 |            149 |
| [3022](#event-3022)   | 0xAAE8       |   2855 |            335 |
| [3024](#event-3024)   | 0xB60F       |    366 |             60 |
| [3032](#event-3032)   | 0xB77D       |   2188 |            290 |

## DAT References (imed_data)

|   Index | Hex Value   |   Dec Value |
|---------|-------------|-------------|
|       0 | 0x0013      |          19 |
|       1 | 0x0233      |         563 |
|       2 | 0x0342      |         834 |
|       3 | 0x0102      |         258 |
|       4 | 0x0000      |           0 |
|       5 | 0x000F      |          15 |
|       6 | 0x00B4      |         180 |
|       7 | 0x1B99      |        7065 |
|       8 | 0x1B9A      |        7066 |
|       9 | 0x001E      |          30 |
|      10 | 0x003C      |          60 |
|      11 | 0x00C8      |         200 |
|      12 | 0x1B9B      |        7067 |
|      13 | 0x1B9C      |        7068 |
|      14 | 0x1B9D      |        7069 |
|      15 | 0x1B9E      |        7070 |
|      16 | 0x1B9F      |        7071 |
|      17 | 0x002D      |          45 |
|      18 | 0x1BA2      |        7074 |
|      19 | 0x0001      |           1 |
|      20 | 0x1BA0      |        7072 |
|      21 | 0x0344      |         836 |
|      22 | 0x1BA1      |        7073 |
|      23 | 0x1BA3      |        7075 |
|      24 | 0x0007      |           7 |
|      25 | 0x0341      |         833 |
|      26 | 0x1BA4      |        7076 |
|      27 | 0x0006      |           6 |
|      28 | 0x0014      |          20 |
|      29 | 0x1BA5      |        7077 |
|      30 | 0x1BA6      |        7078 |
|      31 | 0x1BA7      |        7079 |
|      32 | 0x1BA8      |        7080 |
|      33 | 0x1BAA      |        7082 |
|      34 | 0x0343      |         835 |
|      35 | 0x0307      |         775 |
|      36 | 0x1BA9      |        7081 |
|      37 | 0x1BAB      |        7083 |
|      38 | 0x1BAC      |        7084 |
|      39 | 0x1BAD      |        7085 |
|      40 | 0x1BAE      |        7086 |
|      41 | 0x1BAF      |        7087 |
|      42 | 0x1BB0      |        7088 |
|      43 | 0x1BB1      |        7089 |
|      44 | 0x1BB2      |        7090 |
|      45 | 0x1BB3      |        7091 |
|      46 | 0x1BB4      |        7092 |
|      47 | 0x1BB5      |        7093 |
|      48 | 0x1BB6      |        7094 |
|      49 | 0x63F7      |       25591 |
|      50 | 0xFFFF4DA6  |  4294921638 |
|      51 | 0xFFFFE184  |  4294959492 |
|      52 | 0x0800      |        2048 |
|      53 | 0x00B2      |         178 |
|      54 | 0x0078      |         120 |
|      55 | 0x1BBA      |        7098 |
|      56 | 0x1BBB      |        7099 |
|      57 | 0x1BBC      |        7100 |
|      58 | 0x1BBD      |        7101 |
|      59 | 0x1BBE      |        7102 |
|      60 | 0x1BBF      |        7103 |
|      61 | 0x1BC0      |        7104 |
|      62 | 0x1B98      |        7064 |
|      63 | 0x1BC1      |        7105 |
|      64 | 0x1BC2      |        7106 |
|      65 | 0x012C      |         300 |
|      66 | 0x1BC3      |        7107 |
|      67 | 0x283D      |       10301 |
|      68 | 0x00A3      |         163 |
|      69 | 0x1BC4      |        7108 |
|      70 | 0x1BC5      |        7109 |
|      71 | 0x1BC6      |        7110 |
|      72 | 0x1BC7      |        7111 |
|      73 | 0x1BC8      |        7112 |
|      74 | 0x1BC9      |        7113 |
|      75 | 0x1BCA      |        7114 |
|      76 | 0x006F      |         111 |
|      77 | 0x1BCB      |        7115 |
|      78 | 0x1BCC      |        7116 |
|      79 | 0x1BCD      |        7117 |
|      80 | 0x1BCE      |        7118 |
|      81 | 0x1BCF      |        7119 |
|      82 | 0x1BD0      |        7120 |
|      83 | 0x1BD1      |        7121 |
|      84 | 0x1BD2      |        7122 |
|      85 | 0x1BD3      |        7123 |
|      86 | 0x1BD4      |        7124 |
|      87 | 0x1BD5      |        7125 |
|      88 | 0x1BD6      |        7126 |
|      89 | 0x1BD7      |        7127 |
|      90 | 0x1BD8      |        7128 |
|      91 | 0x1BD9      |        7129 |
|      92 | 0x1BDA      |        7130 |
|      93 | 0x1BDB      |        7131 |
|      94 | 0x1BDC      |        7132 |
|      95 | 0x0103      |         259 |
|      96 | 0x1BE3      |        7139 |
|      97 | 0x1BE4      |        7140 |
|      98 | 0x1BE5      |        7141 |
|      99 | 0x1BE6      |        7142 |
|     100 | 0x1BE7      |        7143 |
|     101 | 0x1BE8      |        7144 |
|     102 | 0x1BE9      |        7145 |
|     103 | 0x1BEA      |        7146 |
|     104 | 0x0002      |           2 |
|     105 | 0x1BEB      |        7147 |
|     106 | 0x1BEC      |        7148 |
|     107 | 0x1BED      |        7149 |
|     108 | 0x1BEE      |        7150 |
|     109 | 0x1BEF      |        7151 |
|     110 | 0x1BF0      |        7152 |
|     111 | 0x1BF1      |        7153 |
|     112 | 0x1BF2      |        7154 |
|     113 | 0x1BF3      |        7155 |
|     114 | 0x1BF4      |        7156 |
|     115 | 0x1BF5      |        7157 |
|     116 | 0x1BF6      |        7158 |
|     117 | 0x1BF7      |        7159 |
|     118 | 0x0003      |           3 |
|     119 | 0x1BF8      |        7160 |
|     120 | 0x0004      |           4 |
|     121 | 0x1BF9      |        7161 |
|     122 | 0x1BFA      |        7162 |
|     123 | 0x1BFB      |        7163 |
|     124 | 0x1BFC      |        7164 |
|     125 | 0x291C      |       10524 |
|     126 | 0x0356      |         854 |
|     127 | 0x1BFD      |        7165 |
|     128 | 0x1BFE      |        7166 |
|     129 | 0x1BFF      |        7167 |
|     130 | 0x1C00      |        7168 |
|     131 | 0x1C01      |        7169 |
|     132 | 0x1C02      |        7170 |
|     133 | 0x00C9      |         201 |
|     134 | 0x1C04      |        7172 |
|     135 | 0x1C05      |        7173 |
|     136 | 0x1C06      |        7174 |
|     137 | 0x1C07      |        7175 |
|     138 | 0x1C08      |        7176 |
|     139 | 0x1C09      |        7177 |
|     140 | 0x1C0A      |        7178 |
|     141 | 0x1C0B      |        7179 |
|     142 | 0x010D      |         269 |
|     143 | 0x1C0C      |        7180 |
|     144 | 0x1C0D      |        7181 |
|     145 | 0x1C0E      |        7182 |
|     146 | 0x1C0F      |        7183 |
|     147 | 0x1C10      |        7184 |
|     148 | 0x1C13      |        7187 |
|     149 | 0x1C14      |        7188 |
|     150 | 0x1C15      |        7189 |
|     151 | 0x1C16      |        7190 |
|     152 | 0x1C17      |        7191 |
|     153 | 0x1C18      |        7192 |
|     154 | 0x1C19      |        7193 |
|     155 | 0x0076      |         118 |
|     156 | 0x1C1A      |        7194 |
|     157 | 0x1C1B      |        7195 |
|     158 | 0x1C1C      |        7196 |
|     159 | 0x1C1D      |        7197 |
|     160 | 0x1C1E      |        7198 |
|     161 | 0x0030      |          48 |
|     162 | 0x007F      |         127 |
|     163 | 0x1C1F      |        7199 |
|     164 | 0x1C20      |        7200 |
|     165 | 0x1C21      |        7201 |
|     166 | 0x1C22      |        7202 |
|     167 | 0x1C23      |        7203 |
|     168 | 0x1C24      |        7204 |
|     169 | 0x1C25      |        7205 |
|     170 | 0x1C27      |        7207 |
|     171 | 0x0073      |         115 |
|     172 | 0x1C28      |        7208 |
|     173 | 0x1C29      |        7209 |
|     174 | 0x0074      |         116 |
|     175 | 0x1C2A      |        7210 |
|     176 | 0x1C2B      |        7211 |
|     177 | 0x1C2C      |        7212 |
|     178 | 0x1C2D      |        7213 |
|     179 | 0x1C2E      |        7214 |
|     180 | 0x1C2F      |        7215 |
|     181 | 0x1C30      |        7216 |
|     182 | 0x1C31      |        7217 |
|     183 | 0x1C32      |        7218 |
|     184 | 0x1C33      |        7219 |
|     185 | 0x1C34      |        7220 |
|     186 | 0x1C35      |        7221 |
|     187 | 0x1C36      |        7222 |
|     188 | 0x1C38      |        7224 |
|     189 | 0x1C39      |        7225 |
|     190 | 0x005A      |          90 |
|     191 | 0x1C3A      |        7226 |
|     192 | 0x007D      |         125 |
|     193 | 0x1C3B      |        7227 |
|     194 | 0x1C3C      |        7228 |
|     195 | 0x1C3E      |        7230 |
|     196 | 0x0235      |         565 |
|     197 | 0x0318      |         792 |
|     198 | 0x1CB8      |        7352 |
|     199 | 0x1CB9      |        7353 |
|     200 | 0x1CBA      |        7354 |
|     201 | 0x1CBB      |        7355 |
|     202 | 0x1CBC      |        7356 |
|     203 | 0x1CBD      |        7357 |
|     204 | 0x1CBE      |        7358 |
|     205 | 0x1CBF      |        7359 |
|     206 | 0x1CC0      |        7360 |
|     207 | 0x1CC1      |        7361 |
|     208 | 0x1CC2      |        7362 |
|     209 | 0x1CC3      |        7363 |
|     210 | 0x1CC4      |        7364 |
|     211 | 0x1CC5      |        7365 |
|     212 | 0x1CC6      |        7366 |
|     213 | 0x1CC7      |        7367 |
|     214 | 0x1CC8      |        7368 |
|     215 | 0x1D95      |        7573 |
|     216 | 0x1D96      |        7574 |
|     217 | 0x1D97      |        7575 |
|     218 | 0x1CC9      |        7369 |
|     219 | 0x0096      |         150 |
|     220 | 0x1CCA      |        7370 |
|     221 | 0x1CCB      |        7371 |
|     222 | 0x1CCC      |        7372 |
|     223 | 0x1CCD      |        7373 |
|     224 | 0x1CCE      |        7374 |
|     225 | 0x1CCF      |        7375 |
|     226 | 0x00AE      |         174 |
|     227 | 0x000A      |          10 |
|     228 | 0x1CD0      |        7376 |
|     229 | 0x010F      |         271 |
|     230 | 0x1CD3      |        7379 |
|     231 | 0x1CD4      |        7380 |
|     232 | 0x1CD5      |        7381 |
|     233 | 0x1CD8      |        7384 |
|     234 | 0x0232      |         562 |
|     235 | 0x1CD9      |        7385 |
|     236 | 0x1CDA      |        7386 |
|     237 | 0x1CDC      |        7388 |
|     238 | 0x1CDD      |        7389 |
|     239 | 0x1CDF      |        7391 |
|     240 | 0x1CE0      |        7392 |
|     241 | 0x1CE3      |        7395 |
|     242 | 0x1CE4      |        7396 |
|     243 | 0x1CE7      |        7399 |
|     244 | 0x1CE8      |        7400 |
|     245 | 0x1CEB      |        7403 |
|     246 | 0x1CEC      |        7404 |
|     247 | 0x008B      |         139 |
|     248 | 0x1CED      |        7405 |
|     249 | 0x1CF0      |        7408 |
|     250 | 0x1CF3      |        7411 |
|     251 | 0x1CF4      |        7412 |
|     252 | 0x1CF7      |        7415 |
|     253 | 0x1CF8      |        7416 |
|     254 | 0x1CF9      |        7417 |
|     255 | 0x1CFA      |        7418 |
|     256 | 0x1CFB      |        7419 |
|     257 | 0x1CFC      |        7420 |
|     258 | 0x009C      |         156 |
|     259 | 0x1CFD      |        7421 |
|     260 | 0x1CFE      |        7422 |
|     261 | 0x1CFF      |        7423 |
|     262 | 0x1D00      |        7424 |
|     263 | 0x1D01      |        7425 |
|     264 | 0x1D02      |        7426 |
|     265 | 0x00FE      |         254 |
|     266 | 0x00A4      |         164 |
|     267 | 0x1CAE      |        7342 |
|     268 | 0x1D1C      |        7452 |
|     269 | 0x1D1D      |        7453 |
|     270 | 0x1D1E      |        7454 |
|     271 | 0x1D1F      |        7455 |
|     272 | 0x1D20      |        7456 |
|     273 | 0x1D21      |        7457 |
|     274 | 0x1D22      |        7458 |
|     275 | 0x1D23      |        7459 |
|     276 | 0x1D24      |        7460 |
|     277 | 0x1D25      |        7461 |
|     278 | 0x0016      |          22 |
|     279 | 0x1D26      |        7462 |
|     280 | 0x1D27      |        7463 |
|     281 | 0x1D34      |        7476 |
|     282 | 0x1D35      |        7477 |
|     283 | 0x1D36      |        7478 |
|     284 | 0x1D37      |        7479 |
|     285 | 0x1D38      |        7480 |
|     286 | 0x1D39      |        7481 |
|     287 | 0x1D3A      |        7482 |
|     288 | 0x1D3B      |        7483 |
|     289 | 0x1D3C      |        7484 |
|     290 | 0x1D3D      |        7485 |
|     291 | 0x1D3E      |        7486 |
|     292 | 0x1D3F      |        7487 |
|     293 | 0x1D40      |        7488 |
|     294 | 0x1D41      |        7489 |
|     295 | 0x1D42      |        7490 |
|     296 | 0x1D43      |        7491 |
|     297 | 0x1D44      |        7492 |
|     298 | 0x1D45      |        7493 |
|     299 | 0x1D46      |        7494 |
|     300 | 0x1D47      |        7495 |
|     301 | 0x1D4A      |        7498 |
|     302 | 0x1D4B      |        7499 |
|     303 | 0x1D4C      |        7500 |
|     304 | 0x1D4D      |        7501 |
|     305 | 0x1D4E      |        7502 |
|     306 | 0x1D4F      |        7503 |
|     307 | 0x1D50      |        7504 |
|     308 | 0x1D51      |        7505 |
|     309 | 0x1D52      |        7506 |
|     310 | 0x1D53      |        7507 |
|     311 | 0x1D54      |        7508 |
|     312 | 0x1D55      |        7509 |
|     313 | 0x1D56      |        7510 |
|     314 | 0x1D57      |        7511 |
|     315 | 0x1D58      |        7512 |
|     316 | 0x1D59      |        7513 |
|     317 | 0x1D5A      |        7514 |
|     318 | 0x1D5B      |        7515 |
|     319 | 0x1D5C      |        7516 |
|     320 | 0x1D5D      |        7517 |
|     321 | 0x00F0      |         240 |
|     322 | 0x1D5E      |        7518 |
|     323 | 0x1D5F      |        7519 |
|     324 | 0x1D60      |        7520 |
|     325 | 0x1D61      |        7521 |
|     326 | 0x1D63      |        7523 |
|     327 | 0x1D64      |        7524 |
|     328 | 0x022F      |         559 |
|     329 | 0x0345      |         837 |
|     330 | 0x00B9      |         185 |
|     331 | 0x1D65      |        7525 |
|     332 | 0x1D66      |        7526 |
|     333 | 0x1D67      |        7527 |
|     334 | 0x1D68      |        7528 |
|     335 | 0x1D69      |        7529 |
|     336 | 0x1D6A      |        7530 |
|     337 | 0x0346      |         838 |
|     338 | 0x1D6B      |        7531 |
|     339 | 0x1D6C      |        7532 |
|     340 | 0x1D6D      |        7533 |
|     341 | 0x1D6E      |        7534 |
|     342 | 0x0032      |          50 |
|     343 | 0x0110      |         272 |
|     344 | 0x03E7      |         999 |
|     345 | 0x1D6F      |        7535 |
|     346 | 0x1D70      |        7536 |
|     347 | 0x1D71      |        7537 |
|     348 | 0x1D72      |        7538 |
|     349 | 0x1D73      |        7539 |
|     350 | 0x1D74      |        7540 |
|     351 | 0x1D75      |        7541 |
|     352 | 0x1D76      |        7542 |
|     353 | 0x1D77      |        7543 |
|     354 | 0x1D78      |        7544 |
|     355 | 0x1D79      |        7545 |
|     356 | 0x1D7A      |        7546 |
|     357 | 0x1D7B      |        7547 |
|     358 | 0x1D7C      |        7548 |
|     359 | 0x1D7D      |        7549 |
|     360 | 0x1D7E      |        7550 |
|     361 | 0x1D80      |        7552 |
|     362 | 0x1D81      |        7553 |
|     363 | 0x1D82      |        7554 |
|     364 | 0x1D83      |        7555 |
|     365 | 0x1D84      |        7556 |
|     366 | 0x1D85      |        7557 |
|     367 | 0x1D86      |        7558 |
|     368 | 0x1D87      |        7559 |
|     369 | 0x0028      |          40 |
|     370 | 0x1D88      |        7560 |
|     371 | 0x1D89      |        7561 |
|     372 | 0x0095      |         149 |
|     373 | 0x1D8A      |        7562 |
|     374 | 0x1D8B      |        7563 |
|     375 | 0x1D8C      |        7564 |
|     376 | 0x1D8D      |        7565 |
|     377 | 0x1D8E      |        7566 |
|     378 | 0x1D8F      |        7567 |
|     379 | 0x1D90      |        7568 |
|     380 | 0x1D91      |        7569 |
|     381 | 0x1D92      |        7570 |
|     382 | 0x1D93      |        7571 |
|     383 | 0x1D94      |        7572 |
|     384 | 0x1C11      |        7185 |
|     385 | 0x1C12      |        7186 |
|     386 | 0x1C26      |        7206 |
|     387 | 0x1C37      |        7223 |
|     388 | 0x1C3D      |        7229 |
|     389 | 0x1C3F      |        7231 |
|     390 | 0x1C40      |        7232 |
|     391 | 0x1C41      |        7233 |
|     392 | 0x0005      |           5 |
|     393 | 0x1C42      |        7234 |
|     394 | 0x1C43      |        7235 |
|     395 | 0x1C44      |        7236 |
|     396 | 0x1C45      |        7237 |
|     397 | 0x1C46      |        7238 |
|     398 | 0x1C47      |        7239 |
|     399 | 0x1C48      |        7240 |
|     400 | 0x1C49      |        7241 |
|     401 | 0x1C4A      |        7242 |
|     402 | 0x1CAF      |        7343 |
|     403 | 0x1CB0      |        7344 |
|     404 | 0x1CB1      |        7345 |
|     405 | 0x1CB2      |        7346 |
|     406 | 0x1CB3      |        7347 |
|     407 | 0x1CB4      |        7348 |
|     408 | 0x1CB5      |        7349 |
|     409 | 0x1CB6      |        7350 |
|     410 | 0x1CB7      |        7351 |
|     411 | 0x1CD1      |        7377 |
|     412 | 0x1CD2      |        7378 |
|     413 | 0x1CD6      |        7382 |
|     414 | 0x1CD7      |        7383 |
|     415 | 0x1CDB      |        7387 |
|     416 | 0x1CDE      |        7390 |
|     417 | 0x0079      |         121 |
|     418 | 0x1CE1      |        7393 |
|     419 | 0x1CE2      |        7394 |
|     420 | 0x1CE5      |        7397 |
|     421 | 0x1CE6      |        7398 |
|     422 | 0x1CE9      |        7401 |
|     423 | 0x1CEA      |        7402 |
|     424 | 0x008A      |         138 |
|     425 | 0x1CEE      |        7406 |
|     426 | 0x1CEF      |        7407 |
|     427 | 0x1CF1      |        7409 |
|     428 | 0x1CF2      |        7410 |
|     429 | 0x1CF5      |        7413 |
|     430 | 0x1CF6      |        7414 |
|     431 | 0x1D03      |        7427 |
|     432 | 0x1D04      |        7428 |
|     433 | 0x1D05      |        7429 |
|     434 | 0x1D06      |        7430 |
|     435 | 0x1D07      |        7431 |
|     436 | 0x1D08      |        7432 |
|     437 | 0x1D09      |        7433 |
|     438 | 0x1D0A      |        7434 |
|     439 | 0x1D0B      |        7435 |
|     440 | 0x1D0C      |        7436 |
|     441 | 0x1D0D      |        7437 |
|     442 | 0x1D0E      |        7438 |
|     443 | 0x1D0F      |        7439 |
|     444 | 0x1D10      |        7440 |
|     445 | 0x1D11      |        7441 |
|     446 | 0x1D12      |        7442 |
|     447 | 0x1D13      |        7443 |
|     448 | 0x1D14      |        7444 |
|     449 | 0x0080      |         128 |
|     450 | 0x0311      |         785 |
|     451 | 0x1D15      |        7445 |
|     452 | 0x1D16      |        7446 |
|     453 | 0x1D17      |        7447 |
|     454 | 0x1D1A      |        7450 |
|     455 | 0x1D18      |        7448 |
|     456 | 0x1D19      |        7449 |
|     457 | 0x02FC      |         764 |
|     458 | 0x0050      |          80 |
|     459 | 0x3CF7      |       15607 |
|     460 | 0x0402      |        1026 |
|     461 | 0x3CF8      |       15608 |
|     462 | 0x3CF9      |       15609 |
|     463 | 0x3CFA      |       15610 |
|     464 | 0x3CFB      |       15611 |
|     465 | 0x3CFC      |       15612 |
|     466 | 0x3CFD      |       15613 |
|     467 | 0x3CFE      |       15614 |
|     468 | 0x3CFF      |       15615 |
|     469 | 0x3D00      |       15616 |
|     470 | 0x001D      |          29 |
|     471 | 0x0015      |          21 |
|     472 | 0x1D29      |        7465 |
|     473 | 0x1D2A      |        7466 |
|     474 | 0x1D2B      |        7467 |
|     475 | 0x1D2C      |        7468 |
|     476 | 0x1D2D      |        7469 |
|     477 | 0x1D2E      |        7470 |
|     478 | 0x1D2F      |        7471 |
|     479 | 0x1D30      |        7472 |
|     480 | 0x1D31      |        7473 |
|     481 | 0x1D32      |        7474 |
|     482 | 0x1D33      |        7475 |
|     483 | 0x1D48      |        7496 |
|     484 | 0x1D49      |        7497 |
|     485 | 0x290C      |       10508 |
|     486 | 0x290D      |       10509 |
|     487 | 0x290E      |       10510 |
|     488 | 0x290F      |       10511 |
|     489 | 0x2910      |       10512 |
|     490 | 0x2911      |       10513 |
|     491 | 0x2912      |       10514 |
|     492 | 0x2913      |       10515 |
|     493 | 0x0873      |        2163 |
|     494 | 0x2914      |       10516 |
|     495 | 0x2915      |       10517 |
|     496 | 0x2916      |       10518 |
|     497 | 0x2917      |       10519 |
|     498 | 0x2918      |       10520 |
|     499 | 0x2919      |       10521 |
|     500 | 0x008F      |         143 |
|     501 | 0x291B      |       10523 |
|     502 | 0x291D      |       10525 |
|     503 | 0x291E      |       10526 |
|     504 | 0x291F      |       10527 |
|     505 | 0x2920      |       10528 |
|     506 | 0x2921      |       10529 |
|     507 | 0x2922      |       10530 |
|     508 | 0x2923      |       10531 |
|     509 | 0x2924      |       10532 |
|     510 | 0x2925      |       10533 |
|     511 | 0x2926      |       10534 |
|     512 | 0x2927      |       10535 |
|     513 | 0x2928      |       10536 |
|     514 | 0x2929      |       10537 |
|     515 | 0x292C      |       10540 |
|     516 | 0x292D      |       10541 |
|     517 | 0x292E      |       10542 |
|     518 | 0x292F      |       10543 |
|     519 | 0x2930      |       10544 |
|     520 | 0x2931      |       10545 |
|     521 | 0x2932      |       10546 |
|     522 | 0x2933      |       10547 |
|     523 | 0x2935      |       10549 |
|     524 | 0x2936      |       10550 |
|     525 | 0x2937      |       10551 |
|     526 | 0x2938      |       10552 |
|     527 | 0x2939      |       10553 |
|     528 | 0x293A      |       10554 |
|     529 | 0x293B      |       10555 |
|     530 | 0x293C      |       10556 |
|     531 | 0x293D      |       10557 |
|     532 | 0x293E      |       10558 |
|     533 | 0x293F      |       10559 |
|     534 | 0x2940      |       10560 |
|     535 | 0x2941      |       10561 |
|     536 | 0x2942      |       10562 |
|     537 | 0x2943      |       10563 |
|     538 | 0x2944      |       10564 |
|     539 | 0x2945      |       10565 |
|     540 | 0x2946      |       10566 |
|     541 | 0x2947      |       10567 |
|     542 | 0x0040      |          64 |
|     543 | 0x00B8      |         184 |
|     544 | 0x2948      |       10568 |
|     545 | 0x2949      |       10569 |
|     546 | 0x0033      |          51 |
|     547 | 0x294A      |       10570 |
|     548 | 0x294B      |       10571 |
|     549 | 0x294C      |       10572 |
|     550 | 0x294D      |       10573 |
|     551 | 0x294E      |       10574 |
|     552 | 0x294F      |       10575 |
|     553 | 0x2950      |       10576 |
|     554 | 0x2951      |       10577 |
|     555 | 0x295A      |       10586 |
|     556 | 0x295C      |       10588 |
|     557 | 0x2952      |       10578 |
|     558 | 0x2953      |       10579 |
|     559 | 0x2954      |       10580 |
|     560 | 0x2955      |       10581 |
|     561 | 0x2956      |       10582 |
|     562 | 0x2957      |       10583 |
|     563 | 0x2958      |       10584 |
|     564 | 0x0023      |          35 |
|     565 | 0x2959      |       10585 |
|     566 | 0x295B      |       10587 |
|     567 | 0x295D      |       10589 |
|     568 | 0x295E      |       10590 |
|     569 | 0x0315      |         789 |
|     570 | 0x295F      |       10591 |
|     571 | 0x2960      |       10592 |
|     572 | 0x2961      |       10593 |
|     573 | 0x2962      |       10594 |
|     574 | 0x2963      |       10595 |
|     575 | 0x2964      |       10596 |
|     576 | 0x2965      |       10597 |
|     577 | 0x2966      |       10598 |
|     578 | 0x2967      |       10599 |
|     579 | 0x000B      |          11 |
|     580 | 0x034B      |         843 |
|     581 | 0x1C4B      |        7243 |
|     582 | 0x1C4C      |        7244 |
|     583 | 0x1C4D      |        7245 |
|     584 | 0x034A      |         842 |
|     585 | 0x3CF4      |       15604 |
|     586 | 0x3CF5      |       15605 |
|     587 | 0x3CF6      |       15606 |
|     588 | 0x1C4E      |        7246 |
|     589 | 0x1C51      |        7249 |
|     590 | 0x1C4F      |        7247 |
|     591 | 0x1C50      |        7248 |
|     592 | 0x1C52      |        7250 |
|     593 | 0x0888      |        2184 |
|     594 | 0x1C53      |        7251 |
|     595 | 0x1C54      |        7252 |
|     596 | 0x1C55      |        7253 |
|     597 | 0x1C56      |        7254 |
|     598 | 0x1C57      |        7255 |
|     599 | 0x1C58      |        7256 |
|     600 | 0x1C59      |        7257 |
|     601 | 0x1C5A      |        7258 |
|     602 | 0x01F4      |         500 |
|     603 | 0x001A      |          26 |
|     604 | 0x1C5B      |        7259 |
|     605 | 0x1C5C      |        7260 |
|     606 | 0x1C5D      |        7261 |
|     607 | 0x1C5E      |        7262 |
|     608 | 0x1C5F      |        7263 |
|     609 | 0x1C60      |        7264 |
|     610 | 0x1C61      |        7265 |
|     611 | 0x1C62      |        7266 |
|     612 | 0x1C63      |        7267 |
|     613 | 0x1C64      |        7268 |
|     614 | 0x1C65      |        7269 |
|     615 | 0x1C66      |        7270 |
|     616 | 0x1C67      |        7271 |
|     617 | 0x1C68      |        7272 |
|     618 | 0x1C69      |        7273 |
|     619 | 0x1C6A      |        7274 |
|     620 | 0x1C6B      |        7275 |
|     621 | 0x1C6C      |        7276 |
|     622 | 0x1C6D      |        7277 |
|     623 | 0x1C6E      |        7278 |
|     624 | 0x1C6F      |        7279 |
|     625 | 0x1C70      |        7280 |
|     626 | 0x1C71      |        7281 |
|     627 | 0x1C72      |        7282 |
|     628 | 0x1C73      |        7283 |
|     629 | 0x1C74      |        7284 |
|     630 | 0x1C75      |        7285 |
|     631 | 0x1C76      |        7286 |
|     632 | 0x1C77      |        7287 |
|     633 | 0x1C78      |        7288 |
|     634 | 0x1C79      |        7289 |
|     635 | 0x1C7A      |        7290 |
|     636 | 0x1C7B      |        7291 |
|     637 | 0x1C7C      |        7292 |
|     638 | 0x1C7D      |        7293 |
|     639 | 0x0059      |          89 |
|     640 | 0x1C86      |        7302 |
|     641 | 0x0258      |         600 |
|     642 | 0x1CA1      |        7329 |
|     643 | 0x1CA2      |        7330 |
|     644 | 0x1CA3      |        7331 |
|     645 | 0x1CA4      |        7332 |
|     646 | 0x1CA5      |        7333 |
|     647 | 0x1CA6      |        7334 |
|     648 | 0x0400      |        1024 |
|     649 | 0x1C85      |        7301 |
|     650 | 0x0168      |         360 |
|     651 | 0x1CA0      |        7328 |
|     652 | 0x1C7E      |        7294 |
|     653 | 0x1C7F      |        7295 |
|     654 | 0x1C80      |        7296 |
|     655 | 0x1C81      |        7297 |
|     656 | 0x1C82      |        7298 |
|     657 | 0x1C83      |        7299 |
|     658 | 0x1C84      |        7300 |
|     659 | 0x1C87      |        7303 |
|     660 | 0x1C88      |        7304 |
|     661 | 0x1C89      |        7305 |
|     662 | 0x1C8A      |        7306 |
|     663 | 0x1C8B      |        7307 |
|     664 | 0x1C8C      |        7308 |
|     665 | 0x1C8D      |        7309 |
|     666 | 0x1C8E      |        7310 |
|     667 | 0x1C8F      |        7311 |
|     668 | 0x1C90      |        7312 |
|     669 | 0x1C91      |        7313 |
|     670 | 0x1C92      |        7314 |
|     671 | 0x1C93      |        7315 |
|     672 | 0x1C94      |        7316 |
|     673 | 0x1C95      |        7317 |
|     674 | 0x1C96      |        7318 |
|     675 | 0x1C97      |        7319 |
|     676 | 0x1C98      |        7320 |
|     677 | 0x1C99      |        7321 |
|     678 | 0x1C9A      |        7322 |
|     679 | 0x1C9B      |        7323 |
|     680 | 0x1C9C      |        7324 |
|     681 | 0x1C9D      |        7325 |
|     682 | 0x1C9E      |        7326 |
|     683 | 0x0308      |         776 |
|     684 | 0x1C9F      |        7327 |
|     685 | 0x1CA7      |        7335 |
|     686 | 0x1CA8      |        7336 |
|     687 | 0x1CA9      |        7337 |
|     688 | 0x1CAA      |        7338 |
|     689 | 0x1CAB      |        7339 |
|     690 | 0x1CAC      |        7340 |
|     691 | 0x1CAD      |        7341 |
|     692 | 0x00D7      |         215 |

## String References

- **7069**: What do you say to that? [...Sorry?/Perish the thought!]
- **7075**: Want to be a mercenary? [Yep, that's the intent./Nope! No, ma'am!]
- **7081**: Naja hands you $6.
- **7102**: Give her your name? [Guess it wouldn't hurt.../No way.]
- **7106**: <Player> writes [his/her] name down on a sheet of parchment.
- **7146**: Show an invitation card? [Yes./Not now.]
- **7147**: You have $0 [card/cards]. Show her? [Yes!/Wait...not yet.]
- **7154**: Show Naja your cards? [Yes./Not now.]
- **7251**: Do you have $0? [Sure./Not on me...]
- **7255**: Do you have 1000 gil? [I guess.../Not for you!]
- **7350**: Do you know him? [Oh. That guy./I was just looking for him.]
- **7376**: What have you learned about? [The Empire./Walahra Temple./Salaheem's Sentinels./Raillefal's secret.]
- **7392**: You are really... [A deadly Tarutaru./A musketeer leader./A San d'Orian prince.]
- **7405**: Raillefal is really... [Prince Pieuje./Prince Trion./Prince Halver.]
- **7447**: Heard of San d'Oria? [Of course./San d'Oria...?]
- **7461**: Do you know him? [Oh. That guy./I was just looking for him.]
- **7470**: Did you deliver the letter? [Of course./Letter...?]
- **7540**: Raillefal... [Went home./Is a prince.]
- **10301**: 
- **10533**: Do ya get it? [I got it./...]
- **10561**: Naja Salaheem throws away her charm!
- **10564**: Heard of the Dark Rider? [Hasn't everyone?/The Dark what?]
- **10579**: Find any proof? [I found something./Not yet./He found me...]
- **10584**: Do you remember? [I remember.../Ah, no...]
- **10592**: Naja eyeballs the $3...

## Events

### Event 65535

#### Metadata

| Field        | Value   |
|--------------|---------|
| Entrypoint   | 0x0000  |
| Data Size    | 1 bytes |
| Instructions | 1       |

```
      00 01 02 03 04 05 06 07  08 09 0A 0B 0C 0D 0E 0F
      -- -- -- -- -- -- -- --  -- -- -- -- -- -- -- --
0000: 00                                                .               
```

#### Opcodes

```
  0: 0x0000 [0x00] END_REQSTACK()
```

### Event 3000

#### Metadata

| Field        | Value      |
|--------------|------------|
| Entrypoint   | 0x0001     |
| Data Size    | 1828 bytes |
| Instructions | 226        |

```
      00 01 02 03 04 05 06 07  08 09 0A 0B 0C 0D 0E 0F
      -- -- -- -- -- -- -- --  -- -- -- -- -- -- -- --
0000:    42 03 00 00 09 10 1A  DB BD 46 01 38 00 80 75   B........F.8..u
0010: 00 01 80 75 01 79 00 F0  FF FF 7F F0 FF FF 7F 92  ...u.y..........
0020: 01 8C 20 03 01 92 01 8D  20 03 01 94 01 F0 FF FF  .. ..... .......
0030: 7F 94 01 8C 20 03 01 94  01 8D 20 03 01 29 10 F0  .... ..... ..)..
0040: FF FF 7F 11 29 10 8C 20  03 01 24 80 F0 FF FF 7F  ....).. ..$.....
0050: 80 8C 20 03 01 80 8D 20  03 01 81 00 8C 20 03 01  .. .... ..... ..
0060: 5B 02 80 8C 20 03 01 8C  20 03 01 64 73 63 6C 53  [... ... ..dsclS
0070: 8C 20 03 01 8C 20 03 01  64 73 63 6C 27 10 F0 FF  . ... ..dscl'...
0080: FF 7F 41 45 03 80 F0 FF  FF 7F F0 FF FF 7F 64 6E  ..AE..........dn
0090: 30 30 04 80 1C 05 80 1A  BA BD 2A 10 F0 FF FF 7F  00........*.....
00A0: 1C 06 80 2B 8C 20 03 01  07 80 23 52 03 80 F0 FF  ...+. ....#R....
00B0: FF 7F F0 FF FF 7F 64 6E  30 30 45 03 80 F0 FF FF  ......dn00E.....
00C0: 7F F0 FF FF 7F 64 6E 30  31 04 80 5B 02 80 8C 20  .....dn01..[... 
00D0: 03 01 8C 20 03 01 64 73  63 31 2B 8C 20 03 01 08  ... ..dsc1+. ...
00E0: 80 23 53 8C 20 03 01 8C  20 03 01 64 73 63 31 81  .#S. ... ..dsc1.
00F0: 01 8C 20 03 01 1A DB BD  1C 09 80 6B 69 64 6C 30  .. ........kidl0
0100: 8C 20 03 01 29 10 8C 20  03 01 63 1C 0A 80 79 00  . ..).. ..c...y.
0110: 8C 20 03 01 F0 FF FF 7F  4A F0 FF FF 7F 8C 20 03  . ......J..... .
0120: 01 52 03 80 F0 FF FF 7F  F0 FF FF 7F 64 6E 30 31  .R..........dn01
0130: 45 03 80 F0 FF FF 7F F0  FF FF 7F 64 6E 30 32 04  E..........dn02.
0140: 80 45 0B 80 F0 FF FF 7F  F0 FF FF 7F 66 64 69 32  .E..........fdi2
0150: 04 80 2B 8C 20 03 01 0C  80 23 52 03 80 F0 FF FF  ..+. ....#R.....
0160: 7F F0 FF FF 7F 64 6E 30  32 45 03 80 F0 FF FF 7F  .....dn02E......
0170: F0 FF FF 7F 64 6E 30 33  04 80 1C 0A 80 2B 8C 20  ....dn03.....+. 
0180: 03 01 0D 80 23 52 03 80  F0 FF FF 7F F0 FF FF 7F  ....#R..........
0190: 64 6E 30 33 45 03 80 F0  FF FF 7F F0 FF FF 7F 64  dn03E..........d
01A0: 6E 30 34 04 80 24 0E 80  04 80 04 80 25 02 00 10  n04..$......%...
01B0: 04 80 00 5B 02 27 10 8C  20 03 01 64 52 03 80 F0  ...[.'.. ..dR...
01C0: FF FF 7F F0 FF FF 7F 64  6E 30 34 45 03 80 F0 FF  .......dn04E....
01D0: FF 7F F0 FF FF 7F 64 6E  30 35 04 80 1C 09 80 4A  ......dn05.....J
01E0: F0 FF FF 7F 8C 20 03 01  2B 8C 20 03 01 0F 80 23  ..... ..+. ....#
01F0: 2A 10 8C 20 03 01 52 03  80 F0 FF FF 7F F0 FF FF  *.. ..R.........
0200: 7F 64 6E 30 35 45 03 80  F0 FF FF 7F F0 FF FF 7F  .dn05E..........
0210: 64 6E 30 36 04 80 4A 8C  20 03 01 F0 FF FF 7F 6F  dn06..J. ......o
0220: 76 8C 20 03 01 2B 8C 20  03 01 10 80 23 1C 11 80  v. ..+. ....#...
0230: 2B 8C 20 03 01 12 80 23  52 03 80 F0 FF FF 7F F0  +. ....#R.......
0240: FF FF 7F 64 6E 30 36 45  03 80 F0 FF FF 7F F0 FF  ...dn06E........
0250: FF 7F 64 6E 30 37 04 80  01 1D 03 02 00 10 13 80  ..dn07..........
0260: 00 1D 03 27 10 8C 20 03  01 64 52 03 80 F0 FF FF  ...'.. ..dR.....
0270: 7F F0 FF FF 7F 64 6E 30  34 45 03 80 F0 FF FF 7F  .....dn04E......
0280: F0 FF FF 7F 64 6E 30 35  04 80 1C 09 80 4A F0 FF  ....dn05.....J..
0290: FF 7F 8C 20 03 01 2B 8C  20 03 01 14 80 23 2A 10  ... ..+. ....#*.
02A0: 8C 20 03 01 52 03 80 F0  FF FF 7F F0 FF FF 7F 64  . ..R..........d
02B0: 6E 30 35 45 03 80 F0 FF  FF 7F F0 FF FF 7F 64 6E  n05E..........dn
02C0: 61 36 04 80 4A 8C 20 03  01 F0 FF FF 7F 6F 76 8C  a6..J. ......ov.
02D0: 20 03 01 5B 15 80 8C 20  03 01 8C 20 03 01 70 6E   ..[... ... ..pn
02E0: 62 30 27 10 F0 FF FF 7F  0E 2B 8C 20 03 01 16 80  b0'......+. ....
02F0: 23 5B 15 80 8C 20 03 01  8C 20 03 01 70 6E 62 31  #[... ... ..pnb1
0300: 1C 11 80 2B 8C 20 03 01  12 80 23 55 03 80 F0 FF  ...+. ....#U....
0310: FF 7F F0 FF FF 7F 64 6E  61 36 01 1D 03 24 17 80  ......dna6...$..
0320: 04 80 04 80 25 02 00 10  04 80 00 97 03 6E F0 FF  ....%........n..
0330: FF 7F 18 80 99 F0 FF FF  7F 99 F0 FF FF 7F 1C 0A  ................
0340: 80 52 03 80 F0 FF FF 7F  F0 FF FF 7F 64 6E 61 36  .R..........dna6
0350: 52 03 80 F0 FF FF 7F F0  FF FF 7F 64 6E 30 37 45  R..........dn07E
0360: 03 80 F0 FF FF 7F F0 FF  FF 7F 64 6E 62 37 04 80  ..........dnb7..
0370: 5B 19 80 8C 20 03 01 8C  20 03 01 74 6C 6B 30 2B  [... ... ..tlk0+
0380: 8C 20 03 01 1A 80 23 53  8C 20 03 01 8C 20 03 01  . ....#S. ... ..
0390: 74 6C 6B 30 01 3E 04 02  00 10 13 80 00 3E 04 6E  tlk0.>.......>.n
03A0: F0 FF FF 7F 1B 80 99 F0  FF FF 7F 99 F0 FF FF 7F  ................
03B0: 1C 09 80 5B 15 80 8C 20  03 01 8C 20 03 01 70 6E  ...[... ... ..pn
03C0: 62 30 1C 1C 80 52 03 80  F0 FF FF 7F F0 FF FF 7F  b0...R..........
03D0: 64 6E 30 37 52 03 80 F0  FF FF 7F F0 FF FF 7F 64  dn07R..........d
03E0: 6E 61 36 45 03 80 F0 FF  FF 7F F0 FF FF 7F 64 6E  na6E..........dn
03F0: 61 37 04 80 2B 8C 20 03  01 1D 80 23 5B 15 80 8C  a7..+. ....#[...
0400: 20 03 01 8C 20 03 01 70  6E 62 31 52 03 80 F0 FF   ... ..pnb1R....
0410: FF 7F F0 FF FF 7F 64 6E  61 37 45 03 80 F0 FF FF  ......dna7E.....
0420: 7F F0 FF FF 7F 64 6E 30  37 04 80 53 8C 20 03 01  .....dn07..S. ..
0430: 8C 20 03 01 70 6E 62 31  01 1D 03 01 3E 04 1A DB  . ..pnb1....>...
0440: BD 1C 09 80 7B 8C 20 03  01 6B 69 64 6C 30 8C 20  ....{. ..kidl0. 
0450: 03 01 29 10 8C 20 03 01  65 29 10 F0 FF FF 7F 42  ..).. ..e).....B
0460: 1C 0A 80 52 03 80 F0 FF  FF 7F F0 FF FF 7F 64 6E  ...R..........dn
0470: 62 37 45 03 80 F0 FF FF  7F F0 FF FF 7F 64 6E 30  b7E..........dn0
0480: 38 04 80 1C 05 80 1A BA  BD 2B 8C 20 03 01 1E 80  8........+. ....
0490: 23 5B 19 80 8C 20 03 01  8C 20 03 01 74 6C 6B 30  #[... ... ..tlk0
04A0: 2B 8C 20 03 01 1F 80 23  5B 19 80 8C 20 03 01 8C  +. ....#[... ...
04B0: 20 03 01 74 6C 6B 31 2B  8C 20 03 01 20 80 23 2B   ..tlk1+. .. .#+
04C0: 8C 20 03 01 21 80 23 53  8C 20 03 01 8C 20 03 01  . ..!.#S. ... ..
04D0: 74 6C 6B 31 52 03 80 F0  FF FF 7F F0 FF FF 7F 64  tlk1R..........d
04E0: 6E 30 38 45 03 80 F0 FF  FF 7F F0 FF FF 7F 64 6E  n08E..........dn
04F0: 30 39 04 80 5B 22 80 8C  20 03 01 8C 20 03 01 70  09..[".. ... ..p
0500: 61 73 30 1C 06 80 03 02  10 23 80 48 24 80 1C 0A  as0......#.H$...
0510: 80 53 8C 20 03 01 8C 20  03 01 70 61 73 30 81 00  .S. ... ..pas0..
0520: 8C 20 03 01 5B 19 80 8C  20 03 01 8C 20 03 01 74  . ..[... ... ..t
0530: 68 6B 30 1C 09 80 52 03  80 F0 FF FF 7F F0 FF FF  hk0...R.........
0540: 7F 64 6E 30 39 45 03 80  F0 FF FF 7F F0 FF FF 7F  .dn09E..........
0550: 64 6E 31 36 04 80 53 8C  20 03 01 8C 20 03 01 74  dn16..S. ... ..t
0560: 68 6B 30 2B 8C 20 03 01  25 80 23 81 01 8C 20 03  hk0+. ..%.#... .
0570: 01 5B 19 80 8C 20 03 01  8C 20 03 01 74 68 6B 31  .[... ... ..thk1
0580: 52 03 80 F0 FF FF 7F F0  FF FF 7F 64 6E 31 36 45  R..........dn16E
0590: 03 80 F0 FF FF 7F F0 FF  FF 7F 64 6E 31 30 04 80  ..........dn10..
05A0: 2B 8C 20 03 01 26 80 23  5B 19 80 8C 20 03 01 8C  +. ..&.#[... ...
05B0: 20 03 01 74 6C 6B 30 2B  8C 20 03 01 27 80 23 2B   ..tlk0+. ..'.#+
05C0: 8C 20 03 01 28 80 23 52  03 80 F0 FF FF 7F F0 FF  . ..(.#R........
05D0: FF 7F 64 6E 31 30 45 03  80 F0 FF FF 7F F0 FF FF  ..dn10E.........
05E0: 7F 64 6E 31 31 04 80 5B  19 80 8C 20 03 01 8C 20  .dn11..[... ... 
05F0: 03 01 74 6C 6B 31 53 8C  20 03 01 8C 20 03 01 74  ..tlk1S. ... ..t
0600: 6C 6B 31 2B 8C 20 03 01  29 80 23 2B 8C 20 03 01  lk1+. ..).#+. ..
0610: 2A 80 23 52 03 80 F0 FF  FF 7F F0 FF FF 7F 64 6E  *.#R..........dn
0620: 31 31 45 03 80 F0 FF FF  7F F0 FF FF 7F 64 6E 31  11E..........dn1
0630: 32 04 80 2B 8C 20 03 01  2B 80 23 2B 8C 20 03 01  2..+. ..+.#+. ..
0640: 2C 80 23 52 03 80 F0 FF  FF 7F F0 FF FF 7F 64 6E  ,.#R..........dn
0650: 31 32 45 03 80 F0 FF FF  7F F0 FF FF 7F 64 6E 31  12E..........dn1
0660: 35 04 80 2B 8C 20 03 01  2D 80 23 2B 8C 20 03 01  5..+. ..-.#+. ..
0670: 2E 80 23 5B 19 80 8C 20  03 01 8C 20 03 01 70 6E  ..#[... ... ..pn
0680: 74 30 52 03 80 F0 FF FF  7F F0 FF FF 7F 64 6E 31  t0R..........dn1
0690: 35 45 03 80 F0 FF FF 7F  F0 FF FF 7F 64 6E 31 33  5E..........dn13
06A0: 04 80 2B 8C 20 03 01 2F  80 23 52 03 80 F0 FF FF  ..+. ../.#R.....
06B0: 7F F0 FF FF 7F 64 6E 31  33 45 03 80 F0 FF FF 7F  .....dn13E......
06C0: F0 FF FF 7F 64 6E 31 34  04 80 03 02 10 23 80 2B  ....dn14.....#.+
06D0: 8C 20 03 01 30 80 23 1A  DB BD 1C 09 80 6B 69 64  . ..0.#......kid
06E0: 6C 30 8C 20 03 01 29 10  8C 20 03 01 25 52 03 80  l0. ..).. ..%R..
06F0: F0 FF FF 7F F0 FF FF 7F  64 6E 31 34 02 00 00 13  ........dn14....
0700: 80 01 10 07 47 00 31 80  32 80 33 80 34 80 47 01  ....G.1.2.3.4.G.
0710: 46 00 45 0B 80 F0 FF FF  7F F0 FF FF 7F 66 64 69  F.E..........fdi
0720: 32 04 80 21 00                                    2..!.           
```

#### Opcodes

```
  0: 0x0001 [0x42] SET_CLI_EVENT_CANCEL_DATA()
  1: 0x0002 [0x03] ExtData[1]->WorkLocal[0] = Work_Zone[9]
  2: 0x0007 [0x1A] CALL_SUBROUTINE(address=0xBDDB)
  3: 0x000A [0x46] CAMERA_CONTROL: Disable user control
  4: 0x000C [0x38] SET_CLIENT_EVENT_MODE(mode=19*)
  5: 0x000F [0x75] LOAD_ROOM(Load indoor room, room=563*)
  6: 0x0013 [0x75] LOAD_ROOM(No action)
  7: 0x0015 [0x79] LocalPlayer looks at LocalPlayer (Basic look)
  8: 0x001F [0x92] Naja Salaheem (ID: 16982156/0x0103208C)->Render.Flags3 ^= 0x01
  9: 0x0025 [0x92] Abquhbah (ID: 16982157/0x0103208D)->Render.Flags3 ^= 0x01
 10: 0x002B [0x94] LocalPlayer->Render.Flags3 ^= 0x01
 11: 0x0031 [0x94] Naja Salaheem (ID: 16982156/0x0103208C)->Render.Flags3 ^= 0x01
 12: 0x0037 [0x94] Abquhbah (ID: 16982157/0x0103208D)->Render.Flags3 ^= 0x01
 13: 0x003D [0x29] REQ_SET_WAIT(priority=0x10, entity_id=LocalPlayer, tag_num=0x11)
 14: 0x0044 [0x29] REQ_SET_WAIT(priority=0x10, entity_id=Naja Salaheem (ID: 16982156/0x0103208C), tag_num=0x24)
 15: 0x004B [0x80] LOAD_WAIT(entity=LocalPlayer)
 16: 0x0050 [0x80] LOAD_WAIT(entity=Naja Salaheem (ID: 16982156/0x0103208C))
 17: 0x0055 [0x80] LOAD_WAIT(entity=Abquhbah (ID: 16982157/0x0103208D))
 18: 0x005A [0x81] SET_ENTITY_BLINKING(blink_flag=0x00, entity=Naja Salaheem (ID: 16982156/0x0103208C))
 19: 0x0060 [0x5B] LOAD_EXT_SCHEDULER: Load scheduler "dscl" with entities [Naja Salaheem (ID: 16982156/0x0103208C), Naja Salaheem (ID: 16982156/0x0103208C)], work=834*
 20: 0x006F [0x53] WAIT_SCHEDULER_TASK: Wait for scheduler "dscl" with entities [Naja Salaheem (ID: 16982156/0x0103208C), Naja Salaheem (ID: 16982156/0x0103208C)]
 21: 0x007C [0x27] REQ_SET(priority=0x10, entity_id=LocalPlayer, tag_num=0x41)
 22: 0x0083 [0x45] LOAD_SCHEDULED_TASK: Load scheduler "dn00" with entities [LocalPlayer, LocalPlayer], work=[258*, 0*]
 23: 0x0094 [0x1C] WAIT(15* ticks)
 24: 0x0097 [0x1A] CALL_SUBROUTINE(address=0xBDBA)
 25: 0x009A [0x2A] GET_REQ_LEVEL(level=16, entity_id=LocalPlayer)
 26: 0x00A0 [0x1C] WAIT(180* ticks)
 27: 0x00A3 [0x2B] Naja Salaheem (ID: 16982156/0x0103208C) [7065*]:
    → "What're ya doin' standin' arrround here? You're just gettin' in the way. Can't ya see how busy I am?"
 28: 0x00AA [0x23] WAIT_FOR_DIALOG_INTERACTION
 29: 0x00AB [0x52] END_LOAD_SCHEDULER: End scheduler "dn00" with entities [LocalPlayer, LocalPlayer], work=258*
 30: 0x00BA [0x45] LOAD_SCHEDULED_TASK: Load scheduler "dn01" with entities [LocalPlayer, LocalPlayer], work=[258*, 0*]
 31: 0x00CB [0x5B] LOAD_EXT_SCHEDULER: Load scheduler "dsc1" with entities [Naja Salaheem (ID: 16982156/0x0103208C), Naja Salaheem (ID: 16982156/0x0103208C)], work=834*
 32: 0x00DA [0x2B] Naja Salaheem (ID: 16982156/0x0103208C) [7066*]:
    → "What's your deal, anyway? Ya got business with me?"
 33: 0x00E1 [0x23] WAIT_FOR_DIALOG_INTERACTION
 34: 0x00E2 [0x53] WAIT_SCHEDULER_TASK: Wait for scheduler "dsc1" with entities [Naja Salaheem (ID: 16982156/0x0103208C), Naja Salaheem (ID: 16982156/0x0103208C)]
 35: 0x00EF [0x81] SET_ENTITY_BLINKING(blink_flag=0x01, entity=Naja Salaheem (ID: 16982156/0x0103208C))
 36: 0x00F5 [0x1A] CALL_SUBROUTINE(address=0xBDDB)
 37: 0x00F8 [0x1C] WAIT(30* ticks)
 38: 0x00FB [0x6B] STOP_AND_IDLE: Naja Salaheem (ID: 16982156/0x0103208C) stops current action and resets to idle (animation="idl0")
 39: 0x0104 [0x29] REQ_SET_WAIT(priority=0x10, entity_id=Naja Salaheem (ID: 16982156/0x0103208C), tag_num=0x63)
 40: 0x010B [0x1C] WAIT(60* ticks)
 41: 0x010E [0x79] Naja Salaheem (ID: 16982156/0x0103208C) looks at LocalPlayer (Basic look)
 42: 0x0118 [0x4A] LocalPlayer looks at Naja Salaheem (ID: 16982156/0x0103208C)
 43: 0x0121 [0x52] END_LOAD_SCHEDULER: End scheduler "dn01" with entities [LocalPlayer, LocalPlayer], work=258*
 44: 0x0130 [0x45] LOAD_SCHEDULED_TASK: Load scheduler "dn02" with entities [LocalPlayer, LocalPlayer], work=[258*, 0*]
 45: 0x0141 [0x45] LOAD_SCHEDULED_TASK: Load scheduler "fdi2" with entities [LocalPlayer, LocalPlayer], work=[200*, 0*]
 46: 0x0152 [0x2B] Naja Salaheem (ID: 16982156/0x0103208C) [7067*]:
    → "Nope, never seen ya before. Your lack of fashion sense, that slack-jawed face, and that slouching posture...ya can't possibly be from arrround these parts."
 47: 0x0159 [0x23] WAIT_FOR_DIALOG_INTERACTION
 48: 0x015A [0x52] END_LOAD_SCHEDULER: End scheduler "dn02" with entities [LocalPlayer, LocalPlayer], work=258*
 49: 0x0169 [0x45] LOAD_SCHEDULED_TASK: Load scheduler "dn03" with entities [LocalPlayer, LocalPlayer], work=[258*, 0*]
 50: 0x017A [0x1C] WAIT(60* ticks)
 51: 0x017D [0x2B] Naja Salaheem (ID: 16982156/0x0103208C) [7068*]:
    → "You're a forrreigner, aren't ya?"
 52: 0x0184 [0x23] WAIT_FOR_DIALOG_INTERACTION
 53: 0x0185 [0x52] END_LOAD_SCHEDULER: End scheduler "dn03" with entities [LocalPlayer, LocalPlayer], work=258*
 54: 0x0194 [0x45] LOAD_SCHEDULED_TASK: Load scheduler "dn04" with entities [LocalPlayer, LocalPlayer], work=[258*, 0*]
 55: 0x01A5 [0x24] CREATE_DIALOG(message_id=7069*, default_option=0*, option_flags=0*)
    → "What do you say to that? [...Sorry?/Perish the thought!]"
 56: 0x01AC [0x25] WAIT_DIALOG_SELECT()
 57: 0x01AD [0x02] IF !(Work_Zone[0] == 0*) GOTO 0x025B
 58: 0x01B5 [0x27] REQ_SET(priority=0x10, entity_id=Naja Salaheem (ID: 16982156/0x0103208C), tag_num=0x64)
 59: 0x01BC [0x52] END_LOAD_SCHEDULER: End scheduler "dn04" with entities [LocalPlayer, LocalPlayer], work=258*
 60: 0x01CB [0x45] LOAD_SCHEDULED_TASK: Load scheduler "dn05" with entities [LocalPlayer, LocalPlayer], work=[258*, 0*]
 61: 0x01DC [0x1C] WAIT(30* ticks)
 62: 0x01DF [0x4A] LocalPlayer looks at Naja Salaheem (ID: 16982156/0x0103208C)
 63: 0x01E8 [0x2B] Naja Salaheem (ID: 16982156/0x0103208C) [7070*]:
    → "Heheh, I knew it."
 64: 0x01EF [0x23] WAIT_FOR_DIALOG_INTERACTION
 65: 0x01F0 [0x2A] GET_REQ_LEVEL(level=16, entity_id=Naja Salaheem (ID: 16982156/0x0103208C))
 66: 0x01F6 [0x52] END_LOAD_SCHEDULER: End scheduler "dn05" with entities [LocalPlayer, LocalPlayer], work=258*
 67: 0x0205 [0x45] LOAD_SCHEDULED_TASK: Load scheduler "dn06" with entities [LocalPlayer, LocalPlayer], work=[258*, 0*]
 68: 0x0216 [0x4A] Naja Salaheem (ID: 16982156/0x0103208C) looks at LocalPlayer
 69: 0x021F [0x6F] WAIT_FRAME_DELAY: Yield until WaitTime reaches zero
 70: 0x0220 [0x76] CHECK_ENTITY_RENDER_FLAGS: Wait until Naja Salaheem (ID: 16982156/0x0103208C) Render.Flags0 and Render.Flags3 conditions are met
 71: 0x0225 [0x2B] Naja Salaheem (ID: 16982156/0x0103208C) [7071*]:
    → "You'rrre just the type of person I've been looking for."
 72: 0x022C [0x23] WAIT_FOR_DIALOG_INTERACTION
 73: 0x022D [0x1C] WAIT(45* ticks)
 74: 0x0230 [0x2B] Naja Salaheem (ID: 16982156/0x0103208C) [7074*]:
    → "So ya came to be a merrrcenary, did ya?"
 75: 0x0237 [0x23] WAIT_FOR_DIALOG_INTERACTION
 76: 0x0238 [0x52] END_LOAD_SCHEDULER: End scheduler "dn06" with entities [LocalPlayer, LocalPlayer], work=258*
 77: 0x0247 [0x45] LOAD_SCHEDULED_TASK: Load scheduler "dn07" with entities [LocalPlayer, LocalPlayer], work=[258*, 0*]
 78: 0x0258 [0x01] GOTO 0x031D
 79: 0x025B [0x02] IF !(Work_Zone[0] == 1*) GOTO 0x031D
 80: 0x0263 [0x27] REQ_SET(priority=0x10, entity_id=Naja Salaheem (ID: 16982156/0x0103208C), tag_num=0x64)
 81: 0x026A [0x52] END_LOAD_SCHEDULER: End scheduler "dn04" with entities [LocalPlayer, LocalPlayer], work=258*
 82: 0x0279 [0x45] LOAD_SCHEDULED_TASK: Load scheduler "dn05" with entities [LocalPlayer, LocalPlayer], work=[258*, 0*]
 83: 0x028A [0x1C] WAIT(30* ticks)
 84: 0x028D [0x4A] LocalPlayer looks at Naja Salaheem (ID: 16982156/0x0103208C)
 85: 0x0296 [0x2B] Naja Salaheem (ID: 16982156/0x0103208C) [7072*]:
    → "Oh rrreally? You definitely don't look like someone from Aht Urhgan."
 86: 0x029D [0x23] WAIT_FOR_DIALOG_INTERACTION
 87: 0x029E [0x2A] GET_REQ_LEVEL(level=16, entity_id=Naja Salaheem (ID: 16982156/0x0103208C))
 88: 0x02A4 [0x52] END_LOAD_SCHEDULER: End scheduler "dn05" with entities [LocalPlayer, LocalPlayer], work=258*
 89: 0x02B3 [0x45] LOAD_SCHEDULED_TASK: Load scheduler "dna6" with entities [LocalPlayer, LocalPlayer], work=[258*, 0*]
 90: 0x02C4 [0x4A] Naja Salaheem (ID: 16982156/0x0103208C) looks at LocalPlayer
 91: 0x02CD [0x6F] WAIT_FRAME_DELAY: Yield until WaitTime reaches zero
 92: 0x02CE [0x76] CHECK_ENTITY_RENDER_FLAGS: Wait until Naja Salaheem (ID: 16982156/0x0103208C) Render.Flags0 and Render.Flags3 conditions are met
 93: 0x02D3 [0x5B] LOAD_EXT_SCHEDULER: Load scheduler "pnb0" with entities [Naja Salaheem (ID: 16982156/0x0103208C), Naja Salaheem (ID: 16982156/0x0103208C)], work=836*
 94: 0x02E2 [0x27] REQ_SET(priority=0x10, entity_id=LocalPlayer, tag_num=0x0E)
 95: 0x02E9 [0x2B] Naja Salaheem (ID: 16982156/0x0103208C) [7073*]:
    → "You're prrretty naive if you think you can get a lie like that past Naja here."
 96: 0x02F0 [0x23] WAIT_FOR_DIALOG_INTERACTION
 97: 0x02F1 [0x5B] LOAD_EXT_SCHEDULER: Load scheduler "pnb1" with entities [Naja Salaheem (ID: 16982156/0x0103208C), Naja Salaheem (ID: 16982156/0x0103208C)], work=836*
 98: 0x0300 [0x1C] WAIT(45* ticks)
 99: 0x0303 [0x2B] Naja Salaheem (ID: 16982156/0x0103208C) [7074*]:
    → "So ya came to be a merrrcenary, did ya?"
100: 0x030A [0x23] WAIT_FOR_DIALOG_INTERACTION
101: 0x030B [0x55] WAIT_LOAD_SCHEDULER: Wait for scheduler "dna6" with entities [LocalPlayer, LocalPlayer], work=258*
102: 0x031A [0x01] GOTO 0x031D

SUBROUTINE_031D:
103: 0x031D [0x24] CREATE_DIALOG(message_id=7075*, default_option=0*, option_flags=0*)
    → "Want to be a mercenary? [Yep, that's the intent./Nope! No, ma'am!]"
104: 0x0324 [0x25] WAIT_DIALOG_SELECT()
105: 0x0325 [0x02] IF !(Work_Zone[0] == 0*) GOTO 0x0397
106: 0x032D [0x6E] LocalPlayer uses emote 7*
107: 0x0334 [0x99] Wait for LocalPlayer animation to complete
108: 0x0339 [0x99] Wait for LocalPlayer animation to complete
109: 0x033E [0x1C] WAIT(60* ticks)
110: 0x0341 [0x52] END_LOAD_SCHEDULER: End scheduler "dna6" with entities [LocalPlayer, LocalPlayer], work=258*
111: 0x0350 [0x52] END_LOAD_SCHEDULER: End scheduler "dn07" with entities [LocalPlayer, LocalPlayer], work=258*
112: 0x035F [0x45] LOAD_SCHEDULED_TASK: Load scheduler "dnb7" with entities [LocalPlayer, LocalPlayer], work=[258*, 0*]
113: 0x0370 [0x5B] LOAD_EXT_SCHEDULER: Load scheduler "tlk0" with entities [Naja Salaheem (ID: 16982156/0x0103208C), Naja Salaheem (ID: 16982156/0x0103208C)], work=833*
114: 0x037F [0x2B] Naja Salaheem (ID: 16982156/0x0103208C) [7076*]:
    → "Now you'rrre speaking my language."
115: 0x0386 [0x23] WAIT_FOR_DIALOG_INTERACTION
116: 0x0387 [0x53] WAIT_SCHEDULER_TASK: Wait for scheduler "tlk0" with entities [Naja Salaheem (ID: 16982156/0x0103208C), Naja Salaheem (ID: 16982156/0x0103208C)]
117: 0x0394 [0x01] GOTO 0x043E
118: 0x0397 [0x02] IF !(Work_Zone[0] == 1*) GOTO 0x043E
119: 0x039F [0x6E] LocalPlayer uses emote 6*
120: 0x03A6 [0x99] Wait for LocalPlayer animation to complete
121: 0x03AB [0x99] Wait for LocalPlayer animation to complete
122: 0x03B0 [0x1C] WAIT(30* ticks)
123: 0x03B3 [0x5B] LOAD_EXT_SCHEDULER: Load scheduler "pnb0" with entities [Naja Salaheem (ID: 16982156/0x0103208C), Naja Salaheem (ID: 16982156/0x0103208C)], work=836*
124: 0x03C2 [0x1C] WAIT(20* ticks)
125: 0x03C5 [0x52] END_LOAD_SCHEDULER: End scheduler "dn07" with entities [LocalPlayer, LocalPlayer], work=258*
126: 0x03D4 [0x52] END_LOAD_SCHEDULER: End scheduler "dna6" with entities [LocalPlayer, LocalPlayer], work=258*
127: 0x03E3 [0x45] LOAD_SCHEDULED_TASK: Load scheduler "dna7" with entities [LocalPlayer, LocalPlayer], work=[258*, 0*]
128: 0x03F4 [0x2B] Naja Salaheem (ID: 16982156/0x0103208C) [7077*]:
    → "Don't you lie to me. I can see it in your eyes!"
129: 0x03FB [0x23] WAIT_FOR_DIALOG_INTERACTION
130: 0x03FC [0x5B] LOAD_EXT_SCHEDULER: Load scheduler "pnb1" with entities [Naja Salaheem (ID: 16982156/0x0103208C), Naja Salaheem (ID: 16982156/0x0103208C)], work=836*
131: 0x040B [0x52] END_LOAD_SCHEDULER: End scheduler "dna7" with entities [LocalPlayer, LocalPlayer], work=258*
132: 0x041A [0x45] LOAD_SCHEDULED_TASK: Load scheduler "dn07" with entities [LocalPlayer, LocalPlayer], work=[258*, 0*]
133: 0x042B [0x53] WAIT_SCHEDULER_TASK: Wait for scheduler "pnb1" with entities [Naja Salaheem (ID: 16982156/0x0103208C), Naja Salaheem (ID: 16982156/0x0103208C)]
134: 0x0438 [0x01] GOTO 0x031D

SUBROUTINE_043E:
135: 0x043E [0x1A] CALL_SUBROUTINE(address=0xBDDB)
136: 0x0441 [0x1C] WAIT(30* ticks)
137: 0x0444 [0x7B] Naja Salaheem (ID: 16982156/0x0103208C) stops talking
138: 0x0449 [0x6B] STOP_AND_IDLE: Naja Salaheem (ID: 16982156/0x0103208C) stops current action and resets to idle (animation="idl0")
139: 0x0452 [0x29] REQ_SET_WAIT(priority=0x10, entity_id=Naja Salaheem (ID: 16982156/0x0103208C), tag_num=0x65)
140: 0x0459 [0x29] REQ_SET_WAIT(priority=0x10, entity_id=LocalPlayer, tag_num=0x42)
141: 0x0460 [0x1C] WAIT(60* ticks)
142: 0x0463 [0x52] END_LOAD_SCHEDULER: End scheduler "dnb7" with entities [LocalPlayer, LocalPlayer], work=258*
143: 0x0472 [0x45] LOAD_SCHEDULED_TASK: Load scheduler "dn08" with entities [LocalPlayer, LocalPlayer], work=[258*, 0*]
144: 0x0483 [0x1C] WAIT(15* ticks)
145: 0x0486 [0x1A] CALL_SUBROUTINE(address=0xBDBA)
146: 0x0489 [0x2B] Naja Salaheem (ID: 16982156/0x0103208C) [7078*]:
    → "Your long journey has been worthwhile. We've been waiting for ya."
147: 0x0490 [0x23] WAIT_FOR_DIALOG_INTERACTION
148: 0x0491 [0x5B] LOAD_EXT_SCHEDULER: Load scheduler "tlk0" with entities [Naja Salaheem (ID: 16982156/0x0103208C), Naja Salaheem (ID: 16982156/0x0103208C)], work=833*
149: 0x04A0 [0x2B] Naja Salaheem (ID: 16982156/0x0103208C) [7079*]:
    → "Most of our work is official Empire business. In fact, we're the only mercenary organization in all of Al Zahbi that the rrroyal family puts its trust in. We're the best of the best, the crrream of the crop."
150: 0x04A7 [0x23] WAIT_FOR_DIALOG_INTERACTION
151: 0x04A8 [0x5B] LOAD_EXT_SCHEDULER: Load scheduler "tlk1" with entities [Naja Salaheem (ID: 16982156/0x0103208C), Naja Salaheem (ID: 16982156/0x0103208C)], work=833*
152: 0x04B7 [0x2B] Naja Salaheem (ID: 16982156/0x0103208C) [7080*]:
    → "But ya won't get any lucrative offers just finishin' up grrrunt work, so don't go thinkin' ya can slack off."
153: 0x04BE [0x23] WAIT_FOR_DIALOG_INTERACTION
154: 0x04BF [0x2B] Naja Salaheem (ID: 16982156/0x0103208C) [7082*]:
    → "Now do ya get it? First, ya gotta show me what you're made of."
155: 0x04C6 [0x23] WAIT_FOR_DIALOG_INTERACTION
156: 0x04C7 [0x53] WAIT_SCHEDULER_TASK: Wait for scheduler "tlk1" with entities [Naja Salaheem (ID: 16982156/0x0103208C), Naja Salaheem (ID: 16982156/0x0103208C)]
157: 0x04D4 [0x52] END_LOAD_SCHEDULER: End scheduler "dn08" with entities [LocalPlayer, LocalPlayer], work=258*
158: 0x04E3 [0x45] LOAD_SCHEDULED_TASK: Load scheduler "dn09" with entities [LocalPlayer, LocalPlayer], work=[258*, 0*]
159: 0x04F4 [0x5B] LOAD_EXT_SCHEDULER: Load scheduler "pas0" with entities [Naja Salaheem (ID: 16982156/0x0103208C), Naja Salaheem (ID: 16982156/0x0103208C)], work=835*
160: 0x0503 [0x1C] WAIT(180* ticks)
161: 0x0506 [0x03] Work_Zone[2] = 775*
162: 0x050B [0x48] [System] [7081*]:
    → "Naja hands you $6."
163: 0x050E [0x1C] WAIT(60* ticks)
164: 0x0511 [0x53] WAIT_SCHEDULER_TASK: Wait for scheduler "pas0" with entities [Naja Salaheem (ID: 16982156/0x0103208C), Naja Salaheem (ID: 16982156/0x0103208C)]
165: 0x051E [0x81] SET_ENTITY_BLINKING(blink_flag=0x00, entity=Naja Salaheem (ID: 16982156/0x0103208C))
166: 0x0524 [0x5B] LOAD_EXT_SCHEDULER: Load scheduler "thk0" with entities [Naja Salaheem (ID: 16982156/0x0103208C), Naja Salaheem (ID: 16982156/0x0103208C)], work=833*
167: 0x0533 [0x1C] WAIT(30* ticks)
168: 0x0536 [0x52] END_LOAD_SCHEDULER: End scheduler "dn09" with entities [LocalPlayer, LocalPlayer], work=258*
169: 0x0545 [0x45] LOAD_SCHEDULED_TASK: Load scheduler "dn16" with entities [LocalPlayer, LocalPlayer], work=[258*, 0*]
170: 0x0556 [0x53] WAIT_SCHEDULER_TASK: Wait for scheduler "thk0" with entities [Naja Salaheem (ID: 16982156/0x0103208C), Naja Salaheem (ID: 16982156/0x0103208C)]
171: 0x0563 [0x2B] Naja Salaheem (ID: 16982156/0x0103208C) [7083*]:
    → "There's a prrrominent organization in this nation called the "Immortals." Ever heard of them?"
172: 0x056A [0x23] WAIT_FOR_DIALOG_INTERACTION
173: 0x056B [0x81] SET_ENTITY_BLINKING(blink_flag=0x01, entity=Naja Salaheem (ID: 16982156/0x0103208C))
174: 0x0571 [0x5B] LOAD_EXT_SCHEDULER: Load scheduler "thk1" with entities [Naja Salaheem (ID: 16982156/0x0103208C), Naja Salaheem (ID: 16982156/0x0103208C)], work=833*
175: 0x0580 [0x52] END_LOAD_SCHEDULER: End scheduler "dn16" with entities [LocalPlayer, LocalPlayer], work=258*
176: 0x058F [0x45] LOAD_SCHEDULED_TASK: Load scheduler "dn10" with entities [LocalPlayer, LocalPlayer], work=[258*, 0*]
177: 0x05A0 [0x2B] Naja Salaheem (ID: 16982156/0x0103208C) [7084*]:
    → "Mothers here use stories of the Immortals to scarrre their kittens into eating their vegetables. The Immortals are the Empress's personal bodyguards, and they only hire the best of the best blue mages arrround."
178: 0x05A7 [0x23] WAIT_FOR_DIALOG_INTERACTION
179: 0x05A8 [0x5B] LOAD_EXT_SCHEDULER: Load scheduler "tlk0" with entities [Naja Salaheem (ID: 16982156/0x0103208C), Naja Salaheem (ID: 16982156/0x0103208C)], work=833*
180: 0x05B7 [0x2B] Naja Salaheem (ID: 16982156/0x0103208C) [7085*]:
    → "Common folk like us aren't even allowed a glimpse of Her Rrroyal Highness."
181: 0x05BE [0x23] WAIT_FOR_DIALOG_INTERACTION
182: 0x05BF [0x2B] Naja Salaheem (ID: 16982156/0x0103208C) [7086*]:
    → "But the Immortals, they're different. They have special perrrmission to attend to the Empress at close quarters."
183: 0x05C6 [0x23] WAIT_FOR_DIALOG_INTERACTION
184: 0x05C7 [0x52] END_LOAD_SCHEDULER: End scheduler "dn10" with entities [LocalPlayer, LocalPlayer], work=258*
185: 0x05D6 [0x45] LOAD_SCHEDULED_TASK: Load scheduler "dn11" with entities [LocalPlayer, LocalPlayer], work=[258*, 0*]
186: 0x05E7 [0x5B] LOAD_EXT_SCHEDULER: Load scheduler "tlk1" with entities [Naja Salaheem (ID: 16982156/0x0103208C), Naja Salaheem (ID: 16982156/0x0103208C)], work=833*
187: 0x05F6 [0x53] WAIT_SCHEDULER_TASK: Wait for scheduler "tlk1" with entities [Naja Salaheem (ID: 16982156/0x0103208C), Naja Salaheem (ID: 16982156/0x0103208C)]
188: 0x0603 [0x2B] Naja Salaheem (ID: 16982156/0x0103208C) [7087*]:
    → "Is this sinkin' into that thick skull o' yours?"
189: 0x060A [0x23] WAIT_FOR_DIALOG_INTERACTION
190: 0x060B [0x2B] Naja Salaheem (ID: 16982156/0x0103208C) [7088*]:
    → "In other words, ya can't get anywhere in this nation without goin' through the Immortals first."
191: 0x0612 [0x23] WAIT_FOR_DIALOG_INTERACTION
192: 0x0613 [0x52] END_LOAD_SCHEDULER: End scheduler "dn11" with entities [LocalPlayer, LocalPlayer], work=258*
193: 0x0622 [0x45] LOAD_SCHEDULED_TASK: Load scheduler "dn12" with entities [LocalPlayer, LocalPlayer], work=[258*, 0*]
194: 0x0633 [0x2B] Naja Salaheem (ID: 16982156/0x0103208C) [7089*]:
    → "So beforrre ya do anything else, I need ya to go deliver this $3 and make yourself known."
195: 0x063A [0x23] WAIT_FOR_DIALOG_INTERACTION
196: 0x063B [0x2B] Naja Salaheem (ID: 16982156/0x0103208C) [7090*]:
    → "If ya manage to make it back alive, we can start thinkin' about what to do with ya."
197: 0x0642 [0x23] WAIT_FOR_DIALOG_INTERACTION
198: 0x0643 [0x52] END_LOAD_SCHEDULER: End scheduler "dn12" with entities [LocalPlayer, LocalPlayer], work=258*
199: 0x0652 [0x45] LOAD_SCHEDULED_TASK: Load scheduler "dn15" with entities [LocalPlayer, LocalPlayer], work=[258*, 0*]
200: 0x0663 [0x2B] Naja Salaheem (ID: 16982156/0x0103208C) [7091*]:
    → "The Immortals guard the Empress, ensure the safety of Al Zahbi, and manage affairs dealing with Assault."
201: 0x066A [0x23] WAIT_FOR_DIALOG_INTERACTION
202: 0x066B [0x2B] Naja Salaheem (ID: 16982156/0x0103208C) [7092*]:
    → "Each Assault warden is stationed at a staging point on the Ilrusi Atoll, Dvucca Isle, Halvung, in the domain of the Mamool Ja, or on Azouph Isle."
203: 0x0672 [0x23] WAIT_FOR_DIALOG_INTERACTION
204: 0x0673 [0x5B] LOAD_EXT_SCHEDULER: Load scheduler "pnt0" with entities [Naja Salaheem (ID: 16982156/0x0103208C), Naja Salaheem (ID: 16982156/0x0103208C)], work=833*
205: 0x0682 [0x52] END_LOAD_SCHEDULER: End scheduler "dn15" with entities [LocalPlayer, LocalPlayer], work=258*
206: 0x0691 [0x45] LOAD_SCHEDULED_TASK: Load scheduler "dn13" with entities [LocalPlayer, LocalPlayer], work=[258*, 0*]
207: 0x06A2 [0x2B] Naja Salaheem (ID: 16982156/0x0103208C) [7093*]:
    → "No matter how high and mighty the Immortals are, I'm surrre they're tired of being stuck out in the middle of nowhere with nothin' to do. They'll probably be glad to see ya."
208: 0x06A9 [0x23] WAIT_FOR_DIALOG_INTERACTION
209: 0x06AA [0x52] END_LOAD_SCHEDULER: End scheduler "dn13" with entities [LocalPlayer, LocalPlayer], work=258*
210: 0x06B9 [0x45] LOAD_SCHEDULED_TASK: Load scheduler "dn14" with entities [LocalPlayer, LocalPlayer], work=[258*, 0*]
211: 0x06CA [0x03] Work_Zone[2] = 775*
212: 0x06CF [0x2B] Naja Salaheem (ID: 16982156/0x0103208C) [7094*]:
    → "Go deliver this $3 and let 'em know who ya arrre! After that, we can start talking about your contrrract."
213: 0x06D6 [0x23] WAIT_FOR_DIALOG_INTERACTION
214: 0x06D7 [0x1A] CALL_SUBROUTINE(address=0xBDDB)
215: 0x06DA [0x1C] WAIT(30* ticks)
216: 0x06DD [0x6B] STOP_AND_IDLE: Naja Salaheem (ID: 16982156/0x0103208C) stops current action and resets to idle (animation="idl0")
217: 0x06E6 [0x29] REQ_SET_WAIT(priority=0x10, entity_id=Naja Salaheem (ID: 16982156/0x0103208C), tag_num=0x25)
218: 0x06ED [0x52] END_LOAD_SCHEDULER: End scheduler "dn14" with entities [LocalPlayer, LocalPlayer], work=258*
219: 0x06FC [0x02] IF !(ExtData[1]->WorkLocal[0] == 1*) GOTO 0x0710
220: 0x0704 [0x47] UPDATE_PLAYER_POS(25.591*, -45.658*, -7.804*, yaw=180.0°*)
221: 0x070E [0x47] WAIT_PLAYER_POS_UPDATE
222: 0x0710 [0x46] CAMERA_CONTROL: Restore default settings
223: 0x0712 [0x45] LOAD_SCHEDULED_TASK: Load scheduler "fdi2" with entities [LocalPlayer, LocalPlayer], work=[200*, 0*]
224: 0x0723 [0x21] END_EVENT
225: 0x0724 [0x00] END_REQSTACK()
```

#### Data or dead code:

```
# Dead code (unreachable instructions):
     0x043B [0x01] GOTO 0x043E
```

### Event 3002

#### Metadata

| Field        | Value      |
|--------------|------------|
| Entrypoint   | 0x0725     |
| Data Size    | 2464 bytes |
| Instructions | 311        |

```
      00 01 02 03 04 05 06 07  08 09 0A 0B 0C 0D 0E 0F
      -- -- -- -- -- -- -- --  -- -- -- -- -- -- -- --
0720:                42 03 00  00 09 10 1A DB BD 46 01       B........F.
0730: 38 00 80 75 00 01 80 75  01 79 00 F0 FF FF 7F F0  8..u...u.y......
0740: FF FF 7F 92 01 8C 20 03  01 92 01 8D 20 03 01 94  ...... ..... ...
0750: 01 F0 FF FF 7F 94 01 8C  20 03 01 94 01 8D 20 03  ........ ..... .
0760: 01 29 10 F0 FF FF 7F 11  29 10 8C 20 03 01 24 80  .)......).. ..$.
0770: F0 FF FF 7F 80 8C 20 03  01 80 8D 20 03 01 5C 00  ...... .... ..\.
0780: 35 80 5C 01 35 80 9A 1C  09 80 27 10 F0 FF FF 7F  5.\.5.....'.....
0790: 41 45 03 80 F0 FF FF 7F  F0 FF FF 7F 64 6E 30 30  AE..........dn00
07A0: 04 80 1C 05 80 1A BA BD  2A 10 F0 FF FF 7F 1C 36  ........*......6
07B0: 80 52 03 80 F0 FF FF 7F  F0 FF FF 7F 64 6E 30 30  .R..........dn00
07C0: 45 03 80 F0 FF FF 7F F0  FF FF 7F 31 63 30 30 04  E..........1c00.
07D0: 80 03 02 10 23 80 2B 8C  20 03 01 37 80 23 81 00  ....#.+. ..7.#..
07E0: 8C 20 03 01 5B 19 80 8C  20 03 01 8C 20 03 01 74  . ..[... ... ..t
07F0: 68 6B 30 53 8C 20 03 01  8C 20 03 01 74 68 6B 30  hk0S. ... ..thk0
0800: 81 01 8C 20 03 01 5B 19  80 8C 20 03 01 8C 20 03  ... ..[... ... .
0810: 01 74 68 6B 31 53 8C 20  03 01 8C 20 03 01 74 68  .thk1S. ... ..th
0820: 6B 31 52 03 80 F0 FF FF  7F F0 FF FF 7F 31 63 30  k1R..........1c0
0830: 30 45 03 80 F0 FF FF 7F  F0 FF FF 7F 31 63 30 31  0E..........1c01
0840: 04 80 5B 22 80 8C 20 03  01 8C 20 03 01 68 61 70  ..[".. ... ..hap
0850: 30 81 00 8C 20 03 01 2B  8C 20 03 01 38 80 23 1A  0... ..+. ..8.#.
0860: DB BD 1C 09 80 81 01 8C  20 03 01 6B 69 64 6C 30  ........ ..kidl0
0870: 8C 20 03 01 29 10 8C 20  03 01 66 1C 05 80 4A 8C  . ..).. ..f...J.
0880: 20 03 01 F0 FF FF 7F 6F  76 8C 20 03 01 4A F0 FF   ......ov. ..J..
0890: FF 7F 8C 20 03 01 1C 0A  80 52 03 80 F0 FF FF 7F  ... .....R......
08A0: F0 FF FF 7F 31 63 30 31  45 03 80 F0 FF FF 7F F0  ....1c01E.......
08B0: FF FF 7F 31 63 30 32 04  80 1C 05 80 1A BA BD 2B  ...1c02........+
08C0: 8C 20 03 01 39 80 23 6E  F0 FF FF 7F 1B 80 99 F0  . ..9.#n........
08D0: FF FF 7F 99 F0 FF FF 7F  1C 11 80 2B 8C 20 03 01  ...........+. ..
08E0: 3A 80 23 7B 8C 20 03 01  24 3B 80 04 80 04 80 25  :.#{. ..$;.....%
08F0: 02 00 10 13 80 00 A8 09  6E F0 FF FF 7F 1B 80 99  ........n.......
0900: F0 FF FF 7F 99 F0 FF FF  7F 1C 11 80 52 03 80 F0  ............R...
0910: FF FF 7F F0 FF FF 7F 31  63 30 32 45 03 80 F0 FF  .......1c02E....
0920: FF 7F F0 FF FF 7F 31 63  30 33 04 80 5B 22 80 8C  ......1c03..["..
0930: 20 03 01 8C 20 03 01 68  61 70 30 81 00 8C 20 03   ... ..hap0... .
0940: 01 2B 8C 20 03 01 3C 80  23 5B 22 80 8C 20 03 01  .+. ..<.#[".. ..
0950: 8C 20 03 01 68 61 70 31  2B 8C 20 03 01 3D 80 23  . ..hap1+. ..=.#
0960: 52 03 80 F0 FF FF 7F F0  FF FF 7F 31 63 30 33 45  R..........1c03E
0970: 03 80 F0 FF FF 7F F0 FF  FF 7F 31 63 30 34 04 80  ..........1c04..
0980: 5B 22 80 8C 20 03 01 8C  20 03 01 68 61 70 72 53  [".. ... ..haprS
0990: 8C 20 03 01 8C 20 03 01  68 61 70 72 81 01 8C 20  . ... ..hapr... 
09A0: 03 01 01 E8 08 01 A8 09  6E F0 FF FF 7F 18 80 99  ........n.......
09B0: F0 FF FF 7F 99 F0 FF FF  7F 1C 0A 80 52 03 80 F0  ............R...
09C0: FF FF 7F F0 FF FF 7F 31  63 30 32 45 03 80 F0 FF  .......1c02E....
09D0: FF 7F F0 FF FF 7F 31 63  39 38 04 80 81 00 8C 20  ......1c98..... 
09E0: 03 01 5B 22 80 8C 20 03  01 8C 20 03 01 68 61 70  ..[".. ... ..hap
09F0: 30 2B 8C 20 03 01 3E 80  23 53 8C 20 03 01 8C 20  0+. ..>.#S. ... 
0A00: 03 01 68 61 70 30 27 10  8C 20 03 01 75 2B 8C 20  ..hap0'.. ..u+. 
0A10: 03 01 3F 80 23 2A 10 8C  20 03 01 1C 0A 80 52 03  ..?.#*.. .....R.
0A20: 80 F0 FF FF 7F F0 FF FF  7F 31 63 30 34 45 03 80  .........1c04E..
0A30: F0 FF FF 7F F0 FF FF 7F  31 63 30 35 04 80 29 10  ........1c05..).
0A40: F0 FF FF 7F 34 1C 36 80  48 40 80 1C 0A 80 53 8C  ....4.6.H@....S.
0A50: 20 03 01 8C 20 03 01 70  61 73 30 5D 04 80 41 80   ... ..pas0]..A.
0A60: 81 00 8C 20 03 01 5B 19  80 8C 20 03 01 8C 20 03  ... ..[... ... .
0A70: 01 74 68 6B 30 1C 11 80  2B 8C 20 03 01 42 80 23  .thk0...+. ..B.#
0A80: 53 8C 20 03 01 8C 20 03  01 74 68 6B 30 5B 19 80  S. ... ..thk0[..
0A90: 8C 20 03 01 8C 20 03 01  74 68 6B 31 81 01 8C 20  . ... ..thk1... 
0AA0: 03 01 53 8C 20 03 01 8C  20 03 01 74 68 6B 31 27  ..S. ... ..thk1'
0AB0: 10 8C 20 03 01 74 1C 09  80 1A DB BD 1C 09 80 2A  .. ..t.........*
0AC0: 10 8C 20 03 01 6B 69 64  6C 30 8C 20 03 01 29 10  .. ..kidl0. ..).
0AD0: 8C 20 03 01 65 29 10 F0  FF FF 7F 42 81 00 8C 20  . ..e).....B... 
0AE0: 03 01 5B 15 80 8C 20 03  01 8C 20 03 01 67 69 7A  ..[... ... ..giz
0AF0: 30 53 8C 20 03 01 8C 20  03 01 67 69 7A 30 45 03  0S. ... ..giz0E.
0B00: 80 F0 FF FF 7F F0 FF FF  7F 38 30 33 32 04 80 1C  .........8032...
0B10: 06 80 45 03 80 F0 FF FF  7F F0 FF FF 7F 38 30 33  ..E..........803
0B20: 32 04 80 1C 06 80 48 43  80 23 5C 00 44 80 5C 01  2.....HC.#\.D.\.
0B30: 44 80 9A 52 03 80 F0 FF  FF 7F F0 FF FF 7F 31 63  D..R..........1c
0B40: 30 35 45 03 80 F0 FF FF  7F F0 FF FF 7F 31 63 30  05E..........1c0
0B50: 36 04 80 1A BA BD 5B 15  80 8C 20 03 01 8C 20 03  6.....[... ... .
0B60: 01 67 69 7A 31 2B 8C 20  03 01 45 80 23 52 03 80  .giz1+. ..E.#R..
0B70: F0 FF FF 7F F0 FF FF 7F  31 63 30 36 45 03 80 F0  ........1c06E...
0B80: FF FF 7F F0 FF FF 7F 31  63 30 37 04 80 53 8C 20  .......1c07..S. 
0B90: 03 01 8C 20 03 01 67 69  7A 31 5B 15 80 8C 20 03  ... ..giz1[... .
0BA0: 01 8C 20 03 01 67 69 7A  31 2B 8C 20 03 01 46 80  .. ..giz1+. ..F.
0BB0: 23 53 8C 20 03 01 8C 20  03 01 67 69 7A 31 5B 15  #S. ... ..giz1[.
0BC0: 80 8C 20 03 01 8C 20 03  01 67 69 7A 31 2B 8C 20  .. ... ..giz1+. 
0BD0: 03 01 47 80 23 52 03 80  F0 FF FF 7F F0 FF FF 7F  ..G.#R..........
0BE0: 31 63 30 37 45 03 80 F0  FF FF 7F F0 FF FF 7F 31  1c07E..........1
0BF0: 63 30 38 04 80 53 8C 20  03 01 8C 20 03 01 67 69  c08..S. ... ..gi
0C00: 7A 31 5B 15 80 8C 20 03  01 8C 20 03 01 67 69 7A  z1[... ... ..giz
0C10: 31 2B 8C 20 03 01 48 80  23 53 8C 20 03 01 8C 20  1+. ..H.#S. ... 
0C20: 03 01 67 69 7A 31 52 03  80 F0 FF FF 7F F0 FF FF  ..giz1R.........
0C30: 7F 31 63 30 38 45 03 80  F0 FF FF 7F F0 FF FF 7F  .1c08E..........
0C40: 31 63 30 39 04 80 2B 8C  20 03 01 49 80 23 27 10  1c09..+. ..I.#'.
0C50: 8C 20 03 01 67 2B 8C 20  03 01 4A 80 23 2A 10 8C  . ..g+. ..J.#*..
0C60: 20 03 01 5D 04 80 0A 80  1A DB BD 1C 09 80 5B 02   ..]..........[.
0C70: 80 8C 20 03 01 8C 20 03  01 64 73 6B 6C 53 8C 20  .. ... ..dsklS. 
0C80: 03 01 8C 20 03 01 64 73  6B 6C 52 03 80 F0 FF FF  ... ..dsklR.....
0C90: 7F F0 FF FF 7F 31 63 30  39 45 03 80 F0 FF FF 7F  .....1c09E......
0CA0: F0 FF FF 7F 31 63 31 30  04 80 45 0B 80 F0 FF FF  ....1c10..E.....
0CB0: 7F F0 FF FF 7F 66 64 69  32 04 80 5B 02 80 8C 20  .....fdi2..[... 
0CC0: 03 01 8C 20 03 01 64 73  6B 31 1C 09 80 2B 8C 20  ... ..dsk1...+. 
0CD0: 03 01 4B 80 23 53 8C 20  03 01 8C 20 03 01 64 73  ..K.#S. ... ..ds
0CE0: 6B 31 5C 00 4C 80 5C 01  4C 80 9A 52 03 80 F0 FF  k1\.L.\.L..R....
0CF0: FF 7F F0 FF FF 7F 31 63  31 30 45 03 80 F0 FF FF  ......1c10E.....
0D00: 7F F0 FF FF 7F 31 63 31  31 04 80 5B 19 80 8C 20  .....1c11..[... 
0D10: 03 01 8C 20 03 01 70 6E  74 30 27 10 F0 FF FF 7F  ... ..pnt0'.....
0D20: 0E 1C 0A 80 2B 8C 20 03  01 4D 80 23 53 8C 20 03  ....+. ..M.#S. .
0D30: 01 8C 20 03 01 70 6E 74  30 5B 02 80 8C 20 03 01  .. ..pnt0[... ..
0D40: 8C 20 03 01 70 6E 74 31  53 8C 20 03 01 8C 20 03  . ..pnt1S. ... .
0D50: 01 70 6E 74 31 2B 8C 20  03 01 4E 80 23 52 03 80  .pnt1+. ..N.#R..
0D60: F0 FF FF 7F F0 FF FF 7F  31 63 31 31 45 03 80 F0  ........1c11E...
0D70: FF FF 7F F0 FF FF 7F 31  63 32 30 04 80 2B 8C 20  .......1c20..+. 
0D80: 03 01 4F 80 23 2B 8C 20  03 01 50 80 23 52 03 80  ..O.#+. ..P.#R..
0D90: F0 FF FF 7F F0 FF FF 7F  31 63 32 30 45 03 80 F0  ........1c20E...
0DA0: FF FF 7F F0 FF FF 7F 31  63 31 32 04 80 5B 02 80  .......1c12..[..
0DB0: 8C 20 03 01 8C 20 03 01  61 67 72 30 81 00 8C 20  . ... ..agr0... 
0DC0: 03 01 7C 00 8C 20 03 01  1C 09 80 2B 8C 20 03 01  ..|.. .....+. ..
0DD0: 51 80 23 53 8C 20 03 01  8C 20 03 01 61 67 72 30  Q.#S. ... ..agr0
0DE0: 7C 01 8C 20 03 01 2B 8C  20 03 01 52 80 23 5B 02  |.. ..+. ..R.#[.
0DF0: 80 8C 20 03 01 8C 20 03  01 61 67 62 30 2B 8C 20  .. ... ..agb0+. 
0E00: 03 01 53 80 23 53 8C 20  03 01 8C 20 03 01 61 67  ..S.#S. ... ..ag
0E10: 62 30 1C 09 80 2B 8C 20  03 01 54 80 23 52 03 80  b0...+. ..T.#R..
0E20: F0 FF FF 7F F0 FF FF 7F  31 63 31 32 45 03 80 F0  ........1c12E...
0E30: FF FF 7F F0 FF FF 7F 31  63 32 31 04 80 81 01 8C  .......1c21.....
0E40: 20 03 01 5B 02 80 8C 20  03 01 8C 20 03 01 61 67   ..[... ... ..ag
0E50: 72 31 2B 8C 20 03 01 55  80 23 5D 04 80 0A 80 1A  r1+. ..U.#].....
0E60: DB BD 1C 0A 80 53 8C 20  03 01 8C 20 03 01 61 67  .....S. ... ..ag
0E70: 72 31 5C 00 35 80 5C 01  35 80 9A 1C 09 80 52 03  r1\.5.\.5.....R.
0E80: 80 F0 FF FF 7F F0 FF FF  7F 31 63 32 31 45 03 80  .........1c21E..
0E90: F0 FF FF 7F F0 FF FF 7F  31 63 31 33 04 80 1A BA  ........1c13....
0EA0: BD 5B 19 80 8C 20 03 01  8C 20 03 01 74 6C 6B 30  .[... ... ..tlk0
0EB0: 2B 8C 20 03 01 56 80 23  5B 19 80 8C 20 03 01 8C  +. ..V.#[... ...
0EC0: 20 03 01 74 6C 6B 31 1C  09 80 52 03 80 F0 FF FF   ..tlk1...R.....
0ED0: 7F F0 FF FF 7F 31 63 31  33 27 10 12 21 03 01 55  .....1c13'..!..U
0EE0: 27 10 F0 FF FF 7F 35 2B  8C 20 03 01 57 80 23 2A  '.....5+. ..W.#*
0EF0: 10 12 21 03 01 75 00 01  80 75 01 4E 00 F0 FF FF  ..!..u...u.N....
0F00: 7F 29 10 F0 FF FF 7F 42  80 F0 FF FF 7F 1C 09 80  .).....B........
0F10: 45 03 80 F0 FF FF 7F F0  FF FF 7F 31 63 31 34 04  E..........1c14.
0F20: 80 1C 05 80 1A BA BD 55  03 80 F0 FF FF 7F F0 FF  .......U........
0F30: FF 7F 31 63 31 34 45 03  80 F0 FF FF 7F F0 FF FF  ..1c14E.........
0F40: 7F 31 63 31 35 04 80 2B  8C 20 03 01 58 80 23 55  .1c15..+. ..X.#U
0F50: 03 80 F0 FF FF 7F F0 FF  FF 7F 31 63 31 35 45 03  ..........1c15E.
0F60: 80 F0 FF FF 7F F0 FF FF  7F 31 63 31 36 04 80 5B  .........1c16..[
0F70: 19 80 8C 20 03 01 8C 20  03 01 64 73 6B 30 2B 8C  ... ... ..dsk0+.
0F80: 20 03 01 59 80 23 53 8C  20 03 01 8C 20 03 01 64   ..Y.#S. ... ..d
0F90: 73 6B 30 2B 8C 20 03 01  5A 80 23 55 03 80 F0 FF  sk0+. ..Z.#U....
0FA0: FF 7F F0 FF FF 7F 31 63  31 36 45 03 80 F0 FF FF  ......1c16E.....
0FB0: 7F F0 FF FF 7F 31 63 31  37 04 80 5B 19 80 8C 20  .....1c17..[... 
0FC0: 03 01 8C 20 03 01 64 73  74 30 2B 8C 20 03 01 5B  ... ..dst0+. ..[
0FD0: 80 23 2B 8C 20 03 01 5C  80 23 5B 19 80 8C 20 03  .#+. ..\.#[... .
0FE0: 01 8C 20 03 01 64 73 74  31 53 8C 20 03 01 8C 20  .. ..dst1S. ... 
0FF0: 03 01 64 73 74 31 2B 8C  20 03 01 5D 80 23 52 03  ..dst1+. ..].#R.
1000: 80 F0 FF FF 7F F0 FF FF  7F 31 63 31 37 45 03 80  .........1c17E..
1010: F0 FF FF 7F F0 FF FF 7F  31 63 31 38 04 80 55 03  ........1c18..U.
1020: 80 F0 FF FF 7F F0 FF FF  7F 31 63 31 38 45 03 80  .........1c18E..
1030: F0 FF FF 7F F0 FF FF 7F  31 63 31 39 04 80 5B 19  ........1c19..[.
1040: 80 8C 20 03 01 8C 20 03  01 64 73 6B 31 53 8C 20  .. ... ..dsk1S. 
1050: 03 01 8C 20 03 01 64 73  6B 31 5B 19 80 8C 20 03  ... ..dsk1[... .
1060: 01 8C 20 03 01 70 6E 74  30 1C 09 80 2B 8C 20 03  .. ..pnt0...+. .
1070: 01 5E 80 23 1C 09 80 1A  DB BD 1C 09 80 52 03 80  .^.#.........R..
1080: F0 FF FF 7F F0 FF FF 7F  31 63 31 39 6B 69 64 6C  ........1c19kidl
1090: 30 8C 20 03 01 29 10 8C  20 03 01 25 02 00 00 13  0. ..).. ..%....
10A0: 80 01 B0 10 47 00 31 80  32 80 33 80 34 80 47 01  ....G.1.2.3.4.G.
10B0: 46 00 45 0B 80 F0 FF FF  7F F0 FF FF 7F 66 64 69  F.E..........fdi
10C0: 32 04 80 21 00                                    2..!.           
```

#### Opcodes

```
  0: 0x0725 [0x42] SET_CLI_EVENT_CANCEL_DATA()
  1: 0x0726 [0x03] ExtData[1]->WorkLocal[0] = Work_Zone[9]
  2: 0x072B [0x1A] CALL_SUBROUTINE(address=0xBDDB)
  3: 0x072E [0x46] CAMERA_CONTROL: Disable user control
  4: 0x0730 [0x38] SET_CLIENT_EVENT_MODE(mode=19*)
  5: 0x0733 [0x75] LOAD_ROOM(Load indoor room, room=563*)
  6: 0x0737 [0x75] LOAD_ROOM(No action)
  7: 0x0739 [0x79] LocalPlayer looks at LocalPlayer (Basic look)
  8: 0x0743 [0x92] Naja Salaheem (ID: 16982156/0x0103208C)->Render.Flags3 ^= 0x01
  9: 0x0749 [0x92] Abquhbah (ID: 16982157/0x0103208D)->Render.Flags3 ^= 0x01
 10: 0x074F [0x94] LocalPlayer->Render.Flags3 ^= 0x01
 11: 0x0755 [0x94] Naja Salaheem (ID: 16982156/0x0103208C)->Render.Flags3 ^= 0x01
 12: 0x075B [0x94] Abquhbah (ID: 16982157/0x0103208D)->Render.Flags3 ^= 0x01
 13: 0x0761 [0x29] REQ_SET_WAIT(priority=0x10, entity_id=LocalPlayer, tag_num=0x11)
 14: 0x0768 [0x29] REQ_SET_WAIT(priority=0x10, entity_id=Naja Salaheem (ID: 16982156/0x0103208C), tag_num=0x24)
 15: 0x076F [0x80] LOAD_WAIT(entity=LocalPlayer)
 16: 0x0774 [0x80] LOAD_WAIT(entity=Naja Salaheem (ID: 16982156/0x0103208C))
 17: 0x0779 [0x80] LOAD_WAIT(entity=Abquhbah (ID: 16982157/0x0103208D))
 18: 0x077E [0x5C] MUSIC_CONTROL: Set Idle (Day) music to song 178*
 19: 0x0782 [0x5C] MUSIC_CONTROL: Set Idle (Night) music to song 178*
 20: 0x0786 [0x9A] WAIT_MUSIC_SERVER()
 21: 0x0787 [0x1C] WAIT(30* ticks)
 22: 0x078A [0x27] REQ_SET(priority=0x10, entity_id=LocalPlayer, tag_num=0x41)
 23: 0x0791 [0x45] LOAD_SCHEDULED_TASK: Load scheduler "dn00" with entities [LocalPlayer, LocalPlayer], work=[258*, 0*]
 24: 0x07A2 [0x1C] WAIT(15* ticks)
 25: 0x07A5 [0x1A] CALL_SUBROUTINE(address=0xBDBA)
 26: 0x07A8 [0x2A] GET_REQ_LEVEL(level=16, entity_id=LocalPlayer)
 27: 0x07AE [0x1C] WAIT(120* ticks)
 28: 0x07B1 [0x52] END_LOAD_SCHEDULER: End scheduler "dn00" with entities [LocalPlayer, LocalPlayer], work=258*
 29: 0x07C0 [0x45] LOAD_SCHEDULED_TASK: Load scheduler "1c00" with entities [LocalPlayer, LocalPlayer], work=[258*, 0*]
 30: 0x07D1 [0x03] Work_Zone[2] = 775*
 31: 0x07D6 [0x2B] Naja Salaheem (ID: 16982156/0x0103208C) [7098*]:
    → "Oho, ya made it back in one piece? I figured you'd be chopped liver by now."
 32: 0x07DD [0x23] WAIT_FOR_DIALOG_INTERACTION
 33: 0x07DE [0x81] SET_ENTITY_BLINKING(blink_flag=0x00, entity=Naja Salaheem (ID: 16982156/0x0103208C))
 34: 0x07E4 [0x5B] LOAD_EXT_SCHEDULER: Load scheduler "thk0" with entities [Naja Salaheem (ID: 16982156/0x0103208C), Naja Salaheem (ID: 16982156/0x0103208C)], work=833*
 35: 0x07F3 [0x53] WAIT_SCHEDULER_TASK: Wait for scheduler "thk0" with entities [Naja Salaheem (ID: 16982156/0x0103208C), Naja Salaheem (ID: 16982156/0x0103208C)]
 36: 0x0800 [0x81] SET_ENTITY_BLINKING(blink_flag=0x01, entity=Naja Salaheem (ID: 16982156/0x0103208C))
 37: 0x0806 [0x5B] LOAD_EXT_SCHEDULER: Load scheduler "thk1" with entities [Naja Salaheem (ID: 16982156/0x0103208C), Naja Salaheem (ID: 16982156/0x0103208C)], work=833*
 38: 0x0815 [0x53] WAIT_SCHEDULER_TASK: Wait for scheduler "thk1" with entities [Naja Salaheem (ID: 16982156/0x0103208C), Naja Salaheem (ID: 16982156/0x0103208C)]
 39: 0x0822 [0x52] END_LOAD_SCHEDULER: End scheduler "1c00" with entities [LocalPlayer, LocalPlayer], work=258*
 40: 0x0831 [0x45] LOAD_SCHEDULED_TASK: Load scheduler "1c01" with entities [LocalPlayer, LocalPlayer], work=[258*, 0*]
 41: 0x0842 [0x5B] LOAD_EXT_SCHEDULER: Load scheduler "hap0" with entities [Naja Salaheem (ID: 16982156/0x0103208C), Naja Salaheem (ID: 16982156/0x0103208C)], work=835*
 42: 0x0851 [0x81] SET_ENTITY_BLINKING(blink_flag=0x00, entity=Naja Salaheem (ID: 16982156/0x0103208C))
 43: 0x0857 [0x2B] Naja Salaheem (ID: 16982156/0x0103208C) [7099*]:
    → "Heh, sorry 'bout that. I'm sure it was a walk in the park for an adventurer like you."
 44: 0x085E [0x23] WAIT_FOR_DIALOG_INTERACTION
 45: 0x085F [0x1A] CALL_SUBROUTINE(address=0xBDDB)
 46: 0x0862 [0x1C] WAIT(30* ticks)
 47: 0x0865 [0x81] SET_ENTITY_BLINKING(blink_flag=0x01, entity=Naja Salaheem (ID: 16982156/0x0103208C))
 48: 0x086B [0x6B] STOP_AND_IDLE: Naja Salaheem (ID: 16982156/0x0103208C) stops current action and resets to idle (animation="idl0")
 49: 0x0874 [0x29] REQ_SET_WAIT(priority=0x10, entity_id=Naja Salaheem (ID: 16982156/0x0103208C), tag_num=0x66)
 50: 0x087B [0x1C] WAIT(15* ticks)
 51: 0x087E [0x4A] Naja Salaheem (ID: 16982156/0x0103208C) looks at LocalPlayer
 52: 0x0887 [0x6F] WAIT_FRAME_DELAY: Yield until WaitTime reaches zero
 53: 0x0888 [0x76] CHECK_ENTITY_RENDER_FLAGS: Wait until Naja Salaheem (ID: 16982156/0x0103208C) Render.Flags0 and Render.Flags3 conditions are met
 54: 0x088D [0x4A] LocalPlayer looks at Naja Salaheem (ID: 16982156/0x0103208C)
 55: 0x0896 [0x1C] WAIT(60* ticks)
 56: 0x0899 [0x52] END_LOAD_SCHEDULER: End scheduler "1c01" with entities [LocalPlayer, LocalPlayer], work=258*
 57: 0x08A8 [0x45] LOAD_SCHEDULED_TASK: Load scheduler "1c02" with entities [LocalPlayer, LocalPlayer], work=[258*, 0*]
 58: 0x08B9 [0x1C] WAIT(15* ticks)
 59: 0x08BC [0x1A] CALL_SUBROUTINE(address=0xBDBA)
 60: 0x08BF [0x2B] Naja Salaheem (ID: 16982156/0x0103208C) [7100*]:
    → "What'd ya say your name was again, kid? Judging by your skills, you've gotta be pretty famous, rrright?"
 61: 0x08C6 [0x23] WAIT_FOR_DIALOG_INTERACTION
 62: 0x08C7 [0x6E] LocalPlayer uses emote 6*
 63: 0x08CE [0x99] Wait for LocalPlayer animation to complete
 64: 0x08D3 [0x99] Wait for LocalPlayer animation to complete
 65: 0x08D8 [0x1C] WAIT(45* ticks)
 66: 0x08DB [0x2B] Naja Salaheem (ID: 16982156/0x0103208C) [7101*]:
    → "Well, what'rrre ya waitin' for? Give me your name."
 67: 0x08E2 [0x23] WAIT_FOR_DIALOG_INTERACTION
 68: 0x08E3 [0x7B] Naja Salaheem (ID: 16982156/0x0103208C) stops talking
 69: 0x08E8 [0x24] CREATE_DIALOG(message_id=7102*, default_option=0*, option_flags=0*)
    → "Give her your name? [Guess it wouldn't hurt.../No way.]"
 70: 0x08EF [0x25] WAIT_DIALOG_SELECT()
 71: 0x08F0 [0x02] IF !(Work_Zone[0] == 1*) GOTO 0x09A8
 72: 0x08F8 [0x6E] LocalPlayer uses emote 6*
 73: 0x08FF [0x99] Wait for LocalPlayer animation to complete
 74: 0x0904 [0x99] Wait for LocalPlayer animation to complete
 75: 0x0909 [0x1C] WAIT(45* ticks)
 76: 0x090C [0x52] END_LOAD_SCHEDULER: End scheduler "1c02" with entities [LocalPlayer, LocalPlayer], work=258*
 77: 0x091B [0x45] LOAD_SCHEDULED_TASK: Load scheduler "1c03" with entities [LocalPlayer, LocalPlayer], work=[258*, 0*]
 78: 0x092C [0x5B] LOAD_EXT_SCHEDULER: Load scheduler "hap0" with entities [Naja Salaheem (ID: 16982156/0x0103208C), Naja Salaheem (ID: 16982156/0x0103208C)], work=835*
 79: 0x093B [0x81] SET_ENTITY_BLINKING(blink_flag=0x00, entity=Naja Salaheem (ID: 16982156/0x0103208C))
 80: 0x0941 [0x2B] Naja Salaheem (ID: 16982156/0x0103208C) [7103*]:
    → "You don't want to give your name to poor little Naja?"
 81: 0x0948 [0x23] WAIT_FOR_DIALOG_INTERACTION
 82: 0x0949 [0x5B] LOAD_EXT_SCHEDULER: Load scheduler "hap1" with entities [Naja Salaheem (ID: 16982156/0x0103208C), Naja Salaheem (ID: 16982156/0x0103208C)], work=835*
 83: 0x0958 [0x2B] Naja Salaheem (ID: 16982156/0x0103208C) [7104*]:
    → "What would it hurt? I just wanna let all the other mercenaries know what a special [guy/gal] I've found."
 84: 0x095F [0x23] WAIT_FOR_DIALOG_INTERACTION
 85: 0x0960 [0x52] END_LOAD_SCHEDULER: End scheduler "1c03" with entities [LocalPlayer, LocalPlayer], work=258*
 86: 0x096F [0x45] LOAD_SCHEDULED_TASK: Load scheduler "1c04" with entities [LocalPlayer, LocalPlayer], work=[258*, 0*]
 87: 0x0980 [0x5B] LOAD_EXT_SCHEDULER: Load scheduler "hapr" with entities [Naja Salaheem (ID: 16982156/0x0103208C), Naja Salaheem (ID: 16982156/0x0103208C)], work=835*
 88: 0x098F [0x53] WAIT_SCHEDULER_TASK: Wait for scheduler "hapr" with entities [Naja Salaheem (ID: 16982156/0x0103208C), Naja Salaheem (ID: 16982156/0x0103208C)]
 89: 0x099C [0x81] SET_ENTITY_BLINKING(blink_flag=0x01, entity=Naja Salaheem (ID: 16982156/0x0103208C))
 90: 0x09A2 [0x01] GOTO 0x08E8

SUBROUTINE_09A8:
 91: 0x09A8 [0x6E] LocalPlayer uses emote 7*
 92: 0x09AF [0x99] Wait for LocalPlayer animation to complete
 93: 0x09B4 [0x99] Wait for LocalPlayer animation to complete
 94: 0x09B9 [0x1C] WAIT(60* ticks)
 95: 0x09BC [0x52] END_LOAD_SCHEDULER: End scheduler "1c02" with entities [LocalPlayer, LocalPlayer], work=258*
 96: 0x09CB [0x45] LOAD_SCHEDULED_TASK: Load scheduler "1c98" with entities [LocalPlayer, LocalPlayer], work=[258*, 0*]
 97: 0x09DC [0x81] SET_ENTITY_BLINKING(blink_flag=0x00, entity=Naja Salaheem (ID: 16982156/0x0103208C))
 98: 0x09E2 [0x5B] LOAD_EXT_SCHEDULER: Load scheduler "hap0" with entities [Naja Salaheem (ID: 16982156/0x0103208C), Naja Salaheem (ID: 16982156/0x0103208C)], work=835*
 99: 0x09F1 [0x2B] Naja Salaheem (ID: 16982156/0x0103208C) [7064*]:
    → "<Player>!"
100: 0x09F8 [0x23] WAIT_FOR_DIALOG_INTERACTION
101: 0x09F9 [0x53] WAIT_SCHEDULER_TASK: Wait for scheduler "hap0" with entities [Naja Salaheem (ID: 16982156/0x0103208C), Naja Salaheem (ID: 16982156/0x0103208C)]
102: 0x0A06 [0x27] REQ_SET(priority=0x10, entity_id=Naja Salaheem (ID: 16982156/0x0103208C), tag_num=0x75)
103: 0x0A0D [0x2B] Naja Salaheem (ID: 16982156/0x0103208C) [7105*]:
    → "Rowr! That name just scrrreams "power"! How d'ya spell that, anyway? You foreigners' names are a real headache. You're gonna have to wrrrite that one down for me."
104: 0x0A14 [0x23] WAIT_FOR_DIALOG_INTERACTION
105: 0x0A15 [0x2A] GET_REQ_LEVEL(level=16, entity_id=Naja Salaheem (ID: 16982156/0x0103208C))
106: 0x0A1B [0x1C] WAIT(60* ticks)
107: 0x0A1E [0x52] END_LOAD_SCHEDULER: End scheduler "1c04" with entities [LocalPlayer, LocalPlayer], work=258*
108: 0x0A2D [0x45] LOAD_SCHEDULED_TASK: Load scheduler "1c05" with entities [LocalPlayer, LocalPlayer], work=[258*, 0*]
109: 0x0A3E [0x29] REQ_SET_WAIT(priority=0x10, entity_id=LocalPlayer, tag_num=0x34)
110: 0x0A45 [0x1C] WAIT(120* ticks)
111: 0x0A48 [0x48] [System] [7106*]:
    → "<Player> writes [his/her] name down on a sheet of parchment."
112: 0x0A4B [0x1C] WAIT(60* ticks)
113: 0x0A4E [0x53] WAIT_SCHEDULER_TASK: Wait for scheduler "pas0" with entities [Naja Salaheem (ID: 16982156/0x0103208C), Naja Salaheem (ID: 16982156/0x0103208C)]
114: 0x0A5B [0x5D] SET_MUSIC_VOLUME(volume=0*, fade_time=300*)
115: 0x0A60 [0x81] SET_ENTITY_BLINKING(blink_flag=0x00, entity=Naja Salaheem (ID: 16982156/0x0103208C))
116: 0x0A66 [0x5B] LOAD_EXT_SCHEDULER: Load scheduler "thk0" with entities [Naja Salaheem (ID: 16982156/0x0103208C), Naja Salaheem (ID: 16982156/0x0103208C)], work=833*
117: 0x0A75 [0x1C] WAIT(45* ticks)
118: 0x0A78 [0x2B] Naja Salaheem (ID: 16982156/0x0103208C) [7107*]:
    → ""<Player>," is it? My... What an...interesting name."
119: 0x0A7F [0x23] WAIT_FOR_DIALOG_INTERACTION
120: 0x0A80 [0x53] WAIT_SCHEDULER_TASK: Wait for scheduler "thk0" with entities [Naja Salaheem (ID: 16982156/0x0103208C), Naja Salaheem (ID: 16982156/0x0103208C)]
121: 0x0A8D [0x5B] LOAD_EXT_SCHEDULER: Load scheduler "thk1" with entities [Naja Salaheem (ID: 16982156/0x0103208C), Naja Salaheem (ID: 16982156/0x0103208C)], work=833*
122: 0x0A9C [0x81] SET_ENTITY_BLINKING(blink_flag=0x01, entity=Naja Salaheem (ID: 16982156/0x0103208C))
123: 0x0AA2 [0x53] WAIT_SCHEDULER_TASK: Wait for scheduler "thk1" with entities [Naja Salaheem (ID: 16982156/0x0103208C), Naja Salaheem (ID: 16982156/0x0103208C)]
124: 0x0AAF [0x27] REQ_SET(priority=0x10, entity_id=Naja Salaheem (ID: 16982156/0x0103208C), tag_num=0x74)
125: 0x0AB6 [0x1C] WAIT(30* ticks)
126: 0x0AB9 [0x1A] CALL_SUBROUTINE(address=0xBDDB)
127: 0x0ABC [0x1C] WAIT(30* ticks)
128: 0x0ABF [0x2A] GET_REQ_LEVEL(level=16, entity_id=Naja Salaheem (ID: 16982156/0x0103208C))
129: 0x0AC5 [0x6B] STOP_AND_IDLE: Naja Salaheem (ID: 16982156/0x0103208C) stops current action and resets to idle (animation="idl0")
130: 0x0ACE [0x29] REQ_SET_WAIT(priority=0x10, entity_id=Naja Salaheem (ID: 16982156/0x0103208C), tag_num=0x65)
131: 0x0AD5 [0x29] REQ_SET_WAIT(priority=0x10, entity_id=LocalPlayer, tag_num=0x42)
132: 0x0ADC [0x81] SET_ENTITY_BLINKING(blink_flag=0x00, entity=Naja Salaheem (ID: 16982156/0x0103208C))
133: 0x0AE2 [0x5B] LOAD_EXT_SCHEDULER: Load scheduler "giz0" with entities [Naja Salaheem (ID: 16982156/0x0103208C), Naja Salaheem (ID: 16982156/0x0103208C)], work=836*
134: 0x0AF1 [0x53] WAIT_SCHEDULER_TASK: Wait for scheduler "giz0" with entities [Naja Salaheem (ID: 16982156/0x0103208C), Naja Salaheem (ID: 16982156/0x0103208C)]
135: 0x0AFE [0x45] LOAD_SCHEDULED_TASK: Load scheduler "8032" with entities [LocalPlayer, LocalPlayer], work=[258*, 0*]
136: 0x0B0F [0x1C] WAIT(180* ticks)
137: 0x0B12 [0x45] LOAD_SCHEDULED_TASK: Load scheduler "8032" with entities [LocalPlayer, LocalPlayer], work=[258*, 0*]
138: 0x0B23 [0x1C] WAIT(180* ticks)
139: 0x0B26 [0x48] [System] [10301*]:
    → ""
140: 0x0B29 [0x23] WAIT_FOR_DIALOG_INTERACTION
141: 0x0B2A [0x5C] MUSIC_CONTROL: Set Idle (Day) music to song 163*
142: 0x0B2E [0x5C] MUSIC_CONTROL: Set Idle (Night) music to song 163*
143: 0x0B32 [0x9A] WAIT_MUSIC_SERVER()
144: 0x0B33 [0x52] END_LOAD_SCHEDULER: End scheduler "1c05" with entities [LocalPlayer, LocalPlayer], work=258*
145: 0x0B42 [0x45] LOAD_SCHEDULED_TASK: Load scheduler "1c06" with entities [LocalPlayer, LocalPlayer], work=[258*, 0*]
146: 0x0B53 [0x1A] CALL_SUBROUTINE(address=0xBDBA)
147: 0x0B56 [0x5B] LOAD_EXT_SCHEDULER: Load scheduler "giz1" with entities [Naja Salaheem (ID: 16982156/0x0103208C), Naja Salaheem (ID: 16982156/0x0103208C)], work=836*
148: 0x0B65 [0x2B] Naja Salaheem (ID: 16982156/0x0103208C) [7108*]:
    → ""I vow... Through rain and through wind, Running not from storms of arrows, and fearing not blasts of magic..."
149: 0x0B6C [0x23] WAIT_FOR_DIALOG_INTERACTION
150: 0x0B6D [0x52] END_LOAD_SCHEDULER: End scheduler "1c06" with entities [LocalPlayer, LocalPlayer], work=258*
151: 0x0B7C [0x45] LOAD_SCHEDULED_TASK: Load scheduler "1c07" with entities [LocalPlayer, LocalPlayer], work=[258*, 0*]
152: 0x0B8D [0x53] WAIT_SCHEDULER_TASK: Wait for scheduler "giz1" with entities [Naja Salaheem (ID: 16982156/0x0103208C), Naja Salaheem (ID: 16982156/0x0103208C)]
153: 0x0B9A [0x5B] LOAD_EXT_SCHEDULER: Load scheduler "giz1" with entities [Naja Salaheem (ID: 16982156/0x0103208C), Naja Salaheem (ID: 16982156/0x0103208C)], work=836*
154: 0x0BA9 [0x2B] Naja Salaheem (ID: 16982156/0x0103208C) [7109*]:
    → ""To defend in times of beastman attacks... And to venture out in times of peace...""
155: 0x0BB0 [0x23] WAIT_FOR_DIALOG_INTERACTION
156: 0x0BB1 [0x53] WAIT_SCHEDULER_TASK: Wait for scheduler "giz1" with entities [Naja Salaheem (ID: 16982156/0x0103208C), Naja Salaheem (ID: 16982156/0x0103208C)]
157: 0x0BBE [0x5B] LOAD_EXT_SCHEDULER: Load scheduler "giz1" with entities [Naja Salaheem (ID: 16982156/0x0103208C), Naja Salaheem (ID: 16982156/0x0103208C)], work=836*
158: 0x0BCD [0x2B] Naja Salaheem (ID: 16982156/0x0103208C) [7110*]:
    → "Uh...let's see here... "In sickness and in health... Through curses and petrification..."
159: 0x0BD4 [0x23] WAIT_FOR_DIALOG_INTERACTION
160: 0x0BD5 [0x52] END_LOAD_SCHEDULER: End scheduler "1c07" with entities [LocalPlayer, LocalPlayer], work=258*
161: 0x0BE4 [0x45] LOAD_SCHEDULED_TASK: Load scheduler "1c08" with entities [LocalPlayer, LocalPlayer], work=[258*, 0*]
162: 0x0BF5 [0x53] WAIT_SCHEDULER_TASK: Wait for scheduler "giz1" with entities [Naja Salaheem (ID: 16982156/0x0103208C), Naja Salaheem (ID: 16982156/0x0103208C)]
163: 0x0C02 [0x5B] LOAD_EXT_SCHEDULER: Load scheduler "giz1" with entities [Naja Salaheem (ID: 16982156/0x0103208C), Naja Salaheem (ID: 16982156/0x0103208C)], work=836*
164: 0x0C11 [0x2B] Naja Salaheem (ID: 16982156/0x0103208C) [7111*]:
    → ""I pledge myself to Salaheem's Sentinels...for all eternity.""
165: 0x0C18 [0x23] WAIT_FOR_DIALOG_INTERACTION
166: 0x0C19 [0x53] WAIT_SCHEDULER_TASK: Wait for scheduler "giz1" with entities [Naja Salaheem (ID: 16982156/0x0103208C), Naja Salaheem (ID: 16982156/0x0103208C)]
167: 0x0C26 [0x52] END_LOAD_SCHEDULER: End scheduler "1c08" with entities [LocalPlayer, LocalPlayer], work=258*
168: 0x0C35 [0x45] LOAD_SCHEDULED_TASK: Load scheduler "1c09" with entities [LocalPlayer, LocalPlayer], work=[258*, 0*]
169: 0x0C46 [0x2B] Naja Salaheem (ID: 16982156/0x0103208C) [7112*]:
    → "Hee hee.t "Signed...<Player>.""
170: 0x0C4D [0x23] WAIT_FOR_DIALOG_INTERACTION
171: 0x0C4E [0x27] REQ_SET(priority=0x10, entity_id=Naja Salaheem (ID: 16982156/0x0103208C), tag_num=0x67)
172: 0x0C55 [0x2B] Naja Salaheem (ID: 16982156/0x0103208C) [7113*]:
    → "Yes, yes. Brilliantly worded...as always."
173: 0x0C5C [0x23] WAIT_FOR_DIALOG_INTERACTION
174: 0x0C5D [0x2A] GET_REQ_LEVEL(level=16, entity_id=Naja Salaheem (ID: 16982156/0x0103208C))
175: 0x0C63 [0x5D] SET_MUSIC_VOLUME(volume=0*, fade_time=60*)
176: 0x0C68 [0x1A] CALL_SUBROUTINE(address=0xBDDB)
177: 0x0C6B [0x1C] WAIT(30* ticks)
178: 0x0C6E [0x5B] LOAD_EXT_SCHEDULER: Load scheduler "dskl" with entities [Naja Salaheem (ID: 16982156/0x0103208C), Naja Salaheem (ID: 16982156/0x0103208C)], work=834*
179: 0x0C7D [0x53] WAIT_SCHEDULER_TASK: Wait for scheduler "dskl" with entities [Naja Salaheem (ID: 16982156/0x0103208C), Naja Salaheem (ID: 16982156/0x0103208C)]
180: 0x0C8A [0x52] END_LOAD_SCHEDULER: End scheduler "1c09" with entities [LocalPlayer, LocalPlayer], work=258*
181: 0x0C99 [0x45] LOAD_SCHEDULED_TASK: Load scheduler "1c10" with entities [LocalPlayer, LocalPlayer], work=[258*, 0*]
182: 0x0CAA [0x45] LOAD_SCHEDULED_TASK: Load scheduler "fdi2" with entities [LocalPlayer, LocalPlayer], work=[200*, 0*]
183: 0x0CBB [0x5B] LOAD_EXT_SCHEDULER: Load scheduler "dsk1" with entities [Naja Salaheem (ID: 16982156/0x0103208C), Naja Salaheem (ID: 16982156/0x0103208C)], work=834*
184: 0x0CCA [0x1C] WAIT(30* ticks)
185: 0x0CCD [0x2B] Naja Salaheem (ID: 16982156/0x0103208C) [7114*]:
    → "Anyway... I now prrronounce you an official employee of Salaheem's Sentinels."
186: 0x0CD4 [0x23] WAIT_FOR_DIALOG_INTERACTION
187: 0x0CD5 [0x53] WAIT_SCHEDULER_TASK: Wait for scheduler "dsk1" with entities [Naja Salaheem (ID: 16982156/0x0103208C), Naja Salaheem (ID: 16982156/0x0103208C)]
188: 0x0CE2 [0x5C] MUSIC_CONTROL: Set Idle (Day) music to song 111*
189: 0x0CE6 [0x5C] MUSIC_CONTROL: Set Idle (Night) music to song 111*
190: 0x0CEA [0x9A] WAIT_MUSIC_SERVER()
191: 0x0CEB [0x52] END_LOAD_SCHEDULER: End scheduler "1c10" with entities [LocalPlayer, LocalPlayer], work=258*
192: 0x0CFA [0x45] LOAD_SCHEDULED_TASK: Load scheduler "1c11" with entities [LocalPlayer, LocalPlayer], work=[258*, 0*]
193: 0x0D0B [0x5B] LOAD_EXT_SCHEDULER: Load scheduler "pnt0" with entities [Naja Salaheem (ID: 16982156/0x0103208C), Naja Salaheem (ID: 16982156/0x0103208C)], work=833*
194: 0x0D1A [0x27] REQ_SET(priority=0x10, entity_id=LocalPlayer, tag_num=0x0E)
195: 0x0D21 [0x1C] WAIT(60* ticks)
196: 0x0D24 [0x2B] Naja Salaheem (ID: 16982156/0x0103208C) [7115*]:
    → "Congratulations!"
197: 0x0D2B [0x23] WAIT_FOR_DIALOG_INTERACTION
198: 0x0D2C [0x53] WAIT_SCHEDULER_TASK: Wait for scheduler "pnt0" with entities [Naja Salaheem (ID: 16982156/0x0103208C), Naja Salaheem (ID: 16982156/0x0103208C)]
199: 0x0D39 [0x5B] LOAD_EXT_SCHEDULER: Load scheduler "pnt1" with entities [Naja Salaheem (ID: 16982156/0x0103208C), Naja Salaheem (ID: 16982156/0x0103208C)], work=834*
200: 0x0D48 [0x53] WAIT_SCHEDULER_TASK: Wait for scheduler "pnt1" with entities [Naja Salaheem (ID: 16982156/0x0103208C), Naja Salaheem (ID: 16982156/0x0103208C)]
201: 0x0D55 [0x2B] Naja Salaheem (ID: 16982156/0x0103208C) [7116*]:
    → "Welcome to the world of bein' a Private Second Class."
202: 0x0D5C [0x23] WAIT_FOR_DIALOG_INTERACTION
203: 0x0D5D [0x52] END_LOAD_SCHEDULER: End scheduler "1c11" with entities [LocalPlayer, LocalPlayer], work=258*
204: 0x0D6C [0x45] LOAD_SCHEDULED_TASK: Load scheduler "1c20" with entities [LocalPlayer, LocalPlayer], work=[258*, 0*]
205: 0x0D7D [0x2B] Naja Salaheem (ID: 16982156/0x0103208C) [7117*]:
    → "You're gonna love worrrking under me. I have plenty to keep ya busy."
206: 0x0D84 [0x23] WAIT_FOR_DIALOG_INTERACTION
207: 0x0D85 [0x2B] Naja Salaheem (ID: 16982156/0x0103208C) [7118*]:
    → "Well? What're ya grrrumblin' about now? Ya don't like "Second Class" bein' part of your title?"
208: 0x0D8C [0x23] WAIT_FOR_DIALOG_INTERACTION
209: 0x0D8D [0x52] END_LOAD_SCHEDULER: End scheduler "1c20" with entities [LocalPlayer, LocalPlayer], work=258*
210: 0x0D9C [0x45] LOAD_SCHEDULED_TASK: Load scheduler "1c12" with entities [LocalPlayer, LocalPlayer], work=[258*, 0*]
211: 0x0DAD [0x5B] LOAD_EXT_SCHEDULER: Load scheduler "agr0" with entities [Naja Salaheem (ID: 16982156/0x0103208C), Naja Salaheem (ID: 16982156/0x0103208C)], work=834*
212: 0x0DBC [0x81] SET_ENTITY_BLINKING(blink_flag=0x00, entity=Naja Salaheem (ID: 16982156/0x0103208C))
213: 0x0DC2 [0x7C] Naja Salaheem (ID: 16982156/0x0103208C)->Render.Flags2 |= 0x00
214: 0x0DC8 [0x1C] WAIT(30* ticks)
215: 0x0DCB [0x2B] Naja Salaheem (ID: 16982156/0x0103208C) [7119*]:
    → "Tough luck!"
216: 0x0DD2 [0x23] WAIT_FOR_DIALOG_INTERACTION
217: 0x0DD3 [0x53] WAIT_SCHEDULER_TASK: Wait for scheduler "agr0" with entities [Naja Salaheem (ID: 16982156/0x0103208C), Naja Salaheem (ID: 16982156/0x0103208C)]
218: 0x0DE0 [0x7C] Naja Salaheem (ID: 16982156/0x0103208C)->Render.Flags2 |= 0x01
219: 0x0DE6 [0x2B] Naja Salaheem (ID: 16982156/0x0103208C) [7120*]:
    → "I don't care how spoiled ya were in the west. Whether ya were a knight or musketeer or wizard, it don't mean a thing to me."
220: 0x0DED [0x23] WAIT_FOR_DIALOG_INTERACTION
221: 0x0DEE [0x5B] LOAD_EXT_SCHEDULER: Load scheduler "agb0" with entities [Naja Salaheem (ID: 16982156/0x0103208C), Naja Salaheem (ID: 16982156/0x0103208C)], work=834*
222: 0x0DFD [0x2B] Naja Salaheem (ID: 16982156/0x0103208C) [7121*]:
    → "But ya better not forget that you're a mercenary now, and a rookie, at that!"
223: 0x0E04 [0x23] WAIT_FOR_DIALOG_INTERACTION
224: 0x0E05 [0x53] WAIT_SCHEDULER_TASK: Wait for scheduler "agb0" with entities [Naja Salaheem (ID: 16982156/0x0103208C), Naja Salaheem (ID: 16982156/0x0103208C)]
225: 0x0E12 [0x1C] WAIT(30* ticks)
226: 0x0E15 [0x2B] Naja Salaheem (ID: 16982156/0x0103208C) [7122*]:
    → "If ya got a problem with that, then participate in Assault missions or do whatever ya need to prove you've got what it takes."
227: 0x0E1C [0x23] WAIT_FOR_DIALOG_INTERACTION
228: 0x0E1D [0x52] END_LOAD_SCHEDULER: End scheduler "1c12" with entities [LocalPlayer, LocalPlayer], work=258*
229: 0x0E2C [0x45] LOAD_SCHEDULED_TASK: Load scheduler "1c21" with entities [LocalPlayer, LocalPlayer], work=[258*, 0*]
230: 0x0E3D [0x81] SET_ENTITY_BLINKING(blink_flag=0x01, entity=Naja Salaheem (ID: 16982156/0x0103208C))
231: 0x0E43 [0x5B] LOAD_EXT_SCHEDULER: Load scheduler "agr1" with entities [Naja Salaheem (ID: 16982156/0x0103208C), Naja Salaheem (ID: 16982156/0x0103208C)], work=834*
232: 0x0E52 [0x2B] Naja Salaheem (ID: 16982156/0x0103208C) [7123*]:
    → "Come to mention it, I don't think I've said anything 'bout Assault yet..."
233: 0x0E59 [0x23] WAIT_FOR_DIALOG_INTERACTION
234: 0x0E5A [0x5D] SET_MUSIC_VOLUME(volume=0*, fade_time=60*)
235: 0x0E5F [0x1A] CALL_SUBROUTINE(address=0xBDDB)
236: 0x0E62 [0x1C] WAIT(60* ticks)
237: 0x0E65 [0x53] WAIT_SCHEDULER_TASK: Wait for scheduler "agr1" with entities [Naja Salaheem (ID: 16982156/0x0103208C), Naja Salaheem (ID: 16982156/0x0103208C)]
238: 0x0E72 [0x5C] MUSIC_CONTROL: Set Idle (Day) music to song 178*
239: 0x0E76 [0x5C] MUSIC_CONTROL: Set Idle (Night) music to song 178*
240: 0x0E7A [0x9A] WAIT_MUSIC_SERVER()
241: 0x0E7B [0x1C] WAIT(30* ticks)
242: 0x0E7E [0x52] END_LOAD_SCHEDULER: End scheduler "1c21" with entities [LocalPlayer, LocalPlayer], work=258*
243: 0x0E8D [0x45] LOAD_SCHEDULED_TASK: Load scheduler "1c13" with entities [LocalPlayer, LocalPlayer], work=[258*, 0*]
244: 0x0E9E [0x1A] CALL_SUBROUTINE(address=0xBDBA)
245: 0x0EA1 [0x5B] LOAD_EXT_SCHEDULER: Load scheduler "tlk0" with entities [Naja Salaheem (ID: 16982156/0x0103208C), Naja Salaheem (ID: 16982156/0x0103208C)], work=833*
246: 0x0EB0 [0x2B] Naja Salaheem (ID: 16982156/0x0103208C) [7124*]:
    → "Let's start with the basics, shall we?"
247: 0x0EB7 [0x23] WAIT_FOR_DIALOG_INTERACTION
248: 0x0EB8 [0x5B] LOAD_EXT_SCHEDULER: Load scheduler "tlk1" with entities [Naja Salaheem (ID: 16982156/0x0103208C), Naja Salaheem (ID: 16982156/0x0103208C)], work=833*
249: 0x0EC7 [0x1C] WAIT(30* ticks)
250: 0x0ECA [0x52] END_LOAD_SCHEDULER: End scheduler "1c13" with entities [LocalPlayer, LocalPlayer], work=258*
251: 0x0ED9 [0x27] REQ_SET(priority=0x10, entity_id=Unnamed NPC (ID: 16982290/0x01032112), tag_num=0x55)
252: 0x0EE0 [0x27] REQ_SET(priority=0x10, entity_id=LocalPlayer, tag_num=0x35)
253: 0x0EE7 [0x2B] Naja Salaheem (ID: 16982156/0x0103208C) [7125*]:
    → "First, ya need to get your tail over to the Commissions Agency."
254: 0x0EEE [0x23] WAIT_FOR_DIALOG_INTERACTION
255: 0x0EEF [0x2A] GET_REQ_LEVEL(level=16, entity_id=Unnamed NPC (ID: 16982290/0x01032112))
256: 0x0EF5 [0x75] LOAD_ROOM(Load indoor room, room=563*)
257: 0x0EF9 [0x75] LOAD_ROOM(No action)
258: 0x0EFB [0x4E] SET_ENTITY_HIDE_FLAG: Show LocalPlayer
259: 0x0F01 [0x29] REQ_SET_WAIT(priority=0x10, entity_id=LocalPlayer, tag_num=0x42)
260: 0x0F08 [0x80] LOAD_WAIT(entity=LocalPlayer)
261: 0x0F0D [0x1C] WAIT(30* ticks)
262: 0x0F10 [0x45] LOAD_SCHEDULED_TASK: Load scheduler "1c14" with entities [LocalPlayer, LocalPlayer], work=[258*, 0*]
263: 0x0F21 [0x1C] WAIT(15* ticks)
264: 0x0F24 [0x1A] CALL_SUBROUTINE(address=0xBDBA)
265: 0x0F27 [0x55] WAIT_LOAD_SCHEDULER: Wait for scheduler "1c14" with entities [LocalPlayer, LocalPlayer], work=258*
266: 0x0F36 [0x45] LOAD_SCHEDULED_TASK: Load scheduler "1c15" with entities [LocalPlayer, LocalPlayer], work=[258*, 0*]
