# 16982580 - kenbutsu10

## Common Data

| Field            | Value                          |
|------------------|--------------------------------|
| Zone             | Aht Urhgan Whitegate2 (ID: 50) |
| Block Size       | 160 bytes                      |
| Total Events     | 6                              |
| References Count | 10                             |

## List of Events

| Event ID                 | Entrypoint   |   Size |   Instructions |
|--------------------------|--------------|--------|----------------|
| [65535](#event-65535)    | 0x0000       |      1 |              1 |
| [920](#event-920)        | 0x0001       |      1 |              1 |
| [65535.1](#event-655351) | 0x0002       |     19 |              4 |
| [65535.2](#event-655352) | 0x0015       |     18 |              4 |
| [65535.3](#event-655353) | 0x0027       |     18 |              4 |
| [65535.4](#event-655354) | 0x0039       |     23 |              7 |

## DAT References (imed_data)

|   Index | Hex Value   |   Dec Value |
|---------|-------------|-------------|
|       0 | 0x0010      |          16 |
|       1 | 0x1334D     |       78669 |
|       2 | 0xFFFE0978  |  4294838648 |
|       3 | 0xFFFFE890  |  4294961296 |
|       4 | 0x000B      |          11 |
|       5 | 0x0000      |           0 |
|       6 | 0x003C      |          60 |
|       7 | 0x000D      |          13 |
|       8 | 0x13FDE     |       81886 |
|       9 | 0xFFFE0236  |  4294836790 |

## Events

### Event 65535

#### Metadata

| Field        | Value   |
|--------------|---------|
| Entrypoint   | 0x0000  |
| Data Size    | 1 bytes |
| Instructions | 1       |

```
      00 01 02 03 04 05 06 07  08 09 0A 0B 0C 0D 0E 0F
      -- -- -- -- -- -- -- --  -- -- -- -- -- -- -- --
0000: 00                                                .               
```

#### Opcodes

```
  0: 0x0000 [0x00] END_REQSTACK()
```

### Event 920

#### Metadata

| Field        | Value   |
|--------------|---------|
| Entrypoint   | 0x0001  |
| Data Size    | 1 bytes |
| Instructions | 1       |

```
      00 01 02 03 04 05 06 07  08 09 0A 0B 0C 0D 0E 0F
      -- -- -- -- -- -- -- --  -- -- -- -- -- -- -- --
0000:    00                                              .              
```

#### Opcodes

```
  0: 0x0001 [0x00] END_REQSTACK()
```

### Event 65535.1

#### Metadata

| Field        | Value    |
|--------------|----------|
| Entrypoint   | 0x0002   |
| Data Size    | 19 bytes |
| Instructions | 4        |

```
      00 01 02 03 04 05 06 07  08 09 0A 0B 0C 0D 0E 0F
      -- -- -- -- -- -- -- --  -- -- -- -- -- -- -- --
0000:       59 04 34 22 03 01  00 80 1F 00 01 80 02 80    Y.4"..........
0010: 03 80 1F 01 00                                    .....           
```

#### Opcodes

```
  0: 0x0002 [0x59] UPDATE_ENTITY_DATA: Set kenbutsu10 (ID: 16982580/0x01032234) main speed = 16* * 0.1
  1: 0x000A [0x1F] MOVE_ENTITY: EventEntity moves to X=78.669*, Z=-128.648*, Y=-6.000*
  2: 0x0012 [0x1F] MOVE_ENTITY: Update entity position (mode=1)
  3: 0x0014 [0x00] END_REQSTACK()
```

### Event 65535.2

#### Metadata

| Field        | Value    |
|--------------|----------|
| Entrypoint   | 0x0015   |
| Data Size    | 18 bytes |
| Instructions | 4        |

```
      00 01 02 03 04 05 06 07  08 09 0A 0B 0C 0D 0E 0F
      -- -- -- -- -- -- -- --  -- -- -- -- -- -- -- --
0010:                6E 34 22  03 01 04 80 99 34 22 03       n4".....4".
0020: 01 99 34 22 03 01 00                              ..4"...         
```

#### Opcodes

```
  0: 0x0015 [0x6E] kenbutsu10 (ID: 16982580/0x01032234) uses emote 11*
  1: 0x001C [0x99] Wait for kenbutsu10 (ID: 16982580/0x01032234) animation to complete
  2: 0x0021 [0x99] Wait for kenbutsu10 (ID: 16982580/0x01032234) animation to complete
  3: 0x0026 [0x00] END_REQSTACK()
```

### Event 65535.3

#### Metadata

| Field        | Value    |
|--------------|----------|
| Entrypoint   | 0x0027   |
| Data Size    | 18 bytes |
| Instructions | 4        |

```
      00 01 02 03 04 05 06 07  08 09 0A 0B 0C 0D 0E 0F
      -- -- -- -- -- -- -- --  -- -- -- -- -- -- -- --
0020:                      6E  34 22 03 01 05 80 99 34         n4".....4
0030: 22 03 01 99 34 22 03 01  00                       "...4"...       
```

#### Opcodes

```
  0: 0x0027 [0x6E] kenbutsu10 (ID: 16982580/0x01032234) uses emote 0*
  1: 0x002E [0x99] Wait for kenbutsu10 (ID: 16982580/0x01032234) animation to complete
  2: 0x0033 [0x99] Wait for kenbutsu10 (ID: 16982580/0x01032234) animation to complete
  3: 0x0038 [0x00] END_REQSTACK()
```

### Event 65535.4

#### Metadata

| Field        | Value    |
|--------------|----------|
| Entrypoint   | 0x0039   |
| Data Size    | 23 bytes |
| Instructions | 7        |

```
      00 01 02 03 04 05 06 07  08 09 0A 0B 0C 0D 0E 0F
      -- -- -- -- -- -- -- --  -- -- -- -- -- -- -- --
0030:                             1C 06 80 32 07 80 1F           ...2...
0040: 00 08 80 09 80 03 80 1F  01 6F 1E 5C 21 03 01 00  .........o.\!...
```

#### Opcodes

```
  0: 0x0039 [0x1C] WAIT(60* ticks)
  1: 0x003C [0x32] ExtData[1]->MainSpeed = 13* * 0.1
  2: 0x003F [0x1F] MOVE_ENTITY: EventEntity moves to X=81.886*, Z=-130.506*, Y=-6.000*
  3: 0x0047 [0x1F] MOVE_ENTITY: Update entity position (mode=1)
  4: 0x0049 [0x6F] WAIT_FRAME_DELAY: Yield until WaitTime reaches zero
  5: 0x004A [0x1E] EventEntity looks at Fari-Wari (ID: 16982364/0x0103215C) and starts talking
  6: 0x004F [0x00] END_REQSTACK()
```
