# 16982565

## Common Data

| Field            | Value                          |
|------------------|--------------------------------|
| Zone             | Aht Urhgan Whitegate2 (ID: 50) |
| Block Size       | 19812 bytes                    |
| Total Events     | 9                              |
| References Count | 544                            |

## List of Events

| Event ID                  | Entrypoint   |   Size |   Instructions |
|---------------------------|--------------|--------|----------------|
| [65535](#event-65535)     | 0x0000       |      1 |              1 |
| [889](#event-889)         | 0x0001       |      1 |              1 |
| [65535.1](#event-65535-1) | 0x0002       |      9 |              3 |
| [953](#event-953)         | 0x000B       |     79 |             10 |
| [823](#event-823)         | 0x005A       |   2595 |            333 |
| [824](#event-824)         | 0x0A7D       |   3095 |            410 |
| [940](#event-940)         | 0x1694       |   3211 |            383 |
| [941](#event-941)         | 0x231F       |   3039 |            378 |
| [825](#event-825)         | 0x2EFE       |   5552 |            693 |

## DAT References (imed_data)

|   Index | Hex Value   |   Dec Value |
|---------|-------------|-------------|
|       0 | 0x00C8      |         200 |
|       1 | 0x0000      |           0 |
|       2 | 0x0013      |          19 |
|       3 | 0x001E      |          30 |
|       4 | 0x0078      |         120 |
|       5 | 0x0235      |         565 |
|       6 | 0x13A99     |       80537 |
|       7 | 0xFFFDF295  |  4294832789 |
|       8 | 0xFFFFE890  |  4294961296 |
|       9 | 0x0418      |        1048 |
|      10 | 0x13A07     |       80391 |
|      11 | 0xFFFDE965  |  4294830437 |
|      12 | 0x10A3A     |       68154 |
|      13 | 0xFFFE05BA  |  4294837690 |
|      14 | 0xFFFFE69D  |  4294960797 |
|      15 | 0x0C18      |        3096 |
|      16 | 0x0124      |         292 |
|      17 | 0x0031      |          49 |
|      18 | 0x2CA6      |       11430 |
|      19 | 0x002D      |          45 |
|      20 | 0x2CA7      |       11431 |
|      21 | 0x2CA8      |       11432 |
|      22 | 0x0018      |          24 |
|      23 | 0x2CA9      |       11433 |
|      24 | 0x2CAA      |       11434 |
|      25 | 0x2CAB      |       11435 |
|      26 | 0x2CAC      |       11436 |
|      27 | 0x2CAD      |       11437 |
|      28 | 0x2CAE      |       11438 |
|      29 | 0x2CAF      |       11439 |
|      30 | 0x2CB0      |       11440 |
|      31 | 0x000B      |          11 |
|      32 | 0x2CB4      |       11444 |
|      33 | 0x0001      |           1 |
|      34 | 0x2CB1      |       11441 |
|      35 | 0x2CB2      |       11442 |
|      36 | 0x2CB3      |       11443 |
|      37 | 0x2CB5      |       11445 |
|      38 | 0x2CB6      |       11446 |
|      39 | 0x2CB7      |       11447 |
|      40 | 0x11E54     |       73300 |
|      41 | 0xFFFE09F1  |  4294838769 |
|      42 | 0xFFFFE891  |  4294961297 |
|      43 | 0x03DA      |         986 |
|      44 | 0x003C      |          60 |
|      45 | 0x2CB8      |       11448 |
|      46 | 0x2CB9      |       11449 |
|      47 | 0x2CBA      |       11450 |
|      48 | 0x2CBB      |       11451 |
|      49 | 0x2CBC      |       11452 |
|      50 | 0x2CBD      |       11453 |
|      51 | 0x2CBE      |       11454 |
|      52 | 0x0006      |           6 |
|      53 | 0x2CBF      |       11455 |
|      54 | 0x2CC0      |       11456 |
|      55 | 0x001A      |          26 |
|      56 | 0x2CC1      |       11457 |
|      57 | 0x2CC2      |       11458 |
|      58 | 0x2CC3      |       11459 |
|      59 | 0x2CC4      |       11460 |
|      60 | 0x2CC5      |       11461 |
|      61 | 0x2CC6      |       11462 |
|      62 | 0x2CC7      |       11463 |
|      63 | 0x2CC8      |       11464 |
|      64 | 0x2CC9      |       11465 |
|      65 | 0x2CCA      |       11466 |
|      66 | 0x0014      |          20 |
|      67 | 0x2CCB      |       11467 |
|      68 | 0x000F      |          15 |
|      69 | 0x2CCC      |       11468 |
|      70 | 0x0019      |          25 |
|      71 | 0x2CCD      |       11469 |
|      72 | 0x10F64     |       69476 |
|      73 | 0xFFFE11C0  |  4294840768 |
|      74 | 0x000A      |          10 |
|      75 | 0x2CCE      |       11470 |
|      76 | 0x2CCF      |       11471 |
|      77 | 0x2CD0      |       11472 |
|      78 | 0x000E      |          14 |
|      79 | 0x2CD1      |       11473 |
|      80 | 0x2CD2      |       11474 |
|      81 | 0x2CD4      |       11476 |
|      82 | 0x2CD5      |       11477 |
|      83 | 0x2CD6      |       11478 |
|      84 | 0x2CD7      |       11479 |
|      85 | 0x2CD8      |       11480 |
|      86 | 0x2CD9      |       11481 |
|      87 | 0x2CDA      |       11482 |
|      88 | 0x2CDB      |       11483 |
|      89 | 0x2CDC      |       11484 |
|      90 | 0x2CDD      |       11485 |
|      91 | 0x2CDE      |       11486 |
|      92 | 0x2CDF      |       11487 |
|      93 | 0x2CE0      |       11488 |
|      94 | 0x2CE1      |       11489 |
|      95 | 0x2CE2      |       11490 |
|      96 | 0x2CE3      |       11491 |
|      97 | 0x2CE4      |       11492 |
|      98 | 0x2CE5      |       11493 |
|      99 | 0x2CE6      |       11494 |
|     100 | 0x0020      |          32 |
|     101 | 0x2CE7      |       11495 |
|     102 | 0x2CE8      |       11496 |
|     103 | 0x000D      |          13 |
|     104 | 0x2CE9      |       11497 |
|     105 | 0x2CEA      |       11498 |
|     106 | 0x13D3A     |       81210 |
|     107 | 0xFFFDEA2B  |  4294830635 |
|     108 | 0x0A77      |        2679 |
|     109 | 0x2CEF      |       11503 |
|     110 | 0x2CF0      |       11504 |
|     111 | 0x2CF1      |       11505 |
|     112 | 0x2CF2      |       11506 |
|     113 | 0x2CF3      |       11507 |
|     114 | 0x2CF4      |       11508 |
|     115 | 0x2CF5      |       11509 |
|     116 | 0x2CF6      |       11510 |
|     117 | 0x022F      |         559 |
|     118 | 0x012A      |         298 |
|     119 | 0xFFFFE5F1  |  4294960625 |
|     120 | 0x0416      |        1046 |
|     121 | 0xFFFFFC36  |  4294966326 |
|     122 | 0xFFFFF81D  |  4294965277 |
|     123 | 0x0419      |        1049 |
|     124 | 0x007B      |         123 |
|     125 | 0x0050      |          80 |
|     126 | 0x2CF7      |       11511 |
|     127 | 0x2CF8      |       11512 |
|     128 | 0x2CF9      |       11513 |
|     129 | 0x2CFA      |       11514 |
|     130 | 0x2CFB      |       11515 |
|     131 | 0x001D      |          29 |
|     132 | 0x2CFC      |       11516 |
|     133 | 0x2CFE      |       11518 |
|     134 | 0x2CFF      |       11519 |
|     135 | 0x2D00      |       11520 |
|     136 | 0x2D01      |       11521 |
|     137 | 0x2D02      |       11522 |
|     138 | 0x2D04      |       11524 |
|     139 | 0x2D05      |       11525 |
|     140 | 0x2D06      |       11526 |
|     141 | 0x2D07      |       11527 |
|     142 | 0x2D08      |       11528 |
|     143 | 0x2D09      |       11529 |
|     144 | 0x2D0A      |       11530 |
|     145 | 0x2D0B      |       11531 |
|     146 | 0x2D0C      |       11532 |
|     147 | 0x008C      |         140 |
|     148 | 0x2D0D      |       11533 |
|     149 | 0x005A      |          90 |
|     150 | 0x0032      |          50 |
|     151 | 0x0110      |         272 |
|     152 | 0x03E7      |         999 |
|     153 | 0x2292B     |      141611 |
|     154 | 0x05B0      |        1456 |
|     155 | 0xFFFFF831  |  4294965297 |
|     156 | 0x0808      |        2056 |
|     157 | 0x1F6A8     |      128680 |
|     158 | 0x096A      |        2410 |
|     159 | 0xFFFFFF3F  |  4294967103 |
|     160 | 0x0803      |        2051 |
|     161 | 0x1E81C     |      124956 |
|     162 | 0x044C      |        1100 |
|     163 | 0x0FD2      |        4050 |
|     164 | 0x0016      |          22 |
|     165 | 0x0096      |         150 |
|     166 | 0x21552     |      136530 |
|     167 | 0xFFFFFD45  |  4294966597 |
|     168 | 0x00AC      |         172 |
|     169 | 0x0003      |           3 |
|     170 | 0x2D0E      |       11534 |
|     171 | 0x006E      |         110 |
|     172 | 0x2D0F      |       11535 |
|     173 | 0x2D10      |       11536 |
|     174 | 0x2D11      |       11537 |
|     175 | 0x2D12      |       11538 |
|     176 | 0x0009      |           9 |
|     177 | 0x2D13      |       11539 |
|     178 | 0x2D14      |       11540 |
|     179 | 0x2D15      |       11541 |
|     180 | 0x0021      |          33 |
|     181 | 0x2D16      |       11542 |
|     182 | 0x2D17      |       11543 |
|     183 | 0x2D18      |       11544 |
|     184 | 0x2D19      |       11545 |
|     185 | 0x2D1A      |       11546 |
|     186 | 0x2D1B      |       11547 |
|     187 | 0x0024      |          36 |
|     188 | 0x2D1C      |       11548 |
|     189 | 0x2D1D      |       11549 |
|     190 | 0x2D1E      |       11550 |
|     191 | 0x2D1F      |       11551 |
|     192 | 0x23C0A     |      146442 |
|     193 | 0x36E4      |       14052 |
|     194 | 0x06A3      |        1699 |
|     195 | 0x2D20      |       11552 |
|     196 | 0x0082      |         130 |
|     197 | 0x00A0      |         160 |
|     198 | 0x2D21      |       11553 |
|     199 | 0x2D22      |       11554 |
|     200 | 0x2D23      |       11555 |
|     201 | 0x2D24      |       11556 |
|     202 | 0x2D25      |       11557 |
|     203 | 0x2D26      |       11558 |
|     204 | 0x00B2      |         178 |
|     205 | 0x0030      |          48 |
|     206 | 0x0005      |           5 |
|     207 | 0xFFFE6E99  |  4294864537 |
|     208 | 0x103F5     |       66549 |
|     209 | 0x07CF      |        1999 |
|     210 | 0xFFFE761C  |  4294866460 |
|     211 | 0x1060B     |       67083 |
|     212 | 0x00E3      |         227 |
|     213 | 0xFFFE5F5E  |  4294860638 |
|     214 | 0xF6B3      |       63155 |
|     215 | 0x01A0      |         416 |
|     216 | 0xFFFE6020  |  4294860832 |
|     217 | 0x10E47     |       69191 |
|     218 | 0x0056      |          86 |
|     219 | 0xFFFF5EA8  |  4294925992 |
|     220 | 0x72C7      |       29383 |
|     221 | 0x03CF      |         975 |
|     222 | 0xFFFF546F  |  4294923375 |
|     223 | 0x5A69      |       23145 |
|     224 | 0x0CA3      |        3235 |
|     225 | 0xFFFF5CC9  |  4294925513 |
|     226 | 0x6215      |       25109 |
|     227 | 0x0CA8      |        3240 |
|     228 | 0xFFFF6003  |  4294926339 |
|     229 | 0x61E7      |       25063 |
|     230 | 0x0BB4      |        2996 |
|     231 | 0xFFFF657D  |  4294927741 |
|     232 | 0x609D      |       24733 |
|     233 | 0x0BED      |        3053 |
|     234 | 0xFFFF698E  |  4294928782 |
|     235 | 0x6168      |       24936 |
|     236 | 0x0BB8      |        3000 |
|     237 | 0xFFFF63BE  |  4294927294 |
|     238 | 0x6583      |       25987 |
|     239 | 0x0BAE      |        2990 |
|     240 | 0xFFFF64B0  |  4294927536 |
|     241 | 0x396B      |       14699 |
|     242 | 0xFFFFE5C3  |  4294960579 |
|     243 | 0xFFFF6082  |  4294926466 |
|     244 | 0x35EE      |       13806 |
|     245 | 0xFFFFE5F5  |  4294960629 |
|     246 | 0x008E      |         142 |
|     247 | 0x015C      |         348 |
|     248 | 0x02D9      |         729 |
|     249 | 0x00AA      |         170 |
|     250 | 0x0339      |         825 |
|     251 | 0x2D27      |       11559 |
|     252 | 0x2D28      |       11560 |
|     253 | 0x2D29      |       11561 |
|     254 | 0x2D2A      |       11562 |
|     255 | 0x2D2B      |       11563 |
|     256 | 0x2D2C      |       11564 |
|     257 | 0x2D2D      |       11565 |
|     258 | 0x2D2E      |       11566 |
|     259 | 0x2D2F      |       11567 |
|     260 | 0x2D31      |       11569 |
|     261 | 0x2D32      |       11570 |
|     262 | 0xFFFF0A12  |  4294904338 |
|     263 | 0xA29F      |       41631 |
|     264 | 0xFFFFE4A9  |  4294960297 |
|     265 | 0x0B54      |        2900 |
|     266 | 0xFFFF0A9E  |  4294904478 |
|     267 | 0xAC9B      |       44187 |
|     268 | 0xFFFFE4A8  |  4294960296 |
|     269 | 0x00DC      |         220 |
|     270 | 0x00B4      |         180 |
|     271 | 0x2D33      |       11571 |
|     272 | 0x2D34      |       11572 |
|     273 | 0x2D35      |       11573 |
|     274 | 0x2D36      |       11574 |
|     275 | 0x2D37      |       11575 |
|     276 | 0xFFFF0BD3  |  4294904787 |
|     277 | 0x4BA0      |       19360 |
|     278 | 0x0C8C      |        3212 |
|     279 | 0x0320      |         800 |
|     280 | 0x2D38      |       11576 |
|     281 | 0x2D39      |       11577 |
|     282 | 0x2D3A      |       11578 |
|     283 | 0xFFFEEE6A  |  4294897258 |
|     284 | 0x50AC      |       20652 |
|     285 | 0x2D3B      |       11579 |
|     286 | 0x033F      |         831 |
|     287 | 0xFFFF0BA2  |  4294904738 |
|     288 | 0xC6C6      |       50886 |
|     289 | 0x03CE      |         974 |
|     290 | 0xFFFF1601  |  4294907393 |
|     291 | 0xF8E0      |       63712 |
|     292 | 0x03A4      |         932 |
|     293 | 0x03B3      |         947 |
|     294 | 0x00FA      |         250 |
|     295 | 0x2D3C      |       11580 |
|     296 | 0x2D3D      |       11581 |
|     297 | 0x2D3E      |       11582 |
|     298 | 0x2D3F      |       11583 |
|     299 | 0xFFFF0B68  |  4294904680 |
|     300 | 0xEDBF      |       60863 |
|     301 | 0x0D35      |        3381 |
|     302 | 0x0514      |        1300 |
|     303 | 0x038D      |         909 |
|     304 | 0x01D6      |         470 |
|     305 | 0x0046      |          70 |
|     306 | 0x0008      |           8 |
|     307 | 0x012C      |         300 |
|     308 | 0xFFFF075A  |  4294903642 |
|     309 | 0x745B      |       29787 |
|     310 | 0xFFFF0150  |  4294902096 |
|     311 | 0x66BC      |       26300 |
|     312 | 0x1004      |        4100 |
|     313 | 0xFFFF0891  |  4294903953 |
|     314 | 0x6766      |       26470 |
|     315 | 0x0834      |        2100 |
|     316 | 0xFFFF0513  |  4294903059 |
|     317 | 0x62E7      |       25319 |
|     318 | 0xFFFF0F38  |  4294905656 |
|     319 | 0x3E8F      |       16015 |
|     320 | 0x0352      |         850 |
|     321 | 0x2D41      |       11585 |
|     322 | 0x2D40      |       11584 |
|     323 | 0x2D42      |       11586 |
|     324 | 0x2D43      |       11587 |
|     325 | 0x2D44      |       11588 |
|     326 | 0x2D45      |       11589 |
|     327 | 0x2D46      |       11590 |
|     328 | 0x2D47      |       11591 |
|     329 | 0x2D48      |       11592 |
|     330 | 0x2D49      |       11593 |
|     331 | 0x2D4A      |       11594 |
|     332 | 0x2D4B      |       11595 |
|     333 | 0x2D4C      |       11596 |
|     334 | 0x2D4D      |       11597 |
|     335 | 0x2D4E      |       11598 |
|     336 | 0x2D4F      |       11599 |
|     337 | 0x2D50      |       11600 |
|     338 | 0x2D51      |       11601 |
|     339 | 0x2D52      |       11602 |
|     340 | 0x00B7      |         183 |
|     341 | 0xFFFF01B4  |  4294902196 |
|     342 | 0x036E      |         878 |
|     343 | 0x2D53      |       11603 |
|     344 | 0x2D54      |       11604 |
|     345 | 0x2D55      |       11605 |
|     346 | 0x2D56      |       11606 |
|     347 | 0x2D57      |       11607 |
|     348 | 0x2D58      |       11608 |
|     349 | 0x2D59      |       11609 |
|     350 | 0x2D5A      |       11610 |
|     351 | 0x2D5B      |       11611 |
|     352 | 0xFFFF03C7  |  4294902727 |
|     353 | 0x62E5      |       25317 |
|     354 | 0x0393      |         915 |
|     355 | 0x2D5C      |       11612 |
|     356 | 0x2D5D      |       11613 |
|     357 | 0x2D5E      |       11614 |
|     358 | 0xFFFF06A7  |  4294903463 |
|     359 | 0x7847      |       30791 |
|     360 | 0x0CE4      |        3300 |
|     361 | 0x02FC      |         764 |
|     362 | 0x2D5F      |       11615 |
|     363 | 0x0080      |         128 |
|     364 | 0x039B      |         923 |
|     365 | 0x017C      |         380 |
|     366 | 0x0136      |         310 |
|     367 | 0x2D60      |       11616 |
|     368 | 0x2D61      |       11617 |
|     369 | 0x2D62      |       11618 |
|     370 | 0x13E6C     |       81516 |
|     371 | 0xFFFDED2D  |  4294831405 |
|     372 | 0x081B      |        2075 |
|     373 | 0x2D63      |       11619 |
|     374 | 0x2D64      |       11620 |
|     375 | 0x2D65      |       11621 |
|     376 | 0x2D66      |       11622 |
|     377 | 0x2D67      |       11623 |
|     378 | 0x2D68      |       11624 |
|     379 | 0x0026      |          38 |
|     380 | 0x2D69      |       11625 |
|     381 | 0x2D6A      |       11626 |
|     382 | 0x2D6B      |       11627 |
|     383 | 0x2D6C      |       11628 |
|     384 | 0x2D6D      |       11629 |
|     385 | 0x2D6E      |       11630 |
|     386 | 0x2D6F      |       11631 |
|     387 | 0x2D70      |       11632 |
|     388 | 0x2D71      |       11633 |
|     389 | 0x2D72      |       11634 |
|     390 | 0x2D74      |       11636 |
|     391 | 0x2D79      |       11641 |
|     392 | 0x2D7A      |       11642 |
|     393 | 0x2D7B      |       11643 |
|     394 | 0x2D7C      |       11644 |
|     395 | 0x2D7D      |       11645 |
|     396 | 0x2D7E      |       11646 |
|     397 | 0x2D7F      |       11647 |
|     398 | 0x2D80      |       11648 |
|     399 | 0x2D81      |       11649 |
|     400 | 0xB58B      |       46475 |
|     401 | 0x0BCC      |        3020 |
|     402 | 0x0785      |        1925 |
|     403 | 0xC3CD      |       50125 |
|     404 | 0x0345      |         837 |
|     405 | 0x00B9      |         185 |
|     406 | 0x2D82      |       11650 |
|     407 | 0x2D83      |       11651 |
|     408 | 0x2D84      |       11652 |
|     409 | 0x2D85      |       11653 |
|     410 | 0x2D86      |       11654 |
|     411 | 0x2D87      |       11655 |
|     412 | 0x2D88      |       11656 |
|     413 | 0x2D89      |       11657 |
|     414 | 0x2D8A      |       11658 |
|     415 | 0x2D8B      |       11659 |
|     416 | 0x2D8C      |       11660 |
|     417 | 0x2D8D      |       11661 |
|     418 | 0x2D8E      |       11662 |
|     419 | 0x2D8F      |       11663 |
|     420 | 0x2D90      |       11664 |
|     421 | 0x2D91      |       11665 |
|     422 | 0x2D92      |       11666 |
|     423 | 0x2D93      |       11667 |
|     424 | 0x2D94      |       11668 |
|     425 | 0xFFFFE9FD  |  4294961661 |
|     426 | 0xC665      |       50789 |
|     427 | 0x0148      |         328 |
|     428 | 0x02FD      |         765 |
|     429 | 0x2D95      |       11669 |
|     430 | 0x2D96      |       11670 |
|     431 | 0x2D97      |       11671 |
|     432 | 0x2D98      |       11672 |
|     433 | 0x2D99      |       11673 |
|     434 | 0x2D9A      |       11674 |
|     435 | 0x0064      |         100 |
|     436 | 0x0C80      |        3200 |
|     437 | 0x2D9B      |       11675 |
|     438 | 0x2D9D      |       11677 |
|     439 | 0x2D9E      |       11678 |
|     440 | 0x2D9F      |       11679 |
|     441 | 0x2DA0      |       11680 |
|     442 | 0x2DA1      |       11681 |
|     443 | 0x2DA2      |       11682 |
|     444 | 0x2DA3      |       11683 |
|     445 | 0x2DA4      |       11684 |
|     446 | 0x0007      |           7 |
|     447 | 0x2DA5      |       11685 |
|     448 | 0x2DA6      |       11686 |
|     449 | 0x2DA7      |       11687 |
|     450 | 0x2DA8      |       11688 |
|     451 | 0x2DAA      |       11690 |
|     452 | 0x0033      |          51 |
|     453 | 0x16F4E     |       94030 |
|     454 | 0x50BA8     |      330664 |
|     455 | 0xFFFF94D5  |  4294939861 |
|     456 | 0x08EA      |        2282 |
|     457 | 0x17C03     |       97283 |
|     458 | 0x504F9     |      328953 |
|     459 | 0xFFFF95F5  |  4294940149 |
|     460 | 0x08E3      |        2275 |
|     461 | 0x183B2     |       99250 |
|     462 | 0x50AC3     |      330435 |
|     463 | 0xFFFF98AC  |  4294940844 |
|     464 | 0x16DFE     |       93694 |
|     465 | 0x51E49     |      335433 |
|     466 | 0xFFFF9852  |  4294940754 |
|     467 | 0x07EE      |        2030 |
|     468 | 0x150BB     |       86203 |
|     469 | 0x5196F     |      334191 |
|     470 | 0xFFFF92B3  |  4294939315 |
|     471 | 0x00E1      |         225 |
|     472 | 0x112AB     |       70315 |
|     473 | 0x53E68     |      343656 |
|     474 | 0xFFFF9A70  |  4294941296 |
|     475 | 0x0359      |         857 |
|     476 | 0x0065      |         101 |
|     477 | 0x0092      |         146 |
|     478 | 0x2DAB      |       11691 |
|     479 | 0x0069      |         105 |
|     480 | 0x03A3      |         931 |
|     481 | 0x2DAD      |       11693 |
|     482 | 0x2DAE      |       11694 |
|     483 | 0x1B8CA     |      112842 |
|     484 | 0x4E9F8     |      322040 |
|     485 | 0xFFFFA0B0  |  4294942896 |
|     486 | 0x0EDA      |        3802 |
|     487 | 0x1C6B7     |      116407 |
|     488 | 0x4F0CF     |      323791 |
|     489 | 0xFFFFA232  |  4294943282 |
|     490 | 0x1C82D     |      116781 |
|     491 | 0x4EED4     |      323284 |
|     492 | 0xFFFFA240  |  4294943296 |
|     493 | 0x0ED9      |        3801 |
|     494 | 0x1BA57     |      113239 |
|     495 | 0x5030E     |      328462 |
|     496 | 0xFFFFA126  |  4294943014 |
|     497 | 0x2DAC      |       11692 |
|     498 | 0x2DAF      |       11695 |
|     499 | 0x007F      |         127 |
|     500 | 0x00B0      |         176 |
|     501 | 0x2DB0      |       11696 |
|     502 | 0x2DB1      |       11697 |
|     503 | 0x2DB2      |       11698 |
|     504 | 0x2DB3      |       11699 |
|     505 | 0x2DB4      |       11700 |
|     506 | 0x2DB5      |       11701 |
|     507 | 0x2DB6      |       11702 |
|     508 | 0x2DB7      |       11703 |
|     509 | 0x2DB8      |       11704 |
|     510 | 0x2DB9      |       11705 |
|     511 | 0x0015      |          21 |
|     512 | 0x0091      |         145 |
|     513 | 0x0002      |           2 |
|     514 | 0x12A43     |       76355 |
|     515 | 0xFFFDF0EB  |  4294832363 |
|     516 | 0x02F2      |         754 |
|     517 | 0x13A45     |       80453 |
|     518 | 0xFFFDE615  |  4294829589 |
|     519 | 0x0372      |         882 |
|     520 | 0x2DBA      |       11706 |
|     521 | 0x010A      |         266 |
|     522 | 0x2DBB      |       11707 |
|     523 | 0x2DBC      |       11708 |
|     524 | 0x2DBD      |       11709 |
|     525 | 0x2DBE      |       11710 |
|     526 | 0x2DBF      |       11711 |
|     527 | 0x2DC0      |       11712 |
|     528 | 0x2DC1      |       11713 |
|     529 | 0x2DC2      |       11714 |
|     530 | 0x2DC3      |       11715 |
|     531 | 0x2DC4      |       11716 |
|     532 | 0x2DC5      |       11717 |
|     533 | 0x2DC6      |       11718 |
|     534 | 0x2DC7      |       11719 |
|     535 | 0x2DC8      |       11720 |
|     536 | 0x2DC9      |       11721 |
|     537 | 0x2DCA      |       11722 |
|     538 | 0x2DCB      |       11723 |
|     539 | 0x2DCC      |       11724 |
|     540 | 0x2DCD      |       11725 |
|     541 | 0x2DCE      |       11726 |
|     542 | 0x2DCF      |       11727 |
|     543 | 0x00C9      |         201 |

## Events

### Event 65535

#### Metadata

| Field        | Value   |
|--------------|---------|
| Entrypoint   | 0x0000  |
| Data Size    | 1 bytes |
| Instructions | 1       |

```
      00 01 02 03 04 05 06 07  08 09 0A 0B 0C 0D 0E 0F
      -- -- -- -- -- -- -- --  -- -- -- -- -- -- -- --
0000: 00                                                .               
```

#### Opcodes

```
  0: 0x0000 [0x00] END_REQSTACK()
```

### Event 889

#### Metadata

| Field        | Value   |
|--------------|---------|
| Entrypoint   | 0x0001  |
| Data Size    | 1 bytes |
| Instructions | 1       |

```
      00 01 02 03 04 05 06 07  08 09 0A 0B 0C 0D 0E 0F
      -- -- -- -- -- -- -- --  -- -- -- -- -- -- -- --
0000:    00                                              .              
```

#### Opcodes

```
  0: 0x0001 [0x00] END_REQSTACK()
```

### Event 65535.1

#### Metadata

| Field        | Value   |
|--------------|---------|
| Entrypoint   | 0x0002  |
| Data Size    | 9 bytes |
| Instructions | 3       |

```
      00 01 02 03 04 05 06 07  08 09 0A 0B 0C 0D 0E 0F
      -- -- -- -- -- -- -- --  -- -- -- -- -- -- -- --
0000:       22 00 2F 00 F8 FF  FF 7F 00                   "./......     
```

#### Opcodes

```
  0: 0x0002 [0x22] ENTITY_HIDE_FLAG(enabled=0x00)
  1: 0x0004 [0x2F] EventEntity->Render.Flags0 &= ~0x80000 // Bit 19
  2: 0x000A [0x00] END_REQSTACK()
```

### Event 953

#### Metadata

| Field        | Value    |
|--------------|----------|
| Entrypoint   | 0x000B   |
| Data Size    | 79 bytes |
| Instructions | 10       |

```
      00 01 02 03 04 05 06 07  08 09 0A 0B 0C 0D 0E 0F
      -- -- -- -- -- -- -- --  -- -- -- -- -- -- -- --
0000:                                   45 00 80 F8 FF             E....
0010: FF 7F F8 FF FF 7F 66 64  6F 31 01 80 55 00 80 F8  ......fdo1..U...
0020: FF FF 7F F8 FF FF 7F 66  64 6F 31 46 01 38 02 80  .......fdo1F.8..
0030: 1C 03 80 45 00 80 F8 FF  FF 7F F8 FF FF 7F 66 64  ...E..........fd
0040: 6F 31 01 80 55 00 80 F8  FF FF 7F F8 FF FF 7F 66  o1..U..........f
0050: 64 6F 31 5D 01 80 04 80  21 00                    do1]....!.      
```

#### Opcodes

```
  0: 0x000B [0x45] LOAD_SCHEDULED_TASK: Load scheduler "fdo1" with entities [EventEntity, EventEntity], work=[200*, 0*]
  1: 0x001C [0x55] WAIT_LOAD_SCHEDULER: Wait for scheduler "fdo1" with entities [EventEntity, EventEntity], work=200*
  2: 0x002B [0x46] CAMERA_CONTROL: Disable user control
  3: 0x002D [0x38] SET_CLIENT_EVENT_MODE(mode=19*)
  4: 0x0030 [0x1C] WAIT(30* ticks)
  5: 0x0033 [0x45] LOAD_SCHEDULED_TASK: Load scheduler "fdo1" with entities [EventEntity, EventEntity], work=[200*, 0*]
  6: 0x0044 [0x55] WAIT_LOAD_SCHEDULER: Wait for scheduler "fdo1" with entities [EventEntity, EventEntity], work=200*
  7: 0x0053 [0x5D] SET_MUSIC_VOLUME(volume=0*, fade_time=120*)
  8: 0x0058 [0x21] END_EVENT
  9: 0x0059 [0x00] END_REQSTACK()
```

### Event 823

#### Metadata

| Field        | Value      |
|--------------|------------|
| Entrypoint   | 0x005A     |
| Data Size    | 2595 bytes |
| Instructions | 332        |

```
      00 01 02 03 04 05 06 07  08 09 0A 0B 0C 0D 0E 0F
      -- -- -- -- -- -- -- --  -- -- -- -- -- -- -- --
0050:                                42 45 00 80 F8 FF            BE....
0060: FF 7F F8 FF FF 7F 66 64  6F 31 01 80 55 00 80 F8  ......fdo1..U...
0070: FF FF 7F F8 FF FF 7F 66  64 6F 31 46 01 38 02 80  .......fdo1F.8..
0080: 75 00 05 80 75 01 92 01  5C 21 03 01 92 01 5D 21  u...u...\!....]!
0090: 03 01 92 01 82 20 03 01  92 01 7E 20 03 01 92 01  ..... ....~ ....
00A0: 53 20 03 01 92 01 54 20  03 01 4E 00 5D 21 03 01  S ....T ..N.]!..
00B0: 2F 00 5D 21 03 01 94 01  F0 FF FF 7F 94 01 5C 21  /.]!..........\!
00C0: 03 01 94 01 5D 21 03 01  80 F0 FF FF 7F 80 5D 21  ....]!........]!
00D0: 03 01 22 01 BA F0 FF FF  7F 06 80 07 80 08 80 09  ..".............
00E0: 80 BA 5C 21 03 01 0A 80  0B 80 08 80 09 80 BA 5D  ..\!...........]
00F0: 21 03 01 0C 80 0D 80 0E  80 0F 80 45 10 80 F0 FF  !..........E....
0100: FF 7F F0 FF FF 7F 79 30  30 30 01 80 45 00 80 F8  ......y000..E...
0110: FF FF 7F F8 FF FF 7F 66  64 69 31 01 80 1C 04 80  .......fdi1.....
0120: 66 11 80 5C 21 03 01 5C  21 03 01 74 6C 6B 30 2B  f..\!..\!..tlk0+
0130: 5C 21 03 01 12 80 23 1C  13 80 2B 5C 21 03 01 14  \!....#...+\!...
0140: 80 23 1C 13 80 2B 5C 21  03 01 15 80 23 66 11 80  .#...+\!....#f..
0150: 5C 21 03 01 5C 21 03 01  74 6C 6B 31 1C 13 80 52  \!..\!..tlk1...R
0160: 10 80 F0 FF FF 7F F0 FF  FF 7F 79 30 30 30 45 10  ..........y000E.
0170: 80 F0 FF FF 7F F0 FF FF  7F 79 30 30 31 01 80 4A  .........y001..J
0180: 5C 21 03 01 F0 FF FF 7F  1C 03 80 6E 5C 21 03 01  \!.........n\!..
0190: 16 80 99 5C 21 03 01 2B  5C 21 03 01 17 80 23 2B  ...\!..+\!....#+
01A0: 5C 21 03 01 18 80 23 52  10 80 F0 FF FF 7F F0 FF  \!....#R........
01B0: FF 7F 79 30 30 31 45 10  80 F0 FF FF 7F F0 FF FF  ..y001E.........
01C0: 7F 79 62 62 62 01 80 1C  13 80 66 11 80 5C 21 03  .ybbb.....f..\!.
01D0: 01 5C 21 03 01 74 6C 6B  30 2B 5C 21 03 01 19 80  .\!..tlk0+\!....
01E0: 23 2B 5C 21 03 01 1A 80  23 66 11 80 5C 21 03 01  #+\!....#f..\!..
01F0: 5C 21 03 01 74 6C 6B 31  52 10 80 F0 FF FF 7F F0  \!..tlk1R.......
0200: FF FF 7F 79 62 62 62 45  10 80 F0 FF FF 7F F0 FF  ...ybbbE........
0210: FF 7F 79 30 30 32 01 80  2B 5C 21 03 01 1B 80 23  ..y002..+\!....#
0220: 6E 5C 21 03 01 01 80 99  5C 21 03 01 2B 5C 21 03  n\!.....\!..+\!.
0230: 01 1C 80 23 2B 5C 21 03  01 1D 80 23 52 10 80 F0  ...#+\!....#R...
0240: FF FF 7F F0 FF FF 7F 79  30 30 32 45 10 80 F0 FF  .......y002E....
0250: FF 7F F0 FF FF 7F 79 30  30 33 01 80 24 1E 80 01  ......y003..$...
0260: 80 01 80 25 02 00 10 01  80 00 A3 02 52 10 80 F0  ...%........R...
0270: FF FF 7F F0 FF FF 7F 79  30 30 33 45 10 80 F0 FF  .......y003E....
0280: FF 7F F0 FF FF 7F 79 30  30 34 01 80 6E 5C 21 03  ......y004..n\!.
0290: 01 1F 80 99 5C 21 03 01  2B 5C 21 03 01 20 80 23  ....\!..+\!.. .#
02A0: 01 13 03 02 00 10 21 80  00 13 03 52 10 80 F0 FF  ......!....R....
02B0: FF 7F F0 FF FF 7F 79 30  30 33 45 10 80 F0 FF FF  ......y003E.....
02C0: 7F F0 FF FF 7F 79 30 30  34 01 80 66 11 80 5C 21  .....y004..f..\!
02D0: 03 01 5C 21 03 01 74 68  6B 31 2B 5C 21 03 01 22  ..\!..thk1+\!.."
02E0: 80 23 2B 5C 21 03 01 23  80 23 66 11 80 5C 21 03  .#+\!..#.#f..\!.
02F0: 01 5C 21 03 01 74 68 6B  32 1C 13 80 6E 5C 21 03  .\!..thk2...n\!.
0300: 01 01 80 99 5C 21 03 01  2B 5C 21 03 01 24 80 23  ....\!..+\!..$.#
0310: 01 13 03 52 10 80 F0 FF  FF 7F F0 FF FF 7F 79 30  ...R..........y0
0320: 30 34 45 10 80 F0 FF FF  7F F0 FF FF 7F 79 30 30  04E..........y00
0330: 35 01 80 2B 5C 21 03 01  25 80 23 52 10 80 F0 FF  5..+\!..%.#R....
0340: FF 7F F0 FF FF 7F 79 30  30 35 45 10 80 F0 FF FF  ......y005E.....
0350: 7F F0 FF FF 7F 79 30 30  36 01 80 1C 04 80 2B 5C  .....y006.....+\
0360: 21 03 01 26 80 23 1C 13  80 2B 5C 21 03 01 27 80  !..&.#...+\!..'.
0370: 23 52 10 80 F0 FF FF 7F  F0 FF FF 7F 79 30 30 36  #R..........y006
0380: BA 5C 21 03 01 28 80 29  80 2A 80 2B 80 45 10 80  .\!..(.).*.+.E..
0390: F0 FF FF 7F F0 FF FF 7F  79 30 30 37 01 80 27 10  ........y007..'.
03A0: 5C 21 03 01 05 1C 2C 80  2B 5C 21 03 01 2D 80 23  \!....,.+\!..-.#
03B0: 1C 13 80 2B 5D 21 03 01  2E 80 23 2A 10 5C 21 03  ...+]!....#*.\!.
03C0: 01 4A 5D 21 03 01 5C 21  03 01 2B 5C 21 03 01 2F  .J]!..\!..+\!../
03D0: 80 23 52 10 80 F0 FF FF  7F F0 FF FF 7F 79 30 30  .#R..........y00
03E0: 37 45 10 80 F0 FF FF 7F  F0 FF FF 7F 79 30 30 39  7E..........y009
03F0: 01 80 1C 13 80 2B 5D 21  03 01 30 80 23 52 10 80  .....+]!..0.#R..
0400: F0 FF FF 7F F0 FF FF 7F  79 30 30 39 45 10 80 F0  ........y009E...
0410: FF FF 7F F0 FF FF 7F 79  30 31 30 01 80 66 11 80  .......y010..f..
0420: 5C 21 03 01 5C 21 03 01  74 6C 6B 30 2B 5C 21 03  \!..\!..tlk0+\!.
0430: 01 31 80 23 2B 5C 21 03  01 32 80 23 66 11 80 5C  .1.#+\!..2.#f..\
0440: 21 03 01 5C 21 03 01 74  6C 6B 31 52 10 80 F0 FF  !..\!..tlk1R....
0450: FF 7F F0 FF FF 7F 79 30  31 30 45 10 80 F0 FF FF  ......y010E.....
0460: 7F F0 FF FF 7F 79 30 30  38 01 80 2B 5D 21 03 01  .....y008..+]!..
0470: 33 80 23 6E 5C 21 03 01  34 80 99 5C 21 03 01 2B  3.#n\!..4..\!..+
0480: 5C 21 03 01 35 80 23 2B  5D 21 03 01 36 80 23 52  \!..5.#+]!..6.#R
0490: 10 80 F0 FF FF 7F F0 FF  FF 7F 79 30 30 38 45 10  ..........y008E.
04A0: 80 F0 FF FF 7F F0 FF FF  7F 79 30 31 31 01 80 6E  .........y011..n
04B0: 5C 21 03 01 37 80 99 5C  21 03 01 2B 5C 21 03 01  \!..7..\!..+\!..
04C0: 38 80 23 52 10 80 F0 FF  FF 7F F0 FF FF 7F 79 30  8.#R..........y0
04D0: 31 31 45 10 80 F0 FF FF  7F F0 FF FF 7F 79 30 31  11E..........y01
04E0: 32 01 80 66 02 80 5D 21  03 01 5D 21 03 01 74 6C  2..f..]!..]!..tl
04F0: 6B 30 2B 5D 21 03 01 39  80 23 2B 5D 21 03 01 3A  k0+]!..9.#+]!..:
0500: 80 23 66 02 80 5D 21 03  01 5D 21 03 01 74 6C 6B  .#f..]!..]!..tlk
0510: 31 52 10 80 F0 FF FF 7F  F0 FF FF 7F 79 30 31 32  1R..........y012
0520: 45 10 80 F0 FF FF 7F F0  FF FF 7F 79 30 31 33 01  E..........y013.
0530: 80 1C 13 80 66 11 80 5C  21 03 01 5C 21 03 01 74  ....f..\!..\!..t
0540: 68 6B 31 2B 5C 21 03 01  3B 80 23 66 11 80 5C 21  hk1+\!..;.#f..\!
0550: 03 01 5C 21 03 01 74 68  6B 32 2B 5D 21 03 01 3C  ..\!..thk2+]!..<
0560: 80 23 52 10 80 F0 FF FF  7F F0 FF FF 7F 79 30 31  .#R..........y01
0570: 33 45 10 80 F0 FF FF 7F  F0 FF FF 7F 79 30 31 34  3E..........y014
0580: 01 80 1C 13 80 66 11 80  5C 21 03 01 5C 21 03 01  .....f..\!..\!..
0590: 74 6C 6B 30 2B 5C 21 03  01 3D 80 23 2B 5C 21 03  tlk0+\!..=.#+\!.
05A0: 01 3E 80 23 66 11 80 5C  21 03 01 5C 21 03 01 74  .>.#f..\!..\!..t
05B0: 6C 6B 31 52 10 80 F0 FF  FF 7F F0 FF FF 7F 79 30  lk1R..........y0
05C0: 31 34 45 10 80 F0 FF FF  7F F0 FF FF 7F 79 30 31  14E..........y01
05D0: 35 01 80 1C 03 80 2B 5D  21 03 01 3F 80 23 1C 2C  5.....+]!..?.#.,
05E0: 80 6E 5D 21 03 01 34 80  99 5D 21 03 01 2B 5D 21  .n]!..4..]!..+]!
05F0: 03 01 40 80 23 52 10 80  F0 FF FF 7F F0 FF FF 7F  ..@.#R..........
0600: 79 30 31 35 45 10 80 F0  FF FF 7F F0 FF FF 7F 79  y015E..........y
0610: 63 63 63 01 80 1C 13 80  2B 5C 21 03 01 41 80 23  ccc.....+\!..A.#
0620: 6E 5C 21 03 01 42 80 99  5C 21 03 01 2B 5C 21 03  n\!..B..\!..+\!.
0630: 01 43 80 23 1C 44 80 2B  5D 21 03 01 45 80 23 52  .C.#.D.+]!..E.#R
0640: 10 80 F0 FF FF 7F F0 FF  FF 7F 79 63 63 63 45 10  ..........ycccE.
0650: 80 F0 FF FF 7F F0 FF FF  7F 79 30 31 36 01 80 6E  .........y016..n
0660: 5C 21 03 01 46 80 99 5C  21 03 01 2B 5C 21 03 01  \!..F..\!..+\!..
0670: 47 80 23 52 10 80 F0 FF  FF 7F F0 FF FF 7F 79 30  G.#R..........y0
0680: 31 36 BA F0 FF FF 7F 48  80 49 80 0E 80 09 80 4A  16.....H.I.....J
0690: F0 FF FF 7F 5D 21 03 01  45 10 80 F0 FF FF 7F F0  ....]!..E.......
06A0: FF FF 7F 79 30 31 37 01  80 6E 5C 21 03 01 4A 80  ...y017..n\!..J.
06B0: 99 5C 21 03 01 2B 5C 21  03 01 4B 80 23 52 10 80  .\!..+\!..K.#R..
06C0: F0 FF FF 7F F0 FF FF 7F  79 30 31 37 45 10 80 F0  ........y017E...
06D0: FF FF 7F F0 FF FF 7F 79  30 31 38 01 80 2B 5D 21  .......y018..+]!
06E0: 03 01 4C 80 23 66 02 80  5D 21 03 01 5D 21 03 01  ..L.#f..]!..]!..
06F0: 74 68 6B 31 2B 5D 21 03  01 4D 80 23 52 10 80 F0  thk1+]!..M.#R...
0700: FF FF 7F F0 FF FF 7F 79  30 31 38 45 10 80 F0 FF  .......y018E....
0710: FF 7F F0 FF FF 7F 79 30  31 39 01 80 6E 5C 21 03  ......y019..n\!.
0720: 01 4E 80 99 5C 21 03 01  2B 5C 21 03 01 4F 80 23  .N..\!..+\!..O.#
0730: 66 02 80 5D 21 03 01 5D  21 03 01 74 68 6B 32 2B  f..]!..]!..thk2+
0740: 5D 21 03 01 50 80 23 52  10 80 F0 FF FF 7F F0 FF  ]!..P.#R........
0750: FF 7F 79 30 31 39 45 10  80 F0 FF FF 7F F0 FF FF  ..y019E.........
0760: 7F 79 30 32 30 01 80 24  51 80 01 80 01 80 25 02  .y020..$Q.....%.
0770: 00 10 01 80 00 91 07 2B  5D 21 03 01 52 80 23 52  .......+]!..R.#R
0780: 10 80 F0 FF FF 7F F0 FF  FF 7F 79 30 32 30 01 9F  ..........y020..
0790: 07 02 00 10 21 80 00 9F  07 01 67 07 01 9F 07 45  ....!.....g....E
07A0: 10 80 F0 FF FF 7F F0 FF  FF 7F 79 64 64 64 01 80  ..........yddd..
07B0: 1C 13 80 2B 5D 21 03 01  53 80 23 2B 5D 21 03 01  ...+]!..S.#+]!..
07C0: 54 80 23 52 10 80 F0 FF  FF 7F F0 FF FF 7F 79 64  T.#R..........yd
07D0: 64 64 45 10 80 F0 FF FF  7F F0 FF FF 7F 79 30 32  ddE..........y02
07E0: 31 01 80 1C 13 80 66 02  80 5D 21 03 01 5D 21 03  1.....f..]!..]!.
07F0: 01 74 6C 6B 30 2B 5D 21  03 01 55 80 23 2B 5D 21  .tlk0+]!..U.#+]!
0800: 03 01 56 80 23 66 02 80  5D 21 03 01 5D 21 03 01  ..V.#f..]!..]!..
0810: 74 6C 6B 31 52 10 80 F0  FF FF 7F F0 FF FF 7F 79  tlk1R..........y
0820: 30 32 31 45 10 80 F0 FF  FF 7F F0 FF FF 7F 79 30  021E..........y0
0830: 32 32 01 80 1C 13 80 2B  5D 21 03 01 57 80 23 66  22.....+]!..W.#f
0840: 02 80 5D 21 03 01 5D 21  03 01 74 68 6B 31 2B 5D  ..]!..]!..thk1+]
0850: 21 03 01 58 80 23 2B 5D  21 03 01 59 80 23 66 02  !..X.#+]!..Y.#f.
0860: 80 5D 21 03 01 5D 21 03  01 74 68 6B 32 52 10 80  .]!..]!..thk2R..
0870: F0 FF FF 7F F0 FF FF 7F  79 30 32 32 45 10 80 F0  ........y022E...
0880: FF FF 7F F0 FF FF 7F 79  30 32 33 01 80 1C 13 80  .......y023.....
0890: 2B 5D 21 03 01 5A 80 23  6E 5D 21 03 01 34 80 99  +]!..Z.#n]!..4..
08A0: 5D 21 03 01 2B 5D 21 03  01 5B 80 23 2B 5D 21 03  ]!..+]!..[.#+]!.
08B0: 01 5C 80 23 2B 5D 21 03  01 5D 80 23 52 10 80 F0  .\.#+]!..].#R...
08C0: FF FF 7F F0 FF FF 7F 79  30 32 33 45 10 80 F0 FF  .......y023E....
08D0: FF 7F F0 FF FF 7F 79 30  32 34 01 80 4A 5D 21 03  ......y024..J]!.
08E0: 01 F0 FF FF 7F 1C 13 80  66 02 80 5D 21 03 01 5D  ........f..]!..]
08F0: 21 03 01 74 6C 6B 30 2B  5D 21 03 01 5E 80 23 2B  !..tlk0+]!..^.#+
0900: 5D 21 03 01 5F 80 23 66  02 80 5D 21 03 01 5D 21  ]!.._.#f..]!..]!
0910: 03 01 74 6C 6B 31 52 10  80 F0 FF FF 7F F0 FF FF  ..tlk1R.........
0920: 7F 79 30 32 34 45 10 80  F0 FF FF 7F F0 FF FF 7F  .y024E..........
0930: 79 30 32 35 01 80 6E 5C  21 03 01 1F 80 99 5C 21  y025..n\!.....\!
0940: 03 01 2B 5C 21 03 01 60  80 23 52 10 80 F0 FF FF  ..+\!..`.#R.....
0950: 7F F0 FF FF 7F 79 30 32  35 45 10 80 F0 FF FF 7F  .....y025E......
0960: F0 FF FF 7F 79 30 32 36  01 80 66 11 80 5C 21 03  ....y026..f..\!.
0970: 01 5C 21 03 01 74 6C 6B  30 2B 5C 21 03 01 61 80  .\!..tlk0+\!..a.
0980: 23 2B 5C 21 03 01 62 80  23 66 11 80 5C 21 03 01  #+\!..b.#f..\!..
0990: 5C 21 03 01 74 6C 6B 31  52 10 80 F0 FF FF 7F F0  \!..tlk1R.......
09A0: FF FF 7F 79 30 32 36 45  10 80 F0 FF FF 7F F0 FF  ...y026E........
09B0: FF 7F 79 30 32 37 01 80  79 00 5D 21 03 01 5C 21  ..y027..y.]!..\!
09C0: 03 01 2B 5D 21 03 01 63  80 23 7B 5D 21 03 01 1C  ..+]!..c.#{]!...
09D0: 2C 80 6E 5D 21 03 01 64  80 99 5D 21 03 01 2B 5D  ,.n]!..d..]!..+]
09E0: 21 03 01 65 80 23 52 10  80 F0 FF FF 7F F0 FF FF  !..e.#R.........
09F0: 7F 79 30 32 37 45 10 80  F0 FF FF 7F F0 FF FF 7F  .y027E..........
0A00: 79 30 32 38 01 80 4A 5C  21 03 01 F0 FF FF 7F 2B  y028..J\!......+
0A10: 5C 21 03 01 66 80 23 6E  5C 21 03 01 67 80 99 5C  \!..f.#n\!..g..\
0A20: 21 03 01 2B 5C 21 03 01  68 80 23 2B 5C 21 03 01  !..+\!..h.#+\!..
0A30: 69 80 23 1C 2C 80 45 00  80 F8 FF FF 7F F8 FF FF  i.#.,.E.........
0A40: 7F 66 64 6F 31 01 80 55  00 80 F8 FF FF 7F F8 FF  .fdo1..U........
0A50: FF 7F 66 64 6F 31 1C 03  80 52 10 80 F0 FF FF 7F  ..fdo1...R......
0A60: F0 FF FF 7F 79 30 32 38  46 00 45 00 80 F0 FF FF  ....y028F.E.....
0A70: 7F F0 FF FF 7F 66 64 69  32 01 80 21 00           .....fdi2..!.   
```

#### Opcodes

```
  0: 0x005A [0x42] SET_CLI_EVENT_CANCEL_DATA()
  1: 0x005B [0x45] LOAD_SCHEDULED_TASK: Load scheduler "fdo1" with entities [EventEntity, EventEntity], work=[200*, 0*]
  2: 0x006C [0x55] WAIT_LOAD_SCHEDULER: Wait for scheduler "fdo1" with entities [EventEntity, EventEntity], work=200*
  3: 0x007B [0x46] CAMERA_CONTROL: Disable user control
  4: 0x007D [0x38] SET_CLIENT_EVENT_MODE(mode=19*)
  5: 0x0080 [0x75] LOAD_ROOM(Load indoor room, room=565*)
  6: 0x0084 [0x75] LOAD_ROOM(No action)
  7: 0x0086 [0x92] Fari-Wari (ID: 16982364/0x0103215C)->Render.Flags3 ^= 0x01
  8: 0x008C [0x92] Biyaada (ID: 16982365/0x0103215D)->Render.Flags3 ^= 0x01
  9: 0x0092 [0x92] Zubyahn (ID: 16982146/0x01032082)->Render.Flags3 ^= 0x01
 10: 0x0098 [0x92] Halbeeya (ID: 16982142/0x0103207E)->Render.Flags3 ^= 0x01
 11: 0x009E [0x92] Fayeewah (ID: 16982099/0x01032053)->Render.Flags3 ^= 0x01
 12: 0x00A4 [0x92] Yafaaf (ID: 16982100/0x01032054)->Render.Flags3 ^= 0x01
 13: 0x00AA [0x4E] SET_ENTITY_HIDE_FLAG: Show Biyaada (ID: 16982365/0x0103215D)
 14: 0x00B0 [0x2F] Biyaada (ID: 16982365/0x0103215D)->Render.Flags0 &= ~0x80000 // Bit 19
 15: 0x00B6 [0x94] LocalPlayer->Render.Flags3 ^= 0x01
 16: 0x00BC [0x94] Fari-Wari (ID: 16982364/0x0103215C)->Render.Flags3 ^= 0x01
 17: 0x00C2 [0x94] Biyaada (ID: 16982365/0x0103215D)->Render.Flags3 ^= 0x01
 18: 0x00C8 [0x80] LOAD_WAIT(entity=LocalPlayer)
 19: 0x00CD [0x80] LOAD_WAIT(entity=Biyaada (ID: 16982365/0x0103215D))
 20: 0x00D2 [0x22] ENTITY_HIDE_FLAG(enabled=0x01)
 21: 0x00D4 [0xBA] SET_ENTITY_POSITION(entity_id=LocalPlayer, pos_x=80.537*, pos_z=-134.507*, pos_y=-6.000*, direction=92.1°*)
 22: 0x00E1 [0xBA] SET_ENTITY_POSITION(entity_id=Fari-Wari (ID: 16982364/0x0103215C), pos_x=80.391*, pos_z=-136.859*, pos_y=-6.000*, direction=92.1°*)
 23: 0x00EE [0xBA] SET_ENTITY_POSITION(entity_id=Biyaada (ID: 16982365/0x0103215D), pos_x=68.154*, pos_z=-129.606*, pos_y=-6.499*, direction=272.1°*)
 24: 0x00FB [0x45] LOAD_SCHEDULED_TASK: Load scheduler "y000" with entities [LocalPlayer, LocalPlayer], work=[292*, 0*]
 25: 0x010C [0x45] LOAD_SCHEDULED_TASK: Load scheduler "fdi1" with entities [EventEntity, EventEntity], work=[200*, 0*]
 26: 0x011D [0x1C] WAIT(120* ticks)
 27: 0x0120 [0x66] LOAD_EXT_SCHEDULER_MAIN: Load scheduler "tlk0" with entities [Fari-Wari (ID: 16982364/0x0103215C), Fari-Wari (ID: 16982364/0x0103215C)], work=49*
 28: 0x012F [0x2B] Fari-Wari (ID: 16982364/0x0103215C) [11430*]:
    → "Ahem! <Cough, cough>.\u007F1\u0000\u0007"
 29: 0x0136 [0x23] WAIT_FOR_DIALOG_INTERACTION
 30: 0x0137 [0x1C] WAIT(45* ticks)
 31: 0x013A [0x2B] Fari-Wari (ID: 16982364/0x0103215C) [11431*]:
    → "Mi-mi-mi-mi-mi.\u007F1\u0000\u0007"
 32: 0x0141 [0x23] WAIT_FOR_DIALOG_INTERACTION
 33: 0x0142 [0x1C] WAIT(45* ticks)
 34: 0x0145 [0x2B] Fari-Wari (ID: 16982364/0x0103215C) [11432*]:
    → "Lalala-lala-lala.\u0001t\u007F1\u0000\u0007"
 35: 0x014C [0x23] WAIT_FOR_DIALOG_INTERACTION
 36: 0x014D [0x66] LOAD_EXT_SCHEDULER_MAIN: Load scheduler "tlk1" with entities [Fari-Wari (ID: 16982364/0x0103215C), Fari-Wari (ID: 16982364/0x0103215C)], work=49*
 37: 0x015C [0x1C] WAIT(45* ticks)
 38: 0x015F [0x52] END_LOAD_SCHEDULER: End scheduler "y000" with entities [LocalPlayer, LocalPlayer], work=292*
 39: 0x016E [0x45] LOAD_SCHEDULED_TASK: Load scheduler "y001" with entities [LocalPlayer, LocalPlayer], work=[292*, 0*]
 40: 0x017F [0x4A] Fari-Wari (ID: 16982364/0x0103215C) looks at LocalPlayer
 41: 0x0188 [0x1C] WAIT(30* ticks)
 42: 0x018B [0x6E] Fari-Wari (ID: 16982364/0x0103215C) uses emote 24*
 43: 0x0192 [0x99] Wait for Fari-Wari (ID: 16982364/0x0103215C) animation to complete
 44: 0x0197 [0x2B] Fari-Wari (ID: 16982364/0x0103215C) [11433*]:
    → "Ah! I was just doing some vocal exercises!\u0007(How very embarrassing!)\u007F1\u0000\u0007"
 45: 0x019E [0x23] WAIT_FOR_DIALOG_INTERACTION
 46: 0x019F [0x2B] Fari-Wari (ID: 16982364/0x0103215C) [11434*]:
    → "I am Fari-Wari the Eloquent (and never Long-Winded), a humble bard and all-round entertainer.\u007F1\u0000\u0007"
 47: 0x01A6 [0x23] WAIT_FOR_DIALOG_INTERACTION
 48: 0x01A7 [0x52] END_LOAD_SCHEDULER: End scheduler "y001" with entities [LocalPlayer, LocalPlayer], work=292*
 49: 0x01B6 [0x45] LOAD_SCHEDULED_TASK: Load scheduler "ybbb" with entities [LocalPlayer, LocalPlayer], work=[292*, 0*]
 50: 0x01C7 [0x1C] WAIT(45* ticks)
 51: 0x01CA [0x66] LOAD_EXT_SCHEDULER_MAIN: Load scheduler "tlk0" with entities [Fari-Wari (ID: 16982364/0x0103215C), Fari-Wari (ID: 16982364/0x0103215C)], work=49*
 52: 0x01D9 [0x2B] Fari-Wari (ID: 16982364/0x0103215C) [11435*]:
    → "To discover inspiration for new compositions, I am traveling this turbulent world in search of heroic tales that ignite the blood and stir the soul.\u007F1\u0000\u0007"
 53: 0x01E0 [0x23] WAIT_FOR_DIALOG_INTERACTION
 54: 0x01E1 [0x2B] Fari-Wari (ID: 16982364/0x0103215C) [11436*]:
    → "However, it pains me to realize I have heard the epics of the West twice, and in some cases thrice, over.\u0007And thus, gentle listener, I braved the ocean deep and wide to arrive here in this land of untold stories.\u007F1\u0000\u0007"
 55: 0x01E8 [0x23] WAIT_FOR_DIALOG_INTERACTION
 56: 0x01E9 [0x66] LOAD_EXT_SCHEDULER_MAIN: Load scheduler "tlk1" with entities [Fari-Wari (ID: 16982364/0x0103215C), Fari-Wari (ID: 16982364/0x0103215C)], work=49*
 57: 0x01F8 [0x52] END_LOAD_SCHEDULER: End scheduler "ybbb" with entities [LocalPlayer, LocalPlayer], work=292*
 58: 0x0207 [0x45] LOAD_SCHEDULED_TASK: Load scheduler "y002" with entities [LocalPlayer, LocalPlayer], work=[292*, 0*]
 59: 0x0218 [0x2B] Fari-Wari (ID: 16982364/0x0103215C) [11437*]:
    → "Your relaxed poise and posture lead me to believe you have some familiarity with our location.\u007F1\u0000\u0007"
 60: 0x021F [0x23] WAIT_FOR_DIALOG_INTERACTION
 61: 0x0220 [0x6E] Fari-Wari (ID: 16982364/0x0103215C) uses emote 0*
 62: 0x0227 [0x99] Wait for Fari-Wari (ID: 16982364/0x0103215C) animation to complete
 63: 0x022C [0x2B] Fari-Wari (ID: 16982364/0x0103215C) [11438*]:
    → "Perhaps our meeting was told in the stars, or at least in the tea leaves of some cup drained in this very establishment.\u007F1\u0000\u0007"
 64: 0x0233 [0x23] WAIT_FOR_DIALOG_INTERACTION
 65: 0x0234 [0x2B] Fari-Wari (ID: 16982364/0x0103215C) [11439*]:
    → "What say you?\u0007Will you consent to become my attendant, my Man Firesday, my guiding light in the darkness?\u007F1\u0000\u0007"
 66: 0x023B [0x23] WAIT_FOR_DIALOG_INTERACTION
 67: 0x023C [0x52] END_LOAD_SCHEDULER: End scheduler "y002" with entities [LocalPlayer, LocalPlayer], work=292*
 68: 0x024B [0x45] LOAD_SCHEDULED_TASK: Load scheduler "y003" with entities [LocalPlayer, LocalPlayer], work=[292*, 0*]
 69: 0x025C [0x24] CREATE_DIALOG(message_id=11440*, default_option=0*, option_flags=0*)
    → "Become his attendant?\u0007\u000BSure...\u0007Attendant?\u007F1\u0000\u0007"
 70: 0x0263 [0x25] WAIT_DIALOG_SELECT()
 71: 0x0264 [0x02] IF !(Work_Zone[0] == 0*) GOTO 0x02A3
 72: 0x026C [0x52] END_LOAD_SCHEDULER: End scheduler "y003" with entities [LocalPlayer, LocalPlayer], work=292*
 73: 0x027B [0x45] LOAD_SCHEDULED_TASK: Load scheduler "y004" with entities [LocalPlayer, LocalPlayer], work=[292*, 0*]
 74: 0x028C [0x6E] Fari-Wari (ID: 16982364/0x0103215C) uses emote 11*
 75: 0x0293 [0x99] Wait for Fari-Wari (ID: 16982364/0x0103215C) animation to complete
 76: 0x0298 [0x2B] Fari-Wari (ID: 16982364/0x0103215C) [11444*]:
    → "Wonderful! My prospective attendants usually put up much more of a fight!\u007F1\u0000\u0007"
 77: 0x029F [0x23] WAIT_FOR_DIALOG_INTERACTION
 78: 0x02A0 [0x01] GOTO 0x0313
 79: 0x02A3 [0x02] IF !(Work_Zone[0] == 1*) GOTO 0x0313
 80: 0x02AB [0x52] END_LOAD_SCHEDULER: End scheduler "y003" with entities [LocalPlayer, LocalPlayer], work=292*
 81: 0x02BA [0x45] LOAD_SCHEDULED_TASK: Load scheduler "y004" with entities [LocalPlayer, LocalPlayer], work=[292*, 0*]
 82: 0x02CB [0x66] LOAD_EXT_SCHEDULER_MAIN: Load scheduler "thk1" with entities [Fari-Wari (ID: 16982364/0x0103215C), Fari-Wari (ID: 16982364/0x0103215C)], work=49*
 83: 0x02DA [0x2B] Fari-Wari (ID: 16982364/0x0103215C) [11441*]:
    → "As my attendant, your duties will include...\u007F1\u0000\u0007"
 84: 0x02E1 [0x23] WAIT_FOR_DIALOG_INTERACTION
 85: 0x02E2 [0x2B] Fari-Wari (ID: 16982364/0x0103215C) [11442*]:
    → "...showing me around town, handling my shopping, restraining overly enthusiastic fans, keeping my dressing room supplied with sweets...\u007F1\u0000\u0007"
 86: 0x02E9 [0x23] WAIT_FOR_DIALOG_INTERACTION
 87: 0x02EA [0x66] LOAD_EXT_SCHEDULER_MAIN: Load scheduler "thk2" with entities [Fari-Wari (ID: 16982364/0x0103215C), Fari-Wari (ID: 16982364/0x0103215C)], work=49*
 88: 0x02F9 [0x1C] WAIT(45* ticks)
 89: 0x02FC [0x6E] Fari-Wari (ID: 16982364/0x0103215C) uses emote 0*
 90: 0x0303 [0x99] Wait for Fari-Wari (ID: 16982364/0x0103215C) animation to complete
 91: 0x0308 [0x2B] Fari-Wari (ID: 16982364/0x0103215C) [11443*]:
    → "...helping me overcome writing blocks--all manner of tasks that allow me to concentrate on my art.\u0007It truly is a glamorous position!\u007F1\u0000\u0007"
 92: 0x030F [0x23] WAIT_FOR_DIALOG_INTERACTION
 93: 0x0310 [0x01] GOTO 0x0313

SUBROUTINE_0313:
 94: 0x0313 [0x52] END_LOAD_SCHEDULER: End scheduler "y004" with entities [LocalPlayer, LocalPlayer], work=292*
 95: 0x0322 [0x45] LOAD_SCHEDULED_TASK: Load scheduler "y005" with entities [LocalPlayer, LocalPlayer], work=[292*, 0*]
 96: 0x0333 [0x2B] Fari-Wari (ID: 16982364/0x0103215C) [11445*]:
    → "Your first assignment will be to aid me as I interview the citizens of this town in search of heroic inspiration!\u007F1\u0000\u0007"
 97: 0x033A [0x23] WAIT_FOR_DIALOG_INTERACTION
 98: 0x033B [0x52] END_LOAD_SCHEDULER: End scheduler "y005" with entities [LocalPlayer, LocalPlayer], work=292*
 99: 0x034A [0x45] LOAD_SCHEDULED_TASK: Load scheduler "y006" with entities [LocalPlayer, LocalPlayer], work=[292*, 0*]
100: 0x035B [0x1C] WAIT(120* ticks)
101: 0x035E [0x2B] Fari-Wari (ID: 16982364/0x0103215C) [11446*]:
    → "Now, who to choose to become my muse...?\u007F1\u0000\u0007"
102: 0x0365 [0x23] WAIT_FOR_DIALOG_INTERACTION
103: 0x0366 [0x1C] WAIT(45* ticks)
104: 0x0369 [0x2B] Fari-Wari (ID: 16982364/0x0103215C) [11447*]:
    → "Let's see now...\u0007Hmmm, how about that severe-looking lass in the uniform?\u007F1\u0000\u0007"
105: 0x0370 [0x23] WAIT_FOR_DIALOG_INTERACTION
106: 0x0371 [0x52] END_LOAD_SCHEDULER: End scheduler "y006" with entities [LocalPlayer, LocalPlayer], work=292*
107: 0x0380 [0xBA] SET_ENTITY_POSITION(entity_id=Fari-Wari (ID: 16982364/0x0103215C), pos_x=73.300*, pos_z=-128.527*, pos_y=-5.999*, direction=86.7°*)
108: 0x038D [0x45] LOAD_SCHEDULED_TASK: Load scheduler "y007" with entities [LocalPlayer, LocalPlayer], work=[292*, 0*]
109: 0x039E [0x27] REQ_SET(priority=0x10, entity_id=Fari-Wari (ID: 16982364/0x0103215C), tag_num=0x05)
110: 0x03A5 [0x1C] WAIT(60* ticks)
111: 0x03A8 [0x2B] Fari-Wari (ID: 16982364/0x0103215C) [11448*]:
    → "Greetings, my Imperial rose.\u007F1\u0000\u0007"
112: 0x03AF [0x23] WAIT_FOR_DIALOG_INTERACTION
113: 0x03B0 [0x1C] WAIT(45* ticks)
114: 0x03B3 [0x2B] Biyaada (ID: 16982365/0x0103215D) [11449*]:
    → "Excuse me?\u007F1\u0000\u0007"
115: 0x03BA [0x23] WAIT_FOR_DIALOG_INTERACTION
116: 0x03BB [0x2A] GET_REQ_LEVEL(level=16, entity_id=Fari-Wari (ID: 16982364/0x0103215C))
117: 0x03C1 [0x4A] Biyaada (ID: 16982365/0x0103215D) looks at Fari-Wari (ID: 16982364/0x0103215C)
118: 0x03CA [0x2B] Fari-Wari (ID: 16982364/0x0103215C) [11450*]:
    → "May I impose on your solitude, sweet damsel?\u0007Perhaps we could share a pot of cha--?\u007F1\u0000\u0007"
119: 0x03D1 [0x23] WAIT_FOR_DIALOG_INTERACTION
120: 0x03D2 [0x52] END_LOAD_SCHEDULER: End scheduler "y007" with entities [LocalPlayer, LocalPlayer], work=292*
121: 0x03E1 [0x45] LOAD_SCHEDULED_TASK: Load scheduler "y009" with entities [LocalPlayer, LocalPlayer], work=[292*, 0*]
122: 0x03F2 [0x1C] WAIT(45* ticks)
123: 0x03F5 [0x2B] Biyaada (ID: 16982365/0x0103215D) [11451*]:
    → "How dare you speak to me in such a casual manner!?\u0007I am Biyaada, the senior adjutant to Skyserpent General Rughadjeen!\u007F1\u0000\u0007"
124: 0x03FC [0x23] WAIT_FOR_DIALOG_INTERACTION
125: 0x03FD [0x52] END_LOAD_SCHEDULER: End scheduler "y009" with entities [LocalPlayer, LocalPlayer], work=292*
126: 0x040C [0x45] LOAD_SCHEDULED_TASK: Load scheduler "y010" with entities [LocalPlayer, LocalPlayer], work=[292*, 0*]
127: 0x041D [0x66] LOAD_EXT_SCHEDULER_MAIN: Load scheduler "tlk0" with entities [Fari-Wari (ID: 16982364/0x0103215C), Fari-Wari (ID: 16982364/0x0103215C)], work=49*
128: 0x042C [0x2B] Fari-Wari (ID: 16982364/0x0103215C) [11452*]:
    → "My most humble apologies.\u0007I was hopelessly enchanted by your swanlike elegance, and...\u007F1\u0000\u0007"
129: 0x0433 [0x23] WAIT_FOR_DIALOG_INTERACTION
130: 0x0434 [0x2B] Fari-Wari (ID: 16982364/0x0103215C) [11453*]:
    → "...what was that name you just mentioned?\u007F1\u0000\u0007"
131: 0x043B [0x23] WAIT_FOR_DIALOG_INTERACTION
132: 0x043C [0x66] LOAD_EXT_SCHEDULER_MAIN: Load scheduler "tlk1" with entities [Fari-Wari (ID: 16982364/0x0103215C), Fari-Wari (ID: 16982364/0x0103215C)], work=49*
133: 0x044B [0x52] END_LOAD_SCHEDULER: End scheduler "y010" with entities [LocalPlayer, LocalPlayer], work=292*
134: 0x045A [0x45] LOAD_SCHEDULED_TASK: Load scheduler "y008" with entities [LocalPlayer, LocalPlayer], work=[292*, 0*]
135: 0x046B [0x2B] Biyaada (ID: 16982365/0x0103215D) [11454*]:
    → "I am Biyaada.\u007F1\u0000\u0007"
136: 0x0472 [0x23] WAIT_FOR_DIALOG_INTERACTION
137: 0x0473 [0x6E] Fari-Wari (ID: 16982364/0x0103215C) uses emote 6*
138: 0x047A [0x99] Wait for Fari-Wari (ID: 16982364/0x0103215C) animation to complete
139: 0x047F [0x2B] Fari-Wari (ID: 16982364/0x0103215C) [11455*]:
    → "No no, the one after that.\u007F1\u0000\u0007"
140: 0x0486 [0x23] WAIT_FOR_DIALOG_INTERACTION
141: 0x0487 [0x2B] Biyaada (ID: 16982365/0x0103215D) [11456*]:
    → "You speak of General Rughadjeen?\u007F1\u0000\u0007"
142: 0x048E [0x23] WAIT_FOR_DIALOG_INTERACTION
143: 0x048F [0x52] END_LOAD_SCHEDULER: End scheduler "y008" with entities [LocalPlayer, LocalPlayer], work=292*
144: 0x049E [0x45] LOAD_SCHEDULED_TASK: Load scheduler "y011" with entities [LocalPlayer, LocalPlayer], work=[292*, 0*]
145: 0x04AF [0x6E] Fari-Wari (ID: 16982364/0x0103215C) uses emote 26*
146: 0x04B6 [0x99] Wait for Fari-Wari (ID: 16982364/0x0103215C) animation to complete
147: 0x04BB [0x2B] Fari-Wari (ID: 16982364/0x0103215C) [11457*]:
    → "Yes, that's the one.\u0007Would this general happen to be a personage of some fame and importance?\u0007I am but barely arrived in this nation, and have little--\u007F1\u0000\u0007"
148: 0x04C2 [0x23] WAIT_FOR_DIALOG_INTERACTION
149: 0x04C3 [0x52] END_LOAD_SCHEDULER: End scheduler "y011" with entities [LocalPlayer, LocalPlayer], work=292*
150: 0x04D2 [0x45] LOAD_SCHEDULED_TASK: Load scheduler "y012" with entities [LocalPlayer, LocalPlayer], work=[292*, 0*]
151: 0x04E3 [0x66] LOAD_EXT_SCHEDULER_MAIN: Load scheduler "tlk0" with entities [Biyaada (ID: 16982365/0x0103215D), Biyaada (ID: 16982365/0x0103215D)], work=19*
152: 0x04F2 [0x2B] Biyaada (ID: 16982365/0x0103215D) [11458*]:
    → "Even a recent visitor to our city should know of the great General Rughadjeen!\u007F1\u0000\u0007"
153: 0x04F9 [0x23] WAIT_FOR_DIALOG_INTERACTION
154: 0x04FA [0x2B] Biyaada (ID: 16982365/0x0103215D) [11459*]:
    → "He is the guardian of Al Zahbi, the commander of the Serpent Generals, and a decorated hero!\u007F1\u0000\u0007"
155: 0x0501 [0x23] WAIT_FOR_DIALOG_INTERACTION
156: 0x0502 [0x66] LOAD_EXT_SCHEDULER_MAIN: Load scheduler "tlk1" with entities [Biyaada (ID: 16982365/0x0103215D), Biyaada (ID: 16982365/0x0103215D)], work=19*
157: 0x0511 [0x52] END_LOAD_SCHEDULER: End scheduler "y012" with entities [LocalPlayer, LocalPlayer], work=292*
158: 0x0520 [0x45] LOAD_SCHEDULED_TASK: Load scheduler "y013" with entities [LocalPlayer, LocalPlayer], work=[292*, 0*]
159: 0x0531 [0x1C] WAIT(45* ticks)
160: 0x0534 [0x66] LOAD_EXT_SCHEDULER_MAIN: Load scheduler "thk1" with entities [Fari-Wari (ID: 16982364/0x0103215C), Fari-Wari (ID: 16982364/0x0103215C)], work=49*
161: 0x0543 [0x2B] Fari-Wari (ID: 16982364/0x0103215C) [11460*]:
    → "Oho!\u0007And I assume he is as fierce as a raptor, and as courageous as a lion?\u007F1\u0000\u0007"
162: 0x054A [0x23] WAIT_FOR_DIALOG_INTERACTION
163: 0x054B [0x66] LOAD_EXT_SCHEDULER_MAIN: Load scheduler "thk2" with entities [Fari-Wari (ID: 16982364/0x0103215C), Fari-Wari (ID: 16982364/0x0103215C)], work=49*
164: 0x055A [0x2B] Biyaada (ID: 16982365/0x0103215D) [11461*]:
    → "The perfect warrior!\u007F1\u0000\u0007"
165: 0x0561 [0x23] WAIT_FOR_DIALOG_INTERACTION
166: 0x0562 [0x52] END_LOAD_SCHEDULER: End scheduler "y013" with entities [LocalPlayer, LocalPlayer], work=292*
167: 0x0571 [0x45] LOAD_SCHEDULED_TASK: Load scheduler "y014" with entities [LocalPlayer, LocalPlayer], work=[292*, 0*]
168: 0x0582 [0x1C] WAIT(45* ticks)
169: 0x0585 [0x66] LOAD_EXT_SCHEDULER_MAIN: Load scheduler "tlk0" with entities [Fari-Wari (ID: 16982364/0x0103215C), Fari-Wari (ID: 16982364/0x0103215C)], work=49*
170: 0x0594 [0x2B] Fari-Wari (ID: 16982364/0x0103215C) [11462*]:
    → "Might I presume upon you to regale me with his tale?\u007F1\u0000\u0007"
171: 0x059B [0x23] WAIT_FOR_DIALOG_INTERACTION
172: 0x059C [0x2B] Fari-Wari (ID: 16982364/0x0103215C) [11463*]:
    → "I am not some dusty historian, mind you.\u0007I am a bard of some renown--composing flattering odes to heroes as I wander this world of wonders.\u007F1\u0000\u0007"
173: 0x05A3 [0x23] WAIT_FOR_DIALOG_INTERACTION
174: 0x05A4 [0x66] LOAD_EXT_SCHEDULER_MAIN: Load scheduler "tlk1" with entities [Fari-Wari (ID: 16982364/0x0103215C), Fari-Wari (ID: 16982364/0x0103215C)], work=49*
175: 0x05B3 [0x52] END_LOAD_SCHEDULER: End scheduler "y014" with entities [LocalPlayer, LocalPlayer], work=292*
176: 0x05C2 [0x45] LOAD_SCHEDULED_TASK: Load scheduler "y015" with entities [LocalPlayer, LocalPlayer], work=[292*, 0*]
177: 0x05D3 [0x1C] WAIT(30* ticks)
178: 0x05D6 [0x2B] Biyaada (ID: 16982365/0x0103215D) [11464*]:
    → "A bard? Then General Rughadjeen's valiant deeds would be immortalized in verse...\u007F1\u0000\u0007"
179: 0x05DD [0x23] WAIT_FOR_DIALOG_INTERACTION
180: 0x05DE [0x1C] WAIT(60* ticks)
181: 0x05E1 [0x6E] Biyaada (ID: 16982365/0x0103215D) uses emote 6*
182: 0x05E8 [0x99] Wait for Biyaada (ID: 16982365/0x0103215D) animation to complete
183: 0x05ED [0x2B] Biyaada (ID: 16982365/0x0103215D) [11465*]:
    → "But, I have no time for this daydreaming!\u007F1\u0000\u0007"
184: 0x05F4 [0x23] WAIT_FOR_DIALOG_INTERACTION
185: 0x05F5 [0x52] END_LOAD_SCHEDULER: End scheduler "y015" with entities [LocalPlayer, LocalPlayer], work=292*
186: 0x0604 [0x45] LOAD_SCHEDULED_TASK: Load scheduler "yccc" with entities [LocalPlayer, LocalPlayer], work=[292*, 0*]
187: 0x0615 [0x1C] WAIT(45* ticks)
188: 0x0618 [0x2B] Fari-Wari (ID: 16982364/0x0103215C) [11466*]:
    → "!?\u007F1\u0000\u0007"
189: 0x061F [0x23] WAIT_FOR_DIALOG_INTERACTION
190: 0x0620 [0x6E] Fari-Wari (ID: 16982364/0x0103215C) uses emote 20*
191: 0x0627 [0x99] Wait for Fari-Wari (ID: 16982364/0x0103215C) animation to complete
192: 0x062C [0x2B] Fari-Wari (ID: 16982364/0x0103215C) [11467*]:
    → "Calm down, my dear.\u0007I'm sure I can deal with whatever it is that troubles you!\u007F1\u0000\u0007"
193: 0x0633 [0x23] WAIT_FOR_DIALOG_INTERACTION
194: 0x0634 [0x1C] WAIT(15* ticks)
195: 0x0637 [0x2B] Biyaada (ID: 16982365/0x0103215D) [11468*]:
    → "I don't recall asking for your help.\u0007And what do you think a tiny thing like you could do in any case?\u007F1\u0000\u0007"
196: 0x063E [0x23] WAIT_FOR_DIALOG_INTERACTION
197: 0x063F [0x52] END_LOAD_SCHEDULER: End scheduler "yccc" with entities [LocalPlayer, LocalPlayer], work=292*
198: 0x064E [0x45] LOAD_SCHEDULED_TASK: Load scheduler "y016" with entities [LocalPlayer, LocalPlayer], work=[292*, 0*]
199: 0x065F [0x6E] Fari-Wari (ID: 16982364/0x0103215C) uses emote 25*
200: 0x0666 [0x99] Wait for Fari-Wari (ID: 16982364/0x0103215C) animation to complete
201: 0x066B [0x2B] Fari-Wari (ID: 16982364/0x0103215C) [11469*]:
    → "Well, I may be somewhat lacking in physical prowess...\u007F1\u0000\u0007"
202: 0x0672 [0x23] WAIT_FOR_DIALOG_INTERACTION
203: 0x0673 [0x52] END_LOAD_SCHEDULER: End scheduler "y016" with entities [LocalPlayer, LocalPlayer], work=292*
204: 0x0682 [0xBA] SET_ENTITY_POSITION(entity_id=LocalPlayer, pos_x=69.476*, pos_z=-126.528*, pos_y=-6.499*, direction=92.1°*)
205: 0x068F [0x4A] LocalPlayer looks at Biyaada (ID: 16982365/0x0103215D)
206: 0x0698 [0x45] LOAD_SCHEDULED_TASK: Load scheduler "y017" with entities [LocalPlayer, LocalPlayer], work=[292*, 0*]
207: 0x06A9 [0x6E] Fari-Wari (ID: 16982364/0x0103215C) uses emote 10*
208: 0x06B0 [0x99] Wait for Fari-Wari (ID: 16982364/0x0103215C) animation to complete
209: 0x06B5 [0x2B] Fari-Wari (ID: 16982364/0x0103215C) [11470*]:
    → "...but my attendant here has no such deficiencies!\u007F1\u0000\u0007"
210: 0x06BC [0x23] WAIT_FOR_DIALOG_INTERACTION
211: 0x06BD [0x52] END_LOAD_SCHEDULER: End scheduler "y017" with entities [LocalPlayer, LocalPlayer], work=292*
212: 0x06CC [0x45] LOAD_SCHEDULED_TASK: Load scheduler "y018" with entities [LocalPlayer, LocalPlayer], work=[292*, 0*]
213: 0x06DD [0x2B] Biyaada (ID: 16982365/0x0103215D) [11471*]:
    → "A mercenary, are you?\u007F1\u0000\u0007"
214: 0x06E4 [0x23] WAIT_FOR_DIALOG_INTERACTION
215: 0x06E5 [0x66] LOAD_EXT_SCHEDULER_MAIN: Load scheduler "thk1" with entities [Biyaada (ID: 16982365/0x0103215D), Biyaada (ID: 16982365/0x0103215D)], work=19*
216: 0x06F4 [0x2B] Biyaada (ID: 16982365/0x0103215D) [11472*]:
    → "Hmm, well, I suppose you would have some experience with staring death in the face...\u007F1\u0000\u0007"
217: 0x06FB [0x23] WAIT_FOR_DIALOG_INTERACTION
218: 0x06FC [0x52] END_LOAD_SCHEDULER: End scheduler "y018" with entities [LocalPlayer, LocalPlayer], work=292*
219: 0x070B [0x45] LOAD_SCHEDULED_TASK: Load scheduler "y019" with entities [LocalPlayer, LocalPlayer], work=[292*, 0*]
220: 0x071C [0x6E] Fari-Wari (ID: 16982364/0x0103215C) uses emote 14*
221: 0x0723 [0x99] Wait for Fari-Wari (ID: 16982364/0x0103215C) animation to complete
222: 0x0728 [0x2B] Fari-Wari (ID: 16982364/0x0103215C) [11473*]:
    → "Exactly!\u0007Why, my attendant is worth a thousand soldiers! \u007F\u0005[His/Her] skill in battle is unmatched by--\u007F1\u0000\u0007"
223: 0x072F [0x23] WAIT_FOR_DIALOG_INTERACTION
224: 0x0730 [0x66] LOAD_EXT_SCHEDULER_MAIN: Load scheduler "thk2" with entities [Biyaada (ID: 16982365/0x0103215D), Biyaada (ID: 16982365/0x0103215D)], work=19*
225: 0x073F [0x2B] Biyaada (ID: 16982365/0x0103215D) [11474*]:
    → "Do you think I might have a word with this attendant of yours?\u007F1\u0000\u0007"
226: 0x0746 [0x23] WAIT_FOR_DIALOG_INTERACTION
227: 0x0747 [0x52] END_LOAD_SCHEDULER: End scheduler "y019" with entities [LocalPlayer, LocalPlayer], work=292*
228: 0x0756 [0x45] LOAD_SCHEDULED_TASK: Load scheduler "y020" with entities [LocalPlayer, LocalPlayer], work=[292*, 0*]

SUBROUTINE_0767:
229: 0x0767 [0x24] CREATE_DIALOG(message_id=11476*, default_option=0*, option_flags=0*)
    → "Listen to Biyaada?\u0007\u000BI had a choice...?\u0007I don't think so...\u007F1\u0000\u0007"
230: 0x076E [0x25] WAIT_DIALOG_SELECT()
231: 0x076F [0x02] IF !(Work_Zone[0] == 0*) GOTO 0x0791
232: 0x0777 [0x2B] Biyaada (ID: 16982365/0x0103215D) [11477*]:
    → "It concerns General Rughadjeen...\u007F1\u0000\u0007"
233: 0x077E [0x23] WAIT_FOR_DIALOG_INTERACTION
234: 0x077F [0x52] END_LOAD_SCHEDULER: End scheduler "y020" with entities [LocalPlayer, LocalPlayer], work=292*
235: 0x078E [0x01] GOTO 0x079F
236: 0x0791 [0x02] IF !(Work_Zone[0] == 1*) GOTO 0x079F
237: 0x0799 [0x01] GOTO 0x0767

SUBROUTINE_079F:
238: 0x079F [0x45] LOAD_SCHEDULED_TASK: Load scheduler "yddd" with entities [LocalPlayer, LocalPlayer], work=[292*, 0*]
239: 0x07B0 [0x1C] WAIT(45* ticks)
240: 0x07B3 [0x2B] Biyaada (ID: 16982365/0x0103215D) [11478*]:
    → "He has been commanding the defenses of the city in an almost endless battle to stem the constant waves of beastman assaults.\u007F1\u0000\u0007"
241: 0x07BA [0x23] WAIT_FOR_DIALOG_INTERACTION
242: 0x07BB [0x2B] Biyaada (ID: 16982365/0x0103215D) [11479*]:
    → "One can only imagine the level of exhaustion he must be feeling.\u007F1\u0000\u0007"
243: 0x07C2 [0x23] WAIT_FOR_DIALOG_INTERACTION
244: 0x07C3 [0x52] END_LOAD_SCHEDULER: End scheduler "yddd" with entities [LocalPlayer, LocalPlayer], work=292*
245: 0x07D2 [0x45] LOAD_SCHEDULED_TASK: Load scheduler "y021" with entities [LocalPlayer, LocalPlayer], work=[292*, 0*]
246: 0x07E3 [0x1C] WAIT(45* ticks)
247: 0x07E6 [0x66] LOAD_EXT_SCHEDULER_MAIN: Load scheduler "tlk0" with entities [Biyaada (ID: 16982365/0x0103215D), Biyaada (ID: 16982365/0x0103215D)], work=19*
248: 0x07F5 [0x2B] Biyaada (ID: 16982365/0x0103215D) [11480*]:
    → "Just the other day, General Rughadjeen was on the front lines, leading our soldiers in an effort to repel the invading Troll Mercenaries.\u007F1\u0000\u0007"
249: 0x07FC [0x23] WAIT_FOR_DIALOG_INTERACTION
250: 0x07FD [0x2B] Biyaada (ID: 16982365/0x0103215D) [11481*]:
    → "In the heat of combat, he dropped something very dear to him.\u007F1\u0000\u0007"
251: 0x0804 [0x23] WAIT_FOR_DIALOG_INTERACTION
252: 0x0805 [0x66] LOAD_EXT_SCHEDULER_MAIN: Load scheduler "tlk1" with entities [Biyaada (ID: 16982365/0x0103215D), Biyaada (ID: 16982365/0x0103215D)], work=19*
253: 0x0814 [0x52] END_LOAD_SCHEDULER: End scheduler "y021" with entities [LocalPlayer, LocalPlayer], work=292*
254: 0x0823 [0x45] LOAD_SCHEDULED_TASK: Load scheduler "y022" with entities [LocalPlayer, LocalPlayer], work=[292*, 0*]
255: 0x0834 [0x1C] WAIT(45* ticks)
256: 0x0837 [0x2B] Biyaada (ID: 16982365/0x0103215D) [11482*]:
    → "An instant of inattention was all it took...\u007F1\u0000\u0007"
257: 0x083E [0x23] WAIT_FOR_DIALOG_INTERACTION
258: 0x083F [0x66] LOAD_EXT_SCHEDULER_MAIN: Load scheduler "thk1" with entities [Biyaada (ID: 16982365/0x0103215D), Biyaada (ID: 16982365/0x0103215D)], work=19*
259: 0x084E [0x2B] Biyaada (ID: 16982365/0x0103215D) [11483*]:
    → "I suspect that one of the enemy mercenaries snatched up this precious item before retreating to Halvung.\u007F1\u0000\u0007"
260: 0x0855 [0x23] WAIT_FOR_DIALOG_INTERACTION
261: 0x0856 [0x2B] Biyaada (ID: 16982365/0x0103215D) [11484*]:
    → "The Trolls are known to claim such trophies from our soldiers in order to inflate their stories of conquest.\u007F1\u0000\u0007"
262: 0x085D [0x23] WAIT_FOR_DIALOG_INTERACTION
263: 0x085E [0x66] LOAD_EXT_SCHEDULER_MAIN: Load scheduler "thk2" with entities [Biyaada (ID: 16982365/0x0103215D), Biyaada (ID: 16982365/0x0103215D)], work=19*
264: 0x086D [0x52] END_LOAD_SCHEDULER: End scheduler "y022" with entities [LocalPlayer, LocalPlayer], work=292*
265: 0x087C [0x45] LOAD_SCHEDULED_TASK: Load scheduler "y023" with entities [LocalPlayer, LocalPlayer], work=[292*, 0*]
266: 0x088D [0x1C] WAIT(45* ticks)
267: 0x0890 [0x2B] Biyaada (ID: 16982365/0x0103215D) [11485*]:
    → "The general has continued to fulfill his duties as if nothing were amiss, but...\u007F1\u0000\u0007"
268: 0x0897 [0x23] WAIT_FOR_DIALOG_INTERACTION
269: 0x0898 [0x6E] Biyaada (ID: 16982365/0x0103215D) uses emote 6*
270: 0x089F [0x99] Wait for Biyaada (ID: 16982365/0x0103215D) animation to complete
271: 0x08A4 [0x2B] Biyaada (ID: 16982365/0x0103215D) [11486*]:
    → "I work side by side with him every day. I see the sadness that he attempts to hide.\u007F1\u0000\u0007"
272: 0x08AB [0x23] WAIT_FOR_DIALOG_INTERACTION
273: 0x08AC [0x2B] Biyaada (ID: 16982365/0x0103215D) [11487*]:
    → "If I could, I would track down this keepsake myself.\u007F1\u0000\u0007"
274: 0x08B3 [0x23] WAIT_FOR_DIALOG_INTERACTION
275: 0x08B4 [0x2B] Biyaada (ID: 16982365/0x0103215D) [11488*]:
    → "But abandoning my post without leave would cause even further grief for my commander.\u0007An enlisted soldier such as me has little freedom...\u007F1\u0000\u0007"
276: 0x08BB [0x23] WAIT_FOR_DIALOG_INTERACTION
277: 0x08BC [0x52] END_LOAD_SCHEDULER: End scheduler "y023" with entities [LocalPlayer, LocalPlayer], work=292*
278: 0x08CB [0x45] LOAD_SCHEDULED_TASK: Load scheduler "y024" with entities [LocalPlayer, LocalPlayer], work=[292*, 0*]
279: 0x08DC [0x4A] Biyaada (ID: 16982365/0x0103215D) looks at LocalPlayer
280: 0x08E5 [0x1C] WAIT(45* ticks)
281: 0x08E8 [0x66] LOAD_EXT_SCHEDULER_MAIN: Load scheduler "tlk0" with entities [Biyaada (ID: 16982365/0x0103215D), Biyaada (ID: 16982365/0x0103215D)], work=19*
282: 0x08F7 [0x2B] Biyaada (ID: 16982365/0x0103215D) [11489*]:
    → "That is why I would ask your aid.\u007F1\u0000\u0007"
283: 0x08FE [0x23] WAIT_FOR_DIALOG_INTERACTION
284: 0x08FF [0x2B] Biyaada (ID: 16982365/0x0103215D) [11490*]:
    → "I need someone to travel to the Troll stronghold of Halvung and retrieve what General Rughadjeen has lost.\u007F1\u0000\u0007"
285: 0x0906 [0x23] WAIT_FOR_DIALOG_INTERACTION
286: 0x0907 [0x66] LOAD_EXT_SCHEDULER_MAIN: Load scheduler "tlk1" with entities [Biyaada (ID: 16982365/0x0103215D), Biyaada (ID: 16982365/0x0103215D)], work=19*
287: 0x0916 [0x52] END_LOAD_SCHEDULER: End scheduler "y024" with entities [LocalPlayer, LocalPlayer], work=292*
288: 0x0925 [0x45] LOAD_SCHEDULED_TASK: Load scheduler "y025" with entities [LocalPlayer, LocalPlayer], work=[292*, 0*]
289: 0x0936 [0x6E] Fari-Wari (ID: 16982364/0x0103215C) uses emote 11*
290: 0x093D [0x99] Wait for Fari-Wari (ID: 16982364/0x0103215C) animation to complete
291: 0x0942 [0x2B] Fari-Wari (ID: 16982364/0x0103215C) [11491*]:
    → "This is your great worry!? Why, nothing could be simpler!\u007F1\u0000\u0007"
292: 0x0949 [0x23] WAIT_FOR_DIALOG_INTERACTION
293: 0x094A [0x52] END_LOAD_SCHEDULER: End scheduler "y025" with entities [LocalPlayer, LocalPlayer], work=292*
294: 0x0959 [0x45] LOAD_SCHEDULED_TASK: Load scheduler "y026" with entities [LocalPlayer, LocalPlayer], work=[292*, 0*]
295: 0x096A [0x66] LOAD_EXT_SCHEDULER_MAIN: Load scheduler "tlk0" with entities [Fari-Wari (ID: 16982364/0x0103215C), Fari-Wari (ID: 16982364/0x0103215C)], work=49*
296: 0x0979 [0x2B] Fari-Wari (ID: 16982364/0x0103215C) [11492*]:
    → "My attendant here will stalk into Halvung on the silent paws of a panther, and seek this lost treasure with the unblinking eyes of a hawk!\u007F1\u0000\u0007"
297: 0x0980 [0x23] WAIT_FOR_DIALOG_INTERACTION
298: 0x0981 [0x2B] Fari-Wari (ID: 16982364/0x0103215C) [11493*]:
    → "And when you have the treasure in your possession, perhaps you will consent to tell me the tale of this mighty general?\u007F1\u0000\u0007"
299: 0x0988 [0x23] WAIT_FOR_DIALOG_INTERACTION
300: 0x0989 [0x66] LOAD_EXT_SCHEDULER_MAIN: Load scheduler "tlk1" with entities [Fari-Wari (ID: 16982364/0x0103215C), Fari-Wari (ID: 16982364/0x0103215C)], work=49*
301: 0x0998 [0x52] END_LOAD_SCHEDULER: End scheduler "y026" with entities [LocalPlayer, LocalPlayer], work=292*
302: 0x09A7 [0x45] LOAD_SCHEDULED_TASK: Load scheduler "y027" with entities [LocalPlayer, LocalPlayer], work=[292*, 0*]
303: 0x09B8 [0x79] Biyaada (ID: 16982365/0x0103215D) looks at Fari-Wari (ID: 16982364/0x0103215C) (Basic look)
304: 0x09C2 [0x2B] Biyaada (ID: 16982365/0x0103215D) [11494*]:
    → "If you do this thing, I promise to tell you all that I know.\u007F1\u0000\u0007"
305: 0x09C9 [0x23] WAIT_FOR_DIALOG_INTERACTION
306: 0x09CA [0x7B] Biyaada (ID: 16982365/0x0103215D) stops talking
307: 0x09CF [0x1C] WAIT(60* ticks)
308: 0x09D2 [0x6E] Biyaada (ID: 16982365/0x0103215D) uses emote 32*
309: 0x09D9 [0x99] Wait for Biyaada (ID: 16982365/0x0103215D) animation to complete
310: 0x09DE [0x2B] Biyaada (ID: 16982365/0x0103215D) [11495*]:
    → "From what I can catch from the general's murmurings, the item is some sort of cloth...\u007F1\u0000\u0007"
311: 0x09E5 [0x23] WAIT_FOR_DIALOG_INTERACTION
312: 0x09E6 [0x52] END_LOAD_SCHEDULER: End scheduler "y027" with entities [LocalPlayer, LocalPlayer], work=292*
313: 0x09F5 [0x45] LOAD_SCHEDULED_TASK: Load scheduler "y028" with entities [LocalPlayer, LocalPlayer], work=[292*, 0*]
314: 0x0A06 [0x4A] Fari-Wari (ID: 16982364/0x0103215C) looks at LocalPlayer
315: 0x0A0F [0x2B] Fari-Wari (ID: 16982364/0x0103215C) [11496*]:
    → "Cloth! Yes!\u0007Attendant! No time for dilly-dallying!\u0007Off to Halvung with you!\u007F1\u0000\u0007"
316: 0x0A16 [0x23] WAIT_FOR_DIALOG_INTERACTION
317: 0x0A17 [0x6E] Fari-Wari (ID: 16982364/0x0103215C) uses emote 13*
318: 0x0A1E [0x99] Wait for Fari-Wari (ID: 16982364/0x0103215C) animation to complete
319: 0x0A23 [0x2B] Fari-Wari (ID: 16982364/0x0103215C) [11497*]:
    → "For the protector of Al Zahbi!\u0007To ease the mind of this fair maiden!\u0007But mostly...\u007F1\u0000\u0007"
320: 0x0A2A [0x23] WAIT_FOR_DIALOG_INTERACTION
321: 0x0A2B [0x2B] Fari-Wari (ID: 16982364/0x0103215C) [11498*]:
    → "To allow me to compose the greatest ballad this world has ever known!\u007F1\u0000\u0007"
322: 0x0A32 [0x23] WAIT_FOR_DIALOG_INTERACTION
323: 0x0A33 [0x1C] WAIT(60* ticks)
324: 0x0A36 [0x45] LOAD_SCHEDULED_TASK: Load scheduler "fdo1" with entities [EventEntity, EventEntity], work=[200*, 0*]
325: 0x0A47 [0x55] WAIT_LOAD_SCHEDULER: Wait for scheduler "fdo1" with entities [EventEntity, EventEntity], work=200*
326: 0x0A56 [0x1C] WAIT(30* ticks)
327: 0x0A59 [0x52] END_LOAD_SCHEDULER: End scheduler "y028" with entities [LocalPlayer, LocalPlayer], work=292*
328: 0x0A68 [0x46] CAMERA_CONTROL: Restore default settings
329: 0x0A6A [0x45] LOAD_SCHEDULED_TASK: Load scheduler "fdi2" with entities [LocalPlayer, LocalPlayer], work=[200*, 0*]
330: 0x0A7B [0x21] END_EVENT
331: 0x0A7C [0x00] END_REQSTACK()
```

#### Data or dead code:

```
# Dead code (unreachable instructions):
     0x079C [0x01] GOTO 0x079F
```

### Event 824

#### Metadata

| Field        | Value      |
|--------------|------------|
| Entrypoint   | 0x0A7D     |
| Data Size    | 3095 bytes |
| Instructions | 410        |

```
      00 01 02 03 04 05 06 07  08 09 0A 0B 0C 0D 0E 0F
      -- -- -- -- -- -- -- --  -- -- -- -- -- -- -- --
0A70:                                         42 45 00               BE.
0A80: 80 F8 FF FF 7F F8 FF FF  7F 66 64 6F 31 01 80 55  .........fdo1..U
0A90: 00 80 F8 FF FF 7F F8 FF  FF 7F 66 64 6F 31 46 01  ..........fdo1F.
0AA0: 38 02 80 75 00 05 80 75  01 92 01 5C 21 03 01 92  8..u...u...\!...
0AB0: 01 5F 21 03 01 92 01 5D  21 03 01 92 01 C8 20 03  ._!....]!..... .
0AC0: 01 92 01 C7 20 03 01 92  01 64 21 03 01 92 01 6D  .... ....d!....m
0AD0: 21 03 01 92 01 5E 21 03  01 92 01 C5 20 03 01 92  !....^!..... ...
0AE0: 01 67 21 03 01 92 01 68  21 03 01 92 01 6C 21 03  .g!....h!....l!.
0AF0: 01 92 01 82 20 03 01 92  01 7E 20 03 01 92 01 53  .... ....~ ....S
0B00: 20 03 01 92 01 54 20 03  01 92 01 5F 20 03 01 92   ....T ...._ ...
0B10: 01 60 20 03 01 4E 00 5D  21 03 01 94 01 F0 FF FF  .` ..N.]!.......
0B20: 7F 94 01 5C 21 03 01 94  01 5F 21 03 01 94 01 5D  ...\!...._!....]
0B30: 21 03 01 80 F0 FF FF 7F  80 5D 21 03 01 80 5F 21  !........]!..._!
0B40: 03 01 22 01 BA F0 FF FF  7F 06 80 07 80 08 80 09  ..".............
0B50: 80 BA 5C 21 03 01 0A 80  0B 80 08 80 09 80 BA 5D  ..\!...........]
0B60: 21 03 01 6A 80 6B 80 2A  80 6C 80 4A 5C 21 03 01  !..j.k.*.l.J\!..
0B70: F0 FF FF 7F 4A 5D 21 03  01 F0 FF FF 7F 4A F0 FF  ....J]!......J..
0B80: FF 7F 5D 21 03 01 1C 44  80 45 10 80 F0 FF FF 7F  ..]!...D.E......
0B90: F0 FF FF 7F 78 30 30 30  01 80 45 00 80 F8 FF FF  ....x000..E.....
0BA0: 7F F8 FF FF 7F 66 64 69  31 01 80 1C 2C 80 6E 5D  .....fdi1...,.n]
0BB0: 21 03 01 1F 80 99 5D 21  03 01 2B 5D 21 03 01 6D  !.....]!..+]!..m
0BC0: 80 23 2B 5D 21 03 01 6E  80 23 52 10 80 F0 FF FF  .#+]!..n.#R.....
0BD0: 7F F0 FF FF 7F 78 30 30  30 45 10 80 F0 FF FF 7F  .....x000E......
0BE0: F0 FF FF 7F 78 30 30 31  01 80 2B 5D 21 03 01 6F  ....x001..+]!..o
0BF0: 80 23 4A 5C 21 03 01 5D  21 03 01 2B 5C 21 03 01  .#J\!..]!..+\!..
0C00: 70 80 23 52 10 80 F0 FF  FF 7F F0 FF FF 7F 78 30  p.#R..........x0
0C10: 30 31 45 10 80 F0 FF FF  7F F0 FF FF 7F 78 30 30  01E..........x00
0C20: 32 01 80 66 02 80 5D 21  03 01 5D 21 03 01 74 6C  2..f..]!..]!..tl
0C30: 6B 30 2B 5D 21 03 01 71  80 23 2B 5D 21 03 01 72  k0+]!..q.#+]!..r
0C40: 80 23 66 02 80 5D 21 03  01 5D 21 03 01 74 6C 6B  .#f..]!..]!..tlk
0C50: 31 52 10 80 F0 FF FF 7F  F0 FF FF 7F 78 30 30 32  1R..........x002
0C60: 45 10 80 F0 FF FF 7F F0  FF FF 7F 78 30 30 33 01  E..........x003.
0C70: 80 1C 2C 80 66 02 80 5D  21 03 01 5D 21 03 01 74  ..,.f..]!..]!..t
0C80: 6C 6B 30 2B 5D 21 03 01  73 80 23 2B 5D 21 03 01  lk0+]!..s.#+]!..
0C90: 74 80 23 5D 01 80 04 80  1C 2C 80 45 00 80 F8 FF  t.#].....,.E....
0CA0: FF 7F F8 FF FF 7F 66 64  6F 31 01 80 55 00 80 F8  ......fdo1..U...
0CB0: FF FF 7F F8 FF FF 7F 66  64 6F 31 52 10 80 F0 FF  .......fdo1R....
0CC0: FF 7F F0 FF FF 7F 78 30  30 33 34 75 80 77 01 80  ......x0034u.w..
0CD0: 21 80 1C 03 80 4E 01 1E  20 03 01 AB 09 4E 00 5E  !....N.. ....N.^
0CE0: 21 03 01 4E 00 66 21 03  01 80 5E 21 03 01 80 66  !..N.f!...^!...f
0CF0: 21 03 01 92 01 5E 21 03  01 92 01 66 21 03 01 BA  !....^!....f!...
0D00: 66 21 03 01 76 80 77 80  01 80 78 80 BA 5E 21 03  f!..v.w...x..^!.
0D10: 01 79 80 7A 80 01 80 7B  80 5C 00 7C 80 5C 01 7C  .y.z...{.\.|.\.|
0D20: 80 9A 27 10 66 21 03 01  03 45 10 80 F0 FF FF 7F  ..'.f!...E......
0D30: F0 FF FF 7F 77 30 30 30  01 80 45 00 80 F8 FF FF  ....w000..E.....
0D40: 7F F8 FF FF 7F 66 64 69  31 01 80 1C 13 80 27 10  .....fdi1.....'.
0D50: 5E 21 03 01 0E 1C 7D 80  2B 66 21 03 01 7E 80 23  ^!....}.+f!..~.#
0D60: 1C 44 80 2B 5E 21 03 01  7F 80 23 1C 44 80 2B 66  .D.+^!....#.D.+f
0D70: 21 03 01 80 80 23 2A 10  66 21 03 01 52 10 80 F0  !....#*.f!..R...
0D80: FF FF 7F F0 FF FF 7F 77  30 30 30 45 10 80 F0 FF  .......w000E....
0D90: FF 7F F0 FF FF 7F 77 30  30 39 01 80 4A 66 21 03  ......w009..Jf!.
0DA0: 01 5E 21 03 01 2B 66 21  03 01 81 80 23 2B 5E 21  .^!..+f!....#+^!
0DB0: 03 01 82 80 23 52 10 80  F0 FF FF 7F F0 FF FF 7F  ....#R..........
0DC0: 77 30 30 39 45 10 80 F0  FF FF 7F F0 FF FF 7F 77  w009E..........w
0DD0: 30 30 31 01 80 2A 10 5E  21 03 01 66 83 80 5E 21  001..*.^!..f..^!
0DE0: 03 01 5E 21 03 01 74 6C  6B 30 2B 5E 21 03 01 84  ..^!..tlk0+^!...
0DF0: 80 23 2B 66 21 03 01 85  80 23 2B 5E 21 03 01 86  .#+f!....#+^!...
0E00: 80 23 66 83 80 5E 21 03  01 5E 21 03 01 74 6C 6B  .#f..^!..^!..tlk
0E10: 31 52 10 80 F0 FF FF 7F  F0 FF FF 7F 77 30 30 31  1R..........w001
0E20: 45 10 80 F0 FF FF 7F F0  FF FF 7F 77 30 30 32 01  E..........w002.
0E30: 80 66 83 80 5E 21 03 01  5E 21 03 01 74 77 61 30  .f..^!..^!..twa0
0E40: 2B 5E 21 03 01 87 80 23  2B 5E 21 03 01 88 80 23  +^!....#+^!....#
0E50: 66 83 80 5E 21 03 01 5E  21 03 01 74 77 61 31 2B  f..^!..^!..twa1+
0E60: 66 21 03 01 89 80 23 52  10 80 F0 FF FF 7F F0 FF  f!....#R........
0E70: FF 7F 77 30 30 32 45 10  80 F0 FF FF 7F F0 FF FF  ..w002E.........
0E80: 7F 77 30 30 33 01 80 2B  5E 21 03 01 8A 80 23 1C  .w003..+^!....#.
0E90: 13 80 6E 66 21 03 01 46  80 99 66 21 03 01 2B 66  ..nf!..F..f!..+f
0EA0: 21 03 01 8B 80 23 2B 5E  21 03 01 8C 80 23 52 10  !....#+^!....#R.
0EB0: 80 F0 FF FF 7F F0 FF FF  7F 77 30 30 33 45 10 80  .........w003E..
0EC0: F0 FF FF 7F F0 FF FF 7F  77 30 31 30 01 80 1C 13  ........w010....
0ED0: 80 2B 66 21 03 01 8D 80  23 52 10 80 F0 FF FF 7F  .+f!....#R......
0EE0: F0 FF FF 7F 77 30 31 30  45 10 80 F0 FF FF 7F F0  ....w010E.......
0EF0: FF FF 7F 77 30 30 34 01  80 1C 2C 80 7C 00 5E 21  ...w004...,.|.^!
0F00: 03 01 2B 5E 21 03 01 8E  80 23 7C 01 5E 21 03 01  ..+^!....#|.^!..
0F10: 52 10 80 F0 FF FF 7F F0  FF FF 7F 77 30 30 34 45  R..........w004E
0F20: 10 80 F0 FF FF 7F F0 FF  FF 7F 77 30 30 35 01 80  ..........w005..
0F30: 1C 2C 80 6E 66 21 03 01  01 80 99 66 21 03 01 2B  .,.nf!.....f!..+
0F40: 66 21 03 01 8F 80 23 52  10 80 F0 FF FF 7F F0 FF  f!....#R........
0F50: FF 7F 77 30 30 35 45 10  80 F0 FF FF 7F F0 FF FF  ..w005E.........
0F60: 7F 77 30 30 34 01 80 2B  5E 21 03 01 90 80 23 52  .w004..+^!....#R
0F70: 10 80 F0 FF FF 7F F0 FF  FF 7F 77 30 30 34 45 10  ..........w004E.
0F80: 80 F0 FF FF 7F F0 FF FF  7F 77 30 30 36 01 80 1C  .........w006...
0F90: 03 80 66 83 80 66 21 03  01 66 21 03 01 74 77 62  ..f..f!..f!..twb
0FA0: 30 2B 66 21 03 01 91 80  23 52 10 80 F0 FF FF 7F  0+f!....#R......
0FB0: F0 FF FF 7F 77 30 30 36  45 10 80 F0 FF FF 7F F0  ....w006E.......
0FC0: FF FF 7F 77 30 30 37 01  80 66 83 80 66 21 03 01  ...w007..f..f!..
0FD0: 66 21 03 01 74 77 62 31  2B 5E 21 03 01 92 80 23  f!..twb1+^!....#
0FE0: 1C 13 80 27 10 5E 21 03  01 0F 1C 93 80 52 10 80  ...'.^!......R..
0FF0: F0 FF FF 7F F0 FF FF 7F  77 30 30 37 45 10 80 F0  ........w007E...
1000: FF FF 7F F0 FF FF 7F 77  30 30 38 01 80 1C 13 80  .......w008.....
1010: 2B 66 21 03 01 94 80 23  5D 01 80 95 80 1C 2C 80  +f!....#].....,.
1020: 45 00 80 F8 FF FF 7F F8  FF FF 7F 66 64 6F 31 01  E..........fdo1.
1030: 80 55 00 80 F8 FF FF 7F  F8 FF FF 7F 66 64 6F 31  .U..........fdo1
1040: 52 10 80 F0 FF FF 7F F0  FF FF 7F 77 30 30 38 2A  R..........w008*
1050: 10 5E 21 03 01 1C 44 80  35 96 80 78 1C 21 80 22  .^!...D.5..x.!."
1060: 00 45 97 80 F0 FF FF 7F  F0 FF FF 7F 6E 6F 73 65  .E..........nose
1070: 01 80 55 97 80 F0 FF FF  7F F0 FF FF 7F 6E 6F 73  ..U..........nos
1080: 65 6A 98 80 2C 80 44 80  AB 0A 2D F0 FF FF 7F F0  ej..,.D...-.....
1090: FF FF 7F 31 70 62 31 4E  00 5E 21 03 01 4E 00 67  ...1pb1N.^!..N.g
10A0: 21 03 01 4E 00 68 21 03  01 4E 00 69 21 03 01 4E  !..N.h!..N.i!..N
10B0: 00 6A 21 03 01 4E 00 6C  21 03 01 2F 00 5E 21 03  .j!..N.l!../.^!.
10C0: 01 2F 00 67 21 03 01 2F  00 68 21 03 01 2F 00 69  ./.g!../.h!../.i
10D0: 21 03 01 2F 00 6A 21 03  01 2F 00 6C 21 03 01 80  !../.j!../.l!...
10E0: 5E 21 03 01 80 67 21 03  01 80 68 21 03 01 80 69  ^!...g!...h!...i
10F0: 21 03 01 80 6A 21 03 01  80 6C 21 03 01 94 01 F0  !...j!...l!.....
1100: FF FF 7F 94 01 5E 21 03  01 94 01 67 21 03 01 94  .....^!....g!...
1110: 01 68 21 03 01 94 01 69  21 03 01 94 01 6A 21 03  .h!....i!....j!.
1120: 01 94 01 6C 21 03 01 BA  5E 21 03 01 99 80 9A 80  ...l!...^!......
1130: 9B 80 9C 80 BA 67 21 03  01 9D 80 9E 80 9F 80 A0  .....g!.........
1140: 80 BA 68 21 03 01 A1 80  A2 80 01 80 A3 80 4A 67  ..h!..........Jg
1150: 21 03 01 68 21 03 01 77  A4 80 21 80 1C 04 80 27  !..h!..w..!....'
1160: 10 5E 21 03 01 10 45 10  80 F0 FF FF 7F F0 FF FF  .^!...E.........
1170: 7F 64 30 30 30 01 80 45  00 80 F8 FF FF 7F F8 FF  .d000..E........
1180: FF 7F 66 64 69 31 01 80  1C A5 80 52 10 80 F0 FF  ..fdi1.....R....
1190: FF 7F F0 FF FF 7F 64 30  30 30 27 10 69 21 03 01  ......d000'.i!..
11A0: 03 BA 6C 21 03 01 A6 80  A7 80 9B 80 9C 80 45 10  ..l!..........E.
11B0: 80 F0 FF FF 7F F0 FF FF  7F 64 30 30 31 01 80 27  .........d001..'
11C0: 10 6A 21 03 01 03 1C 2C  80 27 10 6C 21 03 01 03  .j!....,.'.l!...
11D0: 5C 00 A8 80 5C 01 A8 80  1C A9 80 2A 10 5E 21 03  \...\......*.^!.
11E0: 01 2B 5E 21 03 01 AA 80  1C AB 80 52 10 80 F0 FF  .+^!.......R....
11F0: FF 7F F0 FF FF 7F 64 30  30 31 4E 01 69 21 03 01  ......d001N.i!..
1200: 4E 01 6A 21 03 01 4E 01  6C 21 03 01 45 10 80 F0  N.j!..N.l!..E...
1210: FF FF 7F F0 FF FF 7F 64  30 30 32 01 80 27 10 67  .......d002..'.g
1220: 21 03 01 04 4A 68 21 03  01 67 21 03 01 2B 68 21  !...Jh!..g!..+h!
1230: 03 01 AC 80 23 2B 67 21  03 01 AD 80 23 52 10 80  ....#+g!....#R..
1240: F0 FF FF 7F F0 FF FF 7F  64 30 30 32 45 10 80 F0  ........d002E...
1250: FF FF 7F F0 FF FF 7F 64  30 30 33 01 80 2B 5E 21  .......d003..+^!
1260: 03 01 AE 80 23 4A 67 21  03 01 5E 21 03 01 2B 67  ....#Jg!..^!..+g
1270: 21 03 01 AF 80 23 4A 68  21 03 01 5E 21 03 01 52  !....#Jh!..^!..R
1280: 10 80 F0 FF FF 7F F0 FF  FF 7F 64 30 30 33 45 10  ..........d003E.
1290: 80 F0 FF FF 7F F0 FF FF  7F 64 30 30 34 01 80 66  .........d004..f
12A0: B0 80 67 21 03 01 67 21  03 01 74 77 61 30 2B 67  ..g!..g!..twa0+g
12B0: 21 03 01 B1 80 23 2B 67  21 03 01 B2 80 23 66 B0  !....#+g!....#f.
12C0: 80 67 21 03 01 67 21 03  01 74 77 61 31 52 10 80  .g!..g!..twa1R..
12D0: F0 FF FF 7F F0 FF FF 7F  64 30 30 34 45 10 80 F0  ........d004E...
12E0: FF FF 7F F0 FF FF 7F 64  30 30 35 01 80 2B 5E 21  .......d005..+^!
12F0: 03 01 B3 80 23 52 10 80  F0 FF FF 7F F0 FF FF 7F  ....#R..........
1300: 64 30 30 35 45 10 80 F0  FF FF 7F F0 FF FF 7F 64  d005E..........d
1310: 30 30 36 01 80 6E 67 21  03 01 B4 80 99 67 21 03  006..ng!.....g!.
1320: 01 2B 67 21 03 01 B5 80  23 27 10 5E 21 03 01 11  .+g!....#'.^!...
1330: 2B 5E 21 03 01 B6 80 23  6E 68 21 03 01 46 80 99  +^!....#nh!..F..
1340: 68 21 03 01 2B 68 21 03  01 B7 80 23 52 10 80 F0  h!..+h!....#R...
1350: FF FF 7F F0 FF FF 7F 64  30 30 36 45 10 80 F0 FF  .......d006E....
1360: FF 7F F0 FF FF 7F 64 30  30 37 01 80 2B 5E 21 03  ......d007..+^!.
1370: 01 B8 80 23 2B 5E 21 03  01 B9 80 23 52 10 80 F0  ...#+^!....#R...
1380: FF FF 7F F0 FF FF 7F 64  30 30 37 45 10 80 F0 FF  .......d007E....
1390: FF 7F F0 FF FF 7F 64 30  30 38 01 80 66 B0 80 67  ......d008..f..g
13A0: 21 03 01 67 21 03 01 74  77 61 30 2B 67 21 03 01  !..g!..twa0+g!..
13B0: BA 80 23 6E 68 21 03 01  BB 80 99 68 21 03 01 2B  ..#nh!.....h!..+
13C0: 67 21 03 01 BC 80 23 66  B0 80 67 21 03 01 67 21  g!....#f..g!..g!
13D0: 03 01 74 77 61 31 52 10  80 F0 FF FF 7F F0 FF FF  ..twa1R.........
13E0: 7F 64 30 30 38 45 10 80  F0 FF FF 7F F0 FF FF 7F  .d008E..........
13F0: 64 30 30 39 01 80 1C 2C  80 2B 5E 21 03 01 BD 80  d009...,.+^!....
1400: 23 52 10 80 F0 FF FF 7F  F0 FF FF 7F 64 30 30 39  #R..........d009
1410: 45 10 80 F0 FF FF 7F F0  FF FF 7F 64 30 31 37 01  E..........d017.
1420: 80 1C 13 80 2B 67 21 03  01 BE 80 23 6E 5E 21 03  ....+g!....#n^!.
1430: 01 34 80 99 5E 21 03 01  2B 5E 21 03 01 BF 80 23  .4..^!..+^!....#
1440: 52 10 80 F0 FF FF 7F F0  FF FF 7F 64 30 31 37 4E  R..........d017N
1450: 00 66 21 03 01 2F 00 66  21 03 01 80 66 21 03 01  .f!../.f!...f!..
1460: BA 66 21 03 01 C0 80 C1  80 9B 80 C2 80 4A 67 21  .f!..........Jg!
1470: 03 01 68 21 03 01 45 10  80 F0 FF FF 7F F0 FF FF  ..h!..E.........
1480: 7F 64 30 31 30 01 80 6E  68 21 03 01 01 80 99 68  .d010..nh!.....h
1490: 21 03 01 2B 68 21 03 01  C3 80 23 1C 03 80 4A 67  !..+h!....#...Jg
14A0: 21 03 01 66 21 03 01 1C  2C 80 52 10 80 F0 FF FF  !..f!...,.R.....
14B0: 7F F0 FF FF 7F 64 30 31  30 45 10 80 F0 FF FF 7F  .....d010E......
14C0: F0 FF FF 7F 64 30 31 31  01 80 6E 66 21 03 01 83  ....d011..nf!...
14D0: 80 99 66 21 03 01 1C C4  80 27 10 66 21 03 01 02  ..f!.....'.f!...
14E0: 52 10 80 F0 FF FF 7F F0  FF FF 7F 64 30 31 31 45  R..........d011E
14F0: 10 80 F0 FF FF 7F F0 FF  FF 7F 64 30 31 32 01 80  ..........d012..
1500: 1C C5 80 52 10 80 F0 FF  FF 7F F0 FF FF 7F 64 30  ...R..........d0
1510: 31 32 45 10 80 F0 FF FF  7F F0 FF FF 7F 64 30 31  12E..........d01
1520: 36 01 80 1C 13 80 27 10  5E 21 03 01 12 1C 7D 80  6.....'.^!....}.
1530: 52 10 80 F0 FF FF 7F F0  FF FF 7F 64 30 31 36 27  R..........d016'
1540: 10 67 21 03 01 03 27 10  68 21 03 01 02 45 10 80  .g!...'.h!...E..
1550: F0 FF FF 7F F0 FF FF 7F  64 30 31 33 01 80 79 00  ........d013..y.
1560: 5E 21 03 01 66 21 03 01  1C 03 80 7C 00 5E 21 03  ^!..f!.....|.^!.
1570: 01 2B 5E 21 03 01 C6 80  23 7C 01 5E 21 03 01 2B  .+^!....#|.^!..+
1580: 68 21 03 01 C7 80 23 1C  03 80 7B 5E 21 03 01 2B  h!....#...{^!..+
1590: 5E 21 03 01 8E 80 23 52  10 80 F0 FF FF 7F F0 FF  ^!....#R........
15A0: FF 7F 64 30 31 33 45 10  80 F0 FF FF 7F F0 FF FF  ..d013E.........
15B0: 7F 64 30 31 34 01 80 1C  13 80 4A 5E 21 03 01 68  .d014.....J^!..h
15C0: 21 03 01 2B 5E 21 03 01  C8 80 23 1C 03 80 2B 68  !..+^!....#...+h
15D0: 21 03 01 C9 80 23 4A 68  21 03 01 5E 21 03 01 1C  !....#Jh!..^!...
15E0: 03 80 4A 67 21 03 01 5E  21 03 01 52 10 80 F0 FF  ..Jg!..^!..R....
15F0: FF 7F F0 FF FF 7F 64 30  31 34 45 10 80 F0 FF FF  ......d014E.....
1600: 7F F0 FF FF 7F 64 30 31  35 01 80 1C 13 80 6E 5E  .....d015.....n^
1610: 21 03 01 BB 80 99 5E 21  03 01 2B 5E 21 03 01 CA  !.....^!..+^!...
1620: 80 23 1C 2C 80 2B 5E 21  03 01 CB 80 23 5D 01 80  .#.,.+^!....#]..
1630: 04 80 1C 13 80 45 00 80  F8 FF FF 7F F8 FF FF 7F  .....E..........
1640: 66 64 6F 31 01 80 55 00  80 F8 FF FF 7F F8 FF FF  fdo1..U.........
1650: 7F 66 64 6F 31 1C 42 80  52 10 80 F0 FF FF 7F F0  .fdo1.B.R.......
1660: FF FF 7F 64 30 31 35 AB  11 01 80 02 09 10 21 80  ...d015.......!.
1670: 00 76 16 01 92 16 5C 00  CC 80 5C 01 CC 80 9A 46  .v....\...\....F
1680: 00 45 00 80 F0 FF FF 7F  F0 FF FF 7F 66 64 69 32  .E..........fdi2
1690: 01 80 21 00                                       ..!.            
```

#### Opcodes

```
  0: 0x0A7D [0x42] SET_CLI_EVENT_CANCEL_DATA()
  1: 0x0A7E [0x45] LOAD_SCHEDULED_TASK: Load scheduler "fdo1" with entities [EventEntity, EventEntity], work=[200*, 0*]
  2: 0x0A8F [0x55] WAIT_LOAD_SCHEDULER: Wait for scheduler "fdo1" with entities [EventEntity, EventEntity], work=200*
  3: 0x0A9E [0x46] CAMERA_CONTROL: Disable user control
  4: 0x0AA0 [0x38] SET_CLIENT_EVENT_MODE(mode=19*)
  5: 0x0AA3 [0x75] LOAD_ROOM(Load indoor room, room=565*)
  6: 0x0AA7 [0x75] LOAD_ROOM(No action)
  7: 0x0AA9 [0x92] Fari-Wari (ID: 16982364/0x0103215C)->Render.Flags3 ^= 0x01
  8: 0x0AAF [0x92] Rughadjeen (ID: 16982367/0x0103215F)->Render.Flags3 ^= 0x01
  9: 0x0AB5 [0x92] Biyaada (ID: 16982365/0x0103215D)->Render.Flags3 ^= 0x01
 10: 0x0ABB [0x92] Aphmau (ID: 16982216/0x010320C8)->Render.Flags3 ^= 0x01
 11: 0x0AC1 [0x92] Ovjang (ID: 16982215/0x010320C7)->Render.Flags3 ^= 0x01
 12: 0x0AC7 [0x92] Nateeyu (ID: 16982372/0x01032164)->Render.Flags3 ^= 0x01
 13: 0x0ACD [0x92] Unnamed NPC (ID: 16982381/0x0103216D)->Render.Flags3 ^= 0x01
 14: 0x0AD3 [0x92] Rughadjeen (ID: 16982366/0x0103215E)->Render.Flags3 ^= 0x01
 15: 0x0AD9 [0x92] Rishfee (ID: 16982213/0x010320C5)->Render.Flags3 ^= 0x01
 16: 0x0ADF [0x92] Yamuld (ID: 16982375/0x01032167)->Render.Flags3 ^= 0x01
 17: 0x0AE5 [0x92] Vatharad (ID: 16982376/0x01032168)->Render.Flags3 ^= 0x01
 18: 0x0AEB [0x92] Sajalda (ID: 16982380/0x0103216C)->Render.Flags3 ^= 0x01
 19: 0x0AF1 [0x92] Zubyahn (ID: 16982146/0x01032082)->Render.Flags3 ^= 0x01
 20: 0x0AF7 [0x92] Halbeeya (ID: 16982142/0x0103207E)->Render.Flags3 ^= 0x01
 21: 0x0AFD [0x92] Fayeewah (ID: 16982099/0x01032053)->Render.Flags3 ^= 0x01
 22: 0x0B03 [0x92] Yafaaf (ID: 16982100/0x01032054)->Render.Flags3 ^= 0x01
 23: 0x0B09 [0x92] Mafwahb (ID: 16982111/0x0103205F)->Render.Flags3 ^= 0x01
 24: 0x0B0F [0x92] Kalimahf (ID: 16982112/0x01032060)->Render.Flags3 ^= 0x01
 25: 0x0B15 [0x4E] SET_ENTITY_HIDE_FLAG: Show Biyaada (ID: 16982365/0x0103215D)
 26: 0x0B1B [0x94] LocalPlayer->Render.Flags3 ^= 0x01
 27: 0x0B21 [0x94] Fari-Wari (ID: 16982364/0x0103215C)->Render.Flags3 ^= 0x01
 28: 0x0B27 [0x94] Rughadjeen (ID: 16982367/0x0103215F)->Render.Flags3 ^= 0x01
 29: 0x0B2D [0x94] Biyaada (ID: 16982365/0x0103215D)->Render.Flags3 ^= 0x01
 30: 0x0B33 [0x80] LOAD_WAIT(entity=LocalPlayer)
 31: 0x0B38 [0x80] LOAD_WAIT(entity=Biyaada (ID: 16982365/0x0103215D))
 32: 0x0B3D [0x80] LOAD_WAIT(entity=Rughadjeen (ID: 16982367/0x0103215F))
 33: 0x0B42 [0x22] ENTITY_HIDE_FLAG(enabled=0x01)
 34: 0x0B44 [0xBA] SET_ENTITY_POSITION(entity_id=LocalPlayer, pos_x=80.537*, pos_z=-134.507*, pos_y=-6.000*, direction=92.1°*)
 35: 0x0B51 [0xBA] SET_ENTITY_POSITION(entity_id=Fari-Wari (ID: 16982364/0x0103215C), pos_x=80.391*, pos_z=-136.859*, pos_y=-6.000*, direction=92.1°*)
 36: 0x0B5E [0xBA] SET_ENTITY_POSITION(entity_id=Biyaada (ID: 16982365/0x0103215D), pos_x=81.210*, pos_z=-136.661*, pos_y=-5.999*, direction=235.5°*)
 37: 0x0B6B [0x4A] Fari-Wari (ID: 16982364/0x0103215C) looks at LocalPlayer
 38: 0x0B74 [0x4A] Biyaada (ID: 16982365/0x0103215D) looks at LocalPlayer
 39: 0x0B7D [0x4A] LocalPlayer looks at Biyaada (ID: 16982365/0x0103215D)
 40: 0x0B86 [0x1C] WAIT(15* ticks)
 41: 0x0B89 [0x45] LOAD_SCHEDULED_TASK: Load scheduler "x000" with entities [LocalPlayer, LocalPlayer], work=[292*, 0*]
 42: 0x0B9A [0x45] LOAD_SCHEDULED_TASK: Load scheduler "fdi1" with entities [EventEntity, EventEntity], work=[200*, 0*]
 43: 0x0BAB [0x1C] WAIT(60* ticks)
 44: 0x0BAE [0x6E] Biyaada (ID: 16982365/0x0103215D) uses emote 11*
 45: 0x0BB5 [0x99] Wait for Biyaada (ID: 16982365/0x0103215D) animation to complete
 46: 0x0BBA [0x2B] Biyaada (ID: 16982365/0x0103215D) [11503*]:
    → "You found something!?\u007F1\u0000\u0007"
 47: 0x0BC1 [0x23] WAIT_FOR_DIALOG_INTERACTION
 48: 0x0BC2 [0x2B] Biyaada (ID: 16982365/0x0103215D) [11504*]:
    → "Yes...that ribbon...\u0007I have often seen the general gazing contentedly at that strip of cloth.\u007F1\u0000\u0007"
 49: 0x0BC9 [0x23] WAIT_FOR_DIALOG_INTERACTION
 50: 0x0BCA [0x52] END_LOAD_SCHEDULER: End scheduler "x000" with entities [LocalPlayer, LocalPlayer], work=292*
 51: 0x0BD9 [0x45] LOAD_SCHEDULED_TASK: Load scheduler "x001" with entities [LocalPlayer, LocalPlayer], work=[292*, 0*]
 52: 0x0BEA [0x2B] Biyaada (ID: 16982365/0x0103215D) [11505*]:
    → "Thank you.\u0007This must be the item he dropped.\u007F1\u0000\u0007"
 53: 0x0BF1 [0x23] WAIT_FOR_DIALOG_INTERACTION
 54: 0x0BF2 [0x4A] Fari-Wari (ID: 16982364/0x0103215C) looks at Biyaada (ID: 16982365/0x0103215D)
 55: 0x0BFB [0x2B] Fari-Wari (ID: 16982364/0x0103215C) [11506*]:
    → "Did I not tell you?\u0007You could expect nothing less from an attendant to Fari-Wari the Eloquent!\u007F1\u0000\u0007"
 56: 0x0C02 [0x23] WAIT_FOR_DIALOG_INTERACTION
 57: 0x0C03 [0x52] END_LOAD_SCHEDULER: End scheduler "x001" with entities [LocalPlayer, LocalPlayer], work=292*
 58: 0x0C12 [0x45] LOAD_SCHEDULED_TASK: Load scheduler "x002" with entities [LocalPlayer, LocalPlayer], work=[292*, 0*]
 59: 0x0C23 [0x66] LOAD_EXT_SCHEDULER_MAIN: Load scheduler "tlk0" with entities [Biyaada (ID: 16982365/0x0103215D), Biyaada (ID: 16982365/0x0103215D)], work=19*
 60: 0x0C32 [0x2B] Biyaada (ID: 16982365/0x0103215D) [11507*]:
    → "So it seems.\u0007I believe I owe you a tale, then.\u007F1\u0000\u0007"
 61: 0x0C39 [0x23] WAIT_FOR_DIALOG_INTERACTION
 62: 0x0C3A [0x2B] Biyaada (ID: 16982365/0x0103215D) [11508*]:
    → "It was the events of a single night that would change General Rughadjeen's fate forever...\u007F1\u0000\u0007"
 63: 0x0C41 [0x23] WAIT_FOR_DIALOG_INTERACTION
 64: 0x0C42 [0x66] LOAD_EXT_SCHEDULER_MAIN: Load scheduler "tlk1" with entities [Biyaada (ID: 16982365/0x0103215D), Biyaada (ID: 16982365/0x0103215D)], work=19*
 65: 0x0C51 [0x52] END_LOAD_SCHEDULER: End scheduler "x002" with entities [LocalPlayer, LocalPlayer], work=292*
 66: 0x0C60 [0x45] LOAD_SCHEDULED_TASK: Load scheduler "x003" with entities [LocalPlayer, LocalPlayer], work=[292*, 0*]
 67: 0x0C71 [0x1C] WAIT(60* ticks)
 68: 0x0C74 [0x66] LOAD_EXT_SCHEDULER_MAIN: Load scheduler "tlk0" with entities [Biyaada (ID: 16982365/0x0103215D), Biyaada (ID: 16982365/0x0103215D)], work=19*
 69: 0x0C83 [0x2B] Biyaada (ID: 16982365/0x0103215D) [11509*]:
    → "Almost two years ago now, the western arm of the Imperial Army was under the sole command of General Missahd, a member of the royal family.\u007F1\u0000\u0007"
 70: 0x0C8A [0x23] WAIT_FOR_DIALOG_INTERACTION
 71: 0x0C8B [0x2B] Biyaada (ID: 16982365/0x0103215D) [11510*]:
    → "Assigned to this general was one Captain Rughadjeen...\u007F1\u0000\u0007"
 72: 0x0C92 [0x23] WAIT_FOR_DIALOG_INTERACTION
 73: 0x0C93 [0x5D] SET_MUSIC_VOLUME(volume=0*, fade_time=120*)
 74: 0x0C98 [0x1C] WAIT(60* ticks)
 75: 0x0C9B [0x45] LOAD_SCHEDULED_TASK: Load scheduler "fdo1" with entities [EventEntity, EventEntity], work=[200*, 0*]
 76: 0x0CAC [0x55] WAIT_LOAD_SCHEDULER: Wait for scheduler "fdo1" with entities [EventEntity, EventEntity], work=200*
 77: 0x0CBB [0x52] END_LOAD_SCHEDULER: End scheduler "x003" with entities [LocalPlayer, LocalPlayer], work=292*
 78: 0x0CCA [0x34] LOAD_UNLOAD_ZONE(zone_id=559*)
 79: 0x0CCD [0x77] SET_EVENT_TIME_WEATHER(hour=0*, weather=1*)
 80: 0x0CD2 [0x1C] WAIT(30* ticks)
 81: 0x0CD5 [0x4E] SET_ENTITY_HIDE_FLAG: Hide Unknown NPC (ID: 16982046/0x0103201E)
 82: 0x0CDB [0xAB] EventEntity->UnknownFlag = 1 // Enable unknown flag
 83: 0x0CDD [0x4E] SET_ENTITY_HIDE_FLAG: Show Rughadjeen (ID: 16982366/0x0103215E)
 84: 0x0CE3 [0x4E] SET_ENTITY_HIDE_FLAG: Show Missahd (ID: 16982374/0x01032166)
 85: 0x0CE9 [0x80] LOAD_WAIT(entity=Rughadjeen (ID: 16982366/0x0103215E))
 86: 0x0CEE [0x80] LOAD_WAIT(entity=Missahd (ID: 16982374/0x01032166))
 87: 0x0CF3 [0x92] Rughadjeen (ID: 16982366/0x0103215E)->Render.Flags3 ^= 0x01
 88: 0x0CF9 [0x92] Missahd (ID: 16982374/0x01032166)->Render.Flags3 ^= 0x01
 89: 0x0CFF [0xBA] SET_ENTITY_POSITION(entity_id=Missahd (ID: 16982374/0x01032166), pos_x=0.298*, pos_z=-6.671*, pos_y=0.000*, direction=91.9°*)
 90: 0x0D0C [0xBA] SET_ENTITY_POSITION(entity_id=Rughadjeen (ID: 16982366/0x0103215E), pos_x=-0.970*, pos_z=-2.019*, pos_y=0.000*, direction=92.2°*)
 91: 0x0D19 [0x5C] MUSIC_CONTROL: Set Idle (Day) music to song 123*
 92: 0x0D1D [0x5C] MUSIC_CONTROL: Set Idle (Night) music to song 123*
 93: 0x0D21 [0x9A] WAIT_MUSIC_SERVER()
 94: 0x0D22 [0x27] REQ_SET(priority=0x10, entity_id=Missahd (ID: 16982374/0x01032166), tag_num=0x03)
 95: 0x0D29 [0x45] LOAD_SCHEDULED_TASK: Load scheduler "w000" with entities [LocalPlayer, LocalPlayer], work=[292*, 0*]
 96: 0x0D3A [0x45] LOAD_SCHEDULED_TASK: Load scheduler "fdi1" with entities [EventEntity, EventEntity], work=[200*, 0*]
 97: 0x0D4B [0x1C] WAIT(45* ticks)
 98: 0x0D4E [0x27] REQ_SET(priority=0x10, entity_id=Rughadjeen (ID: 16982366/0x0103215E), tag_num=0x0E)
 99: 0x0D55 [0x1C] WAIT(80* ticks)
100: 0x0D58 [0x2B] Missahd (ID: 16982374/0x01032166) [11511*]:
    → "Hmph. I see.\u0007I will pass your proposal on to the Operations Staff for due consideration.\u007F1\u0000\u0007"
101: 0x0D5F [0x23] WAIT_FOR_DIALOG_INTERACTION
102: 0x0D60 [0x1C] WAIT(15* ticks)
103: 0x0D63 [0x2B] Rughadjeen (ID: 16982366/0x0103215E) [11512*]:
    → "There is no time for that!\u0007There are signs that the beastmen are massing for a full-scale assault!\u0007We cannot wait for reinforcements!\u007F1\u0000\u0007"
104: 0x0D6A [0x23] WAIT_FOR_DIALOG_INTERACTION
105: 0x0D6B [0x1C] WAIT(15* ticks)
106: 0x0D6E [0x2B] Missahd (ID: 16982374/0x01032166) [11513*]:
    → "<Sigh>...\u0007Captain, have you seen the fortifications on the Balrahn Defense Line?\u0007And the number of our soldiers that man those walls?\u007F1\u0000\u0007"
107: 0x0D75 [0x23] WAIT_FOR_DIALOG_INTERACTION
108: 0x0D76 [0x2A] GET_REQ_LEVEL(level=16, entity_id=Missahd (ID: 16982374/0x01032166))
109: 0x0D7C [0x52] END_LOAD_SCHEDULER: End scheduler "w000" with entities [LocalPlayer, LocalPlayer], work=292*
110: 0x0D8B [0x45] LOAD_SCHEDULED_TASK: Load scheduler "w009" with entities [LocalPlayer, LocalPlayer], work=[292*, 0*]
111: 0x0D9C [0x4A] Missahd (ID: 16982374/0x01032166) looks at Rughadjeen (ID: 16982366/0x0103215E)
112: 0x0DA5 [0x2B] Missahd (ID: 16982374/0x01032166) [11514*]:
    → "Our enemies are nothing more than mindless beasts that will break themselves against our stalwart defenses. It matters not how many pigs come to the slaughter.\u007F1\u0000\u0007"
113: 0x0DAC [0x23] WAIT_FOR_DIALOG_INTERACTION
114: 0x0DAD [0x2B] Rughadjeen (ID: 16982366/0x0103215E) [11515*]:
    → "...\u007F1\u0000\u0007"
115: 0x0DB4 [0x23] WAIT_FOR_DIALOG_INTERACTION
116: 0x0DB5 [0x52] END_LOAD_SCHEDULER: End scheduler "w009" with entities [LocalPlayer, LocalPlayer], work=292*
117: 0x0DC4 [0x45] LOAD_SCHEDULED_TASK: Load scheduler "w001" with entities [LocalPlayer, LocalPlayer], work=[292*, 0*]
118: 0x0DD5 [0x2A] GET_REQ_LEVEL(level=16, entity_id=Rughadjeen (ID: 16982366/0x0103215E))
119: 0x0DDB [0x66] LOAD_EXT_SCHEDULER_MAIN: Load scheduler "tlk0" with entities [Rughadjeen (ID: 16982366/0x0103215E), Rughadjeen (ID: 16982366/0x0103215E)], work=29*
120: 0x0DEA [0x2B] Rughadjeen (ID: 16982366/0x0103215E) [11516*]:
    → "At the very least...\u007F1\u0000\u0007"
121: 0x0DF1 [0x23] WAIT_FOR_DIALOG_INTERACTION
122: 0x0DF2 [0x2B] Missahd (ID: 16982374/0x01032166) [11518*]:
    → "...\u007F1\u0000\u0007"
123: 0x0DF9 [0x23] WAIT_FOR_DIALOG_INTERACTION
124: 0x0DFA [0x2B] Rughadjeen (ID: 16982366/0x0103215E) [11519*]:
    → "We will approach under the cover of darkness this very night and blunt their desire for battle.\u007F1\u0000\u0007"
125: 0x0E01 [0x23] WAIT_FOR_DIALOG_INTERACTION
126: 0x0E02 [0x66] LOAD_EXT_SCHEDULER_MAIN: Load scheduler "tlk1" with entities [Rughadjeen (ID: 16982366/0x0103215E), Rughadjeen (ID: 16982366/0x0103215E)], work=29*
127: 0x0E11 [0x52] END_LOAD_SCHEDULER: End scheduler "w001" with entities [LocalPlayer, LocalPlayer], work=292*
128: 0x0E20 [0x45] LOAD_SCHEDULED_TASK: Load scheduler "w002" with entities [LocalPlayer, LocalPlayer], work=[292*, 0*]
129: 0x0E31 [0x66] LOAD_EXT_SCHEDULER_MAIN: Load scheduler "twa0" with entities [Rughadjeen (ID: 16982366/0x0103215E), Rughadjeen (ID: 16982366/0x0103215E)], work=29*
130: 0x0E40 [0x2B] Rughadjeen (ID: 16982366/0x0103215E) [11520*]:
    → "We will break the spine of this newly formed army before it even begins to move.\u007F1\u0000\u0007"
131: 0x0E47 [0x23] WAIT_FOR_DIALOG_INTERACTION
132: 0x0E48 [0x2B] Rughadjeen (ID: 16982366/0x0103215E) [11521*]:
    → "If all goes well, we will sow chaos among their disorderly ranks, and buy time to bolster our defenses.\u007F1\u0000\u0007"
133: 0x0E4F [0x23] WAIT_FOR_DIALOG_INTERACTION
134: 0x0E50 [0x66] LOAD_EXT_SCHEDULER_MAIN: Load scheduler "twa1" with entities [Rughadjeen (ID: 16982366/0x0103215E), Rughadjeen (ID: 16982366/0x0103215E)], work=29*
135: 0x0E5F [0x2B] Missahd (ID: 16982374/0x01032166) [11522*]:
    → "Captain Rughadjeen...\u007F1\u0000\u0007"
136: 0x0E66 [0x23] WAIT_FOR_DIALOG_INTERACTION
137: 0x0E67 [0x52] END_LOAD_SCHEDULER: End scheduler "w002" with entities [LocalPlayer, LocalPlayer], work=292*
138: 0x0E76 [0x45] LOAD_SCHEDULED_TASK: Load scheduler "w003" with entities [LocalPlayer, LocalPlayer], work=[292*, 0*]
139: 0x0E87 [0x2B] Rughadjeen (ID: 16982366/0x0103215E) [11524*]:
    → "If we allow them to reach the capital with an organized army, they will break through any holes in the line and rain destruction on the lightly defended city streets ...\u007F1\u0000\u0007"
140: 0x0E8E [0x23] WAIT_FOR_DIALOG_INTERACTION
141: 0x0E8F [0x1C] WAIT(45* ticks)
142: 0x0E92 [0x6E] Missahd (ID: 16982374/0x01032166) uses emote 25*
