# 16982104 - Maudaal

## Common Data

| Field            | Value                          |
|------------------|--------------------------------|
| Zone             | Aht Urhgan Whitegate2 (ID: 50) |
| Block Size       | 660 bytes                      |
| Total Events     | 20                             |
| References Count | 21                             |

## List of Events

| Event ID                    | Entrypoint   |   Size |   Instructions |
|-----------------------------|--------------|--------|----------------|
| [65535](#event-65535)       | 0x0000       |      1 |              1 |
| [889](#event-889)           | 0x0001       |      1 |              1 |
| [65535.1](#event-65535-1)   | 0x0002       |     19 |              3 |
| [65535.2](#event-65535-2)   | 0x0015       |     15 |              5 |
| [65535.3](#event-65535-3)   | 0x0024       |     22 |              4 |
| [65535.4](#event-65535-4)   | 0x003A       |     25 |              7 |
| [65535.5](#event-65535-5)   | 0x0053       |     32 |              4 |
| [65535.6](#event-65535-6)   | 0x0073       |     22 |              4 |
| [65535.7](#event-65535-7)   | 0x0089       |     47 |              9 |
| [65535.8](#event-65535-8)   | 0x00B8       |     34 |              4 |
| [65535.9](#event-65535-9)   | 0x00DA       |     19 |              4 |
| [65535.10](#event-65535-10) | 0x00ED       |     34 |              8 |
| [65535.11](#event-65535-11) | 0x010F       |     61 |             11 |
| [65535.12](#event-65535-12) | 0x014C       |     30 |              8 |
| [65535.13](#event-65535-13) | 0x016A       |      9 |              3 |
| [890](#event-890)           | 0x0173       |      1 |              1 |
| [65535.14](#event-65535-14) | 0x0174       |      9 |              3 |
| [65535.15](#event-65535-15) | 0x017D       |     10 |              2 |
| [65535.16](#event-65535-16) | 0x0187       |     29 |              3 |
| [65535.17](#event-65535-17) | 0x01A4       |     58 |             10 |

## DAT References (imed_data)

|   Index | Hex Value   |   Dec Value |
|---------|-------------|-------------|
|       0 | 0xFFFDC53A  |  4294821178 |
|       1 | 0xFFFFF08D  |  4294963341 |
|       2 | 0x0708      |        1800 |
|       3 | 0x0197      |         407 |
|       4 | 0x000D      |          13 |
|       5 | 0xFFFDCB8B  |  4294822795 |
|       6 | 0xFFFFF306  |  4294963974 |
|       7 | 0x07CF      |        1999 |
|       8 | 0x003C      |          60 |
|       9 | 0x0005      |           5 |
|      10 | 0x0028      |          40 |
|      11 | 0x0000      |           0 |
|      12 | 0x0078      |         120 |
|      13 | 0x005A      |          90 |
|      14 | 0x006E      |         110 |
|      15 | 0x0010      |          16 |
|      16 | 0xFFFDC102  |  4294820098 |
|      17 | 0xFFFFF3CF  |  4294964175 |
|      18 | 0xFFFDD360  |  4294824800 |
|      19 | 0xFFFFEA30  |  4294961712 |
|      20 | 0x07D0      |        2000 |

## Events

### Event 65535

#### Metadata

| Field        | Value   |
|--------------|---------|
| Entrypoint   | 0x0000  |
| Data Size    | 1 bytes |
| Instructions | 1       |

```
      00 01 02 03 04 05 06 07  08 09 0A 0B 0C 0D 0E 0F
      -- -- -- -- -- -- -- --  -- -- -- -- -- -- -- --
0000: 00                                                .               
```

#### Opcodes

```
  0: 0x0000 [0x00] END_REQSTACK()
```

### Event 889

#### Metadata

| Field        | Value   |
|--------------|---------|
| Entrypoint   | 0x0001  |
| Data Size    | 1 bytes |
| Instructions | 1       |

```
      00 01 02 03 04 05 06 07  08 09 0A 0B 0C 0D 0E 0F
      -- -- -- -- -- -- -- --  -- -- -- -- -- -- -- --
0000:    00                                              .              
```

#### Opcodes

```
  0: 0x0001 [0x00] END_REQSTACK()
```

### Event 65535.1

#### Metadata

| Field        | Value    |
|--------------|----------|
| Entrypoint   | 0x0002   |
| Data Size    | 19 bytes |
| Instructions | 3        |

```
      00 01 02 03 04 05 06 07  08 09 0A 0B 0C 0D 0E 0F
      -- -- -- -- -- -- -- --  -- -- -- -- -- -- -- --
0000:       BA F8 FF FF 7F 00  80 01 80 02 80 03 80 1E    ..............
0010: F0 FF FF 7F 00                                    .....           
```

#### Opcodes

```
  0: 0x0002 [0xBA] SET_ENTITY_POSITION(entity_id=EventEntity, pos_x=-146.118*, pos_z=-3.955*, pos_y=1.800*, direction=35.8°*)
  1: 0x000F [0x1E] EventEntity looks at LocalPlayer and starts talking
  2: 0x0014 [0x00] END_REQSTACK()
```

### Event 65535.2

#### Metadata

| Field        | Value    |
|--------------|----------|
| Entrypoint   | 0x0015   |
| Data Size    | 15 bytes |
| Instructions | 5        |

```
      00 01 02 03 04 05 06 07  08 09 0A 0B 0C 0D 0E 0F
      -- -- -- -- -- -- -- --  -- -- -- -- -- -- -- --
0010:                32 04 80  1F 00 05 80 06 80 07 80       2..........
0020: 1F 01 6F 00                                       ..o.            
```

#### Opcodes

```
  0: 0x0015 [0x32] ExtData[1]->MainSpeed = 13* * 0.1
  1: 0x0018 [0x1F] MOVE_ENTITY: EventEntity moves to X=-144.501*, Z=-3.322*, Y=1.999*
  2: 0x0020 [0x1F] MOVE_ENTITY: Update entity position (mode=1)
  3: 0x0022 [0x6F] WAIT_FRAME_DELAY: Yield until WaitTime reaches zero
  4: 0x0023 [0x00] END_REQSTACK()
```

### Event 65535.3

#### Metadata

| Field        | Value    |
|--------------|----------|
| Entrypoint   | 0x0024   |
| Data Size    | 22 bytes |
| Instructions | 4        |

```
      00 01 02 03 04 05 06 07  08 09 0A 0B 0C 0D 0E 0F
      -- -- -- -- -- -- -- --  -- -- -- -- -- -- -- --
0020:             22 00 2F 00  F8 FF FF 7F BA F8 FF FF      "./.........
0030: 7F 00 80 01 80 02 80 03  80 00                    ..........      
```

#### Opcodes

```
  0: 0x0024 [0x22] ENTITY_HIDE_FLAG(enabled=0x00)
  1: 0x0026 [0x2F] EventEntity->Render.Flags0 &= ~0x80000 // Bit 19
  2: 0x002C [0xBA] SET_ENTITY_POSITION(entity_id=EventEntity, pos_x=-146.118*, pos_z=-3.955*, pos_y=1.800*, direction=35.8°*)
  3: 0x0039 [0x00] END_REQSTACK()
```

### Event 65535.4

#### Metadata

| Field        | Value    |
|--------------|----------|
| Entrypoint   | 0x003A   |
| Data Size    | 25 bytes |
| Instructions | 7        |

```
      00 01 02 03 04 05 06 07  08 09 0A 0B 0C 0D 0E 0F
      -- -- -- -- -- -- -- --  -- -- -- -- -- -- -- --
0030:                                22 00 2F 00 F8 FF            "./...
0040: FF 7F 37 05 80 06 80 07  80 03 80 1E 10 22 03 01  ..7.........."..
0050: 6F 70 00                                          op.             
```

#### Opcodes

```
  0: 0x003A [0x22] ENTITY_HIDE_FLAG(enabled=0x00)
  1: 0x003C [0x2F] EventEntity->Render.Flags0 &= ~0x80000 // Bit 19
  2: 0x0042 [0x37] UPDATE_EVENT_POSITION_AND_DIR: x=-144.501*, z=-3.322*, y=1.999*, direction=35.8°*
  3: 0x004B [0x1E] EventEntity looks at Clavauert (ID: 16982544/0x01032210) and starts talking
  4: 0x0050 [0x6F] WAIT_FRAME_DELAY: Yield until WaitTime reaches zero
  5: 0x0051 [0x70] WAIT_ENTITY_RENDER_FLAG: Wait while EventEntity->Render.Flags3 bit 2 is set (cancel turn if not)
  6: 0x0052 [0x00] END_REQSTACK()
```

### Event 65535.5

#### Metadata

| Field        | Value    |
|--------------|----------|
| Entrypoint   | 0x0053   |
| Data Size    | 32 bytes |
| Instructions | 4        |

```
      00 01 02 03 04 05 06 07  08 09 0A 0B 0C 0D 0E 0F
      -- -- -- -- -- -- -- --  -- -- -- -- -- -- -- --
0050:          1C 08 80 66 09  80 F8 FF FF 7F F8 FF FF     ...f.........
0060: 7F 61 6B 62 30 53 F8 FF  FF 7F F8 FF FF 7F 61 6B  .akb0S........ak
0070: 62 30 00                                          b0.             
```

#### Opcodes

```
  0: 0x0053 [0x1C] WAIT(60* ticks)
  1: 0x0056 [0x66] LOAD_EXT_SCHEDULER_MAIN: Load scheduler "akb0" with entities [EventEntity, EventEntity], work=5*
  2: 0x0065 [0x53] WAIT_SCHEDULER_TASK: Wait for scheduler "akb0" with entities [EventEntity, EventEntity]
  3: 0x0072 [0x00] END_REQSTACK()
```

### Event 65535.6

#### Metadata

| Field        | Value    |
|--------------|----------|
| Entrypoint   | 0x0073   |
| Data Size    | 22 bytes |
| Instructions | 4        |

```
      00 01 02 03 04 05 06 07  08 09 0A 0B 0C 0D 0E 0F
      -- -- -- -- -- -- -- --  -- -- -- -- -- -- -- --
0070:          1C 0A 80 66 0B  80 F8 FF FF 7F F8 FF FF     ...f.........
0080: 7F 64 69 73 30 1C 0C 80  00                       .dis0....       
```

#### Opcodes

```
  0: 0x0073 [0x1C] WAIT(40* ticks)
  1: 0x0076 [0x66] LOAD_EXT_SCHEDULER_MAIN: Load scheduler "dis0" with entities [EventEntity, EventEntity], work=0*
  2: 0x0085 [0x1C] WAIT(120* ticks)
  3: 0x0088 [0x00] END_REQSTACK()
```

### Event 65535.7

#### Metadata

| Field        | Value    |
|--------------|----------|
| Entrypoint   | 0x0089   |
| Data Size    | 47 bytes |
| Instructions | 9        |

```
      00 01 02 03 04 05 06 07  08 09 0A 0B 0C 0D 0E 0F
      -- -- -- -- -- -- -- --  -- -- -- -- -- -- -- --
0080:                             1C 08 80 66 0B 80 F8           ...f...
0090: FF FF 7F F8 FF FF 7F 74  68 6B 31 1C 0D 80 66 0B  .......thk1...f.
00A0: 80 F8 FF FF 7F F8 FF FF  7F 74 68 6B 32 1C 08 80  .........thk2...
00B0: 1E 10 22 03 01 6F 70 00                           .."..op.        
```

#### Opcodes

```
  0: 0x0089 [0x1C] WAIT(60* ticks)
  1: 0x008C [0x66] LOAD_EXT_SCHEDULER_MAIN: Load scheduler "thk1" with entities [EventEntity, EventEntity], work=0*
  2: 0x009B [0x1C] WAIT(90* ticks)
  3: 0x009E [0x66] LOAD_EXT_SCHEDULER_MAIN: Load scheduler "thk2" with entities [EventEntity, EventEntity], work=0*
  4: 0x00AD [0x1C] WAIT(60* ticks)
  5: 0x00B0 [0x1E] EventEntity looks at Clavauert (ID: 16982544/0x01032210) and starts talking
  6: 0x00B5 [0x6F] WAIT_FRAME_DELAY: Yield until WaitTime reaches zero
  7: 0x00B6 [0x70] WAIT_ENTITY_RENDER_FLAG: Wait while EventEntity->Render.Flags3 bit 2 is set (cancel turn if not)
  8: 0x00B7 [0x00] END_REQSTACK()
```

### Event 65535.8

#### Metadata

| Field        | Value    |
|--------------|----------|
| Entrypoint   | 0x00B8   |
| Data Size    | 34 bytes |
| Instructions | 4        |

```
      00 01 02 03 04 05 06 07  08 09 0A 0B 0C 0D 0E 0F
      -- -- -- -- -- -- -- --  -- -- -- -- -- -- -- --
00B0:                          66 0B 80 F8 FF FF 7F F8          f.......
00C0: FF FF 7F 74 68 6B 31 1C  0D 80 66 0B 80 F8 FF FF  ...thk1...f.....
00D0: 7F F8 FF FF 7F 74 68 6B  32 00                    .....thk2.      
```

#### Opcodes

```
  0: 0x00B8 [0x66] LOAD_EXT_SCHEDULER_MAIN: Load scheduler "thk1" with entities [EventEntity, EventEntity], work=0*
  1: 0x00C7 [0x1C] WAIT(90* ticks)
  2: 0x00CA [0x66] LOAD_EXT_SCHEDULER_MAIN: Load scheduler "thk2" with entities [EventEntity, EventEntity], work=0*
  3: 0x00D9 [0x00] END_REQSTACK()
```

### Event 65535.9

#### Metadata

| Field        | Value    |
|--------------|----------|
| Entrypoint   | 0x00DA   |
| Data Size    | 19 bytes |
| Instructions | 4        |

```
      00 01 02 03 04 05 06 07  08 09 0A 0B 0C 0D 0E 0F
      -- -- -- -- -- -- -- --  -- -- -- -- -- -- -- --
00D0:                                1C 08 80 7B F8 FF            ...{..
00E0: FF 7F 79 00 F8 FF FF 7F  F0 FF FF 7F 00           ..y..........   
```

#### Opcodes

```
  0: 0x00DA [0x1C] WAIT(60* ticks)
  1: 0x00DD [0x7B] EventEntity stops talking
  2: 0x00E2 [0x79] EventEntity looks at LocalPlayer (Basic look)
  3: 0x00EC [0x00] END_REQSTACK()
```

### Event 65535.10

#### Metadata

| Field        | Value    |
|--------------|----------|
| Entrypoint   | 0x00ED   |
| Data Size    | 34 bytes |
| Instructions | 8        |

```
      00 01 02 03 04 05 06 07  08 09 0A 0B 0C 0D 0E 0F
      -- -- -- -- -- -- -- --  -- -- -- -- -- -- -- --
00E0:                                         1C 0E 80               ...
00F0: 1E F0 FF FF 7F 6F 70 66  0B 80 F8 FF FF 7F F8 FF  .....opf........
0100: FF 7F 64 69 73 30 1C 0C  80 1E 10 22 03 01 00     ..dis0....."... 
```

#### Opcodes

```
  0: 0x00ED [0x1C] WAIT(110* ticks)
  1: 0x00F0 [0x1E] EventEntity looks at LocalPlayer and starts talking
  2: 0x00F5 [0x6F] WAIT_FRAME_DELAY: Yield until WaitTime reaches zero
  3: 0x00F6 [0x70] WAIT_ENTITY_RENDER_FLAG: Wait while EventEntity->Render.Flags3 bit 2 is set (cancel turn if not)
  4: 0x00F7 [0x66] LOAD_EXT_SCHEDULER_MAIN: Load scheduler "dis0" with entities [EventEntity, EventEntity], work=0*
  5: 0x0106 [0x1C] WAIT(120* ticks)
  6: 0x0109 [0x1E] EventEntity looks at Clavauert (ID: 16982544/0x01032210) and starts talking
  7: 0x010E [0x00] END_REQSTACK()
```

### Event 65535.11

#### Metadata

| Field        | Value    |
|--------------|----------|
| Entrypoint   | 0x010F   |
| Data Size    | 61 bytes |
| Instructions | 11       |

```
      00 01 02 03 04 05 06 07  08 09 0A 0B 0C 0D 0E 0F
      -- -- -- -- -- -- -- --  -- -- -- -- -- -- -- --
0100:                                               1C                 .
0110: 08 80 66 09 80 F8 FF FF  7F F8 FF FF 7F 61 6B 62  ..f..........akb
0120: 30 53 F8 FF FF 7F F8 FF  FF 7F 61 6B 62 30 1C 0C  0S........akb0..
0130: 80 32 0F 80 1F 00 10 80  11 80 02 80 1F 01 6F 4B  .2............oK
0140: F8 FF FF 7F 0B 80 7B F8  FF FF 7F 00              ......{.....    
```

#### Opcodes

```
  0: 0x010F [0x1C] WAIT(60* ticks)
  1: 0x0112 [0x66] LOAD_EXT_SCHEDULER_MAIN: Load scheduler "akb0" with entities [EventEntity, EventEntity], work=5*
  2: 0x0121 [0x53] WAIT_SCHEDULER_TASK: Wait for scheduler "akb0" with entities [EventEntity, EventEntity]
  3: 0x012E [0x1C] WAIT(120* ticks)
  4: 0x0131 [0x32] ExtData[1]->MainSpeed = 16* * 0.1
  5: 0x0134 [0x1F] MOVE_ENTITY: EventEntity moves to X=-147.198*, Z=-3.121*, Y=1.800*
  6: 0x013C [0x1F] MOVE_ENTITY: Update entity position (mode=1)
  7: 0x013E [0x6F] WAIT_FRAME_DELAY: Yield until WaitTime reaches zero
  8: 0x013F [0x4B] UPDATE_ENTITY_YAW(entity=EventEntity, yaw=0.0°*)
  9: 0x0146 [0x7B] EventEntity stops talking
 10: 0x014B [0x00] END_REQSTACK()
```

### Event 65535.12

#### Metadata

| Field        | Value    |
|--------------|----------|
| Entrypoint   | 0x014C   |
| Data Size    | 30 bytes |
| Instructions | 8        |

```
      00 01 02 03 04 05 06 07  08 09 0A 0B 0C 0D 0E 0F
      -- -- -- -- -- -- -- --  -- -- -- -- -- -- -- --
0140:                                      1C 08 80 32              ...2
0150: 0F 80 1F 00 10 80 11 80  02 80 1F 01 6F 4B F8 FF  ............oK..
0160: FF 7F 0B 80 7B F8 FF FF  7F 00                    ....{.....      
```

#### Opcodes

```
  0: 0x014C [0x1C] WAIT(60* ticks)
  1: 0x014F [0x32] ExtData[1]->MainSpeed = 16* * 0.1
  2: 0x0152 [0x1F] MOVE_ENTITY: EventEntity moves to X=-147.198*, Z=-3.121*, Y=1.800*
  3: 0x015A [0x1F] MOVE_ENTITY: Update entity position (mode=1)
  4: 0x015C [0x6F] WAIT_FRAME_DELAY: Yield until WaitTime reaches zero
  5: 0x015D [0x4B] UPDATE_ENTITY_YAW(entity=EventEntity, yaw=0.0°*)
  6: 0x0164 [0x7B] EventEntity stops talking
  7: 0x0169 [0x00] END_REQSTACK()
```

### Event 65535.13

#### Metadata

| Field        | Value   |
|--------------|---------|
| Entrypoint   | 0x016A  |
| Data Size    | 9 bytes |
| Instructions | 3       |

```
      00 01 02 03 04 05 06 07  08 09 0A 0B 0C 0D 0E 0F
      -- -- -- -- -- -- -- --  -- -- -- -- -- -- -- --
0160:                                22 01 2F 01 F8 FF            "./...
0170: FF 7F 00                                          ...             
```

#### Opcodes

```
  0: 0x016A [0x22] ENTITY_HIDE_FLAG(enabled=0x01)
  1: 0x016C [0x2F] EventEntity->Render.Flags0 |= 0x80000 // Bit 19
  2: 0x0172 [0x00] END_REQSTACK()
```

### Event 890

#### Metadata

| Field        | Value   |
|--------------|---------|
| Entrypoint   | 0x0173  |
| Data Size    | 1 bytes |
| Instructions | 1       |

```
      00 01 02 03 04 05 06 07  08 09 0A 0B 0C 0D 0E 0F
      -- -- -- -- -- -- -- --  -- -- -- -- -- -- -- --
0170:          00                                          .            
```

#### Opcodes

```
  0: 0x0173 [0x00] END_REQSTACK()
```

### Event 65535.14

#### Metadata

| Field        | Value   |
|--------------|---------|
| Entrypoint   | 0x0174  |
| Data Size    | 9 bytes |
| Instructions | 3       |

```
      00 01 02 03 04 05 06 07  08 09 0A 0B 0C 0D 0E 0F
      -- -- -- -- -- -- -- --  -- -- -- -- -- -- -- --
0170:             22 00 2F 00  F8 FF FF 7F 00               "./......   
```

#### Opcodes

```
  0: 0x0174 [0x22] ENTITY_HIDE_FLAG(enabled=0x00)
  1: 0x0176 [0x2F] EventEntity->Render.Flags0 &= ~0x80000 // Bit 19
  2: 0x017C [0x00] END_REQSTACK()
```

### Event 65535.15

#### Metadata

| Field        | Value    |
|--------------|----------|
| Entrypoint   | 0x017D   |
| Data Size    | 10 bytes |
| Instructions | 2        |

```
      00 01 02 03 04 05 06 07  08 09 0A 0B 0C 0D 0E 0F
      -- -- -- -- -- -- -- --  -- -- -- -- -- -- -- --
0170:                                         37 12 80               7..
0180: 13 80 14 80 0B 80 00                              .......         
```

#### Opcodes

```
  0: 0x017D [0x37] UPDATE_EVENT_POSITION_AND_DIR: x=-142.496*, z=-5.584*, y=2.000*, direction=0.0°*
  1: 0x0186 [0x00] END_REQSTACK()
```

### Event 65535.16

#### Metadata

| Field        | Value    |
|--------------|----------|
| Entrypoint   | 0x0187   |
| Data Size    | 29 bytes |
| Instructions | 3        |

```
      00 01 02 03 04 05 06 07  08 09 0A 0B 0C 0D 0E 0F
      -- -- -- -- -- -- -- --  -- -- -- -- -- -- -- --
0180:                      66  09 80 F8 FF FF 7F F8 FF         f........
0190: FF 7F 61 6B 62 30 53 F8  FF FF 7F F8 FF FF 7F 61  ..akb0S........a
01A0: 6B 62 30 00                                       kb0.            
```

#### Opcodes

```
  0: 0x0187 [0x66] LOAD_EXT_SCHEDULER_MAIN: Load scheduler "akb0" with entities [EventEntity, EventEntity], work=5*
  1: 0x0196 [0x53] WAIT_SCHEDULER_TASK: Wait for scheduler "akb0" with entities [EventEntity, EventEntity]
  2: 0x01A3 [0x00] END_REQSTACK()
```

### Event 65535.17

#### Metadata

| Field        | Value    |
|--------------|----------|
| Entrypoint   | 0x01A4   |
| Data Size    | 58 bytes |
| Instructions | 10       |

```
      00 01 02 03 04 05 06 07  08 09 0A 0B 0C 0D 0E 0F
      -- -- -- -- -- -- -- --  -- -- -- -- -- -- -- --
01A0:             66 09 80 F8  FF FF 7F F8 FF FF 7F 61      f..........a
01B0: 6B 62 30 53 F8 FF FF 7F  F8 FF FF 7F 61 6B 62 30  kb0S........akb0
01C0: 1C 08 80 32 04 80 1F 00  10 80 11 80 02 80 1F 01  ...2............
01D0: 6F 4B F8 FF FF 7F 0B 80  7B F8 FF FF 7F 00        oK......{.....  
```

#### Opcodes

```
  0: 0x01A4 [0x66] LOAD_EXT_SCHEDULER_MAIN: Load scheduler "akb0" with entities [EventEntity, EventEntity], work=5*
  1: 0x01B3 [0x53] WAIT_SCHEDULER_TASK: Wait for scheduler "akb0" with entities [EventEntity, EventEntity]
  2: 0x01C0 [0x1C] WAIT(60* ticks)
  3: 0x01C3 [0x32] ExtData[1]->MainSpeed = 13* * 0.1
  4: 0x01C6 [0x1F] MOVE_ENTITY: EventEntity moves to X=-147.198*, Z=-3.121*, Y=1.800*
  5: 0x01CE [0x1F] MOVE_ENTITY: Update entity position (mode=1)
  6: 0x01D0 [0x6F] WAIT_FRAME_DELAY: Yield until WaitTime reaches zero
  7: 0x01D1 [0x4B] UPDATE_ENTITY_YAW(entity=EventEntity, yaw=0.0°*)
  8: 0x01D8 [0x7B] EventEntity stops talking
  9: 0x01DD [0x00] END_REQSTACK()
```
