# 16982179 - Sorrowful Sage

## Common Data

| Field            | Value                          |
|------------------|--------------------------------|
| Zone             | Aht Urhgan Whitegate2 (ID: 50) |
| Block Size       | 3608 bytes                     |
| Total Events     | 4                              |
| References Count | 119                            |

## List of Events

| Event ID                 | Entrypoint   |   Size |   Instructions |
|--------------------------|--------------|--------|----------------|
| [65535](#event-65535)    | 0x0000       |      1 |              1 |
| [65535.1](#event-655351) | 0x0001       |     15 |              7 |
| [65535.2](#event-655352) | 0x0010       |   3081 |            741 |
| [269](#event-269)        | 0x0C19       |      1 |              1 |

## DAT References (imed_data)

|   Index | Hex Value   |   Dec Value |
|---------|-------------|-------------|
|       0 | 0x3253      |       12883 |
|       1 | 0x3060      |       12384 |
|       2 | 0x0000      |           0 |
|       3 | 0x3254      |       12884 |
|       4 | 0x3255      |       12885 |
|       5 | 0x3061      |       12385 |
|       6 | 0x3256      |       12886 |
|       7 | 0x3063      |       12387 |
|       8 | 0xFFFFFFFF  |  4294967295 |
|       9 | 0x0001      |           1 |
|      10 | 0x0033      |          51 |
|      11 | 0x0034      |          52 |
|      12 | 0x0035      |          53 |
|      13 | 0x0036      |          54 |
|      14 | 0x0037      |          55 |
|      15 | 0x0038      |          56 |
|      16 | 0x0039      |          57 |
|      17 | 0x003A      |          58 |
|      18 | 0x003B      |          59 |
|      19 | 0x003C      |          60 |
|      20 | 0x3064      |       12388 |
|      21 | 0x3097      |       12439 |
|      22 | 0x3098      |       12440 |
|      23 | 0x0002      |           2 |
|      24 | 0x3099      |       12441 |
|      25 | 0x0003      |           3 |
|      26 | 0x309A      |       12442 |
|      27 | 0x0004      |           4 |
|      28 | 0x309B      |       12443 |
|      29 | 0x0005      |           5 |
|      30 | 0x309C      |       12444 |
|      31 | 0x0006      |           6 |
|      32 | 0x309D      |       12445 |
|      33 | 0x0007      |           7 |
|      34 | 0x309E      |       12446 |
|      35 | 0x0008      |           8 |
|      36 | 0x309F      |       12447 |
|      37 | 0x0009      |           9 |
|      38 | 0x30A0      |       12448 |
|      39 | 0x30A2      |       12450 |
|      40 | 0x30A5      |       12453 |
|      41 | 0x0313      |         787 |
|      42 | 0x30A3      |       12451 |
|      43 | 0x0032      |          50 |
|      44 | 0x30A4      |       12452 |
|      45 | 0x30A6      |       12454 |
|      46 | 0x30A7      |       12455 |
|      47 | 0x000D      |          13 |
|      48 | 0x326F      |       12911 |
|      49 | 0x3265      |       12901 |
|      50 | 0x3266      |       12902 |
|      51 | 0x326C      |       12908 |
|      52 | 0x1509      |        5385 |
|      53 | 0x150A      |        5386 |
|      54 | 0x150B      |        5387 |
|      55 | 0x150C      |        5388 |
|      56 | 0x150D      |        5389 |
|      57 | 0x1512      |        5394 |
|      58 | 0x000A      |          10 |
|      59 | 0x1514      |        5396 |
|      60 | 0x000C      |          12 |
|      61 | 0x153C      |        5436 |
|      62 | 0x0012      |          18 |
|      63 | 0x153D      |        5437 |
|      64 | 0x0013      |          19 |
|      65 | 0x153E      |        5438 |
|      66 | 0x0014      |          20 |
|      67 | 0x153F      |        5439 |
|      68 | 0x0015      |          21 |
|      69 | 0x1515      |        5397 |
|      70 | 0x001A      |          26 |
|      71 | 0x326D      |       12909 |
|      72 | 0x326E      |       12910 |
|      73 | 0x000B      |          11 |
|      74 | 0x150E      |        5390 |
|      75 | 0x150F      |        5391 |
|      76 | 0x1510      |        5392 |
|      77 | 0x1511      |        5393 |
|      78 | 0x1513      |        5395 |
|      79 | 0x1537      |        5431 |
|      80 | 0x1538      |        5432 |
|      81 | 0x000E      |          14 |
|      82 | 0x153A      |        5434 |
|      83 | 0x0010      |          16 |
|      84 | 0x153B      |        5435 |
|      85 | 0x0011      |          17 |
|      86 | 0x1540      |        5440 |
|      87 | 0x0016      |          22 |
|      88 | 0x1033      |        4147 |
|      89 | 0x0017      |          23 |
|      90 | 0x1068      |        4200 |
|      91 | 0x0018      |          24 |
|      92 | 0x1539      |        5433 |
|      93 | 0x000F      |          15 |
|      94 | 0x3267      |       12903 |
|      95 | 0x3268      |       12904 |
|      96 | 0x3269      |       12905 |
|      97 | 0x326A      |       12906 |
|      98 | 0x326B      |       12907 |
|      99 | 0x3257      |       12887 |
|     100 | 0x3258      |       12888 |
|     101 | 0x325A      |       12890 |
|     102 | 0x325B      |       12891 |
|     103 | 0x30B2      |       12466 |
|     104 | 0x30B3      |       12467 |
|     105 | 0x30B4      |       12468 |
|     106 | 0x30B5      |       12469 |
|     107 | 0x325C      |       12892 |
|     108 | 0x325D      |       12893 |
|     109 | 0x325E      |       12894 |
|     110 | 0x325F      |       12895 |
|     111 | 0x3260      |       12896 |
|     112 | 0x30B7      |       12471 |
|     113 | 0x3261      |       12897 |
|     114 | 0x30B9      |       12473 |
|     115 | 0x30BA      |       12474 |
|     116 | 0x30BB      |       12475 |
|     117 | 0x30BC      |       12476 |
|     118 | 0x30BD      |       12477 |

## String References

- **12384**: Persons who have not completed mercenary registration are ineligible to sign up for Assault missions.
- **12385**: How may I help you today?
- **12387**: Here is the list of available Assault missions.
- **12388**: View a mission. [$10./$11./$12./$13./$14./$15./$16./$17./$18./$19.]
- **12439**: Nyzul Isle Investigation Objective: Complete on-site objectives Recruitment: Lv.75, 1-6 mercenaries
- **12440**: Nyzul Isle Uncharted Area Survey Objective: Complete on-site objectives Recruitment: Lv.99, 1-6 mercenaries
- **12441**: 
- **12442**: 
- **12443**: 
- **12444**: 
- **12445**: 
- **12446**: 
- **12447**: 
- **12448**: 
- **12450**: Sign up for this mission? [Yes./Return to list.]
- **12451**: I'm sorry, but you cannot sign up for Assault missions without $6.
- **12452**: I'm sorry, but only mercenaries of level 50 or above can sign up for Assault missions.
- **12453**: I'm sorry, but you cannot sign up for a new Assault mission until you have completed your current mission, or canceled your Assault application at the main counter.
- **12454**: You have signed up for $9.
- **12455**: Please make your way to the staging point and have a member of your party receive command verification from an Immortal. Good luck.
- **12466**: Allow me to explain the mission list notations.
- **12467**: Selecting "View mission list" will display a list of mission titles.
- **12468**: Once a mission has been selected, you will see the following notations under the mission title: "Objective" and "Recruitment."
- **12469**: "Objective" refers to the condition that must be fulfilled in order for the mission to succeed.
- **12471**: "Recruitment" refers to the level and number of mercenaries being recruited for the mission. The level displayed is a suggestion only, and any mission can be undertaken by a mercenary of level 50 or above.
- **12473**: The number range displayed represents the minimum and maximum number of mercenaries allowed for the mission.
- **12474**: You must meet the minimum number requirement in order to begin an Assault mission.
- **12475**: This concludes the explanation of mission list notations.
- **12476**: Is there anything else I can help you with?
- **12477**: Thank you for visiting the Commissions Agency.
- **12883**: This is the reception counter for Assault missions within the Nyzul Isle remnants.
- **12884**: However, Nyzul Isle has yet to be recognized as an official Assault area by the Imperial army.
- **12885**: As a result, missions completed on Nyzul Isle will not earn you Assault Points. Please be aware of this fact before signing up.
- **12886**: How may I help you? [View mission list./Vending box explanation./Confirm tokens./Confirm completed floors./Mission list explanation./I'm fine, thanks.]
- **12887**: Investigators are frequently coming across artifacts within the remnants we are simply calling Nyzul "tokens." As a way of gauging your progress, the Commissions Agency will keep track of the number of tokens you have obtained.
- **12888**: You currently possess $2 [token/tokens].
- **12890**: You have currently investigated up to Floor $4 of the Nyzul Isle remnants as part of the Nyzul Isle Investigation.
- **12891**: Furthermore, you have investigated up to Floor $5 of the Nyzul Isle uncharted region.
- **12892**: However, mission objectives within the Nyzul Isle remnants are handled with the utmost confidentiality. Your mission orders will all be received from the on-site Assault commander.
- **12893**: The remnants on Nyzul Isle are divided into multiple floors. Once you have completed the objective received on a particular floor, the Assault commander will activate the Rune of Transfer.
- **12894**: Once the Rune of Transfer has been activated, you will have the choice of proceeding to the next floor, or suspending the mission and leaving the Assault area.
- **12895**: Do not be concerned; your mission will automatically be considered a success as long as the Rune of Transfer is used to exit the Assault area, no matter the floor.
- **12896**: Lastly, the objective for each floor will be relayed to you by the Assault commander via the Rune of Transfer.
- **12897**: However, since it is not possible to impose level restrictions within the Nyzul Isle Assault area, it is best to recruit members of the suggested level.
- **12901**: Vending boxes, you say? How may I help you?
- **12902**: How may I help you? [Set preferences./Vending box overview./Never mind.]
- **12903**: No doubt you have noticed the curious caskets scattered throughout the Nyzul Isle remnants. Our operatives have come to refer to these as "vending boxes."
- **12904**: Depositing Nyzul tokens into them will yield artifacts usable only in the immediate environs. By what ancient technology or magic they operate, we do not know.
- **12905**: And yet our research has not proved entirely fruitless.
- **12906**: Specifically, we have developed a means to manipulate these boxes so that your preferred items may be extracted with greater ease.
- **12907**: I would explain further, but the inner workings of this are beyond a layman like me. Simply convey to me your preferences, and enjoy the newfound convenience on your next expedition.
- **12908**: Select a category. [Low-grade items./Medium-grade items./High-grade items./Exit.]
- **12909**: Set your preferences. [$9: [o*/o)]/$10: [o*/o)]/$11: [o*/o)]/$12: [o*/o)]/$13: [o*/o)]/$14: [o*/o)]/$15: [o*/o)]/$16: [o*/o)]/$17: [o*/o)]/$18: [o*/o)]/$19: [o*/o)]/$20: [o*/o)]/Select another category.]
- **12910**: The following item has been &[added to/removed from] your list of preferences: $39.
- **12911**: Though your enthusiasm is admirable, I fear we cannot accept your application for $9 until (Earth time). We await your return.

## Events

### Event 65535

#### Metadata

| Field        | Value   |
|--------------|---------|
| Entrypoint   | 0x0000  |
| Data Size    | 1 bytes |
| Instructions | 1       |

```
      00 01 02 03 04 05 06 07  08 09 0A 0B 0C 0D 0E 0F
      -- -- -- -- -- -- -- --  -- -- -- -- -- -- -- --
0000: 00                                                .               
```

#### Opcodes

```
  0: 0x0000 [0x00] END_REQSTACK()
```

### Event 65535.1

#### Metadata

| Field        | Value    |
|--------------|----------|
| Entrypoint   | 0x0001   |
| Data Size    | 15 bytes |
| Instructions | 7        |

```
      00 01 02 03 04 05 06 07  08 09 0A 0B 0C 0D 0E 0F
      -- -- -- -- -- -- -- --  -- -- -- -- -- -- -- --
0000:    1E F0 FF FF 7F 1D 00  80 23 1D 01 80 23 21 00   ........#...#!.
```

#### Opcodes

```
  0: 0x0001 [0x1E] EventEntity looks at LocalPlayer and starts talking
  1: 0x0006 [0x1D] PRINT_EVENT_MESSAGE(message_id=12883*)
    → "This is the reception counter for Assault missions within the Nyzul Isle remnants."
  2: 0x0009 [0x23] WAIT_FOR_DIALOG_INTERACTION
  3: 0x000A [0x1D] PRINT_EVENT_MESSAGE(message_id=12384*)
    → "Persons who have not completed mercenary registration are ineligible to sign up for Assault missions."
  4: 0x000D [0x23] WAIT_FOR_DIALOG_INTERACTION
  5: 0x000E [0x21] END_EVENT
  6: 0x000F [0x00] END_REQSTACK()
```

### Event 65535.2

#### Metadata

| Field        | Value      |
|--------------|------------|
| Entrypoint   | 0x0010     |
| Data Size    | 3081 bytes |
| Instructions | 458        |

```
      00 01 02 03 04 05 06 07  08 09 0A 0B 0C 0D 0E 0F
      -- -- -- -- -- -- -- --  -- -- -- -- -- -- -- --
0010: 03 01 10 02 80 03 02 00  08 10 1E F0 FF FF 7F 1D  ................
0020: 00 80 23 1D 03 80 23 1D  04 80 23 1D 05 80 23 24  ..#...#...#...#$
0030: 06 80 02 80 02 80 25 02  00 10 02 80 00 09 02 1D  ......%.........
0040: 07 80 23 03 01 00 08 80  3D 01 00 02 80 09 80 3D  ..#.....=......=
0050: 01 00 09 80 09 80 03 02  17 0A 80 03 03 17 0B 80  ................
0060: 03 04 17 0C 80 03 05 17  0D 80 03 06 17 0E 80 03  ................
0070: 07 17 0F 80 03 08 17 10  80 03 09 17 11 80 03 0A  ................
0080: 17 12 80 03 0B 17 13 80  24 14 80 02 80 01 00 25  ........$......%
0090: 02 00 10 02 80 00 A4 00  48 15 80 23 03 01 17 02  ........H..#....
00A0: 17 01 58 01 02 00 10 09  80 00 B8 00 48 16 80 23  ..X.........H..#
00B0: 03 01 17 03 17 01 58 01  02 00 10 17 80 00 CC 00  ......X.........
00C0: 48 18 80 23 03 01 17 04  17 01 58 01 02 00 10 19  H..#......X.....
00D0: 80 00 E0 00 48 1A 80 23  03 01 17 05 17 01 58 01  ....H..#......X.
00E0: 02 00 10 1B 80 00 F4 00  48 1C 80 23 03 01 17 06  ........H..#....
00F0: 17 01 58 01 02 00 10 1D  80 00 08 01 48 1E 80 23  ..X.........H..#
0100: 03 01 17 07 17 01 58 01  02 00 10 1F 80 00 1C 01  ......X.........
0110: 48 20 80 23 03 01 17 08  17 01 58 01 02 00 10 21  H .#......X....!
0120: 80 00 30 01 48 22 80 23  03 01 17 09 17 01 58 01  ..0.H".#......X.
0130: 02 00 10 23 80 00 44 01  48 24 80 23 03 01 17 0A  ...#..D.H$.#....
0140: 17 01 58 01 02 00 10 25  80 00 58 01 48 26 80 23  ..X....%..X.H&.#
0150: 03 01 17 0B 17 01 58 01  03 00 00 00 10 0B 00 00  ......X.........
0160: 24 27 80 09 80 02 80 25  02 00 10 02 80 00 F8 01  $'.....%........
0170: 02 05 10 02 80 01 7F 01  1D 28 80 23 01 F5 01 02  .........(.#....
0180: 03 10 02 80 00 93 01 03  00 17 29 80 1D 2A 80 23  ..........)..*.#
0190: 01 F5 01 02 88 7F 2B 80  03 A2 01 1D 2C 80 23 01  ......+.....,.#.
01A0: F5 01 02 01 17 0B 80 01  C8 01 42 1D 2D 80 23 1D  ..........B.-.#.
01B0: 2E 80 23 40 02 80 19 80  01 10 09 80 40 1B 80 2F  ..#@........@../
01C0: 80 01 10 01 17 01 F5 01  83 00 00 02 00 00 09 10  ................
01D0: 03 DA 01 1D 30 80 23 01  F5 01 42 1D 2D 80 23 1D  ....0.#...B.-.#.
01E0: 2E 80 23 40 02 80 19 80  01 10 09 80 40 1B 80 2F  ..#@........@../
01F0: 80 01 10 01 17 01 06 02  02 00 10 09 80 00 06 02  ................
0200: 01 56 00 01 06 02 01 B4  0B 02 00 10 09 80 00 2F  .V............./
0210: 0B 1D 31 80 23 24 32 80  02 80 02 80 25 02 00 10  ..1.#$2.....%...
0220: 02 80 00 FC 0A 24 33 80  02 80 02 80 25 02 00 10  .....$3.....%...
0230: 02 80 00 2B 06 03 00 00  02 80 03 01 17 34 80 3E  ...+.........4.>
0240: 02 00 09 80 4E 02 03 0D  17 09 80 01 53 02 03 0D  ....N.......S...
0250: 17 02 80 03 02 17 35 80  3E 02 00 17 80 67 02 03  ......5.>....g..
0260: 0E 17 09 80 01 6C 02 03  0E 17 02 80 03 03 17 36  .....l.........6
0270: 80 3E 02 00 19 80 80 02  03 0F 17 09 80 01 85 02  .>..............
0280: 03 0F 17 02 80 03 04 17  37 80 3E 02 00 1B 80 99  ........7.>.....
0290: 02 03 10 17 09 80 01 9E  02 03 10 17 02 80 03 05  ................
02A0: 17 38 80 3E 02 00 1D 80  B2 02 03 11 17 09 80 01  .8.>............
02B0: B7 02 03 11 17 02 80 03  06 17 39 80 3E 02 00 3A  ..........9.>..:
02C0: 80 CB 02 03 12 17 09 80  01 D0 02 03 12 17 02 80  ................
02D0: 03 07 17 3B 80 3E 02 00  3C 80 E4 02 03 13 17 09  ...;.>..<.......
02E0: 80 01 E9 02 03 13 17 02  80 03 08 17 3D 80 3E 02  ............=.>.
02F0: 00 3E 80 FD 02 03 14 17  09 80 01 02 03 03 14 17  .>..............
0300: 02 80 03 09 17 3F 80 3E  02 00 40 80 16 03 03 15  .....?.>..@.....
0310: 17 09 80 01 1B 03 03 15  17 02 80 03 0A 17 41 80  ..............A.
0320: 3E 02 00 42 80 2F 03 03  16 17 09 80 01 34 03 03  >..B./.......4..
0330: 16 17 02 80 03 0B 17 43  80 3E 02 00 44 80 48 03  .......C.>..D.H.
0340: 03 17 17 09 80 01 4D 03  03 17 17 02 80 03 0C 17  ......M.........
0350: 45 80 3E 02 00 46 80 61  03 03 18 17 09 80 01 66  E.>..F.a.......f
0360: 03 03 18 17 02 80 24 47  80 00 00 02 80 25 02 00  ......$G.....%..
0370: 10 02 80 00 A7 03 03 00  00 09 80 1A B6 0B 93 34  ...............4
0380: 80 03 1F 17 34 80 3E 02  00 09 80 95 03 03 1E 17  ....4.>.........
0390: 02 80 01 9A 03 03 1E 17  09 80 1D 48 80 23 93 02  ...........H.#..
03A0: 80 01 3A 02 01 28 06 02  00 10 09 80 00 E0 03 03  ..:..(..........
03B0: 00 00 17 80 1A B6 0B 93  35 80 03 1F 17 35 80 3E  ........5....5.>
03C0: 02 00 17 80 CE 03 03 1E  17 02 80 01 D3 03 03 1E  ................
03D0: 17 09 80 1D 48 80 23 93  02 80 01 3A 02 01 28 06  ....H.#....:..(.
03E0: 02 00 10 17 80 00 19 04  03 00 00 19 80 1A B6 0B  ................
03F0: 93 36 80 03 1F 17 36 80  3E 02 00 19 80 07 04 03  .6....6.>.......
0400: 1E 17 02 80 01 0C 04 03  1E 17 09 80 1D 48 80 23  .............H.#
0410: 93 02 80 01 3A 02 01 28  06 02 00 10 19 80 00 52  ....:..(.......R
0420: 04 03 00 00 1B 80 1A B6  0B 93 37 80 03 1F 17 37  ..........7....7
0430: 80 3E 02 00 1B 80 40 04  03 1E 17 02 80 01 45 04  .>....@.......E.
0440: 03 1E 17 09 80 1D 48 80  23 93 02 80 01 3A 02 01  ......H.#....:..
0450: 28 06 02 00 10 1B 80 00  8B 04 03 00 00 1D 80 1A  (...............
0460: B6 0B 93 38 80 03 1F 17  38 80 3E 02 00 1D 80 79  ...8....8.>....y
0470: 04 03 1E 17 02 80 01 7E  04 03 1E 17 09 80 1D 48  .......~.......H
0480: 80 23 93 02 80 01 3A 02  01 28 06 02 00 10 1D 80  .#....:..(......
0490: 00 C4 04 03 00 00 1F 80  1A B6 0B 93 39 80 03 1F  ............9...
04A0: 17 39 80 3E 02 00 3A 80  B2 04 03 1E 17 02 80 01  .9.>..:.........
04B0: B7 04 03 1E 17 09 80 1D  48 80 23 93 02 80 01 3A  ........H.#....:
04C0: 02 01 28 06 02 00 10 1F  80 00 FD 04 03 00 00 21  ..(............!
04D0: 80 1A B6 0B 93 3B 80 03  1F 17 3B 80 3E 02 00 3C  .....;....;.>..<
04E0: 80 EB 04 03 1E 17 02 80  01 F0 04 03 1E 17 09 80  ................
04F0: 1D 48 80 23 93 02 80 01  3A 02 01 28 06 02 00 10  .H.#....:..(....
0500: 21 80 00 36 05 03 00 00  23 80 1A B6 0B 93 3D 80  !..6....#.....=.
0510: 03 1F 17 3D 80 3E 02 00  3E 80 24 05 03 1E 17 02  ...=.>..>.$.....
0520: 80 01 29 05 03 1E 17 09  80 1D 48 80 23 93 02 80  ..).......H.#...
0530: 01 3A 02 01 28 06 02 00  10 23 80 00 6F 05 03 00  .:..(....#..o...
0540: 00 25 80 1A B6 0B 93 3F  80 03 1F 17 3F 80 3E 02  .%.....?....?.>.
0550: 00 40 80 5D 05 03 1E 17  02 80 01 62 05 03 1E 17  .@.].......b....
0560: 09 80 1D 48 80 23 93 02  80 01 3A 02 01 28 06 02  ...H.#....:..(..
0570: 00 10 25 80 00 A8 05 03  00 00 3A 80 1A B6 0B 93  ..%.......:.....
0580: 41 80 03 1F 17 41 80 3E  02 00 42 80 96 05 03 1E  A....A.>..B.....
0590: 17 02 80 01 9B 05 03 1E  17 09 80 1D 48 80 23 93  ............H.#.
05A0: 02 80 01 3A 02 01 28 06  02 00 10 3A 80 00 E1 05  ...:..(....:....
05B0: 03 00 00 49 80 1A B6 0B  93 43 80 03 1F 17 43 80  ...I.....C....C.
05C0: 3E 02 00 44 80 CF 05 03  1E 17 02 80 01 D4 05 03  >..D............
05D0: 1E 17 09 80 1D 48 80 23  93 02 80 01 3A 02 01 28  .....H.#....:..(
05E0: 06 02 00 10 49 80 00 1A  06 03 00 00 3C 80 1A B6  ....I.......<...
05F0: 0B 93 45 80 03 1F 17 45  80 3E 02 00 46 80 08 06  ..E....E.>..F...
0600: 03 1E 17 02 80 01 0D 06  03 1E 17 09 80 1D 48 80  ..............H.
0610: 23 93 02 80 01 3A 02 01  28 06 02 00 10 3C 80 00  #....:..(....<..
0620: 28 06 01 25 02 01 28 06  01 F9 0A 02 00 10 09 80  (..%..(.........
0630: 00 29 0A 03 00 00 02 80  03 01 17 4A 80 3E 02 00  .).........J.>..
0640: 1F 80 4C 06 03 0D 17 09  80 01 51 06 03 0D 17 02  ..L.......Q.....
0650: 80 03 02 17 4B 80 3E 02  00 21 80 65 06 03 0E 17  ....K.>..!.e....
0660: 09 80 01 6A 06 03 0E 17  02 80 03 03 17 4C 80 3E  ...j.........L.>
0670: 02 00 23 80 7E 06 03 0F  17 09 80 01 83 06 03 0F  ..#.~...........
0680: 17 02 80 03 04 17 4D 80  3E 02 00 25 80 97 06 03  ......M.>..%....
0690: 10 17 09 80 01 9C 06 03  10 17 02 80 03 05 17 4E  ...............N
06A0: 80 3E 02 00 49 80 B0 06  03 11 17 09 80 01 B5 06  .>..I...........
06B0: 03 11 17 02 80 03 06 17  4F 80 3E 02 00 2F 80 C9  ........O.>../..
06C0: 06 03 12 17 09 80 01 CE  06 03 12 17 02 80 03 07  ................
06D0: 17 50 80 3E 02 00 51 80  E2 06 03 13 17 09 80 01  .P.>..Q.........
06E0: E7 06 03 13 17 02 80 03  08 17 52 80 3E 02 00 53  ..........R.>..S
06F0: 80 FB 06 03 14 17 09 80  01 00 07 03 14 17 02 80  ................
0700: 03 09 17 54 80 3E 02 00  55 80 14 07 03 15 17 09  ...T.>..U.......
0710: 80 01 19 07 03 15 17 02  80 03 0A 17 56 80 3E 02  ............V.>.
0720: 00 57 80 2D 07 03 16 17  09 80 01 32 07 03 16 17  .W.-.......2....
0730: 02 80 03 0B 17 58 80 3E  02 00 59 80 46 07 03 17  .....X.>..Y.F...
0740: 17 09 80 01 4B 07 03 17  17 02 80 03 0C 17 5A 80  ....K.........Z.
0750: 3E 02 00 5B 80 5F 07 03  18 17 09 80 01 64 07 03  >..[._.......d..
0760: 18 17 02 80 24 47 80 00  00 02 80 25 02 00 10 02  ....$G.....%....
0770: 80 00 A5 07 03 00 00 09  80 1A D7 0B 93 4A 80 03  .............J..
0780: 1F 17 4A 80 3E 02 00 1F  80 93 07 03 1E 17 02 80  ..J.>...........
0790: 01 98 07 03 1E 17 09 80  1D 48 80 23 93 02 80 01  .........H.#....
07A0: 38 06 01 26 0A 02 00 10  09 80 00 DE 07 03 00 00  8..&............
07B0: 17 80 1A D7 0B 93 4B 80  03 1F 17 4B 80 3E 02 00  ......K....K.>..
07C0: 21 80 CC 07 03 1E 17 02  80 01 D1 07 03 1E 17 09  !...............
07D0: 80 1D 48 80 23 93 02 80  01 38 06 01 26 0A 02 00  ..H.#....8..&...
07E0: 10 17 80 00 17 08 03 00  00 19 80 1A D7 0B 93 4C  ...............L
07F0: 80 03 1F 17 4C 80 3E 02  00 23 80 05 08 03 1E 17  ....L.>..#......
0800: 02 80 01 0A 08 03 1E 17  09 80 1D 48 80 23 93 02  ...........H.#..
0810: 80 01 38 06 01 26 0A 02  00 10 19 80 00 50 08 03  ..8..&.......P..
0820: 00 00 1B 80 1A D7 0B 93  4D 80 03 1F 17 4D 80 3E  ........M....M.>
0830: 02 00 25 80 3E 08 03 1E  17 02 80 01 43 08 03 1E  ..%.>.......C...
0840: 17 09 80 1D 48 80 23 93  02 80 01 38 06 01 26 0A  ....H.#....8..&.
0850: 02 00 10 1B 80 00 89 08  03 00 00 1D 80 1A D7 0B  ................
0860: 93 4E 80 03 1F 17 4E 80  3E 02 00 49 80 77 08 03  .N....N.>..I.w..
0870: 1E 17 02 80 01 7C 08 03  1E 17 09 80 1D 48 80 23  .....|.......H.#
0880: 93 02 80 01 38 06 01 26  0A 02 00 10 1D 80 00 C2  ....8..&........
0890: 08 03 00 00 1F 80 1A D7  0B 93 4F 80 03 1F 17 4F  ..........O....O
08A0: 80 3E 02 00 2F 80 B0 08  03 1E 17 02 80 01 B5 08  .>../...........
08B0: 03 1E 17 09 80 1D 48 80  23 93 02 80 01 38 06 01  ......H.#....8..
08C0: 26 0A 02 00 10 1F 80 00  FB 08 03 00 00 21 80 1A  &............!..
08D0: D7 0B 93 50 80 03 1F 17  50 80 3E 02 00 51 80 E9  ...P....P.>..Q..
08E0: 08 03 1E 17 02 80 01 EE  08 03 1E 17 09 80 1D 48  ...............H
08F0: 80 23 93 02 80 01 38 06  01 26 0A 02 00 10 21 80  .#....8..&....!.
0900: 00 34 09 03 00 00 23 80  1A D7 0B 93 52 80 03 1F  .4....#.....R...
0910: 17 52 80 3E 02 00 53 80  22 09 03 1E 17 02 80 01  .R.>..S.".......
0920: 27 09 03 1E 17 09 80 1D  48 80 23 93 02 80 01 38  '.......H.#....8
0930: 06 01 26 0A 02 00 10 23  80 00 6D 09 03 00 00 25  ..&....#..m....%
0940: 80 1A D7 0B 93 54 80 03  1F 17 54 80 3E 02 00 55  .....T....T.>..U
0950: 80 5B 09 03 1E 17 02 80  01 60 09 03 1E 17 09 80  .[.......`......
0960: 1D 48 80 23 93 02 80 01  38 06 01 26 0A 02 00 10  .H.#....8..&....
0970: 25 80 00 A6 09 03 00 00  3A 80 1A D7 0B 93 56 80  %.......:.....V.
0980: 03 1F 17 56 80 3E 02 00  57 80 94 09 03 1E 17 02  ...V.>..W.......
0990: 80 01 99 09 03 1E 17 09  80 1D 48 80 23 93 02 80  ..........H.#...
09A0: 01 38 06 01 26 0A 02 00  10 3A 80 00 DF 09 03 00  .8..&....:......
09B0: 00 49 80 1A D7 0B 93 58  80 03 1F 17 58 80 3E 02  .I.....X....X.>.
09C0: 00 59 80 CD 09 03 1E 17  02 80 01 D2 09 03 1E 17  .Y..............
09D0: 09 80 1D 48 80 23 93 02  80 01 38 06 01 26 0A 02  ...H.#....8..&..
09E0: 00 10 49 80 00 18 0A 03  00 00 3C 80 1A D7 0B 93  ..I.......<.....
09F0: 5A 80 03 1F 17 5A 80 3E  02 00 5B 80 06 0A 03 1E  Z....Z.>..[.....
0A00: 17 02 80 01 0B 0A 03 1E  17 09 80 1D 48 80 23 93  ............H.#.
0A10: 02 80 01 38 06 01 26 0A  02 00 10 3C 80 00 26 0A  ...8..&....<..&.
0A20: 01 25 02 01 26 0A 01 F9  0A 02 00 10 17 80 00 EB  .%..&...........
0A30: 0A 03 00 00 02 80 03 01  00 08 80 3D 01 00 02 80  ...........=....
0A40: 09 80 3D 01 00 3C 80 09  80 03 01 17 5C 80 03 02  ..=..<......\...
0A50: 17 09 80 03 03 17 09 80  03 04 17 09 80 03 05 17  ................
0A60: 09 80 03 06 17 09 80 03  07 17 09 80 03 08 17 09  ................
0A70: 80 03 09 17 09 80 03 0A  17 09 80 03 0B 17 09 80  ................
0A80: 03 0C 17 09 80 3E 02 00  5D 80 94 0A 03 0D 17 09  .....>..].......
0A90: 80 01 99 0A 03 0D 17 02  80 24 47 80 00 00 01 00  .........$G.....
0AA0: 25 02 00 10 02 80 00 DA  0A 03 00 00 09 80 1A F8  %...............
0AB0: 0B 93 5C 80 03 1F 17 5C  80 3E 02 00 5D 80 C8 0A  ..\....\.>..]...
0AC0: 03 1E 17 02 80 01 CD 0A  03 1E 17 09 80 1D 48 80  ..............H.
0AD0: 23 93 02 80 01 36 0A 01  E8 0A 02 00 10 3C 80 00  #....6.......<..
0AE0: E8 0A 01 25 02 01 E8 0A  01 F9 0A 02 00 10 19 80  ...%............
0AF0: 00 F9 0A 01 15 02 01 F9  0A 01 2C 0B 02 00 10 09  ..........,.....
0B00: 80 00 1E 0B 1D 5E 80 23  1D 5F 80 23 1D 60 80 23  .....^.#._.#.`.#
0B10: 1D 61 80 23 1D 62 80 23  01 15 02 01 2C 0B 02 00  .a.#.b.#....,...
0B20: 10 17 80 00 2C 0B 01 2F  00 01 2C 0B 01 B4 0B 02  ....,../..,.....
0B30: 00 10 17 80 00 45 0B 1D  63 80 23 1D 64 80 23 01  .....E..c.#.d.#.
0B40: 2F 00 01 B4 0B 02 00 10  19 80 00 5B 0B 1D 65 80  /..........[..e.
0B50: 23 1D 66 80 23 01 2F 00  01 B4 0B 02 00 10 1B 80  #.f.#./.........
0B60: 00 A5 0B 1D 67 80 23 1D  68 80 23 1D 69 80 23 1D  ....g.#.h.#.i.#.
0B70: 6A 80 23 1D 6B 80 23 1D  6C 80 23 1D 6D 80 23 1D  j.#.k.#.l.#.m.#.
0B80: 6E 80 23 1D 6F 80 23 1D  70 80 23 1D 71 80 23 1D  n.#.o.#.p.#.q.#.
0B90: 72 80 23 1D 73 80 23 1D  74 80 23 1D 75 80 23 01  r.#.s.#.t.#.u.#.
0BA0: 2F 00 01 B4 0B 02 00 10  1D 80 00 B4 0B 1D 76 80  /.............v.
0BB0: 23 01 B4 0B 21 00 40 02  80 19 80 01 10 19 80 40  #...!.@........@
0BC0: 3E 80 57 80 01 10 00 00  43 00 43 01 03 02 00 08  >.W.....C.C.....
0BD0: 10 03 00 00 00 10 1B 40  02 80 19 80 01 10 1B 80  .......@........
0BE0: 40 3E 80 57 80 01 10 00  00 43 00 43 01 03 02 00  @>.W.....C.C....
0BF0: 08 10 03 00 00 00 10 1B  40 02 80 19 80 01 10 1D  ........@.......
0C00: 80 40 3E 80 57 80 01 10  00 00 43 00 43 01 03 02  .@>.W.....C.C...
0C10: 00 08 10 03 00 00 00 10  1B                       .........       
```

#### Opcodes

```
  0: 0x0010 [0x03] Work_Zone[1] = 0*
  1: 0x0015 [0x03] ExtData[1]->WorkLocal[2] = Work_Zone[8]
  2: 0x001A [0x1E] EventEntity looks at LocalPlayer and starts talking
  3: 0x001F [0x1D] PRINT_EVENT_MESSAGE(message_id=12883*)
    → "This is the reception counter for Assault missions within the Nyzul Isle remnants."
  4: 0x0022 [0x23] WAIT_FOR_DIALOG_INTERACTION
  5: 0x0023 [0x1D] PRINT_EVENT_MESSAGE(message_id=12884*)
    → "However, Nyzul Isle has yet to be recognized as an official Assault area by the Imperial army."
  6: 0x0026 [0x23] WAIT_FOR_DIALOG_INTERACTION
  7: 0x0027 [0x1D] PRINT_EVENT_MESSAGE(message_id=12885*)
    → "As a result, missions completed on Nyzul Isle will not earn you Assault Points. Please be aware of this fact before signing up."
  8: 0x002A [0x23] WAIT_FOR_DIALOG_INTERACTION
  9: 0x002B [0x1D] PRINT_EVENT_MESSAGE(message_id=12385*)
    → "How may I help you today?"
 10: 0x002E [0x23] WAIT_FOR_DIALOG_INTERACTION
 11: 0x002F [0x24] CREATE_DIALOG(message_id=12886*, default_option=0*, option_flags=0*)
    → "How may I help you? [View mission list./Vending box explanation./Confirm tokens./Confirm completed floors./Mission list explanation./I'm fine, thanks.]"
 12: 0x0036 [0x25] WAIT_DIALOG_SELECT()
 13: 0x0037 [0x02] IF !(Work_Zone[0] == 0*) GOTO 0x0209
 14: 0x003F [0x1D] PRINT_EVENT_MESSAGE(message_id=12387*)
    → "Here is the list of available Assault missions."
 15: 0x0042 [0x23] WAIT_FOR_DIALOG_INTERACTION
 16: 0x0043 [0x03] ExtData[1]->WorkLocal[1] = 4294967295*
 17: 0x0048 [0x3D] CLEAR_BIT_FLAG_CONDITIONAL(target_work_offset=ExtData[1]->WorkLocal[1], bit_index_work_offset=0*, condition_work_offset=1*)
 18: 0x004F [0x3D] CLEAR_BIT_FLAG_CONDITIONAL(target_work_offset=ExtData[1]->WorkLocal[1], bit_index_work_offset=1*, condition_work_offset=1*)
 19: 0x0056 [0x03] Work_Zone_1700[2] = 51*
 20: 0x005B [0x03] Work_Zone_1700[3] = 52*
 21: 0x0060 [0x03] Work_Zone_1700[4] = 53*
 22: 0x0065 [0x03] Work_Zone_1700[5] = 54*
 23: 0x006A [0x03] Work_Zone_1700[6] = 55*
 24: 0x006F [0x03] Work_Zone_1700[7] = 56*
 25: 0x0074 [0x03] Work_Zone_1700[8] = 57*
 26: 0x0079 [0x03] Work_Zone_1700[9] = 58*
 27: 0x007E [0x03] Work_Zone_1700[10] = 59*
 28: 0x0083 [0x03] Work_Zone_1700[11] = 60*
 29: 0x0088 [0x24] CREATE_DIALOG(message_id=12388*, default_option=0*, option_flags=ExtData[1]->WorkLocal[1])
    → "View a mission. [$10./$11./$12./$13./$14./$15./$16./$17./$18./$19.]"
 30: 0x008F [0x25] WAIT_DIALOG_SELECT()
 31: 0x0090 [0x02] IF !(Work_Zone[0] == 0*) GOTO 0x00A4
 32: 0x0098 [0x48] [System] [12439*]:
    → "Nyzul Isle Investigation Objective: Complete on-site objectives Recruitment: Lv.75, 1-6 mercenaries"
 33: 0x009B [0x23] WAIT_FOR_DIALOG_INTERACTION
 34: 0x009C [0x03] Work_Zone_1700[1] = Work_Zone_1700[2]
 35: 0x00A1 [0x01] GOTO 0x0158
 36: 0x00A4 [0x02] IF !(Work_Zone[0] == 1*) GOTO 0x00B8
 37: 0x00AC [0x48] [System] [12440*]:
    → "Nyzul Isle Uncharted Area Survey Objective: Complete on-site objectives Recruitment: Lv.99, 1-6 mercenaries"
 38: 0x00AF [0x23] WAIT_FOR_DIALOG_INTERACTION
 39: 0x00B0 [0x03] Work_Zone_1700[1] = Work_Zone_1700[3]
 40: 0x00B5 [0x01] GOTO 0x0158
 41: 0x00B8 [0x02] IF !(Work_Zone[0] == 2*) GOTO 0x00CC
 42: 0x00C0 [0x48] [System] [12441*]:
    → ""
 43: 0x00C3 [0x23] WAIT_FOR_DIALOG_INTERACTION
 44: 0x00C4 [0x03] Work_Zone_1700[1] = Work_Zone_1700[4]
 45: 0x00C9 [0x01] GOTO 0x0158
 46: 0x00CC [0x02] IF !(Work_Zone[0] == 3*) GOTO 0x00E0
 47: 0x00D4 [0x48] [System] [12442*]:
    → ""
 48: 0x00D7 [0x23] WAIT_FOR_DIALOG_INTERACTION
 49: 0x00D8 [0x03] Work_Zone_1700[1] = Work_Zone_1700[5]
 50: 0x00DD [0x01] GOTO 0x0158
 51: 0x00E0 [0x02] IF !(Work_Zone[0] == 4*) GOTO 0x00F4
 52: 0x00E8 [0x48] [System] [12443*]:
    → ""
 53: 0x00EB [0x23] WAIT_FOR_DIALOG_INTERACTION
 54: 0x00EC [0x03] Work_Zone_1700[1] = Work_Zone_1700[6]
 55: 0x00F1 [0x01] GOTO 0x0158
 56: 0x00F4 [0x02] IF !(Work_Zone[0] == 5*) GOTO 0x0108
 57: 0x00FC [0x48] [System] [12444*]:
    → ""
 58: 0x00FF [0x23] WAIT_FOR_DIALOG_INTERACTION
 59: 0x0100 [0x03] Work_Zone_1700[1] = Work_Zone_1700[7]
 60: 0x0105 [0x01] GOTO 0x0158
 61: 0x0108 [0x02] IF !(Work_Zone[0] == 6*) GOTO 0x011C
 62: 0x0110 [0x48] [System] [12445*]:
    → ""
 63: 0x0113 [0x23] WAIT_FOR_DIALOG_INTERACTION
 64: 0x0114 [0x03] Work_Zone_1700[1] = Work_Zone_1700[8]
 65: 0x0119 [0x01] GOTO 0x0158
 66: 0x011C [0x02] IF !(Work_Zone[0] == 7*) GOTO 0x0130
 67: 0x0124 [0x48] [System] [12446*]:
    → ""
 68: 0x0127 [0x23] WAIT_FOR_DIALOG_INTERACTION
 69: 0x0128 [0x03] Work_Zone_1700[1] = Work_Zone_1700[9]
 70: 0x012D [0x01] GOTO 0x0158
 71: 0x0130 [0x02] IF !(Work_Zone[0] == 8*) GOTO 0x0144
 72: 0x0138 [0x48] [System] [12447*]:
    → ""
 73: 0x013B [0x23] WAIT_FOR_DIALOG_INTERACTION
 74: 0x013C [0x03] Work_Zone_1700[1] = Work_Zone_1700[10]
 75: 0x0141 [0x01] GOTO 0x0158
 76: 0x0144 [0x02] IF !(Work_Zone[0] == 9*) GOTO 0x0158
 77: 0x014C [0x48] [System] [12448*]:
    → ""
 78: 0x014F [0x23] WAIT_FOR_DIALOG_INTERACTION
 79: 0x0150 [0x03] Work_Zone_1700[1] = Work_Zone_1700[11]
 80: 0x0155 [0x01] GOTO 0x0158

SUBROUTINE_0158:
 81: 0x0158 [0x03] ExtData[1]->WorkLocal[0] = Work_Zone[0]
 82: 0x015D [0x0B] ExtData[1]->WorkLocal[0]++
 83: 0x0160 [0x24] CREATE_DIALOG(message_id=12450*, default_option=1*, option_flags=0*)
    → "Sign up for this mission? [Yes./Return to list.]"
 84: 0x0167 [0x25] WAIT_DIALOG_SELECT()
 85: 0x0168 [0x02] IF !(Work_Zone[0] == 0*) GOTO 0x01F8
 86: 0x0170 [0x02] IF !(Work_Zone[5] == 0*) GOTO 0x017F
 87: 0x0178 [0x1D] PRINT_EVENT_MESSAGE(message_id=12453*)
    → "I'm sorry, but you cannot sign up for a new Assault mission until you have completed your current mission, or canceled your Assault application at the main counter."
 88: 0x017B [0x23] WAIT_FOR_DIALOG_INTERACTION
 89: 0x017C [0x01] GOTO 0x01F5
 90: 0x017F [0x02] IF !(Work_Zone[3] == 0*) GOTO 0x0193
 91: 0x0187 [0x03] Work_Zone_1700[0] = 787*
 92: 0x018C [0x1D] PRINT_EVENT_MESSAGE(message_id=12451*)
    → "I'm sorry, but you cannot sign up for Assault missions without $6."
 93: 0x018F [0x23] WAIT_FOR_DIALOG_INTERACTION
 94: 0x0190 [0x01] GOTO 0x01F5
 95: 0x0193 [0x02] IF !(LocalPlayer->JobLevel >= 50*) GOTO 0x01A2
 96: 0x019B [0x1D] PRINT_EVENT_MESSAGE(message_id=12452*)
    → "I'm sorry, but only mercenaries of level 50 or above can sign up for Assault missions."
 97: 0x019E [0x23] WAIT_FOR_DIALOG_INTERACTION
 98: 0x019F [0x01] GOTO 0x01F5
 99: 0x01A2 [0x02] IF !(Work_Zone_1700[1] == 52*) GOTO 0x01C8
100: 0x01AA [0x42] SET_CLI_EVENT_CANCEL_DATA()
101: 0x01AB [0x1D] PRINT_EVENT_MESSAGE(message_id=12454*)
    → "You have signed up for $9."
102: 0x01AE [0x23] WAIT_FOR_DIALOG_INTERACTION
103: 0x01AF [0x1D] PRINT_EVENT_MESSAGE(message_id=12455*)
    → "Please make your way to the staging point and have a member of your party receive command verification from an Immortal. Good luck."
104: 0x01B2 [0x23] WAIT_FOR_DIALOG_INTERACTION
105: 0x01B3 [0x40] SET_BIT_WORK_RANGE(start_bit=0*, end_bit=3*, target=Work_Zone[1], source=1*)
106: 0x01BC [0x40] SET_BIT_WORK_RANGE(start_bit=4*, end_bit=13*, target=Work_Zone[1], source=Work_Zone_1700[1])
107: 0x01C5 [0x01] GOTO 0x01F5
108: 0x01C8 [0x83] ExtData[1]->WorkLocal[0] = GetGameTime()
109: 0x01CB [0x02] IF !(ExtData[1]->WorkLocal[0] >= Work_Zone[9]) GOTO 0x01DA
110: 0x01D3 [0x1D] PRINT_EVENT_MESSAGE(message_id=12911*)
    → "Though your enthusiasm is admirable, I fear we cannot accept your application for $9 until (Earth time). We await your return."
111: 0x01D6 [0x23] WAIT_FOR_DIALOG_INTERACTION
112: 0x01D7 [0x01] GOTO 0x01F5
113: 0x01DA [0x42] SET_CLI_EVENT_CANCEL_DATA()
114: 0x01DB [0x1D] PRINT_EVENT_MESSAGE(message_id=12454*)
    → "You have signed up for $9."
115: 0x01DE [0x23] WAIT_FOR_DIALOG_INTERACTION
116: 0x01DF [0x1D] PRINT_EVENT_MESSAGE(message_id=12455*)
    → "Please make your way to the staging point and have a member of your party receive command verification from an Immortal. Good luck."
117: 0x01E2 [0x23] WAIT_FOR_DIALOG_INTERACTION
118: 0x01E3 [0x40] SET_BIT_WORK_RANGE(start_bit=0*, end_bit=3*, target=Work_Zone[1], source=1*)
119: 0x01EC [0x40] SET_BIT_WORK_RANGE(start_bit=4*, end_bit=13*, target=Work_Zone[1], source=Work_Zone_1700[1])

SUBROUTINE_01F5:
120: 0x01F5 [0x01] GOTO 0x0206
121: 0x01F8 [0x02] IF !(Work_Zone[0] == 1*) GOTO 0x0206
122: 0x0200 [0x01] GOTO 0x0056

SUBROUTINE_0206:
123: 0x0206 [0x01] GOTO 0x0BB4
124: 0x0209 [0x02] IF !(Work_Zone[0] == 1*) GOTO 0x0B2F
125: 0x0211 [0x1D] PRINT_EVENT_MESSAGE(message_id=12901*)
    → "Vending boxes, you say? How may I help you?"
126: 0x0214 [0x23] WAIT_FOR_DIALOG_INTERACTION

SUBROUTINE_0215:
127: 0x0215 [0x24] CREATE_DIALOG(message_id=12902*, default_option=0*, option_flags=0*)
    → "How may I help you? [Set preferences./Vending box overview./Never mind.]"
128: 0x021C [0x25] WAIT_DIALOG_SELECT()
129: 0x021D [0x02] IF !(Work_Zone[0] == 0*) GOTO 0x0AFC

SUBROUTINE_0225:
130: 0x0225 [0x24] CREATE_DIALOG(message_id=12908*, default_option=0*, option_flags=0*)
    → "Select a category. [Low-grade items./Medium-grade items./High-grade items./Exit.]"
131: 0x022C [0x25] WAIT_DIALOG_SELECT()
132: 0x022D [0x02] IF !(Work_Zone[0] == 0*) GOTO 0x062B
133: 0x0235 [0x03] ExtData[1]->WorkLocal[0] = 0*

SUBROUTINE_023A:
134: 0x023A [0x03] Work_Zone_1700[1] = 5385*
135: 0x023F [0x3E] IF !(ExtData[1]->WorkLocal[2] bit 1*) GOTO 0x024E
136: 0x0246 [0x03] Work_Zone_1700[13] = 1*
137: 0x024B [0x01] GOTO 0x0253
138: 0x024E [0x03] Work_Zone_1700[13] = 0*

SUBROUTINE_0253:
139: 0x0253 [0x03] Work_Zone_1700[2] = 5386*
140: 0x0258 [0x3E] IF !(ExtData[1]->WorkLocal[2] bit 2*) GOTO 0x0267
141: 0x025F [0x03] Work_Zone_1700[14] = 1*
142: 0x0264 [0x01] GOTO 0x026C
143: 0x0267 [0x03] Work_Zone_1700[14] = 0*

SUBROUTINE_026C:
144: 0x026C [0x03] Work_Zone_1700[3] = 5387*
145: 0x0271 [0x3E] IF !(ExtData[1]->WorkLocal[2] bit 3*) GOTO 0x0280
146: 0x0278 [0x03] Work_Zone_1700[15] = 1*
147: 0x027D [0x01] GOTO 0x0285
148: 0x0280 [0x03] Work_Zone_1700[15] = 0*

SUBROUTINE_0285:
149: 0x0285 [0x03] Work_Zone_1700[4] = 5388*
150: 0x028A [0x3E] IF !(ExtData[1]->WorkLocal[2] bit 4*) GOTO 0x0299
151: 0x0291 [0x03] Work_Zone_1700[16] = 1*
152: 0x0296 [0x01] GOTO 0x029E
153: 0x0299 [0x03] Work_Zone_1700[16] = 0*

SUBROUTINE_029E:
154: 0x029E [0x03] Work_Zone_1700[5] = 5389*
155: 0x02A3 [0x3E] IF !(ExtData[1]->WorkLocal[2] bit 5*) GOTO 0x02B2
156: 0x02AA [0x03] Work_Zone_1700[17] = 1*
157: 0x02AF [0x01] GOTO 0x02B7
158: 0x02B2 [0x03] Work_Zone_1700[17] = 0*

SUBROUTINE_02B7:
159: 0x02B7 [0x03] Work_Zone_1700[6] = 5394*
160: 0x02BC [0x3E] IF !(ExtData[1]->WorkLocal[2] bit 10*) GOTO 0x02CB
161: 0x02C3 [0x03] Work_Zone_1700[18] = 1*
162: 0x02C8 [0x01] GOTO 0x02D0
163: 0x02CB [0x03] Work_Zone_1700[18] = 0*

SUBROUTINE_02D0:
164: 0x02D0 [0x03] Work_Zone_1700[7] = 5396*
165: 0x02D5 [0x3E] IF !(ExtData[1]->WorkLocal[2] bit 12*) GOTO 0x02E4
166: 0x02DC [0x03] Work_Zone_1700[19] = 1*
167: 0x02E1 [0x01] GOTO 0x02E9
168: 0x02E4 [0x03] Work_Zone_1700[19] = 0*

SUBROUTINE_02E9:
169: 0x02E9 [0x03] Work_Zone_1700[8] = 5436*
170: 0x02EE [0x3E] IF !(ExtData[1]->WorkLocal[2] bit 18*) GOTO 0x02FD
171: 0x02F5 [0x03] Work_Zone_1700[20] = 1*
172: 0x02FA [0x01] GOTO 0x0302
173: 0x02FD [0x03] Work_Zone_1700[20] = 0*

SUBROUTINE_0302:
174: 0x0302 [0x03] Work_Zone_1700[9] = 5437*
175: 0x0307 [0x3E] IF !(ExtData[1]->WorkLocal[2] bit 19*) GOTO 0x0316
176: 0x030E [0x03] Work_Zone_1700[21] = 1*
177: 0x0313 [0x01] GOTO 0x031B
178: 0x0316 [0x03] Work_Zone_1700[21] = 0*

SUBROUTINE_031B:
179: 0x031B [0x03] Work_Zone_1700[10] = 5438*
180: 0x0320 [0x3E] IF !(ExtData[1]->WorkLocal[2] bit 20*) GOTO 0x032F
181: 0x0327 [0x03] Work_Zone_1700[22] = 1*
182: 0x032C [0x01] GOTO 0x0334
183: 0x032F [0x03] Work_Zone_1700[22] = 0*

SUBROUTINE_0334:
184: 0x0334 [0x03] Work_Zone_1700[11] = 5439*
185: 0x0339 [0x3E] IF !(ExtData[1]->WorkLocal[2] bit 21*) GOTO 0x0348
186: 0x0340 [0x03] Work_Zone_1700[23] = 1*
187: 0x0345 [0x01] GOTO 0x034D
188: 0x0348 [0x03] Work_Zone_1700[23] = 0*

SUBROUTINE_034D:
189: 0x034D [0x03] Work_Zone_1700[12] = 5397*
190: 0x0352 [0x3E] IF !(ExtData[1]->WorkLocal[2] bit 26*) GOTO 0x0361
191: 0x0359 [0x03] Work_Zone_1700[24] = 1*
192: 0x035E [0x01] GOTO 0x0366
193: 0x0361 [0x03] Work_Zone_1700[24] = 0*

SUBROUTINE_0366:
194: 0x0366 [0x24] CREATE_DIALOG(message_id=12909*, default_option=ExtData[1]->WorkLocal[0], option_flags=0*)
    → "Set your preferences. [$9: [o*/o)]/$10: [o*/o)]/$11: [o*/o)]/$12: [o*/o)]/$13: [o*/o)]/$14: [o*/o)]/$15: [o*/o)]/$16: [o*/o)]/$17: [o*/o)]/$18: [o*/o)]/$19: [o*/o)]/$20: [o*/o)]/Select another category.]"
195: 0x036D [0x25] WAIT_DIALOG_SELECT()
196: 0x036E [0x02] IF !(Work_Zone[0] == 0*) GOTO 0x03A7
197: 0x0376 [0x03] ExtData[1]->WorkLocal[0] = 1*
198: 0x037B [0x1A] CALL_SUBROUTINE(address=0x0BB6)
199: 0x037E [0x93] DISPLAY_ITEM_INFO(item_id=5385*)
200: 0x0381 [0x03] Work_Zone_1700[31] = 5385*
201: 0x0386 [0x3E] IF !(ExtData[1]->WorkLocal[2] bit 1*) GOTO 0x0395
202: 0x038D [0x03] Work_Zone_1700[30] = 0*
203: 0x0392 [0x01] GOTO 0x039A
204: 0x0395 [0x03] Work_Zone_1700[30] = 1*

SUBROUTINE_039A:
205: 0x039A [0x1D] PRINT_EVENT_MESSAGE(message_id=12910*)
    → "The following item has been &[added to/removed from] your list of preferences: $39."
206: 0x039D [0x23] WAIT_FOR_DIALOG_INTERACTION
207: 0x039E [0x93] DISPLAY_ITEM_INFO(item_id=0*)
208: 0x03A1 [0x01] GOTO 0x023A

SUBROUTINE_03D3:
209: 0x03D3 [0x1D] PRINT_EVENT_MESSAGE(message_id=12910*)
    → "The following item has been &[added to/removed from] your list of preferences: $39."
210: 0x03D6 [0x23] WAIT_FOR_DIALOG_INTERACTION
211: 0x03D7 [0x93] DISPLAY_ITEM_INFO(item_id=0*)
212: 0x03DA [0x01] GOTO 0x023A

SUBROUTINE_040C:
213: 0x040C [0x1D] PRINT_EVENT_MESSAGE(message_id=12910*)
    → "The following item has been &[added to/removed from] your list of preferences: $39."
214: 0x040F [0x23] WAIT_FOR_DIALOG_INTERACTION
215: 0x0410 [0x93] DISPLAY_ITEM_INFO(item_id=0*)
216: 0x0413 [0x01] GOTO 0x023A

SUBROUTINE_0445:
217: 0x0445 [0x1D] PRINT_EVENT_MESSAGE(message_id=12910*)
    → "The following item has been &[added to/removed from] your list of preferences: $39."
218: 0x0448 [0x23] WAIT_FOR_DIALOG_INTERACTION
219: 0x0449 [0x93] DISPLAY_ITEM_INFO(item_id=0*)
220: 0x044C [0x01] GOTO 0x023A

SUBROUTINE_047E:
221: 0x047E [0x1D] PRINT_EVENT_MESSAGE(message_id=12910*)
    → "The following item has been &[added to/removed from] your list of preferences: $39."
222: 0x0481 [0x23] WAIT_FOR_DIALOG_INTERACTION
223: 0x0482 [0x93] DISPLAY_ITEM_INFO(item_id=0*)
224: 0x0485 [0x01] GOTO 0x023A

SUBROUTINE_04B7:
225: 0x04B7 [0x1D] PRINT_EVENT_MESSAGE(message_id=12910*)
    → "The following item has been &[added to/removed from] your list of preferences: $39."
226: 0x04BA [0x23] WAIT_FOR_DIALOG_INTERACTION
227: 0x04BB [0x93] DISPLAY_ITEM_INFO(item_id=0*)
228: 0x04BE [0x01] GOTO 0x023A

SUBROUTINE_04F0:
229: 0x04F0 [0x1D] PRINT_EVENT_MESSAGE(message_id=12910*)
    → "The following item has been &[added to/removed from] your list of preferences: $39."
230: 0x04F3 [0x23] WAIT_FOR_DIALOG_INTERACTION
231: 0x04F4 [0x93] DISPLAY_ITEM_INFO(item_id=0*)
232: 0x04F7 [0x01] GOTO 0x023A

SUBROUTINE_0529:
233: 0x0529 [0x1D] PRINT_EVENT_MESSAGE(message_id=12910*)
    → "The following item has been &[added to/removed from] your list of preferences: $39."
234: 0x052C [0x23] WAIT_FOR_DIALOG_INTERACTION
235: 0x052D [0x93] DISPLAY_ITEM_INFO(item_id=0*)
236: 0x0530 [0x01] GOTO 0x023A

SUBROUTINE_0562:
237: 0x0562 [0x1D] PRINT_EVENT_MESSAGE(message_id=12910*)
    → "The following item has been &[added to/removed from] your list of preferences: $39."
238: 0x0565 [0x23] WAIT_FOR_DIALOG_INTERACTION
239: 0x0566 [0x93] DISPLAY_ITEM_INFO(item_id=0*)
240: 0x0569 [0x01] GOTO 0x023A

SUBROUTINE_059B:
241: 0x059B [0x1D] PRINT_EVENT_MESSAGE(message_id=12910*)
    → "The following item has been &[added to/removed from] your list of preferences: $39."
242: 0x059E [0x23] WAIT_FOR_DIALOG_INTERACTION
243: 0x059F [0x93] DISPLAY_ITEM_INFO(item_id=0*)
244: 0x05A2 [0x01] GOTO 0x023A

SUBROUTINE_05D4:
245: 0x05D4 [0x1D] PRINT_EVENT_MESSAGE(message_id=12910*)
    → "The following item has been &[added to/removed from] your list of preferences: $39."
246: 0x05D7 [0x23] WAIT_FOR_DIALOG_INTERACTION
247: 0x05D8 [0x93] DISPLAY_ITEM_INFO(item_id=0*)
248: 0x05DB [0x01] GOTO 0x023A

SUBROUTINE_060D:
249: 0x060D [0x1D] PRINT_EVENT_MESSAGE(message_id=12910*)
    → "The following item has been &[added to/removed from] your list of preferences: $39."
250: 0x0610 [0x23] WAIT_FOR_DIALOG_INTERACTION
251: 0x0611 [0x93] DISPLAY_ITEM_INFO(item_id=0*)
252: 0x0614 [0x01] GOTO 0x023A

SUBROUTINE_0628:
253: 0x0628 [0x01] GOTO 0x0AF9
254: 0x062B [0x02] IF !(Work_Zone[0] == 1*) GOTO 0x0A29
255: 0x0633 [0x03] ExtData[1]->WorkLocal[0] = 0*

SUBROUTINE_0638:
256: 0x0638 [0x03] Work_Zone_1700[1] = 5390*
257: 0x063D [0x3E] IF !(ExtData[1]->WorkLocal[2] bit 6*) GOTO 0x064C
258: 0x0644 [0x03] Work_Zone_1700[13] = 1*
259: 0x0649 [0x01] GOTO 0x0651
260: 0x064C [0x03] Work_Zone_1700[13] = 0*

SUBROUTINE_0651:
261: 0x0651 [0x03] Work_Zone_1700[2] = 5391*
262: 0x0656 [0x3E] IF !(ExtData[1]->WorkLocal[2] bit 7*) GOTO 0x0665
263: 0x065D [0x03] Work_Zone_1700[14] = 1*
264: 0x0662 [0x01] GOTO 0x066A
265: 0x0665 [0x03] Work_Zone_1700[14] = 0*

SUBROUTINE_066A:
266: 0x066A [0x03] Work_Zone_1700[3] = 5392*
267: 0x066F [0x3E] IF !(ExtData[1]->WorkLocal[2] bit 8*) GOTO 0x067E
268: 0x0676 [0x03] Work_Zone_1700[15] = 1*
269: 0x067B [0x01] GOTO 0x0683
270: 0x067E [0x03] Work_Zone_1700[15] = 0*

SUBROUTINE_0683:
271: 0x0683 [0x03] Work_Zone_1700[4] = 5393*
272: 0x0688 [0x3E] IF !(ExtData[1]->WorkLocal[2] bit 9*) GOTO 0x0697
273: 0x068F [0x03] Work_Zone_1700[16] = 1*
274: 0x0694 [0x01] GOTO 0x069C
275: 0x0697 [0x03] Work_Zone_1700[16] = 0*

SUBROUTINE_069C:
276: 0x069C [0x03] Work_Zone_1700[5] = 5395*
277: 0x06A1 [0x3E] IF !(ExtData[1]->WorkLocal[2] bit 11*) GOTO 0x06B0
278: 0x06A8 [0x03] Work_Zone_1700[17] = 1*
279: 0x06AD [0x01] GOTO 0x06B5
280: 0x06B0 [0x03] Work_Zone_1700[17] = 0*

SUBROUTINE_06B5:
281: 0x06B5 [0x03] Work_Zone_1700[6] = 5431*
282: 0x06BA [0x3E] IF !(ExtData[1]->WorkLocal[2] bit 13*) GOTO 0x06C9
283: 0x06C1 [0x03] Work_Zone_1700[18] = 1*
284: 0x06C6 [0x01] GOTO 0x06CE
285: 0x06C9 [0x03] Work_Zone_1700[18] = 0*

SUBROUTINE_06CE:
286: 0x06CE [0x03] Work_Zone_1700[7] = 5432*
287: 0x06D3 [0x3E] IF !(ExtData[1]->WorkLocal[2] bit 14*) GOTO 0x06E2
288: 0x06DA [0x03] Work_Zone_1700[19] = 1*
289: 0x06DF [0x01] GOTO 0x06E7
290: 0x06E2 [0x03] Work_Zone_1700[19] = 0*

SUBROUTINE_06E7:
291: 0x06E7 [0x03] Work_Zone_1700[8] = 5434*
292: 0x06EC [0x3E] IF !(ExtData[1]->WorkLocal[2] bit 16*) GOTO 0x06FB
293: 0x06F3 [0x03] Work_Zone_1700[20] = 1*
294: 0x06F8 [0x01] GOTO 0x0700
295: 0x06FB [0x03] Work_Zone_1700[20] = 0*

SUBROUTINE_0700:
296: 0x0700 [0x03] Work_Zone_1700[9] = 5435*
297: 0x0705 [0x3E] IF !(ExtData[1]->WorkLocal[2] bit 17*) GOTO 0x0714
298: 0x070C [0x03] Work_Zone_1700[21] = 1*
299: 0x0711 [0x01] GOTO 0x0719
300: 0x0714 [0x03] Work_Zone_1700[21] = 0*

SUBROUTINE_0719:
301: 0x0719 [0x03] Work_Zone_1700[10] = 5440*
302: 0x071E [0x3E] IF !(ExtData[1]->WorkLocal[2] bit 22*) GOTO 0x072D
303: 0x0725 [0x03] Work_Zone_1700[22] = 1*
304: 0x072A [0x01] GOTO 0x0732
305: 0x072D [0x03] Work_Zone_1700[22] = 0*

SUBROUTINE_0732:
306: 0x0732 [0x03] Work_Zone_1700[11] = 4147*
307: 0x0737 [0x3E] IF !(ExtData[1]->WorkLocal[2] bit 23*) GOTO 0x0746
308: 0x073E [0x03] Work_Zone_1700[23] = 1*
309: 0x0743 [0x01] GOTO 0x074B
310: 0x0746 [0x03] Work_Zone_1700[23] = 0*

SUBROUTINE_074B:
311: 0x074B [0x03] Work_Zone_1700[12] = 4200*
312: 0x0750 [0x3E] IF !(ExtData[1]->WorkLocal[2] bit 24*) GOTO 0x075F
313: 0x0757 [0x03] Work_Zone_1700[24] = 1*
314: 0x075C [0x01] GOTO 0x0764
315: 0x075F [0x03] Work_Zone_1700[24] = 0*

SUBROUTINE_0764:
316: 0x0764 [0x24] CREATE_DIALOG(message_id=12909*, default_option=ExtData[1]->WorkLocal[0], option_flags=0*)
    → "Set your preferences. [$9: [o*/o)]/$10: [o*/o)]/$11: [o*/o)]/$12: [o*/o)]/$13: [o*/o)]/$14: [o*/o)]/$15: [o*/o)]/$16: [o*/o)]/$17: [o*/o)]/$18: [o*/o)]/$19: [o*/o)]/$20: [o*/o)]/Select another category.]"
317: 0x076B [0x25] WAIT_DIALOG_SELECT()
318: 0x076C [0x02] IF !(Work_Zone[0] == 0*) GOTO 0x07A5
319: 0x0774 [0x03] ExtData[1]->WorkLocal[0] = 1*
320: 0x0779 [0x1A] CALL_SUBROUTINE(address=0x0BD7)
321: 0x077C [0x93] DISPLAY_ITEM_INFO(item_id=5390*)
322: 0x077F [0x03] Work_Zone_1700[31] = 5390*
323: 0x0784 [0x3E] IF !(ExtData[1]->WorkLocal[2] bit 6*) GOTO 0x0793
324: 0x078B [0x03] Work_Zone_1700[30] = 0*
325: 0x0790 [0x01] GOTO 0x0798
326: 0x0793 [0x03] Work_Zone_1700[30] = 1*

SUBROUTINE_0798:
327: 0x0798 [0x1D] PRINT_EVENT_MESSAGE(message_id=12910*)
    → "The following item has been &[added to/removed from] your list of preferences: $39."
328: 0x079B [0x23] WAIT_FOR_DIALOG_INTERACTION
329: 0x079C [0x93] DISPLAY_ITEM_INFO(item_id=0*)
330: 0x079F [0x01] GOTO 0x0638

SUBROUTINE_07D1:
331: 0x07D1 [0x1D] PRINT_EVENT_MESSAGE(message_id=12910*)
    → "The following item has been &[added to/removed from] your list of preferences: $39."
332: 0x07D4 [0x23] WAIT_FOR_DIALOG_INTERACTION
333: 0x07D5 [0x93] DISPLAY_ITEM_INFO(item_id=0*)
334: 0x07D8 [0x01] GOTO 0x0638

SUBROUTINE_080A:
335: 0x080A [0x1D] PRINT_EVENT_MESSAGE(message_id=12910*)
    → "The following item has been &[added to/removed from] your list of preferences: $39."
336: 0x080D [0x23] WAIT_FOR_DIALOG_INTERACTION
337: 0x080E [0x93] DISPLAY_ITEM_INFO(item_id=0*)
338: 0x0811 [0x01] GOTO 0x0638

SUBROUTINE_0843:
339: 0x0843 [0x1D] PRINT_EVENT_MESSAGE(message_id=12910*)
    → "The following item has been &[added to/removed from] your list of preferences: $39."
340: 0x0846 [0x23] WAIT_FOR_DIALOG_INTERACTION
341: 0x0847 [0x93] DISPLAY_ITEM_INFO(item_id=0*)
342: 0x084A [0x01] GOTO 0x0638

SUBROUTINE_087C:
343: 0x087C [0x1D] PRINT_EVENT_MESSAGE(message_id=12910*)
    → "The following item has been &[added to/removed from] your list of preferences: $39."
344: 0x087F [0x23] WAIT_FOR_DIALOG_INTERACTION
345: 0x0880 [0x93] DISPLAY_ITEM_INFO(item_id=0*)
346: 0x0883 [0x01] GOTO 0x0638

SUBROUTINE_08B5:
347: 0x08B5 [0x1D] PRINT_EVENT_MESSAGE(message_id=12910*)
    → "The following item has been &[added to/removed from] your list of preferences: $39."
348: 0x08B8 [0x23] WAIT_FOR_DIALOG_INTERACTION
349: 0x08B9 [0x93] DISPLAY_ITEM_INFO(item_id=0*)
350: 0x08BC [0x01] GOTO 0x0638

SUBROUTINE_08EE:
351: 0x08EE [0x1D] PRINT_EVENT_MESSAGE(message_id=12910*)
    → "The following item has been &[added to/removed from] your list of preferences: $39."
352: 0x08F1 [0x23] WAIT_FOR_DIALOG_INTERACTION
353: 0x08F2 [0x93] DISPLAY_ITEM_INFO(item_id=0*)
354: 0x08F5 [0x01] GOTO 0x0638

SUBROUTINE_0927:
355: 0x0927 [0x1D] PRINT_EVENT_MESSAGE(message_id=12910*)
    → "The following item has been &[added to/removed from] your list of preferences: $39."
356: 0x092A [0x23] WAIT_FOR_DIALOG_INTERACTION
357: 0x092B [0x93] DISPLAY_ITEM_INFO(item_id=0*)
358: 0x092E [0x01] GOTO 0x0638

SUBROUTINE_0960:
359: 0x0960 [0x1D] PRINT_EVENT_MESSAGE(message_id=12910*)
    → "The following item has been &[added to/removed from] your list of preferences: $39."
360: 0x0963 [0x23] WAIT_FOR_DIALOG_INTERACTION
361: 0x0964 [0x93] DISPLAY_ITEM_INFO(item_id=0*)
362: 0x0967 [0x01] GOTO 0x0638

SUBROUTINE_0999:
363: 0x0999 [0x1D] PRINT_EVENT_MESSAGE(message_id=12910*)
    → "The following item has been &[added to/removed from] your list of preferences: $39."
364: 0x099C [0x23] WAIT_FOR_DIALOG_INTERACTION
365: 0x099D [0x93] DISPLAY_ITEM_INFO(item_id=0*)
366: 0x09A0 [0x01] GOTO 0x0638

SUBROUTINE_09D2:
367: 0x09D2 [0x1D] PRINT_EVENT_MESSAGE(message_id=12910*)
    → "The following item has been &[added to/removed from] your list of preferences: $39."
368: 0x09D5 [0x23] WAIT_FOR_DIALOG_INTERACTION
369: 0x09D6 [0x93] DISPLAY_ITEM_INFO(item_id=0*)
370: 0x09D9 [0x01] GOTO 0x0638

SUBROUTINE_0A0B:
371: 0x0A0B [0x1D] PRINT_EVENT_MESSAGE(message_id=12910*)
    → "The following item has been &[added to/removed from] your list of preferences: $39."
372: 0x0A0E [0x23] WAIT_FOR_DIALOG_INTERACTION
373: 0x0A0F [0x93] DISPLAY_ITEM_INFO(item_id=0*)
374: 0x0A12 [0x01] GOTO 0x0638

SUBROUTINE_0A26:
375: 0x0A26 [0x01] GOTO 0x0AF9
376: 0x0A29 [0x02] IF !(Work_Zone[0] == 2*) GOTO 0x0AEB
377: 0x0A31 [0x03] ExtData[1]->WorkLocal[0] = 0*

SUBROUTINE_0A36:
378: 0x0A36 [0x03] ExtData[1]->WorkLocal[1] = 4294967295*
379: 0x0A3B [0x3D] CLEAR_BIT_FLAG_CONDITIONAL(target_work_offset=ExtData[1]->WorkLocal[1], bit_index_work_offset=0*, condition_work_offset=1*)
380: 0x0A42 [0x3D] CLEAR_BIT_FLAG_CONDITIONAL(target_work_offset=ExtData[1]->WorkLocal[1], bit_index_work_offset=12*, condition_work_offset=1*)
381: 0x0A49 [0x03] Work_Zone_1700[1] = 5433*
382: 0x0A4E [0x03] Work_Zone_1700[2] = 1*
383: 0x0A53 [0x03] Work_Zone_1700[3] = 1*
384: 0x0A58 [0x03] Work_Zone_1700[4] = 1*
385: 0x0A5D [0x03] Work_Zone_1700[5] = 1*
386: 0x0A62 [0x03] Work_Zone_1700[6] = 1*
387: 0x0A67 [0x03] Work_Zone_1700[7] = 1*
388: 0x0A6C [0x03] Work_Zone_1700[8] = 1*
389: 0x0A71 [0x03] Work_Zone_1700[9] = 1*
390: 0x0A76 [0x03] Work_Zone_1700[10] = 1*
391: 0x0A7B [0x03] Work_Zone_1700[11] = 1*
392: 0x0A80 [0x03] Work_Zone_1700[12] = 1*
393: 0x0A85 [0x3E] IF !(ExtData[1]->WorkLocal[2] bit 15*) GOTO 0x0A94
394: 0x0A8C [0x03] Work_Zone_1700[13] = 1*
395: 0x0A91 [0x01] GOTO 0x0A99
396: 0x0A94 [0x03] Work_Zone_1700[13] = 0*

SUBROUTINE_0A99:
397: 0x0A99 [0x24] CREATE_DIALOG(message_id=12909*, default_option=ExtData[1]->WorkLocal[0], option_flags=ExtData[1]->WorkLocal[1])
    → "Set your preferences. [$9: [o*/o)]/$10: [o*/o)]/$11: [o*/o)]/$12: [o*/o)]/$13: [o*/o)]/$14: [o*/o)]/$15: [o*/o)]/$16: [o*/o)]/$17: [o*/o)]/$18: [o*/o)]/$19: [o*/o)]/$20: [o*/o)]/Select another category.]"
398: 0x0AA0 [0x25] WAIT_DIALOG_SELECT()
399: 0x0AA1 [0x02] IF !(Work_Zone[0] == 0*) GOTO 0x0ADA
400: 0x0AA9 [0x03] ExtData[1]->WorkLocal[0] = 1*
401: 0x0AAE [0x1A] CALL_SUBROUTINE(address=0x0BF8)
402: 0x0AB1 [0x93] DISPLAY_ITEM_INFO(item_id=5433*)
403: 0x0AB4 [0x03] Work_Zone_1700[31] = 5433*
404: 0x0AB9 [0x3E] IF !(ExtData[1]->WorkLocal[2] bit 15*) GOTO 0x0AC8
405: 0x0AC0 [0x03] Work_Zone_1700[30] = 0*
406: 0x0AC5 [0x01] GOTO 0x0ACD
407: 0x0AC8 [0x03] Work_Zone_1700[30] = 1*

SUBROUTINE_0ACD:
408: 0x0ACD [0x1D] PRINT_EVENT_MESSAGE(message_id=12910*)
    → "The following item has been &[added to/removed from] your list of preferences: $39."
409: 0x0AD0 [0x23] WAIT_FOR_DIALOG_INTERACTION
410: 0x0AD1 [0x93] DISPLAY_ITEM_INFO(item_id=0*)
411: 0x0AD4 [0x01] GOTO 0x0A36

SUBROUTINE_0AE8:
412: 0x0AE8 [0x01] GOTO 0x0AF9
413: 0x0AEB [0x02] IF !(Work_Zone[0] == 3*) GOTO 0x0AF9
414: 0x0AF3 [0x01] GOTO 0x0215

SUBROUTINE_0AF9:
415: 0x0AF9 [0x01] GOTO 0x0B2C
416: 0x0AFC [0x02] IF !(Work_Zone[0] == 1*) GOTO 0x0B1E
417: 0x0B04 [0x1D] PRINT_EVENT_MESSAGE(message_id=12903*)
    → "No doubt you have noticed the curious caskets scattered throughout the Nyzul Isle remnants. Our operatives have come to refer to these as "vending boxes.""
418: 0x0B07 [0x23] WAIT_FOR_DIALOG_INTERACTION
419: 0x0B08 [0x1D] PRINT_EVENT_MESSAGE(message_id=12904*)
    → "Depositing Nyzul tokens into them will yield artifacts usable only in the immediate environs. By what ancient technology or magic they operate, we do not know."
420: 0x0B0B [0x23] WAIT_FOR_DIALOG_INTERACTION
421: 0x0B0C [0x1D] PRINT_EVENT_MESSAGE(message_id=12905*)
    → "And yet our research has not proved entirely fruitless."
422: 0x0B0F [0x23] WAIT_FOR_DIALOG_INTERACTION
423: 0x0B10 [0x1D] PRINT_EVENT_MESSAGE(message_id=12906*)
    → "Specifically, we have developed a means to manipulate these boxes so that your preferred items may be extracted with greater ease."
424: 0x0B13 [0x23] WAIT_FOR_DIALOG_INTERACTION
425: 0x0B14 [0x1D] PRINT_EVENT_MESSAGE(message_id=12907*)
    → "I would explain further, but the inner workings of this are beyond a layman like me. Simply convey to me your preferences, and enjoy the newfound convenience on your next expedition."
426: 0x0B17 [0x23] WAIT_FOR_DIALOG_INTERACTION
427: 0x0B18 [0x01] GOTO 0x0215

SUBROUTINE_0B2C:
428: 0x0B2C [0x01] GOTO 0x0BB4
429: 0x0B2F [0x02] IF !(Work_Zone[0] == 2*) GOTO 0x0B45
430: 0x0B37 [0x1D] PRINT_EVENT_MESSAGE(message_id=12887*)
    → "Investigators are frequently coming across artifacts within the remnants we are simply calling Nyzul "tokens." As a way of gauging your progress, the Commissions Agency will keep track of the number of tokens you have obtained."
431: 0x0B3A [0x23] WAIT_FOR_DIALOG_INTERACTION
432: 0x0B3B [0x1D] PRINT_EVENT_MESSAGE(message_id=12888*)
    → "You currently possess $2 [token/tokens]."
433: 0x0B3E [0x23] WAIT_FOR_DIALOG_INTERACTION
434: 0x0B3F [0x01] GOTO 0x002F

SUBROUTINE_0BB4:
435: 0x0BB4 [0x21] END_EVENT
436: 0x0BB5 [0x00] END_REQSTACK()

SUBROUTINE_0BB6:
437: 0x0BB6 [0x40] SET_BIT_WORK_RANGE(start_bit=0*, end_bit=3*, target=Work_Zone[1], source=3*)
438: 0x0BBF [0x40] SET_BIT_WORK_RANGE(start_bit=18*, end_bit=22*, target=Work_Zone[1], source=ExtData[1]->WorkLocal[0])
439: 0x0BC8 [0x43] SEND_EVENT_UPDATE: Send pending tag to server (packet 0x005B)
440: 0x0BCA [0x43] SEND_EVENT_UPDATE: Check pending flag (skip if not pending)
441: 0x0BCC [0x03] ExtData[1]->WorkLocal[2] = Work_Zone[8]
442: 0x0BD1 [0x03] ExtData[1]->WorkLocal[0] = Work_Zone[0]
443: 0x0BD6 [0x1B] RETURN

SUBROUTINE_0BD7:
444: 0x0BD7 [0x40] SET_BIT_WORK_RANGE(start_bit=0*, end_bit=3*, target=Work_Zone[1], source=4*)
445: 0x0BE0 [0x40] SET_BIT_WORK_RANGE(start_bit=18*, end_bit=22*, target=Work_Zone[1], source=ExtData[1]->WorkLocal[0])
446: 0x0BE9 [0x43] SEND_EVENT_UPDATE: Send pending tag to server (packet 0x005B)
447: 0x0BEB [0x43] SEND_EVENT_UPDATE: Check pending flag (skip if not pending)
448: 0x0BED [0x03] ExtData[1]->WorkLocal[2] = Work_Zone[8]
449: 0x0BF2 [0x03] ExtData[1]->WorkLocal[0] = Work_Zone[0]
450: 0x0BF7 [0x1B] RETURN

SUBROUTINE_0BF8:
451: 0x0BF8 [0x40] SET_BIT_WORK_RANGE(start_bit=0*, end_bit=3*, target=Work_Zone[1], source=5*)
452: 0x0C01 [0x40] SET_BIT_WORK_RANGE(start_bit=18*, end_bit=22*, target=Work_Zone[1], source=ExtData[1]->WorkLocal[0])
453: 0x0C0A [0x43] SEND_EVENT_UPDATE: Send pending tag to server (packet 0x005B)
454: 0x0C0C [0x43] SEND_EVENT_UPDATE: Check pending flag (skip if not pending)
455: 0x0C0E [0x03] ExtData[1]->WorkLocal[2] = Work_Zone[8]
456: 0x0C13 [0x03] ExtData[1]->WorkLocal[0] = Work_Zone[0]
457: 0x0C18 [0x1B] RETURN
```

#### Data or dead code:

```
# Dead code (unreachable instructions):
     0x0203 [0x01] GOTO 0x0206
# Dead code (unreachable instructions):
     0x03A4 [0x01] GOTO 0x0628
# Dead code (unreachable instructions):
     0x03DD [0x01] GOTO 0x0628
# Dead code (unreachable instructions):
     0x0416 [0x01] GOTO 0x0628
# Dead code (unreachable instructions):
     0x044F [0x01] GOTO 0x0628
# Dead code (unreachable instructions):
     0x0488 [0x01] GOTO 0x0628
# Dead code (unreachable instructions):
     0x04C1 [0x01] GOTO 0x0628
# Dead code (unreachable instructions):
     0x04FA [0x01] GOTO 0x0628
# Dead code (unreachable instructions):
     0x0533 [0x01] GOTO 0x0628
# Dead code (unreachable instructions):
     0x056C [0x01] GOTO 0x0628
# Dead code (unreachable instructions):
     0x05A5 [0x01] GOTO 0x0628
# Dead code (unreachable instructions):
     0x05DE [0x01] GOTO 0x0628
# Dead code (unreachable instructions):
     0x0617 [0x01] GOTO 0x0628
     0x0625 [0x01] GOTO 0x0628
# Dead code (unreachable instructions):
     0x07A2 [0x01] GOTO 0x0A26
# Dead code (unreachable instructions):
     0x07DB [0x01] GOTO 0x0A26
# Dead code (unreachable instructions):
     0x0814 [0x01] GOTO 0x0A26
# Dead code (unreachable instructions):
     0x084D [0x01] GOTO 0x0A26
# Dead code (unreachable instructions):
     0x0886 [0x01] GOTO 0x0A26
# Dead code (unreachable instructions):
     0x08BF [0x01] GOTO 0x0A26
# Dead code (unreachable instructions):
     0x08F8 [0x01] GOTO 0x0A26
# Dead code (unreachable instructions):
     0x0931 [0x01] GOTO 0x0A26
# Dead code (unreachable instructions):
     0x096A [0x01] GOTO 0x0A26
# Dead code (unreachable instructions):
     0x09A3 [0x01] GOTO 0x0A26
# Dead code (unreachable instructions):
     0x09DC [0x01] GOTO 0x0A26
# Dead code (unreachable instructions):
     0x0A15 [0x01] GOTO 0x0A26
     0x0A23 [0x01] GOTO 0x0A26
# Dead code (unreachable instructions):
     0x0AD7 [0x01] GOTO 0x0AE8
     0x0AE5 [0x01] GOTO 0x0AE8
# Dead code (unreachable instructions):
     0x0AF6 [0x01] GOTO 0x0AF9
# Dead code (unreachable instructions):
     0x0B1B [0x01] GOTO 0x0B2C
     0x0B29 [0x01] GOTO 0x0B2C
# Dead code (unreachable instructions):
     0x0B42 [0x01] GOTO 0x0BB4
     0x0B58 [0x01] GOTO 0x0BB4
     0x0BA2 [0x01] GOTO 0x0BB4
```

### Event 269

#### Metadata

| Field        | Value   |
|--------------|---------|
| Entrypoint   | 0x0C19  |
| Data Size    | 1 bytes |
| Instructions | 1       |

```
      00 01 02 03 04 05 06 07  08 09 0A 0B 0C 0D 0E 0F
      -- -- -- -- -- -- -- --  -- -- -- -- -- -- -- --
0C10:                             00                             .      
```

#### Opcodes

```
  0: 0x0C19 [0x00] END_REQSTACK()
```
