# 16982311

## Common Data

| Field            | Value                          |
|------------------|--------------------------------|
| Zone             | Aht Urhgan Whitegate2 (ID: 50) |
| Block Size       | 29620 bytes                    |
| Total Events     | 13                             |
| References Count | 556                            |

## List of Events

| Event ID              | Entrypoint   |   Size |   Instructions |
|-----------------------|--------------|--------|----------------|
| [65535](#event-65535) | 0x0000       |      1 |              1 |
| [3200](#event-3200)   | 0x0001       |   3353 |            354 |
| [3202](#event-3202)   | 0x0D1A       |   4304 |            553 |
| [3203](#event-3203)   | 0x1DEA       |   1875 |            209 |
| [3204](#event-3204)   | 0x253D       |   1382 |            160 |
| [3201](#event-3201)   | 0x2AA3       |    251 |             64 |
| [3207](#event-3207)   | 0x2B9E       |   1824 |            274 |
| [3206](#event-3206)   | 0x32BE       |    445 |             97 |
| [3215](#event-3215)   | 0x347B       |   4471 |            594 |
| [3216](#event-3216)   | 0x45F2       |   2569 |            378 |
| [3217](#event-3217)   | 0x4FFB       |   1698 |            205 |
| [961](#event-961)     | 0x569D       |   2730 |            346 |
| [962](#event-962)     | 0x6147       |   2425 |            295 |

## DAT References (imed_data)

|   Index | Hex Value   |   Dec Value |
|---------|-------------|-------------|
|       0 | 0x0000      |           0 |
|       1 | 0x0078      |         120 |
|       2 | 0x0013      |          19 |
|       3 | 0x0233      |         563 |
|       4 | 0x70C2      |       28866 |
|       5 | 0xFFFF2693  |  4294911635 |
|       6 | 0xFFFFE890  |  4294961296 |
|       7 | 0x0010      |          16 |
|       8 | 0x58AC      |       22700 |
|       9 | 0xFFFF4DE9  |  4294921705 |
|      10 | 0xFFFFE184  |  4294959492 |
|      11 | 0x59AC      |       22956 |
|      12 | 0xFFFF4DD1  |  4294921681 |
|      13 | 0xFFFFE16E  |  4294959470 |
|      14 | 0x5629      |       22057 |
|      15 | 0xFFFF519D  |  4294922653 |
|      16 | 0x6378      |       25464 |
|      17 | 0xFFFF4FE8  |  4294922216 |
|      18 | 0x0800      |        2048 |
|      19 | 0x6370      |       25456 |
|      20 | 0xFFFF5123  |  4294922531 |
|      21 | 0x0889      |        2185 |
|      22 | 0x048C      |        1164 |
|      23 | 0x05C9      |        1481 |
|      24 | 0x000F      |          15 |
|      25 | 0x00A3      |         163 |
|      26 | 0x0151      |         337 |
|      27 | 0x3827      |       14375 |
|      28 | 0x3828      |       14376 |
|      29 | 0x3829      |       14377 |
|      30 | 0x382A      |       14378 |
|      31 | 0x382B      |       14379 |
|      32 | 0x8505      |       34053 |
|      33 | 0xFFFF38B9  |  4294916281 |
|      34 | 0xFFFFE637  |  4294960695 |
|      35 | 0x382C      |       14380 |
|      36 | 0x382D      |       14381 |
|      37 | 0x382E      |       14382 |
|      38 | 0x001E      |          30 |
|      39 | 0x382F      |       14383 |
|      40 | 0x3830      |       14384 |
|      41 | 0x62D4      |       25300 |
|      42 | 0xFFFF4DF9  |  4294921721 |
|      43 | 0x3831      |       14385 |
|      44 | 0x3832      |       14386 |
|      45 | 0x0471      |        1137 |
|      46 | 0x3833      |       14387 |
|      47 | 0x3834      |       14388 |
|      48 | 0x3835      |       14389 |
|      49 | 0x3836      |       14390 |
|      50 | 0x3837      |       14391 |
|      51 | 0x001D      |          29 |
|      52 | 0x3838      |       14392 |
|      53 | 0x3839      |       14393 |
|      54 | 0x383A      |       14394 |
|      55 | 0x383B      |       14395 |
|      56 | 0x383C      |       14396 |
|      57 | 0x0009      |           9 |
|      58 | 0x383D      |       14397 |
|      59 | 0x383E      |       14398 |
|      60 | 0x005A      |          90 |
|      61 | 0x00C8      |         200 |
|      62 | 0x0005      |           5 |
|      63 | 0x383F      |       14399 |
|      64 | 0x3840      |       14400 |
|      65 | 0x3841      |       14401 |
|      66 | 0x3842      |       14402 |
|      67 | 0x3843      |       14403 |
|      68 | 0x0341      |         833 |
|      69 | 0x6E11      |       28177 |
|      70 | 0xFFFF4E31  |  4294921777 |
|      71 | 0x0888      |        2184 |
|      72 | 0x3844      |       14404 |
|      73 | 0x3845      |       14405 |
|      74 | 0x0006      |           6 |
|      75 | 0x3846      |       14406 |
|      76 | 0x3847      |       14407 |
|      77 | 0x3848      |       14408 |
|      78 | 0x0343      |         835 |
|      79 | 0x6623      |       26147 |
|      80 | 0xFFFF4D9F  |  4294921631 |
|      81 | 0x3849      |       14409 |
|      82 | 0x0001      |           1 |
|      83 | 0x384A      |       14410 |
|      84 | 0x384B      |       14411 |
|      85 | 0x384C      |       14412 |
|      86 | 0x384D      |       14413 |
|      87 | 0x384E      |       14414 |
|      88 | 0x035A      |         858 |
|      89 | 0x384F      |       14415 |
|      90 | 0x0353      |         851 |
|      91 | 0x3850      |       14416 |
|      92 | 0x3851      |       14417 |
|      93 | 0x3852      |       14418 |
|      94 | 0x3853      |       14419 |
|      95 | 0x3854      |       14420 |
|      96 | 0x3855      |       14421 |
|      97 | 0x3856      |       14422 |
|      98 | 0x3857      |       14423 |
|      99 | 0x3858      |       14424 |
|     100 | 0x38D2      |       14546 |
|     101 | 0x012C      |         300 |
|     102 | 0x00B2      |         178 |
|     103 | 0x001B      |          27 |
|     104 | 0x38D1      |       14545 |
|     105 | 0x0002      |           2 |
|     106 | 0x0003      |           3 |
|     107 | 0x0004      |           4 |
|     108 | 0x0007      |           7 |
|     109 | 0x0008      |           8 |
|     110 | 0x000A      |          10 |
|     111 | 0x000B      |          11 |
|     112 | 0x000C      |          12 |
|     113 | 0x000D      |          13 |
|     114 | 0x000E      |          14 |
|     115 | 0x0011      |          17 |
|     116 | 0x0012      |          18 |
|     117 | 0x0014      |          20 |
|     118 | 0x84C2      |       33986 |
|     119 | 0xFFFF2310  |  4294910736 |
|     120 | 0xFFFFE633  |  4294960691 |
|     121 | 0x693D      |       26941 |
|     122 | 0xFFFF4D67  |  4294921575 |
|     123 | 0x07FF      |        2047 |
|     124 | 0x0A40      |        2624 |
|     125 | 0x087C      |        2172 |
|     126 | 0x00B4      |         180 |
|     127 | 0x3863      |       14435 |
|     128 | 0x3864      |       14436 |
|     129 | 0x3865      |       14437 |
|     130 | 0x8AC4      |       35524 |
|     131 | 0xFFFF1C83  |  4294909059 |
|     132 | 0x0400      |        1024 |
|     133 | 0x3866      |       14438 |
|     134 | 0x3867      |       14439 |
|     135 | 0x3868      |       14440 |
|     136 | 0x3869      |       14441 |
|     137 | 0x0103      |         259 |
|     138 | 0x386A      |       14442 |
|     139 | 0x386B      |       14443 |
|     140 | 0x386C      |       14444 |
|     141 | 0x386D      |       14445 |
|     142 | 0x5C71      |       23665 |
|     143 | 0xFFFF4594  |  4294919572 |
|     144 | 0x0238      |         568 |
|     145 | 0x386E      |       14446 |
|     146 | 0x386F      |       14447 |
|     147 | 0x3870      |       14448 |
|     148 | 0x3871      |       14449 |
|     149 | 0x3872      |       14450 |
|     150 | 0x3873      |       14451 |
|     151 | 0x3874      |       14452 |
|     152 | 0x3875      |       14453 |
|     153 | 0x3876      |       14454 |
|     154 | 0x3877      |       14455 |
|     155 | 0x3878      |       14456 |
|     156 | 0x387D      |       14461 |
|     157 | 0x387E      |       14462 |
|     158 | 0x387F      |       14463 |
|     159 | 0x3880      |       14464 |
|     160 | 0x3881      |       14465 |
|     161 | 0x3882      |       14466 |
|     162 | 0x3883      |       14467 |
|     163 | 0x3884      |       14468 |
|     164 | 0x3885      |       14469 |
|     165 | 0x3886      |       14470 |
|     166 | 0x3887      |       14471 |
|     167 | 0x3888      |       14472 |
|     168 | 0x3889      |       14473 |
|     169 | 0x388A      |       14474 |
|     170 | 0x388B      |       14475 |
|     171 | 0x388C      |       14476 |
|     172 | 0x388D      |       14477 |
|     173 | 0x388E      |       14478 |
|     174 | 0x388F      |       14479 |
|     175 | 0x3890      |       14480 |
|     176 | 0x3896      |       14486 |
|     177 | 0x3897      |       14487 |
|     178 | 0x3898      |       14488 |
|     179 | 0x3899      |       14489 |
|     180 | 0x389A      |       14490 |
|     181 | 0x389B      |       14491 |
|     182 | 0x0356      |         854 |
|     183 | 0x389C      |       14492 |
|     184 | 0x389D      |       14493 |
|     185 | 0x389E      |       14494 |
|     186 | 0x389F      |       14495 |
|     187 | 0x38A0      |       14496 |
|     188 | 0x38A1      |       14497 |
|     189 | 0x38A6      |       14502 |
|     190 | 0x38A7      |       14503 |
|     191 | 0x38A8      |       14504 |
|     192 | 0x38A9      |       14505 |
|     193 | 0x38AA      |       14506 |
|     194 | 0x38B1      |       14513 |
|     195 | 0x38B2      |       14514 |
|     196 | 0x3891      |       14481 |
|     197 | 0x3892      |       14482 |
|     198 | 0x3893      |       14483 |
|     199 | 0x3894      |       14484 |
|     200 | 0x3895      |       14485 |
|     201 | 0x38A2      |       14498 |
|     202 | 0x38A3      |       14499 |
|     203 | 0x38A4      |       14500 |
|     204 | 0x38A5      |       14501 |
|     205 | 0x38AB      |       14507 |
|     206 | 0x38AC      |       14508 |
|     207 | 0x38AD      |       14509 |
|     208 | 0x38AE      |       14510 |
|     209 | 0x38AF      |       14511 |
|     210 | 0x38B0      |       14512 |
|     211 | 0x38B3      |       14515 |
|     212 | 0x38B4      |       14516 |
|     213 | 0x38B5      |       14517 |
|     214 | 0x38B6      |       14518 |
|     215 | 0x38B7      |       14519 |
|     216 | 0x38B8      |       14520 |
|     217 | 0x38B9      |       14521 |
|     218 | 0x38BA      |       14522 |
|     219 | 0x38BB      |       14523 |
|     220 | 0x0342      |         834 |
|     221 | 0x38BC      |       14524 |
|     222 | 0x0026      |          38 |
|     223 | 0x38BD      |       14525 |
|     224 | 0x38BE      |       14526 |
|     225 | 0x38BF      |       14527 |
|     226 | 0x38C0      |       14528 |
|     227 | 0x38C1      |       14529 |
|     228 | 0x38C2      |       14530 |
|     229 | 0x38C3      |       14531 |
|     230 | 0x38C4      |       14532 |
|     231 | 0x38C5      |       14533 |
|     232 | 0x38C6      |       14534 |
|     233 | 0x38C7      |       14535 |
|     234 | 0x38C8      |       14536 |
|     235 | 0x38C9      |       14537 |
|     236 | 0x00C9      |         201 |
|     237 | 0x3859      |       14425 |
|     238 | 0x385A      |       14426 |
|     239 | 0x385B      |       14427 |
|     240 | 0x385C      |       14428 |
|     241 | 0x385D      |       14429 |
|     242 | 0x385E      |       14430 |
|     243 | 0x385F      |       14431 |
|     244 | 0x3860      |       14432 |
|     245 | 0x3861      |       14433 |
|     246 | 0x3862      |       14434 |
|     247 | 0x3879      |       14457 |
|     248 | 0x387A      |       14458 |
|     249 | 0x387B      |       14459 |
|     250 | 0x387C      |       14460 |
|     251 | 0x483C      |       18492 |
|     252 | 0x4941      |       18753 |
|     253 | 0x49A3      |       18851 |
|     254 | 0x489D      |       18589 |
|     255 | 0x454E      |       17742 |
|     256 | 0x4653      |       18003 |
|     257 | 0x4550      |       17744 |
|     258 | 0x4A00      |       18944 |
|     259 | 0x4624      |       17956 |
|     260 | 0x4672      |       18034 |
|     261 | 0x491F      |       18719 |
|     262 | 0x480B      |       18443 |
|     263 | 0x47FA      |       18426 |
|     264 | 0x46C8      |       18120 |
|     265 | 0x489E      |       18590 |
|     266 | 0x454F      |       17743 |
|     267 | 0x4920      |       18720 |
|     268 | 0x4942      |       18754 |
|     269 | 0x4A9E      |       19102 |
|     270 | 0x48A0      |       18592 |
|     271 | 0x38CA      |       14538 |
|     272 | 0x38CB      |       14539 |
|     273 | 0x38CD      |       14541 |
|     274 | 0x38D3      |       14547 |
|     275 | 0x38CC      |       14540 |
|     276 | 0x38CE      |       14542 |
|     277 | 0x38CF      |       14543 |
|     278 | 0x38D0      |       14544 |
|     279 | 0x022F      |         559 |
|     280 | 0xFFFFFF66  |  4294967142 |
|     281 | 0xBA9B      |       47771 |
|     282 | 0x0C1B      |        3099 |
|     283 | 0x05F2      |        1522 |
|     284 | 0xC65E      |       50782 |
|     285 | 0x0491      |        1169 |
|     286 | 0x0D20      |        3360 |
|     287 | 0xC07D      |       49277 |
|     288 | 0x0808      |        2056 |
|     289 | 0x0980      |        2432 |
|     290 | 0xB9F5      |       47605 |
|     291 | 0xFFFFF5CE  |  4294964686 |
|     292 | 0xB9D2      |       47570 |
|     293 | 0xFFFFF61D  |  4294964765 |
|     294 | 0xC6D8      |       50904 |
|     295 | 0xFFFFF7F5  |  4294965237 |
|     296 | 0xBDF6      |       48630 |
|     297 | 0x0A59      |        2649 |
|     298 | 0x035F      |         863 |
|     299 | 0x00B8      |         184 |
|     300 | 0x016A      |         362 |
|     301 | 0x38D6      |       14550 |
|     302 | 0x0B9F      |        2975 |
|     303 | 0x38D7      |       14551 |
|     304 | 0x38D8      |       14552 |
|     305 | 0x38D9      |       14553 |
|     306 | 0x38DA      |       14554 |
|     307 | 0x088B      |        2187 |
|     308 | 0x18F7      |        6391 |
|     309 | 0x003C      |          60 |
|     310 | 0x38DB      |       14555 |
|     311 | 0x00B7      |         183 |
|     312 | 0x0389      |         905 |
|     313 | 0x38DC      |       14556 |
|     314 | 0x38DD      |       14557 |
|     315 | 0x38DE      |       14558 |
|     316 | 0x38DF      |       14559 |
|     317 | 0x38E0      |       14560 |
|     318 | 0x38E1      |       14561 |
|     319 | 0x38E2      |       14562 |
|     320 | 0x037B      |         891 |
|     321 | 0x38E3      |       14563 |
|     322 | 0x38E4      |       14564 |
|     323 | 0x38E5      |       14565 |
|     324 | 0x38E6      |       14566 |
|     325 | 0x0096      |         150 |
|     326 | 0x38E7      |       14567 |
|     327 | 0x38E8      |       14568 |
|     328 | 0x38E9      |       14569 |
|     329 | 0x38EA      |       14570 |
|     330 | 0x38EB      |       14571 |
|     331 | 0x38EC      |       14572 |
|     332 | 0x38ED      |       14573 |
|     333 | 0x38EE      |       14574 |
|     334 | 0x38EF      |       14575 |
|     335 | 0x38F0      |       14576 |
|     336 | 0x38F1      |       14577 |
|     337 | 0x38F2      |       14578 |
|     338 | 0x38F3      |       14579 |
|     339 | 0x38F4      |       14580 |
|     340 | 0x38F5      |       14581 |
|     341 | 0x039E      |         926 |
|     342 | 0x38F6      |       14582 |
|     343 | 0x38F7      |       14583 |
|     344 | 0x4A1B      |       18971 |
|     345 | 0x4A1C      |       18972 |
|     346 | 0x4A1D      |       18973 |
|     347 | 0x4A1E      |       18974 |
|     348 | 0x4A1F      |       18975 |
|     349 | 0x4A20      |       18976 |
|     350 | 0x4A21      |       18977 |
|     351 | 0x4A22      |       18978 |
|     352 | 0x4A23      |       18979 |
|     353 | 0x4A24      |       18980 |
|     354 | 0x4A25      |       18981 |
|     355 | 0x4A26      |       18982 |
|     356 | 0x4A27      |       18983 |
|     357 | 0x4A28      |       18984 |
|     358 | 0x4A29      |       18985 |
|     359 | 0x4A2A      |       18986 |
|     360 | 0x4A2B      |       18987 |
|     361 | 0x4A2C      |       18988 |
|     362 | 0x4A19      |       18969 |
|     363 | 0x4A1A      |       18970 |
|     364 | 0x38F8      |       14584 |
|     365 | 0x38F9      |       14585 |
|     366 | 0x38FA      |       14586 |
|     367 | 0x38FB      |       14587 |
|     368 | 0x034D      |         845 |
|     369 | 0x38FC      |       14588 |
|     370 | 0x38FD      |       14589 |
|     371 | 0x38FE      |       14590 |
|     372 | 0x38FF      |       14591 |
|     373 | 0x3900      |       14592 |
|     374 | 0x3901      |       14593 |
|     375 | 0x3902      |       14594 |
|     376 | 0x00B9      |         185 |
|     377 | 0x3903      |       14595 |
|     378 | 0x3904      |       14596 |
|     379 | 0x0A31      |        2609 |
|     380 | 0x0A3B      |        2619 |
|     381 | 0x0A45      |        2629 |
|     382 | 0x3905      |       14597 |
|     383 | 0x3906      |       14598 |
|     384 | 0x3907      |       14599 |
|     385 | 0x3908      |       14600 |
|     386 | 0x3909      |       14601 |
|     387 | 0x390A      |       14602 |
|     388 | 0x390B      |       14603 |
|     389 | 0x0032      |          50 |
|     390 | 0x0110      |         272 |
|     391 | 0x03E7      |         999 |
|     392 | 0xBDB6      |       48566 |
|     393 | 0x0C00      |        3072 |
|     394 | 0x066C      |        1644 |
|     395 | 0xC658      |       50776 |
|     396 | 0xFFFFF699  |  4294964889 |
|     397 | 0xBF59      |       48985 |
|     398 | 0xFFFFF676  |  4294964854 |
|     399 | 0xC3B6      |       50102 |
|     400 | 0xFFFFFFFD  |  4294967293 |
|     401 | 0xC7C5      |       51141 |
|     402 | 0xFFFFFFEC  |  4294967276 |
|     403 | 0x046E      |        1134 |
|     404 | 0x013F      |         319 |
|     405 | 0x390C      |       14604 |
|     406 | 0x002D      |          45 |
|     407 | 0x390D      |       14605 |
|     408 | 0x390E      |       14606 |
|     409 | 0x4A2F      |       18991 |
|     410 | 0x4A30      |       18992 |
|     411 | 0x4A31      |       18993 |
|     412 | 0x4A32      |       18994 |
|     413 | 0x4A33      |       18995 |
|     414 | 0x4A34      |       18996 |
|     415 | 0x4A35      |       18997 |
|     416 | 0x4A36      |       18998 |
|     417 | 0x4A37      |       18999 |
|     418 | 0x4A38      |       19000 |
|     419 | 0x4A39      |       19001 |
|     420 | 0x4A3A      |       19002 |
|     421 | 0x4A3B      |       19003 |
|     422 | 0x4A3C      |       19004 |
|     423 | 0x4A3D      |       19005 |
|     424 | 0x4A3E      |       19006 |
|     425 | 0x4A3F      |       19007 |
|     426 | 0x4A40      |       19008 |
|     427 | 0x4A2D      |       18989 |
|     428 | 0x4A2E      |       18990 |
|     429 | 0x390F      |       14607 |
|     430 | 0x3910      |       14608 |
|     431 | 0x3911      |       14609 |
|     432 | 0x3912      |       14610 |
|     433 | 0x3913      |       14611 |
|     434 | 0x00BD      |         189 |
|     435 | 0x3914      |       14612 |
|     436 | 0x3915      |       14613 |
|     437 | 0x3916      |       14614 |
|     438 | 0x04C4      |        1220 |
|     439 | 0x3917      |       14615 |
|     440 | 0x3918      |       14616 |
|     441 | 0x3919      |       14617 |
|     442 | 0x391A      |       14618 |
|     443 | 0x391B      |       14619 |
|     444 | 0x391C      |       14620 |
|     445 | 0x391D      |       14621 |
|     446 | 0x7F31      |       32561 |
|     447 | 0xFFFF47FD  |  4294920189 |
|     448 | 0xFFFFE3DD  |  4294960093 |
|     449 | 0x08B3      |        2227 |
|     450 | 0x656B      |       25963 |
|     451 | 0xFFFF514E  |  4294922574 |
|     452 | 0x03F7      |        1015 |
|     453 | 0x65BF      |       26047 |
|     454 | 0xFFFF4984  |  4294920580 |
|     455 | 0x0BF9      |        3065 |
|     456 | 0x283D      |       10301 |
|     457 | 0x043A      |        1082 |
|     458 | 0x03AB      |         939 |
|     459 | 0x391E      |       14622 |
|     460 | 0x391F      |       14623 |
|     461 | 0x3920      |       14624 |
|     462 | 0x3921      |       14625 |
|     463 | 0x3922      |       14626 |
|     464 | 0x3923      |       14627 |
|     465 | 0x3924      |       14628 |
|     466 | 0x3925      |       14629 |
|     467 | 0x3926      |       14630 |
|     468 | 0x3927      |       14631 |
|     469 | 0x3928      |       14632 |
|     470 | 0x3929      |       14633 |
|     471 | 0x392A      |       14634 |
|     472 | 0x392B      |       14635 |
|     473 | 0x6AA1      |       27297 |
|     474 | 0xFFFF4B3F  |  4294921023 |
|     475 | 0x0771      |        1905 |
|     476 | 0x6C2E      |       27694 |
|     477 | 0xFFFF4609  |  4294919689 |
|     478 | 0x095C      |        2396 |
|     479 | 0x392C      |       14636 |
|     480 | 0x392D      |       14637 |
|     481 | 0x392E      |       14638 |
|     482 | 0x392F      |       14639 |
|     483 | 0x3930      |       14640 |
|     484 | 0x3931      |       14641 |
|     485 | 0x3932      |       14642 |
|     486 | 0x3933      |       14643 |
|     487 | 0x3934      |       14644 |
|     488 | 0x3935      |       14645 |
|     489 | 0x5D73      |       23923 |
|     490 | 0xFFFF4607  |  4294919687 |
|     491 | 0x3936      |       14646 |
|     492 | 0x3937      |       14647 |
|     493 | 0x3938      |       14648 |
|     494 | 0x0232      |         562 |
|     495 | 0x13861     |       79969 |
|     496 | 0xD110      |       53520 |
|     497 | 0xFFFFFEBB  |  4294966971 |
|     498 | 0x0BE3      |        3043 |
|     499 | 0x125C1     |       75201 |
|     500 | 0xBC47      |       48199 |
|     501 | 0x01E0      |         480 |
|     502 | 0x0E15      |        3605 |
|     503 | 0x126C9     |       75465 |
|     504 | 0xB904      |       47364 |
|     505 | 0x0E02      |        3586 |
|     506 | 0x0231      |         561 |
|     507 | 0x1C7E      |        7294 |
|     508 | 0x3C11      |       15377 |
|     509 | 0x038A      |         906 |
|     510 | 0x3C12      |       15378 |
|     511 | 0x1234F     |       74575 |
|     512 | 0xB42F      |       46127 |
|     513 | 0x01BF      |         447 |
|     514 | 0x125AB     |       75179 |
|     515 | 0xAE24      |       44580 |
|     516 | 0x0181      |         385 |
|     517 | 0x0BAD      |        2989 |
|     518 | 0x127A5     |       75685 |
|     519 | 0xB123      |       45347 |
|     520 | 0x095B      |        2395 |
|     521 | 0x038B      |         907 |
|     522 | 0x3C13      |       15379 |
|     523 | 0x3C14      |       15380 |
|     524 | 0x3C15      |       15381 |
|     525 | 0x3C16      |       15382 |
|     526 | 0x3C17      |       15383 |
|     527 | 0x3C18      |       15384 |
|     528 | 0x3C19      |       15385 |
|     529 | 0x3C1A      |       15386 |
|     530 | 0x3C1B      |       15387 |
|     531 | 0x3C1C      |       15388 |
|     532 | 0x3C1D      |       15389 |
|     533 | 0x2788      |       10120 |
|     534 | 0x0063      |          99 |
|     535 | 0x3C1E      |       15390 |
|     536 | 0x3C1F      |       15391 |
|     537 | 0x2764      |       10084 |
|     538 | 0x3DBF      |       15807 |
|     539 | 0x278D      |       10125 |
|     540 | 0x2768      |       10088 |
|     541 | 0x2790      |       10128 |
|     542 | 0x0352      |         850 |
|     543 | 0x2793      |       10131 |
|     544 | 0x277B      |       10107 |
|     545 | 0x2791      |       10129 |
|     546 | 0x03A5      |         933 |
|     547 | 0x2792      |       10130 |
|     548 | 0x3DC0      |       15808 |
|     549 | 0x278E      |       10126 |
|     550 | 0x3DC1      |       15809 |
|     551 | 0x278F      |       10127 |
|     552 | 0x2795      |       10133 |
|     553 | 0x2796      |       10134 |
|     554 | 0x278A      |       10122 |
|     555 | 0x00D7      |         215 |

## Events

### Event 65535

#### Metadata

| Field        | Value   |
|--------------|---------|
| Entrypoint   | 0x0000  |
| Data Size    | 1 bytes |
| Instructions | 1       |

```
      00 01 02 03 04 05 06 07  08 09 0A 0B 0C 0D 0E 0F
      -- -- -- -- -- -- -- --  -- -- -- -- -- -- -- --
0000: 00                                                .               
```

#### Opcodes

```
  0: 0x0000 [0x00] END_REQSTACK()
```

### Event 3200

#### Metadata

| Field        | Value      |
|--------------|------------|
| Entrypoint   | 0x0001     |
| Data Size    | 3353 bytes |
| Instructions | 354        |

```
      00 01 02 03 04 05 06 07  08 09 0A 0B 0C 0D 0E 0F
      -- -- -- -- -- -- -- --  -- -- -- -- -- -- -- --
0000:    42 5D 00 80 01 80 1A  92 68 46 01 38 02 80 75   B]......hF.8..u
0010: 00 03 80 75 01 2F 00 C7  20 03 01 4E 00 C7 20 03  ...u./.. ..N.. .
0020: 01 4E 00 11 21 03 01 27  10 8F 20 03 01 04 27 10  .N..!..'.. ...'.
0030: 8C 20 03 01 24 29 10 0B  22 03 01 1C 92 01 8C 20  . ..$).."...... 
0040: 03 01 92 01 8F 20 03 01  92 01 8D 20 03 01 92 01  ..... ..... ....
0050: C7 20 03 01 94 01 F0 FF  FF 7F 94 01 8C 20 03 01  . ........... ..
0060: 94 01 8F 20 03 01 94 01  8D 20 03 01 94 01 C7 20  ... ..... ..... 
0070: 03 01 BA F0 FF FF 7F 04  80 05 80 06 80 07 80 BA  ................
0080: 0B 22 03 01 04 80 05 80  06 80 07 80 BA 8C 20 03  ."............ .
0090: 01 08 80 09 80 0A 80 00  80 BA 8F 20 03 01 0B 80  ........... ....
00A0: 0C 80 0D 80 00 80 BA 8D  20 03 01 0E 80 0F 80 0A  ........ .......
00B0: 80 00 80 BA C7 20 03 01  10 80 11 80 0A 80 12 80  ..... ..........
00C0: BA 11 21 03 01 13 80 14  80 0A 80 15 80 80 F0 FF  ..!.............
00D0: FF 7F 80 8C 20 03 01 80  8F 20 03 01 80 8D 20 03  .... .... .... .
00E0: 01 80 C7 20 03 01 4E 01  8C 20 03 01 81 00 8F 20  ... ..N.. ..... 
00F0: 03 01 5B 16 80 8F 20 03  01 8F 20 03 01 73 70 77  ..[... ... ..spw
0100: 30 5B 17 80 8D 20 03 01  8D 20 03 01 61 62 75 30  0[... ... ..abu0
0110: 1C 18 80 27 10 0B 22 03  01 30 5C 00 19 80 5C 01  ...'.."..0\...\.
0120: 19 80 9A 45 1A 80 F8 FF  FF 7F F8 FF FF 7F 73 31  ...E..........s1
0130: 34 31 00 80 1A 71 68 2B  11 21 03 01 1B 80 23 52  41...qh+.!....#R
0140: 1A 80 F8 FF FF 7F F8 FF  FF 7F 73 31 34 31 45 1A  ..........s141E.
0150: 80 F8 FF FF 7F F8 FF FF  7F 73 31 34 32 00 80 2B  .........s142..+
0160: 8F 20 03 01 1B 80 23 52  1A 80 F8 FF FF 7F F8 FF  . ....#R........
0170: FF 7F 73 31 34 32 45 1A  80 F8 FF FF 7F F8 FF FF  ..s142E.........
0180: 7F 73 31 34 33 00 80 5B  17 80 8D 20 03 01 8D 20  .s143..[... ... 
0190: 03 01 61 62 75 31 45 1A  80 F8 FF FF 7F F8 FF FF  ..abu1E.........
01A0: 7F 61 62 75 31 00 80 2B  8D 20 03 01 1C 80 23 5B  .abu1..+. ....#[
01B0: 16 80 8F 20 03 01 8F 20  03 01 73 70 77 32 45 1A  ... ... ..spw2E.
01C0: 80 F8 FF FF 7F F8 FF FF  7F 73 70 77 32 00 80 2B  .........spw2..+
01D0: 8F 20 03 01 1D 80 23 5B  17 80 8D 20 03 01 8D 20  . ....#[... ... 
01E0: 03 01 61 62 75 32 45 1A  80 F8 FF FF 7F F8 FF FF  ..abu2E.........
01F0: 7F 61 62 75 32 00 80 52  1A 80 F8 FF FF 7F F8 FF  .abu2..R........
0200: FF 7F 73 31 34 33 45 1A  80 F8 FF FF 7F F8 FF FF  ..s143E.........
0210: 7F 73 31 34 35 00 80 5B  16 80 8F 20 03 01 8F 20  .s145..[... ... 
0220: 03 01 73 70 77 33 45 1A  80 F8 FF FF 7F F8 FF FF  ..spw3E.........
0230: 7F 73 70 77 33 00 80 2B  8F 20 03 01 1E 80 23 5B  .spw3..+. ....#[
0240: 17 80 8D 20 03 01 8D 20  03 01 61 62 75 31 45 1A  ... ... ..abu1E.
0250: 80 F8 FF FF 7F F8 FF FF  7F 61 62 75 31 00 80 2B  .........abu1..+
0260: 8D 20 03 01 1F 80 23 5B  16 80 8F 20 03 01 8F 20  . ....#[... ... 
0270: 03 01 73 70 77 32 45 1A  80 F8 FF FF 7F F8 FF FF  ..spw2E.........
0280: 7F 73 70 77 32 00 80 5B  17 80 8D 20 03 01 8D 20  .spw2..[... ... 
0290: 03 01 61 62 75 32 45 1A  80 F8 FF FF 7F F8 FF FF  ..abu2E.........
02A0: 7F 61 62 75 32 00 80 53  8F 20 03 01 8F 20 03 01  .abu2..S. ... ..
02B0: 73 70 77 32 52 1A 80 F8  FF FF 7F F8 FF FF 7F 73  spw2R..........s
02C0: 31 34 35 45 1A 80 F8 FF  FF 7F F8 FF FF 7F 73 31  145E..........s1
02D0: 34 36 00 80 5B 16 80 8F  20 03 01 8F 20 03 01 73  46..[... ... ..s
02E0: 70 77 33 45 1A 80 F8 FF  FF 7F F8 FF FF 7F 73 70  pw3E..........sp
02F0: 77 33 00 80 BA F0 FF FF  7F 20 80 21 80 22 80 18  w3....... .!."..
0300: 80 80 F0 FF FF 7F 2B 8F  20 03 01 23 80 23 2B 8F  ......+. ..#.#+.
0310: 20 03 01 24 80 23 5B 16  80 8F 20 03 01 8F 20 03   ..$.#[... ... .
0320: 01 73 70 77 31 45 1A 80  F8 FF FF 7F F8 FF FF 7F  .spw1E..........
0330: 73 70 77 31 00 80 2B 8F  20 03 01 25 80 23 27 05  spw1..+. ..%.#'.
0340: F0 FF FF 7F 63 1C 26 80  52 1A 80 F8 FF FF 7F F8  ....c.&.R.......
0350: FF FF 7F 73 31 34 36 45  1A 80 F8 FF FF 7F F8 FF  ...s146E........
0360: FF 7F 73 31 34 34 00 80  2B 8F 20 03 01 27 80 23  ..s144..+. ..'.#
0370: 5B 16 80 8F 20 03 01 8F  20 03 01 73 70 77 31 45  [... ... ..spw1E
0380: 1A 80 F8 FF FF 7F F8 FF  FF 7F 73 70 77 31 00 80  ..........spw1..
0390: 2B 8F 20 03 01 28 80 23  2A 05 F0 FF FF 7F 52 1A  +. ..(.#*.....R.
03A0: 80 F8 FF FF 7F F8 FF FF  7F 73 31 34 34 45 1A 80  .........s144E..
03B0: F8 FF FF 7F F8 FF FF 7F  73 31 34 37 00 80 BA C7  ........s147....
03C0: 20 03 01 29 80 2A 80 0A  80 12 80 80 C7 20 03 01   ..).*....... ..
03D0: 2B 8F 20 03 01 2B 80 23  2B 8F 20 03 01 2C 80 23  +. ..+.#+. ..,.#
03E0: 5B 2D 80 C7 20 03 01 C7  20 03 01 73 70 77 30 52  [-.. ... ..spw0R
03F0: 1A 80 F8 FF FF 7F F8 FF  FF 7F 73 31 34 37 45 1A  ..........s147E.
0400: 80 F8 FF FF 7F F8 FF FF  7F 73 31 34 38 00 80 2B  .........s148..+
0410: C7 20 03 01 2E 80 23 53  C7 20 03 01 C7 20 03 01  . ....#S. ... ..
0420: 73 70 77 30 52 1A 80 F8  FF FF 7F F8 FF FF 7F 73  spw0R..........s
0430: 31 34 38 45 1A 80 F8 FF  FF 7F F8 FF FF 7F 73 31  148E..........s1
0440: 34 39 00 80 6B 69 64 6C  30 8D 20 03 01 2B C7 20  49..kidl0. ..+. 
0450: 03 01 2F 80 23 4A 8D 20  03 01 8F 20 03 01 52 1A  ../.#J. ... ..R.
0460: 80 F8 FF FF 7F F8 FF FF  7F 73 31 34 39 45 1A 80  .........s149E..
0470: F8 FF FF 7F F8 FF FF 7F  73 31 35 30 00 80 5B 2D  ........s150..[-
0480: 80 C7 20 03 01 C7 20 03  01 73 70 77 31 45 1A 80  .. ... ..spw1E..
0490: F8 FF FF 7F F8 FF FF 7F  63 68 61 63 00 80 2B C7  ........chac..+.
04A0: 20 03 01 30 80 23 2B 8F  20 03 01 31 80 23 52 1A   ..0.#+. ..1.#R.
04B0: 80 F8 FF FF 7F F8 FF FF  7F 73 31 35 30 45 1A 80  .........s150E..
04C0: F8 FF FF 7F F8 FF FF 7F  73 31 35 31 00 80 5B 16  ........s151..[.
04D0: 80 8F 20 03 01 8F 20 03  01 73 70 77 34 2B 8F 20  .. ... ..spw4+. 
04E0: 03 01 32 80 23 52 1A 80  F8 FF FF 7F F8 FF FF 7F  ..2.#R..........
04F0: 73 31 35 31 45 1A 80 F8  FF FF 7F F8 FF FF 7F 73  s151E..........s
0500: 31 35 32 00 80 6E 8D 20  03 01 33 80 99 8D 20 03  152..n. ..3... .
0510: 01 2B 8D 20 03 01 34 80  23 52 1A 80 F8 FF FF 7F  .+. ..4.#R......
0520: F8 FF FF 7F 73 31 35 32  45 1A 80 F8 FF FF 7F F8  ....s152E.......
0530: FF FF 7F 73 31 35 33 00  80 5B 2D 80 C7 20 03 01  ...s153..[-.. ..
0540: C7 20 03 01 73 70 77 32  2B C7 20 03 01 35 80 23  . ..spw2+. ..5.#
0550: 52 1A 80 F8 FF FF 7F F8  FF FF 7F 73 31 35 33 45  R..........s153E
0560: 1A 80 F8 FF FF 7F F8 FF  FF 7F 73 31 35 34 00 80  ..........s154..
0570: 2B 8F 20 03 01 36 80 23  2B 8F 20 03 01 37 80 23  +. ..6.#+. ..7.#
0580: 52 1A 80 F8 FF FF 7F F8  FF FF 7F 73 31 35 34 45  R..........s154E
0590: 1A 80 F8 FF FF 7F F8 FF  FF 7F 73 31 35 35 00 80  ..........s155..
05A0: 5B 2D 80 C7 20 03 01 C7  20 03 01 73 70 77 31 45  [-.. ... ..spw1E
05B0: 1A 80 F8 FF FF 7F F8 FF  FF 7F 63 68 61 63 00 80  ..........chac..
05C0: 2B C7 20 03 01 38 80 23  66 39 80 8D 20 03 01 8D  +. ..8.#f9.. ...
05D0: 20 03 01 74 6C 6B 30 2B  8D 20 03 01 3A 80 23 52   ..tlk0+. ..:.#R
05E0: 1A 80 F8 FF FF 7F F8 FF  FF 7F 73 31 35 35 45 1A  ..........s155E.
05F0: 80 F8 FF FF 7F F8 FF FF  7F 73 31 35 36 00 80 2B  .........s156..+
0600: 8D 20 03 01 3B 80 23 52  1A 80 F8 FF FF 7F F8 FF  . ..;.#R........
0610: FF 7F 73 31 35 36 45 1A  80 F8 FF FF 7F F8 FF FF  ..s156E.........
0620: 7F 73 31 35 37 00 80 5B  16 80 8F 20 03 01 8F 20  .s157..[... ... 
0630: 03 01 73 70 77 35 45 1A  80 F8 FF FF 7F F8 FF FF  ..spw5E.........
0640: 7F 73 70 77 32 00 80 1C  3C 80 45 3D 80 F8 FF FF  .spw2...<.E=....
0650: 7F F8 FF FF 7F 66 64 6F  30 00 80 55 3D 80 F8 FF  .....fdo0..U=...
0660: FF 7F F8 FF FF 7F 66 64  6F 30 52 1A 80 F8 FF FF  ......fdo0R.....
0670: 7F F8 FF FF 7F 73 31 35  37 4E 01 8F 20 03 01 6B  .....s157N.. ..k
0680: 69 64 6C 30 8D 20 03 01  7B 8D 20 03 01 1C 3E 80  idl0. ..{. ...>.
0690: 5B 17 80 8D 20 03 01 8D  20 03 01 61 62 75 33 4E  [... ... ..abu3N
06A0: 00 8C 20 03 01 80 8C 20  03 01 45 1A 80 F8 FF FF  .. .... ..E.....
06B0: 7F F8 FF FF 7F 64 6F 6B  61 00 80 1C 01 80 45 1A  .....doka.....E.
06C0: 80 F8 FF FF 7F F8 FF FF  7F 73 31 35 38 00 80 1A  .........s158...
06D0: 71 68 2B 8C 20 03 01 3F  80 23 52 1A 80 F8 FF FF  qh+. ..?.#R.....
06E0: 7F F8 FF FF 7F 73 31 35  38 45 1A 80 F8 FF FF 7F  .....s158E......
06F0: F8 FF FF 7F 73 31 35 39  00 80 2B 8C 20 03 01 40  ....s159..+. ..@
0700: 80 23 2B C7 20 03 01 41  80 23 52 1A 80 F8 FF FF  .#+. ..A.#R.....
0710: 7F F8 FF FF 7F 73 31 35  39 45 1A 80 F8 FF FF 7F  .....s159E......
0720: F8 FF FF 7F 73 31 36 31  00 80 2B 8D 20 03 01 42  ....s161..+. ..B
0730: 80 23 52 1A 80 F8 FF FF  7F F8 FF FF 7F 73 31 36  .#R..........s16
0740: 31 45 1A 80 F8 FF FF 7F  F8 FF FF 7F 73 31 36 30  1E..........s160
0750: 00 80 5B 17 80 8D 20 03  01 8D 20 03 01 61 62 75  ..[... ... ..abu
0760: 34 2B 8D 20 03 01 43 80  23 53 8D 20 03 01 8D 20  4+. ..C.#S. ... 
0770: 03 01 61 62 75 34 5B 44  80 8C 20 03 01 8C 20 03  ..abu4[D.. ... .
0780: 01 74 68 6B 30 52 1A 80  F8 FF FF 7F F8 FF FF 7F  .thk0R..........
0790: 73 31 36 30 45 1A 80 F8  FF FF 7F F8 FF FF 7F 73  s160E..........s
07A0: 31 36 32 00 80 BA F0 FF  FF 7F 45 80 46 80 0A 80  162.......E.F...
07B0: 47 80 80 F0 FF FF 7F 2B  8C 20 03 01 48 80 23 52  G......+. ..H.#R
07C0: 1A 80 F8 FF FF 7F F8 FF  FF 7F 73 31 36 32 45 1A  ..........s162E.
07D0: 80 F8 FF FF 7F F8 FF FF  7F 73 31 36 33 00 80 27  .........s163..'
07E0: 05 8D 20 03 01 A3 5B 44  80 8C 20 03 01 8C 20 03  .. ...[D.. ... .
07F0: 01 74 68 6B 31 2B 8C 20  03 01 49 80 23 2A 05 8D  .thk1+. ..I.#*..
0800: 20 03 01 52 1A 80 F8 FF  FF 7F F8 FF FF 7F 73 31   ..R..........s1
0810: 36 33 02 87 7F 3E 80 80  2E 08 45 1A 80 F8 FF FF  63...>....E.....
0820: 7F F8 FF FF 7F 73 31 36  35 00 80 01 5B 08 02 87  .....s165...[...
0830: 7F 4A 80 80 4A 08 45 1A  80 F8 FF FF 7F F8 FF FF  .J..J.E.........
0840: 7F 73 31 36 35 00 80 01  5B 08 45 1A 80 F8 FF FF  .s165...[.E.....
0850: 7F F8 FF FF 7F 73 31 36  34 00 80 5B 17 80 8D 20  .....s164..[... 
0860: 03 01 8D 20 03 01 61 62  75 30 24 4B 80 00 80 00  ... ..abu0$K....
0870: 80 25 02 00 10 00 80 00  84 09 52 1A 80 F8 FF FF  .%........R.....
0880: 7F F8 FF FF 7F 73 31 36  34 52 1A 80 F8 FF FF 7F  .....s164R......
0890: F8 FF FF 7F 73 31 36 35  45 1A 80 F8 FF FF 7F F8  ....s165E.......
08A0: FF FF 7F 73 31 36 36 00  80 5B 2D 80 C7 20 03 01  ...s166..[-.. ..
08B0: C7 20 03 01 73 70 77 33  2B C7 20 03 01 4C 80 23  . ..spw3+. ..L.#
08C0: 53 C7 20 03 01 C7 20 03  01 73 70 77 33 52 1A 80  S. ... ..spw3R..
08D0: F8 FF FF 7F F8 FF FF 7F  73 31 36 36 45 1A 80 F8  ........s166E...
08E0: FF FF 7F F8 FF FF 7F 73  31 36 37 00 80 5B 2D 80  .......s167..[-.
08F0: C7 20 03 01 C7 20 03 01  73 70 77 34 2B C7 20 03  . ... ..spw4+. .
0900: 01 4D 80 23 5B 4E 80 8C  20 03 01 8C 20 03 01 68  .M.#[N.. ... ..h
0910: 61 70 30 52 1A 80 F8 FF  FF 7F F8 FF FF 7F 73 31  ap0R..........s1
0920: 36 37 45 1A 80 F8 FF FF  7F F8 FF FF 7F 73 31 36  67E..........s16
0930: 38 00 80 6B 69 64 6C 30  C7 20 03 01 BA C7 20 03  8..kidl0. .... .
0940: 01 4F 80 50 80 0A 80 12  80 80 C7 20 03 01 2B 8C  .O.P....... ..+.
0950: 20 03 01 51 80 23 53 8C  20 03 01 8C 20 03 01 68   ..Q.#S. ... ..h
0960: 61 70 30 5B 4E 80 8C 20  03 01 8C 20 03 01 68 61  ap0[N.. ... ..ha
0970: 70 72 52 1A 80 F8 FF FF  7F F8 FF FF 7F 73 31 36  prR..........s16
0980: 38 01 A6 0A 02 00 10 52  80 00 A6 0A 52 1A 80 F8  8......R....R...
0990: FF FF 7F F8 FF FF 7F 73  31 36 34 52 1A 80 F8 FF  .......s164R....
09A0: FF 7F F8 FF FF 7F 73 31  36 35 45 1A 80 F8 FF FF  ......s165E.....
09B0: 7F F8 FF FF 7F 73 31 36  36 00 80 5B 2D 80 C7 20  .....s166..[-.. 
09C0: 03 01 C7 20 03 01 73 70  77 33 2B C7 20 03 01 53  ... ..spw3+. ..S
09D0: 80 23 53 C7 20 03 01 C7  20 03 01 73 70 77 33 52  .#S. ... ..spw3R
09E0: 1A 80 F8 FF FF 7F F8 FF  FF 7F 73 31 36 36 45 1A  ..........s166E.
09F0: 80 F8 FF FF 7F F8 FF FF  7F 73 31 36 37 00 80 5B  .........s167..[
0A00: 2D 80 C7 20 03 01 C7 20  03 01 73 70 77 34 2B C7  -.. ... ..spw4+.
0A10: 20 03 01 54 80 23 5B 44  80 8C 20 03 01 8C 20 03   ..T.#[D.. ... .
0A20: 01 70 6E 74 30 2B 8C 20  03 01 55 80 23 53 8C 20  .pnt0+. ..U.#S. 
0A30: 03 01 8C 20 03 01 70 6E  74 30 5B 44 80 8C 20 03  ... ..pnt0[D.. .
0A40: 01 8C 20 03 01 70 6E 74  31 52 1A 80 F8 FF FF 7F  .. ..pnt1R......
0A50: F8 FF FF 7F 73 31 36 37  45 1A 80 F8 FF FF 7F F8  ....s167E.......
0A60: FF FF 7F 73 31 36 39 00  80 6B 69 64 6C 30 C7 20  ...s169..kidl0. 
0A70: 03 01 BA C7 20 03 01 4F  80 50 80 0A 80 12 80 80  .... ..O.P......
0A80: C7 20 03 01 2B 8C 20 03  01 56 80 23 2B 8C 20 03  . ..+. ..V.#+. .
0A90: 01 57 80 23 52 1A 80 F8  FF FF 7F F8 FF FF 7F 73  .W.#R..........s
0AA0: 31 36 39 01 A6 0A 45 1A  80 F8 FF FF 7F F8 FF FF  169...E.........
0AB0: 7F 73 31 37 30 00 80 5B  58 80 C7 20 03 01 C7 20  .s170..[X.. ... 
0AC0: 03 01 74 6C 6B 30 2B C7  20 03 01 59 80 23 5B 58  ..tlk0+. ..Y.#[X
0AD0: 80 C7 20 03 01 C7 20 03  01 74 6C 6B 31 53 C7 20  .. ... ..tlk1S. 
0AE0: 03 01 C7 20 03 01 74 6C  6B 31 5B 5A 80 C7 20 03  ... ..tlk1[Z.. .
0AF0: 01 C7 20 03 01 79 61 68  30 2B C7 20 03 01 5B 80  .. ..yah0+. ..[.
0B00: 23 53 C7 20 03 01 C7 20  03 01 79 61 68 30 52 1A  #S. ... ..yah0R.
0B10: 80 F8 FF FF 7F F8 FF FF  7F 73 31 37 30 45 1A 80  .........s170E..
0B20: F8 FF FF 7F F8 FF FF 7F  73 31 37 31 00 80 5B 17  ........s171..[.
0B30: 80 8D 20 03 01 8D 20 03  01 61 62 75 31 45 1A 80  .. ... ..abu1E..
0B40: F8 FF FF 7F F8 FF FF 7F  61 62 75 31 00 80 2B 8D  ........abu1..+.
0B50: 20 03 01 5C 80 23 7C 00  8C 20 03 01 2B 8C 20 03   ..\.#|.. ..+. .
0B60: 01 5D 80 23 7C 01 8C 20  03 01 52 1A 80 F8 FF FF  .].#|.. ..R.....
0B70: 7F F8 FF FF 7F 73 31 37  31 45 1A 80 F8 FF FF 7F  .....s171E......
0B80: F8 FF FF 7F 73 31 37 32  00 80 5B 17 80 8D 20 03  ....s172..[... .
0B90: 01 8D 20 03 01 61 62 75  32 45 1A 80 F8 FF FF 7F  .. ..abu2E......
0BA0: F8 FF FF 7F 61 62 75 32  00 80 5B 44 80 8C 20 03  ....abu2..[D.. .
0BB0: 01 8C 20 03 01 74 6C 6B  30 2B 8C 20 03 01 5E 80  .. ..tlk0+. ..^.
0BC0: 23 5B 44 80 8C 20 03 01  8C 20 03 01 74 6C 6B 31  #[D.. ... ..tlk1
0BD0: 5B 58 80 C7 20 03 01 C7  20 03 01 74 6C 6B 30 2B  [X.. ... ..tlk0+
0BE0: C7 20 03 01 5F 80 23 5B  58 80 C7 20 03 01 C7 20  . .._.#[X.. ... 
0BF0: 03 01 74 6C 6B 31 52 1A  80 F8 FF FF 7F F8 FF FF  ..tlk1R.........
0C00: 7F 73 31 37 32 45 1A 80  F8 FF FF 7F F8 FF FF 7F  .s172E..........
0C10: 73 31 37 33 00 80 5B 44  80 8C 20 03 01 8C 20 03  s173..[D.. ... .
0C20: 01 74 6C 6B 30 2B 8C 20  03 01 60 80 23 5D 00 80  .tlk0+. ..`.#]..
0C30: 01 80 52 1A 80 F8 FF FF  7F F8 FF FF 7F 73 31 37  ..R..........s17
0C40: 33 45 1A 80 F8 FF FF 7F  F8 FF FF 7F 73 31 37 34  3E..........s174
0C50: 00 80 27 05 C7 20 03 01  33 7C 00 8C 20 03 01 2B  ..'.. ..3|.. ..+
0C60: 8C 20 03 01 31 80 23 7C  01 8C 20 03 01 7C 00 8D  . ..1.#|.. ..|..
0C70: 20 03 01 2B 8D 20 03 01  61 80 23 7C 01 8D 20 03   ..+. ..a.#|.. .
0C80: 01 52 1A 80 F8 FF FF 7F  F8 FF FF 7F 73 31 37 34  .R..........s174
0C90: 45 1A 80 F8 FF FF 7F F8  FF FF 7F 73 31 37 35 00  E..........s175.
0CA0: 80 5B 44 80 8C 20 03 01  8C 20 03 01 74 6C 6B 31  .[D.. ... ..tlk1
0CB0: 2B 8C 20 03 01 62 80 23  79 00 8D 20 03 01 11 21  +. ..b.#y.. ...!
0CC0: 03 01 2B 8D 20 03 01 63  80 23 1A 92 68 48 64 80  ..+. ..c.#..hHd.
0CD0: 1C 65 80 52 1A 80 F8 FF  FF 7F F8 FF FF 7F 73 31  .e.R..........s1
0CE0: 37 35 1C 26 80 6B 69 64  6C 30 8C 20 03 01 29 10  75.&.kidl0. ..).
0CF0: 8C 20 03 01 25 29 10 0B  22 03 01 1D 5C 00 66 80  . ..%).."...\.f.
0D00: 5C 01 66 80 9A 46 00 45  3D 80 F0 FF FF 7F F0 FF  \.f..F.E=.......
0D10: FF 7F 66 64 69 32 00 80  21 00                    ..fdi2..!.      
```

#### Opcodes

```
  0: 0x0001 [0x42] SET_CLI_EVENT_CANCEL_DATA()
  1: 0x0002 [0x5D] SET_MUSIC_VOLUME(volume=0*, fade_time=120*)
  2: 0x0007 [0x1A] CALL_SUBROUTINE(address=0x6892)
  3: 0x000A [0x46] CAMERA_CONTROL: Disable user control
  4: 0x000C [0x38] SET_CLIENT_EVENT_MODE(mode=19*)
  5: 0x000F [0x75] LOAD_ROOM(Load indoor room, room=563*)
  6: 0x0013 [0x75] LOAD_ROOM(No action)
  7: 0x0015 [0x2F] Ovjang (ID: 16982215/0x010320C7)->Render.Flags0 &= ~0x80000 // Bit 19
  8: 0x001B [0x4E] SET_ENTITY_HIDE_FLAG: Show Ovjang (ID: 16982215/0x010320C7)
  9: 0x0021 [0x4E] SET_ENTITY_HIDE_FLAG: Show ??? (ID: 16982289/0x01032111)
 10: 0x0027 [0x27] REQ_SET(priority=0x10, entity_id=Naja Salaheem (ID: 16982159/0x0103208F), tag_num=0x04)
 11: 0x002E [0x27] REQ_SET(priority=0x10, entity_id=Naja Salaheem (ID: 16982156/0x0103208C), tag_num=0x24)
 12: 0x0035 [0x29] REQ_SET_WAIT(priority=0x10, entity_id=Unnamed NPC (ID: 16982539/0x0103220B), tag_num=0x1C)
 13: 0x003C [0x92] Naja Salaheem (ID: 16982156/0x0103208C)->Render.Flags3 ^= 0x01
 14: 0x0042 [0x92] Naja Salaheem (ID: 16982159/0x0103208F)->Render.Flags3 ^= 0x01
 15: 0x0048 [0x92] Abquhbah (ID: 16982157/0x0103208D)->Render.Flags3 ^= 0x01
 16: 0x004E [0x92] Ovjang (ID: 16982215/0x010320C7)->Render.Flags3 ^= 0x01
 17: 0x0054 [0x94] LocalPlayer->Render.Flags3 ^= 0x01
 18: 0x005A [0x94] Naja Salaheem (ID: 16982156/0x0103208C)->Render.Flags3 ^= 0x01
 19: 0x0060 [0x94] Naja Salaheem (ID: 16982159/0x0103208F)->Render.Flags3 ^= 0x01
 20: 0x0066 [0x94] Abquhbah (ID: 16982157/0x0103208D)->Render.Flags3 ^= 0x01
 21: 0x006C [0x94] Ovjang (ID: 16982215/0x010320C7)->Render.Flags3 ^= 0x01
 22: 0x0072 [0xBA] SET_ENTITY_POSITION(entity_id=LocalPlayer, pos_x=28.866*, pos_z=-55.661*, pos_y=-6.000*, direction=1.4°*)
 23: 0x007F [0xBA] SET_ENTITY_POSITION(entity_id=Unnamed NPC (ID: 16982539/0x0103220B), pos_x=28.866*, pos_z=-55.661*, pos_y=-6.000*, direction=1.4°*)
 24: 0x008C [0xBA] SET_ENTITY_POSITION(entity_id=Naja Salaheem (ID: 16982156/0x0103208C), pos_x=22.700*, pos_z=-45.591*, pos_y=-7.804*, direction=0.0°*)
 25: 0x0099 [0xBA] SET_ENTITY_POSITION(entity_id=Naja Salaheem (ID: 16982159/0x0103208F), pos_x=22.956*, pos_z=-45.615*, pos_y=-7.826*, direction=0.0°*)
 26: 0x00A6 [0xBA] SET_ENTITY_POSITION(entity_id=Abquhbah (ID: 16982157/0x0103208D), pos_x=22.057*, pos_z=-44.643*, pos_y=-7.804*, direction=0.0°*)
 27: 0x00B3 [0xBA] SET_ENTITY_POSITION(entity_id=Ovjang (ID: 16982215/0x010320C7), pos_x=25.464*, pos_z=-45.080*, pos_y=-7.804*, direction=180.0°*)
 28: 0x00C0 [0xBA] SET_ENTITY_POSITION(entity_id=??? (ID: 16982289/0x01032111), pos_x=25.456*, pos_z=-44.765*, pos_y=-7.804*, direction=192.0°*)
 29: 0x00CD [0x80] LOAD_WAIT(entity=LocalPlayer)
 30: 0x00D2 [0x80] LOAD_WAIT(entity=Naja Salaheem (ID: 16982156/0x0103208C))
 31: 0x00D7 [0x80] LOAD_WAIT(entity=Naja Salaheem (ID: 16982159/0x0103208F))
 32: 0x00DC [0x80] LOAD_WAIT(entity=Abquhbah (ID: 16982157/0x0103208D))
 33: 0x00E1 [0x80] LOAD_WAIT(entity=Ovjang (ID: 16982215/0x010320C7))
 34: 0x00E6 [0x4E] SET_ENTITY_HIDE_FLAG: Hide Naja Salaheem (ID: 16982156/0x0103208C)
 35: 0x00EC [0x81] SET_ENTITY_BLINKING(blink_flag=0x00, entity=Naja Salaheem (ID: 16982159/0x0103208F))
 36: 0x00F2 [0x5B] LOAD_EXT_SCHEDULER: Load scheduler "spw0" with entities [Naja Salaheem (ID: 16982159/0x0103208F), Naja Salaheem (ID: 16982159/0x0103208F)], work=1164*
 37: 0x0101 [0x5B] LOAD_EXT_SCHEDULER: Load scheduler "abu0" with entities [Abquhbah (ID: 16982157/0x0103208D), Abquhbah (ID: 16982157/0x0103208D)], work=1481*
 38: 0x0110 [0x1C] WAIT(15* ticks)
 39: 0x0113 [0x27] REQ_SET(priority=0x10, entity_id=Unnamed NPC (ID: 16982539/0x0103220B), tag_num=0x30)
 40: 0x011A [0x5C] MUSIC_CONTROL: Set Idle (Day) music to song 163*
 41: 0x011E [0x5C] MUSIC_CONTROL: Set Idle (Night) music to song 163*
 42: 0x0122 [0x9A] WAIT_MUSIC_SERVER()
 43: 0x0123 [0x45] LOAD_SCHEDULED_TASK: Load scheduler "s141" with entities [EventEntity, EventEntity], work=[337*, 0*]
 44: 0x0134 [0x1A] CALL_SUBROUTINE(address=0x6871)
 45: 0x0137 [0x2B] ??? (ID: 16982289/0x01032111) [14375*]:
    → "M... Ma...\u0007Ma...\u007F1\u0000\u0007"
 46: 0x013E [0x23] WAIT_FOR_DIALOG_INTERACTION
 47: 0x013F [0x52] END_LOAD_SCHEDULER: End scheduler "s141" with entities [EventEntity, EventEntity], work=337*
 48: 0x014E [0x45] LOAD_SCHEDULED_TASK: Load scheduler "s142" with entities [EventEntity, EventEntity], work=[337*, 0*]
 49: 0x015F [0x2B] Naja Salaheem (ID: 16982159/0x0103208F) [14375*]:
    → "M... Ma...\u0007Ma...\u007F1\u0000\u0007"
 50: 0x0166 [0x23] WAIT_FOR_DIALOG_INTERACTION
 51: 0x0167 [0x52] END_LOAD_SCHEDULER: End scheduler "s142" with entities [EventEntity, EventEntity], work=337*
 52: 0x0176 [0x45] LOAD_SCHEDULED_TASK: Load scheduler "s143" with entities [EventEntity, EventEntity], work=[337*, 0*]
 53: 0x0187 [0x5B] LOAD_EXT_SCHEDULER: Load scheduler "abu1" with entities [Abquhbah (ID: 16982157/0x0103208D), Abquhbah (ID: 16982157/0x0103208D)], work=1481*
 54: 0x0196 [0x45] LOAD_SCHEDULED_TASK: Load scheduler "abu1" with entities [EventEntity, EventEntity], work=[337*, 0*]
 55: 0x01A7 [0x2B] Abquhbah (ID: 16982157/0x0103208D) [14376*]:
    → "P-President Naja... If you would permit me to--\u007F1\u0000\u0007"
 56: 0x01AE [0x23] WAIT_FOR_DIALOG_INTERACTION
 57: 0x01AF [0x5B] LOAD_EXT_SCHEDULER: Load scheduler "spw2" with entities [Naja Salaheem (ID: 16982159/0x0103208F), Naja Salaheem (ID: 16982159/0x0103208F)], work=1164*
 58: 0x01BE [0x45] LOAD_SCHEDULED_TASK: Load scheduler "spw2" with entities [EventEntity, EventEntity], work=[337*, 0*]
 59: 0x01CF [0x2B] Naja Salaheem (ID: 16982159/0x0103208F) [14377*]:
    → "Shut up already!\u0007If I could just...\u007F1\u0000\u0007"
 60: 0x01D6 [0x23] WAIT_FOR_DIALOG_INTERACTION
 61: 0x01D7 [0x5B] LOAD_EXT_SCHEDULER: Load scheduler "abu2" with entities [Abquhbah (ID: 16982157/0x0103208D), Abquhbah (ID: 16982157/0x0103208D)], work=1481*
 62: 0x01E6 [0x45] LOAD_SCHEDULED_TASK: Load scheduler "abu2" with entities [EventEntity, EventEntity], work=[337*, 0*]
 63: 0x01F7 [0x52] END_LOAD_SCHEDULER: End scheduler "s143" with entities [EventEntity, EventEntity], work=337*
 64: 0x0206 [0x45] LOAD_SCHEDULED_TASK: Load scheduler "s145" with entities [EventEntity, EventEntity], work=[337*, 0*]
 65: 0x0217 [0x5B] LOAD_EXT_SCHEDULER: Load scheduler "spw3" with entities [Naja Salaheem (ID: 16982159/0x0103208F), Naja Salaheem (ID: 16982159/0x0103208F)], work=1164*
 66: 0x0226 [0x45] LOAD_SCHEDULED_TASK: Load scheduler "spw3" with entities [EventEntity, EventEntity], work=[337*, 0*]
 67: 0x0237 [0x2B] Naja Salaheem (ID: 16982159/0x0103208F) [14378*]:
    → "Mai...\u0007Main......\u007F1\u0000\u0007"
 68: 0x023E [0x23] WAIT_FOR_DIALOG_INTERACTION
 69: 0x023F [0x5B] LOAD_EXT_SCHEDULER: Load scheduler "abu1" with entities [Abquhbah (ID: 16982157/0x0103208D), Abquhbah (ID: 16982157/0x0103208D)], work=1481*
 70: 0x024E [0x45] LOAD_SCHEDULED_TASK: Load scheduler "abu1" with entities [EventEntity, EventEntity], work=[337*, 0*]
 71: 0x025F [0x2B] Abquhbah (ID: 16982157/0x0103208D) [14379*]:
    → "Of course I could be mistaken, but perhaps it reads, \u00072main gauche\u00073?\u007F1\u0000\u0007"
 72: 0x0266 [0x23] WAIT_FOR_DIALOG_INTERACTION
 73: 0x0267 [0x5B] LOAD_EXT_SCHEDULER: Load scheduler "spw2" with entities [Naja Salaheem (ID: 16982159/0x0103208F), Naja Salaheem (ID: 16982159/0x0103208F)], work=1164*
 74: 0x0276 [0x45] LOAD_SCHEDULED_TASK: Load scheduler "spw2" with entities [EventEntity, EventEntity], work=[337*, 0*]
 75: 0x0287 [0x5B] LOAD_EXT_SCHEDULER: Load scheduler "abu2" with entities [Abquhbah (ID: 16982157/0x0103208D), Abquhbah (ID: 16982157/0x0103208D)], work=1481*
 76: 0x0296 [0x45] LOAD_SCHEDULED_TASK: Load scheduler "abu2" with entities [EventEntity, EventEntity], work=[337*, 0*]
 77: 0x02A7 [0x53] WAIT_SCHEDULER_TASK: Wait for scheduler "spw2" with entities [Naja Salaheem (ID: 16982159/0x0103208F), Naja Salaheem (ID: 16982159/0x0103208F)]
 78: 0x02B4 [0x52] END_LOAD_SCHEDULER: End scheduler "s145" with entities [EventEntity, EventEntity], work=337*
 79: 0x02C3 [0x45] LOAD_SCHEDULED_TASK: Load scheduler "s146" with entities [EventEntity, EventEntity], work=[337*, 0*]
 80: 0x02D4 [0x5B] LOAD_EXT_SCHEDULER: Load scheduler "spw3" with entities [Naja Salaheem (ID: 16982159/0x0103208F), Naja Salaheem (ID: 16982159/0x0103208F)], work=1164*
 81: 0x02E3 [0x45] LOAD_SCHEDULED_TASK: Load scheduler "spw3" with entities [EventEntity, EventEntity], work=[337*, 0*]
 82: 0x02F4 [0xBA] SET_ENTITY_POSITION(entity_id=LocalPlayer, pos_x=34.053*, pos_z=-51.015*, pos_y=-6.601*, direction=1.3°*)
 83: 0x0301 [0x80] LOAD_WAIT(entity=LocalPlayer)
 84: 0x0306 [0x2B] Naja Salaheem (ID: 16982159/0x0103208F) [14380*]:
    → "Well of course it does!\u0007I was just trying to determine the...the linguistic rrroot of the word!\u0007Now stop interrupting. Where was I? Ah, yes. A scepter s-staff...\u007F1\u0000\u0007"
 85: 0x030D [0x23] WAIT_FOR_DIALOG_INTERACTION
 86: 0x030E [0x2B] Naja Salaheem (ID: 16982159/0x0103208F) [14381*]:
    → "A swordbreaker, a m-mage's staff...\u007F1\u0000\u0007"
 87: 0x0315 [0x23] WAIT_FOR_DIALOG_INTERACTION
 88: 0x0316 [0x5B] LOAD_EXT_SCHEDULER: Load scheduler "spw1" with entities [Naja Salaheem (ID: 16982159/0x0103208F), Naja Salaheem (ID: 16982159/0x0103208F)], work=1164*
 89: 0x0325 [0x45] LOAD_SCHEDULED_TASK: Load scheduler "spw1" with entities [EventEntity, EventEntity], work=[337*, 0*]
 90: 0x0336 [0x2B] Naja Salaheem (ID: 16982159/0x0103208F) [14382*]:
    → "An el--elder staff?\u0007That one's not my fault. The penmanship is a little bit questionable herrre.\u007F1\u0000\u0007"
 91: 0x033D [0x23] WAIT_FOR_DIALOG_INTERACTION
 92: 0x033E [0x27] REQ_SET(priority=0x05, entity_id=LocalPlayer, tag_num=0x63)
 93: 0x0345 [0x1C] WAIT(30* ticks)
 94: 0x0348 [0x52] END_LOAD_SCHEDULER: End scheduler "s146" with entities [EventEntity, EventEntity], work=337*
 95: 0x0357 [0x45] LOAD_SCHEDULED_TASK: Load scheduler "s144" with entities [EventEntity, EventEntity], work=[337*, 0*]
 96: 0x0368 [0x2B] Naja Salaheem (ID: 16982159/0x0103208F) [14383*]:
    → "Let's see, what else do we have?\u0007A wightslayer, a pair of burning f-fists, a radiant la-lance, a brave blade...\u007F1\u0000\u0007"
 97: 0x036F [0x23] WAIT_FOR_DIALOG_INTERACTION
 98: 0x0370 [0x5B] LOAD_EXT_SCHEDULER: Load scheduler "spw1" with entities [Naja Salaheem (ID: 16982159/0x0103208F), Naja Salaheem (ID: 16982159/0x0103208F)], work=1164*
 99: 0x037F [0x45] LOAD_SCHEDULED_TASK: Load scheduler "spw1" with entities [EventEntity, EventEntity], work=[337*, 0*]
100: 0x0390 [0x2B] Naja Salaheem (ID: 16982159/0x0103208F) [14384*]:
    → "<Sigh>... How long is this list!?\u007F1\u0000\u0007"
101: 0x0397 [0x23] WAIT_FOR_DIALOG_INTERACTION
102: 0x0398 [0x2A] GET_REQ_LEVEL(level=5, entity_id=LocalPlayer)
103: 0x039E [0x52] END_LOAD_SCHEDULER: End scheduler "s144" with entities [EventEntity, EventEntity], work=337*
104: 0x03AD [0x45] LOAD_SCHEDULED_TASK: Load scheduler "s147" with entities [EventEntity, EventEntity], work=[337*, 0*]
105: 0x03BE [0xBA] SET_ENTITY_POSITION(entity_id=Ovjang (ID: 16982215/0x010320C7), pos_x=25.300*, pos_z=-45.575*, pos_y=-7.804*, direction=180.0°*)
106: 0x03CB [0x80] LOAD_WAIT(entity=Ovjang (ID: 16982215/0x010320C7))
107: 0x03D0 [0x2B] Naja Salaheem (ID: 16982159/0x0103208F) [14385*]:
    → "A double axe, a d-dancing dagger, a killer bow, a vorrrpal sword...\u007F1\u0000\u0007"
108: 0x03D7 [0x23] WAIT_FOR_DIALOG_INTERACTION
109: 0x03D8 [0x2B] Naja Salaheem (ID: 16982159/0x0103208F) [14386*]:
    → "A quicksilver... A werebuster...\u0007And a d-death... Death!?\u007F1\u0000\u0007"
110: 0x03DF [0x23] WAIT_FOR_DIALOG_INTERACTION
111: 0x03E0 [0x5B] LOAD_EXT_SCHEDULER: Load scheduler "spw0" with entities [Ovjang (ID: 16982215/0x010320C7), Ovjang (ID: 16982215/0x010320C7)], work=1137*
112: 0x03EF [0x52] END_LOAD_SCHEDULER: End scheduler "s147" with entities [EventEntity, EventEntity], work=337*
113: 0x03FE [0x45] LOAD_SCHEDULED_TASK: Load scheduler "s148" with entities [EventEntity, EventEntity], work=[337*, 0*]
114: 0x040F [0x2B] Ovjang (ID: 16982215/0x010320C7) [14387*]:
    → "A death sickle!\u007F1\u0000\u0007"
115: 0x0416 [0x23] WAIT_FOR_DIALOG_INTERACTION
116: 0x0417 [0x53] WAIT_SCHEDULER_TASK: Wait for scheduler "spw0" with entities [Ovjang (ID: 16982215/0x010320C7), Ovjang (ID: 16982215/0x010320C7)]
117: 0x0424 [0x52] END_LOAD_SCHEDULER: End scheduler "s148" with entities [EventEntity, EventEntity], work=337*
118: 0x0433 [0x45] LOAD_SCHEDULED_TASK: Load scheduler "s149" with entities [EventEntity, EventEntity], work=[337*, 0*]
119: 0x0444 [0x6B] STOP_AND_IDLE: Abquhbah (ID: 16982157/0x0103208D) stops current action and resets to idle (animation="idl0")
120: 0x044D [0x2B] Ovjang (ID: 16982215/0x010320C7) [14388*]:
    → "If I may? Also a sturdy axe, a pair of inferno c-claws, a windslicer, and a sasuke katana.\u007F1\u0000\u0007"
121: 0x0454 [0x23] WAIT_FOR_DIALOG_INTERACTION
122: 0x0455 [0x4A] Abquhbah (ID: 16982157/0x0103208D) looks at Naja Salaheem (ID: 16982159/0x0103208F)
123: 0x045E [0x52] END_LOAD_SCHEDULER: End scheduler "s149" with entities [EventEntity, EventEntity], work=337*
124: 0x046D [0x45] LOAD_SCHEDULED_TASK: Load scheduler "s150" with entities [EventEntity, EventEntity], work=[337*, 0*]
125: 0x047E [0x5B] LOAD_EXT_SCHEDULER: Load scheduler "spw1" with entities [Ovjang (ID: 16982215/0x010320C7), Ovjang (ID: 16982215/0x010320C7)], work=1137*
126: 0x048D [0x45] LOAD_SCHEDULED_TASK: Load scheduler "chac" with entities [EventEntity, EventEntity], work=[337*, 0*]
127: 0x049E [0x2B] Ovjang (ID: 16982215/0x010320C7) [14389*]:
    → "You should at the very least make efforts to learn the lexicon of your stock and trade, Naja!\u007F1\u0000\u0007"
128: 0x04A5 [0x23] WAIT_FOR_DIALOG_INTERACTION
129: 0x04A6 [0x2B] Naja Salaheem (ID: 16982159/0x0103208F) [14390*]:
    → "...\u007F1\u0000\u0007"
130: 0x04AD [0x23] WAIT_FOR_DIALOG_INTERACTION
131: 0x04AE [0x52] END_LOAD_SCHEDULER: End scheduler "s150" with entities [EventEntity, EventEntity], work=337*
132: 0x04BD [0x45] LOAD_SCHEDULED_TASK: Load scheduler "s151" with entities [EventEntity, EventEntity], work=[337*, 0*]
133: 0x04CE [0x5B] LOAD_EXT_SCHEDULER: Load scheduler "spw4" with entities [Naja Salaheem (ID: 16982159/0x0103208F), Naja Salaheem (ID: 16982159/0x0103208F)], work=1164*
134: 0x04DD [0x2B] Naja Salaheem (ID: 16982159/0x0103208F) [14391*]:
    → "With all due rrrespect, Ozjang, this is quite the list of shady-sounding weapons you've got here.\u007F1\u0000\u0007"
135: 0x04E4 [0x23] WAIT_FOR_DIALOG_INTERACTION
136: 0x04E5 [0x52] END_LOAD_SCHEDULER: End scheduler "s151" with entities [EventEntity, EventEntity], work=337*
137: 0x04F4 [0x45] LOAD_SCHEDULED_TASK: Load scheduler "s152" with entities [EventEntity, EventEntity], work=[337*, 0*]
138: 0x0505 [0x6E] Abquhbah (ID: 16982157/0x0103208D) uses emote 29*
139: 0x050C [0x99] Wait for Abquhbah (ID: 16982157/0x0103208D) animation to complete
140: 0x0511 [0x2B] Abquhbah (ID: 16982157/0x0103208D) [14392*]:
    → "President Naja, manners!\u007F1\u0000\u0007"
141: 0x0518 [0x23] WAIT_FOR_DIALOG_INTERACTION
142: 0x0519 [0x52] END_LOAD_SCHEDULER: End scheduler "s152" with entities [EventEntity, EventEntity], work=337*
143: 0x0528 [0x45] LOAD_SCHEDULED_TASK: Load scheduler "s153" with entities [EventEntity, EventEntity], work=[337*, 0*]
144: 0x0539 [0x5B] LOAD_EXT_SCHEDULER: Load scheduler "spw2" with entities [Ovjang (ID: 16982215/0x010320C7), Ovjang (ID: 16982215/0x010320C7)], work=1137*
145: 0x0548 [0x2B] Ovjang (ID: 16982215/0x010320C7) [14393*]:
    → "What have I done to deserve such disrespect?\u0007The items on the list you so clumsily plodded your way through were all pilfered from the most ennobled of owners. Their pedigree is unquestionable!\u007F1\u0000\u0007"
146: 0x054F [0x23] WAIT_FOR_DIALOG_INTERACTION
147: 0x0550 [0x52] END_LOAD_SCHEDULER: End scheduler "s153" with entities [EventEntity, EventEntity], work=337*
148: 0x055F [0x45] LOAD_SCHEDULED_TASK: Load scheduler "s154" with entities [EventEntity, EventEntity], work=[337*, 0*]
149: 0x0570 [0x2B] Naja Salaheem (ID: 16982159/0x0103208F) [14394*]:
    → "Be that as it may, even at the request of the Divine Emprrress herself I'm not sure what you expect me to do. A list of obscure weapons, the whereabouts of which we haven't the slightest clue.\u0007We may as well be looking for a sabotender needle in the middle of the desert!\u007F1\u0000\u0007"
150: 0x0577 [0x23] WAIT_FOR_DIALOG_INTERACTION
151: 0x0578 [0x2B] Naja Salaheem (ID: 16982159/0x0103208F) [14395*]:
    → "Of course, any endeavor has its prrrice...\u007F1\u0000\u0007"
152: 0x057F [0x23] WAIT_FOR_DIALOG_INTERACTION
153: 0x0580 [0x52] END_LOAD_SCHEDULER: End scheduler "s154" with entities [EventEntity, EventEntity], work=337*
154: 0x058F [0x45] LOAD_SCHEDULED_TASK: Load scheduler "s155" with entities [EventEntity, EventEntity], work=[337*, 0*]
155: 0x05A0 [0x5B] LOAD_EXT_SCHEDULER: Load scheduler "spw1" with entities [Ovjang (ID: 16982215/0x010320C7), Ovjang (ID: 16982215/0x010320C7)], work=1137*
156: 0x05AF [0x45] LOAD_SCHEDULED_TASK: Load scheduler "chac" with entities [EventEntity, EventEntity], work=[337*, 0*]
157: 0x05C0 [0x2B] Ovjang (ID: 16982215/0x010320C7) [14396*]:
    → "Slooow down, now.\u0007We were prepared for such an occurrence and are well aware of where our quarry lies.\u0007The weapons were outfitted with quartz transmitters which emit precise astral tracking signals.\u007F1\u0000\u0007"
158: 0x05C7 [0x23] WAIT_FOR_DIALOG_INTERACTION
159: 0x05C8 [0x66] LOAD_EXT_SCHEDULER_MAIN: Load scheduler "tlk0" with entities [Abquhbah (ID: 16982157/0x0103208D), Abquhbah (ID: 16982157/0x0103208D)], work=9*
160: 0x05D7 [0x2B] Abquhbah (ID: 16982157/0x0103208D) [14397*]:
    → "So you have already pinpointed the location of the perpetrator?\u007F1\u0000\u0007"
161: 0x05DE [0x23] WAIT_FOR_DIALOG_INTERACTION
162: 0x05DF [0x52] END_LOAD_SCHEDULER: End scheduler "s155" with entities [EventEntity, EventEntity], work=337*
163: 0x05EE [0x45] LOAD_SCHEDULED_TASK: Load scheduler "s156" with entities [EventEntity, EventEntity], work=[337*, 0*]
164: 0x05FF [0x2B] Abquhbah (ID: 16982157/0x0103208D) [14398*]:
    → "That certainly simplifies things. If we were to send out all of our mercenaries at once maybe...\u007F1\u0000\u0007"
165: 0x0606 [0x23] WAIT_FOR_DIALOG_INTERACTION
166: 0x0607 [0x52] END_LOAD_SCHEDULER: End scheduler "s156" with entities [EventEntity, EventEntity], work=337*
167: 0x0616 [0x45] LOAD_SCHEDULED_TASK: Load scheduler "s157" with entities [EventEntity, EventEntity], work=[337*, 0*]
168: 0x0627 [0x5B] LOAD_EXT_SCHEDULER: Load scheduler "spw5" with entities [Naja Salaheem (ID: 16982159/0x0103208F), Naja Salaheem (ID: 16982159/0x0103208F)], work=1164*
169: 0x0636 [0x45] LOAD_SCHEDULED_TASK: Load scheduler "spw2" with entities [EventEntity, EventEntity], work=[337*, 0*]
170: 0x0647 [0x1C] WAIT(90* ticks)
171: 0x064A [0x45] LOAD_SCHEDULED_TASK: Load scheduler "fdo0" with entities [EventEntity, EventEntity], work=[200*, 0*]
172: 0x065B [0x55] WAIT_LOAD_SCHEDULER: Wait for scheduler "fdo0" with entities [EventEntity, EventEntity], work=200*
173: 0x066A [0x52] END_LOAD_SCHEDULER: End scheduler "s157" with entities [EventEntity, EventEntity], work=337*
174: 0x0679 [0x4E] SET_ENTITY_HIDE_FLAG: Hide Naja Salaheem (ID: 16982159/0x0103208F)
175: 0x067F [0x6B] STOP_AND_IDLE: Abquhbah (ID: 16982157/0x0103208D) stops current action and resets to idle (animation="idl0")
176: 0x0688 [0x7B] Abquhbah (ID: 16982157/0x0103208D) stops talking
177: 0x068D [0x1C] WAIT(5* ticks)
178: 0x0690 [0x5B] LOAD_EXT_SCHEDULER: Load scheduler "abu3" with entities [Abquhbah (ID: 16982157/0x0103208D), Abquhbah (ID: 16982157/0x0103208D)], work=1481*
179: 0x069F [0x4E] SET_ENTITY_HIDE_FLAG: Show Naja Salaheem (ID: 16982156/0x0103208C)
180: 0x06A5 [0x80] LOAD_WAIT(entity=Naja Salaheem (ID: 16982156/0x0103208C))
181: 0x06AA [0x45] LOAD_SCHEDULED_TASK: Load scheduler "doka" with entities [EventEntity, EventEntity], work=[337*, 0*]
182: 0x06BB [0x1C] WAIT(120* ticks)
183: 0x06BE [0x45] LOAD_SCHEDULED_TASK: Load scheduler "s158" with entities [EventEntity, EventEntity], work=[337*, 0*]
184: 0x06CF [0x1A] CALL_SUBROUTINE(address=0x6871)
185: 0x06D2 [0x2B] Naja Salaheem (ID: 16982156/0x0103208C) [14399*]:
    → "Though it pains me to say so, unfortunately the vast majority of our merrrcenaries are currently preoccupied with other duties.\u0007I'm afraid rounding them all up at this point may prove to be quite...costly.\u007F1\u0000\u0007"
186: 0x06D9 [0x23] WAIT_FOR_DIALOG_INTERACTION
187: 0x06DA [0x52] END_LOAD_SCHEDULER: End scheduler "s158" with entities [EventEntity, EventEntity], work=337*
188: 0x06E9 [0x45] LOAD_SCHEDULED_TASK: Load scheduler "s159" with entities [EventEntity, EventEntity], work=[337*, 0*]
189: 0x06FA [0x2B] Naja Salaheem (ID: 16982156/0x0103208C) [14400*]:
    → "Just where might this place be, if I may ask?\u007F1\u0000\u0007"
190: 0x0701 [0x23] WAIT_FOR_DIALOG_INTERACTION
191: 0x0702 [0x2B] Ovjang (ID: 16982215/0x010320C7) [14401*]:
    → "Nyzul Isle!\u007F1\u0000\u0007"
192: 0x0709 [0x23] WAIT_FOR_DIALOG_INTERACTION
193: 0x070A [0x52] END_LOAD_SCHEDULER: End scheduler "s159" with entities [EventEntity, EventEntity], work=337*
194: 0x0719 [0x45] LOAD_SCHEDULED_TASK: Load scheduler "s161" with entities [EventEntity, EventEntity], work=[337*, 0*]
195: 0x072A [0x2B] Abquhbah (ID: 16982157/0x0103208D) [14402*]:
    → "Oh dear...\u007F1\u0000\u0007"
196: 0x0731 [0x23] WAIT_FOR_DIALOG_INTERACTION
197: 0x0732 [0x52] END_LOAD_SCHEDULER: End scheduler "s161" with entities [EventEntity, EventEntity], work=337*
198: 0x0741 [0x45] LOAD_SCHEDULED_TASK: Load scheduler "s160" with entities [EventEntity, EventEntity], work=[337*, 0*]
199: 0x0752 [0x5B] LOAD_EXT_SCHEDULER: Load scheduler "abu4" with entities [Abquhbah (ID: 16982157/0x0103208D), Abquhbah (ID: 16982157/0x0103208D)], work=1481*
200: 0x0761 [0x2B] Abquhbah (ID: 16982157/0x0103208D) [14403*]:
    → "I think it may be safe to assume that your thief has already been, how shall I put this, \u00072attended\u00073 to by the isle's denizens. Quite voraciously, no doubt.\u007F1\u0000\u0007"
201: 0x0768 [0x23] WAIT_FOR_DIALOG_INTERACTION
202: 0x0769 [0x53] WAIT_SCHEDULER_TASK: Wait for scheduler "abu4" with entities [Abquhbah (ID: 16982157/0x0103208D), Abquhbah (ID: 16982157/0x0103208D)]
203: 0x0776 [0x5B] LOAD_EXT_SCHEDULER: Load scheduler "thk0" with entities [Naja Salaheem (ID: 16982156/0x0103208C), Naja Salaheem (ID: 16982156/0x0103208C)], work=833*
204: 0x0785 [0x52] END_LOAD_SCHEDULER: End scheduler "s160" with entities [EventEntity, EventEntity], work=337*
205: 0x0794 [0x45] LOAD_SCHEDULED_TASK: Load scheduler "s162" with entities [EventEntity, EventEntity], work=[337*, 0*]
206: 0x07A5 [0xBA] SET_ENTITY_POSITION(entity_id=LocalPlayer, pos_x=28.177*, pos_z=-45.519*, pos_y=-7.804*, direction=191.9°*)
207: 0x07B2 [0x80] LOAD_WAIT(entity=LocalPlayer)
208: 0x07B7 [0x2B] Naja Salaheem (ID: 16982156/0x0103208C) [14404*]:
    → "Hmph. I'm afraid I just can't wrap my head around the potentially outlandish expenses that this undertaking would incur. Just think of the risks involved.\u0007And as anyone knows, no expense is sparrred when it comes to the safety of my mercenaries.\u007F1\u0000\u0007"
209: 0x07BE [0x23] WAIT_FOR_DIALOG_INTERACTION
210: 0x07BF [0x52] END_LOAD_SCHEDULER: End scheduler "s162" with entities [EventEntity, EventEntity], work=337*
211: 0x07CE [0x45] LOAD_SCHEDULED_TASK: Load scheduler "s163" with entities [EventEntity, EventEntity], work=[337*, 0*]
212: 0x07DF [0x27] REQ_SET(priority=0x05, entity_id=Abquhbah (ID: 16982157/0x0103208D), tag_num=0xA3)
213: 0x07E6 [0x5B] LOAD_EXT_SCHEDULER: Load scheduler "thk1" with entities [Naja Salaheem (ID: 16982156/0x0103208C), Naja Salaheem (ID: 16982156/0x0103208C)], work=833*
214: 0x07F5 [0x2B] Naja Salaheem (ID: 16982156/0x0103208C) [14405*]:
    → "Isn't that right, Captain \u0008? What do you think?\u007F1\u0000\u0007"
215: 0x07FC [0x23] WAIT_FOR_DIALOG_INTERACTION
216: 0x07FD [0x2A] GET_REQ_LEVEL(level=5, entity_id=Abquhbah (ID: 16982157/0x0103208D))
217: 0x0803 [0x52] END_LOAD_SCHEDULER: End scheduler "s163" with entities [EventEntity, EventEntity], work=337*
218: 0x0812 [0x02] IF !(LocalPlayer->Race == 5*) GOTO 0x082E
219: 0x081A [0x45] LOAD_SCHEDULED_TASK: Load scheduler "s165" with entities [EventEntity, EventEntity], work=[337*, 0*]
220: 0x082B [0x01] GOTO 0x085B
221: 0x082E [0x02] IF !(LocalPlayer->Race == 6*) GOTO 0x084A
222: 0x0836 [0x45] LOAD_SCHEDULED_TASK: Load scheduler "s165" with entities [EventEntity, EventEntity], work=[337*, 0*]
223: 0x0847 [0x01] GOTO 0x085B
224: 0x084A [0x45] LOAD_SCHEDULED_TASK: Load scheduler "s164" with entities [EventEntity, EventEntity], work=[337*, 0*]

SUBROUTINE_085B:
225: 0x085B [0x5B] LOAD_EXT_SCHEDULER: Load scheduler "abu0" with entities [Abquhbah (ID: 16982157/0x0103208D), Abquhbah (ID: 16982157/0x0103208D)], work=1481*
226: 0x086A [0x24] CREATE_DIALOG(message_id=14406*, default_option=0*, option_flags=0*)
    → "The costs for this mission...\u0007\u000B...will be exorbitant.\u0007...will not be necessary.\u007F1\u0000\u0007"
227: 0x0871 [0x25] WAIT_DIALOG_SELECT()
228: 0x0872 [0x02] IF !(Work_Zone[0] == 0*) GOTO 0x0984
229: 0x087A [0x52] END_LOAD_SCHEDULER: End scheduler "s164" with entities [EventEntity, EventEntity], work=337*
230: 0x0889 [0x52] END_LOAD_SCHEDULER: End scheduler "s165" with entities [EventEntity, EventEntity], work=337*
231: 0x0898 [0x45] LOAD_SCHEDULED_TASK: Load scheduler "s166" with entities [EventEntity, EventEntity], work=[337*, 0*]
232: 0x08A9 [0x5B] LOAD_EXT_SCHEDULER: Load scheduler "spw3" with entities [Ovjang (ID: 16982215/0x010320C7), Ovjang (ID: 16982215/0x010320C7)], work=1137*
233: 0x08B8 [0x2B] Ovjang (ID: 16982215/0x010320C7) [14407*]:
    → "You too, \u0008!?\u007F1\u0000\u0007"
234: 0x08BF [0x23] WAIT_FOR_DIALOG_INTERACTION
235: 0x08C0 [0x53] WAIT_SCHEDULER_TASK: Wait for scheduler "spw3" with entities [Ovjang (ID: 16982215/0x010320C7), Ovjang (ID: 16982215/0x010320C7)]
236: 0x08CD [0x52] END_LOAD_SCHEDULER: End scheduler "s166" with entities [EventEntity, EventEntity], work=337*
237: 0x08DC [0x45] LOAD_SCHEDULED_TASK: Load scheduler "s167" with entities [EventEntity, EventEntity], work=[337*, 0*]
238: 0x08ED [0x5B] LOAD_EXT_SCHEDULER: Load scheduler "spw4" with entities [Ovjang (ID: 16982215/0x010320C7), Ovjang (ID: 16982215/0x010320C7)], work=1137*
239: 0x08FC [0x2B] Ovjang (ID: 16982215/0x010320C7) [14408*]:
    → "But are you not guardian to Nashmeira herself!?\u0007I hadn't pegged you for the sellout type.\u007F1\u0000\u0007"
240: 0x0903 [0x23] WAIT_FOR_DIALOG_INTERACTION
241: 0x0904 [0x5B] LOAD_EXT_SCHEDULER: Load scheduler "hap0" with entities [Naja Salaheem (ID: 16982156/0x0103208C), Naja Salaheem (ID: 16982156/0x0103208C)], work=835*
242: 0x0913 [0x52] END_LOAD_SCHEDULER: End scheduler "s167" with entities [EventEntity, EventEntity], work=337*
243: 0x0922 [0x45] LOAD_SCHEDULED_TASK: Load scheduler "s168" with entities [EventEntity, EventEntity], work=[337*, 0*]
244: 0x0933 [0x6B] STOP_AND_IDLE: Ovjang (ID: 16982215/0x010320C7) stops current action and resets to idle (animation="idl0")
245: 0x093C [0xBA] SET_ENTITY_POSITION(entity_id=Ovjang (ID: 16982215/0x010320C7), pos_x=26.147*, pos_z=-45.665*, pos_y=-7.804*, direction=180.0°*)
246: 0x0949 [0x80] LOAD_WAIT(entity=Ovjang (ID: 16982215/0x010320C7))
247: 0x094E [0x2B] Naja Salaheem (ID: 16982156/0x0103208C) [14409*]:
    → "Well, can't argue with those priorities. Captain \u0008 is our most stellar mercenary, after all.\u007F1\u0000\u0007"
248: 0x0955 [0x23] WAIT_FOR_DIALOG_INTERACTION
249: 0x0956 [0x53] WAIT_SCHEDULER_TASK: Wait for scheduler "hap0" with entities [Naja Salaheem (ID: 16982156/0x0103208C), Naja Salaheem (ID: 16982156/0x0103208C)]
250: 0x0963 [0x5B] LOAD_EXT_SCHEDULER: Load scheduler "hapr" with entities [Naja Salaheem (ID: 16982156/0x0103208C), Naja Salaheem (ID: 16982156/0x0103208C)], work=835*
251: 0x0972 [0x52] END_LOAD_SCHEDULER: End scheduler "s168" with entities [EventEntity, EventEntity], work=337*
252: 0x0981 [0x01] GOTO 0x0AA6
253: 0x0984 [0x02] IF !(Work_Zone[0] == 1*) GOTO 0x0AA6
254: 0x098C [0x52] END_LOAD_SCHEDULER: End scheduler "s164" with entities [EventEntity, EventEntity], work=337*
255: 0x099B [0x52] END_LOAD_SCHEDULER: End scheduler "s165" with entities [EventEntity, EventEntity], work=337*
256: 0x09AA [0x45] LOAD_SCHEDULED_TASK: Load scheduler "s166" with entities [EventEntity, EventEntity], work=[337*, 0*]
257: 0x09BB [0x5B] LOAD_EXT_SCHEDULER: Load scheduler "spw3" with entities [Ovjang (ID: 16982215/0x010320C7), Ovjang (ID: 16982215/0x010320C7)], work=1137*
258: 0x09CA [0x2B] Ovjang (ID: 16982215/0x010320C7) [14410*]:
    → "You never cease to impress me, \u0008.\u007F1\u0000\u0007"
259: 0x09D1 [0x23] WAIT_FOR_DIALOG_INTERACTION
260: 0x09D2 [0x53] WAIT_SCHEDULER_TASK: Wait for scheduler "spw3" with entities [Ovjang (ID: 16982215/0x010320C7), Ovjang (ID: 16982215/0x010320C7)]
261: 0x09DF [0x52] END_LOAD_SCHEDULER: End scheduler "s166" with entities [EventEntity, EventEntity], work=337*
262: 0x09EE [0x45] LOAD_SCHEDULED_TASK: Load scheduler "s167" with entities [EventEntity, EventEntity], work=[337*, 0*]
263: 0x09FF [0x5B] LOAD_EXT_SCHEDULER: Load scheduler "spw4" with entities [Ovjang (ID: 16982215/0x010320C7), Ovjang (ID: 16982215/0x010320C7)], work=1137*
264: 0x0A0E [0x2B] Ovjang (ID: 16982215/0x010320C7) [14411*]:
    → "A true guardian of the Empire. You are my compass! My moral compass!\u007F1\u0000\u0007"
265: 0x0A15 [0x23] WAIT_FOR_DIALOG_INTERACTION
266: 0x0A16 [0x5B] LOAD_EXT_SCHEDULER: Load scheduler "pnt0" with entities [Naja Salaheem (ID: 16982156/0x0103208C), Naja Salaheem (ID: 16982156/0x0103208C)], work=833*
267: 0x0A25 [0x2B] Naja Salaheem (ID: 16982156/0x0103208C) [14412*]:
    → "That's enough out of you, \u0008! Let the grrrownups talk!\u007F1\u0000\u0007"
268: 0x0A2C [0x23] WAIT_FOR_DIALOG_INTERACTION
269: 0x0A2D [0x53] WAIT_SCHEDULER_TASK: Wait for scheduler "pnt0" with entities [Naja Salaheem (ID: 16982156/0x0103208C), Naja Salaheem (ID: 16982156/0x0103208C)]
270: 0x0A3A [0x5B] LOAD_EXT_SCHEDULER: Load scheduler "pnt1" with entities [Naja Salaheem (ID: 16982156/0x0103208C), Naja Salaheem (ID: 16982156/0x0103208C)], work=833*
271: 0x0A49 [0x52] END_LOAD_SCHEDULER: End scheduler "s167" with entities [EventEntity, EventEntity], work=337*
272: 0x0A58 [0x45] LOAD_SCHEDULED_TASK: Load scheduler "s169" with entities [EventEntity, EventEntity], work=[337*, 0*]
273: 0x0A69 [0x6B] STOP_AND_IDLE: Ovjang (ID: 16982215/0x010320C7) stops current action and resets to idle (animation="idl0")
274: 0x0A72 [0xBA] SET_ENTITY_POSITION(entity_id=Ovjang (ID: 16982215/0x010320C7), pos_x=26.147*, pos_z=-45.665*, pos_y=-7.804*, direction=180.0°*)
275: 0x0A7F [0x80] LOAD_WAIT(entity=Ovjang (ID: 16982215/0x010320C7))
276: 0x0A84 [0x2B] Naja Salaheem (ID: 16982156/0x0103208C) [14413*]:
    → "Let's see... There's the cost of a sending a solid task force into Nyzul Isle, plus what it will take to cover my laundrrry bill...\u007F1\u0000\u0007"
277: 0x0A8B [0x23] WAIT_FOR_DIALOG_INTERACTION
278: 0x0A8C [0x2B] Naja Salaheem (ID: 16982156/0x0103208C) [14414*]:
    → "Feel free to work out the details with Abquhbah here.\u007F1\u0000\u0007"
279: 0x0A93 [0x23] WAIT_FOR_DIALOG_INTERACTION
280: 0x0A94 [0x52] END_LOAD_SCHEDULER: End scheduler "s169" with entities [EventEntity, EventEntity], work=337*
281: 0x0AA3 [0x01] GOTO 0x0AA6

SUBROUTINE_0AA6:
282: 0x0AA6 [0x45] LOAD_SCHEDULED_TASK: Load scheduler "s170" with entities [EventEntity, EventEntity], work=[337*, 0*]
283: 0x0AB7 [0x5B] LOAD_EXT_SCHEDULER: Load scheduler "tlk0" with entities [Ovjang (ID: 16982215/0x010320C7), Ovjang (ID: 16982215/0x010320C7)], work=858*
284: 0x0AC6 [0x2B] Ovjang (ID: 16982215/0x010320C7) [14415*]:
    → "Hehe, you needn't worry yourself with such matters.\u007F1\u0000\u0007"
285: 0x0ACD [0x23] WAIT_FOR_DIALOG_INTERACTION
286: 0x0ACE [0x5B] LOAD_EXT_SCHEDULER: Load scheduler "tlk1" with entities [Ovjang (ID: 16982215/0x010320C7), Ovjang (ID: 16982215/0x010320C7)], work=858*
287: 0x0ADD [0x53] WAIT_SCHEDULER_TASK: Wait for scheduler "tlk1" with entities [Ovjang (ID: 16982215/0x010320C7), Ovjang (ID: 16982215/0x010320C7)]
288: 0x0AEA [0x5B] LOAD_EXT_SCHEDULER: Load scheduler "yah0" with entities [Ovjang (ID: 16982215/0x010320C7), Ovjang (ID: 16982215/0x010320C7)], work=851*
289: 0x0AF9 [0x2B] Ovjang (ID: 16982215/0x010320C7) [14416*]:
    → "Then we have an arrangement?\u0007If you are able to procure any of the weapons named on that list, then I will present you with this edict I hold here.\u007F1\u0000\u0007"
290: 0x0B00 [0x23] WAIT_FOR_DIALOG_INTERACTION
291: 0x0B01 [0x53] WAIT_SCHEDULER_TASK: Wait for scheduler "yah0" with entities [Ovjang (ID: 16982215/0x010320C7), Ovjang (ID: 16982215/0x010320C7)]
292: 0x0B0E [0x52] END_LOAD_SCHEDULER: End scheduler "s170" with entities [EventEntity, EventEntity], work=337*
293: 0x0B1D [0x45] LOAD_SCHEDULED_TASK: Load scheduler "s171" with entities [EventEntity, EventEntity], work=[337*, 0*]
294: 0x0B2E [0x5B] LOAD_EXT_SCHEDULER: Load scheduler "abu1" with entities [Abquhbah (ID: 16982157/0x0103208D), Abquhbah (ID: 16982157/0x0103208D)], work=1481*
295: 0x0B3D [0x45] LOAD_SCHEDULED_TASK: Load scheduler "abu1" with entities [EventEntity, EventEntity], work=[337*, 0*]
296: 0x0B4E [0x2B] Abquhbah (ID: 16982157/0x0103208D) [14417*]:
    → "President Naja, that envelope bears the seal of the golden-leaf serpent.\u0007It could be an Imperial invitation to the palace!\u007F1\u0000\u0007"
297: 0x0B55 [0x23] WAIT_FOR_DIALOG_INTERACTION
298: 0x0B56 [0x7C] Naja Salaheem (ID: 16982156/0x0103208C)->Render.Flags2 |= 0x00
299: 0x0B5C [0x2B] Naja Salaheem (ID: 16982156/0x0103208C) [14418*]:
    → "<Gasp>!\u007F1\u0000\u0007"
300: 0x0B63 [0x23] WAIT_FOR_DIALOG_INTERACTION
301: 0x0B64 [0x7C] Naja Salaheem (ID: 16982156/0x0103208C)->Render.Flags2 |= 0x01
302: 0x0B6A [0x52] END_LOAD_SCHEDULER: End scheduler "s171" with entities [EventEntity, EventEntity], work=337*
303: 0x0B79 [0x45] LOAD_SCHEDULED_TASK: Load scheduler "s172" with entities [EventEntity, EventEntity], work=[337*, 0*]
304: 0x0B8A [0x5B] LOAD_EXT_SCHEDULER: Load scheduler "abu2" with entities [Abquhbah (ID: 16982157/0x0103208D), Abquhbah (ID: 16982157/0x0103208D)], work=1481*
305: 0x0B99 [0x45] LOAD_SCHEDULED_TASK: Load scheduler "abu2" with entities [EventEntity, EventEntity], work=[337*, 0*]
306: 0x0BAA [0x5B] LOAD_EXT_SCHEDULER: Load scheduler "tlk0" with entities [Naja Salaheem (ID: 16982156/0x0103208C), Naja Salaheem (ID: 16982156/0x0103208C)], work=833*
307: 0x0BB9 [0x2B] Naja Salaheem (ID: 16982156/0x0103208C) [14419*]:
    → "You just leave everything to us. We'll see to it this mission receives our utmost attention.\u0007That's the Salaheem guarrrantee!\u007F1\u0000\u0007"
308: 0x0BC0 [0x23] WAIT_FOR_DIALOG_INTERACTION
309: 0x0BC1 [0x5B] LOAD_EXT_SCHEDULER: Load scheduler "tlk1" with entities [Naja Salaheem (ID: 16982156/0x0103208C), Naja Salaheem (ID: 16982156/0x0103208C)], work=833*
310: 0x0BD0 [0x5B] LOAD_EXT_SCHEDULER: Load scheduler "tlk0" with entities [Ovjang (ID: 16982215/0x010320C7), Ovjang (ID: 16982215/0x010320C7)], work=858*
311: 0x0BDF [0x2B] Ovjang (ID: 16982215/0x010320C7) [14420*]:
    → "That pleases me a great deal.\u0007Very well, then. I leave the matter in your capable hands.\u007F1\u0000\u0007"
312: 0x0BE6 [0x23] WAIT_FOR_DIALOG_INTERACTION
313: 0x0BE7 [0x5B] LOAD_EXT_SCHEDULER: Load scheduler "tlk1" with entities [Ovjang (ID: 16982215/0x010320C7), Ovjang (ID: 16982215/0x010320C7)], work=858*
314: 0x0BF6 [0x52] END_LOAD_SCHEDULER: End scheduler "s172" with entities [EventEntity, EventEntity], work=337*
315: 0x0C05 [0x45] LOAD_SCHEDULED_TASK: Load scheduler "s173" with entities [EventEntity, EventEntity], work=[337*, 0*]
316: 0x0C16 [0x5B] LOAD_EXT_SCHEDULER: Load scheduler "tlk0" with entities [Naja Salaheem (ID: 16982156/0x0103208C), Naja Salaheem (ID: 16982156/0x0103208C)], work=833*
317: 0x0C25 [0x2B] Naja Salaheem (ID: 16982156/0x0103208C) [14421*]:
    → "As you wish, so shall it be done.\u0007I will personally see to it that this request is given top priority.\u0007We will search rrrelentlessly and none shall rest until the weapons you seek have been recovered and are once again in your possession.\u007F1\u0000\u0007"
318: 0x0C2C [0x23] WAIT_FOR_DIALOG_INTERACTION
319: 0x0C2D [0x5D] SET_MUSIC_VOLUME(volume=0*, fade_time=120*)
320: 0x0C32 [0x52] END_LOAD_SCHEDULER: End scheduler "s173" with entities [EventEntity, EventEntity], work=337*
321: 0x0C41 [0x45] LOAD_SCHEDULED_TASK: Load scheduler "s174" with entities [EventEntity, EventEntity], work=[337*, 0*]
322: 0x0C52 [0x27] REQ_SET(priority=0x05, entity_id=Ovjang (ID: 16982215/0x010320C7), tag_num=0x33)
323: 0x0C59 [0x7C] Naja Salaheem (ID: 16982156/0x0103208C)->Render.Flags2 |= 0x00
324: 0x0C5F [0x2B] Naja Salaheem (ID: 16982156/0x0103208C) [14390*]:
    → "...\u007F1\u0000\u0007"
325: 0x0C66 [0x23] WAIT_FOR_DIALOG_INTERACTION
326: 0x0C67 [0x7C] Naja Salaheem (ID: 16982156/0x0103208C)->Render.Flags2 |= 0x01
327: 0x0C6D [0x7C] Abquhbah (ID: 16982157/0x0103208D)->Render.Flags2 |= 0x00
328: 0x0C73 [0x2B] Abquhbah (ID: 16982157/0x0103208D) [14422*]:
    → "...\u007F1\u0000\u0007"
329: 0x0C7A [0x23] WAIT_FOR_DIALOG_INTERACTION
330: 0x0C7B [0x7C] Abquhbah (ID: 16982157/0x0103208D)->Render.Flags2 |= 0x01
331: 0x0C81 [0x52] END_LOAD_SCHEDULER: End scheduler "s174" with entities [EventEntity, EventEntity], work=337*
332: 0x0C90 [0x45] LOAD_SCHEDULED_TASK: Load scheduler "s175" with entities [EventEntity, EventEntity], work=[337*, 0*]
333: 0x0CA1 [0x5B] LOAD_EXT_SCHEDULER: Load scheduler "tlk1" with entities [Naja Salaheem (ID: 16982156/0x0103208C), Naja Salaheem (ID: 16982156/0x0103208C)], work=833*
334: 0x0CB0 [0x2B] Naja Salaheem (ID: 16982156/0x0103208C) [14423*]:
    → "Isn't that right, Captain \u0008?\u007F1\u0000\u0007"
335: 0x0CB7 [0x23] WAIT_FOR_DIALOG_INTERACTION
336: 0x0CB8 [0x79] Abquhbah (ID: 16982157/0x0103208D) looks at ??? (ID: 16982289/0x01032111) (Basic look)
337: 0x0CC2 [0x2B] Abquhbah (ID: 16982157/0x0103208D) [14424*]:
    → "I saw that coming...\u007F1\u0000\u0007"
338: 0x0CC9 [0x23] WAIT_FOR_DIALOG_INTERACTION
339: 0x0CCA [0x1A] CALL_SUBROUTINE(address=0x6892)
340: 0x0CCD [0x48] [System] [14546*]:
    → "\u001FyTurning in a weapon for safekeeping will cause all data recorded to it to be reset.\u0007Please exercise caution!\u007F1\u0000\u0007"
341: 0x0CD0 [0x1C] WAIT(300* ticks)
342: 0x0CD3 [0x52] END_LOAD_SCHEDULER: End scheduler "s175" with entities [EventEntity, EventEntity], work=337*
343: 0x0CE2 [0x1C] WAIT(30* ticks)
344: 0x0CE5 [0x6B] STOP_AND_IDLE: Naja Salaheem (ID: 16982156/0x0103208C) stops current action and resets to idle (animation="idl0")
345: 0x0CEE [0x29] REQ_SET_WAIT(priority=0x10, entity_id=Naja Salaheem (ID: 16982156/0x0103208C), tag_num=0x25)
346: 0x0CF5 [0x29] REQ_SET_WAIT(priority=0x10, entity_id=Unnamed NPC (ID: 16982539/0x0103220B), tag_num=0x1D)
347: 0x0CFC [0x5C] MUSIC_CONTROL: Set Idle (Day) music to song 178*
348: 0x0D00 [0x5C] MUSIC_CONTROL: Set Idle (Night) music to song 178*
349: 0x0D04 [0x9A] WAIT_MUSIC_SERVER()
350: 0x0D05 [0x46] CAMERA_CONTROL: Restore default settings
351: 0x0D07 [0x45] LOAD_SCHEDULED_TASK: Load scheduler "fdi2" with entities [LocalPlayer, LocalPlayer], work=[200*, 0*]
352: 0x0D18 [0x21] END_EVENT
353: 0x0D19 [0x00] END_REQSTACK()
```

### Event 3202

#### Metadata

| Field        | Value      |
|--------------|------------|
| Entrypoint   | 0x0D1A     |
| Data Size    | 4304 bytes |
| Instructions | 463        |

```
      00 01 02 03 04 05 06 07  08 09 0A 0B 0C 0D 0E 0F
      -- -- -- -- -- -- -- --  -- -- -- -- -- -- -- --
0D10:                                42 1A 92 68 46 01            B..hF.
0D20: 38 67 80 02 09 10 00 80  00 33 0D 03 00 00 02 10  8g.......3......
0D30: 01 8E 0E 24 68 80 00 80  00 80 25 02 00 10 00 80  ...$h.....%.....
0D40: 00 4E 0D 13 00 00 02 80  0B 00 00 01 8E 0E 02 00  .N..............
0D50: 10 52 80 00 5E 0D 03 00  00 52 80 01 8E 0E 02 00  .R..^....R......
0D60: 10 69 80 00 6E 0D 03 00  00 69 80 01 8E 0E 02 00  .i..n....i......
0D70: 10 6A 80 00 7E 0D 03 00  00 6A 80 01 8E 0E 02 00  .j..~....j......
0D80: 10 6B 80 00 8E 0D 03 00  00 6B 80 01 8E 0E 02 00  .k.......k......
0D90: 10 3E 80 00 9E 0D 03 00  00 3E 80 01 8E 0E 02 00  .>.......>......
0DA0: 10 4A 80 00 AE 0D 03 00  00 4A 80 01 8E 0E 02 00  .J.......J......
0DB0: 10 6C 80 00 BE 0D 03 00  00 6C 80 01 8E 0E 02 00  .l.......l......
0DC0: 10 6D 80 00 CE 0D 03 00  00 6D 80 01 8E 0E 02 00  .m.......m......
0DD0: 10 39 80 00 DE 0D 03 00  00 39 80 01 8E 0E 02 00  .9.......9......
0DE0: 10 6E 80 00 EE 0D 03 00  00 6E 80 01 8E 0E 02 00  .n.......n......
0DF0: 10 6F 80 00 FE 0D 03 00  00 6F 80 01 8E 0E 02 00  .o.......o......
0E00: 10 70 80 00 0E 0E 03 00  00 70 80 01 8E 0E 02 00  .p.......p......
0E10: 10 71 80 00 1E 0E 03 00  00 71 80 01 8E 0E 02 00  .q.......q......
0E20: 10 72 80 00 2E 0E 03 00  00 72 80 01 8E 0E 02 00  .r.......r......
0E30: 10 18 80 00 3E 0E 03 00  00 18 80 01 8E 0E 02 00  ....>...........
0E40: 10 07 80 00 4E 0E 03 00  00 07 80 01 8E 0E 02 00  ....N...........
0E50: 10 73 80 00 5E 0E 03 00  00 73 80 01 8E 0E 02 00  .s..^....s......
0E60: 10 74 80 00 6E 0E 03 00  00 74 80 01 8E 0E 02 00  .t..n....t......
0E70: 10 02 80 00 7E 0E 03 00  00 02 80 01 8E 0E 02 00  ....~...........
0E80: 10 75 80 00 8E 0E 03 00  00 75 80 01 8E 0E 75 00  .u.......u....u.
0E90: 03 80 75 01 27 10 8C 20  03 01 24 29 10 0B 22 03  ..u.'.. ..$)..".
0EA0: 01 1C 92 01 8C 20 03 01  92 01 8D 20 03 01 94 01  ..... ..... ....
0EB0: F0 FF FF 7F 94 01 8C 20  03 01 94 01 8D 20 03 01  ....... ..... ..
0EC0: BA F0 FF FF 7F 76 80 77  80 78 80 07 80 BA 0B 22  .....v.w.x....."
0ED0: 03 01 79 80 7A 80 0A 80  7B 80 BA 8C 20 03 01 08  ..y.z...{... ...
0EE0: 80 09 80 0A 80 00 80 80  F0 FF FF 7F 80 8C 20 03  .............. .
0EF0: 01 4B 8D 20 03 01 7C 80  4A F0 FF FF 7F 8D 20 03  .K. ..|.J..... .
0F00: 01 1C 26 80 02 00 00 52  80 80 2D 0F 29 10 8D 20  ..&....R..-.).. 
0F10: 03 01 AB 80 8D 20 03 01  1C 18 80 5B 7D 80 8D 20  ..... .....[}.. 
0F20: 03 01 8D 20 03 01 77 6B  30 32 01 38 12 02 00 00  ... ..wk02.8....
0F30: 69 80 80 56 0F 29 10 8D  20 03 01 AC 80 8D 20 03  i..V.).. ..... .
0F40: 01 1C 18 80 5B 7D 80 8D  20 03 01 8D 20 03 01 77  ....[}.. ... ..w
0F50: 6B 30 38 01 38 12 02 00  00 6A 80 80 7F 0F 29 10  k08.8....j....).
0F60: 8D 20 03 01 AD 80 8D 20  03 01 1C 18 80 5B 7D 80  . ..... .....[}.
0F70: 8D 20 03 01 8D 20 03 01  77 6B 30 30 01 38 12 02  . ... ..wk00.8..
0F80: 00 00 6B 80 80 A8 0F 29  10 8D 20 03 01 AE 80 8D  ..k....).. .....
0F90: 20 03 01 1C 18 80 5B 7D  80 8D 20 03 01 8D 20 03   .....[}.. ... .
0FA0: 01 77 6B 30 37 01 38 12  02 00 00 3E 80 80 D1 0F  .wk07.8....>....
0FB0: 29 10 8D 20 03 01 AF 80  8D 20 03 01 1C 18 80 5B  ).. ..... .....[
0FC0: 7D 80 8D 20 03 01 8D 20  03 01 77 6B 30 31 01 38  }.. ... ..wk01.8
0FD0: 12 02 00 00 4A 80 80 FA  0F 29 10 8D 20 03 01 B0  ....J....).. ...
0FE0: 80 8D 20 03 01 1C 18 80  5B 7D 80 8D 20 03 01 8D  .. .....[}.. ...
0FF0: 20 03 01 77 6B 30 34 01  38 12 02 00 00 6C 80 80   ..wk04.8....l..
1000: 23 10 29 10 8D 20 03 01  B1 80 8D 20 03 01 1C 18  #.).. ..... ....
1010: 80 5B 7D 80 8D 20 03 01  8D 20 03 01 77 6B 30 31  .[}.. ... ..wk01
1020: 01 38 12 02 00 00 6D 80  80 4C 10 29 10 8D 20 03  .8....m..L.).. .
1030: 01 B2 80 8D 20 03 01 1C  18 80 5B 7D 80 8D 20 03  .... .....[}.. .
1040: 01 8D 20 03 01 77 6B 30  32 01 38 12 02 00 00 39  .. ..wk02.8....9
1050: 80 80 75 10 29 10 8D 20  03 01 B3 80 8D 20 03 01  ..u.).. ..... ..
1060: 1C 18 80 5B 7D 80 8D 20  03 01 8D 20 03 01 77 6B  ...[}.. ... ..wk
1070: 30 34 01 38 12 02 00 00  6E 80 80 9E 10 29 10 8D  04.8....n....)..
1080: 20 03 01 B4 80 8D 20 03  01 1C 18 80 5B 7D 80 8D   ..... .....[}..
1090: 20 03 01 8D 20 03 01 77  6B 30 34 01 38 12 02 00   ... ..wk04.8...
10A0: 00 6F 80 80 C7 10 29 10  8D 20 03 01 B5 80 8D 20  .o....).. ..... 
10B0: 03 01 1C 18 80 5B 7D 80  8D 20 03 01 8D 20 03 01  .....[}.. ... ..
10C0: 77 6B 30 33 01 38 12 02  00 00 70 80 80 F0 10 29  wk03.8....p....)
10D0: 10 8D 20 03 01 B6 80 8D  20 03 01 1C 18 80 5B 7D  .. ..... .....[}
10E0: 80 8D 20 03 01 8D 20 03  01 77 6B 30 36 01 38 12  .. ... ..wk06.8.
10F0: 02 00 00 71 80 80 19 11  29 10 8D 20 03 01 B7 80  ...q....).. ....
1100: 8D 20 03 01 1C 18 80 5B  7D 80 8D 20 03 01 8D 20  . .....[}.. ... 
1110: 03 01 77 6B 30 35 01 38  12 02 00 00 72 80 80 42  ..wk05.8....r..B
1120: 11 29 10 8D 20 03 01 B8  80 8D 20 03 01 1C 18 80  .).. ..... .....
1130: 5B 7D 80 8D 20 03 01 8D  20 03 01 77 6B 30 32 01  [}.. ... ..wk02.
1140: 38 12 02 00 00 18 80 80  6B 11 29 10 8D 20 03 01  8.......k.).. ..
1150: B9 80 8D 20 03 01 1C 18  80 5B 7D 80 8D 20 03 01  ... .....[}.. ..
1160: 8D 20 03 01 77 6B 30 30  01 38 12 02 00 00 07 80  . ..wk00.8......
1170: 80 94 11 29 10 8D 20 03  01 BA 80 8D 20 03 01 1C  ...).. ..... ...
1180: 18 80 5B 7D 80 8D 20 03  01 8D 20 03 01 77 6B 30  ..[}.. ... ..wk0
1190: 30 01 38 12 02 00 00 73  80 80 BD 11 29 10 8D 20  0.8....s....).. 
11A0: 03 01 BB 80 8D 20 03 01  1C 18 80 5B 7D 80 8D 20  ..... .....[}.. 
11B0: 03 01 8D 20 03 01 77 6B  30 33 01 38 12 02 00 00  ... ..wk03.8....
11C0: 74 80 80 E6 11 29 10 8D  20 03 01 BC 80 8D 20 03  t....).. ..... .
11D0: 01 1C 18 80 5B 7D 80 8D  20 03 01 8D 20 03 01 77  ....[}.. ... ..w
11E0: 6B 30 38 01 38 12 02 00  00 02 80 80 0F 12 29 10  k08.8.........).
11F0: 8D 20 03 01 BD 80 8D 20  03 01 1C 18 80 5B 7D 80  . ..... .....[}.
1200: 8D 20 03 01 8D 20 03 01  77 6B 30 34 01 38 12 02  . ... ..wk04.8..
1210: 00 00 75 80 80 38 12 29  10 8D 20 03 01 BE 80 8D  ..u..8.).. .....
1220: 20 03 01 1C 18 80 5B 7D  80 8D 20 03 01 8D 20 03   .....[}.. ... .
1230: 01 77 6B 30 37 01 38 12  45 1A 80 F8 FF FF 7F F8  .wk07.8.E.......
1240: FF FF 7F 73 31 37 36 00  80 1A 71 68 1C 7E 80 7C  ...s176...qh.~.|
1250: 00 8D 20 03 01 2B 8D 20  03 01 61 80 23 7C 01 8D  .. ..+. ..a.#|..
1260: 20 03 01 52 1A 80 F8 FF  FF 7F F8 FF FF 7F 73 31   ..R..........s1
1270: 37 36 45 1A 80 F8 FF FF  7F F8 FF FF 7F 73 31 37  76E..........s17
1280: 37 00 80 2B 8D 20 03 01  7F 80 23 52 1A 80 F8 FF  7..+. ....#R....
1290: FF 7F F8 FF FF 7F 73 31  37 37 02 87 7F 3E 80 80  ......s177...>..
12A0: B6 12 45 1A 80 F8 FF FF  7F F8 FF FF 7F 73 31 37  ..E..........s17
12B0: 39 00 80 01 E3 12 02 87  7F 4A 80 80 D2 12 45 1A  9........J....E.
12C0: 80 F8 FF FF 7F F8 FF FF  7F 73 31 37 39 00 80 01  .........s179...
12D0: E3 12 45 1A 80 F8 FF FF  7F F8 FF FF 7F 73 31 37  ..E..........s17
12E0: 38 00 80 6B 69 64 6C 30  8D 20 03 01 29 05 8D 20  8..kidl0. ..).. 
12F0: 03 01 6E 80 8D 20 03 01  2B 8D 20 03 01 80 80 23  ..n.. ..+. ....#
1300: 52 1A 80 F8 FF FF 7F F8  FF FF 7F 73 31 37 38 52  R..........s178R
1310: 1A 80 F8 FF FF 7F F8 FF  FF 7F 73 31 37 39 45 1A  ..........s179E.
1320: 80 F8 FF FF 7F F8 FF FF  7F 73 31 38 30 00 80 27  .........s180..'
1330: 05 8D 20 03 01 A5 2B 8D  20 03 01 81 80 23 1A 92  .. ...+. ....#..
1340: 68 52 1A 80 F8 FF FF 7F  F8 FF FF 7F 73 31 38 30  hR..........s180
1350: 7A 00 8D 20 03 01 BA 8D  20 03 01 82 80 83 80 22  z.. .... ......"
1360: 80 84 80 29 10 8D 20 03  01 BF 80 8D 20 03 01 5B  ...).. ..... ..[
1370: 4E 80 8C 20 03 01 8C 20  03 01 68 61 70 30 BA F0  N.. ... ..hap0..
1380: FF FF 7F 79 80 7A 80 0A  80 7B 80 80 F0 FF FF 7F  ...y.z...{......
1390: 45 1A 80 F8 FF FF 7F F8  FF FF 7F 73 31 38 31 00  E..........s181.
13A0: 80 1A 71 68 2B 8C 20 03  01 85 80 23 52 1A 80 F8  ..qh+. ....#R...
13B0: FF FF 7F F8 FF FF 7F 73  31 38 31 45 1A 80 F8 FF  .......s181E....
13C0: FF 7F F8 FF FF 7F 73 31  38 32 00 80 5B 4E 80 8C  ......s182..[N..
13D0: 20 03 01 8C 20 03 01 68  61 70 72 2B 8C 20 03 01   ... ..hapr+. ..
13E0: 86 80 23 2B 8C 20 03 01  87 80 23 52 1A 80 F8 FF  ..#+. ....#R....
13F0: FF 7F F8 FF FF 7F 73 31  38 32 45 1A 80 F8 FF FF  ......s182E.....
1400: 7F F8 FF FF 7F 73 31 38  33 00 80 5B 44 80 8C 20  .....s183..[D.. 
1410: 03 01 8C 20 03 01 74 6C  6B 30 2B 8C 20 03 01 88  ... ..tlk0+. ...
1420: 80 23 5B 44 80 8C 20 03  01 8C 20 03 01 74 6C 6B  .#[D.. ... ..tlk
1430: 31 52 1A 80 F8 FF FF 7F  F8 FF FF 7F 73 31 38 33  1R..........s183
1440: 45 89 80 F0 FF FF 7F F0  FF FF 7F 79 6D 30 38 00  E..........ym08.
1450: 80 2B 8C 20 03 01 8A 80  23 27 10 8D 20 03 01 17  .+. ....#'.. ...
1460: 1C 26 80 4A F0 FF FF 7F  8D 20 03 01 2B 8D 20 03  .&.J..... ..+. .
1470: 01 8B 80 23 2A 10 8D 20  03 01 4A 8C 20 03 01 8D  ...#*.. ..J. ...
1480: 20 03 01 1C 26 80 52 89  80 F0 FF FF 7F F0 FF FF   ...&.R.........
1490: 7F 79 6D 30 38 45 1A 80  F8 FF FF 7F F8 FF FF 7F  .ym08E..........
14A0: 73 31 38 34 00 80 5B 4E  80 8C 20 03 01 8C 20 03  s184..[N.. ... .
14B0: 01 68 61 70 30 2B 8C 20  03 01 8C 80 23 6E 8D 20  .hap0+. ....#n. 
14C0: 03 01 6C 80 99 8D 20 03  01 2B 8D 20 03 01 8D 80  ..l... ..+. ....
14D0: 23 5D 00 80 01 80 52 1A  80 F8 FF FF 7F F8 FF FF  #]....R.........
14E0: 7F 73 31 38 34 45 1A 80  F8 FF FF 7F F8 FF FF 7F  .s184E..........
14F0: 73 31 38 35 00 80 66 39  80 8D 20 03 01 8D 20 03  s185..f9.. ... .
1500: 01 74 68 6B 31 BA 8C 20  03 01 8E 80 8F 80 0A 80  .thk1.. ........
1510: 90 80 80 8C 20 03 01 2B  8D 20 03 01 91 80 23 53  .... ..+. ....#S
1520: 8D 20 03 01 8D 20 03 01  74 68 6B 31 52 1A 80 F8  . ... ..thk1R...
1530: FF FF 7F F8 FF FF 7F 73  31 38 35 45 1A 80 F8 FF  .......s185E....
1540: FF 7F F8 FF FF 7F 73 31  38 36 00 80 66 39 80 8D  ......s186..f9..
1550: 20 03 01 8D 20 03 01 74  68 6B 32 7C 00 8D 20 03   ... ..thk2|.. .
1560: 01 2B 8D 20 03 01 61 80  23 5C 00 19 80 5C 01 19  .+. ..a.#\...\..
1570: 80 9A 53 8D 20 03 01 8D  20 03 01 74 68 6B 32 52  ..S. ... ..thk2R
1580: 1A 80 F8 FF FF 7F F8 FF  FF 7F 73 31 38 36 45 1A  ..........s186E.
1590: 80 F8 FF FF 7F F8 FF FF  7F 73 31 38 37 00 80 6E  .........s187..n
15A0: 8D 20 03 01 33 80 99 8D  20 03 01 2B 8D 20 03 01  . ..3... ..+. ..
15B0: 92 80 23 7C 01 8D 20 03  01 27 05 8C 20 03 01 C3  ..#|.. ..'.. ...
15C0: 1C 26 80 2B 8C 20 03 01  93 80 23 2A 05 8C 20 03  .&.+. ....#*.. .
15D0: 01 52 1A 80 F8 FF FF 7F  F8 FF FF 7F 73 31 38 37  .R..........s187
15E0: 45 1A 80 F8 FF FF 7F F8  FF FF 7F 73 31 38 38 00  E..........s188.
15F0: 80 66 39 80 8D 20 03 01  8D 20 03 01 73 68 61 30  .f9.. ... ..sha0
1600: 2B 8D 20 03 01 94 80 23  53 8D 20 03 01 8D 20 03  +. ....#S. ... .
1610: 01 73 68 61 30 52 1A 80  F8 FF FF 7F F8 FF FF 7F  .sha0R..........
1620: 73 31 38 38 45 1A 80 F8  FF FF 7F F8 FF FF 7F 73  s188E..........s
1630: 31 38 39 00 80 2B 8D 20  03 01 95 80 23 52 1A 80  189..+. ....#R..
1640: F8 FF FF 7F F8 FF FF 7F  73 31 38 39 45 1A 80 F8  ........s189E...
1650: FF FF 7F F8 FF FF 7F 73  31 39 30 00 80 7C 00 8C  .......s190..|..
1660: 20 03 01 2B 8C 20 03 01  5D 80 23 7C 01 8C 20 03   ..+. ..].#|.. .
1670: 01 52 1A 80 F8 FF FF 7F  F8 FF FF 7F 31 39 30 00  .R..........190.
1680: 45 1A 80 F8 FF FF 7F F8  FF FF 7F 73 31 39 31 00  E..........s191.
1690: 80 27 05 8C 20 03 01 C4  7B 8C 20 03 01 2B 8C 20  .'.. ...{. ..+. 
16A0: 03 01 96 80 23 2A 05 8C  20 03 01 4A 8C 20 03 01  ....#*.. ..J. ..
16B0: 8D 20 03 01 1C 26 80 2B  8C 20 03 01 97 80 23 52  . ...&.+. ....#R
16C0: 1A 80 F8 FF FF 7F F8 FF  FF 7F 73 31 39 31 45 1A  ..........s191E.
16D0: 80 F8 FF FF 7F F8 FF FF  7F 73 31 39 32 00 80 4E  .........s192..N
16E0: 01 F0 FF FF 7F 2B 8D 20  03 01 98 80 23 2B 8C 20  .....+. ....#+. 
16F0: 03 01 99 80 23 52 1A 80  F8 FF FF 7F F8 FF FF 7F  ....#R..........
1700: 73 31 39 32 45 1A 80 F8  FF FF 7F F8 FF FF 7F 73  s192E..........s
1710: 31 39 33 00 80 2B 8C 20  03 01 9A 80 23 52 1A 80  193..+. ....#R..
1720: F8 FF FF 7F F8 FF FF 7F  73 31 39 33 45 1A 80 F8  ........s193E...
1730: FF FF 7F F8 FF FF 7F 73  31 39 34 00 80 5D 00 80  .......s194..]..
1740: 01 80 2B 8D 20 03 01 9B  80 23 55 1A 80 F8 FF FF  ..+. ....#U.....
1750: 7F F8 FF FF 7F 73 31 39  34 6B 69 64 6C 30 8D 20  .....s194kidl0. 
1760: 03 01 7B 8D 20 03 01 7B  8C 20 03 01 4E 00 F0 FF  ..{. ..{. ..N...
1770: FF 7F BA 8C 20 03 01 08  80 09 80 0A 80 00 80 80  .... ...........
1780: 8C 20 03 01 80 F0 FF FF  7F 4A F0 FF FF 7F 8C 20  . .......J..... 
1790: 03 01 1C 26 80 5B 17 80  8D 20 03 01 8D 20 03 01  ...&.[... ... ..
17A0: 61 62 75 33 53 8D 20 03  01 8D 20 03 01 61 62 75  abu3S. ... ..abu
17B0: 33 45 1A 80 F8 FF FF 7F  F8 FF FF 7F 64 6F 6B 61  3E..........doka
17C0: 00 80 1C 01 80 5C 00 66  80 5C 01 66 80 9A 45 1A  .....\.f.\.f..E.
17D0: 80 F8 FF FF 7F F8 FF FF  7F 73 31 39 35 00 80 1A  .........s195...
17E0: 71 68 2B 8C 20 03 01 9C  80 23 2B 8C 20 03 01 9D  qh+. ....#+. ...
17F0: 80 23 52 1A 80 F8 FF FF  7F F8 FF FF 7F 73 31 39  .#R..........s19
1800: 35 45 1A 80 F8 FF FF 7F  F8 FF FF 7F 73 31 39 36  5E..........s196
1810: 00 80 5B 44 80 8C 20 03  01 8C 20 03 01 74 6C 6B  ..[D.. ... ..tlk
1820: 30 2B 8C 20 03 01 9E 80  23 5B 44 80 8C 20 03 01  0+. ....#[D.. ..
1830: 8C 20 03 01 74 6C 6B 31  52 1A 80 F8 FF FF 7F F8  . ..tlk1R.......
1840: FF FF 7F 73 31 39 36 45  1A 80 F8 FF FF 7F F8 FF  ...s196E........
1850: FF 7F 73 31 39 37 00 80  24 9F 80 00 80 00 80 25  ..s197..$......%
1860: 02 00 10 00 80 00 61 1A  52 1A 80 F8 FF FF 7F F8  ......a.R.......
1870: FF FF 7F 73 31 39 37 45  1A 80 F8 FF FF 7F F8 FF  ...s197E........
1880: FF 7F 73 31 39 38 00 80  2B 8C 20 03 01 A0 80 23  ..s198..+. ....#
1890: 2B 8C 20 03 01 A1 80 23  5B 44 80 8C 20 03 01 8C  +. ....#[D.. ...
18A0: 20 03 01 74 68 6B 30 52  1A 80 F8 FF FF 7F F8 FF   ..thk0R........
18B0: FF 7F 73 31 39 38 45 1A  80 F8 FF FF 7F F8 FF FF  ..s198E.........
18C0: 7F 73 31 39 39 00 80 2B  8C 20 03 01 A2 80 23 5B  .s199..+. ....#[
18D0: 44 80 8C 20 03 01 8C 20  03 01 74 68 6B 31 52 1A  D.. ... ..thk1R.
18E0: 80 F8 FF FF 7F F8 FF FF  7F 73 31 39 39 45 1A 80  .........s199E..
18F0: F8 FF FF 7F F8 FF FF 7F  73 32 30 30 00 80 2B 8C  ........s200..+.
1900: 20 03 01 A3 80 23 53 8C  20 03 01 8C 20 03 01 74   ....#S. ... ..t
1910: 68 6B 31 5B 44 80 8C 20  03 01 8C 20 03 01 70 6E  hk1[D.. ... ..pn
1920: 74 30 2B 8C 20 03 01 A4  80 23 2B 8C 20 03 01 A5  t0+. ....#+. ...
1930: 80 23 53 8C 20 03 01 8C  20 03 01 70 6E 74 30 52  .#S. ... ..pnt0R
1940: 1A 80 F8 FF FF 7F F8 FF  FF 7F 73 32 30 30 45 1A  ..........s200E.
1950: 80 F8 FF FF 7F F8 FF FF  7F 73 32 30 31 00 80 2B  .........s201..+
1960: 8C 20 03 01 A6 80 23 55  1A 80 F8 FF FF 7F F8 FF  . ....#U........
1970: FF 7F 73 32 30 31 45 1A  80 F8 FF FF 7F F8 FF FF  ..s201E.........
1980: 7F 73 32 30 32 00 80 2B  8C 20 03 01 A7 80 23 55  .s202..+. ....#U
1990: 1A 80 F8 FF FF 7F F8 FF  FF 7F 73 32 30 32 45 1A  ..........s202E.
19A0: 80 F8 FF FF 7F F8 FF FF  7F 73 32 30 33 00 80 2B  .........s203..+
19B0: 8C 20 03 01 A8 80 23 55  1A 80 F8 FF FF 7F F8 FF  . ....#U........
19C0: FF 7F 73 32 30 33 45 1A  80 F8 FF FF 7F F8 FF FF  ..s203E.........
19D0: 7F 73 32 30 34 00 80 5B  44 80 8C 20 03 01 8C 20  .s204..[D.. ... 
19E0: 03 01 70 6E 74 31 2B 8C  20 03 01 A9 80 23 1C 26  ..pnt1+. ....#.&
19F0: 80 2B 8C 20 03 01 AA 80  23 2B 8C 20 03 01 AB 80  .+. ....#+. ....
1A00: 23 5B 44 80 8C 20 03 01  8C 20 03 01 70 6E 74 30  #[D.. ... ..pnt0
1A10: 2B 8C 20 03 01 AC 80 23  2B 8C 20 03 01 AD 80 23  +. ....#+. ....#
1A20: 2B 8C 20 03 01 AE 80 23  53 8C 20 03 01 8C 20 03  +. ....#S. ... .
1A30: 01 70 6E 74 30 5B 44 80  8C 20 03 01 8C 20 03 01  .pnt0[D.. ... ..
1A40: 70 6E 74 31 2B 8C 20 03  01 AF 80 23 52 1A 80 F8  pnt1+. ....#R...
1A50: FF FF 7F F8 FF FF 7F 73  32 30 34 01 47 18 01 A9  .......s204.G...
1A60: 1D 02 00 10 52 80 00 6D  1C 52 1A 80 F8 FF FF 7F  ....R..m.R......
1A70: F8 FF FF 7F 73 31 39 37  45 1A 80 F8 FF FF 7F F8  ....s197E.......
1A80: FF FF 7F 73 31 39 39 00  80 5B 44 80 8C 20 03 01  ...s199..[D.. ..
1A90: 8C 20 03 01 74 68 6B 30  2B 8C 20 03 01 B0 80 23  . ..thk0+. ....#
1AA0: 5B 44 80 8C 20 03 01 8C  20 03 01 74 68 6B 31 52  [D.. ... ..thk1R
1AB0: 1A 80 F8 FF FF 7F F8 FF  FF 7F 73 31 39 39 45 1A  ..........s199E.
1AC0: 80 F8 FF FF 7F F8 FF FF  7F 73 31 39 38 00 80 2B  .........s198..+
1AD0: 8C 20 03 01 B1 80 23 2B  8C 20 03 01 B2 80 23 52  . ....#+. ....#R
1AE0: 1A 80 F8 FF FF 7F F8 FF  FF 7F 73 31 39 38 45 1A  ..........s198E.
1AF0: 80 F8 FF FF 7F F8 FF FF  7F 73 32 30 35 00 80 5B  .........s205..[
1B00: 44 80 8C 20 03 01 8C 20  03 01 74 6C 6B 30 2B 8C  D.. ... ..tlk0+.
1B10: 20 03 01 B3 80 23 2B 8C  20 03 01 B4 80 23 52 1A   ....#+. ....#R.
1B20: 80 F8 FF FF 7F F8 FF FF  7F 73 32 30 35 45 1A 80  .........s205E..
1B30: F8 FF FF 7F F8 FF FF 7F  73 32 30 30 00 80 5B 44  ........s200..[D
1B40: 80 8C 20 03 01 8C 20 03  01 74 6C 6B 31 2B 8C 20  .. ... ..tlk1+. 
1B50: 03 01 B5 80 23 53 8C 20  03 01 8C 20 03 01 74 6C  ....#S. ... ..tl
1B60: 6B 31 5B B6 80 8C 20 03  01 8C 20 03 01 74 6C 63  k1[... ... ..tlc
1B70: 30 2B 8C 20 03 01 A5 80  23 52 1A 80 F8 FF FF 7F  0+. ....#R......
1B80: F8 FF FF 7F 73 32 30 30  45 1A 80 F8 FF FF 7F F8  ....s200E.......
1B90: FF FF 7F 73 32 30 36 00  80 2B 8C 20 03 01 B7 80  ...s206..+. ....
1BA0: 23 55 1A 80 F8 FF FF 7F  F8 FF FF 7F 73 32 30 36  #U..........s206
1BB0: 45 1A 80 F8 FF FF 7F F8  FF FF 7F 73 32 30 37 00  E..........s207.
1BC0: 80 2B 8C 20 03 01 B8 80  23 55 1A 80 F8 FF FF 7F  .+. ....#U......
1BD0: F8 FF FF 7F 73 32 30 37  45 1A 80 F8 FF FF 7F F8  ....s207E.......
1BE0: FF FF 7F 73 32 30 38 00  80 2B 8C 20 03 01 B9 80  ...s208..+. ....
1BF0: 23 55 1A 80 F8 FF FF 7F  F8 FF FF 7F 73 32 30 38  #U..........s208
1C00: 45 1A 80 F8 FF FF 7F F8  FF FF 7F 73 32 30 39 00  E..........s209.
1C10: 80 2B 8C 20 03 01 BA 80  23 55 1A 80 F8 FF FF 7F  .+. ....#U......
1C20: F8 FF FF 7F 73 32 30 39  45 1A 80 F8 FF FF 7F F8  ....s209E.......
1C30: FF FF 7F 73 32 30 34 00  80 5B B6 80 8C 20 03 01  ...s204..[... ..
1C40: 8C 20 03 01 74 6C 63 31  2B 8C 20 03 01 BB 80 23  . ..tlc1+. ....#
1C50: 2B 8C 20 03 01 BC 80 23  52 1A 80 F8 FF FF 7F F8  +. ....#R.......
1C60: FF FF 7F 73 32 30 34 01  47 18 01 A9 1D 02 00 10  ...s204.G.......
1C70: 69 80 00 30 1D 52 1A 80  F8 FF FF 7F F8 FF FF 7F  i..0.R..........
1C80: 73 31 39 37 45 1A 80 F8  FF FF 7F F8 FF FF 7F 73  s197E..........s
1C90: 31 39 38 00 80 5B 44 80  8C 20 03 01 8C 20 03 01  198..[D.. ... ..
1CA0: 74 6C 6B 30 2B 8C 20 03  01 BD 80 23 52 1A 80 F8  tlk0+. ....#R...
1CB0: FF FF 7F F8 FF FF 7F 73  31 39 38 45 1A 80 F8 FF  .......s198E....
1CC0: FF 7F F8 FF FF 7F 73 32  30 35 00 80 2B 8C 20 03  ......s205..+. .
1CD0: 01 BE 80 23 2B 8C 20 03  01 BF 80 23 52 1A 80 F8  ...#+. ....#R...
1CE0: FF FF 7F F8 FF FF 7F 73  32 30 35 45 1A 80 F8 FF  .......s205E....
1CF0: FF 7F F8 FF FF 7F 73 32  30 30 00 80 2B 8C 20 03  ......s200..+. .
1D00: 01 C0 80 23 5B 44 80 8C  20 03 01 8C 20 03 01 74  ...#[D.. ... ..t
1D10: 6C 6B 31 2B 8C 20 03 01  C1 80 23 52 1A 80 F8 FF  lk1+. ....#R....
1D20: FF 7F F8 FF FF 7F 73 32  30 30 01 47 18 01 A9 1D  ......s200.G....
1D30: 02 00 10 6A 80 00 A9 1D  5B 44 80 8C 20 03 01 8C  ...j....[D.. ...
1D40: 20 03 01 74 68 6B 30 52  1A 80 F8 FF FF 7F F8 FF   ..thk0R........
1D50: FF 7F 73 31 39 37 45 1A  80 F8 FF FF 7F F8 FF FF  ..s197E.........
1D60: 7F 73 31 39 39 00 80 2B  8C 20 03 01 C2 80 23 5B  .s199..+. ....#[
1D70: 44 80 8C 20 03 01 8C 20  03 01 74 68 6B 31 52 1A  D.. ... ..thk1R.
1D80: 80 F8 FF FF 7F F8 FF FF  7F 73 31 39 39 45 1A 80  .........s199E..
1D90: F8 FF FF 7F F8 FF FF 7F  73 32 30 30 00 80 2B 8C  ........s200..+.
1DA0: 20 03 01 C3 80 23 01 A9  1D 1A 92 68 52 1A 80 F8   ....#.....hR...
1DB0: FF FF 7F F8 FF FF 7F 73  32 30 30 1C 26 80 6B 69  .......s200.&.ki
1DC0: 64 6C 30 8C 20 03 01 29  10 8C 20 03 01 25 29 10  dl0. ..).. ..%).
1DD0: 0B 22 03 01 1D 46 00 45  3D 80 F0 FF FF 7F F0 FF  ."...F.E=.......
1DE0: FF 7F 66 64 69 32 00 80  21 00                    ..fdi2..!.      
```

#### Opcodes

```
  0: 0x0D1A [0x42] SET_CLI_EVENT_CANCEL_DATA()
  1: 0x0D1B [0x1A] CALL_SUBROUTINE(address=0x6892)
  2: 0x0D1E [0x46] CAMERA_CONTROL: Disable user control
  3: 0x0D20 [0x38] SET_CLIENT_EVENT_MODE(mode=27*)
  4: 0x0D23 [0x02] IF !(Work_Zone[9] == 0*) GOTO 0x0D33
  5: 0x0D2B [0x03] ExtData[1]->WorkLocal[0] = Work_Zone[2]
  6: 0x0D30 [0x01] GOTO 0x0E8E
  7: 0x0D33 [0x24] CREATE_DIALOG(message_id=14545*, default_option=0*, option_flags=0*)
