# 16982368 - Gadalar

## Common Data

| Field            | Value                          |
|------------------|--------------------------------|
| Zone             | Aht Urhgan Whitegate2 (ID: 50) |
| Block Size       | 2204 bytes                     |
| Total Events     | 97                             |
| References Count | 61                             |

## List of Events

| Event ID                    | Entrypoint   |   Size |   Instructions |
|-----------------------------|--------------|--------|----------------|
| [65535](#event-65535)       | 0x0000       |      1 |              1 |
| [920](#event-920)           | 0x0001       |      1 |              1 |
| [921](#event-921)           | 0x0002       |      1 |              1 |
| [65535.1](#event-65535-1)   | 0x0003       |     19 |              4 |
| [65535.2](#event-65535-2)   | 0x0016       |     19 |              4 |
| [65535.3](#event-65535-3)   | 0x0029       |     19 |              4 |
| [65535.4](#event-65535-4)   | 0x003C       |     19 |              4 |
| [65535.5](#event-65535-5)   | 0x004F       |     19 |              4 |
| [65535.6](#event-65535-6)   | 0x0062       |     13 |              3 |
| [65535.7](#event-65535-7)   | 0x006F       |     19 |              4 |
| [65535.8](#event-65535-8)   | 0x0082       |     19 |              4 |
| [65535.9](#event-65535-9)   | 0x0095       |     19 |              4 |
| [65535.10](#event-65535-10) | 0x00A8       |     28 |              7 |
| [65535.11](#event-65535-11) | 0x00C4       |     11 |              3 |
| [65535.12](#event-65535-12) | 0x00CF       |     34 |              8 |
| [65535.13](#event-65535-13) | 0x00F1       |     67 |             13 |
| [65535.14](#event-65535-14) | 0x0134       |     37 |              7 |
| [65535.15](#event-65535-15) | 0x0159       |     37 |              7 |
| [65535.16](#event-65535-16) | 0x017E       |     15 |              5 |
| [65535.17](#event-65535-17) | 0x018D       |      5 |              2 |
| [65535.18](#event-65535-18) | 0x0192       |      5 |              2 |
| [65535.19](#event-65535-19) | 0x0197       |      5 |              2 |
| [65535.20](#event-65535-20) | 0x019C       |      5 |              2 |
| [65535.21](#event-65535-21) | 0x01A1       |     27 |              7 |
| [65535.22](#event-65535-22) | 0x01BC       |     27 |              7 |
| [65535.23](#event-65535-23) | 0x01D7       |     40 |              6 |
| [65535.24](#event-65535-24) | 0x01FF       |     19 |              3 |
| [65535.25](#event-65535-25) | 0x0212       |     24 |              6 |
| [5091](#event-5091)         | 0x022A       |      1 |              1 |
| [65535.26](#event-65535-26) | 0x022B       |      3 |              2 |
| [65535.27](#event-65535-27) | 0x022E       |      3 |              2 |
| [177](#event-177)           | 0x0231       |      7 |              2 |
| [65535.28](#event-65535-28) | 0x0238       |     15 |              5 |
| [65535.29](#event-65535-29) | 0x0247       |     16 |              2 |
| [65535.30](#event-65535-30) | 0x0257       |     14 |              2 |
| [65535.31](#event-65535-31) | 0x0265       |     22 |              3 |
| [65535.32](#event-65535-32) | 0x027B       |     14 |              2 |
| [65535.33](#event-65535-33) | 0x0289       |     16 |              2 |
| [65535.34](#event-65535-34) | 0x0299       |     20 |              3 |
| [65535.35](#event-65535-35) | 0x02AD       |     16 |              2 |
| [65535.36](#event-65535-36) | 0x02BD       |     14 |              2 |
| [65535.37](#event-65535-37) | 0x02CB       |     16 |              2 |
| [65535.38](#event-65535-38) | 0x02DB       |     14 |              2 |
| [65535.39](#event-65535-39) | 0x02E9       |     16 |              2 |
| [65535.40](#event-65535-40) | 0x02F9       |     14 |              2 |
| [65535.41](#event-65535-41) | 0x0307       |     16 |              2 |
| [65535.42](#event-65535-42) | 0x0317       |     14 |              2 |
| [65535.43](#event-65535-43) | 0x0325       |     16 |              2 |
| [65535.44](#event-65535-44) | 0x0335       |     14 |              2 |
| [65535.45](#event-65535-45) | 0x0343       |     16 |              2 |
| [65535.46](#event-65535-46) | 0x0353       |     14 |              2 |
| [65535.47](#event-65535-47) | 0x0361       |     16 |              2 |
| [65535.48](#event-65535-48) | 0x0371       |     14 |              2 |
| [65535.49](#event-65535-49) | 0x037F       |     16 |              2 |
| [65535.50](#event-65535-50) | 0x038F       |     14 |              2 |
| [65535.51](#event-65535-51) | 0x039D       |     16 |              2 |
| [65535.52](#event-65535-52) | 0x03AD       |     14 |              2 |
| [65535.53](#event-65535-53) | 0x03BB       |     16 |              2 |
| [65535.54](#event-65535-54) | 0x03CB       |     14 |              2 |
| [65535.55](#event-65535-55) | 0x03D9       |     16 |              2 |
| [65535.56](#event-65535-56) | 0x03E9       |     14 |              2 |
| [65535.57](#event-65535-57) | 0x03F7       |     16 |              2 |
| [65535.58](#event-65535-58) | 0x0407       |     14 |              2 |
| [65535.59](#event-65535-59) | 0x0415       |     16 |              2 |
| [65535.60](#event-65535-60) | 0x0425       |     14 |              2 |
| [65535.61](#event-65535-61) | 0x0433       |     16 |              2 |
| [65535.62](#event-65535-62) | 0x0443       |     14 |              2 |
| [65535.63](#event-65535-63) | 0x0451       |     16 |              2 |
| [65535.64](#event-65535-64) | 0x0461       |     14 |              2 |
| [65535.65](#event-65535-65) | 0x046F       |     16 |              2 |
| [65535.66](#event-65535-66) | 0x047F       |     14 |              2 |
| [65535.67](#event-65535-67) | 0x048D       |     16 |              2 |
| [65535.68](#event-65535-68) | 0x049D       |     14 |              2 |
| [65535.69](#event-65535-69) | 0x04AB       |     16 |              2 |
| [65535.70](#event-65535-70) | 0x04BB       |     14 |              2 |
| [65535.71](#event-65535-71) | 0x04C9       |     16 |              2 |
| [65535.72](#event-65535-72) | 0x04D9       |     14 |              2 |
| [65535.73](#event-65535-73) | 0x04E7       |     16 |              2 |
| [65535.74](#event-65535-74) | 0x04F7       |     14 |              2 |
| [65535.75](#event-65535-75) | 0x0505       |     16 |              2 |
| [65535.76](#event-65535-76) | 0x0515       |     14 |              2 |
| [65535.77](#event-65535-77) | 0x0523       |     16 |              2 |
| [65535.78](#event-65535-78) | 0x0533       |     14 |              2 |
| [65535.79](#event-65535-79) | 0x0541       |     16 |              2 |
| [65535.80](#event-65535-80) | 0x0551       |     14 |              2 |
| [65535.81](#event-65535-81) | 0x055F       |     16 |              2 |
| [65535.82](#event-65535-82) | 0x056F       |     14 |              2 |
| [65535.83](#event-65535-83) | 0x057D       |     16 |              2 |
| [65535.84](#event-65535-84) | 0x058D       |     14 |              2 |
| [65535.85](#event-65535-85) | 0x059B       |     16 |              2 |
| [65535.86](#event-65535-86) | 0x05AB       |     14 |              2 |
| [65535.87](#event-65535-87) | 0x05B9       |     16 |              2 |
| [65535.88](#event-65535-88) | 0x05C9       |     14 |              2 |
| [65535.89](#event-65535-89) | 0x05D7       |     16 |              2 |
| [65535.90](#event-65535-90) | 0x05E7       |     14 |              2 |
| [65535.91](#event-65535-91) | 0x05F5       |     16 |              2 |
| [65535.92](#event-65535-92) | 0x0605       |     14 |              2 |

## DAT References (imed_data)

|   Index | Hex Value   |   Dec Value |
|---------|-------------|-------------|
|       0 | 0x0027      |          39 |
|       1 | 0x138CF     |       80079 |
|       2 | 0xFFFDF22F  |  4294832687 |
|       3 | 0xFFFFE890  |  4294961296 |
|       4 | 0x000D      |          13 |
|       5 | 0x14661     |       83553 |
|       6 | 0xFFFE030D  |  4294837005 |
|       7 | 0x0025      |          37 |
|       8 | 0x148F7     |       84215 |
|       9 | 0xFFFE0A93  |  4294838931 |
|      10 | 0x13583     |       79235 |
|      11 | 0xFFFDEB63  |  4294830947 |
|      12 | 0x13A07     |       80391 |
|      13 | 0xFFFDE965  |  4294830437 |
|      14 | 0x0026      |          38 |
|      15 | 0x000F      |          15 |
|      16 | 0x13A8E     |       80526 |
|      17 | 0xFFFDF578  |  4294833528 |
|      18 | 0x000B      |          11 |
|      19 | 0x13B2A     |       80682 |
|      20 | 0xFFFE06AB  |  4294837931 |
|      21 | 0xFFFE2203  |  4294844931 |
|      22 | 0x13359     |       78681 |
|      23 | 0xFFFDFA56  |  4294834774 |
|      24 | 0x001E      |          30 |
|      25 | 0x02A8      |         680 |
|      26 | 0x13332     |       78642 |
|      27 | 0xFFFE2D9D  |  4294847901 |
|      28 | 0x0003      |           3 |
|      29 | 0x0002      |           2 |
|      30 | 0x0005      |           5 |
|      31 | 0x0530      |        1328 |
|      32 | 0x0004      |           4 |
|      33 | 0x0008      |           8 |
|      34 | 0x0001      |           1 |
|      35 | 0x000A      |          10 |
|      36 | 0x0041      |          65 |
|      37 | 0x0028      |          40 |
|      38 | 0xFFFE615D  |  4294861149 |
|      39 | 0x8576      |       34166 |
|      40 | 0xFFFFE891  |  4294961297 |
|      41 | 0x0000      |           0 |
|      42 | 0x004B      |          75 |
|      43 | 0xFFFFE9BC  |  4294961596 |
|      44 | 0xFFFF9148  |  4294938952 |
|      45 | 0xFFFFF154  |  4294963540 |
|      46 | 0xFFFF934E  |  4294939470 |
|      47 | 0xFFFFF67A  |  4294964858 |
|      48 | 0xFFFF94DE  |  4294939870 |
|      49 | 0x001D      |          29 |
|      50 | 0x002D      |          45 |
|      51 | 0x002A      |          42 |
|      52 | 0x151E7     |       86503 |
|      53 | 0xFFFE0500  |  4294837504 |
|      54 | 0x3C8C      |       15500 |
|      55 | 0x094F      |        2383 |
|      56 | 0x04E2      |        1250 |
|      57 | 0x0009      |           9 |
|      58 | 0x0095      |         149 |
|      59 | 0x0047      |          71 |
|      60 | 0x004E      |          78 |

## Events

### Event 65535

#### Metadata

| Field        | Value   |
|--------------|---------|
| Entrypoint   | 0x0000  |
| Data Size    | 1 bytes |
| Instructions | 1       |

```
      00 01 02 03 04 05 06 07  08 09 0A 0B 0C 0D 0E 0F
      -- -- -- -- -- -- -- --  -- -- -- -- -- -- -- --
0000: 00                                                .               
```

#### Opcodes

```
  0: 0x0000 [0x00] END_REQSTACK()
```

### Event 920

#### Metadata

| Field        | Value   |
|--------------|---------|
| Entrypoint   | 0x0001  |
| Data Size    | 1 bytes |
| Instructions | 1       |

```
      00 01 02 03 04 05 06 07  08 09 0A 0B 0C 0D 0E 0F
      -- -- -- -- -- -- -- --  -- -- -- -- -- -- -- --
0000:    00                                              .              
```

#### Opcodes

```
  0: 0x0001 [0x00] END_REQSTACK()
```

### Event 921

#### Metadata

| Field        | Value   |
|--------------|---------|
| Entrypoint   | 0x0002  |
| Data Size    | 1 bytes |
| Instructions | 1       |

```
      00 01 02 03 04 05 06 07  08 09 0A 0B 0C 0D 0E 0F
      -- -- -- -- -- -- -- --  -- -- -- -- -- -- -- --
0000:       00                                            .             
```

#### Opcodes

```
  0: 0x0002 [0x00] END_REQSTACK()
```

### Event 65535.1

#### Metadata

| Field        | Value    |
|--------------|----------|
| Entrypoint   | 0x0003   |
| Data Size    | 19 bytes |
| Instructions | 4        |

```
      00 01 02 03 04 05 06 07  08 09 0A 0B 0C 0D 0E 0F
      -- -- -- -- -- -- -- --  -- -- -- -- -- -- -- --
0000:          59 04 AC 21 03  01 00 80 1F 00 01 80 02     Y..!.........
0010: 80 03 80 1F 01 00                                 ......          
```

#### Opcodes

```
  0: 0x0003 [0x59] UPDATE_ENTITY_DATA: Set Shayadar (ID: 16982444/0x010321AC) main speed = 39* * 0.1
  1: 0x000B [0x1F] MOVE_ENTITY: EventEntity moves to X=80.079*, Z=-134.609*, Y=-6.000*
  2: 0x0013 [0x1F] MOVE_ENTITY: Update entity position (mode=1)
  3: 0x0015 [0x00] END_REQSTACK()
```

### Event 65535.2

#### Metadata

| Field        | Value    |
|--------------|----------|
| Entrypoint   | 0x0016   |
| Data Size    | 19 bytes |
| Instructions | 4        |

```
      00 01 02 03 04 05 06 07  08 09 0A 0B 0C 0D 0E 0F
      -- -- -- -- -- -- -- --  -- -- -- -- -- -- -- --
0010:                   59 04  AC 21 03 01 04 80 1F 00        Y..!......
0020: 05 80 06 80 03 80 1F 01  00                       .........       
```

#### Opcodes

```
  0: 0x0016 [0x59] UPDATE_ENTITY_DATA: Set Shayadar (ID: 16982444/0x010321AC) main speed = 13* * 0.1
  1: 0x001E [0x1F] MOVE_ENTITY: EventEntity moves to X=83.553*, Z=-130.291*, Y=-6.000*
  2: 0x0026 [0x1F] MOVE_ENTITY: Update entity position (mode=1)
  3: 0x0028 [0x00] END_REQSTACK()
```

### Event 65535.3

#### Metadata

| Field        | Value    |
|--------------|----------|
| Entrypoint   | 0x0029   |
| Data Size    | 19 bytes |
| Instructions | 4        |

```
      00 01 02 03 04 05 06 07  08 09 0A 0B 0C 0D 0E 0F
      -- -- -- -- -- -- -- --  -- -- -- -- -- -- -- --
0020:                             59 04 5C 21 03 01 07           Y.\!...
0030: 80 1F 00 08 80 09 80 03  80 1F 01 00              ............    
```

#### Opcodes

```
  0: 0x0029 [0x59] UPDATE_ENTITY_DATA: Set Fari-Wari (ID: 16982364/0x0103215C) main speed = 37* * 0.1
  1: 0x0031 [0x1F] MOVE_ENTITY: EventEntity moves to X=84.215*, Z=-128.365*, Y=-6.000*
  2: 0x0039 [0x1F] MOVE_ENTITY: Update entity position (mode=1)
  3: 0x003B [0x00] END_REQSTACK()
```

### Event 65535.4

#### Metadata

| Field        | Value    |
|--------------|----------|
| Entrypoint   | 0x003C   |
| Data Size    | 19 bytes |
| Instructions | 4        |

```
      00 01 02 03 04 05 06 07  08 09 0A 0B 0C 0D 0E 0F
      -- -- -- -- -- -- -- --  -- -- -- -- -- -- -- --
0030:                                      59 04 5C 21              Y.\!
0040: 03 01 04 80 1F 00 0A 80  0B 80 03 80 1F 01 00     ............... 
```

#### Opcodes

```
  0: 0x003C [0x59] UPDATE_ENTITY_DATA: Set Fari-Wari (ID: 16982364/0x0103215C) main speed = 13* * 0.1
  1: 0x0044 [0x1F] MOVE_ENTITY: EventEntity moves to X=79.235*, Z=-136.349*, Y=-6.000*
  2: 0x004C [0x1F] MOVE_ENTITY: Update entity position (mode=1)
  3: 0x004E [0x00] END_REQSTACK()
```

### Event 65535.5

#### Metadata

| Field        | Value    |
|--------------|----------|
| Entrypoint   | 0x004F   |
| Data Size    | 19 bytes |
| Instructions | 4        |

```
      00 01 02 03 04 05 06 07  08 09 0A 0B 0C 0D 0E 0F
      -- -- -- -- -- -- -- --  -- -- -- -- -- -- -- --
0040:                                               59                 Y
0050: 04 5C 21 03 01 04 80 1F  00 0C 80 0D 80 03 80 1F  .\!.............
0060: 01 00                                             ..              
```

#### Opcodes

```
  0: 0x004F [0x59] UPDATE_ENTITY_DATA: Set Fari-Wari (ID: 16982364/0x0103215C) main speed = 13* * 0.1
  1: 0x0057 [0x1F] MOVE_ENTITY: EventEntity moves to X=80.391*, Z=-136.859*, Y=-6.000*
  2: 0x005F [0x1F] MOVE_ENTITY: Update entity position (mode=1)
  3: 0x0061 [0x00] END_REQSTACK()
```

### Event 65535.6

#### Metadata

| Field        | Value    |
|--------------|----------|
| Entrypoint   | 0x0062   |
| Data Size    | 13 bytes |
| Instructions | 3        |

```
      00 01 02 03 04 05 06 07  08 09 0A 0B 0C 0D 0E 0F
      -- -- -- -- -- -- -- --  -- -- -- -- -- -- -- --
0060:       6E 5C 21 03 01 0E  80 99 5C 21 03 01 00       n\!.....\!... 
```

#### Opcodes

```
  0: 0x0062 [0x6E] Fari-Wari (ID: 16982364/0x0103215C) uses emote 38*
  1: 0x0069 [0x99] Wait for Fari-Wari (ID: 16982364/0x0103215C) animation to complete
  2: 0x006E [0x00] END_REQSTACK()
```

### Event 65535.7

#### Metadata

| Field        | Value    |
|--------------|----------|
| Entrypoint   | 0x006F   |
| Data Size    | 19 bytes |
| Instructions | 4        |

```
      00 01 02 03 04 05 06 07  08 09 0A 0B 0C 0D 0E 0F
      -- -- -- -- -- -- -- --  -- -- -- -- -- -- -- --
0060:                                               59                 Y
0070: 04 60 21 03 01 0F 80 1F  00 10 80 11 80 03 80 1F  .`!.............
0080: 01 00                                             ..              
```

#### Opcodes

```
  0: 0x006F [0x59] UPDATE_ENTITY_DATA: Set Gadalar (ID: 16982368/0x01032160) main speed = 15* * 0.1
  1: 0x0077 [0x1F] MOVE_ENTITY: EventEntity moves to X=80.526*, Z=-133.768*, Y=-6.000*
  2: 0x007F [0x1F] MOVE_ENTITY: Update entity position (mode=1)
  3: 0x0081 [0x00] END_REQSTACK()
```

### Event 65535.8

#### Metadata

| Field        | Value    |
|--------------|----------|
| Entrypoint   | 0x0082   |
| Data Size    | 19 bytes |
| Instructions | 4        |

```
      00 01 02 03 04 05 06 07  08 09 0A 0B 0C 0D 0E 0F
      -- -- -- -- -- -- -- --  -- -- -- -- -- -- -- --
0080:       59 04 60 21 03 01  12 80 1F 00 13 80 14 80    Y.`!..........
0090: 03 80 1F 01 00                                    .....           
```

#### Opcodes

```
  0: 0x0082 [0x59] UPDATE_ENTITY_DATA: Set Gadalar (ID: 16982368/0x01032160) main speed = 11* * 0.1
  1: 0x008A [0x1F] MOVE_ENTITY: EventEntity moves to X=80.682*, Z=-129.365*, Y=-6.000*
  2: 0x0092 [0x1F] MOVE_ENTITY: Update entity position (mode=1)
  3: 0x0094 [0x00] END_REQSTACK()
```

### Event 65535.9

#### Metadata

| Field        | Value    |
|--------------|----------|
| Entrypoint   | 0x0095   |
| Data Size    | 19 bytes |
| Instructions | 4        |

```
      00 01 02 03 04 05 06 07  08 09 0A 0B 0C 0D 0E 0F
      -- -- -- -- -- -- -- --  -- -- -- -- -- -- -- --
0090:                59 04 60  21 03 01 12 80 1F 00 13       Y.`!.......
00A0: 80 15 80 03 80 1F 01 00                           ........        
```

#### Opcodes

```
  0: 0x0095 [0x59] UPDATE_ENTITY_DATA: Set Gadalar (ID: 16982368/0x01032160) main speed = 11* * 0.1
  1: 0x009D [0x1F] MOVE_ENTITY: EventEntity moves to X=80.682*, Z=-122.365*, Y=-6.000*
  2: 0x00A5 [0x1F] MOVE_ENTITY: Update entity position (mode=1)
  3: 0x00A7 [0x00] END_REQSTACK()
```

### Event 65535.10

#### Metadata

| Field        | Value    |
|--------------|----------|
| Entrypoint   | 0x00A8   |
| Data Size    | 28 bytes |
| Instructions | 7        |

```
      00 01 02 03 04 05 06 07  08 09 0A 0B 0C 0D 0E 0F
      -- -- -- -- -- -- -- --  -- -- -- -- -- -- -- --
00A0:                          1F 00 16 80 17 80 03 80          ........
00B0: 1F 01 6F 79 00 AC 21 03  01 5C 21 03 01 1C 18 80  ..oy..!..\!.....
00C0: 39 19 80 00                                       9...            
```

#### Opcodes

```
  0: 0x00A8 [0x1F] MOVE_ENTITY: EventEntity moves to X=78.681*, Z=-132.522*, Y=-6.000*
  1: 0x00B0 [0x1F] MOVE_ENTITY: Update entity position (mode=1)
  2: 0x00B2 [0x6F] WAIT_FRAME_DELAY: Yield until WaitTime reaches zero
  3: 0x00B3 [0x79] Shayadar (ID: 16982444/0x010321AC) looks at Fari-Wari (ID: 16982364/0x0103215C) (Basic look)
  4: 0x00BD [0x1C] WAIT(30* ticks)
  5: 0x00C0 [0x39] SET_ENTITY_DIRECTION(direction=3.7°*)
  6: 0x00C3 [0x00] END_REQSTACK()
```

### Event 65535.11

#### Metadata

| Field        | Value    |
|--------------|----------|
| Entrypoint   | 0x00C4   |
| Data Size    | 11 bytes |
| Instructions | 3        |

```
      00 01 02 03 04 05 06 07  08 09 0A 0B 0C 0D 0E 0F
      -- -- -- -- -- -- -- --  -- -- -- -- -- -- -- --
00C0:             1F 00 1A 80  1B 80 03 80 1F 01 00         ........... 
```

#### Opcodes

```
  0: 0x00C4 [0x1F] MOVE_ENTITY: EventEntity moves to X=78.642*, Z=-119.395*, Y=-6.000*
  1: 0x00CC [0x1F] MOVE_ENTITY: Update entity position (mode=1)
  2: 0x00CE [0x00] END_REQSTACK()
```

### Event 65535.12

#### Metadata

| Field        | Value    |
|--------------|----------|
| Entrypoint   | 0x00CF   |
| Data Size    | 34 bytes |
| Instructions | 8        |

```
      00 01 02 03 04 05 06 07  08 09 0A 0B 0C 0D 0E 0F
      -- -- -- -- -- -- -- --  -- -- -- -- -- -- -- --
00C0:                                               1C                 .
00D0: 1C 80 1C 1D 80 6E 45 22  03 01 12 80 99 45 22 03  .....nE".....E".
00E0: 01 1C 1E 80 6E 46 22 03  01 04 80 99 46 22 03 01  ....nF".....F"..
00F0: 00                                                .               
```

#### Opcodes

```
  0: 0x00CF [0x1C] WAIT(3* ticks)
  1: 0x00D2 [0x1C] WAIT(2* ticks)
  2: 0x00D5 [0x6E] FAN7 (ID: 16982597/0x01032245) uses emote 11*
  3: 0x00DC [0x99] Wait for FAN7 (ID: 16982597/0x01032245) animation to complete
  4: 0x00E1 [0x1C] WAIT(5* ticks)
  5: 0x00E4 [0x6E] FAN8 (ID: 16982598/0x01032246) uses emote 13*
  6: 0x00EB [0x99] Wait for FAN8 (ID: 16982598/0x01032246) animation to complete
  7: 0x00F0 [0x00] END_REQSTACK()
```

### Event 65535.13

#### Metadata

| Field        | Value    |
|--------------|----------|
| Entrypoint   | 0x00F1   |
| Data Size    | 67 bytes |
| Instructions | 13       |

```
      00 01 02 03 04 05 06 07  08 09 0A 0B 0C 0D 0E 0F
      -- -- -- -- -- -- -- --  -- -- -- -- -- -- -- --
00F0:    6E 41 22 03 01 12 80  99 41 22 03 01 1C 1C 80   nA".....A".....
0100: 5B 1F 80 42 22 03 01 42  22 03 01 69 72 6F 30 1C  [..B"..B"..iro0.
0110: 20 80 1C 1C 80 1C 1D 80  6E 45 22 03 01 21 80 99   .......nE"..!..
0120: 45 22 03 01 1C 1E 80 6E  46 22 03 01 12 80 99 46  E".....nF".....F
0130: 22 03 01 00                                       "...            
```

#### Opcodes

```
  0: 0x00F1 [0x6E] FAN3 (ID: 16982593/0x01032241) uses emote 11*
  1: 0x00F8 [0x99] Wait for FAN3 (ID: 16982593/0x01032241) animation to complete
  2: 0x00FD [0x1C] WAIT(3* ticks)
  3: 0x0100 [0x5B] LOAD_EXT_SCHEDULER: Load scheduler "iro0" with entities [FAN4 (ID: 16982594/0x01032242), FAN4 (ID: 16982594/0x01032242)], work=1328*
  4: 0x010F [0x1C] WAIT(4* ticks)
  5: 0x0112 [0x1C] WAIT(3* ticks)
  6: 0x0115 [0x1C] WAIT(2* ticks)
  7: 0x0118 [0x6E] FAN7 (ID: 16982597/0x01032245) uses emote 8*
  8: 0x011F [0x99] Wait for FAN7 (ID: 16982597/0x01032245) animation to complete
  9: 0x0124 [0x1C] WAIT(5* ticks)
 10: 0x0127 [0x6E] FAN8 (ID: 16982598/0x01032246) uses emote 11*
 11: 0x012E [0x99] Wait for FAN8 (ID: 16982598/0x01032246) animation to complete
 12: 0x0133 [0x00] END_REQSTACK()
```

### Event 65535.14

#### Metadata

| Field        | Value    |
|--------------|----------|
| Entrypoint   | 0x0134   |
| Data Size    | 37 bytes |
| Instructions | 7        |

```
      00 01 02 03 04 05 06 07  08 09 0A 0B 0C 0D 0E 0F
      -- -- -- -- -- -- -- --  -- -- -- -- -- -- -- --
0130:             6E 3C 22 03  01 22 80 99 3C 22 03 01      n<".."..<"..
0140: 6E 3D 22 03 01 21 80 99  3D 22 03 01 6E 3E 22 03  n="..!..="..n>".
0150: 01 23 80 99 3E 22 03 01  00                       .#..>"...       
```

#### Opcodes

```
  0: 0x0134 [0x6E] Wajran (ID: 16982588/0x0103223C) uses emote 1*
  1: 0x013B [0x99] Wait for Wajran (ID: 16982588/0x0103223C) animation to complete
  2: 0x0140 [0x6E] PAKU02 (ID: 16982589/0x0103223D) uses emote 8*
  3: 0x0147 [0x99] Wait for PAKU02 (ID: 16982589/0x0103223D) animation to complete
  4: 0x014C [0x6E] PAKU03 (ID: 16982590/0x0103223E) uses emote 10*
  5: 0x0153 [0x99] Wait for PAKU03 (ID: 16982590/0x0103223E) animation to complete
  6: 0x0158 [0x00] END_REQSTACK()
```

### Event 65535.15

#### Metadata

| Field        | Value    |
|--------------|----------|
| Entrypoint   | 0x0159   |
| Data Size    | 37 bytes |
| Instructions | 7        |

```
      00 01 02 03 04 05 06 07  08 09 0A 0B 0C 0D 0E 0F
      -- -- -- -- -- -- -- --  -- -- -- -- -- -- -- --
0150:                             6E 3C 22 03 01 24 80           n<"..$.
0160: 99 3C 22 03 01 6E 3D 22  03 01 24 80 99 3D 22 03  .<"..n="..$..=".
0170: 01 6E 3E 22 03 01 24 80  99 3E 22 03 01 00        .n>"..$..>"...  
```

#### Opcodes

```
  0: 0x0159 [0x6E] Wajran (ID: 16982588/0x0103223C) uses emote 65*
  1: 0x0160 [0x99] Wait for Wajran (ID: 16982588/0x0103223C) animation to complete
  2: 0x0165 [0x6E] PAKU02 (ID: 16982589/0x0103223D) uses emote 65*
  3: 0x016C [0x99] Wait for PAKU02 (ID: 16982589/0x0103223D) animation to complete
  4: 0x0171 [0x6E] PAKU03 (ID: 16982590/0x0103223E) uses emote 65*
  5: 0x0178 [0x99] Wait for PAKU03 (ID: 16982590/0x0103223E) animation to complete
  6: 0x017D [0x00] END_REQSTACK()
```

### Event 65535.16

#### Metadata

| Field        | Value    |
|--------------|----------|
| Entrypoint   | 0x017E   |
| Data Size    | 15 bytes |
| Instructions | 5        |

```
      00 01 02 03 04 05 06 07  08 09 0A 0B 0C 0D 0E 0F
      -- -- -- -- -- -- -- --  -- -- -- -- -- -- -- --
0170:                                            32 25                2%
0180: 80 1F 00 26 80 27 80 28  80 1F 01 6F 00           ...&.'.(...o.   
```

#### Opcodes

```
  0: 0x017E [0x32] ExtData[1]->MainSpeed = 40* * 0.1
  1: 0x0181 [0x1F] MOVE_ENTITY: EventEntity moves to X=-106.147*, Z=34.166*, Y=-5.999*
  2: 0x0189 [0x1F] MOVE_ENTITY: Update entity position (mode=1)
  3: 0x018B [0x6F] WAIT_FRAME_DELAY: Yield until WaitTime reaches zero
  4: 0x018C [0x00] END_REQSTACK()
```

### Event 65535.17

#### Metadata

| Field        | Value   |
|--------------|---------|
| Entrypoint   | 0x018D  |
| Data Size    | 5 bytes |
| Instructions | 2       |

```
      00 01 02 03 04 05 06 07  08 09 0A 0B 0C 0D 0E 0F
      -- -- -- -- -- -- -- --  -- -- -- -- -- -- -- --
0180:                                         B6 0A 24               ..$
0190: 80 00                                             ..              
```

#### Opcodes

```
  0: 0x018D [0xB6] ENTITY_APPEARANCE_HANDLER(case=Ranged, value=65*)
  1: 0x0191 [0x00] END_REQSTACK()
```

### Event 65535.18

#### Metadata

| Field        | Value   |
|--------------|---------|
| Entrypoint   | 0x0192  |
| Data Size    | 5 bytes |
| Instructions | 2       |

```
      00 01 02 03 04 05 06 07  08 09 0A 0B 0C 0D 0E 0F
      -- -- -- -- -- -- -- --  -- -- -- -- -- -- -- --
0190:       B6 0A 29 80 00                                ..)..         
```

#### Opcodes

```
  0: 0x0192 [0xB6] ENTITY_APPEARANCE_HANDLER(case=Ranged, value=0*)
  1: 0x0196 [0x00] END_REQSTACK()
```

### Event 65535.19

#### Metadata

| Field        | Value   |
|--------------|---------|
| Entrypoint   | 0x0197  |
| Data Size    | 5 bytes |
| Instructions | 2       |

```
      00 01 02 03 04 05 06 07  08 09 0A 0B 0C 0D 0E 0F
      -- -- -- -- -- -- -- --  -- -- -- -- -- -- -- --
0190:                      B6  0A 2A 80 00                     ..*..    
```

#### Opcodes

```
  0: 0x0197 [0xB6] ENTITY_APPEARANCE_HANDLER(case=Ranged, value=75*)
  1: 0x019B [0x00] END_REQSTACK()
```

### Event 65535.20

#### Metadata

| Field        | Value   |
|--------------|---------|
| Entrypoint   | 0x019C  |
| Data Size    | 5 bytes |
| Instructions | 2       |

```
      00 01 02 03 04 05 06 07  08 09 0A 0B 0C 0D 0E 0F
      -- -- -- -- -- -- -- --  -- -- -- -- -- -- -- --
0190:                                      B6 0A 29 80              ..).
01A0: 00                                                .               
```

#### Opcodes

```
  0: 0x019C [0xB6] ENTITY_APPEARANCE_HANDLER(case=Ranged, value=0*)
  1: 0x01A0 [0x00] END_REQSTACK()
```

### Event 65535.21

#### Metadata

| Field        | Value    |
|--------------|----------|
| Entrypoint   | 0x01A1   |
| Data Size    | 27 bytes |
| Instructions | 7        |

```
      00 01 02 03 04 05 06 07  08 09 0A 0B 0C 0D 0E 0F
      -- -- -- -- -- -- -- --  -- -- -- -- -- -- -- --
01A0:    1F 00 2B 80 2C 80 29  80 1F 01 6F 4A 61 21 03   ..+.,.)...oJa!.
01B0: 01 5F 21 03 01 6F 76 61  21 03 01 00              ._!..ova!...    
```

#### Opcodes

```
  0: 0x01A1 [0x1F] MOVE_ENTITY: EventEntity moves to X=-5.700*, Z=-28.344*, Y=0.000*
  1: 0x01A9 [0x1F] MOVE_ENTITY: Update entity position (mode=1)
  2: 0x01AB [0x6F] WAIT_FRAME_DELAY: Yield until WaitTime reaches zero
  3: 0x01AC [0x4A] Najelith (ID: 16982369/0x01032161) looks at Rughadjeen (ID: 16982367/0x0103215F)
  4: 0x01B5 [0x6F] WAIT_FRAME_DELAY: Yield until WaitTime reaches zero
  5: 0x01B6 [0x76] CHECK_ENTITY_RENDER_FLAGS: Wait until Najelith (ID: 16982369/0x01032161) Render.Flags0 and Render.Flags3 conditions are met
  6: 0x01BB [0x00] END_REQSTACK()
```

### Event 65535.22

#### Metadata

| Field        | Value    |
|--------------|----------|
| Entrypoint   | 0x01BC   |
| Data Size    | 27 bytes |
| Instructions | 7        |

```
      00 01 02 03 04 05 06 07  08 09 0A 0B 0C 0D 0E 0F
      -- -- -- -- -- -- -- --  -- -- -- -- -- -- -- --
01B0:                                      1F 00 2D 80              ..-.
01C0: 2E 80 29 80 1F 01 6F 4A  5F 21 03 01 61 21 03 01  ..)...oJ_!..a!..
01D0: 6F 76 5F 21 03 01 00                              ov_!...         
```

#### Opcodes

```
  0: 0x01BC [0x1F] MOVE_ENTITY: EventEntity moves to X=-3.756*, Z=-27.826*, Y=0.000*
  1: 0x01C4 [0x1F] MOVE_ENTITY: Update entity position (mode=1)
  2: 0x01C6 [0x6F] WAIT_FRAME_DELAY: Yield until WaitTime reaches zero
  3: 0x01C7 [0x4A] Rughadjeen (ID: 16982367/0x0103215F) looks at Najelith (ID: 16982369/0x01032161)
  4: 0x01D0 [0x6F] WAIT_FRAME_DELAY: Yield until WaitTime reaches zero
  5: 0x01D1 [0x76] CHECK_ENTITY_RENDER_FLAGS: Wait until Rughadjeen (ID: 16982367/0x0103215F) Render.Flags0 and Render.Flags3 conditions are met
  6: 0x01D6 [0x00] END_REQSTACK()
```

### Event 65535.23

#### Metadata

| Field        | Value    |
|--------------|----------|
| Entrypoint   | 0x01D7   |
| Data Size    | 40 bytes |
| Instructions | 6        |

```
      00 01 02 03 04 05 06 07  08 09 0A 0B 0C 0D 0E 0F
      -- -- -- -- -- -- -- --  -- -- -- -- -- -- -- --
01D0:                      1F  00 2F 80 30 80 29 80 1F         ../.0.)..
01E0: 01 6F 66 31 80 5F 21 03  01 5F 21 03 01 73 68 61  .of1._!.._!..sha
01F0: 30 53 5F 21 03 01 5F 21  03 01 73 68 61 30 00     0S_!.._!..sha0. 
```

#### Opcodes

```
  0: 0x01D7 [0x1F] MOVE_ENTITY: EventEntity moves to X=-2.438*, Z=-27.426*, Y=0.000*
  1: 0x01DF [0x1F] MOVE_ENTITY: Update entity position (mode=1)
  2: 0x01E1 [0x6F] WAIT_FRAME_DELAY: Yield until WaitTime reaches zero
  3: 0x01E2 [0x66] LOAD_EXT_SCHEDULER_MAIN: Load scheduler "sha0" with entities [Rughadjeen (ID: 16982367/0x0103215F), Rughadjeen (ID: 16982367/0x0103215F)], work=29*
  4: 0x01F1 [0x53] WAIT_SCHEDULER_TASK: Wait for scheduler "sha0" with entities [Rughadjeen (ID: 16982367/0x0103215F), Rughadjeen (ID: 16982367/0x0103215F)]
  5: 0x01FE [0x00] END_REQSTACK()
```

### Event 65535.24

#### Metadata

| Field        | Value    |
|--------------|----------|
| Entrypoint   | 0x01FF   |
| Data Size    | 19 bytes |
| Instructions | 3        |

```
      00 01 02 03 04 05 06 07  08 09 0A 0B 0C 0D 0E 0F
      -- -- -- -- -- -- -- --  -- -- -- -- -- -- -- --
01F0:                                               1C                 .
0200: 32 80 66 33 80 5C 21 03  01 5C 21 03 01 62 73 6B  2.f3.\!..\!..bsk
0210: 30 00                                             0.              
```

#### Opcodes

```
  0: 0x01FF [0x1C] WAIT(45* ticks)
  1: 0x0202 [0x66] LOAD_EXT_SCHEDULER_MAIN: Load scheduler "bsk0" with entities [Fari-Wari (ID: 16982364/0x0103215C), Fari-Wari (ID: 16982364/0x0103215C)], work=42*
  2: 0x0211 [0x00] END_REQSTACK()
```

### Event 65535.25

#### Metadata

| Field        | Value    |
|--------------|----------|
| Entrypoint   | 0x0212   |
| Data Size    | 24 bytes |
| Instructions | 6        |

```
      00 01 02 03 04 05 06 07  08 09 0A 0B 0C 0D 0E 0F
      -- -- -- -- -- -- -- --  -- -- -- -- -- -- -- --
0210:       32 25 80 1F 00 34  80 35 80 28 80 1F 01 6F    2%...4.5.(...o
0220: 4A 5C 21 03 01 2C 22 03  01 00                    J\!..,"...      
```

#### Opcodes

```
  0: 0x0212 [0x32] ExtData[1]->MainSpeed = 40* * 0.1
  1: 0x0215 [0x1F] MOVE_ENTITY: EventEntity moves to X=86.503*, Z=-129.792*, Y=-5.999*
  2: 0x021D [0x1F] MOVE_ENTITY: Update entity position (mode=1)
  3: 0x021F [0x6F] WAIT_FRAME_DELAY: Yield until WaitTime reaches zero
  4: 0x0220 [0x4A] Fari-Wari (ID: 16982364/0x0103215C) looks at Wajran (ID: 16982572/0x0103222C)
  5: 0x0229 [0x00] END_REQSTACK()
```

### Event 5091

#### Metadata

| Field        | Value   |
|--------------|---------|
| Entrypoint   | 0x022A  |
| Data Size    | 1 bytes |
| Instructions | 1       |

```
      00 01 02 03 04 05 06 07  08 09 0A 0B 0C 0D 0E 0F
      -- -- -- -- -- -- -- --  -- -- -- -- -- -- -- --
0220:                                00                           .     
```

#### Opcodes

```
  0: 0x022A [0x00] END_REQSTACK()
```

### Event 65535.26

#### Metadata

| Field        | Value   |
|--------------|---------|
| Entrypoint   | 0x022B  |
| Data Size    | 3 bytes |
| Instructions | 2       |

```
      00 01 02 03 04 05 06 07  08 09 0A 0B 0C 0D 0E 0F
      -- -- -- -- -- -- -- --  -- -- -- -- -- -- -- --
0220:                                   A5 01 00                   ...  
```

#### Opcodes

```
  0: 0x022B [0xA5] EventEntity->Flags3.BallistaTeam |= 0x08  // Set bit 3 of BallistaTeam
  1: 0x022D [0x00] END_REQSTACK()
```

### Event 65535.27

#### Metadata

| Field        | Value   |
|--------------|---------|
| Entrypoint   | 0x022E  |
| Data Size    | 3 bytes |
| Instructions | 2       |

```
      00 01 02 03 04 05 06 07  08 09 0A 0B 0C 0D 0E 0F
      -- -- -- -- -- -- -- --  -- -- -- -- -- -- -- --
0220:                                            A5 00                ..
0230: 00                                                .               
```

#### Opcodes

```
  0: 0x022E [0xA5] EventEntity->Flags3.BallistaTeam &= ~0x08  // Clear bit 3 of BallistaTeam
  1: 0x0230 [0x00] END_REQSTACK()
```

### Event 177

#### Metadata

| Field        | Value   |
|--------------|---------|
| Entrypoint   | 0x0231  |
| Data Size    | 7 bytes |
| Instructions | 2       |

```
      00 01 02 03 04 05 06 07  08 09 0A 0B 0C 0D 0E 0F
      -- -- -- -- -- -- -- --  -- -- -- -- -- -- -- --
0230:    92 01 F8 FF FF 7F 00                            .......        
```

#### Opcodes

```
  0: 0x0231 [0x92] EventEntity->Render.Flags3 ^= 0x01
  1: 0x0237 [0x00] END_REQSTACK()
```

### Event 65535.28

#### Metadata

| Field        | Value    |
|--------------|----------|
| Entrypoint   | 0x0238   |
| Data Size    | 15 bytes |
| Instructions | 5        |

```
      00 01 02 03 04 05 06 07  08 09 0A 0B 0C 0D 0E 0F
      -- -- -- -- -- -- -- --  -- -- -- -- -- -- -- --
0230:                          32 04 80 1F 00 29 80 36          2....).6
0240: 80 29 80 1F 01 6F 00                              .)...o.         
```

#### Opcodes

```
  0: 0x0238 [0x32] ExtData[1]->MainSpeed = 13* * 0.1
  1: 0x023B [0x1F] MOVE_ENTITY: EventEntity moves to X=0.000*, Z=15.500*, Y=0.000*
  2: 0x0243 [0x1F] MOVE_ENTITY: Update entity position (mode=1)
  3: 0x0245 [0x6F] WAIT_FRAME_DELAY: Yield until WaitTime reaches zero
  4: 0x0246 [0x00] END_REQSTACK()
```

### Event 65535.29

#### Metadata

| Field        | Value    |
|--------------|----------|
| Entrypoint   | 0x0247   |
| Data Size    | 16 bytes |
| Instructions | 2        |

```
      00 01 02 03 04 05 06 07  08 09 0A 0B 0C 0D 0E 0F
      -- -- -- -- -- -- -- --  -- -- -- -- -- -- -- --
0240:                      5B  37 80 F8 FF FF 7F F8 FF         [7.......
0250: FF 7F 62 73 69 30 00                              ..bsi0.         
```

#### Opcodes

```
  0: 0x0247 [0x5B] LOAD_EXT_SCHEDULER: Load scheduler "bsi0" with entities [EventEntity, EventEntity], work=2383*
  1: 0x0256 [0x00] END_REQSTACK()
```

### Event 65535.30

#### Metadata

| Field        | Value    |
|--------------|----------|
| Entrypoint   | 0x0257   |
| Data Size    | 14 bytes |
| Instructions | 2        |

```
      00 01 02 03 04 05 06 07  08 09 0A 0B 0C 0D 0E 0F
      -- -- -- -- -- -- -- --  -- -- -- -- -- -- -- --
0250:                      53  F8 FF FF 7F F8 FF FF 7F         S........
0260: 62 73 69 30 00                                    bsi0.           
```

#### Opcodes

```
  0: 0x0257 [0x53] WAIT_SCHEDULER_TASK: Wait for scheduler "bsi0" with entities [EventEntity, EventEntity]
  1: 0x0264 [0x00] END_REQSTACK()
```

### Event 65535.31

#### Metadata

| Field        | Value    |
|--------------|----------|
| Entrypoint   | 0x0265   |
| Data Size    | 22 bytes |
| Instructions | 3        |

```
      00 01 02 03 04 05 06 07  08 09 0A 0B 0C 0D 0E 0F
      -- -- -- -- -- -- -- --  -- -- -- -- -- -- -- --
0260:                7C 00 F8  FF FF 7F 5B 38 80 F8 FF       |.....[8...
0270: FF 7F F8 FF FF 7F 73 69  74 30 00                 ......sit0.     
```

#### Opcodes

```
  0: 0x0265 [0x7C] EventEntity->Render.Flags2 |= 0x00
  1: 0x026B [0x5B] LOAD_EXT_SCHEDULER: Load scheduler "sit0" with entities [EventEntity, EventEntity], work=1250*
  2: 0x027A [0x00] END_REQSTACK()
```

### Event 65535.32

#### Metadata

| Field        | Value    |
|--------------|----------|
| Entrypoint   | 0x027B   |
| Data Size    | 14 bytes |
| Instructions | 2        |

```
      00 01 02 03 04 05 06 07  08 09 0A 0B 0C 0D 0E 0F
      -- -- -- -- -- -- -- --  -- -- -- -- -- -- -- --
0270:                                   53 F8 FF FF 7F             S....
0280: F8 FF FF 7F 73 69 74 30  00                       ....sit0.       
```

#### Opcodes

```
  0: 0x027B [0x53] WAIT_SCHEDULER_TASK: Wait for scheduler "sit0" with entities [EventEntity, EventEntity]
  1: 0x0288 [0x00] END_REQSTACK()
```

### Event 65535.33

#### Metadata

| Field        | Value    |
|--------------|----------|
| Entrypoint   | 0x0289   |
| Data Size    | 16 bytes |
| Instructions | 2        |

```
      00 01 02 03 04 05 06 07  08 09 0A 0B 0C 0D 0E 0F
      -- -- -- -- -- -- -- --  -- -- -- -- -- -- -- --
0280:                             5B 38 80 F8 FF FF 7F           [8.....
0290: F8 FF FF 7F 73 69 74 31  00                       ....sit1.       
```

#### Opcodes

```
  0: 0x0289 [0x5B] LOAD_EXT_SCHEDULER: Load scheduler "sit1" with entities [EventEntity, EventEntity], work=1250*
  1: 0x0298 [0x00] END_REQSTACK()
```

### Event 65535.34

#### Metadata

| Field        | Value    |
|--------------|----------|
| Entrypoint   | 0x0299   |
| Data Size    | 20 bytes |
| Instructions | 3        |

```
      00 01 02 03 04 05 06 07  08 09 0A 0B 0C 0D 0E 0F
      -- -- -- -- -- -- -- --  -- -- -- -- -- -- -- --
0290:                             53 F8 FF FF 7F F8 FF           S......
02A0: FF 7F 73 69 74 31 7C 01  F8 FF FF 7F 00           ..sit1|......   
```

#### Opcodes

```
  0: 0x0299 [0x53] WAIT_SCHEDULER_TASK: Wait for scheduler "sit1" with entities [EventEntity, EventEntity]
  1: 0x02A6 [0x7C] EventEntity->Render.Flags2 |= 0x01
  2: 0x02AC [0x00] END_REQSTACK()
```

### Event 65535.35

#### Metadata

| Field        | Value    |
|--------------|----------|
| Entrypoint   | 0x02AD   |
| Data Size    | 16 bytes |
| Instructions | 2        |

```
      00 01 02 03 04 05 06 07  08 09 0A 0B 0C 0D 0E 0F
      -- -- -- -- -- -- -- --  -- -- -- -- -- -- -- --
02A0:                                         66 39 80               f9.
02B0: F8 FF FF 7F F8 FF FF 7F  74 6C 6B 30 00           ........tlk0.   
```

#### Opcodes

```
  0: 0x02AD [0x66] LOAD_EXT_SCHEDULER_MAIN: Load scheduler "tlk0" with entities [EventEntity, EventEntity], work=9*
  1: 0x02BC [0x00] END_REQSTACK()
```

### Event 65535.36

#### Metadata

| Field        | Value    |
|--------------|----------|
| Entrypoint   | 0x02BD   |
| Data Size    | 14 bytes |
| Instructions | 2        |

```
      00 01 02 03 04 05 06 07  08 09 0A 0B 0C 0D 0E 0F
      -- -- -- -- -- -- -- --  -- -- -- -- -- -- -- --
02B0:                                         53 F8 FF               S..
02C0: FF 7F F8 FF FF 7F 74 6C  6B 30 00                 ......tlk0.     
```

#### Opcodes

```
  0: 0x02BD [0x53] WAIT_SCHEDULER_TASK: Wait for scheduler "tlk0" with entities [EventEntity, EventEntity]
  1: 0x02CA [0x00] END_REQSTACK()
```

### Event 65535.37

#### Metadata

| Field        | Value    |
|--------------|----------|
| Entrypoint   | 0x02CB   |
| Data Size    | 16 bytes |
| Instructions | 2        |

```
      00 01 02 03 04 05 06 07  08 09 0A 0B 0C 0D 0E 0F
      -- -- -- -- -- -- -- --  -- -- -- -- -- -- -- --
02C0:                                   66 39 80 F8 FF             f9...
02D0: FF 7F F8 FF FF 7F 74 6C  6B 31 00                 ......tlk1.     
```

#### Opcodes

```
  0: 0x02CB [0x66] LOAD_EXT_SCHEDULER_MAIN: Load scheduler "tlk1" with entities [EventEntity, EventEntity], work=9*
  1: 0x02DA [0x00] END_REQSTACK()
```

### Event 65535.38

#### Metadata

| Field        | Value    |
|--------------|----------|
| Entrypoint   | 0x02DB   |
| Data Size    | 14 bytes |
| Instructions | 2        |

```
      00 01 02 03 04 05 06 07  08 09 0A 0B 0C 0D 0E 0F
      -- -- -- -- -- -- -- --  -- -- -- -- -- -- -- --
02D0:                                   53 F8 FF FF 7F             S....
02E0: F8 FF FF 7F 74 6C 6B 31  00                       ....tlk1.       
```

#### Opcodes

```
  0: 0x02DB [0x53] WAIT_SCHEDULER_TASK: Wait for scheduler "tlk1" with entities [EventEntity, EventEntity]
  1: 0x02E8 [0x00] END_REQSTACK()
```

### Event 65535.39

#### Metadata

| Field        | Value    |
|--------------|----------|
| Entrypoint   | 0x02E9   |
| Data Size    | 16 bytes |
| Instructions | 2        |

```
      00 01 02 03 04 05 06 07  08 09 0A 0B 0C 0D 0E 0F
      -- -- -- -- -- -- -- --  -- -- -- -- -- -- -- --
02E0:                             66 3A 80 F8 FF FF 7F           f:.....
02F0: F8 FF FF 7F 74 6C 6B 30  00                       ....tlk0.       
```

#### Opcodes

```
  0: 0x02E9 [0x66] LOAD_EXT_SCHEDULER_MAIN: Load scheduler "tlk0" with entities [EventEntity, EventEntity], work=149*
  1: 0x02F8 [0x00] END_REQSTACK()
```

### Event 65535.40

#### Metadata

| Field        | Value    |
|--------------|----------|
| Entrypoint   | 0x02F9   |
| Data Size    | 14 bytes |
| Instructions | 2        |

```
      00 01 02 03 04 05 06 07  08 09 0A 0B 0C 0D 0E 0F
      -- -- -- -- -- -- -- --  -- -- -- -- -- -- -- --
02F0:                             53 F8 FF FF 7F F8 FF           S......
0300: FF 7F 74 6C 6B 30 00                              ..tlk0.         
```

#### Opcodes

```
  0: 0x02F9 [0x53] WAIT_SCHEDULER_TASK: Wait for scheduler "tlk0" with entities [EventEntity, EventEntity]
  1: 0x0306 [0x00] END_REQSTACK()
```

### Event 65535.41

#### Metadata

| Field        | Value    |
|--------------|----------|
| Entrypoint   | 0x0307   |
| Data Size    | 16 bytes |
| Instructions | 2        |

```
      00 01 02 03 04 05 06 07  08 09 0A 0B 0C 0D 0E 0F
      -- -- -- -- -- -- -- --  -- -- -- -- -- -- -- --
0300:                      66  3A 80 F8 FF FF 7F F8 FF         f:.......
0310: FF 7F 74 6C 6B 31 00                              ..tlk1.         
```

#### Opcodes

```
  0: 0x0307 [0x66] LOAD_EXT_SCHEDULER_MAIN: Load scheduler "tlk1" with entities [EventEntity, EventEntity], work=149*
  1: 0x0316 [0x00] END_REQSTACK()
```

### Event 65535.42

#### Metadata

| Field        | Value    |
|--------------|----------|
| Entrypoint   | 0x0317   |
| Data Size    | 14 bytes |
| Instructions | 2        |

```
      00 01 02 03 04 05 06 07  08 09 0A 0B 0C 0D 0E 0F
      -- -- -- -- -- -- -- --  -- -- -- -- -- -- -- --
0310:                      53  F8 FF FF 7F F8 FF FF 7F         S........
0320: 74 6C 6B 31 00                                    tlk1.           
```

#### Opcodes

```
  0: 0x0317 [0x53] WAIT_SCHEDULER_TASK: Wait for scheduler "tlk1" with entities [EventEntity, EventEntity]
  1: 0x0324 [0x00] END_REQSTACK()
```

### Event 65535.43

#### Metadata

| Field        | Value    |
|--------------|----------|
| Entrypoint   | 0x0325   |
| Data Size    | 16 bytes |
| Instructions | 2        |

```
      00 01 02 03 04 05 06 07  08 09 0A 0B 0C 0D 0E 0F
      -- -- -- -- -- -- -- --  -- -- -- -- -- -- -- --
0320:                66 3A 80  F8 FF FF 7F F8 FF FF 7F       f:.........
0330: 73 61 73 30 00                                    sas0.           
```

#### Opcodes

```
  0: 0x0325 [0x66] LOAD_EXT_SCHEDULER_MAIN: Load scheduler "sas0" with entities [EventEntity, EventEntity], work=149*
  1: 0x0334 [0x00] END_REQSTACK()
```

### Event 65535.44

#### Metadata

| Field        | Value    |
|--------------|----------|
| Entrypoint   | 0x0335   |
| Data Size    | 14 bytes |
| Instructions | 2        |

```
      00 01 02 03 04 05 06 07  08 09 0A 0B 0C 0D 0E 0F
      -- -- -- -- -- -- -- --  -- -- -- -- -- -- -- --
0330:                53 F8 FF  FF 7F F8 FF FF 7F 73 61       S........sa
0340: 73 30 00                                          s0.             
```

#### Opcodes

```
  0: 0x0335 [0x53] WAIT_SCHEDULER_TASK: Wait for scheduler "sas0" with entities [EventEntity, EventEntity]
  1: 0x0342 [0x00] END_REQSTACK()
```

### Event 65535.45

#### Metadata

| Field        | Value    |
|--------------|----------|
| Entrypoint   | 0x0343   |
| Data Size    | 16 bytes |
| Instructions | 2        |

```
      00 01 02 03 04 05 06 07  08 09 0A 0B 0C 0D 0E 0F
      -- -- -- -- -- -- -- --  -- -- -- -- -- -- -- --
0340:          66 3A 80 F8 FF  FF 7F F8 FF FF 7F 73 61     f:.........sa
0350: 73 31 00                                          s1.             
```

#### Opcodes

```
  0: 0x0343 [0x66] LOAD_EXT_SCHEDULER_MAIN: Load scheduler "sas1" with entities [EventEntity, EventEntity], work=149*
  1: 0x0352 [0x00] END_REQSTACK()
```

### Event 65535.46

#### Metadata

| Field        | Value    |
|--------------|----------|
| Entrypoint   | 0x0353   |
| Data Size    | 14 bytes |
| Instructions | 2        |

```
      00 01 02 03 04 05 06 07  08 09 0A 0B 0C 0D 0E 0F
      -- -- -- -- -- -- -- --  -- -- -- -- -- -- -- --
0350:          53 F8 FF FF 7F  F8 FF FF 7F 73 61 73 31     S........sas1
0360: 00                                                .               
```

#### Opcodes

```
  0: 0x0353 [0x53] WAIT_SCHEDULER_TASK: Wait for scheduler "sas1" with entities [EventEntity, EventEntity]
  1: 0x0360 [0x00] END_REQSTACK()
```

### Event 65535.47

#### Metadata

| Field        | Value    |
|--------------|----------|
| Entrypoint   | 0x0361   |
| Data Size    | 16 bytes |
| Instructions | 2        |

```
      00 01 02 03 04 05 06 07  08 09 0A 0B 0C 0D 0E 0F
      -- -- -- -- -- -- -- --  -- -- -- -- -- -- -- --
0360:    66 3A 80 F8 FF FF 7F  F8 FF FF 7F 75 64 65 30   f:.........ude0
0370: 00                                                .               
```

#### Opcodes

```
  0: 0x0361 [0x66] LOAD_EXT_SCHEDULER_MAIN: Load scheduler "ude0" with entities [EventEntity, EventEntity], work=149*
  1: 0x0370 [0x00] END_REQSTACK()
```

### Event 65535.48

#### Metadata

| Field        | Value    |
|--------------|----------|
| Entrypoint   | 0x0371   |
| Data Size    | 14 bytes |
| Instructions | 2        |

```
      00 01 02 03 04 05 06 07  08 09 0A 0B 0C 0D 0E 0F
      -- -- -- -- -- -- -- --  -- -- -- -- -- -- -- --
0370:    53 F8 FF FF 7F F8 FF  FF 7F 75 64 65 30 00      S........ude0. 
```

#### Opcodes

```
  0: 0x0371 [0x53] WAIT_SCHEDULER_TASK: Wait for scheduler "ude0" with entities [EventEntity, EventEntity]
  1: 0x037E [0x00] END_REQSTACK()
```

### Event 65535.49

#### Metadata

| Field        | Value    |
|--------------|----------|
| Entrypoint   | 0x037F   |
| Data Size    | 16 bytes |
| Instructions | 2        |

```
      00 01 02 03 04 05 06 07  08 09 0A 0B 0C 0D 0E 0F
      -- -- -- -- -- -- -- --  -- -- -- -- -- -- -- --
0370:                                               66                 f
0380: 3A 80 F8 FF FF 7F F8 FF  FF 7F 75 79 65 73 00     :.........uyes. 
```

#### Opcodes

```
  0: 0x037F [0x66] LOAD_EXT_SCHEDULER_MAIN: Load scheduler "uyes" with entities [EventEntity, EventEntity], work=149*
  1: 0x038E [0x00] END_REQSTACK()
```

### Event 65535.50

#### Metadata

| Field        | Value    |
|--------------|----------|
| Entrypoint   | 0x038F   |
| Data Size    | 14 bytes |
| Instructions | 2        |

```
      00 01 02 03 04 05 06 07  08 09 0A 0B 0C 0D 0E 0F
      -- -- -- -- -- -- -- --  -- -- -- -- -- -- -- --
0380:                                               53                 S
0390: F8 FF FF 7F F8 FF FF 7F  75 79 65 73 00           ........uyes.   
```

#### Opcodes

```
  0: 0x038F [0x53] WAIT_SCHEDULER_TASK: Wait for scheduler "uyes" with entities [EventEntity, EventEntity]
  1: 0x039C [0x00] END_REQSTACK()
```

### Event 65535.51

#### Metadata

| Field        | Value    |
|--------------|----------|
| Entrypoint   | 0x039D   |
| Data Size    | 16 bytes |
| Instructions | 2        |

```
      00 01 02 03 04 05 06 07  08 09 0A 0B 0C 0D 0E 0F
      -- -- -- -- -- -- -- --  -- -- -- -- -- -- -- --
0390:                                         66 39 80               f9.
03A0: F8 FF FF 7F F8 FF FF 7F  74 68 6B 31 00           ........thk1.   
```

#### Opcodes

```
  0: 0x039D [0x66] LOAD_EXT_SCHEDULER_MAIN: Load scheduler "thk1" with entities [EventEntity, EventEntity], work=9*
  1: 0x03AC [0x00] END_REQSTACK()
```

### Event 65535.52

#### Metadata

| Field        | Value    |
|--------------|----------|
| Entrypoint   | 0x03AD   |
| Data Size    | 14 bytes |
| Instructions | 2        |

```
      00 01 02 03 04 05 06 07  08 09 0A 0B 0C 0D 0E 0F
      -- -- -- -- -- -- -- --  -- -- -- -- -- -- -- --
03A0:                                         53 F8 FF               S..
03B0: FF 7F F8 FF FF 7F 74 68  6B 31 00                 ......thk1.     
```

#### Opcodes

```
  0: 0x03AD [0x53] WAIT_SCHEDULER_TASK: Wait for scheduler "thk1" with entities [EventEntity, EventEntity]
  1: 0x03BA [0x00] END_REQSTACK()
```

### Event 65535.53

#### Metadata

| Field        | Value    |
|--------------|----------|
| Entrypoint   | 0x03BB   |
| Data Size    | 16 bytes |
| Instructions | 2        |

```
      00 01 02 03 04 05 06 07  08 09 0A 0B 0C 0D 0E 0F
      -- -- -- -- -- -- -- --  -- -- -- -- -- -- -- --
03B0:                                   66 39 80 F8 FF             f9...
03C0: FF 7F F8 FF FF 7F 74 68  6B 32 00                 ......thk2.     
```

#### Opcodes

```
  0: 0x03BB [0x66] LOAD_EXT_SCHEDULER_MAIN: Load scheduler "thk2" with entities [EventEntity, EventEntity], work=9*
  1: 0x03CA [0x00] END_REQSTACK()
```

### Event 65535.54

#### Metadata

| Field        | Value    |
|--------------|----------|
| Entrypoint   | 0x03CB   |
| Data Size    | 14 bytes |
| Instructions | 2        |

```
      00 01 02 03 04 05 06 07  08 09 0A 0B 0C 0D 0E 0F
      -- -- -- -- -- -- -- --  -- -- -- -- -- -- -- --
03C0:                                   53 F8 FF FF 7F             S....
03D0: F8 FF FF 7F 74 68 6B 32  00                       ....thk2.       
```

#### Opcodes

```
  0: 0x03CB [0x53] WAIT_SCHEDULER_TASK: Wait for scheduler "thk2" with entities [EventEntity, EventEntity]
  1: 0x03D8 [0x00] END_REQSTACK()
```

### Event 65535.55

#### Metadata

| Field        | Value    |
|--------------|----------|
| Entrypoint   | 0x03D9   |
| Data Size    | 16 bytes |
| Instructions | 2        |

```
      00 01 02 03 04 05 06 07  08 09 0A 0B 0C 0D 0E 0F
      -- -- -- -- -- -- -- --  -- -- -- -- -- -- -- --
03D0:                             66 39 80 F8 FF FF 7F           f9.....
03E0: F8 FF FF 7F 73 68 61 30  00                       ....sha0.       
```

#### Opcodes

```
  0: 0x03D9 [0x66] LOAD_EXT_SCHEDULER_MAIN: Load scheduler "sha0" with entities [EventEntity, EventEntity], work=9*
  1: 0x03E8 [0x00] END_REQSTACK()
```

### Event 65535.56

#### Metadata

| Field        | Value    |
|--------------|----------|
| Entrypoint   | 0x03E9   |
| Data Size    | 14 bytes |
| Instructions | 2        |

```
      00 01 02 03 04 05 06 07  08 09 0A 0B 0C 0D 0E 0F
      -- -- -- -- -- -- -- --  -- -- -- -- -- -- -- --
03E0:                             53 F8 FF FF 7F F8 FF           S......
03F0: FF 7F 73 68 61 30 00                              ..sha0.         
```

#### Opcodes

```
  0: 0x03E9 [0x53] WAIT_SCHEDULER_TASK: Wait for scheduler "sha0" with entities [EventEntity, EventEntity]
  1: 0x03F6 [0x00] END_REQSTACK()
```

### Event 65535.57

#### Metadata

| Field        | Value    |
|--------------|----------|
| Entrypoint   | 0x03F7   |
| Data Size    | 16 bytes |
| Instructions | 2        |

```
      00 01 02 03 04 05 06 07  08 09 0A 0B 0C 0D 0E 0F
      -- -- -- -- -- -- -- --  -- -- -- -- -- -- -- --
03F0:                      66  39 80 F8 FF FF 7F F8 FF         f9.......
0400: FF 7F 73 68 61 31 00                              ..sha1.         
```

#### Opcodes

```
  0: 0x03F7 [0x66] LOAD_EXT_SCHEDULER_MAIN: Load scheduler "sha1" with entities [EventEntity, EventEntity], work=9*
  1: 0x0406 [0x00] END_REQSTACK()
```

### Event 65535.58

#### Metadata

| Field        | Value    |
|--------------|----------|
| Entrypoint   | 0x0407   |
| Data Size    | 14 bytes |
| Instructions | 2        |

```
      00 01 02 03 04 05 06 07  08 09 0A 0B 0C 0D 0E 0F
      -- -- -- -- -- -- -- --  -- -- -- -- -- -- -- --
0400:                      53  F8 FF FF 7F F8 FF FF 7F         S........
0410: 73 68 61 31 00                                    sha1.           
```

#### Opcodes

```
  0: 0x0407 [0x53] WAIT_SCHEDULER_TASK: Wait for scheduler "sha1" with entities [EventEntity, EventEntity]
  1: 0x0414 [0x00] END_REQSTACK()
```

### Event 65535.59

#### Metadata

| Field        | Value    |
|--------------|----------|
| Entrypoint   | 0x0415   |
| Data Size    | 16 bytes |
| Instructions | 2        |

```
      00 01 02 03 04 05 06 07  08 09 0A 0B 0C 0D 0E 0F
      -- -- -- -- -- -- -- --  -- -- -- -- -- -- -- --
0410:                66 39 80  F8 FF FF 7F F8 FF FF 7F       f9.........
0420: 73 68 61 32 00                                    sha2.           
```

#### Opcodes

```
  0: 0x0415 [0x66] LOAD_EXT_SCHEDULER_MAIN: Load scheduler "sha2" with entities [EventEntity, EventEntity], work=9*
  1: 0x0424 [0x00] END_REQSTACK()
```

### Event 65535.60

#### Metadata

| Field        | Value    |
|--------------|----------|
| Entrypoint   | 0x0425   |
| Data Size    | 14 bytes |
| Instructions | 2        |

```
      00 01 02 03 04 05 06 07  08 09 0A 0B 0C 0D 0E 0F
      -- -- -- -- -- -- -- --  -- -- -- -- -- -- -- --
0420:                53 F8 FF  FF 7F F8 FF FF 7F 73 68       S........sh
0430: 61 32 00                                          a2.             
```

#### Opcodes

```
  0: 0x0425 [0x53] WAIT_SCHEDULER_TASK: Wait for scheduler "sha2" with entities [EventEntity, EventEntity]
  1: 0x0432 [0x00] END_REQSTACK()
```

### Event 65535.61

#### Metadata

| Field        | Value    |
|--------------|----------|
| Entrypoint   | 0x0433   |
| Data Size    | 16 bytes |
| Instructions | 2        |

```
      00 01 02 03 04 05 06 07  08 09 0A 0B 0C 0D 0E 0F
      -- -- -- -- -- -- -- --  -- -- -- -- -- -- -- --
0430:          66 39 80 F8 FF  FF 7F F8 FF FF 7F 73 69     f9.........si
0440: 72 30 00                                          r0.             
```

#### Opcodes

```
  0: 0x0433 [0x66] LOAD_EXT_SCHEDULER_MAIN: Load scheduler "sir0" with entities [EventEntity, EventEntity], work=9*
  1: 0x0442 [0x00] END_REQSTACK()
```

### Event 65535.62

#### Metadata

| Field        | Value    |
|--------------|----------|
| Entrypoint   | 0x0443   |
| Data Size    | 14 bytes |
| Instructions | 2        |

```
      00 01 02 03 04 05 06 07  08 09 0A 0B 0C 0D 0E 0F
      -- -- -- -- -- -- -- --  -- -- -- -- -- -- -- --
0440:          53 F8 FF FF 7F  F8 FF FF 7F 73 69 72 30     S........sir0
0450: 00                                                .               
```

#### Opcodes

```
  0: 0x0443 [0x53] WAIT_SCHEDULER_TASK: Wait for scheduler "sir0" with entities [EventEntity, EventEntity]
  1: 0x0450 [0x00] END_REQSTACK()
```

### Event 65535.63

#### Metadata

| Field        | Value    |
|--------------|----------|
| Entrypoint   | 0x0451   |
| Data Size    | 16 bytes |
| Instructions | 2        |

```
      00 01 02 03 04 05 06 07  08 09 0A 0B 0C 0D 0E 0F
      -- -- -- -- -- -- -- --  -- -- -- -- -- -- -- --
0450:    66 39 80 F8 FF FF 7F  F8 FF FF 7F 73 69 72 31   f9.........sir1
0460: 00                                                .               
```

#### Opcodes

```
  0: 0x0451 [0x66] LOAD_EXT_SCHEDULER_MAIN: Load scheduler "sir1" with entities [EventEntity, EventEntity], work=9*
  1: 0x0460 [0x00] END_REQSTACK()
```

### Event 65535.64

#### Metadata

| Field        | Value    |
|--------------|----------|
| Entrypoint   | 0x0461   |
| Data Size    | 14 bytes |
| Instructions | 2        |

```
      00 01 02 03 04 05 06 07  08 09 0A 0B 0C 0D 0E 0F
      -- -- -- -- -- -- -- --  -- -- -- -- -- -- -- --
0460:    53 F8 FF FF 7F F8 FF  FF 7F 73 69 72 31 00      S........sir1. 
```

#### Opcodes

```
  0: 0x0461 [0x53] WAIT_SCHEDULER_TASK: Wait for scheduler "sir1" with entities [EventEntity, EventEntity]
  1: 0x046E [0x00] END_REQSTACK()
```

### Event 65535.65

#### Metadata

| Field        | Value    |
|--------------|----------|
| Entrypoint   | 0x046F   |
| Data Size    | 16 bytes |
| Instructions | 2        |

```
      00 01 02 03 04 05 06 07  08 09 0A 0B 0C 0D 0E 0F
      -- -- -- -- -- -- -- --  -- -- -- -- -- -- -- --
0460:                                               66                 f
0470: 39 80 F8 FF FF 7F F8 FF  FF 7F 74 77 61 30 00     9.........twa0. 
```

#### Opcodes

```
  0: 0x046F [0x66] LOAD_EXT_SCHEDULER_MAIN: Load scheduler "twa0" with entities [EventEntity, EventEntity], work=9*
  1: 0x047E [0x00] END_REQSTACK()
```

### Event 65535.66

#### Metadata

| Field        | Value    |
|--------------|----------|
| Entrypoint   | 0x047F   |
| Data Size    | 14 bytes |
| Instructions | 2        |

```
      00 01 02 03 04 05 06 07  08 09 0A 0B 0C 0D 0E 0F
      -- -- -- -- -- -- -- --  -- -- -- -- -- -- -- --
0470:                                               53                 S
0480: F8 FF FF 7F F8 FF FF 7F  74 77 61 30 00           ........twa0.   
```

#### Opcodes

```
  0: 0x047F [0x53] WAIT_SCHEDULER_TASK: Wait for scheduler "twa0" with entities [EventEntity, EventEntity]
  1: 0x048C [0x00] END_REQSTACK()
```

### Event 65535.67

#### Metadata

| Field        | Value    |
|--------------|----------|
| Entrypoint   | 0x048D   |
| Data Size    | 16 bytes |
| Instructions | 2        |

```
      00 01 02 03 04 05 06 07  08 09 0A 0B 0C 0D 0E 0F
      -- -- -- -- -- -- -- --  -- -- -- -- -- -- -- --
0480:                                         66 39 80               f9.
0490: F8 FF FF 7F F8 FF FF 7F  74 77 61 31 00           ........twa1.   
```

#### Opcodes

```
  0: 0x048D [0x66] LOAD_EXT_SCHEDULER_MAIN: Load scheduler "twa1" with entities [EventEntity, EventEntity], work=9*
  1: 0x049C [0x00] END_REQSTACK()
```

### Event 65535.68

#### Metadata

| Field        | Value    |
|--------------|----------|
| Entrypoint   | 0x049D   |
| Data Size    | 14 bytes |
| Instructions | 2        |

```
      00 01 02 03 04 05 06 07  08 09 0A 0B 0C 0D 0E 0F
      -- -- -- -- -- -- -- --  -- -- -- -- -- -- -- --
0490:                                         53 F8 FF               S..
04A0: FF 7F F8 FF FF 7F 74 77  61 31 00                 ......twa1.     
```

#### Opcodes

```
  0: 0x049D [0x53] WAIT_SCHEDULER_TASK: Wait for scheduler "twa1" with entities [EventEntity, EventEntity]
  1: 0x04AA [0x00] END_REQSTACK()
```

### Event 65535.69

#### Metadata

| Field        | Value    |
|--------------|----------|
| Entrypoint   | 0x04AB   |
| Data Size    | 16 bytes |
| Instructions | 2        |

```
      00 01 02 03 04 05 06 07  08 09 0A 0B 0C 0D 0E 0F
      -- -- -- -- -- -- -- --  -- -- -- -- -- -- -- --
04A0:                                   66 39 80 F8 FF             f9...
04B0: FF 7F F8 FF FF 7F 74 77  62 30 00                 ......twb0.     
```

#### Opcodes

```
  0: 0x04AB [0x66] LOAD_EXT_SCHEDULER_MAIN: Load scheduler "twb0" with entities [EventEntity, EventEntity], work=9*
  1: 0x04BA [0x00] END_REQSTACK()
```

### Event 65535.70

#### Metadata

| Field        | Value    |
|--------------|----------|
| Entrypoint   | 0x04BB   |
| Data Size    | 14 bytes |
| Instructions | 2        |

```
      00 01 02 03 04 05 06 07  08 09 0A 0B 0C 0D 0E 0F
      -- -- -- -- -- -- -- --  -- -- -- -- -- -- -- --
04B0:                                   53 F8 FF FF 7F             S....
04C0: F8 FF FF 7F 74 77 62 30  00                       ....twb0.       
```

#### Opcodes

```
  0: 0x04BB [0x53] WAIT_SCHEDULER_TASK: Wait for scheduler "twb0" with entities [EventEntity, EventEntity]
  1: 0x04C8 [0x00] END_REQSTACK()
```

### Event 65535.71

#### Metadata

| Field        | Value    |
|--------------|----------|
| Entrypoint   | 0x04C9   |
| Data Size    | 16 bytes |
| Instructions | 2        |

```
      00 01 02 03 04 05 06 07  08 09 0A 0B 0C 0D 0E 0F
      -- -- -- -- -- -- -- --  -- -- -- -- -- -- -- --
04C0:                             66 39 80 F8 FF FF 7F           f9.....
04D0: F8 FF FF 7F 74 77 62 31  00                       ....twb1.       
```

#### Opcodes

```
  0: 0x04C9 [0x66] LOAD_EXT_SCHEDULER_MAIN: Load scheduler "twb1" with entities [EventEntity, EventEntity], work=9*
  1: 0x04D8 [0x00] END_REQSTACK()
```

### Event 65535.72

#### Metadata

| Field        | Value    |
|--------------|----------|
| Entrypoint   | 0x04D9   |
| Data Size    | 14 bytes |
| Instructions | 2        |

```
      00 01 02 03 04 05 06 07  08 09 0A 0B 0C 0D 0E 0F
      -- -- -- -- -- -- -- --  -- -- -- -- -- -- -- --
04D0:                             53 F8 FF FF 7F F8 FF           S......
04E0: FF 7F 74 77 62 31 00                              ..twb1.         
```

#### Opcodes

```
  0: 0x04D9 [0x53] WAIT_SCHEDULER_TASK: Wait for scheduler "twb1" with entities [EventEntity, EventEntity]
  1: 0x04E6 [0x00] END_REQSTACK()
```

### Event 65535.73

#### Metadata

| Field        | Value    |
|--------------|----------|
| Entrypoint   | 0x04E7   |
| Data Size    | 16 bytes |
| Instructions | 2        |

```
      00 01 02 03 04 05 06 07  08 09 0A 0B 0C 0D 0E 0F
      -- -- -- -- -- -- -- --  -- -- -- -- -- -- -- --
04E0:                      66  39 80 F8 FF FF 7F F8 FF         f9.......
04F0: FF 7F 73 69 74 30 00                              ..sit0.         
```

#### Opcodes

```
  0: 0x04E7 [0x66] LOAD_EXT_SCHEDULER_MAIN: Load scheduler "sit0" with entities [EventEntity, EventEntity], work=9*
  1: 0x04F6 [0x00] END_REQSTACK()
```

### Event 65535.74

#### Metadata

| Field        | Value    |
|--------------|----------|
| Entrypoint   | 0x04F7   |
| Data Size    | 14 bytes |
| Instructions | 2        |

```
      00 01 02 03 04 05 06 07  08 09 0A 0B 0C 0D 0E 0F
      -- -- -- -- -- -- -- --  -- -- -- -- -- -- -- --
04F0:                      53  F8 FF FF 7F F8 FF FF 7F         S........
0500: 73 69 74 30 00                                    sit0.           
```

#### Opcodes

```
  0: 0x04F7 [0x53] WAIT_SCHEDULER_TASK: Wait for scheduler "sit0" with entities [EventEntity, EventEntity]
  1: 0x0504 [0x00] END_REQSTACK()
```

### Event 65535.75

#### Metadata

| Field        | Value    |
|--------------|----------|
| Entrypoint   | 0x0505   |
| Data Size    | 16 bytes |
| Instructions | 2        |

```
      00 01 02 03 04 05 06 07  08 09 0A 0B 0C 0D 0E 0F
      -- -- -- -- -- -- -- --  -- -- -- -- -- -- -- --
0500:                66 39 80  F8 FF FF 7F F8 FF FF 7F       f9.........
0510: 73 69 74 31 00                                    sit1.           
```

#### Opcodes

```
  0: 0x0505 [0x66] LOAD_EXT_SCHEDULER_MAIN: Load scheduler "sit1" with entities [EventEntity, EventEntity], work=9*
  1: 0x0514 [0x00] END_REQSTACK()
```

### Event 65535.76

#### Metadata

| Field        | Value    |
|--------------|----------|
| Entrypoint   | 0x0515   |
| Data Size    | 14 bytes |
| Instructions | 2        |

```
      00 01 02 03 04 05 06 07  08 09 0A 0B 0C 0D 0E 0F
      -- -- -- -- -- -- -- --  -- -- -- -- -- -- -- --
0510:                53 F8 FF  FF 7F F8 FF FF 7F 73 69       S........si
0520: 74 31 00                                          t1.             
```

#### Opcodes

```
  0: 0x0515 [0x53] WAIT_SCHEDULER_TASK: Wait for scheduler "sit1" with entities [EventEntity, EventEntity]
  1: 0x0522 [0x00] END_REQSTACK()
```

### Event 65535.77

#### Metadata

| Field        | Value    |
|--------------|----------|
| Entrypoint   | 0x0523   |
| Data Size    | 16 bytes |
| Instructions | 2        |

```
      00 01 02 03 04 05 06 07  08 09 0A 0B 0C 0D 0E 0F
      -- -- -- -- -- -- -- --  -- -- -- -- -- -- -- --
0520:          66 3B 80 F8 FF  FF 7F F8 FF FF 7F 70 61     f;.........pa
0530: 73 30 00                                          s0.             
```

#### Opcodes

```
  0: 0x0523 [0x66] LOAD_EXT_SCHEDULER_MAIN: Load scheduler "pas0" with entities [EventEntity, EventEntity], work=71*
  1: 0x0532 [0x00] END_REQSTACK()
```

### Event 65535.78

#### Metadata

| Field        | Value    |
|--------------|----------|
| Entrypoint   | 0x0533   |
| Data Size    | 14 bytes |
| Instructions | 2        |

```
      00 01 02 03 04 05 06 07  08 09 0A 0B 0C 0D 0E 0F
      -- -- -- -- -- -- -- --  -- -- -- -- -- -- -- --
0530:          53 F8 FF FF 7F  F8 FF FF 7F 70 61 73 30     S........pas0
0540: 00                                                .               
```

#### Opcodes

```
  0: 0x0533 [0x53] WAIT_SCHEDULER_TASK: Wait for scheduler "pas0" with entities [EventEntity, EventEntity]
  1: 0x0540 [0x00] END_REQSTACK()
```

### Event 65535.79

#### Metadata

| Field        | Value    |
|--------------|----------|
| Entrypoint   | 0x0541   |
| Data Size    | 16 bytes |
| Instructions | 2        |

```
      00 01 02 03 04 05 06 07  08 09 0A 0B 0C 0D 0E 0F
      -- -- -- -- -- -- -- --  -- -- -- -- -- -- -- --
0540:    66 3C 80 F8 FF FF 7F  F8 FF FF 7F 6C 73 30 30   f<.........ls00
0550: 00                                                .               
```

#### Opcodes

```
  0: 0x0541 [0x66] LOAD_EXT_SCHEDULER_MAIN: Load scheduler "ls00" with entities [EventEntity, EventEntity], work=78*
  1: 0x0550 [0x00] END_REQSTACK()
```

### Event 65535.80

#### Metadata

| Field        | Value    |
|--------------|----------|
| Entrypoint   | 0x0551   |
| Data Size    | 14 bytes |
| Instructions | 2        |

```
      00 01 02 03 04 05 06 07  08 09 0A 0B 0C 0D 0E 0F
      -- -- -- -- -- -- -- --  -- -- -- -- -- -- -- --
0550:    53 F8 FF FF 7F F8 FF  FF 7F 6C 73 30 30 00      S........ls00. 
```

#### Opcodes

```
  0: 0x0551 [0x53] WAIT_SCHEDULER_TASK: Wait for scheduler "ls00" with entities [EventEntity, EventEntity]
  1: 0x055E [0x00] END_REQSTACK()
```

### Event 65535.81

#### Metadata

| Field        | Value    |
|--------------|----------|
| Entrypoint   | 0x055F   |
| Data Size    | 16 bytes |
| Instructions | 2        |

```
      00 01 02 03 04 05 06 07  08 09 0A 0B 0C 0D 0E 0F
      -- -- -- -- -- -- -- --  -- -- -- -- -- -- -- --
0550:                                               66                 f
0560: 3C 80 F8 FF FF 7F F8 FF  FF 7F 6C 73 30 31 00     <.........ls01. 
```

#### Opcodes

```
  0: 0x055F [0x66] LOAD_EXT_SCHEDULER_MAIN: Load scheduler "ls01" with entities [EventEntity, EventEntity], work=78*
  1: 0x056E [0x00] END_REQSTACK()
```

### Event 65535.82

#### Metadata

| Field        | Value    |
|--------------|----------|
| Entrypoint   | 0x056F   |
| Data Size    | 14 bytes |
| Instructions | 2        |

```
      00 01 02 03 04 05 06 07  08 09 0A 0B 0C 0D 0E 0F
      -- -- -- -- -- -- -- --  -- -- -- -- -- -- -- --
0560:                                               53                 S
0570: F8 FF FF 7F F8 FF FF 7F  6C 73 30 31 00           ........ls01.   
```

#### Opcodes

```
  0: 0x056F [0x53] WAIT_SCHEDULER_TASK: Wait for scheduler "ls01" with entities [EventEntity, EventEntity]
  1: 0x057C [0x00] END_REQSTACK()
```

### Event 65535.83

#### Metadata

| Field        | Value    |
|--------------|----------|
| Entrypoint   | 0x057D   |
| Data Size    | 16 bytes |
| Instructions | 2        |

```
      00 01 02 03 04 05 06 07  08 09 0A 0B 0C 0D 0E 0F
      -- -- -- -- -- -- -- --  -- -- -- -- -- -- -- --
0570:                                         66 3C 80               f<.
0580: F8 FF FF 7F F8 FF FF 7F  6C 73 30 32 00           ........ls02.   
```

#### Opcodes

```
  0: 0x057D [0x66] LOAD_EXT_SCHEDULER_MAIN: Load scheduler "ls02" with entities [EventEntity, EventEntity], work=78*
  1: 0x058C [0x00] END_REQSTACK()
```

### Event 65535.84

#### Metadata

| Field        | Value    |
|--------------|----------|
| Entrypoint   | 0x058D   |
| Data Size    | 14 bytes |
| Instructions | 2        |

```
      00 01 02 03 04 05 06 07  08 09 0A 0B 0C 0D 0E 0F
      -- -- -- -- -- -- -- --  -- -- -- -- -- -- -- --
0580:                                         53 F8 FF               S..
0590: FF 7F F8 FF FF 7F 6C 73  30 32 00                 ......ls02.     
```

#### Opcodes

```
  0: 0x058D [0x53] WAIT_SCHEDULER_TASK: Wait for scheduler "ls02" with entities [EventEntity, EventEntity]
  1: 0x059A [0x00] END_REQSTACK()
```

### Event 65535.85

#### Metadata

| Field        | Value    |
|--------------|----------|
| Entrypoint   | 0x059B   |
| Data Size    | 16 bytes |
| Instructions | 2        |

```
      00 01 02 03 04 05 06 07  08 09 0A 0B 0C 0D 0E 0F
      -- -- -- -- -- -- -- --  -- -- -- -- -- -- -- --
0590:                                   66 3C 80 F8 FF             f<...
05A0: FF 7F F8 FF FF 7F 6C 73  6C 30 00                 ......lsl0.     
```

#### Opcodes

```
  0: 0x059B [0x66] LOAD_EXT_SCHEDULER_MAIN: Load scheduler "lsl0" with entities [EventEntity, EventEntity], work=78*
  1: 0x05AA [0x00] END_REQSTACK()
```

### Event 65535.86

#### Metadata

| Field        | Value    |
|--------------|----------|
| Entrypoint   | 0x05AB   |
| Data Size    | 14 bytes |
| Instructions | 2        |

```
      00 01 02 03 04 05 06 07  08 09 0A 0B 0C 0D 0E 0F
      -- -- -- -- -- -- -- --  -- -- -- -- -- -- -- --
05A0:                                   53 F8 FF FF 7F             S....
05B0: F8 FF FF 7F 6C 73 6C 30  00                       ....lsl0.       
```

#### Opcodes

```
  0: 0x05AB [0x53] WAIT_SCHEDULER_TASK: Wait for scheduler "lsl0" with entities [EventEntity, EventEntity]
  1: 0x05B8 [0x00] END_REQSTACK()
```

### Event 65535.87

#### Metadata

| Field        | Value    |
|--------------|----------|
| Entrypoint   | 0x05B9   |
| Data Size    | 16 bytes |
| Instructions | 2        |

```
      00 01 02 03 04 05 06 07  08 09 0A 0B 0C 0D 0E 0F
      -- -- -- -- -- -- -- --  -- -- -- -- -- -- -- --
05B0:                             66 3C 80 F8 FF FF 7F           f<.....
05C0: F8 FF FF 7F 65 75 64 30  00                       ....eud0.       
```

#### Opcodes

```
  0: 0x05B9 [0x66] LOAD_EXT_SCHEDULER_MAIN: Load scheduler "eud0" with entities [EventEntity, EventEntity], work=78*
  1: 0x05C8 [0x00] END_REQSTACK()
```

### Event 65535.88

#### Metadata

| Field        | Value    |
|--------------|----------|
| Entrypoint   | 0x05C9   |
| Data Size    | 14 bytes |
| Instructions | 2        |

```
      00 01 02 03 04 05 06 07  08 09 0A 0B 0C 0D 0E 0F
      -- -- -- -- -- -- -- --  -- -- -- -- -- -- -- --
05C0:                             53 F8 FF FF 7F F8 FF           S......
05D0: FF 7F 65 75 64 30 00                              ..eud0.         
```

#### Opcodes

```
  0: 0x05C9 [0x53] WAIT_SCHEDULER_TASK: Wait for scheduler "eud0" with entities [EventEntity, EventEntity]
  1: 0x05D6 [0x00] END_REQSTACK()
```

### Event 65535.89

#### Metadata

| Field        | Value    |
|--------------|----------|
| Entrypoint   | 0x05D7   |
| Data Size    | 16 bytes |
| Instructions | 2        |

```
      00 01 02 03 04 05 06 07  08 09 0A 0B 0C 0D 0E 0F
      -- -- -- -- -- -- -- --  -- -- -- -- -- -- -- --
05D0:                      66  3C 80 F8 FF FF 7F F8 FF         f<.......
05E0: FF 7F 65 75 64 31 00                              ..eud1.         
```

#### Opcodes

```
  0: 0x05D7 [0x66] LOAD_EXT_SCHEDULER_MAIN: Load scheduler "eud1" with entities [EventEntity, EventEntity], work=78*
  1: 0x05E6 [0x00] END_REQSTACK()
```

### Event 65535.90

#### Metadata

| Field        | Value    |
|--------------|----------|
| Entrypoint   | 0x05E7   |
| Data Size    | 14 bytes |
| Instructions | 2        |

```
      00 01 02 03 04 05 06 07  08 09 0A 0B 0C 0D 0E 0F
      -- -- -- -- -- -- -- --  -- -- -- -- -- -- -- --
05E0:                      53  F8 FF FF 7F F8 FF FF 7F         S........
05F0: 65 75 64 31 00                                    eud1.           
```

#### Opcodes

```
  0: 0x05E7 [0x53] WAIT_SCHEDULER_TASK: Wait for scheduler "eud1" with entities [EventEntity, EventEntity]
  1: 0x05F4 [0x00] END_REQSTACK()
```

### Event 65535.91

#### Metadata

| Field        | Value    |
|--------------|----------|
| Entrypoint   | 0x05F5   |
| Data Size    | 16 bytes |
| Instructions | 2        |

```
      00 01 02 03 04 05 06 07  08 09 0A 0B 0C 0D 0E 0F
      -- -- -- -- -- -- -- --  -- -- -- -- -- -- -- --
05F0:                66 3C 80  F8 FF FF 7F F8 FF FF 7F       f<.........
0600: 79 65 73 30 00                                    yes0.           
```

#### Opcodes

```
  0: 0x05F5 [0x66] LOAD_EXT_SCHEDULER_MAIN: Load scheduler "yes0" with entities [EventEntity, EventEntity], work=78*
  1: 0x0604 [0x00] END_REQSTACK()
```

### Event 65535.92

#### Metadata

| Field        | Value    |
|--------------|----------|
| Entrypoint   | 0x0605   |
| Data Size    | 14 bytes |
| Instructions | 2        |

```
      00 01 02 03 04 05 06 07  08 09 0A 0B 0C 0D 0E 0F
      -- -- -- -- -- -- -- --  -- -- -- -- -- -- -- --
0600:                53 F8 FF  FF 7F F8 FF FF 7F 79 65       S........ye
0610: 73 30 00                                          s0.             
```

#### Opcodes

```
  0: 0x0605 [0x53] WAIT_SCHEDULER_TASK: Wait for scheduler "yes0" with entities [EventEntity, EventEntity]
  1: 0x0612 [0x00] END_REQSTACK()
```
