# 16982583

## Common Data

| Field            | Value                          |
|------------------|--------------------------------|
| Zone             | Aht Urhgan Whitegate2 (ID: 50) |
| Block Size       | 688 bytes                      |
| Total Events     | 15                             |
| References Count | 18                             |

## List of Events

| Event ID                    | Entrypoint   |   Size |   Instructions |
|-----------------------------|--------------|--------|----------------|
| [65535](#event-65535)       | 0x0000       |      1 |              1 |
| [920](#event-920)           | 0x0001       |      1 |              1 |
| [921](#event-921)           | 0x0002       |      1 |              1 |
| [65535.1](#event-65535-1)   | 0x0003       |     33 |              5 |
| [65535.2](#event-65535-2)   | 0x0024       |     50 |              7 |
| [65535.3](#event-65535-3)   | 0x0056       |     50 |              7 |
| [65535.4](#event-65535-4)   | 0x0088       |     50 |              7 |
| [65535.5](#event-65535-5)   | 0x00BA       |     73 |             15 |
| [65535.6](#event-65535-6)   | 0x0103       |      1 |              1 |
| [65535.7](#event-65535-7)   | 0x0104       |     28 |              6 |
| [65535.8](#event-65535-8)   | 0x0120       |     28 |              6 |
| [65535.9](#event-65535-9)   | 0x013C       |    111 |             16 |
| [65535.10](#event-65535-10) | 0x01AB       |     27 |              4 |
| [65535.11](#event-65535-11) | 0x01C6       |     33 |              6 |
| [65535.12](#event-65535-12) | 0x01E7       |     52 |              8 |

## DAT References (imed_data)

|   Index | Hex Value   |   Dec Value |
|---------|-------------|-------------|
|       0 | 0x000A      |          10 |
|       1 | 0x00A0      |         160 |
|       2 | 0x0031      |          49 |
|       3 | 0x0020      |          32 |
|       4 | 0x0028      |          40 |
|       5 | 0x0013      |          19 |
|       6 | 0x0009      |           9 |
|       7 | 0x0007      |           7 |
|       8 | 0x00C8      |         200 |
|       9 | 0x000F      |          15 |
|      10 | 0x0000      |           0 |
|      11 | 0x0032      |          50 |
|      12 | 0x003C      |          60 |
|      13 | 0x001E      |          30 |
|      14 | 0x0014      |          20 |
|      15 | 0x0019      |          25 |
|      16 | 0x0004      |           4 |
|      17 | 0x0096      |         150 |

## Events

### Event 65535

#### Metadata

| Field        | Value   |
|--------------|---------|
| Entrypoint   | 0x0000  |
| Data Size    | 1 bytes |
| Instructions | 1       |

```
      00 01 02 03 04 05 06 07  08 09 0A 0B 0C 0D 0E 0F
      -- -- -- -- -- -- -- --  -- -- -- -- -- -- -- --
0000: 00                                                .               
```

#### Opcodes

```
  0: 0x0000 [0x00] END_REQSTACK()
```

### Event 920

#### Metadata

| Field        | Value   |
|--------------|---------|
| Entrypoint   | 0x0001  |
| Data Size    | 1 bytes |
| Instructions | 1       |

```
      00 01 02 03 04 05 06 07  08 09 0A 0B 0C 0D 0E 0F
      -- -- -- -- -- -- -- --  -- -- -- -- -- -- -- --
0000:    00                                              .              
```

#### Opcodes

```
  0: 0x0001 [0x00] END_REQSTACK()
```

### Event 921

#### Metadata

| Field        | Value   |
|--------------|---------|
| Entrypoint   | 0x0002  |
| Data Size    | 1 bytes |
| Instructions | 1       |

```
      00 01 02 03 04 05 06 07  08 09 0A 0B 0C 0D 0E 0F
      -- -- -- -- -- -- -- --  -- -- -- -- -- -- -- --
0000:       00                                            .             
```

#### Opcodes

```
  0: 0x0002 [0x00] END_REQSTACK()
```

### Event 65535.1

#### Metadata

| Field        | Value    |
|--------------|----------|
| Entrypoint   | 0x0003   |
| Data Size    | 33 bytes |
| Instructions | 5        |

```
      00 01 02 03 04 05 06 07  08 09 0A 0B 0C 0D 0E 0F
      -- -- -- -- -- -- -- --  -- -- -- -- -- -- -- --
0000:          27 10 AC 21 03  01 02 2A 10 AC 21 03 01     '..!...*..!..
0010: 4A AC 21 03 01 5C 21 03  01 79 00 AC 21 03 01 5C  J.!..\!..y..!..\
0020: 21 03 01 00                                       !...            
```

#### Opcodes

```
  0: 0x0003 [0x27] REQ_SET(priority=0x10, entity_id=Shayadar (ID: 16982444/0x010321AC), tag_num=0x02)
  1: 0x000A [0x2A] GET_REQ_LEVEL(level=16, entity_id=Shayadar (ID: 16982444/0x010321AC))
  2: 0x0010 [0x4A] Shayadar (ID: 16982444/0x010321AC) looks at Fari-Wari (ID: 16982364/0x0103215C)
  3: 0x0019 [0x79] Shayadar (ID: 16982444/0x010321AC) looks at Fari-Wari (ID: 16982364/0x0103215C) (Basic look)
  4: 0x0023 [0x00] END_REQSTACK()
```

### Event 65535.2

#### Metadata

| Field        | Value    |
|--------------|----------|
| Entrypoint   | 0x0024   |
| Data Size    | 50 bytes |
| Instructions | 7        |

```
      00 01 02 03 04 05 06 07  08 09 0A 0B 0C 0D 0E 0F
      -- -- -- -- -- -- -- --  -- -- -- -- -- -- -- --
0020:             6E 5C 21 03  01 00 80 99 5C 21 03 01      n\!.....\!..
0030: 59 06 5C 21 03 01 1C 01  80 66 02 80 5C 21 03 01  Y.\!.....f..\!..
0040: 5C 21 03 01 74 6C 6B 30  53 AC 21 03 01 AC 21 03  \!..tlk0S.!...!.
0050: 01 8B FF FF FF 00                                 ......          
```

#### Opcodes

```
  0: 0x0024 [0x6E] Fari-Wari (ID: 16982364/0x0103215C) uses emote 10*
  1: 0x002B [0x99] Wait for Fari-Wari (ID: 16982364/0x0103215C) animation to complete
  2: 0x0030 [0x59] UPDATE_ENTITY_DATA: Check if Fari-Wari (ID: 16982364/0x0103215C) is performing moving action
  3: 0x0036 [0x1C] WAIT(160* ticks)
  4: 0x0039 [0x66] LOAD_EXT_SCHEDULER_MAIN: Load scheduler "tlk0" with entities [Fari-Wari (ID: 16982364/0x0103215C), Fari-Wari (ID: 16982364/0x0103215C)], work=49*
  5: 0x0048 [0x53] WAIT_SCHEDULER_TASK: Wait for scheduler 0xFFFFFF8B with entities [Shayadar (ID: 16982444/0x010321AC), Shayadar (ID: 16982444/0x010321AC)]
  6: 0x0055 [0x00] END_REQSTACK()
```

### Event 65535.3

#### Metadata

| Field        | Value    |
|--------------|----------|
| Entrypoint   | 0x0056   |
| Data Size    | 50 bytes |
| Instructions | 7        |

```
      00 01 02 03 04 05 06 07  08 09 0A 0B 0C 0D 0E 0F
      -- -- -- -- -- -- -- --  -- -- -- -- -- -- -- --
0050:                   6E 5C  21 03 01 03 80 99 5C 21        n\!.....\!
0060: 03 01 59 06 5C 21 03 01  1C 01 80 66 04 80 5C 21  ..Y.\!.....f..\!
0070: 03 01 5C 21 03 01 77 61  69 30 53 AC 21 03 01 AC  ..\!..wai0S.!...
0080: 21 03 01 8B FF FF FF 00                           !.......        
```

#### Opcodes

```
  0: 0x0056 [0x6E] Fari-Wari (ID: 16982364/0x0103215C) uses emote 32*
  1: 0x005D [0x99] Wait for Fari-Wari (ID: 16982364/0x0103215C) animation to complete
  2: 0x0062 [0x59] UPDATE_ENTITY_DATA: Check if Fari-Wari (ID: 16982364/0x0103215C) is performing moving action
  3: 0x0068 [0x1C] WAIT(160* ticks)
  4: 0x006B [0x66] LOAD_EXT_SCHEDULER_MAIN: Load scheduler "wai0" with entities [Fari-Wari (ID: 16982364/0x0103215C), Fari-Wari (ID: 16982364/0x0103215C)], work=40*
  5: 0x007A [0x53] WAIT_SCHEDULER_TASK: Wait for scheduler 0xFFFFFF8B with entities [Shayadar (ID: 16982444/0x010321AC), Shayadar (ID: 16982444/0x010321AC)]
  6: 0x0087 [0x00] END_REQSTACK()
```

### Event 65535.4

#### Metadata

| Field        | Value    |
|--------------|----------|
| Entrypoint   | 0x0088   |
| Data Size    | 50 bytes |
| Instructions | 7        |

```
      00 01 02 03 04 05 06 07  08 09 0A 0B 0C 0D 0E 0F
      -- -- -- -- -- -- -- --  -- -- -- -- -- -- -- --
0080:                          6E AC 21 03 01 05 80 99          n.!.....
0090: AC 21 03 01 59 06 AC 21  03 01 1C 01 80 66 06 80  .!..Y..!.....f..
00A0: AC 21 03 01 AC 21 03 01  74 77 62 30 53 AC 21 03  .!...!..twb0S.!.
00B0: 01 AC 21 03 01 74 77 62  30 00                    ..!..twb0.      
```

#### Opcodes

```
  0: 0x0088 [0x6E] Shayadar (ID: 16982444/0x010321AC) uses emote 19*
  1: 0x008F [0x99] Wait for Shayadar (ID: 16982444/0x010321AC) animation to complete
  2: 0x0094 [0x59] UPDATE_ENTITY_DATA: Check if Shayadar (ID: 16982444/0x010321AC) is performing moving action
  3: 0x009A [0x1C] WAIT(160* ticks)
  4: 0x009D [0x66] LOAD_EXT_SCHEDULER_MAIN: Load scheduler "twb0" with entities [Shayadar (ID: 16982444/0x010321AC), Shayadar (ID: 16982444/0x010321AC)], work=9*
  5: 0x00AC [0x53] WAIT_SCHEDULER_TASK: Wait for scheduler "twb0" with entities [Shayadar (ID: 16982444/0x010321AC), Shayadar (ID: 16982444/0x010321AC)]
  6: 0x00B9 [0x00] END_REQSTACK()
```

### Event 65535.5

#### Metadata

| Field        | Value    |
|--------------|----------|
| Entrypoint   | 0x00BA   |
| Data Size    | 73 bytes |
| Instructions | 15       |

```
      00 01 02 03 04 05 06 07  08 09 0A 0B 0C 0D 0E 0F
      -- -- -- -- -- -- -- --  -- -- -- -- -- -- -- --
00B0:                                6E AC 21 03 01 07            n.!...
00C0: 80 99 AC 21 03 01 59 06  AC 21 03 01 1C 01 80 4A  ...!..Y..!.....J
00D0: AC 21 03 01 F0 FF FF 7F  59 03 AC 21 03 01 08 80  .!......Y..!....
00E0: 7B AC 21 03 01 6F 76 AC  21 03 01 1C 09 80 6E AC  {.!..ov.!.....n.
00F0: 21 03 01 0A 80 99 AC 21  03 01 99 AC 21 03 01 1C  !......!....!...
0100: 0B 80 00                                          ...             
```

#### Opcodes

```
  0: 0x00BA [0x6E] Shayadar (ID: 16982444/0x010321AC) uses emote 7*
  1: 0x00C1 [0x99] Wait for Shayadar (ID: 16982444/0x010321AC) animation to complete
  2: 0x00C6 [0x59] UPDATE_ENTITY_DATA: Check if Shayadar (ID: 16982444/0x010321AC) is performing moving action
  3: 0x00CC [0x1C] WAIT(160* ticks)
  4: 0x00CF [0x4A] Shayadar (ID: 16982444/0x010321AC) looks at LocalPlayer
  5: 0x00D8 [0x59] UPDATE_ENTITY_DATA: Set Shayadar (ID: 16982444/0x010321AC) turn speed head = 200*
  6: 0x00E0 [0x7B] Shayadar (ID: 16982444/0x010321AC) stops talking
  7: 0x00E5 [0x6F] WAIT_FRAME_DELAY: Yield until WaitTime reaches zero
  8: 0x00E6 [0x76] CHECK_ENTITY_RENDER_FLAGS: Wait until Shayadar (ID: 16982444/0x010321AC) Render.Flags0 and Render.Flags3 conditions are met
  9: 0x00EB [0x1C] WAIT(15* ticks)
 10: 0x00EE [0x6E] Shayadar (ID: 16982444/0x010321AC) uses emote 0*
 11: 0x00F5 [0x99] Wait for Shayadar (ID: 16982444/0x010321AC) animation to complete
 12: 0x00FA [0x99] Wait for Shayadar (ID: 16982444/0x010321AC) animation to complete
 13: 0x00FF [0x1C] WAIT(50* ticks)
 14: 0x0102 [0x00] END_REQSTACK()
```

### Event 65535.6

#### Metadata

| Field        | Value   |
|--------------|---------|
| Entrypoint   | 0x0103  |
| Data Size    | 1 bytes |
| Instructions | 1       |

```
      00 01 02 03 04 05 06 07  08 09 0A 0B 0C 0D 0E 0F
      -- -- -- -- -- -- -- --  -- -- -- -- -- -- -- --
0100:          00                                          .            
```

#### Opcodes

```
  0: 0x0103 [0x00] END_REQSTACK()
```

### Event 65535.7

#### Metadata

| Field        | Value    |
|--------------|----------|
| Entrypoint   | 0x0104   |
| Data Size    | 28 bytes |
| Instructions | 6        |

```
      00 01 02 03 04 05 06 07  08 09 0A 0B 0C 0D 0E 0F
      -- -- -- -- -- -- -- --  -- -- -- -- -- -- -- --
0100:             29 10 33 22  03 01 01 4A 33 22 03 01      ).3"...J3"..
0110: 2C 22 03 01 7B 33 22 03  01 6F 76 33 22 03 01 00  ,"..{3"..ov3"...
```

#### Opcodes

```
  0: 0x0104 [0x29] REQ_SET_WAIT(priority=0x10, entity_id=kenbutsu09 (ID: 16982579/0x01032233), tag_num=0x01)
  1: 0x010B [0x4A] kenbutsu09 (ID: 16982579/0x01032233) looks at Wajran (ID: 16982572/0x0103222C)
  2: 0x0114 [0x7B] kenbutsu09 (ID: 16982579/0x01032233) stops talking
  3: 0x0119 [0x6F] WAIT_FRAME_DELAY: Yield until WaitTime reaches zero
  4: 0x011A [0x76] CHECK_ENTITY_RENDER_FLAGS: Wait until kenbutsu09 (ID: 16982579/0x01032233) Render.Flags0 and Render.Flags3 conditions are met
  5: 0x011F [0x00] END_REQSTACK()
```

### Event 65535.8

#### Metadata

| Field        | Value    |
|--------------|----------|
| Entrypoint   | 0x0120   |
| Data Size    | 28 bytes |
| Instructions | 6        |

```
      00 01 02 03 04 05 06 07  08 09 0A 0B 0C 0D 0E 0F
      -- -- -- -- -- -- -- --  -- -- -- -- -- -- -- --
0120: 29 10 2F 22 03 01 02 4A  2F 22 03 01 2C 22 03 01  )./"...J/"..,"..
0130: 7B 2F 22 03 01 6F 76 2F  22 03 01 00              {/"..ov/"...    
```

#### Opcodes

```
  0: 0x0120 [0x29] REQ_SET_WAIT(priority=0x10, entity_id=Kalidaaf (ID: 16982575/0x0103222F), tag_num=0x02)
  1: 0x0127 [0x4A] Kalidaaf (ID: 16982575/0x0103222F) looks at Wajran (ID: 16982572/0x0103222C)
  2: 0x0130 [0x7B] Kalidaaf (ID: 16982575/0x0103222F) stops talking
  3: 0x0135 [0x6F] WAIT_FRAME_DELAY: Yield until WaitTime reaches zero
  4: 0x0136 [0x76] CHECK_ENTITY_RENDER_FLAGS: Wait until Kalidaaf (ID: 16982575/0x0103222F) Render.Flags0 and Render.Flags3 conditions are met
  5: 0x013B [0x00] END_REQSTACK()
```

### Event 65535.9

#### Metadata

| Field        | Value     |
|--------------|-----------|
| Entrypoint   | 0x013C    |
| Data Size    | 111 bytes |
| Instructions | 16        |

```
      00 01 02 03 04 05 06 07  08 09 0A 0B 0C 0D 0E 0F
      -- -- -- -- -- -- -- --  -- -- -- -- -- -- -- --
0130:                                      1C 0C 80 4A              ...J
0140: 31 22 03 01 5C 21 03 01  79 00 31 22 03 01 5C 21  1"..\!..y.1"..\!
0150: 03 01 1C 0D 80 4A 32 22  03 01 5C 21 03 01 79 00  .....J2"..\!..y.
0160: 32 22 03 01 5C 21 03 01  1C 0E 80 4A 33 22 03 01  2"..\!.....J3"..
0170: 5C 21 03 01 79 00 33 22  03 01 5C 21 03 01 1C 09  \!..y.3"..\!....
0180: 80 4A 34 22 03 01 5C 21  03 01 79 00 34 22 03 01  .J4"..\!..y.4"..
0190: 5C 21 03 01 1C 0F 80 4A  2C 22 03 01 5C 21 03 01  \!.....J,"..\!..
01A0: 79 00 2C 22 03 01 5C 21  03 01 00                 y.,"..\!...     
```

#### Opcodes

```
  0: 0x013C [0x1C] WAIT(60* ticks)
  1: 0x013F [0x4A] Rhub Wusthamoi (ID: 16982577/0x01032231) looks at Fari-Wari (ID: 16982364/0x0103215C)
  2: 0x0148 [0x79] Rhub Wusthamoi (ID: 16982577/0x01032231) looks at Fari-Wari (ID: 16982364/0x0103215C) (Basic look)
  3: 0x0152 [0x1C] WAIT(30* ticks)
  4: 0x0155 [0x4A] kenbutsu04 (ID: 16982578/0x01032232) looks at Fari-Wari (ID: 16982364/0x0103215C)
  5: 0x015E [0x79] kenbutsu04 (ID: 16982578/0x01032232) looks at Fari-Wari (ID: 16982364/0x0103215C) (Basic look)
  6: 0x0168 [0x1C] WAIT(20* ticks)
  7: 0x016B [0x4A] kenbutsu09 (ID: 16982579/0x01032233) looks at Fari-Wari (ID: 16982364/0x0103215C)
  8: 0x0174 [0x79] kenbutsu09 (ID: 16982579/0x01032233) looks at Fari-Wari (ID: 16982364/0x0103215C) (Basic look)
  9: 0x017E [0x1C] WAIT(15* ticks)
 10: 0x0181 [0x4A] kenbutsu10 (ID: 16982580/0x01032234) looks at Fari-Wari (ID: 16982364/0x0103215C)
 11: 0x018A [0x79] kenbutsu10 (ID: 16982580/0x01032234) looks at Fari-Wari (ID: 16982364/0x0103215C) (Basic look)
 12: 0x0194 [0x1C] WAIT(25* ticks)
 13: 0x0197 [0x4A] Wajran (ID: 16982572/0x0103222C) looks at Fari-Wari (ID: 16982364/0x0103215C)
 14: 0x01A0 [0x79] Wajran (ID: 16982572/0x0103222C) looks at Fari-Wari (ID: 16982364/0x0103215C) (Basic look)
 15: 0x01AA [0x00] END_REQSTACK()
```

### Event 65535.10

#### Metadata

| Field        | Value    |
|--------------|----------|
| Entrypoint   | 0x01AB   |
| Data Size    | 27 bytes |
| Instructions | 4        |

```
      00 01 02 03 04 05 06 07  08 09 0A 0B 0C 0D 0E 0F
      -- -- -- -- -- -- -- --  -- -- -- -- -- -- -- --
01A0:                                   29 10 AC 21 03             )..!.
01B0: 01 03 4A AC 21 03 01 5C  21 03 01 79 00 AC 21 03  ..J.!..\!..y..!.
01C0: 01 5C 21 03 01 00                                 .\!...          
```

#### Opcodes

```
  0: 0x01AB [0x29] REQ_SET_WAIT(priority=0x10, entity_id=Shayadar (ID: 16982444/0x010321AC), tag_num=0x03)
  1: 0x01B2 [0x4A] Shayadar (ID: 16982444/0x010321AC) looks at Fari-Wari (ID: 16982364/0x0103215C)
  2: 0x01BB [0x79] Shayadar (ID: 16982444/0x010321AC) looks at Fari-Wari (ID: 16982364/0x0103215C) (Basic look)
  3: 0x01C5 [0x00] END_REQSTACK()
```

### Event 65535.11

#### Metadata

| Field        | Value    |
|--------------|----------|
| Entrypoint   | 0x01C6   |
| Data Size    | 33 bytes |
| Instructions | 6        |

```
      00 01 02 03 04 05 06 07  08 09 0A 0B 0C 0D 0E 0F
      -- -- -- -- -- -- -- --  -- -- -- -- -- -- -- --
01C0:                   29 10  60 21 03 01 09 4A 60 21        ).`!...J`!
01D0: 03 01 F0 FF FF 7F 79 00  60 21 03 01 F0 FF FF 7F  ......y.`!......
01E0: 6F 76 60 21 03 01 00                              ov`!...         
```

#### Opcodes

```
  0: 0x01C6 [0x29] REQ_SET_WAIT(priority=0x10, entity_id=Gadalar (ID: 16982368/0x01032160), tag_num=0x09)
  1: 0x01CD [0x4A] Gadalar (ID: 16982368/0x01032160) looks at LocalPlayer
  2: 0x01D6 [0x79] Gadalar (ID: 16982368/0x01032160) looks at LocalPlayer (Basic look)
  3: 0x01E0 [0x6F] WAIT_FRAME_DELAY: Yield until WaitTime reaches zero
  4: 0x01E1 [0x76] CHECK_ENTITY_RENDER_FLAGS: Wait until Gadalar (ID: 16982368/0x01032160) Render.Flags0 and Render.Flags3 conditions are met
  5: 0x01E6 [0x00] END_REQSTACK()
```

### Event 65535.12

#### Metadata

| Field        | Value    |
|--------------|----------|
| Entrypoint   | 0x01E7   |
| Data Size    | 52 bytes |
| Instructions | 8        |

```
      00 01 02 03 04 05 06 07  08 09 0A 0B 0C 0D 0E 0F
      -- -- -- -- -- -- -- --  -- -- -- -- -- -- -- --
01E0:                      6E  60 21 03 01 10 80 99 60         n`!.....`
01F0: 21 03 01 99 60 21 03 01  1C 11 80 66 06 80 60 21  !...`!.....f..`!
0200: 03 01 60 21 03 01 74 77  62 30 53 60 21 03 01 60  ..`!..twb0S`!..`
0210: 21 03 01 74 77 62 30 1C  0D 80 00                 !..twb0....     
```

#### Opcodes

```
  0: 0x01E7 [0x6E] Gadalar (ID: 16982368/0x01032160) uses emote 4*
  1: 0x01EE [0x99] Wait for Gadalar (ID: 16982368/0x01032160) animation to complete
  2: 0x01F3 [0x99] Wait for Gadalar (ID: 16982368/0x01032160) animation to complete
  3: 0x01F8 [0x1C] WAIT(150* ticks)
  4: 0x01FB [0x66] LOAD_EXT_SCHEDULER_MAIN: Load scheduler "twb0" with entities [Gadalar (ID: 16982368/0x01032160), Gadalar (ID: 16982368/0x01032160)], work=9*
  5: 0x020A [0x53] WAIT_SCHEDULER_TASK: Wait for scheduler "twb0" with entities [Gadalar (ID: 16982368/0x01032160), Gadalar (ID: 16982368/0x01032160)]
  6: 0x0217 [0x1C] WAIT(30* ticks)
  7: 0x021A [0x00] END_REQSTACK()
```
