# 16982216 - Aphmau

## Common Data

| Field            | Value                          |
|------------------|--------------------------------|
| Zone             | Aht Urhgan Whitegate2 (ID: 50) |
| Block Size       | 1144 bytes                     |
| Total Events     | 58                             |
| References Count | 79                             |

## List of Events

| Event ID                   | Entrypoint   |   Size |   Instructions |
|----------------------------|--------------|--------|----------------|
| [65535](#event-65535)      | 0x0000       |      1 |              1 |
| [65535.1](#event-655351)   | 0x0001       |      1 |              1 |
| [65535.2](#event-655352)   | 0x0002       |     18 |              4 |
| [65535.3](#event-655353)   | 0x0014       |     10 |              2 |
| [65535.4](#event-655354)   | 0x001E       |      9 |              3 |
| [65535.5](#event-655355)   | 0x0027       |      9 |              3 |
| [65535.6](#event-655356)   | 0x0030       |     10 |              2 |
| [65535.7](#event-655357)   | 0x003A       |     10 |              2 |
| [3052](#event-3052)        | 0x0044       |      1 |              1 |
| [3070](#event-3070)        | 0x0045       |      1 |              1 |
| [65535.8](#event-655358)   | 0x0046       |     10 |              2 |
| [3078](#event-3078)        | 0x0050       |      1 |              1 |
| [65535.9](#event-655359)   | 0x0051       |     13 |              3 |
| [65535.10](#event-6553510) | 0x005E       |      2 |              2 |
| [65535.11](#event-6553511) | 0x0060       |     19 |              7 |
| [65535.12](#event-6553512) | 0x0073       |     47 |              5 |
| [65535.13](#event-6553513) | 0x00A2       |     15 |              5 |
| [65535.14](#event-6553514) | 0x00B1       |     22 |              8 |
| [65535.15](#event-6553515) | 0x00C7       |     15 |              5 |
| [65535.16](#event-6553516) | 0x00D6       |     10 |              2 |
| [65535.17](#event-6553517) | 0x00E0       |     15 |              5 |
| [65535.18](#event-6553518) | 0x00EF       |     10 |              2 |
| [65535.19](#event-6553519) | 0x00F9       |     22 |              8 |
| [65535.20](#event-6553520) | 0x010F       |     25 |              9 |
| [3090](#event-3090)        | 0x0128       |      1 |              1 |
| [65535.21](#event-6553521) | 0x0129       |     10 |              2 |
| [65535.22](#event-6553522) | 0x0133       |     15 |              5 |
| [3095](#event-3095)        | 0x0142       |      1 |              1 |
| [65535.23](#event-6553523) | 0x0143       |     10 |              2 |
| [823](#event-823)          | 0x014D       |      1 |              1 |
| [824](#event-824)          | 0x014E       |      1 |              1 |
| [940](#event-940)          | 0x014F       |      1 |              1 |
| [941](#event-941)          | 0x0150       |      1 |              1 |
| [825](#event-825)          | 0x0151       |      1 |              1 |
| [65535.24](#event-6553524) | 0x0152       |     14 |              4 |
| [65535.25](#event-6553525) | 0x0160       |     15 |              5 |
| [65535.26](#event-6553526) | 0x016F       |     14 |              4 |
| [65535.27](#event-6553527) | 0x017D       |     26 |              7 |
| [65535.28](#event-6553528) | 0x0197       |      3 |              2 |
| [65535.29](#event-6553529) | 0x019A       |      4 |              2 |
| [896](#event-896)          | 0x019E       |      1 |              1 |
| [926](#event-926)          | 0x019F       |      1 |              1 |
| [934](#event-934)          | 0x01A0       |      1 |              1 |
| [935](#event-935)          | 0x01A1       |      1 |              1 |
| [937](#event-937)          | 0x01A2       |      1 |              1 |
| [938](#event-938)          | 0x01A3       |      1 |              1 |
| [939](#event-939)          | 0x01A4       |      1 |              1 |
| [943](#event-943)          | 0x01A5       |      1 |              1 |
| [944](#event-944)          | 0x01A6       |      1 |              1 |
| [945](#event-945)          | 0x01A7       |      1 |              1 |
| [65535.30](#event-6553530) | 0x01A8       |     10 |              2 |
| [65535.31](#event-6553531) | 0x01B2       |     10 |              2 |
| [65535.32](#event-6553532) | 0x01BC       |     15 |              5 |
| [65535.33](#event-6553533) | 0x01CB       |     30 |              8 |
| [65535.34](#event-6553534) | 0x01E9       |     15 |              5 |
| [65535.35](#event-6553535) | 0x01F8       |     34 |              6 |
| [65535.36](#event-6553536) | 0x021A       |     15 |              5 |
| [65535.37](#event-6553537) | 0x0229       |     24 |              6 |

## DAT References (imed_data)

|   Index | Hex Value   |   Dec Value |
|---------|-------------|-------------|
|       0 | 0x0000      |           0 |
|       1 | 0x0001      |           1 |
|       2 | 0x0080      |         128 |
|       3 | 0x868F      |       34447 |
|       4 | 0xFFFF33CC  |  4294915020 |
|       5 | 0xFFFFE637  |  4294960695 |
|       6 | 0x0C00      |        3072 |
|       7 | 0xFFFFF30D  |  4294963981 |
|       8 | 0xC16C      |       49516 |
|       9 | 0x0FEC      |        4076 |
|      10 | 0x0026      |          38 |
|      11 | 0xFFFFF989  |  4294965641 |
|      12 | 0x87D7      |       34775 |
|      13 | 0x036E      |         878 |
|      14 | 0x001E      |          30 |
|      15 | 0x000A      |          10 |
|      16 | 0x8696      |       34454 |
|      17 | 0xFFFF4667  |  4294919783 |
|      18 | 0xFFFFE3DD  |  4294960093 |
|      19 | 0x853E      |       34110 |
|      20 | 0xFFFF4689  |  4294919817 |
|      21 | 0x851C      |       34076 |
|      22 | 0xFFFF32C3  |  4294914755 |
|      23 | 0xFFFFFFD6  |  4294967254 |
|      24 | 0xADFE      |       44542 |
|      25 | 0xFFFFE171  |  4294959473 |
|      26 | 0xB203      |       45571 |
|      27 | 0xFFFFDBE8  |  4294958056 |
|      28 | 0xBE76      |       48758 |
|      29 | 0x0DDB      |        3547 |
|      30 | 0x0028      |          40 |
|      31 | 0xFFFFDE4E  |  4294958670 |
|      32 | 0xC3B2      |       50098 |
|      33 | 0x000B      |          11 |
|      34 | 0xFFFFEA52  |  4294961746 |
|      35 | 0xC4B2      |       50354 |
|      36 | 0xFFFFF774  |  4294965108 |
|      37 | 0xC256      |       49750 |
|      38 | 0x00F1      |         241 |
|      39 | 0x000D      |          13 |
|      40 | 0xFFFFDFA9  |  4294959017 |
|      41 | 0xCDD6      |       52694 |
|      42 | 0xFFFFDB42  |  4294957890 |
|      43 | 0xBE52      |       48722 |
|      44 | 0x0856      |        2134 |
|      45 | 0xFFFF0904  |  4294904068 |
|      46 | 0xB954      |       47444 |
|      47 | 0xFFFFE890  |  4294961296 |
|      48 | 0xFFFF06A7  |  4294903463 |
|      49 | 0x7847      |       30791 |
|      50 | 0xFFFF31D8  |  4294914520 |
|      51 | 0x39F7      |       14839 |
|      52 | 0xFFFFE85E  |  4294961246 |
|      53 | 0xFFFF0A12  |  4294904338 |
|      54 | 0xA29F      |       41631 |
|      55 | 0xFFFFE4A9  |  4294960297 |
|      56 | 0x0C1C      |        3100 |
|      57 | 0xFFFF083B  |  4294903867 |
|      58 | 0xAA56      |       43606 |
|      59 | 0xFFFFE4A8  |  4294960296 |
|      60 | 0x0CE4      |        3300 |
|      61 | 0xFFFFFAE3  |  4294965987 |
|      62 | 0xFFFFB1B6  |  4294947254 |
|      63 | 0x0025      |          37 |
|      64 | 0x0143      |         323 |
|      65 | 0xFFFFA1D9  |  4294943193 |
|      66 | 0xFFFFFD38  |  4294966584 |
|      67 | 0xFFFF8BF6  |  4294937590 |
|      68 | 0x0011      |          17 |
|      69 | 0xC048      |       49224 |
|      70 | 0x005A      |          90 |
|      71 | 0x008C      |         140 |
|      72 | 0x000C      |          12 |
|      73 | 0xFFFFFCE7  |  4294966503 |
|      74 | 0xBF21      |       48929 |
|      75 | 0xFFFFF5CD  |  4294964685 |
|      76 | 0xC01D      |       49181 |
|      77 | 0xFFFFD838  |  4294957112 |
|      78 | 0xD0D6      |       53462 |

## Events

### Event 65535

#### Metadata

| Field        | Value   |
|--------------|---------|
| Entrypoint   | 0x0000  |
| Data Size    | 1 bytes |
| Instructions | 1       |

```
      00 01 02 03 04 05 06 07  08 09 0A 0B 0C 0D 0E 0F
      -- -- -- -- -- -- -- --  -- -- -- -- -- -- -- --
0000: 00                                                .               
```

#### Opcodes

```
  0: 0x0000 [0x00] END_REQSTACK()
```

### Event 65535.1

#### Metadata

| Field        | Value   |
|--------------|---------|
| Entrypoint   | 0x0001  |
| Data Size    | 1 bytes |
| Instructions | 1       |

```
      00 01 02 03 04 05 06 07  08 09 0A 0B 0C 0D 0E 0F
      -- -- -- -- -- -- -- --  -- -- -- -- -- -- -- --
0000:    00                                              .              
```

#### Opcodes

```
  0: 0x0001 [0x00] END_REQSTACK()
```

### Event 65535.2

#### Metadata

| Field        | Value    |
|--------------|----------|
| Entrypoint   | 0x0002   |
| Data Size    | 18 bytes |
| Instructions | 4        |

```
      00 01 02 03 04 05 06 07  08 09 0A 0B 0C 0D 0E 0F
      -- -- -- -- -- -- -- --  -- -- -- -- -- -- -- --
0000:       22 00 2F 00 F8 FF  FF 7F 6C F8 FF FF 7F 00    "./.....l.....
0010: 80 01 80 00                                       ....            
```

#### Opcodes

```
  0: 0x0002 [0x22] ENTITY_HIDE_FLAG(enabled=0x00)
  1: 0x0004 [0x2F] EventEntity->Render.Flags0 &= ~0x80000 // Bit 19
  2: 0x000A [0x6C] FADE_ENTITY_COLOR(entity_id=EventEntity, end_alpha=0*, fade_time=1*)
  3: 0x0013 [0x00] END_REQSTACK()
```

### Event 65535.3

#### Metadata

| Field        | Value    |
|--------------|----------|
| Entrypoint   | 0x0014   |
| Data Size    | 10 bytes |
| Instructions | 2        |

```
      00 01 02 03 04 05 06 07  08 09 0A 0B 0C 0D 0E 0F
      -- -- -- -- -- -- -- --  -- -- -- -- -- -- -- --
0010:             6C F8 FF FF  7F 02 80 01 80 00            l.........  
```

#### Opcodes

```
  0: 0x0014 [0x6C] FADE_ENTITY_COLOR(entity_id=EventEntity, end_alpha=128*, fade_time=1*)
  1: 0x001D [0x00] END_REQSTACK()
```

### Event 65535.4

#### Metadata

| Field        | Value   |
|--------------|---------|
| Entrypoint   | 0x001E  |
| Data Size    | 9 bytes |
| Instructions | 3       |

```
      00 01 02 03 04 05 06 07  08 09 0A 0B 0C 0D 0E 0F
      -- -- -- -- -- -- -- --  -- -- -- -- -- -- -- --
0010:                                            22 00                ".
0020: 2F 00 F8 FF FF 7F 00                              /......         
```

#### Opcodes

```
  0: 0x001E [0x22] ENTITY_HIDE_FLAG(enabled=0x00)
  1: 0x0020 [0x2F] EventEntity->Render.Flags0 &= ~0x80000 // Bit 19
  2: 0x0026 [0x00] END_REQSTACK()
```

### Event 65535.5

#### Metadata

| Field        | Value   |
|--------------|---------|
| Entrypoint   | 0x0027  |
| Data Size    | 9 bytes |
| Instructions | 3       |

```
      00 01 02 03 04 05 06 07  08 09 0A 0B 0C 0D 0E 0F
      -- -- -- -- -- -- -- --  -- -- -- -- -- -- -- --
0020:                      22  01 2F 01 F8 FF FF 7F 00         "./......
```

#### Opcodes

```
  0: 0x0027 [0x22] ENTITY_HIDE_FLAG(enabled=0x01)
  1: 0x0029 [0x2F] EventEntity->Render.Flags0 |= 0x80000 // Bit 19
  2: 0x002F [0x00] END_REQSTACK()
```

### Event 65535.6

#### Metadata

| Field        | Value    |
|--------------|----------|
| Entrypoint   | 0x0030   |
| Data Size    | 10 bytes |
| Instructions | 2        |

```
      00 01 02 03 04 05 06 07  08 09 0A 0B 0C 0D 0E 0F
      -- -- -- -- -- -- -- --  -- -- -- -- -- -- -- --
0030: 6C F8 FF FF 7F 00 80 01  80 00                    l.........      
```

#### Opcodes

```
  0: 0x0030 [0x6C] FADE_ENTITY_COLOR(entity_id=EventEntity, end_alpha=0*, fade_time=1*)
  1: 0x0039 [0x00] END_REQSTACK()
```

### Event 65535.7

#### Metadata

| Field        | Value    |
|--------------|----------|
| Entrypoint   | 0x003A   |
| Data Size    | 10 bytes |
| Instructions | 2        |

```
      00 01 02 03 04 05 06 07  08 09 0A 0B 0C 0D 0E 0F
      -- -- -- -- -- -- -- --  -- -- -- -- -- -- -- --
0030:                                6C F8 FF FF 7F 02            l.....
0040: 80 01 80 00                                       ....            
```

#### Opcodes

```
  0: 0x003A [0x6C] FADE_ENTITY_COLOR(entity_id=EventEntity, end_alpha=128*, fade_time=1*)
  1: 0x0043 [0x00] END_REQSTACK()
```

### Event 3052

#### Metadata

| Field        | Value   |
|--------------|---------|
| Entrypoint   | 0x0044  |
| Data Size    | 1 bytes |
| Instructions | 1       |

```
      00 01 02 03 04 05 06 07  08 09 0A 0B 0C 0D 0E 0F
      -- -- -- -- -- -- -- --  -- -- -- -- -- -- -- --
0040:             00                                        .           
```

#### Opcodes

```
  0: 0x0044 [0x00] END_REQSTACK()
```

### Event 3070

#### Metadata

| Field        | Value   |
|--------------|---------|
| Entrypoint   | 0x0045  |
| Data Size    | 1 bytes |
| Instructions | 1       |

```
      00 01 02 03 04 05 06 07  08 09 0A 0B 0C 0D 0E 0F
      -- -- -- -- -- -- -- --  -- -- -- -- -- -- -- --
0040:                00                                      .          
```

#### Opcodes

```
  0: 0x0045 [0x00] END_REQSTACK()
```

### Event 65535.8

#### Metadata

| Field        | Value    |
|--------------|----------|
| Entrypoint   | 0x0046   |
| Data Size    | 10 bytes |
| Instructions | 2        |

```
      00 01 02 03 04 05 06 07  08 09 0A 0B 0C 0D 0E 0F
      -- -- -- -- -- -- -- --  -- -- -- -- -- -- -- --
0040:                   37 03  80 04 80 05 80 06 80 00        7.........
```

#### Opcodes

```
  0: 0x0046 [0x37] UPDATE_EVENT_POSITION_AND_DIR: x=34.447*, z=-52.276*, y=-6.601*, direction=270.0°*
  1: 0x004F [0x00] END_REQSTACK()
```

### Event 3078

#### Metadata

| Field        | Value   |
|--------------|---------|
| Entrypoint   | 0x0050  |
| Data Size    | 1 bytes |
| Instructions | 1       |

```
      00 01 02 03 04 05 06 07  08 09 0A 0B 0C 0D 0E 0F
      -- -- -- -- -- -- -- --  -- -- -- -- -- -- -- --
0050: 00                                                .               
```

#### Opcodes

```
  0: 0x0050 [0x00] END_REQSTACK()
```

### Event 65535.9

#### Metadata

| Field        | Value    |
|--------------|----------|
| Entrypoint   | 0x0051   |
| Data Size    | 13 bytes |
| Instructions | 3        |

```
      00 01 02 03 04 05 06 07  08 09 0A 0B 0C 0D 0E 0F
      -- -- -- -- -- -- -- --  -- -- -- -- -- -- -- --
0050:    37 07 80 08 80 00 80  09 80 95 01 80 00         7............  
```

#### Opcodes

```
  0: 0x0051 [0x37] UPDATE_EVENT_POSITION_AND_DIR: x=-3.315*, z=49.516*, y=0.000*, direction=358.2°*
  1: 0x005A [0x95] SETUP_EVENT_NPC: Prepare NPC for event (Render.Flags3 = 1*)
  2: 0x005D [0x00] END_REQSTACK()
```

### Event 65535.10

#### Metadata

| Field        | Value   |
|--------------|---------|
| Entrypoint   | 0x005E  |
| Data Size    | 2 bytes |
| Instructions | 2       |

```
      00 01 02 03 04 05 06 07  08 09 0A 0B 0C 0D 0E 0F
      -- -- -- -- -- -- -- --  -- -- -- -- -- -- -- --
0050:                                            96 00                ..
```

#### Opcodes

```
  0: 0x005E [0x96] UNSET_EVENT_NPC: Restore NPC after event (removes event NPC status)
  1: 0x005F [0x00] END_REQSTACK()
```

### Event 65535.11

#### Metadata

| Field        | Value    |
|--------------|----------|
| Entrypoint   | 0x0060   |
| Data Size    | 19 bytes |
| Instructions | 7        |

```
      00 01 02 03 04 05 06 07  08 09 0A 0B 0C 0D 0E 0F
      -- -- -- -- -- -- -- --  -- -- -- -- -- -- -- --
0060: AB 08 32 0A 80 1F 00 0B  80 0C 80 00 80 1F 01 6F  ..2............o
0070: AB 07 00                                          ...             
```

#### Opcodes

```
  0: 0x0060 [0xAB] EventEntity->Render.Flags2 |= 0x02 // Set bit 1
  1: 0x0062 [0x32] ExtData[1]->MainSpeed = 38* * 0.1
  2: 0x0065 [0x1F] MOVE_ENTITY: EventEntity moves to X=-1.655*, Z=34.775*, Y=0.000*
  3: 0x006D [0x1F] MOVE_ENTITY: Update entity position (mode=1)
  4: 0x006F [0x6F] WAIT_FRAME_DELAY: Yield until WaitTime reaches zero
  5: 0x0070 [0xAB] EventEntity->Render.Flags2 |= 0x01 // Set bit 0
  6: 0x0072 [0x00] END_REQSTACK()
```

### Event 65535.12

#### Metadata

| Field        | Value    |
|--------------|----------|
| Entrypoint   | 0x0073   |
| Data Size    | 47 bytes |
| Instructions | 5        |

```
      00 01 02 03 04 05 06 07  08 09 0A 0B 0C 0D 0E 0F
      -- -- -- -- -- -- -- --  -- -- -- -- -- -- -- --
0070:          5B 0D 80 C8 20  03 01 C8 20 03 01 74 6C     [... ... ..tl
0080: 61 30 1C 0E 80 5B 0D 80  C8 20 03 01 C8 20 03 01  a0...[... ... ..
0090: 74 6C 61 31 53 C8 20 03  01 C8 20 03 01 74 6C 61  tla1S. ... ..tla
00A0: 31 00                                             1.              
```

#### Opcodes

```
  0: 0x0073 [0x5B] LOAD_EXT_SCHEDULER: Load scheduler "tla0" with entities [Aphmau (ID: 16982216/0x010320C8), Aphmau (ID: 16982216/0x010320C8)], work=878*
  1: 0x0082 [0x1C] WAIT(30* ticks)
  2: 0x0085 [0x5B] LOAD_EXT_SCHEDULER: Load scheduler "tla1" with entities [Aphmau (ID: 16982216/0x010320C8), Aphmau (ID: 16982216/0x010320C8)], work=878*
  3: 0x0094 [0x53] WAIT_SCHEDULER_TASK: Wait for scheduler "tla1" with entities [Aphmau (ID: 16982216/0x010320C8), Aphmau (ID: 16982216/0x010320C8)]
  4: 0x00A1 [0x00] END_REQSTACK()
```

### Event 65535.13

#### Metadata

| Field        | Value    |
|--------------|----------|
| Entrypoint   | 0x00A2   |
| Data Size    | 15 bytes |
| Instructions | 5        |

```
      00 01 02 03 04 05 06 07  08 09 0A 0B 0C 0D 0E 0F
      -- -- -- -- -- -- -- --  -- -- -- -- -- -- -- --
00A0:       32 0F 80 1F 00 10  80 11 80 12 80 1F 01 6F    2............o
00B0: 00                                                .               
```

#### Opcodes

```
  0: 0x00A2 [0x32] ExtData[1]->MainSpeed = 10* * 0.1
  1: 0x00A5 [0x1F] MOVE_ENTITY: EventEntity moves to X=34.454*, Z=-47.513*, Y=-7.203*
  2: 0x00AD [0x1F] MOVE_ENTITY: Update entity position (mode=1)
  3: 0x00AF [0x6F] WAIT_FRAME_DELAY: Yield until WaitTime reaches zero
  4: 0x00B0 [0x00] END_REQSTACK()
```

### Event 65535.14

#### Metadata

| Field        | Value    |
|--------------|----------|
| Entrypoint   | 0x00B1   |
| Data Size    | 22 bytes |
| Instructions | 8        |

```
      00 01 02 03 04 05 06 07  08 09 0A 0B 0C 0D 0E 0F
      -- -- -- -- -- -- -- --  -- -- -- -- -- -- -- --
00B0:    32 0F 80 1F 00 13 80  14 80 12 80 1F 01 6F 1E   2............o.
00C0: C7 20 03 01 6F 70 00                              . ..op.         
```

#### Opcodes

```
  0: 0x00B1 [0x32] ExtData[1]->MainSpeed = 10* * 0.1
  1: 0x00B4 [0x1F] MOVE_ENTITY: EventEntity moves to X=34.110*, Z=-47.479*, Y=-7.203*
  2: 0x00BC [0x1F] MOVE_ENTITY: Update entity position (mode=1)
  3: 0x00BE [0x6F] WAIT_FRAME_DELAY: Yield until WaitTime reaches zero
  4: 0x00BF [0x1E] EventEntity looks at Ovjang (ID: 16982215/0x010320C7) and starts talking
  5: 0x00C4 [0x6F] WAIT_FRAME_DELAY: Yield until WaitTime reaches zero
  6: 0x00C5 [0x70] WAIT_ENTITY_RENDER_FLAG: Wait while EventEntity->Render.Flags3 bit 2 is set (cancel turn if not)
  7: 0x00C6 [0x00] END_REQSTACK()
```

### Event 65535.15

#### Metadata

| Field        | Value    |
|--------------|----------|
| Entrypoint   | 0x00C7   |
| Data Size    | 15 bytes |
| Instructions | 5        |

```
      00 01 02 03 04 05 06 07  08 09 0A 0B 0C 0D 0E 0F
      -- -- -- -- -- -- -- --  -- -- -- -- -- -- -- --
00C0:                      32  0F 80 1F 00 15 80 16 80         2........
00D0: 05 80 1F 01 6F 00                                 ....o.          
```

#### Opcodes

```
  0: 0x00C7 [0x32] ExtData[1]->MainSpeed = 10* * 0.1
  1: 0x00CA [0x1F] MOVE_ENTITY: EventEntity moves to X=34.076*, Z=-52.541*, Y=-6.601*
  2: 0x00D2 [0x1F] MOVE_ENTITY: Update entity position (mode=1)
  3: 0x00D4 [0x6F] WAIT_FRAME_DELAY: Yield until WaitTime reaches zero
  4: 0x00D5 [0x00] END_REQSTACK()
```

### Event 65535.16

#### Metadata

| Field        | Value    |
|--------------|----------|
| Entrypoint   | 0x00D6   |
| Data Size    | 10 bytes |
| Instructions | 2        |

```
      00 01 02 03 04 05 06 07  08 09 0A 0B 0C 0D 0E 0F
      -- -- -- -- -- -- -- --  -- -- -- -- -- -- -- --
00D0:                   37 17  80 18 80 00 80 06 80 00        7.........
```

#### Opcodes

```
  0: 0x00D6 [0x37] UPDATE_EVENT_POSITION_AND_DIR: x=-0.042*, z=44.542*, y=0.000*, direction=270.0°*
  1: 0x00DF [0x00] END_REQSTACK()
```

### Event 65535.17

#### Metadata

| Field        | Value    |
|--------------|----------|
| Entrypoint   | 0x00E0   |
| Data Size    | 15 bytes |
| Instructions | 5        |

```
      00 01 02 03 04 05 06 07  08 09 0A 0B 0C 0D 0E 0F
      -- -- -- -- -- -- -- --  -- -- -- -- -- -- -- --
00E0: 32 0A 80 1F 00 19 80 1A  80 00 80 1F 01 6F 00     2............o. 
```

#### Opcodes

```
  0: 0x00E0 [0x32] ExtData[1]->MainSpeed = 38* * 0.1
  1: 0x00E3 [0x1F] MOVE_ENTITY: EventEntity moves to X=-7.823*, Z=45.571*, Y=0.000*
  2: 0x00EB [0x1F] MOVE_ENTITY: Update entity position (mode=1)
  3: 0x00ED [0x6F] WAIT_FRAME_DELAY: Yield until WaitTime reaches zero
  4: 0x00EE [0x00] END_REQSTACK()
```

### Event 65535.18

#### Metadata

| Field        | Value    |
|--------------|----------|
| Entrypoint   | 0x00EF   |
| Data Size    | 10 bytes |
| Instructions | 2        |

```
      00 01 02 03 04 05 06 07  08 09 0A 0B 0C 0D 0E 0F
      -- -- -- -- -- -- -- --  -- -- -- -- -- -- -- --
00E0:                                               37                 7
00F0: 1B 80 1C 80 00 80 1D 80  00                       .........       
```

#### Opcodes

```
  0: 0x00EF [0x37] UPDATE_EVENT_POSITION_AND_DIR: x=-9.240*, z=48.758*, y=0.000*, direction=311.7°*
  1: 0x00F8 [0x00] END_REQSTACK()
```

### Event 65535.19

#### Metadata

| Field        | Value    |
|--------------|----------|
| Entrypoint   | 0x00F9   |
| Data Size    | 22 bytes |
| Instructions | 8        |

```
      00 01 02 03 04 05 06 07  08 09 0A 0B 0C 0D 0E 0F
      -- -- -- -- -- -- -- --  -- -- -- -- -- -- -- --
00F0:                             32 1E 80 1F 00 1F 80           2......
0100: 20 80 00 80 1F 01 6F 1E  A9 20 03 01 6F 70 00      .....o.. ..op. 
```

#### Opcodes

```
  0: 0x00F9 [0x32] ExtData[1]->MainSpeed = 40* * 0.1
  1: 0x00FC [0x1F] MOVE_ENTITY: EventEntity moves to X=-8.626*, Z=50.098*, Y=0.000*
  2: 0x0104 [0x1F] MOVE_ENTITY: Update entity position (mode=1)
  3: 0x0106 [0x6F] WAIT_FRAME_DELAY: Yield until WaitTime reaches zero
  4: 0x0107 [0x1E] EventEntity looks at Razfahd (ID: 16982185/0x010320A9) and starts talking
  5: 0x010C [0x6F] WAIT_FRAME_DELAY: Yield until WaitTime reaches zero
  6: 0x010D [0x70] WAIT_ENTITY_RENDER_FLAG: Wait while EventEntity->Render.Flags3 bit 2 is set (cancel turn if not)
  7: 0x010E [0x00] END_REQSTACK()
```

### Event 65535.20

#### Metadata

| Field        | Value    |
|--------------|----------|
| Entrypoint   | 0x010F   |
| Data Size    | 25 bytes |
| Instructions | 9        |

```
      00 01 02 03 04 05 06 07  08 09 0A 0B 0C 0D 0E 0F
      -- -- -- -- -- -- -- --  -- -- -- -- -- -- -- --
0100:                                               1C                 .
0110: 0E 80 32 21 80 1F 00 22  80 23 80 00 80 1F 01 6F  ..2!...".#.....o
0120: 1E A9 20 03 01 6F 70 00                           .. ..op.        
```

#### Opcodes

```
  0: 0x010F [0x1C] WAIT(30* ticks)
  1: 0x0112 [0x32] ExtData[1]->MainSpeed = 11* * 0.1
  2: 0x0115 [0x1F] MOVE_ENTITY: EventEntity moves to X=-5.550*, Z=50.354*, Y=0.000*
  3: 0x011D [0x1F] MOVE_ENTITY: Update entity position (mode=1)
  4: 0x011F [0x6F] WAIT_FRAME_DELAY: Yield until WaitTime reaches zero
  5: 0x0120 [0x1E] EventEntity looks at Razfahd (ID: 16982185/0x010320A9) and starts talking
  6: 0x0125 [0x6F] WAIT_FRAME_DELAY: Yield until WaitTime reaches zero
  7: 0x0126 [0x70] WAIT_ENTITY_RENDER_FLAG: Wait while EventEntity->Render.Flags3 bit 2 is set (cancel turn if not)
  8: 0x0127 [0x00] END_REQSTACK()
```

### Event 3090

#### Metadata

| Field        | Value   |
|--------------|---------|
| Entrypoint   | 0x0128  |
| Data Size    | 1 bytes |
| Instructions | 1       |

```
      00 01 02 03 04 05 06 07  08 09 0A 0B 0C 0D 0E 0F
      -- -- -- -- -- -- -- --  -- -- -- -- -- -- -- --
0120:                          00                               .       
```

#### Opcodes

```
  0: 0x0128 [0x00] END_REQSTACK()
```

### Event 65535.21

#### Metadata

| Field        | Value    |
|--------------|----------|
| Entrypoint   | 0x0129   |
| Data Size    | 10 bytes |
| Instructions | 2        |

```
      00 01 02 03 04 05 06 07  08 09 0A 0B 0C 0D 0E 0F
      -- -- -- -- -- -- -- --  -- -- -- -- -- -- -- --
0120:                             37 24 80 25 80 00 80           7$.%...
0130: 26 80 00                                          &..             
```

#### Opcodes

```
  0: 0x0129 [0x37] UPDATE_EVENT_POSITION_AND_DIR: x=-2.188*, z=49.750*, y=0.000*, direction=21.2°*
  1: 0x0132 [0x00] END_REQSTACK()
```

### Event 65535.22

#### Metadata

| Field        | Value    |
|--------------|----------|
| Entrypoint   | 0x0133   |
| Data Size    | 15 bytes |
| Instructions | 5        |

```
      00 01 02 03 04 05 06 07  08 09 0A 0B 0C 0D 0E 0F
      -- -- -- -- -- -- -- --  -- -- -- -- -- -- -- --
0130:          32 27 80 1F 00  28 80 29 80 00 80 1F 01     2'...(.).....
0140: 6F 00                                             o.              
```

#### Opcodes

```
  0: 0x0133 [0x32] ExtData[1]->MainSpeed = 13* * 0.1
  1: 0x0136 [0x1F] MOVE_ENTITY: EventEntity moves to X=-8.279*, Z=52.694*, Y=0.000*
  2: 0x013E [0x1F] MOVE_ENTITY: Update entity position (mode=1)
  3: 0x0140 [0x6F] WAIT_FRAME_DELAY: Yield until WaitTime reaches zero
  4: 0x0141 [0x00] END_REQSTACK()
```

### Event 3095

#### Metadata

| Field        | Value   |
|--------------|---------|
| Entrypoint   | 0x0142  |
| Data Size    | 1 bytes |
| Instructions | 1       |

```
      00 01 02 03 04 05 06 07  08 09 0A 0B 0C 0D 0E 0F
      -- -- -- -- -- -- -- --  -- -- -- -- -- -- -- --
0140:       00                                            .             
```

#### Opcodes

```
  0: 0x0142 [0x00] END_REQSTACK()
```

### Event 65535.23

#### Metadata

| Field        | Value    |
|--------------|----------|
| Entrypoint   | 0x0143   |
| Data Size    | 10 bytes |
| Instructions | 2        |

```
      00 01 02 03 04 05 06 07  08 09 0A 0B 0C 0D 0E 0F
      -- -- -- -- -- -- -- --  -- -- -- -- -- -- -- --
0140:          37 2A 80 2B 80  00 80 2C 80 00              7*.+...,..   
```

#### Opcodes

```
  0: 0x0143 [0x37] UPDATE_EVENT_POSITION_AND_DIR: x=-9.406*, z=48.722*, y=0.000*, direction=187.6°*
  1: 0x014C [0x00] END_REQSTACK()
```

### Event 823

#### Metadata

| Field        | Value   |
|--------------|---------|
| Entrypoint   | 0x014D  |
| Data Size    | 1 bytes |
| Instructions | 1       |

```
      00 01 02 03 04 05 06 07  08 09 0A 0B 0C 0D 0E 0F
      -- -- -- -- -- -- -- --  -- -- -- -- -- -- -- --
0140:                                         00                     .  
```

#### Opcodes

```
  0: 0x014D [0x00] END_REQSTACK()
```

### Event 824

#### Metadata

| Field        | Value   |
|--------------|---------|
| Entrypoint   | 0x014E  |
| Data Size    | 1 bytes |
| Instructions | 1       |

```
      00 01 02 03 04 05 06 07  08 09 0A 0B 0C 0D 0E 0F
      -- -- -- -- -- -- -- --  -- -- -- -- -- -- -- --
0140:                                            00                   . 
```

#### Opcodes

```
  0: 0x014E [0x00] END_REQSTACK()
```

### Event 940

#### Metadata

| Field        | Value   |
|--------------|---------|
| Entrypoint   | 0x014F  |
| Data Size    | 1 bytes |
| Instructions | 1       |

```
      00 01 02 03 04 05 06 07  08 09 0A 0B 0C 0D 0E 0F
      -- -- -- -- -- -- -- --  -- -- -- -- -- -- -- --
0140:                                               00                 .
```

#### Opcodes

```
  0: 0x014F [0x00] END_REQSTACK()
```

### Event 941

#### Metadata

| Field        | Value   |
|--------------|---------|
| Entrypoint   | 0x0150  |
| Data Size    | 1 bytes |
| Instructions | 1       |

```
      00 01 02 03 04 05 06 07  08 09 0A 0B 0C 0D 0E 0F
      -- -- -- -- -- -- -- --  -- -- -- -- -- -- -- --
0150: 00                                                .               
```

#### Opcodes

```
  0: 0x0150 [0x00] END_REQSTACK()
```

### Event 825

#### Metadata

| Field        | Value   |
|--------------|---------|
| Entrypoint   | 0x0151  |
| Data Size    | 1 bytes |
| Instructions | 1       |

```
      00 01 02 03 04 05 06 07  08 09 0A 0B 0C 0D 0E 0F
      -- -- -- -- -- -- -- --  -- -- -- -- -- -- -- --
0150:    00                                              .              
```

#### Opcodes

```
  0: 0x0151 [0x00] END_REQSTACK()
```

### Event 65535.24

#### Metadata

| Field        | Value    |
|--------------|----------|
| Entrypoint   | 0x0152   |
| Data Size    | 14 bytes |
| Instructions | 4        |

```
      00 01 02 03 04 05 06 07  08 09 0A 0B 0C 0D 0E 0F
      -- -- -- -- -- -- -- --  -- -- -- -- -- -- -- --
0150:       32 0A 80 1F 00 2D  80 2E 80 2F 80 1F 01 00    2....-.../....
```

#### Opcodes

```
  0: 0x0152 [0x32] ExtData[1]->MainSpeed = 38* * 0.1
  1: 0x0155 [0x1F] MOVE_ENTITY: EventEntity moves to X=-63.228*, Z=47.444*, Y=-6.000*
  2: 0x015D [0x1F] MOVE_ENTITY: Update entity position (mode=1)
  3: 0x015F [0x00] END_REQSTACK()
```

### Event 65535.25

#### Metadata

| Field        | Value    |
|--------------|----------|
| Entrypoint   | 0x0160   |
| Data Size    | 15 bytes |
| Instructions | 5        |

```
      00 01 02 03 04 05 06 07  08 09 0A 0B 0C 0D 0E 0F
      -- -- -- -- -- -- -- --  -- -- -- -- -- -- -- --
0160: 32 27 80 1F 00 30 80 31  80 2F 80 1F 01 6F 00     2'...0.1./...o. 
```

#### Opcodes

```
  0: 0x0160 [0x32] ExtData[1]->MainSpeed = 13* * 0.1
  1: 0x0163 [0x1F] MOVE_ENTITY: EventEntity moves to X=-63.833*, Z=30.791*, Y=-6.000*
  2: 0x016B [0x1F] MOVE_ENTITY: Update entity position (mode=1)
  3: 0x016D [0x6F] WAIT_FRAME_DELAY: Yield until WaitTime reaches zero
  4: 0x016E [0x00] END_REQSTACK()
```

### Event 65535.26

#### Metadata

| Field        | Value    |
|--------------|----------|
| Entrypoint   | 0x016F   |
| Data Size    | 14 bytes |
| Instructions | 4        |

```
      00 01 02 03 04 05 06 07  08 09 0A 0B 0C 0D 0E 0F
      -- -- -- -- -- -- -- --  -- -- -- -- -- -- -- --
0160:                                               32                 2
0170: 0A 80 5A 00 32 80 33 80  34 80 5A 01 00           ..Z.2.3.4.Z..   
```

#### Opcodes

```
  0: 0x016F [0x32] ExtData[1]->MainSpeed = 38* * 0.1
  1: 0x0172 [0x5A] UPDATE_EVENT_POSITION: Set EventEntity MovePosition to X=-52.776*, Z=14.839*, Y=-6.050*
  2: 0x017A [0x5A] UPDATE_EVENT_POSITION: Move EventEntity incrementally towards MovePosition
  3: 0x017C [0x00] END_REQSTACK()
```

### Event 65535.27

#### Metadata

| Field        | Value    |
|--------------|----------|
| Entrypoint   | 0x017D   |
| Data Size    | 26 bytes |
| Instructions | 7        |

```
      00 01 02 03 04 05 06 07  08 09 0A 0B 0C 0D 0E 0F
      -- -- -- -- -- -- -- --  -- -- -- -- -- -- -- --
0170:                                         33 00 37               3.7
0180: 35 80 36 80 37 80 38 80  32 0A 80 1F 00 39 80 3A  5.6.7.8.2....9.:
0190: 80 3B 80 1F 01 6F 00                              .;...o.         
```

#### Opcodes

```
  0: 0x017D [0x33] EventEntity->Render.Flags0 &= ~ 0x200000 // Bit 21 (flag=0x00)
  1: 0x017F [0x37] UPDATE_EVENT_POSITION_AND_DIR: x=-62.958*, z=41.631*, y=-6.999*, direction=272.5°*
  2: 0x0188 [0x32] ExtData[1]->MainSpeed = 38* * 0.1
  3: 0x018B [0x1F] MOVE_ENTITY: EventEntity moves to X=-63.429*, Z=43.606*, Y=-7.000*
  4: 0x0193 [0x1F] MOVE_ENTITY: Update entity position (mode=1)
  5: 0x0195 [0x6F] WAIT_FRAME_DELAY: Yield until WaitTime reaches zero
  6: 0x0196 [0x00] END_REQSTACK()
```

### Event 65535.28

#### Metadata

| Field        | Value   |
|--------------|---------|
| Entrypoint   | 0x0197  |
| Data Size    | 3 bytes |
| Instructions | 2       |

```
      00 01 02 03 04 05 06 07  08 09 0A 0B 0C 0D 0E 0F
      -- -- -- -- -- -- -- --  -- -- -- -- -- -- -- --
0190:                      33  01 00                           3..      
```

#### Opcodes

```
  0: 0x0197 [0x33] EventEntity->Render.Flags0 |= 0x200000 // Bit 21 (flag=0x01)
  1: 0x0199 [0x00] END_REQSTACK()
```

### Event 65535.29

#### Metadata

| Field        | Value   |
|--------------|---------|
| Entrypoint   | 0x019A  |
| Data Size    | 4 bytes |
| Instructions | 2       |

```
      00 01 02 03 04 05 06 07  08 09 0A 0B 0C 0D 0E 0F
      -- -- -- -- -- -- -- --  -- -- -- -- -- -- -- --
0190:                                39 3C 80 00                  9<..  
```

#### Opcodes

```
  0: 0x019A [0x39] SET_ENTITY_DIRECTION(direction=18.1°*)
  1: 0x019D [0x00] END_REQSTACK()
```

### Event 896

#### Metadata

| Field        | Value   |
|--------------|---------|
| Entrypoint   | 0x019E  |
| Data Size    | 1 bytes |
| Instructions | 1       |

```
      00 01 02 03 04 05 06 07  08 09 0A 0B 0C 0D 0E 0F
      -- -- -- -- -- -- -- --  -- -- -- -- -- -- -- --
0190:                                            00                   . 
```

#### Opcodes

```
  0: 0x019E [0x00] END_REQSTACK()
```

### Event 926

#### Metadata

| Field        | Value   |
|--------------|---------|
| Entrypoint   | 0x019F  |
| Data Size    | 1 bytes |
| Instructions | 1       |

```
      00 01 02 03 04 05 06 07  08 09 0A 0B 0C 0D 0E 0F
      -- -- -- -- -- -- -- --  -- -- -- -- -- -- -- --
0190:                                               00                 .
```

#### Opcodes

```
  0: 0x019F [0x00] END_REQSTACK()
```

### Event 934

#### Metadata

| Field        | Value   |
|--------------|---------|
| Entrypoint   | 0x01A0  |
| Data Size    | 1 bytes |
| Instructions | 1       |

```
      00 01 02 03 04 05 06 07  08 09 0A 0B 0C 0D 0E 0F
      -- -- -- -- -- -- -- --  -- -- -- -- -- -- -- --
01A0: 00                                                .               
```

#### Opcodes

```
  0: 0x01A0 [0x00] END_REQSTACK()
```

### Event 935

#### Metadata

| Field        | Value   |
|--------------|---------|
| Entrypoint   | 0x01A1  |
| Data Size    | 1 bytes |
| Instructions | 1       |

```
      00 01 02 03 04 05 06 07  08 09 0A 0B 0C 0D 0E 0F
      -- -- -- -- -- -- -- --  -- -- -- -- -- -- -- --
01A0:    00                                              .              
```

#### Opcodes

```
  0: 0x01A1 [0x00] END_REQSTACK()
```

### Event 937

#### Metadata

| Field        | Value   |
|--------------|---------|
| Entrypoint   | 0x01A2  |
| Data Size    | 1 bytes |
| Instructions | 1       |

```
      00 01 02 03 04 05 06 07  08 09 0A 0B 0C 0D 0E 0F
      -- -- -- -- -- -- -- --  -- -- -- -- -- -- -- --
01A0:       00                                            .             
```

#### Opcodes

```
  0: 0x01A2 [0x00] END_REQSTACK()
```

### Event 938

#### Metadata

| Field        | Value   |
|--------------|---------|
| Entrypoint   | 0x01A3  |
| Data Size    | 1 bytes |
| Instructions | 1       |

```
      00 01 02 03 04 05 06 07  08 09 0A 0B 0C 0D 0E 0F
      -- -- -- -- -- -- -- --  -- -- -- -- -- -- -- --
01A0:          00                                          .            
```

#### Opcodes

```
  0: 0x01A3 [0x00] END_REQSTACK()
```

### Event 939

#### Metadata

| Field        | Value   |
|--------------|---------|
| Entrypoint   | 0x01A4  |
| Data Size    | 1 bytes |
| Instructions | 1       |

```
      00 01 02 03 04 05 06 07  08 09 0A 0B 0C 0D 0E 0F
      -- -- -- -- -- -- -- --  -- -- -- -- -- -- -- --
01A0:             00                                        .           
```

#### Opcodes

```
  0: 0x01A4 [0x00] END_REQSTACK()
```

### Event 943

#### Metadata

| Field        | Value   |
|--------------|---------|
| Entrypoint   | 0x01A5  |
| Data Size    | 1 bytes |
| Instructions | 1       |

```
      00 01 02 03 04 05 06 07  08 09 0A 0B 0C 0D 0E 0F
      -- -- -- -- -- -- -- --  -- -- -- -- -- -- -- --
01A0:                00                                      .          
```

#### Opcodes

```
  0: 0x01A5 [0x00] END_REQSTACK()
```

### Event 944

#### Metadata

| Field        | Value   |
|--------------|---------|
| Entrypoint   | 0x01A6  |
| Data Size    | 1 bytes |
| Instructions | 1       |

```
      00 01 02 03 04 05 06 07  08 09 0A 0B 0C 0D 0E 0F
      -- -- -- -- -- -- -- --  -- -- -- -- -- -- -- --
01A0:                   00                                    .         
```

#### Opcodes

```
  0: 0x01A6 [0x00] END_REQSTACK()
```

### Event 945

#### Metadata

| Field        | Value   |
|--------------|---------|
| Entrypoint   | 0x01A7  |
| Data Size    | 1 bytes |
| Instructions | 1       |

```
      00 01 02 03 04 05 06 07  08 09 0A 0B 0C 0D 0E 0F
      -- -- -- -- -- -- -- --  -- -- -- -- -- -- -- --
01A0:                      00                                  .        
```

#### Opcodes

```
  0: 0x01A7 [0x00] END_REQSTACK()
```

### Event 65535.30

#### Metadata

| Field        | Value    |
|--------------|----------|
| Entrypoint   | 0x01A8   |
| Data Size    | 10 bytes |
| Instructions | 2        |

```
      00 01 02 03 04 05 06 07  08 09 0A 0B 0C 0D 0E 0F
      -- -- -- -- -- -- -- --  -- -- -- -- -- -- -- --
01A0:                          6C F8 FF FF 7F 00 80 01          l.......
01B0: 80 00                                             ..              
```

#### Opcodes

```
  0: 0x01A8 [0x6C] FADE_ENTITY_COLOR(entity_id=EventEntity, end_alpha=0*, fade_time=1*)
  1: 0x01B1 [0x00] END_REQSTACK()
```

### Event 65535.31

#### Metadata

| Field        | Value    |
|--------------|----------|
| Entrypoint   | 0x01B2   |
| Data Size    | 10 bytes |
| Instructions | 2        |

```
      00 01 02 03 04 05 06 07  08 09 0A 0B 0C 0D 0E 0F
      -- -- -- -- -- -- -- --  -- -- -- -- -- -- -- --
01B0:       6C F8 FF FF 7F 02  80 01 80 00                l.........    
```

#### Opcodes

```
  0: 0x01B2 [0x6C] FADE_ENTITY_COLOR(entity_id=EventEntity, end_alpha=128*, fade_time=1*)
  1: 0x01BB [0x00] END_REQSTACK()
```

### Event 65535.32

#### Metadata

| Field        | Value    |
|--------------|----------|
| Entrypoint   | 0x01BC   |
| Data Size    | 15 bytes |
| Instructions | 5        |

```
      00 01 02 03 04 05 06 07  08 09 0A 0B 0C 0D 0E 0F
      -- -- -- -- -- -- -- --  -- -- -- -- -- -- -- --
01B0:                                      32 21 80 1F              2!..
01C0: 00 3D 80 3E 80 00 80 1F  01 6F 00                 .=.>.....o.     
```

#### Opcodes

```
  0: 0x01BC [0x32] ExtData[1]->MainSpeed = 11* * 0.1
  1: 0x01BF [0x1F] MOVE_ENTITY: EventEntity moves to X=-1.309*, Z=-20.042*, Y=0.000*
  2: 0x01C7 [0x1F] MOVE_ENTITY: Update entity position (mode=1)
  3: 0x01C9 [0x6F] WAIT_FRAME_DELAY: Yield until WaitTime reaches zero
  4: 0x01CA [0x00] END_REQSTACK()
```

### Event 65535.33

#### Metadata

| Field        | Value    |
|--------------|----------|
| Entrypoint   | 0x01CB   |
| Data Size    | 30 bytes |
| Instructions | 8        |

```
      00 01 02 03 04 05 06 07  08 09 0A 0B 0C 0D 0E 0F
      -- -- -- -- -- -- -- --  -- -- -- -- -- -- -- --
01C0:                                   32 3F 80 1F 00             2?...
01D0: 40 80 41 80 00 80 1F 01  1F 00 42 80 43 80 00 80  @.A.......B.C...
01E0: 1F 01 6F 1E F0 FF FF 7F  00                       ..o......       
```

#### Opcodes

```
  0: 0x01CB [0x32] ExtData[1]->MainSpeed = 37* * 0.1
  1: 0x01CE [0x1F] MOVE_ENTITY: EventEntity moves to X=0.323*, Z=-24.103*, Y=0.000*
  2: 0x01D6 [0x1F] MOVE_ENTITY: Update entity position (mode=1)
  3: 0x01D8 [0x1F] MOVE_ENTITY: EventEntity moves to X=-0.712*, Z=-29.706*, Y=0.000*
  4: 0x01E0 [0x1F] MOVE_ENTITY: Update entity position (mode=1)
  5: 0x01E2 [0x6F] WAIT_FRAME_DELAY: Yield until WaitTime reaches zero
  6: 0x01E3 [0x1E] EventEntity looks at LocalPlayer and starts talking
  7: 0x01E8 [0x00] END_REQSTACK()
```

### Event 65535.34

#### Metadata

| Field        | Value    |
|--------------|----------|
| Entrypoint   | 0x01E9   |
| Data Size    | 15 bytes |
| Instructions | 5        |

```
      00 01 02 03 04 05 06 07  08 09 0A 0B 0C 0D 0E 0F
      -- -- -- -- -- -- -- --  -- -- -- -- -- -- -- --
01E0:                             32 21 80 1F 00 44 80           2!...D.
01F0: 45 80 00 80 1F 01 6F 00                           E.....o.        
```

#### Opcodes

```
  0: 0x01E9 [0x32] ExtData[1]->MainSpeed = 11* * 0.1
  1: 0x01EC [0x1F] MOVE_ENTITY: EventEntity moves to X=0.017*, Z=49.224*, Y=0.000*
  2: 0x01F4 [0x1F] MOVE_ENTITY: Update entity position (mode=1)
  3: 0x01F6 [0x6F] WAIT_FRAME_DELAY: Yield until WaitTime reaches zero
  4: 0x01F7 [0x00] END_REQSTACK()
```

### Event 65535.35

#### Metadata

| Field        | Value    |
|--------------|----------|
| Entrypoint   | 0x01F8   |
| Data Size    | 34 bytes |
| Instructions | 6        |

```
      00 01 02 03 04 05 06 07  08 09 0A 0B 0C 0D 0E 0F
      -- -- -- -- -- -- -- --  -- -- -- -- -- -- -- --
01F0:                          4A CC 20 03 01 95 20 03          J. ... .
0200: 01 1C 46 80 4A CC 20 03  01 95 20 03 01 1C 47 80  ..F.J. ... ...G.
0210: 4A CC 20 03 01 95 20 03  01 00                    J. ... ...      
```

#### Opcodes

```
  0: 0x01F8 [0x4A] Nashmeira (ID: 16982220/0x010320CC) looks at Ghatsad (ID: 16982165/0x01032095)
  1: 0x0201 [0x1C] WAIT(90* ticks)
  2: 0x0204 [0x4A] Nashmeira (ID: 16982220/0x010320CC) looks at Ghatsad (ID: 16982165/0x01032095)
  3: 0x020D [0x1C] WAIT(140* ticks)
  4: 0x0210 [0x4A] Nashmeira (ID: 16982220/0x010320CC) looks at Ghatsad (ID: 16982165/0x01032095)
  5: 0x0219 [0x00] END_REQSTACK()
```

### Event 65535.36

#### Metadata

| Field        | Value    |
|--------------|----------|
| Entrypoint   | 0x021A   |
| Data Size    | 15 bytes |
| Instructions | 5        |

```
      00 01 02 03 04 05 06 07  08 09 0A 0B 0C 0D 0E 0F
      -- -- -- -- -- -- -- --  -- -- -- -- -- -- -- --
0210:                                32 48 80 1F 00 49            2H...I
0220: 80 4A 80 00 80 1F 01 6F  00                       .J.....o.       
```

#### Opcodes

```
  0: 0x021A [0x32] ExtData[1]->MainSpeed = 12* * 0.1
  1: 0x021D [0x1F] MOVE_ENTITY: EventEntity moves to X=-0.793*, Z=48.929*, Y=0.000*
  2: 0x0225 [0x1F] MOVE_ENTITY: Update entity position (mode=1)
  3: 0x0227 [0x6F] WAIT_FRAME_DELAY: Yield until WaitTime reaches zero
  4: 0x0228 [0x00] END_REQSTACK()
```

### Event 65535.37

#### Metadata

| Field        | Value    |
|--------------|----------|
| Entrypoint   | 0x0229   |
| Data Size    | 24 bytes |
| Instructions | 6        |

```
      00 01 02 03 04 05 06 07  08 09 0A 0B 0C 0D 0E 0F
      -- -- -- -- -- -- -- --  -- -- -- -- -- -- -- --
0220:                             32 48 80 1F 00 4B 80           2H...K.
0230: 4C 80 00 80 1F 01 1F 00  4D 80 4E 80 00 80 1F 01  L.......M.N.....
0240: 00                                                .               
```

#### Opcodes

```
  0: 0x0229 [0x32] ExtData[1]->MainSpeed = 12* * 0.1
  1: 0x022C [0x1F] MOVE_ENTITY: EventEntity moves to X=-2.611*, Z=49.181*, Y=0.000*
  2: 0x0234 [0x1F] MOVE_ENTITY: Update entity position (mode=1)
  3: 0x0236 [0x1F] MOVE_ENTITY: EventEntity moves to X=-10.184*, Z=53.462*, Y=0.000*
  4: 0x023E [0x1F] MOVE_ENTITY: Update entity position (mode=1)
  5: 0x0240 [0x00] END_REQSTACK()
```
