# 16982474 - Yasmeel

## Common Data

| Field            | Value                          |
|------------------|--------------------------------|
| Zone             | Aht Urhgan Whitegate2 (ID: 50) |
| Block Size       | 496 bytes                      |
| Total Events     | 21                             |
| References Count | 28                             |

## List of Events

| Event ID                    | Entrypoint   |   Size |   Instructions |
|-----------------------------|--------------|--------|----------------|
| [65535](#event-65535)       | 0x0000       |      1 |              1 |
| [5080](#event-5080)         | 0x0001       |      1 |              1 |
| [5081](#event-5081)         | 0x0002       |      1 |              1 |
| [5082](#event-5082)         | 0x0003       |      1 |              1 |
| [5083](#event-5083)         | 0x0004       |      1 |              1 |
| [5084](#event-5084)         | 0x0005       |      1 |              1 |
| [5085](#event-5085)         | 0x0006       |      1 |              1 |
| [65535.1](#event-65535-1)   | 0x0007       |     29 |              7 |
| [65535.2](#event-65535-2)   | 0x0024       |     29 |              7 |
| [65535.3](#event-65535-3)   | 0x0041       |     30 |              8 |
| [65535.4](#event-65535-4)   | 0x005F       |     30 |              8 |
| [65535.5](#event-65535-5)   | 0x007D       |     24 |              6 |
| [65535.6](#event-65535-6)   | 0x0095       |     30 |              8 |
| [65535.7](#event-65535-7)   | 0x00B3       |     15 |              5 |
| [65535.8](#event-65535-8)   | 0x00C2       |     21 |              6 |
| [65535.9](#event-65535-9)   | 0x00D7       |     15 |              5 |
| [65535.10](#event-65535-10) | 0x00E6       |     15 |              5 |
| [65535.11](#event-65535-11) | 0x00F5       |     15 |              5 |
| [65535.12](#event-65535-12) | 0x0104       |     10 |              2 |
| [65535.13](#event-65535-13) | 0x010E       |     10 |              2 |
| [5086](#event-5086)         | 0x0118       |      1 |              1 |

## DAT References (imed_data)

|   Index | Hex Value   |   Dec Value |
|---------|-------------|-------------|
|       0 | 0x000D      |          13 |
|       1 | 0xFFF74F36  |  4294397750 |
|       2 | 0x9B0B      |       39691 |
|       3 | 0x07CF      |        1999 |
|       4 | 0xFFF74675  |  4294395509 |
|       5 | 0xA172      |       41330 |
|       6 | 0x0028      |          40 |
|       7 | 0xFFF75140  |  4294398272 |
|       8 | 0x9B20      |       39712 |
|       9 | 0xFFF756CA  |  4294399690 |
|      10 | 0xB0C5      |       45253 |
|      11 | 0xFFF74D0B  |  4294397195 |
|      12 | 0x9B45      |       39749 |
|      13 | 0xFFF7555D  |  4294399325 |
|      14 | 0x8A11      |       35345 |
|      15 | 0x33D6      |       13270 |
|      16 | 0xFFFEC3C5  |  4294886341 |
|      17 | 0x0000      |           0 |
|      18 | 0xF7D0      |       63440 |
|      19 | 0xFFFEC9B3  |  4294887859 |
|      20 | 0xFFF742D8  |  4294394584 |
|      21 | 0x8A21      |       35361 |
|      22 | 0xFFF7681F  |  4294404127 |
|      23 | 0x9BD1      |       39889 |
|      24 | 0xFFF7610D  |  4294402317 |
|      25 | 0xA5EB      |       42475 |
|      26 | 0x003C      |          60 |
|      27 | 0x0080      |         128 |

## Events

### Event 65535

#### Metadata

| Field        | Value   |
|--------------|---------|
| Entrypoint   | 0x0000  |
| Data Size    | 1 bytes |
| Instructions | 1       |

```
      00 01 02 03 04 05 06 07  08 09 0A 0B 0C 0D 0E 0F
      -- -- -- -- -- -- -- --  -- -- -- -- -- -- -- --
0000: 00                                                .               
```

#### Opcodes

```
  0: 0x0000 [0x00] END_REQSTACK()
```

### Event 5080

#### Metadata

| Field        | Value   |
|--------------|---------|
| Entrypoint   | 0x0001  |
| Data Size    | 1 bytes |
| Instructions | 1       |

```
      00 01 02 03 04 05 06 07  08 09 0A 0B 0C 0D 0E 0F
      -- -- -- -- -- -- -- --  -- -- -- -- -- -- -- --
0000:    00                                              .              
```

#### Opcodes

```
  0: 0x0001 [0x00] END_REQSTACK()
```

### Event 5081

#### Metadata

| Field        | Value   |
|--------------|---------|
| Entrypoint   | 0x0002  |
| Data Size    | 1 bytes |
| Instructions | 1       |

```
      00 01 02 03 04 05 06 07  08 09 0A 0B 0C 0D 0E 0F
      -- -- -- -- -- -- -- --  -- -- -- -- -- -- -- --
0000:       00                                            .             
```

#### Opcodes

```
  0: 0x0002 [0x00] END_REQSTACK()
```

### Event 5082

#### Metadata

| Field        | Value   |
|--------------|---------|
| Entrypoint   | 0x0003  |
| Data Size    | 1 bytes |
| Instructions | 1       |

```
      00 01 02 03 04 05 06 07  08 09 0A 0B 0C 0D 0E 0F
      -- -- -- -- -- -- -- --  -- -- -- -- -- -- -- --
0000:          00                                          .            
```

#### Opcodes

```
  0: 0x0003 [0x00] END_REQSTACK()
```

### Event 5083

#### Metadata

| Field        | Value   |
|--------------|---------|
| Entrypoint   | 0x0004  |
| Data Size    | 1 bytes |
| Instructions | 1       |

```
      00 01 02 03 04 05 06 07  08 09 0A 0B 0C 0D 0E 0F
      -- -- -- -- -- -- -- --  -- -- -- -- -- -- -- --
0000:             00                                        .           
```

#### Opcodes

```
  0: 0x0004 [0x00] END_REQSTACK()
```

### Event 5084

#### Metadata

| Field        | Value   |
|--------------|---------|
| Entrypoint   | 0x0005  |
| Data Size    | 1 bytes |
| Instructions | 1       |

```
      00 01 02 03 04 05 06 07  08 09 0A 0B 0C 0D 0E 0F
      -- -- -- -- -- -- -- --  -- -- -- -- -- -- -- --
0000:                00                                      .          
```

#### Opcodes

```
  0: 0x0005 [0x00] END_REQSTACK()
```

### Event 5085

#### Metadata

| Field        | Value   |
|--------------|---------|
| Entrypoint   | 0x0006  |
| Data Size    | 1 bytes |
| Instructions | 1       |

```
      00 01 02 03 04 05 06 07  08 09 0A 0B 0C 0D 0E 0F
      -- -- -- -- -- -- -- --  -- -- -- -- -- -- -- --
0000:                   00                                    .         
```

#### Opcodes

```
  0: 0x0006 [0x00] END_REQSTACK()
```

### Event 65535.1

#### Metadata

| Field        | Value    |
|--------------|----------|
| Entrypoint   | 0x0007   |
| Data Size    | 29 bytes |
| Instructions | 7        |

```
      00 01 02 03 04 05 06 07  08 09 0A 0B 0C 0D 0E 0F
      -- -- -- -- -- -- -- --  -- -- -- -- -- -- -- --
0000:                      7B  CA 21 03 01 32 00 80 1F         {.!..2...
0010: 00 01 80 02 80 03 80 1F  01 6F 4A CA 21 03 01 C6  .........oJ.!...
0020: 21 03 01 00                                       !...            
```

#### Opcodes

```
  0: 0x0007 [0x7B] Yasmeel (ID: 16982474/0x010321CA) stops talking
  1: 0x000C [0x32] ExtData[1]->MainSpeed = 13* * 0.1
  2: 0x000F [0x1F] MOVE_ENTITY: EventEntity moves to X=-569.546*, Z=39.691*, Y=1.999*
  3: 0x0017 [0x1F] MOVE_ENTITY: Update entity position (mode=1)
  4: 0x0019 [0x6F] WAIT_FRAME_DELAY: Yield until WaitTime reaches zero
  5: 0x001A [0x4A] Yasmeel (ID: 16982474/0x010321CA) looks at Rongelouts (ID: 16982470/0x010321C6)
  6: 0x0023 [0x00] END_REQSTACK()
```

### Event 65535.2

#### Metadata

| Field        | Value    |
|--------------|----------|
| Entrypoint   | 0x0024   |
| Data Size    | 29 bytes |
| Instructions | 7        |

```
      00 01 02 03 04 05 06 07  08 09 0A 0B 0C 0D 0E 0F
      -- -- -- -- -- -- -- --  -- -- -- -- -- -- -- --
0020:             7B CA 21 03  01 32 00 80 1F 00 04 80      {.!..2......
0030: 05 80 03 80 1F 01 6F 4A  CA 21 03 01 C6 21 03 01  ......oJ.!...!..
0040: 00                                                .               
```

#### Opcodes

```
  0: 0x0024 [0x7B] Yasmeel (ID: 16982474/0x010321CA) stops talking
  1: 0x0029 [0x32] ExtData[1]->MainSpeed = 13* * 0.1
  2: 0x002C [0x1F] MOVE_ENTITY: EventEntity moves to X=-571.787*, Z=41.330*, Y=1.999*
  3: 0x0034 [0x1F] MOVE_ENTITY: Update entity position (mode=1)
  4: 0x0036 [0x6F] WAIT_FRAME_DELAY: Yield until WaitTime reaches zero
  5: 0x0037 [0x4A] Yasmeel (ID: 16982474/0x010321CA) looks at Rongelouts (ID: 16982470/0x010321C6)
  6: 0x0040 [0x00] END_REQSTACK()
```

### Event 65535.3

#### Metadata

| Field        | Value    |
|--------------|----------|
| Entrypoint   | 0x0041   |
| Data Size    | 30 bytes |
| Instructions | 8        |

```
      00 01 02 03 04 05 06 07  08 09 0A 0B 0C 0D 0E 0F
      -- -- -- -- -- -- -- --  -- -- -- -- -- -- -- --
0040:    32 06 80 1F 00 07 80  08 80 03 80 1F 01 6F 4A   2............oJ
0050: CA 21 03 01 C7 21 03 01  6F 76 CA 21 03 01 00     .!...!..ov.!... 
```

#### Opcodes

```
  0: 0x0041 [0x32] ExtData[1]->MainSpeed = 40* * 0.1
  1: 0x0044 [0x1F] MOVE_ENTITY: EventEntity moves to X=-569.024*, Z=39.712*, Y=1.999*
  2: 0x004C [0x1F] MOVE_ENTITY: Update entity position (mode=1)
  3: 0x004E [0x6F] WAIT_FRAME_DELAY: Yield until WaitTime reaches zero
  4: 0x004F [0x4A] Yasmeel (ID: 16982474/0x010321CA) looks at Rongelouts (ID: 16982471/0x010321C7)
  5: 0x0058 [0x6F] WAIT_FRAME_DELAY: Yield until WaitTime reaches zero
  6: 0x0059 [0x76] CHECK_ENTITY_RENDER_FLAGS: Wait until Yasmeel (ID: 16982474/0x010321CA) Render.Flags0 and Render.Flags3 conditions are met
  7: 0x005E [0x00] END_REQSTACK()
```

### Event 65535.4

#### Metadata

| Field        | Value    |
|--------------|----------|
| Entrypoint   | 0x005F   |
| Data Size    | 30 bytes |
| Instructions | 8        |

```
      00 01 02 03 04 05 06 07  08 09 0A 0B 0C 0D 0E 0F
      -- -- -- -- -- -- -- --  -- -- -- -- -- -- -- --
0050:                                               32                 2
0060: 06 80 1F 00 09 80 0A 80  03 80 1F 01 6F 4A CA 21  ............oJ.!
0070: 03 01 CB 21 03 01 6F 76  CA 21 03 01 00           ...!..ov.!...   
```

#### Opcodes

```
  0: 0x005F [0x32] ExtData[1]->MainSpeed = 40* * 0.1
  1: 0x0062 [0x1F] MOVE_ENTITY: EventEntity moves to X=-567.606*, Z=45.253*, Y=1.999*
  2: 0x006A [0x1F] MOVE_ENTITY: Update entity position (mode=1)
  3: 0x006C [0x6F] WAIT_FRAME_DELAY: Yield until WaitTime reaches zero
  4: 0x006D [0x4A] Yasmeel (ID: 16982474/0x010321CA) looks at Neosaliat (ID: 16982475/0x010321CB)
  5: 0x0076 [0x6F] WAIT_FRAME_DELAY: Yield until WaitTime reaches zero
  6: 0x0077 [0x76] CHECK_ENTITY_RENDER_FLAGS: Wait until Yasmeel (ID: 16982474/0x010321CA) Render.Flags0 and Render.Flags3 conditions are met
  7: 0x007C [0x00] END_REQSTACK()
```

### Event 65535.5

#### Metadata

| Field        | Value    |
|--------------|----------|
| Entrypoint   | 0x007D   |
| Data Size    | 24 bytes |
| Instructions | 6        |

```
      00 01 02 03 04 05 06 07  08 09 0A 0B 0C 0D 0E 0F
      -- -- -- -- -- -- -- --  -- -- -- -- -- -- -- --
0070:                                         32 06 80               2..
0080: 1F 00 0B 80 0C 80 03 80  1F 01 6F 4A CA 21 03 01  ..........oJ.!..
0090: D3 20 03 01 00                                    . ...           
```

#### Opcodes

```
  0: 0x007D [0x32] ExtData[1]->MainSpeed = 40* * 0.1
  1: 0x0080 [0x1F] MOVE_ENTITY: EventEntity moves to X=-570.101*, Z=39.749*, Y=1.999*
  2: 0x0088 [0x1F] MOVE_ENTITY: Update entity position (mode=1)
  3: 0x008A [0x6F] WAIT_FRAME_DELAY: Yield until WaitTime reaches zero
  4: 0x008B [0x4A] Yasmeel (ID: 16982474/0x010321CA) looks at Falzum (ID: 16982227/0x010320D3)
  5: 0x0094 [0x00] END_REQSTACK()
```

### Event 65535.6

#### Metadata

| Field        | Value    |
|--------------|----------|
| Entrypoint   | 0x0095   |
| Data Size    | 30 bytes |
| Instructions | 8        |

```
      00 01 02 03 04 05 06 07  08 09 0A 0B 0C 0D 0E 0F
      -- -- -- -- -- -- -- --  -- -- -- -- -- -- -- --
0090:                32 06 80  1F 00 0D 80 0E 80 03 80       2..........
00A0: 1F 01 6F 4A CA 21 03 01  CC 21 03 01 6F 76 CA 21  ..oJ.!...!..ov.!
00B0: 03 01 00                                          ...             
```

#### Opcodes

```
  0: 0x0095 [0x32] ExtData[1]->MainSpeed = 40* * 0.1
  1: 0x0098 [0x1F] MOVE_ENTITY: EventEntity moves to X=-567.971*, Z=35.345*, Y=1.999*
  2: 0x00A0 [0x1F] MOVE_ENTITY: Update entity position (mode=1)
  3: 0x00A2 [0x6F] WAIT_FRAME_DELAY: Yield until WaitTime reaches zero
  4: 0x00A3 [0x4A] Yasmeel (ID: 16982474/0x010321CA) looks at Silver Kettle (ID: 16982476/0x010321CC)
  5: 0x00AC [0x6F] WAIT_FRAME_DELAY: Yield until WaitTime reaches zero
  6: 0x00AD [0x76] CHECK_ENTITY_RENDER_FLAGS: Wait until Yasmeel (ID: 16982474/0x010321CA) Render.Flags0 and Render.Flags3 conditions are met
  7: 0x00B2 [0x00] END_REQSTACK()
```

### Event 65535.7

#### Metadata

| Field        | Value    |
|--------------|----------|
| Entrypoint   | 0x00B3   |
| Data Size    | 15 bytes |
| Instructions | 5        |

```
      00 01 02 03 04 05 06 07  08 09 0A 0B 0C 0D 0E 0F
      -- -- -- -- -- -- -- --  -- -- -- -- -- -- -- --
00B0:          32 00 80 1F 00  0F 80 10 80 11 80 1F 01     2............
00C0: 6F 00                                             o.              
```

#### Opcodes

```
  0: 0x00B3 [0x32] ExtData[1]->MainSpeed = 13* * 0.1
  1: 0x00B6 [0x1F] MOVE_ENTITY: EventEntity moves to X=13.270*, Z=-80.955*, Y=0.000*
  2: 0x00BE [0x1F] MOVE_ENTITY: Update entity position (mode=1)
  3: 0x00C0 [0x6F] WAIT_FRAME_DELAY: Yield until WaitTime reaches zero
  4: 0x00C1 [0x00] END_REQSTACK()
```

### Event 65535.8

#### Metadata

| Field        | Value    |
|--------------|----------|
| Entrypoint   | 0x00C2   |
| Data Size    | 21 bytes |
| Instructions | 6        |

```
      00 01 02 03 04 05 06 07  08 09 0A 0B 0C 0D 0E 0F
      -- -- -- -- -- -- -- --  -- -- -- -- -- -- -- --
00C0:       32 06 80 1F 00 12  80 13 80 11 80 1F 01 6F    2............o
00D0: 4E 01 CA 21 03 01 00                              N..!...         
```

#### Opcodes

```
  0: 0x00C2 [0x32] ExtData[1]->MainSpeed = 40* * 0.1
  1: 0x00C5 [0x1F] MOVE_ENTITY: EventEntity moves to X=63.440*, Z=-79.437*, Y=0.000*
  2: 0x00CD [0x1F] MOVE_ENTITY: Update entity position (mode=1)
  3: 0x00CF [0x6F] WAIT_FRAME_DELAY: Yield until WaitTime reaches zero
  4: 0x00D0 [0x4E] SET_ENTITY_HIDE_FLAG: Hide Yasmeel (ID: 16982474/0x010321CA)
  5: 0x00D6 [0x00] END_REQSTACK()
```

### Event 65535.9

#### Metadata

| Field        | Value    |
|--------------|----------|
| Entrypoint   | 0x00D7   |
| Data Size    | 15 bytes |
| Instructions | 5        |

```
      00 01 02 03 04 05 06 07  08 09 0A 0B 0C 0D 0E 0F
      -- -- -- -- -- -- -- --  -- -- -- -- -- -- -- --
00D0:                      32  00 80 1F 00 14 80 15 80         2........
00E0: 03 80 1F 01 6F 00                                 ....o.          
```

#### Opcodes

```
  0: 0x00D7 [0x32] ExtData[1]->MainSpeed = 13* * 0.1
  1: 0x00DA [0x1F] MOVE_ENTITY: EventEntity moves to X=-572.712*, Z=35.361*, Y=1.999*
  2: 0x00E2 [0x1F] MOVE_ENTITY: Update entity position (mode=1)
  3: 0x00E4 [0x6F] WAIT_FRAME_DELAY: Yield until WaitTime reaches zero
  4: 0x00E5 [0x00] END_REQSTACK()
```

### Event 65535.10

#### Metadata

| Field        | Value    |
|--------------|----------|
| Entrypoint   | 0x00E6   |
| Data Size    | 15 bytes |
| Instructions | 5        |

```
      00 01 02 03 04 05 06 07  08 09 0A 0B 0C 0D 0E 0F
      -- -- -- -- -- -- -- --  -- -- -- -- -- -- -- --
00E0:                   32 00  80 1F 00 16 80 17 80 03        2.........
00F0: 80 1F 01 6F 00                                    ...o.           
```

#### Opcodes

```
  0: 0x00E6 [0x32] ExtData[1]->MainSpeed = 13* * 0.1
  1: 0x00E9 [0x1F] MOVE_ENTITY: EventEntity moves to X=-563.169*, Z=39.889*, Y=1.999*
  2: 0x00F1 [0x1F] MOVE_ENTITY: Update entity position (mode=1)
  3: 0x00F3 [0x6F] WAIT_FRAME_DELAY: Yield until WaitTime reaches zero
  4: 0x00F4 [0x00] END_REQSTACK()
```

### Event 65535.11

#### Metadata

| Field        | Value    |
|--------------|----------|
| Entrypoint   | 0x00F5   |
| Data Size    | 15 bytes |
| Instructions | 5        |

```
      00 01 02 03 04 05 06 07  08 09 0A 0B 0C 0D 0E 0F
      -- -- -- -- -- -- -- --  -- -- -- -- -- -- -- --
00F0:                32 00 80  1F 00 18 80 19 80 03 80       2..........
0100: 1F 01 6F 00                                       ..o.            
```

#### Opcodes

```
  0: 0x00F5 [0x32] ExtData[1]->MainSpeed = 13* * 0.1
  1: 0x00F8 [0x1F] MOVE_ENTITY: EventEntity moves to X=-564.979*, Z=42.475*, Y=1.999*
  2: 0x0100 [0x1F] MOVE_ENTITY: Update entity position (mode=1)
  3: 0x0102 [0x6F] WAIT_FRAME_DELAY: Yield until WaitTime reaches zero
  4: 0x0103 [0x00] END_REQSTACK()
```

### Event 65535.12

#### Metadata

| Field        | Value    |
|--------------|----------|
| Entrypoint   | 0x0104   |
| Data Size    | 10 bytes |
| Instructions | 2        |

```
      00 01 02 03 04 05 06 07  08 09 0A 0B 0C 0D 0E 0F
      -- -- -- -- -- -- -- --  -- -- -- -- -- -- -- --
0100:             6C F8 FF FF  7F 11 80 1A 80 00            l.........  
```

#### Opcodes

```
  0: 0x0104 [0x6C] FADE_ENTITY_COLOR(entity_id=EventEntity, end_alpha=0*, fade_time=60*)
  1: 0x010D [0x00] END_REQSTACK()
```

### Event 65535.13

#### Metadata

| Field        | Value    |
|--------------|----------|
| Entrypoint   | 0x010E   |
| Data Size    | 10 bytes |
| Instructions | 2        |

```
      00 01 02 03 04 05 06 07  08 09 0A 0B 0C 0D 0E 0F
      -- -- -- -- -- -- -- --  -- -- -- -- -- -- -- --
0100:                                            6C F8                l.
0110: FF FF 7F 1B 80 1A 80 00                           ........        
```

#### Opcodes

```
  0: 0x010E [0x6C] FADE_ENTITY_COLOR(entity_id=EventEntity, end_alpha=128*, fade_time=60*)
  1: 0x0117 [0x00] END_REQSTACK()
```

### Event 5086

#### Metadata

| Field        | Value   |
|--------------|---------|
| Entrypoint   | 0x0118  |
| Data Size    | 1 bytes |
| Instructions | 1       |

```
      00 01 02 03 04 05 06 07  08 09 0A 0B 0C 0D 0E 0F
      -- -- -- -- -- -- -- --  -- -- -- -- -- -- -- --
0110:                          00                               .       
```

#### Opcodes

```
  0: 0x0118 [0x00] END_REQSTACK()
```
