# 16982214 - Amnaf

## Common Data

| Field            | Value                          |
|------------------|--------------------------------|
| Zone             | Aht Urhgan Whitegate2 (ID: 50) |
| Block Size       | 1136 bytes                     |
| Total Events     | 45                             |
| References Count | 66                             |

## List of Events

| Event ID                   | Entrypoint   |   Size |   Instructions |
|----------------------------|--------------|--------|----------------|
| [65535](#event-65535)      | 0x0000       |      1 |              1 |
| [65535.1](#event-655351)   | 0x0001       |      1 |              1 |
| [65535.2](#event-655352)   | 0x0002       |     18 |              4 |
| [65535.3](#event-655353)   | 0x0014       |     10 |              2 |
| [65535.4](#event-655354)   | 0x001E       |      9 |              3 |
| [65535.5](#event-655355)   | 0x0027       |      9 |              3 |
| [65535.6](#event-655356)   | 0x0030       |     10 |              2 |
| [65535.7](#event-655357)   | 0x003A       |     10 |              2 |
| [65535.8](#event-655358)   | 0x0044       |     10 |              2 |
| [3027](#event-3027)        | 0x004E       |      1 |              1 |
| [3034](#event-3034)        | 0x004F       |      1 |              1 |
| [3052](#event-3052)        | 0x0050       |      1 |              1 |
| [65535.9](#event-655359)   | 0x0051       |     10 |              2 |
| [722](#event-722)          | 0x005B       |      1 |              1 |
| [65535.10](#event-6553510) | 0x005C       |     10 |              2 |
| [65535.11](#event-6553511) | 0x0066       |     10 |              2 |
| [3070](#event-3070)        | 0x0070       |      1 |              1 |
| [65535.12](#event-6553512) | 0x0071       |     10 |              2 |
| [3078](#event-3078)        | 0x007B       |      1 |              1 |
| [65535.13](#event-6553513) | 0x007C       |     10 |              2 |
| [65535.14](#event-6553514) | 0x0086       |     37 |              5 |
| [65535.15](#event-6553515) | 0x00AB       |    185 |             37 |
| [65535.16](#event-6553516) | 0x0164       |     10 |              2 |
| [65535.17](#event-6553517) | 0x016E       |     10 |              2 |
| [65535.18](#event-6553518) | 0x0178       |     31 |              9 |
| [65535.19](#event-6553519) | 0x0197       |     25 |              9 |
| [65535.20](#event-6553520) | 0x01B0       |     15 |              5 |
| [3090](#event-3090)        | 0x01BF       |      1 |              1 |
| [3093](#event-3093)        | 0x01C0       |      1 |              1 |
| [65535.21](#event-6553521) | 0x01C1       |     15 |              5 |
| [3112](#event-3112)        | 0x01D0       |      1 |              1 |
| [65535.22](#event-6553522) | 0x01D1       |     14 |              4 |
| [65535.23](#event-6553523) | 0x01DF       |     22 |              6 |
| [3111](#event-3111)        | 0x01F5       |      1 |              1 |
| [65535.24](#event-6553524) | 0x01F6       |     35 |              7 |
| [3131](#event-3131)        | 0x0219       |      1 |              1 |
| [65535.25](#event-6553525) | 0x021A       |     10 |              2 |
| [65535.26](#event-6553526) | 0x0224       |     10 |              2 |
| [3137](#event-3137)        | 0x022E       |      1 |              1 |
| [65535.27](#event-6553527) | 0x022F       |     15 |              5 |
| [65535.28](#event-6553528) | 0x023E       |     26 |              3 |
| [65535.29](#event-6553529) | 0x0258       |     26 |              3 |
| [895](#event-895)          | 0x0272       |      1 |              1 |
| [65535.30](#event-6553530) | 0x0273       |     47 |              9 |
| [934](#event-934)          | 0x02A2       |      1 |              1 |

## DAT References (imed_data)

|   Index | Hex Value   |   Dec Value |
|---------|-------------|-------------|
|       0 | 0x0000      |           0 |
|       1 | 0x0001      |           1 |
|       2 | 0x0080      |         128 |
|       3 | 0xFFFFF198  |  4294963608 |
|       4 | 0xC7C9      |       51145 |
|       5 | 0x0ED8      |        3800 |
|       6 | 0xB081      |       45185 |
|       7 | 0x0800      |        2048 |
|       8 | 0xFFFFFB95  |  4294966165 |
|       9 | 0x1E3C      |        7740 |
|      10 | 0x0C00      |        3072 |
|      11 | 0xFFFFF287  |  4294963847 |
|      12 | 0xFFFF924F  |  4294939215 |
|      13 | 0x644E      |       25678 |
|      14 | 0xFFFF4E18  |  4294921752 |
|      15 | 0xFFFFE184  |  4294959492 |
|      16 | 0x0804      |        2052 |
|      17 | 0x03FC      |        1020 |
|      18 | 0xFFFFF2B8  |  4294963896 |
|      19 | 0x0400      |        1024 |
|      20 | 0x0005      |           5 |
|      21 | 0x0002      |           2 |
|      22 | 0x000A      |          10 |
|      23 | 0x0009      |           9 |
|      24 | 0x0046      |          70 |
|      25 | 0x008C      |         140 |
|      26 | 0x00D2      |         210 |
|      27 | 0xFFFFFD6A  |  4294966634 |
|      28 | 0xB97D      |       47485 |
|      29 | 0x7D73      |       32115 |
|      30 | 0xFFFF4706  |  4294919942 |
|      31 | 0xFFFFE3DD  |  4294960093 |
|      32 | 0x000B      |          11 |
|      33 | 0x7F34      |       32564 |
|      34 | 0xFFFF4EF8  |  4294921976 |
|      35 | 0x0014      |          20 |
|      36 | 0x8473      |       33907 |
|      37 | 0xFFFF47CC  |  4294920140 |
|      38 | 0x000F      |          15 |
|      39 | 0x8489      |       33929 |
|      40 | 0xFFFF3474  |  4294915188 |
|      41 | 0xFFFFE637  |  4294960695 |
|      42 | 0xFFFFFC2D  |  4294966317 |
|      43 | 0x9ACF      |       39631 |
|      44 | 0x000D      |          13 |
|      45 | 0x13CD9     |       81113 |
|      46 | 0x85FA      |       34298 |
|      47 | 0x01E0      |         480 |
|      48 | 0x135FA     |       79354 |
|      49 | 0xC2B3      |       49843 |
|      50 | 0x001E      |          30 |
|      51 | 0xFFFFFDA8  |  4294966696 |
|      52 | 0xB943      |       47427 |
|      53 | 0x0013      |          19 |
|      54 | 0x003C      |          60 |
|      55 | 0x89C6      |       35270 |
|      56 | 0xC763      |       51043 |
|      57 | 0x00A5      |         165 |
|      58 | 0x00AB      |         171 |
|      59 | 0x0177      |         375 |
|      60 | 0xFFFFE883  |  4294961283 |
|      61 | 0x170DE     |       94430 |
|      62 | 0x07CF      |        1999 |
|      63 | 0x0A24      |        2596 |
|      64 | 0xFFFFC562  |  4294952290 |
|      65 | 0x1839D     |       99229 |

## Events

### Event 65535

#### Metadata

| Field        | Value   |
|--------------|---------|
| Entrypoint   | 0x0000  |
| Data Size    | 1 bytes |
| Instructions | 1       |

```
      00 01 02 03 04 05 06 07  08 09 0A 0B 0C 0D 0E 0F
      -- -- -- -- -- -- -- --  -- -- -- -- -- -- -- --
0000: 00                                                .               
```

#### Opcodes

```
  0: 0x0000 [0x00] END_REQSTACK()
```

### Event 65535.1

#### Metadata

| Field        | Value   |
|--------------|---------|
| Entrypoint   | 0x0001  |
| Data Size    | 1 bytes |
| Instructions | 1       |

```
      00 01 02 03 04 05 06 07  08 09 0A 0B 0C 0D 0E 0F
      -- -- -- -- -- -- -- --  -- -- -- -- -- -- -- --
0000:    00                                              .              
```

#### Opcodes

```
  0: 0x0001 [0x00] END_REQSTACK()
```

### Event 65535.2

#### Metadata

| Field        | Value    |
|--------------|----------|
| Entrypoint   | 0x0002   |
| Data Size    | 18 bytes |
| Instructions | 4        |

```
      00 01 02 03 04 05 06 07  08 09 0A 0B 0C 0D 0E 0F
      -- -- -- -- -- -- -- --  -- -- -- -- -- -- -- --
0000:       22 00 2F 00 F8 FF  FF 7F 6C F8 FF FF 7F 00    "./.....l.....
0010: 80 01 80 00                                       ....            
```

#### Opcodes

```
  0: 0x0002 [0x22] ENTITY_HIDE_FLAG(enabled=0x00)
  1: 0x0004 [0x2F] EventEntity->Render.Flags0 &= ~0x80000 // Bit 19
  2: 0x000A [0x6C] FADE_ENTITY_COLOR(entity_id=EventEntity, end_alpha=0*, fade_time=1*)
  3: 0x0013 [0x00] END_REQSTACK()
```

### Event 65535.3

#### Metadata

| Field        | Value    |
|--------------|----------|
| Entrypoint   | 0x0014   |
| Data Size    | 10 bytes |
| Instructions | 2        |

```
      00 01 02 03 04 05 06 07  08 09 0A 0B 0C 0D 0E 0F
      -- -- -- -- -- -- -- --  -- -- -- -- -- -- -- --
0010:             6C F8 FF FF  7F 02 80 01 80 00            l.........  
```

#### Opcodes

```
  0: 0x0014 [0x6C] FADE_ENTITY_COLOR(entity_id=EventEntity, end_alpha=128*, fade_time=1*)
  1: 0x001D [0x00] END_REQSTACK()
```

### Event 65535.4

#### Metadata

| Field        | Value   |
|--------------|---------|
| Entrypoint   | 0x001E  |
| Data Size    | 9 bytes |
| Instructions | 3       |

```
      00 01 02 03 04 05 06 07  08 09 0A 0B 0C 0D 0E 0F
      -- -- -- -- -- -- -- --  -- -- -- -- -- -- -- --
0010:                                            22 00                ".
0020: 2F 00 F8 FF FF 7F 00                              /......         
```

#### Opcodes

```
  0: 0x001E [0x22] ENTITY_HIDE_FLAG(enabled=0x00)
  1: 0x0020 [0x2F] EventEntity->Render.Flags0 &= ~0x80000 // Bit 19
  2: 0x0026 [0x00] END_REQSTACK()
```

### Event 65535.5

#### Metadata

| Field        | Value   |
|--------------|---------|
| Entrypoint   | 0x0027  |
| Data Size    | 9 bytes |
| Instructions | 3       |

```
      00 01 02 03 04 05 06 07  08 09 0A 0B 0C 0D 0E 0F
      -- -- -- -- -- -- -- --  -- -- -- -- -- -- -- --
0020:                      22  01 2F 01 F8 FF FF 7F 00         "./......
```

#### Opcodes

```
  0: 0x0027 [0x22] ENTITY_HIDE_FLAG(enabled=0x01)
  1: 0x0029 [0x2F] EventEntity->Render.Flags0 |= 0x80000 // Bit 19
  2: 0x002F [0x00] END_REQSTACK()
```

### Event 65535.6

#### Metadata

| Field        | Value    |
|--------------|----------|
| Entrypoint   | 0x0030   |
| Data Size    | 10 bytes |
| Instructions | 2        |

```
      00 01 02 03 04 05 06 07  08 09 0A 0B 0C 0D 0E 0F
      -- -- -- -- -- -- -- --  -- -- -- -- -- -- -- --
0030: 6C F8 FF FF 7F 00 80 01  80 00                    l.........      
```

#### Opcodes

```
  0: 0x0030 [0x6C] FADE_ENTITY_COLOR(entity_id=EventEntity, end_alpha=0*, fade_time=1*)
  1: 0x0039 [0x00] END_REQSTACK()
```

### Event 65535.7

#### Metadata

| Field        | Value    |
|--------------|----------|
| Entrypoint   | 0x003A   |
| Data Size    | 10 bytes |
| Instructions | 2        |

```
      00 01 02 03 04 05 06 07  08 09 0A 0B 0C 0D 0E 0F
      -- -- -- -- -- -- -- --  -- -- -- -- -- -- -- --
0030:                                6C F8 FF FF 7F 02            l.....
0040: 80 01 80 00                                       ....            
```

#### Opcodes

```
  0: 0x003A [0x6C] FADE_ENTITY_COLOR(entity_id=EventEntity, end_alpha=128*, fade_time=1*)
  1: 0x0043 [0x00] END_REQSTACK()
```

### Event 65535.8

#### Metadata

| Field        | Value    |
|--------------|----------|
| Entrypoint   | 0x0044   |
| Data Size    | 10 bytes |
| Instructions | 2        |

```
      00 01 02 03 04 05 06 07  08 09 0A 0B 0C 0D 0E 0F
      -- -- -- -- -- -- -- --  -- -- -- -- -- -- -- --
0040:             37 03 80 04  80 00 80 00 80 00            7.........  
```

#### Opcodes

```
  0: 0x0044 [0x37] UPDATE_EVENT_POSITION_AND_DIR: x=-3.688*, z=51.145*, y=0.000*, direction=0.0°*
  1: 0x004D [0x00] END_REQSTACK()
```

### Event 3027

#### Metadata

| Field        | Value   |
|--------------|---------|
| Entrypoint   | 0x004E  |
| Data Size    | 1 bytes |
| Instructions | 1       |

```
      00 01 02 03 04 05 06 07  08 09 0A 0B 0C 0D 0E 0F
      -- -- -- -- -- -- -- --  -- -- -- -- -- -- -- --
0040:                                            00                   . 
```

#### Opcodes

```
  0: 0x004E [0x00] END_REQSTACK()
```

### Event 3034

#### Metadata

| Field        | Value   |
|--------------|---------|
| Entrypoint   | 0x004F  |
| Data Size    | 1 bytes |
| Instructions | 1       |

```
      00 01 02 03 04 05 06 07  08 09 0A 0B 0C 0D 0E 0F
      -- -- -- -- -- -- -- --  -- -- -- -- -- -- -- --
0040:                                               00                 .
```

#### Opcodes

```
  0: 0x004F [0x00] END_REQSTACK()
```

### Event 3052

#### Metadata

| Field        | Value   |
|--------------|---------|
| Entrypoint   | 0x0050  |
| Data Size    | 1 bytes |
| Instructions | 1       |

```
      00 01 02 03 04 05 06 07  08 09 0A 0B 0C 0D 0E 0F
      -- -- -- -- -- -- -- --  -- -- -- -- -- -- -- --
0050: 00                                                .               
```

#### Opcodes

```
  0: 0x0050 [0x00] END_REQSTACK()
```

### Event 65535.9

#### Metadata

| Field        | Value    |
|--------------|----------|
| Entrypoint   | 0x0051   |
| Data Size    | 10 bytes |
| Instructions | 2        |

```
      00 01 02 03 04 05 06 07  08 09 0A 0B 0C 0D 0E 0F
      -- -- -- -- -- -- -- --  -- -- -- -- -- -- -- --
0050:    37 05 80 06 80 00 80  07 80 00                  7.........     
```

#### Opcodes

```
  0: 0x0051 [0x37] UPDATE_EVENT_POSITION_AND_DIR: x=3.800*, z=45.185*, y=0.000*, direction=180.0°*
  1: 0x005A [0x00] END_REQSTACK()
```

### Event 722

#### Metadata

| Field        | Value   |
|--------------|---------|
| Entrypoint   | 0x005B  |
| Data Size    | 1 bytes |
| Instructions | 1       |

```
      00 01 02 03 04 05 06 07  08 09 0A 0B 0C 0D 0E 0F
      -- -- -- -- -- -- -- --  -- -- -- -- -- -- -- --
0050:                                   00                         .    
```

#### Opcodes

```
  0: 0x005B [0x00] END_REQSTACK()
```

### Event 65535.10

#### Metadata

| Field        | Value    |
|--------------|----------|
| Entrypoint   | 0x005C   |
| Data Size    | 10 bytes |
| Instructions | 2        |

```
      00 01 02 03 04 05 06 07  08 09 0A 0B 0C 0D 0E 0F
      -- -- -- -- -- -- -- --  -- -- -- -- -- -- -- --
0050:                                      37 08 80 09              7...
0060: 80 00 80 0A 80 00                                 ......          
```

#### Opcodes

```
  0: 0x005C [0x37] UPDATE_EVENT_POSITION_AND_DIR: x=-1.131*, z=7.740*, y=0.000*, direction=270.0°*
  1: 0x0065 [0x00] END_REQSTACK()
```

### Event 65535.11

#### Metadata

| Field        | Value    |
|--------------|----------|
| Entrypoint   | 0x0066   |
| Data Size    | 10 bytes |
| Instructions | 2        |

```
      00 01 02 03 04 05 06 07  08 09 0A 0B 0C 0D 0E 0F
      -- -- -- -- -- -- -- --  -- -- -- -- -- -- -- --
0060:                   37 0B  80 0C 80 00 80 00 80 00        7.........
```

#### Opcodes

```
  0: 0x0066 [0x37] UPDATE_EVENT_POSITION_AND_DIR: x=-3.449*, z=-28.081*, y=0.000*, direction=0.0°*
  1: 0x006F [0x00] END_REQSTACK()
```

### Event 3070

#### Metadata

| Field        | Value   |
|--------------|---------|
| Entrypoint   | 0x0070  |
| Data Size    | 1 bytes |
| Instructions | 1       |

```
      00 01 02 03 04 05 06 07  08 09 0A 0B 0C 0D 0E 0F
      -- -- -- -- -- -- -- --  -- -- -- -- -- -- -- --
0070: 00                                                .               
```

#### Opcodes

```
  0: 0x0070 [0x00] END_REQSTACK()
```

### Event 65535.12

#### Metadata

| Field        | Value    |
|--------------|----------|
| Entrypoint   | 0x0071   |
| Data Size    | 10 bytes |
| Instructions | 2        |

```
      00 01 02 03 04 05 06 07  08 09 0A 0B 0C 0D 0E 0F
      -- -- -- -- -- -- -- --  -- -- -- -- -- -- -- --
0070:    37 0D 80 0E 80 0F 80  10 80 00                  7.........     
```

#### Opcodes

```
  0: 0x0071 [0x37] UPDATE_EVENT_POSITION_AND_DIR: x=25.678*, z=-45.544*, y=-7.804*, direction=180.3°*
  1: 0x007A [0x00] END_REQSTACK()
```

### Event 3078

#### Metadata

| Field        | Value   |
|--------------|---------|
| Entrypoint   | 0x007B  |
| Data Size    | 1 bytes |
| Instructions | 1       |

```
      00 01 02 03 04 05 06 07  08 09 0A 0B 0C 0D 0E 0F
      -- -- -- -- -- -- -- --  -- -- -- -- -- -- -- --
0070:                                   00                         .    
```

#### Opcodes

```
  0: 0x007B [0x00] END_REQSTACK()
```

### Event 65535.13

#### Metadata

| Field        | Value    |
|--------------|----------|
| Entrypoint   | 0x007C   |
| Data Size    | 10 bytes |
| Instructions | 2        |

```
      00 01 02 03 04 05 06 07  08 09 0A 0B 0C 0D 0E 0F
      -- -- -- -- -- -- -- --  -- -- -- -- -- -- -- --
0070:                                      37 11 80 12              7...
0080: 80 00 80 13 80 00                                 ......          
```

#### Opcodes

```
  0: 0x007C [0x37] UPDATE_EVENT_POSITION_AND_DIR: x=1.020*, z=-3.400*, y=0.000*, direction=90.0°*
  1: 0x0085 [0x00] END_REQSTACK()
```

### Event 65535.14

#### Metadata

| Field        | Value    |
|--------------|----------|
| Entrypoint   | 0x0086   |
| Data Size    | 37 bytes |
| Instructions | 5        |

```
      00 01 02 03 04 05 06 07  08 09 0A 0B 0C 0D 0E 0F
      -- -- -- -- -- -- -- --  -- -- -- -- -- -- -- --
0080:                   03 00  00 07 7F 1A D0 00 66 01        ........f.
0090: 00 F8 FF FF 7F F8 FF FF  7F 73 68 61 30 53 F8 FF  .........sha0S..
00A0: FF 7F F8 FF FF 7F 73 68  61 30 00                 ......sha0.     
```

#### Opcodes

```
  0: 0x0086 [0x03] ExtData[1]->WorkLocal[0] = Entity->Race
  1: 0x008B [0x1A] CALL_SUBROUTINE(address=0x00D0)
  2: 0x008E [0x66] LOAD_EXT_SCHEDULER_MAIN: Load scheduler "sha0" with entities [EventEntity, EventEntity], work=ExtData[1]->WorkLocal[1]
  3: 0x009D [0x53] WAIT_SCHEDULER_TASK: Wait for scheduler "sha0" with entities [EventEntity, EventEntity]
  4: 0x00AA [0x00] END_REQSTACK()
```

### Event 65535.15

#### Metadata

| Field        | Value     |
|--------------|-----------|
| Entrypoint   | 0x00AB    |
| Data Size    | 185 bytes |
| Instructions | 13        |

```
      00 01 02 03 04 05 06 07  08 09 0A 0B 0C 0D 0E 0F
      -- -- -- -- -- -- -- --  -- -- -- -- -- -- -- --
00A0:                                   03 00 00 07 7F             .....
00B0: 1A D0 00 66 01 00 F8 FF  FF 7F F8 FF FF 7F 73 68  ...f..........sh
00C0: 61 31 53 F8 FF FF 7F F8  FF FF 7F 73 68 61 31 00  a1S........sha1.
00D0: 03 01 00 00 00 02 01 00  14 80 05 E5 00 08 01 00  ................
00E0: 01 80 01 EA 00 08 01 00  15 80 14 01 00 16 80 07  ................
00F0: 01 00 17 80 1B 03 01 00  00 00 02 01 00 14 80 05  ................
0100: 0A 01 08 01 00 01 80 01  0F 01 08 01 00 15 80 14  ................
0110: 01 00 16 80 07 01 00 18  80 1B 03 01 00 00 00 02  ................
0120: 01 00 14 80 05 2F 01 08  01 00 01 80 01 34 01 08  ...../.......4..
0130: 01 00 15 80 14 01 00 16  80 07 01 00 19 80 1B 03  ................
0140: 01 00 00 00 02 01 00 14  80 05 54 01 08 01 00 01  ..........T.....
0150: 80 01 59 01 08 01 00 15  80 14 01 00 16 80 07 01  ..Y.............
0160: 00 1A 80 1B                                       ....            
```

#### Opcodes

```
  0: 0x00AB [0x03] ExtData[1]->WorkLocal[0] = Entity->Race
  1: 0x00B0 [0x1A] CALL_SUBROUTINE(address=0x00D0)
  2: 0x00B3 [0x66] LOAD_EXT_SCHEDULER_MAIN: Load scheduler "sha1" with entities [EventEntity, EventEntity], work=ExtData[1]->WorkLocal[1]
  3: 0x00C2 [0x53] WAIT_SCHEDULER_TASK: Wait for scheduler "sha1" with entities [EventEntity, EventEntity]
  4: 0x00CF [0x00] END_REQSTACK()

SUBROUTINE_00D0:
  5: 0x00D0 [0x03] ExtData[1]->WorkLocal[1] = ExtData[1]->WorkLocal[0]
  6: 0x00D5 [0x02] IF !(ExtData[1]->WorkLocal[1] > 5*) GOTO 0x00E5
  7: 0x00DD [0x08] ExtData[1]->WorkLocal[1] -= 1*
  8: 0x00E2 [0x01] GOTO 0x00EA
  9: 0x00E5 [0x08] ExtData[1]->WorkLocal[1] -= 2*

SUBROUTINE_00EA:
 10: 0x00EA [0x14] ExtData[1]->WorkLocal[1] *= 10*
 11: 0x00EF [0x07] ExtData[1]->WorkLocal[1] += 9*
 12: 0x00F4 [0x1B] RETURN
```

#### Data or dead code:

```
# Dead code (unreachable instructions):
     0x00F5 [0x03] ExtData[1]->WorkLocal[1] = ExtData[1]->WorkLocal[0]
     0x00FA [0x02] IF !(ExtData[1]->WorkLocal[1] > 5*) GOTO 0x010A
     0x0102 [0x08] ExtData[1]->WorkLocal[1] -= 1*
     0x0107 [0x01] GOTO 0x010F
     0x010A [0x08] ExtData[1]->WorkLocal[1] -= 2*
     0x010F [0x14] ExtData[1]->WorkLocal[1] *= 10*
     0x0114 [0x07] ExtData[1]->WorkLocal[1] += 70*
     0x0119 [0x1B] RETURN
     0x011A [0x03] ExtData[1]->WorkLocal[1] = ExtData[1]->WorkLocal[0]
     0x011F [0x02] IF !(ExtData[1]->WorkLocal[1] > 5*) GOTO 0x012F
     0x0127 [0x08] ExtData[1]->WorkLocal[1] -= 1*
     0x012C [0x01] GOTO 0x0134
     0x012F [0x08] ExtData[1]->WorkLocal[1] -= 2*
     0x0134 [0x14] ExtData[1]->WorkLocal[1] *= 10*
     0x0139 [0x07] ExtData[1]->WorkLocal[1] += 140*
     0x013E [0x1B] RETURN
     0x013F [0x03] ExtData[1]->WorkLocal[1] = ExtData[1]->WorkLocal[0]
     0x0144 [0x02] IF !(ExtData[1]->WorkLocal[1] > 5*) GOTO 0x0154
     0x014C [0x08] ExtData[1]->WorkLocal[1] -= 1*
     0x0151 [0x01] GOTO 0x0159
     0x0154 [0x08] ExtData[1]->WorkLocal[1] -= 2*
     0x0159 [0x14] ExtData[1]->WorkLocal[1] *= 10*
     0x015E [0x07] ExtData[1]->WorkLocal[1] += 210*
     0x0163 [0x1B] RETURN
```

### Event 65535.16

#### Metadata

| Field        | Value    |
|--------------|----------|
| Entrypoint   | 0x0164   |
| Data Size    | 10 bytes |
| Instructions | 2        |

```
      00 01 02 03 04 05 06 07  08 09 0A 0B 0C 0D 0E 0F
      -- -- -- -- -- -- -- --  -- -- -- -- -- -- -- --
0160:             37 1B 80 1C  80 00 80 0A 80 00            7.........  
```

#### Opcodes

```
  0: 0x0164 [0x37] UPDATE_EVENT_POSITION_AND_DIR: x=-0.662*, z=47.485*, y=0.000*, direction=270.0°*
  1: 0x016D [0x00] END_REQSTACK()
```

### Event 65535.17

#### Metadata

| Field        | Value    |
|--------------|----------|
| Entrypoint   | 0x016E   |
| Data Size    | 10 bytes |
| Instructions | 2        |

```
      00 01 02 03 04 05 06 07  08 09 0A 0B 0C 0D 0E 0F
      -- -- -- -- -- -- -- --  -- -- -- -- -- -- -- --
0160:                                            37 1D                7.
0170: 80 1E 80 1F 80 00 80 00                           ........        
```

#### Opcodes

```
  0: 0x016E [0x37] UPDATE_EVENT_POSITION_AND_DIR: x=32.115*, z=-47.354*, y=-7.203*, direction=0.0°*
  1: 0x0177 [0x00] END_REQSTACK()
```

### Event 65535.18

#### Metadata

| Field        | Value    |
|--------------|----------|
| Entrypoint   | 0x0178   |
| Data Size    | 31 bytes |
| Instructions | 9        |

```
      00 01 02 03 04 05 06 07  08 09 0A 0B 0C 0D 0E 0F
      -- -- -- -- -- -- -- --  -- -- -- -- -- -- -- --
0170:                          32 20 80 1F 00 21 80 22          2 ...!."
0180: 80 1F 80 1F 01 6F 1C 23  80 4B F8 FF FF 7F 00 80  .....o.#.K......
0190: 6F 76 F8 FF FF 7F 00                              ov.....         
```

#### Opcodes

```
  0: 0x0178 [0x32] ExtData[1]->MainSpeed = 11* * 0.1
  1: 0x017B [0x1F] MOVE_ENTITY: EventEntity moves to X=32.564*, Z=-45.320*, Y=-7.203*
  2: 0x0183 [0x1F] MOVE_ENTITY: Update entity position (mode=1)
  3: 0x0185 [0x6F] WAIT_FRAME_DELAY: Yield until WaitTime reaches zero
  4: 0x0186 [0x1C] WAIT(20* ticks)
  5: 0x0189 [0x4B] UPDATE_ENTITY_YAW(entity=EventEntity, yaw=0.0°*)
  6: 0x0190 [0x6F] WAIT_FRAME_DELAY: Yield until WaitTime reaches zero
  7: 0x0191 [0x76] CHECK_ENTITY_RENDER_FLAGS: Wait until EventEntity Render.Flags0 and Render.Flags3 conditions are met
  8: 0x0196 [0x00] END_REQSTACK()
```

### Event 65535.19

#### Metadata

| Field        | Value    |
|--------------|----------|
| Entrypoint   | 0x0197   |
| Data Size    | 25 bytes |
| Instructions | 9        |

```
      00 01 02 03 04 05 06 07  08 09 0A 0B 0C 0D 0E 0F
      -- -- -- -- -- -- -- --  -- -- -- -- -- -- -- --
0190:                      32  20 80 1F 00 24 80 25 80         2 ...$.%.
01A0: 1F 80 1F 01 6F 1C 26 80  1E 8C 20 03 01 6F 70 00  ....o.&... ..op.
```

#### Opcodes

```
  0: 0x0197 [0x32] ExtData[1]->MainSpeed = 11* * 0.1
  1: 0x019A [0x1F] MOVE_ENTITY: EventEntity moves to X=33.907*, Z=-47.156*, Y=-7.203*
  2: 0x01A2 [0x1F] MOVE_ENTITY: Update entity position (mode=1)
  3: 0x01A4 [0x6F] WAIT_FRAME_DELAY: Yield until WaitTime reaches zero
  4: 0x01A5 [0x1C] WAIT(15* ticks)
  5: 0x01A8 [0x1E] EventEntity looks at Naja Salaheem (ID: 16982156/0x0103208C) and starts talking
  6: 0x01AD [0x6F] WAIT_FRAME_DELAY: Yield until WaitTime reaches zero
  7: 0x01AE [0x70] WAIT_ENTITY_RENDER_FLAG: Wait while EventEntity->Render.Flags3 bit 2 is set (cancel turn if not)
  8: 0x01AF [0x00] END_REQSTACK()
```

### Event 65535.20

#### Metadata

| Field        | Value    |
|--------------|----------|
| Entrypoint   | 0x01B0   |
| Data Size    | 15 bytes |
| Instructions | 5        |

```
      00 01 02 03 04 05 06 07  08 09 0A 0B 0C 0D 0E 0F
      -- -- -- -- -- -- -- --  -- -- -- -- -- -- -- --
01B0: 32 20 80 1F 00 27 80 28  80 29 80 1F 01 6F 00     2 ...'.(.)...o. 
```

#### Opcodes

```
  0: 0x01B0 [0x32] ExtData[1]->MainSpeed = 11* * 0.1
  1: 0x01B3 [0x1F] MOVE_ENTITY: EventEntity moves to X=33.929*, Z=-52.108*, Y=-6.601*
  2: 0x01BB [0x1F] MOVE_ENTITY: Update entity position (mode=1)
  3: 0x01BD [0x6F] WAIT_FRAME_DELAY: Yield until WaitTime reaches zero
  4: 0x01BE [0x00] END_REQSTACK()
```

### Event 3090

#### Metadata

| Field        | Value   |
|--------------|---------|
| Entrypoint   | 0x01BF  |
| Data Size    | 1 bytes |
| Instructions | 1       |

```
      00 01 02 03 04 05 06 07  08 09 0A 0B 0C 0D 0E 0F
      -- -- -- -- -- -- -- --  -- -- -- -- -- -- -- --
01B0:                                               00                 .
```

#### Opcodes

```
  0: 0x01BF [0x00] END_REQSTACK()
```

### Event 3093

#### Metadata

| Field        | Value   |
|--------------|---------|
| Entrypoint   | 0x01C0  |
| Data Size    | 1 bytes |
| Instructions | 1       |

```
      00 01 02 03 04 05 06 07  08 09 0A 0B 0C 0D 0E 0F
      -- -- -- -- -- -- -- --  -- -- -- -- -- -- -- --
01C0: 00                                                .               
```

#### Opcodes

```
  0: 0x01C0 [0x00] END_REQSTACK()
```

### Event 65535.21

#### Metadata

| Field        | Value    |
|--------------|----------|
| Entrypoint   | 0x01C1   |
| Data Size    | 15 bytes |
| Instructions | 5        |

```
      00 01 02 03 04 05 06 07  08 09 0A 0B 0C 0D 0E 0F
      -- -- -- -- -- -- -- --  -- -- -- -- -- -- -- --
01C0:    32 20 80 1F 00 2A 80  2B 80 00 80 1F 01 6F 00   2 ...*.+.....o.
```

#### Opcodes

```
  0: 0x01C1 [0x32] ExtData[1]->MainSpeed = 11* * 0.1
  1: 0x01C4 [0x1F] MOVE_ENTITY: EventEntity moves to X=-0.979*, Z=39.631*, Y=0.000*
  2: 0x01CC [0x1F] MOVE_ENTITY: Update entity position (mode=1)
  3: 0x01CE [0x6F] WAIT_FRAME_DELAY: Yield until WaitTime reaches zero
  4: 0x01CF [0x00] END_REQSTACK()
```

### Event 3112

#### Metadata

| Field        | Value   |
|--------------|---------|
| Entrypoint   | 0x01D0  |
| Data Size    | 1 bytes |
| Instructions | 1       |

```
      00 01 02 03 04 05 06 07  08 09 0A 0B 0C 0D 0E 0F
      -- -- -- -- -- -- -- --  -- -- -- -- -- -- -- --
01D0: 00                                                .               
```

#### Opcodes

```
  0: 0x01D0 [0x00] END_REQSTACK()
```

### Event 65535.22

#### Metadata

| Field        | Value    |
|--------------|----------|
| Entrypoint   | 0x01D1   |
| Data Size    | 14 bytes |
| Instructions | 4        |

```
      00 01 02 03 04 05 06 07  08 09 0A 0B 0C 0D 0E 0F
      -- -- -- -- -- -- -- --  -- -- -- -- -- -- -- --
01D0:    32 2C 80 5A 00 2D 80  2E 80 2F 80 5A 01 00      2,.Z.-.../.Z.. 
```

#### Opcodes

```
  0: 0x01D1 [0x32] ExtData[1]->MainSpeed = 13* * 0.1
  1: 0x01D4 [0x5A] UPDATE_EVENT_POSITION: Set EventEntity MovePosition to X=81.113*, Z=34.298*, Y=0.480*
  2: 0x01DC [0x5A] UPDATE_EVENT_POSITION: Move EventEntity incrementally towards MovePosition
  3: 0x01DE [0x00] END_REQSTACK()
```

### Event 65535.23

#### Metadata

| Field        | Value    |
|--------------|----------|
| Entrypoint   | 0x01DF   |
| Data Size    | 22 bytes |
| Instructions | 6        |

```
      00 01 02 03 04 05 06 07  08 09 0A 0B 0C 0D 0E 0F
      -- -- -- -- -- -- -- --  -- -- -- -- -- -- -- --
01D0:                                               32                 2
01E0: 2C 80 1F 00 30 80 31 80  2F 80 1F 01 1E CA 20 03  ,...0.1./..... .
01F0: 01 1C 32 80 00                                    ..2..           
```

#### Opcodes

```
  0: 0x01DF [0x32] ExtData[1]->MainSpeed = 13* * 0.1
  1: 0x01E2 [0x1F] MOVE_ENTITY: EventEntity moves to X=79.354*, Z=49.843*, Y=0.480*
  2: 0x01EA [0x1F] MOVE_ENTITY: Update entity position (mode=1)
  3: 0x01EC [0x1E] EventEntity looks at Aphmau (ID: 16982218/0x010320CA) and starts talking
  4: 0x01F1 [0x1C] WAIT(30* ticks)
  5: 0x01F4 [0x00] END_REQSTACK()
```

### Event 3111

#### Metadata

| Field        | Value   |
|--------------|---------|
| Entrypoint   | 0x01F5  |
| Data Size    | 1 bytes |
| Instructions | 1       |

```
      00 01 02 03 04 05 06 07  08 09 0A 0B 0C 0D 0E 0F
      -- -- -- -- -- -- -- --  -- -- -- -- -- -- -- --
01F0:                00                                      .          
```

#### Opcodes

```
  0: 0x01F5 [0x00] END_REQSTACK()
```

### Event 65535.24

#### Metadata

| Field        | Value    |
|--------------|----------|
| Entrypoint   | 0x01F6   |
| Data Size    | 35 bytes |
| Instructions | 7        |

```
      00 01 02 03 04 05 06 07  08 09 0A 0B 0C 0D 0E 0F
      -- -- -- -- -- -- -- --  -- -- -- -- -- -- -- --
01F0:                   32 2C  80 1F 00 33 80 34 80 00        2,...3.4..
0200: 80 1F 01 6F 1E F0 FF FF  7F 66 35 80 C6 20 03 01  ...o.....f5.. ..
0210: C6 20 03 01 61 6F 30 30  00                       . ..ao00.       
```

#### Opcodes

```
  0: 0x01F6 [0x32] ExtData[1]->MainSpeed = 13* * 0.1
  1: 0x01F9 [0x1F] MOVE_ENTITY: EventEntity moves to X=-0.600*, Z=47.427*, Y=0.000*
  2: 0x0201 [0x1F] MOVE_ENTITY: Update entity position (mode=1)
  3: 0x0203 [0x6F] WAIT_FRAME_DELAY: Yield until WaitTime reaches zero
  4: 0x0204 [0x1E] EventEntity looks at LocalPlayer and starts talking
  5: 0x0209 [0x66] LOAD_EXT_SCHEDULER_MAIN: Load scheduler "ao00" with entities [Amnaf (ID: 16982214/0x010320C6), Amnaf (ID: 16982214/0x010320C6)], work=19*
  6: 0x0218 [0x00] END_REQSTACK()
```

### Event 3131

#### Metadata

| Field        | Value   |
|--------------|---------|
| Entrypoint   | 0x0219  |
| Data Size    | 1 bytes |
| Instructions | 1       |

```
      00 01 02 03 04 05 06 07  08 09 0A 0B 0C 0D 0E 0F
      -- -- -- -- -- -- -- --  -- -- -- -- -- -- -- --
0210:                             00                             .      
```

#### Opcodes

```
  0: 0x0219 [0x00] END_REQSTACK()
```

### Event 65535.25

#### Metadata

| Field        | Value    |
|--------------|----------|
| Entrypoint   | 0x021A   |
| Data Size    | 10 bytes |
| Instructions | 2        |

```
      00 01 02 03 04 05 06 07  08 09 0A 0B 0C 0D 0E 0F
      -- -- -- -- -- -- -- --  -- -- -- -- -- -- -- --
0210:                                6C C6 20 03 01 02            l. ...
0220: 80 36 80 00                                       .6..            
```

#### Opcodes

```
  0: 0x021A [0x6C] FADE_ENTITY_COLOR(entity_id=Amnaf (ID: 16982214/0x010320C6), end_alpha=128*, fade_time=60*)
  1: 0x0223 [0x00] END_REQSTACK()
```

### Event 65535.26

#### Metadata

| Field        | Value    |
|--------------|----------|
| Entrypoint   | 0x0224   |
| Data Size    | 10 bytes |
| Instructions | 2        |

```
      00 01 02 03 04 05 06 07  08 09 0A 0B 0C 0D 0E 0F
      -- -- -- -- -- -- -- --  -- -- -- -- -- -- -- --
0220:             6C C6 20 03  01 00 80 36 80 00            l. ....6..  
```

#### Opcodes

```
  0: 0x0224 [0x6C] FADE_ENTITY_COLOR(entity_id=Amnaf (ID: 16982214/0x010320C6), end_alpha=0*, fade_time=60*)
  1: 0x022D [0x00] END_REQSTACK()
```

### Event 3137

#### Metadata

| Field        | Value   |
|--------------|---------|
| Entrypoint   | 0x022E  |
| Data Size    | 1 bytes |
| Instructions | 1       |

```
      00 01 02 03 04 05 06 07  08 09 0A 0B 0C 0D 0E 0F
      -- -- -- -- -- -- -- --  -- -- -- -- -- -- -- --
0220:                                            00                   . 
```

#### Opcodes

```
  0: 0x022E [0x00] END_REQSTACK()
```

### Event 65535.27

#### Metadata

| Field        | Value    |
|--------------|----------|
| Entrypoint   | 0x022F   |
| Data Size    | 15 bytes |
| Instructions | 5        |

```
      00 01 02 03 04 05 06 07  08 09 0A 0B 0C 0D 0E 0F
      -- -- -- -- -- -- -- --  -- -- -- -- -- -- -- --
0220:                                               32                 2
0230: 20 80 1F 00 37 80 38 80  0F 80 1F 01 6F 00         ...7.8.....o.  
```

#### Opcodes

```
  0: 0x022F [0x32] ExtData[1]->MainSpeed = 11* * 0.1
  1: 0x0232 [0x1F] MOVE_ENTITY: EventEntity moves to X=35.270*, Z=51.043*, Y=-7.804*
  2: 0x023A [0x1F] MOVE_ENTITY: Update entity position (mode=1)
  3: 0x023C [0x6F] WAIT_FRAME_DELAY: Yield until WaitTime reaches zero
  4: 0x023D [0x00] END_REQSTACK()
```

### Event 65535.28

#### Metadata

| Field        | Value    |
|--------------|----------|
| Entrypoint   | 0x023E   |
| Data Size    | 26 bytes |
| Instructions | 3        |

```
      00 01 02 03 04 05 06 07  08 09 0A 0B 0C 0D 0E 0F
      -- -- -- -- -- -- -- --  -- -- -- -- -- -- -- --
0230:                                            B6 0B                ..
0240: 15 80 16 80 39 80 39 80  3A 80 39 80 3A 80 3B 80  ....9.9.:.9.:.;.
0250: 00 80 80 F8 FF FF 7F 00                           ........        
```

#### Opcodes

```
  0: 0x023E [0xB6] ENTITY_APPEARANCE_HANDLER(case=Full entity look, race=2*, hair=10*, head=165*, body=165*, hands=171*, legs=165*, feet=171*, main=375*, sub=0*)
  1: 0x0252 [0x80] LOAD_WAIT(entity=EventEntity)
  2: 0x0257 [0x00] END_REQSTACK()
```

### Event 65535.29

#### Metadata

| Field        | Value    |
|--------------|----------|
| Entrypoint   | 0x0258   |
| Data Size    | 26 bytes |
| Instructions | 3        |

```
      00 01 02 03 04 05 06 07  08 09 0A 0B 0C 0D 0E 0F
      -- -- -- -- -- -- -- --  -- -- -- -- -- -- -- --
0250:                          B6 0B 15 80 20 80 39 80          .... .9.
0260: 39 80 3A 80 39 80 3A 80  3B 80 00 80 80 F8 FF FF  9.:.9.:.;.......
0270: 7F 00                                             ..              
```

#### Opcodes

```
  0: 0x0258 [0xB6] ENTITY_APPEARANCE_HANDLER(case=Full entity look, race=2*, hair=11*, head=165*, body=165*, hands=171*, legs=165*, feet=171*, main=375*, sub=0*)
  1: 0x026C [0x80] LOAD_WAIT(entity=EventEntity)
  2: 0x0271 [0x00] END_REQSTACK()
```

### Event 895

#### Metadata

| Field        | Value   |
|--------------|---------|
| Entrypoint   | 0x0272  |
| Data Size    | 1 bytes |
| Instructions | 1       |

```
      00 01 02 03 04 05 06 07  08 09 0A 0B 0C 0D 0E 0F
      -- -- -- -- -- -- -- --  -- -- -- -- -- -- -- --
0270:       00                                            .             
```

#### Opcodes

```
  0: 0x0272 [0x00] END_REQSTACK()
```

### Event 65535.30

#### Metadata

| Field        | Value    |
|--------------|----------|
| Entrypoint   | 0x0273   |
| Data Size    | 47 bytes |
| Instructions | 9        |

```
      00 01 02 03 04 05 06 07  08 09 0A 0B 0C 0D 0E 0F
      -- -- -- -- -- -- -- --  -- -- -- -- -- -- -- --
0270:          37 3C 80 3D 80  3E 80 3F 80 1E 5F 21 03     7<.=.>.?.._!.
0280: 01 32 20 80 1F 00 40 80  41 80 3E 80 1F 01 6F 1C  .2 ...@.A.>...o.
0290: 14 80 66 35 80 C6 20 03  01 C6 20 03 01 61 6F 30  ..f5.. ... ..ao0
02A0: 30 00                                             0.              
```

#### Opcodes

```
  0: 0x0273 [0x37] UPDATE_EVENT_POSITION_AND_DIR: x=-6.013*, z=94.430*, y=1.999*, direction=228.2°*
  1: 0x027C [0x1E] EventEntity looks at Rughadjeen (ID: 16982367/0x0103215F) and starts talking
  2: 0x0281 [0x32] ExtData[1]->MainSpeed = 11* * 0.1
  3: 0x0284 [0x1F] MOVE_ENTITY: EventEntity moves to X=-15.006*, Z=99.229*, Y=1.999*
  4: 0x028C [0x1F] MOVE_ENTITY: Update entity position (mode=1)
  5: 0x028E [0x6F] WAIT_FRAME_DELAY: Yield until WaitTime reaches zero
  6: 0x028F [0x1C] WAIT(5* ticks)
  7: 0x0292 [0x66] LOAD_EXT_SCHEDULER_MAIN: Load scheduler "ao00" with entities [Amnaf (ID: 16982214/0x010320C6), Amnaf (ID: 16982214/0x010320C6)], work=19*
  8: 0x02A1 [0x00] END_REQSTACK()
```

### Event 934

#### Metadata

| Field        | Value   |
|--------------|---------|
| Entrypoint   | 0x02A2  |
| Data Size    | 1 bytes |
| Instructions | 1       |

```
      00 01 02 03 04 05 06 07  08 09 0A 0B 0C 0D 0E 0F
      -- -- -- -- -- -- -- --  -- -- -- -- -- -- -- --
02A0:       00                                            .             
```

#### Opcodes

```
  0: 0x02A2 [0x00] END_REQSTACK()
```
