# 16982560

## Common Data

| Field            | Value                          |
|------------------|--------------------------------|
| Zone             | Aht Urhgan Whitegate2 (ID: 50) |
| Block Size       | 300 bytes                      |
| Total Events     | 10                             |
| References Count | 15                             |

## List of Events

| Event ID                 | Entrypoint   |   Size |   Instructions |
|--------------------------|--------------|--------|----------------|
| [65535](#event-65535)    | 0x0000       |      1 |              1 |
| [65535.1](#event-655351) | 0x0001       |      1 |              1 |
| [65535.2](#event-655352) | 0x0002       |      9 |              3 |
| [65535.3](#event-655353) | 0x000B       |     10 |              2 |
| [65535.4](#event-655354) | 0x0015       |     32 |              6 |
| [65535.5](#event-655355) | 0x0035       |      1 |              1 |
| [890](#event-890)        | 0x0036       |      1 |              1 |
| [65535.6](#event-655356) | 0x0037       |     10 |              2 |
| [65535.7](#event-655357) | 0x0041       |     58 |             10 |
| [65535.8](#event-655358) | 0x007B       |     59 |             11 |

## DAT References (imed_data)

|   Index | Hex Value   |   Dec Value |
|---------|-------------|-------------|
|       0 | 0xFFFF1CD9  |  4294909145 |
|       1 | 0xFFFE83B0  |  4294869936 |
|       2 | 0x185C      |        6236 |
|       3 | 0x012C      |         300 |
|       4 | 0x000D      |          13 |
|       5 | 0x00F0      |         240 |
|       6 | 0xFFFE4591  |  4294854033 |
|       7 | 0xFFFF1AE6  |  4294908646 |
|       8 | 0x19E3      |        6627 |
|       9 | 0x0000      |           0 |
|      10 | 0x1388      |        5000 |
|      11 | 0x00E6      |         230 |
|      12 | 0x0050      |          80 |
|      13 | 0x3A98      |       15000 |
|      14 | 0x0028      |          40 |

## Events

### Event 65535

#### Metadata

| Field        | Value   |
|--------------|---------|
| Entrypoint   | 0x0000  |
| Data Size    | 1 bytes |
| Instructions | 1       |

```
      00 01 02 03 04 05 06 07  08 09 0A 0B 0C 0D 0E 0F
      -- -- -- -- -- -- -- --  -- -- -- -- -- -- -- --
0000: 00                                                .               
```

#### Opcodes

```
  0: 0x0000 [0x00] END_REQSTACK()
```

### Event 65535.1

#### Metadata

| Field        | Value   |
|--------------|---------|
| Entrypoint   | 0x0001  |
| Data Size    | 1 bytes |
| Instructions | 1       |

```
      00 01 02 03 04 05 06 07  08 09 0A 0B 0C 0D 0E 0F
      -- -- -- -- -- -- -- --  -- -- -- -- -- -- -- --
0000:    00                                              .              
```

#### Opcodes

```
  0: 0x0001 [0x00] END_REQSTACK()
```

### Event 65535.2

#### Metadata

| Field        | Value   |
|--------------|---------|
| Entrypoint   | 0x0002  |
| Data Size    | 9 bytes |
| Instructions | 3       |

```
      00 01 02 03 04 05 06 07  08 09 0A 0B 0C 0D 0E 0F
      -- -- -- -- -- -- -- --  -- -- -- -- -- -- -- --
0000:       22 00 2F 00 F8 FF  FF 7F 00                   "./......     
```

#### Opcodes

```
  0: 0x0002 [0x22] ENTITY_HIDE_FLAG(enabled=0x00)
  1: 0x0004 [0x2F] EventEntity->Render.Flags0 &= ~0x80000 // Bit 19
  2: 0x000A [0x00] END_REQSTACK()
```

### Event 65535.3

#### Metadata

| Field        | Value    |
|--------------|----------|
| Entrypoint   | 0x000B   |
| Data Size    | 10 bytes |
| Instructions | 2        |

```
      00 01 02 03 04 05 06 07  08 09 0A 0B 0C 0D 0E 0F
      -- -- -- -- -- -- -- --  -- -- -- -- -- -- -- --
0000:                                   37 00 80 01 80             7....
0010: 02 80 03 80 00                                    .....           
```

#### Opcodes

```
  0: 0x000B [0x37] UPDATE_EVENT_POSITION_AND_DIR: x=-58.151*, z=-97.360*, y=6.236*, direction=26.4°*
  1: 0x0014 [0x00] END_REQSTACK()
```

### Event 65535.4

#### Metadata

| Field        | Value    |
|--------------|----------|
| Entrypoint   | 0x0015   |
| Data Size    | 32 bytes |
| Instructions | 6        |

```
      00 01 02 03 04 05 06 07  08 09 0A 0B 0C 0D 0E 0F
      -- -- -- -- -- -- -- --  -- -- -- -- -- -- -- --
0010:                3B 14 22  03 01 00 00 01 00 02 00       ;."........
0020: 32 04 80 31 00 00 00 01  00 02 00 05 80 31 01 1E  2..1.........1..
0030: F0 FF FF 7F 00                                    .....           
```

#### Opcodes

```
  0: 0x0015 [0x3B] GET_ENTITY_POSITION(entity=Unnamed NPC (ID: 16982548/0x01032214), x_destination=ExtData[1]->WorkLocal[0], y_destination=ExtData[1]->WorkLocal[1], z_destination=ExtData[1]->WorkLocal[2])
  1: 0x0020 [0x32] ExtData[1]->MainSpeed = 13* * 0.1
  2: 0x0023 [0x31] UPDATE_ENTITY_POSITION: Set EventEntity goal position to X=ExtData[1]->WorkLocal[0], Z=ExtData[1]->WorkLocal[1], Y=ExtData[1]->WorkLocal[2], Time=240*
  3: 0x002D [0x31] UPDATE_ENTITY_POSITION: Move EventEntity towards goal position
  4: 0x002F [0x1E] EventEntity looks at LocalPlayer and starts talking
  5: 0x0034 [0x00] END_REQSTACK()
```

### Event 65535.5

#### Metadata

| Field        | Value   |
|--------------|---------|
| Entrypoint   | 0x0035  |
| Data Size    | 1 bytes |
| Instructions | 1       |

```
      00 01 02 03 04 05 06 07  08 09 0A 0B 0C 0D 0E 0F
      -- -- -- -- -- -- -- --  -- -- -- -- -- -- -- --
0030:                00                                      .          
```

#### Opcodes

```
  0: 0x0035 [0x00] END_REQSTACK()
```

### Event 890

#### Metadata

| Field        | Value   |
|--------------|---------|
| Entrypoint   | 0x0036  |
| Data Size    | 1 bytes |
| Instructions | 1       |

```
      00 01 02 03 04 05 06 07  08 09 0A 0B 0C 0D 0E 0F
      -- -- -- -- -- -- -- --  -- -- -- -- -- -- -- --
0030:                   00                                    .         
```

#### Opcodes

```
  0: 0x0036 [0x00] END_REQSTACK()
```

### Event 65535.6

#### Metadata

| Field        | Value    |
|--------------|----------|
| Entrypoint   | 0x0037   |
| Data Size    | 10 bytes |
| Instructions | 2        |

```
      00 01 02 03 04 05 06 07  08 09 0A 0B 0C 0D 0E 0F
      -- -- -- -- -- -- -- --  -- -- -- -- -- -- -- --
0030:                      37  06 80 07 80 08 80 09 80         7........
0040: 00                                                .               
```

#### Opcodes

```
  0: 0x0037 [0x37] UPDATE_EVENT_POSITION_AND_DIR: x=-113.263*, z=-58.650*, y=6.627*, direction=0.0°*
  1: 0x0040 [0x00] END_REQSTACK()
```

### Event 65535.7

#### Metadata

| Field        | Value    |
|--------------|----------|
| Entrypoint   | 0x0041   |
| Data Size    | 58 bytes |
| Instructions | 10       |

```
      00 01 02 03 04 05 06 07  08 09 0A 0B 0C 0D 0E 0F
      -- -- -- -- -- -- -- --  -- -- -- -- -- -- -- --
0040:    3B F8 FF FF 7F 00 00  01 00 02 00 3A F8 FF FF   ;..........:...
0050: 7F 03 00 17 04 00 03 00  0A 80 16 05 00 03 00 0A  ................
0060: 80 07 00 00 04 00 07 01  00 05 00 32 04 80 31 00  ...........2..1.
0070: 00 00 01 00 02 00 0B 80  31 01 00                 ........1..     
```

#### Opcodes

```
  0: 0x0041 [0x3B] GET_ENTITY_POSITION(entity=EventEntity, x_destination=ExtData[1]->WorkLocal[0], y_destination=ExtData[1]->WorkLocal[1], z_destination=ExtData[1]->WorkLocal[2])
  1: 0x004C [0x3A] CONVERT_YAW_TO_BYTE(entity=EventEntity, result_destination=ExtData[1]->WorkLocal[3])
  2: 0x0053 [0x17] ExtData[1]->WorkLocal[4] = cos(ExtData[1]->WorkLocal[3]) * 5000*
  3: 0x005A [0x16] ExtData[1]->WorkLocal[5] = sin(ExtData[1]->WorkLocal[3]) * 5000*
  4: 0x0061 [0x07] ExtData[1]->WorkLocal[0] += ExtData[1]->WorkLocal[4]
  5: 0x0066 [0x07] ExtData[1]->WorkLocal[1] += ExtData[1]->WorkLocal[5]
  6: 0x006B [0x32] ExtData[1]->MainSpeed = 13* * 0.1
  7: 0x006E [0x31] UPDATE_ENTITY_POSITION: Set EventEntity goal position to X=ExtData[1]->WorkLocal[0], Z=ExtData[1]->WorkLocal[1], Y=ExtData[1]->WorkLocal[2], Time=230*
  8: 0x0078 [0x31] UPDATE_ENTITY_POSITION: Move EventEntity towards goal position
  9: 0x007A [0x00] END_REQSTACK()
```

### Event 65535.8

#### Metadata

| Field        | Value    |
|--------------|----------|
| Entrypoint   | 0x007B   |
| Data Size    | 59 bytes |
| Instructions | 11       |

```
      00 01 02 03 04 05 06 07  08 09 0A 0B 0C 0D 0E 0F
      -- -- -- -- -- -- -- --  -- -- -- -- -- -- -- --
0070:                                   1C 0C 80 3B F8             ...;.
0080: FF FF 7F 00 00 01 00 02  00 3A F8 FF FF 7F 03 00  .........:......
0090: 17 04 00 03 00 0D 80 16  05 00 03 00 0D 80 07 00  ................
00A0: 00 04 00 07 01 00 05 00  32 0E 80 1F 00 00 00 01  ........2.......
00B0: 00 02 00 1F 01 00                                 ......          
```

#### Opcodes

```
  0: 0x007B [0x1C] WAIT(80* ticks)
  1: 0x007E [0x3B] GET_ENTITY_POSITION(entity=EventEntity, x_destination=ExtData[1]->WorkLocal[0], y_destination=ExtData[1]->WorkLocal[1], z_destination=ExtData[1]->WorkLocal[2])
  2: 0x0089 [0x3A] CONVERT_YAW_TO_BYTE(entity=EventEntity, result_destination=ExtData[1]->WorkLocal[3])
  3: 0x0090 [0x17] ExtData[1]->WorkLocal[4] = cos(ExtData[1]->WorkLocal[3]) * 15000*
  4: 0x0097 [0x16] ExtData[1]->WorkLocal[5] = sin(ExtData[1]->WorkLocal[3]) * 15000*
  5: 0x009E [0x07] ExtData[1]->WorkLocal[0] += ExtData[1]->WorkLocal[4]
  6: 0x00A3 [0x07] ExtData[1]->WorkLocal[1] += ExtData[1]->WorkLocal[5]
  7: 0x00A8 [0x32] ExtData[1]->MainSpeed = 40* * 0.1
  8: 0x00AB [0x1F] MOVE_ENTITY: EventEntity moves to X=ExtData[1]->WorkLocal[0], Z=ExtData[1]->WorkLocal[1], Y=ExtData[1]->WorkLocal[2]
  9: 0x00B3 [0x1F] MOVE_ENTITY: Update entity position (mode=1)
 10: 0x00B5 [0x00] END_REQSTACK()
```
