# 16982363 - Ratihb

## Common Data

| Field            | Value                          |
|------------------|--------------------------------|
| Zone             | Aht Urhgan Whitegate2 (ID: 50) |
| Block Size       | 18856 bytes                    |
| Total Events     | 6                              |
| References Count | 221                            |

## List of Events

| Event ID                 | Entrypoint   |   Size |   Instructions |
|--------------------------|--------------|--------|----------------|
| [65535](#event-65535)    | 0x0000       |      1 |              1 |
| [5090](#event-5090)      | 0x0001       |      1 |              1 |
| [65535.1](#event-655351) | 0x0002       |     22 |              6 |
| [5091](#event-5091)      | 0x0018       |   5056 |            602 |
| [5092](#event-5092)      | 0x13D8       |   7074 |            896 |
| [5093](#event-5093)      | 0x2F7A       |   5777 |            699 |

## DAT References (imed_data)

|   Index | Hex Value   |   Dec Value |
|---------|-------------|-------------|
|       0 | 0x0028      |          40 |
|       1 | 0x11551     |       70993 |
|       2 | 0xFFFE08CD  |  4294838477 |
|       3 | 0xFFFFE890  |  4294961296 |
|       4 | 0x001E      |          30 |
|       5 | 0x0001      |           1 |
|       6 | 0x0000      |           0 |
|       7 | 0x0190      |         400 |
|       8 | 0x00C8      |         200 |
|       9 | 0x003C      |          60 |
|      10 | 0x0013      |          19 |
|      11 | 0x0235      |         565 |
|      12 | 0x13C21     |       80929 |
|      13 | 0xFFFDF2E1  |  4294832865 |
|      14 | 0xFFFFE891  |  4294961297 |
|      15 | 0x0418      |        1048 |
|      16 | 0x13A07     |       80391 |
|      17 | 0xFFFDE965  |  4294830437 |
|      18 | 0x13881     |       80001 |
|      19 | 0xFFFE1F14  |  4294844180 |
|      20 | 0x03F9      |        1017 |
|      21 | 0x0003      |           3 |
|      22 | 0x02A5      |         677 |
|      23 | 0x0004      |           4 |
|      24 | 0x0008      |           8 |
|      25 | 0x0031      |          49 |
|      26 | 0x3C42      |       15426 |
|      27 | 0x3C43      |       15427 |
|      28 | 0x3C44      |       15428 |
|      29 | 0x3C45      |       15429 |
|      30 | 0x07D6      |        2006 |
|      31 | 0x089E      |        2206 |
|      32 | 0x0078      |         120 |
|      33 | 0x0005      |           5 |
|      34 | 0x0006      |           6 |
|      35 | 0x007F      |         127 |
|      36 | 0x3C46      |       15430 |
|      37 | 0x3C47      |       15431 |
|      38 | 0x3C48      |       15432 |
|      39 | 0x3C49      |       15433 |
|      40 | 0x0007      |           7 |
|      41 | 0x3C4C      |       15436 |
|      42 | 0x0095      |         149 |
|      43 | 0x3C4D      |       15437 |
|      44 | 0x3C4E      |       15438 |
|      45 | 0x0015      |          21 |
|      46 | 0x3C4F      |       15439 |
|      47 | 0x0021      |          33 |
|      48 | 0x3C50      |       15440 |
|      49 | 0x0050      |          80 |
|      50 | 0x3C51      |       15441 |
|      51 | 0x3C52      |       15442 |
|      52 | 0x3C53      |       15443 |
|      53 | 0x0002      |           2 |
|      54 | 0x3C54      |       15444 |
|      55 | 0x3C55      |       15445 |
|      56 | 0x3C56      |       15446 |
|      57 | 0x3C57      |       15447 |
|      58 | 0x0010      |          16 |
|      59 | 0x3C58      |       15448 |
|      60 | 0x005A      |          90 |
|      61 | 0x00AE      |         174 |
|      62 | 0x0032      |          50 |
|      63 | 0x0029      |          41 |
|      64 | 0x000C      |          12 |
|      65 | 0x00C9      |         201 |
|      66 | 0x13535     |       79157 |
|      67 | 0xFFFDF68B  |  4294833803 |
|      68 | 0x0FDF      |        4063 |
|      69 | 0x00B1      |         177 |
|      70 | 0x3C59      |       15449 |
|      71 | 0x000D      |          13 |
|      72 | 0x0014      |          20 |
|      73 | 0x1374E     |       79694 |
|      74 | 0xFFFDF872  |  4294834290 |
|      75 | 0xFFFFE82C  |  4294961196 |
|      76 | 0x080D      |        2061 |
|      77 | 0x08ED      |        2285 |
|      78 | 0x003B      |          59 |
|      79 | 0x002A      |          42 |
|      80 | 0x3C5B      |       15451 |
|      81 | 0x3C5A      |       15450 |
|      82 | 0x3C5C      |       15452 |
|      83 | 0x3C5D      |       15453 |
|      84 | 0x3C5E      |       15454 |
|      85 | 0x00FC      |         252 |
|      86 | 0x0064      |         100 |
|      87 | 0x00B2      |         178 |
|      88 | 0x3C5F      |       15455 |
|      89 | 0x3C60      |       15456 |
|      90 | 0x3C61      |       15457 |
|      91 | 0x3C62      |       15458 |
|      92 | 0x0046      |          70 |
|      93 | 0x3C63      |       15459 |
|      94 | 0x0012      |          18 |
|      95 | 0x3C4A      |       15434 |
|      96 | 0x3C4B      |       15435 |
|      97 | 0x022F      |         559 |
|      98 | 0xFFFFFC89  |  4294966409 |
|      99 | 0xBB12      |       47890 |
|     100 | 0x0C00      |        3072 |
|     101 | 0x0294      |         660 |
|     102 | 0xBA1E      |       47646 |
|     103 | 0x00B7      |         183 |
|     104 | 0x000A      |          10 |
|     105 | 0x02A8      |         680 |
|     106 | 0x3C64      |       15460 |
|     107 | 0x3C65      |       15461 |
|     108 | 0x3C66      |       15462 |
|     109 | 0x3C67      |       15463 |
|     110 | 0x3C68      |       15464 |
|     111 | 0x3C69      |       15465 |
|     112 | 0x3C6A      |       15466 |
|     113 | 0x3C6B      |       15467 |
|     114 | 0x3C6C      |       15468 |
|     115 | 0x3C6D      |       15469 |
|     116 | 0x3C6E      |       15470 |
|     117 | 0x3C6F      |       15471 |
|     118 | 0x3C70      |       15472 |
|     119 | 0x3C71      |       15473 |
|     120 | 0x3C72      |       15474 |
|     121 | 0x3C73      |       15475 |
|     122 | 0x0080      |         128 |
|     123 | 0x3C74      |       15476 |
|     124 | 0x3C75      |       15477 |
|     125 | 0x3C76      |       15478 |
|     126 | 0x3C77      |       15479 |
|     127 | 0x3C7A      |       15482 |
|     128 | 0x3C7B      |       15483 |
|     129 | 0x3C7C      |       15484 |
|     130 | 0x3C7D      |       15485 |
|     131 | 0x3C7E      |       15486 |
|     132 | 0x3C7F      |       15487 |
|     133 | 0x3C80      |       15488 |
|     134 | 0x3C81      |       15489 |
|     135 | 0x3C82      |       15490 |
|     136 | 0x3C83      |       15491 |
|     137 | 0x3C84      |       15492 |
|     138 | 0x3C85      |       15493 |
|     139 | 0x3C86      |       15494 |
|     140 | 0x3C87      |       15495 |
|     141 | 0x3C88      |       15496 |
|     142 | 0x3C89      |       15497 |
|     143 | 0x3C8A      |       15498 |
|     144 | 0x3C8B      |       15499 |
|     145 | 0x3C8C      |       15500 |
|     146 | 0x3C8D      |       15501 |
|     147 | 0x3C8E      |       15502 |
|     148 | 0x3C8F      |       15503 |
|     149 | 0x3C90      |       15504 |
|     150 | 0x3C91      |       15505 |
|     151 | 0x3C92      |       15506 |
|     152 | 0x3C93      |       15507 |
|     153 | 0x3C94      |       15508 |
|     154 | 0x3C95      |       15509 |
|     155 | 0x00BD      |         189 |
|     156 | 0x3C96      |       15510 |
|     157 | 0x3C97      |       15511 |
|     158 | 0x3C98      |       15512 |
|     159 | 0xFFFFFE70  |  4294966896 |
|     160 | 0x3C78      |       15480 |
|     161 | 0x3C79      |       15481 |
|     162 | 0x0110      |         272 |
|     163 | 0x03E7      |         999 |
|     164 | 0x000F      |          15 |
|     165 | 0x130B0     |       78000 |
|     166 | 0x02A9      |         681 |
|     167 | 0x3C99      |       15513 |
|     168 | 0x3C9A      |       15514 |
|     169 | 0x3C9B      |       15515 |
|     170 | 0x3C9C      |       15516 |
|     171 | 0x3C9D      |       15517 |
|     172 | 0x3C9E      |       15518 |
|     173 | 0x3C9F      |       15519 |
|     174 | 0x3CA0      |       15520 |
|     175 | 0x3CA1      |       15521 |
|     176 | 0x3CA2      |       15522 |
|     177 | 0x0FBB      |        4027 |
|     178 | 0x3CA3      |       15523 |
|     179 | 0x3CA4      |       15524 |
|     180 | 0x3CA5      |       15525 |
|     181 | 0x3CA7      |       15527 |
|     182 | 0x3CA8      |       15528 |
|     183 | 0x3CA9      |       15529 |
|     184 | 0x3CAA      |       15530 |
|     185 | 0x3CAB      |       15531 |
|     186 | 0x3CAC      |       15532 |
|     187 | 0x3CAD      |       15533 |
|     188 | 0x3CAE      |       15534 |
|     189 | 0x3CB1      |       15537 |
|     190 | 0x3CB2      |       15538 |
|     191 | 0x3CAF      |       15535 |
|     192 | 0x3CB0      |       15536 |
|     193 | 0x3CB3      |       15539 |
|     194 | 0x3CB4      |       15540 |
|     195 | 0x00D1      |         209 |
|     196 | 0x3CB5      |       15541 |
|     197 | 0x3CB6      |       15542 |
|     198 | 0x3CB7      |       15543 |
|     199 | 0x3CB8      |       15544 |
|     200 | 0x3CB9      |       15545 |
|     201 | 0x3CBA      |       15546 |
|     202 | 0x3CBB      |       15547 |
|     203 | 0x3CBC      |       15548 |
|     204 | 0x3CBD      |       15549 |
|     205 | 0x3CBE      |       15550 |
|     206 | 0x008E      |         142 |
|     207 | 0x0708      |        1800 |
|     208 | 0x0A06      |        2566 |
|     209 | 0x0289      |         649 |
|     210 | 0x01AF      |         431 |
|     211 | 0x3CBF      |       15551 |
|     212 | 0x125F0     |       75248 |
|     213 | 0xFFFE15ED  |  4294841837 |
|     214 | 0x026D      |         621 |
|     215 | 0x3CC0      |       15552 |
|     216 | 0x3CC1      |       15553 |
|     217 | 0x3CC2      |       15554 |
|     218 | 0x3CC3      |       15555 |
|     219 | 0x3CC4      |       15556 |
|     220 | 0x3CA6      |       15526 |

## String References

- **15433**: What's the one thing you're after? [His alter ego./A...pleasant soir<Player>ie?]
- **15450**: Gadalar starts casting Firaga III on Fari-Wari.
- **15471**: How do you respond? [You know about the initiative?/You are interested in the initiative?]
- **15479**: Attempt the ritual? [Yes./No.]
- **15525**: Attempt the ritual? [Yes./No.]

## Events

### Event 65535

#### Metadata

| Field        | Value   |
|--------------|---------|
| Entrypoint   | 0x0000  |
| Data Size    | 1 bytes |
| Instructions | 1       |

```
      00 01 02 03 04 05 06 07  08 09 0A 0B 0C 0D 0E 0F
      -- -- -- -- -- -- -- --  -- -- -- -- -- -- -- --
0000: 00                                                .               
```

#### Opcodes

```
  0: 0x0000 [0x00] END_REQSTACK()
```

### Event 5090

#### Metadata

| Field        | Value   |
|--------------|---------|
| Entrypoint   | 0x0001  |
| Data Size    | 1 bytes |
| Instructions | 1       |

```
      00 01 02 03 04 05 06 07  08 09 0A 0B 0C 0D 0E 0F
      -- -- -- -- -- -- -- --  -- -- -- -- -- -- -- --
0000:    00                                              .              
```

#### Opcodes

```
  0: 0x0001 [0x00] END_REQSTACK()
```

### Event 65535.1

#### Metadata

| Field        | Value    |
|--------------|----------|
| Entrypoint   | 0x0002   |
| Data Size    | 22 bytes |
| Instructions | 6        |

```
      00 01 02 03 04 05 06 07  08 09 0A 0B 0C 0D 0E 0F
      -- -- -- -- -- -- -- --  -- -- -- -- -- -- -- --
0000:       32 00 80 1F 00 01  80 02 80 03 80 1F 01 1E    2.............
0010: CE 20 03 01 1C 04 80 00                           . ......        
```

#### Opcodes

```
  0: 0x0002 [0x32] ExtData[1]->MainSpeed = 40* * 0.1
  1: 0x0005 [0x1F] MOVE_ENTITY: EventEntity moves to X=70.993*, Z=-128.819*, Y=-6.000*
  2: 0x000D [0x1F] MOVE_ENTITY: Update entity position (mode=1)
  3: 0x000F [0x1E] EventEntity looks at Gessho (ID: 16982222/0x010320CE) and starts talking
  4: 0x0014 [0x1C] WAIT(30* ticks)
  5: 0x0017 [0x00] END_REQSTACK()
```

### Event 5091

#### Metadata

| Field        | Value      |
|--------------|------------|
| Entrypoint   | 0x0018     |
| Data Size    | 5056 bytes |
| Instructions | 602        |

```
      00 01 02 03 04 05 06 07  08 09 0A 0B 0C 0D 0E 0F
      -- -- -- -- -- -- -- --  -- -- -- -- -- -- -- --
0010:                          20 01 42 03 00 00 05 10           .B.....
0020: 03 01 00 09 10 03 01 10  05 80 46 01 5D 06 80 07  ..........F.]...
0030: 80 45 08 80 F8 FF FF 7F  F8 FF FF 7F 66 64 6F 31  .E..........fdo1
0040: 06 80 1C 09 80 38 0A 80  75 00 0B 80 75 01 2F 00  .....8..u...u./.
0050: 97 21 03 01 4E 00 97 21  03 01 92 01 97 21 03 01  .!..N..!.....!..
0060: 92 01 5C 21 03 01 92 01  7E 20 03 01 92 01 53 20  ..\!....~ ....S 
0070: 03 01 92 01 54 20 03 01  92 01 82 20 03 01 94 01  ....T ..... ....
0080: F0 FF FF 7F 94 01 5C 21  03 01 22 01 BA F0 FF FF  ......\!..".....
0090: 7F 0C 80 0D 80 0E 80 0F  80 BA 5C 21 03 01 10 80  ..........\!....
00A0: 11 80 03 80 0F 80 BA 97  21 03 01 12 80 13 80 03  ........!.......
00B0: 80 14 80 79 00 82 20 03  01 F0 FF FF 7F 79 00 7E  ...y.. ......y.~
00C0: 20 03 01 F0 FF FF 7F 79  00 53 20 03 01 F0 FF FF   ......y.S .....
00D0: 7F 79 00 54 20 03 01 F0  FF FF 7F 4A F0 FF FF 7F  .y.T ......J....
00E0: 5C 21 03 01 4A 5C 21 03  01 F0 FF FF 7F 6F 76 5C  \!..J\!......ov\
00F0: 21 03 01 6F 76 F0 FF FF  7F 80 97 21 03 01 80 F0  !..ov......!....
0100: FF FF 7F 03 09 10 87 7F  02 09 10 15 80 00 24 01  ..............$.
0110: 45 16 80 F8 FF FF 7F F8  FF FF 7F 73 30 33 36 06  E..........s036.
0120: 80 01 6D 01 02 09 10 17  80 00 40 01 45 16 80 F8  ..m.......@.E...
0130: FF FF 7F F8 FF FF 7F 73  30 33 36 06 80 01 6D 01  .......s036...m.
0140: 02 09 10 18 80 00 5C 01  45 16 80 F8 FF FF 7F F8  ......\.E.......
0150: FF FF 7F 73 30 33 36 06  80 01 6D 01 45 16 80 F8  ...s036...m.E...
0160: FF FF 7F F8 FF FF 7F 73  30 30 33 06 80 45 08 80  .......s003..E..
0170: F8 FF FF 7F F8 FF FF 7F  66 64 69 31 06 80 66 19  ........fdi1..f.
0180: 80 5C 21 03 01 5C 21 03  01 74 6C 6B 30 2B 5C 21  .\!..\!..tlk0+\!
0190: 03 01 1A 80 23 66 19 80  5C 21 03 01 5C 21 03 01  ....#f..\!..\!..
01A0: 74 6C 6B 31 2B 5C 21 03  01 1B 80 23 02 09 10 15  tlk1+\!....#....
01B0: 80 00 C6 01 52 16 80 F8  FF FF 7F F8 FF FF 7F 73  ....R..........s
01C0: 30 33 36 01 09 02 02 09  10 17 80 00 E0 01 52 16  036...........R.
01D0: 80 F8 FF FF 7F F8 FF FF  7F 73 30 33 36 01 09 02  .........s036...
01E0: 02 09 10 18 80 00 FA 01  52 16 80 F8 FF FF 7F F8  ........R.......
01F0: FF FF 7F 73 30 33 36 01  09 02 52 16 80 F8 FF FF  ...s036...R.....
0200: 7F F8 FF FF 7F 73 30 30  33 45 16 80 F8 FF FF 7F  .....s003E......
0210: F8 FF FF 7F 73 30 30 34  06 80 79 00 54 20 03 01  ....s004..y.T ..
0220: 5C 21 03 01 66 00 80 5C  21 03 01 5C 21 03 01 64  \!..f..\!..\!..d
0230: 69 73 30 2B 5C 21 03 01  1C 80 23 27 08 97 21 03  is0+\!....#'..!.
0240: 01 02 79 00 5C 21 03 01  97 21 03 01 1C 04 80 52  ..y.\!...!.....R
0250: 16 80 F8 FF FF 7F F8 FF  FF 7F 73 30 30 34 02 09  ..........s004..
0260: 10 18 80 00 7A 02 45 16  80 F8 FF FF 7F F8 FF FF  ....z.E.........
0270: 7F 73 30 33 37 06 80 01  8B 02 45 16 80 F8 FF FF  .s037.....E.....
0280: 7F F8 FF FF 7F 73 30 30  35 06 80 2B 5C 21 03 01  .....s005..+\!..
0290: 1D 80 23 1C 09 80 79 00  F0 FF FF 7F 97 21 03 01  ..#...y......!..
02A0: 02 09 10 18 80 00 B2 02  4B F0 FF FF 7F 1E 80 01  ........K.......
02B0: B9 02 4B F0 FF FF 7F 1F  80 4A 82 20 03 01 97 21  ..K......J. ...!
02C0: 03 01 6F 76 F0 FF FF 7F  02 09 10 18 80 00 E2 02  ..ov............
02D0: 52 16 80 F8 FF FF 7F F8  FF FF 7F 73 30 33 37 01  R..........s037.
02E0: F1 02 52 16 80 F8 FF FF  7F F8 FF FF 7F 73 30 30  ..R..........s00
02F0: 35 02 09 10 18 80 00 0D  03 45 16 80 F8 FF FF 7F  5........E......
0300: F8 FF FF 7F 73 30 33 38  06 80 01 1E 03 45 16 80  ....s038.....E..
0310: F8 FF FF 7F F8 FF FF 7F  73 30 30 36 06 80 79 00  ........s006..y.
0320: 54 20 03 01 97 21 03 01  1C 20 80 79 00 97 21 03  T ...!... .y..!.
0330: 01 F0 FF FF 7F 02 09 10  18 80 00 4F 03 52 16 80  ...........O.R..
0340: F8 FF FF 7F F8 FF FF 7F  73 30 33 38 01 5E 03 52  ........s038.^.R
0350: 16 80 F8 FF FF 7F F8 FF  FF 7F 73 30 30 36 02 09  ..........s006..
0360: 10 15 80 00 7A 03 45 16  80 F8 FF FF 7F F8 FF FF  ....z.E.........
0370: 7F 73 30 34 31 06 80 01  FB 03 02 09 10 17 80 00  .s041...........
0380: 96 03 45 16 80 F8 FF FF  7F F8 FF FF 7F 73 30 34  ..E..........s04
0390: 31 06 80 01 FB 03 02 09  10 21 80 00 B2 03 45 16  1........!....E.
03A0: 80 F8 FF FF 7F F8 FF FF  7F 73 30 33 30 06 80 01  .........s030...
03B0: FB 03 02 09 10 22 80 00  CE 03 45 16 80 F8 FF FF  ....."....E.....
03C0: 7F F8 FF FF 7F 73 30 33  30 06 80 01 FB 03 02 09  .....s030.......
03D0: 10 18 80 00 EA 03 45 16  80 F8 FF FF 7F F8 FF FF  ......E.........
03E0: 7F 73 30 34 31 06 80 01  FB 03 45 16 80 F8 FF FF  .s041.....E.....
03F0: 7F F8 FF FF 7F 73 30 30  37 06 80 5C 00 20 80 5C  .....s007..\. .\
0400: 01 20 80 9A 5D 23 80 05  80 2B 97 21 03 01 24 80  . ..]#...+.!..$.
0410: 23 2A 08 97 21 03 01 02  09 10 15 80 00 31 04 52  #*..!........1.R
0420: 16 80 F8 FF FF 7F F8 FF  FF 7F 73 30 34 31 01 A8  ..........s041..
0430: 04 02 09 10 17 80 00 4B  04 52 16 80 F8 FF FF 7F  .......K.R......
0440: F8 FF FF 7F 73 30 34 31  01 A8 04 02 09 10 21 80  ....s041......!.
0450: 00 65 04 52 16 80 F8 FF  FF 7F F8 FF FF 7F 73 30  .e.R..........s0
0460: 33 30 01 A8 04 02 09 10  22 80 00 7F 04 52 16 80  30......"....R..
0470: F8 FF FF 7F F8 FF FF 7F  73 30 33 30 01 A8 04 02  ........s030....
0480: 09 10 18 80 00 99 04 52  16 80 F8 FF FF 7F F8 FF  .......R........
0490: FF 7F 73 30 34 31 01 A8  04 52 16 80 F8 FF FF 7F  ..s041...R......
04A0: F8 FF FF 7F 73 30 30 37  02 09 10 15 80 00 C4 04  ....s007........
04B0: 45 16 80 F8 FF FF 7F F8  FF FF 7F 73 30 34 34 06  E..........s044.
04C0: 80 01 0D 05 02 09 10 17  80 00 E0 04 45 16 80 F8  ............E...
04D0: FF FF 7F F8 FF FF 7F 73  30 34 34 06 80 01 0D 05  .......s044.....
04E0: 02 09 10 18 80 00 FC 04  45 16 80 F8 FF FF 7F F8  ........E.......
04F0: FF FF 7F 73 30 34 34 06  80 01 0D 05 45 16 80 F8  ...s044.....E...
0500: FF FF 7F F8 FF FF 7F 73  30 30 38 06 80 2B 97 21  .......s008..+.!
0510: 03 01 25 80 23 2B 97 21  03 01 26 80 23 24 27 80  ..%.#+.!..&.#$'.
0520: 06 80 06 80 25 02 00 10  06 80 00 DF 12 6E 97 21  ....%........n.!
0530: 03 01 28 80 99 97 21 03  01 2B 97 21 03 01 29 80  ..(...!..+.!..).
0540: 23 02 09 10 15 80 00 5B  05 52 16 80 F8 FF FF 7F  #......[.R......
0550: F8 FF FF 7F 73 30 34 34  01 9E 05 02 09 10 17 80  ....s044........
0560: 00 75 05 52 16 80 F8 FF  FF 7F F8 FF FF 7F 73 30  .u.R..........s0
0570: 34 34 01 9E 05 02 09 10  18 80 00 8F 05 52 16 80  44...........R..
0580: F8 FF FF 7F F8 FF FF 7F  73 30 34 34 01 9E 05 52  ........s044...R
0590: 16 80 F8 FF FF 7F F8 FF  FF 7F 73 30 30 38 02 09  ..........s008..
05A0: 10 18 80 00 BA 05 45 16  80 F8 FF FF 7F F8 FF FF  ......E.........
05B0: 7F 73 30 33 39 06 80 01  CB 05 45 16 80 F8 FF FF  .s039.....E.....
05C0: 7F F8 FF FF 7F 73 30 31  30 06 80 66 2A 80 97 21  .....s010..f*..!
05D0: 03 01 97 21 03 01 74 6C  6B 30 2B 97 21 03 01 2B  ...!..tlk0+.!..+
05E0: 80 23 2B 97 21 03 01 2C  80 23 66 2A 80 97 21 03  .#+.!..,.#f*..!.
05F0: 01 97 21 03 01 74 6C 6B  31 1C 09 80 02 09 10 18  ..!..tlk1.......
0600: 80 00 16 06 52 16 80 F8  FF FF 7F F8 FF FF 7F 73  ....R..........s
0610: 30 33 39 01 25 06 52 16  80 F8 FF FF 7F F8 FF FF  039.%.R.........
0620: 7F 73 30 31 30 02 01 00  05 80 00 2F 07 02 09 10  .s010....../....
0630: 21 80 00 49 06 45 16 80  F8 FF FF 7F F8 FF FF 7F  !..I.E..........
0640: 73 30 35 32 06 80 01 92  06 02 09 10 22 80 00 65  s052........"..e
0650: 06 45 16 80 F8 FF FF 7F  F8 FF FF 7F 73 30 35 32  .E..........s052
0660: 06 80 01 92 06 02 09 10  18 80 00 81 06 45 16 80  .............E..
0670: F8 FF FF 7F F8 FF FF 7F  73 30 34 37 06 80 01 92  ........s047....
0680: 06 45 16 80 F8 FF FF 7F  F8 FF FF 7F 73 30 34 39  .E..........s049
0690: 06 80 1C 04 80 6E 97 21  03 01 2D 80 99 97 21 03  .....n.!..-...!.
06A0: 01 2B 97 21 03 01 2E 80  1C 09 80 23 6E F0 FF FF  .+.!.......#n...
06B0: 7F 28 80 99 F0 FF FF 7F  1C 04 80 6E 97 21 03 01  .(.........n.!..
06C0: 2F 80 99 97 21 03 01 2B  97 21 03 01 30 80 1C 09  /...!..+.!..0...
06D0: 80 23 02 09 10 21 80 00  EC 06 52 16 80 F8 FF FF  .#...!....R.....
06E0: 7F F8 FF FF 7F 73 30 35  32 01 2F 07 02 09 10 22  .....s052./...."
06F0: 80 00 06 07 52 16 80 F8  FF FF 7F F8 FF FF 7F 73  ....R..........s
0700: 30 35 32 01 2F 07 02 09  10 18 80 00 20 07 52 16  052./....... .R.
0710: 80 F8 FF FF 7F F8 FF FF  7F 73 30 34 37 01 2F 07  .........s047./.
0720: 52 16 80 F8 FF FF 7F F8  FF FF 7F 73 30 34 39 3E  R..........s049>
0730: 00 00 05 80 E2 08 45 16  80 F8 FF FF 7F F8 FF FF  ......E.........
0740: 7F 73 30 32 38 06 80 03  09 10 01 00 7B 97 21 03  .s028.......{.!.
0750: 01 66 2A 80 97 21 03 01  97 21 03 01 74 68 6B 30  .f*..!...!..thk0
0760: 1C 31 80 2B 97 21 03 01  32 80 23 52 16 80 F8 FF  .1.+.!..2.#R....
0770: FF 7F F8 FF FF 7F 73 30  32 38 03 09 10 87 7F 02  ......s028......
0780: 09 10 15 80 00 9B 07 45  16 80 F8 FF FF 7F F8 FF  .......E........
0790: FF 7F 73 30 34 38 06 80  01 1C 08 02 09 10 17 80  ..s048..........
07A0: 00 B7 07 45 16 80 F8 FF  FF 7F F8 FF FF 7F 73 30  ...E..........s0
07B0: 34 38 06 80 01 1C 08 02  09 10 21 80 00 D3 07 45  48........!....E
07C0: 16 80 F8 FF FF 7F F8 FF  FF 7F 73 30 35 31 06 80  ..........s051..
07D0: 01 1C 08 02 09 10 22 80  00 EF 07 45 16 80 F8 FF  ......"....E....
07E0: FF 7F F8 FF FF 7F 73 30  35 31 06 80 01 1C 08 02  ......s051......
07F0: 09 10 18 80 00 0B 08 45  16 80 F8 FF FF 7F F8 FF  .......E........
0800: FF 7F 73 30 34 38 06 80  01 1C 08 45 16 80 F8 FF  ..s048.....E....
0810: FF 7F F8 FF FF 7F 73 30  35 33 06 80 79 00 97 21  ......s053..y..!
0820: 03 01 F0 FF FF 7F 66 2A  80 97 21 03 01 97 21 03  ......f*..!...!.
0830: 01 74 68 6B 31 2B 97 21  03 01 33 80 23 6E 97 21  .thk1+.!..3.#n.!
0840: 03 01 22 80 99 97 21 03  01 2B 97 21 03 01 34 80  .."...!..+.!..4.
0850: 23 02 09 10 15 80 00 6B  08 52 16 80 F8 FF FF 7F  #......k.R......
0860: F8 FF FF 7F 73 30 34 38  01 E2 08 02 09 10 17 80  ....s048........
0870: 00 85 08 52 16 80 F8 FF  FF 7F F8 FF FF 7F 73 30  ...R..........s0
0880: 34 38 01 E2 08 02 09 10  21 80 00 9F 08 52 16 80  48......!....R..
0890: F8 FF FF 7F F8 FF FF 7F  73 30 35 31 01 E2 08 02  ........s051....
08A0: 09 10 22 80 00 B9 08 52  16 80 F8 FF FF 7F F8 FF  .."....R........
08B0: FF 7F 73 30 35 31 01 E2  08 02 09 10 18 80 00 D3  ..s051..........
08C0: 08 52 16 80 F8 FF FF 7F  F8 FF FF 7F 73 30 34 38  .R..........s048
08D0: 01 E2 08 52 16 80 F8 FF  FF 7F F8 FF FF 7F 73 30  ...R..........s0
08E0: 35 33 3E 00 00 35 80 AB  09 02 09 10 21 80 00 05  53>..5......!...
08F0: 09 45 16 80 F8 FF FF 7F  F8 FF FF 7F 73 30 34 36  .E..........s046
0900: 06 80 01 32 09 02 09 10  22 80 00 21 09 45 16 80  ...2...."..!.E..
0910: F8 FF FF 7F F8 FF FF 7F  73 30 34 36 06 80 01 32  ........s046...2
0920: 09 45 16 80 F8 FF FF 7F  F8 FF FF 7F 73 30 32 39  .E..........s029
0930: 06 80 66 2A 80 97 21 03  01 97 21 03 01 74 6C 6B  ..f*..!...!..tlk
0940: 30 2B 97 21 03 01 36 80  23 2B 97 21 03 01 37 80  0+.!..6.#+.!..7.
0950: 23 66 2A 80 97 21 03 01  97 21 03 01 74 6C 6B 31  #f*..!...!..tlk1
0960: 2B 97 21 03 01 38 80 23  02 09 10 21 80 00 82 09  +.!..8.#...!....
0970: 52 16 80 F8 FF FF 7F F8  FF FF 7F 73 30 34 36 01  R..........s046.
0980: AB 09 02 09 10 22 80 00  9C 09 52 16 80 F8 FF FF  ....."....R.....
0990: 7F F8 FF FF 7F 73 30 34  36 01 AB 09 52 16 80 F8  .....s046...R...
09A0: FF FF 7F F8 FF FF 7F 73  30 32 39 02 09 10 21 80  .......s029...!.
09B0: 00 C7 09 45 16 80 F8 FF  FF 7F F8 FF FF 7F 73 30  ...E..........s0
09C0: 33 33 06 80 01 10 0A 02  09 10 22 80 00 E3 09 45  33........"....E
09D0: 16 80 F8 FF FF 7F F8 FF  FF 7F 73 30 33 33 06 80  ..........s033..
09E0: 01 10 0A 02 09 10 18 80  00 FF 09 45 16 80 F8 FF  ...........E....
09F0: FF 7F F8 FF FF 7F 73 30  34 30 06 80 01 10 0A 45  ......s040.....E
0A00: 16 80 F8 FF FF 7F F8 FF  FF 7F 73 30 31 31 06 80  ..........s011..
0A10: 5D 06 80 07 80 6E 97 21  03 01 28 80 99 97 21 03  ]....n.!..(...!.
0A20: 01 2B 97 21 03 01 39 80  23 6E 97 21 03 01 3A 80  .+.!..9.#n.!..:.
0A30: 99 97 21 03 01 2B 97 21  03 01 3B 80 23 6E F0 FF  ..!..+.!..;.#n..
0A40: FF 7F 28 80 99 F0 FF FF  7F 1C 3C 80 02 09 10 21  ..(.......<....!
0A50: 80 00 66 0A 52 16 80 F8  FF FF 7F F8 FF FF 7F 73  ..f.R..........s
0A60: 30 33 33 01 A9 0A 02 09  10 22 80 00 80 0A 52 16  033......"....R.
0A70: 80 F8 FF FF 7F F8 FF FF  7F 73 30 33 33 01 A9 0A  .........s033...
0A80: 02 09 10 18 80 00 9A 0A  52 16 80 F8 FF FF 7F F8  ........R.......
0A90: FF FF 7F 73 30 34 30 01  A9 0A 52 16 80 F8 FF FF  ...s040...R.....
0AA0: 7F F8 FF FF 7F 73 30 31  31 45 16 80 F8 FF FF 7F  .....s011E......
0AB0: F8 FF FF 7F 73 30 31 32  06 80 4A F0 FF FF 7F 97  ....s012..J.....
0AC0: 21 03 01 6F 76 F0 FF FF  7F CD 3D 80 F0 FF FF 7F  !..ov.....=.....
0AD0: F0 FF FF 7F 73 74 61 72  06 80 1C 3E 80 66 3F 80  ....star...>.f?.
0AE0: 5C 21 03 01 5C 21 03 01  73 68 6B 30 1C 3E 80 66  \!..\!..shk0.>.f
0AF0: 00 80 5C 21 03 01 5C 21  03 01 7A 69 74 30 6E 97  ..\!..\!..zit0n.
0B00: 21 03 01 40 80 99 97 21  03 01 1C 3E 80 CD 3D 80  !..@...!...>..=.
0B10: F0 FF FF 7F F0 FF FF 7F  73 74 6F 70 06 80 1C 20  ........stop... 
0B20: 80 45 41 80 F0 FF FF 7F  F0 FF FF 7F 77 68 6F 31  .EA.........who1
0B30: 06 80 55 41 80 F0 FF FF  7F F0 FF FF 7F 77 68 6F  ..UA.........who
0B40: 31 52 16 80 F8 FF FF 7F  F8 FF FF 7F 73 30 31 32  1R..........s012
0B50: 2F 00 60 21 03 01 4E 00  60 21 03 01 80 60 21 03  /.`!..N.`!...`!.
0B60: 01 92 01 60 21 03 01 BA  60 21 03 01 42 80 43 80  ...`!...`!..B.C.
0B70: 03 80 44 80 4A 5C 21 03  01 60 21 03 01 4A F0 FF  ..D.J\!..`!..J..
0B80: FF 7F 60 21 03 01 4A 82  20 03 01 60 21 03 01 79  ..`!..J. ..`!..y
0B90: 00 53 20 03 01 60 21 03  01 79 00 97 21 03 01 60  .S ..`!..y..!..`
0BA0: 21 03 01 6F 76 5C 21 03  01 6F 76 F0 FF FF 7F 6B  !..ov\!..ov....k
0BB0: 69 64 6C 30 5C 21 03 01  45 16 80 F8 FF FF 7F F8  idl0\!..E.......
0BC0: FF FF 7F 73 30 31 33 06  80 CD 45 80 60 21 03 01  ...s013...E.`!..
0BD0: 60 21 03 01 6D 61 69 6E  06 80 6E 60 21 03 01 17  `!..main..n`!...
0BE0: 80 99 60 21 03 01 45 41  80 F0 FF FF 7F F0 FF FF  ..`!..EA........
0BF0: 7F 77 68 69 31 06 80 55  41 80 F0 FF FF 7F F0 FF  .whi1..UA.......
0C00: FF 7F 77 68 69 31 2B 60  21 03 01 46 80 1C 20 80  ..whi1+`!..F.. .
0C10: 23 6E 5C 21 03 01 47 80  99 5C 21 03 01 1C 48 80  #n\!..G..\!...H.
0C20: 52 16 80 F8 FF FF 7F F8  FF FF 7F 73 30 31 33 02  R..........s013.
0C30: 09 10 15 80 00 4B 0C 45  16 80 F8 FF FF 7F F8 FF  .....K.E........
0C40: FF 7F 73 30 34 32 06 80  01 CC 0C 02 09 10 17 80  ..s042..........
0C50: 00 67 0C 45 16 80 F8 FF  FF 7F F8 FF FF 7F 73 30  .g.E..........s0
0C60: 34 32 06 80 01 CC 0C 02  09 10 21 80 00 83 0C 45  42........!....E
0C70: 16 80 F8 FF FF 7F F8 FF  FF 7F 73 30 33 31 06 80  ..........s031..
0C80: 01 CC 0C 02 09 10 22 80  00 9F 0C 45 16 80 F8 FF  ......"....E....
0C90: FF 7F F8 FF FF 7F 73 30  33 31 06 80 01 CC 0C 02  ......s031......
0CA0: 09 10 18 80 00 BB 0C 45  16 80 F8 FF FF 7F F8 FF  .......E........
0CB0: FF 7F 73 30 34 32 06 80  01 CC 0C 45 16 80 F8 FF  ..s042.....E....
0CC0: FF 7F F8 FF FF 7F 73 30  32 35 06 80 59 05 60 21  ......s025..Y.`!
0CD0: 03 01 01 BA 60 21 03 01  49 80 4A 80 4B 80 4C 80  ....`!..I.J.K.L.
0CE0: 29 08 60 21 03 01 1D 5B  4D 80 60 21 03 01 60 21  ).`!...[M.`!..`!
0CF0: 03 01 67 6B 30 34 C5 4E  80 60 21 03 01 60 21 03  ..gk04.N.`!..`!.
0D00: 01 73 30 30 30 06 80 1C  00 80 1C 00 80 1C 00 80  .s000...........
0D10: 66 4F 80 5C 21 03 01 5C  21 03 01 62 69 6B 30 1C  fO.\!..\!..bik0.
0D20: 00 80 2B 60 21 03 01 50  80 1C 48 80 02 09 10 15  ..+`!..P..H.....
0D30: 80 00 46 0D 52 16 80 F8  FF FF 7F F8 FF FF 7F 73  ..F.R..........s
0D40: 30 34 32 01 BD 0D 02 09  10 17 80 00 60 0D 52 16  042.........`.R.
0D50: 80 F8 FF FF 7F F8 FF FF  7F 73 30 34 32 01 BD 0D  .........s042...
0D60: 02 09 10 21 80 00 7A 0D  52 16 80 F8 FF FF 7F F8  ...!..z.R.......
0D70: FF FF 7F 73 30 33 31 01  BD 0D 02 09 10 22 80 00  ...s031......"..
0D80: 94 0D 52 16 80 F8 FF FF  7F F8 FF FF 7F 73 30 33  ..R..........s03
0D90: 31 01 BD 0D 02 09 10 18  80 00 AE 0D 52 16 80 F8  1...........R...
0DA0: FF FF 7F F8 FF FF 7F 73  30 34 32 01 BD 0D 52 16  .......s042...R.
0DB0: 80 F8 FF FF 7F F8 FF FF  7F 73 30 32 35 45 16 80  .........s025E..
0DC0: F8 FF FF 7F F8 FF FF 7F  73 30 31 34 06 80 23 48  ........s014..#H
0DD0: 51 80 52 16 80 F8 FF FF  7F F8 FF FF 7F 73 30 31  Q.R..........s01
0DE0: 34 45 16 80 F8 FF FF 7F  F8 FF FF 7F 73 30 31 35  4E..........s015
0DF0: 06 80 79 00 97 21 03 01  5C 21 03 01 79 00 F0 FF  ..y..!..\!..y...
0E00: FF 7F 5C 21 03 01 1C 00  80 2B 5C 21 03 01 52 80  ..\!.....+\!..R.
0E10: 23 52 16 80 F8 FF FF 7F  F8 FF FF 7F 73 30 31 35  #R..........s015
0E20: 45 16 80 F8 FF FF 7F F8  FF FF 7F 73 30 31 36 06  E..........s016.
0E30: 80 2B 60 21 03 01 53 80  23 52 16 80 F8 FF FF 7F  .+`!..S.#R......
0E40: F8 FF FF 7F 73 30 31 36  45 16 80 F8 FF FF 7F F8  ....s016E.......
0E50: FF FF 7F 73 30 31 37 06  80 66 4F 80 5C 21 03 01  ...s017..fO.\!..
0E60: 5C 21 03 01 62 69 6B 31  1C 3E 80 2B 5C 21 03 01  \!..bik1.>.+\!..
0E70: 54 80 23 27 08 5C 21 03  01 26 1C 04 80 52 16 80  T.#'.\!..&...R..
0E80: F8 FF FF 7F F8 FF FF 7F  73 30 31 37 02 09 10 15  ........s017....
0E90: 80 00 A8 0E 45 16 80 F8  FF FF 7F F8 FF FF 7F 73  ....E..........s
0EA0: 30 34 33 06 80 01 0D 0F  02 09 10 21 80 00 C4 0E  043........!....
0EB0: 45 16 80 F8 FF FF 7F F8  FF FF 7F 73 30 33 32 06  E..........s032.
0EC0: 80 01 0D 0F 02 09 10 22  80 00 E0 0E 45 16 80 F8  ......."....E...
0ED0: FF FF 7F F8 FF FF 7F 73  30 33 32 06 80 01 0D 0F  .......s032.....
0EE0: 02 09 10 18 80 00 FC 0E  45 16 80 F8 FF FF 7F F8  ........E.......
0EF0: FF FF 7F 73 30 34 33 06  80 01 0D 0F 45 16 80 F8  ...s043.....E...
0F00: FF FF 7F F8 FF FF 7F 73  30 31 38 06 80 4A F0 FF  .......s018..J..
0F10: FF 7F 5C 21 03 01 1C 09  80 4A 97 21 03 01 60 21  ..\!.....J.!..`!
0F20: 03 01 6F 76 F0 FF FF 7F  02 09 10 15 80 00 42 0F  ..ov..........B.
0F30: 52 16 80 F8 FF FF 7F F8  FF FF 7F 73 30 34 33 01  R..........s043.
0F40: 9F 0F 02 09 10 21 80 00  5C 0F 52 16 80 F8 FF FF  .....!..\.R.....
0F50: 7F F8 FF FF 7F 73 30 33  32 01 9F 0F 02 09 10 22  .....s032......"
0F60: 80 00 76 0F 52 16 80 F8  FF FF 7F F8 FF FF 7F 73  ..v.R..........s
0F70: 30 33 32 01 9F 0F 02 09  10 18 80 00 90 0F 52 16  032...........R.
0F80: 80 F8 FF FF 7F F8 FF FF  7F 73 30 34 33 01 9F 0F  .........s043...
0F90: 52 16 80 F8 FF FF 7F F8  FF FF 7F 73 30 31 38 45  R..........s018E
0FA0: 16 80 F8 FF FF 7F F8 FF  FF 7F 73 30 31 39 06 80  ..........s019..
0FB0: 4A F0 FF FF 7F 5C 21 03  01 1C 48 80 6F 76 F0 FF  J....\!...H.ov..
0FC0: FF 7F 73 55 80 97 21 03  01 60 21 03 01 1C 48 80  ..sU..!..`!...H.
0FD0: 1C 48 80 52 16 80 F8 FF  FF 7F F8 FF FF 7F 73 30  .H.R..........s0
0FE0: 31 39 45 16 80 F8 FF FF  7F F8 FF FF 7F 73 30 33  19E..........s03
0FF0: 34 06 80 4A F0 FF FF 7F  60 21 03 01 1C 56 80 52  4..J....`!...V.R
1000: 16 80 F8 FF FF 7F F8 FF  FF 7F 73 30 33 34 45 16  ..........s034E.
1010: 80 F8 FF FF 7F F8 FF FF  7F 73 30 32 37 06 80 CD  .........s027...
1020: 57 80 60 21 03 01 60 21  03 01 6D 61 69 6E 06 80  W.`!..`!..main..
1030: C5 4E 80 60 21 03 01 60  21 03 01 73 30 30 31 06  .N.`!..`!..s001.
1040: 80 1C 31 80 1C 31 80 6F  76 F0 FF FF 7F 4A 97 21  ..1..1.ov....J.!
1050: 03 01 F0 FF FF 7F 52 16  80 F8 FF FF 7F F8 FF FF  ......R.........
1060: 7F 73 30 32 37 45 16 80  F8 FF FF 7F F8 FF FF 7F  .s027E..........
1070: 73 30 32 30 06 80 6F 76  97 21 03 01 7B 97 21 03  s020..ov.!..{.!.
1080: 01 79 00 F0 FF FF 7F 97  21 03 01 66 2A 80 97 21  .y......!..f*..!
1090: 03 01 97 21 03 01 74 68  6B 30 1C 09 80 2B 97 21  ...!..thk0...+.!
10A0: 03 01 58 80 23 2A 08 5C  21 03 01 52 16 80 F8 FF  ..X.#*.\!..R....
10B0: FF 7F F8 FF FF 7F 73 30  32 30 45 16 80 F8 FF FF  ......s020E.....
10C0: 7F F8 FF FF 7F 73 30 32  31 06 80 5D 23 80 07 80  .....s021..]#...
10D0: 66 00 80 5C 21 03 01 5C  21 03 01 67 6B 72 30 79  f..\!..\!..gkr0y
10E0: 00 97 21 03 01 F0 FF FF  7F 66 2A 80 97 21 03 01  ..!......f*..!..
10F0: 97 21 03 01 74 68 6B 31  2B 5C 21 03 01 59 80 23  .!..thk1+\!..Y.#
1100: 52 16 80 F8 FF FF 7F F8  FF FF 7F 73 30 32 31 45  R..........s021E
1110: 16 80 F8 FF FF 7F F8 FF  FF 7F 73 30 32 32 06 80  ..........s022..
1120: 66 00 80 5C 21 03 01 5C  21 03 01 67 6B 72 31 79  f..\!..\!..gkr1y
1130: 00 97 21 03 01 F0 FF FF  7F 2B 97 21 03 01 5A 80  ..!......+.!..Z.
1140: 23 52 16 80 F8 FF FF 7F  F8 FF FF 7F 73 30 32 32  #R..........s022
1150: 45 16 80 F8 FF FF 7F F8  FF FF 7F 73 30 35 30 06  E..........s050.
1160: 80 2B 97 21 03 01 5B 80  23 27 08 5C 21 03 01 27  .+.!..[.#'.\!..'
1170: 52 16 80 F8 FF FF 7F F8  FF FF 7F 73 30 35 30 02  R..........s050.
1180: 09 10 21 80 00 9B 11 45  16 80 F8 FF FF 7F F8 FF  ..!....E........
1190: FF 7F 73 30 33 35 06 80  01 E4 11 02 09 10 22 80  ..s035........".
11A0: 00 B7 11 45 16 80 F8 FF  FF 7F F8 FF FF 7F 73 30  ...E..........s0
11B0: 33 35 06 80 01 E4 11 02  09 10 18 80 00 D3 11 45  35.............E
11C0: 16 80 F8 FF FF 7F F8 FF  FF 7F 73 30 34 35 06 80  ..........s045..
11D0: 01 E4 11 45 16 80 F8 FF  FF 7F F8 FF FF 7F 73 30  ...E..........s0
11E0: 32 33 06 80 7B 97 21 03  01 5D 06 80 07 80 27 08  23..{.!..]....'.
11F0: 97 21 03 01 04 1C 5C 80  4A 5C 21 03 01 97 21 03  .!....\.J\!...!.
1200: 01 1C 3E 80 02 09 10 21  80 00 1E 12 52 16 80 F8  ..>....!....R...
1210: FF FF 7F F8 FF FF 7F 73  30 33 35 01 61 12 02 09  .......s035.a...
1220: 10 22 80 00 38 12 52 16  80 F8 FF FF 7F F8 FF FF  ."..8.R.........
1230: 7F 73 30 33 35 01 61 12  02 09 10 18 80 00 52 12  .s035.a.......R.
1240: 52 16 80 F8 FF FF 7F F8  FF FF 7F 73 30 34 35 01  R..........s045.
1250: 61 12 52 16 80 F8 FF FF  7F F8 FF FF 7F 73 30 32  a.R..........s02
1260: 33 45 16 80 F8 FF FF 7F  F8 FF FF 7F 73 30 32 34  3E..........s024
1270: 06 80 2A 08 97 21 03 01  1C 09 80 66 2A 80 97 21  ..*..!.....f*..!
1280: 03 01 97 21 03 01 73 61  73 30 1C 3C 80 2B 97 21  ...!..sas0.<.+.!
1290: 03 01 5D 80 23 45 08 80  F0 FF FF 7F F0 FF FF 7F  ..].#E..........
12A0: 66 64 6F 31 06 80 1C 09  80 59 05 60 21 03 01 00  fdo1.....Y.`!...
12B0: 29 08 60 21 03 01 1E 52  16 80 F8 FF FF 7F F8 FF  ).`!...R........
12C0: FF 7F 73 30 32 34 45 41  80 F8 FF FF 7F F8 FF FF  ..s024EA........
12D0: 7F 71 73 74 63 06 80 03  01 10 35 80 01 A8 13 02  .qstc.....5.....
12E0: 00 10 05 80 00 A8 13 02  09 10 15 80 00 01 13 52  ...............R
12F0: 16 80 F8 FF FF 7F F8 FF  FF 7F 73 30 34 34 01 44  ..........s044.D
1300: 13 02 09 10 17 80 00 1B  13 52 16 80 F8 FF FF 7F  .........R......
1310: F8 FF FF 7F 73 30 34 34  01 44 13 02 09 10 18 80  ....s044.D......
1320: 00 35 13 52 16 80 F8 FF  FF 7F F8 FF FF 7F 73 30  .5.R..........s0
1330: 34 34 01 44 13 52 16 80  F8 FF FF 7F F8 FF FF 7F  44.D.R..........
1340: 73 30 30 38 45 16 80 F8  FF FF 7F F8 FF FF 7F 73  s008E..........s
1350: 30 30 39 06 80 5D 06 80  07 80 6E 97 21 03 01 5E  009..]....n.!..^
1360: 80 99 97 21 03 01 2B 97  21 03 01 5F 80 23 27 08  ...!..+.!.._.#'.
1370: 97 21 03 01 03 2B 5C 21  03 01 60 80 23 45 08 80  .!...+\!..`.#E..
1380: F0 FF FF 7F F0 FF FF 7F  66 64 6F 31 06 80 1C 09  ........fdo1....
1390: 80 52 16 80 F8 FF FF 7F  F8 FF FF 7F 73 30 30 39  .R..........s009
13A0: 03 01 10 05 80 01 A8 13  5C 00 57 80 5C 01 57 80  ........\.W.\.W.
13B0: 9A 5D 23 80 05 80 4E 00  F0 FF FF 7F 80 F0 FF FF  .]#...N.........
13C0: 7F 46 00 45 08 80 F0 FF  FF 7F F0 FF FF 7F 66 64  .F.E..........fd
13D0: 69 31 06 80 20 00 21 00                           i1.. .!.        
```

#### Opcodes

```
  0: 0x0018 [0x20] SET_CLI_EVENT_UC_FLAG: Lock player control
  1: 0x001A [0x42] SET_CLI_EVENT_CANCEL_DATA()
  2: 0x001B [0x03] ExtData[1]->WorkLocal[0] = Work_Zone[5]
  3: 0x0020 [0x03] ExtData[1]->WorkLocal[1] = Work_Zone[9]
  4: 0x0025 [0x03] Work_Zone[1] = 1*
  5: 0x002A [0x46] CAMERA_CONTROL: Disable user control
  6: 0x002C [0x5D] SET_MUSIC_VOLUME(volume=0*, fade_time=400*)
  7: 0x0031 [0x45] LOAD_SCHEDULED_TASK: Load scheduler "fdo1" with entities [EventEntity, EventEntity], work=[200*, 0*]
  8: 0x0042 [0x1C] WAIT(60* ticks)
  9: 0x0045 [0x38] SET_CLIENT_EVENT_MODE(mode=19*)
 10: 0x0048 [0x75] LOAD_ROOM(Load indoor room, room=565*)
 11: 0x004C [0x75] LOAD_ROOM(No action)
 12: 0x004E [0x2F] Gadalar (ID: 16982423/0x01032197)->Render.Flags0 &= ~0x80000 // Bit 19
 13: 0x0054 [0x4E] SET_ENTITY_HIDE_FLAG: Show Gadalar (ID: 16982423/0x01032197)
 14: 0x005A [0x92] Gadalar (ID: 16982423/0x01032197)->Render.Flags3 ^= 0x01
 15: 0x0060 [0x92] Fari-Wari (ID: 16982364/0x0103215C)->Render.Flags3 ^= 0x01
 16: 0x0066 [0x92] Halbeeya (ID: 16982142/0x0103207E)->Render.Flags3 ^= 0x01
 17: 0x006C [0x92] Fayeewah (ID: 16982099/0x01032053)->Render.Flags3 ^= 0x01
 18: 0x0072 [0x92] Yafaaf (ID: 16982100/0x01032054)->Render.Flags3 ^= 0x01
 19: 0x0078 [0x92] Zubyahn (ID: 16982146/0x01032082)->Render.Flags3 ^= 0x01
 20: 0x007E [0x94] LocalPlayer->Render.Flags3 ^= 0x01
 21: 0x0084 [0x94] Fari-Wari (ID: 16982364/0x0103215C)->Render.Flags3 ^= 0x01
 22: 0x008A [0x22] ENTITY_HIDE_FLAG(enabled=0x01)
 23: 0x008C [0xBA] SET_ENTITY_POSITION(entity_id=LocalPlayer, pos_x=80.929*, pos_z=-134.431*, pos_y=-5.999*, direction=92.1°*)
 24: 0x0099 [0xBA] SET_ENTITY_POSITION(entity_id=Fari-Wari (ID: 16982364/0x0103215C), pos_x=80.391*, pos_z=-136.859*, pos_y=-6.000*, direction=92.1°*)
 25: 0x00A6 [0xBA] SET_ENTITY_POSITION(entity_id=Gadalar (ID: 16982423/0x01032197), pos_x=80.001*, pos_z=-123.116*, pos_y=-6.000*, direction=89.4°*)
 26: 0x00B3 [0x79] Zubyahn (ID: 16982146/0x01032082) looks at LocalPlayer (Basic look)
 27: 0x00BD [0x79] Halbeeya (ID: 16982142/0x0103207E) looks at LocalPlayer (Basic look)
 28: 0x00C7 [0x79] Fayeewah (ID: 16982099/0x01032053) looks at LocalPlayer (Basic look)
 29: 0x00D1 [0x79] Yafaaf (ID: 16982100/0x01032054) looks at LocalPlayer (Basic look)
 30: 0x00DB [0x4A] LocalPlayer looks at Fari-Wari (ID: 16982364/0x0103215C)
 31: 0x00E4 [0x4A] Fari-Wari (ID: 16982364/0x0103215C) looks at LocalPlayer
 32: 0x00ED [0x6F] WAIT_FRAME_DELAY: Yield until WaitTime reaches zero
 33: 0x00EE [0x76] CHECK_ENTITY_RENDER_FLAGS: Wait until Fari-Wari (ID: 16982364/0x0103215C) Render.Flags0 and Render.Flags3 conditions are met
 34: 0x00F3 [0x6F] WAIT_FRAME_DELAY: Yield until WaitTime reaches zero
 35: 0x00F4 [0x76] CHECK_ENTITY_RENDER_FLAGS: Wait until LocalPlayer Render.Flags0 and Render.Flags3 conditions are met
 36: 0x00F9 [0x80] LOAD_WAIT(entity=Gadalar (ID: 16982423/0x01032197))
 37: 0x00FE [0x80] LOAD_WAIT(entity=LocalPlayer)
 38: 0x0103 [0x03] Work_Zone[9] = LocalPlayer->Race
 39: 0x0108 [0x02] IF !(Work_Zone[9] == 3*) GOTO 0x0124
 40: 0x0110 [0x45] LOAD_SCHEDULED_TASK: Load scheduler "s036" with entities [EventEntity, EventEntity], work=[677*, 0*]
 41: 0x0121 [0x01] GOTO 0x016D
 42: 0x0124 [0x02] IF !(Work_Zone[9] == 4*) GOTO 0x0140
 43: 0x012C [0x45] LOAD_SCHEDULED_TASK: Load scheduler "s036" with entities [EventEntity, EventEntity], work=[677*, 0*]
 44: 0x013D [0x01] GOTO 0x016D
 45: 0x0140 [0x02] IF !(Work_Zone[9] == 8*) GOTO 0x015C
 46: 0x0148 [0x45] LOAD_SCHEDULED_TASK: Load scheduler "s036" with entities [EventEntity, EventEntity], work=[677*, 0*]
 47: 0x0159 [0x01] GOTO 0x016D
 48: 0x015C [0x45] LOAD_SCHEDULED_TASK: Load scheduler "s003" with entities [EventEntity, EventEntity], work=[677*, 0*]

SUBROUTINE_016D:
 49: 0x016D [0x45] LOAD_SCHEDULED_TASK: Load scheduler "fdi1" with entities [EventEntity, EventEntity], work=[200*, 0*]
 50: 0x017E [0x66] LOAD_EXT_SCHEDULER_MAIN: Load scheduler "tlk0" with entities [Fari-Wari (ID: 16982364/0x0103215C), Fari-Wari (ID: 16982364/0x0103215C)], work=49*
 51: 0x018D [0x2B] Fari-Wari (ID: 16982364/0x0103215C) [15426*]:
    → "Ah! Ah! He's here looking for another minion!"
 52: 0x0194 [0x23] WAIT_FOR_DIALOG_INTERACTION
 53: 0x0195 [0x66] LOAD_EXT_SCHEDULER_MAIN: Load scheduler "tlk1" with entities [Fari-Wari (ID: 16982364/0x0103215C), Fari-Wari (ID: 16982364/0x0103215C)], work=49*
 54: 0x01A4 [0x2B] Fari-Wari (ID: 16982364/0x0103215C) [15427*]:
    → "Oh! You look fire retardant. Ahem, have you heard General Gadalar is looking for a new, er, companion?"
 55: 0x01AB [0x23] WAIT_FOR_DIALOG_INTERACTION
 56: 0x01AC [0x02] IF !(Work_Zone[9] == 3*) GOTO 0x01C6
 57: 0x01B4 [0x52] END_LOAD_SCHEDULER: End scheduler "s036" with entities [EventEntity, EventEntity], work=677*
 58: 0x01C3 [0x01] GOTO 0x0209
 59: 0x01C6 [0x02] IF !(Work_Zone[9] == 4*) GOTO 0x01E0
 60: 0x01CE [0x52] END_LOAD_SCHEDULER: End scheduler "s036" with entities [EventEntity, EventEntity], work=677*
 61: 0x01DD [0x01] GOTO 0x0209
 62: 0x01E0 [0x02] IF !(Work_Zone[9] == 8*) GOTO 0x01FA
 63: 0x01E8 [0x52] END_LOAD_SCHEDULER: End scheduler "s036" with entities [EventEntity, EventEntity], work=677*
 64: 0x01F7 [0x01] GOTO 0x0209
 65: 0x01FA [0x52] END_LOAD_SCHEDULER: End scheduler "s003" with entities [EventEntity, EventEntity], work=677*

SUBROUTINE_0209:
 66: 0x0209 [0x45] LOAD_SCHEDULED_TASK: Load scheduler "s004" with entities [EventEntity, EventEntity], work=[677*, 0*]
 67: 0x021A [0x79] Yafaaf (ID: 16982100/0x01032054) looks at Fari-Wari (ID: 16982364/0x0103215C) (Basic look)
 68: 0x0224 [0x66] LOAD_EXT_SCHEDULER_MAIN: Load scheduler "dis0" with entities [Fari-Wari (ID: 16982364/0x0103215C), Fari-Wari (ID: 16982364/0x0103215C)], work=40*
 69: 0x0233 [0x2B] Fari-Wari (ID: 16982364/0x0103215C) [15428*]:
    → "<Sigh> If he keeps Firagaing everywhere, I think I'm going to scream. Doesn't he know how tough it is running things around here?"
 70: 0x023A [0x23] WAIT_FOR_DIALOG_INTERACTION
 71: 0x023B [0x27] REQ_SET(priority=0x08, entity_id=Gadalar (ID: 16982423/0x01032197), tag_num=0x02)
 72: 0x0242 [0x79] Fari-Wari (ID: 16982364/0x0103215C) looks at Gadalar (ID: 16982423/0x01032197) (Basic look)
 73: 0x024C [0x1C] WAIT(30* ticks)
 74: 0x024F [0x52] END_LOAD_SCHEDULER: End scheduler "s004" with entities [EventEntity, EventEntity], work=677*
 75: 0x025E [0x02] IF !(Work_Zone[9] == 8*) GOTO 0x027A
 76: 0x0266 [0x45] LOAD_SCHEDULED_TASK: Load scheduler "s037" with entities [EventEntity, EventEntity], work=[677*, 0*]
 77: 0x0277 [0x01] GOTO 0x028B
 78: 0x027A [0x45] LOAD_SCHEDULED_TASK: Load scheduler "s005" with entities [EventEntity, EventEntity], work=[677*, 0*]

SUBROUTINE_028B:
 79: 0x028B [0x2B] Fari-Wari (ID: 16982364/0x0103215C) [15429*]:
    → "And speaking of the devil--!"
 80: 0x0292 [0x23] WAIT_FOR_DIALOG_INTERACTION
 81: 0x0293 [0x1C] WAIT(60* ticks)
 82: 0x0296 [0x79] LocalPlayer looks at Gadalar (ID: 16982423/0x01032197) (Basic look)
 83: 0x02A0 [0x02] IF !(Work_Zone[9] == 8*) GOTO 0x02B2
 84: 0x02A8 [0x4B] UPDATE_ENTITY_YAW(entity=LocalPlayer, yaw=11.0°*)
 85: 0x02AF [0x01] GOTO 0x02B9
 86: 0x02B2 [0x4B] UPDATE_ENTITY_YAW(entity=LocalPlayer, yaw=12.1°*)

SUBROUTINE_02B9:
 87: 0x02B9 [0x4A] Zubyahn (ID: 16982146/0x01032082) looks at Gadalar (ID: 16982423/0x01032197)
 88: 0x02C2 [0x6F] WAIT_FRAME_DELAY: Yield until WaitTime reaches zero
 89: 0x02C3 [0x76] CHECK_ENTITY_RENDER_FLAGS: Wait until LocalPlayer Render.Flags0 and Render.Flags3 conditions are met
 90: 0x02C8 [0x02] IF !(Work_Zone[9] == 8*) GOTO 0x02E2
 91: 0x02D0 [0x52] END_LOAD_SCHEDULER: End scheduler "s037" with entities [EventEntity, EventEntity], work=677*
 92: 0x02DF [0x01] GOTO 0x02F1
 93: 0x02E2 [0x52] END_LOAD_SCHEDULER: End scheduler "s005" with entities [EventEntity, EventEntity], work=677*

SUBROUTINE_02F1:
 94: 0x02F1 [0x02] IF !(Work_Zone[9] == 8*) GOTO 0x030D
 95: 0x02F9 [0x45] LOAD_SCHEDULED_TASK: Load scheduler "s038" with entities [EventEntity, EventEntity], work=[677*, 0*]
 96: 0x030A [0x01] GOTO 0x031E
 97: 0x030D [0x45] LOAD_SCHEDULED_TASK: Load scheduler "s006" with entities [EventEntity, EventEntity], work=[677*, 0*]

SUBROUTINE_031E:
 98: 0x031E [0x79] Yafaaf (ID: 16982100/0x01032054) looks at Gadalar (ID: 16982423/0x01032197) (Basic look)
 99: 0x0328 [0x1C] WAIT(120* ticks)
100: 0x032B [0x79] Gadalar (ID: 16982423/0x01032197) looks at LocalPlayer (Basic look)
101: 0x0335 [0x02] IF !(Work_Zone[9] == 8*) GOTO 0x034F
102: 0x033D [0x52] END_LOAD_SCHEDULER: End scheduler "s038" with entities [EventEntity, EventEntity], work=677*
103: 0x034C [0x01] GOTO 0x035E
104: 0x034F [0x52] END_LOAD_SCHEDULER: End scheduler "s006" with entities [EventEntity, EventEntity], work=677*

SUBROUTINE_035E:
105: 0x035E [0x02] IF !(Work_Zone[9] == 3*) GOTO 0x037A
106: 0x0366 [0x45] LOAD_SCHEDULED_TASK: Load scheduler "s041" with entities [EventEntity, EventEntity], work=[677*, 0*]
107: 0x0377 [0x01] GOTO 0x03FB
108: 0x037A [0x02] IF !(Work_Zone[9] == 4*) GOTO 0x0396
109: 0x0382 [0x45] LOAD_SCHEDULED_TASK: Load scheduler "s041" with entities [EventEntity, EventEntity], work=[677*, 0*]
110: 0x0393 [0x01] GOTO 0x03FB
111: 0x0396 [0x02] IF !(Work_Zone[9] == 5*) GOTO 0x03B2
112: 0x039E [0x45] LOAD_SCHEDULED_TASK: Load scheduler "s030" with entities [EventEntity, EventEntity], work=[677*, 0*]
113: 0x03AF [0x01] GOTO 0x03FB
114: 0x03B2 [0x02] IF !(Work_Zone[9] == 6*) GOTO 0x03CE
115: 0x03BA [0x45] LOAD_SCHEDULED_TASK: Load scheduler "s030" with entities [EventEntity, EventEntity], work=[677*, 0*]
116: 0x03CB [0x01] GOTO 0x03FB
117: 0x03CE [0x02] IF !(Work_Zone[9] == 8*) GOTO 0x03EA
118: 0x03D6 [0x45] LOAD_SCHEDULED_TASK: Load scheduler "s041" with entities [EventEntity, EventEntity], work=[677*, 0*]
119: 0x03E7 [0x01] GOTO 0x03FB
120: 0x03EA [0x45] LOAD_SCHEDULED_TASK: Load scheduler "s007" with entities [EventEntity, EventEntity], work=[677*, 0*]

SUBROUTINE_03FB:
121: 0x03FB [0x5C] MUSIC_CONTROL: Set Idle (Day) music to song 120*
122: 0x03FF [0x5C] MUSIC_CONTROL: Set Idle (Night) music to song 120*
123: 0x0403 [0x9A] WAIT_MUSIC_SERVER()
124: 0x0404 [0x5D] SET_MUSIC_VOLUME(volume=127*, fade_time=1*)
125: 0x0409 [0x2B] Gadalar (ID: 16982423/0x01032197) [15430*]:
    → "<Player>. Imagine that."
126: 0x0410 [0x23] WAIT_FOR_DIALOG_INTERACTION
127: 0x0411 [0x2A] GET_REQ_LEVEL(level=8, entity_id=Gadalar (ID: 16982423/0x01032197))
128: 0x0417 [0x02] IF !(Work_Zone[9] == 3*) GOTO 0x0431
129: 0x041F [0x52] END_LOAD_SCHEDULER: End scheduler "s041" with entities [EventEntity, EventEntity], work=677*
130: 0x042E [0x01] GOTO 0x04A8
131: 0x0431 [0x02] IF !(Work_Zone[9] == 4*) GOTO 0x044B
132: 0x0439 [0x52] END_LOAD_SCHEDULER: End scheduler "s041" with entities [EventEntity, EventEntity], work=677*
133: 0x0448 [0x01] GOTO 0x04A8
134: 0x044B [0x02] IF !(Work_Zone[9] == 5*) GOTO 0x0465
135: 0x0453 [0x52] END_LOAD_SCHEDULER: End scheduler "s030" with entities [EventEntity, EventEntity], work=677*
136: 0x0462 [0x01] GOTO 0x04A8
137: 0x0465 [0x02] IF !(Work_Zone[9] == 6*) GOTO 0x047F
138: 0x046D [0x52] END_LOAD_SCHEDULER: End scheduler "s030" with entities [EventEntity, EventEntity], work=677*
139: 0x047C [0x01] GOTO 0x04A8
140: 0x047F [0x02] IF !(Work_Zone[9] == 8*) GOTO 0x0499
141: 0x0487 [0x52] END_LOAD_SCHEDULER: End scheduler "s041" with entities [EventEntity, EventEntity], work=677*
142: 0x0496 [0x01] GOTO 0x04A8
143: 0x0499 [0x52] END_LOAD_SCHEDULER: End scheduler "s007" with entities [EventEntity, EventEntity], work=677*

SUBROUTINE_04A8:
144: 0x04A8 [0x02] IF !(Work_Zone[9] == 3*) GOTO 0x04C4
145: 0x04B0 [0x45] LOAD_SCHEDULED_TASK: Load scheduler "s044" with entities [EventEntity, EventEntity], work=[677*, 0*]
146: 0x04C1 [0x01] GOTO 0x050D
147: 0x04C4 [0x02] IF !(Work_Zone[9] == 4*) GOTO 0x04E0
148: 0x04CC [0x45] LOAD_SCHEDULED_TASK: Load scheduler "s044" with entities [EventEntity, EventEntity], work=[677*, 0*]
149: 0x04DD [0x01] GOTO 0x050D
150: 0x04E0 [0x02] IF !(Work_Zone[9] == 8*) GOTO 0x04FC
151: 0x04E8 [0x45] LOAD_SCHEDULED_TASK: Load scheduler "s044" with entities [EventEntity, EventEntity], work=[677*, 0*]
152: 0x04F9 [0x01] GOTO 0x050D
153: 0x04FC [0x45] LOAD_SCHEDULED_TASK: Load scheduler "s008" with entities [EventEntity, EventEntity], work=[677*, 0*]

SUBROUTINE_050D:
154: 0x050D [0x2B] Gadalar (ID: 16982423/0x01032197) [15431*]:
    → "You hail from the Middle Lands, correct?"
155: 0x0514 [0x23] WAIT_FOR_DIALOG_INTERACTION
156: 0x0515 [0x2B] Gadalar (ID: 16982423/0x01032197) [15432*]:
    → "Then I assume you're after one thing. Out with it."
157: 0x051C [0x23] WAIT_FOR_DIALOG_INTERACTION
158: 0x051D [0x24] CREATE_DIALOG(message_id=15433*, default_option=0*, option_flags=0*)
    → "What's the one thing you're after? [His alter ego./A...pleasant soir<Player>ie?]"
159: 0x0524 [0x25] WAIT_DIALOG_SELECT()
160: 0x0525 [0x02] IF !(Work_Zone[0] == 0*) GOTO 0x12DF
161: 0x052D [0x6E] Gadalar (ID: 16982423/0x01032197) uses emote 7*
162: 0x0534 [0x99] Wait for Gadalar (ID: 16982423/0x01032197) animation to complete
163: 0x0539 [0x2B] Gadalar (ID: 16982423/0x01032197) [15436*]:
    → "Just as I suspected."
164: 0x0540 [0x23] WAIT_FOR_DIALOG_INTERACTION
165: 0x0541 [0x02] IF !(Work_Zone[9] == 3*) GOTO 0x055B
166: 0x0549 [0x52] END_LOAD_SCHEDULER: End scheduler "s044" with entities [EventEntity, EventEntity], work=677*
167: 0x0558 [0x01] GOTO 0x059E
168: 0x055B [0x02] IF !(Work_Zone[9] == 4*) GOTO 0x0575
169: 0x0563 [0x52] END_LOAD_SCHEDULER: End scheduler "s044" with entities [EventEntity, EventEntity], work=677*
170: 0x0572 [0x01] GOTO 0x059E
171: 0x0575 [0x02] IF !(Work_Zone[9] == 8*) GOTO 0x058F
172: 0x057D [0x52] END_LOAD_SCHEDULER: End scheduler "s044" with entities [EventEntity, EventEntity], work=677*
173: 0x058C [0x01] GOTO 0x059E
174: 0x058F [0x52] END_LOAD_SCHEDULER: End scheduler "s008" with entities [EventEntity, EventEntity], work=677*

SUBROUTINE_059E:
175: 0x059E [0x02] IF !(Work_Zone[9] == 8*) GOTO 0x05BA
176: 0x05A6 [0x45] LOAD_SCHEDULED_TASK: Load scheduler "s039" with entities [EventEntity, EventEntity], work=[677*, 0*]
177: 0x05B7 [0x01] GOTO 0x05CB
178: 0x05BA [0x45] LOAD_SCHEDULED_TASK: Load scheduler "s010" with entities [EventEntity, EventEntity], work=[677*, 0*]

SUBROUTINE_05CB:
179: 0x05CB [0x66] LOAD_EXT_SCHEDULER_MAIN: Load scheduler "tlk0" with entities [Gadalar (ID: 16982423/0x01032197), Gadalar (ID: 16982423/0x01032197)], work=149*
180: 0x05DA [0x2B] Gadalar (ID: 16982423/0x01032197) [15437*]:
    → "We've known each other for how long, now? I'm not the least bit surprised that you would ask for my assistance."
181: 0x05E1 [0x23] WAIT_FOR_DIALOG_INTERACTION
182: 0x05E2 [0x2B] Gadalar (ID: 16982423/0x01032197) [15438*]:
    → "The institute went on and on about "bonds." Hopefully they didn't mean physical ones. Assuming they didn't, they must be referring to that incident with Shayeeha."
183: 0x05E9 [0x23] WAIT_FOR_DIALOG_INTERACTION
184: 0x05EA [0x66] LOAD_EXT_SCHEDULER_MAIN: Load scheduler "tlk1" with entities [Gadalar (ID: 16982423/0x01032197), Gadalar (ID: 16982423/0x01032197)], work=149*
185: 0x05F9 [0x1C] WAIT(60* ticks)
186: 0x05FC [0x02] IF !(Work_Zone[9] == 8*) GOTO 0x0616
187: 0x0604 [0x52] END_LOAD_SCHEDULER: End scheduler "s039" with entities [EventEntity, EventEntity], work=677*
188: 0x0613 [0x01] GOTO 0x0625
189: 0x0616 [0x52] END_LOAD_SCHEDULER: End scheduler "s010" with entities [EventEntity, EventEntity], work=677*

SUBROUTINE_0625:
190: 0x0625 [0x02] IF !(ExtData[1]->WorkLocal[1] == 1*) GOTO 0x072F
191: 0x062D [0x02] IF !(Work_Zone[9] == 5*) GOTO 0x0649
192: 0x0635 [0x45] LOAD_SCHEDULED_TASK: Load scheduler "s052" with entities [EventEntity, EventEntity], work=[677*, 0*]
193: 0x0646 [0x01] GOTO 0x0692
194: 0x0649 [0x02] IF !(Work_Zone[9] == 6*) GOTO 0x0665
195: 0x0651 [0x45] LOAD_SCHEDULED_TASK: Load scheduler "s052" with entities [EventEntity, EventEntity], work=[677*, 0*]
196: 0x0662 [0x01] GOTO 0x0692
197: 0x0665 [0x02] IF !(Work_Zone[9] == 8*) GOTO 0x0681
198: 0x066D [0x45] LOAD_SCHEDULED_TASK: Load scheduler "s047" with entities [EventEntity, EventEntity], work=[677*, 0*]
199: 0x067E [0x01] GOTO 0x0692
200: 0x0681 [0x45] LOAD_SCHEDULED_TASK: Load scheduler "s049" with entities [EventEntity, EventEntity], work=[677*, 0*]

SUBROUTINE_0692:
201: 0x0692 [0x1C] WAIT(30* ticks)
202: 0x0695 [0x6E] Gadalar (ID: 16982423/0x01032197) uses emote 21*
203: 0x069C [0x99] Wait for Gadalar (ID: 16982423/0x01032197) animation to complete
204: 0x06A1 [0x2B] Gadalar (ID: 16982423/0x01032197) [15439*]:
    → "Wait. You've already undergone the ritual with Mihli Aliapoh?"
205: 0x06A8 [0x1C] WAIT(60* ticks)
206: 0x06AB [0x23] WAIT_FOR_DIALOG_INTERACTION
207: 0x06AC [0x6E] LocalPlayer uses emote 7*
208: 0x06B3 [0x99] Wait for LocalPlayer animation to complete
209: 0x06B8 [0x1C] WAIT(30* ticks)
210: 0x06BB [0x6E] Gadalar (ID: 16982423/0x01032197) uses emote 33*
211: 0x06C2 [0x99] Wait for Gadalar (ID: 16982423/0x01032197) animation to complete
212: 0x06C7 [0x2B] Gadalar (ID: 16982423/0x01032197) [15440*]:
    → "Damn that Mithra! Every time I think I've bested her, she's one step ahead of me...!"
213: 0x06CE [0x1C] WAIT(60* ticks)
214: 0x06D1 [0x23] WAIT_FOR_DIALOG_INTERACTION
215: 0x06D2 [0x02] IF !(Work_Zone[9] == 5*) GOTO 0x06EC
216: 0x06DA [0x52] END_LOAD_SCHEDULER: End scheduler "s052" with entities [EventEntity, EventEntity], work=677*
217: 0x06E9 [0x01] GOTO 0x072F
218: 0x06EC [0x02] IF !(Work_Zone[9] == 6*) GOTO 0x0706
219: 0x06F4 [0x52] END_LOAD_SCHEDULER: End scheduler "s052" with entities [EventEntity, EventEntity], work=677*
220: 0x0703 [0x01] GOTO 0x072F
221: 0x0706 [0x02] IF !(Work_Zone[9] == 8*) GOTO 0x0720
222: 0x070E [0x52] END_LOAD_SCHEDULER: End scheduler "s047" with entities [EventEntity, EventEntity], work=677*
223: 0x071D [0x01] GOTO 0x072F
224: 0x0720 [0x52] END_LOAD_SCHEDULER: End scheduler "s049" with entities [EventEntity, EventEntity], work=677*

SUBROUTINE_072F:
225: 0x072F [0x3E] IF !(ExtData[1]->WorkLocal[0] bit 1*) GOTO 0x08E2
226: 0x0736 [0x45] LOAD_SCHEDULED_TASK: Load scheduler "s028" with entities [EventEntity, EventEntity], work=[677*, 0*]
227: 0x0747 [0x03] Work_Zone[9] = ExtData[1]->WorkLocal[1]
228: 0x074C [0x7B] Gadalar (ID: 16982423/0x01032197) stops talking
229: 0x0751 [0x66] LOAD_EXT_SCHEDULER_MAIN: Load scheduler "thk0" with entities [Gadalar (ID: 16982423/0x01032197), Gadalar (ID: 16982423/0x01032197)], work=149*
230: 0x0760 [0x1C] WAIT(80* ticks)
231: 0x0763 [0x2B] Gadalar (ID: 16982423/0x01032197) [15441*]:
    → "[That/Bah. Forget her. Turning back to you--that] was something, wasn't it? I've never seen such a wonderful display of savagery!"
232: 0x076A [0x23] WAIT_FOR_DIALOG_INTERACTION
233: 0x076B [0x52] END_LOAD_SCHEDULER: End scheduler "s028" with entities [EventEntity, EventEntity], work=677*
234: 0x077A [0x03] Work_Zone[9] = LocalPlayer->Race
235: 0x077F [0x02] IF !(Work_Zone[9] == 3*) GOTO 0x079B
236: 0x0787 [0x45] LOAD_SCHEDULED_TASK: Load scheduler "s048" with entities [EventEntity, EventEntity], work=[677*, 0*]
237: 0x0798 [0x01] GOTO 0x081C
238: 0x079B [0x02] IF !(Work_Zone[9] == 4*) GOTO 0x07B7
239: 0x07A3 [0x45] LOAD_SCHEDULED_TASK: Load scheduler "s048" with entities [EventEntity, EventEntity], work=[677*, 0*]
240: 0x07B4 [0x01] GOTO 0x081C
241: 0x07B7 [0x02] IF !(Work_Zone[9] == 5*) GOTO 0x07D3
242: 0x07BF [0x45] LOAD_SCHEDULED_TASK: Load scheduler "s051" with entities [EventEntity, EventEntity], work=[677*, 0*]
243: 0x07D0 [0x01] GOTO 0x081C
244: 0x07D3 [0x02] IF !(Work_Zone[9] == 6*) GOTO 0x07EF
245: 0x07DB [0x45] LOAD_SCHEDULED_TASK: Load scheduler "s051" with entities [EventEntity, EventEntity], work=[677*, 0*]
246: 0x07EC [0x01] GOTO 0x081C
247: 0x07EF [0x02] IF !(Work_Zone[9] == 8*) GOTO 0x080B
248: 0x07F7 [0x45] LOAD_SCHEDULED_TASK: Load scheduler "s048" with entities [EventEntity, EventEntity], work=[677*, 0*]
249: 0x0808 [0x01] GOTO 0x081C
250: 0x080B [0x45] LOAD_SCHEDULED_TASK: Load scheduler "s053" with entities [EventEntity, EventEntity], work=[677*, 0*]

SUBROUTINE_081C:
251: 0x081C [0x79] Gadalar (ID: 16982423/0x01032197) looks at LocalPlayer (Basic look)
252: 0x0826 [0x66] LOAD_EXT_SCHEDULER_MAIN: Load scheduler "thk1" with entities [Gadalar (ID: 16982423/0x01032197), Gadalar (ID: 16982423/0x01032197)], work=149*
253: 0x0835 [0x2B] Gadalar (ID: 16982423/0x01032197) [15442*]:
    → "When the light of judgment threatened to rip the empire in two, you refused to back down, choosing instead to face it head-on."
254: 0x083C [0x23] WAIT_FOR_DIALOG_INTERACTION
255: 0x083D [0x6E] Gadalar (ID: 16982423/0x01032197) uses emote 6*
256: 0x0844 [0x99] Wait for Gadalar (ID: 16982423/0x01032197) animation to complete
257: 0x0849 [0x2B] Gadalar (ID: 16982423/0x01032197) [15443*]:
    → "I couldn't believe my ears when I heard the rumors. But now...well, I don't believe they were far off.."
258: 0x0850 [0x23] WAIT_FOR_DIALOG_INTERACTION
259: 0x0851 [0x02] IF !(Work_Zone[9] == 3*) GOTO 0x086B
260: 0x0859 [0x52] END_LOAD_SCHEDULER: End scheduler "s048" with entities [EventEntity, EventEntity], work=677*
261: 0x0868 [0x01] GOTO 0x08E2
262: 0x086B [0x02] IF !(Work_Zone[9] == 4*) GOTO 0x0885
263: 0x0873 [0x52] END_LOAD_SCHEDULER: End scheduler "s048" with entities [EventEntity, EventEntity], work=677*
264: 0x0882 [0x01] GOTO 0x08E2
265: 0x0885 [0x02] IF !(Work_Zone[9] == 5*) GOTO 0x089F
266: 0x088D [0x52] END_LOAD_SCHEDULER: End scheduler "s051" with entities [EventEntity, EventEntity], work=677*
267: 0x089C [0x01] GOTO 0x08E2
268: 0x089F [0x02] IF !(Work_Zone[9] == 6*) GOTO 0x08B9
269: 0x08A7 [0x52] END_LOAD_SCHEDULER: End scheduler "s051" with entities [EventEntity, EventEntity], work=677*
270: 0x08B6 [0x01] GOTO 0x08E2
271: 0x08B9 [0x02] IF !(Work_Zone[9] == 8*) GOTO 0x08D3
272: 0x08C1 [0x52] END_LOAD_SCHEDULER: End scheduler "s048" with entities [EventEntity, EventEntity], work=677*
273: 0x08D0 [0x01] GOTO 0x08E2
274: 0x08D3 [0x52] END_LOAD_SCHEDULER: End scheduler "s053" with entities [EventEntity, EventEntity], work=677*

SUBROUTINE_08E2:
275: 0x08E2 [0x3E] IF !(ExtData[1]->WorkLocal[0] bit 2*) GOTO 0x09AB
276: 0x08E9 [0x02] IF !(Work_Zone[9] == 5*) GOTO 0x0905
277: 0x08F1 [0x45] LOAD_SCHEDULED_TASK: Load scheduler "s046" with entities [EventEntity, EventEntity], work=[677*, 0*]
278: 0x0902 [0x01] GOTO 0x0932
279: 0x0905 [0x02] IF !(Work_Zone[9] == 6*) GOTO 0x0921
280: 0x090D [0x45] LOAD_SCHEDULED_TASK: Load scheduler "s046" with entities [EventEntity, EventEntity], work=[677*, 0*]
281: 0x091E [0x01] GOTO 0x0932
282: 0x0921 [0x45] LOAD_SCHEDULED_TASK: Load scheduler "s029" with entities [EventEntity, EventEntity], work=[677*, 0*]

SUBROUTINE_0932:
283: 0x0932 [0x66] LOAD_EXT_SCHEDULER_MAIN: Load scheduler "tlk0" with entities [Gadalar (ID: 16982423/0x01032197), Gadalar (ID: 16982423/0x01032197)], work=149*
284: 0x0941 [0x2B] Gadalar (ID: 16982423/0x01032197) [15444*]:
    → "Oh, but I forgot to share one important thing with you."
285: 0x0948 [0x23] WAIT_FOR_DIALOG_INTERACTION
286: 0x0949 [0x2B] Gadalar (ID: 16982423/0x01032197) [15445*]:
    → "It pains me to say this, but you sure unleashed the fury of the deepest hells when you fought us five Serpent Generals."
287: 0x0950 [0x23] WAIT_FOR_DIALOG_INTERACTION
288: 0x0951 [0x66] LOAD_EXT_SCHEDULER_MAIN: Load scheduler "tlk1" with entities [Gadalar (ID: 16982423/0x01032197), Gadalar (ID: 16982423/0x01032197)], work=149*
289: 0x0960 [0x2B] Gadalar (ID: 16982423/0x01032197) [15446*]:
    → "Although I suppose there are more than five now...isn't that right, Sixth Serpent?"
290: 0x0967 [0x23] WAIT_FOR_DIALOG_INTERACTION
291: 0x0968 [0x02] IF !(Work_Zone[9] == 5*) GOTO 0x0982
292: 0x0970 [0x52] END_LOAD_SCHEDULER: End scheduler "s046" with entities [EventEntity, EventEntity], work=677*
293: 0x097F [0x01] GOTO 0x09AB
294: 0x0982 [0x02] IF !(Work_Zone[9] == 6*) GOTO 0x099C
295: 0x098A [0x52] END_LOAD_SCHEDULER: End scheduler "s046" with entities [EventEntity, EventEntity], work=677*
296: 0x0999 [0x01] GOTO 0x09AB
297: 0x099C [0x52] END_LOAD_SCHEDULER: End scheduler "s029" with entities [EventEntity, EventEntity], work=677*

SUBROUTINE_09AB:
298: 0x09AB [0x02] IF !(Work_Zone[9] == 5*) GOTO 0x09C7
299: 0x09B3 [0x45] LOAD_SCHEDULED_TASK: Load scheduler "s033" with entities [EventEntity, EventEntity], work=[677*, 0*]
300: 0x09C4 [0x01] GOTO 0x0A10
301: 0x09C7 [0x02] IF !(Work_Zone[9] == 6*) GOTO 0x09E3
302: 0x09CF [0x45] LOAD_SCHEDULED_TASK: Load scheduler "s033" with entities [EventEntity, EventEntity], work=[677*, 0*]
303: 0x09E0 [0x01] GOTO 0x0A10
304: 0x09E3 [0x02] IF !(Work_Zone[9] == 8*) GOTO 0x09FF
305: 0x09EB [0x45] LOAD_SCHEDULED_TASK: Load scheduler "s040" with entities [EventEntity, EventEntity], work=[677*, 0*]
306: 0x09FC [0x01] GOTO 0x0A10
307: 0x09FF [0x45] LOAD_SCHEDULED_TASK: Load scheduler "s011" with entities [EventEntity, EventEntity], work=[677*, 0*]

SUBROUTINE_0A10:
308: 0x0A10 [0x5D] SET_MUSIC_VOLUME(volume=0*, fade_time=400*)
309: 0x0A15 [0x6E] Gadalar (ID: 16982423/0x01032197) uses emote 7*
310: 0x0A1C [0x99] Wait for Gadalar (ID: 16982423/0x01032197) animation to complete
311: 0x0A21 [0x2B] Gadalar (ID: 16982423/0x01032197) [15447*]:
    → "Surely this will suffice. Those robed fools couldn't possibly want any more of us."
312: 0x0A28 [0x23] WAIT_FOR_DIALOG_INTERACTION
313: 0x0A29 [0x6E] Gadalar (ID: 16982423/0x01032197) uses emote 16*
314: 0x0A30 [0x99] Wait for Gadalar (ID: 16982423/0x01032197) animation to complete
315: 0x0A35 [0x2B] Gadalar (ID: 16982423/0x01032197) [15448*]:
    → "If you want to do this, make it snappy. I'm just as inclined to forget all about this ordeal."
316: 0x0A3C [0x23] WAIT_FOR_DIALOG_INTERACTION
317: 0x0A3D [0x6E] LocalPlayer uses emote 7*
318: 0x0A44 [0x99] Wait for LocalPlayer animation to complete
319: 0x0A49 [0x1C] WAIT(90* ticks)
320: 0x0A4C [0x02] IF !(Work_Zone[9] == 5*) GOTO 0x0A66
321: 0x0A54 [0x52] END_LOAD_SCHEDULER: End scheduler "s033" with entities [EventEntity, EventEntity], work=677*
322: 0x0A63 [0x01] GOTO 0x0AA9
323: 0x0A66 [0x02] IF !(Work_Zone[9] == 6*) GOTO 0x0A80
324: 0x0A6E [0x52] END_LOAD_SCHEDULER: End scheduler "s033" with entities [EventEntity, EventEntity], work=677*
325: 0x0A7D [0x01] GOTO 0x0AA9
326: 0x0A80 [0x02] IF !(Work_Zone[9] == 8*) GOTO 0x0A9A
327: 0x0A88 [0x52] END_LOAD_SCHEDULER: End scheduler "s040" with entities [EventEntity, EventEntity], work=677*
328: 0x0A97 [0x01] GOTO 0x0AA9
329: 0x0A9A [0x52] END_LOAD_SCHEDULER: End scheduler "s011" with entities [EventEntity, EventEntity], work=677*

SUBROUTINE_0AA9:
330: 0x0AA9 [0x45] LOAD_SCHEDULED_TASK: Load scheduler "s012" with entities [EventEntity, EventEntity], work=[677*, 0*]
331: 0x0ABA [0x4A] LocalPlayer looks at Gadalar (ID: 16982423/0x01032197)
332: 0x0AC3 [0x6F] WAIT_FRAME_DELAY: Yield until WaitTime reaches zero
333: 0x0AC4 [0x76] CHECK_ENTITY_RENDER_FLAGS: Wait until LocalPlayer Render.Flags0 and Render.Flags3 conditions are met
334: 0x0AC9 [0xCD] LOAD_SCHEDULED_TASK_ALT4: Load scheduler "star" with entities [LocalPlayer, LocalPlayer], work=[174*, 0*]
335: 0x0ADA [0x1C] WAIT(50* ticks)
336: 0x0ADD [0x66] LOAD_EXT_SCHEDULER_MAIN: Load scheduler "shk0" with entities [Fari-Wari (ID: 16982364/0x0103215C), Fari-Wari (ID: 16982364/0x0103215C)], work=41*
337: 0x0AEC [0x1C] WAIT(50* ticks)
338: 0x0AEF [0x66] LOAD_EXT_SCHEDULER_MAIN: Load scheduler "zit0" with entities [Fari-Wari (ID: 16982364/0x0103215C), Fari-Wari (ID: 16982364/0x0103215C)], work=40*
339: 0x0AFE [0x6E] Gadalar (ID: 16982423/0x01032197) uses emote 12*
340: 0x0B05 [0x99] Wait for Gadalar (ID: 16982423/0x01032197) animation to complete
341: 0x0B0A [0x1C] WAIT(50* ticks)
342: 0x0B0D [0xCD] LOAD_SCHEDULED_TASK_ALT4: Load scheduler "stop" with entities [LocalPlayer, LocalPlayer], work=[174*, 0*]
343: 0x0B1E [0x1C] WAIT(120* ticks)
344: 0x0B21 [0x45] LOAD_SCHEDULED_TASK: Load scheduler "who1" with entities [LocalPlayer, LocalPlayer], work=[201*, 0*]
345: 0x0B32 [0x55] WAIT_LOAD_SCHEDULER: Wait for scheduler "who1" with entities [LocalPlayer, LocalPlayer], work=201*
346: 0x0B41 [0x52] END_LOAD_SCHEDULER: End scheduler "s012" with entities [EventEntity, EventEntity], work=677*
347: 0x0B50 [0x2F] Gadalar (ID: 16982368/0x01032160)->Render.Flags0 &= ~0x80000 // Bit 19
348: 0x0B56 [0x4E] SET_ENTITY_HIDE_FLAG: Show Gadalar (ID: 16982368/0x01032160)
349: 0x0B5C [0x80] LOAD_WAIT(entity=Gadalar (ID: 16982368/0x01032160))
350: 0x0B61 [0x92] Gadalar (ID: 16982368/0x01032160)->Render.Flags3 ^= 0x01
351: 0x0B67 [0xBA] SET_ENTITY_POSITION(entity_id=Gadalar (ID: 16982368/0x01032160), pos_x=79.157*, pos_z=-133.493*, pos_y=-6.000*, direction=357.1°*)
352: 0x0B74 [0x4A] Fari-Wari (ID: 16982364/0x0103215C) looks at Gadalar (ID: 16982368/0x01032160)
353: 0x0B7D [0x4A] LocalPlayer looks at Gadalar (ID: 16982368/0x01032160)
354: 0x0B86 [0x4A] Zubyahn (ID: 16982146/0x01032082) looks at Gadalar (ID: 16982368/0x01032160)
355: 0x0B8F [0x79] Fayeewah (ID: 16982099/0x01032053) looks at Gadalar (ID: 16982368/0x01032160) (Basic look)
356: 0x0B99 [0x79] Gadalar (ID: 16982423/0x01032197) looks at Gadalar (ID: 16982368/0x01032160) (Basic look)
357: 0x0BA3 [0x6F] WAIT_FRAME_DELAY: Yield until WaitTime reaches zero
358: 0x0BA4 [0x76] CHECK_ENTITY_RENDER_FLAGS: Wait until Fari-Wari (ID: 16982364/0x0103215C) Render.Flags0 and Render.Flags3 conditions are met
359: 0x0BA9 [0x6F] WAIT_FRAME_DELAY: Yield until WaitTime reaches zero
360: 0x0BAA [0x76] CHECK_ENTITY_RENDER_FLAGS: Wait until LocalPlayer Render.Flags0 and Render.Flags3 conditions are met
361: 0x0BAF [0x6B] STOP_AND_IDLE: Fari-Wari (ID: 16982364/0x0103215C) stops current action and resets to idle (animation="idl0")
362: 0x0BB8 [0x45] LOAD_SCHEDULED_TASK: Load scheduler "s013" with entities [EventEntity, EventEntity], work=[677*, 0*]
363: 0x0BC9 [0xCD] LOAD_SCHEDULED_TASK_ALT4: Load scheduler "main" with entities [Gadalar (ID: 16982368/0x01032160), Gadalar (ID: 16982368/0x01032160)], work=[177*, 0*]
364: 0x0BDA [0x6E] Gadalar (ID: 16982368/0x01032160) uses emote 4*
365: 0x0BE1 [0x99] Wait for Gadalar (ID: 16982368/0x01032160) animation to complete
366: 0x0BE6 [0x45] LOAD_SCHEDULED_TASK: Load scheduler "whi1" with entities [LocalPlayer, LocalPlayer], work=[201*, 0*]
367: 0x0BF7 [0x55] WAIT_LOAD_SCHEDULER: Wait for scheduler "whi1" with entities [LocalPlayer, LocalPlayer], work=201*
368: 0x0C06 [0x2B] Gadalar (ID: 16982368/0x01032160) [15449*]:
    → "Gwahahahaha!"
369: 0x0C0D [0x1C] WAIT(120* ticks)
370: 0x0C10 [0x23] WAIT_FOR_DIALOG_INTERACTION
371: 0x0C11 [0x6E] Fari-Wari (ID: 16982364/0x0103215C) uses emote 13*
372: 0x0C18 [0x99] Wait for Fari-Wari (ID: 16982364/0x0103215C) animation to complete
373: 0x0C1D [0x1C] WAIT(20* ticks)
374: 0x0C20 [0x52] END_LOAD_SCHEDULER: End scheduler "s013" with entities [EventEntity, EventEntity], work=677*
375: 0x0C2F [0x02] IF !(Work_Zone[9] == 3*) GOTO 0x0C4B
376: 0x0C37 [0x45] LOAD_SCHEDULED_TASK: Load scheduler "s042" with entities [EventEntity, EventEntity], work=[677*, 0*]
377: 0x0C48 [0x01] GOTO 0x0CCC
378: 0x0C4B [0x02] IF !(Work_Zone[9] == 4*) GOTO 0x0C67
379: 0x0C53 [0x45] LOAD_SCHEDULED_TASK: Load scheduler "s042" with entities [EventEntity, EventEntity], work=[677*, 0*]
380: 0x0C64 [0x01] GOTO 0x0CCC
381: 0x0C67 [0x02] IF !(Work_Zone[9] == 5*) GOTO 0x0C83
382: 0x0C6F [0x45] LOAD_SCHEDULED_TASK: Load scheduler "s031" with entities [EventEntity, EventEntity], work=[677*, 0*]
383: 0x0C80 [0x01] GOTO 0x0CCC
384: 0x0C83 [0x02] IF !(Work_Zone[9] == 6*) GOTO 0x0C9F
385: 0x0C8B [0x45] LOAD_SCHEDULED_TASK: Load scheduler "s031" with entities [EventEntity, EventEntity], work=[677*, 0*]
386: 0x0C9C [0x01] GOTO 0x0CCC
387: 0x0C9F [0x02] IF !(Work_Zone[9] == 8*) GOTO 0x0CBB
388: 0x0CA7 [0x45] LOAD_SCHEDULED_TASK: Load scheduler "s042" with entities [EventEntity, EventEntity], work=[677*, 0*]
389: 0x0CB8 [0x01] GOTO 0x0CCC
390: 0x0CBB [0x45] LOAD_SCHEDULED_TASK: Load scheduler "s025" with entities [EventEntity, EventEntity], work=[677*, 0*]

SUBROUTINE_0CCC:
391: 0x0CCC [0x59] UPDATE_ENTITY_DATA: Gadalar (ID: 16982368/0x01032160)->Render.Flags0 |= 0x200000
392: 0x0CD3 [0xBA] SET_ENTITY_POSITION(entity_id=Gadalar (ID: 16982368/0x01032160), pos_x=79.694*, pos_z=-133.006*, pos_y=-6.100*, direction=181.1°*)
393: 0x0CE0 [0x29] REQ_SET_WAIT(priority=0x08, entity_id=Gadalar (ID: 16982368/0x01032160), tag_num=0x1D)
394: 0x0CE7 [0x5B] LOAD_EXT_SCHEDULER: Load scheduler "gk04" with entities [Gadalar (ID: 16982368/0x01032160), Gadalar (ID: 16982368/0x01032160)], work=2285*
395: 0x0CF6 [0xC5] LOAD_SCHEDULED_TASK_ALT3: Load scheduler 0x80063030 for entities [Gadalar (ID: 16982368/0x01032160), Gadalar (ID: 16982368/0x01032160)], work=59*, param=12403
396: 0x0D07 [0x1C] WAIT(40* ticks)
397: 0x0D0A [0x1C] WAIT(40* ticks)
398: 0x0D0D [0x1C] WAIT(40* ticks)
399: 0x0D10 [0x66] LOAD_EXT_SCHEDULER_MAIN: Load scheduler "bik0" with entities [Fari-Wari (ID: 16982364/0x0103215C), Fari-Wari (ID: 16982364/0x0103215C)], work=42*
400: 0x0D1F [0x1C] WAIT(40* ticks)
401: 0x0D22 [0x2B] Gadalar (ID: 16982368/0x01032160) [15451*]:
    → "Fi..."
402: 0x0D29 [0x1C] WAIT(20* ticks)
403: 0x0D2C [0x02] IF !(Work_Zone[9] == 3*) GOTO 0x0D46
404: 0x0D34 [0x52] END_LOAD_SCHEDULER: End scheduler "s042" with entities [EventEntity, EventEntity], work=677*
405: 0x0D43 [0x01] GOTO 0x0DBD
406: 0x0D46 [0x02] IF !(Work_Zone[9] == 4*) GOTO 0x0D60
407: 0x0D4E [0x52] END_LOAD_SCHEDULER: End scheduler "s042" with entities [EventEntity, EventEntity], work=677*
408: 0x0D5D [0x01] GOTO 0x0DBD
409: 0x0D60 [0x02] IF !(Work_Zone[9] == 5*) GOTO 0x0D7A
410: 0x0D68 [0x52] END_LOAD_SCHEDULER: End scheduler "s031" with entities [EventEntity, EventEntity], work=677*
411: 0x0D77 [0x01] GOTO 0x0DBD
412: 0x0D7A [0x02] IF !(Work_Zone[9] == 6*) GOTO 0x0D94
413: 0x0D82 [0x52] END_LOAD_SCHEDULER: End scheduler "s031" with entities [EventEntity, EventEntity], work=677*
414: 0x0D91 [0x01] GOTO 0x0DBD
415: 0x0D94 [0x02] IF !(Work_Zone[9] == 8*) GOTO 0x0DAE
416: 0x0D9C [0x52] END_LOAD_SCHEDULER: End scheduler "s042" with entities [EventEntity, EventEntity], work=677*
417: 0x0DAB [0x01] GOTO 0x0DBD
418: 0x0DAE [0x52] END_LOAD_SCHEDULER: End scheduler "s025" with entities [EventEntity, EventEntity], work=677*

SUBROUTINE_0DBD:
419: 0x0DBD [0x45] LOAD_SCHEDULED_TASK: Load scheduler "s014" with entities [EventEntity, EventEntity], work=[677*, 0*]
420: 0x0DCE [0x23] WAIT_FOR_DIALOG_INTERACTION
421: 0x0DCF [0x48] [System] [15450*]:
    → "Gadalar starts casting Firaga III on Fari-Wari."
422: 0x0DD2 [0x52] END_LOAD_SCHEDULER: End scheduler "s014" with entities [EventEntity, EventEntity], work=677*
423: 0x0DE1 [0x45] LOAD_SCHEDULED_TASK: Load scheduler "s015" with entities [EventEntity, EventEntity], work=[677*, 0*]
424: 0x0DF2 [0x79] Gadalar (ID: 16982423/0x01032197) looks at Fari-Wari (ID: 16982364/0x0103215C) (Basic look)
425: 0x0DFC [0x79] LocalPlayer looks at Fari-Wari (ID: 16982364/0x0103215C) (Basic look)
426: 0x0E06 [0x1C] WAIT(40* ticks)
427: 0x0E09 [0x2B] Fari-Wari (ID: 16982364/0x0103215C) [15452*]:
    → "Oh-- Oh no--!"
428: 0x0E10 [0x23] WAIT_FOR_DIALOG_INTERACTION
429: 0x0E11 [0x52] END_LOAD_SCHEDULER: End scheduler "s015" with entities [EventEntity, EventEntity], work=677*
430: 0x0E20 [0x45] LOAD_SCHEDULED_TASK: Load scheduler "s016" with entities [EventEntity, EventEntity], work=[677*, 0*]
431: 0x0E31 [0x2B] Gadalar (ID: 16982368/0x01032160) [15453*]:
    → "ra..."
432: 0x0E38 [0x23] WAIT_FOR_DIALOG_INTERACTION
433: 0x0E39 [0x52] END_LOAD_SCHEDULER: End scheduler "s016" with entities [EventEntity, EventEntity], work=677*
434: 0x0E48 [0x45] LOAD_SCHEDULED_TASK: Load scheduler "s017" with entities [EventEntity, EventEntity], work=[677*, 0*]
435: 0x0E59 [0x66] LOAD_EXT_SCHEDULER_MAIN: Load scheduler "bik1" with entities [Fari-Wari (ID: 16982364/0x0103215C), Fari-Wari (ID: 16982364/0x0103215C)], work=42*
436: 0x0E68 [0x1C] WAIT(50* ticks)
437: 0x0E6B [0x2B] Fari-Wari (ID: 16982364/0x0103215C) [15454*]:
    → "O-oh, please! Anything but that. Please, General Gadalar, I beg you!"
438: 0x0E72 [0x23] WAIT_FOR_DIALOG_INTERACTION
439: 0x0E73 [0x27] REQ_SET(priority=0x08, entity_id=Fari-Wari (ID: 16982364/0x0103215C), tag_num=0x26)
440: 0x0E7A [0x1C] WAIT(30* ticks)
441: 0x0E7D [0x52] END_LOAD_SCHEDULER: End scheduler "s017" with entities [EventEntity, EventEntity], work=677*
442: 0x0E8C [0x02] IF !(Work_Zone[9] == 3*) GOTO 0x0EA8
443: 0x0E94 [0x45] LOAD_SCHEDULED_TASK: Load scheduler "s043" with entities [EventEntity, EventEntity], work=[677*, 0*]
444: 0x0EA5 [0x01] GOTO 0x0F0D
445: 0x0EA8 [0x02] IF !(Work_Zone[9] == 5*) GOTO 0x0EC4
446: 0x0EB0 [0x45] LOAD_SCHEDULED_TASK: Load scheduler "s032" with entities [EventEntity, EventEntity], work=[677*, 0*]
447: 0x0EC1 [0x01] GOTO 0x0F0D
448: 0x0EC4 [0x02] IF !(Work_Zone[9] == 6*) GOTO 0x0EE0
449: 0x0ECC [0x45] LOAD_SCHEDULED_TASK: Load scheduler "s032" with entities [EventEntity, EventEntity], work=[677*, 0*]
450: 0x0EDD [0x01] GOTO 0x0F0D
451: 0x0EE0 [0x02] IF !(Work_Zone[9] == 8*) GOTO 0x0EFC
452: 0x0EE8 [0x45] LOAD_SCHEDULED_TASK: Load scheduler "s043" with entities [EventEntity, EventEntity], work=[677*, 0*]
453: 0x0EF9 [0x01] GOTO 0x0F0D
454: 0x0EFC [0x45] LOAD_SCHEDULED_TASK: Load scheduler "s018" with entities [EventEntity, EventEntity], work=[677*, 0*]

SUBROUTINE_0F0D:
455: 0x0F0D [0x4A] LocalPlayer looks at Fari-Wari (ID: 16982364/0x0103215C)
456: 0x0F16 [0x1C] WAIT(60* ticks)
457: 0x0F19 [0x4A] Gadalar (ID: 16982423/0x01032197) looks at Gadalar (ID: 16982368/0x01032160)
458: 0x0F22 [0x6F] WAIT_FRAME_DELAY: Yield until WaitTime reaches zero
459: 0x0F23 [0x76] CHECK_ENTITY_RENDER_FLAGS: Wait until LocalPlayer Render.Flags0 and Render.Flags3 conditions are met
460: 0x0F28 [0x02] IF !(Work_Zone[9] == 3*) GOTO 0x0F42
461: 0x0F30 [0x52] END_LOAD_SCHEDULER: End scheduler "s043" with entities [EventEntity, EventEntity], work=677*
462: 0x0F3F [0x01] GOTO 0x0F9F
463: 0x0F42 [0x02] IF !(Work_Zone[9] == 5*) GOTO 0x0F5C
464: 0x0F4A [0x52] END_LOAD_SCHEDULER: End scheduler "s032" with entities [EventEntity, EventEntity], work=677*
465: 0x0F59 [0x01] GOTO 0x0F9F
466: 0x0F5C [0x02] IF !(Work_Zone[9] == 6*) GOTO 0x0F76
467: 0x0F64 [0x52] END_LOAD_SCHEDULER: End scheduler "s032" with entities [EventEntity, EventEntity], work=677*
468: 0x0F73 [0x01] GOTO 0x0F9F
469: 0x0F76 [0x02] IF !(Work_Zone[9] == 8*) GOTO 0x0F90
470: 0x0F7E [0x52] END_LOAD_SCHEDULER: End scheduler "s043" with entities [EventEntity, EventEntity], work=677*
471: 0x0F8D [0x01] GOTO 0x0F9F
472: 0x0F90 [0x52] END_LOAD_SCHEDULER: End scheduler "s018" with entities [EventEntity, EventEntity], work=677*

SUBROUTINE_0F9F:
473: 0x0F9F [0x45] LOAD_SCHEDULED_TASK: Load scheduler "s019" with entities [EventEntity, EventEntity], work=[677*, 0*]
474: 0x0FB0 [0x4A] LocalPlayer looks at Fari-Wari (ID: 16982364/0x0103215C)
475: 0x0FB9 [0x1C] WAIT(20* ticks)
476: 0x0FBC [0x6F] WAIT_FRAME_DELAY: Yield until WaitTime reaches zero
477: 0x0FBD [0x76] CHECK_ENTITY_RENDER_FLAGS: Wait until LocalPlayer Render.Flags0 and Render.Flags3 conditions are met
478: 0x0FC2 [0x73] Gadalar (ID: 16982423/0x01032197) casts magic 252* on Gadalar (ID: 16982368/0x01032160)
479: 0x0FCD [0x1C] WAIT(20* ticks)
480: 0x0FD0 [0x1C] WAIT(20* ticks)
481: 0x0FD3 [0x52] END_LOAD_SCHEDULER: End scheduler "s019" with entities [EventEntity, EventEntity], work=677*
482: 0x0FE2 [0x45] LOAD_SCHEDULED_TASK: Load scheduler "s034" with entities [EventEntity, EventEntity], work=[677*, 0*]
483: 0x0FF3 [0x4A] LocalPlayer looks at Gadalar (ID: 16982368/0x01032160)
484: 0x0FFC [0x1C] WAIT(100* ticks)
485: 0x0FFF [0x52] END_LOAD_SCHEDULER: End scheduler "s034" with entities [EventEntity, EventEntity], work=677*
486: 0x100E [0x45] LOAD_SCHEDULED_TASK: Load scheduler "s027" with entities [EventEntity, EventEntity], work=[677*, 0*]
487: 0x101F [0xCD] LOAD_SCHEDULED_TASK_ALT4: Load scheduler "main" with entities [Gadalar (ID: 16982368/0x01032160), Gadalar (ID: 16982368/0x01032160)], work=[178*, 0*]
488: 0x1030 [0xC5] LOAD_SCHEDULED_TASK_ALT3: Load scheduler 0x80063130 for entities [Gadalar (ID: 16982368/0x01032160), Gadalar (ID: 16982368/0x01032160)], work=59*, param=12403
489: 0x1041 [0x1C] WAIT(80* ticks)
490: 0x1044 [0x1C] WAIT(80* ticks)
491: 0x1047 [0x6F] WAIT_FRAME_DELAY: Yield until WaitTime reaches zero
492: 0x1048 [0x76] CHECK_ENTITY_RENDER_FLAGS: Wait until LocalPlayer Render.Flags0 and Render.Flags3 conditions are met
493: 0x104D [0x4A] Gadalar (ID: 16982423/0x01032197) looks at LocalPlayer
494: 0x1056 [0x52] END_LOAD_SCHEDULER: End scheduler "s027" with entities [EventEntity, EventEntity], work=677*
495: 0x1065 [0x45] LOAD_SCHEDULED_TASK: Load scheduler "s020" with entities [EventEntity, EventEntity], work=[677*, 0*]
496: 0x1076 [0x6F] WAIT_FRAME_DELAY: Yield until WaitTime reaches zero
497: 0x1077 [0x76] CHECK_ENTITY_RENDER_FLAGS: Wait until Gadalar (ID: 16982423/0x01032197) Render.Flags0 and Render.Flags3 conditions are met
498: 0x107C [0x7B] Gadalar (ID: 16982423/0x01032197) stops talking
499: 0x1081 [0x79] LocalPlayer looks at Gadalar (ID: 16982423/0x01032197) (Basic look)
500: 0x108B [0x66] LOAD_EXT_SCHEDULER_MAIN: Load scheduler "thk0" with entities [Gadalar (ID: 16982423/0x01032197), Gadalar (ID: 16982423/0x01032197)], work=149*
501: 0x109A [0x1C] WAIT(60* ticks)
502: 0x109D [0x2B] Gadalar (ID: 16982423/0x01032197) [15455*]:
    → "Hmph."
503: 0x10A4 [0x23] WAIT_FOR_DIALOG_INTERACTION
504: 0x10A5 [0x2A] GET_REQ_LEVEL(level=8, entity_id=Fari-Wari (ID: 16982364/0x0103215C))
505: 0x10AB [0x52] END_LOAD_SCHEDULER: End scheduler "s020" with entities [EventEntity, EventEntity], work=677*
506: 0x10BA [0x45] LOAD_SCHEDULED_TASK: Load scheduler "s021" with entities [EventEntity, EventEntity], work=[677*, 0*]
507: 0x10CB [0x5D] SET_MUSIC_VOLUME(volume=127*, fade_time=400*)
508: 0x10D0 [0x66] LOAD_EXT_SCHEDULER_MAIN: Load scheduler "gkr0" with entities [Fari-Wari (ID: 16982364/0x0103215C), Fari-Wari (ID: 16982364/0x0103215C)], work=40*
509: 0x10DF [0x79] Gadalar (ID: 16982423/0x01032197) looks at LocalPlayer (Basic look)
510: 0x10E9 [0x66] LOAD_EXT_SCHEDULER_MAIN: Load scheduler "thk1" with entities [Gadalar (ID: 16982423/0x01032197), Gadalar (ID: 16982423/0x01032197)], work=149*
511: 0x10F8 [0x2B] Fari-Wari (ID: 16982364/0x0103215C) [15456*]:
    → "Phew..."
512: 0x10FF [0x23] WAIT_FOR_DIALOG_INTERACTION
513: 0x1100 [0x52] END_LOAD_SCHEDULER: End scheduler "s021" with entities [EventEntity, EventEntity], work=677*
514: 0x110F [0x45] LOAD_SCHEDULED_TASK: Load scheduler "s022" with entities [EventEntity, EventEntity], work=[677*, 0*]
515: 0x1120 [0x66] LOAD_EXT_SCHEDULER_MAIN: Load scheduler "gkr1" with entities [Fari-Wari (ID: 16982364/0x0103215C), Fari-Wari (ID: 16982364/0x0103215C)], work=40*
516: 0x112F [0x79] Gadalar (ID: 16982423/0x01032197) looks at LocalPlayer (Basic look)
517: 0x1139 [0x2B] Gadalar (ID: 16982423/0x01032197) [15457*]:
    → "Now if that's not "fire"power, I don't know what is!"
518: 0x1140 [0x23] WAIT_FOR_DIALOG_INTERACTION
519: 0x1141 [0x52] END_LOAD_SCHEDULER: End scheduler "s022" with entities [EventEntity, EventEntity], work=677*
520: 0x1150 [0x45] LOAD_SCHEDULED_TASK: Load scheduler "s050" with entities [EventEntity, EventEntity], work=[677*, 0*]
521: 0x1161 [0x2B] Gadalar (ID: 16982423/0x01032197) [15458*]:
    → "You and me, <Player>, we'll either leave our footprints in fields of ash...""
522: 0x1168 [0x23] WAIT_FOR_DIALOG_INTERACTION
523: 0x1169 [0x27] REQ_SET(priority=0x08, entity_id=Fari-Wari (ID: 16982364/0x0103215C), tag_num=0x27)
524: 0x1170 [0x52] END_LOAD_SCHEDULER: End scheduler "s050" with entities [EventEntity, EventEntity], work=677*
525: 0x117F [0x02] IF !(Work_Zone[9] == 5*) GOTO 0x119B
526: 0x1187 [0x45] LOAD_SCHEDULED_TASK: Load scheduler "s035" with entities [EventEntity, EventEntity], work=[677*, 0*]
527: 0x1198 [0x01] GOTO 0x11E4
528: 0x119B [0x02] IF !(Work_Zone[9] == 6*) GOTO 0x11B7
529: 0x11A3 [0x45] LOAD_SCHEDULED_TASK: Load scheduler "s035" with entities [EventEntity, EventEntity], work=[677*, 0*]
530: 0x11B4 [0x01] GOTO 0x11E4
531: 0x11B7 [0x02] IF !(Work_Zone[9] == 8*) GOTO 0x11D3
532: 0x11BF [0x45] LOAD_SCHEDULED_TASK: Load scheduler "s045" with entities [EventEntity, EventEntity], work=[677*, 0*]
533: 0x11D0 [0x01] GOTO 0x11E4
534: 0x11D3 [0x45] LOAD_SCHEDULED_TASK: Load scheduler "s023" with entities [EventEntity, EventEntity], work=[677*, 0*]

SUBROUTINE_11E4:
535: 0x11E4 [0x7B] Gadalar (ID: 16982423/0x01032197) stops talking
536: 0x11E9 [0x5D] SET_MUSIC_VOLUME(volume=0*, fade_time=400*)
537: 0x11EE [0x27] REQ_SET(priority=0x08, entity_id=Gadalar (ID: 16982423/0x01032197), tag_num=0x04)
538: 0x11F5 [0x1C] WAIT(70* ticks)
539: 0x11F8 [0x4A] Fari-Wari (ID: 16982364/0x0103215C) looks at Gadalar (ID: 16982423/0x01032197)
540: 0x1201 [0x1C] WAIT(50* ticks)
541: 0x1204 [0x02] IF !(Work_Zone[9] == 5*) GOTO 0x121E
542: 0x120C [0x52] END_LOAD_SCHEDULER: End scheduler "s035" with entities [EventEntity, EventEntity], work=677*
543: 0x121B [0x01] GOTO 0x1261
544: 0x121E [0x02] IF !(Work_Zone[9] == 6*) GOTO 0x1238
545: 0x1226 [0x52] END_LOAD_SCHEDULER: End scheduler "s035" with entities [EventEntity, EventEntity], work=677*
546: 0x1235 [0x01] GOTO 0x1261
547: 0x1238 [0x02] IF !(Work_Zone[9] == 8*) GOTO 0x1252
548: 0x1240 [0x52] END_LOAD_SCHEDULER: End scheduler "s045" with entities [EventEntity, EventEntity], work=677*
549: 0x124F [0x01] GOTO 0x1261
550: 0x1252 [0x52] END_LOAD_SCHEDULER: End scheduler "s023" with entities [EventEntity, EventEntity], work=677*

SUBROUTINE_1261:
551: 0x1261 [0x45] LOAD_SCHEDULED_TASK: Load scheduler "s024" with entities [EventEntity, EventEntity], work=[677*, 0*]
552: 0x1272 [0x2A] GET_REQ_LEVEL(level=8, entity_id=Gadalar (ID: 16982423/0x01032197))
553: 0x1278 [0x1C] WAIT(60* ticks)
554: 0x127B [0x66] LOAD_EXT_SCHEDULER_MAIN: Load scheduler "sas0" with entities [Gadalar (ID: 16982423/0x01032197), Gadalar (ID: 16982423/0x01032197)], work=149*
555: 0x128A [0x1C] WAIT(90* ticks)
556: 0x128D [0x2B] Gadalar (ID: 16982423/0x01032197) [15459*]:
    → "...or go out in a blaze of glory! Ahahahahaha!"
557: 0x1294 [0x23] WAIT_FOR_DIALOG_INTERACTION
558: 0x1295 [0x45] LOAD_SCHEDULED_TASK: Load scheduler "fdo1" with entities [LocalPlayer, LocalPlayer], work=[200*, 0*]
559: 0x12A6 [0x1C] WAIT(60* ticks)
560: 0x12A9 [0x59] UPDATE_ENTITY_DATA: Gadalar (ID: 16982368/0x01032160)->Render.Flags0 &= ~0x200000
561: 0x12B0 [0x29] REQ_SET_WAIT(priority=0x08, entity_id=Gadalar (ID: 16982368/0x01032160), tag_num=0x1E)
562: 0x12B7 [0x52] END_LOAD_SCHEDULER: End scheduler "s024" with entities [EventEntity, EventEntity], work=677*
563: 0x12C6 [0x45] LOAD_SCHEDULED_TASK: Load scheduler "qstc" with entities [EventEntity, EventEntity], work=[201*, 0*]
564: 0x12D7 [0x03] Work_Zone[1] = 2*
565: 0x12DC [0x01] GOTO 0x13A8
566: 0x12DF [0x02] IF !(Work_Zone[0] == 1*) GOTO 0x13A8
567: 0x12E7 [0x02] IF !(Work_Zone[9] == 3*) GOTO 0x1301
568: 0x12EF [0x52] END_LOAD_SCHEDULER: End scheduler "s044" with entities [EventEntity, EventEntity], work=677*
569: 0x12FE [0x01] GOTO 0x1344
570: 0x1301 [0x02] IF !(Work_Zone[9] == 4*) GOTO 0x131B
571: 0x1309 [0x52] END_LOAD_SCHEDULER: End scheduler "s044" with entities [EventEntity, EventEntity], work=677*
572: 0x1318 [0x01] GOTO 0x1344
573: 0x131B [0x02] IF !(Work_Zone[9] == 8*) GOTO 0x1335
574: 0x1323 [0x52] END_LOAD_SCHEDULER: End scheduler "s044" with entities [EventEntity, EventEntity], work=677*
575: 0x1332 [0x01] GOTO 0x1344
576: 0x1335 [0x52] END_LOAD_SCHEDULER: End scheduler "s008" with entities [EventEntity, EventEntity], work=677*

SUBROUTINE_1344:
577: 0x1344 [0x45] LOAD_SCHEDULED_TASK: Load scheduler "s009" with entities [EventEntity, EventEntity], work=[677*, 0*]
578: 0x1355 [0x5D] SET_MUSIC_VOLUME(volume=0*, fade_time=400*)
579: 0x135A [0x6E] Gadalar (ID: 16982423/0x01032197) uses emote 18*
580: 0x1361 [0x99] Wait for Gadalar (ID: 16982423/0x01032197) animation to complete
581: 0x1366 [0x2B] Gadalar (ID: 16982423/0x01032197) [15434*]:
    → "A soir<Player>ie? Hmph. Got a backbone made of jelly, I see."
582: 0x136D [0x23] WAIT_FOR_DIALOG_INTERACTION
583: 0x136E [0x27] REQ_SET(priority=0x08, entity_id=Gadalar (ID: 16982423/0x01032197), tag_num=0x03)
584: 0x1375 [0x2B] Fari-Wari (ID: 16982364/0x0103215C) [15435*]:
    → "...Now I'm confused. But he just got here. What could...?"
585: 0x137C [0x23] WAIT_FOR_DIALOG_INTERACTION
586: 0x137D [0x45] LOAD_SCHEDULED_TASK: Load scheduler "fdo1" with entities [LocalPlayer, LocalPlayer], work=[200*, 0*]
587: 0x138E [0x1C] WAIT(60* ticks)
588: 0x1391 [0x52] END_LOAD_SCHEDULER: End scheduler "s009" with entities [EventEntity, EventEntity], work=677*
589: 0x13A0 [0x03] Work_Zone[1] = 1*
590: 0x13A5 [0x01] GOTO 0x13A8

SUBROUTINE_13A8:
591: 0x13A8 [0x5C] MUSIC_CONTROL: Set Idle (Day) music to song 178*
592: 0x13AC [0x5C] MUSIC_CONTROL: Set Idle (Night) music to song 178*
593: 0x13B0 [0x9A] WAIT_MUSIC_SERVER()
594: 0x13B1 [0x5D] SET_MUSIC_VOLUME(volume=127*, fade_time=1*)
595: 0x13B6 [0x4E] SET_ENTITY_HIDE_FLAG: Show LocalPlayer
596: 0x13BC [0x80] LOAD_WAIT(entity=LocalPlayer)
597: 0x13C1 [0x46] CAMERA_CONTROL: Restore default settings
598: 0x13C3 [0x45] LOAD_SCHEDULED_TASK: Load scheduler "fdi1" with entities [LocalPlayer, LocalPlayer], work=[200*, 0*]
599: 0x13D4 [0x20] SET_CLI_EVENT_UC_FLAG: Unlock player control
600: 0x13D6 [0x21] END_EVENT
601: 0x13D7 [0x00] END_REQSTACK()
```

### Event 5092

#### Metadata

| Field        | Value      |
|--------------|------------|
| Entrypoint   | 0x13D8     |
| Data Size    | 7074 bytes |
| Instructions | 896        |

```
      00 01 02 03 04 05 06 07  08 09 0A 0B 0C 0D 0E 0F
      -- -- -- -- -- -- -- --  -- -- -- -- -- -- -- --
13D0:                          20 01 42 03 02 00 05 10           .B.....
13E0: 03 03 00 09 10 03 01 10  05 80 46 01 5D 06 80 07  ..........F.]...
13F0: 80 45 08 80 F8 FF FF 7F  F8 FF FF 7F 66 64 6F 31  .E..........fdo1
1400: 06 80 1C 09 80 38 0A 80  34 61 80 77 06 80 05 80  .....8..4a.w....
1410: 1C 04 80 AB 09 2F 00 A8  20 03 01 2F 00 C4 20 03  ...../.. ../.. .
1420: 01 2F 00 C7 20 03 01 4E  00 A8 20 03 01 4E 00 C4  ./.. ..N.. ..N..
1430: 20 03 01 4E 00 C7 20 03  01 92 01 C4 20 03 01 92   ..N.. ..... ...
1440: 01 A8 20 03 01 92 01 C7  20 03 01 94 01 F0 FF FF  .. ..... .......
1450: 7F 4E 01 1E 20 03 01 29  08 F0 FF FF 7F 67 29 08  .N.. ..).....g).
1460: A8 20 03 01 42 BA C4 20  03 01 62 80 63 80 06 80  . ..B.. ..b.c...
1470: 64 80 BA C7 20 03 01 65  80 66 80 06 80 64 80 5C  d... ..e.f...d.\
1480: 00 67 80 5C 01 67 80 9A  5D 23 80 05 80 29 08 A8  .g.\.g..]#...)..
1490: 20 03 01 13 29 08 C4 20  03 01 56 4A C4 20 03 01   ...).. ..VJ. ..
14A0: A8 20 03 01 4A C7 20 03  01 A8 20 03 01 6F 76 C4  . ..J. ... ..ov.
14B0: 20 03 01 6F 76 C7 20 03  01 29 08 A8 20 03 01 14   ..ov. ..).. ...
14C0: 29 08 C4 20 03 01 57 80  C4 20 03 01 80 C7 20 03  ).. ..W.. .... .
14D0: 01 80 A8 20 03 01 80 F0  FF FF 7F 27 08 C7 20 03  ... .......'.. .
14E0: 01 77 03 09 10 87 7F 27  08 F0 FF FF 7F 68 1C 68  .w.....'.....h.h
14F0: 80 45 69 80 F8 FF FF 7F  F8 FF FF 7F 73 30 30 31  .Ei.........s001
1500: 06 80 45 08 80 F8 FF FF  7F F8 FF FF 7F 66 64 69  ..E..........fdi
1510: 31 06 80 29 08 C4 20 03  01 58 1C 48 80 29 08 A8  1..).. ..X.H.)..
1520: 20 03 01 15 79 00 A8 20  03 01 F0 FF FF 7F 29 08   ...y.. ......).
1530: A8 20 03 01 16 29 08 C4  20 03 01 59 4A C4 20 03  . ...).. ..YJ. .
1540: 01 F0 FF FF 7F 79 00 C4  20 03 01 F0 FF FF 7F 27  .....y.. ......'
1550: 08 A8 20 03 01 44 79 00  C7 20 03 01 A8 20 03 01  .. ..Dy.. ... ..
1560: 1C 48 80 52 69 80 F8 FF  FF 7F F8 FF FF 7F 73 30  .H.Ri.........s0
1570: 30 31 45 69 80 F8 FF FF  7F F8 FF FF 7F 73 30 30  01Ei.........s00
1580: 32 06 80 4A C7 20 03 01  F0 FF FF 7F 1C 09 80 2A  2..J. .........*
1590: 08 C7 20 03 01 6F 76 C7  20 03 01 27 08 C7 20 03  .. ..ov. ..'.. .
15A0: 01 9D 1C 04 80 1C 04 80  52 69 80 F8 FF FF 7F F8  ........Ri......
15B0: FF FF 7F 73 30 30 32 02  09 10 15 80 00 D3 15 45  ...s002........E
15C0: 69 80 F8 FF FF 7F F8 FF  FF 7F 73 30 35 33 06 80  i.........s053..
15D0: 01 54 16 02 09 10 17 80  00 EF 15 45 69 80 F8 FF  .T.........Ei...
15E0: FF 7F F8 FF FF 7F 73 30  35 33 06 80 01 54 16 02  ......s053...T..
15F0: 09 10 21 80 00 0B 16 45  69 80 F8 FF FF 7F F8 FF  ..!....Ei.......
1600: FF 7F 73 30 33 37 06 80  01 54 16 02 09 10 22 80  ..s037...T....".
1610: 00 27 16 45 69 80 F8 FF  FF 7F F8 FF FF 7F 73 30  .'.Ei.........s0
1620: 33 37 06 80 01 54 16 02  09 10 18 80 00 43 16 45  37...T.......C.E
1630: 69 80 F8 FF FF 7F F8 FF  FF 7F 73 30 35 33 06 80  i.........s053..
1640: 01 54 16 45 69 80 F8 FF  FF 7F F8 FF FF 7F 73 30  .T.Ei.........s0
1650: 30 33 06 80 2A 08 A8 20  03 01 2A 08 F0 FF FF 7F  03..*.. ..*.....
1660: 79 00 C7 20 03 01 F0 FF  FF 7F 6F 76 C4 20 03 01  y.. ......ov. ..
1670: 4A C4 20 03 01 A8 20 03  01 2A 08 C7 20 03 01 29  J. ... ..*.. ..)
1680: 08 A8 20 03 01 21 2B A8  20 03 01 6A 80 23 29 08  .. ..!+. ..j.#).
1690: A8 20 03 01 22 02 09 10  15 80 00 AF 16 52 69 80  . .."........Ri.
16A0: F8 FF FF 7F F8 FF FF 7F  73 30 35 33 01 26 17 02  ........s053.&..
16B0: 09 10 17 80 00 C9 16 52  69 80 F8 FF FF 7F F8 FF  .......Ri.......
16C0: FF 7F 73 30 35 33 01 26  17 02 09 10 21 80 00 E3  ..s053.&....!...
16D0: 16 52 69 80 F8 FF FF 7F  F8 FF FF 7F 73 30 33 37  .Ri.........s037
16E0: 01 26 17 02 09 10 22 80  00 FD 16 52 69 80 F8 FF  .&...."....Ri...
16F0: FF 7F F8 FF FF 7F 73 30  33 37 01 26 17 02 09 10  ......s037.&....
1700: 18 80 00 17 17 52 69 80  F8 FF FF 7F F8 FF FF 7F  .....Ri.........
1710: 73 30 35 33 01 26 17 52  69 80 F8 FF FF 7F F8 FF  s053.&.Ri.......
1720: FF 7F 73 30 30 33 45 69  80 F8 FF FF 7F F8 FF FF  ..s003Ei........
1730: 7F 73 30 30 34 06 80 79  00 F0 FF FF 7F A8 20 03  .s004..y...... .
1740: 01 29 08 A8 20 03 01 0F  2B A8 20 03 01 6B 80 23  .).. ...+. ..k.#
1750: 2B A8 20 03 01 6C 80 23  29 08 A8 20 03 01 10 52  +. ..l.#).. ...R
1760: 69 80 F8 FF FF 7F F8 FF  FF 7F 73 30 30 34 02 09  i.........s004..
1770: 10 21 80 00 8A 17 45 69  80 F8 FF FF 7F F8 FF FF  .!....Ei........
1780: 7F 73 30 33 38 06 80 01  B7 17 02 09 10 22 80 00  .s038........"..
1790: A6 17 45 69 80 F8 FF FF  7F F8 FF FF 7F 73 30 33  ..Ei.........s03
17A0: 38 06 80 01 B7 17 45 69  80 F8 FF FF 7F F8 FF FF  8.....Ei........
17B0: 7F 73 30 30 35 06 80 29  08 A8 20 03 01 11 2B A8  .s005..).. ...+.
17C0: 20 03 01 6D 80 23 29 08  A8 20 03 01 12 02 09 10   ..m.#).. ......
17D0: 21 80 00 E7 17 52 69 80  F8 FF FF 7F F8 FF FF 7F  !....Ri.........
17E0: 73 30 33 38 01 10 18 02  09 10 22 80 00 01 18 52  s038......"....R
17F0: 69 80 F8 FF FF 7F F8 FF  FF 7F 73 30 33 38 01 10  i.........s038..
1800: 18 52 69 80 F8 FF FF 7F  F8 FF FF 7F 73 30 30 35  .Ri.........s005
1810: 02 09 10 21 80 00 2C 18  45 69 80 F8 FF FF 7F F8  ...!..,.Ei......
1820: FF FF 7F 73 30 33 39 06  80 01 59 18 02 09 10 22  ...s039...Y...."
1830: 80 00 48 18 45 69 80 F8  FF FF 7F F8 FF FF 7F 73  ..H.Ei.........s
1840: 30 33 39 06 80 01 59 18  45 69 80 F8 FF FF 7F F8  039...Y.Ei......
1850: FF FF 7F 73 30 30 36 06  80 79 00 C7 20 03 01 A8  ...s006..y.. ...
1860: 20 03 01 29 08 A8 20 03  01 21 2B A8 20 03 01 6E   ..).. ..!+. ..n
1870: 80 23 2B A8 20 03 01 6F  80 23 29 08 A8 20 03 01  .#+. ..o.#).. ..
1880: 22 02 09 10 21 80 00 9B  18 52 69 80 F8 FF FF 7F  "...!....Ri.....
1890: F8 FF FF 7F 73 30 33 39  01 C4 18 02 09 10 22 80  ....s039......".
18A0: 00 B5 18 52 69 80 F8 FF  FF 7F F8 FF FF 7F 73 30  ...Ri.........s0
18B0: 33 39 01 C4 18 52 69 80  F8 FF FF 7F F8 FF FF 7F  39...Ri.........
18C0: 73 30 30 36 45 69 80 F8  FF FF 7F F8 FF FF 7F 73  s006Ei.........s
18D0: 30 30 37 06 80 29 08 A8  20 03 01 35 1C 00 80 2B  007..).. ..5...+
18E0: A8 20 03 01 70 80 1C 04  80 29 08 C4 20 03 01 5E  . ..p....).. ..^
18F0: 29 08 C7 20 03 01 8B 29  08 C4 20 03 01 5F 23 52  ).. ...).. .._#R
1900: 69 80 F8 FF FF 7F F8 FF  FF 7F 73 30 30 37 02 09  i.........s007..
1910: 10 21 80 00 2A 19 45 69  80 F8 FF FF 7F F8 FF FF  .!..*.Ei........
1920: 7F 73 30 34 30 06 80 01  73 19 02 09 10 22 80 00  .s040...s...."..
1930: 46 19 45 69 80 F8 FF FF  7F F8 FF FF 7F 73 30 34  F.Ei.........s04
1940: 30 06 80 01 73 19 02 09  10 18 80 00 62 19 45 69  0...s.......b.Ei
1950: 80 F8 FF FF 7F F8 FF FF  7F 73 30 35 34 06 80 01  .........s054...
1960: 73 19 45 69 80 F8 FF FF  7F F8 FF FF 7F 73 30 30  s.Ei.........s00
1970: 38 06 80 79 00 C7 20 03  01 A8 20 03 01 29 08 A8  8..y.. ... ..)..
1980: 20 03 01 36 27 08 C4 20  03 01 64 29 08 A8 20 03   ..6'.. ..d).. .
1990: 01 37 2B A8 20 03 01 71  80 23 29 08 A8 20 03 01  .7+. ..q.#).. ..
19A0: 38 29 08 C7 20 03 01 8C  29 08 A8 20 03 01 31 2B  8).. ...).. ..1+
19B0: A8 20 03 01 72 80 23 29  08 A8 20 03 01 32 2A 08  . ..r.#).. ..2*.
19C0: C4 20 03 01 02 09 10 21  80 00 DE 19 52 69 80 F8  . .....!....Ri..
19D0: FF FF 7F F8 FF FF 7F 73  30 34 30 01 21 1A 02 09  .......s040.!...
19E0: 10 22 80 00 F8 19 52 69  80 F8 FF FF 7F F8 FF FF  ."....Ri........
19F0: 7F 73 30 34 30 01 21 1A  02 09 10 18 80 00 12 1A  .s040.!.........
1A00: 52 69 80 F8 FF FF 7F F8  FF FF 7F 73 30 35 34 01  Ri.........s054.
1A10: 21 1A 52 69 80 F8 FF FF  7F F8 FF FF 7F 73 30 30  !.Ri.........s00
1A20: 38 45 69 80 F8 FF FF 7F  F8 FF FF 7F 73 30 30 39  8Ei.........s009
1A30: 06 80 29 08 A8 20 03 01  33 79 00 A8 20 03 01 C7  ..).. ..3y.. ...
1A40: 20 03 01 79 00 F0 FF FF  7F C7 20 03 01 29 08 C7   ..y...... ..)..
1A50: 20 03 01 71 2B C7 20 03  01 73 80 1C 04 80 4B A8   ..q+. ..s....K.
1A60: 20 03 01 07 80 23 29 08  C7 20 03 01 72 29 08 A8   ....#).. ..r)..
1A70: 20 03 01 34 6F 76 A8 20  03 01 52 69 80 F8 FF FF   ..4ov. ..Ri....
1A80: 7F F8 FF FF 7F 73 30 30  39 45 69 80 F8 FF FF 7F  .....s009Ei.....
1A90: F8 FF FF 7F 73 30 31 30  06 80 29 08 C4 20 03 01  ....s010..).. ..
1AA0: 56 2B C4 20 03 01 74 80  1C 09 80 4A C7 20 03 01  V+. ..t....J. ..
1AB0: C4 20 03 01 4A A8 20 03  01 C4 20 03 01 79 00 F0  . ..J. ... ..y..
1AC0: FF FF 7F C4 20 03 01 23  6F 76 C7 20 03 01 29 08  .... ..#ov. ..).
1AD0: C4 20 03 01 57 6F 76 A8  20 03 01 24 75 80 06 80  . ..Wov. ..$u...
1AE0: 06 80 25 02 00 10 06 80  00 0F 1B 79 00 F0 FF FF  ..%........y....
1AF0: 7F A8 20 03 01 29 08 F0  FF FF 7F 69 1C 04 80 79  .. ..).....i...y
1B00: 00 A8 20 03 01 F0 FF FF  7F 1C 04 80 01 3B 1B 02  .. ..........;..
1B10: 00 10 05 80 00 3B 1B 79  00 F0 FF FF 7F A8 20 03  .....;.y...... .
1B20: 01 29 08 F0 FF FF 7F 69  1C 04 80 79 00 A8 20 03  .).....i...y.. .
1B30: 01 F0 FF FF 7F 1C 04 80  01 3B 1B 52 69 80 F8 FF  .........;.Ri...
1B40: FF 7F F8 FF FF 7F 73 30  31 30 02 09 10 21 80 00  ......s010...!..
1B50: 66 1B 45 69 80 F8 FF FF  7F F8 FF FF 7F 73 30 34  f.Ei.........s04
1B60: 31 06 80 01 AF 1B 02 09  10 22 80 00 82 1B 45 69  1........"....Ei
1B70: 80 F8 FF FF 7F F8 FF FF  7F 73 30 34 31 06 80 01  .........s041...
1B80: AF 1B 02 09 10 18 80 00  9E 1B 45 69 80 F8 FF FF  ..........Ei....
1B90: 7F F8 FF FF 7F 73 30 35  35 06 80 01 AF 1B 45 69  .....s055.....Ei
1BA0: 80 F8 FF FF 7F F8 FF FF  7F 73 30 31 31 06 80 79  .........s011..y
1BB0: 00 C4 20 03 01 F0 FF FF  7F 4A A8 20 03 01 F0 FF  .. ......J. ....
1BC0: FF 7F 1C 09 80 29 08 F0  FF FF 7F 6A 4A C7 20 03  .....).....jJ. .
1BD0: 01 F0 FF FF 7F 6F 76 C7  20 03 01 29 08 C4 20 03  .....ov. ..).. .
1BE0: 01 58 29 08 C7 20 03 01  7D 2B C7 20 03 01 76 80  .X).. ..}+. ..v.
1BF0: 23 29 08 C7 20 03 01 7E  29 08 C4 20 03 01 59 6F  #).. ..~).. ..Yo
1C00: 76 A8 20 03 01 29 08 C7  20 03 01 7F 29 08 A8 20  v. ..).. ...).. 
1C10: 03 01 21 2B A8 20 03 01  77 80 23 27 08 C4 20 03  ..!+. ..w.#'.. .
1C20: 01 93 29 08 A8 20 03 01  22 29 08 C7 20 03 01 80  ..).. ..").. ...
1C30: 02 09 10 21 80 00 4A 1C  52 69 80 F8 FF FF 7F F8  ...!..J.Ri......
1C40: FF FF 7F 73 30 34 31 01  8D 1C 02 09 10 22 80 00  ...s041......"..
1C50: 64 1C 52 69 80 F8 FF FF  7F F8 FF FF 7F 73 30 34  d.Ri.........s04
1C60: 31 01 8D 1C 02 09 10 18  80 00 7E 1C 52 69 80 F8  1.........~.Ri..
1C70: FF FF 7F F8 FF FF 7F 73  30 35 35 01 8D 1C 52 69  .......s055...Ri
1C80: 80 F8 FF FF 7F F8 FF FF  7F 73 30 31 31 45 69 80  .........s011Ei.
1C90: F8 FF FF 7F F8 FF FF 7F  73 30 31 32 06 80 6C F0  ........s012..l.
1CA0: FF FF 7F 06 80 05 80 2B  C4 20 03 01 78 80 1C 3C  .......+. ..x..<
1CB0: 80 79 00 A8 20 03 01 C4  20 03 01 79 00 C7 20 03  .y.. ... ..y.. .
1CC0: 01 C4 20 03 01 23 2A 08  C4 20 03 01 29 08 A8 20  .. ..#*.. ..).. 
1CD0: 03 01 27 2B A8 20 03 01  79 80 23 29 08 A8 20 03  ..'+. ..y.#).. .
1CE0: 01 28 52 69 80 F8 FF FF  7F F8 FF FF 7F 73 30 31  .(Ri.........s01
1CF0: 32 45 69 80 F8 FF FF 7F  F8 FF FF 7F 73 30 31 33  2Ei.........s013
1D00: 06 80 6C F0 FF FF 7F 7A  80 05 80 79 00 A8 20 03  ..l....z...y.. .
1D10: 01 C7 20 03 01 79 00 F0  FF FF 7F C7 20 03 01 29  .. ..y...... ..)
1D20: 08 A8 20 03 01 29 29 08  C7 20 03 01 73 2B C7 20  .. ..)).. ..s+. 
1D30: 03 01 7B 80 23 29 08 C7  20 03 01 74 29 08 A8 20  ..{.#).. ..t).. 
1D40: 03 01 2A 52 69 80 F8 FF  FF 7F F8 FF FF 7F 73 30  ..*Ri.........s0
1D50: 31 33 45 69 80 F8 FF FF  7F F8 FF FF 7F 73 30 31  13Ei.........s01
1D60: 34 06 80 79 00 A8 20 03  01 F0 FF FF 7F 79 00 F0  4..y.. ......y..
1D70: FF FF 7F A8 20 03 01 4A  C4 20 03 01 F0 FF FF 7F  .... ..J. ......
1D80: 29 08 C7 20 03 01 75 29  08 A8 20 03 01 0F 2B A8  ).. ..u).. ...+.
1D90: 20 03 01 7C 80 23 2B A8  20 03 01 7D 80 23 29 08   ..|.#+. ..}.#).
1DA0: A8 20 03 01 10 29 08 C7  20 03 01 76 6F 76 C4 20  . ...).. ..vov. 
1DB0: 03 01 06 04 00 02 04 00  06 80 00 F5 2E 24 7E 80  .............$~.
1DC0: 06 80 06 80 25 02 00 10  06 80 00 95 2E 05 04 00  ....%...........
1DD0: 52 69 80 F8 FF FF 7F F8  FF FF 7F 73 30 31 34 02  Ri.........s014.
1DE0: 09 10 21 80 00 FB 1D 45  69 80 F8 FF FF 7F F8 FF  ..!....Ei.......
1DF0: FF 7F 73 30 34 32 06 80  01 28 1E 02 09 10 22 80  ..s042...(....".
1E00: 00 17 1E 45 69 80 F8 FF  FF 7F F8 FF FF 7F 73 30  ...Ei.........s0
1E10: 34 32 06 80 01 28 1E 45  69 80 F8 FF FF 7F F8 FF  42...(.Ei.......
1E20: FF 7F 73 30 31 35 06 80  29 08 A8 20 03 01 11 6E  ..s015..).. ...n
1E30: F0 FF FF 7F 28 80 99 F0  FF FF 7F 1C 09 80 2B A8  ....(.........+.
1E40: 20 03 01 7F 80 23 29 08  A8 20 03 01 12 02 09 10   ....#).. ......
1E50: 21 80 00 67 1E 52 69 80  F8 FF FF 7F F8 FF FF 7F  !..g.Ri.........
1E60: 73 30 34 32 01 90 1E 02  09 10 22 80 00 81 1E 52  s042......"....R
1E70: 69 80 F8 FF FF 7F F8 FF  FF 7F 73 30 34 32 01 90  i.........s042..
1E80: 1E 52 69 80 F8 FF FF 7F  F8 FF FF 7F 73 30 31 35  .Ri.........s015
1E90: 03 06 10 06 80 03 04 10  06 80 3E 02 00 05 80 4D  ..........>....M
1EA0: 20 02 09 10 15 80 00 BD  1E 45 69 80 F8 FF FF 7F   ........Ei.....
1EB0: F8 FF FF 7F 73 30 35 37  06 80 01 3E 1F 02 09 10  ....s057...>....
1EC0: 17 80 00 D9 1E 45 69 80  F8 FF FF 7F F8 FF FF 7F  .....Ei.........
1ED0: 73 30 35 37 06 80 01 3E  1F 02 09 10 21 80 00 F5  s057...>....!...
1EE0: 1E 45 69 80 F8 FF FF 7F  F8 FF FF 7F 73 30 34 33  .Ei.........s043
1EF0: 06 80 01 3E 1F 02 09 10  22 80 00 11 1F 45 69 80  ...>...."....Ei.
1F00: F8 FF FF 7F F8 FF FF 7F  73 30 34 33 06 80 01 3E  ........s043...>
1F10: 1F 02 09 10 18 80 00 2D  1F 45 69 80 F8 FF FF 7F  .......-.Ei.....
1F20: F8 FF FF 7F 73 30 35 37  06 80 01 3E 1F 45 69 80  ....s057...>.Ei.
1F30: F8 FF FF 7F F8 FF FF 7F  73 30 32 31 06 80 29 08  ........s021..).
1F40: A8 20 03 01 21 2B A8 20  03 01 80 80 23 29 08 A8  . ..!+. ....#)..
1F50: 20 03 01 22 02 09 10 15  80 00 6E 1F 52 69 80 F8   .."......n.Ri..
1F60: FF FF 7F F8 FF FF 7F 73  30 35 37 01 E5 1F 02 09  .......s057.....
1F70: 10 17 80 00 88 1F 52 69  80 F8 FF FF 7F F8 FF FF  ......Ri........
1F80: 7F 73 30 35 37 01 E5 1F  02 09 10 21 80 00 A2 1F  .s057......!....
1F90: 52 69 80 F8 FF FF 7F F8  FF FF 7F 73 30 34 33 01  Ri.........s043.
1FA0: E5 1F 02 09 10 22 80 00  BC 1F 52 69 80 F8 FF FF  ....."....Ri....
1FB0: 7F F8 FF FF 7F 73 30 34  33 01 E5 1F 02 09 10 18  .....s043.......
1FC0: 80 00 D6 1F 52 69 80 F8  FF FF 7F F8 FF FF 7F 73  ....Ri.........s
1FD0: 30 35 37 01 E5 1F 52 69  80 F8 FF FF 7F F8 FF FF  057...Ri........
1FE0: 7F 73 30 32 31 45 69 80  F8 FF FF 7F F8 FF FF 7F  .s021Ei.........
1FF0: 73 30 32 33 06 80 7B A8  20 03 01 29 08 A8 20 03  s023..{. ..).. .
2000: 01 35 2B A8 20 03 01 81  80 23 2B A8 20 03 01 82  .5+. ....#+. ...
2010: 80 23 29 08 A8 20 03 01  36 29 08 A8 20 03 01 37  .#).. ..6).. ..7
2020: 2B A8 20 03 01 83 80 23  29 08 A8 20 03 01 38 79  +. ....#).. ..8y
2030: 00 A8 20 03 01 F0 FF FF  7F 52 69 80 F8 FF FF 7F  .. ......Ri.....
2040: F8 FF FF 7F 73 30 32 33  03 04 10 05 80 3E 02 00  ....s023.....>..
2050: 35 80 FA 22 45 69 80 F8  FF FF 7F F8 FF FF 7F 73  5.."Ei.........s
2060: 30 32 35 06 80 29 08 A8  20 03 01 21 2B A8 20 03  025..).. ..!+. .
2070: 01 84 80 23 29 08 A8 20  03 01 22 29 08 A8 20 03  ...#).. ..").. .
2080: 01 23 2B A8 20 03 01 85  80 23 29 08 A8 20 03 01  .#+. ....#).. ..
2090: 24 52 69 80 F8 FF FF 7F  F8 FF FF 7F 73 30 32 35  $Ri.........s025
20A0: 45 69 80 F8 FF FF 7F F8  FF FF 7F 73 30 32 36 06  Ei.........s026.
