# 16982618

## Common Data

| Field            | Value                          |
|------------------|--------------------------------|
| Zone             | Aht Urhgan Whitegate2 (ID: 50) |
| Block Size       | 72 bytes                       |
| Total Events     | 5                              |
| References Count | 3                              |

## List of Events

| Event ID                  | Entrypoint   |   Size |   Instructions |
|---------------------------|--------------|--------|----------------|
| [926](#event-926)         | 0x0000       |      1 |              1 |
| [65535](#event-65535)     | 0x0001       |     10 |              2 |
| [65535.1](#event-65535-1) | 0x000B       |     10 |              2 |
| [928](#event-928)         | 0x0015       |      1 |              1 |

## DAT References (imed_data)

|   Index | Hex Value   |   Dec Value |
|---------|-------------|-------------|
|       0 | 0x0080      |         128 |
|       1 | 0x000F      |          15 |
|       2 | 0x0000      |           0 |

## Events

### Event 926

#### Metadata

| Field        | Value   |
|--------------|---------|
| Entrypoint   | 0x0000  |
| Data Size    | 1 bytes |
| Instructions | 1       |

```
      00 01 02 03 04 05 06 07  08 09 0A 0B 0C 0D 0E 0F
      -- -- -- -- -- -- -- --  -- -- -- -- -- -- -- --
0000: 00                                                .               
```

#### Opcodes

```
  0: 0x0000 [0x00] END_REQSTACK()
```

### Event 65535

#### Metadata

| Field        | Value    |
|--------------|----------|
| Entrypoint   | 0x0001   |
| Data Size    | 10 bytes |
| Instructions | 2        |

```
      00 01 02 03 04 05 06 07  08 09 0A 0B 0C 0D 0E 0F
      -- -- -- -- -- -- -- --  -- -- -- -- -- -- -- --
0000:    6C CC 20 03 01 00 80  01 80 00                  l. .......     
```

#### Opcodes

```
  0: 0x0001 [0x6C] FADE_ENTITY_COLOR(entity_id=Nashmeira (ID: 16982220/0x010320CC), end_alpha=128*, fade_time=15*)
  1: 0x000A [0x00] END_REQSTACK()
```

### Event 65535.1

#### Metadata

| Field        | Value    |
|--------------|----------|
| Entrypoint   | 0x000B   |
| Data Size    | 10 bytes |
| Instructions | 2        |

```
      00 01 02 03 04 05 06 07  08 09 0A 0B 0C 0D 0E 0F
      -- -- -- -- -- -- -- --  -- -- -- -- -- -- -- --
0000:                                   6C CC 20 03 01             l. ..
0010: 02 80 01 80 00                                    .....           
```

#### Opcodes

```
  0: 0x000B [0x6C] FADE_ENTITY_COLOR(entity_id=Nashmeira (ID: 16982220/0x010320CC), end_alpha=0*, fade_time=15*)
  1: 0x0014 [0x00] END_REQSTACK()
```

### Event 928

#### Metadata

| Field        | Value   |
|--------------|---------|
| Entrypoint   | 0x0015  |
| Data Size    | 1 bytes |
| Instructions | 1       |

```
      00 01 02 03 04 05 06 07  08 09 0A 0B 0C 0D 0E 0F
      -- -- -- -- -- -- -- --  -- -- -- -- -- -- -- --
0010:                00                                      .          
```

#### Opcodes

```
  0: 0x0015 [0x00] END_REQSTACK()
```
