# 16982546

## Common Data

| Field            | Value                          |
|------------------|--------------------------------|
| Zone             | Aht Urhgan Whitegate2 (ID: 50) |
| Block Size       | 292 bytes                      |
| Total Events     | 7                              |
| References Count | 22                             |

## List of Events

| Event ID                  | Entrypoint   |   Size |   Instructions |
|---------------------------|--------------|--------|----------------|
| [65535](#event-65535)     | 0x0000       |      1 |              1 |
| [889](#event-889)         | 0x0001       |      1 |              1 |
| [65535.1](#event-65535-1) | 0x0002       |     25 |              5 |
| [65535.2](#event-65535-2) | 0x001B       |     92 |             16 |
| [65535.3](#event-65535-3) | 0x0077       |     14 |              2 |
| [65535.4](#event-65535-4) | 0x0085       |     25 |              9 |
| [65535.5](#event-65535-5) | 0x009E       |      1 |              1 |

## DAT References (imed_data)

|   Index | Hex Value   |   Dec Value |
|---------|-------------|-------------|
|       0 | 0xFFF8B0E8  |  4294488296 |
|       1 | 0xE5A0      |       58784 |
|       2 | 0xFFFFD64D  |  4294956621 |
|       3 | 0x0800      |        2048 |
|       4 | 0x000A      |          10 |
|       5 | 0x000D      |          13 |
|       6 | 0xFFF8A33F  |  4294484799 |
|       7 | 0xE32B      |       58155 |
|       8 | 0x0078      |         120 |
|       9 | 0x0015      |          21 |
|      10 | 0x014A      |         330 |
|      11 | 0x003C      |          60 |
|      12 | 0x001D      |          29 |
|      13 | 0x005A      |          90 |
|      14 | 0x27891     |      161937 |
|      15 | 0x48BE2     |      297954 |
|      16 | 0xFFFFA434  |  4294943796 |
|      17 | 0x0C80      |        3200 |
|      18 | 0x0122      |         290 |
|      19 | 0x0028      |          40 |
|      20 | 0x279DB     |      162267 |
|      21 | 0x486F1     |      296689 |

## Events

### Event 65535

#### Metadata

| Field        | Value   |
|--------------|---------|
| Entrypoint   | 0x0000  |
| Data Size    | 1 bytes |
| Instructions | 1       |

```
      00 01 02 03 04 05 06 07  08 09 0A 0B 0C 0D 0E 0F
      -- -- -- -- -- -- -- --  -- -- -- -- -- -- -- --
0000: 00                                                .               
```

#### Opcodes

```
  0: 0x0000 [0x00] END_REQSTACK()
```

### Event 889

#### Metadata

| Field        | Value   |
|--------------|---------|
| Entrypoint   | 0x0001  |
| Data Size    | 1 bytes |
| Instructions | 1       |

```
      00 01 02 03 04 05 06 07  08 09 0A 0B 0C 0D 0E 0F
      -- -- -- -- -- -- -- --  -- -- -- -- -- -- -- --
0000:    00                                              .              
```

#### Opcodes

```
  0: 0x0001 [0x00] END_REQSTACK()
```

### Event 65535.1

#### Metadata

| Field        | Value    |
|--------------|----------|
| Entrypoint   | 0x0002   |
| Data Size    | 25 bytes |
| Instructions | 5        |

```
      00 01 02 03 04 05 06 07  08 09 0A 0B 0C 0D 0E 0F
      -- -- -- -- -- -- -- --  -- -- -- -- -- -- -- --
0000:       22 00 2F 00 F8 FF  FF 7F BA F8 FF FF 7F 00    "./...........
0010: 80 01 80 02 80 03 80 1C  04 80 00                 ...........     
```

#### Opcodes

```
  0: 0x0002 [0x22] ENTITY_HIDE_FLAG(enabled=0x00)
  1: 0x0004 [0x2F] EventEntity->Render.Flags0 &= ~0x80000 // Bit 19
  2: 0x000A [0xBA] SET_ENTITY_POSITION(entity_id=EventEntity, pos_x=-479.000*, pos_z=58.784*, pos_y=-10.675*, direction=180.0°*)
  3: 0x0017 [0x1C] WAIT(10* ticks)
  4: 0x001A [0x00] END_REQSTACK()
```

### Event 65535.2

#### Metadata

| Field        | Value    |
|--------------|----------|
| Entrypoint   | 0x001B   |
| Data Size    | 92 bytes |
| Instructions | 16       |

```
      00 01 02 03 04 05 06 07  08 09 0A 0B 0C 0D 0E 0F
      -- -- -- -- -- -- -- --  -- -- -- -- -- -- -- --
0010:                                   32 05 80 31 00             2..1.
0020: 06 80 07 80 02 80 08 80  31 01 4A F8 FF FF 7F 18  ........1.J.....
0030: 22 03 01 6F 76 F8 FF FF  7F 6E F8 FF FF 7F 09 80  "..ov....n......
0040: 99 F8 FF FF 7F 1C 0A 80  7B F8 FF FF 7F 1C 0B 80  ........{.......
0050: 1E 10 22 03 01 66 0C 80  F8 FF FF 7F F8 FF FF 7F  .."..f..........
0060: 74 6C 6B 30 1C 0D 80 66  0C 80 F8 FF FF 7F F8 FF  tlk0...f........
0070: FF 7F 74 6C 6B 31 00                              ..tlk1.         
```

#### Opcodes

```
  0: 0x001B [0x32] ExtData[1]->MainSpeed = 13* * 0.1
  1: 0x001E [0x31] UPDATE_ENTITY_POSITION: Set EventEntity goal position to X=-482.497*, Z=58.155*, Y=-10.675*, Time=120*
  2: 0x0028 [0x31] UPDATE_ENTITY_POSITION: Move EventEntity towards goal position
  3: 0x002A [0x4A] EventEntity looks at Unnamed NPC (ID: 16982552/0x01032218)
  4: 0x0033 [0x6F] WAIT_FRAME_DELAY: Yield until WaitTime reaches zero
  5: 0x0034 [0x76] CHECK_ENTITY_RENDER_FLAGS: Wait until EventEntity Render.Flags0 and Render.Flags3 conditions are met
  6: 0x0039 [0x6E] EventEntity uses emote 21*
  7: 0x0040 [0x99] Wait for EventEntity animation to complete
  8: 0x0045 [0x1C] WAIT(330* ticks)
  9: 0x0048 [0x7B] EventEntity stops talking
 10: 0x004D [0x1C] WAIT(60* ticks)
 11: 0x0050 [0x1E] EventEntity looks at Clavauert (ID: 16982544/0x01032210) and starts talking
 12: 0x0055 [0x66] LOAD_EXT_SCHEDULER_MAIN: Load scheduler "tlk0" with entities [EventEntity, EventEntity], work=29*
 13: 0x0064 [0x1C] WAIT(90* ticks)
 14: 0x0067 [0x66] LOAD_EXT_SCHEDULER_MAIN: Load scheduler "tlk1" with entities [EventEntity, EventEntity], work=29*
 15: 0x0076 [0x00] END_REQSTACK()
```

### Event 65535.3

#### Metadata

| Field        | Value    |
|--------------|----------|
| Entrypoint   | 0x0077   |
| Data Size    | 14 bytes |
| Instructions | 2        |

```
      00 01 02 03 04 05 06 07  08 09 0A 0B 0C 0D 0E 0F
      -- -- -- -- -- -- -- --  -- -- -- -- -- -- -- --
0070:                      BA  F8 FF FF 7F 0E 80 0F 80         .........
0080: 10 80 11 80 00                                    .....           
```

#### Opcodes

```
  0: 0x0077 [0xBA] SET_ENTITY_POSITION(entity_id=EventEntity, pos_x=161.937*, pos_z=297.954*, pos_y=-23.500*, direction=281.2°*)
  1: 0x0084 [0x00] END_REQSTACK()
```

### Event 65535.4

#### Metadata

| Field        | Value    |
|--------------|----------|
| Entrypoint   | 0x0085   |
| Data Size    | 25 bytes |
| Instructions | 9        |

```
      00 01 02 03 04 05 06 07  08 09 0A 0B 0C 0D 0E 0F
      -- -- -- -- -- -- -- --  -- -- -- -- -- -- -- --
0080:                1C 12 80  32 13 80 1F 00 14 80 15       ...2.......
0090: 80 10 80 1F 01 6F 1E 11  22 03 01 6F 70 00        .....o.."..op.  
```

#### Opcodes

```
  0: 0x0085 [0x1C] WAIT(290* ticks)
  1: 0x0088 [0x32] ExtData[1]->MainSpeed = 40* * 0.1
  2: 0x008B [0x1F] MOVE_ENTITY: EventEntity moves to X=162.267*, Z=296.689*, Y=-23.500*
  3: 0x0093 [0x1F] MOVE_ENTITY: Update entity position (mode=1)
  4: 0x0095 [0x6F] WAIT_FRAME_DELAY: Yield until WaitTime reaches zero
  5: 0x0096 [0x1E] EventEntity looks at Unnamed NPC (ID: 16982545/0x01032211) and starts talking
  6: 0x009B [0x6F] WAIT_FRAME_DELAY: Yield until WaitTime reaches zero
  7: 0x009C [0x70] WAIT_ENTITY_RENDER_FLAG: Wait while EventEntity->Render.Flags3 bit 2 is set (cancel turn if not)
  8: 0x009D [0x00] END_REQSTACK()
```

### Event 65535.5

#### Metadata

| Field        | Value   |
|--------------|---------|
| Entrypoint   | 0x009E  |
| Data Size    | 1 bytes |
| Instructions | 1       |

```
      00 01 02 03 04 05 06 07  08 09 0A 0B 0C 0D 0E 0F
      -- -- -- -- -- -- -- --  -- -- -- -- -- -- -- --
0090:                                            00                   . 
```

#### Opcodes

```
  0: 0x009E [0x00] END_REQSTACK()
```
