# 16982579 - kenbutsu09

## Common Data

| Field            | Value                          |
|------------------|--------------------------------|
| Zone             | Aht Urhgan Whitegate2 (ID: 50) |
| Block Size       | 88 bytes                       |
| Total Events     | 3                              |
| References Count | 5                              |

## List of Events

| Event ID                 | Entrypoint   |   Size |   Instructions |
|--------------------------|--------------|--------|----------------|
| [65535](#event-65535)    | 0x0000       |      1 |              1 |
| [65535.1](#event-655351) | 0x0001       |     19 |              4 |
| [65535.2](#event-655352) | 0x0014       |     18 |              4 |

## DAT References (imed_data)

|   Index | Hex Value   |   Dec Value |
|---------|-------------|-------------|
|       0 | 0x000F      |          15 |
|       1 | 0x13714     |       79636 |
|       2 | 0xFFFE05F7  |  4294837751 |
|       3 | 0xFFFFE890  |  4294961296 |
|       4 | 0x000D      |          13 |

## Events

### Event 65535

#### Metadata

| Field        | Value   |
|--------------|---------|
| Entrypoint   | 0x0000  |
| Data Size    | 1 bytes |
| Instructions | 1       |

```
      00 01 02 03 04 05 06 07  08 09 0A 0B 0C 0D 0E 0F
      -- -- -- -- -- -- -- --  -- -- -- -- -- -- -- --
0000: 00                                                .               
```

#### Opcodes

```
  0: 0x0000 [0x00] END_REQSTACK()
```

### Event 65535.1

#### Metadata

| Field        | Value    |
|--------------|----------|
| Entrypoint   | 0x0001   |
| Data Size    | 19 bytes |
| Instructions | 4        |

```
      00 01 02 03 04 05 06 07  08 09 0A 0B 0C 0D 0E 0F
      -- -- -- -- -- -- -- --  -- -- -- -- -- -- -- --
0000:    59 04 33 22 03 01 00  80 1F 00 01 80 02 80 03   Y.3"...........
0010: 80 1F 01 00                                       ....            
```

#### Opcodes

```
  0: 0x0001 [0x59] UPDATE_ENTITY_DATA: Set kenbutsu09 (ID: 16982579/0x01032233) main speed = 15* * 0.1
  1: 0x0009 [0x1F] MOVE_ENTITY: EventEntity moves to X=79.636*, Z=-129.545*, Y=-6.000*
  2: 0x0011 [0x1F] MOVE_ENTITY: Update entity position (mode=1)
  3: 0x0013 [0x00] END_REQSTACK()
```

### Event 65535.2

#### Metadata

| Field        | Value    |
|--------------|----------|
| Entrypoint   | 0x0014   |
| Data Size    | 18 bytes |
| Instructions | 4        |

```
      00 01 02 03 04 05 06 07  08 09 0A 0B 0C 0D 0E 0F
      -- -- -- -- -- -- -- --  -- -- -- -- -- -- -- --
0010:             6E 33 22 03  01 04 80 99 33 22 03 01      n3".....3"..
0020: 99 33 22 03 01 00                                 .3"...          
```

#### Opcodes

```
  0: 0x0014 [0x6E] kenbutsu09 (ID: 16982579/0x01032233) uses emote 13*
  1: 0x001B [0x99] Wait for kenbutsu09 (ID: 16982579/0x01032233) animation to complete
  2: 0x0020 [0x99] Wait for kenbutsu09 (ID: 16982579/0x01032233) animation to complete
  3: 0x0025 [0x00] END_REQSTACK()
```
