# 16982227 - Falzum

## Common Data

| Field            | Value                          |
|------------------|--------------------------------|
| Zone             | Aht Urhgan Whitegate2 (ID: 50) |
| Block Size       | 2764 bytes                     |
| Total Events     | 103                            |
| References Count | 195                            |

## List of Events

| Event ID                    | Entrypoint   |   Size |   Instructions |
|-----------------------------|--------------|--------|----------------|
| [65535](#event-65535)       | 0x0000       |      1 |              1 |
| [65535.1](#event-65535-1)   | 0x0001       |      1 |              1 |
| [65535.2](#event-65535-2)   | 0x0002       |     18 |              4 |
| [65535.3](#event-65535-3)   | 0x0014       |     10 |              2 |
| [65535.4](#event-65535-4)   | 0x001E       |      9 |              3 |
| [65535.5](#event-65535-5)   | 0x0027       |      9 |              3 |
| [65535.6](#event-65535-6)   | 0x0030       |     10 |              2 |
| [65535.7](#event-65535-7)   | 0x003A       |     10 |              2 |
| [3030](#event-3030)         | 0x0044       |      1 |              1 |
| [3022](#event-3022)         | 0x0045       |      1 |              1 |
| [3032](#event-3032)         | 0x0046       |      1 |              1 |
| [3033](#event-3033)         | 0x0047       |      1 |              1 |
| [3034](#event-3034)         | 0x0048       |      1 |              1 |
| [65535.8](#event-65535-8)   | 0x0049       |     10 |              2 |
| [65535.9](#event-65535-9)   | 0x0053       |     10 |              2 |
| [65535.10](#event-65535-10) | 0x005D       |     35 |              9 |
| [65535.11](#event-65535-11) | 0x0080       |     61 |             11 |
| [65535.12](#event-65535-12) | 0x00BD       |     10 |              2 |
| [65535.13](#event-65535-13) | 0x00C7       |     10 |              2 |
| [65535.14](#event-65535-14) | 0x00D1       |     10 |              2 |
| [65535.15](#event-65535-15) | 0x00DB       |     25 |              6 |
| [65535.16](#event-65535-16) | 0x00F4       |     15 |              3 |
| [65535.17](#event-65535-17) | 0x0103       |      1 |              1 |
| [65535.18](#event-65535-18) | 0x0104       |     15 |              5 |
| [65535.19](#event-65535-19) | 0x0113       |     12 |              3 |
| [65535.20](#event-65535-20) | 0x011F       |      1 |              1 |
| [65535.21](#event-65535-21) | 0x0120       |     20 |              3 |
| [65535.22](#event-65535-22) | 0x0134       |     20 |              3 |
| [65535.23](#event-65535-23) | 0x0148       |     20 |              3 |
| [65535.24](#event-65535-24) | 0x015C       |     10 |              2 |
| [65535.25](#event-65535-25) | 0x0166       |     15 |              5 |
| [65535.26](#event-65535-26) | 0x0175       |     10 |              2 |
| [65535.27](#event-65535-27) | 0x017F       |     10 |              2 |
| [65535.28](#event-65535-28) | 0x0189       |     10 |              2 |
| [65535.29](#event-65535-29) | 0x0193       |     15 |              5 |
| [65535.30](#event-65535-30) | 0x01A2       |     13 |              3 |
| [65535.31](#event-65535-31) | 0x01AF       |     22 |              8 |
| [65535.32](#event-65535-32) | 0x01C5       |     10 |              2 |
| [65535.33](#event-65535-33) | 0x01CF       |     26 |             10 |
| [65535.34](#event-65535-34) | 0x01E9       |     10 |              2 |
| [65535.35](#event-65535-35) | 0x01F3       |     10 |              2 |
| [65535.36](#event-65535-36) | 0x01FD       |     15 |              5 |
| [65535.37](#event-65535-37) | 0x020C       |     11 |              5 |
| [65535.38](#event-65535-38) | 0x0217       |     15 |              3 |
| [65535.39](#event-65535-39) | 0x0226       |     30 |              4 |
| [65535.40](#event-65535-40) | 0x0244       |     10 |              2 |
| [65535.41](#event-65535-41) | 0x024E       |     10 |              2 |
| [65535.42](#event-65535-42) | 0x0258       |     15 |              5 |
| [65535.43](#event-65535-43) | 0x0267       |     22 |              8 |
| [65535.44](#event-65535-44) | 0x027D       |     15 |              5 |
| [65535.45](#event-65535-45) | 0x028C       |     10 |              2 |
| [65535.46](#event-65535-46) | 0x0296       |     10 |              2 |
| [65535.47](#event-65535-47) | 0x02A0       |     15 |              5 |
| [65535.48](#event-65535-48) | 0x02AF       |     21 |              5 |
| [65535.49](#event-65535-49) | 0x02C4       |     13 |              3 |
| [65535.50](#event-65535-50) | 0x02D1       |     15 |              4 |
| [65535.51](#event-65535-51) | 0x02E0       |     15 |              5 |
| [65535.52](#event-65535-52) | 0x02EF       |     10 |              2 |
| [65535.53](#event-65535-53) | 0x02F9       |     18 |              6 |
| [65535.54](#event-65535-54) | 0x030B       |     10 |              2 |
| [65535.55](#event-65535-55) | 0x0315       |     34 |             10 |
| [65535.56](#event-65535-56) | 0x0337       |     10 |              2 |
| [65535.57](#event-65535-57) | 0x0341       |     14 |              4 |
| [65535.58](#event-65535-58) | 0x034F       |     19 |              5 |
| [65535.59](#event-65535-59) | 0x0362       |     37 |              5 |
| [65535.60](#event-65535-60) | 0x0387       |    185 |             37 |
| [5030](#event-5030)         | 0x0440       |      1 |              1 |
| [65535.61](#event-65535-61) | 0x0441       |     10 |              2 |
| [65535.62](#event-65535-62) | 0x044B       |     10 |              2 |
| [65535.63](#event-65535-63) | 0x0455       |     14 |              4 |
| [65535.64](#event-65535-64) | 0x0463       |     37 |              9 |
| [5031](#event-5031)         | 0x0488       |      1 |              1 |
| [5035](#event-5035)         | 0x0489       |      1 |              1 |
| [65535.65](#event-65535-65) | 0x048A       |     10 |              2 |
| [65535.66](#event-65535-66) | 0x0494       |     22 |              6 |
| [5036](#event-5036)         | 0x04AA       |      1 |              1 |
| [5037](#event-5037)         | 0x04AB       |      1 |              1 |
| [5038](#event-5038)         | 0x04AC       |      1 |              1 |
| [65535.67](#event-65535-67) | 0x04AD       |     10 |              2 |
| [65535.68](#event-65535-68) | 0x04B7       |     10 |              2 |
| [65535.69](#event-65535-69) | 0x04C1       |     22 |              6 |
| [65535.70](#event-65535-70) | 0x04D7       |     30 |              6 |
| [65535.71](#event-65535-71) | 0x04F5       |     60 |             12 |
| [65535.72](#event-65535-72) | 0x0531       |     22 |              5 |
| [65535.73](#event-65535-73) | 0x0547       |      1 |              1 |
| [65535.74](#event-65535-74) | 0x0548       |      1 |              1 |
| [65535.75](#event-65535-75) | 0x0549       |     14 |              4 |
| [3093](#event-3093)         | 0x0557       |      1 |              1 |
| [5080](#event-5080)         | 0x0558       |      1 |              1 |
| [5081](#event-5081)         | 0x0559       |      1 |              1 |
| [5082](#event-5082)         | 0x055A       |      1 |              1 |
| [5083](#event-5083)         | 0x055B       |      1 |              1 |
| [5084](#event-5084)         | 0x055C       |      1 |              1 |
| [5085](#event-5085)         | 0x055D       |      1 |              1 |
| [65535.76](#event-65535-76) | 0x055E       |     29 |              7 |
| [65535.77](#event-65535-77) | 0x057B       |     15 |              5 |
| [65535.78](#event-65535-78) | 0x058A       |     22 |              6 |
| [65535.79](#event-65535-79) | 0x05A0       |     45 |              9 |
| [65535.80](#event-65535-80) | 0x05CD       |     30 |              8 |
| [5086](#event-5086)         | 0x05EB       |      1 |              1 |
| [65535.81](#event-65535-81) | 0x05EC       |     21 |              6 |
| [930](#event-930)           | 0x0601       |      1 |              1 |
| [65535.82](#event-65535-82) | 0x0602       |     15 |              5 |

## DAT References (imed_data)

|   Index | Hex Value   |   Dec Value |
|---------|-------------|-------------|
|       0 | 0x0000      |           0 |
|       1 | 0x0001      |           1 |
|       2 | 0x0080      |         128 |
|       3 | 0x63F7      |       25591 |
|       4 | 0xFFFF4DA6  |  4294921638 |
|       5 | 0xFFFFE184  |  4294959492 |
|       6 | 0x0800      |        2048 |
|       7 | 0x880A      |       34826 |
|       8 | 0xFFFF3C27  |  4294917159 |
|       9 | 0xFFFFE53C  |  4294960444 |
|      10 | 0x0386      |         902 |
|      11 | 0x0026      |          38 |
|      12 | 0x8148      |       33096 |
|      13 | 0xFFFF457D  |  4294919549 |
|      14 | 0xFFFFE3DD  |  4294960093 |
|      15 | 0x7158      |       29016 |
|      16 | 0xFFFF4B01  |  4294920961 |
|      17 | 0x65A3      |       26019 |
|      18 | 0xFFFF4C7B  |  4294921339 |
|      19 | 0x0028      |          40 |
|      20 | 0x6BEB      |       27627 |
|      21 | 0xFFFF5235  |  4294922805 |
|      22 | 0x6949      |       26953 |
|      23 | 0xFFFF552A  |  4294923562 |
|      24 | 0xFFFEE699  |  4294895257 |
|      25 | 0xFFFEACB5  |  4294880437 |
|      26 | 0x0C55      |        3157 |
|      27 | 0x13854     |       79956 |
|      28 | 0x65FD      |       26109 |
|      29 | 0xFFFFFEBC  |  4294966972 |
|      30 | 0x0BDA      |        3034 |
|      31 | 0x13A89     |       80521 |
|      32 | 0xFFFE1BBE  |  4294843326 |
|      33 | 0xFFFFE890  |  4294961296 |
|      34 | 0x054C      |        1356 |
|      35 | 0x000B      |          11 |
|      36 | 0x12E93     |       77459 |
|      37 | 0xFFFE177A  |  4294842234 |
|      38 | 0x09AC      |        2476 |
|      39 | 0x640A      |       25610 |
|      40 | 0xFFFF50B2  |  4294922418 |
|      41 | 0x1B4FB     |      111867 |
|      42 | 0xFFFF8F6B  |  4294938475 |
|      43 | 0xFFFFFEAE  |  4294966958 |
|      44 | 0x0415      |        1045 |
|      45 | 0x641C      |       25628 |
|      46 | 0xFFFF5222  |  4294922786 |
|      47 | 0x6D58      |       27992 |
|      48 | 0xFFFF4F23  |  4294922019 |
|      49 | 0x0283      |         643 |
|      50 | 0x13845     |       79941 |
|      51 | 0xFFFE2B40  |  4294847296 |
|      52 | 0x03F7      |        1015 |
|      53 | 0x13880     |       80000 |
|      54 | 0xFFFE14F4  |  4294841588 |
|      55 | 0x03F9      |        1017 |
|      56 | 0xFFFFE837  |  4294961207 |
|      57 | 0xFFFECA9C  |  4294888092 |
|      58 | 0x0CB1      |        3249 |
|      59 | 0x13901     |       80129 |
|      60 | 0xFFFE1ADF  |  4294843103 |
|      61 | 0x03F8      |        1016 |
|      62 | 0x138ED     |       80109 |
|      63 | 0xFFFE0C77  |  4294839415 |
|      64 | 0x0018      |          24 |
|      65 | 0x6F4F      |       28495 |
|      66 | 0xFFFF4DAF  |  4294921647 |
|      67 | 0x07FE      |        2046 |
|      68 | 0x70FA      |       28922 |
|      69 | 0xFFFF2502  |  4294911234 |
|      70 | 0xFFFFE891  |  4294961297 |
|      71 | 0x0FD7      |        4055 |
|      72 | 0x81D1      |       33233 |
|      73 | 0xFFFF2A7F  |  4294912639 |
|      74 | 0xFFFFE633  |  4294960691 |
|      75 | 0x001E      |          30 |
|      76 | 0x7CB7      |       31927 |
|      77 | 0xFFFF46ED  |  4294919917 |
|      78 | 0x0AA5      |        2725 |
|      79 | 0x0078      |         120 |
|      80 | 0x8F8F      |       36751 |
|      81 | 0xFFFF5B71  |  4294925169 |
|      82 | 0xFFFFE3E1  |  4294960097 |
|      83 | 0x2403D     |      147517 |
|      84 | 0xFFFFF830  |  4294965296 |
|      85 | 0x0FFF      |        4095 |
|      86 | 0x24838     |      149560 |
|      87 | 0x0006      |           6 |
|      88 | 0x24349     |      148297 |
|      89 | 0xFFFFF997  |  4294965655 |
|      90 | 0x2476F     |      149359 |
|      91 | 0xFFFFFC99  |  4294966425 |
|      92 | 0xFFFFFFFB  |  4294967291 |
|      93 | 0xB911      |       47377 |
|      94 | 0x0C00      |        3072 |
|      95 | 0x24732     |      149298 |
|      96 | 0xFFFFFEA2  |  4294966946 |
|      97 | 0x0009      |           9 |
|      98 | 0x23CC6     |      146630 |
|      99 | 0xFFFFFED8  |  4294967000 |
|     100 | 0x002D      |          45 |
|     101 | 0x001D      |          29 |
|     102 | 0x3384      |       13188 |
|     103 | 0xFFFF08A4  |  4294903972 |
|     104 | 0x0722      |        1826 |
|     105 | 0x308B      |       12427 |
|     106 | 0xFFFF07BD  |  4294903741 |
|     107 | 0xFFFFE4A9  |  4294960297 |
|     108 | 0x0713      |        1811 |
|     109 | 0x7A4D      |       31309 |
|     110 | 0xFFFF2A55  |  4294912597 |
|     111 | 0xFFFFE7DE  |  4294961118 |
|     112 | 0x762D      |       30253 |
|     113 | 0xFFFF47DC  |  4294920156 |
|     114 | 0xFFFFE275  |  4294959733 |
|     115 | 0x093D      |        2365 |
|     116 | 0x0014      |          20 |
|     117 | 0x002A      |          42 |
|     118 | 0x680A      |       26634 |
|     119 | 0xFFFF4A89  |  4294920841 |
|     120 | 0xFFFFC6F2  |  4294952690 |
|     121 | 0xFFFF1ABA  |  4294908602 |
|     122 | 0xFFFFF6E6  |  4294964966 |
|     123 | 0x0721      |        1825 |
|     124 | 0xFFFFE114  |  4294959380 |
|     125 | 0xFFFF18FB  |  4294908155 |
|     126 | 0xFFFFEF9A  |  4294963098 |
|     127 | 0xFFFEEAD7  |  4294896343 |
|     128 | 0xFFFFF7E2  |  4294965218 |
|     129 | 0xFFFECD90  |  4294888848 |
|     130 | 0x03BB      |         955 |
|     131 | 0x000D      |          13 |
|     132 | 0x137C8     |       79816 |
|     133 | 0xFFFE1850  |  4294842448 |
|     134 | 0x11B17     |       72471 |
|     135 | 0xFFFE14D0  |  4294841552 |
|     136 | 0x0005      |           5 |
|     137 | 0x0002      |           2 |
|     138 | 0x000A      |          10 |
|     139 | 0x0046      |          70 |
|     140 | 0x008C      |         140 |
|     141 | 0x00D2      |         210 |
|     142 | 0x8AB8      |       35512 |
|     143 | 0xFFFF2410  |  4294910992 |
|     144 | 0x03D0      |         976 |
|     145 | 0x650D      |       25869 |
|     146 | 0xFFFF4DF0  |  4294921712 |
|     147 | 0x0794      |        1940 |
|     148 | 0x8173      |       33139 |
|     149 | 0xFFFF4DDF  |  4294921695 |
|     150 | 0x87E3      |       34787 |
|     151 | 0xFFFF2BA7  |  4294912935 |
|     152 | 0x0A37      |        2615 |
|     153 | 0x003C      |          60 |
|     154 | 0x64E9      |       25833 |
|     155 | 0xFFFF2ACD  |  4294912717 |
|     156 | 0xFFFEC951  |  4294887761 |
|     157 | 0x1DE1B     |      122395 |
|     158 | 0x0DB0      |        3504 |
|     159 | 0xFFFED4F5  |  4294890741 |
|     160 | 0x1EC08     |      125960 |
|     161 | 0xFFFE9D97  |  4294876567 |
|     162 | 0x1F7A2     |      128930 |
|     163 | 0x08EA      |        2282 |
|     164 | 0xFFFED7E2  |  4294891490 |
|     165 | 0x1EF45     |      126789 |
|     166 | 0x0F6D      |        3949 |
|     167 | 0xFFFEDD16  |  4294892822 |
|     168 | 0x1EAE3     |      125667 |
|     169 | 0x0043      |          67 |
|     170 | 0xFFFED74B  |  4294891339 |
|     171 | 0x1EDF7     |      126455 |
|     172 | 0xFFFED547  |  4294890823 |
|     173 | 0x1F6FC     |      128764 |
|     174 | 0xFFFEDCBB  |  4294892731 |
|     175 | 0x1F791     |      128913 |
|     176 | 0x7E2F      |       32303 |
|     177 | 0xFFFF4DA2  |  4294921634 |
|     178 | 0xFFF75158  |  4294398296 |
|     179 | 0x8DC7      |       36295 |
|     180 | 0x07CF      |        1999 |
|     181 | 0xFFF7681F  |  4294404127 |
|     182 | 0x9BD1      |       39889 |
|     183 | 0xFFF760B2  |  4294402226 |
|     184 | 0x988A      |       39050 |
|     185 | 0x0FA0      |        4000 |
|     186 | 0xFFF75099  |  4294398105 |
|     187 | 0x8E0E      |       36366 |
|     188 | 0xFFF7555D  |  4294399325 |
|     189 | 0x8A11      |       35345 |
|     190 | 0xF7D0      |       63440 |
|     191 | 0xFFFEC9B3  |  4294887859 |
|     192 | 0xFFFFB850  |  4294948944 |
|     193 | 0xFFFC049F  |  4294706335 |
|     194 | 0xFFFFB9B0  |  4294949296 |

## Events

### Event 65535

#### Metadata

| Field        | Value   |
|--------------|---------|
| Entrypoint   | 0x0000  |
| Data Size    | 1 bytes |
| Instructions | 1       |

```
      00 01 02 03 04 05 06 07  08 09 0A 0B 0C 0D 0E 0F
      -- -- -- -- -- -- -- --  -- -- -- -- -- -- -- --
0000: 00                                                .               
```

#### Opcodes

```
  0: 0x0000 [0x00] END_REQSTACK()
```

### Event 65535.1

#### Metadata

| Field        | Value   |
|--------------|---------|
| Entrypoint   | 0x0001  |
| Data Size    | 1 bytes |
| Instructions | 1       |

```
      00 01 02 03 04 05 06 07  08 09 0A 0B 0C 0D 0E 0F
      -- -- -- -- -- -- -- --  -- -- -- -- -- -- -- --
0000:    00                                              .              
```

#### Opcodes

```
  0: 0x0001 [0x00] END_REQSTACK()
```

### Event 65535.2

#### Metadata

| Field        | Value    |
|--------------|----------|
| Entrypoint   | 0x0002   |
| Data Size    | 18 bytes |
| Instructions | 4        |

```
      00 01 02 03 04 05 06 07  08 09 0A 0B 0C 0D 0E 0F
      -- -- -- -- -- -- -- --  -- -- -- -- -- -- -- --
0000:       22 00 2F 00 F8 FF  FF 7F 6C F8 FF FF 7F 00    "./.....l.....
0010: 80 01 80 00                                       ....            
```

#### Opcodes

```
  0: 0x0002 [0x22] ENTITY_HIDE_FLAG(enabled=0x00)
  1: 0x0004 [0x2F] EventEntity->Render.Flags0 &= ~0x80000 // Bit 19
  2: 0x000A [0x6C] FADE_ENTITY_COLOR(entity_id=EventEntity, end_alpha=0*, fade_time=1*)
  3: 0x0013 [0x00] END_REQSTACK()
```

### Event 65535.3

#### Metadata

| Field        | Value    |
|--------------|----------|
| Entrypoint   | 0x0014   |
| Data Size    | 10 bytes |
| Instructions | 2        |

```
      00 01 02 03 04 05 06 07  08 09 0A 0B 0C 0D 0E 0F
      -- -- -- -- -- -- -- --  -- -- -- -- -- -- -- --
0010:             6C F8 FF FF  7F 02 80 01 80 00            l.........  
```

#### Opcodes

```
  0: 0x0014 [0x6C] FADE_ENTITY_COLOR(entity_id=EventEntity, end_alpha=128*, fade_time=1*)
  1: 0x001D [0x00] END_REQSTACK()
```

### Event 65535.4

#### Metadata

| Field        | Value   |
|--------------|---------|
| Entrypoint   | 0x001E  |
| Data Size    | 9 bytes |
| Instructions | 3       |

```
      00 01 02 03 04 05 06 07  08 09 0A 0B 0C 0D 0E 0F
      -- -- -- -- -- -- -- --  -- -- -- -- -- -- -- --
0010:                                            22 00                ".
0020: 2F 00 F8 FF FF 7F 00                              /......         
```

#### Opcodes

```
  0: 0x001E [0x22] ENTITY_HIDE_FLAG(enabled=0x00)
  1: 0x0020 [0x2F] EventEntity->Render.Flags0 &= ~0x80000 // Bit 19
  2: 0x0026 [0x00] END_REQSTACK()
```

### Event 65535.5

#### Metadata

| Field        | Value   |
|--------------|---------|
| Entrypoint   | 0x0027  |
| Data Size    | 9 bytes |
| Instructions | 3       |

```
      00 01 02 03 04 05 06 07  08 09 0A 0B 0C 0D 0E 0F
      -- -- -- -- -- -- -- --  -- -- -- -- -- -- -- --
0020:                      22  01 2F 01 F8 FF FF 7F 00         "./......
```

#### Opcodes

```
  0: 0x0027 [0x22] ENTITY_HIDE_FLAG(enabled=0x01)
  1: 0x0029 [0x2F] EventEntity->Render.Flags0 |= 0x80000 // Bit 19
  2: 0x002F [0x00] END_REQSTACK()
```

### Event 65535.6

#### Metadata

| Field        | Value    |
|--------------|----------|
| Entrypoint   | 0x0030   |
| Data Size    | 10 bytes |
| Instructions | 2        |

```
      00 01 02 03 04 05 06 07  08 09 0A 0B 0C 0D 0E 0F
      -- -- -- -- -- -- -- --  -- -- -- -- -- -- -- --
0030: 6C F8 FF FF 7F 00 80 01  80 00                    l.........      
```

#### Opcodes

```
  0: 0x0030 [0x6C] FADE_ENTITY_COLOR(entity_id=EventEntity, end_alpha=0*, fade_time=1*)
  1: 0x0039 [0x00] END_REQSTACK()
```

### Event 65535.7

#### Metadata

| Field        | Value    |
|--------------|----------|
| Entrypoint   | 0x003A   |
| Data Size    | 10 bytes |
| Instructions | 2        |

```
      00 01 02 03 04 05 06 07  08 09 0A 0B 0C 0D 0E 0F
      -- -- -- -- -- -- -- --  -- -- -- -- -- -- -- --
0030:                                6C F8 FF FF 7F 02            l.....
0040: 80 01 80 00                                       ....            
```

#### Opcodes

```
  0: 0x003A [0x6C] FADE_ENTITY_COLOR(entity_id=EventEntity, end_alpha=128*, fade_time=1*)
  1: 0x0043 [0x00] END_REQSTACK()
```

### Event 3030

#### Metadata

| Field        | Value   |
|--------------|---------|
| Entrypoint   | 0x0044  |
| Data Size    | 1 bytes |
| Instructions | 1       |

```
      00 01 02 03 04 05 06 07  08 09 0A 0B 0C 0D 0E 0F
      -- -- -- -- -- -- -- --  -- -- -- -- -- -- -- --
0040:             00                                        .           
```

#### Opcodes

```
  0: 0x0044 [0x00] END_REQSTACK()
```

### Event 3022

#### Metadata

| Field        | Value   |
|--------------|---------|
| Entrypoint   | 0x0045  |
| Data Size    | 1 bytes |
| Instructions | 1       |

```
      00 01 02 03 04 05 06 07  08 09 0A 0B 0C 0D 0E 0F
      -- -- -- -- -- -- -- --  -- -- -- -- -- -- -- --
0040:                00                                      .          
```

#### Opcodes

```
  0: 0x0045 [0x00] END_REQSTACK()
```

### Event 3032

#### Metadata

| Field        | Value   |
|--------------|---------|
| Entrypoint   | 0x0046  |
| Data Size    | 1 bytes |
| Instructions | 1       |

```
      00 01 02 03 04 05 06 07  08 09 0A 0B 0C 0D 0E 0F
      -- -- -- -- -- -- -- --  -- -- -- -- -- -- -- --
0040:                   00                                    .         
```

#### Opcodes

```
  0: 0x0046 [0x00] END_REQSTACK()
```

### Event 3033

#### Metadata

| Field        | Value   |
|--------------|---------|
| Entrypoint   | 0x0047  |
| Data Size    | 1 bytes |
| Instructions | 1       |

```
      00 01 02 03 04 05 06 07  08 09 0A 0B 0C 0D 0E 0F
      -- -- -- -- -- -- -- --  -- -- -- -- -- -- -- --
0040:                      00                                  .        
```

#### Opcodes

```
  0: 0x0047 [0x00] END_REQSTACK()
```

### Event 3034

#### Metadata

| Field        | Value   |
|--------------|---------|
| Entrypoint   | 0x0048  |
| Data Size    | 1 bytes |
| Instructions | 1       |

```
      00 01 02 03 04 05 06 07  08 09 0A 0B 0C 0D 0E 0F
      -- -- -- -- -- -- -- --  -- -- -- -- -- -- -- --
0040:                          00                               .       
```

#### Opcodes

```
  0: 0x0048 [0x00] END_REQSTACK()
```

### Event 65535.8

#### Metadata

| Field        | Value    |
|--------------|----------|
| Entrypoint   | 0x0049   |
| Data Size    | 10 bytes |
| Instructions | 2        |

```
      00 01 02 03 04 05 06 07  08 09 0A 0B 0C 0D 0E 0F
      -- -- -- -- -- -- -- --  -- -- -- -- -- -- -- --
0040:                             37 03 80 04 80 05 80           7......
0050: 06 80 00                                          ...             
```

#### Opcodes

```
  0: 0x0049 [0x37] UPDATE_EVENT_POSITION_AND_DIR: x=25.591*, z=-45.658*, y=-7.804*, direction=180.0°*
  1: 0x0052 [0x00] END_REQSTACK()
```

### Event 65535.9

#### Metadata

| Field        | Value    |
|--------------|----------|
| Entrypoint   | 0x0053   |
| Data Size    | 10 bytes |
| Instructions | 2        |

```
      00 01 02 03 04 05 06 07  08 09 0A 0B 0C 0D 0E 0F
      -- -- -- -- -- -- -- --  -- -- -- -- -- -- -- --
0050:          37 07 80 08 80  09 80 0A 80 00              7.........   
```

#### Opcodes

```
  0: 0x0053 [0x37] UPDATE_EVENT_POSITION_AND_DIR: x=34.826*, z=-50.137*, y=-6.852*, direction=79.3°*
  1: 0x005C [0x00] END_REQSTACK()
```

### Event 65535.10

#### Metadata

| Field        | Value    |
|--------------|----------|
| Entrypoint   | 0x005D   |
| Data Size    | 35 bytes |
| Instructions | 9        |

```
      00 01 02 03 04 05 06 07  08 09 0A 0B 0C 0D 0E 0F
      -- -- -- -- -- -- -- --  -- -- -- -- -- -- -- --
0050:                                         32 0B 80               2..
0060: 1F 00 0C 80 0D 80 0E 80  1F 01 1F 00 0F 80 10 80  ................
0070: 05 80 1F 01 1F 00 11 80  12 80 05 80 1F 01 6F 00  ..............o.
```

#### Opcodes

```
  0: 0x005D [0x32] ExtData[1]->MainSpeed = 38* * 0.1
  1: 0x0060 [0x1F] MOVE_ENTITY: EventEntity moves to X=33.096*, Z=-47.747*, Y=-7.203*
  2: 0x0068 [0x1F] MOVE_ENTITY: Update entity position (mode=1)
  3: 0x006A [0x1F] MOVE_ENTITY: EventEntity moves to X=29.016*, Z=-46.335*, Y=-7.804*
  4: 0x0072 [0x1F] MOVE_ENTITY: Update entity position (mode=1)
  5: 0x0074 [0x1F] MOVE_ENTITY: EventEntity moves to X=26.019*, Z=-45.957*, Y=-7.804*
  6: 0x007C [0x1F] MOVE_ENTITY: Update entity position (mode=1)
  7: 0x007E [0x6F] WAIT_FRAME_DELAY: Yield until WaitTime reaches zero
  8: 0x007F [0x00] END_REQSTACK()
```

### Event 65535.11

#### Metadata

| Field        | Value    |
|--------------|----------|
| Entrypoint   | 0x0080   |
| Data Size    | 61 bytes |
| Instructions | 11       |

```
      00 01 02 03 04 05 06 07  08 09 0A 0B 0C 0D 0E 0F
      -- -- -- -- -- -- -- --  -- -- -- -- -- -- -- --
0080: 32 13 80 1F 00 14 80 15  80 05 80 1F 01 1F 00 16  2...............
0090: 80 17 80 05 80 1F 01 6F  03 00 00 07 7F 1A AC 03  .......o........
00A0: 66 01 00 F8 FF FF 7F F8  FF FF 7F 73 68 61 30 53  f..........sha0S
00B0: F8 FF FF 7F F8 FF FF 7F  73 68 61 30 00           ........sha0.   
```

#### Opcodes

```
  0: 0x0080 [0x32] ExtData[1]->MainSpeed = 40* * 0.1
  1: 0x0083 [0x1F] MOVE_ENTITY: EventEntity moves to X=27.627*, Z=-44.491*, Y=-7.804*
  2: 0x008B [0x1F] MOVE_ENTITY: Update entity position (mode=1)
  3: 0x008D [0x1F] MOVE_ENTITY: EventEntity moves to X=26.953*, Z=-43.734*, Y=-7.804*
  4: 0x0095 [0x1F] MOVE_ENTITY: Update entity position (mode=1)
  5: 0x0097 [0x6F] WAIT_FRAME_DELAY: Yield until WaitTime reaches zero
  6: 0x0098 [0x03] ExtData[1]->WorkLocal[0] = Entity->Race
  7: 0x009D [0x1A] CALL_SUBROUTINE(address=0x03AC)
  8: 0x00A0 [0x66] LOAD_EXT_SCHEDULER_MAIN: Load scheduler "sha0" with entities [EventEntity, EventEntity], work=ExtData[1]->WorkLocal[1]
  9: 0x00AF [0x53] WAIT_SCHEDULER_TASK: Wait for scheduler "sha0" with entities [EventEntity, EventEntity]
 10: 0x00BC [0x00] END_REQSTACK()
```

### Event 65535.12

#### Metadata

| Field        | Value    |
|--------------|----------|
| Entrypoint   | 0x00BD   |
| Data Size    | 10 bytes |
| Instructions | 2        |

```
      00 01 02 03 04 05 06 07  08 09 0A 0B 0C 0D 0E 0F
      -- -- -- -- -- -- -- --  -- -- -- -- -- -- -- --
00B0:                                         37 18 80               7..
00C0: 19 80 00 80 1A 80 00                              .......         
```

#### Opcodes

```
  0: 0x00BD [0x37] UPDATE_EVENT_POSITION_AND_DIR: x=-72.039*, z=-86.859*, y=0.000*, direction=277.5°*
  1: 0x00C6 [0x00] END_REQSTACK()
```

### Event 65535.13

#### Metadata

| Field        | Value    |
|--------------|----------|
| Entrypoint   | 0x00C7   |
| Data Size    | 10 bytes |
| Instructions | 2        |

```
      00 01 02 03 04 05 06 07  08 09 0A 0B 0C 0D 0E 0F
      -- -- -- -- -- -- -- --  -- -- -- -- -- -- -- --
00C0:                      37  1B 80 1C 80 1D 80 1E 80         7........
00D0: 00                                                .               
```

#### Opcodes

```
  0: 0x00C7 [0x37] UPDATE_EVENT_POSITION_AND_DIR: x=79.956*, z=26.109*, y=-0.324*, direction=266.7°*
  1: 0x00D0 [0x00] END_REQSTACK()
```

### Event 65535.14

#### Metadata

| Field        | Value    |
|--------------|----------|
| Entrypoint   | 0x00D1   |
| Data Size    | 10 bytes |
| Instructions | 2        |

```
      00 01 02 03 04 05 06 07  08 09 0A 0B 0C 0D 0E 0F
      -- -- -- -- -- -- -- --  -- -- -- -- -- -- -- --
00D0:    37 1F 80 20 80 21 80  22 80 00                  7.. .!."..     
```

#### Opcodes

```
  0: 0x00D1 [0x37] UPDATE_EVENT_POSITION_AND_DIR: x=80.521*, z=-123.970*, y=-6.000*, direction=119.2°*
  1: 0x00DA [0x00] END_REQSTACK()
```

### Event 65535.15

#### Metadata

| Field        | Value    |
|--------------|----------|
| Entrypoint   | 0x00DB   |
| Data Size    | 25 bytes |
| Instructions | 6        |

```
      00 01 02 03 04 05 06 07  08 09 0A 0B 0C 0D 0E 0F
      -- -- -- -- -- -- -- --  -- -- -- -- -- -- -- --
00D0:                                   79 00 F8 FF FF             y....
00E0: 7F CD 20 03 01 32 23 80  1F 00 24 80 25 80 21 80  .. ..2#...$.%.!.
00F0: 1F 01 6F 00                                       ..o.            
```

#### Opcodes

```
  0: 0x00DB [0x79] EventEntity looks at Raillefal (ID: 16982221/0x010320CD) (Basic look)
  1: 0x00E5 [0x32] ExtData[1]->MainSpeed = 11* * 0.1
  2: 0x00E8 [0x1F] MOVE_ENTITY: EventEntity moves to X=77.459*, Z=-125.062*, Y=-6.000*
  3: 0x00F0 [0x1F] MOVE_ENTITY: Update entity position (mode=1)
  4: 0x00F2 [0x6F] WAIT_FRAME_DELAY: Yield until WaitTime reaches zero
  5: 0x00F3 [0x00] END_REQSTACK()
```

### Event 65535.16

#### Metadata

| Field        | Value    |
|--------------|----------|
| Entrypoint   | 0x00F4   |
| Data Size    | 15 bytes |
| Instructions | 3        |

```
      00 01 02 03 04 05 06 07  08 09 0A 0B 0C 0D 0E 0F
      -- -- -- -- -- -- -- --  -- -- -- -- -- -- -- --
00F0:             37 24 80 25  80 21 80 26 80 1E CD 20      7$.%.!.&... 
0100: 03 01 00                                          ...             
```

#### Opcodes

```
  0: 0x00F4 [0x37] UPDATE_EVENT_POSITION_AND_DIR: x=77.459*, z=-125.062*, y=-6.000*, direction=217.6°*
  1: 0x00FD [0x1E] EventEntity looks at Raillefal (ID: 16982221/0x010320CD) and starts talking
  2: 0x0102 [0x00] END_REQSTACK()
```

### Event 65535.17

#### Metadata

| Field        | Value   |
|--------------|---------|
| Entrypoint   | 0x0103  |
| Data Size    | 1 bytes |
| Instructions | 1       |

```
      00 01 02 03 04 05 06 07  08 09 0A 0B 0C 0D 0E 0F
      -- -- -- -- -- -- -- --  -- -- -- -- -- -- -- --
0100:          00                                          .            
```

#### Opcodes

```
  0: 0x0103 [0x00] END_REQSTACK()
```

### Event 65535.18

#### Metadata

| Field        | Value    |
|--------------|----------|
| Entrypoint   | 0x0104   |
| Data Size    | 15 bytes |
| Instructions | 5        |

```
      00 01 02 03 04 05 06 07  08 09 0A 0B 0C 0D 0E 0F
      -- -- -- -- -- -- -- --  -- -- -- -- -- -- -- --
0100:             32 23 80 1F  00 27 80 28 80 05 80 1F      2#...'.(....
0110: 01 6F 00                                          .o.             
```

#### Opcodes

```
  0: 0x0104 [0x32] ExtData[1]->MainSpeed = 11* * 0.1
  1: 0x0107 [0x1F] MOVE_ENTITY: EventEntity moves to X=25.610*, Z=-44.878*, Y=-7.804*
  2: 0x010F [0x1F] MOVE_ENTITY: Update entity position (mode=1)
  3: 0x0111 [0x6F] WAIT_FRAME_DELAY: Yield until WaitTime reaches zero
  4: 0x0112 [0x00] END_REQSTACK()
```

### Event 65535.19

#### Metadata

| Field        | Value    |
|--------------|----------|
| Entrypoint   | 0x0113   |
| Data Size    | 12 bytes |
| Instructions | 3        |

```
      00 01 02 03 04 05 06 07  08 09 0A 0B 0C 0D 0E 0F
      -- -- -- -- -- -- -- --  -- -- -- -- -- -- -- --
0110:          37 29 80 2A 80  2B 80 2C 80 22 01 00        7).*.+.,.".. 
```

#### Opcodes

```
  0: 0x0113 [0x37] UPDATE_EVENT_POSITION_AND_DIR: x=111.867*, z=-28.821*, y=-0.338*, direction=91.8°*
  1: 0x011C [0x22] ENTITY_HIDE_FLAG(enabled=0x01)
  2: 0x011E [0x00] END_REQSTACK()
```

### Event 65535.20

#### Metadata

| Field        | Value   |
|--------------|---------|
| Entrypoint   | 0x011F  |
| Data Size    | 1 bytes |
| Instructions | 1       |

```
      00 01 02 03 04 05 06 07  08 09 0A 0B 0C 0D 0E 0F
      -- -- -- -- -- -- -- --  -- -- -- -- -- -- -- --
0110:                                               00                 .
```

#### Opcodes

```
  0: 0x011F [0x00] END_REQSTACK()
```

### Event 65535.21

#### Metadata

| Field        | Value    |
|--------------|----------|
| Entrypoint   | 0x0120   |
| Data Size    | 20 bytes |
| Instructions | 3        |

```
      00 01 02 03 04 05 06 07  08 09 0A 0B 0C 0D 0E 0F
      -- -- -- -- -- -- -- --  -- -- -- -- -- -- -- --
0120: 79 00 F8 FF FF 7F CD 20  03 01 37 2D 80 2E 80 05  y...... ..7-....
0130: 80 0A 80 00                                       ....            
```

#### Opcodes

```
  0: 0x0120 [0x79] EventEntity looks at Raillefal (ID: 16982221/0x010320CD) (Basic look)
  1: 0x012A [0x37] UPDATE_EVENT_POSITION_AND_DIR: x=25.628*, z=-44.510*, y=-7.804*, direction=79.3°*
  2: 0x0133 [0x00] END_REQSTACK()
```

### Event 65535.22

#### Metadata

| Field        | Value    |
|--------------|----------|
| Entrypoint   | 0x0134   |
| Data Size    | 20 bytes |
| Instructions | 3        |

```
      00 01 02 03 04 05 06 07  08 09 0A 0B 0C 0D 0E 0F
      -- -- -- -- -- -- -- --  -- -- -- -- -- -- -- --
0130:             79 00 F8 FF  FF 7F D3 20 03 01 37 2D      y...... ..7-
0140: 80 2E 80 05 80 0A 80 00                           ........        
```

#### Opcodes

```
  0: 0x0134 [0x79] EventEntity looks at Falzum (ID: 16982227/0x010320D3) (Basic look)
  1: 0x013E [0x37] UPDATE_EVENT_POSITION_AND_DIR: x=25.628*, z=-44.510*, y=-7.804*, direction=79.3°*
  2: 0x0147 [0x00] END_REQSTACK()
```

### Event 65535.23

#### Metadata

| Field        | Value    |
|--------------|----------|
| Entrypoint   | 0x0148   |
| Data Size    | 20 bytes |
| Instructions | 3        |

```
      00 01 02 03 04 05 06 07  08 09 0A 0B 0C 0D 0E 0F
      -- -- -- -- -- -- -- --  -- -- -- -- -- -- -- --
0140:                          79 00 F8 FF FF 7F CD 20          y...... 
0150: 03 01 37 2F 80 30 80 05  80 31 80 00              ..7/.0...1..    
```

#### Opcodes

```
  0: 0x0148 [0x79] EventEntity looks at Raillefal (ID: 16982221/0x010320CD) (Basic look)
  1: 0x0152 [0x37] UPDATE_EVENT_POSITION_AND_DIR: x=27.992*, z=-45.277*, y=-7.804*, direction=56.5°*
  2: 0x015B [0x00] END_REQSTACK()
```

### Event 65535.24

#### Metadata

| Field        | Value    |
|--------------|----------|
| Entrypoint   | 0x015C   |
| Data Size    | 10 bytes |
| Instructions | 2        |

```
      00 01 02 03 04 05 06 07  08 09 0A 0B 0C 0D 0E 0F
      -- -- -- -- -- -- -- --  -- -- -- -- -- -- -- --
0150:                                      37 32 80 33              72.3
0160: 80 21 80 34 80 00                                 .!.4..          
```

#### Opcodes

```
  0: 0x015C [0x37] UPDATE_EVENT_POSITION_AND_DIR: x=79.941*, z=-120.000*, y=-6.000*, direction=89.2°*
  1: 0x0165 [0x00] END_REQSTACK()
```

### Event 65535.25

#### Metadata

| Field        | Value    |
|--------------|----------|
| Entrypoint   | 0x0166   |
| Data Size    | 15 bytes |
| Instructions | 5        |

```
      00 01 02 03 04 05 06 07  08 09 0A 0B 0C 0D 0E 0F
      -- -- -- -- -- -- -- --  -- -- -- -- -- -- -- --
0160:                   32 23  80 1F 00 35 80 36 80 21        2#...5.6.!
0170: 80 1F 01 6F 00                                    ...o.           
```

#### Opcodes

```
  0: 0x0166 [0x32] ExtData[1]->MainSpeed = 11* * 0.1
  1: 0x0169 [0x1F] MOVE_ENTITY: EventEntity moves to X=80.000*, Z=-125.708*, Y=-6.000*
  2: 0x0171 [0x1F] MOVE_ENTITY: Update entity position (mode=1)
  3: 0x0173 [0x6F] WAIT_FRAME_DELAY: Yield until WaitTime reaches zero
  4: 0x0174 [0x00] END_REQSTACK()
```

### Event 65535.26

#### Metadata

| Field        | Value    |
|--------------|----------|
| Entrypoint   | 0x0175   |
| Data Size    | 10 bytes |
| Instructions | 2        |

```
      00 01 02 03 04 05 06 07  08 09 0A 0B 0C 0D 0E 0F
      -- -- -- -- -- -- -- --  -- -- -- -- -- -- -- --
0170:                37 35 80  36 80 21 80 37 80 00          75.6.!.7.. 
```

#### Opcodes

```
  0: 0x0175 [0x37] UPDATE_EVENT_POSITION_AND_DIR: x=80.000*, z=-125.708*, y=-6.000*, direction=89.4°*
  1: 0x017E [0x00] END_REQSTACK()
```

### Event 65535.27

#### Metadata

| Field        | Value    |
|--------------|----------|
| Entrypoint   | 0x017F   |
| Data Size    | 10 bytes |
| Instructions | 2        |

```
      00 01 02 03 04 05 06 07  08 09 0A 0B 0C 0D 0E 0F
      -- -- -- -- -- -- -- --  -- -- -- -- -- -- -- --
0170:                                               37                 7
0180: 38 80 39 80 00 80 3A 80  00                       8.9...:..       
```

#### Opcodes

```
  0: 0x017F [0x37] UPDATE_EVENT_POSITION_AND_DIR: x=-6.089*, z=-79.204*, y=0.000*, direction=285.5°*
  1: 0x0188 [0x00] END_REQSTACK()
```

### Event 65535.28

#### Metadata

| Field        | Value    |
|--------------|----------|
| Entrypoint   | 0x0189   |
| Data Size    | 10 bytes |
| Instructions | 2        |

```
      00 01 02 03 04 05 06 07  08 09 0A 0B 0C 0D 0E 0F
      -- -- -- -- -- -- -- --  -- -- -- -- -- -- -- --
0180:                             37 3B 80 3C 80 21 80           7;.<.!.
0190: 3D 80 00                                          =..             
```

#### Opcodes

```
  0: 0x0189 [0x37] UPDATE_EVENT_POSITION_AND_DIR: x=80.129*, z=-124.193*, y=-6.000*, direction=89.3°*
  1: 0x0192 [0x00] END_REQSTACK()
```

### Event 65535.29

#### Metadata

| Field        | Value    |
|--------------|----------|
| Entrypoint   | 0x0193   |
| Data Size    | 15 bytes |
| Instructions | 5        |

```
      00 01 02 03 04 05 06 07  08 09 0A 0B 0C 0D 0E 0F
      -- -- -- -- -- -- -- --  -- -- -- -- -- -- -- --
0190:          32 0B 80 1F 00  3E 80 3F 80 21 80 1F 01     2....>.?.!...
01A0: 6F 00                                             o.              
```

#### Opcodes

```
  0: 0x0193 [0x32] ExtData[1]->MainSpeed = 38* * 0.1
  1: 0x0196 [0x1F] MOVE_ENTITY: EventEntity moves to X=80.109*, Z=-127.881*, Y=-6.000*
  2: 0x019E [0x1F] MOVE_ENTITY: Update entity position (mode=1)
  3: 0x01A0 [0x6F] WAIT_FRAME_DELAY: Yield until WaitTime reaches zero
  4: 0x01A1 [0x00] END_REQSTACK()
```

### Event 65535.30

#### Metadata

| Field        | Value    |
|--------------|----------|
| Entrypoint   | 0x01A2   |
| Data Size    | 13 bytes |
| Instructions | 3        |

```
      00 01 02 03 04 05 06 07  08 09 0A 0B 0C 0D 0E 0F
      -- -- -- -- -- -- -- --  -- -- -- -- -- -- -- --
01A0:       6E F8 FF FF 7F 40  80 99 F8 FF FF 7F 00       n....@....... 
```

#### Opcodes

```
  0: 0x01A2 [0x6E] EventEntity uses emote 24*
  1: 0x01A9 [0x99] Wait for EventEntity animation to complete
  2: 0x01AE [0x00] END_REQSTACK()
```

### Event 65535.31

#### Metadata

| Field        | Value    |
|--------------|----------|
| Entrypoint   | 0x01AF   |
| Data Size    | 22 bytes |
| Instructions | 8        |

```
      00 01 02 03 04 05 06 07  08 09 0A 0B 0C 0D 0E 0F
      -- -- -- -- -- -- -- --  -- -- -- -- -- -- -- --
01A0:                                               32                 2
01B0: 23 80 1F 00 03 80 04 80  05 80 1F 01 6F 1E 8C 20  #...........o.. 
01C0: 03 01 6F 70 00                                    ..op.           
```

#### Opcodes

```
  0: 0x01AF [0x32] ExtData[1]->MainSpeed = 11* * 0.1
  1: 0x01B2 [0x1F] MOVE_ENTITY: EventEntity moves to X=25.591*, Z=-45.658*, Y=-7.804*
  2: 0x01BA [0x1F] MOVE_ENTITY: Update entity position (mode=1)
  3: 0x01BC [0x6F] WAIT_FRAME_DELAY: Yield until WaitTime reaches zero
  4: 0x01BD [0x1E] EventEntity looks at Naja Salaheem (ID: 16982156/0x0103208C) and starts talking
  5: 0x01C2 [0x6F] WAIT_FRAME_DELAY: Yield until WaitTime reaches zero
  6: 0x01C3 [0x70] WAIT_ENTITY_RENDER_FLAG: Wait while EventEntity->Render.Flags3 bit 2 is set (cancel turn if not)
  7: 0x01C4 [0x00] END_REQSTACK()
```

### Event 65535.32

#### Metadata

| Field        | Value    |
|--------------|----------|
| Entrypoint   | 0x01C5   |
| Data Size    | 10 bytes |
| Instructions | 2        |

```
      00 01 02 03 04 05 06 07  08 09 0A 0B 0C 0D 0E 0F
      -- -- -- -- -- -- -- --  -- -- -- -- -- -- -- --
01C0:                37 03 80  04 80 05 80 06 80 00          7......... 
```

#### Opcodes

```
  0: 0x01C5 [0x37] UPDATE_EVENT_POSITION_AND_DIR: x=25.591*, z=-45.658*, y=-7.804*, direction=180.0°*
  1: 0x01CE [0x00] END_REQSTACK()
```

### Event 65535.33

#### Metadata

| Field        | Value    |
|--------------|----------|
| Entrypoint   | 0x01CF   |
| Data Size    | 26 bytes |
| Instructions | 10       |

```
      00 01 02 03 04 05 06 07  08 09 0A 0B 0C 0D 0E 0F
      -- -- -- -- -- -- -- --  -- -- -- -- -- -- -- --
01C0:                                               32                 2
01D0: 13 80 61 00 1F 00 03 80  04 80 05 80 1F 01 6F 1E  ..a...........o.
01E0: 8C 20 03 01 6F 70 61 01  00                       . ..opa..       
```

#### Opcodes

```
  0: 0x01CF [0x32] ExtData[1]->MainSpeed = 40* * 0.1
  1: 0x01D2 [0x61] EventEntity->Render.Flags2 &= ~0x00000001
  2: 0x01D4 [0x1F] MOVE_ENTITY: EventEntity moves to X=25.591*, Z=-45.658*, Y=-7.804*
  3: 0x01DC [0x1F] MOVE_ENTITY: Update entity position (mode=1)
  4: 0x01DE [0x6F] WAIT_FRAME_DELAY: Yield until WaitTime reaches zero
  5: 0x01DF [0x1E] EventEntity looks at Naja Salaheem (ID: 16982156/0x0103208C) and starts talking
  6: 0x01E4 [0x6F] WAIT_FRAME_DELAY: Yield until WaitTime reaches zero
  7: 0x01E5 [0x70] WAIT_ENTITY_RENDER_FLAG: Wait while EventEntity->Render.Flags3 bit 2 is set (cancel turn if not)
  8: 0x01E6 [0x61] EventEntity->Render.Flags2 |= 0x00000001
  9: 0x01E8 [0x00] END_REQSTACK()
```

### Event 65535.34

#### Metadata

| Field        | Value    |
|--------------|----------|
| Entrypoint   | 0x01E9   |
| Data Size    | 10 bytes |
| Instructions | 2        |

```
      00 01 02 03 04 05 06 07  08 09 0A 0B 0C 0D 0E 0F
      -- -- -- -- -- -- -- --  -- -- -- -- -- -- -- --
01E0:                             37 41 80 42 80 05 80           7A.B...
01F0: 43 80 00                                          C..             
```

#### Opcodes

```
  0: 0x01E9 [0x37] UPDATE_EVENT_POSITION_AND_DIR: x=28.495*, z=-45.649*, y=-7.804*, direction=179.8°*
  1: 0x01F2 [0x00] END_REQSTACK()
```

### Event 65535.35

#### Metadata

| Field        | Value    |
|--------------|----------|
| Entrypoint   | 0x01F3   |
| Data Size    | 10 bytes |
| Instructions | 2        |

```
      00 01 02 03 04 05 06 07  08 09 0A 0B 0C 0D 0E 0F
      -- -- -- -- -- -- -- --  -- -- -- -- -- -- -- --
01F0:          37 44 80 45 80  46 80 47 80 00              7D.E.F.G..   
```

#### Opcodes

```
  0: 0x01F3 [0x37] UPDATE_EVENT_POSITION_AND_DIR: x=28.922*, z=-56.062*, y=-5.999*, direction=356.4°*
  1: 0x01FC [0x00] END_REQSTACK()
```

### Event 65535.36

#### Metadata

| Field        | Value    |
|--------------|----------|
| Entrypoint   | 0x01FD   |
| Data Size    | 15 bytes |
| Instructions | 5        |

```
      00 01 02 03 04 05 06 07  08 09 0A 0B 0C 0D 0E 0F
      -- -- -- -- -- -- -- --  -- -- -- -- -- -- -- --
01F0:                                         32 23 80               2#.
0200: 1F 00 48 80 49 80 4A 80  1F 01 6F 00              ..H.I.J...o.    
```

#### Opcodes

```
  0: 0x01FD [0x32] ExtData[1]->MainSpeed = 11* * 0.1
  1: 0x0200 [0x1F] MOVE_ENTITY: EventEntity moves to X=33.233*, Z=-54.657*, Y=-6.605*
  2: 0x0208 [0x1F] MOVE_ENTITY: Update entity position (mode=1)
  3: 0x020A [0x6F] WAIT_FRAME_DELAY: Yield until WaitTime reaches zero
  4: 0x020B [0x00] END_REQSTACK()
```

### Event 65535.37

#### Metadata

| Field        | Value    |
|--------------|----------|
| Entrypoint   | 0x020C   |
| Data Size    | 11 bytes |
| Instructions | 5        |

```
      00 01 02 03 04 05 06 07  08 09 0A 0B 0C 0D 0E 0F
      -- -- -- -- -- -- -- --  -- -- -- -- -- -- -- --
0200:                                      1C 4B 80 1E              .K..
0210: 8C 20 03 01 6F 70 00                              . ..op.         
```

#### Opcodes

```
  0: 0x020C [0x1C] WAIT(30* ticks)
  1: 0x020F [0x1E] EventEntity looks at Naja Salaheem (ID: 16982156/0x0103208C) and starts talking
  2: 0x0214 [0x6F] WAIT_FRAME_DELAY: Yield until WaitTime reaches zero
  3: 0x0215 [0x70] WAIT_ENTITY_RENDER_FLAG: Wait while EventEntity->Render.Flags3 bit 2 is set (cancel turn if not)
  4: 0x0216 [0x00] END_REQSTACK()
```

### Event 65535.38

#### Metadata

| Field        | Value    |
|--------------|----------|
| Entrypoint   | 0x0217   |
| Data Size    | 15 bytes |
| Instructions | 3        |

```
      00 01 02 03 04 05 06 07  08 09 0A 0B 0C 0D 0E 0F
      -- -- -- -- -- -- -- --  -- -- -- -- -- -- -- --
0210:                      37  4C 80 4D 80 0E 80 4E 80         7L.M...N.
0220: 1E 8C 20 03 01 00                                 .. ...          
```

#### Opcodes

```
  0: 0x0217 [0x37] UPDATE_EVENT_POSITION_AND_DIR: x=31.927*, z=-47.379*, y=-7.203*, direction=239.5°*
  1: 0x0220 [0x1E] EventEntity looks at Naja Salaheem (ID: 16982156/0x0103208C) and starts talking
  2: 0x0225 [0x00] END_REQSTACK()
```

### Event 65535.39

#### Metadata

| Field        | Value    |
|--------------|----------|
| Entrypoint   | 0x0226   |
| Data Size    | 30 bytes |
| Instructions | 4        |

```
      00 01 02 03 04 05 06 07  08 09 0A 0B 0C 0D 0E 0F
      -- -- -- -- -- -- -- --  -- -- -- -- -- -- -- --
0220:                   2C F0  FF FF 7F F0 FF FF 7F 63        ,........c
0230: 61 73 6F 1C 4F 80 2C F0  FF FF 7F F0 FF FF 7F 73  aso.O.,........s
0240: 68 73 6F 00                                       hso.            
```

#### Opcodes

```
  0: 0x0226 [0x2C] CREATE_SCHEDULER_TASK: Create scheduler "caso" with entities [LocalPlayer, LocalPlayer]
  1: 0x0233 [0x1C] WAIT(120* ticks)
  2: 0x0236 [0x2C] CREATE_SCHEDULER_TASK: Create scheduler "shso" with entities [LocalPlayer, LocalPlayer]
  3: 0x0243 [0x00] END_REQSTACK()
```

### Event 65535.40

#### Metadata

| Field        | Value    |
|--------------|----------|
| Entrypoint   | 0x0244   |
| Data Size    | 10 bytes |
| Instructions | 2        |

```
      00 01 02 03 04 05 06 07  08 09 0A 0B 0C 0D 0E 0F
      -- -- -- -- -- -- -- --  -- -- -- -- -- -- -- --
0240:             37 50 80 51  80 52 80 06 80 00            7P.Q.R....  
```

#### Opcodes

```
  0: 0x0244 [0x37] UPDATE_EVENT_POSITION_AND_DIR: x=36.751*, z=-42.127*, y=-7.199*, direction=180.0°*
  1: 0x024D [0x00] END_REQSTACK()
```

### Event 65535.41

#### Metadata

| Field        | Value    |
|--------------|----------|
| Entrypoint   | 0x024E   |
| Data Size    | 10 bytes |
| Instructions | 2        |

```
      00 01 02 03 04 05 06 07  08 09 0A 0B 0C 0D 0E 0F
      -- -- -- -- -- -- -- --  -- -- -- -- -- -- -- --
0240:                                            37 53                7S
0250: 80 01 80 54 80 55 80 00                           ...T.U..        
```

#### Opcodes

```
  0: 0x024E [0x37] UPDATE_EVENT_POSITION_AND_DIR: x=147.517*, z=0.001*, y=-2.000*, direction=359.9°*
  1: 0x0257 [0x00] END_REQSTACK()
```

### Event 65535.42

#### Metadata

| Field        | Value    |
|--------------|----------|
| Entrypoint   | 0x0258   |
| Data Size    | 15 bytes |
| Instructions | 5        |

```
      00 01 02 03 04 05 06 07  08 09 0A 0B 0C 0D 0E 0F
      -- -- -- -- -- -- -- --  -- -- -- -- -- -- -- --
0250:                          32 23 80 1F 00 56 80 57          2#...V.W
0260: 80 54 80 1F 01 6F 00                              .T...o.         
```

#### Opcodes

```
  0: 0x0258 [0x32] ExtData[1]->MainSpeed = 11* * 0.1
  1: 0x025B [0x1F] MOVE_ENTITY: EventEntity moves to X=149.560*, Z=0.006*, Y=-2.000*
  2: 0x0263 [0x1F] MOVE_ENTITY: Update entity position (mode=1)
  3: 0x0265 [0x6F] WAIT_FRAME_DELAY: Yield until WaitTime reaches zero
  4: 0x0266 [0x00] END_REQSTACK()
```

### Event 65535.43

#### Metadata

| Field        | Value    |
|--------------|----------|
| Entrypoint   | 0x0267   |
| Data Size    | 22 bytes |
| Instructions | 8        |

```
      00 01 02 03 04 05 06 07  08 09 0A 0B 0C 0D 0E 0F
      -- -- -- -- -- -- -- --  -- -- -- -- -- -- -- --
0260:                      32  23 80 1F 00 58 80 59 80         2#...X.Y.
0270: 54 80 1F 01 6F 1E 8C 20  03 01 6F 70 00           T...o.. ..op.   
```

#### Opcodes

```
  0: 0x0267 [0x32] ExtData[1]->MainSpeed = 11* * 0.1
  1: 0x026A [0x1F] MOVE_ENTITY: EventEntity moves to X=148.297*, Z=-1.641*, Y=-2.000*
  2: 0x0272 [0x1F] MOVE_ENTITY: Update entity position (mode=1)
  3: 0x0274 [0x6F] WAIT_FRAME_DELAY: Yield until WaitTime reaches zero
  4: 0x0275 [0x1E] EventEntity looks at Naja Salaheem (ID: 16982156/0x0103208C) and starts talking
  5: 0x027A [0x6F] WAIT_FRAME_DELAY: Yield until WaitTime reaches zero
  6: 0x027B [0x70] WAIT_ENTITY_RENDER_FLAG: Wait while EventEntity->Render.Flags3 bit 2 is set (cancel turn if not)
  7: 0x027C [0x00] END_REQSTACK()
```

### Event 65535.44

#### Metadata

| Field        | Value    |
|--------------|----------|
| Entrypoint   | 0x027D   |
| Data Size    | 15 bytes |
| Instructions | 5        |

```
      00 01 02 03 04 05 06 07  08 09 0A 0B 0C 0D 0E 0F
      -- -- -- -- -- -- -- --  -- -- -- -- -- -- -- --
0270:                                         32 23 80               2#.
0280: 1F 00 5A 80 5B 80 54 80  1F 01 6F 00              ..Z.[.T...o.    
```

#### Opcodes

```
  0: 0x027D [0x32] ExtData[1]->MainSpeed = 11* * 0.1
  1: 0x0280 [0x1F] MOVE_ENTITY: EventEntity moves to X=149.359*, Z=-0.871*, Y=-2.000*
  2: 0x0288 [0x1F] MOVE_ENTITY: Update entity position (mode=1)
  3: 0x028A [0x6F] WAIT_FRAME_DELAY: Yield until WaitTime reaches zero
  4: 0x028B [0x00] END_REQSTACK()
```

### Event 65535.45

#### Metadata

| Field        | Value    |
|--------------|----------|
| Entrypoint   | 0x028C   |
| Data Size    | 10 bytes |
| Instructions | 2        |

```
      00 01 02 03 04 05 06 07  08 09 0A 0B 0C 0D 0E 0F
      -- -- -- -- -- -- -- --  -- -- -- -- -- -- -- --
0280:                                      37 5C 80 5D              7\.]
0290: 80 00 80 5E 80 00                                 ...^..          
```

#### Opcodes

```
  0: 0x028C [0x37] UPDATE_EVENT_POSITION_AND_DIR: x=-0.005*, z=47.377*, y=0.000*, direction=270.0°*
  1: 0x0295 [0x00] END_REQSTACK()
```

### Event 65535.46

#### Metadata

| Field        | Value    |
|--------------|----------|
| Entrypoint   | 0x0296   |
| Data Size    | 10 bytes |
| Instructions | 2        |

```
      00 01 02 03 04 05 06 07  08 09 0A 0B 0C 0D 0E 0F
      -- -- -- -- -- -- -- --  -- -- -- -- -- -- -- --
0290:                   37 5F  80 60 80 54 80 43 80 00        7_.`.T.C..
```

#### Opcodes

```
  0: 0x0296 [0x37] UPDATE_EVENT_POSITION_AND_DIR: x=149.298*, z=-0.350*, y=-2.000*, direction=179.8°*
  1: 0x029F [0x00] END_REQSTACK()
```

### Event 65535.47

#### Metadata

| Field        | Value    |
|--------------|----------|
| Entrypoint   | 0x02A0   |
| Data Size    | 15 bytes |
| Instructions | 5        |

```
      00 01 02 03 04 05 06 07  08 09 0A 0B 0C 0D 0E 0F
      -- -- -- -- -- -- -- --  -- -- -- -- -- -- -- --
02A0: 32 61 80 1F 00 62 80 63  80 54 80 1F 01 6F 00     2a...b.c.T...o. 
```

#### Opcodes

```
  0: 0x02A0 [0x32] ExtData[1]->MainSpeed = 9* * 0.1
  1: 0x02A3 [0x1F] MOVE_ENTITY: EventEntity moves to X=146.630*, Z=-0.296*, Y=-2.000*
  2: 0x02AB [0x1F] MOVE_ENTITY: Update entity position (mode=1)
  3: 0x02AD [0x6F] WAIT_FRAME_DELAY: Yield until WaitTime reaches zero
  4: 0x02AE [0x00] END_REQSTACK()
```

### Event 65535.48

#### Metadata

| Field        | Value    |
|--------------|----------|
| Entrypoint   | 0x02AF   |
| Data Size    | 21 bytes |
| Instructions | 5        |

```
      00 01 02 03 04 05 06 07  08 09 0A 0B 0C 0D 0E 0F
      -- -- -- -- -- -- -- --  -- -- -- -- -- -- -- --
02A0:                                               1C                 .
02B0: 64 80 6E F8 FF FF 7F 65  80 99 F8 FF FF 7F 99 F8  d.n....e........
02C0: FF FF 7F 00                                       ....            
```

#### Opcodes

```
  0: 0x02AF [0x1C] WAIT(45* ticks)
  1: 0x02B2 [0x6E] EventEntity uses emote 29*
  2: 0x02B9 [0x99] Wait for EventEntity animation to complete
  3: 0x02BE [0x99] Wait for EventEntity animation to complete
  4: 0x02C3 [0x00] END_REQSTACK()
```

### Event 65535.49

#### Metadata

| Field        | Value    |
|--------------|----------|
| Entrypoint   | 0x02C4   |
| Data Size    | 13 bytes |
| Instructions | 3        |

```
      00 01 02 03 04 05 06 07  08 09 0A 0B 0C 0D 0E 0F
      -- -- -- -- -- -- -- --  -- -- -- -- -- -- -- --
02C0:             37 66 80 67  80 21 80 68 80 32 13 80      7f.g.!.h.2..
02D0: 00                                                .               
```

#### Opcodes

```
  0: 0x02C4 [0x37] UPDATE_EVENT_POSITION_AND_DIR: x=13.188*, z=-63.324*, y=-6.000*, direction=160.5°*
  1: 0x02CD [0x32] ExtData[1]->MainSpeed = 40* * 0.1
  2: 0x02D0 [0x00] END_REQSTACK()
```

### Event 65535.50

#### Metadata

| Field        | Value    |
|--------------|----------|
| Entrypoint   | 0x02D1   |
| Data Size    | 15 bytes |
| Instructions | 4        |

```
      00 01 02 03 04 05 06 07  08 09 0A 0B 0C 0D 0E 0F
      -- -- -- -- -- -- -- --  -- -- -- -- -- -- -- --
02D0:    33 01 37 69 80 6A 80  6B 80 6C 80 32 13 80 00   3.7i.j.k.l.2...
```

#### Opcodes

```
  0: 0x02D1 [0x33] EventEntity->Render.Flags0 |= 0x200000 // Bit 21 (flag=0x01)
  1: 0x02D3 [0x37] UPDATE_EVENT_POSITION_AND_DIR: x=12.427*, z=-63.555*, y=-6.999*, direction=159.2°*
  2: 0x02DC [0x32] ExtData[1]->MainSpeed = 40* * 0.1
  3: 0x02DF [0x00] END_REQSTACK()
```

### Event 65535.51

#### Metadata

| Field        | Value    |
|--------------|----------|
| Entrypoint   | 0x02E0   |
| Data Size    | 15 bytes |
| Instructions | 5        |

```
      00 01 02 03 04 05 06 07  08 09 0A 0B 0C 0D 0E 0F
      -- -- -- -- -- -- -- --  -- -- -- -- -- -- -- --
02E0: 32 23 80 1F 00 6D 80 6E  80 6F 80 1F 01 6F 00     2#...m.n.o...o. 
```

#### Opcodes

```
  0: 0x02E0 [0x32] ExtData[1]->MainSpeed = 11* * 0.1
  1: 0x02E3 [0x1F] MOVE_ENTITY: EventEntity moves to X=31.309*, Z=-54.699*, Y=-6.178*
  2: 0x02EB [0x1F] MOVE_ENTITY: Update entity position (mode=1)
  3: 0x02ED [0x6F] WAIT_FRAME_DELAY: Yield until WaitTime reaches zero
  4: 0x02EE [0x00] END_REQSTACK()
```

### Event 65535.52

#### Metadata

| Field        | Value    |
|--------------|----------|
| Entrypoint   | 0x02EF   |
| Data Size    | 10 bytes |
| Instructions | 2        |

```
      00 01 02 03 04 05 06 07  08 09 0A 0B 0C 0D 0E 0F
      -- -- -- -- -- -- -- --  -- -- -- -- -- -- -- --
02E0:                                               37                 7
02F0: 70 80 71 80 72 80 73 80  00                       p.q.r.s..       
```

#### Opcodes

```
  0: 0x02EF [0x37] UPDATE_EVENT_POSITION_AND_DIR: x=30.253*, z=-47.140*, y=-7.563*, direction=207.9°*
  1: 0x02F8 [0x00] END_REQSTACK()
```

### Event 65535.53

#### Metadata

| Field        | Value    |
|--------------|----------|
| Entrypoint   | 0x02F9   |
| Data Size    | 18 bytes |
| Instructions | 6        |

```
      00 01 02 03 04 05 06 07  08 09 0A 0B 0C 0D 0E 0F
      -- -- -- -- -- -- -- --  -- -- -- -- -- -- -- --
02F0:                             1C 74 80 32 75 80 1F           .t.2u..
0300: 00 76 80 77 80 05 80 1F  01 6F 00                 .v.w.....o.     
```

#### Opcodes

```
  0: 0x02F9 [0x1C] WAIT(20* ticks)
  1: 0x02FC [0x32] ExtData[1]->MainSpeed = 42* * 0.1
  2: 0x02FF [0x1F] MOVE_ENTITY: EventEntity moves to X=26.634*, Z=-46.455*, Y=-7.804*
  3: 0x0307 [0x1F] MOVE_ENTITY: Update entity position (mode=1)
  4: 0x0309 [0x6F] WAIT_FRAME_DELAY: Yield until WaitTime reaches zero
  5: 0x030A [0x00] END_REQSTACK()
```

### Event 65535.54

#### Metadata

| Field        | Value    |
|--------------|----------|
| Entrypoint   | 0x030B   |
| Data Size    | 10 bytes |
| Instructions | 2        |

```
      00 01 02 03 04 05 06 07  08 09 0A 0B 0C 0D 0E 0F
      -- -- -- -- -- -- -- --  -- -- -- -- -- -- -- --
0300:                                   37 78 80 79 80             7x.y.
0310: 7A 80 7B 80 00                                    z.{..           
```

#### Opcodes

```
  0: 0x030B [0x37] UPDATE_EVENT_POSITION_AND_DIR: x=-14.606*, z=-58.694*, y=-2.330*, direction=160.4°*
  1: 0x0314 [0x00] END_REQSTACK()
```

### Event 65535.55

#### Metadata

| Field        | Value    |
|--------------|----------|
| Entrypoint   | 0x0315   |
| Data Size    | 34 bytes |
| Instructions | 10       |

```
      00 01 02 03 04 05 06 07  08 09 0A 0B 0C 0D 0E 0F
      -- -- -- -- -- -- -- --  -- -- -- -- -- -- -- --
0310:                32 13 80  1F 00 7C 80 7D 80 00 80       2....|.}...
0320: 1F 01 6F 1E D6 20 03 01  1C 4B 80 1F 00 7E 80 7F  ..o.. ...K...~..
0330: 80 00 80 1F 01 6F 00                              .....o.         
```

#### Opcodes

```
  0: 0x0315 [0x32] ExtData[1]->MainSpeed = 40* * 0.1
  1: 0x0318 [0x1F] MOVE_ENTITY: EventEntity moves to X=-7.916*, Z=-59.141*, Y=0.000*
  2: 0x0320 [0x1F] MOVE_ENTITY: Update entity position (mode=1)
  3: 0x0322 [0x6F] WAIT_FRAME_DELAY: Yield until WaitTime reaches zero
  4: 0x0323 [0x1E] EventEntity looks at Karababa (ID: 16982230/0x010320D6) and starts talking
  5: 0x0328 [0x1C] WAIT(30* ticks)
  6: 0x032B [0x1F] MOVE_ENTITY: EventEntity moves to X=-4.198*, Z=-70.953*, Y=0.000*
  7: 0x0333 [0x1F] MOVE_ENTITY: Update entity position (mode=1)
  8: 0x0335 [0x6F] WAIT_FRAME_DELAY: Yield until WaitTime reaches zero
  9: 0x0336 [0x00] END_REQSTACK()
```

### Event 65535.56

#### Metadata

| Field        | Value    |
|--------------|----------|
| Entrypoint   | 0x0337   |
| Data Size    | 10 bytes |
| Instructions | 2        |

```
      00 01 02 03 04 05 06 07  08 09 0A 0B 0C 0D 0E 0F
      -- -- -- -- -- -- -- --  -- -- -- -- -- -- -- --
0330:                      37  80 80 81 80 00 80 82 80         7........
0340: 00                                                .               
```

#### Opcodes

```
  0: 0x0337 [0x37] UPDATE_EVENT_POSITION_AND_DIR: x=-2.078*, z=-78.448*, y=0.000*, direction=83.9°*
  1: 0x0340 [0x00] END_REQSTACK()
```

### Event 65535.57

#### Metadata

| Field        | Value    |
|--------------|----------|
| Entrypoint   | 0x0341   |
| Data Size    | 14 bytes |
| Instructions | 4        |

```
      00 01 02 03 04 05 06 07  08 09 0A 0B 0C 0D 0E 0F
      -- -- -- -- -- -- -- --  -- -- -- -- -- -- -- --
0340:    32 83 80 1F 00 84 80  85 80 46 80 1F 01 00      2........F.... 
```

#### Opcodes

```
  0: 0x0341 [0x32] ExtData[1]->MainSpeed = 13* * 0.1
  1: 0x0344 [0x1F] MOVE_ENTITY: EventEntity moves to X=79.816*, Z=-124.848*, Y=-5.999*
  2: 0x034C [0x1F] MOVE_ENTITY: Update entity position (mode=1)
  3: 0x034E [0x00] END_REQSTACK()
```

### Event 65535.58

#### Metadata

| Field        | Value    |
|--------------|----------|
| Entrypoint   | 0x034F   |
| Data Size    | 19 bytes |
| Instructions | 5        |

```
      00 01 02 03 04 05 06 07  08 09 0A 0B 0C 0D 0E 0F
      -- -- -- -- -- -- -- --  -- -- -- -- -- -- -- --
0340:                                               32                 2
0350: 83 80 1F 00 86 80 87 80  21 80 1F 01 1E 79 20 03  ........!....y .
0360: 01 00                                             ..              
```

#### Opcodes

```
  0: 0x034F [0x32] ExtData[1]->MainSpeed = 13* * 0.1
  1: 0x0352 [0x1F] MOVE_ENTITY: EventEntity moves to X=72.471*, Z=-125.744*, Y=-6.000*
  2: 0x035A [0x1F] MOVE_ENTITY: Update entity position (mode=1)
  3: 0x035C [0x1E] EventEntity looks at Rodin-Comidin (ID: 16982137/0x01032079) and starts talking
  4: 0x0361 [0x00] END_REQSTACK()
```

### Event 65535.59

#### Metadata

| Field        | Value    |
|--------------|----------|
| Entrypoint   | 0x0362   |
| Data Size    | 37 bytes |
| Instructions | 5        |

```
      00 01 02 03 04 05 06 07  08 09 0A 0B 0C 0D 0E 0F
      -- -- -- -- -- -- -- --  -- -- -- -- -- -- -- --
0360:       03 00 00 07 7F 1A  AC 03 66 01 00 F8 FF FF    ........f.....
0370: 7F F8 FF FF 7F 73 68 61  30 53 F8 FF FF 7F F8 FF  .....sha0S......
0380: FF 7F 73 68 61 30 00                              ..sha0.         
```

#### Opcodes

```
  0: 0x0362 [0x03] ExtData[1]->WorkLocal[0] = Entity->Race
  1: 0x0367 [0x1A] CALL_SUBROUTINE(address=0x03AC)
  2: 0x036A [0x66] LOAD_EXT_SCHEDULER_MAIN: Load scheduler "sha0" with entities [EventEntity, EventEntity], work=ExtData[1]->WorkLocal[1]
  3: 0x0379 [0x53] WAIT_SCHEDULER_TASK: Wait for scheduler "sha0" with entities [EventEntity, EventEntity]
  4: 0x0386 [0x00] END_REQSTACK()
```

### Event 65535.60

#### Metadata

| Field        | Value     |
|--------------|-----------|
| Entrypoint   | 0x0387    |
| Data Size    | 185 bytes |
| Instructions | 13        |

```
      00 01 02 03 04 05 06 07  08 09 0A 0B 0C 0D 0E 0F
      -- -- -- -- -- -- -- --  -- -- -- -- -- -- -- --
0380:                      03  00 00 07 7F 1A AC 03 66         ........f
0390: 01 00 F8 FF FF 7F F8 FF  FF 7F 73 68 61 31 53 F8  ..........sha1S.
03A0: FF FF 7F F8 FF FF 7F 73  68 61 31 00 03 01 00 00  .......sha1.....
03B0: 00 02 01 00 88 80 05 C1  03 08 01 00 01 80 01 C6  ................
03C0: 03 08 01 00 89 80 14 01  00 8A 80 07 01 00 61 80  ..............a.
03D0: 1B 03 01 00 00 00 02 01  00 88 80 05 E6 03 08 01  ................
03E0: 00 01 80 01 EB 03 08 01  00 89 80 14 01 00 8A 80  ................
03F0: 07 01 00 8B 80 1B 03 01  00 00 00 02 01 00 88 80  ................
0400: 05 0B 04 08 01 00 01 80  01 10 04 08 01 00 89 80  ................
0410: 14 01 00 8A 80 07 01 00  8C 80 1B 03 01 00 00 00  ................
0420: 02 01 00 88 80 05 30 04  08 01 00 01 80 01 35 04  ......0.......5.
0430: 08 01 00 89 80 14 01 00  8A 80 07 01 00 8D 80 1B  ................
```

#### Opcodes

```
  0: 0x0387 [0x03] ExtData[1]->WorkLocal[0] = Entity->Race
  1: 0x038C [0x1A] CALL_SUBROUTINE(address=0x03AC)
  2: 0x038F [0x66] LOAD_EXT_SCHEDULER_MAIN: Load scheduler "sha1" with entities [EventEntity, EventEntity], work=ExtData[1]->WorkLocal[1]
  3: 0x039E [0x53] WAIT_SCHEDULER_TASK: Wait for scheduler "sha1" with entities [EventEntity, EventEntity]
  4: 0x03AB [0x00] END_REQSTACK()

SUBROUTINE_03AC:
  5: 0x03AC [0x03] ExtData[1]->WorkLocal[1] = ExtData[1]->WorkLocal[0]
  6: 0x03B1 [0x02] IF !(ExtData[1]->WorkLocal[1] > 5*) GOTO 0x03C1
  7: 0x03B9 [0x08] ExtData[1]->WorkLocal[1] -= 1*
  8: 0x03BE [0x01] GOTO 0x03C6
  9: 0x03C1 [0x08] ExtData[1]->WorkLocal[1] -= 2*

SUBROUTINE_03C6:
 10: 0x03C6 [0x14] ExtData[1]->WorkLocal[1] *= 10*
 11: 0x03CB [0x07] ExtData[1]->WorkLocal[1] += 9*
 12: 0x03D0 [0x1B] RETURN
```

#### Data or dead code:

```
# Dead code (unreachable instructions):
     0x03D1 [0x03] ExtData[1]->WorkLocal[1] = ExtData[1]->WorkLocal[0]
     0x03D6 [0x02] IF !(ExtData[1]->WorkLocal[1] > 5*) GOTO 0x03E6
     0x03DE [0x08] ExtData[1]->WorkLocal[1] -= 1*
     0x03E3 [0x01] GOTO 0x03EB
     0x03E6 [0x08] ExtData[1]->WorkLocal[1] -= 2*
     0x03EB [0x14] ExtData[1]->WorkLocal[1] *= 10*
     0x03F0 [0x07] ExtData[1]->WorkLocal[1] += 70*
     0x03F5 [0x1B] RETURN
     0x03F6 [0x03] ExtData[1]->WorkLocal[1] = ExtData[1]->WorkLocal[0]
     0x03FB [0x02] IF !(ExtData[1]->WorkLocal[1] > 5*) GOTO 0x040B
     0x0403 [0x08] ExtData[1]->WorkLocal[1] -= 1*
     0x0408 [0x01] GOTO 0x0410
     0x040B [0x08] ExtData[1]->WorkLocal[1] -= 2*
     0x0410 [0x14] ExtData[1]->WorkLocal[1] *= 10*
     0x0415 [0x07] ExtData[1]->WorkLocal[1] += 140*
     0x041A [0x1B] RETURN
     0x041B [0x03] ExtData[1]->WorkLocal[1] = ExtData[1]->WorkLocal[0]
     0x0420 [0x02] IF !(ExtData[1]->WorkLocal[1] > 5*) GOTO 0x0430
     0x0428 [0x08] ExtData[1]->WorkLocal[1] -= 1*
     0x042D [0x01] GOTO 0x0435
     0x0430 [0x08] ExtData[1]->WorkLocal[1] -= 2*
     0x0435 [0x14] ExtData[1]->WorkLocal[1] *= 10*
     0x043A [0x07] ExtData[1]->WorkLocal[1] += 210*
     0x043F [0x1B] RETURN
```

### Event 5030

#### Metadata

| Field        | Value   |
|--------------|---------|
| Entrypoint   | 0x0440  |
| Data Size    | 1 bytes |
| Instructions | 1       |

```
      00 01 02 03 04 05 06 07  08 09 0A 0B 0C 0D 0E 0F
      -- -- -- -- -- -- -- --  -- -- -- -- -- -- -- --
0440: 00                                                .               
```

#### Opcodes

```
  0: 0x0440 [0x00] END_REQSTACK()
```

### Event 65535.61

#### Metadata

| Field        | Value    |
|--------------|----------|
| Entrypoint   | 0x0441   |
| Data Size    | 10 bytes |
| Instructions | 2        |

```
      00 01 02 03 04 05 06 07  08 09 0A 0B 0C 0D 0E 0F
      -- -- -- -- -- -- -- --  -- -- -- -- -- -- -- --
0440:    37 8E 80 8F 80 4A 80  90 80 00                  7....J....     
```

#### Opcodes

```
  0: 0x0441 [0x37] UPDATE_EVENT_POSITION_AND_DIR: x=35.512*, z=-56.304*, y=-6.605*, direction=85.8°*
  1: 0x044A [0x00] END_REQSTACK()
```

### Event 65535.62

#### Metadata

| Field        | Value    |
|--------------|----------|
| Entrypoint   | 0x044B   |
| Data Size    | 10 bytes |
| Instructions | 2        |

```
      00 01 02 03 04 05 06 07  08 09 0A 0B 0C 0D 0E 0F
      -- -- -- -- -- -- -- --  -- -- -- -- -- -- -- --
0440:                                   37 91 80 92 80             7....
0450: 05 80 93 80 00                                    .....           
```

#### Opcodes

```
  0: 0x044B [0x37] UPDATE_EVENT_POSITION_AND_DIR: x=25.869*, z=-45.584*, y=-7.804*, direction=170.5°*
  1: 0x0454 [0x00] END_REQSTACK()
```

### Event 65535.63

#### Metadata

| Field        | Value    |
|--------------|----------|
| Entrypoint   | 0x0455   |
| Data Size    | 14 bytes |
| Instructions | 4        |

```
      00 01 02 03 04 05 06 07  08 09 0A 0B 0C 0D 0E 0F
      -- -- -- -- -- -- -- --  -- -- -- -- -- -- -- --
0450:                32 13 80  1F 00 94 80 95 80 0E 80       2..........
0460: 1F 01 00                                          ...             
```

#### Opcodes

```
  0: 0x0455 [0x32] ExtData[1]->MainSpeed = 40* * 0.1
  1: 0x0458 [0x1F] MOVE_ENTITY: EventEntity moves to X=33.139*, Z=-45.601*, Y=-7.203*
  2: 0x0460 [0x1F] MOVE_ENTITY: Update entity position (mode=1)
  3: 0x0462 [0x00] END_REQSTACK()
```

### Event 65535.64

#### Metadata

| Field        | Value    |
|--------------|----------|
| Entrypoint   | 0x0463   |
| Data Size    | 37 bytes |
| Instructions | 9        |

```
      00 01 02 03 04 05 06 07  08 09 0A 0B 0C 0D 0E 0F
      -- -- -- -- -- -- -- --  -- -- -- -- -- -- -- --
0460:          32 83 80 1F 00  96 80 97 80 4A 80 1F 01     2........J...
0470: 4B D3 20 03 01 98 80 1C  99 80 32 13 80 1F 00 9A  K. .......2.....
0480: 80 9B 80 21 80 1F 01 00                           ...!....        
```

#### Opcodes

```
  0: 0x0463 [0x32] ExtData[1]->MainSpeed = 13* * 0.1
  1: 0x0466 [0x1F] MOVE_ENTITY: EventEntity moves to X=34.787*, Z=-54.361*, Y=-6.605*
  2: 0x046E [0x1F] MOVE_ENTITY: Update entity position (mode=1)
  3: 0x0470 [0x4B] UPDATE_ENTITY_YAW(entity=Falzum (ID: 16982227/0x010320D3), yaw=14.4°*)
  4: 0x0477 [0x1C] WAIT(60* ticks)
  5: 0x047A [0x32] ExtData[1]->MainSpeed = 40* * 0.1
  6: 0x047D [0x1F] MOVE_ENTITY: EventEntity moves to X=25.833*, Z=-54.579*, Y=-6.000*
  7: 0x0485 [0x1F] MOVE_ENTITY: Update entity position (mode=1)
  8: 0x0487 [0x00] END_REQSTACK()
```

### Event 5031

#### Metadata

| Field        | Value   |
|--------------|---------|
| Entrypoint   | 0x0488  |
| Data Size    | 1 bytes |
| Instructions | 1       |

```
      00 01 02 03 04 05 06 07  08 09 0A 0B 0C 0D 0E 0F
      -- -- -- -- -- -- -- --  -- -- -- -- -- -- -- --
0480:                          00                               .       
```

#### Opcodes

```
  0: 0x0488 [0x00] END_REQSTACK()
```

### Event 5035

#### Metadata

| Field        | Value   |
|--------------|---------|
| Entrypoint   | 0x0489  |
| Data Size    | 1 bytes |
| Instructions | 1       |

```
      00 01 02 03 04 05 06 07  08 09 0A 0B 0C 0D 0E 0F
      -- -- -- -- -- -- -- --  -- -- -- -- -- -- -- --
0480:                             00                             .      
```

#### Opcodes

```
  0: 0x0489 [0x00] END_REQSTACK()
```

### Event 65535.65

#### Metadata

| Field        | Value    |
|--------------|----------|
| Entrypoint   | 0x048A   |
| Data Size    | 10 bytes |
| Instructions | 2        |

```
      00 01 02 03 04 05 06 07  08 09 0A 0B 0C 0D 0E 0F
      -- -- -- -- -- -- -- --  -- -- -- -- -- -- -- --
0480:                                37 9C 80 9D 80 46            7....F
0490: 80 9E 80 00                                       ....            
```

#### Opcodes

```
  0: 0x048A [0x37] UPDATE_EVENT_POSITION_AND_DIR: x=-79.535*, z=122.395*, y=-5.999*, direction=308.0°*
  1: 0x0493 [0x00] END_REQSTACK()
```

### Event 65535.66

#### Metadata

| Field        | Value    |
|--------------|----------|
| Entrypoint   | 0x0494   |
| Data Size    | 22 bytes |
| Instructions | 6        |

```
      00 01 02 03 04 05 06 07  08 09 0A 0B 0C 0D 0E 0F
      -- -- -- -- -- -- -- --  -- -- -- -- -- -- -- --
0490:             32 13 80 1F  00 9F 80 A0 80 46 80 1F      2........F..
04A0: 01 1E 75 20 03 01 1C 4B  80 00                    ..u ...K..      
```

#### Opcodes

```
  0: 0x0494 [0x32] ExtData[1]->MainSpeed = 40* * 0.1
  1: 0x0497 [0x1F] MOVE_ENTITY: EventEntity moves to X=-76.555*, Z=125.960*, Y=-5.999*
  2: 0x049F [0x1F] MOVE_ENTITY: Update entity position (mode=1)
  3: 0x04A1 [0x1E] EventEntity looks at Nafiwaa (ID: 16982133/0x01032075) and starts talking
  4: 0x04A6 [0x1C] WAIT(30* ticks)
  5: 0x04A9 [0x00] END_REQSTACK()
```

### Event 5036

#### Metadata

| Field        | Value   |
|--------------|---------|
| Entrypoint   | 0x04AA  |
| Data Size    | 1 bytes |
| Instructions | 1       |

```
      00 01 02 03 04 05 06 07  08 09 0A 0B 0C 0D 0E 0F
      -- -- -- -- -- -- -- --  -- -- -- -- -- -- -- --
04A0:                                00                           .     
```

#### Opcodes

```
  0: 0x04AA [0x00] END_REQSTACK()
```

### Event 5037

#### Metadata

| Field        | Value   |
|--------------|---------|
| Entrypoint   | 0x04AB  |
| Data Size    | 1 bytes |
| Instructions | 1       |

```
      00 01 02 03 04 05 06 07  08 09 0A 0B 0C 0D 0E 0F
      -- -- -- -- -- -- -- --  -- -- -- -- -- -- -- --
04A0:                                   00                         .    
```

#### Opcodes

```
  0: 0x04AB [0x00] END_REQSTACK()
```

### Event 5038

#### Metadata

| Field        | Value   |
|--------------|---------|
| Entrypoint   | 0x04AC  |
| Data Size    | 1 bytes |
| Instructions | 1       |

```
      00 01 02 03 04 05 06 07  08 09 0A 0B 0C 0D 0E 0F
      -- -- -- -- -- -- -- --  -- -- -- -- -- -- -- --
04A0:                                      00                       .   
```

#### Opcodes

```
  0: 0x04AC [0x00] END_REQSTACK()
```

### Event 65535.67

#### Metadata

| Field        | Value    |
|--------------|----------|
| Entrypoint   | 0x04AD   |
| Data Size    | 10 bytes |
| Instructions | 2        |

```
      00 01 02 03 04 05 06 07  08 09 0A 0B 0C 0D 0E 0F
      -- -- -- -- -- -- -- --  -- -- -- -- -- -- -- --
04A0:                                         37 A1 80               7..
04B0: A2 80 21 80 A3 80 00                              ..!....         
```

#### Opcodes

```
  0: 0x04AD [0x37] UPDATE_EVENT_POSITION_AND_DIR: x=-90.729*, z=128.930*, y=-6.000*, direction=200.6°*
  1: 0x04B6 [0x00] END_REQSTACK()
```

### Event 65535.68

#### Metadata

| Field        | Value    |
|--------------|----------|
| Entrypoint   | 0x04B7   |
| Data Size    | 10 bytes |
| Instructions | 2        |

```
      00 01 02 03 04 05 06 07  08 09 0A 0B 0C 0D 0E 0F
      -- -- -- -- -- -- -- --  -- -- -- -- -- -- -- --
04B0:                      37  A4 80 A5 80 21 80 A6 80         7....!...
04C0: 00                                                .               
```

#### Opcodes

```
  0: 0x04B7 [0x37] UPDATE_EVENT_POSITION_AND_DIR: x=-75.806*, z=126.789*, y=-6.000*, direction=347.1°*
  1: 0x04C0 [0x00] END_REQSTACK()
```

### Event 65535.69

#### Metadata

| Field        | Value    |
|--------------|----------|
| Entrypoint   | 0x04C1   |
| Data Size    | 22 bytes |
| Instructions | 6        |

```
      00 01 02 03 04 05 06 07  08 09 0A 0B 0C 0D 0E 0F
      -- -- -- -- -- -- -- --  -- -- -- -- -- -- -- --
04C0:    32 13 80 1F 00 A4 80  A5 80 21 80 1F 01 1E 75   2........!....u
04D0: 20 03 01 1C 4B 80 00                               ...K..         
```

#### Opcodes

```
  0: 0x04C1 [0x32] ExtData[1]->MainSpeed = 40* * 0.1
  1: 0x04C4 [0x1F] MOVE_ENTITY: EventEntity moves to X=-75.806*, Z=126.789*, Y=-6.000*
  2: 0x04CC [0x1F] MOVE_ENTITY: Update entity position (mode=1)
  3: 0x04CE [0x1E] EventEntity looks at Nafiwaa (ID: 16982133/0x01032075) and starts talking
  4: 0x04D3 [0x1C] WAIT(30* ticks)
  5: 0x04D6 [0x00] END_REQSTACK()
```

### Event 65535.70

#### Metadata

| Field        | Value    |
|--------------|----------|
| Entrypoint   | 0x04D7   |
| Data Size    | 30 bytes |
| Instructions | 6        |

```
      00 01 02 03 04 05 06 07  08 09 0A 0B 0C 0D 0E 0F
      -- -- -- -- -- -- -- --  -- -- -- -- -- -- -- --
04D0:                      32  83 80 1F 00 A7 80 A8 80         2........
04E0: 21 80 1F 01 4B D3 20 03  01 A9 80 4A 75 20 03 01  !...K. ....Ju ..
04F0: D3 20 03 01 00                                    . ...           
```

#### Opcodes

```
  0: 0x04D7 [0x32] ExtData[1]->MainSpeed = 13* * 0.1
  1: 0x04DA [0x1F] MOVE_ENTITY: EventEntity moves to X=-74.474*, Z=125.667*, Y=-6.000*
  2: 0x04E2 [0x1F] MOVE_ENTITY: Update entity position (mode=1)
  3: 0x04E4 [0x4B] UPDATE_ENTITY_YAW(entity=Falzum (ID: 16982227/0x010320D3), yaw=0.4°*)
  4: 0x04EB [0x4A] Nafiwaa (ID: 16982133/0x01032075) looks at Falzum (ID: 16982227/0x010320D3)
  5: 0x04F4 [0x00] END_REQSTACK()
```

### Event 65535.71

#### Metadata

| Field        | Value    |
|--------------|----------|
| Entrypoint   | 0x04F5   |
| Data Size    | 60 bytes |
| Instructions | 12       |

```
      00 01 02 03 04 05 06 07  08 09 0A 0B 0C 0D 0E 0F
      -- -- -- -- -- -- -- --  -- -- -- -- -- -- -- --
04F0:                32 13 80  1F 00 AA 80 AB 80 21 80       2........!.
0500: 1F 01 1F 00 AC 80 AD 80  21 80 1F 01 1F 00 AE 80  ........!.......
0510: AF 80 21 80 1F 01 1E 75  20 03 01 4A 75 20 03 01  ..!....u ..Ju ..
0520: D3 20 03 01 4A F0 FF FF  7F D3 20 03 01 1C 4B 80  . ..J..... ...K.
0530: 00                                                .               
```

#### Opcodes

```
  0: 0x04F5 [0x32] ExtData[1]->MainSpeed = 40* * 0.1
  1: 0x04F8 [0x1F] MOVE_ENTITY: EventEntity moves to X=-75.957*, Z=126.455*, Y=-6.000*
  2: 0x0500 [0x1F] MOVE_ENTITY: Update entity position (mode=1)
  3: 0x0502 [0x1F] MOVE_ENTITY: EventEntity moves to X=-76.473*, Z=128.764*, Y=-6.000*
  4: 0x050A [0x1F] MOVE_ENTITY: Update entity position (mode=1)
  5: 0x050C [0x1F] MOVE_ENTITY: EventEntity moves to X=-74.565*, Z=128.913*, Y=-6.000*
  6: 0x0514 [0x1F] MOVE_ENTITY: Update entity position (mode=1)
  7: 0x0516 [0x1E] EventEntity looks at Nafiwaa (ID: 16982133/0x01032075) and starts talking
  8: 0x051B [0x4A] Nafiwaa (ID: 16982133/0x01032075) looks at Falzum (ID: 16982227/0x010320D3)
  9: 0x0524 [0x4A] LocalPlayer looks at Falzum (ID: 16982227/0x010320D3)
 10: 0x052D [0x1C] WAIT(30* ticks)
 11: 0x0530 [0x00] END_REQSTACK()
```

### Event 65535.72

#### Metadata

| Field        | Value    |
|--------------|----------|
| Entrypoint   | 0x0531   |
| Data Size    | 22 bytes |
| Instructions | 5        |

```
      00 01 02 03 04 05 06 07  08 09 0A 0B 0C 0D 0E 0F
      -- -- -- -- -- -- -- --  -- -- -- -- -- -- -- --
0530:    1C 99 80 79 00 75 20  03 01 F0 FF FF 7F 1E F0   ...y.u ........
0540: FF FF 7F 1C 99 80 00                              .......         
```

#### Opcodes

```
  0: 0x0531 [0x1C] WAIT(60* ticks)
  1: 0x0534 [0x79] Nafiwaa (ID: 16982133/0x01032075) looks at LocalPlayer (Basic look)
  2: 0x053E [0x1E] EventEntity looks at LocalPlayer and starts talking
  3: 0x0543 [0x1C] WAIT(60* ticks)
  4: 0x0546 [0x00] END_REQSTACK()
```

### Event 65535.73

#### Metadata

| Field        | Value   |
|--------------|---------|
| Entrypoint   | 0x0547  |
| Data Size    | 1 bytes |
| Instructions | 1       |

```
      00 01 02 03 04 05 06 07  08 09 0A 0B 0C 0D 0E 0F
      -- -- -- -- -- -- -- --  -- -- -- -- -- -- -- --
0540:                      00                                  .        
```

#### Opcodes

```
  0: 0x0547 [0x00] END_REQSTACK()
```

### Event 65535.74

#### Metadata

| Field        | Value   |
|--------------|---------|
| Entrypoint   | 0x0548  |
| Data Size    | 1 bytes |
| Instructions | 1       |

```
      00 01 02 03 04 05 06 07  08 09 0A 0B 0C 0D 0E 0F
      -- -- -- -- -- -- -- --  -- -- -- -- -- -- -- --
0540:                          00                               .       
```

#### Opcodes

```
  0: 0x0548 [0x00] END_REQSTACK()
```

### Event 65535.75

#### Metadata

| Field        | Value    |
|--------------|----------|
| Entrypoint   | 0x0549   |
| Data Size    | 14 bytes |
| Instructions | 4        |

```
      00 01 02 03 04 05 06 07  08 09 0A 0B 0C 0D 0E 0F
      -- -- -- -- -- -- -- --  -- -- -- -- -- -- -- --
0540:                             32 13 80 1F 00 B0 80           2......
0550: B1 80 0E 80 1F 01 00                              .......         
```

#### Opcodes

```
  0: 0x0549 [0x32] ExtData[1]->MainSpeed = 40* * 0.1
  1: 0x054C [0x1F] MOVE_ENTITY: EventEntity moves to X=32.303*, Z=-45.662*, Y=-7.203*
  2: 0x0554 [0x1F] MOVE_ENTITY: Update entity position (mode=1)
  3: 0x0556 [0x00] END_REQSTACK()
```

### Event 3093

#### Metadata

| Field        | Value   |
|--------------|---------|
| Entrypoint   | 0x0557  |
| Data Size    | 1 bytes |
| Instructions | 1       |

```
      00 01 02 03 04 05 06 07  08 09 0A 0B 0C 0D 0E 0F
      -- -- -- -- -- -- -- --  -- -- -- -- -- -- -- --
0550:                      00                                  .        
```

#### Opcodes

```
  0: 0x0557 [0x00] END_REQSTACK()
```

### Event 5080

#### Metadata

| Field        | Value   |
|--------------|---------|
| Entrypoint   | 0x0558  |
| Data Size    | 1 bytes |
| Instructions | 1       |

```
      00 01 02 03 04 05 06 07  08 09 0A 0B 0C 0D 0E 0F
      -- -- -- -- -- -- -- --  -- -- -- -- -- -- -- --
0550:                          00                               .       
```

#### Opcodes

```
  0: 0x0558 [0x00] END_REQSTACK()
```

### Event 5081

#### Metadata

| Field        | Value   |
|--------------|---------|
| Entrypoint   | 0x0559  |
| Data Size    | 1 bytes |
| Instructions | 1       |

```
      00 01 02 03 04 05 06 07  08 09 0A 0B 0C 0D 0E 0F
      -- -- -- -- -- -- -- --  -- -- -- -- -- -- -- --
0550:                             00                             .      
```

#### Opcodes

```
  0: 0x0559 [0x00] END_REQSTACK()
```

### Event 5082

#### Metadata

| Field        | Value   |
|--------------|---------|
| Entrypoint   | 0x055A  |
| Data Size    | 1 bytes |
| Instructions | 1       |

```
      00 01 02 03 04 05 06 07  08 09 0A 0B 0C 0D 0E 0F
      -- -- -- -- -- -- -- --  -- -- -- -- -- -- -- --
0550:                                00                           .     
```

#### Opcodes

```
  0: 0x055A [0x00] END_REQSTACK()
```

### Event 5083

#### Metadata

| Field        | Value   |
|--------------|---------|
| Entrypoint   | 0x055B  |
| Data Size    | 1 bytes |
| Instructions | 1       |

```
      00 01 02 03 04 05 06 07  08 09 0A 0B 0C 0D 0E 0F
      -- -- -- -- -- -- -- --  -- -- -- -- -- -- -- --
0550:                                   00                         .    
```

#### Opcodes

```
  0: 0x055B [0x00] END_REQSTACK()
```

### Event 5084

#### Metadata

| Field        | Value   |
|--------------|---------|
| Entrypoint   | 0x055C  |
| Data Size    | 1 bytes |
| Instructions | 1       |

```
      00 01 02 03 04 05 06 07  08 09 0A 0B 0C 0D 0E 0F
      -- -- -- -- -- -- -- --  -- -- -- -- -- -- -- --
0550:                                      00                       .   
```

#### Opcodes

```
  0: 0x055C [0x00] END_REQSTACK()
```

### Event 5085

#### Metadata

| Field        | Value   |
|--------------|---------|
| Entrypoint   | 0x055D  |
| Data Size    | 1 bytes |
| Instructions | 1       |

```
      00 01 02 03 04 05 06 07  08 09 0A 0B 0C 0D 0E 0F
      -- -- -- -- -- -- -- --  -- -- -- -- -- -- -- --
0550:                                         00                     .  
```

#### Opcodes

```
  0: 0x055D [0x00] END_REQSTACK()
```

### Event 65535.76

#### Metadata

| Field        | Value    |
|--------------|----------|
| Entrypoint   | 0x055E   |
| Data Size    | 29 bytes |
| Instructions | 7        |

```
      00 01 02 03 04 05 06 07  08 09 0A 0B 0C 0D 0E 0F
      -- -- -- -- -- -- -- --  -- -- -- -- -- -- -- --
0550:                                            7B D3                {.
0560: 20 03 01 32 83 80 1F 00  B2 80 B3 80 B4 80 1F 01   ..2............
0570: 6F 4A D3 20 03 01 C6 21  03 01 00                 oJ. ...!...     
```

#### Opcodes

```
  0: 0x055E [0x7B] Falzum (ID: 16982227/0x010320D3) stops talking
  1: 0x0563 [0x32] ExtData[1]->MainSpeed = 13* * 0.1
  2: 0x0566 [0x1F] MOVE_ENTITY: EventEntity moves to X=-569.000*, Z=36.295*, Y=1.999*
  3: 0x056E [0x1F] MOVE_ENTITY: Update entity position (mode=1)
  4: 0x0570 [0x6F] WAIT_FRAME_DELAY: Yield until WaitTime reaches zero
  5: 0x0571 [0x4A] Falzum (ID: 16982227/0x010320D3) looks at Rongelouts (ID: 16982470/0x010321C6)
  6: 0x057A [0x00] END_REQSTACK()
```

### Event 65535.77

#### Metadata

| Field        | Value    |
|--------------|----------|
| Entrypoint   | 0x057B   |
| Data Size    | 15 bytes |
| Instructions | 5        |

```
      00 01 02 03 04 05 06 07  08 09 0A 0B 0C 0D 0E 0F
      -- -- -- -- -- -- -- --  -- -- -- -- -- -- -- --
0570:                                   32 83 80 1F 00             2....
0580: B5 80 B6 80 B4 80 1F 01  6F 00                    ........o.      
```

#### Opcodes

```
  0: 0x057B [0x32] ExtData[1]->MainSpeed = 13* * 0.1
  1: 0x057E [0x1F] MOVE_ENTITY: EventEntity moves to X=-563.169*, Z=39.889*, Y=1.999*
  2: 0x0586 [0x1F] MOVE_ENTITY: Update entity position (mode=1)
  3: 0x0588 [0x6F] WAIT_FRAME_DELAY: Yield until WaitTime reaches zero
  4: 0x0589 [0x00] END_REQSTACK()
```

### Event 65535.78

#### Metadata

| Field        | Value    |
|--------------|----------|
| Entrypoint   | 0x058A   |
| Data Size    | 22 bytes |
| Instructions | 6        |

```
      00 01 02 03 04 05 06 07  08 09 0A 0B 0C 0D 0E 0F
      -- -- -- -- -- -- -- --  -- -- -- -- -- -- -- --
0580:                                32 83 80 1F 00 B7            2.....
0590: 80 B8 80 B4 80 1F 01 6F  4B D3 20 03 01 B9 80 00  .......oK. .....
```

#### Opcodes

```
  0: 0x058A [0x32] ExtData[1]->MainSpeed = 13* * 0.1
  1: 0x058D [0x1F] MOVE_ENTITY: EventEntity moves to X=-565.070*, Z=39.050*, Y=1.999*
  2: 0x0595 [0x1F] MOVE_ENTITY: Update entity position (mode=1)
  3: 0x0597 [0x6F] WAIT_FRAME_DELAY: Yield until WaitTime reaches zero
  4: 0x0598 [0x4B] UPDATE_ENTITY_YAW(entity=Falzum (ID: 16982227/0x010320D3), yaw=22.0°*)
  5: 0x059F [0x00] END_REQSTACK()
```

### Event 65535.79

#### Metadata

| Field        | Value    |
|--------------|----------|
| Entrypoint   | 0x05A0   |
| Data Size    | 45 bytes |
| Instructions | 9        |

```
      00 01 02 03 04 05 06 07  08 09 0A 0B 0C 0D 0E 0F
      -- -- -- -- -- -- -- --  -- -- -- -- -- -- -- --
05A0: 32 13 80 1F 00 BA 80 BB  80 B4 80 1F 01 6F 4A D3  2............oJ.
05B0: 20 03 01 CA 21 03 01 6F  76 D3 20 03 01 66 65 80   ...!..ov. ..fe.
05C0: D3 20 03 01 D3 20 03 01  73 68 61 30 00           . ... ..sha0.   
```

#### Opcodes

```
  0: 0x05A0 [0x32] ExtData[1]->MainSpeed = 40* * 0.1
  1: 0x05A3 [0x1F] MOVE_ENTITY: EventEntity moves to X=-569.191*, Z=36.366*, Y=1.999*
  2: 0x05AB [0x1F] MOVE_ENTITY: Update entity position (mode=1)
  3: 0x05AD [0x6F] WAIT_FRAME_DELAY: Yield until WaitTime reaches zero
  4: 0x05AE [0x4A] Falzum (ID: 16982227/0x010320D3) looks at Yasmeel (ID: 16982474/0x010321CA)
  5: 0x05B7 [0x6F] WAIT_FRAME_DELAY: Yield until WaitTime reaches zero
  6: 0x05B8 [0x76] CHECK_ENTITY_RENDER_FLAGS: Wait until Falzum (ID: 16982227/0x010320D3) Render.Flags0 and Render.Flags3 conditions are met
  7: 0x05BD [0x66] LOAD_EXT_SCHEDULER_MAIN: Load scheduler "sha0" with entities [Falzum (ID: 16982227/0x010320D3), Falzum (ID: 16982227/0x010320D3)], work=29*
  8: 0x05CC [0x00] END_REQSTACK()
```

### Event 65535.80

#### Metadata

| Field        | Value    |
|--------------|----------|
| Entrypoint   | 0x05CD   |
| Data Size    | 30 bytes |
| Instructions | 8        |

```
      00 01 02 03 04 05 06 07  08 09 0A 0B 0C 0D 0E 0F
      -- -- -- -- -- -- -- --  -- -- -- -- -- -- -- --
05C0:                                         32 83 80               2..
05D0: 1F 00 BC 80 BD 80 B4 80  1F 01 6F 4A D3 20 03 01  ..........oJ. ..
05E0: C9 21 03 01 6F 76 D3 20  03 01 00                 .!..ov. ...     
```

#### Opcodes

```
  0: 0x05CD [0x32] ExtData[1]->MainSpeed = 13* * 0.1
  1: 0x05D0 [0x1F] MOVE_ENTITY: EventEntity moves to X=-567.971*, Z=35.345*, Y=1.999*
  2: 0x05D8 [0x1F] MOVE_ENTITY: Update entity position (mode=1)
  3: 0x05DA [0x6F] WAIT_FRAME_DELAY: Yield until WaitTime reaches zero
  4: 0x05DB [0x4A] Falzum (ID: 16982227/0x010320D3) looks at Arcuhbah (ID: 16982473/0x010321C9)
  5: 0x05E4 [0x6F] WAIT_FRAME_DELAY: Yield until WaitTime reaches zero
  6: 0x05E5 [0x76] CHECK_ENTITY_RENDER_FLAGS: Wait until Falzum (ID: 16982227/0x010320D3) Render.Flags0 and Render.Flags3 conditions are met
  7: 0x05EA [0x00] END_REQSTACK()
```

### Event 5086

#### Metadata

| Field        | Value   |
|--------------|---------|
| Entrypoint   | 0x05EB  |
| Data Size    | 1 bytes |
| Instructions | 1       |

```
      00 01 02 03 04 05 06 07  08 09 0A 0B 0C 0D 0E 0F
      -- -- -- -- -- -- -- --  -- -- -- -- -- -- -- --
05E0:                                   00                         .    
```

#### Opcodes

```
  0: 0x05EB [0x00] END_REQSTACK()
```

### Event 65535.81

#### Metadata

| Field        | Value    |
|--------------|----------|
| Entrypoint   | 0x05EC   |
| Data Size    | 21 bytes |
| Instructions | 6        |

```
      00 01 02 03 04 05 06 07  08 09 0A 0B 0C 0D 0E 0F
      -- -- -- -- -- -- -- --  -- -- -- -- -- -- -- --
05E0:                                      32 13 80 1F              2...
05F0: 00 BE 80 BF 80 00 80 1F  01 6F 4E 01 D3 20 03 01  .........oN.. ..
0600: 00                                                .               
```

#### Opcodes

```
  0: 0x05EC [0x32] ExtData[1]->MainSpeed = 40* * 0.1
  1: 0x05EF [0x1F] MOVE_ENTITY: EventEntity moves to X=63.440*, Z=-79.437*, Y=0.000*
  2: 0x05F7 [0x1F] MOVE_ENTITY: Update entity position (mode=1)
  3: 0x05F9 [0x6F] WAIT_FRAME_DELAY: Yield until WaitTime reaches zero
  4: 0x05FA [0x4E] SET_ENTITY_HIDE_FLAG: Hide Falzum (ID: 16982227/0x010320D3)
  5: 0x0600 [0x00] END_REQSTACK()
```

### Event 930

#### Metadata

| Field        | Value   |
|--------------|---------|
| Entrypoint   | 0x0601  |
| Data Size    | 1 bytes |
| Instructions | 1       |

```
      00 01 02 03 04 05 06 07  08 09 0A 0B 0C 0D 0E 0F
      -- -- -- -- -- -- -- --  -- -- -- -- -- -- -- --
0600:    00                                              .              
```

#### Opcodes

```
  0: 0x0601 [0x00] END_REQSTACK()
```

### Event 65535.82

#### Metadata

| Field        | Value    |
|--------------|----------|
| Entrypoint   | 0x0602   |
| Data Size    | 15 bytes |
| Instructions | 5        |

```
      00 01 02 03 04 05 06 07  08 09 0A 0B 0C 0D 0E 0F
      -- -- -- -- -- -- -- --  -- -- -- -- -- -- -- --
0600:       32 13 80 1F 00 C0  80 C1 80 C2 80 1F 01 6F    2............o
0610: 00                                                .               
```

#### Opcodes

```
  0: 0x0602 [0x32] ExtData[1]->MainSpeed = 40* * 0.1
  1: 0x0605 [0x1F] MOVE_ENTITY: EventEntity moves to X=-18.352*, Z=-260.961*, Y=-18.000*
  2: 0x060D [0x1F] MOVE_ENTITY: Update entity position (mode=1)
  3: 0x060F [0x6F] WAIT_FRAME_DELAY: Yield until WaitTime reaches zero
  4: 0x0610 [0x00] END_REQSTACK()
```
