# 16982654

## Common Data

| Field            | Value                          |
|------------------|--------------------------------|
| Zone             | Aht Urhgan Whitegate2 (ID: 50) |
| Block Size       | 58592 bytes                    |
| Total Events     | 39                             |
| References Count | 894                            |

## List of Events

| Event ID              | Entrypoint   |   Size |   Instructions |
|-----------------------|--------------|--------|----------------|
| [65535](#event-65535) | 0x0000       |    658 |             62 |
| [173](#event-173)     | 0x0292       |   2995 |            392 |
| [174](#event-174)     | 0x0E45       |   2817 |            354 |
| [175](#event-175)     | 0x1946       |    139 |             29 |
| [176](#event-176)     | 0x19D1       |    189 |             31 |
| [177](#event-177)     | 0x1A8E       |   5667 |            689 |
| [178](#event-178)     | 0x30B1       |   4672 |            605 |
| [179](#event-179)     | 0x42F1       |    211 |             41 |
| [180](#event-180)     | 0x43C4       |   6046 |            761 |
| [181](#event-181)     | 0x5B62       |   2374 |            312 |
| [182](#event-182)     | 0x64A8       |     61 |             14 |
| [183](#event-183)     | 0x64E5       |     56 |             12 |
| [184](#event-184)     | 0x651D       |    123 |             24 |
| [185](#event-185)     | 0x6598       |     67 |             13 |
| [186](#event-186)     | 0x65DB       |   3001 |            416 |
| [187](#event-187)     | 0x7194       |   2170 |            298 |
| [188](#event-188)     | 0x7A0E       |    107 |             24 |
| [189](#event-189)     | 0x7A79       |    191 |             38 |
| [190](#event-190)     | 0x7B38       |    156 |             31 |
| [191](#event-191)     | 0x7BD4       |     82 |             14 |
| [192](#event-192)     | 0x7C26       |   1675 |            231 |
| [193](#event-193)     | 0x82B1       |   2754 |            364 |
| [194](#event-194)     | 0x8D73       |   6042 |            814 |
| [195](#event-195)     | 0xA50D       |    131 |             31 |
| [196](#event-196)     | 0xA590       |    278 |             54 |
| [197](#event-197)     | 0xA6A6       |    245 |             48 |
| [198](#event-198)     | 0xA79B       |     82 |             14 |
| [199](#event-199)     | 0xA7ED       |     54 |             10 |
| [206](#event-206)     | 0xA823       |     89 |             14 |
| [209](#event-209)     | 0xA87C       |     71 |             16 |
| [210](#event-210)     | 0xA8C3       |    140 |             28 |
| [211](#event-211)     | 0xA94F       |    147 |             29 |
| [207](#event-207)     | 0xA9E2       |    140 |             23 |
| [208](#event-208)     | 0xAA6E       |   2581 |            351 |
| [212](#event-212)     | 0xB483       |   1878 |            265 |
| [213](#event-213)     | 0xBBD9       |   6620 |            916 |
| [214](#event-214)     | 0xD5B5       |     18 |              6 |
| [215](#event-215)     | 0xD5C7       |     54 |             12 |
| [216](#event-216)     | 0xD5FD       |     62 |             14 |

## DAT References (imed_data)

|   Index | Hex Value   |   Dec Value |
|---------|-------------|-------------|
|       0 | 0x00C8      |         200 |
|       1 | 0x0000      |           0 |
|       2 | 0x00C9      |         201 |
|       3 | 0x0001      |           1 |
|       4 | 0x002D      |          45 |
|       5 | 0x0002      |           2 |
|       6 | 0x001E      |          30 |
|       7 | 0x00D7      |         215 |
|       8 | 0x012C      |         300 |
|       9 | 0x0093      |         147 |
|      10 | 0x0233      |         563 |
|      11 | 0x693D      |       26941 |
|      12 | 0xFFFF4D67  |  4294921575 |
|      13 | 0xFFFFE184  |  4294959492 |
|      14 | 0x07FF      |        2047 |
|      15 | 0x0342      |         834 |
|      16 | 0x00A3      |         163 |
|      17 | 0x007F      |         127 |
|      18 | 0x0005      |           5 |
|      19 | 0x0356      |         854 |
|      20 | 0x0006      |           6 |
|      21 | 0x3DAF      |       15791 |
|      22 | 0x3DB0      |       15792 |
|      23 | 0x003C      |          60 |
|      24 | 0x3DB1      |       15793 |
|      25 | 0x3DB2      |       15794 |
|      26 | 0x3DB3      |       15795 |
|      27 | 0x3DB4      |       15796 |
|      28 | 0x3DB5      |       15797 |
|      29 | 0xFFFFFFFF  |  4294967295 |
|      30 | 0x3DB6      |       15798 |
|      31 | 0x0007      |           7 |
|      32 | 0x3DB7      |       15799 |
|      33 | 0x0016      |          22 |
|      34 | 0x3DB8      |       15800 |
|      35 | 0x3DB9      |       15801 |
|      36 | 0x3DBA      |       15802 |
|      37 | 0x3DBB      |       15803 |
|      38 | 0x3DBC      |       15804 |
|      39 | 0x01F4      |         500 |
|      40 | 0x3DBD      |       15805 |
|      41 | 0x3DBE      |       15806 |
|      42 | 0x0400      |        1024 |
|      43 | 0x3DBF      |       15807 |
|      44 | 0x3DC0      |       15808 |
|      45 | 0x57AB      |       22443 |
|      46 | 0xFFFF55B2  |  4294923698 |
|      47 | 0x024C      |         588 |
|      48 | 0x3DC1      |       15809 |
|      49 | 0x3DC2      |       15810 |
|      50 | 0x000A      |          10 |
|      51 | 0x07E8      |        2024 |
|      52 | 0x3DC3      |       15811 |
|      53 | 0x3DC4      |       15812 |
|      54 | 0x3DC5      |       15813 |
|      55 | 0x3DC6      |       15814 |
|      56 | 0x3DC7      |       15815 |
|      57 | 0x3DC8      |       15816 |
|      58 | 0x088B      |        2187 |
|      59 | 0x3DC9      |       15817 |
|      60 | 0x0014      |          20 |
|      61 | 0x000B      |          11 |
|      62 | 0x3DCA      |       15818 |
|      63 | 0x00B2      |         178 |
|      64 | 0x6D38      |       27960 |
|      65 | 0xFFFF5250  |  4294922832 |
|      66 | 0x0834      |        2100 |
|      67 | 0xFFFFFC00  |  4294966272 |
|      68 | 0x035F      |         863 |
|      69 | 0x0019      |          25 |
|      70 | 0x0046      |          70 |
|      71 | 0x3DD0      |       15824 |
|      72 | 0x0028      |          40 |
|      73 | 0x3DD1      |       15825 |
|      74 | 0x3DD2      |       15826 |
|      75 | 0x3DD3      |       15827 |
|      76 | 0x3DD4      |       15828 |
|      77 | 0x3DD5      |       15829 |
|      78 | 0x0CBB      |        3259 |
|      79 | 0x3DD6      |       15830 |
|      80 | 0x3DD7      |       15831 |
|      81 | 0x0015      |          21 |
|      82 | 0x3DD8      |       15832 |
|      83 | 0x3DD9      |       15833 |
|      84 | 0x3DDA      |       15834 |
|      85 | 0x3DDB      |       15835 |
|      86 | 0x3DDC      |       15836 |
|      87 | 0x3DDD      |       15837 |
|      88 | 0x3DDE      |       15838 |
|      89 | 0x3DDF      |       15839 |
|      90 | 0x3DE0      |       15840 |
|      91 | 0x3DE1      |       15841 |
|      92 | 0x3DE2      |       15842 |
|      93 | 0x67DE      |       26590 |
|      94 | 0xFFFF4D41  |  4294921537 |
|      95 | 0x0A28      |        2600 |
|      96 | 0x000D      |          13 |
|      97 | 0x0078      |         120 |
|      98 | 0x3DE3      |       15843 |
|      99 | 0x3DE4      |       15844 |
|     100 | 0x0047      |          71 |
|     101 | 0x3DE5      |       15845 |
|     102 | 0x3DE6      |       15846 |
|     103 | 0x3DE7      |       15847 |
|     104 | 0x3DE8      |       15848 |
|     105 | 0x0024      |          36 |
|     106 | 0x0128      |         296 |
|     107 | 0x0120      |         288 |
|     108 | 0x0124      |         292 |
|     109 | 0x3DCB      |       15819 |
|     110 | 0x3DCC      |       15820 |
|     111 | 0x3DCD      |       15821 |
|     112 | 0x3DE9      |       15849 |
|     113 | 0x012A      |         298 |
|     114 | 0x3DEF      |       15855 |
|     115 | 0x3DF0      |       15856 |
|     116 | 0x3DCE      |       15822 |
|     117 | 0x3DCF      |       15823 |
|     118 | 0x3DEA      |       15850 |
|     119 | 0x0445      |        1093 |
|     120 | 0x3DEB      |       15851 |
|     121 | 0x3DEC      |       15852 |
|     122 | 0x3DED      |       15853 |
|     123 | 0x3DEE      |       15854 |
|     124 | 0x022F      |         559 |
|     125 | 0x5014      |       20500 |
|     126 | 0x11D2      |        4562 |
|     127 | 0x0C01      |        3073 |
|     128 | 0x00B9      |         185 |
|     129 | 0x3DF1      |       15857 |
|     130 | 0x3DF2      |       15858 |
|     131 | 0x3DF3      |       15859 |
|     132 | 0x3DF4      |       15860 |
|     133 | 0x3DF5      |       15861 |
|     134 | 0x3DF6      |       15862 |
|     135 | 0x00A7      |         167 |
|     136 | 0x15BF5     |       89077 |
|     137 | 0xFFFF82E8  |  4294935272 |
|     138 | 0xFFFFA23F  |  4294943295 |
|     139 | 0x0A7D      |        2685 |
|     140 | 0x159DA     |       88538 |
|     141 | 0xFFFF8795  |  4294936469 |
|     142 | 0xFFFFA225  |  4294943269 |
|     143 | 0x181A1     |       98721 |
|     144 | 0xFFFF68DA  |  4294928602 |
|     145 | 0xFFFFA240  |  4294943296 |
|     146 | 0x0CD7      |        3287 |
|     147 | 0x1865A     |       99930 |
|     148 | 0xFFFF6DE1  |  4294929889 |
|     149 | 0xFFFFA257  |  4294943319 |
|     150 | 0x0823      |        2083 |
|     151 | 0x004F      |          79 |
|     152 | 0x283D      |       10301 |
|     153 | 0x0C00      |        3072 |
|     154 | 0x3DF7      |       15863 |
|     155 | 0x17D75     |       97653 |
|     156 | 0xFFFF85D9  |  4294936025 |
|     157 | 0xFFFFA262  |  4294943330 |
|     158 | 0x3DF8      |       15864 |
|     159 | 0x3DF9      |       15865 |
|     160 | 0x0003      |           3 |
|     161 | 0x0008      |           8 |
|     162 | 0x3DFA      |       15866 |
|     163 | 0x005A      |          90 |
|     164 | 0x008C      |         140 |
|     165 | 0x3DFB      |       15867 |
|     166 | 0x019A      |         410 |
|     167 | 0x3DFC      |       15868 |
|     168 | 0x0095      |         149 |
|     169 | 0x3DFD      |       15869 |
|     170 | 0xFFFFFA24  |  4294965796 |
|     171 | 0x008E      |         142 |
|     172 | 0x3DFE      |       15870 |
|     173 | 0x3DFF      |       15871 |
|     174 | 0x3E00      |       15872 |
|     175 | 0x3E01      |       15873 |
|     176 | 0x3E02      |       15874 |
|     177 | 0x3E03      |       15875 |
|     178 | 0x3E04      |       15876 |
|     179 | 0x3E05      |       15877 |
|     180 | 0x004B      |          75 |
|     181 | 0x3E06      |       15878 |
|     182 | 0x3E07      |       15879 |
|     183 | 0x0092      |         146 |
|     184 | 0x0032      |          50 |
|     185 | 0x3E08      |       15880 |
|     186 | 0x00DC      |         220 |
|     187 | 0x0091      |         145 |
|     188 | 0x3E09      |       15881 |
|     189 | 0x001B      |          27 |
|     190 | 0x3E0A      |       15882 |
|     191 | 0x3E0B      |       15883 |
|     192 | 0x3E0C      |       15884 |
|     193 | 0x3E0D      |       15885 |
|     194 | 0x3E0E      |       15886 |
|     195 | 0xFFFF9E3D  |  4294942269 |
|     196 | 0x3E0F      |       15887 |
|     197 | 0x3E10      |       15888 |
|     198 | 0x3E11      |       15889 |
|     199 | 0x006E      |         110 |
|     200 | 0x3E12      |       15890 |
|     201 | 0x0065      |         101 |
|     202 | 0x3E13      |       15891 |
|     203 | 0x3E14      |       15892 |
|     204 | 0x003B      |          59 |
|     205 | 0x0020      |          32 |
|     206 | 0x3E15      |       15893 |
|     207 | 0x3E16      |       15894 |
|     208 | 0x3E17      |       15895 |
|     209 | 0x18157     |       98647 |
|     210 | 0xFFFF85DC  |  4294936028 |
|     211 | 0x07A3      |        1955 |
|     212 | 0x17B7B     |       97147 |
|     213 | 0xFFFF7D5E  |  4294933854 |
|     214 | 0xFFFFA256  |  4294943318 |
|     215 | 0x07A2      |        1954 |
|     216 | 0x3E18      |       15896 |
|     217 | 0x3E19      |       15897 |
|     218 | 0x000F      |          15 |
|     219 | 0xFFFFFC3B  |  4294966331 |
|     220 | 0xB671      |       46705 |
|     221 | 0xC15A      |       49498 |
|     222 | 0x03F1      |        1009 |
|     223 | 0xFFFFFAB6  |  4294965942 |
|     224 | 0xC436      |       50230 |
|     225 | 0x03E8      |        1000 |
|     226 | 0x03C1      |         961 |
|     227 | 0xC4D2      |       50386 |
|     228 | 0x752D      |       29997 |
|     229 | 0x0BA0      |        2976 |
|     230 | 0x00C6      |         198 |
|     231 | 0x0357      |         855 |
|     232 | 0x3E1A      |       15898 |
|     233 | 0x3E1B      |       15899 |
|     234 | 0x3E1C      |       15900 |
|     235 | 0x0190      |         400 |
|     236 | 0x3E1D      |       15901 |
|     237 | 0x3E1E      |       15902 |
|     238 | 0x3E1F      |       15903 |
|     239 | 0x3E20      |       15904 |
|     240 | 0x3E21      |       15905 |
|     241 | 0x3E22      |       15906 |
|     242 | 0x3E23      |       15907 |
|     243 | 0x0464      |        1124 |
|     244 | 0x3E24      |       15908 |
|     245 | 0x3E25      |       15909 |
|     246 | 0x3E26      |       15910 |
|     247 | 0x3E27      |       15911 |
|     248 | 0x3E28      |       15912 |
|     249 | 0x3E29      |       15913 |
|     250 | 0x3E2A      |       15914 |
|     251 | 0x3E2B      |       15915 |
|     252 | 0x3E2C      |       15916 |
|     253 | 0x3E2D      |       15917 |
|     254 | 0x3E2E      |       15918 |
|     255 | 0x3E2F      |       15919 |
|     256 | 0x3E30      |       15920 |
|     257 | 0x3E31      |       15921 |
|     258 | 0x3E32      |       15922 |
|     259 | 0x3E33      |       15923 |
|     260 | 0x3E34      |       15924 |
|     261 | 0x015E      |         350 |
|     262 | 0x3E35      |       15925 |
|     263 | 0x3E36      |       15926 |
|     264 | 0x0514      |        1300 |
|     265 | 0x3E37      |       15927 |
|     266 | 0x3E38      |       15928 |
|     267 | 0x3E39      |       15929 |
|     268 | 0x3E3A      |       15930 |
|     269 | 0x3E3B      |       15931 |
|     270 | 0x3E3C      |       15932 |
|     271 | 0x3E3D      |       15933 |
|     272 | 0x3E3E      |       15934 |
|     273 | 0x3E3F      |       15935 |
|     274 | 0x3E40      |       15936 |
|     275 | 0x3E41      |       15937 |
|     276 | 0x00A0      |         160 |
|     277 | 0x3E42      |       15938 |
|     278 | 0xFFFFFFE6  |  4294967270 |
|     279 | 0xAA0E      |       43534 |
|     280 | 0x0B9F      |        2975 |
|     281 | 0x3E43      |       15939 |
|     282 | 0x0234      |         564 |
|     283 | 0x87E4      |       34788 |
|     284 | 0xCD6E      |       52590 |
|     285 | 0x0C18      |        3096 |
|     286 | 0x8532      |       34098 |
|     287 | 0xD0B1      |       53425 |
|     288 | 0x0D09      |        3337 |
|     289 | 0x8615      |       34325 |
|     290 | 0xE006      |       57350 |
|     291 | 0x5AC8      |       23240 |
|     292 | 0xB3AC      |       45996 |
|     293 | 0xFFFFE633  |  4294960691 |
|     294 | 0x0FF8      |        4088 |
|     295 | 0x0358      |         856 |
|     296 | 0x3E44      |       15940 |
|     297 | 0x3E45      |       15941 |
|     298 | 0x3E46      |       15942 |
|     299 | 0x7F2E      |       32558 |
|     300 | 0xC3B1      |       50097 |
|     301 | 0x0BEB      |        3051 |
|     302 | 0x3E47      |       15943 |
|     303 | 0x3E48      |       15944 |
|     304 | 0x3E49      |       15945 |
|     305 | 0x3E4A      |       15946 |
|     306 | 0x3E4B      |       15947 |
|     307 | 0x3E4C      |       15948 |
|     308 | 0x3E4D      |       15949 |
|     309 | 0x7FD0      |       32720 |
|     310 | 0xD084      |       53380 |
|     311 | 0x0C78      |        3192 |
|     312 | 0x8206      |       33286 |
|     313 | 0x3E4E      |       15950 |
|     314 | 0x3E4F      |       15951 |
|     315 | 0x3E50      |       15952 |
|     316 | 0x3E51      |       15953 |
|     317 | 0x3E52      |       15954 |
|     318 | 0x3E53      |       15955 |
|     319 | 0x3E54      |       15956 |
|     320 | 0x3E55      |       15957 |
|     321 | 0x8422      |       33826 |
|     322 | 0xD365      |       54117 |
|     323 | 0x8415      |       33813 |
|     324 | 0xD34D      |       54093 |
|     325 | 0x3E56      |       15958 |
|     326 | 0xCF05      |       52997 |
|     327 | 0x0C0D      |        3085 |
|     328 | 0x3E57      |       15959 |
|     329 | 0x3E58      |       15960 |
|     330 | 0x3E59      |       15961 |
|     331 | 0x3E5A      |       15962 |
|     332 | 0x3E5B      |       15963 |
|     333 | 0x3E5C      |       15964 |
|     334 | 0x3E5D      |       15965 |
|     335 | 0x3E5E      |       15966 |
|     336 | 0x3E5F      |       15967 |
|     337 | 0x81FA      |       33274 |
|     338 | 0xC75B      |       51035 |
|     339 | 0x3E60      |       15968 |
|     340 | 0x3E61      |       15969 |
|     341 | 0x3E62      |       15970 |
|     342 | 0x3E63      |       15971 |
|     343 | 0x3E64      |       15972 |
|     344 | 0x3E65      |       15973 |
|     345 | 0x0E10      |        3600 |
|     346 | 0x3E66      |       15974 |
|     347 | 0x3E67      |       15975 |
|     348 | 0x3E68      |       15976 |
|     349 | 0x3E69      |       15977 |
|     350 | 0x3E6A      |       15978 |
|     351 | 0x3E6B      |       15979 |
|     352 | 0x3E6C      |       15980 |
|     353 | 0x3E6D      |       15981 |
|     354 | 0x3E6E      |       15982 |
|     355 | 0x3E6F      |       15983 |
|     356 | 0x3E70      |       15984 |
|     357 | 0x3E71      |       15985 |
|     358 | 0x0E12      |        3602 |
|     359 | 0x3E72      |       15986 |
|     360 | 0x3E73      |       15987 |
|     361 | 0x3E74      |       15988 |
|     362 | 0x8FB1      |       36785 |
|     363 | 0xC92A      |       51498 |
|     364 | 0xFFFFE188  |  4294959496 |
|     365 | 0x099B      |        2459 |
|     366 | 0x8B83      |       35715 |
|     367 | 0xC5DE      |       50654 |
|     368 | 0xFFFFE120  |  4294959392 |
|     369 | 0x0C61      |        3169 |
|     370 | 0x82A4      |       33444 |
|     371 | 0xD178      |       53624 |
|     372 | 0x0102      |         258 |
|     373 | 0x3E7D      |       15997 |
|     374 | 0x3E7E      |       15998 |
|     375 | 0x0041      |          65 |
|     376 | 0x3E7F      |       15999 |
|     377 | 0x0045      |          69 |
|     378 | 0x879E      |       34718 |
|     379 | 0xD118      |       53528 |
|     380 | 0x0CE4      |        3300 |
|     381 | 0x0D48      |        3400 |
|     382 | 0x3E80      |       16000 |
|     383 | 0x3E81      |       16001 |
|     384 | 0x3E82      |       16002 |
|     385 | 0x3E83      |       16003 |
|     386 | 0x3E84      |       16004 |
|     387 | 0x1004      |        4100 |
|     388 | 0x3E85      |       16005 |
|     389 | 0x3E86      |       16006 |
|     390 | 0x3E87      |       16007 |
|     391 | 0x3E88      |       16008 |
|     392 | 0x3E89      |       16009 |
|     393 | 0x3E8A      |       16010 |
|     394 | 0x3E8B      |       16011 |
|     395 | 0x3E8C      |       16012 |
|     396 | 0x3E8D      |       16013 |
|     397 | 0x3E8E      |       16014 |
|     398 | 0x0138      |         312 |
|     399 | 0x0144      |         324 |
|     400 | 0x3E75      |       15989 |
|     401 | 0x3E76      |       15990 |
|     402 | 0x0146      |         326 |
|     403 | 0x3E8F      |       16015 |
|     404 | 0x3E90      |       16016 |
|     405 | 0x3E77      |       15991 |
|     406 | 0x3E78      |       15992 |
|     407 | 0x3E79      |       15993 |
|     408 | 0x3E7A      |       15994 |
|     409 | 0x3E91      |       16017 |
|     410 | 0x3E92      |       16018 |
|     411 | 0x3E7B      |       15995 |
|     412 | 0x0129      |         297 |
|     413 | 0x3E7C      |       15996 |
|     414 | 0xE0A7      |       57511 |
|     415 | 0x91C1      |       37313 |
|     416 | 0xC897      |       51351 |
|     417 | 0x01E1      |         481 |
|     418 | 0x8FC9      |       36809 |
|     419 | 0xB5C9      |       46537 |
|     420 | 0xFFFFE3E1  |  4294960097 |
|     421 | 0x0BF6      |        3062 |
|     422 | 0x898B      |       35211 |
|     423 | 0xC7EC      |       51180 |
|     424 | 0x0079      |         121 |
|     425 | 0x3E93      |       16019 |
|     426 | 0x3E94      |       16020 |
|     427 | 0x3E95      |       16021 |
|     428 | 0x3E96      |       16022 |
|     429 | 0x02F0      |         752 |
|     430 | 0x3E97      |       16023 |
|     431 | 0x3E98      |       16024 |
|     432 | 0x0181      |         385 |
|     433 | 0x3E99      |       16025 |
|     434 | 0x3E9A      |       16026 |
|     435 | 0x3E9B      |       16027 |
|     436 | 0x3E9C      |       16028 |
|     437 | 0x3E9D      |       16029 |
|     438 | 0x3E9E      |       16030 |
|     439 | 0x3E9F      |       16031 |
|     440 | 0x3EA0      |       16032 |
|     441 | 0x3EA1      |       16033 |
|     442 | 0x3EA2      |       16034 |
|     443 | 0x0080      |         128 |
|     444 | 0x3EA3      |       16035 |
|     445 | 0x0E74      |        3700 |
|     446 | 0x3EA4      |       16036 |
|     447 | 0x3EA5      |       16037 |
|     448 | 0x3EA6      |       16038 |
|     449 | 0x3EA7      |       16039 |
|     450 | 0x3EA8      |       16040 |
|     451 | 0x3EA9      |       16041 |
|     452 | 0x3EAA      |       16042 |
|     453 | 0x0258      |         600 |
|     454 | 0x88CB      |       35019 |
|     455 | 0xD1AC      |       53676 |
|     456 | 0x3EAB      |       16043 |
|     457 | 0x3EAC      |       16044 |
|     458 | 0x3EAD      |       16045 |
|     459 | 0x3EAE      |       16046 |
|     460 | 0x3EAF      |       16047 |
|     461 | 0x3EB0      |       16048 |
|     462 | 0x3EC3      |       16067 |
|     463 | 0x3EC4      |       16068 |
|     464 | 0x3EC5      |       16069 |
|     465 | 0x3EC6      |       16070 |
|     466 | 0x3EC7      |       16071 |
|     467 | 0x8779      |       34681 |
|     468 | 0xC832      |       51250 |
|     469 | 0x0180      |         384 |
|     470 | 0x3EC8      |       16072 |
|     471 | 0x3EC9      |       16073 |
|     472 | 0x3ECA      |       16074 |
|     473 | 0x3ECB      |       16075 |
|     474 | 0x3ECC      |       16076 |
|     475 | 0x3ECD      |       16077 |
|     476 | 0x3ECE      |       16078 |
|     477 | 0x3ECF      |       16079 |
|     478 | 0x3ED0      |       16080 |
|     479 | 0x3ED1      |       16081 |
|     480 | 0x3ED2      |       16082 |
|     481 | 0x3ED3      |       16083 |
|     482 | 0x3ED4      |       16084 |
|     483 | 0x3ED5      |       16085 |
|     484 | 0x3ED6      |       16086 |
|     485 | 0x3ED7      |       16087 |
|     486 | 0x0004      |           4 |
|     487 | 0x3ED8      |       16088 |
|     488 | 0x3ED9      |       16089 |
|     489 | 0x0148      |         328 |
|     490 | 0x3EB3      |       16051 |
|     491 | 0x3EB4      |       16052 |
|     492 | 0x014A      |         330 |
|     493 | 0x014E      |         334 |
|     494 | 0x3EB9      |       16057 |
|     495 | 0x3EBA      |       16058 |
|     496 | 0x0150      |         336 |
|     497 | 0x3EC0      |       16064 |
|     498 | 0x0152      |         338 |
|     499 | 0x3EDC      |       16092 |
|     500 | 0x3EDD      |       16093 |
|     501 | 0x3EB1      |       16049 |
|     502 | 0x3EB2      |       16050 |
|     503 | 0x3EBB      |       16059 |
|     504 | 0x3EBC      |       16060 |
|     505 | 0x014C      |         332 |
|     506 | 0x3EBE      |       16062 |
|     507 | 0x3EDA      |       16090 |
|     508 | 0x3EDB      |       16091 |
|     509 | 0x3EB5      |       16053 |
|     510 | 0x3EB6      |       16054 |
|     511 | 0x3EBD      |       16061 |
|     512 | 0x3EBF      |       16063 |
|     513 | 0x3EC1      |       16065 |
|     514 | 0x3EC2      |       16066 |
|     515 | 0x3EB7      |       16055 |
|     516 | 0x3EB8      |       16056 |
|     517 | 0x9174      |       37236 |
|     518 | 0xA827      |       43047 |
|     519 | 0x0FF2      |        4082 |
|     520 | 0x8AD0      |       35536 |
|     521 | 0xAD2C      |       44332 |
|     522 | 0xFFFFE3DD  |  4294960093 |
|     523 | 0x001F      |          31 |
|     524 | 0x3EDE      |       16094 |
|     525 | 0x3EDF      |       16095 |
|     526 | 0x3EE0      |       16096 |
|     527 | 0x8CA3      |       36003 |
|     528 | 0xBB80      |       48000 |
|     529 | 0x028F      |         655 |
|     530 | 0x3EE1      |       16097 |
|     531 | 0x3EE2      |       16098 |
|     532 | 0x3EE3      |       16099 |
|     533 | 0x3EE4      |       16100 |
|     534 | 0x3EE5      |       16101 |
|     535 | 0x3EE6      |       16102 |
|     536 | 0x3EE7      |       16103 |
|     537 | 0x3EE8      |       16104 |
|     538 | 0x3EE9      |       16105 |
|     539 | 0x3EEA      |       16106 |
|     540 | 0x3EEB      |       16107 |
|     541 | 0x3EEC      |       16108 |
|     542 | 0x3EED      |       16109 |
|     543 | 0x3EEE      |       16110 |
|     544 | 0xE279      |       57977 |
|     545 | 0x0933      |        2355 |
|     546 | 0x8E64      |       36452 |
|     547 | 0xC51F      |       50463 |
|     548 | 0xFFFFE15A  |  4294959450 |
|     549 | 0x0DFB      |        3579 |
|     550 | 0x905C      |       36956 |
|     551 | 0xE2FE      |       58110 |
|     552 | 0x042A      |        1066 |
|     553 | 0x903C      |       36924 |
|     554 | 0xDF6B      |       57195 |
|     555 | 0x0923      |        2339 |
|     556 | 0x0370      |         880 |
|     557 | 0x3EF5      |       16117 |
|     558 | 0x3EF6      |       16118 |
|     559 | 0x3EF7      |       16119 |
|     560 | 0x3EF8      |       16120 |
|     561 | 0x3EF9      |       16121 |
|     562 | 0x3EFA      |       16122 |
|     563 | 0x3EFB      |       16123 |
|     564 | 0x3EFC      |       16124 |
|     565 | 0x3EFD      |       16125 |
|     566 | 0x3EFE      |       16126 |
|     567 | 0x3EFF      |       16127 |
|     568 | 0x3F00      |       16128 |
|     569 | 0x3F01      |       16129 |
|     570 | 0x3F02      |       16130 |
|     571 | 0x3F03      |       16131 |
|     572 | 0x3F04      |       16132 |
|     573 | 0x3F05      |       16133 |
|     574 | 0x3F06      |       16134 |
|     575 | 0x3F07      |       16135 |
|     576 | 0x040A      |        1034 |
|     577 | 0xB45C      |       46172 |
|     578 | 0x08BD      |        2237 |
|     579 | 0xA4BB      |       42171 |
|     580 | 0x05B5      |        1461 |
|     581 | 0xA5CE      |       42446 |
|     582 | 0xFFFFFAFE  |  4294966014 |
|     583 | 0xB71D      |       46877 |
|     584 | 0x97B7      |       38839 |
|     585 | 0x00B7      |         183 |
|     586 | 0x0064      |         100 |
|     587 | 0x3F1A      |       16154 |
|     588 | 0x3F1B      |       16155 |
|     589 | 0x3F1C      |       16156 |
|     590 | 0x00FA      |         250 |
|     591 | 0x3F1D      |       16157 |
|     592 | 0x3F1E      |       16158 |
|     593 | 0x3F1F      |       16159 |
|     594 | 0x3F20      |       16160 |
|     595 | 0x3F21      |       16161 |
|     596 | 0x3F22      |       16162 |
|     597 | 0xFFFFFF06  |  4294967046 |
|     598 | 0x3F23      |       16163 |
|     599 | 0x3F24      |       16164 |
|     600 | 0x3F25      |       16165 |
|     601 | 0x3F26      |       16166 |
|     602 | 0x0800      |        2048 |
|     603 | 0x3F27      |       16167 |
|     604 | 0x3F28      |       16168 |
|     605 | 0x3F29      |       16169 |
|     606 | 0x3F2A      |       16170 |
|     607 | 0x3F2B      |       16171 |
|     608 | 0x3F2C      |       16172 |
|     609 | 0x3F2D      |       16173 |
|     610 | 0x3F2E      |       16174 |
|     611 | 0x3F2F      |       16175 |
|     612 | 0x3F30      |       16176 |
|     613 | 0x3F31      |       16177 |
|     614 | 0x3F32      |       16178 |
|     615 | 0x3F33      |       16179 |
|     616 | 0x3F34      |       16180 |
|     617 | 0x3F35      |       16181 |
|     618 | 0x3F36      |       16182 |
|     619 | 0x3F37      |       16183 |
|     620 | 0x3F38      |       16184 |
|     621 | 0x22DF3     |      142835 |
|     622 | 0x1133      |        4403 |
|     623 | 0xFFFFF830  |  4294965296 |
|     624 | 0x0827      |        2087 |
|     625 | 0x235A5     |      144805 |
|     626 | 0x0CD6      |        3286 |
|     627 | 0x0828      |        2088 |
|     628 | 0x23436     |      144438 |
|     629 | 0x122C      |        4652 |
|     630 | 0x254D9     |      152793 |
|     631 | 0xFFFFF769  |  4294965097 |
|     632 | 0x3F39      |       16185 |
|     633 | 0x3F3A      |       16186 |
|     634 | 0x3F3B      |       16187 |
|     635 | 0x0050      |          80 |
|     636 | 0x07D0      |        2000 |
|     637 | 0x3F3C      |       16188 |
|     638 | 0x3F3D      |       16189 |
|     639 | 0x3F3E      |       16190 |
|     640 | 0x3F3F      |       16191 |
|     641 | 0x3F40      |       16192 |
|     642 | 0x3F41      |       16193 |
|     643 | 0x3F42      |       16194 |
|     644 | 0x3F43      |       16195 |
|     645 | 0x3F44      |       16196 |
|     646 | 0x3F45      |       16197 |
|     647 | 0xFFFFFF9C  |  4294967196 |
|     648 | 0x3F46      |       16198 |
|     649 | 0x3F47      |       16199 |
|     650 | 0x3F48      |       16200 |
|     651 | 0x3F49      |       16201 |
|     652 | 0x3F4A      |       16202 |
|     653 | 0x3F4B      |       16203 |
|     654 | 0x3F4C      |       16204 |
|     655 | 0x3F4D      |       16205 |
|     656 | 0x3F4E      |       16206 |
|     657 | 0x3F4F      |       16207 |
|     658 | 0x3F50      |       16208 |
|     659 | 0x3F51      |       16209 |
|     660 | 0x000C      |          12 |
|     661 | 0x0156      |         342 |
|     662 | 0x3F08      |       16136 |
|     663 | 0x3F09      |       16137 |
|     664 | 0x3F0A      |       16138 |
|     665 | 0x3F0B      |       16139 |
|     666 | 0x0158      |         344 |
|     667 | 0x3F0F      |       16143 |
|     668 | 0x015C      |         348 |
|     669 | 0x3F12      |       16146 |
|     670 | 0x3F13      |       16147 |
|     671 | 0x3F14      |       16148 |
|     672 | 0x0160      |         352 |
|     673 | 0x3F53      |       16211 |
|     674 | 0x3F54      |       16212 |
|     675 | 0x3F55      |       16213 |
|     676 | 0x0154      |         340 |
|     677 | 0x3EF1      |       16113 |
|     678 | 0x3EF2      |       16114 |
|     679 | 0x3F0E      |       16142 |
|     680 | 0x3F11      |       16145 |
|     681 | 0x3F18      |       16152 |
|     682 | 0x3F19      |       16153 |
|     683 | 0x5610      |       22032 |
|     684 | 0x3F5A      |       16218 |
|     685 | 0x3F5B      |       16219 |
|     686 | 0x3F58      |       16216 |
|     687 | 0x3F59      |       16217 |
|     688 | 0x3EEF      |       16111 |
|     689 | 0x3EF0      |       16112 |
|     690 | 0x3F0C      |       16140 |
|     691 | 0x3F0D      |       16141 |
|     692 | 0x3F10      |       16144 |
|     693 | 0x3F15      |       16149 |
|     694 | 0x3F16      |       16150 |
|     695 | 0x3F17      |       16151 |
|     696 | 0x3F56      |       16214 |
|     697 | 0x3F57      |       16215 |
|     698 | 0x3EF3      |       16115 |
|     699 | 0x3EF4      |       16116 |
|     700 | 0x3F52      |       16210 |
|     701 | 0x0009      |           9 |
|     702 | 0x3F5C      |       16220 |
|     703 | 0x3F5D      |       16221 |
|     704 | 0x0174      |         372 |
|     705 | 0x3F77      |       16247 |
|     706 | 0x0CC2      |        3266 |
|     707 | 0x0CC1      |        3265 |
|     708 | 0x3F78      |       16248 |
|     709 | 0x0176      |         374 |
|     710 | 0x0178      |         376 |
|     711 | 0x3F8C      |       16268 |
|     712 | 0x3F8D      |       16269 |
|     713 | 0x3F79      |       16249 |
|     714 | 0x3F7A      |       16250 |
|     715 | 0x3F7D      |       16253 |
|     716 | 0x3F8E      |       16270 |
|     717 | 0x3F8F      |       16271 |
|     718 | 0x3F7B      |       16251 |
|     719 | 0x3F7C      |       16252 |
|     720 | 0x3F7E      |       16254 |
|     721 | 0x3F90      |       16272 |
|     722 | 0x3F91      |       16273 |
|     723 | 0x0172      |         370 |
|     724 | 0x3F5E      |       16222 |
|     725 | 0x3F5F      |       16223 |
|     726 | 0x3F60      |       16224 |
|     727 | 0x3F61      |       16225 |
|     728 | 0x3F62      |       16226 |
|     729 | 0x3F63      |       16227 |
|     730 | 0x3F64      |       16228 |
|     731 | 0x3F65      |       16229 |
|     732 | 0x3F66      |       16230 |
|     733 | 0x3F67      |       16231 |
|     734 | 0x3F68      |       16232 |
|     735 | 0x3F69      |       16233 |
|     736 | 0x3F6A      |       16234 |
|     737 | 0x3F6B      |       16235 |
|     738 | 0x3F6C      |       16236 |
|     739 | 0x3F6D      |       16237 |
|     740 | 0x3F6E      |       16238 |
|     741 | 0x3F6F      |       16239 |
|     742 | 0x3F70      |       16240 |
|     743 | 0x3F71      |       16241 |
|     744 | 0x3F72      |       16242 |
|     745 | 0x3F73      |       16243 |
|     746 | 0x8DB8      |       36280 |
|     747 | 0xE06F      |       57455 |
|     748 | 0x08BF      |        2239 |
|     749 | 0x056F      |        1391 |
|     750 | 0x3F74      |       16244 |
|     751 | 0x3F75      |       16245 |
|     752 | 0x3F76      |       16246 |
|     753 | 0x3F7F      |       16255 |
|     754 | 0x3F80      |       16256 |
|     755 | 0x3F81      |       16257 |
|     756 | 0x3F82      |       16258 |
|     757 | 0x8CBC      |       36028 |
|     758 | 0xD003      |       53251 |
|     759 | 0x0AE9      |        2793 |
|     760 | 0x8849      |       34889 |
|     761 | 0xD398      |       54168 |
|     762 | 0x0BE4      |        3044 |
|     763 | 0x3F83      |       16259 |
|     764 | 0x3F84      |       16260 |
|     765 | 0x0635      |        1589 |
|     766 | 0x3F85      |       16261 |
|     767 | 0x3F86      |       16262 |
|     768 | 0x3F87      |       16263 |
|     769 | 0x3F88      |       16264 |
|     770 | 0x3F89      |       16265 |
|     771 | 0x3F8A      |       16266 |
|     772 | 0x3F8B      |       16267 |
|     773 | 0x7FFFFFF0  |  2147483632 |
|     774 | 0x88C4      |       35012 |
|     775 | 0xD251      |       53841 |
|     776 | 0xFFFFDF90  |  4294958992 |
|     777 | 0x0BEA      |        3050 |
|     778 | 0x86C4      |       34500 |
|     779 | 0xCF08      |       53000 |
|     780 | 0xFFFA5E57  |  4294598231 |
|     781 | 0xFFF93042  |  4294520898 |
|     782 | 0x39E3      |       14819 |
|     783 | 0x0F3D      |        3901 |
|     784 | 0xFFFA4204  |  4294590980 |
|     785 | 0xFFF94103  |  4294525187 |
|     786 | 0x3BAB      |       15275 |
|     787 | 0x0355      |         853 |
|     788 | 0xFFFA4978  |  4294592888 |
|     789 | 0xFFF94209  |  4294525449 |
|     790 | 0x3A84      |       14980 |
|     791 | 0x0201      |         513 |
|     792 | 0xFFFA4EDF  |  4294594271 |
|     793 | 0xFFF94629  |  4294526505 |
|     794 | 0x3A3D      |       14909 |
|     795 | 0x01EF      |         495 |
|     796 | 0xFFFA50DA  |  4294594778 |
|     797 | 0xFFF93D7B  |  4294524283 |
|     798 | 0x3A13      |       14867 |
|     799 | 0xFFFA5077  |  4294594679 |
|     800 | 0xFFF952E7  |  4294529767 |
|     801 | 0x3A1E      |       14878 |
|     802 | 0x0F3E      |        3902 |
|     803 | 0x000E      |          14 |
|     804 | 0x3F92      |       16274 |
|     805 | 0x3F93      |       16275 |
|     806 | 0x3F94      |       16276 |
|     807 | 0x3F95      |       16277 |
|     808 | 0x3F96      |       16278 |
|     809 | 0x3F97      |       16279 |
|     810 | 0x3F98      |       16280 |
|     811 | 0x3F99      |       16281 |
|     812 | 0x0044      |          68 |
|     813 | 0xFFFA39F8  |  4294588920 |
|     814 | 0xFFF94089  |  4294525065 |
|     815 | 0x39B6      |       14774 |
|     816 | 0x0320      |         800 |
|     817 | 0xFFFA3E1D  |  4294589981 |
|     818 | 0xFFF93BE4  |  4294523876 |
|     819 | 0x39F2      |       14834 |
|     820 | 0x0F3C      |        3900 |
|     821 | 0xFFFA5790  |  4294596496 |
|     822 | 0xFFF93E21  |  4294524449 |
|     823 | 0x39BB      |       14779 |
|     824 | 0xFFFA465F  |  4294592095 |
|     825 | 0xFFF94A9E  |  4294527646 |
|     826 | 0x3A5E      |       14942 |
|     827 | 0x07D9      |        2009 |
|     828 | 0x001A      |          26 |
|     829 | 0x036F      |         879 |
|     830 | 0x3F9A      |       16282 |
|     831 | 0x3F9B      |       16283 |
|     832 | 0x0055      |          85 |
|     833 | 0x3F9C      |       16284 |
|     834 | 0x3F9D      |       16285 |
|     835 | 0x3F9E      |       16286 |
|     836 | 0x3F9F      |       16287 |
|     837 | 0x3FA0      |       16288 |
|     838 | 0x3FA1      |       16289 |
|     839 | 0x3FA2      |       16290 |
|     840 | 0x3FA3      |       16291 |
|     841 | 0xFFFA5075  |  4294594677 |
|     842 | 0xFFF9413B  |  4294525243 |
|     843 | 0x3A18      |       14872 |
|     844 | 0x3FA4      |       16292 |
|     845 | 0x3FA5      |       16293 |
|     846 | 0x3FA6      |       16294 |
|     847 | 0xFFFA4C17  |  4294593559 |
|     848 | 0xFFF9410B  |  4294525195 |
|     849 | 0x3A7D      |       14973 |
|     850 | 0x0353      |         851 |
|     851 | 0x0758      |        1880 |
|     852 | 0x3FA7      |       16295 |
|     853 | 0x3FA8      |       16296 |
|     854 | 0x3FA9      |       16297 |
|     855 | 0x3FAA      |       16298 |
|     856 | 0x3FAB      |       16299 |
|     857 | 0x04B0      |        1200 |
|     858 | 0x3FAC      |       16300 |
|     859 | 0x3FAD      |       16301 |
|     860 | 0x3FAE      |       16302 |
|     861 | 0x3FAF      |       16303 |
|     862 | 0x01CB      |         459 |
|     863 | 0x3FB0      |       16304 |
|     864 | 0x8E7E      |       36478 |
|     865 | 0xD16A      |       53610 |
|     866 | 0x0865      |        2149 |
|     867 | 0x8AEB      |       35563 |
|     868 | 0xCE26      |       52774 |
|     869 | 0x0AC9      |        2761 |
|     870 | 0x83E1      |       33761 |
|     871 | 0xD030      |       53296 |
|     872 | 0x0E11      |        3601 |
|     873 | 0x3FB1      |       16305 |
|     874 | 0x3FB2      |       16306 |
|     875 | 0x3FB3      |       16307 |
|     876 | 0x3FB4      |       16308 |
|     877 | 0x3FB5      |       16309 |
|     878 | 0x3FB6      |       16310 |
|     879 | 0x3FB7      |       16311 |
|     880 | 0x3FB8      |       16312 |
|     881 | 0x3FB9      |       16313 |
|     882 | 0x3FBA      |       16314 |
|     883 | 0x3FBB      |       16315 |
|     884 | 0x3FBC      |       16316 |
|     885 | 0x3FBD      |       16317 |
|     886 | 0x3FBE      |       16318 |
|     887 | 0x3FBF      |       16319 |
|     888 | 0x3FC0      |       16320 |
|     889 | 0x3FC4      |       16324 |
|     890 | 0x3FC5      |       16325 |
|     891 | 0x3FC1      |       16321 |
|     892 | 0x3FC2      |       16322 |
|     893 | 0x3FC3      |       16323 |

## String References

- **10301**: 
- **15798**: Are you promoting the company? [Most definitely./Maybe?/Not really.]
- **15866**: What did he talk about? [I don't remember./Falak's seal, maybe?/Opening a gate?]
- **15926**: What do you think about Odin? [I don't know./He seemed fine to me./I haven't heard anything...]
- **15974**: How will you respond? [I have no idea./The Archaeological Institute...?/Maybe because Razfahd is gone?/He looks fine to me...]
- **16033**: Will you help the investigation? [Sure, no problem./Sorry, I can't.]
- **16120**: Do you know Uran-Mafran? [Yes, I know him./No, who's that?]
- **16127**: What do you think about Uran-Mafran? [He can be trusted./We can't trust him./What did he want in return?]

## Events

### Event 65535

#### Metadata

| Field        | Value     |
|--------------|-----------|
| Entrypoint   | 0x0000    |
| Data Size    | 658 bytes |
| Instructions | 1         |

```
      00 01 02 03 04 05 06 07  08 09 0A 0B 0C 0D 0E 0F
      -- -- -- -- -- -- -- --  -- -- -- -- -- -- -- --
0000: 00 45 00 80 F0 FF FF 7F  F0 FF FF 7F 66 64 69 30  .E..........fdi0
0010: 01 80 55 00 80 F0 FF FF  7F F0 FF FF 7F 66 64 69  ..U..........fdi
0020: 30 1B 45 00 80 F0 FF FF  7F F0 FF FF 7F 66 64 6F  0.E..........fdo
0030: 30 01 80 55 00 80 F0 FF  FF 7F F0 FF FF 7F 66 64  0..U..........fd
0040: 6F 30 1B 45 00 80 F0 FF  FF 7F F0 FF FF 7F 66 64  o0.E..........fd
0050: 69 31 01 80 55 00 80 F0  FF FF 7F F0 FF FF 7F 66  i1..U..........f
0060: 64 69 31 1B 45 00 80 F0  FF FF 7F F0 FF FF 7F 66  di1.E..........f
0070: 64 6F 31 01 80 55 00 80  F0 FF FF 7F F0 FF FF 7F  do1..U..........
0080: 66 64 6F 31 1B 45 02 80  F0 FF FF 7F F0 FF FF 7F  fdo1.E..........
0090: 77 68 69 31 01 80 55 02  80 F0 FF FF 7F F0 FF FF  whi1..U.........
00A0: 7F 77 68 69 31 1B 45 02  80 F0 FF FF 7F F0 FF FF  .whi1.E.........
00B0: 7F 77 68 6F 31 01 80 55  02 80 F0 FF FF 7F F0 FF  .who1..U........
00C0: FF 7F 77 68 6F 31 1B 45  02 80 F0 FF FF 7F F0 FF  ..who1.E........
00D0: FF 7F 77 68 6F 32 01 80  55 02 80 F0 FF FF 7F F0  ..who2..U.......
00E0: FF FF 7F 77 68 6F 32 1B  45 02 80 F0 FF FF 7F F0  ...who2.E.......
00F0: FF FF 7F 77 68 6F 33 01  80 55 02 80 F0 FF FF 7F  ...who3..U......
0100: F0 FF FF 7F 77 68 6F 33  1B 62 03 80 F0 FF FF 7F  ....who3.b......
0110: F0 FF FF 7F 6D 61 69 6E  01 80 1C 04 80 45 00 80  ....main.....E..
0120: F0 FF FF 7F F0 FF FF 7F  66 64 6F 31 01 80 55 00  ........fdo1..U.
0130: 80 F0 FF FF 7F F0 FF FF  7F 66 64 6F 31 1B 45 00  .........fdo1.E.
0140: 80 F0 FF FF 7F F0 FF FF  7F 66 64 69 31 01 80 62  .........fdi1..b
0150: 05 80 F0 FF FF 7F F0 FF  FF 7F 6D 61 69 6E 01 80  ..........main..
0160: 1C 06 80 55 00 80 F0 FF  FF 7F F0 FF FF 7F 66 64  ...U..........fd
0170: 69 31 1B 45 00 80 F0 FF  FF 7F F0 FF FF 7F 62 6C  i1.E..........bl
0180: 6F 6E 01 80 45 02 80 F0  FF FF 7F F0 FF FF 7F 62  on..E..........b
0190: 6C 6F 6E 01 80 1B 45 02  80 F0 FF FF 7F F0 FF FF  lon...E.........
01A0: 7F 77 68 69 30 01 80 55  02 80 F0 FF FF 7F F0 FF  .whi0..U........
01B0: FF 7F 77 68 69 30 1B 45  02 80 F0 FF FF 7F F0 FF  ..whi0.E........
01C0: FF 7F 77 68 6F 30 01 80  55 02 80 F0 FF FF 7F F0  ..who0..U.......
01D0: FF FF 7F 77 68 6F 30 1B  45 07 80 F0 FF FF 7F F0  ...who0.E.......
01E0: FF FF 7F 65 66 6F 6E 01  80 55 07 80 F0 FF FF 7F  ...efon..U......
01F0: F0 FF FF 7F 65 66 6F 6E  1B 45 00 80 F0 FF FF 7F  ....efon.E......
0200: F0 FF FF 7F 66 64 69 73  01 80 1B 45 00 80 F0 FF  ....fdis...E....
0210: FF 7F F0 FF FF 7F 66 64  6F 73 01 80 55 00 80 F0  ......fdos..U...
0220: FF FF 7F F0 FF FF 7F 66  64 6F 73 1B 45 00 80 F0  .......fdos.E...
0230: FF FF 7F F0 FF FF 7F 66  64 69 66 01 80 1B 45 00  .......fdif...E.
0240: 80 F0 FF FF 7F F0 FF FF  7F 66 64 6F 66 01 80 55  .........fdof..U
0250: 00 80 F0 FF FF 7F F0 FF  FF 7F 66 64 6F 66 1B 45  ..........fdof.E
0260: 00 80 F0 FF FF 7F F0 FF  FF 7F 66 64 69 70 01 80  ..........fdip..
0270: 1B 45 00 80 F0 FF FF 7F  F0 FF FF 7F 66 64 6F 70  .E..........fdop
0280: 01 80 55 00 80 F0 FF FF  7F F0 FF FF 7F 66 64 6F  ..U..........fdo
0290: 70 1B                                             p.              
```

#### Opcodes

```
  0: 0x0000 [0x00] END_REQSTACK()
```

#### Data or dead code:

```
# Dead code (unreachable instructions):
     0x0001 [0x45] LOAD_SCHEDULED_TASK: Load scheduler "fdi0" with entities [LocalPlayer, LocalPlayer], work=[200*, 0*]
     0x0012 [0x55] WAIT_LOAD_SCHEDULER: Wait for scheduler "fdi0" with entities [LocalPlayer, LocalPlayer], work=200*
     0x0021 [0x1B] RETURN
     0x0022 [0x45] LOAD_SCHEDULED_TASK: Load scheduler "fdo0" with entities [LocalPlayer, LocalPlayer], work=[200*, 0*]
     0x0033 [0x55] WAIT_LOAD_SCHEDULER: Wait for scheduler "fdo0" with entities [LocalPlayer, LocalPlayer], work=200*
     0x0042 [0x1B] RETURN
     0x0043 [0x45] LOAD_SCHEDULED_TASK: Load scheduler "fdi1" with entities [LocalPlayer, LocalPlayer], work=[200*, 0*]
     0x0054 [0x55] WAIT_LOAD_SCHEDULER: Wait for scheduler "fdi1" with entities [LocalPlayer, LocalPlayer], work=200*
     0x0063 [0x1B] RETURN
     0x0064 [0x45] LOAD_SCHEDULED_TASK: Load scheduler "fdo1" with entities [LocalPlayer, LocalPlayer], work=[200*, 0*]
     0x0075 [0x55] WAIT_LOAD_SCHEDULER: Wait for scheduler "fdo1" with entities [LocalPlayer, LocalPlayer], work=200*
     0x0084 [0x1B] RETURN
     0x0085 [0x45] LOAD_SCHEDULED_TASK: Load scheduler "whi1" with entities [LocalPlayer, LocalPlayer], work=[201*, 0*]
     0x0096 [0x55] WAIT_LOAD_SCHEDULER: Wait for scheduler "whi1" with entities [LocalPlayer, LocalPlayer], work=201*
     0x00A5 [0x1B] RETURN
     0x00A6 [0x45] LOAD_SCHEDULED_TASK: Load scheduler "who1" with entities [LocalPlayer, LocalPlayer], work=[201*, 0*]
     0x00B7 [0x55] WAIT_LOAD_SCHEDULER: Wait for scheduler "who1" with entities [LocalPlayer, LocalPlayer], work=201*
     0x00C6 [0x1B] RETURN
     0x00C7 [0x45] LOAD_SCHEDULED_TASK: Load scheduler "who2" with entities [LocalPlayer, LocalPlayer], work=[201*, 0*]
     0x00D8 [0x55] WAIT_LOAD_SCHEDULER: Wait for scheduler "who2" with entities [LocalPlayer, LocalPlayer], work=201*
     0x00E7 [0x1B] RETURN
     0x00E8 [0x45] LOAD_SCHEDULED_TASK: Load scheduler "who3" with entities [LocalPlayer, LocalPlayer], work=[201*, 0*]
     0x00F9 [0x55] WAIT_LOAD_SCHEDULER: Wait for scheduler "who3" with entities [LocalPlayer, LocalPlayer], work=201*
     0x0108 [0x1B] RETURN
     0x0109 [0x62] LOAD_EVENT_SCHEDULER: Load scheduler "main" with entities [LocalPlayer, LocalPlayer], work=[1*, 0*]
     0x011A [0x1C] WAIT(45* ticks)
     0x011D [0x45] LOAD_SCHEDULED_TASK: Load scheduler "fdo1" with entities [LocalPlayer, LocalPlayer], work=[200*, 0*]
     0x012E [0x55] WAIT_LOAD_SCHEDULER: Wait for scheduler "fdo1" with entities [LocalPlayer, LocalPlayer], work=200*
     0x013D [0x1B] RETURN
     0x013E [0x45] LOAD_SCHEDULED_TASK: Load scheduler "fdi1" with entities [LocalPlayer, LocalPlayer], work=[200*, 0*]
     0x014F [0x62] LOAD_EVENT_SCHEDULER: Load scheduler "main" with entities [LocalPlayer, LocalPlayer], work=[2*, 0*]
     0x0160 [0x1C] WAIT(30* ticks)
     0x0163 [0x55] WAIT_LOAD_SCHEDULER: Wait for scheduler "fdi1" with entities [LocalPlayer, LocalPlayer], work=200*
     0x0172 [0x1B] RETURN
     0x0173 [0x45] LOAD_SCHEDULED_TASK: Load scheduler "blon" with entities [LocalPlayer, LocalPlayer], work=[200*, 0*]
     0x0184 [0x45] LOAD_SCHEDULED_TASK: Load scheduler "blon" with entities [LocalPlayer, LocalPlayer], work=[201*, 0*]
     0x0195 [0x1B] RETURN
     0x0196 [0x45] LOAD_SCHEDULED_TASK: Load scheduler "whi0" with entities [LocalPlayer, LocalPlayer], work=[201*, 0*]
     0x01A7 [0x55] WAIT_LOAD_SCHEDULER: Wait for scheduler "whi0" with entities [LocalPlayer, LocalPlayer], work=201*
     0x01B6 [0x1B] RETURN
     0x01B7 [0x45] LOAD_SCHEDULED_TASK: Load scheduler "who0" with entities [LocalPlayer, LocalPlayer], work=[201*, 0*]
     0x01C8 [0x55] WAIT_LOAD_SCHEDULER: Wait for scheduler "who0" with entities [LocalPlayer, LocalPlayer], work=201*
     0x01D7 [0x1B] RETURN
     0x01D8 [0x45] LOAD_SCHEDULED_TASK: Load scheduler "efon" with entities [LocalPlayer, LocalPlayer], work=[215*, 0*]
     0x01E9 [0x55] WAIT_LOAD_SCHEDULER: Wait for scheduler "efon" with entities [LocalPlayer, LocalPlayer], work=215*
     0x01F8 [0x1B] RETURN
     0x01F9 [0x45] LOAD_SCHEDULED_TASK: Load scheduler "fdis" with entities [LocalPlayer, LocalPlayer], work=[200*, 0*]
     0x020A [0x1B] RETURN
     0x020B [0x45] LOAD_SCHEDULED_TASK: Load scheduler "fdos" with entities [LocalPlayer, LocalPlayer], work=[200*, 0*]
     0x021C [0x55] WAIT_LOAD_SCHEDULER: Wait for scheduler "fdos" with entities [LocalPlayer, LocalPlayer], work=200*
     0x022B [0x1B] RETURN
     0x022C [0x45] LOAD_SCHEDULED_TASK: Load scheduler "fdif" with entities [LocalPlayer, LocalPlayer], work=[200*, 0*]
     0x023D [0x1B] RETURN
     0x023E [0x45] LOAD_SCHEDULED_TASK: Load scheduler "fdof" with entities [LocalPlayer, LocalPlayer], work=[200*, 0*]
     0x024F [0x55] WAIT_LOAD_SCHEDULER: Wait for scheduler "fdof" with entities [LocalPlayer, LocalPlayer], work=200*
     0x025E [0x1B] RETURN
     0x025F [0x45] LOAD_SCHEDULED_TASK: Load scheduler "fdip" with entities [LocalPlayer, LocalPlayer], work=[200*, 0*]
     0x0270 [0x1B] RETURN
     0x0271 [0x45] LOAD_SCHEDULED_TASK: Load scheduler "fdop" with entities [LocalPlayer, LocalPlayer], work=[200*, 0*]
     0x0282 [0x55] WAIT_LOAD_SCHEDULER: Wait for scheduler "fdop" with entities [LocalPlayer, LocalPlayer], work=200*
     0x0291 [0x1B] RETURN
```

### Event 173

#### Metadata

| Field        | Value      |
|--------------|------------|
| Entrypoint   | 0x0292     |
| Data Size    | 2995 bytes |
| Instructions | 392        |

```
      00 01 02 03 04 05 06 07  08 09 0A 0B 0C 0D 0E 0F
      -- -- -- -- -- -- -- --  -- -- -- -- -- -- -- --
0290:       42 03 01 00 03 10  5D 01 80 08 80 1A 64 00    B.....].....d.
02A0: 46 01 38 09 80 02 09 10  01 80 01 B3 02 75 00 0A  F.8..........u..
02B0: 80 75 01 79 00 F0 FF FF  7F F0 FF FF 7F 92 01 8C  .u.y............
02C0: 20 03 01 92 01 8D 20 03  01 94 01 F0 FF FF 7F 94   ..... .........
02D0: 01 8C 20 03 01 94 01 8D  20 03 01 80 F0 FF FF 7F  .. ..... .......
02E0: 80 8C 20 03 01 80 8D 20  03 01 BA F0 FF FF 7F 0B  .. .... ........
02F0: 80 0C 80 0D 80 0E 80 29  10 8C 20 03 01 24 1C 03  .......).. ..$..
0300: 80 81 00 8C 20 03 01 5B  0F 80 8C 20 03 01 8C 20  .... ..[... ... 
0310: 03 01 64 73 6B 6C 53 8C  20 03 01 8C 20 03 01 64  ..dsklS. ... ..d
0320: 73 6B 6C 29 0F 8C 20 03  01 5E 29 0F 8C 20 03 01  skl).. ..^).. ..
0330: 5F 1C 06 80 29 0F F0 FF  FF 7F 79 5C 00 10 80 5C  _...).....y\...\
0340: 01 10 80 9A 5D 11 80 03  80 27 10 F0 FF FF 7F 41  ....]....'.....A
0350: 02 09 10 12 80 00 6C 03  45 13 80 F8 FF FF 7F F8  ......l.E.......
0360: FF FF 7F 73 30 32 33 01  80 01 99 03 02 09 10 14  ...s023.........
0370: 80 00 88 03 45 13 80 F8  FF FF 7F F8 FF FF 7F 73  ....E..........s
0380: 30 32 33 01 80 01 99 03  45 13 80 F8 FF FF 7F F8  023.....E.......
0390: FF FF 7F 73 30 30 30 01  80 1A 43 00 2B 8C 20 03  ...s000...C.+. .
03A0: 01 15 80 23 02 09 10 12  80 00 BE 03 52 13 80 F8  ...#........R...
03B0: FF FF 7F F8 FF FF 7F 73  30 32 33 01 E7 03 02 09  .......s023.....
03C0: 10 14 80 00 D8 03 52 13  80 F8 FF FF 7F F8 FF FF  ......R.........
03D0: 7F 73 30 32 33 01 E7 03  52 13 80 F8 FF FF 7F F8  .s023...R.......
03E0: FF FF 7F 73 30 30 30 45  13 80 F8 FF FF 7F F8 FF  ...s000E........
03F0: FF 7F 73 30 30 31 01 80  29 10 8C 20 03 01 5C 03  ..s001..).. ..\.
0400: 02 10 01 00 2B 8C 20 03  01 16 80 23 29 10 8C 20  ....+. ....#).. 
0410: 03 01 5D 27 10 8C 20 03  01 60 1C 17 80 52 13 80  ..]'.. ..`...R..
0420: F8 FF FF 7F F8 FF FF 7F  73 30 30 31 45 13 80 F8  ........s001E...
0430: FF FF 7F F8 FF FF 7F 73  30 30 38 01 80 2B 8C 20  .......s008..+. 
0440: 03 01 18 80 1C 17 80 4A  F0 FF FF 7F 8C 20 03 01  .......J..... ..
0450: 6F 76 F0 FF FF 7F 1C 06  80 4A F0 FF FF 7F 8C 20  ov.......J..... 
0460: 03 01 52 13 80 F8 FF FF  7F F8 FF FF 7F 73 30 30  ..R..........s00
0470: 38 02 09 10 12 80 00 8D  04 45 13 80 F8 FF FF 7F  8........E......
0480: F8 FF FF 7F 73 30 32 34  01 80 01 BA 04 02 09 10  ....s024........
0490: 14 80 00 A9 04 45 13 80  F8 FF FF 7F F8 FF FF 7F  .....E..........
04A0: 73 30 32 34 01 80 01 BA  04 45 13 80 F8 FF FF 7F  s024.....E......
04B0: F8 FF FF 7F 73 30 30 32  01 80 23 2B 8C 20 03 01  ....s002..#+. ..
04C0: 19 80 23 2A 10 8C 20 03  01 6F 76 F0 FF FF 7F 79  ..#*.. ..ov....y
04D0: 00 8C 20 03 01 F0 FF FF  7F 02 09 10 12 80 00 F3  .. .............
04E0: 04 52 13 80 F8 FF FF 7F  F8 FF FF 7F 73 30 32 34  .R..........s024
04F0: 01 1C 05 02 09 10 14 80  00 0D 05 52 13 80 F8 FF  ...........R....
0500: FF 7F F8 FF FF 7F 73 30  32 34 01 1C 05 52 13 80  ......s024...R..
0510: F8 FF FF 7F F8 FF FF 7F  73 30 30 32 45 13 80 F8  ........s002E...
0520: FF FF 7F F8 FF FF 7F 73  30 30 33 01 80 4A F0 FF  .......s003..J..
0530: FF 7F 8C 20 03 01 2B 8C  20 03 01 1A 80 23 2B 8C  ... ..+. ....#+.
0540: 20 03 01 1B 80 23 6F 76  F0 FF FF 7F 52 13 80 F8   ....#ov....R...
0550: FF FF 7F F8 FF FF 7F 73  30 30 33 02 09 10 12 80  .......s003.....
0560: 00 77 05 45 13 80 F8 FF  FF 7F F8 FF FF 7F 73 30  .w.E..........s0
0570: 32 35 01 80 01 A4 05 02  09 10 14 80 00 93 05 45  25.............E
0580: 13 80 F8 FF FF 7F F8 FF  FF 7F 73 30 32 35 01 80  ..........s025..
0590: 01 A4 05 45 13 80 F8 FF  FF 7F F8 FF FF 7F 73 30  ...E..........s0
05A0: 30 34 01 80 2B 8C 20 03  01 1C 80 23 03 00 10 1D  04..+. ....#....
05B0: 80 02 00 10 01 80 01 AC  08 24 1E 80 01 80 01 80  .........$......
05C0: 25 02 00 10 01 80 00 49  06 6E F0 FF FF 7F 1F 80  %......I.n......
05D0: 99 F0 FF FF 7F 1C 17 80  5D 11 80 00 80 27 10 8C  ........]....'..
05E0: 20 03 01 64 02 09 10 12  80 00 FE 05 52 13 80 F8   ..d........R...
05F0: FF FF 7F F8 FF FF 7F 73  30 32 35 01 27 06 02 09  .......s025.'...
0600: 10 14 80 00 18 06 52 13  80 F8 FF FF 7F F8 FF FF  ......R.........
0610: 7F 73 30 32 35 01 27 06  52 13 80 F8 FF FF 7F F8  .s025.'.R.......
0620: FF FF 7F 73 30 30 34 45  13 80 F8 FF FF 7F F8 FF  ...s004E........
0630: FF 7F 73 30 30 35 01 80  2B 8C 20 03 01 20 80 23  ..s005..+. .. .#
0640: 2A 10 8C 20 03 01 01 A9  08 02 00 10 03 80 00 AD  *.. ............
0650: 07 79 00 8C 20 03 01 F0  FF FF 7F 6E F0 FF FF 7F  .y.. ......n....
0660: 21 80 99 F0 FF FF 7F 1C  06 80 4A 8C 20 03 01 F0  !.........J. ...
0670: FF FF 7F 6F 76 8C 20 03  01 5D 01 80 03 80 29 10  ...ov. ..]....).
0680: 8C 20 03 01 2E 1C 17 80  02 09 10 12 80 00 A2 06  . ..............
0690: 52 13 80 F8 FF FF 7F F8  FF FF 7F 73 30 32 35 01  R..........s025.
06A0: CB 06 02 09 10 14 80 00  BC 06 52 13 80 F8 FF FF  ..........R.....
06B0: 7F F8 FF FF 7F 73 30 32  35 01 CB 06 52 13 80 F8  .....s025...R...
06C0: FF FF 7F F8 FF FF 7F 73  30 30 34 45 13 80 F8 FF  .......s004E....
06D0: FF 7F F8 FF FF 7F 73 30  31 30 01 80 2B 8C 20 03  ......s010..+. .
06E0: 01 22 80 23 5D 11 80 00  80 2B 8C 20 03 01 23 80  .".#]....+. ..#.
06F0: 29 10 8C 20 03 01 2F 52  13 80 F8 FF FF 7F F8 FF  ).. ../R........
0700: FF 7F 73 30 31 30 45 13  80 F8 FF FF 7F F8 FF FF  ..s010E.........
0710: 7F 73 30 30 33 01 80 23  29 10 8C 20 03 01 30 2B  .s003..#).. ..0+
0720: 8C 20 03 01 24 80 23 29  10 8C 20 03 01 31 52 13  . ..$.#).. ..1R.
0730: 80 F8 FF FF 7F F8 FF FF  7F 73 30 30 33 02 09 10  .........s003...
0740: 12 80 00 59 07 45 13 80  F8 FF FF 7F F8 FF FF 7F  ...Y.E..........
0750: 73 30 32 35 01 80 01 86  07 02 09 10 14 80 00 75  s025...........u
0760: 07 45 13 80 F8 FF FF 7F  F8 FF FF 7F 73 30 32 35  .E..........s025
0770: 01 80 01 86 07 45 13 80  F8 FF FF 7F F8 FF FF 7F  .....E..........
0780: 73 30 30 34 01 80 29 10  8C 20 03 01 44 2B 8C 20  s004..).. ..D+. 
0790: 03 01 25 80 23 29 10 8C  20 03 01 45 29 10 8C 20  ..%.#).. ..E).. 
07A0: 03 01 46 29 10 8C 20 03  01 47 01 A9 08 02 00 10  ..F).. ..G......
07B0: 05 80 00 A9 08 6E F0 FF  FF 7F 14 80 99 F0 FF FF  .....n..........
07C0: 7F 1C 06 80 7B 8C 20 03  01 29 10 8C 20 03 01 2A  ....{. ..).. ..*
07D0: 1C 06 80 02 09 10 12 80  00 ED 07 52 13 80 F8 FF  ...........R....
07E0: FF 7F F8 FF FF 7F 73 30  32 35 01 16 08 02 09 10  ......s025......
07F0: 14 80 00 07 08 52 13 80  F8 FF FF 7F F8 FF FF 7F  .....R..........
0800: 73 30 32 35 01 16 08 52  13 80 F8 FF FF 7F F8 FF  s025...R........
0810: FF 7F 73 30 30 34 45 13  80 F8 FF FF 7F F8 FF FF  ..s004E.........
0820: 7F 73 30 30 39 01 80 5D  01 80 03 80 2B 8C 20 03  .s009..]....+. .
0830: 01 26 80 23 29 10 8C 20  03 01 2B 29 10 8C 20 03  .&.#).. ..+).. .
0840: 01 2C 52 13 80 F8 FF FF  7F F8 FF FF 7F 73 30 30  .,R..........s00
0850: 39 02 09 10 12 80 00 6D  08 45 13 80 F8 FF FF 7F  9......m.E......
0860: F8 FF FF 7F 73 30 32 35  01 80 01 9A 08 02 09 10  ....s025........
0870: 14 80 00 89 08 45 13 80  F8 FF FF 7F F8 FF FF 7F  .....E..........
0880: 73 30 32 35 01 80 01 9A  08 45 13 80 F8 FF FF 7F  s025.....E......
0890: F8 FF FF 7F 73 30 30 34  01 80 5D 11 80 00 80 29  ....s004..]....)
08A0: 10 8C 20 03 01 2D 01 A9  08 01 B1 05 7B 8C 20 03  .. ..-......{. .
08B0: 01 4B 8C 20 03 01 27 80  6F 76 8C 20 03 01 52 13  .K. ..'.ov. ..R.
08C0: 80 F8 FF FF 7F F8 FF FF  7F 73 30 30 35 45 13 80  .........s005E..
08D0: F8 FF FF 7F F8 FF FF 7F  73 30 30 36 01 80 29 10  ........s006..).
08E0: 8C 20 03 01 2E 1C 04 80  2B 8C 20 03 01 28 80 23  . ......+. ..(.#
08F0: 1C 04 80 52 13 80 F8 FF  FF 7F F8 FF FF 7F 73 30  ...R..........s0
0900: 30 36 02 09 10 12 80 00  1E 09 45 13 80 F8 FF FF  06........E.....
0910: 7F F8 FF FF 7F 73 30 32  36 01 80 01 4B 09 02 09  .....s026...K...
0920: 10 14 80 00 3A 09 45 13  80 F8 FF FF 7F F8 FF FF  ....:.E.........
0930: 7F 73 30 32 36 01 80 01  4B 09 45 13 80 F8 FF FF  .s026...K.E.....
0940: 7F F8 FF FF 7F 73 30 31  37 01 80 27 10 8D 20 03  .....s017..'.. .
0950: 01 17 79 00 F0 FF FF 7F  8D 20 03 01 4B F0 FF FF  ..y...... ..K...
0960: 7F 01 80 6F 76 F0 FF FF  7F 6B 69 64 6C 30 8C 20  ...ov....kidl0. 
0970: 03 01 1C 17 80 02 09 10  12 80 00 8F 09 52 13 80  .............R..
0980: F8 FF FF 7F F8 FF FF 7F  73 30 32 36 01 B8 09 02  ........s026....
0990: 09 10 14 80 00 A9 09 52  13 80 F8 FF FF 7F F8 FF  .......R........
09A0: FF 7F 73 30 32 36 01 B8  09 52 13 80 F8 FF FF 7F  ..s026...R......
09B0: F8 FF FF 7F 73 30 31 37  45 13 80 F8 FF FF 7F F8  ....s017E.......
09C0: FF FF 7F 73 30 31 31 01  80 2B 8D 20 03 01 29 80  ...s011..+. ..).
09D0: 1C 06 80 2A 10 8D 20 03  01 4A 8C 20 03 01 8D 20  ...*.. ..J. ... 
09E0: 03 01 4B F0 FF FF 7F 2A  80 1C 06 80 6F 76 F0 FF  ..K....*....ov..
09F0: FF 7F 6F 76 8C 20 03 01  23 52 13 80 F8 FF FF 7F  ..ov. ..#R......
0A00: F8 FF FF 7F 73 30 31 31  45 13 80 F8 FF FF 7F F8  ....s011E.......
0A10: FF FF 7F 73 30 31 39 01  80 29 10 8C 20 03 01 44  ...s019..).. ..D
0A20: 03 02 10 01 00 2B 8C 20  03 01 2B 80 23 29 10 8C  .....+. ..+.#)..
0A30: 20 03 01 45 52 13 80 F8  FF FF 7F F8 FF FF 7F 73   ..ER..........s
0A40: 30 31 39 45 13 80 F8 FF  FF 7F F8 FF FF 7F 73 30  019E..........s0
0A50: 31 33 01 80 45 13 80 F8  FF FF 7F F8 FF FF 7F 38  13..E..........8
0A60: 31 36 30 01 80 29 10 8C  20 03 01 46 03 02 10 01  160..).. ..F....
0A70: 00 2B 8D 20 03 01 2C 80  23 29 10 8C 20 03 01 47  .+. ..,.#).. ..G
0A80: BA 8C 20 03 01 2D 80 2E  80 0D 80 2F 80 2B 8D 20  .. ..-...../.+. 
0A90: 03 01 30 80 23 7B 8C 20  03 01 27 10 8C 20 03 01  ..0.#{. ..'.. ..
0AA0: 61 1C 14 80 52 13 80 F8  FF FF 7F F8 FF FF 7F 73  a...R..........s
0AB0: 30 31 33 02 09 10 12 80  00 CF 0A 45 13 80 F8 FF  013........E....
0AC0: FF 7F F8 FF FF 7F 73 30  32 37 01 80 01 FC 0A 02  ......s027......
0AD0: 09 10 14 80 00 EB 0A 45  13 80 F8 FF FF 7F F8 FF  .......E........
0AE0: FF 7F 73 30 32 37 01 80  01 FC 0A 45 13 80 F8 FF  ..s027.....E....
0AF0: FF 7F F8 FF FF 7F 73 30  31 34 01 80 2B 8C 20 03  ......s014..+. .
0B00: 01 31 80 1C 32 80 79 00  F0 FF FF 7F 8C 20 03 01  .1..2.y...... ..
0B10: 4B F0 FF FF 7F 33 80 6F  76 F0 FF FF 7F 23 2A 10  K....3.ov....#*.
0B20: 8C 20 03 01 02 09 10 12  80 00 3E 0B 52 13 80 F8  . ........>.R...
0B30: FF FF 7F F8 FF FF 7F 73  30 32 37 01 67 0B 02 09  .......s027.g...
0B40: 10 14 80 00 58 0B 52 13  80 F8 FF FF 7F F8 FF FF  ....X.R.........
0B50: 7F 73 30 32 37 01 67 0B  52 13 80 F8 FF FF 7F F8  .s027.g.R.......
0B60: FF FF 7F 73 30 31 34 02  09 10 12 80 00 83 0B 45  ...s014........E
0B70: 13 80 F8 FF FF 7F F8 FF  FF 7F 73 30 32 38 01 80  ..........s028..
0B80: 01 B0 0B 02 09 10 14 80  00 9F 0B 45 13 80 F8 FF  ...........E....
0B90: FF 7F F8 FF FF 7F 73 30  32 38 01 80 01 B0 0B 45  ......s028.....E
0BA0: 13 80 F8 FF FF 7F F8 FF  FF 7F 73 30 32 31 01 80  ..........s021..
0BB0: 2B 8C 20 03 01 34 80 23  2B 8C 20 03 01 35 80 23  +. ..4.#+. ..5.#
0BC0: 02 09 10 12 80 00 DA 0B  52 13 80 F8 FF FF 7F F8  ........R.......
0BD0: FF FF 7F 73 30 32 38 01  03 0C 02 09 10 14 80 00  ...s028.........
0BE0: F4 0B 52 13 80 F8 FF FF  7F F8 FF FF 7F 73 30 32  ..R..........s02
0BF0: 38 01 03 0C 52 13 80 F8  FF FF 7F F8 FF FF 7F 73  8...R..........s
0C00: 30 32 31 02 09 10 12 80  00 1F 0C 45 13 80 F8 FF  021........E....
0C10: FF 7F F8 FF FF 7F 73 30  32 39 01 80 01 4C 0C 02  ......s029...L..
0C20: 09 10 14 80 00 3B 0C 45  13 80 F8 FF FF 7F F8 FF  .....;.E........
0C30: FF 7F 73 30 32 39 01 80  01 4C 0C 45 13 80 F8 FF  ..s029...L.E....
0C40: FF 7F F8 FF FF 7F 73 30  31 35 01 80 29 10 8C 20  ......s015..).. 
0C50: 03 01 44 2B 8C 20 03 01  36 80 23 1C 06 80 2B 8C  ..D+. ..6.#...+.
0C60: 20 03 01 37 80 23 29 10  8C 20 03 01 45 02 09 10   ..7.#).. ..E...
0C70: 12 80 00 87 0C 52 13 80  F8 FF FF 7F F8 FF FF 7F  .....R..........
0C80: 73 30 32 39 01 B0 0C 02  09 10 14 80 00 A1 0C 52  s029...........R
0C90: 13 80 F8 FF FF 7F F8 FF  FF 7F 73 30 32 39 01 B0  ..........s029..
0CA0: 0C 52 13 80 F8 FF FF 7F  F8 FF FF 7F 73 30 31 35  .R..........s015
0CB0: 45 13 80 F8 FF FF 7F F8  FF FF 7F 73 30 31 32 01  E..........s012.
0CC0: 80 29 10 8C 20 03 01 46  2B 8C 20 03 01 38 80 23  .).. ..F+. ..8.#
0CD0: 29 10 8C 20 03 01 47 29  10 8C 20 03 01 48 2B 8C  ).. ..G).. ..H+.
0CE0: 20 03 01 39 80 23 52 13  80 F8 FF FF 7F F8 FF FF   ..9.#R.........
0CF0: 7F 73 30 31 32 45 13 80  F8 FF FF 7F F8 FF FF 7F  .s012E..........
0D00: 73 30 31 38 01 80 03 02  10 3A 80 2B 8C 20 03 01  s018.....:.+. ..
0D10: 3B 80 1C 3C 80 6E 8D 20  03 01 3D 80 99 8D 20 03  ;..<.n. ..=... .
0D20: 01 23 99 8D 20 03 01 29  10 8C 20 03 01 49 52 13  .#.. ..).. ..IR.
0D30: 80 F8 FF FF 7F F8 FF FF  7F 73 30 31 38 45 13 80  .........s018E..
0D40: F8 FF FF 7F F8 FF FF 7F  73 30 31 36 01 80 29 10  ........s016..).
0D50: 8C 20 03 01 40 45 13 80  F8 FF FF 7F F8 FF FF 7F  . ..@E..........
0D60: 38 31 36 30 01 80 1C 3C  80 2B 8C 20 03 01 3E 80  8160...<.+. ..>.
0D70: 23 52 13 80 F8 FF FF 7F  F8 FF FF 7F 73 30 31 36  #R..........s016
0D80: 45 13 80 F8 FF FF 7F F8  FF FF 7F 73 30 30 37 01  E..........s007.
0D90: 80 7B F0 FF FF 7F 6E F0  FF FF 7F 1F 80 99 F0 FF  .{....n.........
0DA0: FF 7F 1C 17 80 5D 01 80  08 80 27 10 F0 FF FF 7F  .....]....'.....
0DB0: 78 1C 06 80 52 13 80 F8  FF FF 7F F8 FF FF 7F 73  x...R..........s
0DC0: 30 30 37 45 13 80 F8 FF  FF 7F F8 FF FF 7F 73 30  007E..........s0
0DD0: 32 32 01 80 4A F0 FF FF  7F 8D 20 03 01 27 10 8D  22..J..... ..'..
0DE0: 20 03 01 18 1C 04 80 1A  64 00 1C 06 80 52 13 80   .......d....R..
0DF0: F8 FF FF 7F F8 FF FF 7F  73 30 32 32 2A 10 8D 20  ........s022*.. 
0E00: 03 01 2A 10 F0 FF FF 7F  6B 69 64 6C 30 8C 20 03  ..*.....kidl0. .
0E10: 01 1C 03 80 29 10 8C 20  03 01 25 5C 00 3F 80 5C  ....).. ..%\.?.\
0E20: 01 3F 80 9A 5D 11 80 03  80 AB 11 01 80 1C 03 80  .?..]...........
0E30: 46 00 45 00 80 F0 FF FF  7F F0 FF FF 7F 66 64 69  F.E..........fdi
0E40: 32 01 80 21 00                                    2..!.           
```

#### Opcodes

```
  0: 0x0292 [0x42] SET_CLI_EVENT_CANCEL_DATA()
  1: 0x0293 [0x03] ExtData[1]->WorkLocal[1] = Work_Zone[3]
  2: 0x0298 [0x5D] SET_MUSIC_VOLUME(volume=0*, fade_time=300*)
  3: 0x029D [0x1A] CALL_SUBROUTINE(address=0x0064)
  4: 0x02A0 [0x46] CAMERA_CONTROL: Disable user control
  5: 0x02A2 [0x38] SET_CLIENT_EVENT_MODE(mode=147*)
  6: 0x02A5 [0x02] IF !(Work_Zone[9] == 0*) GOTO 0x02B3
  7: 0x02AD [0x75] LOAD_ROOM(Load indoor room, room=563*)
  8: 0x02B1 [0x75] LOAD_ROOM(No action)
  9: 0x02B3 [0x79] LocalPlayer looks at LocalPlayer (Basic look)
 10: 0x02BD [0x92] Naja Salaheem (ID: 16982156/0x0103208C)->Render.Flags3 ^= 0x01
 11: 0x02C3 [0x92] Abquhbah (ID: 16982157/0x0103208D)->Render.Flags3 ^= 0x01
 12: 0x02C9 [0x94] LocalPlayer->Render.Flags3 ^= 0x01
 13: 0x02CF [0x94] Naja Salaheem (ID: 16982156/0x0103208C)->Render.Flags3 ^= 0x01
 14: 0x02D5 [0x94] Abquhbah (ID: 16982157/0x0103208D)->Render.Flags3 ^= 0x01
 15: 0x02DB [0x80] LOAD_WAIT(entity=LocalPlayer)
 16: 0x02E0 [0x80] LOAD_WAIT(entity=Naja Salaheem (ID: 16982156/0x0103208C))
 17: 0x02E5 [0x80] LOAD_WAIT(entity=Abquhbah (ID: 16982157/0x0103208D))
 18: 0x02EA [0xBA] SET_ENTITY_POSITION(entity_id=LocalPlayer, pos_x=26.941*, pos_z=-45.721*, pos_y=-7.804*, direction=179.9*)
 19: 0x02F7 [0x29] REQ_SET_WAIT(priority=0x10, entity_id=Naja Salaheem (ID: 16982156/0x0103208C), tag_num=0x24)
 20: 0x02FE [0x1C] WAIT(1* ticks)
 21: 0x0301 [0x81] SET_ENTITY_BLINKING(blink_flag=0x00, entity=Naja Salaheem (ID: 16982156/0x0103208C))
 22: 0x0307 [0x5B] LOAD_EXT_SCHEDULER: Load scheduler "dskl" with entities [Naja Salaheem (ID: 16982156/0x0103208C), Naja Salaheem (ID: 16982156/0x0103208C)], work=834*
 23: 0x0316 [0x53] WAIT_SCHEDULER_TASK: Wait for scheduler "dskl" with entities [Naja Salaheem (ID: 16982156/0x0103208C), Naja Salaheem (ID: 16982156/0x0103208C)]
 24: 0x0323 [0x29] REQ_SET_WAIT(priority=0x0F, entity_id=Naja Salaheem (ID: 16982156/0x0103208C), tag_num=0x5E)
 25: 0x032A [0x29] REQ_SET_WAIT(priority=0x0F, entity_id=Naja Salaheem (ID: 16982156/0x0103208C), tag_num=0x5F)
 26: 0x0331 [0x1C] WAIT(30* ticks)
 27: 0x0334 [0x29] REQ_SET_WAIT(priority=0x0F, entity_id=LocalPlayer, tag_num=0x79)
 28: 0x033B [0x5C] MUSIC_CONTROL: Set Idle (Day) music to song 163*
 29: 0x033F [0x5C] MUSIC_CONTROL: Set Idle (Night) music to song 163*
 30: 0x0343 [0x9A] WAIT_MUSIC_SERVER()
 31: 0x0344 [0x5D] SET_MUSIC_VOLUME(volume=127*, fade_time=1*)
 32: 0x0349 [0x27] REQ_SET(priority=0x10, entity_id=LocalPlayer, tag_num=0x41)
 33: 0x0350 [0x02] IF !(Work_Zone[9] == 5*) GOTO 0x036C
 34: 0x0358 [0x45] LOAD_SCHEDULED_TASK: Load scheduler "s023" with entities [EventEntity, EventEntity], work=[854*, 0*]
 35: 0x0369 [0x01] GOTO 0x0399
 36: 0x036C [0x02] IF !(Work_Zone[9] == 6*) GOTO 0x0388
 37: 0x0374 [0x45] LOAD_SCHEDULED_TASK: Load scheduler "s023" with entities [EventEntity, EventEntity], work=[854*, 0*]
 38: 0x0385 [0x01] GOTO 0x0399
 39: 0x0388 [0x45] LOAD_SCHEDULED_TASK: Load scheduler "s000" with entities [EventEntity, EventEntity], work=[854*, 0*]

SUBROUTINE_0399:
 40: 0x0399 [0x1A] CALL_SUBROUTINE(address=0x0043)
 41: 0x039C [0x2B] Naja Salaheem (ID: 16982156/0x0103208C) [15791*]:
     "Doo da doo da doot."
 42: 0x03A3 [0x23] WAIT_FOR_DIALOG_INTERACTION
 43: 0x03A4 [0x02] IF !(Work_Zone[9] == 5*) GOTO 0x03BE
 44: 0x03AC [0x52] END_LOAD_SCHEDULER: End scheduler "s023" with entities [EventEntity, EventEntity], work=854*
 45: 0x03BB [0x01] GOTO 0x03E7
 46: 0x03BE [0x02] IF !(Work_Zone[9] == 6*) GOTO 0x03D8
 47: 0x03C6 [0x52] END_LOAD_SCHEDULER: End scheduler "s023" with entities [EventEntity, EventEntity], work=854*
 48: 0x03D5 [0x01] GOTO 0x03E7
 49: 0x03D8 [0x52] END_LOAD_SCHEDULER: End scheduler "s000" with entities [EventEntity, EventEntity], work=854*

SUBROUTINE_03E7:
 50: 0x03E7 [0x45] LOAD_SCHEDULED_TASK: Load scheduler "s001" with entities [EventEntity, EventEntity], work=[854*, 0*]
 51: 0x03F8 [0x29] REQ_SET_WAIT(priority=0x10, entity_id=Naja Salaheem (ID: 16982156/0x0103208C), tag_num=0x5C)
 52: 0x03FF [0x03] Work_Zone[2] = ExtData[1]->WorkLocal[1]
 53: 0x0404 [0x2B] Naja Salaheem (ID: 16982156/0x0103208C) [15792*]:
     "Ah, I had a feelin' I'd be seein' ya arrround here, [/Private Second Class /Private First Class /Superior Private /Lance Corporal /Corporal /Sergeant /Sergeant Major /Chief Sergeant /Second Lieutenant /First Lieutenant /Captain ]<Player>."
 54: 0x040B [0x23] WAIT_FOR_DIALOG_INTERACTION
 55: 0x040C [0x29] REQ_SET_WAIT(priority=0x10, entity_id=Naja Salaheem (ID: 16982156/0x0103208C), tag_num=0x5D)
 56: 0x0413 [0x27] REQ_SET(priority=0x10, entity_id=Naja Salaheem (ID: 16982156/0x0103208C), tag_num=0x60)
 57: 0x041A [0x1C] WAIT(60* ticks)
 58: 0x041D [0x52] END_LOAD_SCHEDULER: End scheduler "s001" with entities [EventEntity, EventEntity], work=854*
 59: 0x042C [0x45] LOAD_SCHEDULED_TASK: Load scheduler "s008" with entities [EventEntity, EventEntity], work=[854*, 0*]
 60: 0x043D [0x2B] Naja Salaheem (ID: 16982156/0x0103208C) [15793*]:
     "The other day, the A.M.A.N.--or whatever that orrrganization's called--used Ajithaam to put me onto the scent of a possible score."
 61: 0x0444 [0x1C] WAIT(60* ticks)
 62: 0x0447 [0x4A] LocalPlayer looks at Naja Salaheem (ID: 16982156/0x0103208C)
 63: 0x0450 [0x6F] WAIT_FRAME_DELAY: Yield until WaitTime reaches zero
 64: 0x0451 [0x76] CHECK_ENTITY_RENDER_FLAGS: Wait until LocalPlayer Render.Flags0 and Render.Flags3 conditions are met
 65: 0x0456 [0x1C] WAIT(30* ticks)
 66: 0x0459 [0x4A] LocalPlayer looks at Naja Salaheem (ID: 16982156/0x0103208C)
 67: 0x0462 [0x52] END_LOAD_SCHEDULER: End scheduler "s008" with entities [EventEntity, EventEntity], work=854*
 68: 0x0471 [0x02] IF !(Work_Zone[9] == 5*) GOTO 0x048D
 69: 0x0479 [0x45] LOAD_SCHEDULED_TASK: Load scheduler "s024" with entities [EventEntity, EventEntity], work=[854*, 0*]
 70: 0x048A [0x01] GOTO 0x04BA
 71: 0x048D [0x02] IF !(Work_Zone[9] == 6*) GOTO 0x04A9
 72: 0x0495 [0x45] LOAD_SCHEDULED_TASK: Load scheduler "s024" with entities [EventEntity, EventEntity], work=[854*, 0*]
 73: 0x04A6 [0x01] GOTO 0x04BA
 74: 0x04A9 [0x45] LOAD_SCHEDULED_TASK: Load scheduler "s002" with entities [EventEntity, EventEntity], work=[854*, 0*]

SUBROUTINE_04BA:
 75: 0x04BA [0x23] WAIT_FOR_DIALOG_INTERACTION
 76: 0x04BB [0x2B] Naja Salaheem (ID: 16982156/0x0103208C) [15794*]:
     "Apparently, they rrrequire the assistance of Salaheem's Sentinels. Oh, have I ever mentioned to ya that the Empress herself is a big fan of my company?"
 77: 0x04C2 [0x23] WAIT_FOR_DIALOG_INTERACTION
 78: 0x04C3 [0x2A] GET_REQ_LEVEL(level=16, entity_id=Naja Salaheem (ID: 16982156/0x0103208C))
 79: 0x04C9 [0x6F] WAIT_FRAME_DELAY: Yield until WaitTime reaches zero
 80: 0x04CA [0x76] CHECK_ENTITY_RENDER_FLAGS: Wait until LocalPlayer Render.Flags0 and Render.Flags3 conditions are met
 81: 0x04CF [0x79] Naja Salaheem (ID: 16982156/0x0103208C) looks at LocalPlayer (Basic look)
 82: 0x04D9 [0x02] IF !(Work_Zone[9] == 5*) GOTO 0x04F3
 83: 0x04E1 [0x52] END_LOAD_SCHEDULER: End scheduler "s024" with entities [EventEntity, EventEntity], work=854*
 84: 0x04F0 [0x01] GOTO 0x051C
 85: 0x04F3 [0x02] IF !(Work_Zone[9] == 6*) GOTO 0x050D
 86: 0x04FB [0x52] END_LOAD_SCHEDULER: End scheduler "s024" with entities [EventEntity, EventEntity], work=854*
 87: 0x050A [0x01] GOTO 0x051C
 88: 0x050D [0x52] END_LOAD_SCHEDULER: End scheduler "s002" with entities [EventEntity, EventEntity], work=854*

SUBROUTINE_051C:
 89: 0x051C [0x45] LOAD_SCHEDULED_TASK: Load scheduler "s003" with entities [EventEntity, EventEntity], work=[854*, 0*]
 90: 0x052D [0x4A] LocalPlayer looks at Naja Salaheem (ID: 16982156/0x0103208C)
 91: 0x0536 [0x2B] Naja Salaheem (ID: 16982156/0x0103208C) [15795*]:
     "It's yet another sign that our company's rrreputation extends far and wide throughout the rrrealm."
 92: 0x053D [0x23] WAIT_FOR_DIALOG_INTERACTION
 93: 0x053E [0x2B] Naja Salaheem (ID: 16982156/0x0103208C) [15796*]:
     "When ya look at the people we hire, from an Elvaan decked out in golden arrrmor, to a Yagudo with questionable fashion sense, it's not hard to see why."
 94: 0x0545 [0x23] WAIT_FOR_DIALOG_INTERACTION
 95: 0x0546 [0x6F] WAIT_FRAME_DELAY: Yield until WaitTime reaches zero
 96: 0x0547 [0x76] CHECK_ENTITY_RENDER_FLAGS: Wait until LocalPlayer Render.Flags0 and Render.Flags3 conditions are met
 97: 0x054C [0x52] END_LOAD_SCHEDULER: End scheduler "s003" with entities [EventEntity, EventEntity], work=854*
 98: 0x055B [0x02] IF !(Work_Zone[9] == 5*) GOTO 0x0577
 99: 0x0563 [0x45] LOAD_SCHEDULED_TASK: Load scheduler "s025" with entities [EventEntity, EventEntity], work=[854*, 0*]
100: 0x0574 [0x01] GOTO 0x05A4
101: 0x0577 [0x02] IF !(Work_Zone[9] == 6*) GOTO 0x0593
102: 0x057F [0x45] LOAD_SCHEDULED_TASK: Load scheduler "s025" with entities [EventEntity, EventEntity], work=[854*, 0*]
103: 0x0590 [0x01] GOTO 0x05A4
104: 0x0593 [0x45] LOAD_SCHEDULED_TASK: Load scheduler "s004" with entities [EventEntity, EventEntity], work=[854*, 0*]

SUBROUTINE_05A4:
105: 0x05A4 [0x2B] Naja Salaheem (ID: 16982156/0x0103208C) [15797*]:
     "Naturrrally, that includes you as well. You're sprrreadin' the good word about our company when you're on your little adventures, rrright?"
106: 0x05AB [0x23] WAIT_FOR_DIALOG_INTERACTION
107: 0x05AC [0x03] Work_Zone[0] = 4294967295*

SUBROUTINE_05B1:
108: 0x05B1 [0x02] IF !(Work_Zone[0] == 0*) GOTO 0x08AC
109: 0x05B9 [0x24] CREATE_DIALOG(message_id=15798*, default_option=0*, option_flags=0*)
     "Are you promoting the company? [Most definitely./Maybe?/Not really.]"
110: 0x05C0 [0x25] WAIT_DIALOG_SELECT()
111: 0x05C1 [0x02] IF !(Work_Zone[0] == 0*) GOTO 0x0649
112: 0x05C9 [0x6E] LocalPlayer uses emote 7*
113: 0x05D0 [0x99] Wait for LocalPlayer animation to complete
114: 0x05D5 [0x1C] WAIT(60* ticks)
115: 0x05D8 [0x5D] SET_MUSIC_VOLUME(volume=127*, fade_time=200*)
116: 0x05DD [0x27] REQ_SET(priority=0x10, entity_id=Naja Salaheem (ID: 16982156/0x0103208C), tag_num=0x64)
117: 0x05E4 [0x02] IF !(Work_Zone[9] == 5*) GOTO 0x05FE
118: 0x05EC [0x52] END_LOAD_SCHEDULER: End scheduler "s025" with entities [EventEntity, EventEntity], work=854*
119: 0x05FB [0x01] GOTO 0x0627
120: 0x05FE [0x02] IF !(Work_Zone[9] == 6*) GOTO 0x0618
121: 0x0606 [0x52] END_LOAD_SCHEDULER: End scheduler "s025" with entities [EventEntity, EventEntity], work=854*
122: 0x0615 [0x01] GOTO 0x0627
123: 0x0618 [0x52] END_LOAD_SCHEDULER: End scheduler "s004" with entities [EventEntity, EventEntity], work=854*

SUBROUTINE_0627:
124: 0x0627 [0x45] LOAD_SCHEDULED_TASK: Load scheduler "s005" with entities [EventEntity, EventEntity], work=[854*, 0*]
125: 0x0638 [0x2B] Naja Salaheem (ID: 16982156/0x0103208C) [15799*]:
     "Yes, of course ya are. My new goal is to start expandin' our company's rrreach throughout the Middle Lands too."
126: 0x063F [0x23] WAIT_FOR_DIALOG_INTERACTION
127: 0x0640 [0x2A] GET_REQ_LEVEL(level=16, entity_id=Naja Salaheem (ID: 16982156/0x0103208C))
128: 0x0646 [0x01] GOTO 0x08A9
129: 0x0649 [0x02] IF !(Work_Zone[0] == 1*) GOTO 0x07AD
130: 0x0651 [0x79] Naja Salaheem (ID: 16982156/0x0103208C) looks at LocalPlayer (Basic look)
131: 0x065B [0x6E] LocalPlayer uses emote 22*
132: 0x0662 [0x99] Wait for LocalPlayer animation to complete
133: 0x0667 [0x1C] WAIT(30* ticks)
134: 0x066A [0x4A] Naja Salaheem (ID: 16982156/0x0103208C) looks at LocalPlayer
135: 0x0673 [0x6F] WAIT_FRAME_DELAY: Yield until WaitTime reaches zero
136: 0x0674 [0x76] CHECK_ENTITY_RENDER_FLAGS: Wait until Naja Salaheem (ID: 16982156/0x0103208C) Render.Flags0 and Render.Flags3 conditions are met
137: 0x0679 [0x5D] SET_MUSIC_VOLUME(volume=0*, fade_time=1*)
138: 0x067E [0x29] REQ_SET_WAIT(priority=0x10, entity_id=Naja Salaheem (ID: 16982156/0x0103208C), tag_num=0x2E)
139: 0x0685 [0x1C] WAIT(60* ticks)
140: 0x0688 [0x02] IF !(Work_Zone[9] == 5*) GOTO 0x06A2
141: 0x0690 [0x52] END_LOAD_SCHEDULER: End scheduler "s025" with entities [EventEntity, EventEntity], work=854*
142: 0x069F [0x01] GOTO 0x06CB
143: 0x06A2 [0x02] IF !(Work_Zone[9] == 6*) GOTO 0x06BC
144: 0x06AA [0x52] END_LOAD_SCHEDULER: End scheduler "s025" with entities [EventEntity, EventEntity], work=854*
145: 0x06B9 [0x01] GOTO 0x06CB
146: 0x06BC [0x52] END_LOAD_SCHEDULER: End scheduler "s004" with entities [EventEntity, EventEntity], work=854*

SUBROUTINE_06CB:
147: 0x06CB [0x45] LOAD_SCHEDULED_TASK: Load scheduler "s010" with entities [EventEntity, EventEntity], work=[854*, 0*]
148: 0x06DC [0x2B] Naja Salaheem (ID: 16982156/0x0103208C) [15800*]:
     "Hey, don't ya be playin' dumb on me now."
149: 0x06E3 [0x23] WAIT_FOR_DIALOG_INTERACTION
150: 0x06E4 [0x5D] SET_MUSIC_VOLUME(volume=127*, fade_time=200*)
151: 0x06E9 [0x2B] Naja Salaheem (ID: 16982156/0x0103208C) [15801*]:
     "I could've sworn I gave you rrrather specific orders to do so the last time we spoke."
152: 0x06F0 [0x29] REQ_SET_WAIT(priority=0x10, entity_id=Naja Salaheem (ID: 16982156/0x0103208C), tag_num=0x2F)
153: 0x06F7 [0x52] END_LOAD_SCHEDULER: End scheduler "s010" with entities [EventEntity, EventEntity], work=854*
154: 0x0706 [0x45] LOAD_SCHEDULED_TASK: Load scheduler "s003" with entities [EventEntity, EventEntity], work=[854*, 0*]
155: 0x0717 [0x23] WAIT_FOR_DIALOG_INTERACTION
156: 0x0718 [0x29] REQ_SET_WAIT(priority=0x10, entity_id=Naja Salaheem (ID: 16982156/0x0103208C), tag_num=0x30)
157: 0x071F [0x2B] Naja Salaheem (ID: 16982156/0x0103208C) [15802*]:
     "Hm... Or maybe I'm thinkin' of another one of my adorable employees..."
158: 0x0726 [0x23] WAIT_FOR_DIALOG_INTERACTION
159: 0x0727 [0x29] REQ_SET_WAIT(priority=0x10, entity_id=Naja Salaheem (ID: 16982156/0x0103208C), tag_num=0x31)
160: 0x072E [0x52] END_LOAD_SCHEDULER: End scheduler "s003" with entities [EventEntity, EventEntity], work=854*
161: 0x073D [0x02] IF !(Work_Zone[9] == 5*) GOTO 0x0759
162: 0x0745 [0x45] LOAD_SCHEDULED_TASK: Load scheduler "s025" with entities [EventEntity, EventEntity], work=[854*, 0*]
163: 0x0756 [0x01] GOTO 0x0786
164: 0x0759 [0x02] IF !(Work_Zone[9] == 6*) GOTO 0x0775
165: 0x0761 [0x45] LOAD_SCHEDULED_TASK: Load scheduler "s025" with entities [EventEntity, EventEntity], work=[854*, 0*]
166: 0x0772 [0x01] GOTO 0x0786
167: 0x0775 [0x45] LOAD_SCHEDULED_TASK: Load scheduler "s004" with entities [EventEntity, EventEntity], work=[854*, 0*]

SUBROUTINE_0786:
168: 0x0786 [0x29] REQ_SET_WAIT(priority=0x10, entity_id=Naja Salaheem (ID: 16982156/0x0103208C), tag_num=0x44)
169: 0x078D [0x2B] Naja Salaheem (ID: 16982156/0x0103208C) [15803*]:
     "At any rate, as one of my employees, ya rrreally need to work on your communication skills!"
170: 0x0794 [0x23] WAIT_FOR_DIALOG_INTERACTION
171: 0x0795 [0x29] REQ_SET_WAIT(priority=0x10, entity_id=Naja Salaheem (ID: 16982156/0x0103208C), tag_num=0x45)
172: 0x079C [0x29] REQ_SET_WAIT(priority=0x10, entity_id=Naja Salaheem (ID: 16982156/0x0103208C), tag_num=0x46)
173: 0x07A3 [0x29] REQ_SET_WAIT(priority=0x10, entity_id=Naja Salaheem (ID: 16982156/0x0103208C), tag_num=0x47)
174: 0x07AA [0x01] GOTO 0x08A9
175: 0x07AD [0x02] IF !(Work_Zone[0] == 2*) GOTO 0x08A9
176: 0x07B5 [0x6E] LocalPlayer uses emote 6*
177: 0x07BC [0x99] Wait for LocalPlayer animation to complete
178: 0x07C1 [0x1C] WAIT(30* ticks)
179: 0x07C4 [0x7B] Naja Salaheem (ID: 16982156/0x0103208C) stops talking
180: 0x07C9 [0x29] REQ_SET_WAIT(priority=0x10, entity_id=Naja Salaheem (ID: 16982156/0x0103208C), tag_num=0x2A)
181: 0x07D0 [0x1C] WAIT(30* ticks)
182: 0x07D3 [0x02] IF !(Work_Zone[9] == 5*) GOTO 0x07ED
183: 0x07DB [0x52] END_LOAD_SCHEDULER: End scheduler "s025" with entities [EventEntity, EventEntity], work=854*
184: 0x07EA [0x01] GOTO 0x0816
185: 0x07ED [0x02] IF !(Work_Zone[9] == 6*) GOTO 0x0807
186: 0x07F5 [0x52] END_LOAD_SCHEDULER: End scheduler "s025" with entities [EventEntity, EventEntity], work=854*
187: 0x0804 [0x01] GOTO 0x0816
188: 0x0807 [0x52] END_LOAD_SCHEDULER: End scheduler "s004" with entities [EventEntity, EventEntity], work=854*

SUBROUTINE_0816:
189: 0x0816 [0x45] LOAD_SCHEDULED_TASK: Load scheduler "s009" with entities [EventEntity, EventEntity], work=[854*, 0*]
190: 0x0827 [0x5D] SET_MUSIC_VOLUME(volume=0*, fade_time=1*)
191: 0x082C [0x2B] Naja Salaheem (ID: 16982156/0x0103208C) [15804*]:
     "That's strrrange. I don't think I heard ya prrroperly. Try sayin' that again."
192: 0x0833 [0x23] WAIT_FOR_DIALOG_INTERACTION
193: 0x0834 [0x29] REQ_SET_WAIT(priority=0x10, entity_id=Naja Salaheem (ID: 16982156/0x0103208C), tag_num=0x2B)
194: 0x083B [0x29] REQ_SET_WAIT(priority=0x10, entity_id=Naja Salaheem (ID: 16982156/0x0103208C), tag_num=0x2C)
195: 0x0842 [0x52] END_LOAD_SCHEDULER: End scheduler "s009" with entities [EventEntity, EventEntity], work=854*
196: 0x0851 [0x02] IF !(Work_Zone[9] == 5*) GOTO 0x086D
197: 0x0859 [0x45] LOAD_SCHEDULED_TASK: Load scheduler "s025" with entities [EventEntity, EventEntity], work=[854*, 0*]
198: 0x086A [0x01] GOTO 0x089A
199: 0x086D [0x02] IF !(Work_Zone[9] == 6*) GOTO 0x0889
200: 0x0875 [0x45] LOAD_SCHEDULED_TASK: Load scheduler "s025" with entities [EventEntity, EventEntity], work=[854*, 0*]
201: 0x0886 [0x01] GOTO 0x089A
202: 0x0889 [0x45] LOAD_SCHEDULED_TASK: Load scheduler "s004" with entities [EventEntity, EventEntity], work=[854*, 0*]

SUBROUTINE_089A:
203: 0x089A [0x5D] SET_MUSIC_VOLUME(volume=127*, fade_time=200*)
204: 0x089F [0x29] REQ_SET_WAIT(priority=0x10, entity_id=Naja Salaheem (ID: 16982156/0x0103208C), tag_num=0x2D)
205: 0x08A6 [0x01] GOTO 0x08A9

SUBROUTINE_08A9:
206: 0x08A9 [0x01] GOTO 0x05B1
207: 0x08AC [0x7B] Naja Salaheem (ID: 16982156/0x0103208C) stops talking
208: 0x08B1 [0x4B] UPDATE_ENTITY_YAW(entity=Naja Salaheem (ID: 16982156/0x0103208C), yaw=2.7*)
209: 0x08B8 [0x6F] WAIT_FRAME_DELAY: Yield until WaitTime reaches zero
210: 0x08B9 [0x76] CHECK_ENTITY_RENDER_FLAGS: Wait until Naja Salaheem (ID: 16982156/0x0103208C) Render.Flags0 and Render.Flags3 conditions are met
211: 0x08BE [0x52] END_LOAD_SCHEDULER: End scheduler "s005" with entities [EventEntity, EventEntity], work=854*
212: 0x08CD [0x45] LOAD_SCHEDULED_TASK: Load scheduler "s006" with entities [EventEntity, EventEntity], work=[854*, 0*]
213: 0x08DE [0x29] REQ_SET_WAIT(priority=0x10, entity_id=Naja Salaheem (ID: 16982156/0x0103208C), tag_num=0x2E)
214: 0x08E5 [0x1C] WAIT(45* ticks)
215: 0x08E8 [0x2B] Naja Salaheem (ID: 16982156/0x0103208C) [15805*]:
     "Abquhbah!!!"
216: 0x08EF [0x23] WAIT_FOR_DIALOG_INTERACTION
217: 0x08F0 [0x1C] WAIT(45* ticks)
218: 0x08F3 [0x52] END_LOAD_SCHEDULER: End scheduler "s006" with entities [EventEntity, EventEntity], work=854*
219: 0x0902 [0x02] IF !(Work_Zone[9] == 5*) GOTO 0x091E
220: 0x090A [0x45] LOAD_SCHEDULED_TASK: Load scheduler "s026" with entities [EventEntity, EventEntity], work=[854*, 0*]
221: 0x091B [0x01] GOTO 0x094B
222: 0x091E [0x02] IF !(Work_Zone[9] == 6*) GOTO 0x093A
223: 0x0926 [0x45] LOAD_SCHEDULED_TASK: Load scheduler "s026" with entities [EventEntity, EventEntity], work=[854*, 0*]
224: 0x0937 [0x01] GOTO 0x094B
225: 0x093A [0x45] LOAD_SCHEDULED_TASK: Load scheduler "s017" with entities [EventEntity, EventEntity], work=[854*, 0*]

SUBROUTINE_094B:
226: 0x094B [0x27] REQ_SET(priority=0x10, entity_id=Abquhbah (ID: 16982157/0x0103208D), tag_num=0x17)
227: 0x0952 [0x79] LocalPlayer looks at Abquhbah (ID: 16982157/0x0103208D) (Basic look)
228: 0x095C [0x4B] UPDATE_ENTITY_YAW(entity=LocalPlayer, yaw=0.0*)
229: 0x0963 [0x6F] WAIT_FRAME_DELAY: Yield until WaitTime reaches zero
230: 0x0964 [0x76] CHECK_ENTITY_RENDER_FLAGS: Wait until LocalPlayer Render.Flags0 and Render.Flags3 conditions are met
231: 0x0969 [0x6B] STOP_AND_IDLE: Naja Salaheem (ID: 16982156/0x0103208C) stops current action and resets to idle (animation="idl0")
232: 0x0972 [0x1C] WAIT(60* ticks)
233: 0x0975 [0x02] IF !(Work_Zone[9] == 5*) GOTO 0x098F
234: 0x097D [0x52] END_LOAD_SCHEDULER: End scheduler "s026" with entities [EventEntity, EventEntity], work=854*
235: 0x098C [0x01] GOTO 0x09B8
236: 0x098F [0x02] IF !(Work_Zone[9] == 6*) GOTO 0x09A9
237: 0x0997 [0x52] END_LOAD_SCHEDULER: End scheduler "s026" with entities [EventEntity, EventEntity], work=854*
238: 0x09A6 [0x01] GOTO 0x09B8
239: 0x09A9 [0x52] END_LOAD_SCHEDULER: End scheduler "s017" with entities [EventEntity, EventEntity], work=854*

SUBROUTINE_09B8:
240: 0x09B8 [0x45] LOAD_SCHEDULED_TASK: Load scheduler "s011" with entities [EventEntity, EventEntity], work=[854*, 0*]
241: 0x09C9 [0x2B] Abquhbah (ID: 16982157/0x0103208D) [15806*]:
     "Y-yes, maaa'aaam!!!"
242: 0x09D0 [0x1C] WAIT(30* ticks)
243: 0x09D3 [0x2A] GET_REQ_LEVEL(level=16, entity_id=Abquhbah (ID: 16982157/0x0103208D))
244: 0x09D9 [0x4A] Naja Salaheem (ID: 16982156/0x0103208C) looks at Abquhbah (ID: 16982157/0x0103208D)
245: 0x09E2 [0x4B] UPDATE_ENTITY_YAW(entity=LocalPlayer, yaw=5.6*)
246: 0x09E9 [0x1C] WAIT(30* ticks)
247: 0x09EC [0x6F] WAIT_FRAME_DELAY: Yield until WaitTime reaches zero
248: 0x09ED [0x76] CHECK_ENTITY_RENDER_FLAGS: Wait until LocalPlayer Render.Flags0 and Render.Flags3 conditions are met
249: 0x09F2 [0x6F] WAIT_FRAME_DELAY: Yield until WaitTime reaches zero
250: 0x09F3 [0x76] CHECK_ENTITY_RENDER_FLAGS: Wait until Naja Salaheem (ID: 16982156/0x0103208C) Render.Flags0 and Render.Flags3 conditions are met
251: 0x09F8 [0x23] WAIT_FOR_DIALOG_INTERACTION
252: 0x09F9 [0x52] END_LOAD_SCHEDULER: End scheduler "s011" with entities [EventEntity, EventEntity], work=854*
253: 0x0A08 [0x45] LOAD_SCHEDULED_TASK: Load scheduler "s019" with entities [EventEntity, EventEntity], work=[854*, 0*]
254: 0x0A19 [0x29] REQ_SET_WAIT(priority=0x10, entity_id=Naja Salaheem (ID: 16982156/0x0103208C), tag_num=0x44)
255: 0x0A20 [0x03] Work_Zone[2] = ExtData[1]->WorkLocal[1]
256: 0x0A25 [0x2B] Naja Salaheem (ID: 16982156/0x0103208C) [15807*]:
     "How goes [/Private Second Class /Private First Class /Superior Private /Lance Corporal /Corporal /Sergeant /Sergeant Major /Chief Sergeant /Second Lieutenant /First Lieutenant /Captain ]<Player>'s rrrepayment plan!?"
257: 0x0A2C [0x23] WAIT_FOR_DIALOG_INTERACTION
258: 0x0A2D [0x29] REQ_SET_WAIT(priority=0x10, entity_id=Naja Salaheem (ID: 16982156/0x0103208C), tag_num=0x45)
259: 0x0A34 [0x52] END_LOAD_SCHEDULER: End scheduler "s019" with entities [EventEntity, EventEntity], work=854*
260: 0x0A43 [0x45] LOAD_SCHEDULED_TASK: Load scheduler "s013" with entities [EventEntity, EventEntity], work=[854*, 0*]
261: 0x0A54 [0x45] LOAD_SCHEDULED_TASK: Load scheduler "8160" with entities [EventEntity, EventEntity], work=[854*, 0*]
262: 0x0A65 [0x29] REQ_SET_WAIT(priority=0x10, entity_id=Naja Salaheem (ID: 16982156/0x0103208C), tag_num=0x46)
263: 0x0A6C [0x03] Work_Zone[2] = ExtData[1]->WorkLocal[1]
264: 0x0A71 [0x2B] Abquhbah (ID: 16982157/0x0103208D) [15808*]:
     "Well, subtracting the amount repaid so far from the figure invoiced to [/Private Second Class /Private First Class /Superior Private /Lance Corporal /Corporal /Sergeant /Sergeant Major /Chief Sergeant /Second Lieutenant /First Lieutenant /Captain ]<Player>..."
265: 0x0A78 [0x23] WAIT_FOR_DIALOG_INTERACTION
266: 0x0A79 [0x29] REQ_SET_WAIT(priority=0x10, entity_id=Naja Salaheem (ID: 16982156/0x0103208C), tag_num=0x47)
267: 0x0A80 [0xBA] SET_ENTITY_POSITION(entity_id=Naja Salaheem (ID: 16982156/0x0103208C), pos_x=22.443*, pos_z=-43.598*, pos_y=-7.804*, direction=51.7*)
268: 0x0A8D [0x2B] Abquhbah (ID: 16982157/0x0103208D) [15809*]:
     "Oh my! I don't think I'm at liberty to say!"
269: 0x0A94 [0x23] WAIT_FOR_DIALOG_INTERACTION
270: 0x0A95 [0x7B] Naja Salaheem (ID: 16982156/0x0103208C) stops talking
271: 0x0A9A [0x27] REQ_SET(priority=0x10, entity_id=Naja Salaheem (ID: 16982156/0x0103208C), tag_num=0x61)
272: 0x0AA1 [0x1C] WAIT(6* ticks)
273: 0x0AA4 [0x52] END_LOAD_SCHEDULER: End scheduler "s013" with entities [EventEntity, EventEntity], work=854*
274: 0x0AB3 [0x02] IF !(Work_Zone[9] == 5*) GOTO 0x0ACF
275: 0x0ABB [0x45] LOAD_SCHEDULED_TASK: Load scheduler "s027" with entities [EventEntity, EventEntity], work=[854*, 0*]
276: 0x0ACC [0x01] GOTO 0x0AFC
277: 0x0ACF [0x02] IF !(Work_Zone[9] == 6*) GOTO 0x0AEB
278: 0x0AD7 [0x45] LOAD_SCHEDULED_TASK: Load scheduler "s027" with entities [EventEntity, EventEntity], work=[854*, 0*]
279: 0x0AE8 [0x01] GOTO 0x0AFC
280: 0x0AEB [0x45] LOAD_SCHEDULED_TASK: Load scheduler "s014" with entities [EventEntity, EventEntity], work=[854*, 0*]

SUBROUTINE_0AFC:
281: 0x0AFC [0x2B] Naja Salaheem (ID: 16982156/0x0103208C) [15810*]:
     "Hah... I figurrred as much."
282: 0x0B03 [0x1C] WAIT(10* ticks)
283: 0x0B06 [0x79] LocalPlayer looks at Naja Salaheem (ID: 16982156/0x0103208C) (Basic look)
284: 0x0B10 [0x4B] UPDATE_ENTITY_YAW(entity=LocalPlayer, yaw=11.1*)
285: 0x0B17 [0x6F] WAIT_FRAME_DELAY: Yield until WaitTime reaches zero
286: 0x0B18 [0x76] CHECK_ENTITY_RENDER_FLAGS: Wait until LocalPlayer Render.Flags0 and Render.Flags3 conditions are met
287: 0x0B1D [0x23] WAIT_FOR_DIALOG_INTERACTION
288: 0x0B1E [0x2A] GET_REQ_LEVEL(level=16, entity_id=Naja Salaheem (ID: 16982156/0x0103208C))
289: 0x0B24 [0x02] IF !(Work_Zone[9] == 5*) GOTO 0x0B3E
290: 0x0B2C [0x52] END_LOAD_SCHEDULER: End scheduler "s027" with entities [EventEntity, EventEntity], work=854*
291: 0x0B3B [0x01] GOTO 0x0B67
292: 0x0B3E [0x02] IF !(Work_Zone[9] == 6*) GOTO 0x0B58
293: 0x0B46 [0x52] END_LOAD_SCHEDULER: End scheduler "s027" with entities [EventEntity, EventEntity], work=854*
294: 0x0B55 [0x01] GOTO 0x0B67
295: 0x0B58 [0x52] END_LOAD_SCHEDULER: End scheduler "s014" with entities [EventEntity, EventEntity], work=854*

SUBROUTINE_0B67:
296: 0x0B67 [0x02] IF !(Work_Zone[9] == 5*) GOTO 0x0B83
297: 0x0B6F [0x45] LOAD_SCHEDULED_TASK: Load scheduler "s028" with entities [EventEntity, EventEntity], work=[854*, 0*]
298: 0x0B80 [0x01] GOTO 0x0BB0
299: 0x0B83 [0x02] IF !(Work_Zone[9] == 6*) GOTO 0x0B9F
300: 0x0B8B [0x45] LOAD_SCHEDULED_TASK: Load scheduler "s028" with entities [EventEntity, EventEntity], work=[854*, 0*]
301: 0x0B9C [0x01] GOTO 0x0BB0
302: 0x0B9F [0x45] LOAD_SCHEDULED_TASK: Load scheduler "s021" with entities [EventEntity, EventEntity], work=[854*, 0*]

SUBROUTINE_0BB0:
303: 0x0BB0 [0x2B] Naja Salaheem (ID: 16982156/0x0103208C) [15811*]:
     "The debt ya owe me is capable of fillin' the pits of Mount Zhayolm itself!"
304: 0x0BB7 [0x23] WAIT_FOR_DIALOG_INTERACTION
305: 0x0BB8 [0x2B] Naja Salaheem (ID: 16982156/0x0103208C) [15812*]:
     "So that's why you're gonna take on this little rrrequest from the A.M.A.N. for me!"
306: 0x0BBF [0x23] WAIT_FOR_DIALOG_INTERACTION
307: 0x0BC0 [0x02] IF !(Work_Zone[9] == 5*) GOTO 0x0BDA
308: 0x0BC8 [0x52] END_LOAD_SCHEDULER: End scheduler "s028" with entities [EventEntity, EventEntity], work=854*
309: 0x0BD7 [0x01] GOTO 0x0C03
310: 0x0BDA [0x02] IF !(Work_Zone[9] == 6*) GOTO 0x0BF4
311: 0x0BE2 [0x52] END_LOAD_SCHEDULER: End scheduler "s028" with entities [EventEntity, EventEntity], work=854*
312: 0x0BF1 [0x01] GOTO 0x0C03
313: 0x0BF4 [0x52] END_LOAD_SCHEDULER: End scheduler "s021" with entities [EventEntity, EventEntity], work=854*

SUBROUTINE_0C03:
314: 0x0C03 [0x02] IF !(Work_Zone[9] == 5*) GOTO 0x0C1F
315: 0x0C0B [0x45] LOAD_SCHEDULED_TASK: Load scheduler "s029" with entities [EventEntity, EventEntity], work=[854*, 0*]
316: 0x0C1C [0x01] GOTO 0x0C4C
317: 0x0C1F [0x02] IF !(Work_Zone[9] == 6*) GOTO 0x0C3B
318: 0x0C27 [0x45] LOAD_SCHEDULED_TASK: Load scheduler "s029" with entities [EventEntity, EventEntity], work=[854*, 0*]
319: 0x0C38 [0x01] GOTO 0x0C4C
320: 0x0C3B [0x45] LOAD_SCHEDULED_TASK: Load scheduler "s015" with entities [EventEntity, EventEntity], work=[854*, 0*]

SUBROUTINE_0C4C:
321: 0x0C4C [0x29] REQ_SET_WAIT(priority=0x10, entity_id=Naja Salaheem (ID: 16982156/0x0103208C), tag_num=0x44)
322: 0x0C53 [0x2B] Naja Salaheem (ID: 16982156/0x0103208C) [15813*]:
     "Now, let's get down to business... We need ya to go investigate a rrrather unusual monster that's appearrred near the stone tablet in the Wajaom Woodlands."
323: 0x0C5A [0x23] WAIT_FOR_DIALOG_INTERACTION
324: 0x0C5B [0x1C] WAIT(30* ticks)
325: 0x0C5E [0x2B] Naja Salaheem (ID: 16982156/0x0103208C) [15814*]:
     "What makes it so unusual is that it's got eyeball-shaped marks somewhere on its body."
326: 0x0C65 [0x23] WAIT_FOR_DIALOG_INTERACTION
327: 0x0C66 [0x29] REQ_SET_WAIT(priority=0x10, entity_id=Naja Salaheem (ID: 16982156/0x0103208C), tag_num=0x45)
328: 0x0C6D [0x02] IF !(Work_Zone[9] == 5*) GOTO 0x0C87
329: 0x0C75 [0x52] END_LOAD_SCHEDULER: End scheduler "s029" with entities [EventEntity, EventEntity], work=854*
330: 0x0C84 [0x01] GOTO 0x0CB0
331: 0x0C87 [0x02] IF !(Work_Zone[9] == 6*) GOTO 0x0CA1
332: 0x0C8F [0x52] END_LOAD_SCHEDULER: End scheduler "s029" with entities [EventEntity, EventEntity], work=854*
333: 0x0C9E [0x01] GOTO 0x0CB0
334: 0x0CA1 [0x52] END_LOAD_SCHEDULER: End scheduler "s015" with entities [EventEntity, EventEntity], work=854*

SUBROUTINE_0CB0:
335: 0x0CB0 [0x45] LOAD_SCHEDULED_TASK: Load scheduler "s012" with entities [EventEntity, EventEntity], work=[854*, 0*]
336: 0x0CC1 [0x29] REQ_SET_WAIT(priority=0x10, entity_id=Naja Salaheem (ID: 16982156/0x0103208C), tag_num=0x46)
337: 0x0CC8 [0x2B] Naja Salaheem (ID: 16982156/0x0103208C) [15815*]:
     "Furrrthermore, it appears out of nowhere, attackin' man and monster alike, and then vanishes without a trace."
338: 0x0CCF [0x23] WAIT_FOR_DIALOG_INTERACTION
339: 0x0CD0 [0x29] REQ_SET_WAIT(priority=0x10, entity_id=Naja Salaheem (ID: 16982156/0x0103208C), tag_num=0x47)
340: 0x0CD7 [0x29] REQ_SET_WAIT(priority=0x10, entity_id=Naja Salaheem (ID: 16982156/0x0103208C), tag_num=0x48)
341: 0x0CDE [0x2B] Naja Salaheem (ID: 16982156/0x0103208C) [15816*]:
     "So if ya can obtain some of its hair, nails, or whatever other body parrrt before it disappears, they're willin' to pay good money for them."
342: 0x0CE5 [0x23] WAIT_FOR_DIALOG_INTERACTION
343: 0x0CE6 [0x52] END_LOAD_SCHEDULER: End scheduler "s012" with entities [EventEntity, EventEntity], work=854*
344: 0x0CF5 [0x45] LOAD_SCHEDULED_TASK: Load scheduler "s018" with entities [EventEntity, EventEntity], work=[854*, 0*]
345: 0x0D06 [0x03] Work_Zone[2] = 2187*
346: 0x0D0B [0x2B] Naja Salaheem (ID: 16982156/0x0103208C) [15817*]:
     "Get this... They'll pay us 100 $0 per body parrrt!"
347: 0x0D12 [0x1C] WAIT(20* ticks)
348: 0x0D15 [0x6E] Abquhbah (ID: 16982157/0x0103208D) uses emote 11*
349: 0x0D1C [0x99] Wait for Abquhbah (ID: 16982157/0x0103208D) animation to complete
350: 0x0D21 [0x23] WAIT_FOR_DIALOG_INTERACTION
351: 0x0D22 [0x99] Wait for Abquhbah (ID: 16982157/0x0103208D) animation to complete
352: 0x0D27 [0x29] REQ_SET_WAIT(priority=0x10, entity_id=Naja Salaheem (ID: 16982156/0x0103208C), tag_num=0x49)
353: 0x0D2E [0x52] END_LOAD_SCHEDULER: End scheduler "s018" with entities [EventEntity, EventEntity], work=854*
354: 0x0D3D [0x45] LOAD_SCHEDULED_TASK: Load scheduler "s016" with entities [EventEntity, EventEntity], work=[854*, 0*]
355: 0x0D4E [0x29] REQ_SET_WAIT(priority=0x10, entity_id=Naja Salaheem (ID: 16982156/0x0103208C), tag_num=0x40)
356: 0x0D55 [0x45] LOAD_SCHEDULED_TASK: Load scheduler "8160" with entities [EventEntity, EventEntity], work=[854*, 0*]
357: 0x0D66 [0x1C] WAIT(20* ticks)
358: 0x0D69 [0x2B] Naja Salaheem (ID: 16982156/0x0103208C) [15818*]:
     "We're gonna be rrrakin' it in! What are ya waitin' for? Get out there already!"
359: 0x0D70 [0x23] WAIT_FOR_DIALOG_INTERACTION
360: 0x0D71 [0x52] END_LOAD_SCHEDULER: End scheduler "s016" with entities [EventEntity, EventEntity], work=854*
361: 0x0D80 [0x45] LOAD_SCHEDULED_TASK: Load scheduler "s007" with entities [EventEntity, EventEntity], work=[854*, 0*]
362: 0x0D91 [0x7B] LocalPlayer stops talking
363: 0x0D96 [0x6E] LocalPlayer uses emote 7*
364: 0x0D9D [0x99] Wait for LocalPlayer animation to complete
365: 0x0DA2 [0x1C] WAIT(60* ticks)
366: 0x0DA5 [0x5D] SET_MUSIC_VOLUME(volume=0*, fade_time=300*)
367: 0x0DAA [0x27] REQ_SET(priority=0x10, entity_id=LocalPlayer, tag_num=0x78)
368: 0x0DB1 [0x1C] WAIT(30* ticks)
369: 0x0DB4 [0x52] END_LOAD_SCHEDULER: End scheduler "s007" with entities [EventEntity, EventEntity], work=854*
370: 0x0DC3 [0x45] LOAD_SCHEDULED_TASK: Load scheduler "s022" with entities [EventEntity, EventEntity], work=[854*, 0*]
371: 0x0DD4 [0x4A] LocalPlayer looks at Abquhbah (ID: 16982157/0x0103208D)
372: 0x0DDD [0x27] REQ_SET(priority=0x10, entity_id=Abquhbah (ID: 16982157/0x0103208D), tag_num=0x18)
373: 0x0DE4 [0x1C] WAIT(45* ticks)
374: 0x0DE7 [0x1A] CALL_SUBROUTINE(address=0x0064)
375: 0x0DEA [0x1C] WAIT(30* ticks)
376: 0x0DED [0x52] END_LOAD_SCHEDULER: End scheduler "s022" with entities [EventEntity, EventEntity], work=854*
377: 0x0DFC [0x2A] GET_REQ_LEVEL(level=16, entity_id=Abquhbah (ID: 16982157/0x0103208D))
378: 0x0E02 [0x2A] GET_REQ_LEVEL(level=16, entity_id=LocalPlayer)
379: 0x0E08 [0x6B] STOP_AND_IDLE: Naja Salaheem (ID: 16982156/0x0103208C) stops current action and resets to idle (animation="idl0")
380: 0x0E11 [0x1C] WAIT(1* ticks)
381: 0x0E14 [0x29] REQ_SET_WAIT(priority=0x10, entity_id=Naja Salaheem (ID: 16982156/0x0103208C), tag_num=0x25)
382: 0x0E1B [0x5C] MUSIC_CONTROL: Set Idle (Day) music to song 178*
383: 0x0E1F [0x5C] MUSIC_CONTROL: Set Idle (Night) music to song 178*
384: 0x0E23 [0x9A] WAIT_MUSIC_SERVER()
385: 0x0E24 [0x5D] SET_MUSIC_VOLUME(volume=127*, fade_time=1*)
386: 0x0E29 [0xAB] EventEntity->DespawnValue = 0* // Set despawn value
387: 0x0E2D [0x1C] WAIT(1* ticks)
388: 0x0E30 [0x46] CAMERA_CONTROL: Restore default settings
389: 0x0E32 [0x45] LOAD_SCHEDULED_TASK: Load scheduler "fdi2" with entities [LocalPlayer, LocalPlayer], work=[200*, 0*]
390: 0x0E43 [0x21] END_EVENT
391: 0x0E44 [0x00] END_REQSTACK()
```

### Event 174

#### Metadata

| Field        | Value      |
|--------------|------------|
| Entrypoint   | 0x0E45     |
| Data Size    | 2817 bytes |
| Instructions | 354        |

```
      00 01 02 03 04 05 06 07  08 09 0A 0B 0C 0D 0E 0F
      -- -- -- -- -- -- -- --  -- -- -- -- -- -- -- --
0E40:                42 03 01  00 03 10 5D 01 80 08 80       B.....]....
0E50: 1A 64 00 46 01 38 09 80  02 09 10 01 80 01 66 0E  .d.F.8........f.
0E60: 75 00 0A 80 75 01 79 00  F0 FF FF 7F F0 FF FF 7F  u...u.y.........
0E70: 92 01 8C 20 03 01 92 01  8D 20 03 01 94 01 F0 FF  ... ..... ......
0E80: FF 7F 94 01 8C 20 03 01  94 01 8D 20 03 01 80 F0  ..... ..... ....
0E90: FF FF 7F 80 8C 20 03 01  80 8D 20 03 01 BA F0 FF  ..... .... .....
0EA0: FF 7F 0B 80 0C 80 0D 80  0E 80 BA 8D 20 03 01 40  ............ ..@
0EB0: 80 41 80 0D 80 42 80 29  10 8C 20 03 01 24 1C 03  .A...B.).. ..$..
0EC0: 80 4B 8C 20 03 01 43 80  4A 8D 20 03 01 8C 20 03  .K. ..C.J. ... .
0ED0: 01 6F 76 8D 20 03 01 6F  76 8C 20 03 01 5B 44 80  .ov. ..ov. ..[D.
0EE0: 8D 20 03 01 8D 20 03 01  61 73 74 30 29 0F 8C 20  . ... ..ast0).. 
0EF0: 03 01 3A 29 0F 8C 20 03  01 3B 53 8D 20 03 01 8D  ..:).. ..;S. ...
0F00: 20 03 01 61 73 74 30 5C  00 45 80 5C 01 45 80 9A   ..ast0\.E.\.E..
0F10: 5D 11 80 03 80 29 0F F0  FF FF 7F 79 45 13 80 F8  ]....).....yE...
0F20: FF FF 7F F8 FF FF 7F 73  30 33 30 01 80 1A 43 00  .......s030...C.
0F30: 1C 46 80 2B 8C 20 03 01  47 80 1C 06 80 52 13 80  .F.+. ..G....R..
0F40: F8 FF FF 7F F8 FF FF 7F  73 30 33 30 45 13 80 F8  ........s030E...
0F50: FF FF 7F F8 FF FF 7F 73  30 33 31 01 80 1C 48 80  .......s031...H.
0F60: 23 52 13 80 F8 FF FF 7F  F8 FF FF 7F 73 30 33 31  #R..........s031
0F70: 02 09 10 12 80 00 8C 0F  45 13 80 F8 FF FF 7F F8  ........E.......
0F80: FF FF 7F 73 30 35 30 01  80 01 B9 0F 02 09 10 14  ...s050.........
0F90: 80 00 A8 0F 45 13 80 F8  FF FF 7F F8 FF FF 7F 73  ....E..........s
0FA0: 30 35 30 01 80 01 B9 0F  45 13 80 F8 FF FF 7F F8  050.....E.......
0FB0: FF FF 7F 73 30 33 33 01  80 4A 8C 20 03 01 F0 FF  ...s033..J. ....
0FC0: FF 7F 6F 76 8C 20 03 01  03 02 10 01 00 2B 8C 20  ..ov. .......+. 
0FD0: 03 01 49 80 23 29 0F 8C  20 03 01 3C 2B 8C 20 03  ..I.#).. ..<+. .
0FE0: 01 4A 80 23 02 09 10 12  80 00 FE 0F 52 13 80 F8  .J.#........R...
0FF0: FF FF 7F F8 FF FF 7F 73  30 35 30 01 27 10 02 09  .......s050.'...
1000: 10 14 80 00 18 10 52 13  80 F8 FF FF 7F F8 FF FF  ......R.........
1010: 7F 73 30 35 30 01 27 10  52 13 80 F8 FF FF 7F F8  .s050.'.R.......
1020: FF FF 7F 73 30 33 33 45  13 80 F8 FF FF 7F F8 FF  ...s033E........
1030: FF 7F 73 30 33 32 01 80  29 0F 8C 20 03 01 3D 29  ..s032..).. ..=)
1040: 0F 8C 20 03 01 3E 2B 8C  20 03 01 4B 80 23 29 0F  .. ..>+. ..K.#).
1050: 8C 20 03 01 3F 2B 8C 20  03 01 4C 80 23 52 13 80  . ..?+. ..L.#R..
1060: F8 FF FF 7F F8 FF FF 7F  73 30 33 32 02 09 10 12  ........s032....
1070: 80 00 88 10 45 13 80 F8  FF FF 7F F8 FF FF 7F 73  ....E..........s
1080: 30 35 31 01 80 01 B5 10  02 09 10 14 80 00 A4 10  051.............
1090: 45 13 80 F8 FF FF 7F F8  FF FF 7F 73 30 35 31 01  E..........s051.
10A0: 80 01 B5 10 45 13 80 F8  FF FF 7F F8 FF FF 7F 73  ....E..........s
10B0: 30 33 34 01 80 29 0F 8C  20 03 01 2E 2B 8C 20 03  034..).. ...+. .
10C0: 01 4D 80 23 27 0F F0 FF  FF 7F 41 1C 32 80 02 09  .M.#'.....A.2...
10D0: 10 12 80 00 E8 10 52 13  80 F8 FF FF 7F F8 FF FF  ......R.........
10E0: 7F 73 30 35 31 01 11 11  02 09 10 14 80 00 02 11  .s051...........
10F0: 52 13 80 F8 FF FF 7F F8  FF FF 7F 73 30 35 31 01  R..........s051.
1100: 11 11 52 13 80 F8 FF FF  7F F8 FF FF 7F 73 30 33  ..R..........s03
1110: 34 02 09 10 12 80 00 2D  11 45 13 80 F8 FF FF 7F  4......-.E......
1120: F8 FF FF 7F 73 30 32 33  01 80 01 5A 11 02 09 10  ....s023...Z....
1130: 14 80 00 49 11 45 13 80  F8 FF FF 7F F8 FF FF 7F  ...I.E..........
1140: 73 30 32 33 01 80 01 5A  11 45 13 80 F8 FF FF 7F  s023...Z.E......
1150: F8 FF FF 7F 73 30 30 30  01 80 29 0F 8C 20 03 01  ....s000..).. ..
1160: 2F 29 0F 8C 20 03 01 30  29 0F 8C 20 03 01 31 2A  /).. ..0).. ..1*
