# 16982624

## Common Data

| Field            | Value                          |
|------------------|--------------------------------|
| Zone             | Aht Urhgan Whitegate2 (ID: 50) |
| Block Size       | 392 bytes                      |
| Total Events     | 27                             |
| References Count | 4                              |

## List of Events

| Event ID                   | Entrypoint   |   Size |   Instructions |
|----------------------------|--------------|--------|----------------|
| [65535](#event-65535)      | 0x0000       |      1 |              1 |
| [933](#event-933)          | 0x0001       |      1 |              1 |
| [934](#event-934)          | 0x0002       |      1 |              1 |
| [935](#event-935)          | 0x0003       |      1 |              1 |
| [936](#event-936)          | 0x0004       |      1 |              1 |
| [937](#event-937)          | 0x0005       |      1 |              1 |
| [938](#event-938)          | 0x0006       |      1 |              1 |
| [939](#event-939)          | 0x0007       |      1 |              1 |
| [943](#event-943)          | 0x0008       |      1 |              1 |
| [944](#event-944)          | 0x0009       |      1 |              1 |
| [945](#event-945)          | 0x000A       |      1 |              1 |
| [954](#event-954)          | 0x000B       |      1 |              1 |
| [955](#event-955)          | 0x000C       |      1 |              1 |
| [65535.1](#event-655351)   | 0x000D       |      4 |              2 |
| [65535.2](#event-655352)   | 0x0011       |     10 |              2 |
| [65535.3](#event-655353)   | 0x001B       |     10 |              2 |
| [65535.4](#event-655354)   | 0x0025       |     10 |              2 |
| [65535.5](#event-655355)   | 0x002F       |     10 |              2 |
| [65535.6](#event-655356)   | 0x0039       |     64 |              8 |
| [65535.7](#event-655357)   | 0x0079       |     37 |              5 |
| [65535.8](#event-655358)   | 0x009E       |     10 |              2 |
| [65535.9](#event-655359)   | 0x00A8       |     10 |              2 |
| [65535.10](#event-6553510) | 0x00B2       |     10 |              2 |
| [65535.11](#event-6553511) | 0x00BC       |     10 |              2 |
| [65535.12](#event-6553512) | 0x00C6       |     19 |              3 |
| [65535.13](#event-6553513) | 0x00D9       |     16 |              3 |
| [65535.14](#event-6553514) | 0x00E9       |     19 |              3 |

## DAT References (imed_data)

|   Index | Hex Value   |   Dec Value |
|---------|-------------|-------------|
|       0 | 0x0080      |         128 |
|       1 | 0x0001      |           1 |
|       2 | 0x003C      |          60 |
|       3 | 0x0000      |           0 |

## Events

### Event 65535

#### Metadata

| Field        | Value   |
|--------------|---------|
| Entrypoint   | 0x0000  |
| Data Size    | 1 bytes |
| Instructions | 1       |

```
      00 01 02 03 04 05 06 07  08 09 0A 0B 0C 0D 0E 0F
      -- -- -- -- -- -- -- --  -- -- -- -- -- -- -- --
0000: 00                                                .               
```

#### Opcodes

```
  0: 0x0000 [0x00] END_REQSTACK()
```

### Event 933

#### Metadata

| Field        | Value   |
|--------------|---------|
| Entrypoint   | 0x0001  |
| Data Size    | 1 bytes |
| Instructions | 1       |

```
      00 01 02 03 04 05 06 07  08 09 0A 0B 0C 0D 0E 0F
      -- -- -- -- -- -- -- --  -- -- -- -- -- -- -- --
0000:    00                                              .              
```

#### Opcodes

```
  0: 0x0001 [0x00] END_REQSTACK()
```

### Event 934

#### Metadata

| Field        | Value   |
|--------------|---------|
| Entrypoint   | 0x0002  |
| Data Size    | 1 bytes |
| Instructions | 1       |

```
      00 01 02 03 04 05 06 07  08 09 0A 0B 0C 0D 0E 0F
      -- -- -- -- -- -- -- --  -- -- -- -- -- -- -- --
0000:       00                                            .             
```

#### Opcodes

```
  0: 0x0002 [0x00] END_REQSTACK()
```

### Event 935

#### Metadata

| Field        | Value   |
|--------------|---------|
| Entrypoint   | 0x0003  |
| Data Size    | 1 bytes |
| Instructions | 1       |

```
      00 01 02 03 04 05 06 07  08 09 0A 0B 0C 0D 0E 0F
      -- -- -- -- -- -- -- --  -- -- -- -- -- -- -- --
0000:          00                                          .            
```

#### Opcodes

```
  0: 0x0003 [0x00] END_REQSTACK()
```

### Event 936

#### Metadata

| Field        | Value   |
|--------------|---------|
| Entrypoint   | 0x0004  |
| Data Size    | 1 bytes |
| Instructions | 1       |

```
      00 01 02 03 04 05 06 07  08 09 0A 0B 0C 0D 0E 0F
      -- -- -- -- -- -- -- --  -- -- -- -- -- -- -- --
0000:             00                                        .           
```

#### Opcodes

```
  0: 0x0004 [0x00] END_REQSTACK()
```

### Event 937

#### Metadata

| Field        | Value   |
|--------------|---------|
| Entrypoint   | 0x0005  |
| Data Size    | 1 bytes |
| Instructions | 1       |

```
      00 01 02 03 04 05 06 07  08 09 0A 0B 0C 0D 0E 0F
      -- -- -- -- -- -- -- --  -- -- -- -- -- -- -- --
0000:                00                                      .          
```

#### Opcodes

```
  0: 0x0005 [0x00] END_REQSTACK()
```

### Event 938

#### Metadata

| Field        | Value   |
|--------------|---------|
| Entrypoint   | 0x0006  |
| Data Size    | 1 bytes |
| Instructions | 1       |

```
      00 01 02 03 04 05 06 07  08 09 0A 0B 0C 0D 0E 0F
      -- -- -- -- -- -- -- --  -- -- -- -- -- -- -- --
0000:                   00                                    .         
```

#### Opcodes

```
  0: 0x0006 [0x00] END_REQSTACK()
```

### Event 939

#### Metadata

| Field        | Value   |
|--------------|---------|
| Entrypoint   | 0x0007  |
| Data Size    | 1 bytes |
| Instructions | 1       |

```
      00 01 02 03 04 05 06 07  08 09 0A 0B 0C 0D 0E 0F
      -- -- -- -- -- -- -- --  -- -- -- -- -- -- -- --
0000:                      00                                  .        
```

#### Opcodes

```
  0: 0x0007 [0x00] END_REQSTACK()
```

### Event 943

#### Metadata

| Field        | Value   |
|--------------|---------|
| Entrypoint   | 0x0008  |
| Data Size    | 1 bytes |
| Instructions | 1       |

```
      00 01 02 03 04 05 06 07  08 09 0A 0B 0C 0D 0E 0F
      -- -- -- -- -- -- -- --  -- -- -- -- -- -- -- --
0000:                          00                               .       
```

#### Opcodes

```
  0: 0x0008 [0x00] END_REQSTACK()
```

### Event 944

#### Metadata

| Field        | Value   |
|--------------|---------|
| Entrypoint   | 0x0009  |
| Data Size    | 1 bytes |
| Instructions | 1       |

```
      00 01 02 03 04 05 06 07  08 09 0A 0B 0C 0D 0E 0F
      -- -- -- -- -- -- -- --  -- -- -- -- -- -- -- --
0000:                             00                             .      
```

#### Opcodes

```
  0: 0x0009 [0x00] END_REQSTACK()
```

### Event 945

#### Metadata

| Field        | Value   |
|--------------|---------|
| Entrypoint   | 0x000A  |
| Data Size    | 1 bytes |
| Instructions | 1       |

```
      00 01 02 03 04 05 06 07  08 09 0A 0B 0C 0D 0E 0F
      -- -- -- -- -- -- -- --  -- -- -- -- -- -- -- --
0000:                                00                           .     
```

#### Opcodes

```
  0: 0x000A [0x00] END_REQSTACK()
```

### Event 954

#### Metadata

| Field        | Value   |
|--------------|---------|
| Entrypoint   | 0x000B  |
| Data Size    | 1 bytes |
| Instructions | 1       |

```
      00 01 02 03 04 05 06 07  08 09 0A 0B 0C 0D 0E 0F
      -- -- -- -- -- -- -- --  -- -- -- -- -- -- -- --
0000:                                   00                         .    
```

#### Opcodes

```
  0: 0x000B [0x00] END_REQSTACK()
```

### Event 955

#### Metadata

| Field        | Value   |
|--------------|---------|
| Entrypoint   | 0x000C  |
| Data Size    | 1 bytes |
| Instructions | 1       |

```
      00 01 02 03 04 05 06 07  08 09 0A 0B 0C 0D 0E 0F
      -- -- -- -- -- -- -- --  -- -- -- -- -- -- -- --
0000:                                      00                       .   
```

#### Opcodes

```
  0: 0x000C [0x00] END_REQSTACK()
```

### Event 65535.1

#### Metadata

| Field        | Value   |
|--------------|---------|
| Entrypoint   | 0x000D  |
| Data Size    | 4 bytes |
| Instructions | 2       |

```
      00 01 02 03 04 05 06 07  08 09 0A 0B 0C 0D 0E 0F
      -- -- -- -- -- -- -- --  -- -- -- -- -- -- -- --
0000:                                         1C 03 10               ...
0010: 00                                                .               
```

#### Opcodes

```
  0: 0x000D [0x1C] WAIT(Work_Zone[3] ticks)
  1: 0x0010 [0x00] END_REQSTACK()
```

### Event 65535.2

#### Metadata

| Field        | Value    |
|--------------|----------|
| Entrypoint   | 0x0011   |
| Data Size    | 10 bytes |
| Instructions | 2        |

```
      00 01 02 03 04 05 06 07  08 09 0A 0B 0C 0D 0E 0F
      -- -- -- -- -- -- -- --  -- -- -- -- -- -- -- --
0010:    6C 95 20 03 01 00 80  01 80 00                  l. .......     
```

#### Opcodes

```
  0: 0x0011 [0x6C] FADE_ENTITY_COLOR(entity_id=Ghatsad (ID: 16982165/0x01032095), end_alpha=128*, fade_time=1*)
  1: 0x001A [0x00] END_REQSTACK()
```

### Event 65535.3

#### Metadata

| Field        | Value    |
|--------------|----------|
| Entrypoint   | 0x001B   |
| Data Size    | 10 bytes |
| Instructions | 2        |

```
      00 01 02 03 04 05 06 07  08 09 0A 0B 0C 0D 0E 0F
      -- -- -- -- -- -- -- --  -- -- -- -- -- -- -- --
0010:                                   6C 1A 21 03 01             l.!..
0020: 00 80 02 80 00                                    .....           
```

#### Opcodes

```
  0: 0x001B [0x6C] FADE_ENTITY_COLOR(entity_id=Raubahn (ID: 16982298/0x0103211A), end_alpha=128*, fade_time=60*)
  1: 0x0024 [0x00] END_REQSTACK()
```

### Event 65535.4

#### Metadata

| Field        | Value    |
|--------------|----------|
| Entrypoint   | 0x0025   |
| Data Size    | 10 bytes |
| Instructions | 2        |

```
      00 01 02 03 04 05 06 07  08 09 0A 0B 0C 0D 0E 0F
      -- -- -- -- -- -- -- --  -- -- -- -- -- -- -- --
0020:                6C CB 20  03 01 03 80 01 80 00          l. ....... 
```

#### Opcodes

```
  0: 0x0025 [0x6C] FADE_ENTITY_COLOR(entity_id=Nashmeira (ID: 16982219/0x010320CB), end_alpha=0*, fade_time=1*)
  1: 0x002E [0x00] END_REQSTACK()
```

### Event 65535.5

#### Metadata

| Field        | Value    |
|--------------|----------|
| Entrypoint   | 0x002F   |
| Data Size    | 10 bytes |
| Instructions | 2        |

```
      00 01 02 03 04 05 06 07  08 09 0A 0B 0C 0D 0E 0F
      -- -- -- -- -- -- -- --  -- -- -- -- -- -- -- --
0020:                                               6C                 l
0030: CB 20 03 01 00 80 01 80  00                       . .......       
```

#### Opcodes

```
  0: 0x002F [0x6C] FADE_ENTITY_COLOR(entity_id=Nashmeira (ID: 16982219/0x010320CB), end_alpha=128*, fade_time=1*)
  1: 0x0038 [0x00] END_REQSTACK()
```

### Event 65535.6

#### Metadata

| Field        | Value    |
|--------------|----------|
| Entrypoint   | 0x0039   |
| Data Size    | 64 bytes |
| Instructions | 8        |

```
      00 01 02 03 04 05 06 07  08 09 0A 0B 0C 0D 0E 0F
      -- -- -- -- -- -- -- --  -- -- -- -- -- -- -- --
0030:                             6C 64 22 03 01 03 80           ld"....
0040: 01 80 6C 65 22 03 01 03  80 01 80 6C 66 22 03 01  ..le"......lf"..
0050: 03 80 01 80 6C 67 22 03  01 03 80 01 80 6C D9 20  ....lg"......l. 
0060: 03 01 03 80 01 80 6C CB  20 03 01 03 80 01 80 6C  ......l. ......l
0070: F0 FF FF 7F 03 80 01 80  00                       .........       
```

#### Opcodes

```
  0: 0x0039 [0x6C] FADE_ENTITY_COLOR(entity_id=01 (ID: 16982628/0x01032264), end_alpha=0*, fade_time=1*)
  1: 0x0042 [0x6C] FADE_ENTITY_COLOR(entity_id=02 (ID: 16982629/0x01032265), end_alpha=0*, fade_time=1*)
  2: 0x004B [0x6C] FADE_ENTITY_COLOR(entity_id=03 (ID: 16982630/0x01032266), end_alpha=0*, fade_time=1*)
  3: 0x0054 [0x6C] FADE_ENTITY_COLOR(entity_id=04 (ID: 16982631/0x01032267), end_alpha=0*, fade_time=1*)
  4: 0x005D [0x6C] FADE_ENTITY_COLOR(entity_id=Luzaf (ID: 16982233/0x010320D9), end_alpha=0*, fade_time=1*)
  5: 0x0066 [0x6C] FADE_ENTITY_COLOR(entity_id=Nashmeira (ID: 16982219/0x010320CB), end_alpha=0*, fade_time=1*)
  6: 0x006F [0x6C] FADE_ENTITY_COLOR(entity_id=LocalPlayer, end_alpha=0*, fade_time=1*)
  7: 0x0078 [0x00] END_REQSTACK()
```

### Event 65535.7

#### Metadata

| Field        | Value    |
|--------------|----------|
| Entrypoint   | 0x0079   |
| Data Size    | 37 bytes |
| Instructions | 5        |

```
      00 01 02 03 04 05 06 07  08 09 0A 0B 0C 0D 0E 0F
      -- -- -- -- -- -- -- --  -- -- -- -- -- -- -- --
0070:                             6C 64 22 03 01 00 80           ld"....
0080: 01 80 6C 65 22 03 01 00  80 01 80 6C 66 22 03 01  ..le"......lf"..
0090: 00 80 01 80 6C 67 22 03  01 00 80 01 80 00        ....lg".......  
```

#### Opcodes

```
  0: 0x0079 [0x6C] FADE_ENTITY_COLOR(entity_id=01 (ID: 16982628/0x01032264), end_alpha=128*, fade_time=1*)
  1: 0x0082 [0x6C] FADE_ENTITY_COLOR(entity_id=02 (ID: 16982629/0x01032265), end_alpha=128*, fade_time=1*)
  2: 0x008B [0x6C] FADE_ENTITY_COLOR(entity_id=03 (ID: 16982630/0x01032266), end_alpha=128*, fade_time=1*)
  3: 0x0094 [0x6C] FADE_ENTITY_COLOR(entity_id=04 (ID: 16982631/0x01032267), end_alpha=128*, fade_time=1*)
  4: 0x009D [0x00] END_REQSTACK()
```

### Event 65535.8

#### Metadata

| Field        | Value    |
|--------------|----------|
| Entrypoint   | 0x009E   |
| Data Size    | 10 bytes |
| Instructions | 2        |

```
      00 01 02 03 04 05 06 07  08 09 0A 0B 0C 0D 0E 0F
      -- -- -- -- -- -- -- --  -- -- -- -- -- -- -- --
0090:                                            6C D9                l.
00A0: 20 03 01 00 80 01 80 00                            .......        
```

#### Opcodes

```
  0: 0x009E [0x6C] FADE_ENTITY_COLOR(entity_id=Luzaf (ID: 16982233/0x010320D9), end_alpha=128*, fade_time=1*)
  1: 0x00A7 [0x00] END_REQSTACK()
```

### Event 65535.9

#### Metadata

| Field        | Value    |
|--------------|----------|
| Entrypoint   | 0x00A8   |
| Data Size    | 10 bytes |
| Instructions | 2        |

```
      00 01 02 03 04 05 06 07  08 09 0A 0B 0C 0D 0E 0F
      -- -- -- -- -- -- -- --  -- -- -- -- -- -- -- --
00A0:                          6C F0 FF FF 7F 00 80 01          l.......
00B0: 80 00                                             ..              
```

#### Opcodes

```
  0: 0x00A8 [0x6C] FADE_ENTITY_COLOR(entity_id=LocalPlayer, end_alpha=128*, fade_time=1*)
  1: 0x00B1 [0x00] END_REQSTACK()
```

### Event 65535.10

#### Metadata

| Field        | Value    |
|--------------|----------|
| Entrypoint   | 0x00B2   |
| Data Size    | 10 bytes |
| Instructions | 2        |

```
      00 01 02 03 04 05 06 07  08 09 0A 0B 0C 0D 0E 0F
      -- -- -- -- -- -- -- --  -- -- -- -- -- -- -- --
00B0:       6C CC 20 03 01 03  80 01 80 00                l. .......    
```

#### Opcodes

```
  0: 0x00B2 [0x6C] FADE_ENTITY_COLOR(entity_id=Nashmeira (ID: 16982220/0x010320CC), end_alpha=0*, fade_time=1*)
  1: 0x00BB [0x00] END_REQSTACK()
```

### Event 65535.11

#### Metadata

| Field        | Value    |
|--------------|----------|
| Entrypoint   | 0x00BC   |
| Data Size    | 10 bytes |
| Instructions | 2        |

```
      00 01 02 03 04 05 06 07  08 09 0A 0B 0C 0D 0E 0F
      -- -- -- -- -- -- -- --  -- -- -- -- -- -- -- --
00B0:                                      6C 95 20 03              l. .
00C0: 01 03 80 01 80 00                                 ......          
```

#### Opcodes

```
  0: 0x00BC [0x6C] FADE_ENTITY_COLOR(entity_id=Ghatsad (ID: 16982165/0x01032095), end_alpha=0*, fade_time=1*)
  1: 0x00C5 [0x00] END_REQSTACK()
```

### Event 65535.12

#### Metadata

| Field        | Value    |
|--------------|----------|
| Entrypoint   | 0x00C6   |
| Data Size    | 19 bytes |
| Instructions | 3        |

```
      00 01 02 03 04 05 06 07  08 09 0A 0B 0C 0D 0E 0F
      -- -- -- -- -- -- -- --  -- -- -- -- -- -- -- --
00C0:                   6C C7  20 03 01 03 80 01 80 6C        l. ......l
00D0: C4 20 03 01 03 80 01 80  00                       . .......       
```

#### Opcodes

```
  0: 0x00C6 [0x6C] FADE_ENTITY_COLOR(entity_id=Ovjang (ID: 16982215/0x010320C7), end_alpha=0*, fade_time=1*)
  1: 0x00CF [0x6C] FADE_ENTITY_COLOR(entity_id=Mnejing (ID: 16982212/0x010320C4), end_alpha=0*, fade_time=1*)
  2: 0x00D8 [0x00] END_REQSTACK()
```

### Event 65535.13

#### Metadata

| Field        | Value    |
|--------------|----------|
| Entrypoint   | 0x00D9   |
| Data Size    | 16 bytes |
| Instructions | 3        |

```
      00 01 02 03 04 05 06 07  08 09 0A 0B 0C 0D 0E 0F
      -- -- -- -- -- -- -- --  -- -- -- -- -- -- -- --
00D0:                             2A 10 F0 FF FF 7F 4A           *.....J
00E0: F0 FF FF 7F 95 20 03 01  00                       ..... ...       
```

#### Opcodes

```
  0: 0x00D9 [0x2A] GET_REQ_LEVEL(level=16, entity_id=LocalPlayer)
  1: 0x00DF [0x4A] LocalPlayer looks at Ghatsad (ID: 16982165/0x01032095)
  2: 0x00E8 [0x00] END_REQSTACK()
```

### Event 65535.14

#### Metadata

| Field        | Value    |
|--------------|----------|
| Entrypoint   | 0x00E9   |
| Data Size    | 19 bytes |
| Instructions | 3        |

```
      00 01 02 03 04 05 06 07  08 09 0A 0B 0C 0D 0E 0F
      -- -- -- -- -- -- -- --  -- -- -- -- -- -- -- --
00E0:                             6C C7 20 03 01 00 80           l. ....
00F0: 01 80 6C C4 20 03 01 00  80 01 80 00              ..l. .......    
```

#### Opcodes

```
  0: 0x00E9 [0x6C] FADE_ENTITY_COLOR(entity_id=Ovjang (ID: 16982215/0x010320C7), end_alpha=128*, fade_time=1*)
  1: 0x00F2 [0x6C] FADE_ENTITY_COLOR(entity_id=Mnejing (ID: 16982212/0x010320C4), end_alpha=128*, fade_time=1*)
  2: 0x00FB [0x00] END_REQSTACK()
```
