# 16982110 - Arzizah

## Common Data

| Field            | Value                          |
|------------------|--------------------------------|
| Zone             | Aht Urhgan Whitegate2 (ID: 50) |
| Block Size       | 440 bytes                      |
| Total Events     | 18                             |
| References Count | 29                             |

## List of Events

| Event ID                   | Entrypoint   |   Size |   Instructions |
|----------------------------|--------------|--------|----------------|
| [65535](#event-65535)      | 0x0000       |      1 |              1 |
| [3078](#event-3078)        | 0x0001       |      1 |              1 |
| [3081](#event-3081)        | 0x0002       |      1 |              1 |
| [65535.1](#event-655351)   | 0x0003       |     25 |              9 |
| [65535.2](#event-655352)   | 0x001C       |     31 |              9 |
| [65535.3](#event-655353)   | 0x003B       |     22 |              8 |
| [65535.4](#event-655354)   | 0x0051       |     27 |              8 |
| [65535.5](#event-655355)   | 0x006C       |     27 |              8 |
| [65535.6](#event-655356)   | 0x0087       |     22 |              8 |
| [65535.7](#event-655357)   | 0x009D       |     22 |              8 |
| [65535.8](#event-655358)   | 0x00B3       |     20 |              3 |
| [3111](#event-3111)        | 0x00C7       |      1 |              1 |
| [65535.9](#event-655359)   | 0x00C8       |     14 |              4 |
| [65535.10](#event-6553510) | 0x00D6       |     15 |              5 |
| [3114](#event-3114)        | 0x00E5       |      1 |              1 |
| [166](#event-166)          | 0x00E6       |      1 |              1 |
| [194](#event-194)          | 0x00E7       |      1 |              1 |
| [199](#event-199)          | 0x00E8       |      1 |              1 |

## DAT References (imed_data)

|   Index | Hex Value   |   Dec Value |
|---------|-------------|-------------|
|       0 | 0x000D      |          13 |
|       1 | 0x24F18     |      151320 |
|       2 | 0x043D      |        1085 |
|       3 | 0xFFFFF769  |  4294965097 |
|       4 | 0x000F      |          15 |
|       5 | 0x24EF7     |      151287 |
|       6 | 0x0C2F      |        3119 |
|       7 | 0x0800      |        2048 |
|       8 | 0x244BE     |      148670 |
|       9 | 0x028B      |         651 |
|      10 | 0xFFFFF830  |  4294965296 |
|      11 | 0x0028      |          40 |
|      12 | 0x23D38     |      146744 |
|      13 | 0x1FDA      |        8154 |
|      14 | 0x23D36     |      146742 |
|      15 | 0x3414      |       13332 |
|      16 | 0x23CDF     |      146655 |
|      17 | 0x1EE7      |        7911 |
|      18 | 0x240E0     |      147680 |
|      19 | 0x0C36      |        3126 |
|      20 | 0x0026      |          38 |
|      21 | 0x23E55     |      147029 |
|      22 | 0x0679      |        1657 |
|      23 | 0x2408D     |      147597 |
|      24 | 0x0459      |        1113 |
|      25 | 0x0802      |        2050 |
|      26 | 0x24D07     |      150791 |
|      27 | 0x0C0F      |        3087 |
|      28 | 0xFFFFF699  |  4294964889 |

## Events

### Event 65535

#### Metadata

| Field        | Value   |
|--------------|---------|
| Entrypoint   | 0x0000  |
| Data Size    | 1 bytes |
| Instructions | 1       |

```
      00 01 02 03 04 05 06 07  08 09 0A 0B 0C 0D 0E 0F
      -- -- -- -- -- -- -- --  -- -- -- -- -- -- -- --
0000: 00                                                .               
```

#### Opcodes

```
  0: 0x0000 [0x00] END_REQSTACK()
```

### Event 3078

#### Metadata

| Field        | Value   |
|--------------|---------|
| Entrypoint   | 0x0001  |
| Data Size    | 1 bytes |
| Instructions | 1       |

```
      00 01 02 03 04 05 06 07  08 09 0A 0B 0C 0D 0E 0F
      -- -- -- -- -- -- -- --  -- -- -- -- -- -- -- --
0000:    00                                              .              
```

#### Opcodes

```
  0: 0x0001 [0x00] END_REQSTACK()
```

### Event 3081

#### Metadata

| Field        | Value   |
|--------------|---------|
| Entrypoint   | 0x0002  |
| Data Size    | 1 bytes |
| Instructions | 1       |

```
      00 01 02 03 04 05 06 07  08 09 0A 0B 0C 0D 0E 0F
      -- -- -- -- -- -- -- --  -- -- -- -- -- -- -- --
0000:       00                                            .             
```

#### Opcodes

```
  0: 0x0002 [0x00] END_REQSTACK()
```

### Event 65535.1

#### Metadata

| Field        | Value    |
|--------------|----------|
| Entrypoint   | 0x0003   |
| Data Size    | 25 bytes |
| Instructions | 9        |

```
      00 01 02 03 04 05 06 07  08 09 0A 0B 0C 0D 0E 0F
      -- -- -- -- -- -- -- --  -- -- -- -- -- -- -- --
0000:          32 00 80 1F 00  01 80 02 80 03 80 1F 01     2............
0010: 6F 1C 04 80 1E F0 FF FF  7F 6F 70 00              o........op.    
```

#### Opcodes

```
  0: 0x0003 [0x32] ExtData[1]->MainSpeed = 13* * 0.1
  1: 0x0006 [0x1F] MOVE_ENTITY: EventEntity moves to X=151.320*, Z=1.085*, Y=-2.199*
  2: 0x000E [0x1F] MOVE_ENTITY: Update entity position (mode=1)
  3: 0x0010 [0x6F] WAIT_FRAME_DELAY: Yield until WaitTime reaches zero
  4: 0x0011 [0x1C] WAIT(15* ticks)
  5: 0x0014 [0x1E] EventEntity looks at LocalPlayer and starts talking
  6: 0x0019 [0x6F] WAIT_FRAME_DELAY: Yield until WaitTime reaches zero
  7: 0x001A [0x70] WAIT_ENTITY_RENDER_FLAG: Wait while EventEntity->Render.Flags3 bit 2 is set (cancel turn if not)
  8: 0x001B [0x00] END_REQSTACK()
```

### Event 65535.2

#### Metadata

| Field        | Value    |
|--------------|----------|
| Entrypoint   | 0x001C   |
| Data Size    | 31 bytes |
| Instructions | 9        |

```
      00 01 02 03 04 05 06 07  08 09 0A 0B 0C 0D 0E 0F
      -- -- -- -- -- -- -- --  -- -- -- -- -- -- -- --
0010:                                      32 00 80 1F              2...
0020: 00 05 80 06 80 03 80 1F  01 6F 1C 04 80 4B F8 FF  .........o...K..
0030: FF 7F 07 80 6F 76 F8 FF  FF 7F 00                 ....ov.....     
```

#### Opcodes

```
  0: 0x001C [0x32] ExtData[1]->MainSpeed = 13* * 0.1
  1: 0x001F [0x1F] MOVE_ENTITY: EventEntity moves to X=151.287*, Z=3.119*, Y=-2.199*
  2: 0x0027 [0x1F] MOVE_ENTITY: Update entity position (mode=1)
  3: 0x0029 [0x6F] WAIT_FRAME_DELAY: Yield until WaitTime reaches zero
  4: 0x002A [0x1C] WAIT(15* ticks)
  5: 0x002D [0x4B] UPDATE_ENTITY_YAW(entity=EventEntity, yaw=11.2°*)
  6: 0x0034 [0x6F] WAIT_FRAME_DELAY: Yield until WaitTime reaches zero
  7: 0x0035 [0x76] CHECK_ENTITY_RENDER_FLAGS: Wait until EventEntity Render.Flags0 and Render.Flags3 conditions are met
  8: 0x003A [0x00] END_REQSTACK()
```

### Event 65535.3

#### Metadata

| Field        | Value    |
|--------------|----------|
| Entrypoint   | 0x003B   |
| Data Size    | 22 bytes |
| Instructions | 8        |

```
      00 01 02 03 04 05 06 07  08 09 0A 0B 0C 0D 0E 0F
      -- -- -- -- -- -- -- --  -- -- -- -- -- -- -- --
0030:                                   32 00 80 1F 00             2....
0040: 08 80 09 80 0A 80 1F 01  6F 1E 8C 20 03 01 6F 70  ........o.. ..op
0050: 00                                                .               
```

#### Opcodes

```
  0: 0x003B [0x32] ExtData[1]->MainSpeed = 13* * 0.1
  1: 0x003E [0x1F] MOVE_ENTITY: EventEntity moves to X=148.670*, Z=0.651*, Y=-2.000*
  2: 0x0046 [0x1F] MOVE_ENTITY: Update entity position (mode=1)
  3: 0x0048 [0x6F] WAIT_FRAME_DELAY: Yield until WaitTime reaches zero
  4: 0x0049 [0x1E] EventEntity looks at Naja Salaheem (ID: 16982156/0x0103208C) and starts talking
  5: 0x004E [0x6F] WAIT_FRAME_DELAY: Yield until WaitTime reaches zero
  6: 0x004F [0x70] WAIT_ENTITY_RENDER_FLAG: Wait while EventEntity->Render.Flags3 bit 2 is set (cancel turn if not)
  7: 0x0050 [0x00] END_REQSTACK()
```

### Event 65535.4

#### Metadata

| Field        | Value    |
|--------------|----------|
| Entrypoint   | 0x0051   |
| Data Size    | 27 bytes |
| Instructions | 8        |

```
      00 01 02 03 04 05 06 07  08 09 0A 0B 0C 0D 0E 0F
      -- -- -- -- -- -- -- --  -- -- -- -- -- -- -- --
0050:    32 0B 80 1F 00 0C 80  0D 80 0A 80 1F 01 1F 00   2..............
0060: 0E 80 0F 80 0A 80 1F 01  6F 22 01 00              ........o"..    
```

#### Opcodes

```
  0: 0x0051 [0x32] ExtData[1]->MainSpeed = 40* * 0.1
  1: 0x0054 [0x1F] MOVE_ENTITY: EventEntity moves to X=146.744*, Z=8.154*, Y=-2.000*
  2: 0x005C [0x1F] MOVE_ENTITY: Update entity position (mode=1)
  3: 0x005E [0x1F] MOVE_ENTITY: EventEntity moves to X=146.742*, Z=13.332*, Y=-2.000*
  4: 0x0066 [0x1F] MOVE_ENTITY: Update entity position (mode=1)
  5: 0x0068 [0x6F] WAIT_FRAME_DELAY: Yield until WaitTime reaches zero
  6: 0x0069 [0x22] ENTITY_HIDE_FLAG(enabled=0x01)
  7: 0x006B [0x00] END_REQSTACK()
```

### Event 65535.5

#### Metadata

| Field        | Value    |
|--------------|----------|
| Entrypoint   | 0x006C   |
| Data Size    | 27 bytes |
| Instructions | 8        |

```
      00 01 02 03 04 05 06 07  08 09 0A 0B 0C 0D 0E 0F
      -- -- -- -- -- -- -- --  -- -- -- -- -- -- -- --
0060:                                      22 00 32 0B              ".2.
0070: 80 1F 00 10 80 11 80 0A  80 1F 01 1F 00 12 80 13  ................
0080: 80 0A 80 1F 01 6F 00                              .....o.         
```

#### Opcodes

```
  0: 0x006C [0x22] ENTITY_HIDE_FLAG(enabled=0x00)
  1: 0x006E [0x32] ExtData[1]->MainSpeed = 40* * 0.1
  2: 0x0071 [0x1F] MOVE_ENTITY: EventEntity moves to X=146.655*, Z=7.911*, Y=-2.000*
  3: 0x0079 [0x1F] MOVE_ENTITY: Update entity position (mode=1)
  4: 0x007B [0x1F] MOVE_ENTITY: EventEntity moves to X=147.680*, Z=3.126*, Y=-2.000*
  5: 0x0083 [0x1F] MOVE_ENTITY: Update entity position (mode=1)
  6: 0x0085 [0x6F] WAIT_FRAME_DELAY: Yield until WaitTime reaches zero
  7: 0x0086 [0x00] END_REQSTACK()
```

### Event 65535.6

#### Metadata

| Field        | Value    |
|--------------|----------|
| Entrypoint   | 0x0087   |
| Data Size    | 22 bytes |
| Instructions | 8        |

```
      00 01 02 03 04 05 06 07  08 09 0A 0B 0C 0D 0E 0F
      -- -- -- -- -- -- -- --  -- -- -- -- -- -- -- --
0080:                      32  14 80 1F 00 15 80 16 80         2........
0090: 0A 80 1F 01 6F 1E CE 20  03 01 6F 70 00           ....o.. ..op.   
```

#### Opcodes

```
  0: 0x0087 [0x32] ExtData[1]->MainSpeed = 38* * 0.1
  1: 0x008A [0x1F] MOVE_ENTITY: EventEntity moves to X=147.029*, Z=1.657*, Y=-2.000*
  2: 0x0092 [0x1F] MOVE_ENTITY: Update entity position (mode=1)
  3: 0x0094 [0x6F] WAIT_FRAME_DELAY: Yield until WaitTime reaches zero
  4: 0x0095 [0x1E] EventEntity looks at Gessho (ID: 16982222/0x010320CE) and starts talking
  5: 0x009A [0x6F] WAIT_FRAME_DELAY: Yield until WaitTime reaches zero
  6: 0x009B [0x70] WAIT_ENTITY_RENDER_FLAG: Wait while EventEntity->Render.Flags3 bit 2 is set (cancel turn if not)
  7: 0x009C [0x00] END_REQSTACK()
```

### Event 65535.7

#### Metadata

| Field        | Value    |
|--------------|----------|
| Entrypoint   | 0x009D   |
| Data Size    | 22 bytes |
| Instructions | 8        |

```
      00 01 02 03 04 05 06 07  08 09 0A 0B 0C 0D 0E 0F
      -- -- -- -- -- -- -- --  -- -- -- -- -- -- -- --
0090:                                         32 14 80               2..
00A0: 1F 00 17 80 18 80 0A 80  1F 01 6F 1E CE 20 03 01  ..........o.. ..
00B0: 6F 70 00                                          op.             
```

#### Opcodes

```
  0: 0x009D [0x32] ExtData[1]->MainSpeed = 38* * 0.1
  1: 0x00A0 [0x1F] MOVE_ENTITY: EventEntity moves to X=147.597*, Z=1.113*, Y=-2.000*
  2: 0x00A8 [0x1F] MOVE_ENTITY: Update entity position (mode=1)
  3: 0x00AA [0x6F] WAIT_FRAME_DELAY: Yield until WaitTime reaches zero
  4: 0x00AB [0x1E] EventEntity looks at Gessho (ID: 16982222/0x010320CE) and starts talking
  5: 0x00B0 [0x6F] WAIT_FRAME_DELAY: Yield until WaitTime reaches zero
  6: 0x00B1 [0x70] WAIT_ENTITY_RENDER_FLAG: Wait while EventEntity->Render.Flags3 bit 2 is set (cancel turn if not)
  7: 0x00B2 [0x00] END_REQSTACK()
```

### Event 65535.8

#### Metadata

| Field        | Value    |
|--------------|----------|
| Entrypoint   | 0x00B3   |
| Data Size    | 20 bytes |
| Instructions | 3        |

```
      00 01 02 03 04 05 06 07  08 09 0A 0B 0C 0D 0E 0F
      -- -- -- -- -- -- -- --  -- -- -- -- -- -- -- --
00B0:          79 00 F8 FF FF  7F F8 FF FF 7F 37 05 80     y.........7..
00C0: 06 80 03 80 19 80 00                              .......         
```

#### Opcodes

```
  0: 0x00B3 [0x79] EventEntity looks at EventEntity (Basic look)
  1: 0x00BD [0x37] UPDATE_EVENT_POSITION_AND_DIR: x=151.287*, z=3.119*, y=-2.199*, direction=180.2°*
  2: 0x00C6 [0x00] END_REQSTACK()
```

### Event 3111

#### Metadata

| Field        | Value   |
|--------------|---------|
| Entrypoint   | 0x00C7  |
| Data Size    | 1 bytes |
| Instructions | 1       |

```
      00 01 02 03 04 05 06 07  08 09 0A 0B 0C 0D 0E 0F
      -- -- -- -- -- -- -- --  -- -- -- -- -- -- -- --
00C0:                      00                                  .        
```

#### Opcodes

```
  0: 0x00C7 [0x00] END_REQSTACK()
```

### Event 65535.9

#### Metadata

| Field        | Value    |
|--------------|----------|
| Entrypoint   | 0x00C8   |
| Data Size    | 14 bytes |
| Instructions | 4        |

```
      00 01 02 03 04 05 06 07  08 09 0A 0B 0C 0D 0E 0F
      -- -- -- -- -- -- -- --  -- -- -- -- -- -- -- --
00C0:                          32 00 80 1F 00 1A 80 1B          2.......
00D0: 80 1C 80 1F 01 00                                 ......          
```

#### Opcodes

```
  0: 0x00C8 [0x32] ExtData[1]->MainSpeed = 13* * 0.1
  1: 0x00CB [0x1F] MOVE_ENTITY: EventEntity moves to X=150.791*, Z=3.087*, Y=-2.407*
  2: 0x00D3 [0x1F] MOVE_ENTITY: Update entity position (mode=1)
  3: 0x00D5 [0x00] END_REQSTACK()
```

### Event 65535.10

#### Metadata

| Field        | Value    |
|--------------|----------|
| Entrypoint   | 0x00D6   |
| Data Size    | 15 bytes |
| Instructions | 5        |

```
      00 01 02 03 04 05 06 07  08 09 0A 0B 0C 0D 0E 0F
      -- -- -- -- -- -- -- --  -- -- -- -- -- -- -- --
00D0:                   32 00  80 1F 00 05 80 06 80 03        2.........
00E0: 80 1F 01 6F 00                                    ...o.           
```

#### Opcodes

```
  0: 0x00D6 [0x32] ExtData[1]->MainSpeed = 13* * 0.1
  1: 0x00D9 [0x1F] MOVE_ENTITY: EventEntity moves to X=151.287*, Z=3.119*, Y=-2.199*
  2: 0x00E1 [0x1F] MOVE_ENTITY: Update entity position (mode=1)
  3: 0x00E3 [0x6F] WAIT_FRAME_DELAY: Yield until WaitTime reaches zero
  4: 0x00E4 [0x00] END_REQSTACK()
```

### Event 3114

#### Metadata

| Field        | Value   |
|--------------|---------|
| Entrypoint   | 0x00E5  |
| Data Size    | 1 bytes |
| Instructions | 1       |

```
      00 01 02 03 04 05 06 07  08 09 0A 0B 0C 0D 0E 0F
      -- -- -- -- -- -- -- --  -- -- -- -- -- -- -- --
00E0:                00                                      .          
```

#### Opcodes

```
  0: 0x00E5 [0x00] END_REQSTACK()
```

### Event 166

#### Metadata

| Field        | Value   |
|--------------|---------|
| Entrypoint   | 0x00E6  |
| Data Size    | 1 bytes |
| Instructions | 1       |

```
      00 01 02 03 04 05 06 07  08 09 0A 0B 0C 0D 0E 0F
      -- -- -- -- -- -- -- --  -- -- -- -- -- -- -- --
00E0:                   00                                    .         
```

#### Opcodes

```
  0: 0x00E6 [0x00] END_REQSTACK()
```

### Event 194

#### Metadata

| Field        | Value   |
|--------------|---------|
| Entrypoint   | 0x00E7  |
| Data Size    | 1 bytes |
| Instructions | 1       |

```
      00 01 02 03 04 05 06 07  08 09 0A 0B 0C 0D 0E 0F
      -- -- -- -- -- -- -- --  -- -- -- -- -- -- -- --
00E0:                      00                                  .        
```

#### Opcodes

```
  0: 0x00E7 [0x00] END_REQSTACK()
```

### Event 199

#### Metadata

| Field        | Value   |
|--------------|---------|
| Entrypoint   | 0x00E8  |
| Data Size    | 1 bytes |
| Instructions | 1       |

```
      00 01 02 03 04 05 06 07  08 09 0A 0B 0C 0D 0E 0F
      -- -- -- -- -- -- -- --  -- -- -- -- -- -- -- --
00E0:                          00                               .       
```

#### Opcodes

```
  0: 0x00E8 [0x00] END_REQSTACK()
```
