# 16982567

## Common Data

| Field            | Value                          |
|------------------|--------------------------------|
| Zone             | Aht Urhgan Whitegate2 (ID: 50) |
| Block Size       | 21816 bytes                    |
| Total Events     | 4                              |
| References Count | 436                            |

## List of Events

| Event ID              | Entrypoint   |   Size |   Instructions |
|-----------------------|--------------|--------|----------------|
| [65535](#event-65535) | 0x0000       |      1 |              1 |
| [3136](#event-3136)   | 0x0001       |   2780 |            299 |
| [3139](#event-3139)   | 0x0ADD       |   2202 |            265 |
| [3140](#event-3140)   | 0x1377       |  15055 |           1637 |

## DAT References (imed_data)

|   Index | Hex Value   |   Dec Value |
|---------|-------------|-------------|
|       0 | 0x00C8      |         200 |
|       1 | 0x0000      |           0 |
|       2 | 0x0013      |          19 |
|       3 | 0x108A3     |       67747 |
|       4 | 0xFFFE0D6B  |  4294839659 |
|       5 | 0xFFFFE69D  |  4294960797 |
|       6 | 0x0C51      |        3153 |
|       7 | 0x10C8A     |       68746 |
|       8 | 0xFFFE14BB  |  4294841531 |
|       9 | 0xFFFFE69C  |  4294960796 |
|      10 | 0x07E9      |        2025 |
|      11 | 0x13772     |       79730 |
|      12 | 0xFFFE2F8A  |  4294848394 |
|      13 | 0xFFFFE890  |  4294961296 |
|      14 | 0x040D      |        1037 |
|      15 | 0x001E      |          30 |
|      16 | 0x037E      |         894 |
|      17 | 0x0120      |         288 |
|      18 | 0x000F      |          15 |
|      19 | 0x048F      |        1167 |
|      20 | 0x0078      |         120 |
|      21 | 0x003C      |          60 |
|      22 | 0x2525      |        9509 |
|      23 | 0x001D      |          29 |
|      24 | 0x2526      |        9510 |
|      25 | 0x0028      |          40 |
|      26 | 0x2527      |        9511 |
|      27 | 0x0460      |        1120 |
|      28 | 0x2528      |        9512 |
|      29 | 0x0022      |          34 |
|      30 | 0x2529      |        9513 |
|      31 | 0x252A      |        9514 |
|      32 | 0x252B      |        9515 |
|      33 | 0x0096      |         150 |
|      34 | 0x00B4      |         180 |
|      35 | 0x00B2      |         178 |
|      36 | 0x252C      |        9516 |
|      37 | 0x252D      |        9517 |
|      38 | 0x252E      |        9518 |
|      39 | 0x252F      |        9519 |
|      40 | 0x2530      |        9520 |
|      41 | 0x2531      |        9521 |
|      42 | 0x2532      |        9522 |
|      43 | 0x2533      |        9523 |
|      44 | 0x2534      |        9524 |
|      45 | 0x0004      |           4 |
|      46 | 0x2535      |        9525 |
|      47 | 0x2536      |        9526 |
|      48 | 0x2537      |        9527 |
|      49 | 0x12298     |       74392 |
|      50 | 0xFFFE1A32  |  4294842930 |
|      51 | 0x0644      |        1604 |
|      52 | 0x2538      |        9528 |
|      53 | 0x2539      |        9529 |
|      54 | 0x253A      |        9530 |
|      55 | 0x253B      |        9531 |
|      56 | 0x253C      |        9532 |
|      57 | 0x10C5A     |       68698 |
|      58 | 0xFFFE083B  |  4294838331 |
|      59 | 0x0882      |        2178 |
|      60 | 0x10DBB     |       69051 |
|      61 | 0xFFFE10BE  |  4294840510 |
|      62 | 0x1089F     |       67743 |
|      63 | 0xFFFE1147  |  4294840647 |
|      64 | 0x108A0     |       67744 |
|      65 | 0xFFFE0AE1  |  4294839009 |
|      66 | 0x005A      |          90 |
|      67 | 0x283D      |       10301 |
|      68 | 0x253D      |        9533 |
|      69 | 0x0381      |         897 |
|      70 | 0x253E      |        9534 |
|      71 | 0x0024      |          36 |
|      72 | 0x253F      |        9535 |
|      73 | 0x2540      |        9536 |
|      74 | 0x2541      |        9537 |
|      75 | 0x0005      |           5 |
|      76 | 0x0006      |           6 |
|      77 | 0x0008      |           8 |
|      78 | 0x2542      |        9538 |
|      79 | 0x2543      |        9539 |
|      80 | 0x2544      |        9540 |
|      81 | 0x0021      |          33 |
|      82 | 0x2545      |        9541 |
|      83 | 0x0233      |         563 |
|      84 | 0x7550      |       30032 |
|      85 | 0xFFFF240A  |  4294910986 |
|      86 | 0x0FCF      |        4047 |
|      87 | 0x014B      |         331 |
|      88 | 0x26B5      |        9909 |
|      89 | 0x26B6      |        9910 |
|      90 | 0x66F7      |       26359 |
|      91 | 0xFFFF4DAC  |  4294921644 |
|      92 | 0xFFFFE184  |  4294959492 |
|      93 | 0x07E2      |        2018 |
|      94 | 0x035E      |         862 |
|      95 | 0x26B7      |        9911 |
|      96 | 0x0364      |         868 |
|      97 | 0x26B8      |        9912 |
|      98 | 0x0015      |          21 |
|      99 | 0x26B9      |        9913 |
|     100 | 0x0356      |         854 |
|     101 | 0x26BA      |        9914 |
|     102 | 0x0001      |           1 |
|     103 | 0x26BB      |        9915 |
|     104 | 0x6ED7      |       28375 |
|     105 | 0xFFFF4E2A  |  4294921770 |
|     106 | 0x06B0      |        1712 |
|     107 | 0x26BC      |        9916 |
|     108 | 0x0341      |         833 |
|     109 | 0x26BD      |        9917 |
|     110 | 0x26BE      |        9918 |
|     111 | 0x26BF      |        9919 |
|     112 | 0x0007      |           7 |
|     113 | 0x26C0      |        9920 |
|     114 | 0x0342      |         834 |
|     115 | 0x26C1      |        9921 |
|     116 | 0x26C2      |        9922 |
|     117 | 0x26C3      |        9923 |
|     118 | 0x0081      |         129 |
|     119 | 0x0343      |         835 |
|     120 | 0x26C4      |        9924 |
|     121 | 0x26C5      |        9925 |
|     122 | 0x000D      |          13 |
|     123 | 0x26C6      |        9926 |
|     124 | 0x26C7      |        9927 |
|     125 | 0x26C8      |        9928 |
|     126 | 0x26C9      |        9929 |
|     127 | 0x000B      |          11 |
|     128 | 0x26CA      |        9930 |
|     129 | 0x26CB      |        9931 |
|     130 | 0x26CC      |        9932 |
|     131 | 0x26CD      |        9933 |
|     132 | 0x26CE      |        9934 |
|     133 | 0x26CF      |        9935 |
|     134 | 0x26D0      |        9936 |
|     135 | 0x26D1      |        9937 |
|     136 | 0x26D2      |        9938 |
|     137 | 0x26D3      |        9939 |
|     138 | 0x022F      |         559 |
|     139 | 0x0269      |         617 |
|     140 | 0xACFB      |       44283 |
|     141 | 0x0A87      |        2695 |
|     142 | 0xFFFFFDD1  |  4294966737 |
|     143 | 0xAB16      |       43798 |
|     144 | 0x0B9F      |        2975 |
|     145 | 0xFFFFF09A  |  4294963354 |
|     146 | 0xC1AB      |       49579 |
|     147 | 0x0002      |           2 |
|     148 | 0x099B      |        2459 |
|     149 | 0xC23A      |       49722 |
|     150 | 0x0801      |        2049 |
|     151 | 0x0EC8      |        3784 |
|     152 | 0xB43C      |       46140 |
|     153 | 0x05BF      |        1471 |
|     154 | 0xFFFFF143  |  4294963523 |
|     155 | 0xA853      |       43091 |
|     156 | 0x028A      |         650 |
|     157 | 0xFFFFF16D  |  4294963565 |
|     158 | 0xB3DC      |       46044 |
|     159 | 0x02F2      |         754 |
|     160 | 0xFFFFF172  |  4294963570 |
|     161 | 0xADB3      |       44467 |
|     162 | 0xFFFFF12A  |  4294963498 |
|     163 | 0xA31B      |       41755 |
|     164 | 0x0238      |         568 |
|     165 | 0xFFFFF12B  |  4294963499 |
|     166 | 0x9F28      |       40744 |
|     167 | 0x030B      |         779 |
|     168 | 0xC153      |       49491 |
|     169 | 0x049B      |        1179 |
|     170 | 0x035F      |         863 |
|     171 | 0x014C      |         332 |
|     172 | 0x26D8      |        9944 |
|     173 | 0x26D9      |        9945 |
|     174 | 0x26DA      |        9946 |
|     175 | 0x26DB      |        9947 |
|     176 | 0x26DC      |        9948 |
|     177 | 0x26DD      |        9949 |
|     178 | 0x26DE      |        9950 |
|     179 | 0x26DF      |        9951 |
|     180 | 0x26E0      |        9952 |
|     181 | 0x26E1      |        9953 |
|     182 | 0x26E2      |        9954 |
|     183 | 0x26E3      |        9955 |
|     184 | 0x03F1      |        1009 |
|     185 | 0x26E4      |        9956 |
|     186 | 0xFFFFF15B  |  4294963547 |
|     187 | 0xC5BE      |       50622 |
|     188 | 0x0E44      |        3652 |
|     189 | 0xFFFFEE43  |  4294962755 |
|     190 | 0xC1A8      |       49576 |
|     191 | 0x0645      |        1605 |
|     192 | 0x09F6      |        2550 |
|     193 | 0xBDAA      |       48554 |
|     194 | 0x007A      |         122 |
|     195 | 0x00FE      |         254 |
|     196 | 0x26E5      |        9957 |
|     197 | 0x26E6      |        9958 |
|     198 | 0x00B6      |         182 |
|     199 | 0x0029      |          41 |
|     200 | 0x26E7      |        9959 |
|     201 | 0x26E8      |        9960 |
|     202 | 0x26E9      |        9961 |
|     203 | 0x26EA      |        9962 |
|     204 | 0x04C4      |        1220 |
|     205 | 0x26EB      |        9963 |
|     206 | 0x26EC      |        9964 |
|     207 | 0x26ED      |        9965 |
|     208 | 0x03BD      |         957 |
|     209 | 0x00F0      |         240 |
|     210 | 0x26EE      |        9966 |
|     211 | 0x037B      |         891 |
|     212 | 0x26EF      |        9967 |
|     213 | 0x26F0      |        9968 |
|     214 | 0x046D      |        1133 |
|     215 | 0x1FC0      |        8128 |
|     216 | 0x26F1      |        9969 |
|     217 | 0x26F2      |        9970 |
|     218 | 0x26F3      |        9971 |
|     219 | 0x26F4      |        9972 |
|     220 | 0x26F5      |        9973 |
|     221 | 0x0014      |          20 |
|     222 | 0x26F6      |        9974 |
|     223 | 0x26F7      |        9975 |
|     224 | 0x046E      |        1134 |
|     225 | 0x26F8      |        9976 |
|     226 | 0x26F9      |        9977 |
|     227 | 0x26FA      |        9978 |
|     228 | 0x26FB      |        9979 |
|     229 | 0x26FC      |        9980 |
|     230 | 0x26FD      |        9981 |
|     231 | 0x26FE      |        9982 |
|     232 | 0x26FF      |        9983 |
|     233 | 0x0116      |         278 |
|     234 | 0x2700      |        9984 |
|     235 | 0x2701      |        9985 |
|     236 | 0x0318      |         792 |
|     237 | 0x2702      |        9986 |
|     238 | 0x0344      |         836 |
|     239 | 0x2703      |        9987 |
|     240 | 0x2704      |        9988 |
|     241 | 0x2705      |        9989 |
|     242 | 0x2706      |        9990 |
|     243 | 0x2707      |        9991 |
|     244 | 0x2708      |        9992 |
|     245 | 0x2709      |        9993 |
|     246 | 0x270A      |        9994 |
|     247 | 0x270B      |        9995 |
|     248 | 0x270C      |        9996 |
|     249 | 0x270D      |        9997 |
|     250 | 0x270E      |        9998 |
|     251 | 0x270F      |        9999 |
|     252 | 0x2710      |       10000 |
|     253 | 0x2711      |       10001 |
|     254 | 0x2712      |       10002 |
|     255 | 0x2713      |       10003 |
|     256 | 0x2714      |       10004 |
|     257 | 0x2715      |       10005 |
|     258 | 0x2716      |       10006 |
|     259 | 0x2717      |       10007 |
|     260 | 0x2718      |       10008 |
|     261 | 0x2719      |       10009 |
|     262 | 0x271A      |       10010 |
|     263 | 0x004D      |          77 |
|     264 | 0x0010      |          16 |
|     265 | 0xFFF8AD5F  |  4294487391 |
|     266 | 0x65476     |      414838 |
|     267 | 0xFFFFF061  |  4294963297 |
|     268 | 0x0C0F      |        3087 |
|     269 | 0xFFF89ACD  |  4294482637 |
|     270 | 0x668A0     |      420000 |
|     271 | 0xFFFFF093  |  4294963347 |
|     272 | 0x0495      |        1173 |
|     273 | 0x04A4      |        1188 |
|     274 | 0x049E      |        1182 |
|     275 | 0x0144      |         324 |
|     276 | 0x00D7      |         215 |
|     277 | 0x271B      |       10011 |
|     278 | 0x271C      |       10012 |
|     279 | 0x271D      |       10013 |
|     280 | 0x004E      |          78 |
|     281 | 0xFFFBB9EE  |  4294687214 |
|     282 | 0xFFFF62BD  |  4294927037 |
|     283 | 0x84CF      |       33999 |
|     284 | 0x0D9A      |        3482 |
|     285 | 0x004A      |          74 |
|     286 | 0x040C      |        1036 |
|     287 | 0x0048      |          72 |
|     288 | 0x271E      |       10014 |
|     289 | 0x0384      |         900 |
|     290 | 0x013E      |         318 |
|     291 | 0x271F      |       10015 |
|     292 | 0x2720      |       10016 |
|     293 | 0x2721      |       10017 |
|     294 | 0x042C      |        1068 |
|     295 | 0x2722      |       10018 |
|     296 | 0x2723      |       10019 |
|     297 | 0x2724      |       10020 |
|     298 | 0x2725      |       10021 |
|     299 | 0x039E      |         926 |
|     300 | 0x2726      |       10022 |
|     301 | 0x2727      |       10023 |
|     302 | 0x0434      |        1076 |
|     303 | 0x2728      |       10024 |
|     304 | 0x2729      |       10025 |
|     305 | 0x272A      |       10026 |
|     306 | 0x272B      |       10027 |
|     307 | 0x272C      |       10028 |
|     308 | 0x272D      |       10029 |
|     309 | 0x272E      |       10030 |
|     310 | 0x272F      |       10031 |
|     311 | 0x2730      |       10032 |
|     312 | 0x2731      |       10033 |
|     313 | 0x2732      |       10034 |
|     314 | 0x2733      |       10035 |
|     315 | 0x2734      |       10036 |
|     316 | 0xFFFFE608  |  4294960648 |
|     317 | 0xCA20      |       51744 |
|     318 | 0x0C07      |        3079 |
|     319 | 0x2735      |       10037 |
|     320 | 0x0351      |         849 |
|     321 | 0x002D      |          45 |
|     322 | 0x2736      |       10038 |
|     323 | 0x0045      |          69 |
|     324 | 0x2737      |       10039 |
|     325 | 0x2738      |       10040 |
|     326 | 0x00BD      |         189 |
|     327 | 0x041D      |        1053 |
|     328 | 0x2739      |       10041 |
|     329 | 0x273A      |       10042 |
|     330 | 0x273B      |       10043 |
|     331 | 0x0353      |         851 |
|     332 | 0x273C      |       10044 |
|     333 | 0x273D      |       10045 |
|     334 | 0x273E      |       10046 |
|     335 | 0x273F      |       10047 |
|     336 | 0x2740      |       10048 |
|     337 | 0x0399      |         921 |
|     338 | 0x2741      |       10049 |
|     339 | 0x2742      |       10050 |
|     340 | 0x2743      |       10051 |
|     341 | 0x2744      |       10052 |
|     342 | 0x2745      |       10053 |
|     343 | 0x0389      |         905 |
|     344 | 0x2746      |       10054 |
|     345 | 0x2747      |       10055 |
|     346 | 0x2748      |       10056 |
|     347 | 0x2749      |       10057 |
|     348 | 0x274A      |       10058 |
|     349 | 0x274B      |       10059 |
|     350 | 0x274C      |       10060 |
|     351 | 0x274D      |       10061 |
|     352 | 0xBDF8      |       48632 |
|     353 | 0x03E8      |        1000 |
|     354 | 0x04CA      |        1226 |
|     355 | 0xB414      |       46100 |
|     356 | 0x0C00      |        3072 |
|     357 | 0x0003      |           3 |
|     358 | 0x0064      |         100 |
|     359 | 0x274E      |       10062 |
|     360 | 0x00BF      |         191 |
|     361 | 0x0042      |          66 |
|     362 | 0x274F      |       10063 |
|     363 | 0xFFFFFFE6  |  4294967270 |
|     364 | 0xC15A      |       49498 |
|     365 | 0xFFFFFDFA  |  4294966778 |
|     366 | 0xB7F3      |       47091 |
|     367 | 0x067E      |        1662 |
|     368 | 0x0019      |          25 |
|     369 | 0x0088      |         136 |
|     370 | 0x2750      |       10064 |
|     371 | 0x1F85      |        8069 |
|     372 | 0x2751      |       10065 |
|     373 | 0x2752      |       10066 |
|     374 | 0x2753      |       10067 |
|     375 | 0x2754      |       10068 |
|     376 | 0x2755      |       10069 |
|     377 | 0x2756      |       10070 |
|     378 | 0x2757      |       10071 |
|     379 | 0x2758      |       10072 |
|     380 | 0x2759      |       10073 |
|     381 | 0x275A      |       10074 |
|     382 | 0x275B      |       10075 |
|     383 | 0x275C      |       10076 |
|     384 | 0x275D      |       10077 |
|     385 | 0x275E      |       10078 |
|     386 | 0x275F      |       10079 |
|     387 | 0x2760      |       10080 |
|     388 | 0x2761      |       10081 |
|     389 | 0x0063      |          99 |
|     390 | 0x2762      |       10082 |
|     391 | 0x035A      |         858 |
|     392 | 0x2763      |       10083 |
|     393 | 0x2764      |       10084 |
|     394 | 0x3DBF      |       15807 |
|     395 | 0x2765      |       10085 |
|     396 | 0x2768      |       10088 |
|     397 | 0x2769      |       10089 |
|     398 | 0x276A      |       10090 |
|     399 | 0x276B      |       10091 |
|     400 | 0x276C      |       10092 |
|     401 | 0x3DC0      |       15808 |
|     402 | 0x2766      |       10086 |
|     403 | 0x3DC1      |       15809 |
|     404 | 0x2767      |       10087 |
|     405 | 0x276D      |       10093 |
|     406 | 0x276E      |       10094 |
|     407 | 0x276F      |       10095 |
|     408 | 0xFFFFFC12  |  4294966290 |
|     409 | 0xC38E      |       50062 |
|     410 | 0x0C84      |        3204 |
|     411 | 0x2770      |       10096 |
|     412 | 0x2771      |       10097 |
|     413 | 0x2772      |       10098 |
|     414 | 0x2773      |       10099 |
|     415 | 0x046F      |        1135 |
|     416 | 0x2774      |       10100 |
|     417 | 0x2775      |       10101 |
|     418 | 0x2776      |       10102 |
|     419 | 0xFFFFFF0E  |  4294967054 |
|     420 | 0xBC6A      |       48234 |
|     421 | 0x2777      |       10103 |
|     422 | 0x2778      |       10104 |
|     423 | 0x2779      |       10105 |
|     424 | 0x0352      |         850 |
|     425 | 0x277A      |       10106 |
|     426 | 0x277B      |       10107 |
|     427 | 0x042D      |        1069 |
|     428 | 0x277C      |       10108 |
|     429 | 0x277E      |       10110 |
|     430 | 0x277F      |       10111 |
|     431 | 0x2780      |       10112 |
|     432 | 0x277D      |       10109 |
|     433 | 0x0032      |          50 |
|     434 | 0x0110      |         272 |
|     435 | 0x03E7      |         999 |

## String References

- **9509**: Wha-wha-what!?
- **9515**: Hey! Would you put a sock in it and let me finish!?
- **9534**: Naji hands you $6!
- **9919**: Think you've won? [I'm pretty sure I won.../It's not over yet...]
- **9936**: Did you show your mercenary mettle? [I sure did./I just did my job.]
- **10034**: Will you perform this duty? [It will be my pleasure./I cannot accept this honor...]
- **10082**: Which do you choose? [I...I can't decide.../#./$1./$2.]
- **10088**: Will you choose $0? [Yes, I've made my choice./Can I see the other rings again?]
- **10090**: Nashmeira presents you with $0!
- **10107**: Mnejing hands you $0!
- **10301**: 

## Events

### Event 65535

#### Metadata

| Field        | Value   |
|--------------|---------|
| Entrypoint   | 0x0000  |
| Data Size    | 1 bytes |
| Instructions | 1       |

```
      00 01 02 03 04 05 06 07  08 09 0A 0B 0C 0D 0E 0F
      -- -- -- -- -- -- -- --  -- -- -- -- -- -- -- --
0000: 00                                                .               
```

#### Opcodes

```
  0: 0x0000 [0x00] END_REQSTACK()
```

### Event 3136

#### Metadata

| Field        | Value      |
|--------------|------------|
| Entrypoint   | 0x0001     |
| Data Size    | 2780 bytes |
| Instructions | 299        |

```
      00 01 02 03 04 05 06 07  08 09 0A 0B 0C 0D 0E 0F
      -- -- -- -- -- -- -- --  -- -- -- -- -- -- -- --
0000:    42 45 00 80 F8 FF FF  7F F8 FF FF 7F 66 64 6F   BE..........fdo
0010: 31 01 80 55 00 80 F8 FF  FF 7F F8 FF FF 7F 66 64  1..U..........fd
0020: 6F 31 46 01 38 02 80 79  00 F0 FF FF 7F F0 FF FF  o1F.8..y........
0030: 7F 4E 00 0B 22 03 01 2F  00 E2 20 03 01 4E 00 E2  .N.."../.. ..N..
0040: 20 03 01 2F 00 D2 20 03  01 4E 00 D2 20 03 01 94   ../.. ..N.. ...
0050: 01 F0 FF FF 7F 94 01 E2  20 03 01 94 01 79 20 03  ........ ....y .
0060: 01 94 01 D2 20 03 01 27  10 D2 20 03 01 11 BA E2  .... ..'.. .....
0070: 20 03 01 03 80 04 80 05  80 06 80 BA 79 20 03 01   ...........y ..
0080: 07 80 08 80 09 80 0A 80  BA F0 FF FF 7F 0B 80 0C  ................
0090: 80 0D 80 0E 80 BA 0B 22  03 01 0B 80 0C 80 0D 80  ......."........
00A0: 0E 80 80 F0 FF FF 7F 80  79 20 03 01 80 E2 20 03  ........y .... .
00B0: 01 80 D2 20 03 01 4A D2  20 03 01 E2 20 03 01 4A  ... ..J. ... ..J
00C0: 79 20 03 01 E2 20 03 01  1C 0F 80 5B 10 80 D2 20  y ... .....[... 
00D0: 03 01 D2 20 03 01 73 7A  30 30 45 11 80 F8 FF FF  ... ..sz00E.....
00E0: 7F F8 FF FF 7F 73 30 30  32 01 80 1C 12 80 45 00  .....s002.....E.
00F0: 80 F8 FF FF 7F F8 FF FF  7F 66 64 69 31 01 80 55  .........fdi1..U
0100: 00 80 F8 FF FF 7F F8 FF  FF 7F 66 64 69 31 5B 13  ..........fdi1[.
0110: 80 E2 20 03 01 E2 20 03  01 61 67 75 30 1C 14 80  .. ... ..agu0...
0120: 5B 13 80 E2 20 03 01 E2  20 03 01 61 67 61 30 5B  [... ... ..aga0[
0130: 13 80 E2 20 03 01 E2 20  03 01 61 67 61 31 27 05  ... ... ..aga1'.
0140: 0B 22 03 01 2D 1C 15 80  52 11 80 F8 FF FF 7F F8  ."..-...R.......
0150: FF FF 7F 73 30 30 32 45  11 80 F8 FF FF 7F F8 FF  ...s002E........
0160: FF 7F 73 30 30 33 01 80  2A 05 0B 22 03 01 52 11  ..s003..*.."..R.
0170: 80 F8 FF FF 7F F8 FF FF  7F 73 30 30 33 45 11 80  .........s003E..
0180: F8 FF FF 7F F8 FF FF 7F  73 30 30 34 01 80 79 00  ........s004..y.
0190: F0 FF FF 7F 79 20 03 01  1D 16 80 23 52 11 80 F8  ....y .....#R...
01A0: FF FF 7F F8 FF FF 7F 73  30 30 34 45 11 80 F8 FF  .......s004E....
01B0: FF 7F F8 FF FF 7F 73 30  30 37 01 80 4A F0 FF FF  ......s007..J...
01C0: 7F 79 20 03 01 6E 79 20  03 01 17 80 99 79 20 03  .y ..ny .....y .
01D0: 01 2B 79 20 03 01 18 80  23 66 19 80 79 20 03 01  .+y ....#f..y ..
01E0: 79 20 03 01 69 72 6F 30  2B 79 20 03 01 1A 80 23  y ..iro0+y ....#
01F0: 52 11 80 F8 FF FF 7F F8  FF FF 7F 73 30 30 37 45  R..........s007E
0200: 11 80 F8 FF FF 7F F8 FF  FF 7F 73 30 30 36 01 80  ..........s006..
0210: 5B 1B 80 D2 20 03 01 D2  20 03 01 73 7A 6C 30 2B  [... ... ..szl0+
0220: D2 20 03 01 1C 80 23 4A  79 20 03 01 D2 20 03 01  . ....#Jy ... ..
0230: 1C 0F 80 66 1D 80 79 20  03 01 79 20 03 01 74 6C  ...f..y ..y ..tl
0240: 62 30 2B 79 20 03 01 1E  80 23 2B 79 20 03 01 1F  b0+y ....#+y ...
0250: 80 23 66 1D 80 79 20 03  01 79 20 03 01 74 6C 62  .#f..y ..y ..tlb
0260: 31 5D 01 80 0F 80 52 11  80 F8 FF FF 7F F8 FF FF  1]....R.........
0270: 7F 73 30 30 36 45 11 80  F8 FF FF 7F F8 FF FF 7F  .s006E..........
0280: 73 30 31 33 01 80 1D 20  80 23 5C 00 14 80 5C 01  s013... .#\...\.
0290: 14 80 9A 52 11 80 F8 FF  FF 7F F8 FF FF 7F 73 30  ...R..........s0
02A0: 31 33 45 11 80 F8 FF FF  7F F8 FF FF 7F 73 30 33  13E..........s03
02B0: 33 01 80 5B 1B 80 D2 20  03 01 D2 20 03 01 73 7A  3..[... ... ..sz
02C0: 6C 31 1C 21 80 52 11 80  F8 FF FF 7F F8 FF FF 7F  l1.!.R..........
02D0: 73 30 33 33 45 11 80 F8  FF FF 7F F8 FF FF 7F 73  s033E..........s
02E0: 30 33 34 01 80 4A 79 20  03 01 E2 20 03 01 1C 21  034..Jy ... ...!
02F0: 80 52 11 80 F8 FF FF 7F  F8 FF FF 7F 73 30 33 34  .R..........s034
0300: 45 11 80 F8 FF FF 7F F8  FF FF 7F 73 30 33 35 01  E..........s035.
0310: 80 1C 22 80 5D 01 80 0F  80 52 11 80 F8 FF FF 7F  ..".]....R......
0320: F8 FF FF 7F 73 30 33 35  45 11 80 F8 FF FF 7F F8  ....s035E.......
0330: FF FF 7F 73 30 33 36 01  80 1C 14 80 5C 00 23 80  ...s036.....\.#.
0340: 5C 01 23 80 9A 52 11 80  F8 FF FF 7F F8 FF FF 7F  \.#..R..........
0350: 73 30 33 36 45 11 80 F8  FF FF 7F F8 FF FF 7F 73  s036E..........s
0360: 30 33 37 01 80 66 19 80  79 20 03 01 79 20 03 01  037..f..y ..y ..
0370: 74 6C 6B 30 2B 79 20 03  01 24 80 23 66 19 80 79  tlk0+y ..$.#f..y
0380: 20 03 01 79 20 03 01 74  6C 6B 31 5B 13 80 E2 20   ..y ..tlk1[... 
0390: 03 01 E2 20 03 01 61 67  61 32 52 11 80 F8 FF FF  ... ..aga2R.....
03A0: 7F F8 FF FF 7F 73 30 33  37 45 11 80 F8 FF FF 7F  .....s037E......
03B0: F8 FF FF 7F 73 30 31 35  01 80 4A 79 20 03 01 E2  ....s015..Jy ...
03C0: 20 03 01 2B E2 20 03 01  25 80 23 52 11 80 F8 FF   ..+. ..%.#R....
03D0: FF 7F F8 FF FF 7F 73 30  31 35 45 11 80 F8 FF FF  ......s015E.....
03E0: 7F F8 FF FF 7F 73 30 31  34 01 80 2B D2 20 03 01  .....s014..+. ..
03F0: 26 80 23 5B 13 80 E2 20  03 01 E2 20 03 01 61 67  &.#[... ... ..ag
0400: 61 72 52 11 80 F8 FF FF  7F F8 FF FF 7F 73 30 31  arR..........s01
0410: 34 45 11 80 F8 FF FF 7F  F8 FF FF 7F 73 30 32 39  4E..........s029
0420: 01 80 2B E2 20 03 01 27  80 23 2B E2 20 03 01 28  ..+. ..'.#+. ..(
0430: 80 23 52 11 80 F8 FF FF  7F F8 FF FF 7F 73 30 32  .#R..........s02
0440: 39 45 11 80 F8 FF FF 7F  F8 FF FF 7F 73 30 31 38  9E..........s018
0450: 01 80 66 19 80 79 20 03  01 79 20 03 01 74 6C 6B  ..f..y ..y ..tlk
0460: 30 2B 79 20 03 01 29 80  23 66 19 80 79 20 03 01  0+y ..).#f..y ..
0470: 79 20 03 01 74 6C 6B 31  5B 13 80 E2 20 03 01 E2  y ..tlk1[... ...
0480: 20 03 01 61 67 61 30 2B  E2 20 03 01 2A 80 23 52   ..aga0+. ..*.#R
0490: 11 80 F8 FF FF 7F F8 FF  FF 7F 73 30 31 38 45 11  ..........s018E.
04A0: 80 F8 FF FF 7F F8 FF FF  7F 73 30 31 37 01 80 6B  .........s017..k
04B0: 69 64 6C 30 79 20 03 01  5B 13 80 E2 20 03 01 E2  idl0y ..[... ...
04C0: 20 03 01 61 67 61 31 2B  E2 20 03 01 2B 80 23 52   ..aga1+. ..+.#R
04D0: 11 80 F8 FF FF 7F F8 FF  FF 7F 73 30 31 37 45 11  ..........s017E.
04E0: 80 F8 FF FF 7F F8 FF FF  7F 73 30 30 38 01 80 5B  .........s008..[
04F0: 13 80 E2 20 03 01 E2 20  03 01 61 67 61 32 2B E2  ... ... ..aga2+.
0500: 20 03 01 2C 80 23 1C 15  80 6E 79 20 03 01 2D 80   ..,.#...ny ..-.
0510: 99 79 20 03 01 52 11 80  F8 FF FF 7F F8 FF FF 7F  .y ..R..........
0520: 73 30 30 38 45 11 80 F8  FF FF 7F F8 FF FF 7F 73  s008E..........s
0530: 30 32 32 01 80 5B 1B 80  D2 20 03 01 D2 20 03 01  022..[... ... ..
0540: 73 7A 6C 30 1C 14 80 5B  13 80 E2 20 03 01 E2 20  szl0...[... ... 
0550: 03 01 61 67 61 31 52 11  80 F8 FF FF 7F F8 FF FF  ..aga1R.........
0560: 7F 73 30 32 32 45 11 80  F8 FF FF 7F F8 FF FF 7F  .s022E..........
0570: 73 30 31 32 01 80 2B E2  20 03 01 2E 80 23 52 11  s012..+. ....#R.
0580: 80 F8 FF FF 7F F8 FF FF  7F 73 30 31 32 45 11 80  .........s012E..
0590: F8 FF FF 7F F8 FF FF 7F  73 30 30 35 01 80 5B 13  ........s005..[.
05A0: 80 E2 20 03 01 E2 20 03  01 61 67 61 32 5B 1B 80  .. ... ..aga2[..
05B0: D2 20 03 01 D2 20 03 01  73 7A 6C 31 2B D2 20 03  . ... ..szl1+. .
05C0: 01 2F 80 23 52 11 80 F8  FF FF 7F F8 FF FF 7F 73  ./.#R..........s
05D0: 30 30 35 45 11 80 F8 FF  FF 7F F8 FF FF 7F 73 30  005E..........s0
05E0: 33 30 01 80 79 00 E2 20  03 01 D2 20 03 01 2B E2  30..y.. ... ..+.
05F0: 20 03 01 30 80 23 5B 13  80 E2 20 03 01 E2 20 03   ..0.#[... ... .
0600: 01 61 67 61 72 BA F0 FF  FF 7F 31 80 32 80 0D 80  .agar.....1.2...
0610: 33 80 BA 0B 22 03 01 31  80 32 80 0D 80 33 80 80  3..."..1.2...3..
0620: F0 FF FF 7F 52 11 80 F8  FF FF 7F F8 FF FF 7F 73  ....R..........s
0630: 30 33 30 45 11 80 F8 FF  FF 7F F8 FF FF 7F 73 30  030E..........s0
0640: 31 30 01 80 7B E2 20 03  01 5B 1B 80 D2 20 03 01  10..{. ..[... ..
0650: D2 20 03 01 73 7A 6C 30  27 05 79 20 03 01 16 5B  . ..szl0'.y ...[
0660: 13 80 E2 20 03 01 E2 20  03 01 61 67 62 30 2B 79  ... ... ..agb0+y
0670: 20 03 01 34 80 23 2A 05  79 20 03 01 27 05 0B 22   ..4.#*.y ..'.."
0680: 03 01 2E 1C 0F 80 52 11  80 F8 FF FF 7F F8 FF FF  ......R.........
0690: 7F 73 30 31 30 45 11 80  F8 FF FF 7F F8 FF FF 7F  .s010E..........
06A0: 73 30 30 39 01 80 66 19  80 79 20 03 01 79 20 03  s009..f..y ..y .
06B0: 01 64 69 73 30 2B 79 20  03 01 35 80 23 2A 05 0B  .dis0+y ..5.#*..
06C0: 22 03 01 53 79 20 03 01  79 20 03 01 64 69 73 30  "..Sy ..y ..dis0
06D0: 52 11 80 F8 FF FF 7F F8  FF FF 7F 73 30 30 39 45  R..........s009E
06E0: 11 80 F8 FF FF 7F F8 FF  FF 7F 73 30 31 36 01 80  ..........s016..
06F0: 29 05 79 20 03 01 17 4A  79 20 03 01 F0 FF FF 7F  ).y ...Jy ......
0700: 7C 00 79 20 03 01 2B 79  20 03 01 36 80 23 7C 01  |.y ..+y ..6.#|.
0710: 79 20 03 01 52 11 80 F8  FF FF 7F F8 FF FF 7F 73  y ..R..........s
0720: 30 31 36 45 11 80 F8 FF  FF 7F F8 FF FF 7F 73 30  016E..........s0
0730: 31 39 01 80 2B E2 20 03  01 37 80 23 52 11 80 F8  19..+. ..7.#R...
0740: FF FF 7F F8 FF FF 7F 73  30 31 39 45 11 80 F8 FF  .......s019E....
0750: FF 7F F8 FF FF 7F 73 30  32 30 01 80 79 00 F0 FF  ......s020..y...
0760: FF 7F D2 20 03 01 2B D2  20 03 01 38 80 23 45 00  ... ..+. ..8.#E.
0770: 80 F8 FF FF 7F F8 FF FF  7F 66 64 6F 31 01 80 55  .........fdo1..U
0780: 00 80 F8 FF FF 7F F8 FF  FF 7F 66 64 6F 31 52 11  ..........fdo1R.
0790: 80 F8 FF FF 7F F8 FF FF  7F 73 30 32 30 6B 69 64  .........s020kid
07A0: 6C 30 E2 20 03 01 6B 69  64 6C 30 D2 20 03 01 BA  l0. ..kidl0. ...
07B0: F0 FF FF 7F 39 80 3A 80  05 80 3B 80 BA 0B 22 03  ....9.:...;...".
07C0: 01 39 80 3A 80 05 80 3B  80 80 F0 FF FF 7F BA 79  .9.:...;.......y
07D0: 20 03 01 3C 80 3D 80 09  80 3B 80 80 79 20 03 01   ..<.=...;..y ..
07E0: BA D2 20 03 01 3E 80 3F  80 09 80 3B 80 80 D2 20  .. ..>.?...;... 
07F0: 03 01 BA E2 20 03 01 40  80 41 80 09 80 3B 80 80  .... ..@.A...;..
0800: E2 20 03 01 4A F0 FF FF  7F E2 20 03 01 4A E2 20  . ..J..... ..J. 
0810: 03 01 F0 FF FF 7F 4A 79  20 03 01 F0 FF FF 7F 4A  ......Jy ......J
0820: D2 20 03 01 F0 FF FF 7F  1C 42 80 48 43 80 23 45  . .......B.HC.#E
0830: 11 80 F8 FF FF 7F F8 FF  FF 7F 73 30 32 31 01 80  ..........s021..
0840: 1C 12 80 45 00 80 F8 FF  FF 7F F8 FF FF 7F 66 64  ...E..........fd
0850: 69 31 01 80 55 00 80 F8  FF FF 7F F8 FF FF 7F 66  i1..U..........f
0860: 64 69 31 6E E2 20 03 01  01 80 99 E2 20 03 01 2B  di1n. ...... ..+
0870: E2 20 03 01 44 80 23 03  02 10 45 80 48 46 80 1C  . ..D.#...E.HF..
0880: 14 80 52 11 80 F8 FF FF  7F F8 FF FF 7F 73 30 32  ..R..........s02
0890: 31 45 11 80 F8 FF FF 7F  F8 FF FF 7F 73 30 32 33  1E..........s023
08A0: 01 80 4A 79 20 03 01 E2  20 03 01 6E E2 20 03 01  ..Jy ... ..n. ..
08B0: 47 80 99 E2 20 03 01 2B  E2 20 03 01 48 80 23 1C  G... ..+. ..H.#.
08C0: 0F 80 52 11 80 F8 FF FF  7F F8 FF FF 7F 73 30 32  ..R..........s02
08D0: 33 45 11 80 F8 FF FF 7F  F8 FF FF 7F 73 30 32 34  3E..........s024
08E0: 01 80 66 1D 80 79 20 03  01 79 20 03 01 74 6C 62  ..f..y ..y ..tlb
08F0: 30 2B 79 20 03 01 49 80  23 66 1D 80 79 20 03 01  0+y ..I.#f..y ..
0900: 79 20 03 01 74 6C 62 31  79 00 E2 20 03 01 79 20  y ..tlb1y.. ..y 
0910: 03 01 2B E2 20 03 01 4A  80 23 52 11 80 F8 FF FF  ..+. ..J.#R.....
0920: 7F F8 FF FF 7F 73 30 32  34 02 87 7F 4B 80 80 45  .....s024...K..E
0930: 09 45 11 80 F8 FF FF 7F  F8 FF FF 7F 73 30 33 32  .E..........s032
0940: 01 80 01 8E 09 02 87 7F  4C 80 80 61 09 45 11 80  ........L..a.E..
0950: F8 FF FF 7F F8 FF FF 7F  73 30 33 32 01 80 01 8E  ........s032....
0960: 09 02 87 7F 4D 80 80 7D  09 45 11 80 F8 FF FF 7F  ....M..}.E......
0970: F8 FF FF 7F 73 30 33 31  01 80 01 8E 09 45 11 80  ....s031.....E..
0980: F8 FF FF 7F F8 FF FF 7F  73 30 32 35 01 80 79 00  ........s025..y.
0990: E2 20 03 01 F0 FF FF 7F  1C 15 80 2B E2 20 03 01  . .........+. ..
09A0: 4E 80 23 52 11 80 F8 FF  FF 7F F8 FF FF 7F 73 30  N.#R..........s0
09B0: 32 35 52 11 80 F8 FF FF  7F F8 FF FF 7F 73 30 33  25R..........s03
09C0: 31 52 11 80 F8 FF FF 7F  F8 FF FF 7F 73 30 33 32  1R..........s032
09D0: 45 11 80 F8 FF FF 7F F8  FF FF 7F 73 30 32 36 01  E..........s026.
09E0: 80 27 05 E2 20 03 01 02  2B E2 20 03 01 4F 80 23  .'.. ...+. ..O.#
09F0: 2B E2 20 03 01 50 80 23  2A 05 E2 20 03 01 79 00  +. ..P.#*.. ..y.
0A00: D2 20 03 01 E2 20 03 01  52 11 80 F8 FF FF 7F F8  . ... ..R.......
0A10: FF FF 7F 73 30 32 36 45  11 80 F8 FF FF 7F F8 FF  ...s026E........
0A20: FF 7F 73 30 32 38 01 80  4A 79 20 03 01 E2 20 03  ..s028..Jy ... .
0A30: 01 4A F0 FF FF 7F E2 20  03 01 6E E2 20 03 01 51  .J..... ..n. ..Q
0A40: 80 99 E2 20 03 01 2B E2  20 03 01 52 80 23 52 11  ... ..+. ..R.#R.
0A50: 80 F8 FF FF 7F F8 FF FF  7F 73 30 32 38 45 11 80  .........s028E..
0A60: F8 FF FF 7F F8 FF FF 7F  73 30 32 37 01 80 27 05  ........s027..'.
0A70: E2 20 03 01 03 1C 15 80  4A 79 20 03 01 E2 20 03  . ......Jy ... .
0A80: 01 1C 0F 80 66 19 80 79  20 03 01 79 20 03 01 64  ....f..y ..y ..d
0A90: 69 73 30 1C 42 80 45 00  80 F8 FF FF 7F F8 FF FF  is0.B.E.........
0AA0: 7F 66 64 6F 31 01 80 55  00 80 F8 FF FF 7F F8 FF  .fdo1..U........
0AB0: FF 7F 66 64 6F 31 52 11  80 F8 FF FF 7F F8 FF FF  ..fdo1R.........
0AC0: 7F 73 30 32 37 46 00 1C  15 80 45 00 80 F8 FF FF  .s027F....E.....
0AD0: 7F F8 FF FF 7F 66 64 69  32 01 80 21 00           .....fdi2..!.   
```

#### Opcodes

```
  0: 0x0001 [0x42] SET_CLI_EVENT_CANCEL_DATA()
  1: 0x0002 [0x45] LOAD_SCHEDULED_TASK: Load scheduler "fdo1" with entities [EventEntity, EventEntity], work=[200*, 0*]
  2: 0x0013 [0x55] WAIT_LOAD_SCHEDULER: Wait for scheduler "fdo1" with entities [EventEntity, EventEntity], work=200*
  3: 0x0022 [0x46] CAMERA_CONTROL: Disable user control
  4: 0x0024 [0x38] SET_CLIENT_EVENT_MODE(mode=19*)
  5: 0x0027 [0x79] LocalPlayer looks at LocalPlayer (Basic look)
  6: 0x0031 [0x4E] SET_ENTITY_HIDE_FLAG: Show Unnamed NPC (ID: 16982539/0x0103220B)
  7: 0x0037 [0x2F] Naji (ID: 16982242/0x010320E2)->Render.Flags0 &= ~0x80000 // Bit 19
  8: 0x003D [0x4E] SET_ENTITY_HIDE_FLAG: Show Naji (ID: 16982242/0x010320E2)
  9: 0x0043 [0x2F] Travialce (ID: 16982226/0x010320D2)->Render.Flags0 &= ~0x80000 // Bit 19
 10: 0x0049 [0x4E] SET_ENTITY_HIDE_FLAG: Show Travialce (ID: 16982226/0x010320D2)
 11: 0x004F [0x94] LocalPlayer->Render.Flags3 ^= 0x01
 12: 0x0055 [0x94] Naji (ID: 16982242/0x010320E2)->Render.Flags3 ^= 0x01
 13: 0x005B [0x94] Rodin-Comidin (ID: 16982137/0x01032079)->Render.Flags3 ^= 0x01
 14: 0x0061 [0x94] Travialce (ID: 16982226/0x010320D2)->Render.Flags3 ^= 0x01
 15: 0x0067 [0x27] REQ_SET(priority=0x10, entity_id=Travialce (ID: 16982226/0x010320D2), tag_num=0x11)
 16: 0x006E [0xBA] SET_ENTITY_POSITION(entity_id=Naji (ID: 16982242/0x010320E2), pos_x=67.747*, pos_z=-127.637*, pos_y=-6.499*, direction=277.1°*)
 17: 0x007B [0xBA] SET_ENTITY_POSITION(entity_id=Rodin-Comidin (ID: 16982137/0x01032079), pos_x=68.746*, pos_z=-125.765*, pos_y=-6.500*, direction=178.0°*)
 18: 0x0088 [0xBA] SET_ENTITY_POSITION(entity_id=LocalPlayer, pos_x=79.730*, pos_z=-118.902*, pos_y=-6.000*, direction=91.1°*)
 19: 0x0095 [0xBA] SET_ENTITY_POSITION(entity_id=Unnamed NPC (ID: 16982539/0x0103220B), pos_x=79.730*, pos_z=-118.902*, pos_y=-6.000*, direction=91.1°*)
 20: 0x00A2 [0x80] LOAD_WAIT(entity=LocalPlayer)
 21: 0x00A7 [0x80] LOAD_WAIT(entity=Rodin-Comidin (ID: 16982137/0x01032079))
 22: 0x00AC [0x80] LOAD_WAIT(entity=Naji (ID: 16982242/0x010320E2))
 23: 0x00B1 [0x80] LOAD_WAIT(entity=Travialce (ID: 16982226/0x010320D2))
 24: 0x00B6 [0x4A] Travialce (ID: 16982226/0x010320D2) looks at Naji (ID: 16982242/0x010320E2)
 25: 0x00BF [0x4A] Rodin-Comidin (ID: 16982137/0x01032079) looks at Naji (ID: 16982242/0x010320E2)
 26: 0x00C8 [0x1C] WAIT(30* ticks)
 27: 0x00CB [0x5B] LOAD_EXT_SCHEDULER: Load scheduler "sz00" with entities [Travialce (ID: 16982226/0x010320D2), Travialce (ID: 16982226/0x010320D2)], work=894*
 28: 0x00DA [0x45] LOAD_SCHEDULED_TASK: Load scheduler "s002" with entities [EventEntity, EventEntity], work=[288*, 0*]
 29: 0x00EB [0x1C] WAIT(15* ticks)
 30: 0x00EE [0x45] LOAD_SCHEDULED_TASK: Load scheduler "fdi1" with entities [EventEntity, EventEntity], work=[200*, 0*]
 31: 0x00FF [0x55] WAIT_LOAD_SCHEDULER: Wait for scheduler "fdi1" with entities [EventEntity, EventEntity], work=200*
 32: 0x010E [0x5B] LOAD_EXT_SCHEDULER: Load scheduler "agu0" with entities [Naji (ID: 16982242/0x010320E2), Naji (ID: 16982242/0x010320E2)], work=1167*
 33: 0x011D [0x1C] WAIT(120* ticks)
 34: 0x0120 [0x5B] LOAD_EXT_SCHEDULER: Load scheduler "aga0" with entities [Naji (ID: 16982242/0x010320E2), Naji (ID: 16982242/0x010320E2)], work=1167*
 35: 0x012F [0x5B] LOAD_EXT_SCHEDULER: Load scheduler "aga1" with entities [Naji (ID: 16982242/0x010320E2), Naji (ID: 16982242/0x010320E2)], work=1167*
 36: 0x013E [0x27] REQ_SET(priority=0x05, entity_id=Unnamed NPC (ID: 16982539/0x0103220B), tag_num=0x2D)
 37: 0x0145 [0x1C] WAIT(60* ticks)
 38: 0x0148 [0x52] END_LOAD_SCHEDULER: End scheduler "s002" with entities [EventEntity, EventEntity], work=288*
 39: 0x0157 [0x45] LOAD_SCHEDULED_TASK: Load scheduler "s003" with entities [EventEntity, EventEntity], work=[288*, 0*]
 40: 0x0168 [0x2A] GET_REQ_LEVEL(level=5, entity_id=Unnamed NPC (ID: 16982539/0x0103220B))
 41: 0x016E [0x52] END_LOAD_SCHEDULER: End scheduler "s003" with entities [EventEntity, EventEntity], work=288*
 42: 0x017D [0x45] LOAD_SCHEDULED_TASK: Load scheduler "s004" with entities [EventEntity, EventEntity], work=[288*, 0*]
 43: 0x018E [0x79] LocalPlayer looks at Rodin-Comidin (ID: 16982137/0x01032079) (Basic look)
 44: 0x0198 [0x1D] PRINT_EVENT_MESSAGE(message_id=9509*)
    → "Wha-wha-what!?"
 45: 0x019B [0x23] WAIT_FOR_DIALOG_INTERACTION
 46: 0x019C [0x52] END_LOAD_SCHEDULER: End scheduler "s004" with entities [EventEntity, EventEntity], work=288*
 47: 0x01AB [0x45] LOAD_SCHEDULED_TASK: Load scheduler "s007" with entities [EventEntity, EventEntity], work=[288*, 0*]
 48: 0x01BC [0x4A] LocalPlayer looks at Rodin-Comidin (ID: 16982137/0x01032079)
 49: 0x01C5 [0x6E] Rodin-Comidin (ID: 16982137/0x01032079) uses emote 29*
 50: 0x01CC [0x99] Wait for Rodin-Comidin (ID: 16982137/0x01032079) animation to complete
 51: 0x01D1 [0x2B] Rodin-Comidin (ID: 16982137/0x01032079) [9510*]:
    → "How-how-how!?"
 52: 0x01D8 [0x23] WAIT_FOR_DIALOG_INTERACTION
 53: 0x01D9 [0x66] LOAD_EXT_SCHEDULER_MAIN: Load scheduler "iro0" with entities [Rodin-Comidin (ID: 16982137/0x01032079), Rodin-Comidin (ID: 16982137/0x01032079)], work=40*
 54: 0x01E8 [0x2B] Rodin-Comidin (ID: 16982137/0x01032079) [9511*]:
    → "Fine! I'll visit the Grand Duke Palace myself!"
 55: 0x01EF [0x23] WAIT_FOR_DIALOG_INTERACTION
 56: 0x01F0 [0x52] END_LOAD_SCHEDULER: End scheduler "s007" with entities [EventEntity, EventEntity], work=288*
 57: 0x01FF [0x45] LOAD_SCHEDULED_TASK: Load scheduler "s006" with entities [EventEntity, EventEntity], work=[288*, 0*]
 58: 0x0210 [0x5B] LOAD_EXT_SCHEDULER: Load scheduler "szl0" with entities [Travialce (ID: 16982226/0x010320D2), Travialce (ID: 16982226/0x010320D2)], work=1120*
 59: 0x021F [0x2B] Travialce (ID: 16982226/0x010320D2) [9512*]:
    → "Rodin-Comidin. Perhaps you might consider lowering your voice...?"
 60: 0x0226 [0x23] WAIT_FOR_DIALOG_INTERACTION
 61: 0x0227 [0x4A] Rodin-Comidin (ID: 16982137/0x01032079) looks at Travialce (ID: 16982226/0x010320D2)
 62: 0x0230 [0x1C] WAIT(30* ticks)
 63: 0x0233 [0x66] LOAD_EXT_SCHEDULER_MAIN: Load scheduler "tlb0" with entities [Rodin-Comidin (ID: 16982137/0x01032079), Rodin-Comidin (ID: 16982137/0x01032079)], work=34*
 64: 0x0242 [0x2B] Rodin-Comidin (ID: 16982137/0x01032079) [9513*]:
    → "How can you be so calm?"
 65: 0x0249 [0x23] WAIT_FOR_DIALOG_INTERACTION
 66: 0x024A [0x2B] Rodin-Comidin (ID: 16982137/0x01032079) [9514*]:
    → "War is about to engulf us!"
 67: 0x0251 [0x23] WAIT_FOR_DIALOG_INTERACTION
 68: 0x0252 [0x66] LOAD_EXT_SCHEDULER_MAIN: Load scheduler "tlb1" with entities [Rodin-Comidin (ID: 16982137/0x01032079), Rodin-Comidin (ID: 16982137/0x01032079)], work=34*
 69: 0x0261 [0x5D] SET_MUSIC_VOLUME(volume=0*, fade_time=30*)
 70: 0x0266 [0x52] END_LOAD_SCHEDULER: End scheduler "s006" with entities [EventEntity, EventEntity], work=288*
 71: 0x0275 [0x45] LOAD_SCHEDULED_TASK: Load scheduler "s013" with entities [EventEntity, EventEntity], work=[288*, 0*]
 72: 0x0286 [0x1D] PRINT_EVENT_MESSAGE(message_id=9515*)
    → "Hey! Would you put a sock in it and let me finish!?"
 73: 0x0289 [0x23] WAIT_FOR_DIALOG_INTERACTION
 74: 0x028A [0x5C] MUSIC_CONTROL: Set Idle (Day) music to song 120*
 75: 0x028E [0x5C] MUSIC_CONTROL: Set Idle (Night) music to song 120*
 76: 0x0292 [0x9A] WAIT_MUSIC_SERVER()
 77: 0x0293 [0x52] END_LOAD_SCHEDULER: End scheduler "s013" with entities [EventEntity, EventEntity], work=288*
 78: 0x02A2 [0x45] LOAD_SCHEDULED_TASK: Load scheduler "s033" with entities [EventEntity, EventEntity], work=[288*, 0*]
 79: 0x02B3 [0x5B] LOAD_EXT_SCHEDULER: Load scheduler "szl1" with entities [Travialce (ID: 16982226/0x010320D2), Travialce (ID: 16982226/0x010320D2)], work=1120*
 80: 0x02C2 [0x1C] WAIT(150* ticks)
 81: 0x02C5 [0x52] END_LOAD_SCHEDULER: End scheduler "s033" with entities [EventEntity, EventEntity], work=288*
 82: 0x02D4 [0x45] LOAD_SCHEDULED_TASK: Load scheduler "s034" with entities [EventEntity, EventEntity], work=[288*, 0*]
 83: 0x02E5 [0x4A] Rodin-Comidin (ID: 16982137/0x01032079) looks at Naji (ID: 16982242/0x010320E2)
 84: 0x02EE [0x1C] WAIT(150* ticks)
 85: 0x02F1 [0x52] END_LOAD_SCHEDULER: End scheduler "s034" with entities [EventEntity, EventEntity], work=288*
 86: 0x0300 [0x45] LOAD_SCHEDULED_TASK: Load scheduler "s035" with entities [EventEntity, EventEntity], work=[288*, 0*]
 87: 0x0311 [0x1C] WAIT(180* ticks)
 88: 0x0314 [0x5D] SET_MUSIC_VOLUME(volume=0*, fade_time=30*)
 89: 0x0319 [0x52] END_LOAD_SCHEDULER: End scheduler "s035" with entities [EventEntity, EventEntity], work=288*
 90: 0x0328 [0x45] LOAD_SCHEDULED_TASK: Load scheduler "s036" with entities [EventEntity, EventEntity], work=[288*, 0*]
 91: 0x0339 [0x1C] WAIT(120* ticks)
 92: 0x033C [0x5C] MUSIC_CONTROL: Set Idle (Day) music to song 178*
 93: 0x0340 [0x5C] MUSIC_CONTROL: Set Idle (Night) music to song 178*
 94: 0x0344 [0x9A] WAIT_MUSIC_SERVER()
 95: 0x0345 [0x52] END_LOAD_SCHEDULER: End scheduler "s036" with entities [EventEntity, EventEntity], work=288*
 96: 0x0354 [0x45] LOAD_SCHEDULED_TASK: Load scheduler "s037" with entities [EventEntity, EventEntity], work=[288*, 0*]
 97: 0x0365 [0x66] LOAD_EXT_SCHEDULER_MAIN: Load scheduler "tlk0" with entities [Rodin-Comidin (ID: 16982137/0x01032079), Rodin-Comidin (ID: 16982137/0x01032079)], work=40*
 98: 0x0374 [0x2B] Rodin-Comidin (ID: 16982137/0x01032079) [9516*]:
    → "You can't blame a spy for getting excited..."
 99: 0x037B [0x23] WAIT_FOR_DIALOG_INTERACTION
100: 0x037C [0x66] LOAD_EXT_SCHEDULER_MAIN: Load scheduler "tlk1" with entities [Rodin-Comidin (ID: 16982137/0x01032079), Rodin-Comidin (ID: 16982137/0x01032079)], work=40*
101: 0x038B [0x5B] LOAD_EXT_SCHEDULER: Load scheduler "aga2" with entities [Naji (ID: 16982242/0x010320E2), Naji (ID: 16982242/0x010320E2)], work=1167*
102: 0x039A [0x52] END_LOAD_SCHEDULER: End scheduler "s037" with entities [EventEntity, EventEntity], work=288*
103: 0x03A9 [0x45] LOAD_SCHEDULED_TASK: Load scheduler "s015" with entities [EventEntity, EventEntity], work=[288*, 0*]
104: 0x03BA [0x4A] Rodin-Comidin (ID: 16982137/0x01032079) looks at Naji (ID: 16982242/0x010320E2)
105: 0x03C3 [0x2B] Naji (ID: 16982242/0x010320E2) [9517*]:
    → "As I was saying, Ayame has reported that the council hasn't reached a conclusion yet--they've just decided to call a recess."
106: 0x03CA [0x23] WAIT_FOR_DIALOG_INTERACTION
107: 0x03CB [0x52] END_LOAD_SCHEDULER: End scheduler "s015" with entities [EventEntity, EventEntity], work=288*
108: 0x03DA [0x45] LOAD_SCHEDULED_TASK: Load scheduler "s014" with entities [EventEntity, EventEntity], work=[288*, 0*]
109: 0x03EB [0x2B] Travialce (ID: 16982226/0x010320D2) [9518*]:
    → "The council has continued long past its scheduled duration, and now this recess...? Have they made so little progress?"
110: 0x03F2 [0x23] WAIT_FOR_DIALOG_INTERACTION
111: 0x03F3 [0x5B] LOAD_EXT_SCHEDULER: Load scheduler "agar" with entities [Naji (ID: 16982242/0x010320E2), Naji (ID: 16982242/0x010320E2)], work=1167*
112: 0x0402 [0x52] END_LOAD_SCHEDULER: End scheduler "s014" with entities [EventEntity, EventEntity], work=288*
113: 0x0411 [0x45] LOAD_SCHEDULED_TASK: Load scheduler "s029" with entities [EventEntity, EventEntity], work=[288*, 0*]
114: 0x0422 [0x2B] Naji (ID: 16982242/0x010320E2) [9519*]:
    → "How should I know? No one tells me anything. Why don't you ask Ayame next time you see her?"
115: 0x0429 [0x23] WAIT_FOR_DIALOG_INTERACTION
116: 0x042A [0x2B] Naji (ID: 16982242/0x010320E2) [9520*]:
    → "Besides, I'm here on orders from the captain."
117: 0x0431 [0x23] WAIT_FOR_DIALOG_INTERACTION
118: 0x0432 [0x52] END_LOAD_SCHEDULER: End scheduler "s029" with entities [EventEntity, EventEntity], work=288*
119: 0x0441 [0x45] LOAD_SCHEDULED_TASK: Load scheduler "s018" with entities [EventEntity, EventEntity], work=[288*, 0*]
120: 0x0452 [0x66] LOAD_EXT_SCHEDULER_MAIN: Load scheduler "tlk0" with entities [Rodin-Comidin (ID: 16982137/0x01032079), Rodin-Comidin (ID: 16982137/0x01032079)], work=40*
121: 0x0461 [0x2B] Rodin-Comidin (ID: 16982137/0x01032079) [9521*]:
    → "Well, well. Some super-secret state business?"
122: 0x0468 [0x23] WAIT_FOR_DIALOG_INTERACTION
123: 0x0469 [0x66] LOAD_EXT_SCHEDULER_MAIN: Load scheduler "tlk1" with entities [Rodin-Comidin (ID: 16982137/0x01032079), Rodin-Comidin (ID: 16982137/0x01032079)], work=40*
124: 0x0478 [0x5B] LOAD_EXT_SCHEDULER: Load scheduler "aga0" with entities [Naji (ID: 16982242/0x010320E2), Naji (ID: 16982242/0x010320E2)], work=1167*
125: 0x0487 [0x2B] Naji (ID: 16982242/0x010320E2) [9522*]:
    → "Um, well, not exactly..."
126: 0x048E [0x23] WAIT_FOR_DIALOG_INTERACTION
127: 0x048F [0x52] END_LOAD_SCHEDULER: End scheduler "s018" with entities [EventEntity, EventEntity], work=288*
128: 0x049E [0x45] LOAD_SCHEDULED_TASK: Load scheduler "s017" with entities [EventEntity, EventEntity], work=[288*, 0*]
129: 0x04AF [0x6B] STOP_AND_IDLE: Rodin-Comidin (ID: 16982137/0x01032079) stops current action and resets to idle (animation="idl0")
130: 0x04B8 [0x5B] LOAD_EXT_SCHEDULER: Load scheduler "aga1" with entities [Naji (ID: 16982242/0x010320E2), Naji (ID: 16982242/0x010320E2)], work=1167*
131: 0x04C7 [0x2B] Naji (ID: 16982242/0x010320E2) [9523*]:
    → "I'm trying to find a mercenary by the name of <Player>. [He's/She's] supposed to be attending the council."
132: 0x04CE [0x23] WAIT_FOR_DIALOG_INTERACTION
133: 0x04CF [0x52] END_LOAD_SCHEDULER: End scheduler "s017" with entities [EventEntity, EventEntity], work=288*
134: 0x04DE [0x45] LOAD_SCHEDULED_TASK: Load scheduler "s008" with entities [EventEntity, EventEntity], work=[288*, 0*]
135: 0x04EF [0x5B] LOAD_EXT_SCHEDULER: Load scheduler "aga2" with entities [Naji (ID: 16982242/0x010320E2), Naji (ID: 16982242/0x010320E2)], work=1167*
136: 0x04FE [0x2B] Naji (ID: 16982242/0x010320E2) [9524*]:
    → "Ayame said one of you might know where [he/she] is."
137: 0x0505 [0x23] WAIT_FOR_DIALOG_INTERACTION
138: 0x0506 [0x1C] WAIT(60* ticks)
139: 0x0509 [0x6E] Rodin-Comidin (ID: 16982137/0x01032079) uses emote 4*
140: 0x0510 [0x99] Wait for Rodin-Comidin (ID: 16982137/0x01032079) animation to complete
141: 0x0515 [0x52] END_LOAD_SCHEDULER: End scheduler "s008" with entities [EventEntity, EventEntity], work=288*
142: 0x0524 [0x45] LOAD_SCHEDULED_TASK: Load scheduler "s022" with entities [EventEntity, EventEntity], work=[288*, 0*]
143: 0x0535 [0x5B] LOAD_EXT_SCHEDULER: Load scheduler "szl0" with entities [Travialce (ID: 16982226/0x010320D2), Travialce (ID: 16982226/0x010320D2)], work=1120*
144: 0x0544 [0x1C] WAIT(120* ticks)
145: 0x0547 [0x5B] LOAD_EXT_SCHEDULER: Load scheduler "aga1" with entities [Naji (ID: 16982242/0x010320E2), Naji (ID: 16982242/0x010320E2)], work=1167*
146: 0x0556 [0x52] END_LOAD_SCHEDULER: End scheduler "s022" with entities [EventEntity, EventEntity], work=288*
147: 0x0565 [0x45] LOAD_SCHEDULED_TASK: Load scheduler "s012" with entities [EventEntity, EventEntity], work=[288*, 0*]
148: 0x0576 [0x2B] Naji (ID: 16982242/0x010320E2) [9525*]:
    → "What's so damn funny? If you've got something to say to me, then come right out and say it!"
149: 0x057D [0x23] WAIT_FOR_DIALOG_INTERACTION
150: 0x057E [0x52] END_LOAD_SCHEDULER: End scheduler "s012" with entities [EventEntity, EventEntity], work=288*
151: 0x058D [0x45] LOAD_SCHEDULED_TASK: Load scheduler "s005" with entities [EventEntity, EventEntity], work=[288*, 0*]
152: 0x059E [0x5B] LOAD_EXT_SCHEDULER: Load scheduler "aga2" with entities [Naji (ID: 16982242/0x010320E2), Naji (ID: 16982242/0x010320E2)], work=1167*
153: 0x05AD [0x5B] LOAD_EXT_SCHEDULER: Load scheduler "szl1" with entities [Travialce (ID: 16982226/0x010320D2), Travialce (ID: 16982226/0x010320D2)], work=1120*
154: 0x05BC [0x2B] Travialce (ID: 16982226/0x010320D2) [9526*]:
    → "Of course. If anyone would have a more intimate understanding of the state of the Empire than us, it would be <Player>."
155: 0x05C3 [0x23] WAIT_FOR_DIALOG_INTERACTION
156: 0x05C4 [0x52] END_LOAD_SCHEDULER: End scheduler "s005" with entities [EventEntity, EventEntity], work=288*
157: 0x05D3 [0x45] LOAD_SCHEDULED_TASK: Load scheduler "s030" with entities [EventEntity, EventEntity], work=[288*, 0*]
158: 0x05E4 [0x79] Naji (ID: 16982242/0x010320E2) looks at Travialce (ID: 16982226/0x010320D2) (Basic look)
159: 0x05EE [0x2B] Naji (ID: 16982242/0x010320E2) [9527*]:
    → "Great. Now where do I find [him/her]?"
160: 0x05F5 [0x23] WAIT_FOR_DIALOG_INTERACTION
161: 0x05F6 [0x5B] LOAD_EXT_SCHEDULER: Load scheduler "agar" with entities [Naji (ID: 16982242/0x010320E2), Naji (ID: 16982242/0x010320E2)], work=1167*
162: 0x0605 [0xBA] SET_ENTITY_POSITION(entity_id=LocalPlayer, pos_x=74.392*, pos_z=-124.366*, pos_y=-6.000*, direction=141.0°*)
163: 0x0612 [0xBA] SET_ENTITY_POSITION(entity_id=Unnamed NPC (ID: 16982539/0x0103220B), pos_x=74.392*, pos_z=-124.366*, pos_y=-6.000*, direction=141.0°*)
164: 0x061F [0x80] LOAD_WAIT(entity=LocalPlayer)
165: 0x0624 [0x52] END_LOAD_SCHEDULER: End scheduler "s030" with entities [EventEntity, EventEntity], work=288*
166: 0x0633 [0x45] LOAD_SCHEDULED_TASK: Load scheduler "s010" with entities [EventEntity, EventEntity], work=[288*, 0*]
167: 0x0644 [0x7B] Naji (ID: 16982242/0x010320E2) stops talking
168: 0x0649 [0x5B] LOAD_EXT_SCHEDULER: Load scheduler "szl0" with entities [Travialce (ID: 16982226/0x010320D2), Travialce (ID: 16982226/0x010320D2)], work=1120*
169: 0x0658 [0x27] REQ_SET(priority=0x05, entity_id=Rodin-Comidin (ID: 16982137/0x01032079), tag_num=0x16)
170: 0x065F [0x5B] LOAD_EXT_SCHEDULER: Load scheduler "agb0" with entities [Naji (ID: 16982242/0x010320E2), Naji (ID: 16982242/0x010320E2)], work=1167*
171: 0x066E [0x2B] Rodin-Comidin (ID: 16982137/0x01032079) [9528*]:
    → "Now, hold on there. We haven't even seen any proof that you're really a Mythril Musketeer."
172: 0x0675 [0x23] WAIT_FOR_DIALOG_INTERACTION
173: 0x0676 [0x2A] GET_REQ_LEVEL(level=5, entity_id=Rodin-Comidin (ID: 16982137/0x01032079))
174: 0x067C [0x27] REQ_SET(priority=0x05, entity_id=Unnamed NPC (ID: 16982539/0x0103220B), tag_num=0x2E)
175: 0x0683 [0x1C] WAIT(30* ticks)
176: 0x0686 [0x52] END_LOAD_SCHEDULER: End scheduler "s010" with entities [EventEntity, EventEntity], work=288*
177: 0x0695 [0x45] LOAD_SCHEDULED_TASK: Load scheduler "s009" with entities [EventEntity, EventEntity], work=[288*, 0*]
178: 0x06A6 [0x66] LOAD_EXT_SCHEDULER_MAIN: Load scheduler "dis0" with entities [Rodin-Comidin (ID: 16982137/0x01032079), Rodin-Comidin (ID: 16982137/0x01032079)], work=40*
179: 0x06B5 [0x2B] Rodin-Comidin (ID: 16982137/0x01032079) [9529*]:
    → "You can't expect us to just spill information on the ground like so many beans, Mister Naji..."
180: 0x06BC [0x23] WAIT_FOR_DIALOG_INTERACTION
181: 0x06BD [0x2A] GET_REQ_LEVEL(level=5, entity_id=Unnamed NPC (ID: 16982539/0x0103220B))
182: 0x06C3 [0x53] WAIT_SCHEDULER_TASK: Wait for scheduler "dis0" with entities [Rodin-Comidin (ID: 16982137/0x01032079), Rodin-Comidin (ID: 16982137/0x01032079)]
183: 0x06D0 [0x52] END_LOAD_SCHEDULER: End scheduler "s009" with entities [EventEntity, EventEntity], work=288*
184: 0x06DF [0x45] LOAD_SCHEDULED_TASK: Load scheduler "s016" with entities [EventEntity, EventEntity], work=[288*, 0*]
185: 0x06F0 [0x29] REQ_SET_WAIT(priority=0x05, entity_id=Rodin-Comidin (ID: 16982137/0x01032079), tag_num=0x17)
186: 0x06F7 [0x4A] Rodin-Comidin (ID: 16982137/0x01032079) looks at LocalPlayer
187: 0x0700 [0x7C] Rodin-Comidin (ID: 16982137/0x01032079)->Render.Flags2 |= 0x00
188: 0x0706 [0x2B] Rodin-Comidin (ID: 16982137/0x01032079) [9530*]:
    → "!!!"
189: 0x070D [0x23] WAIT_FOR_DIALOG_INTERACTION
190: 0x070E [0x7C] Rodin-Comidin (ID: 16982137/0x01032079)->Render.Flags2 |= 0x01
191: 0x0714 [0x52] END_LOAD_SCHEDULER: End scheduler "s016" with entities [EventEntity, EventEntity], work=288*
192: 0x0723 [0x45] LOAD_SCHEDULED_TASK: Load scheduler "s019" with entities [EventEntity, EventEntity], work=[288*, 0*]
193: 0x0734 [0x2B] Naji (ID: 16982242/0x010320E2) [9531*]:
    → "!?"
194: 0x073B [0x23] WAIT_FOR_DIALOG_INTERACTION
195: 0x073C [0x52] END_LOAD_SCHEDULER: End scheduler "s019" with entities [EventEntity, EventEntity], work=288*
196: 0x074B [0x45] LOAD_SCHEDULED_TASK: Load scheduler "s020" with entities [EventEntity, EventEntity], work=[288*, 0*]
197: 0x075C [0x79] LocalPlayer looks at Travialce (ID: 16982226/0x010320D2) (Basic look)
198: 0x0766 [0x2B] Travialce (ID: 16982226/0x010320D2) [9532*]:
    → "<Player>. Excellent timing."
199: 0x076D [0x23] WAIT_FOR_DIALOG_INTERACTION
200: 0x076E [0x45] LOAD_SCHEDULED_TASK: Load scheduler "fdo1" with entities [EventEntity, EventEntity], work=[200*, 0*]
201: 0x077F [0x55] WAIT_LOAD_SCHEDULER: Wait for scheduler "fdo1" with entities [EventEntity, EventEntity], work=200*
202: 0x078E [0x52] END_LOAD_SCHEDULER: End scheduler "s020" with entities [EventEntity, EventEntity], work=288*
203: 0x079D [0x6B] STOP_AND_IDLE: Naji (ID: 16982242/0x010320E2) stops current action and resets to idle (animation="idl0")
204: 0x07A6 [0x6B] STOP_AND_IDLE: Travialce (ID: 16982226/0x010320D2) stops current action and resets to idle (animation="idl0")
205: 0x07AF [0xBA] SET_ENTITY_POSITION(entity_id=LocalPlayer, pos_x=68.698*, pos_z=-128.965*, pos_y=-6.499*, direction=191.4°*)
206: 0x07BC [0xBA] SET_ENTITY_POSITION(entity_id=Unnamed NPC (ID: 16982539/0x0103220B), pos_x=68.698*, pos_z=-128.965*, pos_y=-6.499*, direction=191.4°*)
207: 0x07C9 [0x80] LOAD_WAIT(entity=LocalPlayer)
208: 0x07CE [0xBA] SET_ENTITY_POSITION(entity_id=Rodin-Comidin (ID: 16982137/0x01032079), pos_x=69.051*, pos_z=-126.786*, pos_y=-6.500*, direction=191.4°*)
209: 0x07DB [0x80] LOAD_WAIT(entity=Rodin-Comidin (ID: 16982137/0x01032079))
210: 0x07E0 [0xBA] SET_ENTITY_POSITION(entity_id=Travialce (ID: 16982226/0x010320D2), pos_x=67.743*, pos_z=-126.649*, pos_y=-6.500*, direction=191.4°*)
211: 0x07ED [0x80] LOAD_WAIT(entity=Travialce (ID: 16982226/0x010320D2))
212: 0x07F2 [0xBA] SET_ENTITY_POSITION(entity_id=Naji (ID: 16982242/0x010320E2), pos_x=67.744*, pos_z=-128.287*, pos_y=-6.500*, direction=191.4°*)
213: 0x07FF [0x80] LOAD_WAIT(entity=Naji (ID: 16982242/0x010320E2))
214: 0x0804 [0x4A] LocalPlayer looks at Naji (ID: 16982242/0x010320E2)
215: 0x080D [0x4A] Naji (ID: 16982242/0x010320E2) looks at LocalPlayer
216: 0x0816 [0x4A] Rodin-Comidin (ID: 16982137/0x01032079) looks at LocalPlayer
217: 0x081F [0x4A] Travialce (ID: 16982226/0x010320D2) looks at LocalPlayer
218: 0x0828 [0x1C] WAIT(90* ticks)
219: 0x082B [0x48] [System] [10301*]:
    → ""
220: 0x082E [0x23] WAIT_FOR_DIALOG_INTERACTION
221: 0x082F [0x45] LOAD_SCHEDULED_TASK: Load scheduler "s021" with entities [EventEntity, EventEntity], work=[288*, 0*]
222: 0x0840 [0x1C] WAIT(15* ticks)
223: 0x0843 [0x45] LOAD_SCHEDULED_TASK: Load scheduler "fdi1" with entities [EventEntity, EventEntity], work=[200*, 0*]
224: 0x0854 [0x55] WAIT_LOAD_SCHEDULER: Wait for scheduler "fdi1" with entities [EventEntity, EventEntity], work=200*
225: 0x0863 [0x6E] Naji (ID: 16982242/0x010320E2) uses emote 0*
226: 0x086A [0x99] Wait for Naji (ID: 16982242/0x010320E2) animation to complete
227: 0x086F [0x2B] Naji (ID: 16982242/0x010320E2) [9533*]:
    → "So, here's the official summons with your name in bold. Go on, take it."
228: 0x0876 [0x23] WAIT_FOR_DIALOG_INTERACTION
229: 0x0877 [0x03] Work_Zone[2] = 897*
230: 0x087C [0x48] [System] [9534*]:
    → "Naji hands you $6!"
231: 0x087F [0x1C] WAIT(120* ticks)
232: 0x0882 [0x52] END_LOAD_SCHEDULER: End scheduler "s021" with entities [EventEntity, EventEntity], work=288*
233: 0x0891 [0x45] LOAD_SCHEDULED_TASK: Load scheduler "s023" with entities [EventEntity, EventEntity], work=[288*, 0*]
234: 0x08A2 [0x4A] Rodin-Comidin (ID: 16982137/0x01032079) looks at Naji (ID: 16982242/0x010320E2)
235: 0x08AB [0x6E] Naji (ID: 16982242/0x010320E2) uses emote 36*
236: 0x08B2 [0x99] Wait for Naji (ID: 16982242/0x010320E2) animation to complete
237: 0x08B7 [0x2B] Naji (ID: 16982242/0x010320E2) [9535*]:
    → "And my work is done. Off with you to the Grand Duke Palace!"
238: 0x08BE [0x23] WAIT_FOR_DIALOG_INTERACTION
239: 0x08BF [0x1C] WAIT(30* ticks)
240: 0x08C2 [0x52] END_LOAD_SCHEDULER: End scheduler "s023" with entities [EventEntity, EventEntity], work=288*
241: 0x08D1 [0x45] LOAD_SCHEDULED_TASK: Load scheduler "s024" with entities [EventEntity, EventEntity], work=[288*, 0*]
242: 0x08E2 [0x66] LOAD_EXT_SCHEDULER_MAIN: Load scheduler "tlb0" with entities [Rodin-Comidin (ID: 16982137/0x01032079), Rodin-Comidin (ID: 16982137/0x01032079)], work=34*
243: 0x08F1 [0x2B] Rodin-Comidin (ID: 16982137/0x01032079) [9536*]:
    → "Hm? You're not escorting <Player> to Jeuno?"
244: 0x08F8 [0x23] WAIT_FOR_DIALOG_INTERACTION
245: 0x08F9 [0x66] LOAD_EXT_SCHEDULER_MAIN: Load scheduler "tlb1" with entities [Rodin-Comidin (ID: 16982137/0x01032079), Rodin-Comidin (ID: 16982137/0x01032079)], work=34*
246: 0x0908 [0x79] Naji (ID: 16982242/0x010320E2) looks at Rodin-Comidin (ID: 16982137/0x01032079) (Basic look)
247: 0x0912 [0x2B] Naji (ID: 16982242/0x010320E2) [9537*]:
    → "Me? I'm no babysitter. Besides, I have something else to attend to while I'm here."
248: 0x0919 [0x23] WAIT_FOR_DIALOG_INTERACTION
249: 0x091A [0x52] END_LOAD_SCHEDULER: End scheduler "s024" with entities [EventEntity, EventEntity], work=288*
250: 0x0929 [0x02] IF !(LocalPlayer->Race == 5*) GOTO 0x0945
251: 0x0931 [0x45] LOAD_SCHEDULED_TASK: Load scheduler "s032" with entities [EventEntity, EventEntity], work=[288*, 0*]
252: 0x0942 [0x01] GOTO 0x098E
253: 0x0945 [0x02] IF !(LocalPlayer->Race == 6*) GOTO 0x0961
254: 0x094D [0x45] LOAD_SCHEDULED_TASK: Load scheduler "s032" with entities [EventEntity, EventEntity], work=[288*, 0*]
255: 0x095E [0x01] GOTO 0x098E
256: 0x0961 [0x02] IF !(LocalPlayer->Race == 8*) GOTO 0x097D
257: 0x0969 [0x45] LOAD_SCHEDULED_TASK: Load scheduler "s031" with entities [EventEntity, EventEntity], work=[288*, 0*]
258: 0x097A [0x01] GOTO 0x098E
259: 0x097D [0x45] LOAD_SCHEDULED_TASK: Load scheduler "s025" with entities [EventEntity, EventEntity], work=[288*, 0*]

SUBROUTINE_098E:
260: 0x098E [0x79] Naji (ID: 16982242/0x010320E2) looks at LocalPlayer (Basic look)
261: 0x0998 [0x1C] WAIT(60* ticks)
262: 0x099B [0x2B] Naji (ID: 16982242/0x010320E2) [9538*]:
    → "See you at the palace, <Player>!"
263: 0x09A2 [0x23] WAIT_FOR_DIALOG_INTERACTION
264: 0x09A3 [0x52] END_LOAD_SCHEDULER: End scheduler "s025" with entities [EventEntity, EventEntity], work=288*
265: 0x09B2 [0x52] END_LOAD_SCHEDULER: End scheduler "s031" with entities [EventEntity, EventEntity], work=288*
266: 0x09C1 [0x52] END_LOAD_SCHEDULER: End scheduler "s032" with entities [EventEntity, EventEntity], work=288*
267: 0x09D0 [0x45] LOAD_SCHEDULED_TASK: Load scheduler "s026" with entities [EventEntity, EventEntity], work=[288*, 0*]
268: 0x09E1 [0x27] REQ_SET(priority=0x05, entity_id=Naji (ID: 16982242/0x010320E2), tag_num=0x02)
269: 0x09E8 [0x2B] Naji (ID: 16982242/0x010320E2) [9539*]:
    → "Right!"
270: 0x09EF [0x23] WAIT_FOR_DIALOG_INTERACTION
271: 0x09F0 [0x2B] Naji (ID: 16982242/0x010320E2) [9540*]:
    → "Now where's this place that's always under siege by the beastmen...?"
272: 0x09F7 [0x23] WAIT_FOR_DIALOG_INTERACTION
273: 0x09F8 [0x2A] GET_REQ_LEVEL(level=5, entity_id=Naji (ID: 16982242/0x010320E2))
274: 0x09FE [0x79] Travialce (ID: 16982226/0x010320D2) looks at Naji (ID: 16982242/0x010320E2) (Basic look)
275: 0x0A08 [0x52] END_LOAD_SCHEDULER: End scheduler "s026" with entities [EventEntity, EventEntity], work=288*
276: 0x0A17 [0x45] LOAD_SCHEDULED_TASK: Load scheduler "s028" with entities [EventEntity, EventEntity], work=[288*, 0*]
277: 0x0A28 [0x4A] Rodin-Comidin (ID: 16982137/0x01032079) looks at Naji (ID: 16982242/0x010320E2)
278: 0x0A31 [0x4A] LocalPlayer looks at Naji (ID: 16982242/0x010320E2)
279: 0x0A3A [0x6E] Naji (ID: 16982242/0x010320E2) uses emote 33*
280: 0x0A41 [0x99] Wait for Naji (ID: 16982242/0x010320E2) animation to complete
281: 0x0A46 [0x2B] Naji (ID: 16982242/0x010320E2) [9541*]:
    → "It's time for some action!"
282: 0x0A4D [0x23] WAIT_FOR_DIALOG_INTERACTION
283: 0x0A4E [0x52] END_LOAD_SCHEDULER: End scheduler "s028" with entities [EventEntity, EventEntity], work=288*
284: 0x0A5D [0x45] LOAD_SCHEDULED_TASK: Load scheduler "s027" with entities [EventEntity, EventEntity], work=[288*, 0*]
285: 0x0A6E [0x27] REQ_SET(priority=0x05, entity_id=Naji (ID: 16982242/0x010320E2), tag_num=0x03)
286: 0x0A75 [0x1C] WAIT(60* ticks)
287: 0x0A78 [0x4A] Rodin-Comidin (ID: 16982137/0x01032079) looks at Naji (ID: 16982242/0x010320E2)
288: 0x0A81 [0x1C] WAIT(30* ticks)
289: 0x0A84 [0x66] LOAD_EXT_SCHEDULER_MAIN: Load scheduler "dis0" with entities [Rodin-Comidin (ID: 16982137/0x01032079), Rodin-Comidin (ID: 16982137/0x01032079)], work=40*
290: 0x0A93 [0x1C] WAIT(90* ticks)
291: 0x0A96 [0x45] LOAD_SCHEDULED_TASK: Load scheduler "fdo1" with entities [EventEntity, EventEntity], work=[200*, 0*]
292: 0x0AA7 [0x55] WAIT_LOAD_SCHEDULER: Wait for scheduler "fdo1" with entities [EventEntity, EventEntity], work=200*
293: 0x0AB6 [0x52] END_LOAD_SCHEDULER: End scheduler "s027" with entities [EventEntity, EventEntity], work=288*
294: 0x0AC5 [0x46] CAMERA_CONTROL: Restore default settings
295: 0x0AC7 [0x1C] WAIT(60* ticks)
296: 0x0ACA [0x45] LOAD_SCHEDULED_TASK: Load scheduler "fdi2" with entities [EventEntity, EventEntity], work=[200*, 0*]
297: 0x0ADB [0x21] END_EVENT
298: 0x0ADC [0x00] END_REQSTACK()
```

### Event 3139

#### Metadata

| Field        | Value      |
|--------------|------------|
| Entrypoint   | 0x0ADD     |
| Data Size    | 2202 bytes |
| Instructions | 265        |

```
      00 01 02 03 04 05 06 07  08 09 0A 0B 0C 0D 0E 0F
      -- -- -- -- -- -- -- --  -- -- -- -- -- -- -- --
0AD0:                                         42 5D 01               B].
0AE0: 80 14 80 45 00 80 F8 FF  FF 7F F8 FF FF 7F 66 64  ...E..........fd
0AF0: 6F 31 01 80 55 00 80 F8  FF FF 7F F8 FF FF 7F 66  o1..U..........f
0B00: 64 6F 31 46 01 38 02 80  75 00 53 80 75 01 94 01  do1F.8..u.S.u...
0B10: 8C 20 03 01 94 01 F0 FF  FF 7F 94 01 8D 20 03 01  . ........... ..
0B20: 92 01 8C 20 03 01 92 01  8D 20 03 01 29 10 8C 20  ... ..... ..).. 
0B30: 03 01 24 4E 00 0B 22 03  01 BA F0 FF FF 7F 54 80  ..$N..".......T.
0B40: 55 80 0D 80 56 80 BA 0B  22 03 01 54 80 55 80 0D  U...V..."..T.U..
0B50: 80 56 80 80 F0 FF FF 7F  80 8C 20 03 01 80 8D 20  .V........ .... 
0B60: 03 01 5C 00 14 80 5C 01  14 80 9A 27 05 0B 22 03  ..\...\....'..".
0B70: 01 34 45 57 80 F8 FF FF  7F F8 FF FF 7F 73 30 30  .4EW.........s00
0B80: 30 01 80 1C 12 80 45 00  80 F8 FF FF 7F F8 FF FF  0.....E.........
0B90: 7F 66 64 69 31 01 80 55  00 80 F8 FF FF 7F F8 FF  .fdi1..U........
0BA0: FF 7F 66 64 69 31 2A 05  0B 22 03 01 4A 8D 20 03  ..fdi1*.."..J. .
0BB0: 01 F0 FF FF 7F 1C 0F 80  2B 8D 20 03 01 58 80 23  ........+. ..X.#
0BC0: 52 57 80 F8 FF FF 7F F8  FF FF 7F 73 30 30 30 45  RW.........s000E
0BD0: 57 80 F8 FF FF 7F F8 FF  FF 7F 73 30 30 32 01 80  W.........s002..
0BE0: 27 05 8D 20 03 01 9A 27  05 0B 22 03 01 35 2B 8D  '.. ...'.."..5+.
0BF0: 20 03 01 59 80 23 45 00  80 F8 FF FF 7F F8 FF FF   ..Y.#E.........
0C00: 7F 66 64 6F 31 01 80 55  00 80 F8 FF FF 7F F8 FF  .fdo1..U........
0C10: FF 7F 66 64 6F 31 52 57  80 F8 FF FF 7F F8 FF FF  ..fdo1RW........
0C20: 7F 73 30 30 32 7A 00 8D  20 03 01 BA 8D 20 03 01  .s002z.. .... ..
0C30: 5A 80 5B 80 5C 80 5D 80  80 8D 20 03 01 4A 8D 20  Z.[.\.]... ..J. 
0C40: 03 01 8C 20 03 01 4A 8C  20 03 01 8D 20 03 01 1C  ... ..J. ... ...
0C50: 0F 80 5B 5E 80 8D 20 03  01 8D 20 03 01 7A 65 69  ..[^.. ... ..zei
0C60: 30 45 57 80 F8 FF FF 7F  F8 FF FF 7F 73 30 30 31  0EW.........s001
0C70: 01 80 1C 12 80 45 00 80  F8 FF FF 7F F8 FF FF 7F  .....E..........
0C80: 66 64 69 31 01 80 55 00  80 F8 FF FF 7F F8 FF FF  fdi1..U.........
0C90: 7F 66 64 69 31 2B 8D 20  03 01 5F 80 23 5D 01 80  .fdi1+. .._.#]..
0CA0: 14 80 52 57 80 F8 FF FF  7F F8 FF FF 7F 73 30 30  ..RW.........s00
0CB0: 31 45 57 80 F8 FF FF 7F  F8 FF FF 7F 73 30 30 33  1EW.........s003
0CC0: 01 80 5B 60 80 8C 20 03  01 8C 20 03 01 70 6F 69  ..[`.. ... ..poi
0CD0: 30 2B 8C 20 03 01 61 80  23 5C 00 23 80 5C 01 23  0+. ..a.#\.#.\.#
0CE0: 80 9A 52 57 80 F8 FF FF  7F F8 FF FF 7F 73 30 30  ..RW.........s00
0CF0: 33 45 57 80 F8 FF FF 7F  F8 FF FF 7F 73 30 30 34  3EW.........s004
0D00: 01 80 6E 8D 20 03 01 62  80 99 8D 20 03 01 2B 8D  ..n. ..b... ..+.
0D10: 20 03 01 63 80 23 5B 64  80 8C 20 03 01 8C 20 03   ..c.#[d.. ... .
0D20: 01 74 6C 64 30 52 57 80  F8 FF FF 7F F8 FF FF 7F  .tld0RW.........
0D30: 73 30 30 34 45 57 80 F8  FF FF 7F F8 FF FF 7F 73  s004EW.........s
0D40: 30 30 35 01 80 2B 8C 20  03 01 65 80 23 AE 03 8C  005..+. ..e.#...
0D50: 20 03 01 66 80 2B 8C 20  03 01 67 80 23 BA F0 FF   ..f.+. ..g.#...
0D60: FF 7F 68 80 69 80 5C 80  6A 80 BA 0B 22 03 01 68  ..h.i.\.j..."..h
0D70: 80 69 80 5C 80 6A 80 80  F0 FF FF 7F 4A F0 FF FF  .i.\.j......J...
0D80: 7F 8C 20 03 01 1C 0F 80  52 57 80 F8 FF FF 7F F8  .. .....RW......
0D90: FF FF 7F 73 30 30 35 45  57 80 F8 FF FF 7F F8 FF  ...s005EW.......
0DA0: FF 7F 73 30 30 36 01 80  6B 69 64 6C 30 8C 20 03  ..s006..kidl0. .
0DB0: 01 2B 8D 20 03 01 6B 80  23 4A 8C 20 03 01 F0 FF  .+. ..k.#J. ....
0DC0: FF 7F 1C 0F 80 5B 6C 80  8C 20 03 01 8C 20 03 01  .....[l.. ... ..
0DD0: 70 6E 74 30 1C 0F 80 52  57 80 F8 FF FF 7F F8 FF  pnt0...RW.......
0DE0: FF 7F 73 30 30 36 45 57  80 F8 FF FF 7F F8 FF FF  ..s006EW........
0DF0: 7F 73 30 32 36 01 80 2B  8C 20 03 01 6D 80 23 52  .s026..+. ..m.#R
0E00: 57 80 F8 FF FF 7F F8 FF  FF 7F 73 30 32 36 45 57  W.........s026EW
0E10: 80 F8 FF FF 7F F8 FF FF  7F 73 30 30 37 01 80 6E  .........s007..n
0E20: 8D 20 03 01 17 80 99 8D  20 03 01 1C 14 80 29 05  . ...... .....).
0E30: 8D 20 03 01 9B 52 57 80  F8 FF FF 7F F8 FF FF 7F  . ...RW.........
0E40: 73 30 30 37 45 57 80 F8  FF FF 7F F8 FF FF 7F 73  s007EW.........s
0E50: 30 32 38 01 80 27 05 0B  22 03 01 36 2A 05 0B 22  028..'.."..6*.."
0E60: 03 01 55 57 80 F8 FF FF  7F F8 FF FF 7F 73 30 32  ..UW.........s02
0E70: 38 1C 0F 80 45 57 80 F8  FF FF 7F F8 FF FF 7F 73  8...EW.........s
0E80: 30 32 37 01 80 2B 8C 20  03 01 6E 80 23 AE 04 8C  027..+. ..n.#...
0E90: 20 03 01 00 00 52 57 80  F8 FF FF 7F F8 FF FF 7F   ....RW.........
0EA0: 73 30 32 37 02 87 7F 4B  80 80 C0 0E 45 57 80 F8  s027...K....EW..
0EB0: FF FF 7F F8 FF FF 7F 73  30 32 31 01 80 01 ED 0E  .......s021.....
0EC0: 02 87 7F 4C 80 80 DC 0E  45 57 80 F8 FF FF 7F F8  ...L....EW......
0ED0: FF FF 7F 73 30 32 31 01  80 01 ED 0E 45 57 80 F8  ...s021.....EW..
0EE0: FF FF 7F F8 FF FF 7F 73  30 30 38 01 80 24 6F 80  .......s008..$o.
0EF0: 01 80 01 80 25 02 00 10  01 80 00 8E 0F 6E F0 FF  ....%........n..
0F00: FF 7F 70 80 99 F0 FF FF  7F 1C 14 80 5D 01 80 14  ..p.........]...
0F10: 80 5B 6C 80 8C 20 03 01  8C 20 03 01 70 6E 74 31  .[l.. ... ..pnt1
0F20: 1C 0F 80 52 57 80 F8 FF  FF 7F F8 FF FF 7F 73 30  ...RW.........s0
0F30: 30 38 52 57 80 F8 FF FF  7F F8 FF FF 7F 73 30 32  08RW.........s02
0F40: 31 45 57 80 F8 FF FF 7F  F8 FF FF 7F 73 30 30 39  1EW.........s009
0F50: 01 80 AE 03 8C 20 03 01  66 80 2B 8C 20 03 01 71  ..... ..f.+. ..q
0F60: 80 23 AE 04 8C 20 03 01  00 00 5B 72 80 8C 20 03  .#... ....[r.. .
0F70: 01 8C 20 03 01 61 67 72  30 1C 19 80 52 57 80 F8  .. ..agr0...RW..
0F80: FF FF 7F F8 FF FF 7F 73  30 30 39 01 14 10 02 00  .......s009.....
0F90: 10 66 80 00 14 10 6E F0  FF FF 7F 4C 80 99 F0 FF  .f....n....L....
0FA0: FF 7F 1C 14 80 5D 01 80  14 80 52 57 80 F8 FF FF  .....]....RW....
0FB0: 7F F8 FF FF 7F 73 30 30  38 52 57 80 F8 FF FF 7F  .....s008RW.....
0FC0: F8 FF FF 7F 73 30 32 31  45 57 80 F8 FF FF 7F F8  ....s021EW......
0FD0: FF FF 7F 73 30 31 30 01  80 5B 6C 80 8C 20 03 01  ...s010..[l.. ..
0FE0: 8C 20 03 01 70 6E 74 31  2B 8C 20 03 01 73 80 23  . ..pnt1+. ..s.#
0FF0: 5B 72 80 8C 20 03 01 8C  20 03 01 61 67 72 30 1C  [r.. ... ..agr0.
1000: 19 80 52 57 80 F8 FF FF  7F F8 FF FF 7F 73 30 31  ..RW.........s01
1010: 30 01 14 10 45 57 80 F8  FF FF 7F F8 FF FF 7F 73  0...EW.........s
1020: 30 31 31 01 80 6E 8D 20  03 01 62 80 99 8D 20 03  011..n. ..b... .
1030: 01 6E F0 FF FF 7F 62 80  99 F0 FF FF 7F 2B 8C 20  .n....b......+. 
1040: 03 01 74 80 23 6B 69 64  6C 30 8C 20 03 01 2B 8C  ..t.#kidl0. ..+.
1050: 20 03 01 75 80 23 5C 00  76 80 5C 01 76 80 9A 5B   ..u.#\.v.\.v..[
1060: 77 80 8C 20 03 01 8C 20  03 01 68 61 70 30 55 57  w.. ... ..hap0UW
1070: 80 F8 FF FF 7F F8 FF FF  7F 73 30 31 31 45 57 80  .........s011EW.
1080: F8 FF FF 7F F8 FF FF 7F  73 30 31 33 01 80 AE 03  ........s013....
1090: 8C 20 03 01 66 80 2B 8C  20 03 01 78 80 23 52 57  . ..f.+. ..x.#RW
10A0: 80 F8 FF FF 7F F8 FF FF  7F 73 30 31 33 45 57 80  .........s013EW.
10B0: F8 FF FF 7F F8 FF FF 7F  73 30 31 34 01 80 2B 8C  ........s014..+.
10C0: 20 03 01 79 80 23 6E 8D  20 03 01 7A 80 99 8D 20   ..y.#n. ..z... 
10D0: 03 01 1C 14 80 52 57 80  F8 FF FF 7F F8 FF FF 7F  .....RW.........
10E0: 73 30 31 34 45 57 80 F8  FF FF 7F F8 FF FF 7F 73  s014EW.........s
10F0: 30 31 35 01 80 2B 8C 20  03 01 7B 80 23 AE 04 8C  015..+. ..{.#...
1100: 20 03 01 00 00 2B 8C 20  03 01 7C 80 23 52 57 80   ....+. ..|.#RW.
1110: F8 FF FF 7F F8 FF FF 7F  73 30 31 35 45 57 80 F8  ........s015EW..
1120: FF FF 7F F8 FF FF 7F 73  30 31 36 01 80 5B 77 80  .......s016..[w.
1130: 8C 20 03 01 8C 20 03 01  68 61 70 31 2B 8C 20 03  . ... ..hap1+. .
1140: 01 7D 80 23 52 57 80 F8  FF FF 7F F8 FF FF 7F 73  .}.#RW.........s
1150: 30 31 36 45 57 80 F8 FF  FF 7F F8 FF FF 7F 73 30  016EW.........s0
1160: 31 37 01 80 2B 8C 20 03  01 7E 80 23 52 57 80 F8  17..+. ..~.#RW..
1170: FF FF 7F F8 FF FF 7F 73  30 31 37 45 57 80 F8 FF  .......s017EW...
1180: FF 7F F8 FF FF 7F 73 30  31 38 01 80 7C 00 8D 20  ......s018..|.. 
1190: 03 01 6E 8D 20 03 01 7F  80 99 8D 20 03 01 2B 8D  ..n. ...... ..+.
11A0: 20 03 01 80 80 23 7C 01  8D 20 03 01 52 57 80 F8   ....#|.. ..RW..
11B0: FF FF 7F F8 FF FF 7F 73  30 31 38 45 57 80 F8 FF  .......s018EW...
11C0: FF 7F F8 FF FF 7F 73 30  31 39 01 80 2B 8C 20 03  ......s019..+. .
11D0: 01 81 80 23 6E 8D 20 03  01 02 80 99 8D 20 03 01  ...#n. ...... ..
11E0: 1C 21 80 5D 01 80 14 80  52 57 80 F8 FF FF 7F F8  .!.]....RW......
11F0: FF FF 7F 73 30 31 39 45  57 80 F8 FF FF 7F F8 FF  ...s019EW.......
1200: FF 7F 73 30 32 30 01 80  5B 77 80 8C 20 03 01 8C  ..s020..[w.. ...
1210: 20 03 01 68 61 70 72 2B  8C 20 03 01 82 80 23 5C   ..hapr+. ....#\
1220: 00 23 80 5C 01 23 80 9A  2B 8C 20 03 01 83 80 23  .#.\.#..+. ....#
1230: 5B 6C 80 8C 20 03 01 8C  20 03 01 74 6C 6B 30 2B  [l.. ... ..tlk0+
1240: 8C 20 03 01 84 80 23 52  57 80 F8 FF FF 7F F8 FF  . ....#RW.......
1250: FF 7F 73 30 32 30 45 57  80 F8 FF FF 7F F8 FF FF  ..s020EW........
1260: 7F 73 30 32 32 01 80 5B  6C 80 8C 20 03 01 8C 20  .s022..[l.. ... 
1270: 03 01 74 6C 6B 31 2B 8C  20 03 01 85 80 23 24 86  ..tlk1+. ....#$.
1280: 80 01 80 01 80 25 02 00  10 01 80 00 A8 12 6E F0  .....%........n.
1290: FF FF 7F 70 80 99 F0 FF  FF 7F 1C 14 80 2B 8C 20  ...p.........+. 
12A0: 03 01 87 80 23 01 D9 12  02 00 10 66 80 00 D9 12  ....#......f....
12B0: 6E F0 FF FF 7F 4C 80 99  F0 FF FF 7F 1C 14 80 5B  n....L.........[
12C0: 6C 80 8C 20 03 01 8C 20  03 01 74 6C 6B 30 2B 8C  l.. ... ..tlk0+.
12D0: 20 03 01 88 80 23 01 D9  12 52 57 80 F8 FF FF 7F   ....#...RW.....
12E0: F8 FF FF 7F 73 30 32 32  45 57 80 F8 FF FF 7F F8  ....s022EW......
12F0: FF FF 7F 73 30 32 35 01  80 5B 6C 80 8C 20 03 01  ...s025..[l.. ..
1300: 8C 20 03 01 70 6E 74 30  AE 03 8C 20 03 01 66 80  . ..pnt0... ..f.
1310: 2B 8C 20 03 01 89 80 23  AE 04 8C 20 03 01 00 00  +. ....#... ....
1320: 45 00 80 F8 FF FF 7F F8  FF FF 7F 66 64 6F 31 01  E..........fdo1.
1330: 80 55 00 80 F8 FF FF 7F  F8 FF FF 7F 66 64 6F 31  .U..........fdo1
1340: 52 57 80 F8 FF FF 7F F8  FF FF 7F 73 30 32 35 6B  RW.........s025k
1350: 69 64 6C 30 8C 20 03 01  29 10 8C 20 03 01 25 46  idl0. ..).. ..%F
1360: 00 1C 15 80 45 00 80 F8  FF FF 7F F8 FF FF 7F 66  ....E..........f
1370: 64 69 32 01 80 21 00                              di2..!.         
```

#### Opcodes

```
  0: 0x0ADD [0x42] SET_CLI_EVENT_CANCEL_DATA()
  1: 0x0ADE [0x5D] SET_MUSIC_VOLUME(volume=0*, fade_time=120*)
  2: 0x0AE3 [0x45] LOAD_SCHEDULED_TASK: Load scheduler "fdo1" with entities [EventEntity, EventEntity], work=[200*, 0*]
  3: 0x0AF4 [0x55] WAIT_LOAD_SCHEDULER: Wait for scheduler "fdo1" with entities [EventEntity, EventEntity], work=200*
  4: 0x0B03 [0x46] CAMERA_CONTROL: Disable user control
  5: 0x0B05 [0x38] SET_CLIENT_EVENT_MODE(mode=19*)
  6: 0x0B08 [0x75] LOAD_ROOM(Load indoor room, room=563*)
  7: 0x0B0C [0x75] LOAD_ROOM(No action)
  8: 0x0B0E [0x94] Naja Salaheem (ID: 16982156/0x0103208C)->Render.Flags3 ^= 0x01
  9: 0x0B14 [0x94] LocalPlayer->Render.Flags3 ^= 0x01
 10: 0x0B1A [0x94] Abquhbah (ID: 16982157/0x0103208D)->Render.Flags3 ^= 0x01
 11: 0x0B20 [0x92] Naja Salaheem (ID: 16982156/0x0103208C)->Render.Flags3 ^= 0x01
 12: 0x0B26 [0x92] Abquhbah (ID: 16982157/0x0103208D)->Render.Flags3 ^= 0x01
 13: 0x0B2C [0x29] REQ_SET_WAIT(priority=0x10, entity_id=Naja Salaheem (ID: 16982156/0x0103208C), tag_num=0x24)
 14: 0x0B33 [0x4E] SET_ENTITY_HIDE_FLAG: Show Unnamed NPC (ID: 16982539/0x0103220B)
 15: 0x0B39 [0xBA] SET_ENTITY_POSITION(entity_id=LocalPlayer, pos_x=30.032*, pos_z=-56.310*, pos_y=-6.000*, direction=355.7°*)
 16: 0x0B46 [0xBA] SET_ENTITY_POSITION(entity_id=Unnamed NPC (ID: 16982539/0x0103220B), pos_x=30.032*, pos_z=-56.310*, pos_y=-6.000*, direction=355.7°*)
 17: 0x0B53 [0x80] LOAD_WAIT(entity=LocalPlayer)
 18: 0x0B58 [0x80] LOAD_WAIT(entity=Naja Salaheem (ID: 16982156/0x0103208C))
 19: 0x0B5D [0x80] LOAD_WAIT(entity=Abquhbah (ID: 16982157/0x0103208D))
 20: 0x0B62 [0x5C] MUSIC_CONTROL: Set Idle (Day) music to song 120*
 21: 0x0B66 [0x5C] MUSIC_CONTROL: Set Idle (Night) music to song 120*
 22: 0x0B6A [0x9A] WAIT_MUSIC_SERVER()
 23: 0x0B6B [0x27] REQ_SET(priority=0x05, entity_id=Unnamed NPC (ID: 16982539/0x0103220B), tag_num=0x34)
 24: 0x0B72 [0x45] LOAD_SCHEDULED_TASK: Load scheduler "s000" with entities [EventEntity, EventEntity], work=[331*, 0*]
 25: 0x0B83 [0x1C] WAIT(15* ticks)
 26: 0x0B86 [0x45] LOAD_SCHEDULED_TASK: Load scheduler "fdi1" with entities [EventEntity, EventEntity], work=[200*, 0*]
 27: 0x0B97 [0x55] WAIT_LOAD_SCHEDULER: Wait for scheduler "fdi1" with entities [EventEntity, EventEntity], work=200*
 28: 0x0BA6 [0x2A] GET_REQ_LEVEL(level=5, entity_id=Unnamed NPC (ID: 16982539/0x0103220B))
 29: 0x0BAC [0x4A] Abquhbah (ID: 16982157/0x0103208D) looks at LocalPlayer
 30: 0x0BB5 [0x1C] WAIT(30* ticks)
 31: 0x0BB8 [0x2B] Abquhbah (ID: 16982157/0x0103208D) [9909*]:
    → "Oh!"
 32: 0x0BBF [0x23] WAIT_FOR_DIALOG_INTERACTION
 33: 0x0BC0 [0x52] END_LOAD_SCHEDULER: End scheduler "s000" with entities [EventEntity, EventEntity], work=331*
 34: 0x0BCF [0x45] LOAD_SCHEDULED_TASK: Load scheduler "s002" with entities [EventEntity, EventEntity], work=[331*, 0*]
 35: 0x0BE0 [0x27] REQ_SET(priority=0x05, entity_id=Abquhbah (ID: 16982157/0x0103208D), tag_num=0x9A)
 36: 0x0BE7 [0x27] REQ_SET(priority=0x05, entity_id=Unnamed NPC (ID: 16982539/0x0103220B), tag_num=0x35)
 37: 0x0BEE [0x2B] Abquhbah (ID: 16982157/0x0103208D) [9910*]:
    → "P-P-Pres...!"
 38: 0x0BF5 [0x23] WAIT_FOR_DIALOG_INTERACTION
 39: 0x0BF6 [0x45] LOAD_SCHEDULED_TASK: Load scheduler "fdo1" with entities [EventEntity, EventEntity], work=[200*, 0*]
 40: 0x0C07 [0x55] WAIT_LOAD_SCHEDULER: Wait for scheduler "fdo1" with entities [EventEntity, EventEntity], work=200*
 41: 0x0C16 [0x52] END_LOAD_SCHEDULER: End scheduler "s002" with entities [EventEntity, EventEntity], work=331*
 42: 0x0C25 [0x7A] VM_CONTROL: Reset VM for Abquhbah (ID: 16982157/0x0103208D)
 43: 0x0C2B [0xBA] SET_ENTITY_POSITION(entity_id=Abquhbah (ID: 16982157/0x0103208D), pos_x=26.359*, pos_z=-45.652*, pos_y=-7.804*, direction=177.4°*)
 44: 0x0C38 [0x80] LOAD_WAIT(entity=Abquhbah (ID: 16982157/0x0103208D))
 45: 0x0C3D [0x4A] Abquhbah (ID: 16982157/0x0103208D) looks at Naja Salaheem (ID: 16982156/0x0103208C)
 46: 0x0C46 [0x4A] Naja Salaheem (ID: 16982156/0x0103208C) looks at Abquhbah (ID: 16982157/0x0103208D)
 47: 0x0C4F [0x1C] WAIT(30* ticks)
 48: 0x0C52 [0x5B] LOAD_EXT_SCHEDULER: Load scheduler "zei0" with entities [Abquhbah (ID: 16982157/0x0103208D), Abquhbah (ID: 16982157/0x0103208D)], work=862*
 49: 0x0C61 [0x45] LOAD_SCHEDULED_TASK: Load scheduler "s001" with entities [EventEntity, EventEntity], work=[331*, 0*]
 50: 0x0C72 [0x1C] WAIT(15* ticks)
 51: 0x0C75 [0x45] LOAD_SCHEDULED_TASK: Load scheduler "fdi1" with entities [EventEntity, EventEntity], work=[200*, 0*]
 52: 0x0C86 [0x55] WAIT_LOAD_SCHEDULER: Wait for scheduler "fdi1" with entities [EventEntity, EventEntity], work=200*
 53: 0x0C95 [0x2B] Abquhbah (ID: 16982157/0x0103208D) [9911*]:
    → "President Naja! <Player>!"
 54: 0x0C9C [0x23] WAIT_FOR_DIALOG_INTERACTION
 55: 0x0C9D [0x5D] SET_MUSIC_VOLUME(volume=0*, fade_time=120*)
 56: 0x0CA2 [0x52] END_LOAD_SCHEDULER: End scheduler "s001" with entities [EventEntity, EventEntity], work=331*
 57: 0x0CB1 [0x45] LOAD_SCHEDULED_TASK: Load scheduler "s003" with entities [EventEntity, EventEntity], work=[331*, 0*]
 58: 0x0CC2 [0x5B] LOAD_EXT_SCHEDULER: Load scheduler "poi0" with entities [Naja Salaheem (ID: 16982156/0x0103208C), Naja Salaheem (ID: 16982156/0x0103208C)], work=868*
 59: 0x0CD1 [0x2B] Naja Salaheem (ID: 16982156/0x0103208C) [9912*]:
    → "Shut ya trrrap, Abquhbah. Now's not the time for your yappin'!"
 60: 0x0CD8 [0x23] WAIT_FOR_DIALOG_INTERACTION
 61: 0x0CD9 [0x5C] MUSIC_CONTROL: Set Idle (Day) music to song 178*
 62: 0x0CDD [0x5C] MUSIC_CONTROL: Set Idle (Night) music to song 178*
 63: 0x0CE1 [0x9A] WAIT_MUSIC_SERVER()
 64: 0x0CE2 [0x52] END_LOAD_SCHEDULER: End scheduler "s003" with entities [EventEntity, EventEntity], work=331*
 65: 0x0CF1 [0x45] LOAD_SCHEDULED_TASK: Load scheduler "s004" with entities [EventEntity, EventEntity], work=[331*, 0*]
 66: 0x0D02 [0x6E] Abquhbah (ID: 16982157/0x0103208D) uses emote 21*
 67: 0x0D09 [0x99] Wait for Abquhbah (ID: 16982157/0x0103208D) animation to complete
 68: 0x0D0E [0x2B] Abquhbah (ID: 16982157/0x0103208D) [9913*]:
    → "Well! I never! (That was rude, even for President Naja...)"
 69: 0x0D15 [0x23] WAIT_FOR_DIALOG_INTERACTION
 70: 0x0D16 [0x5B] LOAD_EXT_SCHEDULER: Load scheduler "tld0" with entities [Naja Salaheem (ID: 16982156/0x0103208C), Naja Salaheem (ID: 16982156/0x0103208C)], work=854*
 71: 0x0D25 [0x52] END_LOAD_SCHEDULER: End scheduler "s004" with entities [EventEntity, EventEntity], work=331*
 72: 0x0D34 [0x45] LOAD_SCHEDULED_TASK: Load scheduler "s005" with entities [EventEntity, EventEntity], work=[331*, 0*]
 73: 0x0D45 [0x2B] Naja Salaheem (ID: 16982156/0x0103208C) [9914*]:
    → "Did I hurt your feelin's? Tough. We're about to face the biggest challenge in Salaheem's Sentinels' historrry."
 74: 0x0D4C [0x23] WAIT_FOR_DIALOG_INTERACTION
 75: 0x0D4D [0xAE] MULTI_PURPOSE_ENTITY_HANDLER(case_type=0x03 - Mou4, entity=Naja Salaheem (ID: 16982156/0x0103208C), index=1*)
 76: 0x0D55 [0x2B] Naja Salaheem (ID: 16982156/0x0103208C) [9915*]:
    → "If we're not prrrepared, not one of us will see the year out with our skins intact!"
 77: 0x0D5C [0x23] WAIT_FOR_DIALOG_INTERACTION
 78: 0x0D5D [0xBA] SET_ENTITY_POSITION(entity_id=LocalPlayer, pos_x=28.375*, pos_z=-45.526*, pos_y=-7.804*, direction=150.5°*)
 79: 0x0D6A [0xBA] SET_ENTITY_POSITION(entity_id=Unnamed NPC (ID: 16982539/0x0103220B), pos_x=28.375*, pos_z=-45.526*, pos_y=-7.804*, direction=150.5°*)
 80: 0x0D77 [0x80] LOAD_WAIT(entity=LocalPlayer)
 81: 0x0D7C [0x4A] LocalPlayer looks at Naja Salaheem (ID: 16982156/0x0103208C)
 82: 0x0D85 [0x1C] WAIT(30* ticks)
 83: 0x0D88 [0x52] END_LOAD_SCHEDULER: End scheduler "s005" with entities [EventEntity, EventEntity], work=331*
 84: 0x0D97 [0x45] LOAD_SCHEDULED_TASK: Load scheduler "s006" with entities [EventEntity, EventEntity], work=[331*, 0*]
 85: 0x0DA8 [0x6B] STOP_AND_IDLE: Naja Salaheem (ID: 16982156/0x0103208C) stops current action and resets to idle (animation="idl0")
 86: 0x0DB1 [0x2B] Abquhbah (ID: 16982157/0x0103208D) [9916*]:
    → "Y-yes, ma'am."
 87: 0x0DB8 [0x23] WAIT_FOR_DIALOG_INTERACTION
 88: 0x0DB9 [0x4A] Naja Salaheem (ID: 16982156/0x0103208C) looks at LocalPlayer
 89: 0x0DC2 [0x1C] WAIT(30* ticks)
 90: 0x0DC5 [0x5B] LOAD_EXT_SCHEDULER: Load scheduler "pnt0" with entities [Naja Salaheem (ID: 16982156/0x0103208C), Naja Salaheem (ID: 16982156/0x0103208C)], work=833*
 91: 0x0DD4 [0x1C] WAIT(30* ticks)
 92: 0x0DD7 [0x52] END_LOAD_SCHEDULER: End scheduler "s006" with entities [EventEntity, EventEntity], work=331*
 93: 0x0DE6 [0x45] LOAD_SCHEDULED_TASK: Load scheduler "s026" with entities [EventEntity, EventEntity], work=[331*, 0*]
 94: 0x0DF7 [0x2B] Naja Salaheem (ID: 16982156/0x0103208C) [9917*]:
    → "And you, <Player>!"
 95: 0x0DFE [0x23] WAIT_FOR_DIALOG_INTERACTION
 96: 0x0DFF [0x52] END_LOAD_SCHEDULER: End scheduler "s026" with entities [EventEntity, EventEntity], work=331*
 97: 0x0E0E [0x45] LOAD_SCHEDULED_TASK: Load scheduler "s007" with entities [EventEntity, EventEntity], work=[331*, 0*]
 98: 0x0E1F [0x6E] Abquhbah (ID: 16982157/0x0103208D) uses emote 29*
 99: 0x0E26 [0x99] Wait for Abquhbah (ID: 16982157/0x0103208D) animation to complete
100: 0x0E2B [0x1C] WAIT(120* ticks)
101: 0x0E2E [0x29] REQ_SET_WAIT(priority=0x05, entity_id=Abquhbah (ID: 16982157/0x0103208D), tag_num=0x9B)
102: 0x0E35 [0x52] END_LOAD_SCHEDULER: End scheduler "s007" with entities [EventEntity, EventEntity], work=331*
103: 0x0E44 [0x45] LOAD_SCHEDULED_TASK: Load scheduler "s028" with entities [EventEntity, EventEntity], work=[331*, 0*]
104: 0x0E55 [0x27] REQ_SET(priority=0x05, entity_id=Unnamed NPC (ID: 16982539/0x0103220B), tag_num=0x36)
105: 0x0E5C [0x2A] GET_REQ_LEVEL(level=5, entity_id=Unnamed NPC (ID: 16982539/0x0103220B))
106: 0x0E62 [0x55] WAIT_LOAD_SCHEDULER: Wait for scheduler "s028" with entities [EventEntity, EventEntity], work=331*
107: 0x0E71 [0x1C] WAIT(30* ticks)
108: 0x0E74 [0x45] LOAD_SCHEDULED_TASK: Load scheduler "s027" with entities [EventEntity, EventEntity], work=[331*, 0*]
109: 0x0E85 [0x2B] Naja Salaheem (ID: 16982156/0x0103208C) [9918*]:
    → "Ya think the battle's won?"
110: 0x0E8C [0x23] WAIT_FOR_DIALOG_INTERACTION
111: 0x0E8D [0xAE] MULTI_PURPOSE_ENTITY_HANDLER(case_type=0x04 - Mou4, entity=Naja Salaheem (ID: 16982156/0x0103208C), index=ExtData[1]->WorkLocal[0])
112: 0x0E95 [0x52] END_LOAD_SCHEDULER: End scheduler "s027" with entities [EventEntity, EventEntity], work=331*
113: 0x0EA4 [0x02] IF !(LocalPlayer->Race == 5*) GOTO 0x0EC0
114: 0x0EAC [0x45] LOAD_SCHEDULED_TASK: Load scheduler "s021" with entities [EventEntity, EventEntity], work=[331*, 0*]
115: 0x0EBD [0x01] GOTO 0x0EED
116: 0x0EC0 [0x02] IF !(LocalPlayer->Race == 6*) GOTO 0x0EDC
117: 0x0EC8 [0x45] LOAD_SCHEDULED_TASK: Load scheduler "s021" with entities [EventEntity, EventEntity], work=[331*, 0*]
118: 0x0ED9 [0x01] GOTO 0x0EED
119: 0x0EDC [0x45] LOAD_SCHEDULED_TASK: Load scheduler "s008" with entities [EventEntity, EventEntity], work=[331*, 0*]

SUBROUTINE_0EED:
120: 0x0EED [0x24] CREATE_DIALOG(message_id=9919*, default_option=0*, option_flags=0*)
    → "Think you've won? [I'm pretty sure I won.../It's not over yet...]"
121: 0x0EF4 [0x25] WAIT_DIALOG_SELECT()
122: 0x0EF5 [0x02] IF !(Work_Zone[0] == 0*) GOTO 0x0F8E
123: 0x0EFD [0x6E] LocalPlayer uses emote 7*
124: 0x0F04 [0x99] Wait for LocalPlayer animation to complete
125: 0x0F09 [0x1C] WAIT(120* ticks)
126: 0x0F0C [0x5D] SET_MUSIC_VOLUME(volume=0*, fade_time=120*)
127: 0x0F11 [0x5B] LOAD_EXT_SCHEDULER: Load scheduler "pnt1" with entities [Naja Salaheem (ID: 16982156/0x0103208C), Naja Salaheem (ID: 16982156/0x0103208C)], work=833*
128: 0x0F20 [0x1C] WAIT(30* ticks)
129: 0x0F23 [0x52] END_LOAD_SCHEDULER: End scheduler "s008" with entities [EventEntity, EventEntity], work=331*
130: 0x0F32 [0x52] END_LOAD_SCHEDULER: End scheduler "s021" with entities [EventEntity, EventEntity], work=331*
131: 0x0F41 [0x45] LOAD_SCHEDULED_TASK: Load scheduler "s009" with entities [EventEntity, EventEntity], work=[331*, 0*]
132: 0x0F52 [0xAE] MULTI_PURPOSE_ENTITY_HANDLER(case_type=0x03 - Mou4, entity=Naja Salaheem (ID: 16982156/0x0103208C), index=1*)
133: 0x0F5A [0x2B] Naja Salaheem (ID: 16982156/0x0103208C) [9920*]:
    → "Fate hasn't taken her claws outta ya yet!"
134: 0x0F61 [0x23] WAIT_FOR_DIALOG_INTERACTION
135: 0x0F62 [0xAE] MULTI_PURPOSE_ENTITY_HANDLER(case_type=0x04 - Mou4, entity=Naja Salaheem (ID: 16982156/0x0103208C), index=ExtData[1]->WorkLocal[0])
136: 0x0F6A [0x5B] LOAD_EXT_SCHEDULER: Load scheduler "agr0" with entities [Naja Salaheem (ID: 16982156/0x0103208C), Naja Salaheem (ID: 16982156/0x0103208C)], work=834*
137: 0x0F79 [0x1C] WAIT(40* ticks)
138: 0x0F7C [0x52] END_LOAD_SCHEDULER: End scheduler "s009" with entities [EventEntity, EventEntity], work=331*
139: 0x0F8B [0x01] GOTO 0x1014
140: 0x0F8E [0x02] IF !(Work_Zone[0] == 1*) GOTO 0x1014
141: 0x0F96 [0x6E] LocalPlayer uses emote 6*
142: 0x0F9D [0x99] Wait for LocalPlayer animation to complete
143: 0x0FA2 [0x1C] WAIT(120* ticks)
144: 0x0FA5 [0x5D] SET_MUSIC_VOLUME(volume=0*, fade_time=120*)
145: 0x0FAA [0x52] END_LOAD_SCHEDULER: End scheduler "s008" with entities [EventEntity, EventEntity], work=331*
146: 0x0FB9 [0x52] END_LOAD_SCHEDULER: End scheduler "s021" with entities [EventEntity, EventEntity], work=331*
147: 0x0FC8 [0x45] LOAD_SCHEDULED_TASK: Load scheduler "s010" with entities [EventEntity, EventEntity], work=[331*, 0*]
148: 0x0FD9 [0x5B] LOAD_EXT_SCHEDULER: Load scheduler "pnt1" with entities [Naja Salaheem (ID: 16982156/0x0103208C), Naja Salaheem (ID: 16982156/0x0103208C)], work=833*
149: 0x0FE8 [0x2B] Naja Salaheem (ID: 16982156/0x0103208C) [9921*]:
    → "Looks like you've finally gulped down a dose of rrreality. And it's a good thing too."
150: 0x0FEF [0x23] WAIT_FOR_DIALOG_INTERACTION
151: 0x0FF0 [0x5B] LOAD_EXT_SCHEDULER: Load scheduler "agr0" with entities [Naja Salaheem (ID: 16982156/0x0103208C), Naja Salaheem (ID: 16982156/0x0103208C)], work=834*
152: 0x0FFF [0x1C] WAIT(40* ticks)
153: 0x1002 [0x52] END_LOAD_SCHEDULER: End scheduler "s010" with entities [EventEntity, EventEntity], work=331*
154: 0x1011 [0x01] GOTO 0x1014

SUBROUTINE_1014:
155: 0x1014 [0x45] LOAD_SCHEDULED_TASK: Load scheduler "s011" with entities [EventEntity, EventEntity], work=[331*, 0*]
156: 0x1025 [0x6E] Abquhbah (ID: 16982157/0x0103208D) uses emote 21*
157: 0x102C [0x99] Wait for Abquhbah (ID: 16982157/0x0103208D) animation to complete
158: 0x1031 [0x6E] LocalPlayer uses emote 21*
159: 0x1038 [0x99] Wait for LocalPlayer animation to complete
160: 0x103D [0x2B] Naja Salaheem (ID: 16982156/0x0103208C) [9922*]:
    → "We're about to enter a warzone that will decide the fate of this company!"
161: 0x1044 [0x23] WAIT_FOR_DIALOG_INTERACTION
162: 0x1045 [0x6B] STOP_AND_IDLE: Naja Salaheem (ID: 16982156/0x0103208C) stops current action and resets to idle (animation="idl0")
163: 0x104E [0x2B] Naja Salaheem (ID: 16982156/0x0103208C) [9923*]:
    → "Ya see, we've had an Imperial messenger from the palace..."
164: 0x1055 [0x23] WAIT_FOR_DIALOG_INTERACTION
165: 0x1056 [0x5C] MUSIC_CONTROL: Set Idle (Day) music to song 129*
166: 0x105A [0x5C] MUSIC_CONTROL: Set Idle (Night) music to song 129*
167: 0x105E [0x9A] WAIT_MUSIC_SERVER()
168: 0x105F [0x5B] LOAD_EXT_SCHEDULER: Load scheduler "hap0" with entities [Naja Salaheem (ID: 16982156/0x0103208C), Naja Salaheem (ID: 16982156/0x0103208C)], work=835*
169: 0x106E [0x55] WAIT_LOAD_SCHEDULER: Wait for scheduler "s011" with entities [EventEntity, EventEntity], work=331*
170: 0x107D [0x45] LOAD_SCHEDULED_TASK: Load scheduler "s013" with entities [EventEntity, EventEntity], work=[331*, 0*]
171: 0x108E [0xAE] MULTI_PURPOSE_ENTITY_HANDLER(case_type=0x03 - Mou4, entity=Naja Salaheem (ID: 16982156/0x0103208C), index=1*)
172: 0x1096 [0x2B] Naja Salaheem (ID: 16982156/0x0103208C) [9924*]:
    → "I have been formally invited to the coronation ceremony to reinstate Her Magnificence!"
173: 0x109D [0x23] WAIT_FOR_DIALOG_INTERACTION
174: 0x109E [0x52] END_LOAD_SCHEDULER: End scheduler "s013" with entities [EventEntity, EventEntity], work=331*
175: 0x10AD [0x45] LOAD_SCHEDULED_TASK: Load scheduler "s014" with entities [EventEntity, EventEntity], work=[331*, 0*]
176: 0x10BE [0x2B] Naja Salaheem (ID: 16982156/0x0103208C) [9925*]:
    → "And what's more, I'll be rrrubbing shoulders with members of the royalty, the nobility, Imperial Army officers, not to mention ambassadors from across Urhguum!"
177: 0x10C5 [0x23] WAIT_FOR_DIALOG_INTERACTION
178: 0x10C6 [0x6E] Abquhbah (ID: 16982157/0x0103208D) uses emote 13*
179: 0x10CD [0x99] Wait for Abquhbah (ID: 16982157/0x0103208D) animation to complete
180: 0x10D2 [0x1C] WAIT(120* ticks)
181: 0x10D5 [0x52] END_LOAD_SCHEDULER: End scheduler "s014" with entities [EventEntity, EventEntity], work=331*
182: 0x10E4 [0x45] LOAD_SCHEDULED_TASK: Load scheduler "s015" with entities [EventEntity, EventEntity], work=[331*, 0*]
183: 0x10F5 [0x2B] Naja Salaheem (ID: 16982156/0x0103208C) [9926*]:
    → "Just think of the possibilities--the business rrrelations I could nurture!"
184: 0x10FC [0x23] WAIT_FOR_DIALOG_INTERACTION
185: 0x10FD [0xAE] MULTI_PURPOSE_ENTITY_HANDLER(case_type=0x04 - Mou4, entity=Naja Salaheem (ID: 16982156/0x0103208C), index=ExtData[1]->WorkLocal[0])
186: 0x1105 [0x2B] Naja Salaheem (ID: 16982156/0x0103208C) [9927*]:
    → "A mercenary life is the life for me.t"
187: 0x110C [0x23] WAIT_FOR_DIALOG_INTERACTION
188: 0x110D [0x52] END_LOAD_SCHEDULER: End scheduler "s015" with entities [EventEntity, EventEntity], work=331*
189: 0x111C [0x45] LOAD_SCHEDULED_TASK: Load scheduler "s016" with entities [EventEntity, EventEntity], work=[331*, 0*]
190: 0x112D [0x5B] LOAD_EXT_SCHEDULER: Load scheduler "hap1" with entities [Naja Salaheem (ID: 16982156/0x0103208C), Naja Salaheem (ID: 16982156/0x0103208C)], work=835*
191: 0x113C [0x2B] Naja Salaheem (ID: 16982156/0x0103208C) [9928*]:
    → "Ah, I'd almost forgotten, <Player>. I was asked to bring an escort to the ceremony."
192: 0x1143 [0x23] WAIT_FOR_DIALOG_INTERACTION
193: 0x1144 [0x52] END_LOAD_SCHEDULER: End scheduler "s016" with entities [EventEntity, EventEntity], work=331*
194: 0x1153 [0x45] LOAD_SCHEDULED_TASK: Load scheduler "s017" with entities [EventEntity, EventEntity], work=[331*, 0*]
195: 0x1164 [0x2B] Naja Salaheem (ID: 16982156/0x0103208C) [9929*]:
    → "Hmm, who should I go with...? Drill Sergeant Rongelouts is busy with the academy... Abquhbah..."
196: 0x116B [0x23] WAIT_FOR_DIALOG_INTERACTION
197: 0x116C [0x52] END_LOAD_SCHEDULER: End scheduler "s017" with entities [EventEntity, EventEntity], work=331*
198: 0x117B [0x45] LOAD_SCHEDULED_TASK: Load scheduler "s018" with entities [EventEntity, EventEntity], work=[331*, 0*]
199: 0x118C [0x7C] Abquhbah (ID: 16982157/0x0103208D)->Render.Flags2 |= 0x00
200: 0x1192 [0x6E] Abquhbah (ID: 16982157/0x0103208D) uses emote 11*
201: 0x1199 [0x99] Wait for Abquhbah (ID: 16982157/0x0103208D) animation to complete
202: 0x119E [0x2B] Abquhbah (ID: 16982157/0x0103208D) [9930*]:
    → "!!!"
203: 0x11A5 [0x23] WAIT_FOR_DIALOG_INTERACTION
204: 0x11A6 [0x7C] Abquhbah (ID: 16982157/0x0103208D)->Render.Flags2 |= 0x01
205: 0x11AC [0x52] END_LOAD_SCHEDULER: End scheduler "s018" with entities [EventEntity, EventEntity], work=331*
206: 0x11BB [0x45] LOAD_SCHEDULED_TASK: Load scheduler "s019" with entities [EventEntity, EventEntity], work=[331*, 0*]
207: 0x11CC [0x2B] Naja Salaheem (ID: 16982156/0x0103208C) [9931*]:
    → "...is busy mindin' the office..."
208: 0x11D3 [0x23] WAIT_FOR_DIALOG_INTERACTION
209: 0x11D4 [0x6E] Abquhbah (ID: 16982157/0x0103208D) uses emote 19*
210: 0x11DB [0x99] Wait for Abquhbah (ID: 16982157/0x0103208D) animation to complete
211: 0x11E0 [0x1C] WAIT(150* ticks)
212: 0x11E3 [0x5D] SET_MUSIC_VOLUME(volume=0*, fade_time=120*)
213: 0x11E8 [0x52] END_LOAD_SCHEDULER: End scheduler "s019" with entities [EventEntity, EventEntity], work=331*
214: 0x11F7 [0x45] LOAD_SCHEDULED_TASK: Load scheduler "s020" with entities [EventEntity, EventEntity], work=[331*, 0*]
215: 0x1208 [0x5B] LOAD_EXT_SCHEDULER: Load scheduler "hapr" with entities [Naja Salaheem (ID: 16982156/0x0103208C), Naja Salaheem (ID: 16982156/0x0103208C)], work=835*
216: 0x1217 [0x2B] Naja Salaheem (ID: 16982156/0x0103208C) [9932*]:
    → "Ah, who am I kiddin'?"
217: 0x121E [0x23] WAIT_FOR_DIALOG_INTERACTION
218: 0x121F [0x5C] MUSIC_CONTROL: Set Idle (Day) music to song 178*
219: 0x1223 [0x5C] MUSIC_CONTROL: Set Idle (Night) music to song 178*
220: 0x1227 [0x9A] WAIT_MUSIC_SERVER()
221: 0x1228 [0x2B] Naja Salaheem (ID: 16982156/0x0103208C) [9933*]:
    → "Ya know as well as I do what that rrrequest was all about."
222: 0x122F [0x23] WAIT_FOR_DIALOG_INTERACTION
223: 0x1230 [0x5B] LOAD_EXT_SCHEDULER: Load scheduler "tlk0" with entities [Naja Salaheem (ID: 16982156/0x0103208C), Naja Salaheem (ID: 16982156/0x0103208C)], work=833*
224: 0x123F [0x2B] Naja Salaheem (ID: 16982156/0x0103208C) [9934*]:
    → "Her Magnificence is still a simple girl at heart."
225: 0x1246 [0x23] WAIT_FOR_DIALOG_INTERACTION
226: 0x1247 [0x52] END_LOAD_SCHEDULER: End scheduler "s020" with entities [EventEntity, EventEntity], work=331*
227: 0x1256 [0x45] LOAD_SCHEDULED_TASK: Load scheduler "s022" with entities [EventEntity, EventEntity], work=[331*, 0*]
228: 0x1267 [0x5B] LOAD_EXT_SCHEDULER: Load scheduler "tlk1" with entities [Naja Salaheem (ID: 16982156/0x0103208C), Naja Salaheem (ID: 16982156/0x0103208C)], work=833*
229: 0x1276 [0x2B] Naja Salaheem (ID: 16982156/0x0103208C) [9935*]:
    → "You showed your mercenary mettle out there on Nyzul Isle, didn't ya?"
230: 0x127D [0x23] WAIT_FOR_DIALOG_INTERACTION
231: 0x127E [0x24] CREATE_DIALOG(message_id=9936*, default_option=0*, option_flags=0*)
    → "Did you show your mercenary mettle? [I sure did./I just did my job.]"
232: 0x1285 [0x25] WAIT_DIALOG_SELECT()
233: 0x1286 [0x02] IF !(Work_Zone[0] == 0*) GOTO 0x12A8
234: 0x128E [0x6E] LocalPlayer uses emote 7*
235: 0x1295 [0x99] Wait for LocalPlayer animation to complete
236: 0x129A [0x1C] WAIT(120* ticks)
237: 0x129D [0x2B] Naja Salaheem (ID: 16982156/0x0103208C) [9937*]:
    → "Hehe! I knew I could count on ya..."
238: 0x12A4 [0x23] WAIT_FOR_DIALOG_INTERACTION
239: 0x12A5 [0x01] GOTO 0x12D9
240: 0x12A8 [0x02] IF !(Work_Zone[0] == 1*) GOTO 0x12D9
241: 0x12B0 [0x6E] LocalPlayer uses emote 6*
242: 0x12B7 [0x99] Wait for LocalPlayer animation to complete
243: 0x12BC [0x1C] WAIT(120* ticks)
244: 0x12BF [0x5B] LOAD_EXT_SCHEDULER: Load scheduler "tlk0" with entities [Naja Salaheem (ID: 16982156/0x0103208C), Naja Salaheem (ID: 16982156/0x0103208C)], work=833*
245: 0x12CE [0x2B] Naja Salaheem (ID: 16982156/0x0103208C) [9938*]:
    → "Humility! Now that's a fine quality for a prrresident's escort!"
246: 0x12D5 [0x23] WAIT_FOR_DIALOG_INTERACTION
247: 0x12D6 [0x01] GOTO 0x12D9

SUBROUTINE_12D9:
248: 0x12D9 [0x52] END_LOAD_SCHEDULER: End scheduler "s022" with entities [EventEntity, EventEntity], work=331*
249: 0x12E8 [0x45] LOAD_SCHEDULED_TASK: Load scheduler "s025" with entities [EventEntity, EventEntity], work=[331*, 0*]
250: 0x12F9 [0x5B] LOAD_EXT_SCHEDULER: Load scheduler "pnt0" with entities [Naja Salaheem (ID: 16982156/0x0103208C), Naja Salaheem (ID: 16982156/0x0103208C)], work=833*
251: 0x1308 [0xAE] MULTI_PURPOSE_ENTITY_HANDLER(case_type=0x03 - Mou4, entity=Naja Salaheem (ID: 16982156/0x0103208C), index=1*)
252: 0x1310 [0x2B] Naja Salaheem (ID: 16982156/0x0103208C) [9939*]:
    → "Well, you better get prrreparin' for your visit to the palace! If ya show up late to the ceremony, I'll have your hide for a thrrrow rug!"
253: 0x1317 [0x23] WAIT_FOR_DIALOG_INTERACTION
254: 0x1318 [0xAE] MULTI_PURPOSE_ENTITY_HANDLER(case_type=0x04 - Mou4, entity=Naja Salaheem (ID: 16982156/0x0103208C), index=ExtData[1]->WorkLocal[0])
255: 0x1320 [0x45] LOAD_SCHEDULED_TASK: Load scheduler "fdo1" with entities [EventEntity, EventEntity], work=[200*, 0*]
256: 0x1331 [0x55] WAIT_LOAD_SCHEDULER: Wait for scheduler "fdo1" with entities [EventEntity, EventEntity], work=200*
257: 0x1340 [0x52] END_LOAD_SCHEDULER: End scheduler "s025" with entities [EventEntity, EventEntity], work=331*
258: 0x134F [0x6B] STOP_AND_IDLE: Naja Salaheem (ID: 16982156/0x0103208C) stops current action and resets to idle (animation="idl0")
259: 0x1358 [0x29] REQ_SET_WAIT(priority=0x10, entity_id=Naja Salaheem (ID: 16982156/0x0103208C), tag_num=0x25)
260: 0x135F [0x46] CAMERA_CONTROL: Restore default settings
261: 0x1361 [0x1C] WAIT(60* ticks)
262: 0x1364 [0x45] LOAD_SCHEDULED_TASK: Load scheduler "fdi2" with entities [EventEntity, EventEntity], work=[200*, 0*]
263: 0x1375 [0x21] END_EVENT
264: 0x1376 [0x00] END_REQSTACK()
```

### Event 3140

#### Metadata

| Field        | Value       |
|--------------|-------------|
| Entrypoint   | 0x1377      |
| Data Size    | 15055 bytes |
| Instructions | 1606        |

```
      00 01 02 03 04 05 06 07  08 09 0A 0B 0C 0D 0E 0F
      -- -- -- -- -- -- -- --  -- -- -- -- -- -- -- --
1370:                      42  5D 01 80 14 80 45 00 80         B]....E..
1380: F8 FF FF 7F F8 FF FF 7F  66 64 6F 31 01 80 55 00  ........fdo1..U.
1390: 80 F8 FF FF 7F F8 FF FF  7F 66 64 6F 31 46 01 38  .........fdo1F.8
13A0: 02 80 34 8A 80 77 01 80  66 80 1C 0F 80 AB 09 4E  ..4..w..f......N
13B0: 01 1E 20 03 01 4E 00 0B  22 03 01 2F 00 CC 20 03  .. ..N.."../.. .
13C0: 01 2F 00 1A 21 03 01 4E  00 1A 21 03 01 2F 00 CE  ./..!..N..!../..
13D0: 20 03 01 4E 00 CE 20 03  01 2F 00 E3 20 03 01 4E   ..N.. ../.. ..N
13E0: 00 E3 20 03 01 2F 00 E4  20 03 01 4E 00 E4 20 03  .. ../.. ..N.. .
13F0: 01 2F 00 E5 20 03 01 4E  00 E5 20 03 01 2F 00 D6  ./.. ..N.. ../..
1400: 20 03 01 4E 00 D6 20 03  01 2F 00 D7 20 03 01 4E   ..N.. ../.. ..N
1410: 00 D7 20 03 01 2F 00 E6  20 03 01 4E 00 E6 20 03  .. ../.. ..N.. .
1420: 01 94 01 F0 FF FF 7F 94  01 8C 20 03 01 94 01 CC  .......... .....
1430: 20 03 01 94 01 CE 20 03  01 94 01 E3 20 03 01 94   ..... ..... ...
1440: 01 E4 20 03 01 94 01 E5  20 03 01 94 01 D6 20 03  .. ..... ..... .
1450: 01 94 01 D7 20 03 01 94  01 E6 20 03 01 BA 8C 20  .... ..... .... 
1460: 03 01 8B 80 8C 80 01 80  8D 80 BA F0 FF FF 7F 8E  ................
1470: 80 8F 80 01 80 90 80 BA  0B 22 03 01 8E 80 8F 80  ........."......
1480: 01 80 90 80 BA CC 20 03  01 91 80 92 80 01 80 93  ...... .........
1490: 80 BA 1A 21 03 01 94 80  95 80 01 80 96 80 BA CE  ...!............
14A0: 20 03 01 97 80 98 80 01  80 99 80 BA E3 20 03 01   ............ ..
14B0: 9A 80 9B 80 01 80 9C 80  BA E4 20 03 01 9D 80 9E  .......... .....
14C0: 80 01 80 9F 80 BA E5 20  03 01 A0 80 A1 80 01 80  ....... ........
14D0: 9F 80 BA D6 20 03 01 A2  80 A3 80 01 80 A4 80 BA  .... ...........
14E0: D7 20 03 01 A5 80 A6 80  01 80 A4 80 BA E6 20 03  . ............ .
14F0: 01 A7 80 A8 80 01 80 A9  80 80 F0 FF FF 7F 80 8C  ................
1500: 20 03 01 80 1A 21 03 01  80 CE 20 03 01 80 E3 20   ....!.... .... 
1510: 03 01 80 E4 20 03 01 80  E5 20 03 01 80 D6 20 03  .... .... .... .
1520: 01 80 D7 20 03 01 80 E6  20 03 01 27 05 11 21 03  ... .... ..'..!.
1530: 01 5A 27 05 11 21 03 01  58 2C E3 20 03 01 E3 20  .Z'..!..X,. ... 
1540: 03 01 77 70 6F 66 5B AA  80 1A 21 03 01 1A 21 03  ..wpof[...!...!.
1550: 01 61 73 74 6C 29 10 8C  20 03 01 24 29 10 8C 20  .astl).. ..$).. 
1560: 03 01 22 45 AB 80 F8 FF  FF 7F F8 FF FF 7F 73 30  .."E..........s0
1570: 30 34 01 80 1C 12 80 45  00 80 F8 FF FF 7F F8 FF  04.....E........
1580: FF 7F 66 64 69 31 01 80  55 00 80 F8 FF FF 7F F8  ..fdi1..U.......
1590: FF FF 7F 66 64 69 31 1C  15 80 27 05 8C 20 03 01  ...fdi1...'.. ..
15A0: B6 27 05 0B 22 03 01 3A  1C 0F 80 52 AB 80 F8 FF  .'.."..:...R....
15B0: FF 7F F8 FF FF 7F 73 30  30 34 45 AB 80 F8 FF FF  ......s004E.....
15C0: 7F F8 FF FF 7F 73 30 30  36 01 80 4A E4 20 03 01  .....s006..J. ..
15D0: E6 20 03 01 4A E5 20 03  01 E6 20 03 01 4A E3 20  . ..J. ... ..J. 
15E0: 03 01 E6 20 03 01 4A D6  20 03 01 E6 20 03 01 4A  ... ..J. ... ..J
