# 16982623

## Common Data

| Field            | Value                          |
|------------------|--------------------------------|
| Zone             | Aht Urhgan Whitegate2 (ID: 50) |
| Block Size       | 66680 bytes                    |
| Total Events     | 14                             |
| References Count | 767                            |

## List of Events

| Event ID              | Entrypoint   |   Size |   Instructions |
|-----------------------|--------------|--------|----------------|
| [65535](#event-65535) | 0x0000       |      1 |              1 |
| [933](#event-933)     | 0x0001       |   5403 |            588 |
| [934](#event-934)     | 0x151C       |  11193 |           1304 |
| [935](#event-935)     | 0x40D5       |   4339 |            489 |
| [936](#event-936)     | 0x51C8       |   5271 |            584 |
| [937](#event-937)     | 0x665F       |   1619 |            206 |
| [938](#event-938)     | 0x6CB2       |   3511 |            381 |
| [954](#event-954)     | 0x7A69       |    348 |             63 |
| [955](#event-955)     | 0x7BC5       |    480 |             74 |
| [939](#event-939)     | 0x7DA5       |   3886 |            458 |
| [943](#event-943)     | 0x8CD3       |  18779 |           2069 |
| [942](#event-942)     | 0xD62E       |   1381 |            177 |
| [944](#event-944)     | 0xDB93       |   3516 |            382 |
| [945](#event-945)     | 0xE94F       |   3813 |            414 |

## DAT References (imed_data)

|   Index | Hex Value   |   Dec Value |
|---------|-------------|-------------|
|       0 | 0x0001      |           1 |
|       1 | 0x0013      |          19 |
|       2 | 0x0232      |         562 |
|       3 | 0x1380B     |       79883 |
|       4 | 0x667D      |       26237 |
|       5 | 0xFFFFFEBC  |  4294966972 |
|       6 | 0x0C6E      |        3182 |
|       7 | 0x14100     |       82176 |
|       8 | 0xC730      |       50992 |
|       9 | 0x01E0      |         480 |
|      10 | 0x04B0      |        1200 |
|      11 | 0x13A60     |       80480 |
|      12 | 0xD22D      |       53805 |
|      13 | 0xFFFFFEBB  |  4294966971 |
|      14 | 0x000F      |          15 |
|      15 | 0x0206      |         518 |
|      16 | 0x0000      |           0 |
|      17 | 0x005A      |          90 |
|      18 | 0x0002      |           2 |
|      19 | 0x0003      |           3 |
|      20 | 0x0004      |           4 |
|      21 | 0x0005      |           5 |
|      22 | 0x0006      |           6 |
|      23 | 0x0007      |           7 |
|      24 | 0x0008      |           8 |
|      25 | 0x3A9E      |       15006 |
|      26 | 0x001E      |          30 |
|      27 | 0x0D48      |        3400 |
|      28 | 0x0032      |          50 |
|      29 | 0x000A      |          10 |
|      30 | 0x0014      |          20 |
|      31 | 0x0353      |         851 |
|      32 | 0x003C      |          60 |
|      33 | 0x3A9F      |       15007 |
|      34 | 0x0016      |          22 |
|      35 | 0x00B4      |         180 |
|      36 | 0x0389      |         905 |
|      37 | 0x3AA0      |       15008 |
|      38 | 0x0028      |          40 |
|      39 | 0x1514A     |       86346 |
|      40 | 0xB381      |       45953 |
|      41 | 0x0961      |        2401 |
|      42 | 0x14827     |       84007 |
|      43 | 0xC19F      |       49567 |
|      44 | 0x0258      |         600 |
|      45 | 0x14526     |       83238 |
|      46 | 0xBD91      |       48529 |
|      47 | 0x012C      |         300 |
|      48 | 0x13ADB     |       80603 |
|      49 | 0xD3AA      |       54186 |
|      50 | 0x096E      |        2414 |
|      51 | 0x13F54     |       81748 |
|      52 | 0xD653      |       54867 |
|      53 | 0xFFFFFEC5  |  4294966981 |
|      54 | 0x0352      |         850 |
|      55 | 0x3AA1      |       15009 |
|      56 | 0x3AA2      |       15010 |
|      57 | 0x035A      |         858 |
|      58 | 0x3AA3      |       15011 |
|      59 | 0x3AA4      |       15012 |
|      60 | 0x3AA5      |       15013 |
|      61 | 0x3AA6      |       15014 |
|      62 | 0x0064      |         100 |
|      63 | 0x04E1      |        1249 |
|      64 | 0x3AA7      |       15015 |
|      65 | 0x3AA8      |       15016 |
|      66 | 0x0078      |         120 |
|      67 | 0x3AA9      |       15017 |
|      68 | 0x3AAA      |       15018 |
|      69 | 0x0015      |          21 |
|      70 | 0x3AAB      |       15019 |
|      71 | 0x3AAC      |       15020 |
|      72 | 0x001D      |          29 |
|      73 | 0x3AAD      |       15021 |
|      74 | 0x3AAE      |       15022 |
|      75 | 0x0046      |          70 |
|      76 | 0x0096      |         150 |
|      77 | 0x3AAF      |       15023 |
|      78 | 0x3AB0      |       15024 |
|      79 | 0x3AB1      |       15025 |
|      80 | 0x3AB2      |       15026 |
|      81 | 0x3AB3      |       15027 |
|      82 | 0x00AE      |         174 |
|      83 | 0x3AB4      |       15028 |
|      84 | 0x3AB5      |       15029 |
|      85 | 0x3AB6      |       15030 |
|      86 | 0x3AB7      |       15031 |
|      87 | 0x3AB8      |       15032 |
|      88 | 0x3AB9      |       15033 |
|      89 | 0x038A      |         906 |
|      90 | 0x008C      |         140 |
|      91 | 0x3ABA      |       15034 |
|      92 | 0x3ABB      |       15035 |
|      93 | 0x3ABC      |       15036 |
|      94 | 0x00B2      |         178 |
|      95 | 0x3ABD      |       15037 |
|      96 | 0x3ABE      |       15038 |
|      97 | 0x3ABF      |       15039 |
|      98 | 0x3AC0      |       15040 |
|      99 | 0x3AC1      |       15041 |
|     100 | 0x3AC2      |       15042 |
|     101 | 0x1389B     |       80027 |
|     102 | 0xD720      |       55072 |
|     103 | 0x0400      |        1024 |
|     104 | 0x158A9     |       88233 |
|     105 | 0xB2F4      |       45812 |
|     106 | 0x06E3      |        1763 |
|     107 | 0x00C8      |         200 |
|     108 | 0x138BE     |       80062 |
|     109 | 0x6618      |       26136 |
|     110 | 0x14571     |       83313 |
|     111 | 0xC1D2      |       49618 |
|     112 | 0x03E8      |        1000 |
|     113 | 0x14203     |       82435 |
|     114 | 0xC7A2      |       51106 |
|     115 | 0x0208      |         520 |
|     116 | 0x002D      |          45 |
|     117 | 0x3AC3      |       15043 |
|     118 | 0x0024      |          36 |
|     119 | 0x3AC4      |       15044 |
|     120 | 0x3AC5      |       15045 |
|     121 | 0x3AC6      |       15046 |
|     122 | 0x0050      |          80 |
|     123 | 0x022F      |         559 |
|     124 | 0x034A      |         842 |
|     125 | 0xFFFF66AA  |  4294928042 |
|     126 | 0x0C00      |        3072 |
|     127 | 0xFFFFFBE1  |  4294966241 |
|     128 | 0xFFFF6849  |  4294928457 |
|     129 | 0x0C01      |        3073 |
|     130 | 0xFFFFFFFB  |  4294967291 |
|     131 | 0xFFFF5E03  |  4294925827 |
|     132 | 0xFFFFFEA7  |  4294966951 |
|     133 | 0xFFFFA89A  |  4294944922 |
|     134 | 0xFFFFDF03  |  4294958851 |
|     135 | 0xCE4F      |       52815 |
|     136 | 0x023D      |         573 |
|     137 | 0x283D      |       10301 |
|     138 | 0x00BE      |         190 |
|     139 | 0x03A7      |         935 |
|     140 | 0x00B7      |         183 |
|     141 | 0x0399      |         921 |
|     142 | 0xFFFFFAD3  |  4294965971 |
|     143 | 0xFFFF77E7  |  4294932455 |
|     144 | 0x0BFF      |        3071 |
|     145 | 0x0136      |         310 |
|     146 | 0xFFFF7925  |  4294932773 |
|     147 | 0xFFFFFE08  |  4294966792 |
|     148 | 0xFFFF7433  |  4294931507 |
|     149 | 0x3AC7      |       15047 |
|     150 | 0x037B      |         891 |
|     151 | 0x3AC8      |       15048 |
|     152 | 0x3AC9      |       15049 |
|     153 | 0x3ACA      |       15050 |
|     154 | 0x3ACB      |       15051 |
|     155 | 0x3ACC      |       15052 |
|     156 | 0x006E      |         110 |
|     157 | 0xBB49      |       47945 |
|     158 | 0x0431      |        1073 |
|     159 | 0x031C      |         796 |
|     160 | 0xB3B1      |       46001 |
|     161 | 0xFFFFFD73  |  4294966643 |
|     162 | 0xB3AD      |       45997 |
|     163 | 0xFFFFFBEF  |  4294966255 |
|     164 | 0xAD6F      |       44399 |
|     165 | 0x0049      |          73 |
|     166 | 0xB424      |       46116 |
|     167 | 0x046E      |        1134 |
|     168 | 0x3ACD      |       15053 |
|     169 | 0x3ACE      |       15054 |
|     170 | 0x3ACF      |       15055 |
|     171 | 0x3AD0      |       15056 |
|     172 | 0x0BFE      |        3070 |
|     173 | 0x3AD1      |       15057 |
|     174 | 0x039E      |         926 |
|     175 | 0x3AD2      |       15058 |
|     176 | 0x3AD3      |       15059 |
|     177 | 0x046D      |        1133 |
|     178 | 0x3AD4      |       15060 |
|     179 | 0x00A0      |         160 |
|     180 | 0x3AD5      |       15061 |
|     181 | 0x3AD6      |       15062 |
|     182 | 0x3AD7      |       15063 |
|     183 | 0x3AD8      |       15064 |
|     184 | 0x3AD9      |       15065 |
|     185 | 0x3ADA      |       15066 |
|     186 | 0x3ADB      |       15067 |
|     187 | 0xC044      |       49220 |
|     188 | 0x0432      |        1074 |
|     189 | 0x038F      |         911 |
|     190 | 0xBA38      |       47672 |
|     191 | 0x0C9E      |        3230 |
|     192 | 0xFFFFFDF8  |  4294966776 |
|     193 | 0xBA04      |       47620 |
|     194 | 0x0C02      |        3074 |
|     195 | 0xFFFFFD47  |  4294966599 |
|     196 | 0xB3F4      |       46068 |
|     197 | 0xFFFFDB19  |  4294957849 |
|     198 | 0xCD89      |       52617 |
|     199 | 0x3ADC      |       15068 |
|     200 | 0x3ADD      |       15069 |
|     201 | 0x3ADE      |       15070 |
|     202 | 0x3ADF      |       15071 |
|     203 | 0x3AE0      |       15072 |
|     204 | 0x05C0      |        1472 |
|     205 | 0xB49E      |       46238 |
|     206 | 0x09C5      |        2501 |
|     207 | 0x3AE1      |       15073 |
|     208 | 0x3AE2      |       15074 |
|     209 | 0x3AE3      |       15075 |
|     210 | 0x3AE4      |       15076 |
|     211 | 0x0094      |         148 |
|     212 | 0x3AE5      |       15077 |
|     213 | 0x3AE6      |       15078 |
|     214 | 0x3AE7      |       15079 |
|     215 | 0x3AE8      |       15080 |
|     216 | 0x3AE9      |       15081 |
|     217 | 0x3AEA      |       15082 |
|     218 | 0x0045      |          69 |
|     219 | 0x3AEB      |       15083 |
|     220 | 0x3AEC      |       15084 |
|     221 | 0x3AED      |       15085 |
|     222 | 0x3AEE      |       15086 |
|     223 | 0x3AEF      |       15087 |
|     224 | 0x004E      |          78 |
|     225 | 0xFFFBC9F8  |  4294691320 |
|     226 | 0xFFFF73BB  |  4294931387 |
|     227 | 0x8496      |       33942 |
|     228 | 0x0E00      |        3584 |
|     229 | 0xFFFBB9EE  |  4294687214 |
|     230 | 0xFFFF62BD  |  4294927037 |
|     231 | 0x84CF      |       33999 |
|     232 | 0x0D9A      |        3482 |
|     233 | 0xFFFBEFD3  |  4294701011 |
|     234 | 0xFFFF963D  |  4294940221 |
|     235 | 0x8696      |       34454 |
|     236 | 0x05FF      |        1535 |
|     237 | 0xFFFBEE59  |  4294700633 |
|     238 | 0xFFFF9EEC  |  4294942444 |
|     239 | 0x8698      |       34456 |
|     240 | 0x0600      |        1536 |
|     241 | 0xFFFBFC0F  |  4294704143 |
|     242 | 0xFFFF8EA4  |  4294938276 |
|     243 | 0x87BF      |       34751 |
|     244 | 0xFFFBF8B0  |  4294703280 |
|     245 | 0xFFFFA0F4  |  4294942964 |
|     246 | 0x8711      |       34577 |
|     247 | 0x0047      |          71 |
|     248 | 0x0048      |          72 |
|     249 | 0x0207      |         519 |
|     250 | 0x3AF0      |       15088 |
|     251 | 0x00F0      |         240 |
|     252 | 0x00D2      |         210 |
|     253 | 0x3AF1      |       15089 |
|     254 | 0x0104      |         260 |
|     255 | 0xFFFBEFDD  |  4294701021 |
|     256 | 0xFFFF9A11  |  4294941201 |
|     257 | 0x8661      |       34401 |
|     258 | 0xFFFBF9AC  |  4294703532 |
|     259 | 0xFFFF9A4E  |  4294941262 |
|     260 | 0x86C5      |       34501 |
|     261 | 0xFFFC0441  |  4294706241 |
|     262 | 0xFFFF95AF  |  4294940079 |
|     263 | 0x87AD      |       34733 |
|     264 | 0xFFFBF5F2  |  4294702578 |
|     265 | 0xFFFFA027  |  4294942759 |
|     266 | 0x86ED      |       34541 |
|     267 | 0x3AF2      |       15090 |
|     268 | 0x3AF3      |       15091 |
|     269 | 0x017C      |         380 |
|     270 | 0xFFFBAAE5  |  4294683365 |
|     271 | 0xFFFF5C39  |  4294925369 |
|     272 | 0xFFFBAEEB  |  4294684395 |
|     273 | 0xFFFF5108  |  4294922504 |
|     274 | 0x84B7      |       33975 |
|     275 | 0x0451      |        1105 |
|     276 | 0x040C      |        1036 |
|     277 | 0x044F      |        1103 |
|     278 | 0x0469      |        1129 |
|     279 | 0x3AF4      |       15092 |
|     280 | 0x3AF5      |       15093 |
|     281 | 0x3AF6      |       15094 |
|     282 | 0x3AF7      |       15095 |
|     283 | 0x0704      |        1796 |
|     284 | 0xB73B      |       46907 |
|     285 | 0x028C      |         652 |
|     286 | 0xB962      |       47458 |
|     287 | 0x090B      |        2315 |
|     288 | 0xFFFFF5FB  |  4294964731 |
|     289 | 0xBE9E      |       48798 |
|     290 | 0x3AF8      |       15096 |
|     291 | 0x3AF9      |       15097 |
|     292 | 0x3AFA      |       15098 |
|     293 | 0x3AFB      |       15099 |
|     294 | 0x3AFC      |       15100 |
|     295 | 0x3AFD      |       15101 |
|     296 | 0x3AFE      |       15102 |
|     297 | 0x0351      |         849 |
|     298 | 0x3AFF      |       15103 |
|     299 | 0x3B00      |       15104 |
|     300 | 0x3B01      |       15105 |
|     301 | 0x0E88      |        3720 |
|     302 | 0x3B02      |       15106 |
|     303 | 0x3B03      |       15107 |
|     304 | 0x0487      |        1159 |
|     305 | 0xAF29      |       44841 |
|     306 | 0x0B78      |        2936 |
|     307 | 0x3B04      |       15108 |
|     308 | 0x3B05      |       15109 |
|     309 | 0x026E      |         622 |
|     310 | 0xADCD      |       44493 |
|     311 | 0x0B63      |        2915 |
|     312 | 0x00B3      |         179 |
|     313 | 0x3B06      |       15110 |
|     314 | 0x3B07      |       15111 |
|     315 | 0x3B08      |       15112 |
|     316 | 0xFFFFFF0E  |  4294967054 |
|     317 | 0xB166      |       45414 |
|     318 | 0x0B64      |        2916 |
|     319 | 0x3B09      |       15113 |
|     320 | 0x3B0A      |       15114 |
|     321 | 0x0992      |        2450 |
|     322 | 0x3B0B      |       15115 |
|     323 | 0xFFFFF5E1  |  4294964705 |
|     324 | 0xB9BD      |       47549 |
|     325 | 0x3B0C      |       15116 |
|     326 | 0x3B0D      |       15117 |
|     327 | 0xFFFFED2F  |  4294962479 |
|     328 | 0xC0AA      |       49322 |
|     329 | 0xFFFFFF84  |  4294967172 |
|     330 | 0xAA76      |       43638 |
|     331 | 0x3B0E      |       15118 |
|     332 | 0x3B0F      |       15119 |
|     333 | 0x3B10      |       15120 |
|     334 | 0x3B11      |       15121 |
|     335 | 0x3B12      |       15122 |
|     336 | 0x04EF      |        1263 |
|     337 | 0x3B13      |       15123 |
|     338 | 0x3B14      |       15124 |
|     339 | 0x3B15      |       15125 |
|     340 | 0x3B16      |       15126 |
|     341 | 0x0201      |         513 |
|     342 | 0x2504C     |      151628 |
|     343 | 0xFFFFF769  |  4294965097 |
|     344 | 0x07FE      |        2046 |
|     345 | 0xFFFFFFE2  |  4294967266 |
|     346 | 0x92F0      |       37616 |
|     347 | 0x0B9F      |        2975 |
|     348 | 0xFFFFFFE6  |  4294967270 |
|     349 | 0xC15A      |       49498 |
|     350 | 0x03F1      |        1009 |
|     351 | 0xFFFFFCCE  |  4294966478 |
|     352 | 0xFFFFD70B  |  4294956811 |
|     353 | 0x0C09      |        3081 |
|     354 | 0x02BE      |         702 |
|     355 | 0xFFFFD714  |  4294956820 |
|     356 | 0xFFFFF37C  |  4294964092 |
|     357 | 0xBD54      |       48468 |
|     358 | 0x022B      |         555 |
|     359 | 0x04C4      |        1220 |
|     360 | 0x3B17      |       15127 |
|     361 | 0x3B18      |       15128 |
|     362 | 0x00B9      |         185 |
|     363 | 0x3B19      |       15129 |
|     364 | 0x3B1A      |       15130 |
|     365 | 0x3B1B      |       15131 |
|     366 | 0x3B1C      |       15132 |
|     367 | 0x3B1D      |       15133 |
|     368 | 0x3B1E      |       15134 |
|     369 | 0x3B1F      |       15135 |
|     370 | 0x3B20      |       15136 |
|     371 | 0x3B21      |       15137 |
|     372 | 0x3B22      |       15138 |
|     373 | 0x3B23      |       15139 |
|     374 | 0x3B24      |       15140 |
|     375 | 0x0023      |          35 |
|     376 | 0x3B25      |       15141 |
|     377 | 0x3B26      |       15142 |
|     378 | 0x3B27      |       15143 |
|     379 | 0x3B28      |       15144 |
|     380 | 0x3B29      |       15145 |
|     381 | 0x3B2A      |       15146 |
|     382 | 0x3B2B      |       15147 |
|     383 | 0x3B2C      |       15148 |
|     384 | 0x005E      |          94 |
|     385 | 0x0B5D      |        2909 |
|     386 | 0x0439      |        1081 |
|     387 | 0xFFFFFD82  |  4294966658 |
|     388 | 0xFFFFD804  |  4294957060 |
|     389 | 0x027A      |         634 |
|     390 | 0xFFFFCE69  |  4294954601 |
|     391 | 0x3B2D      |       15149 |
|     392 | 0x3B2E      |       15150 |
|     393 | 0x3B2F      |       15151 |
|     394 | 0x3B30      |       15152 |
|     395 | 0x3B31      |       15153 |
|     396 | 0x3B32      |       15154 |
|     397 | 0x3B33      |       15155 |
|     398 | 0x3B34      |       15156 |
|     399 | 0x3B35      |       15157 |
|     400 | 0x3B36      |       15158 |
|     401 | 0x3B37      |       15159 |
|     402 | 0x3B38      |       15160 |
|     403 | 0x007F      |         127 |
|     404 | 0x00C9      |         201 |
|     405 | 0x0233      |         563 |
|     406 | 0x693D      |       26941 |
|     407 | 0xFFFF4D67  |  4294921575 |
|     408 | 0xFFFFE184  |  4294959492 |
|     409 | 0x07FF      |        2047 |
|     410 | 0x0342      |         834 |
|     411 | 0x0341      |         833 |
|     412 | 0x3B39      |       15161 |
|     413 | 0x3B3A      |       15162 |
|     414 | 0x3B3B      |       15163 |
|     415 | 0x0356      |         854 |
|     416 | 0x3B3C      |       15164 |
|     417 | 0x3B3D      |       15165 |
|     418 | 0x119C      |        4508 |
|     419 | 0x3B3E      |       15166 |
|     420 | 0x3B3F      |       15167 |
|     421 | 0x3B40      |       15168 |
|     422 | 0x03AA      |         938 |
|     423 | 0x3B41      |       15169 |
|     424 | 0x3B4C      |       15180 |
|     425 | 0x3B4D      |       15181 |
|     426 | 0x3B4E      |       15182 |
|     427 | 0x3B42      |       15170 |
|     428 | 0x3B43      |       15171 |
|     429 | 0x3B44      |       15172 |
|     430 | 0x675C      |       26460 |
|     431 | 0xFFFF5064  |  4294922340 |
|     432 | 0x016D      |         365 |
|     433 | 0x0009      |           9 |
|     434 | 0x3B45      |       15173 |
|     435 | 0x048B      |        1163 |
|     436 | 0x3B46      |       15174 |
|     437 | 0x004B      |          75 |
|     438 | 0x3B47      |       15175 |
|     439 | 0x3B48      |       15176 |
|     440 | 0x3B49      |       15177 |
|     441 | 0x0344      |         836 |
|     442 | 0x3B4A      |       15178 |
|     443 | 0x6C94      |       27796 |
|     444 | 0xFFFF5039  |  4294922297 |
|     445 | 0x07D0      |        2000 |
|     446 | 0x3B4B      |       15179 |
|     447 | 0x3B4F      |       15183 |
|     448 | 0x3B50      |       15184 |
|     449 | 0x0343      |         835 |
|     450 | 0x3B51      |       15185 |
|     451 | 0x3B52      |       15186 |
|     452 | 0x58AC      |       22700 |
|     453 | 0xFFFF4E76  |  4294921846 |
|     454 | 0xFFFF4DE9  |  4294921705 |
|     455 | 0x7053      |       28755 |
|     456 | 0xFFFF563D  |  4294923837 |
|     457 | 0x055D      |        1373 |
|     458 | 0x6597      |       26007 |
|     459 | 0xFFFF516B  |  4294922603 |
|     460 | 0x04C7      |        1223 |
|     461 | 0x3B53      |       15187 |
|     462 | 0x3B54      |       15188 |
|     463 | 0x000D      |          13 |
|     464 | 0x3B55      |       15189 |
|     465 | 0x000C      |          12 |
|     466 | 0x3B56      |       15190 |
|     467 | 0x5DAA      |       23978 |
|     468 | 0xFFFF0390  |  4294902672 |
|     469 | 0xFFFFE891  |  4294961297 |
|     470 | 0xFFFFF653  |  4294964819 |
|     471 | 0xB7A7      |       47015 |
|     472 | 0xFFFFEF65  |  4294963045 |
|     473 | 0xB200      |       45568 |
|     474 | 0xFFFFF31B  |  4294963995 |
|     475 | 0xB54C      |       46412 |
|     476 | 0x3B58      |       15192 |
|     477 | 0x3B59      |       15193 |
|     478 | 0x3B5A      |       15194 |
|     479 | 0x3B5C      |       15196 |
|     480 | 0x3B5D      |       15197 |
|     481 | 0x3B5B      |       15195 |
|     482 | 0x3B5E      |       15198 |
|     483 | 0x3B5F      |       15199 |
|     484 | 0x3B60      |       15200 |
|     485 | 0x3B61      |       15201 |
|     486 | 0x3B62      |       15202 |
|     487 | 0x3B63      |       15203 |
|     488 | 0x0082      |         130 |
|     489 | 0xFFFFFF85  |  4294967173 |
|     490 | 0xA0EF      |       41199 |
|     491 | 0x0BFC      |        3068 |
|     492 | 0x00AD      |         173 |
|     493 | 0x3B64      |       15204 |
|     494 | 0x3B65      |       15205 |
|     495 | 0x0010      |          16 |
|     496 | 0xB3C2      |       46018 |
|     497 | 0x098F      |        2447 |
|     498 | 0xFFFFE73D  |  4294960957 |
|     499 | 0xC6B6      |       50870 |
|     500 | 0x01BF      |         447 |
|     501 | 0x3B66      |       15206 |
|     502 | 0x04E4      |        1252 |
|     503 | 0x3B68      |       15208 |
|     504 | 0x0083      |         131 |
|     505 | 0x00DC      |         220 |
|     506 | 0x3B69      |       15209 |
|     507 | 0x042E      |        1070 |
|     508 | 0x014C      |         332 |
|     509 | 0xFFFFFD9A  |  4294966682 |
|     510 | 0xFFFFD308  |  4294955784 |
|     511 | 0x042C      |        1068 |
|     512 | 0x0088      |         136 |
|     513 | 0x3B6A      |       15210 |
|     514 | 0x3B6B      |       15211 |
|     515 | 0xFFFFF9C2  |  4294965698 |
|     516 | 0xB191      |       45457 |
|     517 | 0x09F7      |        2551 |
|     518 | 0x3B6D      |       15213 |
|     519 | 0x3B6E      |       15214 |
|     520 | 0x3B67      |       15207 |
|     521 | 0x3C05      |       15365 |
|     522 | 0x3B6F      |       15215 |
|     523 | 0x3B70      |       15216 |
|     524 | 0x3B71      |       15217 |
|     525 | 0x3B72      |       15218 |
|     526 | 0x3B73      |       15219 |
|     527 | 0x3B74      |       15220 |
|     528 | 0x3B75      |       15221 |
|     529 | 0x3B76      |       15222 |
|     530 | 0x3B77      |       15223 |
|     531 | 0x3B78      |       15224 |
|     532 | 0x3B79      |       15225 |
|     533 | 0xFFFFFCE8  |  4294966504 |
|     534 | 0xFFFFA0EC  |  4294942956 |
|     535 | 0x0465      |        1125 |
|     536 | 0xFFFF9C57  |  4294941783 |
|     537 | 0xFFFFFFFC  |  4294967292 |
|     538 | 0xFFFF6945  |  4294928709 |
|     539 | 0x0012      |          18 |
|     540 | 0x00CA      |         202 |
|     541 | 0x3BCB      |       15307 |
|     542 | 0x3BCC      |       15308 |
|     543 | 0x038B      |         907 |
|     544 | 0x004D      |          77 |
|     545 | 0x00FF      |         255 |
|     546 | 0xFFF8C7B7  |  4294494135 |
|     547 | 0x6416B     |      409963 |
|     548 | 0xFFFFF061  |  4294963297 |
|     549 | 0x0927      |        2343 |
|     550 | 0xFFF84FF7  |  4294463479 |
|     551 | 0x6691D     |      420125 |
|     552 | 0xFFFFEC78  |  4294962296 |
|     553 | 0x085C      |        2140 |
|     554 | 0xFFF89379  |  4294480761 |
|     555 | 0x668A0     |      420000 |
|     556 | 0xFFFFF093  |  4294963347 |
|     557 | 0xFFF842BE  |  4294460094 |
|     558 | 0x66924     |      420132 |
|     559 | 0xFFFFE2B4  |  4294959796 |
|     560 | 0xFFF8C0FF  |  4294492415 |
|     561 | 0x6493C     |      411964 |
|     562 | 0x0928      |        2344 |
|     563 | 0xFFF8BD96  |  4294491542 |
|     564 | 0x64540     |      410944 |
|     565 | 0xFFFFF060  |  4294963296 |
|     566 | 0x049E      |        1182 |
|     567 | 0x03AF      |         943 |
|     568 | 0x00AA      |         170 |
|     569 | 0x007C      |         124 |
|     570 | 0x0041      |          65 |
|     571 | 0xFFF88861  |  4294477921 |
|     572 | 0x6528C     |      414348 |
|     573 | 0x0901      |        2305 |
|     574 | 0xFFF8846D  |  4294476909 |
|     575 | 0x657D0     |      415696 |
|     576 | 0xFFF8821B  |  4294476315 |
|     577 | 0x651AB     |      414123 |
|     578 | 0x3BCD      |       15309 |
|     579 | 0x3BCE      |       15310 |
|     580 | 0x1090      |        4240 |
|     581 | 0x3BCF      |       15311 |
|     582 | 0x3BD0      |       15312 |
|     583 | 0xFFFFFFAF  |  4294967215 |
|     584 | 0xB17E      |       45438 |
|     585 | 0x007A      |         122 |
|     586 | 0x3BD1      |       15313 |
|     587 | 0x3BD2      |       15314 |
|     588 | 0x3BD3      |       15315 |
|     589 | 0x3BD4      |       15316 |
|     590 | 0x3BD5      |       15317 |
|     591 | 0x3BD6      |       15318 |
|     592 | 0x3BD7      |       15319 |
|     593 | 0x3BD8      |       15320 |
|     594 | 0x3BD9      |       15321 |
|     595 | 0x3BDA      |       15322 |
|     596 | 0x3BDB      |       15323 |
|     597 | 0x3BDC      |       15324 |
|     598 | 0x3BDD      |       15325 |
|     599 | 0x3BDE      |       15326 |
|     600 | 0x3BDF      |       15327 |
|     601 | 0x3BE0      |       15328 |
|     602 | 0x3BE1      |       15329 |
|     603 | 0x00BD      |         189 |
|     604 | 0x3BE2      |       15330 |
|     605 | 0x3BE3      |       15331 |
|     606 | 0x3BE4      |       15332 |
|     607 | 0x3BE5      |       15333 |
|     608 | 0x3BE6      |       15334 |
|     609 | 0x3BE7      |       15335 |
|     610 | 0x3BE8      |       15336 |
|     611 | 0x3BE9      |       15337 |
|     612 | 0x3BEE      |       15342 |
|     613 | 0x3BEF      |       15343 |
|     614 | 0x3BEA      |       15338 |
|     615 | 0x3BEB      |       15339 |
|     616 | 0x3BEC      |       15340 |
|     617 | 0x3BED      |       15341 |
|     618 | 0x3BF0      |       15344 |
|     619 | 0x3BF2      |       15346 |
|     620 | 0x3BF1      |       15345 |
|     621 | 0x3B7A      |       15226 |
|     622 | 0x3BC9      |       15305 |
|     623 | 0x3BCA      |       15306 |
|     624 | 0x3B7E      |       15230 |
|     625 | 0x3B7B      |       15227 |
|     626 | 0x3B7C      |       15228 |
|     627 | 0x3B7D      |       15229 |
|     628 | 0x008F      |         143 |
|     629 | 0x3B7F      |       15231 |
|     630 | 0x3B80      |       15232 |
|     631 | 0x3B81      |       15233 |
|     632 | 0x3B82      |       15234 |
|     633 | 0x3B83      |       15235 |
|     634 | 0x3B84      |       15236 |
|     635 | 0x3B85      |       15237 |
|     636 | 0x3B86      |       15238 |
|     637 | 0x3B87      |       15239 |
|     638 | 0x3B88      |       15240 |
|     639 | 0x001A      |          26 |
|     640 | 0x3B89      |       15241 |
|     641 | 0x3B8A      |       15242 |
|     642 | 0x3B8B      |       15243 |
|     643 | 0x3B8C      |       15244 |
|     644 | 0x3B8D      |       15245 |
|     645 | 0x3B8E      |       15246 |
|     646 | 0x3B8F      |       15247 |
|     647 | 0x0C80      |        3200 |
|     648 | 0x00A3      |         163 |
|     649 | 0x3B90      |       15248 |
|     650 | 0x3B91      |       15249 |
|     651 | 0x3B92      |       15250 |
|     652 | 0x3B93      |       15251 |
|     653 | 0x3B94      |       15252 |
|     654 | 0x3B95      |       15253 |
|     655 | 0x3B96      |       15254 |
|     656 | 0x3B97      |       15255 |
|     657 | 0x007D      |         125 |
|     658 | 0x3B98      |       15256 |
|     659 | 0x3B99      |       15257 |
|     660 | 0x3B9A      |       15258 |
|     661 | 0x3B9B      |       15259 |
|     662 | 0x3B9C      |       15260 |
|     663 | 0x3B9D      |       15261 |
|     664 | 0x3B9E      |       15262 |
|     665 | 0x3B9F      |       15263 |
|     666 | 0x3BA0      |       15264 |
|     667 | 0x3BA1      |       15265 |
|     668 | 0x3BA2      |       15266 |
|     669 | 0x3BA3      |       15267 |
|     670 | 0x3BA4      |       15268 |
|     671 | 0x3BA5      |       15269 |
|     672 | 0x3BA6      |       15270 |
|     673 | 0x3BA7      |       15271 |
|     674 | 0x3BA8      |       15272 |
|     675 | 0x3BA9      |       15273 |
|     676 | 0x3BAA      |       15274 |
|     677 | 0x3BAB      |       15275 |
|     678 | 0x3BAC      |       15276 |
|     679 | 0x3BAD      |       15277 |
|     680 | 0x3BAE      |       15278 |
|     681 | 0x3BAF      |       15279 |
|     682 | 0x3BB0      |       15280 |
|     683 | 0x3BB1      |       15281 |
|     684 | 0x044C      |        1100 |
|     685 | 0x3BB2      |       15282 |
|     686 | 0x3BB3      |       15283 |
|     687 | 0x3BB4      |       15284 |
|     688 | 0x3BB5      |       15285 |
|     689 | 0x3BB6      |       15286 |
|     690 | 0x3BB7      |       15287 |
|     691 | 0x3BB8      |       15288 |
|     692 | 0x3BB9      |       15289 |
|     693 | 0x3BBA      |       15290 |
|     694 | 0x3BBB      |       15291 |
|     695 | 0x3BBC      |       15292 |
|     696 | 0x0018      |          24 |
|     697 | 0x3BBD      |       15293 |
|     698 | 0x3BBE      |       15294 |
|     699 | 0x3BBF      |       15295 |
|     700 | 0x3BC0      |       15296 |
|     701 | 0x3BC1      |       15297 |
|     702 | 0x3BC2      |       15298 |
|     703 | 0x3BC3      |       15299 |
|     704 | 0x3BC4      |       15300 |
|     705 | 0x01AF      |         431 |
|     706 | 0xFFFFD674  |  4294956660 |
|     707 | 0x0462      |        1122 |
|     708 | 0x0056      |          86 |
|     709 | 0xFFFFC3AE  |  4294951854 |
|     710 | 0x0461      |        1121 |
|     711 | 0x3BC5      |       15301 |
|     712 | 0x3BC6      |       15302 |
|     713 | 0x3BC7      |       15303 |
|     714 | 0x3BC8      |       15304 |
|     715 | 0x75E6      |       30182 |
|     716 | 0xFFFF2537  |  4294911287 |
|     717 | 0xFFFFE890  |  4294961296 |
|     718 | 0x07CA      |        1994 |
|     719 | 0x6D38      |       27960 |
|     720 | 0xFFFF5250  |  4294922832 |
|     721 | 0x0834      |        2100 |
|     722 | 0x035F      |         863 |
|     723 | 0x01EF      |         495 |
|     724 | 0x3A66      |       14950 |
|     725 | 0x3A67      |       14951 |
|     726 | 0x81AA      |       33194 |
|     727 | 0xFFFF4CB8  |  4294921400 |
|     728 | 0xFFFFE3DD  |  4294960093 |
|     729 | 0x3A68      |       14952 |
|     730 | 0x3A73      |       14963 |
|     731 | 0x3A74      |       14964 |
|     732 | 0x3A75      |       14965 |
|     733 | 0x3A76      |       14966 |
|     734 | 0x3A77      |       14967 |
|     735 | 0x3A78      |       14968 |
|     736 | 0x3A79      |       14969 |
|     737 | 0x3A7A      |       14970 |
|     738 | 0x3A7B      |       14971 |
|     739 | 0x3A7C      |       14972 |
|     740 | 0x3A7D      |       14973 |
|     741 | 0x3A7E      |       14974 |
|     742 | 0x3A7F      |       14975 |
|     743 | 0x01EE      |         494 |
|     744 | 0x0141      |         321 |
|     745 | 0x3B6C      |       15212 |
|     746 | 0x3BF3      |       15347 |
|     747 | 0x3BF4      |       15348 |
|     748 | 0x3BF5      |       15349 |
|     749 | 0x3BF6      |       15350 |
|     750 | 0xFFFFFF8E  |  4294967182 |
|     751 | 0xFFFFF6EE  |  4294964974 |
|     752 | 0x3BF7      |       15351 |
|     753 | 0x3BF8      |       15352 |
|     754 | 0x3BF9      |       15353 |
|     755 | 0x3BFA      |       15354 |
|     756 | 0x3BFB      |       15355 |
|     757 | 0x3BFC      |       15356 |
|     758 | 0x3BFD      |       15357 |
|     759 | 0x3BFE      |       15358 |
|     760 | 0x3BFF      |       15359 |
|     761 | 0x3C00      |       15360 |
|     762 | 0x3C01      |       15361 |
|     763 | 0x3C02      |       15362 |
|     764 | 0x3C03      |       15363 |
|     765 | 0x3C04      |       15364 |
|     766 | 0x00D7      |         215 |

## String References

- **10301**: 
- **15016**: ...6! [A what now?/No... Not $6!]
- **15033**: Offer your aid? [It's as good as done!/Not getting involved in this...]
- **15110**: Accept the mission? [Leave it to me!/Who...me!?]
- **15143**: Lend your strength to the Empire? [It would be my honor./Perhaps another time...]
- **15163**: Forgot your orders? [Umm...yeah./Me? Forget? Never!]
- **15218**: Anything troubling? [Now that you mention it.../It's nothing.]
- **15278**: I really, truly... [...intend to see this through./...couldn't care less.]
- **15284**: ... [All right, leave it to me!/Don't give me that look...]
- **15365**: View which scene? [Seeking Luzaf's release(pt.1)./Seeking Luzaf's release(pt.2)./Seeking Luzaf's release(pt.3)./Seeking Luzaf's release(pt.4)./Seeking Luzaf's release(pt.5)./Seeking Luzaf's release(pt.6)./Seeking Luzaf's release(pt.7)./Seeking Luzaf's release(pt.8)./Seeking Luzaf's release(pt.9)./Seeking Luzaf's release(pt.10)./Another request.]

## Events

### Event 65535

#### Metadata

| Field        | Value   |
|--------------|---------|
| Entrypoint   | 0x0000  |
| Data Size    | 1 bytes |
| Instructions | 1       |

```
      00 01 02 03 04 05 06 07  08 09 0A 0B 0C 0D 0E 0F
      -- -- -- -- -- -- -- --  -- -- -- -- -- -- -- --
0000: 00                                                .               
```

#### Opcodes

```
  0: 0x0000 [0x00] END_REQSTACK()
```

### Event 933

#### Metadata

| Field        | Value      |
|--------------|------------|
| Entrypoint   | 0x0001     |
| Data Size    | 5403 bytes |
| Instructions | 587        |

```
      00 01 02 03 04 05 06 07  08 09 0A 0B 0C 0D 0E 0F
      -- -- -- -- -- -- -- --  -- -- -- -- -- -- -- --
0000:    42 1A 06 F6 46 01 29  10 F0 FF FF 7F 07 1C 00   B...F.)........
0010: 80 03 00 00 02 10 38 01  80 1C 00 80 75 00 02 80  ......8.....u...
0020: 75 01 4E 00 0B 22 03 01  4E 00 F0 FF FF 7F 4E 00  u.N.."..N.....N.
0030: F1 20 03 01 4E 00 F2 20  03 01 4E 00 F3 20 03 01  . ..N.. ..N.. ..
0040: 1C 00 80 BA F0 FF FF 7F  03 80 04 80 05 80 06 80  ................
0050: BA 0B 22 03 01 03 80 04  80 05 80 06 80 BA C7 20  .."............ 
0060: 03 01 07 80 08 80 09 80  0A 80 BA C4 20 03 01 0B  ............ ...
0070: 80 0C 80 0D 80 0A 80 27  10 C7 20 03 01 04 27 10  .......'.. ...'.
0080: C4 20 03 01 04 92 01 C7  20 03 01 92 01 C4 20 03  . ...... ..... .
0090: 01 92 01 F1 20 03 01 92  01 F2 20 03 01 92 01 F3  .... ..... .....
00A0: 20 03 01 94 01 0B 22 03  01 94 01 F0 FF FF 7F 94   .....".........
00B0: 01 C7 20 03 01 94 01 C4  20 03 01 94 01 F1 20 03  .. ..... ..... .
00C0: 01 94 01 F2 20 03 01 94  01 F3 20 03 01 80 0B 22  .... ..... ...."
00D0: 03 01 80 C7 20 03 01 80  C4 20 03 01 27 10 EF 20  .... .... ..'.. 
00E0: 03 01 05 27 10 0B 22 03  01 85 1C 0E 80 45 0F 80  ...'.."......E..
00F0: F0 FF FF 7F F0 FF FF 7F  7A 30 30 30 10 80 1A E5  ........z000....
0100: F5 1C 11 80 02 00 00 00  80 80 2F 01 52 0F 80 F0  ........../.R...
0110: FF FF 7F F0 FF FF 7F 7A  30 30 30 45 0F 80 F0 FF  .......z000E....
0120: FF 7F F0 FF FF 7F 7A 30  30 31 10 80 01 5C 02 02  ......z001...\..
0130: 00 00 12 80 80 5A 01 52  0F 80 F0 FF FF 7F F0 FF  .....Z.R........
0140: FF 7F 7A 30 30 30 45 0F  80 F0 FF FF 7F F0 FF FF  ..z000E.........
0150: 7F 7A 6D 30 31 10 80 01  5C 02 02 00 00 13 80 80  .zm01...\.......
0160: 85 01 52 0F 80 F0 FF FF  7F F0 FF FF 7F 7A 30 30  ..R..........z00
0170: 30 45 0F 80 F0 FF FF 7F  F0 FF FF 7F 7A 67 30 31  0E..........zg01
0180: 10 80 01 5C 02 02 00 00  14 80 80 B0 01 52 0F 80  ...\.........R..
0190: F0 FF FF 7F F0 FF FF 7F  7A 30 30 30 45 0F 80 F0  ........z000E...
01A0: FF FF 7F F0 FF FF 7F 7A  67 30 31 10 80 01 5C 02  .......zg01...\.
01B0: 02 00 00 15 80 80 DB 01  52 0F 80 F0 FF FF 7F F0  ........R.......
01C0: FF FF 7F 7A 30 30 30 45  0F 80 F0 FF FF 7F F0 FF  ...z000E........
01D0: FF 7F 7A 74 30 31 10 80  01 5C 02 02 00 00 16 80  ..zt01...\......
01E0: 80 06 02 52 0F 80 F0 FF  FF 7F F0 FF FF 7F 7A 30  ...R..........z0
01F0: 30 30 45 0F 80 F0 FF FF  7F F0 FF FF 7F 7A 74 30  00E..........zt0
0200: 31 10 80 01 5C 02 02 00  00 17 80 80 31 02 52 0F  1...\.......1.R.
0210: 80 F0 FF FF 7F F0 FF FF  7F 7A 30 30 30 45 0F 80  .........z000E..
0220: F0 FF FF 7F F0 FF FF 7F  7A 6D 30 31 10 80 01 5C  ........zm01...\
0230: 02 02 00 00 18 80 80 5C  02 52 0F 80 F0 FF FF 7F  .......\.R......
0240: F0 FF FF 7F 7A 30 30 30  45 0F 80 F0 FF FF 7F F0  ....z000E.......
0250: FF FF 7F 7A 67 30 31 10  80 01 5C 02 2B 60 22 03  ...zg01...\.+`".
0260: 01 19 80 23 1C 1A 80 27  10 EF 20 03 01 06 2A 10  ...#...'.. ...*.
0270: 0B 22 03 01 4B F0 FF FF  7F 1B 80 1C 1C 80 27 10  ."..K.........'.
0280: C7 20 03 01 43 1C 1D 80  27 10 C4 20 03 01 3D 52  . ..C...'.. ..=R
0290: 0F 80 F0 FF FF 7F F0 FF  FF 7F 7A 30 30 31 52 0F  ..........z001R.
02A0: 80 F0 FF FF 7F F0 FF FF  7F 7A 6D 30 31 52 0F 80  .........zm01R..
02B0: F0 FF FF 7F F0 FF FF 7F  7A 74 30 31 52 0F 80 F0  ........zt01R...
02C0: FF FF 7F F0 FF FF 7F 7A  67 30 31 02 00 00 00 80  .......zg01.....
02D0: 80 E7 02 45 0F 80 F0 FF  FF 7F F0 FF FF 7F 7A 30  ...E..........z0
02E0: 30 32 10 80 01 AB 03 02  00 00 12 80 80 03 03 45  02.............E
02F0: 0F 80 F0 FF FF 7F F0 FF  FF 7F 7A 30 30 32 10 80  ..........z002..
0300: 01 AB 03 02 00 00 13 80  80 1F 03 45 0F 80 F0 FF  ...........E....
0310: FF 7F F0 FF FF 7F 7A 30  30 32 10 80 01 AB 03 02  ......z002......
0320: 00 00 14 80 80 3B 03 45  0F 80 F0 FF FF 7F F0 FF  .....;.E........
0330: FF 7F 7A 30 30 32 10 80  01 AB 03 02 00 00 15 80  ..z002..........
0340: 80 57 03 45 0F 80 F0 FF  FF 7F F0 FF FF 7F 7A 74  .W.E..........zt
0350: 30 32 10 80 01 AB 03 02  00 00 16 80 80 73 03 45  02...........s.E
0360: 0F 80 F0 FF FF 7F F0 FF  FF 7F 7A 74 30 32 10 80  ..........zt02..
0370: 01 AB 03 02 00 00 17 80  80 8F 03 45 0F 80 F0 FF  ...........E....
0380: FF 7F F0 FF FF 7F 7A 74  30 32 10 80 01 AB 03 02  ......zt02......
0390: 00 00 18 80 80 AB 03 45  0F 80 F0 FF FF 7F F0 FF  .......E........
03A0: FF 7F 7A 67 30 32 10 80  01 AB 03 1C 11 80 52 0F  ..zg02........R.
03B0: 80 F0 FF FF 7F F0 FF FF  7F 7A 30 30 32 52 0F 80  .........z002R..
03C0: F0 FF FF 7F F0 FF FF 7F  7A 67 30 32 52 0F 80 F0  ........zg02R...
03D0: FF FF 7F F0 FF FF 7F 7A  74 30 32 45 0F 80 F0 FF  .......zt02E....
03E0: FF 7F F0 FF FF 7F 7A 30  30 33 10 80 2A 10 C7 20  ......z003..*.. 
03F0: 03 01 4A F0 FF FF 7F C7  20 03 01 1C 1E 80 5B 1F  ..J..... .....[.
0400: 80 C7 20 03 01 C7 20 03  01 79 61 68 30 1C 20 80  .. ... ..yah0. .
0410: 2B C7 20 03 01 21 80 23  52 0F 80 F0 FF FF 7F F0  +. ..!.#R.......
0420: FF FF 7F 7A 30 30 33 45  0F 80 F0 FF FF 7F F0 FF  ...z003E........
0430: FF 7F 7A 31 30 33 10 80  6E F0 FF FF 7F 22 80 99  ..z103..n...."..
0440: F0 FF FF 7F 1C 23 80 53  C7 20 03 01 C7 20 03 01  .....#.S. ... ..
0450: 79 61 68 30 52 0F 80 F0  FF FF 7F F0 FF FF 7F 7A  yah0R..........z
0460: 31 30 33 45 0F 80 F0 FF  FF 7F F0 FF FF 7F 7A 32  103E..........z2
0470: 30 33 10 80 5B 24 80 C4  20 03 01 C4 20 03 01 75  03..[$.. ... ..u
0480: 64 65 30 2B C4 20 03 01  25 80 1C 11 80 53 C7 20  de0+. ..%....S. 
0490: 03 01 C7 20 03 01 79 61  68 30 23 1C 26 80 1A 06  ... ..yah0#.&...
04A0: F6 1C 1A 80 52 0F 80 F0  FF FF 7F F0 FF FF 7F 7A  ....R..........z
04B0: 32 30 33 6B 69 64 6C 30  C4 20 03 01 1C 00 80 BA  203kidl0. ......
04C0: F0 FF FF 7F 27 80 28 80  09 80 29 80 BA 0B 22 03  ....'.(...)...".
04D0: 01 27 80 28 80 09 80 29  80 BA C7 20 03 01 2A 80  .'.(...)... ..*.
04E0: 2B 80 09 80 2C 80 BA C4  20 03 01 2D 80 2E 80 09  +...,... ..-....
04F0: 80 2F 80 BA F1 20 03 01  30 80 31 80 0D 80 32 80  ./... ..0.1...2.
0500: BA F3 20 03 01 33 80 34  80 35 80 32 80 4A F1 20  .. ..3.4.5.2.J. 
0510: 03 01 F3 20 03 01 4A F3  20 03 01 F1 20 03 01 6F  ... ..J. ... ..o
0520: 76 F3 20 03 01 66 10 80  F3 20 03 01 F3 20 03 01  v. ..f... ... ..
0530: 74 6C 6B 30 27 10 0B 22  03 01 86 1C 1D 80 45 0F  tlk0'.."......E.
0540: 80 F0 FF FF 7F F0 FF FF  7F 7A 30 30 34 10 80 1A  .........z004...
0550: E5 F5 1C 20 80 2A 10 F0  FF FF 7F 5B 36 80 C4 20  ... .*.....[6.. 
0560: 03 01 C4 20 03 01 74 6C  6B 30 2B C4 20 03 01 37  ... ..tlk0+. ..7
0570: 80 23 52 0F 80 F0 FF FF  7F F0 FF FF 7F 7A 30 30  .#R..........z00
0580: 34 45 0F 80 F0 FF FF 7F  F0 FF FF 7F 6F 76 33 30  4E..........ov30
0590: 10 80 45 0F 80 F0 FF FF  7F F0 FF FF 7F 7A 30 30  ..E..........z00
05A0: 35 10 80 2B C4 20 03 01  38 80 23 5B 39 80 C7 20  5..+. ..8.#[9.. 
05B0: 03 01 C7 20 03 01 74 75  6E 30 2B C7 20 03 01 3A  ... ..tun0+. ..:
05C0: 80 23 5B 36 80 C4 20 03  01 C4 20 03 01 74 6C 6B  .#[6.. ... ..tlk
05D0: 31 2B C4 20 03 01 3B 80  23 52 0F 80 F0 FF FF 7F  1+. ..;.#R......
05E0: F0 FF FF 7F 7A 30 30 35  45 0F 80 F0 FF FF 7F F0  ....z005E.......
05F0: FF FF 7F 7A 31 30 36 10  80 5B 39 80 C7 20 03 01  ...z106..[9.. ..
0600: C7 20 03 01 74 75 6E 31  2B C4 20 03 01 3C 80 23  . ..tun1+. ..<.#
0610: 5B 1F 80 C7 20 03 01 C7  20 03 01 79 61 68 30 1C  [... ... ..yah0.
0620: 1A 80 4A F0 FF FF 7F C7  20 03 01 1C 1A 80 2B C7  ..J..... .....+.
0630: 20 03 01 3D 80 1C 3E 80  23 52 0F 80 F0 FF FF 7F   ..=..>.#R......
0640: F0 FF FF 7F 7A 31 30 36  45 0F 80 F0 FF FF 7F F0  ....z106E.......
0650: FF FF 7F 7A 30 30 37 10  80 5B 1F 80 C7 20 03 01  ...z007..[... ..
0660: C7 20 03 01 73 69 6C 30  03 02 10 3F 80 2B C7 20  . ..sil0...?.+. 
0670: 03 01 40 80 1C 1C 80 23  02 00 00 15 80 80 A3 06  ..@....#........
0680: 52 0F 80 F0 FF FF 7F F0  FF FF 7F 7A 30 30 37 45  R..........z007E
0690: 0F 80 F0 FF FF 7F F0 FF  FF 7F 7A 74 30 38 10 80  ..........zt08..
06A0: 01 19 07 02 00 00 16 80  80 CE 06 52 0F 80 F0 FF  ...........R....
06B0: FF 7F F0 FF FF 7F 7A 30  30 37 45 0F 80 F0 FF FF  ......z007E.....
06C0: 7F F0 FF FF 7F 7A 74 30  38 10 80 01 19 07 02 00  .....zt08.......
06D0: 00 17 80 80 F9 06 52 0F  80 F0 FF FF 7F F0 FF FF  ......R.........
06E0: 7F 7A 30 30 37 45 0F 80  F0 FF FF 7F F0 FF FF 7F  .z007E..........
06F0: 7A 74 30 38 10 80 01 19  07 52 0F 80 F0 FF FF 7F  zt08.....R......
0700: F0 FF FF 7F 7A 30 30 37  45 0F 80 F0 FF FF 7F F0  ....z007E.......
0710: FF FF 7F 7A 30 30 38 10  80 24 41 80 10 80 10 80  ...z008..$A.....
0720: 25 02 00 10 10 80 00 86  08 6E F0 FF FF 7F 22 80  %........n....".
0730: 99 F0 FF FF 7F 1C 42 80  52 0F 80 F0 FF FF 7F F0  ......B.R.......
0740: FF FF 7F 7A 30 30 38 52  0F 80 F0 FF FF 7F F0 FF  ...z008R........
0750: FF 7F 7A 74 30 38 02 00  00 00 80 80 72 07 45 0F  ..zt08......r.E.
0760: 80 F0 FF FF 7F F0 FF FF  7F 7A 30 30 39 10 80 01  .........z009...
0770: 36 08 02 00 00 12 80 80  8E 07 45 0F 80 F0 FF FF  6.........E.....
0780: 7F F0 FF FF 7F 7A 30 30  39 10 80 01 36 08 02 00  .....z009...6...
0790: 00 13 80 80 AA 07 45 0F  80 F0 FF FF 7F F0 FF FF  ......E.........
07A0: 7F 7A 67 30 39 10 80 01  36 08 02 00 00 14 80 80  .zg09...6.......
07B0: C6 07 45 0F 80 F0 FF FF  7F F0 FF FF 7F 7A 67 30  ..E..........zg0
07C0: 39 10 80 01 36 08 02 00  00 15 80 80 E2 07 45 0F  9...6.........E.
07D0: 80 F0 FF FF 7F F0 FF FF  7F 7A 74 30 39 10 80 01  .........zt09...
07E0: 36 08 02 00 00 16 80 80  FE 07 45 0F 80 F0 FF FF  6.........E.....
07F0: 7F F0 FF FF 7F 7A 74 30  39 10 80 01 36 08 02 00  .....zt09...6...
0800: 00 17 80 80 1A 08 45 0F  80 F0 FF FF 7F F0 FF FF  ......E.........
0810: 7F 7A 74 30 39 10 80 01  36 08 02 00 00 18 80 80  .zt09...6.......
0820: 36 08 45 0F 80 F0 FF FF  7F F0 FF FF 7F 7A 67 30  6.E..........zg0
0830: 39 10 80 01 36 08 1C 1A  80 2B C7 20 03 01 43 80  9...6....+. ..C.
0840: 23 5B 24 80 C4 20 03 01  C4 20 03 01 75 64 65 30  #[$.. ... ..ude0
0850: 1C 26 80 4A F0 FF FF 7F  C4 20 03 01 2B C4 20 03  .&.J..... ..+. .
0860: 01 44 80 1C 3E 80 23 5B  24 80 C4 20 03 01 C4 20  .D..>.#[$.. ... 
0870: 03 01 75 64 65 31 53 C4  20 03 01 C4 20 03 01 75  ..ude1S. ... ..u
0880: 64 65 31 01 72 0A 02 00  10 00 80 00 72 0A 6E F0  de1.r.......r.n.
0890: FF FF 7F 45 80 99 F0 FF  FF 7F 1C 3E 80 53 C7 20  ...E.......>.S. 
08A0: 03 01 C7 20 03 01 73 69  6C 30 5B 1F 80 C7 20 03  ... ..sil0[... .
08B0: 01 C7 20 03 01 79 61 68  30 1C 20 80 2B C7 20 03  .. ..yah0. .+. .
08C0: 01 46 80 23 02 00 00 00  80 80 EF 08 52 0F 80 F0  .F.#........R...
08D0: FF FF 7F F0 FF FF 7F 7A  30 30 38 45 0F 80 F0 FF  .......z008E....
08E0: FF 7F F0 FF FF 7F 7A 30  31 30 10 80 01 1C 0A 02  ......z010......
08F0: 00 00 12 80 80 1A 09 52  0F 80 F0 FF FF 7F F0 FF  .......R........
0900: FF 7F 7A 30 30 38 45 0F  80 F0 FF FF 7F F0 FF FF  ..z008E.........
0910: 7F 7A 30 31 30 10 80 01  1C 0A 02 00 00 13 80 80  .z010...........
0920: 45 09 52 0F 80 F0 FF FF  7F F0 FF FF 7F 7A 30 30  E.R..........z00
0930: 38 45 0F 80 F0 FF FF 7F  F0 FF FF 7F 7A 67 31 30  8E..........zg10
0940: 10 80 01 1C 0A 02 00 00  14 80 80 70 09 52 0F 80  ...........p.R..
0950: F0 FF FF 7F F0 FF FF 7F  7A 30 30 38 45 0F 80 F0  ........z008E...
0960: FF FF 7F F0 FF FF 7F 7A  67 31 30 10 80 01 1C 0A  .......zg10.....
0970: 02 00 00 15 80 80 9B 09  52 0F 80 F0 FF FF 7F F0  ........R.......
0980: FF FF 7F 7A 74 30 38 45  0F 80 F0 FF FF 7F F0 FF  ...zt08E........
0990: FF 7F 7A 74 31 30 10 80  01 1C 0A 02 00 00 16 80  ..zt10..........
09A0: 80 C6 09 52 0F 80 F0 FF  FF 7F F0 FF FF 7F 7A 74  ...R..........zt
09B0: 30 38 45 0F 80 F0 FF FF  7F F0 FF FF 7F 7A 74 31  08E..........zt1
09C0: 30 10 80 01 1C 0A 02 00  00 17 80 80 F1 09 52 0F  0.............R.
09D0: 80 F0 FF FF 7F F0 FF FF  7F 7A 74 30 38 45 0F 80  .........zt08E..
09E0: F0 FF FF 7F F0 FF FF 7F  7A 74 31 30 10 80 01 1C  ........zt10....
09F0: 0A 02 00 00 18 80 80 1C  0A 52 0F 80 F0 FF FF 7F  .........R......
0A00: F0 FF FF 7F 7A 30 30 38  45 0F 80 F0 FF FF 7F F0  ....z008E.......
0A10: FF FF 7F 7A 67 31 30 10  80 01 1C 0A 5B 24 80 C4  ...zg10.....[$..
0A20: 20 03 01 C4 20 03 01 75  64 65 30 2B C4 20 03 01   ... ..ude0+. ..
0A30: 47 80 4A F0 FF FF 7F C4  20 03 01 23 6E F0 FF FF  G.J..... ..#n...
0A40: 7F 48 80 99 F0 FF FF 7F  1C 42 80 5B 24 80 C4 20  .H.......B.[$.. 
0A50: 03 01 C4 20 03 01 75 64  65 31 2B C4 20 03 01 49  ... ..ude1+. ..I
0A60: 80 23 53 C4 20 03 01 C4  20 03 01 75 64 65 31 01  .#S. ... ..ude1.
0A70: 72 0A 52 0F 80 F0 FF FF  7F F0 FF FF 7F 7A 30 30  r.R..........z00
0A80: 39 52 0F 80 F0 FF FF 7F  F0 FF FF 7F 7A 67 30 39  9R..........zg09
0A90: 52 0F 80 F0 FF FF 7F F0  FF FF 7F 7A 74 30 39 52  R..........zt09R
0AA0: 0F 80 F0 FF FF 7F F0 FF  FF 7F 7A 30 31 30 45 0F  ..........z010E.
0AB0: 80 F0 FF FF 7F F0 FF FF  7F 6F 76 34 30 10 80 45  .........ov40..E
0AC0: 0F 80 F0 FF FF 7F F0 FF  FF 7F 7A 30 31 31 10 80  ..........z011..
0AD0: 5D 10 80 42 80 1C 1C 80  2B C4 20 03 01 4A 80 1C  ]..B....+. ..J..
0AE0: 4B 80 23 5C 00 4C 80 5C  01 4C 80 9A 02 00 00 15  K.#\.L.\.L......
0AF0: 80 80 28 0B 52 0F 80 F0  FF FF 7F F0 FF FF 7F 7A  ..(.R..........z
0B00: 30 31 31 45 0F 80 F0 FF  FF 7F F0 FF FF 7F 6F 76  011E..........ov
0B10: 34 30 10 80 45 0F 80 F0  FF FF 7F F0 FF FF 7F 7A  40..E..........z
0B20: 74 31 31 10 80 01 D1 0B  02 00 00 16 80 80 64 0B  t11...........d.
0B30: 52 0F 80 F0 FF FF 7F F0  FF FF 7F 7A 30 31 31 45  R..........z011E
0B40: 0F 80 F0 FF FF 7F F0 FF  FF 7F 6F 76 34 30 10 80  ..........ov40..
0B50: 45 0F 80 F0 FF FF 7F F0  FF FF 7F 7A 74 31 31 10  E..........zt11.
0B60: 80 01 D1 0B 02 00 00 17  80 80 A0 0B 52 0F 80 F0  ............R...
0B70: FF FF 7F F0 FF FF 7F 7A  30 31 31 45 0F 80 F0 FF  .......z011E....
0B80: FF 7F F0 FF FF 7F 6F 76  34 30 10 80 45 0F 80 F0  ......ov40..E...
0B90: FF FF 7F F0 FF FF 7F 7A  74 31 31 10 80 01 D1 0B  .......zt11.....
0BA0: 52 0F 80 F0 FF FF 7F F0  FF FF 7F 7A 30 31 31 45  R..........z011E
0BB0: 0F 80 F0 FF FF 7F F0 FF  FF 7F 6F 76 34 30 10 80  ..........ov40..
0BC0: 45 0F 80 F0 FF FF 7F F0  FF FF 7F 7A 31 31 31 10  E..........z111.
0BD0: 80 1C 26 80 2B C4 20 03  01 4D 80 23 52 0F 80 F0  ..&.+. ..M.#R...
0BE0: FF FF 7F F0 FF FF 7F 7A  74 31 31 52 0F 80 F0 FF  .......zt11R....
0BF0: FF 7F F0 FF FF 7F 7A 31  31 31 45 0F 80 F0 FF FF  ......z111E.....
0C00: 7F F0 FF FF 7F 6F 76 36  30 10 80 45 0F 80 F0 FF  .....ov60..E....
0C10: FF 7F F0 FF FF 7F 7A 30  31 32 10 80 2B C4 20 03  ......z012..+. .
0C20: 01 4E 80 23 5B 39 80 C7  20 03 01 C7 20 03 01 74  .N.#[9.. ... ..t
0C30: 68 6B 30 2B C7 20 03 01  4F 80 23 2B C4 20 03 01  hk0+. ..O.#+. ..
0C40: 50 80 23 5D 10 80 3E 80  03 03 10 3E 80 27 10 60  P.#]..>....>.'.`
0C50: 22 03 01 0D 52 0F 80 F0  FF FF 7F F0 FF FF 7F 7A  "...R..........z
0C60: 30 31 32 45 0F 80 F0 FF  FF 7F F0 FF FF 7F 6F 76  012E..........ov
0C70: 36 30 10 80 45 0F 80 F0  FF FF 7F F0 FF FF 7F 7A  60..E..........z
0C80: 30 31 33 10 80 4A F0 FF  FF 7F C7 20 03 01 1C 1D  013..J..... ....
0C90: 80 5B 39 80 C7 20 03 01  C7 20 03 01 74 68 6B 31  .[9.. ... ..thk1
0CA0: 1C 26 80 2B C4 20 03 01  51 80 23 2A 10 60 22 03  .&.+. ..Q.#*.`".
0CB0: 01 5C 00 52 80 5C 01 52  80 9A 52 0F 80 F0 FF FF  .\.R.\.R..R.....
0CC0: 7F F0 FF FF 7F 7A 30 31  33 45 0F 80 F0 FF FF 7F  .....z013E......
0CD0: F0 FF FF 7F 6F 76 36 30  10 80 45 0F 80 F0 FF FF  ....ov60..E.....
0CE0: 7F F0 FF FF 7F 7A 30 31  34 10 80 1C 26 80 2B C4  .....z014...&.+.
0CF0: 20 03 01 53 80 1C 42 80  23 52 0F 80 F0 FF FF 7F   ..S..B.#R......
0D00: F0 FF FF 7F 7A 30 31 34  45 0F 80 F0 FF FF 7F F0  ....z014E.......
0D10: FF FF 7F 6F 76 34 30 10  80 45 0F 80 F0 FF FF 7F  ...ov40..E......
0D20: F0 FF FF 7F 7A 30 31 35  10 80 5B 1F 80 C7 20 03  ....z015..[... .
0D30: 01 C7 20 03 01 73 69 6C  30 2B C7 20 03 01 54 80  .. ..sil0+. ..T.
0D40: 23 5B 24 80 C4 20 03 01  C4 20 03 01 75 64 65 30  #[$.. ... ..ude0
0D50: 1C 1A 80 4A F0 FF FF 7F  C4 20 03 01 2B C4 20 03  ...J..... ..+. .
0D60: 01 55 80 23 02 00 00 00  80 80 8F 0D 52 0F 80 F0  .U.#........R...
0D70: FF FF 7F F0 FF FF 7F 7A  30 31 35 45 0F 80 F0 FF  .......z015E....
0D80: FF 7F F0 FF FF 7F 7A 30  31 36 10 80 01 BC 0E 02  ......z016......
0D90: 00 00 12 80 80 BA 0D 52  0F 80 F0 FF FF 7F F0 FF  .......R........
0DA0: FF 7F 7A 30 31 35 45 0F  80 F0 FF FF 7F F0 FF FF  ..z015E.........
0DB0: 7F 7A 30 31 36 10 80 01  BC 0E 02 00 00 13 80 80  .z016...........
0DC0: E5 0D 52 0F 80 F0 FF FF  7F F0 FF FF 7F 7A 30 31  ..R..........z01
0DD0: 35 45 0F 80 F0 FF FF 7F  F0 FF FF 7F 7A 67 31 36  5E..........zg16
0DE0: 10 80 01 BC 0E 02 00 00  14 80 80 10 0E 52 0F 80  .............R..
0DF0: F0 FF FF 7F F0 FF FF 7F  7A 30 31 35 45 0F 80 F0  ........z015E...
0E00: FF FF 7F F0 FF FF 7F 7A  67 31 36 10 80 01 BC 0E  .......zg16.....
0E10: 02 00 00 15 80 80 3B 0E  52 0F 80 F0 FF FF 7F F0  ......;.R.......
0E20: FF FF 7F 7A 30 31 35 45  0F 80 F0 FF FF 7F F0 FF  ...z015E........
0E30: FF 7F 7A 74 31 36 10 80  01 BC 0E 02 00 00 16 80  ..zt16..........
0E40: 80 66 0E 52 0F 80 F0 FF  FF 7F F0 FF FF 7F 7A 30  .f.R..........z0
0E50: 31 35 45 0F 80 F0 FF FF  7F F0 FF FF 7F 7A 74 31  15E..........zt1
0E60: 36 10 80 01 BC 0E 02 00  00 17 80 80 91 0E 52 0F  6.............R.
0E70: 80 F0 FF FF 7F F0 FF FF  7F 7A 30 31 35 45 0F 80  .........z015E..
0E80: F0 FF FF 7F F0 FF FF 7F  7A 74 31 36 10 80 01 BC  ........zt16....
0E90: 0E 02 00 00 18 80 80 BC  0E 52 0F 80 F0 FF FF 7F  .........R......
0EA0: F0 FF FF 7F 7A 30 31 35  45 0F 80 F0 FF FF 7F F0  ....z015E.......
0EB0: FF FF 7F 7A 67 31 36 10  80 01 BC 0E 2B C4 20 03  ...zg16.....+. .
0EC0: 01 56 80 23 2B C4 20 03  01 57 80 23 24 58 80 10  .V.#+. ..W.#$X..
0ED0: 80 10 80 25 02 00 10 10  80 00 DF 0E 01 D2 11 02  ...%............
0EE0: 00 10 00 80 00 D2 11 6E  F0 FF FF 7F 16 80 99 F0  .......n........
0EF0: FF FF 7F 1C 11 80 5B 59  80 C7 20 03 01 C7 20 03  ......[Y.. ... .
0F00: 01 69 79 61 30 1C 1E 80  52 0F 80 F0 FF FF 7F F0  .iya0...R.......
0F10: FF FF 7F 7A 30 31 36 52  0F 80 F0 FF FF 7F F0 FF  ...z016R........
0F20: FF 7F 7A 74 31 36 52 0F  80 F0 FF FF 7F F0 FF FF  ..zt16R.........
0F30: 7F 7A 67 31 36 45 0F 80  F0 FF FF 7F F0 FF FF 7F  .zg16E..........
0F40: 7A 30 31 37 10 80 4A F0  FF FF 7F C7 20 03 01 1C  z017..J..... ...
0F50: 5A 80 02 00 00 15 80 80  8E 0F 52 0F 80 F0 FF FF  Z.........R.....
0F60: 7F F0 FF FF 7F 7A 30 31  37 45 0F 80 F0 FF FF 7F  .....z017E......
0F70: F0 FF FF 7F 30 62 6C 72  10 80 45 0F 80 F0 FF FF  ....0blr..E.....
0F80: 7F F0 FF FF 7F 7A 74 31  38 10 80 01 37 10 02 00  .....zt18...7...
0F90: 00 16 80 80 CA 0F 52 0F  80 F0 FF FF 7F F0 FF FF  ......R.........
0FA0: 7F 7A 30 31 37 45 0F 80  F0 FF FF 7F F0 FF FF 7F  .z017E..........
0FB0: 30 62 6C 72 10 80 45 0F  80 F0 FF FF 7F F0 FF FF  0blr..E.........
0FC0: 7F 7A 74 31 38 10 80 01  37 10 02 00 00 17 80 80  .zt18...7.......
0FD0: 06 10 52 0F 80 F0 FF FF  7F F0 FF FF 7F 7A 30 31  ..R..........z01
0FE0: 37 45 0F 80 F0 FF FF 7F  F0 FF FF 7F 30 62 6C 72  7E..........0blr
0FF0: 10 80 45 0F 80 F0 FF FF  7F F0 FF FF 7F 7A 74 31  ..E..........zt1
1000: 38 10 80 01 37 10 52 0F  80 F0 FF FF 7F F0 FF FF  8...7.R.........
1010: 7F 7A 30 31 37 45 0F 80  F0 FF FF 7F F0 FF FF 7F  .z017E..........
1020: 30 62 6C 72 10 80 45 0F  80 F0 FF FF 7F F0 FF FF  0blr..E.........
1030: 7F 7A 30 31 38 10 80 6E  F0 FF FF 7F 45 80 99 F0  .z018..n....E...
1040: FF FF 7F 1C 20 80 5B 39  80 C7 20 03 01 C7 20 03  .... .[9.. ... .
1050: 01 74 68 6B 30 2B C7 20  03 01 5B 80 23 2B C7 20  .thk0+. ..[.#+. 
1060: 03 01 5C 80 23 5B 39 80  C7 20 03 01 C7 20 03 01  ..\.#[9.. ... ..
1070: 74 68 6B 31 02 00 00 00  80 80 9F 10 52 0F 80 F0  thk1........R...
1080: FF FF 7F F0 FF FF 7F 7A  30 31 38 45 0F 80 F0 FF  .......z018E....
1090: FF 7F F0 FF FF 7F 7A 30  31 36 10 80 01 CC 11 02  ......z016......
10A0: 00 00 12 80 80 CA 10 52  0F 80 F0 FF FF 7F F0 FF  .......R........
10B0: FF 7F 7A 30 31 38 45 0F  80 F0 FF FF 7F F0 FF FF  ..z018E.........
10C0: 7F 7A 30 31 36 10 80 01  CC 11 02 00 00 13 80 80  .z016...........
10D0: F5 10 52 0F 80 F0 FF FF  7F F0 FF FF 7F 7A 30 31  ..R..........z01
10E0: 38 45 0F 80 F0 FF FF 7F  F0 FF FF 7F 7A 67 31 36  8E..........zg16
10F0: 10 80 01 CC 11 02 00 00  14 80 80 20 11 52 0F 80  ........... .R..
1100: F0 FF FF 7F F0 FF FF 7F  7A 30 31 38 45 0F 80 F0  ........z018E...
1110: FF FF 7F F0 FF FF 7F 7A  67 31 36 10 80 01 CC 11  .......zg16.....
1120: 02 00 00 15 80 80 4B 11  52 0F 80 F0 FF FF 7F F0  ......K.R.......
1130: FF FF 7F 7A 30 31 38 45  0F 80 F0 FF FF 7F F0 FF  ...z018E........
1140: FF 7F 7A 74 31 36 10 80  01 CC 11 02 00 00 16 80  ..zt16..........
1150: 80 76 11 52 0F 80 F0 FF  FF 7F F0 FF FF 7F 7A 30  .v.R..........z0
1160: 31 38 45 0F 80 F0 FF FF  7F F0 FF FF 7F 7A 74 31  18E..........zt1
1170: 36 10 80 01 CC 11 02 00  00 17 80 80 A1 11 52 0F  6.............R.
1180: 80 F0 FF FF 7F F0 FF FF  7F 7A 30 31 38 45 0F 80  .........z018E..
1190: F0 FF FF 7F F0 FF FF 7F  7A 74 31 36 10 80 01 CC  ........zt16....
11A0: 11 02 00 00 18 80 80 CC  11 52 0F 80 F0 FF FF 7F  .........R......
11B0: F0 FF FF 7F 7A 30 31 38  45 0F 80 F0 FF FF 7F F0  ....z018E.......
11C0: FF FF 7F 7A 67 31 36 10  80 01 CC 11 01 CC 0E 01  ...zg16.........
11D0: D2 11 6E F0 FF FF 7F 17  80 99 F0 FF FF 7F 1C 42  ..n............B
11E0: 80 5B 24 80 C4 20 03 01  C4 20 03 01 75 64 65 31  .[$.. ... ..ude1
11F0: 2B C4 20 03 01 5D 80 1C  1C 80 5B 1F 80 C7 20 03  +. ..]....[... .
1200: 01 C7 20 03 01 79 61 68  30 23 5C 00 5E 80 5C 01  .. ..yah0#\.^.\.
1210: 5E 80 9A 02 00 00 00 80  80 4F 12 52 0F 80 F0 FF  ^........O.R....
1220: FF 7F F0 FF FF 7F 7A 30  31 36 45 0F 80 F0 FF FF  ......z016E.....
1230: 7F F0 FF FF 7F 6F 76 33  30 10 80 45 0F 80 F0 FF  .....ov30..E....
1240: FF 7F F0 FF FF 7F 7A 30  31 39 10 80 01 F3 13 02  ......z019......
1250: 00 00 12 80 80 8B 12 52  0F 80 F0 FF FF 7F F0 FF  .......R........
1260: FF 7F 7A 30 31 36 45 0F  80 F0 FF FF 7F F0 FF FF  ..z016E.........
1270: 7F 6F 76 33 30 10 80 45  0F 80 F0 FF FF 7F F0 FF  .ov30..E........
1280: FF 7F 7A 30 31 39 10 80  01 F3 13 02 00 00 13 80  ..z019..........
1290: 80 C7 12 52 0F 80 F0 FF  FF 7F F0 FF FF 7F 7A 30  ...R..........z0
12A0: 31 36 45 0F 80 F0 FF FF  7F F0 FF FF 7F 6F 76 33  16E..........ov3
12B0: 30 10 80 45 0F 80 F0 FF  FF 7F F0 FF FF 7F 7A 67  0..E..........zg
12C0: 31 39 10 80 01 F3 13 02  00 00 14 80 80 03 13 52  19.............R
12D0: 0F 80 F0 FF FF 7F F0 FF  FF 7F 7A 30 31 36 45 0F  ..........z016E.
12E0: 80 F0 FF FF 7F F0 FF FF  7F 6F 76 33 30 10 80 45  .........ov30..E
12F0: 0F 80 F0 FF FF 7F F0 FF  FF 7F 7A 67 31 39 10 80  ..........zg19..
1300: 01 F3 13 02 00 00 15 80  80 3F 13 52 0F 80 F0 FF  .........?.R....
1310: FF 7F F0 FF FF 7F 7A 30  31 36 45 0F 80 F0 FF FF  ......z016E.....
1320: 7F F0 FF FF 7F 6F 76 33  30 10 80 45 0F 80 F0 FF  .....ov30..E....
1330: FF 7F F0 FF FF 7F 7A 74  31 39 10 80 01 F3 13 02  ......zt19......
1340: 00 00 16 80 80 7B 13 52  0F 80 F0 FF FF 7F F0 FF  .....{.R........
1350: FF 7F 7A 30 31 36 45 0F  80 F0 FF FF 7F F0 FF FF  ..z016E.........
1360: 7F 6F 76 33 30 10 80 45  0F 80 F0 FF FF 7F F0 FF  .ov30..E........
1370: FF 7F 7A 74 31 39 10 80  01 F3 13 02 00 00 17 80  ..zt19..........
1380: 80 B7 13 52 0F 80 F0 FF  FF 7F F0 FF FF 7F 7A 30  ...R..........z0
1390: 31 36 45 0F 80 F0 FF FF  7F F0 FF FF 7F 6F 76 33  16E..........ov3
13A0: 30 10 80 45 0F 80 F0 FF  FF 7F F0 FF FF 7F 7A 74  0..E..........zt
13B0: 31 39 10 80 01 F3 13 02  00 00 18 80 80 F3 13 52  19.............R
13C0: 0F 80 F0 FF FF 7F F0 FF  FF 7F 7A 30 31 36 45 0F  ..........z016E.
13D0: 80 F0 FF FF 7F F0 FF FF  7F 6F 76 33 30 10 80 45  .........ov30..E
13E0: 0F 80 F0 FF FF 7F F0 FF  FF 7F 7A 67 31 39 10 80  ..........zg19..
13F0: 01 F3 13 4A F0 FF FF 7F  C4 20 03 01 5B 36 80 C4  ...J..... ..[6..
1400: 20 03 01 C4 20 03 01 74  6C 6B 30 2B C4 20 03 01   ... ..tlk0+. ..
1410: 5F 80 23 2B C4 20 03 01  60 80 23 2B C4 20 03 01  _.#+. ..`.#+. ..
1420: 61 80 23 52 0F 80 F0 FF  FF 7F F0 FF FF 7F 7A 30  a.#R..........z0
1430: 31 39 52 0F 80 F0 FF FF  7F F0 FF FF 7F 7A 74 31  19R..........zt1
1440: 39 52 0F 80 F0 FF FF 7F  F0 FF FF 7F 7A 67 31 39  9R..........zg19
1450: 45 0F 80 F0 FF FF 7F F0  FF FF 7F 7A 30 32 30 10  E..........z020.
1460: 80 27 10 C7 20 03 01 44  5B 36 80 C4 20 03 01 C4  .'.. ..D[6.. ...
1470: 20 03 01 74 6C 6B 31 2B  C4 20 03 01 62 80 23 2B   ..tlk1+. ..b.#+
1480: C4 20 03 01 63 80 23 2A  10 C7 20 03 01 5B 1F 80  . ..c.#*.. ..[..
1490: C7 20 03 01 C7 20 03 01  79 61 68 30 1C 26 80 2B  . ... ..yah0.&.+
14A0: C7 20 03 01 64 80 1C 20  80 23 45 0F 80 F0 FF FF  . ..d.. .#E.....
14B0: 7F F0 FF FF 7F 6F 66 66  62 10 80 1A 06 F6 1C 1A  .....offb.......
14C0: 80 52 0F 80 F0 FF FF 7F  F0 FF FF 7F 7A 30 32 30  .R..........z020
14D0: BA F1 20 03 01 65 80 66  80 0D 80 67 80 BA F3 20  .. ..e.f...g... 
14E0: 03 01 68 80 69 80 09 80  6A 80 7B F1 20 03 01 7B  ..h.i...j.{. ..{
14F0: F3 20 03 01 6B 69 64 6C  30 F3 20 03 01 29 10 0B  . ..kidl0. ..)..
1500: 22 03 01 1D 1C 15 80 46  00 45 6B 80 F0 FF FF 7F  "......F.Ek.....
1510: F0 FF FF 7F 66 64 69 32  10 80 21 00              ....fdi2..!.    
```

#### Opcodes

```
  0: 0x0001 [0x42] SET_CLI_EVENT_CANCEL_DATA()
  1: 0x0002 [0x1A] CALL_SUBROUTINE(address=0xF606)
  2: 0x0005 [0x46] CAMERA_CONTROL: Disable user control
  3: 0x0007 [0x29] REQ_SET_WAIT(priority=0x10, entity_id=LocalPlayer, tag_num=0x07)
  4: 0x000E [0x1C] WAIT(1* ticks)
  5: 0x0011 [0x03] ExtData[1]->WorkLocal[0] = Work_Zone[2]
  6: 0x0016 [0x38] SET_CLIENT_EVENT_MODE(mode=19*)
  7: 0x0019 [0x1C] WAIT(1* ticks)
  8: 0x001C [0x75] LOAD_ROOM(Load indoor room, room=562*)
  9: 0x0020 [0x75] LOAD_ROOM(No action)
 10: 0x0022 [0x4E] SET_ENTITY_HIDE_FLAG: Show Unnamed NPC (ID: 16982539/0x0103220B)
 11: 0x0028 [0x4E] SET_ENTITY_HIDE_FLAG: Show LocalPlayer
 12: 0x002E [0x4E] SET_ENTITY_HIDE_FLAG: Show Nadeey (ID: 16982257/0x010320F1)
 13: 0x0034 [0x4E] SET_ENTITY_HIDE_FLAG: Show Kuhmden (ID: 16982258/0x010320F2)
 14: 0x003A [0x4E] SET_ENTITY_HIDE_FLAG: Show Ugahar (ID: 16982259/0x010320F3)
 15: 0x0040 [0x1C] WAIT(1* ticks)
 16: 0x0043 [0xBA] SET_ENTITY_POSITION(entity_id=LocalPlayer, pos_x=79.883*, pos_z=26.237*, pos_y=-0.324*, direction=279.7*)
 17: 0x0050 [0xBA] SET_ENTITY_POSITION(entity_id=Unnamed NPC (ID: 16982539/0x0103220B), pos_x=79.883*, pos_z=26.237*, pos_y=-0.324*, direction=279.7*)
 18: 0x005D [0xBA] SET_ENTITY_POSITION(entity_id=Ovjang (ID: 16982215/0x010320C7), pos_x=82.176*, pos_z=50.992*, pos_y=0.480*, direction=105.5*)
 19: 0x006A [0xBA] SET_ENTITY_POSITION(entity_id=Mnejing (ID: 16982212/0x010320C4), pos_x=80.480*, pos_z=53.805*, pos_y=-0.325*, direction=105.5*)
 20: 0x0077 [0x27] REQ_SET(priority=0x10, entity_id=Ovjang (ID: 16982215/0x010320C7), tag_num=0x04)
 21: 0x007E [0x27] REQ_SET(priority=0x10, entity_id=Mnejing (ID: 16982212/0x010320C4), tag_num=0x04)
 22: 0x0085 [0x92] Ovjang (ID: 16982215/0x010320C7)->Render.Flags3 ^= 0x01
 23: 0x008B [0x92] Mnejing (ID: 16982212/0x010320C4)->Render.Flags3 ^= 0x01
 24: 0x0091 [0x92] Nadeey (ID: 16982257/0x010320F1)->Render.Flags3 ^= 0x01
 25: 0x0097 [0x92] Kuhmden (ID: 16982258/0x010320F2)->Render.Flags3 ^= 0x01
 26: 0x009D [0x92] Ugahar (ID: 16982259/0x010320F3)->Render.Flags3 ^= 0x01
 27: 0x00A3 [0x94] Unnamed NPC (ID: 16982539/0x0103220B)->Render.Flags3 ^= 0x01
 28: 0x00A9 [0x94] LocalPlayer->Render.Flags3 ^= 0x01
 29: 0x00AF [0x94] Ovjang (ID: 16982215/0x010320C7)->Render.Flags3 ^= 0x01
 30: 0x00B5 [0x94] Mnejing (ID: 16982212/0x010320C4)->Render.Flags3 ^= 0x01
 31: 0x00BB [0x94] Nadeey (ID: 16982257/0x010320F1)->Render.Flags3 ^= 0x01
 32: 0x00C1 [0x94] Kuhmden (ID: 16982258/0x010320F2)->Render.Flags3 ^= 0x01
 33: 0x00C7 [0x94] Ugahar (ID: 16982259/0x010320F3)->Render.Flags3 ^= 0x01
 34: 0x00CD [0x80] LOAD_WAIT(entity=Unnamed NPC (ID: 16982539/0x0103220B))
 35: 0x00D2 [0x80] LOAD_WAIT(entity=Ovjang (ID: 16982215/0x010320C7))
 36: 0x00D7 [0x80] LOAD_WAIT(entity=Mnejing (ID: 16982212/0x010320C4))
 37: 0x00DC [0x27] REQ_SET(priority=0x10, entity_id=Door: Walahra Temple (ID: 16982255/0x010320EF), tag_num=0x05)
 38: 0x00E3 [0x27] REQ_SET(priority=0x10, entity_id=Unnamed NPC (ID: 16982539/0x0103220B), tag_num=0x85)
 39: 0x00EA [0x1C] WAIT(15* ticks)
 40: 0x00ED [0x45] LOAD_SCHEDULED_TASK: Load scheduler "z000" with entities [LocalPlayer, LocalPlayer], work=[518*, 0*]
 41: 0x00FE [0x1A] CALL_SUBROUTINE(address=0xF5E5)
 42: 0x0101 [0x1C] WAIT(90* ticks)
 43: 0x0104 [0x02] IF !(ExtData[1]->WorkLocal[0] == 1*) GOTO 0x012F
 44: 0x010C [0x52] END_LOAD_SCHEDULER: End scheduler "z000" with entities [LocalPlayer, LocalPlayer], work=518*
 45: 0x011B [0x45] LOAD_SCHEDULED_TASK: Load scheduler "z001" with entities [LocalPlayer, LocalPlayer], work=[518*, 0*]
 46: 0x012C [0x01] GOTO 0x025C
 47: 0x012F [0x02] IF !(ExtData[1]->WorkLocal[0] == 2*) GOTO 0x015A
 48: 0x0137 [0x52] END_LOAD_SCHEDULER: End scheduler "z000" with entities [LocalPlayer, LocalPlayer], work=518*
 49: 0x0146 [0x45] LOAD_SCHEDULED_TASK: Load scheduler "zm01" with entities [LocalPlayer, LocalPlayer], work=[518*, 0*]
 50: 0x0157 [0x01] GOTO 0x025C
 51: 0x015A [0x02] IF !(ExtData[1]->WorkLocal[0] == 3*) GOTO 0x0185
 52: 0x0162 [0x52] END_LOAD_SCHEDULER: End scheduler "z000" with entities [LocalPlayer, LocalPlayer], work=518*
 53: 0x0171 [0x45] LOAD_SCHEDULED_TASK: Load scheduler "zg01" with entities [LocalPlayer, LocalPlayer], work=[518*, 0*]
 54: 0x0182 [0x01] GOTO 0x025C
 55: 0x0185 [0x02] IF !(ExtData[1]->WorkLocal[0] == 4*) GOTO 0x01B0
 56: 0x018D [0x52] END_LOAD_SCHEDULER: End scheduler "z000" with entities [LocalPlayer, LocalPlayer], work=518*
 57: 0x019C [0x45] LOAD_SCHEDULED_TASK: Load scheduler "zg01" with entities [LocalPlayer, LocalPlayer], work=[518*, 0*]
 58: 0x01AD [0x01] GOTO 0x025C
 59: 0x01B0 [0x02] IF !(ExtData[1]->WorkLocal[0] == 5*) GOTO 0x01DB
 60: 0x01B8 [0x52] END_LOAD_SCHEDULER: End scheduler "z000" with entities [LocalPlayer, LocalPlayer], work=518*
 61: 0x01C7 [0x45] LOAD_SCHEDULED_TASK: Load scheduler "zt01" with entities [LocalPlayer, LocalPlayer], work=[518*, 0*]
 62: 0x01D8 [0x01] GOTO 0x025C
 63: 0x01DB [0x02] IF !(ExtData[1]->WorkLocal[0] == 6*) GOTO 0x0206
 64: 0x01E3 [0x52] END_LOAD_SCHEDULER: End scheduler "z000" with entities [LocalPlayer, LocalPlayer], work=518*
 65: 0x01F2 [0x45] LOAD_SCHEDULED_TASK: Load scheduler "zt01" with entities [LocalPlayer, LocalPlayer], work=[518*, 0*]
 66: 0x0203 [0x01] GOTO 0x025C
 67: 0x0206 [0x02] IF !(ExtData[1]->WorkLocal[0] == 7*) GOTO 0x0231
 68: 0x020E [0x52] END_LOAD_SCHEDULER: End scheduler "z000" with entities [LocalPlayer, LocalPlayer], work=518*
 69: 0x021D [0x45] LOAD_SCHEDULED_TASK: Load scheduler "zm01" with entities [LocalPlayer, LocalPlayer], work=[518*, 0*]
 70: 0x022E [0x01] GOTO 0x025C
 71: 0x0231 [0x02] IF !(ExtData[1]->WorkLocal[0] == 8*) GOTO 0x025C
 72: 0x0239 [0x52] END_LOAD_SCHEDULER: End scheduler "z000" with entities [LocalPlayer, LocalPlayer], work=518*
 73: 0x0248 [0x45] LOAD_SCHEDULED_TASK: Load scheduler "zg01" with entities [LocalPlayer, LocalPlayer], work=[518*, 0*]
 74: 0x0259 [0x01] GOTO 0x025C

SUBROUTINE_025C:
 75: 0x025C [0x2B] ??? (ID: 16982624/0x01032260) [15006*]:
     "There [he/she] is!"
 76: 0x0263 [0x23] WAIT_FOR_DIALOG_INTERACTION
 77: 0x0264 [0x1C] WAIT(30* ticks)
 78: 0x0267 [0x27] REQ_SET(priority=0x10, entity_id=Door: Walahra Temple (ID: 16982255/0x010320EF), tag_num=0x06)
 79: 0x026E [0x2A] GET_REQ_LEVEL(level=16, entity_id=Unnamed NPC (ID: 16982539/0x0103220B))
 80: 0x0274 [0x4B] UPDATE_ENTITY_YAW(entity=LocalPlayer, yaw=18.7*)
 81: 0x027B [0x1C] WAIT(50* ticks)
 82: 0x027E [0x27] REQ_SET(priority=0x10, entity_id=Ovjang (ID: 16982215/0x010320C7), tag_num=0x43)
 83: 0x0285 [0x1C] WAIT(10* ticks)
 84: 0x0288 [0x27] REQ_SET(priority=0x10, entity_id=Mnejing (ID: 16982212/0x010320C4), tag_num=0x3D)
 85: 0x028F [0x52] END_LOAD_SCHEDULER: End scheduler "z001" with entities [LocalPlayer, LocalPlayer], work=518*
 86: 0x029E [0x52] END_LOAD_SCHEDULER: End scheduler "zm01" with entities [LocalPlayer, LocalPlayer], work=518*
 87: 0x02AD [0x52] END_LOAD_SCHEDULER: End scheduler "zt01" with entities [LocalPlayer, LocalPlayer], work=518*
 88: 0x02BC [0x52] END_LOAD_SCHEDULER: End scheduler "zg01" with entities [LocalPlayer, LocalPlayer], work=518*
 89: 0x02CB [0x02] IF !(ExtData[1]->WorkLocal[0] == 1*) GOTO 0x02E7
 90: 0x02D3 [0x45] LOAD_SCHEDULED_TASK: Load scheduler "z002" with entities [LocalPlayer, LocalPlayer], work=[518*, 0*]
 91: 0x02E4 [0x01] GOTO 0x03AB
 92: 0x02E7 [0x02] IF !(ExtData[1]->WorkLocal[0] == 2*) GOTO 0x0303
 93: 0x02EF [0x45] LOAD_SCHEDULED_TASK: Load scheduler "z002" with entities [LocalPlayer, LocalPlayer], work=[518*, 0*]
 94: 0x0300 [0x01] GOTO 0x03AB
 95: 0x0303 [0x02] IF !(ExtData[1]->WorkLocal[0] == 3*) GOTO 0x031F
 96: 0x030B [0x45] LOAD_SCHEDULED_TASK: Load scheduler "z002" with entities [LocalPlayer, LocalPlayer], work=[518*, 0*]
 97: 0x031C [0x01] GOTO 0x03AB
 98: 0x031F [0x02] IF !(ExtData[1]->WorkLocal[0] == 4*) GOTO 0x033B
 99: 0x0327 [0x45] LOAD_SCHEDULED_TASK: Load scheduler "z002" with entities [LocalPlayer, LocalPlayer], work=[518*, 0*]
100: 0x0338 [0x01] GOTO 0x03AB
101: 0x033B [0x02] IF !(ExtData[1]->WorkLocal[0] == 5*) GOTO 0x0357
102: 0x0343 [0x45] LOAD_SCHEDULED_TASK: Load scheduler "zt02" with entities [LocalPlayer, LocalPlayer], work=[518*, 0*]
103: 0x0354 [0x01] GOTO 0x03AB
104: 0x0357 [0x02] IF !(ExtData[1]->WorkLocal[0] == 6*) GOTO 0x0373
105: 0x035F [0x45] LOAD_SCHEDULED_TASK: Load scheduler "zt02" with entities [LocalPlayer, LocalPlayer], work=[518*, 0*]
106: 0x0370 [0x01] GOTO 0x03AB
107: 0x0373 [0x02] IF !(ExtData[1]->WorkLocal[0] == 7*) GOTO 0x038F
108: 0x037B [0x45] LOAD_SCHEDULED_TASK: Load scheduler "zt02" with entities [LocalPlayer, LocalPlayer], work=[518*, 0*]
109: 0x038C [0x01] GOTO 0x03AB
110: 0x038F [0x02] IF !(ExtData[1]->WorkLocal[0] == 8*) GOTO 0x03AB
111: 0x0397 [0x45] LOAD_SCHEDULED_TASK: Load scheduler "zg02" with entities [LocalPlayer, LocalPlayer], work=[518*, 0*]
112: 0x03A8 [0x01] GOTO 0x03AB

SUBROUTINE_03AB:
113: 0x03AB [0x1C] WAIT(90* ticks)
114: 0x03AE [0x52] END_LOAD_SCHEDULER: End scheduler "z002" with entities [LocalPlayer, LocalPlayer], work=518*
115: 0x03BD [0x52] END_LOAD_SCHEDULER: End scheduler "zg02" with entities [LocalPlayer, LocalPlayer], work=518*
116: 0x03CC [0x52] END_LOAD_SCHEDULER: End scheduler "zt02" with entities [LocalPlayer, LocalPlayer], work=518*
117: 0x03DB [0x45] LOAD_SCHEDULED_TASK: Load scheduler "z003" with entities [LocalPlayer, LocalPlayer], work=[518*, 0*]
118: 0x03EC [0x2A] GET_REQ_LEVEL(level=16, entity_id=Ovjang (ID: 16982215/0x010320C7))
119: 0x03F2 [0x4A] LocalPlayer looks at Ovjang (ID: 16982215/0x010320C7)
120: 0x03FB [0x1C] WAIT(20* ticks)
121: 0x03FE [0x5B] LOAD_EXT_SCHEDULER: Load scheduler "yah0" with entities [Ovjang (ID: 16982215/0x010320C7), Ovjang (ID: 16982215/0x010320C7)], work=851*
122: 0x040D [0x1C] WAIT(60* ticks)
123: 0x0410 [0x2B] Ovjang (ID: 16982215/0x010320C7) [15007*]:
     "Just the person we were hoping to meet!"
124: 0x0417 [0x23] WAIT_FOR_DIALOG_INTERACTION
125: 0x0418 [0x52] END_LOAD_SCHEDULER: End scheduler "z003" with entities [LocalPlayer, LocalPlayer], work=518*
126: 0x0427 [0x45] LOAD_SCHEDULED_TASK: Load scheduler "z103" with entities [LocalPlayer, LocalPlayer], work=[518*, 0*]
127: 0x0438 [0x6E] LocalPlayer uses emote 22*
128: 0x043F [0x99] Wait for LocalPlayer animation to complete
129: 0x0444 [0x1C] WAIT(180* ticks)
130: 0x0447 [0x53] WAIT_SCHEDULER_TASK: Wait for scheduler "yah0" with entities [Ovjang (ID: 16982215/0x010320C7), Ovjang (ID: 16982215/0x010320C7)]
131: 0x0454 [0x52] END_LOAD_SCHEDULER: End scheduler "z103" with entities [LocalPlayer, LocalPlayer], work=518*
132: 0x0463 [0x45] LOAD_SCHEDULED_TASK: Load scheduler "z203" with entities [LocalPlayer, LocalPlayer], work=[518*, 0*]
133: 0x0474 [0x5B] LOAD_EXT_SCHEDULER: Load scheduler "ude0" with entities [Mnejing (ID: 16982212/0x010320C4), Mnejing (ID: 16982212/0x010320C4)], work=905*
134: 0x0483 [0x2B] Mnejing (ID: 16982212/0x010320C4) [15008*]:
     "We find ourselves in quite the pickle, and your peerless problem-solving skills figure to be just what the puppetmaster ordered!"
135: 0x048A [0x1C] WAIT(90* ticks)
136: 0x048D [0x53] WAIT_SCHEDULER_TASK: Wait for scheduler "yah0" with entities [Ovjang (ID: 16982215/0x010320C7), Ovjang (ID: 16982215/0x010320C7)]
137: 0x049A [0x23] WAIT_FOR_DIALOG_INTERACTION
138: 0x049B [0x1C] WAIT(40* ticks)
139: 0x049E [0x1A] CALL_SUBROUTINE(address=0xF606)
140: 0x04A1 [0x1C] WAIT(30* ticks)
141: 0x04A4 [0x52] END_LOAD_SCHEDULER: End scheduler "z203" with entities [LocalPlayer, LocalPlayer], work=518*
142: 0x04B3 [0x6B] STOP_AND_IDLE: Mnejing (ID: 16982212/0x010320C4) stops current action and resets to idle (animation="idl0")
143: 0x04BC [0x1C] WAIT(1* ticks)
144: 0x04BF [0xBA] SET_ENTITY_POSITION(entity_id=LocalPlayer, pos_x=86.346*, pos_z=45.953*, pos_y=0.480*, direction=211.0*)
145: 0x04CC [0xBA] SET_ENTITY_POSITION(entity_id=Unnamed NPC (ID: 16982539/0x0103220B), pos_x=86.346*, pos_z=45.953*, pos_y=0.480*, direction=211.0*)
146: 0x04D9 [0xBA] SET_ENTITY_POSITION(entity_id=Ovjang (ID: 16982215/0x010320C7), pos_x=84.007*, pos_z=49.567*, pos_y=0.480*, direction=52.7*)
147: 0x04E6 [0xBA] SET_ENTITY_POSITION(entity_id=Mnejing (ID: 16982212/0x010320C4), pos_x=83.238*, pos_z=48.529*, pos_y=0.480*, direction=26.4*)
148: 0x04F3 [0xBA] SET_ENTITY_POSITION(entity_id=Nadeey (ID: 16982257/0x010320F1), pos_x=80.603*, pos_z=54.186*, pos_y=-0.325*, direction=212.2*)
149: 0x0500 [0xBA] SET_ENTITY_POSITION(entity_id=Ugahar (ID: 16982259/0x010320F3), pos_x=81.748*, pos_z=54.867*, pos_y=-0.315*, direction=212.2*)
150: 0x050D [0x4A] Nadeey (ID: 16982257/0x010320F1) looks at Ugahar (ID: 16982259/0x010320F3)
151: 0x0516 [0x4A] Ugahar (ID: 16982259/0x010320F3) looks at Nadeey (ID: 16982257/0x010320F1)
152: 0x051F [0x6F] WAIT_FRAME_DELAY: Yield until WaitTime reaches zero
153: 0x0520 [0x76] CHECK_ENTITY_RENDER_FLAGS: Wait until Ugahar (ID: 16982259/0x010320F3) Render.Flags0 and Render.Flags3 conditions are met
154: 0x0525 [0x66] LOAD_EXT_SCHEDULER_MAIN: Load scheduler "tlk0" with entities [Ugahar (ID: 16982259/0x010320F3), Ugahar (ID: 16982259/0x010320F3)], work=0*
155: 0x0534 [0x27] REQ_SET(priority=0x10, entity_id=Unnamed NPC (ID: 16982539/0x0103220B), tag_num=0x86)
156: 0x053B [0x1C] WAIT(10* ticks)
157: 0x053E [0x45] LOAD_SCHEDULED_TASK: Load scheduler "z004" with entities [LocalPlayer, LocalPlayer], work=[518*, 0*]
158: 0x054F [0x1A] CALL_SUBROUTINE(address=0xF5E5)
159: 0x0552 [0x1C] WAIT(60* ticks)
160: 0x0555 [0x2A] GET_REQ_LEVEL(level=16, entity_id=LocalPlayer)
161: 0x055B [0x5B] LOAD_EXT_SCHEDULER: Load scheduler "tlk0" with entities [Mnejing (ID: 16982212/0x010320C4), Mnejing (ID: 16982212/0x010320C4)], work=850*
162: 0x056A [0x2B] Mnejing (ID: 16982212/0x010320C4) [15009*]:
     "It's the Empress, you see. She just hasn't been herself these days."
163: 0x0571 [0x23] WAIT_FOR_DIALOG_INTERACTION
164: 0x0572 [0x52] END_LOAD_SCHEDULER: End scheduler "z004" with entities [LocalPlayer, LocalPlayer], work=518*
165: 0x0581 [0x45] LOAD_SCHEDULED_TASK: Load scheduler "ov30" with entities [LocalPlayer, LocalPlayer], work=[518*, 0*]
166: 0x0592 [0x45] LOAD_SCHEDULED_TASK: Load scheduler "z005" with entities [LocalPlayer, LocalPlayer], work=[518*, 0*]
167: 0x05A3 [0x2B] Mnejing (ID: 16982212/0x010320C4) [15010*]:
     "Oh, she puts on a cheerful face for her people, of course, but there's no fooling old friends."
168: 0x05AA [0x23] WAIT_FOR_DIALOG_INTERACTION
169: 0x05AB [0x5B] LOAD_EXT_SCHEDULER: Load scheduler "tun0" with entities [Ovjang (ID: 16982215/0x010320C7), Ovjang (ID: 16982215/0x010320C7)], work=858*
170: 0x05BA [0x2B] Ovjang (ID: 16982215/0x010320C7) [15011*]:
     "Why, she spends every spare moment cooped up in her library, tearing through tome after tome like a starved bookworm!"
171: 0x05C1 [0x23] WAIT_FOR_DIALOG_INTERACTION
172: 0x05C2 [0x5B] LOAD_EXT_SCHEDULER: Load scheduler "tlk1" with entities [Mnejing (ID: 16982212/0x010320C4), Mnejing (ID: 16982212/0x010320C4)], work=850*
173: 0x05D1 [0x2B] Mnejing (ID: 16982212/0x010320C4) [15012*]:
     "She's always been the studious type, but whatever could it be that she researches with such zeal?"
174: 0x05D8 [0x23] WAIT_FOR_DIALOG_INTERACTION
175: 0x05D9 [0x52] END_LOAD_SCHEDULER: End scheduler "z005" with entities [LocalPlayer, LocalPlayer], work=518*
176: 0x05E8 [0x45] LOAD_SCHEDULED_TASK: Load scheduler "z106" with entities [LocalPlayer, LocalPlayer], work=[518*, 0*]
177: 0x05F9 [0x5B] LOAD_EXT_SCHEDULER: Load scheduler "tun1" with entities [Ovjang (ID: 16982215/0x010320C7), Ovjang (ID: 16982215/0x010320C7)], work=858*
178: 0x0608 [0x2B] Mnejing (ID: 16982212/0x010320C4) [15013*]:
     "It concerned us enough that we took it upon ourselves to do a little research of our own, and..."
179: 0x060F [0x23] WAIT_FOR_DIALOG_INTERACTION
180: 0x0610 [0x5B] LOAD_EXT_SCHEDULER: Load scheduler "yah0" with entities [Ovjang (ID: 16982215/0x010320C7), Ovjang (ID: 16982215/0x010320C7)], work=851*
181: 0x061F [0x1C] WAIT(30* ticks)
182: 0x0622 [0x4A] LocalPlayer looks at Ovjang (ID: 16982215/0x010320C7)
183: 0x062B [0x1C] WAIT(30* ticks)
184: 0x062E [0x2B] Ovjang (ID: 16982215/0x010320C7) [15014*]:
     "You won't believe what we found, <Player>!"
185: 0x0635 [0x1C] WAIT(100* ticks)
186: 0x0638 [0x23] WAIT_FOR_DIALOG_INTERACTION
187: 0x0639 [0x52] END_LOAD_SCHEDULER: End scheduler "z106" with entities [LocalPlayer, LocalPlayer], work=518*
188: 0x0648 [0x45] LOAD_SCHEDULED_TASK: Load scheduler "z007" with entities [LocalPlayer, LocalPlayer], work=[518*, 0*]
189: 0x0659 [0x5B] LOAD_EXT_SCHEDULER: Load scheduler "sil0" with entities [Ovjang (ID: 16982215/0x010320C7), Ovjang (ID: 16982215/0x010320C7)], work=851*
190: 0x0668 [0x03] Work_Zone[2] = 1249*
191: 0x066D [0x2B] Ovjang (ID: 16982215/0x010320C7) [15015*]:
     "Why, she means to obtain none other than $6!"
192: 0x0674 [0x1C] WAIT(50* ticks)
193: 0x0677 [0x23] WAIT_FOR_DIALOG_INTERACTION
194: 0x0678 [0x02] IF !(ExtData[1]->WorkLocal[0] == 5*) GOTO 0x06A3
195: 0x0680 [0x52] END_LOAD_SCHEDULER: End scheduler "z007" with entities [LocalPlayer, LocalPlayer], work=518*
196: 0x068F [0x45] LOAD_SCHEDULED_TASK: Load scheduler "zt08" with entities [LocalPlayer, LocalPlayer], work=[518*, 0*]
197: 0x06A0 [0x01] GOTO 0x0719
198: 0x06A3 [0x02] IF !(ExtData[1]->WorkLocal[0] == 6*) GOTO 0x06CE
199: 0x06AB [0x52] END_LOAD_SCHEDULER: End scheduler "z007" with entities [LocalPlayer, LocalPlayer], work=518*
200: 0x06BA [0x45] LOAD_SCHEDULED_TASK: Load scheduler "zt08" with entities [LocalPlayer, LocalPlayer], work=[518*, 0*]
201: 0x06CB [0x01] GOTO 0x0719
202: 0x06CE [0x02] IF !(ExtData[1]->WorkLocal[0] == 7*) GOTO 0x06F9
203: 0x06D6 [0x52] END_LOAD_SCHEDULER: End scheduler "z007" with entities [LocalPlayer, LocalPlayer], work=518*
204: 0x06E5 [0x45] LOAD_SCHEDULED_TASK: Load scheduler "zt08" with entities [LocalPlayer, LocalPlayer], work=[518*, 0*]
205: 0x06F6 [0x01] GOTO 0x0719
206: 0x06F9 [0x52] END_LOAD_SCHEDULER: End scheduler "z007" with entities [LocalPlayer, LocalPlayer], work=518*
207: 0x0708 [0x45] LOAD_SCHEDULED_TASK: Load scheduler "z008" with entities [LocalPlayer, LocalPlayer], work=[518*, 0*]

SUBROUTINE_0719:
208: 0x0719 [0x24] CREATE_DIALOG(message_id=15016*, default_option=0*, option_flags=0*)
     "...6! [A what now?/No... Not $6!]"
209: 0x0720 [0x25] WAIT_DIALOG_SELECT()
210: 0x0721 [0x02] IF !(Work_Zone[0] == 0*) GOTO 0x0886
211: 0x0729 [0x6E] LocalPlayer uses emote 22*
212: 0x0730 [0x99] Wait for LocalPlayer animation to complete
213: 0x0735 [0x1C] WAIT(120* ticks)
214: 0x0738 [0x52] END_LOAD_SCHEDULER: End scheduler "z008" with entities [LocalPlayer, LocalPlayer], work=518*
215: 0x0747 [0x52] END_LOAD_SCHEDULER: End scheduler "zt08" with entities [LocalPlayer, LocalPlayer], work=518*
216: 0x0756 [0x02] IF !(ExtData[1]->WorkLocal[0] == 1*) GOTO 0x0772
217: 0x075E [0x45] LOAD_SCHEDULED_TASK: Load scheduler "z009" with entities [LocalPlayer, LocalPlayer], work=[518*, 0*]
218: 0x076F [0x01] GOTO 0x0836
219: 0x0772 [0x02] IF !(ExtData[1]->WorkLocal[0] == 2*) GOTO 0x078E
220: 0x077A [0x45] LOAD_SCHEDULED_TASK: Load scheduler "z009" with entities [LocalPlayer, LocalPlayer], work=[518*, 0*]
221: 0x078B [0x01] GOTO 0x0836
222: 0x078E [0x02] IF !(ExtData[1]->WorkLocal[0] == 3*) GOTO 0x07AA
223: 0x0796 [0x45] LOAD_SCHEDULED_TASK: Load scheduler "zg09" with entities [LocalPlayer, LocalPlayer], work=[518*, 0*]
224: 0x07A7 [0x01] GOTO 0x0836
225: 0x07AA [0x02] IF !(ExtData[1]->WorkLocal[0] == 4*) GOTO 0x07C6
226: 0x07B2 [0x45] LOAD_SCHEDULED_TASK: Load scheduler "zg09" with entities [LocalPlayer, LocalPlayer], work=[518*, 0*]
227: 0x07C3 [0x01] GOTO 0x0836
228: 0x07C6 [0x02] IF !(ExtData[1]->WorkLocal[0] == 5*) GOTO 0x07E2
229: 0x07CE [0x45] LOAD_SCHEDULED_TASK: Load scheduler "zt09" with entities [LocalPlayer, LocalPlayer], work=[518*, 0*]
230: 0x07DF [0x01] GOTO 0x0836
231: 0x07E2 [0x02] IF !(ExtData[1]->WorkLocal[0] == 6*) GOTO 0x07FE
232: 0x07EA [0x45] LOAD_SCHEDULED_TASK: Load scheduler "zt09" with entities [LocalPlayer, LocalPlayer], work=[518*, 0*]
233: 0x07FB [0x01] GOTO 0x0836
234: 0x07FE [0x02] IF !(ExtData[1]->WorkLocal[0] == 7*) GOTO 0x081A
235: 0x0806 [0x45] LOAD_SCHEDULED_TASK: Load scheduler "zt09" with entities [LocalPlayer, LocalPlayer], work=[518*, 0*]
236: 0x0817 [0x01] GOTO 0x0836
237: 0x081A [0x02] IF !(ExtData[1]->WorkLocal[0] == 8*) GOTO 0x0836
238: 0x0822 [0x45] LOAD_SCHEDULED_TASK: Load scheduler "zg09" with entities [LocalPlayer, LocalPlayer], work=[518*, 0*]
239: 0x0833 [0x01] GOTO 0x0836

SUBROUTINE_0836:
240: 0x0836 [0x1C] WAIT(30* ticks)
241: 0x0839 [0x2B] Ovjang (ID: 16982215/0x010320C7) [15017*]:
     "You haven't heard of it? Talk about an anticlimax..."
242: 0x0840 [0x23] WAIT_FOR_DIALOG_INTERACTION
243: 0x0841 [0x5B] LOAD_EXT_SCHEDULER: Load scheduler "ude0" with entities [Mnejing (ID: 16982212/0x010320C4), Mnejing (ID: 16982212/0x010320C4)], work=905*
244: 0x0850 [0x1C] WAIT(40* ticks)
245: 0x0853 [0x4A] LocalPlayer looks at Mnejing (ID: 16982212/0x010320C4)
246: 0x085C [0x2B] Mnejing (ID: 16982212/0x010320C4) [15018*]:
     "Small wonder, though. There've been no sightings, nor even word of one in Al Zahbi in years. Allow me to explain."
247: 0x0863 [0x1C] WAIT(100* ticks)
248: 0x0866 [0x23] WAIT_FOR_DIALOG_INTERACTION
249: 0x0867 [0x5B] LOAD_EXT_SCHEDULER: Load scheduler "ude1" with entities [Mnejing (ID: 16982212/0x010320C4), Mnejing (ID: 16982212/0x010320C4)], work=905*
250: 0x0876 [0x53] WAIT_SCHEDULER_TASK: Wait for scheduler "ude1" with entities [Mnejing (ID: 16982212/0x010320C4), Mnejing (ID: 16982212/0x010320C4)]
251: 0x0883 [0x01] GOTO 0x0A72
252: 0x0886 [0x02] IF !(Work_Zone[0] == 1*) GOTO 0x0A72
253: 0x088E [0x6E] LocalPlayer uses emote 21*
254: 0x0895 [0x99] Wait for LocalPlayer animation to complete
255: 0x089A [0x1C] WAIT(100* ticks)
256: 0x089D [0x53] WAIT_SCHEDULER_TASK: Wait for scheduler "sil0" with entities [Ovjang (ID: 16982215/0x010320C7), Ovjang (ID: 16982215/0x010320C7)]
257: 0x08AA [0x5B] LOAD_EXT_SCHEDULER: Load scheduler "yah0" with entities [Ovjang (ID: 16982215/0x010320C7), Ovjang (ID: 16982215/0x010320C7)], work=851*
258: 0x08B9 [0x1C] WAIT(60* ticks)
259: 0x08BC [0x2B] Ovjang (ID: 16982215/0x010320C7) [15019*]:
     "Yes...indubitably, undeniably...$6! I could hardly believe it myself!"
260: 0x08C3 [0x23] WAIT_FOR_DIALOG_INTERACTION
261: 0x08C4 [0x02] IF !(ExtData[1]->WorkLocal[0] == 1*) GOTO 0x08EF
262: 0x08CC [0x52] END_LOAD_SCHEDULER: End scheduler "z008" with entities [LocalPlayer, LocalPlayer], work=518*
263: 0x08DB [0x45] LOAD_SCHEDULED_TASK: Load scheduler "z010" with entities [LocalPlayer, LocalPlayer], work=[518*, 0*]
264: 0x08EC [0x01] GOTO 0x0A1C
265: 0x08EF [0x02] IF !(ExtData[1]->WorkLocal[0] == 2*) GOTO 0x091A
266: 0x08F7 [0x52] END_LOAD_SCHEDULER: End scheduler "z008" with entities [LocalPlayer, LocalPlayer], work=518*
267: 0x0906 [0x45] LOAD_SCHEDULED_TASK: Load scheduler "z010" with entities [LocalPlayer, LocalPlayer], work=[518*, 0*]
268: 0x0917 [0x01] GOTO 0x0A1C
269: 0x091A [0x02] IF !(ExtData[1]->WorkLocal[0] == 3*) GOTO 0x0945
270: 0x0922 [0x52] END_LOAD_SCHEDULER: End scheduler "z008" with entities [LocalPlayer, LocalPlayer], work=518*
271: 0x0931 [0x45] LOAD_SCHEDULED_TASK: Load scheduler "zg10" with entities [LocalPlayer, LocalPlayer], work=[518*, 0*]
272: 0x0942 [0x01] GOTO 0x0A1C
273: 0x0945 [0x02] IF !(ExtData[1]->WorkLocal[0] == 4*) GOTO 0x0970
274: 0x094D [0x52] END_LOAD_SCHEDULER: End scheduler "z008" with entities [LocalPlayer, LocalPlayer], work=518*
275: 0x095C [0x45] LOAD_SCHEDULED_TASK: Load scheduler "zg10" with entities [LocalPlayer, LocalPlayer], work=[518*, 0*]
276: 0x096D [0x01] GOTO 0x0A1C
277: 0x0970 [0x02] IF !(ExtData[1]->WorkLocal[0] == 5*) GOTO 0x099B
278: 0x0978 [0x52] END_LOAD_SCHEDULER: End scheduler "zt08" with entities [LocalPlayer, LocalPlayer], work=518*
279: 0x0987 [0x45] LOAD_SCHEDULED_TASK: Load scheduler "zt10" with entities [LocalPlayer, LocalPlayer], work=[518*, 0*]
280: 0x0998 [0x01] GOTO 0x0A1C
281: 0x099B [0x02] IF !(ExtData[1]->WorkLocal[0] == 6*) GOTO 0x09C6
282: 0x09A3 [0x52] END_LOAD_SCHEDULER: End scheduler "zt08" with entities [LocalPlayer, LocalPlayer], work=518*
283: 0x09B2 [0x45] LOAD_SCHEDULED_TASK: Load scheduler "zt10" with entities [LocalPlayer, LocalPlayer], work=[518*, 0*]
284: 0x09C3 [0x01] GOTO 0x0A1C
285: 0x09C6 [0x02] IF !(ExtData[1]->WorkLocal[0] == 7*) GOTO 0x09F1
286: 0x09CE [0x52] END_LOAD_SCHEDULER: End scheduler "zt08" with entities [LocalPlayer, LocalPlayer], work=518*
287: 0x09DD [0x45] LOAD_SCHEDULED_TASK: Load scheduler "zt10" with entities [LocalPlayer, LocalPlayer], work=[518*, 0*]
288: 0x09EE [0x01] GOTO 0x0A1C
289: 0x09F1 [0x02] IF !(ExtData[1]->WorkLocal[0] == 8*) GOTO 0x0A1C
290: 0x09F9 [0x52] END_LOAD_SCHEDULER: End scheduler "z008" with entities [LocalPlayer, LocalPlayer], work=518*
291: 0x0A08 [0x45] LOAD_SCHEDULED_TASK: Load scheduler "zg10" with entities [LocalPlayer, LocalPlayer], work=[518*, 0*]
292: 0x0A19 [0x01] GOTO 0x0A1C

SUBROUTINE_0A1C:
293: 0x0A1C [0x5B] LOAD_EXT_SCHEDULER: Load scheduler "ude0" with entities [Mnejing (ID: 16982212/0x010320C4), Mnejing (ID: 16982212/0x010320C4)], work=905*
294: 0x0A2B [0x2B] Mnejing (ID: 16982212/0x010320C4) [15020*]:
     "<Ahem>... Do you two have any idea what you're talking about?"
295: 0x0A32 [0x4A] LocalPlayer looks at Mnejing (ID: 16982212/0x010320C4)
296: 0x0A3B [0x23] WAIT_FOR_DIALOG_INTERACTION
297: 0x0A3C [0x6E] LocalPlayer uses emote 29*
298: 0x0A43 [0x99] Wait for LocalPlayer animation to complete
299: 0x0A48 [0x1C] WAIT(120* ticks)
300: 0x0A4B [0x5B] LOAD_EXT_SCHEDULER: Load scheduler "ude1" with entities [Mnejing (ID: 16982212/0x010320C4), Mnejing (ID: 16982212/0x010320C4)], work=905*
301: 0x0A5A [0x2B] Mnejing (ID: 16982212/0x010320C4) [15021*]:
     "Perhaps I should explain."
302: 0x0A61 [0x23] WAIT_FOR_DIALOG_INTERACTION
303: 0x0A62 [0x53] WAIT_SCHEDULER_TASK: Wait for scheduler "ude1" with entities [Mnejing (ID: 16982212/0x010320C4), Mnejing (ID: 16982212/0x010320C4)]
304: 0x0A6F [0x01] GOTO 0x0A72

SUBROUTINE_0A72:
305: 0x0A72 [0x52] END_LOAD_SCHEDULER: End scheduler "z009" with entities [LocalPlayer, LocalPlayer], work=518*
306: 0x0A81 [0x52] END_LOAD_SCHEDULER: End scheduler "zg09" with entities [LocalPlayer, LocalPlayer], work=518*
307: 0x0A90 [0x52] END_LOAD_SCHEDULER: End scheduler "zt09" with entities [LocalPlayer, LocalPlayer], work=518*
308: 0x0A9F [0x52] END_LOAD_SCHEDULER: End scheduler "z010" with entities [LocalPlayer, LocalPlayer], work=518*
309: 0x0AAE [0x45] LOAD_SCHEDULED_TASK: Load scheduler "ov40" with entities [LocalPlayer, LocalPlayer], work=[518*, 0*]
310: 0x0ABF [0x45] LOAD_SCHEDULED_TASK: Load scheduler "z011" with entities [LocalPlayer, LocalPlayer], work=[518*, 0*]
311: 0x0AD0 [0x5D] SET_MUSIC_VOLUME(volume=0*, fade_time=120*)
312: 0x0AD5 [0x1C] WAIT(50* ticks)
313: 0x0AD8 [0x2B] Mnejing (ID: 16982212/0x010320C4) [15022*]:
     "But first, you must promise us that not a word of this conversation will leave this room."
314: 0x0ADF [0x1C] WAIT(70* ticks)
315: 0x0AE2 [0x23] WAIT_FOR_DIALOG_INTERACTION
316: 0x0AE3 [0x5C] MUSIC_CONTROL: Set Idle (Day) music to song 150*
317: 0x0AE7 [0x5C] MUSIC_CONTROL: Set Idle (Night) music to song 150*
318: 0x0AEB [0x9A] WAIT_MUSIC_SERVER()
319: 0x0AEC [0x02] IF !(ExtData[1]->WorkLocal[0] == 5*) GOTO 0x0B28
320: 0x0AF4 [0x52] END_LOAD_SCHEDULER: End scheduler "z011" with entities [LocalPlayer, LocalPlayer], work=518*
321: 0x0B03 [0x45] LOAD_SCHEDULED_TASK: Load scheduler "ov40" with entities [LocalPlayer, LocalPlayer], work=[518*, 0*]
322: 0x0B14 [0x45] LOAD_SCHEDULED_TASK: Load scheduler "zt11" with entities [LocalPlayer, LocalPlayer], work=[518*, 0*]
323: 0x0B25 [0x01] GOTO 0x0BD1
324: 0x0B28 [0x02] IF !(ExtData[1]->WorkLocal[0] == 6*) GOTO 0x0B64
325: 0x0B30 [0x52] END_LOAD_SCHEDULER: End scheduler "z011" with entities [LocalPlayer, LocalPlayer], work=518*
326: 0x0B3F [0x45] LOAD_SCHEDULED_TASK: Load scheduler "ov40" with entities [LocalPlayer, LocalPlayer], work=[518*, 0*]
327: 0x0B50 [0x45] LOAD_SCHEDULED_TASK: Load scheduler "zt11" with entities [LocalPlayer, LocalPlayer], work=[518*, 0*]
328: 0x0B61 [0x01] GOTO 0x0BD1
329: 0x0B64 [0x02] IF !(ExtData[1]->WorkLocal[0] == 7*) GOTO 0x0BA0
330: 0x0B6C [0x52] END_LOAD_SCHEDULER: End scheduler "z011" with entities [LocalPlayer, LocalPlayer], work=518*
331: 0x0B7B [0x45] LOAD_SCHEDULED_TASK: Load scheduler "ov40" with entities [LocalPlayer, LocalPlayer], work=[518*, 0*]
332: 0x0B8C [0x45] LOAD_SCHEDULED_TASK: Load scheduler "zt11" with entities [LocalPlayer, LocalPlayer], work=[518*, 0*]
333: 0x0B9D [0x01] GOTO 0x0BD1
334: 0x0BA0 [0x52] END_LOAD_SCHEDULER: End scheduler "z011" with entities [LocalPlayer, LocalPlayer], work=518*
335: 0x0BAF [0x45] LOAD_SCHEDULED_TASK: Load scheduler "ov40" with entities [LocalPlayer, LocalPlayer], work=[518*, 0*]
336: 0x0BC0 [0x45] LOAD_SCHEDULED_TASK: Load scheduler "z111" with entities [LocalPlayer, LocalPlayer], work=[518*, 0*]

SUBROUTINE_0BD1:
337: 0x0BD1 [0x1C] WAIT(40* ticks)
338: 0x0BD4 [0x2B] Mnejing (ID: 16982212/0x010320C4) [15023*]:
     "According to Imperial law, these talismans are considered contraband of the highest order."
339: 0x0BDB [0x23] WAIT_FOR_DIALOG_INTERACTION
340: 0x0BDC [0x52] END_LOAD_SCHEDULER: End scheduler "zt11" with entities [LocalPlayer, LocalPlayer], work=518*
341: 0x0BEB [0x52] END_LOAD_SCHEDULER: End scheduler "z111" with entities [LocalPlayer, LocalPlayer], work=518*
342: 0x0BFA [0x45] LOAD_SCHEDULED_TASK: Load scheduler "ov60" with entities [LocalPlayer, LocalPlayer], work=[518*, 0*]
343: 0x0C0B [0x45] LOAD_SCHEDULED_TASK: Load scheduler "z012" with entities [LocalPlayer, LocalPlayer], work=[518*, 0*]
344: 0x0C1C [0x2B] Mnejing (ID: 16982212/0x010320C4) [15024*]:
     "Why, even the mere possession of one could be punished by imprisonment, exile...even death."
345: 0x0C23 [0x23] WAIT_FOR_DIALOG_INTERACTION
346: 0x0C24 [0x5B] LOAD_EXT_SCHEDULER: Load scheduler "thk0" with entities [Ovjang (ID: 16982215/0x010320C7), Ovjang (ID: 16982215/0x010320C7)], work=858*
347: 0x0C33 [0x2B] Ovjang (ID: 16982215/0x010320C7) [15025*]:
     "But why would our Empress stain her dainty little hands in a search for such a scandalous artifact?"
348: 0x0C3A [0x23] WAIT_FOR_DIALOG_INTERACTION
349: 0x0C3B [0x2B] Mnejing (ID: 16982212/0x010320C4) [15026*]:
     "That is the question, isn't it?"
350: 0x0C42 [0x23] WAIT_FOR_DIALOG_INTERACTION
351: 0x0C43 [0x5D] SET_MUSIC_VOLUME(volume=0*, fade_time=100*)
352: 0x0C48 [0x03] Work_Zone[3] = 100*
353: 0x0C4D [0x27] REQ_SET(priority=0x10, entity_id=??? (ID: 16982624/0x01032260), tag_num=0x0D)
354: 0x0C54 [0x52] END_LOAD_SCHEDULER: End scheduler "z012" with entities [LocalPlayer, LocalPlayer], work=518*
355: 0x0C63 [0x45] LOAD_SCHEDULED_TASK: Load scheduler "ov60" with entities [LocalPlayer, LocalPlayer], work=[518*, 0*]
356: 0x0C74 [0x45] LOAD_SCHEDULED_TASK: Load scheduler "z013" with entities [LocalPlayer, LocalPlayer], work=[518*, 0*]
357: 0x0C85 [0x4A] LocalPlayer looks at Ovjang (ID: 16982215/0x010320C7)
358: 0x0C8E [0x1C] WAIT(10* ticks)
359: 0x0C91 [0x5B] LOAD_EXT_SCHEDULER: Load scheduler "thk1" with entities [Ovjang (ID: 16982215/0x010320C7), Ovjang (ID: 16982215/0x010320C7)], work=858*
360: 0x0CA0 [0x1C] WAIT(40* ticks)
361: 0x0CA3 [0x2B] Mnejing (ID: 16982212/0x010320C4) [15027*]:
     "Books of lore describe it as a piece of the most peerless craftsmanship, bearing two exquisitely engraved seals..."
362: 0x0CAA [0x23] WAIT_FOR_DIALOG_INTERACTION
363: 0x0CAB [0x2A] GET_REQ_LEVEL(level=16, entity_id=??? (ID: 16982624/0x01032260))
364: 0x0CB1 [0x5C] MUSIC_CONTROL: Set Idle (Day) music to song 174*
365: 0x0CB5 [0x5C] MUSIC_CONTROL: Set Idle (Night) music to song 174*
366: 0x0CB9 [0x9A] WAIT_MUSIC_SERVER()
367: 0x0CBA [0x52] END_LOAD_SCHEDULER: End scheduler "z013" with entities [LocalPlayer, LocalPlayer], work=518*
368: 0x0CC9 [0x45] LOAD_SCHEDULED_TASK: Load scheduler "ov60" with entities [LocalPlayer, LocalPlayer], work=[518*, 0*]
369: 0x0CDA [0x45] LOAD_SCHEDULED_TASK: Load scheduler "z014" with entities [LocalPlayer, LocalPlayer], work=[518*, 0*]
370: 0x0CEB [0x1C] WAIT(40* ticks)
371: 0x0CEE [0x2B] Mnejing (ID: 16982212/0x010320C4) [15028*]:
     "...On the front, that of a crowned dolphin. Behind, a stygian warrior atop a steed blacker than night."
372: 0x0CF5 [0x1C] WAIT(120* ticks)
373: 0x0CF8 [0x23] WAIT_FOR_DIALOG_INTERACTION
374: 0x0CF9 [0x52] END_LOAD_SCHEDULER: End scheduler "z014" with entities [LocalPlayer, LocalPlayer], work=518*
375: 0x0D08 [0x45] LOAD_SCHEDULED_TASK: Load scheduler "ov40" with entities [LocalPlayer, LocalPlayer], work=[518*, 0*]
376: 0x0D19 [0x45] LOAD_SCHEDULED_TASK: Load scheduler "z015" with entities [LocalPlayer, LocalPlayer], work=[518*, 0*]
377: 0x0D2A [0x5B] LOAD_EXT_SCHEDULER: Load scheduler "sil0" with entities [Ovjang (ID: 16982215/0x010320C7), Ovjang (ID: 16982215/0x010320C7)], work=851*
378: 0x0D39 [0x2B] Ovjang (ID: 16982215/0x010320C7) [15029*]:
     "The emblem of the Kingdom of Ephramad, and the D-Dark Rider...Odin!"
379: 0x0D40 [0x23] WAIT_FOR_DIALOG_INTERACTION
380: 0x0D41 [0x5B] LOAD_EXT_SCHEDULER: Load scheduler "ude0" with entities [Mnejing (ID: 16982212/0x010320C4), Mnejing (ID: 16982212/0x010320C4)], work=905*
381: 0x0D50 [0x1C] WAIT(30* ticks)
382: 0x0D53 [0x4A] LocalPlayer looks at Mnejing (ID: 16982212/0x010320C4)
383: 0x0D5C [0x2B] Mnejing (ID: 16982212/0x010320C4) [15030*]:
     "Two images whose significance would not be lost on anyone in the Empire."
384: 0x0D63 [0x23] WAIT_FOR_DIALOG_INTERACTION
385: 0x0D64 [0x02] IF !(ExtData[1]->WorkLocal[0] == 1*) GOTO 0x0D8F
386: 0x0D6C [0x52] END_LOAD_SCHEDULER: End scheduler "z015" with entities [LocalPlayer, LocalPlayer], work=518*
387: 0x0D7B [0x45] LOAD_SCHEDULED_TASK: Load scheduler "z016" with entities [LocalPlayer, LocalPlayer], work=[518*, 0*]
388: 0x0D8C [0x01] GOTO 0x0EBC
389: 0x0D8F [0x02] IF !(ExtData[1]->WorkLocal[0] == 2*) GOTO 0x0DBA
390: 0x0D97 [0x52] END_LOAD_SCHEDULER: End scheduler "z015" with entities [LocalPlayer, LocalPlayer], work=518*
391: 0x0DA6 [0x45] LOAD_SCHEDULED_TASK: Load scheduler "z016" with entities [LocalPlayer, LocalPlayer], work=[518*, 0*]
392: 0x0DB7 [0x01] GOTO 0x0EBC
393: 0x0DBA [0x02] IF !(ExtData[1]->WorkLocal[0] == 3*) GOTO 0x0DE5
394: 0x0DC2 [0x52] END_LOAD_SCHEDULER: End scheduler "z015" with entities [LocalPlayer, LocalPlayer], work=518*
395: 0x0DD1 [0x45] LOAD_SCHEDULED_TASK: Load scheduler "zg16" with entities [LocalPlayer, LocalPlayer], work=[518*, 0*]
396: 0x0DE2 [0x01] GOTO 0x0EBC
397: 0x0DE5 [0x02] IF !(ExtData[1]->WorkLocal[0] == 4*) GOTO 0x0E10
398: 0x0DED [0x52] END_LOAD_SCHEDULER: End scheduler "z015" with entities [LocalPlayer, LocalPlayer], work=518*
399: 0x0DFC [0x45] LOAD_SCHEDULED_TASK: Load scheduler "zg16" with entities [LocalPlayer, LocalPlayer], work=[518*, 0*]
400: 0x0E0D [0x01] GOTO 0x0EBC
401: 0x0E10 [0x02] IF !(ExtData[1]->WorkLocal[0] == 5*) GOTO 0x0E3B
402: 0x0E18 [0x52] END_LOAD_SCHEDULER: End scheduler "z015" with entities [LocalPlayer, LocalPlayer], work=518*
403: 0x0E27 [0x45] LOAD_SCHEDULED_TASK: Load scheduler "zt16" with entities [LocalPlayer, LocalPlayer], work=[518*, 0*]
404: 0x0E38 [0x01] GOTO 0x0EBC
405: 0x0E3B [0x02] IF !(ExtData[1]->WorkLocal[0] == 6*) GOTO 0x0E66
406: 0x0E43 [0x52] END_LOAD_SCHEDULER: End scheduler "z015" with entities [LocalPlayer, LocalPlayer], work=518*
407: 0x0E52 [0x45] LOAD_SCHEDULED_TASK: Load scheduler "zt16" with entities [LocalPlayer, LocalPlayer], work=[518*, 0*]
408: 0x0E63 [0x01] GOTO 0x0EBC
409: 0x0E66 [0x02] IF !(ExtData[1]->WorkLocal[0] == 7*) GOTO 0x0E91
410: 0x0E6E [0x52] END_LOAD_SCHEDULER: End scheduler "z015" with entities [LocalPlayer, LocalPlayer], work=518*
411: 0x0E7D [0x45] LOAD_SCHEDULED_TASK: Load scheduler "zt16" with entities [LocalPlayer, LocalPlayer], work=[518*, 0*]
412: 0x0E8E [0x01] GOTO 0x0EBC
413: 0x0E91 [0x02] IF !(ExtData[1]->WorkLocal[0] == 8*) GOTO 0x0EBC
414: 0x0E99 [0x52] END_LOAD_SCHEDULER: End scheduler "z015" with entities [LocalPlayer, LocalPlayer], work=518*
415: 0x0EA8 [0x45] LOAD_SCHEDULED_TASK: Load scheduler "zg16" with entities [LocalPlayer, LocalPlayer], work=[518*, 0*]
416: 0x0EB9 [0x01] GOTO 0x0EBC

SUBROUTINE_0EBC:
417: 0x0EBC [0x2B] Mnejing (ID: 16982212/0x010320C4) [15031*]:
     "That Nashmeira pursues this talisman so fervently makes it clear that it is a matter of utmost import to her. And so we turn to you."
418: 0x0EC3 [0x23] WAIT_FOR_DIALOG_INTERACTION
419: 0x0EC4 [0x2B] Mnejing (ID: 16982212/0x010320C4) [15032*]:
     "<Player>. Could you track down one of these $5 and aid the Empress in her quest?"
420: 0x0ECB [0x23] WAIT_FOR_DIALOG_INTERACTION

SUBROUTINE_0ECC:
421: 0x0ECC [0x24] CREATE_DIALOG(message_id=15033*, default_option=0*, option_flags=0*)
     "Offer your aid? [It's as good as done!/Not getting involved in this...]"
422: 0x0ED3 [0x25] WAIT_DIALOG_SELECT()
423: 0x0ED4 [0x02] IF !(Work_Zone[0] == 0*) GOTO 0x0EDF
424: 0x0EDC [0x01] GOTO 0x11D2
425: 0x0EDF [0x02] IF !(Work_Zone[0] == 1*) GOTO 0x11D2
426: 0x0EE7 [0x6E] LocalPlayer uses emote 6*
427: 0x0EEE [0x99] Wait for LocalPlayer animation to complete
428: 0x0EF3 [0x1C] WAIT(90* ticks)
429: 0x0EF6 [0x5B] LOAD_EXT_SCHEDULER: Load scheduler "iya0" with entities [Ovjang (ID: 16982215/0x010320C7), Ovjang (ID: 16982215/0x010320C7)], work=906*
430: 0x0F05 [0x1C] WAIT(20* ticks)
431: 0x0F08 [0x52] END_LOAD_SCHEDULER: End scheduler "z016" with entities [LocalPlayer, LocalPlayer], work=518*
432: 0x0F17 [0x52] END_LOAD_SCHEDULER: End scheduler "zt16" with entities [LocalPlayer, LocalPlayer], work=518*
433: 0x0F26 [0x52] END_LOAD_SCHEDULER: End scheduler "zg16" with entities [LocalPlayer, LocalPlayer], work=518*
434: 0x0F35 [0x45] LOAD_SCHEDULED_TASK: Load scheduler "z017" with entities [LocalPlayer, LocalPlayer], work=[518*, 0*]
435: 0x0F46 [0x4A] LocalPlayer looks at Ovjang (ID: 16982215/0x010320C7)
436: 0x0F4F [0x1C] WAIT(140* ticks)
437: 0x0F52 [0x02] IF !(ExtData[1]->WorkLocal[0] == 5*) GOTO 0x0F8E
438: 0x0F5A [0x52] END_LOAD_SCHEDULER: End scheduler "z017" with entities [LocalPlayer, LocalPlayer], work=518*
439: 0x0F69 [0x45] LOAD_SCHEDULED_TASK: Load scheduler "0blr" with entities [LocalPlayer, LocalPlayer], work=[518*, 0*]
440: 0x0F7A [0x45] LOAD_SCHEDULED_TASK: Load scheduler "zt18" with entities [LocalPlayer, LocalPlayer], work=[518*, 0*]
441: 0x0F8B [0x01] GOTO 0x1037
442: 0x0F8E [0x02] IF !(ExtData[1]->WorkLocal[0] == 6*) GOTO 0x0FCA
443: 0x0F96 [0x52] END_LOAD_SCHEDULER: End scheduler "z017" with entities [LocalPlayer, LocalPlayer], work=518*
444: 0x0FA5 [0x45] LOAD_SCHEDULED_TASK: Load scheduler "0blr" with entities [LocalPlayer, LocalPlayer], work=[518*, 0*]
445: 0x0FB6 [0x45] LOAD_SCHEDULED_TASK: Load scheduler "zt18" with entities [LocalPlayer, LocalPlayer], work=[518*, 0*]
446: 0x0FC7 [0x01] GOTO 0x1037
447: 0x0FCA [0x02] IF !(ExtData[1]->WorkLocal[0] == 7*) GOTO 0x1006
448: 0x0FD2 [0x52] END_LOAD_SCHEDULER: End scheduler "z017" with entities [LocalPlayer, LocalPlayer], work=518*
449: 0x0FE1 [0x45] LOAD_SCHEDULED_TASK: Load scheduler "0blr" with entities [LocalPlayer, LocalPlayer], work=[518*, 0*]
450: 0x0FF2 [0x45] LOAD_SCHEDULED_TASK: Load scheduler "zt18" with entities [LocalPlayer, LocalPlayer], work=[518*, 0*]
451: 0x1003 [0x01] GOTO 0x1037
452: 0x1006 [0x52] END_LOAD_SCHEDULER: End scheduler "z017" with entities [LocalPlayer, LocalPlayer], work=518*
453: 0x1015 [0x45] LOAD_SCHEDULED_TASK: Load scheduler "0blr" with entities [LocalPlayer, LocalPlayer], work=[518*, 0*]
454: 0x1026 [0x45] LOAD_SCHEDULED_TASK: Load scheduler "z018" with entities [LocalPlayer, LocalPlayer], work=[518*, 0*]

SUBROUTINE_1037:
455: 0x1037 [0x6E] LocalPlayer uses emote 21*
456: 0x103E [0x99] Wait for LocalPlayer animation to complete
457: 0x1043 [0x1C] WAIT(60* ticks)
458: 0x1046 [0x5B] LOAD_EXT_SCHEDULER: Load scheduler "thk0" with entities [Ovjang (ID: 16982215/0x010320C7), Ovjang (ID: 16982215/0x010320C7)], work=858*
459: 0x1055 [0x2B] Ovjang (ID: 16982215/0x010320C7) [15034*]:
     "Mmm-hmmm-mmm-hmmmmmh..."
460: 0x105C [0x23] WAIT_FOR_DIALOG_INTERACTION
461: 0x105D [0x2B] Ovjang (ID: 16982215/0x010320C7) [15035*]:
     "Pardon me, my bolts seem to be a bit creaky. I think I misheard you just now...?"
462: 0x1064 [0x23] WAIT_FOR_DIALOG_INTERACTION
463: 0x1065 [0x5B] LOAD_EXT_SCHEDULER: Load scheduler "thk1" with entities [Ovjang (ID: 16982215/0x010320C7), Ovjang (ID: 16982215/0x010320C7)], work=858*
464: 0x1074 [0x02] IF !(ExtData[1]->WorkLocal[0] == 1*) GOTO 0x109F
465: 0x107C [0x52] END_LOAD_SCHEDULER: End scheduler "z018" with entities [LocalPlayer, LocalPlayer], work=518*
466: 0x108B [0x45] LOAD_SCHEDULED_TASK: Load scheduler "z016" with entities [LocalPlayer, LocalPlayer], work=[518*, 0*]
467: 0x109C [0x01] GOTO 0x11CC
468: 0x109F [0x02] IF !(ExtData[1]->WorkLocal[0] == 2*) GOTO 0x10CA
469: 0x10A7 [0x52] END_LOAD_SCHEDULER: End scheduler "z018" with entities [LocalPlayer, LocalPlayer], work=518*
470: 0x10B6 [0x45] LOAD_SCHEDULED_TASK: Load scheduler "z016" with entities [LocalPlayer, LocalPlayer], work=[518*, 0*]
471: 0x10C7 [0x01] GOTO 0x11CC
472: 0x10CA [0x02] IF !(ExtData[1]->WorkLocal[0] == 3*) GOTO 0x10F5
473: 0x10D2 [0x52] END_LOAD_SCHEDULER: End scheduler "z018" with entities [LocalPlayer, LocalPlayer], work=518*
474: 0x10E1 [0x45] LOAD_SCHEDULED_TASK: Load scheduler "zg16" with entities [LocalPlayer, LocalPlayer], work=[518*, 0*]
475: 0x10F2 [0x01] GOTO 0x11CC
