# 16982220 - Nashmeira

## Common Data

| Field            | Value                          |
|------------------|--------------------------------|
| Zone             | Aht Urhgan Whitegate2 (ID: 50) |
| Block Size       | 1960 bytes                     |
| Total Events     | 101                            |
| References Count | 54                             |

## List of Events

| Event ID                   | Entrypoint   |   Size |   Instructions |
|----------------------------|--------------|--------|----------------|
| [65535](#event-65535)      | 0x0000       |      1 |              1 |
| [65535.1](#event-655351)   | 0x0001       |      1 |              1 |
| [65535.2](#event-655352)   | 0x0002       |     18 |              4 |
| [65535.3](#event-655353)   | 0x0014       |     10 |              2 |
| [65535.4](#event-655354)   | 0x001E       |      9 |              3 |
| [65535.5](#event-655355)   | 0x0027       |      9 |              3 |
| [65535.6](#event-655356)   | 0x0030       |     10 |              2 |
| [65535.7](#event-655357)   | 0x003A       |     10 |              2 |
| [3138](#event-3138)        | 0x0044       |      1 |              1 |
| [65535.8](#event-655358)   | 0x0045       |     22 |              8 |
| [65535.9](#event-655359)   | 0x005B       |     22 |              8 |
| [3140](#event-3140)        | 0x0071       |      7 |              2 |
| [65535.10](#event-6553510) | 0x0078       |     24 |              6 |
| [65535.11](#event-6553511) | 0x0090       |     14 |              4 |
| [65535.12](#event-6553512) | 0x009E       |     45 |              6 |
| [65535.13](#event-6553513) | 0x00CB       |     17 |              4 |
| [3215](#event-3215)        | 0x00DC       |      1 |              1 |
| [3216](#event-3216)        | 0x00DD       |      1 |              1 |
| [926](#event-926)          | 0x00DE       |      1 |              1 |
| [927](#event-927)          | 0x00DF       |      1 |              1 |
| [928](#event-928)          | 0x00E0       |      1 |              1 |
| [931](#event-931)          | 0x00E1       |      1 |              1 |
| [65535.14](#event-6553514) | 0x00E2       |     18 |              2 |
| [65535.15](#event-6553515) | 0x00F4       |     16 |              2 |
| [65535.16](#event-6553516) | 0x0104       |     14 |              2 |
| [65535.17](#event-6553517) | 0x0112       |     16 |              2 |
| [65535.18](#event-6553518) | 0x0122       |     14 |              2 |
| [65535.19](#event-6553519) | 0x0130       |     16 |              2 |
| [65535.20](#event-6553520) | 0x0140       |     14 |              2 |
| [65535.21](#event-6553521) | 0x014E       |     16 |              2 |
| [65535.22](#event-6553522) | 0x015E       |     14 |              2 |
| [65535.23](#event-6553523) | 0x016C       |     16 |              2 |
| [65535.24](#event-6553524) | 0x017C       |     14 |              2 |
| [65535.25](#event-6553525) | 0x018A       |     16 |              2 |
| [65535.26](#event-6553526) | 0x019A       |     14 |              2 |
| [65535.27](#event-6553527) | 0x01A8       |     16 |              2 |
| [65535.28](#event-6553528) | 0x01B8       |     14 |              2 |
| [65535.29](#event-6553529) | 0x01C6       |     16 |              2 |
| [65535.30](#event-6553530) | 0x01D6       |     14 |              2 |
| [65535.31](#event-6553531) | 0x01E4       |     16 |              2 |
| [65535.32](#event-6553532) | 0x01F4       |     14 |              2 |
| [65535.33](#event-6553533) | 0x0202       |     16 |              2 |
| [65535.34](#event-6553534) | 0x0212       |     14 |              2 |
| [65535.35](#event-6553535) | 0x0220       |     16 |              2 |
| [65535.36](#event-6553536) | 0x0230       |     14 |              2 |
| [65535.37](#event-6553537) | 0x023E       |     16 |              2 |
| [65535.38](#event-6553538) | 0x024E       |     14 |              2 |
| [65535.39](#event-6553539) | 0x025C       |     16 |              2 |
| [65535.40](#event-6553540) | 0x026C       |     14 |              2 |
| [65535.41](#event-6553541) | 0x027A       |     16 |              2 |
| [65535.42](#event-6553542) | 0x028A       |     14 |              2 |
| [65535.43](#event-6553543) | 0x0298       |     16 |              2 |
| [65535.44](#event-6553544) | 0x02A8       |     14 |              2 |
| [65535.45](#event-6553545) | 0x02B6       |     16 |              2 |
| [65535.46](#event-6553546) | 0x02C6       |     14 |              2 |
| [65535.47](#event-6553547) | 0x02D4       |     16 |              2 |
| [65535.48](#event-6553548) | 0x02E4       |     14 |              2 |
| [65535.49](#event-6553549) | 0x02F2       |     16 |              2 |
| [65535.50](#event-6553550) | 0x0302       |     14 |              2 |
| [65535.51](#event-6553551) | 0x0310       |     16 |              2 |
| [65535.52](#event-6553552) | 0x0320       |     14 |              2 |
| [65535.53](#event-6553553) | 0x032E       |     22 |              3 |
| [65535.54](#event-6553554) | 0x0344       |     14 |              2 |
| [65535.55](#event-6553555) | 0x0352       |     16 |              2 |
| [65535.56](#event-6553556) | 0x0362       |     20 |              3 |
| [65535.57](#event-6553557) | 0x0376       |     22 |              3 |
| [65535.58](#event-6553558) | 0x038C       |     14 |              2 |
| [65535.59](#event-6553559) | 0x039A       |     16 |              2 |
| [65535.60](#event-6553560) | 0x03AA       |     20 |              3 |
| [65535.61](#event-6553561) | 0x03BE       |     16 |              2 |
| [65535.62](#event-6553562) | 0x03CE       |     14 |              2 |
| [65535.63](#event-6553563) | 0x03DC       |     16 |              2 |
| [65535.64](#event-6553564) | 0x03EC       |     14 |              2 |
| [5092](#event-5092)        | 0x03FA       |      1 |              1 |
| [65535.65](#event-6553565) | 0x03FB       |     10 |              2 |
| [65535.66](#event-6553566) | 0x0405       |     14 |              4 |
| [934](#event-934)          | 0x0413       |      1 |              1 |
| [935](#event-935)          | 0x0414       |      1 |              1 |
| [937](#event-937)          | 0x0415       |      1 |              1 |
| [938](#event-938)          | 0x0416       |      1 |              1 |
| [939](#event-939)          | 0x0417       |      1 |              1 |
| [943](#event-943)          | 0x0418       |      1 |              1 |
| [944](#event-944)          | 0x0419       |      1 |              1 |
| [945](#event-945)          | 0x041A       |      1 |              1 |
| [65535.67](#event-6553567) | 0x041B       |     10 |              2 |
| [65535.68](#event-6553568) | 0x0425       |     10 |              2 |
| [65535.69](#event-6553569) | 0x042F       |     15 |              5 |
| [65535.70](#event-6553570) | 0x043E       |     30 |              8 |
| [65535.71](#event-6553571) | 0x045C       |     15 |              5 |
| [65535.72](#event-6553572) | 0x046B       |     34 |              6 |
| [65535.73](#event-6553573) | 0x048D       |     15 |              5 |
| [65535.74](#event-6553574) | 0x049C       |     24 |              6 |
| [178](#event-178)          | 0x04B4       |      7 |              2 |
| [65535.75](#event-6553575) | 0x04BB       |     15 |              5 |
| [65535.76](#event-6553576) | 0x04CA       |     15 |              5 |
| [179](#event-179)          | 0x04D9       |      7 |              2 |
| [194](#event-194)          | 0x04E0       |      7 |              2 |
| [65535.77](#event-6553577) | 0x04E7       |     15 |              5 |
| [65535.78](#event-6553578) | 0x04F6       |     22 |              8 |
| [65535.79](#event-6553579) | 0x050C       |     15 |              5 |
| [65535.80](#event-6553580) | 0x051B       |     15 |              5 |

## DAT References (imed_data)

|   Index | Hex Value   |   Dec Value |
|---------|-------------|-------------|
|       0 | 0x0000      |           0 |
|       1 | 0x0001      |           1 |
|       2 | 0x0080      |         128 |
|       3 | 0x000B      |          11 |
|       4 | 0x628D      |       25229 |
|       5 | 0xFFFF556E  |  4294923630 |
|       6 | 0xFFFFE184  |  4294959492 |
|       7 | 0x000A      |          10 |
|       8 | 0x6466      |       25702 |
|       9 | 0xFFFF50BF  |  4294922431 |
|      10 | 0x000D      |          13 |
|      11 | 0xFFFFFFE6  |  4294967270 |
|      12 | 0xC15A      |       49498 |
|      13 | 0x03F1      |        1009 |
|      14 | 0x003C      |          60 |
|      15 | 0xFFFFE6BB  |  4294960827 |
|      16 | 0xC1DD      |       49629 |
|      17 | 0x037B      |         891 |
|      18 | 0x0086      |         134 |
|      19 | 0x0399      |         921 |
|      20 | 0x039E      |         926 |
|      21 | 0x03A0      |         928 |
|      22 | 0x0434      |        1076 |
|      23 | 0x046D      |        1133 |
|      24 | 0x046E      |        1134 |
|      25 | 0xFFFFFEB1  |  4294966961 |
|      26 | 0xC427      |       50215 |
|      27 | 0x0418      |        1048 |
|      28 | 0xB988      |       47496 |
|      29 | 0xFFFFFAE3  |  4294965987 |
|      30 | 0xFFFFB1B6  |  4294947254 |
|      31 | 0x0025      |          37 |
|      32 | 0x0143      |         323 |
|      33 | 0xFFFFA1D9  |  4294943193 |
|      34 | 0xFFFFFD38  |  4294966584 |
|      35 | 0xFFFF8BF6  |  4294937590 |
|      36 | 0x0011      |          17 |
|      37 | 0xC048      |       49224 |
|      38 | 0x005A      |          90 |
|      39 | 0x008C      |         140 |
|      40 | 0x000C      |          12 |
|      41 | 0xFFFFFCE7  |  4294966503 |
|      42 | 0xBF21      |       48929 |
|      43 | 0xFFFFF5CD  |  4294964685 |
|      44 | 0xC01D      |       49181 |
|      45 | 0xFFFFD838  |  4294957112 |
|      46 | 0xD0D6      |       53462 |
|      47 | 0xBD72      |       48498 |
|      48 | 0xB5A2      |       46498 |
|      49 | 0xBB80      |       48000 |
|      50 | 0xBF68      |       49000 |
|      51 | 0xFFFFFED4  |  4294966996 |
|      52 | 0xBDD8      |       48600 |
|      53 | 0xB220      |       45600 |

## Events

### Event 65535

#### Metadata

| Field        | Value   |
|--------------|---------|
| Entrypoint   | 0x0000  |
| Data Size    | 1 bytes |
| Instructions | 1       |

```
      00 01 02 03 04 05 06 07  08 09 0A 0B 0C 0D 0E 0F
      -- -- -- -- -- -- -- --  -- -- -- -- -- -- -- --
0000: 00                                                .               
```

#### Opcodes

```
  0: 0x0000 [0x00] END_REQSTACK()
```

### Event 65535.1

#### Metadata

| Field        | Value   |
|--------------|---------|
| Entrypoint   | 0x0001  |
| Data Size    | 1 bytes |
| Instructions | 1       |

```
      00 01 02 03 04 05 06 07  08 09 0A 0B 0C 0D 0E 0F
      -- -- -- -- -- -- -- --  -- -- -- -- -- -- -- --
0000:    00                                              .              
```

#### Opcodes

```
  0: 0x0001 [0x00] END_REQSTACK()
```

### Event 65535.2

#### Metadata

| Field        | Value    |
|--------------|----------|
| Entrypoint   | 0x0002   |
| Data Size    | 18 bytes |
| Instructions | 4        |

```
      00 01 02 03 04 05 06 07  08 09 0A 0B 0C 0D 0E 0F
      -- -- -- -- -- -- -- --  -- -- -- -- -- -- -- --
0000:       22 00 2F 00 F8 FF  FF 7F 6C F8 FF FF 7F 00    "./.....l.....
0010: 80 01 80 00                                       ....            
```

#### Opcodes

```
  0: 0x0002 [0x22] ENTITY_HIDE_FLAG(enabled=0x00)
  1: 0x0004 [0x2F] EventEntity->Render.Flags0 &= ~0x80000 // Bit 19
  2: 0x000A [0x6C] FADE_ENTITY_COLOR(entity_id=EventEntity, end_alpha=0*, fade_time=1*)
  3: 0x0013 [0x00] END_REQSTACK()
```

### Event 65535.3

#### Metadata

| Field        | Value    |
|--------------|----------|
| Entrypoint   | 0x0014   |
| Data Size    | 10 bytes |
| Instructions | 2        |

```
      00 01 02 03 04 05 06 07  08 09 0A 0B 0C 0D 0E 0F
      -- -- -- -- -- -- -- --  -- -- -- -- -- -- -- --
0010:             6C F8 FF FF  7F 02 80 01 80 00            l.........  
```

#### Opcodes

```
  0: 0x0014 [0x6C] FADE_ENTITY_COLOR(entity_id=EventEntity, end_alpha=128*, fade_time=1*)
  1: 0x001D [0x00] END_REQSTACK()
```

### Event 65535.4

#### Metadata

| Field        | Value   |
|--------------|---------|
| Entrypoint   | 0x001E  |
| Data Size    | 9 bytes |
| Instructions | 3       |

```
      00 01 02 03 04 05 06 07  08 09 0A 0B 0C 0D 0E 0F
      -- -- -- -- -- -- -- --  -- -- -- -- -- -- -- --
0010:                                            22 00                ".
0020: 2F 00 F8 FF FF 7F 00                              /......         
```

#### Opcodes

```
  0: 0x001E [0x22] ENTITY_HIDE_FLAG(enabled=0x00)
  1: 0x0020 [0x2F] EventEntity->Render.Flags0 &= ~0x80000 // Bit 19
  2: 0x0026 [0x00] END_REQSTACK()
```

### Event 65535.5

#### Metadata

| Field        | Value   |
|--------------|---------|
| Entrypoint   | 0x0027  |
| Data Size    | 9 bytes |
| Instructions | 3       |

```
      00 01 02 03 04 05 06 07  08 09 0A 0B 0C 0D 0E 0F
      -- -- -- -- -- -- -- --  -- -- -- -- -- -- -- --
0020:                      22  01 2F 01 F8 FF FF 7F 00         "./......
```

#### Opcodes

```
  0: 0x0027 [0x22] ENTITY_HIDE_FLAG(enabled=0x01)
  1: 0x0029 [0x2F] EventEntity->Render.Flags0 |= 0x80000 // Bit 19
  2: 0x002F [0x00] END_REQSTACK()
```

### Event 65535.6

#### Metadata

| Field        | Value    |
|--------------|----------|
| Entrypoint   | 0x0030   |
| Data Size    | 10 bytes |
| Instructions | 2        |

```
      00 01 02 03 04 05 06 07  08 09 0A 0B 0C 0D 0E 0F
      -- -- -- -- -- -- -- --  -- -- -- -- -- -- -- --
0030: 6C F8 FF FF 7F 00 80 01  80 00                    l.........      
```

#### Opcodes

```
  0: 0x0030 [0x6C] FADE_ENTITY_COLOR(entity_id=EventEntity, end_alpha=0*, fade_time=1*)
  1: 0x0039 [0x00] END_REQSTACK()
```

### Event 65535.7

#### Metadata

| Field        | Value    |
|--------------|----------|
| Entrypoint   | 0x003A   |
| Data Size    | 10 bytes |
| Instructions | 2        |

```
      00 01 02 03 04 05 06 07  08 09 0A 0B 0C 0D 0E 0F
      -- -- -- -- -- -- -- --  -- -- -- -- -- -- -- --
0030:                                6C F8 FF FF 7F 02            l.....
0040: 80 01 80 00                                       ....            
```

#### Opcodes

```
  0: 0x003A [0x6C] FADE_ENTITY_COLOR(entity_id=EventEntity, end_alpha=128*, fade_time=1*)
  1: 0x0043 [0x00] END_REQSTACK()
```

### Event 3138

#### Metadata

| Field        | Value   |
|--------------|---------|
| Entrypoint   | 0x0044  |
| Data Size    | 1 bytes |
| Instructions | 1       |

```
      00 01 02 03 04 05 06 07  08 09 0A 0B 0C 0D 0E 0F
      -- -- -- -- -- -- -- --  -- -- -- -- -- -- -- --
0040:             00                                        .           
```

#### Opcodes

```
  0: 0x0044 [0x00] END_REQSTACK()
```

### Event 65535.8

#### Metadata

| Field        | Value    |
|--------------|----------|
| Entrypoint   | 0x0045   |
| Data Size    | 22 bytes |
| Instructions | 8        |

```
      00 01 02 03 04 05 06 07  08 09 0A 0B 0C 0D 0E 0F
      -- -- -- -- -- -- -- --  -- -- -- -- -- -- -- --
0040:                32 03 80  1F 00 04 80 05 80 06 80       2..........
0050: 1F 01 6F 1E 8D 20 03 01  6F 70 00                 ..o.. ..op.     
```

#### Opcodes

```
  0: 0x0045 [0x32] ExtData[1]->MainSpeed = 11* * 0.1
  1: 0x0048 [0x1F] MOVE_ENTITY: EventEntity moves to X=25.229*, Z=-43.666*, Y=-7.804*
  2: 0x0050 [0x1F] MOVE_ENTITY: Update entity position (mode=1)
  3: 0x0052 [0x6F] WAIT_FRAME_DELAY: Yield until WaitTime reaches zero
  4: 0x0053 [0x1E] EventEntity looks at Abquhbah (ID: 16982157/0x0103208D) and starts talking
  5: 0x0058 [0x6F] WAIT_FRAME_DELAY: Yield until WaitTime reaches zero
  6: 0x0059 [0x70] WAIT_ENTITY_RENDER_FLAG: Wait while EventEntity->Render.Flags3 bit 2 is set (cancel turn if not)
  7: 0x005A [0x00] END_REQSTACK()
```

### Event 65535.9

#### Metadata

| Field        | Value    |
|--------------|----------|
| Entrypoint   | 0x005B   |
| Data Size    | 22 bytes |
| Instructions | 8        |

```
      00 01 02 03 04 05 06 07  08 09 0A 0B 0C 0D 0E 0F
      -- -- -- -- -- -- -- --  -- -- -- -- -- -- -- --
0050:                                   32 07 80 1F 00             2....
0060: 08 80 09 80 06 80 1F 01  6F 1E F0 FF FF 7F 6F 70  ........o.....op
0070: 00                                                .               
```

#### Opcodes

```
  0: 0x005B [0x32] ExtData[1]->MainSpeed = 10* * 0.1
  1: 0x005E [0x1F] MOVE_ENTITY: EventEntity moves to X=25.702*, Z=-44.865*, Y=-7.804*
  2: 0x0066 [0x1F] MOVE_ENTITY: Update entity position (mode=1)
  3: 0x0068 [0x6F] WAIT_FRAME_DELAY: Yield until WaitTime reaches zero
  4: 0x0069 [0x1E] EventEntity looks at LocalPlayer and starts talking
  5: 0x006E [0x6F] WAIT_FRAME_DELAY: Yield until WaitTime reaches zero
  6: 0x006F [0x70] WAIT_ENTITY_RENDER_FLAG: Wait while EventEntity->Render.Flags3 bit 2 is set (cancel turn if not)
  7: 0x0070 [0x00] END_REQSTACK()
```

### Event 3140

#### Metadata

| Field        | Value   |
|--------------|---------|
| Entrypoint   | 0x0071  |
| Data Size    | 7 bytes |
| Instructions | 2       |

```
      00 01 02 03 04 05 06 07  08 09 0A 0B 0C 0D 0E 0F
      -- -- -- -- -- -- -- --  -- -- -- -- -- -- -- --
0070:    92 01 F8 FF FF 7F 00                            .......        
```

#### Opcodes

```
  0: 0x0071 [0x92] EventEntity->Render.Flags3 ^= 0x01
  1: 0x0077 [0x00] END_REQSTACK()
```

### Event 65535.10

#### Metadata

| Field        | Value    |
|--------------|----------|
| Entrypoint   | 0x0078   |
| Data Size    | 24 bytes |
| Instructions | 6        |

```
      00 01 02 03 04 05 06 07  08 09 0A 0B 0C 0D 0E 0F
      -- -- -- -- -- -- -- --  -- -- -- -- -- -- -- --
0070:                          32 0A 80 1F 00 0B 80 0C          2.......
0080: 80 00 80 1F 01 4B F8 FF  FF 7F 0D 80 1C 0E 80 00  .....K..........
```

#### Opcodes

```
  0: 0x0078 [0x32] ExtData[1]->MainSpeed = 13* * 0.1
  1: 0x007B [0x1F] MOVE_ENTITY: EventEntity moves to X=-0.026*, Z=49.498*, Y=0.000*
  2: 0x0083 [0x1F] MOVE_ENTITY: Update entity position (mode=1)
  3: 0x0085 [0x4B] UPDATE_ENTITY_YAW(entity=EventEntity, yaw=5.5°*)
  4: 0x008C [0x1C] WAIT(60* ticks)
  5: 0x008F [0x00] END_REQSTACK()
```

### Event 65535.11

#### Metadata

| Field        | Value    |
|--------------|----------|
| Entrypoint   | 0x0090   |
| Data Size    | 14 bytes |
| Instructions | 4        |

```
      00 01 02 03 04 05 06 07  08 09 0A 0B 0C 0D 0E 0F
      -- -- -- -- -- -- -- --  -- -- -- -- -- -- -- --
0090: 32 0A 80 1F 00 0F 80 10  80 00 80 1F 01 00        2.............  
```

#### Opcodes

```
  0: 0x0090 [0x32] ExtData[1]->MainSpeed = 13* * 0.1
  1: 0x0093 [0x1F] MOVE_ENTITY: EventEntity moves to X=-6.469*, Z=49.629*, Y=0.000*
  2: 0x009B [0x1F] MOVE_ENTITY: Update entity position (mode=1)
  3: 0x009D [0x00] END_REQSTACK()
```

### Event 65535.12

#### Metadata

| Field        | Value    |
|--------------|----------|
| Entrypoint   | 0x009E   |
| Data Size    | 45 bytes |
| Instructions | 6        |

```
      00 01 02 03 04 05 06 07  08 09 0A 0B 0C 0D 0E 0F
      -- -- -- -- -- -- -- --  -- -- -- -- -- -- -- --
0090:                                            1C 0E                ..
00A0: 80 5B 11 80 CC 20 03 01  CC 20 03 01 74 6C 6B 31  .[... ... ..tlk1
00B0: 53 CC 20 03 01 CC 20 03  01 74 6C 6B 31 79 00 CC  S. ... ..tlk1y..
00C0: 20 03 01 E4 20 03 01 1C  0E 80 00                  ... ......     
```

#### Opcodes

```
  0: 0x009E [0x1C] WAIT(60* ticks)
  1: 0x00A1 [0x5B] LOAD_EXT_SCHEDULER: Load scheduler "tlk1" with entities [Nashmeira (ID: 16982220/0x010320CC), Nashmeira (ID: 16982220/0x010320CC)], work=891*
  2: 0x00B0 [0x53] WAIT_SCHEDULER_TASK: Wait for scheduler "tlk1" with entities [Nashmeira (ID: 16982220/0x010320CC), Nashmeira (ID: 16982220/0x010320CC)]
  3: 0x00BD [0x79] Nashmeira (ID: 16982220/0x010320CC) looks at Wolfgang (ID: 16982244/0x010320E4) (Basic look)
  4: 0x00C7 [0x1C] WAIT(60* ticks)
  5: 0x00CA [0x00] END_REQSTACK()
```

### Event 65535.13

#### Metadata

| Field        | Value    |
|--------------|----------|
| Entrypoint   | 0x00CB   |
| Data Size    | 17 bytes |
| Instructions | 4        |

```
      00 01 02 03 04 05 06 07  08 09 0A 0B 0C 0D 0E 0F
      -- -- -- -- -- -- -- --  -- -- -- -- -- -- -- --
00C0:                                   1C 0E 80 79 00             ...y.
00D0: CC 20 03 01 F0 FF FF 7F  1C 0E 80 00              . ..........    
```

#### Opcodes

```
  0: 0x00CB [0x1C] WAIT(60* ticks)
  1: 0x00CE [0x79] Nashmeira (ID: 16982220/0x010320CC) looks at LocalPlayer (Basic look)
  2: 0x00D8 [0x1C] WAIT(60* ticks)
  3: 0x00DB [0x00] END_REQSTACK()
```

### Event 3215

#### Metadata

| Field        | Value   |
|--------------|---------|
| Entrypoint   | 0x00DC  |
| Data Size    | 1 bytes |
| Instructions | 1       |

```
      00 01 02 03 04 05 06 07  08 09 0A 0B 0C 0D 0E 0F
      -- -- -- -- -- -- -- --  -- -- -- -- -- -- -- --
00D0:                                      00                       .   
```

#### Opcodes

```
  0: 0x00DC [0x00] END_REQSTACK()
```

### Event 3216

#### Metadata

| Field        | Value   |
|--------------|---------|
| Entrypoint   | 0x00DD  |
| Data Size    | 1 bytes |
| Instructions | 1       |

```
      00 01 02 03 04 05 06 07  08 09 0A 0B 0C 0D 0E 0F
      -- -- -- -- -- -- -- --  -- -- -- -- -- -- -- --
00D0:                                         00                     .  
```

#### Opcodes

```
  0: 0x00DD [0x00] END_REQSTACK()
```

### Event 926

#### Metadata

| Field        | Value   |
|--------------|---------|
| Entrypoint   | 0x00DE  |
| Data Size    | 1 bytes |
| Instructions | 1       |

```
      00 01 02 03 04 05 06 07  08 09 0A 0B 0C 0D 0E 0F
      -- -- -- -- -- -- -- --  -- -- -- -- -- -- -- --
00D0:                                            00                   . 
```

#### Opcodes

```
  0: 0x00DE [0x00] END_REQSTACK()
```

### Event 927

#### Metadata

| Field        | Value   |
|--------------|---------|
| Entrypoint   | 0x00DF  |
| Data Size    | 1 bytes |
| Instructions | 1       |

```
      00 01 02 03 04 05 06 07  08 09 0A 0B 0C 0D 0E 0F
      -- -- -- -- -- -- -- --  -- -- -- -- -- -- -- --
00D0:                                               00                 .
```

#### Opcodes

```
  0: 0x00DF [0x00] END_REQSTACK()
```

### Event 928

#### Metadata

| Field        | Value   |
|--------------|---------|
| Entrypoint   | 0x00E0  |
| Data Size    | 1 bytes |
| Instructions | 1       |

```
      00 01 02 03 04 05 06 07  08 09 0A 0B 0C 0D 0E 0F
      -- -- -- -- -- -- -- --  -- -- -- -- -- -- -- --
00E0: 00                                                .               
```

#### Opcodes

```
  0: 0x00E0 [0x00] END_REQSTACK()
```

### Event 931

#### Metadata

| Field        | Value   |
|--------------|---------|
| Entrypoint   | 0x00E1  |
| Data Size    | 1 bytes |
| Instructions | 1       |

```
      00 01 02 03 04 05 06 07  08 09 0A 0B 0C 0D 0E 0F
      -- -- -- -- -- -- -- --  -- -- -- -- -- -- -- --
00E0:    00                                              .              
```

#### Opcodes

```
  0: 0x00E1 [0x00] END_REQSTACK()
```

### Event 65535.14

#### Metadata

| Field        | Value    |
|--------------|----------|
| Entrypoint   | 0x00E2   |
| Data Size    | 18 bytes |
| Instructions | 2        |

```
      00 01 02 03 04 05 06 07  08 09 0A 0B 0C 0D 0E 0F
      -- -- -- -- -- -- -- --  -- -- -- -- -- -- -- --
00E0:       BB 12 80 CC 20 03  01 CC 20 03 01 73 30 30    .... ... ..s00
00F0: 33 00 80 00                                       3...            
```

#### Opcodes

```
  0: 0x00E2 [0xBB] LOAD_EVENT_SCHEDULER_ALT: Load scheduler "s003" with entities [Nashmeira (ID: 16982220/0x010320CC), Nashmeira (ID: 16982220/0x010320CC)], work=[134*, 0*]
  1: 0x00F3 [0x00] END_REQSTACK()
```

### Event 65535.15

#### Metadata

| Field        | Value    |
|--------------|----------|
| Entrypoint   | 0x00F4   |
| Data Size    | 16 bytes |
| Instructions | 2        |

```
      00 01 02 03 04 05 06 07  08 09 0A 0B 0C 0D 0E 0F
      -- -- -- -- -- -- -- --  -- -- -- -- -- -- -- --
00F0:             5B 11 80 F8  FF FF 7F F8 FF FF 7F 74      [..........t
0100: 6C 6B 30 00                                       lk0.            
```

#### Opcodes

```
  0: 0x00F4 [0x5B] LOAD_EXT_SCHEDULER: Load scheduler "tlk0" with entities [EventEntity, EventEntity], work=891*
  1: 0x0103 [0x00] END_REQSTACK()
```

### Event 65535.16

#### Metadata

| Field        | Value    |
|--------------|----------|
| Entrypoint   | 0x0104   |
| Data Size    | 14 bytes |
| Instructions | 2        |

```
      00 01 02 03 04 05 06 07  08 09 0A 0B 0C 0D 0E 0F
      -- -- -- -- -- -- -- --  -- -- -- -- -- -- -- --
0100:             53 F8 FF FF  7F F8 FF FF 7F 74 6C 6B      S........tlk
0110: 30 00                                             0.              
```

#### Opcodes

```
  0: 0x0104 [0x53] WAIT_SCHEDULER_TASK: Wait for scheduler "tlk0" with entities [EventEntity, EventEntity]
  1: 0x0111 [0x00] END_REQSTACK()
```

### Event 65535.17

#### Metadata

| Field        | Value    |
|--------------|----------|
| Entrypoint   | 0x0112   |
| Data Size    | 16 bytes |
| Instructions | 2        |

```
      00 01 02 03 04 05 06 07  08 09 0A 0B 0C 0D 0E 0F
      -- -- -- -- -- -- -- --  -- -- -- -- -- -- -- --
0110:       5B 11 80 F8 FF FF  7F F8 FF FF 7F 74 6C 6B    [..........tlk
0120: 31 00                                             1.              
```

#### Opcodes

```
  0: 0x0112 [0x5B] LOAD_EXT_SCHEDULER: Load scheduler "tlk1" with entities [EventEntity, EventEntity], work=891*
  1: 0x0121 [0x00] END_REQSTACK()
```

### Event 65535.18

#### Metadata

| Field        | Value    |
|--------------|----------|
| Entrypoint   | 0x0122   |
| Data Size    | 14 bytes |
| Instructions | 2        |

```
      00 01 02 03 04 05 06 07  08 09 0A 0B 0C 0D 0E 0F
      -- -- -- -- -- -- -- --  -- -- -- -- -- -- -- --
0120:       53 F8 FF FF 7F F8  FF FF 7F 74 6C 6B 31 00    S........tlk1.
```

#### Opcodes

```
  0: 0x0122 [0x53] WAIT_SCHEDULER_TASK: Wait for scheduler "tlk1" with entities [EventEntity, EventEntity]
  1: 0x012F [0x00] END_REQSTACK()
```

### Event 65535.19

#### Metadata

| Field        | Value    |
|--------------|----------|
| Entrypoint   | 0x0130   |
| Data Size    | 16 bytes |
| Instructions | 2        |

```
      00 01 02 03 04 05 06 07  08 09 0A 0B 0C 0D 0E 0F
      -- -- -- -- -- -- -- --  -- -- -- -- -- -- -- --
0130: 5B 11 80 F8 FF FF 7F F8  FF FF 7F 74 68 6B 30 00  [..........thk0.
```

#### Opcodes

```
  0: 0x0130 [0x5B] LOAD_EXT_SCHEDULER: Load scheduler "thk0" with entities [EventEntity, EventEntity], work=891*
  1: 0x013F [0x00] END_REQSTACK()
```

### Event 65535.20

#### Metadata

| Field        | Value    |
|--------------|----------|
| Entrypoint   | 0x0140   |
| Data Size    | 14 bytes |
| Instructions | 2        |

```
      00 01 02 03 04 05 06 07  08 09 0A 0B 0C 0D 0E 0F
      -- -- -- -- -- -- -- --  -- -- -- -- -- -- -- --
0140: 53 F8 FF FF 7F F8 FF FF  7F 74 68 6B 30 00        S........thk0.  
```

#### Opcodes

```
  0: 0x0140 [0x53] WAIT_SCHEDULER_TASK: Wait for scheduler "thk0" with entities [EventEntity, EventEntity]
  1: 0x014D [0x00] END_REQSTACK()
```

### Event 65535.21

#### Metadata

| Field        | Value    |
|--------------|----------|
| Entrypoint   | 0x014E   |
| Data Size    | 16 bytes |
| Instructions | 2        |

```
      00 01 02 03 04 05 06 07  08 09 0A 0B 0C 0D 0E 0F
      -- -- -- -- -- -- -- --  -- -- -- -- -- -- -- --
0140:                                            5B 11                [.
0150: 80 F8 FF FF 7F F8 FF FF  7F 74 68 6B 31 00        .........thk1.  
```

#### Opcodes

```
  0: 0x014E [0x5B] LOAD_EXT_SCHEDULER: Load scheduler "thk1" with entities [EventEntity, EventEntity], work=891*
  1: 0x015D [0x00] END_REQSTACK()
```

### Event 65535.22

#### Metadata

| Field        | Value    |
|--------------|----------|
| Entrypoint   | 0x015E   |
| Data Size    | 14 bytes |
| Instructions | 2        |

```
      00 01 02 03 04 05 06 07  08 09 0A 0B 0C 0D 0E 0F
      -- -- -- -- -- -- -- --  -- -- -- -- -- -- -- --
0150:                                            53 F8                S.
0160: FF FF 7F F8 FF FF 7F 74  68 6B 31 00              .......thk1.    
```

#### Opcodes

```
  0: 0x015E [0x53] WAIT_SCHEDULER_TASK: Wait for scheduler "thk1" with entities [EventEntity, EventEntity]
  1: 0x016B [0x00] END_REQSTACK()
```

### Event 65535.23

#### Metadata

| Field        | Value    |
|--------------|----------|
| Entrypoint   | 0x016C   |
| Data Size    | 16 bytes |
| Instructions | 2        |

```
      00 01 02 03 04 05 06 07  08 09 0A 0B 0C 0D 0E 0F
      -- -- -- -- -- -- -- --  -- -- -- -- -- -- -- --
0160:                                      5B 11 80 F8              [...
0170: FF FF 7F F8 FF FF 7F 70  61 73 30 00              .......pas0.    
```

#### Opcodes

```
  0: 0x016C [0x5B] LOAD_EXT_SCHEDULER: Load scheduler "pas0" with entities [EventEntity, EventEntity], work=891*
  1: 0x017B [0x00] END_REQSTACK()
```

### Event 65535.24

#### Metadata

| Field        | Value    |
|--------------|----------|
| Entrypoint   | 0x017C   |
| Data Size    | 14 bytes |
| Instructions | 2        |

```
      00 01 02 03 04 05 06 07  08 09 0A 0B 0C 0D 0E 0F
      -- -- -- -- -- -- -- --  -- -- -- -- -- -- -- --
0170:                                      53 F8 FF FF              S...
0180: 7F F8 FF FF 7F 70 61 73  30 00                    .....pas0.      
```

#### Opcodes

```
  0: 0x017C [0x53] WAIT_SCHEDULER_TASK: Wait for scheduler "pas0" with entities [EventEntity, EventEntity]
  1: 0x0189 [0x00] END_REQSTACK()
```

### Event 65535.25

#### Metadata

| Field        | Value    |
|--------------|----------|
| Entrypoint   | 0x018A   |
| Data Size    | 16 bytes |
| Instructions | 2        |

```
      00 01 02 03 04 05 06 07  08 09 0A 0B 0C 0D 0E 0F
      -- -- -- -- -- -- -- --  -- -- -- -- -- -- -- --
0180:                                5B 13 80 F8 FF FF            [.....
0190: 7F F8 FF FF 7F 74 6C 62  30 00                    .....tlb0.      
```

#### Opcodes

```
  0: 0x018A [0x5B] LOAD_EXT_SCHEDULER: Load scheduler "tlb0" with entities [EventEntity, EventEntity], work=921*
  1: 0x0199 [0x00] END_REQSTACK()
```

### Event 65535.26

#### Metadata

| Field        | Value    |
|--------------|----------|
| Entrypoint   | 0x019A   |
| Data Size    | 14 bytes |
| Instructions | 2        |

```
      00 01 02 03 04 05 06 07  08 09 0A 0B 0C 0D 0E 0F
      -- -- -- -- -- -- -- --  -- -- -- -- -- -- -- --
0190:                                53 F8 FF FF 7F F8            S.....
01A0: FF FF 7F 74 6C 62 30 00                           ...tlb0.        
```

#### Opcodes

```
  0: 0x019A [0x53] WAIT_SCHEDULER_TASK: Wait for scheduler "tlb0" with entities [EventEntity, EventEntity]
  1: 0x01A7 [0x00] END_REQSTACK()
```

### Event 65535.27

#### Metadata

| Field        | Value    |
|--------------|----------|
| Entrypoint   | 0x01A8   |
| Data Size    | 16 bytes |
| Instructions | 2        |

```
      00 01 02 03 04 05 06 07  08 09 0A 0B 0C 0D 0E 0F
      -- -- -- -- -- -- -- --  -- -- -- -- -- -- -- --
01A0:                          5B 13 80 F8 FF FF 7F F8          [.......
01B0: FF FF 7F 74 6C 62 31 00                           ...tlb1.        
```

#### Opcodes

```
  0: 0x01A8 [0x5B] LOAD_EXT_SCHEDULER: Load scheduler "tlb1" with entities [EventEntity, EventEntity], work=921*
  1: 0x01B7 [0x00] END_REQSTACK()
```

### Event 65535.28

#### Metadata

| Field        | Value    |
|--------------|----------|
| Entrypoint   | 0x01B8   |
| Data Size    | 14 bytes |
| Instructions | 2        |

```
      00 01 02 03 04 05 06 07  08 09 0A 0B 0C 0D 0E 0F
      -- -- -- -- -- -- -- --  -- -- -- -- -- -- -- --
01B0:                          53 F8 FF FF 7F F8 FF FF          S.......
01C0: 7F 74 6C 62 31 00                                 .tlb1.          
```

#### Opcodes

```
  0: 0x01B8 [0x53] WAIT_SCHEDULER_TASK: Wait for scheduler "tlb1" with entities [EventEntity, EventEntity]
  1: 0x01C5 [0x00] END_REQSTACK()
```

### Event 65535.29

#### Metadata

| Field        | Value    |
|--------------|----------|
| Entrypoint   | 0x01C6   |
| Data Size    | 16 bytes |
| Instructions | 2        |

```
      00 01 02 03 04 05 06 07  08 09 0A 0B 0C 0D 0E 0F
      -- -- -- -- -- -- -- --  -- -- -- -- -- -- -- --
01C0:                   5B 13  80 F8 FF FF 7F F8 FF FF        [.........
01D0: 7F 74 6C 63 30 00                                 .tlc0.          
```

#### Opcodes

```
  0: 0x01C6 [0x5B] LOAD_EXT_SCHEDULER: Load scheduler "tlc0" with entities [EventEntity, EventEntity], work=921*
  1: 0x01D5 [0x00] END_REQSTACK()
```

### Event 65535.30

#### Metadata

| Field        | Value    |
|--------------|----------|
| Entrypoint   | 0x01D6   |
| Data Size    | 14 bytes |
| Instructions | 2        |

```
      00 01 02 03 04 05 06 07  08 09 0A 0B 0C 0D 0E 0F
      -- -- -- -- -- -- -- --  -- -- -- -- -- -- -- --
01D0:                   53 F8  FF FF 7F F8 FF FF 7F 74        S........t
01E0: 6C 63 30 00                                       lc0.            
```

#### Opcodes

```
  0: 0x01D6 [0x53] WAIT_SCHEDULER_TASK: Wait for scheduler "tlc0" with entities [EventEntity, EventEntity]
  1: 0x01E3 [0x00] END_REQSTACK()
```

### Event 65535.31

#### Metadata

| Field        | Value    |
|--------------|----------|
| Entrypoint   | 0x01E4   |
| Data Size    | 16 bytes |
| Instructions | 2        |

```
      00 01 02 03 04 05 06 07  08 09 0A 0B 0C 0D 0E 0F
      -- -- -- -- -- -- -- --  -- -- -- -- -- -- -- --
01E0:             5B 13 80 F8  FF FF 7F F8 FF FF 7F 74      [..........t
01F0: 6C 63 31 00                                       lc1.            
```

#### Opcodes

```
  0: 0x01E4 [0x5B] LOAD_EXT_SCHEDULER: Load scheduler "tlc1" with entities [EventEntity, EventEntity], work=921*
  1: 0x01F3 [0x00] END_REQSTACK()
```

### Event 65535.32

#### Metadata

| Field        | Value    |
|--------------|----------|
| Entrypoint   | 0x01F4   |
| Data Size    | 14 bytes |
| Instructions | 2        |

```
      00 01 02 03 04 05 06 07  08 09 0A 0B 0C 0D 0E 0F
      -- -- -- -- -- -- -- --  -- -- -- -- -- -- -- --
01F0:             53 F8 FF FF  7F F8 FF FF 7F 74 6C 63      S........tlc
0200: 31 00                                             1.              
```

#### Opcodes

```
  0: 0x01F4 [0x53] WAIT_SCHEDULER_TASK: Wait for scheduler "tlc1" with entities [EventEntity, EventEntity]
  1: 0x0201 [0x00] END_REQSTACK()
```

### Event 65535.33

#### Metadata

| Field        | Value    |
|--------------|----------|
| Entrypoint   | 0x0202   |
| Data Size    | 16 bytes |
| Instructions | 2        |

```
      00 01 02 03 04 05 06 07  08 09 0A 0B 0C 0D 0E 0F
      -- -- -- -- -- -- -- --  -- -- -- -- -- -- -- --
0200:       5B 14 80 F8 FF FF  7F F8 FF FF 7F 79 65 73    [..........yes
0210: 30 00                                             0.              
```

#### Opcodes

```
  0: 0x0202 [0x5B] LOAD_EXT_SCHEDULER: Load scheduler "yes0" with entities [EventEntity, EventEntity], work=926*
  1: 0x0211 [0x00] END_REQSTACK()
```

### Event 65535.34

#### Metadata

| Field        | Value    |
|--------------|----------|
| Entrypoint   | 0x0212   |
| Data Size    | 14 bytes |
| Instructions | 2        |

```
      00 01 02 03 04 05 06 07  08 09 0A 0B 0C 0D 0E 0F
      -- -- -- -- -- -- -- --  -- -- -- -- -- -- -- --
0210:       53 F8 FF FF 7F F8  FF FF 7F 79 65 73 30 00    S........yes0.
```

#### Opcodes

```
  0: 0x0212 [0x53] WAIT_SCHEDULER_TASK: Wait for scheduler "yes0" with entities [EventEntity, EventEntity]
  1: 0x021F [0x00] END_REQSTACK()
```

### Event 65535.35

#### Metadata

| Field        | Value    |
|--------------|----------|
| Entrypoint   | 0x0220   |
| Data Size    | 16 bytes |
| Instructions | 2        |

```
      00 01 02 03 04 05 06 07  08 09 0A 0B 0C 0D 0E 0F
      -- -- -- -- -- -- -- --  -- -- -- -- -- -- -- --
0220: 5B 14 80 F8 FF FF 7F F8  FF FF 7F 6E 6F 30 30 00  [..........no00.
```

#### Opcodes

```
  0: 0x0220 [0x5B] LOAD_EXT_SCHEDULER: Load scheduler "no00" with entities [EventEntity, EventEntity], work=926*
  1: 0x022F [0x00] END_REQSTACK()
```

### Event 65535.36

#### Metadata

| Field        | Value    |
|--------------|----------|
| Entrypoint   | 0x0230   |
| Data Size    | 14 bytes |
| Instructions | 2        |

```
      00 01 02 03 04 05 06 07  08 09 0A 0B 0C 0D 0E 0F
      -- -- -- -- -- -- -- --  -- -- -- -- -- -- -- --
0230: 53 F8 FF FF 7F F8 FF FF  7F 6E 6F 30 30 00        S........no00.  
```

#### Opcodes

```
  0: 0x0230 [0x53] WAIT_SCHEDULER_TASK: Wait for scheduler "no00" with entities [EventEntity, EventEntity]
  1: 0x023D [0x00] END_REQSTACK()
```

### Event 65535.37

#### Metadata

| Field        | Value    |
|--------------|----------|
| Entrypoint   | 0x023E   |
| Data Size    | 16 bytes |
| Instructions | 2        |

```
      00 01 02 03 04 05 06 07  08 09 0A 0B 0C 0D 0E 0F
      -- -- -- -- -- -- -- --  -- -- -- -- -- -- -- --
0230:                                            5B 14                [.
0240: 80 F8 FF FF 7F F8 FF FF  7F 69 79 61 30 00        .........iya0.  
```

#### Opcodes

```
  0: 0x023E [0x5B] LOAD_EXT_SCHEDULER: Load scheduler "iya0" with entities [EventEntity, EventEntity], work=926*
  1: 0x024D [0x00] END_REQSTACK()
```

### Event 65535.38

#### Metadata

| Field        | Value    |
|--------------|----------|
| Entrypoint   | 0x024E   |
| Data Size    | 14 bytes |
| Instructions | 2        |

```
      00 01 02 03 04 05 06 07  08 09 0A 0B 0C 0D 0E 0F
      -- -- -- -- -- -- -- --  -- -- -- -- -- -- -- --
0240:                                            53 F8                S.
0250: FF FF 7F F8 FF FF 7F 69  79 61 30 00              .......iya0.    
```

#### Opcodes

```
  0: 0x024E [0x53] WAIT_SCHEDULER_TASK: Wait for scheduler "iya0" with entities [EventEntity, EventEntity]
  1: 0x025B [0x00] END_REQSTACK()
```

### Event 65535.39

#### Metadata

| Field        | Value    |
|--------------|----------|
| Entrypoint   | 0x025C   |
| Data Size    | 16 bytes |
| Instructions | 2        |

```
      00 01 02 03 04 05 06 07  08 09 0A 0B 0C 0D 0E 0F
      -- -- -- -- -- -- -- --  -- -- -- -- -- -- -- --
0250:                                      5B 14 80 F8              [...
0260: FF FF 7F F8 FF FF 7F 74  75 6E 30 00              .......tun0.    
```

#### Opcodes

```
  0: 0x025C [0x5B] LOAD_EXT_SCHEDULER: Load scheduler "tun0" with entities [EventEntity, EventEntity], work=926*
  1: 0x026B [0x00] END_REQSTACK()
```

### Event 65535.40

#### Metadata

| Field        | Value    |
|--------------|----------|
| Entrypoint   | 0x026C   |
| Data Size    | 14 bytes |
| Instructions | 2        |

```
      00 01 02 03 04 05 06 07  08 09 0A 0B 0C 0D 0E 0F
      -- -- -- -- -- -- -- --  -- -- -- -- -- -- -- --
0260:                                      53 F8 FF FF              S...
0270: 7F F8 FF FF 7F 74 75 6E  30 00                    .....tun0.      
```

#### Opcodes

```
  0: 0x026C [0x53] WAIT_SCHEDULER_TASK: Wait for scheduler "tun0" with entities [EventEntity, EventEntity]
  1: 0x0279 [0x00] END_REQSTACK()
```

### Event 65535.41

#### Metadata

| Field        | Value    |
|--------------|----------|
| Entrypoint   | 0x027A   |
| Data Size    | 16 bytes |
| Instructions | 2        |

```
      00 01 02 03 04 05 06 07  08 09 0A 0B 0C 0D 0E 0F
      -- -- -- -- -- -- -- --  -- -- -- -- -- -- -- --
0270:                                5B 14 80 F8 FF FF            [.....
0280: 7F F8 FF FF 7F 74 75 6E  31 00                    .....tun1.      
```

#### Opcodes

```
  0: 0x027A [0x5B] LOAD_EXT_SCHEDULER: Load scheduler "tun1" with entities [EventEntity, EventEntity], work=926*
  1: 0x0289 [0x00] END_REQSTACK()
```

### Event 65535.42

#### Metadata

| Field        | Value    |
|--------------|----------|
| Entrypoint   | 0x028A   |
| Data Size    | 14 bytes |
| Instructions | 2        |

```
      00 01 02 03 04 05 06 07  08 09 0A 0B 0C 0D 0E 0F
      -- -- -- -- -- -- -- --  -- -- -- -- -- -- -- --
0280:                                53 F8 FF FF 7F F8            S.....
0290: FF FF 7F 74 75 6E 31 00                           ...tun1.        
```

#### Opcodes

```
  0: 0x028A [0x53] WAIT_SCHEDULER_TASK: Wait for scheduler "tun1" with entities [EventEntity, EventEntity]
  1: 0x0297 [0x00] END_REQSTACK()
```

### Event 65535.43

#### Metadata

| Field        | Value    |
|--------------|----------|
| Entrypoint   | 0x0298   |
| Data Size    | 16 bytes |
| Instructions | 2        |

```
      00 01 02 03 04 05 06 07  08 09 0A 0B 0C 0D 0E 0F
      -- -- -- -- -- -- -- --  -- -- -- -- -- -- -- --
0290:                          5B 15 80 F8 FF FF 7F F8          [.......
02A0: FF FF 7F 66 77 61 30 00                           ...fwa0.        
```

#### Opcodes

```
  0: 0x0298 [0x5B] LOAD_EXT_SCHEDULER: Load scheduler "fwa0" with entities [EventEntity, EventEntity], work=928*
  1: 0x02A7 [0x00] END_REQSTACK()
```

### Event 65535.44

#### Metadata

| Field        | Value    |
|--------------|----------|
| Entrypoint   | 0x02A8   |
| Data Size    | 14 bytes |
| Instructions | 2        |

```
      00 01 02 03 04 05 06 07  08 09 0A 0B 0C 0D 0E 0F
      -- -- -- -- -- -- -- --  -- -- -- -- -- -- -- --
02A0:                          53 F8 FF FF 7F F8 FF FF          S.......
02B0: 7F 66 77 61 30 00                                 .fwa0.          
```

#### Opcodes

```
  0: 0x02A8 [0x53] WAIT_SCHEDULER_TASK: Wait for scheduler "fwa0" with entities [EventEntity, EventEntity]
  1: 0x02B5 [0x00] END_REQSTACK()
```

### Event 65535.45

#### Metadata

| Field        | Value    |
|--------------|----------|
| Entrypoint   | 0x02B6   |
| Data Size    | 16 bytes |
| Instructions | 2        |

```
      00 01 02 03 04 05 06 07  08 09 0A 0B 0C 0D 0E 0F
      -- -- -- -- -- -- -- --  -- -- -- -- -- -- -- --
02B0:                   5B 15  80 F8 FF FF 7F F8 FF FF        [.........
02C0: 7F 6E 65 6D 30 00                                 .nem0.          
```

#### Opcodes

```
  0: 0x02B6 [0x5B] LOAD_EXT_SCHEDULER: Load scheduler "nem0" with entities [EventEntity, EventEntity], work=928*
  1: 0x02C5 [0x00] END_REQSTACK()
```

### Event 65535.46

#### Metadata

| Field        | Value    |
|--------------|----------|
| Entrypoint   | 0x02C6   |
| Data Size    | 14 bytes |
| Instructions | 2        |

```
      00 01 02 03 04 05 06 07  08 09 0A 0B 0C 0D 0E 0F
      -- -- -- -- -- -- -- --  -- -- -- -- -- -- -- --
02C0:                   53 F8  FF FF 7F F8 FF FF 7F 6E        S........n
02D0: 65 6D 30 00                                       em0.            
```

#### Opcodes

```
  0: 0x02C6 [0x53] WAIT_SCHEDULER_TASK: Wait for scheduler "nem0" with entities [EventEntity, EventEntity]
  1: 0x02D3 [0x00] END_REQSTACK()
```

### Event 65535.47

#### Metadata

| Field        | Value    |
|--------------|----------|
| Entrypoint   | 0x02D4   |
| Data Size    | 16 bytes |
| Instructions | 2        |

```
      00 01 02 03 04 05 06 07  08 09 0A 0B 0C 0D 0E 0F
      -- -- -- -- -- -- -- --  -- -- -- -- -- -- -- --
02D0:             5B 15 80 F8  FF FF 7F F8 FF FF 7F 6E      [..........n
02E0: 65 6D 31 00                                       em1.            
```

#### Opcodes

```
  0: 0x02D4 [0x5B] LOAD_EXT_SCHEDULER: Load scheduler "nem1" with entities [EventEntity, EventEntity], work=928*
  1: 0x02E3 [0x00] END_REQSTACK()
```

### Event 65535.48

#### Metadata

| Field        | Value    |
|--------------|----------|
| Entrypoint   | 0x02E4   |
| Data Size    | 14 bytes |
| Instructions | 2        |

```
      00 01 02 03 04 05 06 07  08 09 0A 0B 0C 0D 0E 0F
      -- -- -- -- -- -- -- --  -- -- -- -- -- -- -- --
02E0:             53 F8 FF FF  7F F8 FF FF 7F 6E 65 6D      S........nem
02F0: 31 00                                             1.              
```

#### Opcodes

```
  0: 0x02E4 [0x53] WAIT_SCHEDULER_TASK: Wait for scheduler "nem1" with entities [EventEntity, EventEntity]
  1: 0x02F1 [0x00] END_REQSTACK()
```

### Event 65535.49

#### Metadata

| Field        | Value    |
|--------------|----------|
| Entrypoint   | 0x02F2   |
| Data Size    | 16 bytes |
| Instructions | 2        |

```
      00 01 02 03 04 05 06 07  08 09 0A 0B 0C 0D 0E 0F
      -- -- -- -- -- -- -- --  -- -- -- -- -- -- -- --
02F0:       5B 16 80 F8 FF FF  7F F8 FF FF 7F 74 6C 64    [..........tld
0300: 30 00                                             0.              
```

#### Opcodes

```
  0: 0x02F2 [0x5B] LOAD_EXT_SCHEDULER: Load scheduler "tld0" with entities [EventEntity, EventEntity], work=1076*
  1: 0x0301 [0x00] END_REQSTACK()
```

### Event 65535.50

#### Metadata

| Field        | Value    |
|--------------|----------|
| Entrypoint   | 0x0302   |
| Data Size    | 14 bytes |
| Instructions | 2        |

```
      00 01 02 03 04 05 06 07  08 09 0A 0B 0C 0D 0E 0F
      -- -- -- -- -- -- -- --  -- -- -- -- -- -- -- --
0300:       53 F8 FF FF 7F F8  FF FF 7F 74 6C 64 30 00    S........tld0.
```

#### Opcodes

```
  0: 0x0302 [0x53] WAIT_SCHEDULER_TASK: Wait for scheduler "tld0" with entities [EventEntity, EventEntity]
  1: 0x030F [0x00] END_REQSTACK()
```

### Event 65535.51

#### Metadata

| Field        | Value    |
|--------------|----------|
| Entrypoint   | 0x0310   |
| Data Size    | 16 bytes |
| Instructions | 2        |

```
      00 01 02 03 04 05 06 07  08 09 0A 0B 0C 0D 0E 0F
      -- -- -- -- -- -- -- --  -- -- -- -- -- -- -- --
0310: 5B 16 80 F8 FF FF 7F F8  FF FF 7F 74 6C 64 31 00  [..........tld1.
```

#### Opcodes

```
  0: 0x0310 [0x5B] LOAD_EXT_SCHEDULER: Load scheduler "tld1" with entities [EventEntity, EventEntity], work=1076*
  1: 0x031F [0x00] END_REQSTACK()
```

### Event 65535.52

#### Metadata

| Field        | Value    |
|--------------|----------|
| Entrypoint   | 0x0320   |
| Data Size    | 14 bytes |
| Instructions | 2        |

```
      00 01 02 03 04 05 06 07  08 09 0A 0B 0C 0D 0E 0F
      -- -- -- -- -- -- -- --  -- -- -- -- -- -- -- --
0320: 53 F8 FF FF 7F F8 FF FF  7F 74 6C 64 31 00        S........tld1.  
```

#### Opcodes

```
  0: 0x0320 [0x53] WAIT_SCHEDULER_TASK: Wait for scheduler "tld1" with entities [EventEntity, EventEntity]
  1: 0x032D [0x00] END_REQSTACK()
```

### Event 65535.53

#### Metadata

| Field        | Value    |
|--------------|----------|
| Entrypoint   | 0x032E   |
| Data Size    | 22 bytes |
| Instructions | 3        |

```
      00 01 02 03 04 05 06 07  08 09 0A 0B 0C 0D 0E 0F
      -- -- -- -- -- -- -- --  -- -- -- -- -- -- -- --
0320:                                            81 00                ..
0330: F8 FF FF 7F 5B 17 80 F8  FF FF 7F F8 FF FF 7F 75  ....[..........u
0340: 74 75 30 00                                       tu0.            
```

#### Opcodes

```
  0: 0x032E [0x81] SET_ENTITY_BLINKING(blink_flag=0x00, entity=EventEntity)
  1: 0x0334 [0x5B] LOAD_EXT_SCHEDULER: Load scheduler "utu0" with entities [EventEntity, EventEntity], work=1133*
  2: 0x0343 [0x00] END_REQSTACK()
```

### Event 65535.54

#### Metadata

| Field        | Value    |
|--------------|----------|
| Entrypoint   | 0x0344   |
| Data Size    | 14 bytes |
| Instructions | 2        |

```
      00 01 02 03 04 05 06 07  08 09 0A 0B 0C 0D 0E 0F
      -- -- -- -- -- -- -- --  -- -- -- -- -- -- -- --
0340:             53 F8 FF FF  7F F8 FF FF 7F 75 74 75      S........utu
0350: 30 00                                             0.              
```

#### Opcodes

```
  0: 0x0344 [0x53] WAIT_SCHEDULER_TASK: Wait for scheduler "utu0" with entities [EventEntity, EventEntity]
  1: 0x0351 [0x00] END_REQSTACK()
```

### Event 65535.55

#### Metadata

| Field        | Value    |
|--------------|----------|
| Entrypoint   | 0x0352   |
| Data Size    | 16 bytes |
| Instructions | 2        |

```
      00 01 02 03 04 05 06 07  08 09 0A 0B 0C 0D 0E 0F
      -- -- -- -- -- -- -- --  -- -- -- -- -- -- -- --
0350:       5B 17 80 F8 FF FF  7F F8 FF FF 7F 75 74 75    [..........utu
0360: 31 00                                             1.              
```

#### Opcodes

```
  0: 0x0352 [0x5B] LOAD_EXT_SCHEDULER: Load scheduler "utu1" with entities [EventEntity, EventEntity], work=1133*
  1: 0x0361 [0x00] END_REQSTACK()
```

### Event 65535.56

#### Metadata

| Field        | Value    |
|--------------|----------|
| Entrypoint   | 0x0362   |
| Data Size    | 20 bytes |
| Instructions | 3        |

```
      00 01 02 03 04 05 06 07  08 09 0A 0B 0C 0D 0E 0F
      -- -- -- -- -- -- -- --  -- -- -- -- -- -- -- --
0360:       53 F8 FF FF 7F F8  FF FF 7F 75 74 75 31 81    S........utu1.
0370: 01 F8 FF FF 7F 00                                 ......          
```

#### Opcodes

```
  0: 0x0362 [0x53] WAIT_SCHEDULER_TASK: Wait for scheduler "utu1" with entities [EventEntity, EventEntity]
  1: 0x036F [0x81] SET_ENTITY_BLINKING(blink_flag=0x01, entity=EventEntity)
  2: 0x0375 [0x00] END_REQSTACK()
```

### Event 65535.57

#### Metadata

| Field        | Value    |
|--------------|----------|
| Entrypoint   | 0x0376   |
| Data Size    | 22 bytes |
| Instructions | 3        |

```
      00 01 02 03 04 05 06 07  08 09 0A 0B 0C 0D 0E 0F
      -- -- -- -- -- -- -- --  -- -- -- -- -- -- -- --
0370:                   81 00  F8 FF FF 7F 5B 18 80 F8        ......[...
0380: FF FF 7F F8 FF FF 7F 6B  6F 75 30 00              .......kou0.    
```

#### Opcodes

```
  0: 0x0376 [0x81] SET_ENTITY_BLINKING(blink_flag=0x00, entity=EventEntity)
  1: 0x037C [0x5B] LOAD_EXT_SCHEDULER: Load scheduler "kou0" with entities [EventEntity, EventEntity], work=1134*
  2: 0x038B [0x00] END_REQSTACK()
```

### Event 65535.58

#### Metadata

| Field        | Value    |
|--------------|----------|
| Entrypoint   | 0x038C   |
| Data Size    | 14 bytes |
| Instructions | 2        |

```
      00 01 02 03 04 05 06 07  08 09 0A 0B 0C 0D 0E 0F
      -- -- -- -- -- -- -- --  -- -- -- -- -- -- -- --
0380:                                      53 F8 FF FF              S...
0390: 7F F8 FF FF 7F 6B 6F 75  30 00                    .....kou0.      
```

#### Opcodes

```
  0: 0x038C [0x53] WAIT_SCHEDULER_TASK: Wait for scheduler "kou0" with entities [EventEntity, EventEntity]
  1: 0x0399 [0x00] END_REQSTACK()
```

### Event 65535.59

#### Metadata

| Field        | Value    |
|--------------|----------|
| Entrypoint   | 0x039A   |
| Data Size    | 16 bytes |
| Instructions | 2        |

```
      00 01 02 03 04 05 06 07  08 09 0A 0B 0C 0D 0E 0F
      -- -- -- -- -- -- -- --  -- -- -- -- -- -- -- --
0390:                                5B 17 80 F8 FF FF            [.....
03A0: 7F F8 FF FF 7F 6B 6F 75  31 00                    .....kou1.      
```

#### Opcodes

```
  0: 0x039A [0x5B] LOAD_EXT_SCHEDULER: Load scheduler "kou1" with entities [EventEntity, EventEntity], work=1133*
  1: 0x03A9 [0x00] END_REQSTACK()
```

### Event 65535.60

#### Metadata

| Field        | Value    |
|--------------|----------|
| Entrypoint   | 0x03AA   |
| Data Size    | 20 bytes |
| Instructions | 3        |

```
      00 01 02 03 04 05 06 07  08 09 0A 0B 0C 0D 0E 0F
      -- -- -- -- -- -- -- --  -- -- -- -- -- -- -- --
03A0:                                53 F8 FF FF 7F F8            S.....
03B0: FF FF 7F 6B 6F 75 31 81  01 F8 FF FF 7F 00        ...kou1.......  
```

#### Opcodes

```
  0: 0x03AA [0x53] WAIT_SCHEDULER_TASK: Wait for scheduler "kou1" with entities [EventEntity, EventEntity]
  1: 0x03B7 [0x81] SET_ENTITY_BLINKING(blink_flag=0x01, entity=EventEntity)
  2: 0x03BD [0x00] END_REQSTACK()
```

### Event 65535.61

#### Metadata

| Field        | Value    |
|--------------|----------|
| Entrypoint   | 0x03BE   |
| Data Size    | 16 bytes |
| Instructions | 2        |

```
      00 01 02 03 04 05 06 07  08 09 0A 0B 0C 0D 0E 0F
      -- -- -- -- -- -- -- --  -- -- -- -- -- -- -- --
03B0:                                            5B 16                [.
03C0: 80 F8 FF FF 7F F8 FF FF  7F 74 6C 65 30 00        .........tle0.  
```

#### Opcodes

```
  0: 0x03BE [0x5B] LOAD_EXT_SCHEDULER: Load scheduler "tle0" with entities [EventEntity, EventEntity], work=1076*
  1: 0x03CD [0x00] END_REQSTACK()
```

### Event 65535.62

#### Metadata

| Field        | Value    |
|--------------|----------|
| Entrypoint   | 0x03CE   |
| Data Size    | 14 bytes |
| Instructions | 2        |

```
      00 01 02 03 04 05 06 07  08 09 0A 0B 0C 0D 0E 0F
      -- -- -- -- -- -- -- --  -- -- -- -- -- -- -- --
03C0:                                            53 F8                S.
03D0: FF FF 7F F8 FF FF 7F 74  6C 65 30 00              .......tle0.    
```

#### Opcodes

```
  0: 0x03CE [0x53] WAIT_SCHEDULER_TASK: Wait for scheduler "tle0" with entities [EventEntity, EventEntity]
  1: 0x03DB [0x00] END_REQSTACK()
```

### Event 65535.63

#### Metadata

| Field        | Value    |
|--------------|----------|
| Entrypoint   | 0x03DC   |
| Data Size    | 16 bytes |
| Instructions | 2        |

```
      00 01 02 03 04 05 06 07  08 09 0A 0B 0C 0D 0E 0F
      -- -- -- -- -- -- -- --  -- -- -- -- -- -- -- --
03D0:                                      5B 16 80 F8              [...
03E0: FF FF 7F F8 FF FF 7F 74  6C 65 31 00              .......tle1.    
```

#### Opcodes

```
  0: 0x03DC [0x5B] LOAD_EXT_SCHEDULER: Load scheduler "tle1" with entities [EventEntity, EventEntity], work=1076*
  1: 0x03EB [0x00] END_REQSTACK()
```

### Event 65535.64

#### Metadata

| Field        | Value    |
|--------------|----------|
| Entrypoint   | 0x03EC   |
| Data Size    | 14 bytes |
| Instructions | 2        |

```
      00 01 02 03 04 05 06 07  08 09 0A 0B 0C 0D 0E 0F
      -- -- -- -- -- -- -- --  -- -- -- -- -- -- -- --
03E0:                                      53 F8 FF FF              S...
03F0: 7F F8 FF FF 7F 74 6C 65  31 00                    .....tle1.      
```

#### Opcodes

```
  0: 0x03EC [0x53] WAIT_SCHEDULER_TASK: Wait for scheduler "tle1" with entities [EventEntity, EventEntity]
  1: 0x03F9 [0x00] END_REQSTACK()
```

### Event 5092

#### Metadata

| Field        | Value   |
|--------------|---------|
| Entrypoint   | 0x03FA  |
| Data Size    | 1 bytes |
| Instructions | 1       |

```
      00 01 02 03 04 05 06 07  08 09 0A 0B 0C 0D 0E 0F
      -- -- -- -- -- -- -- --  -- -- -- -- -- -- -- --
03F0:                                00                           .     
```

#### Opcodes

```
  0: 0x03FA [0x00] END_REQSTACK()
```

### Event 65535.65

#### Metadata

| Field        | Value    |
|--------------|----------|
| Entrypoint   | 0x03FB   |
| Data Size    | 10 bytes |
| Instructions | 2        |

```
      00 01 02 03 04 05 06 07  08 09 0A 0B 0C 0D 0E 0F
      -- -- -- -- -- -- -- --  -- -- -- -- -- -- -- --
03F0:                                   37 19 80 1A 80             7....
0400: 00 80 1B 80 00                                    .....           
```

#### Opcodes

```
  0: 0x03FB [0x37] UPDATE_EVENT_POSITION_AND_DIR: x=-0.335*, z=50.215*, y=0.000*, direction=92.1°*
  1: 0x0404 [0x00] END_REQSTACK()
```

### Event 65535.66

#### Metadata

| Field        | Value    |
|--------------|----------|
| Entrypoint   | 0x0405   |
| Data Size    | 14 bytes |
| Instructions | 4        |

```
      00 01 02 03 04 05 06 07  08 09 0A 0B 0C 0D 0E 0F
      -- -- -- -- -- -- -- --  -- -- -- -- -- -- -- --
0400:                32 0A 80  1F 00 19 80 1C 80 00 80       2..........
0410: 1F 01 00                                          ...             
```

#### Opcodes

```
  0: 0x0405 [0x32] ExtData[1]->MainSpeed = 13* * 0.1
  1: 0x0408 [0x1F] MOVE_ENTITY: EventEntity moves to X=-0.335*, Z=47.496*, Y=0.000*
  2: 0x0410 [0x1F] MOVE_ENTITY: Update entity position (mode=1)
  3: 0x0412 [0x00] END_REQSTACK()
```

### Event 934

#### Metadata

| Field        | Value   |
|--------------|---------|
| Entrypoint   | 0x0413  |
| Data Size    | 1 bytes |
| Instructions | 1       |

```
      00 01 02 03 04 05 06 07  08 09 0A 0B 0C 0D 0E 0F
      -- -- -- -- -- -- -- --  -- -- -- -- -- -- -- --
0410:          00                                          .            
```

#### Opcodes

```
  0: 0x0413 [0x00] END_REQSTACK()
```

### Event 935

#### Metadata

| Field        | Value   |
|--------------|---------|
| Entrypoint   | 0x0414  |
| Data Size    | 1 bytes |
| Instructions | 1       |

```
      00 01 02 03 04 05 06 07  08 09 0A 0B 0C 0D 0E 0F
      -- -- -- -- -- -- -- --  -- -- -- -- -- -- -- --
0410:             00                                        .           
```

#### Opcodes

```
  0: 0x0414 [0x00] END_REQSTACK()
```

### Event 937

#### Metadata

| Field        | Value   |
|--------------|---------|
| Entrypoint   | 0x0415  |
| Data Size    | 1 bytes |
| Instructions | 1       |

```
      00 01 02 03 04 05 06 07  08 09 0A 0B 0C 0D 0E 0F
      -- -- -- -- -- -- -- --  -- -- -- -- -- -- -- --
0410:                00                                      .          
```

#### Opcodes

```
  0: 0x0415 [0x00] END_REQSTACK()
```

### Event 938

#### Metadata

| Field        | Value   |
|--------------|---------|
| Entrypoint   | 0x0416  |
| Data Size    | 1 bytes |
| Instructions | 1       |

```
      00 01 02 03 04 05 06 07  08 09 0A 0B 0C 0D 0E 0F
      -- -- -- -- -- -- -- --  -- -- -- -- -- -- -- --
0410:                   00                                    .         
```

#### Opcodes

```
  0: 0x0416 [0x00] END_REQSTACK()
```

### Event 939

#### Metadata

| Field        | Value   |
|--------------|---------|
| Entrypoint   | 0x0417  |
| Data Size    | 1 bytes |
| Instructions | 1       |

```
      00 01 02 03 04 05 06 07  08 09 0A 0B 0C 0D 0E 0F
      -- -- -- -- -- -- -- --  -- -- -- -- -- -- -- --
0410:                      00                                  .        
```

#### Opcodes

```
  0: 0x0417 [0x00] END_REQSTACK()
```

### Event 943

#### Metadata

| Field        | Value   |
|--------------|---------|
| Entrypoint   | 0x0418  |
| Data Size    | 1 bytes |
| Instructions | 1       |

```
      00 01 02 03 04 05 06 07  08 09 0A 0B 0C 0D 0E 0F
      -- -- -- -- -- -- -- --  -- -- -- -- -- -- -- --
0410:                          00                               .       
```

#### Opcodes

```
  0: 0x0418 [0x00] END_REQSTACK()
```

### Event 944

#### Metadata

| Field        | Value   |
|--------------|---------|
| Entrypoint   | 0x0419  |
| Data Size    | 1 bytes |
| Instructions | 1       |

```
      00 01 02 03 04 05 06 07  08 09 0A 0B 0C 0D 0E 0F
      -- -- -- -- -- -- -- --  -- -- -- -- -- -- -- --
0410:                             00                             .      
```

#### Opcodes

```
  0: 0x0419 [0x00] END_REQSTACK()
```

### Event 945

#### Metadata

| Field        | Value   |
|--------------|---------|
| Entrypoint   | 0x041A  |
| Data Size    | 1 bytes |
| Instructions | 1       |

```
      00 01 02 03 04 05 06 07  08 09 0A 0B 0C 0D 0E 0F
      -- -- -- -- -- -- -- --  -- -- -- -- -- -- -- --
0410:                                00                           .     
```

#### Opcodes

```
  0: 0x041A [0x00] END_REQSTACK()
```

### Event 65535.67

#### Metadata

| Field        | Value    |
|--------------|----------|
| Entrypoint   | 0x041B   |
| Data Size    | 10 bytes |
| Instructions | 2        |

```
      00 01 02 03 04 05 06 07  08 09 0A 0B 0C 0D 0E 0F
      -- -- -- -- -- -- -- --  -- -- -- -- -- -- -- --
0410:                                   6C F8 FF FF 7F             l....
0420: 00 80 01 80 00                                    .....           
```

#### Opcodes

```
  0: 0x041B [0x6C] FADE_ENTITY_COLOR(entity_id=EventEntity, end_alpha=0*, fade_time=1*)
  1: 0x0424 [0x00] END_REQSTACK()
```

### Event 65535.68

#### Metadata

| Field        | Value    |
|--------------|----------|
| Entrypoint   | 0x0425   |
| Data Size    | 10 bytes |
| Instructions | 2        |

```
      00 01 02 03 04 05 06 07  08 09 0A 0B 0C 0D 0E 0F
      -- -- -- -- -- -- -- --  -- -- -- -- -- -- -- --
0420:                6C F8 FF  FF 7F 02 80 01 80 00          l......... 
```

#### Opcodes

```
  0: 0x0425 [0x6C] FADE_ENTITY_COLOR(entity_id=EventEntity, end_alpha=128*, fade_time=1*)
  1: 0x042E [0x00] END_REQSTACK()
```

### Event 65535.69

#### Metadata

| Field        | Value    |
|--------------|----------|
| Entrypoint   | 0x042F   |
| Data Size    | 15 bytes |
| Instructions | 5        |

```
      00 01 02 03 04 05 06 07  08 09 0A 0B 0C 0D 0E 0F
      -- -- -- -- -- -- -- --  -- -- -- -- -- -- -- --
0420:                                               32                 2
0430: 03 80 1F 00 1D 80 1E 80  00 80 1F 01 6F 00        ............o.  
```

#### Opcodes

```
  0: 0x042F [0x32] ExtData[1]->MainSpeed = 11* * 0.1
  1: 0x0432 [0x1F] MOVE_ENTITY: EventEntity moves to X=-1.309*, Z=-20.042*, Y=0.000*
  2: 0x043A [0x1F] MOVE_ENTITY: Update entity position (mode=1)
  3: 0x043C [0x6F] WAIT_FRAME_DELAY: Yield until WaitTime reaches zero
  4: 0x043D [0x00] END_REQSTACK()
```

### Event 65535.70

#### Metadata

| Field        | Value    |
|--------------|----------|
| Entrypoint   | 0x043E   |
| Data Size    | 30 bytes |
| Instructions | 8        |

```
      00 01 02 03 04 05 06 07  08 09 0A 0B 0C 0D 0E 0F
      -- -- -- -- -- -- -- --  -- -- -- -- -- -- -- --
0430:                                            32 1F                2.
0440: 80 1F 00 20 80 21 80 00  80 1F 01 1F 00 22 80 23  ... .!.......".#
0450: 80 00 80 1F 01 6F 1E F0  FF FF 7F 00              .....o......    
```

#### Opcodes

```
  0: 0x043E [0x32] ExtData[1]->MainSpeed = 37* * 0.1
  1: 0x0441 [0x1F] MOVE_ENTITY: EventEntity moves to X=0.323*, Z=-24.103*, Y=0.000*
  2: 0x0449 [0x1F] MOVE_ENTITY: Update entity position (mode=1)
  3: 0x044B [0x1F] MOVE_ENTITY: EventEntity moves to X=-0.712*, Z=-29.706*, Y=0.000*
  4: 0x0453 [0x1F] MOVE_ENTITY: Update entity position (mode=1)
  5: 0x0455 [0x6F] WAIT_FRAME_DELAY: Yield until WaitTime reaches zero
  6: 0x0456 [0x1E] EventEntity looks at LocalPlayer and starts talking
  7: 0x045B [0x00] END_REQSTACK()
```

### Event 65535.71

#### Metadata

| Field        | Value    |
|--------------|----------|
| Entrypoint   | 0x045C   |
| Data Size    | 15 bytes |
| Instructions | 5        |

```
      00 01 02 03 04 05 06 07  08 09 0A 0B 0C 0D 0E 0F
      -- -- -- -- -- -- -- --  -- -- -- -- -- -- -- --
0450:                                      32 03 80 1F              2...
0460: 00 24 80 25 80 00 80 1F  01 6F 00                 .$.%.....o.     
```

#### Opcodes

```
  0: 0x045C [0x32] ExtData[1]->MainSpeed = 11* * 0.1
  1: 0x045F [0x1F] MOVE_ENTITY: EventEntity moves to X=0.017*, Z=49.224*, Y=0.000*
  2: 0x0467 [0x1F] MOVE_ENTITY: Update entity position (mode=1)
  3: 0x0469 [0x6F] WAIT_FRAME_DELAY: Yield until WaitTime reaches zero
  4: 0x046A [0x00] END_REQSTACK()
```

### Event 65535.72

#### Metadata

| Field        | Value    |
|--------------|----------|
| Entrypoint   | 0x046B   |
| Data Size    | 34 bytes |
| Instructions | 6        |

```
      00 01 02 03 04 05 06 07  08 09 0A 0B 0C 0D 0E 0F
      -- -- -- -- -- -- -- --  -- -- -- -- -- -- -- --
0460:                                   4A CC 20 03 01             J. ..
0470: 95 20 03 01 1C 26 80 4A  CC 20 03 01 95 20 03 01  . ...&.J. ... ..
0480: 1C 27 80 4A CC 20 03 01  95 20 03 01 00           .'.J. ... ...   
```

#### Opcodes

```
  0: 0x046B [0x4A] Nashmeira (ID: 16982220/0x010320CC) looks at Ghatsad (ID: 16982165/0x01032095)
  1: 0x0474 [0x1C] WAIT(90* ticks)
  2: 0x0477 [0x4A] Nashmeira (ID: 16982220/0x010320CC) looks at Ghatsad (ID: 16982165/0x01032095)
  3: 0x0480 [0x1C] WAIT(140* ticks)
  4: 0x0483 [0x4A] Nashmeira (ID: 16982220/0x010320CC) looks at Ghatsad (ID: 16982165/0x01032095)
  5: 0x048C [0x00] END_REQSTACK()
```

### Event 65535.73

#### Metadata

| Field        | Value    |
|--------------|----------|
| Entrypoint   | 0x048D   |
| Data Size    | 15 bytes |
| Instructions | 5        |

```
      00 01 02 03 04 05 06 07  08 09 0A 0B 0C 0D 0E 0F
      -- -- -- -- -- -- -- --  -- -- -- -- -- -- -- --
0480:                                         32 28 80               2(.
0490: 1F 00 29 80 2A 80 00 80  1F 01 6F 00              ..).*.....o.    
```

#### Opcodes

```
  0: 0x048D [0x32] ExtData[1]->MainSpeed = 12* * 0.1
  1: 0x0490 [0x1F] MOVE_ENTITY: EventEntity moves to X=-0.793*, Z=48.929*, Y=0.000*
  2: 0x0498 [0x1F] MOVE_ENTITY: Update entity position (mode=1)
  3: 0x049A [0x6F] WAIT_FRAME_DELAY: Yield until WaitTime reaches zero
  4: 0x049B [0x00] END_REQSTACK()
```

### Event 65535.74

#### Metadata

| Field        | Value    |
|--------------|----------|
| Entrypoint   | 0x049C   |
| Data Size    | 24 bytes |
| Instructions | 6        |

```
      00 01 02 03 04 05 06 07  08 09 0A 0B 0C 0D 0E 0F
      -- -- -- -- -- -- -- --  -- -- -- -- -- -- -- --
0490:                                      32 28 80 1F              2(..
04A0: 00 2B 80 2C 80 00 80 1F  01 1F 00 2D 80 2E 80 00  .+.,.......-....
04B0: 80 1F 01 00                                       ....            
```

#### Opcodes

```
  0: 0x049C [0x32] ExtData[1]->MainSpeed = 12* * 0.1
  1: 0x049F [0x1F] MOVE_ENTITY: EventEntity moves to X=-2.611*, Z=49.181*, Y=0.000*
  2: 0x04A7 [0x1F] MOVE_ENTITY: Update entity position (mode=1)
  3: 0x04A9 [0x1F] MOVE_ENTITY: EventEntity moves to X=-10.184*, Z=53.462*, Y=0.000*
  4: 0x04B1 [0x1F] MOVE_ENTITY: Update entity position (mode=1)
  5: 0x04B3 [0x00] END_REQSTACK()
```

### Event 178

#### Metadata

| Field        | Value   |
|--------------|---------|
| Entrypoint   | 0x04B4  |
| Data Size    | 7 bytes |
| Instructions | 2       |

```
      00 01 02 03 04 05 06 07  08 09 0A 0B 0C 0D 0E 0F
      -- -- -- -- -- -- -- --  -- -- -- -- -- -- -- --
04B0:             92 01 F8 FF  FF 7F 00                     .......     
```

#### Opcodes

```
  0: 0x04B4 [0x92] EventEntity->Render.Flags3 ^= 0x01
  1: 0x04BA [0x00] END_REQSTACK()
```

### Event 65535.75

#### Metadata

| Field        | Value    |
|--------------|----------|
| Entrypoint   | 0x04BB   |
| Data Size    | 15 bytes |
| Instructions | 5        |

```
      00 01 02 03 04 05 06 07  08 09 0A 0B 0C 0D 0E 0F
      -- -- -- -- -- -- -- --  -- -- -- -- -- -- -- --
04B0:                                   32 0A 80 1F 00             2....
04C0: 00 80 2F 80 00 80 1F 01  6F 00                    ../.....o.      
```

#### Opcodes

```
  0: 0x04BB [0x32] ExtData[1]->MainSpeed = 13* * 0.1
  1: 0x04BE [0x1F] MOVE_ENTITY: EventEntity moves to X=0.000*, Z=48.498*, Y=0.000*
  2: 0x04C6 [0x1F] MOVE_ENTITY: Update entity position (mode=1)
  3: 0x04C8 [0x6F] WAIT_FRAME_DELAY: Yield until WaitTime reaches zero
  4: 0x04C9 [0x00] END_REQSTACK()
```

### Event 65535.76

#### Metadata

| Field        | Value    |
|--------------|----------|
| Entrypoint   | 0x04CA   |
| Data Size    | 15 bytes |
| Instructions | 5        |

```
      00 01 02 03 04 05 06 07  08 09 0A 0B 0C 0D 0E 0F
      -- -- -- -- -- -- -- --  -- -- -- -- -- -- -- --
04C0:                                32 0A 80 1F 00 00            2.....
04D0: 80 30 80 00 80 1F 01 6F  00                       .0.....o.       
```

#### Opcodes

```
  0: 0x04CA [0x32] ExtData[1]->MainSpeed = 13* * 0.1
  1: 0x04CD [0x1F] MOVE_ENTITY: EventEntity moves to X=0.000*, Z=46.498*, Y=0.000*
  2: 0x04D5 [0x1F] MOVE_ENTITY: Update entity position (mode=1)
  3: 0x04D7 [0x6F] WAIT_FRAME_DELAY: Yield until WaitTime reaches zero
  4: 0x04D8 [0x00] END_REQSTACK()
```

### Event 179

#### Metadata

| Field        | Value   |
|--------------|---------|
| Entrypoint   | 0x04D9  |
| Data Size    | 7 bytes |
| Instructions | 2       |

```
      00 01 02 03 04 05 06 07  08 09 0A 0B 0C 0D 0E 0F
      -- -- -- -- -- -- -- --  -- -- -- -- -- -- -- --
04D0:                             92 01 F8 FF FF 7F 00           .......
```

#### Opcodes

```
  0: 0x04D9 [0x92] EventEntity->Render.Flags3 ^= 0x01
  1: 0x04DF [0x00] END_REQSTACK()
```

### Event 194

#### Metadata

| Field        | Value   |
|--------------|---------|
| Entrypoint   | 0x04E0  |
| Data Size    | 7 bytes |
| Instructions | 2       |

```
      00 01 02 03 04 05 06 07  08 09 0A 0B 0C 0D 0E 0F
      -- -- -- -- -- -- -- --  -- -- -- -- -- -- -- --
04E0: 92 01 F8 FF FF 7F 00                              .......         
```

#### Opcodes

```
  0: 0x04E0 [0x92] EventEntity->Render.Flags3 ^= 0x01
  1: 0x04E6 [0x00] END_REQSTACK()
```

### Event 65535.77

#### Metadata

| Field        | Value    |
|--------------|----------|
| Entrypoint   | 0x04E7   |
| Data Size    | 15 bytes |
| Instructions | 5        |

```
      00 01 02 03 04 05 06 07  08 09 0A 0B 0C 0D 0E 0F
      -- -- -- -- -- -- -- --  -- -- -- -- -- -- -- --
04E0:                      32  0A 80 1F 00 00 80 31 80         2......1.
04F0: 00 80 1F 01 6F 00                                 ....o.          
```

#### Opcodes

```
  0: 0x04E7 [0x32] ExtData[1]->MainSpeed = 13* * 0.1
  1: 0x04EA [0x1F] MOVE_ENTITY: EventEntity moves to X=0.000*, Z=48.000*, Y=0.000*
  2: 0x04F2 [0x1F] MOVE_ENTITY: Update entity position (mode=1)
  3: 0x04F4 [0x6F] WAIT_FRAME_DELAY: Yield until WaitTime reaches zero
  4: 0x04F5 [0x00] END_REQSTACK()
```

### Event 65535.78

#### Metadata

| Field        | Value    |
|--------------|----------|
| Entrypoint   | 0x04F6   |
| Data Size    | 22 bytes |
| Instructions | 8        |

```
      00 01 02 03 04 05 06 07  08 09 0A 0B 0C 0D 0E 0F
      -- -- -- -- -- -- -- --  -- -- -- -- -- -- -- --
04F0:                   32 0A  80 1F 00 00 80 32 80 00        2......2..
0500: 80 1F 01 6F 1E F0 FF FF  7F 6F 70 00              ...o.....op.    
```

#### Opcodes

```
  0: 0x04F6 [0x32] ExtData[1]->MainSpeed = 13* * 0.1
  1: 0x04F9 [0x1F] MOVE_ENTITY: EventEntity moves to X=0.000*, Z=49.000*, Y=0.000*
  2: 0x0501 [0x1F] MOVE_ENTITY: Update entity position (mode=1)
  3: 0x0503 [0x6F] WAIT_FRAME_DELAY: Yield until WaitTime reaches zero
  4: 0x0504 [0x1E] EventEntity looks at LocalPlayer and starts talking
  5: 0x0509 [0x6F] WAIT_FRAME_DELAY: Yield until WaitTime reaches zero
  6: 0x050A [0x70] WAIT_ENTITY_RENDER_FLAG: Wait while EventEntity->Render.Flags3 bit 2 is set (cancel turn if not)
  7: 0x050B [0x00] END_REQSTACK()
```

### Event 65535.79

#### Metadata

| Field        | Value    |
|--------------|----------|
| Entrypoint   | 0x050C   |
| Data Size    | 15 bytes |
| Instructions | 5        |

```
      00 01 02 03 04 05 06 07  08 09 0A 0B 0C 0D 0E 0F
      -- -- -- -- -- -- -- --  -- -- -- -- -- -- -- --
0500:                                      32 0A 80 1F              2...
0510: 00 33 80 34 80 00 80 1F  01 6F 00                 .3.4.....o.     
```

#### Opcodes

```
  0: 0x050C [0x32] ExtData[1]->MainSpeed = 13* * 0.1
  1: 0x050F [0x1F] MOVE_ENTITY: EventEntity moves to X=-0.300*, Z=48.600*, Y=0.000*
  2: 0x0517 [0x1F] MOVE_ENTITY: Update entity position (mode=1)
  3: 0x0519 [0x6F] WAIT_FRAME_DELAY: Yield until WaitTime reaches zero
  4: 0x051A [0x00] END_REQSTACK()
```

### Event 65535.80

#### Metadata

| Field        | Value    |
|--------------|----------|
| Entrypoint   | 0x051B   |
| Data Size    | 15 bytes |
| Instructions | 5        |

```
      00 01 02 03 04 05 06 07  08 09 0A 0B 0C 0D 0E 0F
      -- -- -- -- -- -- -- --  -- -- -- -- -- -- -- --
0510:                                   32 0A 80 1F 00             2....
0520: 00 80 35 80 00 80 1F 01  6F 00                    ..5.....o.      
```

#### Opcodes

```
  0: 0x051B [0x32] ExtData[1]->MainSpeed = 13* * 0.1
  1: 0x051E [0x1F] MOVE_ENTITY: EventEntity moves to X=0.000*, Z=45.600*, Y=0.000*
  2: 0x0526 [0x1F] MOVE_ENTITY: Update entity position (mode=1)
  3: 0x0528 [0x6F] WAIT_FRAME_DELAY: Yield until WaitTime reaches zero
  4: 0x0529 [0x00] END_REQSTACK()
```
