# 16982589 - PAKU02

## Common Data

| Field            | Value                          |
|------------------|--------------------------------|
| Zone             | Aht Urhgan Whitegate2 (ID: 50) |
| Block Size       | 612 bytes                      |
| Total Events     | 17                             |
| References Count | 35                             |

## List of Events

| Event ID                   | Entrypoint   |   Size |   Instructions |
|----------------------------|--------------|--------|----------------|
| [65535](#event-65535)      | 0x0000       |      1 |              1 |
| [65535.1](#event-655351)   | 0x0001       |     28 |              7 |
| [65535.2](#event-655352)   | 0x001D       |     11 |              3 |
| [65535.3](#event-655353)   | 0x0028       |     34 |              8 |
| [65535.4](#event-655354)   | 0x004A       |     67 |             13 |
| [65535.5](#event-655355)   | 0x008D       |     37 |              7 |
| [65535.6](#event-655356)   | 0x00B2       |     37 |              7 |
| [65535.7](#event-655357)   | 0x00D7       |     15 |              5 |
| [65535.8](#event-655358)   | 0x00E6       |      5 |              2 |
| [65535.9](#event-655359)   | 0x00EB       |      5 |              2 |
| [65535.10](#event-6553510) | 0x00F0       |      5 |              2 |
| [65535.11](#event-6553511) | 0x00F5       |      5 |              2 |
| [65535.12](#event-6553512) | 0x00FA       |     27 |              7 |
| [65535.13](#event-6553513) | 0x0115       |     27 |              7 |
| [65535.14](#event-6553514) | 0x0130       |     40 |              6 |
| [65535.15](#event-6553515) | 0x0158       |     19 |              3 |
| [65535.16](#event-6553516) | 0x016B       |     24 |              6 |

## DAT References (imed_data)

|   Index | Hex Value   |   Dec Value |
|---------|-------------|-------------|
|       0 | 0x13359     |       78681 |
|       1 | 0xFFFDFA56  |  4294834774 |
|       2 | 0xFFFFE890  |  4294961296 |
|       3 | 0x001E      |          30 |
|       4 | 0x02A8      |         680 |
|       5 | 0x13332     |       78642 |
|       6 | 0xFFFE2D9D  |  4294847901 |
|       7 | 0x0003      |           3 |
|       8 | 0x0002      |           2 |
|       9 | 0x000B      |          11 |
|      10 | 0x0005      |           5 |
|      11 | 0x000D      |          13 |
|      12 | 0x0530      |        1328 |
|      13 | 0x0004      |           4 |
|      14 | 0x0008      |           8 |
|      15 | 0x0001      |           1 |
|      16 | 0x000A      |          10 |
|      17 | 0x0041      |          65 |
|      18 | 0x0028      |          40 |
|      19 | 0xFFFE615D  |  4294861149 |
|      20 | 0x8576      |       34166 |
|      21 | 0xFFFFE891  |  4294961297 |
|      22 | 0x0000      |           0 |
|      23 | 0x004B      |          75 |
|      24 | 0xFFFFE9BC  |  4294961596 |
|      25 | 0xFFFF9148  |  4294938952 |
|      26 | 0xFFFFF154  |  4294963540 |
|      27 | 0xFFFF934E  |  4294939470 |
|      28 | 0xFFFFF67A  |  4294964858 |
|      29 | 0xFFFF94DE  |  4294939870 |
|      30 | 0x001D      |          29 |
|      31 | 0x002D      |          45 |
|      32 | 0x002A      |          42 |
|      33 | 0x151E7     |       86503 |
|      34 | 0xFFFE0500  |  4294837504 |

## Events

### Event 65535

#### Metadata

| Field        | Value   |
|--------------|---------|
| Entrypoint   | 0x0000  |
| Data Size    | 1 bytes |
| Instructions | 1       |

```
      00 01 02 03 04 05 06 07  08 09 0A 0B 0C 0D 0E 0F
      -- -- -- -- -- -- -- --  -- -- -- -- -- -- -- --
0000: 00                                                .               
```

#### Opcodes

```
  0: 0x0000 [0x00] END_REQSTACK()
```

### Event 65535.1

#### Metadata

| Field        | Value    |
|--------------|----------|
| Entrypoint   | 0x0001   |
| Data Size    | 28 bytes |
| Instructions | 7        |

```
      00 01 02 03 04 05 06 07  08 09 0A 0B 0C 0D 0E 0F
      -- -- -- -- -- -- -- --  -- -- -- -- -- -- -- --
0000:    1F 00 00 80 01 80 02  80 1F 01 6F 79 00 AC 21   ..........oy..!
0010: 03 01 5C 21 03 01 1C 03  80 39 04 80 00           ..\!.....9...   
```

#### Opcodes

```
  0: 0x0001 [0x1F] MOVE_ENTITY: EventEntity moves to X=78.681*, Z=-132.522*, Y=-6.000*
  1: 0x0009 [0x1F] MOVE_ENTITY: Update entity position (mode=1)
  2: 0x000B [0x6F] WAIT_FRAME_DELAY: Yield until WaitTime reaches zero
  3: 0x000C [0x79] Shayadar (ID: 16982444/0x010321AC) looks at Fari-Wari (ID: 16982364/0x0103215C) (Basic look)
  4: 0x0016 [0x1C] WAIT(30* ticks)
  5: 0x0019 [0x39] SET_ENTITY_DIRECTION(direction=3.7°*)
  6: 0x001C [0x00] END_REQSTACK()
```

### Event 65535.2

#### Metadata

| Field        | Value    |
|--------------|----------|
| Entrypoint   | 0x001D   |
| Data Size    | 11 bytes |
| Instructions | 3        |

```
      00 01 02 03 04 05 06 07  08 09 0A 0B 0C 0D 0E 0F
      -- -- -- -- -- -- -- --  -- -- -- -- -- -- -- --
0010:                                         1F 00 05               ...
0020: 80 06 80 02 80 1F 01 00                           ........        
```

#### Opcodes

```
  0: 0x001D [0x1F] MOVE_ENTITY: EventEntity moves to X=78.642*, Z=-119.395*, Y=-6.000*
  1: 0x0025 [0x1F] MOVE_ENTITY: Update entity position (mode=1)
  2: 0x0027 [0x00] END_REQSTACK()
```

### Event 65535.3

#### Metadata

| Field        | Value    |
|--------------|----------|
| Entrypoint   | 0x0028   |
| Data Size    | 34 bytes |
| Instructions | 8        |

```
      00 01 02 03 04 05 06 07  08 09 0A 0B 0C 0D 0E 0F
      -- -- -- -- -- -- -- --  -- -- -- -- -- -- -- --
0020:                          1C 07 80 1C 08 80 6E 45          ......nE
0030: 22 03 01 09 80 99 45 22  03 01 1C 0A 80 6E 46 22  ".....E".....nF"
0040: 03 01 0B 80 99 46 22 03  01 00                    .....F"...      
```

#### Opcodes

```
  0: 0x0028 [0x1C] WAIT(3* ticks)
  1: 0x002B [0x1C] WAIT(2* ticks)
  2: 0x002E [0x6E] FAN7 (ID: 16982597/0x01032245) uses emote 11*
  3: 0x0035 [0x99] Wait for FAN7 (ID: 16982597/0x01032245) animation to complete
  4: 0x003A [0x1C] WAIT(5* ticks)
  5: 0x003D [0x6E] FAN8 (ID: 16982598/0x01032246) uses emote 13*
  6: 0x0044 [0x99] Wait for FAN8 (ID: 16982598/0x01032246) animation to complete
  7: 0x0049 [0x00] END_REQSTACK()
```

### Event 65535.4

#### Metadata

| Field        | Value    |
|--------------|----------|
| Entrypoint   | 0x004A   |
| Data Size    | 67 bytes |
| Instructions | 13       |

```
      00 01 02 03 04 05 06 07  08 09 0A 0B 0C 0D 0E 0F
      -- -- -- -- -- -- -- --  -- -- -- -- -- -- -- --
0040:                                6E 41 22 03 01 09            nA"...
0050: 80 99 41 22 03 01 1C 07  80 5B 0C 80 42 22 03 01  ..A".....[..B"..
0060: 42 22 03 01 69 72 6F 30  1C 0D 80 1C 07 80 1C 08  B"..iro0........
0070: 80 6E 45 22 03 01 0E 80  99 45 22 03 01 1C 0A 80  .nE".....E".....
0080: 6E 46 22 03 01 09 80 99  46 22 03 01 00           nF".....F"...   
```

#### Opcodes

```
  0: 0x004A [0x6E] FAN3 (ID: 16982593/0x01032241) uses emote 11*
  1: 0x0051 [0x99] Wait for FAN3 (ID: 16982593/0x01032241) animation to complete
  2: 0x0056 [0x1C] WAIT(3* ticks)
  3: 0x0059 [0x5B] LOAD_EXT_SCHEDULER: Load scheduler "iro0" with entities [FAN4 (ID: 16982594/0x01032242), FAN4 (ID: 16982594/0x01032242)], work=1328*
  4: 0x0068 [0x1C] WAIT(4* ticks)
  5: 0x006B [0x1C] WAIT(3* ticks)
  6: 0x006E [0x1C] WAIT(2* ticks)
  7: 0x0071 [0x6E] FAN7 (ID: 16982597/0x01032245) uses emote 8*
  8: 0x0078 [0x99] Wait for FAN7 (ID: 16982597/0x01032245) animation to complete
  9: 0x007D [0x1C] WAIT(5* ticks)
 10: 0x0080 [0x6E] FAN8 (ID: 16982598/0x01032246) uses emote 11*
 11: 0x0087 [0x99] Wait for FAN8 (ID: 16982598/0x01032246) animation to complete
 12: 0x008C [0x00] END_REQSTACK()
```

### Event 65535.5

#### Metadata

| Field        | Value    |
|--------------|----------|
| Entrypoint   | 0x008D   |
| Data Size    | 37 bytes |
| Instructions | 7        |

```
      00 01 02 03 04 05 06 07  08 09 0A 0B 0C 0D 0E 0F
      -- -- -- -- -- -- -- --  -- -- -- -- -- -- -- --
0080:                                         6E 3C 22               n<"
0090: 03 01 0F 80 99 3C 22 03  01 6E 3D 22 03 01 0E 80  .....<"..n="....
00A0: 99 3D 22 03 01 6E 3E 22  03 01 10 80 99 3E 22 03  .="..n>".....>".
00B0: 01 00                                             ..              
```

#### Opcodes

```
  0: 0x008D [0x6E] Wajran (ID: 16982588/0x0103223C) uses emote 1*
  1: 0x0094 [0x99] Wait for Wajran (ID: 16982588/0x0103223C) animation to complete
  2: 0x0099 [0x6E] PAKU02 (ID: 16982589/0x0103223D) uses emote 8*
  3: 0x00A0 [0x99] Wait for PAKU02 (ID: 16982589/0x0103223D) animation to complete
  4: 0x00A5 [0x6E] PAKU03 (ID: 16982590/0x0103223E) uses emote 10*
  5: 0x00AC [0x99] Wait for PAKU03 (ID: 16982590/0x0103223E) animation to complete
  6: 0x00B1 [0x00] END_REQSTACK()
```

### Event 65535.6

#### Metadata

| Field        | Value    |
|--------------|----------|
| Entrypoint   | 0x00B2   |
| Data Size    | 37 bytes |
| Instructions | 7        |

```
      00 01 02 03 04 05 06 07  08 09 0A 0B 0C 0D 0E 0F
      -- -- -- -- -- -- -- --  -- -- -- -- -- -- -- --
00B0:       6E 3C 22 03 01 11  80 99 3C 22 03 01 6E 3D    n<".....<"..n=
00C0: 22 03 01 11 80 99 3D 22  03 01 6E 3E 22 03 01 11  ".....="..n>"...
00D0: 80 99 3E 22 03 01 00                              ..>"...         
```

#### Opcodes

```
  0: 0x00B2 [0x6E] Wajran (ID: 16982588/0x0103223C) uses emote 65*
  1: 0x00B9 [0x99] Wait for Wajran (ID: 16982588/0x0103223C) animation to complete
  2: 0x00BE [0x6E] PAKU02 (ID: 16982589/0x0103223D) uses emote 65*
  3: 0x00C5 [0x99] Wait for PAKU02 (ID: 16982589/0x0103223D) animation to complete
  4: 0x00CA [0x6E] PAKU03 (ID: 16982590/0x0103223E) uses emote 65*
  5: 0x00D1 [0x99] Wait for PAKU03 (ID: 16982590/0x0103223E) animation to complete
  6: 0x00D6 [0x00] END_REQSTACK()
```

### Event 65535.7

#### Metadata

| Field        | Value    |
|--------------|----------|
| Entrypoint   | 0x00D7   |
| Data Size    | 15 bytes |
| Instructions | 5        |

```
      00 01 02 03 04 05 06 07  08 09 0A 0B 0C 0D 0E 0F
      -- -- -- -- -- -- -- --  -- -- -- -- -- -- -- --
00D0:                      32  12 80 1F 00 13 80 14 80         2........
00E0: 15 80 1F 01 6F 00                                 ....o.          
```

#### Opcodes

```
  0: 0x00D7 [0x32] ExtData[1]->MainSpeed = 40* * 0.1
  1: 0x00DA [0x1F] MOVE_ENTITY: EventEntity moves to X=-106.147*, Z=34.166*, Y=-5.999*
  2: 0x00E2 [0x1F] MOVE_ENTITY: Update entity position (mode=1)
  3: 0x00E4 [0x6F] WAIT_FRAME_DELAY: Yield until WaitTime reaches zero
  4: 0x00E5 [0x00] END_REQSTACK()
```

### Event 65535.8

#### Metadata

| Field        | Value   |
|--------------|---------|
| Entrypoint   | 0x00E6  |
| Data Size    | 5 bytes |
| Instructions | 2       |

```
      00 01 02 03 04 05 06 07  08 09 0A 0B 0C 0D 0E 0F
      -- -- -- -- -- -- -- --  -- -- -- -- -- -- -- --
00E0:                   B6 0A  11 80 00                       .....     
```

#### Opcodes

```
  0: 0x00E6 [0xB6] ENTITY_APPEARANCE_HANDLER(case=Ranged, value=65*)
  1: 0x00EA [0x00] END_REQSTACK()
```

### Event 65535.9

#### Metadata

| Field        | Value   |
|--------------|---------|
| Entrypoint   | 0x00EB  |
| Data Size    | 5 bytes |
| Instructions | 2       |

```
      00 01 02 03 04 05 06 07  08 09 0A 0B 0C 0D 0E 0F
      -- -- -- -- -- -- -- --  -- -- -- -- -- -- -- --
00E0:                                   B6 0A 16 80 00             .....
```

#### Opcodes

```
  0: 0x00EB [0xB6] ENTITY_APPEARANCE_HANDLER(case=Ranged, value=0*)
  1: 0x00EF [0x00] END_REQSTACK()
```

### Event 65535.10

#### Metadata

| Field        | Value   |
|--------------|---------|
| Entrypoint   | 0x00F0  |
| Data Size    | 5 bytes |
| Instructions | 2       |

```
      00 01 02 03 04 05 06 07  08 09 0A 0B 0C 0D 0E 0F
      -- -- -- -- -- -- -- --  -- -- -- -- -- -- -- --
00F0: B6 0A 17 80 00                                    .....           
```

#### Opcodes

```
  0: 0x00F0 [0xB6] ENTITY_APPEARANCE_HANDLER(case=Ranged, value=75*)
  1: 0x00F4 [0x00] END_REQSTACK()
```

### Event 65535.11

#### Metadata

| Field        | Value   |
|--------------|---------|
| Entrypoint   | 0x00F5  |
| Data Size    | 5 bytes |
| Instructions | 2       |

```
      00 01 02 03 04 05 06 07  08 09 0A 0B 0C 0D 0E 0F
      -- -- -- -- -- -- -- --  -- -- -- -- -- -- -- --
00F0:                B6 0A 16  80 00                         .....      
```

#### Opcodes

```
  0: 0x00F5 [0xB6] ENTITY_APPEARANCE_HANDLER(case=Ranged, value=0*)
  1: 0x00F9 [0x00] END_REQSTACK()
```

### Event 65535.12

#### Metadata

| Field        | Value    |
|--------------|----------|
| Entrypoint   | 0x00FA   |
| Data Size    | 27 bytes |
| Instructions | 7        |

```
      00 01 02 03 04 05 06 07  08 09 0A 0B 0C 0D 0E 0F
      -- -- -- -- -- -- -- --  -- -- -- -- -- -- -- --
00F0:                                1F 00 18 80 19 80            ......
0100: 16 80 1F 01 6F 4A 61 21  03 01 5F 21 03 01 6F 76  ....oJa!.._!..ov
0110: 61 21 03 01 00                                    a!...           
```

#### Opcodes

```
  0: 0x00FA [0x1F] MOVE_ENTITY: EventEntity moves to X=-5.700*, Z=-28.344*, Y=0.000*
  1: 0x0102 [0x1F] MOVE_ENTITY: Update entity position (mode=1)
  2: 0x0104 [0x6F] WAIT_FRAME_DELAY: Yield until WaitTime reaches zero
  3: 0x0105 [0x4A] Najelith (ID: 16982369/0x01032161) looks at Rughadjeen (ID: 16982367/0x0103215F)
  4: 0x010E [0x6F] WAIT_FRAME_DELAY: Yield until WaitTime reaches zero
  5: 0x010F [0x76] CHECK_ENTITY_RENDER_FLAGS: Wait until Najelith (ID: 16982369/0x01032161) Render.Flags0 and Render.Flags3 conditions are met
  6: 0x0114 [0x00] END_REQSTACK()
```

### Event 65535.13

#### Metadata

| Field        | Value    |
|--------------|----------|
| Entrypoint   | 0x0115   |
| Data Size    | 27 bytes |
| Instructions | 7        |

```
      00 01 02 03 04 05 06 07  08 09 0A 0B 0C 0D 0E 0F
      -- -- -- -- -- -- -- --  -- -- -- -- -- -- -- --
0110:                1F 00 1A  80 1B 80 16 80 1F 01 6F       ..........o
0120: 4A 5F 21 03 01 61 21 03  01 6F 76 5F 21 03 01 00  J_!..a!..ov_!...
```

#### Opcodes

```
  0: 0x0115 [0x1F] MOVE_ENTITY: EventEntity moves to X=-3.756*, Z=-27.826*, Y=0.000*
  1: 0x011D [0x1F] MOVE_ENTITY: Update entity position (mode=1)
  2: 0x011F [0x6F] WAIT_FRAME_DELAY: Yield until WaitTime reaches zero
  3: 0x0120 [0x4A] Rughadjeen (ID: 16982367/0x0103215F) looks at Najelith (ID: 16982369/0x01032161)
  4: 0x0129 [0x6F] WAIT_FRAME_DELAY: Yield until WaitTime reaches zero
  5: 0x012A [0x76] CHECK_ENTITY_RENDER_FLAGS: Wait until Rughadjeen (ID: 16982367/0x0103215F) Render.Flags0 and Render.Flags3 conditions are met
  6: 0x012F [0x00] END_REQSTACK()
```

### Event 65535.14

#### Metadata

| Field        | Value    |
|--------------|----------|
| Entrypoint   | 0x0130   |
| Data Size    | 40 bytes |
| Instructions | 6        |

```
      00 01 02 03 04 05 06 07  08 09 0A 0B 0C 0D 0E 0F
      -- -- -- -- -- -- -- --  -- -- -- -- -- -- -- --
0130: 1F 00 1C 80 1D 80 16 80  1F 01 6F 66 1E 80 5F 21  ..........of.._!
0140: 03 01 5F 21 03 01 73 68  61 30 53 5F 21 03 01 5F  .._!..sha0S_!.._
0150: 21 03 01 73 68 61 30 00                           !..sha0.        
```

#### Opcodes

```
  0: 0x0130 [0x1F] MOVE_ENTITY: EventEntity moves to X=-2.438*, Z=-27.426*, Y=0.000*
  1: 0x0138 [0x1F] MOVE_ENTITY: Update entity position (mode=1)
  2: 0x013A [0x6F] WAIT_FRAME_DELAY: Yield until WaitTime reaches zero
  3: 0x013B [0x66] LOAD_EXT_SCHEDULER_MAIN: Load scheduler "sha0" with entities [Rughadjeen (ID: 16982367/0x0103215F), Rughadjeen (ID: 16982367/0x0103215F)], work=29*
  4: 0x014A [0x53] WAIT_SCHEDULER_TASK: Wait for scheduler "sha0" with entities [Rughadjeen (ID: 16982367/0x0103215F), Rughadjeen (ID: 16982367/0x0103215F)]
  5: 0x0157 [0x00] END_REQSTACK()
```

### Event 65535.15

#### Metadata

| Field        | Value    |
|--------------|----------|
| Entrypoint   | 0x0158   |
| Data Size    | 19 bytes |
| Instructions | 3        |

```
      00 01 02 03 04 05 06 07  08 09 0A 0B 0C 0D 0E 0F
      -- -- -- -- -- -- -- --  -- -- -- -- -- -- -- --
0150:                          1C 1F 80 66 20 80 5C 21          ...f .\!
0160: 03 01 5C 21 03 01 62 73  6B 30 00                 ..\!..bsk0.     
```

#### Opcodes

```
  0: 0x0158 [0x1C] WAIT(45* ticks)
  1: 0x015B [0x66] LOAD_EXT_SCHEDULER_MAIN: Load scheduler "bsk0" with entities [Fari-Wari (ID: 16982364/0x0103215C), Fari-Wari (ID: 16982364/0x0103215C)], work=42*
  2: 0x016A [0x00] END_REQSTACK()
```

### Event 65535.16

#### Metadata

| Field        | Value    |
|--------------|----------|
| Entrypoint   | 0x016B   |
| Data Size    | 24 bytes |
| Instructions | 6        |

```
      00 01 02 03 04 05 06 07  08 09 0A 0B 0C 0D 0E 0F
      -- -- -- -- -- -- -- --  -- -- -- -- -- -- -- --
0160:                                   32 12 80 1F 00             2....
0170: 21 80 22 80 15 80 1F 01  6F 4A 5C 21 03 01 2C 22  !.".....oJ\!..,"
0180: 03 01 00                                          ...             
```

#### Opcodes

```
  0: 0x016B [0x32] ExtData[1]->MainSpeed = 40* * 0.1
  1: 0x016E [0x1F] MOVE_ENTITY: EventEntity moves to X=86.503*, Z=-129.792*, Y=-5.999*
  2: 0x0176 [0x1F] MOVE_ENTITY: Update entity position (mode=1)
  3: 0x0178 [0x6F] WAIT_FRAME_DELAY: Yield until WaitTime reaches zero
  4: 0x0179 [0x4A] Fari-Wari (ID: 16982364/0x0103215C) looks at Wajran (ID: 16982572/0x0103222C)
  5: 0x0182 [0x00] END_REQSTACK()
```
