# 16982308

## Common Data

| Field            | Value                          |
|------------------|--------------------------------|
| Zone             | Aht Urhgan Whitegate2 (ID: 50) |
| Block Size       | 44348 bytes                    |
| Total Events     | 8                              |
| References Count | 934                            |

## List of Events

| Event ID              | Entrypoint   |   Size |   Instructions |
|-----------------------|--------------|--------|----------------|
| [65535](#event-65535) | 0x0000       |      1 |              1 |
| [3078](#event-3078)   | 0x0001       |   9364 |           1148 |
| [3081](#event-3081)   | 0x2495       |     42 |             12 |
| [3090](#event-3090)   | 0x24BF       |  13189 |           1545 |
| [3097](#event-3097)   | 0x5844       |   5148 |            622 |
| [3113](#event-3113)   | 0x6C60       |   7662 |            954 |
| [3114](#event-3114)   | 0x8A4E       |     34 |             10 |
| [3130](#event-3130)   | 0x8A70       |   5122 |            595 |

## DAT References (imed_data)

|   Index | Hex Value   |   Dec Value |
|---------|-------------|-------------|
|       0 | 0x0013      |          19 |
|       1 | 0x00FE      |         254 |
|       2 | 0x00B2      |         178 |
|       3 | 0x001E      |          30 |
|       4 | 0x0113      |         275 |
|       5 | 0x0000      |           0 |
|       6 | 0x000F      |          15 |
|       7 | 0x1F54      |        8020 |
|       8 | 0x1F55      |        8021 |
|       9 | 0x1F56      |        8022 |
|      10 | 0x1F57      |        8023 |
|      11 | 0x1F58      |        8024 |
|      12 | 0x1F59      |        8025 |
|      13 | 0x1F5A      |        8026 |
|      14 | 0x1F5B      |        8027 |
|      15 | 0x0167      |         359 |
|      16 | 0x1F5C      |        8028 |
|      17 | 0x1F5D      |        8029 |
|      18 | 0x1F5E      |        8030 |
|      19 | 0x1F5F      |        8031 |
|      20 | 0x1F60      |        8032 |
|      21 | 0x1F61      |        8033 |
|      22 | 0x1F62      |        8034 |
|      23 | 0x1F63      |        8035 |
|      24 | 0x1F64      |        8036 |
|      25 | 0x003C      |          60 |
|      26 | 0x1F65      |        8037 |
|      27 | 0x1F66      |        8038 |
|      28 | 0x1F67      |        8039 |
|      29 | 0x00A4      |         164 |
|      30 | 0x1CAE      |        7342 |
|      31 | 0x1F68      |        8040 |
|      32 | 0x1F69      |        8041 |
|      33 | 0x1F6A      |        8042 |
|      34 | 0x1F6B      |        8043 |
|      35 | 0x1F6C      |        8044 |
|      36 | 0x1F6D      |        8045 |
|      37 | 0x0344      |         836 |
|      38 | 0x1F6E      |        8046 |
|      39 | 0x1F6F      |        8047 |
|      40 | 0x1F70      |        8048 |
|      41 | 0x008F      |         143 |
|      42 | 0x0014      |          20 |
|      43 | 0x0015      |          21 |
|      44 | 0x1F71      |        8049 |
|      45 | 0x0078      |         120 |
|      46 | 0x002D      |          45 |
|      47 | 0x1F72      |        8050 |
|      48 | 0x00A3      |         163 |
|      49 | 0x1F73      |        8051 |
|      50 | 0x1F74      |        8052 |
|      51 | 0x1F75      |        8053 |
|      52 | 0x1F76      |        8054 |
|      53 | 0x0357      |         855 |
|      54 | 0x1F77      |        8055 |
|      55 | 0x1F78      |        8056 |
|      56 | 0x1F79      |        8057 |
|      57 | 0x1F7A      |        8058 |
|      58 | 0x1F7B      |        8059 |
|      59 | 0x1F7C      |        8060 |
|      60 | 0x0363      |         867 |
|      61 | 0x1F7D      |        8061 |
|      62 | 0x1F7E      |        8062 |
|      63 | 0x1F7F      |        8063 |
|      64 | 0x0005      |           5 |
|      65 | 0x1F80      |        8064 |
|      66 | 0x0110      |         272 |
|      67 | 0x022F      |         559 |
|      68 | 0x0001      |           1 |
|      69 | 0x0345      |         837 |
|      70 | 0x0343      |         835 |
|      71 | 0x283D      |       10301 |
|      72 | 0x00B8      |         184 |
|      73 | 0x00C8      |         200 |
|      74 | 0x1F81      |        8065 |
|      75 | 0x1F82      |        8066 |
|      76 | 0x1F83      |        8067 |
|      77 | 0x1F84      |        8068 |
|      78 | 0x1F85      |        8069 |
|      79 | 0x1F86      |        8070 |
|      80 | 0x1F87      |        8071 |
|      81 | 0x1F88      |        8072 |
|      82 | 0x1F89      |        8073 |
|      83 | 0x035A      |         858 |
|      84 | 0x1F8A      |        8074 |
|      85 | 0x1F8B      |        8075 |
|      86 | 0x1F8C      |        8076 |
|      87 | 0x1F8D      |        8077 |
|      88 | 0x0353      |         851 |
|      89 | 0x1F8E      |        8078 |
|      90 | 0x1F8F      |        8079 |
|      91 | 0x0040      |          64 |
|      92 | 0x1F90      |        8080 |
|      93 | 0x1F91      |        8081 |
|      94 | 0x1F92      |        8082 |
|      95 | 0x1F93      |        8083 |
|      96 | 0x1F94      |        8084 |
|      97 | 0x1F95      |        8085 |
|      98 | 0x1F96      |        8086 |
|      99 | 0x1F97      |        8087 |
|     100 | 0x1F98      |        8088 |
|     101 | 0x007F      |         127 |
|     102 | 0x1F99      |        8089 |
|     103 | 0x0352      |         850 |
|     104 | 0x1F9A      |        8090 |
|     105 | 0x1F9B      |        8091 |
|     106 | 0x1F9C      |        8092 |
|     107 | 0x1F9D      |        8093 |
|     108 | 0x00B4      |         180 |
|     109 | 0x1F9E      |        8094 |
|     110 | 0x3EC6      |       16070 |
|     111 | 0x18F7      |        6391 |
|     112 | 0x1F9F      |        8095 |
|     113 | 0x1FA0      |        8096 |
|     114 | 0x1FA1      |        8097 |
|     115 | 0x012C      |         300 |
|     116 | 0x1FA2      |        8098 |
|     117 | 0x036E      |         878 |
|     118 | 0x1FA3      |        8099 |
|     119 | 0x1FA4      |        8100 |
|     120 | 0x1FA5      |        8101 |
|     121 | 0x1FA6      |        8102 |
|     122 | 0x1FA7      |        8103 |
|     123 | 0x1FA8      |        8104 |
|     124 | 0x1FA9      |        8105 |
|     125 | 0x1FAA      |        8106 |
|     126 | 0x1FAB      |        8107 |
|     127 | 0x1FAC      |        8108 |
|     128 | 0x1FAD      |        8109 |
|     129 | 0x1FAE      |        8110 |
|     130 | 0x1FAF      |        8111 |
|     131 | 0x1FB0      |        8112 |
|     132 | 0x1FB1      |        8113 |
|     133 | 0x0400      |        1024 |
|     134 | 0x1FB2      |        8114 |
|     135 | 0x1FB3      |        8115 |
|     136 | 0x1FB4      |        8116 |
|     137 | 0x00B7      |         183 |
|     138 | 0x1FB5      |        8117 |
|     139 | 0x1FB6      |        8118 |
|     140 | 0x1FB7      |        8119 |
|     141 | 0x1C2D      |        7213 |
|     142 | 0x2B1A      |       11034 |
|     143 | 0x0347      |         839 |
|     144 | 0x1FBA      |        8122 |
|     145 | 0x00B9      |         185 |
|     146 | 0x1D6D      |        7533 |
|     147 | 0x1FBB      |        8123 |
|     148 | 0x1FBC      |        8124 |
|     149 | 0x1FBD      |        8125 |
|     150 | 0x1FBE      |        8126 |
|     151 | 0x1FBF      |        8127 |
|     152 | 0x1FC0      |        8128 |
|     153 | 0x1FC1      |        8129 |
|     154 | 0x1FC2      |        8130 |
|     155 | 0x1FC3      |        8131 |
|     156 | 0x1FC4      |        8132 |
|     157 | 0x1FC5      |        8133 |
|     158 | 0x1FC6      |        8134 |
|     159 | 0x1FC7      |        8135 |
|     160 | 0x1FC8      |        8136 |
|     161 | 0x1FC9      |        8137 |
|     162 | 0x1FCA      |        8138 |
|     163 | 0x1FCB      |        8139 |
|     164 | 0x1FCC      |        8140 |
|     165 | 0x1FCD      |        8141 |
|     166 | 0x1FCE      |        8142 |
|     167 | 0x1FCF      |        8143 |
|     168 | 0x1FD0      |        8144 |
|     169 | 0x1FD1      |        8145 |
|     170 | 0x1FD2      |        8146 |
|     171 | 0x0069      |         105 |
|     172 | 0x010D      |         269 |
|     173 | 0x0032      |          50 |
|     174 | 0x03E7      |         999 |
|     175 | 0x1FD3      |        8147 |
|     176 | 0x1FD4      |        8148 |
|     177 | 0x0023      |          35 |
|     178 | 0x1FD5      |        8149 |
|     179 | 0x0006      |           6 |
|     180 | 0x1FD6      |        8150 |
|     181 | 0x1FD7      |        8151 |
|     182 | 0x1FD8      |        8152 |
|     183 | 0x291F      |       10527 |
|     184 | 0x1FD9      |        8153 |
|     185 | 0x1FDA      |        8154 |
|     186 | 0x1FDB      |        8155 |
|     187 | 0x1FDC      |        8156 |
|     188 | 0x1FDD      |        8157 |
|     189 | 0x035E      |         862 |
|     190 | 0x1FDE      |        8158 |
|     191 | 0x1FDF      |        8159 |
|     192 | 0x1FE0      |        8160 |
|     193 | 0x1FE1      |        8161 |
|     194 | 0x1FE2      |        8162 |
|     195 | 0x1FE3      |        8163 |
|     196 | 0x1FE4      |        8164 |
|     197 | 0x000D      |          13 |
|     198 | 0x1FE5      |        8165 |
|     199 | 0x1FE6      |        8166 |
|     200 | 0x088A      |        2186 |
|     201 | 0x1FE7      |        8167 |
|     202 | 0x1FE8      |        8168 |
|     203 | 0x1FE9      |        8169 |
|     204 | 0x1FEA      |        8170 |
|     205 | 0x1FEB      |        8171 |
|     206 | 0x1FEC      |        8172 |
|     207 | 0x1FED      |        8173 |
|     208 | 0x1FEE      |        8174 |
|     209 | 0x0096      |         150 |
|     210 | 0x1FEF      |        8175 |
|     211 | 0x1FF0      |        8176 |
|     212 | 0x1F52      |        8018 |
|     213 | 0x1F53      |        8019 |
|     214 | 0x0233      |         563 |
|     215 | 0x714B      |       29003 |
|     216 | 0xFFFF498E  |  4294920590 |
|     217 | 0xFFFFE184  |  4294959492 |
|     218 | 0x0FD7      |        4055 |
|     219 | 0x843C      |       33852 |
|     220 | 0xFFFF3003  |  4294914051 |
|     221 | 0xFFFFE637  |  4294960695 |
|     222 | 0x0B1C      |        2844 |
|     223 | 0x0114      |         276 |
|     224 | 0x1FF1      |        8177 |
|     225 | 0x2A0D      |       10765 |
|     226 | 0x1FF2      |        8178 |
|     227 | 0x1FF3      |        8179 |
|     228 | 0x0020      |          32 |
|     229 | 0x1FF4      |        8180 |
|     230 | 0x1FF5      |        8181 |
|     231 | 0x0009      |           9 |
|     232 | 0x1FF6      |        8182 |
|     233 | 0x1FF7      |        8183 |
|     234 | 0x1BFC      |        7164 |
|     235 | 0x005A      |          90 |
|     236 | 0x291C      |       10524 |
|     237 | 0x1FF8      |        8184 |
|     238 | 0x0365      |         869 |
|     239 | 0x03A2      |         930 |
|     240 | 0x1FF9      |        8185 |
|     241 | 0x1FFA      |        8186 |
|     242 | 0x1FFB      |        8187 |
|     243 | 0x0019      |          25 |
|     244 | 0x1FFC      |        8188 |
|     245 | 0x0356      |         854 |
|     246 | 0x1FFD      |        8189 |
|     247 | 0x1FFE      |        8190 |
|     248 | 0x1FFF      |        8191 |
|     249 | 0x000B      |          11 |
|     250 | 0x1558      |        5464 |
|     251 | 0x2000      |        8192 |
|     252 | 0x0341      |         833 |
|     253 | 0x2001      |        8193 |
|     254 | 0x2002      |        8194 |
|     255 | 0x001D      |          29 |
|     256 | 0x2003      |        8195 |
|     257 | 0x2004      |        8196 |
|     258 | 0x2005      |        8197 |
|     259 | 0x2006      |        8198 |
|     260 | 0x0036      |          54 |
|     261 | 0xFFFED493  |  4294890643 |
|     262 | 0xFFFFFC25  |  4294966309 |
|     263 | 0xFFFED3AE  |  4294890414 |
|     264 | 0xFFFFDEFB  |  4294958843 |
|     265 | 0xFFFE8DD3  |  4294872531 |
|     266 | 0x01EA      |         490 |
|     267 | 0xFFFFFF78  |  4294967160 |
|     268 | 0xFFFE830D  |  4294869773 |
|     269 | 0x0C00      |        3072 |
|     270 | 0xFFFFFC7E  |  4294966398 |
|     271 | 0xFFFE82C4  |  4294869700 |
|     272 | 0xFFFF86D2  |  4294936274 |
|     273 | 0xFFFED029  |  4294889513 |
|     274 | 0x0063      |          99 |
|     275 | 0x0389      |         905 |
|     276 | 0x0028      |          40 |
|     277 | 0x0029      |          41 |
|     278 | 0x2007      |        8199 |
|     279 | 0x2008      |        8200 |
|     280 | 0x2009      |        8201 |
|     281 | 0x200A      |        8202 |
|     282 | 0x200B      |        8203 |
|     283 | 0x200C      |        8204 |
|     284 | 0x200D      |        8205 |
|     285 | 0x200E      |        8206 |
|     286 | 0x002A      |          42 |
|     287 | 0x200F      |        8207 |
|     288 | 0x2010      |        8208 |
|     289 | 0x2011      |        8209 |
|     290 | 0x2012      |        8210 |
|     291 | 0x2013      |        8211 |
|     292 | 0x2014      |        8212 |
|     293 | 0x2015      |        8213 |
|     294 | 0x2016      |        8214 |
|     295 | 0x2017      |        8215 |
|     296 | 0x2018      |        8216 |
|     297 | 0x2019      |        8217 |
|     298 | 0x0003      |           3 |
|     299 | 0x201A      |        8218 |
|     300 | 0x201B      |        8219 |
|     301 | 0x201C      |        8220 |
|     302 | 0x004B      |          75 |
|     303 | 0x201D      |        8221 |
|     304 | 0x201E      |        8222 |
|     305 | 0x201F      |        8223 |
|     306 | 0x2020      |        8224 |
|     307 | 0xFFFFF88F  |  4294965391 |
|     308 | 0xFFFEC228  |  4294885928 |
|     309 | 0x00CB      |         203 |
|     310 | 0xFFFEC5ED  |  4294886893 |
|     311 | 0xFFFFFC1A  |  4294966298 |
|     312 | 0xFFFEC636  |  4294886966 |
|     313 | 0x2021      |        8225 |
|     314 | 0x2022      |        8226 |
|     315 | 0x2023      |        8227 |
|     316 | 0x2024      |        8228 |
|     317 | 0x2025      |        8229 |
|     318 | 0x2026      |        8230 |
|     319 | 0x2027      |        8231 |
|     320 | 0x2028      |        8232 |
|     321 | 0x2029      |        8233 |
|     322 | 0x202A      |        8234 |
|     323 | 0x007B      |         123 |
|     324 | 0x202B      |        8235 |
|     325 | 0x00B5      |         181 |
|     326 | 0x202C      |        8236 |
|     327 | 0x202D      |        8237 |
|     328 | 0x202E      |        8238 |
|     329 | 0x202F      |        8239 |
|     330 | 0x2030      |        8240 |
|     331 | 0x2031      |        8241 |
|     332 | 0x2032      |        8242 |
|     333 | 0x2033      |        8243 |
|     334 | 0x00B6      |         182 |
|     335 | 0x2034      |        8244 |
|     336 | 0x2035      |        8245 |
|     337 | 0x2036      |        8246 |
|     338 | 0x035C      |         860 |
|     339 | 0x2037      |        8247 |
|     340 | 0x038B      |         907 |
|     341 | 0x2038      |        8248 |
|     342 | 0x2039      |        8249 |
|     343 | 0x203B      |        8251 |
|     344 | 0x203C      |        8252 |
|     345 | 0x203D      |        8253 |
|     346 | 0x203E      |        8254 |
|     347 | 0x035B      |         859 |
|     348 | 0x0370      |         880 |
|     349 | 0x035F      |         863 |
|     350 | 0x00FD      |         253 |
|     351 | 0x203F      |        8255 |
|     352 | 0x2040      |        8256 |
|     353 | 0x038E      |         910 |
|     354 | 0x2041      |        8257 |
|     355 | 0x2042      |        8258 |
|     356 | 0x0046      |          70 |
|     357 | 0x2043      |        8259 |
|     358 | 0x2044      |        8260 |
|     359 | 0x2045      |        8261 |
|     360 | 0x2046      |        8262 |
|     361 | 0x2047      |        8263 |
|     362 | 0x2048      |        8264 |
|     363 | 0xFFFFFC33  |  4294966323 |
|     364 | 0xFFFECDDF  |  4294888927 |
|     365 | 0x203A      |        8250 |
|     366 | 0x2049      |        8265 |
|     367 | 0x204A      |        8266 |
|     368 | 0x204B      |        8267 |
|     369 | 0x204C      |        8268 |
|     370 | 0x204D      |        8269 |
|     371 | 0x204E      |        8270 |
|     372 | 0x204F      |        8271 |
|     373 | 0x2050      |        8272 |
|     374 | 0x2051      |        8273 |
|     375 | 0x2052      |        8274 |
|     376 | 0x2053      |        8275 |
|     377 | 0x2054      |        8276 |
|     378 | 0x2055      |        8277 |
|     379 | 0x2056      |        8278 |
|     380 | 0x2057      |        8279 |
|     381 | 0x038A      |         906 |
|     382 | 0x2058      |        8280 |
|     383 | 0x2059      |        8281 |
|     384 | 0x205A      |        8282 |
|     385 | 0x205B      |        8283 |
|     386 | 0x205C      |        8284 |
|     387 | 0x205D      |        8285 |
|     388 | 0x205E      |        8286 |
|     389 | 0x205F      |        8287 |
|     390 | 0x2060      |        8288 |
|     391 | 0x2061      |        8289 |
|     392 | 0x2062      |        8290 |
|     393 | 0x2063      |        8291 |
|     394 | 0x2064      |        8292 |
|     395 | 0x2065      |        8293 |
|     396 | 0x2066      |        8294 |
|     397 | 0x2067      |        8295 |
|     398 | 0x01F2      |         498 |
|     399 | 0xFFFED7F0  |  4294891504 |
|     400 | 0x0721      |        1825 |
|     401 | 0xFFFFF30E  |  4294963982 |
|     402 | 0xFFFEE0D6  |  4294893782 |
|     403 | 0x0722      |        1826 |
|     404 | 0xFFFFF088  |  4294963336 |
|     405 | 0xFFFEDB9A  |  4294892442 |
|     406 | 0x000E      |          14 |
|     407 | 0x2068      |        8296 |
|     408 | 0x2069      |        8297 |
|     409 | 0x206A      |        8298 |
|     410 | 0x206B      |        8299 |
|     411 | 0x206C      |        8300 |
|     412 | 0x0067      |         103 |
|     413 | 0x206D      |        8301 |
|     414 | 0x000A      |          10 |
|     415 | 0x008C      |         140 |
|     416 | 0x206E      |        8302 |
|     417 | 0x206F      |        8303 |
|     418 | 0x2070      |        8304 |
|     419 | 0x01FE      |         510 |
|     420 | 0x2071      |        8305 |
|     421 | 0xFFFFFE64  |  4294966884 |
|     422 | 0xFFFEF2C2  |  4294898370 |
|     423 | 0x2072      |        8306 |
|     424 | 0x2073      |        8307 |
|     425 | 0x2074      |        8308 |
|     426 | 0x2075      |        8309 |
|     427 | 0x2076      |        8310 |
|     428 | 0x2077      |        8311 |
|     429 | 0x2078      |        8312 |
|     430 | 0x2079      |        8313 |
|     431 | 0x207A      |        8314 |
|     432 | 0x207B      |        8315 |
|     433 | 0x207C      |        8316 |
|     434 | 0x207D      |        8317 |
|     435 | 0x207E      |        8318 |
|     436 | 0x207F      |        8319 |
|     437 | 0x2080      |        8320 |
|     438 | 0x2081      |        8321 |
|     439 | 0x2082      |        8322 |
|     440 | 0x0193      |         403 |
|     441 | 0xFFFEF6DE  |  4294899422 |
|     442 | 0x0AF8      |        2808 |
|     443 | 0xFFFFF851  |  4294965329 |
|     444 | 0xFFFF03CD  |  4294902733 |
|     445 | 0xFFFFFFC2  |  4294967234 |
|     446 | 0xFFFF0331  |  4294902577 |
|     447 | 0xFFFFF88D  |  4294965389 |
|     448 | 0xFFFEF023  |  4294897699 |
|     449 | 0xFFFFFE28  |  4294966824 |
|     450 | 0xFFFEF184  |  4294898052 |
|     451 | 0xFFFFF324  |  4294964004 |
|     452 | 0xFFFEF2B0  |  4294898352 |
|     453 | 0xFFFFF95D  |  4294965597 |
|     454 | 0xFFFF013E  |  4294902078 |
|     455 | 0x2083      |        8323 |
|     456 | 0x2084      |        8324 |
|     457 | 0x2085      |        8325 |
|     458 | 0x0115      |         277 |
|     459 | 0x2086      |        8326 |
|     460 | 0x2087      |        8327 |
|     461 | 0x2088      |        8328 |
|     462 | 0x2089      |        8329 |
|     463 | 0x208A      |        8330 |
|     464 | 0x208B      |        8331 |
|     465 | 0x208C      |        8332 |
|     466 | 0x039A      |         922 |
|     467 | 0x208D      |        8333 |
|     468 | 0x208E      |        8334 |
|     469 | 0x208F      |        8335 |
|     470 | 0x2090      |        8336 |
|     471 | 0x2091      |        8337 |
|     472 | 0x2092      |        8338 |
|     473 | 0x2093      |        8339 |
|     474 | 0x2094      |        8340 |
|     475 | 0x039E      |         926 |
|     476 | 0x2095      |        8341 |
|     477 | 0x2096      |        8342 |
|     478 | 0x2097      |        8343 |
|     479 | 0x0399      |         921 |
|     480 | 0x2098      |        8344 |
|     481 | 0x2099      |        8345 |
|     482 | 0x209A      |        8346 |
|     483 | 0x209B      |        8347 |
|     484 | 0x03A7      |         935 |
|     485 | 0x209C      |        8348 |
|     486 | 0x03A0      |         928 |
|     487 | 0x209D      |        8349 |
|     488 | 0x209E      |        8350 |
|     489 | 0x209F      |        8351 |
|     490 | 0x0258      |         600 |
|     491 | 0x20A0      |        8352 |
|     492 | 0x20A1      |        8353 |
|     493 | 0x20A2      |        8354 |
|     494 | 0x20A3      |        8355 |
|     495 | 0x20A4      |        8356 |
|     496 | 0x20A5      |        8357 |
|     497 | 0x20A6      |        8358 |
|     498 | 0x20A7      |        8359 |
|     499 | 0x20A8      |        8360 |
|     500 | 0x0008      |           8 |
|     501 | 0x20A9      |        8361 |
|     502 | 0x20AA      |        8362 |
|     503 | 0x20AB      |        8363 |
|     504 | 0x001A      |          26 |
|     505 | 0x20AD      |        8365 |
|     506 | 0x20AE      |        8366 |
|     507 | 0x20AC      |        8364 |
|     508 | 0x3BD8      |       15320 |
|     509 | 0xFFFF1116  |  4294906134 |
|     510 | 0xFFFFE891  |  4294961297 |
|     511 | 0x03F0      |        1008 |
|     512 | 0x0366      |         870 |
|     513 | 0x22D8      |        8920 |
|     514 | 0x22D9      |        8921 |
|     515 | 0x22DA      |        8922 |
|     516 | 0x22DB      |        8923 |
|     517 | 0x22DC      |        8924 |
|     518 | 0x22DD      |        8925 |
|     519 | 0x22DE      |        8926 |
|     520 | 0x22DF      |        8927 |
|     521 | 0x22E0      |        8928 |
|     522 | 0x22E1      |        8929 |
|     523 | 0x22E2      |        8930 |
|     524 | 0x22E3      |        8931 |
|     525 | 0x22E4      |        8932 |
|     526 | 0x22E5      |        8933 |
|     527 | 0x22E6      |        8934 |
|     528 | 0x22E7      |        8935 |
|     529 | 0x22E8      |        8936 |
|     530 | 0x22E9      |        8937 |
|     531 | 0x0002      |           2 |
|     532 | 0x0004      |           4 |
|     533 | 0x0007      |           7 |
|     534 | 0x22EA      |        8938 |
|     535 | 0x22EB      |        8939 |
|     536 | 0x22EC      |        8940 |
|     537 | 0x22ED      |        8941 |
|     538 | 0x22EE      |        8942 |
|     539 | 0x22EF      |        8943 |
|     540 | 0x22F0      |        8944 |
|     541 | 0x22F1      |        8945 |
|     542 | 0x22F2      |        8946 |
|     543 | 0x22F3      |        8947 |
|     544 | 0x22F4      |        8948 |
|     545 | 0x22F5      |        8949 |
|     546 | 0x0024      |          36 |
|     547 | 0x22F6      |        8950 |
|     548 | 0x0200      |         512 |
|     549 | 0xFFFEB9A0  |  4294883744 |
|     550 | 0x0B83      |        2947 |
|     551 | 0xFFFFFCFE  |  4294966526 |
|     552 | 0xFFFEB83C  |  4294883388 |
|     553 | 0x0F50      |        3920 |
|     554 | 0x02C2      |         706 |
|     555 | 0xFFFF0C88  |  4294904968 |
|     556 | 0x0C56      |        3158 |
|     557 | 0x2C38      |       11320 |
|     558 | 0xFFFE6D58  |  4294864216 |
|     559 | 0x07CF      |        1999 |
|     560 | 0x03C7      |         967 |
|     561 | 0x22F7      |        8951 |
|     562 | 0x22F8      |        8952 |
|     563 | 0x22F9      |        8953 |
|     564 | 0x22FA      |        8954 |
|     565 | 0x22FB      |        8955 |
|     566 | 0x22FC      |        8956 |
|     567 | 0x22FD      |        8957 |
|     568 | 0x22FE      |        8958 |
|     569 | 0x22FF      |        8959 |
|     570 | 0x2300      |        8960 |
|     571 | 0x2301      |        8961 |
|     572 | 0x2302      |        8962 |
|     573 | 0x2303      |        8963 |
|     574 | 0x2305      |        8965 |
|     575 | 0x2306      |        8966 |
|     576 | 0x2307      |        8967 |
|     577 | 0x2308      |        8968 |
|     578 | 0xFFFFF6D6  |  4294964950 |
|     579 | 0xFFFEC664  |  4294887012 |
|     580 | 0x0BBC      |        3004 |
|     581 | 0xFFFFFB59  |  4294966105 |
|     582 | 0xFFFEC57C  |  4294886780 |
|     583 | 0x03BC      |         956 |
|     584 | 0x00B3      |         179 |
|     585 | 0x2309      |        8969 |
|     586 | 0x230A      |        8970 |
|     587 | 0x230B      |        8971 |
|     588 | 0x230C      |        8972 |
|     589 | 0x088B      |        2187 |
|     590 | 0x230D      |        8973 |
|     591 | 0x230E      |        8974 |
|     592 | 0x230F      |        8975 |
|     593 | 0x2310      |        8976 |
|     594 | 0x00A2      |         162 |
|     595 | 0x2311      |        8977 |
|     596 | 0x2312      |        8978 |
|     597 | 0x2313      |        8979 |
|     598 | 0x2314      |        8980 |
|     599 | 0x2315      |        8981 |
|     600 | 0x2316      |        8982 |
|     601 | 0x2317      |        8983 |
|     602 | 0x2318      |        8984 |
|     603 | 0x2319      |        8985 |
|     604 | 0x231A      |        8986 |
|     605 | 0x231B      |        8987 |
|     606 | 0x231C      |        8988 |
|     607 | 0x231D      |        8989 |
|     608 | 0x231E      |        8990 |
|     609 | 0x231F      |        8991 |
|     610 | 0x2320      |        8992 |
|     611 | 0x2321      |        8993 |
|     612 | 0x2322      |        8994 |
|     613 | 0x2323      |        8995 |
|     614 | 0x0012      |          18 |
|     615 | 0x2324      |        8996 |
|     616 | 0x2325      |        8997 |
|     617 | 0x0105      |         261 |
|     618 | 0x2326      |        8998 |
|     619 | 0x2327      |        8999 |
|     620 | 0x2328      |        9000 |
|     621 | 0x00FF      |         255 |
|     622 | 0x033E      |         830 |
|     623 | 0x0112      |         274 |
|     624 | 0x021C      |         540 |
|     625 | 0x038F      |         911 |
|     626 | 0x2329      |        9001 |
|     627 | 0x232A      |        9002 |
|     628 | 0x0375      |         885 |
|     629 | 0x00F0      |         240 |
|     630 | 0x07D0      |        2000 |
|     631 | 0x3743      |       14147 |
|     632 | 0xFFFFFBFB  |  4294966267 |
|     633 | 0x58AC      |       22700 |
|     634 | 0xFFFF4DE9  |  4294921705 |
|     635 | 0x6B80      |       27520 |
|     636 | 0xFFFF4E0A  |  4294921738 |
|     637 | 0x0834      |        2100 |
|     638 | 0x0133      |         307 |
|     639 | 0x237A      |        9082 |
|     640 | 0x237B      |        9083 |
|     641 | 0x237C      |        9084 |
|     642 | 0x237D      |        9085 |
|     643 | 0x237E      |        9086 |
|     644 | 0x237F      |        9087 |
|     645 | 0x2380      |        9088 |
|     646 | 0x2381      |        9089 |
|     647 | 0x2382      |        9090 |
|     648 | 0x2383      |        9091 |
|     649 | 0x2384      |        9092 |
|     650 | 0x2385      |        9093 |
|     651 | 0x2386      |        9094 |
|     652 | 0x2387      |        9095 |
|     653 | 0x2388      |        9096 |
|     654 | 0x2389      |        9097 |
|     655 | 0x238A      |        9098 |
|     656 | 0x238B      |        9099 |
|     657 | 0x238C      |        9100 |
|     658 | 0x238D      |        9101 |
|     659 | 0x238E      |        9102 |
|     660 | 0x238F      |        9103 |
|     661 | 0x2390      |        9104 |
|     662 | 0xFFFFF9D4  |  4294965716 |
|     663 | 0xB863      |       47203 |
|     664 | 0x0DBA      |        3514 |
|     665 | 0x0616      |        1558 |
|     666 | 0xB8E0      |       47328 |
|     667 | 0x0AF1      |        2801 |
|     668 | 0xC1CD      |       49613 |
|     669 | 0x03FF      |        1023 |
|     670 | 0x140C      |        5132 |
|     671 | 0xA281      |       41601 |
|     672 | 0x2391      |        9105 |
|     673 | 0x2392      |        9106 |
|     674 | 0x2393      |        9107 |
|     675 | 0x2394      |        9108 |
|     676 | 0x2395      |        9109 |
|     677 | 0x0419      |        1049 |
|     678 | 0x2396      |        9110 |
|     679 | 0x2397      |        9111 |
|     680 | 0x2398      |        9112 |
|     681 | 0x2399      |        9113 |
|     682 | 0x239A      |        9114 |
|     683 | 0x239B      |        9115 |
|     684 | 0x239C      |        9116 |
|     685 | 0x239D      |        9117 |
|     686 | 0x239E      |        9118 |
|     687 | 0x239F      |        9119 |
|     688 | 0x23A0      |        9120 |
|     689 | 0x23A1      |        9121 |
|     690 | 0x23A2      |        9122 |
|     691 | 0x23A3      |        9123 |
|     692 | 0x23A4      |        9124 |
|     693 | 0x23A5      |        9125 |
|     694 | 0x23A6      |        9126 |
|     695 | 0x0041      |          65 |
|     696 | 0x23A7      |        9127 |
|     697 | 0x23A8      |        9128 |
|     698 | 0x23A9      |        9129 |
|     699 | 0x23AA      |        9130 |
|     700 | 0x23AB      |        9131 |
|     701 | 0x0026      |          38 |
|     702 | 0x0094      |         148 |
|     703 | 0x23AC      |        9132 |
|     704 | 0x23AD      |        9133 |
|     705 | 0x23AE      |        9134 |
|     706 | 0x23AF      |        9135 |
|     707 | 0x23B0      |        9136 |
|     708 | 0x23B1      |        9137 |
|     709 | 0x23B2      |        9138 |
|     710 | 0x23B3      |        9139 |
|     711 | 0x23B4      |        9140 |
|     712 | 0x23B5      |        9141 |
|     713 | 0x23B6      |        9142 |
|     714 | 0x23B7      |        9143 |
|     715 | 0xFFFFF689  |  4294964873 |
|     716 | 0xC1D3      |       49619 |
|     717 | 0x23B8      |        9144 |
|     718 | 0x23B9      |        9145 |
|     719 | 0x23BA      |        9146 |
|     720 | 0x23BB      |        9147 |
|     721 | 0x23BC      |        9148 |
|     722 | 0x23BD      |        9149 |
|     723 | 0x23BE      |        9150 |
|     724 | 0x23BF      |        9151 |
|     725 | 0x23C0      |        9152 |
|     726 | 0x23C1      |        9153 |
|     727 | 0x23C2      |        9154 |
|     728 | 0x23C3      |        9155 |
|     729 | 0x23C4      |        9156 |
|     730 | 0x23C5      |        9157 |
|     731 | 0x23C6      |        9158 |
|     732 | 0x23C7      |        9159 |
|     733 | 0x23C8      |        9160 |
|     734 | 0x23C9      |        9161 |
|     735 | 0x23CA      |        9162 |
|     736 | 0x23CB      |        9163 |
|     737 | 0x23CC      |        9164 |
|     738 | 0x23CD      |        9165 |
|     739 | 0x23CE      |        9166 |
|     740 | 0x23CF      |        9167 |
|     741 | 0x23D0      |        9168 |
|     742 | 0x23D1      |        9169 |
|     743 | 0x23D2      |        9170 |
|     744 | 0x23D3      |        9171 |
|     745 | 0x23D4      |        9172 |
|     746 | 0x23D5      |        9173 |
|     747 | 0x23D6      |        9174 |
|     748 | 0x64EE      |       25838 |
|     749 | 0xFFFF496C  |  4294920556 |
|     750 | 0x0342      |         834 |
|     751 | 0x23D7      |        9175 |
|     752 | 0x23D8      |        9176 |
|     753 | 0x23D9      |        9177 |
|     754 | 0x23DA      |        9178 |
|     755 | 0x23DB      |        9179 |
|     756 | 0x23DC      |        9180 |
|     757 | 0x23DD      |        9181 |
|     758 | 0x23DE      |        9182 |
|     759 | 0x23DF      |        9183 |
|     760 | 0x23E0      |        9184 |
|     761 | 0x23E1      |        9185 |
|     762 | 0x23E2      |        9186 |
|     763 | 0x23E3      |        9187 |
|     764 | 0x23E4      |        9188 |
|     765 | 0x23E5      |        9189 |
|     766 | 0x23E6      |        9190 |
|     767 | 0x00AC      |         172 |
|     768 | 0x23E7      |        9191 |
|     769 | 0x23E8      |        9192 |
|     770 | 0x23E9      |        9193 |
|     771 | 0x23EA      |        9194 |
|     772 | 0x23EB      |        9195 |
|     773 | 0x23EC      |        9196 |
|     774 | 0x23ED      |        9197 |
|     775 | 0x23EE      |        9198 |
|     776 | 0x23EF      |        9199 |
|     777 | 0x0016      |          22 |
|     778 | 0x23F0      |        9200 |
|     779 | 0x23F1      |        9201 |
|     780 | 0x23F2      |        9202 |
|     781 | 0x23F3      |        9203 |
|     782 | 0x23F4      |        9204 |
|     783 | 0x23F5      |        9205 |
|     784 | 0x23F6      |        9206 |
|     785 | 0x23F7      |        9207 |
|     786 | 0x23F8      |        9208 |
|     787 | 0x23F9      |        9209 |
|     788 | 0x23FA      |        9210 |
|     789 | 0x23FB      |        9211 |
|     790 | 0x23FC      |        9212 |
|     791 | 0x23FD      |        9213 |
|     792 | 0x23FE      |        9214 |
|     793 | 0x23FF      |        9215 |
|     794 | 0x2400      |        9216 |
|     795 | 0x2401      |        9217 |
|     796 | 0x2402      |        9218 |
|     797 | 0x2403      |        9219 |
|     798 | 0x2404      |        9220 |
|     799 | 0x2405      |        9221 |
|     800 | 0x2406      |        9222 |
|     801 | 0x2407      |        9223 |
|     802 | 0x2408      |        9224 |
|     803 | 0x2409      |        9225 |
|     804 | 0x240A      |        9226 |
|     805 | 0x240B      |        9227 |
|     806 | 0x240C      |        9228 |
|     807 | 0x240D      |        9229 |
|     808 | 0x240E      |        9230 |
|     809 | 0x2413      |        9235 |
|     810 | 0x2414      |        9236 |
|     811 | 0x240F      |        9231 |
|     812 | 0x2410      |        9232 |
|     813 | 0x2411      |        9233 |
|     814 | 0x2412      |        9234 |
|     815 | 0x0050      |          80 |
|     816 | 0x826C      |       33388 |
|     817 | 0xFFFF2F93  |  4294913939 |
|     818 | 0xFFFFE633  |  4294960691 |
|     819 | 0x2415      |        9237 |
|     820 | 0x2416      |        9238 |
|     821 | 0x2417      |        9239 |
|     822 | 0x2418      |        9240 |
|     823 | 0x2419      |        9241 |
|     824 | 0x65A9      |       26025 |
|     825 | 0xFFFF523B  |  4294922811 |
|     826 | 0x241A      |        9242 |
|     827 | 0x03AB      |         939 |
|     828 | 0x043A      |        1082 |
|     829 | 0x241B      |        9243 |
|     830 | 0x241C      |        9244 |
|     831 | 0x241D      |        9245 |
|     832 | 0x241E      |        9246 |
|     833 | 0x241F      |        9247 |
|     834 | 0x2420      |        9248 |
|     835 | 0x2421      |        9249 |
|     836 | 0x2422      |        9250 |
|     837 | 0x2351      |        9041 |
|     838 | 0x63F7      |       25591 |
|     839 | 0xFFFF4DB8  |  4294921656 |
|     840 | 0x080A      |        2058 |
|     841 | 0x013D      |         317 |
|     842 | 0x2434      |        9268 |
|     843 | 0x2435      |        9269 |
|     844 | 0x2436      |        9270 |
|     845 | 0x2437      |        9271 |
|     846 | 0x2438      |        9272 |
|     847 | 0x2439      |        9273 |
|     848 | 0x243A      |        9274 |
|     849 | 0x243B      |        9275 |
|     850 | 0x243C      |        9276 |
|     851 | 0x243D      |        9277 |
|     852 | 0x243E      |        9278 |
|     853 | 0x243F      |        9279 |
|     854 | 0x2440      |        9280 |
|     855 | 0x2441      |        9281 |
|     856 | 0x2442      |        9282 |
|     857 | 0x2443      |        9283 |
|     858 | 0x2444      |        9284 |
|     859 | 0x2445      |        9285 |
|     860 | 0x2446      |        9286 |
|     861 | 0x6410      |       25616 |
|     862 | 0xFFFF4801  |  4294920193 |
|     863 | 0x0911      |        2321 |
|     864 | 0x2447      |        9287 |
|     865 | 0x2448      |        9288 |
|     866 | 0x2449      |        9289 |
|     867 | 0x244A      |        9290 |
|     868 | 0x244B      |        9291 |
|     869 | 0x244C      |        9292 |
|     870 | 0x244D      |        9293 |
|     871 | 0x244E      |        9294 |
|     872 | 0x244F      |        9295 |
|     873 | 0x2450      |        9296 |
|     874 | 0x2451      |        9297 |
|     875 | 0x2452      |        9298 |
|     876 | 0x2453      |        9299 |
|     877 | 0x0477      |        1143 |
|     878 | 0x2454      |        9300 |
|     879 | 0x2455      |        9301 |
|     880 | 0x2456      |        9302 |
|     881 | 0x2457      |        9303 |
|     882 | 0x2458      |        9304 |
|     883 | 0x2459      |        9305 |
|     884 | 0x245A      |        9306 |
|     885 | 0x245B      |        9307 |
|     886 | 0x245C      |        9308 |
|     887 | 0x245D      |        9309 |
|     888 | 0x245E      |        9310 |
|     889 | 0x245F      |        9311 |
|     890 | 0x2460      |        9312 |
|     891 | 0x2461      |        9313 |
|     892 | 0x2462      |        9314 |
|     893 | 0x0FAA      |        4010 |
|     894 | 0xFFFF19C2  |  4294908354 |
|     895 | 0xFFFF996D  |  4294941037 |
|     896 | 0x0839      |        2105 |
|     897 | 0xFFFF184C  |  4294907980 |
|     898 | 0x0E0B      |        3595 |
|     899 | 0x0177      |         375 |
|     900 | 0xFFFF43F6  |  4294919158 |
|     901 | 0x041F      |        1055 |
|     902 | 0xFFFFF0C8  |  4294963400 |
|     903 | 0xFFFF2CC4  |  4294913220 |
|     904 | 0xFFFF958A  |  4294940042 |
|     905 | 0xFFFF2090  |  4294910096 |
|     906 | 0x0423      |        1059 |
|     907 | 0x0436      |        1078 |
|     908 | 0x0429      |        1065 |
|     909 | 0x2463      |        9315 |
|     910 | 0x2464      |        9316 |
|     911 | 0x2465      |        9317 |
|     912 | 0x2466      |        9318 |
|     913 | 0x2467      |        9319 |
|     914 | 0x2468      |        9320 |
|     915 | 0x0447      |        1095 |
|     916 | 0x2469      |        9321 |
|     917 | 0x080D      |        2061 |
|     918 | 0xFFFF2A1C  |  4294912540 |
|     919 | 0x028A      |         650 |
|     920 | 0x246A      |        9322 |
|     921 | 0x0354      |         852 |
|     922 | 0x246B      |        9323 |
|     923 | 0x246C      |        9324 |
|     924 | 0x246D      |        9325 |
|     925 | 0x246E      |        9326 |
|     926 | 0x246F      |        9327 |
|     927 | 0x2470      |        9328 |
|     928 | 0x2471      |        9329 |
|     929 | 0x2472      |        9330 |
|     930 | 0x2473      |        9331 |
|     931 | 0x2474      |        9332 |
|     932 | 0x00C9      |         201 |
|     933 | 0x00D7      |         215 |

## Events

### Event 65535

#### Metadata

| Field        | Value   |
|--------------|---------|
| Entrypoint   | 0x0000  |
| Data Size    | 1 bytes |
| Instructions | 1       |

```
      00 01 02 03 04 05 06 07  08 09 0A 0B 0C 0D 0E 0F
      -- -- -- -- -- -- -- --  -- -- -- -- -- -- -- --
0000: 00                                                .               
```

#### Opcodes

```
  0: 0x0000 [0x00] END_REQSTACK()
```

### Event 3078

#### Metadata

| Field        | Value      |
|--------------|------------|
| Entrypoint   | 0x0001     |
| Data Size    | 9364 bytes |
| Instructions | 1146       |

```
      00 01 02 03 04 05 06 07  08 09 0A 0B 0C 0D 0E 0F
      -- -- -- -- -- -- -- --  -- -- -- -- -- -- -- --
0000:    42 03 01 00 09 10 1A  44 9C 46 01 38 00 80 79   B......D.F.8..y
0010: 00 F0 FF FF 7F F0 FF FF  7F 27 10 CE 20 03 01 02  .........'.. ...
0020: 92 01 8C 20 03 01 92 01  CE 20 03 01 92 01 5E 20  ... ..... ....^ 
0030: 03 01 92 01 5F 20 03 01  94 01 F0 FF FF 7F 94 01  ...._ ..........
0040: 8C 20 03 01 94 01 CE 20  03 01 29 10 F0 FF FF 7F  . ..... ..).....
0050: 4B 29 10 8C 20 03 01 7F  29 10 CE 20 03 01 17 29  K).. ...).. ...)
0060: 10 8C 20 03 01 22 80 F0  FF FF 7F 80 8C 20 03 01  .. .."....... ..
0070: 80 CE 20 03 01 80 5E 20  03 01 80 5F 20 03 01 5B  .. ...^ ..._ ..[
0080: 01 80 CE 20 03 01 CE 20  03 01 73 68 61 6C 5C 00  ... ... ..shal\.
0090: 02 80 5C 01 02 80 9A 1C  03 80 45 04 80 F0 FF FF  ..\.......E.....
00A0: 7F F0 FF FF 7F 30 63 30  30 05 80 1C 06 80 27 10  .....0c00.....'.
00B0: F0 FF FF 7F 4C 1A 23 9C  27 10 5E 20 03 01 03 29  ....L.#.'.^ ...)
00C0: 10 5F 20 03 01 03 55 04  80 F0 FF FF 7F F0 FF FF  ._ ...U.........
00D0: 7F 30 63 30 30 45 04 80  F0 FF FF 7F F0 FF FF 7F  .0c00E..........
00E0: 30 63 30 31 05 80 2B 5E  20 03 01 07 80 23 2B 5E  0c01..+^ ....#+^
00F0: 20 03 01 08 80 23 52 04  80 F0 FF FF 7F F0 FF FF   ....#R.........
0100: 7F 30 63 30 31 45 04 80  F0 FF FF 7F F0 FF FF 7F  .0c01E..........
0110: 30 63 30 32 05 80 66 05  80 5E 20 03 01 5E 20 03  0c02..f..^ ..^ .
0120: 01 64 69 73 30 2B 5E 20  03 01 09 80 23 52 04 80  .dis0+^ ....#R..
0130: F0 FF FF 7F F0 FF FF 7F  30 63 30 32 45 04 80 F0  ........0c02E...
0140: FF FF 7F F0 FF FF 7F 30  63 30 33 05 80 79 00 5E  .......0c03..y.^
0150: 20 03 01 8C 20 03 01 79  00 5F 20 03 01 8C 20 03   ... ..y._ ... .
0160: 01 4A F0 FF FF 7F 8C 20  03 01 2B 11 21 03 01 0A  .J..... ..+.!...
0170: 80 23 55 04 80 F0 FF FF  7F F0 FF FF 7F 30 63 30  .#U..........0c0
0180: 33 27 10 8C 20 03 01 80  1C 03 80 45 04 80 F0 FF  3'.. ......E....
0190: FF 7F F0 FF FF 7F 30 63  30 34 05 80 27 10 F0 FF  ......0c04..'...
01A0: FF 7F 4D 2B 8C 20 03 01  0B 80 23 2A 10 8C 20 03  ..M+. ....#*.. .
01B0: 01 52 04 80 F0 FF FF 7F  F0 FF FF 7F 30 63 30 34  .R..........0c04
01C0: 45 04 80 F0 FF FF 7F F0  FF FF 7F 30 63 30 35 05  E..........0c05.
01D0: 80 4A 5E 20 03 01 8C 20  03 01 2B 5E 20 03 01 0C  .J^ ... ..+^ ...
01E0: 80 23 66 05 80 5E 20 03  01 5E 20 03 01 74 6C 6B  .#f..^ ..^ ..tlk
01F0: 30 2B 5E 20 03 01 0D 80  23 66 05 80 5E 20 03 01  0+^ ....#f..^ ..
0200: 5E 20 03 01 74 65 6E 30  52 04 80 F0 FF FF 7F F0  ^ ..ten0R.......
0210: FF FF 7F 30 63 30 35 45  04 80 F0 FF FF 7F F0 FF  ...0c05E........
0220: FF 7F 30 63 30 36 05 80  7C 00 8C 20 03 01 2B 8C  ..0c06..|.. ..+.
0230: 20 03 01 0E 80 23 7C 01  8C 20 03 01 5B 0F 80 8C   ....#|.. ..[...
0240: 20 03 01 8C 20 03 01 74  68 6B 31 2B 8C 20 03 01   ... ..thk1+. ..
0250: 10 80 23 52 04 80 F0 FF  FF 7F F0 FF FF 7F 30 63  ..#R..........0c
0260: 30 36 45 04 80 F0 FF FF  7F F0 FF FF 7F 30 63 30  06E..........0c0
0270: 37 05 80 2B 8C 20 03 01  11 80 23 52 04 80 F0 FF  7..+. ....#R....
0280: FF 7F F0 FF FF 7F 30 63  30 37 45 04 80 F0 FF FF  ......0c07E.....
0290: 7F F0 FF FF 7F 30 63 30  38 05 80 2B 8C 20 03 01  .....0c08..+. ..
02A0: 12 80 23 52 04 80 F0 FF  FF 7F F0 FF FF 7F 30 63  ..#R..........0c
02B0: 30 38 45 04 80 F0 FF FF  7F F0 FF FF 7F 30 63 30  08E..........0c0
02C0: 39 05 80 5B 0F 80 8C 20  03 01 8C 20 03 01 74 68  9..[... ... ..th
02D0: 6B 32 53 8C 20 03 01 8C  20 03 01 74 68 6B 32 2B  k2S. ... ..thk2+
02E0: 8C 20 03 01 13 80 23 52  04 80 F0 FF FF 7F F0 FF  . ....#R........
02F0: FF 7F 30 63 30 39 45 04  80 F0 FF FF 7F F0 FF FF  ..0c09E.........
0300: 7F 30 63 31 30 05 80 5B  0F 80 8C 20 03 01 8C 20  .0c10..[... ... 
0310: 03 01 74 6C 6B 31 2B 8C  20 03 01 14 80 23 52 04  ..tlk1+. ....#R.
0320: 80 F0 FF FF 7F F0 FF FF  7F 30 63 31 30 45 04 80  .........0c10E..
0330: F0 FF FF 7F F0 FF FF 7F  30 63 31 31 05 80 5B 0F  ........0c11..[.
0340: 80 8C 20 03 01 8C 20 03  01 74 6C 6B 32 79 00 8C  .. ... ..tlk2y..
0350: 20 03 01 5E 20 03 01 2B  8C 20 03 01 15 80 23 2B   ..^ ..+. ....#+
0360: 5E 20 03 01 16 80 23 52  04 80 F0 FF FF 7F F0 FF  ^ ....#R........
0370: FF 7F 30 63 31 31 45 04  80 F0 FF FF 7F F0 FF FF  ..0c11E.........
0380: 7F 30 63 31 32 05 80 27  10 8C 20 03 01 81 2B 8C  .0c12..'.. ...+.
0390: 20 03 01 17 80 23 2B 5E  20 03 01 18 80 23 2A 10   ....#+^ ....#*.
03A0: 8C 20 03 01 29 10 5E 20  03 01 05 4A F0 FF FF 7F  . ..).^ ...J....
03B0: 5E 20 03 01 7B 8C 20 03  01 66 05 80 5E 20 03 01  ^ ..{. ..f..^ ..
03C0: 5E 20 03 01 74 68 6B 31  53 5E 20 03 01 5E 20 03  ^ ..thk1S^ ..^ .
03D0: 01 74 68 6B 31 1C 19 80  66 05 80 5E 20 03 01 5E  .thk1...f..^ ..^
03E0: 20 03 01 74 68 6B 32 1C  03 80 2B 5E 20 03 01 1A   ..thk2...+^ ...
03F0: 80 23 2B 5E 20 03 01 1B  80 23 52 04 80 F0 FF FF  .#+^ ....#R.....
0400: 7F F0 FF FF 7F 30 63 31  32 45 04 80 F0 FF FF 7F  .....0c12E......
0410: F0 FF FF 7F 30 63 31 33  05 80 29 10 5E 20 03 01  ....0c13..).^ ..
0420: 06 52 04 80 F0 FF FF 7F  F0 FF FF 7F 30 63 31 33  .R..........0c13
0430: 45 04 80 F0 FF FF 7F F0  FF FF 7F 30 63 31 34 05  E..........0c14.
0440: 80 1C 03 80 2B 8C 20 03  01 1C 80 23 27 10 12 21  ....+. ....#'..!
0450: 03 01 5E 27 10 11 21 03  01 55 9F 1D 80 CE 20 03  ..^'..!..U.... .
0460: 01 CE 20 03 01 6D 61 69  6E 05 80 2B CE 20 03 01  .. ..main..+. ..
0470: 1E 80 52 04 80 F0 FF FF  7F F0 FF FF 7F 30 63 31  ..R..........0c1
0480: 34 45 04 80 F0 FF FF 7F  F0 FF FF 7F 30 63 31 35  4E..........0c15
0490: 05 80 79 00 F0 FF FF 7F  CE 20 03 01 1C 06 80 4A  ..y...... .....J
04A0: 8C 20 03 01 CE 20 03 01  6F 76 8C 20 03 01 1C 19  . ... ..ov. ....
04B0: 80 2B 8C 20 03 01 1F 80  23 52 04 80 F0 FF FF 7F  .+. ....#R......
04C0: F0 FF FF 7F 30 63 31 35  45 04 80 F0 FF FF 7F F0  ....0c15E.......
04D0: FF FF 7F 30 63 31 36 05  80 2B CE 20 03 01 20 80  ...0c16..+. .. .
04E0: 23 2B CE 20 03 01 21 80  23 2B CE 20 03 01 22 80  #+. ..!.#+. ..".
04F0: 23 52 04 80 F0 FF FF 7F  F0 FF FF 7F 30 63 31 36  #R..........0c16
0500: 45 04 80 F0 FF FF 7F F0  FF FF 7F 30 63 31 37 05  E..........0c17.
0510: 80 2B CE 20 03 01 23 80  23 2B CE 20 03 01 24 80  .+. ..#.#+. ..$.
0520: 23 79 00 8C 20 03 01 8C  20 03 01 81 00 8C 20 03  #y.. ... ..... .
0530: 01 5B 25 80 8C 20 03 01  8C 20 03 01 6E 69 72 30  .[%.. ... ..nir0
0540: 52 04 80 F0 FF FF 7F F0  FF FF 7F 30 63 31 37 45  R..........0c17E
0550: 04 80 F0 FF FF 7F F0 FF  FF 7F 30 63 31 38 05 80  ..........0c18..
0560: 2B CE 20 03 01 26 80 23  2B CE 20 03 01 27 80 23  +. ..&.#+. ..'.#
0570: 52 04 80 F0 FF FF 7F F0  FF FF 7F 30 63 31 38 45  R..........0c18E
0580: 04 80 F0 FF FF 7F F0 FF  FF 7F 30 63 31 39 05 80  ..........0c19..
0590: 5D 05 80 19 80 2B CE 20  03 01 28 80 23 5C 00 29  ]....+. ..(.#\.)
05A0: 80 5C 01 29 80 9A 55 04  80 F0 FF FF 7F F0 FF FF  .\.)..U.........
05B0: 7F 30 63 31 39 45 04 80  F0 FF FF 7F F0 FF FF 7F  .0c19E..........
05C0: 30 63 32 30 05 80 79 00  F0 FF FF 7F 8C 20 03 01  0c20..y...... ..
05D0: 1C 2A 80 6E F0 FF FF 7F  2B 80 99 F0 FF FF 7F 55  .*.n....+......U
05E0: 04 80 F0 FF FF 7F F0 FF  FF 7F 30 63 32 30 45 04  ..........0c20E.
05F0: 80 F0 FF FF 7F F0 FF FF  7F 30 63 32 31 05 80 1C  .........0c21...
0600: 19 80 2B CE 20 03 01 2C  80 23 5D 05 80 2D 80 27  ..+. ..,.#]..-.'
0610: 10 5E 20 03 01 07 1C 2E  80 52 04 80 F0 FF FF 7F  .^ ......R......
0620: F0 FF FF 7F 30 63 32 31  45 04 80 F0 FF FF 7F F0  ....0c21E.......
0630: FF FF 7F 30 63 32 32 05  80 2A 10 5E 20 03 01 6B  ...0c22..*.^ ..k
0640: 64 66 74 30 8C 20 03 01  2B 5E 20 03 01 2F 80 23  dft0. ..+^ ../.#
0650: 5C 00 30 80 5C 01 30 80  9A 27 10 8C 20 03 01 82  \.0.\.0..'.. ...
0660: 5B 01 80 CE 20 03 01 CE  20 03 01 73 68 61 31 4A  [... ... ..sha1J
0670: 5E 20 03 01 CE 20 03 01  27 10 F0 FF FF 7F 4E 7C  ^ ... ..'.....N|
0680: 00 5E 20 03 01 2B 5E 20  03 01 31 80 23 7C 01 5E  .^ ..+^ ..1.#|.^
0690: 20 03 01 52 04 80 F0 FF  FF 7F F0 FF FF 7F 30 63   ..R..........0c
06A0: 32 32 45 04 80 F0 FF FF  7F F0 FF FF 7F 30 63 32  22E..........0c2
06B0: 34 05 80 29 10 5E 20 03  01 08 4A F0 FF FF 7F CE  4..).^ ...J.....
06C0: 20 03 01 2B 5E 20 03 01  32 80 23 52 04 80 F0 FF   ..+^ ..2.#R....
06D0: FF 7F F0 FF FF 7F 30 63  32 34 45 04 80 F0 FF FF  ......0c24E.....
06E0: 7F F0 FF FF 7F 30 63 32  35 05 80 4A CE 20 03 01  .....0c25..J. ..
06F0: 5E 20 03 01 6F 76 CE 20  03 01 2B CE 20 03 01 33  ^ ..ov. ..+. ..3
0700: 80 23 52 04 80 F0 FF FF  7F F0 FF FF 7F 30 63 32  .#R..........0c2
0710: 35 45 04 80 F0 FF FF 7F  F0 FF FF 7F 30 63 32 36  5E..........0c26
0720: 05 80 27 10 CE 20 03 01  18 1C 06 80 29 10 5E 20  ..'.. ......).^ 
0730: 03 01 09 4A CE 20 03 01  5E 20 03 01 6F 76 CE 20  ...J. ..^ ..ov. 
0740: 03 01 2B 5E 20 03 01 34  80 23 5B 35 80 CE 20 03  ..+^ ..4.#[5.. .
0750: 01 CE 20 03 01 6F 64 6F  30 1C 03 80 2B CE 20 03  .. ..odo0...+. .
0760: 01 36 80 23 53 CE 20 03  01 CE 20 03 01 6F 64 6F  .6.#S. ... ..odo
0770: 30 52 04 80 F0 FF FF 7F  F0 FF FF 7F 30 63 32 36  0R..........0c26
0780: 45 04 80 F0 FF FF 7F F0  FF FF 7F 30 63 32 37 05  E..........0c27.
0790: 80 4A 8C 20 03 01 CE 20  03 01 6F 76 8C 20 03 01  .J. ... ..ov. ..
07A0: 5B 35 80 CE 20 03 01 CE  20 03 01 6F 64 6F 31 66  [5.. ... ..odo1f
07B0: 05 80 5E 20 03 01 5E 20  03 01 64 69 73 30 2B 5E  ..^ ..^ ..dis0+^
07C0: 20 03 01 37 80 23 4A F0  FF FF 7F 8C 20 03 01 52   ..7.#J..... ..R
07D0: 04 80 F0 FF FF 7F F0 FF  FF 7F 30 63 32 37 45 04  ..........0c27E.
07E0: 80 F0 FF FF 7F F0 FF FF  7F 30 63 32 38 05 80 1C  .........0c28...
07F0: 03 80 4A CE 20 03 01 8C  20 03 01 4A 5E 20 03 01  ..J. ... ..J^ ..
0800: 8C 20 03 01 2B 8C 20 03  01 38 80 23 5B 0F 80 8C  . ..+. ..8.#[...
0810: 20 03 01 8C 20 03 01 74  68 6B 31 1C 03 80 52 04   ... ..thk1...R.
0820: 80 F0 FF FF 7F F0 FF FF  7F 30 63 32 38 45 04 80  .........0c28E..
0830: F0 FF FF 7F F0 FF FF 7F  30 63 32 39 05 80 2B 8C  ........0c29..+.
0840: 20 03 01 39 80 23 4A F0  FF FF 7F CE 20 03 01 2B   ..9.#J..... ..+
0850: 8C 20 03 01 3A 80 23 52  04 80 F0 FF FF 7F F0 FF  . ..:.#R........
0860: FF 7F 30 63 32 39 45 04  80 F0 FF FF 7F F0 FF FF  ..0c29E.........
0870: 7F 30 63 33 30 05 80 5B  0F 80 8C 20 03 01 8C 20  .0c30..[... ... 
0880: 03 01 74 68 6B 32 53 8C  20 03 01 8C 20 03 01 74  ..thk2S. ... ..t
0890: 68 6B 32 2B 8C 20 03 01  3B 80 23 5D 05 80 19 80  hk2+. ..;.#]....
08A0: 81 00 8C 20 03 01 5B 3C  80 8C 20 03 01 8C 20 03  ... ..[<.. ... .
08B0: 01 67 6D 69 30 1C 03 80  52 04 80 F0 FF FF 7F F0  .gmi0...R.......
08C0: FF FF 7F 30 63 33 30 45  04 80 F0 FF FF 7F F0 FF  ...0c30E........
08D0: FF 7F 30 63 33 31 05 80  2B 8C 20 03 01 3D 80 23  ..0c31..+. ..=.#
08E0: 52 04 80 F0 FF FF 7F F0  FF FF 7F 30 63 33 31 45  R..........0c31E
08F0: 04 80 F0 FF FF 7F F0 FF  FF 7F 30 63 33 32 05 80  ..........0c32..
0900: 5B 35 80 CE 20 03 01 CE  20 03 01 6F 64 6F 30 2B  [5.. ... ..odo0+
0910: 8C 20 03 01 3E 80 23 52  04 80 F0 FF FF 7F F0 FF  . ..>.#R........
0920: FF 7F 30 63 33 32 45 04  80 F0 FF FF 7F F0 FF FF  ..0c32E.........
0930: 7F 30 63 33 33 05 80 2B  8C 20 03 01 3F 80 23 52  .0c33..+. ..?.#R
0940: 04 80 F0 FF FF 7F F0 FF  FF 7F 30 63 33 33 45 04  ..........0c33E.
0950: 80 F0 FF FF 7F F0 FF FF  7F 30 63 33 34 05 80 4A  .........0c34..J
0960: 5E 20 03 01 5F 20 03 01  6F 76 5E 20 03 01 66 05  ^ .._ ..ov^ ..f.
0970: 80 5F 20 03 01 5F 20 03  01 64 69 73 30 6E F0 FF  ._ .._ ..dis0n..
0980: FF 7F 40 80 99 F0 FF FF  7F 99 F0 FF FF 7F 1C 03  ..@.............
0990: 80 66 05 80 5E 20 03 01  5E 20 03 01 64 69 73 30  .f..^ ..^ ..dis0
09A0: 55 04 80 F0 FF FF 7F F0  FF FF 7F 30 63 33 34 45  U..........0c34E
09B0: 04 80 F0 FF FF 7F F0 FF  FF 7F 30 63 33 35 05 80  ..........0c35..
09C0: 5B 01 80 CE 20 03 01 CE  20 03 01 6B 6F 6D 30 1C  [... ... ..kom0.
09D0: 19 80 2B CE 20 03 01 41  80 23 1A 44 9C 1C 19 80  ..+. ..A.#.D....
09E0: 52 04 80 F0 FF FF 7F F0  FF FF 7F 30 63 33 35 45  R..........0c35E
09F0: 42 80 F0 FF FF 7F F0 FF  FF 7F 30 62 6C 66 05 80  B.........0blf..
0A00: 6B 69 64 6C 30 8C 20 03  01 29 10 8C 20 03 01 25  kidl0. ..).. ..%
0A10: 27 10 CE 20 03 01 05 1C  06 80 34 43 80 77 05 80  '.. ......4C.w..
0A20: 44 80 1C 03 80 4E 01 1E  20 03 01 AB 09 27 10 A8  D....N.. ....'..
0A30: 20 03 01 02 27 10 C5 20  03 01 04 27 10 C6 20 03   ...'.. ...'.. .
0A40: 01 04 27 10 C7 20 03 01  04 27 10 C4 20 03 01 04  ..'.. ...'.. ...
0A50: 27 10 1A 21 03 01 04 4E  01 5E 20 03 01 4E 01 5F  '..!...N.^ ..N._
0A60: 20 03 01 92 01 A8 20 03  01 92 01 C5 20 03 01 92   ..... ..... ...
0A70: 01 C6 20 03 01 92 01 C7  20 03 01 92 01 C4 20 03  .. ..... ..... .
0A80: 01 92 01 1A 21 03 01 94  01 F0 FF FF 7F 94 01 A8  ....!...........
0A90: 20 03 01 94 01 C5 20 03  01 94 01 C6 20 03 01 94   ..... ..... ...
0AA0: 01 C7 20 03 01 94 01 C4  20 03 01 94 01 1A 21 03  .. ..... .....!.
0AB0: 01 94 01 8C 20 03 01 29  10 C5 20 03 01 0C 29 10  .... ..).. ...).
0AC0: C6 20 03 01 0C 29 10 C4  20 03 01 0C 29 10 C7 20  . ...).. ...).. 
0AD0: 03 01 10 29 10 1A 21 03  01 0C 29 10 8C 20 03 01  ...)..!...).. ..
0AE0: 83 29 10 F0 FF FF 7F 4F  29 10 8C 20 03 01 22 80  .).....O).. ..".
0AF0: C5 20 03 01 80 C6 20 03  01 80 C4 20 03 01 80 C7  . .... .... ....
0B00: 20 03 01 80 1A 21 03 01  80 8C 20 03 01 80 F0 FF   ....!.... .....
0B10: FF 7F 29 10 F0 FF FF 7F  03 1C 06 80 66 00 80 C6  ..).........f...
0B20: 20 03 01 C6 20 03 01 61  6F 30 6C 5B 45 80 C5 20   ... ..ao0l[E.. 
0B30: 03 01 C5 20 03 01 73 74  61 6C 5B 45 80 1A 21 03  ... ..stal[E..!.
0B40: 01 1A 21 03 01 73 74 61  6C 81 00 8C 20 03 01 5B  ..!..stal... ..[
0B50: 46 80 8C 20 03 01 8C 20  03 01 61 6B 61 30 53 8C  F.. ... ..aka0S.
0B60: 20 03 01 8C 20 03 01 61  6B 61 30 48 47 80 23 5C   ... ..aka0HG.#\
0B70: 00 48 80 5C 01 48 80 9A  1C 06 80 45 04 80 F0 FF  .H.\.H.....E....
0B80: FF 7F F0 FF FF 7F 31 63  30 30 05 80 45 49 80 F0  ......1c00..EI..
0B90: FF FF 7F F0 FF FF 7F 66  64 69 32 05 80 55 04 80  .......fdi2..U..
0BA0: F0 FF FF 7F F0 FF FF 7F  31 63 30 30 45 04 80 F0  ........1c00E...
0BB0: FF FF 7F F0 FF FF 7F 31  63 30 31 05 80 1C 03 80  .......1c01.....
0BC0: 2B A8 20 03 01 4A 80 23  27 10 F0 FF FF 7F 04 81  +. ..J.#'.......
0BD0: 01 8C 20 03 01 5B 46 80  8C 20 03 01 8C 20 03 01  .. ..[F.. ... ..
0BE0: 61 6B 61 31 53 8C 20 03  01 8C 20 03 01 61 6B 61  aka1S. ... ..aka
0BF0: 31 52 04 80 F0 FF FF 7F  F0 FF FF 7F 31 63 30 31  1R..........1c01
0C00: 45 04 80 F0 FF FF 7F F0  FF FF 7F 31 63 30 32 05  E..........1c02.
0C10: 80 2B A8 20 03 01 4B 80  23 2B A8 20 03 01 4C 80  .+. ..K.#+. ..L.
0C20: 23 52 04 80 F0 FF FF 7F  F0 FF FF 7F 31 63 30 32  #R..........1c02
0C30: 45 04 80 F0 FF FF 7F F0  FF FF 7F 31 63 30 34 05  E..........1c04.
0C40: 80 1C 03 80 2B A8 20 03  01 4D 80 23 52 04 80 F0  ....+. ..M.#R...
0C50: FF FF 7F F0 FF FF 7F 31  63 30 34 45 04 80 F0 FF  .......1c04E....
0C60: FF 7F F0 FF FF 7F 31 63  30 35 05 80 81 00 8C 20  ......1c05..... 
0C70: 03 01 5B 46 80 8C 20 03  01 8C 20 03 01 61 6B 61  ..[F.. ... ..aka
0C80: 30 1C 03 80 2B 8C 20 03  01 4E 80 23 1C 19 80 2B  0...+. ..N.#...+
0C90: A8 20 03 01 4F 80 23 7C  00 8C 20 03 01 2B 8C 20  . ..O.#|.. ..+. 
0CA0: 03 01 50 80 23 52 04 80  F0 FF FF 7F F0 FF FF 7F  ..P.#R..........
0CB0: 31 63 30 35 45 04 80 F0  FF FF 7F F0 FF FF 7F 31  1c05E..........1
0CC0: 63 30 36 05 80 7C 01 8C  20 03 01 81 01 8C 20 03  c06..|.. ..... .
0CD0: 01 5B 46 80 8C 20 03 01  8C 20 03 01 61 6B 61 31  .[F.. ... ..aka1
0CE0: 1C 03 80 2B A8 20 03 01  51 80 23 52 04 80 F0 FF  ...+. ..Q.#R....
0CF0: FF 7F F0 FF FF 7F 31 63  30 36 45 04 80 F0 FF FF  ......1c06E.....
0D00: 7F F0 FF FF 7F 31 63 30  37 05 80 1C 19 80 2B A8  .....1c07.....+.
0D10: 20 03 01 52 80 23 52 04  80 F0 FF FF 7F F0 FF FF   ..R.#R.........
0D20: 7F 31 63 30 37 45 04 80  F0 FF FF 7F F0 FF FF 7F  .1c07E..........
0D30: 31 63 30 38 05 80 4A C7  20 03 01 A8 20 03 01 6F  1c08..J. ... ..o
0D40: 76 C7 20 03 01 5B 53 80  C7 20 03 01 C7 20 03 01  v. ..[S.. ... ..
0D50: 74 6C 6B 30 2B C7 20 03  01 54 80 23 52 04 80 F0  tlk0+. ..T.#R...
0D60: FF FF 7F F0 FF FF 7F 31  63 30 38 45 04 80 F0 FF  .......1c08E....
0D70: FF 7F F0 FF FF 7F 31 63  30 39 05 80 2B C7 20 03  ......1c09..+. .
0D80: 01 55 80 23 5B 53 80 C7  20 03 01 C7 20 03 01 74  .U.#[S.. ... ..t
0D90: 6C 6B 31 2B C7 20 03 01  56 80 23 52 04 80 F0 FF  lk1+. ..V.#R....
0DA0: FF 7F F0 FF FF 7F 31 63  30 39 45 04 80 F0 FF FF  ......1c09E.....
0DB0: 7F F0 FF FF 7F 31 63 31  30 05 80 2B C7 20 03 01  .....1c10..+. ..
0DC0: 57 80 23 5B 58 80 C7 20  03 01 C7 20 03 01 79 61  W.#[X.. ... ..ya
0DD0: 68 30 1C 2A 80 2B C7 20  03 01 59 80 23 52 04 80  h0.*.+. ..Y.#R..
0DE0: F0 FF FF 7F F0 FF FF 7F  31 63 31 30 45 04 80 F0  ........1c10E...
0DF0: FF FF 7F F0 FF FF 7F 31  63 31 31 05 80 1C 19 80  .......1c11.....
0E00: 2B 11 21 03 01 5A 80 23  52 04 80 F0 FF FF 7F F0  +.!..Z.#R.......
0E10: FF FF 7F 31 63 31 31 45  04 80 F0 FF FF 7F F0 FF  ...1c11E........
0E20: FF 7F 31 63 31 32 05 80  5D 5B 80 19 80 2B C5 20  ..1c12..][...+. 
0E30: 03 01 5C 80 23 2B C5 20  03 01 5D 80 23 52 04 80  ..\.#+. ..].#R..
0E40: F0 FF FF 7F F0 FF FF 7F  31 63 31 32 45 04 80 F0  ........1c12E...
0E50: FF FF 7F F0 FF FF 7F 31  63 31 33 05 80 1C 2E 80  .......1c13.....
0E60: 2B C6 20 03 01 5E 80 23  52 04 80 F0 FF FF 7F F0  +. ..^.#R.......
0E70: FF FF 7F 31 63 31 33 45  04 80 F0 FF FF 7F F0 FF  ...1c13E........
0E80: FF 7F 31 63 31 34 05 80  27 10 C7 20 03 01 11 2B  ..1c14..'.. ...+
0E90: C6 20 03 01 5F 80 23 2B  C5 20 03 01 60 80 23 2A  . .._.#+. ..`.#*
0EA0: 10 C7 20 03 01 52 04 80  F0 FF FF 7F F0 FF FF 7F  .. ..R..........
0EB0: 31 63 31 34 45 04 80 F0  FF FF 7F F0 FF FF 7F 31  1c14E..........1
0EC0: 63 31 35 05 80 2B C6 20  03 01 61 80 23 5B 53 80  c15..+. ..a.#[S.
0ED0: C7 20 03 01 C7 20 03 01  74 68 6B 30 2B C5 20 03  . ... ..thk0+. .
0EE0: 01 62 80 23 52 04 80 F0  FF FF 7F F0 FF FF 7F 31  .b.#R..........1
0EF0: 63 31 35 45 04 80 F0 FF  FF 7F F0 FF FF 7F 31 63  c15E..........1c
0F00: 31 36 05 80 2B C5 20 03  01 63 80 23 5B 53 80 C7  16..+. ..c.#[S..
0F10: 20 03 01 C7 20 03 01 74  68 6B 31 2B C6 20 03 01   ... ..thk1+. ..
0F20: 64 80 23 52 04 80 F0 FF  FF 7F F0 FF FF 7F 31 63  d.#R..........1c
0F30: 31 36 45 04 80 F0 FF FF  7F F0 FF FF 7F 31 63 31  16E..........1c1
0F40: 37 05 80 5D 65 80 19 80  4A C7 20 03 01 C5 20 03  7..]e...J. ... .
0F50: 01 6F 76 C7 20 03 01 5B  58 80 C7 20 03 01 C7 20  .ov. ..[X.. ... 
0F60: 03 01 73 69 6C 30 2B C7  20 03 01 66 80 23 53 C7  ..sil0+. ..f.#S.
0F70: 20 03 01 C7 20 03 01 73  69 6C 30 52 04 80 F0 FF   ... ..sil0R....
0F80: FF 7F F0 FF FF 7F 31 63  31 37 45 04 80 F0 FF FF  ......1c17E.....
0F90: 7F F0 FF FF 7F 31 63 31  38 05 80 5B 67 80 C4 20  .....1c18..[g.. 
0FA0: 03 01 C4 20 03 01 74 6C  6B 30 1C 2A 80 2B 11 21  ... ..tlk0.*.+.!
0FB0: 03 01 68 80 23 52 04 80  F0 FF FF 7F F0 FF FF 7F  ..h.#R..........
0FC0: 31 63 31 38 45 04 80 F0  FF FF 7F F0 FF FF 7F 31  1c18E..........1
0FD0: 63 31 39 05 80 27 10 C7  20 03 01 12 5B 67 80 C4  c19..'.. ...[g..
0FE0: 20 03 01 C4 20 03 01 74  6C 6B 31 2B A8 20 03 01   ... ..tlk1+. ..
0FF0: 69 80 23 29 10 F0 FF FF  7F 03 52 04 80 F0 FF FF  i.#)......R.....
1000: 7F F0 FF FF 7F 31 63 31  39 45 04 80 F0 FF FF 7F  .....1c19E......
1010: F0 FF FF 7F 31 63 32 30  05 80 2B A8 20 03 01 6A  ....1c20..+. ..j
1020: 80 23 2B A8 20 03 01 6B  80 23 27 10 C4 20 03 01  .#+. ..k.#'.. ..
1030: 0D 1C 6C 80 1A 44 9C 1C  03 80 2A 10 C4 20 03 01  ..l..D....*.. ..
1040: 29 10 C4 20 03 01 0E 1C  06 80 27 10 C4 20 03 01  ).. ......'.. ..
1050: 0F 52 04 80 F0 FF FF 7F  F0 FF FF 7F 31 63 32 30  .R..........1c20
1060: 45 04 80 F0 FF FF 7F F0  FF FF 7F 31 63 32 31 05  E..........1c21.
1070: 80 1A 23 9C 2A 10 C4 20  03 01 2B C4 20 03 01 6D  ..#.*.. ..+. ..m
1080: 80 23 52 04 80 F0 FF FF  7F F0 FF FF 7F 31 63 32  .#R..........1c2
1090: 31 45 04 80 F0 FF FF 7F  F0 FF FF 7F 31 63 32 32  1E..........1c22
10A0: 05 80 5B 67 80 C4 20 03  01 C4 20 03 01 70 61 73  ..[g.. ... ..pas
10B0: 30 1C 2D 80 93 6E 80 03  02 10 6E 80 48 6F 80 23  0.-..n....n.Ho.#
10C0: 53 C4 20 03 01 C4 20 03  01 70 61 73 30 1C 03 80  S. ... ..pas0...
10D0: 52 04 80 F0 FF FF 7F F0  FF FF 7F 31 63 32 32 45  R..........1c22E
10E0: 04 80 F0 FF FF 7F F0 FF  FF 7F 31 63 32 33 05 80  ..........1c23..
10F0: 29 10 C4 20 03 01 10 29  10 F0 FF FF 7F 04 03 02  ).. ...)........
1100: 10 6E 80 2B A8 20 03 01  70 80 23 93 05 80 1C 19  .n.+. ..p.#.....
1110: 80 52 04 80 F0 FF FF 7F  F0 FF FF 7F 31 63 32 33  .R..........1c23
1120: 45 04 80 F0 FF FF 7F F0  FF FF 7F 31 63 32 34 05  E..........1c24.
1130: 80 2B A8 20 03 01 71 80  23 1C 19 80 52 04 80 F0  .+. ..q.#...R...
1140: FF FF 7F F0 FF FF 7F 31  63 32 34 45 04 80 F0 FF  .......1c24E....
1150: FF 7F F0 FF FF 7F 31 63  32 35 05 80 2B A8 20 03  ......1c25..+. .
1160: 01 72 80 23 1C 19 80 5D  05 80 73 80 52 04 80 F0  .r.#...]..s.R...
1170: FF FF 7F F0 FF FF 7F 31  63 32 35 45 04 80 F0 FF  .......1c25E....
1180: FF 7F F0 FF FF 7F 31 63  32 36 05 80 2B A8 20 03  ......1c26..+. .
1190: 01 74 80 23 1C 6C 80 1A  44 9C 1C 19 80 4E 01 8C  .t.#.l..D....N..
11A0: 20 03 01 4E 01 F0 FF FF  7F 27 10 C5 20 03 01 05   ..N.....'.. ...
11B0: 27 10 C6 20 03 01 05 27  10 1A 21 03 01 05 27 10  '.. ...'..!...'.
11C0: C8 20 03 01 04 27 10 A9  20 03 01 04 92 01 C8 20  . ...'.. ...... 
11D0: 03 01 92 01 A9 20 03 01  94 01 C8 20 03 01 94 01  ..... ..... ....
11E0: A9 20 03 01 29 10 C4 20  03 01 11 29 10 C7 20 03  . ..).. ...).. .
11F0: 01 13 29 10 C8 20 03 01  13 29 10 A9 20 03 01 17  ..).. ...).. ...
1200: 80 C4 20 03 01 80 C7 20  03 01 80 C8 20 03 01 80  .. .... .... ...
1210: A9 20 03 01 5C 00 05 80  5C 01 05 80 9A 5B 75 80  . ..\...\....[u.
1220: C8 20 03 01 C8 20 03 01  73 68 62 6C 48 47 80 23  . ... ..shblHG.#
1230: 1C 03 80 52 04 80 F0 FF  FF 7F F0 FF FF 7F 31 63  ...R..........1c
1240: 32 36 45 04 80 F0 FF FF  7F F0 FF FF 7F 32 63 30  26E..........2c0
1250: 30 05 80 45 49 80 F0 FF  FF 7F F0 FF FF 7F 66 64  0..EI.........fd
1260: 69 32 05 80 5B 53 80 C7  20 03 01 C7 20 03 01 74  i2..[S.. ... ..t
1270: 68 6B 30 2B C7 20 03 01  76 80 23 2B C7 20 03 01  hk0+. ..v.#+. ..
1280: 77 80 23 52 04 80 F0 FF  FF 7F F0 FF FF 7F 32 63  w.#R..........2c
1290: 30 30 45 04 80 F0 FF FF  7F F0 FF FF 7F 32 63 30  00E..........2c0
12A0: 31 05 80 2B C4 20 03 01  78 80 23 5B 53 80 C7 20  1..+. ..x.#[S.. 
12B0: 03 01 C7 20 03 01 74 68  6B 31 2B C7 20 03 01 79  ... ..thk1+. ..y
12C0: 80 23 53 C7 20 03 01 C7  20 03 01 74 68 6B 31 52  .#S. ... ..thk1R
12D0: 04 80 F0 FF FF 7F F0 FF  FF 7F 32 63 30 31 45 04  ..........2c01E.
12E0: 80 F0 FF FF 7F F0 FF FF  7F 32 63 30 32 05 80 5B  .........2c02..[
12F0: 53 80 C7 20 03 01 C7 20  03 01 74 6C 6B 30 2B C7  S.. ... ..tlk0+.
1300: 20 03 01 7A 80 23 5B 53  80 C7 20 03 01 C7 20 03   ..z.#[S.. ... .
1310: 01 74 6C 6B 31 2B C7 20  03 01 7B 80 23 53 C7 20  .tlk1+. ..{.#S. 
1320: 03 01 C7 20 03 01 74 6C  6B 31 52 04 80 F0 FF FF  ... ..tlk1R.....
1330: 7F F0 FF FF 7F 32 63 30  32 45 04 80 F0 FF FF 7F  .....2c02E......
1340: F0 FF FF 7F 32 63 30 33  05 80 5B 53 80 C7 20 03  ....2c03..[S.. .
1350: 01 C7 20 03 01 74 75 6E  30 2B C7 20 03 01 7C 80  .. ..tun0+. ..|.
1360: 23 52 04 80 F0 FF FF 7F  F0 FF FF 7F 32 63 30 33  #R..........2c03
1370: 45 04 80 F0 FF FF 7F F0  FF FF 7F 32 63 30 34 05  E..........2c04.
1380: 80 1C 03 80 2B C4 20 03  01 7D 80 23 52 04 80 F0  ....+. ..}.#R...
1390: FF FF 7F F0 FF FF 7F 32  63 30 34 45 04 80 F0 FF  .......2c04E....
13A0: FF 7F F0 FF FF 7F 32 63  30 35 05 80 1C 19 80 2B  ......2c05.....+
13B0: C7 20 03 01 7E 80 23 52  04 80 F0 FF FF 7F F0 FF  . ..~.#R........
13C0: FF 7F 32 63 30 35 45 04  80 F0 FF FF 7F F0 FF FF  ..2c05E.........
13D0: 7F 32 63 30 36 05 80 5B  53 80 C7 20 03 01 C7 20  .2c06..[S.. ... 
13E0: 03 01 74 75 6E 31 5B 67  80 C4 20 03 01 C4 20 03  ..tun1[g.. ... .
13F0: 01 74 6C 6B 30 1C 03 80  2B C4 20 03 01 7F 80 23  .tlk0...+. ....#
1400: 5B 67 80 C4 20 03 01 C4  20 03 01 74 6C 6B 31 4B  [g.. ... ..tlk1K
1410: C7 20 03 01 05 80 6F 76  C7 20 03 01 5B 58 80 C7  . ....ov. ..[X..
1420: 20 03 01 C7 20 03 01 79  61 68 30 2B C7 20 03 01   ... ..yah0+. ..
1430: 80 80 23 53 C7 20 03 01  C7 20 03 01 79 61 68 30  ..#S. ... ..yah0
1440: 52 04 80 F0 FF FF 7F F0  FF FF 7F 32 63 30 36 45  R..........2c06E
1450: 04 80 F0 FF FF 7F F0 FF  FF 7F 32 63 30 37 05 80  ..........2c07..
1460: 5B 53 80 C7 20 03 01 C7  20 03 01 74 6C 6B 30 2B  [S.. ... ..tlk0+
1470: C7 20 03 01 81 80 23 2B  C7 20 03 01 82 80 23 52  . ....#+. ....#R
1480: 04 80 F0 FF FF 7F F0 FF  FF 7F 32 63 30 37 45 04  ..........2c07E.
1490: 80 F0 FF FF 7F F0 FF FF  7F 32 63 30 38 05 80 5B  .........2c08..[
14A0: 53 80 C7 20 03 01 C7 20  03 01 74 6C 6B 31 53 C7  S.. ... ..tlk1S.
14B0: 20 03 01 C7 20 03 01 74  6C 6B 31 2B C7 20 03 01   ... ..tlk1+. ..
14C0: 83 80 23 2B C7 20 03 01  84 80 23 52 04 80 F0 FF  ..#+. ....#R....
14D0: FF 7F F0 FF FF 7F 32 63  30 38 45 04 80 F0 FF FF  ......2c08E.....
14E0: 7F F0 FF FF 7F 32 63 30  39 05 80 4B C7 20 03 01  .....2c09..K. ..
14F0: 85 80 6F 76 C7 20 03 01  5D 05 80 2D 80 2B C7 20  ..ov. ..]..-.+. 
1500: 03 01 86 80 23 55 04 80  F0 FF FF 7F F0 FF FF 7F  ....#U..........
1510: 32 63 30 39 45 04 80 F0  FF FF 7F F0 FF FF 7F 32  2c09E..........2
1520: 63 31 30 05 80 1C 19 80  2B C4 20 03 01 87 80 23  c10.....+. ....#
1530: 52 04 80 F0 FF FF 7F F0  FF FF 7F 32 63 31 30 45  R..........2c10E
1540: 04 80 F0 FF FF 7F F0 FF  FF 7F 32 63 31 31 05 80  ..........2c11..
1550: 2B C7 20 03 01 88 80 23  5C 00 89 80 5C 01 89 80  +. ....#\...\...
1560: 9A 5B 53 80 C7 20 03 01  C7 20 03 01 74 68 6B 30  .[S.. ... ..thk0
1570: 1C 2E 80 2B C7 20 03 01  8A 80 23 53 C7 20 03 01  ...+. ....#S. ..
1580: C7 20 03 01 74 68 6B 30  4B C4 20 03 01 05 80 6F  . ..thk0K. ....o
1590: 76 C4 20 03 01 5B 67 80  C4 20 03 01 C4 20 03 01  v. ..[g.. ... ..
15A0: 74 6C 6B 30 1C 2A 80 2B  C4 20 03 01 8B 80 23 5B  tlk0.*.+. ....#[
15B0: 67 80 C4 20 03 01 C4 20  03 01 74 6C 6B 31 52 04  g.. ... ..tlk1R.
15C0: 80 F0 FF FF 7F F0 FF FF  7F 32 63 31 31 45 04 80  .........2c11E..
15D0: F0 FF FF 7F F0 FF FF 7F  32 63 31 32 05 80 5B 53  ........2c12..[S
15E0: 80 C7 20 03 01 C7 20 03  01 74 6C 6B 31 4B C7 20  .. ... ..tlk1K. 
15F0: 03 01 05 80 6F 76 C7 20  03 01 2B C7 20 03 01 8C  ....ov. ..+. ...
1600: 80 23 52 04 80 F0 FF FF  7F F0 FF FF 7F 32 63 31  .#R..........2c1
1610: 32 45 04 80 F0 FF FF 7F  F0 FF FF 7F 32 63 31 33  2E..........2c13
1620: 05 80 5D 05 80 19 80 4B  C4 20 03 01 85 80 4B C7  ..]....K. ....K.
1630: 20 03 01 85 80 5B 75 80  C8 20 03 01 C8 20 03 01   ....[u.. ... ..
1640: 73 68 62 31 2B C4 20 03  01 8D 80 27 10 A9 20 03  shb1+. ....'.. .
1650: 01 18 1C 2E 80 52 04 80  F0 FF FF 7F F0 FF FF 7F  .....R..........
1660: 32 63 31 33 45 04 80 F0  FF FF 7F F0 FF FF 7F 32  2c13E..........2
1670: 63 31 34 05 80 6B 69 64  6C 30 C8 20 03 01 4B C8  c14..kidl0. ..K.
1680: 20 03 01 05 80 2A 10 A9  20 03 01 27 10 42 20 03   ....*.. ..'.B .
1690: 01 02 1C 19 80 27 10 C8  20 03 01 14 52 04 80 F0  .....'.. ...R...
16A0: FF FF 7F F0 FF FF 7F 32  63 31 34 45 04 80 F0 FF  .......2c14E....
16B0: FF 7F F0 FF FF 7F 32 63  31 35 05 80 1C 03 80 4A  ......2c15.....J
16C0: C4 20 03 01 C7 20 03 01  4A C7 20 03 01 C4 20 03  . ... ..J. ... .
16D0: 01 2B C7 20 03 01 8E 80  1C 2E 80 52 04 80 F0 FF  .+. .......R....
16E0: FF 7F F0 FF FF 7F 32 63  31 35 45 04 80 F0 FF FF  ......2c15E.....
16F0: 7F F0 FF FF 7F 32 63 31  36 05 80 5B 67 80 C4 20  .....2c16..[g.. 
1700: 03 01 C4 20 03 01 70 61  30 31 5B 67 80 C7 20 03  ... ..pa01[g.. .
1710: 01 C7 20 03 01 70 61 30  31 29 10 A9 20 03 01 19  .. ..pa01).. ...
1720: 81 00 A9 20 03 01 5B 8F  80 A9 20 03 01 A9 20 03  ... ..[... ... .
1730: 01 75 64 65 30 27 10 42  20 03 01 03 1C 19 80 7C  .ude0'.B ......|
1740: 00 A9 20 03 01 2B A9 20  03 01 90 80 23 7C 01 A9  .. ..+. ....#|..
1750: 20 03 01 1A 44 9C 1C 06  80 29 10 A9 20 03 01 1A   ...D....).. ...
1760: 29 10 C8 20 03 01 15 5C  00 91 80 5C 01 91 80 9A  ).. ...\...\....
1770: 48 47 80 23 1C 06 80 81  01 A9 20 03 01 27 10 A9  HG.#...... ..'..
1780: 20 03 01 1B 52 04 80 F0  FF FF 7F F0 FF FF 7F 32   ...R..........2
1790: 63 31 36 45 04 80 F0 FF  FF 7F F0 FF FF 7F 32 63  c16E..........2c
17A0: 31 38 05 80 45 49 80 F0  FF FF 7F F0 FF FF 7F 66  18..EI.........f
17B0: 64 69 32 05 80 1C 2D 80  2B A8 20 03 01 92 80 23  di2...-.+. ....#
17C0: 2A 10 A9 20 03 01 52 04  80 F0 FF FF 7F F0 FF FF  *.. ..R.........
17D0: 7F 32 63 31 38 45 04 80  F0 FF FF 7F F0 FF FF 7F  .2c18E..........
17E0: 32 63 31 39 05 80 1C 19  80 2B A9 20 03 01 93 80  2c19.....+. ....
17F0: 23 52 04 80 F0 FF FF 7F  F0 FF FF 7F 32 63 31 39  #R..........2c19
1800: 45 04 80 F0 FF FF 7F F0  FF FF 7F 32 63 32 30 05  E..........2c20.
1810: 80 1C 03 80 2B A8 20 03  01 94 80 23 2A 10 A9 20  ....+. ....#*.. 
1820: 03 01 5B 45 80 A9 20 03  01 A9 20 03 01 74 68 6B  ..[E.. ... ..thk
1830: 30 1C 03 80 2B A9 20 03  01 95 80 23 52 04 80 F0  0...+. ....#R...
1840: FF FF 7F F0 FF FF 7F 32  63 32 30 45 04 80 F0 FF  .......2c20E....
1850: FF 7F F0 FF FF 7F 32 63  32 31 05 80 1C 19 80 2B  ......2c21.....+
1860: A8 20 03 01 96 80 23 52  04 80 F0 FF FF 7F F0 FF  . ....#R........
1870: FF 7F 32 63 32 31 45 04  80 F0 FF FF 7F F0 FF FF  ..2c21E.........
1880: 7F 32 63 32 32 05 80 5B  45 80 A9 20 03 01 A9 20  .2c22..[E.. ... 
1890: 03 01 74 68 6B 31 2B A9  20 03 01 97 80 23 52 04  ..thk1+. ....#R.
18A0: 80 F0 FF FF 7F F0 FF FF  7F 32 63 32 32 45 04 80  .........2c22E..
18B0: F0 FF FF 7F F0 FF FF 7F  32 63 32 33 05 80 1C 19  ........2c23....
18C0: 80 2B A8 20 03 01 98 80  23 53 A9 20 03 01 A9 20  .+. ....#S. ... 
18D0: 03 01 74 68 6B 31 81 00  A9 20 03 01 5B 8F 80 A9  ..thk1... ..[...
18E0: 20 03 01 A9 20 03 01 6F  65 30 30 6B 64 66 74 30   ... ..oe00kdft0
18F0: C7 20 03 01 6B 64 66 74  30 C4 20 03 01 1C 19 80  . ..kdft0. .....
1900: 2B A9 20 03 01 99 80 23  53 A9 20 03 01 A9 20 03  +. ....#S. ... .
1910: 01 6F 65 30 30 52 04 80  F0 FF FF 7F F0 FF FF 7F  .oe00R..........
1920: 32 63 32 33 45 04 80 F0  FF FF 7F F0 FF FF 7F 32  2c23E..........2
1930: 63 32 34 05 80 1C 03 80  2B A9 20 03 01 9A 80 23  c24.....+. ....#
1940: 52 04 80 F0 FF FF 7F F0  FF FF 7F 32 63 32 34 45  R..........2c24E
1950: 04 80 F0 FF FF 7F F0 FF  FF 7F 32 63 32 35 05 80  ..........2c25..
1960: 6B 69 64 6C 30 A9 20 03  01 4A C4 20 03 01 A9 20  kidl0. ..J. ... 
1970: 03 01 1C 03 80 5B 58 80  C7 20 03 01 C7 20 03 01  .....[X.. ... ..
1980: 73 69 6C 30 2B A9 20 03  01 9B 80 23 53 C7 20 03  sil0+. ....#S. .
1990: 01 C7 20 03 01 73 69 6C  30 52 04 80 F0 FF FF 7F  .. ..sil0R......
19A0: F0 FF FF 7F 32 63 32 35  45 04 80 F0 FF FF 7F F0  ....2c25E.......
19B0: FF FF 7F 32 63 32 36 05  80 5B 45 80 A9 20 03 01  ...2c26..[E.. ..
19C0: A9 20 03 01 73 74 62 30  2B A9 20 03 01 9C 80 23  . ..stb0+. ....#
19D0: 2B A9 20 03 01 9D 80 23  52 04 80 F0 FF FF 7F F0  +. ....#R.......
19E0: FF FF 7F 32 63 32 36 45  04 80 F0 FF FF 7F F0 FF  ...2c26E........
19F0: FF 7F 32 63 32 37 05 80  2B A9 20 03 01 9E 80 23  ..2c27..+. ....#
1A00: 5B 45 80 A9 20 03 01 A9  20 03 01 73 74 62 31 2B  [E.. ... ..stb1+
1A10: A9 20 03 01 9F 80 23 53  A9 20 03 01 A9 20 03 01  . ....#S. ... ..
1A20: 73 74 62 31 52 04 80 F0  FF FF 7F F0 FF FF 7F 32  stb1R..........2
1A30: 63 32 37 45 04 80 F0 FF  FF 7F F0 FF FF 7F 32 63  c27E..........2c
1A40: 32 38 05 80 1C 2D 80 2B  A9 20 03 01 A0 80 23 5B  28...-.+. ....#[
1A50: 45 80 A9 20 03 01 A9 20  03 01 73 74 61 30 2B A9  E.. ... ..sta0+.
1A60: 20 03 01 A1 80 23 52 04  80 F0 FF FF 7F F0 FF FF   ....#R.........
1A70: 7F 32 63 32 38 45 04 80  F0 FF FF 7F F0 FF FF 7F  .2c28E..........
1A80: 32 63 32 39 05 80 2B A9  20 03 01 A2 80 23 2B A9  2c29..+. ....#+.
1A90: 20 03 01 A3 80 23 52 04  80 F0 FF FF 7F F0 FF FF   ....#R.........
1AA0: 7F 32 63 32 39 45 04 80  F0 FF FF 7F F0 FF FF 7F  .2c29E..........
1AB0: 32 63 33 30 05 80 1C 19  80 5B 45 80 A9 20 03 01  2c30.....[E.. ..
1AC0: A9 20 03 01 73 74 61 31  2B A8 20 03 01 92 80 23  . ..sta1+. ....#
1AD0: 2B A8 20 03 01 A4 80 23  52 04 80 F0 FF FF 7F F0  +. ....#R.......
1AE0: FF FF 7F 32 63 33 30 45  04 80 F0 FF FF 7F F0 FF  ...2c30E........
1AF0: FF 7F 32 63 33 31 05 80  4A C7 20 03 01 A9 20 03  ..2c31..J. ... .
1B00: 01 6F 76 C7 20 03 01 2B  C7 20 03 01 A5 80 23 5B  .ov. ..+. ....#[
1B10: 53 80 C7 20 03 01 C7 20  03 01 74 6B 61 30 2B C7  S.. ... ..tka0+.
1B20: 20 03 01 A6 80 23 52 04  80 F0 FF FF 7F F0 FF FF   ....#R.........
1B30: 7F 32 63 33 31 45 04 80  F0 FF FF 7F F0 FF FF 7F  .2c31E..........
1B40: 32 63 33 32 05 80 1C 06  80 5B 53 80 C7 20 03 01  2c32.....[S.. ..
1B50: C7 20 03 01 74 6B 61 31  2B A9 20 03 01 A7 80 23  . ..tka1+. ....#
1B60: 27 10 C7 20 03 01 14 27  10 C4 20 03 01 12 52 04  '.. ...'.. ...R.
1B70: 80 F0 FF FF 7F F0 FF FF  7F 32 63 33 32 45 04 80  .........2c32E..
1B80: F0 FF FF 7F F0 FF FF 7F  32 63 33 33 05 80 29 10  ........2c33..).
1B90: C8 20 03 01 16 4A A9 20  03 01 C8 20 03 01 2B C8  . ...J. ... ..+.
1BA0: 20 03 01 A8 80 23 52 04  80 F0 FF FF 7F F0 FF FF   ....#R.........
1BB0: 7F 32 63 33 33 45 04 80  F0 FF FF 7F F0 FF FF 7F  .2c33E..........
1BC0: 32 63 33 34 05 80 55 04  80 F0 FF FF 7F F0 FF FF  2c34..U.........
1BD0: 7F 32 63 33 34 45 04 80  F0 FF FF 7F F0 FF FF 7F  .2c34E..........
1BE0: 32 63 33 36 05 80 4A A9  20 03 01 A8 20 03 01 6F  2c36..J. ... ..o
1BF0: 76 A9 20 03 01 1C 2D 80  27 10 A9 20 03 01 1C 27  v. ...-.'.. ...'
1C00: 10 C8 20 03 01 17 52 04  80 F0 FF FF 7F F0 FF FF  .. ...R.........
1C10: 7F 32 63 33 36 45 04 80  F0 FF FF 7F F0 FF FF 7F  .2c36E..........
1C20: 32 63 33 37 05 80 2A 10  A9 20 03 01 1C 03 80 4A  2c37..*.. .....J
1C30: C7 20 03 01 A9 20 03 01  4A C4 20 03 01 A9 20 03  . ... ..J. ... .
1C40: 01 2B A9 20 03 01 A9 80  23 52 04 80 F0 FF FF 7F  .+. ....#R......
1C50: F0 FF FF 7F 32 63 33 37  45 04 80 F0 FF FF 7F F0  ....2c37E.......
1C60: FF FF 7F 32 63 33 38 05  80 1C 03 80 2B A9 20 03  ...2c38.....+. .
1C70: 01 AA 80 23 52 04 80 F0  FF FF 7F F0 FF FF 7F 32  ...#R..........2
1C80: 63 33 38 45 04 80 F0 FF  FF 7F F0 FF FF 7F 32 63  c38E..........2c
1C90: 33 39 05 80 27 10 A9 20  03 01 1D 5D 05 80 2D 80  39..'.. ...]..-.
1CA0: 6A 05 80 19 80 06 80 1C  19 80 4A C7 20 03 01 A9  j.........J. ...
1CB0: 20 03 01 1C 06 80 4A C4  20 03 01 A9 20 03 01 1C   .....J. ... ...
1CC0: AB 80 1A 44 9C 1C 03 80  27 10 A9 20 03 01 05 27  ...D....'.. ...'
1CD0: 10 C8 20 03 01 05 27 10  C4 20 03 01 05 27 10 C7  .. ...'.. ...'..
1CE0: 20 03 01 05 52 04 80 F0  FF FF 7F F0 FF FF 7F 32   ...R..........2
1CF0: 63 33 39 45 AC 80 F0 FF  FF 7F F0 FF FF 7F 30 62  c39E..........0b
1D00: 6C 66 05 80 6B 69 64 6C  30 8C 20 03 01 29 10 8C  lf..kidl0. ..)..
1D10: 20 03 01 25 1C 06 80 35  AD 80 78 1C 44 80 45 42   ..%...5..x.D.EB
1D20: 80 F0 FF FF 7F F0 FF FF  7F 6E 6F 73 65 05 80 55  .........nose..U
1D30: 42 80 F0 FF FF 7F F0 FF  FF 7F 6E 6F 73 65 6A AE  B.........nosej.
1D40: 80 19 80 06 80 AB 0A 2D  F0 FF FF 7F F0 FF FF 7F  .......-........
1D50: 31 70 62 31 4E 00 5E 20  03 01 4E 00 5F 20 03 01  1pb1N.^ ..N._ ..
1D60: 4E 00 F0 FF FF 7F 4E 00  8C 20 03 01 92 01 5E 20  N.....N.. ....^ 
1D70: 03 01 92 01 5F 20 03 01  92 01 8C 20 03 01 92 01  ...._ ..... ....
1D80: 8D 20 03 01 94 01 F0 FF  FF 7F 94 01 8C 20 03 01  . ........... ..
1D90: 94 01 8D 20 03 01 29 10  8C 20 03 01 84 29 10 8D  ... ..).. ...)..
1DA0: 20 03 01 32 29 10 F0 FF  FF 7F 50 29 10 8C 20 03   ..2).....P).. .
1DB0: 01 22 29 10 5E 20 03 01  0A 29 10 5F 20 03 01 05  .").^ ...)._ ...
1DC0: 80 F0 FF FF 7F 80 8C 20  03 01 80 8D 20 03 01 4E  ....... .... ..N
1DD0: 00 F0 FF FF 7F 4E 00 8C  20 03 01 5C 00 02 80 5C  .....N.. ..\...\
1DE0: 01 02 80 9A 1C 06 80 45  04 80 F0 FF FF 7F F0 FF  .......E........
1DF0: FF 7F 33 63 30 30 05 80  45 49 80 F0 FF FF 7F F0  ..3c00..EI......
1E00: FF FF 7F 66 64 69 32 05  80 27 10 8C 20 03 01 85  ...fdi2..'.. ...
1E10: 1C 06 80 27 10 F0 FF FF  7F 51 2A 10 8C 20 03 01  ...'.....Q*.. ..
1E20: 1C 19 80 52 04 80 F0 FF  FF 7F F0 FF FF 7F 33 63  ...R..........3c
1E30: 30 30 45 04 80 F0 FF FF  7F F0 FF FF 7F 33 63 30  00E..........3c0
1E40: 31 05 80 4A 8C 20 03 01  F0 FF FF 7F 6F 76 8C 20  1..J. ......ov. 
1E50: 03 01 79 00 F0 FF FF 7F  8C 20 03 01 5B 0F 80 8C  ..y...... ..[...
1E60: 20 03 01 8C 20 03 01 74  6C 6B 31 2B 8C 20 03 01   ... ..tlk1+. ..
1E70: AF 80 23 5B 0F 80 8C 20  03 01 8C 20 03 01 74 6C  ..#[... ... ..tl
1E80: 6B 32 24 B0 80 05 80 05  80 25 02 00 10 05 80 00  k2$......%......
1E90: DE 1E 6E F0 FF FF 7F B1  80 99 F0 FF FF 7F 99 F0  ..n.............
1EA0: FF FF 7F 1C 03 80 2B 8C  20 03 01 B2 80 23 52 04  ......+. ....#R.
1EB0: 80 F0 FF FF 7F F0 FF FF  7F 33 63 30 31 45 04 80  .........3c01E..
1EC0: F0 FF FF 7F F0 FF FF 7F  33 63 31 33 05 80 29 10  ........3c13..).
1ED0: 8C 20 03 01 87 1C 19 80  01 7B 22 01 DE 1E 6E F0  . .......{"...n.
1EE0: FF FF 7F B3 80 99 F0 FF  FF 7F 99 F0 FF FF 7F 1C  ................
1EF0: 06 80 52 04 80 F0 FF FF  7F F0 FF FF 7F 33 63 30  ..R..........3c0
1F00: 31 45 04 80 F0 FF FF 7F  F0 FF FF 7F 33 63 30 32  1E..........3c02
1F10: 05 80 1C 06 80 2B 8C 20  03 01 B4 80 23 52 04 80  .....+. ....#R..
1F20: F0 FF FF 7F F0 FF FF 7F  33 63 30 32 45 04 80 F0  ........3c02E...
1F30: FF FF 7F F0 FF FF 7F 33  63 30 33 05 80 79 00 8C  .......3c03..y..
1F40: 20 03 01 8C 20 03 01 27  10 8D 20 03 01 33 2B 8D   ... ..'.. ..3+.
1F50: 20 03 01 B5 80 23 2A 10  8D 20 03 01 52 04 80 F0   ....#*.. ..R...
1F60: FF FF 7F F0 FF FF 7F 33  63 30 33 45 04 80 F0 FF  .......3c03E....
1F70: FF 7F F0 FF FF 7F 33 63  30 34 05 80 2B 8C 20 03  ......3c04..+. .
1F80: 01 B6 80 23 52 04 80 F0  FF FF 7F F0 FF FF 7F 33  ...#R..........3
1F90: 63 30 34 45 04 80 F0 FF  FF 7F F0 FF FF 7F 33 63  c04E..........3c
1FA0: 30 35 05 80 2B 8C 20 03  01 B7 80 23 52 04 80 F0  05..+. ....#R...
1FB0: FF FF 7F F0 FF FF 7F 33  63 30 35 45 04 80 F0 FF  .......3c05E....
1FC0: FF 7F F0 FF FF 7F 33 63  30 36 05 80 2B 8D 20 03  ......3c06..+. .
1FD0: 01 B8 80 23 52 04 80 F0  FF FF 7F F0 FF FF 7F 33  ...#R..........3
1FE0: 63 30 36 45 04 80 F0 FF  FF 7F F0 FF FF 7F 33 63  c06E..........3c
1FF0: 30 35 05 80 2B 8C 20 03  01 B9 80 23 52 04 80 F0  05..+. ....#R...
2000: FF FF 7F F0 FF FF 7F 33  63 30 35 45 04 80 F0 FF  .......3c05E....
2010: FF 7F F0 FF FF 7F 33 63  30 36 05 80 2B 8D 20 03  ......3c06..+. .
2020: 01 BA 80 23 52 04 80 F0  FF FF 7F F0 FF FF 7F 33  ...#R..........3
2030: 63 30 36 45 04 80 F0 FF  FF 7F F0 FF FF 7F 33 63  c06E..........3c
2040: 30 35 05 80 2B 8C 20 03  01 BB 80 23 52 04 80 F0  05..+. ....#R...
2050: FF FF 7F F0 FF FF 7F 33  63 30 35 45 04 80 F0 FF  .......3c05E....
2060: FF 7F F0 FF FF 7F 33 63  30 37 05 80 2B 8D 20 03  ......3c07..+. .
2070: 01 BC 80 23 5B BD 80 8D  20 03 01 8D 20 03 01 7A  ...#[... ... ..z
2080: 65 69 30 1C 03 80 52 04  80 F0 FF FF 7F F0 FF FF  ei0...R.........
2090: 7F 33 63 30 37 45 04 80  F0 FF FF 7F F0 FF FF 7F  .3c07E..........
20A0: 33 63 30 38 05 80 2B 8D  20 03 01 BE 80 23 53 8D  3c08..+. ....#S.
20B0: 20 03 01 8D 20 03 01 7A  65 69 30 52 04 80 F0 FF   ... ..zei0R....
20C0: FF 7F F0 FF FF 7F 33 63  30 38 45 04 80 F0 FF FF  ......3c08E.....
20D0: 7F F0 FF FF 7F 33 63 30  39 05 80 5B 0F 80 8C 20  .....3c09..[... 
20E0: 03 01 8C 20 03 01 74 6C  6B 31 2B 8C 20 03 01 BF  ... ..tlk1+. ...
20F0: 80 23 5B 0F 80 8C 20 03  01 8C 20 03 01 74 6C 6B  .#[... ... ..tlk
2100: 32 24 C0 80 05 80 05 80  25 02 00 10 05 80 00 5D  2$......%......]
2110: 21 6E F0 FF FF 7F 00 80  99 F0 FF FF 7F 99 F0 FF  !n..............
2120: FF 7F 1C 03 80 2B 8C 20  03 01 C1 80 23 52 04 80  .....+. ....#R..
2130: F0 FF FF 7F F0 FF FF 7F  33 63 30 39 45 04 80 F0  ........3c09E...
2140: FF FF 7F F0 FF FF 7F 33  63 31 33 05 80 29 10 8C  .......3c13..)..
2150: 20 03 01 87 1C 19 80 01  7B 22 01 5D 21 53 8C 20   .......{".]!S. 
2160: 03 01 8C 20 03 01 74 6C  6B 31 52 04 80 F0 FF FF  ... ..tlk1R.....
2170: 7F F0 FF FF 7F 33 63 30  39 45 04 80 F0 FF FF 7F  .....3c09E......
2180: F0 FF FF 7F 33 63 31 30  05 80 5B 0F 80 8C 20 03  ....3c10..[... .
2190: 01 8C 20 03 01 74 68 6B  31 2B 8C 20 03 01 C2 80  .. ..thk1+. ....
21A0: 23 52 04 80 F0 FF FF 7F  F0 FF FF 7F 33 63 31 30  #R..........3c10
21B0: 45 04 80 F0 FF FF 7F F0  FF FF 7F 33 63 31 31 05  E..........3c11.
21C0: 80 1C 03 80 2B 8C 20 03  01 C3 80 23 1A 02 9C 45  ....+. ....#...E
21D0: 04 80 F0 FF FF 7F F0 FF  FF 7F 37 30 33 30 05 80  ..........7030..
21E0: 03 02 10 6E 80 48 C4 80  29 10 8C 20 03 01 86 52  ...n.H..).. ...R
21F0: 04 80 F0 FF FF 7F F0 FF  FF 7F 33 63 31 31 45 04  ..........3c11E.
2200: 80 F0 FF FF 7F F0 FF FF  7F 33 63 31 32 05 80 1C  .........3c12...
2210: 03 80 1A 23 9C 6E 8D 20  03 01 C5 80 99 8D 20 03  ...#.n. ...... .
2220: 01 1C 03 80 27 10 F0 FF  FF 7F 52 2B 8C 20 03 01  ....'.....R+. ..
2230: C6 80 23 52 04 80 F0 FF  FF 7F F0 FF FF 7F 33 63  ..#R..........3c
2240: 31 32 45 04 80 F0 FF FF  7F F0 FF FF 7F 33 63 31  12E..........3c1
2250: 33 05 80 1C 03 80 5B 0F  80 8C 20 03 01 8C 20 03  3.....[... ... .
2260: 01 74 68 6B 32 53 8C 20  03 01 8C 20 03 01 74 68  .thk2S. ... ..th
2270: 6B 32 4A 8D 20 03 01 F0  FF FF 7F 52 04 80 F0 FF  k2J. ......R....
2280: FF 7F F0 FF FF 7F 33 63  31 33 45 04 80 F0 FF FF  ......3c13E.....
2290: 7F F0 FF FF 7F 33 63 31  34 05 80 4A 8C 20 03 01  .....3c14..J. ..
22A0: F0 FF FF 7F 6F 76 8C 20  03 01 1C 03 80 5B 0F 80  ....ov. .....[..
22B0: 8C 20 03 01 8C 20 03 01  74 6C 6B 31 2B 8C 20 03  . ... ..tlk1+. .
22C0: 01 C7 80 23 5B 0F 80 8C  20 03 01 8C 20 03 01 74  ...#[... ... ..t
22D0: 6C 6B 32 52 04 80 F0 FF  FF 7F F0 FF FF 7F 33 63  lk2R..........3c
22E0: 31 34 45 04 80 F0 FF FF  7F F0 FF FF 7F 33 63 31  14E..........3c1
22F0: 35 05 80 03 03 10 C8 80  2B 8C 20 03 01 C9 80 23  5.......+. ....#
2300: 2B 8C 20 03 01 CA 80 23  52 04 80 F0 FF FF 7F F0  +. ....#R.......
2310: FF FF 7F 33 63 31 35 45  04 80 F0 FF FF 7F F0 FF  ...3c15E........
2320: FF 7F 33 63 31 36 05 80  2B 8C 20 03 01 CB 80 23  ..3c16..+. ....#
2330: 52 04 80 F0 FF FF 7F F0  FF FF 7F 33 63 31 36 45  R..........3c16E
2340: 04 80 F0 FF FF 7F F0 FF  FF 7F 33 63 31 37 05 80  ..........3c17..
2350: 2B 8C 20 03 01 CC 80 23  52 04 80 F0 FF FF 7F F0  +. ....#R.......
2360: FF FF 7F 33 63 31 37 45  04 80 F0 FF FF 7F F0 FF  ...3c17E........
2370: FF 7F 33 63 31 38 05 80  2B 8C 20 03 01 CD 80 23  ..3c18..+. ....#
2380: 52 04 80 F0 FF FF 7F F0  FF FF 7F 33 63 31 38 45  R..........3c18E
2390: 04 80 F0 FF FF 7F F0 FF  FF 7F 33 63 31 39 05 80  ..........3c19..
23A0: 5B 0F 80 8C 20 03 01 8C  20 03 01 74 68 6B 31 1C  [... ... ..thk1.
23B0: 03 80 03 02 10 6E 80 2B  8C 20 03 01 CE 80 23 52  .....n.+. ....#R
23C0: 04 80 F0 FF FF 7F F0 FF  FF 7F 33 63 31 39 45 04  ..........3c19E.
23D0: 80 F0 FF FF 7F F0 FF FF  7F 33 63 32 30 05 80 5B  .........3c20..[
23E0: 0F 80 8C 20 03 01 8C 20  03 01 74 68 6B 32 2B 8C  ... ... ..thk2+.
23F0: 20 03 01 CF 80 23 2B 8C  20 03 01 D0 80 23 52 04   ....#+. ....#R.
2400: 80 F0 FF FF 7F F0 FF FF  7F 33 63 32 30 45 04 80  .........3c20E..
2410: F0 FF FF 7F F0 FF FF 7F  33 63 32 31 05 80 27 10  ........3c21..'.
2420: 8C 20 03 01 88 1C 03 80  6E F0 FF FF 7F 40 80 99  . ......n....@..
2430: F0 FF FF 7F 1C D1 80 1A  44 9C 1C 03 80 29 10 8C  ........D....)..
2440: 20 03 01 23 03 02 10 6E  80 03 03 10 C8 80 48 D2   ..#...n......H.
2450: 80 23 03 02 10 C8 80 03  03 10 44 80 48 D3 80 23  .#........D.H..#
2460: 52 04 80 F0 FF FF 7F F0  FF FF 7F 33 63 32 31 02  R..........3c21.
2470: 01 00 44 80 01 77 24 5C  00 02 80 5C 01 02 80 9A  ..D..w$\...\....
2480: 46 00 45 49 80 F0 FF FF  7F F0 FF FF 7F 66 64 69  F.EI.........fdi
2490: 32 05 80 21 00                                    2..!.           
```

#### Opcodes

```
  0: 0x0001 [0x42] SET_CLI_EVENT_CANCEL_DATA()
  1: 0x0002 [0x03] ExtData[1]->WorkLocal[1] = Work_Zone[9]
  2: 0x0007 [0x1A] CALL_SUBROUTINE(address=0x9C44)
  3: 0x000A [0x46] CAMERA_CONTROL: Disable user control
  4: 0x000C [0x38] SET_CLIENT_EVENT_MODE(mode=19*)
  5: 0x000F [0x79] LocalPlayer looks at LocalPlayer (Basic look)
  6: 0x0019 [0x27] REQ_SET(priority=0x10, entity_id=Gessho (ID: 16982222/0x010320CE), tag_num=0x02)
  7: 0x0020 [0x92] Naja Salaheem (ID: 16982156/0x0103208C)->Render.Flags3 ^= 0x01
  8: 0x0026 [0x92] Gessho (ID: 16982222/0x010320CE)->Render.Flags3 ^= 0x01
  9: 0x002C [0x92] Arzizah (ID: 16982110/0x0103205E)->Render.Flags3 ^= 0x01
 10: 0x0032 [0x92] Mafwahb (ID: 16982111/0x0103205F)->Render.Flags3 ^= 0x01
 11: 0x0038 [0x94] LocalPlayer->Render.Flags3 ^= 0x01
 12: 0x003E [0x94] Naja Salaheem (ID: 16982156/0x0103208C)->Render.Flags3 ^= 0x01
 13: 0x0044 [0x94] Gessho (ID: 16982222/0x010320CE)->Render.Flags3 ^= 0x01
 14: 0x004A [0x29] REQ_SET_WAIT(priority=0x10, entity_id=LocalPlayer, tag_num=0x4B)
 15: 0x0051 [0x29] REQ_SET_WAIT(priority=0x10, entity_id=Naja Salaheem (ID: 16982156/0x0103208C), tag_num=0x7F)
 16: 0x0058 [0x29] REQ_SET_WAIT(priority=0x10, entity_id=Gessho (ID: 16982222/0x010320CE), tag_num=0x17)
 17: 0x005F [0x29] REQ_SET_WAIT(priority=0x10, entity_id=Naja Salaheem (ID: 16982156/0x0103208C), tag_num=0x22)
 18: 0x0066 [0x80] LOAD_WAIT(entity=LocalPlayer)
 19: 0x006B [0x80] LOAD_WAIT(entity=Naja Salaheem (ID: 16982156/0x0103208C))
 20: 0x0070 [0x80] LOAD_WAIT(entity=Gessho (ID: 16982222/0x010320CE))
 21: 0x0075 [0x80] LOAD_WAIT(entity=Arzizah (ID: 16982110/0x0103205E))
 22: 0x007A [0x80] LOAD_WAIT(entity=Mafwahb (ID: 16982111/0x0103205F))
 23: 0x007F [0x5B] LOAD_EXT_SCHEDULER: Load scheduler "shal" with entities [Gessho (ID: 16982222/0x010320CE), Gessho (ID: 16982222/0x010320CE)], work=254*
 24: 0x008E [0x5C] MUSIC_CONTROL: Set Idle (Day) music to song 178*
 25: 0x0092 [0x5C] MUSIC_CONTROL: Set Idle (Night) music to song 178*
 26: 0x0096 [0x9A] WAIT_MUSIC_SERVER()
 27: 0x0097 [0x1C] WAIT(30* ticks)
 28: 0x009A [0x45] LOAD_SCHEDULED_TASK: Load scheduler "0c00" with entities [LocalPlayer, LocalPlayer], work=[275*, 0*]
 29: 0x00AB [0x1C] WAIT(15* ticks)
 30: 0x00AE [0x27] REQ_SET(priority=0x10, entity_id=LocalPlayer, tag_num=0x4C)
 31: 0x00B5 [0x1A] CALL_SUBROUTINE(address=0x9C23)
 32: 0x00B8 [0x27] REQ_SET(priority=0x10, entity_id=Arzizah (ID: 16982110/0x0103205E), tag_num=0x03)
 33: 0x00BF [0x29] REQ_SET_WAIT(priority=0x10, entity_id=Mafwahb (ID: 16982111/0x0103205F), tag_num=0x03)
 34: 0x00C6 [0x55] WAIT_LOAD_SCHEDULER: Wait for scheduler "0c00" with entities [LocalPlayer, LocalPlayer], work=275*
 35: 0x00D5 [0x45] LOAD_SCHEDULED_TASK: Load scheduler "0c01" with entities [LocalPlayer, LocalPlayer], work=[275*, 0*]
 36: 0x00E6 [0x2B] Arzizah (ID: 16982110/0x0103205E) [8020*]:
     "You want to know what's behind the gate?\u007F1\u0000\u0007"
 37: 0x00ED [0x23] WAIT_FOR_DIALOG_INTERACTION
 38: 0x00EE [0x2B] Arzizah (ID: 16982110/0x0103205E) [8021*]:
     "This gate leads to the Imperial Ward.\u0007You may only enter by the grace of Her Magnificence, the Empress, or if you have Al Zahbi citizenship.\u007F1\u0000\u0007"
 39: 0x00F5 [0x23] WAIT_FOR_DIALOG_INTERACTION
 40: 0x00F6 [0x52] END_LOAD_SCHEDULER: End scheduler "0c01" with entities [LocalPlayer, LocalPlayer], work=275*
 41: 0x0105 [0x45] LOAD_SCHEDULED_TASK: Load scheduler "0c02" with entities [LocalPlayer, LocalPlayer], work=[275*, 0*]
 42: 0x0116 [0x66] LOAD_EXT_SCHEDULER_MAIN: Load scheduler "dis0" with entities [Arzizah (ID: 16982110/0x0103205E), Arzizah (ID: 16982110/0x0103205E)], work=0*
 43: 0x0125 [0x2B] Arzizah (ID: 16982110/0x0103205E) [8022*]:
     "No place for a mercenary like you.\u0007Be on your way.\u007F1\u0000\u0007"
 44: 0x012C [0x23] WAIT_FOR_DIALOG_INTERACTION
 45: 0x012D [0x52] END_LOAD_SCHEDULER: End scheduler "0c02" with entities [LocalPlayer, LocalPlayer], work=275*
 46: 0x013C [0x45] LOAD_SCHEDULED_TASK: Load scheduler "0c03" with entities [LocalPlayer, LocalPlayer], work=[275*, 0*]
 47: 0x014D [0x79] Arzizah (ID: 16982110/0x0103205E) looks at Naja Salaheem (ID: 16982156/0x0103208C) (Basic look)
 48: 0x0157 [0x79] Mafwahb (ID: 16982111/0x0103205F) looks at Naja Salaheem (ID: 16982156/0x0103208C) (Basic look)
 49: 0x0161 [0x4A] LocalPlayer looks at Naja Salaheem (ID: 16982156/0x0103208C)
 50: 0x016A [0x2B] ??? (ID: 16982289/0x01032111) [8023*]:
     "Now, hold up there.\u007F1\u0000\u0007"
 51: 0x0171 [0x23] WAIT_FOR_DIALOG_INTERACTION
 52: 0x0172 [0x55] WAIT_LOAD_SCHEDULER: Wait for scheduler "0c03" with entities [LocalPlayer, LocalPlayer], work=275*
 53: 0x0181 [0x27] REQ_SET(priority=0x10, entity_id=Naja Salaheem (ID: 16982156/0x0103208C), tag_num=0x80)
 54: 0x0188 [0x1C] WAIT(30* ticks)
 55: 0x018B [0x45] LOAD_SCHEDULED_TASK: Load scheduler "0c04" with entities [LocalPlayer, LocalPlayer], work=[275*, 0*]
 56: 0x019C [0x27] REQ_SET(priority=0x10, entity_id=LocalPlayer, tag_num=0x4D)
 57: 0x01A3 [0x2B] Naja Salaheem (ID: 16982156/0x0103208C) [8024*]:
     "I know how standin' around all day can start to grrrate on ya nerves.\u007F1\u0000\u0007"
 58: 0x01AA [0x23] WAIT_FOR_DIALOG_INTERACTION
 59: 0x01AB [0x2A] GET_REQ_LEVEL(level=16, entity_id=Naja Salaheem (ID: 16982156/0x0103208C))
 60: 0x01B1 [0x52] END_LOAD_SCHEDULER: End scheduler "0c04" with entities [LocalPlayer, LocalPlayer], work=275*
 61: 0x01C0 [0x45] LOAD_SCHEDULED_TASK: Load scheduler "0c05" with entities [LocalPlayer, LocalPlayer], work=[275*, 0*]
 62: 0x01D1 [0x4A] Arzizah (ID: 16982110/0x0103205E) looks at Naja Salaheem (ID: 16982156/0x0103208C)
 63: 0x01DA [0x2B] Arzizah (ID: 16982110/0x0103205E) [8025*]:
     "And who might you be...?\u0007Ah, a Salaheem's Sentinels employee.\u007F1\u0000\u0007"
 64: 0x01E1 [0x23] WAIT_FOR_DIALOG_INTERACTION
 65: 0x01E2 [0x66] LOAD_EXT_SCHEDULER_MAIN: Load scheduler "tlk0" with entities [Arzizah (ID: 16982110/0x0103205E), Arzizah (ID: 16982110/0x0103205E)], work=0*
 66: 0x01F1 [0x2B] Arzizah (ID: 16982110/0x0103205E) [8026*]:
     "What is your business here? You have just as little chance of passing through the Imperial Whitegate.\u0007Have you come to deliver a message?\u007F1\u0000\u0007"
 67: 0x01F8 [0x23] WAIT_FOR_DIALOG_INTERACTION
 68: 0x01F9 [0x66] LOAD_EXT_SCHEDULER_MAIN: Load scheduler "ten0" with entities [Arzizah (ID: 16982110/0x0103205E), Arzizah (ID: 16982110/0x0103205E)], work=0*
 69: 0x0208 [0x52] END_LOAD_SCHEDULER: End scheduler "0c05" with entities [LocalPlayer, LocalPlayer], work=275*
 70: 0x0217 [0x45] LOAD_SCHEDULED_TASK: Load scheduler "0c06" with entities [LocalPlayer, LocalPlayer], work=[275*, 0*]
 71: 0x0228 [0x7C] Naja Salaheem (ID: 16982156/0x0103208C)->Render.Flags2 |= 0x00
 72: 0x022E [0x2B] Naja Salaheem (ID: 16982156/0x0103208C) [8027*]:
     "Hmph.\u007F1\u0000\u0007"
 73: 0x0235 [0x23] WAIT_FOR_DIALOG_INTERACTION
 74: 0x0236 [0x7C] Naja Salaheem (ID: 16982156/0x0103208C)->Render.Flags2 |= 0x01
 75: 0x023C [0x5B] LOAD_EXT_SCHEDULER: Load scheduler "thk1" with entities [Naja Salaheem (ID: 16982156/0x0103208C), Naja Salaheem (ID: 16982156/0x0103208C)], work=359*
 76: 0x024B [0x2B] Naja Salaheem (ID: 16982156/0x0103208C) [8028*]:
     "For the sake of something that insignificant...\u007F1\u0000\u0007"
 77: 0x0252 [0x23] WAIT_FOR_DIALOG_INTERACTION
 78: 0x0253 [0x52] END_LOAD_SCHEDULER: End scheduler "0c06" with entities [LocalPlayer, LocalPlayer], work=275*
 79: 0x0262 [0x45] LOAD_SCHEDULED_TASK: Load scheduler "0c07" with entities [LocalPlayer, LocalPlayer], work=[275*, 0*]
 80: 0x0273 [0x2B] Naja Salaheem (ID: 16982156/0x0103208C) [8029*]:
     "...do ya think...\u007F1\u0000\u0007"
 81: 0x027A [0x23] WAIT_FOR_DIALOG_INTERACTION
 82: 0x027B [0x52] END_LOAD_SCHEDULER: End scheduler "0c07" with entities [LocalPlayer, LocalPlayer], work=275*
 83: 0x028A [0x45] LOAD_SCHEDULED_TASK: Load scheduler "0c08" with entities [LocalPlayer, LocalPlayer], work=[275*, 0*]
 84: 0x029B [0x2B] Naja Salaheem (ID: 16982156/0x0103208C) [8030*]:
     "...that the prrresident of Salaheem's Sentinels...\u007F1\u0000\u0007"
 85: 0x02A2 [0x23] WAIT_FOR_DIALOG_INTERACTION
 86: 0x02A3 [0x52] END_LOAD_SCHEDULER: End scheduler "0c08" with entities [LocalPlayer, LocalPlayer], work=275*
 87: 0x02B2 [0x45] LOAD_SCHEDULED_TASK: Load scheduler "0c09" with entities [LocalPlayer, LocalPlayer], work=[275*, 0*]
 88: 0x02C3 [0x5B] LOAD_EXT_SCHEDULER: Load scheduler "thk2" with entities [Naja Salaheem (ID: 16982156/0x0103208C), Naja Salaheem (ID: 16982156/0x0103208C)], work=359*
 89: 0x02D2 [0x53] WAIT_SCHEDULER_TASK: Wait for scheduler "thk2" with entities [Naja Salaheem (ID: 16982156/0x0103208C), Naja Salaheem (ID: 16982156/0x0103208C)]
 90: 0x02DF [0x2B] Naja Salaheem (ID: 16982156/0x0103208C) [8031*]:
     "...would come all the way to the Imperial Whitegate!?\u007F1\u0000\u0007"
 91: 0x02E6 [0x23] WAIT_FOR_DIALOG_INTERACTION
 92: 0x02E7 [0x52] END_LOAD_SCHEDULER: End scheduler "0c09" with entities [LocalPlayer, LocalPlayer], work=275*
 93: 0x02F6 [0x45] LOAD_SCHEDULED_TASK: Load scheduler "0c10" with entities [LocalPlayer, LocalPlayer], work=[275*, 0*]
 94: 0x0307 [0x5B] LOAD_EXT_SCHEDULER: Load scheduler "tlk1" with entities [Naja Salaheem (ID: 16982156/0x0103208C), Naja Salaheem (ID: 16982156/0x0103208C)], work=359*
 95: 0x0316 [0x2B] Naja Salaheem (ID: 16982156/0x0103208C) [8032*]:
     "My employee, \u0008, and I are here at the invitation of Grand Vizier Razfahd.\u007F1\u0000\u0007"
 96: 0x031D [0x23] WAIT_FOR_DIALOG_INTERACTION
 97: 0x031E [0x52] END_LOAD_SCHEDULER: End scheduler "0c10" with entities [LocalPlayer, LocalPlayer], work=275*
 98: 0x032D [0x45] LOAD_SCHEDULED_TASK: Load scheduler "0c11" with entities [LocalPlayer, LocalPlayer], work=[275*, 0*]
 99: 0x033E [0x5B] LOAD_EXT_SCHEDULER: Load scheduler "tlk2" with entities [Naja Salaheem (ID: 16982156/0x0103208C), Naja Salaheem (ID: 16982156/0x0103208C)], work=359*
100: 0x034D [0x79] Naja Salaheem (ID: 16982156/0x0103208C) looks at Arzizah (ID: 16982110/0x0103205E) (Basic look)
101: 0x0357 [0x2B] Naja Salaheem (ID: 16982156/0x0103208C) [8033*]:
     "You're always sayin' that anyone with the permission of the Empress has the right to pass through the gate.\u0007Am I rrright?\u007F1\u0000\u0007"
102: 0x035E [0x23] WAIT_FOR_DIALOG_INTERACTION
103: 0x035F [0x2B] Arzizah (ID: 16982110/0x0103205E) [8034*]:
     "That is correct.\u007F1\u0000\u0007"
104: 0x0366 [0x23] WAIT_FOR_DIALOG_INTERACTION
105: 0x0367 [0x52] END_LOAD_SCHEDULER: End scheduler "0c11" with entities [LocalPlayer, LocalPlayer], work=275*
106: 0x0376 [0x45] LOAD_SCHEDULED_TASK: Load scheduler "0c12" with entities [LocalPlayer, LocalPlayer], work=[275*, 0*]
107: 0x0387 [0x27] REQ_SET(priority=0x10, entity_id=Naja Salaheem (ID: 16982156/0x0103208C), tag_num=0x81)
108: 0x038E [0x2B] Naja Salaheem (ID: 16982156/0x0103208C) [8035*]:
     "Then ya shouldn't have a prrroblem with anyone bearin' the signed invitation of her highest official.\u007F1\u0000\u0007"
109: 0x0395 [0x23] WAIT_FOR_DIALOG_INTERACTION
110: 0x0396 [0x2B] Arzizah (ID: 16982110/0x0103205E) [8036*]:
     "...\u007F1\u0000\u0007"
111: 0x039D [0x23] WAIT_FOR_DIALOG_INTERACTION
112: 0x039E [0x2A] GET_REQ_LEVEL(level=16, entity_id=Naja Salaheem (ID: 16982156/0x0103208C))
113: 0x03A4 [0x29] REQ_SET_WAIT(priority=0x10, entity_id=Arzizah (ID: 16982110/0x0103205E), tag_num=0x05)
114: 0x03AB [0x4A] LocalPlayer looks at Arzizah (ID: 16982110/0x0103205E)
115: 0x03B4 [0x7B] Naja Salaheem (ID: 16982156/0x0103208C) stops talking
116: 0x03B9 [0x66] LOAD_EXT_SCHEDULER_MAIN: Load scheduler "thk1" with entities [Arzizah (ID: 16982110/0x0103205E), Arzizah (ID: 16982110/0x0103205E)], work=0*
117: 0x03C8 [0x53] WAIT_SCHEDULER_TASK: Wait for scheduler "thk1" with entities [Arzizah (ID: 16982110/0x0103205E), Arzizah (ID: 16982110/0x0103205E)]
118: 0x03D5 [0x1C] WAIT(60* ticks)
119: 0x03D8 [0x66] LOAD_EXT_SCHEDULER_MAIN: Load scheduler "thk2" with entities [Arzizah (ID: 16982110/0x0103205E), Arzizah (ID: 16982110/0x0103205E)], work=0*
120: 0x03E7 [0x1C] WAIT(30* ticks)
121: 0x03EA [0x2B] Arzizah (ID: 16982110/0x0103205E) [8037*]:
     "Yes. Well.\u0007This seems to be in order.\u007F1\u0000\u0007"
122: 0x03F1 [0x23] WAIT_FOR_DIALOG_INTERACTION
123: 0x03F2 [0x2B] Arzizah (ID: 16982110/0x0103205E) [8038*]:
     "Not so fast.\u0007I have to check this with my superior.\u007F1\u0000\u0007"
124: 0x03F9 [0x23] WAIT_FOR_DIALOG_INTERACTION
125: 0x03FA [0x52] END_LOAD_SCHEDULER: End scheduler "0c12" with entities [LocalPlayer, LocalPlayer], work=275*
126: 0x0409 [0x45] LOAD_SCHEDULED_TASK: Load scheduler "0c13" with entities [LocalPlayer, LocalPlayer], work=[275*, 0*]
127: 0x041A [0x29] REQ_SET_WAIT(priority=0x10, entity_id=Arzizah (ID: 16982110/0x0103205E), tag_num=0x06)
128: 0x0421 [0x52] END_LOAD_SCHEDULER: End scheduler "0c13" with entities [LocalPlayer, LocalPlayer], work=275*
129: 0x0430 [0x45] LOAD_SCHEDULED_TASK: Load scheduler "0c14" with entities [LocalPlayer, LocalPlayer], work=[275*, 0*]
130: 0x0441 [0x1C] WAIT(30* ticks)
131: 0x0444 [0x2B] Naja Salaheem (ID: 16982156/0x0103208C) [8039*]:
     "Lala-lala-la\u0001`.\u0001t\u007F1\u0000\u0007"
132: 0x044B [0x23] WAIT_FOR_DIALOG_INTERACTION
133: 0x044C [0x27] REQ_SET(priority=0x10, entity_id=Unnamed NPC (ID: 16982290/0x01032112), tag_num=0x5E)
134: 0x0453 [0x27] REQ_SET(priority=0x10, entity_id=??? (ID: 16982289/0x01032111), tag_num=0x55)
135: 0x045A [0x9F] LOAD_SCHEDULED_TASK_ALT: Load scheduler "main" with entities [Gessho (ID: 16982222/0x010320CE), Gessho (ID: 16982222/0x010320CE)], work=[164*, 0*]
136: 0x046B [0x2B] Gessho (ID: 16982222/0x010320CE) [7342*]:
     "Greetings!\u0000\u0007"
137: 0x0472 [0x52] END_LOAD_SCHEDULER: End scheduler "0c14" with entities [LocalPlayer, LocalPlayer], work=275*
138: 0x0481 [0x45] LOAD_SCHEDULED_TASK: Load scheduler "0c15" with entities [LocalPlayer, LocalPlayer], work=[275*, 0*]
139: 0x0492 [0x79] LocalPlayer looks at Gessho (ID: 16982222/0x010320CE) (Basic look)
140: 0x049C [0x1C] WAIT(15* ticks)
141: 0x049F [0x4A] Naja Salaheem (ID: 16982156/0x0103208C) looks at Gessho (ID: 16982222/0x010320CE)
142: 0x04A8 [0x6F] WAIT_FRAME_DELAY: Yield until WaitTime reaches zero
143: 0x04A9 [0x76] CHECK_ENTITY_RENDER_FLAGS: Wait until Naja Salaheem (ID: 16982156/0x0103208C) Render.Flags0 and Render.Flags3 conditions are met
144: 0x04AE [0x1C] WAIT(60* ticks)
145: 0x04B1 [0x2B] Naja Salaheem (ID: 16982156/0x0103208C) [8040*]:
     "Gessho!\u0007Ya scared the livin' daylights outta me!\u007F1\u0000\u0007"
146: 0x04B8 [0x23] WAIT_FOR_DIALOG_INTERACTION
147: 0x04B9 [0x52] END_LOAD_SCHEDULER: End scheduler "0c15" with entities [LocalPlayer, LocalPlayer], work=275*
148: 0x04C8 [0x45] LOAD_SCHEDULED_TASK: Load scheduler "0c16" with entities [LocalPlayer, LocalPlayer], work=[275*, 0*]
149: 0x04D9 [0x2B] Gessho (ID: 16982222/0x010320CE) [8041*]:
     "My apologies, President Naja. \u0008.\u007F1\u0000\u0007"
150: 0x04E0 [0x23] WAIT_FOR_DIALOG_INTERACTION
151: 0x04E1 [0x2B] Gessho (ID: 16982222/0x010320CE) [8042*]:
     "I came as soon as I learned your destination from Abquhbah.\u007F1\u0000\u0007"
152: 0x04E8 [0x23] WAIT_FOR_DIALOG_INTERACTION
153: 0x04E9 [0x2B] Gessho (ID: 16982222/0x010320CE) [8043*]:
     "I most humbly ask you a favor.\u007F1\u0000\u0007"
154: 0x04F0 [0x23] WAIT_FOR_DIALOG_INTERACTION
155: 0x04F1 [0x52] END_LOAD_SCHEDULER: End scheduler "0c16" with entities [LocalPlayer, LocalPlayer], work=275*
156: 0x0500 [0x45] LOAD_SCHEDULED_TASK: Load scheduler "0c17" with entities [LocalPlayer, LocalPlayer], work=[275*, 0*]
157: 0x0511 [0x2B] Gessho (ID: 16982222/0x010320CE) [8044*]:
     "The Empress wishes to hear the tale directly from one who has boarded the ghost ship...\u007F1\u0000\u0007"
158: 0x0518 [0x23] WAIT_FOR_DIALOG_INTERACTION
159: 0x0519 [0x2B] Gessho (ID: 16982222/0x010320CE) [8045*]:
     "And you must bring one other acquaintance, correct?\u007F1\u0000\u0007"
160: 0x0520 [0x23] WAIT_FOR_DIALOG_INTERACTION
161: 0x0521 [0x79] Naja Salaheem (ID: 16982156/0x0103208C) looks at Naja Salaheem (ID: 16982156/0x0103208C) (Basic look)
162: 0x052B [0x81] SET_ENTITY_BLINKING(blink_flag=0x00, entity=Naja Salaheem (ID: 16982156/0x0103208C))
163: 0x0531 [0x5B] LOAD_EXT_SCHEDULER: Load scheduler "nir0" with entities [Naja Salaheem (ID: 16982156/0x0103208C), Naja Salaheem (ID: 16982156/0x0103208C)], work=836*
164: 0x0540 [0x52] END_LOAD_SCHEDULER: End scheduler "0c17" with entities [LocalPlayer, LocalPlayer], work=275*
165: 0x054F [0x45] LOAD_SCHEDULED_TASK: Load scheduler "0c18" with entities [LocalPlayer, LocalPlayer], work=[275*, 0*]
166: 0x0560 [0x2B] Gessho (ID: 16982222/0x010320CE) [8046*]:
     "It is rare that one manages a glimpse of Her Magnificence in person.\u007F1\u0000\u0007"
167: 0x0567 [0x23] WAIT_FOR_DIALOG_INTERACTION
168: 0x0568 [0x2B] Gessho (ID: 16982222/0x010320CE) [8047*]:
     "If I might be the one to accompany...\u007F1\u0000\u0007"
169: 0x056F [0x23] WAIT_FOR_DIALOG_INTERACTION
170: 0x0570 [0x52] END_LOAD_SCHEDULER: End scheduler "0c18" with entities [LocalPlayer, LocalPlayer], work=275*
171: 0x057F [0x45] LOAD_SCHEDULED_TASK: Load scheduler "0c19" with entities [LocalPlayer, LocalPlayer], work=[275*, 0*]
172: 0x0590 [0x5D] SET_MUSIC_VOLUME(volume=0*, fade_time=60*)
173: 0x0595 [0x2B] Gessho (ID: 16982222/0x010320CE) [8048*]:
     "!!!\u007F1\u0000\u0007"
174: 0x059C [0x23] WAIT_FOR_DIALOG_INTERACTION
175: 0x059D [0x5C] MUSIC_CONTROL: Set Idle (Day) music to song 143*
176: 0x05A1 [0x5C] MUSIC_CONTROL: Set Idle (Night) music to song 143*
177: 0x05A5 [0x9A] WAIT_MUSIC_SERVER()
178: 0x05A6 [0x55] WAIT_LOAD_SCHEDULER: Wait for scheduler "0c19" with entities [LocalPlayer, LocalPlayer], work=275*
179: 0x05B5 [0x45] LOAD_SCHEDULED_TASK: Load scheduler "0c20" with entities [LocalPlayer, LocalPlayer], work=[275*, 0*]
180: 0x05C6 [0x79] LocalPlayer looks at Naja Salaheem (ID: 16982156/0x0103208C) (Basic look)
181: 0x05D0 [0x1C] WAIT(20* ticks)
