# 16982563

## Common Data

| Field            | Value                          |
|------------------|--------------------------------|
| Zone             | Aht Urhgan Whitegate2 (ID: 50) |
| Block Size       | 244 bytes                      |
| Total Events     | 14                             |
| References Count | 12                             |

## List of Events

| Event ID                   | Entrypoint   |   Size |   Instructions |
|----------------------------|--------------|--------|----------------|
| [65535](#event-65535)      | 0x0000       |      1 |              1 |
| [65535.1](#event-655351)   | 0x0001       |      1 |              1 |
| [65535.2](#event-655352)   | 0x0002       |     10 |              2 |
| [65535.3](#event-655353)   | 0x000C       |      1 |              1 |
| [65535.4](#event-655354)   | 0x000D       |      1 |              1 |
| [65535.5](#event-655355)   | 0x000E       |     20 |              4 |
| [65535.6](#event-655356)   | 0x0022       |      1 |              1 |
| [65535.7](#event-655357)   | 0x0023       |     41 |              7 |
| [65535.8](#event-655358)   | 0x004C       |      1 |              1 |
| [890](#event-890)          | 0x004D       |      1 |              1 |
| [65535.9](#event-655359)   | 0x004E       |     13 |              3 |
| [65535.10](#event-6553510) | 0x005B       |     10 |              2 |
| [65535.11](#event-6553511) | 0x0065       |      1 |              1 |
| [65535.12](#event-6553512) | 0x0066       |     22 |              4 |

## DAT References (imed_data)

|   Index | Hex Value   |   Dec Value |
|---------|-------------|-------------|
|       0 | 0x0080      |         128 |
|       1 | 0x0384      |         900 |
|       2 | 0x005A      |          90 |
|       3 | 0x001E      |          30 |
|       4 | 0x01F4      |         500 |
|       5 | 0x0015      |          21 |
|       6 | 0x0000      |           0 |
|       7 | 0x0078      |         120 |
|       8 | 0x003C      |          60 |
|       9 | 0x012C      |         300 |
|      10 | 0x0001      |           1 |
|      11 | 0x001F      |          31 |

## Events

### Event 65535

#### Metadata

| Field        | Value   |
|--------------|---------|
| Entrypoint   | 0x0000  |
| Data Size    | 1 bytes |
| Instructions | 1       |

```
      00 01 02 03 04 05 06 07  08 09 0A 0B 0C 0D 0E 0F
      -- -- -- -- -- -- -- --  -- -- -- -- -- -- -- --
0000: 00                                                .               
```

#### Opcodes

```
  0: 0x0000 [0x00] END_REQSTACK()
```

### Event 65535.1

#### Metadata

| Field        | Value   |
|--------------|---------|
| Entrypoint   | 0x0001  |
| Data Size    | 1 bytes |
| Instructions | 1       |

```
      00 01 02 03 04 05 06 07  08 09 0A 0B 0C 0D 0E 0F
      -- -- -- -- -- -- -- --  -- -- -- -- -- -- -- --
0000:    00                                              .              
```

#### Opcodes

```
  0: 0x0001 [0x00] END_REQSTACK()
```

### Event 65535.2

#### Metadata

| Field        | Value    |
|--------------|----------|
| Entrypoint   | 0x0002   |
| Data Size    | 10 bytes |
| Instructions | 2        |

```
      00 01 02 03 04 05 06 07  08 09 0A 0B 0C 0D 0E 0F
      -- -- -- -- -- -- -- --  -- -- -- -- -- -- -- --
0000:       6C 0E 22 03 01 00  80 01 80 00                l.".......    
```

#### Opcodes

```
  0: 0x0002 [0x6C] FADE_ENTITY_COLOR(entity_id=Salwa-Molwa (ID: 16982542/0x0103220E), end_alpha=128*, fade_time=900*)
  1: 0x000B [0x00] END_REQSTACK()
```

### Event 65535.3

#### Metadata

| Field        | Value   |
|--------------|---------|
| Entrypoint   | 0x000C  |
| Data Size    | 1 bytes |
| Instructions | 1       |

```
      00 01 02 03 04 05 06 07  08 09 0A 0B 0C 0D 0E 0F
      -- -- -- -- -- -- -- --  -- -- -- -- -- -- -- --
0000:                                      00                       .   
```

#### Opcodes

```
  0: 0x000C [0x00] END_REQSTACK()
```

### Event 65535.4

#### Metadata

| Field        | Value   |
|--------------|---------|
| Entrypoint   | 0x000D  |
| Data Size    | 1 bytes |
| Instructions | 1       |

```
      00 01 02 03 04 05 06 07  08 09 0A 0B 0C 0D 0E 0F
      -- -- -- -- -- -- -- --  -- -- -- -- -- -- -- --
0000:                                         00                     .  
```

#### Opcodes

```
  0: 0x000D [0x00] END_REQSTACK()
```

### Event 65535.5

#### Metadata

| Field        | Value    |
|--------------|----------|
| Entrypoint   | 0x000E   |
| Data Size    | 20 bytes |
| Instructions | 4        |

```
      00 01 02 03 04 05 06 07  08 09 0A 0B 0C 0D 0E 0F
      -- -- -- -- -- -- -- --  -- -- -- -- -- -- -- --
0000:                                            1C 02                ..
0010: 80 27 10 1E 22 03 01 0C  6C 1D 22 03 01 00 80 03  .'.."...l.".....
0020: 80 00                                             ..              
```

#### Opcodes

```
  0: 0x000E [0x1C] WAIT(90* ticks)
  1: 0x0011 [0x27] REQ_SET(priority=0x10, entity_id=Unnamed NPC (ID: 16982558/0x0103221E), tag_num=0x0C)
  2: 0x0018 [0x6C] FADE_ENTITY_COLOR(entity_id=Unnamed NPC (ID: 16982557/0x0103221D), end_alpha=128*, fade_time=30*)
  3: 0x0021 [0x00] END_REQSTACK()
```

### Event 65535.6

#### Metadata

| Field        | Value   |
|--------------|---------|
| Entrypoint   | 0x0022  |
| Data Size    | 1 bytes |
| Instructions | 1       |

```
      00 01 02 03 04 05 06 07  08 09 0A 0B 0C 0D 0E 0F
      -- -- -- -- -- -- -- --  -- -- -- -- -- -- -- --
0020:       00                                            .             
```

#### Opcodes

```
  0: 0x0022 [0x00] END_REQSTACK()
```

### Event 65535.7

#### Metadata

| Field        | Value    |
|--------------|----------|
| Entrypoint   | 0x0023   |
| Data Size    | 41 bytes |
| Instructions | 7        |

```
      00 01 02 03 04 05 06 07  08 09 0A 0B 0C 0D 0E 0F
      -- -- -- -- -- -- -- --  -- -- -- -- -- -- -- --
0020:          1C 04 80 27 10  1E 22 03 01 0D 6E 0E 22     ...'.."...n."
0030: 03 01 05 80 99 0E 22 03  01 6C 1D 22 03 01 06 80  ......"..l."....
0040: 02 80 6C 0F 22 03 01 00  80 07 80 00              ..l.".......    
```

#### Opcodes

```
  0: 0x0023 [0x1C] WAIT(500* ticks)
  1: 0x0026 [0x27] REQ_SET(priority=0x10, entity_id=Unnamed NPC (ID: 16982558/0x0103221E), tag_num=0x0D)
  2: 0x002D [0x6E] Salwa-Molwa (ID: 16982542/0x0103220E) uses emote 21*
  3: 0x0034 [0x99] Wait for Salwa-Molwa (ID: 16982542/0x0103220E) animation to complete
  4: 0x0039 [0x6C] FADE_ENTITY_COLOR(entity_id=Unnamed NPC (ID: 16982557/0x0103221D), end_alpha=0*, fade_time=90*)
  5: 0x0042 [0x6C] FADE_ENTITY_COLOR(entity_id=Mikilulu (ID: 16982543/0x0103220F), end_alpha=128*, fade_time=120*)
  6: 0x004B [0x00] END_REQSTACK()
```

### Event 65535.8

#### Metadata

| Field        | Value   |
|--------------|---------|
| Entrypoint   | 0x004C  |
| Data Size    | 1 bytes |
| Instructions | 1       |

```
      00 01 02 03 04 05 06 07  08 09 0A 0B 0C 0D 0E 0F
      -- -- -- -- -- -- -- --  -- -- -- -- -- -- -- --
0040:                                      00                       .   
```

#### Opcodes

```
  0: 0x004C [0x00] END_REQSTACK()
```

### Event 890

#### Metadata

| Field        | Value   |
|--------------|---------|
| Entrypoint   | 0x004D  |
| Data Size    | 1 bytes |
| Instructions | 1       |

```
      00 01 02 03 04 05 06 07  08 09 0A 0B 0C 0D 0E 0F
      -- -- -- -- -- -- -- --  -- -- -- -- -- -- -- --
0040:                                         00                     .  
```

#### Opcodes

```
  0: 0x004D [0x00] END_REQSTACK()
```

### Event 65535.9

#### Metadata

| Field        | Value    |
|--------------|----------|
| Entrypoint   | 0x004E   |
| Data Size    | 13 bytes |
| Instructions | 3        |

```
      00 01 02 03 04 05 06 07  08 09 0A 0B 0C 0D 0E 0F
      -- -- -- -- -- -- -- --  -- -- -- -- -- -- -- --
0040:                                            1C 08                ..
0050: 80 6C 14 22 03 01 06 80  09 80 00                 .l.".......     
```

#### Opcodes

```
  0: 0x004E [0x1C] WAIT(60* ticks)
  1: 0x0051 [0x6C] FADE_ENTITY_COLOR(entity_id=Unnamed NPC (ID: 16982548/0x01032214), end_alpha=0*, fade_time=300*)
  2: 0x005A [0x00] END_REQSTACK()
```

### Event 65535.10

#### Metadata

| Field        | Value    |
|--------------|----------|
| Entrypoint   | 0x005B   |
| Data Size    | 10 bytes |
| Instructions | 2        |

```
      00 01 02 03 04 05 06 07  08 09 0A 0B 0C 0D 0E 0F
      -- -- -- -- -- -- -- --  -- -- -- -- -- -- -- --
0050:                                   6C 14 22 03 01             l."..
0060: 00 80 0A 80 00                                    .....           
```

#### Opcodes

```
  0: 0x005B [0x6C] FADE_ENTITY_COLOR(entity_id=Unnamed NPC (ID: 16982548/0x01032214), end_alpha=128*, fade_time=1*)
  1: 0x0064 [0x00] END_REQSTACK()
```

### Event 65535.11

#### Metadata

| Field        | Value   |
|--------------|---------|
| Entrypoint   | 0x0065  |
| Data Size    | 1 bytes |
| Instructions | 1       |

```
      00 01 02 03 04 05 06 07  08 09 0A 0B 0C 0D 0E 0F
      -- -- -- -- -- -- -- --  -- -- -- -- -- -- -- --
0060:                00                                      .          
```

#### Opcodes

```
  0: 0x0065 [0x00] END_REQSTACK()
```

### Event 65535.12

#### Metadata

| Field        | Value    |
|--------------|----------|
| Entrypoint   | 0x0066   |
| Data Size    | 22 bytes |
| Instructions | 4        |

```
      00 01 02 03 04 05 06 07  08 09 0A 0B 0C 0D 0E 0F
      -- -- -- -- -- -- -- --  -- -- -- -- -- -- -- --
0060:                   1C 07  80 6C 14 22 03 01 0B 80        ...l."....
0070: 07 80 6C 14 22 03 01 06  80 08 80 00              ..l.".......    
```

#### Opcodes

```
  0: 0x0066 [0x1C] WAIT(120* ticks)
  1: 0x0069 [0x6C] FADE_ENTITY_COLOR(entity_id=Unnamed NPC (ID: 16982548/0x01032214), end_alpha=31*, fade_time=120*)
  2: 0x0072 [0x6C] FADE_ENTITY_COLOR(entity_id=Unnamed NPC (ID: 16982548/0x01032214), end_alpha=0*, fade_time=60*)
  3: 0x007B [0x00] END_REQSTACK()
```
