# 16982137 - Rodin-Comidin

## Common Data

| Field            | Value                          |
|------------------|--------------------------------|
| Zone             | Aht Urhgan Whitegate2 (ID: 50) |
| Block Size       | 1276 bytes                     |
| Total Events     | 31                             |
| References Count | 69                             |

## List of Events

| Event ID                    | Entrypoint   |   Size |   Instructions |
|-----------------------------|--------------|--------|----------------|
| [65535](#event-65535)       | 0x0000       |      1 |              1 |
| [65535.1](#event-65535-1)   | 0x0001       |     55 |             13 |
| [3090](#event-3090)         | 0x0038       |      1 |              1 |
| [3099](#event-3099)         | 0x0039       |     17 |              9 |
| [3100](#event-3100)         | 0x004A       |     33 |              9 |
| [3101](#event-3101)         | 0x006B       |     33 |              9 |
| [3102](#event-3102)         | 0x008C       |     40 |             12 |
| [3103](#event-3103)         | 0x00B4       |     52 |             12 |
| [3104](#event-3104)         | 0x00E8       |     40 |             12 |
| [3105](#event-3105)         | 0x0110       |     98 |             26 |
| [65535.2](#event-65535-2)   | 0x0172       |     15 |              5 |
| [65535.3](#event-65535-3)   | 0x0181       |     15 |              5 |
| [65535.4](#event-65535-4)   | 0x0190       |     31 |              5 |
| [65535.5](#event-65535-5)   | 0x01AF       |     20 |              6 |
| [65535.6](#event-65535-6)   | 0x01C3       |     20 |              6 |
| [3220](#event-3220)         | 0x01D7       |      1 |              1 |
| [65535.7](#event-65535-7)   | 0x01D8       |     32 |              8 |
| [65535.8](#event-65535-8)   | 0x01F8       |     14 |              4 |
| [65535.9](#event-65535-9)   | 0x0206       |     22 |              6 |
| [65535.10](#event-65535-10) | 0x021C       |     19 |              5 |
| [65535.11](#event-65535-11) | 0x022F       |     56 |             14 |
| [3136](#event-3136)         | 0x0267       |      7 |              2 |
| [65535.12](#event-65535-12) | 0x026E       |     16 |              5 |
| [65535.13](#event-65535-13) | 0x027E       |     14 |              4 |
| [65535.14](#event-65535-14) | 0x028C       |     35 |              6 |
| [3137](#event-3137)         | 0x02AF       |      1 |              1 |
| [3141](#event-3141)         | 0x02B0       |      1 |              1 |
| [3142](#event-3142)         | 0x02B1       |      1 |              1 |
| [3145](#event-3145)         | 0x02B2       |     29 |              7 |
| [3146](#event-3146)         | 0x02CF       |     86 |             16 |
| [3147](#event-3147)         | 0x0325       |     52 |             12 |

## DAT References (imed_data)

|   Index | Hex Value   |   Dec Value |
|---------|-------------|-------------|
|       0 | 0x001E      |          30 |
|       1 | 0x0028      |          40 |
|       2 | 0x2996      |       10646 |
|       3 | 0x2997      |       10647 |
|       4 | 0x2998      |       10648 |
|       5 | 0x232E      |        9006 |
|       6 | 0x232F      |        9007 |
|       7 | 0x0029      |          41 |
|       8 | 0x2330      |        9008 |
|       9 | 0x2331      |        9009 |
|      10 | 0x2332      |        9010 |
|      11 | 0x2333      |        9011 |
|      12 | 0x2338      |        9016 |
|      13 | 0x2339      |        9017 |
|      14 | 0x233A      |        9018 |
|      15 | 0x233B      |        9019 |
|      16 | 0x233C      |        9020 |
|      17 | 0x233D      |        9021 |
|      18 | 0x2341      |        9025 |
|      19 | 0x2342      |        9026 |
|      20 | 0x2343      |        9027 |
|      21 | 0x2349      |        9033 |
|      22 | 0x234A      |        9034 |
|      23 | 0x234B      |        9035 |
|      24 | 0x234C      |        9036 |
|      25 | 0x0000      |           0 |
|      26 | 0x234D      |        9037 |
|      27 | 0x0001      |           1 |
|      28 | 0x234E      |        9038 |
|      29 | 0x234F      |        9039 |
|      30 | 0x2350      |        9040 |
|      31 | 0xFFFFF92B  |  4294965547 |
|      32 | 0xFFFE9384  |  4294873988 |
|      33 | 0x000B      |          11 |
|      34 | 0xFFFFF9B1  |  4294965681 |
|      35 | 0xFFFE9EAC  |  4294876844 |
|      36 | 0x000F      |          15 |
|      37 | 0x0014      |          20 |
|      38 | 0x000A      |          10 |
|      39 | 0xFFFFE098  |  4294959256 |
|      40 | 0xFFFF0A6F  |  4294904431 |
|      41 | 0x39D0      |       14800 |
|      42 | 0xEA82      |       60034 |
|      43 | 0xFFFFE890  |  4294961296 |
|      44 | 0xFFFE4CB5  |  4294855861 |
|      45 | 0x0B91      |        2961 |
|      46 | 0x0005      |           5 |
|      47 | 0xFFFE4B9B  |  4294855579 |
|      48 | 0xFFFFFF75  |  4294967157 |
|      49 | 0xFFFE43C7  |  4294853575 |
|      50 | 0x022B      |         555 |
|      51 | 0x003C      |          60 |
|      52 | 0x000D      |          13 |
|      53 | 0x2521      |        9505 |
|      54 | 0x2522      |        9506 |
|      55 | 0x2523      |        9507 |
|      56 | 0x2524      |        9508 |
|      57 | 0x11707     |       71431 |
|      58 | 0xFFFE0EEF  |  4294840047 |
|      59 | 0x1185E     |       71774 |
|      60 | 0xFFFE1240  |  4294840896 |
|      61 | 0x2546      |        9542 |
|      62 | 0x2637      |        9783 |
|      63 | 0x2638      |        9784 |
|      64 | 0x2639      |        9785 |
|      65 | 0x263A      |        9786 |
|      66 | 0x2781      |       10113 |
|      67 | 0x2782      |       10114 |
|      68 | 0x2783      |       10115 |

## Events

### Event 65535

#### Metadata

| Field        | Value   |
|--------------|---------|
| Entrypoint   | 0x0000  |
| Data Size    | 1 bytes |
| Instructions | 1       |

```
      00 01 02 03 04 05 06 07  08 09 0A 0B 0C 0D 0E 0F
      -- -- -- -- -- -- -- --  -- -- -- -- -- -- -- --
0000: 00                                                .               
```

#### Opcodes

```
  0: 0x0000 [0x00] END_REQSTACK()
```

### Event 65535.1

#### Metadata

| Field        | Value    |
|--------------|----------|
| Entrypoint   | 0x0001   |
| Data Size    | 55 bytes |
| Instructions | 13       |

```
      00 01 02 03 04 05 06 07  08 09 0A 0B 0C 0D 0E 0F
      -- -- -- -- -- -- -- --  -- -- -- -- -- -- -- --
0000:    1E F0 FF FF 7F 1C 00  80 66 01 80 F8 FF FF 7F   ........f......
0010: F8 FF FF 7F 74 68 6B 31  1D 02 80 23 1D 03 80 23  ....thk1...#...#
0020: 1D 04 80 23 66 01 80 F8  FF FF 7F F8 FF FF 7F 74  ...#f..........t
0030: 68 6B 32 1C 00 80 21 00                           hk2...!.        
```

#### Opcodes

```
  0: 0x0001 [0x1E] EventEntity looks at LocalPlayer and starts talking
  1: 0x0006 [0x1C] WAIT(30* ticks)
  2: 0x0009 [0x66] LOAD_EXT_SCHEDULER_MAIN: Load scheduler "thk1" with entities [EventEntity, EventEntity], work=40*
  3: 0x0018 [0x1D] PRINT_EVENT_MESSAGE(message_id=10646*)
    → "Cardians and puppets...\u0007Automatons and Cardians...\u007F1\u0000\u0007"
  4: 0x001B [0x23] WAIT_FOR_DIALOG_INTERACTION
  5: 0x001C [0x1D] PRINT_EVENT_MESSAGE(message_id=10647*)
    → "Mobility, mass production, endurance, widespread use, safety, reliability, thermal power, cognition, practicality, beauty, eloquence, charm...and even that's not the last of their similarities!\u007F1\u0000\u0007"
  6: 0x001F [0x23] WAIT_FOR_DIALOG_INTERACTION
  7: 0x0020 [0x1D] PRINT_EVENT_MESSAGE(message_id=10648*)
    → "But how are they different?\u0007And which is better? They won't let me go home until I know the answer!\u007F1\u0000\u0007"
  8: 0x0023 [0x23] WAIT_FOR_DIALOG_INTERACTION
  9: 0x0024 [0x66] LOAD_EXT_SCHEDULER_MAIN: Load scheduler "thk2" with entities [EventEntity, EventEntity], work=40*
 10: 0x0033 [0x1C] WAIT(30* ticks)
 11: 0x0036 [0x21] END_EVENT
 12: 0x0037 [0x00] END_REQSTACK()
```

### Event 3090

#### Metadata

| Field        | Value   |
|--------------|---------|
| Entrypoint   | 0x0038  |
| Data Size    | 1 bytes |
| Instructions | 1       |

```
      00 01 02 03 04 05 06 07  08 09 0A 0B 0C 0D 0E 0F
      -- -- -- -- -- -- -- --  -- -- -- -- -- -- -- --
0030:                          00                               .       
```

#### Opcodes

```
  0: 0x0038 [0x00] END_REQSTACK()
```

### Event 3099

#### Metadata

| Field        | Value    |
|--------------|----------|
| Entrypoint   | 0x0039   |
| Data Size    | 17 bytes |
| Instructions | 9        |

```
      00 01 02 03 04 05 06 07  08 09 0A 0B 0C 0D 0E 0F
      -- -- -- -- -- -- -- --  -- -- -- -- -- -- -- --
0030:                             1E F0 FF FF 7F 6F 70           .....op
0040: 1D 05 80 23 1D 06 80 23  21 00                    ...#...#!.      
```

#### Opcodes

```
  0: 0x0039 [0x1E] EventEntity looks at LocalPlayer and starts talking
  1: 0x003E [0x6F] WAIT_FRAME_DELAY: Yield until WaitTime reaches zero
  2: 0x003F [0x70] WAIT_ENTITY_RENDER_FLAG: Wait while EventEntity->Render.Flags3 bit 2 is set (cancel turn if not)
  3: 0x0040 [0x1D] PRINT_EVENT_MESSAGE(message_id=9006*)
    → "Doctor Shan--\u0007Ah, Lady Karababa!!!\u007F1\u0000\u0007"
  4: 0x0043 [0x23] WAIT_FOR_DIALOG_INTERACTION
  5: 0x0044 [0x1D] PRINT_EVENT_MESSAGE(message_id=9007*)
    → "Where could she have disappeared to?\u0007I was just changing into my best clothes so I could take her to the Shararat Teahouse.\u007F1\u0000\u0007"
  6: 0x0047 [0x23] WAIT_FOR_DIALOG_INTERACTION
  7: 0x0048 [0x21] END_EVENT
  8: 0x0049 [0x00] END_REQSTACK()
```

### Event 3100

#### Metadata

| Field        | Value    |
|--------------|----------|
| Entrypoint   | 0x004A   |
| Data Size    | 33 bytes |
| Instructions | 9        |

```
      00 01 02 03 04 05 06 07  08 09 0A 0B 0C 0D 0E 0F
      -- -- -- -- -- -- -- --  -- -- -- -- -- -- -- --
0040:                                1E F0 FF FF 7F 1C            ......
0050: 00 80 66 07 80 F8 FF FF  7F F8 FF FF 7F 73 68 6B  ..f..........shk
0060: 30 1D 08 80 23 1D 09 80  23 21 00                 0...#...#!.     
```

#### Opcodes

```
  0: 0x004A [0x1E] EventEntity looks at LocalPlayer and starts talking
  1: 0x004F [0x1C] WAIT(30* ticks)
  2: 0x0052 [0x66] LOAD_EXT_SCHEDULER_MAIN: Load scheduler "shk0" with entities [EventEntity, EventEntity], work=41*
  3: 0x0061 [0x1D] PRINT_EVENT_MESSAGE(message_id=9008*)
    → "You mean Doctor Shan--\u0007I mean, Lady Karababa has already arrived at the teahouse!?\u007F1\u0000\u0007"
  4: 0x0064 [0x23] WAIT_FOR_DIALOG_INTERACTION
  5: 0x0065 [0x1D] PRINT_EVENT_MESSAGE(message_id=9009*)
    → "Oh my, oh my, oh my!\u0007I'll be cursed for sure!\u007F1\u0000\u0007"
  6: 0x0068 [0x23] WAIT_FOR_DIALOG_INTERACTION
  7: 0x0069 [0x21] END_EVENT
  8: 0x006A [0x00] END_REQSTACK()
```

### Event 3101

#### Metadata

| Field        | Value    |
|--------------|----------|
| Entrypoint   | 0x006B   |
| Data Size    | 33 bytes |
| Instructions | 9        |

```
      00 01 02 03 04 05 06 07  08 09 0A 0B 0C 0D 0E 0F
      -- -- -- -- -- -- -- --  -- -- -- -- -- -- -- --
0060:                                   1E F0 FF FF 7F             .....
0070: 1C 00 80 66 07 80 F8 FF  FF 7F F8 FF FF 7F 73 68  ...f..........sh
0080: 6B 30 1D 0A 80 23 1D 0B  80 23 21 00              k0...#...#!.    
```

#### Opcodes

```
  0: 0x006B [0x1E] EventEntity looks at LocalPlayer and starts talking
  1: 0x0070 [0x1C] WAIT(30* ticks)
  2: 0x0073 [0x66] LOAD_EXT_SCHEDULER_MAIN: Load scheduler "shk0" with entities [EventEntity, EventEntity], work=41*
  3: 0x0082 [0x1D] PRINT_EVENT_MESSAGE(message_id=9010*)
    → "A-Aydeewa Subterrane!\u0007Doctor Shan--\u0007Ah, Lady Karababa ventured down there!?\u007F1\u0000\u0007"
  4: 0x0085 [0x23] WAIT_FOR_DIALOG_INTERACTION
  5: 0x0086 [0x1D] PRINT_EVENT_MESSAGE(message_id=9011*)
    → "Oh my, oh my, oh my!\u0007If she doesn't need my guidance, then she might not need me to exist at all...\u007F1\u0000\u0007"
  6: 0x0089 [0x23] WAIT_FOR_DIALOG_INTERACTION
  7: 0x008A [0x21] END_EVENT
  8: 0x008B [0x00] END_REQSTACK()
```

### Event 3102

#### Metadata

| Field        | Value    |
|--------------|----------|
| Entrypoint   | 0x008C   |
| Data Size    | 40 bytes |
| Instructions | 12       |

```
      00 01 02 03 04 05 06 07  08 09 0A 0B 0C 0D 0E 0F
      -- -- -- -- -- -- -- --  -- -- -- -- -- -- -- --
0080:                                      1E F0 FF FF              ....
0090: 7F 1C 00 80 1D 0C 80 23  66 01 80 F8 FF FF 7F F8  .......#f.......
00A0: FF FF 7F 69 72 6F 30 1D  0D 80 23 1D 0E 80 23 1C  ...iro0...#...#.
00B0: 00 80 21 00                                       ..!.            
```

#### Opcodes

```
  0: 0x008C [0x1E] EventEntity looks at LocalPlayer and starts talking
  1: 0x0091 [0x1C] WAIT(30* ticks)
  2: 0x0094 [0x1D] PRINT_EVENT_MESSAGE(message_id=9016*)
    → "Doctor Shan--\u0007Ah, Lady Karababa means to enter the Navukgo Execution Chamber!?\u007F1\u0000\u0007"
  3: 0x0097 [0x23] WAIT_FOR_DIALOG_INTERACTION
  4: 0x0098 [0x66] LOAD_EXT_SCHEDULER_MAIN: Load scheduler "iro0" with entities [EventEntity, EventEntity], work=40*
  5: 0x00A7 [0x1D] PRINT_EVENT_MESSAGE(message_id=9017*)
    → "Hmmm.\u0007But at least I have been charged with finding an exemplary alchemist!\u007F1\u0000\u0007"
  6: 0x00AA [0x23] WAIT_FOR_DIALOG_INTERACTION
  7: 0x00AB [0x1D] PRINT_EVENT_MESSAGE(message_id=9018*)
    → "Lady Karababa needs me after all!\u0007So much safer to be needed...\u007F1\u0000\u0007"
  8: 0x00AE [0x23] WAIT_FOR_DIALOG_INTERACTION
  9: 0x00AF [0x1C] WAIT(30* ticks)
 10: 0x00B2 [0x21] END_EVENT
 11: 0x00B3 [0x00] END_REQSTACK()
```

### Event 3103

#### Metadata

| Field        | Value    |
|--------------|----------|
| Entrypoint   | 0x00B4   |
| Data Size    | 52 bytes |
| Instructions | 12       |

```
      00 01 02 03 04 05 06 07  08 09 0A 0B 0C 0D 0E 0F
      -- -- -- -- -- -- -- --  -- -- -- -- -- -- -- --
00B0:             1E F0 FF FF  7F 1C 00 80 66 01 80 F8      ........f...
00C0: FF FF 7F F8 FF FF 7F 74  68 6B 31 1D 0F 80 23 1D  .......thk1...#.
00D0: 10 80 23 66 01 80 F8 FF  FF 7F F8 FF FF 7F 74 68  ..#f..........th
00E0: 6B 32 1D 11 80 23 21 00                           k2...#!.        
```

#### Opcodes

```
  0: 0x00B4 [0x1E] EventEntity looks at LocalPlayer and starts talking
  1: 0x00B9 [0x1C] WAIT(30* ticks)
  2: 0x00BC [0x66] LOAD_EXT_SCHEDULER_MAIN: Load scheduler "thk1" with entities [EventEntity, EventEntity], work=40*
  3: 0x00CB [0x1D] PRINT_EVENT_MESSAGE(message_id=9019*)
    → "I've been ordered by the King of Hearts to find an alchemist...\u007F1\u0000\u0007"
  4: 0x00CE [0x23] WAIT_FOR_DIALOG_INTERACTION
  5: 0x00CF [0x1D] PRINT_EVENT_MESSAGE(message_id=9020*)
    → "The alchemist is to analyze the remains of an insulator they found in the Olduum ruins...\u007F1\u0000\u0007"
  6: 0x00D2 [0x23] WAIT_FOR_DIALOG_INTERACTION
  7: 0x00D3 [0x66] LOAD_EXT_SCHEDULER_MAIN: Load scheduler "thk2" with entities [EventEntity, EventEntity], work=40*
  8: 0x00E2 [0x1D] PRINT_EVENT_MESSAGE(message_id=9021*)
    → "But these Imperial alchemists are all so self-important and busy...\u007F1\u0000\u0007"
  9: 0x00E5 [0x23] WAIT_FOR_DIALOG_INTERACTION
 10: 0x00E6 [0x21] END_EVENT
 11: 0x00E7 [0x00] END_REQSTACK()
```

### Event 3104

#### Metadata

| Field        | Value    |
|--------------|----------|
| Entrypoint   | 0x00E8   |
| Data Size    | 40 bytes |
| Instructions | 12       |

```
      00 01 02 03 04 05 06 07  08 09 0A 0B 0C 0D 0E 0F
      -- -- -- -- -- -- -- --  -- -- -- -- -- -- -- --
00E0:                          1E F0 FF FF 7F 1C 00 80          ........
00F0: 1D 12 80 23 66 01 80 F8  FF FF 7F F8 FF FF 7F 73  ...#f..........s
0100: 79 75 30 1D 13 80 23 1D  14 80 23 1C 00 80 21 00  yu0...#...#...!.
```

#### Opcodes

```
  0: 0x00E8 [0x1E] EventEntity looks at LocalPlayer and starts talking
  1: 0x00ED [0x1C] WAIT(30* ticks)
  2: 0x00F0 [0x1D] PRINT_EVENT_MESSAGE(message_id=9025*)
    → "An invitation to a banquet at the palace!\u007F1\u0000\u0007"
  3: 0x00F3 [0x23] WAIT_FOR_DIALOG_INTERACTION
  4: 0x00F4 [0x66] LOAD_EXT_SCHEDULER_MAIN: Load scheduler "syu0" with entities [EventEntity, EventEntity], work=40*
  5: 0x0103 [0x1D] PRINT_EVENT_MESSAGE(message_id=9026*)
    → "Wow, even the Grand Vizier recognized Lady Karababa's importance.\u007F1\u0000\u0007"
  6: 0x0106 [0x23] WAIT_FOR_DIALOG_INTERACTION
  7: 0x0107 [0x1D] PRINT_EVENT_MESSAGE(message_id=9027*)
    → "Oh! I should get my dinner suit ready!\u0007They'll probably be here for me at any moment!\u007F1\u0000\u0007"
  8: 0x010A [0x23] WAIT_FOR_DIALOG_INTERACTION
  9: 0x010B [0x1C] WAIT(30* ticks)
 10: 0x010E [0x21] END_EVENT
 11: 0x010F [0x00] END_REQSTACK()
```

### Event 3105

#### Metadata

| Field        | Value    |
|--------------|----------|
| Entrypoint   | 0x0110   |
| Data Size    | 98 bytes |
| Instructions | 26       |

```
      00 01 02 03 04 05 06 07  08 09 0A 0B 0C 0D 0E 0F
      -- -- -- -- -- -- -- --  -- -- -- -- -- -- -- --
0110: 1E F0 FF FF 7F 1C 00 80  1D 15 80 23 66 01 80 F8  ...........#f...
0120: FF FF 7F F8 FF FF 7F 67  6B 72 30 1D 16 80 23 1D  .......gkr0...#.
0130: 17 80 23 66 01 80 F8 FF  FF 7F F8 FF FF 7F 67 6B  ..#f..........gk
0140: 72 31 24 18 80 19 80 19  80 25 02 00 10 19 80 00  r1$......%......
0150: 59 01 1D 1A 80 23 01 70  01 02 00 10 1B 80 00 70  Y....#.p.......p
0160: 01 1D 1C 80 23 1D 1D 80  23 1D 1E 80 23 01 70 01  ....#...#...#.p.
0170: 21 00                                             !.              
```

#### Opcodes

```
  0: 0x0110 [0x1E] EventEntity looks at LocalPlayer and starts talking
  1: 0x0115 [0x1C] WAIT(30* ticks)
  2: 0x0118 [0x1D] PRINT_EVENT_MESSAGE(message_id=9033*)
    → "Sh-sh-she's g-g-gone!?\u0007B-b-but...she left without saying a word to me...\u007F1\u0000\u0007"
  3: 0x011B [0x23] WAIT_FOR_DIALOG_INTERACTION
  4: 0x011C [0x66] LOAD_EXT_SCHEDULER_MAIN: Load scheduler "gkr0" with entities [EventEntity, EventEntity], work=40*
  5: 0x012B [0x1D] PRINT_EVENT_MESSAGE(message_id=9034*)
    → "L-L-Lady Karababa...\u007F1\u0000\u0007"
  6: 0x012E [0x23] WAIT_FOR_DIALOG_INTERACTION
  7: 0x012F [0x1D] PRINT_EVENT_MESSAGE(message_id=9035*)
    → "D-d-does this mean she didn't need me after all?\u007F1\u0000\u0007"
  8: 0x0132 [0x23] WAIT_FOR_DIALOG_INTERACTION
  9: 0x0133 [0x66] LOAD_EXT_SCHEDULER_MAIN: Load scheduler "gkr1" with entities [EventEntity, EventEntity], work=40*
 10: 0x0142 [0x24] CREATE_DIALOG(message_id=9036*, default_option=0*, option_flags=0*)
    → "Does Lady Karababa need him?\u0007\u000BOf course she needs you!\u0007\u00072Loser\u00073 was the word she used...\u007F1\u0000\u0007"
 11: 0x0149 [0x25] WAIT_DIALOG_SELECT()
 12: 0x014A [0x02] IF !(Work_Zone[0] == 0*) GOTO 0x0159
 13: 0x0152 [0x1D] PRINT_EVENT_MESSAGE(message_id=9037*)
    → "Do you really think so!?\u0007Oh, thank you, \u0008!\u007F1\u0000\u0007"
 14: 0x0155 [0x23] WAIT_FOR_DIALOG_INTERACTION
 15: 0x0156 [0x01] GOTO 0x0170
 16: 0x0159 [0x02] IF !(Work_Zone[0] == 1*) GOTO 0x0170
 17: 0x0161 [0x1D] PRINT_EVENT_MESSAGE(message_id=9038*)
    → "I see...\u0007Well, then. I better live up to my reputation!\u007F1\u0000\u0007"
 18: 0x0164 [0x23] WAIT_FOR_DIALOG_INTERACTION
 19: 0x0165 [0x1D] PRINT_EVENT_MESSAGE(message_id=9039*)
    → "From this day forth, Rodin-Comidin is gonna be a rebel without a clue!\u0007I mean, cause!\u007F1\u0000\u0007"
 20: 0x0168 [0x23] WAIT_FOR_DIALOG_INTERACTION
 21: 0x0169 [0x1D] PRINT_EVENT_MESSAGE(message_id=9040*)
    → "No more running errands for the motherland!!!\u007F1\u0000\u0007"
 22: 0x016C [0x23] WAIT_FOR_DIALOG_INTERACTION
 23: 0x016D [0x01] GOTO 0x0170

SUBROUTINE_0170:
 24: 0x0170 [0x21] END_EVENT
 25: 0x0171 [0x00] END_REQSTACK()
```

### Event 65535.2

#### Metadata

| Field        | Value    |
|--------------|----------|
| Entrypoint   | 0x0172   |
| Data Size    | 15 bytes |
| Instructions | 5        |

```
      00 01 02 03 04 05 06 07  08 09 0A 0B 0C 0D 0E 0F
      -- -- -- -- -- -- -- --  -- -- -- -- -- -- -- --
0170:       32 01 80 1F 00 1F  80 20 80 19 80 1F 01 6F    2...... .....o
0180: 00                                                .               
```

#### Opcodes

```
  0: 0x0172 [0x32] ExtData[1]->MainSpeed = 40* * 0.1
  1: 0x0175 [0x1F] MOVE_ENTITY: EventEntity moves to X=-1.749*, Z=-93.308*, Y=0.000*
  2: 0x017D [0x1F] MOVE_ENTITY: Update entity position (mode=1)
  3: 0x017F [0x6F] WAIT_FRAME_DELAY: Yield until WaitTime reaches zero
  4: 0x0180 [0x00] END_REQSTACK()
```

### Event 65535.3

#### Metadata

| Field        | Value    |
|--------------|----------|
| Entrypoint   | 0x0181   |
| Data Size    | 15 bytes |
| Instructions | 5        |

```
      00 01 02 03 04 05 06 07  08 09 0A 0B 0C 0D 0E 0F
      -- -- -- -- -- -- -- --  -- -- -- -- -- -- -- --
0180:    32 21 80 1F 00 22 80  23 80 19 80 1F 01 6F 00   2!...".#.....o.
```

#### Opcodes

```
  0: 0x0181 [0x32] ExtData[1]->MainSpeed = 11* * 0.1
  1: 0x0184 [0x1F] MOVE_ENTITY: EventEntity moves to X=-1.615*, Z=-90.452*, Y=0.000*
  2: 0x018C [0x1F] MOVE_ENTITY: Update entity position (mode=1)
  3: 0x018E [0x6F] WAIT_FRAME_DELAY: Yield until WaitTime reaches zero
  4: 0x018F [0x00] END_REQSTACK()
```

### Event 65535.4

#### Metadata

| Field        | Value    |
|--------------|----------|
| Entrypoint   | 0x0190   |
| Data Size    | 31 bytes |
| Instructions | 5        |

```
      00 01 02 03 04 05 06 07  08 09 0A 0B 0C 0D 0E 0F
      -- -- -- -- -- -- -- --  -- -- -- -- -- -- -- --
0190: 1C 24 80 66 07 80 79 20  03 01 79 20 03 01 65 68  .$.f..y ..y ..eh
01A0: 6E 31 1C 25 80 4A 79 20  03 01 D6 20 03 01 00     n1.%.Jy ... ... 
```

#### Opcodes

```
  0: 0x0190 [0x1C] WAIT(15* ticks)
  1: 0x0193 [0x66] LOAD_EXT_SCHEDULER_MAIN: Load scheduler "ehn1" with entities [Rodin-Comidin (ID: 16982137/0x01032079), Rodin-Comidin (ID: 16982137/0x01032079)], work=41*
  2: 0x01A2 [0x1C] WAIT(20* ticks)
  3: 0x01A5 [0x4A] Rodin-Comidin (ID: 16982137/0x01032079) looks at Karababa (ID: 16982230/0x010320D6)
  4: 0x01AE [0x00] END_REQSTACK()
```

### Event 65535.5

#### Metadata

| Field        | Value    |
|--------------|----------|
| Entrypoint   | 0x01AF   |
| Data Size    | 20 bytes |
| Instructions | 6        |

```
      00 01 02 03 04 05 06 07  08 09 0A 0B 0C 0D 0E 0F
      -- -- -- -- -- -- -- --  -- -- -- -- -- -- -- --
01A0:                                               32                 2
01B0: 26 80 1F 00 27 80 28 80  19 80 1F 01 6F 1E D6 20  &...'.(.....o.. 
01C0: 03 01 00                                          ...             
```

#### Opcodes

```
  0: 0x01AF [0x32] ExtData[1]->MainSpeed = 10* * 0.1
  1: 0x01B2 [0x1F] MOVE_ENTITY: EventEntity moves to X=-8.040*, Z=-62.865*, Y=0.000*
  2: 0x01BA [0x1F] MOVE_ENTITY: Update entity position (mode=1)
  3: 0x01BC [0x6F] WAIT_FRAME_DELAY: Yield until WaitTime reaches zero
  4: 0x01BD [0x1E] EventEntity looks at Karababa (ID: 16982230/0x010320D6) and starts talking
  5: 0x01C2 [0x00] END_REQSTACK()
```

### Event 65535.6

#### Metadata

| Field        | Value    |
|--------------|----------|
| Entrypoint   | 0x01C3   |
| Data Size    | 20 bytes |
| Instructions | 6        |

```
      00 01 02 03 04 05 06 07  08 09 0A 0B 0C 0D 0E 0F
      -- -- -- -- -- -- -- --  -- -- -- -- -- -- -- --
01C0:          32 01 80 1F 00  29 80 2A 80 2B 80 1F 01     2....).*.+...
01D0: 6F 1E D7 20 03 01 00                              o.. ...         
```

#### Opcodes

```
  0: 0x01C3 [0x32] ExtData[1]->MainSpeed = 40* * 0.1
  1: 0x01C6 [0x1F] MOVE_ENTITY: EventEntity moves to X=14.800*, Z=60.034*, Y=-6.000*
  2: 0x01CE [0x1F] MOVE_ENTITY: Update entity position (mode=1)
  3: 0x01D0 [0x6F] WAIT_FRAME_DELAY: Yield until WaitTime reaches zero
  4: 0x01D1 [0x1E] EventEntity looks at King of Hearts (ID: 16982231/0x010320D7) and starts talking
  5: 0x01D6 [0x00] END_REQSTACK()
```

### Event 3220

#### Metadata

| Field        | Value   |
|--------------|---------|
| Entrypoint   | 0x01D7  |
| Data Size    | 1 bytes |
| Instructions | 1       |

```
      00 01 02 03 04 05 06 07  08 09 0A 0B 0C 0D 0E 0F
      -- -- -- -- -- -- -- --  -- -- -- -- -- -- -- --
01D0:                      00                                  .        
```

#### Opcodes

```
  0: 0x01D7 [0x00] END_REQSTACK()
```

### Event 65535.7

#### Metadata

| Field        | Value    |
|--------------|----------|
| Entrypoint   | 0x01D8   |
| Data Size    | 32 bytes |
| Instructions | 8        |

```
      00 01 02 03 04 05 06 07  08 09 0A 0B 0C 0D 0E 0F
      -- -- -- -- -- -- -- --  -- -- -- -- -- -- -- --
01D0:                          32 01 80 1F 00 2C 80 2D          2....,.-
01E0: 80 19 80 1F 01 6F 4A D2  20 03 01 79 20 03 01 1C  .....oJ. ..y ...
01F0: 2E 80 1E D2 20 03 01 00                           .... ...        
```

#### Opcodes

```
  0: 0x01D8 [0x32] ExtData[1]->MainSpeed = 40* * 0.1
  1: 0x01DB [0x1F] MOVE_ENTITY: EventEntity moves to X=-111.435*, Z=2.961*, Y=0.000*
  2: 0x01E3 [0x1F] MOVE_ENTITY: Update entity position (mode=1)
  3: 0x01E5 [0x6F] WAIT_FRAME_DELAY: Yield until WaitTime reaches zero
  4: 0x01E6 [0x4A] Travialce (ID: 16982226/0x010320D2) looks at Rodin-Comidin (ID: 16982137/0x01032079)
  5: 0x01EF [0x1C] WAIT(5* ticks)
  6: 0x01F2 [0x1E] EventEntity looks at Travialce (ID: 16982226/0x010320D2) and starts talking
  7: 0x01F7 [0x00] END_REQSTACK()
```

### Event 65535.8

#### Metadata

| Field        | Value    |
|--------------|----------|
| Entrypoint   | 0x01F8   |
| Data Size    | 14 bytes |
| Instructions | 4        |

```
      00 01 02 03 04 05 06 07  08 09 0A 0B 0C 0D 0E 0F
      -- -- -- -- -- -- -- --  -- -- -- -- -- -- -- --
01F0:                          32 01 80 1F 00 2F 80 30          2..../.0
0200: 80 19 80 1F 01 00                                 ......          
```

#### Opcodes

```
  0: 0x01F8 [0x32] ExtData[1]->MainSpeed = 40* * 0.1
  1: 0x01FB [0x1F] MOVE_ENTITY: EventEntity moves to X=-111.717*, Z=-0.139*, Y=0.000*
  2: 0x0203 [0x1F] MOVE_ENTITY: Update entity position (mode=1)
  3: 0x0205 [0x00] END_REQSTACK()
```

### Event 65535.9

#### Metadata

| Field        | Value    |
|--------------|----------|
| Entrypoint   | 0x0206   |
| Data Size    | 22 bytes |
| Instructions | 6        |

```
      00 01 02 03 04 05 06 07  08 09 0A 0B 0C 0D 0E 0F
      -- -- -- -- -- -- -- --  -- -- -- -- -- -- -- --
0200:                   32 01  80 1F 00 31 80 32 80 19        2....1.2..
0210: 80 1F 01 1E E0 20 03 01  1C 33 80 00              ..... ...3..    
```

#### Opcodes

```
  0: 0x0206 [0x32] ExtData[1]->MainSpeed = 40* * 0.1
  1: 0x0209 [0x1F] MOVE_ENTITY: EventEntity moves to X=-113.721*, Z=0.555*, Y=0.000*
  2: 0x0211 [0x1F] MOVE_ENTITY: Update entity position (mode=1)
  3: 0x0213 [0x1E] EventEntity looks at Ayame (ID: 16982240/0x010320E0) and starts talking
  4: 0x0218 [0x1C] WAIT(60* ticks)
  5: 0x021B [0x00] END_REQSTACK()
```

### Event 65535.10

#### Metadata

| Field        | Value    |
|--------------|----------|
| Entrypoint   | 0x021C   |
| Data Size    | 19 bytes |
| Instructions | 5        |

```
      00 01 02 03 04 05 06 07  08 09 0A 0B 0C 0D 0E 0F
      -- -- -- -- -- -- -- --  -- -- -- -- -- -- -- --
0210:                                      32 34 80 1F              24..
0220: 00 2C 80 2D 80 19 80 1F  01 1E E0 20 03 01 00     .,.-....... ... 
```

#### Opcodes

```
  0: 0x021C [0x32] ExtData[1]->MainSpeed = 13* * 0.1
  1: 0x021F [0x1F] MOVE_ENTITY: EventEntity moves to X=-111.435*, Z=2.961*, Y=0.000*
  2: 0x0227 [0x1F] MOVE_ENTITY: Update entity position (mode=1)
  3: 0x0229 [0x1E] EventEntity looks at Ayame (ID: 16982240/0x010320E0) and starts talking
  4: 0x022E [0x00] END_REQSTACK()
```

### Event 65535.11

#### Metadata

| Field        | Value    |
|--------------|----------|
| Entrypoint   | 0x022F   |
| Data Size    | 56 bytes |
| Instructions | 14       |

```
      00 01 02 03 04 05 06 07  08 09 0A 0B 0C 0D 0E 0F
      -- -- -- -- -- -- -- --  -- -- -- -- -- -- -- --
0220:                                               1E                 .
0230: F0 FF FF 7F 1C 00 80 1D  35 80 23 66 07 80 F8 FF  ........5.#f....
0240: FF 7F F8 FF FF 7F 65 68  6E 30 1D 36 80 23 1D 37  ......ehn0.6.#.7
0250: 80 23 66 07 80 F8 FF FF  7F F8 FF FF 7F 65 68 6E  .#f..........ehn
0260: 31 1D 38 80 23 21 00                              1.8.#!.         
```

#### Opcodes

```
  0: 0x022F [0x1E] EventEntity looks at LocalPlayer and starts talking
  1: 0x0234 [0x1C] WAIT(30* ticks)
  2: 0x0237 [0x1D] PRINT_EVENT_MESSAGE(message_id=9505*)
    → "Hehehe...\u007F1\u0000\u0007"
  3: 0x023A [0x23] WAIT_FOR_DIALOG_INTERACTION
  4: 0x023B [0x66] LOAD_EXT_SCHEDULER_MAIN: Load scheduler "ehn0" with entities [EventEntity, EventEntity], work=41*
  5: 0x024A [0x1D] PRINT_EVENT_MESSAGE(message_id=9506*)
    → "It's okay to be impressed.\u007F1\u0000\u0007"
  6: 0x024D [0x23] WAIT_FOR_DIALOG_INTERACTION
  7: 0x024E [0x1D] PRINT_EVENT_MESSAGE(message_id=9507*)
    → "For I, Rodin-Comidin, am the most resourceful espionage agent ever to tremble in fear before Doctor Shan...ahem.\u007F1\u0000\u0007"
  8: 0x0251 [0x23] WAIT_FOR_DIALOG_INTERACTION
  9: 0x0252 [0x66] LOAD_EXT_SCHEDULER_MAIN: Load scheduler "ehn1" with entities [EventEntity, EventEntity], work=41*
 10: 0x0261 [0x1D] PRINT_EVENT_MESSAGE(message_id=9508*)
    → "No other agent is willing to brave my simit and water diet so they can afford to buy all their information from the Qiqirn rumormongers...\u007F1\u0000\u0007"
 11: 0x0264 [0x23] WAIT_FOR_DIALOG_INTERACTION
 12: 0x0265 [0x21] END_EVENT
 13: 0x0266 [0x00] END_REQSTACK()
```

### Event 3136

#### Metadata

| Field        | Value   |
|--------------|---------|
| Entrypoint   | 0x0267  |
| Data Size    | 7 bytes |
| Instructions | 2       |

```
      00 01 02 03 04 05 06 07  08 09 0A 0B 0C 0D 0E 0F
      -- -- -- -- -- -- -- --  -- -- -- -- -- -- -- --
0260:                      92  01 F8 FF FF 7F 00               .......  
```

#### Opcodes

```
  0: 0x0267 [0x92] EventEntity->Render.Flags3 ^= 0x01
  1: 0x026D [0x00] END_REQSTACK()
```

### Event 65535.12

#### Metadata

| Field        | Value    |
|--------------|----------|
| Entrypoint   | 0x026E   |
| Data Size    | 16 bytes |
| Instructions | 5        |

```
      00 01 02 03 04 05 06 07  08 09 0A 0B 0C 0D 0E 0F
      -- -- -- -- -- -- -- --  -- -- -- -- -- -- -- --
0260:                                            33 01                3.
0270: 32 34 80 5A 00 39 80 3A  80 2B 80 5A 01 00        24.Z.9.:.+.Z..  
```

#### Opcodes

```
  0: 0x026E [0x33] EventEntity->Render.Flags0 |= 0x200000 // Bit 21 (flag=0x01)
  1: 0x0270 [0x32] ExtData[1]->MainSpeed = 13* * 0.1
  2: 0x0273 [0x5A] UPDATE_EVENT_POSITION: Set EventEntity MovePosition to X=71.431*, Z=-127.249*, Y=-6.000*
  3: 0x027B [0x5A] UPDATE_EVENT_POSITION: Move EventEntity incrementally towards MovePosition
  4: 0x027D [0x00] END_REQSTACK()
```

### Event 65535.13

#### Metadata

| Field        | Value    |
|--------------|----------|
| Entrypoint   | 0x027E   |
| Data Size    | 14 bytes |
| Instructions | 4        |

```
      00 01 02 03 04 05 06 07  08 09 0A 0B 0C 0D 0E 0F
      -- -- -- -- -- -- -- --  -- -- -- -- -- -- -- --
0270:                                            32 34                24
0280: 80 1F 00 3B 80 3C 80 2B  80 1F 01 00              ...;.<.+....    
```

#### Opcodes

```
  0: 0x027E [0x32] ExtData[1]->MainSpeed = 13* * 0.1
  1: 0x0281 [0x1F] MOVE_ENTITY: EventEntity moves to X=71.774*, Z=-126.400*, Y=-6.000*
  2: 0x0289 [0x1F] MOVE_ENTITY: Update entity position (mode=1)
  3: 0x028B [0x00] END_REQSTACK()
```

### Event 65535.14

#### Metadata

| Field        | Value    |
|--------------|----------|
| Entrypoint   | 0x028C   |
| Data Size    | 35 bytes |
| Instructions | 6        |

```
      00 01 02 03 04 05 06 07  08 09 0A 0B 0C 0D 0E 0F
      -- -- -- -- -- -- -- --  -- -- -- -- -- -- -- --
0280:                                      1C 33 80 4A              .3.J
0290: 79 20 03 01 E2 20 03 01  79 00 D2 20 03 01 E2 20  y ... ..y.. ... 
02A0: 03 01 1C 33 80 4A F0 FF  FF 7F E2 20 03 01 00     ...3.J..... ... 
```

#### Opcodes

```
  0: 0x028C [0x1C] WAIT(60* ticks)
  1: 0x028F [0x4A] Rodin-Comidin (ID: 16982137/0x01032079) looks at Naji (ID: 16982242/0x010320E2)
  2: 0x0298 [0x79] Travialce (ID: 16982226/0x010320D2) looks at Naji (ID: 16982242/0x010320E2) (Basic look)
  3: 0x02A2 [0x1C] WAIT(60* ticks)
  4: 0x02A5 [0x4A] LocalPlayer looks at Naji (ID: 16982242/0x010320E2)
  5: 0x02AE [0x00] END_REQSTACK()
```

### Event 3137

#### Metadata

| Field        | Value   |
|--------------|---------|
| Entrypoint   | 0x02AF  |
| Data Size    | 1 bytes |
| Instructions | 1       |

```
      00 01 02 03 04 05 06 07  08 09 0A 0B 0C 0D 0E 0F
      -- -- -- -- -- -- -- --  -- -- -- -- -- -- -- --
02A0:                                               00                 .
```

#### Opcodes

```
  0: 0x02AF [0x00] END_REQSTACK()
```

### Event 3141

#### Metadata

| Field        | Value   |
|--------------|---------|
| Entrypoint   | 0x02B0  |
| Data Size    | 1 bytes |
| Instructions | 1       |

```
      00 01 02 03 04 05 06 07  08 09 0A 0B 0C 0D 0E 0F
      -- -- -- -- -- -- -- --  -- -- -- -- -- -- -- --
02B0: 00                                                .               
```

#### Opcodes

```
  0: 0x02B0 [0x00] END_REQSTACK()
```

### Event 3142

#### Metadata

| Field        | Value   |
|--------------|---------|
| Entrypoint   | 0x02B1  |
| Data Size    | 1 bytes |
| Instructions | 1       |

```
      00 01 02 03 04 05 06 07  08 09 0A 0B 0C 0D 0E 0F
      -- -- -- -- -- -- -- --  -- -- -- -- -- -- -- --
02B0:    00                                              .              
```

#### Opcodes

```
  0: 0x02B1 [0x00] END_REQSTACK()
```

### Event 3145

#### Metadata

| Field        | Value    |
|--------------|----------|
| Entrypoint   | 0x02B2   |
| Data Size    | 29 bytes |
| Instructions | 7        |

```
      00 01 02 03 04 05 06 07  08 09 0A 0B 0C 0D 0E 0F
      -- -- -- -- -- -- -- --  -- -- -- -- -- -- -- --
02B0:       1E F0 FF FF 7F 1C  00 80 66 01 80 F8 FF FF    ........f.....
02C0: 7F F8 FF FF 7F 74 68 6B  31 1D 3D 80 23 21 00     .....thk1.=.#!. 
```

#### Opcodes

```
  0: 0x02B2 [0x1E] EventEntity looks at LocalPlayer and starts talking
  1: 0x02B7 [0x1C] WAIT(30* ticks)
  2: 0x02BA [0x66] LOAD_EXT_SCHEDULER_MAIN: Load scheduler "thk1" with entities [EventEntity, EventEntity], work=40*
  3: 0x02C9 [0x1D] PRINT_EVENT_MESSAGE(message_id=9542*)
    → "A terrible war could break out at any moment...\u0007I don't even want to think about it!\u007F1\u0000\u0007"
  4: 0x02CC [0x23] WAIT_FOR_DIALOG_INTERACTION
  5: 0x02CD [0x21] END_EVENT
  6: 0x02CE [0x00] END_REQSTACK()
```

### Event 3146

#### Metadata

| Field        | Value    |
|--------------|----------|
| Entrypoint   | 0x02CF   |
| Data Size    | 86 bytes |
| Instructions | 16       |

```
      00 01 02 03 04 05 06 07  08 09 0A 0B 0C 0D 0E 0F
      -- -- -- -- -- -- -- --  -- -- -- -- -- -- -- --
02C0:                                               1E                 .
02D0: F0 FF FF 7F 1C 00 80 66  01 80 F8 FF FF 7F F8 FF  .......f........
02E0: FF 7F 7A 69 74 30 1D 3E  80 23 66 01 80 F8 FF FF  ..zit0.>.#f.....
02F0: 7F F8 FF FF 7F 74 68 6B  31 1D 3F 80 23 66 01 80  .....thk1.?.#f..
0300: F8 FF FF 7F F8 FF FF 7F  74 68 6B 32 1D 40 80 23  ........thk2.@.#
0310: 66 01 80 F8 FF FF 7F F8  FF FF 7F 6F 62 69 30 1D  f..........obi0.
0320: 41 80 23 21 00                                    A.#!.           
```

#### Opcodes

```
  0: 0x02CF [0x1E] EventEntity looks at LocalPlayer and starts talking
  1: 0x02D4 [0x1C] WAIT(30* ticks)
  2: 0x02D7 [0x66] LOAD_EXT_SCHEDULER_MAIN: Load scheduler "zit0" with entities [EventEntity, EventEntity], work=40*
  3: 0x02E6 [0x1D] PRINT_EVENT_MESSAGE(message_id=9783*)
    → "Oh dear, oh dear, oh dear!\u0007The mission was a failure!?\u007F1\u0000\u0007"
  4: 0x02E9 [0x23] WAIT_FOR_DIALOG_INTERACTION
  5: 0x02EA [0x66] LOAD_EXT_SCHEDULER_MAIN: Load scheduler "thk1" with entities [EventEntity, EventEntity], work=40*
  6: 0x02F9 [0x1D] PRINT_EVENT_MESSAGE(message_id=9784*)
    → "Great skipping Star Sibyls...\u0007If only I had managed to go with you...\u007F1\u0000\u0007"
  7: 0x02FC [0x23] WAIT_FOR_DIALOG_INTERACTION
  8: 0x02FD [0x66] LOAD_EXT_SCHEDULER_MAIN: Load scheduler "thk2" with entities [EventEntity, EventEntity], work=40*
  9: 0x030C [0x1D] PRINT_EVENT_MESSAGE(message_id=9785*)
    → "Hm?\u0007The information we obtained was leaked by the enemy as a lure?\u007F1\u0000\u0007"
 10: 0x030F [0x23] WAIT_FOR_DIALOG_INTERACTION
 11: 0x0310 [0x66] LOAD_EXT_SCHEDULER_MAIN: Load scheduler "obi0" with entities [EventEntity, EventEntity], work=40*
 12: 0x031F [0x1D] PRINT_EVENT_MESSAGE(message_id=9786*)
    → "If my boss gets word of this, I can only imagine the horrid curse she'll devise just for me...<shiver>...\u007F1\u0000\u0007"
 13: 0x0322 [0x23] WAIT_FOR_DIALOG_INTERACTION
 14: 0x0323 [0x21] END_EVENT
 15: 0x0324 [0x00] END_REQSTACK()
```

### Event 3147

#### Metadata

| Field        | Value    |
|--------------|----------|
| Entrypoint   | 0x0325   |
| Data Size    | 52 bytes |
| Instructions | 12       |

```
      00 01 02 03 04 05 06 07  08 09 0A 0B 0C 0D 0E 0F
      -- -- -- -- -- -- -- --  -- -- -- -- -- -- -- --
0320:                1E F0 FF  FF 7F 1C 00 80 66 07 80       ........f..
0330: F8 FF FF 7F F8 FF FF 7F  73 68 6B 30 1D 42 80 23  ........shk0.B.#
0340: 1D 43 80 23 66 01 80 F8  FF FF 7F F8 FF FF 7F 67  .C.#f..........g
0350: 6B 72 30 1D 44 80 23 21  00                       kr0.D.#!.       
```

#### Opcodes

```
  0: 0x0325 [0x1E] EventEntity looks at LocalPlayer and starts talking
  1: 0x032A [0x1C] WAIT(30* ticks)
  2: 0x032D [0x66] LOAD_EXT_SCHEDULER_MAIN: Load scheduler "shk0" with entities [EventEntity, EventEntity], work=41*
  3: 0x033C [0x1D] PRINT_EVENT_MESSAGE(message_id=10113*)
    → "Wh-wh-what!?\u0007There was a coronation ceremony to reinstate the Empress?\u0007And all the most important foreign officials were invited?\u007F1\u0000\u0007"
  4: 0x033F [0x23] WAIT_FOR_DIALOG_INTERACTION
  5: 0x0340 [0x1D] PRINT_EVENT_MESSAGE(message_id=10114*)
    → "And you say Lady Karababa and King of Hearts were there?\u0007I suppose they must have forgotten to mention it to me...ohohoho.\u007F1\u0000\u0007"
  6: 0x0343 [0x23] WAIT_FOR_DIALOG_INTERACTION
  7: 0x0344 [0x66] LOAD_EXT_SCHEDULER_MAIN: Load scheduler "gkr0" with entities [EventEntity, EventEntity], work=40*
  8: 0x0353 [0x1D] PRINT_EVENT_MESSAGE(message_id=10115*)
    → "That's just fine. Just peachy.\u0007Maybe I'll just defect to the Empire...\u0007Yes, I could be a double agent, just like in those spy novels...!\u007F1\u0000\u0007"
  9: 0x0356 [0x23] WAIT_FOR_DIALOG_INTERACTION
 10: 0x0357 [0x21] END_EVENT
 11: 0x0358 [0x00] END_REQSTACK()
```
