# 0x7FFFFFF0 - Zone Events

## Common Data

| Field            | Value                          |
|------------------|--------------------------------|
| Zone             | Aht Urhgan Whitegate2 (ID: 50) |
| Block Size       | 5272 bytes                     |
| Total Events     | 136                            |
| References Count | 286                            |

## List of Events

| Event ID                     | Entrypoint   |   Size |   Instructions |
|------------------------------|--------------|--------|----------------|
| [65535](#event-65535)        | 0x0000       |      1 |              1 |
| [65535.1](#event-655351)     | 0x0001       |     10 |              2 |
| [65534](#event-65534)        | 0x000B       |      1 |              1 |
| [65535.2](#event-655352)     | 0x000C       |     37 |              5 |
| [65535.3](#event-655353)     | 0x0031       |     37 |              5 |
| [65535.4](#event-655354)     | 0x0056       |     37 |              5 |
| [65535.5](#event-655355)     | 0x007B       |    185 |             37 |
| [65535.6](#event-655356)     | 0x0134       |      6 |              2 |
| [65535.7](#event-655357)     | 0x013A       |      6 |              2 |
| [65535.8](#event-655358)     | 0x0140       |     10 |              2 |
| [65535.9](#event-655359)     | 0x014A       |     10 |              2 |
| [65535.10](#event-6553510)   | 0x0154       |     10 |              2 |
| [65535.11](#event-6553511)   | 0x015E       |     10 |              2 |
| [65535.12](#event-6553512)   | 0x0168       |     10 |              2 |
| [65535.13](#event-6553513)   | 0x0172       |     16 |              4 |
| [65535.14](#event-6553514)   | 0x0182       |     10 |              2 |
| [65535.15](#event-6553515)   | 0x018C       |     10 |              2 |
| [65535.16](#event-6553516)   | 0x0196       |     10 |              2 |
| [65535.17](#event-6553517)   | 0x01A0       |     10 |              2 |
| [65535.18](#event-6553518)   | 0x01AA       |     10 |              2 |
| [65535.19](#event-6553519)   | 0x01B4       |     16 |              4 |
| [65535.20](#event-6553520)   | 0x01C4       |     10 |              2 |
| [65535.21](#event-6553521)   | 0x01CE       |     16 |              4 |
| [65535.22](#event-6553522)   | 0x01DE       |     10 |              2 |
| [65535.23](#event-6553523)   | 0x01E8       |     10 |              2 |
| [65535.24](#event-6553524)   | 0x01F2       |     10 |              2 |
| [65535.25](#event-6553525)   | 0x01FC       |     10 |              2 |
| [65535.26](#event-6553526)   | 0x0206       |     10 |              2 |
| [65535.27](#event-6553527)   | 0x0210       |     14 |              4 |
| [65535.28](#event-6553528)   | 0x021E       |     14 |              4 |
| [65535.29](#event-6553529)   | 0x022C       |     14 |              4 |
| [65535.30](#event-6553530)   | 0x023A       |      9 |              3 |
| [65535.31](#event-6553531)   | 0x0243       |     10 |              2 |
| [65535.32](#event-6553532)   | 0x024D       |     10 |              2 |
| [65535.33](#event-6553533)   | 0x0257       |     15 |              5 |
| [65535.34](#event-6553534)   | 0x0266       |     10 |              2 |
| [65535.35](#event-6553535)   | 0x0270       |     15 |              3 |
| [65535.36](#event-6553536)   | 0x027F       |     15 |              3 |
| [65535.37](#event-6553537)   | 0x028E       |     10 |              2 |
| [65535.38](#event-6553538)   | 0x0298       |     19 |              5 |
| [65535.39](#event-6553539)   | 0x02AB       |     10 |              2 |
| [65535.40](#event-6553540)   | 0x02B5       |     10 |              2 |
| [65535.41](#event-6553541)   | 0x02BF       |     24 |              6 |
| [65535.42](#event-6553542)   | 0x02D7       |     14 |              4 |
| [65535.43](#event-6553543)   | 0x02E5       |     10 |              2 |
| [65535.44](#event-6553544)   | 0x02EF       |     14 |              4 |
| [65535.45](#event-6553545)   | 0x02FD       |     10 |              2 |
| [65535.46](#event-6553546)   | 0x0307       |     10 |              2 |
| [65535.47](#event-6553547)   | 0x0311       |     10 |              2 |
| [65535.48](#event-6553548)   | 0x031B       |     25 |              6 |
| [65535.49](#event-6553549)   | 0x0334       |     15 |              3 |
| [65535.50](#event-6553550)   | 0x0343       |      1 |              1 |
| [65535.51](#event-6553551)   | 0x0344       |     15 |              5 |
| [65535.52](#event-6553552)   | 0x0353       |     12 |              3 |
| [65535.53](#event-6553553)   | 0x035F       |      1 |              1 |
| [65535.54](#event-6553554)   | 0x0360       |     20 |              3 |
| [65535.55](#event-6553555)   | 0x0374       |     20 |              3 |
| [65535.56](#event-6553556)   | 0x0388       |     20 |              3 |
| [65535.57](#event-6553557)   | 0x039C       |     10 |              2 |
| [65535.58](#event-6553558)   | 0x03A6       |     15 |              5 |
| [65535.59](#event-6553559)   | 0x03B5       |     10 |              2 |
| [65535.60](#event-6553560)   | 0x03BF       |     10 |              2 |
| [65535.61](#event-6553561)   | 0x03C9       |     10 |              2 |
| [65535.62](#event-6553562)   | 0x03D3       |     15 |              5 |
| [65535.63](#event-6553563)   | 0x03E2       |     13 |              3 |
| [65535.64](#event-6553564)   | 0x03EF       |     22 |              8 |
| [65535.65](#event-6553565)   | 0x0405       |     10 |              2 |
| [65535.66](#event-6553566)   | 0x040F       |     26 |             10 |
| [65535.67](#event-6553567)   | 0x0429       |     10 |              2 |
| [65535.68](#event-6553568)   | 0x0433       |     10 |              2 |
| [65535.69](#event-6553569)   | 0x043D       |     15 |              5 |
| [65535.70](#event-6553570)   | 0x044C       |     11 |              5 |
| [65535.71](#event-6553571)   | 0x0457       |     15 |              3 |
| [65535.72](#event-6553572)   | 0x0466       |     30 |              4 |
| [65535.73](#event-6553573)   | 0x0484       |     10 |              2 |
| [65535.74](#event-6553574)   | 0x048E       |     10 |              2 |
| [65535.75](#event-6553575)   | 0x0498       |     15 |              5 |
| [65535.76](#event-6553576)   | 0x04A7       |     22 |              8 |
| [65535.77](#event-6553577)   | 0x04BD       |     15 |              5 |
| [65535.78](#event-6553578)   | 0x04CC       |     10 |              2 |
| [65535.79](#event-6553579)   | 0x04D6       |     10 |              2 |
| [65535.80](#event-6553580)   | 0x04E0       |     15 |              5 |
| [65535.81](#event-6553581)   | 0x04EF       |     21 |              5 |
| [65535.82](#event-6553582)   | 0x0504       |     13 |              3 |
| [65535.83](#event-6553583)   | 0x0511       |     15 |              4 |
| [65535.84](#event-6553584)   | 0x0520       |     15 |              5 |
| [65535.85](#event-6553585)   | 0x052F       |     10 |              2 |
| [65535.86](#event-6553586)   | 0x0539       |     18 |              6 |
| [65535.87](#event-6553587)   | 0x054B       |     10 |              2 |
| [65535.88](#event-6553588)   | 0x0555       |     34 |             10 |
| [65535.89](#event-6553589)   | 0x0577       |     10 |              2 |
| [65535.90](#event-6553590)   | 0x0581       |     14 |              4 |
| [65535.91](#event-6553591)   | 0x058F       |    676 |             66 |
| [65535.92](#event-6553592)   | 0x0833       |     21 |              3 |
| [65535.93](#event-6553593)   | 0x0848       |     18 |              2 |
| [65535.94](#event-6553594)   | 0x085A       |     41 |              5 |
| [65535.95](#event-6553595)   | 0x0883       |     41 |              5 |
| [65535.96](#event-6553596)   | 0x08AC       |     36 |              4 |
| [65535.97](#event-6553597)   | 0x08D0       |     41 |              5 |
| [65535.98](#event-6553598)   | 0x08F9       |     22 |              6 |
| [65535.99](#event-6553599)   | 0x090F       |     14 |              4 |
| [65535.100](#event-65535100) | 0x091D       |     14 |              4 |
| [65535.101](#event-65535101) | 0x092B       |     14 |              4 |
| [65535.102](#event-65535102) | 0x0939       |     10 |              2 |
| [65535.103](#event-65535103) | 0x0943       |     14 |              4 |
| [65535.104](#event-65535104) | 0x0951       |     24 |              4 |
| [65535.105](#event-65535105) | 0x0969       |     24 |              4 |
| [65535.106](#event-65535106) | 0x0981       |     42 |              6 |
| [65535.107](#event-65535107) | 0x09AB       |     41 |              9 |
| [65535.108](#event-65535108) | 0x09D4       |     14 |              4 |
| [65535.109](#event-65535109) | 0x09E2       |    345 |             33 |
| [65535.110](#event-65535110) | 0x0B3B       |    345 |             33 |
| [65535.111](#event-65535111) | 0x0C94       |      5 |              2 |
| [65535.112](#event-65535112) | 0x0C99       |      5 |              2 |
| [65535.113](#event-65535113) | 0x0C9E       |      5 |              2 |
| [65535.114](#event-65535114) | 0x0CA3       |      5 |              2 |
| [65535.115](#event-65535115) | 0x0CA8       |     17 |              5 |
| [65535.116](#event-65535116) | 0x0CB9       |     14 |              4 |
| [65535.117](#event-65535117) | 0x0CC7       |     22 |              6 |
| [65535.118](#event-65535118) | 0x0CDD       |     24 |              6 |
| [65535.119](#event-65535119) | 0x0CF5       |     15 |              5 |
| [65535.120](#event-65535120) | 0x0D04       |      6 |              2 |
| [65535.121](#event-65535121) | 0x0D0A       |     27 |              5 |
| [65535.122](#event-65535122) | 0x0D25       |     22 |              8 |
| [65535.123](#event-65535123) | 0x0D3B       |     15 |              5 |
| [65535.124](#event-65535124) | 0x0D4A       |     15 |              5 |
| [65535.125](#event-65535125) | 0x0D59       |     15 |              5 |
| [65535.126](#event-65535126) | 0x0D68       |     15 |              5 |
| [65535.127](#event-65535127) | 0x0D77       |     15 |              5 |
| [65535.128](#event-65535128) | 0x0D86       |     15 |              5 |
| [65535.129](#event-65535129) | 0x0D95       |     15 |              5 |
| [65535.130](#event-65535130) | 0x0DA4       |     15 |              5 |
| [65535.131](#event-65535131) | 0x0DB3       |     15 |              5 |
| [65535.132](#event-65535132) | 0x0DC2       |     15 |              5 |
| [65535.133](#event-65535133) | 0x0DD1       |     15 |              5 |
| [65535.134](#event-65535134) | 0x0DE0       |     15 |              5 |

## DAT References (imed_data)

|   Index | Hex Value   |   Dec Value |
|---------|-------------|-------------|
|       0 | 0x1384D     |       79949 |
|       1 | 0xCD10      |       52496 |
|       2 | 0xFFFFFFC4  |  4294967236 |
|       3 | 0x0C00      |        3072 |
|       4 | 0x0005      |           5 |
|       5 | 0x0001      |           1 |
|       6 | 0x0002      |           2 |
|       7 | 0x000A      |          10 |
|       8 | 0x0009      |           9 |
|       9 | 0x0046      |          70 |
|      10 | 0x008C      |         140 |
|      11 | 0x00D2      |         210 |
|      12 | 0xFFFFFFBD  |  4294967229 |
|      13 | 0xB91B      |       47387 |
|      14 | 0x0000      |           0 |
|      15 | 0x0C06      |        3078 |
|      16 | 0x0024      |          36 |
|      17 | 0xFFFFA611  |  4294944273 |
|      18 | 0x0C54      |        3156 |
|      19 | 0xFFFEDC09  |  4294892553 |
|      20 | 0xFFFFEC27  |  4294962215 |
|      21 | 0x013C      |         316 |
|      22 | 0xFFFFFA86  |  4294965894 |
|      23 | 0xFFFED794  |  4294891412 |
|      24 | 0x00E2      |         226 |
|      25 | 0xFFFFFFA1  |  4294967201 |
|      26 | 0xFFFF8BF8  |  4294937592 |
|      27 | 0x0D0D      |        3341 |
|      28 | 0x001E      |          30 |
|      29 | 0x0015      |          21 |
|      30 | 0x1064B     |       67147 |
|      31 | 0xFFFED49D  |  4294890653 |
|      32 | 0xFFFFE891  |  4294961297 |
|      33 | 0x05CE      |        1486 |
|      34 | 0x4DDF      |       19935 |
|      35 | 0x07C8      |        1992 |
|      36 | 0xFFFFA240  |  4294943296 |
|      37 | 0x693D      |       26941 |
|      38 | 0xFFFF4D67  |  4294921575 |
|      39 | 0xFFFFE184  |  4294959492 |
|      40 | 0x07FF      |        2047 |
|      41 | 0xFFFE8CDA  |  4294872282 |
|      42 | 0x70FB      |       28923 |
|      43 | 0x0C0F      |        3087 |
|      44 | 0x63F7      |       25591 |
|      45 | 0xFFFF4DA6  |  4294921638 |
|      46 | 0x0800      |        2048 |
|      47 | 0x002D      |          45 |
|      48 | 0x0007      |           7 |
|      49 | 0x6540      |       25920 |
|      50 | 0xFFFF5530  |  4294923568 |
|      51 | 0x0A2D      |        2605 |
|      52 | 0xFFFFF5A2  |  4294964642 |
|      53 | 0xA54B      |       42315 |
|      54 | 0xFFFF3FFE  |  4294918142 |
|      55 | 0xE8F2      |       59634 |
|      56 | 0x671E      |       26398 |
|      57 | 0x0523      |        1315 |
|      58 | 0xEF89      |       61321 |
|      59 | 0x5550      |       21840 |
|      60 | 0xFFFFA247  |  4294943303 |
|      61 | 0x183F0     |       99312 |
|      62 | 0x4F3D      |       20285 |
|      63 | 0x0E15      |        3605 |
|      64 | 0x0269      |         617 |
|      65 | 0x0DB4      |        3508 |
|      66 | 0x081F      |        2079 |
|      67 | 0x0003      |           3 |
|      68 | 0xFFFF8ADC  |  4294937308 |
|      69 | 0xFFFE83D7  |  4294869975 |
|      70 | 0x7C19      |       31769 |
|      71 | 0x0084      |         132 |
|      72 | 0x000B      |          11 |
|      73 | 0x6C47      |       27719 |
|      74 | 0xFFFF4D9E  |  4294921630 |
|      75 | 0x18678     |       99960 |
|      76 | 0xFFFFB34C  |  4294947660 |
|      77 | 0x00F2      |         242 |
|      78 | 0x185F0     |       99824 |
|      79 | 0xFFFE9587  |  4294874503 |
|      80 | 0x08C2      |        2242 |
|      81 | 0x1B5EE     |      112110 |
|      82 | 0xFFFF5DC0  |  4294925760 |
|      83 | 0xFFFFFEAE  |  4294966958 |
|      84 | 0x03E8      |        1000 |
|      85 | 0x75BB      |       30139 |
|      86 | 0xFFFF239A  |  4294910874 |
|      87 | 0xFFFFE890  |  4294961296 |
|      88 | 0x008B      |         139 |
|      89 | 0x000D      |          13 |
|      90 | 0x8478      |       33912 |
|      91 | 0xFFFF238F  |  4294910863 |
|      92 | 0xFFFFE633  |  4294960691 |
|      93 | 0xFFFED78D  |  4294891405 |
|      94 | 0x1F3A8     |      127912 |
|      95 | 0x00BE      |         190 |
|      96 | 0xFFFED99E  |  4294891934 |
|      97 | 0x1F943     |      129347 |
|      98 | 0x0059      |          89 |
|      99 | 0xFFFEDCA1  |  4294892705 |
|     100 | 0x1EFF6     |      126966 |
|     101 | 0x021D      |         541 |
|     102 | 0x84DE      |       34014 |
|     103 | 0xFFFF4318  |  4294918936 |
|     104 | 0xFFFFE3E1  |  4294960097 |
|     105 | 0x735D      |       29533 |
|     106 | 0xFFFF45F1  |  4294919665 |
|     107 | 0xFFFFE155  |  4294959445 |
|     108 | 0x0834      |        2100 |
|     109 | 0x68A4      |       26788 |
|     110 | 0xFFFF48D7  |  4294920407 |
|     111 | 0xFFFEE699  |  4294895257 |
|     112 | 0xFFFEACB5  |  4294880437 |
|     113 | 0x0C55      |        3157 |
|     114 | 0x13854     |       79956 |
|     115 | 0x65FD      |       26109 |
|     116 | 0xFFFFFEBC  |  4294966972 |
|     117 | 0x0BDA      |        3034 |
|     118 | 0x13A89     |       80521 |
|     119 | 0xFFFE1BBE  |  4294843326 |
|     120 | 0x054C      |        1356 |
|     121 | 0x12E93     |       77459 |
|     122 | 0xFFFE177A  |  4294842234 |
|     123 | 0x09AC      |        2476 |
|     124 | 0x640A      |       25610 |
|     125 | 0xFFFF50B2  |  4294922418 |
|     126 | 0x1B4FB     |      111867 |
|     127 | 0xFFFF8F6B  |  4294938475 |
|     128 | 0x0415      |        1045 |
|     129 | 0x641C      |       25628 |
|     130 | 0xFFFF5222  |  4294922786 |
|     131 | 0x0386      |         902 |
|     132 | 0x6D58      |       27992 |
|     133 | 0xFFFF4F23  |  4294922019 |
|     134 | 0x0283      |         643 |
|     135 | 0x13845     |       79941 |
|     136 | 0xFFFE2B40  |  4294847296 |
|     137 | 0x03F7      |        1015 |
|     138 | 0x13880     |       80000 |
|     139 | 0xFFFE14F4  |  4294841588 |
|     140 | 0x03F9      |        1017 |
|     141 | 0xFFFFE837  |  4294961207 |
|     142 | 0xFFFECA9C  |  4294888092 |
|     143 | 0x0CB1      |        3249 |
|     144 | 0x13901     |       80129 |
|     145 | 0xFFFE1ADF  |  4294843103 |
|     146 | 0x03F8      |        1016 |
|     147 | 0x0026      |          38 |
|     148 | 0x138ED     |       80109 |
|     149 | 0xFFFE0C77  |  4294839415 |
|     150 | 0x0018      |          24 |
|     151 | 0x0028      |          40 |
|     152 | 0x6F4F      |       28495 |
|     153 | 0xFFFF4DAF  |  4294921647 |
|     154 | 0x07FE      |        2046 |
|     155 | 0x70FA      |       28922 |
|     156 | 0xFFFF2502  |  4294911234 |
|     157 | 0x0FD7      |        4055 |
|     158 | 0x81D1      |       33233 |
|     159 | 0xFFFF2A7F  |  4294912639 |
|     160 | 0x7CB7      |       31927 |
|     161 | 0xFFFF46ED  |  4294919917 |
|     162 | 0xFFFFE3DD  |  4294960093 |
|     163 | 0x0AA5      |        2725 |
|     164 | 0x0078      |         120 |
|     165 | 0x8F8F      |       36751 |
|     166 | 0xFFFF5B71  |  4294925169 |
|     167 | 0x2403D     |      147517 |
|     168 | 0xFFFFF830  |  4294965296 |
|     169 | 0x0FFF      |        4095 |
|     170 | 0x24838     |      149560 |
|     171 | 0x0006      |           6 |
|     172 | 0x24349     |      148297 |
|     173 | 0xFFFFF997  |  4294965655 |
|     174 | 0x2476F     |      149359 |
|     175 | 0xFFFFFC99  |  4294966425 |
|     176 | 0xFFFFFFFB  |  4294967291 |
|     177 | 0xB911      |       47377 |
|     178 | 0x24732     |      149298 |
|     179 | 0xFFFFFEA2  |  4294966946 |
|     180 | 0x23CC6     |      146630 |
|     181 | 0xFFFFFED8  |  4294967000 |
|     182 | 0x001D      |          29 |
|     183 | 0x3384      |       13188 |
|     184 | 0xFFFF08A4  |  4294903972 |
|     185 | 0x0722      |        1826 |
|     186 | 0x308B      |       12427 |
|     187 | 0xFFFF07BD  |  4294903741 |
|     188 | 0xFFFFE4A9  |  4294960297 |
|     189 | 0x0713      |        1811 |
|     190 | 0x7A4D      |       31309 |
|     191 | 0xFFFF2A55  |  4294912597 |
|     192 | 0xFFFFE7DE  |  4294961118 |
|     193 | 0x762D      |       30253 |
|     194 | 0xFFFF47DC  |  4294920156 |
|     195 | 0xFFFFE275  |  4294959733 |
|     196 | 0x093D      |        2365 |
|     197 | 0x0014      |          20 |
|     198 | 0x002A      |          42 |
|     199 | 0x680A      |       26634 |
|     200 | 0xFFFF4A89  |  4294920841 |
|     201 | 0xFFFFC6F2  |  4294952690 |
|     202 | 0xFFFF1ABA  |  4294908602 |
|     203 | 0xFFFFF6E6  |  4294964966 |
|     204 | 0x0721      |        1825 |
|     205 | 0xFFFFE114  |  4294959380 |
|     206 | 0xFFFF18FB  |  4294908155 |
|     207 | 0xFFFFEF9A  |  4294963098 |
|     208 | 0xFFFEEAD7  |  4294896343 |
|     209 | 0xFFFFF7E2  |  4294965218 |
|     210 | 0xFFFECD90  |  4294888848 |
|     211 | 0x03BB      |         955 |
|     212 | 0x137C8     |       79816 |
|     213 | 0xFFFE1850  |  4294842448 |
|     214 | 0x11B17     |       72471 |
|     215 | 0xFFFE14D0  |  4294841552 |
|     216 | 0x00C8      |         200 |
|     217 | 0x00C9      |         201 |
|     218 | 0x00D7      |         215 |
|     219 | 0x003C      |          60 |
|     220 | 0x007F      |         127 |
|     221 | 0x00F0      |         240 |
|     222 | 0x0055      |          85 |
|     223 | 0x0008      |           8 |
|     224 | 0x01C2      |         450 |
|     225 | 0x0124      |         292 |
|     226 | 0x8566      |       34150 |
|     227 | 0xFFFF4497  |  4294919319 |
|     228 | 0xA99B      |       43419 |
|     229 | 0x009C      |         156 |
|     230 | 0xA2E1      |       41697 |
|     231 | 0x0070      |         112 |
|     232 | 0x8A02      |       35330 |
|     233 | 0x8CDF      |       36063 |
|     234 | 0xAA78      |       43640 |
|     235 | 0x13D61     |       81249 |
|     236 | 0xFFFDF655  |  4294833749 |
|     237 | 0x043C      |        1084 |
|     238 | 0x141E8     |       82408 |
|     239 | 0xFFFDFC4C  |  4294835276 |
|     240 | 0xFFFFEAA7  |  4294961831 |
|     241 | 0xFFFE9848  |  4294875208 |
|     242 | 0x008D      |         141 |
|     243 | 0x0F26      |        3878 |
|     244 | 0x0097      |         151 |
|     245 | 0x00A1      |         161 |
|     246 | 0x0004      |           4 |
|     247 | 0x00AB      |         171 |
|     248 | 0x00B5      |         181 |
|     249 | 0x00BF      |         191 |
|     250 | 0x0057      |          87 |
|     251 | 0x005D      |          93 |
|     252 | 0x0060      |          96 |
|     253 | 0x0064      |         100 |
|     254 | 0x13858     |       79960 |
|     255 | 0xFFFE1812  |  4294842386 |
|     256 | 0xFFFFFF93  |  4294967187 |
|     257 | 0x19353     |      103251 |
|     258 | 0x1D222     |      119330 |
|     259 | 0x07CF      |        1999 |
|     260 | 0x1B8D0     |      112848 |
|     261 | 0x1D4E1     |      120033 |
|     262 | 0x78FE      |       30974 |
|     263 | 0xFFFF4823  |  4294920227 |
|     264 | 0xFFFFE38A  |  4294960010 |
|     265 | 0x69F1      |       27121 |
|     266 | 0xFFFF4EB4  |  4294921908 |
|     267 | 0x312B      |       12587 |
|     268 | 0x181C4     |       98756 |
|     269 | 0xFFFF85B3  |  4294935987 |
|     270 | 0xFFFFA26B  |  4294943339 |
|     271 | 0x17E08     |       97800 |
|     272 | 0x181A0     |       98720 |
|     273 | 0xFFFF6C72  |  4294929522 |
|     274 | 0xABE0      |       44000 |
|     275 | 0xAFC8      |       45000 |
|     276 | 0x7EE5      |       32485 |
|     277 | 0xCF05      |       52997 |
|     278 | 0x7FD0      |       32720 |
|     279 | 0xB60E      |       46606 |
|     280 | 0x88CB      |       35019 |
|     281 | 0xD1AC      |       53676 |
|     282 | 0x8A7F      |       35455 |
|     283 | 0xD1FC      |       53756 |
|     284 | 0x2456F     |      148847 |
|     285 | 0x00A8      |         168 |

## Events

### Event 65535

#### Metadata

| Field        | Value   |
|--------------|---------|
| Entrypoint   | 0x0000  |
| Data Size    | 1 bytes |
| Instructions | 1       |

```
      00 01 02 03 04 05 06 07  08 09 0A 0B 0C 0D 0E 0F
      -- -- -- -- -- -- -- --  -- -- -- -- -- -- -- --
0000: 00                                                .               
```

#### Opcodes

```
  0: 0x0000 [0x00] END_REQSTACK()
```

### Event 65535.1

#### Metadata

| Field        | Value    |
|--------------|----------|
| Entrypoint   | 0x0001   |
| Data Size    | 10 bytes |
| Instructions | 2        |

```
      00 01 02 03 04 05 06 07  08 09 0A 0B 0C 0D 0E 0F
      -- -- -- -- -- -- -- --  -- -- -- -- -- -- -- --
0000:    37 00 80 01 80 02 80  03 80 00                  7.........     
```

#### Opcodes

```
  0: 0x0001 [0x37] UPDATE_EVENT_POSITION_AND_DIR: x=79.949*, z=52.496*, y=-0.060*, direction=270.0°*
  1: 0x000A [0x00] END_REQSTACK()
```

### Event 65534

#### Metadata

| Field        | Value   |
|--------------|---------|
| Entrypoint   | 0x000B  |
| Data Size    | 1 bytes |
| Instructions | 1       |

```
      00 01 02 03 04 05 06 07  08 09 0A 0B 0C 0D 0E 0F
      -- -- -- -- -- -- -- --  -- -- -- -- -- -- -- --
0000:                                   00                         .    
```

#### Opcodes

```
  0: 0x000B [0x00] END_REQSTACK()
```

### Event 65535.2

#### Metadata

| Field        | Value    |
|--------------|----------|
| Entrypoint   | 0x000C   |
| Data Size    | 37 bytes |
| Instructions | 5        |

```
      00 01 02 03 04 05 06 07  08 09 0A 0B 0C 0D 0E 0F
      -- -- -- -- -- -- -- --  -- -- -- -- -- -- -- --
0000:                                      03 00 00 07              ....
0010: 7F 1A A0 00 66 01 00 F8  FF FF 7F F8 FF FF 7F 73  ....f..........s
0020: 68 61 30 53 F8 FF FF 7F  F8 FF FF 7F 73 68 61 30  ha0S........sha0
0030: 00                                                .               
```

#### Opcodes

```
  0: 0x000C [0x03] ExtData[1]->WorkLocal[0] = Entity->Race
  1: 0x0011 [0x1A] CALL_SUBROUTINE(address=0x00A0)
  2: 0x0014 [0x66] LOAD_EXT_SCHEDULER_MAIN: Load scheduler "sha0" with entities [EventEntity, EventEntity], work=ExtData[1]->WorkLocal[1]
  3: 0x0023 [0x53] WAIT_SCHEDULER_TASK: Wait for scheduler "sha0" with entities [EventEntity, EventEntity]
  4: 0x0030 [0x00] END_REQSTACK()
```

### Event 65535.3

#### Metadata

| Field        | Value    |
|--------------|----------|
| Entrypoint   | 0x0031   |
| Data Size    | 37 bytes |
| Instructions | 5        |

```
      00 01 02 03 04 05 06 07  08 09 0A 0B 0C 0D 0E 0F
      -- -- -- -- -- -- -- --  -- -- -- -- -- -- -- --
0030:    03 00 00 07 7F 1A A0  00 66 01 00 F8 FF FF 7F   ........f......
0040: F8 FF FF 7F 73 68 61 31  53 F8 FF FF 7F F8 FF FF  ....sha1S.......
0050: 7F 73 68 61 31 00                                 .sha1.          
```

#### Opcodes

```
  0: 0x0031 [0x03] ExtData[1]->WorkLocal[0] = Entity->Race
  1: 0x0036 [0x1A] CALL_SUBROUTINE(address=0x00A0)
  2: 0x0039 [0x66] LOAD_EXT_SCHEDULER_MAIN: Load scheduler "sha1" with entities [EventEntity, EventEntity], work=ExtData[1]->WorkLocal[1]
  3: 0x0048 [0x53] WAIT_SCHEDULER_TASK: Wait for scheduler "sha1" with entities [EventEntity, EventEntity]
  4: 0x0055 [0x00] END_REQSTACK()
```

### Event 65535.4

#### Metadata

| Field        | Value    |
|--------------|----------|
| Entrypoint   | 0x0056   |
| Data Size    | 37 bytes |
| Instructions | 5        |

```
      00 01 02 03 04 05 06 07  08 09 0A 0B 0C 0D 0E 0F
      -- -- -- -- -- -- -- --  -- -- -- -- -- -- -- --
0050:                   03 00  00 07 7F 1A A0 00 66 01        ........f.
0060: 00 F8 FF FF 7F F8 FF FF  7F 73 69 74 30 53 F8 FF  .........sit0S..
0070: FF 7F F8 FF FF 7F 73 68  61 30 00                 ......sha0.     
```

#### Opcodes

```
  0: 0x0056 [0x03] ExtData[1]->WorkLocal[0] = Entity->Race
  1: 0x005B [0x1A] CALL_SUBROUTINE(address=0x00A0)
  2: 0x005E [0x66] LOAD_EXT_SCHEDULER_MAIN: Load scheduler "sit0" with entities [EventEntity, EventEntity], work=ExtData[1]->WorkLocal[1]
  3: 0x006D [0x53] WAIT_SCHEDULER_TASK: Wait for scheduler "sha0" with entities [EventEntity, EventEntity]
  4: 0x007A [0x00] END_REQSTACK()
```

### Event 65535.5

#### Metadata

| Field        | Value     |
|--------------|-----------|
| Entrypoint   | 0x007B    |
| Data Size    | 185 bytes |
| Instructions | 13        |

```
      00 01 02 03 04 05 06 07  08 09 0A 0B 0C 0D 0E 0F
      -- -- -- -- -- -- -- --  -- -- -- -- -- -- -- --
0070:                                   03 00 00 07 7F             .....
0080: 1A A0 00 66 01 00 F8 FF  FF 7F F8 FF FF 7F 73 69  ...f..........si
0090: 74 31 53 F8 FF FF 7F F8  FF FF 7F 73 68 61 30 00  t1S........sha0.
00A0: 03 01 00 00 00 02 01 00  04 80 05 B5 00 08 01 00  ................
00B0: 05 80 01 BA 00 08 01 00  06 80 14 01 00 07 80 07  ................
00C0: 01 00 08 80 1B 03 01 00  00 00 02 01 00 04 80 05  ................
00D0: DA 00 08 01 00 05 80 01  DF 00 08 01 00 06 80 14  ................
00E0: 01 00 07 80 07 01 00 09  80 1B 03 01 00 00 00 02  ................
00F0: 01 00 04 80 05 FF 00 08  01 00 05 80 01 04 01 08  ................
0100: 01 00 06 80 14 01 00 07  80 07 01 00 0A 80 1B 03  ................
0110: 01 00 00 00 02 01 00 04  80 05 24 01 08 01 00 05  ..........$.....
0120: 80 01 29 01 08 01 00 06  80 14 01 00 07 80 07 01  ..).............
0130: 00 0B 80 1B                                       ....            
```

#### Opcodes

```
  0: 0x007B [0x03] ExtData[1]->WorkLocal[0] = Entity->Race
  1: 0x0080 [0x1A] CALL_SUBROUTINE(address=0x00A0)
  2: 0x0083 [0x66] LOAD_EXT_SCHEDULER_MAIN: Load scheduler "sit1" with entities [EventEntity, EventEntity], work=ExtData[1]->WorkLocal[1]
  3: 0x0092 [0x53] WAIT_SCHEDULER_TASK: Wait for scheduler "sha0" with entities [EventEntity, EventEntity]
  4: 0x009F [0x00] END_REQSTACK()

SUBROUTINE_00A0:
  5: 0x00A0 [0x03] ExtData[1]->WorkLocal[1] = ExtData[1]->WorkLocal[0]
  6: 0x00A5 [0x02] IF !(ExtData[1]->WorkLocal[1] > 5*) GOTO 0x00B5
  7: 0x00AD [0x08] ExtData[1]->WorkLocal[1] -= 1*
  8: 0x00B2 [0x01] GOTO 0x00BA
  9: 0x00B5 [0x08] ExtData[1]->WorkLocal[1] -= 2*

SUBROUTINE_00BA:
 10: 0x00BA [0x14] ExtData[1]->WorkLocal[1] *= 10*
 11: 0x00BF [0x07] ExtData[1]->WorkLocal[1] += 9*
 12: 0x00C4 [0x1B] RETURN
```

#### Data or dead code:

```
# Dead code (unreachable instructions):
     0x00C5 [0x03] ExtData[1]->WorkLocal[1] = ExtData[1]->WorkLocal[0]
     0x00CA [0x02] IF !(ExtData[1]->WorkLocal[1] > 5*) GOTO 0x00DA
     0x00D2 [0x08] ExtData[1]->WorkLocal[1] -= 1*
     0x00D7 [0x01] GOTO 0x00DF
     0x00DA [0x08] ExtData[1]->WorkLocal[1] -= 2*
     0x00DF [0x14] ExtData[1]->WorkLocal[1] *= 10*
     0x00E4 [0x07] ExtData[1]->WorkLocal[1] += 70*
     0x00E9 [0x1B] RETURN
     0x00EA [0x03] ExtData[1]->WorkLocal[1] = ExtData[1]->WorkLocal[0]
     0x00EF [0x02] IF !(ExtData[1]->WorkLocal[1] > 5*) GOTO 0x00FF
     0x00F7 [0x08] ExtData[1]->WorkLocal[1] -= 1*
     0x00FC [0x01] GOTO 0x0104
     0x00FF [0x08] ExtData[1]->WorkLocal[1] -= 2*
     0x0104 [0x14] ExtData[1]->WorkLocal[1] *= 10*
     0x0109 [0x07] ExtData[1]->WorkLocal[1] += 140*
     0x010E [0x1B] RETURN
     0x010F [0x03] ExtData[1]->WorkLocal[1] = ExtData[1]->WorkLocal[0]
     0x0114 [0x02] IF !(ExtData[1]->WorkLocal[1] > 5*) GOTO 0x0124
     0x011C [0x08] ExtData[1]->WorkLocal[1] -= 1*
     0x0121 [0x01] GOTO 0x0129
     0x0124 [0x08] ExtData[1]->WorkLocal[1] -= 2*
     0x0129 [0x14] ExtData[1]->WorkLocal[1] *= 10*
     0x012E [0x07] ExtData[1]->WorkLocal[1] += 210*
     0x0133 [0x1B] RETURN
```

### Event 65535.6

#### Metadata

| Field        | Value   |
|--------------|---------|
| Entrypoint   | 0x0134  |
| Data Size    | 6 bytes |
| Instructions | 2       |

```
      00 01 02 03 04 05 06 07  08 09 0A 0B 0C 0D 0E 0F
      -- -- -- -- -- -- -- --  -- -- -- -- -- -- -- --
0130:             03 02 10 07  7F 00                        ......      
```

#### Opcodes

```
  0: 0x0134 [0x03] Work_Zone[2] = Entity->Race
  1: 0x0139 [0x00] END_REQSTACK()
```

### Event 65535.7

#### Metadata

| Field        | Value   |
|--------------|---------|
| Entrypoint   | 0x013A  |
| Data Size    | 6 bytes |
| Instructions | 2       |

```
      00 01 02 03 04 05 06 07  08 09 0A 0B 0C 0D 0E 0F
      -- -- -- -- -- -- -- --  -- -- -- -- -- -- -- --
0130:                                03 02 10 0B 7F 00            ......
```

#### Opcodes

```
  0: 0x013A [0x03] Work_Zone[2] = (Entity->Render.Flags01 >> 25) & 1
  1: 0x013F [0x00] END_REQSTACK()
```

### Event 65535.8

#### Metadata

| Field        | Value    |
|--------------|----------|
| Entrypoint   | 0x0140   |
| Data Size    | 10 bytes |
| Instructions | 2        |

```
      00 01 02 03 04 05 06 07  08 09 0A 0B 0C 0D 0E 0F
      -- -- -- -- -- -- -- --  -- -- -- -- -- -- -- --
0140: 37 0C 80 0D 80 0E 80 0F  80 00                    7.........      
```

#### Opcodes

```
  0: 0x0140 [0x37] UPDATE_EVENT_POSITION_AND_DIR: x=-0.067*, z=47.387*, y=0.000*, direction=270.5°*
  1: 0x0149 [0x00] END_REQSTACK()
```

### Event 65535.9

#### Metadata

| Field        | Value    |
|--------------|----------|
| Entrypoint   | 0x014A   |
| Data Size    | 10 bytes |
| Instructions | 2        |

```
      00 01 02 03 04 05 06 07  08 09 0A 0B 0C 0D 0E 0F
      -- -- -- -- -- -- -- --  -- -- -- -- -- -- -- --
0140:                                37 10 80 11 80 0E            7.....
0150: 80 12 80 00                                       ....            
```

#### Opcodes

```
  0: 0x014A [0x37] UPDATE_EVENT_POSITION_AND_DIR: x=0.036*, z=-23.023*, y=0.000*, direction=277.4°*
  1: 0x0153 [0x00] END_REQSTACK()
```

### Event 65535.10

#### Metadata

| Field        | Value    |
|--------------|----------|
| Entrypoint   | 0x0154   |
| Data Size    | 10 bytes |
| Instructions | 2        |

```
      00 01 02 03 04 05 06 07  08 09 0A 0B 0C 0D 0E 0F
      -- -- -- -- -- -- -- --  -- -- -- -- -- -- -- --
0150:             37 13 80 14  80 0E 80 15 80 00            7.........  
```

#### Opcodes

```
  0: 0x0154 [0x37] UPDATE_EVENT_POSITION_AND_DIR: x=-74.743*, z=-5.081*, y=0.000*, direction=27.8°*
  1: 0x015D [0x00] END_REQSTACK()
```

### Event 65535.11

#### Metadata

| Field        | Value    |
|--------------|----------|
| Entrypoint   | 0x015E   |
| Data Size    | 10 bytes |
| Instructions | 2        |

```
      00 01 02 03 04 05 06 07  08 09 0A 0B 0C 0D 0E 0F
      -- -- -- -- -- -- -- --  -- -- -- -- -- -- -- --
0150:                                            37 16                7.
0160: 80 17 80 0E 80 18 80 00                           ........        
```

#### Opcodes

```
  0: 0x015E [0x37] UPDATE_EVENT_POSITION_AND_DIR: x=-1.402*, z=-75.884*, y=0.000*, direction=19.9°*
  1: 0x0167 [0x00] END_REQSTACK()
```

### Event 65535.12

#### Metadata

| Field        | Value    |
|--------------|----------|
| Entrypoint   | 0x0168   |
| Data Size    | 10 bytes |
| Instructions | 2        |

```
      00 01 02 03 04 05 06 07  08 09 0A 0B 0C 0D 0E 0F
      -- -- -- -- -- -- -- --  -- -- -- -- -- -- -- --
0160:                          37 19 80 1A 80 0E 80 1B          7.......
0170: 80 00                                             ..              
```

#### Opcodes

```
  0: 0x0168 [0x37] UPDATE_EVENT_POSITION_AND_DIR: x=-0.095*, z=-29.704*, y=0.000*, direction=293.6°*
  1: 0x0171 [0x00] END_REQSTACK()
```

### Event 65535.13

#### Metadata

| Field        | Value    |
|--------------|----------|
| Entrypoint   | 0x0172   |
| Data Size    | 16 bytes |
| Instructions | 4        |

```
      00 01 02 03 04 05 06 07  08 09 0A 0B 0C 0D 0E 0F
      -- -- -- -- -- -- -- --  -- -- -- -- -- -- -- --
0170:       1C 1C 80 6E F8 FF  FF 7F 1D 80 99 F8 FF FF    ...n..........
0180: 7F 00                                             ..              
```

#### Opcodes

```
  0: 0x0172 [0x1C] WAIT(30* ticks)
  1: 0x0175 [0x6E] EventEntity uses emote 21*
  2: 0x017C [0x99] Wait for EventEntity animation to complete
  3: 0x0181 [0x00] END_REQSTACK()
```

### Event 65535.14

#### Metadata

| Field        | Value    |
|--------------|----------|
| Entrypoint   | 0x0182   |
| Data Size    | 10 bytes |
| Instructions | 2        |

```
      00 01 02 03 04 05 06 07  08 09 0A 0B 0C 0D 0E 0F
      -- -- -- -- -- -- -- --  -- -- -- -- -- -- -- --
0180:       37 1E 80 1F 80 20  80 21 80 00                7.... .!..    
```

#### Opcodes

```
  0: 0x0182 [0x37] UPDATE_EVENT_POSITION_AND_DIR: x=67.147*, z=-76.643*, y=-5.999*, direction=130.6°*
  1: 0x018B [0x00] END_REQSTACK()
```

### Event 65535.15

#### Metadata

| Field        | Value    |
|--------------|----------|
| Entrypoint   | 0x018C   |
| Data Size    | 10 bytes |
| Instructions | 2        |

```
      00 01 02 03 04 05 06 07  08 09 0A 0B 0C 0D 0E 0F
      -- -- -- -- -- -- -- --  -- -- -- -- -- -- -- --
0180:                                      37 22 80 23              7".#
0190: 80 24 80 03 80 00                                 .$....          
```

#### Opcodes

```
  0: 0x018C [0x37] UPDATE_EVENT_POSITION_AND_DIR: x=19.935*, z=1.992*, y=-24.000*, direction=270.0°*
  1: 0x0195 [0x00] END_REQSTACK()
```

### Event 65535.16

#### Metadata

| Field        | Value    |
|--------------|----------|
| Entrypoint   | 0x0196   |
| Data Size    | 10 bytes |
| Instructions | 2        |

```
      00 01 02 03 04 05 06 07  08 09 0A 0B 0C 0D 0E 0F
      -- -- -- -- -- -- -- --  -- -- -- -- -- -- -- --
0190:                   37 25  80 26 80 27 80 28 80 00        7%.&.'.(..
```

#### Opcodes

```
  0: 0x0196 [0x37] UPDATE_EVENT_POSITION_AND_DIR: x=26.941*, z=-45.721*, y=-7.804*, direction=179.9°*
  1: 0x019F [0x00] END_REQSTACK()
```

### Event 65535.17

#### Metadata

| Field        | Value    |
|--------------|----------|
| Entrypoint   | 0x01A0   |
| Data Size    | 10 bytes |
| Instructions | 2        |

```
      00 01 02 03 04 05 06 07  08 09 0A 0B 0C 0D 0E 0F
      -- -- -- -- -- -- -- --  -- -- -- -- -- -- -- --
01A0: 37 29 80 2A 80 20 80 2B  80 00                    7).*. .+..      
```

#### Opcodes

```
  0: 0x01A0 [0x37] UPDATE_EVENT_POSITION_AND_DIR: x=-95.014*, z=28.923*, y=-5.999*, direction=271.3°*
  1: 0x01A9 [0x00] END_REQSTACK()
```

### Event 65535.18

#### Metadata

| Field        | Value    |
|--------------|----------|
| Entrypoint   | 0x01AA   |
| Data Size    | 10 bytes |
| Instructions | 2        |

```
      00 01 02 03 04 05 06 07  08 09 0A 0B 0C 0D 0E 0F
      -- -- -- -- -- -- -- --  -- -- -- -- -- -- -- --
01A0:                                37 2C 80 2D 80 27            7,.-.'
01B0: 80 2E 80 00                                       ....            
```

#### Opcodes

```
  0: 0x01AA [0x37] UPDATE_EVENT_POSITION_AND_DIR: x=25.591*, z=-45.658*, y=-7.804*, direction=180.0°*
  1: 0x01B3 [0x00] END_REQSTACK()
```

### Event 65535.19

#### Metadata

| Field        | Value    |
|--------------|----------|
| Entrypoint   | 0x01B4   |
| Data Size    | 16 bytes |
| Instructions | 4        |

```
      00 01 02 03 04 05 06 07  08 09 0A 0B 0C 0D 0E 0F
      -- -- -- -- -- -- -- --  -- -- -- -- -- -- -- --
01B0:             1C 2F 80 6E  F8 FF FF 7F 30 80 99 F8      ./.n....0...
01C0: FF FF 7F 00                                       ....            
```

#### Opcodes

```
  0: 0x01B4 [0x1C] WAIT(45* ticks)
  1: 0x01B7 [0x6E] EventEntity uses emote 7*
  2: 0x01BE [0x99] Wait for EventEntity animation to complete
  3: 0x01C3 [0x00] END_REQSTACK()
```

### Event 65535.20

#### Metadata

| Field        | Value    |
|--------------|----------|
| Entrypoint   | 0x01C4   |
| Data Size    | 10 bytes |
| Instructions | 2        |

```
      00 01 02 03 04 05 06 07  08 09 0A 0B 0C 0D 0E 0F
      -- -- -- -- -- -- -- --  -- -- -- -- -- -- -- --
01C0:             37 31 80 32  80 27 80 33 80 00            71.2.'.3..  
```

#### Opcodes

```
  0: 0x01C4 [0x37] UPDATE_EVENT_POSITION_AND_DIR: x=25.920*, z=-43.728*, y=-7.804*, direction=228.9°*
  1: 0x01CD [0x00] END_REQSTACK()
```

### Event 65535.21

#### Metadata

| Field        | Value    |
|--------------|----------|
| Entrypoint   | 0x01CE   |
| Data Size    | 16 bytes |
| Instructions | 4        |

```
      00 01 02 03 04 05 06 07  08 09 0A 0B 0C 0D 0E 0F
      -- -- -- -- -- -- -- --  -- -- -- -- -- -- -- --
01C0:                                            1C 1C                ..
01D0: 80 6E F8 FF FF 7F 04 80  99 F8 FF FF 7F 00        .n............  
```

#### Opcodes

```
  0: 0x01CE [0x1C] WAIT(30* ticks)
  1: 0x01D1 [0x6E] EventEntity uses emote 5*
  2: 0x01D8 [0x99] Wait for EventEntity animation to complete
  3: 0x01DD [0x00] END_REQSTACK()
```

### Event 65535.22

#### Metadata

| Field        | Value    |
|--------------|----------|
| Entrypoint   | 0x01DE   |
| Data Size    | 10 bytes |
| Instructions | 2        |

```
      00 01 02 03 04 05 06 07  08 09 0A 0B 0C 0D 0E 0F
      -- -- -- -- -- -- -- --  -- -- -- -- -- -- -- --
01D0:                                            37 34                74
01E0: 80 35 80 0E 80 0F 80 00                           .5......        
```

#### Opcodes

```
  0: 0x01DE [0x37] UPDATE_EVENT_POSITION_AND_DIR: x=-2.654*, z=42.315*, y=0.000*, direction=270.5°*
  1: 0x01E7 [0x00] END_REQSTACK()
```

### Event 65535.23

#### Metadata

| Field        | Value    |
|--------------|----------|
| Entrypoint   | 0x01E8   |
| Data Size    | 10 bytes |
| Instructions | 2        |

```
      00 01 02 03 04 05 06 07  08 09 0A 0B 0C 0D 0E 0F
      -- -- -- -- -- -- -- --  -- -- -- -- -- -- -- --
01E0:                          37 04 80 36 80 0E 80 03          7..6....
01F0: 80 00                                             ..              
```

#### Opcodes

```
  0: 0x01E8 [0x37] UPDATE_EVENT_POSITION_AND_DIR: x=0.005*, z=-49.154*, y=0.000*, direction=270.0°*
  1: 0x01F1 [0x00] END_REQSTACK()
```

### Event 65535.24

#### Metadata

| Field        | Value    |
|--------------|----------|
| Entrypoint   | 0x01F2   |
| Data Size    | 10 bytes |
| Instructions | 2        |

```
      00 01 02 03 04 05 06 07  08 09 0A 0B 0C 0D 0E 0F
      -- -- -- -- -- -- -- --  -- -- -- -- -- -- -- --
01F0:       37 37 80 38 80 24  80 39 80 00                77.8.$.9..    
```

#### Opcodes

```
  0: 0x01F2 [0x37] UPDATE_EVENT_POSITION_AND_DIR: x=59.634*, z=26.398*, y=-24.000*, direction=115.6°*
  1: 0x01FB [0x00] END_REQSTACK()
```

### Event 65535.25

#### Metadata

| Field        | Value    |
|--------------|----------|
| Entrypoint   | 0x01FC   |
| Data Size    | 10 bytes |
| Instructions | 2        |

```
      00 01 02 03 04 05 06 07  08 09 0A 0B 0C 0D 0E 0F
      -- -- -- -- -- -- -- --  -- -- -- -- -- -- -- --
01F0:                                      37 3A 80 3B              7:.;
0200: 80 3C 80 2E 80 00                                 .<....          
```

#### Opcodes

```
  0: 0x01FC [0x37] UPDATE_EVENT_POSITION_AND_DIR: x=61.321*, z=21.840*, y=-23.993*, direction=180.0°*
  1: 0x0205 [0x00] END_REQSTACK()
```

### Event 65535.26

#### Metadata

| Field        | Value    |
|--------------|----------|
| Entrypoint   | 0x0206   |
| Data Size    | 10 bytes |
| Instructions | 2        |

```
      00 01 02 03 04 05 06 07  08 09 0A 0B 0C 0D 0E 0F
      -- -- -- -- -- -- -- --  -- -- -- -- -- -- -- --
0200:                   37 3D  80 3E 80 24 80 3F 80 00        7=.>.$.?..
```

#### Opcodes

```
  0: 0x0206 [0x37] UPDATE_EVENT_POSITION_AND_DIR: x=99.312*, z=20.285*, y=-24.000*, direction=316.8°*
  1: 0x020F [0x00] END_REQSTACK()
```

### Event 65535.27

#### Metadata

| Field        | Value    |
|--------------|----------|
| Entrypoint   | 0x0210   |
| Data Size    | 14 bytes |
| Instructions | 4        |

```
      00 01 02 03 04 05 06 07  08 09 0A 0B 0C 0D 0E 0F
      -- -- -- -- -- -- -- --  -- -- -- -- -- -- -- --
0210: 4B F8 FF FF 7F 40 80 6F  76 F8 FF FF 7F 00        K....@.ov.....  
```

#### Opcodes

```
  0: 0x0210 [0x4B] UPDATE_ENTITY_YAW(entity=EventEntity, yaw=3.4°*)
  1: 0x0217 [0x6F] WAIT_FRAME_DELAY: Yield until WaitTime reaches zero
  2: 0x0218 [0x76] CHECK_ENTITY_RENDER_FLAGS: Wait until EventEntity Render.Flags0 and Render.Flags3 conditions are met
  3: 0x021D [0x00] END_REQSTACK()
```

### Event 65535.28

#### Metadata

| Field        | Value    |
|--------------|----------|
| Entrypoint   | 0x021E   |
| Data Size    | 14 bytes |
| Instructions | 4        |

```
      00 01 02 03 04 05 06 07  08 09 0A 0B 0C 0D 0E 0F
      -- -- -- -- -- -- -- --  -- -- -- -- -- -- -- --
0210:                                            4B F8                K.
0220: FF FF 7F 41 80 6F 76 F8  FF FF 7F 00              ...A.ov.....    
```

#### Opcodes

```
  0: 0x021E [0x4B] UPDATE_ENTITY_YAW(entity=EventEntity, yaw=19.3°*)
  1: 0x0225 [0x6F] WAIT_FRAME_DELAY: Yield until WaitTime reaches zero
  2: 0x0226 [0x76] CHECK_ENTITY_RENDER_FLAGS: Wait until EventEntity Render.Flags0 and Render.Flags3 conditions are met
  3: 0x022B [0x00] END_REQSTACK()
```

### Event 65535.29

#### Metadata

| Field        | Value    |
|--------------|----------|
| Entrypoint   | 0x022C   |
| Data Size    | 14 bytes |
| Instructions | 4        |

```
      00 01 02 03 04 05 06 07  08 09 0A 0B 0C 0D 0E 0F
      -- -- -- -- -- -- -- --  -- -- -- -- -- -- -- --
0220:                                      4B F8 FF FF              K...
0230: 7F 42 80 6F 76 F8 FF FF  7F 00                    .B.ov.....      
```

#### Opcodes

```
  0: 0x022C [0x4B] UPDATE_ENTITY_YAW(entity=EventEntity, yaw=11.4°*)
  1: 0x0233 [0x6F] WAIT_FRAME_DELAY: Yield until WaitTime reaches zero
  2: 0x0234 [0x76] CHECK_ENTITY_RENDER_FLAGS: Wait until EventEntity Render.Flags0 and Render.Flags3 conditions are met
  3: 0x0239 [0x00] END_REQSTACK()
```

### Event 65535.30

#### Metadata

| Field        | Value   |
|--------------|---------|
| Entrypoint   | 0x023A  |
| Data Size    | 9 bytes |
| Instructions | 3       |

```
      00 01 02 03 04 05 06 07  08 09 0A 0B 0C 0D 0E 0F
      -- -- -- -- -- -- -- --  -- -- -- -- -- -- -- --
0230:                                1C 2F 80 1E 1A 21            ./...!
0240: 03 01 00                                          ...             
```

#### Opcodes

```
  0: 0x023A [0x1C] WAIT(45* ticks)
  1: 0x023D [0x1E] EventEntity looks at Raubahn (ID: 16982298/0x0103211A) and starts talking
  2: 0x0242 [0x00] END_REQSTACK()
```

### Event 65535.31

#### Metadata

| Field        | Value    |
|--------------|----------|
| Entrypoint   | 0x0243   |
| Data Size    | 10 bytes |
| Instructions | 2        |

```
      00 01 02 03 04 05 06 07  08 09 0A 0B 0C 0D 0E 0F
      -- -- -- -- -- -- -- --  -- -- -- -- -- -- -- --
0240:          37 43 80 44 80  0E 80 03 80 00              7C.D......   
```

#### Opcodes

```
  0: 0x0243 [0x37] UPDATE_EVENT_POSITION_AND_DIR: x=0.003*, z=-29.988*, y=0.000*, direction=270.0°*
  1: 0x024C [0x00] END_REQSTACK()
```

### Event 65535.32

#### Metadata

| Field        | Value    |
|--------------|----------|
| Entrypoint   | 0x024D   |
| Data Size    | 10 bytes |
| Instructions | 2        |

```
      00 01 02 03 04 05 06 07  08 09 0A 0B 0C 0D 0E 0F
      -- -- -- -- -- -- -- --  -- -- -- -- -- -- -- --
0240:                                         37 45 80               7E.
0250: 46 80 20 80 47 80 00                              F. .G..         
```

#### Opcodes

```
  0: 0x024D [0x37] UPDATE_EVENT_POSITION_AND_DIR: x=-97.321*, z=31.769*, y=-5.999*, direction=11.6°*
  1: 0x0256 [0x00] END_REQSTACK()
```

### Event 65535.33

#### Metadata

| Field        | Value    |
|--------------|----------|
| Entrypoint   | 0x0257   |
| Data Size    | 15 bytes |
| Instructions | 5        |

```
      00 01 02 03 04 05 06 07  08 09 0A 0B 0C 0D 0E 0F
      -- -- -- -- -- -- -- --  -- -- -- -- -- -- -- --
0250:                      32  48 80 1F 00 49 80 4A 80         2H...I.J.
0260: 27 80 1F 01 6F 00                                 '...o.          
```

#### Opcodes

```
  0: 0x0257 [0x32] ExtData[1]->MainSpeed = 11* * 0.1
  1: 0x025A [0x1F] MOVE_ENTITY: EventEntity moves to X=27.719*, Z=-45.666*, Y=-7.804*
  2: 0x0262 [0x1F] MOVE_ENTITY: Update entity position (mode=1)
  3: 0x0264 [0x6F] WAIT_FRAME_DELAY: Yield until WaitTime reaches zero
  4: 0x0265 [0x00] END_REQSTACK()
```

### Event 65535.34

#### Metadata

| Field        | Value    |
|--------------|----------|
| Entrypoint   | 0x0266   |
| Data Size    | 10 bytes |
| Instructions | 2        |

```
      00 01 02 03 04 05 06 07  08 09 0A 0B 0C 0D 0E 0F
      -- -- -- -- -- -- -- --  -- -- -- -- -- -- -- --
0260:                   37 4B  80 4C 80 0E 80 4D 80 00        7K.L...M..
```

#### Opcodes

```
  0: 0x0266 [0x37] UPDATE_EVENT_POSITION_AND_DIR: x=99.960*, z=-19.636*, y=0.000*, direction=21.3°*
  1: 0x026F [0x00] END_REQSTACK()
```

### Event 65535.35

#### Metadata

| Field        | Value    |
|--------------|----------|
| Entrypoint   | 0x0270   |
| Data Size    | 15 bytes |
| Instructions | 3        |

```
      00 01 02 03 04 05 06 07  08 09 0A 0B 0C 0D 0E 0F
      -- -- -- -- -- -- -- --  -- -- -- -- -- -- -- --
0270: 37 4E 80 4F 80 0E 80 50  80 80 F8 FF FF 7F 00     7N.O...P....... 
```

#### Opcodes

```
  0: 0x0270 [0x37] UPDATE_EVENT_POSITION_AND_DIR: x=99.824*, z=-92.793*, y=0.000*, direction=197.0°*
  1: 0x0279 [0x80] LOAD_WAIT(entity=EventEntity)
  2: 0x027E [0x00] END_REQSTACK()
```

### Event 65535.36

#### Metadata

| Field        | Value    |
|--------------|----------|
| Entrypoint   | 0x027F   |
| Data Size    | 15 bytes |
| Instructions | 3        |

```
      00 01 02 03 04 05 06 07  08 09 0A 0B 0C 0D 0E 0F
      -- -- -- -- -- -- -- --  -- -- -- -- -- -- -- --
0270:                                               37                 7
0280: 51 80 52 80 53 80 54 80  80 F8 FF FF 7F 00        Q.R.S.T.......  
```

#### Opcodes

```
  0: 0x027F [0x37] UPDATE_EVENT_POSITION_AND_DIR: x=112.110*, z=-41.536*, y=-0.338*, direction=87.9°*
  1: 0x0288 [0x80] LOAD_WAIT(entity=EventEntity)
  2: 0x028D [0x00] END_REQSTACK()
```

### Event 65535.37

#### Metadata

| Field        | Value    |
|--------------|----------|
| Entrypoint   | 0x028E   |
| Data Size    | 10 bytes |
| Instructions | 2        |

```
      00 01 02 03 04 05 06 07  08 09 0A 0B 0C 0D 0E 0F
      -- -- -- -- -- -- -- --  -- -- -- -- -- -- -- --
0280:                                            37 55                7U
0290: 80 56 80 57 80 58 80 00                           .V.W.X..        
```

#### Opcodes

```
  0: 0x028E [0x37] UPDATE_EVENT_POSITION_AND_DIR: x=30.139*, z=-56.422*, y=-6.000*, direction=12.2°*
  1: 0x0297 [0x00] END_REQSTACK()
```

### Event 65535.38

#### Metadata

| Field        | Value    |
|--------------|----------|
| Entrypoint   | 0x0298   |
| Data Size    | 19 bytes |
| Instructions | 5        |

```
      00 01 02 03 04 05 06 07  08 09 0A 0B 0C 0D 0E 0F
      -- -- -- -- -- -- -- --  -- -- -- -- -- -- -- --
0290:                          32 59 80 1F 00 5A 80 5B          2Y...Z.[
02A0: 80 5C 80 1F 01 1E 8D 20  03 01 00                 .\..... ...     
```

#### Opcodes

```
  0: 0x0298 [0x32] ExtData[1]->MainSpeed = 13* * 0.1
  1: 0x029B [0x1F] MOVE_ENTITY: EventEntity moves to X=33.912*, Z=-56.433*, Y=-6.605*
  2: 0x02A3 [0x1F] MOVE_ENTITY: Update entity position (mode=1)
  3: 0x02A5 [0x1E] EventEntity looks at Abquhbah (ID: 16982157/0x0103208D) and starts talking
  4: 0x02AA [0x00] END_REQSTACK()
```

### Event 65535.39

#### Metadata

| Field        | Value    |
|--------------|----------|
| Entrypoint   | 0x02AB   |
| Data Size    | 10 bytes |
| Instructions | 2        |

```
      00 01 02 03 04 05 06 07  08 09 0A 0B 0C 0D 0E 0F
      -- -- -- -- -- -- -- --  -- -- -- -- -- -- -- --
02A0:                                   37 5D 80 5E 80             7].^.
02B0: 20 80 5F 80 00                                     ._..           
```

#### Opcodes

```
  0: 0x02AB [0x37] UPDATE_EVENT_POSITION_AND_DIR: x=-75.891*, z=127.912*, y=-5.999*, direction=16.7°*
  1: 0x02B4 [0x00] END_REQSTACK()
```

### Event 65535.40

#### Metadata

| Field        | Value    |
|--------------|----------|
| Entrypoint   | 0x02B5   |
| Data Size    | 10 bytes |
| Instructions | 2        |

```
      00 01 02 03 04 05 06 07  08 09 0A 0B 0C 0D 0E 0F
      -- -- -- -- -- -- -- --  -- -- -- -- -- -- -- --
02B0:                37 60 80  61 80 57 80 62 80 00          7`.a.W.b.. 
```

#### Opcodes

```
  0: 0x02B5 [0x37] UPDATE_EVENT_POSITION_AND_DIR: x=-75.362*, z=129.347*, y=-6.000*, direction=7.8°*
  1: 0x02BE [0x00] END_REQSTACK()
```

### Event 65535.41

#### Metadata

| Field        | Value    |
|--------------|----------|
| Entrypoint   | 0x02BF   |
| Data Size    | 24 bytes |
| Instructions | 6        |

```
      00 01 02 03 04 05 06 07  08 09 0A 0B 0C 0D 0E 0F
      -- -- -- -- -- -- -- --  -- -- -- -- -- -- -- --
02B0:                                               32                 2
02C0: 59 80 1F 00 63 80 64 80  57 80 1F 01 4B F0 FF FF  Y...c.d.W...K...
02D0: 7F 65 80 1C 1C 80 00                              .e.....         
```

#### Opcodes

```
  0: 0x02BF [0x32] ExtData[1]->MainSpeed = 13* * 0.1
  1: 0x02C2 [0x1F] MOVE_ENTITY: EventEntity moves to X=-74.591*, Z=126.966*, Y=-6.000*
  2: 0x02CA [0x1F] MOVE_ENTITY: Update entity position (mode=1)
  3: 0x02CC [0x4B] UPDATE_ENTITY_YAW(entity=LocalPlayer, yaw=3.0°*)
  4: 0x02D3 [0x1C] WAIT(30* ticks)
  5: 0x02D6 [0x00] END_REQSTACK()
```

### Event 65535.42

#### Metadata

| Field        | Value    |
|--------------|----------|
| Entrypoint   | 0x02D7   |
| Data Size    | 14 bytes |
| Instructions | 4        |

```
      00 01 02 03 04 05 06 07  08 09 0A 0B 0C 0D 0E 0F
      -- -- -- -- -- -- -- --  -- -- -- -- -- -- -- --
02D0:                      32  59 80 1F 00 66 80 67 80         2Y...f.g.
02E0: 68 80 1F 01 00                                    h....           
```

#### Opcodes

```
  0: 0x02D7 [0x32] ExtData[1]->MainSpeed = 13* * 0.1
  1: 0x02DA [0x1F] MOVE_ENTITY: EventEntity moves to X=34.014*, Z=-48.360*, Y=-7.199*
  2: 0x02E2 [0x1F] MOVE_ENTITY: Update entity position (mode=1)
  3: 0x02E4 [0x00] END_REQSTACK()
```

### Event 65535.43

#### Metadata

| Field        | Value    |
|--------------|----------|
| Entrypoint   | 0x02E5   |
| Data Size    | 10 bytes |
| Instructions | 2        |

```
      00 01 02 03 04 05 06 07  08 09 0A 0B 0C 0D 0E 0F
      -- -- -- -- -- -- -- --  -- -- -- -- -- -- -- --
02E0:                37 69 80  6A 80 6B 80 6C 80 00          7i.j.k.l.. 
```

#### Opcodes

```
  0: 0x02E5 [0x37] UPDATE_EVENT_POSITION_AND_DIR: x=29.533*, z=-47.631*, y=-7.851*, direction=184.6°*
  1: 0x02EE [0x00] END_REQSTACK()
```

### Event 65535.44

#### Metadata

| Field        | Value    |
|--------------|----------|
| Entrypoint   | 0x02EF   |
| Data Size    | 14 bytes |
| Instructions | 4        |

```
      00 01 02 03 04 05 06 07  08 09 0A 0B 0C 0D 0E 0F
      -- -- -- -- -- -- -- --  -- -- -- -- -- -- -- --
02E0:                                               32                 2
02F0: 59 80 1F 00 6D 80 6E 80  27 80 1F 01 00           Y...m.n.'....   
```

#### Opcodes

```
  0: 0x02EF [0x32] ExtData[1]->MainSpeed = 13* * 0.1
  1: 0x02F2 [0x1F] MOVE_ENTITY: EventEntity moves to X=26.788*, Z=-46.889*, Y=-7.804*
  2: 0x02FA [0x1F] MOVE_ENTITY: Update entity position (mode=1)
  3: 0x02FC [0x00] END_REQSTACK()
```

### Event 65535.45

#### Metadata

| Field        | Value    |
|--------------|----------|
| Entrypoint   | 0x02FD   |
| Data Size    | 10 bytes |
| Instructions | 2        |

```
      00 01 02 03 04 05 06 07  08 09 0A 0B 0C 0D 0E 0F
      -- -- -- -- -- -- -- --  -- -- -- -- -- -- -- --
02F0:                                         37 6F 80               7o.
0300: 70 80 0E 80 71 80 00                              p...q..         
```

#### Opcodes

```
  0: 0x02FD [0x37] UPDATE_EVENT_POSITION_AND_DIR: x=-72.039*, z=-86.859*, y=0.000*, direction=277.5°*
  1: 0x0306 [0x00] END_REQSTACK()
```

### Event 65535.46

#### Metadata

| Field        | Value    |
|--------------|----------|
| Entrypoint   | 0x0307   |
| Data Size    | 10 bytes |
| Instructions | 2        |

```
      00 01 02 03 04 05 06 07  08 09 0A 0B 0C 0D 0E 0F
      -- -- -- -- -- -- -- --  -- -- -- -- -- -- -- --
0300:                      37  72 80 73 80 74 80 75 80         7r.s.t.u.
0310: 00                                                .               
```

#### Opcodes

```
  0: 0x0307 [0x37] UPDATE_EVENT_POSITION_AND_DIR: x=79.956*, z=26.109*, y=-0.324*, direction=266.7°*
  1: 0x0310 [0x00] END_REQSTACK()
```

### Event 65535.47

#### Metadata

| Field        | Value    |
|--------------|----------|
| Entrypoint   | 0x0311   |
| Data Size    | 10 bytes |
| Instructions | 2        |

```
      00 01 02 03 04 05 06 07  08 09 0A 0B 0C 0D 0E 0F
      -- -- -- -- -- -- -- --  -- -- -- -- -- -- -- --
0310:    37 76 80 77 80 57 80  78 80 00                  7v.w.W.x..     
```

#### Opcodes

```
  0: 0x0311 [0x37] UPDATE_EVENT_POSITION_AND_DIR: x=80.521*, z=-123.970*, y=-6.000*, direction=119.2°*
  1: 0x031A [0x00] END_REQSTACK()
```

### Event 65535.48

#### Metadata

| Field        | Value    |
|--------------|----------|
| Entrypoint   | 0x031B   |
| Data Size    | 25 bytes |
| Instructions | 6        |

```
      00 01 02 03 04 05 06 07  08 09 0A 0B 0C 0D 0E 0F
      -- -- -- -- -- -- -- --  -- -- -- -- -- -- -- --
0310:                                   79 00 F8 FF FF             y....
0320: 7F CD 20 03 01 32 48 80  1F 00 79 80 7A 80 57 80  .. ..2H...y.z.W.
0330: 1F 01 6F 00                                       ..o.            
```

#### Opcodes

```
  0: 0x031B [0x79] EventEntity looks at Raillefal (ID: 16982221/0x010320CD) (Basic look)
  1: 0x0325 [0x32] ExtData[1]->MainSpeed = 11* * 0.1
  2: 0x0328 [0x1F] MOVE_ENTITY: EventEntity moves to X=77.459*, Z=-125.062*, Y=-6.000*
  3: 0x0330 [0x1F] MOVE_ENTITY: Update entity position (mode=1)
  4: 0x0332 [0x6F] WAIT_FRAME_DELAY: Yield until WaitTime reaches zero
  5: 0x0333 [0x00] END_REQSTACK()
```

### Event 65535.49

#### Metadata

| Field        | Value    |
|--------------|----------|
| Entrypoint   | 0x0334   |
| Data Size    | 15 bytes |
| Instructions | 3        |

```
      00 01 02 03 04 05 06 07  08 09 0A 0B 0C 0D 0E 0F
      -- -- -- -- -- -- -- --  -- -- -- -- -- -- -- --
0330:             37 79 80 7A  80 57 80 7B 80 1E CD 20      7y.z.W.{... 
0340: 03 01 00                                          ...             
```

#### Opcodes

```
  0: 0x0334 [0x37] UPDATE_EVENT_POSITION_AND_DIR: x=77.459*, z=-125.062*, y=-6.000*, direction=217.6°*
  1: 0x033D [0x1E] EventEntity looks at Raillefal (ID: 16982221/0x010320CD) and starts talking
  2: 0x0342 [0x00] END_REQSTACK()
```

### Event 65535.50

#### Metadata

| Field        | Value   |
|--------------|---------|
| Entrypoint   | 0x0343  |
| Data Size    | 1 bytes |
| Instructions | 1       |

```
      00 01 02 03 04 05 06 07  08 09 0A 0B 0C 0D 0E 0F
      -- -- -- -- -- -- -- --  -- -- -- -- -- -- -- --
0340:          00                                          .            
```

#### Opcodes

```
  0: 0x0343 [0x00] END_REQSTACK()
```

### Event 65535.51

#### Metadata

| Field        | Value    |
|--------------|----------|
| Entrypoint   | 0x0344   |
| Data Size    | 15 bytes |
| Instructions | 5        |

```
      00 01 02 03 04 05 06 07  08 09 0A 0B 0C 0D 0E 0F
      -- -- -- -- -- -- -- --  -- -- -- -- -- -- -- --
0340:             32 48 80 1F  00 7C 80 7D 80 27 80 1F      2H...|.}.'..
0350: 01 6F 00                                          .o.             
```

#### Opcodes

```
  0: 0x0344 [0x32] ExtData[1]->MainSpeed = 11* * 0.1
  1: 0x0347 [0x1F] MOVE_ENTITY: EventEntity moves to X=25.610*, Z=-44.878*, Y=-7.804*
  2: 0x034F [0x1F] MOVE_ENTITY: Update entity position (mode=1)
  3: 0x0351 [0x6F] WAIT_FRAME_DELAY: Yield until WaitTime reaches zero
  4: 0x0352 [0x00] END_REQSTACK()
```

### Event 65535.52

#### Metadata

| Field        | Value    |
|--------------|----------|
| Entrypoint   | 0x0353   |
| Data Size    | 12 bytes |
| Instructions | 3        |

```
      00 01 02 03 04 05 06 07  08 09 0A 0B 0C 0D 0E 0F
      -- -- -- -- -- -- -- --  -- -- -- -- -- -- -- --
0350:          37 7E 80 7F 80  53 80 80 80 22 01 00        7~...S...".. 
```

#### Opcodes

```
  0: 0x0353 [0x37] UPDATE_EVENT_POSITION_AND_DIR: x=111.867*, z=-28.821*, y=-0.338*, direction=91.8°*
  1: 0x035C [0x22] ENTITY_HIDE_FLAG(enabled=0x01)
  2: 0x035E [0x00] END_REQSTACK()
```

### Event 65535.53

#### Metadata

| Field        | Value   |
|--------------|---------|
| Entrypoint   | 0x035F  |
| Data Size    | 1 bytes |
| Instructions | 1       |

```
      00 01 02 03 04 05 06 07  08 09 0A 0B 0C 0D 0E 0F
      -- -- -- -- -- -- -- --  -- -- -- -- -- -- -- --
0350:                                               00                 .
```

#### Opcodes

```
  0: 0x035F [0x00] END_REQSTACK()
```

### Event 65535.54

#### Metadata

| Field        | Value    |
|--------------|----------|
| Entrypoint   | 0x0360   |
| Data Size    | 20 bytes |
| Instructions | 3        |

```
      00 01 02 03 04 05 06 07  08 09 0A 0B 0C 0D 0E 0F
      -- -- -- -- -- -- -- --  -- -- -- -- -- -- -- --
0360: 79 00 F8 FF FF 7F CD 20  03 01 37 81 80 82 80 27  y...... ..7....'
0370: 80 83 80 00                                       ....            
```

#### Opcodes

```
  0: 0x0360 [0x79] EventEntity looks at Raillefal (ID: 16982221/0x010320CD) (Basic look)
  1: 0x036A [0x37] UPDATE_EVENT_POSITION_AND_DIR: x=25.628*, z=-44.510*, y=-7.804*, direction=79.3°*
  2: 0x0373 [0x00] END_REQSTACK()
```

### Event 65535.55

#### Metadata

| Field        | Value    |
|--------------|----------|
| Entrypoint   | 0x0374   |
| Data Size    | 20 bytes |
| Instructions | 3        |

```
      00 01 02 03 04 05 06 07  08 09 0A 0B 0C 0D 0E 0F
      -- -- -- -- -- -- -- --  -- -- -- -- -- -- -- --
0370:             79 00 F8 FF  FF 7F D3 20 03 01 37 81      y...... ..7.
0380: 80 82 80 27 80 83 80 00                           ...'....        
```

#### Opcodes

```
  0: 0x0374 [0x79] EventEntity looks at Falzum (ID: 16982227/0x010320D3) (Basic look)
  1: 0x037E [0x37] UPDATE_EVENT_POSITION_AND_DIR: x=25.628*, z=-44.510*, y=-7.804*, direction=79.3°*
  2: 0x0387 [0x00] END_REQSTACK()
```

### Event 65535.56

#### Metadata

| Field        | Value    |
|--------------|----------|
| Entrypoint   | 0x0388   |
| Data Size    | 20 bytes |
| Instructions | 3        |

```
      00 01 02 03 04 05 06 07  08 09 0A 0B 0C 0D 0E 0F
      -- -- -- -- -- -- -- --  -- -- -- -- -- -- -- --
0380:                          79 00 F8 FF FF 7F CD 20          y...... 
0390: 03 01 37 84 80 85 80 27  80 86 80 00              ..7....'....    
```

#### Opcodes

```
  0: 0x0388 [0x79] EventEntity looks at Raillefal (ID: 16982221/0x010320CD) (Basic look)
  1: 0x0392 [0x37] UPDATE_EVENT_POSITION_AND_DIR: x=27.992*, z=-45.277*, y=-7.804*, direction=56.5°*
  2: 0x039B [0x00] END_REQSTACK()
```

### Event 65535.57

#### Metadata

| Field        | Value    |
|--------------|----------|
| Entrypoint   | 0x039C   |
| Data Size    | 10 bytes |
| Instructions | 2        |

```
      00 01 02 03 04 05 06 07  08 09 0A 0B 0C 0D 0E 0F
      -- -- -- -- -- -- -- --  -- -- -- -- -- -- -- --
0390:                                      37 87 80 88              7...
03A0: 80 57 80 89 80 00                                 .W....          
```

#### Opcodes

```
  0: 0x039C [0x37] UPDATE_EVENT_POSITION_AND_DIR: x=79.941*, z=-120.000*, y=-6.000*, direction=89.2°*
  1: 0x03A5 [0x00] END_REQSTACK()
```

### Event 65535.58

#### Metadata

| Field        | Value    |
|--------------|----------|
| Entrypoint   | 0x03A6   |
| Data Size    | 15 bytes |
| Instructions | 5        |

```
      00 01 02 03 04 05 06 07  08 09 0A 0B 0C 0D 0E 0F
      -- -- -- -- -- -- -- --  -- -- -- -- -- -- -- --
03A0:                   32 48  80 1F 00 8A 80 8B 80 57        2H.......W
03B0: 80 1F 01 6F 00                                    ...o.           
```

#### Opcodes

```
  0: 0x03A6 [0x32] ExtData[1]->MainSpeed = 11* * 0.1
  1: 0x03A9 [0x1F] MOVE_ENTITY: EventEntity moves to X=80.000*, Z=-125.708*, Y=-6.000*
  2: 0x03B1 [0x1F] MOVE_ENTITY: Update entity position (mode=1)
  3: 0x03B3 [0x6F] WAIT_FRAME_DELAY: Yield until WaitTime reaches zero
  4: 0x03B4 [0x00] END_REQSTACK()
```

### Event 65535.59

#### Metadata

| Field        | Value    |
|--------------|----------|
| Entrypoint   | 0x03B5   |
| Data Size    | 10 bytes |
| Instructions | 2        |

```
      00 01 02 03 04 05 06 07  08 09 0A 0B 0C 0D 0E 0F
      -- -- -- -- -- -- -- --  -- -- -- -- -- -- -- --
03B0:                37 8A 80  8B 80 57 80 8C 80 00          7....W.... 
```

#### Opcodes

```
  0: 0x03B5 [0x37] UPDATE_EVENT_POSITION_AND_DIR: x=80.000*, z=-125.708*, y=-6.000*, direction=89.4°*
  1: 0x03BE [0x00] END_REQSTACK()
```

### Event 65535.60

#### Metadata

| Field        | Value    |
|--------------|----------|
| Entrypoint   | 0x03BF   |
| Data Size    | 10 bytes |
| Instructions | 2        |

```
      00 01 02 03 04 05 06 07  08 09 0A 0B 0C 0D 0E 0F
      -- -- -- -- -- -- -- --  -- -- -- -- -- -- -- --
03B0:                                               37                 7
03C0: 8D 80 8E 80 0E 80 8F 80  00                       .........       
```

#### Opcodes

```
  0: 0x03BF [0x37] UPDATE_EVENT_POSITION_AND_DIR: x=-6.089*, z=-79.204*, y=0.000*, direction=285.5°*
  1: 0x03C8 [0x00] END_REQSTACK()
```

### Event 65535.61

#### Metadata

| Field        | Value    |
|--------------|----------|
| Entrypoint   | 0x03C9   |
| Data Size    | 10 bytes |
| Instructions | 2        |

```
      00 01 02 03 04 05 06 07  08 09 0A 0B 0C 0D 0E 0F
      -- -- -- -- -- -- -- --  -- -- -- -- -- -- -- --
03C0:                             37 90 80 91 80 57 80           7....W.
03D0: 92 80 00                                          ...             
```

#### Opcodes

```
  0: 0x03C9 [0x37] UPDATE_EVENT_POSITION_AND_DIR: x=80.129*, z=-124.193*, y=-6.000*, direction=89.3°*
  1: 0x03D2 [0x00] END_REQSTACK()
```

### Event 65535.62

#### Metadata

| Field        | Value    |
|--------------|----------|
| Entrypoint   | 0x03D3   |
| Data Size    | 15 bytes |
| Instructions | 5        |

```
      00 01 02 03 04 05 06 07  08 09 0A 0B 0C 0D 0E 0F
      -- -- -- -- -- -- -- --  -- -- -- -- -- -- -- --
03D0:          32 93 80 1F 00  94 80 95 80 57 80 1F 01     2........W...
03E0: 6F 00                                             o.              
```

#### Opcodes

```
  0: 0x03D3 [0x32] ExtData[1]->MainSpeed = 38* * 0.1
  1: 0x03D6 [0x1F] MOVE_ENTITY: EventEntity moves to X=80.109*, Z=-127.881*, Y=-6.000*
  2: 0x03DE [0x1F] MOVE_ENTITY: Update entity position (mode=1)
  3: 0x03E0 [0x6F] WAIT_FRAME_DELAY: Yield until WaitTime reaches zero
  4: 0x03E1 [0x00] END_REQSTACK()
```

### Event 65535.63

#### Metadata

| Field        | Value    |
|--------------|----------|
| Entrypoint   | 0x03E2   |
| Data Size    | 13 bytes |
| Instructions | 3        |

```
      00 01 02 03 04 05 06 07  08 09 0A 0B 0C 0D 0E 0F
      -- -- -- -- -- -- -- --  -- -- -- -- -- -- -- --
03E0:       6E F8 FF FF 7F 96  80 99 F8 FF FF 7F 00       n............ 
```

#### Opcodes

```
  0: 0x03E2 [0x6E] EventEntity uses emote 24*
  1: 0x03E9 [0x99] Wait for EventEntity animation to complete
  2: 0x03EE [0x00] END_REQSTACK()
```

### Event 65535.64

#### Metadata

| Field        | Value    |
|--------------|----------|
| Entrypoint   | 0x03EF   |
| Data Size    | 22 bytes |
| Instructions | 8        |

```
      00 01 02 03 04 05 06 07  08 09 0A 0B 0C 0D 0E 0F
      -- -- -- -- -- -- -- --  -- -- -- -- -- -- -- --
03E0:                                               32                 2
03F0: 48 80 1F 00 2C 80 2D 80  27 80 1F 01 6F 1E 8C 20  H...,.-.'...o.. 
0400: 03 01 6F 70 00                                    ..op.           
```

#### Opcodes

```
  0: 0x03EF [0x32] ExtData[1]->MainSpeed = 11* * 0.1
  1: 0x03F2 [0x1F] MOVE_ENTITY: EventEntity moves to X=25.591*, Z=-45.658*, Y=-7.804*
  2: 0x03FA [0x1F] MOVE_ENTITY: Update entity position (mode=1)
  3: 0x03FC [0x6F] WAIT_FRAME_DELAY: Yield until WaitTime reaches zero
  4: 0x03FD [0x1E] EventEntity looks at Naja Salaheem (ID: 16982156/0x0103208C) and starts talking
  5: 0x0402 [0x6F] WAIT_FRAME_DELAY: Yield until WaitTime reaches zero
  6: 0x0403 [0x70] WAIT_ENTITY_RENDER_FLAG: Wait while EventEntity->Render.Flags3 bit 2 is set (cancel turn if not)
  7: 0x0404 [0x00] END_REQSTACK()
```

### Event 65535.65

#### Metadata

| Field        | Value    |
|--------------|----------|
| Entrypoint   | 0x0405   |
| Data Size    | 10 bytes |
| Instructions | 2        |

```
      00 01 02 03 04 05 06 07  08 09 0A 0B 0C 0D 0E 0F
      -- -- -- -- -- -- -- --  -- -- -- -- -- -- -- --
0400:                37 2C 80  2D 80 27 80 2E 80 00          7,.-.'.... 
```

#### Opcodes

```
  0: 0x0405 [0x37] UPDATE_EVENT_POSITION_AND_DIR: x=25.591*, z=-45.658*, y=-7.804*, direction=180.0°*
  1: 0x040E [0x00] END_REQSTACK()
```

### Event 65535.66

#### Metadata

| Field        | Value    |
|--------------|----------|
| Entrypoint   | 0x040F   |
| Data Size    | 26 bytes |
| Instructions | 10       |

```
      00 01 02 03 04 05 06 07  08 09 0A 0B 0C 0D 0E 0F
      -- -- -- -- -- -- -- --  -- -- -- -- -- -- -- --
0400:                                               32                 2
0410: 97 80 61 00 1F 00 2C 80  2D 80 27 80 1F 01 6F 1E  ..a...,.-.'...o.
0420: 8C 20 03 01 6F 70 61 01  00                       . ..opa..       
```

#### Opcodes

```
  0: 0x040F [0x32] ExtData[1]->MainSpeed = 40* * 0.1
  1: 0x0412 [0x61] EventEntity->Render.Flags2 &= ~0x00000001
  2: 0x0414 [0x1F] MOVE_ENTITY: EventEntity moves to X=25.591*, Z=-45.658*, Y=-7.804*
  3: 0x041C [0x1F] MOVE_ENTITY: Update entity position (mode=1)
  4: 0x041E [0x6F] WAIT_FRAME_DELAY: Yield until WaitTime reaches zero
  5: 0x041F [0x1E] EventEntity looks at Naja Salaheem (ID: 16982156/0x0103208C) and starts talking
  6: 0x0424 [0x6F] WAIT_FRAME_DELAY: Yield until WaitTime reaches zero
  7: 0x0425 [0x70] WAIT_ENTITY_RENDER_FLAG: Wait while EventEntity->Render.Flags3 bit 2 is set (cancel turn if not)
  8: 0x0426 [0x61] EventEntity->Render.Flags2 |= 0x00000001
  9: 0x0428 [0x00] END_REQSTACK()
```

### Event 65535.67

#### Metadata

| Field        | Value    |
|--------------|----------|
| Entrypoint   | 0x0429   |
| Data Size    | 10 bytes |
| Instructions | 2        |

```
      00 01 02 03 04 05 06 07  08 09 0A 0B 0C 0D 0E 0F
      -- -- -- -- -- -- -- --  -- -- -- -- -- -- -- --
0420:                             37 98 80 99 80 27 80           7....'.
0430: 9A 80 00                                          ...             
```

#### Opcodes

```
  0: 0x0429 [0x37] UPDATE_EVENT_POSITION_AND_DIR: x=28.495*, z=-45.649*, y=-7.804*, direction=179.8°*
  1: 0x0432 [0x00] END_REQSTACK()
```

### Event 65535.68

#### Metadata

| Field        | Value    |
|--------------|----------|
| Entrypoint   | 0x0433   |
| Data Size    | 10 bytes |
| Instructions | 2        |

```
      00 01 02 03 04 05 06 07  08 09 0A 0B 0C 0D 0E 0F
      -- -- -- -- -- -- -- --  -- -- -- -- -- -- -- --
0430:          37 9B 80 9C 80  20 80 9D 80 00              7.... ....   
```

#### Opcodes

```
  0: 0x0433 [0x37] UPDATE_EVENT_POSITION_AND_DIR: x=28.922*, z=-56.062*, y=-5.999*, direction=356.4°*
  1: 0x043C [0x00] END_REQSTACK()
```

### Event 65535.69

#### Metadata

| Field        | Value    |
|--------------|----------|
| Entrypoint   | 0x043D   |
| Data Size    | 15 bytes |
| Instructions | 5        |

```
      00 01 02 03 04 05 06 07  08 09 0A 0B 0C 0D 0E 0F
      -- -- -- -- -- -- -- --  -- -- -- -- -- -- -- --
0430:                                         32 48 80               2H.
0440: 1F 00 9E 80 9F 80 5C 80  1F 01 6F 00              ......\...o.    
```

#### Opcodes

```
  0: 0x043D [0x32] ExtData[1]->MainSpeed = 11* * 0.1
  1: 0x0440 [0x1F] MOVE_ENTITY: EventEntity moves to X=33.233*, Z=-54.657*, Y=-6.605*
  2: 0x0448 [0x1F] MOVE_ENTITY: Update entity position (mode=1)
  3: 0x044A [0x6F] WAIT_FRAME_DELAY: Yield until WaitTime reaches zero
  4: 0x044B [0x00] END_REQSTACK()
```

### Event 65535.70

#### Metadata

| Field        | Value    |
|--------------|----------|
| Entrypoint   | 0x044C   |
| Data Size    | 11 bytes |
| Instructions | 5        |

```
      00 01 02 03 04 05 06 07  08 09 0A 0B 0C 0D 0E 0F
      -- -- -- -- -- -- -- --  -- -- -- -- -- -- -- --
0440:                                      1C 1C 80 1E              ....
0450: 8C 20 03 01 6F 70 00                              . ..op.         
```

#### Opcodes

```
  0: 0x044C [0x1C] WAIT(30* ticks)
  1: 0x044F [0x1E] EventEntity looks at Naja Salaheem (ID: 16982156/0x0103208C) and starts talking
  2: 0x0454 [0x6F] WAIT_FRAME_DELAY: Yield until WaitTime reaches zero
  3: 0x0455 [0x70] WAIT_ENTITY_RENDER_FLAG: Wait while EventEntity->Render.Flags3 bit 2 is set (cancel turn if not)
  4: 0x0456 [0x00] END_REQSTACK()
```

### Event 65535.71

#### Metadata

| Field        | Value    |
|--------------|----------|
| Entrypoint   | 0x0457   |
| Data Size    | 15 bytes |
| Instructions | 3        |

```
      00 01 02 03 04 05 06 07  08 09 0A 0B 0C 0D 0E 0F
      -- -- -- -- -- -- -- --  -- -- -- -- -- -- -- --
0450:                      37  A0 80 A1 80 A2 80 A3 80         7........
0460: 1E 8C 20 03 01 00                                 .. ...          
```

#### Opcodes

```
  0: 0x0457 [0x37] UPDATE_EVENT_POSITION_AND_DIR: x=31.927*, z=-47.379*, y=-7.203*, direction=239.5°*
  1: 0x0460 [0x1E] EventEntity looks at Naja Salaheem (ID: 16982156/0x0103208C) and starts talking
  2: 0x0465 [0x00] END_REQSTACK()
```

### Event 65535.72

#### Metadata

| Field        | Value    |
|--------------|----------|
| Entrypoint   | 0x0466   |
| Data Size    | 30 bytes |
| Instructions | 4        |

```
      00 01 02 03 04 05 06 07  08 09 0A 0B 0C 0D 0E 0F
      -- -- -- -- -- -- -- --  -- -- -- -- -- -- -- --
0460:                   2C F0  FF FF 7F F0 FF FF 7F 63        ,........c
0470: 61 73 6F 1C A4 80 2C F0  FF FF 7F F0 FF FF 7F 73  aso...,........s
0480: 68 73 6F 00                                       hso.            
```

#### Opcodes

```
  0: 0x0466 [0x2C] CREATE_SCHEDULER_TASK: Create scheduler "caso" with entities [LocalPlayer, LocalPlayer]
  1: 0x0473 [0x1C] WAIT(120* ticks)
  2: 0x0476 [0x2C] CREATE_SCHEDULER_TASK: Create scheduler "shso" with entities [LocalPlayer, LocalPlayer]
  3: 0x0483 [0x00] END_REQSTACK()
```

### Event 65535.73

#### Metadata

| Field        | Value    |
|--------------|----------|
| Entrypoint   | 0x0484   |
| Data Size    | 10 bytes |
| Instructions | 2        |

```
      00 01 02 03 04 05 06 07  08 09 0A 0B 0C 0D 0E 0F
      -- -- -- -- -- -- -- --  -- -- -- -- -- -- -- --
0480:             37 A5 80 A6  80 68 80 2E 80 00            7....h....  
```

#### Opcodes

```
  0: 0x0484 [0x37] UPDATE_EVENT_POSITION_AND_DIR: x=36.751*, z=-42.127*, y=-7.199*, direction=180.0°*
  1: 0x048D [0x00] END_REQSTACK()
```

### Event 65535.74

#### Metadata

| Field        | Value    |
|--------------|----------|
| Entrypoint   | 0x048E   |
| Data Size    | 10 bytes |
| Instructions | 2        |

```
      00 01 02 03 04 05 06 07  08 09 0A 0B 0C 0D 0E 0F
      -- -- -- -- -- -- -- --  -- -- -- -- -- -- -- --
0480:                                            37 A7                7.
0490: 80 05 80 A8 80 A9 80 00                           ........        
```

#### Opcodes

```
  0: 0x048E [0x37] UPDATE_EVENT_POSITION_AND_DIR: x=147.517*, z=0.001*, y=-2.000*, direction=359.9°*
  1: 0x0497 [0x00] END_REQSTACK()
```

### Event 65535.75

#### Metadata

| Field        | Value    |
|--------------|----------|
| Entrypoint   | 0x0498   |
| Data Size    | 15 bytes |
| Instructions | 5        |

```
      00 01 02 03 04 05 06 07  08 09 0A 0B 0C 0D 0E 0F
      -- -- -- -- -- -- -- --  -- -- -- -- -- -- -- --
0490:                          32 48 80 1F 00 AA 80 AB          2H......
04A0: 80 A8 80 1F 01 6F 00                              .....o.         
```

#### Opcodes

```
  0: 0x0498 [0x32] ExtData[1]->MainSpeed = 11* * 0.1
  1: 0x049B [0x1F] MOVE_ENTITY: EventEntity moves to X=149.560*, Z=0.006*, Y=-2.000*
  2: 0x04A3 [0x1F] MOVE_ENTITY: Update entity position (mode=1)
  3: 0x04A5 [0x6F] WAIT_FRAME_DELAY: Yield until WaitTime reaches zero
  4: 0x04A6 [0x00] END_REQSTACK()
```

### Event 65535.76

#### Metadata

| Field        | Value    |
|--------------|----------|
| Entrypoint   | 0x04A7   |
| Data Size    | 22 bytes |
| Instructions | 8        |

```
      00 01 02 03 04 05 06 07  08 09 0A 0B 0C 0D 0E 0F
      -- -- -- -- -- -- -- --  -- -- -- -- -- -- -- --
04A0:                      32  48 80 1F 00 AC 80 AD 80         2H.......
04B0: A8 80 1F 01 6F 1E 8C 20  03 01 6F 70 00           ....o.. ..op.   
```

#### Opcodes

```
  0: 0x04A7 [0x32] ExtData[1]->MainSpeed = 11* * 0.1
  1: 0x04AA [0x1F] MOVE_ENTITY: EventEntity moves to X=148.297*, Z=-1.641*, Y=-2.000*
  2: 0x04B2 [0x1F] MOVE_ENTITY: Update entity position (mode=1)
  3: 0x04B4 [0x6F] WAIT_FRAME_DELAY: Yield until WaitTime reaches zero
  4: 0x04B5 [0x1E] EventEntity looks at Naja Salaheem (ID: 16982156/0x0103208C) and starts talking
  5: 0x04BA [0x6F] WAIT_FRAME_DELAY: Yield until WaitTime reaches zero
  6: 0x04BB [0x70] WAIT_ENTITY_RENDER_FLAG: Wait while EventEntity->Render.Flags3 bit 2 is set (cancel turn if not)
  7: 0x04BC [0x00] END_REQSTACK()
```

### Event 65535.77

#### Metadata

| Field        | Value    |
|--------------|----------|
| Entrypoint   | 0x04BD   |
| Data Size    | 15 bytes |
| Instructions | 5        |

```
      00 01 02 03 04 05 06 07  08 09 0A 0B 0C 0D 0E 0F
      -- -- -- -- -- -- -- --  -- -- -- -- -- -- -- --
04B0:                                         32 48 80               2H.
04C0: 1F 00 AE 80 AF 80 A8 80  1F 01 6F 00              ..........o.    
```

#### Opcodes

```
  0: 0x04BD [0x32] ExtData[1]->MainSpeed = 11* * 0.1
  1: 0x04C0 [0x1F] MOVE_ENTITY: EventEntity moves to X=149.359*, Z=-0.871*, Y=-2.000*
  2: 0x04C8 [0x1F] MOVE_ENTITY: Update entity position (mode=1)
  3: 0x04CA [0x6F] WAIT_FRAME_DELAY: Yield until WaitTime reaches zero
  4: 0x04CB [0x00] END_REQSTACK()
```

### Event 65535.78

#### Metadata

| Field        | Value    |
|--------------|----------|
| Entrypoint   | 0x04CC   |
| Data Size    | 10 bytes |
| Instructions | 2        |

```
      00 01 02 03 04 05 06 07  08 09 0A 0B 0C 0D 0E 0F
      -- -- -- -- -- -- -- --  -- -- -- -- -- -- -- --
04C0:                                      37 B0 80 B1              7...
04D0: 80 0E 80 03 80 00                                 ......          
```

#### Opcodes

```
  0: 0x04CC [0x37] UPDATE_EVENT_POSITION_AND_DIR: x=-0.005*, z=47.377*, y=0.000*, direction=270.0°*
  1: 0x04D5 [0x00] END_REQSTACK()
```

### Event 65535.79

#### Metadata

| Field        | Value    |
|--------------|----------|
| Entrypoint   | 0x04D6   |
| Data Size    | 10 bytes |
| Instructions | 2        |

```
      00 01 02 03 04 05 06 07  08 09 0A 0B 0C 0D 0E 0F
      -- -- -- -- -- -- -- --  -- -- -- -- -- -- -- --
04D0:                   37 B2  80 B3 80 A8 80 9A 80 00        7.........
```

#### Opcodes

```
  0: 0x04D6 [0x37] UPDATE_EVENT_POSITION_AND_DIR: x=149.298*, z=-0.350*, y=-2.000*, direction=179.8°*
  1: 0x04DF [0x00] END_REQSTACK()
```

### Event 65535.80

#### Metadata

| Field        | Value    |
|--------------|----------|
| Entrypoint   | 0x04E0   |
| Data Size    | 15 bytes |
| Instructions | 5        |

```
      00 01 02 03 04 05 06 07  08 09 0A 0B 0C 0D 0E 0F
      -- -- -- -- -- -- -- --  -- -- -- -- -- -- -- --
04E0: 32 08 80 1F 00 B4 80 B5  80 A8 80 1F 01 6F 00     2............o. 
```

#### Opcodes

```
  0: 0x04E0 [0x32] ExtData[1]->MainSpeed = 9* * 0.1
  1: 0x04E3 [0x1F] MOVE_ENTITY: EventEntity moves to X=146.630*, Z=-0.296*, Y=-2.000*
  2: 0x04EB [0x1F] MOVE_ENTITY: Update entity position (mode=1)
  3: 0x04ED [0x6F] WAIT_FRAME_DELAY: Yield until WaitTime reaches zero
  4: 0x04EE [0x00] END_REQSTACK()
```

### Event 65535.81

#### Metadata

| Field        | Value    |
|--------------|----------|
| Entrypoint   | 0x04EF   |
| Data Size    | 21 bytes |
| Instructions | 5        |

```
      00 01 02 03 04 05 06 07  08 09 0A 0B 0C 0D 0E 0F
      -- -- -- -- -- -- -- --  -- -- -- -- -- -- -- --
04E0:                                               1C                 .
04F0: 2F 80 6E F8 FF FF 7F B6  80 99 F8 FF FF 7F 99 F8  /.n.............
0500: FF FF 7F 00                                       ....            
```

#### Opcodes

```
  0: 0x04EF [0x1C] WAIT(45* ticks)
  1: 0x04F2 [0x6E] EventEntity uses emote 29*
  2: 0x04F9 [0x99] Wait for EventEntity animation to complete
  3: 0x04FE [0x99] Wait for EventEntity animation to complete
  4: 0x0503 [0x00] END_REQSTACK()
```

### Event 65535.82

#### Metadata

| Field        | Value    |
|--------------|----------|
| Entrypoint   | 0x0504   |
| Data Size    | 13 bytes |
| Instructions | 3        |

```
      00 01 02 03 04 05 06 07  08 09 0A 0B 0C 0D 0E 0F
      -- -- -- -- -- -- -- --  -- -- -- -- -- -- -- --
0500:             37 B7 80 B8  80 57 80 B9 80 32 97 80      7....W...2..
0510: 00                                                .               
```

#### Opcodes

```
  0: 0x0504 [0x37] UPDATE_EVENT_POSITION_AND_DIR: x=13.188*, z=-63.324*, y=-6.000*, direction=160.5°*
  1: 0x050D [0x32] ExtData[1]->MainSpeed = 40* * 0.1
  2: 0x0510 [0x00] END_REQSTACK()
```

### Event 65535.83

#### Metadata

| Field        | Value    |
|--------------|----------|
| Entrypoint   | 0x0511   |
| Data Size    | 15 bytes |
| Instructions | 4        |

```
      00 01 02 03 04 05 06 07  08 09 0A 0B 0C 0D 0E 0F
      -- -- -- -- -- -- -- --  -- -- -- -- -- -- -- --
0510:    33 01 37 BA 80 BB 80  BC 80 BD 80 32 97 80 00   3.7........2...
```

#### Opcodes

```
  0: 0x0511 [0x33] EventEntity->Render.Flags0 |= 0x200000 // Bit 21 (flag=0x01)
  1: 0x0513 [0x37] UPDATE_EVENT_POSITION_AND_DIR: x=12.427*, z=-63.555*, y=-6.999*, direction=159.2°*
  2: 0x051C [0x32] ExtData[1]->MainSpeed = 40* * 0.1
  3: 0x051F [0x00] END_REQSTACK()
```

### Event 65535.84

#### Metadata

| Field        | Value    |
|--------------|----------|
| Entrypoint   | 0x0520   |
| Data Size    | 15 bytes |
| Instructions | 5        |

```
      00 01 02 03 04 05 06 07  08 09 0A 0B 0C 0D 0E 0F
      -- -- -- -- -- -- -- --  -- -- -- -- -- -- -- --
0520: 32 48 80 1F 00 BE 80 BF  80 C0 80 1F 01 6F 00     2H...........o. 
```

#### Opcodes

```
  0: 0x0520 [0x32] ExtData[1]->MainSpeed = 11* * 0.1
  1: 0x0523 [0x1F] MOVE_ENTITY: EventEntity moves to X=31.309*, Z=-54.699*, Y=-6.178*
  2: 0x052B [0x1F] MOVE_ENTITY: Update entity position (mode=1)
  3: 0x052D [0x6F] WAIT_FRAME_DELAY: Yield until WaitTime reaches zero
  4: 0x052E [0x00] END_REQSTACK()
```

### Event 65535.85

#### Metadata

| Field        | Value    |
|--------------|----------|
| Entrypoint   | 0x052F   |
| Data Size    | 10 bytes |
| Instructions | 2        |

```
      00 01 02 03 04 05 06 07  08 09 0A 0B 0C 0D 0E 0F
      -- -- -- -- -- -- -- --  -- -- -- -- -- -- -- --
0520:                                               37                 7
0530: C1 80 C2 80 C3 80 C4 80  00                       .........       
```

#### Opcodes

```
  0: 0x052F [0x37] UPDATE_EVENT_POSITION_AND_DIR: x=30.253*, z=-47.140*, y=-7.563*, direction=207.9°*
  1: 0x0538 [0x00] END_REQSTACK()
```

### Event 65535.86

#### Metadata

| Field        | Value    |
|--------------|----------|
| Entrypoint   | 0x0539   |
| Data Size    | 18 bytes |
| Instructions | 6        |

```
      00 01 02 03 04 05 06 07  08 09 0A 0B 0C 0D 0E 0F
      -- -- -- -- -- -- -- --  -- -- -- -- -- -- -- --
0530:                             1C C5 80 32 C6 80 1F           ...2...
0540: 00 C7 80 C8 80 27 80 1F  01 6F 00                 .....'...o.     
```

#### Opcodes

```
  0: 0x0539 [0x1C] WAIT(20* ticks)
  1: 0x053C [0x32] ExtData[1]->MainSpeed = 42* * 0.1
  2: 0x053F [0x1F] MOVE_ENTITY: EventEntity moves to X=26.634*, Z=-46.455*, Y=-7.804*
  3: 0x0547 [0x1F] MOVE_ENTITY: Update entity position (mode=1)
  4: 0x0549 [0x6F] WAIT_FRAME_DELAY: Yield until WaitTime reaches zero
  5: 0x054A [0x00] END_REQSTACK()
```

### Event 65535.87

#### Metadata

| Field        | Value    |
|--------------|----------|
| Entrypoint   | 0x054B   |
| Data Size    | 10 bytes |
| Instructions | 2        |

```
      00 01 02 03 04 05 06 07  08 09 0A 0B 0C 0D 0E 0F
      -- -- -- -- -- -- -- --  -- -- -- -- -- -- -- --
0540:                                   37 C9 80 CA 80             7....
0550: CB 80 CC 80 00                                    .....           
```

#### Opcodes

```
  0: 0x054B [0x37] UPDATE_EVENT_POSITION_AND_DIR: x=-14.606*, z=-58.694*, y=-2.330*, direction=160.4°*
  1: 0x0554 [0x00] END_REQSTACK()
```

### Event 65535.88

#### Metadata

| Field        | Value    |
|--------------|----------|
| Entrypoint   | 0x0555   |
| Data Size    | 34 bytes |
| Instructions | 10       |

```
      00 01 02 03 04 05 06 07  08 09 0A 0B 0C 0D 0E 0F
      -- -- -- -- -- -- -- --  -- -- -- -- -- -- -- --
0550:                32 97 80  1F 00 CD 80 CE 80 0E 80       2..........
0560: 1F 01 6F 1E D6 20 03 01  1C 1C 80 1F 00 CF 80 D0  ..o.. ..........
0570: 80 0E 80 1F 01 6F 00                              .....o.         
```

#### Opcodes

```
  0: 0x0555 [0x32] ExtData[1]->MainSpeed = 40* * 0.1
  1: 0x0558 [0x1F] MOVE_ENTITY: EventEntity moves to X=-7.916*, Z=-59.141*, Y=0.000*
  2: 0x0560 [0x1F] MOVE_ENTITY: Update entity position (mode=1)
  3: 0x0562 [0x6F] WAIT_FRAME_DELAY: Yield until WaitTime reaches zero
  4: 0x0563 [0x1E] EventEntity looks at Karababa (ID: 16982230/0x010320D6) and starts talking
  5: 0x0568 [0x1C] WAIT(30* ticks)
  6: 0x056B [0x1F] MOVE_ENTITY: EventEntity moves to X=-4.198*, Z=-70.953*, Y=0.000*
  7: 0x0573 [0x1F] MOVE_ENTITY: Update entity position (mode=1)
  8: 0x0575 [0x6F] WAIT_FRAME_DELAY: Yield until WaitTime reaches zero
  9: 0x0576 [0x00] END_REQSTACK()
```

### Event 65535.89

#### Metadata

| Field        | Value    |
|--------------|----------|
| Entrypoint   | 0x0577   |
| Data Size    | 10 bytes |
| Instructions | 2        |

```
      00 01 02 03 04 05 06 07  08 09 0A 0B 0C 0D 0E 0F
      -- -- -- -- -- -- -- --  -- -- -- -- -- -- -- --
0570:                      37  D1 80 D2 80 0E 80 D3 80         7........
0580: 00                                                .               
```

#### Opcodes

```
  0: 0x0577 [0x37] UPDATE_EVENT_POSITION_AND_DIR: x=-2.078*, z=-78.448*, y=0.000*, direction=83.9°*
  1: 0x0580 [0x00] END_REQSTACK()
```

### Event 65535.90

#### Metadata

| Field        | Value    |
|--------------|----------|
| Entrypoint   | 0x0581   |
| Data Size    | 14 bytes |
| Instructions | 4        |

```
      00 01 02 03 04 05 06 07  08 09 0A 0B 0C 0D 0E 0F
      -- -- -- -- -- -- -- --  -- -- -- -- -- -- -- --
0580:    32 59 80 1F 00 D4 80  D5 80 20 80 1F 01 00      2Y....... .... 
```

#### Opcodes

```
  0: 0x0581 [0x32] ExtData[1]->MainSpeed = 13* * 0.1
  1: 0x0584 [0x1F] MOVE_ENTITY: EventEntity moves to X=79.816*, Z=-124.848*, Y=-5.999*
  2: 0x058C [0x1F] MOVE_ENTITY: Update entity position (mode=1)
  3: 0x058E [0x00] END_REQSTACK()
```

### Event 65535.91

#### Metadata

| Field        | Value     |
|--------------|-----------|
| Entrypoint   | 0x058F    |
| Data Size    | 676 bytes |
| Instructions | 5         |

```
      00 01 02 03 04 05 06 07  08 09 0A 0B 0C 0D 0E 0F
      -- -- -- -- -- -- -- --  -- -- -- -- -- -- -- --
0580:                                               32                 2
0590: 59 80 1F 00 D6 80 D7 80  57 80 1F 01 1E 79 20 03  Y.......W....y .
05A0: 01 00 45 D8 80 F0 FF FF  7F F0 FF FF 7F 66 64 69  ..E..........fdi
05B0: 30 0E 80 55 D8 80 F0 FF  FF 7F F0 FF FF 7F 66 64  0..U..........fd
05C0: 69 30 1B 45 D8 80 F0 FF  FF 7F F0 FF FF 7F 66 64  i0.E..........fd
05D0: 6F 30 0E 80 55 D8 80 F0  FF FF 7F F0 FF FF 7F 66  o0..U..........f
05E0: 64 6F 30 1B 45 D8 80 F0  FF FF 7F F0 FF FF 7F 66  do0.E..........f
05F0: 64 69 31 0E 80 55 D8 80  F0 FF FF 7F F0 FF FF 7F  di1..U..........
0600: 66 64 69 31 1B 45 D8 80  F0 FF FF 7F F0 FF FF 7F  fdi1.E..........
0610: 66 64 6F 31 0E 80 55 D8  80 F0 FF FF 7F F0 FF FF  fdo1..U.........
0620: 7F 66 64 6F 31 1B 45 D9  80 F0 FF FF 7F F0 FF FF  .fdo1.E.........
0630: 7F 77 68 69 31 0E 80 55  D9 80 F0 FF FF 7F F0 FF  .whi1..U........
0640: FF 7F 77 68 69 31 1B 45  D9 80 F0 FF FF 7F F0 FF  ..whi1.E........
0650: FF 7F 77 68 6F 31 0E 80  55 D9 80 F0 FF FF 7F F0  ..who1..U.......
0660: FF FF 7F 77 68 6F 31 1B  45 D9 80 F0 FF FF 7F F0  ...who1.E.......
0670: FF FF 7F 77 68 6F 32 0E  80 55 D9 80 F0 FF FF 7F  ...who2..U......
0680: F0 FF FF 7F 77 68 6F 32  1B 45 D9 80 F0 FF FF 7F  ....who2.E......
0690: F0 FF FF 7F 77 68 6F 33  0E 80 55 D9 80 F0 FF FF  ....who3..U.....
06A0: 7F F0 FF FF 7F 77 68 6F  33 1B 62 05 80 F0 FF FF  .....who3.b.....
06B0: 7F F0 FF FF 7F 6D 61 69  6E 0E 80 1C 2F 80 45 D8  .....main.../.E.
06C0: 80 F0 FF FF 7F F0 FF FF  7F 66 64 6F 31 0E 80 55  .........fdo1..U
06D0: D8 80 F0 FF FF 7F F0 FF  FF 7F 66 64 6F 31 1B 45  ..........fdo1.E
06E0: D8 80 F0 FF FF 7F F0 FF  FF 7F 66 64 69 31 0E 80  ..........fdi1..
06F0: 62 06 80 F0 FF FF 7F F0  FF FF 7F 6D 61 69 6E 0E  b..........main.
0700: 80 1C 1C 80 55 D8 80 F0  FF FF 7F F0 FF FF 7F 66  ....U..........f
0710: 64 69 31 1B 45 D8 80 F0  FF FF 7F F0 FF FF 7F 62  di1.E..........b
0720: 6C 6F 6E 0E 80 45 D9 80  F0 FF FF 7F F0 FF FF 7F  lon..E..........
0730: 62 6C 6F 6E 0E 80 1B 45  D9 80 F0 FF FF 7F F0 FF  blon...E........
0740: FF 7F 77 68 69 30 0E 80  55 D9 80 F0 FF FF 7F F0  ..whi0..U.......
0750: FF FF 7F 77 68 69 30 1B  45 D9 80 F0 FF FF 7F F0  ...whi0.E.......
0760: FF FF 7F 77 68 6F 30 0E  80 55 D9 80 F0 FF FF 7F  ...who0..U......
0770: F0 FF FF 7F 77 68 6F 30  1B 45 DA 80 F0 FF FF 7F  ....who0.E......
0780: F0 FF FF 7F 65 66 6F 6E  0E 80 55 DA 80 F0 FF FF  ....efon..U.....
0790: 7F F0 FF FF 7F 65 66 6F  6E 1B 45 D8 80 F0 FF FF  .....efon.E.....
07A0: 7F F0 FF FF 7F 66 64 69  73 0E 80 1B 45 D8 80 F0  .....fdis...E...
07B0: FF FF 7F F0 FF FF 7F 66  64 6F 73 0E 80 55 D8 80  .......fdos..U..
07C0: F0 FF FF 7F F0 FF FF 7F  66 64 6F 73 1B 45 D8 80  ........fdos.E..
07D0: F0 FF FF 7F F0 FF FF 7F  66 64 69 66 0E 80 1B 45  ........fdif...E
07E0: D8 80 F0 FF FF 7F F0 FF  FF 7F 66 64 6F 66 0E 80  ..........fdof..
07F0: 55 D8 80 F0 FF FF 7F F0  FF FF 7F 66 64 6F 66 1B  U..........fdof.
0800: 45 D8 80 F0 FF FF 7F F0  FF FF 7F 66 64 69 70 0E  E..........fdip.
0810: 80 1B 45 D8 80 F0 FF FF  7F F0 FF FF 7F 66 64 6F  ..E..........fdo
0820: 70 0E 80 55 D8 80 F0 FF  FF 7F F0 FF FF 7F 66 64  p..U..........fd
0830: 6F 70 1B                                          op.             
```

#### Opcodes

```
  0: 0x058F [0x32] ExtData[1]->MainSpeed = 13* * 0.1
  1: 0x0592 [0x1F] MOVE_ENTITY: EventEntity moves to X=72.471*, Z=-125.744*, Y=-6.000*
  2: 0x059A [0x1F] MOVE_ENTITY: Update entity position (mode=1)
  3: 0x059C [0x1E] EventEntity looks at Rodin-Comidin (ID: 16982137/0x01032079) and starts talking
  4: 0x05A1 [0x00] END_REQSTACK()
```

#### Data or dead code:

```
# Dead code (unreachable instructions):
     0x05A2 [0x45] LOAD_SCHEDULED_TASK: Load scheduler "fdi0" with entities [LocalPlayer, LocalPlayer], work=[200*, 0*]
     0x05B3 [0x55] WAIT_LOAD_SCHEDULER: Wait for scheduler "fdi0" with entities [LocalPlayer, LocalPlayer], work=200*
     0x05C2 [0x1B] RETURN
     0x05C3 [0x45] LOAD_SCHEDULED_TASK: Load scheduler "fdo0" with entities [LocalPlayer, LocalPlayer], work=[200*, 0*]
     0x05D4 [0x55] WAIT_LOAD_SCHEDULER: Wait for scheduler "fdo0" with entities [LocalPlayer, LocalPlayer], work=200*
     0x05E3 [0x1B] RETURN
     0x05E4 [0x45] LOAD_SCHEDULED_TASK: Load scheduler "fdi1" with entities [LocalPlayer, LocalPlayer], work=[200*, 0*]
     0x05F5 [0x55] WAIT_LOAD_SCHEDULER: Wait for scheduler "fdi1" with entities [LocalPlayer, LocalPlayer], work=200*
     0x0604 [0x1B] RETURN
     0x0605 [0x45] LOAD_SCHEDULED_TASK: Load scheduler "fdo1" with entities [LocalPlayer, LocalPlayer], work=[200*, 0*]
     0x0616 [0x55] WAIT_LOAD_SCHEDULER: Wait for scheduler "fdo1" with entities [LocalPlayer, LocalPlayer], work=200*
     0x0625 [0x1B] RETURN
     0x0626 [0x45] LOAD_SCHEDULED_TASK: Load scheduler "whi1" with entities [LocalPlayer, LocalPlayer], work=[201*, 0*]
     0x0637 [0x55] WAIT_LOAD_SCHEDULER: Wait for scheduler "whi1" with entities [LocalPlayer, LocalPlayer], work=201*
     0x0646 [0x1B] RETURN
     0x0647 [0x45] LOAD_SCHEDULED_TASK: Load scheduler "who1" with entities [LocalPlayer, LocalPlayer], work=[201*, 0*]
     0x0658 [0x55] WAIT_LOAD_SCHEDULER: Wait for scheduler "who1" with entities [LocalPlayer, LocalPlayer], work=201*
     0x0667 [0x1B] RETURN
     0x0668 [0x45] LOAD_SCHEDULED_TASK: Load scheduler "who2" with entities [LocalPlayer, LocalPlayer], work=[201*, 0*]
     0x0679 [0x55] WAIT_LOAD_SCHEDULER: Wait for scheduler "who2" with entities [LocalPlayer, LocalPlayer], work=201*
     0x0688 [0x1B] RETURN
     0x0689 [0x45] LOAD_SCHEDULED_TASK: Load scheduler "who3" with entities [LocalPlayer, LocalPlayer], work=[201*, 0*]
     0x069A [0x55] WAIT_LOAD_SCHEDULER: Wait for scheduler "who3" with entities [LocalPlayer, LocalPlayer], work=201*
     0x06A9 [0x1B] RETURN
     0x06AA [0x62] LOAD_EVENT_SCHEDULER: Load scheduler "main" with entities [LocalPlayer, LocalPlayer], work=[1*, 0*]
     0x06BB [0x1C] WAIT(45* ticks)
     0x06BE [0x45] LOAD_SCHEDULED_TASK: Load scheduler "fdo1" with entities [LocalPlayer, LocalPlayer], work=[200*, 0*]
     0x06CF [0x55] WAIT_LOAD_SCHEDULER: Wait for scheduler "fdo1" with entities [LocalPlayer, LocalPlayer], work=200*
     0x06DE [0x1B] RETURN
     0x06DF [0x45] LOAD_SCHEDULED_TASK: Load scheduler "fdi1" with entities [LocalPlayer, LocalPlayer], work=[200*, 0*]
     0x06F0 [0x62] LOAD_EVENT_SCHEDULER: Load scheduler "main" with entities [LocalPlayer, LocalPlayer], work=[2*, 0*]
     0x0701 [0x1C] WAIT(30* ticks)
     0x0704 [0x55] WAIT_LOAD_SCHEDULER: Wait for scheduler "fdi1" with entities [LocalPlayer, LocalPlayer], work=200*
     0x0713 [0x1B] RETURN
     0x0714 [0x45] LOAD_SCHEDULED_TASK: Load scheduler "blon" with entities [LocalPlayer, LocalPlayer], work=[200*, 0*]
     0x0725 [0x45] LOAD_SCHEDULED_TASK: Load scheduler "blon" with entities [LocalPlayer, LocalPlayer], work=[201*, 0*]
     0x0736 [0x1B] RETURN
     0x0737 [0x45] LOAD_SCHEDULED_TASK: Load scheduler "whi0" with entities [LocalPlayer, LocalPlayer], work=[201*, 0*]
     0x0748 [0x55] WAIT_LOAD_SCHEDULER: Wait for scheduler "whi0" with entities [LocalPlayer, LocalPlayer], work=201*
     0x0757 [0x1B] RETURN
     0x0758 [0x45] LOAD_SCHEDULED_TASK: Load scheduler "who0" with entities [LocalPlayer, LocalPlayer], work=[201*, 0*]
     0x0769 [0x55] WAIT_LOAD_SCHEDULER: Wait for scheduler "who0" with entities [LocalPlayer, LocalPlayer], work=201*
     0x0778 [0x1B] RETURN
     0x0779 [0x45] LOAD_SCHEDULED_TASK: Load scheduler "efon" with entities [LocalPlayer, LocalPlayer], work=[215*, 0*]
     0x078A [0x55] WAIT_LOAD_SCHEDULER: Wait for scheduler "efon" with entities [LocalPlayer, LocalPlayer], work=215*
     0x0799 [0x1B] RETURN
     0x079A [0x45] LOAD_SCHEDULED_TASK: Load scheduler "fdis" with entities [LocalPlayer, LocalPlayer], work=[200*, 0*]
     0x07AB [0x1B] RETURN
     0x07AC [0x45] LOAD_SCHEDULED_TASK: Load scheduler "fdos" with entities [LocalPlayer, LocalPlayer], work=[200*, 0*]
     0x07BD [0x55] WAIT_LOAD_SCHEDULER: Wait for scheduler "fdos" with entities [LocalPlayer, LocalPlayer], work=200*
     0x07CC [0x1B] RETURN
     0x07CD [0x45] LOAD_SCHEDULED_TASK: Load scheduler "fdif" with entities [LocalPlayer, LocalPlayer], work=[200*, 0*]
     0x07DE [0x1B] RETURN
     0x07DF [0x45] LOAD_SCHEDULED_TASK: Load scheduler "fdof" with entities [LocalPlayer, LocalPlayer], work=[200*, 0*]
     0x07F0 [0x55] WAIT_LOAD_SCHEDULER: Wait for scheduler "fdof" with entities [LocalPlayer, LocalPlayer], work=200*
     0x07FF [0x1B] RETURN
     0x0800 [0x45] LOAD_SCHEDULED_TASK: Load scheduler "fdip" with entities [LocalPlayer, LocalPlayer], work=[200*, 0*]
     0x0811 [0x1B] RETURN
     0x0812 [0x45] LOAD_SCHEDULED_TASK: Load scheduler "fdop" with entities [LocalPlayer, LocalPlayer], work=[200*, 0*]
     0x0823 [0x55] WAIT_LOAD_SCHEDULER: Wait for scheduler "fdop" with entities [LocalPlayer, LocalPlayer], work=200*
     0x0832 [0x1B] RETURN
```

### Event 65535.92

#### Metadata

| Field        | Value    |
|--------------|----------|
| Entrypoint   | 0x0833   |
| Data Size    | 21 bytes |
| Instructions | 3        |

```
      00 01 02 03 04 05 06 07  08 09 0A 0B 0C 0D 0E 0F
      -- -- -- -- -- -- -- --  -- -- -- -- -- -- -- --
0830:          1C DB 80 9F DC  80 F8 FF FF 7F F8 FF FF     .............
0840: 7F 73 74 72 30 0E 80 00                           .str0...        
```

#### Opcodes

```
  0: 0x0833 [0x1C] WAIT(60* ticks)
  1: 0x0836 [0x9F] LOAD_SCHEDULED_TASK_ALT: Load scheduler "str0" with entities [EventEntity, EventEntity], work=[127*, 0*]
  2: 0x0847 [0x00] END_REQSTACK()
```

### Event 65535.93

#### Metadata

| Field        | Value    |
|--------------|----------|
| Entrypoint   | 0x0848   |
| Data Size    | 18 bytes |
| Instructions | 2        |

```
      00 01 02 03 04 05 06 07  08 09 0A 0B 0C 0D 0E 0F
      -- -- -- -- -- -- -- --  -- -- -- -- -- -- -- --
0840:                          9F DC 80 F8 FF FF 7F F8          ........
0850: FF FF 7F 6B 69 6C 6C 0E  80 00                    ...kill...      
```

#### Opcodes

```
  0: 0x0848 [0x9F] LOAD_SCHEDULED_TASK_ALT: Load scheduler "kill" with entities [EventEntity, EventEntity], work=[127*, 0*]
  1: 0x0859 [0x00] END_REQSTACK()
```

### Event 65535.94

#### Metadata

| Field        | Value    |
|--------------|----------|
| Entrypoint   | 0x085A   |
| Data Size    | 41 bytes |
| Instructions | 5        |

```
      00 01 02 03 04 05 06 07  08 09 0A 0B 0C 0D 0E 0F
      -- -- -- -- -- -- -- --  -- -- -- -- -- -- -- --
0850:                                1C DD 80 9F DC 80            ......
0860: F8 FF FF 7F F8 FF FF 7F  73 74 72 30 0E 80 1C C5  ........str0....
0870: 80 9F DC 80 F8 FF FF 7F  F8 FF FF 7F 6B 69 6C 6C  ............kill
0880: 0E 80 00                                          ...             
```

#### Opcodes

```
  0: 0x085A [0x1C] WAIT(240* ticks)
  1: 0x085D [0x9F] LOAD_SCHEDULED_TASK_ALT: Load scheduler "str0" with entities [EventEntity, EventEntity], work=[127*, 0*]
  2: 0x086E [0x1C] WAIT(20* ticks)
  3: 0x0871 [0x9F] LOAD_SCHEDULED_TASK_ALT: Load scheduler "kill" with entities [EventEntity, EventEntity], work=[127*, 0*]
  4: 0x0882 [0x00] END_REQSTACK()
```

### Event 65535.95

#### Metadata

| Field        | Value    |
|--------------|----------|
| Entrypoint   | 0x0883   |
| Data Size    | 41 bytes |
| Instructions | 5        |

```
      00 01 02 03 04 05 06 07  08 09 0A 0B 0C 0D 0E 0F
      -- -- -- -- -- -- -- --  -- -- -- -- -- -- -- --
0880:          1C DE 80 9F DC  80 F8 FF FF 7F F8 FF FF     .............
0890: 7F 73 74 72 30 0E 80 1C  DF 80 9F DC 80 F8 FF FF  .str0...........
08A0: 7F F8 FF FF 7F 6B 69 6C  6C 0E 80 00              .....kill...    
```

#### Opcodes

```
  0: 0x0883 [0x1C] WAIT(85* ticks)
  1: 0x0886 [0x9F] LOAD_SCHEDULED_TASK_ALT: Load scheduler "str0" with entities [EventEntity, EventEntity], work=[127*, 0*]
  2: 0x0897 [0x1C] WAIT(8* ticks)
  3: 0x089A [0x9F] LOAD_SCHEDULED_TASK_ALT: Load scheduler "kill" with entities [EventEntity, EventEntity], work=[127*, 0*]
  4: 0x08AB [0x00] END_REQSTACK()
```

### Event 65535.96

#### Metadata

| Field        | Value    |
|--------------|----------|
| Entrypoint   | 0x08AC   |
| Data Size    | 36 bytes |
| Instructions | 4        |

```
      00 01 02 03 04 05 06 07  08 09 0A 0B 0C 0D 0E 0F
      -- -- -- -- -- -- -- --  -- -- -- -- -- -- -- --
08A0:                                      1C E0 80 52              ...R
08B0: E1 80 F0 FF FF 7F F0 FF  FF 7F 62 72 62 72 45 E1  ..........brbrE.
08C0: 80 F0 FF FF 7F F0 FF FF  7F 61 72 61 72 0E 80 00  .........arar...
```

#### Opcodes

```
  0: 0x08AC [0x1C] WAIT(450* ticks)
  1: 0x08AF [0x52] END_LOAD_SCHEDULER: End scheduler "brbr" with entities [LocalPlayer, LocalPlayer], work=292*
  2: 0x08BE [0x45] LOAD_SCHEDULED_TASK: Load scheduler "arar" with entities [LocalPlayer, LocalPlayer], work=[292*, 0*]
  3: 0x08CF [0x00] END_REQSTACK()
```

### Event 65535.97

#### Metadata

| Field        | Value    |
|--------------|----------|
| Entrypoint   | 0x08D0   |
| Data Size    | 41 bytes |
| Instructions | 5        |

```
      00 01 02 03 04 05 06 07  08 09 0A 0B 0C 0D 0E 0F
      -- -- -- -- -- -- -- --  -- -- -- -- -- -- -- --
08D0: 1C 0A 80 9F DC 80 F8 FF  FF 7F F8 FF FF 7F 73 74  ..............st
08E0: 72 30 0E 80 1C A4 80 9F  DC 80 F8 FF FF 7F F8 FF  r0..............
08F0: FF 7F 6B 69 6C 6C 0E 80  00                       ..kill...       
```

#### Opcodes

```
  0: 0x08D0 [0x1C] WAIT(140* ticks)
  1: 0x08D3 [0x9F] LOAD_SCHEDULED_TASK_ALT: Load scheduler "str0" with entities [EventEntity, EventEntity], work=[127*, 0*]
  2: 0x08E4 [0x1C] WAIT(120* ticks)
  3: 0x08E7 [0x9F] LOAD_SCHEDULED_TASK_ALT: Load scheduler "kill" with entities [EventEntity, EventEntity], work=[127*, 0*]
  4: 0x08F8 [0x00] END_REQSTACK()
```

### Event 65535.98

#### Metadata

| Field        | Value    |
|--------------|----------|
| Entrypoint   | 0x08F9   |
| Data Size    | 22 bytes |
| Instructions | 6        |

```
      00 01 02 03 04 05 06 07  08 09 0A 0B 0C 0D 0E 0F
      -- -- -- -- -- -- -- --  -- -- -- -- -- -- -- --
08F0:                             32 59 80 1F 00 E2 80           2Y.....
0900: E3 80 68 80 1F 01 1E 8F  20 03 01 1C 1C 80 00     ..h..... ...... 
```

#### Opcodes

```
  0: 0x08F9 [0x32] ExtData[1]->MainSpeed = 13* * 0.1
  1: 0x08FC [0x1F] MOVE_ENTITY: EventEntity moves to X=34.150*, Z=-47.977*, Y=-7.199*
