# Event 397

## Metadata

| Field           | Value    |
|-----------------|----------|
| Event Index     | 69/71    |
| Offset          | 0x0429   |
| Data Size       | 23 bytes |
| Calculated Size | 23 bytes |
| Instructions    | 12       |

```
      00 01 02 03 04 05 06 07  08 09 0A 0B 0C 0D 0E 0F
      -- -- -- -- -- -- -- --  -- -- -- -- -- -- -- --
0420:                             1E F0 FF FF 7F 6F 70           .....op
0430: 1D 13 80 23 1D 14 80 23  1D 15 80 23 20 00 21 00  ...#...#...# .!.
```

## Opcodes

```
  0: 0x0429 [0x1E] EventEntity looks at LocalPlayer and starts talking
  1: 0x042E [0x6F] WAIT_FRAME_DELAY: Yield until WaitTime reaches zero
  2: 0x042F [0x70] WAIT_ENTITY_RENDER_FLAG: Wait while EventEntity->Render.Flags3 bit 2 is set (cancel turn if not)
  3: 0x0430 [0x1D] PRINT_EVENT_MESSAGE(message_id=11150*)
    → "The fiery young damsel is on a quest to find the famous Goldmane!\u007F1\u0000\u0007"
  4: 0x0433 [0x23] WAIT_FOR_DIALOG_INTERACTION
  5: 0x0434 [0x1D] PRINT_EVENT_MESSAGE(message_id=11151*)
    → "Thus I imparted to her the location of the bounty hunter's birthplace!\u007F1\u0000\u0007"
  6: 0x0437 [0x23] WAIT_FOR_DIALOG_INTERACTION
  7: 0x0438 [0x1D] PRINT_EVENT_MESSAGE(message_id=11152*)
    → "He was raised in a shepherd's village found in the west of the Tavnazian archipelago.\u007F1\u0000\u0007"
  8: 0x043B [0x23] WAIT_FOR_DIALOG_INTERACTION
  9: 0x043C [0x20] SET_CLI_EVENT_UC_FLAG: Unlock player control
 10: 0x043E [0x21] END_EVENT
 11: 0x043F [0x00] END_REQSTACK()
```
