# Event 428

## Metadata

| Field           | Value    |
|-----------------|----------|
| Event Index     | 5/5      |
| Offset          | 0x00D6   |
| Data Size       | 37 bytes |
| Calculated Size | 37 bytes |
| Instructions    | 11       |

```
      00 01 02 03 04 05 06 07  08 09 0A 0B 0C 0D 0E 0F
      -- -- -- -- -- -- -- --  -- -- -- -- -- -- -- --
00D0:                   42 48  11 80 1E F0 FF FF 7F 1C        BH........
00E0: 12 80 1D 13 80 23 5B 04  80 F8 FF FF 7F F8 FF FF  .....#[.........
00F0: 7F 74 6C 6B 30 1D 14 80  23 21 00                 .tlk0...#!.     
```

## Opcodes

```
  0: 0x00D6 [0x42] SET_CLI_EVENT_CANCEL_DATA()
  1: 0x00D7 [0x48] [System] [9206*]:
    → "\u001F\u000F\u0008's badge flashes brightly.\u007F1\u0000\u0007"
  2: 0x00DA [0x1E] EventEntity looks at LocalPlayer and starts talking
  3: 0x00DF [0x1C] WAIT(30* ticks)
  4: 0x00E2 [0x1D] PRINT_EVENT_MESSAGE(message_id=9207*)
    → "I say! That's a mighty lustrous... Ah, it is not a gem. Pity.\u007F1\u0000\u0007"
  5: 0x00E5 [0x23] WAIT_FOR_DIALOG_INTERACTION
  6: 0x00E6 [0x5B] LOAD_EXT_SCHEDULER: Load scheduler "tlk0" with entities [EventEntity, EventEntity], work=238*
  7: 0x00F5 [0x1D] PRINT_EVENT_MESSAGE(message_id=9208*)
    → "I take great pride in my collection of precious gems, but I suspect that there are types I have never even seen before buried in the lands of the Near East.\u007F1\u0000\u0007"
  8: 0x00F8 [0x23] WAIT_FOR_DIALOG_INTERACTION
  9: 0x00F9 [0x21] END_EVENT
 10: 0x00FA [0x00] END_REQSTACK()
```
