# Event 65535

## Metadata

| Field           | Value    |
|-----------------|----------|
| Event Index     | 40/120   |
| Offset          | 0x01A4   |
| Data Size       | 88 bytes |
| Calculated Size | 88 bytes |
| Instructions    | 12       |

```
      00 01 02 03 04 05 06 07  08 09 0A 0B 0C 0D 0E 0F
      -- -- -- -- -- -- -- --  -- -- -- -- -- -- -- --
01A0:             1C 42 80 27  04 28 90 0E 01 03 1C 43      .B.'.(.....C
01B0: 80 45 44 80 F0 FF FF 7F  F0 FF FF 7F 79 30 30 36  .ED.........y006
01C0: 0A 80 55 44 80 F0 FF FF  7F F0 FF FF 7F 79 30 30  ..UD.........y00
01D0: 36 45 44 80 F0 FF FF 7F  F0 FF FF 7F 79 30 30 31  6ED.........y001
01E0: 0A 80 55 44 80 F0 FF FF  7F F0 FF FF 7F 79 30 30  ..UD.........y00
01F0: 31 1C 45 80 1E F0 FF FF  7F 6F 70 00              1.E......op.    
```

## Opcodes

```
  0: 0x01A4 [0x1C] WAIT(150* ticks)
  1: 0x01A7 [0x27] REQ_SET(priority=0x04, entity_id=Door:Prince Royal's Rm (ID: 17731624/0x010E9028), tag_num=0x03)
  2: 0x01AE [0x1C] WAIT(90* ticks)
  3: 0x01B1 [0x45] LOAD_SCHEDULED_TASK(work_offset1=208*, entity1=LocalPlayer, entity2=LocalPlayer, scheduler_id="y006", work_offset2=0*)
  4: 0x01C2 [0x55] WAIT_LOAD_SCHEDULER(work_offset=208*, entity1=LocalPlayer, entity2=LocalPlayer, scheduler_id="y006")
  5: 0x01D1 [0x45] LOAD_SCHEDULED_TASK(work_offset1=208*, entity1=LocalPlayer, entity2=LocalPlayer, scheduler_id="y001", work_offset2=0*)
  6: 0x01E2 [0x55] WAIT_LOAD_SCHEDULER(work_offset=208*, entity1=LocalPlayer, entity2=LocalPlayer, scheduler_id="y001")
  7: 0x01F1 [0x1C] WAIT(10* ticks)
  8: 0x01F4 [0x1E] EventEntity looks at LocalPlayer and starts talking
  9: 0x01F9 [0x6F] WAIT_FRAME_DELAY: Yield until WaitTime reaches zero
 10: 0x01FA [0x70] WAIT_ENTITY_RENDER_FLAG: Wait while EventEntity->Render.Flags3 bit 2 is set (cancel turn if not)
 11: 0x01FB [0x00] END_REQSTACK()
```
