# Event 65535

## Metadata

| Field           | Value    |
|-----------------|----------|
| Event Index     | 56/120   |
| Offset          | 0x0325   |
| Data Size       | 28 bytes |
| Calculated Size | 28 bytes |
| Instructions    | 9        |

```
      00 01 02 03 04 05 06 07  08 09 0A 0B 0C 0D 0E 0F
      -- -- -- -- -- -- -- --  -- -- -- -- -- -- -- --
0320:                6F 70 32  02 80 1F 00 53 80 54 80       op2....S.T.
0330: 15 80 1F 01 1F 00 55 80  56 80 57 80 1F 01 22 01  ......U.V.W...".
0340: 00                                                .               
```

## Opcodes

```
  0: 0x0325 [0x6F] WAIT_FRAME_DELAY: Yield until WaitTime reaches zero
  1: 0x0326 [0x70] WAIT_ENTITY_RENDER_FLAG: Wait while EventEntity->Render.Flags3 bit 2 is set (cancel turn if not)
  2: 0x0327 [0x32] ExtData[1]->MainSpeed = 13* * 0.1
  3: 0x032A [0x1F] MOVE_ENTITY: EventEntity moves to X=-37.178*, Z=34.010*, Y=-3.000*
  4: 0x0332 [0x1F] MOVE_ENTITY: Update entity position (mode=1)
  5: 0x0334 [0x1F] MOVE_ENTITY: EventEntity moves to X=-36.872*, Z=43.026*, Y=-1.398*
  6: 0x033C [0x1F] MOVE_ENTITY: Update entity position (mode=1)
  7: 0x033E [0x22] ENTITY_HIDE_FLAG(enabled=0x01)
  8: 0x0340 [0x00] END_REQSTACK()
```
