# Event 65535

## Metadata

| Field           | Value    |
|-----------------|----------|
| Event Index     | 89/109   |
| Offset          | 0x055D   |
| Data Size       | 54 bytes |
| Calculated Size | 54 bytes |
| Instructions    | 10       |

```
      00 01 02 03 04 05 06 07  08 09 0A 0B 0C 0D 0E 0F
      -- -- -- -- -- -- -- --  -- -- -- -- -- -- -- --
0550:                                         32 00 80               2..
0560: 1F 00 16 80 17 80 13 80  1F 01 6F 4A F8 FF FF 7F  ..........oJ....
0570: 95 20 03 01 6F 70 66 00  80 F8 FF FF 7F F8 FF FF  . ..opf.........
0580: 7F 74 6C 6B 30 53 F8 FF  FF 7F F8 FF FF 7F 74 6C  .tlk0S........tl
0590: 6B 30 00                                          k0.             
```

## Opcodes

```
  0: 0x055D [0x32] ExtData[1]->MainSpeed = 40* * 0.1
  1: 0x0560 [0x1F] MOVE_ENTITY: EventEntity moves to X=36.726*, Z=57.333*, Y=-7.804*
  2: 0x0568 [0x1F] MOVE_ENTITY: Update entity position (mode=1)
  3: 0x056A [0x6F] WAIT_FRAME_DELAY: Yield until WaitTime reaches zero
  4: 0x056B [0x4A] EventEntity looks at Ghatsad (ID: 16982165/0x01032095)
  5: 0x0574 [0x6F] WAIT_FRAME_DELAY: Yield until WaitTime reaches zero
  6: 0x0575 [0x70] WAIT_ENTITY_RENDER_FLAG: Wait while EventEntity->Render.Flags3 bit 2 is set (cancel turn if not)
  7: 0x0576 [0x66] LOAD_EXT_SCHEDULER_MAIN(work_offset=40*, entity1=EventEntity, entity2=EventEntity, action="tlk0")
  8: 0x0585 [0x53] WAIT_SCHEDULER_TASK(entity1=EventEntity, entity2=EventEntity, action_id="tlk0")
  9: 0x0592 [0x00] END_REQSTACK()
```
