# Event 65535

## Metadata

| Field           | Value    |
|-----------------|----------|
| Event Index     | 97/109   |
| Offset          | 0x05C1   |
| Data Size       | 43 bytes |
| Calculated Size | 43 bytes |
| Instructions    | 7        |

```
      00 01 02 03 04 05 06 07  08 09 0A 0B 0C 0D 0E 0F
      -- -- -- -- -- -- -- --  -- -- -- -- -- -- -- --
05C0:    32 00 80 1F 00 1D 80  1E 80 1F 80 1F 01 6F 66   2............of
05D0: 00 80 F8 FF FF 7F F8 FF  FF 7F 77 61 69 30 53 F8  ..........wai0S.
05E0: FF FF 7F F8 FF FF 7F 77  61 69 30 00              .......wai0.    
```

## Opcodes

```
  0: 0x05C1 [0x32] ExtData[1]->MainSpeed = 40* * 0.1
  1: 0x05C4 [0x1F] MOVE_ENTITY: EventEntity moves to X=146.814*, Z=1.599*, Y=-1.999*
  2: 0x05CC [0x1F] MOVE_ENTITY: Update entity position (mode=1)
  3: 0x05CE [0x6F] WAIT_FRAME_DELAY: Yield until WaitTime reaches zero
  4: 0x05CF [0x66] LOAD_EXT_SCHEDULER_MAIN: Load scheduler "wai0" with entities [EventEntity, EventEntity], work=40*
  5: 0x05DE [0x53] WAIT_SCHEDULER_TASK: Wait for scheduler "wai0" with entities [EventEntity, EventEntity]
  6: 0x05EB [0x00] END_REQSTACK()
```
