# Event 117

## Metadata

| Field           | Value    |
|-----------------|----------|
| Event Index     | 10/34    |
| Offset          | 0x0581   |
| Data Size       | 45 bytes |
| Calculated Size | 45 bytes |
| Instructions    | 11       |

```
      00 01 02 03 04 05 06 07  08 09 0A 0B 0C 0D 0E 0F
      -- -- -- -- -- -- -- --  -- -- -- -- -- -- -- --
0580:    42 4A 01 02 05 01 F0  FF FF 7F 4A F0 FF FF 7F   BJ........J....
0590: 01 02 05 01 2B 01 02 05  01 45 80 23 2B 01 02 05  ....+....E.#+...
05A0: 01 46 80 23 2B 01 02 05  01 47 80 23 21 00        .F.#+....G.#!.  
```

## Opcodes

```
  0: 0x0581 [0x42] SET_CLI_EVENT_CANCEL_DATA()
  1: 0x0582 [0x4A] Loillie (ID: 17105409/0x01050201) looks at LocalPlayer
  2: 0x058B [0x4A] LocalPlayer looks at Loillie (ID: 17105409/0x01050201)
  3: 0x0594 [0x2B] Loillie (ID: 17105409/0x01050201) [14028*]:
    → "You would have my signature? It would be my pleasure!\u007F1\u0000\u0007"
  4: 0x059B [0x23] WAIT_FOR_DIALOG_INTERACTION
  5: 0x059C [0x2B] Loillie (ID: 17105409/0x01050201) [14029*]:
    → "Not that I give signatures to anyone who asks, mind you.\u0007You're a good friend of Sir Ragelise's, are you not?\u007F1\u0000\u0007"
  6: 0x05A3 [0x23] WAIT_FOR_DIALOG_INTERACTION
  7: 0x05A4 [0x2B] Loillie (ID: 17105409/0x01050201) [14030*]:
    → "From what I understand, Sir Ragelise has taken ill recently.\u0007As his trusted comrade, I have faith that you will be there for him in his time of need.\u007F1\u0000\u0007"
  8: 0x05AB [0x23] WAIT_FOR_DIALOG_INTERACTION
  9: 0x05AC [0x21] END_EVENT
 10: 0x05AD [0x00] END_REQSTACK()
```
