# Event 120

## Metadata

| Field           | Value    |
|-----------------|----------|
| Event Index     | 13/34    |
| Offset          | 0x0631   |
| Data Size       | 45 bytes |
| Calculated Size | 45 bytes |
| Instructions    | 11       |

```
      00 01 02 03 04 05 06 07  08 09 0A 0B 0C 0D 0E 0F
      -- -- -- -- -- -- -- --  -- -- -- -- -- -- -- --
0630:    42 4A 00 02 05 01 F0  FF FF 7F 4A F0 FF FF 7F   BJ........J....
0640: 00 02 05 01 2B 00 02 05  01 50 80 23 2B 00 02 05  ....+....P.#+...
0650: 01 51 80 23 2B 00 02 05  01 52 80 23 21 00        .Q.#+....R.#!.  
```

## Opcodes

```
  0: 0x0631 [0x42] SET_CLI_EVENT_CANCEL_DATA()
  1: 0x0632 [0x4A] Machionage (ID: 17105408/0x01050200) looks at LocalPlayer
  2: 0x063B [0x4A] LocalPlayer looks at Machionage (ID: 17105408/0x01050200)
  3: 0x0644 [0x2B] Machionage (ID: 17105408/0x01050200) [14039*]:
    → "Hm? Gathering signatures, you say?\u007F1\u0000\u0007"
  4: 0x064B [0x23] WAIT_FOR_DIALOG_INTERACTION
  5: 0x064C [0x2B] Machionage (ID: 17105408/0x01050200) [14040*]:
    → "So you seek to join the Madder Falcons and the Red Roses on their mission to the Northlands...\u007F1\u0000\u0007"
  6: 0x0653 [0x23] WAIT_FOR_DIALOG_INTERACTION
  7: 0x0654 [0x2B] Machionage (ID: 17105408/0x01050200) [14041*]:
    → "I'll lend my name to your cause, lest I be branded a quill-pincher.\u0007But whether a sheet of parchment scribbled with names would have any weight with the higher-ups...\u007F1\u0000\u0007"
  8: 0x065B [0x23] WAIT_FOR_DIALOG_INTERACTION
  9: 0x065C [0x21] END_EVENT
 10: 0x065D [0x00] END_REQSTACK()
```
