# Event 121

## Metadata

| Field           | Value    |
|-----------------|----------|
| Event Index     | 14/34    |
| Offset          | 0x065E   |
| Data Size       | 45 bytes |
| Calculated Size | 45 bytes |
| Instructions    | 11       |

```
      00 01 02 03 04 05 06 07  08 09 0A 0B 0C 0D 0E 0F
      -- -- -- -- -- -- -- --  -- -- -- -- -- -- -- --
0650:                                            42 4A                BJ
0660: EC 01 05 01 F0 FF FF 7F  4A F0 FF FF 7F EC 01 05  ........J.......
0670: 01 2B EC 01 05 01 53 80  23 2B EC 01 05 01 54 80  .+....S.#+....T.
0680: 23 2B EC 01 05 01 55 80  23 21 00                 #+....U.#!.     
```

## Opcodes

```
  0: 0x065E [0x42] SET_CLI_EVENT_CANCEL_DATA()
  1: 0x065F [0x4A] Andagge (ID: 17105388/0x010501EC) looks at LocalPlayer
  2: 0x0668 [0x4A] LocalPlayer looks at Andagge (ID: 17105388/0x010501EC)
  3: 0x0671 [0x2B] Andagge (ID: 17105388/0x010501EC) [14042*]:
    → "Eh? You're petitioning to join our northbound troops?\u007F1\u0000\u0007"
  4: 0x0678 [0x23] WAIT_FOR_DIALOG_INTERACTION
  5: 0x0679 [0x2B] Andagge (ID: 17105388/0x010501EC) [14043*]:
    → "Hmm... The Madder Falcons suffered heavy losses at the Battle of La Theine, and would benefit from every extra sword they can get.\u007F1\u0000\u0007"
  6: 0x0680 [0x23] WAIT_FOR_DIALOG_INTERACTION
  7: 0x0681 [0x2B] Andagge (ID: 17105388/0x010501EC) [14044*]:
    → "Very well. You have my signature, and my blessing, too.\u007F1\u0000\u0007"
  8: 0x0688 [0x23] WAIT_FOR_DIALOG_INTERACTION
  9: 0x0689 [0x21] END_EVENT
 10: 0x068A [0x00] END_REQSTACK()
```
