# Event 124

## Metadata

| Field           | Value    |
|-----------------|----------|
| Event Index     | 17/34    |
| Offset          | 0x06F5   |
| Data Size       | 53 bytes |
| Calculated Size | 53 bytes |
| Instructions    | 13       |

```
      00 01 02 03 04 05 06 07  08 09 0A 0B 0C 0D 0E 0F
      -- -- -- -- -- -- -- --  -- -- -- -- -- -- -- --
06F0:                42 4A EA  01 05 01 F0 FF FF 7F 4A       BJ........J
0700: F0 FF FF 7F EA 01 05 01  2B EA 01 05 01 5E 80 23  ........+....^.#
0710: 2B EA 01 05 01 5F 80 23  2B EA 01 05 01 60 80 23  +...._.#+....`.#
0720: 2B EA 01 05 01 61 80 23  21 00                    +....a.#!.      
```

## Opcodes

```
  0: 0x06F5 [0x42] SET_CLI_EVENT_CANCEL_DATA()
  1: 0x06F6 [0x4A] Remiotte (ID: 17105386/0x010501EA) looks at LocalPlayer
  2: 0x06FF [0x4A] LocalPlayer looks at Remiotte (ID: 17105386/0x010501EA)
  3: 0x0708 [0x2B] Remiotte (ID: 17105386/0x010501EA) [14053*]:
    → "Hm? Gathering signatures, are we?\u007F1\u0000\u0007"
  4: 0x070F [0x23] WAIT_FOR_DIALOG_INTERACTION
  5: 0x0710 [0x2B] Remiotte (ID: 17105386/0x010501EA) [14054*]:
    → "So Sir Vestillet and Sir Noillurie and their respective units are bound for Valdeaunia...\u007F1\u0000\u0007"
  6: 0x0717 [0x23] WAIT_FOR_DIALOG_INTERACTION
  7: 0x0718 [0x2B] Remiotte (ID: 17105386/0x010501EA) [14055*]:
    → "Pundits say that a fierce battle the likes of which has yet to be seen is set to erupt there.\u007F1\u0000\u0007"
  8: 0x071F [0x23] WAIT_FOR_DIALOG_INTERACTION
  9: 0x0720 [0x2B] Remiotte (ID: 17105386/0x010501EA) [14056*]:
    → "An extra hand to help thin out the beastman ranks cannot hurt, surely. You have my vote.\u007F1\u0000\u0007"
 10: 0x0727 [0x23] WAIT_FOR_DIALOG_INTERACTION
 11: 0x0728 [0x21] END_EVENT
 12: 0x0729 [0x00] END_REQSTACK()
```
