# Event 135

## Metadata

| Field           | Value    |
|-----------------|----------|
| Event Index     | 27/34    |
| Offset          | 0x16C6   |
| Data Size       | 37 bytes |
| Calculated Size | 37 bytes |
| Instructions    | 9        |

```
      00 01 02 03 04 05 06 07  08 09 0A 0B 0C 0D 0E 0F
      -- -- -- -- -- -- -- --  -- -- -- -- -- -- -- --
16C0:                   42 4A  E8 01 05 01 F0 FF FF 7F        BJ........
16D0: 4A F0 FF FF 7F E8 01 05  01 2B E8 01 05 01 DB 80  J........+......
16E0: 23 2B E8 01 05 01 DC 80  23 21 00                 #+......#!.     
```

## Opcodes

```
  0: 0x16C6 [0x42] SET_CLI_EVENT_CANCEL_DATA()
  1: 0x16C7 [0x4A] Eumielle (ID: 17105384/0x010501E8) looks at LocalPlayer
  2: 0x16D0 [0x4A] LocalPlayer looks at Eumielle (ID: 17105384/0x010501E8)
  3: 0x16D9 [0x2B] Eumielle (ID: 17105384/0x010501E8) [14134*]:
    → "This unmistakable aroma...! Altana be praised!\u007F1\u0000\u0007"
  4: 0x16E0 [0x23] WAIT_FOR_DIALOG_INTERACTION
  5: 0x16E1 [0x2B] Eumielle (ID: 17105384/0x010501E8) [14135*]:
    → "Here's my signature as promised, and those of my fellow Iron Rams also. Now then, without further ado--!\u0007Um...you wouldn't perchance have a spoon I might borrow?\u007F1\u0000\u0007"
  6: 0x16E8 [0x23] WAIT_FOR_DIALOG_INTERACTION
  7: 0x16E9 [0x21] END_EVENT
  8: 0x16EA [0x00] END_REQSTACK()
```
