# Event 139

## Metadata

| Field           | Value    |
|-----------------|----------|
| Event Index     | 3/34     |
| Offset          | 0x0446   |
| Data Size       | 42 bytes |
| Calculated Size | 42 bytes |
| Instructions    | 10       |

```
      00 01 02 03 04 05 06 07  08 09 0A 0B 0C 0D 0E 0F
      -- -- -- -- -- -- -- --  -- -- -- -- -- -- -- --
0440:                   4A F5  01 05 01 F0 FF FF 7F 6F        J........o
0450: 76 F5 01 05 01 6E F5 01  05 01 32 80 99 F5 01 05  v....n....2.....
0460: 01 03 02 10 33 80 2B F5  01 05 01 34 80 23 21 00  ....3.+....4.#!.
```

## Opcodes

```
  0: 0x0446 [0x4A] Sabiliont (ID: 17105397/0x010501F5) looks at LocalPlayer
  1: 0x044F [0x6F] WAIT_FRAME_DELAY: Yield until WaitTime reaches zero
  2: 0x0450 [0x76] CHECK_ENTITY_RENDER_FLAGS: Wait until Sabiliont (ID: 17105397/0x010501F5) Render.Flags0 and Render.Flags3 conditions are met
  3: 0x0455 [0x6E] Sabiliont (ID: 17105397/0x010501F5) uses emote 6*
  4: 0x045C [0x99] Wait for Sabiliont (ID: 17105397/0x010501F5) animation to complete
  5: 0x0461 [0x03] Work_Zone[2] = 4545*
  6: 0x0466 [0x2B] Sabiliont (ID: 17105397/0x010501F5) [14120*]:
    → "That would be \u0001\u0005%\u0002\u0000\u0000\u0000 I require, and the more the merrier!\u007F1\u0000\u0007"
  7: 0x046D [0x23] WAIT_FOR_DIALOG_INTERACTION
  8: 0x046E [0x21] END_EVENT
  9: 0x046F [0x00] END_REQSTACK()
```
