# Event 140

## Metadata

| Field           | Value    |
|-----------------|----------|
| Event Index     | 4/34     |
| Offset          | 0x0470   |
| Data Size       | 42 bytes |
| Calculated Size | 42 bytes |
| Instructions    | 10       |

```
      00 01 02 03 04 05 06 07  08 09 0A 0B 0C 0D 0E 0F
      -- -- -- -- -- -- -- --  -- -- -- -- -- -- -- --
0470: 4A 67 02 05 01 F0 FF FF  7F 6F 76 67 02 05 01 6E  Jg.......ovg...n
0480: 67 02 05 01 2C 80 99 67  02 05 01 03 02 10 35 80  g...,..g......5.
0490: 2B 67 02 05 01 36 80 23  21 00                    +g...6.#!.      
```

## Opcodes

```
  0: 0x0470 [0x4A] Hauberliond (ID: 17105511/0x01050267) looks at LocalPlayer
  1: 0x0479 [0x6F] WAIT_FRAME_DELAY: Yield until WaitTime reaches zero
  2: 0x047A [0x76] CHECK_ENTITY_RENDER_FLAGS: Wait until Hauberliond (ID: 17105511/0x01050267) Render.Flags0 and Render.Flags3 conditions are met
  3: 0x047F [0x6E] Hauberliond (ID: 17105511/0x01050267) uses emote 7*
  4: 0x0486 [0x99] Wait for Hauberliond (ID: 17105511/0x01050267) animation to complete
  5: 0x048B [0x03] Work_Zone[2] = 17336*
  6: 0x0490 [0x2B] Hauberliond (ID: 17105511/0x01050267) [14127*]:
    → "Our army is low on \u0001\u0005%\u0002\u0000\u0000\u0000. Bring as many as you can.\u007F1\u0000\u0007"
  7: 0x0497 [0x23] WAIT_FOR_DIALOG_INTERACTION
  8: 0x0498 [0x21] END_EVENT
  9: 0x0499 [0x00] END_REQSTACK()
```
