# Event 141

## Metadata

| Field           | Value    |
|-----------------|----------|
| Event Index     | 5/34     |
| Offset          | 0x049A   |
| Data Size       | 42 bytes |
| Calculated Size | 42 bytes |
| Instructions    | 10       |

```
      00 01 02 03 04 05 06 07  08 09 0A 0B 0C 0D 0E 0F
      -- -- -- -- -- -- -- --  -- -- -- -- -- -- -- --
0490:                                4A E8 01 05 01 F0            J.....
04A0: FF FF 7F 6F 76 E8 01 05  01 6E E8 01 05 01 37 80  ...ov....n....7.
04B0: 99 E8 01 05 01 03 02 10  38 80 2B E8 01 05 01 39  ........8.+....9
04C0: 80 23 21 00                                       .#!.            
```

## Opcodes

```
  0: 0x049A [0x4A] Eumielle (ID: 17105384/0x010501E8) looks at LocalPlayer
  1: 0x04A3 [0x6F] WAIT_FRAME_DELAY: Yield until WaitTime reaches zero
  2: 0x04A4 [0x76] CHECK_ENTITY_RENDER_FLAGS: Wait until Eumielle (ID: 17105384/0x010501E8) Render.Flags0 and Render.Flags3 conditions are met
  3: 0x04A9 [0x6E] Eumielle (ID: 17105384/0x010501E8) uses emote 32*
  4: 0x04B0 [0x99] Wait for Eumielle (ID: 17105384/0x010501E8) animation to complete
  5: 0x04B5 [0x03] Work_Zone[2] = 5704*
  6: 0x04BA [0x2B] Eumielle (ID: 17105384/0x010501E8) [14133*]:
    → "As long as it's made from beans, I care not the slightest what dark crevasse it came from!\u0007But...<slurp>...I do have a soft spot for \u0001\u0005%\u0002\u0000\u0000\u0000.\u007F1\u0000\u0007"
  7: 0x04C1 [0x23] WAIT_FOR_DIALOG_INTERACTION
  8: 0x04C2 [0x21] END_EVENT
  9: 0x04C3 [0x00] END_REQSTACK()
```
