# Event 143

## Metadata

| Field           | Value    |
|-----------------|----------|
| Event Index     | 7/34     |
| Offset          | 0x04E9   |
| Data Size       | 42 bytes |
| Calculated Size | 42 bytes |
| Instructions    | 10       |

```
      00 01 02 03 04 05 06 07  08 09 0A 0B 0C 0D 0E 0F
      -- -- -- -- -- -- -- --  -- -- -- -- -- -- -- --
04E0:                             4A ED 01 05 01 F0 FF           J......
04F0: FF 7F 6F 76 ED 01 05 01  6E ED 01 05 01 3C 80 99  ..ov....n....<..
0500: ED 01 05 01 03 02 10 3D  80 2B ED 01 05 01 3E 80  .......=.+....>.
0510: 23 21 00                                          #!.             
```

## Opcodes

```
  0: 0x04E9 [0x4A] Rongelouts N Distaud (ID: 17105389/0x010501ED) looks at LocalPlayer
  1: 0x04F2 [0x6F] WAIT_FRAME_DELAY: Yield until WaitTime reaches zero
  2: 0x04F3 [0x76] CHECK_ENTITY_RENDER_FLAGS: Wait until Rongelouts N Distaud (ID: 17105389/0x010501ED) Render.Flags0 and Render.Flags3 conditions are met
  3: 0x04F8 [0x6E] Rongelouts N Distaud (ID: 17105389/0x010501ED) uses emote 25*
  4: 0x04FF [0x99] Wait for Rongelouts N Distaud (ID: 17105389/0x010501ED) animation to complete
  5: 0x0504 [0x03] Work_Zone[2] = 2521*
  6: 0x0509 [0x2B] Rongelouts N Distaud (ID: 17105389/0x010501ED) [14150*]:
    → "\u007F\u0000\u0001\u0001\u0001\u0001 \u0001\u0005$\u0002\u0000\u0000\u0000, I said! Have you sawdust for brains?\u0007Make me repeat myself once more, and your pouting lips will find themselves at odds with my gauntlet!\u007F1\u0000\u0007"
  7: 0x0510 [0x23] WAIT_FOR_DIALOG_INTERACTION
  8: 0x0511 [0x21] END_EVENT
  9: 0x0512 [0x00] END_REQSTACK()
```
