# Event 32730

## Metadata

| Field           | Value    |
|-----------------|----------|
| Event Index     | 4/6      |
| Offset          | 0x00C5   |
| Data Size       | 55 bytes |
| Calculated Size | 55 bytes |
| Instructions    | 15       |

```
      00 01 02 03 04 05 06 07  08 09 0A 0B 0C 0D 0E 0F
      -- -- -- -- -- -- -- --  -- -- -- -- -- -- -- --
00C0:                03 01 10  00 80 1E F0 FF FF 7F 1D       ...........
00D0: 17 80 23 24 18 80 05 80  00 80 25 02 00 10 00 80  ..#$......%.....
00E0: 00 EF 00 1D 19 80 23 03  01 10 05 80 01 FA 00 02  ......#.........
00F0: 00 10 05 80 00 FA 00 01  FA 00 21 00              ..........!.    
```

## Opcodes

```
  0: 0x00C5 [0x03] Work_Zone[1] = 0*
  1: 0x00CA [0x1E] EventEntity looks at LocalPlayer and starts talking
  2: 0x00CF [0x1D] PRINT_EVENT_MESSAGE(message_id=17257*)
    → "What's wrong?\u0007Have you grown tired of your duties?\u007F1\u0000\u0007"
  3: 0x00D2 [0x23] WAIT_FOR_DIALOG_INTERACTION
  4: 0x00D3 [0x24] CREATE_DIALOG(message_id=17212*, default_option=1*, option_flags=0*)
    → "Give up?\u0007\u000BI'm done.\u0007Not yet.\u007F1\u0000\u0007"
  5: 0x00DA [0x25] WAIT_DIALOG_SELECT()
  6: 0x00DB [0x02] IF !(Work_Zone[0] == 0*) GOTO 0x00EF
  7: 0x00E3 [0x1D] PRINT_EVENT_MESSAGE(message_id=17258*)
    → "Oh, I see...\u0007Well, please return to me if you find your patience for them restored.\u007F1\u0000\u0007"
  8: 0x00E6 [0x23] WAIT_FOR_DIALOG_INTERACTION
  9: 0x00E7 [0x03] Work_Zone[1] = 1*
 10: 0x00EC [0x01] GOTO 0x00FA

SUBROUTINE_00EF:
 11: 0x00EF [0x02] IF !(Work_Zone[0] == 1*) GOTO 0x00FA
 12: 0x00F7 [0x01] GOTO 0x00FA

SUBROUTINE_00FA:
 13: 0x00FA [0x21] END_EVENT
 14: 0x00FB [0x00] END_REQSTACK()
```
