# 17044024

## Common Data

| Field            | Value           |
|------------------|-----------------|
| Zone             | Mamook (ID: 65) |
| Block Size       | 12384 bytes     |
| Total Events     | 5               |
| References Count | 252             |

## List of Events

| Event ID              | Entrypoint   |   Size |   Instructions |
|-----------------------|--------------|--------|----------------|
| [65535](#event-65535) | 0x0000       |      1 |              1 |
| [222](#event-222)     | 0x0001       |   1652 |            231 |
| [227](#event-227)     | 0x0675       |   2158 |            296 |
| [223](#event-223)     | 0x0EE3       |   2448 |            323 |
| [225](#event-225)     | 0x1873       |   5079 |            640 |

## DAT References (imed_data)

|   Index | Hex Value   |   Dec Value |
|---------|-------------|-------------|
|       0 | 0x0013      |          19 |
|       1 | 0x35CD1     |      220369 |
|       2 | 0xFFFE87B7  |  4294870967 |
|       3 | 0xFFFF9D05  |  4294941957 |
|       4 | 0x0481      |        1153 |
|       5 | 0x011A      |         282 |
|       6 | 0x0000      |           0 |
|       7 | 0x0078      |         120 |
|       8 | 0x20B8      |        8376 |
|       9 | 0x0064      |         100 |
|      10 | 0x00C8      |         200 |
|      11 | 0x20B9      |        8377 |
|      12 | 0x20BA      |        8378 |
|      13 | 0x20BB      |        8379 |
|      14 | 0x20BC      |        8380 |
|      15 | 0x20BD      |        8381 |
|      16 | 0x20BE      |        8382 |
|      17 | 0x0033      |          51 |
|      18 | 0x000E      |          14 |
|      19 | 0x0001      |           1 |
|      20 | 0xA5C97     |      679063 |
|      21 | 0x327C1     |      206785 |
|      22 | 0xFFFFC22D  |  4294951469 |
|      23 | 0x0384      |         900 |
|      24 | 0x000A      |          10 |
|      25 | 0xA62F7     |      680695 |
|      26 | 0x3255E     |      206174 |
|      27 | 0xFFFFC207  |  4294951431 |
|      28 | 0x0400      |        1024 |
|      29 | 0x007B      |         123 |
|      30 | 0x001E      |          30 |
|      31 | 0x00EB      |         235 |
|      32 | 0x00F0      |         240 |
|      33 | 0x20BF      |        8383 |
|      34 | 0x00FF      |         255 |
|      35 | 0x20C0      |        8384 |
|      36 | 0x000F      |          15 |
|      37 | 0x20C1      |        8385 |
|      38 | 0x003C      |          60 |
|      39 | 0x20C2      |        8386 |
|      40 | 0x20C3      |        8387 |
|      41 | 0x0028      |          40 |
|      42 | 0x0041      |          65 |
|      43 | 0x354CF     |      218319 |
|      44 | 0xFFFE7B60  |  4294867808 |
|      45 | 0xFFFFA072  |  4294942834 |
|      46 | 0x04AF      |        1199 |
|      47 | 0x35A8C     |      219788 |
|      48 | 0xFFFE7C9F  |  4294868127 |
|      49 | 0xFFFFA086  |  4294942854 |
|      50 | 0x3586B     |      219243 |
|      51 | 0xFFFE77E8  |  4294866920 |
|      52 | 0xFFFFA140  |  4294943040 |
|      53 | 0x09F4      |        2548 |
|      54 | 0x20C5      |        8389 |
|      55 | 0x20C4      |        8388 |
|      56 | 0x20C6      |        8390 |
|      57 | 0x20C7      |        8391 |
|      58 | 0x20C8      |        8392 |
|      59 | 0x0073      |         115 |
|      60 | 0x008B      |         139 |
|      61 | 0x20CA      |        8394 |
|      62 | 0x20CB      |        8395 |
|      63 | 0x20CC      |        8396 |
|      64 | 0x20CD      |        8397 |
|      65 | 0x20CE      |        8398 |
|      66 | 0x0014      |          20 |
|      67 | 0x20CF      |        8399 |
|      68 | 0x20D0      |        8400 |
|      69 | 0x20D1      |        8401 |
|      70 | 0x20D2      |        8402 |
|      71 | 0x358DD     |      219357 |
|      72 | 0xFFFE74A3  |  4294866083 |
|      73 | 0xFFFFA151  |  4294943057 |
|      74 | 0x0007      |           7 |
|      75 | 0x20D3      |        8403 |
|      76 | 0x20D4      |        8404 |
|      77 | 0x20D5      |        8405 |
|      78 | 0x20D6      |        8406 |
|      79 | 0x20D7      |        8407 |
|      80 | 0x20D8      |        8408 |
|      81 | 0x20D9      |        8409 |
|      82 | 0x0020      |          32 |
|      83 | 0x20DA      |        8410 |
|      84 | 0x20DB      |        8411 |
|      85 | 0x0010      |          16 |
|      86 | 0x20DC      |        8412 |
|      87 | 0x005A      |          90 |
|      88 | 0x20DD      |        8413 |
|      89 | 0x20DE      |        8414 |
|      90 | 0x20DF      |        8415 |
|      91 | 0x20E0      |        8416 |
|      92 | 0x20E1      |        8417 |
|      93 | 0x20E2      |        8418 |
|      94 | 0x20E3      |        8419 |
|      95 | 0x20E4      |        8420 |
|      96 | 0x20E5      |        8421 |
|      97 | 0x20E6      |        8422 |
|      98 | 0x20E7      |        8423 |
|      99 | 0x0024      |          36 |
|     100 | 0x20E8      |        8424 |
|     101 | 0x20E9      |        8425 |
|     102 | 0x20EA      |        8426 |
|     103 | 0x20EB      |        8427 |
|     104 | 0x20EC      |        8428 |
|     105 | 0x20ED      |        8429 |
|     106 | 0xFFFF31C6  |  4294914502 |
|     107 | 0xFFFE80C7  |  4294869191 |
|     108 | 0x1727      |        5927 |
|     109 | 0x0157      |         343 |
|     110 | 0x20EE      |        8430 |
|     111 | 0x20EF      |        8431 |
|     112 | 0x20F0      |        8432 |
|     113 | 0x20F1      |        8433 |
|     114 | 0x20F2      |        8434 |
|     115 | 0x20F3      |        8435 |
|     116 | 0x0050      |          80 |
|     117 | 0xFFFF6235  |  4294926901 |
|     118 | 0xFFFE7D06  |  4294868230 |
|     119 | 0x16F4      |        5876 |
|     120 | 0x04E7      |        1255 |
|     121 | 0x012C      |         300 |
|     122 | 0x20F4      |        8436 |
|     123 | 0x20F5      |        8437 |
|     124 | 0x20F6      |        8438 |
|     125 | 0x20F7      |        8439 |
|     126 | 0x0031      |          49 |
|     127 | 0x20F8      |        8440 |
|     128 | 0x20F9      |        8441 |
|     129 | 0x20FA      |        8442 |
|     130 | 0x008F      |         143 |
|     131 | 0x0015      |          21 |
|     132 | 0x20FB      |        8443 |
|     133 | 0x20FC      |        8444 |
|     134 | 0x20FD      |        8445 |
|     135 | 0x20FE      |        8446 |
|     136 | 0x0032      |          50 |
|     137 | 0x20FF      |        8447 |
|     138 | 0x0037      |          55 |
|     139 | 0x007F      |         127 |
|     140 | 0x021C      |         540 |
|     141 | 0x0865      |        2149 |
|     142 | 0x00B4      |         180 |
|     143 | 0x2100      |        8448 |
|     144 | 0x2101      |        8449 |
|     145 | 0xFFFF41E1  |  4294918625 |
|     146 | 0xFFFE764C  |  4294866508 |
|     147 | 0x1723      |        5923 |
|     148 | 0x0906      |        2310 |
|     149 | 0x2102      |        8450 |
|     150 | 0x2103      |        8451 |
|     151 | 0x2104      |        8452 |
|     152 | 0x2105      |        8453 |
|     153 | 0x2106      |        8454 |
|     154 | 0x2107      |        8455 |
|     155 | 0x2108      |        8456 |
|     156 | 0x2109      |        8457 |
|     157 | 0x0006      |           6 |
|     158 | 0x210A      |        8458 |
|     159 | 0x210B      |        8459 |
|     160 | 0x210C      |        8460 |
|     161 | 0x210D      |        8461 |
|     162 | 0x210E      |        8462 |
|     163 | 0x210F      |        8463 |
|     164 | 0x2110      |        8464 |
|     165 | 0x2111      |        8465 |
|     166 | 0x2112      |        8466 |
|     167 | 0x2113      |        8467 |
|     168 | 0x2114      |        8468 |
|     169 | 0x2115      |        8469 |
|     170 | 0x2116      |        8470 |
|     171 | 0x2117      |        8471 |
|     172 | 0x2118      |        8472 |
|     173 | 0x2119      |        8473 |
|     174 | 0x211A      |        8474 |
|     175 | 0x0005      |           5 |
|     176 | 0x211B      |        8475 |
|     177 | 0x211C      |        8476 |
|     178 | 0x211D      |        8477 |
|     179 | 0x211E      |        8478 |
|     180 | 0x211F      |        8479 |
|     181 | 0x2120      |        8480 |
|     182 | 0x2121      |        8481 |
|     183 | 0x2122      |        8482 |
|     184 | 0x2123      |        8483 |
|     185 | 0x2124      |        8484 |
|     186 | 0x2125      |        8485 |
|     187 | 0x2126      |        8486 |
|     188 | 0x2127      |        8487 |
|     189 | 0x2128      |        8488 |
|     190 | 0x2129      |        8489 |
|     191 | 0x212A      |        8490 |
|     192 | 0x212B      |        8491 |
|     193 | 0x212C      |        8492 |
|     194 | 0x212D      |        8493 |
|     195 | 0x009F      |         159 |
|     196 | 0x212E      |        8494 |
|     197 | 0x212F      |        8495 |
|     198 | 0x2130      |        8496 |
|     199 | 0x2131      |        8497 |
|     200 | 0x2132      |        8498 |
|     201 | 0x2133      |        8499 |
|     202 | 0x2134      |        8500 |
|     203 | 0x2135      |        8501 |
|     204 | 0x2136      |        8502 |
|     205 | 0x2137      |        8503 |
|     206 | 0x2138      |        8504 |
|     207 | 0x2139      |        8505 |
|     208 | 0x213A      |        8506 |
|     209 | 0x213B      |        8507 |
|     210 | 0x213C      |        8508 |
|     211 | 0x213D      |        8509 |
|     212 | 0x213E      |        8510 |
|     213 | 0x213F      |        8511 |
|     214 | 0x2140      |        8512 |
|     215 | 0x2141      |        8513 |
|     216 | 0x0095      |         149 |
|     217 | 0x2142      |        8514 |
|     218 | 0x2143      |        8515 |
|     219 | 0x2144      |        8516 |
|     220 | 0x2145      |        8517 |
|     221 | 0x2146      |        8518 |
|     222 | 0x2147      |        8519 |
|     223 | 0x2148      |        8520 |
|     224 | 0x2149      |        8521 |
|     225 | 0x214A      |        8522 |
|     226 | 0x214B      |        8523 |
|     227 | 0x214C      |        8524 |
|     228 | 0x214D      |        8525 |
|     229 | 0x214E      |        8526 |
|     230 | 0x214F      |        8527 |
|     231 | 0x2150      |        8528 |
|     232 | 0x2151      |        8529 |
|     233 | 0x2152      |        8530 |
|     234 | 0x2153      |        8531 |
|     235 | 0x2154      |        8532 |
|     236 | 0x2155      |        8533 |
|     237 | 0x2156      |        8534 |
|     238 | 0x2157      |        8535 |
|     239 | 0x2158      |        8536 |
|     240 | 0x2159      |        8537 |
|     241 | 0x215A      |        8538 |
|     242 | 0x215B      |        8539 |
|     243 | 0x215C      |        8540 |
|     244 | 0x215D      |        8541 |
|     245 | 0x215E      |        8542 |
|     246 | 0x215F      |        8543 |
|     247 | 0x2160      |        8544 |
|     248 | 0x00C9      |         201 |
|     249 | 0x002D      |          45 |
|     250 | 0x0002      |           2 |
|     251 | 0x00D7      |         215 |

## Events

### Event 65535

#### Metadata

| Field        | Value   |
|--------------|---------|
| Entrypoint   | 0x0000  |
| Data Size    | 1 bytes |
| Instructions | 1       |

```
      00 01 02 03 04 05 06 07  08 09 0A 0B 0C 0D 0E 0F
      -- -- -- -- -- -- -- --  -- -- -- -- -- -- -- --
0000: 00                                                .               
```

#### Opcodes

```
  0: 0x0000 [0x00] END_REQSTACK()
```

### Event 222

#### Metadata

| Field        | Value      |
|--------------|------------|
| Entrypoint   | 0x0001     |
| Data Size    | 1652 bytes |
| Instructions | 231        |

```
      00 01 02 03 04 05 06 07  08 09 0A 0B 0C 0D 0E 0F
      -- -- -- -- -- -- -- --  -- -- -- -- -- -- -- --
0000:    42 03 00 00 09 10 1A  1C 2A 46 01 38 00 80 AB   B.......*F.8...
0010: 09 AB 0F 92 01 3B 12 04  01 92 01 39 12 04 01 92  .....;.....9....
0020: 01 3A 12 04 01 94 01 F0  FF FF 7F BA F0 FF FF 7F  .:..............
0030: 01 80 02 80 03 80 04 80  27 10 3B 12 04 01 01 27  ........'.;....'
0040: 10 39 12 04 01 02 80 3B  12 04 01 80 39 12 04 01  .9.....;....9...
0050: 94 01 3B 12 04 01 94 01  39 12 04 01 29 10 3B 12  ..;.....9...).;.
0060: 04 01 18 29 10 39 12 04  01 14 29 10 39 12 04 01  ...).9....).9...
0070: 05 27 10 3B 12 04 01 19  27 10 F0 FF FF 7F 20 45  .'.;....'..... E
0080: 05 80 F0 FF FF 7F F0 FF  FF 7F 73 33 31 33 06 80  ..........s313..
0090: 1A FB 29 1C 07 80 52 05  80 F0 FF FF 7F F0 FF FF  ..)...R.........
00A0: 7F 73 33 31 33 27 10 39  12 04 01 15 45 05 80 F0  .s313'.9....E...
00B0: FF FF 7F F0 FF FF 7F 73  33 31 34 06 80 2B 39 12  .......s314..+9.
00C0: 04 01 08 80 1C 09 80 52  05 80 F0 FF FF 7F F0 FF  .......R........
00D0: FF 7F 73 33 31 34 59 01  3B 12 04 01 0A 80 4A 3B  ..s314Y.;.....J;
00E0: 12 04 01 39 12 04 01 4A  F0 FF FF 7F 39 12 04 01  ...9...J....9...
00F0: 45 05 80 F0 FF FF 7F F0  FF FF 7F 73 33 31 36 06  E..........s316.
0100: 80 2B 3B 12 04 01 0B 80  6F 76 3B 12 04 01 27 10  .+;.....ov;...'.
0110: 3B 12 04 01 1A 2A 10 39  12 04 01 2A 10 3B 12 04  ;....*.9...*.;..
0120: 01 52 05 80 F0 FF FF 7F  F0 FF FF 7F 73 33 31 36  .R..........s316
0130: 27 10 39 12 04 01 27 45  05 80 F0 FF FF 7F F0 FF  '.9...'E........
0140: FF 7F 73 33 31 35 06 80  2B 39 12 04 01 0C 80 23  ..s315..+9.....#
0150: 53 39 12 04 01 39 12 04  01 69 72 6F 30 52 05 80  S9...9...iro0R..
0160: F0 FF FF 7F F0 FF FF 7F  73 33 31 35 45 05 80 F0  ........s315E...
0170: FF FF 7F F0 FF FF 7F 73  33 31 37 06 80 2B 3B 12  .......s317..+;.
0180: 04 01 0D 80 23 52 05 80  F0 FF FF 7F F0 FF FF 7F  ....#R..........
0190: 73 33 31 37 27 10 F0 FF  FF 7F 22 45 05 80 F0 FF  s317'....."E....
01A0: FF 7F F0 FF FF 7F 73 33  31 38 06 80 2B 3B 12 04  ......s318..+;..
01B0: 01 0E 80 23 52 05 80 F0  FF FF 7F F0 FF FF 7F 73  ...#R..........s
01C0: 33 31 38 2A 10 F0 FF FF  7F 45 05 80 F0 FF FF 7F  318*.....E......
01D0: F0 FF FF 7F 73 33 31 39  06 80 2B 3B 12 04 01 0F  ....s319..+;....
01E0: 80 23 2B 3B 12 04 01 10  80 23 52 05 80 F0 FF FF  .#+;.....#R.....
01F0: 7F F0 FF FF 7F 73 33 31  39 1A 1C 2A 29 10 39 12  .....s319..*).9.
0200: 04 01 06 34 11 80 77 12  80 13 80 AB 09 7B F0 FF  ...4..w......{..
0210: FF 7F 29 10 F0 FF FF 7F  1B BA F0 FF FF 7F 14 80  ..).............
0220: 15 80 16 80 17 80 1C 18  80 27 10 3A 12 04 01 01  .........'.:....
0230: 27 10 3E 12 04 01 02 80  F0 FF FF 7F 80 3B 12 04  '.>..........;..
0240: 01 80 39 12 04 01 80 3A  12 04 01 80 3E 12 04 01  ..9....:....>...
0250: BA 39 12 04 01 19 80 1A  80 1B 80 1C 80 29 10 3A  .9...........).:
0260: 12 04 01 04 29 10 3E 12  04 01 11 4A 3E 12 04 01  ....).>....J>...
0270: 39 12 04 01 6C 3E 12 04  01 06 80 13 80 29 10 3A  9...l>.......).:
0280: 12 04 01 07 29 10 3B 12  04 01 06 29 10 3B 12 04  ....).;....).;..
0290: 01 0A 29 10 3B 12 04 01  0B 29 10 F0 FF FF 7F 1A  ..).;....)......
02A0: 29 10 39 12 04 01 10 94  01 3A 12 04 01 5C 00 1D  ).9......:...\..
02B0: 80 5C 01 1D 80 9A 1C 1E  80 7B 3B 12 04 01 7C 00  .\.......{;...|.
02C0: 39 12 04 01 9F 1F 80 F0  FF FF 7F F0 FF FF 7F 73  9..............s
02D0: 74 72 30 06 80 9F 1F 80  3B 12 04 01 3B 12 04 01  tr0.....;...;...
02E0: 73 74 72 30 06 80 45 05  80 F0 FF FF 7F F0 FF FF  str0..E.........
02F0: 7F 73 33 30 30 06 80 1C  20 80 2B 39 12 04 01 21  .s300... .+9...!
0300: 80 23 52 05 80 F0 FF FF  7F F0 FF FF 7F 73 33 30  .#R..........s30
0310: 30 29 10 3A 12 04 01 08  4A 3A 12 04 01 39 12 04  0).:....J:...9..
0320: 01 45 05 80 F0 FF FF 7F  F0 FF FF 7F 73 33 30 31  .E..........s301
0330: 06 80 9F 22 80 39 12 04  01 39 12 04 01 6D 61 69  ...".9...9...mai
0340: 6E 06 80 29 10 39 12 04  01 16 29 10 39 12 04 01  n..).9....).9...
0350: 18 4A 39 12 04 01 3A 12  04 01 55 05 80 F0 FF FF  .J9...:...U.....
0360: 7F F0 FF FF 7F 73 33 30  31 6F 76 39 12 04 01 27  .....s301ov9...'
0370: 10 39 12 04 01 19 1C 07  80 45 05 80 F0 FF FF 7F  .9.......E......
0380: F0 FF FF 7F 73 33 30 34  06 80 2A 10 39 12 04 01  ....s304..*.9...
0390: 2B 39 12 04 01 23 80 23  52 05 80 F0 FF FF 7F F0  +9...#.#R.......
03A0: FF FF 7F 73 33 30 34 45  05 80 F0 FF FF 7F F0 FF  ...s304E........
03B0: FF 7F 73 33 30 35 06 80  27 10 3A 12 04 01 0B 27  ..s305..'.:....'
03C0: 10 39 12 04 01 1B 27 10  45 12 04 01 05 27 10 46  .9....'.E....'.F
03D0: 12 04 01 05 2A 10 39 12  04 01 79 00 39 12 04 01  ....*.9...y.9...
03E0: 3E 12 04 01 1C 24 80 29  10 39 12 04 01 19 2B 39  >....$.).9....+9
03F0: 12 04 01 25 80 23 52 05  80 F0 FF FF 7F F0 FF FF  ...%.#R.........
0400: 7F 73 33 30 35 27 10 39  12 04 01 1C 27 10 3E 12  .s305'.9....'.>.
0410: 04 01 12 45 05 80 F0 FF  FF 7F F0 FF FF 7F 73 33  ...E..........s3
0420: 30 36 06 80 2A 10 39 12  04 01 2A 10 3E 12 04 01  06..*.9...*.>...
0430: 1C 26 80 52 05 80 F0 FF  FF 7F F0 FF FF 7F 73 33  .&.R..........s3
0440: 30 36 27 10 39 12 04 01  1C 27 10 3E 12 04 01 12  06'.9....'.>....
0450: 1C 18 80 45 05 80 F0 FF  FF 7F F0 FF FF 7F 73 33  ...E..........s3
0460: 30 39 06 80 2B 39 12 04  01 27 80 2A 10 39 12 04  09..+9...'.*.9..
0470: 01 2A 10 3E 12 04 01 1C  26 80 27 10 39 12 04 01  .*.>....&.'.9...
0480: 1C 27 10 3E 12 04 01 13  2A 10 39 12 04 01 29 10  .'.>....*.9...).
0490: 39 12 04 01 1D 52 05 80  F0 FF FF 7F F0 FF FF 7F  9....R..........
04A0: 73 33 30 39 2B 39 12 04  01 28 80 1C 1E 80 27 10  s309+9...(....'.
04B0: 39 12 04 01 1E 27 10 3E  12 04 01 14 1C 29 80 1A  9....'.>.....)..
04C0: 1C 2A 35 2A 80 78 27 10  3B 12 04 01 01 27 10 39  .*5*.x'.;....'.9
04D0: 12 04 01 02 BA 39 12 04  01 2B 80 2C 80 2D 80 2E  .....9...+.,.-..
04E0: 80 BA 3B 12 04 01 2F 80  30 80 31 80 2E 80 29 10  ..;.../.0.1...).
04F0: F0 FF FF 7F 1C BA F0 FF  FF 7F 32 80 33 80 34 80  ..........2.3.4.
0500: 35 80 80 3B 12 04 01 80  F0 FF FF 7F 29 10 F0 FF  5..;........)...
0510: FF 7F 1D 29 10 3B 12 04  01 1B 94 01 39 12 04 01  ...).;......9...
0520: 94 01 3B 12 04 01 94 01  F0 FF FF 7F 4A 39 12 04  ..;.........J9..
0530: 01 3B 12 04 01 1C 18 80  7C 01 39 12 04 01 29 10  .;......|.9...).
0540: 39 12 04 01 05 80 39 12  04 01 4A 3B 12 04 01 F0  9.....9...J;....
0550: FF FF 7F 4A F0 FF FF 7F  3B 12 04 01 45 05 80 F0  ...J....;...E...
0560: FF FF 7F F0 FF FF 7F 73  33 32 30 06 80 1A FB 29  .......s320....)
0570: 02 02 10 06 80 80 83 05  2B 3B 12 04 01 36 80 23  ........+;...6.#
0580: 01 96 05 02 02 10 13 80  80 96 05 2B 3B 12 04 01  ...........+;...
0590: 37 80 23 01 96 05 52 05  80 F0 FF FF 7F F0 FF FF  7.#...R.........
05A0: 7F 73 33 32 30 4A 3B 12  04 01 39 12 04 01 79 00  .s320J;...9...y.
05B0: F0 FF FF 7F 39 12 04 01  27 10 39 12 04 01 27 45  ....9...'.9...'E
05C0: 05 80 F0 FF FF 7F F0 FF  FF 7F 73 33 32 31 06 80  ..........s321..
05D0: 2B 39 12 04 01 38 80 23  52 05 80 F0 FF FF 7F F0  +9...8.#R.......
05E0: FF FF 7F 73 33 32 31 2A  10 39 12 04 01 7B F0 FF  ...s321*.9...{..
05F0: FF 7F 45 05 80 F0 FF FF  7F F0 FF FF 7F 73 33 35  ..E..........s35
0600: 30 06 80 2B 39 12 04 01  39 80 23 2B 39 12 04 01  0..+9...9.#+9...
0610: 3A 80 23 29 10 F0 FF FF  7F 23 52 05 80 F0 FF FF  :.#).....#R.....
0620: 7F F0 FF FF 7F 73 33 35  30 1A 5E 2A 7B F0 FF FF  .....s350.^*{...
0630: 7F 1C 1E 80 1C 26 80 AB  11 06 80 1C 13 80 02 00  .....&..........
0640: 00 06 80 00 49 06 30 21  00 5C 00 06 80 5C 01 06  ....I.0!.\...\..
0650: 80 5C 02 3B 80 5C 03 3C  80 9A 1A 1C 2A 1A 3D 2A  .\.;.\.<....*.=*
0660: 46 00 45 0A 80 F0 FF FF  7F F0 FF FF 7F 66 64 69  F.E..........fdi
0670: 32 06 80 21 00                                    2..!.           
```

#### Opcodes

```
  0: 0x0001 [0x42] SET_CLI_EVENT_CANCEL_DATA()
  1: 0x0002 [0x03] ExtData[1]->WorkLocal[0] = Work_Zone[9]
  2: 0x0007 [0x1A] CALL_SUBROUTINE(address=0x2A1C)
  3: 0x000A [0x46] CAMERA_CONTROL: Disable user control
  4: 0x000C [0x38] SET_CLIENT_EVENT_MODE(mode=19*)
  5: 0x000F [0xAB] EventEntity->UnknownFlag = 1 // Enable unknown flag
  6: 0x0011 [0xAB] EventEntity->CalibrationFlag = 1 // Set calibration flag
  7: 0x0013 [0x92] Clavauert (ID: 17044027/0x0104123B)->Render.Flags3 ^= 0x01
  8: 0x0019 [0x92] Salwa-Molwa (ID: 17044025/0x01041239)->Render.Flags3 ^= 0x01
  9: 0x001F [0x92] Mikilulu (ID: 17044026/0x0104123A)->Render.Flags3 ^= 0x01
 10: 0x0025 [0x94] LocalPlayer->Render.Flags3 ^= 0x01
 11: 0x002B [0xBA] SET_ENTITY_POSITION(entity_id=LocalPlayer, pos_x=220.369*, pos_z=-96.329*, pos_y=-25.339*, direction=101.3°*)
 12: 0x0038 [0x27] REQ_SET(priority=0x10, entity_id=Clavauert (ID: 17044027/0x0104123B), tag_num=0x01)
 13: 0x003F [0x27] REQ_SET(priority=0x10, entity_id=Salwa-Molwa (ID: 17044025/0x01041239), tag_num=0x02)
 14: 0x0046 [0x80] LOAD_WAIT(entity=Clavauert (ID: 17044027/0x0104123B))
 15: 0x004B [0x80] LOAD_WAIT(entity=Salwa-Molwa (ID: 17044025/0x01041239))
 16: 0x0050 [0x94] Clavauert (ID: 17044027/0x0104123B)->Render.Flags3 ^= 0x01
 17: 0x0056 [0x94] Salwa-Molwa (ID: 17044025/0x01041239)->Render.Flags3 ^= 0x01
 18: 0x005C [0x29] REQ_SET_WAIT(priority=0x10, entity_id=Clavauert (ID: 17044027/0x0104123B), tag_num=0x18)
 19: 0x0063 [0x29] REQ_SET_WAIT(priority=0x10, entity_id=Salwa-Molwa (ID: 17044025/0x01041239), tag_num=0x14)
 20: 0x006A [0x29] REQ_SET_WAIT(priority=0x10, entity_id=Salwa-Molwa (ID: 17044025/0x01041239), tag_num=0x05)
 21: 0x0071 [0x27] REQ_SET(priority=0x10, entity_id=Clavauert (ID: 17044027/0x0104123B), tag_num=0x19)
 22: 0x0078 [0x27] REQ_SET(priority=0x10, entity_id=LocalPlayer, tag_num=0x20)
 23: 0x007F [0x45] LOAD_SCHEDULED_TASK: Load scheduler "s313" with entities [LocalPlayer, LocalPlayer], work=[282*, 0*]
 24: 0x0090 [0x1A] CALL_SUBROUTINE(address=0x29FB)
 25: 0x0093 [0x1C] WAIT(120* ticks)
 26: 0x0096 [0x52] END_LOAD_SCHEDULER: End scheduler "s313" with entities [LocalPlayer, LocalPlayer], work=282*
 27: 0x00A5 [0x27] REQ_SET(priority=0x10, entity_id=Salwa-Molwa (ID: 17044025/0x01041239), tag_num=0x15)
 28: 0x00AC [0x45] LOAD_SCHEDULED_TASK: Load scheduler "s314" with entities [LocalPlayer, LocalPlayer], work=[282*, 0*]
 29: 0x00BD [0x2B] Salwa-Molwa (ID: 17044025/0x01041239) [8376*]:
    → "Pro`fe`sso`r!"
 30: 0x00C4 [0x1C] WAIT(100* ticks)
 31: 0x00C7 [0x52] END_LOAD_SCHEDULER: End scheduler "s314" with entities [LocalPlayer, LocalPlayer], work=282*
 32: 0x00D6 [0x59] UPDATE_ENTITY_DATA: Set Clavauert (ID: 17044027/0x0104123B) turn speed = 200*
 33: 0x00DE [0x4A] Clavauert (ID: 17044027/0x0104123B) looks at Salwa-Molwa (ID: 17044025/0x01041239)
 34: 0x00E7 [0x4A] LocalPlayer looks at Salwa-Molwa (ID: 17044025/0x01041239)
 35: 0x00F0 [0x45] LOAD_SCHEDULED_TASK: Load scheduler "s316" with entities [LocalPlayer, LocalPlayer], work=[282*, 0*]
 36: 0x0101 [0x2B] Clavauert (ID: 17044027/0x0104123B) [8377*]:
    → "Hm!?"
 37: 0x0108 [0x6F] WAIT_FRAME_DELAY: Yield until WaitTime reaches zero
 38: 0x0109 [0x76] CHECK_ENTITY_RENDER_FLAGS: Wait until Clavauert (ID: 17044027/0x0104123B) Render.Flags0 and Render.Flags3 conditions are met
 39: 0x010E [0x27] REQ_SET(priority=0x10, entity_id=Clavauert (ID: 17044027/0x0104123B), tag_num=0x1A)
 40: 0x0115 [0x2A] GET_REQ_LEVEL(level=16, entity_id=Salwa-Molwa (ID: 17044025/0x01041239))
 41: 0x011B [0x2A] GET_REQ_LEVEL(level=16, entity_id=Clavauert (ID: 17044027/0x0104123B))
 42: 0x0121 [0x52] END_LOAD_SCHEDULER: End scheduler "s316" with entities [LocalPlayer, LocalPlayer], work=282*
 43: 0x0130 [0x27] REQ_SET(priority=0x10, entity_id=Salwa-Molwa (ID: 17044025/0x01041239), tag_num=0x27)
 44: 0x0137 [0x45] LOAD_SCHEDULED_TASK: Load scheduler "s315" with entities [LocalPlayer, LocalPlayer], work=[282*, 0*]
 45: 0x0148 [0x2B] Salwa-Molwa (ID: 17044025/0x01041239) [8378*]:
    → "Mikilulu! She's-- I've-- It's-- We've-- Toad!"
 46: 0x014F [0x23] WAIT_FOR_DIALOG_INTERACTION
 47: 0x0150 [0x53] WAIT_SCHEDULER_TASK: Wait for scheduler "iro0" with entities [Salwa-Molwa (ID: 17044025/0x01041239), Salwa-Molwa (ID: 17044025/0x01041239)]
 48: 0x015D [0x52] END_LOAD_SCHEDULER: End scheduler "s315" with entities [LocalPlayer, LocalPlayer], work=282*
 49: 0x016C [0x45] LOAD_SCHEDULED_TASK: Load scheduler "s317" with entities [LocalPlayer, LocalPlayer], work=[282*, 0*]
 50: 0x017D [0x2B] Clavauert (ID: 17044027/0x0104123B) [8379*]:
    → "Well, if it isn't Salwa-Molwa..."
 51: 0x0184 [0x23] WAIT_FOR_DIALOG_INTERACTION
 52: 0x0185 [0x52] END_LOAD_SCHEDULER: End scheduler "s317" with entities [LocalPlayer, LocalPlayer], work=282*
 53: 0x0194 [0x27] REQ_SET(priority=0x10, entity_id=LocalPlayer, tag_num=0x22)
 54: 0x019B [0x45] LOAD_SCHEDULED_TASK: Load scheduler "s318" with entities [LocalPlayer, LocalPlayer], work=[282*, 0*]
 55: 0x01AC [0x2B] Clavauert (ID: 17044027/0x0104123B) [8380*]:
    → "<Player> and I were just about to set off in search of you."
 56: 0x01B3 [0x23] WAIT_FOR_DIALOG_INTERACTION
 57: 0x01B4 [0x52] END_LOAD_SCHEDULER: End scheduler "s318" with entities [LocalPlayer, LocalPlayer], work=282*
 58: 0x01C3 [0x2A] GET_REQ_LEVEL(level=16, entity_id=LocalPlayer)
 59: 0x01C9 [0x45] LOAD_SCHEDULED_TASK: Load scheduler "s319" with entities [LocalPlayer, LocalPlayer], work=[282*, 0*]
 60: 0x01DA [0x2B] Clavauert (ID: 17044027/0x0104123B) [8381*]:
    → "However, it seems that you, in turn, have found us. All's well that ends well, I suppose."
 61: 0x01E1 [0x23] WAIT_FOR_DIALOG_INTERACTION
 62: 0x01E2 [0x2B] Clavauert (ID: 17044027/0x0104123B) [8382*]:
    → "Now, why don't you calm down and explain to us what has befallen you...starting with that unfortunate occurrence in Wajaom."
 63: 0x01E9 [0x23] WAIT_FOR_DIALOG_INTERACTION
 64: 0x01EA [0x52] END_LOAD_SCHEDULER: End scheduler "s319" with entities [LocalPlayer, LocalPlayer], work=282*
 65: 0x01F9 [0x1A] CALL_SUBROUTINE(address=0x2A1C)
 66: 0x01FC [0x29] REQ_SET_WAIT(priority=0x10, entity_id=Salwa-Molwa (ID: 17044025/0x01041239), tag_num=0x06)
 67: 0x0203 [0x34] LOAD_UNLOAD_ZONE(zone_id=51*)
 68: 0x0206 [0x77] SET_EVENT_TIME_WEATHER(hour=14*, weather=1*)
 69: 0x020B [0xAB] EventEntity->UnknownFlag = 1 // Enable unknown flag
 70: 0x020D [0x7B] LocalPlayer stops talking
 71: 0x0212 [0x29] REQ_SET_WAIT(priority=0x10, entity_id=LocalPlayer, tag_num=0x1B)
 72: 0x0219 [0xBA] SET_ENTITY_POSITION(entity_id=LocalPlayer, pos_x=679.063*, pos_z=206.785*, pos_y=-15.827*, direction=79.1°*)
 73: 0x0226 [0x1C] WAIT(10* ticks)
 74: 0x0229 [0x27] REQ_SET(priority=0x10, entity_id=Mikilulu (ID: 17044026/0x0104123A), tag_num=0x01)
 75: 0x0230 [0x27] REQ_SET(priority=0x10, entity_id=Unnamed NPC (ID: 17044030/0x0104123E), tag_num=0x02)
 76: 0x0237 [0x80] LOAD_WAIT(entity=LocalPlayer)
 77: 0x023C [0x80] LOAD_WAIT(entity=Clavauert (ID: 17044027/0x0104123B))
 78: 0x0241 [0x80] LOAD_WAIT(entity=Salwa-Molwa (ID: 17044025/0x01041239))
 79: 0x0246 [0x80] LOAD_WAIT(entity=Mikilulu (ID: 17044026/0x0104123A))
 80: 0x024B [0x80] LOAD_WAIT(entity=Unnamed NPC (ID: 17044030/0x0104123E))
 81: 0x0250 [0xBA] SET_ENTITY_POSITION(entity_id=Salwa-Molwa (ID: 17044025/0x01041239), pos_x=680.695*, pos_z=206.174*, pos_y=-15.865*, direction=90.0°*)
 82: 0x025D [0x29] REQ_SET_WAIT(priority=0x10, entity_id=Mikilulu (ID: 17044026/0x0104123A), tag_num=0x04)
 83: 0x0264 [0x29] REQ_SET_WAIT(priority=0x10, entity_id=Unnamed NPC (ID: 17044030/0x0104123E), tag_num=0x11)
 84: 0x026B [0x4A] Unnamed NPC (ID: 17044030/0x0104123E) looks at Salwa-Molwa (ID: 17044025/0x01041239)
 85: 0x0274 [0x6C] FADE_ENTITY_COLOR(entity_id=Unnamed NPC (ID: 17044030/0x0104123E), end_alpha=0*, fade_time=1*)
 86: 0x027D [0x29] REQ_SET_WAIT(priority=0x10, entity_id=Mikilulu (ID: 17044026/0x0104123A), tag_num=0x07)
 87: 0x0284 [0x29] REQ_SET_WAIT(priority=0x10, entity_id=Clavauert (ID: 17044027/0x0104123B), tag_num=0x06)
 88: 0x028B [0x29] REQ_SET_WAIT(priority=0x10, entity_id=Clavauert (ID: 17044027/0x0104123B), tag_num=0x0A)
 89: 0x0292 [0x29] REQ_SET_WAIT(priority=0x10, entity_id=Clavauert (ID: 17044027/0x0104123B), tag_num=0x0B)
 90: 0x0299 [0x29] REQ_SET_WAIT(priority=0x10, entity_id=LocalPlayer, tag_num=0x1A)
 91: 0x02A0 [0x29] REQ_SET_WAIT(priority=0x10, entity_id=Salwa-Molwa (ID: 17044025/0x01041239), tag_num=0x10)
 92: 0x02A7 [0x94] Mikilulu (ID: 17044026/0x0104123A)->Render.Flags3 ^= 0x01
 93: 0x02AD [0x5C] MUSIC_CONTROL: Set Idle (Day) music to song 123*
 94: 0x02B1 [0x5C] MUSIC_CONTROL: Set Idle (Night) music to song 123*
 95: 0x02B5 [0x9A] WAIT_MUSIC_SERVER()
 96: 0x02B6 [0x1C] WAIT(30* ticks)
 97: 0x02B9 [0x7B] Clavauert (ID: 17044027/0x0104123B) stops talking
 98: 0x02BE [0x7C] Salwa-Molwa (ID: 17044025/0x01041239)->Render.Flags2 |= 0x00
 99: 0x02C4 [0x9F] LOAD_SCHEDULED_TASK_ALT: Load scheduler "str0" with entities [LocalPlayer, LocalPlayer], work=[235*, 0*]
100: 0x02D5 [0x9F] LOAD_SCHEDULED_TASK_ALT: Load scheduler "str0" with entities [Clavauert (ID: 17044027/0x0104123B), Clavauert (ID: 17044027/0x0104123B)], work=[235*, 0*]
101: 0x02E6 [0x45] LOAD_SCHEDULED_TASK: Load scheduler "s300" with entities [LocalPlayer, LocalPlayer], work=[282*, 0*]
102: 0x02F7 [0x1C] WAIT(240* ticks)
103: 0x02FA [0x2B] Salwa-Molwa (ID: 17044025/0x01041239) [8383*]:
    → "You see, you two were still sleeping when I recovered from the spell. I looked around to see if I couldn't spot the fiend that had put us in this predicament..."
104: 0x0301 [0x23] WAIT_FOR_DIALOG_INTERACTION
105: 0x0302 [0x52] END_LOAD_SCHEDULER: End scheduler "s300" with entities [LocalPlayer, LocalPlayer], work=282*
106: 0x0311 [0x29] REQ_SET_WAIT(priority=0x10, entity_id=Mikilulu (ID: 17044026/0x0104123A), tag_num=0x08)
107: 0x0318 [0x4A] Mikilulu (ID: 17044026/0x0104123A) looks at Salwa-Molwa (ID: 17044025/0x01041239)
108: 0x0321 [0x45] LOAD_SCHEDULED_TASK: Load scheduler "s301" with entities [LocalPlayer, LocalPlayer], work=[282*, 0*]
109: 0x0332 [0x9F] LOAD_SCHEDULED_TASK_ALT: Load scheduler "main" with entities [Salwa-Molwa (ID: 17044025/0x01041239), Salwa-Molwa (ID: 17044025/0x01041239)], work=[255*, 0*]
110: 0x0343 [0x29] REQ_SET_WAIT(priority=0x10, entity_id=Salwa-Molwa (ID: 17044025/0x01041239), tag_num=0x16)
111: 0x034A [0x29] REQ_SET_WAIT(priority=0x10, entity_id=Salwa-Molwa (ID: 17044025/0x01041239), tag_num=0x18)
112: 0x0351 [0x4A] Salwa-Molwa (ID: 17044025/0x01041239) looks at Mikilulu (ID: 17044026/0x0104123A)
113: 0x035A [0x55] WAIT_LOAD_SCHEDULER: Wait for scheduler "s301" with entities [LocalPlayer, LocalPlayer], work=282*
114: 0x0369 [0x6F] WAIT_FRAME_DELAY: Yield until WaitTime reaches zero
115: 0x036A [0x76] CHECK_ENTITY_RENDER_FLAGS: Wait until Salwa-Molwa (ID: 17044025/0x01041239) Render.Flags0 and Render.Flags3 conditions are met
116: 0x036F [0x27] REQ_SET(priority=0x10, entity_id=Salwa-Molwa (ID: 17044025/0x01041239), tag_num=0x19)
117: 0x0376 [0x1C] WAIT(120* ticks)
118: 0x0379 [0x45] LOAD_SCHEDULED_TASK: Load scheduler "s304" with entities [LocalPlayer, LocalPlayer], work=[282*, 0*]
119: 0x038A [0x2A] GET_REQ_LEVEL(level=16, entity_id=Salwa-Molwa (ID: 17044025/0x01041239))
120: 0x0390 [0x2B] Salwa-Molwa (ID: 17044025/0x01041239) [8384*]:
    → "...when I saw my precious Mikilulu..."
121: 0x0397 [0x23] WAIT_FOR_DIALOG_INTERACTION
122: 0x0398 [0x52] END_LOAD_SCHEDULER: End scheduler "s304" with entities [LocalPlayer, LocalPlayer], work=282*
123: 0x03A7 [0x45] LOAD_SCHEDULED_TASK: Load scheduler "s305" with entities [LocalPlayer, LocalPlayer], work=[282*, 0*]
124: 0x03B8 [0x27] REQ_SET(priority=0x10, entity_id=Mikilulu (ID: 17044026/0x0104123A), tag_num=0x0B)
125: 0x03BF [0x27] REQ_SET(priority=0x10, entity_id=Salwa-Molwa (ID: 17044025/0x01041239), tag_num=0x1B)
126: 0x03C6 [0x27] REQ_SET(priority=0x10, entity_id=Unnamed NPC (ID: 17044037/0x01041245), tag_num=0x05)
127: 0x03CD [0x27] REQ_SET(priority=0x10, entity_id=Unnamed NPC (ID: 17044038/0x01041246), tag_num=0x05)
128: 0x03D4 [0x2A] GET_REQ_LEVEL(level=16, entity_id=Salwa-Molwa (ID: 17044025/0x01041239))
129: 0x03DA [0x79] Salwa-Molwa (ID: 17044025/0x01041239) looks at Unnamed NPC (ID: 17044030/0x0104123E) (Basic look)
130: 0x03E4 [0x1C] WAIT(15* ticks)
131: 0x03E7 [0x29] REQ_SET_WAIT(priority=0x10, entity_id=Salwa-Molwa (ID: 17044025/0x01041239), tag_num=0x19)
132: 0x03EE [0x2B] Salwa-Molwa (ID: 17044025/0x01041239) [8385*]:
    → "...being turned into a frog!"
133: 0x03F5 [0x23] WAIT_FOR_DIALOG_INTERACTION
134: 0x03F6 [0x52] END_LOAD_SCHEDULER: End scheduler "s305" with entities [LocalPlayer, LocalPlayer], work=282*
135: 0x0405 [0x27] REQ_SET(priority=0x10, entity_id=Salwa-Molwa (ID: 17044025/0x01041239), tag_num=0x1C)
136: 0x040C [0x27] REQ_SET(priority=0x10, entity_id=Unnamed NPC (ID: 17044030/0x0104123E), tag_num=0x12)
137: 0x0413 [0x45] LOAD_SCHEDULED_TASK: Load scheduler "s306" with entities [LocalPlayer, LocalPlayer], work=[282*, 0*]
138: 0x0424 [0x2A] GET_REQ_LEVEL(level=16, entity_id=Salwa-Molwa (ID: 17044025/0x01041239))
139: 0x042A [0x2A] GET_REQ_LEVEL(level=16, entity_id=Unnamed NPC (ID: 17044030/0x0104123E))
140: 0x0430 [0x1C] WAIT(60* ticks)
141: 0x0433 [0x52] END_LOAD_SCHEDULER: End scheduler "s306" with entities [LocalPlayer, LocalPlayer], work=282*
142: 0x0442 [0x27] REQ_SET(priority=0x10, entity_id=Salwa-Molwa (ID: 17044025/0x01041239), tag_num=0x1C)
143: 0x0449 [0x27] REQ_SET(priority=0x10, entity_id=Unnamed NPC (ID: 17044030/0x0104123E), tag_num=0x12)
144: 0x0450 [0x1C] WAIT(10* ticks)
145: 0x0453 [0x45] LOAD_SCHEDULED_TASK: Load scheduler "s309" with entities [LocalPlayer, LocalPlayer], work=[282*, 0*]
146: 0x0464 [0x2B] Salwa-Molwa (ID: 17044025/0x01041239) [8386*]:
    → "I tried to catch her so you could help break the curse, but for some reason, she started hopping off in the direction of Mamook!"
147: 0x046B [0x2A] GET_REQ_LEVEL(level=16, entity_id=Salwa-Molwa (ID: 17044025/0x01041239))
148: 0x0471 [0x2A] GET_REQ_LEVEL(level=16, entity_id=Unnamed NPC (ID: 17044030/0x0104123E))
149: 0x0477 [0x1C] WAIT(60* ticks)
150: 0x047A [0x27] REQ_SET(priority=0x10, entity_id=Salwa-Molwa (ID: 17044025/0x01041239), tag_num=0x1C)
151: 0x0481 [0x27] REQ_SET(priority=0x10, entity_id=Unnamed NPC (ID: 17044030/0x0104123E), tag_num=0x13)
152: 0x0488 [0x2A] GET_REQ_LEVEL(level=16, entity_id=Salwa-Molwa (ID: 17044025/0x01041239))
153: 0x048E [0x29] REQ_SET_WAIT(priority=0x10, entity_id=Salwa-Molwa (ID: 17044025/0x01041239), tag_num=0x1D)
154: 0x0495 [0x52] END_LOAD_SCHEDULER: End scheduler "s309" with entities [LocalPlayer, LocalPlayer], work=282*
155: 0x04A4 [0x2B] Salwa-Molwa (ID: 17044025/0x01041239) [8387*]:
    → "I knew <Player> would take care of you, Professor, so I left you two there in the woods to chase after Miki."
156: 0x04AB [0x1C] WAIT(30* ticks)
157: 0x04AE [0x27] REQ_SET(priority=0x10, entity_id=Salwa-Molwa (ID: 17044025/0x01041239), tag_num=0x1E)
158: 0x04B5 [0x27] REQ_SET(priority=0x10, entity_id=Unnamed NPC (ID: 17044030/0x0104123E), tag_num=0x14)
159: 0x04BC [0x1C] WAIT(40* ticks)
160: 0x04BF [0x1A] CALL_SUBROUTINE(address=0x2A1C)
161: 0x04C2 [0x35] LOAD_ZONE_NO_CLOSE(zone_id=65*)
162: 0x04C5 [0x78] ENABLE_GAME_TIMER_RESET_WEATHER()
163: 0x04C6 [0x27] REQ_SET(priority=0x10, entity_id=Clavauert (ID: 17044027/0x0104123B), tag_num=0x01)
164: 0x04CD [0x27] REQ_SET(priority=0x10, entity_id=Salwa-Molwa (ID: 17044025/0x01041239), tag_num=0x02)
165: 0x04D4 [0xBA] SET_ENTITY_POSITION(entity_id=Salwa-Molwa (ID: 17044025/0x01041239), pos_x=218.319*, pos_z=-99.488*, pos_y=-24.462*, direction=105.4°*)
166: 0x04E1 [0xBA] SET_ENTITY_POSITION(entity_id=Clavauert (ID: 17044027/0x0104123B), pos_x=219.788*, pos_z=-99.169*, pos_y=-24.442*, direction=105.4°*)
167: 0x04EE [0x29] REQ_SET_WAIT(priority=0x10, entity_id=LocalPlayer, tag_num=0x1C)
168: 0x04F5 [0xBA] SET_ENTITY_POSITION(entity_id=LocalPlayer, pos_x=219.243*, pos_z=-100.376*, pos_y=-24.256*, direction=223.9°*)
169: 0x0502 [0x80] LOAD_WAIT(entity=Clavauert (ID: 17044027/0x0104123B))
170: 0x0507 [0x80] LOAD_WAIT(entity=LocalPlayer)
171: 0x050C [0x29] REQ_SET_WAIT(priority=0x10, entity_id=LocalPlayer, tag_num=0x1D)
172: 0x0513 [0x29] REQ_SET_WAIT(priority=0x10, entity_id=Clavauert (ID: 17044027/0x0104123B), tag_num=0x1B)
173: 0x051A [0x94] Salwa-Molwa (ID: 17044025/0x01041239)->Render.Flags3 ^= 0x01
174: 0x0520 [0x94] Clavauert (ID: 17044027/0x0104123B)->Render.Flags3 ^= 0x01
175: 0x0526 [0x94] LocalPlayer->Render.Flags3 ^= 0x01
176: 0x052C [0x4A] Salwa-Molwa (ID: 17044025/0x01041239) looks at Clavauert (ID: 17044027/0x0104123B)
177: 0x0535 [0x1C] WAIT(10* ticks)
178: 0x0538 [0x7C] Salwa-Molwa (ID: 17044025/0x01041239)->Render.Flags2 |= 0x01
179: 0x053E [0x29] REQ_SET_WAIT(priority=0x10, entity_id=Salwa-Molwa (ID: 17044025/0x01041239), tag_num=0x05)
180: 0x0545 [0x80] LOAD_WAIT(entity=Salwa-Molwa (ID: 17044025/0x01041239))
181: 0x054A [0x4A] Clavauert (ID: 17044027/0x0104123B) looks at LocalPlayer
182: 0x0553 [0x4A] LocalPlayer looks at Clavauert (ID: 17044027/0x0104123B)
183: 0x055C [0x45] LOAD_SCHEDULED_TASK: Load scheduler "s320" with entities [LocalPlayer, LocalPlayer], work=[282*, 0*]
184: 0x056D [0x1A] CALL_SUBROUTINE(address=0x29FB)
185: 0x0570 [0x02] IF !(Work_Zone[2] == 0*) GOTO 0x0583
186: 0x0578 [0x2B] Clavauert (ID: 17044027/0x0104123B) [8389*]:
    → "(You must have the eyes of a pugil, <Player>. His account of the events is absolutely nothing like what you claim to have seen!)"
187: 0x057F [0x23] WAIT_FOR_DIALOG_INTERACTION
188: 0x0580 [0x01] GOTO 0x0596
189: 0x0583 [0x02] IF !(Work_Zone[2] == 1*) GOTO 0x0596
190: 0x058B [0x2B] Clavauert (ID: 17044027/0x0104123B) [8388*]:
    → "So it was just as you explained, <Player>."
191: 0x0592 [0x23] WAIT_FOR_DIALOG_INTERACTION
192: 0x0593 [0x01] GOTO 0x0596

SUBROUTINE_0596:
193: 0x0596 [0x52] END_LOAD_SCHEDULER: End scheduler "s320" with entities [LocalPlayer, LocalPlayer], work=282*
194: 0x05A5 [0x4A] Clavauert (ID: 17044027/0x0104123B) looks at Salwa-Molwa (ID: 17044025/0x01041239)
195: 0x05AE [0x79] LocalPlayer looks at Salwa-Molwa (ID: 17044025/0x01041239) (Basic look)
196: 0x05B8 [0x27] REQ_SET(priority=0x10, entity_id=Salwa-Molwa (ID: 17044025/0x01041239), tag_num=0x27)
197: 0x05BF [0x45] LOAD_SCHEDULED_TASK: Load scheduler "s321" with entities [LocalPlayer, LocalPlayer], work=[282*, 0*]
198: 0x05D0 [0x2B] Salwa-Molwa (ID: 17044025/0x01041239) [8390*]:
    → "Anyway, I tried my best to catch my poor sweetheart, but she was just too slick and slimy."
199: 0x05D7 [0x23] WAIT_FOR_DIALOG_INTERACTION
200: 0x05D8 [0x52] END_LOAD_SCHEDULER: End scheduler "s321" with entities [LocalPlayer, LocalPlayer], work=282*
201: 0x05E7 [0x2A] GET_REQ_LEVEL(level=16, entity_id=Salwa-Molwa (ID: 17044025/0x01041239))
202: 0x05ED [0x7B] LocalPlayer stops talking
203: 0x05F2 [0x45] LOAD_SCHEDULED_TASK: Load scheduler "s350" with entities [LocalPlayer, LocalPlayer], work=[282*, 0*]
204: 0x0603 [0x2B] Salwa-Molwa (ID: 17044025/0x01041239) [8391*]:
    → "And before I knew it, I found myself in the middle of the forest. Miki had stopped near a tree and I was just about to sneak up and grab her..."
205: 0x060A [0x23] WAIT_FOR_DIALOG_INTERACTION
206: 0x060B [0x2B] Salwa-Molwa (ID: 17044025/0x01041239) [8392*]:
    → "...when I saw her jump towards a shadow that was probably a terrible monster! It was a Poroggo, I tell you!"
207: 0x0612 [0x23] WAIT_FOR_DIALOG_INTERACTION
208: 0x0613 [0x29] REQ_SET_WAIT(priority=0x10, entity_id=LocalPlayer, tag_num=0x23)
209: 0x061A [0x52] END_LOAD_SCHEDULER: End scheduler "s350" with entities [LocalPlayer, LocalPlayer], work=282*
210: 0x0629 [0x1A] CALL_SUBROUTINE(address=0x2A5E)
211: 0x062C [0x7B] LocalPlayer stops talking
212: 0x0631 [0x1C] WAIT(30* ticks)
213: 0x0634 [0x1C] WAIT(60* ticks)
214: 0x0637 [0xAB] EventEntity->DespawnValue = 0* // Set despawn value
215: 0x063B [0x1C] WAIT(1* ticks)
216: 0x063E [0x02] IF !(ExtData[1]->WorkLocal[0] == 0*) GOTO 0x0649
217: 0x0646 [0x30] SET_UCOFF_CONTINUE_ZERO()
218: 0x0647 [0x21] END_EVENT
219: 0x0648 [0x00] END_REQSTACK()
220: 0x0649 [0x5C] MUSIC_CONTROL: Set Idle (Day) music to song 0*
221: 0x064D [0x5C] MUSIC_CONTROL: Set Idle (Night) music to song 0*
222: 0x0651 [0x5C] MUSIC_CONTROL: Set Combat (Solo) music to song 115*
223: 0x0655 [0x5C] MUSIC_CONTROL: Set Combat (Party) music to song 139*
224: 0x0659 [0x9A] WAIT_MUSIC_SERVER()
225: 0x065A [0x1A] CALL_SUBROUTINE(address=0x2A1C)
226: 0x065D [0x1A] CALL_SUBROUTINE(address=0x2A3D)
227: 0x0660 [0x46] CAMERA_CONTROL: Restore default settings
228: 0x0662 [0x45] LOAD_SCHEDULED_TASK: Load scheduler "fdi2" with entities [LocalPlayer, LocalPlayer], work=[200*, 0*]
229: 0x0673 [0x21] END_EVENT
230: 0x0674 [0x00] END_REQSTACK()
```

### Event 227

#### Metadata

| Field        | Value      |
|--------------|------------|
| Entrypoint   | 0x0675     |
| Data Size    | 2158 bytes |
| Instructions | 296        |

```
      00 01 02 03 04 05 06 07  08 09 0A 0B 0C 0D 0E 0F
      -- -- -- -- -- -- -- --  -- -- -- -- -- -- -- --
0670:                42 43 00  43 01 03 00 00 09 10 02       BC.C.......
0680: 00 00 13 80 00 9B 06 45  0A 80 F0 FF FF 7F F0 FF  .......E........
0690: FF 7F 66 64 69 31 06 80  1A 5E 2A 46 01 38 00 80  ..fdi1...^*F.8..
06A0: 4E 00 F0 FF FF 7F 5C 00  1D 80 5C 01 1D 80 9A AB  N.....\...\.....
06B0: 09 AB 0F 92 01 3B 12 04  01 92 01 39 12 04 01 94  .....;.....9....
06C0: 01 F0 FF FF 7F 27 10 39  12 04 01 02 27 10 3B 12  .....'.9....'.;.
06D0: 04 01 01 BA 3B 12 04 01  2F 80 30 80 31 80 2E 80  ....;.../.0.1...
06E0: BA F0 FF FF 7F 32 80 33  80 34 80 35 80 BA 39 12  .....2.3.4.5..9.
06F0: 04 01 2B 80 2C 80 2D 80  2E 80 80 3B 12 04 01 80  ..+.,.-....;....
0700: 39 12 04 01 4A 3B 12 04  01 39 12 04 01 4A 39 12  9...J;...9...J9.
0710: 04 01 3B 12 04 01 27 10  F0 FF FF 7F 24 1C 26 80  ..;...'.....$.&.
0720: 45 05 80 F0 FF FF 7F F0  FF FF 7F 73 33 32 32 06  E..........s322.
0730: 80 1A 3D 2A 2B 3B 12 04  01 3D 80 23 2B 3B 12 04  ..=*+;...=.#+;..
0740: 01 3E 80 23 52 05 80 F0  FF FF 7F F0 FF FF 7F 73  .>.#R..........s
0750: 33 32 32 45 05 80 F0 FF  FF 7F F0 FF FF 7F 73 33  322E..........s3
0760: 32 33 06 80 2B 39 12 04  01 3F 80 23 52 05 80 F0  23..+9...?.#R...
0770: FF FF 7F F0 FF FF 7F 73  33 32 33 27 10 39 12 04  .......s323'.9..
0780: 01 17 45 05 80 F0 FF FF  7F F0 FF FF 7F 73 33 32  ..E..........s32
0790: 34 06 80 2B 39 12 04 01  40 80 23 2A 10 39 12 04  4..+9...@.#*.9..
07A0: 01 66 29 80 39 12 04 01  39 12 04 01 69 72 6F 30  .f).9...9...iro0
07B0: 2B 39 12 04 01 41 80 23  53 39 12 04 01 39 12 04  +9...A.#S9...9..
07C0: 01 69 72 6F 30 52 05 80  F0 FF FF 7F F0 FF FF 7F  .iro0R..........
07D0: 73 33 32 34 6E 3B 12 04  01 42 80 99 3B 12 04 01  s324n;...B..;...
07E0: 45 05 80 F0 FF FF 7F F0  FF FF 7F 73 33 32 35 06  E..........s325.
07F0: 80 2B 3B 12 04 01 43 80  23 52 05 80 F0 FF FF 7F  .+;...C.#R......
0800: F0 FF FF 7F 73 33 32 35  1A 1C 2A 7C 00 39 12 04  ....s325..*|.9..
0810: 01 4E 01 3B 12 04 01 4E  01 F0 FF FF 7F 7B 39 12  .N.;...N.....{9.
0820: 04 01 29 10 39 12 04 01  06 27 10 3E 12 04 01 02  ..).9....'.>....
0830: 29 10 39 12 04 01 22 29  10 3E 12 04 01 1A 80 3E  ).9...").>.....>
0840: 12 04 01 79 00 39 12 04  01 3E 12 04 01 27 10 3E  ...y.9...>...'.>
0850: 12 04 01 1B 27 10 39 12  04 01 23 45 05 80 F0 FF  ....'.9...#E....
0860: FF 7F F0 FF FF 7F 73 33  32 36 06 80 2B 39 12 04  ......s326..+9..
0870: 01 44 80 23 52 05 80 F0  FF FF 7F F0 FF FF 7F 73  .D.#R..........s
0880: 33 32 36 1A DA 29 29 10  39 12 04 01 24 27 10 3C  326..)).9...$'.<
0890: 12 04 01 08 29 10 3C 12  04 01 09 80 3C 12 04 01  ....).<.....<...
08A0: 27 10 39 12 04 01 25 45  05 80 F0 FF FF 7F F0 FF  '.9...%E........
08B0: FF 7F 73 33 32 37 06 80  2B 39 12 04 01 45 80 23  ..s327..+9...E.#
08C0: 52 05 80 F0 FF FF 7F F0  FF FF 7F 73 33 32 37 2A  R..........s327*
08D0: 10 39 12 04 01 27 10 3C  12 04 01 0A 27 10 39 12  .9...'.<....'.9.
08E0: 04 01 26 45 05 80 F0 FF  FF 7F F0 FF FF 7F 73 33  ..&E..........s3
08F0: 32 38 06 80 2B 39 12 04  01 46 80 23 55 05 80 F0  28..+9...F.#U...
0900: FF FF 7F F0 FF FF 7F 73  33 32 38 7A 00 39 12 04  .......s328z.9..
0910: 01 27 10 3E 12 04 01 06  4E 00 3B 12 04 01 4E 00  .'.>....N.;...N.
0920: F0 FF FF 7F BA 39 12 04  01 2B 80 2C 80 2D 80 2E  .....9...+.,.-..
0930: 80 BA F0 FF FF 7F 47 80  48 80 49 80 35 80 4A 39  ......G.H.I.5.J9
0940: 12 04 01 3B 12 04 01 4A  3B 12 04 01 39 12 04 01  ...;...J;...9...
0950: 4A F0 FF FF 7F 39 12 04  01 29 10 39 12 04 01 05  J....9...).9....
0960: 80 3B 12 04 01 80 39 12  04 01 7C 01 39 12 04 01  .;....9...|.9...
0970: 6E 3B 12 04 01 4A 80 99  3B 12 04 01 45 05 80 F0  n;...J..;...E...
0980: FF FF 7F F0 FF FF 7F 73  33 33 30 06 80 1A FB 29  .......s330....)
0990: 2B 3B 12 04 01 4B 80 23  52 05 80 F0 FF FF 7F F0  +;...K.#R.......
09A0: FF FF 7F 73 33 33 30 45  05 80 F0 FF FF 7F F0 FF  ...s330E........
09B0: FF 7F 73 33 33 31 06 80  2B 39 12 04 01 4C 80 23  ..s331..+9...L.#
09C0: 52 05 80 F0 FF FF 7F F0  FF FF 7F 73 33 33 31 45  R..........s331E
09D0: 05 80 F0 FF FF 7F F0 FF  FF 7F 73 33 33 32 06 80  ..........s332..
09E0: 2B 3B 12 04 01 4D 80 23  2B 3B 12 04 01 4E 80 23  +;...M.#+;...N.#
09F0: 2B 3B 12 04 01 4F 80 23  52 05 80 F0 FF FF 7F F0  +;...O.#R.......
0A00: FF FF 7F 73 33 33 32 7B  3B 12 04 01 45 05 80 F0  ...s332{;...E...
0A10: FF FF 7F F0 FF FF 7F 73  33 33 33 06 80 2B 3B 12  .......s333..+;.
0A20: 04 01 50 80 23 2B 3B 12  04 01 51 80 23 6E 3B 12  ..P.#+;...Q.#n;.
0A30: 04 01 52 80 99 3B 12 04  01 2B 3B 12 04 01 53 80  ..R..;...+;...S.
0A40: 23 52 05 80 F0 FF FF 7F  F0 FF FF 7F 73 33 33 33  #R..........s333
0A50: 45 05 80 F0 FF FF 7F F0  FF FF 7F 73 33 33 34 06  E..........s334.
0A60: 80 2B 3B 12 04 01 54 80  23 4A 3B 12 04 01 F0 FF  .+;...T.#J;.....
0A70: FF 7F 4A F0 FF FF 7F 3B  12 04 01 79 00 39 12 04  ..J....;...y.9..
0A80: 01 F0 FF FF 7F 6F 76 3B  12 04 01 6E 3B 12 04 01  .....ov;...n;...
0A90: 55 80 99 3B 12 04 01 2B  3B 12 04 01 56 80 23 6E  U..;...+;...V.#n
0AA0: F0 FF FF 7F 4A 80 99 F0  FF FF 7F 1C 57 80 52 05  ....J.......W.R.
0AB0: 80 F0 FF FF 7F F0 FF FF  7F 73 33 33 34 7B 3B 12  .........s334{;.
0AC0: 04 01 4A 39 12 04 01 3B  12 04 01 45 05 80 F0 FF  ..J9...;...E....
0AD0: FF 7F F0 FF FF 7F 73 33  33 35 06 80 2B 3B 12 04  ......s335..+;..
0AE0: 01 58 80 23 27 10 39 12  04 01 27 2B 39 12 04 01  .X.#'.9...'+9...
0AF0: 59 80 23 4A 3B 12 04 01  39 12 04 01 6F 76 3B 12  Y.#J;...9...ov;.
0B00: 04 01 52 05 80 F0 FF FF  7F F0 FF FF 7F 73 33 33  ..R..........s33
0B10: 35 2A 10 39 12 04 01 7B  39 12 04 01 1C 1E 80 27  5*.9...{9......'
0B20: 10 39 12 04 01 29 45 05  80 F0 FF FF 7F F0 FF FF  .9...)E.........
0B30: 7F 73 33 33 36 06 80 2B  39 12 04 01 5A 80 23 2A  .s336..+9...Z.#*
0B40: 10 39 12 04 01 29 10 39  12 04 01 2A 27 10 39 12  .9...).9...*'.9.
0B50: 04 01 2D 2B 39 12 04 01  5B 80 23 2A 10 39 12 04  ..-+9...[.#*.9..
0B60: 01 52 05 80 F0 FF FF 7F  F0 FF FF 7F 73 33 33 36  .R..........s336
0B70: 79 00 39 12 04 01 3B 12  04 01 45 05 80 F0 FF FF  y.9...;...E.....
0B80: 7F F0 FF FF 7F 73 33 33  37 06 80 2B 3B 12 04 01  .....s337..+;...
0B90: 5C 80 23 52 05 80 F0 FF  FF 7F F0 FF FF 7F 73 33  \.#R..........s3
0BA0: 33 37 45 05 80 F0 FF FF  7F F0 FF FF 7F 73 33 33  37E..........s33
0BB0: 38 06 80 2B 3B 12 04 01  5D 80 23 52 05 80 F0 FF  8..+;...].#R....
0BC0: FF 7F F0 FF FF 7F 73 33  33 38 5D 06 80 07 80 29  ......s338]....)
0BD0: 10 44 12 04 01 02 27 10  3B 12 04 01 1C 45 05 80  .D....'.;....E..
0BE0: F0 FF FF 7F F0 FF FF 7F  73 33 33 39 06 80 2B 3B  ........s339..+;
0BF0: 12 04 01 5E 80 23 2A 10  3B 12 04 01 5C 00 3C 80  ...^.#*.;...\.<.
0C00: 5C 01 3C 80 9A 27 10 3B  12 04 01 1D 27 10 F0 FF  \.<..'.;....'...
0C10: FF 7F 25 27 10 39 12 04  01 2B 2B 3B 12 04 01 5F  ..%'.9...++;..._
0C20: 80 2A 10 3B 12 04 01 52  05 80 F0 FF FF 7F F0 FF  .*.;...R........
0C30: FF 7F 73 33 33 39 27 10  3B 12 04 01 1E 27 10 F0  ..s339'.;....'..
0C40: FF FF 7F 26 45 05 80 F0  FF FF 7F F0 FF FF 7F 73  ...&E..........s
0C50: 33 34 32 06 80 29 10 39  12 04 01 06 80 39 12 04  342..).9.....9..
0C60: 01 27 10 39 12 04 01 2C  2A 10 3B 12 04 01 2B 3B  .'.9...,*.;...+;
0C70: 12 04 01 60 80 23 52 05  80 F0 FF FF 7F F0 FF FF  ...`.#R.........
0C80: 7F 73 33 34 32 2A 10 39  12 04 01 4A 39 12 04 01  .s342*.9...J9...
0C90: 3B 12 04 01 2A 10 F0 FF  FF 7F 4A F0 FF FF 7F 3B  ;...*.....J....;
0CA0: 12 04 01 45 05 80 F0 FF  FF 7F F0 FF FF 7F 73 33  ...E..........s3
0CB0: 34 30 06 80 29 10 3B 12  04 01 1F 4A 3B 12 04 01  40..).;....J;...
0CC0: 39 12 04 01 79 00 F0 FF  FF 7F 39 12 04 01 2B 3B  9...y.....9...+;
0CD0: 12 04 01 61 80 23 52 05  80 F0 FF FF 7F F0 FF FF  ...a.#R.........
0CE0: 7F 73 33 34 30 27 10 39  12 04 01 18 45 05 80 F0  .s340'.9....E...
0CF0: FF FF 7F F0 FF FF 7F 73  33 34 31 06 80 2B 39 12  .......s341..+9.
0D00: 04 01 62 80 23 2A 10 39  12 04 01 52 05 80 F0 FF  ..b.#*.9...R....
0D10: FF 7F F0 FF FF 7F 73 33  34 31 6E 3B 12 04 01 63  ......s341n;...c
0D20: 80 99 3B 12 04 01 1C 18  80 45 05 80 F0 FF FF 7F  ..;......E......
0D30: F0 FF FF 7F 73 33 34 33  06 80 2B 3B 12 04 01 64  ....s343..+;...d
0D40: 80 23 27 10 39 12 04 01  2E 2B 39 12 04 01 65 80  .#'.9....+9...e.
0D50: 23 2A 10 39 12 04 01 52  05 80 F0 FF FF 7F F0 FF  #*.9...R........
0D60: FF 7F 73 33 34 33 7B 39  12 04 01 6E 39 12 04 01  ..s343{9...n9...
0D70: 52 80 99 39 12 04 01 45  05 80 F0 FF FF 7F F0 FF  R..9...E........
0D80: FF 7F 73 33 34 34 06 80  2B 39 12 04 01 66 80 23  ..s344..+9...f.#
0D90: 52 05 80 F0 FF FF 7F F0  FF FF 7F 73 33 34 34 6E  R..........s344n
0DA0: 3B 12 04 01 42 80 99 3B  12 04 01 79 00 39 12 04  ;...B..;...y.9..
0DB0: 01 3B 12 04 01 45 05 80  F0 FF FF 7F F0 FF FF 7F  .;...E..........
0DC0: 73 33 34 35 06 80 2B 3B  12 04 01 67 80 23 52 05  s345..+;...g.#R.
0DD0: 80 F0 FF FF 7F F0 FF FF  7F 73 33 34 35 1A DA 29  .........s345..)
0DE0: 77 12 80 13 80 45 05 80  F0 FF FF 7F F0 FF FF 7F  w....E..........
0DF0: 73 33 34 36 06 80 1A B9  29 2B 3B 12 04 01 68 80  s346....)+;...h.
0E00: 23 52 05 80 F0 FF FF 7F  F0 FF FF 7F 73 33 34 36  #R..........s346
0E10: 1A DA 29 78 79 00 F0 FF  FF 7F 3B 12 04 01 45 05  ..)xy.....;...E.
0E20: 80 F0 FF FF 7F F0 FF FF  7F 73 33 34 38 06 80 1A  .........s348...
0E30: B9 29 2B 3B 12 04 01 69  80 23 4A 3B 12 04 01 F0  .)+;...i.#J;....
0E40: FF FF 7F 4A 39 12 04 01  F0 FF FF 7F 6F 76 3B 12  ...J9.......ov;.
0E50: 04 01 6F 76 39 12 04 01  52 05 80 F0 FF FF 7F F0  ..ov9...R.......
0E60: FF FF 7F 73 33 34 38 6E  F0 FF FF 7F 4A 80 99 F0  ...s348n....J...
0E70: FF FF 7F 1C 07 80 27 10  F0 FF FF 7F 27 27 10 39  ......'.....''.9
0E80: 12 04 01 2F 27 10 3B 12  04 01 20 45 05 80 F0 FF  .../'.;... E....
0E90: FF 7F F0 FF FF 7F 73 33  34 39 06 80 1C 20 80 52  ......s349... .R
0EA0: 05 80 F0 FF FF 7F F0 FF  FF 7F 73 33 34 39 5D 06  ..........s349].
0EB0: 80 07 80 1A 1C 2A 1C 1E  80 AB 0A AB 10 5C 00 06  .....*.......\..
0EC0: 80 5C 01 06 80 5C 02 3B  80 5C 03 3C 80 9A 46 00  .\...\.;.\.<..F.
0ED0: 45 0A 80 F0 FF FF 7F F0  FF FF 7F 66 64 69 32 06  E..........fdi2.
0EE0: 80 21 00                                          .!.             
```

#### Opcodes

```
  0: 0x0675 [0x42] SET_CLI_EVENT_CANCEL_DATA()
  1: 0x0676 [0x43] SEND_EVENT_UPDATE: Send pending tag to server (packet 0x005B)
  2: 0x0678 [0x43] SEND_EVENT_UPDATE: Check pending flag (skip if not pending)
  3: 0x067A [0x03] ExtData[1]->WorkLocal[0] = Work_Zone[9]
  4: 0x067F [0x02] IF !(ExtData[1]->WorkLocal[0] == 1*) GOTO 0x069B
  5: 0x0687 [0x45] LOAD_SCHEDULED_TASK: Load scheduler "fdi1" with entities [LocalPlayer, LocalPlayer], work=[200*, 0*]
  6: 0x0698 [0x1A] CALL_SUBROUTINE(address=0x2A5E)
  7: 0x069B [0x46] CAMERA_CONTROL: Disable user control
  8: 0x069D [0x38] SET_CLIENT_EVENT_MODE(mode=19*)
  9: 0x06A0 [0x4E] SET_ENTITY_HIDE_FLAG: Show LocalPlayer
 10: 0x06A6 [0x5C] MUSIC_CONTROL: Set Idle (Day) music to song 123*
 11: 0x06AA [0x5C] MUSIC_CONTROL: Set Idle (Night) music to song 123*
 12: 0x06AE [0x9A] WAIT_MUSIC_SERVER()
 13: 0x06AF [0xAB] EventEntity->UnknownFlag = 1 // Enable unknown flag
 14: 0x06B1 [0xAB] EventEntity->CalibrationFlag = 1 // Set calibration flag
 15: 0x06B3 [0x92] Clavauert (ID: 17044027/0x0104123B)->Render.Flags3 ^= 0x01
 16: 0x06B9 [0x92] Salwa-Molwa (ID: 17044025/0x01041239)->Render.Flags3 ^= 0x01
 17: 0x06BF [0x94] LocalPlayer->Render.Flags3 ^= 0x01
 18: 0x06C5 [0x27] REQ_SET(priority=0x10, entity_id=Salwa-Molwa (ID: 17044025/0x01041239), tag_num=0x02)
 19: 0x06CC [0x27] REQ_SET(priority=0x10, entity_id=Clavauert (ID: 17044027/0x0104123B), tag_num=0x01)
 20: 0x06D3 [0xBA] SET_ENTITY_POSITION(entity_id=Clavauert (ID: 17044027/0x0104123B), pos_x=219.788*, pos_z=-99.169*, pos_y=-24.442*, direction=105.4°*)
 21: 0x06E0 [0xBA] SET_ENTITY_POSITION(entity_id=LocalPlayer, pos_x=219.243*, pos_z=-100.376*, pos_y=-24.256*, direction=223.9°*)
 22: 0x06ED [0xBA] SET_ENTITY_POSITION(entity_id=Salwa-Molwa (ID: 17044025/0x01041239), pos_x=218.319*, pos_z=-99.488*, pos_y=-24.462*, direction=105.4°*)
 23: 0x06FA [0x80] LOAD_WAIT(entity=Clavauert (ID: 17044027/0x0104123B))
 24: 0x06FF [0x80] LOAD_WAIT(entity=Salwa-Molwa (ID: 17044025/0x01041239))
 25: 0x0704 [0x4A] Clavauert (ID: 17044027/0x0104123B) looks at Salwa-Molwa (ID: 17044025/0x01041239)
 26: 0x070D [0x4A] Salwa-Molwa (ID: 17044025/0x01041239) looks at Clavauert (ID: 17044027/0x0104123B)
 27: 0x0716 [0x27] REQ_SET(priority=0x10, entity_id=LocalPlayer, tag_num=0x24)
 28: 0x071D [0x1C] WAIT(60* ticks)
 29: 0x0720 [0x45] LOAD_SCHEDULED_TASK: Load scheduler "s322" with entities [LocalPlayer, LocalPlayer], work=[282*, 0*]
 30: 0x0731 [0x1A] CALL_SUBROUTINE(address=0x2A3D)
 31: 0x0734 [0x2B] Clavauert (ID: 17044027/0x0104123B) [8394*]:
    → "Hmmm... An interesting story..."
 32: 0x073B [0x23] WAIT_FOR_DIALOG_INTERACTION
 33: 0x073C [0x2B] Clavauert (ID: 17044027/0x0104123B) [8395*]:
    → "Though one aspect of the tale makes little sense--what was this female acquaintance of yours doing in the Wajaom Woodlands in the first place?"
 34: 0x0743 [0x23] WAIT_FOR_DIALOG_INTERACTION
 35: 0x0744 [0x52] END_LOAD_SCHEDULER: End scheduler "s322" with entities [LocalPlayer, LocalPlayer], work=282*
 36: 0x0753 [0x45] LOAD_SCHEDULED_TASK: Load scheduler "s323" with entities [LocalPlayer, LocalPlayer], work=[282*, 0*]
 37: 0x0764 [0x2B] Salwa-Molwa (ID: 17044025/0x01041239) [8396*]:
    → "I don't know. She didn't tell me... I can only guess it was because she was worried about the experiment."
 38: 0x076B [0x23] WAIT_FOR_DIALOG_INTERACTION
 39: 0x076C [0x52] END_LOAD_SCHEDULER: End scheduler "s323" with entities [LocalPlayer, LocalPlayer], work=282*
 40: 0x077B [0x27] REQ_SET(priority=0x10, entity_id=Salwa-Molwa (ID: 17044025/0x01041239), tag_num=0x17)
 41: 0x0782 [0x45] LOAD_SCHEDULED_TASK: Load scheduler "s324" with entities [LocalPlayer, LocalPlayer], work=[282*, 0*]
 42: 0x0793 [0x2B] Salwa-Molwa (ID: 17044025/0x01041239) [8397*]:
    → "Oh! Why did it have to be Miki!? I was the one that was supposed to be transformed!"
 43: 0x079A [0x23] WAIT_FOR_DIALOG_INTERACTION
 44: 0x079B [0x2A] GET_REQ_LEVEL(level=16, entity_id=Salwa-Molwa (ID: 17044025/0x01041239))
 45: 0x07A1 [0x66] LOAD_EXT_SCHEDULER_MAIN: Load scheduler "iro0" with entities [Salwa-Molwa (ID: 17044025/0x01041239), Salwa-Molwa (ID: 17044025/0x01041239)], work=40*
 46: 0x07B0 [0x2B] Salwa-Molwa (ID: 17044025/0x01041239) [8398*]:
    → "How scared she must be..."
 47: 0x07B7 [0x23] WAIT_FOR_DIALOG_INTERACTION
 48: 0x07B8 [0x53] WAIT_SCHEDULER_TASK: Wait for scheduler "iro0" with entities [Salwa-Molwa (ID: 17044025/0x01041239), Salwa-Molwa (ID: 17044025/0x01041239)]
 49: 0x07C5 [0x52] END_LOAD_SCHEDULER: End scheduler "s324" with entities [LocalPlayer, LocalPlayer], work=282*
 50: 0x07D4 [0x6E] Clavauert (ID: 17044027/0x0104123B) uses emote 20*
 51: 0x07DB [0x99] Wait for Clavauert (ID: 17044027/0x0104123B) animation to complete
 52: 0x07E0 [0x45] LOAD_SCHEDULED_TASK: Load scheduler "s325" with entities [LocalPlayer, LocalPlayer], work=[282*, 0*]
 53: 0x07F1 [0x2B] Clavauert (ID: 17044027/0x0104123B) [8399*]:
    → "Calm down, calm down. Now, tell us what happened next."
 54: 0x07F8 [0x23] WAIT_FOR_DIALOG_INTERACTION
 55: 0x07F9 [0x52] END_LOAD_SCHEDULER: End scheduler "s325" with entities [LocalPlayer, LocalPlayer], work=282*
 56: 0x0808 [0x1A] CALL_SUBROUTINE(address=0x2A1C)
 57: 0x080B [0x7C] Salwa-Molwa (ID: 17044025/0x01041239)->Render.Flags2 |= 0x00
 58: 0x0811 [0x4E] SET_ENTITY_HIDE_FLAG: Hide Clavauert (ID: 17044027/0x0104123B)
 59: 0x0817 [0x4E] SET_ENTITY_HIDE_FLAG: Hide LocalPlayer
 60: 0x081D [0x7B] Salwa-Molwa (ID: 17044025/0x01041239) stops talking
 61: 0x0822 [0x29] REQ_SET_WAIT(priority=0x10, entity_id=Salwa-Molwa (ID: 17044025/0x01041239), tag_num=0x06)
 62: 0x0829 [0x27] REQ_SET(priority=0x10, entity_id=Unnamed NPC (ID: 17044030/0x0104123E), tag_num=0x02)
 63: 0x0830 [0x29] REQ_SET_WAIT(priority=0x10, entity_id=Salwa-Molwa (ID: 17044025/0x01041239), tag_num=0x22)
 64: 0x0837 [0x29] REQ_SET_WAIT(priority=0x10, entity_id=Unnamed NPC (ID: 17044030/0x0104123E), tag_num=0x1A)
 65: 0x083E [0x80] LOAD_WAIT(entity=Unnamed NPC (ID: 17044030/0x0104123E))
 66: 0x0843 [0x79] Salwa-Molwa (ID: 17044025/0x01041239) looks at Unnamed NPC (ID: 17044030/0x0104123E) (Basic look)
 67: 0x084D [0x27] REQ_SET(priority=0x10, entity_id=Unnamed NPC (ID: 17044030/0x0104123E), tag_num=0x1B)
 68: 0x0854 [0x27] REQ_SET(priority=0x10, entity_id=Salwa-Molwa (ID: 17044025/0x01041239), tag_num=0x23)
 69: 0x085B [0x45] LOAD_SCHEDULED_TASK: Load scheduler "s326" with entities [LocalPlayer, LocalPlayer], work=[282*, 0*]
 70: 0x086C [0x2B] Salwa-Molwa (ID: 17044025/0x01041239) [8400*]:
    → "Well, after what seemed like hours of chasing, the Poroggo finally ducked away into this cave..."
 71: 0x0873 [0x23] WAIT_FOR_DIALOG_INTERACTION
 72: 0x0874 [0x52] END_LOAD_SCHEDULER: End scheduler "s326" with entities [LocalPlayer, LocalPlayer], work=282*
 73: 0x0883 [0x1A] CALL_SUBROUTINE(address=0x29DA)
 74: 0x0886 [0x29] REQ_SET_WAIT(priority=0x10, entity_id=Salwa-Molwa (ID: 17044025/0x01041239), tag_num=0x24)
 75: 0x088D [0x27] REQ_SET(priority=0x10, entity_id=Unnamed NPC (ID: 17044028/0x0104123C), tag_num=0x08)
 76: 0x0894 [0x29] REQ_SET_WAIT(priority=0x10, entity_id=Unnamed NPC (ID: 17044028/0x0104123C), tag_num=0x09)
 77: 0x089B [0x80] LOAD_WAIT(entity=Unnamed NPC (ID: 17044028/0x0104123C))
 78: 0x08A0 [0x27] REQ_SET(priority=0x10, entity_id=Salwa-Molwa (ID: 17044025/0x01041239), tag_num=0x25)
 79: 0x08A7 [0x45] LOAD_SCHEDULED_TASK: Load scheduler "s327" with entities [LocalPlayer, LocalPlayer], work=[282*, 0*]
 80: 0x08B8 [0x2B] Salwa-Molwa (ID: 17044025/0x01041239) [8401*]:
    → "...and that's when I lost him..."
 81: 0x08BF [0x23] WAIT_FOR_DIALOG_INTERACTION
 82: 0x08C0 [0x52] END_LOAD_SCHEDULER: End scheduler "s327" with entities [LocalPlayer, LocalPlayer], work=282*
 83: 0x08CF [0x2A] GET_REQ_LEVEL(level=16, entity_id=Salwa-Molwa (ID: 17044025/0x01041239))
 84: 0x08D5 [0x27] REQ_SET(priority=0x10, entity_id=Unnamed NPC (ID: 17044028/0x0104123C), tag_num=0x0A)
 85: 0x08DC [0x27] REQ_SET(priority=0x10, entity_id=Salwa-Molwa (ID: 17044025/0x01041239), tag_num=0x26)
 86: 0x08E3 [0x45] LOAD_SCHEDULED_TASK: Load scheduler "s328" with entities [LocalPlayer, LocalPlayer], work=[282*, 0*]
 87: 0x08F4 [0x2B] Salwa-Molwa (ID: 17044025/0x01041239) [8402*]:
    → "I thought about searching for the frogman myself, but this place is crawling with hungry-looking Mamool Ja, and I wasn't planning on being a snack for those snakes."
 88: 0x08FB [0x23] WAIT_FOR_DIALOG_INTERACTION
 89: 0x08FC [0x55] WAIT_LOAD_SCHEDULER: Wait for scheduler "s328" with entities [LocalPlayer, LocalPlayer], work=282*
 90: 0x090B [0x7A] VM_CONTROL: Reset VM for Salwa-Molwa (ID: 17044025/0x01041239)
 91: 0x0911 [0x27] REQ_SET(priority=0x10, entity_id=Unnamed NPC (ID: 17044030/0x0104123E), tag_num=0x06)
 92: 0x0918 [0x4E] SET_ENTITY_HIDE_FLAG: Show Clavauert (ID: 17044027/0x0104123B)
 93: 0x091E [0x4E] SET_ENTITY_HIDE_FLAG: Show LocalPlayer
 94: 0x0924 [0xBA] SET_ENTITY_POSITION(entity_id=Salwa-Molwa (ID: 17044025/0x01041239), pos_x=218.319*, pos_z=-99.488*, pos_y=-24.462*, direction=105.4°*)
 95: 0x0931 [0xBA] SET_ENTITY_POSITION(entity_id=LocalPlayer, pos_x=219.357*, pos_z=-101.213*, pos_y=-24.239*, direction=223.9°*)
 96: 0x093E [0x4A] Salwa-Molwa (ID: 17044025/0x01041239) looks at Clavauert (ID: 17044027/0x0104123B)
 97: 0x0947 [0x4A] Clavauert (ID: 17044027/0x0104123B) looks at Salwa-Molwa (ID: 17044025/0x01041239)
 98: 0x0950 [0x4A] LocalPlayer looks at Salwa-Molwa (ID: 17044025/0x01041239)
 99: 0x0959 [0x29] REQ_SET_WAIT(priority=0x10, entity_id=Salwa-Molwa (ID: 17044025/0x01041239), tag_num=0x05)
100: 0x0960 [0x80] LOAD_WAIT(entity=Clavauert (ID: 17044027/0x0104123B))
101: 0x0965 [0x80] LOAD_WAIT(entity=Salwa-Molwa (ID: 17044025/0x01041239))
102: 0x096A [0x7C] Salwa-Molwa (ID: 17044025/0x01041239)->Render.Flags2 |= 0x01
103: 0x0970 [0x6E] Clavauert (ID: 17044027/0x0104123B) uses emote 7*
104: 0x0977 [0x99] Wait for Clavauert (ID: 17044027/0x0104123B) animation to complete
105: 0x097C [0x45] LOAD_SCHEDULED_TASK: Load scheduler "s330" with entities [LocalPlayer, LocalPlayer], work=[282*, 0*]
106: 0x098D [0x1A] CALL_SUBROUTINE(address=0x29FB)
107: 0x0990 [0x2B] Clavauert (ID: 17044027/0x0104123B) [8403*]:
    → "Understood. We are left with no other choice than to locate and rescue this Mikilulu."
108: 0x0997 [0x23] WAIT_FOR_DIALOG_INTERACTION
109: 0x0998 [0x52] END_LOAD_SCHEDULER: End scheduler "s330" with entities [LocalPlayer, LocalPlayer], work=282*
110: 0x09A7 [0x45] LOAD_SCHEDULED_TASK: Load scheduler "s331" with entities [LocalPlayer, LocalPlayer], work=[282*, 0*]
111: 0x09B8 [0x2B] Salwa-Molwa (ID: 17044025/0x01041239) [8404*]:
    → "But how, Professor?"
112: 0x09BF [0x23] WAIT_FOR_DIALOG_INTERACTION
113: 0x09C0 [0x52] END_LOAD_SCHEDULER: End scheduler "s331" with entities [LocalPlayer, LocalPlayer], work=282*
114: 0x09CF [0x45] LOAD_SCHEDULED_TASK: Load scheduler "s332" with entities [LocalPlayer, LocalPlayer], work=[282*, 0*]
115: 0x09E0 [0x2B] Clavauert (ID: 17044027/0x0104123B) [8405*]:
    → "My recent studies of Poroggo behavior have led me to the following conclusions regarding the removal of their curses."
116: 0x09E7 [0x23] WAIT_FOR_DIALOG_INTERACTION
117: 0x09E8 [0x2B] Clavauert (ID: 17044027/0x0104123B) [8406*]:
    → "The first is that the effects of the frog song will simply wear off after time."
118: 0x09EF [0x23] WAIT_FOR_DIALOG_INTERACTION
119: 0x09F0 [0x2B] Clavauert (ID: 17044027/0x0104123B) [8407*]:
    → "If we can catch your lady friend, then we need simply wait in a safe location until she returns to normal."
120: 0x09F7 [0x23] WAIT_FOR_DIALOG_INTERACTION
121: 0x09F8 [0x52] END_LOAD_SCHEDULER: End scheduler "s332" with entities [LocalPlayer, LocalPlayer], work=282*
122: 0x0A07 [0x7B] Clavauert (ID: 17044027/0x0104123B) stops talking
123: 0x0A0C [0x45] LOAD_SCHEDULED_TASK: Load scheduler "s333" with entities [LocalPlayer, LocalPlayer], work=[282*, 0*]
124: 0x0A1D [0x2B] Clavauert (ID: 17044027/0x0104123B) [8408*]:
    → "The second of my conclusions is a tad more dramatic."
125: 0x0A24 [0x23] WAIT_FOR_DIALOG_INTERACTION
126: 0x0A25 [0x2B] Clavauert (ID: 17044027/0x0104123B) [8409*]:
    → "In theory, the spell of the frog song can also be broken..."
127: 0x0A2C [0x23] WAIT_FOR_DIALOG_INTERACTION
128: 0x0A2D [0x6E] Clavauert (ID: 17044027/0x0104123B) uses emote 32*
129: 0x0A34 [0x99] Wait for Clavauert (ID: 17044027/0x0104123B) animation to complete
130: 0x0A39 [0x2B] Clavauert (ID: 17044027/0x0104123B) [8410*]:
    → "...by slaying its caster."
131: 0x0A40 [0x23] WAIT_FOR_DIALOG_INTERACTION
132: 0x0A41 [0x52] END_LOAD_SCHEDULER: End scheduler "s333" with entities [LocalPlayer, LocalPlayer], work=282*
133: 0x0A50 [0x45] LOAD_SCHEDULED_TASK: Load scheduler "s334" with entities [LocalPlayer, LocalPlayer], work=[282*, 0*]
134: 0x0A61 [0x2B] Clavauert (ID: 17044027/0x0104123B) [8411*]:
    → "While I hope it will not come to this, we may be forced to resort to violence if the Poroggo in question is not as cooperative as we may like."
135: 0x0A68 [0x23] WAIT_FOR_DIALOG_INTERACTION
136: 0x0A69 [0x4A] Clavauert (ID: 17044027/0x0104123B) looks at LocalPlayer
137: 0x0A72 [0x4A] LocalPlayer looks at Clavauert (ID: 17044027/0x0104123B)
138: 0x0A7B [0x79] Salwa-Molwa (ID: 17044025/0x01041239) looks at LocalPlayer (Basic look)
139: 0x0A85 [0x6F] WAIT_FRAME_DELAY: Yield until WaitTime reaches zero
140: 0x0A86 [0x76] CHECK_ENTITY_RENDER_FLAGS: Wait until Clavauert (ID: 17044027/0x0104123B) Render.Flags0 and Render.Flags3 conditions are met
141: 0x0A8B [0x6E] Clavauert (ID: 17044027/0x0104123B) uses emote 16*
142: 0x0A92 [0x99] Wait for Clavauert (ID: 17044027/0x0104123B) animation to complete
143: 0x0A97 [0x2B] Clavauert (ID: 17044027/0x0104123B) [8412*]:
    → "Now, I am a man of science. I could never resort to killing a fellow living creature. That is where you come in, <Player>."
144: 0x0A9E [0x23] WAIT_FOR_DIALOG_INTERACTION
145: 0x0A9F [0x6E] LocalPlayer uses emote 7*
146: 0x0AA6 [0x99] Wait for LocalPlayer animation to complete
147: 0x0AAB [0x1C] WAIT(90* ticks)
148: 0x0AAE [0x52] END_LOAD_SCHEDULER: End scheduler "s334" with entities [LocalPlayer, LocalPlayer], work=282*
149: 0x0ABD [0x7B] Clavauert (ID: 17044027/0x0104123B) stops talking
150: 0x0AC2 [0x4A] Salwa-Molwa (ID: 17044025/0x01041239) looks at Clavauert (ID: 17044027/0x0104123B)
151: 0x0ACB [0x45] LOAD_SCHEDULED_TASK: Load scheduler "s335" with entities [LocalPlayer, LocalPlayer], work=[282*, 0*]
152: 0x0ADC [0x2B] Clavauert (ID: 17044027/0x0104123B) [8413*]:
    → "Now, as for distinguishing 'your' toad from a more common specimen..."
153: 0x0AE3 [0x23] WAIT_FOR_DIALOG_INTERACTION
154: 0x0AE4 [0x27] REQ_SET(priority=0x10, entity_id=Salwa-Molwa (ID: 17044025/0x01041239), tag_num=0x27)
155: 0x0AEB [0x2B] Salwa-Molwa (ID: 17044025/0x01041239) [8414*]:
    → "Professor! I think I can tell which one is my Miki!"
156: 0x0AF2 [0x23] WAIT_FOR_DIALOG_INTERACTION
157: 0x0AF3 [0x4A] Clavauert (ID: 17044027/0x0104123B) looks at Salwa-Molwa (ID: 17044025/0x01041239)
158: 0x0AFC [0x6F] WAIT_FRAME_DELAY: Yield until WaitTime reaches zero
159: 0x0AFD [0x76] CHECK_ENTITY_RENDER_FLAGS: Wait until Clavauert (ID: 17044027/0x0104123B) Render.Flags0 and Render.Flags3 conditions are met
160: 0x0B02 [0x52] END_LOAD_SCHEDULER: End scheduler "s335" with entities [LocalPlayer, LocalPlayer], work=282*
161: 0x0B11 [0x2A] GET_REQ_LEVEL(level=16, entity_id=Salwa-Molwa (ID: 17044025/0x01041239))
162: 0x0B17 [0x7B] Salwa-Molwa (ID: 17044025/0x01041239) stops talking
163: 0x0B1C [0x1C] WAIT(30* ticks)
164: 0x0B1F [0x27] REQ_SET(priority=0x10, entity_id=Salwa-Molwa (ID: 17044025/0x01041239), tag_num=0x29)
165: 0x0B26 [0x45] LOAD_SCHEDULED_TASK: Load scheduler "s336" with entities [LocalPlayer, LocalPlayer], work=[282*, 0*]
166: 0x0B37 [0x2B] Salwa-Molwa (ID: 17044025/0x01041239) [8415*]:
    → "I mean, I did chase her through the forest for almost an hour."
167: 0x0B3E [0x23] WAIT_FOR_DIALOG_INTERACTION
168: 0x0B3F [0x2A] GET_REQ_LEVEL(level=16, entity_id=Salwa-Molwa (ID: 17044025/0x01041239))
169: 0x0B45 [0x29] REQ_SET_WAIT(priority=0x10, entity_id=Salwa-Molwa (ID: 17044025/0x01041239), tag_num=0x2A)
170: 0x0B4C [0x27] REQ_SET(priority=0x10, entity_id=Salwa-Molwa (ID: 17044025/0x01041239), tag_num=0x2D)
171: 0x0B53 [0x2B] Salwa-Molwa (ID: 17044025/0x01041239) [8416*]:
    → "But even so, I'd know my own fiancee anywhere--frog or not!"
172: 0x0B5A [0x23] WAIT_FOR_DIALOG_INTERACTION
173: 0x0B5B [0x2A] GET_REQ_LEVEL(level=16, entity_id=Salwa-Molwa (ID: 17044025/0x01041239))
174: 0x0B61 [0x52] END_LOAD_SCHEDULER: End scheduler "s336" with entities [LocalPlayer, LocalPlayer], work=282*
175: 0x0B70 [0x79] Salwa-Molwa (ID: 17044025/0x01041239) looks at Clavauert (ID: 17044027/0x0104123B) (Basic look)
176: 0x0B7A [0x45] LOAD_SCHEDULED_TASK: Load scheduler "s337" with entities [LocalPlayer, LocalPlayer], work=[282*, 0*]
177: 0x0B8B [0x2B] Clavauert (ID: 17044027/0x0104123B) [8417*]:
    → "Hmmm... While I do not question your feelings towards Mikilulu..."
178: 0x0B92 [0x23] WAIT_FOR_DIALOG_INTERACTION
179: 0x0B93 [0x52] END_LOAD_SCHEDULER: End scheduler "s337" with entities [LocalPlayer, LocalPlayer], work=282*
180: 0x0BA2 [0x45] LOAD_SCHEDULED_TASK: Load scheduler "s338" with entities [LocalPlayer, LocalPlayer], work=[282*, 0*]
181: 0x0BB3 [0x2B] Clavauert (ID: 17044027/0x0104123B) [8418*]:
    → "...I am wary of basing our search efforts on the memory of a Tarutaru who cannot even remember at which gate he is to convene."
182: 0x0BBA [0x23] WAIT_FOR_DIALOG_INTERACTION
183: 0x0BBB [0x52] END_LOAD_SCHEDULER: End scheduler "s338" with entities [LocalPlayer, LocalPlayer], work=282*
184: 0x0BCA [0x5D] SET_MUSIC_VOLUME(volume=0*, fade_time=120*)
185: 0x0BCF [0x29] REQ_SET_WAIT(priority=0x10, entity_id=Unnamed NPC (ID: 17044036/0x01041244), tag_num=0x02)
186: 0x0BD6 [0x27] REQ_SET(priority=0x10, entity_id=Clavauert (ID: 17044027/0x0104123B), tag_num=0x1C)
187: 0x0BDD [0x45] LOAD_SCHEDULED_TASK: Load scheduler "s339" with entities [LocalPlayer, LocalPlayer], work=[282*, 0*]
188: 0x0BEE [0x2B] Clavauert (ID: 17044027/0x0104123B) [8419*]:
    → "If only there were another, more reliable method..."
189: 0x0BF5 [0x23] WAIT_FOR_DIALOG_INTERACTION
190: 0x0BF6 [0x2A] GET_REQ_LEVEL(level=16, entity_id=Clavauert (ID: 17044027/0x0104123B))
191: 0x0BFC [0x5C] MUSIC_CONTROL: Set Idle (Day) music to song 139*
192: 0x0C00 [0x5C] MUSIC_CONTROL: Set Idle (Night) music to song 139*
193: 0x0C04 [0x9A] WAIT_MUSIC_SERVER()
194: 0x0C05 [0x27] REQ_SET(priority=0x10, entity_id=Clavauert (ID: 17044027/0x0104123B), tag_num=0x1D)
195: 0x0C0C [0x27] REQ_SET(priority=0x10, entity_id=LocalPlayer, tag_num=0x25)
196: 0x0C13 [0x27] REQ_SET(priority=0x10, entity_id=Salwa-Molwa (ID: 17044025/0x01041239), tag_num=0x2B)
197: 0x0C1A [0x2B] Clavauert (ID: 17044027/0x0104123B) [8420*]:
    → "And what do we have here!?"
198: 0x0C21 [0x2A] GET_REQ_LEVEL(level=16, entity_id=Clavauert (ID: 17044027/0x0104123B))
199: 0x0C27 [0x52] END_LOAD_SCHEDULER: End scheduler "s339" with entities [LocalPlayer, LocalPlayer], work=282*
200: 0x0C36 [0x27] REQ_SET(priority=0x10, entity_id=Clavauert (ID: 17044027/0x0104123B), tag_num=0x1E)
201: 0x0C3D [0x27] REQ_SET(priority=0x10, entity_id=LocalPlayer, tag_num=0x26)
202: 0x0C44 [0x45] LOAD_SCHEDULED_TASK: Load scheduler "s342" with entities [LocalPlayer, LocalPlayer], work=[282*, 0*]
203: 0x0C55 [0x29] REQ_SET_WAIT(priority=0x10, entity_id=Salwa-Molwa (ID: 17044025/0x01041239), tag_num=0x06)
204: 0x0C5C [0x80] LOAD_WAIT(entity=Salwa-Molwa (ID: 17044025/0x01041239))
205: 0x0C61 [0x27] REQ_SET(priority=0x10, entity_id=Salwa-Molwa (ID: 17044025/0x01041239), tag_num=0x2C)
206: 0x0C68 [0x2A] GET_REQ_LEVEL(level=16, entity_id=Clavauert (ID: 17044027/0x0104123B))
207: 0x0C6E [0x2B] Clavauert (ID: 17044027/0x0104123B) [8421*]:
    → "Toadprints! And quite fresh, by my calculations."
208: 0x0C75 [0x23] WAIT_FOR_DIALOG_INTERACTION
209: 0x0C76 [0x52] END_LOAD_SCHEDULER: End scheduler "s342" with entities [LocalPlayer, LocalPlayer], work=282*
210: 0x0C85 [0x2A] GET_REQ_LEVEL(level=16, entity_id=Salwa-Molwa (ID: 17044025/0x01041239))
211: 0x0C8B [0x4A] Salwa-Molwa (ID: 17044025/0x01041239) looks at Clavauert (ID: 17044027/0x0104123B)
212: 0x0C94 [0x2A] GET_REQ_LEVEL(level=16, entity_id=LocalPlayer)
213: 0x0C9A [0x4A] LocalPlayer looks at Clavauert (ID: 17044027/0x0104123B)
214: 0x0CA3 [0x45] LOAD_SCHEDULED_TASK: Load scheduler "s340" with entities [LocalPlayer, LocalPlayer], work=[282*, 0*]
215: 0x0CB4 [0x29] REQ_SET_WAIT(priority=0x10, entity_id=Clavauert (ID: 17044027/0x0104123B), tag_num=0x1F)
216: 0x0CBB [0x4A] Clavauert (ID: 17044027/0x0104123B) looks at Salwa-Molwa (ID: 17044025/0x01041239)
217: 0x0CC4 [0x79] LocalPlayer looks at Salwa-Molwa (ID: 17044025/0x01041239) (Basic look)
218: 0x0CCE [0x2B] Clavauert (ID: 17044027/0x0104123B) [8422*]:
    → "Salwa, my boy. Have you seen any other toads in the vicinity since arriving?"
219: 0x0CD5 [0x23] WAIT_FOR_DIALOG_INTERACTION
220: 0x0CD6 [0x52] END_LOAD_SCHEDULER: End scheduler "s340" with entities [LocalPlayer, LocalPlayer], work=282*
221: 0x0CE5 [0x27] REQ_SET(priority=0x10, entity_id=Salwa-Molwa (ID: 17044025/0x01041239), tag_num=0x18)
222: 0x0CEC [0x45] LOAD_SCHEDULED_TASK: Load scheduler "s341" with entities [LocalPlayer, LocalPlayer], work=[282*, 0*]
223: 0x0CFD [0x2B] Salwa-Molwa (ID: 17044025/0x01041239) [8423*]:
    → "I-- No... I haven't!"
224: 0x0D04 [0x23] WAIT_FOR_DIALOG_INTERACTION
225: 0x0D05 [0x2A] GET_REQ_LEVEL(level=16, entity_id=Salwa-Molwa (ID: 17044025/0x01041239))
226: 0x0D0B [0x52] END_LOAD_SCHEDULER: End scheduler "s341" with entities [LocalPlayer, LocalPlayer], work=282*
227: 0x0D1A [0x6E] Clavauert (ID: 17044027/0x0104123B) uses emote 36*
228: 0x0D21 [0x99] Wait for Clavauert (ID: 17044027/0x0104123B) animation to complete
229: 0x0D26 [0x1C] WAIT(10* ticks)
230: 0x0D29 [0x45] LOAD_SCHEDULED_TASK: Load scheduler "s343" with entities [LocalPlayer, LocalPlayer], work=[282*, 0*]
231: 0x0D3A [0x2B] Clavauert (ID: 17044027/0x0104123B) [8424*]:
    → "Then by process of elimination, we can deduce that the prints here belong to none other than Mikilulu!"
232: 0x0D41 [0x23] WAIT_FOR_DIALOG_INTERACTION
233: 0x0D42 [0x27] REQ_SET(priority=0x10, entity_id=Salwa-Molwa (ID: 17044025/0x01041239), tag_num=0x2E)
234: 0x0D49 [0x2B] Salwa-Molwa (ID: 17044025/0x01041239) [8425*]:
    → "Whoa! I guess that's why they call you "Professor"!"
235: 0x0D50 [0x23] WAIT_FOR_DIALOG_INTERACTION
236: 0x0D51 [0x2A] GET_REQ_LEVEL(level=16, entity_id=Salwa-Molwa (ID: 17044025/0x01041239))
237: 0x0D57 [0x52] END_LOAD_SCHEDULER: End scheduler "s343" with entities [LocalPlayer, LocalPlayer], work=282*
238: 0x0D66 [0x7B] Salwa-Molwa (ID: 17044025/0x01041239) stops talking
239: 0x0D6B [0x6E] Salwa-Molwa (ID: 17044025/0x01041239) uses emote 32*
240: 0x0D72 [0x99] Wait for Salwa-Molwa (ID: 17044025/0x01041239) animation to complete
241: 0x0D77 [0x45] LOAD_SCHEDULED_TASK: Load scheduler "s344" with entities [LocalPlayer, LocalPlayer], work=[282*, 0*]
242: 0x0D88 [0x2B] Salwa-Molwa (ID: 17044025/0x01041239) [8426*]:
    → "But... This place is huge. Where do we start looking?"
243: 0x0D8F [0x23] WAIT_FOR_DIALOG_INTERACTION
244: 0x0D90 [0x52] END_LOAD_SCHEDULER: End scheduler "s344" with entities [LocalPlayer, LocalPlayer], work=282*
245: 0x0D9F [0x6E] Clavauert (ID: 17044027/0x0104123B) uses emote 20*
246: 0x0DA6 [0x99] Wait for Clavauert (ID: 17044027/0x0104123B) animation to complete
247: 0x0DAB [0x79] Salwa-Molwa (ID: 17044025/0x01041239) looks at Clavauert (ID: 17044027/0x0104123B) (Basic look)
248: 0x0DB5 [0x45] LOAD_SCHEDULED_TASK: Load scheduler "s345" with entities [LocalPlayer, LocalPlayer], work=[282*, 0*]
249: 0x0DC6 [0x2B] Clavauert (ID: 17044027/0x0104123B) [8427*]:
    → "You need not worry, son. Poroggo are an amphibious species, meaning they cannot survive long out of water."
250: 0x0DCD [0x23] WAIT_FOR_DIALOG_INTERACTION
251: 0x0DCE [0x52] END_LOAD_SCHEDULER: End scheduler "s345" with entities [LocalPlayer, LocalPlayer], work=282*
252: 0x0DDD [0x1A] CALL_SUBROUTINE(address=0x29DA)
253: 0x0DE0 [0x77] SET_EVENT_TIME_WEATHER(hour=14*, weather=1*)
254: 0x0DE5 [0x45] LOAD_SCHEDULED_TASK: Load scheduler "s346" with entities [LocalPlayer, LocalPlayer], work=[282*, 0*]
255: 0x0DF6 [0x1A] CALL_SUBROUTINE(address=0x29B9)
256: 0x0DF9 [0x2B] Clavauert (ID: 17044027/0x0104123B) [8428*]:
    → "To the west of our current location lies a small lake that is rumored to be one of their breeding grounds. We shall first try our luck there."
257: 0x0E00 [0x23] WAIT_FOR_DIALOG_INTERACTION
258: 0x0E01 [0x52] END_LOAD_SCHEDULER: End scheduler "s346" with entities [LocalPlayer, LocalPlayer], work=282*
259: 0x0E10 [0x1A] CALL_SUBROUTINE(address=0x29DA)
260: 0x0E13 [0x78] ENABLE_GAME_TIMER_RESET_WEATHER()
261: 0x0E14 [0x79] LocalPlayer looks at Clavauert (ID: 17044027/0x0104123B) (Basic look)
262: 0x0E1E [0x45] LOAD_SCHEDULED_TASK: Load scheduler "s348" with entities [LocalPlayer, LocalPlayer], work=[282*, 0*]
263: 0x0E2F [0x1A] CALL_SUBROUTINE(address=0x29B9)
264: 0x0E32 [0x2B] Clavauert (ID: 17044027/0x0104123B) [8429*]:
    → "And if anything attempts to attack us, I am sure our trusty mercenary here will handle it."
265: 0x0E39 [0x23] WAIT_FOR_DIALOG_INTERACTION
266: 0x0E3A [0x4A] Clavauert (ID: 17044027/0x0104123B) looks at LocalPlayer
267: 0x0E43 [0x4A] Salwa-Molwa (ID: 17044025/0x01041239) looks at LocalPlayer
268: 0x0E4C [0x6F] WAIT_FRAME_DELAY: Yield until WaitTime reaches zero
269: 0x0E4D [0x76] CHECK_ENTITY_RENDER_FLAGS: Wait until Clavauert (ID: 17044027/0x0104123B) Render.Flags0 and Render.Flags3 conditions are met
270: 0x0E52 [0x6F] WAIT_FRAME_DELAY: Yield until WaitTime reaches zero
271: 0x0E53 [0x76] CHECK_ENTITY_RENDER_FLAGS: Wait until Salwa-Molwa (ID: 17044025/0x01041239) Render.Flags0 and Render.Flags3 conditions are met
272: 0x0E58 [0x52] END_LOAD_SCHEDULER: End scheduler "s348" with entities [LocalPlayer, LocalPlayer], work=282*
273: 0x0E67 [0x6E] LocalPlayer uses emote 7*
274: 0x0E6E [0x99] Wait for LocalPlayer animation to complete
275: 0x0E73 [0x1C] WAIT(120* ticks)
276: 0x0E76 [0x27] REQ_SET(priority=0x10, entity_id=LocalPlayer, tag_num=0x27)
277: 0x0E7D [0x27] REQ_SET(priority=0x10, entity_id=Salwa-Molwa (ID: 17044025/0x01041239), tag_num=0x2F)
278: 0x0E84 [0x27] REQ_SET(priority=0x10, entity_id=Clavauert (ID: 17044027/0x0104123B), tag_num=0x20)
279: 0x0E8B [0x45] LOAD_SCHEDULED_TASK: Load scheduler "s349" with entities [LocalPlayer, LocalPlayer], work=[282*, 0*]
280: 0x0E9C [0x1C] WAIT(240* ticks)
281: 0x0E9F [0x52] END_LOAD_SCHEDULER: End scheduler "s349" with entities [LocalPlayer, LocalPlayer], work=282*
282: 0x0EAE [0x5D] SET_MUSIC_VOLUME(volume=0*, fade_time=120*)
283: 0x0EB3 [0x1A] CALL_SUBROUTINE(address=0x2A1C)
284: 0x0EB6 [0x1C] WAIT(30* ticks)
285: 0x0EB9 [0xAB] EventEntity->UnknownFlag = 0 // Disable unknown flag
286: 0x0EBB [0xAB] EventEntity->CalibrationFlag = 0 // Clear calibration flag
287: 0x0EBD [0x5C] MUSIC_CONTROL: Set Idle (Day) music to song 0*
288: 0x0EC1 [0x5C] MUSIC_CONTROL: Set Idle (Night) music to song 0*
289: 0x0EC5 [0x5C] MUSIC_CONTROL: Set Combat (Solo) music to song 115*
290: 0x0EC9 [0x5C] MUSIC_CONTROL: Set Combat (Party) music to song 139*
291: 0x0ECD [0x9A] WAIT_MUSIC_SERVER()
292: 0x0ECE [0x46] CAMERA_CONTROL: Restore default settings
293: 0x0ED0 [0x45] LOAD_SCHEDULED_TASK: Load scheduler "fdi2" with entities [LocalPlayer, LocalPlayer], work=[200*, 0*]
294: 0x0EE1 [0x21] END_EVENT
295: 0x0EE2 [0x00] END_REQSTACK()
```

### Event 223

#### Metadata

| Field        | Value      |
|--------------|------------|
| Entrypoint   | 0x0EE3     |
| Data Size    | 2448 bytes |
| Instructions | 323        |

```
      00 01 02 03 04 05 06 07  08 09 0A 0B 0C 0D 0E 0F
      -- -- -- -- -- -- -- --  -- -- -- -- -- -- -- --
0EE0:          42 1A 1C 2A 46  01 38 00 80 92 01 3B 12     B..*F.8....;.
0EF0: 04 01 92 01 39 12 04 01  92 01 3E 12 04 01 92 01  ....9.....>.....
0F00: 3D 12 04 01 27 10 3B 12  04 01 01 27 10 39 12 04  =...'.;....'.9..
0F10: 01 02 27 10 3D 12 04 01  02 27 10 3E 12 04 01 02  ..'.=....'.>....
0F20: 4E 00 44 12 04 01 BA F0  FF FF 7F 6A 80 6B 80 6C  N.D........j.k.l
0F30: 80 06 80 29 10 3B 12 04  01 23 29 10 39 12 04 01  ...).;...#).9...
0F40: 32 29 10 44 12 04 01 04  94 01 F0 FF FF 7F 94 01  2).D............
0F50: 3B 12 04 01 94 01 39 12  04 01 94 01 44 12 04 01  ;.....9.....D...
0F60: 94 01 3E 12 04 01 94 01  3D 12 04 01 80 F0 FF FF  ..>.....=.......
0F70: 7F 80 3B 12 04 01 80 39  12 04 01 80 44 12 04 01  ..;....9....D...
0F80: 80 3E 12 04 01 80 3D 12  04 01 1C 1E 80 27 10 39  .>....=......'.9
0F90: 12 04 01 33 27 10 3B 12  04 01 24 27 10 F0 FF FF  ...3'.;...$'....
0FA0: 7F 2A 45 6D 80 F0 FF FF  7F F0 FF FF 7F 73 34 30  .*Em.........s40
0FB0: 33 06 80 1A FB 29 2A 10  3B 12 04 01 27 10 3B 12  3....)*.;...'.;.
0FC0: 04 01 25 2A 10 F0 FF FF  7F 27 10 39 12 04 01 34  ..%*.....'.9...4
0FD0: 27 10 F0 FF FF 7F 2B 52  6D 80 F0 FF FF 7F F0 FF  '.....+Rm.......
0FE0: FF 7F 73 34 30 33 45 6D  80 F0 FF FF 7F F0 FF FF  ..s403Em........
0FF0: 7F 73 34 30 32 06 80 2B  3B 12 04 01 6E 80 2A 10  .s402..+;...n.*.
1000: 3B 12 04 01 29 10 3B 12  04 01 26 52 6D 80 F0 FF  ;...).;...&Rm...
1010: FF 7F F0 FF FF 7F 73 34  30 32 45 6D 80 F0 FF FF  ......s402Em....
1020: 7F F0 FF FF 7F 73 34 30  30 06 80 2B 3B 12 04 01  .....s400..+;...
1030: 6F 80 23 27 10 3B 12 04  01 1F 52 6D 80 F0 FF FF  o.#'.;....Rm....
1040: 7F F0 FF FF 7F 73 34 30  30 2A 10 3B 12 04 01 29  .....s400*.;...)
1050: 10 44 12 04 01 05 79 00  3B 12 04 01 44 12 04 01  .D....y.;...D...
1060: 27 10 3B 12 04 01 27 45  6D 80 F0 FF FF 7F F0 FF  '.;...'Em.......
1070: FF 7F 73 34 30 34 06 80  79 00 F0 FF FF 7F 44 12  ..s404..y.....D.
1080: 04 01 79 00 39 12 04 01  44 12 04 01 2A 10 3B 12  ..y.9...D...*.;.
1090: 04 01 27 10 3B 12 04 01  26 2B 3B 12 04 01 70 80  ..'.;...&+;...p.
10A0: 23 2A 10 3B 12 04 01 52  6D 80 F0 FF FF 7F F0 FF  #*.;...Rm.......
10B0: FF 7F 73 34 30 34 45 6D  80 F0 FF FF 7F F0 FF FF  ..s404Em........
10C0: 7F 73 34 30 31 06 80 2B  3B 12 04 01 71 80 23 29  .s401..+;...q.#)
10D0: 10 3E 12 04 01 1F 1C 26  80 27 10 39 12 04 01 35  .>.....&.'.9...5
10E0: 1C 26 80 2B 39 12 04 01  72 80 1C 57 80 4A F0 FF  .&.+9...r..W.J..
10F0: FF 7F 3E 12 04 01 7B 3B  12 04 01 27 10 3B 12 04  ..>...{;...'.;..
1100: 01 1F 2A 10 39 12 04 01  52 6D 80 F0 FF FF 7F F0  ..*.9...Rm......
1110: FF FF 7F 73 34 30 31 45  6D 80 F0 FF FF 7F F0 FF  ...s401Em.......
1120: FF 7F 73 34 30 35 06 80  29 10 3E 12 04 01 20 52  ..s405..).>... R
1130: 6D 80 F0 FF FF 7F F0 FF  FF 7F 73 34 30 35 2A 10  m.........s405*.
1140: 3B 12 04 01 27 10 3B 12  04 01 28 45 6D 80 F0 FF  ;...'.;...(Em...
1150: FF 7F F0 FF FF 7F 73 34  30 36 06 80 2A 10 3B 12  ......s406..*.;.
1160: 04 01 2B 3B 12 04 01 73  80 23 27 10 3B 12 04 01  ..+;...s.#'.;...
1170: 29 52 6D 80 F0 FF FF 7F  F0 FF FF 7F 73 34 30 36  )Rm.........s406
1180: 27 10 F0 FF FF 7F 2C 27  10 39 12 04 01 36 27 10  '.....,'.9...6'.
1190: 3E 12 04 01 21 45 6D 80  F0 FF FF 7F F0 FF FF 7F  >...!Em.........
11A0: 73 34 30 37 06 80 1C 74  80 1A 5E 2A 52 6D 80 F0  s407...t..^*Rm..
11B0: FF FF 7F F0 FF FF 7F 73  34 30 37 29 10 3E 12 04  .......s407).>..
11C0: 01 22 29 10 39 12 04 01  37 29 10 3B 12 04 01 2A  .").9...7).;...*
11D0: BA F0 FF FF 7F 75 80 76  80 77 80 78 80 4A F0 FF  .....u.v.w.x.J..
11E0: FF 7F 3E 12 04 01 4A 3B  12 04 01 3E 12 04 01 4A  ..>...J;...>...J
11F0: 39 12 04 01 3E 12 04 01  6F 76 39 12 04 01 1C 57  9...>...ov9....W
1200: 80 45 6D 80 F0 FF FF 7F  F0 FF FF 7F 73 34 30 38  .Em.........s408
1210: 06 80 1A 3D 2A 1C 79 80  27 10 3B 12 04 01 2B 2B  ...=*.y.'.;...++
1220: 3B 12 04 01 7A 80 23 2A  10 3B 12 04 01 52 6D 80  ;...z.#*.;...Rm.
1230: F0 FF FF 7F F0 FF FF 7F  73 34 30 38 45 6D 80 F0  ........s408Em..
1240: FF FF 7F F0 FF FF 7F 73  34 30 39 06 80 55 6D 80  .......s409..Um.
1250: F0 FF FF 7F F0 FF FF 7F  73 34 30 39 45 6D 80 F0  ........s409Em..
1260: FF FF 7F F0 FF FF 7F 73  34 31 30 06 80 27 10 3B  .......s410..'.;
1270: 12 04 01 2C 4A 3E 12 04  01 39 12 04 01 2A 10 3B  ...,J>...9...*.;
1280: 12 04 01 4A 39 12 04 01  3B 12 04 01 4A 3B 12 04  ...J9...;...J;..
1290: 01 39 12 04 01 79 00 F0  FF FF 7F 3B 12 04 01 6E  .9...y.....;...n
12A0: 3B 12 04 01 4A 80 99 3B  12 04 01 2B 3B 12 04 01  ;...J..;...+;...
12B0: 7B 80 23 52 6D 80 F0 FF  FF 7F F0 FF FF 7F 73 34  {.#Rm.........s4
12C0: 31 30 59 01 39 12 04 01  0A 80 4A 39 12 04 01 3E  10Y.9.....J9...>
12D0: 12 04 01 1C 18 80 2B 39  12 04 01 7C 80 45 6D 80  ......+9...|.Em.
12E0: F0 FF FF 7F F0 FF FF 7F  73 34 31 31 06 80 4E 01  ........s411..N.
12F0: F0 FF FF 7F 6E 39 12 04  01 55 80 99 39 12 04 01  ....n9...U..9...
1300: 1C 18 80 2B 39 12 04 01  7D 80 23 52 6D 80 F0 FF  ...+9...}.#Rm...
1310: FF 7F F0 FF FF 7F 73 34  31 31 4A 39 12 04 01 3B  ......s411J9...;
1320: 12 04 01 66 7E 80 39 12  04 01 39 12 04 01 74 6C  ...f~.9...9...tl
1330: 6B 30 2B 39 12 04 01 7F  80 23 66 7E 80 39 12 04  k0+9.....#f~.9..
1340: 01 39 12 04 01 74 6C 6B  31 29 10 3D 12 04 01 19  .9...tlk1).=....
1350: 27 10 3B 12 04 01 2D 1C  42 80 45 6D 80 F0 FF FF  '.;...-.B.Em....
1360: 7F F0 FF FF 7F 73 34 31  33 06 80 4E 00 F0 FF FF  .....s413..N....
1370: 7F 2B 3B 12 04 01 80 80  2A 10 3B 12 04 01 29 10  .+;.....*.;...).
1380: 3B 12 04 01 2E 2B 3B 12  04 01 81 80 4A F0 FF FF  ;....+;.....J...
1390: 7F 3D 12 04 01 4A 39 12  04 01 3D 12 04 01 6F 76  .=...J9...=...ov
13A0: 39 12 04 01 5C 00 82 80  5C 01 82 80 9A 52 6D 80  9...\...\....Rm.
13B0: F0 FF FF 7F F0 FF FF 7F  73 34 31 33 27 10 3D 12  ........s413'.=.
13C0: 04 01 18 45 6D 80 F0 FF  FF 7F F0 FF FF 7F 73 34  ...Em.........s4
13D0: 31 32 06 80 55 6D 80 F0  FF FF 7F F0 FF FF 7F 73  12..Um.........s
13E0: 34 31 32 2A 10 3D 12 04  01 45 6D 80 F0 FF FF 7F  412*.=...Em.....
13F0: F0 FF FF 7F 73 34 31 35  06 80 55 6D 80 F0 FF FF  ....s415..Um....
1400: 7F F0 FF FF 7F 73 34 31  35 27 10 3D 12 04 01 1E  .....s415'.=....
1410: 1C 1E 80 45 6D 80 F0 FF  FF 7F F0 FF FF 7F 73 34  ...Em.........s4
1420: 31 37 06 80 2A 10 3D 12  04 01 52 6D 80 F0 FF FF  17..*.=...Rm....
1430: 7F F0 FF FF 7F 73 34 31  37 6E 39 12 04 01 83 80  .....s417n9.....
1440: 99 39 12 04 01 45 6D 80  F0 FF FF 7F F0 FF FF 7F  .9...Em.........
1450: 73 34 31 38 06 80 55 6D  80 F0 FF FF 7F F0 FF FF  s418..Um........
1460: 7F 73 34 31 38 1C 57 80  45 6D 80 F0 FF FF 7F F0  .s418.W.Em......
1470: FF FF 7F 73 34 31 34 06  80 4A 39 12 04 01 3E 12  ...s414..J9...>.
1480: 04 01 6F 76 39 12 04 01  1C 26 80 27 10 39 12 04  ..ov9....&.'.9..
1490: 01 39 27 10 3E 12 04 01  23 7C 00 39 12 04 01 2B  .9'.>...#|.9...+
14A0: 39 12 04 01 84 80 1C 57  80 52 6D 80 F0 FF FF 7F  9......W.Rm.....
14B0: F0 FF FF 7F 73 34 31 34  45 6D 80 F0 FF FF 7F F0  ....s414Em......
14C0: FF FF 7F 73 34 31 36 06  80 2A 10 3E 12 04 01 1C  ...s416..*.>....
14D0: 57 80 52 6D 80 F0 FF FF  7F F0 FF FF 7F 73 34 31  W.Rm.........s41
14E0: 36 7C 01 39 12 04 01 45  6D 80 F0 FF FF 7F F0 FF  6|.9...Em.......
14F0: FF 7F 73 34 31 39 06 80  2B 3B 12 04 01 85 80 23  ..s419..+;.....#
1500: 52 6D 80 F0 FF FF 7F F0  FF FF 7F 73 34 31 39 27  Rm.........s419'
1510: 10 39 12 04 01 3A 45 6D  80 F0 FF FF 7F F0 FF FF  .9...:Em........
1520: 7F 73 34 32 30 06 80 1C  29 80 79 00 3B 12 04 01  .s420...).y.;...
1530: 39 12 04 01 2B 39 12 04  01 86 80 1C 29 80 52 6D  9...+9......).Rm
1540: 80 F0 FF FF 7F F0 FF FF  7F 73 34 32 30 5D 06 80  .........s420]..
1550: 26 80 27 10 3B 12 04 01  2F 45 6D 80 F0 FF FF 7F  &.'.;.../Em.....
1560: F0 FF FF 7F 73 34 32 31  06 80 2B 3B 12 04 01 87  ....s421..+;....
1570: 80 23 2A 10 3B 12 04 01  52 6D 80 F0 FF FF 7F F0  .#*.;...Rm......
1580: FF FF 7F 73 34 32 31 27  10 39 12 04 01 3B 27 10  ...s421'.9...;'.
1590: 3D 12 04 01 1B 45 6D 80  F0 FF FF 7F F0 FF FF 7F  =....Em.........
15A0: 73 34 32 32 06 80 2A 10  3D 12 04 01 1C 88 80 52  s422..*.=......R
15B0: 6D 80 F0 FF FF 7F F0 FF  FF 7F 73 34 32 32 1A 6F  m.........s422.o
15C0: 2B 1C 0A 80 29 10 39 12  04 01 3C 4A 3E 12 04 01  +...).9...<J>...
15D0: 39 12 04 01 4A 39 12 04  01 F0 FF FF 7F 2B 39 12  9...J9.......+9.
15E0: 04 01 89 80 23 5C 00 06  80 5C 01 06 80 9A 27 10  ....#\...\....'.
15F0: 3E 12 04 01 02 27 10 40  12 04 01 03 27 10 41 12  >....'.@....'.A.
1600: 04 01 03 27 10 42 12 04  01 03 27 10 43 12 04 01  ...'.B....'.C...
1610: 03 29 10 40 12 04 01 04  29 10 41 12 04 01 04 29  .).@....).A....)
1620: 10 42 12 04 01 04 29 10  43 12 04 01 04 BA F0 FF  .B....).C.......
1630: FF 7F 75 80 76 80 77 80  78 80 80 40 12 04 01 80  ..u.v.w.x..@....
1640: 41 12 04 01 80 42 12 04  01 80 43 12 04 01 4E 01  A....B....C...N.
1650: 40 12 04 01 4E 01 41 12  04 01 4E 01 42 12 04 01  @...N.A...N.B...
1660: 4E 01 43 12 04 01 4A 3D  12 04 01 39 12 04 01 4A  N.C...J=...9...J
1670: 3E 12 04 01 39 12 04 01  4A 3B 12 04 01 39 12 04  >...9...J;...9..
1680: 01 4A F0 FF FF 7F 3D 12  04 01 4A 39 12 04 01 F0  .J....=...J9....
1690: FF FF 7F 6F 76 39 12 04  01 7B 39 12 04 01 1C 57  ...ov9...{9....W
16A0: 80 27 10 39 12 04 01 3E  1C 42 80 45 6D 80 F0 FF  .'.9...>.B.Em...
16B0: FF 7F F0 FF FF 7F 73 34  32 34 06 80 1A 3D 2A 2A  ......s424...=**
16C0: 10 39 12 04 01 1C 8A 80  52 6D 80 F0 FF FF 7F F0  .9......Rm......
16D0: FF FF 7F 73 34 32 34 5C  80 82 80 06 80 5C 81 82  ...s424\.....\..
16E0: 80 06 80 9A 5D 8B 80 8C  80 27 10 3B 12 04 01 30  ....]....'.;...0
16F0: 27 10 F0 FF FF 7F 2D 45  6D 80 F0 FF FF 7F F0 FF  '.....-Em.......
1700: FF 7F 73 34 32 35 06 80  2A 10 F0 FF FF 7F 1C 18  ..s425..*.......
1710: 80 55 6D 80 F0 FF FF 7F  F0 FF FF 7F 73 34 32 35  .Um.........s425
1720: 4B 3D 12 04 01 8D 80 6F  76 3D 12 04 01 27 10 3D  K=.....ov=...'.=
1730: 12 04 01 1E 4E 00 40 12  04 01 4E 00 41 12 04 01  ....N.@...N.A...
1740: 4E 00 42 12 04 01 4E 00  43 12 04 01 1C 26 80 27  N.B...N.C....&.'
1750: 10 39 12 04 01 3F 27 10  40 12 04 01 05 27 10 41  .9...?'.@....'.A
1760: 12 04 01 05 27 10 42 12  04 01 05 27 10 43 12 04  ....'.B....'.C..
1770: 01 05 45 6D 80 F0 FF FF  7F F0 FF FF 7F 73 34 32  ..Em.........s42
1780: 36 06 80 1C 8E 80 4A 3D  12 04 01 F0 FF FF 7F 2A  6.....J=.......*
1790: 10 43 12 04 01 52 6D 80  F0 FF FF 7F F0 FF FF 7F  .C...Rm.........
17A0: 73 34 32 36 4A F0 FF FF  7F 39 12 04 01 45 6D 80  s426J....9...Em.
17B0: F0 FF FF 7F F0 FF FF 7F  73 34 32 37 06 80 2B 39  ........s427..+9
17C0: 12 04 01 8F 80 1C 07 80  27 10 39 12 04 01 3E 2B  ........'.9...>+
17D0: 39 12 04 01 90 80 1C 18  80 2A 10 39 12 04 01 1C  9........*.9....
17E0: 26 80 52 6D 80 F0 FF FF  7F F0 FF FF 7F 73 34 32  &.Rm.........s42
17F0: 37 4A F0 FF FF 7F 3B 12  04 01 4A 3B 12 04 01 F0  7J....;...J;....
1800: FF FF 7F 45 6D 80 F0 FF  FF 7F F0 FF FF 7F 73 34  ...Em.........s4
1810: 32 38 06 80 6F 76 3B 12  04 01 27 10 3B 12 04 01  28..ov;...'.;...
1820: 33 27 10 F0 FF FF 7F 2E  2A 10 F0 FF FF 7F 4A F0  3'......*.....J.
1830: FF FF 7F 3D 12 04 01 6F  76 F0 FF FF 7F 52 6D 80  ...=...ov....Rm.
1840: F0 FF FF 7F F0 FF FF 7F  73 34 32 38 1C 26 80 1A  ........s428.&..
1850: 1C 2A 1C 1E 80 5C 00 06  80 5C 01 06 80 9A 46 00  .*...\...\....F.
1860: 45 0A 80 F0 FF FF 7F F0  FF FF 7F 66 64 69 32 06  E..........fdi2.
1870: 80 21 00                                          .!.             
```

#### Opcodes

```
  0: 0x0EE3 [0x42] SET_CLI_EVENT_CANCEL_DATA()
  1: 0x0EE4 [0x1A] CALL_SUBROUTINE(address=0x2A1C)
  2: 0x0EE7 [0x46] CAMERA_CONTROL: Disable user control
  3: 0x0EE9 [0x38] SET_CLIENT_EVENT_MODE(mode=19*)
  4: 0x0EEC [0x92] Clavauert (ID: 17044027/0x0104123B)->Render.Flags3 ^= 0x01
  5: 0x0EF2 [0x92] Salwa-Molwa (ID: 17044025/0x01041239)->Render.Flags3 ^= 0x01
  6: 0x0EF8 [0x92] Unnamed NPC (ID: 17044030/0x0104123E)->Render.Flags3 ^= 0x01
  7: 0x0EFE [0x92] Unnamed NPC (ID: 17044029/0x0104123D)->Render.Flags3 ^= 0x01
  8: 0x0F04 [0x27] REQ_SET(priority=0x10, entity_id=Clavauert (ID: 17044027/0x0104123B), tag_num=0x01)
  9: 0x0F0B [0x27] REQ_SET(priority=0x10, entity_id=Salwa-Molwa (ID: 17044025/0x01041239), tag_num=0x02)
 10: 0x0F12 [0x27] REQ_SET(priority=0x10, entity_id=Unnamed NPC (ID: 17044029/0x0104123D), tag_num=0x02)
 11: 0x0F19 [0x27] REQ_SET(priority=0x10, entity_id=Unnamed NPC (ID: 17044030/0x0104123E), tag_num=0x02)
 12: 0x0F20 [0x4E] SET_ENTITY_HIDE_FLAG: Show Unnamed NPC (ID: 17044036/0x01041244)
 13: 0x0F26 [0xBA] SET_ENTITY_POSITION(entity_id=LocalPlayer, pos_x=-52.794*, pos_z=-98.105*, pos_y=5.927*, direction=0.0°*)
 14: 0x0F33 [0x29] REQ_SET_WAIT(priority=0x10, entity_id=Clavauert (ID: 17044027/0x0104123B), tag_num=0x23)
 15: 0x0F3A [0x29] REQ_SET_WAIT(priority=0x10, entity_id=Salwa-Molwa (ID: 17044025/0x01041239), tag_num=0x32)
 16: 0x0F41 [0x29] REQ_SET_WAIT(priority=0x10, entity_id=Unnamed NPC (ID: 17044036/0x01041244), tag_num=0x04)
 17: 0x0F48 [0x94] LocalPlayer->Render.Flags3 ^= 0x01
 18: 0x0F4E [0x94] Clavauert (ID: 17044027/0x0104123B)->Render.Flags3 ^= 0x01
 19: 0x0F54 [0x94] Salwa-Molwa (ID: 17044025/0x01041239)->Render.Flags3 ^= 0x01
 20: 0x0F5A [0x94] Unnamed NPC (ID: 17044036/0x01041244)->Render.Flags3 ^= 0x01
 21: 0x0F60 [0x94] Unnamed NPC (ID: 17044030/0x0104123E)->Render.Flags3 ^= 0x01
 22: 0x0F66 [0x94] Unnamed NPC (ID: 17044029/0x0104123D)->Render.Flags3 ^= 0x01
 23: 0x0F6C [0x80] LOAD_WAIT(entity=LocalPlayer)
 24: 0x0F71 [0x80] LOAD_WAIT(entity=Clavauert (ID: 17044027/0x0104123B))
 25: 0x0F76 [0x80] LOAD_WAIT(entity=Salwa-Molwa (ID: 17044025/0x01041239))
 26: 0x0F7B [0x80] LOAD_WAIT(entity=Unnamed NPC (ID: 17044036/0x01041244))
 27: 0x0F80 [0x80] LOAD_WAIT(entity=Unnamed NPC (ID: 17044030/0x0104123E))
 28: 0x0F85 [0x80] LOAD_WAIT(entity=Unnamed NPC (ID: 17044029/0x0104123D))
 29: 0x0F8A [0x1C] WAIT(30* ticks)
 30: 0x0F8D [0x27] REQ_SET(priority=0x10, entity_id=Salwa-Molwa (ID: 17044025/0x01041239), tag_num=0x33)
 31: 0x0F94 [0x27] REQ_SET(priority=0x10, entity_id=Clavauert (ID: 17044027/0x0104123B), tag_num=0x24)
 32: 0x0F9B [0x27] REQ_SET(priority=0x10, entity_id=LocalPlayer, tag_num=0x2A)
 33: 0x0FA2 [0x45] LOAD_SCHEDULED_TASK: Load scheduler "s403" with entities [LocalPlayer, LocalPlayer], work=[343*, 0*]
 34: 0x0FB3 [0x1A] CALL_SUBROUTINE(address=0x29FB)
 35: 0x0FB6 [0x2A] GET_REQ_LEVEL(level=16, entity_id=Clavauert (ID: 17044027/0x0104123B))
 36: 0x0FBC [0x27] REQ_SET(priority=0x10, entity_id=Clavauert (ID: 17044027/0x0104123B), tag_num=0x25)
 37: 0x0FC3 [0x2A] GET_REQ_LEVEL(level=16, entity_id=LocalPlayer)
 38: 0x0FC9 [0x27] REQ_SET(priority=0x10, entity_id=Salwa-Molwa (ID: 17044025/0x01041239), tag_num=0x34)
 39: 0x0FD0 [0x27] REQ_SET(priority=0x10, entity_id=LocalPlayer, tag_num=0x2B)
 40: 0x0FD7 [0x52] END_LOAD_SCHEDULER: End scheduler "s403" with entities [LocalPlayer, LocalPlayer], work=343*
 41: 0x0FE6 [0x45] LOAD_SCHEDULED_TASK: Load scheduler "s402" with entities [LocalPlayer, LocalPlayer], work=[343*, 0*]
 42: 0x0FF7 [0x2B] Clavauert (ID: 17044027/0x0104123B) [8430*]:
    → "Another toadprint!"
 43: 0x0FFE [0x2A] GET_REQ_LEVEL(level=16, entity_id=Clavauert (ID: 17044027/0x0104123B))
 44: 0x1004 [0x29] REQ_SET_WAIT(priority=0x10, entity_id=Clavauert (ID: 17044027/0x0104123B), tag_num=0x26)
 45: 0x100B [0x52] END_LOAD_SCHEDULER: End scheduler "s402" with entities [LocalPlayer, LocalPlayer], work=343*
 46: 0x101A [0x45] LOAD_SCHEDULED_TASK: Load scheduler "s400" with entities [LocalPlayer, LocalPlayer], work=[343*, 0*]
 47: 0x102B [0x2B] Clavauert (ID: 17044027/0x0104123B) [8431*]:
    → "And exactly the same shape as the last! I feel we are getting close..."
 48: 0x1032 [0x23] WAIT_FOR_DIALOG_INTERACTION
 49: 0x1033 [0x27] REQ_SET(priority=0x10, entity_id=Clavauert (ID: 17044027/0x0104123B), tag_num=0x1F)
 50: 0x103A [0x52] END_LOAD_SCHEDULER: End scheduler "s400" with entities [LocalPlayer, LocalPlayer], work=343*
 51: 0x1049 [0x2A] GET_REQ_LEVEL(level=16, entity_id=Clavauert (ID: 17044027/0x0104123B))
 52: 0x104F [0x29] REQ_SET_WAIT(priority=0x10, entity_id=Unnamed NPC (ID: 17044036/0x01041244), tag_num=0x05)
 53: 0x1056 [0x79] Clavauert (ID: 17044027/0x0104123B) looks at Unnamed NPC (ID: 17044036/0x01041244) (Basic look)
 54: 0x1060 [0x27] REQ_SET(priority=0x10, entity_id=Clavauert (ID: 17044027/0x0104123B), tag_num=0x27)
 55: 0x1067 [0x45] LOAD_SCHEDULED_TASK: Load scheduler "s404" with entities [LocalPlayer, LocalPlayer], work=[343*, 0*]
 56: 0x1078 [0x79] LocalPlayer looks at Unnamed NPC (ID: 17044036/0x01041244) (Basic look)
 57: 0x1082 [0x79] Salwa-Molwa (ID: 17044025/0x01041239) looks at Unnamed NPC (ID: 17044036/0x01041244) (Basic look)
 58: 0x108C [0x2A] GET_REQ_LEVEL(level=16, entity_id=Clavauert (ID: 17044027/0x0104123B))
 59: 0x1092 [0x27] REQ_SET(priority=0x10, entity_id=Clavauert (ID: 17044027/0x0104123B), tag_num=0x26)
 60: 0x1099 [0x2B] Clavauert (ID: 17044027/0x0104123B) [8432*]:
    → "And here is another!"
 61: 0x10A0 [0x23] WAIT_FOR_DIALOG_INTERACTION
 62: 0x10A1 [0x2A] GET_REQ_LEVEL(level=16, entity_id=Clavauert (ID: 17044027/0x0104123B))
 63: 0x10A7 [0x52] END_LOAD_SCHEDULER: End scheduler "s404" with entities [LocalPlayer, LocalPlayer], work=343*
 64: 0x10B6 [0x45] LOAD_SCHEDULED_TASK: Load scheduler "s401" with entities [LocalPlayer, LocalPlayer], work=[343*, 0*]
 65: 0x10C7 [0x2B] Clavauert (ID: 17044027/0x0104123B) [8433*]:
    → "But this one is considerably larger... No doubt from the Poroggo that abducted the poor Mikilulu. This suggests that they are still traveling together."
 66: 0x10CE [0x23] WAIT_FOR_DIALOG_INTERACTION
 67: 0x10CF [0x29] REQ_SET_WAIT(priority=0x10, entity_id=Unnamed NPC (ID: 17044030/0x0104123E), tag_num=0x1F)
 68: 0x10D6 [0x1C] WAIT(60* ticks)
 69: 0x10D9 [0x27] REQ_SET(priority=0x10, entity_id=Salwa-Molwa (ID: 17044025/0x01041239), tag_num=0x35)
 70: 0x10E0 [0x1C] WAIT(60* ticks)
 71: 0x10E3 [0x2B] Salwa-Molwa (ID: 17044025/0x01041239) [8434*]:
    → "I found her!!!"
 72: 0x10EA [0x1C] WAIT(90* ticks)
 73: 0x10ED [0x4A] LocalPlayer looks at Unnamed NPC (ID: 17044030/0x0104123E)
 74: 0x10F6 [0x7B] Clavauert (ID: 17044027/0x0104123B) stops talking
 75: 0x10FB [0x27] REQ_SET(priority=0x10, entity_id=Clavauert (ID: 17044027/0x0104123B), tag_num=0x1F)
 76: 0x1102 [0x2A] GET_REQ_LEVEL(level=16, entity_id=Salwa-Molwa (ID: 17044025/0x01041239))
 77: 0x1108 [0x52] END_LOAD_SCHEDULER: End scheduler "s401" with entities [LocalPlayer, LocalPlayer], work=343*
 78: 0x1117 [0x45] LOAD_SCHEDULED_TASK: Load scheduler "s405" with entities [LocalPlayer, LocalPlayer], work=[343*, 0*]
 79: 0x1128 [0x29] REQ_SET_WAIT(priority=0x10, entity_id=Unnamed NPC (ID: 17044030/0x0104123E), tag_num=0x20)
 80: 0x112F [0x52] END_LOAD_SCHEDULER: End scheduler "s405" with entities [LocalPlayer, LocalPlayer], work=343*
 81: 0x113E [0x2A] GET_REQ_LEVEL(level=16, entity_id=Clavauert (ID: 17044027/0x0104123B))
 82: 0x1144 [0x27] REQ_SET(priority=0x10, entity_id=Clavauert (ID: 17044027/0x0104123B), tag_num=0x28)
 83: 0x114B [0x45] LOAD_SCHEDULED_TASK: Load scheduler "s406" with entities [LocalPlayer, LocalPlayer], work=[343*, 0*]
 84: 0x115C [0x2A] GET_REQ_LEVEL(level=16, entity_id=Clavauert (ID: 17044027/0x0104123B))
 85: 0x1162 [0x2B] Clavauert (ID: 17044027/0x0104123B) [8435*]:
    → "I do not see any Poroggo in the area. Hurry! We must capture her while she is alone!"
 86: 0x1169 [0x23] WAIT_FOR_DIALOG_INTERACTION
 87: 0x116A [0x27] REQ_SET(priority=0x10, entity_id=Clavauert (ID: 17044027/0x0104123B), tag_num=0x29)
 88: 0x1171 [0x52] END_LOAD_SCHEDULER: End scheduler "s406" with entities [LocalPlayer, LocalPlayer], work=343*
 89: 0x1180 [0x27] REQ_SET(priority=0x10, entity_id=LocalPlayer, tag_num=0x2C)
 90: 0x1187 [0x27] REQ_SET(priority=0x10, entity_id=Salwa-Molwa (ID: 17044025/0x01041239), tag_num=0x36)
 91: 0x118E [0x27] REQ_SET(priority=0x10, entity_id=Unnamed NPC (ID: 17044030/0x0104123E), tag_num=0x21)
 92: 0x1195 [0x45] LOAD_SCHEDULED_TASK: Load scheduler "s407" with entities [LocalPlayer, LocalPlayer], work=[343*, 0*]
 93: 0x11A6 [0x1C] WAIT(80* ticks)
 94: 0x11A9 [0x1A] CALL_SUBROUTINE(address=0x2A5E)
 95: 0x11AC [0x52] END_LOAD_SCHEDULER: End scheduler "s407" with entities [LocalPlayer, LocalPlayer], work=343*
 96: 0x11BB [0x29] REQ_SET_WAIT(priority=0x10, entity_id=Unnamed NPC (ID: 17044030/0x0104123E), tag_num=0x22)
 97: 0x11C2 [0x29] REQ_SET_WAIT(priority=0x10, entity_id=Salwa-Molwa (ID: 17044025/0x01041239), tag_num=0x37)
 98: 0x11C9 [0x29] REQ_SET_WAIT(priority=0x10, entity_id=Clavauert (ID: 17044027/0x0104123B), tag_num=0x2A)
 99: 0x11D0 [0xBA] SET_ENTITY_POSITION(entity_id=LocalPlayer, pos_x=-40.395*, pos_z=-99.066*, pos_y=5.876*, direction=110.3°*)
100: 0x11DD [0x4A] LocalPlayer looks at Unnamed NPC (ID: 17044030/0x0104123E)
101: 0x11E6 [0x4A] Clavauert (ID: 17044027/0x0104123B) looks at Unnamed NPC (ID: 17044030/0x0104123E)
102: 0x11EF [0x4A] Salwa-Molwa (ID: 17044025/0x01041239) looks at Unnamed NPC (ID: 17044030/0x0104123E)
103: 0x11F8 [0x6F] WAIT_FRAME_DELAY: Yield until WaitTime reaches zero
104: 0x11F9 [0x76] CHECK_ENTITY_RENDER_FLAGS: Wait until Salwa-Molwa (ID: 17044025/0x01041239) Render.Flags0 and Render.Flags3 conditions are met
105: 0x11FE [0x1C] WAIT(90* ticks)
106: 0x1201 [0x45] LOAD_SCHEDULED_TASK: Load scheduler "s408" with entities [LocalPlayer, LocalPlayer], work=[343*, 0*]
107: 0x1212 [0x1A] CALL_SUBROUTINE(address=0x2A3D)
108: 0x1215 [0x1C] WAIT(300* ticks)
109: 0x1218 [0x27] REQ_SET(priority=0x10, entity_id=Clavauert (ID: 17044027/0x0104123B), tag_num=0x2B)
110: 0x121F [0x2B] Clavauert (ID: 17044027/0x0104123B) [8436*]:
    → "Let me make sure her print is the same as the one at the entrance."
111: 0x1226 [0x23] WAIT_FOR_DIALOG_INTERACTION
112: 0x1227 [0x2A] GET_REQ_LEVEL(level=16, entity_id=Clavauert (ID: 17044027/0x0104123B))
113: 0x122D [0x52] END_LOAD_SCHEDULER: End scheduler "s408" with entities [LocalPlayer, LocalPlayer], work=343*
114: 0x123C [0x45] LOAD_SCHEDULED_TASK: Load scheduler "s409" with entities [LocalPlayer, LocalPlayer], work=[343*, 0*]
