# 17044027 - Clavauert

## Common Data

| Field            | Value           |
|------------------|-----------------|
| Zone             | Mamook (ID: 65) |
| Block Size       | 2380 bytes      |
| Total Events     | 70              |
| References Count | 89              |

## List of Events

| Event ID                   | Entrypoint   |   Size |   Instructions |
|----------------------------|--------------|--------|----------------|
| [65535](#event-65535)      | 0x0000       |      1 |              1 |
| [65535.1](#event-655351)   | 0x0001       |      9 |              3 |
| [65535.2](#event-655352)   | 0x000A       |      3 |              2 |
| [65535.3](#event-655353)   | 0x000D       |      3 |              2 |
| [65535.4](#event-655354)   | 0x0010       |      9 |              3 |
| [65535.5](#event-655355)   | 0x0019       |      1 |              1 |
| [65535.6](#event-655356)   | 0x001A       |     10 |              2 |
| [65535.7](#event-655357)   | 0x0024       |      8 |              4 |
| [65535.8](#event-655358)   | 0x002C       |     16 |              4 |
| [65535.9](#event-655359)   | 0x003C       |     27 |              5 |
| [65535.10](#event-6553510) | 0x0057       |     62 |             12 |
| [65535.11](#event-6553511) | 0x0095       |     27 |              3 |
| [65535.12](#event-6553512) | 0x00B0       |     32 |              4 |
| [65535.13](#event-6553513) | 0x00D0       |     29 |              3 |
| [65535.14](#event-6553514) | 0x00ED       |     16 |              4 |
| [65535.15](#event-6553515) | 0x00FD       |     50 |             10 |
| [65535.16](#event-6553516) | 0x012F       |     37 |              7 |
| [65535.17](#event-6553517) | 0x0154       |     16 |              4 |
| [65535.18](#event-6553518) | 0x0164       |     16 |              4 |
| [65535.19](#event-6553519) | 0x0174       |     29 |              3 |
| [65535.20](#event-6553520) | 0x0191       |     29 |              3 |
| [65535.21](#event-6553521) | 0x01AE       |     50 |             10 |
| [222](#event-222)          | 0x01E0       |      1 |              1 |
| [227](#event-227)          | 0x01E1       |      1 |              1 |
| [65535.22](#event-6553522) | 0x01E2       |     10 |              2 |
| [65535.23](#event-6553523) | 0x01EC       |     15 |              5 |
| [65535.24](#event-6553524) | 0x01FB       |     16 |              4 |
| [65535.25](#event-6553525) | 0x020B       |      9 |              3 |
| [65535.26](#event-6553526) | 0x0214       |     18 |              4 |
| [65535.27](#event-6553527) | 0x0226       |     53 |             10 |
| [65535.28](#event-6553528) | 0x025B       |     42 |              4 |
| [65535.29](#event-6553529) | 0x0285       |     29 |              3 |
| [65535.30](#event-6553530) | 0x02A2       |     26 |              6 |
| [223](#event-223)          | 0x02BC       |      1 |              1 |
| [224](#event-224)          | 0x02BD       |      1 |              1 |
| [65535.31](#event-6553531) | 0x02BE       |     10 |              2 |
| [65535.32](#event-6553532) | 0x02C8       |     32 |              6 |
| [65535.33](#event-6553533) | 0x02E8       |     27 |              5 |
| [65535.34](#event-6553534) | 0x0303       |     45 |              6 |
| [65535.35](#event-6553535) | 0x0330       |     27 |              5 |
| [65535.36](#event-6553536) | 0x034B       |     47 |             13 |
| [65535.37](#event-6553537) | 0x037A       |     32 |              8 |
| [65535.38](#event-6553538) | 0x039A       |      8 |              2 |
| [65535.39](#event-6553539) | 0x03A2       |     57 |              5 |
| [65535.40](#event-6553540) | 0x03DB       |     57 |              5 |
| [65535.41](#event-6553541) | 0x0414       |     37 |              7 |
| [65535.42](#event-6553542) | 0x0439       |     21 |              5 |
| [65535.43](#event-6553543) | 0x044E       |     24 |              4 |
| [65535.44](#event-6553544) | 0x0466       |    102 |             14 |
| [65535.45](#event-6553545) | 0x04CC       |      1 |              1 |
| [65535.46](#event-6553546) | 0x04CD       |      8 |              2 |
| [65535.47](#event-6553547) | 0x04D5       |     21 |              5 |
| [225](#event-225)          | 0x04EA       |      1 |              1 |
| [65535.48](#event-6553548) | 0x04EB       |     10 |              2 |
| [65535.49](#event-6553549) | 0x04F5       |     15 |              5 |
| [65535.50](#event-6553550) | 0x0504       |     15 |              5 |
| [65535.51](#event-6553551) | 0x0513       |     16 |              4 |
| [65535.52](#event-6553552) | 0x0523       |    103 |             16 |
| [65535.53](#event-6553553) | 0x058A       |     65 |              8 |
| [65535.54](#event-6553554) | 0x05CB       |     20 |              6 |
| [65535.55](#event-6553555) | 0x05DF       |     29 |              3 |
| [65535.56](#event-6553556) | 0x05FC       |     37 |              5 |
| [65535.57](#event-6553557) | 0x0621       |     15 |              5 |
| [65535.58](#event-6553558) | 0x0630       |     13 |              3 |
| [65535.59](#event-6553559) | 0x063D       |     25 |              6 |
| [65535.60](#event-6553560) | 0x0656       |     20 |              6 |
| [65535.61](#event-6553561) | 0x066A       |     11 |              3 |
| [65535.62](#event-6553562) | 0x0675       |     23 |              7 |
| [65535.63](#event-6553563) | 0x068C       |     38 |              6 |
| [65535.64](#event-6553564) | 0x06B2       |     14 |              4 |

## DAT References (imed_data)

|   Index | Hex Value   |   Dec Value |
|---------|-------------|-------------|
|       0 | 0xA5A82     |      678530 |
|       1 | 0x31FA7     |      204711 |
|       2 | 0xFFFFC1AB  |  4294951339 |
|       3 | 0x0400      |        1024 |
|       4 | 0x000D      |          13 |
|       5 | 0x005A      |          90 |
|       6 | 0x003C      |          60 |
|       7 | 0x0000      |           0 |
|       8 | 0xFFFFFED4  |  4294966996 |
|       9 | 0x00C8      |         200 |
|      10 | 0x05DC      |        1500 |
|      11 | 0x03E8      |        1000 |
|      12 | 0x000A      |          10 |
|      13 | 0x001D      |          29 |
|      14 | 0x0015      |          21 |
|      15 | 0x0600      |        1536 |
|      16 | 0x09C4      |        2500 |
|      17 | 0xFFFFFC00  |  4294966272 |
|      18 | 0x0020      |          32 |
|      19 | 0x0078      |         120 |
|      20 | 0x0014      |          20 |
|      21 | 0x35CD8     |      220376 |
|      22 | 0xFFFE9155  |  4294873429 |
|      23 | 0xFFFF99EA  |  4294941162 |
|      24 | 0x0416      |        1046 |
|      25 | 0x35A8C     |      219788 |
|      26 | 0xFFFE7C9F  |  4294868127 |
|      27 | 0xFFFFA086  |  4294942854 |
|      28 | 0xFFFFFF38  |  4294967096 |
|      29 | 0x00A0      |         160 |
|      30 | 0x0028      |          40 |
|      31 | 0x34DC1     |      216513 |
|      32 | 0xFFFE71FE  |  4294865406 |
|      33 | 0xFFFFA29E  |  4294943390 |
|      34 | 0x083D      |        2109 |
|      35 | 0x001E      |          30 |
|      36 | 0x2D48E     |      185486 |
|      37 | 0xFFFE7BA6  |  4294867878 |
|      38 | 0xFFFFABF9  |  4294945785 |
|      39 | 0xFFFF30E6  |  4294914278 |
|      40 | 0xFFFE7895  |  4294867093 |
|      41 | 0x1752      |        5970 |
|      42 | 0x008C      |         140 |
|      43 | 0x0190      |         400 |
|      44 | 0x04B0      |        1200 |
|      45 | 0xFFFF6566  |  4294927718 |
|      46 | 0xFFFE74FD  |  4294866173 |
|      47 | 0x16DD      |        5853 |
|      48 | 0xFFFF633F  |  4294927167 |
|      49 | 0xFFFE7723  |  4294866723 |
|      50 | 0x1722      |        5922 |
|      51 | 0x0007      |           7 |
|      52 | 0x0005      |           5 |
|      53 | 0x0050      |          80 |
|      54 | 0xFFFF6027  |  4294926375 |
|      55 | 0xFFFE77BF  |  4294866879 |
|      56 | 0x172D      |        5933 |
|      57 | 0xFFFF5B43  |  4294925123 |
|      58 | 0xFFFE7774  |  4294866804 |
|      59 | 0x174D      |        5965 |
|      60 | 0x0AA1      |        2721 |
|      61 | 0xFFFF3F34  |  4294917940 |
|      62 | 0xFFFE6F2D  |  4294864685 |
|      63 | 0x16EA      |        5866 |
|      64 | 0xFFFF3B96  |  4294917014 |
|      65 | 0xFFFE74E7  |  4294866151 |
|      66 | 0x175B      |        5979 |
|      67 | 0x0016      |          22 |
|      68 | 0xFFFF3CE8  |  4294917352 |
|      69 | 0xFFFE786B  |  4294867051 |
|      70 | 0x1770      |        6000 |
|      71 | 0x031F      |         799 |
|      72 | 0xFFFF33E2  |  4294915042 |
|      73 | 0xFFFE78B3  |  4294867123 |
|      74 | 0x1740      |        5952 |
|      75 | 0xFFFF377C  |  4294915964 |
|      76 | 0xFFFE7AA5  |  4294867621 |
|      77 | 0x174E      |        5966 |
|      78 | 0xFFFF2F98  |  4294913944 |
|      79 | 0xFFFE7C02  |  4294867970 |
|      80 | 0x174A      |        5962 |
|      81 | 0xFFFF2C6D  |  4294913133 |
|      82 | 0xFFFE8103  |  4294869251 |
|      83 | 0x1738      |        5944 |
|      84 | 0x0010      |          16 |
|      85 | 0x0708      |        1800 |
|      86 | 0xFFFF200A  |  4294909962 |
|      87 | 0xFFFEA256  |  4294877782 |
|      88 | 0x17FD      |        6141 |

## Events

### Event 65535

#### Metadata

| Field        | Value   |
|--------------|---------|
| Entrypoint   | 0x0000  |
| Data Size    | 1 bytes |
| Instructions | 1       |

```
      00 01 02 03 04 05 06 07  08 09 0A 0B 0C 0D 0E 0F
      -- -- -- -- -- -- -- --  -- -- -- -- -- -- -- --
0000: 00                                                .               
```

#### Opcodes

```
  0: 0x0000 [0x00] END_REQSTACK()
```

### Event 65535.1

#### Metadata

| Field        | Value   |
|--------------|---------|
| Entrypoint   | 0x0001  |
| Data Size    | 9 bytes |
| Instructions | 3       |

```
      00 01 02 03 04 05 06 07  08 09 0A 0B 0C 0D 0E 0F
      -- -- -- -- -- -- -- --  -- -- -- -- -- -- -- --
0000:    22 00 2F 00 F8 FF FF  7F 00                     "./......      
```

#### Opcodes

```
  0: 0x0001 [0x22] ENTITY_HIDE_FLAG(enabled=0x00)
  1: 0x0003 [0x2F] EventEntity->Render.Flags0 &= ~0x80000 // Bit 19
  2: 0x0009 [0x00] END_REQSTACK()
```

### Event 65535.2

#### Metadata

| Field        | Value   |
|--------------|---------|
| Entrypoint   | 0x000A  |
| Data Size    | 3 bytes |
| Instructions | 2       |

```
      00 01 02 03 04 05 06 07  08 09 0A 0B 0C 0D 0E 0F
      -- -- -- -- -- -- -- --  -- -- -- -- -- -- -- --
0000:                                22 01 00                     "..   
```

#### Opcodes

```
  0: 0x000A [0x22] ENTITY_HIDE_FLAG(enabled=0x01)
  1: 0x000C [0x00] END_REQSTACK()
```

### Event 65535.3

#### Metadata

| Field        | Value   |
|--------------|---------|
| Entrypoint   | 0x000D  |
| Data Size    | 3 bytes |
| Instructions | 2       |

```
      00 01 02 03 04 05 06 07  08 09 0A 0B 0C 0D 0E 0F
      -- -- -- -- -- -- -- --  -- -- -- -- -- -- -- --
0000:                                         22 00 00               "..
```

#### Opcodes

```
  0: 0x000D [0x22] ENTITY_HIDE_FLAG(enabled=0x00)
  1: 0x000F [0x00] END_REQSTACK()
```

### Event 65535.4

#### Metadata

| Field        | Value   |
|--------------|---------|
| Entrypoint   | 0x0010  |
| Data Size    | 9 bytes |
| Instructions | 3       |

```
      00 01 02 03 04 05 06 07  08 09 0A 0B 0C 0D 0E 0F
      -- -- -- -- -- -- -- --  -- -- -- -- -- -- -- --
0010: 22 01 2F 01 F8 FF FF 7F  00                       "./......       
```

#### Opcodes

```
  0: 0x0010 [0x22] ENTITY_HIDE_FLAG(enabled=0x01)
  1: 0x0012 [0x2F] EventEntity->Render.Flags0 |= 0x80000 // Bit 19
  2: 0x0018 [0x00] END_REQSTACK()
```

### Event 65535.5

#### Metadata

| Field        | Value   |
|--------------|---------|
| Entrypoint   | 0x0019  |
| Data Size    | 1 bytes |
| Instructions | 1       |

```
      00 01 02 03 04 05 06 07  08 09 0A 0B 0C 0D 0E 0F
      -- -- -- -- -- -- -- --  -- -- -- -- -- -- -- --
0010:                             00                             .      
```

#### Opcodes

```
  0: 0x0019 [0x00] END_REQSTACK()
```

### Event 65535.6

#### Metadata

| Field        | Value    |
|--------------|----------|
| Entrypoint   | 0x001A   |
| Data Size    | 10 bytes |
| Instructions | 2        |

```
      00 01 02 03 04 05 06 07  08 09 0A 0B 0C 0D 0E 0F
      -- -- -- -- -- -- -- --  -- -- -- -- -- -- -- --
0010:                                37 00 80 01 80 02            7.....
0020: 80 03 80 00                                       ....            
```

#### Opcodes

```
  0: 0x001A [0x37] UPDATE_EVENT_POSITION_AND_DIR: x=678.530*, z=204.711*, y=-15.957*, direction=90.0째*
  1: 0x0023 [0x00] END_REQSTACK()
```

### Event 65535.7

#### Metadata

| Field        | Value   |
|--------------|---------|
| Entrypoint   | 0x0024  |
| Data Size    | 8 bytes |
| Instructions | 4       |

```
      00 01 02 03 04 05 06 07  08 09 0A 0B 0C 0D 0E 0F
      -- -- -- -- -- -- -- --  -- -- -- -- -- -- -- --
0020:             1E F0 FF FF  7F 6F 70 00                  .....op.    
```

#### Opcodes

```
  0: 0x0024 [0x1E] EventEntity looks at LocalPlayer and starts talking
  1: 0x0029 [0x6F] WAIT_FRAME_DELAY: Yield until WaitTime reaches zero
  2: 0x002A [0x70] WAIT_ENTITY_RENDER_FLAG: Wait while EventEntity->Render.Flags3 bit 2 is set (cancel turn if not)
  3: 0x002B [0x00] END_REQSTACK()
```

### Event 65535.8

#### Metadata

| Field        | Value    |
|--------------|----------|
| Entrypoint   | 0x002C   |
| Data Size    | 16 bytes |
| Instructions | 4        |

```
      00 01 02 03 04 05 06 07  08 09 0A 0B 0C 0D 0E 0F
      -- -- -- -- -- -- -- --  -- -- -- -- -- -- -- --
0020:                                      6E F8 FF FF              n...
0030: 7F 04 80 99 F8 FF FF 7F  1C 05 80 00              ............    
```

#### Opcodes

```
  0: 0x002C [0x6E] EventEntity uses emote 13*
  1: 0x0033 [0x99] Wait for EventEntity animation to complete
  2: 0x0038 [0x1C] WAIT(90* ticks)
  3: 0x003B [0x00] END_REQSTACK()
```

### Event 65535.9

#### Metadata

| Field        | Value    |
|--------------|----------|
| Entrypoint   | 0x003C   |
| Data Size    | 27 bytes |
| Instructions | 5        |

```
      00 01 02 03 04 05 06 07  08 09 0A 0B 0C 0D 0E 0F
      -- -- -- -- -- -- -- --  -- -- -- -- -- -- -- --
0030:                                      1C 06 80 79              ...y
0040: 02 F8 FF FF 7F 07 80 08  80 1C 05 80 79 02 F8 FF  ............y...
0050: FF 7F 09 80 09 80 00                              .......         
```

#### Opcodes

```
  0: 0x003C [0x1C] WAIT(60* ticks)
  1: 0x003F [0x79] EventEntity looks at Unknown NPC (ID: 2148040711/0x80088007) (Direct axis set)
  2: 0x0049 [0x1C] WAIT(90* ticks)
  3: 0x004C [0x79] EventEntity looks at Unknown NPC (ID: 2148106249/0x80098009) (Direct axis set)
  4: 0x0056 [0x00] END_REQSTACK()
```

### Event 65535.10

#### Metadata

| Field        | Value    |
|--------------|----------|
| Entrypoint   | 0x0057   |
| Data Size    | 62 bytes |
| Instructions | 12       |

```
      00 01 02 03 04 05 06 07  08 09 0A 0B 0C 0D 0E 0F
      -- -- -- -- -- -- -- --  -- -- -- -- -- -- -- --
0050:                      3B  F8 FF FF 7F 00 00 01 00         ;........
0060: 02 00 3A F8 FF FF 7F 03  00 17 04 00 03 00 0A 80  ..:.............
0070: 16 05 00 03 00 0A 80 07  00 00 04 00 07 01 00 05  ................
0080: 00 08 02 00 0B 80 32 04  80 1F 00 00 00 01 00 02  ......2.........
0090: 00 1F 01 6F 00                                    ...o.           
```

#### Opcodes

```
  0: 0x0057 [0x3B] GET_ENTITY_POSITION(entity=EventEntity, x_destination=ExtData[1]->WorkLocal[0], y_destination=ExtData[1]->WorkLocal[1], z_destination=ExtData[1]->WorkLocal[2])
  1: 0x0062 [0x3A] CONVERT_YAW_TO_BYTE(entity=EventEntity, result_destination=ExtData[1]->WorkLocal[3])
  2: 0x0069 [0x17] ExtData[1]->WorkLocal[4] = cos(ExtData[1]->WorkLocal[3]) * 1500*
  3: 0x0070 [0x16] ExtData[1]->WorkLocal[5] = sin(ExtData[1]->WorkLocal[3]) * 1500*
  4: 0x0077 [0x07] ExtData[1]->WorkLocal[0] += ExtData[1]->WorkLocal[4]
  5: 0x007C [0x07] ExtData[1]->WorkLocal[1] += ExtData[1]->WorkLocal[5]
  6: 0x0081 [0x08] ExtData[1]->WorkLocal[2] -= 1000*
  7: 0x0086 [0x32] ExtData[1]->MainSpeed = 13* * 0.1
  8: 0x0089 [0x1F] MOVE_ENTITY: EventEntity moves to X=ExtData[1]->WorkLocal[0], Z=ExtData[1]->WorkLocal[1], Y=ExtData[1]->WorkLocal[2]
  9: 0x0091 [0x1F] MOVE_ENTITY: Update entity position (mode=1)
 10: 0x0093 [0x6F] WAIT_FRAME_DELAY: Yield until WaitTime reaches zero
 11: 0x0094 [0x00] END_REQSTACK()
```

### Event 65535.11

#### Metadata

| Field        | Value    |
|--------------|----------|
| Entrypoint   | 0x0095   |
| Data Size    | 27 bytes |
| Instructions | 3        |

```
      00 01 02 03 04 05 06 07  08 09 0A 0B 0C 0D 0E 0F
      -- -- -- -- -- -- -- --  -- -- -- -- -- -- -- --
0090:                2C F8 FF  FF 7F F8 FF FF 7F 63 6F       ,........co
00A0: 72 70 53 F8 FF FF 7F F8  FF FF 7F 63 6F 72 70 00  rpS........corp.
```

#### Opcodes

```
  0: 0x0095 [0x2C] CREATE_SCHEDULER_TASK: Create scheduler "corp" with entities [EventEntity, EventEntity]
  1: 0x00A2 [0x53] WAIT_SCHEDULER_TASK: Wait for scheduler "corp" with entities [EventEntity, EventEntity]
  2: 0x00AF [0x00] END_REQSTACK()
```

### Event 65535.12

#### Metadata

| Field        | Value    |
|--------------|----------|
| Entrypoint   | 0x00B0   |
| Data Size    | 32 bytes |
| Instructions | 4        |

```
      00 01 02 03 04 05 06 07  08 09 0A 0B 0C 0D 0E 0F
      -- -- -- -- -- -- -- --  -- -- -- -- -- -- -- --
00B0: 1C 0C 80 66 0D 80 F8 FF  FF 7F F8 FF FF 7F 73 68  ...f..........sh
00C0: 61 30 53 F8 FF FF 7F F8  FF FF 7F 73 68 61 30 00  a0S........sha0.
```

#### Opcodes

```
  0: 0x00B0 [0x1C] WAIT(10* ticks)
  1: 0x00B3 [0x66] LOAD_EXT_SCHEDULER_MAIN: Load scheduler "sha0" with entities [EventEntity, EventEntity], work=29*
  2: 0x00C2 [0x53] WAIT_SCHEDULER_TASK: Wait for scheduler "sha0" with entities [EventEntity, EventEntity]
  3: 0x00CF [0x00] END_REQSTACK()
```

### Event 65535.13

#### Metadata

| Field        | Value    |
|--------------|----------|
| Entrypoint   | 0x00D0   |
| Data Size    | 29 bytes |
| Instructions | 3        |

```
      00 01 02 03 04 05 06 07  08 09 0A 0B 0C 0D 0E 0F
      -- -- -- -- -- -- -- --  -- -- -- -- -- -- -- --
00D0: 66 0D 80 F8 FF FF 7F F8  FF FF 7F 73 68 61 31 53  f..........sha1S
00E0: F8 FF FF 7F F8 FF FF 7F  73 68 61 31 00           ........sha1.   
```

#### Opcodes

```
  0: 0x00D0 [0x66] LOAD_EXT_SCHEDULER_MAIN: Load scheduler "sha1" with entities [EventEntity, EventEntity], work=29*
  1: 0x00DF [0x53] WAIT_SCHEDULER_TASK: Wait for scheduler "sha1" with entities [EventEntity, EventEntity]
  2: 0x00EC [0x00] END_REQSTACK()
```

### Event 65535.14

#### Metadata

| Field        | Value    |
|--------------|----------|
| Entrypoint   | 0x00ED   |
| Data Size    | 16 bytes |
| Instructions | 4        |

```
      00 01 02 03 04 05 06 07  08 09 0A 0B 0C 0D 0E 0F
      -- -- -- -- -- -- -- --  -- -- -- -- -- -- -- --
00E0:                                         6E F8 FF               n..
00F0: FF 7F 0E 80 99 F8 FF FF  7F 1C 05 80 00           .............   
```

#### Opcodes

```
  0: 0x00ED [0x6E] EventEntity uses emote 21*
  1: 0x00F4 [0x99] Wait for EventEntity animation to complete
  2: 0x00F9 [0x1C] WAIT(90* ticks)
  3: 0x00FC [0x00] END_REQSTACK()
```

### Event 65535.15

#### Metadata

| Field        | Value    |
|--------------|----------|
| Entrypoint   | 0x00FD   |
| Data Size    | 50 bytes |
| Instructions | 10       |

```
      00 01 02 03 04 05 06 07  08 09 0A 0B 0C 0D 0E 0F
      -- -- -- -- -- -- -- --  -- -- -- -- -- -- -- --
00F0:                                         3B F8 FF               ;..
0100: FF 7F 00 00 01 00 02 00  17 04 00 0F 80 10 80 16  ................
0110: 05 00 0F 80 10 80 07 00  00 04 00 07 01 00 05 00  ................
0120: 32 04 80 1F 00 00 00 01  00 02 00 1F 01 6F 00     2............o. 
```

#### Opcodes

```
  0: 0x00FD [0x3B] GET_ENTITY_POSITION(entity=EventEntity, x_destination=ExtData[1]->WorkLocal[0], y_destination=ExtData[1]->WorkLocal[1], z_destination=ExtData[1]->WorkLocal[2])
  1: 0x0108 [0x17] ExtData[1]->WorkLocal[4] = cos(1536*) * 2500*
  2: 0x010F [0x16] ExtData[1]->WorkLocal[5] = sin(1536*) * 2500*
  3: 0x0116 [0x07] ExtData[1]->WorkLocal[0] += ExtData[1]->WorkLocal[4]
  4: 0x011B [0x07] ExtData[1]->WorkLocal[1] += ExtData[1]->WorkLocal[5]
  5: 0x0120 [0x32] ExtData[1]->MainSpeed = 13* * 0.1
  6: 0x0123 [0x1F] MOVE_ENTITY: EventEntity moves to X=ExtData[1]->WorkLocal[0], Z=ExtData[1]->WorkLocal[1], Y=ExtData[1]->WorkLocal[2]
  7: 0x012B [0x1F] MOVE_ENTITY: Update entity position (mode=1)
  8: 0x012D [0x6F] WAIT_FRAME_DELAY: Yield until WaitTime reaches zero
  9: 0x012E [0x00] END_REQSTACK()
```

### Event 65535.16

#### Metadata

| Field        | Value    |
|--------------|----------|
| Entrypoint   | 0x012F   |
| Data Size    | 37 bytes |
| Instructions | 7        |

```
      00 01 02 03 04 05 06 07  08 09 0A 0B 0C 0D 0E 0F
      -- -- -- -- -- -- -- --  -- -- -- -- -- -- -- --
0120:                                               79                 y
0130: 02 F8 FF FF 7F 07 80 03  80 1C 05 80 7B F8 FF FF  ............{...
0140: 7F 79 02 F8 FF FF 7F 07  80 11 80 1C 05 80 7B F8  .y............{.
0150: FF FF 7F 00                                       ....            
```

#### Opcodes

```
  0: 0x012F [0x79] EventEntity looks at Unknown NPC (ID: 2147713031/0x80038007) (Direct axis set)
  1: 0x0139 [0x1C] WAIT(90* ticks)
  2: 0x013C [0x7B] EventEntity stops talking
  3: 0x0141 [0x79] EventEntity looks at Unknown NPC (ID: 2148630535/0x80118007) (Direct axis set)
  4: 0x014B [0x1C] WAIT(90* ticks)
  5: 0x014E [0x7B] EventEntity stops talking
  6: 0x0153 [0x00] END_REQSTACK()
```

### Event 65535.17

#### Metadata

| Field        | Value    |
|--------------|----------|
| Entrypoint   | 0x0154   |
| Data Size    | 16 bytes |
| Instructions | 4        |

```
      00 01 02 03 04 05 06 07  08 09 0A 0B 0C 0D 0E 0F
      -- -- -- -- -- -- -- --  -- -- -- -- -- -- -- --
0150:             6E F8 FF FF  7F 12 80 99 F8 FF FF 7F      n...........
0160: 1C 13 80 00                                       ....            
```

#### Opcodes

```
  0: 0x0154 [0x6E] EventEntity uses emote 32*
  1: 0x015B [0x99] Wait for EventEntity animation to complete
  2: 0x0160 [0x1C] WAIT(120* ticks)
  3: 0x0163 [0x00] END_REQSTACK()
```

### Event 65535.18

#### Metadata

| Field        | Value    |
|--------------|----------|
| Entrypoint   | 0x0164   |
| Data Size    | 16 bytes |
| Instructions | 4        |

```
      00 01 02 03 04 05 06 07  08 09 0A 0B 0C 0D 0E 0F
      -- -- -- -- -- -- -- --  -- -- -- -- -- -- -- --
0160:             6E F8 FF FF  7F 14 80 99 F8 FF FF 7F      n...........
0170: 1C 05 80 00                                       ....            
```

#### Opcodes

```
  0: 0x0164 [0x6E] EventEntity uses emote 20*
  1: 0x016B [0x99] Wait for EventEntity animation to complete
  2: 0x0170 [0x1C] WAIT(90* ticks)
  3: 0x0173 [0x00] END_REQSTACK()
```

### Event 65535.19

#### Metadata

| Field        | Value    |
|--------------|----------|
| Entrypoint   | 0x0174   |
| Data Size    | 29 bytes |
| Instructions | 3        |

```
      00 01 02 03 04 05 06 07  08 09 0A 0B 0C 0D 0E 0F
      -- -- -- -- -- -- -- --  -- -- -- -- -- -- -- --
0170:             66 0D 80 F8  FF FF 7F F8 FF FF 7F 74      f..........t
0180: 6C 6B 30 53 F8 FF FF 7F  F8 FF FF 7F 74 6C 6B 30  lk0S........tlk0
0190: 00                                                .               
```

#### Opcodes

```
  0: 0x0174 [0x66] LOAD_EXT_SCHEDULER_MAIN: Load scheduler "tlk0" with entities [EventEntity, EventEntity], work=29*
  1: 0x0183 [0x53] WAIT_SCHEDULER_TASK: Wait for scheduler "tlk0" with entities [EventEntity, EventEntity]
  2: 0x0190 [0x00] END_REQSTACK()
```

### Event 65535.20

#### Metadata

| Field        | Value    |
|--------------|----------|
| Entrypoint   | 0x0191   |
| Data Size    | 29 bytes |
| Instructions | 3        |

```
      00 01 02 03 04 05 06 07  08 09 0A 0B 0C 0D 0E 0F
      -- -- -- -- -- -- -- --  -- -- -- -- -- -- -- --
0190:    66 0D 80 F8 FF FF 7F  F8 FF FF 7F 74 6C 6B 31   f..........tlk1
01A0: 53 F8 FF FF 7F F8 FF FF  7F 74 6C 6B 31 00        S........tlk1.  
```

#### Opcodes

```
  0: 0x0191 [0x66] LOAD_EXT_SCHEDULER_MAIN: Load scheduler "tlk1" with entities [EventEntity, EventEntity], work=29*
  1: 0x01A0 [0x53] WAIT_SCHEDULER_TASK: Wait for scheduler "tlk1" with entities [EventEntity, EventEntity]
  2: 0x01AD [0x00] END_REQSTACK()
```

### Event 65535.21

#### Metadata

| Field        | Value    |
|--------------|----------|
| Entrypoint   | 0x01AE   |
| Data Size    | 50 bytes |
| Instructions | 10       |

```
      00 01 02 03 04 05 06 07  08 09 0A 0B 0C 0D 0E 0F
      -- -- -- -- -- -- -- --  -- -- -- -- -- -- -- --
01A0:                                            3B F8                ;.
01B0: FF FF 7F 00 00 01 00 02  00 17 04 00 0F 80 10 80  ................
01C0: 16 05 00 0F 80 10 80 07  00 00 04 00 07 01 00 05  ................
01D0: 00 32 04 80 1F 00 00 00  01 00 02 00 1F 01 6F 00  .2............o.
```

#### Opcodes

```
  0: 0x01AE [0x3B] GET_ENTITY_POSITION(entity=EventEntity, x_destination=ExtData[1]->WorkLocal[0], y_destination=ExtData[1]->WorkLocal[1], z_destination=ExtData[1]->WorkLocal[2])
  1: 0x01B9 [0x17] ExtData[1]->WorkLocal[4] = cos(1536*) * 2500*
  2: 0x01C0 [0x16] ExtData[1]->WorkLocal[5] = sin(1536*) * 2500*
  3: 0x01C7 [0x07] ExtData[1]->WorkLocal[0] += ExtData[1]->WorkLocal[4]
  4: 0x01CC [0x07] ExtData[1]->WorkLocal[1] += ExtData[1]->WorkLocal[5]
  5: 0x01D1 [0x32] ExtData[1]->MainSpeed = 13* * 0.1
  6: 0x01D4 [0x1F] MOVE_ENTITY: EventEntity moves to X=ExtData[1]->WorkLocal[0], Z=ExtData[1]->WorkLocal[1], Y=ExtData[1]->WorkLocal[2]
  7: 0x01DC [0x1F] MOVE_ENTITY: Update entity position (mode=1)
  8: 0x01DE [0x6F] WAIT_FRAME_DELAY: Yield until WaitTime reaches zero
  9: 0x01DF [0x00] END_REQSTACK()
```

### Event 222

#### Metadata

| Field        | Value   |
|--------------|---------|
| Entrypoint   | 0x01E0  |
| Data Size    | 1 bytes |
| Instructions | 1       |

```
      00 01 02 03 04 05 06 07  08 09 0A 0B 0C 0D 0E 0F
      -- -- -- -- -- -- -- --  -- -- -- -- -- -- -- --
01E0: 00                                                .               
```

#### Opcodes

```
  0: 0x01E0 [0x00] END_REQSTACK()
```

### Event 227

#### Metadata

| Field        | Value   |
|--------------|---------|
| Entrypoint   | 0x01E1  |
| Data Size    | 1 bytes |
| Instructions | 1       |

```
      00 01 02 03 04 05 06 07  08 09 0A 0B 0C 0D 0E 0F
      -- -- -- -- -- -- -- --  -- -- -- -- -- -- -- --
01E0:    00                                              .              
```

#### Opcodes

```
  0: 0x01E1 [0x00] END_REQSTACK()
```

### Event 65535.22

#### Metadata

| Field        | Value    |
|--------------|----------|
| Entrypoint   | 0x01E2   |
| Data Size    | 10 bytes |
| Instructions | 2        |

```
      00 01 02 03 04 05 06 07  08 09 0A 0B 0C 0D 0E 0F
      -- -- -- -- -- -- -- --  -- -- -- -- -- -- -- --
01E0:       37 15 80 16 80 17  80 18 80 00                7.........    
```

#### Opcodes

```
  0: 0x01E2 [0x37] UPDATE_EVENT_POSITION_AND_DIR: x=220.376*, z=-93.867*, y=-26.134*, direction=91.9째*
  1: 0x01EB [0x00] END_REQSTACK()
```

### Event 65535.23

#### Metadata

| Field        | Value    |
|--------------|----------|
| Entrypoint   | 0x01EC   |
| Data Size    | 15 bytes |
| Instructions | 5        |

```
      00 01 02 03 04 05 06 07  08 09 0A 0B 0C 0D 0E 0F
      -- -- -- -- -- -- -- --  -- -- -- -- -- -- -- --
01E0:                                      32 04 80 1F              2...
01F0: 00 19 80 1A 80 1B 80 1F  01 6F 00                 .........o.     
```

#### Opcodes

```
  0: 0x01EC [0x32] ExtData[1]->MainSpeed = 13* * 0.1
  1: 0x01EF [0x1F] MOVE_ENTITY: EventEntity moves to X=219.788*, Z=-99.169*, Y=-24.442*
  2: 0x01F7 [0x1F] MOVE_ENTITY: Update entity position (mode=1)
  3: 0x01F9 [0x6F] WAIT_FRAME_DELAY: Yield until WaitTime reaches zero
  4: 0x01FA [0x00] END_REQSTACK()
```

### Event 65535.24

#### Metadata

| Field        | Value    |
|--------------|----------|
| Entrypoint   | 0x01FB   |
| Data Size    | 16 bytes |
| Instructions | 4        |

```
      00 01 02 03 04 05 06 07  08 09 0A 0B 0C 0D 0E 0F
      -- -- -- -- -- -- -- --  -- -- -- -- -- -- -- --
01F0:                                   6E F8 FF FF 7F             n....
0200: 0E 80 99 F8 FF FF 7F 1C  05 80 00                 ...........     
```

#### Opcodes

```
  0: 0x01FB [0x6E] EventEntity uses emote 21*
  1: 0x0202 [0x99] Wait for EventEntity animation to complete
  2: 0x0207 [0x1C] WAIT(90* ticks)
  3: 0x020A [0x00] END_REQSTACK()
```

### Event 65535.25

#### Metadata

| Field        | Value   |
|--------------|---------|
| Entrypoint   | 0x020B  |
| Data Size    | 9 bytes |
| Instructions | 3       |

```
      00 01 02 03 04 05 06 07  08 09 0A 0B 0C 0D 0E 0F
      -- -- -- -- -- -- -- --  -- -- -- -- -- -- -- --
0200:                                   5E 69 64 6C 30             ^idl0
0210: 1C 06 80 00                                       ....            
```

#### Opcodes

```
  0: 0x020B [0x5E] EventEntity goes idle (kills current action) (animation: "idl0")
  1: 0x0210 [0x1C] WAIT(60* ticks)
  2: 0x0213 [0x00] END_REQSTACK()
```

### Event 65535.26

#### Metadata

| Field        | Value    |
|--------------|----------|
| Entrypoint   | 0x0214   |
| Data Size    | 18 bytes |
| Instructions | 4        |

```
      00 01 02 03 04 05 06 07  08 09 0A 0B 0C 0D 0E 0F
      -- -- -- -- -- -- -- --  -- -- -- -- -- -- -- --
0210:             59 02 14 80  79 02 F8 FF FF 7F 1C 80      Y...y.......
0220: 1C 80 1C 1D 80 00                                 ......          
```

#### Opcodes

```
  0: 0x0214 [0x59] UPDATE_ENTITY_DATA: Set EventEntity target turn speed head = 20*
  1: 0x0218 [0x79] EventEntity looks at Unknown NPC (ID: 2149351452/0x801C801C) (Direct axis set)
  2: 0x0222 [0x1C] WAIT(160* ticks)
  3: 0x0225 [0x00] END_REQSTACK()
```

### Event 65535.27

#### Metadata

| Field        | Value    |
|--------------|----------|
| Entrypoint   | 0x0226   |
| Data Size    | 53 bytes |
| Instructions | 10       |

```
      00 01 02 03 04 05 06 07  08 09 0A 0B 0C 0D 0E 0F
      -- -- -- -- -- -- -- --  -- -- -- -- -- -- -- --
0220:                   59 02  09 80 7B F8 FF FF 7F 32        Y...{....2
0230: 1E 80 1F 00 1F 80 20 80  21 80 1F 01 6F 59 02 09  ...... .!...oY..
0240: 80 79 02 F8 FF FF 7F 11  80 07 80 66 0D 80 F8 FF  .y.........f....
0250: FF 7F F8 FF FF 7F 73 68  61 30 00                 ......sha0.     
```

#### Opcodes

```
  0: 0x0226 [0x59] UPDATE_ENTITY_DATA: Set EventEntity target turn speed head = 200*
  1: 0x022A [0x7B] EventEntity stops talking
  2: 0x022F [0x32] ExtData[1]->MainSpeed = 40* * 0.1
  3: 0x0232 [0x1F] MOVE_ENTITY: EventEntity moves to X=216.513*, Z=-101.890*, Y=-23.906*
  4: 0x023A [0x1F] MOVE_ENTITY: Update entity position (mode=1)
  5: 0x023C [0x6F] WAIT_FRAME_DELAY: Yield until WaitTime reaches zero
  6: 0x023D [0x59] UPDATE_ENTITY_DATA: Set EventEntity target turn speed head = 200*
  7: 0x0241 [0x79] EventEntity looks at Unknown NPC (ID: 2147975185/0x80078011) (Direct axis set)
  8: 0x024B [0x66] LOAD_EXT_SCHEDULER_MAIN: Load scheduler "sha0" with entities [EventEntity, EventEntity], work=29*
  9: 0x025A [0x00] END_REQSTACK()
```

### Event 65535.28

#### Metadata

| Field        | Value    |
|--------------|----------|
| Entrypoint   | 0x025B   |
| Data Size    | 42 bytes |
| Instructions | 4        |

```
      00 01 02 03 04 05 06 07  08 09 0A 0B 0C 0D 0E 0F
      -- -- -- -- -- -- -- --  -- -- -- -- -- -- -- --
0250:                                   53 F8 FF FF 7F             S....
0260: F8 FF FF 7F 73 68 61 30  66 0D 80 F8 FF FF 7F F8  ....sha0f.......
0270: FF FF 7F 73 69 72 30 53  F8 FF FF 7F F8 FF FF 7F  ...sir0S........
0280: 73 69 72 30 00                                    sir0.           
```

#### Opcodes

```
  0: 0x025B [0x53] WAIT_SCHEDULER_TASK: Wait for scheduler "sha0" with entities [EventEntity, EventEntity]
  1: 0x0268 [0x66] LOAD_EXT_SCHEDULER_MAIN: Load scheduler "sir0" with entities [EventEntity, EventEntity], work=29*
  2: 0x0277 [0x53] WAIT_SCHEDULER_TASK: Wait for scheduler "sir0" with entities [EventEntity, EventEntity]
  3: 0x0284 [0x00] END_REQSTACK()
```

### Event 65535.29

#### Metadata

| Field        | Value    |
|--------------|----------|
| Entrypoint   | 0x0285   |
| Data Size    | 29 bytes |
| Instructions | 3        |

```
      00 01 02 03 04 05 06 07  08 09 0A 0B 0C 0D 0E 0F
      -- -- -- -- -- -- -- --  -- -- -- -- -- -- -- --
0280:                66 0D 80  F8 FF FF 7F F8 FF FF 7F       f..........
0290: 73 68 61 31 53 F8 FF FF  7F F8 FF FF 7F 73 68 61  sha1S........sha
02A0: 31 00                                             1.              
```

#### Opcodes

```
  0: 0x0285 [0x66] LOAD_EXT_SCHEDULER_MAIN: Load scheduler "sha1" with entities [EventEntity, EventEntity], work=29*
  1: 0x0294 [0x53] WAIT_SCHEDULER_TASK: Wait for scheduler "sha1" with entities [EventEntity, EventEntity]
  2: 0x02A1 [0x00] END_REQSTACK()
```

### Event 65535.30

#### Metadata

| Field        | Value    |
|--------------|----------|
| Entrypoint   | 0x02A2   |
| Data Size    | 26 bytes |
| Instructions | 6        |

```
      00 01 02 03 04 05 06 07  08 09 0A 0B 0C 0D 0E 0F
      -- -- -- -- -- -- -- --  -- -- -- -- -- -- -- --
02A0:       7B F8 FF FF 7F 4B  F8 FF FF 7F 22 80 1C 23    {....K...."..#
02B0: 80 1F 00 24 80 25 80 26  80 1F 01 00              ...$.%.&....    
```

#### Opcodes

```
  0: 0x02A2 [0x7B] EventEntity stops talking
  1: 0x02A7 [0x4B] UPDATE_ENTITY_YAW(entity=EventEntity, yaw=11.6째*)
  2: 0x02AE [0x1C] WAIT(30* ticks)
  3: 0x02B1 [0x1F] MOVE_ENTITY: EventEntity moves to X=185.486*, Z=-99.418*, Y=-21.511*
  4: 0x02B9 [0x1F] MOVE_ENTITY: Update entity position (mode=1)
  5: 0x02BB [0x00] END_REQSTACK()
```

### Event 223

#### Metadata

| Field        | Value   |
|--------------|---------|
| Entrypoint   | 0x02BC  |
| Data Size    | 1 bytes |
| Instructions | 1       |

```
      00 01 02 03 04 05 06 07  08 09 0A 0B 0C 0D 0E 0F
      -- -- -- -- -- -- -- --  -- -- -- -- -- -- -- --
02B0:                                      00                       .   
```

#### Opcodes

```
  0: 0x02BC [0x00] END_REQSTACK()
```

### Event 224

#### Metadata

| Field        | Value   |
|--------------|---------|
| Entrypoint   | 0x02BD  |
| Data Size    | 1 bytes |
| Instructions | 1       |

```
      00 01 02 03 04 05 06 07  08 09 0A 0B 0C 0D 0E 0F
      -- -- -- -- -- -- -- --  -- -- -- -- -- -- -- --
02B0:                                         00                     .  
```

#### Opcodes

```
  0: 0x02BD [0x00] END_REQSTACK()
```

### Event 65535.31

#### Metadata

| Field        | Value    |
|--------------|----------|
| Entrypoint   | 0x02BE   |
| Data Size    | 10 bytes |
| Instructions | 2        |

```
      00 01 02 03 04 05 06 07  08 09 0A 0B 0C 0D 0E 0F
      -- -- -- -- -- -- -- --  -- -- -- -- -- -- -- --
02B0:                                            37 27                7'
02C0: 80 28 80 29 80 07 80 00                           .(.)....        
```

#### Opcodes

```
  0: 0x02BE [0x37] UPDATE_EVENT_POSITION_AND_DIR: x=-53.018*, z=-100.203*, y=5.970*, direction=0.0째*
  1: 0x02C7 [0x00] END_REQSTACK()
```

### Event 65535.32

#### Metadata

| Field        | Value    |
|--------------|----------|
| Entrypoint   | 0x02C8   |
| Data Size    | 32 bytes |
| Instructions | 6        |

```
      00 01 02 03 04 05 06 07  08 09 0A 0B 0C 0D 0E 0F
      -- -- -- -- -- -- -- --  -- -- -- -- -- -- -- --
02C0:                          1E 44 12 04 01 3B 44 12          .D...;D.
02D0: 04 01 00 00 01 00 02 00  32 04 80 31 00 00 00 01  ........2..1....
02E0: 00 02 00 2A 80 31 01 00                           ...*.1..        
```

#### Opcodes

```
  0: 0x02C8 [0x1E] EventEntity looks at Unnamed NPC (ID: 17044036/0x01041244) and starts talking
  1: 0x02CD [0x3B] GET_ENTITY_POSITION(entity=Unnamed NPC (ID: 17044036/0x01041244), x_destination=ExtData[1]->WorkLocal[0], y_destination=ExtData[1]->WorkLocal[1], z_destination=ExtData[1]->WorkLocal[2])
  2: 0x02D8 [0x32] ExtData[1]->MainSpeed = 13* * 0.1
  3: 0x02DB [0x31] UPDATE_ENTITY_POSITION: Set EventEntity goal position to X=ExtData[1]->WorkLocal[0], Z=ExtData[1]->WorkLocal[1], Y=ExtData[1]->WorkLocal[2], Time=140*
  4: 0x02E5 [0x31] UPDATE_ENTITY_POSITION: Move EventEntity towards goal position
  5: 0x02E7 [0x00] END_REQSTACK()
```

### Event 65535.33

#### Metadata

| Field        | Value    |
|--------------|----------|
| Entrypoint   | 0x02E8   |
| Data Size    | 27 bytes |
| Instructions | 5        |

```
      00 01 02 03 04 05 06 07  08 09 0A 0B 0C 0D 0E 0F
      -- -- -- -- -- -- -- --  -- -- -- -- -- -- -- --
02E0:                          3B 44 12 04 01 00 00 01          ;D......
02F0: 00 02 00 32 1E 80 31 00  00 00 01 00 02 00 05 80  ...2..1.........
0300: 31 01 00                                          1..             
```

#### Opcodes

```
  0: 0x02E8 [0x3B] GET_ENTITY_POSITION(entity=Unnamed NPC (ID: 17044036/0x01041244), x_destination=ExtData[1]->WorkLocal[0], y_destination=ExtData[1]->WorkLocal[1], z_destination=ExtData[1]->WorkLocal[2])
  1: 0x02F3 [0x32] ExtData[1]->MainSpeed = 40* * 0.1
  2: 0x02F6 [0x31] UPDATE_ENTITY_POSITION: Set EventEntity goal position to X=ExtData[1]->WorkLocal[0], Z=ExtData[1]->WorkLocal[1], Y=ExtData[1]->WorkLocal[2], Time=90*
  3: 0x0300 [0x31] UPDATE_ENTITY_POSITION: Move EventEntity towards goal position
  4: 0x0302 [0x00] END_REQSTACK()
```

### Event 65535.34

#### Metadata

| Field        | Value    |
|--------------|----------|
| Entrypoint   | 0x0303   |
| Data Size    | 45 bytes |
| Instructions | 6        |

```
      00 01 02 03 04 05 06 07  08 09 0A 0B 0C 0D 0E 0F
      -- -- -- -- -- -- -- --  -- -- -- -- -- -- -- --
0300:          79 00 F8 FF FF  7F 44 12 04 01 1C 0C 80     y.....D......
0310: 66 0D 80 F8 FF FF 7F F8  FF FF 7F 73 68 61 30 53  f..........sha0S
0320: F8 FF FF 7F F8 FF FF 7F  73 68 61 30 1C 06 80 00  ........sha0....
```

#### Opcodes

```
  0: 0x0303 [0x79] EventEntity looks at Unnamed NPC (ID: 17044036/0x01041244) (Basic look)
  1: 0x030D [0x1C] WAIT(10* ticks)
  2: 0x0310 [0x66] LOAD_EXT_SCHEDULER_MAIN: Load scheduler "sha0" with entities [EventEntity, EventEntity], work=29*
  3: 0x031F [0x53] WAIT_SCHEDULER_TASK: Wait for scheduler "sha0" with entities [EventEntity, EventEntity]
  4: 0x032C [0x1C] WAIT(60* ticks)
  5: 0x032F [0x00] END_REQSTACK()
```

### Event 65535.35

#### Metadata

| Field        | Value    |
|--------------|----------|
| Entrypoint   | 0x0330   |
| Data Size    | 27 bytes |
| Instructions | 5        |

```
      00 01 02 03 04 05 06 07  08 09 0A 0B 0C 0D 0E 0F
      -- -- -- -- -- -- -- --  -- -- -- -- -- -- -- --
0330: 3B 44 12 04 01 00 00 01  00 02 00 32 04 80 31 00  ;D.........2..1.
0340: 00 00 01 00 02 00 06 80  31 01 00                 ........1..     
```

#### Opcodes

```
  0: 0x0330 [0x3B] GET_ENTITY_POSITION(entity=Unnamed NPC (ID: 17044036/0x01041244), x_destination=ExtData[1]->WorkLocal[0], y_destination=ExtData[1]->WorkLocal[1], z_destination=ExtData[1]->WorkLocal[2])
  1: 0x033B [0x32] ExtData[1]->MainSpeed = 13* * 0.1
  2: 0x033E [0x31] UPDATE_ENTITY_POSITION: Set EventEntity goal position to X=ExtData[1]->WorkLocal[0], Z=ExtData[1]->WorkLocal[1], Y=ExtData[1]->WorkLocal[2], Time=60*
  3: 0x0348 [0x31] UPDATE_ENTITY_POSITION: Move EventEntity towards goal position
  4: 0x034A [0x00] END_REQSTACK()
```

### Event 65535.36

#### Metadata

| Field        | Value    |
|--------------|----------|
| Entrypoint   | 0x034B   |
| Data Size    | 47 bytes |
| Instructions | 13       |

```
      00 01 02 03 04 05 06 07  08 09 0A 0B 0C 0D 0E 0F
      -- -- -- -- -- -- -- --  -- -- -- -- -- -- -- --
0340:                                   3A F8 FF FF 7F             :....
0350: 03 00 07 03 00 2B 80 4B  F8 FF FF 7F 03 00 6F 70  .....+.K......op
0360: 1C 23 80 08 03 00 2C 80  4B F8 FF FF 7F 03 00 6F  .#....,.K......o
0370: 70 1C 23 80 1E 3E 12 04  01 00                    p.#..>....      
```

#### Opcodes

```
  0: 0x034B [0x3A] CONVERT_YAW_TO_BYTE(entity=EventEntity, result_destination=ExtData[1]->WorkLocal[3])
  1: 0x0352 [0x07] ExtData[1]->WorkLocal[3] += 400*
  2: 0x0357 [0x4B] UPDATE_ENTITY_YAW(entity=EventEntity, yaw=ExtData[1]->WorkLocal[3])
  3: 0x035E [0x6F] WAIT_FRAME_DELAY: Yield until WaitTime reaches zero
  4: 0x035F [0x70] WAIT_ENTITY_RENDER_FLAG: Wait while EventEntity->Render.Flags3 bit 2 is set (cancel turn if not)
  5: 0x0360 [0x1C] WAIT(30* ticks)
  6: 0x0363 [0x08] ExtData[1]->WorkLocal[3] -= 1200*
  7: 0x0368 [0x4B] UPDATE_ENTITY_YAW(entity=EventEntity, yaw=ExtData[1]->WorkLocal[3])
  8: 0x036F [0x6F] WAIT_FRAME_DELAY: Yield until WaitTime reaches zero
  9: 0x0370 [0x70] WAIT_ENTITY_RENDER_FLAG: Wait while EventEntity->Render.Flags3 bit 2 is set (cancel turn if not)
 10: 0x0371 [0x1C] WAIT(30* ticks)
 11: 0x0374 [0x1E] EventEntity looks at Unnamed NPC (ID: 17044030/0x0104123E) and starts talking
 12: 0x0379 [0x00] END_REQSTACK()
```

### Event 65535.37

#### Metadata

| Field        | Value    |
|--------------|----------|
| Entrypoint   | 0x037A   |
| Data Size    | 32 bytes |
| Instructions | 8        |

```
      00 01 02 03 04 05 06 07  08 09 0A 0B 0C 0D 0E 0F
      -- -- -- -- -- -- -- --  -- -- -- -- -- -- -- --
0370:                                32 1E 80 1F 00 2D            2....-
0380: 80 2E 80 2F 80 1F 01 6F  1E 3E 12 04 01 6E F8 FF  .../...o.>...n..
0390: FF 7F 0D 80 99 F8 FF FF  7F 00                    ..........      
```

#### Opcodes

```
  0: 0x037A [0x32] ExtData[1]->MainSpeed = 40* * 0.1
  1: 0x037D [0x1F] MOVE_ENTITY: EventEntity moves to X=-39.578*, Z=-101.123*, Y=5.853*
  2: 0x0385 [0x1F] MOVE_ENTITY: Update entity position (mode=1)
  3: 0x0387 [0x6F] WAIT_FRAME_DELAY: Yield until WaitTime reaches zero
  4: 0x0388 [0x1E] EventEntity looks at Unnamed NPC (ID: 17044030/0x0104123E) and starts talking
  5: 0x038D [0x6E] EventEntity uses emote 29*
  6: 0x0394 [0x99] Wait for EventEntity animation to complete
  7: 0x0399 [0x00] END_REQSTACK()
```

### Event 65535.38

#### Metadata

| Field        | Value   |
|--------------|---------|
| Entrypoint   | 0x039A  |
| Data Size    | 8 bytes |
| Instructions | 2       |

```
      00 01 02 03 04 05 06 07  08 09 0A 0B 0C 0D 0E 0F
      -- -- -- -- -- -- -- --  -- -- -- -- -- -- -- --
0390:                                36 30 80 31 80 32            60.1.2
03A0: 80 00                                             ..              
```

#### Opcodes

```
  0: 0x039A [0x36] SET_ENTITY_EVENT_POSITION(pos_x=-40.129*, pos_z=-100.573*, pos_y=5.922*)
  1: 0x03A1 [0x00] END_REQSTACK()
```

### Event 65535.39

#### Metadata

| Field        | Value    |
|--------------|----------|
| Entrypoint   | 0x03A2   |
| Data Size    | 57 bytes |
| Instructions | 5        |

```
      00 01 02 03 04 05 06 07  08 09 0A 0B 0C 0D 0E 0F
      -- -- -- -- -- -- -- --  -- -- -- -- -- -- -- --
03A0:       66 0D 80 F8 FF FF  7F F8 FF FF 7F 73 68 61    f..........sha
03B0: 30 53 F8 FF FF 7F F8 FF  FF 7F 73 68 61 30 66 0D  0S........sha0f.
03C0: 80 F8 FF FF 7F F8 FF FF  7F 73 69 72 30 53 F8 FF  .........sir0S..
03D0: FF 7F F8 FF FF 7F 73 69  72 30 00                 ......sir0.     
```

#### Opcodes

```
  0: 0x03A2 [0x66] LOAD_EXT_SCHEDULER_MAIN: Load scheduler "sha0" with entities [EventEntity, EventEntity], work=29*
  1: 0x03B1 [0x53] WAIT_SCHEDULER_TASK: Wait for scheduler "sha0" with entities [EventEntity, EventEntity]
  2: 0x03BE [0x66] LOAD_EXT_SCHEDULER_MAIN: Load scheduler "sir0" with entities [EventEntity, EventEntity], work=29*
  3: 0x03CD [0x53] WAIT_SCHEDULER_TASK: Wait for scheduler "sir0" with entities [EventEntity, EventEntity]
  4: 0x03DA [0x00] END_REQSTACK()
```

### Event 65535.40

#### Metadata

| Field        | Value    |
|--------------|----------|
| Entrypoint   | 0x03DB   |
| Data Size    | 57 bytes |
| Instructions | 5        |

```
      00 01 02 03 04 05 06 07  08 09 0A 0B 0C 0D 0E 0F
      -- -- -- -- -- -- -- --  -- -- -- -- -- -- -- --
03D0:                                   66 0D 80 F8 FF             f....
03E0: FF 7F F8 FF FF 7F 73 69  72 31 53 F8 FF FF 7F F8  ......sir1S.....
03F0: FF FF 7F 73 69 72 31 66  0D 80 F8 FF FF 7F F8 FF  ...sir1f........
0400: FF 7F 73 68 61 31 53 F8  FF FF 7F F8 FF FF 7F 73  ..sha1S........s
0410: 68 61 31 00                                       ha1.            
```

#### Opcodes

```
  0: 0x03DB [0x66] LOAD_EXT_SCHEDULER_MAIN: Load scheduler "sir1" with entities [EventEntity, EventEntity], work=29*
  1: 0x03EA [0x53] WAIT_SCHEDULER_TASK: Wait for scheduler "sir1" with entities [EventEntity, EventEntity]
  2: 0x03F7 [0x66] LOAD_EXT_SCHEDULER_MAIN: Load scheduler "sha1" with entities [EventEntity, EventEntity], work=29*
  3: 0x0406 [0x53] WAIT_SCHEDULER_TASK: Wait for scheduler "sha1" with entities [EventEntity, EventEntity]
  4: 0x0413 [0x00] END_REQSTACK()
```

### Event 65535.41

#### Metadata

| Field        | Value    |
|--------------|----------|
| Entrypoint   | 0x0414   |
| Data Size    | 37 bytes |
| Instructions | 7        |

```
      00 01 02 03 04 05 06 07  08 09 0A 0B 0C 0D 0E 0F
      -- -- -- -- -- -- -- --  -- -- -- -- -- -- -- --
0410:             6E F8 FF FF  7F 33 80 99 F8 FF FF 7F      n....3......
0420: 1C 05 80 7B F8 FF FF 7F  3B 3D 12 04 01 00 00 01  ...{....;=......
0430: 00 02 00 1E 3D 12 04 01  00                       ....=....       
```

#### Opcodes

```
  0: 0x0414 [0x6E] EventEntity uses emote 7*
  1: 0x041B [0x99] Wait for EventEntity animation to complete
  2: 0x0420 [0x1C] WAIT(90* ticks)
  3: 0x0423 [0x7B] EventEntity stops talking
  4: 0x0428 [0x3B] GET_ENTITY_POSITION(entity=Unnamed NPC (ID: 17044029/0x0104123D), x_destination=ExtData[1]->WorkLocal[0], y_destination=ExtData[1]->WorkLocal[1], z_destination=ExtData[1]->WorkLocal[2])
  5: 0x0433 [0x1E] EventEntity looks at Unnamed NPC (ID: 17044029/0x0104123D) and starts talking
  6: 0x0438 [0x00] END_REQSTACK()
```

### Event 65535.42

#### Metadata

| Field        | Value    |
|--------------|----------|
| Entrypoint   | 0x0439   |
| Data Size    | 21 bytes |
| Instructions | 5        |

```
      00 01 02 03 04 05 06 07  08 09 0A 0B 0C 0D 0E 0F
      -- -- -- -- -- -- -- --  -- -- -- -- -- -- -- --
0430:                             1E 3D 12 04 01 6E F8           .=...n.
0440: FF FF 7F 0E 80 99 F8 FF  FF 7F 1C 06 80 00        ..............  
```

#### Opcodes

```
  0: 0x0439 [0x1E] EventEntity looks at Unnamed NPC (ID: 17044029/0x0104123D) and starts talking
  1: 0x043E [0x6E] EventEntity uses emote 21*
  2: 0x0445 [0x99] Wait for EventEntity animation to complete
  3: 0x044A [0x1C] WAIT(60* ticks)
  4: 0x044D [0x00] END_REQSTACK()
```

### Event 65535.43

#### Metadata

| Field        | Value    |
|--------------|----------|
| Entrypoint   | 0x044E   |
| Data Size    | 24 bytes |
| Instructions | 4        |

```
      00 01 02 03 04 05 06 07  08 09 0A 0B 0C 0D 0E 0F
      -- -- -- -- -- -- -- --  -- -- -- -- -- -- -- --
0440:                                            3B 39                ;9
0450: 12 04 01 00 00 01 00 02  00 31 00 00 00 01 00 02  .........1......
0460: 00 0C 80 31 01 00                                 ...1..          
```

#### Opcodes

```
  0: 0x044E [0x3B] GET_ENTITY_POSITION(entity=Salwa-Molwa (ID: 17044025/0x01041239), x_destination=ExtData[1]->WorkLocal[0], y_destination=ExtData[1]->WorkLocal[1], z_destination=ExtData[1]->WorkLocal[2])
  1: 0x0459 [0x31] UPDATE_ENTITY_POSITION: Set EventEntity goal position to X=ExtData[1]->WorkLocal[0], Z=ExtData[1]->WorkLocal[1], Y=ExtData[1]->WorkLocal[2], Time=10*
  2: 0x0463 [0x31] UPDATE_ENTITY_POSITION: Move EventEntity towards goal position
  3: 0x0465 [0x00] END_REQSTACK()
```

### Event 65535.44

#### Metadata

| Field        | Value     |
|--------------|-----------|
| Entrypoint   | 0x0466    |
| Data Size    | 102 bytes |
| Instructions | 14        |

```
      00 01 02 03 04 05 06 07  08 09 0A 0B 0C 0D 0E 0F
      -- -- -- -- -- -- -- --  -- -- -- -- -- -- -- --
0460:                   3B 39  12 04 01 00 00 01 00 02        ;9........
0470: 00 31 00 00 00 01 00 02  00 0C 80 31 01 1C 34 80  .1.........1..4.
0480: 66 0D 80 F8 FF FF 7F F8  FF FF 7F 73 68 61 30 53  f..........sha0S
0490: F8 FF FF 7F F8 FF FF 7F  73 68 61 30 1C 35 80 66  ........sha0.5.f
04A0: 0D 80 F8 FF FF 7F F8 FF  FF 7F 73 68 61 31 53 F8  ..........sha1S.
04B0: FF FF 7F F8 FF FF 7F 73  68 61 31 1C 23 80 59 00  .......sha1.#.Y.
04C0: 09 80 59 02 09 80 1E 3D  12 04 01 00              ..Y....=....    
```

#### Opcodes

```
  0: 0x0466 [0x3B] GET_ENTITY_POSITION(entity=Salwa-Molwa (ID: 17044025/0x01041239), x_destination=ExtData[1]->WorkLocal[0], y_destination=ExtData[1]->WorkLocal[1], z_destination=ExtData[1]->WorkLocal[2])
  1: 0x0471 [0x31] UPDATE_ENTITY_POSITION: Set EventEntity goal position to X=ExtData[1]->WorkLocal[0], Z=ExtData[1]->WorkLocal[1], Y=ExtData[1]->WorkLocal[2], Time=10*
  2: 0x047B [0x31] UPDATE_ENTITY_POSITION: Move EventEntity towards goal position
  3: 0x047D [0x1C] WAIT(5* ticks)
  4: 0x0480 [0x66] LOAD_EXT_SCHEDULER_MAIN: Load scheduler "sha0" with entities [EventEntity, EventEntity], work=29*
  5: 0x048F [0x53] WAIT_SCHEDULER_TASK: Wait for scheduler "sha0" with entities [EventEntity, EventEntity]
  6: 0x049C [0x1C] WAIT(80* ticks)
  7: 0x049F [0x66] LOAD_EXT_SCHEDULER_MAIN: Load scheduler "sha1" with entities [EventEntity, EventEntity], work=29*
  8: 0x04AE [0x53] WAIT_SCHEDULER_TASK: Wait for scheduler "sha1" with entities [EventEntity, EventEntity]
  9: 0x04BB [0x1C] WAIT(30* ticks)
 10: 0x04BE [0x59] UPDATE_ENTITY_DATA: Set EventEntity target turn speed = 200*
 11: 0x04C2 [0x59] UPDATE_ENTITY_DATA: Set EventEntity target turn speed head = 200*
 12: 0x04C6 [0x1E] EventEntity looks at Unnamed NPC (ID: 17044029/0x0104123D) and starts talking
 13: 0x04CB [0x00] END_REQSTACK()
```

### Event 65535.45

#### Metadata

| Field        | Value   |
|--------------|---------|
| Entrypoint   | 0x04CC  |
| Data Size    | 1 bytes |
| Instructions | 1       |

```
      00 01 02 03 04 05 06 07  08 09 0A 0B 0C 0D 0E 0F
      -- -- -- -- -- -- -- --  -- -- -- -- -- -- -- --
04C0:                                      00                       .   
```

#### Opcodes

```
  0: 0x04CC [0x00] END_REQSTACK()
```

### Event 65535.46

#### Metadata

| Field        | Value   |
|--------------|---------|
| Entrypoint   | 0x04CD  |
| Data Size    | 8 bytes |
| Instructions | 2       |

```
      00 01 02 03 04 05 06 07  08 09 0A 0B 0C 0D 0E 0F
      -- -- -- -- -- -- -- --  -- -- -- -- -- -- -- --
04C0:                                         36 36 80               66.
04D0: 37 80 38 80 00                                    7.8..           
```

#### Opcodes

```
  0: 0x04CD [0x36] SET_ENTITY_EVENT_POSITION(pos_x=-40.921*, pos_z=-100.417*, pos_y=5.933*)
  1: 0x04D4 [0x00] END_REQSTACK()
```

### Event 65535.47

#### Metadata

| Field        | Value    |
|--------------|----------|
| Entrypoint   | 0x04D5   |
| Data Size    | 21 bytes |
| Instructions | 5        |

```
      00 01 02 03 04 05 06 07  08 09 0A 0B 0C 0D 0E 0F
      -- -- -- -- -- -- -- --  -- -- -- -- -- -- -- --
04D0:                6E F8 FF  FF 7F 33 80 99 F8 FF FF       n....3.....
04E0: 7F 99 F8 FF FF 7F 1C 05  80 00                    ..........      
```

#### Opcodes

```
  0: 0x04D5 [0x6E] EventEntity uses emote 7*
  1: 0x04DC [0x99] Wait for EventEntity animation to complete
  2: 0x04E1 [0x99] Wait for EventEntity animation to complete
  3: 0x04E6 [0x1C] WAIT(90* ticks)
  4: 0x04E9 [0x00] END_REQSTACK()
```

### Event 225

#### Metadata

| Field        | Value   |
|--------------|---------|
| Entrypoint   | 0x04EA  |
| Data Size    | 1 bytes |
| Instructions | 1       |

```
      00 01 02 03 04 05 06 07  08 09 0A 0B 0C 0D 0E 0F
      -- -- -- -- -- -- -- --  -- -- -- -- -- -- -- --
04E0:                                00                           .     
```

#### Opcodes

```
  0: 0x04EA [0x00] END_REQSTACK()
```

### Event 65535.48

#### Metadata

| Field        | Value    |
|--------------|----------|
| Entrypoint   | 0x04EB   |
| Data Size    | 10 bytes |
| Instructions | 2        |

```
      00 01 02 03 04 05 06 07  08 09 0A 0B 0C 0D 0E 0F
      -- -- -- -- -- -- -- --  -- -- -- -- -- -- -- --
04E0:                                   37 39 80 3A 80             79.:.
04F0: 3B 80 3C 80 00                                    ;.<..           
```

#### Opcodes

```
  0: 0x04EB [0x37] UPDATE_EVENT_POSITION_AND_DIR: x=-42.173*, z=-100.492*, y=5.965*, direction=239.1째*
  1: 0x04F4 [0x00] END_REQSTACK()
```

### Event 65535.49

#### Metadata

| Field        | Value    |
|--------------|----------|
| Entrypoint   | 0x04F5   |
| Data Size    | 15 bytes |
| Instructions | 5        |

```
      00 01 02 03 04 05 06 07  08 09 0A 0B 0C 0D 0E 0F
      -- -- -- -- -- -- -- --  -- -- -- -- -- -- -- --
04F0:                32 1E 80  1F 00 3D 80 3E 80 3F 80       2....=.>.?.
0500: 1F 01 6F 00                                       ..o.            
```

#### Opcodes

```
  0: 0x04F5 [0x32] ExtData[1]->MainSpeed = 40* * 0.1
  1: 0x04F8 [0x1F] MOVE_ENTITY: EventEntity moves to X=-49.356*, Z=-102.611*, Y=5.866*
  2: 0x0500 [0x1F] MOVE_ENTITY: Update entity position (mode=1)
  3: 0x0502 [0x6F] WAIT_FRAME_DELAY: Yield until WaitTime reaches zero
  4: 0x0503 [0x00] END_REQSTACK()
```

### Event 65535.50

#### Metadata

| Field        | Value    |
|--------------|----------|
| Entrypoint   | 0x0504   |
| Data Size    | 15 bytes |
| Instructions | 5        |

```
      00 01 02 03 04 05 06 07  08 09 0A 0B 0C 0D 0E 0F
      -- -- -- -- -- -- -- --  -- -- -- -- -- -- -- --
0500:             32 1E 80 1F  00 40 80 41 80 42 80 1F      2....@.A.B..
0510: 01 6F 00                                          .o.             
```

#### Opcodes

```
  0: 0x0504 [0x32] ExtData[1]->MainSpeed = 40* * 0.1
  1: 0x0507 [0x1F] MOVE_ENTITY: EventEntity moves to X=-50.282*, Z=-101.145*, Y=5.979*
  2: 0x050F [0x1F] MOVE_ENTITY: Update entity position (mode=1)
  3: 0x0511 [0x6F] WAIT_FRAME_DELAY: Yield until WaitTime reaches zero
  4: 0x0512 [0x00] END_REQSTACK()
```

### Event 65535.51

#### Metadata

| Field        | Value    |
|--------------|----------|
| Entrypoint   | 0x0513   |
| Data Size    | 16 bytes |
| Instructions | 4        |

```
      00 01 02 03 04 05 06 07  08 09 0A 0B 0C 0D 0E 0F
      -- -- -- -- -- -- -- --  -- -- -- -- -- -- -- --
0510:          6E F8 FF FF 7F  43 80 99 F8 FF FF 7F 1C     n....C.......
0520: 05 80 00                                          ...             
```

#### Opcodes

```
  0: 0x0513 [0x6E] EventEntity uses emote 22*
  1: 0x051A [0x99] Wait for EventEntity animation to complete
  2: 0x051F [0x1C] WAIT(90* ticks)
  3: 0x0522 [0x00] END_REQSTACK()
```

### Event 65535.52

#### Metadata

| Field        | Value     |
|--------------|-----------|
| Entrypoint   | 0x0523    |
| Data Size    | 103 bytes |
| Instructions | 16        |

```
      00 01 02 03 04 05 06 07  08 09 0A 0B 0C 0D 0E 0F
      -- -- -- -- -- -- -- --  -- -- -- -- -- -- -- --
0520:          7B F8 FF FF 7F  32 04 80 1F 00 44 80 45     {....2....D.E
0530: 80 46 80 1F 01 6F 3A F8  FF FF 7F 03 00 07 03 00  .F...o:.........
0540: 47 80 4B F8 FF FF 7F 03  00 6F 76 F8 FF FF 7F 79  G.K......ov....y
0550: 00 F8 FF FF 7F 3D 12 04  01 66 0D 80 F8 FF FF 7F  .....=...f......
0560: F8 FF FF 7F 73 68 61 30  7B F8 FF FF 7F 66 0D 80  ....sha0{....f..
0570: F8 FF FF 7F F8 FF FF 7F  73 69 72 30 53 F8 FF FF  ........sir0S...
0580: 7F F8 FF FF 7F 73 69 72  30 00                    .....sir0.      
```

#### Opcodes

```
  0: 0x0523 [0x7B] EventEntity stops talking
  1: 0x0528 [0x32] ExtData[1]->MainSpeed = 13* * 0.1
  2: 0x052B [0x1F] MOVE_ENTITY: EventEntity moves to X=-49.944*, Z=-100.245*, Y=6.000*
  3: 0x0533 [0x1F] MOVE_ENTITY: Update entity position (mode=1)
  4: 0x0535 [0x6F] WAIT_FRAME_DELAY: Yield until WaitTime reaches zero
  5: 0x0536 [0x3A] CONVERT_YAW_TO_BYTE(entity=EventEntity, result_destination=ExtData[1]->WorkLocal[3])
  6: 0x053D [0x07] ExtData[1]->WorkLocal[3] += 799*
  7: 0x0542 [0x4B] UPDATE_ENTITY_YAW(entity=EventEntity, yaw=ExtData[1]->WorkLocal[3])
  8: 0x0549 [0x6F] WAIT_FRAME_DELAY: Yield until WaitTime reaches zero
  9: 0x054A [0x76] CHECK_ENTITY_RENDER_FLAGS: Wait until EventEntity Render.Flags0 and Render.Flags3 conditions are met
 10: 0x054F [0x79] EventEntity looks at Unnamed NPC (ID: 17044029/0x0104123D) (Basic look)
 11: 0x0559 [0x66] LOAD_EXT_SCHEDULER_MAIN: Load scheduler "sha0" with entities [EventEntity, EventEntity], work=29*
 12: 0x0568 [0x7B] EventEntity stops talking
 13: 0x056D [0x66] LOAD_EXT_SCHEDULER_MAIN: Load scheduler "sir0" with entities [EventEntity, EventEntity], work=29*
 14: 0x057C [0x53] WAIT_SCHEDULER_TASK: Wait for scheduler "sir0" with entities [EventEntity, EventEntity]
 15: 0x0589 [0x00] END_REQSTACK()
```

### Event 65535.53

#### Metadata

| Field        | Value    |
|--------------|----------|
| Entrypoint   | 0x058A   |
| Data Size    | 65 bytes |
| Instructions | 8        |

```
      00 01 02 03 04 05 06 07  08 09 0A 0B 0C 0D 0E 0F
      -- -- -- -- -- -- -- --  -- -- -- -- -- -- -- --
0580:                                66 0D 80 F8 FF FF            f.....
0590: 7F F8 FF FF 7F 73 69 72  31 79 00 F8 FF FF 7F 3D  .....sir1y.....=
05A0: 12 04 01 66 0D 80 F8 FF  FF 7F F8 FF FF 7F 73 68  ...f..........sh
05B0: 61 31 53 F8 FF FF 7F F8  FF FF 7F 73 68 61 31 1E  a1S........sha1.
05C0: 39 12 04 01 6F 76 F8 FF  FF 7F 00                 9...ov.....     
```

#### Opcodes

```
  0: 0x058A [0x66] LOAD_EXT_SCHEDULER_MAIN: Load scheduler "sir1" with entities [EventEntity, EventEntity], work=29*
  1: 0x0599 [0x79] EventEntity looks at Unnamed NPC (ID: 17044029/0x0104123D) (Basic look)
  2: 0x05A3 [0x66] LOAD_EXT_SCHEDULER_MAIN: Load scheduler "sha1" with entities [EventEntity, EventEntity], work=29*
  3: 0x05B2 [0x53] WAIT_SCHEDULER_TASK: Wait for scheduler "sha1" with entities [EventEntity, EventEntity]
  4: 0x05BF [0x1E] EventEntity looks at Salwa-Molwa (ID: 17044025/0x01041239) and starts talking
  5: 0x05C4 [0x6F] WAIT_FRAME_DELAY: Yield until WaitTime reaches zero
  6: 0x05C5 [0x76] CHECK_ENTITY_RENDER_FLAGS: Wait until EventEntity Render.Flags0 and Render.Flags3 conditions are met
  7: 0x05CA [0x00] END_REQSTACK()
```

### Event 65535.54

#### Metadata

| Field        | Value    |
|--------------|----------|
| Entrypoint   | 0x05CB   |
| Data Size    | 20 bytes |
| Instructions | 6        |

```
      00 01 02 03 04 05 06 07  08 09 0A 0B 0C 0D 0E 0F
      -- -- -- -- -- -- -- --  -- -- -- -- -- -- -- --
05C0:                                   7B 3B 12 04 01             {;...
05D0: 32 04 80 1F 00 48 80 49  80 4A 80 1F 01 6F 00     2....H.I.J...o. 
```

#### Opcodes

```
  0: 0x05CB [0x7B] Clavauert (ID: 17044027/0x0104123B) stops talking
  1: 0x05D0 [0x32] ExtData[1]->MainSpeed = 13* * 0.1
  2: 0x05D3 [0x1F] MOVE_ENTITY: EventEntity moves to X=-52.254*, Z=-100.173*, Y=5.952*
  3: 0x05DB [0x1F] MOVE_ENTITY: Update entity position (mode=1)
  4: 0x05DD [0x6F] WAIT_FRAME_DELAY: Yield until WaitTime reaches zero
  5: 0x05DE [0x00] END_REQSTACK()
```

### Event 65535.55

#### Metadata

| Field        | Value    |
|--------------|----------|
| Entrypoint   | 0x05DF   |
| Data Size    | 29 bytes |
| Instructions | 3        |

```
      00 01 02 03 04 05 06 07  08 09 0A 0B 0C 0D 0E 0F
      -- -- -- -- -- -- -- --  -- -- -- -- -- -- -- --
05D0:                                               66                 f
05E0: 0D 80 F8 FF FF 7F F8 FF  FF 7F 73 69 74 30 53 F8  ..........sit0S.
05F0: FF FF 7F F8 FF FF 7F 73  69 74 30 00              .......sit0.    
```

#### Opcodes

```
  0: 0x05DF [0x66] LOAD_EXT_SCHEDULER_MAIN: Load scheduler "sit0" with entities [EventEntity, EventEntity], work=29*
  1: 0x05EE [0x53] WAIT_SCHEDULER_TASK: Wait for scheduler "sit0" with entities [EventEntity, EventEntity]
  2: 0x05FB [0x00] END_REQSTACK()
```

### Event 65535.56

#### Metadata

| Field        | Value    |
|--------------|----------|
| Entrypoint   | 0x05FC   |
| Data Size    | 37 bytes |
| Instructions | 5        |

```
      00 01 02 03 04 05 06 07  08 09 0A 0B 0C 0D 0E 0F
      -- -- -- -- -- -- -- --  -- -- -- -- -- -- -- --
05F0:                                      7B F8 FF FF              {...
0600: 7F 66 0D 80 F8 FF FF 7F  F8 FF FF 7F 73 69 74 31  .f..........sit1
0610: 53 F8 FF FF 7F F8 FF FF  7F 73 69 74 31 1C 06 80  S........sit1...
0620: 00                                                .               
```

#### Opcodes

```
  0: 0x05FC [0x7B] EventEntity stops talking
  1: 0x0601 [0x66] LOAD_EXT_SCHEDULER_MAIN: Load scheduler "sit1" with entities [EventEntity, EventEntity], work=29*
  2: 0x0610 [0x53] WAIT_SCHEDULER_TASK: Wait for scheduler "sit1" with entities [EventEntity, EventEntity]
  3: 0x061D [0x1C] WAIT(60* ticks)
  4: 0x0620 [0x00] END_REQSTACK()
```

### Event 65535.57

#### Metadata

| Field        | Value    |
|--------------|----------|
| Entrypoint   | 0x0621   |
| Data Size    | 15 bytes |
| Instructions | 5        |

```
      00 01 02 03 04 05 06 07  08 09 0A 0B 0C 0D 0E 0F
      -- -- -- -- -- -- -- --  -- -- -- -- -- -- -- --
0620:    32 04 80 1F 00 4B 80  4C 80 4D 80 1F 01 6F 00   2....K.L.M...o.
```

#### Opcodes

```
  0: 0x0621 [0x32] ExtData[1]->MainSpeed = 13* * 0.1
  1: 0x0624 [0x1F] MOVE_ENTITY: EventEntity moves to X=-51.332*, Z=-99.675*, Y=5.966*
  2: 0x062C [0x1F] MOVE_ENTITY: Update entity position (mode=1)
  3: 0x062E [0x6F] WAIT_FRAME_DELAY: Yield until WaitTime reaches zero
  4: 0x062F [0x00] END_REQSTACK()
```

### Event 65535.58

#### Metadata

| Field        | Value    |
|--------------|----------|
| Entrypoint   | 0x0630   |
| Data Size    | 13 bytes |
| Instructions | 3        |

```
      00 01 02 03 04 05 06 07  08 09 0A 0B 0C 0D 0E 0F
      -- -- -- -- -- -- -- --  -- -- -- -- -- -- -- --
0630: 6E F8 FF FF 7F 0E 80 99  F8 FF FF 7F 00           n............   
```

#### Opcodes

```
  0: 0x0630 [0x6E] EventEntity uses emote 21*
  1: 0x0637 [0x99] Wait for EventEntity animation to complete
  2: 0x063C [0x00] END_REQSTACK()
```

### Event 65535.59

#### Metadata

| Field        | Value    |
|--------------|----------|
| Entrypoint   | 0x063D   |
| Data Size    | 25 bytes |
| Instructions | 6        |

```
      00 01 02 03 04 05 06 07  08 09 0A 0B 0C 0D 0E 0F
      -- -- -- -- -- -- -- --  -- -- -- -- -- -- -- --
0630:                                         79 00 F8               y..
0640: FF FF 7F 3A 12 04 01 32  1E 80 1F 00 4E 80 4F 80  ...:...2....N.O.
0650: 50 80 1F 01 6F 00                                 P...o.          
```

#### Opcodes

```
  0: 0x063D [0x79] EventEntity looks at Mikilulu (ID: 17044026/0x0104123A) (Basic look)
  1: 0x0647 [0x32] ExtData[1]->MainSpeed = 40* * 0.1
  2: 0x064A [0x1F] MOVE_ENTITY: EventEntity moves to X=-53.352*, Z=-99.326*, Y=5.962*
  3: 0x0652 [0x1F] MOVE_ENTITY: Update entity position (mode=1)
  4: 0x0654 [0x6F] WAIT_FRAME_DELAY: Yield until WaitTime reaches zero
  5: 0x0655 [0x00] END_REQSTACK()
```

### Event 65535.60

#### Metadata

| Field        | Value    |
|--------------|----------|
| Entrypoint   | 0x0656   |
| Data Size    | 20 bytes |
| Instructions | 6        |

```
      00 01 02 03 04 05 06 07  08 09 0A 0B 0C 0D 0E 0F
      -- -- -- -- -- -- -- --  -- -- -- -- -- -- -- --
0650:                   32 04  80 1F 00 51 80 52 80 53        2....Q.R.S
0660: 80 1F 01 6F 1E 39 12 04  01 00                    ...o.9....      
```

#### Opcodes

```
  0: 0x0656 [0x32] ExtData[1]->MainSpeed = 13* * 0.1
  1: 0x0659 [0x1F] MOVE_ENTITY: EventEntity moves to X=-54.163*, Z=-98.045*, Y=5.944*
  2: 0x0661 [0x1F] MOVE_ENTITY: Update entity position (mode=1)
  3: 0x0663 [0x6F] WAIT_FRAME_DELAY: Yield until WaitTime reaches zero
  4: 0x0664 [0x1E] EventEntity looks at Salwa-Molwa (ID: 17044025/0x01041239) and starts talking
  5: 0x0669 [0x00] END_REQSTACK()
```

### Event 65535.61

#### Metadata

| Field        | Value    |
|--------------|----------|
| Entrypoint   | 0x066A   |
| Data Size    | 11 bytes |
| Instructions | 3        |

```
      00 01 02 03 04 05 06 07  08 09 0A 0B 0C 0D 0E 0F
      -- -- -- -- -- -- -- --  -- -- -- -- -- -- -- --
0660:                                1E 3A 12 04 01 7B            .:...{
0670: F8 FF FF 7F 00                                    .....           
```

#### Opcodes

```
  0: 0x066A [0x1E] EventEntity looks at Mikilulu (ID: 17044026/0x0104123A) and starts talking
  1: 0x066F [0x7B] EventEntity stops talking
  2: 0x0674 [0x00] END_REQSTACK()
```

### Event 65535.62

#### Metadata

| Field        | Value    |
|--------------|----------|
| Entrypoint   | 0x0675   |
| Data Size    | 23 bytes |
| Instructions | 7        |

```
      00 01 02 03 04 05 06 07  08 09 0A 0B 0C 0D 0E 0F
      -- -- -- -- -- -- -- --  -- -- -- -- -- -- -- --
0670:                1E F0 FF  FF 7F 6F 70 6E F8 FF FF       .....opn...
0680: 7F 54 80 99 F8 FF FF 7F  1C 05 80 00              .T..........    
```

#### Opcodes

```
  0: 0x0675 [0x1E] EventEntity looks at LocalPlayer and starts talking
  1: 0x067A [0x6F] WAIT_FRAME_DELAY: Yield until WaitTime reaches zero
  2: 0x067B [0x70] WAIT_ENTITY_RENDER_FLAG: Wait while EventEntity->Render.Flags3 bit 2 is set (cancel turn if not)
  3: 0x067C [0x6E] EventEntity uses emote 16*
  4: 0x0683 [0x99] Wait for EventEntity animation to complete
  5: 0x0688 [0x1C] WAIT(90* ticks)
  6: 0x068B [0x00] END_REQSTACK()
```

### Event 65535.63

#### Metadata

| Field        | Value    |
|--------------|----------|
| Entrypoint   | 0x068C   |
| Data Size    | 38 bytes |
| Instructions | 6        |

```
      00 01 02 03 04 05 06 07  08 09 0A 0B 0C 0D 0E 0F
      -- -- -- -- -- -- -- --  -- -- -- -- -- -- -- --
0680:                                      3A F8 FF FF              :...
0690: 7F 03 00 07 03 00 55 80  4B F8 FF FF 7F 03 00 4A  ......U.K......J
06A0: 39 12 04 01 F8 FF FF 7F  4A 3A 12 04 01 F8 FF FF  9.......J:......
06B0: 7F 00                                             ..              
```

#### Opcodes

```
  0: 0x068C [0x3A] CONVERT_YAW_TO_BYTE(entity=EventEntity, result_destination=ExtData[1]->WorkLocal[3])
  1: 0x0693 [0x07] ExtData[1]->WorkLocal[3] += 1800*
  2: 0x0698 [0x4B] UPDATE_ENTITY_YAW(entity=EventEntity, yaw=ExtData[1]->WorkLocal[3])
  3: 0x069F [0x4A] Salwa-Molwa (ID: 17044025/0x01041239) looks at EventEntity
  4: 0x06A8 [0x4A] Mikilulu (ID: 17044026/0x0104123A) looks at EventEntity
  5: 0x06B1 [0x00] END_REQSTACK()
```

### Event 65535.64

#### Metadata

| Field        | Value    |
|--------------|----------|
| Entrypoint   | 0x06B2   |
| Data Size    | 14 bytes |
| Instructions | 4        |

```
      00 01 02 03 04 05 06 07  08 09 0A 0B 0C 0D 0E 0F
      -- -- -- -- -- -- -- --  -- -- -- -- -- -- -- --
06B0:       32 04 80 1F 00 56  80 57 80 58 80 1F 01 00    2....V.W.X....
```

#### Opcodes

```
  0: 0x06B2 [0x32] ExtData[1]->MainSpeed = 13* * 0.1
  1: 0x06B5 [0x1F] MOVE_ENTITY: EventEntity moves to X=-57.334*, Z=-89.514*, Y=6.141*
  2: 0x06BD [0x1F] MOVE_ENTITY: Update entity position (mode=1)
  3: 0x06BF [0x00] END_REQSTACK()
```
