# 17044023

## Common Data

| Field            | Value           |
|------------------|-----------------|
| Zone             | Mamook (ID: 65) |
| Block Size       | 672 bytes       |
| Total Events     | 2               |
| References Count | 18              |

## List of Events

| Event ID              | Entrypoint   |   Size |   Instructions |
|-----------------------|--------------|--------|----------------|
| [65535](#event-65535) | 0x0000       |      1 |              1 |
| [221](#event-221)     | 0x0001       |    574 |             71 |

## DAT References (imed_data)

|   Index | Hex Value   |   Dec Value |
|---------|-------------|-------------|
|       0 | 0x0000      |           0 |
|       1 | 0x0078      |         120 |
|       2 | 0x00C8      |         200 |
|       3 | 0x0013      |          19 |
|       4 | 0x00E7      |         231 |
|       5 | 0x00C5      |         197 |
|       6 | 0x000F      |          15 |
|       7 | 0x001E      |          30 |
|       8 | 0x001D      |          29 |
|       9 | 0x1FF2      |        8178 |
|      10 | 0x0006      |           6 |
|      11 | 0x005A      |          90 |
|      12 | 0x003C      |          60 |
|      13 | 0x0003      |           3 |
|      14 | 0x000A      |          10 |
|      15 | 0x1FF3      |        8179 |
|      16 | 0x0019      |          25 |
|      17 | 0x1FF4      |        8180 |

## Events

### Event 65535

#### Metadata

| Field        | Value   |
|--------------|---------|
| Entrypoint   | 0x0000  |
| Data Size    | 1 bytes |
| Instructions | 1       |

```
      00 01 02 03 04 05 06 07  08 09 0A 0B 0C 0D 0E 0F
      -- -- -- -- -- -- -- --  -- -- -- -- -- -- -- --
0000: 00                                                .               
```

#### Opcodes

```
  0: 0x0000 [0x00] END_REQSTACK()
```

### Event 221

#### Metadata

| Field        | Value     |
|--------------|-----------|
| Entrypoint   | 0x0001    |
| Data Size    | 574 bytes |
| Instructions | 71        |

```
      00 01 02 03 04 05 06 07  08 09 0A 0B 0C 0D 0E 0F
      -- -- -- -- -- -- -- --  -- -- -- -- -- -- -- --
0000:    42 5D 00 80 01 80 45  02 80 F8 FF FF 7F F8 FF   B]....E........
0010: FF 7F 66 64 6F 31 00 80  55 02 80 F8 FF FF 7F F8  ..fdo1..U.......
0020: FF FF 7F 66 64 6F 31 46  01 38 03 80 4E 00 1D 12  ...fdo1F.8..N...
0030: 04 01 92 01 1D 12 04 01  29 05 1D 12 04 01 06 29  ........)......)
0040: 05 F0 FF FF 7F 19 5C 00  04 80 5C 01 04 80 9A 27  ......\...\....'
0050: 05 1D 12 04 01 07 45 05  80 F8 FF FF 7F F8 FF FF  ......E.........
0060: 7F 73 31 30 34 00 80 1C  06 80 45 02 80 F8 FF FF  .s104.....E.....
0070: 7F F8 FF FF 7F 66 64 69  31 00 80 55 02 80 F8 FF  .....fdi1..U....
0080: FF 7F F8 FF FF 7F 66 64  69 31 4A F0 FF FF 7F 1D  ......fdi1J.....
0090: 12 04 01 2A 05 1D 12 04  01 4A 1D 12 04 01 F0 FF  ...*.....J......
00A0: FF 7F 1C 07 80 66 08 80  1D 12 04 01 1D 12 04 01  .....f..........
00B0: 74 77 61 30 2B 1D 12 04  01 09 80 23 55 05 80 F8  twa0+......#U...
00C0: FF FF 7F F8 FF FF 7F 73  31 30 34 45 05 80 F8 FF  .......s104E....
00D0: FF 7F F8 FF FF 7F 73 31  30 35 00 80 66 08 80 1D  ......s105..f...
00E0: 12 04 01 1D 12 04 01 74  77 61 31 6E F0 FF FF 7F  .......twa1n....
00F0: 0A 80 99 F0 FF FF 7F 1C  0B 80 52 05 80 F8 FF FF  ..........R.....
0100: 7F F8 FF FF 7F 73 31 30  35 45 05 80 F8 FF FF 7F  .....s105E......
0110: F8 FF FF 7F 73 31 30 36  00 80 1C 0C 80 62 0D 80  ....s106.....b..
0120: 37 12 04 01 37 12 04 01  6D 61 69 6E 00 80 1C 0C  7...7...main....
0130: 80 4A 1D 12 04 01 37 12  04 01 1C 07 80 27 05 1D  .J....7......'..
0140: 12 04 01 08 1C 07 80 52  05 80 F8 FF FF 7F F8 FF  .......R........
0150: FF 7F 73 31 30 36 45 05  80 F8 FF FF 7F F8 FF FF  ..s106E.........
0160: 7F 73 31 30 37 00 80 2A  05 1D 12 04 01 4A F0 FF  .s107..*.....J..
0170: FF 7F 1D 12 04 01 1C 0E  80 66 08 80 1D 12 04 01  .........f......
0180: 1D 12 04 01 73 68 61 30  1C 0C 80 2B 1D 12 04 01  ....sha0...+....
0190: 0F 80 23 66 08 80 1D 12  04 01 1D 12 04 01 73 68  ..#f..........sh
01A0: 61 31 1C 0B 80 52 05 80  F8 FF FF 7F F8 FF FF 7F  a1...R..........
01B0: 73 31 30 37 45 05 80 F8  FF FF 7F F8 FF FF 7F 73  s107E..........s
01C0: 31 30 38 00 80 4A 1D 12  04 01 F0 FF FF 7F 1C 07  108..J..........
01D0: 80 6E 1D 12 04 01 10 80  99 1D 12 04 01 2B 1D 12  .n...........+..
01E0: 04 01 11 80 23 5D 00 80  01 80 45 02 80 F8 FF FF  ....#]....E.....
01F0: 7F F8 FF FF 7F 66 64 6F  31 00 80 55 02 80 F8 FF  .....fdo1..U....
0200: FF 7F F8 FF FF 7F 66 64  6F 31 52 05 80 F8 FF FF  ......fdo1R.....
0210: 7F F8 FF FF 7F 73 31 30  38 4E 01 1D 12 04 01 5C  .....s108N.....\
0220: 00 00 80 5C 01 00 80 46  00 1C 0C 80 45 02 80 F8  ...\...F....E...
0230: FF FF 7F F8 FF FF 7F 66  64 69 31 00 80 21 00     .......fdi1..!. 
```

#### Opcodes

```
  0: 0x0001 [0x42] SET_CLI_EVENT_CANCEL_DATA()
  1: 0x0002 [0x5D] SET_MUSIC_VOLUME(volume=0*, fade_time=120*)
  2: 0x0007 [0x45] LOAD_SCHEDULED_TASK: Load scheduler "fdo1" with entities [EventEntity, EventEntity], work=[200*, 0*]
  3: 0x0018 [0x55] WAIT_LOAD_SCHEDULER: Wait for scheduler "fdo1" with entities [EventEntity, EventEntity], work=200*
  4: 0x0027 [0x46] CAMERA_CONTROL: Disable user control
  5: 0x0029 [0x38] SET_CLIENT_EVENT_MODE(mode=19*)
  6: 0x002C [0x4E] SET_ENTITY_HIDE_FLAG: Show Mishhar (ID: 17043997/0x0104121D)
  7: 0x0032 [0x92] Mishhar (ID: 17043997/0x0104121D)->Render.Flags3 ^= 0x01
  8: 0x0038 [0x29] REQ_SET_WAIT(priority=0x05, entity_id=Mishhar (ID: 17043997/0x0104121D), tag_num=0x06)
  9: 0x003F [0x29] REQ_SET_WAIT(priority=0x05, entity_id=LocalPlayer, tag_num=0x19)
 10: 0x0046 [0x5C] MUSIC_CONTROL: Set Idle (Day) music to song 231*
 11: 0x004A [0x5C] MUSIC_CONTROL: Set Idle (Night) music to song 231*
 12: 0x004E [0x9A] WAIT_MUSIC_SERVER()
 13: 0x004F [0x27] REQ_SET(priority=0x05, entity_id=Mishhar (ID: 17043997/0x0104121D), tag_num=0x07)
 14: 0x0056 [0x45] LOAD_SCHEDULED_TASK: Load scheduler "s104" with entities [EventEntity, EventEntity], work=[197*, 0*]
 15: 0x0067 [0x1C] WAIT(15* ticks)
 16: 0x006A [0x45] LOAD_SCHEDULED_TASK: Load scheduler "fdi1" with entities [EventEntity, EventEntity], work=[200*, 0*]
 17: 0x007B [0x55] WAIT_LOAD_SCHEDULER: Wait for scheduler "fdi1" with entities [EventEntity, EventEntity], work=200*
 18: 0x008A [0x4A] LocalPlayer looks at Mishhar (ID: 17043997/0x0104121D)
 19: 0x0093 [0x2A] GET_REQ_LEVEL(level=5, entity_id=Mishhar (ID: 17043997/0x0104121D))
 20: 0x0099 [0x4A] Mishhar (ID: 17043997/0x0104121D) looks at LocalPlayer
 21: 0x00A2 [0x1C] WAIT(30* ticks)
 22: 0x00A5 [0x66] LOAD_EXT_SCHEDULER_MAIN: Load scheduler "twa0" with entities [Mishhar (ID: 17043997/0x0104121D), Mishhar (ID: 17043997/0x0104121D)], work=29*
 23: 0x00B4 [0x2B] Mishhar (ID: 17043997/0x0104121D) [8178*]:
    → "Did you find them!?"
 24: 0x00BB [0x23] WAIT_FOR_DIALOG_INTERACTION
 25: 0x00BC [0x55] WAIT_LOAD_SCHEDULER: Wait for scheduler "s104" with entities [EventEntity, EventEntity], work=197*
 26: 0x00CB [0x45] LOAD_SCHEDULED_TASK: Load scheduler "s105" with entities [EventEntity, EventEntity], work=[197*, 0*]
 27: 0x00DC [0x66] LOAD_EXT_SCHEDULER_MAIN: Load scheduler "twa1" with entities [Mishhar (ID: 17043997/0x0104121D), Mishhar (ID: 17043997/0x0104121D)], work=29*
 28: 0x00EB [0x6E] LocalPlayer uses emote 6*
 29: 0x00F2 [0x99] Wait for LocalPlayer animation to complete
 30: 0x00F7 [0x1C] WAIT(90* ticks)
 31: 0x00FA [0x52] END_LOAD_SCHEDULER: End scheduler "s105" with entities [EventEntity, EventEntity], work=197*
 32: 0x0109 [0x45] LOAD_SCHEDULED_TASK: Load scheduler "s106" with entities [EventEntity, EventEntity], work=[197*, 0*]
 33: 0x011A [0x1C] WAIT(60* ticks)
 34: 0x011D [0x62] LOAD_EVENT_SCHEDULER: Load scheduler "main" with entities [??? (ID: 17044023/0x01041237), ??? (ID: 17044023/0x01041237)], work=[3*, 0*]
 35: 0x012E [0x1C] WAIT(60* ticks)
 36: 0x0131 [0x4A] Mishhar (ID: 17043997/0x0104121D) looks at ??? (ID: 17044023/0x01041237)
 37: 0x013A [0x1C] WAIT(30* ticks)
 38: 0x013D [0x27] REQ_SET(priority=0x05, entity_id=Mishhar (ID: 17043997/0x0104121D), tag_num=0x08)
 39: 0x0144 [0x1C] WAIT(30* ticks)
 40: 0x0147 [0x52] END_LOAD_SCHEDULER: End scheduler "s106" with entities [EventEntity, EventEntity], work=197*
 41: 0x0156 [0x45] LOAD_SCHEDULED_TASK: Load scheduler "s107" with entities [EventEntity, EventEntity], work=[197*, 0*]
 42: 0x0167 [0x2A] GET_REQ_LEVEL(level=5, entity_id=Mishhar (ID: 17043997/0x0104121D))
 43: 0x016D [0x4A] LocalPlayer looks at Mishhar (ID: 17043997/0x0104121D)
 44: 0x0176 [0x1C] WAIT(10* ticks)
 45: 0x0179 [0x66] LOAD_EXT_SCHEDULER_MAIN: Load scheduler "sha0" with entities [Mishhar (ID: 17043997/0x0104121D), Mishhar (ID: 17043997/0x0104121D)], work=29*
 46: 0x0188 [0x1C] WAIT(60* ticks)
 47: 0x018B [0x2B] Mishhar (ID: 17043997/0x0104121D) [8179*]:
    → "These are their weapons! And look at all these footprints... Could they have taken everyone to the Jade Sepulcher?"
 48: 0x0192 [0x23] WAIT_FOR_DIALOG_INTERACTION
 49: 0x0193 [0x66] LOAD_EXT_SCHEDULER_MAIN: Load scheduler "sha1" with entities [Mishhar (ID: 17043997/0x0104121D), Mishhar (ID: 17043997/0x0104121D)], work=29*
 50: 0x01A2 [0x1C] WAIT(90* ticks)
 51: 0x01A5 [0x52] END_LOAD_SCHEDULER: End scheduler "s107" with entities [EventEntity, EventEntity], work=197*
 52: 0x01B4 [0x45] LOAD_SCHEDULED_TASK: Load scheduler "s108" with entities [EventEntity, EventEntity], work=[197*, 0*]
 53: 0x01C5 [0x4A] Mishhar (ID: 17043997/0x0104121D) looks at LocalPlayer
 54: 0x01CE [0x1C] WAIT(30* ticks)
 55: 0x01D1 [0x6E] Mishhar (ID: 17043997/0x0104121D) uses emote 25*
 56: 0x01D8 [0x99] Wait for Mishhar (ID: 17043997/0x0104121D) animation to complete
 57: 0x01DD [0x2B] Mishhar (ID: 17043997/0x0104121D) [8180*]:
    → "We must hurry!"
 58: 0x01E4 [0x23] WAIT_FOR_DIALOG_INTERACTION
 59: 0x01E5 [0x5D] SET_MUSIC_VOLUME(volume=0*, fade_time=120*)
 60: 0x01EA [0x45] LOAD_SCHEDULED_TASK: Load scheduler "fdo1" with entities [EventEntity, EventEntity], work=[200*, 0*]
 61: 0x01FB [0x55] WAIT_LOAD_SCHEDULER: Wait for scheduler "fdo1" with entities [EventEntity, EventEntity], work=200*
 62: 0x020A [0x52] END_LOAD_SCHEDULER: End scheduler "s108" with entities [EventEntity, EventEntity], work=197*
 63: 0x0219 [0x4E] SET_ENTITY_HIDE_FLAG: Hide Mishhar (ID: 17043997/0x0104121D)
 64: 0x021F [0x5C] MUSIC_CONTROL: Set Idle (Day) music to song 0*
 65: 0x0223 [0x5C] MUSIC_CONTROL: Set Idle (Night) music to song 0*
 66: 0x0227 [0x46] CAMERA_CONTROL: Restore default settings
 67: 0x0229 [0x1C] WAIT(60* ticks)
 68: 0x022C [0x45] LOAD_SCHEDULED_TASK: Load scheduler "fdi1" with entities [EventEntity, EventEntity], work=[200*, 0*]
 69: 0x023D [0x21] END_EVENT
 70: 0x023E [0x00] END_REQSTACK()
```
