# 17044030

## Common Data

| Field            | Value           |
|------------------|-----------------|
| Zone             | Mamook (ID: 65) |
| Block Size       | 1832 bytes      |
| Total Events     | 56              |
| References Count | 138             |

## List of Events

| Event ID                   | Entrypoint   |   Size |   Instructions |
|----------------------------|--------------|--------|----------------|
| [65535](#event-65535)      | 0x0000       |      1 |              1 |
| [65535.1](#event-655351)   | 0x0001       |      1 |              1 |
| [65535.2](#event-655352)   | 0x0002       |      9 |              3 |
| [65535.3](#event-655353)   | 0x000B       |     14 |              2 |
| [65535.4](#event-655354)   | 0x0019       |     10 |              2 |
| [65535.5](#event-655355)   | 0x0023       |     14 |              4 |
| [65535.6](#event-655356)   | 0x0031       |      9 |              3 |
| [65535.7](#event-655357)   | 0x003A       |      1 |              1 |
| [65535.8](#event-655358)   | 0x003B       |      3 |              2 |
| [65535.9](#event-655359)   | 0x003E       |      3 |              2 |
| [65535.10](#event-6553510) | 0x0041       |     10 |              2 |
| [65535.11](#event-6553511) | 0x004B       |     10 |              2 |
| [65535.12](#event-6553512) | 0x0055       |     70 |             20 |
| [65535.13](#event-6553513) | 0x009B       |      1 |              1 |
| [65535.14](#event-6553514) | 0x009C       |      1 |              1 |
| [222](#event-222)          | 0x009D       |      1 |              1 |
| [227](#event-227)          | 0x009E       |      1 |              1 |
| [65535.15](#event-6553515) | 0x009F       |     57 |              9 |
| [65535.16](#event-6553516) | 0x00D8       |     67 |             13 |
| [65535.17](#event-6553517) | 0x011B       |     67 |             13 |
| [65535.18](#event-6553518) | 0x015E       |     15 |              5 |
| [65535.19](#event-6553519) | 0x016D       |     12 |              4 |
| [65535.20](#event-6553520) | 0x0179       |     12 |              4 |
| [65535.21](#event-6553521) | 0x0185       |      1 |              1 |
| [65535.22](#event-6553522) | 0x0186       |     10 |              2 |
| [65535.23](#event-6553523) | 0x0190       |     28 |              8 |
| [65535.24](#event-6553524) | 0x01AC       |     10 |              2 |
| [65535.25](#event-6553525) | 0x01B6       |     26 |              8 |
| [223](#event-223)          | 0x01D0       |      1 |              1 |
| [224](#event-224)          | 0x01D1       |      1 |              1 |
| [65535.26](#event-6553526) | 0x01D2       |     27 |              3 |
| [65535.27](#event-6553527) | 0x01ED       |     10 |              2 |
| [65535.28](#event-6553528) | 0x01F7       |     20 |              6 |
| [65535.29](#event-6553529) | 0x020B       |     15 |              5 |
| [65535.30](#event-6553530) | 0x021A       |     10 |              2 |
| [65535.31](#event-6553531) | 0x0224       |     28 |              8 |
| [65535.32](#event-6553532) | 0x0240       |      8 |              2 |
| [225](#event-225)          | 0x0248       |      1 |              1 |
| [65535.33](#event-6553533) | 0x0249       |      8 |              2 |
| [65535.34](#event-6553534) | 0x0251       |     50 |             14 |
| [65535.35](#event-6553535) | 0x0283       |     15 |              5 |
| [65535.36](#event-6553536) | 0x0292       |     15 |              5 |
| [65535.37](#event-6553537) | 0x02A1       |     14 |              2 |
| [65535.38](#event-6553538) | 0x02AF       |      1 |              1 |
| [65535.39](#event-6553539) | 0x02B0       |      1 |              1 |
| [65535.40](#event-6553540) | 0x02B1       |     50 |              8 |
| [65535.41](#event-6553541) | 0x02E3       |     57 |             11 |
| [65535.42](#event-6553542) | 0x031C       |     90 |             20 |
| [65535.43](#event-6553543) | 0x0376       |     10 |              2 |
| [65535.44](#event-6553544) | 0x0380       |     25 |              7 |
| [65535.45](#event-6553545) | 0x0399       |      8 |              2 |
| [65535.46](#event-6553546) | 0x03A1       |      8 |              2 |
| [65535.47](#event-6553547) | 0x03A9       |     10 |              2 |
| [65535.48](#event-6553548) | 0x03B3       |     25 |              7 |
| [65535.49](#event-6553549) | 0x03CC       |     10 |              2 |
| [65535.50](#event-6553550) | 0x03D6       |     56 |             10 |

## DAT References (imed_data)

|   Index | Hex Value   |   Dec Value |
|---------|-------------|-------------|
|       0 | 0xFFFF9A96  |  4294941334 |
|       1 | 0xFFFC55A4  |  4294727076 |
|       2 | 0xFFFFF310  |  4294963984 |
|       3 | 0x0B01      |        2817 |
|       4 | 0xFFFE2652  |  4294846034 |
|       5 | 0xFFFFC3B9  |  4294951865 |
|       6 | 0x1C1F      |        7199 |
|       7 | 0x0821      |        2081 |
|       8 | 0x000D      |          13 |
|       9 | 0xFFFD648D  |  4294796429 |
|      10 | 0xFFFFB060  |  4294946912 |
|      11 | 0x141A      |        5146 |
|      12 | 0x0064      |         100 |
|      13 | 0x0001      |           1 |
|      14 | 0xA3EBF     |      671423 |
|      15 | 0x316BE     |      202430 |
|      16 | 0xFFFFBE79  |  4294950521 |
|      17 | 0x097E      |        2430 |
|      18 | 0x0028      |          40 |
|      19 | 0xA398A     |      670090 |
|      20 | 0x31B31     |      203569 |
|      21 | 0xFFFFBC86  |  4294950022 |
|      22 | 0x002A      |          42 |
|      23 | 0xA3399     |      668569 |
|      24 | 0x2FF5D     |      196445 |
|      25 | 0xFFFFBA4B  |  4294949451 |
|      26 | 0x002C      |          44 |
|      27 | 0xA2951     |      665937 |
|      28 | 0x30D41     |      200001 |
|      29 | 0xFFFFB9B0  |  4294949296 |
|      30 | 0x002E      |          46 |
|      31 | 0xA19F1     |      662001 |
|      32 | 0x2F77A     |      194426 |
|      33 | 0xFFFFB7A1  |  4294948769 |
|      34 | 0x0032      |          50 |
|      35 | 0x9FA14     |      653844 |
|      36 | 0x2E78F     |      190351 |
|      37 | 0xFFFFB556  |  4294948182 |
|      38 | 0x1B26      |        6950 |
|      39 | 0x0800      |        2048 |
|      40 | 0x0400      |        1024 |
|      41 | 0x04B0      |        1200 |
|      42 | 0xA47DF     |      673759 |
|      43 | 0x318BA     |      202938 |
|      44 | 0xFFFFC062  |  4294951010 |
|      45 | 0xA52E9     |      676585 |
|      46 | 0x31B50     |      203600 |
|      47 | 0xFFFFC180  |  4294951296 |
|      48 | 0x90227     |      590375 |
|      49 | 0x2BC32     |      179250 |
|      50 | 0xFFFFB91A  |  4294949146 |
|      51 | 0x08D3      |        2259 |
|      52 | 0x8E397     |      582551 |
|      53 | 0x2CC19     |      183321 |
|      54 | 0xFFFFBAEF  |  4294949615 |
|      55 | 0x8DA51     |      580177 |
|      56 | 0x334EE     |      210158 |
|      57 | 0xFFFFBA71  |  4294949489 |
|      58 | 0x35D76     |      220534 |
|      59 | 0xFFFE918D  |  4294873485 |
|      60 | 0xFFFF99CA  |  4294941130 |
|      61 | 0x0484      |        1156 |
|      62 | 0x3569A     |      218778 |
|      63 | 0xFFFE7B18  |  4294867736 |
|      64 | 0xFFFFA0B4  |  4294942900 |
|      65 | 0x32BCC     |      207820 |
|      66 | 0xFFFE7606  |  4294866438 |
|      67 | 0xFFFFA5F6  |  4294944246 |
|      68 | 0xFFFF70DF  |  4294930655 |
|      69 | 0xFFFE7158  |  4294865240 |
|      70 | 0x17E3      |        6115 |
|      71 | 0x000A      |          10 |
|      72 | 0xFFFF65FE  |  4294927870 |
|      73 | 0xFFFE74B7  |  4294866103 |
|      74 | 0x16D4      |        5844 |
|      75 | 0x001E      |          30 |
|      76 | 0xFFFF61E6  |  4294926822 |
|      77 | 0xFFFE7943  |  4294867267 |
|      78 | 0x1766      |        5990 |
|      79 | 0xFFFF61F2  |  4294926834 |
|      80 | 0xFFFE78E2  |  4294867170 |
|      81 | 0x1759      |        5977 |
|      82 | 0x0C06      |        3078 |
|      83 | 0xFFFF4216  |  4294918678 |
|      84 | 0xFFFE7E14  |  4294868500 |
|      85 | 0x1720      |        5920 |
|      86 | 0xFFFF3C96  |  4294917270 |
|      87 | 0xFFFE7CBF  |  4294868159 |
|      88 | 0x1760      |        5984 |
|      89 | 0xFFFF3981  |  4294916481 |
|      90 | 0xFFFE7C2F  |  4294868015 |
|      91 | 0x1751      |        5969 |
|      92 | 0x0008      |           8 |
|      93 | 0xFFFF3947  |  4294916423 |
|      94 | 0xFFFE7F88  |  4294868872 |
|      95 | 0x173B      |        5947 |
|      96 | 0xFFFF3261  |  4294914657 |
|      97 | 0xFFFE7211  |  4294865425 |
|      98 | 0x172D      |        5933 |
|      99 | 0xFFFF2BE2  |  4294912994 |
|     100 | 0xFFFE7975  |  4294867317 |
|     101 | 0x1788      |        6024 |
|     102 | 0xFFFF2A4A  |  4294912586 |
|     103 | 0xFFFE7DA3  |  4294868387 |
|     104 | 0x179C      |        6044 |
|     105 | 0x36B0      |       14000 |
|     106 | 0x09C4      |        2500 |
|     107 | 0x3A98      |       15000 |
|     108 | 0xFFFEA975  |  4294879605 |
|     109 | 0xFFFF237B  |  4294910843 |
|     110 | 0x1A5A      |        6746 |
|     111 | 0xFFFECA81  |  4294888065 |
|     112 | 0xFFFF2344  |  4294910788 |
|     113 | 0xFFFF21A3  |  4294910371 |
|     114 | 0xFFFE9AD2  |  4294875858 |
|     115 | 0x1879      |        6265 |
|     116 | 0x049D      |        1181 |
|     117 | 0xFFFF2117  |  4294910231 |
|     118 | 0xFFFE7D4F  |  4294868303 |
|     119 | 0x1851      |        6225 |
|     120 | 0xFFFF76A9  |  4294932137 |
|     121 | 0xFFFE7A53  |  4294867539 |
|     122 | 0x1B4B      |        6987 |
|     123 | 0x8F92A     |      588074 |
|     124 | 0x2BC68     |      179304 |
|     125 | 0xFFFFB990  |  4294949264 |
|     126 | 0x0913      |        2323 |
|     127 | 0x8E44A     |      582730 |
|     128 | 0x2C1E1     |      180705 |
|     129 | 0xFFFFBC5E  |  4294949982 |
|     130 | 0x8D7A5     |      579493 |
|     131 | 0x30DC4     |      200132 |
|     132 | 0xFFFFB70D  |  4294948621 |
|     133 | 0x90A4F     |      592463 |
|     134 | 0x2BC10     |      179216 |
|     135 | 0xFFFFB880  |  4294948992 |
|     136 | 0x0000      |           0 |
|     137 | 0x6978      |       27000 |

## Events

### Event 65535

#### Metadata

| Field        | Value   |
|--------------|---------|
| Entrypoint   | 0x0000  |
| Data Size    | 1 bytes |
| Instructions | 1       |

```
      00 01 02 03 04 05 06 07  08 09 0A 0B 0C 0D 0E 0F
      -- -- -- -- -- -- -- --  -- -- -- -- -- -- -- --
0000: 00                                                .               
```

#### Opcodes

```
  0: 0x0000 [0x00] END_REQSTACK()
```

### Event 65535.1

#### Metadata

| Field        | Value   |
|--------------|---------|
| Entrypoint   | 0x0001  |
| Data Size    | 1 bytes |
| Instructions | 1       |

```
      00 01 02 03 04 05 06 07  08 09 0A 0B 0C 0D 0E 0F
      -- -- -- -- -- -- -- --  -- -- -- -- -- -- -- --
0000:    00                                              .              
```

#### Opcodes

```
  0: 0x0001 [0x00] END_REQSTACK()
```

### Event 65535.2

#### Metadata

| Field        | Value   |
|--------------|---------|
| Entrypoint   | 0x0002  |
| Data Size    | 9 bytes |
| Instructions | 3       |

```
      00 01 02 03 04 05 06 07  08 09 0A 0B 0C 0D 0E 0F
      -- -- -- -- -- -- -- --  -- -- -- -- -- -- -- --
0000:       22 00 2F 00 F8 FF  FF 7F 00                   "./......     
```

#### Opcodes

```
  0: 0x0002 [0x22] ENTITY_HIDE_FLAG(enabled=0x00)
  1: 0x0004 [0x2F] EventEntity->Render.Flags0 &= ~0x80000 // Bit 19
  2: 0x000A [0x00] END_REQSTACK()
```

### Event 65535.3

#### Metadata

| Field        | Value    |
|--------------|----------|
| Entrypoint   | 0x000B   |
| Data Size    | 14 bytes |
| Instructions | 2        |

```
      00 01 02 03 04 05 06 07  08 09 0A 0B 0C 0D 0E 0F
      -- -- -- -- -- -- -- --  -- -- -- -- -- -- -- --
0000:                                   BA F8 FF FF 7F             .....
0010: 00 80 01 80 02 80 03 80  00                       .........       
```

#### Opcodes

```
  0: 0x000B [0xBA] SET_ENTITY_POSITION(entity_id=EventEntity, pos_x=-25.962*, pos_z=-240.220*, pos_y=-3.312*, direction=247.6°*)
  1: 0x0018 [0x00] END_REQSTACK()
```

### Event 65535.4

#### Metadata

| Field        | Value    |
|--------------|----------|
| Entrypoint   | 0x0019   |
| Data Size    | 10 bytes |
| Instructions | 2        |

```
      00 01 02 03 04 05 06 07  08 09 0A 0B 0C 0D 0E 0F
      -- -- -- -- -- -- -- --  -- -- -- -- -- -- -- --
0010:                             37 04 80 05 80 06 80           7......
0020: 07 80 00                                          ...             
```

#### Opcodes

```
  0: 0x0019 [0x37] UPDATE_EVENT_POSITION_AND_DIR: x=-121.262*, z=-15.431*, y=7.199*, direction=182.9°*
  1: 0x0022 [0x00] END_REQSTACK()
```

### Event 65535.5

#### Metadata

| Field        | Value    |
|--------------|----------|
| Entrypoint   | 0x0023   |
| Data Size    | 14 bytes |
| Instructions | 4        |

```
      00 01 02 03 04 05 06 07  08 09 0A 0B 0C 0D 0E 0F
      -- -- -- -- -- -- -- --  -- -- -- -- -- -- -- --
0020:          32 08 80 1F 00  09 80 0A 80 0B 80 1F 01     2............
0030: 00                                                .               
```

#### Opcodes

```
  0: 0x0023 [0x32] ExtData[1]->MainSpeed = 13* * 0.1
  1: 0x0026 [0x1F] MOVE_ENTITY: EventEntity moves to X=-170.867*, Z=-20.384*, Y=5.146*
  2: 0x002E [0x1F] MOVE_ENTITY: Update entity position (mode=1)
  3: 0x0030 [0x00] END_REQSTACK()
```

### Event 65535.6

#### Metadata

| Field        | Value   |
|--------------|---------|
| Entrypoint   | 0x0031  |
| Data Size    | 9 bytes |
| Instructions | 3       |

```
      00 01 02 03 04 05 06 07  08 09 0A 0B 0C 0D 0E 0F
      -- -- -- -- -- -- -- --  -- -- -- -- -- -- -- --
0030:    22 01 2F 01 F8 FF FF  7F 00                     "./......      
```

#### Opcodes

```
  0: 0x0031 [0x22] ENTITY_HIDE_FLAG(enabled=0x01)
  1: 0x0033 [0x2F] EventEntity->Render.Flags0 |= 0x80000 // Bit 19
  2: 0x0039 [0x00] END_REQSTACK()
```

### Event 65535.7

#### Metadata

| Field        | Value   |
|--------------|---------|
| Entrypoint   | 0x003A  |
| Data Size    | 1 bytes |
| Instructions | 1       |

```
      00 01 02 03 04 05 06 07  08 09 0A 0B 0C 0D 0E 0F
      -- -- -- -- -- -- -- --  -- -- -- -- -- -- -- --
0030:                                00                           .     
```

#### Opcodes

```
  0: 0x003A [0x00] END_REQSTACK()
```

### Event 65535.8

#### Metadata

| Field        | Value   |
|--------------|---------|
| Entrypoint   | 0x003B  |
| Data Size    | 3 bytes |
| Instructions | 2       |

```
      00 01 02 03 04 05 06 07  08 09 0A 0B 0C 0D 0E 0F
      -- -- -- -- -- -- -- --  -- -- -- -- -- -- -- --
0030:                                   22 01 00                   "..  
```

#### Opcodes

```
  0: 0x003B [0x22] ENTITY_HIDE_FLAG(enabled=0x01)
  1: 0x003D [0x00] END_REQSTACK()
```

### Event 65535.9

#### Metadata

| Field        | Value   |
|--------------|---------|
| Entrypoint   | 0x003E  |
| Data Size    | 3 bytes |
| Instructions | 2       |

```
      00 01 02 03 04 05 06 07  08 09 0A 0B 0C 0D 0E 0F
      -- -- -- -- -- -- -- --  -- -- -- -- -- -- -- --
0030:                                            22 00                ".
0040: 00                                                .               
```

#### Opcodes

```
  0: 0x003E [0x22] ENTITY_HIDE_FLAG(enabled=0x00)
  1: 0x0040 [0x00] END_REQSTACK()
```

### Event 65535.10

#### Metadata

| Field        | Value    |
|--------------|----------|
| Entrypoint   | 0x0041   |
| Data Size    | 10 bytes |
| Instructions | 2        |

```
      00 01 02 03 04 05 06 07  08 09 0A 0B 0C 0D 0E 0F
      -- -- -- -- -- -- -- --  -- -- -- -- -- -- -- --
0040:    6C F8 FF FF 7F 0C 80  0D 80 00                  l.........     
```

#### Opcodes

```
  0: 0x0041 [0x6C] FADE_ENTITY_COLOR(entity_id=EventEntity, end_alpha=100*, fade_time=1*)
  1: 0x004A [0x00] END_REQSTACK()
```

### Event 65535.11

#### Metadata

| Field        | Value    |
|--------------|----------|
| Entrypoint   | 0x004B   |
| Data Size    | 10 bytes |
| Instructions | 2        |

```
      00 01 02 03 04 05 06 07  08 09 0A 0B 0C 0D 0E 0F
      -- -- -- -- -- -- -- --  -- -- -- -- -- -- -- --
0040:                                   37 0E 80 0F 80             7....
0050: 10 80 11 80 00                                    .....           
```

#### Opcodes

```
  0: 0x004B [0x37] UPDATE_EVENT_POSITION_AND_DIR: x=671.423*, z=202.430*, y=-16.775*, direction=213.6°*
  1: 0x0054 [0x00] END_REQSTACK()
```

### Event 65535.12

#### Metadata

| Field        | Value    |
|--------------|----------|
| Entrypoint   | 0x0055   |
| Data Size    | 70 bytes |
| Instructions | 20       |

```
      00 01 02 03 04 05 06 07  08 09 0A 0B 0C 0D 0E 0F
      -- -- -- -- -- -- -- --  -- -- -- -- -- -- -- --
0050:                32 12 80  1F 00 13 80 14 80 15 80       2..........
0060: 1F 01 6F 32 16 80 1F 00  17 80 18 80 19 80 1F 01  ..o2............
0070: 6F 32 1A 80 1F 00 1B 80  1C 80 1D 80 1F 01 6F 32  o2............o2
0080: 1E 80 1F 00 1F 80 20 80  21 80 1F 01 6F 32 22 80  ...... .!...o2".
0090: 1F 00 23 80 24 80 25 80  1F 01 00                 ..#.$.%....     
```

#### Opcodes

```
  0: 0x0055 [0x32] ExtData[1]->MainSpeed = 40* * 0.1
  1: 0x0058 [0x1F] MOVE_ENTITY: EventEntity moves to X=670.090*, Z=203.569*, Y=-17.274*
  2: 0x0060 [0x1F] MOVE_ENTITY: Update entity position (mode=1)
  3: 0x0062 [0x6F] WAIT_FRAME_DELAY: Yield until WaitTime reaches zero
  4: 0x0063 [0x32] ExtData[1]->MainSpeed = 42* * 0.1
  5: 0x0066 [0x1F] MOVE_ENTITY: EventEntity moves to X=668.569*, Z=196.445*, Y=-17.845*
  6: 0x006E [0x1F] MOVE_ENTITY: Update entity position (mode=1)
  7: 0x0070 [0x6F] WAIT_FRAME_DELAY: Yield until WaitTime reaches zero
  8: 0x0071 [0x32] ExtData[1]->MainSpeed = 44* * 0.1
  9: 0x0074 [0x1F] MOVE_ENTITY: EventEntity moves to X=665.937*, Z=200.001*, Y=-18.000*
 10: 0x007C [0x1F] MOVE_ENTITY: Update entity position (mode=1)
 11: 0x007E [0x6F] WAIT_FRAME_DELAY: Yield until WaitTime reaches zero
 12: 0x007F [0x32] ExtData[1]->MainSpeed = 46* * 0.1
 13: 0x0082 [0x1F] MOVE_ENTITY: EventEntity moves to X=662.001*, Z=194.426*, Y=-18.527*
 14: 0x008A [0x1F] MOVE_ENTITY: Update entity position (mode=1)
 15: 0x008C [0x6F] WAIT_FRAME_DELAY: Yield until WaitTime reaches zero
 16: 0x008D [0x32] ExtData[1]->MainSpeed = 50* * 0.1
 17: 0x0090 [0x1F] MOVE_ENTITY: EventEntity moves to X=653.844*, Z=190.351*, Y=-19.114*
 18: 0x0098 [0x1F] MOVE_ENTITY: Update entity position (mode=1)
 19: 0x009A [0x00] END_REQSTACK()
```

### Event 65535.13

#### Metadata

| Field        | Value   |
|--------------|---------|
| Entrypoint   | 0x009B  |
| Data Size    | 1 bytes |
| Instructions | 1       |

```
      00 01 02 03 04 05 06 07  08 09 0A 0B 0C 0D 0E 0F
      -- -- -- -- -- -- -- --  -- -- -- -- -- -- -- --
0090:                                   00                         .    
```

#### Opcodes

```
  0: 0x009B [0x00] END_REQSTACK()
```

### Event 65535.14

#### Metadata

| Field        | Value   |
|--------------|---------|
| Entrypoint   | 0x009C  |
| Data Size    | 1 bytes |
| Instructions | 1       |

```
      00 01 02 03 04 05 06 07  08 09 0A 0B 0C 0D 0E 0F
      -- -- -- -- -- -- -- --  -- -- -- -- -- -- -- --
0090:                                      00                       .   
```

#### Opcodes

```
  0: 0x009C [0x00] END_REQSTACK()
```

### Event 222

#### Metadata

| Field        | Value   |
|--------------|---------|
| Entrypoint   | 0x009D  |
| Data Size    | 1 bytes |
| Instructions | 1       |

```
      00 01 02 03 04 05 06 07  08 09 0A 0B 0C 0D 0E 0F
      -- -- -- -- -- -- -- --  -- -- -- -- -- -- -- --
0090:                                         00                     .  
```

#### Opcodes

```
  0: 0x009D [0x00] END_REQSTACK()
```

### Event 227

#### Metadata

| Field        | Value   |
|--------------|---------|
| Entrypoint   | 0x009E  |
| Data Size    | 1 bytes |
| Instructions | 1       |

```
      00 01 02 03 04 05 06 07  08 09 0A 0B 0C 0D 0E 0F
      -- -- -- -- -- -- -- --  -- -- -- -- -- -- -- --
0090:                                            00                   . 
```

#### Opcodes

```
  0: 0x009E [0x00] END_REQSTACK()
```

### Event 65535.15

#### Metadata

| Field        | Value    |
|--------------|----------|
| Entrypoint   | 0x009F   |
| Data Size    | 57 bytes |
| Instructions | 9        |

```
      00 01 02 03 04 05 06 07  08 09 0A 0B 0C 0D 0E 0F
      -- -- -- -- -- -- -- --  -- -- -- -- -- -- -- --
0090:                                               3B                 ;
00A0: 39 12 04 01 00 00 01 00  02 00 3A 39 12 04 01 03  9.........:9....
00B0: 00 17 04 00 03 00 26 80  16 05 00 03 00 26 80 07  ......&......&..
00C0: 00 00 04 00 07 01 00 05  00 07 03 00 27 80 37 00  ............'.7.
00D0: 00 01 00 02 00 03 00 00                           ........        
```

#### Opcodes

```
  0: 0x009F [0x3B] GET_ENTITY_POSITION(entity=Salwa-Molwa (ID: 17044025/0x01041239), x_destination=ExtData[1]->WorkLocal[0], y_destination=ExtData[1]->WorkLocal[1], z_destination=ExtData[1]->WorkLocal[2])
  1: 0x00AA [0x3A] CONVERT_YAW_TO_BYTE(entity=Salwa-Molwa (ID: 17044025/0x01041239), result_destination=ExtData[1]->WorkLocal[3])
  2: 0x00B1 [0x17] ExtData[1]->WorkLocal[4] = cos(ExtData[1]->WorkLocal[3]) * 6950*
  3: 0x00B8 [0x16] ExtData[1]->WorkLocal[5] = sin(ExtData[1]->WorkLocal[3]) * 6950*
  4: 0x00BF [0x07] ExtData[1]->WorkLocal[0] += ExtData[1]->WorkLocal[4]
  5: 0x00C4 [0x07] ExtData[1]->WorkLocal[1] += ExtData[1]->WorkLocal[5]
  6: 0x00C9 [0x07] ExtData[1]->WorkLocal[3] += 2048*
  7: 0x00CE [0x37] UPDATE_EVENT_POSITION_AND_DIR: x=ExtData[1]->WorkLocal[0], z=ExtData[1]->WorkLocal[1], y=ExtData[1]->WorkLocal[2], direction=ExtData[1]->WorkLocal[3]
  8: 0x00D7 [0x00] END_REQSTACK()
```

### Event 65535.16

#### Metadata

| Field        | Value    |
|--------------|----------|
| Entrypoint   | 0x00D8   |
| Data Size    | 67 bytes |
| Instructions | 13       |

```
      00 01 02 03 04 05 06 07  08 09 0A 0B 0C 0D 0E 0F
      -- -- -- -- -- -- -- --  -- -- -- -- -- -- -- --
00D0:                          3B F8 FF FF 7F 00 00 01          ;.......
00E0: 00 02 00 3A F8 FF FF 7F  03 00 08 03 00 28 80 17  ...:.........(..
00F0: 04 00 03 00 29 80 16 05  00 03 00 29 80 07 00 00  ....)......)....
0100: 04 00 07 01 00 05 00 32  22 80 1F 00 00 00 01 00  .......2".......
0110: 02 00 1F 01 6F 1E 39 12  04 01 00                 ....o.9....     
```

#### Opcodes

```
  0: 0x00D8 [0x3B] GET_ENTITY_POSITION(entity=EventEntity, x_destination=ExtData[1]->WorkLocal[0], y_destination=ExtData[1]->WorkLocal[1], z_destination=ExtData[1]->WorkLocal[2])
  1: 0x00E3 [0x3A] CONVERT_YAW_TO_BYTE(entity=EventEntity, result_destination=ExtData[1]->WorkLocal[3])
  2: 0x00EA [0x08] ExtData[1]->WorkLocal[3] -= 1024*
  3: 0x00EF [0x17] ExtData[1]->WorkLocal[4] = cos(ExtData[1]->WorkLocal[3]) * 1200*
  4: 0x00F6 [0x16] ExtData[1]->WorkLocal[5] = sin(ExtData[1]->WorkLocal[3]) * 1200*
  5: 0x00FD [0x07] ExtData[1]->WorkLocal[0] += ExtData[1]->WorkLocal[4]
  6: 0x0102 [0x07] ExtData[1]->WorkLocal[1] += ExtData[1]->WorkLocal[5]
  7: 0x0107 [0x32] ExtData[1]->MainSpeed = 50* * 0.1
  8: 0x010A [0x1F] MOVE_ENTITY: EventEntity moves to X=ExtData[1]->WorkLocal[0], Z=ExtData[1]->WorkLocal[1], Y=ExtData[1]->WorkLocal[2]
  9: 0x0112 [0x1F] MOVE_ENTITY: Update entity position (mode=1)
 10: 0x0114 [0x6F] WAIT_FRAME_DELAY: Yield until WaitTime reaches zero
 11: 0x0115 [0x1E] EventEntity looks at Salwa-Molwa (ID: 17044025/0x01041239) and starts talking
 12: 0x011A [0x00] END_REQSTACK()
```

### Event 65535.17

#### Metadata

| Field        | Value    |
|--------------|----------|
| Entrypoint   | 0x011B   |
| Data Size    | 67 bytes |
| Instructions | 13       |

```
      00 01 02 03 04 05 06 07  08 09 0A 0B 0C 0D 0E 0F
      -- -- -- -- -- -- -- --  -- -- -- -- -- -- -- --
0110:                                   3B F8 FF FF 7F             ;....
0120: 00 00 01 00 02 00 3A F8  FF FF 7F 03 00 07 03 00  ......:.........
0130: 28 80 17 04 00 03 00 29  80 16 05 00 03 00 29 80  (......)......).
0140: 07 00 00 04 00 07 01 00  05 00 32 22 80 1F 00 00  ..........2"....
0150: 00 01 00 02 00 1F 01 6F  1E 39 12 04 01 00        .......o.9....  
```

#### Opcodes

```
  0: 0x011B [0x3B] GET_ENTITY_POSITION(entity=EventEntity, x_destination=ExtData[1]->WorkLocal[0], y_destination=ExtData[1]->WorkLocal[1], z_destination=ExtData[1]->WorkLocal[2])
  1: 0x0126 [0x3A] CONVERT_YAW_TO_BYTE(entity=EventEntity, result_destination=ExtData[1]->WorkLocal[3])
  2: 0x012D [0x07] ExtData[1]->WorkLocal[3] += 1024*
  3: 0x0132 [0x17] ExtData[1]->WorkLocal[4] = cos(ExtData[1]->WorkLocal[3]) * 1200*
  4: 0x0139 [0x16] ExtData[1]->WorkLocal[5] = sin(ExtData[1]->WorkLocal[3]) * 1200*
  5: 0x0140 [0x07] ExtData[1]->WorkLocal[0] += ExtData[1]->WorkLocal[4]
  6: 0x0145 [0x07] ExtData[1]->WorkLocal[1] += ExtData[1]->WorkLocal[5]
  7: 0x014A [0x32] ExtData[1]->MainSpeed = 50* * 0.1
  8: 0x014D [0x1F] MOVE_ENTITY: EventEntity moves to X=ExtData[1]->WorkLocal[0], Z=ExtData[1]->WorkLocal[1], Y=ExtData[1]->WorkLocal[2]
  9: 0x0155 [0x1F] MOVE_ENTITY: Update entity position (mode=1)
 10: 0x0157 [0x6F] WAIT_FRAME_DELAY: Yield until WaitTime reaches zero
 11: 0x0158 [0x1E] EventEntity looks at Salwa-Molwa (ID: 17044025/0x01041239) and starts talking
 12: 0x015D [0x00] END_REQSTACK()
```

### Event 65535.18

#### Metadata

| Field        | Value    |
|--------------|----------|
| Entrypoint   | 0x015E   |
| Data Size    | 15 bytes |
| Instructions | 5        |

```
      00 01 02 03 04 05 06 07  08 09 0A 0B 0C 0D 0E 0F
      -- -- -- -- -- -- -- --  -- -- -- -- -- -- -- --
0150:                                            32 12                2.
0160: 80 1F 00 2A 80 2B 80 2C  80 1F 01 6F 00           ...*.+.,...o.   
```

#### Opcodes

```
  0: 0x015E [0x32] ExtData[1]->MainSpeed = 40* * 0.1
  1: 0x0161 [0x1F] MOVE_ENTITY: EventEntity moves to X=673.759*, Z=202.938*, Y=-16.286*
  2: 0x0169 [0x1F] MOVE_ENTITY: Update entity position (mode=1)
  3: 0x016B [0x6F] WAIT_FRAME_DELAY: Yield until WaitTime reaches zero
  4: 0x016C [0x00] END_REQSTACK()
```

### Event 65535.19

#### Metadata

| Field        | Value    |
|--------------|----------|
| Entrypoint   | 0x016D   |
| Data Size    | 12 bytes |
| Instructions | 4        |

```
      00 01 02 03 04 05 06 07  08 09 0A 0B 0C 0D 0E 0F
      -- -- -- -- -- -- -- --  -- -- -- -- -- -- -- --
0160:                                         1F 00 0E               ...
0170: 80 0F 80 10 80 1F 01 6F  00                       .......o.       
```

#### Opcodes

```
  0: 0x016D [0x1F] MOVE_ENTITY: EventEntity moves to X=671.423*, Z=202.430*, Y=-16.775*
  1: 0x0175 [0x1F] MOVE_ENTITY: Update entity position (mode=1)
  2: 0x0177 [0x6F] WAIT_FRAME_DELAY: Yield until WaitTime reaches zero
  3: 0x0178 [0x00] END_REQSTACK()
```

### Event 65535.20

#### Metadata

| Field        | Value    |
|--------------|----------|
| Entrypoint   | 0x0179   |
| Data Size    | 12 bytes |
| Instructions | 4        |

```
      00 01 02 03 04 05 06 07  08 09 0A 0B 0C 0D 0E 0F
      -- -- -- -- -- -- -- --  -- -- -- -- -- -- -- --
0170:                             1F 00 2D 80 2E 80 2F           ..-.../
0180: 80 1F 01 6F 00                                    ...o.           
```

#### Opcodes

```
  0: 0x0179 [0x1F] MOVE_ENTITY: EventEntity moves to X=676.585*, Z=203.600*, Y=-16.000*
  1: 0x0181 [0x1F] MOVE_ENTITY: Update entity position (mode=1)
  2: 0x0183 [0x6F] WAIT_FRAME_DELAY: Yield until WaitTime reaches zero
  3: 0x0184 [0x00] END_REQSTACK()
```

### Event 65535.21

#### Metadata

| Field        | Value   |
|--------------|---------|
| Entrypoint   | 0x0185  |
| Data Size    | 1 bytes |
| Instructions | 1       |

```
      00 01 02 03 04 05 06 07  08 09 0A 0B 0C 0D 0E 0F
      -- -- -- -- -- -- -- --  -- -- -- -- -- -- -- --
0180:                00                                      .          
```

#### Opcodes

```
  0: 0x0185 [0x00] END_REQSTACK()
```

### Event 65535.22

#### Metadata

| Field        | Value    |
|--------------|----------|
| Entrypoint   | 0x0186   |
| Data Size    | 10 bytes |
| Instructions | 2        |

```
      00 01 02 03 04 05 06 07  08 09 0A 0B 0C 0D 0E 0F
      -- -- -- -- -- -- -- --  -- -- -- -- -- -- -- --
0180:                   37 30  80 31 80 32 80 33 80 00        70.1.2.3..
```

#### Opcodes

```
  0: 0x0186 [0x37] UPDATE_EVENT_POSITION_AND_DIR: x=590.375*, z=179.250*, y=-18.150*, direction=198.5°*
  1: 0x018F [0x00] END_REQSTACK()
```

### Event 65535.23

#### Metadata

| Field        | Value    |
|--------------|----------|
| Entrypoint   | 0x0190   |
| Data Size    | 28 bytes |
| Instructions | 8        |

```
      00 01 02 03 04 05 06 07  08 09 0A 0B 0C 0D 0E 0F
      -- -- -- -- -- -- -- --  -- -- -- -- -- -- -- --
0190: 32 22 80 1F 00 34 80 35  80 36 80 1F 01 6F 32 22  2"...4.5.6...o2"
01A0: 80 1F 00 37 80 38 80 39  80 1F 01 00              ...7.8.9....    
```

#### Opcodes

```
  0: 0x0190 [0x32] ExtData[1]->MainSpeed = 50* * 0.1
  1: 0x0193 [0x1F] MOVE_ENTITY: EventEntity moves to X=582.551*, Z=183.321*, Y=-17.681*
  2: 0x019B [0x1F] MOVE_ENTITY: Update entity position (mode=1)
  3: 0x019D [0x6F] WAIT_FRAME_DELAY: Yield until WaitTime reaches zero
  4: 0x019E [0x32] ExtData[1]->MainSpeed = 50* * 0.1
  5: 0x01A1 [0x1F] MOVE_ENTITY: EventEntity moves to X=580.177*, Z=210.158*, Y=-17.807*
  6: 0x01A9 [0x1F] MOVE_ENTITY: Update entity position (mode=1)
  7: 0x01AB [0x00] END_REQSTACK()
```

### Event 65535.24

#### Metadata

| Field        | Value    |
|--------------|----------|
| Entrypoint   | 0x01AC   |
| Data Size    | 10 bytes |
| Instructions | 2        |

```
      00 01 02 03 04 05 06 07  08 09 0A 0B 0C 0D 0E 0F
      -- -- -- -- -- -- -- --  -- -- -- -- -- -- -- --
01A0:                                      37 3A 80 3B              7:.;
01B0: 80 3C 80 3D 80 00                                 .<.=..          
```

#### Opcodes

```
  0: 0x01AC [0x37] UPDATE_EVENT_POSITION_AND_DIR: x=220.534*, z=-93.811*, y=-26.166*, direction=101.6°*
  1: 0x01B5 [0x00] END_REQSTACK()
```

### Event 65535.25

#### Metadata

| Field        | Value    |
|--------------|----------|
| Entrypoint   | 0x01B6   |
| Data Size    | 26 bytes |
| Instructions | 8        |

```
      00 01 02 03 04 05 06 07  08 09 0A 0B 0C 0D 0E 0F
      -- -- -- -- -- -- -- --  -- -- -- -- -- -- -- --
01B0:                   32 12  80 1F 00 3E 80 3F 80 40        2....>.?.@
01C0: 80 1F 01 6F 1F 00 41 80  42 80 43 80 1F 01 6F 00  ...o..A.B.C...o.
```

#### Opcodes

```
  0: 0x01B6 [0x32] ExtData[1]->MainSpeed = 40* * 0.1
  1: 0x01B9 [0x1F] MOVE_ENTITY: EventEntity moves to X=218.778*, Z=-99.560*, Y=-24.396*
  2: 0x01C1 [0x1F] MOVE_ENTITY: Update entity position (mode=1)
  3: 0x01C3 [0x6F] WAIT_FRAME_DELAY: Yield until WaitTime reaches zero
  4: 0x01C4 [0x1F] MOVE_ENTITY: EventEntity moves to X=207.820*, Z=-100.858*, Y=-23.050*
  5: 0x01CC [0x1F] MOVE_ENTITY: Update entity position (mode=1)
  6: 0x01CE [0x6F] WAIT_FRAME_DELAY: Yield until WaitTime reaches zero
  7: 0x01CF [0x00] END_REQSTACK()
```

### Event 223

#### Metadata

| Field        | Value   |
|--------------|---------|
| Entrypoint   | 0x01D0  |
| Data Size    | 1 bytes |
| Instructions | 1       |

```
      00 01 02 03 04 05 06 07  08 09 0A 0B 0C 0D 0E 0F
      -- -- -- -- -- -- -- --  -- -- -- -- -- -- -- --
01D0: 00                                                .               
```

#### Opcodes

```
  0: 0x01D0 [0x00] END_REQSTACK()
```

### Event 224

#### Metadata

| Field        | Value   |
|--------------|---------|
| Entrypoint   | 0x01D1  |
| Data Size    | 1 bytes |
| Instructions | 1       |

```
      00 01 02 03 04 05 06 07  08 09 0A 0B 0C 0D 0E 0F
      -- -- -- -- -- -- -- --  -- -- -- -- -- -- -- --
01D0:    00                                              .              
```

#### Opcodes

```
  0: 0x01D1 [0x00] END_REQSTACK()
```

### Event 65535.26

#### Metadata

| Field        | Value    |
|--------------|----------|
| Entrypoint   | 0x01D2   |
| Data Size    | 27 bytes |
| Instructions | 3        |

```
      00 01 02 03 04 05 06 07  08 09 0A 0B 0C 0D 0E 0F
      -- -- -- -- -- -- -- --  -- -- -- -- -- -- -- --
01D0:       2C F8 FF FF 7F F8  FF FF 7F 68 65 6E 30 53    ,........hen0S
01E0: F8 FF FF 7F F8 FF FF 7F  68 65 6E 30 00           ........hen0.   
```

#### Opcodes

```
  0: 0x01D2 [0x2C] CREATE_SCHEDULER_TASK: Create scheduler "hen0" with entities [EventEntity, EventEntity]
  1: 0x01DF [0x53] WAIT_SCHEDULER_TASK: Wait for scheduler "hen0" with entities [EventEntity, EventEntity]
  2: 0x01EC [0x00] END_REQSTACK()
```

### Event 65535.27

#### Metadata

| Field        | Value    |
|--------------|----------|
| Entrypoint   | 0x01ED   |
| Data Size    | 10 bytes |
| Instructions | 2        |

```
      00 01 02 03 04 05 06 07  08 09 0A 0B 0C 0D 0E 0F
      -- -- -- -- -- -- -- --  -- -- -- -- -- -- -- --
01E0:                                         37 44 80               7D.
01F0: 45 80 46 80 27 80 00                              E.F.'..         
```

#### Opcodes

```
  0: 0x01ED [0x37] UPDATE_EVENT_POSITION_AND_DIR: x=-36.641*, z=-102.056*, y=6.115*, direction=180.0°*
  1: 0x01F6 [0x00] END_REQSTACK()
```

### Event 65535.28

#### Metadata

| Field        | Value    |
|--------------|----------|
| Entrypoint   | 0x01F7   |
| Data Size    | 20 bytes |
| Instructions | 6        |

```
      00 01 02 03 04 05 06 07  08 09 0A 0B 0C 0D 0E 0F
      -- -- -- -- -- -- -- --  -- -- -- -- -- -- -- --
01F0:                      32  47 80 1F 00 48 80 49 80         2G...H.I.
0200: 4A 80 1F 01 6F 1E 3B 12  04 01 00                 J...o.;....     
```

#### Opcodes

```
  0: 0x01F7 [0x32] ExtData[1]->MainSpeed = 10* * 0.1
  1: 0x01FA [0x1F] MOVE_ENTITY: EventEntity moves to X=-39.426*, Z=-101.193*, Y=5.844*
  2: 0x0202 [0x1F] MOVE_ENTITY: Update entity position (mode=1)
  3: 0x0204 [0x6F] WAIT_FRAME_DELAY: Yield until WaitTime reaches zero
  4: 0x0205 [0x1E] EventEntity looks at Clavauert (ID: 17044027/0x0104123B) and starts talking
  5: 0x020A [0x00] END_REQSTACK()
```

### Event 65535.29

#### Metadata

| Field        | Value    |
|--------------|----------|
| Entrypoint   | 0x020B   |
| Data Size    | 15 bytes |
| Instructions | 5        |

```
      00 01 02 03 04 05 06 07  08 09 0A 0B 0C 0D 0E 0F
      -- -- -- -- -- -- -- --  -- -- -- -- -- -- -- --
0200:                                   32 4B 80 1F 00             2K...
0210: 4C 80 4D 80 4E 80 1F 01  6F 00                    L.M.N...o.      
```

#### Opcodes

```
  0: 0x020B [0x32] ExtData[1]->MainSpeed = 30* * 0.1
  1: 0x020E [0x1F] MOVE_ENTITY: EventEntity moves to X=-40.474*, Z=-100.029*, Y=5.990*
  2: 0x0216 [0x1F] MOVE_ENTITY: Update entity position (mode=1)
  3: 0x0218 [0x6F] WAIT_FRAME_DELAY: Yield until WaitTime reaches zero
  4: 0x0219 [0x00] END_REQSTACK()
```

### Event 65535.30

#### Metadata

| Field        | Value    |
|--------------|----------|
| Entrypoint   | 0x021A   |
| Data Size    | 10 bytes |
| Instructions | 2        |

```
      00 01 02 03 04 05 06 07  08 09 0A 0B 0C 0D 0E 0F
      -- -- -- -- -- -- -- --  -- -- -- -- -- -- -- --
0210:                                37 4F 80 50 80 51            7O.P.Q
0220: 80 52 80 00                                       .R..            
```

#### Opcodes

```
  0: 0x021A [0x37] UPDATE_EVENT_POSITION_AND_DIR: x=-40.462*, z=-100.126*, y=5.977*, direction=270.5°*
  1: 0x0223 [0x00] END_REQSTACK()
```

### Event 65535.31

#### Metadata

| Field        | Value    |
|--------------|----------|
| Entrypoint   | 0x0224   |
| Data Size    | 28 bytes |
| Instructions | 8        |

```
      00 01 02 03 04 05 06 07  08 09 0A 0B 0C 0D 0E 0F
      -- -- -- -- -- -- -- --  -- -- -- -- -- -- -- --
0220:             1F 00 53 80  54 80 55 80 1F 01 6F 1F      ..S.T.U...o.
0230: 00 56 80 57 80 58 80 1F  01 6F 1E 3D 12 04 01 00  .V.W.X...o.=....
```

#### Opcodes

```
  0: 0x0224 [0x1F] MOVE_ENTITY: EventEntity moves to X=-48.618*, Z=-98.796*, Y=5.920*
  1: 0x022C [0x1F] MOVE_ENTITY: Update entity position (mode=1)
  2: 0x022E [0x6F] WAIT_FRAME_DELAY: Yield until WaitTime reaches zero
  3: 0x022F [0x1F] MOVE_ENTITY: EventEntity moves to X=-50.026*, Z=-99.137*, Y=5.984*
  4: 0x0237 [0x1F] MOVE_ENTITY: Update entity position (mode=1)
  5: 0x0239 [0x6F] WAIT_FRAME_DELAY: Yield until WaitTime reaches zero
  6: 0x023A [0x1E] EventEntity looks at Unnamed NPC (ID: 17044029/0x0104123D) and starts talking
  7: 0x023F [0x00] END_REQSTACK()
```

### Event 65535.32

#### Metadata

| Field        | Value   |
|--------------|---------|
| Entrypoint   | 0x0240  |
| Data Size    | 8 bytes |
| Instructions | 2       |

```
      00 01 02 03 04 05 06 07  08 09 0A 0B 0C 0D 0E 0F
      -- -- -- -- -- -- -- --  -- -- -- -- -- -- -- --
0240: 36 56 80 57 80 58 80 00                           6V.W.X..        
```

#### Opcodes

```
  0: 0x0240 [0x36] SET_ENTITY_EVENT_POSITION(pos_x=-50.026*, pos_z=-99.137*, pos_y=5.984*)
  1: 0x0247 [0x00] END_REQSTACK()
```

### Event 225

#### Metadata

| Field        | Value   |
|--------------|---------|
| Entrypoint   | 0x0248  |
| Data Size    | 1 bytes |
| Instructions | 1       |

```
      00 01 02 03 04 05 06 07  08 09 0A 0B 0C 0D 0E 0F
      -- -- -- -- -- -- -- --  -- -- -- -- -- -- -- --
0240:                          00                               .       
```

#### Opcodes

```
  0: 0x0248 [0x00] END_REQSTACK()
```

### Event 65535.33

#### Metadata

| Field        | Value   |
|--------------|---------|
| Entrypoint   | 0x0249  |
| Data Size    | 8 bytes |
| Instructions | 2       |

```
      00 01 02 03 04 05 06 07  08 09 0A 0B 0C 0D 0E 0F
      -- -- -- -- -- -- -- --  -- -- -- -- -- -- -- --
0240:                             36 59 80 5A 80 5B 80           6Y.Z.[.
0250: 00                                                .               
```

#### Opcodes

```
  0: 0x0249 [0x36] SET_ENTITY_EVENT_POSITION(pos_x=-50.815*, pos_z=-99.281*, pos_y=5.969*)
  1: 0x0250 [0x00] END_REQSTACK()
```

### Event 65535.34

#### Metadata

| Field        | Value    |
|--------------|----------|
| Entrypoint   | 0x0251   |
| Data Size    | 50 bytes |
| Instructions | 14       |

```
      00 01 02 03 04 05 06 07  08 09 0A 0B 0C 0D 0E 0F
      -- -- -- -- -- -- -- --  -- -- -- -- -- -- -- --
0250:    32 5C 80 1F 00 5D 80  5E 80 5F 80 1F 01 6F 32   2\...].^._...o2
0260: 5C 80 1F 00 60 80 61 80  62 80 1F 01 6F 27 10 F0  \...`.a.b...o'..
0270: FF FF 7F 32 32 5C 80 1F  00 63 80 64 80 65 80 1F  ...22\...c.d.e..
0280: 01 6F 00                                          .o.             
```

#### Opcodes

```
  0: 0x0251 [0x32] ExtData[1]->MainSpeed = 8* * 0.1
  1: 0x0254 [0x1F] MOVE_ENTITY: EventEntity moves to X=-50.873*, Z=-98.424*, Y=5.947*
  2: 0x025C [0x1F] MOVE_ENTITY: Update entity position (mode=1)
  3: 0x025E [0x6F] WAIT_FRAME_DELAY: Yield until WaitTime reaches zero
  4: 0x025F [0x32] ExtData[1]->MainSpeed = 8* * 0.1
  5: 0x0262 [0x1F] MOVE_ENTITY: EventEntity moves to X=-52.639*, Z=-101.871*, Y=5.933*
  6: 0x026A [0x1F] MOVE_ENTITY: Update entity position (mode=1)
  7: 0x026C [0x6F] WAIT_FRAME_DELAY: Yield until WaitTime reaches zero
  8: 0x026D [0x27] REQ_SET(priority=0x10, entity_id=LocalPlayer, tag_num=0x32)
  9: 0x0274 [0x32] ExtData[1]->MainSpeed = 8* * 0.1
 10: 0x0277 [0x1F] MOVE_ENTITY: EventEntity moves to X=-54.302*, Z=-99.979*, Y=6.024*
 11: 0x027F [0x1F] MOVE_ENTITY: Update entity position (mode=1)
 12: 0x0281 [0x6F] WAIT_FRAME_DELAY: Yield until WaitTime reaches zero
 13: 0x0282 [0x00] END_REQSTACK()
```

### Event 65535.35

#### Metadata

| Field        | Value    |
|--------------|----------|
| Entrypoint   | 0x0283   |
| Data Size    | 15 bytes |
| Instructions | 5        |

```
      00 01 02 03 04 05 06 07  08 09 0A 0B 0C 0D 0E 0F
      -- -- -- -- -- -- -- --  -- -- -- -- -- -- -- --
0280:          32 5C 80 1F 00  63 80 64 80 65 80 1F 01     2\...c.d.e...
0290: 6F 00                                             o.              
```

#### Opcodes

```
  0: 0x0283 [0x32] ExtData[1]->MainSpeed = 8* * 0.1
  1: 0x0286 [0x1F] MOVE_ENTITY: EventEntity moves to X=-54.302*, Z=-99.979*, Y=6.024*
  2: 0x028E [0x1F] MOVE_ENTITY: Update entity position (mode=1)
  3: 0x0290 [0x6F] WAIT_FRAME_DELAY: Yield until WaitTime reaches zero
  4: 0x0291 [0x00] END_REQSTACK()
```

### Event 65535.36

#### Metadata

| Field        | Value    |
|--------------|----------|
| Entrypoint   | 0x0292   |
| Data Size    | 15 bytes |
| Instructions | 5        |

```
      00 01 02 03 04 05 06 07  08 09 0A 0B 0C 0D 0E 0F
      -- -- -- -- -- -- -- --  -- -- -- -- -- -- -- --
0290:       32 5C 80 1F 00 66  80 67 80 68 80 1F 01 6F    2\...f.g.h...o
02A0: 00                                                .               
```

#### Opcodes

```
  0: 0x0292 [0x32] ExtData[1]->MainSpeed = 8* * 0.1
  1: 0x0295 [0x1F] MOVE_ENTITY: EventEntity moves to X=-54.710*, Z=-98.909*, Y=6.044*
  2: 0x029D [0x1F] MOVE_ENTITY: Update entity position (mode=1)
  3: 0x029F [0x6F] WAIT_FRAME_DELAY: Yield until WaitTime reaches zero
  4: 0x02A0 [0x00] END_REQSTACK()
```

### Event 65535.37

#### Metadata

| Field        | Value    |
|--------------|----------|
| Entrypoint   | 0x02A1   |
| Data Size    | 14 bytes |
| Instructions | 2        |

```
      00 01 02 03 04 05 06 07  08 09 0A 0B 0C 0D 0E 0F
      -- -- -- -- -- -- -- --  -- -- -- -- -- -- -- --
02A0:    2C F8 FF FF 7F 3A 12  04 01 68 65 6E 30 00      ,....:...hen0. 
```

#### Opcodes

```
  0: 0x02A1 [0x2C] CREATE_SCHEDULER_TASK: Create scheduler "hen0" with entities [EventEntity, Mikilulu (ID: 17044026/0x0104123A)]
  1: 0x02AE [0x00] END_REQSTACK()
```

### Event 65535.38

#### Metadata

| Field        | Value   |
|--------------|---------|
| Entrypoint   | 0x02AF  |
| Data Size    | 1 bytes |
| Instructions | 1       |

```
      00 01 02 03 04 05 06 07  08 09 0A 0B 0C 0D 0E 0F
      -- -- -- -- -- -- -- --  -- -- -- -- -- -- -- --
02A0:                                               00                 .
```

#### Opcodes

```
  0: 0x02AF [0x00] END_REQSTACK()
```

### Event 65535.39

#### Metadata

| Field        | Value   |
|--------------|---------|
| Entrypoint   | 0x02B0  |
| Data Size    | 1 bytes |
| Instructions | 1       |

```
      00 01 02 03 04 05 06 07  08 09 0A 0B 0C 0D 0E 0F
      -- -- -- -- -- -- -- --  -- -- -- -- -- -- -- --
02B0: 00                                                .               
```

#### Opcodes

```
  0: 0x02B0 [0x00] END_REQSTACK()
```

### Event 65535.40

#### Metadata

| Field        | Value    |
|--------------|----------|
| Entrypoint   | 0x02B1   |
| Data Size    | 50 bytes |
| Instructions | 8        |

```
      00 01 02 03 04 05 06 07  08 09 0A 0B 0C 0D 0E 0F
      -- -- -- -- -- -- -- --  -- -- -- -- -- -- -- --
02B0:    3B 3D 12 04 01 00 00  01 00 02 00 3A 3D 12 04   ;=.........:=..
02C0: 01 03 00 17 04 00 03 00  69 80 16 05 00 03 00 69  ........i......i
02D0: 80 07 00 00 04 00 07 01  00 05 00 36 00 00 01 00  ...........6....
02E0: 02 00 00                                          ...             
```

#### Opcodes

```
  0: 0x02B1 [0x3B] GET_ENTITY_POSITION(entity=Unnamed NPC (ID: 17044029/0x0104123D), x_destination=ExtData[1]->WorkLocal[0], y_destination=ExtData[1]->WorkLocal[1], z_destination=ExtData[1]->WorkLocal[2])
  1: 0x02BC [0x3A] CONVERT_YAW_TO_BYTE(entity=Unnamed NPC (ID: 17044029/0x0104123D), result_destination=ExtData[1]->WorkLocal[3])
  2: 0x02C3 [0x17] ExtData[1]->WorkLocal[4] = cos(ExtData[1]->WorkLocal[3]) * 14000*
  3: 0x02CA [0x16] ExtData[1]->WorkLocal[5] = sin(ExtData[1]->WorkLocal[3]) * 14000*
  4: 0x02D1 [0x07] ExtData[1]->WorkLocal[0] += ExtData[1]->WorkLocal[4]
  5: 0x02D6 [0x07] ExtData[1]->WorkLocal[1] += ExtData[1]->WorkLocal[5]
  6: 0x02DB [0x36] SET_ENTITY_EVENT_POSITION(pos_x=ExtData[1]->WorkLocal[0], pos_z=ExtData[1]->WorkLocal[1], pos_y=ExtData[1]->WorkLocal[2])
  7: 0x02E2 [0x00] END_REQSTACK()
```

### Event 65535.41

#### Metadata

| Field        | Value    |
|--------------|----------|
| Entrypoint   | 0x02E3   |
| Data Size    | 57 bytes |
| Instructions | 11       |

```
      00 01 02 03 04 05 06 07  08 09 0A 0B 0C 0D 0E 0F
      -- -- -- -- -- -- -- --  -- -- -- -- -- -- -- --
02E0:          3B 3D 12 04 01  00 00 01 00 02 00 3A 3D     ;=.........:=
02F0: 12 04 01 03 00 17 04 00  03 00 6A 80 16 05 00 03  ..........j.....
0300: 00 6A 80 07 00 00 04 00  07 01 00 05 00 32 12 80  .j...........2..
0310: 1F 00 00 00 01 00 02 00  1F 01 6F 00              ..........o.    
```

#### Opcodes

```
  0: 0x02E3 [0x3B] GET_ENTITY_POSITION(entity=Unnamed NPC (ID: 17044029/0x0104123D), x_destination=ExtData[1]->WorkLocal[0], y_destination=ExtData[1]->WorkLocal[1], z_destination=ExtData[1]->WorkLocal[2])
  1: 0x02EE [0x3A] CONVERT_YAW_TO_BYTE(entity=Unnamed NPC (ID: 17044029/0x0104123D), result_destination=ExtData[1]->WorkLocal[3])
  2: 0x02F5 [0x17] ExtData[1]->WorkLocal[4] = cos(ExtData[1]->WorkLocal[3]) * 2500*
  3: 0x02FC [0x16] ExtData[1]->WorkLocal[5] = sin(ExtData[1]->WorkLocal[3]) * 2500*
  4: 0x0303 [0x07] ExtData[1]->WorkLocal[0] += ExtData[1]->WorkLocal[4]
  5: 0x0308 [0x07] ExtData[1]->WorkLocal[1] += ExtData[1]->WorkLocal[5]
  6: 0x030D [0x32] ExtData[1]->MainSpeed = 40* * 0.1
  7: 0x0310 [0x1F] MOVE_ENTITY: EventEntity moves to X=ExtData[1]->WorkLocal[0], Z=ExtData[1]->WorkLocal[1], Y=ExtData[1]->WorkLocal[2]
  8: 0x0318 [0x1F] MOVE_ENTITY: Update entity position (mode=1)
  9: 0x031A [0x6F] WAIT_FRAME_DELAY: Yield until WaitTime reaches zero
 10: 0x031B [0x00] END_REQSTACK()
```

### Event 65535.42

#### Metadata

| Field        | Value    |
|--------------|----------|
| Entrypoint   | 0x031C   |
| Data Size    | 90 bytes |
| Instructions | 20       |

```
      00 01 02 03 04 05 06 07  08 09 0A 0B 0C 0D 0E 0F
      -- -- -- -- -- -- -- --  -- -- -- -- -- -- -- --
0310:                                      3B 3D 12 04              ;=..
0320: 01 00 00 01 00 02 00 3A  3D 12 04 01 03 00 17 04  .......:=.......
0330: 00 03 00 6B 80 16 05 00  03 00 6B 80 07 00 00 04  ...k......k.....
0340: 00 07 01 00 05 00 4B F8  FF FF 7F 03 00 6F 70 1C  ......K......op.
0350: 4B 80 32 12 80 1F 00 00  00 01 00 02 00 1F 01 6F  K.2............o
0360: 1F 00 6C 80 6D 80 6E 80  1F 01 6F 1F 00 6F 80 70  ..l.m.n...o..o.p
0370: 80 06 80 1F 01 00                                 ......          
```

#### Opcodes

```
  0: 0x031C [0x3B] GET_ENTITY_POSITION(entity=Unnamed NPC (ID: 17044029/0x0104123D), x_destination=ExtData[1]->WorkLocal[0], y_destination=ExtData[1]->WorkLocal[1], z_destination=ExtData[1]->WorkLocal[2])
  1: 0x0327 [0x3A] CONVERT_YAW_TO_BYTE(entity=Unnamed NPC (ID: 17044029/0x0104123D), result_destination=ExtData[1]->WorkLocal[3])
  2: 0x032E [0x17] ExtData[1]->WorkLocal[4] = cos(ExtData[1]->WorkLocal[3]) * 15000*
  3: 0x0335 [0x16] ExtData[1]->WorkLocal[5] = sin(ExtData[1]->WorkLocal[3]) * 15000*
  4: 0x033C [0x07] ExtData[1]->WorkLocal[0] += ExtData[1]->WorkLocal[4]
  5: 0x0341 [0x07] ExtData[1]->WorkLocal[1] += ExtData[1]->WorkLocal[5]
  6: 0x0346 [0x4B] UPDATE_ENTITY_YAW(entity=EventEntity, yaw=ExtData[1]->WorkLocal[3])
  7: 0x034D [0x6F] WAIT_FRAME_DELAY: Yield until WaitTime reaches zero
  8: 0x034E [0x70] WAIT_ENTITY_RENDER_FLAG: Wait while EventEntity->Render.Flags3 bit 2 is set (cancel turn if not)
  9: 0x034F [0x1C] WAIT(30* ticks)
 10: 0x0352 [0x32] ExtData[1]->MainSpeed = 40* * 0.1
 11: 0x0355 [0x1F] MOVE_ENTITY: EventEntity moves to X=ExtData[1]->WorkLocal[0], Z=ExtData[1]->WorkLocal[1], Y=ExtData[1]->WorkLocal[2]
 12: 0x035D [0x1F] MOVE_ENTITY: Update entity position (mode=1)
 13: 0x035F [0x6F] WAIT_FRAME_DELAY: Yield until WaitTime reaches zero
 14: 0x0360 [0x1F] MOVE_ENTITY: EventEntity moves to X=-87.691*, Z=-56.453*, Y=6.746*
 15: 0x0368 [0x1F] MOVE_ENTITY: Update entity position (mode=1)
 16: 0x036A [0x6F] WAIT_FRAME_DELAY: Yield until WaitTime reaches zero
 17: 0x036B [0x1F] MOVE_ENTITY: EventEntity moves to X=-79.231*, Z=-56.508*, Y=7.199*
 18: 0x0373 [0x1F] MOVE_ENTITY: Update entity position (mode=1)
 19: 0x0375 [0x00] END_REQSTACK()
```

### Event 65535.43

#### Metadata

| Field        | Value    |
|--------------|----------|
| Entrypoint   | 0x0376   |
| Data Size    | 10 bytes |
| Instructions | 2        |

```
      00 01 02 03 04 05 06 07  08 09 0A 0B 0C 0D 0E 0F
      -- -- -- -- -- -- -- --  -- -- -- -- -- -- -- --
0370:                   37 71  80 72 80 73 80 74 80 00        7q.r.s.t..
```

#### Opcodes

```
  0: 0x0376 [0x37] UPDATE_EVENT_POSITION_AND_DIR: x=-56.925*, z=-91.438*, y=6.265*, direction=103.8°*
  1: 0x037F [0x00] END_REQSTACK()
```

### Event 65535.44

#### Metadata

| Field        | Value    |
|--------------|----------|
| Entrypoint   | 0x0380   |
| Data Size    | 25 bytes |
| Instructions | 7        |

```
      00 01 02 03 04 05 06 07  08 09 0A 0B 0C 0D 0E 0F
      -- -- -- -- -- -- -- --  -- -- -- -- -- -- -- --
0380: 32 12 80 1F 00 75 80 76  80 77 80 1F 01 6F 1F 00  2....u.v.w...o..
0390: 78 80 79 80 7A 80 1F 01  00                       x.y.z....       
```

#### Opcodes

```
  0: 0x0380 [0x32] ExtData[1]->MainSpeed = 40* * 0.1
  1: 0x0383 [0x1F] MOVE_ENTITY: EventEntity moves to X=-57.065*, Z=-98.993*, Y=6.225*
  2: 0x038B [0x1F] MOVE_ENTITY: Update entity position (mode=1)
  3: 0x038D [0x6F] WAIT_FRAME_DELAY: Yield until WaitTime reaches zero
  4: 0x038E [0x1F] MOVE_ENTITY: EventEntity moves to X=-35.159*, Z=-99.757*, Y=6.987*
  5: 0x0396 [0x1F] MOVE_ENTITY: Update entity position (mode=1)
  6: 0x0398 [0x00] END_REQSTACK()
```

### Event 65535.45

#### Metadata

| Field        | Value   |
|--------------|---------|
| Entrypoint   | 0x0399  |
| Data Size    | 8 bytes |
| Instructions | 2       |

```
      00 01 02 03 04 05 06 07  08 09 0A 0B 0C 0D 0E 0F
      -- -- -- -- -- -- -- --  -- -- -- -- -- -- -- --
0390:                             36 63 80 64 80 65 80           6c.d.e.
03A0: 00                                                .               
```

#### Opcodes

```
  0: 0x0399 [0x36] SET_ENTITY_EVENT_POSITION(pos_x=-54.302*, pos_z=-99.979*, pos_y=6.024*)
  1: 0x03A0 [0x00] END_REQSTACK()
```

### Event 65535.46

#### Metadata

| Field        | Value   |
|--------------|---------|
| Entrypoint   | 0x03A1  |
| Data Size    | 8 bytes |
| Instructions | 2       |

```
      00 01 02 03 04 05 06 07  08 09 0A 0B 0C 0D 0E 0F
      -- -- -- -- -- -- -- --  -- -- -- -- -- -- -- --
03A0:    36 59 80 5A 80 5B 80  00                        6Y.Z.[..       
```

#### Opcodes

```
  0: 0x03A1 [0x36] SET_ENTITY_EVENT_POSITION(pos_x=-50.815*, pos_z=-99.281*, pos_y=5.969*)
  1: 0x03A8 [0x00] END_REQSTACK()
```

### Event 65535.47

#### Metadata

| Field        | Value    |
|--------------|----------|
| Entrypoint   | 0x03A9   |
| Data Size    | 10 bytes |
| Instructions | 2        |

```
      00 01 02 03 04 05 06 07  08 09 0A 0B 0C 0D 0E 0F
      -- -- -- -- -- -- -- --  -- -- -- -- -- -- -- --
03A0:                             37 7B 80 7C 80 7D 80           7{.|.}.
03B0: 7E 80 00                                          ~..             
```

#### Opcodes

```
  0: 0x03A9 [0x37] UPDATE_EVENT_POSITION_AND_DIR: x=588.074*, z=179.304*, y=-18.032*, direction=204.2°*
  1: 0x03B2 [0x00] END_REQSTACK()
```

### Event 65535.48

#### Metadata

| Field        | Value    |
|--------------|----------|
| Entrypoint   | 0x03B3   |
| Data Size    | 25 bytes |
| Instructions | 7        |

```
      00 01 02 03 04 05 06 07  08 09 0A 0B 0C 0D 0E 0F
      -- -- -- -- -- -- -- --  -- -- -- -- -- -- -- --
03B0:          32 12 80 1F 00  7F 80 80 80 81 80 1F 01     2............
03C0: 6F 1F 00 82 80 83 80 84  80 1F 01 00              o...........    
```

#### Opcodes

```
  0: 0x03B3 [0x32] ExtData[1]->MainSpeed = 40* * 0.1
  1: 0x03B6 [0x1F] MOVE_ENTITY: EventEntity moves to X=582.730*, Z=180.705*, Y=-17.314*
  2: 0x03BE [0x1F] MOVE_ENTITY: Update entity position (mode=1)
  3: 0x03C0 [0x6F] WAIT_FRAME_DELAY: Yield until WaitTime reaches zero
  4: 0x03C1 [0x1F] MOVE_ENTITY: EventEntity moves to X=579.493*, Z=200.132*, Y=-18.675*
  5: 0x03C9 [0x1F] MOVE_ENTITY: Update entity position (mode=1)
  6: 0x03CB [0x00] END_REQSTACK()
```

### Event 65535.49

#### Metadata

| Field        | Value    |
|--------------|----------|
| Entrypoint   | 0x03CC   |
| Data Size    | 10 bytes |
| Instructions | 2        |

```
      00 01 02 03 04 05 06 07  08 09 0A 0B 0C 0D 0E 0F
      -- -- -- -- -- -- -- --  -- -- -- -- -- -- -- --
03C0:                                      37 85 80 86              7...
03D0: 80 87 80 88 80 00                                 ......          
```

#### Opcodes

```
  0: 0x03CC [0x37] UPDATE_EVENT_POSITION_AND_DIR: x=592.463*, z=179.216*, y=-18.304*, direction=0.0°*
  1: 0x03D5 [0x00] END_REQSTACK()
```

### Event 65535.50

#### Metadata

| Field        | Value    |
|--------------|----------|
| Entrypoint   | 0x03D6   |
| Data Size    | 56 bytes |
| Instructions | 10       |

```
      00 01 02 03 04 05 06 07  08 09 0A 0B 0C 0D 0E 0F
      -- -- -- -- -- -- -- --  -- -- -- -- -- -- -- --
03D0:                   3B F8  FF FF 7F 00 00 01 00 02        ;.........
03E0: 00 3A F8 FF FF 7F 03 00  17 04 00 03 00 89 80 16  .:..............
03F0: 05 00 03 00 89 80 07 00  00 04 00 07 01 00 05 00  ................
0400: 32 12 80 1F 00 00 00 01  00 02 00 1F 01 00        2.............  
```

#### Opcodes

```
  0: 0x03D6 [0x3B] GET_ENTITY_POSITION(entity=EventEntity, x_destination=ExtData[1]->WorkLocal[0], y_destination=ExtData[1]->WorkLocal[1], z_destination=ExtData[1]->WorkLocal[2])
  1: 0x03E1 [0x3A] CONVERT_YAW_TO_BYTE(entity=EventEntity, result_destination=ExtData[1]->WorkLocal[3])
  2: 0x03E8 [0x17] ExtData[1]->WorkLocal[4] = cos(ExtData[1]->WorkLocal[3]) * 27000*
  3: 0x03EF [0x16] ExtData[1]->WorkLocal[5] = sin(ExtData[1]->WorkLocal[3]) * 27000*
  4: 0x03F6 [0x07] ExtData[1]->WorkLocal[0] += ExtData[1]->WorkLocal[4]
  5: 0x03FB [0x07] ExtData[1]->WorkLocal[1] += ExtData[1]->WorkLocal[5]
  6: 0x0400 [0x32] ExtData[1]->MainSpeed = 40* * 0.1
  7: 0x0403 [0x1F] MOVE_ENTITY: EventEntity moves to X=ExtData[1]->WorkLocal[0], Z=ExtData[1]->WorkLocal[1], Y=ExtData[1]->WorkLocal[2]
  8: 0x040B [0x1F] MOVE_ENTITY: Update entity position (mode=1)
  9: 0x040D [0x00] END_REQSTACK()
```
