# 17044007 - Mashubl

## Common Data

| Field            | Value           |
|------------------|-----------------|
| Zone             | Mamook (ID: 65) |
| Block Size       | 104 bytes       |
| Total Events     | 4               |
| References Count | 8               |

## List of Events

| Event ID                 | Entrypoint   |   Size |   Instructions |
|--------------------------|--------------|--------|----------------|
| [213](#event-213)        | 0x0000       |      1 |              1 |
| [65535](#event-65535)    | 0x0001       |     19 |              5 |
| [65535.1](#event-655351) | 0x0014       |     17 |              5 |

## DAT References (imed_data)

|   Index | Hex Value   |   Dec Value |
|---------|-------------|-------------|
|       0 | 0x0028      |          40 |
|       1 | 0xFFFBFEDE  |  4294704862 |
|       2 | 0xFFFDC596  |  4294821270 |
|       3 | 0x133A      |        4922 |
|       4 | 0x005A      |          90 |
|       5 | 0xFFFBFE8D  |  4294704781 |
|       6 | 0xFFFD72B3  |  4294800051 |
|       7 | 0x13E8      |        5096 |

## Events

### Event 213

#### Metadata

| Field        | Value   |
|--------------|---------|
| Entrypoint   | 0x0000  |
| Data Size    | 1 bytes |
| Instructions | 1       |

```
      00 01 02 03 04 05 06 07  08 09 0A 0B 0C 0D 0E 0F
      -- -- -- -- -- -- -- --  -- -- -- -- -- -- -- --
0000: 00                                                .               
```

#### Opcodes

```
  0: 0x0000 [0x00] END_REQSTACK()
```

### Event 65535

#### Metadata

| Field        | Value    |
|--------------|----------|
| Entrypoint   | 0x0001   |
| Data Size    | 19 bytes |
| Instructions | 5        |

```
      00 01 02 03 04 05 06 07  08 09 0A 0B 0C 0D 0E 0F
      -- -- -- -- -- -- -- --  -- -- -- -- -- -- -- --
0000:    32 00 80 1F 00 01 80  02 80 03 80 1F 01 1E 23   2.............#
0010: 12 04 01 00                                       ....            
```

#### Opcodes

```
  0: 0x0001 [0x32] ExtData[1]->MainSpeed = 40* * 0.1
  1: 0x0004 [0x1F] MOVE_ENTITY: EventEntity moves to X=-262.434*, Z=-146.026*, Y=4.922*
  2: 0x000C [0x1F] MOVE_ENTITY: Update entity position (mode=1)
  3: 0x000E [0x1E] EventEntity looks at Duuruhn (ID: 17044003/0x01041223) and starts talking
  4: 0x0013 [0x00] END_REQSTACK()
```

### Event 65535.1

#### Metadata

| Field        | Value    |
|--------------|----------|
| Entrypoint   | 0x0014   |
| Data Size    | 17 bytes |
| Instructions | 5        |

```
      00 01 02 03 04 05 06 07  08 09 0A 0B 0C 0D 0E 0F
      -- -- -- -- -- -- -- --  -- -- -- -- -- -- -- --
0010:             1C 04 80 32  00 80 1F 00 05 80 06 80      ...2........
0020: 07 80 1F 01 00                                    .....           
```

#### Opcodes

```
  0: 0x0014 [0x1C] WAIT(90* ticks)
  1: 0x0017 [0x32] ExtData[1]->MainSpeed = 40* * 0.1
  2: 0x001A [0x1F] MOVE_ENTITY: EventEntity moves to X=-262.515*, Z=-167.245*, Y=5.096*
  3: 0x0022 [0x1F] MOVE_ENTITY: Update entity position (mode=1)
  4: 0x0024 [0x00] END_REQSTACK()
```
