# 0x7FFFFFF0 - Zone Events

## Common Data

| Field            | Value           |
|------------------|-----------------|
| Zone             | Mamook (ID: 65) |
| Block Size       | 13008 bytes     |
| Total Events     | 54              |
| References Count | 301             |

## List of Events

| Event ID                   | Entrypoint   |   Size |   Instructions |
|----------------------------|--------------|--------|----------------|
| [65535](#event-65535)      | 0x0000       |      1 |              1 |
| [65534](#event-65534)      | 0x0001       |      1 |              1 |
| [200](#event-200)          | 0x0002       |     10 |              2 |
| [201](#event-201)          | 0x000C       |     14 |              4 |
| [202](#event-202)          | 0x001A       |     13 |              3 |
| [203](#event-203)          | 0x0027       |     10 |              2 |
| [204](#event-204)          | 0x0031       |     14 |              4 |
| [205](#event-205)          | 0x003F       |     13 |              3 |
| [217](#event-217)          | 0x004C       |     10 |              2 |
| [218](#event-218)          | 0x0056       |     14 |              4 |
| [219](#event-219)          | 0x0064       |     13 |              3 |
| [32000](#event-32000)      | 0x0071       |   1769 |            333 |
| [32002](#event-32002)      | 0x075A       |    183 |             29 |
| [32001](#event-32001)      | 0x0811       |    515 |             82 |
| [32003](#event-32003)      | 0x0A14       |    435 |             77 |
| [32004](#event-32004)      | 0x0BC7       |      2 |              2 |
| [65535.1](#event-655351)   | 0x0BC9       |     15 |              3 |
| [65535.2](#event-655352)   | 0x0BD8       |    869 |            144 |
| [208](#event-208)          | 0x0F3D       |    719 |             85 |
| [209](#event-209)          | 0x120C       |      6 |              4 |
| [210](#event-210)          | 0x1212       |      6 |              4 |
| [211](#event-211)          | 0x1218       |   3119 |            361 |
| [212](#event-212)          | 0x1E47       |    308 |             41 |
| [213](#event-213)          | 0x1F7B       |   2743 |            344 |
| [214](#event-214)          | 0x2A32       |     39 |             14 |
| [65535.3](#event-655353)   | 0x2A59       |     15 |              3 |
| [65535.4](#event-655354)   | 0x2A68       |     27 |              3 |
| [65535.5](#event-655355)   | 0x2A83       |      3 |              2 |
| [65535.6](#event-655356)   | 0x2A86       |      3 |              2 |
| [65535.7](#event-655357)   | 0x2A89       |      9 |              3 |
| [65535.8](#event-655358)   | 0x2A92       |      6 |              2 |
| [65535.9](#event-655359)   | 0x2A98       |     25 |              6 |
| [65535.10](#event-6553510) | 0x2AB1       |     15 |              5 |
| [65535.11](#event-6553511) | 0x2AC0       |     25 |              6 |
| [65535.12](#event-6553512) | 0x2AD9       |     24 |              6 |
| [65535.13](#event-6553513) | 0x2AF1       |     16 |              4 |
| [65535.14](#event-6553514) | 0x2B01       |     51 |             10 |
| [65535.15](#event-6553515) | 0x2B34       |     10 |              2 |
| [65535.16](#event-6553516) | 0x2B3E       |     53 |             10 |
| [65535.17](#event-6553517) | 0x2B73       |     11 |              3 |
| [65535.18](#event-6553518) | 0x2B7E       |     37 |              5 |
| [65535.19](#event-6553519) | 0x2BA3       |     37 |              5 |
| [65535.20](#event-6553520) | 0x2BC8       |     16 |              4 |
| [65535.21](#event-6553521) | 0x2BD8       |     27 |              7 |
| [65535.22](#event-6553522) | 0x2BF3       |     20 |              6 |
| [65535.23](#event-6553523) | 0x2C07       |     20 |              6 |
| [65535.24](#event-6553524) | 0x2C1B       |     21 |              5 |
| [65535.25](#event-6553525) | 0x2C30       |      1 |              1 |
| [65535.26](#event-6553526) | 0x2C31       |     20 |              6 |
| [65535.27](#event-6553527) | 0x2C45       |     14 |              3 |
| [65535.28](#event-6553528) | 0x2C53       |     20 |              6 |
| [65535.29](#event-6553529) | 0x2C67       |     13 |              3 |
| [65535.30](#event-6553530) | 0x2C74       |     25 |              6 |
| [65535.31](#event-6553531) | 0x2C8D       |    165 |             37 |

## DAT References (imed_data)

|   Index | Hex Value   |   Dec Value |
|---------|-------------|-------------|
|       0 | 0xFFFF15A0  |  4294907296 |
|       1 | 0xFFFFF7BD  |  4294965181 |
|       2 | 0x1652      |        5714 |
|       3 | 0x0C00      |        3072 |
|       4 | 0x000D      |          13 |
|       5 | 0x0A11      |        2577 |
|       6 | 0x15E6      |        5606 |
|       7 | 0x66868     |      419944 |
|       8 | 0x7F811     |      522257 |
|       9 | 0x54BC      |       21692 |
|      10 | 0x0400      |        1024 |
|      11 | 0x668CF     |      420047 |
|      12 | 0x7E645     |      517701 |
|      13 | 0x54E7      |       21735 |
|      14 | 0x31524     |      202020 |
|      15 | 0x222CE     |      139982 |
|      16 | 0xBE8C      |       48780 |
|      17 | 0x0800      |        2048 |
|      18 | 0x2FCEA     |      195818 |
|      19 | 0x222A1     |      139937 |
|      20 | 0xBD7A      |       48506 |
|      21 | 0x0000      |           0 |
|      22 | 0x000F      |          15 |
|      23 | 0x0010      |          16 |
|      24 | 0x001F      |          31 |
|      25 | 0xFFFFFFFF  |  4294967295 |
|      26 | 0x0001      |           1 |
|      27 | 0x1F4B      |        8011 |
|      28 | 0x1D84      |        7556 |
|      29 | 0x00FF      |         255 |
|      30 | 0x00C8      |         200 |
|      31 | 0x0013      |          19 |
|      32 | 0x0003      |           3 |
|      33 | 0x0004      |           4 |
|      34 | 0x0008      |           8 |
|      35 | 0x2DE60     |      188000 |
|      36 | 0x222E0     |      140000 |
|      37 | 0xBC48      |       48200 |
|      38 | 0x1D8F      |        7567 |
|      39 | 0x0005      |           5 |
|      40 | 0x1DB6      |        7606 |
|      41 | 0x0006      |           6 |
|      42 | 0x0002      |           2 |
|      43 | 0x0007      |           7 |
|      44 | 0x0009      |           9 |
|      45 | 0x000A      |          10 |
|      46 | 0x000B      |          11 |
|      47 | 0x000C      |          12 |
|      48 | 0x000E      |          14 |
|      49 | 0x0011      |          17 |
|      50 | 0x0012      |          18 |
|      51 | 0x0014      |          20 |
|      52 | 0x0015      |          21 |
|      53 | 0x0016      |          22 |
|      54 | 0x0017      |          23 |
|      55 | 0x0018      |          24 |
|      56 | 0x0019      |          25 |
|      57 | 0x001A      |          26 |
|      58 | 0x001B      |          27 |
|      59 | 0x001C      |          28 |
|      60 | 0x001D      |          29 |
|      61 | 0x001E      |          30 |
|      62 | 0x1EEB      |        7915 |
|      63 | 0x0064      |         100 |
|      64 | 0x1ED7      |        7895 |
|      65 | 0x008F      |         143 |
|      66 | 0x1D87      |        7559 |
|      67 | 0x00C9      |         201 |
|      68 | 0x34BC0     |      216000 |
|      69 | 0xBAB8      |       47800 |
|      70 | 0x03E7      |         999 |
|      71 | 0x00B4      |         180 |
|      72 | 0x012C      |         300 |
|      73 | 0x0080      |         128 |
|      74 | 0x003C      |          60 |
|      75 | 0xFFF6C42B  |  4294362155 |
|      76 | 0x752B9     |      479929 |
|      77 | 0xFFFFA767  |  4294944615 |
|      78 | 0x03E0      |         992 |
|      79 | 0xFFFBFE43  |  4294704707 |
|      80 | 0x5C401     |      377857 |
|      81 | 0xFFFDE79F  |  4294829983 |
|      82 | 0x0D92      |        3474 |
|      83 | 0x47AC      |       18348 |
|      84 | 0x76E1C     |      486940 |
|      85 | 0xFFFC93B2  |  4294742962 |
|      86 | 0x00C2      |         194 |
|      87 | 0x388A9     |      231593 |
|      88 | 0x57E9E     |      360094 |
|      89 | 0xFFFD59FC  |  4294793724 |
|      90 | 0x0726      |        1830 |
|      91 | 0x872C0     |      553664 |
|      92 | 0x7FEA3     |      523939 |
|      93 | 0xFFFF6AC3  |  4294929091 |
|      94 | 0x0A65      |        2661 |
|      95 | 0xFFF2A593  |  4294092179 |
|      96 | 0xFFFF548C  |  4294923404 |
|      97 | 0xFFFF442C  |  4294919212 |
|      98 | 0x0201      |         513 |
|      99 | 0xFFF478D5  |  4294211797 |
|     100 | 0x89AEB     |      563947 |
|     101 | 0xFFFE4A5D  |  4294855261 |
|     102 | 0x0DEF      |        3567 |
|     103 | 0x1E173     |      123251 |
|     104 | 0xB8221     |      754209 |
|     105 | 0xFFFD5FA4  |  4294795172 |
|     106 | 0x01B8      |         440 |
|     107 | 0xFFF81ECC  |  4294450892 |
|     108 | 0xFFF3BE05  |  4294163973 |
|     109 | 0x5E8E      |       24206 |
|     110 | 0x01B5      |         437 |
|     111 | 0x4D7CD     |      317389 |
|     112 | 0xFFFCD3BA  |  4294759354 |
|     113 | 0xFFFFF43E  |  4294964286 |
|     114 | 0x0628      |        1576 |
|     115 | 0x4D156     |      315734 |
|     116 | 0xFFFCCBCC  |  4294757324 |
|     117 | 0xFFFFF3E9  |  4294964201 |
|     118 | 0x00D9      |         217 |
|     119 | 0x1F4D      |        8013 |
|     120 | 0x005A      |          90 |
|     121 | 0x031F      |         799 |
|     122 | 0x0320      |         800 |
|     123 | 0x1F4E      |        8014 |
|     124 | 0x006C      |         108 |
|     125 | 0x0073      |         115 |
|     126 | 0x008B      |         139 |
|     127 | 0x0078      |         120 |
|     128 | 0x1D85      |        7557 |
|     129 | 0x2FDA0     |      196000 |
|     130 | 0xBB80      |       48000 |
|     131 | 0x1F4F      |        8015 |
|     132 | 0x00FD      |         253 |
|     133 | 0x1F50      |        8016 |
|     134 | 0x1F51      |        8017 |
|     135 | 0x1F52      |        8018 |
|     136 | 0x1F53      |        8019 |
|     137 | 0x00FE      |         254 |
|     138 | 0x1F54      |        8020 |
|     139 | 0x1F55      |        8021 |
|     140 | 0x1F56      |        8022 |
|     141 | 0x1F57      |        8023 |
|     142 | 0x1F58      |        8024 |
|     143 | 0x0104      |         260 |
|     144 | 0x032F      |         815 |
|     145 | 0x1F6C      |        8044 |
|     146 | 0x0050      |          80 |
|     147 | 0x1F6D      |        8045 |
|     148 | 0x1F6E      |        8046 |
|     149 | 0x1F6F      |        8047 |
|     150 | 0x0096      |         150 |
|     151 | 0x1F70      |        8048 |
|     152 | 0x00A1      |         161 |
|     153 | 0x1F71      |        8049 |
|     154 | 0x1F72      |        8050 |
|     155 | 0x1F73      |        8051 |
|     156 | 0x00E3      |         227 |
|     157 | 0x0054      |          84 |
|     158 | 0x1F74      |        8052 |
|     159 | 0x1F75      |        8053 |
|     160 | 0x0022      |          34 |
|     161 | 0x1F76      |        8054 |
|     162 | 0x1F77      |        8055 |
|     163 | 0x1F78      |        8056 |
|     164 | 0x1F79      |        8057 |
|     165 | 0x0026      |          38 |
|     166 | 0x1F7A      |        8058 |
|     167 | 0x1F7B      |        8059 |
|     168 | 0x1F7C      |        8060 |
|     169 | 0x1F7D      |        8061 |
|     170 | 0x0033      |          51 |
|     171 | 0x007C      |         124 |
|     172 | 0x00D7      |         215 |
|     173 | 0x1F7E      |        8062 |
|     174 | 0x1F7F      |        8063 |
|     175 | 0x1F80      |        8064 |
|     176 | 0x0041      |          65 |
|     177 | 0x033B      |         827 |
|     178 | 0x1F81      |        8065 |
|     179 | 0x1F82      |        8066 |
|     180 | 0x1F83      |        8067 |
|     181 | 0xFFFC0DC0  |  4294708672 |
|     182 | 0xFFFDB277  |  4294816375 |
|     183 | 0x1311      |        4881 |
|     184 | 0x0BF3      |        3059 |
|     185 | 0x010B      |         267 |
|     186 | 0x1F84      |        8068 |
|     187 | 0x002F      |          47 |
|     188 | 0x1F85      |        8069 |
|     189 | 0xFFFC01EF  |  4294705647 |
|     190 | 0xFFFDD04C  |  4294824012 |
|     191 | 0x13B7      |        5047 |
|     192 | 0x1F87      |        8071 |
|     193 | 0x002B      |          43 |
|     194 | 0x007F      |         127 |
|     195 | 0x0028      |          40 |
|     196 | 0x1F88      |        8072 |
|     197 | 0x1F89      |        8073 |
|     198 | 0x1F8A      |        8074 |
|     199 | 0x1F8B      |        8075 |
|     200 | 0x1F8C      |        8076 |
|     201 | 0x1F8D      |        8077 |
|     202 | 0x1F8E      |        8078 |
|     203 | 0x1F8F      |        8079 |
|     204 | 0x1F90      |        8080 |
|     205 | 0x1F91      |        8081 |
|     206 | 0x00AE      |         174 |
|     207 | 0x1F92      |        8082 |
|     208 | 0x1F93      |        8083 |
|     209 | 0x1F94      |        8084 |
|     210 | 0x1F95      |        8085 |
|     211 | 0x1F96      |        8086 |
|     212 | 0x1F97      |        8087 |
|     213 | 0x1F98      |        8088 |
|     214 | 0x1F99      |        8089 |
|     215 | 0x1F9A      |        8090 |
|     216 | 0x1F9B      |        8091 |
|     217 | 0x1F9C      |        8092 |
|     218 | 0x1F9D      |        8093 |
|     219 | 0x1F9E      |        8094 |
|     220 | 0x1F9F      |        8095 |
|     221 | 0x1FA0      |        8096 |
|     222 | 0x1FA1      |        8097 |
|     223 | 0x1FA2      |        8098 |
|     224 | 0x00B3      |         179 |
|     225 | 0x1FA3      |        8099 |
|     226 | 0x1FA4      |        8100 |
|     227 | 0x1FA5      |        8101 |
|     228 | 0x1FA6      |        8102 |
|     229 | 0x1FA7      |        8103 |
|     230 | 0x00E6      |         230 |
|     231 | 0x1FA8      |        8104 |
|     232 | 0x1FA9      |        8105 |
|     233 | 0x1FAA      |        8106 |
|     234 | 0x1FAB      |        8107 |
|     235 | 0x1FAC      |        8108 |
|     236 | 0x1FAD      |        8109 |
|     237 | 0x1FAE      |        8110 |
|     238 | 0x1FAF      |        8111 |
|     239 | 0x1FB0      |        8112 |
|     240 | 0x1FB1      |        8113 |
|     241 | 0x1FB2      |        8114 |
|     242 | 0x1FB3      |        8115 |
|     243 | 0x1FB4      |        8116 |
|     244 | 0x1FB5      |        8117 |
|     245 | 0x1FB6      |        8118 |
|     246 | 0x1FB7      |        8119 |
|     247 | 0x1FB8      |        8120 |
|     248 | 0x1FB9      |        8121 |
|     249 | 0x1FBA      |        8122 |
|     250 | 0x1FBB      |        8123 |
|     251 | 0x1FBD      |        8125 |
|     252 | 0x1FBE      |        8126 |
|     253 | 0x35A1A     |      219674 |
|     254 | 0xFFFE83CE  |  4294869966 |
|     255 | 0xFFFF9E64  |  4294942308 |
|     256 | 0x03DD      |         989 |
|     257 | 0x0032      |          50 |
|     258 | 0x0200      |         512 |
|     259 | 0x35C5F     |      220255 |
|     260 | 0xFFFE778C  |  4294866828 |
|     261 | 0xFFFFA137  |  4294943031 |
|     262 | 0x3586B     |      219243 |
|     263 | 0xFFFE77E8  |  4294866920 |
|     264 | 0xFFFFA140  |  4294943040 |
|     265 | 0x0020      |          32 |
|     266 | 0x34EB4     |      216756 |
|     267 | 0xFFFE6C54  |  4294863956 |
|     268 | 0xFFFFA306  |  4294943494 |
|     269 | 0xFFFFFC00  |  4294966272 |
|     270 | 0x2D48E     |      185486 |
|     271 | 0xFFFE7BA6  |  4294867878 |
|     272 | 0xFFFFABF9  |  4294945785 |
|     273 | 0xFFFF5426  |  4294923302 |
|     274 | 0xFFFE7A51  |  4294867537 |
|     275 | 0x1758      |        5976 |
|     276 | 0x0091      |         145 |
|     277 | 0xFFFF539B  |  4294923163 |
|     278 | 0xFFFE7BE0  |  4294867936 |
|     279 | 0x1736      |        5942 |
|     280 | 0xFFFF6215  |  4294926869 |
|     281 | 0xFFFE7EEF  |  4294868719 |
|     282 | 0x16B8      |        5816 |
|     283 | 0xFFFF5325  |  4294923045 |
|     284 | 0xFFFE7D2F  |  4294868271 |
|     285 | 0x1716      |        5910 |
|     286 | 0xFFFF3B48  |  4294916936 |
|     287 | 0xFFFE7622  |  4294866466 |
|     288 | 0x175F      |        5983 |
|     289 | 0xFFFF3261  |  4294914657 |
|     290 | 0xFFFE7211  |  4294865425 |
|     291 | 0x172D      |        5933 |
|     292 | 0xFFFF2BF6  |  4294913014 |
|     293 | 0xFFFE7924  |  4294867236 |
|     294 | 0x1783      |        6019 |
|     295 | 0xFFFF200A  |  4294909962 |
|     296 | 0xFFFEA256  |  4294877782 |
|     297 | 0x17FD      |        6141 |
|     298 | 0x0046      |          70 |
|     299 | 0x008C      |         140 |
|     300 | 0x00D2      |         210 |

## String References

- **7556**: Enter the battlefield? [Enter./Decline.]
- **7557**: Leave the battlefield? [Run away./Stay.]
- **7559**: You cannot enter the battlefield at present. Please wait a little longer.
- **7567**: You are cleared to enter the battlefield, but you cannot while party members are engaged in combat.
- **7606**: You do not meet the requirements to enter the battlefield. Access is denied.
- **7895**: Skip the event? [Yes./No.]
- **7915**: Only $3 [member/members] have clearance to enter the battlefield. This room has reached its maximum capacity.
- **8011**: Which battlefield will you enter? [None./Mamook Incursion././././././././././././././././././././././././././././././]
- **8013**: You ring the red bell and the blue bell together and hear the dull clunk of something being unlocked...
- **8014**: The $3 and $3 no longer seem to ring...
- **8015**: Choose a picture to take.
- **8016**: First scene.
- **8017**: Second scene.
- **8018**: Third scene.
- **8019**: Which picture will you take? [Show me again./First scene./Second scene./Third scene.]
- **8020**: <Player> records the first scene.
- **8021**: <Player> records the second scene.
- **8022**: <Player> records the third scene.
- **8023**: <Player> takes in the surrounding scenery. ...The view is breathtaking.
- **8024**: <Player> thinks back on Balakaf's words. ...Perhaps this is not the best time to record a picture.
- **8125**: There is a curious liquid here.
- **8126**: Take a sip? [I'll try anything once!/I have a weak stomach...]

## Events

### Event 65535

#### Metadata

| Field        | Value   |
|--------------|---------|
| Entrypoint   | 0x0000  |
| Data Size    | 1 bytes |
| Instructions | 1       |

```
      00 01 02 03 04 05 06 07  08 09 0A 0B 0C 0D 0E 0F
      -- -- -- -- -- -- -- --  -- -- -- -- -- -- -- --
0000: 00                                                .               
```

#### Opcodes

```
  0: 0x0000 [0x00] END_REQSTACK()
```

### Event 65534

#### Metadata

| Field        | Value   |
|--------------|---------|
| Entrypoint   | 0x0001  |
| Data Size    | 1 bytes |
| Instructions | 1       |

```
      00 01 02 03 04 05 06 07  08 09 0A 0B 0C 0D 0E 0F
      -- -- -- -- -- -- -- --  -- -- -- -- -- -- -- --
0000:    00                                              .              
```

#### Opcodes

```
  0: 0x0001 [0x00] END_REQSTACK()
```

### Event 200

#### Metadata

| Field        | Value    |
|--------------|----------|
| Entrypoint   | 0x0002   |
| Data Size    | 10 bytes |
| Instructions | 2        |

```
      00 01 02 03 04 05 06 07  08 09 0A 0B 0C 0D 0E 0F
      -- -- -- -- -- -- -- --  -- -- -- -- -- -- -- --
0000:       37 00 80 01 80 02  80 03 80 00                7.........    
```

#### Opcodes

```
  0: 0x0002 [0x37] UPDATE_EVENT_POSITION_AND_DIR: x=-60.000*, z=-2.115*, y=5.714*, direction=270.0°*
  1: 0x000B [0x00] END_REQSTACK()
```

### Event 201

#### Metadata

| Field        | Value    |
|--------------|----------|
| Entrypoint   | 0x000C   |
| Data Size    | 14 bytes |
| Instructions | 4        |

```
      00 01 02 03 04 05 06 07  08 09 0A 0B 0C 0D 0E 0F
      -- -- -- -- -- -- -- --  -- -- -- -- -- -- -- --
0000:                                      32 04 80 1F              2...
0010: 00 00 80 05 80 06 80 1F  01 00                    ..........      
```

#### Opcodes

```
  0: 0x000C [0x32] ExtData[1]->MainSpeed = 13* * 0.1
  1: 0x000F [0x1F] MOVE_ENTITY: EventEntity moves to X=-60.000*, Z=2.577*, Y=5.606*
  2: 0x0017 [0x1F] MOVE_ENTITY: Update entity position (mode=1)
  3: 0x0019 [0x00] END_REQSTACK()
```

### Event 202

#### Metadata

| Field        | Value    |
|--------------|----------|
| Entrypoint   | 0x001A   |
| Data Size    | 13 bytes |
| Instructions | 3        |

```
      00 01 02 03 04 05 06 07  08 09 0A 0B 0C 0D 0E 0F
      -- -- -- -- -- -- -- --  -- -- -- -- -- -- -- --
0010:                                47 00 07 80 08 80            G.....
0020: 09 80 03 80 47 01 00                              ....G..         
```

#### Opcodes

```
  0: 0x001A [0x47] UPDATE_PLAYER_POS(419.944*, 522.257*, 21.692*, yaw=270.0°*)
  1: 0x0024 [0x47] WAIT_PLAYER_POS_UPDATE
  2: 0x0026 [0x00] END_REQSTACK()
```

### Event 203

#### Metadata

| Field        | Value    |
|--------------|----------|
| Entrypoint   | 0x0027   |
| Data Size    | 10 bytes |
| Instructions | 2        |

```
      00 01 02 03 04 05 06 07  08 09 0A 0B 0C 0D 0E 0F
      -- -- -- -- -- -- -- --  -- -- -- -- -- -- -- --
0020:                      37  07 80 08 80 09 80 0A 80         7........
0030: 00                                                .               
```

#### Opcodes

```
  0: 0x0027 [0x37] UPDATE_EVENT_POSITION_AND_DIR: x=419.944*, z=522.257*, y=21.692*, direction=90.0°*
  1: 0x0030 [0x00] END_REQSTACK()
```

### Event 204

#### Metadata

| Field        | Value    |
|--------------|----------|
| Entrypoint   | 0x0031   |
| Data Size    | 14 bytes |
| Instructions | 4        |

```
      00 01 02 03 04 05 06 07  08 09 0A 0B 0C 0D 0E 0F
      -- -- -- -- -- -- -- --  -- -- -- -- -- -- -- --
0030:    32 04 80 1F 00 0B 80  0C 80 0D 80 1F 01 00      2............. 
```

#### Opcodes

```
  0: 0x0031 [0x32] ExtData[1]->MainSpeed = 13* * 0.1
  1: 0x0034 [0x1F] MOVE_ENTITY: EventEntity moves to X=420.047*, Z=517.701*, Y=21.735*
  2: 0x003C [0x1F] MOVE_ENTITY: Update entity position (mode=1)
  3: 0x003E [0x00] END_REQSTACK()
```

### Event 205

#### Metadata

| Field        | Value    |
|--------------|----------|
| Entrypoint   | 0x003F   |
| Data Size    | 13 bytes |
| Instructions | 3        |

```
      00 01 02 03 04 05 06 07  08 09 0A 0B 0C 0D 0E 0F
      -- -- -- -- -- -- -- --  -- -- -- -- -- -- -- --
0030:                                               47                 G
0040: 00 00 80 01 80 02 80 0A  80 47 01 00              .........G..    
```

#### Opcodes

```
  0: 0x003F [0x47] UPDATE_PLAYER_POS(-60.000*, -2.115*, 5.714*, yaw=90.0°*)
  1: 0x0049 [0x47] WAIT_PLAYER_POS_UPDATE
  2: 0x004B [0x00] END_REQSTACK()
```

### Event 217

#### Metadata

| Field        | Value    |
|--------------|----------|
| Entrypoint   | 0x004C   |
| Data Size    | 10 bytes |
| Instructions | 2        |

```
      00 01 02 03 04 05 06 07  08 09 0A 0B 0C 0D 0E 0F
      -- -- -- -- -- -- -- --  -- -- -- -- -- -- -- --
0040:                                      37 0E 80 0F              7...
0050: 80 10 80 11 80 00                                 ......          
```

#### Opcodes

```
  0: 0x004C [0x37] UPDATE_EVENT_POSITION_AND_DIR: x=202.020*, z=139.982*, y=48.780*, direction=180.0°*
  1: 0x0055 [0x00] END_REQSTACK()
```

### Event 218

#### Metadata

| Field        | Value    |
|--------------|----------|
| Entrypoint   | 0x0056   |
| Data Size    | 14 bytes |
| Instructions | 4        |

```
      00 01 02 03 04 05 06 07  08 09 0A 0B 0C 0D 0E 0F
      -- -- -- -- -- -- -- --  -- -- -- -- -- -- -- --
0050:                   32 04  80 1F 00 12 80 13 80 14        2.........
0060: 80 1F 01 00                                       ....            
```

#### Opcodes

```
  0: 0x0056 [0x32] ExtData[1]->MainSpeed = 13* * 0.1
  1: 0x0059 [0x1F] MOVE_ENTITY: EventEntity moves to X=195.818*, Z=139.937*, Y=48.506*
  2: 0x0061 [0x1F] MOVE_ENTITY: Update entity position (mode=1)
  3: 0x0063 [0x00] END_REQSTACK()
```

### Event 219

#### Metadata

| Field        | Value    |
|--------------|----------|
| Entrypoint   | 0x0064   |
| Data Size    | 13 bytes |
| Instructions | 3        |

```
      00 01 02 03 04 05 06 07  08 09 0A 0B 0C 0D 0E 0F
      -- -- -- -- -- -- -- --  -- -- -- -- -- -- -- --
0060:             47 00 12 80  13 80 14 80 11 80 47 01      G.........G.
0070: 00                                                .               
```

#### Opcodes

```
  0: 0x0064 [0x47] UPDATE_PLAYER_POS(195.818*, 139.937*, 48.506*, yaw=180.0°*)
  1: 0x006E [0x47] WAIT_PLAYER_POS_UPDATE
  2: 0x0070 [0x00] END_REQSTACK()
```

### Event 32000

#### Metadata

| Field        | Value      |
|--------------|------------|
| Entrypoint   | 0x0071     |
| Data Size    | 1769 bytes |
| Instructions | 209        |

```
      00 01 02 03 04 05 06 07  08 09 0A 0B 0C 0D 0E 0F
      -- -- -- -- -- -- -- --  -- -- -- -- -- -- -- --
0070:    20 01 79 00 F0 FF FF  7F F0 FF FF 7F 03 02 00    .y............
0080: 02 10 03 03 00 03 10 03  05 00 04 10 03 06 00 05  ................
0090: 10 41 15 80 16 80 09 10  07 00 41 17 80 18 80 09  .A........A.....
00A0: 10 06 10 06 01 00 02 07  00 15 80 00 FF 00 03 08  ................
00B0: 00 19 80 0F 08 00 06 00  10 08 00 1A 80 24 1B 80  .............$..
00C0: 15 80 08 00 25 02 00 10  15 80 00 D3 00 01 3F 07  ....%.........?.
00D0: 01 FF 00 03 03 00 00 10  0C 03 00 06 12 00 1A 59  ...............Y
00E0: 07 02 12 00 1A 80 00 FF  00 24 1C 80 1A 80 15 80  .........$......
00F0: 25 02 00 10 1A 80 00 FF  00 01 3F 07 01 FF 00 42  %.........?....B
0100: 03 01 10 1D 80 43 00 43  01 06 01 10 45 1E 80 F0  .....C.C....E...
0110: FF FF 7F F0 FF FF 7F 66  64 6F 31 15 80 55 1E 80  .......fdo1..U..
0120: F0 FF FF 7F F0 FF FF 7F  66 64 6F 31 3B F0 FF FF  ........fdo1;...
0130: 7F 20 10 21 10 22 10 38  1F 80 02 07 00 1A 80 00  . .!.".8........
0140: 59 01 03 00 00 1A 80 03  04 00 03 00 03 02 00 15  Y...............
0150: 80 03 18 00 15 80 01 73  04 03 00 00 1A 80 02 00  .......s........
0160: 00 1A 80 05 08 07 02 15  80 1A 80 00 73 01 03 00  ............s...
0170: 00 05 00 40 15 80 20 80  01 10 00 00 40 21 80 22  ...@.. .....@!."
0180: 80 01 10 03 00 06 02 10  06 03 10 06 04 10 02 00  ................
0190: 00 1A 80 80 AD 01 03 09  00 23 80 03 0A 00 24 80  .........#....$.
01A0: 03 0B 00 25 80 03 0C 00  11 80 01 AD 01 47 00 09  ...%.........G..
01B0: 00 0A 00 0B 00 0C 00 47  01 03 04 00 03 10 03 02  .......G........
01C0: 00 04 10 03 16 00 05 10  03 0D 00 06 10 03 0E 00  ................
01D0: 07 10 03 18 00 09 10 02  02 10 1A 80 80 E2 01 01  ................
01E0: F5 06 02 02 10 21 80 80  FF 01 02 00 00 1A 80 80  .....!..........
01F0: F9 01 48 26 80 23 01 F9  01 01 0C 07 01 F5 06 02  ..H&.#..........
0200: 02 10 27 80 80 11 02 48  28 80 23 01 0C 07 01 F5  ..'....H(.#.....
0210: 06 02 02 10 29 80 80 13  04 02 04 00 15 80 80 29  ....)..........)
0220: 02 03 05 10 29 80 01 09  04 02 04 00 1A 80 80 39  ....)..........9
0230: 02 03 05 10 15 80 01 09  04 02 04 00 2A 80 80 49  ............*..I
0240: 02 03 05 10 15 80 01 09  04 02 04 00 20 80 80 59  ............ ..Y
0250: 02 03 05 10 15 80 01 09  04 02 04 00 21 80 80 69  ............!..i
0260: 02 03 05 10 15 80 01 09  04 02 04 00 27 80 80 79  ............'..y
0270: 02 03 05 10 15 80 01 09  04 02 04 00 29 80 80 89  ............)...
0280: 02 03 05 10 15 80 01 09  04 02 04 00 2B 80 80 99  ............+...
0290: 02 03 05 10 15 80 01 09  04 02 04 00 22 80 80 A9  ............"...
02A0: 02 03 05 10 15 80 01 09  04 02 04 00 2C 80 80 B9  ............,...
02B0: 02 03 05 10 15 80 01 09  04 02 04 00 2D 80 80 C9  ............-...
02C0: 02 03 05 10 15 80 01 09  04 02 04 00 2E 80 80 D9  ................
02D0: 02 03 05 10 15 80 01 09  04 02 04 00 2F 80 80 E9  ............/...
02E0: 02 03 05 10 15 80 01 09  04 02 04 00 04 80 80 F9  ................
02F0: 02 03 05 10 15 80 01 09  04 02 04 00 30 80 80 09  ............0...
0300: 03 03 05 10 15 80 01 09  04 02 04 00 16 80 80 19  ................
0310: 03 03 05 10 15 80 01 09  04 02 04 00 17 80 80 29  ...............)
0320: 03 03 05 10 15 80 01 09  04 02 04 00 31 80 80 39  ............1..9
0330: 03 03 05 10 15 80 01 09  04 02 04 00 32 80 80 49  ............2..I
0340: 03 03 05 10 15 80 01 09  04 02 04 00 1F 80 80 59  ...............Y
0350: 03 03 05 10 15 80 01 09  04 02 04 00 33 80 80 69  ............3..i
0360: 03 03 05 10 15 80 01 09  04 02 04 00 34 80 80 79  ............4..y
0370: 03 03 05 10 15 80 01 09  04 02 04 00 35 80 80 89  ............5...
0380: 03 03 05 10 15 80 01 09  04 02 04 00 36 80 80 99  ............6...
0390: 03 03 05 10 15 80 01 09  04 02 04 00 37 80 80 A9  ............7...
03A0: 03 03 05 10 15 80 01 09  04 02 04 00 38 80 80 B9  ............8...
03B0: 03 03 05 10 15 80 01 09  04 02 04 00 39 80 80 C9  ............9...
03C0: 03 03 05 10 15 80 01 09  04 02 04 00 3A 80 80 D9  ............:...
03D0: 03 03 05 10 15 80 01 09  04 02 04 00 3B 80 80 E9  ............;...
03E0: 03 03 05 10 15 80 01 09  04 02 04 00 3C 80 80 F9  ............<...
03F0: 03 03 05 10 15 80 01 09  04 02 04 00 3D 80 80 09  ............=...
0400: 04 03 05 10 15 80 01 09  04 48 3E 80 23 01 0C 07  .........H>.#...
0410: 01 F5 06 02 02 10 20 80  80 21 04 01 59 01 01 F5  ...... ..!..Y...
0420: 06 02 02 10 2A 80 80 F5  06 03 03 00 04 00 03 10  ....*...........
0430: 00 3F 80 07 10 00 03 00  02 02 00 10 00 00 48 04  .?............H.
0440: 03 02 00 1A 80 01 4D 04  03 02 00 15 80 02 02 00  ......M.........
0450: 15 80 00 73 04 02 0E 00  1A 80 00 73 04 24 40 80  ...s.......s.$@.
0460: 1A 80 15 80 25 02 00 10  15 80 00 73 04 05 02 00  ....%......s....
0470: 01 73 04 06 11 00 02 04  00 15 80 80 86 04 03 11  .s..............
0480: 00 15 80 01 6B 06 02 04  00 1A 80 80 96 04 03 11  ....k...........
0490: 00 15 80 01 6B 06 02 04  00 2A 80 80 A6 04 03 11  ....k....*......
04A0: 00 15 80 01 6B 06 02 04  00 20 80 80 B6 04 03 11  ....k.... ......
04B0: 00 15 80 01 6B 06 02 04  00 21 80 80 C6 04 03 11  ....k....!......
04C0: 00 15 80 01 6B 06 02 04  00 27 80 80 D6 04 03 11  ....k....'......
04D0: 00 15 80 01 6B 06 02 04  00 29 80 80 E6 04 03 11  ....k....)......
04E0: 00 15 80 01 6B 06 02 04  00 2B 80 80 F6 04 03 11  ....k....+......
04F0: 00 15 80 01 6B 06 02 04  00 22 80 80 06 05 03 11  ....k...."......
0500: 00 15 80 01 6B 06 02 04  00 2C 80 80 16 05 03 11  ....k....,......
0510: 00 15 80 01 6B 06 02 04  00 2D 80 80 26 05 03 11  ....k....-..&...
0520: 00 15 80 01 6B 06 02 04  00 2E 80 80 36 05 03 11  ....k.......6...
0530: 00 15 80 01 6B 06 02 04  00 2F 80 80 46 05 03 11  ....k..../..F...
0540: 00 15 80 01 6B 06 02 04  00 04 80 80 56 05 03 11  ....k.......V...
0550: 00 15 80 01 6B 06 02 04  00 30 80 80 66 05 03 11  ....k....0..f...
0560: 00 15 80 01 6B 06 02 04  00 16 80 80 76 05 03 11  ....k.......v...
0570: 00 15 80 01 6B 06 02 04  00 17 80 80 86 05 03 11  ....k...........
0580: 00 15 80 01 6B 06 02 04  00 31 80 80 96 05 03 11  ....k....1......
0590: 00 15 80 01 6B 06 02 04  00 32 80 80 A6 05 03 11  ....k....2......
05A0: 00 15 80 01 6B 06 02 04  00 1F 80 80 B6 05 03 11  ....k...........
05B0: 00 15 80 01 6B 06 02 04  00 33 80 80 C6 05 03 11  ....k....3......
05C0: 00 15 80 01 6B 06 02 04  00 34 80 80 D6 05 03 11  ....k....4......
05D0: 00 15 80 01 6B 06 02 04  00 35 80 80 E6 05 03 11  ....k....5......
05E0: 00 15 80 01 6B 06 02 04  00 36 80 80 F6 05 03 11  ....k....6......
05F0: 00 15 80 01 6B 06 02 04  00 37 80 80 06 06 03 11  ....k....7......
0600: 00 15 80 01 6B 06 02 04  00 38 80 80 16 06 03 11  ....k....8......
0610: 00 15 80 01 6B 06 02 04  00 39 80 80 26 06 03 11  ....k....9..&...
0620: 00 15 80 01 6B 06 02 04  00 3A 80 80 36 06 03 11  ....k....:..6...
0630: 00 15 80 01 6B 06 02 04  00 3B 80 80 46 06 03 11  ....k....;..F...
0640: 00 15 80 01 6B 06 02 04  00 3C 80 80 56 06 03 11  ....k....<..V...
0650: 00 15 80 01 6B 06 02 04  00 3D 80 80 66 06 03 11  ....k....=..f...
0660: 00 15 80 01 6B 06 03 11  00 15 80 02 02 00 1A 80  ....k...........
0670: 00 86 06 5C 00 41 80 5C  01 41 80 5C 02 41 80 5C  ...\.A.\.A.\.A.\
0680: 03 41 80 01 9E 06 02 11  00 15 80 00 9E 06 5C 00  .A............\.
0690: 41 80 5C 01 41 80 5C 02  41 80 5C 03 41 80 02 02  A.\.A.\.A.\.A...
06A0: 00 15 80 00 AC 06 1A FD  0B 01 E5 06 6C F0 FF FF  ............l...
06B0: 7F 15 80 1A 80 62 2A 80  F0 FF FF 7F F0 FF FF 7F  .....b*.........
06C0: 6D 61 69 6E 15 80 45 1E  80 F0 FF FF 7F F0 FF FF  main..E.........
06D0: 7F 6F 76 6C 31 15 80 46  02 0F 00 02 0F 00 15 80  .ovl1..F........
06E0: 00 E5 06 46 00 03 01 10  3F 80 07 01 10 03 00 01  ...F....?.......
06F0: 0C 07 01 F5 06 0B 00 00  02 15 80 1A 80 00 05 07  ................
0700: 03 00 00 2A 80 01 5E 01  48 42 80 23 45 43 80 F0  ...*..^.HB.#EC..
0710: FF FF 7F F0 FF FF 7F 77  68 69 31 15 80 45 1E 80  .......whi1..E..
0720: F0 FF FF 7F F0 FF FF 7F  62 6C 6F 66 15 80 45 1E  ........blof..E.
0730: 80 F0 FF FF 7F F0 FF FF  7F 66 64 69 30 15 80 02  .........fdi0...
0740: 07 00 1A 80 00 57 07 5C  00 15 80 5C 01 15 80 5C  .....W.\...\...\
0750: 02 41 80 5C 03 41 80 21  00 1B                    .A.\.A.!..      
```

#### Opcodes

```
  0: 0x0071 [0x20] SET_CLI_EVENT_UC_FLAG: Lock player control
  1: 0x0073 [0x79] LocalPlayer looks at LocalPlayer (Basic look)
  2: 0x007D [0x03] ExtData[1]->WorkLocal[2] = Work_Zone[2]
  3: 0x0082 [0x03] ExtData[1]->WorkLocal[3] = Work_Zone[3]
  4: 0x0087 [0x03] ExtData[1]->WorkLocal[5] = Work_Zone[4]
  5: 0x008C [0x03] ExtData[1]->WorkLocal[6] = Work_Zone[5]
  6: 0x0091 [0x41] ExtData[1]->WorkLocal[7] = Work_Zone[9] (bits 0*-15*)
  7: 0x009A [0x41] Work_Zone[6] = Work_Zone[9] (bits 16*-31*)
  8: 0x00A3 [0x06] ExtData[1]->WorkLocal[1] = 0
  9: 0x00A6 [0x02] IF !(ExtData[1]->WorkLocal[7] == 0*) GOTO 0x00FF
 10: 0x00AE [0x03] ExtData[1]->WorkLocal[8] = 4294967295*
 11: 0x00B3 [0x0F] ExtData[1]->WorkLocal[8] ^= ExtData[1]->WorkLocal[6]
 12: 0x00B8 [0x10] ExtData[1]->WorkLocal[8] <<= 1*
 13: 0x00BD [0x24] CREATE_DIALOG(message_id=8011*, default_option=0*, option_flags=ExtData[1]->WorkLocal[8])
    → "Which battlefield will you enter? [None./Mamook Incursion././././././././././././././././././././././././././././././]"
 14: 0x00C4 [0x25] WAIT_DIALOG_SELECT()
 15: 0x00C5 [0x02] IF !(Work_Zone[0] == 0*) GOTO 0x00D3
 16: 0x00CD [0x01] GOTO 0x073F

SUBROUTINE_00FF:
 17: 0x00FF [0x42] SET_CLI_EVENT_CANCEL_DATA()
 18: 0x0100 [0x03] Work_Zone[1] = 255*
 19: 0x0105 [0x43] SEND_EVENT_UPDATE: Send pending tag to server (packet 0x005B)
 20: 0x0107 [0x43] SEND_EVENT_UPDATE: Check pending flag (skip if not pending)
 21: 0x0109 [0x06] Work_Zone[1] = 0
 22: 0x010C [0x45] LOAD_SCHEDULED_TASK: Load scheduler "fdo1" with entities [LocalPlayer, LocalPlayer], work=[200*, 0*]
 23: 0x011D [0x55] WAIT_LOAD_SCHEDULER: Wait for scheduler "fdo1" with entities [LocalPlayer, LocalPlayer], work=200*
 24: 0x012C [0x3B] GET_ENTITY_POSITION(entity=LocalPlayer, x_destination=Work_Zone[32], y_destination=Work_Zone[33], z_destination=Work_Zone[34])
 25: 0x0137 [0x38] SET_CLIENT_EVENT_MODE(mode=19*)
 26: 0x013A [0x02] IF !(ExtData[1]->WorkLocal[7] == 1*) GOTO 0x0159
 27: 0x0142 [0x03] ExtData[1]->WorkLocal[0] = 1*
 28: 0x0147 [0x03] ExtData[1]->WorkLocal[4] = ExtData[1]->WorkLocal[3]
 29: 0x014C [0x03] ExtData[1]->WorkLocal[2] = 0*
 30: 0x0151 [0x03] ExtData[1]->WorkLocal[24] = 0*
 31: 0x0156 [0x01] GOTO 0x0473

SUBROUTINE_0159:
 32: 0x0159 [0x03] ExtData[1]->WorkLocal[0] = 1*

SUBROUTINE_015E:
 33: 0x015E [0x02] IF !(ExtData[1]->WorkLocal[0] > 1*) GOTO 0x0708
 34: 0x0166 [0x02] IF !(0* == 1*) GOTO 0x0173
 35: 0x016E [0x03] ExtData[1]->WorkLocal[0] = ExtData[1]->WorkLocal[5]
 36: 0x0173 [0x40] SET_BIT_WORK_RANGE(start_bit=0*, end_bit=3*, target=Work_Zone[1], source=ExtData[1]->WorkLocal[0])
 37: 0x017C [0x40] SET_BIT_WORK_RANGE(start_bit=4*, end_bit=8*, target=Work_Zone[1], source=ExtData[1]->WorkLocal[3])
 38: 0x0185 [0x06] Work_Zone[2] = 0
 39: 0x0188 [0x06] Work_Zone[3] = 0
 40: 0x018B [0x06] Work_Zone[4] = 0
 41: 0x018E [0x02] IF !(ExtData[1]->WorkLocal[0] == 1*) GOTO 0x01AD
 42: 0x0196 [0x03] ExtData[1]->WorkLocal[9] = 188000*
 43: 0x019B [0x03] ExtData[1]->WorkLocal[10] = 140000*
 44: 0x01A0 [0x03] ExtData[1]->WorkLocal[11] = 48200*
 45: 0x01A5 [0x03] ExtData[1]->WorkLocal[12] = 2048*
 46: 0x01AA [0x01] GOTO 0x01AD

SUBROUTINE_01AD:
 47: 0x01AD [0x47] UPDATE_PLAYER_POS(ExtData[1]->WorkLocal[9], ExtData[1]->WorkLocal[10], ExtData[1]->WorkLocal[11], yaw=ExtData[1]->WorkLocal[12])
 48: 0x01B7 [0x47] WAIT_PLAYER_POS_UPDATE
 49: 0x01B9 [0x03] ExtData[1]->WorkLocal[4] = Work_Zone[3]
 50: 0x01BE [0x03] ExtData[1]->WorkLocal[2] = Work_Zone[4]
 51: 0x01C3 [0x03] ExtData[1]->WorkLocal[22] = Work_Zone[5]
 52: 0x01C8 [0x03] ExtData[1]->WorkLocal[13] = Work_Zone[6]
 53: 0x01CD [0x03] ExtData[1]->WorkLocal[14] = Work_Zone[7]
 54: 0x01D2 [0x03] ExtData[1]->WorkLocal[24] = Work_Zone[9]
 55: 0x01D7 [0x02] IF !(Work_Zone[2] == 1*) GOTO 0x01E2
 56: 0x01DF [0x01] GOTO 0x06F5
 57: 0x01E2 [0x02] IF !(Work_Zone[2] == 4*) GOTO 0x01FF
 58: 0x01EA [0x02] IF !(ExtData[1]->WorkLocal[0] == 1*) GOTO 0x01F9
 59: 0x01F2 [0x48] [System] [7567*]:
    → "You are cleared to enter the battlefield, but you cannot while party members are engaged in combat."
 60: 0x01F5 [0x23] WAIT_FOR_DIALOG_INTERACTION
 61: 0x01F6 [0x01] GOTO 0x01F9

SUBROUTINE_01F9:
 62: 0x01F9 [0x01] GOTO 0x070C

SUBROUTINE_0409:
 63: 0x0409 [0x48] [System] [7915*]:
    → "Only $3 [member/members] have clearance to enter the battlefield. This room has reached its maximum capacity."
 64: 0x040C [0x23] WAIT_FOR_DIALOG_INTERACTION
 65: 0x040D [0x01] GOTO 0x070C

SUBROUTINE_044D:
 66: 0x044D [0x02] IF !(ExtData[1]->WorkLocal[2] == 0*) GOTO 0x0473
 67: 0x0455 [0x02] IF !(ExtData[1]->WorkLocal[14] == 1*) GOTO 0x0473
 68: 0x045D [0x24] CREATE_DIALOG(message_id=7895*, default_option=1*, option_flags=0*)
    → "Skip the event? [Yes./No.]"
 69: 0x0464 [0x25] WAIT_DIALOG_SELECT()
 70: 0x0465 [0x02] IF !(Work_Zone[0] == 0*) GOTO 0x0473
 71: 0x046D [0x05] ExtData[1]->WorkLocal[2] = 1
 72: 0x0470 [0x01] GOTO 0x0473

SUBROUTINE_0473:
 73: 0x0473 [0x06] ExtData[1]->WorkLocal[17] = 0
 74: 0x0476 [0x02] IF !(ExtData[1]->WorkLocal[4] == 0*) GOTO 0x0486
 75: 0x047E [0x03] ExtData[1]->WorkLocal[17] = 0*
 76: 0x0483 [0x01] GOTO 0x066B
 77: 0x0486 [0x02] IF !(ExtData[1]->WorkLocal[4] == 1*) GOTO 0x0496
 78: 0x048E [0x03] ExtData[1]->WorkLocal[17] = 0*
 79: 0x0493 [0x01] GOTO 0x066B
 80: 0x0496 [0x02] IF !(ExtData[1]->WorkLocal[4] == 2*) GOTO 0x04A6
 81: 0x049E [0x03] ExtData[1]->WorkLocal[17] = 0*
 82: 0x04A3 [0x01] GOTO 0x066B
 83: 0x04A6 [0x02] IF !(ExtData[1]->WorkLocal[4] == 3*) GOTO 0x04B6
 84: 0x04AE [0x03] ExtData[1]->WorkLocal[17] = 0*
 85: 0x04B3 [0x01] GOTO 0x066B
 86: 0x04B6 [0x02] IF !(ExtData[1]->WorkLocal[4] == 4*) GOTO 0x04C6
 87: 0x04BE [0x03] ExtData[1]->WorkLocal[17] = 0*
 88: 0x04C3 [0x01] GOTO 0x066B
 89: 0x04C6 [0x02] IF !(ExtData[1]->WorkLocal[4] == 5*) GOTO 0x04D6
 90: 0x04CE [0x03] ExtData[1]->WorkLocal[17] = 0*
 91: 0x04D3 [0x01] GOTO 0x066B
 92: 0x04D6 [0x02] IF !(ExtData[1]->WorkLocal[4] == 6*) GOTO 0x04E6
 93: 0x04DE [0x03] ExtData[1]->WorkLocal[17] = 0*
 94: 0x04E3 [0x01] GOTO 0x066B
 95: 0x04E6 [0x02] IF !(ExtData[1]->WorkLocal[4] == 7*) GOTO 0x04F6
 96: 0x04EE [0x03] ExtData[1]->WorkLocal[17] = 0*
 97: 0x04F3 [0x01] GOTO 0x066B
 98: 0x04F6 [0x02] IF !(ExtData[1]->WorkLocal[4] == 8*) GOTO 0x0506
 99: 0x04FE [0x03] ExtData[1]->WorkLocal[17] = 0*
100: 0x0503 [0x01] GOTO 0x066B
101: 0x0506 [0x02] IF !(ExtData[1]->WorkLocal[4] == 9*) GOTO 0x0516
102: 0x050E [0x03] ExtData[1]->WorkLocal[17] = 0*
103: 0x0513 [0x01] GOTO 0x066B
104: 0x0516 [0x02] IF !(ExtData[1]->WorkLocal[4] == 10*) GOTO 0x0526
105: 0x051E [0x03] ExtData[1]->WorkLocal[17] = 0*
106: 0x0523 [0x01] GOTO 0x066B
107: 0x0526 [0x02] IF !(ExtData[1]->WorkLocal[4] == 11*) GOTO 0x0536
108: 0x052E [0x03] ExtData[1]->WorkLocal[17] = 0*
109: 0x0533 [0x01] GOTO 0x066B
110: 0x0536 [0x02] IF !(ExtData[1]->WorkLocal[4] == 12*) GOTO 0x0546
111: 0x053E [0x03] ExtData[1]->WorkLocal[17] = 0*
112: 0x0543 [0x01] GOTO 0x066B
113: 0x0546 [0x02] IF !(ExtData[1]->WorkLocal[4] == 13*) GOTO 0x0556
114: 0x054E [0x03] ExtData[1]->WorkLocal[17] = 0*
115: 0x0553 [0x01] GOTO 0x066B
116: 0x0556 [0x02] IF !(ExtData[1]->WorkLocal[4] == 14*) GOTO 0x0566
117: 0x055E [0x03] ExtData[1]->WorkLocal[17] = 0*
118: 0x0563 [0x01] GOTO 0x066B
119: 0x0566 [0x02] IF !(ExtData[1]->WorkLocal[4] == 15*) GOTO 0x0576
120: 0x056E [0x03] ExtData[1]->WorkLocal[17] = 0*
121: 0x0573 [0x01] GOTO 0x066B
122: 0x0576 [0x02] IF !(ExtData[1]->WorkLocal[4] == 16*) GOTO 0x0586
123: 0x057E [0x03] ExtData[1]->WorkLocal[17] = 0*
124: 0x0583 [0x01] GOTO 0x066B
125: 0x0586 [0x02] IF !(ExtData[1]->WorkLocal[4] == 17*) GOTO 0x0596
126: 0x058E [0x03] ExtData[1]->WorkLocal[17] = 0*
127: 0x0593 [0x01] GOTO 0x066B
128: 0x0596 [0x02] IF !(ExtData[1]->WorkLocal[4] == 18*) GOTO 0x05A6
129: 0x059E [0x03] ExtData[1]->WorkLocal[17] = 0*
130: 0x05A3 [0x01] GOTO 0x066B
131: 0x05A6 [0x02] IF !(ExtData[1]->WorkLocal[4] == 19*) GOTO 0x05B6
132: 0x05AE [0x03] ExtData[1]->WorkLocal[17] = 0*
133: 0x05B3 [0x01] GOTO 0x066B
134: 0x05B6 [0x02] IF !(ExtData[1]->WorkLocal[4] == 20*) GOTO 0x05C6
135: 0x05BE [0x03] ExtData[1]->WorkLocal[17] = 0*
136: 0x05C3 [0x01] GOTO 0x066B
137: 0x05C6 [0x02] IF !(ExtData[1]->WorkLocal[4] == 21*) GOTO 0x05D6
138: 0x05CE [0x03] ExtData[1]->WorkLocal[17] = 0*
139: 0x05D3 [0x01] GOTO 0x066B
140: 0x05D6 [0x02] IF !(ExtData[1]->WorkLocal[4] == 22*) GOTO 0x05E6
141: 0x05DE [0x03] ExtData[1]->WorkLocal[17] = 0*
142: 0x05E3 [0x01] GOTO 0x066B
143: 0x05E6 [0x02] IF !(ExtData[1]->WorkLocal[4] == 23*) GOTO 0x05F6
144: 0x05EE [0x03] ExtData[1]->WorkLocal[17] = 0*
145: 0x05F3 [0x01] GOTO 0x066B
146: 0x05F6 [0x02] IF !(ExtData[1]->WorkLocal[4] == 24*) GOTO 0x0606
147: 0x05FE [0x03] ExtData[1]->WorkLocal[17] = 0*
148: 0x0603 [0x01] GOTO 0x066B
149: 0x0606 [0x02] IF !(ExtData[1]->WorkLocal[4] == 25*) GOTO 0x0616
150: 0x060E [0x03] ExtData[1]->WorkLocal[17] = 0*
151: 0x0613 [0x01] GOTO 0x066B
152: 0x0616 [0x02] IF !(ExtData[1]->WorkLocal[4] == 26*) GOTO 0x0626
153: 0x061E [0x03] ExtData[1]->WorkLocal[17] = 0*
154: 0x0623 [0x01] GOTO 0x066B
155: 0x0626 [0x02] IF !(ExtData[1]->WorkLocal[4] == 27*) GOTO 0x0636
156: 0x062E [0x03] ExtData[1]->WorkLocal[17] = 0*
157: 0x0633 [0x01] GOTO 0x066B
158: 0x0636 [0x02] IF !(ExtData[1]->WorkLocal[4] == 28*) GOTO 0x0646
159: 0x063E [0x03] ExtData[1]->WorkLocal[17] = 0*
160: 0x0643 [0x01] GOTO 0x066B
161: 0x0646 [0x02] IF !(ExtData[1]->WorkLocal[4] == 29*) GOTO 0x0656
162: 0x064E [0x03] ExtData[1]->WorkLocal[17] = 0*
163: 0x0653 [0x01] GOTO 0x066B
164: 0x0656 [0x02] IF !(ExtData[1]->WorkLocal[4] == 30*) GOTO 0x0666
165: 0x065E [0x03] ExtData[1]->WorkLocal[17] = 0*
166: 0x0663 [0x01] GOTO 0x066B
167: 0x0666 [0x03] ExtData[1]->WorkLocal[17] = 0*

SUBROUTINE_066B:
168: 0x066B [0x02] IF !(ExtData[1]->WorkLocal[2] == 1*) GOTO 0x0686
169: 0x0673 [0x5C] MUSIC_CONTROL: Set Idle (Day) music to song 143*
170: 0x0677 [0x5C] MUSIC_CONTROL: Set Idle (Night) music to song 143*
171: 0x067B [0x5C] MUSIC_CONTROL: Set Combat (Solo) music to song 143*
172: 0x067F [0x5C] MUSIC_CONTROL: Set Combat (Party) music to song 143*
173: 0x0683 [0x01] GOTO 0x069E
174: 0x0686 [0x02] IF !(ExtData[1]->WorkLocal[17] == 0*) GOTO 0x069E
175: 0x068E [0x5C] MUSIC_CONTROL: Set Idle (Day) music to song 143*
176: 0x0692 [0x5C] MUSIC_CONTROL: Set Idle (Night) music to song 143*
177: 0x0696 [0x5C] MUSIC_CONTROL: Set Combat (Solo) music to song 143*
178: 0x069A [0x5C] MUSIC_CONTROL: Set Combat (Party) music to song 143*

SUBROUTINE_069E:
179: 0x069E [0x02] IF !(ExtData[1]->WorkLocal[2] == 0*) GOTO 0x06AC
180: 0x06A6 [0x1A] CALL_SUBROUTINE(address=0x0BFD)
181: 0x06A9 [0x01] GOTO 0x06E5
182: 0x06AC [0x6C] FADE_ENTITY_COLOR(entity_id=LocalPlayer, end_alpha=0*, fade_time=1*)
183: 0x06B5 [0x62] LOAD_EVENT_SCHEDULER: Load scheduler "main" with entities [LocalPlayer, LocalPlayer], work=[2*, 0*]
184: 0x06C6 [0x45] LOAD_SCHEDULED_TASK: Load scheduler "ovl1" with entities [LocalPlayer, LocalPlayer], work=[200*, 0*]
185: 0x06D7 [0x46] CAMERA_CONTROL: Query status
186: 0x06D9 [0x0F] 0x0200 ^= ExtData[1]->WorkLocal[15]
187: 0x06DE [0x15] 0x80 /= 0x06E5
188: 0x06E3 [0x46] CAMERA_CONTROL: Restore default settings

SUBROUTINE_06E5:
189: 0x06E5 [0x03] Work_Zone[1] = 100*
190: 0x06EA [0x07] Work_Zone[1] += ExtData[1]->WorkLocal[3]
191: 0x06EF [0x01] GOTO 0x070C

SUBROUTINE_06F5:
192: 0x06F5 [0x0B] ExtData[1]->WorkLocal[0]++
193: 0x06F8 [0x02] IF !(0* == 1*) GOTO 0x0705
194: 0x0700 [0x03] ExtData[1]->WorkLocal[0] = 2*
195: 0x0705 [0x01] GOTO 0x015E
196: 0x0708 [0x48] [System] [7559*]:
    → "You cannot enter the battlefield at present. Please wait a little longer."
197: 0x070B [0x23] WAIT_FOR_DIALOG_INTERACTION

SUBROUTINE_070C:
198: 0x070C [0x45] LOAD_SCHEDULED_TASK: Load scheduler "whi1" with entities [LocalPlayer, LocalPlayer], work=[201*, 0*]
199: 0x071D [0x45] LOAD_SCHEDULED_TASK: Load scheduler "blof" with entities [LocalPlayer, LocalPlayer], work=[200*, 0*]
200: 0x072E [0x45] LOAD_SCHEDULED_TASK: Load scheduler "fdi0" with entities [LocalPlayer, LocalPlayer], work=[200*, 0*]

SUBROUTINE_073F:
201: 0x073F [0x02] IF !(ExtData[1]->WorkLocal[7] == 1*) GOTO 0x0757
202: 0x0747 [0x5C] MUSIC_CONTROL: Set Idle (Day) music to song 0*
203: 0x074B [0x5C] MUSIC_CONTROL: Set Idle (Night) music to song 0*
204: 0x074F [0x5C] MUSIC_CONTROL: Set Combat (Solo) music to song 143*
205: 0x0753 [0x5C] MUSIC_CONTROL: Set Combat (Party) music to song 143*
206: 0x0757 [0x21] END_EVENT
207: 0x0758 [0x00] END_REQSTACK()

SUBROUTINE_0759:
208: 0x0759 [0x1B] RETURN
```

#### Data or dead code:

```
# Dead code (unreachable instructions):
     0x00D0 [0x01] GOTO 0x00FF
     0x00FC [0x01] GOTO 0x00FF
# Dead code (unreachable instructions):
     0x01FC [0x01] GOTO 0x06F5
     0x020E [0x01] GOTO 0x06F5
# Dead code (unreachable instructions):
     0x0410 [0x01] GOTO 0x06F5
     0x041E [0x01] GOTO 0x06F5
# Dead code (unreachable instructions):
     0x06F2 [0x01] GOTO 0x06F5
```

### Event 32002

#### Metadata

| Field        | Value     |
|--------------|-----------|
| Entrypoint   | 0x075A    |
| Data Size    | 183 bytes |
| Instructions | 29        |

```
      00 01 02 03 04 05 06 07  08 09 0A 0B 0C 0D 0E 0F
      -- -- -- -- -- -- -- --  -- -- -- -- -- -- -- --
0750:                                03 05 00 06 10 03            ......
0760: 1D 00 07 10 03 1C 00 08  10 20 01 42 3B F0 FF FF  ......... .B;...
0770: 7F 20 10 21 10 22 10 3A  F0 FF FF 7F 23 10 45 1E  . .!.".:....#.E.
0780: 80 F0 FF FF 7F F0 FF FF  7F 66 64 6F 31 15 80 55  .........fdo1..U
0790: 1E 80 F0 FF FF 7F F0 FF  FF 7F 66 64 6F 31 02 15  ..........fdo1..
07A0: 80 1A 80 00 C0 07 02 05  00 1A 80 80 BD 07 47 00  ..............G.
07B0: 44 80 24 80 45 80 15 80  47 01 01 BD 07 01 D7 07  D.$.E...G.......
07C0: 02 1C 00 46 80 80 CB 07  01 D7 07 47 00 44 80 24  ...F.......G.D.$
07D0: 80 45 80 15 80 47 01 38  1F 80 1A 25 0E 45 43 80  .E...G.8...%.EC.
07E0: F0 FF FF 7F F0 FF FF 7F  77 68 69 31 15 80 45 1E  ........whi1..E.
07F0: 80 F0 FF FF 7F F0 FF FF  7F 62 6C 6F 66 15 80 5C  .........blof..\
0800: 00 15 80 5C 01 15 80 5C  02 41 80 5C 03 41 80 21  ...\...\.A.\.A.!
0810: 00                                                .               
```

#### Opcodes

```
  0: 0x075A [0x03] ExtData[1]->WorkLocal[5] = Work_Zone[6]
  1: 0x075F [0x03] ExtData[1]->WorkLocal[29] = Work_Zone[7]
  2: 0x0764 [0x03] ExtData[1]->WorkLocal[28] = Work_Zone[8]
  3: 0x0769 [0x20] SET_CLI_EVENT_UC_FLAG: Lock player control
  4: 0x076B [0x42] SET_CLI_EVENT_CANCEL_DATA()
  5: 0x076C [0x3B] GET_ENTITY_POSITION(entity=LocalPlayer, x_destination=Work_Zone[32], y_destination=Work_Zone[33], z_destination=Work_Zone[34])
  6: 0x0777 [0x3A] CONVERT_YAW_TO_BYTE(entity=LocalPlayer, result_destination=Work_Zone[35])
  7: 0x077E [0x45] LOAD_SCHEDULED_TASK: Load scheduler "fdo1" with entities [LocalPlayer, LocalPlayer], work=[200*, 0*]
  8: 0x078F [0x55] WAIT_LOAD_SCHEDULER: Wait for scheduler "fdo1" with entities [LocalPlayer, LocalPlayer], work=200*
  9: 0x079E [0x02] IF !(0* == 1*) GOTO 0x07C0
 10: 0x07A6 [0x02] IF !(ExtData[1]->WorkLocal[5] == 1*) GOTO 0x07BD
 11: 0x07AE [0x47] UPDATE_PLAYER_POS(216.000*, 140.000*, 47.800*, yaw=0.0°*)
 12: 0x07B8 [0x47] WAIT_PLAYER_POS_UPDATE
 13: 0x07BA [0x01] GOTO 0x07BD

SUBROUTINE_07BD:
 14: 0x07BD [0x01] GOTO 0x07D7
 15: 0x07C0 [0x02] IF !(ExtData[1]->WorkLocal[28] == 999*) GOTO 0x07CB
 16: 0x07C8 [0x01] GOTO 0x07D7
 17: 0x07CB [0x47] UPDATE_PLAYER_POS(216.000*, 140.000*, 47.800*, yaw=0.0°*)
 18: 0x07D5 [0x47] WAIT_PLAYER_POS_UPDATE

SUBROUTINE_07D7:
 19: 0x07D7 [0x38] SET_CLIENT_EVENT_MODE(mode=19*)
 20: 0x07DA [0x1A] CALL_SUBROUTINE(address=0x0E25)
 21: 0x07DD [0x45] LOAD_SCHEDULED_TASK: Load scheduler "whi1" with entities [LocalPlayer, LocalPlayer], work=[201*, 0*]
 22: 0x07EE [0x45] LOAD_SCHEDULED_TASK: Load scheduler "blof" with entities [LocalPlayer, LocalPlayer], work=[200*, 0*]
 23: 0x07FF [0x5C] MUSIC_CONTROL: Set Idle (Day) music to song 0*
 24: 0x0803 [0x5C] MUSIC_CONTROL: Set Idle (Night) music to song 0*
 25: 0x0807 [0x5C] MUSIC_CONTROL: Set Combat (Solo) music to song 143*
 26: 0x080B [0x5C] MUSIC_CONTROL: Set Combat (Party) music to song 143*
 27: 0x080F [0x21] END_EVENT
 28: 0x0810 [0x00] END_REQSTACK()
```

### Event 32001

#### Metadata

| Field        | Value     |
|--------------|-----------|
| Entrypoint   | 0x0811    |
| Data Size    | 515 bytes |
| Instructions | 81        |

```
      00 01 02 03 04 05 06 07  08 09 0A 0B 0C 0D 0E 0F
      -- -- -- -- -- -- -- --  -- -- -- -- -- -- -- --
0810:    79 00 F0 FF FF 7F F0  FF FF 7F 03 1D 00 02 10   y..............
0820: 03 16 00 03 10 03 17 00  05 10 03 1C 00 06 10 03  ................
0830: 15 00 07 10 03 13 00 08  10 03 18 00 09 10 20 01  .............. .
0840: 42 3B F0 FF FF 7F 20 10  21 10 22 10 3A F0 FF FF  B;.... .!.".:...
0850: 7F 23 10 02 1C 00 47 80  01 5E 08 1C 48 80 45 43  .#....G..^..H.EC
0860: 80 F0 FF FF 7F F0 FF FF  7F 77 68 69 31 15 80 45  .........whi1..E
0870: 1E 80 F0 FF FF 7F F0 FF  FF 7F 62 6C 6F 66 15 80  ..........blof..
0880: 45 1E 80 F0 FF FF 7F F0  FF FF 7F 66 64 6F 31 15  E..........fdo1.
0890: 80 55 1E 80 F0 FF FF 7F  F0 FF FF 7F 66 64 6F 31  .U..........fdo1
08A0: 6C F0 FF FF 7F 49 80 1A  80 06 01 10 02 13 00 15  l....I..........
08B0: 80 03 B7 08 01 CE 08 02  1C 00 46 80 80 C2 08 01  ..........F.....
08C0: CE 08 47 00 44 80 24 80  45 80 15 80 47 01 38 1F  ..G.D.$.E...G.8.
08D0: 80 02 13 00 1A 80 00 30  09 1C 16 80 24 40 80 1A  .......0....$@..
08E0: 80 15 80 25 02 00 10 15  80 00 30 09 37 44 80 24  ...%......0.7D.$
08F0: 80 45 80 15 80 80 F0 FF  FF 7F 62 2A 80 F0 FF FF  .E........b*....
0900: 7F F0 FF FF 7F 6D 61 69  6E 15 80 45 1E 80 F0 FF  .....main..E....
0910: FF 7F F0 FF FF 7F 66 64  69 32 15 80 46 02 0F 00  ......fdi2..F...
0920: 02 0F 00 15 80 00 2A 09  46 00 01 57 09 01 30 09  ......*.F..W..0.
0930: 02 13 00 19 80 04 49 09  5C 00 41 80 5C 01 41 80  ......I.\.A.\.A.
0940: 5C 02 41 80 5C 03 41 80  9A 1A D0 0C 02 13 00 15  \.A.\.A.........
0950: 80 03 57 09 01 AC 09 03  05 10 17 00 02 05 10 15  ..W.............
0960: 80 02 AC 09 02 05 10 4A  80 04 7B 09 3F 04 10 05  .......J..{.?...
0970: 10 4A 80 15 05 10 4A 80  01 7B 09 02 17 00 16 00  .J....J..{......
0980: 05 8B 09 03 07 10 15 00  01 AC 09 02 16 00 4A 80  ..............J.
0990: 04 A7 09 03 05 10 16 00  3F 04 10 05 10 4A 80 15  ........?....J..
09A0: 05 10 4A 80 01 AC 09 03  05 10 16 00 02 14 00 15  ..J.............
09B0: 80 00 C4 09 5C 00 15 80  5C 01 15 80 5C 02 41 80  ....\...\...\.A.
09C0: 5C 03 41 80 02 13 00 15  80 03 ED 09 45 1E 80 F0  \.A.........E...
09D0: FF FF 7F F0 FF FF 7F 66  64 69 32 15 80 5C 00 15  .......fdi2..\..
09E0: 80 5C 01 15 80 5C 02 41  80 5C 03 41 80 06 14 00  .\...\.A.\.A....
09F0: 45 43 80 F0 FF FF 7F F0  FF FF 7F 77 68 69 31 15  EC.........whi1.
0A00: 80 45 1E 80 F0 FF FF 7F  F0 FF FF 7F 62 6C 6F 66  .E..........blof
0A10: 15 80 21 00                                       ..!.            
```

#### Opcodes

```
  0: 0x0811 [0x79] LocalPlayer looks at LocalPlayer (Basic look)
  1: 0x081B [0x03] ExtData[1]->WorkLocal[29] = Work_Zone[2]
  2: 0x0820 [0x03] ExtData[1]->WorkLocal[22] = Work_Zone[3]
  3: 0x0825 [0x03] ExtData[1]->WorkLocal[23] = Work_Zone[5]
  4: 0x082A [0x03] ExtData[1]->WorkLocal[28] = Work_Zone[6]
  5: 0x082F [0x03] ExtData[1]->WorkLocal[21] = Work_Zone[7]
  6: 0x0834 [0x03] ExtData[1]->WorkLocal[19] = Work_Zone[8]
  7: 0x0839 [0x03] ExtData[1]->WorkLocal[24] = Work_Zone[9]
  8: 0x083E [0x20] SET_CLI_EVENT_UC_FLAG: Lock player control
  9: 0x0840 [0x42] SET_CLI_EVENT_CANCEL_DATA()
 10: 0x0841 [0x3B] GET_ENTITY_POSITION(entity=LocalPlayer, x_destination=Work_Zone[32], y_destination=Work_Zone[33], z_destination=Work_Zone[34])
 11: 0x084C [0x3A] CONVERT_YAW_TO_BYTE(entity=LocalPlayer, result_destination=Work_Zone[35])
 12: 0x0853 [0x02] IF !(ExtData[1]->WorkLocal[28] == 180*) GOTO 0x085E
 13: 0x085B [0x1C] WAIT(300* ticks)
 14: 0x085E [0x45] LOAD_SCHEDULED_TASK: Load scheduler "whi1" with entities [LocalPlayer, LocalPlayer], work=[201*, 0*]
 15: 0x086F [0x45] LOAD_SCHEDULED_TASK: Load scheduler "blof" with entities [LocalPlayer, LocalPlayer], work=[200*, 0*]
 16: 0x0880 [0x45] LOAD_SCHEDULED_TASK: Load scheduler "fdo1" with entities [LocalPlayer, LocalPlayer], work=[200*, 0*]
 17: 0x0891 [0x55] WAIT_LOAD_SCHEDULER: Wait for scheduler "fdo1" with entities [LocalPlayer, LocalPlayer], work=200*
 18: 0x08A0 [0x6C] FADE_ENTITY_COLOR(entity_id=LocalPlayer, end_alpha=128*, fade_time=1*)
 19: 0x08A9 [0x06] Work_Zone[1] = 0
 20: 0x08AC [0x02] IF !(ExtData[1]->WorkLocal[19] >= 0*) GOTO 0x08B7
 21: 0x08B4 [0x01] GOTO 0x08CE
 22: 0x08B7 [0x02] IF !(ExtData[1]->WorkLocal[28] == 999*) GOTO 0x08C2
 23: 0x08BF [0x01] GOTO 0x08CE
 24: 0x08C2 [0x47] UPDATE_PLAYER_POS(216.000*, 140.000*, 47.800*, yaw=0.0°*)
 25: 0x08CC [0x47] WAIT_PLAYER_POS_UPDATE

SUBROUTINE_08CE:
 26: 0x08CE [0x38] SET_CLIENT_EVENT_MODE(mode=19*)
 27: 0x08D1 [0x02] IF !(ExtData[1]->WorkLocal[19] == 1*) GOTO 0x0930
 28: 0x08D9 [0x1C] WAIT(15* ticks)
 29: 0x08DC [0x24] CREATE_DIALOG(message_id=7895*, default_option=1*, option_flags=0*)
    → "Skip the event? [Yes./No.]"
 30: 0x08E3 [0x25] WAIT_DIALOG_SELECT()
 31: 0x08E4 [0x02] IF !(Work_Zone[0] == 0*) GOTO 0x0930
 32: 0x08EC [0x37] UPDATE_EVENT_POSITION_AND_DIR: x=216.000*, z=140.000*, y=47.800*, direction=0.0°*
 33: 0x08F5 [0x80] LOAD_WAIT(entity=LocalPlayer)
 34: 0x08FA [0x62] LOAD_EVENT_SCHEDULER: Load scheduler "main" with entities [LocalPlayer, LocalPlayer], work=[2*, 0*]
 35: 0x090B [0x45] LOAD_SCHEDULED_TASK: Load scheduler "fdi2" with entities [LocalPlayer, LocalPlayer], work=[200*, 0*]
 36: 0x091C [0x46] CAMERA_CONTROL: Query status
 37: 0x091E [0x0F] 0x0200 ^= ExtData[1]->WorkLocal[15]
 38: 0x0923 [0x15] 0x80 /= 0x092A
 39: 0x0928 [0x46] CAMERA_CONTROL: Restore default settings
 40: 0x092A [0x01] GOTO 0x0957

SUBROUTINE_0930:
 41: 0x0930 [0x02] IF !(ExtData[1]->WorkLocal[19] < 4294967295*) GOTO 0x0949
 42: 0x0938 [0x5C] MUSIC_CONTROL: Set Idle (Day) music to song 143*
 43: 0x093C [0x5C] MUSIC_CONTROL: Set Idle (Night) music to song 143*
 44: 0x0940 [0x5C] MUSIC_CONTROL: Set Combat (Solo) music to song 143*
 45: 0x0944 [0x5C] MUSIC_CONTROL: Set Combat (Party) music to song 143*
 46: 0x0948 [0x9A] WAIT_MUSIC_SERVER()
 47: 0x0949 [0x1A] CALL_SUBROUTINE(address=0x0CD0)
 48: 0x094C [0x02] IF !(ExtData[1]->WorkLocal[19] >= 0*) GOTO 0x0957
 49: 0x0954 [0x01] GOTO 0x09AC

SUBROUTINE_0957:
 50: 0x0957 [0x03] Work_Zone[5] = ExtData[1]->WorkLocal[23]
 51: 0x095C [0x02] IF !(Work_Zone[5] <= 0*) GOTO 0x09AC
 52: 0x0964 [0x02] IF !(Work_Zone[5] < 60*) GOTO 0x097B
 53: 0x096C [0x3F] Work_Zone[4] = Work_Zone[5] % 60*
 54: 0x0973 [0x15] Work_Zone[5] /= 60*
 55: 0x0978 [0x01] GOTO 0x097B

SUBROUTINE_097B:
 56: 0x097B [0x02] IF !(ExtData[1]->WorkLocal[23] > ExtData[1]->WorkLocal[22]) GOTO 0x098B
 57: 0x0983 [0x03] Work_Zone[7] = ExtData[1]->WorkLocal[21]
 58: 0x0988 [0x01] GOTO 0x09AC
 59: 0x098B [0x02] IF !(ExtData[1]->WorkLocal[22] < 60*) GOTO 0x09A7
 60: 0x0993 [0x03] Work_Zone[5] = ExtData[1]->WorkLocal[22]
 61: 0x0998 [0x3F] Work_Zone[4] = Work_Zone[5] % 60*
 62: 0x099F [0x15] Work_Zone[5] /= 60*
 63: 0x09A4 [0x01] GOTO 0x09AC
 64: 0x09A7 [0x03] Work_Zone[5] = ExtData[1]->WorkLocal[22]

SUBROUTINE_09AC:
 65: 0x09AC [0x02] IF !(ExtData[1]->WorkLocal[20] == 0*) GOTO 0x09C4
 66: 0x09B4 [0x5C] MUSIC_CONTROL: Set Idle (Day) music to song 0*
 67: 0x09B8 [0x5C] MUSIC_CONTROL: Set Idle (Night) music to song 0*
 68: 0x09BC [0x5C] MUSIC_CONTROL: Set Combat (Solo) music to song 143*
 69: 0x09C0 [0x5C] MUSIC_CONTROL: Set Combat (Party) music to song 143*
 70: 0x09C4 [0x02] IF !(ExtData[1]->WorkLocal[19] >= 0*) GOTO 0x09ED
 71: 0x09CC [0x45] LOAD_SCHEDULED_TASK: Load scheduler "fdi2" with entities [LocalPlayer, LocalPlayer], work=[200*, 0*]
 72: 0x09DD [0x5C] MUSIC_CONTROL: Set Idle (Day) music to song 0*
 73: 0x09E1 [0x5C] MUSIC_CONTROL: Set Idle (Night) music to song 0*
 74: 0x09E5 [0x5C] MUSIC_CONTROL: Set Combat (Solo) music to song 143*
 75: 0x09E9 [0x5C] MUSIC_CONTROL: Set Combat (Party) music to song 143*
 76: 0x09ED [0x06] ExtData[1]->WorkLocal[20] = 0
 77: 0x09F0 [0x45] LOAD_SCHEDULED_TASK: Load scheduler "whi1" with entities [LocalPlayer, LocalPlayer], work=[201*, 0*]
 78: 0x0A01 [0x45] LOAD_SCHEDULED_TASK: Load scheduler "blof" with entities [LocalPlayer, LocalPlayer], work=[200*, 0*]
 79: 0x0A12 [0x21] END_EVENT
 80: 0x0A13 [0x00] END_REQSTACK()
```

#### Data or dead code:

```
# Dead code (unreachable instructions):
     0x092D [0x01] GOTO 0x0930
```

### Event 32003

#### Metadata

| Field        | Value     |
|--------------|-----------|
| Entrypoint   | 0x0A14    |
| Data Size    | 435 bytes |
| Instructions | 77        |

```
      00 01 02 03 04 05 06 07  08 09 0A 0B 0C 0D 0E 0F
      -- -- -- -- -- -- -- --  -- -- -- -- -- -- -- --
0A10:             06 19 00 06  1A 00 03 1D 00 06 10 03      ............
0A20: 1C 00 07 10 03 1B 00 08  10 06 01 10 1A 5A 0D 02  .............Z..
0A30: 19 00 1A 80 00 C5 0B 42  03 01 10 2A 80 43 00 43  .......B...*.C.C
0A40: 01 03 01 10 20 80 43 00  43 01 1A 71 0D 02 1A 00  .... .C.C..q....
0A50: 1A 80 00 C5 0B 45 1E 80  F0 FF FF 7F F0 FF FF 7F  .....E..........
0A60: 66 64 6F 31 15 80 55 1E  80 F0 FF FF 7F F0 FF FF  fdo1..U.........
0A70: 7F 66 64 6F 31 03 01 10  21 80 02 1C 00 47 80 80  .fdo1...!....G..
0A80: 04 0B 02 1D 00 15 80 80  99 0A 47 00 4B 80 4C 80  ..........G.K.L.
0A90: 4D 80 4E 80 47 01 01 01  0B 02 1D 00 1A 80 80 B0  M.N.G...........
0AA0: 0A 47 00 4F 80 50 80 51  80 52 80 47 01 01 01 0B  .G.O.P.Q.R.G....
0AB0: 02 1D 00 2A 80 80 C7 0A  47 00 53 80 54 80 55 80  ...*....G.S.T.U.
0AC0: 56 80 47 01 01 01 0B 02  1D 00 20 80 80 DE 0A 47  V.G....... ....G
0AD0: 00 57 80 58 80 59 80 5A  80 47 01 01 01 0B 02 1D  .W.X.Y.Z.G......
0AE0: 00 21 80 80 F5 0A 47 00  5B 80 5C 80 5D 80 5E 80  .!....G.[.\.].^.
0AF0: 47 01 01 01 0B 47 00 44  80 24 80 45 80 15 80 47  G....G.D.$.E...G
0B00: 01 01 83 0B 02 1C 00 29  80 80 77 0B 02 1B 00 1A  .......)..w.....
0B10: 80 80 23 0B 47 00 5F 80  60 80 61 80 62 80 47 01  ..#.G._.`.a.b.G.
0B20: 01 74 0B 02 1B 00 2A 80  80 3A 0B 47 00 63 80 64  .t....*..:.G.c.d
0B30: 80 65 80 66 80 47 01 01  74 0B 02 1B 00 20 80 80  .e.f.G..t.... ..
0B40: 51 0B 47 00 67 80 68 80  69 80 6A 80 47 01 01 74  Q.G.g.h.i.j.G..t
0B50: 0B 02 1B 00 21 80 80 68  0B 47 00 6B 80 6C 80 6D  ....!..h.G.k.l.m
0B60: 80 6E 80 47 01 01 74 0B  47 00 44 80 24 80 45 80  .n.G..t.G.D.$.E.
0B70: 15 80 47 01 01 83 0B 47  00 44 80 24 80 45 80 15  ..G....G.D.$.E..
0B80: 80 47 01 38 1F 80 79 00  F0 FF FF 7F F0 FF FF 7F  .G.8..y.........
0B90: 1A 75 0D 45 43 80 F0 FF  FF 7F F0 FF FF 7F 77 68  .u.EC.........wh
0BA0: 69 31 15 80 45 1E 80 F0  FF FF 7F F0 FF FF 7F 62  i1..E..........b
0BB0: 6C 6F 66 15 80 5C 00 15  80 5C 01 15 80 5C 02 41  lof..\...\...\.A
0BC0: 80 5C 03 41 80 21 00                              .\.A.!.         
```

#### Opcodes

```
  0: 0x0A14 [0x06] ExtData[1]->WorkLocal[25] = 0
  1: 0x0A17 [0x06] ExtData[1]->WorkLocal[26] = 0
  2: 0x0A1A [0x03] ExtData[1]->WorkLocal[29] = Work_Zone[6]
  3: 0x0A1F [0x03] ExtData[1]->WorkLocal[28] = Work_Zone[7]
  4: 0x0A24 [0x03] ExtData[1]->WorkLocal[27] = Work_Zone[8]
  5: 0x0A29 [0x06] Work_Zone[1] = 0
  6: 0x0A2C [0x1A] CALL_SUBROUTINE(address=0x0D5A)
  7: 0x0A2F [0x02] IF !(ExtData[1]->WorkLocal[25] == 1*) GOTO 0x0BC5
  8: 0x0A37 [0x42] SET_CLI_EVENT_CANCEL_DATA()
  9: 0x0A38 [0x03] Work_Zone[1] = 2*
 10: 0x0A3D [0x43] SEND_EVENT_UPDATE: Send pending tag to server (packet 0x005B)
 11: 0x0A3F [0x43] SEND_EVENT_UPDATE: Check pending flag (skip if not pending)
 12: 0x0A41 [0x03] Work_Zone[1] = 3*
 13: 0x0A46 [0x43] SEND_EVENT_UPDATE: Send pending tag to server (packet 0x005B)
 14: 0x0A48 [0x43] SEND_EVENT_UPDATE: Check pending flag (skip if not pending)
 15: 0x0A4A [0x1A] CALL_SUBROUTINE(address=0x0D71)
 16: 0x0A4D [0x02] IF !(ExtData[1]->WorkLocal[26] == 1*) GOTO 0x0BC5
 17: 0x0A55 [0x45] LOAD_SCHEDULED_TASK: Load scheduler "fdo1" with entities [LocalPlayer, LocalPlayer], work=[200*, 0*]
 18: 0x0A66 [0x55] WAIT_LOAD_SCHEDULER: Wait for scheduler "fdo1" with entities [LocalPlayer, LocalPlayer], work=200*
 19: 0x0A75 [0x03] Work_Zone[1] = 4*
 20: 0x0A7A [0x02] IF !(ExtData[1]->WorkLocal[28] == 180*) GOTO 0x0B04
 21: 0x0A82 [0x02] IF !(ExtData[1]->WorkLocal[29] == 0*) GOTO 0x0A99
 22: 0x0A8A [0x47] UPDATE_PLAYER_POS(-605.141*, 479.929*, -22.681*, yaw=87.2°*)
 23: 0x0A94 [0x47] WAIT_PLAYER_POS_UPDATE
 24: 0x0A96 [0x01] GOTO 0x0B01
 25: 0x0A99 [0x02] IF !(ExtData[1]->WorkLocal[29] == 1*) GOTO 0x0AB0
 26: 0x0AA1 [0x47] UPDATE_PLAYER_POS(-262.589*, 377.857*, -137.313*, yaw=305.3°*)
 27: 0x0AAB [0x47] WAIT_PLAYER_POS_UPDATE
 28: 0x0AAD [0x01] GOTO 0x0B01
 29: 0x0AB0 [0x02] IF !(ExtData[1]->WorkLocal[29] == 2*) GOTO 0x0AC7
 30: 0x0AB8 [0x47] UPDATE_PLAYER_POS(18.348*, 486.940*, -224.334*, yaw=17.1°*)
 31: 0x0AC2 [0x47] WAIT_PLAYER_POS_UPDATE
 32: 0x0AC4 [0x01] GOTO 0x0B01
 33: 0x0AC7 [0x02] IF !(ExtData[1]->WorkLocal[29] == 3*) GOTO 0x0ADE
 34: 0x0ACF [0x47] UPDATE_PLAYER_POS(231.593*, 360.094*, -173.572*, yaw=160.8°*)
 35: 0x0AD9 [0x47] WAIT_PLAYER_POS_UPDATE
 36: 0x0ADB [0x01] GOTO 0x0B01
 37: 0x0ADE [0x02] IF !(ExtData[1]->WorkLocal[29] == 4*) GOTO 0x0AF5
 38: 0x0AE6 [0x47] UPDATE_PLAYER_POS(553.664*, 523.939*, -38.205*, yaw=233.9°*)
 39: 0x0AF0 [0x47] WAIT_PLAYER_POS_UPDATE
 40: 0x0AF2 [0x01] GOTO 0x0B01
 41: 0x0AF5 [0x47] UPDATE_PLAYER_POS(216.000*, 140.000*, 47.800*, yaw=0.0°*)
 42: 0x0AFF [0x47] WAIT_PLAYER_POS_UPDATE

SUBROUTINE_0B01:
 43: 0x0B01 [0x01] GOTO 0x0B83
 44: 0x0B04 [0x02] IF !(ExtData[1]->WorkLocal[28] == 6*) GOTO 0x0B77
 45: 0x0B0C [0x02] IF !(ExtData[1]->WorkLocal[27] == 1*) GOTO 0x0B23
 46: 0x0B14 [0x47] UPDATE_PLAYER_POS(-875.117*, -43.892*, -48.084*, yaw=45.1°*)
 47: 0x0B1E [0x47] WAIT_PLAYER_POS_UPDATE
 48: 0x0B20 [0x01] GOTO 0x0B74
 49: 0x0B23 [0x02] IF !(ExtData[1]->WorkLocal[27] == 2*) GOTO 0x0B3A
 50: 0x0B2B [0x47] UPDATE_PLAYER_POS(-755.499*, 563.947*, -112.035*, yaw=313.5°*)
 51: 0x0B35 [0x47] WAIT_PLAYER_POS_UPDATE
 52: 0x0B37 [0x01] GOTO 0x0B74
 53: 0x0B3A [0x02] IF !(ExtData[1]->WorkLocal[27] == 3*) GOTO 0x0B51
 54: 0x0B42 [0x47] UPDATE_PLAYER_POS(123.251*, 754.209*, -172.124*, yaw=38.7°*)
 55: 0x0B4C [0x47] WAIT_PLAYER_POS_UPDATE
 56: 0x0B4E [0x01] GOTO 0x0B74
 57: 0x0B51 [0x02] IF !(ExtData[1]->WorkLocal[27] == 4*) GOTO 0x0B68
 58: 0x0B59 [0x47] UPDATE_PLAYER_POS(-516.404*, -803.323*, 24.206*, yaw=38.4°*)
 59: 0x0B63 [0x47] WAIT_PLAYER_POS_UPDATE
 60: 0x0B65 [0x01] GOTO 0x0B74
 61: 0x0B68 [0x47] UPDATE_PLAYER_POS(216.000*, 140.000*, 47.800*, yaw=0.0°*)
 62: 0x0B72 [0x47] WAIT_PLAYER_POS_UPDATE

SUBROUTINE_0B74:
 63: 0x0B74 [0x01] GOTO 0x0B83
 64: 0x0B77 [0x47] UPDATE_PLAYER_POS(216.000*, 140.000*, 47.800*, yaw=0.0°*)
 65: 0x0B81 [0x47] WAIT_PLAYER_POS_UPDATE

SUBROUTINE_0B83:
 66: 0x0B83 [0x38] SET_CLIENT_EVENT_MODE(mode=19*)
 67: 0x0B86 [0x79] LocalPlayer looks at LocalPlayer (Basic look)
 68: 0x0B90 [0x1A] CALL_SUBROUTINE(address=0x0D75)
 69: 0x0B93 [0x45] LOAD_SCHEDULED_TASK: Load scheduler "whi1" with entities [LocalPlayer, LocalPlayer], work=[201*, 0*]
 70: 0x0BA4 [0x45] LOAD_SCHEDULED_TASK: Load scheduler "blof" with entities [LocalPlayer, LocalPlayer], work=[200*, 0*]
 71: 0x0BB5 [0x5C] MUSIC_CONTROL: Set Idle (Day) music to song 0*
 72: 0x0BB9 [0x5C] MUSIC_CONTROL: Set Idle (Night) music to song 0*
 73: 0x0BBD [0x5C] MUSIC_CONTROL: Set Combat (Solo) music to song 143*
 74: 0x0BC1 [0x5C] MUSIC_CONTROL: Set Combat (Party) music to song 143*
 75: 0x0BC5 [0x21] END_EVENT
 76: 0x0BC6 [0x00] END_REQSTACK()
```

### Event 32004

#### Metadata

| Field        | Value   |
|--------------|---------|
| Entrypoint   | 0x0BC7  |
| Data Size    | 2 bytes |
| Instructions | 2       |

```
      00 01 02 03 04 05 06 07  08 09 0A 0B 0C 0D 0E 0F
      -- -- -- -- -- -- -- --  -- -- -- -- -- -- -- --
0BC0:                      21  00                              !.       
```

#### Opcodes

```
  0: 0x0BC7 [0x21] END_EVENT
  1: 0x0BC8 [0x00] END_REQSTACK()
```

### Event 65535.1

#### Metadata

| Field        | Value    |
|--------------|----------|
| Entrypoint   | 0x0BC9   |
| Data Size    | 15 bytes |
| Instructions | 3        |

```
      00 01 02 03 04 05 06 07  08 09 0A 0B 0C 0D 0E 0F
      -- -- -- -- -- -- -- --  -- -- -- -- -- -- -- --
0BC0:                             37 6F 80 70 80 71 80           7o.p.q.
0BD0: 72 80 80 F8 FF FF 7F 00                           r.......        
```

#### Opcodes

```
  0: 0x0BC9 [0x37] UPDATE_EVENT_POSITION_AND_DIR: x=317.389*, z=-207.942*, y=-3.010*, direction=138.5°*
  1: 0x0BD2 [0x80] LOAD_WAIT(entity=EventEntity)
  2: 0x0BD7 [0x00] END_REQSTACK()
```

### Event 65535.2

#### Metadata

| Field        | Value     |
|--------------|-----------|
| Entrypoint   | 0x0BD8    |
| Data Size    | 869 bytes |
| Instructions | 4         |

```
      00 01 02 03 04 05 06 07  08 09 0A 0B 0C 0D 0E 0F
      -- -- -- -- -- -- -- --  -- -- -- -- -- -- -- --
0BD0:                          32 04 80 1F 00 73 80 74          2....s.t
0BE0: 80 75 80 1F 01 00 24 1C  80 1A 80 15 80 25 02 00  .u....$......%..
0BF0: 10 15 80 00 FC 0B 05 01  00 01 FC 0B 1B 02 03 00  ................
0C00: 18 80 80 08 0C 01 CF 0C  79 00 F0 FF FF 7F F0 FF  ........y.......
0C10: FF 7F 42 46 01 37 0E 80  0F 80 10 80 11 80 1C 2D  ..BF.7.........-
0C20: 80 45 76 80 F0 FF FF 7F  F0 FF FF 7F 62 63 36 35  .Ev.........bc65
0C30: 15 80 1C 2D 80 45 1E 80  F0 FF FF 7F F0 FF FF 7F  ...-.E..........
0C40: 66 64 69 31 15 80 48 77  80 23 27 03 F3 11 04 01  fdi1..Hw.#'.....
0C50: 03 1C 78 80 27 04 F3 11  04 01 04 32 04 80 1F 00  ..x.'......2....
0C60: 12 80 13 80 14 80 1F 01  2A 04 F3 11 04 01 03 02  ........*.......
0C70: 10 79 80 03 03 10 7A 80  48 7B 80 23 92 01 F0 FF  .y....z.H{.#....
0C80: FF 7F 02 00 00 1A 80 80  96 0C 37 23 80 24 80 25  ..........7#.$.%
0C90: 80 11 80 01 96 0C 45 7C  80 F0 FF FF 7F F0 FF FF  ......E|........
0CA0: 7F 62 61 63 6B 15 80 45  1E 80 F0 FF FF 7F F0 FF  .back..E........
0CB0: FF 7F 66 64 69 31 15 80  55 1E 80 F0 FF FF 7F F0  ..fdi1..U.......
0CC0: FF FF 7F 66 64 69 31 92  00 F0 FF FF 7F 46 00 1B  ...fdi1......F..
0CD0: 02 15 00 18 80 80 DB 0C  01 59 0D 46 01 45 1E 80  .........Y.F.E..
0CE0: F0 FF FF 7F F0 FF FF 7F  66 64 6F 32 15 80 55 1E  ........fdo2..U.
0CF0: 80 F0 FF FF 7F F0 FF FF  7F 66 64 6F 32 92 01 F0  .........fdo2...
0D00: FF FF 7F 37 44 80 24 80  45 80 15 80 1A 96 0E 1C  ...7D.$.E.......
0D10: 2D 80 5C 00 15 80 5C 01  15 80 5C 02 7D 80 5C 03  -.\...\...\.}.\.
0D20: 7E 80 9A 45 1E 80 F0 FF  FF 7F F0 FF FF 7F 66 64  ~..E..........fd
0D30: 69 31 15 80 55 1E 80 F0  FF FF 7F F0 FF FF 7F 66  i1..U..........f
0D40: 64 69 31 62 2A 80 F0 FF  FF 7F F0 FF FF 7F 6D 61  di1b*.........ma
0D50: 69 6E 15 80 1C 7F 80 46  00 1B 24 80 80 1A 80 15  in.....F..$.....
0D60: 80 25 02 00 10 15 80 00  70 0D 05 19 00 01 70 0D  .%......p.....p.
0D70: 1B 05 1A 00 1B 46 01 37  81 80 24 80 82 80 15 80  .....F.7..$.....
0D80: 1A 96 0E 1C 1A 80 45 1E  80 F0 FF FF 7F F0 FF FF  ......E.........
0D90: 7F 66 64 69 31 15 80 62  1A 80 F0 FF FF 7F F0 FF  .fdi1..b........
0DA0: FF 7F 6D 61 69 6E 15 80  1C 4A 80 45 1E 80 F0 FF  ..main...J.E....
0DB0: FF 7F F0 FF FF 7F 66 64  6F 32 15 80 55 1E 80 F0  ......fdo2..U...
0DC0: FF FF 7F F0 FF FF 7F 66  64 6F 32 92 01 F0 FF FF  .......fdo2.....
0DD0: 7F 37 44 80 24 80 45 80  15 80 1A 96 0E 5C 00 15  .7D.$.E......\..
0DE0: 80 5C 01 15 80 5C 02 7D  80 5C 03 7E 80 9A 45 1E  .\...\.}.\.~..E.
0DF0: 80 F0 FF FF 7F F0 FF FF  7F 66 64 69 31 15 80 55  .........fdi1..U
0E00: 1E 80 F0 FF FF 7F F0 FF  FF 7F 66 64 69 31 62 2A  ..........fdi1b*
0E10: 80 F0 FF FF 7F F0 FF FF  7F 6D 61 69 6E 15 80 1C  .........main...
0E20: 7F 80 46 00 1B 6C F0 FF  FF 7F 15 80 1A 80 46 01  ..F..l........F.
0E30: 92 01 F0 FF FF 7F 37 44  80 24 80 45 80 15 80 1A  ......7D.$.E....
0E40: 96 0E 5C 00 15 80 5C 01  15 80 5C 02 7D 80 5C 03  ..\...\...\.}.\.
0E50: 7E 80 9A 45 1E 80 F0 FF  FF 7F F0 FF FF 7F 66 64  ~..E..........fd
0E60: 69 31 15 80 55 1E 80 F0  FF FF 7F F0 FF FF 7F 66  i1..U..........f
0E70: 64 69 31 62 2A 80 F0 FF  FF 7F F0 FF FF 7F 6D 61  di1b*.........ma
0E80: 69 6E 15 80 1C 7F 80 46  00 1B 02 03 00 15 80 80  in.....F........
0E90: 95 0E 01 95 0E 1B 6C F0  FF FF 7F 49 80 1A 80 1C  ......l....I....
0EA0: 1A 80 45 7C 80 F0 FF FF  7F F0 FF FF 7F 62 61 63  ..E|.........bac
0EB0: 6B 15 80 1C 1A 80 6C F0  FF FF 7F 15 80 1A 80 1B  k.....l.........
0EC0: 02 00 00 1A 80 80 DF 0E  03 09 00 23 80 03 0A 00  ...........#....
0ED0: 24 80 03 0B 00 25 80 03  0C 00 11 80 01 3C 0F 02  $....%.......<..
0EE0: 00 00 2A 80 80 FE 0E 03  09 00 15 80 03 0A 00 15  ..*.............
0EF0: 80 03 0B 00 15 80 03 0C  00 15 80 01 3C 0F 02 00  ............<...
0F00: 00 20 80 80 1D 0F 03 09  00 15 80 03 0A 00 15 80  . ..............
0F10: 03 0B 00 15 80 03 0C 00  15 80 01 3C 0F 02 00 00  ...........<....
0F20: 21 80 80 3C 0F 03 09 00  15 80 03 0A 00 15 80 03  !..<............
0F30: 0B 00 15 80 03 0C 00 15  80 01 3C 0F 1B           ..........<..   
```

#### Opcodes

```
  0: 0x0BD8 [0x32] ExtData[1]->MainSpeed = 13* * 0.1
  1: 0x0BDB [0x1F] MOVE_ENTITY: EventEntity moves to X=315.734*, Z=-209.972*, Y=-3.095*
  2: 0x0BE3 [0x1F] MOVE_ENTITY: Update entity position (mode=1)
  3: 0x0BE5 [0x00] END_REQSTACK()
```

#### Data or dead code:

```
# Dead code (unreachable instructions):
     0x0BE6 [0x24] CREATE_DIALOG(message_id=7556*, default_option=1*, option_flags=0*)
    → "Enter the battlefield? [Enter./Decline.]"
     0x0BED [0x25] WAIT_DIALOG_SELECT()
     0x0BEE [0x02] IF !(Work_Zone[0] == 0*) GOTO 0x0BFC
     0x0BF6 [0x05] ExtData[1]->WorkLocal[1] = 1
     0x0BF9 [0x01] GOTO 0x0BFC
     0x0BFC [0x1B] RETURN
     0x0BFD [0x02] IF !(ExtData[1]->WorkLocal[3] == 31*) GOTO 0x0C08
     0x0C05 [0x01] GOTO 0x0CCF
     0x0C08 [0x79] LocalPlayer looks at LocalPlayer (Basic look)
     0x0C12 [0x42] SET_CLI_EVENT_CANCEL_DATA()
     0x0C13 [0x46] CAMERA_CONTROL: Disable user control
     0x0C15 [0x37] UPDATE_EVENT_POSITION_AND_DIR: x=202.020*, z=139.982*, y=48.780*, direction=180.0°*
     0x0C1E [0x1C] WAIT(10* ticks)
     0x0C21 [0x45] LOAD_SCHEDULED_TASK: Load scheduler "bc65" with entities [LocalPlayer, LocalPlayer], work=[217*, 0*]
     0x0C32 [0x1C] WAIT(10* ticks)
     0x0C35 [0x45] LOAD_SCHEDULED_TASK: Load scheduler "fdi1" with entities [LocalPlayer, LocalPlayer], work=[200*, 0*]
     0x0C46 [0x48] [System] [8013*]:
    → "You ring the red bell and the blue bell together and hear the dull clunk of something being unlocked..."
     0x0C49 [0x23] WAIT_FOR_DIALOG_INTERACTION
     0x0C4A [0x27] REQ_SET(priority=0x03, entity_id=Mahogany Door (ID: 17043955/0x010411F3), tag_num=0x03)
     0x0C51 [0x1C] WAIT(90* ticks)
     0x0C54 [0x27] REQ_SET(priority=0x04, entity_id=Mahogany Door (ID: 17043955/0x010411F3), tag_num=0x04)
     0x0C5B [0x32] ExtData[1]->MainSpeed = 13* * 0.1
     0x0C5E [0x1F] MOVE_ENTITY: EventEntity moves to X=195.818*, Z=139.937*, Y=48.506*
     0x0C66 [0x1F] MOVE_ENTITY: Update entity position (mode=1)
     0x0C68 [0x2A] GET_REQ_LEVEL(level=4, entity_id=Mahogany Door (ID: 17043955/0x010411F3))
     0x0C6E [0x03] Work_Zone[2] = 799*
     0x0C73 [0x03] Work_Zone[3] = 800*
     0x0C78 [0x48] [System] [8014*]:
    → "The $3 and $3 no longer seem to ring..."
     0x0C7B [0x23] WAIT_FOR_DIALOG_INTERACTION
     0x0C7C [0x92] LocalPlayer->Render.Flags3 ^= 0x01
     0x0C82 [0x02] IF !(ExtData[1]->WorkLocal[0] == 1*) GOTO 0x0C96
     0x0C8A [0x37] UPDATE_EVENT_POSITION_AND_DIR: x=188.000*, z=140.000*, y=48.200*, direction=180.0°*
     0x0C93 [0x01] GOTO 0x0C96
     0x0C96 [0x45] LOAD_SCHEDULED_TASK: Load scheduler "back" with entities [LocalPlayer, LocalPlayer], work=[108*, 0*]
     0x0CA7 [0x45] LOAD_SCHEDULED_TASK: Load scheduler "fdi1" with entities [LocalPlayer, LocalPlayer], work=[200*, 0*]
     0x0CB8 [0x55] WAIT_LOAD_SCHEDULER: Wait for scheduler "fdi1" with entities [LocalPlayer, LocalPlayer], work=200*
     0x0CC7 [0x92] LocalPlayer->Render.Flags3 = Flags3  // No change (flag=0)
     0x0CCD [0x46] CAMERA_CONTROL: Restore default settings
     0x0CCF [0x1B] RETURN
     0x0CD0 [0x02] IF !(ExtData[1]->WorkLocal[21] == 31*) GOTO 0x0CDB
     0x0CD8 [0x01] GOTO 0x0D59
     0x0CDB [0x46] CAMERA_CONTROL: Disable user control
     0x0CDD [0x45] LOAD_SCHEDULED_TASK: Load scheduler "fdo2" with entities [LocalPlayer, LocalPlayer], work=[200*, 0*]
     0x0CEE [0x55] WAIT_LOAD_SCHEDULER: Wait for scheduler "fdo2" with entities [LocalPlayer, LocalPlayer], work=200*
     0x0CFD [0x92] LocalPlayer->Render.Flags3 ^= 0x01
     0x0D03 [0x37] UPDATE_EVENT_POSITION_AND_DIR: x=216.000*, z=140.000*, y=47.800*, direction=0.0°*
     0x0D0C [0x1A] CALL_SUBROUTINE(address=0x0E96)
     0x0D0F [0x1C] WAIT(10* ticks)
     0x0D12 [0x5C] MUSIC_CONTROL: Set Idle (Day) music to song 0*
     0x0D16 [0x5C] MUSIC_CONTROL: Set Idle (Night) music to song 0*
     0x0D1A [0x5C] MUSIC_CONTROL: Set Combat (Solo) music to song 115*
     0x0D1E [0x5C] MUSIC_CONTROL: Set Combat (Party) music to song 139*
     0x0D22 [0x9A] WAIT_MUSIC_SERVER()
     0x0D23 [0x45] LOAD_SCHEDULED_TASK: Load scheduler "fdi1" with entities [LocalPlayer, LocalPlayer], work=[200*, 0*]
     0x0D34 [0x55] WAIT_LOAD_SCHEDULER: Wait for scheduler "fdi1" with entities [LocalPlayer, LocalPlayer], work=200*
     0x0D43 [0x62] LOAD_EVENT_SCHEDULER: Load scheduler "main" with entities [LocalPlayer, LocalPlayer], work=[2*, 0*]
     0x0D54 [0x1C] WAIT(120* ticks)
     0x0D57 [0x46] CAMERA_CONTROL: Restore default settings
     0x0D59 [0x1B] RETURN
     0x0D5A [0x24] CREATE_DIALOG(message_id=7557*, default_option=1*, option_flags=0*)
    → "Leave the battlefield? [Run away./Stay.]"
     0x0D61 [0x25] WAIT_DIALOG_SELECT()
     0x0D62 [0x02] IF !(Work_Zone[0] == 0*) GOTO 0x0D70
     0x0D6A [0x05] ExtData[1]->WorkLocal[25] = 1
     0x0D6D [0x01] GOTO 0x0D70
     0x0D70 [0x1B] RETURN
     0x0D71 [0x05] ExtData[1]->WorkLocal[26] = 1
     0x0D74 [0x1B] RETURN
     0x0D75 [0x46] CAMERA_CONTROL: Disable user control
     0x0D77 [0x37] UPDATE_EVENT_POSITION_AND_DIR: x=196.000*, z=140.000*, y=48.000*, direction=0.0°*
     0x0D80 [0x1A] CALL_SUBROUTINE(address=0x0E96)
     0x0D83 [0x1C] WAIT(1* ticks)
     0x0D86 [0x45] LOAD_SCHEDULED_TASK: Load scheduler "fdi1" with entities [LocalPlayer, LocalPlayer], work=[200*, 0*]
     0x0D97 [0x62] LOAD_EVENT_SCHEDULER: Load scheduler "main" with entities [LocalPlayer, LocalPlayer], work=[1*, 0*]
     0x0DA8 [0x1C] WAIT(60* ticks)
     0x0DAB [0x45] LOAD_SCHEDULED_TASK: Load scheduler "fdo2" with entities [LocalPlayer, LocalPlayer], work=[200*, 0*]
     0x0DBC [0x55] WAIT_LOAD_SCHEDULER: Wait for scheduler "fdo2" with entities [LocalPlayer, LocalPlayer], work=200*
     0x0DCB [0x92] LocalPlayer->Render.Flags3 ^= 0x01
     0x0DD1 [0x37] UPDATE_EVENT_POSITION_AND_DIR: x=216.000*, z=140.000*, y=47.800*, direction=0.0°*
     0x0DDA [0x1A] CALL_SUBROUTINE(address=0x0E96)
     0x0DDD [0x5C] MUSIC_CONTROL: Set Idle (Day) music to song 0*
     0x0DE1 [0x5C] MUSIC_CONTROL: Set Idle (Night) music to song 0*
     0x0DE5 [0x5C] MUSIC_CONTROL: Set Combat (Solo) music to song 115*
     0x0DE9 [0x5C] MUSIC_CONTROL: Set Combat (Party) music to song 139*
     0x0DED [0x9A] WAIT_MUSIC_SERVER()
     0x0DEE [0x45] LOAD_SCHEDULED_TASK: Load scheduler "fdi1" with entities [LocalPlayer, LocalPlayer], work=[200*, 0*]
     0x0DFF [0x55] WAIT_LOAD_SCHEDULER: Wait for scheduler "fdi1" with entities [LocalPlayer, LocalPlayer], work=200*
     0x0E0E [0x62] LOAD_EVENT_SCHEDULER: Load scheduler "main" with entities [LocalPlayer, LocalPlayer], work=[2*, 0*]
     0x0E1F [0x1C] WAIT(120* ticks)
     0x0E22 [0x46] CAMERA_CONTROL: Restore default settings
     0x0E24 [0x1B] RETURN
     0x0E25 [0x6C] FADE_ENTITY_COLOR(entity_id=LocalPlayer, end_alpha=0*, fade_time=1*)
     0x0E2E [0x46] CAMERA_CONTROL: Disable user control
     0x0E30 [0x92] LocalPlayer->Render.Flags3 ^= 0x01
     0x0E36 [0x37] UPDATE_EVENT_POSITION_AND_DIR: x=216.000*, z=140.000*, y=47.800*, direction=0.0°*
     0x0E3F [0x1A] CALL_SUBROUTINE(address=0x0E96)
     0x0E42 [0x5C] MUSIC_CONTROL: Set Idle (Day) music to song 0*
     0x0E46 [0x5C] MUSIC_CONTROL: Set Idle (Night) music to song 0*
     0x0E4A [0x5C] MUSIC_CONTROL: Set Combat (Solo) music to song 115*
     0x0E4E [0x5C] MUSIC_CONTROL: Set Combat (Party) music to song 139*
     0x0E52 [0x9A] WAIT_MUSIC_SERVER()
     0x0E53 [0x45] LOAD_SCHEDULED_TASK: Load scheduler "fdi1" with entities [LocalPlayer, LocalPlayer], work=[200*, 0*]
     0x0E64 [0x55] WAIT_LOAD_SCHEDULER: Wait for scheduler "fdi1" with entities [LocalPlayer, LocalPlayer], work=200*
     0x0E73 [0x62] LOAD_EVENT_SCHEDULER: Load scheduler "main" with entities [LocalPlayer, LocalPlayer], work=[2*, 0*]
     0x0E84 [0x1C] WAIT(120* ticks)
     0x0E87 [0x46] CAMERA_CONTROL: Restore default settings
     0x0E89 [0x1B] RETURN
     0x0E8A [0x02] IF !(ExtData[1]->WorkLocal[3] == 0*) GOTO 0x0E95
     0x0E92 [0x01] GOTO 0x0E95
     0x0E95 [0x1B] RETURN
     0x0E96 [0x6C] FADE_ENTITY_COLOR(entity_id=LocalPlayer, end_alpha=128*, fade_time=1*)
     0x0E9F [0x1C] WAIT(1* ticks)
     0x0EA2 [0x45] LOAD_SCHEDULED_TASK: Load scheduler "back" with entities [LocalPlayer, LocalPlayer], work=[108*, 0*]
     0x0EB3 [0x1C] WAIT(1* ticks)
     0x0EB6 [0x6C] FADE_ENTITY_COLOR(entity_id=LocalPlayer, end_alpha=0*, fade_time=1*)
     0x0EBF [0x1B] RETURN
     0x0EC0 [0x02] IF !(ExtData[1]->WorkLocal[0] == 1*) GOTO 0x0EDF
     0x0EC8 [0x03] ExtData[1]->WorkLocal[9] = 188000*
     0x0ECD [0x03] ExtData[1]->WorkLocal[10] = 140000*
     0x0ED2 [0x03] ExtData[1]->WorkLocal[11] = 48200*
     0x0ED7 [0x03] ExtData[1]->WorkLocal[12] = 2048*
     0x0EDC [0x01] GOTO 0x0F3C
     0x0EDF [0x02] IF !(ExtData[1]->WorkLocal[0] == 2*) GOTO 0x0EFE
     0x0EE7 [0x03] ExtData[1]->WorkLocal[9] = 0*
     0x0EEC [0x03] ExtData[1]->WorkLocal[10] = 0*
     0x0EF1 [0x03] ExtData[1]->WorkLocal[11] = 0*
     0x0EF6 [0x03] ExtData[1]->WorkLocal[12] = 0*
     0x0EFB [0x01] GOTO 0x0F3C
     0x0EFE [0x02] IF !(ExtData[1]->WorkLocal[0] == 3*) GOTO 0x0F1D
     0x0F06 [0x03] ExtData[1]->WorkLocal[9] = 0*
     0x0F0B [0x03] ExtData[1]->WorkLocal[10] = 0*
     0x0F10 [0x03] ExtData[1]->WorkLocal[11] = 0*
     0x0F15 [0x03] ExtData[1]->WorkLocal[12] = 0*
     0x0F1A [0x01] GOTO 0x0F3C
     0x0F1D [0x02] IF !(ExtData[1]->WorkLocal[0] == 4*) GOTO 0x0F3C
     0x0F25 [0x03] ExtData[1]->WorkLocal[9] = 0*
     0x0F2A [0x03] ExtData[1]->WorkLocal[10] = 0*
     0x0F2F [0x03] ExtData[1]->WorkLocal[11] = 0*
     0x0F34 [0x03] ExtData[1]->WorkLocal[12] = 0*
     0x0F39 [0x01] GOTO 0x0F3C
     0x0F3C [0x1B] RETURN
```

### Event 208

#### Metadata

| Field        | Value     |
|--------------|-----------|
| Entrypoint   | 0x0F3D    |
| Data Size    | 719 bytes |
| Instructions | 85        |

```
      00 01 02 03 04 05 06 07  08 09 0A 0B 0C 0D 0E 0F
      -- -- -- -- -- -- -- --  -- -- -- -- -- -- -- --
0F30:                                         42 48 83               BH.
0F40: 80 23 45 1E 80 F8 FF FF  7F F8 FF FF 7F 66 64 6F  .#E..........fdo
0F50: 31 15 80 55 1E 80 F8 FF  FF 7F F8 FF FF 7F 66 64  1..U..........fd
0F60: 6F 31 46 01 38 3A 80 4E  01 F0 FF FF 7F 03 1E 00  o1F.8:.N........
0F70: 15 80 02 1E 00 15 80 00  F4 11 45 84 80 F8 FF FF  ..........E.....
0F80: 7F F8 FF FF 7F 73 30 37  37 15 80 1C 4A 80 45 1E  .....s077...J.E.
0F90: 80 F8 FF FF 7F F8 FF FF  7F 66 64 69 31 15 80 1C  .........fdi1...
0FA0: 4A 80 48 85 80 23 45 1E  80 F8 FF FF 7F F8 FF FF  J.H..#E.........
0FB0: 7F 66 64 6F 31 15 80 55  1E 80 F8 FF FF 7F F8 FF  .fdo1..U........
0FC0: FF 7F 66 64 6F 31 52 84  80 F8 FF FF 7F F8 FF FF  ..fdo1R.........
0FD0: 7F 73 30 37 37 45 84 80  F8 FF FF 7F F8 FF FF 7F  .s077E..........
0FE0: 73 30 37 39 15 80 1C 4A  80 45 1E 80 F8 FF FF 7F  s079...J.E......
0FF0: F8 FF FF 7F 66 64 69 31  15 80 1C 4A 80 48 86 80  ....fdi1...J.H..
1000: 23 45 1E 80 F8 FF FF 7F  F8 FF FF 7F 66 64 6F 31  #E..........fdo1
1010: 15 80 55 1E 80 F8 FF FF  7F F8 FF FF 7F 66 64 6F  ..U..........fdo
1020: 31 52 84 80 F8 FF FF 7F  F8 FF FF 7F 73 30 37 39  1R..........s079
1030: 45 84 80 F8 FF FF 7F F8  FF FF 7F 73 30 37 38 15  E..........s078.
1040: 80 1C 4A 80 45 1E 80 F8  FF FF 7F F8 FF FF 7F 66  ..J.E..........f
1050: 64 69 31 15 80 1C 4A 80  48 87 80 23 24 88 80 15  di1...J.H..#$...
1060: 80 15 80 25 02 00 10 15  80 00 6F 10 01 A4 11 02  ...%......o.....
1070: 00 10 1A 80 00 F2 10 45  1E 80 F8 FF FF 7F F8 FF  .......E........
1080: FF 7F 66 64 6F 31 15 80  55 1E 80 F8 FF FF 7F F8  ..fdo1..U.......
1090: FF FF 7F 66 64 6F 31 52  84 80 F8 FF FF 7F F8 FF  ...fdo1R........
10A0: FF 7F 73 30 37 38 45 84  80 F8 FF FF 7F F8 FF FF  ..s078E.........
10B0: 7F 73 30 37 37 15 80 1C  4A 80 45 1E 80 F8 FF FF  .s077...J.E.....
10C0: 7F F8 FF FF 7F 66 64 69  31 15 80 1C 7F 80 45 89  .....fdi1.....E.
10D0: 80 F8 FF FF 7F F8 FF FF  7F 73 30 34 37 15 80 1C  .........s047...
10E0: 7F 80 48 8A 80 03 1E 00  1A 80 03 01 10 1A 80 01  ..H.............
10F0: A4 11 02 00 10 2A 80 00  75 11 45 1E 80 F8 FF FF  .....*..u.E.....
1100: 7F F8 FF FF 7F 66 64 6F  31 15 80 55 1E 80 F8 FF  .....fdo1..U....
1110: FF 7F F8 FF FF 7F 66 64  6F 31 52 84 80 F8 FF FF  ......fdo1R.....
1120: 7F F8 FF FF 7F 73 30 37  38 45 84 80 F8 FF FF 7F  .....s078E......
1130: F8 FF FF 7F 73 30 37 39  15 80 1C 4A 80 45 1E 80  ....s079...J.E..
1140: F8 FF FF 7F F8 FF FF 7F  66 64 69 31 15 80 1C 7F  ........fdi1....
1150: 80 45 89 80 F8 FF FF 7F  F8 FF FF 7F 73 30 34 37  .E..........s047
1160: 15 80 1C 7F 80 48 8B 80  03 1E 00 1A 80 03 01 10  .....H..........
1170: 2A 80 01 A4 11 02 00 10  20 80 00 A4 11 1C 7F 80  *....... .......
1180: 45 89 80 F8 FF FF 7F F8  FF FF 7F 73 30 34 37 15  E..........s047.
1190: 80 1C 7F 80 48 8C 80 03  1E 00 1A 80 03 01 10 20  ....H.......... 
11A0: 80 01 A4 11 45 1E 80 F8  FF FF 7F F8 FF FF 7F 66  ....E..........f
11B0: 64 6F 31 15 80 55 1E 80  F8 FF FF 7F F8 FF FF 7F  do1..U..........
11C0: 66 64 6F 31 52 84 80 F8  FF FF 7F F8 FF FF 7F 73  fdo1R..........s
11D0: 30 37 37 52 84 80 F8 FF  FF 7F F8 FF FF 7F 73 30  077R..........s0
11E0: 37 39 52 84 80 F8 FF FF  7F F8 FF FF 7F 73 30 37  79R..........s07
11F0: 38 01 72 0F 46 00 1C 4A  80 45 1E 80 F8 FF FF 7F  8.r.F..J.E......
1200: F8 FF FF 7F 66 64 69 31  15 80 21 00              ....fdi1..!.    
```

#### Opcodes

```
  0: 0x0F3D [0x42] SET_CLI_EVENT_CANCEL_DATA()
  1: 0x0F3E [0x48] [System] [8015*]:
    → "Choose a picture to take."
  2: 0x0F41 [0x23] WAIT_FOR_DIALOG_INTERACTION
  3: 0x0F42 [0x45] LOAD_SCHEDULED_TASK: Load scheduler "fdo1" with entities [EventEntity, EventEntity], work=[200*, 0*]
  4: 0x0F53 [0x55] WAIT_LOAD_SCHEDULER: Wait for scheduler "fdo1" with entities [EventEntity, EventEntity], work=200*
  5: 0x0F62 [0x46] CAMERA_CONTROL: Disable user control
  6: 0x0F64 [0x38] SET_CLIENT_EVENT_MODE(mode=27*)
  7: 0x0F67 [0x4E] SET_ENTITY_HIDE_FLAG: Hide LocalPlayer
  8: 0x0F6D [0x03] ExtData[1]->WorkLocal[30] = 0*
  9: 0x0F72 [0x02] IF !(ExtData[1]->WorkLocal[30] == 0*) GOTO 0x11F4
 10: 0x0F7A [0x45] LOAD_SCHEDULED_TASK: Load scheduler "s077" with entities [EventEntity, EventEntity], work=[253*, 0*]
 11: 0x0F8B [0x1C] WAIT(60* ticks)
 12: 0x0F8E [0x45] LOAD_SCHEDULED_TASK: Load scheduler "fdi1" with entities [EventEntity, EventEntity], work=[200*, 0*]
 13: 0x0F9F [0x1C] WAIT(60* ticks)
 14: 0x0FA2 [0x48] [System] [8016*]:
    → "First scene."
 15: 0x0FA5 [0x23] WAIT_FOR_DIALOG_INTERACTION
 16: 0x0FA6 [0x45] LOAD_SCHEDULED_TASK: Load scheduler "fdo1" with entities [EventEntity, EventEntity], work=[200*, 0*]
 17: 0x0FB7 [0x55] WAIT_LOAD_SCHEDULER: Wait for scheduler "fdo1" with entities [EventEntity, EventEntity], work=200*
 18: 0x0FC6 [0x52] END_LOAD_SCHEDULER: End scheduler "s077" with entities [EventEntity, EventEntity], work=253*
 19: 0x0FD5 [0x45] LOAD_SCHEDULED_TASK: Load scheduler "s079" with entities [EventEntity, EventEntity], work=[253*, 0*]
 20: 0x0FE6 [0x1C] WAIT(60* ticks)
 21: 0x0FE9 [0x45] LOAD_SCHEDULED_TASK: Load scheduler "fdi1" with entities [EventEntity, EventEntity], work=[200*, 0*]
 22: 0x0FFA [0x1C] WAIT(60* ticks)
 23: 0x0FFD [0x48] [System] [8017*]:
    → "Second scene."
 24: 0x1000 [0x23] WAIT_FOR_DIALOG_INTERACTION
 25: 0x1001 [0x45] LOAD_SCHEDULED_TASK: Load scheduler "fdo1" with entities [EventEntity, EventEntity], work=[200*, 0*]
 26: 0x1012 [0x55] WAIT_LOAD_SCHEDULER: Wait for scheduler "fdo1" with entities [EventEntity, EventEntity], work=200*
 27: 0x1021 [0x52] END_LOAD_SCHEDULER: End scheduler "s079" with entities [EventEntity, EventEntity], work=253*
 28: 0x1030 [0x45] LOAD_SCHEDULED_TASK: Load scheduler "s078" with entities [EventEntity, EventEntity], work=[253*, 0*]
 29: 0x1041 [0x1C] WAIT(60* ticks)
 30: 0x1044 [0x45] LOAD_SCHEDULED_TASK: Load scheduler "fdi1" with entities [EventEntity, EventEntity], work=[200*, 0*]
 31: 0x1055 [0x1C] WAIT(60* ticks)
 32: 0x1058 [0x48] [System] [8018*]:
    → "Third scene."
 33: 0x105B [0x23] WAIT_FOR_DIALOG_INTERACTION
 34: 0x105C [0x24] CREATE_DIALOG(message_id=8019*, default_option=0*, option_flags=0*)
    → "Which picture will you take? [Show me again./First scene./Second scene./Third scene.]"
 35: 0x1063 [0x25] WAIT_DIALOG_SELECT()
 36: 0x1064 [0x02] IF !(Work_Zone[0] == 0*) GOTO 0x106F
 37: 0x106C [0x01] GOTO 0x11A4
 38: 0x106F [0x02] IF !(Work_Zone[0] == 1*) GOTO 0x10F2
 39: 0x1077 [0x45] LOAD_SCHEDULED_TASK: Load scheduler "fdo1" with entities [EventEntity, EventEntity], work=[200*, 0*]
 40: 0x1088 [0x55] WAIT_LOAD_SCHEDULER: Wait for scheduler "fdo1" with entities [EventEntity, EventEntity], work=200*
 41: 0x1097 [0x52] END_LOAD_SCHEDULER: End scheduler "s078" with entities [EventEntity, EventEntity], work=253*
 42: 0x10A6 [0x45] LOAD_SCHEDULED_TASK: Load scheduler "s077" with entities [EventEntity, EventEntity], work=[253*, 0*]
 43: 0x10B7 [0x1C] WAIT(60* ticks)
 44: 0x10BA [0x45] LOAD_SCHEDULED_TASK: Load scheduler "fdi1" with entities [EventEntity, EventEntity], work=[200*, 0*]
 45: 0x10CB [0x1C] WAIT(120* ticks)
 46: 0x10CE [0x45] LOAD_SCHEDULED_TASK: Load scheduler "s047" with entities [EventEntity, EventEntity], work=[254*, 0*]
 47: 0x10DF [0x1C] WAIT(120* ticks)
 48: 0x10E2 [0x48] [System] [8020*]:
    → "<Player> records the first scene."
 49: 0x10E5 [0x03] ExtData[1]->WorkLocal[30] = 1*
 50: 0x10EA [0x03] Work_Zone[1] = 1*
 51: 0x10EF [0x01] GOTO 0x11A4
 52: 0x10F2 [0x02] IF !(Work_Zone[0] == 2*) GOTO 0x1175
 53: 0x10FA [0x45] LOAD_SCHEDULED_TASK: Load scheduler "fdo1" with entities [EventEntity, EventEntity], work=[200*, 0*]
 54: 0x110B [0x55] WAIT_LOAD_SCHEDULER: Wait for scheduler "fdo1" with entities [EventEntity, EventEntity], work=200*
 55: 0x111A [0x52] END_LOAD_SCHEDULER: End scheduler "s078" with entities [EventEntity, EventEntity], work=253*
 56: 0x1129 [0x45] LOAD_SCHEDULED_TASK: Load scheduler "s079" with entities [EventEntity, EventEntity], work=[253*, 0*]
 57: 0x113A [0x1C] WAIT(60* ticks)
 58: 0x113D [0x45] LOAD_SCHEDULED_TASK: Load scheduler "fdi1" with entities [EventEntity, EventEntity], work=[200*, 0*]
 59: 0x114E [0x1C] WAIT(120* ticks)
 60: 0x1151 [0x45] LOAD_SCHEDULED_TASK: Load scheduler "s047" with entities [EventEntity, EventEntity], work=[254*, 0*]
 61: 0x1162 [0x1C] WAIT(120* ticks)
 62: 0x1165 [0x48] [System] [8021*]:
    → "<Player> records the second scene."
 63: 0x1168 [0x03] ExtData[1]->WorkLocal[30] = 1*
 64: 0x116D [0x03] Work_Zone[1] = 2*
 65: 0x1172 [0x01] GOTO 0x11A4
 66: 0x1175 [0x02] IF !(Work_Zone[0] == 3*) GOTO 0x11A4
 67: 0x117D [0x1C] WAIT(120* ticks)
 68: 0x1180 [0x45] LOAD_SCHEDULED_TASK: Load scheduler "s047" with entities [EventEntity, EventEntity], work=[254*, 0*]
 69: 0x1191 [0x1C] WAIT(120* ticks)
 70: 0x1194 [0x48] [System] [8022*]:
    → "<Player> records the third scene."
 71: 0x1197 [0x03] ExtData[1]->WorkLocal[30] = 1*
 72: 0x119C [0x03] Work_Zone[1] = 3*
 73: 0x11A1 [0x01] GOTO 0x11A4

SUBROUTINE_11A4:
 74: 0x11A4 [0x45] LOAD_SCHEDULED_TASK: Load scheduler "fdo1" with entities [EventEntity, EventEntity], work=[200*, 0*]
 75: 0x11B5 [0x55] WAIT_LOAD_SCHEDULER: Wait for scheduler "fdo1" with entities [EventEntity, EventEntity], work=200*
 76: 0x11C4 [0x52] END_LOAD_SCHEDULER: End scheduler "s077" with entities [EventEntity, EventEntity], work=253*
 77: 0x11D3 [0x52] END_LOAD_SCHEDULER: End scheduler "s079" with entities [EventEntity, EventEntity], work=253*
 78: 0x11E2 [0x52] END_LOAD_SCHEDULER: End scheduler "s078" with entities [EventEntity, EventEntity], work=253*
 79: 0x11F1 [0x01] GOTO 0x0F72
 80: 0x11F4 [0x46] CAMERA_CONTROL: Restore default settings
 81: 0x11F6 [0x1C] WAIT(60* ticks)
 82: 0x11F9 [0x45] LOAD_SCHEDULED_TASK: Load scheduler "fdi1" with entities [EventEntity, EventEntity], work=[200*, 0*]
 83: 0x120A [0x21] END_EVENT
 84: 0x120B [0x00] END_REQSTACK()
```

### Event 209

#### Metadata

| Field        | Value   |
|--------------|---------|
| Entrypoint   | 0x120C  |
| Data Size    | 6 bytes |
| Instructions | 4       |

```
      00 01 02 03 04 05 06 07  08 09 0A 0B 0C 0D 0E 0F
      -- -- -- -- -- -- -- --  -- -- -- -- -- -- -- --
1200:                                      48 8D 80 23              H..#
1210: 21 00                                             !.              
```

#### Opcodes

```
  0: 0x120C [0x48] [System] [8023*]:
    → "<Player> takes in the surrounding scenery. ...The view is breathtaking."
  1: 0x120F [0x23] WAIT_FOR_DIALOG_INTERACTION
  2: 0x1210 [0x21] END_EVENT
  3: 0x1211 [0x00] END_REQSTACK()
```

### Event 210

#### Metadata

| Field        | Value   |
|--------------|---------|
| Entrypoint   | 0x1212  |
| Data Size    | 6 bytes |
| Instructions | 4       |

```
      00 01 02 03 04 05 06 07  08 09 0A 0B 0C 0D 0E 0F
      -- -- -- -- -- -- -- --  -- -- -- -- -- -- -- --
1210:       48 8E 80 23 21 00                             H..#!.        
```

#### Opcodes

```
  0: 0x1212 [0x48] [System] [8024*]:
    → "<Player> thinks back on Balakaf's words. ...Perhaps this is not the best time to record a picture."
  1: 0x1215 [0x23] WAIT_FOR_DIALOG_INTERACTION
  2: 0x1216 [0x21] END_EVENT
  3: 0x1217 [0x00] END_REQSTACK()
```

### Event 211

#### Metadata

| Field        | Value      |
|--------------|------------|
| Entrypoint   | 0x1218     |
| Data Size    | 3119 bytes |
| Instructions | 361        |

```
      00 01 02 03 04 05 06 07  08 09 0A 0B 0C 0D 0E 0F
      -- -- -- -- -- -- -- --  -- -- -- -- -- -- -- --
1210:                          42 5D 15 80 7F 80 45 1E          B]....E.
1220: 80 F8 FF FF 7F F8 FF FF  7F 66 64 6F 31 15 80 55  .........fdo1..U
1230: 1E 80 F8 FF FF 7F F8 FF  FF 7F 66 64 6F 31 46 01  ..........fdo1F.
1240: 38 1F 80 22 01 4E 00 1B  12 04 01 4E 00 1C 12 04  8..".N.....N....
1250: 01 29 05 1B 12 04 01 02  29 05 1C 12 04 01 02 92  .)......).......
1260: 01 1B 12 04 01 92 01 1C  12 04 01 27 05 1B 12 04  ...........'....
1270: 01 03 27 05 1C 12 04 01  03 45 8F 80 F8 FF FF 7F  ..'......E......
1280: F8 FF FF 7F 73 30 37 30  15 80 1C 16 80 45 1E 80  ....s070.....E..
1290: F8 FF FF 7F F8 FF FF 7F  66 64 69 31 15 80 55 1E  ........fdi1..U.
12A0: 80 F8 FF FF 7F F8 FF FF  7F 66 64 69 31 2A 05 1B  .........fdi1*..
12B0: 12 04 01 2A 05 1C 12 04  01 4A 1C 12 04 01 1B 12  ...*.....J......
12C0: 04 01 79 00 1C 12 04 01  1B 12 04 01 1C 3D 80 52  ..y..........=.R
12D0: 8F 80 F8 FF FF 7F F8 FF  FF 7F 73 30 37 30 45 8F  ..........s070E.
12E0: 80 F8 FF FF 7F F8 FF FF  7F 73 30 37 31 15 80 1C  .........s071...
12F0: 78 80 5B 90 80 1B 12 04  01 1B 12 04 01 74 6C 6B  x.[..........tlk
1300: 30 2B 1B 12 04 01 91 80  23 5B 90 80 1B 12 04 01  0+......#[......
1310: 1B 12 04 01 74 6C 6B 31  1C 4A 80 5B 92 80 1C 12  ....tlk1.J.[....
1320: 04 01 1C 12 04 01 74 6C  6B 30 2B 1C 12 04 01 93  ......tlk0+.....
1330: 80 23 52 8F 80 F8 FF FF  7F F8 FF FF 7F 73 30 37  .#R..........s07
1340: 31 45 8F 80 F8 FF FF 7F  F8 FF FF 7F 73 30 37 32  1E..........s072
1350: 15 80 1C 3D 80 4A 1B 12  04 01 1C 12 04 01 1C 4A  ...=.J.........J
1360: 80 5B 90 80 1B 12 04 01  1B 12 04 01 74 6C 6B 30  .[..........tlk0
1370: 2B 1B 12 04 01 94 80 23  1C 78 80 5B 92 80 1C 12  +......#.x.[....
1380: 04 01 1C 12 04 01 74 6C  6B 31 2B 1B 12 04 01 95  ......tlk1+.....
1390: 80 23 5B 90 80 1B 12 04  01 1B 12 04 01 74 6C 6B  .#[..........tlk
13A0: 31 52 8F 80 F8 FF FF 7F  F8 FF FF 7F 73 30 37 32  1R..........s072
13B0: 4E 00 1F 12 04 01 92 01  1F 12 04 01 29 05 1F 12  N...........)...
13C0: 04 01 02 27 05 1F 12 04  01 04 45 8F 80 F8 FF FF  ...'......E.....
13D0: 7F F8 FF FF 7F 73 30 39  37 15 80 1C 96 80 52 8F  .....s097.....R.
13E0: 80 F8 FF FF 7F F8 FF FF  7F 73 30 39 37 45 8F 80  .........s097E..
13F0: F8 FF FF 7F F8 FF FF 7F  73 30 39 38 15 80 1C 16  ........s098....
1400: 80 5B 92 80 1C 12 04 01  1C 12 04 01 74 6C 6B 30  .[..........tlk0
1410: 1C 3D 80 79 00 1C 12 04  01 1F 12 04 01 2B 1C 12  .=.y.........+..
1420: 04 01 97 80 23 5C 00 98  80 5C 01 98 80 1C 16 80  ....#\...\......
1430: 45 1E 80 F8 FF FF 7F F8  FF FF 7F 6F 76 6C 31 15  E..........ovl1.
1440: 80 52 8F 80 F8 FF FF 7F  F8 FF FF 7F 73 30 39 38  .R..........s098
1450: 45 8F 80 F8 FF FF 7F F8  FF FF 7F 73 30 37 33 15  E..........s073.
1460: 80 4A 1B 12 04 01 1F 12  04 01 2A 05 1F 12 04 01  .J........*.....
1470: 1C 47 80 27 05 1F 12 04  01 03 52 8F 80 F8 FF FF  .G.'......R.....
1480: 7F F8 FF FF 7F 73 30 37  33 5B 92 80 1C 12 04 01  .....s073[......
1490: 1C 12 04 01 74 6C 6B 31  45 8F 80 F8 FF FF 7F F8  ....tlk1E.......
14A0: FF FF 7F 73 30 37 36 15  80 2A 05 1F 12 04 01 4A  ...s076..*.....J
14B0: 1F 12 04 01 1B 12 04 01  1C 47 80 52 8F 80 F8 FF  .........G.R....
14C0: FF 7F F8 FF FF 7F 73 30  37 36 45 8F 80 F8 FF FF  ......s076E.....
14D0: 7F F8 FF FF 7F 73 31 31  38 15 80 5B 90 80 1F 12  .....s118..[....
14E0: 04 01 1F 12 04 01 74 6C  6B 30 2B 1F 12 04 01 99  ......tlk0+.....
14F0: 80 23 5B 90 80 1F 12 04  01 1F 12 04 01 74 6C 6B  .#[..........tlk
1500: 31 1C 3D 80 52 8F 80 F8  FF FF 7F F8 FF FF 7F 73  1.=.R..........s
1510: 31 31 38 45 8F 80 F8 FF  FF 7F F8 FF FF 7F 73 30  118E..........s0
1520: 37 37 15 80 5B 90 80 1B  12 04 01 1B 12 04 01 74  77..[..........t
1530: 6C 6B 30 2B 1B 12 04 01  9A 80 23 5B 90 80 1B 12  lk0+......#[....
1540: 04 01 1B 12 04 01 74 6C  6B 31 52 8F 80 F8 FF FF  ......tlk1R.....
1550: 7F F8 FF FF 7F 73 30 37  37 45 8F 80 F8 FF FF 7F  .....s077E......
1560: F8 FF FF 7F 73 30 37 38  15 80 5B 90 80 1F 12 04  ....s078..[.....
1570: 01 1F 12 04 01 74 6C 6B  30 2B 1F 12 04 01 9B 80  .....tlk0+......
1580: 23 5B 90 80 1F 12 04 01  1F 12 04 01 74 6C 6B 31  #[..........tlk1
1590: 9F 9C 80 1F 12 04 01 1B  12 04 01 6D 61 69 6E 15  ...........main.
15A0: 80 52 8F 80 F8 FF FF 7F  F8 FF FF 7F 73 30 37 38  .R..........s078
15B0: 45 8F 80 F8 FF FF 7F F8  FF FF 7F 73 30 39 33 15  E..........s093.
15C0: 80 1C 4A 80 52 8F 80 F8  FF FF 7F F8 FF FF 7F 73  ..J.R..........s
15D0: 30 39 33 45 8F 80 F8 FF  FF 7F F8 FF FF 7F 73 30  093E..........s0
15E0: 37 39 15 80 79 00 1C 12  04 01 1B 12 04 01 29 05  79..y.........).
15F0: 1B 12 04 01 06 4A 1C 12  04 01 1B 12 04 01 1C 3D  .....J.........=
1600: 80 52 8F 80 F8 FF FF 7F  F8 FF FF 7F 73 30 37 39  .R..........s079
1610: 45 8F 80 F8 FF FF 7F F8  FF FF 7F 73 30 39 32 15  E..........s092.
1620: 80 2C 1B 12 04 01 1B 12  04 01 64 65 61 64 1C 47  .,........dead.G
1630: 80 52 8F 80 F8 FF FF 7F  F8 FF FF 7F 73 30 39 32  .R..........s092
1640: 45 8F 80 F8 FF FF 7F F8  FF FF 7F 73 30 37 35 15  E..........s075.
1650: 80 5B 9D 80 1C 12 04 01  1C 12 04 01 64 6F 77 6E  .[..........down
1660: 29 05 1D 12 04 01 02 1C  47 80 45 1E 80 F8 FF FF  ).......G.E.....
1670: 7F F8 FF FF 7F 6F 76 6C  32 15 80 52 8F 80 F8 FF  .....ovl2..R....
1680: FF 7F F8 FF FF 7F 73 30  37 35 45 8F 80 F8 FF FF  ......s075E.....
1690: 7F F8 FF FF 7F 73 31 30  32 15 80 4E 00 1D 12 04  .....s102..N....
16A0: 01 92 01 1D 12 04 01 1C  47 80 27 05 1D 12 04 01  ........G.'.....
16B0: 03 1C 16 80 52 8F 80 F8  FF FF 7F F8 FF FF 7F 73  ....R..........s
16C0: 31 30 32 45 8F 80 F8 FF  FF 7F F8 FF FF 7F 73 30  102E..........s0
16D0: 38 30 15 80 1C 7F 80 52  8F 80 F8 FF FF 7F F8 FF  80.....R........
16E0: FF 7F 73 30 38 30 45 8F  80 F8 FF FF 7F F8 FF FF  ..s080E.........
16F0: 7F 73 30 38 31 15 80 1C  78 80 2A 05 1D 12 04 01  .s081...x.*.....
1700: 79 00 1D 12 04 01 1F 12  04 01 1C 78 80 6E 1D 12  y..........x.n..
1710: 04 01 39 80 99 1D 12 04  01 2B 1D 12 04 01 9E 80  ..9......+......
1720: 23 99 1D 12 04 01 1C 7F  80 52 8F 80 F8 FF FF 7F  #........R......
1730: F8 FF FF 7F 73 30 38 31  45 8F 80 F8 FF FF 7F F8  ....s081E.......
1740: FF FF 7F 73 30 38 32 15  80 5B 90 80 1F 12 04 01  ...s082..[......
1750: 1F 12 04 01 74 6C 6B 30  2B 1F 12 04 01 9F 80 23  ....tlk0+......#
1760: 5B 90 80 1F 12 04 01 1F  12 04 01 74 6C 6B 31 52  [..........tlk1R
1770: 8F 80 F8 FF FF 7F F8 FF  FF 7F 73 30 38 32 45 8F  ..........s082E.
1780: 80 F8 FF FF 7F F8 FF FF  7F 73 30 38 33 15 80 1C  .........s083...
1790: 78 80 6E 1D 12 04 01 A0  80 99 1D 12 04 01 2B 1D  x.n...........+.
17A0: 12 04 01 A1 80 23 99 1D  12 04 01 1C 78 80 52 8F  .....#......x.R.
17B0: 80 F8 FF FF 7F F8 FF FF  7F 73 30 38 33 45 8F 80  .........s083E..
17C0: F8 FF FF 7F F8 FF FF 7F  73 31 30 30 15 80 6E 1D  ........s100..n.
17D0: 12 04 01 29 80 99 1D 12  04 01 2B 1D 12 04 01 A2  ...)......+.....
17E0: 80 23 99 1D 12 04 01 1C  78 80 6E 1D 12 04 01 2B  .#......x.n....+
17F0: 80 99 1D 12 04 01 2B 1D  12 04 01 A3 80 23 99 1D  ......+......#..
1800: 12 04 01 1C 78 80 52 8F  80 F8 FF FF 7F F8 FF FF  ....x.R.........
1810: 7F 73 31 30 30 45 8F 80  F8 FF FF 7F F8 FF FF 7F  .s100E..........
1820: 73 31 31 39 15 80 5B 90  80 1F 12 04 01 1F 12 04  s119..[.........
1830: 01 74 6C 6B 30 2B 1F 12  04 01 A4 80 23 5B 90 80  .tlk0+......#[..
1840: 1F 12 04 01 1F 12 04 01  74 6C 6B 31 52 8F 80 F8  ........tlk1R...
1850: FF FF 7F F8 FF FF 7F 73  31 31 39 45 8F 80 F8 FF  .......s119E....
1860: FF 7F F8 FF FF 7F 73 30  38 34 15 80 1C 4A 80 27  ......s084...J.'
1870: 05 1D 12 04 01 04 1C 4A  80 27 05 1F 12 04 01 05  .......J.'......
1880: 45 1E 80 F8 FF FF 7F F8  FF FF 7F 66 64 6F 32 15  E..........fdo2.
1890: 80 55 1E 80 F8 FF FF 7F  F8 FF FF 7F 66 64 6F 32  .U..........fdo2
18A0: 52 8F 80 F8 FF FF 7F F8  FF FF 7F 73 30 38 34 4E  R..........s084N
18B0: 00 1E 12 04 01 92 01 1E  12 04 01 29 05 1E 12 04  ...........)....
18C0: 01 02 29 05 F0 FF FF 7F  10 4E 01 1D 12 04 01 4E  ..)......N.....N
18D0: 01 1F 12 04 01 27 05 1E  12 04 01 03 45 8F 80 F8  .....'......E...
18E0: FF FF 7F F8 FF FF 7F 73  30 38 36 15 80 45 1E 80  .......s086..E..
18F0: F8 FF FF 7F F8 FF FF 7F  66 64 69 32 15 80 55 1E  ........fdi2..U.
1900: 80 F8 FF FF 7F F8 FF FF  7F 66 64 69 32 2A 05 1E  .........fdi2*..
1910: 12 04 01 1C 16 80 52 8F  80 F8 FF FF 7F F8 FF FF  ......R.........
1920: 7F 73 30 38 36 45 8F 80  F8 FF FF 7F F8 FF FF 7F  .s086E..........
1930: 73 30 39 36 15 80 6E 1E  12 04 01 A5 80 99 1E 12  s096..n.........
1940: 04 01 99 1E 12 04 01 1C  4A 80 52 8F 80 F8 FF FF  ........J.R.....
1950: 7F F8 FF FF 7F 73 30 39  36 45 8F 80 F8 FF FF 7F  .....s096E......
1960: F8 FF FF 7F 73 30 38 37  15 80 29 05 1E 12 04 01  ....s087..).....
1970: 04 4A 1E 12 04 01 1B 12  04 01 1C 3D 80 66 2C 80  .J.........=.f,.
1980: 1E 12 04 01 1E 12 04 01  73 68 61 30 1C 4A 80 4E  ........sha0.J.N
1990: 00 F0 FF FF 7F 80 F0 FF  FF 7F 27 05 F0 FF FF 7F  ..........'.....
19A0: 11 79 00 F0 FF FF 7F 1E  12 04 01 52 8F 80 F8 FF  .y.........R....
19B0: FF 7F F8 FF FF 7F 73 30  38 37 45 8F 80 F8 FF FF  ......s087E.....
