# Event 117

## Metadata

| Field           | Value    |
|-----------------|----------|
| Event Index     | 35/44    |
| Offset          | 0x01E5   |
| Data Size       | 40 bytes |
| Calculated Size | 40 bytes |
| Instructions    | 13       |

```
      00 01 02 03 04 05 06 07  08 09 0A 0B 0C 0D 0E 0F
      -- -- -- -- -- -- -- --  -- -- -- -- -- -- -- --
01E0:                1E F0 FF  FF 7F 6F 70 29 08 22 20       .....op)." 
01F0: 0F 01 0B 1D 19 80 23 1D  1A 80 23 29 08 22 20 0F  ......#...#)." .
0200: 01 0D 29 08 22 20 0F 01  0E 20 00 21 00           ..)." ... .!.   
```

## Opcodes

```
  0: 0x01E5 [0x1E] EventEntity looks at LocalPlayer and starts talking
  1: 0x01EA [0x6F] WAIT_FRAME_DELAY: Yield until WaitTime reaches zero
  2: 0x01EB [0x70] WAIT_ENTITY_RENDER_FLAG: Wait while EventEntity->Render.Flags3 bit 2 is set (cancel turn if not)
  3: 0x01EC [0x29] REQ_SET_WAIT(priority=0x08, entity_id=Shaz Norem (ID: 17768482/0x010F2022), tag_num=0x0B)
  4: 0x01F3 [0x1D] PRINT_EVENT_MESSAGE(message_id=203*)
    → "Just because they are ministers doesn't mean we can allow them do as they please.\u007F1\u0000\u0007"
  5: 0x01F6 [0x23] WAIT_FOR_DIALOG_INTERACTION
  6: 0x01F7 [0x1D] PRINT_EVENT_MESSAGE(message_id=204*)
    → "Perhaps it is time for the Sibyl Guards to take action and gatherrr up all the traitors in Windurst.\u007F1\u0000\u0007"
  7: 0x01FA [0x23] WAIT_FOR_DIALOG_INTERACTION
  8: 0x01FB [0x29] REQ_SET_WAIT(priority=0x08, entity_id=Shaz Norem (ID: 17768482/0x010F2022), tag_num=0x0D)
  9: 0x0202 [0x29] REQ_SET_WAIT(priority=0x08, entity_id=Shaz Norem (ID: 17768482/0x010F2022), tag_num=0x0E)
 10: 0x0209 [0x20] SET_CLI_EVENT_UC_FLAG: Unlock player control
 11: 0x020B [0x21] END_EVENT
 12: 0x020C [0x00] END_REQSTACK()
```
