# Event 365

## Metadata

| Field           | Value    |
|-----------------|----------|
| Event Index     | 41/44    |
| Offset          | 0x02D5   |
| Data Size       | 40 bytes |
| Calculated Size | 40 bytes |
| Instructions    | 13       |

```
      00 01 02 03 04 05 06 07  08 09 0A 0B 0C 0D 0E 0F
      -- -- -- -- -- -- -- --  -- -- -- -- -- -- -- --
02D0:                1E F0 FF  FF 7F 6F 70 29 08 22 20       .....op)." 
02E0: 0F 01 0B 1D 25 80 23 1D  26 80 23 29 08 22 20 0F  ....%.#.&.#)." .
02F0: 01 0D 29 08 22 20 0F 01  0E 20 00 21 00           ..)." ... .!.   
```

## Opcodes

```
  0: 0x02D5 [0x1E] EventEntity looks at LocalPlayer and starts talking
  1: 0x02DA [0x6F] WAIT_FRAME_DELAY: Yield until WaitTime reaches zero
  2: 0x02DB [0x70] WAIT_ENTITY_RENDER_FLAG: Wait while EventEntity->Render.Flags3 bit 2 is set (cancel turn if not)
  3: 0x02DC [0x29] REQ_SET_WAIT(priority=0x08, entity_id=Shaz Norem (ID: 17768482/0x010F2022), tag_num=0x0B)
  4: 0x02E3 [0x1D] PRINT_EVENT_MESSAGE(message_id=8311*)
    → "I rrrecognized the stench that the bearer of darkness exuded...\u007F1\u0000\u0007"
  5: 0x02E6 [0x23] WAIT_FOR_DIALOG_INTERACTION
  6: 0x02E7 [0x1D] PRINT_EVENT_MESSAGE(message_id=8312*)
    → "It was the smell of the dead...\u0007That putrid miasma has no place in this world.\u007F1\u0000\u0007"
  7: 0x02EA [0x23] WAIT_FOR_DIALOG_INTERACTION
  8: 0x02EB [0x29] REQ_SET_WAIT(priority=0x08, entity_id=Shaz Norem (ID: 17768482/0x010F2022), tag_num=0x0D)
  9: 0x02F2 [0x29] REQ_SET_WAIT(priority=0x08, entity_id=Shaz Norem (ID: 17768482/0x010F2022), tag_num=0x0E)
 10: 0x02F9 [0x20] SET_CLI_EVENT_UC_FLAG: Unlock player control
 11: 0x02FB [0x21] END_EVENT
 12: 0x02FC [0x00] END_REQSTACK()
```
