# Event 383

## Metadata

| Field           | Value    |
|-----------------|----------|
| Event Index     | 43/44    |
| Offset          | 0x0325   |
| Data Size       | 40 bytes |
| Calculated Size | 40 bytes |
| Instructions    | 13       |

```
      00 01 02 03 04 05 06 07  08 09 0A 0B 0C 0D 0E 0F
      -- -- -- -- -- -- -- --  -- -- -- -- -- -- -- --
0320:                1E F0 FF  FF 7F 6F 70 29 08 22 20       .....op)." 
0330: 0F 01 0B 1D 29 80 23 1D  2A 80 23 29 08 22 20 0F  ....).#.*.#)." .
0340: 01 0D 29 08 22 20 0F 01  0E 20 00 21 00           ..)." ... .!.   
```

## Opcodes

```
  0: 0x0325 [0x1E] EventEntity looks at LocalPlayer and starts talking
  1: 0x032A [0x6F] WAIT_FRAME_DELAY: Yield until WaitTime reaches zero
  2: 0x032B [0x70] WAIT_ENTITY_RENDER_FLAG: Wait while EventEntity->Render.Flags3 bit 2 is set (cancel turn if not)
  3: 0x032C [0x29] REQ_SET_WAIT(priority=0x08, entity_id=Shaz Norem (ID: 17768482/0x010F2022), tag_num=0x0B)
  4: 0x0333 [0x1D] PRINT_EVENT_MESSAGE(message_id=8445*)
    → "Why do the Yagudo have to stick their beaks in at a time like this!?\u007F1\u0000\u0007"
  5: 0x0336 [0x23] WAIT_FOR_DIALOG_INTERACTION
  6: 0x0337 [0x1D] PRINT_EVENT_MESSAGE(message_id=8446*)
    → "Without the Star Sibyl here, we can't send an apology or even a declaration of war if it comes to that!\u007F1\u0000\u0007"
  7: 0x033A [0x23] WAIT_FOR_DIALOG_INTERACTION
  8: 0x033B [0x29] REQ_SET_WAIT(priority=0x08, entity_id=Shaz Norem (ID: 17768482/0x010F2022), tag_num=0x0D)
  9: 0x0342 [0x29] REQ_SET_WAIT(priority=0x08, entity_id=Shaz Norem (ID: 17768482/0x010F2022), tag_num=0x0E)
 10: 0x0349 [0x20] SET_CLI_EVENT_UC_FLAG: Unlock player control
 11: 0x034B [0x21] END_EVENT
 12: 0x034C [0x00] END_REQSTACK()
```
