# Event 518

## Metadata

| Field           | Value    |
|-----------------|----------|
| Event Index     | 9/25     |
| Offset          | 0x004D   |
| Data Size       | 43 bytes |
| Calculated Size | 43 bytes |
| Instructions    | 13       |

```
      00 01 02 03 04 05 06 07  08 09 0A 0B 0C 0D 0E 0F
      -- -- -- -- -- -- -- --  -- -- -- -- -- -- -- --
0040:                                         1E F0 FF               ...
0050: FF 7F 6F 70 66 08 80 F8  FF FF 7F F8 FF FF 7F 74  ..opf..........t
0060: 6C 6B 30 1D 09 80 23 1C  0A 80 1D 0B 80 23 5E 69  lk0...#......#^i
0070: 64 6C 30 1C 0A 80 21 00                           dl0...!.        
```

## Opcodes

```
  0: 0x004D [0x1E] EventEntity looks at LocalPlayer and starts talking
  1: 0x0052 [0x6F] WAIT_FRAME_DELAY: Yield until WaitTime reaches zero
  2: 0x0053 [0x70] WAIT_ENTITY_RENDER_FLAG: Wait while EventEntity->Render.Flags3 bit 2 is set (cancel turn if not)
  3: 0x0054 [0x66] LOAD_EXT_SCHEDULER_MAIN(work_offset=20*, entity1=EventEntity, entity2=EventEntity, action="tlk0")
  4: 0x0063 [0x1D] PRINT_EVENT_MESSAGE(message_id=7214*)
    → "Royal Knight Aramaviont reporting! I've returned from Windurst. Maybe it's just me, but the wee folk there are hiding something, I know it!\u007F1\u0000\u0007"
  5: 0x0066 [0x23] WAIT_FOR_DIALOG_INTERACTION
  6: 0x0067 [0x1C] WAIT(30* ticks)
  7: 0x006A [0x1D] PRINT_EVENT_MESSAGE(message_id=7215*)
    → "Why else would they let Yagudo run wild over the countryside? I'd lock those nasty feathered fowl up in cages if I were them!\u007F1\u0000\u0007"
  8: 0x006D [0x23] WAIT_FOR_DIALOG_INTERACTION
  9: 0x006E [0x5E] EventEntity goes idle (kills current action) (animation: "idl0")
 10: 0x0073 [0x1C] WAIT(30* ticks)
 11: 0x0076 [0x21] END_EVENT
 12: 0x0077 [0x00] END_REQSTACK()
```
