# 17056408 - Wawaroon

## Common Data

| Field            | Value                       |
|------------------|-----------------------------|
| Zone             | Aydeewa Subterrane (ID: 68) |
| Block Size       | 2328 bytes                  |
| Total Events     | 88                          |
| References Count | 108                         |

## List of Events

| Event ID                   | Entrypoint   |   Size |   Instructions |
|----------------------------|--------------|--------|----------------|
| [65535](#event-65535)      | 0x0000       |      1 |              1 |
| [65535.1](#event-655351)   | 0x0001       |      1 |              1 |
| [65535.2](#event-655352)   | 0x0002       |     18 |              4 |
| [65535.3](#event-655353)   | 0x0014       |     10 |              2 |
| [65535.4](#event-655354)   | 0x001E       |      9 |              3 |
| [65535.5](#event-655355)   | 0x0027       |      9 |              3 |
| [65535.6](#event-655356)   | 0x0030       |     10 |              2 |
| [65535.7](#event-655357)   | 0x003A       |     10 |              2 |
| [7](#event-7)              | 0x0044       |      1 |              1 |
| [8](#event-8)              | 0x0045       |      1 |              1 |
| [12](#event-12)            | 0x0046       |      1 |              1 |
| [65535.8](#event-655358)   | 0x0047       |     12 |              3 |
| [65535.9](#event-655359)   | 0x0053       |     12 |              3 |
| [65535.10](#event-6553510) | 0x005F       |     16 |              5 |
| [65535.11](#event-6553511) | 0x006F       |     10 |              2 |
| [65535.12](#event-6553512) | 0x0079       |     10 |              2 |
| [10](#event-10)            | 0x0083       |      1 |              1 |
| [11](#event-11)            | 0x0084       |      1 |              1 |
| [65535.13](#event-6553513) | 0x0085       |     12 |              3 |
| [65535.14](#event-6553514) | 0x0091       |     14 |              3 |
| [65535.15](#event-6553515) | 0x009F       |     14 |              3 |
| [65535.16](#event-6553516) | 0x00AD       |     12 |              3 |
| [65535.17](#event-6553517) | 0x00B9       |     15 |              5 |
| [65535.18](#event-6553518) | 0x00C8       |     25 |              7 |
| [65535.19](#event-6553519) | 0x00E1       |     22 |              8 |
| [65535.20](#event-6553520) | 0x00F7       |     17 |              6 |
| [65535.21](#event-6553521) | 0x0108       |     15 |              5 |
| [65535.22](#event-6553522) | 0x0117       |     57 |             19 |
| [65535.23](#event-6553523) | 0x0150       |     10 |              3 |
| [65535.24](#event-6553524) | 0x015A       |     20 |              6 |
| [65535.25](#event-6553525) | 0x016E       |     26 |              8 |
| [65535.26](#event-6553526) | 0x0188       |     28 |              4 |
| [65535.27](#event-6553527) | 0x01A4       |     14 |              2 |
| [65535.28](#event-6553528) | 0x01B2       |     16 |              2 |
| [65535.29](#event-6553529) | 0x01C2       |     26 |              4 |
| [65535.30](#event-6553530) | 0x01DC       |     28 |              4 |
| [65535.31](#event-6553531) | 0x01F8       |     14 |              2 |
| [65535.32](#event-6553532) | 0x0206       |     16 |              2 |
| [65535.33](#event-6553533) | 0x0216       |     26 |              4 |
| [65535.34](#event-6553534) | 0x0230       |     28 |              4 |
| [65535.35](#event-6553535) | 0x024C       |     26 |              4 |
| [65535.36](#event-6553536) | 0x0266       |     28 |              4 |
| [65535.37](#event-6553537) | 0x0282       |     14 |              2 |
| [65535.38](#event-6553538) | 0x0290       |     16 |              2 |
| [65535.39](#event-6553539) | 0x02A0       |     26 |              4 |
| [65535.40](#event-6553540) | 0x02BA       |     28 |              4 |
| [65535.41](#event-6553541) | 0x02D6       |     14 |              2 |
| [65535.42](#event-6553542) | 0x02E4       |     16 |              2 |
| [65535.43](#event-6553543) | 0x02F4       |     26 |              4 |
| [65535.44](#event-6553544) | 0x030E       |     28 |              4 |
| [65535.45](#event-6553545) | 0x032A       |     14 |              2 |
| [65535.46](#event-6553546) | 0x0338       |     16 |              2 |
| [65535.47](#event-6553547) | 0x0348       |     26 |              4 |
| [65535.48](#event-6553548) | 0x0362       |     28 |              4 |
| [65535.49](#event-6553549) | 0x037E       |     26 |              4 |
| [65535.50](#event-6553550) | 0x0398       |     28 |              4 |
| [65535.51](#event-6553551) | 0x03B4       |     26 |              4 |
| [65535.52](#event-6553552) | 0x03CE       |     28 |              4 |
| [65535.53](#event-6553553) | 0x03EA       |     14 |              2 |
| [65535.54](#event-6553554) | 0x03F8       |     16 |              2 |
| [65535.55](#event-6553555) | 0x0408       |     26 |              4 |
| [65535.56](#event-6553556) | 0x0422       |     16 |              2 |
| [65535.57](#event-6553557) | 0x0432       |     14 |              2 |
| [65535.58](#event-6553558) | 0x0440       |     16 |              2 |
| [65535.59](#event-6553559) | 0x0450       |     14 |              2 |
| [65535.60](#event-6553560) | 0x045E       |     16 |              2 |
| [65535.61](#event-6553561) | 0x046E       |     14 |              2 |
| [65535.62](#event-6553562) | 0x047C       |     16 |              2 |
| [65535.63](#event-6553563) | 0x048C       |     14 |              2 |
| [65535.64](#event-6553564) | 0x049A       |     16 |              2 |
| [65535.65](#event-6553565) | 0x04AA       |     14 |              2 |
| [65535.66](#event-6553566) | 0x04B8       |     16 |              2 |
| [65535.67](#event-6553567) | 0x04C8       |     14 |              2 |
| [65535.68](#event-6553568) | 0x04D6       |     16 |              2 |
| [65535.69](#event-6553569) | 0x04E6       |     14 |              2 |
| [65535.70](#event-6553570) | 0x04F4       |     16 |              2 |
| [65535.71](#event-6553571) | 0x0504       |     14 |              2 |
| [65535.72](#event-6553572) | 0x0512       |     41 |              5 |
| [65535.73](#event-6553573) | 0x053B       |     16 |              2 |
| [65535.74](#event-6553574) | 0x054B       |     14 |              2 |
| [36](#event-36)            | 0x0559       |      7 |              2 |
| [65535.75](#event-6553575) | 0x0560       |     57 |             13 |
| [40](#event-40)            | 0x0599       |      7 |              2 |
| [41](#event-41)            | 0x05A0       |      7 |              2 |
| [65535.76](#event-6553576) | 0x05A7       |     15 |              5 |
| [65535.77](#event-6553577) | 0x05B6       |     15 |              5 |
| [65535.78](#event-6553578) | 0x05C5       |     32 |             10 |
| [65535.79](#event-6553579) | 0x05E5       |     17 |              6 |

## DAT References (imed_data)

|   Index | Hex Value   |   Dec Value |
|---------|-------------|-------------|
|       0 | 0x0000      |           0 |
|       1 | 0x0001      |           1 |
|       2 | 0x0080      |         128 |
|       3 | 0xFFF9B867  |  4294555751 |
|       4 | 0xFFF95EE2  |  4294532834 |
|       5 | 0x0478      |        1144 |
|       6 | 0x0078      |         120 |
|       7 | 0xFFF9AF4C  |  4294553420 |
|       8 | 0xFFF948B2  |  4294527154 |
|       9 | 0x0C11      |        3089 |
|      10 | 0x000D      |          13 |
|      11 | 0xFFF9BDCA  |  4294557130 |
|      12 | 0xFFF94871  |  4294527089 |
|      13 | 0x0C0F      |        3087 |
|      14 | 0xFFF9C8B0  |  4294559920 |
|      15 | 0xFFF93F1F  |  4294524703 |
|      16 | 0x10CC      |        4300 |
|      17 | 0x0ED6      |        3798 |
|      18 | 0xFFF9CFF1  |  4294561777 |
|      19 | 0xFFF94B03  |  4294527747 |
|      20 | 0x19B3      |        6579 |
|      21 | 0x05AB      |        1451 |
|      22 | 0xFFFC0037  |  4294705207 |
|      23 | 0xFFFFB684  |  4294948484 |
|      24 | 0x5F51      |       24401 |
|      25 | 0x09E2      |        2530 |
|      26 | 0x06C7      |        1735 |
|      27 | 0xFFFB0413  |  4294640659 |
|      28 | 0xFFFFB152  |  4294947154 |
|      29 | 0x8968      |       35176 |
|      30 | 0x06F3      |        1779 |
|      31 | 0x06C8      |        1736 |
|      32 | 0xFFFB0BF8  |  4294642680 |
|      33 | 0xFFFFB3F7  |  4294947831 |
|      34 | 0x8B5C      |       35676 |
|      35 | 0xFFFBCADD  |  4294691549 |
|      36 | 0xFFFFE907  |  4294961415 |
|      37 | 0x9018      |       36888 |
|      38 | 0x0E8A      |        3722 |
|      39 | 0x000B      |          11 |
|      40 | 0xFFFBC283  |  4294689411 |
|      41 | 0xFFFFF348  |  4294964040 |
|      42 | 0x8F1D      |       36637 |
|      43 | 0x0026      |          38 |
|      44 | 0xFFFBB231  |  4294685233 |
|      45 | 0x0139      |         313 |
|      46 | 0x8E93      |       36499 |
|      47 | 0xFFFB99BC  |  4294678972 |
|      48 | 0x0E5A      |        3674 |
|      49 | 0x9070      |       36976 |
|      50 | 0x0028      |          40 |
|      51 | 0xFFFB0E85  |  4294643333 |
|      52 | 0xFFFFB9DD  |  4294949341 |
|      53 | 0x8B90      |       35728 |
|      54 | 0xFFFB2032  |  4294647858 |
|      55 | 0xFFFFD4A3  |  4294956195 |
|      56 | 0x8FB4      |       36788 |
|      57 | 0x000A      |          10 |
|      58 | 0xFFFB010C  |  4294639884 |
|      59 | 0xFFFFB193  |  4294947219 |
|      60 | 0x892F      |       35119 |
|      61 | 0x002D      |          45 |
|      62 | 0xFFFB0193  |  4294640019 |
|      63 | 0xFFFFAEFF  |  4294946559 |
|      64 | 0x894B      |       35147 |
|      65 | 0xFFFB27C2  |  4294649794 |
|      66 | 0xFFFF577A  |  4294924154 |
|      67 | 0x8F13      |       36627 |
|      68 | 0xFFFB9D92  |  4294679954 |
|      69 | 0xFFFF5E1D  |  4294925853 |
|      70 | 0x9049      |       36937 |
|      71 | 0xFFFBA895  |  4294682773 |
|      72 | 0xFFFF6C32  |  4294929458 |
|      73 | 0x8F8E      |       36750 |
|      74 | 0x034A      |         842 |
|      75 | 0x034B      |         843 |
|      76 | 0x0371      |         881 |
|      77 | 0x0397      |         919 |
|      78 | 0x003C      |          60 |
|      79 | 0x03DE      |         990 |
|      80 | 0xFFF9CC52  |  4294560850 |
|      81 | 0xFFF9447C  |  4294526076 |
|      82 | 0x1805      |        6149 |
|      83 | 0xFFF9E8B6  |  4294568118 |
|      84 | 0xFFF945F1  |  4294526449 |
|      85 | 0x250E      |        9486 |
|      86 | 0xFFFA4489  |  4294591625 |
|      87 | 0xFFF94A67  |  4294527591 |
|      88 | 0x3A48      |       14920 |
|      89 | 0xFFFA5F97  |  4294598551 |
|      90 | 0xFFF9333B  |  4294521659 |
|      91 | 0x39E8      |       14824 |
|      92 | 0x0BB8      |        3000 |
|      93 | 0xFFFA4FCD  |  4294594509 |
|      94 | 0xFFF94126  |  4294525222 |
|      95 | 0x3A28      |       14888 |
|      96 | 0xFFFA4978  |  4294592888 |
|      97 | 0xFFF94209  |  4294525449 |
|      98 | 0x3A84      |       14980 |
|      99 | 0xFFFA6C02  |  4294601730 |
|     100 | 0xFFF9557C  |  4294530428 |
|     101 | 0x39DF      |       14815 |
|     102 | 0xFFFA7CD7  |  4294606039 |
|     103 | 0xFFF9688E  |  4294535310 |
|     104 | 0x3A90      |       14992 |
|     105 | 0xFFFADD76  |  4294630774 |
|     106 | 0xFFF9A4CE  |  4294550734 |
|     107 | 0x3661      |       13921 |

## Events

### Event 65535

#### Metadata

| Field        | Value   |
|--------------|---------|
| Entrypoint   | 0x0000  |
| Data Size    | 1 bytes |
| Instructions | 1       |

```
      00 01 02 03 04 05 06 07  08 09 0A 0B 0C 0D 0E 0F
      -- -- -- -- -- -- -- --  -- -- -- -- -- -- -- --
0000: 00                                                .               
```

#### Opcodes

```
  0: 0x0000 [0x00] END_REQSTACK()
```

### Event 65535.1

#### Metadata

| Field        | Value   |
|--------------|---------|
| Entrypoint   | 0x0001  |
| Data Size    | 1 bytes |
| Instructions | 1       |

```
      00 01 02 03 04 05 06 07  08 09 0A 0B 0C 0D 0E 0F
      -- -- -- -- -- -- -- --  -- -- -- -- -- -- -- --
0000:    00                                              .              
```

#### Opcodes

```
  0: 0x0001 [0x00] END_REQSTACK()
```

### Event 65535.2

#### Metadata

| Field        | Value    |
|--------------|----------|
| Entrypoint   | 0x0002   |
| Data Size    | 18 bytes |
| Instructions | 4        |

```
      00 01 02 03 04 05 06 07  08 09 0A 0B 0C 0D 0E 0F
      -- -- -- -- -- -- -- --  -- -- -- -- -- -- -- --
0000:       22 00 2F 00 F8 FF  FF 7F 6C F8 FF FF 7F 00    "./.....l.....
0010: 80 01 80 00                                       ....            
```

#### Opcodes

```
  0: 0x0002 [0x22] ENTITY_HIDE_FLAG(enabled=0x00)
  1: 0x0004 [0x2F] EventEntity->Render.Flags0 &= ~0x80000 // Bit 19
  2: 0x000A [0x6C] FADE_ENTITY_COLOR(entity_id=EventEntity, end_alpha=0*, fade_time=1*)
  3: 0x0013 [0x00] END_REQSTACK()
```

### Event 65535.3

#### Metadata

| Field        | Value    |
|--------------|----------|
| Entrypoint   | 0x0014   |
| Data Size    | 10 bytes |
| Instructions | 2        |

```
      00 01 02 03 04 05 06 07  08 09 0A 0B 0C 0D 0E 0F
      -- -- -- -- -- -- -- --  -- -- -- -- -- -- -- --
0010:             6C F8 FF FF  7F 02 80 01 80 00            l.........  
```

#### Opcodes

```
  0: 0x0014 [0x6C] FADE_ENTITY_COLOR(entity_id=EventEntity, end_alpha=128*, fade_time=1*)
  1: 0x001D [0x00] END_REQSTACK()
```

### Event 65535.4

#### Metadata

| Field        | Value   |
|--------------|---------|
| Entrypoint   | 0x001E  |
| Data Size    | 9 bytes |
| Instructions | 3       |

```
      00 01 02 03 04 05 06 07  08 09 0A 0B 0C 0D 0E 0F
      -- -- -- -- -- -- -- --  -- -- -- -- -- -- -- --
0010:                                            22 00                ".
0020: 2F 00 F8 FF FF 7F 00                              /......         
```

#### Opcodes

```
  0: 0x001E [0x22] ENTITY_HIDE_FLAG(enabled=0x00)
  1: 0x0020 [0x2F] EventEntity->Render.Flags0 &= ~0x80000 // Bit 19
  2: 0x0026 [0x00] END_REQSTACK()
```

### Event 65535.5

#### Metadata

| Field        | Value   |
|--------------|---------|
| Entrypoint   | 0x0027  |
| Data Size    | 9 bytes |
| Instructions | 3       |

```
      00 01 02 03 04 05 06 07  08 09 0A 0B 0C 0D 0E 0F
      -- -- -- -- -- -- -- --  -- -- -- -- -- -- -- --
0020:                      22  01 2F 01 F8 FF FF 7F 00         "./......
```

#### Opcodes

```
  0: 0x0027 [0x22] ENTITY_HIDE_FLAG(enabled=0x01)
  1: 0x0029 [0x2F] EventEntity->Render.Flags0 |= 0x80000 // Bit 19
  2: 0x002F [0x00] END_REQSTACK()
```

### Event 65535.6

#### Metadata

| Field        | Value    |
|--------------|----------|
| Entrypoint   | 0x0030   |
| Data Size    | 10 bytes |
| Instructions | 2        |

```
      00 01 02 03 04 05 06 07  08 09 0A 0B 0C 0D 0E 0F
      -- -- -- -- -- -- -- --  -- -- -- -- -- -- -- --
0030: 6C F8 FF FF 7F 00 80 01  80 00                    l.........      
```

#### Opcodes

```
  0: 0x0030 [0x6C] FADE_ENTITY_COLOR(entity_id=EventEntity, end_alpha=0*, fade_time=1*)
  1: 0x0039 [0x00] END_REQSTACK()
```

### Event 65535.7

#### Metadata

| Field        | Value    |
|--------------|----------|
| Entrypoint   | 0x003A   |
| Data Size    | 10 bytes |
| Instructions | 2        |

```
      00 01 02 03 04 05 06 07  08 09 0A 0B 0C 0D 0E 0F
      -- -- -- -- -- -- -- --  -- -- -- -- -- -- -- --
0030:                                6C F8 FF FF 7F 02            l.....
0040: 80 01 80 00                                       ....            
```

#### Opcodes

```
  0: 0x003A [0x6C] FADE_ENTITY_COLOR(entity_id=EventEntity, end_alpha=128*, fade_time=1*)
  1: 0x0043 [0x00] END_REQSTACK()
```

### Event 7

#### Metadata

| Field        | Value   |
|--------------|---------|
| Entrypoint   | 0x0044  |
| Data Size    | 1 bytes |
| Instructions | 1       |

```
      00 01 02 03 04 05 06 07  08 09 0A 0B 0C 0D 0E 0F
      -- -- -- -- -- -- -- --  -- -- -- -- -- -- -- --
0040:             00                                        .           
```

#### Opcodes

```
  0: 0x0044 [0x00] END_REQSTACK()
```

### Event 8

#### Metadata

| Field        | Value   |
|--------------|---------|
| Entrypoint   | 0x0045  |
| Data Size    | 1 bytes |
| Instructions | 1       |

```
      00 01 02 03 04 05 06 07  08 09 0A 0B 0C 0D 0E 0F
      -- -- -- -- -- -- -- --  -- -- -- -- -- -- -- --
0040:                00                                      .          
```

#### Opcodes

```
  0: 0x0045 [0x00] END_REQSTACK()
```

### Event 12

#### Metadata

| Field        | Value   |
|--------------|---------|
| Entrypoint   | 0x0046  |
| Data Size    | 1 bytes |
| Instructions | 1       |

```
      00 01 02 03 04 05 06 07  08 09 0A 0B 0C 0D 0E 0F
      -- -- -- -- -- -- -- --  -- -- -- -- -- -- -- --
0040:                   00                                    .         
```

#### Opcodes

```
  0: 0x0046 [0x00] END_REQSTACK()
```

### Event 65535.8

#### Metadata

| Field        | Value    |
|--------------|----------|
| Entrypoint   | 0x0047   |
| Data Size    | 12 bytes |
| Instructions | 3        |

```
      00 01 02 03 04 05 06 07  08 09 0A 0B 0C 0D 0E 0F
      -- -- -- -- -- -- -- --  -- -- -- -- -- -- -- --
0040:                      33  01 37 03 80 04 80 05 80         3.7......
0050: 06 80 00                                          ...             
```

#### Opcodes

```
  0: 0x0047 [0x33] EventEntity->Render.Flags0 |= 0x200000 // Bit 21 (flag=0x01)
  1: 0x0049 [0x37] UPDATE_EVENT_POSITION_AND_DIR: x=-411.545*, z=-434.462*, y=1.144*, direction=10.5°*
  2: 0x0052 [0x00] END_REQSTACK()
```

### Event 65535.9

#### Metadata

| Field        | Value    |
|--------------|----------|
| Entrypoint   | 0x0053   |
| Data Size    | 12 bytes |
| Instructions | 3        |

```
      00 01 02 03 04 05 06 07  08 09 0A 0B 0C 0D 0E 0F
      -- -- -- -- -- -- -- --  -- -- -- -- -- -- -- --
0050:          33 01 37 07 80  08 80 09 80 01 80 00        3.7......... 
```

#### Opcodes

```
  0: 0x0053 [0x33] EventEntity->Render.Flags0 |= 0x200000 // Bit 21 (flag=0x01)
  1: 0x0055 [0x37] UPDATE_EVENT_POSITION_AND_DIR: x=-413.876*, z=-440.142*, y=3.089*, direction=0.1°*
  2: 0x005E [0x00] END_REQSTACK()
```

### Event 65535.10

#### Metadata

| Field        | Value    |
|--------------|----------|
| Entrypoint   | 0x005F   |
| Data Size    | 16 bytes |
| Instructions | 5        |

```
      00 01 02 03 04 05 06 07  08 09 0A 0B 0C 0D 0E 0F
      -- -- -- -- -- -- -- --  -- -- -- -- -- -- -- --
0050:                                               32                 2
0060: 0A 80 5A 00 0B 80 0C 80  0D 80 5A 01 33 00 00     ..Z.......Z.3.. 
```

#### Opcodes

```
  0: 0x005F [0x32] ExtData[1]->MainSpeed = 13* * 0.1
  1: 0x0062 [0x5A] UPDATE_EVENT_POSITION: Set EventEntity MovePosition to X=-410.166*, Z=-440.207*, Y=3.087*
  2: 0x006A [0x5A] UPDATE_EVENT_POSITION: Move EventEntity incrementally towards MovePosition
  3: 0x006C [0x33] EventEntity->Render.Flags0 &= ~ 0x200000 // Bit 21 (flag=0x00)
  4: 0x006E [0x00] END_REQSTACK()
```

### Event 65535.11

#### Metadata

| Field        | Value    |
|--------------|----------|
| Entrypoint   | 0x006F   |
| Data Size    | 10 bytes |
| Instructions | 2        |

```
      00 01 02 03 04 05 06 07  08 09 0A 0B 0C 0D 0E 0F
      -- -- -- -- -- -- -- --  -- -- -- -- -- -- -- --
0060:                                               37                 7
0070: 0E 80 0F 80 10 80 11 80  00                       .........       
```

#### Opcodes

```
  0: 0x006F [0x37] UPDATE_EVENT_POSITION_AND_DIR: x=-407.376*, z=-442.593*, y=4.300*, direction=333.8°*
  1: 0x0078 [0x00] END_REQSTACK()
```

### Event 65535.12

#### Metadata

| Field        | Value    |
|--------------|----------|
| Entrypoint   | 0x0079   |
| Data Size    | 10 bytes |
| Instructions | 2        |

```
      00 01 02 03 04 05 06 07  08 09 0A 0B 0C 0D 0E 0F
      -- -- -- -- -- -- -- --  -- -- -- -- -- -- -- --
0070:                             37 12 80 13 80 14 80           7......
0080: 15 80 00                                          ...             
```

#### Opcodes

```
  0: 0x0079 [0x37] UPDATE_EVENT_POSITION_AND_DIR: x=-405.519*, z=-439.549*, y=6.579*, direction=127.5°*
  1: 0x0082 [0x00] END_REQSTACK()
```

### Event 10

#### Metadata

| Field        | Value   |
|--------------|---------|
| Entrypoint   | 0x0083  |
| Data Size    | 1 bytes |
| Instructions | 1       |

```
      00 01 02 03 04 05 06 07  08 09 0A 0B 0C 0D 0E 0F
      -- -- -- -- -- -- -- --  -- -- -- -- -- -- -- --
0080:          00                                          .            
```

#### Opcodes

```
  0: 0x0083 [0x00] END_REQSTACK()
```

### Event 11

#### Metadata

| Field        | Value   |
|--------------|---------|
| Entrypoint   | 0x0084  |
| Data Size    | 1 bytes |
| Instructions | 1       |

```
      00 01 02 03 04 05 06 07  08 09 0A 0B 0C 0D 0E 0F
      -- -- -- -- -- -- -- --  -- -- -- -- -- -- -- --
0080:             00                                        .           
```

#### Opcodes

```
  0: 0x0084 [0x00] END_REQSTACK()
```

### Event 65535.13

#### Metadata

| Field        | Value    |
|--------------|----------|
| Entrypoint   | 0x0085   |
| Data Size    | 12 bytes |
| Instructions | 3        |

```
      00 01 02 03 04 05 06 07  08 09 0A 0B 0C 0D 0E 0F
      -- -- -- -- -- -- -- --  -- -- -- -- -- -- -- --
0080:                33 01 37  16 80 17 80 18 80 19 80       3.7........
0090: 00                                                .               
```

#### Opcodes

```
  0: 0x0085 [0x33] EventEntity->Render.Flags0 |= 0x200000 // Bit 21 (flag=0x01)
  1: 0x0087 [0x37] UPDATE_EVENT_POSITION_AND_DIR: x=-262.089*, z=-18.812*, y=24.401*, direction=222.4°*
  2: 0x0090 [0x00] END_REQSTACK()
```

### Event 65535.14

#### Metadata

| Field        | Value    |
|--------------|----------|
| Entrypoint   | 0x0091   |
| Data Size    | 14 bytes |
| Instructions | 3        |

```
      00 01 02 03 04 05 06 07  08 09 0A 0B 0C 0D 0E 0F
      -- -- -- -- -- -- -- --  -- -- -- -- -- -- -- --
0090:    B6 00 1A 80 37 1B 80  1C 80 1D 80 1E 80 00      ....7......... 
```

#### Opcodes

```
  0: 0x0091 [0xB6] ENTITY_APPEARANCE_HANDLER(case=Hair style, value=1735*)
  1: 0x0095 [0x37] UPDATE_EVENT_POSITION_AND_DIR: x=-326.637*, z=-20.142*, y=35.176*, direction=156.4°*
  2: 0x009E [0x00] END_REQSTACK()
```

### Event 65535.15

#### Metadata

| Field        | Value    |
|--------------|----------|
| Entrypoint   | 0x009F   |
| Data Size    | 14 bytes |
| Instructions | 3        |

```
      00 01 02 03 04 05 06 07  08 09 0A 0B 0C 0D 0E 0F
      -- -- -- -- -- -- -- --  -- -- -- -- -- -- -- --
0090:                                               B6                 .
00A0: 00 1F 80 37 20 80 21 80  22 80 1E 80 00           ...7 .!."....   
```

#### Opcodes

```
  0: 0x009F [0xB6] ENTITY_APPEARANCE_HANDLER(case=Hair style, value=1736*)
  1: 0x00A3 [0x37] UPDATE_EVENT_POSITION_AND_DIR: x=-324.616*, z=-19.465*, y=35.676*, direction=156.4°*
  2: 0x00AC [0x00] END_REQSTACK()
```

### Event 65535.16

#### Metadata

| Field        | Value    |
|--------------|----------|
| Entrypoint   | 0x00AD   |
| Data Size    | 12 bytes |
| Instructions | 3        |

```
      00 01 02 03 04 05 06 07  08 09 0A 0B 0C 0D 0E 0F
      -- -- -- -- -- -- -- --  -- -- -- -- -- -- -- --
00A0:                                         33 00 37               3.7
00B0: 23 80 24 80 25 80 26 80  00                       #.$.%.&..       
```

#### Opcodes

```
  0: 0x00AD [0x33] EventEntity->Render.Flags0 &= ~ 0x200000 // Bit 21 (flag=0x00)
  1: 0x00AF [0x37] UPDATE_EVENT_POSITION_AND_DIR: x=-275.747*, z=-5.881*, y=36.888*, direction=327.1°*
  2: 0x00B8 [0x00] END_REQSTACK()
```

### Event 65535.17

#### Metadata

| Field        | Value    |
|--------------|----------|
| Entrypoint   | 0x00B9   |
| Data Size    | 15 bytes |
| Instructions | 5        |

```
      00 01 02 03 04 05 06 07  08 09 0A 0B 0C 0D 0E 0F
      -- -- -- -- -- -- -- --  -- -- -- -- -- -- -- --
00B0:                             32 27 80 1F 00 28 80           2'...(.
00C0: 29 80 2A 80 1F 01 6F 00                           ).*...o.        
```

#### Opcodes

```
  0: 0x00B9 [0x32] ExtData[1]->MainSpeed = 11* * 0.1
  1: 0x00BC [0x1F] MOVE_ENTITY: EventEntity moves to X=-277.885*, Z=-3.256*, Y=36.637*
  2: 0x00C4 [0x1F] MOVE_ENTITY: Update entity position (mode=1)
  3: 0x00C6 [0x6F] WAIT_FRAME_DELAY: Yield until WaitTime reaches zero
  4: 0x00C7 [0x00] END_REQSTACK()
```

### Event 65535.18

#### Metadata

| Field        | Value    |
|--------------|----------|
| Entrypoint   | 0x00C8   |
| Data Size    | 25 bytes |
| Instructions | 7        |

```
      00 01 02 03 04 05 06 07  08 09 0A 0B 0C 0D 0E 0F
      -- -- -- -- -- -- -- --  -- -- -- -- -- -- -- --
00C0:                          32 2B 80 1F 00 2C 80 2D          2+...,.-
00D0: 80 2E 80 1F 01 1F 00 2F  80 30 80 31 80 1F 01 6F  ......./.0.1...o
00E0: 00                                                .               
```

#### Opcodes

```
  0: 0x00C8 [0x32] ExtData[1]->MainSpeed = 38* * 0.1
  1: 0x00CB [0x1F] MOVE_ENTITY: EventEntity moves to X=-282.063*, Z=0.313*, Y=36.499*
  2: 0x00D3 [0x1F] MOVE_ENTITY: Update entity position (mode=1)
  3: 0x00D5 [0x1F] MOVE_ENTITY: EventEntity moves to X=-288.324*, Z=3.674*, Y=36.976*
  4: 0x00DD [0x1F] MOVE_ENTITY: Update entity position (mode=1)
  5: 0x00DF [0x6F] WAIT_FRAME_DELAY: Yield until WaitTime reaches zero
  6: 0x00E0 [0x00] END_REQSTACK()
```

### Event 65535.19

#### Metadata

| Field        | Value    |
|--------------|----------|
| Entrypoint   | 0x00E1   |
| Data Size    | 22 bytes |
| Instructions | 8        |

```
      00 01 02 03 04 05 06 07  08 09 0A 0B 0C 0D 0E 0F
      -- -- -- -- -- -- -- --  -- -- -- -- -- -- -- --
00E0:    32 32 80 1F 00 33 80  34 80 35 80 1F 01 6F 1E   22...3.4.5...o.
00F0: A0 42 04 01 6F 70 00                              .B..op.         
```

#### Opcodes

```
  0: 0x00E1 [0x32] ExtData[1]->MainSpeed = 40* * 0.1
  1: 0x00E4 [0x1F] MOVE_ENTITY: EventEntity moves to X=-323.963*, Z=-17.955*, Y=35.728*
  2: 0x00EC [0x1F] MOVE_ENTITY: Update entity position (mode=1)
  3: 0x00EE [0x6F] WAIT_FRAME_DELAY: Yield until WaitTime reaches zero
  4: 0x00EF [0x1E] EventEntity looks at Karababa (ID: 17056416/0x010442A0) and starts talking
  5: 0x00F4 [0x6F] WAIT_FRAME_DELAY: Yield until WaitTime reaches zero
  6: 0x00F5 [0x70] WAIT_ENTITY_RENDER_FLAG: Wait while EventEntity->Render.Flags3 bit 2 is set (cancel turn if not)
  7: 0x00F6 [0x00] END_REQSTACK()
```

### Event 65535.20

#### Metadata

| Field        | Value    |
|--------------|----------|
| Entrypoint   | 0x00F7   |
| Data Size    | 17 bytes |
| Instructions | 6        |

```
      00 01 02 03 04 05 06 07  08 09 0A 0B 0C 0D 0E 0F
      -- -- -- -- -- -- -- --  -- -- -- -- -- -- -- --
00F0:                      32  32 80 1F 00 36 80 37 80         22...6.7.
0100: 38 80 1F 01 6F 22 01 00                           8...o"..        
```

#### Opcodes

```
  0: 0x00F7 [0x32] ExtData[1]->MainSpeed = 40* * 0.1
  1: 0x00FA [0x1F] MOVE_ENTITY: EventEntity moves to X=-319.438*, Z=-11.101*, Y=36.788*
  2: 0x0102 [0x1F] MOVE_ENTITY: Update entity position (mode=1)
  3: 0x0104 [0x6F] WAIT_FRAME_DELAY: Yield until WaitTime reaches zero
  4: 0x0105 [0x22] ENTITY_HIDE_FLAG(enabled=0x01)
  5: 0x0107 [0x00] END_REQSTACK()
```

### Event 65535.21

#### Metadata

| Field        | Value    |
|--------------|----------|
| Entrypoint   | 0x0108   |
| Data Size    | 15 bytes |
| Instructions | 5        |

```
      00 01 02 03 04 05 06 07  08 09 0A 0B 0C 0D 0E 0F
      -- -- -- -- -- -- -- --  -- -- -- -- -- -- -- --
0100:                          32 39 80 1F 00 1B 80 1C          29......
0110: 80 1D 80 1F 01 6F 00                              .....o.         
```

#### Opcodes

```
  0: 0x0108 [0x32] ExtData[1]->MainSpeed = 10* * 0.1
  1: 0x010B [0x1F] MOVE_ENTITY: EventEntity moves to X=-326.637*, Z=-20.142*, Y=35.176*
  2: 0x0113 [0x1F] MOVE_ENTITY: Update entity position (mode=1)
  3: 0x0115 [0x6F] WAIT_FRAME_DELAY: Yield until WaitTime reaches zero
  4: 0x0116 [0x00] END_REQSTACK()
```

### Event 65535.22

#### Metadata

| Field        | Value    |
|--------------|----------|
| Entrypoint   | 0x0117   |
| Data Size    | 57 bytes |
| Instructions | 19       |

```
      00 01 02 03 04 05 06 07  08 09 0A 0B 0C 0D 0E 0F
      -- -- -- -- -- -- -- --  -- -- -- -- -- -- -- --
0110:                      32  39 80 1F 00 3A 80 3B 80         29...:.;.
0120: 3C 80 1F 01 6F 1E 9F 42  04 01 6F 70 1C 3D 80 1F  <...o..B..op.=..
0130: 00 3E 80 3F 80 40 80 1F  01 6F 1E 9F 42 04 01 6F  .>.?.@...o..B..o
0140: 70 1C 3D 80 1F 00 1B 80  1C 80 1D 80 1F 01 6F 00  p.=...........o.
```

#### Opcodes

```
  0: 0x0117 [0x32] ExtData[1]->MainSpeed = 10* * 0.1
  1: 0x011A [0x1F] MOVE_ENTITY: EventEntity moves to X=-327.412*, Z=-20.077*, Y=35.119*
  2: 0x0122 [0x1F] MOVE_ENTITY: Update entity position (mode=1)
  3: 0x0124 [0x6F] WAIT_FRAME_DELAY: Yield until WaitTime reaches zero
  4: 0x0125 [0x1E] EventEntity looks at Ovjang (ID: 17056415/0x0104429F) and starts talking
  5: 0x012A [0x6F] WAIT_FRAME_DELAY: Yield until WaitTime reaches zero
  6: 0x012B [0x70] WAIT_ENTITY_RENDER_FLAG: Wait while EventEntity->Render.Flags3 bit 2 is set (cancel turn if not)
  7: 0x012C [0x1C] WAIT(45* ticks)
  8: 0x012F [0x1F] MOVE_ENTITY: EventEntity moves to X=-327.277*, Z=-20.737*, Y=35.147*
  9: 0x0137 [0x1F] MOVE_ENTITY: Update entity position (mode=1)
 10: 0x0139 [0x6F] WAIT_FRAME_DELAY: Yield until WaitTime reaches zero
 11: 0x013A [0x1E] EventEntity looks at Ovjang (ID: 17056415/0x0104429F) and starts talking
 12: 0x013F [0x6F] WAIT_FRAME_DELAY: Yield until WaitTime reaches zero
 13: 0x0140 [0x70] WAIT_ENTITY_RENDER_FLAG: Wait while EventEntity->Render.Flags3 bit 2 is set (cancel turn if not)
 14: 0x0141 [0x1C] WAIT(45* ticks)
 15: 0x0144 [0x1F] MOVE_ENTITY: EventEntity moves to X=-326.637*, Z=-20.142*, Y=35.176*
 16: 0x014C [0x1F] MOVE_ENTITY: Update entity position (mode=1)
 17: 0x014E [0x6F] WAIT_FRAME_DELAY: Yield until WaitTime reaches zero
 18: 0x014F [0x00] END_REQSTACK()
```

### Event 65535.23

#### Metadata

| Field        | Value    |
|--------------|----------|
| Entrypoint   | 0x0150   |
| Data Size    | 10 bytes |
| Instructions | 3        |

```
      00 01 02 03 04 05 06 07  08 09 0A 0B 0C 0D 0E 0F
      -- -- -- -- -- -- -- --  -- -- -- -- -- -- -- --
0150: B6 00 1A 80 80 F8 FF FF  7F 00                    ..........      
```

#### Opcodes

```
  0: 0x0150 [0xB6] ENTITY_APPEARANCE_HANDLER(case=Hair style, value=1735*)
  1: 0x0154 [0x80] LOAD_WAIT(entity=EventEntity)
  2: 0x0159 [0x00] END_REQSTACK()
```

### Event 65535.24

#### Metadata

| Field        | Value    |
|--------------|----------|
| Entrypoint   | 0x015A   |
| Data Size    | 20 bytes |
| Instructions | 6        |

```
      00 01 02 03 04 05 06 07  08 09 0A 0B 0C 0D 0E 0F
      -- -- -- -- -- -- -- --  -- -- -- -- -- -- -- --
0150:                                32 32 80 1F 00 41            22...A
0160: 80 42 80 43 80 1F 01 6F  1E A5 42 04 01 00        .B.C...o..B...  
```

#### Opcodes

```
  0: 0x015A [0x32] ExtData[1]->MainSpeed = 40* * 0.1
  1: 0x015D [0x1F] MOVE_ENTITY: EventEntity moves to X=-317.502*, Z=-43.142*, Y=36.627*
  2: 0x0165 [0x1F] MOVE_ENTITY: Update entity position (mode=1)
  3: 0x0167 [0x6F] WAIT_FRAME_DELAY: Yield until WaitTime reaches zero
  4: 0x0168 [0x1E] EventEntity looks at Rishfee (ID: 17056421/0x010442A5) and starts talking
  5: 0x016D [0x00] END_REQSTACK()
```

### Event 65535.25

#### Metadata

| Field        | Value    |
|--------------|----------|
| Entrypoint   | 0x016E   |
| Data Size    | 26 bytes |
| Instructions | 8        |

```
      00 01 02 03 04 05 06 07  08 09 0A 0B 0C 0D 0E 0F
      -- -- -- -- -- -- -- --  -- -- -- -- -- -- -- --
0160:                                            32 32                22
0170: 80 1F 00 44 80 45 80 46  80 1F 01 6F 1F 00 47 80  ...D.E.F...o..G.
0180: 48 80 49 80 1F 01 6F 00                           H.I...o.        
```

#### Opcodes

```
  0: 0x016E [0x32] ExtData[1]->MainSpeed = 40* * 0.1
  1: 0x0171 [0x1F] MOVE_ENTITY: EventEntity moves to X=-287.342*, Z=-41.443*, Y=36.937*
  2: 0x0179 [0x1F] MOVE_ENTITY: Update entity position (mode=1)
  3: 0x017B [0x6F] WAIT_FRAME_DELAY: Yield until WaitTime reaches zero
  4: 0x017C [0x1F] MOVE_ENTITY: EventEntity moves to X=-284.523*, Z=-37.838*, Y=36.750*
  5: 0x0184 [0x1F] MOVE_ENTITY: Update entity position (mode=1)
  6: 0x0186 [0x6F] WAIT_FRAME_DELAY: Yield until WaitTime reaches zero
  7: 0x0187 [0x00] END_REQSTACK()
```

### Event 65535.26

#### Metadata

| Field        | Value    |
|--------------|----------|
| Entrypoint   | 0x0188   |
| Data Size    | 28 bytes |
| Instructions | 4        |

```
      00 01 02 03 04 05 06 07  08 09 0A 0B 0C 0D 0E 0F
      -- -- -- -- -- -- -- --  -- -- -- -- -- -- -- --
0180:                          81 00 F8 FF FF 7F 7C 00          ......|.
0190: F8 FF FF 7F 5B 4A 80 F8  FF FF 7F F8 FF FF 7F 74  ....[J.........t
01A0: 6C 6B 30 00                                       lk0.            
```

#### Opcodes

```
  0: 0x0188 [0x81] SET_ENTITY_BLINKING(blink_flag=0x00, entity=EventEntity)
  1: 0x018E [0x7C] EventEntity->Render.Flags2 |= 0x00
  2: 0x0194 [0x5B] LOAD_EXT_SCHEDULER: Load scheduler "tlk0" with entities [EventEntity, EventEntity], work=842*
  3: 0x01A3 [0x00] END_REQSTACK()
```

### Event 65535.27

#### Metadata

| Field        | Value    |
|--------------|----------|
| Entrypoint   | 0x01A4   |
| Data Size    | 14 bytes |
| Instructions | 2        |

```
      00 01 02 03 04 05 06 07  08 09 0A 0B 0C 0D 0E 0F
      -- -- -- -- -- -- -- --  -- -- -- -- -- -- -- --
01A0:             53 F8 FF FF  7F F8 FF FF 7F 74 6C 6B      S........tlk
01B0: 30 00                                             0.              
```

#### Opcodes

```
  0: 0x01A4 [0x53] WAIT_SCHEDULER_TASK: Wait for scheduler "tlk0" with entities [EventEntity, EventEntity]
  1: 0x01B1 [0x00] END_REQSTACK()
```

### Event 65535.28

#### Metadata

| Field        | Value    |
|--------------|----------|
| Entrypoint   | 0x01B2   |
| Data Size    | 16 bytes |
| Instructions | 2        |

```
      00 01 02 03 04 05 06 07  08 09 0A 0B 0C 0D 0E 0F
      -- -- -- -- -- -- -- --  -- -- -- -- -- -- -- --
01B0:       5B 4A 80 F8 FF FF  7F F8 FF FF 7F 74 6C 6B    [J.........tlk
01C0: 31 00                                             1.              
```

#### Opcodes

```
  0: 0x01B2 [0x5B] LOAD_EXT_SCHEDULER: Load scheduler "tlk1" with entities [EventEntity, EventEntity], work=842*
  1: 0x01C1 [0x00] END_REQSTACK()
```

### Event 65535.29

#### Metadata

| Field        | Value    |
|--------------|----------|
| Entrypoint   | 0x01C2   |
| Data Size    | 26 bytes |
| Instructions | 4        |

```
      00 01 02 03 04 05 06 07  08 09 0A 0B 0C 0D 0E 0F
      -- -- -- -- -- -- -- --  -- -- -- -- -- -- -- --
01C0:       53 F8 FF FF 7F F8  FF FF 7F 74 6C 6B 31 81    S........tlk1.
01D0: 01 F8 FF FF 7F 7C 01 F8  FF FF 7F 00              .....|......    
```

#### Opcodes

```
  0: 0x01C2 [0x53] WAIT_SCHEDULER_TASK: Wait for scheduler "tlk1" with entities [EventEntity, EventEntity]
  1: 0x01CF [0x81] SET_ENTITY_BLINKING(blink_flag=0x01, entity=EventEntity)
  2: 0x01D5 [0x7C] EventEntity->Render.Flags2 |= 0x01
  3: 0x01DB [0x00] END_REQSTACK()
```

### Event 65535.30

#### Metadata

| Field        | Value    |
|--------------|----------|
| Entrypoint   | 0x01DC   |
| Data Size    | 28 bytes |
| Instructions | 4        |

```
      00 01 02 03 04 05 06 07  08 09 0A 0B 0C 0D 0E 0F
      -- -- -- -- -- -- -- --  -- -- -- -- -- -- -- --
01D0:                                      81 00 F8 FF              ....
01E0: FF 7F 7C 00 F8 FF FF 7F  5B 4A 80 F8 FF FF 7F F8  ..|.....[J......
01F0: FF FF 7F 74 68 6B 30 00                           ...thk0.        
```

#### Opcodes

```
  0: 0x01DC [0x81] SET_ENTITY_BLINKING(blink_flag=0x00, entity=EventEntity)
  1: 0x01E2 [0x7C] EventEntity->Render.Flags2 |= 0x00
  2: 0x01E8 [0x5B] LOAD_EXT_SCHEDULER: Load scheduler "thk0" with entities [EventEntity, EventEntity], work=842*
  3: 0x01F7 [0x00] END_REQSTACK()
```

### Event 65535.31

#### Metadata

| Field        | Value    |
|--------------|----------|
| Entrypoint   | 0x01F8   |
| Data Size    | 14 bytes |
| Instructions | 2        |

```
      00 01 02 03 04 05 06 07  08 09 0A 0B 0C 0D 0E 0F
      -- -- -- -- -- -- -- --  -- -- -- -- -- -- -- --
01F0:                          53 F8 FF FF 7F F8 FF FF          S.......
0200: 7F 74 68 6B 30 00                                 .thk0.          
```

#### Opcodes

```
  0: 0x01F8 [0x53] WAIT_SCHEDULER_TASK: Wait for scheduler "thk0" with entities [EventEntity, EventEntity]
  1: 0x0205 [0x00] END_REQSTACK()
```

### Event 65535.32

#### Metadata

| Field        | Value    |
|--------------|----------|
| Entrypoint   | 0x0206   |
| Data Size    | 16 bytes |
| Instructions | 2        |

```
      00 01 02 03 04 05 06 07  08 09 0A 0B 0C 0D 0E 0F
      -- -- -- -- -- -- -- --  -- -- -- -- -- -- -- --
0200:                   5B 4A  80 F8 FF FF 7F F8 FF FF        [J........
0210: 7F 74 68 6B 31 00                                 .thk1.          
```

#### Opcodes

```
  0: 0x0206 [0x5B] LOAD_EXT_SCHEDULER: Load scheduler "thk1" with entities [EventEntity, EventEntity], work=842*
  1: 0x0215 [0x00] END_REQSTACK()
```

### Event 65535.33

#### Metadata

| Field        | Value    |
|--------------|----------|
| Entrypoint   | 0x0216   |
| Data Size    | 26 bytes |
| Instructions | 4        |

```
      00 01 02 03 04 05 06 07  08 09 0A 0B 0C 0D 0E 0F
      -- -- -- -- -- -- -- --  -- -- -- -- -- -- -- --
0210:                   53 F8  FF FF 7F F8 FF FF 7F 74        S........t
0220: 68 6B 31 81 01 F8 FF FF  7F 7C 01 F8 FF FF 7F 00  hk1......|......
```

#### Opcodes

```
  0: 0x0216 [0x53] WAIT_SCHEDULER_TASK: Wait for scheduler "thk1" with entities [EventEntity, EventEntity]
  1: 0x0223 [0x81] SET_ENTITY_BLINKING(blink_flag=0x01, entity=EventEntity)
  2: 0x0229 [0x7C] EventEntity->Render.Flags2 |= 0x01
  3: 0x022F [0x00] END_REQSTACK()
```

### Event 65535.34

#### Metadata

| Field        | Value    |
|--------------|----------|
| Entrypoint   | 0x0230   |
| Data Size    | 28 bytes |
| Instructions | 4        |

```
      00 01 02 03 04 05 06 07  08 09 0A 0B 0C 0D 0E 0F
      -- -- -- -- -- -- -- --  -- -- -- -- -- -- -- --
0230: 81 00 F8 FF FF 7F 7C 00  F8 FF FF 7F 5B 4A 80 F8  ......|.....[J..
0240: FF FF 7F F8 FF FF 7F 70  61 73 30 00              .......pas0.    
```

#### Opcodes

```
  0: 0x0230 [0x81] SET_ENTITY_BLINKING(blink_flag=0x00, entity=EventEntity)
  1: 0x0236 [0x7C] EventEntity->Render.Flags2 |= 0x00
  2: 0x023C [0x5B] LOAD_EXT_SCHEDULER: Load scheduler "pas0" with entities [EventEntity, EventEntity], work=842*
  3: 0x024B [0x00] END_REQSTACK()
```

### Event 65535.35

#### Metadata

| Field        | Value    |
|--------------|----------|
| Entrypoint   | 0x024C   |
| Data Size    | 26 bytes |
| Instructions | 4        |

```
      00 01 02 03 04 05 06 07  08 09 0A 0B 0C 0D 0E 0F
      -- -- -- -- -- -- -- --  -- -- -- -- -- -- -- --
0240:                                      53 F8 FF FF              S...
0250: 7F F8 FF FF 7F 70 61 73  30 81 01 F8 FF FF 7F 7C  .....pas0......|
0260: 01 F8 FF FF 7F 00                                 ......          
```

#### Opcodes

```
  0: 0x024C [0x53] WAIT_SCHEDULER_TASK: Wait for scheduler "pas0" with entities [EventEntity, EventEntity]
  1: 0x0259 [0x81] SET_ENTITY_BLINKING(blink_flag=0x01, entity=EventEntity)
  2: 0x025F [0x7C] EventEntity->Render.Flags2 |= 0x01
  3: 0x0265 [0x00] END_REQSTACK()
```

### Event 65535.36

#### Metadata

| Field        | Value    |
|--------------|----------|
| Entrypoint   | 0x0266   |
| Data Size    | 28 bytes |
| Instructions | 4        |

```
      00 01 02 03 04 05 06 07  08 09 0A 0B 0C 0D 0E 0F
      -- -- -- -- -- -- -- --  -- -- -- -- -- -- -- --
0260:                   81 00  F8 FF FF 7F 7C 00 F8 FF        ......|...
0270: FF 7F 5B 4A 80 F8 FF FF  7F F8 FF FF 7F 63 72 79  ..[J.........cry
0280: 30 00                                             0.              
```

#### Opcodes

```
  0: 0x0266 [0x81] SET_ENTITY_BLINKING(blink_flag=0x00, entity=EventEntity)
  1: 0x026C [0x7C] EventEntity->Render.Flags2 |= 0x00
  2: 0x0272 [0x5B] LOAD_EXT_SCHEDULER: Load scheduler "cry0" with entities [EventEntity, EventEntity], work=842*
  3: 0x0281 [0x00] END_REQSTACK()
```

### Event 65535.37

#### Metadata

| Field        | Value    |
|--------------|----------|
| Entrypoint   | 0x0282   |
| Data Size    | 14 bytes |
| Instructions | 2        |

```
      00 01 02 03 04 05 06 07  08 09 0A 0B 0C 0D 0E 0F
      -- -- -- -- -- -- -- --  -- -- -- -- -- -- -- --
0280:       53 F8 FF FF 7F F8  FF FF 7F 63 72 79 30 00    S........cry0.
```

#### Opcodes

```
  0: 0x0282 [0x53] WAIT_SCHEDULER_TASK: Wait for scheduler "cry0" with entities [EventEntity, EventEntity]
  1: 0x028F [0x00] END_REQSTACK()
```

### Event 65535.38

#### Metadata

| Field        | Value    |
|--------------|----------|
| Entrypoint   | 0x0290   |
| Data Size    | 16 bytes |
| Instructions | 2        |

```
      00 01 02 03 04 05 06 07  08 09 0A 0B 0C 0D 0E 0F
      -- -- -- -- -- -- -- --  -- -- -- -- -- -- -- --
0290: 5B 4A 80 F8 FF FF 7F F8  FF FF 7F 63 72 79 31 00  [J.........cry1.
```

#### Opcodes

```
  0: 0x0290 [0x5B] LOAD_EXT_SCHEDULER: Load scheduler "cry1" with entities [EventEntity, EventEntity], work=842*
  1: 0x029F [0x00] END_REQSTACK()
```

### Event 65535.39

#### Metadata

| Field        | Value    |
|--------------|----------|
| Entrypoint   | 0x02A0   |
| Data Size    | 26 bytes |
| Instructions | 4        |

```
      00 01 02 03 04 05 06 07  08 09 0A 0B 0C 0D 0E 0F
      -- -- -- -- -- -- -- --  -- -- -- -- -- -- -- --
02A0: 53 F8 FF FF 7F F8 FF FF  7F 63 72 79 31 81 01 F8  S........cry1...
02B0: FF FF 7F 7C 01 F8 FF FF  7F 00                    ...|......      
```

#### Opcodes

```
  0: 0x02A0 [0x53] WAIT_SCHEDULER_TASK: Wait for scheduler "cry1" with entities [EventEntity, EventEntity]
  1: 0x02AD [0x81] SET_ENTITY_BLINKING(blink_flag=0x01, entity=EventEntity)
  2: 0x02B3 [0x7C] EventEntity->Render.Flags2 |= 0x01
  3: 0x02B9 [0x00] END_REQSTACK()
```

### Event 65535.40

#### Metadata

| Field        | Value    |
|--------------|----------|
| Entrypoint   | 0x02BA   |
| Data Size    | 28 bytes |
| Instructions | 4        |

```
      00 01 02 03 04 05 06 07  08 09 0A 0B 0C 0D 0E 0F
      -- -- -- -- -- -- -- --  -- -- -- -- -- -- -- --
02B0:                                81 00 F8 FF FF 7F            ......
02C0: 7C 00 F8 FF FF 7F 5B 4B  80 F8 FF FF 7F F8 FF FF  |.....[K........
02D0: 7F 74 6C 62 30 00                                 .tlb0.          
```

#### Opcodes

```
  0: 0x02BA [0x81] SET_ENTITY_BLINKING(blink_flag=0x00, entity=EventEntity)
  1: 0x02C0 [0x7C] EventEntity->Render.Flags2 |= 0x00
  2: 0x02C6 [0x5B] LOAD_EXT_SCHEDULER: Load scheduler "tlb0" with entities [EventEntity, EventEntity], work=843*
  3: 0x02D5 [0x00] END_REQSTACK()
```

### Event 65535.41

#### Metadata

| Field        | Value    |
|--------------|----------|
| Entrypoint   | 0x02D6   |
| Data Size    | 14 bytes |
| Instructions | 2        |

```
      00 01 02 03 04 05 06 07  08 09 0A 0B 0C 0D 0E 0F
      -- -- -- -- -- -- -- --  -- -- -- -- -- -- -- --
02D0:                   53 F8  FF FF 7F F8 FF FF 7F 74        S........t
02E0: 6C 62 30 00                                       lb0.            
```

#### Opcodes

```
  0: 0x02D6 [0x53] WAIT_SCHEDULER_TASK: Wait for scheduler "tlb0" with entities [EventEntity, EventEntity]
  1: 0x02E3 [0x00] END_REQSTACK()
```

### Event 65535.42

#### Metadata

| Field        | Value    |
|--------------|----------|
| Entrypoint   | 0x02E4   |
| Data Size    | 16 bytes |
| Instructions | 2        |

```
      00 01 02 03 04 05 06 07  08 09 0A 0B 0C 0D 0E 0F
      -- -- -- -- -- -- -- --  -- -- -- -- -- -- -- --
02E0:             5B 4B 80 F8  FF FF 7F F8 FF FF 7F 74      [K.........t
02F0: 6C 62 31 00                                       lb1.            
```

#### Opcodes

```
  0: 0x02E4 [0x5B] LOAD_EXT_SCHEDULER: Load scheduler "tlb1" with entities [EventEntity, EventEntity], work=843*
  1: 0x02F3 [0x00] END_REQSTACK()
```

### Event 65535.43

#### Metadata

| Field        | Value    |
|--------------|----------|
| Entrypoint   | 0x02F4   |
| Data Size    | 26 bytes |
| Instructions | 4        |

```
      00 01 02 03 04 05 06 07  08 09 0A 0B 0C 0D 0E 0F
      -- -- -- -- -- -- -- --  -- -- -- -- -- -- -- --
02F0:             53 F8 FF FF  7F F8 FF FF 7F 74 6C 62      S........tlb
0300: 31 81 01 F8 FF FF 7F 7C  01 F8 FF FF 7F 00        1......|......  
```

#### Opcodes

```
  0: 0x02F4 [0x53] WAIT_SCHEDULER_TASK: Wait for scheduler "tlb1" with entities [EventEntity, EventEntity]
  1: 0x0301 [0x81] SET_ENTITY_BLINKING(blink_flag=0x01, entity=EventEntity)
  2: 0x0307 [0x7C] EventEntity->Render.Flags2 |= 0x01
  3: 0x030D [0x00] END_REQSTACK()
```

### Event 65535.44

#### Metadata

| Field        | Value    |
|--------------|----------|
| Entrypoint   | 0x030E   |
| Data Size    | 28 bytes |
| Instructions | 4        |

```
      00 01 02 03 04 05 06 07  08 09 0A 0B 0C 0D 0E 0F
      -- -- -- -- -- -- -- --  -- -- -- -- -- -- -- --
0300:                                            81 00                ..
0310: F8 FF FF 7F 7C 00 F8 FF  FF 7F 5B 4B 80 F8 FF FF  ....|.....[K....
0320: 7F F8 FF FF 7F 74 68 62  30 00                    .....thb0.      
```

#### Opcodes

```
  0: 0x030E [0x81] SET_ENTITY_BLINKING(blink_flag=0x00, entity=EventEntity)
  1: 0x0314 [0x7C] EventEntity->Render.Flags2 |= 0x00
  2: 0x031A [0x5B] LOAD_EXT_SCHEDULER: Load scheduler "thb0" with entities [EventEntity, EventEntity], work=843*
  3: 0x0329 [0x00] END_REQSTACK()
```

### Event 65535.45

#### Metadata

| Field        | Value    |
|--------------|----------|
| Entrypoint   | 0x032A   |
| Data Size    | 14 bytes |
| Instructions | 2        |

```
      00 01 02 03 04 05 06 07  08 09 0A 0B 0C 0D 0E 0F
      -- -- -- -- -- -- -- --  -- -- -- -- -- -- -- --
0320:                                53 F8 FF FF 7F F8            S.....
0330: FF FF 7F 74 68 62 30 00                           ...thb0.        
```

#### Opcodes

```
  0: 0x032A [0x53] WAIT_SCHEDULER_TASK: Wait for scheduler "thb0" with entities [EventEntity, EventEntity]
  1: 0x0337 [0x00] END_REQSTACK()
```

### Event 65535.46

#### Metadata

| Field        | Value    |
|--------------|----------|
| Entrypoint   | 0x0338   |
| Data Size    | 16 bytes |
| Instructions | 2        |

```
      00 01 02 03 04 05 06 07  08 09 0A 0B 0C 0D 0E 0F
      -- -- -- -- -- -- -- --  -- -- -- -- -- -- -- --
0330:                          5B 4B 80 F8 FF FF 7F F8          [K......
0340: FF FF 7F 74 68 62 31 00                           ...thb1.        
```

#### Opcodes

```
  0: 0x0338 [0x5B] LOAD_EXT_SCHEDULER: Load scheduler "thb1" with entities [EventEntity, EventEntity], work=843*
  1: 0x0347 [0x00] END_REQSTACK()
```

### Event 65535.47

#### Metadata

| Field        | Value    |
|--------------|----------|
| Entrypoint   | 0x0348   |
| Data Size    | 26 bytes |
| Instructions | 4        |

```
      00 01 02 03 04 05 06 07  08 09 0A 0B 0C 0D 0E 0F
      -- -- -- -- -- -- -- --  -- -- -- -- -- -- -- --
0340:                          53 F8 FF FF 7F F8 FF FF          S.......
0350: 7F 74 68 62 31 81 01 F8  FF FF 7F 7C 01 F8 FF FF  .thb1......|....
0360: 7F 00                                             ..              
```

#### Opcodes

```
  0: 0x0348 [0x53] WAIT_SCHEDULER_TASK: Wait for scheduler "thb1" with entities [EventEntity, EventEntity]
  1: 0x0355 [0x81] SET_ENTITY_BLINKING(blink_flag=0x01, entity=EventEntity)
  2: 0x035B [0x7C] EventEntity->Render.Flags2 |= 0x01
  3: 0x0361 [0x00] END_REQSTACK()
```

### Event 65535.48

#### Metadata

| Field        | Value    |
|--------------|----------|
| Entrypoint   | 0x0362   |
| Data Size    | 28 bytes |
| Instructions | 4        |

```
      00 01 02 03 04 05 06 07  08 09 0A 0B 0C 0D 0E 0F
      -- -- -- -- -- -- -- --  -- -- -- -- -- -- -- --
0360:       81 00 F8 FF FF 7F  7C 00 F8 FF FF 7F 5B 4B    ......|.....[K
0370: 80 F8 FF FF 7F F8 FF FF  7F 68 61 70 30 00        .........hap0.  
```

#### Opcodes

```
  0: 0x0362 [0x81] SET_ENTITY_BLINKING(blink_flag=0x00, entity=EventEntity)
  1: 0x0368 [0x7C] EventEntity->Render.Flags2 |= 0x00
  2: 0x036E [0x5B] LOAD_EXT_SCHEDULER: Load scheduler "hap0" with entities [EventEntity, EventEntity], work=843*
  3: 0x037D [0x00] END_REQSTACK()
```

### Event 65535.49

#### Metadata

| Field        | Value    |
|--------------|----------|
| Entrypoint   | 0x037E   |
| Data Size    | 26 bytes |
| Instructions | 4        |

```
      00 01 02 03 04 05 06 07  08 09 0A 0B 0C 0D 0E 0F
      -- -- -- -- -- -- -- --  -- -- -- -- -- -- -- --
0370:                                            53 F8                S.
0380: FF FF 7F F8 FF FF 7F 68  61 70 30 81 01 F8 FF FF  .......hap0.....
0390: 7F 7C 01 F8 FF FF 7F 00                           .|......        
```

#### Opcodes

```
  0: 0x037E [0x53] WAIT_SCHEDULER_TASK: Wait for scheduler "hap0" with entities [EventEntity, EventEntity]
  1: 0x038B [0x81] SET_ENTITY_BLINKING(blink_flag=0x01, entity=EventEntity)
  2: 0x0391 [0x7C] EventEntity->Render.Flags2 |= 0x01
  3: 0x0397 [0x00] END_REQSTACK()
```

### Event 65535.50

#### Metadata

| Field        | Value    |
|--------------|----------|
| Entrypoint   | 0x0398   |
| Data Size    | 28 bytes |
| Instructions | 4        |

```
      00 01 02 03 04 05 06 07  08 09 0A 0B 0C 0D 0E 0F
      -- -- -- -- -- -- -- --  -- -- -- -- -- -- -- --
0390:                          81 00 F8 FF FF 7F 7C 00          ......|.
03A0: F8 FF FF 7F 5B 4B 80 F8  FF FF 7F F8 FF FF 7F 61  ....[K.........a
03B0: 6E 67 30 00                                       ng0.            
```

#### Opcodes

```
  0: 0x0398 [0x81] SET_ENTITY_BLINKING(blink_flag=0x00, entity=EventEntity)
  1: 0x039E [0x7C] EventEntity->Render.Flags2 |= 0x00
  2: 0x03A4 [0x5B] LOAD_EXT_SCHEDULER: Load scheduler "ang0" with entities [EventEntity, EventEntity], work=843*
  3: 0x03B3 [0x00] END_REQSTACK()
```

### Event 65535.51

#### Metadata

| Field        | Value    |
|--------------|----------|
| Entrypoint   | 0x03B4   |
| Data Size    | 26 bytes |
| Instructions | 4        |

```
      00 01 02 03 04 05 06 07  08 09 0A 0B 0C 0D 0E 0F
      -- -- -- -- -- -- -- --  -- -- -- -- -- -- -- --
03B0:             53 F8 FF FF  7F F8 FF FF 7F 61 6E 67      S........ang
03C0: 30 81 01 F8 FF FF 7F 7C  01 F8 FF FF 7F 00        0......|......  
```

#### Opcodes

```
  0: 0x03B4 [0x53] WAIT_SCHEDULER_TASK: Wait for scheduler "ang0" with entities [EventEntity, EventEntity]
  1: 0x03C1 [0x81] SET_ENTITY_BLINKING(blink_flag=0x01, entity=EventEntity)
  2: 0x03C7 [0x7C] EventEntity->Render.Flags2 |= 0x01
  3: 0x03CD [0x00] END_REQSTACK()
```

### Event 65535.52

#### Metadata

| Field        | Value    |
|--------------|----------|
| Entrypoint   | 0x03CE   |
| Data Size    | 28 bytes |
| Instructions | 4        |

```
      00 01 02 03 04 05 06 07  08 09 0A 0B 0C 0D 0E 0F
      -- -- -- -- -- -- -- --  -- -- -- -- -- -- -- --
03C0:                                            81 00                ..
03D0: F8 FF FF 7F 7C 00 F8 FF  FF 7F 5B 4B 80 F8 FF FF  ....|.....[K....
03E0: 7F F8 FF FF 7F 70 6E 74  30 00                    .....pnt0.      
```

#### Opcodes

```
  0: 0x03CE [0x81] SET_ENTITY_BLINKING(blink_flag=0x00, entity=EventEntity)
  1: 0x03D4 [0x7C] EventEntity->Render.Flags2 |= 0x00
  2: 0x03DA [0x5B] LOAD_EXT_SCHEDULER: Load scheduler "pnt0" with entities [EventEntity, EventEntity], work=843*
  3: 0x03E9 [0x00] END_REQSTACK()
```

### Event 65535.53

#### Metadata

| Field        | Value    |
|--------------|----------|
| Entrypoint   | 0x03EA   |
| Data Size    | 14 bytes |
| Instructions | 2        |

```
      00 01 02 03 04 05 06 07  08 09 0A 0B 0C 0D 0E 0F
      -- -- -- -- -- -- -- --  -- -- -- -- -- -- -- --
03E0:                                53 F8 FF FF 7F F8            S.....
03F0: FF FF 7F 70 6E 74 30 00                           ...pnt0.        
```

#### Opcodes

```
  0: 0x03EA [0x53] WAIT_SCHEDULER_TASK: Wait for scheduler "pnt0" with entities [EventEntity, EventEntity]
  1: 0x03F7 [0x00] END_REQSTACK()
```

### Event 65535.54

#### Metadata

| Field        | Value    |
|--------------|----------|
| Entrypoint   | 0x03F8   |
| Data Size    | 16 bytes |
| Instructions | 2        |

```
      00 01 02 03 04 05 06 07  08 09 0A 0B 0C 0D 0E 0F
      -- -- -- -- -- -- -- --  -- -- -- -- -- -- -- --
03F0:                          5B 4B 80 F8 FF FF 7F F8          [K......
0400: FF FF 7F 70 6E 74 31 00                           ...pnt1.        
```

#### Opcodes

```
  0: 0x03F8 [0x5B] LOAD_EXT_SCHEDULER: Load scheduler "pnt1" with entities [EventEntity, EventEntity], work=843*
  1: 0x0407 [0x00] END_REQSTACK()
```

### Event 65535.55

#### Metadata

| Field        | Value    |
|--------------|----------|
| Entrypoint   | 0x0408   |
| Data Size    | 26 bytes |
| Instructions | 4        |

```
      00 01 02 03 04 05 06 07  08 09 0A 0B 0C 0D 0E 0F
      -- -- -- -- -- -- -- --  -- -- -- -- -- -- -- --
0400:                          53 F8 FF FF 7F F8 FF FF          S.......
0410: 7F 70 6E 74 31 81 01 F8  FF FF 7F 7C 01 F8 FF FF  .pnt1......|....
0420: 7F 00                                             ..              
```

#### Opcodes

```
  0: 0x0408 [0x53] WAIT_SCHEDULER_TASK: Wait for scheduler "pnt1" with entities [EventEntity, EventEntity]
  1: 0x0415 [0x81] SET_ENTITY_BLINKING(blink_flag=0x01, entity=EventEntity)
  2: 0x041B [0x7C] EventEntity->Render.Flags2 |= 0x01
  3: 0x0421 [0x00] END_REQSTACK()
```

### Event 65535.56

#### Metadata

| Field        | Value    |
|--------------|----------|
| Entrypoint   | 0x0422   |
| Data Size    | 16 bytes |
| Instructions | 2        |

```
      00 01 02 03 04 05 06 07  08 09 0A 0B 0C 0D 0E 0F
      -- -- -- -- -- -- -- --  -- -- -- -- -- -- -- --
0420:       5B 4C 80 F8 FF FF  7F F8 FF FF 7F 75 72 61    [L.........ura
0430: 30 00                                             0.              
```

#### Opcodes

```
  0: 0x0422 [0x5B] LOAD_EXT_SCHEDULER: Load scheduler "ura0" with entities [EventEntity, EventEntity], work=881*
  1: 0x0431 [0x00] END_REQSTACK()
```

### Event 65535.57

#### Metadata

| Field        | Value    |
|--------------|----------|
| Entrypoint   | 0x0432   |
| Data Size    | 14 bytes |
| Instructions | 2        |

```
      00 01 02 03 04 05 06 07  08 09 0A 0B 0C 0D 0E 0F
      -- -- -- -- -- -- -- --  -- -- -- -- -- -- -- --
0430:       53 F8 FF FF 7F F8  FF FF 7F 75 72 61 30 00    S........ura0.
```

#### Opcodes

```
  0: 0x0432 [0x53] WAIT_SCHEDULER_TASK: Wait for scheduler "ura0" with entities [EventEntity, EventEntity]
  1: 0x043F [0x00] END_REQSTACK()
```

### Event 65535.58

#### Metadata

| Field        | Value    |
|--------------|----------|
| Entrypoint   | 0x0440   |
| Data Size    | 16 bytes |
| Instructions | 2        |

```
      00 01 02 03 04 05 06 07  08 09 0A 0B 0C 0D 0E 0F
      -- -- -- -- -- -- -- --  -- -- -- -- -- -- -- --
0440: 5B 4C 80 F8 FF FF 7F F8  FF FF 7F 75 72 61 31 00  [L.........ura1.
```

#### Opcodes

```
  0: 0x0440 [0x5B] LOAD_EXT_SCHEDULER: Load scheduler "ura1" with entities [EventEntity, EventEntity], work=881*
  1: 0x044F [0x00] END_REQSTACK()
```

### Event 65535.59

#### Metadata

| Field        | Value    |
|--------------|----------|
| Entrypoint   | 0x0450   |
| Data Size    | 14 bytes |
| Instructions | 2        |

```
      00 01 02 03 04 05 06 07  08 09 0A 0B 0C 0D 0E 0F
      -- -- -- -- -- -- -- --  -- -- -- -- -- -- -- --
0450: 53 F8 FF FF 7F F8 FF FF  7F 75 72 61 31 00        S........ura1.  
```

#### Opcodes

```
  0: 0x0450 [0x53] WAIT_SCHEDULER_TASK: Wait for scheduler "ura1" with entities [EventEntity, EventEntity]
  1: 0x045D [0x00] END_REQSTACK()
```

### Event 65535.60

#### Metadata

| Field        | Value    |
|--------------|----------|
| Entrypoint   | 0x045E   |
| Data Size    | 16 bytes |
| Instructions | 2        |

```
      00 01 02 03 04 05 06 07  08 09 0A 0B 0C 0D 0E 0F
      -- -- -- -- -- -- -- --  -- -- -- -- -- -- -- --
0450:                                            5B 4C                [L
0460: 80 F8 FF FF 7F F8 FF FF  7F 77 68 74 30 00        .........wht0.  
```

#### Opcodes

```
  0: 0x045E [0x5B] LOAD_EXT_SCHEDULER: Load scheduler "wht0" with entities [EventEntity, EventEntity], work=881*
  1: 0x046D [0x00] END_REQSTACK()
```

### Event 65535.61

#### Metadata

| Field        | Value    |
|--------------|----------|
| Entrypoint   | 0x046E   |
| Data Size    | 14 bytes |
| Instructions | 2        |

```
      00 01 02 03 04 05 06 07  08 09 0A 0B 0C 0D 0E 0F
      -- -- -- -- -- -- -- --  -- -- -- -- -- -- -- --
0460:                                            53 F8                S.
0470: FF FF 7F F8 FF FF 7F 77  68 74 30 00              .......wht0.    
```

#### Opcodes

```
  0: 0x046E [0x53] WAIT_SCHEDULER_TASK: Wait for scheduler "wht0" with entities [EventEntity, EventEntity]
  1: 0x047B [0x00] END_REQSTACK()
```

### Event 65535.62

#### Metadata

| Field        | Value    |
|--------------|----------|
| Entrypoint   | 0x047C   |
| Data Size    | 16 bytes |
| Instructions | 2        |

```
      00 01 02 03 04 05 06 07  08 09 0A 0B 0C 0D 0E 0F
      -- -- -- -- -- -- -- --  -- -- -- -- -- -- -- --
0470:                                      5B 4C 80 F8              [L..
0480: FF FF 7F F8 FF FF 7F 77  68 74 31 00              .......wht1.    
```

#### Opcodes

```
  0: 0x047C [0x5B] LOAD_EXT_SCHEDULER: Load scheduler "wht1" with entities [EventEntity, EventEntity], work=881*
  1: 0x048B [0x00] END_REQSTACK()
```

### Event 65535.63

#### Metadata

| Field        | Value    |
|--------------|----------|
| Entrypoint   | 0x048C   |
| Data Size    | 14 bytes |
| Instructions | 2        |

```
      00 01 02 03 04 05 06 07  08 09 0A 0B 0C 0D 0E 0F
      -- -- -- -- -- -- -- --  -- -- -- -- -- -- -- --
0480:                                      53 F8 FF FF              S...
0490: 7F F8 FF FF 7F 77 68 74  31 00                    .....wht1.      
```

#### Opcodes

```
  0: 0x048C [0x53] WAIT_SCHEDULER_TASK: Wait for scheduler "wht1" with entities [EventEntity, EventEntity]
  1: 0x0499 [0x00] END_REQSTACK()
```

### Event 65535.64

#### Metadata

| Field        | Value    |
|--------------|----------|
| Entrypoint   | 0x049A   |
| Data Size    | 16 bytes |
| Instructions | 2        |

```
      00 01 02 03 04 05 06 07  08 09 0A 0B 0C 0D 0E 0F
      -- -- -- -- -- -- -- --  -- -- -- -- -- -- -- --
0490:                                5B 4D 80 F8 FF FF            [M....
04A0: 7F F8 FF FF 7F 73 68 61  30 00                    .....sha0.      
```

#### Opcodes

```
  0: 0x049A [0x5B] LOAD_EXT_SCHEDULER: Load scheduler "sha0" with entities [EventEntity, EventEntity], work=919*
  1: 0x04A9 [0x00] END_REQSTACK()
```

### Event 65535.65

#### Metadata

| Field        | Value    |
|--------------|----------|
| Entrypoint   | 0x04AA   |
| Data Size    | 14 bytes |
| Instructions | 2        |

```
      00 01 02 03 04 05 06 07  08 09 0A 0B 0C 0D 0E 0F
      -- -- -- -- -- -- -- --  -- -- -- -- -- -- -- --
04A0:                                53 F8 FF FF 7F F8            S.....
04B0: FF FF 7F 73 68 61 30 00                           ...sha0.        
```

#### Opcodes

```
  0: 0x04AA [0x53] WAIT_SCHEDULER_TASK: Wait for scheduler "sha0" with entities [EventEntity, EventEntity]
  1: 0x04B7 [0x00] END_REQSTACK()
```

### Event 65535.66

#### Metadata

| Field        | Value    |
|--------------|----------|
| Entrypoint   | 0x04B8   |
| Data Size    | 16 bytes |
| Instructions | 2        |

```
      00 01 02 03 04 05 06 07  08 09 0A 0B 0C 0D 0E 0F
      -- -- -- -- -- -- -- --  -- -- -- -- -- -- -- --
04B0:                          5B 4D 80 F8 FF FF 7F F8          [M......
04C0: FF FF 7F 73 68 61 31 00                           ...sha1.        
```

#### Opcodes

```
  0: 0x04B8 [0x5B] LOAD_EXT_SCHEDULER: Load scheduler "sha1" with entities [EventEntity, EventEntity], work=919*
  1: 0x04C7 [0x00] END_REQSTACK()
```

### Event 65535.67

#### Metadata

| Field        | Value    |
|--------------|----------|
| Entrypoint   | 0x04C8   |
| Data Size    | 14 bytes |
| Instructions | 2        |

```
      00 01 02 03 04 05 06 07  08 09 0A 0B 0C 0D 0E 0F
      -- -- -- -- -- -- -- --  -- -- -- -- -- -- -- --
04C0:                          53 F8 FF FF 7F F8 FF FF          S.......
04D0: 7F 73 68 61 31 00                                 .sha1.          
```

#### Opcodes

```
  0: 0x04C8 [0x53] WAIT_SCHEDULER_TASK: Wait for scheduler "sha1" with entities [EventEntity, EventEntity]
  1: 0x04D5 [0x00] END_REQSTACK()
```

### Event 65535.68

#### Metadata

| Field        | Value    |
|--------------|----------|
| Entrypoint   | 0x04D6   |
| Data Size    | 16 bytes |
| Instructions | 2        |

```
      00 01 02 03 04 05 06 07  08 09 0A 0B 0C 0D 0E 0F
      -- -- -- -- -- -- -- --  -- -- -- -- -- -- -- --
04D0:                   5B 4D  80 F8 FF FF 7F F8 FF FF        [M........
04E0: 7F 62 69 6B 30 00                                 .bik0.          
```

#### Opcodes

```
  0: 0x04D6 [0x5B] LOAD_EXT_SCHEDULER: Load scheduler "bik0" with entities [EventEntity, EventEntity], work=919*
  1: 0x04E5 [0x00] END_REQSTACK()
```

### Event 65535.69

#### Metadata

| Field        | Value    |
|--------------|----------|
| Entrypoint   | 0x04E6   |
| Data Size    | 14 bytes |
| Instructions | 2        |

```
      00 01 02 03 04 05 06 07  08 09 0A 0B 0C 0D 0E 0F
      -- -- -- -- -- -- -- --  -- -- -- -- -- -- -- --
04E0:                   53 F8  FF FF 7F F8 FF FF 7F 62        S........b
04F0: 69 6B 30 00                                       ik0.            
```

#### Opcodes

```
  0: 0x04E6 [0x53] WAIT_SCHEDULER_TASK: Wait for scheduler "bik0" with entities [EventEntity, EventEntity]
  1: 0x04F3 [0x00] END_REQSTACK()
```

### Event 65535.70

#### Metadata

| Field        | Value    |
|--------------|----------|
| Entrypoint   | 0x04F4   |
| Data Size    | 16 bytes |
| Instructions | 2        |

```
      00 01 02 03 04 05 06 07  08 09 0A 0B 0C 0D 0E 0F
      -- -- -- -- -- -- -- --  -- -- -- -- -- -- -- --
04F0:             5B 4D 80 F8  FF FF 7F F8 FF FF 7F 62      [M.........b
0500: 69 6B 31 00                                       ik1.            
```

#### Opcodes

```
  0: 0x04F4 [0x5B] LOAD_EXT_SCHEDULER: Load scheduler "bik1" with entities [EventEntity, EventEntity], work=919*
  1: 0x0503 [0x00] END_REQSTACK()
```

### Event 65535.71

#### Metadata

| Field        | Value    |
|--------------|----------|
| Entrypoint   | 0x0504   |
| Data Size    | 14 bytes |
| Instructions | 2        |

```
      00 01 02 03 04 05 06 07  08 09 0A 0B 0C 0D 0E 0F
      -- -- -- -- -- -- -- --  -- -- -- -- -- -- -- --
0500:             53 F8 FF FF  7F F8 FF FF 7F 62 69 6B      S........bik
0510: 31 00                                             1.              
```

#### Opcodes

```
  0: 0x0504 [0x53] WAIT_SCHEDULER_TASK: Wait for scheduler "bik1" with entities [EventEntity, EventEntity]
  1: 0x0511 [0x00] END_REQSTACK()
```

### Event 65535.72

#### Metadata

| Field        | Value    |
|--------------|----------|
| Entrypoint   | 0x0512   |
| Data Size    | 41 bytes |
| Instructions | 5        |

```
      00 01 02 03 04 05 06 07  08 09 0A 0B 0C 0D 0E 0F
      -- -- -- -- -- -- -- --  -- -- -- -- -- -- -- --
0510:       5B 4D 80 F8 FF FF  7F F8 FF FF 7F 62 69 6B    [M.........bik
0520: 31 53 F8 FF FF 7F F8 FF  FF 7F 62 69 6B 31 6B 69  1S........bik1ki
0530: 64 6C 30 F8 FF FF 7F 1C  4E 80 00                 dl0.....N..     
```

#### Opcodes

```
  0: 0x0512 [0x5B] LOAD_EXT_SCHEDULER: Load scheduler "bik1" with entities [EventEntity, EventEntity], work=919*
  1: 0x0521 [0x53] WAIT_SCHEDULER_TASK: Wait for scheduler "bik1" with entities [EventEntity, EventEntity]
  2: 0x052E [0x6B] STOP_AND_IDLE: EventEntity stops current action and resets to idle (animation="idl0")
  3: 0x0537 [0x1C] WAIT(60* ticks)
  4: 0x053A [0x00] END_REQSTACK()
```

### Event 65535.73

#### Metadata

| Field        | Value    |
|--------------|----------|
| Entrypoint   | 0x053B   |
| Data Size    | 16 bytes |
| Instructions | 2        |

```
      00 01 02 03 04 05 06 07  08 09 0A 0B 0C 0D 0E 0F
      -- -- -- -- -- -- -- --  -- -- -- -- -- -- -- --
0530:                                   5B 4F 80 F8 FF             [O...
0540: FF 7F F8 FF FF 7F 64 6F  77 6E 00                 ......down.     
```

#### Opcodes

```
  0: 0x053B [0x5B] LOAD_EXT_SCHEDULER: Load scheduler "down" with entities [EventEntity, EventEntity], work=990*
  1: 0x054A [0x00] END_REQSTACK()
```

### Event 65535.74

#### Metadata

| Field        | Value    |
|--------------|----------|
| Entrypoint   | 0x054B   |
| Data Size    | 14 bytes |
| Instructions | 2        |

```
      00 01 02 03 04 05 06 07  08 09 0A 0B 0C 0D 0E 0F
      -- -- -- -- -- -- -- --  -- -- -- -- -- -- -- --
0540:                                   53 F8 FF FF 7F             S....
0550: F8 FF FF 7F 64 6F 77 6E  00                       ....down.       
```

#### Opcodes

```
  0: 0x054B [0x53] WAIT_SCHEDULER_TASK: Wait for scheduler "down" with entities [EventEntity, EventEntity]
  1: 0x0558 [0x00] END_REQSTACK()
```

### Event 36

#### Metadata

| Field        | Value   |
|--------------|---------|
| Entrypoint   | 0x0559  |
| Data Size    | 7 bytes |
| Instructions | 2       |

```
      00 01 02 03 04 05 06 07  08 09 0A 0B 0C 0D 0E 0F
      -- -- -- -- -- -- -- --  -- -- -- -- -- -- -- --
0550:                             92 01 F8 FF FF 7F 00           .......
```

#### Opcodes

```
  0: 0x0559 [0x92] EventEntity->Render.Flags3 ^= 0x01
  1: 0x055F [0x00] END_REQSTACK()
```

### Event 65535.75

#### Metadata

| Field        | Value    |
|--------------|----------|
| Entrypoint   | 0x0560   |
| Data Size    | 57 bytes |
| Instructions | 13       |

```
      00 01 02 03 04 05 06 07  08 09 0A 0B 0C 0D 0E 0F
      -- -- -- -- -- -- -- --  -- -- -- -- -- -- -- --
0560: 32 32 80 5A 00 50 80 51  80 52 80 5A 01 5A 00 53  22.Z.P.Q.R.Z.Z.S
0570: 80 54 80 55 80 5A 01 5A  00 56 80 57 80 58 80 5A  .T.U.Z.Z.V.W.X.Z
0580: 01 1F 00 59 80 5A 80 5B  80 1F 01 4B F8 FF FF 7F  ...Y.Z.[...K....
0590: 5C 80 6F 76 F8 FF FF 7F  00                       \.ov.....       
```

#### Opcodes

```
  0: 0x0560 [0x32] ExtData[1]->MainSpeed = 40* * 0.1
  1: 0x0563 [0x5A] UPDATE_EVENT_POSITION: Set EventEntity MovePosition to X=-406.446*, Z=-441.220*, Y=6.149*
  2: 0x056B [0x5A] UPDATE_EVENT_POSITION: Move EventEntity incrementally towards MovePosition
  3: 0x056D [0x5A] UPDATE_EVENT_POSITION: Set EventEntity MovePosition to X=-399.178*, Z=-440.847*, Y=9.486*
  4: 0x0575 [0x5A] UPDATE_EVENT_POSITION: Move EventEntity incrementally towards MovePosition
  5: 0x0577 [0x5A] UPDATE_EVENT_POSITION: Set EventEntity MovePosition to X=-375.671*, Z=-439.705*, Y=14.920*
  6: 0x057F [0x5A] UPDATE_EVENT_POSITION: Move EventEntity incrementally towards MovePosition
  7: 0x0581 [0x1F] MOVE_ENTITY: EventEntity moves to X=-368.745*, Z=-445.637*, Y=14.824*
  8: 0x0589 [0x1F] MOVE_ENTITY: Update entity position (mode=1)
  9: 0x058B [0x4B] UPDATE_ENTITY_YAW(entity=EventEntity, yaw=16.5°*)
 10: 0x0592 [0x6F] WAIT_FRAME_DELAY: Yield until WaitTime reaches zero
 11: 0x0593 [0x76] CHECK_ENTITY_RENDER_FLAGS: Wait until EventEntity Render.Flags0 and Render.Flags3 conditions are met
 12: 0x0598 [0x00] END_REQSTACK()
```

### Event 40

#### Metadata

| Field        | Value   |
|--------------|---------|
| Entrypoint   | 0x0599  |
| Data Size    | 7 bytes |
| Instructions | 2       |

```
      00 01 02 03 04 05 06 07  08 09 0A 0B 0C 0D 0E 0F
      -- -- -- -- -- -- -- --  -- -- -- -- -- -- -- --
0590:                             92 01 F8 FF FF 7F 00           .......
```

#### Opcodes

```
  0: 0x0599 [0x92] EventEntity->Render.Flags3 ^= 0x01
  1: 0x059F [0x00] END_REQSTACK()
```

### Event 41

#### Metadata

| Field        | Value   |
|--------------|---------|
| Entrypoint   | 0x05A0  |
| Data Size    | 7 bytes |
| Instructions | 2       |

```
      00 01 02 03 04 05 06 07  08 09 0A 0B 0C 0D 0E 0F
      -- -- -- -- -- -- -- --  -- -- -- -- -- -- -- --
05A0: 92 01 F8 FF FF 7F 00                              .......         
```

#### Opcodes

```
  0: 0x05A0 [0x92] EventEntity->Render.Flags3 ^= 0x01
  1: 0x05A6 [0x00] END_REQSTACK()
```

### Event 65535.76

#### Metadata

| Field        | Value    |
|--------------|----------|
| Entrypoint   | 0x05A7   |
| Data Size    | 15 bytes |
| Instructions | 5        |

```
      00 01 02 03 04 05 06 07  08 09 0A 0B 0C 0D 0E 0F
      -- -- -- -- -- -- -- --  -- -- -- -- -- -- -- --
05A0:                      32  32 80 1F 00 5D 80 5E 80         22...].^.
05B0: 5F 80 1F 01 6F 00                                 _...o.          
```

#### Opcodes

```
  0: 0x05A7 [0x32] ExtData[1]->MainSpeed = 40* * 0.1
  1: 0x05AA [0x1F] MOVE_ENTITY: EventEntity moves to X=-372.787*, Z=-442.074*, Y=14.888*
  2: 0x05B2 [0x1F] MOVE_ENTITY: Update entity position (mode=1)
  3: 0x05B4 [0x6F] WAIT_FRAME_DELAY: Yield until WaitTime reaches zero
  4: 0x05B5 [0x00] END_REQSTACK()
```

### Event 65535.77

#### Metadata

| Field        | Value    |
|--------------|----------|
| Entrypoint   | 0x05B6   |
| Data Size    | 15 bytes |
| Instructions | 5        |

```
      00 01 02 03 04 05 06 07  08 09 0A 0B 0C 0D 0E 0F
      -- -- -- -- -- -- -- --  -- -- -- -- -- -- -- --
05B0:                   32 0A  80 1F 00 60 80 61 80 62        2....`.a.b
05C0: 80 1F 01 6F 00                                    ...o.           
```

#### Opcodes

```
  0: 0x05B6 [0x32] ExtData[1]->MainSpeed = 13* * 0.1
  1: 0x05B9 [0x1F] MOVE_ENTITY: EventEntity moves to X=-374.408*, Z=-441.847*, Y=14.980*
  2: 0x05C1 [0x1F] MOVE_ENTITY: Update entity position (mode=1)
  3: 0x05C3 [0x6F] WAIT_FRAME_DELAY: Yield until WaitTime reaches zero
  4: 0x05C4 [0x00] END_REQSTACK()
```

### Event 65535.78

#### Metadata

| Field        | Value    |
|--------------|----------|
| Entrypoint   | 0x05C5   |
| Data Size    | 32 bytes |
| Instructions | 10       |

```
      00 01 02 03 04 05 06 07  08 09 0A 0B 0C 0D 0E 0F
      -- -- -- -- -- -- -- --  -- -- -- -- -- -- -- --
05C0:                32 32 80  1F 00 63 80 64 80 65 80       22...c.d.e.
05D0: 1F 01 1F 00 66 80 67 80  68 80 1F 01 6F 1E A3 42  ....f.g.h...o..B
05E0: 04 01 6F 70 00                                    ..op.           
```

#### Opcodes

```
  0: 0x05C5 [0x32] ExtData[1]->MainSpeed = 40* * 0.1
  1: 0x05C8 [0x1F] MOVE_ENTITY: EventEntity moves to X=-365.566*, Z=-436.868*, Y=14.815*
  2: 0x05D0 [0x1F] MOVE_ENTITY: Update entity position (mode=1)
  3: 0x05D2 [0x1F] MOVE_ENTITY: EventEntity moves to X=-361.257*, Z=-431.986*, Y=14.992*
  4: 0x05DA [0x1F] MOVE_ENTITY: Update entity position (mode=1)
  5: 0x05DC [0x6F] WAIT_FRAME_DELAY: Yield until WaitTime reaches zero
  6: 0x05DD [0x1E] EventEntity looks at Vavaroon (ID: 17056419/0x010442A3) and starts talking
  7: 0x05E2 [0x6F] WAIT_FRAME_DELAY: Yield until WaitTime reaches zero
  8: 0x05E3 [0x70] WAIT_ENTITY_RENDER_FLAG: Wait while EventEntity->Render.Flags3 bit 2 is set (cancel turn if not)
  9: 0x05E4 [0x00] END_REQSTACK()
```

### Event 65535.79

#### Metadata

| Field        | Value    |
|--------------|----------|
| Entrypoint   | 0x05E5   |
| Data Size    | 17 bytes |
| Instructions | 6        |

```
      00 01 02 03 04 05 06 07  08 09 0A 0B 0C 0D 0E 0F
      -- -- -- -- -- -- -- --  -- -- -- -- -- -- -- --
05E0:                32 32 80  1F 00 69 80 6A 80 6B 80       22...i.j.k.
05F0: 1F 01 6F 22 01 00                                 ..o"..          
```

#### Opcodes

```
  0: 0x05E5 [0x32] ExtData[1]->MainSpeed = 40* * 0.1
  1: 0x05E8 [0x1F] MOVE_ENTITY: EventEntity moves to X=-336.522*, Z=-416.562*, Y=13.921*
  2: 0x05F0 [0x1F] MOVE_ENTITY: Update entity position (mode=1)
  3: 0x05F2 [0x6F] WAIT_FRAME_DELAY: Yield until WaitTime reaches zero
  4: 0x05F3 [0x22] ENTITY_HIDE_FLAG(enabled=0x01)
  5: 0x05F5 [0x00] END_REQSTACK()
```
