# 17056485

## Common Data

| Field            | Value                       |
|------------------|-----------------------------|
| Zone             | Aydeewa Subterrane (ID: 68) |
| Block Size       | 16116 bytes                 |
| Total Events     | 7                           |
| References Count | 309                         |

## List of Events

| Event ID              | Entrypoint   |   Size |   Instructions |
|-----------------------|--------------|--------|----------------|
| [65535](#event-65535) | 0x0000       |    658 |             62 |
| [36](#event-36)       | 0x0292       |   3781 |            543 |
| [38](#event-38)       | 0x1157       |    446 |             67 |
| [37](#event-37)       | 0x1315       |    892 |            117 |
| [39](#event-39)       | 0x1691       |    923 |            124 |
| [40](#event-40)       | 0x1A2C       |   3193 |            408 |
| [41](#event-41)       | 0x26A5       |   4941 |            700 |

## DAT References (imed_data)

|   Index | Hex Value   |   Dec Value |
|---------|-------------|-------------|
|       0 | 0x00C8      |         200 |
|       1 | 0x0000      |           0 |
|       2 | 0x00C9      |         201 |
|       3 | 0x0001      |           1 |
|       4 | 0x002D      |          45 |
|       5 | 0x0002      |           2 |
|       6 | 0x001E      |          30 |
|       7 | 0x00D7      |         215 |
|       8 | 0x012C      |         300 |
|       9 | 0x0093      |         147 |
|      10 | 0xEE32      |       60978 |
|      11 | 0x1CEB7     |      118455 |
|      12 | 0x9B8E      |       39822 |
|      13 | 0x02CD      |         717 |
|      14 | 0xE7CC      |       59340 |
|      15 | 0x1EA9F     |      125599 |
|      16 | 0x943A      |       37946 |
|      17 | 0x021E      |         542 |
|      18 | 0xE8C4      |       59588 |
|      19 | 0x1CF41     |      118593 |
|      20 | 0x9BBE      |       39870 |
|      21 | 0x0337      |         823 |
|      22 | 0xD317      |       54039 |
|      23 | 0x1835B     |       99163 |
|      24 | 0x8CA6      |       36006 |
|      25 | 0x09A4      |        2468 |
|      26 | 0xBA5B      |       47707 |
|      27 | 0x189D7     |      100823 |
|      28 | 0x8DF3      |       36339 |
|      29 | 0x001A      |          26 |
|      30 | 0xBFE2      |       49122 |
|      31 | 0x1863E     |       99902 |
|      32 | 0x8DCA      |       36298 |
|      33 | 0x0FB0      |        4016 |
|      34 | 0xE697      |       59031 |
|      35 | 0x1D84C     |      120908 |
|      36 | 0x9BC0      |       39872 |
|      37 | 0x02B4      |         692 |
|      38 | 0x007F      |         127 |
|      39 | 0x0005      |           5 |
|      40 | 0x036F      |         879 |
|      41 | 0x0006      |           6 |
|      42 | 0x005A      |          90 |
|      43 | 0x0008      |           8 |
|      44 | 0x0078      |         120 |
|      45 | 0x0080      |         128 |
|      46 | 0x0019      |          25 |
|      47 | 0x2333      |        9011 |
|      48 | 0x003C      |          60 |
|      49 | 0x2334      |        9012 |
|      50 | 0x2335      |        9013 |
|      51 | 0x0014      |          20 |
|      52 | 0x2336      |        9014 |
|      53 | 0x2337      |        9015 |
|      54 | 0x2338      |        9016 |
|      55 | 0x000A      |          10 |
|      56 | 0x2339      |        9017 |
|      57 | 0x233A      |        9018 |
|      58 | 0x233B      |        9019 |
|      59 | 0x233C      |        9020 |
|      60 | 0x233D      |        9021 |
|      61 | 0x1CDF      |        7391 |
|      62 | 0x00C7      |         199 |
|      63 | 0xFFFFFF22  |  4294967074 |
|      64 | 0xEA60      |       60000 |
|      65 | 0xFFFE7960  |  4294867296 |
|      66 | 0x05DC      |        1500 |
|      67 | 0xFFFFB1E0  |  4294947296 |
|      68 | 0x03E8      |        1000 |
|      69 | 0x0258      |         600 |
|      70 | 0x233E      |        9022 |
|      71 | 0x233F      |        9023 |
|      72 | 0x2340      |        9024 |
|      73 | 0x2341      |        9025 |
|      74 | 0x0007      |           7 |
|      75 | 0x0028      |          40 |
|      76 | 0x2342      |        9026 |
|      77 | 0x0029      |          41 |
|      78 | 0x2343      |        9027 |
|      79 | 0x2344      |        9028 |
|      80 | 0x2345      |        9029 |
|      81 | 0x2346      |        9030 |
|      82 | 0x2347      |        9031 |
|      83 | 0x2348      |        9032 |
|      84 | 0x2349      |        9033 |
|      85 | 0x234A      |        9034 |
|      86 | 0x234B      |        9035 |
|      87 | 0x234C      |        9036 |
|      88 | 0x234D      |        9037 |
|      89 | 0x234E      |        9038 |
|      90 | 0x234F      |        9039 |
|      91 | 0x2350      |        9040 |
|      92 | 0x2351      |        9041 |
|      93 | 0x2352      |        9042 |
|      94 | 0x2353      |        9043 |
|      95 | 0x2354      |        9044 |
|      96 | 0x2355      |        9045 |
|      97 | 0x0032      |          50 |
|      98 | 0x2356      |        9046 |
|      99 | 0x2357      |        9047 |
|     100 | 0x2358      |        9048 |
|     101 | 0x2359      |        9049 |
|     102 | 0x056D      |        1389 |
|     103 | 0x00AE      |         174 |
|     104 | 0x0073      |         115 |
|     105 | 0x008B      |         139 |
|     106 | 0x000F      |          15 |
|     107 | 0x1CF72     |      118642 |
|     108 | 0xFFFF8105  |  4294934789 |
|     109 | 0x9056      |       36950 |
|     110 | 0x0CAD      |        3245 |
|     111 | 0x1D68C     |      120460 |
|     112 | 0xFFFF901F  |  4294938655 |
|     113 | 0x8FBD      |       36797 |
|     114 | 0x0BF4      |        3060 |
|     115 | 0x235A      |        9050 |
|     116 | 0x235B      |        9051 |
|     117 | 0x235C      |        9052 |
|     118 | 0x235D      |        9053 |
|     119 | 0x397A0     |      235424 |
|     120 | 0x15440     |       87104 |
|     121 | 0x9B7E      |       39806 |
|     122 | 0x03DB      |         987 |
|     123 | 0x3A089     |      237705 |
|     124 | 0x158ED     |       88301 |
|     125 | 0x9BF6      |       39926 |
|     126 | 0x055F      |        1375 |
|     127 | 0x235E      |        9054 |
|     128 | 0x235F      |        9055 |
|     129 | 0x0003      |           3 |
|     130 | 0x2360      |        9056 |
|     131 | 0x2361      |        9057 |
|     132 | 0x2362      |        9058 |
|     133 | 0x2363      |        9059 |
|     134 | 0x2364      |        9060 |
|     135 | 0x2365      |        9061 |
|     136 | 0x2366      |        9062 |
|     137 | 0xFFFAF5C5  |  4294636997 |
|     138 | 0xFFFF9A12  |  4294941202 |
|     139 | 0x8903      |       35075 |
|     140 | 0x06FE      |        1790 |
|     141 | 0xFFFB02DD  |  4294640349 |
|     142 | 0xFFFFB069  |  4294946921 |
|     143 | 0x895A      |       35162 |
|     144 | 0x0534      |        1332 |
|     145 | 0x2368      |        9064 |
|     146 | 0x2369      |        9065 |
|     147 | 0x236A      |        9066 |
|     148 | 0x236B      |        9067 |
|     149 | 0x236C      |        9068 |
|     150 | 0x236D      |        9069 |
|     151 | 0x236E      |        9070 |
|     152 | 0x236F      |        9071 |
|     153 | 0x07E8      |        2024 |
|     154 | 0x2370      |        9072 |
|     155 | 0x076C      |        1900 |
|     156 | 0xFFFA3A3C  |  4294588988 |
|     157 | 0xFFF94D73  |  4294528371 |
|     158 | 0x396C      |       14700 |
|     159 | 0x07DC      |        2012 |
|     160 | 0xFFFA5085  |  4294594693 |
|     161 | 0xFFF947BC  |  4294526908 |
|     162 | 0x3A17      |       14871 |
|     163 | 0x080C      |        2060 |
|     164 | 0xFFFA2E36  |  4294585910 |
|     165 | 0xFFF94F22  |  4294528802 |
|     166 | 0x39D6      |       14806 |
|     167 | 0x0810      |        2064 |
|     168 | 0xFFF9B8AA  |  4294555818 |
|     169 | 0xFFF948D4  |  4294527188 |
|     170 | 0xFFFFEB21  |  4294961953 |
|     171 | 0x0F85      |        3973 |
|     172 | 0xFFF9BB93  |  4294556563 |
|     173 | 0xFFF94802  |  4294526978 |
|     174 | 0x0C0D      |        3085 |
|     175 | 0x0F8F      |        3983 |
|     176 | 0xFFF9BB57  |  4294556503 |
|     177 | 0xFFF952E0  |  4294529760 |
|     178 | 0x0BBE      |        3006 |
|     179 | 0x00EC      |         236 |
|     180 | 0xFFF9BD93  |  4294557075 |
|     181 | 0xFFF948D6  |  4294527190 |
|     182 | 0x0C15      |        3093 |
|     183 | 0x0FAE      |        4014 |
|     184 | 0xFFFA13CA  |  4294579146 |
|     185 | 0xFFF94A3C  |  4294527548 |
|     186 | 0x32F8      |       13048 |
|     187 | 0x07E4      |        2020 |
|     188 | 0x0004      |           4 |
|     189 | 0x00E7      |         231 |
|     190 | 0x008C      |         140 |
|     191 | 0x2372      |        9074 |
|     192 | 0x0E10      |        3600 |
|     193 | 0x2373      |        9075 |
|     194 | 0x0C80      |        3200 |
|     195 | 0x2374      |        9076 |
|     196 | 0x2375      |        9077 |
|     197 | 0x2376      |        9078 |
|     198 | 0xFFFA00C3  |  4294574275 |
|     199 | 0xFFF94E9F  |  4294528671 |
|     200 | 0x2D61      |       11617 |
|     201 | 0x07F5      |        2037 |
|     202 | 0xFFFA1E9C  |  4294581916 |
|     203 | 0xFFF94997  |  4294527383 |
|     204 | 0x36AF      |       13999 |
|     205 | 0x07FE      |        2046 |
|     206 | 0xFFFA24C9  |  4294583497 |
|     207 | 0xFFF94B95  |  4294527893 |
|     208 | 0xFFFA0ADD  |  4294576861 |
|     209 | 0xFFF94A18  |  4294527512 |
|     210 | 0x30A4      |       12452 |
|     211 | 0x0FC8      |        4040 |
|     212 | 0x0015      |          21 |
|     213 | 0x2377      |        9079 |
|     214 | 0x2378      |        9080 |
|     215 | 0x2379      |        9081 |
|     216 | 0x237A      |        9082 |
|     217 | 0x237B      |        9083 |
|     218 | 0x0800      |        2048 |
|     219 | 0x237C      |        9084 |
|     220 | 0x237D      |        9085 |
|     221 | 0xFFFA39F8  |  4294588920 |
|     222 | 0xFFF94089  |  4294525065 |
|     223 | 0x39B6      |       14774 |
|     224 | 0x0BB8      |        3000 |
|     225 | 0xFFFA3E1D  |  4294589981 |
|     226 | 0xFFF93BE4  |  4294523876 |
|     227 | 0x39F2      |       14834 |
|     228 | 0x0F3C      |        3900 |
|     229 | 0xFFFA6A3F  |  4294601279 |
|     230 | 0xFFF93ECA  |  4294524618 |
|     231 | 0x39D7      |       14807 |
|     232 | 0x0400      |        1024 |
|     233 | 0xFFFA5F97  |  4294598551 |
|     234 | 0xFFF9333B  |  4294521659 |
|     235 | 0x39E8      |       14824 |
|     236 | 0x0F3D      |        3901 |
|     237 | 0xFFFA62C8  |  4294599368 |
|     238 | 0xFFF93624  |  4294522404 |
|     239 | 0x3A1A      |       14874 |
|     240 | 0x0F21      |        3873 |
|     241 | 0xFFFA5A92  |  4294597266 |
|     242 | 0xFFF92FD8  |  4294520792 |
|     243 | 0x39B5      |       14773 |
|     244 | 0x0629      |        1577 |
|     245 | 0xFFFA5077  |  4294594679 |
|     246 | 0xFFF952E7  |  4294529767 |
|     247 | 0x3A1E      |       14878 |
|     248 | 0x0F3E      |        3902 |
|     249 | 0xFFFA465F  |  4294592095 |
|     250 | 0xFFF94A9E  |  4294527646 |
|     251 | 0x3A5E      |       14942 |
|     252 | 0x000D      |          13 |
|     253 | 0x00A3      |         163 |
|     254 | 0x2381      |        9089 |
|     255 | 0x0FA0      |        4000 |
|     256 | 0x2382      |        9090 |
|     257 | 0x2383      |        9091 |
|     258 | 0x2384      |        9092 |
|     259 | 0x2385      |        9093 |
|     260 | 0x2386      |        9094 |
|     261 | 0x0064      |         100 |
|     262 | 0x2387      |        9095 |
|     263 | 0x2388      |        9096 |
|     264 | 0x2389      |        9097 |
|     265 | 0x238A      |        9098 |
|     266 | 0x238B      |        9099 |
|     267 | 0x03FF      |        1023 |
|     268 | 0x238C      |        9100 |
|     269 | 0x238D      |        9101 |
|     270 | 0xFFFA5790  |  4294596496 |
|     271 | 0xFFF93E21  |  4294524449 |
|     272 | 0x39BB      |       14779 |
|     273 | 0x01EF      |         495 |
|     274 | 0x238E      |        9102 |
|     275 | 0x238F      |        9103 |
|     276 | 0x2390      |        9104 |
|     277 | 0x2391      |        9105 |
|     278 | 0x2392      |        9106 |
|     279 | 0x2393      |        9107 |
|     280 | 0x2394      |        9108 |
|     281 | 0x2395      |        9109 |
|     282 | 0x2396      |        9110 |
|     283 | 0x2397      |        9111 |
|     284 | 0x2398      |        9112 |
|     285 | 0x2399      |        9113 |
|     286 | 0x239A      |        9114 |
|     287 | 0x239B      |        9115 |
|     288 | 0x239C      |        9116 |
|     289 | 0x239D      |        9117 |
|     290 | 0xFFFA62C2  |  4294599362 |
|     291 | 0xFFF92B5C  |  4294519644 |
|     292 | 0x3994      |       14740 |
|     293 | 0x239E      |        9118 |
|     294 | 0x0320      |         800 |
|     295 | 0x239F      |        9119 |
|     296 | 0x23A0      |        9120 |
|     297 | 0x006E      |         110 |
|     298 | 0x23A1      |        9121 |
|     299 | 0x23A2      |        9122 |
|     300 | 0x23A3      |        9123 |
|     301 | 0x23A4      |        9124 |
|     302 | 0x23A5      |        9125 |
|     303 | 0x23A6      |        9126 |
|     304 | 0x000B      |          11 |
|     305 | 0x23A7      |        9127 |
|     306 | 0x23A8      |        9128 |
|     307 | 0x23A9      |        9129 |
|     308 | 0x23AA      |        9130 |

## String References

- **7391**: 
- **9025**: Do you know the reason? [Of course./I'm not sure.]

## Events

### Event 65535

#### Metadata

| Field        | Value     |
|--------------|-----------|
| Entrypoint   | 0x0000    |
| Data Size    | 658 bytes |
| Instructions | 1         |

```
      00 01 02 03 04 05 06 07  08 09 0A 0B 0C 0D 0E 0F
      -- -- -- -- -- -- -- --  -- -- -- -- -- -- -- --
0000: 00 45 00 80 F0 FF FF 7F  F0 FF FF 7F 66 64 69 30  .E..........fdi0
0010: 01 80 55 00 80 F0 FF FF  7F F0 FF FF 7F 66 64 69  ..U..........fdi
0020: 30 1B 45 00 80 F0 FF FF  7F F0 FF FF 7F 66 64 6F  0.E..........fdo
0030: 30 01 80 55 00 80 F0 FF  FF 7F F0 FF FF 7F 66 64  0..U..........fd
0040: 6F 30 1B 45 00 80 F0 FF  FF 7F F0 FF FF 7F 66 64  o0.E..........fd
0050: 69 31 01 80 55 00 80 F0  FF FF 7F F0 FF FF 7F 66  i1..U..........f
0060: 64 69 31 1B 45 00 80 F0  FF FF 7F F0 FF FF 7F 66  di1.E..........f
0070: 64 6F 31 01 80 55 00 80  F0 FF FF 7F F0 FF FF 7F  do1..U..........
0080: 66 64 6F 31 1B 45 02 80  F0 FF FF 7F F0 FF FF 7F  fdo1.E..........
0090: 77 68 69 31 01 80 55 02  80 F0 FF FF 7F F0 FF FF  whi1..U.........
00A0: 7F 77 68 69 31 1B 45 02  80 F0 FF FF 7F F0 FF FF  .whi1.E.........
00B0: 7F 77 68 6F 31 01 80 55  02 80 F0 FF FF 7F F0 FF  .who1..U........
00C0: FF 7F 77 68 6F 31 1B 45  02 80 F0 FF FF 7F F0 FF  ..who1.E........
00D0: FF 7F 77 68 6F 32 01 80  55 02 80 F0 FF FF 7F F0  ..who2..U.......
00E0: FF FF 7F 77 68 6F 32 1B  45 02 80 F0 FF FF 7F F0  ...who2.E.......
00F0: FF FF 7F 77 68 6F 33 01  80 55 02 80 F0 FF FF 7F  ...who3..U......
0100: F0 FF FF 7F 77 68 6F 33  1B 62 03 80 F0 FF FF 7F  ....who3.b......
0110: F0 FF FF 7F 6D 61 69 6E  01 80 1C 04 80 45 00 80  ....main.....E..
0120: F0 FF FF 7F F0 FF FF 7F  66 64 6F 31 01 80 55 00  ........fdo1..U.
0130: 80 F0 FF FF 7F F0 FF FF  7F 66 64 6F 31 1B 45 00  .........fdo1.E.
0140: 80 F0 FF FF 7F F0 FF FF  7F 66 64 69 31 01 80 62  .........fdi1..b
0150: 05 80 F0 FF FF 7F F0 FF  FF 7F 6D 61 69 6E 01 80  ..........main..
0160: 1C 06 80 55 00 80 F0 FF  FF 7F F0 FF FF 7F 66 64  ...U..........fd
0170: 69 31 1B 45 00 80 F0 FF  FF 7F F0 FF FF 7F 62 6C  i1.E..........bl
0180: 6F 6E 01 80 45 02 80 F0  FF FF 7F F0 FF FF 7F 62  on..E..........b
0190: 6C 6F 6E 01 80 1B 45 02  80 F0 FF FF 7F F0 FF FF  lon...E.........
01A0: 7F 77 68 69 30 01 80 55  02 80 F0 FF FF 7F F0 FF  .whi0..U........
01B0: FF 7F 77 68 69 30 1B 45  02 80 F0 FF FF 7F F0 FF  ..whi0.E........
01C0: FF 7F 77 68 6F 30 01 80  55 02 80 F0 FF FF 7F F0  ..who0..U.......
01D0: FF FF 7F 77 68 6F 30 1B  45 07 80 F0 FF FF 7F F0  ...who0.E.......
01E0: FF FF 7F 65 66 6F 6E 01  80 55 07 80 F0 FF FF 7F  ...efon..U......
01F0: F0 FF FF 7F 65 66 6F 6E  1B 45 00 80 F0 FF FF 7F  ....efon.E......
0200: F0 FF FF 7F 66 64 69 73  01 80 1B 45 00 80 F0 FF  ....fdis...E....
0210: FF 7F F0 FF FF 7F 66 64  6F 73 01 80 55 00 80 F0  ......fdos..U...
0220: FF FF 7F F0 FF FF 7F 66  64 6F 73 1B 45 00 80 F0  .......fdos.E...
0230: FF FF 7F F0 FF FF 7F 66  64 69 66 01 80 1B 45 00  .......fdif...E.
0240: 80 F0 FF FF 7F F0 FF FF  7F 66 64 6F 66 01 80 55  .........fdof..U
0250: 00 80 F0 FF FF 7F F0 FF  FF 7F 66 64 6F 66 1B 45  ..........fdof.E
0260: 00 80 F0 FF FF 7F F0 FF  FF 7F 66 64 69 70 01 80  ..........fdip..
0270: 1B 45 00 80 F0 FF FF 7F  F0 FF FF 7F 66 64 6F 70  .E..........fdop
0280: 01 80 55 00 80 F0 FF FF  7F F0 FF FF 7F 66 64 6F  ..U..........fdo
0290: 70 1B                                             p.              
```

#### Opcodes

```
  0: 0x0000 [0x00] END_REQSTACK()
```

#### Data or dead code:

```
# Dead code (unreachable instructions):
     0x0001 [0x45] LOAD_SCHEDULED_TASK: Load scheduler "fdi0" with entities [LocalPlayer, LocalPlayer], work=[200*, 0*]
     0x0012 [0x55] WAIT_LOAD_SCHEDULER: Wait for scheduler "fdi0" with entities [LocalPlayer, LocalPlayer], work=200*
     0x0021 [0x1B] RETURN
     0x0022 [0x45] LOAD_SCHEDULED_TASK: Load scheduler "fdo0" with entities [LocalPlayer, LocalPlayer], work=[200*, 0*]
     0x0033 [0x55] WAIT_LOAD_SCHEDULER: Wait for scheduler "fdo0" with entities [LocalPlayer, LocalPlayer], work=200*
     0x0042 [0x1B] RETURN
     0x0043 [0x45] LOAD_SCHEDULED_TASK: Load scheduler "fdi1" with entities [LocalPlayer, LocalPlayer], work=[200*, 0*]
     0x0054 [0x55] WAIT_LOAD_SCHEDULER: Wait for scheduler "fdi1" with entities [LocalPlayer, LocalPlayer], work=200*
     0x0063 [0x1B] RETURN
     0x0064 [0x45] LOAD_SCHEDULED_TASK: Load scheduler "fdo1" with entities [LocalPlayer, LocalPlayer], work=[200*, 0*]
     0x0075 [0x55] WAIT_LOAD_SCHEDULER: Wait for scheduler "fdo1" with entities [LocalPlayer, LocalPlayer], work=200*
     0x0084 [0x1B] RETURN
     0x0085 [0x45] LOAD_SCHEDULED_TASK: Load scheduler "whi1" with entities [LocalPlayer, LocalPlayer], work=[201*, 0*]
     0x0096 [0x55] WAIT_LOAD_SCHEDULER: Wait for scheduler "whi1" with entities [LocalPlayer, LocalPlayer], work=201*
     0x00A5 [0x1B] RETURN
     0x00A6 [0x45] LOAD_SCHEDULED_TASK: Load scheduler "who1" with entities [LocalPlayer, LocalPlayer], work=[201*, 0*]
     0x00B7 [0x55] WAIT_LOAD_SCHEDULER: Wait for scheduler "who1" with entities [LocalPlayer, LocalPlayer], work=201*
     0x00C6 [0x1B] RETURN
     0x00C7 [0x45] LOAD_SCHEDULED_TASK: Load scheduler "who2" with entities [LocalPlayer, LocalPlayer], work=[201*, 0*]
     0x00D8 [0x55] WAIT_LOAD_SCHEDULER: Wait for scheduler "who2" with entities [LocalPlayer, LocalPlayer], work=201*
     0x00E7 [0x1B] RETURN
     0x00E8 [0x45] LOAD_SCHEDULED_TASK: Load scheduler "who3" with entities [LocalPlayer, LocalPlayer], work=[201*, 0*]
     0x00F9 [0x55] WAIT_LOAD_SCHEDULER: Wait for scheduler "who3" with entities [LocalPlayer, LocalPlayer], work=201*
     0x0108 [0x1B] RETURN
     0x0109 [0x62] LOAD_EVENT_SCHEDULER: Load scheduler "main" with entities [LocalPlayer, LocalPlayer], work=[1*, 0*]
     0x011A [0x1C] WAIT(45* ticks)
     0x011D [0x45] LOAD_SCHEDULED_TASK: Load scheduler "fdo1" with entities [LocalPlayer, LocalPlayer], work=[200*, 0*]
     0x012E [0x55] WAIT_LOAD_SCHEDULER: Wait for scheduler "fdo1" with entities [LocalPlayer, LocalPlayer], work=200*
     0x013D [0x1B] RETURN
     0x013E [0x45] LOAD_SCHEDULED_TASK: Load scheduler "fdi1" with entities [LocalPlayer, LocalPlayer], work=[200*, 0*]
     0x014F [0x62] LOAD_EVENT_SCHEDULER: Load scheduler "main" with entities [LocalPlayer, LocalPlayer], work=[2*, 0*]
     0x0160 [0x1C] WAIT(30* ticks)
     0x0163 [0x55] WAIT_LOAD_SCHEDULER: Wait for scheduler "fdi1" with entities [LocalPlayer, LocalPlayer], work=200*
     0x0172 [0x1B] RETURN
     0x0173 [0x45] LOAD_SCHEDULED_TASK: Load scheduler "blon" with entities [LocalPlayer, LocalPlayer], work=[200*, 0*]
     0x0184 [0x45] LOAD_SCHEDULED_TASK: Load scheduler "blon" with entities [LocalPlayer, LocalPlayer], work=[201*, 0*]
     0x0195 [0x1B] RETURN
     0x0196 [0x45] LOAD_SCHEDULED_TASK: Load scheduler "whi0" with entities [LocalPlayer, LocalPlayer], work=[201*, 0*]
     0x01A7 [0x55] WAIT_LOAD_SCHEDULER: Wait for scheduler "whi0" with entities [LocalPlayer, LocalPlayer], work=201*
     0x01B6 [0x1B] RETURN
     0x01B7 [0x45] LOAD_SCHEDULED_TASK: Load scheduler "who0" with entities [LocalPlayer, LocalPlayer], work=[201*, 0*]
     0x01C8 [0x55] WAIT_LOAD_SCHEDULER: Wait for scheduler "who0" with entities [LocalPlayer, LocalPlayer], work=201*
     0x01D7 [0x1B] RETURN
     0x01D8 [0x45] LOAD_SCHEDULED_TASK: Load scheduler "efon" with entities [LocalPlayer, LocalPlayer], work=[215*, 0*]
     0x01E9 [0x55] WAIT_LOAD_SCHEDULER: Wait for scheduler "efon" with entities [LocalPlayer, LocalPlayer], work=215*
     0x01F8 [0x1B] RETURN
     0x01F9 [0x45] LOAD_SCHEDULED_TASK: Load scheduler "fdis" with entities [LocalPlayer, LocalPlayer], work=[200*, 0*]
     0x020A [0x1B] RETURN
     0x020B [0x45] LOAD_SCHEDULED_TASK: Load scheduler "fdos" with entities [LocalPlayer, LocalPlayer], work=[200*, 0*]
     0x021C [0x55] WAIT_LOAD_SCHEDULER: Wait for scheduler "fdos" with entities [LocalPlayer, LocalPlayer], work=200*
     0x022B [0x1B] RETURN
     0x022C [0x45] LOAD_SCHEDULED_TASK: Load scheduler "fdif" with entities [LocalPlayer, LocalPlayer], work=[200*, 0*]
     0x023D [0x1B] RETURN
     0x023E [0x45] LOAD_SCHEDULED_TASK: Load scheduler "fdof" with entities [LocalPlayer, LocalPlayer], work=[200*, 0*]
     0x024F [0x55] WAIT_LOAD_SCHEDULER: Wait for scheduler "fdof" with entities [LocalPlayer, LocalPlayer], work=200*
     0x025E [0x1B] RETURN
     0x025F [0x45] LOAD_SCHEDULED_TASK: Load scheduler "fdip" with entities [LocalPlayer, LocalPlayer], work=[200*, 0*]
     0x0270 [0x1B] RETURN
     0x0271 [0x45] LOAD_SCHEDULED_TASK: Load scheduler "fdop" with entities [LocalPlayer, LocalPlayer], work=[200*, 0*]
     0x0282 [0x55] WAIT_LOAD_SCHEDULER: Wait for scheduler "fdop" with entities [LocalPlayer, LocalPlayer], work=200*
     0x0291 [0x1B] RETURN
```

### Event 36

#### Metadata

| Field        | Value      |
|--------------|------------|
| Entrypoint   | 0x0292     |
| Data Size    | 3781 bytes |
| Instructions | 543        |

```
      00 01 02 03 04 05 06 07  08 09 0A 0B 0C 0D 0E 0F
      -- -- -- -- -- -- -- --  -- -- -- -- -- -- -- --
0290:       42 5D 01 80 08 80  1A 64 00 46 01 38 09 80    B].....d.F.8..
02A0: 2F 00 E6 42 04 01 2F 00  E7 42 04 01 2F 00 E8 42  /..B../..B../..B
02B0: 04 01 2F 00 A3 42 04 01  2F 00 A4 42 04 01 4E 00  ../..B../..B..N.
02C0: E6 42 04 01 4E 00 E7 42  04 01 4E 00 E8 42 04 01  .B..N..B..N..B..
02D0: 4E 00 A3 42 04 01 4E 00  A4 42 04 01 4E 00 F0 FF  N..B..N..B..N...
02E0: FF 7F 92 01 A3 42 04 01  92 01 A4 42 04 01 94 01  .....B.....B....
02F0: E6 42 04 01 94 01 E7 42  04 01 94 01 E8 42 04 01  .B.....B.....B..
0300: 94 01 A3 42 04 01 94 01  A4 42 04 01 94 01 F0 FF  ...B.....B......
0310: FF 7F BA E6 42 04 01 0A  80 0B 80 0C 80 0D 80 BA  ....B...........
0320: E7 42 04 01 0E 80 0F 80  10 80 11 80 BA E8 42 04  .B............B.
0330: 01 12 80 13 80 14 80 15  80 BA 98 42 04 01 16 80  ...........B....
0340: 17 80 18 80 19 80 BA A3  42 04 01 1A 80 1B 80 1C  ........B.......
0350: 80 1D 80 BA A4 42 04 01  1E 80 1F 80 20 80 21 80  .....B...... .!.
0360: BA F0 FF FF 7F 22 80 23  80 24 80 25 80 80 E6 42  .....".#.$.%...B
0370: 04 01 80 E7 42 04 01 80  E8 42 04 01 80 A3 42 04  ....B....B....B.
0380: 01 80 A4 42 04 01 80 F0  FF FF 7F 29 0F F0 FF FF  ...B.......)....
0390: 7F 27 5C 00 01 80 5C 01  01 80 9A 5D 26 80 03 80  .'\...\....]&...
03A0: 6C E7 42 04 01 01 80 01  80 6C E8 42 04 01 01 80  l.B......l.B....
03B0: 01 80 6C E6 42 04 01 01  80 01 80 1C 05 80 27 0F  ..l.B.........'.
03C0: F0 FF FF 7F 28 02 09 10  27 80 00 E1 03 45 28 80  ....(...'....E(.
03D0: F8 FF FF 7F F8 FF FF 7F  73 30 33 30 01 80 01 0E  ........s030....
03E0: 04 02 09 10 29 80 00 FD  03 45 28 80 F8 FF FF 7F  ....)....E(.....
03F0: F8 FF FF 7F 73 30 33 30  01 80 01 0E 04 45 28 80  ....s030.....E(.
0400: F8 FF FF 7F F8 FF FF 7F  73 30 30 30 01 80 1A 43  ........s000...C
0410: 00 1C 2A 80 4A E7 42 04  01 F0 FF FF 7F 6F 76 E7  ..*.J.B......ov.
0420: 42 04 01 4A E8 42 04 01  F0 FF FF 7F 6F 76 E8 42  B..J.B......ov.B
0430: 04 01 4A E6 42 04 01 F0  FF FF 7F 6F 76 E6 42 04  ..J.B......ov.B.
0440: 01 02 09 10 27 80 00 5B  04 52 28 80 F8 FF FF 7F  ....'..[.R(.....
0450: F8 FF FF 7F 73 30 33 30  01 84 04 02 09 10 29 80  ....s030......).
0460: 00 75 04 52 28 80 F8 FF  FF 7F F8 FF FF 7F 73 30  .u.R(.........s0
0470: 33 30 01 84 04 52 28 80  F8 FF FF 7F F8 FF FF 7F  30...R(.........
0480: 73 30 30 30 02 09 10 2B  80 00 A0 04 45 28 80 F8  s000...+....E(..
0490: FF FF 7F F8 FF FF 7F 73  30 30 31 01 80 01 B1 04  .......s001.....
04A0: 45 28 80 F8 FF FF 7F F8  FF FF 7F 73 30 33 33 01  E(.........s033.
04B0: 80 1C 2C 80 6C E7 42 04  01 2D 80 01 80 27 0F E7  ..,.l.B..-...'..
04C0: 42 04 01 48 27 0F E8 42  04 01 36 1C 27 80 02 09  B..H'..B..6.'...
04D0: 10 2B 80 00 E8 04 52 28  80 F8 FF FF 7F F8 FF FF  .+....R(........
04E0: 7F 73 30 30 31 01 F7 04  52 28 80 F8 FF FF 7F F8  .s001...R(......
04F0: FF FF 7F 73 30 33 33 45  28 80 F8 FF FF 7F F8 FF  ...s033E(.......
0500: FF 7F 73 30 30 32 01 80  1C 27 80 6C E8 42 04 01  ..s002...'.l.B..
0510: 2D 80 01 80 1C 2E 80 03  02 10 8B 7F 2B E7 42 04  -...........+.B.
0520: 01 2F 80 1C 06 80 1C 03  80 52 28 80 F8 FF FF 7F  ./.......R(.....
0530: F8 FF FF 7F 73 30 30 32  45 28 80 F8 FF FF 7F F8  ....s002E(......
0540: FF FF 7F 73 30 30 33 01  80 5C 00 2C 80 5C 01 2C  ...s003..\.,.\.,
0550: 80 9A 5D 26 80 03 80 1C  30 80 2A 0F F0 FF FF 7F  ..]&....0.*.....
0560: 4A F0 FF FF 7F E7 42 04  01 6F 76 F0 FF FF 7F 2A  J.....B..ov....*
0570: 0F E7 42 04 01 52 28 80  F8 FF FF 7F F8 FF FF 7F  ..B..R(.........
0580: 73 30 30 33 02 09 10 27  80 00 A0 05 45 28 80 F8  s003...'....E(..
0590: FF FF 7F F8 FF FF 7F 73  30 33 31 01 80 01 CD 05  .......s031.....
05A0: 02 09 10 29 80 00 BC 05  45 28 80 F8 FF FF 7F F8  ...)....E(......
05B0: FF FF 7F 73 30 33 31 01  80 01 CD 05 45 28 80 F8  ...s031.....E(..
05C0: FF FF 7F F8 FF FF 7F 73  30 30 39 01 80 79 00 F0  .......s009..y..
05D0: FF FF 7F E8 42 04 01 23  2B E8 42 04 01 31 80 23  ....B..#+.B..1.#
05E0: 2A 0F E8 42 04 01 6C E6  42 04 01 2D 80 01 80 1C  *..B..l.B..-....
05F0: 03 80 02 09 10 27 80 00  0C 06 52 28 80 F8 FF FF  .....'....R(....
0600: 7F F8 FF FF 7F 73 30 33  31 01 35 06 02 09 10 29  .....s031.5....)
0610: 80 00 26 06 52 28 80 F8  FF FF 7F F8 FF FF 7F 73  ..&.R(.........s
0620: 30 33 31 01 35 06 52 28  80 F8 FF FF 7F F8 FF FF  031.5.R(........
0630: 7F 73 30 30 39 45 28 80  F8 FF FF 7F F8 FF FF 7F  .s009E(.........
0640: 73 30 30 34 01 80 27 0F  E6 42 04 01 1F 2B E6 42  s004..'..B...+.B
0650: 04 01 32 80 1C 33 80 79  00 F0 FF FF 7F E6 42 04  ..2..3.y......B.
0660: 01 4A E7 42 04 01 E6 42  04 01 4A E8 42 04 01 E6  .J.B...B..J.B...
0670: 42 04 01 6F 76 E8 42 04  01 6F 76 E7 42 04 01 23  B..ov.B..ov.B..#
0680: 52 28 80 F8 FF FF 7F F8  FF FF 7F 73 30 30 34 45  R(.........s004E
0690: 28 80 F8 FF FF 7F F8 FF  FF 7F 73 30 30 35 01 80  (.........s005..
06A0: 2B E6 42 04 01 34 80 2A  0F E6 42 04 01 29 0F E6  +.B..4.*..B..)..
06B0: 42 04 01 16 23 4A E7 42  04 01 E6 42 04 01 4A E8  B...#J.B...B..J.
06C0: 42 04 01 E6 42 04 01 2B  E6 42 04 01 35 80 23 6F  B...B..+.B..5.#o
06D0: 76 E8 42 04 01 6F 76 E7  42 04 01 29 0F E6 42 04  v.B..ov.B..)..B.
06E0: 01 17 29 0F E6 42 04 01  18 52 28 80 F8 FF FF 7F  ..)..B...R(.....
06F0: F8 FF FF 7F 73 30 30 35  45 28 80 F8 FF FF 7F F8  ....s005E(......
0700: FF FF 7F 73 30 30 36 01  80 29 0F E7 42 04 01 07  ...s006..)..B...
0710: 2B E7 42 04 01 36 80 1C  37 80 79 00 F0 FF FF 7F  +.B..6..7.y.....
0720: E7 42 04 01 79 00 E6 42  04 01 E7 42 04 01 79 00  .B..y..B...B..y.
0730: E8 42 04 01 E7 42 04 01  23 29 0F E7 42 04 01 08  .B...B..#)..B...
0740: 29 0F E6 42 04 01 19 2B  E6 42 04 01 38 80 23 29  )..B...+.B..8.#)
0750: 0F E7 42 04 01 01 2B E7  42 04 01 39 80 23 27 0F  ..B...+.B..9.#'.
0760: E7 42 04 01 02 7B E6 42  04 01 27 0F E6 42 04 01  .B...{.B..'..B..
0770: 0C 2B E6 42 04 01 3A 80  2A 0F E6 42 04 01 79 00  .+.B..:.*..B..y.
0780: E6 42 04 01 E8 42 04 01  23 2A 0F E7 42 04 01 52  .B...B..#*..B..R
0790: 28 80 F8 FF FF 7F F8 FF  FF 7F 73 30 30 36 45 28  (.........s006E(
07A0: 80 F8 FF FF 7F F8 FF FF  7F 73 30 30 37 01 80 29  .........s007..)
07B0: 0F E8 42 04 01 2C 29 0F  E7 42 04 01 1F 2B E7 42  ..B..,)..B...+.B
07C0: 04 01 3B 80 1C 33 80 79  00 E6 42 04 01 E7 42 04  ..;..3.y..B...B.
07D0: 01 29 0F E8 42 04 01 2D  79 00 E8 42 04 01 E6 42  .)..B..-y..B...B
07E0: 04 01 23 29 0F E7 42 04  01 20 29 0F E8 42 04 01  ..#)..B.. )..B..
07F0: 23 2B E8 42 04 01 3C 80  1C 33 80 79 00 E7 42 04  #+.B..<..3.y..B.
0800: 01 E8 42 04 01 79 00 E6  42 04 01 E8 42 04 01 79  ..B..y..B...B..y
0810: 00 F0 FF FF 7F E8 42 04  01 23 5D 01 80 08 80 1A  ......B..#].....
0820: 64 00 1C 06 80 52 28 80  F8 FF FF 7F F8 FF FF 7F  d....R(.........
0830: 73 30 30 37 48 3D 80 23  1A 0B 02 5C 00 3E 80 5C  s007H=.#...\.>.\
0840: 01 3E 80 9A 5D 26 80 03  80 1C 30 80 89 3F 80 1C  .>..]&....0..?..
0850: 30 80 B4 14 40 80 41 80  42 80 01 80 03 80 B4 14  0...@.A.B.......
0860: 01 80 43 80 44 80 08 80  03 80 03 02 10 45 80 27  ..C.D........E.'
0870: 10 F0 FF FF 7F 26 1A F9  01 1C 2C 80 2B E8 42 04  .....&....,.+.B.
0880: 01 46 80 23 1C 30 80 2B  E8 42 04 01 47 80 23 29  .F.#.0.+.B..G.#)
0890: 0F E8 42 04 01 24 29 0F  E8 42 04 01 25 1A 0B 02  ..B..$)..B..%...
08A0: 8A B4 15 1A F9 01 48 3D  80 45 28 80 F8 FF FF 7F  ......H=.E(.....
08B0: F8 FF FF 7F 73 30 30 38  01 80 7B E7 42 04 01 27  ....s008..{.B..'
08C0: 0F E7 42 04 01 49 1A 43  00 03 02 10 8B 7F 2B E7  ..B..I.C......+.
08D0: 42 04 01 48 80 1C 37 80  79 00 F0 FF FF 7F E7 42  B..H..7.y......B
08E0: 04 01 79 00 E6 42 04 01  E7 42 04 01 29 0F E8 42  ..y..B...B..)..B
08F0: 04 01 26 4A E8 42 04 01  F0 FF FF 7F 6F 76 E8 42  ..&J.B......ov.B
0900: 04 01 4A F0 FF FF 7F E7  42 04 01 6F 76 F0 FF FF  ..J.....B..ov...
0910: 7F 23 2A 0F E7 42 04 01  79 00 E6 42 04 01 F0 FF  .#*..B..y..B....
0920: FF 7F 24 49 80 01 80 01  80 25 02 00 10 01 80 00  ..$I.....%......
0930: CE 09 6E F0 FF FF 7F 4A  80 99 F0 FF FF 7F 1C 4B  ..n....J.......K
0940: 80 02 09 10 27 80 00 51  09 7B E7 42 04 01 01 5E  ....'..Q.{.B...^
0950: 09 02 09 10 29 80 00 5E  09 7B E7 42 04 01 29 0F  ....)..^.{.B..).
0960: E7 42 04 01 21 1C 4B 80  52 28 80 F8 FF FF 7F F8  .B..!.K.R(......
0970: FF FF 7F 73 30 30 38 45  28 80 F8 FF FF 7F F8 FF  ...s008E(.......
0980: FF 7F 73 30 31 31 01 80  4A F0 FF FF 7F E8 42 04  ..s011..J.....B.
0990: 01 2B E7 42 04 01 4C 80  23 6F 76 F0 FF FF 7F 03  .+.B..L.#ov.....
09A0: 02 10 01 80 29 0F E7 42  04 01 22 52 28 80 F8 FF  ....)..B.."R(...
09B0: FF 7F F8 FF FF 7F 73 30  31 31 45 28 80 F8 FF FF  ......s011E(....
09C0: 7F F8 FF FF 7F 73 30 31  32 01 80 01 21 0B 02 00  .....s012...!...
09D0: 10 03 80 00 21 0B 6E F0  FF FF 7F 29 80 99 F0 FF  ....!.n....)....
09E0: FF 7F 1C 30 80 7B E7 42  04 01 7C 00 E7 42 04 01  ...0.{.B..|..B..
09F0: 66 4D 80 E7 42 04 01 E7  42 04 01 65 68 6E 30 2B  fM..B...B..ehn0+
0A00: E7 42 04 01 4E 80 23 52  28 80 F8 FF FF 7F F8 FF  .B..N.#R(.......
0A10: FF 7F 73 30 30 38 45 28  80 F8 FF FF 7F F8 FF FF  ..s008E(........
0A20: 7F 73 30 31 39 01 80 7B  E8 42 04 01 29 0F E8 42  .s019..{.B..)..B
0A30: 04 01 0D 2B E7 42 04 01  4F 80 23 52 28 80 F8 FF  ...+.B..O.#R(...
0A40: FF 7F F8 FF FF 7F 73 30  31 39 45 28 80 F8 FF FF  ......s019E(....
0A50: 7F F8 FF FF 7F 73 30 31  35 01 80 53 E7 42 04 01  .....s015..S.B..
0A60: E7 42 04 01 65 68 6E 30  79 00 E7 42 04 01 F0 FF  .B..ehn0y..B....
0A70: FF 7F 7C 01 E7 42 04 01  29 0F E7 42 04 01 15 2B  ..|..B..)..B...+
0A80: E7 42 04 01 50 80 23 29  0F E7 42 04 01 16 2B E8  .B..P.#)..B...+.
0A90: 42 04 01 51 80 1C 37 80  79 00 F0 FF FF 7F E8 42  B..Q..7.y......B
0AA0: 04 01 4A E7 42 04 01 E8  42 04 01 6F 76 E7 42 04  ..J.B...B..ov.B.
0AB0: 01 29 0F E7 42 04 01 21  23 52 28 80 F8 FF FF 7F  .)..B..!#R(.....
0AC0: F8 FF FF 7F 73 30 31 35  45 28 80 F8 FF FF 7F F8  ....s015E(......
0AD0: FF FF 7F 73 30 32 39 01  80 2B E8 42 04 01 52 80  ...s029..+.B..R.
0AE0: 23 29 0F E8 42 04 01 0E  29 0F E7 42 04 01 22 03  #)..B...)..B..".
0AF0: 02 10 03 80 52 28 80 F8  FF FF 7F F8 FF FF 7F 73  ....R(.........s
0B00: 30 32 39 45 28 80 F8 FF  FF 7F F8 FF FF 7F 73 30  029E(.........s0
0B10: 31 32 01 80 1C 03 80 29  0F E8 42 04 01 0F 01 21  12.....)..B....!
0B20: 0B 03 02 10 00 10 29 0F  E6 42 04 01 16 2B E6 42  ......)..B...+.B
0B30: 04 01 53 80 1C 33 80 4A  F0 FF FF 7F E8 42 04 01  ..S..3.J.....B..
0B40: 4A E7 42 04 01 E6 42 04  01 4A E8 42 04 01 E6 42  J.B...B..J.B...B
0B50: 04 01 6F 76 E7 42 04 01  6F 76 F0 FF FF 7F 6F 76  ..ov.B..ov....ov
0B60: E8 42 04 01 79 00 F0 FF  FF 7F E6 42 04 01 23 29  .B..y......B..#)
0B70: 0F E6 42 04 01 17 29 0F  E6 42 04 01 18 52 28 80  ..B...)..B...R(.
0B80: F8 FF FF 7F F8 FF FF 7F  73 30 31 32 45 28 80 F8  ........s012E(..
0B90: FF FF 7F F8 FF FF 7F 73  30 31 33 01 80 79 00 E6  .......s013..y..
0BA0: 42 04 01 E8 42 04 01 29  0F E7 42 04 01 23 29 0F  B...B..)..B..#).
0BB0: E8 42 04 01 13 2B E8 42  04 01 54 80 23 1C 30 80  .B...+.B..T.#.0.
0BC0: 29 0F E7 42 04 01 24 4A  E7 42 04 01 E8 42 04 01  )..B..$J.B...B..
0BD0: 29 0F E8 42 04 01 14 6F  76 E7 42 04 01 29 0F E7  )..B...ov.B..)..
0BE0: 42 04 01 3F 29 0F E7 42  04 01 40 2B E7 42 04 01  B..?)..B..@+.B..
0BF0: 55 80 1C 33 80 4A E8 42  04 01 E7 42 04 01 6F 76  U..3.J.B...B..ov
0C00: E8 42 04 01 79 00 E6 42  04 01 E7 42 04 01 23 29  .B..y..B...B..#)
0C10: 0F E6 42 04 01 19 29 0F  E8 42 04 01 1F 1C 06 80  ..B...)..B......
0C20: 52 28 80 F8 FF FF 7F F8  FF FF 7F 73 30 31 33 45  R(.........s013E
0C30: 28 80 F8 FF FF 7F F8 FF  FF 7F 73 30 31 36 01 80  (.........s016..
0C40: 29 0F E7 42 04 01 41 2B  E8 42 04 01 56 80 1C 33  )..B..A+.B..V..3
0C50: 80 5D 00 80 03 80 79 00  E7 42 04 01 E8 42 04 01  .]....y..B...B..
0C60: 29 0F E7 42 04 01 42 29  0F E7 42 04 01 07 23 29  )..B..B)..B...#)
0C70: 0F E8 42 04 01 20 52 28  80 F8 FF FF 7F F8 FF FF  ..B.. R(........
0C80: 7F 73 30 31 36 45 28 80  F8 FF FF 7F F8 FF FF 7F  .s016E(.........
0C90: 73 30 31 34 01 80 29 0F  E8 42 04 01 21 5D 26 80  s014..)..B..!]&.
0CA0: 03 80 2B E6 42 04 01 57  80 1C 37 80 79 00 E7 42  ..+.B..W..7.y..B
0CB0: 04 01 E6 42 04 01 79 00  E8 42 04 01 E6 42 04 01  ...B..y..B...B..
0CC0: 4B E8 42 04 01 01 80 6F  76 E8 42 04 01 23 29 0F  K.B....ov.B..#).
0CD0: E7 42 04 01 08 29 0F E8  42 04 01 22 2B E6 42 04  .B...)..B.."+.B.
0CE0: 01 58 80 23 52 28 80 F8  FF FF 7F F8 FF FF 7F 73  .X.#R(.........s
0CF0: 30 31 34 45 28 80 F8 FF  FF 7F F8 FF FF 7F 73 30  014E(.........s0
0D00: 31 37 01 80 7B E7 42 04  01 29 0F E7 42 04 01 03  17..{.B..)..B...
0D10: 2B E7 42 04 01 59 80 4A  E8 42 04 01 E7 42 04 01  +.B..Y.J.B...B..
0D20: 6F 76 E8 42 04 01 23 29  0F E7 42 04 01 04 52 28  ov.B..#)..B...R(
0D30: 80 F8 FF FF 7F F8 FF FF  7F 73 30 31 37 45 28 80  .........s017E(.
0D40: F8 FF FF 7F F8 FF FF 7F  73 30 31 38 01 80 29 0F  ........s018..).
0D50: E8 42 04 01 13 29 0F E7  42 04 01 05 2B E8 42 04  .B...)..B...+.B.
0D60: 01 5A 80 23 29 0F E8 42  04 01 14 29 0F E7 42 04  .Z.#)..B...)..B.
0D70: 01 06 7B E6 42 04 01 29  0F E6 42 04 01 07 52 28  ..{.B..)..B...R(
0D80: 80 F8 FF FF 7F F8 FF FF  7F 73 30 31 38 45 28 80  .........s018E(.
0D90: F8 FF FF 7F F8 FF FF 7F  73 30 32 30 01 80 2B E6  ........s020..+.
0DA0: 42 04 01 5B 80 1C 33 80  4A E8 42 04 01 E6 42 04  B..[..3.J.B...B.
0DB0: 01 6F 76 E8 42 04 01 23  2B E6 42 04 01 5C 80 23  .ov.B..#+.B..\.#
0DC0: 29 0F E6 42 04 01 08 52  28 80 F8 FF FF 7F F8 FF  )..B...R(.......
0DD0: FF 7F 73 30 32 30 45 28  80 F8 FF FF 7F F8 FF FF  ..s020E(........
0DE0: 7F 73 30 32 31 01 80 29  0F E8 42 04 01 27 29 0F  .s021..)..B..').
0DF0: E7 42 04 01 07 7C 00 E7  42 04 01 2B E7 42 04 01  .B...|..B..+.B..
0E00: 5D 80 7C 01 E7 42 04 01  29 0F E7 42 04 01 08 29  ].|..B..)..B...)
0E10: 0F E8 42 04 01 28 52 28  80 F8 FF FF 7F F8 FF FF  ..B..(R(........
0E20: 7F 73 30 32 31 45 28 80  F8 FF FF 7F F8 FF FF 7F  .s021E(.........
0E30: 73 30 32 37 01 80 29 0F  E8 42 04 01 29 29 0F E6  s027..)..B..))..
0E40: 42 04 01 09 2B E8 42 04  01 5E 80 1C 33 80 79 00  B...+.B..^..3.y.
0E50: E6 42 04 01 E7 42 04 01  23 29 0F E8 42 04 01 2A  .B...B..#)..B..*
0E60: 29 0F E6 42 04 01 0A 2B  E6 42 04 01 5F 80 23 52  )..B...+.B.._.#R
0E70: 28 80 F8 FF FF 7F F8 FF  FF 7F 73 30 32 37 45 28  (.........s027E(
0E80: 80 F8 FF FF 7F F8 FF FF  7F 73 30 32 32 01 80 29  .........s022..)
0E90: 0F E8 42 04 01 27 2B E8  42 04 01 60 80 1C 33 80  ..B..'+.B..`..3.
0EA0: 79 00 E6 42 04 01 E8 42  04 01 27 0F A4 42 04 01  y..B...B..'..B..
0EB0: 45 1C 06 80 27 0F A3 42  04 01 44 1C 61 80 23 29  E...'..B..D.a.#)
0EC0: 0F E8 42 04 01 28 6C A3  42 04 01 01 80 03 80 6C  ..B..(l.B......l
0ED0: A4 42 04 01 01 80 03 80  1C 03 80 52 28 80 F8 FF  .B.........R(...
0EE0: FF 7F F8 FF FF 7F 73 30  32 32 45 28 80 F8 FF FF  ......s022E(....
0EF0: 7F F8 FF FF 7F 73 30 32  33 01 80 79 00 F0 FF FF  .....s023..y....
0F00: 7F E7 42 04 01 4A E7 42  04 01 A3 42 04 01 6F 76  ..B..J.B...B..ov
0F10: E7 42 04 01 4A F0 FF FF  7F A3 42 04 01 29 0F E8  .B..J.....B..)..
0F20: 42 04 01 29 4A E8 42 04  01 E7 42 04 01 79 00 E6  B..)J.B...B..y..
0F30: 42 04 01 E7 42 04 01 2B  E7 42 04 01 62 80 29 0F  B...B..+.B..b.).
0F40: E8 42 04 01 2A 6F 76 E8  42 04 01 6F 76 F0 FF FF  .B..*ov.B..ov...
0F50: 7F 23 52 28 80 F8 FF FF  7F F8 FF FF 7F 73 30 32  .#R(.........s02
0F60: 33 45 28 80 F8 FF FF 7F  F8 FF FF 7F 73 30 32 34  3E(.........s024
0F70: 01 80 27 0F E8 42 04 01  37 79 00 E6 42 04 01 E8  ..'..B..7y..B...
0F80: 42 04 01 79 00 F0 FF FF  7F E8 42 04 01 79 00 E7  B..y......B..y..
0F90: 42 04 01 E8 42 04 01 2B  E8 42 04 01 63 80 23 2A  B...B..+.B..c.#*
0FA0: 0F E8 42 04 01 2A 0F A3  42 04 01 2A 0F A4 42 04  ..B..*..B..*..B.
0FB0: 01 27 0F E8 42 04 01 38  52 28 80 F8 FF FF 7F F8  .'..B..8R(......
0FC0: FF FF 7F 73 30 32 34 45  28 80 F8 FF FF 7F F8 FF  ...s024E(.......
0FD0: FF 7F 73 30 32 35 01 80  27 0F E6 42 04 01 20 1C  ..s025..'..B.. .
0FE0: 30 80 27 0F E7 42 04 01  4A 2B E7 42 04 01 64 80  0.'..B..J+.B..d.
0FF0: 23 2A 0F E7 42 04 01 27  0F E7 42 04 01 4B 1C 2A  #*..B..'..B..K.*
1000: 80 52 28 80 F8 FF FF 7F  F8 FF FF 7F 73 30 32 35  .R(.........s025
1010: 02 09 10 27 80 00 2C 10  45 28 80 F8 FF FF 7F F8  ...'..,.E(......
1020: FF FF 7F 73 30 33 32 01  80 01 59 10 02 09 10 29  ...s032...Y....)
1030: 80 00 48 10 45 28 80 F8  FF FF 7F F8 FF FF 7F 73  ..H.E(.........s
1040: 30 33 32 01 80 01 59 10  45 28 80 F8 FF FF 7F F8  032...Y.E(......
1050: FF FF 7F 73 30 32 36 01  80 2B E6 42 04 01 65 80  ...s026..+.B..e.
1060: 79 00 F0 FF FF 7F E6 42  04 01 4B F0 FF FF 7F 66  y......B..K....f
1070: 80 6F 76 F0 FF FF 7F 23  2A 0F E6 42 04 01 7B E6  .ov....#*..B..{.
1080: 42 04 01 27 0F E6 42 04  01 21 1C 06 80 02 09 10  B..'..B..!......
1090: 27 80 00 A7 10 52 28 80  F8 FF FF 7F F8 FF FF 7F  '....R(.........
10A0: 73 30 33 32 01 D0 10 02  09 10 29 80 00 C1 10 52  s032......)....R
10B0: 28 80 F8 FF FF 7F F8 FF  FF 7F 73 30 33 32 01 D0  (.........s032..
10C0: 10 52 28 80 F8 FF FF 7F  F8 FF FF 7F 73 30 32 36  .R(.........s026
10D0: 45 28 80 F8 FF FF 7F F8  FF FF 7F 73 30 32 38 01  E(.........s028.
10E0: 80 1C 06 80 5D 01 80 08  80 4A F0 FF FF 7F E6 42  ....]....J.....B
10F0: 04 01 6F 76 F0 FF FF 7F  1C 06 80 1A 64 00 1C 06  ..ov........d...
1100: 80 52 28 80 F8 FF FF 7F  F8 FF FF 7F 73 30 32 38  .R(.........s028
1110: 2A 0F E6 42 04 01 2A 0F  E7 42 04 01 2A 0F E8 42  *..B..*..B..*..B
1120: 04 01 5C 00 67 80 5C 01  67 80 5C 02 68 80 5C 03  ..\.g.\.g.\.h.\.
1130: 69 80 9A 5D 26 80 03 80  1C 6A 80 AB 11 01 80 1C  i..]&....j......
1140: 03 80 46 00 45 00 80 F8  FF FF 7F F8 FF FF 7F 66  ..F.E..........f
1150: 64 69 32 01 80 21 00                              di2..!.         
```

#### Opcodes

```
  0: 0x0292 [0x42] SET_CLI_EVENT_CANCEL_DATA()
  1: 0x0293 [0x5D] SET_MUSIC_VOLUME(volume=0*, fade_time=300*)
  2: 0x0298 [0x1A] CALL_SUBROUTINE(address=0x0064)
  3: 0x029B [0x46] CAMERA_CONTROL: Disable user control
  4: 0x029D [0x38] SET_CLIENT_EVENT_MODE(mode=147*)
  5: 0x02A0 [0x2F] Ghatsad (ID: 17056486/0x010442E6)->Render.Flags0 &= ~0x80000 // Bit 19
  6: 0x02A6 [0x2F] Abda-Lurabda (ID: 17056487/0x010442E7)->Render.Flags0 &= ~0x80000 // Bit 19
  7: 0x02AC [0x2F] Tateeya (ID: 17056488/0x010442E8)->Render.Flags0 &= ~0x80000 // Bit 19
  8: 0x02B2 [0x2F] Vavaroon (ID: 17056419/0x010442A3)->Render.Flags0 &= ~0x80000 // Bit 19
  9: 0x02B8 [0x2F] Gogoroon (ID: 17056420/0x010442A4)->Render.Flags0 &= ~0x80000 // Bit 19
 10: 0x02BE [0x4E] SET_ENTITY_HIDE_FLAG: Show Ghatsad (ID: 17056486/0x010442E6)
 11: 0x02C4 [0x4E] SET_ENTITY_HIDE_FLAG: Show Abda-Lurabda (ID: 17056487/0x010442E7)
 12: 0x02CA [0x4E] SET_ENTITY_HIDE_FLAG: Show Tateeya (ID: 17056488/0x010442E8)
 13: 0x02D0 [0x4E] SET_ENTITY_HIDE_FLAG: Show Vavaroon (ID: 17056419/0x010442A3)
 14: 0x02D6 [0x4E] SET_ENTITY_HIDE_FLAG: Show Gogoroon (ID: 17056420/0x010442A4)
 15: 0x02DC [0x4E] SET_ENTITY_HIDE_FLAG: Show LocalPlayer
 16: 0x02E2 [0x92] Vavaroon (ID: 17056419/0x010442A3)->Render.Flags3 ^= 0x01
 17: 0x02E8 [0x92] Gogoroon (ID: 17056420/0x010442A4)->Render.Flags3 ^= 0x01
 18: 0x02EE [0x94] Ghatsad (ID: 17056486/0x010442E6)->Render.Flags3 ^= 0x01
 19: 0x02F4 [0x94] Abda-Lurabda (ID: 17056487/0x010442E7)->Render.Flags3 ^= 0x01
 20: 0x02FA [0x94] Tateeya (ID: 17056488/0x010442E8)->Render.Flags3 ^= 0x01
 21: 0x0300 [0x94] Vavaroon (ID: 17056419/0x010442A3)->Render.Flags3 ^= 0x01
 22: 0x0306 [0x94] Gogoroon (ID: 17056420/0x010442A4)->Render.Flags3 ^= 0x01
 23: 0x030C [0x94] LocalPlayer->Render.Flags3 ^= 0x01
 24: 0x0312 [0xBA] SET_ENTITY_POSITION(entity_id=Ghatsad (ID: 17056486/0x010442E6), pos_x=60.978*, pos_z=118.455*, pos_y=39.822*, direction=63.0°*)
 25: 0x031F [0xBA] SET_ENTITY_POSITION(entity_id=Abda-Lurabda (ID: 17056487/0x010442E7), pos_x=59.340*, pos_z=125.599*, pos_y=37.946*, direction=47.6°*)
 26: 0x032C [0xBA] SET_ENTITY_POSITION(entity_id=Tateeya (ID: 17056488/0x010442E8), pos_x=59.588*, pos_z=118.593*, pos_y=39.870*, direction=72.3°*)
 27: 0x0339 [0xBA] SET_ENTITY_POSITION(entity_id=Wawaroon (ID: 17056408/0x01044298), pos_x=54.039*, pos_z=99.163*, pos_y=36.006*, direction=216.9°*)
 28: 0x0346 [0xBA] SET_ENTITY_POSITION(entity_id=Vavaroon (ID: 17056419/0x010442A3), pos_x=47.707*, pos_z=100.823*, pos_y=36.339*, direction=2.3°*)
 29: 0x0353 [0xBA] SET_ENTITY_POSITION(entity_id=Gogoroon (ID: 17056420/0x010442A4), pos_x=49.122*, pos_z=99.902*, pos_y=36.298*, direction=353.0°*)
 30: 0x0360 [0xBA] SET_ENTITY_POSITION(entity_id=LocalPlayer, pos_x=59.031*, pos_z=120.908*, pos_y=39.872*, direction=60.8°*)
 31: 0x036D [0x80] LOAD_WAIT(entity=Ghatsad (ID: 17056486/0x010442E6))
 32: 0x0372 [0x80] LOAD_WAIT(entity=Abda-Lurabda (ID: 17056487/0x010442E7))
 33: 0x0377 [0x80] LOAD_WAIT(entity=Tateeya (ID: 17056488/0x010442E8))
 34: 0x037C [0x80] LOAD_WAIT(entity=Vavaroon (ID: 17056419/0x010442A3))
 35: 0x0381 [0x80] LOAD_WAIT(entity=Gogoroon (ID: 17056420/0x010442A4))
 36: 0x0386 [0x80] LOAD_WAIT(entity=LocalPlayer)
 37: 0x038B [0x29] REQ_SET_WAIT(priority=0x0F, entity_id=LocalPlayer, tag_num=0x27)
 38: 0x0392 [0x5C] MUSIC_CONTROL: Set Idle (Day) music to song 0*
 39: 0x0396 [0x5C] MUSIC_CONTROL: Set Idle (Night) music to song 0*
 40: 0x039A [0x9A] WAIT_MUSIC_SERVER()
 41: 0x039B [0x5D] SET_MUSIC_VOLUME(volume=127*, fade_time=1*)
 42: 0x03A0 [0x6C] FADE_ENTITY_COLOR(entity_id=Abda-Lurabda (ID: 17056487/0x010442E7), end_alpha=0*, fade_time=0*)
 43: 0x03A9 [0x6C] FADE_ENTITY_COLOR(entity_id=Tateeya (ID: 17056488/0x010442E8), end_alpha=0*, fade_time=0*)
 44: 0x03B2 [0x6C] FADE_ENTITY_COLOR(entity_id=Ghatsad (ID: 17056486/0x010442E6), end_alpha=0*, fade_time=0*)
 45: 0x03BB [0x1C] WAIT(2* ticks)
 46: 0x03BE [0x27] REQ_SET(priority=0x0F, entity_id=LocalPlayer, tag_num=0x28)
 47: 0x03C5 [0x02] IF !(Work_Zone[9] == 5*) GOTO 0x03E1
 48: 0x03CD [0x45] LOAD_SCHEDULED_TASK: Load scheduler "s030" with entities [EventEntity, EventEntity], work=[879*, 0*]
 49: 0x03DE [0x01] GOTO 0x040E
 50: 0x03E1 [0x02] IF !(Work_Zone[9] == 6*) GOTO 0x03FD
 51: 0x03E9 [0x45] LOAD_SCHEDULED_TASK: Load scheduler "s030" with entities [EventEntity, EventEntity], work=[879*, 0*]
 52: 0x03FA [0x01] GOTO 0x040E
 53: 0x03FD [0x45] LOAD_SCHEDULED_TASK: Load scheduler "s000" with entities [EventEntity, EventEntity], work=[879*, 0*]

SUBROUTINE_040E:
 54: 0x040E [0x1A] CALL_SUBROUTINE(address=0x0043)
 55: 0x0411 [0x1C] WAIT(90* ticks)
 56: 0x0414 [0x4A] Abda-Lurabda (ID: 17056487/0x010442E7) looks at LocalPlayer
 57: 0x041D [0x6F] WAIT_FRAME_DELAY: Yield until WaitTime reaches zero
 58: 0x041E [0x76] CHECK_ENTITY_RENDER_FLAGS: Wait until Abda-Lurabda (ID: 17056487/0x010442E7) Render.Flags0 and Render.Flags3 conditions are met
 59: 0x0423 [0x4A] Tateeya (ID: 17056488/0x010442E8) looks at LocalPlayer
 60: 0x042C [0x6F] WAIT_FRAME_DELAY: Yield until WaitTime reaches zero
 61: 0x042D [0x76] CHECK_ENTITY_RENDER_FLAGS: Wait until Tateeya (ID: 17056488/0x010442E8) Render.Flags0 and Render.Flags3 conditions are met
 62: 0x0432 [0x4A] Ghatsad (ID: 17056486/0x010442E6) looks at LocalPlayer
 63: 0x043B [0x6F] WAIT_FRAME_DELAY: Yield until WaitTime reaches zero
 64: 0x043C [0x76] CHECK_ENTITY_RENDER_FLAGS: Wait until Ghatsad (ID: 17056486/0x010442E6) Render.Flags0 and Render.Flags3 conditions are met
 65: 0x0441 [0x02] IF !(Work_Zone[9] == 5*) GOTO 0x045B
 66: 0x0449 [0x52] END_LOAD_SCHEDULER: End scheduler "s030" with entities [EventEntity, EventEntity], work=879*
 67: 0x0458 [0x01] GOTO 0x0484
 68: 0x045B [0x02] IF !(Work_Zone[9] == 6*) GOTO 0x0475
 69: 0x0463 [0x52] END_LOAD_SCHEDULER: End scheduler "s030" with entities [EventEntity, EventEntity], work=879*
 70: 0x0472 [0x01] GOTO 0x0484
 71: 0x0475 [0x52] END_LOAD_SCHEDULER: End scheduler "s000" with entities [EventEntity, EventEntity], work=879*

SUBROUTINE_0484:
 72: 0x0484 [0x02] IF !(Work_Zone[9] == 8*) GOTO 0x04A0
 73: 0x048C [0x45] LOAD_SCHEDULED_TASK: Load scheduler "s001" with entities [EventEntity, EventEntity], work=[879*, 0*]
 74: 0x049D [0x01] GOTO 0x04B1
 75: 0x04A0 [0x45] LOAD_SCHEDULED_TASK: Load scheduler "s033" with entities [EventEntity, EventEntity], work=[879*, 0*]

SUBROUTINE_04B1:
 76: 0x04B1 [0x1C] WAIT(120* ticks)
 77: 0x04B4 [0x6C] FADE_ENTITY_COLOR(entity_id=Abda-Lurabda (ID: 17056487/0x010442E7), end_alpha=128*, fade_time=0*)
 78: 0x04BD [0x27] REQ_SET(priority=0x0F, entity_id=Abda-Lurabda (ID: 17056487/0x010442E7), tag_num=0x48)
 79: 0x04C4 [0x27] REQ_SET(priority=0x0F, entity_id=Tateeya (ID: 17056488/0x010442E8), tag_num=0x36)
 80: 0x04CB [0x1C] WAIT(5* ticks)
 81: 0x04CE [0x02] IF !(Work_Zone[9] == 8*) GOTO 0x04E8
 82: 0x04D6 [0x52] END_LOAD_SCHEDULER: End scheduler "s001" with entities [EventEntity, EventEntity], work=879*
 83: 0x04E5 [0x01] GOTO 0x04F7
 84: 0x04E8 [0x52] END_LOAD_SCHEDULER: End scheduler "s033" with entities [EventEntity, EventEntity], work=879*

SUBROUTINE_04F7:
 85: 0x04F7 [0x45] LOAD_SCHEDULED_TASK: Load scheduler "s002" with entities [EventEntity, EventEntity], work=[879*, 0*]
 86: 0x0508 [0x1C] WAIT(5* ticks)
 87: 0x050B [0x6C] FADE_ENTITY_COLOR(entity_id=Tateeya (ID: 17056488/0x010442E8), end_alpha=128*, fade_time=0*)
 88: 0x0514 [0x1C] WAIT(25* ticks)
 89: 0x0517 [0x03] Work_Zone[2] = (LocalPlayer->Render.Flags01 >> 25) & 1
 90: 0x051C [0x2B] Abda-Lurabda (ID: 17056487/0x010442E7) [9011*]:
    → "Ah, there you are, <Player>!"
 91: 0x0523 [0x1C] WAIT(30* ticks)
 92: 0x0526 [0x1C] WAIT(1* ticks)
 93: 0x0529 [0x52] END_LOAD_SCHEDULER: End scheduler "s002" with entities [EventEntity, EventEntity], work=879*
 94: 0x0538 [0x45] LOAD_SCHEDULED_TASK: Load scheduler "s003" with entities [EventEntity, EventEntity], work=[879*, 0*]
 95: 0x0549 [0x5C] MUSIC_CONTROL: Set Idle (Day) music to song 120*
 96: 0x054D [0x5C] MUSIC_CONTROL: Set Idle (Night) music to song 120*
 97: 0x0551 [0x9A] WAIT_MUSIC_SERVER()
 98: 0x0552 [0x5D] SET_MUSIC_VOLUME(volume=127*, fade_time=1*)
 99: 0x0557 [0x1C] WAIT(60* ticks)
100: 0x055A [0x2A] GET_REQ_LEVEL(level=15, entity_id=LocalPlayer)
101: 0x0560 [0x4A] LocalPlayer looks at Abda-Lurabda (ID: 17056487/0x010442E7)
102: 0x0569 [0x6F] WAIT_FRAME_DELAY: Yield until WaitTime reaches zero
103: 0x056A [0x76] CHECK_ENTITY_RENDER_FLAGS: Wait until LocalPlayer Render.Flags0 and Render.Flags3 conditions are met
104: 0x056F [0x2A] GET_REQ_LEVEL(level=15, entity_id=Abda-Lurabda (ID: 17056487/0x010442E7))
105: 0x0575 [0x52] END_LOAD_SCHEDULER: End scheduler "s003" with entities [EventEntity, EventEntity], work=879*
106: 0x0584 [0x02] IF !(Work_Zone[9] == 5*) GOTO 0x05A0
107: 0x058C [0x45] LOAD_SCHEDULED_TASK: Load scheduler "s031" with entities [EventEntity, EventEntity], work=[879*, 0*]
108: 0x059D [0x01] GOTO 0x05CD
109: 0x05A0 [0x02] IF !(Work_Zone[9] == 6*) GOTO 0x05BC
110: 0x05A8 [0x45] LOAD_SCHEDULED_TASK: Load scheduler "s031" with entities [EventEntity, EventEntity], work=[879*, 0*]
111: 0x05B9 [0x01] GOTO 0x05CD
112: 0x05BC [0x45] LOAD_SCHEDULED_TASK: Load scheduler "s009" with entities [EventEntity, EventEntity], work=[879*, 0*]

SUBROUTINE_05CD:
113: 0x05CD [0x79] LocalPlayer looks at Tateeya (ID: 17056488/0x010442E8) (Basic look)
114: 0x05D7 [0x23] WAIT_FOR_DIALOG_INTERACTION
115: 0x05D8 [0x2B] Tateeya (ID: 17056488/0x010442E8) [9012*]:
    → "Sorry to keep you waiting. We've finished making the preparations for our research."
116: 0x05DF [0x23] WAIT_FOR_DIALOG_INTERACTION
117: 0x05E0 [0x2A] GET_REQ_LEVEL(level=15, entity_id=Tateeya (ID: 17056488/0x010442E8))
118: 0x05E6 [0x6C] FADE_ENTITY_COLOR(entity_id=Ghatsad (ID: 17056486/0x010442E6), end_alpha=128*, fade_time=0*)
119: 0x05EF [0x1C] WAIT(1* ticks)
120: 0x05F2 [0x02] IF !(Work_Zone[9] == 5*) GOTO 0x060C
121: 0x05FA [0x52] END_LOAD_SCHEDULER: End scheduler "s031" with entities [EventEntity, EventEntity], work=879*
122: 0x0609 [0x01] GOTO 0x0635
123: 0x060C [0x02] IF !(Work_Zone[9] == 6*) GOTO 0x0626
124: 0x0614 [0x52] END_LOAD_SCHEDULER: End scheduler "s031" with entities [EventEntity, EventEntity], work=879*
125: 0x0623 [0x01] GOTO 0x0635
126: 0x0626 [0x52] END_LOAD_SCHEDULER: End scheduler "s009" with entities [EventEntity, EventEntity], work=879*

SUBROUTINE_0635:
127: 0x0635 [0x45] LOAD_SCHEDULED_TASK: Load scheduler "s004" with entities [EventEntity, EventEntity], work=[879*, 0*]
128: 0x0646 [0x27] REQ_SET(priority=0x0F, entity_id=Ghatsad (ID: 17056486/0x010442E6), tag_num=0x1F)
129: 0x064D [0x2B] Ghatsad (ID: 17056486/0x010442E6) [9013*]:
    → "I have been on numerous research trips, but these two are quite new to the process."
130: 0x0654 [0x1C] WAIT(20* ticks)
131: 0x0657 [0x79] LocalPlayer looks at Ghatsad (ID: 17056486/0x010442E6) (Basic look)
132: 0x0661 [0x4A] Abda-Lurabda (ID: 17056487/0x010442E7) looks at Ghatsad (ID: 17056486/0x010442E6)
133: 0x066A [0x4A] Tateeya (ID: 17056488/0x010442E8) looks at Ghatsad (ID: 17056486/0x010442E6)
134: 0x0673 [0x6F] WAIT_FRAME_DELAY: Yield until WaitTime reaches zero
135: 0x0674 [0x76] CHECK_ENTITY_RENDER_FLAGS: Wait until Tateeya (ID: 17056488/0x010442E8) Render.Flags0 and Render.Flags3 conditions are met
136: 0x0679 [0x6F] WAIT_FRAME_DELAY: Yield until WaitTime reaches zero
137: 0x067A [0x76] CHECK_ENTITY_RENDER_FLAGS: Wait until Abda-Lurabda (ID: 17056487/0x010442E7) Render.Flags0 and Render.Flags3 conditions are met
138: 0x067F [0x23] WAIT_FOR_DIALOG_INTERACTION
139: 0x0680 [0x52] END_LOAD_SCHEDULER: End scheduler "s004" with entities [EventEntity, EventEntity], work=879*
140: 0x068F [0x45] LOAD_SCHEDULED_TASK: Load scheduler "s005" with entities [EventEntity, EventEntity], work=[879*, 0*]
141: 0x06A0 [0x2B] Ghatsad (ID: 17056486/0x010442E6) [9014*]:
    → "Even when I tell them to remain calm and keep their wits about them, they don't seem to listen. Therefore, I'd like you to keep an eye out for any trouble."
142: 0x06A7 [0x2A] GET_REQ_LEVEL(level=15, entity_id=Ghatsad (ID: 17056486/0x010442E6))
143: 0x06AD [0x29] REQ_SET_WAIT(priority=0x0F, entity_id=Ghatsad (ID: 17056486/0x010442E6), tag_num=0x16)
144: 0x06B4 [0x23] WAIT_FOR_DIALOG_INTERACTION
145: 0x06B5 [0x4A] Abda-Lurabda (ID: 17056487/0x010442E7) looks at Ghatsad (ID: 17056486/0x010442E6)
146: 0x06BE [0x4A] Tateeya (ID: 17056488/0x010442E8) looks at Ghatsad (ID: 17056486/0x010442E6)
147: 0x06C7 [0x2B] Ghatsad (ID: 17056486/0x010442E6) [9015*]:
    → "Also, in the event we're forced to fight, try not to damage the ruins."
148: 0x06CE [0x23] WAIT_FOR_DIALOG_INTERACTION
149: 0x06CF [0x6F] WAIT_FRAME_DELAY: Yield until WaitTime reaches zero
150: 0x06D0 [0x76] CHECK_ENTITY_RENDER_FLAGS: Wait until Tateeya (ID: 17056488/0x010442E8) Render.Flags0 and Render.Flags3 conditions are met
151: 0x06D5 [0x6F] WAIT_FRAME_DELAY: Yield until WaitTime reaches zero
152: 0x06D6 [0x76] CHECK_ENTITY_RENDER_FLAGS: Wait until Abda-Lurabda (ID: 17056487/0x010442E7) Render.Flags0 and Render.Flags3 conditions are met
153: 0x06DB [0x29] REQ_SET_WAIT(priority=0x0F, entity_id=Ghatsad (ID: 17056486/0x010442E6), tag_num=0x17)
154: 0x06E2 [0x29] REQ_SET_WAIT(priority=0x0F, entity_id=Ghatsad (ID: 17056486/0x010442E6), tag_num=0x18)
155: 0x06E9 [0x52] END_LOAD_SCHEDULER: End scheduler "s005" with entities [EventEntity, EventEntity], work=879*
156: 0x06F8 [0x45] LOAD_SCHEDULED_TASK: Load scheduler "s006" with entities [EventEntity, EventEntity], work=[879*, 0*]
157: 0x0709 [0x29] REQ_SET_WAIT(priority=0x0F, entity_id=Abda-Lurabda (ID: 17056487/0x010442E7), tag_num=0x07)
158: 0x0710 [0x2B] Abda-Lurabda (ID: 17056487/0x010442E7) [9016*]:
    → "Um, Mister Ghatsad!? I have a question!"
159: 0x0717 [0x1C] WAIT(10* ticks)
160: 0x071A [0x79] LocalPlayer looks at Abda-Lurabda (ID: 17056487/0x010442E7) (Basic look)
161: 0x0724 [0x79] Ghatsad (ID: 17056486/0x010442E6) looks at Abda-Lurabda (ID: 17056487/0x010442E7) (Basic look)
162: 0x072E [0x79] Tateeya (ID: 17056488/0x010442E8) looks at Abda-Lurabda (ID: 17056487/0x010442E7) (Basic look)
163: 0x0738 [0x23] WAIT_FOR_DIALOG_INTERACTION
164: 0x0739 [0x29] REQ_SET_WAIT(priority=0x0F, entity_id=Abda-Lurabda (ID: 17056487/0x010442E7), tag_num=0x08)
165: 0x0740 [0x29] REQ_SET_WAIT(priority=0x0F, entity_id=Ghatsad (ID: 17056486/0x010442E6), tag_num=0x19)
166: 0x0747 [0x2B] Ghatsad (ID: 17056486/0x010442E6) [9017*]:
    → "What is it?"
167: 0x074E [0x23] WAIT_FOR_DIALOG_INTERACTION
168: 0x074F [0x29] REQ_SET_WAIT(priority=0x0F, entity_id=Abda-Lurabda (ID: 17056487/0x010442E7), tag_num=0x01)
169: 0x0756 [0x2B] Abda-Lurabda (ID: 17056487/0x010442E7) [9018*]:
    → "So, you want us to search these ruins and try to find something nobody's ever discovered before, right?"
170: 0x075D [0x23] WAIT_FOR_DIALOG_INTERACTION
171: 0x075E [0x27] REQ_SET(priority=0x0F, entity_id=Abda-Lurabda (ID: 17056487/0x010442E7), tag_num=0x02)
172: 0x0765 [0x7B] Ghatsad (ID: 17056486/0x010442E6) stops talking
173: 0x076A [0x27] REQ_SET(priority=0x0F, entity_id=Ghatsad (ID: 17056486/0x010442E6), tag_num=0x0C)
174: 0x0771 [0x2B] Ghatsad (ID: 17056486/0x010442E6) [9019*]:
    → "That's correct. The two of you have studied the basics of the Olduum civilization, correct?"
175: 0x0778 [0x2A] GET_REQ_LEVEL(level=15, entity_id=Ghatsad (ID: 17056486/0x010442E6))
176: 0x077E [0x79] Ghatsad (ID: 17056486/0x010442E6) looks at Tateeya (ID: 17056488/0x010442E8) (Basic look)
177: 0x0788 [0x23] WAIT_FOR_DIALOG_INTERACTION
178: 0x0789 [0x2A] GET_REQ_LEVEL(level=15, entity_id=Abda-Lurabda (ID: 17056487/0x010442E7))
179: 0x078F [0x52] END_LOAD_SCHEDULER: End scheduler "s006" with entities [EventEntity, EventEntity], work=879*
180: 0x079E [0x45] LOAD_SCHEDULED_TASK: Load scheduler "s007" with entities [EventEntity, EventEntity], work=[879*, 0*]
181: 0x07AF [0x29] REQ_SET_WAIT(priority=0x0F, entity_id=Tateeya (ID: 17056488/0x010442E8), tag_num=0x2C)
182: 0x07B6 [0x29] REQ_SET_WAIT(priority=0x0F, entity_id=Abda-Lurabda (ID: 17056487/0x010442E7), tag_num=0x1F)
183: 0x07BD [0x2B] Abda-Lurabda (ID: 17056487/0x010442E7) [9020*]:
    → "Of course! I must've read the legend of Ramuh about a thousand times!"
184: 0x07C4 [0x1C] WAIT(20* ticks)
185: 0x07C7 [0x79] Ghatsad (ID: 17056486/0x010442E6) looks at Abda-Lurabda (ID: 17056487/0x010442E7) (Basic look)
186: 0x07D1 [0x29] REQ_SET_WAIT(priority=0x0F, entity_id=Tateeya (ID: 17056488/0x010442E8), tag_num=0x2D)
187: 0x07D8 [0x79] Tateeya (ID: 17056488/0x010442E8) looks at Ghatsad (ID: 17056486/0x010442E6) (Basic look)
188: 0x07E2 [0x23] WAIT_FOR_DIALOG_INTERACTION
189: 0x07E3 [0x29] REQ_SET_WAIT(priority=0x0F, entity_id=Abda-Lurabda (ID: 17056487/0x010442E7), tag_num=0x20)
190: 0x07EA [0x29] REQ_SET_WAIT(priority=0x0F, entity_id=Tateeya (ID: 17056488/0x010442E8), tag_num=0x23)
191: 0x07F1 [0x2B] Tateeya (ID: 17056488/0x010442E8) [9021*]:
    → "The Olduum civilization was a maritime nation located near the waters of the Gugru Blue several thousand years ago."
192: 0x07F8 [0x1C] WAIT(20* ticks)
193: 0x07FB [0x79] Abda-Lurabda (ID: 17056487/0x010442E7) looks at Tateeya (ID: 17056488/0x010442E8) (Basic look)
194: 0x0805 [0x79] Ghatsad (ID: 17056486/0x010442E6) looks at Tateeya (ID: 17056488/0x010442E8) (Basic look)
195: 0x080F [0x79] LocalPlayer looks at Tateeya (ID: 17056488/0x010442E8) (Basic look)
196: 0x0819 [0x23] WAIT_FOR_DIALOG_INTERACTION
197: 0x081A [0x5D] SET_MUSIC_VOLUME(volume=0*, fade_time=300*)
198: 0x081F [0x1A] CALL_SUBROUTINE(address=0x0064)
199: 0x0822 [0x1C] WAIT(30* ticks)
200: 0x0825 [0x52] END_LOAD_SCHEDULER: End scheduler "s007" with entities [EventEntity, EventEntity], work=879*
201: 0x0834 [0x48] [System] [7391*]:
    → ""
202: 0x0837 [0x23] WAIT_FOR_DIALOG_INTERACTION
203: 0x0838 [0x1A] CALL_SUBROUTINE(address=0x020B)
204: 0x083B [0x5C] MUSIC_CONTROL: Set Idle (Day) music to song 199*
205: 0x083F [0x5C] MUSIC_CONTROL: Set Idle (Night) music to song 199*
206: 0x0843 [0x9A] WAIT_MUSIC_SERVER()
207: 0x0844 [0x5D] SET_MUSIC_VOLUME(volume=127*, fade_time=1*)
208: 0x0849 [0x1C] WAIT(60* ticks)
209: 0x084C [0x89] OPEN_MAP(map_id=0x0000803F)
210: 0x084F [0x1C] WAIT(60* ticks)
211: 0x0852 [0xB4] UI_WINDOW_STRING_HANDLER(case=0x14 - Update map window values, work_offset1=60000*, work_offset2=4294867296*, work_offset3=1500*, work_offset4=0*, work_offset5=1*)
212: 0x085E [0xB4] UI_WINDOW_STRING_HANDLER(case=0x14 - Update map window values, work_offset1=0*, work_offset2=4294947296*, work_offset3=1000*, work_offset4=300*, work_offset5=1*)
213: 0x086A [0x03] Work_Zone[2] = 600*
214: 0x086F [0x27] REQ_SET(priority=0x10, entity_id=LocalPlayer, tag_num=0x26)
215: 0x0876 [0x1A] CALL_SUBROUTINE(address=0x01F9)
216: 0x0879 [0x1C] WAIT(120* ticks)
217: 0x087C [0x2B] Tateeya (ID: 17056488/0x010442E8) [9022*]:
    → "Within the nation lived a great individual, one who created numerous items and vehicles powered by lightning."
218: 0x0883 [0x23] WAIT_FOR_DIALOG_INTERACTION
219: 0x0884 [0x1C] WAIT(60* ticks)
220: 0x0887 [0x2B] Tateeya (ID: 17056488/0x010442E8) [9023*]:
    → "Thanks to those wondrous inventions, their civilization developed way beyond that of the surrounding nations."
221: 0x088E [0x23] WAIT_FOR_DIALOG_INTERACTION
222: 0x088F [0x29] REQ_SET_WAIT(priority=0x0F, entity_id=Tateeya (ID: 17056488/0x010442E8), tag_num=0x24)
223: 0x0896 [0x29] REQ_SET_WAIT(priority=0x0F, entity_id=Tateeya (ID: 17056488/0x010442E8), tag_num=0x25)
224: 0x089D [0x1A] CALL_SUBROUTINE(address=0x020B)
225: 0x08A0 [0x8A] CLOSE_MAP()
226: 0x08A1 [0xB4] UI_WINDOW_STRING_HANDLER(case=0x15 - Test map window validity)
227: 0x08A3 [0x1A] CALL_SUBROUTINE(address=0x01F9)
228: 0x08A6 [0x48] [System] [7391*]:
    → ""
229: 0x08A9 [0x45] LOAD_SCHEDULED_TASK: Load scheduler "s008" with entities [EventEntity, EventEntity], work=[879*, 0*]
230: 0x08BA [0x7B] Abda-Lurabda (ID: 17056487/0x010442E7) stops talking
231: 0x08BF [0x27] REQ_SET(priority=0x0F, entity_id=Abda-Lurabda (ID: 17056487/0x010442E7), tag_num=0x49)
232: 0x08C6 [0x1A] CALL_SUBROUTINE(address=0x0043)
233: 0x08C9 [0x03] Work_Zone[2] = (LocalPlayer->Render.Flags01 >> 25) & 1
234: 0x08CE [0x2B] Abda-Lurabda (ID: 17056487/0x010442E7) [9024*]:
    → "However, their society eventually began to decay. I suppose you know the reason why?"
235: 0x08D5 [0x1C] WAIT(10* ticks)
236: 0x08D8 [0x79] LocalPlayer looks at Abda-Lurabda (ID: 17056487/0x010442E7) (Basic look)
237: 0x08E2 [0x79] Ghatsad (ID: 17056486/0x010442E6) looks at Abda-Lurabda (ID: 17056487/0x010442E7) (Basic look)
238: 0x08EC [0x29] REQ_SET_WAIT(priority=0x0F, entity_id=Tateeya (ID: 17056488/0x010442E8), tag_num=0x26)
239: 0x08F3 [0x4A] Tateeya (ID: 17056488/0x010442E8) looks at LocalPlayer
240: 0x08FC [0x6F] WAIT_FRAME_DELAY: Yield until WaitTime reaches zero
241: 0x08FD [0x76] CHECK_ENTITY_RENDER_FLAGS: Wait until Tateeya (ID: 17056488/0x010442E8) Render.Flags0 and Render.Flags3 conditions are met
242: 0x0902 [0x4A] LocalPlayer looks at Abda-Lurabda (ID: 17056487/0x010442E7)
243: 0x090B [0x6F] WAIT_FRAME_DELAY: Yield until WaitTime reaches zero
244: 0x090C [0x76] CHECK_ENTITY_RENDER_FLAGS: Wait until LocalPlayer Render.Flags0 and Render.Flags3 conditions are met
245: 0x0911 [0x23] WAIT_FOR_DIALOG_INTERACTION
246: 0x0912 [0x2A] GET_REQ_LEVEL(level=15, entity_id=Abda-Lurabda (ID: 17056487/0x010442E7))
247: 0x0918 [0x79] Ghatsad (ID: 17056486/0x010442E6) looks at LocalPlayer (Basic look)
248: 0x0922 [0x24] CREATE_DIALOG(message_id=9025*, default_option=0*, option_flags=0*)
    → "Do you know the reason? [Of course./I'm not sure.]"
249: 0x0929 [0x25] WAIT_DIALOG_SELECT()
250: 0x092A [0x02] IF !(Work_Zone[0] == 0*) GOTO 0x09CE
251: 0x0932 [0x6E] LocalPlayer uses emote 7*
252: 0x0939 [0x99] Wait for LocalPlayer animation to complete
253: 0x093E [0x1C] WAIT(40* ticks)
254: 0x0941 [0x02] IF !(Work_Zone[9] == 5*) GOTO 0x0951
255: 0x0949 [0x7B] Abda-Lurabda (ID: 17056487/0x010442E7) stops talking
256: 0x094E [0x01] GOTO 0x095E
257: 0x0951 [0x02] IF !(Work_Zone[9] == 6*) GOTO 0x095E
258: 0x0959 [0x7B] Abda-Lurabda (ID: 17056487/0x010442E7) stops talking

SUBROUTINE_095E:
259: 0x095E [0x29] REQ_SET_WAIT(priority=0x0F, entity_id=Abda-Lurabda (ID: 17056487/0x010442E7), tag_num=0x21)
260: 0x0965 [0x1C] WAIT(40* ticks)
261: 0x0968 [0x52] END_LOAD_SCHEDULER: End scheduler "s008" with entities [EventEntity, EventEntity], work=879*
262: 0x0977 [0x45] LOAD_SCHEDULED_TASK: Load scheduler "s011" with entities [EventEntity, EventEntity], work=[879*, 0*]
263: 0x0988 [0x4A] LocalPlayer looks at Tateeya (ID: 17056488/0x010442E8)
264: 0x0991 [0x2B] Abda-Lurabda (ID: 17056487/0x010442E7) [9026*]:
    → "Of course you do--mercenaries know everything..."
265: 0x0998 [0x23] WAIT_FOR_DIALOG_INTERACTION
266: 0x0999 [0x6F] WAIT_FRAME_DELAY: Yield until WaitTime reaches zero
267: 0x099A [0x76] CHECK_ENTITY_RENDER_FLAGS: Wait until LocalPlayer Render.Flags0 and Render.Flags3 conditions are met
268: 0x099F [0x03] Work_Zone[2] = 0*
269: 0x09A4 [0x29] REQ_SET_WAIT(priority=0x0F, entity_id=Abda-Lurabda (ID: 17056487/0x010442E7), tag_num=0x22)
270: 0x09AB [0x52] END_LOAD_SCHEDULER: End scheduler "s011" with entities [EventEntity, EventEntity], work=879*
271: 0x09BA [0x45] LOAD_SCHEDULED_TASK: Load scheduler "s012" with entities [EventEntity, EventEntity], work=[879*, 0*]
272: 0x09CB [0x01] GOTO 0x0B21
273: 0x09CE [0x02] IF !(Work_Zone[0] == 1*) GOTO 0x0B21
274: 0x09D6 [0x6E] LocalPlayer uses emote 6*
275: 0x09DD [0x99] Wait for LocalPlayer animation to complete
276: 0x09E2 [0x1C] WAIT(60* ticks)
277: 0x09E5 [0x7B] Abda-Lurabda (ID: 17056487/0x010442E7) stops talking
278: 0x09EA [0x7C] Abda-Lurabda (ID: 17056487/0x010442E7)->Render.Flags2 |= 0x00
279: 0x09F0 [0x66] LOAD_EXT_SCHEDULER_MAIN: Load scheduler "ehn0" with entities [Abda-Lurabda (ID: 17056487/0x010442E7), Abda-Lurabda (ID: 17056487/0x010442E7)], work=41*
280: 0x09FF [0x2B] Abda-Lurabda (ID: 17056487/0x010442E7) [9027*]:
    → "Heheheh... I'll tell you then."
281: 0x0A06 [0x23] WAIT_FOR_DIALOG_INTERACTION
282: 0x0A07 [0x52] END_LOAD_SCHEDULER: End scheduler "s008" with entities [EventEntity, EventEntity], work=879*
283: 0x0A16 [0x45] LOAD_SCHEDULED_TASK: Load scheduler "s019" with entities [EventEntity, EventEntity], work=[879*, 0*]
284: 0x0A27 [0x7B] Tateeya (ID: 17056488/0x010442E8) stops talking
285: 0x0A2C [0x29] REQ_SET_WAIT(priority=0x0F, entity_id=Tateeya (ID: 17056488/0x010442E8), tag_num=0x0D)
286: 0x0A33 [0x2B] Abda-Lurabda (ID: 17056487/0x010442E7) [9028*]:
    → "It's because that brilliant inventor disappeared from the country."
287: 0x0A3A [0x23] WAIT_FOR_DIALOG_INTERACTION
288: 0x0A3B [0x52] END_LOAD_SCHEDULER: End scheduler "s019" with entities [EventEntity, EventEntity], work=879*
289: 0x0A4A [0x45] LOAD_SCHEDULED_TASK: Load scheduler "s015" with entities [EventEntity, EventEntity], work=[879*, 0*]
290: 0x0A5B [0x53] WAIT_SCHEDULER_TASK: Wait for scheduler "ehn0" with entities [Abda-Lurabda (ID: 17056487/0x010442E7), Abda-Lurabda (ID: 17056487/0x010442E7)]
291: 0x0A68 [0x79] Abda-Lurabda (ID: 17056487/0x010442E7) looks at LocalPlayer (Basic look)
292: 0x0A72 [0x7C] Abda-Lurabda (ID: 17056487/0x010442E7)->Render.Flags2 |= 0x01
293: 0x0A78 [0x29] REQ_SET_WAIT(priority=0x0F, entity_id=Abda-Lurabda (ID: 17056487/0x010442E7), tag_num=0x15)
294: 0x0A7F [0x2B] Abda-Lurabda (ID: 17056487/0x010442E7) [9029*]:
    → "The sheer greatness possessed by that one individual terrified everyone else."
295: 0x0A86 [0x23] WAIT_FOR_DIALOG_INTERACTION
296: 0x0A87 [0x29] REQ_SET_WAIT(priority=0x0F, entity_id=Abda-Lurabda (ID: 17056487/0x010442E7), tag_num=0x16)
297: 0x0A8E [0x2B] Tateeya (ID: 17056488/0x010442E8) [9030*]:
    → "I suppose they simply weren't capable of comprehending such genius."
298: 0x0A95 [0x1C] WAIT(10* ticks)
299: 0x0A98 [0x79] LocalPlayer looks at Tateeya (ID: 17056488/0x010442E8) (Basic look)
300: 0x0AA2 [0x4A] Abda-Lurabda (ID: 17056487/0x010442E7) looks at Tateeya (ID: 17056488/0x010442E8)
301: 0x0AAB [0x6F] WAIT_FRAME_DELAY: Yield until WaitTime reaches zero
302: 0x0AAC [0x76] CHECK_ENTITY_RENDER_FLAGS: Wait until Abda-Lurabda (ID: 17056487/0x010442E7) Render.Flags0 and Render.Flags3 conditions are met
303: 0x0AB1 [0x29] REQ_SET_WAIT(priority=0x0F, entity_id=Abda-Lurabda (ID: 17056487/0x010442E7), tag_num=0x21)
304: 0x0AB8 [0x23] WAIT_FOR_DIALOG_INTERACTION
305: 0x0AB9 [0x52] END_LOAD_SCHEDULER: End scheduler "s015" with entities [EventEntity, EventEntity], work=879*
306: 0x0AC8 [0x45] LOAD_SCHEDULED_TASK: Load scheduler "s029" with entities [EventEntity, EventEntity], work=[879*, 0*]
307: 0x0AD9 [0x2B] Tateeya (ID: 17056488/0x010442E8) [9031*]:
    → "And without the inventor, the people were unable to understand the technology left behind either."
308: 0x0AE0 [0x23] WAIT_FOR_DIALOG_INTERACTION
309: 0x0AE1 [0x29] REQ_SET_WAIT(priority=0x0F, entity_id=Tateeya (ID: 17056488/0x010442E8), tag_num=0x0E)
310: 0x0AE8 [0x29] REQ_SET_WAIT(priority=0x0F, entity_id=Abda-Lurabda (ID: 17056487/0x010442E7), tag_num=0x22)
311: 0x0AEF [0x03] Work_Zone[2] = 1*
312: 0x0AF4 [0x52] END_LOAD_SCHEDULER: End scheduler "s029" with entities [EventEntity, EventEntity], work=879*
313: 0x0B03 [0x45] LOAD_SCHEDULED_TASK: Load scheduler "s012" with entities [EventEntity, EventEntity], work=[879*, 0*]
314: 0x0B14 [0x1C] WAIT(1* ticks)
315: 0x0B17 [0x29] REQ_SET_WAIT(priority=0x0F, entity_id=Tateeya (ID: 17056488/0x010442E8), tag_num=0x0F)
316: 0x0B1E [0x01] GOTO 0x0B21

SUBROUTINE_0B21:
317: 0x0B21 [0x03] Work_Zone[2] = Work_Zone[0]
318: 0x0B26 [0x29] REQ_SET_WAIT(priority=0x0F, entity_id=Ghatsad (ID: 17056486/0x010442E6), tag_num=0x16)
319: 0x0B2D [0x2B] Ghatsad (ID: 17056486/0x010442E6) [9032*]:
    → "That is why I believe that this individual that appears in the story is none other than Ramuul."
320: 0x0B34 [0x1C] WAIT(20* ticks)
321: 0x0B37 [0x4A] LocalPlayer looks at Tateeya (ID: 17056488/0x010442E8)
322: 0x0B40 [0x4A] Abda-Lurabda (ID: 17056487/0x010442E7) looks at Ghatsad (ID: 17056486/0x010442E6)
323: 0x0B49 [0x4A] Tateeya (ID: 17056488/0x010442E8) looks at Ghatsad (ID: 17056486/0x010442E6)
324: 0x0B52 [0x6F] WAIT_FRAME_DELAY: Yield until WaitTime reaches zero
325: 0x0B53 [0x76] CHECK_ENTITY_RENDER_FLAGS: Wait until Abda-Lurabda (ID: 17056487/0x010442E7) Render.Flags0 and Render.Flags3 conditions are met
326: 0x0B58 [0x6F] WAIT_FRAME_DELAY: Yield until WaitTime reaches zero
327: 0x0B59 [0x76] CHECK_ENTITY_RENDER_FLAGS: Wait until LocalPlayer Render.Flags0 and Render.Flags3 conditions are met
328: 0x0B5E [0x6F] WAIT_FRAME_DELAY: Yield until WaitTime reaches zero
329: 0x0B5F [0x76] CHECK_ENTITY_RENDER_FLAGS: Wait until Tateeya (ID: 17056488/0x010442E8) Render.Flags0 and Render.Flags3 conditions are met
330: 0x0B64 [0x79] LocalPlayer looks at Ghatsad (ID: 17056486/0x010442E6) (Basic look)
331: 0x0B6E [0x23] WAIT_FOR_DIALOG_INTERACTION
332: 0x0B6F [0x29] REQ_SET_WAIT(priority=0x0F, entity_id=Ghatsad (ID: 17056486/0x010442E6), tag_num=0x17)
333: 0x0B76 [0x29] REQ_SET_WAIT(priority=0x0F, entity_id=Ghatsad (ID: 17056486/0x010442E6), tag_num=0x18)
334: 0x0B7D [0x52] END_LOAD_SCHEDULER: End scheduler "s012" with entities [EventEntity, EventEntity], work=879*
335: 0x0B8C [0x45] LOAD_SCHEDULED_TASK: Load scheduler "s013" with entities [EventEntity, EventEntity], work=[879*, 0*]
336: 0x0B9D [0x79] Ghatsad (ID: 17056486/0x010442E6) looks at Tateeya (ID: 17056488/0x010442E8) (Basic look)
337: 0x0BA7 [0x29] REQ_SET_WAIT(priority=0x0F, entity_id=Abda-Lurabda (ID: 17056487/0x010442E7), tag_num=0x23)
338: 0x0BAE [0x29] REQ_SET_WAIT(priority=0x0F, entity_id=Tateeya (ID: 17056488/0x010442E8), tag_num=0x13)
339: 0x0BB5 [0x2B] Tateeya (ID: 17056488/0x010442E8) [9033*]:
    → "Ramuul!?"
340: 0x0BBC [0x23] WAIT_FOR_DIALOG_INTERACTION
341: 0x0BBD [0x1C] WAIT(60* ticks)
342: 0x0BC0 [0x29] REQ_SET_WAIT(priority=0x0F, entity_id=Abda-Lurabda (ID: 17056487/0x010442E7), tag_num=0x24)
343: 0x0BC7 [0x4A] Abda-Lurabda (ID: 17056487/0x010442E7) looks at Tateeya (ID: 17056488/0x010442E8)
344: 0x0BD0 [0x29] REQ_SET_WAIT(priority=0x0F, entity_id=Tateeya (ID: 17056488/0x010442E8), tag_num=0x14)
345: 0x0BD7 [0x6F] WAIT_FRAME_DELAY: Yield until WaitTime reaches zero
346: 0x0BD8 [0x76] CHECK_ENTITY_RENDER_FLAGS: Wait until Abda-Lurabda (ID: 17056487/0x010442E7) Render.Flags0 and Render.Flags3 conditions are met
347: 0x0BDD [0x29] REQ_SET_WAIT(priority=0x0F, entity_id=Abda-Lurabda (ID: 17056487/0x010442E7), tag_num=0x3F)
348: 0x0BE4 [0x29] REQ_SET_WAIT(priority=0x0F, entity_id=Abda-Lurabda (ID: 17056487/0x010442E7), tag_num=0x40)
349: 0x0BEB [0x2B] Abda-Lurabda (ID: 17056487/0x010442E7) [9034*]:
    → "Um, who is that again?"
350: 0x0BF2 [0x1C] WAIT(20* ticks)
351: 0x0BF5 [0x4A] Tateeya (ID: 17056488/0x010442E8) looks at Abda-Lurabda (ID: 17056487/0x010442E7)
352: 0x0BFE [0x6F] WAIT_FRAME_DELAY: Yield until WaitTime reaches zero
353: 0x0BFF [0x76] CHECK_ENTITY_RENDER_FLAGS: Wait until Tateeya (ID: 17056488/0x010442E8) Render.Flags0 and Render.Flags3 conditions are met
354: 0x0C04 [0x79] Ghatsad (ID: 17056486/0x010442E6) looks at Abda-Lurabda (ID: 17056487/0x010442E7) (Basic look)
355: 0x0C0E [0x23] WAIT_FOR_DIALOG_INTERACTION
356: 0x0C0F [0x29] REQ_SET_WAIT(priority=0x0F, entity_id=Ghatsad (ID: 17056486/0x010442E6), tag_num=0x19)
357: 0x0C16 [0x29] REQ_SET_WAIT(priority=0x0F, entity_id=Tateeya (ID: 17056488/0x010442E8), tag_num=0x1F)
358: 0x0C1D [0x1C] WAIT(30* ticks)
359: 0x0C20 [0x52] END_LOAD_SCHEDULER: End scheduler "s013" with entities [EventEntity, EventEntity], work=879*
360: 0x0C2F [0x45] LOAD_SCHEDULED_TASK: Load scheduler "s016" with entities [EventEntity, EventEntity], work=[879*, 0*]
361: 0x0C40 [0x29] REQ_SET_WAIT(priority=0x0F, entity_id=Abda-Lurabda (ID: 17056487/0x010442E7), tag_num=0x41)
362: 0x0C47 [0x2B] Tateeya (ID: 17056488/0x010442E8) [9035*]:
    → "Have you already forgotten!? He was the wielder of the Olduum staff in the story that Megomak told us about!"
363: 0x0C4E [0x1C] WAIT(20* ticks)
364: 0x0C51 [0x5D] SET_MUSIC_VOLUME(volume=200*, fade_time=1*)
365: 0x0C56 [0x79] Abda-Lurabda (ID: 17056487/0x010442E7) looks at Tateeya (ID: 17056488/0x010442E8) (Basic look)
366: 0x0C60 [0x29] REQ_SET_WAIT(priority=0x0F, entity_id=Abda-Lurabda (ID: 17056487/0x010442E7), tag_num=0x42)
367: 0x0C67 [0x29] REQ_SET_WAIT(priority=0x0F, entity_id=Abda-Lurabda (ID: 17056487/0x010442E7), tag_num=0x07)
368: 0x0C6E [0x23] WAIT_FOR_DIALOG_INTERACTION
369: 0x0C6F [0x29] REQ_SET_WAIT(priority=0x0F, entity_id=Tateeya (ID: 17056488/0x010442E8), tag_num=0x20)
370: 0x0C76 [0x52] END_LOAD_SCHEDULER: End scheduler "s016" with entities [EventEntity, EventEntity], work=879*
371: 0x0C85 [0x45] LOAD_SCHEDULED_TASK: Load scheduler "s014" with entities [EventEntity, EventEntity], work=[879*, 0*]
372: 0x0C96 [0x29] REQ_SET_WAIT(priority=0x0F, entity_id=Tateeya (ID: 17056488/0x010442E8), tag_num=0x21)
373: 0x0C9D [0x5D] SET_MUSIC_VOLUME(volume=127*, fade_time=1*)
374: 0x0CA2 [0x2B] Ghatsad (ID: 17056486/0x010442E6) [9036*]:
    → "That is correct. Furthermore, the mysterious stone tablets are also from the Olduum civilization."
375: 0x0CA9 [0x1C] WAIT(10* ticks)
376: 0x0CAC [0x79] Abda-Lurabda (ID: 17056487/0x010442E7) looks at Ghatsad (ID: 17056486/0x010442E6) (Basic look)
377: 0x0CB6 [0x79] Tateeya (ID: 17056488/0x010442E8) looks at Ghatsad (ID: 17056486/0x010442E6) (Basic look)
378: 0x0CC0 [0x4B] UPDATE_ENTITY_YAW(entity=Tateeya (ID: 17056488/0x010442E8), yaw=0.0°*)
379: 0x0CC7 [0x6F] WAIT_FRAME_DELAY: Yield until WaitTime reaches zero
380: 0x0CC8 [0x76] CHECK_ENTITY_RENDER_FLAGS: Wait until Tateeya (ID: 17056488/0x010442E8) Render.Flags0 and Render.Flags3 conditions are met
381: 0x0CCD [0x23] WAIT_FOR_DIALOG_INTERACTION
382: 0x0CCE [0x29] REQ_SET_WAIT(priority=0x0F, entity_id=Abda-Lurabda (ID: 17056487/0x010442E7), tag_num=0x08)
383: 0x0CD5 [0x29] REQ_SET_WAIT(priority=0x0F, entity_id=Tateeya (ID: 17056488/0x010442E8), tag_num=0x22)
384: 0x0CDC [0x2B] Ghatsad (ID: 17056486/0x010442E6) [9037*]:
    → "Therefore, I believe it is only natural to assume that the wielder of the staff and the inventor from the story are one and the same."
385: 0x0CE3 [0x23] WAIT_FOR_DIALOG_INTERACTION
386: 0x0CE4 [0x52] END_LOAD_SCHEDULER: End scheduler "s014" with entities [EventEntity, EventEntity], work=879*
387: 0x0CF3 [0x45] LOAD_SCHEDULED_TASK: Load scheduler "s017" with entities [EventEntity, EventEntity], work=[879*, 0*]
388: 0x0D04 [0x7B] Abda-Lurabda (ID: 17056487/0x010442E7) stops talking
389: 0x0D09 [0x29] REQ_SET_WAIT(priority=0x0F, entity_id=Abda-Lurabda (ID: 17056487/0x010442E7), tag_num=0x03)
390: 0x0D10 [0x2B] Abda-Lurabda (ID: 17056487/0x010442E7) [9038*]:
    → "I see... Ramuul sounds a lot like the name that appears in the mythology books."
391: 0x0D17 [0x4A] Tateeya (ID: 17056488/0x010442E8) looks at Abda-Lurabda (ID: 17056487/0x010442E7)
392: 0x0D20 [0x6F] WAIT_FRAME_DELAY: Yield until WaitTime reaches zero
393: 0x0D21 [0x76] CHECK_ENTITY_RENDER_FLAGS: Wait until Tateeya (ID: 17056488/0x010442E8) Render.Flags0 and Render.Flags3 conditions are met
394: 0x0D26 [0x23] WAIT_FOR_DIALOG_INTERACTION
395: 0x0D27 [0x29] REQ_SET_WAIT(priority=0x0F, entity_id=Abda-Lurabda (ID: 17056487/0x010442E7), tag_num=0x04)
396: 0x0D2E [0x52] END_LOAD_SCHEDULER: End scheduler "s017" with entities [EventEntity, EventEntity], work=879*
397: 0x0D3D [0x45] LOAD_SCHEDULED_TASK: Load scheduler "s018" with entities [EventEntity, EventEntity], work=[879*, 0*]
398: 0x0D4E [0x29] REQ_SET_WAIT(priority=0x0F, entity_id=Tateeya (ID: 17056488/0x010442E8), tag_num=0x13)
399: 0x0D55 [0x29] REQ_SET_WAIT(priority=0x0F, entity_id=Abda-Lurabda (ID: 17056487/0x010442E7), tag_num=0x05)
400: 0x0D5C [0x2B] Tateeya (ID: 17056488/0x010442E8) [9039*]:
    → "They are similar, yes, but I don't think that's what the boss is talking about."
401: 0x0D63 [0x23] WAIT_FOR_DIALOG_INTERACTION
402: 0x0D64 [0x29] REQ_SET_WAIT(priority=0x0F, entity_id=Tateeya (ID: 17056488/0x010442E8), tag_num=0x14)
403: 0x0D6B [0x29] REQ_SET_WAIT(priority=0x0F, entity_id=Abda-Lurabda (ID: 17056487/0x010442E7), tag_num=0x06)
404: 0x0D72 [0x7B] Ghatsad (ID: 17056486/0x010442E6) stops talking
405: 0x0D77 [0x29] REQ_SET_WAIT(priority=0x0F, entity_id=Ghatsad (ID: 17056486/0x010442E6), tag_num=0x07)
406: 0x0D7E [0x52] END_LOAD_SCHEDULER: End scheduler "s018" with entities [EventEntity, EventEntity], work=879*
407: 0x0D8D [0x45] LOAD_SCHEDULED_TASK: Load scheduler "s020" with entities [EventEntity, EventEntity], work=[879*, 0*]
408: 0x0D9E [0x2B] Ghatsad (ID: 17056486/0x010442E6) [9040*]:
    → "If my theory is correct, then the Olduum staff is capable of much more than just controlling the stone tablets."
409: 0x0DA5 [0x1C] WAIT(20* ticks)
410: 0x0DA8 [0x4A] Tateeya (ID: 17056488/0x010442E8) looks at Ghatsad (ID: 17056486/0x010442E6)
411: 0x0DB1 [0x6F] WAIT_FRAME_DELAY: Yield until WaitTime reaches zero
412: 0x0DB2 [0x76] CHECK_ENTITY_RENDER_FLAGS: Wait until Tateeya (ID: 17056488/0x010442E8) Render.Flags0 and Render.Flags3 conditions are met
413: 0x0DB7 [0x23] WAIT_FOR_DIALOG_INTERACTION
414: 0x0DB8 [0x2B] Ghatsad (ID: 17056486/0x010442E6) [9041*]:
    → "In fact, I believe it is the key to unlocking the mysteries of the Olduum civilization itself."
415: 0x0DBF [0x23] WAIT_FOR_DIALOG_INTERACTION
416: 0x0DC0 [0x29] REQ_SET_WAIT(priority=0x0F, entity_id=Ghatsad (ID: 17056486/0x010442E6), tag_num=0x08)
417: 0x0DC7 [0x52] END_LOAD_SCHEDULER: End scheduler "s020" with entities [EventEntity, EventEntity], work=879*
418: 0x0DD6 [0x45] LOAD_SCHEDULED_TASK: Load scheduler "s021" with entities [EventEntity, EventEntity], work=[879*, 0*]
419: 0x0DE7 [0x29] REQ_SET_WAIT(priority=0x0F, entity_id=Tateeya (ID: 17056488/0x010442E8), tag_num=0x27)
420: 0x0DEE [0x29] REQ_SET_WAIT(priority=0x0F, entity_id=Abda-Lurabda (ID: 17056487/0x010442E7), tag_num=0x07)
421: 0x0DF5 [0x7C] Abda-Lurabda (ID: 17056487/0x010442E7)->Render.Flags2 |= 0x00
422: 0x0DFB [0x2B] Abda-Lurabda (ID: 17056487/0x010442E7) [9042*]:
    → "What!?"
423: 0x0E02 [0x7C] Abda-Lurabda (ID: 17056487/0x010442E7)->Render.Flags2 |= 0x01
424: 0x0E08 [0x29] REQ_SET_WAIT(priority=0x0F, entity_id=Abda-Lurabda (ID: 17056487/0x010442E7), tag_num=0x08)
425: 0x0E0F [0x29] REQ_SET_WAIT(priority=0x0F, entity_id=Tateeya (ID: 17056488/0x010442E8), tag_num=0x28)
426: 0x0E16 [0x52] END_LOAD_SCHEDULER: End scheduler "s021" with entities [EventEntity, EventEntity], work=879*
427: 0x0E25 [0x45] LOAD_SCHEDULED_TASK: Load scheduler "s027" with entities [EventEntity, EventEntity], work=[879*, 0*]
428: 0x0E36 [0x29] REQ_SET_WAIT(priority=0x0F, entity_id=Tateeya (ID: 17056488/0x010442E8), tag_num=0x29)
429: 0x0E3D [0x29] REQ_SET_WAIT(priority=0x0F, entity_id=Ghatsad (ID: 17056486/0x010442E6), tag_num=0x09)
430: 0x0E44 [0x2B] Tateeya (ID: 17056488/0x010442E8) [9043*]:
    → "Th-that's amazing! We've got to find that staff, boss!"
431: 0x0E4B [0x1C] WAIT(20* ticks)
432: 0x0E4E [0x79] Ghatsad (ID: 17056486/0x010442E6) looks at Abda-Lurabda (ID: 17056487/0x010442E7) (Basic look)
433: 0x0E58 [0x23] WAIT_FOR_DIALOG_INTERACTION
434: 0x0E59 [0x29] REQ_SET_WAIT(priority=0x0F, entity_id=Tateeya (ID: 17056488/0x010442E8), tag_num=0x2A)
435: 0x0E60 [0x29] REQ_SET_WAIT(priority=0x0F, entity_id=Ghatsad (ID: 17056486/0x010442E6), tag_num=0x0A)
436: 0x0E67 [0x2B] Ghatsad (ID: 17056486/0x010442E6) [9044*]:
    → "Indeed we do... The sooner we find it and can study it, the better."
437: 0x0E6E [0x23] WAIT_FOR_DIALOG_INTERACTION
438: 0x0E6F [0x52] END_LOAD_SCHEDULER: End scheduler "s027" with entities [EventEntity, EventEntity], work=879*
439: 0x0E7E [0x45] LOAD_SCHEDULED_TASK: Load scheduler "s022" with entities [EventEntity, EventEntity], work=[879*, 0*]
440: 0x0E8F [0x29] REQ_SET_WAIT(priority=0x0F, entity_id=Tateeya (ID: 17056488/0x010442E8), tag_num=0x27)
441: 0x0E96 [0x2B] Tateeya (ID: 17056488/0x010442E8) [9045*]:
    → "We'll do our best to try and find a hint as to where the staff might be located!"
442: 0x0E9D [0x1C] WAIT(20* ticks)
443: 0x0EA0 [0x79] Ghatsad (ID: 17056486/0x010442E6) looks at Tateeya (ID: 17056488/0x010442E8) (Basic look)
444: 0x0EAA [0x27] REQ_SET(priority=0x0F, entity_id=Gogoroon (ID: 17056420/0x010442A4), tag_num=0x45)
445: 0x0EB1 [0x1C] WAIT(30* ticks)
446: 0x0EB4 [0x27] REQ_SET(priority=0x0F, entity_id=Vavaroon (ID: 17056419/0x010442A3), tag_num=0x44)
447: 0x0EBB [0x1C] WAIT(50* ticks)
448: 0x0EBE [0x23] WAIT_FOR_DIALOG_INTERACTION
449: 0x0EBF [0x29] REQ_SET_WAIT(priority=0x0F, entity_id=Tateeya (ID: 17056488/0x010442E8), tag_num=0x28)
450: 0x0EC6 [0x6C] FADE_ENTITY_COLOR(entity_id=Vavaroon (ID: 17056419/0x010442A3), end_alpha=0*, fade_time=1*)
451: 0x0ECF [0x6C] FADE_ENTITY_COLOR(entity_id=Gogoroon (ID: 17056420/0x010442A4), end_alpha=0*, fade_time=1*)
452: 0x0ED8 [0x1C] WAIT(1* ticks)
453: 0x0EDB [0x52] END_LOAD_SCHEDULER: End scheduler "s022" with entities [EventEntity, EventEntity], work=879*
454: 0x0EEA [0x45] LOAD_SCHEDULED_TASK: Load scheduler "s023" with entities [EventEntity, EventEntity], work=[879*, 0*]
455: 0x0EFB [0x79] LocalPlayer looks at Abda-Lurabda (ID: 17056487/0x010442E7) (Basic look)
456: 0x0F05 [0x4A] Abda-Lurabda (ID: 17056487/0x010442E7) looks at Vavaroon (ID: 17056419/0x010442A3)
457: 0x0F0E [0x6F] WAIT_FRAME_DELAY: Yield until WaitTime reaches zero
458: 0x0F0F [0x76] CHECK_ENTITY_RENDER_FLAGS: Wait until Abda-Lurabda (ID: 17056487/0x010442E7) Render.Flags0 and Render.Flags3 conditions are met
459: 0x0F14 [0x4A] LocalPlayer looks at Vavaroon (ID: 17056419/0x010442A3)
460: 0x0F1D [0x29] REQ_SET_WAIT(priority=0x0F, entity_id=Tateeya (ID: 17056488/0x010442E8), tag_num=0x29)
461: 0x0F24 [0x4A] Tateeya (ID: 17056488/0x010442E8) looks at Abda-Lurabda (ID: 17056487/0x010442E7)
462: 0x0F2D [0x79] Ghatsad (ID: 17056486/0x010442E6) looks at Abda-Lurabda (ID: 17056487/0x010442E7) (Basic look)
463: 0x0F37 [0x2B] Abda-Lurabda (ID: 17056487/0x010442E7) [9046*]:
    → "Huh? Did you see a Qiqirn lurking over there just now?"
464: 0x0F3E [0x29] REQ_SET_WAIT(priority=0x0F, entity_id=Tateeya (ID: 17056488/0x010442E8), tag_num=0x2A)
465: 0x0F45 [0x6F] WAIT_FRAME_DELAY: Yield until WaitTime reaches zero
466: 0x0F46 [0x76] CHECK_ENTITY_RENDER_FLAGS: Wait until Tateeya (ID: 17056488/0x010442E8) Render.Flags0 and Render.Flags3 conditions are met
467: 0x0F4B [0x6F] WAIT_FRAME_DELAY: Yield until WaitTime reaches zero
468: 0x0F4C [0x76] CHECK_ENTITY_RENDER_FLAGS: Wait until LocalPlayer Render.Flags0 and Render.Flags3 conditions are met
469: 0x0F51 [0x23] WAIT_FOR_DIALOG_INTERACTION
470: 0x0F52 [0x52] END_LOAD_SCHEDULER: End scheduler "s023" with entities [EventEntity, EventEntity], work=879*
471: 0x0F61 [0x45] LOAD_SCHEDULED_TASK: Load scheduler "s024" with entities [EventEntity, EventEntity], work=[879*, 0*]
472: 0x0F72 [0x27] REQ_SET(priority=0x0F, entity_id=Tateeya (ID: 17056488/0x010442E8), tag_num=0x37)
473: 0x0F79 [0x79] Ghatsad (ID: 17056486/0x010442E6) looks at Tateeya (ID: 17056488/0x010442E8) (Basic look)
474: 0x0F83 [0x79] LocalPlayer looks at Tateeya (ID: 17056488/0x010442E8) (Basic look)
475: 0x0F8D [0x79] Abda-Lurabda (ID: 17056487/0x010442E7) looks at Tateeya (ID: 17056488/0x010442E8) (Basic look)
476: 0x0F97 [0x2B] Tateeya (ID: 17056488/0x010442E8) [9047*]:
    → "Abda-Lurabda, stop your nonsense and let's get going already!"
477: 0x0F9E [0x23] WAIT_FOR_DIALOG_INTERACTION
478: 0x0F9F [0x2A] GET_REQ_LEVEL(level=15, entity_id=Tateeya (ID: 17056488/0x010442E8))
479: 0x0FA5 [0x2A] GET_REQ_LEVEL(level=15, entity_id=Vavaroon (ID: 17056419/0x010442A3))
480: 0x0FAB [0x2A] GET_REQ_LEVEL(level=15, entity_id=Gogoroon (ID: 17056420/0x010442A4))
481: 0x0FB1 [0x27] REQ_SET(priority=0x0F, entity_id=Tateeya (ID: 17056488/0x010442E8), tag_num=0x38)
482: 0x0FB8 [0x52] END_LOAD_SCHEDULER: End scheduler "s024" with entities [EventEntity, EventEntity], work=879*
483: 0x0FC7 [0x45] LOAD_SCHEDULED_TASK: Load scheduler "s025" with entities [EventEntity, EventEntity], work=[879*, 0*]
484: 0x0FD8 [0x27] REQ_SET(priority=0x0F, entity_id=Ghatsad (ID: 17056486/0x010442E6), tag_num=0x20)
485: 0x0FDF [0x1C] WAIT(60* ticks)
486: 0x0FE2 [0x27] REQ_SET(priority=0x0F, entity_id=Abda-Lurabda (ID: 17056487/0x010442E7), tag_num=0x4A)
487: 0x0FE9 [0x2B] Abda-Lurabda (ID: 17056487/0x010442E7) [9048*]:
    → "Hey, no fair!"
488: 0x0FF0 [0x23] WAIT_FOR_DIALOG_INTERACTION
489: 0x0FF1 [0x2A] GET_REQ_LEVEL(level=15, entity_id=Abda-Lurabda (ID: 17056487/0x010442E7))
490: 0x0FF7 [0x27] REQ_SET(priority=0x0F, entity_id=Abda-Lurabda (ID: 17056487/0x010442E7), tag_num=0x4B)
491: 0x0FFE [0x1C] WAIT(90* ticks)
492: 0x1001 [0x52] END_LOAD_SCHEDULER: End scheduler "s025" with entities [EventEntity, EventEntity], work=879*
493: 0x1010 [0x02] IF !(Work_Zone[9] == 5*) GOTO 0x102C
494: 0x1018 [0x45] LOAD_SCHEDULED_TASK: Load scheduler "s032" with entities [EventEntity, EventEntity], work=[879*, 0*]
495: 0x1029 [0x01] GOTO 0x1059
496: 0x102C [0x02] IF !(Work_Zone[9] == 6*) GOTO 0x1048
497: 0x1034 [0x45] LOAD_SCHEDULED_TASK: Load scheduler "s032" with entities [EventEntity, EventEntity], work=[879*, 0*]
498: 0x1045 [0x01] GOTO 0x1059
499: 0x1048 [0x45] LOAD_SCHEDULED_TASK: Load scheduler "s026" with entities [EventEntity, EventEntity], work=[879*, 0*]

SUBROUTINE_1059:
500: 0x1059 [0x2B] Ghatsad (ID: 17056486/0x010442E6) [9049*]:
    → "Okay, let's get started. Keep an eye out for any potential trouble, <Player>."
501: 0x1060 [0x79] LocalPlayer looks at Ghatsad (ID: 17056486/0x010442E6) (Basic look)
502: 0x106A [0x4B] UPDATE_ENTITY_YAW(entity=LocalPlayer, yaw=7.6°*)
503: 0x1071 [0x6F] WAIT_FRAME_DELAY: Yield until WaitTime reaches zero
504: 0x1072 [0x76] CHECK_ENTITY_RENDER_FLAGS: Wait until LocalPlayer Render.Flags0 and Render.Flags3 conditions are met
505: 0x1077 [0x23] WAIT_FOR_DIALOG_INTERACTION
506: 0x1078 [0x2A] GET_REQ_LEVEL(level=15, entity_id=Ghatsad (ID: 17056486/0x010442E6))
507: 0x107E [0x7B] Ghatsad (ID: 17056486/0x010442E6) stops talking
508: 0x1083 [0x27] REQ_SET(priority=0x0F, entity_id=Ghatsad (ID: 17056486/0x010442E6), tag_num=0x21)
509: 0x108A [0x1C] WAIT(30* ticks)
510: 0x108D [0x02] IF !(Work_Zone[9] == 5*) GOTO 0x10A7
511: 0x1095 [0x52] END_LOAD_SCHEDULER: End scheduler "s032" with entities [EventEntity, EventEntity], work=879*
512: 0x10A4 [0x01] GOTO 0x10D0
513: 0x10A7 [0x02] IF !(Work_Zone[9] == 6*) GOTO 0x10C1
514: 0x10AF [0x52] END_LOAD_SCHEDULER: End scheduler "s032" with entities [EventEntity, EventEntity], work=879*
515: 0x10BE [0x01] GOTO 0x10D0
516: 0x10C1 [0x52] END_LOAD_SCHEDULER: End scheduler "s026" with entities [EventEntity, EventEntity], work=879*

SUBROUTINE_10D0:
517: 0x10D0 [0x45] LOAD_SCHEDULED_TASK: Load scheduler "s028" with entities [EventEntity, EventEntity], work=[879*, 0*]
518: 0x10E1 [0x1C] WAIT(30* ticks)
519: 0x10E4 [0x5D] SET_MUSIC_VOLUME(volume=0*, fade_time=300*)
520: 0x10E9 [0x4A] LocalPlayer looks at Ghatsad (ID: 17056486/0x010442E6)
521: 0x10F2 [0x6F] WAIT_FRAME_DELAY: Yield until WaitTime reaches zero
522: 0x10F3 [0x76] CHECK_ENTITY_RENDER_FLAGS: Wait until LocalPlayer Render.Flags0 and Render.Flags3 conditions are met
523: 0x10F8 [0x1C] WAIT(30* ticks)
524: 0x10FB [0x1A] CALL_SUBROUTINE(address=0x0064)
525: 0x10FE [0x1C] WAIT(30* ticks)
526: 0x1101 [0x52] END_LOAD_SCHEDULER: End scheduler "s028" with entities [EventEntity, EventEntity], work=879*
527: 0x1110 [0x2A] GET_REQ_LEVEL(level=15, entity_id=Ghatsad (ID: 17056486/0x010442E6))
528: 0x1116 [0x2A] GET_REQ_LEVEL(level=15, entity_id=Abda-Lurabda (ID: 17056487/0x010442E7))
529: 0x111C [0x2A] GET_REQ_LEVEL(level=15, entity_id=Tateeya (ID: 17056488/0x010442E8))
530: 0x1122 [0x5C] MUSIC_CONTROL: Set Idle (Day) music to song 174*
531: 0x1126 [0x5C] MUSIC_CONTROL: Set Idle (Night) music to song 174*
532: 0x112A [0x5C] MUSIC_CONTROL: Set Combat (Solo) music to song 115*
533: 0x112E [0x5C] MUSIC_CONTROL: Set Combat (Party) music to song 139*
534: 0x1132 [0x9A] WAIT_MUSIC_SERVER()
535: 0x1133 [0x5D] SET_MUSIC_VOLUME(volume=127*, fade_time=1*)
536: 0x1138 [0x1C] WAIT(15* ticks)
537: 0x113B [0xAB] EventEntity->DespawnValue = 0* // Set despawn value
538: 0x113F [0x1C] WAIT(1* ticks)
539: 0x1142 [0x46] CAMERA_CONTROL: Restore default settings
540: 0x1144 [0x45] LOAD_SCHEDULED_TASK: Load scheduler "fdi2" with entities [EventEntity, EventEntity], work=[200*, 0*]
541: 0x1155 [0x21] END_EVENT
542: 0x1156 [0x00] END_REQSTACK()
```

### Event 38

#### Metadata

| Field        | Value     |
|--------------|-----------|
| Entrypoint   | 0x1157    |
| Data Size    | 446 bytes |
| Instructions | 67        |

```
      00 01 02 03 04 05 06 07  08 09 0A 0B 0C 0D 0E 0F
      -- -- -- -- -- -- -- --  -- -- -- -- -- -- -- --
1150:                      42  1A 64 00 46 01 38 09 80         B.d.F.8..
1160: 2F 00 E7 42 04 01 4E 00  E7 42 04 01 94 01 E7 42  /..B..N..B.....B
1170: 04 01 94 01 F0 FF FF 7F  BA E7 42 04 01 6B 80 6C  ..........B..k.l
1180: 80 6D 80 6E 80 BA F0 FF  FF 7F 6F 80 70 80 71 80  .m.n......o.p.q.
1190: 72 80 80 E7 42 04 01 80  F0 FF FF 7F 29 0F F0 FF  r...B.......)...
11A0: FF 7F 27 27 0F E7 42 04  01 4D 1C 05 80 45 28 80  ..''..B..M...E(.
11B0: F8 FF FF 7F F8 FF FF 7F  73 30 34 34 01 80 1A 43  ........s044...C
11C0: 00 1C 06 80 2B E7 42 04  01 73 80 1C 06 80 4A F0  ....+.B..s....J.
11D0: FF FF 7F E7 42 04 01 6F  76 F0 FF FF 7F 23 2A 0F  ....B..ov....#*.
11E0: E7 42 04 01 52 28 80 F8  FF FF 7F F8 FF FF 7F 73  .B..R(.........s
11F0: 30 34 34 45 28 80 F8 FF  FF 7F F8 FF FF 7F 73 30  044E(.........s0
1200: 34 36 01 80 4A F0 FF FF  7F E7 42 04 01 29 0F E7  46..J.....B..)..
1210: 42 04 01 01 2B E7 42 04  01 74 80 23 27 0F E7 42  B...+.B..t.#'..B
1220: 04 01 02 6F 76 F0 FF FF  7F 2B E7 42 04 01 75 80  ...ov....+.B..u.
1230: 23 2A 0F E7 42 04 01 52  28 80 F8 FF FF 7F F8 FF  #*..B..R(.......
1240: FF 7F 73 30 34 36 02 09  10 27 80 00 62 12 45 28  ..s046...'..b.E(
1250: 80 F8 FF FF 7F F8 FF FF  7F 73 30 34 37 01 80 01  .........s047...
1260: 8F 12 02 09 10 29 80 00  7E 12 45 28 80 F8 FF FF  .....)..~.E(....
1270: 7F F8 FF FF 7F 73 30 34  37 01 80 01 8F 12 45 28  .....s047.....E(
1280: 80 F8 FF FF 7F F8 FF FF  7F 73 30 34 35 01 80 7B  .........s045..{
1290: E7 42 04 01 29 0F E7 42  04 01 03 1C 06 80 2B E7  .B..)..B......+.
12A0: 42 04 01 76 80 23 1A 64  00 1C 06 80 29 0F E7 42  B..v.#.d....)..B
12B0: 04 01 04 02 09 10 27 80  00 CD 12 52 28 80 F8 FF  ......'....R(...
12C0: FF 7F F8 FF FF 7F 73 30  34 37 01 F6 12 02 09 10  ......s047......
12D0: 29 80 00 E7 12 52 28 80  F8 FF FF 7F F8 FF FF 7F  )....R(.........
12E0: 73 30 34 37 01 F6 12 52  28 80 F8 FF FF 7F F8 FF  s047...R(.......
12F0: FF 7F 73 30 34 35 1C 6A  80 AB 11 01 80 1C 03 80  ..s045.j........
1300: 46 00 45 00 80 F8 FF FF  7F F8 FF FF 7F 66 64 69  F.E..........fdi
1310: 32 01 80 21 00                                    2..!.           
```

#### Opcodes

```
  0: 0x1157 [0x42] SET_CLI_EVENT_CANCEL_DATA()
  1: 0x1158 [0x1A] CALL_SUBROUTINE(address=0x0064)
  2: 0x115B [0x46] CAMERA_CONTROL: Disable user control
  3: 0x115D [0x38] SET_CLIENT_EVENT_MODE(mode=147*)
  4: 0x1160 [0x2F] Abda-Lurabda (ID: 17056487/0x010442E7)->Render.Flags0 &= ~0x80000 // Bit 19
  5: 0x1166 [0x4E] SET_ENTITY_HIDE_FLAG: Show Abda-Lurabda (ID: 17056487/0x010442E7)
  6: 0x116C [0x94] Abda-Lurabda (ID: 17056487/0x010442E7)->Render.Flags3 ^= 0x01
  7: 0x1172 [0x94] LocalPlayer->Render.Flags3 ^= 0x01
  8: 0x1178 [0xBA] SET_ENTITY_POSITION(entity_id=Abda-Lurabda (ID: 17056487/0x010442E7), pos_x=118.642*, pos_z=-32.507*, pos_y=36.950*, direction=285.2°*)
  9: 0x1185 [0xBA] SET_ENTITY_POSITION(entity_id=LocalPlayer, pos_x=120.460*, pos_z=-28.641*, pos_y=36.797*, direction=268.9°*)
 10: 0x1192 [0x80] LOAD_WAIT(entity=Abda-Lurabda (ID: 17056487/0x010442E7))
 11: 0x1197 [0x80] LOAD_WAIT(entity=LocalPlayer)
 12: 0x119C [0x29] REQ_SET_WAIT(priority=0x0F, entity_id=LocalPlayer, tag_num=0x27)
 13: 0x11A3 [0x27] REQ_SET(priority=0x0F, entity_id=Abda-Lurabda (ID: 17056487/0x010442E7), tag_num=0x4D)
 14: 0x11AA [0x1C] WAIT(2* ticks)
 15: 0x11AD [0x45] LOAD_SCHEDULED_TASK: Load scheduler "s044" with entities [EventEntity, EventEntity], work=[879*, 0*]
 16: 0x11BE [0x1A] CALL_SUBROUTINE(address=0x0043)
 17: 0x11C1 [0x1C] WAIT(30* ticks)
 18: 0x11C4 [0x2B] Abda-Lurabda (ID: 17056487/0x010442E7) [9050*]:
    → "Yikes! There are monsters everywhere! I've got to stay calm and not freak out..."
 19: 0x11CB [0x1C] WAIT(30* ticks)
 20: 0x11CE [0x4A] LocalPlayer looks at Abda-Lurabda (ID: 17056487/0x010442E7)
 21: 0x11D7 [0x6F] WAIT_FRAME_DELAY: Yield until WaitTime reaches zero
 22: 0x11D8 [0x76] CHECK_ENTITY_RENDER_FLAGS: Wait until LocalPlayer Render.Flags0 and Render.Flags3 conditions are met
 23: 0x11DD [0x23] WAIT_FOR_DIALOG_INTERACTION
 24: 0x11DE [0x2A] GET_REQ_LEVEL(level=15, entity_id=Abda-Lurabda (ID: 17056487/0x010442E7))
 25: 0x11E4 [0x52] END_LOAD_SCHEDULER: End scheduler "s044" with entities [EventEntity, EventEntity], work=879*
 26: 0x11F3 [0x45] LOAD_SCHEDULED_TASK: Load scheduler "s046" with entities [EventEntity, EventEntity], work=[879*, 0*]
 27: 0x1204 [0x4A] LocalPlayer looks at Abda-Lurabda (ID: 17056487/0x010442E7)
 28: 0x120D [0x29] REQ_SET_WAIT(priority=0x0F, entity_id=Abda-Lurabda (ID: 17056487/0x010442E7), tag_num=0x01)
 29: 0x1214 [0x2B] Abda-Lurabda (ID: 17056487/0x010442E7) [9051*]:
    → "Although, what's really terrifying is that look Mister Ghatsad sometimes gets in his eyes..."
 30: 0x121B [0x23] WAIT_FOR_DIALOG_INTERACTION
 31: 0x121C [0x27] REQ_SET(priority=0x0F, entity_id=Abda-Lurabda (ID: 17056487/0x010442E7), tag_num=0x02)
 32: 0x1223 [0x6F] WAIT_FRAME_DELAY: Yield until WaitTime reaches zero
 33: 0x1224 [0x76] CHECK_ENTITY_RENDER_FLAGS: Wait until LocalPlayer Render.Flags0 and Render.Flags3 conditions are met
 34: 0x1229 [0x2B] Abda-Lurabda (ID: 17056487/0x010442E7) [9052*]:
    → "I wonder if it's because he never gets any sleep. Or maybe it's something else..."
 35: 0x1230 [0x23] WAIT_FOR_DIALOG_INTERACTION
 36: 0x1231 [0x2A] GET_REQ_LEVEL(level=15, entity_id=Abda-Lurabda (ID: 17056487/0x010442E7))
 37: 0x1237 [0x52] END_LOAD_SCHEDULER: End scheduler "s046" with entities [EventEntity, EventEntity], work=879*
 38: 0x1246 [0x02] IF !(Work_Zone[9] == 5*) GOTO 0x1262
 39: 0x124E [0x45] LOAD_SCHEDULED_TASK: Load scheduler "s047" with entities [EventEntity, EventEntity], work=[879*, 0*]
 40: 0x125F [0x01] GOTO 0x128F
 41: 0x1262 [0x02] IF !(Work_Zone[9] == 6*) GOTO 0x127E
 42: 0x126A [0x45] LOAD_SCHEDULED_TASK: Load scheduler "s047" with entities [EventEntity, EventEntity], work=[879*, 0*]
 43: 0x127B [0x01] GOTO 0x128F
 44: 0x127E [0x45] LOAD_SCHEDULED_TASK: Load scheduler "s045" with entities [EventEntity, EventEntity], work=[879*, 0*]

SUBROUTINE_128F:
 45: 0x128F [0x7B] Abda-Lurabda (ID: 17056487/0x010442E7) stops talking
 46: 0x1294 [0x29] REQ_SET_WAIT(priority=0x0F, entity_id=Abda-Lurabda (ID: 17056487/0x010442E7), tag_num=0x03)
 47: 0x129B [0x1C] WAIT(30* ticks)
 48: 0x129E [0x2B] Abda-Lurabda (ID: 17056487/0x010442E7) [9053*]:
    → "Now I'm really starting to get worried. Mister Ghatsad can be as scary as they come."
 49: 0x12A5 [0x23] WAIT_FOR_DIALOG_INTERACTION
 50: 0x12A6 [0x1A] CALL_SUBROUTINE(address=0x0064)
 51: 0x12A9 [0x1C] WAIT(30* ticks)
 52: 0x12AC [0x29] REQ_SET_WAIT(priority=0x0F, entity_id=Abda-Lurabda (ID: 17056487/0x010442E7), tag_num=0x04)
 53: 0x12B3 [0x02] IF !(Work_Zone[9] == 5*) GOTO 0x12CD
 54: 0x12BB [0x52] END_LOAD_SCHEDULER: End scheduler "s047" with entities [EventEntity, EventEntity], work=879*
 55: 0x12CA [0x01] GOTO 0x12F6
 56: 0x12CD [0x02] IF !(Work_Zone[9] == 6*) GOTO 0x12E7
 57: 0x12D5 [0x52] END_LOAD_SCHEDULER: End scheduler "s047" with entities [EventEntity, EventEntity], work=879*
 58: 0x12E4 [0x01] GOTO 0x12F6
 59: 0x12E7 [0x52] END_LOAD_SCHEDULER: End scheduler "s045" with entities [EventEntity, EventEntity], work=879*

SUBROUTINE_12F6:
 60: 0x12F6 [0x1C] WAIT(15* ticks)
 61: 0x12F9 [0xAB] EventEntity->DespawnValue = 0* // Set despawn value
 62: 0x12FD [0x1C] WAIT(1* ticks)
 63: 0x1300 [0x46] CAMERA_CONTROL: Restore default settings
 64: 0x1302 [0x45] LOAD_SCHEDULED_TASK: Load scheduler "fdi2" with entities [EventEntity, EventEntity], work=[200*, 0*]
 65: 0x1313 [0x21] END_EVENT
 66: 0x1314 [0x00] END_REQSTACK()
```

### Event 37

#### Metadata

| Field        | Value     |
|--------------|-----------|
| Entrypoint   | 0x1315    |
| Data Size    | 892 bytes |
| Instructions | 117       |

```
      00 01 02 03 04 05 06 07  08 09 0A 0B 0C 0D 0E 0F
      -- -- -- -- -- -- -- --  -- -- -- -- -- -- -- --
1310:                42 1A 64  00 46 01 38 09 80 2F 00       B.d.F.8../.
1320: E8 42 04 01 4E 00 E8 42  04 01 94 01 E8 42 04 01  .B..N..B.....B..
1330: 94 01 F0 FF FF 7F BA E8  42 04 01 77 80 78 80 79  ........B..w.x.y
1340: 80 7A 80 BA F0 FF FF 7F  7B 80 7C 80 7D 80 7E 80  .z......{.|.}.~.
1350: 80 E8 42 04 01 80 F0 FF  FF 7F 29 0F F0 FF FF 7F  ..B.......).....
1360: 27 45 28 80 F8 FF FF 7F  F8 FF FF 7F 73 30 33 34  'E(.........s034
1370: 01 80 1A 43 00 29 0F E8  42 04 01 2E 1C 2C 80 1C  ...C.)..B....,..
1380: 30 80 52 28 80 F8 FF FF  7F F8 FF FF 7F 73 30 33  0.R(.........s03
1390: 34 45 28 80 F8 FF FF 7F  F8 FF FF 7F 73 30 33 35  4E(.........s035
13A0: 01 80 1C 30 80 2B E8 42  04 01 7F 80 4A F0 FF FF  ...0.+.B....J...
13B0: 7F E8 42 04 01 6F 76 F0  FF FF 7F 23 29 0F E8 42  ..B..ov....#)..B
13C0: 04 01 2F 52 28 80 F8 FF  FF 7F F8 FF FF 7F 73 30  ../R(.........s0
13D0: 33 35 45 28 80 F8 FF FF  7F F8 FF FF 7F 73 30 33  35E(.........s03
13E0: 36 01 80 29 0F E8 42 04  01 32 2B E8 42 04 01 80  6..)..B..2+.B...
13F0: 80 23 29 0F E8 42 04 01  33 52 28 80 F8 FF FF 7F  .#)..B..3R(.....
1400: F8 FF FF 7F 73 30 33 36  02 09 10 81 80 00 24 14  ....s036......$.
1410: 45 28 80 F8 FF FF 7F F8  FF FF 7F 73 30 34 30 01  E(.........s040.
1420: 80 01 89 14 02 09 10 27  80 00 40 14 45 28 80 F8  .......'..@.E(..
1430: FF FF 7F F8 FF FF 7F 73  30 34 32 01 80 01 89 14  .......s042.....
1440: 02 09 10 29 80 00 5C 14  45 28 80 F8 FF FF 7F F8  ...)..\.E(......
1450: FF FF 7F 73 30 34 32 01  80 01 89 14 02 09 10 2B  ...s042........+
1460: 80 00 78 14 45 28 80 F8  FF FF 7F F8 FF FF 7F 73  ..x.E(.........s
1470: 30 34 30 01 80 01 89 14  45 28 80 F8 FF FF 7F F8  040.....E(......
1480: FF FF 7F 73 30 33 37 01  80 29 0F E8 42 04 01 30  ...s037..)..B..0
1490: 2B E8 42 04 01 82 80 29  0F E8 42 04 01 31 1C 06  +.B....)..B..1..
14A0: 80 4A E8 42 04 01 F0 FF  FF 7F 6F 76 E8 42 04 01  .J.B......ov.B..
14B0: 23 29 0F E8 42 04 01 27  2B E8 42 04 01 83 80 23  #)..B..'+.B....#
14C0: 29 0F E8 42 04 01 28 02  09 10 81 80 00 E1 14 52  )..B..(........R
14D0: 28 80 F8 FF FF 7F F8 FF  FF 7F 73 30 34 30 01 3E  (.........s040.>
14E0: 15 02 09 10 27 80 00 FB  14 52 28 80 F8 FF FF 7F  ....'....R(.....
14F0: F8 FF FF 7F 73 30 34 32  01 3E 15 02 09 10 29 80  ....s042.>....).
1500: 00 15 15 52 28 80 F8 FF  FF 7F F8 FF FF 7F 73 30  ...R(.........s0
1510: 34 32 01 3E 15 02 09 10  2B 80 00 2F 15 52 28 80  42.>....+../.R(.
1520: F8 FF FF 7F F8 FF FF 7F  73 30 34 30 01 3E 15 52  ........s040.>.R
1530: 28 80 F8 FF FF 7F F8 FF  FF 7F 73 30 33 37 45 28  (.........s037E(
1540: 80 F8 FF FF 7F F8 FF FF  7F 73 30 33 38 01 80 2B  .........s038..+
1550: E8 42 04 01 84 80 23 29  0F E8 42 04 01 29 2B E8  .B....#)..B..)+.
1560: 42 04 01 85 80 23 29 0F  E8 42 04 01 2A 52 28 80  B....#)..B..*R(.
1570: F8 FF FF 7F F8 FF FF 7F  73 30 33 38 02 09 10 27  ........s038...'
1580: 80 00 98 15 45 28 80 F8  FF FF 7F F8 FF FF 7F 73  ....E(.........s
1590: 30 34 33 01 80 01 C5 15  02 09 10 29 80 00 B4 15  043........)....
15A0: 45 28 80 F8 FF FF 7F F8  FF FF 7F 73 30 34 33 01  E(.........s043.
15B0: 80 01 C5 15 45 28 80 F8  FF FF 7F F8 FF FF 7F 73  ....E(.........s
15C0: 30 33 39 01 80 7B E8 42  04 01 29 0F E8 42 04 01  039..{.B..)..B..
15D0: 07 2B E8 42 04 01 86 80  23 2B E8 42 04 01 87 80  .+.B....#+.B....
15E0: 23 29 0F E8 42 04 01 08  29 0F E8 42 04 01 09 29  #)..B...)..B...)
15F0: 0F E8 42 04 01 0A 02 09  10 27 80 00 10 16 52 28  ..B......'....R(
1600: 80 F8 FF FF 7F F8 FF FF  7F 73 30 34 33 01 39 16  .........s043.9.
1610: 02 09 10 29 80 00 2A 16  52 28 80 F8 FF FF 7F F8  ...)..*.R(......
1620: FF FF 7F 73 30 34 33 01  39 16 52 28 80 F8 FF FF  ...s043.9.R(....
1630: 7F F8 FF FF 7F 73 30 33  39 45 28 80 F8 FF FF 7F  .....s039E(.....
1640: F8 FF FF 7F 73 30 34 31  01 80 29 0F E8 42 04 01  ....s041..)..B..
