# 17056399

## Common Data

| Field            | Value                       |
|------------------|-----------------------------|
| Zone             | Aydeewa Subterrane (ID: 68) |
| Block Size       | 328 bytes                   |
| Total Events     | 17                          |
| References Count | 16                          |

## List of Events

| Event ID                 | Entrypoint   |   Size |   Instructions |
|--------------------------|--------------|--------|----------------|
| [65535](#event-65535)    | 0x0000       |      1 |              1 |
| [3](#event-3)            | 0x0001       |      1 |              1 |
| [4](#event-4)            | 0x0002       |      1 |              1 |
| [7](#event-7)            | 0x0003       |      1 |              1 |
| [8](#event-8)            | 0x0004       |      1 |              1 |
| [9](#event-9)            | 0x0005       |      1 |              1 |
| [10](#event-10)          | 0x0006       |      1 |              1 |
| [11](#event-11)          | 0x0007       |      1 |              1 |
| [65535.1](#event-655351) | 0x0008       |     49 |              5 |
| [65535.2](#event-655352) | 0x0039       |     58 |              6 |
| [65535.3](#event-655353) | 0x0073       |     12 |              3 |
| [65535.4](#event-655354) | 0x007F       |      8 |              2 |
| [65535.5](#event-655355) | 0x0087       |     10 |              2 |
| [65535.6](#event-655356) | 0x0091       |     10 |              2 |
| [65535.7](#event-655357) | 0x009B       |     10 |              2 |
| [65535.8](#event-655358) | 0x00A5       |     12 |              3 |
| [34](#event-34)          | 0x00B1       |      1 |              1 |

## DAT References (imed_data)

|   Index | Hex Value   |   Dec Value |
|---------|-------------|-------------|
|       0 | 0x003C      |          60 |
|       1 | 0x0102      |         258 |
|       2 | 0x0000      |           0 |
|       3 | 0x001E      |          30 |
|       4 | 0x005A      |          90 |
|       5 | 0x00DC      |         220 |
|       6 | 0xFFFF86DE  |  4294936286 |
|       7 | 0xFFFFFD12  |  4294966546 |
|       8 | 0x03FF      |        1023 |
|       9 | 0x000F      |          15 |
|      10 | 0x0080      |         128 |
|      11 | 0x0078      |         120 |
|      12 | 0xFFFAFFF6  |  4294639606 |
|      13 | 0xFFFFB26D  |  4294947437 |
|      14 | 0x8916      |       35094 |
|      15 | 0x0FD9      |        4057 |

## Events

### Event 65535

#### Metadata

| Field        | Value   |
|--------------|---------|
| Entrypoint   | 0x0000  |
| Data Size    | 1 bytes |
| Instructions | 1       |

```
      00 01 02 03 04 05 06 07  08 09 0A 0B 0C 0D 0E 0F
      -- -- -- -- -- -- -- --  -- -- -- -- -- -- -- --
0000: 00                                                .               
```

#### Opcodes

```
  0: 0x0000 [0x00] END_REQSTACK()
```

### Event 3

#### Metadata

| Field        | Value   |
|--------------|---------|
| Entrypoint   | 0x0001  |
| Data Size    | 1 bytes |
| Instructions | 1       |

```
      00 01 02 03 04 05 06 07  08 09 0A 0B 0C 0D 0E 0F
      -- -- -- -- -- -- -- --  -- -- -- -- -- -- -- --
0000:    00                                              .              
```

#### Opcodes

```
  0: 0x0001 [0x00] END_REQSTACK()
```

### Event 4

#### Metadata

| Field        | Value   |
|--------------|---------|
| Entrypoint   | 0x0002  |
| Data Size    | 1 bytes |
| Instructions | 1       |

```
      00 01 02 03 04 05 06 07  08 09 0A 0B 0C 0D 0E 0F
      -- -- -- -- -- -- -- --  -- -- -- -- -- -- -- --
0000:       00                                            .             
```

#### Opcodes

```
  0: 0x0002 [0x00] END_REQSTACK()
```

### Event 7

#### Metadata

| Field        | Value   |
|--------------|---------|
| Entrypoint   | 0x0003  |
| Data Size    | 1 bytes |
| Instructions | 1       |

```
      00 01 02 03 04 05 06 07  08 09 0A 0B 0C 0D 0E 0F
      -- -- -- -- -- -- -- --  -- -- -- -- -- -- -- --
0000:          00                                          .            
```

#### Opcodes

```
  0: 0x0003 [0x00] END_REQSTACK()
```

### Event 8

#### Metadata

| Field        | Value   |
|--------------|---------|
| Entrypoint   | 0x0004  |
| Data Size    | 1 bytes |
| Instructions | 1       |

```
      00 01 02 03 04 05 06 07  08 09 0A 0B 0C 0D 0E 0F
      -- -- -- -- -- -- -- --  -- -- -- -- -- -- -- --
0000:             00                                        .           
```

#### Opcodes

```
  0: 0x0004 [0x00] END_REQSTACK()
```

### Event 9

#### Metadata

| Field        | Value   |
|--------------|---------|
| Entrypoint   | 0x0005  |
| Data Size    | 1 bytes |
| Instructions | 1       |

```
      00 01 02 03 04 05 06 07  08 09 0A 0B 0C 0D 0E 0F
      -- -- -- -- -- -- -- --  -- -- -- -- -- -- -- --
0000:                00                                      .          
```

#### Opcodes

```
  0: 0x0005 [0x00] END_REQSTACK()
```

### Event 10

#### Metadata

| Field        | Value   |
|--------------|---------|
| Entrypoint   | 0x0006  |
| Data Size    | 1 bytes |
| Instructions | 1       |

```
      00 01 02 03 04 05 06 07  08 09 0A 0B 0C 0D 0E 0F
      -- -- -- -- -- -- -- --  -- -- -- -- -- -- -- --
0000:                   00                                    .         
```

#### Opcodes

```
  0: 0x0006 [0x00] END_REQSTACK()
```

### Event 11

#### Metadata

| Field        | Value   |
|--------------|---------|
| Entrypoint   | 0x0007  |
| Data Size    | 1 bytes |
| Instructions | 1       |

```
      00 01 02 03 04 05 06 07  08 09 0A 0B 0C 0D 0E 0F
      -- -- -- -- -- -- -- --  -- -- -- -- -- -- -- --
0000:                      00                                  .        
```

#### Opcodes

```
  0: 0x0007 [0x00] END_REQSTACK()
```

### Event 65535.1

#### Metadata

| Field        | Value    |
|--------------|----------|
| Entrypoint   | 0x0008   |
| Data Size    | 49 bytes |
| Instructions | 5        |

```
      00 01 02 03 04 05 06 07  08 09 0A 0B 0C 0D 0E 0F
      -- -- -- -- -- -- -- --  -- -- -- -- -- -- -- --
0000:                          1C 00 80 52 01 80 F0 FF          ...R....
0010: FF 7F F0 FF FF 7F 64 62  30 32 45 01 80 F0 FF FF  ......db02E.....
0020: 7F F0 FF FF 7F 64 62 30  33 02 80 53 91 42 04 01  .....db03..S.B..
0030: 91 42 04 01 61 6F 30 30  00                       .B..ao00.       
```

#### Opcodes

```
  0: 0x0008 [0x1C] WAIT(60* ticks)
  1: 0x000B [0x52] END_LOAD_SCHEDULER: End scheduler "db02" with entities [LocalPlayer, LocalPlayer], work=258*
  2: 0x001A [0x45] LOAD_SCHEDULED_TASK: Load scheduler "db03" with entities [LocalPlayer, LocalPlayer], work=[258*, 0*]
  3: 0x002B [0x53] WAIT_SCHEDULER_TASK: Wait for scheduler "ao00" with entities [??? (ID: 17056401/0x01044291), ??? (ID: 17056401/0x01044291)]
  4: 0x0038 [0x00] END_REQSTACK()
```

### Event 65535.2

#### Metadata

| Field        | Value    |
|--------------|----------|
| Entrypoint   | 0x0039   |
| Data Size    | 58 bytes |
| Instructions | 6        |

```
      00 01 02 03 04 05 06 07  08 09 0A 0B 0C 0D 0E 0F
      -- -- -- -- -- -- -- --  -- -- -- -- -- -- -- --
0030:                             1C 03 80 45 01 80 F0           ...E...
0040: FF FF 7F F0 FF FF 7F 68  6E 64 32 02 80 1C 04 80  .......hnd2.....
0050: 45 01 80 F0 FF FF 7F F0  FF FF 7F 6B 69 72 61 02  E..........kira.
0060: 80 9F 05 80 91 42 04 01  91 42 04 01 73 74 72 30  .....B...B..str0
0070: 02 80 00                                          ...             
```

#### Opcodes

```
  0: 0x0039 [0x1C] WAIT(30* ticks)
  1: 0x003C [0x45] LOAD_SCHEDULED_TASK: Load scheduler "hnd2" with entities [LocalPlayer, LocalPlayer], work=[258*, 0*]
  2: 0x004D [0x1C] WAIT(90* ticks)
  3: 0x0050 [0x45] LOAD_SCHEDULED_TASK: Load scheduler "kira" with entities [LocalPlayer, LocalPlayer], work=[258*, 0*]
  4: 0x0061 [0x9F] LOAD_SCHEDULED_TASK_ALT: Load scheduler "str0" with entities [??? (ID: 17056401/0x01044291), ??? (ID: 17056401/0x01044291)], work=[220*, 0*]
  5: 0x0072 [0x00] END_REQSTACK()
```

### Event 65535.3

#### Metadata

| Field        | Value    |
|--------------|----------|
| Entrypoint   | 0x0073   |
| Data Size    | 12 bytes |
| Instructions | 3        |

```
      00 01 02 03 04 05 06 07  08 09 0A 0B 0C 0D 0E 0F
      -- -- -- -- -- -- -- --  -- -- -- -- -- -- -- --
0070:          33 01 37 02 80  06 80 07 80 08 80 00        3.7......... 
```

#### Opcodes

```
  0: 0x0073 [0x33] EventEntity->Render.Flags0 |= 0x200000 // Bit 21 (flag=0x01)
  1: 0x0075 [0x37] UPDATE_EVENT_POSITION_AND_DIR: x=0.000*, z=-31.010*, y=-0.750*, direction=89.9°*
  2: 0x007E [0x00] END_REQSTACK()
```

### Event 65535.4

#### Metadata

| Field        | Value   |
|--------------|---------|
| Entrypoint   | 0x007F  |
| Data Size    | 8 bytes |
| Instructions | 2       |

```
      00 01 02 03 04 05 06 07  08 09 0A 0B 0C 0D 0E 0F
      -- -- -- -- -- -- -- --  -- -- -- -- -- -- -- --
0070:                                               6A                 j
0080: 02 80 00 80 09 80 00                              .......         
```

#### Opcodes

```
  0: 0x007F [0x6A] CHANGE_SOUND_VOLUME: Set (Effects/System/Zone/Master)* volume to 0*, fade_time=60*
  1: 0x0086 [0x00] END_REQSTACK()
```

### Event 65535.5

#### Metadata

| Field        | Value    |
|--------------|----------|
| Entrypoint   | 0x0087   |
| Data Size    | 10 bytes |
| Instructions | 2        |

```
      00 01 02 03 04 05 06 07  08 09 0A 0B 0C 0D 0E 0F
      -- -- -- -- -- -- -- --  -- -- -- -- -- -- -- --
0080:                      6C  94 42 04 01 02 80 00 80         l.B......
0090: 00                                                .               
```

#### Opcodes

```
  0: 0x0087 [0x6C] FADE_ENTITY_COLOR(entity_id=Yasfel (ID: 17056404/0x01044294), end_alpha=0*, fade_time=60*)
  1: 0x0090 [0x00] END_REQSTACK()
```

### Event 65535.6

#### Metadata

| Field        | Value    |
|--------------|----------|
| Entrypoint   | 0x0091   |
| Data Size    | 10 bytes |
| Instructions | 2        |

```
      00 01 02 03 04 05 06 07  08 09 0A 0B 0C 0D 0E 0F
      -- -- -- -- -- -- -- --  -- -- -- -- -- -- -- --
0090:    6C 94 42 04 01 0A 80  0B 80 00                  l.B.......     
```

#### Opcodes

```
  0: 0x0091 [0x6C] FADE_ENTITY_COLOR(entity_id=Yasfel (ID: 17056404/0x01044294), end_alpha=128*, fade_time=120*)
  1: 0x009A [0x00] END_REQSTACK()
```

### Event 65535.7

#### Metadata

| Field        | Value    |
|--------------|----------|
| Entrypoint   | 0x009B   |
| Data Size    | 10 bytes |
| Instructions | 2        |

```
      00 01 02 03 04 05 06 07  08 09 0A 0B 0C 0D 0E 0F
      -- -- -- -- -- -- -- --  -- -- -- -- -- -- -- --
0090:                                   6C 98 42 04 01             l.B..
00A0: 0A 80 0B 80 00                                    .....           
```

#### Opcodes

```
  0: 0x009B [0x6C] FADE_ENTITY_COLOR(entity_id=Wawaroon (ID: 17056408/0x01044298), end_alpha=128*, fade_time=120*)
  1: 0x00A4 [0x00] END_REQSTACK()
```

### Event 65535.8

#### Metadata

| Field        | Value    |
|--------------|----------|
| Entrypoint   | 0x00A5   |
| Data Size    | 12 bytes |
| Instructions | 3        |

```
      00 01 02 03 04 05 06 07  08 09 0A 0B 0C 0D 0E 0F
      -- -- -- -- -- -- -- --  -- -- -- -- -- -- -- --
00A0:                22 00 37  0C 80 0D 80 0E 80 0F 80       ".7........
00B0: 00                                                .               
```

#### Opcodes

```
  0: 0x00A5 [0x22] ENTITY_HIDE_FLAG(enabled=0x00)
  1: 0x00A7 [0x37] UPDATE_EVENT_POSITION_AND_DIR: x=-327.690*, z=-19.859*, y=35.094*, direction=356.6°*
  2: 0x00B0 [0x00] END_REQSTACK()
```

### Event 34

#### Metadata

| Field        | Value   |
|--------------|---------|
| Entrypoint   | 0x00B1  |
| Data Size    | 1 bytes |
| Instructions | 1       |

```
      00 01 02 03 04 05 06 07  08 09 0A 0B 0C 0D 0E 0F
      -- -- -- -- -- -- -- --  -- -- -- -- -- -- -- --
00B0:    00                                              .              
```

#### Opcodes

```
  0: 0x00B1 [0x00] END_REQSTACK()
```
