# 17056420 - Gogoroon

## Common Data

| Field            | Value                       |
|------------------|-----------------------------|
| Zone             | Aydeewa Subterrane (ID: 68) |
| Block Size       | 2096 bytes                  |
| Total Events     | 75                          |
| References Count | 88                          |

## List of Events

| Event ID                   | Entrypoint   |   Size |   Instructions |
|----------------------------|--------------|--------|----------------|
| [65535](#event-65535)      | 0x0000       |      1 |              1 |
| [65535.1](#event-655351)   | 0x0001       |      1 |              1 |
| [65535.2](#event-655352)   | 0x0002       |     18 |              4 |
| [65535.3](#event-655353)   | 0x0014       |     10 |              2 |
| [65535.4](#event-655354)   | 0x001E       |      9 |              3 |
| [65535.5](#event-655355)   | 0x0027       |      9 |              3 |
| [65535.6](#event-655356)   | 0x0030       |     10 |              2 |
| [65535.7](#event-655357)   | 0x003A       |     10 |              2 |
| [10](#event-10)            | 0x0044       |      1 |              1 |
| [11](#event-11)            | 0x0045       |      1 |              1 |
| [12](#event-12)            | 0x0046       |      1 |              1 |
| [65535.8](#event-655358)   | 0x0047       |     10 |              2 |
| [65535.9](#event-655359)   | 0x0051       |     10 |              2 |
| [65535.10](#event-6553510) | 0x005B       |     15 |              5 |
| [65535.11](#event-6553511) | 0x006A       |     28 |              8 |
| [65535.12](#event-6553512) | 0x0086       |     63 |             14 |
| [65535.13](#event-6553513) | 0x00C5       |     33 |              7 |
| [65535.14](#event-6553514) | 0x00E6       |     26 |              8 |
| [65535.15](#event-6553515) | 0x0100       |     20 |              6 |
| [65535.16](#event-6553516) | 0x0114       |     28 |              4 |
| [65535.17](#event-6553517) | 0x0130       |     14 |              2 |
| [65535.18](#event-6553518) | 0x013E       |     16 |              2 |
| [65535.19](#event-6553519) | 0x014E       |     26 |              4 |
| [65535.20](#event-6553520) | 0x0168       |     28 |              4 |
| [65535.21](#event-6553521) | 0x0184       |     14 |              2 |
| [65535.22](#event-6553522) | 0x0192       |     16 |              2 |
| [65535.23](#event-6553523) | 0x01A2       |     26 |              4 |
| [65535.24](#event-6553524) | 0x01BC       |     28 |              4 |
| [65535.25](#event-6553525) | 0x01D8       |     26 |              4 |
| [65535.26](#event-6553526) | 0x01F2       |     28 |              4 |
| [65535.27](#event-6553527) | 0x020E       |     14 |              2 |
| [65535.28](#event-6553528) | 0x021C       |     16 |              2 |
| [65535.29](#event-6553529) | 0x022C       |     26 |              4 |
| [65535.30](#event-6553530) | 0x0246       |     28 |              4 |
| [65535.31](#event-6553531) | 0x0262       |     14 |              2 |
| [65535.32](#event-6553532) | 0x0270       |     16 |              2 |
| [65535.33](#event-6553533) | 0x0280       |     26 |              4 |
| [65535.34](#event-6553534) | 0x029A       |     28 |              4 |
| [65535.35](#event-6553535) | 0x02B6       |     14 |              2 |
| [65535.36](#event-6553536) | 0x02C4       |     16 |              2 |
| [65535.37](#event-6553537) | 0x02D4       |     26 |              4 |
| [65535.38](#event-6553538) | 0x02EE       |     28 |              4 |
| [65535.39](#event-6553539) | 0x030A       |     26 |              4 |
| [65535.40](#event-6553540) | 0x0324       |     28 |              4 |
| [65535.41](#event-6553541) | 0x0340       |     26 |              4 |
| [65535.42](#event-6553542) | 0x035A       |     28 |              4 |
| [65535.43](#event-6553543) | 0x0376       |     14 |              2 |
| [65535.44](#event-6553544) | 0x0384       |     16 |              2 |
| [65535.45](#event-6553545) | 0x0394       |     26 |              4 |
| [65535.46](#event-6553546) | 0x03AE       |     16 |              2 |
| [65535.47](#event-6553547) | 0x03BE       |     14 |              2 |
| [65535.48](#event-6553548) | 0x03CC       |     16 |              2 |
| [65535.49](#event-6553549) | 0x03DC       |     14 |              2 |
| [65535.50](#event-6553550) | 0x03EA       |     16 |              2 |
| [65535.51](#event-6553551) | 0x03FA       |     14 |              2 |
| [65535.52](#event-6553552) | 0x0408       |     16 |              2 |
| [65535.53](#event-6553553) | 0x0418       |     14 |              2 |
| [65535.54](#event-6553554) | 0x0426       |     16 |              2 |
| [65535.55](#event-6553555) | 0x0436       |     14 |              2 |
| [65535.56](#event-6553556) | 0x0444       |     16 |              2 |
| [65535.57](#event-6553557) | 0x0454       |     14 |              2 |
| [65535.58](#event-6553558) | 0x0462       |     16 |              2 |
| [65535.59](#event-6553559) | 0x0472       |     14 |              2 |
| [65535.60](#event-6553560) | 0x0480       |     16 |              2 |
| [65535.61](#event-6553561) | 0x0490       |     14 |              2 |
| [65535.62](#event-6553562) | 0x049E       |     41 |              5 |
| [65535.63](#event-6553563) | 0x04C7       |     16 |              2 |
| [65535.64](#event-6553564) | 0x04D7       |     14 |              2 |
| [36](#event-36)            | 0x04E5       |      7 |              2 |
| [65535.65](#event-6553565) | 0x04EC       |     35 |              9 |
| [40](#event-40)            | 0x050F       |      7 |              2 |
| [65535.66](#event-6553566) | 0x0516       |     67 |             15 |
| [41](#event-41)            | 0x0559       |      7 |              2 |
| [65535.67](#event-6553567) | 0x0560       |     15 |              5 |
| [65535.68](#event-6553568) | 0x056F       |     37 |             10 |

## DAT References (imed_data)

|   Index | Hex Value   |   Dec Value |
|---------|-------------|-------------|
|       0 | 0x0000      |           0 |
|       1 | 0x0001      |           1 |
|       2 | 0x0080      |         128 |
|       3 | 0xFFFB38A5  |  4294654117 |
|       4 | 0xFFFFE7EA  |  4294961130 |
|       5 | 0x9074      |       36980 |
|       6 | 0x0931      |        2353 |
|       7 | 0xFFFB02C5  |  4294640325 |
|       8 | 0xFFFFAB2C  |  4294945580 |
|       9 | 0x8974      |       35188 |
|      10 | 0x08FC      |        2300 |
|      11 | 0x0009      |           9 |
|      12 | 0xFFFBC93F  |  4294691135 |
|      13 | 0xFFFFEEF0  |  4294962928 |
|      14 | 0x8FCC      |       36812 |
|      15 | 0x0006      |           6 |
|      16 | 0x0024      |          36 |
|      17 | 0xFFFBC3C9  |  4294689737 |
|      18 | 0xFFFFF649  |  4294964809 |
|      19 | 0x8EF2      |       36594 |
|      20 | 0xFFFBB1F6  |  4294685174 |
|      21 | 0x03D1      |         977 |
|      22 | 0x8E93      |       36499 |
|      23 | 0x0026      |          38 |
|      24 | 0xFFFB0B75  |  4294642549 |
|      25 | 0xFFFFA788  |  4294944648 |
|      26 | 0x8B6A      |       35690 |
|      27 | 0x034B      |         843 |
|      28 | 0xFFFB14E6  |  4294644966 |
|      29 | 0xFFFF935F  |  4294939487 |
|      30 | 0x8F40      |       36672 |
|      31 | 0x000D      |          13 |
|      32 | 0xFFFB4E68  |  4294659688 |
|      33 | 0xFFFF5DFC  |  4294925820 |
|      34 | 0x8FF4      |       36852 |
|      35 | 0x0003      |           3 |
|      36 | 0x03DE      |         990 |
|      37 | 0x0028      |          40 |
|      38 | 0xFFFB9DEF  |  4294680047 |
|      39 | 0xFFFF4E8E  |  4294921870 |
|      40 | 0x9016      |       36886 |
|      41 | 0xFFFBA895  |  4294682773 |
|      42 | 0xFFFF6C32  |  4294929458 |
|      43 | 0x8F8E      |       36750 |
|      44 | 0x136B7     |       79543 |
|      45 | 0xD8BB      |       55483 |
|      46 | 0xFFFFFEBB  |  4294966971 |
|      47 | 0x034A      |         842 |
|      48 | 0x0371      |         881 |
|      49 | 0x0397      |         919 |
|      50 | 0x003C      |          60 |
|      51 | 0xD5B0      |       54704 |
|      52 | 0x1865F     |       99935 |
|      53 | 0x8CA8      |       36008 |
|      54 | 0xE7A4      |       59300 |
|      55 | 0x16F9C     |       94108 |
|      56 | 0x8BC3      |       35779 |
|      57 | 0xE404      |       58372 |
|      58 | 0x13741     |       79681 |
|      59 | 0x8FB5      |       36789 |
|      60 | 0xFFF9D68E  |  4294563470 |
|      61 | 0xFFF94C70  |  4294528112 |
|      62 | 0x1DE0      |        7648 |
|      63 | 0xFFF9FB8F  |  4294572943 |
|      64 | 0xFFF954D7  |  4294530263 |
|      65 | 0x2C35      |       11317 |
|      66 | 0xFFFA5B1A  |  4294597402 |
|      67 | 0xFFF951EE  |  4294529518 |
|      68 | 0x39A5      |       14757 |
|      69 | 0xFFFA62E7  |  4294599399 |
|      70 | 0xFFF93FDD  |  4294524893 |
|      71 | 0x3A7B      |       14971 |
|      72 | 0xFFFA5A92  |  4294597266 |
|      73 | 0xFFF92FD8  |  4294520792 |
|      74 | 0x39B5      |       14773 |
|      75 | 0x0E4C      |        3660 |
|      76 | 0xFFFA50DA  |  4294594778 |
|      77 | 0xFFF93D7B  |  4294524283 |
|      78 | 0x3A13      |       14867 |
|      79 | 0xFFFA6C02  |  4294601730 |
|      80 | 0xFFF9557C  |  4294530428 |
|      81 | 0x39DF      |       14815 |
|      82 | 0xFFFA7D91  |  4294606225 |
|      83 | 0xFFF9673C  |  4294534972 |
|      84 | 0x3A77      |       14967 |
|      85 | 0xFFFB05F0  |  4294641136 |
|      86 | 0xFFF995FB  |  4294546939 |
|      87 | 0x3833      |       14387 |

## Events

### Event 65535

#### Metadata

| Field        | Value   |
|--------------|---------|
| Entrypoint   | 0x0000  |
| Data Size    | 1 bytes |
| Instructions | 1       |

```
      00 01 02 03 04 05 06 07  08 09 0A 0B 0C 0D 0E 0F
      -- -- -- -- -- -- -- --  -- -- -- -- -- -- -- --
0000: 00                                                .               
```

#### Opcodes

```
  0: 0x0000 [0x00] END_REQSTACK()
```

### Event 65535.1

#### Metadata

| Field        | Value   |
|--------------|---------|
| Entrypoint   | 0x0001  |
| Data Size    | 1 bytes |
| Instructions | 1       |

```
      00 01 02 03 04 05 06 07  08 09 0A 0B 0C 0D 0E 0F
      -- -- -- -- -- -- -- --  -- -- -- -- -- -- -- --
0000:    00                                              .              
```

#### Opcodes

```
  0: 0x0001 [0x00] END_REQSTACK()
```

### Event 65535.2

#### Metadata

| Field        | Value    |
|--------------|----------|
| Entrypoint   | 0x0002   |
| Data Size    | 18 bytes |
| Instructions | 4        |

```
      00 01 02 03 04 05 06 07  08 09 0A 0B 0C 0D 0E 0F
      -- -- -- -- -- -- -- --  -- -- -- -- -- -- -- --
0000:       22 00 2F 00 F8 FF  FF 7F 6C F8 FF FF 7F 00    "./.....l.....
0010: 80 01 80 00                                       ....            
```

#### Opcodes

```
  0: 0x0002 [0x22] ENTITY_HIDE_FLAG(enabled=0x00)
  1: 0x0004 [0x2F] EventEntity->Render.Flags0 &= ~0x80000 // Bit 19
  2: 0x000A [0x6C] FADE_ENTITY_COLOR(entity_id=EventEntity, end_alpha=0*, fade_time=1*)
  3: 0x0013 [0x00] END_REQSTACK()
```

### Event 65535.3

#### Metadata

| Field        | Value    |
|--------------|----------|
| Entrypoint   | 0x0014   |
| Data Size    | 10 bytes |
| Instructions | 2        |

```
      00 01 02 03 04 05 06 07  08 09 0A 0B 0C 0D 0E 0F
      -- -- -- -- -- -- -- --  -- -- -- -- -- -- -- --
0010:             6C F8 FF FF  7F 02 80 01 80 00            l.........  
```

#### Opcodes

```
  0: 0x0014 [0x6C] FADE_ENTITY_COLOR(entity_id=EventEntity, end_alpha=128*, fade_time=1*)
  1: 0x001D [0x00] END_REQSTACK()
```

### Event 65535.4

#### Metadata

| Field        | Value   |
|--------------|---------|
| Entrypoint   | 0x001E  |
| Data Size    | 9 bytes |
| Instructions | 3       |

```
      00 01 02 03 04 05 06 07  08 09 0A 0B 0C 0D 0E 0F
      -- -- -- -- -- -- -- --  -- -- -- -- -- -- -- --
0010:                                            22 00                ".
0020: 2F 00 F8 FF FF 7F 00                              /......         
```

#### Opcodes

```
  0: 0x001E [0x22] ENTITY_HIDE_FLAG(enabled=0x00)
  1: 0x0020 [0x2F] EventEntity->Render.Flags0 &= ~0x80000 // Bit 19
  2: 0x0026 [0x00] END_REQSTACK()
```

### Event 65535.5

#### Metadata

| Field        | Value   |
|--------------|---------|
| Entrypoint   | 0x0027  |
| Data Size    | 9 bytes |
| Instructions | 3       |

```
      00 01 02 03 04 05 06 07  08 09 0A 0B 0C 0D 0E 0F
      -- -- -- -- -- -- -- --  -- -- -- -- -- -- -- --
0020:                      22  01 2F 01 F8 FF FF 7F 00         "./......
```

#### Opcodes

```
  0: 0x0027 [0x22] ENTITY_HIDE_FLAG(enabled=0x01)
  1: 0x0029 [0x2F] EventEntity->Render.Flags0 |= 0x80000 // Bit 19
  2: 0x002F [0x00] END_REQSTACK()
```

### Event 65535.6

#### Metadata

| Field        | Value    |
|--------------|----------|
| Entrypoint   | 0x0030   |
| Data Size    | 10 bytes |
| Instructions | 2        |

```
      00 01 02 03 04 05 06 07  08 09 0A 0B 0C 0D 0E 0F
      -- -- -- -- -- -- -- --  -- -- -- -- -- -- -- --
0030: 6C F8 FF FF 7F 00 80 01  80 00                    l.........      
```

#### Opcodes

```
  0: 0x0030 [0x6C] FADE_ENTITY_COLOR(entity_id=EventEntity, end_alpha=0*, fade_time=1*)
  1: 0x0039 [0x00] END_REQSTACK()
```

### Event 65535.7

#### Metadata

| Field        | Value    |
|--------------|----------|
| Entrypoint   | 0x003A   |
| Data Size    | 10 bytes |
| Instructions | 2        |

```
      00 01 02 03 04 05 06 07  08 09 0A 0B 0C 0D 0E 0F
      -- -- -- -- -- -- -- --  -- -- -- -- -- -- -- --
0030:                                6C F8 FF FF 7F 02            l.....
0040: 80 01 80 00                                       ....            
```

#### Opcodes

```
  0: 0x003A [0x6C] FADE_ENTITY_COLOR(entity_id=EventEntity, end_alpha=128*, fade_time=1*)
  1: 0x0043 [0x00] END_REQSTACK()
```

### Event 10

#### Metadata

| Field        | Value   |
|--------------|---------|
| Entrypoint   | 0x0044  |
| Data Size    | 1 bytes |
| Instructions | 1       |

```
      00 01 02 03 04 05 06 07  08 09 0A 0B 0C 0D 0E 0F
      -- -- -- -- -- -- -- --  -- -- -- -- -- -- -- --
0040:             00                                        .           
```

#### Opcodes

```
  0: 0x0044 [0x00] END_REQSTACK()
```

### Event 11

#### Metadata

| Field        | Value   |
|--------------|---------|
| Entrypoint   | 0x0045  |
| Data Size    | 1 bytes |
| Instructions | 1       |

```
      00 01 02 03 04 05 06 07  08 09 0A 0B 0C 0D 0E 0F
      -- -- -- -- -- -- -- --  -- -- -- -- -- -- -- --
0040:                00                                      .          
```

#### Opcodes

```
  0: 0x0045 [0x00] END_REQSTACK()
```

### Event 12

#### Metadata

| Field        | Value   |
|--------------|---------|
| Entrypoint   | 0x0046  |
| Data Size    | 1 bytes |
| Instructions | 1       |

```
      00 01 02 03 04 05 06 07  08 09 0A 0B 0C 0D 0E 0F
      -- -- -- -- -- -- -- --  -- -- -- -- -- -- -- --
0040:                   00                                    .         
```

#### Opcodes

```
  0: 0x0046 [0x00] END_REQSTACK()
```

### Event 65535.8

#### Metadata

| Field        | Value    |
|--------------|----------|
| Entrypoint   | 0x0047   |
| Data Size    | 10 bytes |
| Instructions | 2        |

```
      00 01 02 03 04 05 06 07  08 09 0A 0B 0C 0D 0E 0F
      -- -- -- -- -- -- -- --  -- -- -- -- -- -- -- --
0040:                      37  03 80 04 80 05 80 06 80         7........
0050: 00                                                .               
```

#### Opcodes

```
  0: 0x0047 [0x37] UPDATE_EVENT_POSITION_AND_DIR: x=-313.179*, z=-6.166*, y=36.980*, direction=206.8°*
  1: 0x0050 [0x00] END_REQSTACK()
```

### Event 65535.9

#### Metadata

| Field        | Value    |
|--------------|----------|
| Entrypoint   | 0x0051   |
| Data Size    | 10 bytes |
| Instructions | 2        |

```
      00 01 02 03 04 05 06 07  08 09 0A 0B 0C 0D 0E 0F
      -- -- -- -- -- -- -- --  -- -- -- -- -- -- -- --
0050:    37 07 80 08 80 09 80  0A 80 00                  7.........     
```

#### Opcodes

```
  0: 0x0051 [0x37] UPDATE_EVENT_POSITION_AND_DIR: x=-326.971*, z=-21.716*, y=35.188*, direction=202.1°*
  1: 0x005A [0x00] END_REQSTACK()
```

### Event 65535.10

#### Metadata

| Field        | Value    |
|--------------|----------|
| Entrypoint   | 0x005B   |
| Data Size    | 15 bytes |
| Instructions | 5        |

```
      00 01 02 03 04 05 06 07  08 09 0A 0B 0C 0D 0E 0F
      -- -- -- -- -- -- -- --  -- -- -- -- -- -- -- --
0050:                                   32 0B 80 1F 00             2....
0060: 0C 80 0D 80 0E 80 1F 01  6F 00                    ........o.      
```

#### Opcodes

```
  0: 0x005B [0x32] ExtData[1]->MainSpeed = 9* * 0.1
  1: 0x005E [0x1F] MOVE_ENTITY: EventEntity moves to X=-276.161*, Z=-4.368*, Y=36.812*
  2: 0x0066 [0x1F] MOVE_ENTITY: Update entity position (mode=1)
  3: 0x0068 [0x6F] WAIT_FRAME_DELAY: Yield until WaitTime reaches zero
  4: 0x0069 [0x00] END_REQSTACK()
```

### Event 65535.11

#### Metadata

| Field        | Value    |
|--------------|----------|
| Entrypoint   | 0x006A   |
| Data Size    | 28 bytes |
| Instructions | 8        |

```
      00 01 02 03 04 05 06 07  08 09 0A 0B 0C 0D 0E 0F
      -- -- -- -- -- -- -- --  -- -- -- -- -- -- -- --
0060:                                1C 0F 80 32 10 80            ...2..
0070: 1F 00 11 80 12 80 13 80  1F 01 1F 00 14 80 15 80  ................
0080: 16 80 1F 01 6F 00                                 ....o.          
```

#### Opcodes

```
  0: 0x006A [0x1C] WAIT(6* ticks)
  1: 0x006D [0x32] ExtData[1]->MainSpeed = 36* * 0.1
  2: 0x0070 [0x1F] MOVE_ENTITY: EventEntity moves to X=-277.559*, Z=-2.487*, Y=36.594*
  3: 0x0078 [0x1F] MOVE_ENTITY: Update entity position (mode=1)
  4: 0x007A [0x1F] MOVE_ENTITY: EventEntity moves to X=-282.122*, Z=0.977*, Y=36.499*
  5: 0x0082 [0x1F] MOVE_ENTITY: Update entity position (mode=1)
  6: 0x0084 [0x6F] WAIT_FRAME_DELAY: Yield until WaitTime reaches zero
  7: 0x0085 [0x00] END_REQSTACK()
```

### Event 65535.12

#### Metadata

| Field        | Value    |
|--------------|----------|
| Entrypoint   | 0x0086   |
| Data Size    | 63 bytes |
| Instructions | 14       |

```
      00 01 02 03 04 05 06 07  08 09 0A 0B 0C 0D 0E 0F
      -- -- -- -- -- -- -- --  -- -- -- -- -- -- -- --
0080:                   32 17  80 1F 00 18 80 19 80 1A        2.........
0090: 80 1F 01 6F 1E 9F 42 04  01 6F 70 5B 1B 80 A4 42  ...o..B..op[...B
00A0: 04 01 A4 42 04 01 61 6E  67 30 53 A4 42 04 01 A4  ...B..ang0S.B...
00B0: 42 04 01 61 6E 67 30 1F  00 1C 80 1D 80 1E 80 1F  B..ang0.........
00C0: 01 6F 22 01 00                                    .o"..           
```

#### Opcodes

```
  0: 0x0086 [0x32] ExtData[1]->MainSpeed = 38* * 0.1
  1: 0x0089 [0x1F] MOVE_ENTITY: EventEntity moves to X=-324.747*, Z=-22.648*, Y=35.690*
  2: 0x0091 [0x1F] MOVE_ENTITY: Update entity position (mode=1)
  3: 0x0093 [0x6F] WAIT_FRAME_DELAY: Yield until WaitTime reaches zero
  4: 0x0094 [0x1E] EventEntity looks at Ovjang (ID: 17056415/0x0104429F) and starts talking
  5: 0x0099 [0x6F] WAIT_FRAME_DELAY: Yield until WaitTime reaches zero
  6: 0x009A [0x70] WAIT_ENTITY_RENDER_FLAG: Wait while EventEntity->Render.Flags3 bit 2 is set (cancel turn if not)
  7: 0x009B [0x5B] LOAD_EXT_SCHEDULER: Load scheduler "ang0" with entities [Gogoroon (ID: 17056420/0x010442A4), Gogoroon (ID: 17056420/0x010442A4)], work=843*
  8: 0x00AA [0x53] WAIT_SCHEDULER_TASK: Wait for scheduler "ang0" with entities [Gogoroon (ID: 17056420/0x010442A4), Gogoroon (ID: 17056420/0x010442A4)]
  9: 0x00B7 [0x1F] MOVE_ENTITY: EventEntity moves to X=-322.330*, Z=-27.809*, Y=36.672*
 10: 0x00BF [0x1F] MOVE_ENTITY: Update entity position (mode=1)
 11: 0x00C1 [0x6F] WAIT_FRAME_DELAY: Yield until WaitTime reaches zero
 12: 0x00C2 [0x22] ENTITY_HIDE_FLAG(enabled=0x01)
 13: 0x00C4 [0x00] END_REQSTACK()
```

### Event 65535.13

#### Metadata

| Field        | Value    |
|--------------|----------|
| Entrypoint   | 0x00C5   |
| Data Size    | 33 bytes |
| Instructions | 7        |

```
      00 01 02 03 04 05 06 07  08 09 0A 0B 0C 0D 0E 0F
      -- -- -- -- -- -- -- --  -- -- -- -- -- -- -- --
00C0:                32 1F 80  1F 00 20 80 21 80 22 80       2.... .!.".
00D0: 1F 01 6F 1C 23 80 5B 24  80 A4 42 04 01 A4 42 04  ..o.#.[$..B...B.
00E0: 01 67 73 63 30 00                                 .gsc0.          
```

#### Opcodes

```
  0: 0x00C5 [0x32] ExtData[1]->MainSpeed = 13* * 0.1
  1: 0x00C8 [0x1F] MOVE_ENTITY: EventEntity moves to X=-307.608*, Z=-41.476*, Y=36.852*
  2: 0x00D0 [0x1F] MOVE_ENTITY: Update entity position (mode=1)
  3: 0x00D2 [0x6F] WAIT_FRAME_DELAY: Yield until WaitTime reaches zero
  4: 0x00D3 [0x1C] WAIT(3* ticks)
  5: 0x00D6 [0x5B] LOAD_EXT_SCHEDULER: Load scheduler "gsc0" with entities [Gogoroon (ID: 17056420/0x010442A4), Gogoroon (ID: 17056420/0x010442A4)], work=990*
  6: 0x00E5 [0x00] END_REQSTACK()
```

### Event 65535.14

#### Metadata

| Field        | Value    |
|--------------|----------|
| Entrypoint   | 0x00E6   |
| Data Size    | 26 bytes |
| Instructions | 8        |

```
      00 01 02 03 04 05 06 07  08 09 0A 0B 0C 0D 0E 0F
      -- -- -- -- -- -- -- --  -- -- -- -- -- -- -- --
00E0:                   32 25  80 1F 00 26 80 27 80 28        2%...&.'.(
00F0: 80 1F 01 6F 1F 00 29 80  2A 80 2B 80 1F 01 6F 00  ...o..).*.+...o.
```

#### Opcodes

```
  0: 0x00E6 [0x32] ExtData[1]->MainSpeed = 40* * 0.1
  1: 0x00E9 [0x1F] MOVE_ENTITY: EventEntity moves to X=-287.249*, Z=-45.426*, Y=36.886*
  2: 0x00F1 [0x1F] MOVE_ENTITY: Update entity position (mode=1)
  3: 0x00F3 [0x6F] WAIT_FRAME_DELAY: Yield until WaitTime reaches zero
  4: 0x00F4 [0x1F] MOVE_ENTITY: EventEntity moves to X=-284.523*, Z=-37.838*, Y=36.750*
  5: 0x00FC [0x1F] MOVE_ENTITY: Update entity position (mode=1)
  6: 0x00FE [0x6F] WAIT_FRAME_DELAY: Yield until WaitTime reaches zero
  7: 0x00FF [0x00] END_REQSTACK()
```

### Event 65535.15

#### Metadata

| Field        | Value    |
|--------------|----------|
| Entrypoint   | 0x0100   |
| Data Size    | 20 bytes |
| Instructions | 6        |

```
      00 01 02 03 04 05 06 07  08 09 0A 0B 0C 0D 0E 0F
      -- -- -- -- -- -- -- --  -- -- -- -- -- -- -- --
0100: 32 1F 80 1F 00 2C 80 2D  80 2E 80 1F 01 6F 1E B1  2....,.-.....o..
0110: 42 04 01 00                                       B...            
```

#### Opcodes

```
  0: 0x0100 [0x32] ExtData[1]->MainSpeed = 13* * 0.1
  1: 0x0103 [0x1F] MOVE_ENTITY: EventEntity moves to X=79.543*, Z=55.483*, Y=-0.325*
  2: 0x010B [0x1F] MOVE_ENTITY: Update entity position (mode=1)
  3: 0x010D [0x6F] WAIT_FRAME_DELAY: Yield until WaitTime reaches zero
  4: 0x010E [0x1E] EventEntity looks at Mihli Aliapoh (ID: 17056433/0x010442B1) and starts talking
  5: 0x0113 [0x00] END_REQSTACK()
```

### Event 65535.16

#### Metadata

| Field        | Value    |
|--------------|----------|
| Entrypoint   | 0x0114   |
| Data Size    | 28 bytes |
| Instructions | 4        |

```
      00 01 02 03 04 05 06 07  08 09 0A 0B 0C 0D 0E 0F
      -- -- -- -- -- -- -- --  -- -- -- -- -- -- -- --
0110:             81 00 F8 FF  FF 7F 7C 00 F8 FF FF 7F      ......|.....
0120: 5B 2F 80 F8 FF FF 7F F8  FF FF 7F 74 6C 6B 30 00  [/.........tlk0.
```

#### Opcodes

```
  0: 0x0114 [0x81] SET_ENTITY_BLINKING(blink_flag=0x00, entity=EventEntity)
  1: 0x011A [0x7C] EventEntity->Render.Flags2 |= 0x00
  2: 0x0120 [0x5B] LOAD_EXT_SCHEDULER: Load scheduler "tlk0" with entities [EventEntity, EventEntity], work=842*
  3: 0x012F [0x00] END_REQSTACK()
```

### Event 65535.17

#### Metadata

| Field        | Value    |
|--------------|----------|
| Entrypoint   | 0x0130   |
| Data Size    | 14 bytes |
| Instructions | 2        |

```
      00 01 02 03 04 05 06 07  08 09 0A 0B 0C 0D 0E 0F
      -- -- -- -- -- -- -- --  -- -- -- -- -- -- -- --
0130: 53 F8 FF FF 7F F8 FF FF  7F 74 6C 6B 30 00        S........tlk0.  
```

#### Opcodes

```
  0: 0x0130 [0x53] WAIT_SCHEDULER_TASK: Wait for scheduler "tlk0" with entities [EventEntity, EventEntity]
  1: 0x013D [0x00] END_REQSTACK()
```

### Event 65535.18

#### Metadata

| Field        | Value    |
|--------------|----------|
| Entrypoint   | 0x013E   |
| Data Size    | 16 bytes |
| Instructions | 2        |

```
      00 01 02 03 04 05 06 07  08 09 0A 0B 0C 0D 0E 0F
      -- -- -- -- -- -- -- --  -- -- -- -- -- -- -- --
0130:                                            5B 2F                [/
0140: 80 F8 FF FF 7F F8 FF FF  7F 74 6C 6B 31 00        .........tlk1.  
```

#### Opcodes

```
  0: 0x013E [0x5B] LOAD_EXT_SCHEDULER: Load scheduler "tlk1" with entities [EventEntity, EventEntity], work=842*
  1: 0x014D [0x00] END_REQSTACK()
```

### Event 65535.19

#### Metadata

| Field        | Value    |
|--------------|----------|
| Entrypoint   | 0x014E   |
| Data Size    | 26 bytes |
| Instructions | 4        |

```
      00 01 02 03 04 05 06 07  08 09 0A 0B 0C 0D 0E 0F
      -- -- -- -- -- -- -- --  -- -- -- -- -- -- -- --
0140:                                            53 F8                S.
0150: FF FF 7F F8 FF FF 7F 74  6C 6B 31 81 01 F8 FF FF  .......tlk1.....
0160: 7F 7C 01 F8 FF FF 7F 00                           .|......        
```

#### Opcodes

```
  0: 0x014E [0x53] WAIT_SCHEDULER_TASK: Wait for scheduler "tlk1" with entities [EventEntity, EventEntity]
  1: 0x015B [0x81] SET_ENTITY_BLINKING(blink_flag=0x01, entity=EventEntity)
  2: 0x0161 [0x7C] EventEntity->Render.Flags2 |= 0x01
  3: 0x0167 [0x00] END_REQSTACK()
```

### Event 65535.20

#### Metadata

| Field        | Value    |
|--------------|----------|
| Entrypoint   | 0x0168   |
| Data Size    | 28 bytes |
| Instructions | 4        |

```
      00 01 02 03 04 05 06 07  08 09 0A 0B 0C 0D 0E 0F
      -- -- -- -- -- -- -- --  -- -- -- -- -- -- -- --
0160:                          81 00 F8 FF FF 7F 7C 00          ......|.
0170: F8 FF FF 7F 5B 2F 80 F8  FF FF 7F F8 FF FF 7F 74  ....[/.........t
0180: 68 6B 30 00                                       hk0.            
```

#### Opcodes

```
  0: 0x0168 [0x81] SET_ENTITY_BLINKING(blink_flag=0x00, entity=EventEntity)
  1: 0x016E [0x7C] EventEntity->Render.Flags2 |= 0x00
  2: 0x0174 [0x5B] LOAD_EXT_SCHEDULER: Load scheduler "thk0" with entities [EventEntity, EventEntity], work=842*
  3: 0x0183 [0x00] END_REQSTACK()
```

### Event 65535.21

#### Metadata

| Field        | Value    |
|--------------|----------|
| Entrypoint   | 0x0184   |
| Data Size    | 14 bytes |
| Instructions | 2        |

```
      00 01 02 03 04 05 06 07  08 09 0A 0B 0C 0D 0E 0F
      -- -- -- -- -- -- -- --  -- -- -- -- -- -- -- --
0180:             53 F8 FF FF  7F F8 FF FF 7F 74 68 6B      S........thk
0190: 30 00                                             0.              
```

#### Opcodes

```
  0: 0x0184 [0x53] WAIT_SCHEDULER_TASK: Wait for scheduler "thk0" with entities [EventEntity, EventEntity]
  1: 0x0191 [0x00] END_REQSTACK()
```

### Event 65535.22

#### Metadata

| Field        | Value    |
|--------------|----------|
| Entrypoint   | 0x0192   |
| Data Size    | 16 bytes |
| Instructions | 2        |

```
      00 01 02 03 04 05 06 07  08 09 0A 0B 0C 0D 0E 0F
      -- -- -- -- -- -- -- --  -- -- -- -- -- -- -- --
0190:       5B 2F 80 F8 FF FF  7F F8 FF FF 7F 74 68 6B    [/.........thk
01A0: 31 00                                             1.              
```

#### Opcodes

```
  0: 0x0192 [0x5B] LOAD_EXT_SCHEDULER: Load scheduler "thk1" with entities [EventEntity, EventEntity], work=842*
  1: 0x01A1 [0x00] END_REQSTACK()
```

### Event 65535.23

#### Metadata

| Field        | Value    |
|--------------|----------|
| Entrypoint   | 0x01A2   |
| Data Size    | 26 bytes |
| Instructions | 4        |

```
      00 01 02 03 04 05 06 07  08 09 0A 0B 0C 0D 0E 0F
      -- -- -- -- -- -- -- --  -- -- -- -- -- -- -- --
01A0:       53 F8 FF FF 7F F8  FF FF 7F 74 68 6B 31 81    S........thk1.
01B0: 01 F8 FF FF 7F 7C 01 F8  FF FF 7F 00              .....|......    
```

#### Opcodes

```
  0: 0x01A2 [0x53] WAIT_SCHEDULER_TASK: Wait for scheduler "thk1" with entities [EventEntity, EventEntity]
  1: 0x01AF [0x81] SET_ENTITY_BLINKING(blink_flag=0x01, entity=EventEntity)
  2: 0x01B5 [0x7C] EventEntity->Render.Flags2 |= 0x01
  3: 0x01BB [0x00] END_REQSTACK()
```

### Event 65535.24

#### Metadata

| Field        | Value    |
|--------------|----------|
| Entrypoint   | 0x01BC   |
| Data Size    | 28 bytes |
| Instructions | 4        |

```
      00 01 02 03 04 05 06 07  08 09 0A 0B 0C 0D 0E 0F
      -- -- -- -- -- -- -- --  -- -- -- -- -- -- -- --
01B0:                                      81 00 F8 FF              ....
01C0: FF 7F 7C 00 F8 FF FF 7F  5B 2F 80 F8 FF FF 7F F8  ..|.....[/......
01D0: FF FF 7F 70 61 73 30 00                           ...pas0.        
```

#### Opcodes

```
  0: 0x01BC [0x81] SET_ENTITY_BLINKING(blink_flag=0x00, entity=EventEntity)
  1: 0x01C2 [0x7C] EventEntity->Render.Flags2 |= 0x00
  2: 0x01C8 [0x5B] LOAD_EXT_SCHEDULER: Load scheduler "pas0" with entities [EventEntity, EventEntity], work=842*
  3: 0x01D7 [0x00] END_REQSTACK()
```

### Event 65535.25

#### Metadata

| Field        | Value    |
|--------------|----------|
| Entrypoint   | 0x01D8   |
| Data Size    | 26 bytes |
| Instructions | 4        |

```
      00 01 02 03 04 05 06 07  08 09 0A 0B 0C 0D 0E 0F
      -- -- -- -- -- -- -- --  -- -- -- -- -- -- -- --
01D0:                          53 F8 FF FF 7F F8 FF FF          S.......
01E0: 7F 70 61 73 30 81 01 F8  FF FF 7F 7C 01 F8 FF FF  .pas0......|....
01F0: 7F 00                                             ..              
```

#### Opcodes

```
  0: 0x01D8 [0x53] WAIT_SCHEDULER_TASK: Wait for scheduler "pas0" with entities [EventEntity, EventEntity]
  1: 0x01E5 [0x81] SET_ENTITY_BLINKING(blink_flag=0x01, entity=EventEntity)
  2: 0x01EB [0x7C] EventEntity->Render.Flags2 |= 0x01
  3: 0x01F1 [0x00] END_REQSTACK()
```

### Event 65535.26

#### Metadata

| Field        | Value    |
|--------------|----------|
| Entrypoint   | 0x01F2   |
| Data Size    | 28 bytes |
| Instructions | 4        |

```
      00 01 02 03 04 05 06 07  08 09 0A 0B 0C 0D 0E 0F
      -- -- -- -- -- -- -- --  -- -- -- -- -- -- -- --
01F0:       81 00 F8 FF FF 7F  7C 00 F8 FF FF 7F 5B 2F    ......|.....[/
0200: 80 F8 FF FF 7F F8 FF FF  7F 63 72 79 30 00        .........cry0.  
```

#### Opcodes

```
  0: 0x01F2 [0x81] SET_ENTITY_BLINKING(blink_flag=0x00, entity=EventEntity)
  1: 0x01F8 [0x7C] EventEntity->Render.Flags2 |= 0x00
  2: 0x01FE [0x5B] LOAD_EXT_SCHEDULER: Load scheduler "cry0" with entities [EventEntity, EventEntity], work=842*
  3: 0x020D [0x00] END_REQSTACK()
```

### Event 65535.27

#### Metadata

| Field        | Value    |
|--------------|----------|
| Entrypoint   | 0x020E   |
| Data Size    | 14 bytes |
| Instructions | 2        |

```
      00 01 02 03 04 05 06 07  08 09 0A 0B 0C 0D 0E 0F
      -- -- -- -- -- -- -- --  -- -- -- -- -- -- -- --
0200:                                            53 F8                S.
0210: FF FF 7F F8 FF FF 7F 63  72 79 30 00              .......cry0.    
```

#### Opcodes

```
  0: 0x020E [0x53] WAIT_SCHEDULER_TASK: Wait for scheduler "cry0" with entities [EventEntity, EventEntity]
  1: 0x021B [0x00] END_REQSTACK()
```

### Event 65535.28

#### Metadata

| Field        | Value    |
|--------------|----------|
| Entrypoint   | 0x021C   |
| Data Size    | 16 bytes |
| Instructions | 2        |

```
      00 01 02 03 04 05 06 07  08 09 0A 0B 0C 0D 0E 0F
      -- -- -- -- -- -- -- --  -- -- -- -- -- -- -- --
0210:                                      5B 2F 80 F8              [/..
0220: FF FF 7F F8 FF FF 7F 63  72 79 31 00              .......cry1.    
```

#### Opcodes

```
  0: 0x021C [0x5B] LOAD_EXT_SCHEDULER: Load scheduler "cry1" with entities [EventEntity, EventEntity], work=842*
  1: 0x022B [0x00] END_REQSTACK()
```

### Event 65535.29

#### Metadata

| Field        | Value    |
|--------------|----------|
| Entrypoint   | 0x022C   |
| Data Size    | 26 bytes |
| Instructions | 4        |

```
      00 01 02 03 04 05 06 07  08 09 0A 0B 0C 0D 0E 0F
      -- -- -- -- -- -- -- --  -- -- -- -- -- -- -- --
0220:                                      53 F8 FF FF              S...
0230: 7F F8 FF FF 7F 63 72 79  31 81 01 F8 FF FF 7F 7C  .....cry1......|
0240: 01 F8 FF FF 7F 00                                 ......          
```

#### Opcodes

```
  0: 0x022C [0x53] WAIT_SCHEDULER_TASK: Wait for scheduler "cry1" with entities [EventEntity, EventEntity]
  1: 0x0239 [0x81] SET_ENTITY_BLINKING(blink_flag=0x01, entity=EventEntity)
  2: 0x023F [0x7C] EventEntity->Render.Flags2 |= 0x01
  3: 0x0245 [0x00] END_REQSTACK()
```

### Event 65535.30

#### Metadata

| Field        | Value    |
|--------------|----------|
| Entrypoint   | 0x0246   |
| Data Size    | 28 bytes |
| Instructions | 4        |

```
      00 01 02 03 04 05 06 07  08 09 0A 0B 0C 0D 0E 0F
      -- -- -- -- -- -- -- --  -- -- -- -- -- -- -- --
0240:                   81 00  F8 FF FF 7F 7C 00 F8 FF        ......|...
0250: FF 7F 5B 1B 80 F8 FF FF  7F F8 FF FF 7F 74 6C 62  ..[..........tlb
0260: 30 00                                             0.              
```

#### Opcodes

```
  0: 0x0246 [0x81] SET_ENTITY_BLINKING(blink_flag=0x00, entity=EventEntity)
  1: 0x024C [0x7C] EventEntity->Render.Flags2 |= 0x00
  2: 0x0252 [0x5B] LOAD_EXT_SCHEDULER: Load scheduler "tlb0" with entities [EventEntity, EventEntity], work=843*
  3: 0x0261 [0x00] END_REQSTACK()
```

### Event 65535.31

#### Metadata

| Field        | Value    |
|--------------|----------|
| Entrypoint   | 0x0262   |
| Data Size    | 14 bytes |
| Instructions | 2        |

```
      00 01 02 03 04 05 06 07  08 09 0A 0B 0C 0D 0E 0F
      -- -- -- -- -- -- -- --  -- -- -- -- -- -- -- --
0260:       53 F8 FF FF 7F F8  FF FF 7F 74 6C 62 30 00    S........tlb0.
```

#### Opcodes

```
  0: 0x0262 [0x53] WAIT_SCHEDULER_TASK: Wait for scheduler "tlb0" with entities [EventEntity, EventEntity]
  1: 0x026F [0x00] END_REQSTACK()
```

### Event 65535.32

#### Metadata

| Field        | Value    |
|--------------|----------|
| Entrypoint   | 0x0270   |
| Data Size    | 16 bytes |
| Instructions | 2        |

```
      00 01 02 03 04 05 06 07  08 09 0A 0B 0C 0D 0E 0F
      -- -- -- -- -- -- -- --  -- -- -- -- -- -- -- --
0270: 5B 1B 80 F8 FF FF 7F F8  FF FF 7F 74 6C 62 31 00  [..........tlb1.
```

#### Opcodes

```
  0: 0x0270 [0x5B] LOAD_EXT_SCHEDULER: Load scheduler "tlb1" with entities [EventEntity, EventEntity], work=843*
  1: 0x027F [0x00] END_REQSTACK()
```

### Event 65535.33

#### Metadata

| Field        | Value    |
|--------------|----------|
| Entrypoint   | 0x0280   |
| Data Size    | 26 bytes |
| Instructions | 4        |

```
      00 01 02 03 04 05 06 07  08 09 0A 0B 0C 0D 0E 0F
      -- -- -- -- -- -- -- --  -- -- -- -- -- -- -- --
0280: 53 F8 FF FF 7F F8 FF FF  7F 74 6C 62 31 81 01 F8  S........tlb1...
0290: FF FF 7F 7C 01 F8 FF FF  7F 00                    ...|......      
```

#### Opcodes

```
  0: 0x0280 [0x53] WAIT_SCHEDULER_TASK: Wait for scheduler "tlb1" with entities [EventEntity, EventEntity]
  1: 0x028D [0x81] SET_ENTITY_BLINKING(blink_flag=0x01, entity=EventEntity)
  2: 0x0293 [0x7C] EventEntity->Render.Flags2 |= 0x01
  3: 0x0299 [0x00] END_REQSTACK()
```

### Event 65535.34

#### Metadata

| Field        | Value    |
|--------------|----------|
| Entrypoint   | 0x029A   |
| Data Size    | 28 bytes |
| Instructions | 4        |

```
      00 01 02 03 04 05 06 07  08 09 0A 0B 0C 0D 0E 0F
      -- -- -- -- -- -- -- --  -- -- -- -- -- -- -- --
0290:                                81 00 F8 FF FF 7F            ......
02A0: 7C 00 F8 FF FF 7F 5B 1B  80 F8 FF FF 7F F8 FF FF  |.....[.........
02B0: 7F 74 68 62 30 00                                 .thb0.          
```

#### Opcodes

```
  0: 0x029A [0x81] SET_ENTITY_BLINKING(blink_flag=0x00, entity=EventEntity)
  1: 0x02A0 [0x7C] EventEntity->Render.Flags2 |= 0x00
  2: 0x02A6 [0x5B] LOAD_EXT_SCHEDULER: Load scheduler "thb0" with entities [EventEntity, EventEntity], work=843*
  3: 0x02B5 [0x00] END_REQSTACK()
```

### Event 65535.35

#### Metadata

| Field        | Value    |
|--------------|----------|
| Entrypoint   | 0x02B6   |
| Data Size    | 14 bytes |
| Instructions | 2        |

```
      00 01 02 03 04 05 06 07  08 09 0A 0B 0C 0D 0E 0F
      -- -- -- -- -- -- -- --  -- -- -- -- -- -- -- --
02B0:                   53 F8  FF FF 7F F8 FF FF 7F 74        S........t
02C0: 68 62 30 00                                       hb0.            
```

#### Opcodes

```
  0: 0x02B6 [0x53] WAIT_SCHEDULER_TASK: Wait for scheduler "thb0" with entities [EventEntity, EventEntity]
  1: 0x02C3 [0x00] END_REQSTACK()
```

### Event 65535.36

#### Metadata

| Field        | Value    |
|--------------|----------|
| Entrypoint   | 0x02C4   |
| Data Size    | 16 bytes |
| Instructions | 2        |

```
      00 01 02 03 04 05 06 07  08 09 0A 0B 0C 0D 0E 0F
      -- -- -- -- -- -- -- --  -- -- -- -- -- -- -- --
02C0:             5B 1B 80 F8  FF FF 7F F8 FF FF 7F 74      [..........t
02D0: 68 62 31 00                                       hb1.            
```

#### Opcodes

```
  0: 0x02C4 [0x5B] LOAD_EXT_SCHEDULER: Load scheduler "thb1" with entities [EventEntity, EventEntity], work=843*
  1: 0x02D3 [0x00] END_REQSTACK()
```

### Event 65535.37

#### Metadata

| Field        | Value    |
|--------------|----------|
| Entrypoint   | 0x02D4   |
| Data Size    | 26 bytes |
| Instructions | 4        |

```
      00 01 02 03 04 05 06 07  08 09 0A 0B 0C 0D 0E 0F
      -- -- -- -- -- -- -- --  -- -- -- -- -- -- -- --
02D0:             53 F8 FF FF  7F F8 FF FF 7F 74 68 62      S........thb
02E0: 31 81 01 F8 FF FF 7F 7C  01 F8 FF FF 7F 00        1......|......  
```

#### Opcodes

```
  0: 0x02D4 [0x53] WAIT_SCHEDULER_TASK: Wait for scheduler "thb1" with entities [EventEntity, EventEntity]
  1: 0x02E1 [0x81] SET_ENTITY_BLINKING(blink_flag=0x01, entity=EventEntity)
  2: 0x02E7 [0x7C] EventEntity->Render.Flags2 |= 0x01
  3: 0x02ED [0x00] END_REQSTACK()
```

### Event 65535.38

#### Metadata

| Field        | Value    |
|--------------|----------|
| Entrypoint   | 0x02EE   |
| Data Size    | 28 bytes |
| Instructions | 4        |

```
      00 01 02 03 04 05 06 07  08 09 0A 0B 0C 0D 0E 0F
      -- -- -- -- -- -- -- --  -- -- -- -- -- -- -- --
02E0:                                            81 00                ..
02F0: F8 FF FF 7F 7C 00 F8 FF  FF 7F 5B 1B 80 F8 FF FF  ....|.....[.....
0300: 7F F8 FF FF 7F 68 61 70  30 00                    .....hap0.      
```

#### Opcodes

```
  0: 0x02EE [0x81] SET_ENTITY_BLINKING(blink_flag=0x00, entity=EventEntity)
  1: 0x02F4 [0x7C] EventEntity->Render.Flags2 |= 0x00
  2: 0x02FA [0x5B] LOAD_EXT_SCHEDULER: Load scheduler "hap0" with entities [EventEntity, EventEntity], work=843*
  3: 0x0309 [0x00] END_REQSTACK()
```

### Event 65535.39

#### Metadata

| Field        | Value    |
|--------------|----------|
| Entrypoint   | 0x030A   |
| Data Size    | 26 bytes |
| Instructions | 4        |

```
      00 01 02 03 04 05 06 07  08 09 0A 0B 0C 0D 0E 0F
      -- -- -- -- -- -- -- --  -- -- -- -- -- -- -- --
0300:                                53 F8 FF FF 7F F8            S.....
0310: FF FF 7F 68 61 70 30 81  01 F8 FF FF 7F 7C 01 F8  ...hap0......|..
0320: FF FF 7F 00                                       ....            
```

#### Opcodes

```
  0: 0x030A [0x53] WAIT_SCHEDULER_TASK: Wait for scheduler "hap0" with entities [EventEntity, EventEntity]
  1: 0x0317 [0x81] SET_ENTITY_BLINKING(blink_flag=0x01, entity=EventEntity)
  2: 0x031D [0x7C] EventEntity->Render.Flags2 |= 0x01
  3: 0x0323 [0x00] END_REQSTACK()
```

### Event 65535.40

#### Metadata

| Field        | Value    |
|--------------|----------|
| Entrypoint   | 0x0324   |
| Data Size    | 28 bytes |
| Instructions | 4        |

```
      00 01 02 03 04 05 06 07  08 09 0A 0B 0C 0D 0E 0F
      -- -- -- -- -- -- -- --  -- -- -- -- -- -- -- --
0320:             81 00 F8 FF  FF 7F 7C 00 F8 FF FF 7F      ......|.....
0330: 5B 1B 80 F8 FF FF 7F F8  FF FF 7F 61 6E 67 30 00  [..........ang0.
```

#### Opcodes

```
  0: 0x0324 [0x81] SET_ENTITY_BLINKING(blink_flag=0x00, entity=EventEntity)
  1: 0x032A [0x7C] EventEntity->Render.Flags2 |= 0x00
  2: 0x0330 [0x5B] LOAD_EXT_SCHEDULER: Load scheduler "ang0" with entities [EventEntity, EventEntity], work=843*
  3: 0x033F [0x00] END_REQSTACK()
```

### Event 65535.41

#### Metadata

| Field        | Value    |
|--------------|----------|
| Entrypoint   | 0x0340   |
| Data Size    | 26 bytes |
| Instructions | 4        |

```
      00 01 02 03 04 05 06 07  08 09 0A 0B 0C 0D 0E 0F
      -- -- -- -- -- -- -- --  -- -- -- -- -- -- -- --
0340: 53 F8 FF FF 7F F8 FF FF  7F 61 6E 67 30 81 01 F8  S........ang0...
0350: FF FF 7F 7C 01 F8 FF FF  7F 00                    ...|......      
```

#### Opcodes

```
  0: 0x0340 [0x53] WAIT_SCHEDULER_TASK: Wait for scheduler "ang0" with entities [EventEntity, EventEntity]
  1: 0x034D [0x81] SET_ENTITY_BLINKING(blink_flag=0x01, entity=EventEntity)
  2: 0x0353 [0x7C] EventEntity->Render.Flags2 |= 0x01
  3: 0x0359 [0x00] END_REQSTACK()
```

### Event 65535.42

#### Metadata

| Field        | Value    |
|--------------|----------|
| Entrypoint   | 0x035A   |
| Data Size    | 28 bytes |
| Instructions | 4        |

```
      00 01 02 03 04 05 06 07  08 09 0A 0B 0C 0D 0E 0F
      -- -- -- -- -- -- -- --  -- -- -- -- -- -- -- --
0350:                                81 00 F8 FF FF 7F            ......
0360: 7C 00 F8 FF FF 7F 5B 1B  80 F8 FF FF 7F F8 FF FF  |.....[.........
0370: 7F 70 6E 74 30 00                                 .pnt0.          
```

#### Opcodes

```
  0: 0x035A [0x81] SET_ENTITY_BLINKING(blink_flag=0x00, entity=EventEntity)
  1: 0x0360 [0x7C] EventEntity->Render.Flags2 |= 0x00
  2: 0x0366 [0x5B] LOAD_EXT_SCHEDULER: Load scheduler "pnt0" with entities [EventEntity, EventEntity], work=843*
  3: 0x0375 [0x00] END_REQSTACK()
```

### Event 65535.43

#### Metadata

| Field        | Value    |
|--------------|----------|
| Entrypoint   | 0x0376   |
| Data Size    | 14 bytes |
| Instructions | 2        |

```
      00 01 02 03 04 05 06 07  08 09 0A 0B 0C 0D 0E 0F
      -- -- -- -- -- -- -- --  -- -- -- -- -- -- -- --
0370:                   53 F8  FF FF 7F F8 FF FF 7F 70        S........p
0380: 6E 74 30 00                                       nt0.            
```

#### Opcodes

```
  0: 0x0376 [0x53] WAIT_SCHEDULER_TASK: Wait for scheduler "pnt0" with entities [EventEntity, EventEntity]
  1: 0x0383 [0x00] END_REQSTACK()
```

### Event 65535.44

#### Metadata

| Field        | Value    |
|--------------|----------|
| Entrypoint   | 0x0384   |
| Data Size    | 16 bytes |
| Instructions | 2        |

```
      00 01 02 03 04 05 06 07  08 09 0A 0B 0C 0D 0E 0F
      -- -- -- -- -- -- -- --  -- -- -- -- -- -- -- --
0380:             5B 1B 80 F8  FF FF 7F F8 FF FF 7F 70      [..........p
0390: 6E 74 31 00                                       nt1.            
```

#### Opcodes

```
  0: 0x0384 [0x5B] LOAD_EXT_SCHEDULER: Load scheduler "pnt1" with entities [EventEntity, EventEntity], work=843*
  1: 0x0393 [0x00] END_REQSTACK()
```

### Event 65535.45

#### Metadata

| Field        | Value    |
|--------------|----------|
| Entrypoint   | 0x0394   |
| Data Size    | 26 bytes |
| Instructions | 4        |

```
      00 01 02 03 04 05 06 07  08 09 0A 0B 0C 0D 0E 0F
      -- -- -- -- -- -- -- --  -- -- -- -- -- -- -- --
0390:             53 F8 FF FF  7F F8 FF FF 7F 70 6E 74      S........pnt
03A0: 31 81 01 F8 FF FF 7F 7C  01 F8 FF FF 7F 00        1......|......  
```

#### Opcodes

```
  0: 0x0394 [0x53] WAIT_SCHEDULER_TASK: Wait for scheduler "pnt1" with entities [EventEntity, EventEntity]
  1: 0x03A1 [0x81] SET_ENTITY_BLINKING(blink_flag=0x01, entity=EventEntity)
  2: 0x03A7 [0x7C] EventEntity->Render.Flags2 |= 0x01
  3: 0x03AD [0x00] END_REQSTACK()
```

### Event 65535.46

#### Metadata

| Field        | Value    |
|--------------|----------|
| Entrypoint   | 0x03AE   |
| Data Size    | 16 bytes |
| Instructions | 2        |

```
      00 01 02 03 04 05 06 07  08 09 0A 0B 0C 0D 0E 0F
      -- -- -- -- -- -- -- --  -- -- -- -- -- -- -- --
03A0:                                            5B 30                [0
03B0: 80 F8 FF FF 7F F8 FF FF  7F 75 72 61 30 00        .........ura0.  
```

#### Opcodes

```
  0: 0x03AE [0x5B] LOAD_EXT_SCHEDULER: Load scheduler "ura0" with entities [EventEntity, EventEntity], work=881*
  1: 0x03BD [0x00] END_REQSTACK()
```

### Event 65535.47

#### Metadata

| Field        | Value    |
|--------------|----------|
| Entrypoint   | 0x03BE   |
| Data Size    | 14 bytes |
| Instructions | 2        |

```
      00 01 02 03 04 05 06 07  08 09 0A 0B 0C 0D 0E 0F
      -- -- -- -- -- -- -- --  -- -- -- -- -- -- -- --
03B0:                                            53 F8                S.
03C0: FF FF 7F F8 FF FF 7F 75  72 61 30 00              .......ura0.    
```

#### Opcodes

```
  0: 0x03BE [0x53] WAIT_SCHEDULER_TASK: Wait for scheduler "ura0" with entities [EventEntity, EventEntity]
  1: 0x03CB [0x00] END_REQSTACK()
```

### Event 65535.48

#### Metadata

| Field        | Value    |
|--------------|----------|
| Entrypoint   | 0x03CC   |
| Data Size    | 16 bytes |
| Instructions | 2        |

```
      00 01 02 03 04 05 06 07  08 09 0A 0B 0C 0D 0E 0F
      -- -- -- -- -- -- -- --  -- -- -- -- -- -- -- --
03C0:                                      5B 30 80 F8              [0..
03D0: FF FF 7F F8 FF FF 7F 75  72 61 31 00              .......ura1.    
```

#### Opcodes

```
  0: 0x03CC [0x5B] LOAD_EXT_SCHEDULER: Load scheduler "ura1" with entities [EventEntity, EventEntity], work=881*
  1: 0x03DB [0x00] END_REQSTACK()
```

### Event 65535.49

#### Metadata

| Field        | Value    |
|--------------|----------|
| Entrypoint   | 0x03DC   |
| Data Size    | 14 bytes |
| Instructions | 2        |

```
      00 01 02 03 04 05 06 07  08 09 0A 0B 0C 0D 0E 0F
      -- -- -- -- -- -- -- --  -- -- -- -- -- -- -- --
03D0:                                      53 F8 FF FF              S...
03E0: 7F F8 FF FF 7F 75 72 61  31 00                    .....ura1.      
```

#### Opcodes

```
  0: 0x03DC [0x53] WAIT_SCHEDULER_TASK: Wait for scheduler "ura1" with entities [EventEntity, EventEntity]
  1: 0x03E9 [0x00] END_REQSTACK()
```

### Event 65535.50

#### Metadata

| Field        | Value    |
|--------------|----------|
| Entrypoint   | 0x03EA   |
| Data Size    | 16 bytes |
| Instructions | 2        |

```
      00 01 02 03 04 05 06 07  08 09 0A 0B 0C 0D 0E 0F
      -- -- -- -- -- -- -- --  -- -- -- -- -- -- -- --
03E0:                                5B 30 80 F8 FF FF            [0....
03F0: 7F F8 FF FF 7F 77 68 74  30 00                    .....wht0.      
```

#### Opcodes

```
  0: 0x03EA [0x5B] LOAD_EXT_SCHEDULER: Load scheduler "wht0" with entities [EventEntity, EventEntity], work=881*
  1: 0x03F9 [0x00] END_REQSTACK()
```

### Event 65535.51

#### Metadata

| Field        | Value    |
|--------------|----------|
| Entrypoint   | 0x03FA   |
| Data Size    | 14 bytes |
| Instructions | 2        |

```
      00 01 02 03 04 05 06 07  08 09 0A 0B 0C 0D 0E 0F
      -- -- -- -- -- -- -- --  -- -- -- -- -- -- -- --
03F0:                                53 F8 FF FF 7F F8            S.....
0400: FF FF 7F 77 68 74 30 00                           ...wht0.        
```

#### Opcodes

```
  0: 0x03FA [0x53] WAIT_SCHEDULER_TASK: Wait for scheduler "wht0" with entities [EventEntity, EventEntity]
  1: 0x0407 [0x00] END_REQSTACK()
```

### Event 65535.52

#### Metadata

| Field        | Value    |
|--------------|----------|
| Entrypoint   | 0x0408   |
| Data Size    | 16 bytes |
| Instructions | 2        |

```
      00 01 02 03 04 05 06 07  08 09 0A 0B 0C 0D 0E 0F
      -- -- -- -- -- -- -- --  -- -- -- -- -- -- -- --
0400:                          5B 30 80 F8 FF FF 7F F8          [0......
0410: FF FF 7F 77 68 74 31 00                           ...wht1.        
```

#### Opcodes

```
  0: 0x0408 [0x5B] LOAD_EXT_SCHEDULER: Load scheduler "wht1" with entities [EventEntity, EventEntity], work=881*
  1: 0x0417 [0x00] END_REQSTACK()
```

### Event 65535.53

#### Metadata

| Field        | Value    |
|--------------|----------|
| Entrypoint   | 0x0418   |
| Data Size    | 14 bytes |
| Instructions | 2        |

```
      00 01 02 03 04 05 06 07  08 09 0A 0B 0C 0D 0E 0F
      -- -- -- -- -- -- -- --  -- -- -- -- -- -- -- --
0410:                          53 F8 FF FF 7F F8 FF FF          S.......
0420: 7F 77 68 74 31 00                                 .wht1.          
```

#### Opcodes

```
  0: 0x0418 [0x53] WAIT_SCHEDULER_TASK: Wait for scheduler "wht1" with entities [EventEntity, EventEntity]
  1: 0x0425 [0x00] END_REQSTACK()
```

### Event 65535.54

#### Metadata

| Field        | Value    |
|--------------|----------|
| Entrypoint   | 0x0426   |
| Data Size    | 16 bytes |
| Instructions | 2        |

```
      00 01 02 03 04 05 06 07  08 09 0A 0B 0C 0D 0E 0F
      -- -- -- -- -- -- -- --  -- -- -- -- -- -- -- --
0420:                   5B 31  80 F8 FF FF 7F F8 FF FF        [1........
0430: 7F 73 68 61 30 00                                 .sha0.          
```

#### Opcodes

```
  0: 0x0426 [0x5B] LOAD_EXT_SCHEDULER: Load scheduler "sha0" with entities [EventEntity, EventEntity], work=919*
  1: 0x0435 [0x00] END_REQSTACK()
```

### Event 65535.55

#### Metadata

| Field        | Value    |
|--------------|----------|
| Entrypoint   | 0x0436   |
| Data Size    | 14 bytes |
| Instructions | 2        |

```
      00 01 02 03 04 05 06 07  08 09 0A 0B 0C 0D 0E 0F
      -- -- -- -- -- -- -- --  -- -- -- -- -- -- -- --
0430:                   53 F8  FF FF 7F F8 FF FF 7F 73        S........s
0440: 68 61 30 00                                       ha0.            
```

#### Opcodes

```
  0: 0x0436 [0x53] WAIT_SCHEDULER_TASK: Wait for scheduler "sha0" with entities [EventEntity, EventEntity]
  1: 0x0443 [0x00] END_REQSTACK()
```

### Event 65535.56

#### Metadata

| Field        | Value    |
|--------------|----------|
| Entrypoint   | 0x0444   |
| Data Size    | 16 bytes |
| Instructions | 2        |

```
      00 01 02 03 04 05 06 07  08 09 0A 0B 0C 0D 0E 0F
      -- -- -- -- -- -- -- --  -- -- -- -- -- -- -- --
0440:             5B 31 80 F8  FF FF 7F F8 FF FF 7F 73      [1.........s
0450: 68 61 31 00                                       ha1.            
```

#### Opcodes

```
  0: 0x0444 [0x5B] LOAD_EXT_SCHEDULER: Load scheduler "sha1" with entities [EventEntity, EventEntity], work=919*
  1: 0x0453 [0x00] END_REQSTACK()
```

### Event 65535.57

#### Metadata

| Field        | Value    |
|--------------|----------|
| Entrypoint   | 0x0454   |
| Data Size    | 14 bytes |
| Instructions | 2        |

```
      00 01 02 03 04 05 06 07  08 09 0A 0B 0C 0D 0E 0F
      -- -- -- -- -- -- -- --  -- -- -- -- -- -- -- --
0450:             53 F8 FF FF  7F F8 FF FF 7F 73 68 61      S........sha
0460: 31 00                                             1.              
```

#### Opcodes

```
  0: 0x0454 [0x53] WAIT_SCHEDULER_TASK: Wait for scheduler "sha1" with entities [EventEntity, EventEntity]
  1: 0x0461 [0x00] END_REQSTACK()
```

### Event 65535.58

#### Metadata

| Field        | Value    |
|--------------|----------|
| Entrypoint   | 0x0462   |
| Data Size    | 16 bytes |
| Instructions | 2        |

```
      00 01 02 03 04 05 06 07  08 09 0A 0B 0C 0D 0E 0F
      -- -- -- -- -- -- -- --  -- -- -- -- -- -- -- --
0460:       5B 31 80 F8 FF FF  7F F8 FF FF 7F 62 69 6B    [1.........bik
0470: 30 00                                             0.              
```

#### Opcodes

```
  0: 0x0462 [0x5B] LOAD_EXT_SCHEDULER: Load scheduler "bik0" with entities [EventEntity, EventEntity], work=919*
  1: 0x0471 [0x00] END_REQSTACK()
```

### Event 65535.59

#### Metadata

| Field        | Value    |
|--------------|----------|
| Entrypoint   | 0x0472   |
| Data Size    | 14 bytes |
| Instructions | 2        |

```
      00 01 02 03 04 05 06 07  08 09 0A 0B 0C 0D 0E 0F
      -- -- -- -- -- -- -- --  -- -- -- -- -- -- -- --
0470:       53 F8 FF FF 7F F8  FF FF 7F 62 69 6B 30 00    S........bik0.
```

#### Opcodes

```
  0: 0x0472 [0x53] WAIT_SCHEDULER_TASK: Wait for scheduler "bik0" with entities [EventEntity, EventEntity]
  1: 0x047F [0x00] END_REQSTACK()
```

### Event 65535.60

#### Metadata

| Field        | Value    |
|--------------|----------|
| Entrypoint   | 0x0480   |
| Data Size    | 16 bytes |
| Instructions | 2        |

```
      00 01 02 03 04 05 06 07  08 09 0A 0B 0C 0D 0E 0F
      -- -- -- -- -- -- -- --  -- -- -- -- -- -- -- --
0480: 5B 31 80 F8 FF FF 7F F8  FF FF 7F 62 69 6B 31 00  [1.........bik1.
```

#### Opcodes

```
  0: 0x0480 [0x5B] LOAD_EXT_SCHEDULER: Load scheduler "bik1" with entities [EventEntity, EventEntity], work=919*
  1: 0x048F [0x00] END_REQSTACK()
```

### Event 65535.61

#### Metadata

| Field        | Value    |
|--------------|----------|
| Entrypoint   | 0x0490   |
| Data Size    | 14 bytes |
| Instructions | 2        |

```
      00 01 02 03 04 05 06 07  08 09 0A 0B 0C 0D 0E 0F
      -- -- -- -- -- -- -- --  -- -- -- -- -- -- -- --
0490: 53 F8 FF FF 7F F8 FF FF  7F 62 69 6B 31 00        S........bik1.  
```

#### Opcodes

```
  0: 0x0490 [0x53] WAIT_SCHEDULER_TASK: Wait for scheduler "bik1" with entities [EventEntity, EventEntity]
  1: 0x049D [0x00] END_REQSTACK()
```

### Event 65535.62

#### Metadata

| Field        | Value    |
|--------------|----------|
| Entrypoint   | 0x049E   |
| Data Size    | 41 bytes |
| Instructions | 5        |

```
      00 01 02 03 04 05 06 07  08 09 0A 0B 0C 0D 0E 0F
      -- -- -- -- -- -- -- --  -- -- -- -- -- -- -- --
0490:                                            5B 31                [1
04A0: 80 F8 FF FF 7F F8 FF FF  7F 62 69 6B 31 53 F8 FF  .........bik1S..
04B0: FF 7F F8 FF FF 7F 62 69  6B 31 6B 69 64 6C 30 F8  ......bik1kidl0.
04C0: FF FF 7F 1C 32 80 00                              ....2..         
```

#### Opcodes

```
  0: 0x049E [0x5B] LOAD_EXT_SCHEDULER: Load scheduler "bik1" with entities [EventEntity, EventEntity], work=919*
  1: 0x04AD [0x53] WAIT_SCHEDULER_TASK: Wait for scheduler "bik1" with entities [EventEntity, EventEntity]
  2: 0x04BA [0x6B] STOP_AND_IDLE: EventEntity stops current action and resets to idle (animation="idl0")
  3: 0x04C3 [0x1C] WAIT(60* ticks)
  4: 0x04C6 [0x00] END_REQSTACK()
```

### Event 65535.63

#### Metadata

| Field        | Value    |
|--------------|----------|
| Entrypoint   | 0x04C7   |
| Data Size    | 16 bytes |
| Instructions | 2        |

```
      00 01 02 03 04 05 06 07  08 09 0A 0B 0C 0D 0E 0F
      -- -- -- -- -- -- -- --  -- -- -- -- -- -- -- --
04C0:                      5B  24 80 F8 FF FF 7F F8 FF         [$.......
04D0: FF 7F 64 6F 77 6E 00                              ..down.         
```

#### Opcodes

```
  0: 0x04C7 [0x5B] LOAD_EXT_SCHEDULER: Load scheduler "down" with entities [EventEntity, EventEntity], work=990*
  1: 0x04D6 [0x00] END_REQSTACK()
```

### Event 65535.64

#### Metadata

| Field        | Value    |
|--------------|----------|
| Entrypoint   | 0x04D7   |
| Data Size    | 14 bytes |
| Instructions | 2        |

```
      00 01 02 03 04 05 06 07  08 09 0A 0B 0C 0D 0E 0F
      -- -- -- -- -- -- -- --  -- -- -- -- -- -- -- --
04D0:                      53  F8 FF FF 7F F8 FF FF 7F         S........
04E0: 64 6F 77 6E 00                                    down.           
```

#### Opcodes

```
  0: 0x04D7 [0x53] WAIT_SCHEDULER_TASK: Wait for scheduler "down" with entities [EventEntity, EventEntity]
  1: 0x04E4 [0x00] END_REQSTACK()
```

### Event 36

#### Metadata

| Field        | Value   |
|--------------|---------|
| Entrypoint   | 0x04E5  |
| Data Size    | 7 bytes |
| Instructions | 2       |

```
      00 01 02 03 04 05 06 07  08 09 0A 0B 0C 0D 0E 0F
      -- -- -- -- -- -- -- --  -- -- -- -- -- -- -- --
04E0:                92 01 F8  FF FF 7F 00                   .......    
```

#### Opcodes

```
  0: 0x04E5 [0x92] EventEntity->Render.Flags3 ^= 0x01
  1: 0x04EB [0x00] END_REQSTACK()
```

### Event 65535.65

#### Metadata

| Field        | Value    |
|--------------|----------|
| Entrypoint   | 0x04EC   |
| Data Size    | 35 bytes |
| Instructions | 9        |

```
      00 01 02 03 04 05 06 07  08 09 0A 0B 0C 0D 0E 0F
      -- -- -- -- -- -- -- --  -- -- -- -- -- -- -- --
04E0:                                      32 25 80 1F              2%..
04F0: 00 33 80 34 80 35 80 1F  01 1F 00 36 80 37 80 38  .3.4.5.....6.7.8
0500: 80 1F 01 1F 00 39 80 3A  80 3B 80 1F 01 6F 00     .....9.:.;...o. 
```

#### Opcodes

```
  0: 0x04EC [0x32] ExtData[1]->MainSpeed = 40* * 0.1
  1: 0x04EF [0x1F] MOVE_ENTITY: EventEntity moves to X=54.704*, Z=99.935*, Y=36.008*
  2: 0x04F7 [0x1F] MOVE_ENTITY: Update entity position (mode=1)
  3: 0x04F9 [0x1F] MOVE_ENTITY: EventEntity moves to X=59.300*, Z=94.108*, Y=35.779*
  4: 0x0501 [0x1F] MOVE_ENTITY: Update entity position (mode=1)
  5: 0x0503 [0x1F] MOVE_ENTITY: EventEntity moves to X=58.372*, Z=79.681*, Y=36.789*
  6: 0x050B [0x1F] MOVE_ENTITY: Update entity position (mode=1)
  7: 0x050D [0x6F] WAIT_FRAME_DELAY: Yield until WaitTime reaches zero
  8: 0x050E [0x00] END_REQSTACK()
```

### Event 40

#### Metadata

| Field        | Value   |
|--------------|---------|
| Entrypoint   | 0x050F  |
| Data Size    | 7 bytes |
| Instructions | 2       |

```
      00 01 02 03 04 05 06 07  08 09 0A 0B 0C 0D 0E 0F
      -- -- -- -- -- -- -- --  -- -- -- -- -- -- -- --
0500:                                               92                 .
0510: 01 F8 FF FF 7F 00                                 ......          
```

#### Opcodes

```
  0: 0x050F [0x92] EventEntity->Render.Flags3 ^= 0x01
  1: 0x0515 [0x00] END_REQSTACK()
```

### Event 65535.66

#### Metadata

| Field        | Value    |
|--------------|----------|
| Entrypoint   | 0x0516   |
| Data Size    | 67 bytes |
| Instructions | 15       |

```
      00 01 02 03 04 05 06 07  08 09 0A 0B 0C 0D 0E 0F
      -- -- -- -- -- -- -- --  -- -- -- -- -- -- -- --
0510:                   32 25  80 5A 00 3C 80 3D 80 3E        2%.Z.<.=.>
0520: 80 5A 01 5A 00 3F 80 40  80 41 80 5A 01 5A 00 42  .Z.Z.?.@.A.Z.Z.B
0530: 80 43 80 44 80 5A 01 1F  00 45 80 46 80 47 80 1F  .C.D.Z...E.F.G..
0540: 01 1F 00 48 80 49 80 4A  80 1F 01 4B F8 FF FF 7F  ...H.I.J...K....
0550: 4B 80 6F 76 F8 FF FF 7F  00                       K.ov.....       
```

#### Opcodes

```
  0: 0x0516 [0x32] ExtData[1]->MainSpeed = 40* * 0.1
  1: 0x0519 [0x5A] UPDATE_EVENT_POSITION: Set EventEntity MovePosition to X=-403.826*, Z=-439.184*, Y=7.648*
  2: 0x0521 [0x5A] UPDATE_EVENT_POSITION: Move EventEntity incrementally towards MovePosition
  3: 0x0523 [0x5A] UPDATE_EVENT_POSITION: Set EventEntity MovePosition to X=-394.353*, Z=-437.033*, Y=11.317*
  4: 0x052B [0x5A] UPDATE_EVENT_POSITION: Move EventEntity incrementally towards MovePosition
  5: 0x052D [0x5A] UPDATE_EVENT_POSITION: Set EventEntity MovePosition to X=-369.894*, Z=-437.778*, Y=14.757*
  6: 0x0535 [0x5A] UPDATE_EVENT_POSITION: Move EventEntity incrementally towards MovePosition
  7: 0x0537 [0x1F] MOVE_ENTITY: EventEntity moves to X=-367.897*, Z=-442.403*, Y=14.971*
  8: 0x053F [0x1F] MOVE_ENTITY: Update entity position (mode=1)
  9: 0x0541 [0x1F] MOVE_ENTITY: EventEntity moves to X=-370.030*, Z=-446.504*, Y=14.773*
 10: 0x0549 [0x1F] MOVE_ENTITY: Update entity position (mode=1)
 11: 0x054B [0x4B] UPDATE_ENTITY_YAW(entity=EventEntity, yaw=20.1°*)
 12: 0x0552 [0x6F] WAIT_FRAME_DELAY: Yield until WaitTime reaches zero
 13: 0x0553 [0x76] CHECK_ENTITY_RENDER_FLAGS: Wait until EventEntity Render.Flags0 and Render.Flags3 conditions are met
 14: 0x0558 [0x00] END_REQSTACK()
```

### Event 41

#### Metadata

| Field        | Value   |
|--------------|---------|
| Entrypoint   | 0x0559  |
| Data Size    | 7 bytes |
| Instructions | 2       |

```
      00 01 02 03 04 05 06 07  08 09 0A 0B 0C 0D 0E 0F
      -- -- -- -- -- -- -- --  -- -- -- -- -- -- -- --
0550:                             92 01 F8 FF FF 7F 00           .......
```

#### Opcodes

```
  0: 0x0559 [0x92] EventEntity->Render.Flags3 ^= 0x01
  1: 0x055F [0x00] END_REQSTACK()
```

### Event 65535.67

#### Metadata

| Field        | Value    |
|--------------|----------|
| Entrypoint   | 0x0560   |
| Data Size    | 15 bytes |
| Instructions | 5        |

```
      00 01 02 03 04 05 06 07  08 09 0A 0B 0C 0D 0E 0F
      -- -- -- -- -- -- -- --  -- -- -- -- -- -- -- --
0560: 32 25 80 1F 00 4C 80 4D  80 4E 80 1F 01 6F 00     2%...L.M.N...o. 
```

#### Opcodes

```
  0: 0x0560 [0x32] ExtData[1]->MainSpeed = 40* * 0.1
  1: 0x0563 [0x1F] MOVE_ENTITY: EventEntity moves to X=-372.518*, Z=-443.013*, Y=14.867*
  2: 0x056B [0x1F] MOVE_ENTITY: Update entity position (mode=1)
  3: 0x056D [0x6F] WAIT_FRAME_DELAY: Yield until WaitTime reaches zero
  4: 0x056E [0x00] END_REQSTACK()
```

### Event 65535.68

#### Metadata

| Field        | Value    |
|--------------|----------|
| Entrypoint   | 0x056F   |
| Data Size    | 37 bytes |
| Instructions | 10       |

```
      00 01 02 03 04 05 06 07  08 09 0A 0B 0C 0D 0E 0F
      -- -- -- -- -- -- -- --  -- -- -- -- -- -- -- --
0560:                                               32                 2
0570: 25 80 1F 00 4F 80 50 80  51 80 1F 01 1F 00 52 80  %...O.P.Q.....R.
0580: 53 80 54 80 1F 01 1F 00  55 80 56 80 57 80 1F 01  S.T.....U.V.W...
0590: 6F 22 01 00                                       o"..            
```

#### Opcodes

```
  0: 0x056F [0x32] ExtData[1]->MainSpeed = 40* * 0.1
  1: 0x0572 [0x1F] MOVE_ENTITY: EventEntity moves to X=-365.566*, Z=-436.868*, Y=14.815*
  2: 0x057A [0x1F] MOVE_ENTITY: Update entity position (mode=1)
  3: 0x057C [0x1F] MOVE_ENTITY: EventEntity moves to X=-361.071*, Z=-432.324*, Y=14.967*
  4: 0x0584 [0x1F] MOVE_ENTITY: Update entity position (mode=1)
  5: 0x0586 [0x1F] MOVE_ENTITY: EventEntity moves to X=-326.160*, Z=-420.357*, Y=14.387*
  6: 0x058E [0x1F] MOVE_ENTITY: Update entity position (mode=1)
  7: 0x0590 [0x6F] WAIT_FRAME_DELAY: Yield until WaitTime reaches zero
  8: 0x0591 [0x22] ENTITY_HIDE_FLAG(enabled=0x01)
  9: 0x0593 [0x00] END_REQSTACK()
```
