# 17056429 - Gadalar

## Common Data

| Field            | Value                       |
|------------------|-----------------------------|
| Zone             | Aydeewa Subterrane (ID: 68) |
| Block Size       | 160 bytes                   |
| Total Events     | 5                           |
| References Count | 14                          |

## List of Events

| Event ID                 | Entrypoint   |   Size |   Instructions |
|--------------------------|--------------|--------|----------------|
| [65535](#event-65535)    | 0x0000       |      1 |              1 |
| [34](#event-34)          | 0x0001       |      1 |              1 |
| [65535.1](#event-655351) | 0x0002       |     29 |              7 |
| [65535.2](#event-655352) | 0x001F       |     20 |              6 |
| [65535.3](#event-655353) | 0x0033       |     15 |              5 |

## DAT References (imed_data)

|   Index | Hex Value   |   Dec Value |
|---------|-------------|-------------|
|       0 | 0x14A93     |       84627 |
|       1 | 0x8B9A      |       35738 |
|       2 | 0x01E0      |         480 |
|       3 | 0x046A      |        1130 |
|       4 | 0x0028      |          40 |
|       5 | 0x14D7B     |       85371 |
|       6 | 0xABCF      |       43983 |
|       7 | 0x0181      |         385 |
|       8 | 0x13C02     |       80898 |
|       9 | 0x7021      |       28705 |
|      10 | 0xFFFFFEC5  |  4294966981 |
|      11 | 0x13CA4     |       81060 |
|      12 | 0x4D56      |       19798 |
|      13 | 0xFFFFFE5D  |  4294966877 |

## Events

### Event 65535

#### Metadata

| Field        | Value   |
|--------------|---------|
| Entrypoint   | 0x0000  |
| Data Size    | 1 bytes |
| Instructions | 1       |

```
      00 01 02 03 04 05 06 07  08 09 0A 0B 0C 0D 0E 0F
      -- -- -- -- -- -- -- --  -- -- -- -- -- -- -- --
0000: 00                                                .               
```

#### Opcodes

```
  0: 0x0000 [0x00] END_REQSTACK()
```

### Event 34

#### Metadata

| Field        | Value   |
|--------------|---------|
| Entrypoint   | 0x0001  |
| Data Size    | 1 bytes |
| Instructions | 1       |

```
      00 01 02 03 04 05 06 07  08 09 0A 0B 0C 0D 0E 0F
      -- -- -- -- -- -- -- --  -- -- -- -- -- -- -- --
0000:    00                                              .              
```

#### Opcodes

```
  0: 0x0001 [0x00] END_REQSTACK()
```

### Event 65535.1

#### Metadata

| Field        | Value    |
|--------------|----------|
| Entrypoint   | 0x0002   |
| Data Size    | 29 bytes |
| Instructions | 7        |

```
      00 01 02 03 04 05 06 07  08 09 0A 0B 0C 0D 0E 0F
      -- -- -- -- -- -- -- --  -- -- -- -- -- -- -- --
0000:       37 00 80 01 80 02  80 03 80 32 04 80 1F 00    7........2....
0010: 05 80 06 80 07 80 1F 01  6F 1E B4 42 04 01 00     ........o..B... 
```

#### Opcodes

```
  0: 0x0002 [0x37] UPDATE_EVENT_POSITION_AND_DIR: x=84.627*, z=35.738*, y=0.480*, direction=99.3°*
  1: 0x000B [0x32] ExtData[1]->MainSpeed = 40* * 0.1
  2: 0x000E [0x1F] MOVE_ENTITY: EventEntity moves to X=85.371*, Z=43.983*, Y=0.385*
  3: 0x0016 [0x1F] MOVE_ENTITY: Update entity position (mode=1)
  4: 0x0018 [0x6F] WAIT_FRAME_DELAY: Yield until WaitTime reaches zero
  5: 0x0019 [0x1E] EventEntity looks at Aphmau (ID: 17056436/0x010442B4) and starts talking
  6: 0x001E [0x00] END_REQSTACK()
```

### Event 65535.2

#### Metadata

| Field        | Value    |
|--------------|----------|
| Entrypoint   | 0x001F   |
| Data Size    | 20 bytes |
| Instructions | 6        |

```
      00 01 02 03 04 05 06 07  08 09 0A 0B 0C 0D 0E 0F
      -- -- -- -- -- -- -- --  -- -- -- -- -- -- -- --
0010:                                               32                 2
0020: 04 80 1F 00 08 80 09 80  0A 80 1F 01 6F 1E B4 42  ............o..B
0030: 04 01 00                                          ...             
```

#### Opcodes

```
  0: 0x001F [0x32] ExtData[1]->MainSpeed = 40* * 0.1
  1: 0x0022 [0x1F] MOVE_ENTITY: EventEntity moves to X=80.898*, Z=28.705*, Y=-0.315*
  2: 0x002A [0x1F] MOVE_ENTITY: Update entity position (mode=1)
  3: 0x002C [0x6F] WAIT_FRAME_DELAY: Yield until WaitTime reaches zero
  4: 0x002D [0x1E] EventEntity looks at Aphmau (ID: 17056436/0x010442B4) and starts talking
  5: 0x0032 [0x00] END_REQSTACK()
```

### Event 65535.3

#### Metadata

| Field        | Value    |
|--------------|----------|
| Entrypoint   | 0x0033   |
| Data Size    | 15 bytes |
| Instructions | 5        |

```
      00 01 02 03 04 05 06 07  08 09 0A 0B 0C 0D 0E 0F
      -- -- -- -- -- -- -- --  -- -- -- -- -- -- -- --
0030:          32 04 80 1F 00  0B 80 0C 80 0D 80 1F 01     2............
0040: 6F 00                                             o.              
```

#### Opcodes

```
  0: 0x0033 [0x32] ExtData[1]->MainSpeed = 40* * 0.1
  1: 0x0036 [0x1F] MOVE_ENTITY: EventEntity moves to X=81.060*, Z=19.798*, Y=-0.419*
  2: 0x003E [0x1F] MOVE_ENTITY: Update entity position (mode=1)
  3: 0x0040 [0x6F] WAIT_FRAME_DELAY: Yield until WaitTime reaches zero
  4: 0x0041 [0x00] END_REQSTACK()
```
