# 17056444 - Eunheem

## Common Data

| Field            | Value                       |
|------------------|-----------------------------|
| Zone             | Aydeewa Subterrane (ID: 68) |
| Block Size       | 128 bytes                   |
| Total Events     | 4                           |
| References Count | 9                           |

## List of Events

| Event ID                 | Entrypoint   |   Size |   Instructions |
|--------------------------|--------------|--------|----------------|
| [65535](#event-65535)    | 0x0000       |      1 |              1 |
| [34](#event-34)          | 0x0001       |      1 |              1 |
| [65535.1](#event-655351) | 0x0002       |     20 |              6 |
| [65535.2](#event-655352) | 0x0016       |     35 |              7 |

## DAT References (imed_data)

|   Index | Hex Value   |   Dec Value |
|---------|-------------|-------------|
|       0 | 0x0025      |          37 |
|       1 | 0xFFFF1D5B  |  4294909275 |
|       2 | 0xFFFE2C26  |  4294847526 |
|       3 | 0x00C7      |         199 |
|       4 | 0x000D      |          13 |
|       5 | 0xFFFF324B  |  4294914635 |
|       6 | 0xFFFE22B1  |  4294845105 |
|       7 | 0xFFFFFF39  |  4294967097 |
|       8 | 0x0009      |           9 |

## Events

### Event 65535

#### Metadata

| Field        | Value   |
|--------------|---------|
| Entrypoint   | 0x0000  |
| Data Size    | 1 bytes |
| Instructions | 1       |

```
      00 01 02 03 04 05 06 07  08 09 0A 0B 0C 0D 0E 0F
      -- -- -- -- -- -- -- --  -- -- -- -- -- -- -- --
0000: 00                                                .               
```

#### Opcodes

```
  0: 0x0000 [0x00] END_REQSTACK()
```

### Event 34

#### Metadata

| Field        | Value   |
|--------------|---------|
| Entrypoint   | 0x0001  |
| Data Size    | 1 bytes |
| Instructions | 1       |

```
      00 01 02 03 04 05 06 07  08 09 0A 0B 0C 0D 0E 0F
      -- -- -- -- -- -- -- --  -- -- -- -- -- -- -- --
0000:    00                                              .              
```

#### Opcodes

```
  0: 0x0001 [0x00] END_REQSTACK()
```

### Event 65535.1

#### Metadata

| Field        | Value    |
|--------------|----------|
| Entrypoint   | 0x0002   |
| Data Size    | 20 bytes |
| Instructions | 6        |

```
      00 01 02 03 04 05 06 07  08 09 0A 0B 0C 0D 0E 0F
      -- -- -- -- -- -- -- --  -- -- -- -- -- -- -- --
0000:       32 00 80 1F 00 01  80 02 80 03 80 1F 01 6F    2............o
0010: 1E C0 42 04 01 00                                 ..B...          
```

#### Opcodes

```
  0: 0x0002 [0x32] ExtData[1]->MainSpeed = 37* * 0.1
  1: 0x0005 [0x1F] MOVE_ENTITY: EventEntity moves to X=-58.021*, Z=-119.770*, Y=0.199*
  2: 0x000D [0x1F] MOVE_ENTITY: Update entity position (mode=1)
  3: 0x000F [0x6F] WAIT_FRAME_DELAY: Yield until WaitTime reaches zero
  4: 0x0010 [0x1E] EventEntity looks at Unnamed NPC (ID: 17056448/0x010442C0) and starts talking
  5: 0x0015 [0x00] END_REQSTACK()
```

### Event 65535.2

#### Metadata

| Field        | Value    |
|--------------|----------|
| Entrypoint   | 0x0016   |
| Data Size    | 35 bytes |
| Instructions | 7        |

```
      00 01 02 03 04 05 06 07  08 09 0A 0B 0C 0D 0E 0F
      -- -- -- -- -- -- -- --  -- -- -- -- -- -- -- --
0010:                   32 04  80 1F 00 05 80 06 80 07        2.........
0020: 80 1F 01 6F 1E C0 42 04  01 66 08 80 F8 FF FF 7F  ...o..B..f......
0030: F8 FF FF 7F 73 68 61 30  00                       ....sha0.       
```

#### Opcodes

```
  0: 0x0016 [0x32] ExtData[1]->MainSpeed = 13* * 0.1
  1: 0x0019 [0x1F] MOVE_ENTITY: EventEntity moves to X=-52.661*, Z=-122.191*, Y=-0.199*
  2: 0x0021 [0x1F] MOVE_ENTITY: Update entity position (mode=1)
  3: 0x0023 [0x6F] WAIT_FRAME_DELAY: Yield until WaitTime reaches zero
  4: 0x0024 [0x1E] EventEntity looks at Unnamed NPC (ID: 17056448/0x010442C0) and starts talking
  5: 0x0029 [0x66] LOAD_EXT_SCHEDULER_MAIN: Load scheduler "sha0" with entities [EventEntity, EventEntity], work=9*
  6: 0x0038 [0x00] END_REQSTACK()
```
