# 17056430 - Najelith

## Common Data

| Field            | Value                       |
|------------------|-----------------------------|
| Zone             | Aydeewa Subterrane (ID: 68) |
| Block Size       | 380 bytes                   |
| Total Events     | 10                          |
| References Count | 36                          |

## List of Events

| Event ID                 | Entrypoint   |   Size |   Instructions |
|--------------------------|--------------|--------|----------------|
| [65535](#event-65535)    | 0x0000       |      1 |              1 |
| [34](#event-34)          | 0x0001       |      1 |              1 |
| [65535.1](#event-655351) | 0x0002       |     44 |              8 |
| [65535.2](#event-655352) | 0x002E       |     20 |              6 |
| [65535.3](#event-655353) | 0x0042       |     14 |              3 |
| [65535.4](#event-655354) | 0x0050       |     14 |              3 |
| [65535.5](#event-655355) | 0x005E       |     15 |              5 |
| [65535.6](#event-655356) | 0x006D       |     31 |              9 |
| [65535.7](#event-655357) | 0x008C       |     20 |              6 |
| [65535.8](#event-655358) | 0x00A0       |     20 |              6 |

## DAT References (imed_data)

|   Index | Hex Value   |   Dec Value |
|---------|-------------|-------------|
|       0 | 0x16129     |       90409 |
|       1 | 0x9304      |       37636 |
|       2 | 0x017F      |         383 |
|       3 | 0x03D1      |         977 |
|       4 | 0x0028      |          40 |
|       5 | 0x13DFD     |       81405 |
|       6 | 0xD082      |       53378 |
|       7 | 0xFFFFFEC5  |  4294966981 |
|       8 | 0x0013      |          19 |
|       9 | 0x13636     |       79414 |
|      10 | 0x6AA2      |       27298 |
|      11 | 0xFFFFFEBC  |  4294966972 |
|      12 | 0x001F      |          31 |
|      13 | 0x12872     |       75890 |
|      14 | 0x4CA7      |       19623 |
|      15 | 0x0000      |           0 |
|      16 | 0x0400      |        1024 |
|      17 | 0x1346A     |       78954 |
|      18 | 0x5128      |       20776 |
|      19 | 0xFFFFFEC4  |  4294966980 |
|      20 | 0x0BB8      |        3000 |
|      21 | 0x1314C     |       78156 |
|      22 | 0x5295      |       21141 |
|      23 | 0x0026      |          38 |
|      24 | 0xFFFF0FB0  |  4294905776 |
|      25 | 0xFFFE504B  |  4294856779 |
|      26 | 0xFFFF23CA  |  4294910922 |
|      27 | 0xFFFE349E  |  4294849694 |
|      28 | 0xFFFFFF39  |  4294967097 |
|      29 | 0x000B      |          11 |
|      30 | 0xFFFF384F  |  4294916175 |
|      31 | 0xFFFE2C44  |  4294847556 |
|      32 | 0x00C7      |         199 |
|      33 | 0x14B6F     |       84847 |
|      34 | 0xBEFC      |       48892 |
|      35 | 0x01E0      |         480 |

## Events

### Event 65535

#### Metadata

| Field        | Value   |
|--------------|---------|
| Entrypoint   | 0x0000  |
| Data Size    | 1 bytes |
| Instructions | 1       |

```
      00 01 02 03 04 05 06 07  08 09 0A 0B 0C 0D 0E 0F
      -- -- -- -- -- -- -- --  -- -- -- -- -- -- -- --
0000: 00                                                .               
```

#### Opcodes

```
  0: 0x0000 [0x00] END_REQSTACK()
```

### Event 34

#### Metadata

| Field        | Value   |
|--------------|---------|
| Entrypoint   | 0x0001  |
| Data Size    | 1 bytes |
| Instructions | 1       |

```
      00 01 02 03 04 05 06 07  08 09 0A 0B 0C 0D 0E 0F
      -- -- -- -- -- -- -- --  -- -- -- -- -- -- -- --
0000:    00                                              .              
```

#### Opcodes

```
  0: 0x0001 [0x00] END_REQSTACK()
```

### Event 65535.1

#### Metadata

| Field        | Value    |
|--------------|----------|
| Entrypoint   | 0x0002   |
| Data Size    | 44 bytes |
| Instructions | 8        |

```
      00 01 02 03 04 05 06 07  08 09 0A 0B 0C 0D 0E 0F
      -- -- -- -- -- -- -- --  -- -- -- -- -- -- -- --
0000:       37 00 80 01 80 02  80 03 80 32 04 80 1F 00    7........2....
0010: 05 80 06 80 07 80 1F 01  6F 1E B4 42 04 01 66 08  ........o..B..f.
0020: 80 F8 FF FF 7F F8 FF FF  7F 73 68 61 30 00        .........sha0.  
```

#### Opcodes

```
  0: 0x0002 [0x37] UPDATE_EVENT_POSITION_AND_DIR: x=90.409*, z=37.636*, y=0.383*, direction=85.9°*
  1: 0x000B [0x32] ExtData[1]->MainSpeed = 40* * 0.1
  2: 0x000E [0x1F] MOVE_ENTITY: EventEntity moves to X=81.405*, Z=53.378*, Y=-0.315*
  3: 0x0016 [0x1F] MOVE_ENTITY: Update entity position (mode=1)
  4: 0x0018 [0x6F] WAIT_FRAME_DELAY: Yield until WaitTime reaches zero
  5: 0x0019 [0x1E] EventEntity looks at Aphmau (ID: 17056436/0x010442B4) and starts talking
  6: 0x001E [0x66] LOAD_EXT_SCHEDULER_MAIN: Load scheduler "sha0" with entities [EventEntity, EventEntity], work=19*
  7: 0x002D [0x00] END_REQSTACK()
```

### Event 65535.2

#### Metadata

| Field        | Value    |
|--------------|----------|
| Entrypoint   | 0x002E   |
| Data Size    | 20 bytes |
| Instructions | 6        |

```
      00 01 02 03 04 05 06 07  08 09 0A 0B 0C 0D 0E 0F
      -- -- -- -- -- -- -- --  -- -- -- -- -- -- -- --
0020:                                            32 04                2.
0030: 80 1F 00 09 80 0A 80 0B  80 1F 01 6F 1E B4 42 04  ...........o..B.
0040: 01 00                                             ..              
```

#### Opcodes

```
  0: 0x002E [0x32] ExtData[1]->MainSpeed = 40* * 0.1
  1: 0x0031 [0x1F] MOVE_ENTITY: EventEntity moves to X=79.414*, Z=27.298*, Y=-0.324*
  2: 0x0039 [0x1F] MOVE_ENTITY: Update entity position (mode=1)
  3: 0x003B [0x6F] WAIT_FRAME_DELAY: Yield until WaitTime reaches zero
  4: 0x003C [0x1E] EventEntity looks at Aphmau (ID: 17056436/0x010442B4) and starts talking
  5: 0x0041 [0x00] END_REQSTACK()
```

### Event 65535.3

#### Metadata

| Field        | Value    |
|--------------|----------|
| Entrypoint   | 0x0042   |
| Data Size    | 14 bytes |
| Instructions | 3        |

```
      00 01 02 03 04 05 06 07  08 09 0A 0B 0C 0D 0E 0F
      -- -- -- -- -- -- -- --  -- -- -- -- -- -- -- --
0040:       B6 0A 0C 80 37 0D  80 0E 80 0F 80 10 80 00    ....7.........
```

#### Opcodes

```
  0: 0x0042 [0xB6] ENTITY_APPEARANCE_HANDLER(case=Ranged, value=31*)
  1: 0x0046 [0x37] UPDATE_EVENT_POSITION_AND_DIR: x=75.890*, z=19.623*, y=0.000*, direction=90.0°*
  2: 0x004F [0x00] END_REQSTACK()
```

### Event 65535.4

#### Metadata

| Field        | Value    |
|--------------|----------|
| Entrypoint   | 0x0050   |
| Data Size    | 14 bytes |
| Instructions | 3        |

```
      00 01 02 03 04 05 06 07  08 09 0A 0B 0C 0D 0E 0F
      -- -- -- -- -- -- -- --  -- -- -- -- -- -- -- --
0050: B6 0A 0F 80 37 11 80 12  80 13 80 14 80 00        ....7.........  
```

#### Opcodes

```
  0: 0x0050 [0xB6] ENTITY_APPEARANCE_HANDLER(case=Ranged, value=0*)
  1: 0x0054 [0x37] UPDATE_EVENT_POSITION_AND_DIR: x=78.954*, z=20.776*, y=-0.316*, direction=263.7°*
  2: 0x005D [0x00] END_REQSTACK()
```

### Event 65535.5

#### Metadata

| Field        | Value    |
|--------------|----------|
| Entrypoint   | 0x005E   |
| Data Size    | 15 bytes |
| Instructions | 5        |

```
      00 01 02 03 04 05 06 07  08 09 0A 0B 0C 0D 0E 0F
      -- -- -- -- -- -- -- --  -- -- -- -- -- -- -- --
0050:                                            32 04                2.
0060: 80 1F 00 15 80 16 80 13  80 1F 01 6F 00           ...........o.   
```

#### Opcodes

```
  0: 0x005E [0x32] ExtData[1]->MainSpeed = 40* * 0.1
  1: 0x0061 [0x1F] MOVE_ENTITY: EventEntity moves to X=78.156*, Z=21.141*, Y=-0.316*
  2: 0x0069 [0x1F] MOVE_ENTITY: Update entity position (mode=1)
  3: 0x006B [0x6F] WAIT_FRAME_DELAY: Yield until WaitTime reaches zero
  4: 0x006C [0x00] END_REQSTACK()
```

### Event 65535.6

#### Metadata

| Field        | Value    |
|--------------|----------|
| Entrypoint   | 0x006D   |
| Data Size    | 31 bytes |
| Instructions | 9        |

```
      00 01 02 03 04 05 06 07  08 09 0A 0B 0C 0D 0E 0F
      -- -- -- -- -- -- -- --  -- -- -- -- -- -- -- --
0060:                                         32 17 80               2..
0070: 1F 00 18 80 19 80 0F 80  1F 01 6F 1F 00 1A 80 1B  ..........o.....
0080: 80 1C 80 1F 01 6F 1E C0  42 04 01 00              .....o..B...    
```

#### Opcodes

```
  0: 0x006D [0x32] ExtData[1]->MainSpeed = 38* * 0.1
  1: 0x0070 [0x1F] MOVE_ENTITY: EventEntity moves to X=-61.520*, Z=-110.517*, Y=0.000*
  2: 0x0078 [0x1F] MOVE_ENTITY: Update entity position (mode=1)
  3: 0x007A [0x6F] WAIT_FRAME_DELAY: Yield until WaitTime reaches zero
  4: 0x007B [0x1F] MOVE_ENTITY: EventEntity moves to X=-56.374*, Z=-117.602*, Y=-0.199*
  5: 0x0083 [0x1F] MOVE_ENTITY: Update entity position (mode=1)
  6: 0x0085 [0x6F] WAIT_FRAME_DELAY: Yield until WaitTime reaches zero
  7: 0x0086 [0x1E] EventEntity looks at Unnamed NPC (ID: 17056448/0x010442C0) and starts talking
  8: 0x008B [0x00] END_REQSTACK()
```

### Event 65535.7

#### Metadata

| Field        | Value    |
|--------------|----------|
| Entrypoint   | 0x008C   |
| Data Size    | 20 bytes |
| Instructions | 6        |

```
      00 01 02 03 04 05 06 07  08 09 0A 0B 0C 0D 0E 0F
      -- -- -- -- -- -- -- --  -- -- -- -- -- -- -- --
0080:                                      32 1D 80 1F              2...
0090: 00 1E 80 1F 80 20 80 1F  01 6F 1E C0 42 04 01 00  ..... ...o..B...
```

#### Opcodes

```
  0: 0x008C [0x32] ExtData[1]->MainSpeed = 11* * 0.1
  1: 0x008F [0x1F] MOVE_ENTITY: EventEntity moves to X=-51.121*, Z=-119.740*, Y=0.199*
  2: 0x0097 [0x1F] MOVE_ENTITY: Update entity position (mode=1)
  3: 0x0099 [0x6F] WAIT_FRAME_DELAY: Yield until WaitTime reaches zero
  4: 0x009A [0x1E] EventEntity looks at Unnamed NPC (ID: 17056448/0x010442C0) and starts talking
  5: 0x009F [0x00] END_REQSTACK()
```

### Event 65535.8

#### Metadata

| Field        | Value    |
|--------------|----------|
| Entrypoint   | 0x00A0   |
| Data Size    | 20 bytes |
| Instructions | 6        |

```
      00 01 02 03 04 05 06 07  08 09 0A 0B 0C 0D 0E 0F
      -- -- -- -- -- -- -- --  -- -- -- -- -- -- -- --
00A0: 32 1D 80 1F 00 21 80 22  80 23 80 1F 01 6F 1E B4  2....!.".#...o..
00B0: 42 04 01 00                                       B...            
```

#### Opcodes

```
  0: 0x00A0 [0x32] ExtData[1]->MainSpeed = 11* * 0.1
  1: 0x00A3 [0x1F] MOVE_ENTITY: EventEntity moves to X=84.847*, Z=48.892*, Y=0.480*
  2: 0x00AB [0x1F] MOVE_ENTITY: Update entity position (mode=1)
  3: 0x00AD [0x6F] WAIT_FRAME_DELAY: Yield until WaitTime reaches zero
  4: 0x00AE [0x1E] EventEntity looks at Aphmau (ID: 17056436/0x010442B4) and starts talking
  5: 0x00B3 [0x00] END_REQSTACK()
```
