# 0x7FFFFFF0 - Zone Events

## Common Data

| Field            | Value                       |
|------------------|-----------------------------|
| Zone             | Aydeewa Subterrane (ID: 68) |
| Block Size       | 3028 bytes                  |
| Total Events     | 48                          |
| References Count | 147                         |

## List of Events

| Event ID                   | Entrypoint   |   Size |   Instructions |
|----------------------------|--------------|--------|----------------|
| [65535](#event-65535)      | 0x0000       |      1 |              1 |
| [65534](#event-65534)      | 0x0001       |      1 |              1 |
| [65535.1](#event-655351)   | 0x0002       |     10 |              2 |
| [65535.2](#event-655352)   | 0x000C       |     10 |              2 |
| [65535.3](#event-655353)   | 0x0016       |     10 |              2 |
| [65535.4](#event-655354)   | 0x0020       |     15 |              5 |
| [65535.5](#event-655355)   | 0x002F       |      9 |              3 |
| [65535.6](#event-655356)   | 0x0038       |     10 |              2 |
| [65535.7](#event-655357)   | 0x0042       |     10 |              2 |
| [65535.8](#event-655358)   | 0x004C       |     15 |              5 |
| [65535.9](#event-655359)   | 0x005B       |     10 |              2 |
| [65535.10](#event-6553510) | 0x0065       |     15 |              5 |
| [65535.11](#event-6553511) | 0x0074       |     12 |              3 |
| [65535.12](#event-6553512) | 0x0080       |      6 |              2 |
| [65535.13](#event-6553513) | 0x0086       |     10 |              2 |
| [65535.14](#event-6553514) | 0x0090       |     10 |              2 |
| [65535.15](#event-6553515) | 0x009A       |     10 |              2 |
| [65535.16](#event-6553516) | 0x00A4       |     10 |              2 |
| [65535.17](#event-6553517) | 0x00AE       |     20 |              6 |
| [65535.18](#event-6553518) | 0x00C2       |     10 |              2 |
| [65535.19](#event-6553519) | 0x00CC       |     23 |              5 |
| [65535.20](#event-6553520) | 0x00E3       |     37 |              5 |
| [65535.21](#event-6553521) | 0x0108       |    185 |             37 |
| [65535.22](#event-6553522) | 0x01C1       |     21 |              5 |
| [65535.23](#event-6553523) | 0x01D6       |     20 |              6 |
| [2](#event-2)              | 0x01EA       |    719 |             85 |
| [5](#event-5)              | 0x04B9       |      6 |              4 |
| [6](#event-6)              | 0x04BF       |      6 |              4 |
| [0](#event-0)              | 0x04C5       |     84 |             20 |
| [13](#event-13)            | 0x0519       |     12 |              6 |
| [14](#event-14)            | 0x0525       |     20 |             10 |
| [15](#event-15)            | 0x0539       |     12 |              6 |
| [16](#event-16)            | 0x0545       |     20 |             10 |
| [17](#event-17)            | 0x0559       |     53 |             16 |
| [18](#event-18)            | 0x058E       |     65 |             22 |
| [19](#event-19)            | 0x05CF       |     97 |             26 |
| [20](#event-20)            | 0x0630       |     11 |              5 |
| [21](#event-21)            | 0x063B       |    500 |            123 |
| [65535.24](#event-6553524) | 0x082F       |      4 |              2 |
| [65535.25](#event-6553525) | 0x0833       |      6 |              2 |
| [65535.26](#event-6553526) | 0x0839       |     15 |              5 |
| [65535.27](#event-6553527) | 0x0848       |     15 |              5 |
| [65535.28](#event-6553528) | 0x0857       |     14 |              4 |
| [65535.29](#event-6553529) | 0x0865       |     27 |              7 |
| [65535.30](#event-6553530) | 0x0880       |     24 |              8 |
| [65535.31](#event-6553531) | 0x0898       |     15 |              5 |
| [65535.32](#event-6553532) | 0x08A7       |      7 |              3 |
| [65535.33](#event-6553533) | 0x08AE       |      7 |              3 |

## DAT References (imed_data)

|   Index | Hex Value   |   Dec Value |
|---------|-------------|-------------|
|       0 | 0x5B978     |      375160 |
|       1 | 0x53B06     |      342790 |
|       2 | 0x0090      |         144 |
|       3 | 0x013F      |         319 |
|       4 | 0xFFFFFFA1  |  4294967201 |
|       5 | 0xFFFF8BF8  |  4294937592 |
|       6 | 0x0000      |           0 |
|       7 | 0x0D0D      |        3341 |
|       8 | 0xFFFF8436  |  4294935606 |
|       9 | 0x0400      |        1024 |
|      10 | 0x000A      |          10 |
|      11 | 0x5CC2E     |      379950 |
|      12 | 0x5305D     |      340061 |
|      13 | 0x02E6      |         742 |
|      14 | 0x002D      |          45 |
|      15 | 0xFFFFBB96  |  4294949782 |
|      16 | 0x9ABF      |       39615 |
|      17 | 0xFFFFE890  |  4294961296 |
|      18 | 0x0AB4      |        2740 |
|      19 | 0xFFFA3BF4  |  4294589428 |
|      20 | 0xFFF93C27  |  4294523943 |
|      21 | 0x39E6      |       14822 |
|      22 | 0x0B9B      |        2971 |
|      23 | 0xFFFA398C  |  4294588812 |
|      24 | 0xFFF94ABA  |  4294527674 |
|      25 | 0x39C4      |       14788 |
|      26 | 0xFFF9D680  |  4294563456 |
|      27 | 0xFFF94B0E  |  4294527758 |
|      28 | 0x1DC6      |        7622 |
|      29 | 0x080B      |        2059 |
|      30 | 0x000B      |          11 |
|      31 | 0xFFF9D49B  |  4294562971 |
|      32 | 0xFFF94B0F  |  4294527759 |
|      33 | 0x1D83      |        7555 |
|      34 | 0xFFFA267B  |  4294583931 |
|      35 | 0xFFF95B31  |  4294531889 |
|      36 | 0x36AF      |       13999 |
|      37 | 0x0550      |        1360 |
|      38 | 0x53118     |      340248 |
|      39 | 0xFFFF9ACA  |  4294941386 |
|      40 | 0x8C58      |       35928 |
|      41 | 0x0EF4      |        3828 |
|      42 | 0x52CD9     |      339161 |
|      43 | 0xFFFF9DCD  |  4294942157 |
|      44 | 0x8C16      |       35862 |
|      45 | 0x01F1      |         497 |
|      46 | 0xFFFB977C  |  4294678396 |
|      47 | 0xFFFF6342  |  4294927170 |
|      48 | 0x9010      |       36880 |
|      49 | 0x0E8A      |        3722 |
|      50 | 0xFFFB69BB  |  4294666683 |
|      51 | 0xFFFF9507  |  4294939911 |
|      52 | 0x8F70      |       36720 |
|      53 | 0x088E      |        2190 |
|      54 | 0x0026      |          38 |
|      55 | 0xFFFB60D0  |  4294664400 |
|      56 | 0xFFFF991B  |  4294940955 |
|      57 | 0x8F36      |       36662 |
|      58 | 0xFFFB0204  |  4294640132 |
|      59 | 0xFFFFA58E  |  4294944142 |
|      60 | 0x899A      |       35226 |
|      61 | 0x0CE4      |        3300 |
|      62 | 0xFFFB07F6  |  4294641654 |
|      63 | 0xFFFF835D  |  4294935389 |
|      64 | 0x9032      |       36914 |
|      65 | 0x095B      |        2395 |
|      66 | 0x000D      |          13 |
|      67 | 0xFFFB25AB  |  4294649259 |
|      68 | 0xFFFF788D  |  4294932621 |
|      69 | 0x8FB2      |       36786 |
|      70 | 0x0005      |           5 |
|      71 | 0x0001      |           1 |
|      72 | 0x0002      |           2 |
|      73 | 0x0009      |           9 |
|      74 | 0x0046      |          70 |
|      75 | 0x008C      |         140 |
|      76 | 0x00D2      |         210 |
|      77 | 0x003C      |          60 |
|      78 | 0x0010      |          16 |
|      79 | 0x53A73     |      342643 |
|      80 | 0x5A7AC     |      370604 |
|      81 | 0x06C3      |        1731 |
|      82 | 0x1C9B      |        7323 |
|      83 | 0x00C8      |         200 |
|      84 | 0x001B      |          27 |
|      85 | 0x00FD      |         253 |
|      86 | 0x1C9C      |        7324 |
|      87 | 0x1C9D      |        7325 |
|      88 | 0x1C9E      |        7326 |
|      89 | 0x1C9F      |        7327 |
|      90 | 0x0078      |         120 |
|      91 | 0x00FE      |         254 |
|      92 | 0x1CA0      |        7328 |
|      93 | 0x1CA1      |        7329 |
|      94 | 0x0003      |           3 |
|      95 | 0x1CA2      |        7330 |
|      96 | 0x1CA3      |        7331 |
|      97 | 0x1CA4      |        7332 |
|      98 | 0x0029      |          41 |
|      99 | 0x025D      |         605 |
|     100 | 0x1CAB      |        7339 |
|     101 | 0x1CA9      |        7337 |
|     102 | 0x1CA8      |        7336 |
|     103 | 0x1CAA      |        7338 |
|     104 | 0x1CAC      |        7340 |
|     105 | 0x036C      |         876 |
|     106 | 0x1E16      |        7702 |
|     107 | 0x1E17      |        7703 |
|     108 | 0x1E18      |        7704 |
|     109 | 0x1E19      |        7705 |
|     110 | 0x1E1A      |        7706 |
|     111 | 0x1E1B      |        7707 |
|     112 | 0x1E1C      |        7708 |
|     113 | 0x1E1D      |        7709 |
|     114 | 0x1E1F      |        7711 |
|     115 | 0x1E20      |        7712 |
|     116 | 0x1E21      |        7713 |
|     117 | 0x1E22      |        7714 |
|     118 | 0x1E23      |        7715 |
|     119 | 0x1E24      |        7716 |
|     120 | 0x1E25      |        7717 |
|     121 | 0x0004      |           4 |
|     122 | 0x1E27      |        7719 |
|     123 | 0x1E29      |        7721 |
|     124 | 0x1E2A      |        7722 |
|     125 | 0x0064      |         100 |
|     126 | 0x1E26      |        7718 |
|     127 | 0xFAAC      |       64172 |
|     128 | 0x1ACE1     |      109793 |
|     129 | 0x99CB      |       39371 |
|     130 | 0xFFFAFBFA  |  4294638586 |
|     131 | 0xFFFFA27E  |  4294943358 |
|     132 | 0x8928      |       35112 |
|     133 | 0xFFFA0ADD  |  4294576861 |
|     134 | 0xFFF94A18  |  4294527512 |
|     135 | 0x30A4      |       12452 |
|     136 | 0x0028      |          40 |
|     137 | 0xFFFA0D3D  |  4294577469 |
|     138 | 0xFFF94002  |  4294524930 |
|     139 | 0x30CD      |       12493 |
|     140 | 0x0BB8      |        3000 |
|     141 | 0xFFFA35DF  |  4294587871 |
|     142 | 0xFFF94A5F  |  4294527583 |
|     143 | 0x3A43      |       14915 |
|     144 | 0xFFFA3F6F  |  4294590319 |
|     145 | 0xFFF94DB8  |  4294528440 |
|     146 | 0x39E1      |       14817 |

## String References

- **7323**: Choose a picture to take.
- **7324**: First scene.
- **7325**: Second scene.
- **7326**: Third scene.
- **7327**: Which picture will you take? [Show me again./First scene./Second scene./Third scene.]
- **7328**: <Player> records the first scene.
- **7329**: <Player> records the second scene.
- **7330**: <Player> records the third scene.
- **7331**: <Player> takes in the surrounding scenery. ...The view is breathtaking.
- **7332**: <Player> thinks back on Balakaf's words. ...Perhaps this is not the best time to record a picture.
- **7336**: Your $7 breaks!
- **7337**: Obtained key item: 3!
- **7338**: You dig up $0, but your $7 breaks in the process.
- **7339**: You are unable to mine anything.
- **7340**: You cannot carry any more items. Your inventory is full.
- **7702**: There are mushrooms growing here.
- **7703**: You find a $3!
- **7704**: You pick a mature $3.
- **7705**: There is nothing left here to pick.
- **7706**: You no longer need a $3.
- **7707**: There is a sparse patch of mushrooms growing here.
- **7708**: There is a dense patch of mushrooms growing here.
- **7709**: However, you were unable to find a $3.
- **7711**: Plant the mushroom here? [Yes, here./No, not here.]
- **7712**: You gently plant the $3 in the soil.
- **7713**: You don't see any new sprouts yet.
- **7714**: You see a newly sprouted $3!
- **7715**: Harvest the sprouts?
- **7716**: Harvest the sprouts? [Harvest away./Not yet.]
- **7717**: You harvest 1 sprout!
- **7718**: You harvest 2 sprouts!
- **7719**: You find an extra hidden sprout!
- **7721**: However, you cannot carry any more sprouts.
- **7722**: You pick a total of $1 [sprout/sprouts]!

## Events

### Event 65535

#### Metadata

| Field        | Value   |
|--------------|---------|
| Entrypoint   | 0x0000  |
| Data Size    | 1 bytes |
| Instructions | 1       |

```
      00 01 02 03 04 05 06 07  08 09 0A 0B 0C 0D 0E 0F
      -- -- -- -- -- -- -- --  -- -- -- -- -- -- -- --
0000: 00                                                .               
```

#### Opcodes

```
  0: 0x0000 [0x00] END_REQSTACK()
```

### Event 65534

#### Metadata

| Field        | Value   |
|--------------|---------|
| Entrypoint   | 0x0001  |
| Data Size    | 1 bytes |
| Instructions | 1       |

```
      00 01 02 03 04 05 06 07  08 09 0A 0B 0C 0D 0E 0F
      -- -- -- -- -- -- -- --  -- -- -- -- -- -- -- --
0000:    00                                              .              
```

#### Opcodes

```
  0: 0x0001 [0x00] END_REQSTACK()
```

### Event 65535.1

#### Metadata

| Field        | Value    |
|--------------|----------|
| Entrypoint   | 0x0002   |
| Data Size    | 10 bytes |
| Instructions | 2        |

```
      00 01 02 03 04 05 06 07  08 09 0A 0B 0C 0D 0E 0F
      -- -- -- -- -- -- -- --  -- -- -- -- -- -- -- --
0000:       37 00 80 01 80 02  80 03 80 00                7.........    
```

#### Opcodes

```
  0: 0x0002 [0x37] UPDATE_EVENT_POSITION_AND_DIR: x=375.160*, z=342.790*, y=0.144*, direction=28.0°*
  1: 0x000B [0x00] END_REQSTACK()
```

### Event 65535.2

#### Metadata

| Field        | Value    |
|--------------|----------|
| Entrypoint   | 0x000C   |
| Data Size    | 10 bytes |
| Instructions | 2        |

```
      00 01 02 03 04 05 06 07  08 09 0A 0B 0C 0D 0E 0F
      -- -- -- -- -- -- -- --  -- -- -- -- -- -- -- --
0000:                                      37 04 80 05              7...
0010: 80 06 80 07 80 00                                 ......          
```

#### Opcodes

```
  0: 0x000C [0x37] UPDATE_EVENT_POSITION_AND_DIR: x=-0.095*, z=-29.704*, y=0.000*, direction=293.6°*
  1: 0x0015 [0x00] END_REQSTACK()
```

### Event 65535.3

#### Metadata

| Field        | Value    |
|--------------|----------|
| Entrypoint   | 0x0016   |
| Data Size    | 10 bytes |
| Instructions | 2        |

```
      00 01 02 03 04 05 06 07  08 09 0A 0B 0C 0D 0E 0F
      -- -- -- -- -- -- -- --  -- -- -- -- -- -- -- --
0010:                   37 06  80 08 80 06 80 09 80 00        7.........
```

#### Opcodes

```
  0: 0x0016 [0x37] UPDATE_EVENT_POSITION_AND_DIR: x=0.000*, z=-31.690*, y=0.000*, direction=90.0°*
  1: 0x001F [0x00] END_REQSTACK()
```

### Event 65535.4

#### Metadata

| Field        | Value    |
|--------------|----------|
| Entrypoint   | 0x0020   |
| Data Size    | 15 bytes |
| Instructions | 5        |

```
      00 01 02 03 04 05 06 07  08 09 0A 0B 0C 0D 0E 0F
      -- -- -- -- -- -- -- --  -- -- -- -- -- -- -- --
0020: 32 0A 80 1F 00 0B 80 0C  80 0D 80 1F 01 6F 00     2............o. 
```

#### Opcodes

```
  0: 0x0020 [0x32] ExtData[1]->MainSpeed = 10* * 0.1
  1: 0x0023 [0x1F] MOVE_ENTITY: EventEntity moves to X=379.950*, Z=340.061*, Y=0.742*
  2: 0x002B [0x1F] MOVE_ENTITY: Update entity position (mode=1)
  3: 0x002D [0x6F] WAIT_FRAME_DELAY: Yield until WaitTime reaches zero
  4: 0x002E [0x00] END_REQSTACK()
```

### Event 65535.5

#### Metadata

| Field        | Value   |
|--------------|---------|
| Entrypoint   | 0x002F  |
| Data Size    | 9 bytes |
| Instructions | 3       |

```
      00 01 02 03 04 05 06 07  08 09 0A 0B 0C 0D 0E 0F
      -- -- -- -- -- -- -- --  -- -- -- -- -- -- -- --
0020:                                               1C                 .
0030: 0E 80 1E 94 42 04 01 00                           ....B...        
```

#### Opcodes

```
  0: 0x002F [0x1C] WAIT(45* ticks)
  1: 0x0032 [0x1E] EventEntity looks at Yasfel (ID: 17056404/0x01044294) and starts talking
  2: 0x0037 [0x00] END_REQSTACK()
```

### Event 65535.6

#### Metadata

| Field        | Value    |
|--------------|----------|
| Entrypoint   | 0x0038   |
| Data Size    | 10 bytes |
| Instructions | 2        |

```
      00 01 02 03 04 05 06 07  08 09 0A 0B 0C 0D 0E 0F
      -- -- -- -- -- -- -- --  -- -- -- -- -- -- -- --
0030:                          37 0F 80 10 80 11 80 12          7.......
0040: 80 00                                             ..              
```

#### Opcodes

```
  0: 0x0038 [0x37] UPDATE_EVENT_POSITION_AND_DIR: x=-17.514*, z=39.615*, y=-6.000*, direction=240.8°*
  1: 0x0041 [0x00] END_REQSTACK()
```

### Event 65535.7

#### Metadata

| Field        | Value    |
|--------------|----------|
| Entrypoint   | 0x0042   |
| Data Size    | 10 bytes |
| Instructions | 2        |

```
      00 01 02 03 04 05 06 07  08 09 0A 0B 0C 0D 0E 0F
      -- -- -- -- -- -- -- --  -- -- -- -- -- -- -- --
0040:       37 13 80 14 80 15  80 16 80 00                7.........    
```

#### Opcodes

```
  0: 0x0042 [0x37] UPDATE_EVENT_POSITION_AND_DIR: x=-377.868*, z=-443.353*, y=14.822*, direction=261.1°*
  1: 0x004B [0x00] END_REQSTACK()
```

### Event 65535.8

#### Metadata

| Field        | Value    |
|--------------|----------|
| Entrypoint   | 0x004C   |
| Data Size    | 15 bytes |
| Instructions | 5        |

```
      00 01 02 03 04 05 06 07  08 09 0A 0B 0C 0D 0E 0F
      -- -- -- -- -- -- -- --  -- -- -- -- -- -- -- --
0040:                                      32 0A 80 1F              2...
0050: 00 17 80 18 80 19 80 1F  01 6F 00                 .........o.     
```

#### Opcodes

```
  0: 0x004C [0x32] ExtData[1]->MainSpeed = 10* * 0.1
  1: 0x004F [0x1F] MOVE_ENTITY: EventEntity moves to X=-378.484*, Z=-439.622*, Y=14.788*
  2: 0x0057 [0x1F] MOVE_ENTITY: Update entity position (mode=1)
  3: 0x0059 [0x6F] WAIT_FRAME_DELAY: Yield until WaitTime reaches zero
  4: 0x005A [0x00] END_REQSTACK()
```

### Event 65535.9

#### Metadata

| Field        | Value    |
|--------------|----------|
| Entrypoint   | 0x005B   |
| Data Size    | 10 bytes |
| Instructions | 2        |

```
      00 01 02 03 04 05 06 07  08 09 0A 0B 0C 0D 0E 0F
      -- -- -- -- -- -- -- --  -- -- -- -- -- -- -- --
0050:                                   37 1A 80 1B 80             7....
0060: 1C 80 1D 80 00                                    .....           
```

#### Opcodes

```
  0: 0x005B [0x37] UPDATE_EVENT_POSITION_AND_DIR: x=-403.840*, z=-439.538*, y=7.622*, direction=181.0°*
  1: 0x0064 [0x00] END_REQSTACK()
```

### Event 65535.10

#### Metadata

| Field        | Value    |
|--------------|----------|
| Entrypoint   | 0x0065   |
| Data Size    | 15 bytes |
| Instructions | 5        |

```
      00 01 02 03 04 05 06 07  08 09 0A 0B 0C 0D 0E 0F
      -- -- -- -- -- -- -- --  -- -- -- -- -- -- -- --
0060:                32 1E 80  1F 00 1F 80 20 80 21 80       2...... .!.
0070: 1F 01 6F 00                                       ..o.            
```

#### Opcodes

```
  0: 0x0065 [0x32] ExtData[1]->MainSpeed = 11* * 0.1
  1: 0x0068 [0x1F] MOVE_ENTITY: EventEntity moves to X=-404.325*, Z=-439.537*, Y=7.555*
  2: 0x0070 [0x1F] MOVE_ENTITY: Update entity position (mode=1)
  3: 0x0072 [0x6F] WAIT_FRAME_DELAY: Yield until WaitTime reaches zero
  4: 0x0073 [0x00] END_REQSTACK()
```

### Event 65535.11

#### Metadata

| Field        | Value    |
|--------------|----------|
| Entrypoint   | 0x0074   |
| Data Size    | 12 bytes |
| Instructions | 3        |

```
      00 01 02 03 04 05 06 07  08 09 0A 0B 0C 0D 0E 0F
      -- -- -- -- -- -- -- --  -- -- -- -- -- -- -- --
0070:             33 01 37 22  80 23 80 24 80 25 80 00      3.7".#.$.%..
```

#### Opcodes

```
  0: 0x0074 [0x33] EventEntity->Render.Flags0 |= 0x200000 // Bit 21 (flag=0x01)
  1: 0x0076 [0x37] UPDATE_EVENT_POSITION_AND_DIR: x=-383.365*, z=-435.407*, y=13.999*, direction=119.5°*
  2: 0x007F [0x00] END_REQSTACK()
```

### Event 65535.12

#### Metadata

| Field        | Value   |
|--------------|---------|
| Entrypoint   | 0x0080  |
| Data Size    | 6 bytes |
| Instructions | 2       |

```
      00 01 02 03 04 05 06 07  08 09 0A 0B 0C 0D 0E 0F
      -- -- -- -- -- -- -- --  -- -- -- -- -- -- -- --
0080: 03 02 10 07 7F 00                                 ......          
```

#### Opcodes

```
  0: 0x0080 [0x03] Work_Zone[2] = Entity->Race
  1: 0x0085 [0x00] END_REQSTACK()
```

### Event 65535.13

#### Metadata

| Field        | Value    |
|--------------|----------|
| Entrypoint   | 0x0086   |
| Data Size    | 10 bytes |
| Instructions | 2        |

```
      00 01 02 03 04 05 06 07  08 09 0A 0B 0C 0D 0E 0F
      -- -- -- -- -- -- -- --  -- -- -- -- -- -- -- --
0080:                   37 26  80 27 80 28 80 29 80 00        7&.'.(.)..
```

#### Opcodes

```
  0: 0x0086 [0x37] UPDATE_EVENT_POSITION_AND_DIR: x=340.248*, z=-25.910*, y=35.928*, direction=336.4°*
  1: 0x008F [0x00] END_REQSTACK()
```

### Event 65535.14

#### Metadata

| Field        | Value    |
|--------------|----------|
| Entrypoint   | 0x0090   |
| Data Size    | 10 bytes |
| Instructions | 2        |

```
      00 01 02 03 04 05 06 07  08 09 0A 0B 0C 0D 0E 0F
      -- -- -- -- -- -- -- --  -- -- -- -- -- -- -- --
0090: 37 2A 80 2B 80 2C 80 2D  80 00                    7*.+.,.-..      
```

#### Opcodes

```
  0: 0x0090 [0x37] UPDATE_EVENT_POSITION_AND_DIR: x=339.161*, z=-25.139*, y=35.862*, direction=43.7°*
  1: 0x0099 [0x00] END_REQSTACK()
```

### Event 65535.15

#### Metadata

| Field        | Value    |
|--------------|----------|
| Entrypoint   | 0x009A   |
| Data Size    | 10 bytes |
| Instructions | 2        |

```
      00 01 02 03 04 05 06 07  08 09 0A 0B 0C 0D 0E 0F
      -- -- -- -- -- -- -- --  -- -- -- -- -- -- -- --
0090:                                37 2E 80 2F 80 30            7../.0
00A0: 80 31 80 00                                       .1..            
```

#### Opcodes

```
  0: 0x009A [0x37] UPDATE_EVENT_POSITION_AND_DIR: x=-288.900*, z=-40.126*, y=36.880*, direction=327.1°*
  1: 0x00A3 [0x00] END_REQSTACK()
```

### Event 65535.16

#### Metadata

| Field        | Value    |
|--------------|----------|
| Entrypoint   | 0x00A4   |
| Data Size    | 10 bytes |
| Instructions | 2        |

```
      00 01 02 03 04 05 06 07  08 09 0A 0B 0C 0D 0E 0F
      -- -- -- -- -- -- -- --  -- -- -- -- -- -- -- --
00A0:             37 32 80 33  80 34 80 35 80 00            72.3.4.5..  
```

#### Opcodes

```
  0: 0x00A4 [0x37] UPDATE_EVENT_POSITION_AND_DIR: x=-300.613*, z=-27.385*, y=36.720*, direction=192.5°*
  1: 0x00AD [0x00] END_REQSTACK()
```

### Event 65535.17

#### Metadata

| Field        | Value    |
|--------------|----------|
| Entrypoint   | 0x00AE   |
| Data Size    | 20 bytes |
| Instructions | 6        |

```
      00 01 02 03 04 05 06 07  08 09 0A 0B 0C 0D 0E 0F
      -- -- -- -- -- -- -- --  -- -- -- -- -- -- -- --
00A0:                                            32 36                26
00B0: 80 1F 00 37 80 38 80 39  80 1F 01 6F 1E A0 42 04  ...7.8.9...o..B.
00C0: 01 00                                             ..              
```

#### Opcodes

```
  0: 0x00AE [0x32] ExtData[1]->MainSpeed = 38* * 0.1
  1: 0x00B1 [0x1F] MOVE_ENTITY: EventEntity moves to X=-302.896*, Z=-26.341*, Y=36.662*
  2: 0x00B9 [0x1F] MOVE_ENTITY: Update entity position (mode=1)
  3: 0x00BB [0x6F] WAIT_FRAME_DELAY: Yield until WaitTime reaches zero
  4: 0x00BC [0x1E] EventEntity looks at Karababa (ID: 17056416/0x010442A0) and starts talking
  5: 0x00C1 [0x00] END_REQSTACK()
```

### Event 65535.18

#### Metadata

| Field        | Value    |
|--------------|----------|
| Entrypoint   | 0x00C2   |
| Data Size    | 10 bytes |
| Instructions | 2        |

```
      00 01 02 03 04 05 06 07  08 09 0A 0B 0C 0D 0E 0F
      -- -- -- -- -- -- -- --  -- -- -- -- -- -- -- --
00C0:       37 3A 80 3B 80 3C  80 3D 80 00                7:.;.<.=..    
```

#### Opcodes

```
  0: 0x00C2 [0x37] UPDATE_EVENT_POSITION_AND_DIR: x=-327.164*, z=-23.154*, y=35.226*, direction=290.0°*
  1: 0x00CB [0x00] END_REQSTACK()
```

### Event 65535.19

#### Metadata

| Field        | Value    |
|--------------|----------|
| Entrypoint   | 0x00CC   |
| Data Size    | 23 bytes |
| Instructions | 5        |

```
      00 01 02 03 04 05 06 07  08 09 0A 0B 0C 0D 0E 0F
      -- -- -- -- -- -- -- --  -- -- -- -- -- -- -- --
00C0:                                      37 3E 80 3F              7>.?
00D0: 80 40 80 41 80 32 42 80  1F 00 43 80 44 80 45 80  .@.A.2B...C.D.E.
00E0: 1F 01 00                                          ...             
```

#### Opcodes

```
  0: 0x00CC [0x37] UPDATE_EVENT_POSITION_AND_DIR: x=-325.642*, z=-31.907*, y=36.914*, direction=210.5°*
  1: 0x00D5 [0x32] ExtData[1]->MainSpeed = 13* * 0.1
  2: 0x00D8 [0x1F] MOVE_ENTITY: EventEntity moves to X=-318.037*, Z=-34.675*, Y=36.786*
  3: 0x00E0 [0x1F] MOVE_ENTITY: Update entity position (mode=1)
  4: 0x00E2 [0x00] END_REQSTACK()
```

### Event 65535.20

#### Metadata

| Field        | Value    |
|--------------|----------|
| Entrypoint   | 0x00E3   |
| Data Size    | 37 bytes |
| Instructions | 5        |

```
      00 01 02 03 04 05 06 07  08 09 0A 0B 0C 0D 0E 0F
      -- -- -- -- -- -- -- --  -- -- -- -- -- -- -- --
00E0:          03 00 00 07 7F  1A 2D 01 66 01 00 F8 FF     ......-.f....
00F0: FF 7F F8 FF FF 7F 73 68  61 30 53 F8 FF FF 7F F8  ......sha0S.....
0100: FF FF 7F 73 68 61 30 00                           ...sha0.        
```

#### Opcodes

```
  0: 0x00E3 [0x03] ExtData[1]->WorkLocal[0] = Entity->Race
  1: 0x00E8 [0x1A] CALL_SUBROUTINE(address=0x012D)
  2: 0x00EB [0x66] LOAD_EXT_SCHEDULER_MAIN: Load scheduler "sha0" with entities [EventEntity, EventEntity], work=ExtData[1]->WorkLocal[1]
  3: 0x00FA [0x53] WAIT_SCHEDULER_TASK: Wait for scheduler "sha0" with entities [EventEntity, EventEntity]
  4: 0x0107 [0x00] END_REQSTACK()
```

### Event 65535.21

#### Metadata

| Field        | Value     |
|--------------|-----------|
| Entrypoint   | 0x0108    |
| Data Size    | 185 bytes |
| Instructions | 13        |

```
      00 01 02 03 04 05 06 07  08 09 0A 0B 0C 0D 0E 0F
      -- -- -- -- -- -- -- --  -- -- -- -- -- -- -- --
0100:                          03 00 00 07 7F 1A 2D 01          ......-.
0110: 66 01 00 F8 FF FF 7F F8  FF FF 7F 73 68 61 31 53  f..........sha1S
0120: F8 FF FF 7F F8 FF FF 7F  73 68 61 31 00 03 01 00  ........sha1....
0130: 00 00 02 01 00 46 80 05  42 01 08 01 00 47 80 01  .....F..B....G..
0140: 47 01 08 01 00 48 80 14  01 00 0A 80 07 01 00 49  G....H.........I
0150: 80 1B 03 01 00 00 00 02  01 00 46 80 05 67 01 08  ..........F..g..
0160: 01 00 47 80 01 6C 01 08  01 00 48 80 14 01 00 0A  ..G..l....H.....
0170: 80 07 01 00 4A 80 1B 03  01 00 00 00 02 01 00 46  ....J..........F
0180: 80 05 8C 01 08 01 00 47  80 01 91 01 08 01 00 48  .......G.......H
0190: 80 14 01 00 0A 80 07 01  00 4B 80 1B 03 01 00 00  .........K......
01A0: 00 02 01 00 46 80 05 B1  01 08 01 00 47 80 01 B6  ....F.......G...
01B0: 01 08 01 00 48 80 14 01  00 0A 80 07 01 00 4C 80  ....H.........L.
01C0: 1B                                                .               
```

#### Opcodes

```
  0: 0x0108 [0x03] ExtData[1]->WorkLocal[0] = Entity->Race
  1: 0x010D [0x1A] CALL_SUBROUTINE(address=0x012D)
  2: 0x0110 [0x66] LOAD_EXT_SCHEDULER_MAIN: Load scheduler "sha1" with entities [EventEntity, EventEntity], work=ExtData[1]->WorkLocal[1]
  3: 0x011F [0x53] WAIT_SCHEDULER_TASK: Wait for scheduler "sha1" with entities [EventEntity, EventEntity]
  4: 0x012C [0x00] END_REQSTACK()

SUBROUTINE_012D:
  5: 0x012D [0x03] ExtData[1]->WorkLocal[1] = ExtData[1]->WorkLocal[0]
  6: 0x0132 [0x02] IF !(ExtData[1]->WorkLocal[1] > 5*) GOTO 0x0142
  7: 0x013A [0x08] ExtData[1]->WorkLocal[1] -= 1*
  8: 0x013F [0x01] GOTO 0x0147
  9: 0x0142 [0x08] ExtData[1]->WorkLocal[1] -= 2*

SUBROUTINE_0147:
 10: 0x0147 [0x14] ExtData[1]->WorkLocal[1] *= 10*
 11: 0x014C [0x07] ExtData[1]->WorkLocal[1] += 9*
 12: 0x0151 [0x1B] RETURN
```

#### Data or dead code:

```
# Dead code (unreachable instructions):
     0x0152 [0x03] ExtData[1]->WorkLocal[1] = ExtData[1]->WorkLocal[0]
     0x0157 [0x02] IF !(ExtData[1]->WorkLocal[1] > 5*) GOTO 0x0167
     0x015F [0x08] ExtData[1]->WorkLocal[1] -= 1*
     0x0164 [0x01] GOTO 0x016C
     0x0167 [0x08] ExtData[1]->WorkLocal[1] -= 2*
     0x016C [0x14] ExtData[1]->WorkLocal[1] *= 10*
     0x0171 [0x07] ExtData[1]->WorkLocal[1] += 70*
     0x0176 [0x1B] RETURN
     0x0177 [0x03] ExtData[1]->WorkLocal[1] = ExtData[1]->WorkLocal[0]
     0x017C [0x02] IF !(ExtData[1]->WorkLocal[1] > 5*) GOTO 0x018C
     0x0184 [0x08] ExtData[1]->WorkLocal[1] -= 1*
     0x0189 [0x01] GOTO 0x0191
     0x018C [0x08] ExtData[1]->WorkLocal[1] -= 2*
     0x0191 [0x14] ExtData[1]->WorkLocal[1] *= 10*
     0x0196 [0x07] ExtData[1]->WorkLocal[1] += 140*
     0x019B [0x1B] RETURN
     0x019C [0x03] ExtData[1]->WorkLocal[1] = ExtData[1]->WorkLocal[0]
     0x01A1 [0x02] IF !(ExtData[1]->WorkLocal[1] > 5*) GOTO 0x01B1
     0x01A9 [0x08] ExtData[1]->WorkLocal[1] -= 1*
     0x01AE [0x01] GOTO 0x01B6
     0x01B1 [0x08] ExtData[1]->WorkLocal[1] -= 2*
     0x01B6 [0x14] ExtData[1]->WorkLocal[1] *= 10*
     0x01BB [0x07] ExtData[1]->WorkLocal[1] += 210*
     0x01C0 [0x1B] RETURN
```

### Event 65535.22

#### Metadata

| Field        | Value    |
|--------------|----------|
| Entrypoint   | 0x01C1   |
| Data Size    | 21 bytes |
| Instructions | 5        |

```
      00 01 02 03 04 05 06 07  08 09 0A 0B 0C 0D 0E 0F
      -- -- -- -- -- -- -- --  -- -- -- -- -- -- -- --
01C0:    1C 4D 80 6E F8 FF FF  7F 4E 80 99 F8 FF FF 7F   .M.n....N......
01D0: 99 F8 FF FF 7F 00                                 ......          
```

#### Opcodes

```
  0: 0x01C1 [0x1C] WAIT(60* ticks)
  1: 0x01C4 [0x6E] EventEntity uses emote 16*
  2: 0x01CB [0x99] Wait for EventEntity animation to complete
  3: 0x01D0 [0x99] Wait for EventEntity animation to complete
  4: 0x01D5 [0x00] END_REQSTACK()
```

### Event 65535.23

#### Metadata

| Field        | Value    |
|--------------|----------|
| Entrypoint   | 0x01D6   |
| Data Size    | 20 bytes |
| Instructions | 6        |

```
      00 01 02 03 04 05 06 07  08 09 0A 0B 0C 0D 0E 0F
      -- -- -- -- -- -- -- --  -- -- -- -- -- -- -- --
01D0:                   32 42  80 1F 00 4F 80 50 80 51        2B...O.P.Q
01E0: 80 1F 01 6F 1E B0 42 04  01 00                    ...o..B...      
```

#### Opcodes

```
  0: 0x01D6 [0x32] ExtData[1]->MainSpeed = 13* * 0.1
  1: 0x01D9 [0x1F] MOVE_ENTITY: EventEntity moves to X=342.643*, Z=370.604*, Y=1.731*
  2: 0x01E1 [0x1F] MOVE_ENTITY: Update entity position (mode=1)
  3: 0x01E3 [0x6F] WAIT_FRAME_DELAY: Yield until WaitTime reaches zero
  4: 0x01E4 [0x1E] EventEntity looks at Mihli Aliapoh (ID: 17056432/0x010442B0) and starts talking
  5: 0x01E9 [0x00] END_REQSTACK()
```

### Event 2

#### Metadata

| Field        | Value     |
|--------------|-----------|
| Entrypoint   | 0x01EA    |
| Data Size    | 719 bytes |
| Instructions | 85        |

```
      00 01 02 03 04 05 06 07  08 09 0A 0B 0C 0D 0E 0F
      -- -- -- -- -- -- -- --  -- -- -- -- -- -- -- --
01E0:                                42 48 52 80 23 45            BHR.#E
01F0: 53 80 F8 FF FF 7F F8 FF  FF 7F 66 64 6F 31 06 80  S.........fdo1..
0200: 55 53 80 F8 FF FF 7F F8  FF FF 7F 66 64 6F 31 46  US.........fdo1F
0210: 01 38 54 80 4E 01 F0 FF  FF 7F 03 02 00 06 80 02  .8T.N...........
0220: 02 00 06 80 00 A1 04 45  55 80 F8 FF FF 7F F8 FF  .......EU.......
0230: FF 7F 73 30 38 30 06 80  1C 4D 80 45 53 80 F8 FF  ..s080...M.ES...
0240: FF 7F F8 FF FF 7F 66 64  69 31 06 80 1C 4D 80 48  ......fdi1...M.H
0250: 56 80 23 45 53 80 F8 FF  FF 7F F8 FF FF 7F 66 64  V.#ES.........fd
0260: 6F 31 06 80 55 53 80 F8  FF FF 7F F8 FF FF 7F 66  o1..US.........f
0270: 64 6F 31 52 55 80 F8 FF  FF 7F F8 FF FF 7F 73 30  do1RU.........s0
0280: 38 30 45 55 80 F8 FF FF  7F F8 FF FF 7F 73 30 38  80EU.........s08
0290: 31 06 80 1C 4D 80 45 53  80 F8 FF FF 7F F8 FF FF  1...M.ES........
02A0: 7F 66 64 69 31 06 80 1C  4D 80 48 57 80 23 45 53  .fdi1...M.HW.#ES
02B0: 80 F8 FF FF 7F F8 FF FF  7F 66 64 6F 31 06 80 55  .........fdo1..U
02C0: 53 80 F8 FF FF 7F F8 FF  FF 7F 66 64 6F 31 52 55  S.........fdo1RU
02D0: 80 F8 FF FF 7F F8 FF FF  7F 73 30 38 31 45 55 80  .........s081EU.
02E0: F8 FF FF 7F F8 FF FF 7F  73 30 38 32 06 80 1C 4D  ........s082...M
02F0: 80 45 53 80 F8 FF FF 7F  F8 FF FF 7F 66 64 69 31  .ES.........fdi1
0300: 06 80 1C 4D 80 48 58 80  23 24 59 80 06 80 06 80  ...M.HX.#$Y.....
0310: 25 02 00 10 06 80 00 1C  03 01 51 04 02 00 10 47  %.........Q....G
0320: 80 00 9F 03 45 53 80 F8  FF FF 7F F8 FF FF 7F 66  ....ES.........f
0330: 64 6F 31 06 80 55 53 80  F8 FF FF 7F F8 FF FF 7F  do1..US.........
0340: 66 64 6F 31 52 55 80 F8  FF FF 7F F8 FF FF 7F 73  fdo1RU.........s
0350: 30 38 32 45 55 80 F8 FF  FF 7F F8 FF FF 7F 73 30  082EU.........s0
0360: 38 30 06 80 1C 4D 80 45  53 80 F8 FF FF 7F F8 FF  80...M.ES.......
0370: FF 7F 66 64 69 31 06 80  1C 5A 80 45 5B 80 F8 FF  ..fdi1...Z.E[...
0380: FF 7F F8 FF FF 7F 73 30  34 37 06 80 1C 5A 80 48  ......s047...Z.H
0390: 5C 80 03 02 00 47 80 03  01 10 47 80 01 51 04 02  \....G....G..Q..
03A0: 00 10 48 80 00 22 04 45  53 80 F8 FF FF 7F F8 FF  ..H..".ES.......
03B0: FF 7F 66 64 6F 31 06 80  55 53 80 F8 FF FF 7F F8  ..fdo1..US......
03C0: FF FF 7F 66 64 6F 31 52  55 80 F8 FF FF 7F F8 FF  ...fdo1RU.......
03D0: FF 7F 73 30 38 32 45 55  80 F8 FF FF 7F F8 FF FF  ..s082EU........
03E0: 7F 73 30 38 31 06 80 1C  4D 80 45 53 80 F8 FF FF  .s081...M.ES....
03F0: 7F F8 FF FF 7F 66 64 69  31 06 80 1C 5A 80 45 5B  .....fdi1...Z.E[
0400: 80 F8 FF FF 7F F8 FF FF  7F 73 30 34 37 06 80 1C  .........s047...
0410: 5A 80 48 5D 80 03 02 00  47 80 03 01 10 48 80 01  Z.H]....G....H..
0420: 51 04 02 00 10 5E 80 00  51 04 1C 5A 80 45 5B 80  Q....^..Q..Z.E[.
0430: F8 FF FF 7F F8 FF FF 7F  73 30 34 37 06 80 1C 5A  ........s047...Z
0440: 80 48 5F 80 03 02 00 47  80 03 01 10 5E 80 01 51  .H_....G....^..Q
0450: 04 45 53 80 F8 FF FF 7F  F8 FF FF 7F 66 64 6F 31  .ES.........fdo1
0460: 06 80 55 53 80 F8 FF FF  7F F8 FF FF 7F 66 64 6F  ..US.........fdo
0470: 31 52 55 80 F8 FF FF 7F  F8 FF FF 7F 73 30 38 30  1RU.........s080
0480: 52 55 80 F8 FF FF 7F F8  FF FF 7F 73 30 38 31 52  RU.........s081R
0490: 55 80 F8 FF FF 7F F8 FF  FF 7F 73 30 38 32 01 1F  U.........s082..
04A0: 02 46 00 1C 4D 80 45 53  80 F8 FF FF 7F F8 FF FF  .F..M.ES........
04B0: 7F 66 64 69 31 06 80 21  00                       .fdi1..!.       
```

#### Opcodes

```
  0: 0x01EA [0x42] SET_CLI_EVENT_CANCEL_DATA()
  1: 0x01EB [0x48] [System] [7323*]:
    → "Choose a picture to take."
  2: 0x01EE [0x23] WAIT_FOR_DIALOG_INTERACTION
  3: 0x01EF [0x45] LOAD_SCHEDULED_TASK: Load scheduler "fdo1" with entities [EventEntity, EventEntity], work=[200*, 0*]
  4: 0x0200 [0x55] WAIT_LOAD_SCHEDULER: Wait for scheduler "fdo1" with entities [EventEntity, EventEntity], work=200*
  5: 0x020F [0x46] CAMERA_CONTROL: Disable user control
  6: 0x0211 [0x38] SET_CLIENT_EVENT_MODE(mode=27*)
  7: 0x0214 [0x4E] SET_ENTITY_HIDE_FLAG: Hide LocalPlayer
  8: 0x021A [0x03] ExtData[1]->WorkLocal[2] = 0*
  9: 0x021F [0x02] IF !(ExtData[1]->WorkLocal[2] == 0*) GOTO 0x04A1
 10: 0x0227 [0x45] LOAD_SCHEDULED_TASK: Load scheduler "s080" with entities [EventEntity, EventEntity], work=[253*, 0*]
 11: 0x0238 [0x1C] WAIT(60* ticks)
 12: 0x023B [0x45] LOAD_SCHEDULED_TASK: Load scheduler "fdi1" with entities [EventEntity, EventEntity], work=[200*, 0*]
 13: 0x024C [0x1C] WAIT(60* ticks)
 14: 0x024F [0x48] [System] [7324*]:
    → "First scene."
 15: 0x0252 [0x23] WAIT_FOR_DIALOG_INTERACTION
 16: 0x0253 [0x45] LOAD_SCHEDULED_TASK: Load scheduler "fdo1" with entities [EventEntity, EventEntity], work=[200*, 0*]
 17: 0x0264 [0x55] WAIT_LOAD_SCHEDULER: Wait for scheduler "fdo1" with entities [EventEntity, EventEntity], work=200*
 18: 0x0273 [0x52] END_LOAD_SCHEDULER: End scheduler "s080" with entities [EventEntity, EventEntity], work=253*
 19: 0x0282 [0x45] LOAD_SCHEDULED_TASK: Load scheduler "s081" with entities [EventEntity, EventEntity], work=[253*, 0*]
 20: 0x0293 [0x1C] WAIT(60* ticks)
 21: 0x0296 [0x45] LOAD_SCHEDULED_TASK: Load scheduler "fdi1" with entities [EventEntity, EventEntity], work=[200*, 0*]
 22: 0x02A7 [0x1C] WAIT(60* ticks)
 23: 0x02AA [0x48] [System] [7325*]:
    → "Second scene."
 24: 0x02AD [0x23] WAIT_FOR_DIALOG_INTERACTION
 25: 0x02AE [0x45] LOAD_SCHEDULED_TASK: Load scheduler "fdo1" with entities [EventEntity, EventEntity], work=[200*, 0*]
 26: 0x02BF [0x55] WAIT_LOAD_SCHEDULER: Wait for scheduler "fdo1" with entities [EventEntity, EventEntity], work=200*
 27: 0x02CE [0x52] END_LOAD_SCHEDULER: End scheduler "s081" with entities [EventEntity, EventEntity], work=253*
 28: 0x02DD [0x45] LOAD_SCHEDULED_TASK: Load scheduler "s082" with entities [EventEntity, EventEntity], work=[253*, 0*]
 29: 0x02EE [0x1C] WAIT(60* ticks)
 30: 0x02F1 [0x45] LOAD_SCHEDULED_TASK: Load scheduler "fdi1" with entities [EventEntity, EventEntity], work=[200*, 0*]
 31: 0x0302 [0x1C] WAIT(60* ticks)
 32: 0x0305 [0x48] [System] [7326*]:
    → "Third scene."
 33: 0x0308 [0x23] WAIT_FOR_DIALOG_INTERACTION
 34: 0x0309 [0x24] CREATE_DIALOG(message_id=7327*, default_option=0*, option_flags=0*)
    → "Which picture will you take? [Show me again./First scene./Second scene./Third scene.]"
 35: 0x0310 [0x25] WAIT_DIALOG_SELECT()
 36: 0x0311 [0x02] IF !(Work_Zone[0] == 0*) GOTO 0x031C
 37: 0x0319 [0x01] GOTO 0x0451
 38: 0x031C [0x02] IF !(Work_Zone[0] == 1*) GOTO 0x039F
 39: 0x0324 [0x45] LOAD_SCHEDULED_TASK: Load scheduler "fdo1" with entities [EventEntity, EventEntity], work=[200*, 0*]
 40: 0x0335 [0x55] WAIT_LOAD_SCHEDULER: Wait for scheduler "fdo1" with entities [EventEntity, EventEntity], work=200*
 41: 0x0344 [0x52] END_LOAD_SCHEDULER: End scheduler "s082" with entities [EventEntity, EventEntity], work=253*
 42: 0x0353 [0x45] LOAD_SCHEDULED_TASK: Load scheduler "s080" with entities [EventEntity, EventEntity], work=[253*, 0*]
 43: 0x0364 [0x1C] WAIT(60* ticks)
 44: 0x0367 [0x45] LOAD_SCHEDULED_TASK: Load scheduler "fdi1" with entities [EventEntity, EventEntity], work=[200*, 0*]
 45: 0x0378 [0x1C] WAIT(120* ticks)
 46: 0x037B [0x45] LOAD_SCHEDULED_TASK: Load scheduler "s047" with entities [EventEntity, EventEntity], work=[254*, 0*]
 47: 0x038C [0x1C] WAIT(120* ticks)
 48: 0x038F [0x48] [System] [7328*]:
    → "<Player> records the first scene."
 49: 0x0392 [0x03] ExtData[1]->WorkLocal[2] = 1*
 50: 0x0397 [0x03] Work_Zone[1] = 1*
 51: 0x039C [0x01] GOTO 0x0451
 52: 0x039F [0x02] IF !(Work_Zone[0] == 2*) GOTO 0x0422
 53: 0x03A7 [0x45] LOAD_SCHEDULED_TASK: Load scheduler "fdo1" with entities [EventEntity, EventEntity], work=[200*, 0*]
 54: 0x03B8 [0x55] WAIT_LOAD_SCHEDULER: Wait for scheduler "fdo1" with entities [EventEntity, EventEntity], work=200*
 55: 0x03C7 [0x52] END_LOAD_SCHEDULER: End scheduler "s082" with entities [EventEntity, EventEntity], work=253*
 56: 0x03D6 [0x45] LOAD_SCHEDULED_TASK: Load scheduler "s081" with entities [EventEntity, EventEntity], work=[253*, 0*]
 57: 0x03E7 [0x1C] WAIT(60* ticks)
 58: 0x03EA [0x45] LOAD_SCHEDULED_TASK: Load scheduler "fdi1" with entities [EventEntity, EventEntity], work=[200*, 0*]
 59: 0x03FB [0x1C] WAIT(120* ticks)
 60: 0x03FE [0x45] LOAD_SCHEDULED_TASK: Load scheduler "s047" with entities [EventEntity, EventEntity], work=[254*, 0*]
 61: 0x040F [0x1C] WAIT(120* ticks)
 62: 0x0412 [0x48] [System] [7329*]:
    → "<Player> records the second scene."
 63: 0x0415 [0x03] ExtData[1]->WorkLocal[2] = 1*
 64: 0x041A [0x03] Work_Zone[1] = 2*
 65: 0x041F [0x01] GOTO 0x0451
 66: 0x0422 [0x02] IF !(Work_Zone[0] == 3*) GOTO 0x0451
 67: 0x042A [0x1C] WAIT(120* ticks)
 68: 0x042D [0x45] LOAD_SCHEDULED_TASK: Load scheduler "s047" with entities [EventEntity, EventEntity], work=[254*, 0*]
 69: 0x043E [0x1C] WAIT(120* ticks)
 70: 0x0441 [0x48] [System] [7330*]:
    → "<Player> records the third scene."
 71: 0x0444 [0x03] ExtData[1]->WorkLocal[2] = 1*
 72: 0x0449 [0x03] Work_Zone[1] = 3*
 73: 0x044E [0x01] GOTO 0x0451

SUBROUTINE_0451:
 74: 0x0451 [0x45] LOAD_SCHEDULED_TASK: Load scheduler "fdo1" with entities [EventEntity, EventEntity], work=[200*, 0*]
 75: 0x0462 [0x55] WAIT_LOAD_SCHEDULER: Wait for scheduler "fdo1" with entities [EventEntity, EventEntity], work=200*
 76: 0x0471 [0x52] END_LOAD_SCHEDULER: End scheduler "s080" with entities [EventEntity, EventEntity], work=253*
 77: 0x0480 [0x52] END_LOAD_SCHEDULER: End scheduler "s081" with entities [EventEntity, EventEntity], work=253*
 78: 0x048F [0x52] END_LOAD_SCHEDULER: End scheduler "s082" with entities [EventEntity, EventEntity], work=253*
 79: 0x049E [0x01] GOTO 0x021F
 80: 0x04A1 [0x46] CAMERA_CONTROL: Restore default settings
 81: 0x04A3 [0x1C] WAIT(60* ticks)
 82: 0x04A6 [0x45] LOAD_SCHEDULED_TASK: Load scheduler "fdi1" with entities [EventEntity, EventEntity], work=[200*, 0*]
 83: 0x04B7 [0x21] END_EVENT
 84: 0x04B8 [0x00] END_REQSTACK()
```

### Event 5

#### Metadata

| Field        | Value   |
|--------------|---------|
| Entrypoint   | 0x04B9  |
| Data Size    | 6 bytes |
| Instructions | 4       |

```
      00 01 02 03 04 05 06 07  08 09 0A 0B 0C 0D 0E 0F
      -- -- -- -- -- -- -- --  -- -- -- -- -- -- -- --
04B0:                             48 60 80 23 21 00              H`.#!. 
```

#### Opcodes

```
  0: 0x04B9 [0x48] [System] [7331*]:
    → "<Player> takes in the surrounding scenery. ...The view is breathtaking."
  1: 0x04BC [0x23] WAIT_FOR_DIALOG_INTERACTION
  2: 0x04BD [0x21] END_EVENT
  3: 0x04BE [0x00] END_REQSTACK()
```

### Event 6

#### Metadata

| Field        | Value   |
|--------------|---------|
| Entrypoint   | 0x04BF  |
| Data Size    | 6 bytes |
| Instructions | 4       |

```
      00 01 02 03 04 05 06 07  08 09 0A 0B 0C 0D 0E 0F
      -- -- -- -- -- -- -- --  -- -- -- -- -- -- -- --
04B0:                                               48                 H
04C0: 61 80 23 21 00                                    a.#!.           
```

#### Opcodes

```
  0: 0x04BF [0x48] [System] [7332*]:
    → "<Player> thinks back on Balakaf's words. ...Perhaps this is not the best time to record a picture."
  1: 0x04C2 [0x23] WAIT_FOR_DIALOG_INTERACTION
  2: 0x04C3 [0x21] END_EVENT
  3: 0x04C4 [0x00] END_REQSTACK()
```

### Event 0

#### Metadata

| Field        | Value    |
|--------------|----------|
| Entrypoint   | 0x04C5   |
| Data Size    | 84 bytes |
| Instructions | 20       |

```
      00 01 02 03 04 05 06 07  08 09 0A 0B 0C 0D 0E 0F
      -- -- -- -- -- -- -- --  -- -- -- -- -- -- -- --
04C0:                42 6E F0  FF FF 7F 62 80 99 F0 FF       Bn....b....
04D0: FF 7F 99 F0 FF FF 7F 03  09 10 63 80 02 04 10 06  ..........c.....
04E0: 80 00 14 05 02 03 10 06  80 00 00 05 02 02 10 06  ................
04F0: 80 00 FA 04 48 64 80 01  FD 04 48 65 80 01 11 05  ....Hd....He....
0500: 02 02 10 06 80 00 0E 05  48 66 80 01 11 05 48 67  ........Hf....Hg
0510: 80 01 17 05 48 68 80 21  00                       ....Hh.!.       
```

#### Opcodes

```
  0: 0x04C5 [0x42] SET_CLI_EVENT_CANCEL_DATA()
  1: 0x04C6 [0x6E] LocalPlayer uses emote 41*
  2: 0x04CD [0x99] Wait for LocalPlayer animation to complete
  3: 0x04D2 [0x99] Wait for LocalPlayer animation to complete
  4: 0x04D7 [0x03] Work_Zone[9] = 605*
  5: 0x04DC [0x02] IF !(Work_Zone[4] == 0*) GOTO 0x0514
  6: 0x04E4 [0x02] IF !(Work_Zone[3] == 0*) GOTO 0x0500
  7: 0x04EC [0x02] IF !(Work_Zone[2] == 0*) GOTO 0x04FA
  8: 0x04F4 [0x48] [System] [7339*]:
    → "You are unable to mine anything."
  9: 0x04F7 [0x01] GOTO 0x04FD
 10: 0x04FA [0x48] [System] [7337*]:
    → "Obtained key item: 3!"

SUBROUTINE_04FD:
 11: 0x04FD [0x01] GOTO 0x0511
 12: 0x0500 [0x02] IF !(Work_Zone[2] == 0*) GOTO 0x050E
 13: 0x0508 [0x48] [System] [7336*]:
    → "Your $7 breaks!"
 14: 0x050B [0x01] GOTO 0x0511
 15: 0x050E [0x48] [System] [7338*]:
    → "You dig up $0, but your $7 breaks in the process."

SUBROUTINE_0511:
 16: 0x0511 [0x01] GOTO 0x0517
 17: 0x0514 [0x48] [System] [7340*]:
    → "You cannot carry any more items. Your inventory is full."

SUBROUTINE_0517:
 18: 0x0517 [0x21] END_EVENT
 19: 0x0518 [0x00] END_REQSTACK()
```

### Event 13

#### Metadata

| Field        | Value    |
|--------------|----------|
| Entrypoint   | 0x0519   |
| Data Size    | 12 bytes |
| Instructions | 6        |

```
      00 01 02 03 04 05 06 07  08 09 0A 0B 0C 0D 0E 0F
      -- -- -- -- -- -- -- --  -- -- -- -- -- -- -- --
0510:                             42 03 09 10 69 80 48           B...i.H
0520: 6A 80 23 21 00                                    j.#!.           
```

#### Opcodes

```
  0: 0x0519 [0x42] SET_CLI_EVENT_CANCEL_DATA()
  1: 0x051A [0x03] Work_Zone[9] = 876*
  2: 0x051F [0x48] [System] [7702*]:
    → "There are mushrooms growing here."
  3: 0x0522 [0x23] WAIT_FOR_DIALOG_INTERACTION
  4: 0x0523 [0x21] END_EVENT
  5: 0x0524 [0x00] END_REQSTACK()
```

### Event 14

#### Metadata

| Field        | Value    |
|--------------|----------|
| Entrypoint   | 0x0525   |
| Data Size    | 20 bytes |
| Instructions | 10       |

```
      00 01 02 03 04 05 06 07  08 09 0A 0B 0C 0D 0E 0F
      -- -- -- -- -- -- -- --  -- -- -- -- -- -- -- --
0520:                42 03 09  10 69 80 48 6A 80 23 48       B...i.Hj.#H
0530: 6B 80 23 48 6C 80 23 21  00                       k.#Hl.#!.       
```

#### Opcodes

```
  0: 0x0525 [0x42] SET_CLI_EVENT_CANCEL_DATA()
  1: 0x0526 [0x03] Work_Zone[9] = 876*
  2: 0x052B [0x48] [System] [7702*]:
    → "There are mushrooms growing here."
  3: 0x052E [0x23] WAIT_FOR_DIALOG_INTERACTION
  4: 0x052F [0x48] [System] [7703*]:
    → "You find a $3!"
  5: 0x0532 [0x23] WAIT_FOR_DIALOG_INTERACTION
  6: 0x0533 [0x48] [System] [7704*]:
    → "You pick a mature $3."
  7: 0x0536 [0x23] WAIT_FOR_DIALOG_INTERACTION
  8: 0x0537 [0x21] END_EVENT
  9: 0x0538 [0x00] END_REQSTACK()
```

### Event 15

#### Metadata

| Field        | Value    |
|--------------|----------|
| Entrypoint   | 0x0539   |
| Data Size    | 12 bytes |
| Instructions | 6        |

```
      00 01 02 03 04 05 06 07  08 09 0A 0B 0C 0D 0E 0F
      -- -- -- -- -- -- -- --  -- -- -- -- -- -- -- --
0530:                             42 03 09 10 69 80 48           B...i.H
0540: 6D 80 23 21 00                                    m.#!.           
```

#### Opcodes

```
  0: 0x0539 [0x42] SET_CLI_EVENT_CANCEL_DATA()
  1: 0x053A [0x03] Work_Zone[9] = 876*
  2: 0x053F [0x48] [System] [7705*]:
    → "There is nothing left here to pick."
  3: 0x0542 [0x23] WAIT_FOR_DIALOG_INTERACTION
  4: 0x0543 [0x21] END_EVENT
  5: 0x0544 [0x00] END_REQSTACK()
```

### Event 16

#### Metadata

| Field        | Value    |
|--------------|----------|
| Entrypoint   | 0x0545   |
| Data Size    | 20 bytes |
| Instructions | 10       |

```
      00 01 02 03 04 05 06 07  08 09 0A 0B 0C 0D 0E 0F
      -- -- -- -- -- -- -- --  -- -- -- -- -- -- -- --
0540:                42 03 09  10 69 80 48 6A 80 23 48       B...i.Hj.#H
0550: 6B 80 23 48 6E 80 23 21  00                       k.#Hn.#!.       
```

#### Opcodes

```
  0: 0x0545 [0x42] SET_CLI_EVENT_CANCEL_DATA()
  1: 0x0546 [0x03] Work_Zone[9] = 876*
  2: 0x054B [0x48] [System] [7702*]:
    → "There are mushrooms growing here."
  3: 0x054E [0x23] WAIT_FOR_DIALOG_INTERACTION
  4: 0x054F [0x48] [System] [7703*]:
    → "You find a $3!"
  5: 0x0552 [0x23] WAIT_FOR_DIALOG_INTERACTION
  6: 0x0553 [0x48] [System] [7706*]:
    → "You no longer need a $3."
  7: 0x0556 [0x23] WAIT_FOR_DIALOG_INTERACTION
  8: 0x0557 [0x21] END_EVENT
  9: 0x0558 [0x00] END_REQSTACK()
```

### Event 17

#### Metadata

| Field        | Value    |
|--------------|----------|
| Entrypoint   | 0x0559   |
| Data Size    | 53 bytes |
| Instructions | 16       |

```
      00 01 02 03 04 05 06 07  08 09 0A 0B 0C 0D 0E 0F
      -- -- -- -- -- -- -- --  -- -- -- -- -- -- -- --
0550:                             42 03 09 10 69 80 02           B...i..
0560: 02 10 06 80 80 6E 05 48  6F 80 23 01 8C 05 02 02  .....n.Ho.#.....
0570: 10 47 80 80 7D 05 48 6F  80 23 01 8C 05 02 02 10  .G..}.Ho.#......
0580: 48 80 80 8C 05 48 70 80  23 01 8C 05 21 00        H....Hp.#...!.  
```

#### Opcodes

```
  0: 0x0559 [0x42] SET_CLI_EVENT_CANCEL_DATA()
  1: 0x055A [0x03] Work_Zone[9] = 876*
  2: 0x055F [0x02] IF !(Work_Zone[2] == 0*) GOTO 0x056E
  3: 0x0567 [0x48] [System] [7707*]:
    → "There is a sparse patch of mushrooms growing here."
  4: 0x056A [0x23] WAIT_FOR_DIALOG_INTERACTION
  5: 0x056B [0x01] GOTO 0x058C
  6: 0x056E [0x02] IF !(Work_Zone[2] == 1*) GOTO 0x057D
  7: 0x0576 [0x48] [System] [7707*]:
    → "There is a sparse patch of mushrooms growing here."
  8: 0x0579 [0x23] WAIT_FOR_DIALOG_INTERACTION
  9: 0x057A [0x01] GOTO 0x058C
 10: 0x057D [0x02] IF !(Work_Zone[2] == 2*) GOTO 0x058C
 11: 0x0585 [0x48] [System] [7708*]:
    → "There is a dense patch of mushrooms growing here."
 12: 0x0588 [0x23] WAIT_FOR_DIALOG_INTERACTION
 13: 0x0589 [0x01] GOTO 0x058C

SUBROUTINE_058C:
 14: 0x058C [0x21] END_EVENT
 15: 0x058D [0x00] END_REQSTACK()
```

### Event 18

#### Metadata

| Field        | Value    |
|--------------|----------|
| Entrypoint   | 0x058E   |
| Data Size    | 65 bytes |
| Instructions | 22       |

```
      00 01 02 03 04 05 06 07  08 09 0A 0B 0C 0D 0E 0F
      -- -- -- -- -- -- -- --  -- -- -- -- -- -- -- --
0580:                                            42 03                B.
0590: 09 10 69 80 02 02 10 06  80 80 A7 05 48 6F 80 23  ..i.........Ho.#
05A0: 48 71 80 23 01 CD 05 02  02 10 47 80 80 BA 05 48  Hq.#......G....H
05B0: 6F 80 23 48 71 80 23 01  CD 05 02 02 10 48 80 80  o.#Hq.#......H..
05C0: CD 05 48 70 80 23 48 71  80 23 01 CD 05 21 00     ..Hp.#Hq.#...!. 
```

#### Opcodes

```
  0: 0x058E [0x42] SET_CLI_EVENT_CANCEL_DATA()
  1: 0x058F [0x03] Work_Zone[9] = 876*
  2: 0x0594 [0x02] IF !(Work_Zone[2] == 0*) GOTO 0x05A7
  3: 0x059C [0x48] [System] [7707*]:
    → "There is a sparse patch of mushrooms growing here."
  4: 0x059F [0x23] WAIT_FOR_DIALOG_INTERACTION
  5: 0x05A0 [0x48] [System] [7709*]:
    → "However, you were unable to find a $3."
  6: 0x05A3 [0x23] WAIT_FOR_DIALOG_INTERACTION
  7: 0x05A4 [0x01] GOTO 0x05CD
  8: 0x05A7 [0x02] IF !(Work_Zone[2] == 1*) GOTO 0x05BA
  9: 0x05AF [0x48] [System] [7707*]:
    → "There is a sparse patch of mushrooms growing here."
 10: 0x05B2 [0x23] WAIT_FOR_DIALOG_INTERACTION
 11: 0x05B3 [0x48] [System] [7709*]:
    → "However, you were unable to find a $3."
 12: 0x05B6 [0x23] WAIT_FOR_DIALOG_INTERACTION
 13: 0x05B7 [0x01] GOTO 0x05CD
 14: 0x05BA [0x02] IF !(Work_Zone[2] == 2*) GOTO 0x05CD
 15: 0x05C2 [0x48] [System] [7708*]:
    → "There is a dense patch of mushrooms growing here."
 16: 0x05C5 [0x23] WAIT_FOR_DIALOG_INTERACTION
 17: 0x05C6 [0x48] [System] [7709*]:
    → "However, you were unable to find a $3."
 18: 0x05C9 [0x23] WAIT_FOR_DIALOG_INTERACTION
 19: 0x05CA [0x01] GOTO 0x05CD

SUBROUTINE_05CD:
 20: 0x05CD [0x21] END_EVENT
 21: 0x05CE [0x00] END_REQSTACK()
```

### Event 19

#### Metadata

| Field        | Value    |
|--------------|----------|
| Entrypoint   | 0x05CF   |
| Data Size    | 97 bytes |
| Instructions | 26       |

```
      00 01 02 03 04 05 06 07  08 09 0A 0B 0C 0D 0E 0F
      -- -- -- -- -- -- -- --  -- -- -- -- -- -- -- --
05C0:                                               42                 B
05D0: 03 09 10 69 80 02 02 10  06 80 80 E4 05 48 6F 80  ...i.........Ho.
05E0: 23 01 02 06 02 02 10 47  80 80 F3 05 48 6F 80 23  #......G....Ho.#
05F0: 01 02 06 02 02 10 48 80  80 02 06 48 70 80 23 01  ......H....Hp.#.
0600: 02 06 24 72 80 06 80 06  80 25 02 00 10 06 80 00  ..$r.....%......
0610: 1E 06 48 73 80 23 03 01  10 06 80 01 2E 06 02 00  ..Hs.#..........
0620: 10 47 80 00 2E 06 03 01  10 47 80 01 2E 06 21 00  .G.......G....!.
```

#### Opcodes

```
  0: 0x05CF [0x42] SET_CLI_EVENT_CANCEL_DATA()
  1: 0x05D0 [0x03] Work_Zone[9] = 876*
  2: 0x05D5 [0x02] IF !(Work_Zone[2] == 0*) GOTO 0x05E4
  3: 0x05DD [0x48] [System] [7707*]:
    → "There is a sparse patch of mushrooms growing here."
  4: 0x05E0 [0x23] WAIT_FOR_DIALOG_INTERACTION
  5: 0x05E1 [0x01] GOTO 0x0602
  6: 0x05E4 [0x02] IF !(Work_Zone[2] == 1*) GOTO 0x05F3
  7: 0x05EC [0x48] [System] [7707*]:
    → "There is a sparse patch of mushrooms growing here."
  8: 0x05EF [0x23] WAIT_FOR_DIALOG_INTERACTION
  9: 0x05F0 [0x01] GOTO 0x0602
 10: 0x05F3 [0x02] IF !(Work_Zone[2] == 2*) GOTO 0x0602
 11: 0x05FB [0x48] [System] [7708*]:
    → "There is a dense patch of mushrooms growing here."
 12: 0x05FE [0x23] WAIT_FOR_DIALOG_INTERACTION
 13: 0x05FF [0x01] GOTO 0x0602

SUBROUTINE_0602:
 14: 0x0602 [0x24] CREATE_DIALOG(message_id=7711*, default_option=0*, option_flags=0*)
    → "Plant the mushroom here? [Yes, here./No, not here.]"
 15: 0x0609 [0x25] WAIT_DIALOG_SELECT()
 16: 0x060A [0x02] IF !(Work_Zone[0] == 0*) GOTO 0x061E
 17: 0x0612 [0x48] [System] [7712*]:
    → "You gently plant the $3 in the soil."
 18: 0x0615 [0x23] WAIT_FOR_DIALOG_INTERACTION
 19: 0x0616 [0x03] Work_Zone[1] = 0*
 20: 0x061B [0x01] GOTO 0x062E
 21: 0x061E [0x02] IF !(Work_Zone[0] == 1*) GOTO 0x062E
 22: 0x0626 [0x03] Work_Zone[1] = 1*
 23: 0x062B [0x01] GOTO 0x062E

SUBROUTINE_062E:
 24: 0x062E [0x21] END_EVENT
 25: 0x062F [0x00] END_REQSTACK()
```

### Event 20

#### Metadata

| Field        | Value    |
|--------------|----------|
| Entrypoint   | 0x0630   |
| Data Size    | 11 bytes |
| Instructions | 5        |

```
      00 01 02 03 04 05 06 07  08 09 0A 0B 0C 0D 0E 0F
      -- -- -- -- -- -- -- --  -- -- -- -- -- -- -- --
0630: 03 09 10 69 80 48 74 80  23 21 00                 ...i.Ht.#!.     
```

#### Opcodes

```
  0: 0x0630 [0x03] Work_Zone[9] = 876*
  1: 0x0635 [0x48] [System] [7713*]:
    → "You don't see any new sprouts yet."
  2: 0x0638 [0x23] WAIT_FOR_DIALOG_INTERACTION
  3: 0x0639 [0x21] END_EVENT
  4: 0x063A [0x00] END_REQSTACK()
```

### Event 21

#### Metadata

| Field        | Value     |
|--------------|-----------|
| Entrypoint   | 0x063B    |
| Data Size    | 500 bytes |
| Instructions | 123       |

```
      00 01 02 03 04 05 06 07  08 09 0A 0B 0C 0D 0E 0F
      -- -- -- -- -- -- -- --  -- -- -- -- -- -- -- --
0630:                                   42 03 04 00 03             B....
0640: 10 03 03 00 05 10 03 09  10 69 80 02 02 10 06 80  .........i......
0650: 80 C7 06 48 6F 80 23 48  75 80 23 48 76 80 23 24  ...Ho.#Hu.#Hv.#$
0660: 77 80 06 80 06 80 25 02  00 10 06 80 00 B4 06 48  w.....%........H
0670: 78 80 23 0B 04 00 02 03  00 79 80 04 92 06 02 03  x.#......y......
0680: 00 46 80 05 92 06 48 7A  80 23 0B 04 00 03 03 10  .F....Hz.#......
0690: 04 00 03 03 10 04 00 02  04 00 46 80 02 B1 06 03  ..........F.....
06A0: 04 00 46 80 03 03 10 04  00 48 7B 80 23 48 7C 80  ..F......H{.#H|.
06B0: 23 01 C4 06 02 00 10 47  80 00 C4 06 03 04 00 7D  #......G.......}
06C0: 80 01 C4 06 01 BD 07 02  02 10 47 80 80 3E 07 48  ..........G..>.H
06D0: 6F 80 23 48 75 80 23 48  76 80 23 24 77 80 06 80  o.#Hu.#Hv.#$w...
06E0: 06 80 25 02 00 10 06 80  00 2B 07 48 78 80 23 0B  ..%......+.Hx.#.
06F0: 04 00 02 03 00 79 80 04  0E 07 02 03 00 46 80 05  .....y.......F..
0700: 0E 07 48 7A 80 23 0B 04  00 03 03 10 04 00 02 04  ..Hz.#..........
0710: 00 46 80 02 28 07 03 04  00 46 80 03 03 10 04 00  .F..(....F......
0720: 48 7B 80 23 48 7C 80 23  01 3B 07 02 00 10 47 80  H{.#H|.#.;....G.
0730: 00 3B 07 03 04 00 7D 80  01 3B 07 01 BD 07 02 02  .;....}..;......
0740: 10 48 80 80 BD 07 48 70  80 23 48 75 80 23 48 76  .H....Hp.#Hu.#Hv
0750: 80 23 24 77 80 06 80 06  80 25 02 00 10 06 80 00  .#$w.....%......
0760: AA 07 48 7E 80 23 0B 04  00 0B 04 00 02 03 00 79  ..H~.#.........y
0770: 80 04 83 07 02 03 00 46  80 05 83 07 48 7A 80 23  .......F....Hz.#
0780: 0B 04 00 03 03 10 04 00  02 04 00 46 80 02 A7 07  ...........F....
0790: 03 04 00 46 80 03 03 10  04 00 48 7B 80 23 48 7C  ...F......H{.#H|
07A0: 80 23 03 04 00 46 80 01  BA 07 02 00 10 47 80 00  .#...F.......G..
07B0: BA 07 03 04 00 7D 80 01  BA 07 01 BD 07 02 04 00  .....}..........
07C0: 06 80 80 CD 07 03 01 10  06 80 01 2D 08 02 04 00  ...........-....
07D0: 47 80 80 DD 07 03 01 10  47 80 01 2D 08 02 04 00  G.......G..-....
07E0: 48 80 80 ED 07 03 01 10  48 80 01 2D 08 02 04 00  H.......H..-....
07F0: 5E 80 80 FD 07 03 01 10  5E 80 01 2D 08 02 04 00  ^.......^..-....
0800: 79 80 80 0D 08 03 01 10  79 80 01 2D 08 02 04 00  y.......y..-....
0810: 46 80 80 1D 08 03 01 10  46 80 01 2D 08 02 04 00  F.......F..-....
0820: 7D 80 80 2D 08 03 01 10  7D 80 01 2D 08 21 00     }..-....}..-.!. 
```

#### Opcodes

```
  0: 0x063B [0x42] SET_CLI_EVENT_CANCEL_DATA()
  1: 0x063C [0x03] ExtData[1]->WorkLocal[4] = Work_Zone[3]
  2: 0x0641 [0x03] ExtData[1]->WorkLocal[3] = Work_Zone[5]
  3: 0x0646 [0x03] Work_Zone[9] = 876*
  4: 0x064B [0x02] IF !(Work_Zone[2] == 0*) GOTO 0x06C7
  5: 0x0653 [0x48] [System] [7707*]:
    → "There is a sparse patch of mushrooms growing here."
  6: 0x0656 [0x23] WAIT_FOR_DIALOG_INTERACTION
  7: 0x0657 [0x48] [System] [7714*]:
    → "You see a newly sprouted $3!"
  8: 0x065A [0x23] WAIT_FOR_DIALOG_INTERACTION
  9: 0x065B [0x48] [System] [7715*]:
    → "Harvest the sprouts?"
 10: 0x065E [0x23] WAIT_FOR_DIALOG_INTERACTION
 11: 0x065F [0x24] CREATE_DIALOG(message_id=7716*, default_option=0*, option_flags=0*)
    → "Harvest the sprouts? [Harvest away./Not yet.]"
 12: 0x0666 [0x25] WAIT_DIALOG_SELECT()
 13: 0x0667 [0x02] IF !(Work_Zone[0] == 0*) GOTO 0x06B4
 14: 0x066F [0x48] [System] [7717*]:
    → "You harvest 1 sprout!"
 15: 0x0672 [0x23] WAIT_FOR_DIALOG_INTERACTION
 16: 0x0673 [0x0B] ExtData[1]->WorkLocal[4]++
 17: 0x0676 [0x02] IF !(ExtData[1]->WorkLocal[3] < 4*) GOTO 0x0692
 18: 0x067E [0x02] IF !(ExtData[1]->WorkLocal[3] > 5*) GOTO 0x0692
 19: 0x0686 [0x48] [System] [7719*]:
    → "You find an extra hidden sprout!"
 20: 0x0689 [0x23] WAIT_FOR_DIALOG_INTERACTION
 21: 0x068A [0x0B] ExtData[1]->WorkLocal[4]++
 22: 0x068D [0x03] Work_Zone[3] = ExtData[1]->WorkLocal[4]
 23: 0x0692 [0x03] Work_Zone[3] = ExtData[1]->WorkLocal[4]
 24: 0x0697 [0x02] IF !(ExtData[1]->WorkLocal[4] <= 5*) GOTO 0x06B1
 25: 0x069F [0x03] ExtData[1]->WorkLocal[4] = 5*
 26: 0x06A4 [0x03] Work_Zone[3] = ExtData[1]->WorkLocal[4]
 27: 0x06A9 [0x48] [System] [7721*]:
    → "However, you cannot carry any more sprouts."
 28: 0x06AC [0x23] WAIT_FOR_DIALOG_INTERACTION
 29: 0x06AD [0x48] [System] [7722*]:
    → "You pick a total of $1 [sprout/sprouts]!"
 30: 0x06B0 [0x23] WAIT_FOR_DIALOG_INTERACTION
 31: 0x06B1 [0x01] GOTO 0x06C4
 32: 0x06B4 [0x02] IF !(Work_Zone[0] == 1*) GOTO 0x06C4
 33: 0x06BC [0x03] ExtData[1]->WorkLocal[4] = 100*
 34: 0x06C1 [0x01] GOTO 0x06C4

SUBROUTINE_06C4:
 35: 0x06C4 [0x01] GOTO 0x07BD
 36: 0x06C7 [0x02] IF !(Work_Zone[2] == 1*) GOTO 0x073E
 37: 0x06CF [0x48] [System] [7707*]:
    → "There is a sparse patch of mushrooms growing here."
 38: 0x06D2 [0x23] WAIT_FOR_DIALOG_INTERACTION
 39: 0x06D3 [0x48] [System] [7714*]:
    → "You see a newly sprouted $3!"
 40: 0x06D6 [0x23] WAIT_FOR_DIALOG_INTERACTION
 41: 0x06D7 [0x48] [System] [7715*]:
    → "Harvest the sprouts?"
 42: 0x06DA [0x23] WAIT_FOR_DIALOG_INTERACTION
 43: 0x06DB [0x24] CREATE_DIALOG(message_id=7716*, default_option=0*, option_flags=0*)
    → "Harvest the sprouts? [Harvest away./Not yet.]"
 44: 0x06E2 [0x25] WAIT_DIALOG_SELECT()
 45: 0x06E3 [0x02] IF !(Work_Zone[0] == 0*) GOTO 0x072B
 46: 0x06EB [0x48] [System] [7717*]:
    → "You harvest 1 sprout!"
 47: 0x06EE [0x23] WAIT_FOR_DIALOG_INTERACTION
 48: 0x06EF [0x0B] ExtData[1]->WorkLocal[4]++
 49: 0x06F2 [0x02] IF !(ExtData[1]->WorkLocal[3] < 4*) GOTO 0x070E
 50: 0x06FA [0x02] IF !(ExtData[1]->WorkLocal[3] > 5*) GOTO 0x070E
 51: 0x0702 [0x48] [System] [7719*]:
    → "You find an extra hidden sprout!"
 52: 0x0705 [0x23] WAIT_FOR_DIALOG_INTERACTION
 53: 0x0706 [0x0B] ExtData[1]->WorkLocal[4]++
 54: 0x0709 [0x03] Work_Zone[3] = ExtData[1]->WorkLocal[4]
 55: 0x070E [0x02] IF !(ExtData[1]->WorkLocal[4] <= 5*) GOTO 0x0728
 56: 0x0716 [0x03] ExtData[1]->WorkLocal[4] = 5*
 57: 0x071B [0x03] Work_Zone[3] = ExtData[1]->WorkLocal[4]
 58: 0x0720 [0x48] [System] [7721*]:
    → "However, you cannot carry any more sprouts."
 59: 0x0723 [0x23] WAIT_FOR_DIALOG_INTERACTION
 60: 0x0724 [0x48] [System] [7722*]:
    → "You pick a total of $1 [sprout/sprouts]!"
 61: 0x0727 [0x23] WAIT_FOR_DIALOG_INTERACTION
 62: 0x0728 [0x01] GOTO 0x073B
 63: 0x072B [0x02] IF !(Work_Zone[0] == 1*) GOTO 0x073B
 64: 0x0733 [0x03] ExtData[1]->WorkLocal[4] = 100*
 65: 0x0738 [0x01] GOTO 0x073B

SUBROUTINE_073B:
 66: 0x073B [0x01] GOTO 0x07BD
 67: 0x073E [0x02] IF !(Work_Zone[2] == 2*) GOTO 0x07BD
 68: 0x0746 [0x48] [System] [7708*]:
    → "There is a dense patch of mushrooms growing here."
 69: 0x0749 [0x23] WAIT_FOR_DIALOG_INTERACTION
 70: 0x074A [0x48] [System] [7714*]:
    → "You see a newly sprouted $3!"
 71: 0x074D [0x23] WAIT_FOR_DIALOG_INTERACTION
 72: 0x074E [0x48] [System] [7715*]:
    → "Harvest the sprouts?"
 73: 0x0751 [0x23] WAIT_FOR_DIALOG_INTERACTION
 74: 0x0752 [0x24] CREATE_DIALOG(message_id=7716*, default_option=0*, option_flags=0*)
    → "Harvest the sprouts? [Harvest away./Not yet.]"
 75: 0x0759 [0x25] WAIT_DIALOG_SELECT()
 76: 0x075A [0x02] IF !(Work_Zone[0] == 0*) GOTO 0x07AA
 77: 0x0762 [0x48] [System] [7718*]:
    → "You harvest 2 sprouts!"
 78: 0x0765 [0x23] WAIT_FOR_DIALOG_INTERACTION
 79: 0x0766 [0x0B] ExtData[1]->WorkLocal[4]++
 80: 0x0769 [0x0B] ExtData[1]->WorkLocal[4]++
 81: 0x076C [0x02] IF !(ExtData[1]->WorkLocal[3] < 4*) GOTO 0x0783
 82: 0x0774 [0x02] IF !(ExtData[1]->WorkLocal[3] > 5*) GOTO 0x0783
 83: 0x077C [0x48] [System] [7719*]:
    → "You find an extra hidden sprout!"
 84: 0x077F [0x23] WAIT_FOR_DIALOG_INTERACTION
 85: 0x0780 [0x0B] ExtData[1]->WorkLocal[4]++
 86: 0x0783 [0x03] Work_Zone[3] = ExtData[1]->WorkLocal[4]
 87: 0x0788 [0x02] IF !(ExtData[1]->WorkLocal[4] <= 5*) GOTO 0x07A7
 88: 0x0790 [0x03] ExtData[1]->WorkLocal[4] = 5*
 89: 0x0795 [0x03] Work_Zone[3] = ExtData[1]->WorkLocal[4]
 90: 0x079A [0x48] [System] [7721*]:
    → "However, you cannot carry any more sprouts."
 91: 0x079D [0x23] WAIT_FOR_DIALOG_INTERACTION
 92: 0x079E [0x48] [System] [7722*]:
    → "You pick a total of $1 [sprout/sprouts]!"
 93: 0x07A1 [0x23] WAIT_FOR_DIALOG_INTERACTION
 94: 0x07A2 [0x03] ExtData[1]->WorkLocal[4] = 5*
 95: 0x07A7 [0x01] GOTO 0x07BA
 96: 0x07AA [0x02] IF !(Work_Zone[0] == 1*) GOTO 0x07BA
 97: 0x07B2 [0x03] ExtData[1]->WorkLocal[4] = 100*
 98: 0x07B7 [0x01] GOTO 0x07BA

SUBROUTINE_07BA:
 99: 0x07BA [0x01] GOTO 0x07BD

SUBROUTINE_07BD:
100: 0x07BD [0x02] IF !(ExtData[1]->WorkLocal[4] == 0*) GOTO 0x07CD
101: 0x07C5 [0x03] Work_Zone[1] = 0*
102: 0x07CA [0x01] GOTO 0x082D
103: 0x07CD [0x02] IF !(ExtData[1]->WorkLocal[4] == 1*) GOTO 0x07DD
104: 0x07D5 [0x03] Work_Zone[1] = 1*
105: 0x07DA [0x01] GOTO 0x082D
106: 0x07DD [0x02] IF !(ExtData[1]->WorkLocal[4] == 2*) GOTO 0x07ED
107: 0x07E5 [0x03] Work_Zone[1] = 2*
108: 0x07EA [0x01] GOTO 0x082D
109: 0x07ED [0x02] IF !(ExtData[1]->WorkLocal[4] == 3*) GOTO 0x07FD
110: 0x07F5 [0x03] Work_Zone[1] = 3*
111: 0x07FA [0x01] GOTO 0x082D
112: 0x07FD [0x02] IF !(ExtData[1]->WorkLocal[4] == 4*) GOTO 0x080D
113: 0x0805 [0x03] Work_Zone[1] = 4*
114: 0x080A [0x01] GOTO 0x082D
115: 0x080D [0x02] IF !(ExtData[1]->WorkLocal[4] == 5*) GOTO 0x081D
116: 0x0815 [0x03] Work_Zone[1] = 5*
117: 0x081A [0x01] GOTO 0x082D
118: 0x081D [0x02] IF !(ExtData[1]->WorkLocal[4] == 100*) GOTO 0x082D
119: 0x0825 [0x03] Work_Zone[1] = 100*
120: 0x082A [0x01] GOTO 0x082D

SUBROUTINE_082D:
121: 0x082D [0x21] END_EVENT
122: 0x082E [0x00] END_REQSTACK()
```

### Event 65535.24

#### Metadata

| Field        | Value   |
|--------------|---------|
| Entrypoint   | 0x082F  |
| Data Size    | 4 bytes |
| Instructions | 2       |

```
      00 01 02 03 04 05 06 07  08 09 0A 0B 0C 0D 0E 0F
      -- -- -- -- -- -- -- --  -- -- -- -- -- -- -- --
0820:                                               1C                 .
0830: 02 10 00                                          ...             
```

#### Opcodes

```
  0: 0x082F [0x1C] WAIT(Work_Zone[2] ticks)
  1: 0x0832 [0x00] END_REQSTACK()
```

### Event 65535.25

#### Metadata

| Field        | Value   |
|--------------|---------|
| Entrypoint   | 0x0833  |
| Data Size    | 6 bytes |
| Instructions | 2       |

```
      00 01 02 03 04 05 06 07  08 09 0A 0B 0C 0D 0E 0F
      -- -- -- -- -- -- -- --  -- -- -- -- -- -- -- --
0830:          03 09 10 07 7F  00                          ......       
```

#### Opcodes

```
  0: 0x0833 [0x03] Work_Zone[9] = Entity->Race
  1: 0x0838 [0x00] END_REQSTACK()
```

### Event 65535.26

#### Metadata

| Field        | Value    |
|--------------|----------|
| Entrypoint   | 0x0839   |
| Data Size    | 15 bytes |
| Instructions | 5        |

```
      00 01 02 03 04 05 06 07  08 09 0A 0B 0C 0D 0E 0F
      -- -- -- -- -- -- -- --  -- -- -- -- -- -- -- --
0830:                             32 42 80 1F 00 7F 80           2B.....
0840: 80 80 81 80 1F 01 6F 00                           ......o.        
```

#### Opcodes

```
  0: 0x0839 [0x32] ExtData[1]->MainSpeed = 13* * 0.1
  1: 0x083C [0x1F] MOVE_ENTITY: EventEntity moves to X=64.172*, Z=109.793*, Y=39.371*
  2: 0x0844 [0x1F] MOVE_ENTITY: Update entity position (mode=1)
  3: 0x0846 [0x6F] WAIT_FRAME_DELAY: Yield until WaitTime reaches zero
  4: 0x0847 [0x00] END_REQSTACK()
```

### Event 65535.27

#### Metadata

| Field        | Value    |
|--------------|----------|
| Entrypoint   | 0x0848   |
| Data Size    | 15 bytes |
| Instructions | 5        |

```
      00 01 02 03 04 05 06 07  08 09 0A 0B 0C 0D 0E 0F
      -- -- -- -- -- -- -- --  -- -- -- -- -- -- -- --
0840:                          32 42 80 1F 00 82 80 83          2B......
0850: 80 84 80 1F 01 6F 00                              .....o.         
```

#### Opcodes

```
  0: 0x0848 [0x32] ExtData[1]->MainSpeed = 13* * 0.1
  1: 0x084B [0x1F] MOVE_ENTITY: EventEntity moves to X=-328.710*, Z=-23.938*, Y=35.112*
  2: 0x0853 [0x1F] MOVE_ENTITY: Update entity position (mode=1)
  3: 0x0855 [0x6F] WAIT_FRAME_DELAY: Yield until WaitTime reaches zero
  4: 0x0856 [0x00] END_REQSTACK()
```

### Event 65535.28

#### Metadata

| Field        | Value    |
|--------------|----------|
| Entrypoint   | 0x0857   |
| Data Size    | 14 bytes |
| Instructions | 4        |

```
      00 01 02 03 04 05 06 07  08 09 0A 0B 0C 0D 0E 0F
      -- -- -- -- -- -- -- --  -- -- -- -- -- -- -- --
0850:                      32  42 80 5A 00 85 80 86 80         2B.Z.....
0860: 87 80 5A 01 00                                    ..Z..           
```

#### Opcodes

```
  0: 0x0857 [0x32] ExtData[1]->MainSpeed = 13* * 0.1
  1: 0x085A [0x5A] UPDATE_EVENT_POSITION: Set EventEntity MovePosition to X=-390.435*, Z=-439.784*, Y=12.452*
  2: 0x0862 [0x5A] UPDATE_EVENT_POSITION: Move EventEntity incrementally towards MovePosition
  3: 0x0864 [0x00] END_REQSTACK()
```

### Event 65535.29

#### Metadata

| Field        | Value    |
|--------------|----------|
| Entrypoint   | 0x0865   |
| Data Size    | 27 bytes |
| Instructions | 7        |

```
      00 01 02 03 04 05 06 07  08 09 0A 0B 0C 0D 0E 0F
      -- -- -- -- -- -- -- --  -- -- -- -- -- -- -- --
0860:                32 88 80  1F 00 89 80 8A 80 8B 80       2..........
0870: 1F 01 4B F8 FF FF 7F 8C  80 6F 76 F8 FF FF 7F 00  ..K......ov.....
```

#### Opcodes

```
  0: 0x0865 [0x32] ExtData[1]->MainSpeed = 40* * 0.1
  1: 0x0868 [0x1F] MOVE_ENTITY: EventEntity moves to X=-389.827*, Z=-442.366*, Y=12.493*
  2: 0x0870 [0x1F] MOVE_ENTITY: Update entity position (mode=1)
  3: 0x0872 [0x4B] UPDATE_ENTITY_YAW(entity=EventEntity, yaw=16.5°*)
  4: 0x0879 [0x6F] WAIT_FRAME_DELAY: Yield until WaitTime reaches zero
  5: 0x087A [0x76] CHECK_ENTITY_RENDER_FLAGS: Wait until EventEntity Render.Flags0 and Render.Flags3 conditions are met
  6: 0x087F [0x00] END_REQSTACK()
```

### Event 65535.30

#### Metadata

| Field        | Value    |
|--------------|----------|
| Entrypoint   | 0x0880   |
| Data Size    | 24 bytes |
| Instructions | 8        |

```
      00 01 02 03 04 05 06 07  08 09 0A 0B 0C 0D 0E 0F
      -- -- -- -- -- -- -- --  -- -- -- -- -- -- -- --
0880: 32 88 80 1F 00 8D 80 8E  80 8F 80 1F 01 6F 1C 47  2............o.G
0890: 80 AB 03 AC 01 47 80 00                           .....G..        
```

#### Opcodes

```
  0: 0x0880 [0x32] ExtData[1]->MainSpeed = 40* * 0.1
  1: 0x0883 [0x1F] MOVE_ENTITY: EventEntity moves to X=-379.425*, Z=-439.713*, Y=14.915*
  2: 0x088B [0x1F] MOVE_ENTITY: Update entity position (mode=1)
  3: 0x088D [0x6F] WAIT_FRAME_DELAY: Yield until WaitTime reaches zero
  4: 0x088E [0x1C] WAIT(1* ticks)
  5: 0x0891 [0xAB] EventEntity->Render.Flags0 ^= 0x20000 // Toggle bit 17
  6: 0x0893 [0xAC] EventEntity->StatusEvent = 1*
  7: 0x0897 [0x00] END_REQSTACK()
```

### Event 65535.31

#### Metadata

| Field        | Value    |
|--------------|----------|
| Entrypoint   | 0x0898   |
| Data Size    | 15 bytes |
| Instructions | 5        |

```
      00 01 02 03 04 05 06 07  08 09 0A 0B 0C 0D 0E 0F
      -- -- -- -- -- -- -- --  -- -- -- -- -- -- -- --
0890:                          32 42 80 1F 00 90 80 91          2B......
08A0: 80 92 80 1F 01 6F 00                              .....o.         
```

#### Opcodes

```
  0: 0x0898 [0x32] ExtData[1]->MainSpeed = 13* * 0.1
  1: 0x089B [0x1F] MOVE_ENTITY: EventEntity moves to X=-376.977*, Z=-438.856*, Y=14.817*
  2: 0x08A3 [0x1F] MOVE_ENTITY: Update entity position (mode=1)
  3: 0x08A5 [0x6F] WAIT_FRAME_DELAY: Yield until WaitTime reaches zero
  4: 0x08A6 [0x00] END_REQSTACK()
```

### Event 65535.32

#### Metadata

| Field        | Value   |
|--------------|---------|
| Entrypoint   | 0x08A7  |
| Data Size    | 7 bytes |
| Instructions | 3       |

```
      00 01 02 03 04 05 06 07  08 09 0A 0B 0C 0D 0E 0F
      -- -- -- -- -- -- -- --  -- -- -- -- -- -- -- --
08A0:                      AB  03 AC 01 47 80 00               ....G..  
```

#### Opcodes

```
  0: 0x08A7 [0xAB] EventEntity->Render.Flags0 ^= 0x20000 // Toggle bit 17
  1: 0x08A9 [0xAC] EventEntity->StatusEvent = 1*
  2: 0x08AD [0x00] END_REQSTACK()
```

### Event 65535.33

#### Metadata

| Field        | Value   |
|--------------|---------|
| Entrypoint   | 0x08AE  |
| Data Size    | 7 bytes |
| Instructions | 3       |

```
      00 01 02 03 04 05 06 07  08 09 0A 0B 0C 0D 0E 0F
      -- -- -- -- -- -- -- --  -- -- -- -- -- -- -- --
08A0:                                            AC 01                ..
08B0: 06 80 AB 04 00                                    .....           
```

#### Opcodes

```
  0: 0x08AE [0xAC] EventEntity->StatusEvent = 0*
  1: 0x08B2 [0xAB] EventEntity->Render.Flags0 |= 0x40000 // Set bit 18
  2: 0x08B4 [0x00] END_REQSTACK()
```
