# Event 65535

## Metadata

| Field           | Value    |
|-----------------|----------|
| Event Index     | 15/23    |
| Offset          | 0x023B   |
| Data Size       | 85 bytes |
| Calculated Size | 85 bytes |
| Instructions    | 9        |

```
      00 01 02 03 04 05 06 07  08 09 0A 0B 0C 0D 0E 0F
      -- -- -- -- -- -- -- --  -- -- -- -- -- -- -- --
0230:                                   5B 16 80 A6 23             [...#
0240: 05 01 A6 23 05 01 74 6C  32 30 1C 12 80 5B 16 80  ...#..tl20...[..
0250: A6 23 05 01 A6 23 05 01  74 6C 32 31 5B 10 80 A7  .#...#..tl21[...
0260: 23 05 01 A7 23 05 01 74  6C 33 30 1C 0A 80 5B 10  #...#..tl30...[.
0270: 80 A7 23 05 01 A7 23 05  01 74 6C 33 31 1C 01 80  ..#...#..tl31...
0280: 5B 14 80 AC 23 05 01 AC  23 05 01 74 6C 39 31 00  [...#...#..tl91.
```

## Opcodes

```
  0: 0x023B [0x5B] LOAD_EXT_SCHEDULER: Load scheduler "tl20" with entities [Cait Sith Dha (ID: 17114022/0x010523A6), Cait Sith Dha (ID: 17114022/0x010523A6)], work=2100*
  1: 0x024A [0x1C] WAIT(45* ticks)
  2: 0x024D [0x5B] LOAD_EXT_SCHEDULER: Load scheduler "tl21" with entities [Cait Sith Dha (ID: 17114022/0x010523A6), Cait Sith Dha (ID: 17114022/0x010523A6)], work=2100*
  3: 0x025C [0x5B] LOAD_EXT_SCHEDULER: Load scheduler "tl30" with entities [Cait Sith Tri (ID: 17114023/0x010523A7), Cait Sith Tri (ID: 17114023/0x010523A7)], work=1413*
  4: 0x026B [0x1C] WAIT(30* ticks)
  5: 0x026E [0x5B] LOAD_EXT_SCHEDULER: Load scheduler "tl31" with entities [Cait Sith Tri (ID: 17114023/0x010523A7), Cait Sith Tri (ID: 17114023/0x010523A7)], work=1413*
  6: 0x027D [0x1C] WAIT(60* ticks)
  7: 0x0280 [0x5B] LOAD_EXT_SCHEDULER: Load scheduler "tl91" with entities [Cait Sith Ochd (ID: 17114028/0x010523AC), Cait Sith Ochd (ID: 17114028/0x010523AC)], work=2099*
  8: 0x028F [0x00] END_REQSTACK()
```
