# Event 65535

## Metadata

| Field           | Value    |
|-----------------|----------|
| Event Index     | 12/23    |
| Offset          | 0x017B   |
| Data Size       | 61 bytes |
| Calculated Size | 61 bytes |
| Instructions    | 5        |

```
      00 01 02 03 04 05 06 07  08 09 0A 0B 0C 0D 0E 0F
      -- -- -- -- -- -- -- --  -- -- -- -- -- -- -- --
0170:                                   5B 10 80 AB 23             [...#
0180: 05 01 AB 23 05 01 63 6F  6E 34 5B 10 80 A5 23 05  ...#..con4[...#.
0190: 01 A5 23 05 01 63 6F 6E  35 5B 10 80 A7 23 05 01  ..#..con5[...#..
01A0: A7 23 05 01 63 6F 6E 33  5B 11 80 AA 23 05 01 AA  .#..con3[...#...
01B0: 23 05 01 73 69 61 30 00                           #..sia0.        
```

## Opcodes

```
  0: 0x017B [0x5B] LOAD_EXT_SCHEDULER(work_offset=1413*, entity1=Cait Sith Seachd (ID: 17114027/0x010523AB), entity2=Cait Sith Seachd (ID: 17114027/0x010523AB), action="con4")
  1: 0x018A [0x5B] LOAD_EXT_SCHEDULER(work_offset=1413*, entity1=Cait Sith Aon (ID: 17114021/0x010523A5), entity2=Cait Sith Aon (ID: 17114021/0x010523A5), action="con5")
  2: 0x0199 [0x5B] LOAD_EXT_SCHEDULER(work_offset=1413*, entity1=Cait Sith Tri (ID: 17114023/0x010523A7), entity2=Cait Sith Tri (ID: 17114023/0x010523A7), action="con3")
  3: 0x01A8 [0x5B] LOAD_EXT_SCHEDULER(work_offset=2472*, entity1=Cait Sith Sia (ID: 17114026/0x010523AA), entity2=Cait Sith Sia (ID: 17114026/0x010523AA), action="sia0")
  4: 0x01B7 [0x00] END_REQSTACK()
```
