# Event 65535

## Metadata

| Field           | Value    |
|-----------------|----------|
| Event Index     | 10/23    |
| Offset          | 0x0103   |
| Data Size       | 50 bytes |
| Calculated Size | 50 bytes |
| Instructions    | 8        |

```
      00 01 02 03 04 05 06 07  08 09 0A 0B 0C 0D 0E 0F
      -- -- -- -- -- -- -- --  -- -- -- -- -- -- -- --
0100:          27 10 AB 23 05  01 09 27 10 AC 23 05 01     '..#...'..#..
0110: 09 27 10 AA 23 05 01 09  27 10 A8 23 05 01 09 27  .'..#...'..#...'
0120: 10 A7 23 05 01 09 27 10  A6 23 05 01 09 27 10 A5  ..#...'..#...'..
0130: 23 05 01 0A 00                                    #....           
```

## Opcodes

```
  0: 0x0103 [0x27] REQ_SET(priority=0x10, entity_id=Cait Sith Seachd (ID: 17114027/0x010523AB), tag_num=0x09)
  1: 0x010A [0x27] REQ_SET(priority=0x10, entity_id=Cait Sith Ochd (ID: 17114028/0x010523AC), tag_num=0x09)
  2: 0x0111 [0x27] REQ_SET(priority=0x10, entity_id=Cait Sith Sia (ID: 17114026/0x010523AA), tag_num=0x09)
  3: 0x0118 [0x27] REQ_SET(priority=0x10, entity_id=Cait Sith Ceithir (ID: 17114024/0x010523A8), tag_num=0x09)
  4: 0x011F [0x27] REQ_SET(priority=0x10, entity_id=Cait Sith Tri (ID: 17114023/0x010523A7), tag_num=0x09)
  5: 0x0126 [0x27] REQ_SET(priority=0x10, entity_id=Cait Sith Dha (ID: 17114022/0x010523A6), tag_num=0x09)
  6: 0x012D [0x27] REQ_SET(priority=0x10, entity_id=Cait Sith Aon (ID: 17114021/0x010523A5), tag_num=0x0A)
  7: 0x0134 [0x00] END_REQSTACK()
```
