# Event 65535

## Metadata

| Field           | Value    |
|-----------------|----------|
| Event Index     | 13/23    |
| Offset          | 0x01B8   |
| Data Size       | 70 bytes |
| Calculated Size | 70 bytes |
| Instructions    | 8        |

```
      00 01 02 03 04 05 06 07  08 09 0A 0B 0C 0D 0E 0F
      -- -- -- -- -- -- -- --  -- -- -- -- -- -- -- --
01B0:                          5B 0F 80 A6 23 05 01 A6          [...#...
01C0: 23 05 01 63 6F 61 32 1C  12 80 5B 0F 80 A8 23 05  #..coa2...[...#.
01D0: 01 A8 23 05 01 63 6F 61  31 1C 13 80 5B 14 80 AC  ..#..coa1...[...
01E0: 23 05 01 AC 23 05 01 63  6F 61 39 1C 0A 80 5B 15  #...#..coa9...[.
01F0: 80 A9 23 05 01 A9 23 05  01 75 64 65 32 00        ..#...#..ude2.  
```

## Opcodes

```
  0: 0x01B8 [0x5B] LOAD_EXT_SCHEDULER(work_offset=2098*, entity1=Cait Sith Dha (ID: 17114022/0x010523A6), entity2=Cait Sith Dha (ID: 17114022/0x010523A6), action="coa2")
  1: 0x01C7 [0x1C] WAIT(45* ticks)
  2: 0x01CA [0x5B] LOAD_EXT_SCHEDULER(work_offset=2098*, entity1=Cait Sith Ceithir (ID: 17114024/0x010523A8), entity2=Cait Sith Ceithir (ID: 17114024/0x010523A8), action="coa1")
  3: 0x01D9 [0x1C] WAIT(90* ticks)
  4: 0x01DC [0x5B] LOAD_EXT_SCHEDULER(work_offset=2099*, entity1=Cait Sith Ochd (ID: 17114028/0x010523AC), entity2=Cait Sith Ochd (ID: 17114028/0x010523AC), action="coa9")
  5: 0x01EB [0x1C] WAIT(30* ticks)
  6: 0x01EE [0x5B] LOAD_EXT_SCHEDULER(work_offset=1412*, entity1=Cait Sith Coig (ID: 17114025/0x010523A9), entity2=Cait Sith Coig (ID: 17114025/0x010523A9), action="ude2")
  7: 0x01FD [0x00] END_REQSTACK()
```
