# Event 65535

## Metadata

| Field           | Value    |
|-----------------|----------|
| Event Index     | 11/23    |
| Offset          | 0x0135   |
| Data Size       | 70 bytes |
| Calculated Size | 70 bytes |
| Instructions    | 8        |

```
      00 01 02 03 04 05 06 07  08 09 0A 0B 0C 0D 0E 0F
      -- -- -- -- -- -- -- --  -- -- -- -- -- -- -- --
0130:                5B 0F 80  AB 23 05 01 AB 23 05 01       [...#...#..
0140: 63 6F 62 34 1C 0A 80 5B  0F 80 A7 23 05 01 A7 23  cob4...[...#...#
0150: 05 01 63 6F 61 33 1C 01  80 5B 0F 80 AA 23 05 01  ..coa3...[...#..
0160: AA 23 05 01 73 69 61 34  1C 0E 80 5B 0F 80 A5 23  .#..sia4...[...#
0170: 05 01 A5 23 05 01 63 6F  61 35 00                 ...#..coa5.     
```

## Opcodes

```
  0: 0x0135 [0x5B] LOAD_EXT_SCHEDULER(work_offset=2098*, entity1=Cait Sith Seachd (ID: 17114027/0x010523AB), entity2=Cait Sith Seachd (ID: 17114027/0x010523AB), action="cob4")
  1: 0x0144 [0x1C] WAIT(30* ticks)
  2: 0x0147 [0x5B] LOAD_EXT_SCHEDULER(work_offset=2098*, entity1=Cait Sith Tri (ID: 17114023/0x010523A7), entity2=Cait Sith Tri (ID: 17114023/0x010523A7), action="coa3")
  3: 0x0156 [0x1C] WAIT(60* ticks)
  4: 0x0159 [0x5B] LOAD_EXT_SCHEDULER(work_offset=2098*, entity1=Cait Sith Sia (ID: 17114026/0x010523AA), entity2=Cait Sith Sia (ID: 17114026/0x010523AA), action="sia4")
  5: 0x0168 [0x1C] WAIT(15* ticks)
  6: 0x016B [0x5B] LOAD_EXT_SCHEDULER(work_offset=2098*, entity1=Cait Sith Aon (ID: 17114021/0x010523A5), entity2=Cait Sith Aon (ID: 17114021/0x010523A5), action="coa5")
  7: 0x017A [0x00] END_REQSTACK()
```
