# Event 65535

## Metadata

| Field           | Value    |
|-----------------|----------|
| Event Index     | 14/23    |
| Offset          | 0x01FE   |
| Data Size       | 61 bytes |
| Calculated Size | 61 bytes |
| Instructions    | 5        |

```
      00 01 02 03 04 05 06 07  08 09 0A 0B 0C 0D 0E 0F
      -- -- -- -- -- -- -- --  -- -- -- -- -- -- -- --
01F0:                                            5B 10                [.
0200: 80 A8 23 05 01 A8 23 05  01 63 6F 6E 31 5B 14 80  ..#...#..con1[..
0210: AC 23 05 01 AC 23 05 01  63 6F 6E 39 5B 10 80 A6  .#...#..con9[...
0220: 23 05 01 A6 23 05 01 63  6F 6E 32 5B 15 80 A9 23  #...#..con2[...#
0230: 05 01 A9 23 05 01 75 64  65 6C 00                 ...#..udel.     
```

## Opcodes

```
  0: 0x01FE [0x5B] LOAD_EXT_SCHEDULER(work_offset=1413*, entity1=Cait Sith Ceithir (ID: 17114024/0x010523A8), entity2=Cait Sith Ceithir (ID: 17114024/0x010523A8), action="con1")
  1: 0x020D [0x5B] LOAD_EXT_SCHEDULER(work_offset=2099*, entity1=Cait Sith Ochd (ID: 17114028/0x010523AC), entity2=Cait Sith Ochd (ID: 17114028/0x010523AC), action="con9")
  2: 0x021C [0x5B] LOAD_EXT_SCHEDULER(work_offset=1413*, entity1=Cait Sith Dha (ID: 17114022/0x010523A6), entity2=Cait Sith Dha (ID: 17114022/0x010523A6), action="con2")
  3: 0x022B [0x5B] LOAD_EXT_SCHEDULER(work_offset=1412*, entity1=Cait Sith Coig (ID: 17114025/0x010523A9), entity2=Cait Sith Coig (ID: 17114025/0x010523A9), action="udel")
  4: 0x023A [0x00] END_REQSTACK()
```
