# Event 65535

## Metadata

| Field           | Value    |
|-----------------|----------|
| Event Index     | 8/23     |
| Offset          | 0x004A   |
| Data Size       | 64 bytes |
| Calculated Size | 64 bytes |
| Instructions    | 6        |

```
      00 01 02 03 04 05 06 07  08 09 0A 0B 0C 0D 0E 0F
      -- -- -- -- -- -- -- --  -- -- -- -- -- -- -- --
0040:                                5B 06 80 9F 23 05            [...#.
0050: 01 9F 23 05 01 66 69 30  30 1C 07 80 5B 06 80 9F  ..#..fi00...[...
0060: 23 05 01 9F 23 05 01 66  69 30 31 5B 08 80 9F 23  #...#..fi01[...#
0070: 05 01 9F 23 05 01 67 65  74 32 5B 09 80 A9 23 05  ...#..get2[...#.
0080: 01 A9 23 05 01 67 65 74  32 00                    ..#..get2.      
```

## Opcodes

```
  0: 0x004A [0x5B] LOAD_EXT_SCHEDULER: Load scheduler "fi00" with entities [Lilisette (ID: 17114015/0x0105239F), Lilisette (ID: 17114015/0x0105239F)], work=2135*
  1: 0x0059 [0x1C] WAIT(40* ticks)
  2: 0x005C [0x5B] LOAD_EXT_SCHEDULER: Load scheduler "fi01" with entities [Lilisette (ID: 17114015/0x0105239F), Lilisette (ID: 17114015/0x0105239F)], work=2135*
  3: 0x006B [0x5B] LOAD_EXT_SCHEDULER: Load scheduler "get2" with entities [Lilisette (ID: 17114015/0x0105239F), Lilisette (ID: 17114015/0x0105239F)], work=2248*
  4: 0x007A [0x5B] LOAD_EXT_SCHEDULER: Load scheduler "get2" with entities [Cait Sith Coig (ID: 17114025/0x010523A9), Cait Sith Coig (ID: 17114025/0x010523A9)], work=2468*
  5: 0x0089 [0x00] END_REQSTACK()
```
