# Event 65535

## Metadata

| Field           | Value    |
|-----------------|----------|
| Event Index     | 7/23     |
| Offset          | 0x0021   |
| Data Size       | 41 bytes |
| Calculated Size | 41 bytes |
| Instructions    | 7        |

```
      00 01 02 03 04 05 06 07  08 09 0A 0B 0C 0D 0E 0F
      -- -- -- -- -- -- -- --  -- -- -- -- -- -- -- --
0020:    C5 03 80 A9 23 05 01  A9 23 05 01 73 30 30 31   ....#...#..s001
0030: 04 80 06 00 00 02 00 00  05 80 03 46 00 1C 02 80  ...........F....
0040: 57 00 00 01 35 00 01 21  00 00                    W...5..!..      
```

## Opcodes

```
  0: 0x0021 [0xC5] LOAD_SCHEDULED_TASK_ALT3: Load scheduler 0x80043130 for entities [Cait Sith Coig (ID: 17114025/0x010523A9), Cait Sith Coig (ID: 17114025/0x010523A9)], work=37*, param=12403
  1: 0x0032 [0x06] ExtData[1]->WorkLocal[0] = 0
  2: 0x0035 [0x02] IF !(ExtData[1]->WorkLocal[0] >= 120*) GOTO 0x0046
  3: 0x003D [0x1C] WAIT(1* ticks)
  4: 0x0040 [0x57] CREATE_FRAME_DELAY(delay=ExtData[1]->WorkLocal[0])
  5: 0x0043 [0x01] GOTO 0x0035
  6: 0x0046 [0x01] GOTO 0x0021
```

## Data or dead code:

```
# Dead code (unreachable instructions):
     0x0049 [0x00] END_REQSTACK()
```