# Event 2515

## Metadata

| Field           | Value    |
|-----------------|----------|
| Event Index     | 5/5      |
| Offset          | 0x00BE   |
| Data Size       | 44 bytes |
| Calculated Size | 44 bytes |
| Instructions    | 10       |

```
      00 01 02 03 04 05 06 07  08 09 0A 0B 0C 0D 0E 0F
      -- -- -- -- -- -- -- --  -- -- -- -- -- -- -- --
00B0:                                            42 1E                B.
00C0: F0 FF FF 7F 6F 70 66 00  80 F8 FF FF 7F F8 FF FF  ....opf.........
00D0: 7F 74 6C 62 30 1D 0A 80  23 66 00 80 F8 FF FF 7F  .tlb0...#f......
00E0: F8 FF FF 7F 74 6C 62 31  21 00                    ....tlb1!.      
```

## Opcodes

```
  0: 0x00BE [0x42] SET_CLI_EVENT_CANCEL_DATA()
  1: 0x00BF [0x1E] EventEntity looks at LocalPlayer and starts talking
  2: 0x00C4 [0x6F] WAIT_FRAME_DELAY: Yield until WaitTime reaches zero
  3: 0x00C5 [0x70] WAIT_ENTITY_RENDER_FLAG: Wait while EventEntity->Render.Flags3 bit 2 is set (cancel turn if not)
  4: 0x00C6 [0x66] LOAD_EXT_SCHEDULER_MAIN(work_offset=13*, entity1=EventEntity, entity2=EventEntity, action="tlb0")
  5: 0x00D5 [0x1D] PRINT_EVENT_MESSAGE(message_id=7518*)
    → "I can't shake the feeling that there's something out there, waiting for us to make a misstep. When that time comes, we'll all be counting on you.\u007F1\u0000\u0007"
  6: 0x00D8 [0x23] WAIT_FOR_DIALOG_INTERACTION
  7: 0x00D9 [0x66] LOAD_EXT_SCHEDULER_MAIN(work_offset=13*, entity1=EventEntity, entity2=EventEntity, action="tlb1")
  8: 0x00E8 [0x21] END_EVENT
  9: 0x00E9 [0x00] END_REQSTACK()
```
