# Event 65535

## Metadata

| Field           | Value    |
|-----------------|----------|
| Event Index     | 29/93    |
| Offset          | 0x01B3   |
| Data Size       | 37 bytes |
| Calculated Size | 37 bytes |
| Instructions    | 9        |

```
      00 01 02 03 04 05 06 07  08 09 0A 0B 0C 0D 0E 0F
      -- -- -- -- -- -- -- --  -- -- -- -- -- -- -- --
01B0:          29 08 56 20 0F  01 01 1D 17 80 23 29 08     ).V ......#).
01C0: 56 20 0F 01 02 29 08 56  20 0F 01 03 1D 18 80 23  V ...).V ......#
01D0: 29 08 56 20 0F 01 04 00                           ).V ....        
```

## Opcodes

```
  0: 0x01B3 [0x29] REQ_SET_WAIT(priority=0x08, entity_id=Yoran-Oran (ID: 17768534/0x010F2056), tag_num=0x01)
  1: 0x01BA [0x1D] PRINT_EVENT_MESSAGE(message_id=7850*)
    → "Listen. Recently-ethy, I have had many reports of problems with Sarutabaruta's water.\u007F1\u0000\u0007"
  2: 0x01BD [0x23] WAIT_FOR_DIALOG_INTERACTION
  3: 0x01BE [0x29] REQ_SET_WAIT(priority=0x08, entity_id=Yoran-Oran (ID: 17768534/0x010F2056), tag_num=0x02)
  4: 0x01C5 [0x29] REQ_SET_WAIT(priority=0x08, entity_id=Yoran-Oran (ID: 17768534/0x010F2056), tag_num=0x03)
  5: 0x01CC [0x1D] PRINT_EVENT_MESSAGE(message_id=7851*)
    → "These star trees are offspring-ethy of the Great Star Tree. They have existed-ethy in Windurst for many-wany generations!\u007F1\u0000\u0007"
  6: 0x01CF [0x23] WAIT_FOR_DIALOG_INTERACTION
  7: 0x01D0 [0x29] REQ_SET_WAIT(priority=0x08, entity_id=Yoran-Oran (ID: 17768534/0x010F2056), tag_num=0x04)
  8: 0x01D7 [0x00] END_REQSTACK()
```
