# Event 65535

## Metadata

| Field           | Value    |
|-----------------|----------|
| Event Index     | 73/93    |
| Offset          | 0x0430   |
| Data Size       | 27 bytes |
| Calculated Size | 27 bytes |
| Instructions    | 7        |

```
      00 01 02 03 04 05 06 07  08 09 0A 0B 0C 0D 0E 0F
      -- -- -- -- -- -- -- --  -- -- -- -- -- -- -- --
0430: 6E F8 FF FF 7F 48 80 99  F8 FF FF 7F 1C 01 80 29  n....H.........)
0440: 08 56 20 0F 01 01 1D 49  80 23 00                 .V ....I.#.     
```

## Opcodes

```
  0: 0x0430 [0x6E] EventEntity uses emote 7*
  1: 0x0437 [0x99] Wait for EventEntity animation to complete
  2: 0x043C [0x1C] WAIT(30* ticks)
  3: 0x043F [0x29] REQ_SET_WAIT(priority=0x08, entity_id=Yoran-Oran (ID: 17768534/0x010F2056), tag_num=0x01)
  4: 0x0446 [0x1D] PRINT_EVENT_MESSAGE(message_id=8035*)
    → "The baby star trees sprout-ethy from starseeds taken from the Great Star Tree. We feel-ethy that the lack of magical energy-ethy in the Great Star Tree is causing problems in these seeds.\u007F1\u0000\u0007"
  5: 0x0449 [0x23] WAIT_FOR_DIALOG_INTERACTION
  6: 0x044A [0x00] END_REQSTACK()
```
