# Event 1091

## Metadata

| Field           | Value    |
|-----------------|----------|
| Event Index     | 4/4      |
| Offset          | 0x00F7   |
| Data Size       | 32 bytes |
| Calculated Size | 32 bytes |
| Instructions    | 10       |

```
      00 01 02 03 04 05 06 07  08 09 0A 0B 0C 0D 0E 0F
      -- -- -- -- -- -- -- --  -- -- -- -- -- -- -- --
00F0:                      42  1D 10 80 23 1D 11 80 23         B...#...#
0100: 1D 12 80 23 45 0F 80 F0  FF FF 7F F0 FF FF 7F 71  ...#E..........q
0110: 73 74 63 03 80 21 00                              stc..!.         
```

## Opcodes

```
  0: 0x00F7 [0x42] SET_CLI_EVENT_CANCEL_DATA()
  1: 0x00F8 [0x1D] PRINT_EVENT_MESSAGE(message_id=8468*)
    → "Amazing! You've completed every single objective in this area!\u007F1\u0000\u0007"
  2: 0x00FB [0x23] WAIT_FOR_DIALOG_INTERACTION
  3: 0x00FC [0x1D] PRINT_EVENT_MESSAGE(message_id=8469*)
    → "Why, this is an accomplishment the likes of which I've never seen.\u0007Would that you had wings, that you could take your place in the sky as the sun whose warmth and radiance we have gone so long without!\u007F1\u0000\u0007"
  4: 0x00FF [0x23] WAIT_FOR_DIALOG_INTERACTION
  5: 0x0100 [0x1D] PRINT_EVENT_MESSAGE(message_id=8470*)
    → "Ah, forgive me for getting carried away with myself.\u0007Your accomplishments moved me like I've not been moved in some while.\u0007Please, continue to stand by our side!\u007F1\u0000\u0007"
  6: 0x0103 [0x23] WAIT_FOR_DIALOG_INTERACTION
  7: 0x0104 [0x45] LOAD_SCHEDULED_TASK(work_offset1=201*, entity1=LocalPlayer, entity2=LocalPlayer, scheduler_id="qstc", work_offset2=0*)
  8: 0x0115 [0x21] END_EVENT
  9: 0x0116 [0x00] END_REQSTACK()
```
