# Event 65535

## Metadata

| Field           | Value    |
|-----------------|----------|
| Event Index     | 51/57    |
| Offset          | 0x04C4   |
| Data Size       | 53 bytes |
| Calculated Size | 53 bytes |
| Instructions    | 12       |

```
      00 01 02 03 04 05 06 07  08 09 0A 0B 0C 0D 0E 0F
      -- -- -- -- -- -- -- --  -- -- -- -- -- -- -- --
04C0:             33 01 03 00  00 3C 80 03 01 00 3E 80      3....<....>.
04D0: 06 02 00 02 02 00 03 80  00 F8 04 02 00 00 3F 80  ..............?.
04E0: 03 E6 04 05 02 00 08 00  00 01 00 36 3D 80 3B 80  ...........6=.;.
04F0: 00 00 1C 0D 80 01 D3 04  00                       .........       
```

## Opcodes

```
  0: 0x04C4 [0x33] EventEntity->Render.Flags0 |= 0x200000 // Bit 21 (flag=0x01)
  1: 0x04C6 [0x03] ExtData[1]->WorkLocal[0] = 4294937296*
  2: 0x04CB [0x03] ExtData[1]->WorkLocal[1] = 38*
  3: 0x04D0 [0x06] ExtData[1]->WorkLocal[2] = 0
  4: 0x04D3 [0x02] IF !(ExtData[1]->WorkLocal[2] == 0*) GOTO 0x04F8
  5: 0x04DB [0x02] IF !(ExtData[1]->WorkLocal[0] >= 4294936296*) GOTO 0x04E6
  6: 0x04E3 [0x05] ExtData[1]->WorkLocal[2] = 1
  7: 0x04E6 [0x08] ExtData[1]->WorkLocal[0] -= ExtData[1]->WorkLocal[1]
  8: 0x04EB [0x36] SET_ENTITY_EVENT_POSITION(pos_x=58.000*, pos_z=20.000*, pos_y=ExtData[1]->WorkLocal[0])
  9: 0x04F2 [0x1C] WAIT(1* ticks)
 10: 0x04F5 [0x01] GOTO 0x04D3

SUBROUTINE_04F8:
 11: 0x04F8 [0x00] END_REQSTACK()
```
