# Event 65535

## Metadata

| Field           | Value     |
|-----------------|-----------|
| Event Index     | 12/57     |
| Offset          | 0x016E    |
| Data Size       | 155 bytes |
| Calculated Size | 155 bytes |
| Instructions    | 3         |

```
      00 01 02 03 04 05 06 07  08 09 0A 0B 0C 0D 0E 0F
      -- -- -- -- -- -- -- --  -- -- -- -- -- -- -- --
0160:                                            AC 01                ..
0170: 03 80 AB 04 00 03 04 00  03 00 02 04 00 12 80 05  ................
0180: 8A 01 08 04 00 0D 80 01  8F 01 08 04 00 10 80 14  ................
0190: 04 00 0A 80 07 04 00 13  80 1B 03 04 00 03 00 02  ................
01A0: 04 00 12 80 05 AF 01 08  04 00 0D 80 01 B4 01 08  ................
01B0: 04 00 10 80 14 04 00 0A  80 07 04 00 14 80 1B 03  ................
01C0: 04 00 03 00 02 04 00 12  80 05 D4 01 08 04 00 0D  ................
01D0: 80 01 D9 01 08 04 00 10  80 14 04 00 0A 80 07 04  ................
01E0: 00 0E 80 1B 03 04 00 03  00 02 04 00 12 80 05 F9  ................
01F0: 01 08 04 00 0D 80 01 FE  01 08 04 00 10 80 14 04  ................
0200: 00 0A 80 07 04 00 15 80  1B                       .........       
```

## Opcodes

```
  0: 0x016E [0xAC] EventEntity->StatusEvent = 0*
  1: 0x0172 [0xAB] EventEntity->Render.Flags0 |= 0x40000 // Set bit 18
  2: 0x0174 [0x00] END_REQSTACK()
```

## Data or dead code:

```
# Dead code (unreachable instructions):
     0x0175 [0x03] ExtData[1]->WorkLocal[4] = ExtData[1]->WorkLocal[3]
     0x017A [0x02] IF !(ExtData[1]->WorkLocal[4] > 5*) GOTO 0x018A
     0x0182 [0x08] ExtData[1]->WorkLocal[4] -= 1*
     0x0187 [0x01] GOTO 0x018F
     0x018A [0x08] ExtData[1]->WorkLocal[4] -= 2*
     0x018F [0x14] ExtData[1]->WorkLocal[4] *= 10*
     0x0194 [0x07] ExtData[1]->WorkLocal[4] += 9*
     0x0199 [0x1B] RETURN
     0x019A [0x03] ExtData[1]->WorkLocal[4] = ExtData[1]->WorkLocal[3]
     0x019F [0x02] IF !(ExtData[1]->WorkLocal[4] > 5*) GOTO 0x01AF
     0x01A7 [0x08] ExtData[1]->WorkLocal[4] -= 1*
     0x01AC [0x01] GOTO 0x01B4
     0x01AF [0x08] ExtData[1]->WorkLocal[4] -= 2*
     0x01B4 [0x14] ExtData[1]->WorkLocal[4] *= 10*
     0x01B9 [0x07] ExtData[1]->WorkLocal[4] += 70*
     0x01BE [0x1B] RETURN
     0x01BF [0x03] ExtData[1]->WorkLocal[4] = ExtData[1]->WorkLocal[3]
     0x01C4 [0x02] IF !(ExtData[1]->WorkLocal[4] > 5*) GOTO 0x01D4
     0x01CC [0x08] ExtData[1]->WorkLocal[4] -= 1*
     0x01D1 [0x01] GOTO 0x01D9
     0x01D4 [0x08] ExtData[1]->WorkLocal[4] -= 2*
     0x01D9 [0x14] ExtData[1]->WorkLocal[4] *= 10*
     0x01DE [0x07] ExtData[1]->WorkLocal[4] += 140*
     0x01E3 [0x1B] RETURN
     0x01E4 [0x03] ExtData[1]->WorkLocal[4] = ExtData[1]->WorkLocal[3]
     0x01E9 [0x02] IF !(ExtData[1]->WorkLocal[4] > 5*) GOTO 0x01F9
     0x01F1 [0x08] ExtData[1]->WorkLocal[4] -= 1*
     0x01F6 [0x01] GOTO 0x01FE
     0x01F9 [0x08] ExtData[1]->WorkLocal[4] -= 2*
     0x01FE [0x14] ExtData[1]->WorkLocal[4] *= 10*
     0x0203 [0x07] ExtData[1]->WorkLocal[4] += 210*
     0x0208 [0x1B] RETURN
```