# Event 65535

## Metadata

| Field           | Value     |
|-----------------|-----------|
| Event Index     | 12/57     |
| Offset          | 0x016E    |
| Data Size       | 155 bytes |
| Calculated Size | 155 bytes |
| Instructions    | 4         |

```
      00 01 02 03 04 05 06 07  08 09 0A 0B 0C 0D 0E 0F
      -- -- -- -- -- -- -- --  -- -- -- -- -- -- -- --
0160:                                            AC 01                ..
0170: 03 80 AB 04 00 03 04 00  03 00 02 04 00 12 80 05  ................
0180: 8A 01 08 04 00 0D 80 01  8F 01 08 04 00 10 80 14  ................
0190: 04 00 0A 80 07 04 00 13  80 1B 03 04 00 03 00 02  ................
01A0: 04 00 12 80 05 AF 01 08  04 00 0D 80 01 B4 01 08  ................
01B0: 04 00 10 80 14 04 00 0A  80 07 04 00 14 80 1B 03  ................
01C0: 04 00 03 00 02 04 00 12  80 05 D4 01 08 04 00 0D  ................
01D0: 80 01 D9 01 08 04 00 10  80 14 04 00 0A 80 07 04  ................
01E0: 00 0E 80 1B 03 04 00 03  00 02 04 00 12 80 05 F9  ................
01F0: 01 08 04 00 0D 80 01 FE  01 08 04 00 10 80 14 04  ................
0200: 00 0A 80 07 04 00 15 80  1B                       .........       
```

## Opcodes

```
  0: 0x016E [0xAC] EventEntity->StatusEvent = 0*
  1: 0x0172 [0xAB] EventEntity->Render.Flags0 |= 0x40000 // Set bit 18
  2: 0x0174 [0x00] END_REQSTACK()
```

## Data or dead code:

```
# Data Section: 0x0175 (148 bytes)
     0x0175: 03 04 00 03 00 02 04 00 12 80 05 8A 01 08 04 00
     0x0185: 0D 80 01 8F 01 08 04 00 10 80 14 04 00 0A 80 07
     0x0195: 04 00 13 80 1B 03 04 00 03 00 02 04 00 12 80 05
     0x01A5: AF 01 08 04 00 0D 80 01 B4 01 08 04 00 10 80 14
     0x01B5: 04 00 0A 80 07 04 00 14 80 1B 03 04 00 03 00 02
     0x01C5: 04 00 12 80 05 D4 01 08 04 00 0D 80 01 D9 01 08
     0x01D5: 04 00 10 80 14 04 00 0A 80 07 04 00 0E 80 1B 03
     0x01E5: 04 00 03 00 02 04 00 12 80 05 F9 01 08 04 00 0D
     0x01F5: 80 01 FE 01 08 04 00 10 80 14 04 00 0A 80 07 04
     0x0205: 00 15 80 1B
```