# Event 65535

## Metadata

| Field           | Value    |
|-----------------|----------|
| Event Index     | 9/19     |
| Offset          | 0x005B   |
| Data Size       | 68 bytes |
| Calculated Size | 68 bytes |
| Instructions    | 14       |

```
      00 01 02 03 04 05 06 07  08 09 0A 0B 0C 0D 0E 0F
      -- -- -- -- -- -- -- --  -- -- -- -- -- -- -- --
0050:                                   32 01 80 1F 00             2....
0060: 0E 80 0F 80 10 80 1F 01  1F 00 11 80 12 80 13 80  ................
0070: 1F 01 1F 00 14 80 15 80  16 80 1F 01 6F 4A 55 13  ............oJU.
0080: 06 01 60 13 06 01 6F 76  F8 FF FF 7F 1C 17 80 5B  ..`...ov.......[
0090: 18 80 55 13 06 01 55 13  06 01 72 62 74 30 00     ..U...U...rbt0. 
```

## Opcodes

```
  0: 0x005B [0x32] ExtData[1]->MainSpeed = 40* * 0.1
  1: 0x005E [0x1F] MOVE_ENTITY: EventEntity moves to X=709.157*, Z=-40.863*, Y=-31.726*
  2: 0x0066 [0x1F] MOVE_ENTITY: Update entity position (mode=1)
  3: 0x0068 [0x1F] MOVE_ENTITY: EventEntity moves to X=709.330*, Z=-37.087*, Y=-31.962*
  4: 0x0070 [0x1F] MOVE_ENTITY: Update entity position (mode=1)
  5: 0x0072 [0x1F] MOVE_ENTITY: EventEntity moves to X=711.488*, Z=-32.560*, Y=-32.435*
  6: 0x007A [0x1F] MOVE_ENTITY: Update entity position (mode=1)
  7: 0x007C [0x6F] WAIT_FRAME_DELAY: Yield until WaitTime reaches zero
  8: 0x007D [0x4A] 02 (ID: 17175381/0x01061355) looks at Y01 (ID: 17175392/0x01061360)
  9: 0x0086 [0x6F] WAIT_FRAME_DELAY: Yield until WaitTime reaches zero
 10: 0x0087 [0x76] CHECK_ENTITY_RENDER_FLAGS: Wait until EventEntity Render.Flags0 and Render.Flags3 conditions are met
 11: 0x008C [0x1C] WAIT(1* ticks)
 12: 0x008F [0x5B] LOAD_EXT_SCHEDULER: Load scheduler "rbt0" with entities [02 (ID: 17175381/0x01061355), 02 (ID: 17175381/0x01061355)], work=2412*
 13: 0x009E [0x00] END_REQSTACK()
```
