# Event 338

## Metadata

| Field           | Value    |
|-----------------|----------|
| Event Index     | 31/62    |
| Offset          | 0x0328   |
| Data Size       | 33 bytes |
| Calculated Size | 33 bytes |
| Instructions    | 12       |

```
      00 01 02 03 04 05 06 07  08 09 0A 0B 0C 0D 0E 0F
      -- -- -- -- -- -- -- --  -- -- -- -- -- -- -- --
0320:                          1E F0 FF FF 7F 6F 70 29          .....op)
0330: 08 2E E0 0E 01 02 1D 25  80 23 1D 26 80 23 29 08  .......%.#.&.#).
0340: 2E E0 0E 01 03 20 00 21  00                       ..... .!.       
```

## Opcodes

```
  0: 0x0328 [0x1E] EventEntity looks at LocalPlayer and starts talking
  1: 0x032D [0x6F] WAIT_FRAME_DELAY: Yield until WaitTime reaches zero
  2: 0x032E [0x70] WAIT_ENTITY_RENDER_FLAG: Wait while EventEntity->Render.Flags3 bit 2 is set (cancel turn if not)
  3: 0x032F [0x29] REQ_SET_WAIT(priority=0x08, entity_id=Kenapa-Keppa (ID: 17752110/0x010EE02E), tag_num=0x02)
  4: 0x0336 [0x1D] PRINT_EVENT_MESSAGE(message_id=8097*)
    → "...Bag...delivered...to...Mhaura...\u007F1\u0000\u0007"
  5: 0x0339 [0x23] WAIT_FOR_DIALOG_INTERACTION
  6: 0x033A [0x1D] PRINT_EVENT_MESSAGE(message_id=8098*)
    → "...Please...bring...here...\u0007Quickly...\u007F1\u0000\u0007"
  7: 0x033D [0x23] WAIT_FOR_DIALOG_INTERACTION
  8: 0x033E [0x29] REQ_SET_WAIT(priority=0x08, entity_id=Kenapa-Keppa (ID: 17752110/0x010EE02E), tag_num=0x03)
  9: 0x0345 [0x20] SET_CLI_EVENT_UC_FLAG: Unlock player control
 10: 0x0347 [0x21] END_EVENT
 11: 0x0348 [0x00] END_REQSTACK()
```
