# Event 348

## Metadata

| Field           | Value    |
|-----------------|----------|
| Event Index     | 37/62    |
| Offset          | 0x0406   |
| Data Size       | 45 bytes |
| Calculated Size | 45 bytes |
| Instructions    | 11       |

```
      00 01 02 03 04 05 06 07  08 09 0A 0B 0C 0D 0E 0F
      -- -- -- -- -- -- -- --  -- -- -- -- -- -- -- --
0400:                   20 01  42 1E F0 FF FF 7F 6F 70         .B.....op
0410: 29 0B 2E E0 0E 01 26 29  0B 2E E0 0E 01 27 45 19  ).....&).....'E.
0420: 80 F0 FF FF 7F F0 FF FF  7F 71 73 74 63 1A 80 20  .........qstc.. 
0430: 00 21 00                                          .!.             
```

## Opcodes

```
  0: 0x0406 [0x20] SET_CLI_EVENT_UC_FLAG: Lock player control
  1: 0x0408 [0x42] SET_CLI_EVENT_CANCEL_DATA()
  2: 0x0409 [0x1E] EventEntity looks at LocalPlayer and starts talking
  3: 0x040E [0x6F] WAIT_FRAME_DELAY: Yield until WaitTime reaches zero
  4: 0x040F [0x70] WAIT_ENTITY_RENDER_FLAG: Wait while EventEntity->Render.Flags3 bit 2 is set (cancel turn if not)
  5: 0x0410 [0x29] REQ_SET_WAIT(priority=0x0B, entity_id=Kenapa-Keppa (ID: 17752110/0x010EE02E), tag_num=0x26)
  6: 0x0417 [0x29] REQ_SET_WAIT(priority=0x0B, entity_id=Kenapa-Keppa (ID: 17752110/0x010EE02E), tag_num=0x27)
  7: 0x041E [0x45] LOAD_SCHEDULED_TASK: Load scheduler "qstc" with entities [LocalPlayer, LocalPlayer], work=[201*, 0*]
  8: 0x042F [0x20] SET_CLI_EVENT_UC_FLAG: Unlock player control
  9: 0x0431 [0x21] END_EVENT
 10: 0x0432 [0x00] END_REQSTACK()
```
