# Event 65535

## Metadata

| Field           | Value    |
|-----------------|----------|
| Event Index     | 19/23    |
| Offset          | 0x00F0   |
| Data Size       | 83 bytes |
| Calculated Size | 83 bytes |
| Instructions    | 9        |

```
      00 01 02 03 04 05 06 07  08 09 0A 0B 0C 0D 0E 0F
      -- -- -- -- -- -- -- --  -- -- -- -- -- -- -- --
00F0: 5B 1D 80 56 23 05 01 56  23 05 01 6C 6B 72 30 1C  [..V#..V#..lkr0.
0100: 15 80 5B 1E 80 56 23 05  01 56 23 05 01 6C 6B 72  ..[..V#..V#..lkr
0110: 31 1C 1C 80 5B 1D 80 56  23 05 01 56 23 05 01 6C  1...[..V#..V#..l
0120: 6B 6C 30 1C 15 80 5B 1E  80 56 23 05 01 56 23 05  kl0...[..V#..V#.
0130: 01 6C 6B 6C 31 53 56 23  05 01 56 23 05 01 6C 6B  .lkl1SV#..V#..lk
0140: 6C 31 00                                          l1.             
```

## Opcodes

```
  0: 0x00F0 [0x5B] LOAD_EXT_SCHEDULER(work_offset=1416*, entity1=Zogbog (ID: 17113942/0x01052356), entity2=Zogbog (ID: 17113942/0x01052356), action="lkr0")
  1: 0x00FF [0x1C] WAIT(60* ticks)
  2: 0x0102 [0x5B] LOAD_EXT_SCHEDULER(work_offset=1417*, entity1=Zogbog (ID: 17113942/0x01052356), entity2=Zogbog (ID: 17113942/0x01052356), action="lkr1")
  3: 0x0111 [0x1C] WAIT(30* ticks)
  4: 0x0114 [0x5B] LOAD_EXT_SCHEDULER(work_offset=1416*, entity1=Zogbog (ID: 17113942/0x01052356), entity2=Zogbog (ID: 17113942/0x01052356), action="lkl0")
  5: 0x0123 [0x1C] WAIT(60* ticks)
  6: 0x0126 [0x5B] LOAD_EXT_SCHEDULER(work_offset=1417*, entity1=Zogbog (ID: 17113942/0x01052356), entity2=Zogbog (ID: 17113942/0x01052356), action="lkl1")
  7: 0x0135 [0x53] WAIT_SCHEDULER_TASK(entity1=Zogbog (ID: 17113942/0x01052356), entity2=Zogbog (ID: 17113942/0x01052356), action_id="lkl1")
  8: 0x0142 [0x00] END_REQSTACK()
```
