# Event 2562

## Metadata

| Field           | Value    |
|-----------------|----------|
| Event Index     | 17/21    |
| Offset          | 0x0172   |
| Data Size       | 45 bytes |
| Calculated Size | 45 bytes |
| Instructions    | 14       |

```
      00 01 02 03 04 05 06 07  08 09 0A 0B 0C 0D 0E 0F
      -- -- -- -- -- -- -- --  -- -- -- -- -- -- -- --
0170:       1E F0 FF FF 7F 6F  70 03 02 10 09 80 03 03    .....op.......
0180: 10 0A 80 03 04 10 0B 80  27 08 2E 62 10 01 01 1D  ........'..b....
0190: 0F 80 23 1D 10 80 23 2A  08 2E 62 10 01 21 00     ..#...#*..b..!. 
```

## Opcodes

```
  0: 0x0172 [0x1E] EventEntity looks at LocalPlayer and starts talking
  1: 0x0177 [0x6F] WAIT_FRAME_DELAY: Yield until WaitTime reaches zero
  2: 0x0178 [0x70] WAIT_ENTITY_RENDER_FLAG: Wait while EventEntity->Render.Flags3 bit 2 is set (cancel turn if not)
  3: 0x0179 [0x03] Work_Zone[2] = 848*
  4: 0x017E [0x03] Work_Zone[3] = 3935*
  5: 0x0183 [0x03] Work_Zone[4] = 3931*
  6: 0x0188 [0x27] REQ_SET(priority=0x08, entity_id=Choubollet (ID: 17850926/0x0110622E), tag_num=0x01)
  7: 0x018F [0x1D] PRINT_EVENT_MESSAGE(message_id=7522*)
    → "Three \u0001\u0005%\u0002\u0000\u0000\u0000 and one \u0001\u0005#\u0002\u0001\u0000\u0000 and \u0001\u0005#\u0002\u0002\u0000\u0000 each should be sufficient.\u007F1\u0000\u0007"
  8: 0x0192 [0x23] WAIT_FOR_DIALOG_INTERACTION
  9: 0x0193 [0x1D] PRINT_EVENT_MESSAGE(message_id=7523*)
    → "Do this for me, and I will construct a boat the likes of which you have never seen!\u007F1\u0000\u0007"
 10: 0x0196 [0x23] WAIT_FOR_DIALOG_INTERACTION
 11: 0x0197 [0x2A] GET_REQ_LEVEL(level=8, entity_id=Choubollet (ID: 17850926/0x0110622E))
 12: 0x019D [0x21] END_EVENT
 13: 0x019E [0x00] END_REQSTACK()
```
