# Event 2564

## Metadata

| Field           | Value    |
|-----------------|----------|
| Event Index     | 21/21    |
| Offset          | 0x0273   |
| Data Size       | 26 bytes |
| Calculated Size | 26 bytes |
| Instructions    | 9        |

```
      00 01 02 03 04 05 06 07  08 09 0A 0B 0C 0D 0E 0F
      -- -- -- -- -- -- -- --  -- -- -- -- -- -- -- --
0270:          1E F0 FF FF 7F  6F 70 27 08 2E 62 10 01     .....op'..b..
0280: 01 1D 1D 80 23 2A 08 2E  62 10 01 21 00           ....#*..b..!.   
```

## Opcodes

```
  0: 0x0273 [0x1E] EventEntity looks at LocalPlayer and starts talking
  1: 0x0278 [0x6F] WAIT_FRAME_DELAY: Yield until WaitTime reaches zero
  2: 0x0279 [0x70] WAIT_ENTITY_RENDER_FLAG: Wait while EventEntity->Render.Flags3 bit 2 is set (cancel turn if not)
  3: 0x027A [0x27] REQ_SET(priority=0x08, entity_id=Choubollet (ID: 17850926/0x0110622E), tag_num=0x01)
  4: 0x0281 [0x1D] PRINT_EVENT_MESSAGE(message_id=7534*)
    → "It is difficult to express with words the wondrous feeling of becoming one with your watercraft. The dangerous poisons in this river should pose no more of a threat than if you were sailing on a stream of afternoon tea.\u007F1\u0000\u0007"
  5: 0x0284 [0x23] WAIT_FOR_DIALOG_INTERACTION
  6: 0x0285 [0x2A] GET_REQ_LEVEL(level=8, entity_id=Choubollet (ID: 17850926/0x0110622E))
  7: 0x028B [0x21] END_EVENT
  8: 0x028C [0x00] END_REQSTACK()
```
