# Event 65535

## Metadata

| Field           | Value    |
|-----------------|----------|
| Event Index     | 6/9      |
| Offset          | 0x0036   |
| Data Size       | 39 bytes |
| Calculated Size | 39 bytes |
| Instructions    | 8        |

```
      00 01 02 03 04 05 06 07  08 09 0A 0B 0C 0D 0E 0F
      -- -- -- -- -- -- -- --  -- -- -- -- -- -- -- --
0030:                   32 07  80 1F 00 08 80 09 80 0A        2.........
0040: 80 1F 01 6F 81 00 20 C3  05 01 66 0B 80 20 C3 05  ...o.. ...f.. ..
0050: 01 20 C3 05 01 74 68 6B  31 1C 0C 80 00           . ...thk1....   
```

## Opcodes

```
  0: 0x0036 [0x32] ExtData[1]->MainSpeed = 13* * 0.1
  1: 0x0039 [0x1F] MOVE_ENTITY: EventEntity moves to X=-217.065*, Z=63.792*, Y=1.002*
  2: 0x0041 [0x1F] MOVE_ENTITY: Update entity position (mode=1)
  3: 0x0043 [0x6F] WAIT_FRAME_DELAY: Yield until WaitTime reaches zero
  4: 0x0044 [0x81] SET_ENTITY_BLINKING(blink_flag=0x00, entity=Nicolaus (ID: 17154848/0x0105C320))
  5: 0x004A [0x66] LOAD_EXT_SCHEDULER_MAIN: Load scheduler "thk1" with entities [Nicolaus (ID: 17154848/0x0105C320), Nicolaus (ID: 17154848/0x0105C320)], work=0*
  6: 0x0059 [0x1C] WAIT(60* ticks)
  7: 0x005C [0x00] END_REQSTACK()
```
