# Event 65535

## Metadata

| Field           | Value    |
|-----------------|----------|
| Event Index     | 29/45    |
| Offset          | 0x09D7   |
| Data Size       | 45 bytes |
| Calculated Size | 45 bytes |
| Instructions    | 12       |

```
      00 01 02 03 04 05 06 07  08 09 0A 0B 0C 0D 0E 0F
      -- -- -- -- -- -- -- --  -- -- -- -- -- -- -- --
09D0:                      32  5C 80 1F 00 7F 80 80 80         2\.......
09E0: 0A 80 1F 01 1C 68 80 39  81 80 1C 82 80 1F 00 83  .....h.9........
09F0: 80 84 80 0A 80 1F 01 1C  68 80 39 85 80 1C 82 80  ........h.9.....
0A00: 01 D7 09 00                                       ....            
```

## Opcodes

```
  0: 0x09D7 [0x32] ExtData[1]->MainSpeed = 13* * 0.1
  1: 0x09DA [0x1F] MOVE_ENTITY: EventEntity moves to X=-96.584*, Z=-8.519*, Y=0.000*
  2: 0x09E2 [0x1F] MOVE_ENTITY: Update entity position (mode=1)
  3: 0x09E4 [0x1C] WAIT(30* ticks)
  4: 0x09E7 [0x39] SET_ENTITY_DIRECTION(direction=19.7°*)
  5: 0x09EA [0x1C] WAIT(360* ticks)
  6: 0x09ED [0x1F] MOVE_ENTITY: EventEntity moves to X=-96.241*, Z=8.872*, Y=0.000*
  7: 0x09F5 [0x1F] MOVE_ENTITY: Update entity position (mode=1)
  8: 0x09F7 [0x1C] WAIT(30* ticks)
  9: 0x09FA [0x39] SET_ENTITY_DIRECTION(direction=2.8°*)
 10: 0x09FD [0x1C] WAIT(360* ticks)
 11: 0x0A00 [0x01] GOTO 0x09D7
```

## Data or dead code:

```
# Dead code (unreachable instructions):
     0x0A03 [0x00] END_REQSTACK()
```