# Event 65535

## Metadata

| Field           | Value    |
|-----------------|----------|
| Event Index     | 45/45    |
| Offset          | 0x0BDC   |
| Data Size       | 58 bytes |
| Calculated Size | 58 bytes |
| Instructions    | 12       |

```
      00 01 02 03 04 05 06 07  08 09 0A 0B 0C 0D 0E 0F
      -- -- -- -- -- -- -- --  -- -- -- -- -- -- -- --
0BD0:                                      1C 4C 80 5B              .L.[
0BE0: A7 80 F8 FF FF 7F F8 FF  FF 7F 6F 64 6F 30 1C A8  ..........odo0..
0BF0: 80 5B A7 80 F8 FF FF 7F  F8 FF FF 7F 6F 64 6F 31  .[..........odo1
0C00: 1C 7B 80 39 A9 80 6F 70  32 5C 80 1F 00 AA 80 AB  .{.9..op2\......
0C10: 80 0A 80 1F 01 00                                 ......          
```

## Opcodes

```
  0: 0x0BDC [0x1C] WAIT(15* ticks)
  1: 0x0BDF [0x5B] LOAD_EXT_SCHEDULER(work_offset=2150*, entity1=EventEntity, entity2=EventEntity, action="odo0")
  2: 0x0BEE [0x1C] WAIT(180* ticks)
  3: 0x0BF1 [0x5B] LOAD_EXT_SCHEDULER(work_offset=2150*, entity1=EventEntity, entity2=EventEntity, action="odo1")
  4: 0x0C00 [0x1C] WAIT(60* ticks)
  5: 0x0C03 [0x39] SET_ENTITY_DIRECTION(direction=11.2°*)
  6: 0x0C06 [0x6F] WAIT_FRAME_DELAY: Yield until WaitTime reaches zero
  7: 0x0C07 [0x70] WAIT_ENTITY_RENDER_FLAG: Wait while EventEntity->Render.Flags3 bit 2 is set (cancel turn if not)
  8: 0x0C08 [0x32] ExtData[1]->MainSpeed = 13* * 0.1
  9: 0x0C0B [0x1F] MOVE_ENTITY: EventEntity moves to X=-109.000*, Z=-1.370*, Y=0.000*
 10: 0x0C13 [0x1F] MOVE_ENTITY: Update entity position (mode=1)
 11: 0x0C15 [0x00] END_REQSTACK()
```
