# 17526906

## Common Data

| Field            | Value                               |
|------------------|-------------------------------------|
| Zone             | Maquette Abdhaljs-LegionA (ID: 183) |
| Block Size       | 1764 bytes                          |
| Total Events     | 14                                  |
| References Count | 66                                  |

## List of Events

| Event ID              | Entrypoint   |   Size |   Instructions |
|-----------------------|--------------|--------|----------------|
| [65535](#event-65535) | 0x0000       |      1 |              1 |
| [8](#event-8)         | 0x0001       |    684 |            138 |
| [10010](#event-10010) | 0x02AD       |     64 |             12 |
| [10011](#event-10011) | 0x02ED       |     64 |             12 |
| [10012](#event-10012) | 0x032D       |     64 |             12 |
| [10013](#event-10013) | 0x036D       |     64 |             12 |
| [10014](#event-10014) | 0x03AD       |     64 |             12 |
| [10015](#event-10015) | 0x03ED       |     64 |             12 |
| [10016](#event-10016) | 0x042D       |     64 |             12 |
| [10017](#event-10017) | 0x046D       |     64 |             12 |
| [10018](#event-10018) | 0x04AD       |     64 |             12 |
| [10019](#event-10019) | 0x04ED       |     64 |             12 |
| [10001](#event-10001) | 0x052D       |     46 |              9 |
| [10000](#event-10000) | 0x055B       |     54 |             10 |

## DAT References (imed_data)

|   Index | Hex Value   |   Dec Value |
|---------|-------------|-------------|
|       0 | 0x03FF      |        1023 |
|       1 | 0x0000      |           0 |
|       2 | 0x000F      |          15 |
|       3 | 0x0010      |          16 |
|       4 | 0x001F      |          31 |
|       5 | 0x0001      |           1 |
|       6 | 0x0002      |           2 |
|       7 | 0x0003      |           3 |
|       8 | 0x0004      |           4 |
|       9 | 0x0005      |           5 |
|      10 | 0x0006      |           6 |
|      11 | 0x0007      |           7 |
|      12 | 0x0008      |           8 |
|      13 | 0x0009      |           9 |
|      14 | 0x04ED      |        1261 |
|      15 | 0x18D3      |        6355 |
|      16 | 0x18D4      |        6356 |
|      17 | 0x000A      |          10 |
|      18 | 0x000B      |          11 |
|      19 | 0x00D3      |         211 |
|      20 | 0x08D3      |        2259 |
|      21 | 0x10D3      |        4307 |
|      22 | 0x18D9      |        6361 |
|      23 | 0x0D80      |        3456 |
|      24 | 0x00FF      |         255 |
|      25 | 0x18E3      |        6371 |
|      26 | 0x18E0      |        6368 |
|      27 | 0x18DD      |        6365 |
|      28 | 0x18DA      |        6362 |
|      29 | 0x18E4      |        6372 |
|      30 | 0x18E1      |        6369 |
|      31 | 0x18DE      |        6366 |
|      32 | 0x18DB      |        6363 |
|      33 | 0x18E5      |        6373 |
|      34 | 0x18E2      |        6370 |
|      35 | 0x18DF      |        6367 |
|      36 | 0x18DC      |        6364 |
|      37 | 0x00B4      |         180 |
|      38 | 0xFFFCA4A0  |  4294747296 |
|      39 | 0x40B28     |      265000 |
|      40 | 0x304F      |       12367 |
|      41 | 0x0400      |        1024 |
|      42 | 0x03E8      |        1000 |
|      43 | 0x2BF20     |      180000 |
|      44 | 0x03E9      |        1001 |
|      45 | 0xFFFD2D58  |  4294782296 |
|      46 | 0x30B2      |       12466 |
|      47 | 0x0C00      |        3072 |
|      48 | 0x03EA      |        1002 |
|      49 | 0xFFFD40E0  |  4294787296 |
|      50 | 0x03EB      |        1003 |
|      51 | 0xFFFFB1E0  |  4294947296 |
|      52 | 0x109A0     |       68000 |
|      53 | 0x2EE0      |       12000 |
|      54 | 0x03EC      |        1004 |
|      55 | 0x510E0     |      332000 |
|      56 | 0x03ED      |        1005 |
|      57 | 0x514C8     |      333000 |
|      58 | 0x03EE      |        1006 |
|      59 | 0xFFFC1BE8  |  4294712296 |
|      60 | 0x03EF      |        1007 |
|      61 | 0x03F0      |        1008 |
|      62 | 0x03F1      |        1009 |
|      63 | 0x005A      |          90 |
|      64 | 0x00C8      |         200 |
|      65 | 0x003C      |          60 |

## String References

- **6355**: The shared memories of generations of mooglekind flood into your mind, granting you the ability to decipher the cryptic glyphs of your $3...
- **6356**: Review which trial? [Trial $0./Trial $1./Trial $2./Trial $3./Trial $4./Trial $5./Trial $6./Trial $7./Trial $8./Trial $9./Moogle's Almanack./Return.]
- **6361**: You open the tome to the "Moogle's Almanack" chapter and peruse its weather prognostication pages.
- **6362**: Close observation of the sky reveals that the weather in this area today will be $0 with occasional $1. There is also a slight chance of $2, so caution is in order.
- **6363**: Predicting ahead, tomorrow's weather looks to be $0 with occasional $1. There is also a slight chance of $2, so caution is in order.
- **6364**: Finally, the forecast for the day after tomorrow calls for $0 with occasional $1. There is also a slight chance of $2, so caution is in order.
- **6365**: Close observation of the sky reveals that the weather in this area today will be $0 with a chance of $1.
- **6366**: Predicting ahead, tomorrow's weather looks to be $0 with a chance of $1.
- **6367**: Finally, the forecast for the day after tomorrow calls for $0 with a chance of $1.
- **6368**: Close observation of the sky reveals that the weather in this area today will be $0. There is also the possibility of $2, so caution is in order.
- **6369**: Predicting ahead, tomorrow's weather looks to be $0. There is also the possibility of $2, so caution is in order.
- **6370**: Finally, the forecast for the day after tomorrow calls for $0. There is also the possibility of $2, so caution is advised.
- **6371**: Close observation of the sky reveals that the weather in this area today will be $0.
- **6372**: Predicting ahead, tomorrow's weather looks to be $0.
- **6373**: Finally, the forecast for the day after tomorrow calls for $0.

## Events

### Event 65535

#### Metadata

| Field        | Value   |
|--------------|---------|
| Entrypoint   | 0x0000  |
| Data Size    | 1 bytes |
| Instructions | 1       |

```
      00 01 02 03 04 05 06 07  08 09 0A 0B 0C 0D 0E 0F
      -- -- -- -- -- -- -- --  -- -- -- -- -- -- -- --
0000: 00                                                .               
```

#### Opcodes

```
  0: 0x0000 [0x00] END_REQSTACK()
```

### Event 8

#### Metadata

| Field        | Value     |
|--------------|-----------|
| Entrypoint   | 0x0001    |
| Data Size    | 684 bytes |
| Instructions | 138       |

```
      00 01 02 03 04 05 06 07  08 09 0A 0B 0C 0D 0E 0F
      -- -- -- -- -- -- -- --  -- -- -- -- -- -- -- --
0000:    03 0B 00 00 80 41 01  80 02 80 02 10 01 00 41   .....A........A
0010: 03 80 04 80 02 10 02 00  41 01 80 02 80 03 10 03  ........A.......
0020: 00 41 03 80 04 80 03 10  04 00 41 01 80 02 80 04  .A........A.....
0030: 10 05 00 41 03 80 04 80  04 10 06 00 41 01 80 02  ...A........A...
0040: 80 05 10 07 00 41 03 80  04 80 05 10 08 00 41 01  .....A........A.
0050: 80 02 80 06 10 09 00 41  03 80 04 80 06 10 0A 00  .......A........
0060: 02 01 00 01 80 01 6F 00  3D 0B 00 01 80 05 80 02  ......o.=.......
0070: 02 00 01 80 01 7E 00 3D  0B 00 05 80 05 80 02 03  .....~.=........
0080: 00 01 80 01 8D 00 3D 0B  00 06 80 05 80 02 04 00  ......=.........
0090: 01 80 01 9C 00 3D 0B 00  07 80 05 80 02 05 00 01  .....=..........
00A0: 80 01 AB 00 3D 0B 00 08  80 05 80 02 06 00 01 80  ....=...........
00B0: 01 BA 00 3D 0B 00 09 80  05 80 02 07 00 01 80 01  ...=............
00C0: C9 00 3D 0B 00 0A 80 05  80 02 08 00 01 80 01 D8  ..=.............
00D0: 00 3D 0B 00 0B 80 05 80  02 09 00 01 80 01 E7 00  .=..............
00E0: 3D 0B 00 0C 80 05 80 02  0A 00 01 80 01 F6 00 3D  =..............=
00F0: 0B 00 0D 80 05 80 03 02  10 0E 80 48 0F 80 23 03  ...........H..#.
0100: 00 00 01 80 02 00 00 01  80 00 D7 01 03 02 10 01  ................
0110: 00 03 03 10 02 00 03 04  10 03 00 03 05 10 04 00  ................
0120: 03 06 10 05 00 03 07 10  06 00 03 08 10 07 00 03  ................
0130: 09 10 08 00 03 00 17 09  00 03 01 17 0A 00 24 10  ..............$.
0140: 80 01 80 0B 00 25 02 00  10 11 80 00 54 01 1A D9  .....%......T...
0150: 01 01 D4 01 02 00 10 12  80 00 64 01 03 00 00 05  ..........d.....
0160: 80 01 D4 01 03 0C 00 00  10 02 0C 00 01 80 04 D4  ................
0170: 01 02 0C 00 0D 80 05 D1  01 03 01 10 05 80 40 0C  ..............@.
0180: 80 04 80 01 10 0C 00 43  00 43 01 02 02 10 01 80  .......C.C......
0190: 04 CE 01 03 0D 00 02 10  07 0D 00 13 80 03 0E 00  ................
01A0: 02 10 07 0E 00 14 80 03  0F 00 02 10 07 0F 00 15  ................
01B0: 80 03 01 10 06 80 40 0C  80 04 80 01 10 0C 00 43  ......@........C
01C0: 00 43 01 48 0D 00 23 48  0F 00 23 01 CE 01 01 D1  .C.H..#H..#.....
01D0: 01 01 D4 01 01 04 01 21  00 48 16 80 23 03 01 10  .......!.H..#...
01E0: 07 80 43 00 43 01 03 11  00 08 10 03 10 00 09 10  ..C.C...........
01F0: 15 10 00 17 80 72 00 11  00 72 01 11 00 10 00 02  .....r...r......
0200: 03 10 18 80 00 1D 02 02  04 10 18 80 00 16 02 48  ...............H
0210: 19 80 23 01 1A 02 48 1A  80 23 01 30 02 02 04 10  ..#...H..#.0....
0220: 18 80 00 2C 02 48 1B 80  23 01 30 02 48 1C 80 23  ...,.H..#.0.H..#
0230: 0B 10 00 72 00 11 00 72  01 11 00 10 00 02 03 10  ...r...r........
0240: 18 80 00 5B 02 02 04 10  18 80 00 54 02 48 1D 80  ...[.......T.H..
0250: 23 01 58 02 48 1E 80 23  01 6E 02 02 04 10 18 80  #.X.H..#.n......
0260: 00 6A 02 48 1F 80 23 01  6E 02 48 20 80 23 0B 10  .j.H..#.n.H .#..
0270: 00 72 00 11 00 72 01 11  00 10 00 02 03 10 18 80  .r...r..........
0280: 00 99 02 02 04 10 18 80  00 92 02 48 21 80 23 01  ...........H!.#.
0290: 96 02 48 22 80 23 01 AC  02 02 04 10 18 80 00 A8  ..H".#..........
02A0: 02 48 23 80 23 01 AC 02  48 24 80 23 1B           .H#.#...H$.#.   
```

#### Opcodes

```
  0: 0x0001 [0x03] ExtData[1]->WorkLocal[11] = 1023*
  1: 0x0006 [0x41] ExtData[1]->WorkLocal[1] = Work_Zone[2] (bits 0*-15*)
  2: 0x000F [0x41] ExtData[1]->WorkLocal[2] = Work_Zone[2] (bits 16*-31*)
  3: 0x0018 [0x41] ExtData[1]->WorkLocal[3] = Work_Zone[3] (bits 0*-15*)
  4: 0x0021 [0x41] ExtData[1]->WorkLocal[4] = Work_Zone[3] (bits 16*-31*)
  5: 0x002A [0x41] ExtData[1]->WorkLocal[5] = Work_Zone[4] (bits 0*-15*)
  6: 0x0033 [0x41] ExtData[1]->WorkLocal[6] = Work_Zone[4] (bits 16*-31*)
  7: 0x003C [0x41] ExtData[1]->WorkLocal[7] = Work_Zone[5] (bits 0*-15*)
  8: 0x0045 [0x41] ExtData[1]->WorkLocal[8] = Work_Zone[5] (bits 16*-31*)
  9: 0x004E [0x41] ExtData[1]->WorkLocal[9] = Work_Zone[6] (bits 0*-15*)
 10: 0x0057 [0x41] ExtData[1]->WorkLocal[10] = Work_Zone[6] (bits 16*-31*)
 11: 0x0060 [0x02] IF !(ExtData[1]->WorkLocal[1] == 0*) GOTO 0x006F
 12: 0x0068 [0x3D] CLEAR_BIT_FLAG_CONDITIONAL(target_work_offset=ExtData[1]->WorkLocal[11], bit_index_work_offset=0*, condition_work_offset=1*)
 13: 0x006F [0x02] IF !(ExtData[1]->WorkLocal[2] == 0*) GOTO 0x007E
 14: 0x0077 [0x3D] CLEAR_BIT_FLAG_CONDITIONAL(target_work_offset=ExtData[1]->WorkLocal[11], bit_index_work_offset=1*, condition_work_offset=1*)
 15: 0x007E [0x02] IF !(ExtData[1]->WorkLocal[3] == 0*) GOTO 0x008D
 16: 0x0086 [0x3D] CLEAR_BIT_FLAG_CONDITIONAL(target_work_offset=ExtData[1]->WorkLocal[11], bit_index_work_offset=2*, condition_work_offset=1*)
 17: 0x008D [0x02] IF !(ExtData[1]->WorkLocal[4] == 0*) GOTO 0x009C
 18: 0x0095 [0x3D] CLEAR_BIT_FLAG_CONDITIONAL(target_work_offset=ExtData[1]->WorkLocal[11], bit_index_work_offset=3*, condition_work_offset=1*)
 19: 0x009C [0x02] IF !(ExtData[1]->WorkLocal[5] == 0*) GOTO 0x00AB
 20: 0x00A4 [0x3D] CLEAR_BIT_FLAG_CONDITIONAL(target_work_offset=ExtData[1]->WorkLocal[11], bit_index_work_offset=4*, condition_work_offset=1*)
 21: 0x00AB [0x02] IF !(ExtData[1]->WorkLocal[6] == 0*) GOTO 0x00BA
 22: 0x00B3 [0x3D] CLEAR_BIT_FLAG_CONDITIONAL(target_work_offset=ExtData[1]->WorkLocal[11], bit_index_work_offset=5*, condition_work_offset=1*)
 23: 0x00BA [0x02] IF !(ExtData[1]->WorkLocal[7] == 0*) GOTO 0x00C9
 24: 0x00C2 [0x3D] CLEAR_BIT_FLAG_CONDITIONAL(target_work_offset=ExtData[1]->WorkLocal[11], bit_index_work_offset=6*, condition_work_offset=1*)
 25: 0x00C9 [0x02] IF !(ExtData[1]->WorkLocal[8] == 0*) GOTO 0x00D8
 26: 0x00D1 [0x3D] CLEAR_BIT_FLAG_CONDITIONAL(target_work_offset=ExtData[1]->WorkLocal[11], bit_index_work_offset=7*, condition_work_offset=1*)
 27: 0x00D8 [0x02] IF !(ExtData[1]->WorkLocal[9] == 0*) GOTO 0x00E7
 28: 0x00E0 [0x3D] CLEAR_BIT_FLAG_CONDITIONAL(target_work_offset=ExtData[1]->WorkLocal[11], bit_index_work_offset=8*, condition_work_offset=1*)
 29: 0x00E7 [0x02] IF !(ExtData[1]->WorkLocal[10] == 0*) GOTO 0x00F6
 30: 0x00EF [0x3D] CLEAR_BIT_FLAG_CONDITIONAL(target_work_offset=ExtData[1]->WorkLocal[11], bit_index_work_offset=9*, condition_work_offset=1*)
 31: 0x00F6 [0x03] Work_Zone[2] = 1261*
 32: 0x00FB [0x48] [System] [6355*]:
    → "The shared memories of generations of mooglekind flood into your mind, granting you the ability to decipher the cryptic glyphs of your $3..."
 33: 0x00FE [0x23] WAIT_FOR_DIALOG_INTERACTION
 34: 0x00FF [0x03] ExtData[1]->WorkLocal[0] = 0*
 35: 0x0104 [0x02] IF !(ExtData[1]->WorkLocal[0] == 0*) GOTO 0x01D7
 36: 0x010C [0x03] Work_Zone[2] = ExtData[1]->WorkLocal[1]
 37: 0x0111 [0x03] Work_Zone[3] = ExtData[1]->WorkLocal[2]
 38: 0x0116 [0x03] Work_Zone[4] = ExtData[1]->WorkLocal[3]
 39: 0x011B [0x03] Work_Zone[5] = ExtData[1]->WorkLocal[4]
 40: 0x0120 [0x03] Work_Zone[6] = ExtData[1]->WorkLocal[5]
 41: 0x0125 [0x03] Work_Zone[7] = ExtData[1]->WorkLocal[6]
 42: 0x012A [0x03] Work_Zone[8] = ExtData[1]->WorkLocal[7]
 43: 0x012F [0x03] Work_Zone[9] = ExtData[1]->WorkLocal[8]
 44: 0x0134 [0x03] Work_Zone_1700[0] = ExtData[1]->WorkLocal[9]
 45: 0x0139 [0x03] Work_Zone_1700[1] = ExtData[1]->WorkLocal[10]
 46: 0x013E [0x24] CREATE_DIALOG(message_id=6356*, default_option=0*, option_flags=ExtData[1]->WorkLocal[11])
    → "Review which trial? [Trial $0./Trial $1./Trial $2./Trial $3./Trial $4./Trial $5./Trial $6./Trial $7./Trial $8./Trial $9./Moogle's Almanack./Return.]"
 47: 0x0145 [0x25] WAIT_DIALOG_SELECT()
 48: 0x0146 [0x02] IF !(Work_Zone[0] == 10*) GOTO 0x0154
 49: 0x014E [0x1A] CALL_SUBROUTINE(address=0x01D9)
 50: 0x0151 [0x01] GOTO 0x01D4
 51: 0x0154 [0x02] IF !(Work_Zone[0] == 11*) GOTO 0x0164
 52: 0x015C [0x03] ExtData[1]->WorkLocal[0] = 1*
 53: 0x0161 [0x01] GOTO 0x01D4
 54: 0x0164 [0x03] ExtData[1]->WorkLocal[12] = Work_Zone[0]
 55: 0x0169 [0x02] IF !(ExtData[1]->WorkLocal[12] < 0*) GOTO 0x01D4
 56: 0x0171 [0x02] IF !(ExtData[1]->WorkLocal[12] > 9*) GOTO 0x01D1
 57: 0x0179 [0x03] Work_Zone[1] = 1*
 58: 0x017E [0x40] SET_BIT_WORK_RANGE(start_bit=8*, end_bit=31*, target=Work_Zone[1], source=ExtData[1]->WorkLocal[12])
 59: 0x0187 [0x43] SEND_EVENT_UPDATE: Send pending tag to server (packet 0x005B)
 60: 0x0189 [0x43] SEND_EVENT_UPDATE: Check pending flag (skip if not pending)
 61: 0x018B [0x02] IF !(Work_Zone[2] < 0*) GOTO 0x01CE
 62: 0x0193 [0x03] ExtData[1]->WorkLocal[13] = Work_Zone[2]
 63: 0x0198 [0x07] ExtData[1]->WorkLocal[13] += 211*
 64: 0x019D [0x03] ExtData[1]->WorkLocal[14] = Work_Zone[2]
 65: 0x01A2 [0x07] ExtData[1]->WorkLocal[14] += 2259*
 66: 0x01A7 [0x03] ExtData[1]->WorkLocal[15] = Work_Zone[2]
 67: 0x01AC [0x07] ExtData[1]->WorkLocal[15] += 4307*
 68: 0x01B1 [0x03] Work_Zone[1] = 2*
 69: 0x01B6 [0x40] SET_BIT_WORK_RANGE(start_bit=8*, end_bit=31*, target=Work_Zone[1], source=ExtData[1]->WorkLocal[12])
 70: 0x01BF [0x43] SEND_EVENT_UPDATE: Send pending tag to server (packet 0x005B)
 71: 0x01C1 [0x43] SEND_EVENT_UPDATE: Check pending flag (skip if not pending)
 72: 0x01C3 [0x48] [System] [ExtData[1]->WorkLocal[13]]:
    → "This area is currently affected by the Super Kupower: "Crystal Caboodle"!"
 73: 0x01C6 [0x23] WAIT_FOR_DIALOG_INTERACTION
 74: 0x01C7 [0x48] [System] [ExtData[1]->WorkLocal[15]]:
    → "This area is currently affected by the Super Kupower: "[/Thrifty Transit/Martial Master/Blood of the Vampyr/Treasure Hound/Artisan's Advantage/Myriad Mystery Boxes/Dilatory Digestion/Boundary Buster/Bountiful Bazaar/Swift Shoes/Crystal Caboodle]"! This area is currently affected by the Super Kupower: "[/Thrifty Transit/Martial Master/Blood of the Vampyr/Treasure Hound/Artisan's Advantage/Myriad Mystery Boxes/Dilatory Digestion/Boundary Buster/Bountiful Bazaar/Swift Shoes/Crystal Caboodle]"! This area is currently affected by the Super Kupower: "[/Thrifty Transit/Martial Master/Blood of the Vampyr/Treasure Hound/Artisan's Advantage/Myriad Mystery Boxes/Dilatory Digestion/Boundary Buster/Bountiful Bazaar/Swift Shoes/Crystal Caboodle]"!"
 75: 0x01CA [0x23] WAIT_FOR_DIALOG_INTERACTION
 76: 0x01CB [0x01] GOTO 0x01CE

SUBROUTINE_01CE:
 77: 0x01CE [0x01] GOTO 0x01D1

SUBROUTINE_01D1:
 78: 0x01D1 [0x01] GOTO 0x01D4

SUBROUTINE_01D4:
 79: 0x01D4 [0x01] GOTO 0x0104
 80: 0x01D7 [0x21] END_EVENT
 81: 0x01D8 [0x00] END_REQSTACK()

SUBROUTINE_01D9:
 82: 0x01D9 [0x48] [System] [6361*]:
    → "You open the tome to the "Moogle's Almanack" chapter and peruse its weather prognostication pages."
 83: 0x01DC [0x23] WAIT_FOR_DIALOG_INTERACTION
 84: 0x01DD [0x03] Work_Zone[1] = 3*
 85: 0x01E2 [0x43] SEND_EVENT_UPDATE: Send pending tag to server (packet 0x005B)
 86: 0x01E4 [0x43] SEND_EVENT_UPDATE: Check pending flag (skip if not pending)
 87: 0x01E6 [0x03] ExtData[1]->WorkLocal[17] = Work_Zone[8]
 88: 0x01EB [0x03] ExtData[1]->WorkLocal[16] = Work_Zone[9]
 89: 0x01F0 [0x15] ExtData[1]->WorkLocal[16] /= 3456*
 90: 0x01F5 [0x72] LOAD_EVENT_WEATHER: Request weather file 7033, weather_id=ExtData[1]->WorkLocal[17], param1=0x0172, param2=0x00100011
 91: 0x01FF [0x02] IF !(Work_Zone[3] == 255*) GOTO 0x021D
 92: 0x0207 [0x02] IF !(Work_Zone[4] == 255*) GOTO 0x0216
 93: 0x020F [0x48] [System] [6371*]:
    → "Close observation of the sky reveals that the weather in this area today will be $0."
 94: 0x0212 [0x23] WAIT_FOR_DIALOG_INTERACTION
 95: 0x0213 [0x01] GOTO 0x021A
 96: 0x0216 [0x48] [System] [6368*]:
    → "Close observation of the sky reveals that the weather in this area today will be $0. There is also the possibility of $2, so caution is in order."
 97: 0x0219 [0x23] WAIT_FOR_DIALOG_INTERACTION

SUBROUTINE_021A:
 98: 0x021A [0x01] GOTO 0x0230
 99: 0x021D [0x02] IF !(Work_Zone[4] == 255*) GOTO 0x022C
100: 0x0225 [0x48] [System] [6365*]:
    → "Close observation of the sky reveals that the weather in this area today will be $0 with a chance of $1."
101: 0x0228 [0x23] WAIT_FOR_DIALOG_INTERACTION
102: 0x0229 [0x01] GOTO 0x0230
103: 0x022C [0x48] [System] [6362*]:
    → "Close observation of the sky reveals that the weather in this area today will be $0 with occasional $1. There is also a slight chance of $2, so caution is in order."
104: 0x022F [0x23] WAIT_FOR_DIALOG_INTERACTION

SUBROUTINE_0230:
105: 0x0230 [0x0B] ExtData[1]->WorkLocal[16]++
106: 0x0233 [0x72] LOAD_EVENT_WEATHER: Request weather file 7033, weather_id=ExtData[1]->WorkLocal[17], param1=0x0172, param2=0x00100011
107: 0x023D [0x02] IF !(Work_Zone[3] == 255*) GOTO 0x025B
108: 0x0245 [0x02] IF !(Work_Zone[4] == 255*) GOTO 0x0254
109: 0x024D [0x48] [System] [6372*]:
    → "Predicting ahead, tomorrow's weather looks to be $0."
110: 0x0250 [0x23] WAIT_FOR_DIALOG_INTERACTION
111: 0x0251 [0x01] GOTO 0x0258
112: 0x0254 [0x48] [System] [6369*]:
    → "Predicting ahead, tomorrow's weather looks to be $0. There is also the possibility of $2, so caution is in order."
113: 0x0257 [0x23] WAIT_FOR_DIALOG_INTERACTION

SUBROUTINE_0258:
114: 0x0258 [0x01] GOTO 0x026E
115: 0x025B [0x02] IF !(Work_Zone[4] == 255*) GOTO 0x026A
116: 0x0263 [0x48] [System] [6366*]:
    → "Predicting ahead, tomorrow's weather looks to be $0 with a chance of $1."
117: 0x0266 [0x23] WAIT_FOR_DIALOG_INTERACTION
118: 0x0267 [0x01] GOTO 0x026E
119: 0x026A [0x48] [System] [6363*]:
    → "Predicting ahead, tomorrow's weather looks to be $0 with occasional $1. There is also a slight chance of $2, so caution is in order."
120: 0x026D [0x23] WAIT_FOR_DIALOG_INTERACTION

SUBROUTINE_026E:
121: 0x026E [0x0B] ExtData[1]->WorkLocal[16]++
122: 0x0271 [0x72] LOAD_EVENT_WEATHER: Request weather file 7033, weather_id=ExtData[1]->WorkLocal[17], param1=0x0172, param2=0x00100011
123: 0x027B [0x02] IF !(Work_Zone[3] == 255*) GOTO 0x0299
124: 0x0283 [0x02] IF !(Work_Zone[4] == 255*) GOTO 0x0292
125: 0x028B [0x48] [System] [6373*]:
    → "Finally, the forecast for the day after tomorrow calls for $0."
126: 0x028E [0x23] WAIT_FOR_DIALOG_INTERACTION
127: 0x028F [0x01] GOTO 0x0296
128: 0x0292 [0x48] [System] [6370*]:
    → "Finally, the forecast for the day after tomorrow calls for $0. There is also the possibility of $2, so caution is advised."
129: 0x0295 [0x23] WAIT_FOR_DIALOG_INTERACTION

SUBROUTINE_0296:
130: 0x0296 [0x01] GOTO 0x02AC
131: 0x0299 [0x02] IF !(Work_Zone[4] == 255*) GOTO 0x02A8
132: 0x02A1 [0x48] [System] [6367*]:
    → "Finally, the forecast for the day after tomorrow calls for $0 with a chance of $1."
133: 0x02A4 [0x23] WAIT_FOR_DIALOG_INTERACTION
134: 0x02A5 [0x01] GOTO 0x02AC
135: 0x02A8 [0x48] [System] [6364*]:
    → "Finally, the forecast for the day after tomorrow calls for $0 with occasional $1. There is also a slight chance of $2, so caution is in order."
136: 0x02AB [0x23] WAIT_FOR_DIALOG_INTERACTION

SUBROUTINE_02AC:
137: 0x02AC [0x1B] RETURN
```

### Event 10010

#### Metadata

| Field        | Value    |
|--------------|----------|
| Entrypoint   | 0x02AD   |
| Data Size    | 64 bytes |
| Instructions | 12       |

```
      00 01 02 03 04 05 06 07  08 09 0A 0B 0C 0D 0E 0F
      -- -- -- -- -- -- -- --  -- -- -- -- -- -- -- --
02A0:                                         20 01 42                .B
02B0: 62 05 80 F0 FF FF 7F F0  FF FF 7F 6D 61 69 6E 01  b..........main.
02C0: 80 1C 25 80 47 00 26 80  27 80 28 80 29 80 47 01  ..%.G.&.'.(.).G.
02D0: 62 06 80 F0 FF FF 7F F0  FF FF 7F 6D 61 69 6E 01  b..........main.
02E0: 80 1C 25 80 20 00 03 01  10 2A 80 21 00           ..%. ....*.!.   
```

#### Opcodes

```
  0: 0x02AD [0x20] SET_CLI_EVENT_UC_FLAG: Lock player control
  1: 0x02AF [0x42] SET_CLI_EVENT_CANCEL_DATA()
  2: 0x02B0 [0x62] LOAD_EVENT_SCHEDULER: Load scheduler "main" with entities [LocalPlayer, LocalPlayer], work=[1*, 0*]
  3: 0x02C1 [0x1C] WAIT(180* ticks)
  4: 0x02C4 [0x47] UPDATE_PLAYER_POS(-220.000*, 265.000*, 12.367*, yaw=90.0°*)
  5: 0x02CE [0x47] WAIT_PLAYER_POS_UPDATE
  6: 0x02D0 [0x62] LOAD_EVENT_SCHEDULER: Load scheduler "main" with entities [LocalPlayer, LocalPlayer], work=[2*, 0*]
  7: 0x02E1 [0x1C] WAIT(180* ticks)
  8: 0x02E4 [0x20] SET_CLI_EVENT_UC_FLAG: Unlock player control
  9: 0x02E6 [0x03] Work_Zone[1] = 1000*
 10: 0x02EB [0x21] END_EVENT
 11: 0x02EC [0x00] END_REQSTACK()
```

### Event 10011

#### Metadata

| Field        | Value    |
|--------------|----------|
| Entrypoint   | 0x02ED   |
| Data Size    | 64 bytes |
| Instructions | 12       |

```
      00 01 02 03 04 05 06 07  08 09 0A 0B 0C 0D 0E 0F
      -- -- -- -- -- -- -- --  -- -- -- -- -- -- -- --
02E0:                                         20 01 42                .B
02F0: 62 05 80 F0 FF FF 7F F0  FF FF 7F 6D 61 69 6E 01  b..........main.
0300: 80 1C 25 80 47 00 2B 80  27 80 28 80 29 80 47 01  ..%.G.+.'.(.).G.
0310: 62 06 80 F0 FF FF 7F F0  FF FF 7F 6D 61 69 6E 01  b..........main.
0320: 80 1C 25 80 20 00 03 01  10 2C 80 21 00           ..%. ....,.!.   
```

#### Opcodes

```
  0: 0x02ED [0x20] SET_CLI_EVENT_UC_FLAG: Lock player control
  1: 0x02EF [0x42] SET_CLI_EVENT_CANCEL_DATA()
  2: 0x02F0 [0x62] LOAD_EVENT_SCHEDULER: Load scheduler "main" with entities [LocalPlayer, LocalPlayer], work=[1*, 0*]
  3: 0x0301 [0x1C] WAIT(180* ticks)
  4: 0x0304 [0x47] UPDATE_PLAYER_POS(180.000*, 265.000*, 12.367*, yaw=90.0°*)
  5: 0x030E [0x47] WAIT_PLAYER_POS_UPDATE
  6: 0x0310 [0x62] LOAD_EVENT_SCHEDULER: Load scheduler "main" with entities [LocalPlayer, LocalPlayer], work=[2*, 0*]
  7: 0x0321 [0x1C] WAIT(180* ticks)
  8: 0x0324 [0x20] SET_CLI_EVENT_UC_FLAG: Unlock player control
  9: 0x0326 [0x03] Work_Zone[1] = 1001*
 10: 0x032B [0x21] END_EVENT
 11: 0x032C [0x00] END_REQSTACK()
```

### Event 10012

#### Metadata

| Field        | Value    |
|--------------|----------|
| Entrypoint   | 0x032D   |
| Data Size    | 64 bytes |
| Instructions | 12       |

```
      00 01 02 03 04 05 06 07  08 09 0A 0B 0C 0D 0E 0F
      -- -- -- -- -- -- -- --  -- -- -- -- -- -- -- --
0320:                                         20 01 42                .B
0330: 62 05 80 F0 FF FF 7F F0  FF FF 7F 6D 61 69 6E 01  b..........main.
0340: 80 1C 25 80 47 00 26 80  2D 80 2E 80 2F 80 47 01  ..%.G.&.-.../.G.
0350: 62 06 80 F0 FF FF 7F F0  FF FF 7F 6D 61 69 6E 01  b..........main.
0360: 80 1C 25 80 20 00 03 01  10 30 80 21 00           ..%. ....0.!.   
```

#### Opcodes

```
  0: 0x032D [0x20] SET_CLI_EVENT_UC_FLAG: Lock player control
  1: 0x032F [0x42] SET_CLI_EVENT_CANCEL_DATA()
  2: 0x0330 [0x62] LOAD_EVENT_SCHEDULER: Load scheduler "main" with entities [LocalPlayer, LocalPlayer], work=[1*, 0*]
  3: 0x0341 [0x1C] WAIT(180* ticks)
  4: 0x0344 [0x47] UPDATE_PLAYER_POS(-220.000*, -185.000*, 12.466*, yaw=270.0°*)
  5: 0x034E [0x47] WAIT_PLAYER_POS_UPDATE
  6: 0x0350 [0x62] LOAD_EVENT_SCHEDULER: Load scheduler "main" with entities [LocalPlayer, LocalPlayer], work=[2*, 0*]
  7: 0x0361 [0x1C] WAIT(180* ticks)
  8: 0x0364 [0x20] SET_CLI_EVENT_UC_FLAG: Unlock player control
  9: 0x0366 [0x03] Work_Zone[1] = 1002*
 10: 0x036B [0x21] END_EVENT
 11: 0x036C [0x00] END_REQSTACK()
```

### Event 10013

#### Metadata

| Field        | Value    |
|--------------|----------|
| Entrypoint   | 0x036D   |
| Data Size    | 64 bytes |
| Instructions | 12       |

```
      00 01 02 03 04 05 06 07  08 09 0A 0B 0C 0D 0E 0F
      -- -- -- -- -- -- -- --  -- -- -- -- -- -- -- --
0360:                                         20 01 42                .B
0370: 62 05 80 F0 FF FF 7F F0  FF FF 7F 6D 61 69 6E 01  b..........main.
0380: 80 1C 25 80 47 00 2B 80  31 80 28 80 2F 80 47 01  ..%.G.+.1.(./.G.
0390: 62 06 80 F0 FF FF 7F F0  FF FF 7F 6D 61 69 6E 01  b..........main.
03A0: 80 1C 25 80 20 00 03 01  10 32 80 21 00           ..%. ....2.!.   
```

#### Opcodes

```
  0: 0x036D [0x20] SET_CLI_EVENT_UC_FLAG: Lock player control
  1: 0x036F [0x42] SET_CLI_EVENT_CANCEL_DATA()
  2: 0x0370 [0x62] LOAD_EVENT_SCHEDULER: Load scheduler "main" with entities [LocalPlayer, LocalPlayer], work=[1*, 0*]
  3: 0x0381 [0x1C] WAIT(180* ticks)
  4: 0x0384 [0x47] UPDATE_PLAYER_POS(180.000*, -180.000*, 12.367*, yaw=270.0°*)
  5: 0x038E [0x47] WAIT_PLAYER_POS_UPDATE
  6: 0x0390 [0x62] LOAD_EVENT_SCHEDULER: Load scheduler "main" with entities [LocalPlayer, LocalPlayer], work=[2*, 0*]
  7: 0x03A1 [0x1C] WAIT(180* ticks)
  8: 0x03A4 [0x20] SET_CLI_EVENT_UC_FLAG: Unlock player control
  9: 0x03A6 [0x03] Work_Zone[1] = 1003*
 10: 0x03AB [0x21] END_EVENT
 11: 0x03AC [0x00] END_REQSTACK()
```

### Event 10014

#### Metadata

| Field        | Value    |
|--------------|----------|
| Entrypoint   | 0x03AD   |
| Data Size    | 64 bytes |
| Instructions | 12       |

```
      00 01 02 03 04 05 06 07  08 09 0A 0B 0C 0D 0E 0F
      -- -- -- -- -- -- -- --  -- -- -- -- -- -- -- --
03A0:                                         20 01 42                .B
03B0: 62 05 80 F0 FF FF 7F F0  FF FF 7F 6D 61 69 6E 01  b..........main.
03C0: 80 1C 25 80 47 00 33 80  34 80 35 80 29 80 47 01  ..%.G.3.4.5.).G.
03D0: 62 06 80 F0 FF FF 7F F0  FF FF 7F 6D 61 69 6E 01  b..........main.
03E0: 80 1C 25 80 20 00 03 01  10 36 80 21 00           ..%. ....6.!.   
```

#### Opcodes

```
  0: 0x03AD [0x20] SET_CLI_EVENT_UC_FLAG: Lock player control
  1: 0x03AF [0x42] SET_CLI_EVENT_CANCEL_DATA()
  2: 0x03B0 [0x62] LOAD_EVENT_SCHEDULER: Load scheduler "main" with entities [LocalPlayer, LocalPlayer], work=[1*, 0*]
  3: 0x03C1 [0x1C] WAIT(180* ticks)
  4: 0x03C4 [0x47] UPDATE_PLAYER_POS(-20.000*, 68.000*, 12.000*, yaw=90.0°*)
  5: 0x03CE [0x47] WAIT_PLAYER_POS_UPDATE
  6: 0x03D0 [0x62] LOAD_EVENT_SCHEDULER: Load scheduler "main" with entities [LocalPlayer, LocalPlayer], work=[2*, 0*]
  7: 0x03E1 [0x1C] WAIT(180* ticks)
  8: 0x03E4 [0x20] SET_CLI_EVENT_UC_FLAG: Unlock player control
  9: 0x03E6 [0x03] Work_Zone[1] = 1004*
 10: 0x03EB [0x21] END_EVENT
 11: 0x03EC [0x00] END_REQSTACK()
```

### Event 10015

#### Metadata

| Field        | Value    |
|--------------|----------|
| Entrypoint   | 0x03ED   |
| Data Size    | 64 bytes |
| Instructions | 12       |

```
      00 01 02 03 04 05 06 07  08 09 0A 0B 0C 0D 0E 0F
      -- -- -- -- -- -- -- --  -- -- -- -- -- -- -- --
03E0:                                         20 01 42                .B
03F0: 62 05 80 F0 FF FF 7F F0  FF FF 7F 6D 61 69 6E 01  b..........main.
0400: 80 1C 25 80 47 00 26 80  37 80 35 80 2F 80 47 01  ..%.G.&.7.5./.G.
0410: 62 06 80 F0 FF FF 7F F0  FF FF 7F 6D 61 69 6E 01  b..........main.
0420: 80 1C 25 80 20 00 03 01  10 38 80 21 00           ..%. ....8.!.   
```

#### Opcodes

```
  0: 0x03ED [0x20] SET_CLI_EVENT_UC_FLAG: Lock player control
  1: 0x03EF [0x42] SET_CLI_EVENT_CANCEL_DATA()
  2: 0x03F0 [0x62] LOAD_EVENT_SCHEDULER: Load scheduler "main" with entities [LocalPlayer, LocalPlayer], work=[1*, 0*]
  3: 0x0401 [0x1C] WAIT(180* ticks)
  4: 0x0404 [0x47] UPDATE_PLAYER_POS(-220.000*, 332.000*, 12.000*, yaw=270.0°*)
  5: 0x040E [0x47] WAIT_PLAYER_POS_UPDATE
  6: 0x0410 [0x62] LOAD_EVENT_SCHEDULER: Load scheduler "main" with entities [LocalPlayer, LocalPlayer], work=[2*, 0*]
  7: 0x0421 [0x1C] WAIT(180* ticks)
  8: 0x0424 [0x20] SET_CLI_EVENT_UC_FLAG: Unlock player control
  9: 0x0426 [0x03] Work_Zone[1] = 1005*
 10: 0x042B [0x21] END_EVENT
 11: 0x042C [0x00] END_REQSTACK()
```

### Event 10016

#### Metadata

| Field        | Value    |
|--------------|----------|
| Entrypoint   | 0x042D   |
| Data Size    | 64 bytes |
| Instructions | 12       |

```
      00 01 02 03 04 05 06 07  08 09 0A 0B 0C 0D 0E 0F
      -- -- -- -- -- -- -- --  -- -- -- -- -- -- -- --
0420:                                         20 01 42                .B
0430: 62 05 80 F0 FF FF 7F F0  FF FF 7F 6D 61 69 6E 01  b..........main.
0440: 80 1C 25 80 47 00 2B 80  39 80 35 80 2F 80 47 01  ..%.G.+.9.5./.G.
0450: 62 06 80 F0 FF FF 7F F0  FF FF 7F 6D 61 69 6E 01  b..........main.
0460: 80 1C 25 80 20 00 03 01  10 3A 80 21 00           ..%. ....:.!.   
```

#### Opcodes

```
  0: 0x042D [0x20] SET_CLI_EVENT_UC_FLAG: Lock player control
  1: 0x042F [0x42] SET_CLI_EVENT_CANCEL_DATA()
  2: 0x0430 [0x62] LOAD_EVENT_SCHEDULER: Load scheduler "main" with entities [LocalPlayer, LocalPlayer], work=[1*, 0*]
  3: 0x0441 [0x1C] WAIT(180* ticks)
  4: 0x0444 [0x47] UPDATE_PLAYER_POS(180.000*, 333.000*, 12.000*, yaw=270.0°*)
  5: 0x044E [0x47] WAIT_PLAYER_POS_UPDATE
  6: 0x0450 [0x62] LOAD_EVENT_SCHEDULER: Load scheduler "main" with entities [LocalPlayer, LocalPlayer], work=[2*, 0*]
  7: 0x0461 [0x1C] WAIT(180* ticks)
  8: 0x0464 [0x20] SET_CLI_EVENT_UC_FLAG: Unlock player control
  9: 0x0466 [0x03] Work_Zone[1] = 1006*
 10: 0x046B [0x21] END_EVENT
 11: 0x046C [0x00] END_REQSTACK()
```

### Event 10017

#### Metadata

| Field        | Value    |
|--------------|----------|
| Entrypoint   | 0x046D   |
| Data Size    | 64 bytes |
| Instructions | 12       |

```
      00 01 02 03 04 05 06 07  08 09 0A 0B 0C 0D 0E 0F
      -- -- -- -- -- -- -- --  -- -- -- -- -- -- -- --
0460:                                         20 01 42                .B
0470: 62 05 80 F0 FF FF 7F F0  FF FF 7F 6D 61 69 6E 01  b..........main.
0480: 80 1C 25 80 47 00 26 80  3B 80 35 80 29 80 47 01  ..%.G.&.;.5.).G.
0490: 62 06 80 F0 FF FF 7F F0  FF FF 7F 6D 61 69 6E 01  b..........main.
04A0: 80 1C 25 80 20 00 03 01  10 3C 80 21 00           ..%. ....<.!.   
```

#### Opcodes

```
  0: 0x046D [0x20] SET_CLI_EVENT_UC_FLAG: Lock player control
  1: 0x046F [0x42] SET_CLI_EVENT_CANCEL_DATA()
  2: 0x0470 [0x62] LOAD_EVENT_SCHEDULER: Load scheduler "main" with entities [LocalPlayer, LocalPlayer], work=[1*, 0*]
  3: 0x0481 [0x1C] WAIT(180* ticks)
  4: 0x0484 [0x47] UPDATE_PLAYER_POS(-220.000*, -255.000*, 12.000*, yaw=90.0°*)
  5: 0x048E [0x47] WAIT_PLAYER_POS_UPDATE
  6: 0x0490 [0x62] LOAD_EVENT_SCHEDULER: Load scheduler "main" with entities [LocalPlayer, LocalPlayer], work=[2*, 0*]
  7: 0x04A1 [0x1C] WAIT(180* ticks)
  8: 0x04A4 [0x20] SET_CLI_EVENT_UC_FLAG: Unlock player control
  9: 0x04A6 [0x03] Work_Zone[1] = 1007*
 10: 0x04AB [0x21] END_EVENT
 11: 0x04AC [0x00] END_REQSTACK()
```

### Event 10018

#### Metadata

| Field        | Value    |
|--------------|----------|
| Entrypoint   | 0x04AD   |
| Data Size    | 64 bytes |
| Instructions | 12       |

```
      00 01 02 03 04 05 06 07  08 09 0A 0B 0C 0D 0E 0F
      -- -- -- -- -- -- -- --  -- -- -- -- -- -- -- --
04A0:                                         20 01 42                .B
04B0: 62 05 80 F0 FF FF 7F F0  FF FF 7F 6D 61 69 6E 01  b..........main.
04C0: 80 1C 25 80 47 00 2B 80  3B 80 35 80 29 80 47 01  ..%.G.+.;.5.).G.
04D0: 62 06 80 F0 FF FF 7F F0  FF FF 7F 6D 61 69 6E 01  b..........main.
04E0: 80 1C 25 80 20 00 03 01  10 3D 80 21 00           ..%. ....=.!.   
```

#### Opcodes

```
  0: 0x04AD [0x20] SET_CLI_EVENT_UC_FLAG: Lock player control
  1: 0x04AF [0x42] SET_CLI_EVENT_CANCEL_DATA()
  2: 0x04B0 [0x62] LOAD_EVENT_SCHEDULER: Load scheduler "main" with entities [LocalPlayer, LocalPlayer], work=[1*, 0*]
  3: 0x04C1 [0x1C] WAIT(180* ticks)
  4: 0x04C4 [0x47] UPDATE_PLAYER_POS(180.000*, -255.000*, 12.000*, yaw=90.0°*)
  5: 0x04CE [0x47] WAIT_PLAYER_POS_UPDATE
  6: 0x04D0 [0x62] LOAD_EVENT_SCHEDULER: Load scheduler "main" with entities [LocalPlayer, LocalPlayer], work=[2*, 0*]
  7: 0x04E1 [0x1C] WAIT(180* ticks)
  8: 0x04E4 [0x20] SET_CLI_EVENT_UC_FLAG: Unlock player control
  9: 0x04E6 [0x03] Work_Zone[1] = 1008*
 10: 0x04EB [0x21] END_EVENT
 11: 0x04EC [0x00] END_REQSTACK()
```

### Event 10019

#### Metadata

| Field        | Value    |
|--------------|----------|
| Entrypoint   | 0x04ED   |
| Data Size    | 64 bytes |
| Instructions | 12       |

```
      00 01 02 03 04 05 06 07  08 09 0A 0B 0C 0D 0E 0F
      -- -- -- -- -- -- -- --  -- -- -- -- -- -- -- --
04E0:                                         20 01 42                .B
04F0: 62 05 80 F0 FF FF 7F F0  FF FF 7F 6D 61 69 6E 01  b..........main.
0500: 80 1C 25 80 47 00 26 80  37 80 35 80 2F 80 47 01  ..%.G.&.7.5./.G.
0510: 62 06 80 F0 FF FF 7F F0  FF FF 7F 6D 61 69 6E 01  b..........main.
0520: 80 1C 25 80 20 00 03 01  10 3E 80 21 00           ..%. ....>.!.   
```

#### Opcodes

```
  0: 0x04ED [0x20] SET_CLI_EVENT_UC_FLAG: Lock player control
  1: 0x04EF [0x42] SET_CLI_EVENT_CANCEL_DATA()
  2: 0x04F0 [0x62] LOAD_EVENT_SCHEDULER: Load scheduler "main" with entities [LocalPlayer, LocalPlayer], work=[1*, 0*]
  3: 0x0501 [0x1C] WAIT(180* ticks)
  4: 0x0504 [0x47] UPDATE_PLAYER_POS(-220.000*, 332.000*, 12.000*, yaw=270.0°*)
  5: 0x050E [0x47] WAIT_PLAYER_POS_UPDATE
  6: 0x0510 [0x62] LOAD_EVENT_SCHEDULER: Load scheduler "main" with entities [LocalPlayer, LocalPlayer], work=[2*, 0*]
  7: 0x0521 [0x1C] WAIT(180* ticks)
  8: 0x0524 [0x20] SET_CLI_EVENT_UC_FLAG: Unlock player control
  9: 0x0526 [0x03] Work_Zone[1] = 1009*
 10: 0x052B [0x21] END_EVENT
 11: 0x052C [0x00] END_REQSTACK()
```

### Event 10001

#### Metadata

| Field        | Value    |
|--------------|----------|
| Entrypoint   | 0x052D   |
| Data Size    | 46 bytes |
| Instructions | 9        |

```
      00 01 02 03 04 05 06 07  08 09 0A 0B 0C 0D 0E 0F
      -- -- -- -- -- -- -- --  -- -- -- -- -- -- -- --
0520:                                         20 01 42                .B
0530: 62 05 80 F0 FF FF 7F F0  FF FF 7F 6D 61 69 6E 01  b..........main.
0540: 80 1C 3F 80 45 40 80 F0  FF FF 7F F0 FF FF 7F 66  ..?.E@.........f
0550: 64 6F 31 01 80 1C 41 80  30 21 00                 do1...A.0!.     
```

#### Opcodes

```
  0: 0x052D [0x20] SET_CLI_EVENT_UC_FLAG: Lock player control
  1: 0x052F [0x42] SET_CLI_EVENT_CANCEL_DATA()
  2: 0x0530 [0x62] LOAD_EVENT_SCHEDULER: Load scheduler "main" with entities [LocalPlayer, LocalPlayer], work=[1*, 0*]
  3: 0x0541 [0x1C] WAIT(90* ticks)
  4: 0x0544 [0x45] LOAD_SCHEDULED_TASK: Load scheduler "fdo1" with entities [LocalPlayer, LocalPlayer], work=[200*, 0*]
  5: 0x0555 [0x1C] WAIT(60* ticks)
  6: 0x0558 [0x30] SET_UCOFF_CONTINUE_ZERO()
  7: 0x0559 [0x21] END_EVENT
  8: 0x055A [0x00] END_REQSTACK()
```

### Event 10000

#### Metadata

| Field        | Value    |
|--------------|----------|
| Entrypoint   | 0x055B   |
| Data Size    | 54 bytes |
| Instructions | 10       |

```
      00 01 02 03 04 05 06 07  08 09 0A 0B 0C 0D 0E 0F
      -- -- -- -- -- -- -- --  -- -- -- -- -- -- -- --
0550:                                   20 01 42 02 09              .B..
0560: 10 01 80 00 7A 05 62 05  80 F0 FF FF 7F F0 FF FF  ....z.b.........
0570: 7F 6D 61 69 6E 01 80 1C  3F 80 45 40 80 F0 FF FF  .main...?.E@....
0580: 7F F0 FF FF 7F 66 64 6F  31 01 80 1C 41 80 30 21  .....fdo1...A.0!
0590: 00                                                .               
```

#### Opcodes

```
  0: 0x055B [0x20] SET_CLI_EVENT_UC_FLAG: Lock player control
  1: 0x055D [0x42] SET_CLI_EVENT_CANCEL_DATA()
  2: 0x055E [0x02] IF !(Work_Zone[9] == 0*) GOTO 0x057A
  3: 0x0566 [0x62] LOAD_EVENT_SCHEDULER: Load scheduler "main" with entities [LocalPlayer, LocalPlayer], work=[1*, 0*]
  4: 0x0577 [0x1C] WAIT(90* ticks)
  5: 0x057A [0x45] LOAD_SCHEDULED_TASK: Load scheduler "fdo1" with entities [LocalPlayer, LocalPlayer], work=[200*, 0*]
  6: 0x058B [0x1C] WAIT(60* ticks)
  7: 0x058E [0x30] SET_UCOFF_CONTINUE_ZERO()
  8: 0x058F [0x21] END_EVENT
  9: 0x0590 [0x00] END_REQSTACK()
```
