# Event 23

## Metadata

| Field           | Value    |
|-----------------|----------|
| Event Index     | 12/12    |
| Offset          | 0x0277   |
| Data Size       | 39 bytes |
| Calculated Size | 39 bytes |
| Instructions    | 13       |

```
      00 01 02 03 04 05 06 07  08 09 0A 0B 0C 0D 0E 0F
      -- -- -- -- -- -- -- --  -- -- -- -- -- -- -- --
0270:                      42  1E F0 FF FF 7F 6F 70 03         B.....op.
0280: 02 10 25 80 2B 33 F2 04  01 28 80 23 2B 33 F2 04  ..%.+3...(.#+3..
0290: 01 29 80 23 2B 33 F2 04  01 2A 80 23 21 00        .).#+3...*.#!.  
```

## Opcodes

```
  0: 0x0277 [0x42] SET_CLI_EVENT_CANCEL_DATA()
  1: 0x0278 [0x1E] EventEntity looks at LocalPlayer and starts talking
  2: 0x027D [0x6F] WAIT_FRAME_DELAY: Yield until WaitTime reaches zero
  3: 0x027E [0x70] WAIT_ENTITY_RENDER_FLAG: Wait while EventEntity->Render.Flags3 bit 2 is set (cancel turn if not)
  4: 0x027F [0x03] Work_Zone[2] = 860*
  5: 0x0284 [0x2B] Nahshib (ID: 17101363/0x0104F233) [7821*]:
    → "You...you lost another \u0001\u00053\u0002\u0000\u0000\u0000!?\u007F1\u0000\u0007"
  6: 0x028B [0x23] WAIT_FOR_DIALOG_INTERACTION
  7: 0x028C [0x2B] Nahshib (ID: 17101363/0x0104F233) [7822*]:
    → "Do you know how long it takes to get those things reissued?\u007F1\u0000\u0007"
  8: 0x0293 [0x23] WAIT_FOR_DIALOG_INTERACTION
  9: 0x0294 [0x2B] Nahshib (ID: 17101363/0x0104F233) [7823*]:
    → "Good-for-nothing, rock-headed mercenaries!\u0007Take your worthless hide out of here and gimme time to forget your oafish face!\u007F1\u0000\u0007"
 10: 0x029B [0x23] WAIT_FOR_DIALOG_INTERACTION
 11: 0x029C [0x21] END_EVENT
 12: 0x029D [0x00] END_REQSTACK()
```
