# Event 184

## Metadata

| Field           | Value    |
|-----------------|----------|
| Event Index     | 4/4      |
| Offset          | 0x00B9   |
| Data Size       | 71 bytes |
| Calculated Size | 71 bytes |
| Instructions    | 14       |

```
      00 01 02 03 04 05 06 07  08 09 0A 0B 0C 0D 0E 0F
      -- -- -- -- -- -- -- --  -- -- -- -- -- -- -- --
00B0:                             29 0B F0 FF FF 7F 0B           )......
00C0: 02 07 10 00 80 00 DC 00  4A 4C 00 0F 01 F0 FF FF  ........JL......
00D0: 7F 2B 4C 00 0F 01 09 80  23 01 FC 00 29 0B F0 FF  .+L.....#...)...
00E0: FF 7F 0D 02 08 10 00 80  00 FC 00 4A 4D 00 0F 01  ...........JM...
00F0: F0 FF FF 7F 2B 4D 00 0F  01 07 80 23 20 00 21 00  ....+M.....# .!.
```

## Opcodes

```
  0: 0x00B9 [0x29] REQ_SET_WAIT(priority=0x0B, entity_id=LocalPlayer, tag_num=0x0B)
  1: 0x00C0 [0x02] IF !(Work_Zone[7] == 1*) GOTO 0x00DC
  2: 0x00C8 [0x4A] Honorio (ID: 17760332/0x010F004C) looks at LocalPlayer
  3: 0x00D1 [0x2B] Honorio (ID: 17760332/0x010F004C) [3564*]:
    → "Before you can ride on an airship, we require a payment of 
\u0007 gil from you.\u007F1\u0000\u0007"
  4: 0x00D8 [0x23] WAIT_FOR_DIALOG_INTERACTION
  5: 0x00D9 [0x01] GOTO 0x00FC

SUBROUTINE_00DC:
  6: 0x00DC [0x29] REQ_SET_WAIT(priority=0x0B, entity_id=LocalPlayer, tag_num=0x0D)
  7: 0x00E3 [0x02] IF !(Work_Zone[8] == 1*) GOTO 0x00FC
  8: 0x00EB [0x4A] Breanainn (ID: 17760333/0x010F004D) looks at LocalPlayer
  9: 0x00F4 [0x2B] Breanainn (ID: 17760333/0x010F004D) [3567*]:
    → "That door is for departures only. Arrivals to Windurst should pass through this door here.\u007F1\u0000\u0007"
 10: 0x00FB [0x23] WAIT_FOR_DIALOG_INTERACTION
 11: 0x00FC [0x20] SET_CLI_EVENT_UC_FLAG: Unlock player control
 12: 0x00FE [0x21] END_EVENT
 13: 0x00FF [0x00] END_REQSTACK()
```
