# Event 49

## Metadata

| Field           | Value    |
|-----------------|----------|
| Event Index     | 13/15    |
| Offset          | 0x0094   |
| Data Size       | 52 bytes |
| Calculated Size | 52 bytes |
| Instructions    | 12       |

```
      00 01 02 03 04 05 06 07  08 09 0A 0B 0C 0D 0E 0F
      -- -- -- -- -- -- -- --  -- -- -- -- -- -- -- --
0090:             1E F0 FF FF  7F 6F 70 66 0E 80 F8 FF      .....opf....
00A0: FF 7F F8 FF FF 7F 74 6C  6B 30 03 02 10 11 80 1D  ......tlk0......
00B0: 12 80 23 66 0E 80 F8 FF  FF 7F F8 FF FF 7F 74 6C  ..#f..........tl
00C0: 6B 31 1D 13 80 23 21 00                           k1...#!.        
```

## Opcodes

```
  0: 0x0094 [0x1E] EventEntity looks at LocalPlayer and starts talking
  1: 0x0099 [0x6F] WAIT_FRAME_DELAY: Yield until WaitTime reaches zero
  2: 0x009A [0x70] WAIT_ENTITY_RENDER_FLAG: Wait while EventEntity->Render.Flags3 bit 2 is set (cancel turn if not)
  3: 0x009B [0x66] LOAD_EXT_SCHEDULER_MAIN(work_offset=40*, entity1=EventEntity, entity2=EventEntity, action="tlk0")
  4: 0x00AA [0x03] Work_Zone[2] = 4359*
  5: 0x00AF [0x1D] PRINT_EVENT_MESSAGE(message_id=9168*)
    → "That son of mine!\u0007I found out he's been secretly hoarding \u0001\u0005%\u0002\u0000\u0000\u0000 at the port.\u007F1\u0000\u0007"
  6: 0x00B2 [0x23] WAIT_FOR_DIALOG_INTERACTION
  7: 0x00B3 [0x66] LOAD_EXT_SCHEDULER_MAIN(work_offset=40*, entity1=EventEntity, entity2=EventEntity, action="tlk1")
  8: 0x00C2 [0x1D] PRINT_EVENT_MESSAGE(message_id=9169*)
    → "I wonder what that little rascally-wascal is up to now...\u007F1\u0000\u0007"
  9: 0x00C5 [0x23] WAIT_FOR_DIALOG_INTERACTION
 10: 0x00C6 [0x21] END_EVENT
 11: 0x00C7 [0x00] END_REQSTACK()
```
