# Event 65535

## Metadata

| Field           | Value    |
|-----------------|----------|
| Event Index     | 6/6      |
| Offset          | 0x00C8   |
| Data Size       | 41 bytes |
| Calculated Size | 41 bytes |
| Instructions    | 8        |

```
      00 01 02 03 04 05 06 07  08 09 0A 0B 0C 0D 0E 0F
      -- -- -- -- -- -- -- --  -- -- -- -- -- -- -- --
00C0:                          02 01 00 01 80 00 F0 00          ........
00D0: D8 01 04 41 0F 01 00 00  07 00 00 0B 80 02 00 00  ...A............
00E0: 0C 80 02 EA 00 03 00 00  01 80 1C 07 80 01 C8 00  ................
00F0: 00                                                .               
```

## Opcodes

```
  0: 0x00C8 [0x02] IF !(ExtData[1]->WorkLocal[1] == 0*) GOTO 0x00F0
  1: 0x00D0 [0xD8] SET_ENTITY_EVENT_DIR: Set Unnamed NPC (ID: 17776900/0x010F4104) EventDir[0] = ExtData[1]->WorkLocal[0]
  2: 0x00D8 [0x07] ExtData[1]->WorkLocal[0] += 64*
  3: 0x00DD [0x02] IF !(ExtData[1]->WorkLocal[0] <= 4096*) GOTO 0x00EA
  4: 0x00E5 [0x03] ExtData[1]->WorkLocal[0] = 0*
  5: 0x00EA [0x1C] WAIT(1* ticks)
  6: 0x00ED [0x01] GOTO 0x00C8

SUBROUTINE_00F0:
  7: 0x00F0 [0x00] END_REQSTACK()
```
