# Event 65535

## Metadata

| Field           | Value    |
|-----------------|----------|
| Event Index     | 80/85    |
| Offset          | 0x0473   |
| Data Size       | 53 bytes |
| Calculated Size | 53 bytes |
| Instructions    | 11       |

```
      00 01 02 03 04 05 06 07  08 09 0A 0B 0C 0D 0E 0F
      -- -- -- -- -- -- -- --  -- -- -- -- -- -- -- --
0470:          32 06 80 5A 00  07 80 08 80 09 80 5A 01     2..Z.......Z.
0480: 5A 00 0A 80 0B 80 0C 80  5A 01 1C 0D 80 AB 03 AC  Z.......Z.......
0490: 01 04 80 1C 0E 80 45 0F  80 F8 FF FF 7F F8 FF FF  ......E.........
04A0: 7F 38 31 36 37 05 80 00                           .8167...        
```

## Opcodes

```
  0: 0x0473 [0x32] ExtData[1]->MainSpeed = 40* * 0.1
  1: 0x0476 [0x5A] UPDATE_EVENT_POSITION: Set EventEntity MovePosition to X=-582.034*, Z=295.195*, Y=-4.757*
  2: 0x047E [0x5A] UPDATE_EVENT_POSITION: Move EventEntity incrementally towards MovePosition
  3: 0x0480 [0x5A] UPDATE_EVENT_POSITION: Set EventEntity MovePosition to X=-586.302*, Z=291.886*, Y=-4.605*
  4: 0x0488 [0x5A] UPDATE_EVENT_POSITION: Move EventEntity incrementally towards MovePosition
  5: 0x048A [0x1C] WAIT(20* ticks)
  6: 0x048D [0xAB] EventEntity->Render.Flags0 ^= 0x20000 // Toggle bit 17
  7: 0x048F [0xAC] EventEntity->StatusEvent = 1*
  8: 0x0493 [0x1C] WAIT(10* ticks)
  9: 0x0496 [0x45] LOAD_SCHEDULED_TASK: Load scheduler "8167" with entities [EventEntity, EventEntity], work=[882*, 0*]
 10: 0x04A7 [0x00] END_REQSTACK()
```
