# Event 65535

## Metadata

| Field           | Value    |
|-----------------|----------|
| Event Index     | 19/35    |
| Offset          | 0x03EF   |
| Data Size       | 48 bytes |
| Calculated Size | 48 bytes |
| Instructions    | 11       |

```
      00 01 02 03 04 05 06 07  08 09 0A 0B 0C 0D 0E 0F
      -- -- -- -- -- -- -- --  -- -- -- -- -- -- -- --
03E0:                                               59                 Y
03F0: 04 F8 FF FF 7F 5F 80 1F  00 6A 80 6B 80 6C 80 1F  ....._...j.k.l..
0400: 01 1F 00 6D 80 6E 80 58  80 1F 01 1F 00 6F 80 70  ...m.n.X.....o.p
0410: 80 58 80 1F 01 6F 22 01  2F 01 F8 FF FF 7F 00     .X...o"./...... 
```

## Opcodes

```
  0: 0x03EF [0x59] UPDATE_ENTITY_DATA: Set EventEntity main speed = 27* * 0.1
  1: 0x03F7 [0x1F] MOVE_ENTITY: EventEntity moves to X=-27.766*, Z=73.600*, Y=-3.414*
  2: 0x03FF [0x1F] MOVE_ENTITY: Update entity position (mode=1)
  3: 0x0401 [0x1F] MOVE_ENTITY: EventEntity moves to X=-52.430*, Z=73.638*, Y=-3.500*
  4: 0x0409 [0x1F] MOVE_ENTITY: Update entity position (mode=1)
  5: 0x040B [0x1F] MOVE_ENTITY: EventEntity moves to X=-54.193*, Z=72.044*, Y=-3.500*
  6: 0x0413 [0x1F] MOVE_ENTITY: Update entity position (mode=1)
  7: 0x0415 [0x6F] WAIT_FRAME_DELAY: Yield until WaitTime reaches zero
  8: 0x0416 [0x22] ENTITY_HIDE_FLAG(enabled=0x01)
  9: 0x0418 [0x2F] EventEntity->Render.Flags0 |= 0x80000 // Bit 19
 10: 0x041E [0x00] END_REQSTACK()
```
