# Event 42

## Metadata

| Field           | Value    |
|-----------------|----------|
| Event Index     | 4/4      |
| Offset          | 0x00D1   |
| Data Size       | 62 bytes |
| Calculated Size | 62 bytes |
| Instructions    | 13       |

```
      00 01 02 03 04 05 06 07  08 09 0A 0B 0C 0D 0E 0F
      -- -- -- -- -- -- -- --  -- -- -- -- -- -- -- --
00D0:    3B F0 FF FF 7F 01 00  02 00 03 00 02 02 00 00   ;..............
00E0: 80 03 F8 00 4A 0E 60 0F  01 F0 FF FF 7F 2B 0E 60  ....J.`......+.`
00F0: 0F 01 0E 80 23 01 FB 00  1A FD 00 21 00 4A 0D 60  ....#......!.J.`
0100: 0F 01 F0 FF FF 7F 2B 0D  60 0F 01 0F 80 23 1B     ......+.`....#. 
```

## Opcodes

```
  0: 0x00D1 [0x3B] GET_ENTITY_POSITION(entity=LocalPlayer, x_destination=ExtData[1]->WorkLocal[1], y_destination=ExtData[1]->WorkLocal[2], z_destination=ExtData[1]->WorkLocal[3])
  1: 0x00DC [0x02] IF !(ExtData[1]->WorkLocal[2] >= 57800*) GOTO 0x00F8
  2: 0x00E4 [0x4A] Purequane (ID: 17784846/0x010F600E) looks at LocalPlayer
  3: 0x00ED [0x2B] Purequane (ID: 17784846/0x010F600E) [7107*]:
    → "I'm sorry, but your boarding rights have been temporarily revoked. Have a nice day.\u007F1\u0000\u0007"
  4: 0x00F4 [0x23] WAIT_FOR_DIALOG_INTERACTION
  5: 0x00F5 [0x01] GOTO 0x00FB

SUBROUTINE_00F8:
  6: 0x00F8 [0x1A] CALL_SUBROUTINE(address=0x00FD)
  7: 0x00FB [0x21] END_EVENT
  8: 0x00FC [0x00] END_REQSTACK()

SUBROUTINE_00FD:
  9: 0x00FD [0x4A] Moulloie (ID: 17784845/0x010F600D) looks at LocalPlayer
 10: 0x0106 [0x2B] Moulloie (ID: 17784845/0x010F600D) [7088*]:
    → "This is the departures exit. You can't go out this way. Try the next door, please.\u007F1\u0000\u0007"
 11: 0x010D [0x23] WAIT_FOR_DIALOG_INTERACTION
 12: 0x010E [0x1B] RETURN
```
