# Event 65535

## Metadata

| Field           | Value    |
|-----------------|----------|
| Event Index     | 6/6      |
| Offset          | 0x00A8   |
| Data Size       | 75 bytes |
| Calculated Size | 75 bytes |
| Instructions    | 8        |

```
      00 01 02 03 04 05 06 07  08 09 0A 0B 0C 0D 0E 0F
      -- -- -- -- -- -- -- --  -- -- -- -- -- -- -- --
00A0:                          81 00 F8 FF FF 7F 5B 02          ......[.
00B0: 80 F8 FF FF 7F F8 FF FF  7F 6B 65 6E 33 1C 07 80  .........ken3...
00C0: 45 08 80 F0 FF FF 7F F0  FF FF 7F 73 65 30 31 00  E..........se01.
00D0: 80 1C 09 80 45 08 80 F0  FF FF 7F F0 FF FF 7F 73  ....E..........s
00E0: 65 30 31 00 80 53 F8 FF  FF 7F F8 FF FF 7F 6B 65  e01..S........ke
00F0: 6E 33 00                                          n3.             
```

## Opcodes

```
  0: 0x00A8 [0x81] SET_ENTITY_BLINKING(blink_flag=0x00, entity=EventEntity)
  1: 0x00AE [0x5B] LOAD_EXT_SCHEDULER: Load scheduler "ken3" with entities [EventEntity, EventEntity], work=29*
  2: 0x00BD [0x1C] WAIT(10* ticks)
  3: 0x00C0 [0x45] LOAD_SCHEDULED_TASK: Load scheduler "se01" with entities [LocalPlayer, LocalPlayer], work=[243*, 0*]
  4: 0x00D1 [0x1C] WAIT(140* ticks)
  5: 0x00D4 [0x45] LOAD_SCHEDULED_TASK: Load scheduler "se01" with entities [LocalPlayer, LocalPlayer], work=[243*, 0*]
  6: 0x00E5 [0x53] WAIT_SCHEDULER_TASK: Wait for scheduler "ken3" with entities [EventEntity, EventEntity]
  7: 0x00F2 [0x00] END_REQSTACK()
```
