# 17076969 - Weather

## Common Data

| Field            | Value                     |
|------------------|---------------------------|
| Zone             | Zhayolm Remnants (ID: 73) |
| Block Size       | 684 bytes                 |
| Total Events     | 10                        |
| References Count | 16                        |

## List of Events

| Event ID                 | Entrypoint   |   Size |   Instructions |
|--------------------------|--------------|--------|----------------|
| [65535](#event-65535)    | 0x0000       |      1 |              1 |
| [65535.1](#event-655351) | 0x0001       |     16 |              8 |
| [65535.2](#event-655352) | 0x0011       |     15 |              7 |
| [100](#event-100)        | 0x0020       |      1 |              1 |
| [101](#event-101)        | 0x0021       |      1 |              1 |
| [210](#event-210)        | 0x0022       |      1 |              1 |
| [211](#event-211)        | 0x0023       |      1 |              1 |
| [212](#event-212)        | 0x0024       |      1 |              1 |
| [3](#event-3)            | 0x0025       |      1 |              1 |
| [2](#event-2)            | 0x0026       |    526 |             86 |

## DAT References (imed_data)

|   Index | Hex Value   |   Dec Value |
|---------|-------------|-------------|
|       0 | 0x000F      |          15 |
|       1 | 0x001E      |          30 |
|       2 | 0x003C      |          60 |
|       3 | 0x0000      |           0 |
|       4 | 0x0010      |          16 |
|       5 | 0x001F      |          31 |
|       6 | 0x0001      |           1 |
|       7 | 0x0002      |           2 |
|       8 | 0x0003      |           3 |
|       9 | 0x0004      |           4 |
|      10 | 0x0005      |           5 |
|      11 | 0x0006      |           6 |
|      12 | 0x0007      |           7 |
|      13 | 0x0008      |           8 |
|      14 | 0xFFFFFFFF  |  4294967295 |
|      15 | 0x1C4F      |        7247 |

## String References

- **7247**: What do you take? [Nothing./$1 ($2 remaining)/$3 ($4 remaining)/$5 ($6 remaining)/$7 ($8 remaining)/$9 ($10 remaining)/$11 ($12 remaining)/$13 ($14 remaining)/$15 ($16 remaining)]

## Events

### Event 65535

#### Metadata

| Field        | Value   |
|--------------|---------|
| Entrypoint   | 0x0000  |
| Data Size    | 1 bytes |
| Instructions | 1       |

```
      00 01 02 03 04 05 06 07  08 09 0A 0B 0C 0D 0E 0F
      -- -- -- -- -- -- -- --  -- -- -- -- -- -- -- --
0000: 00                                                .               
```

#### Opcodes

```
  0: 0x0000 [0x00] END_REQSTACK()
```

### Event 65535.1

#### Metadata

| Field        | Value    |
|--------------|----------|
| Entrypoint   | 0x0001   |
| Data Size    | 16 bytes |
| Instructions | 8        |

```
      00 01 02 03 04 05 06 07  08 09 0A 0B 0C 0D 0E 0F
      -- -- -- -- -- -- -- --  -- -- -- -- -- -- -- --
0000:    AB 06 1C 00 80 4C 1C  00 80 4D 1C 01 80 AB 05   .....L...M.....
0010: 00                                                .               
```

#### Opcodes

```
  0: 0x0001 [0xAB] EventEntity->Render.Flags0 ^= (Flags0 ^ 0x200000) & 0x200000 // Manipulate bit 21
  1: 0x0003 [0x1C] WAIT(15* ticks)
  2: 0x0006 [0x4C] EventEntity->StatusEvent = 8 // Open door
  3: 0x0007 [0x1C] WAIT(15* ticks)
  4: 0x000A [0x4D] EventEntity->StatusEvent = 9 // Close door
  5: 0x000B [0x1C] WAIT(30* ticks)
  6: 0x000E [0xAB] EventEntity->Render.Flags0 &= ~0x40000 // Clear bit 18
  7: 0x0010 [0x00] END_REQSTACK()
```

### Event 65535.2

#### Metadata

| Field        | Value    |
|--------------|----------|
| Entrypoint   | 0x0011   |
| Data Size    | 15 bytes |
| Instructions | 7        |

```
      00 01 02 03 04 05 06 07  08 09 0A 0B 0C 0D 0E 0F
      -- -- -- -- -- -- -- --  -- -- -- -- -- -- -- --
0010:    AB 06 1C 00 80 1C 00  80 4C 1C 01 80 AB 05 00   ........L......
```

#### Opcodes

```
  0: 0x0011 [0xAB] EventEntity->Render.Flags0 ^= (Flags0 ^ 0x200000) & 0x200000 // Manipulate bit 21
  1: 0x0013 [0x1C] WAIT(15* ticks)
  2: 0x0016 [0x1C] WAIT(15* ticks)
  3: 0x0019 [0x4C] EventEntity->StatusEvent = 8 // Open door
  4: 0x001A [0x1C] WAIT(30* ticks)
  5: 0x001D [0xAB] EventEntity->Render.Flags0 &= ~0x40000 // Clear bit 18
  6: 0x001F [0x00] END_REQSTACK()
```

### Event 100

#### Metadata

| Field        | Value   |
|--------------|---------|
| Entrypoint   | 0x0020  |
| Data Size    | 1 bytes |
| Instructions | 1       |

```
      00 01 02 03 04 05 06 07  08 09 0A 0B 0C 0D 0E 0F
      -- -- -- -- -- -- -- --  -- -- -- -- -- -- -- --
0020: 00                                                .               
```

#### Opcodes

```
  0: 0x0020 [0x00] END_REQSTACK()
```

### Event 101

#### Metadata

| Field        | Value   |
|--------------|---------|
| Entrypoint   | 0x0021  |
| Data Size    | 1 bytes |
| Instructions | 1       |

```
      00 01 02 03 04 05 06 07  08 09 0A 0B 0C 0D 0E 0F
      -- -- -- -- -- -- -- --  -- -- -- -- -- -- -- --
0020:    00                                              .              
```

#### Opcodes

```
  0: 0x0021 [0x00] END_REQSTACK()
```

### Event 210

#### Metadata

| Field        | Value   |
|--------------|---------|
| Entrypoint   | 0x0022  |
| Data Size    | 1 bytes |
| Instructions | 1       |

```
      00 01 02 03 04 05 06 07  08 09 0A 0B 0C 0D 0E 0F
      -- -- -- -- -- -- -- --  -- -- -- -- -- -- -- --
0020:       00                                            .             
```

#### Opcodes

```
  0: 0x0022 [0x00] END_REQSTACK()
```

### Event 211

#### Metadata

| Field        | Value   |
|--------------|---------|
| Entrypoint   | 0x0023  |
| Data Size    | 1 bytes |
| Instructions | 1       |

```
      00 01 02 03 04 05 06 07  08 09 0A 0B 0C 0D 0E 0F
      -- -- -- -- -- -- -- --  -- -- -- -- -- -- -- --
0020:          00                                          .            
```

#### Opcodes

```
  0: 0x0023 [0x00] END_REQSTACK()
```

### Event 212

#### Metadata

| Field        | Value   |
|--------------|---------|
| Entrypoint   | 0x0024  |
| Data Size    | 1 bytes |
| Instructions | 1       |

```
      00 01 02 03 04 05 06 07  08 09 0A 0B 0C 0D 0E 0F
      -- -- -- -- -- -- -- --  -- -- -- -- -- -- -- --
0020:             00                                        .           
```

#### Opcodes

```
  0: 0x0024 [0x00] END_REQSTACK()
```

### Event 3

#### Metadata

| Field        | Value   |
|--------------|---------|
| Entrypoint   | 0x0025  |
| Data Size    | 1 bytes |
| Instructions | 1       |

```
      00 01 02 03 04 05 06 07  08 09 0A 0B 0C 0D 0E 0F
      -- -- -- -- -- -- -- --  -- -- -- -- -- -- -- --
0020:                00                                      .          
```

#### Opcodes

```
  0: 0x0025 [0x00] END_REQSTACK()
```

### Event 2

#### Metadata

| Field        | Value     |
|--------------|-----------|
| Entrypoint   | 0x0026    |
| Data Size    | 526 bytes |
| Instructions | 86        |

```
      00 01 02 03 04 05 06 07  08 09 0A 0B 0C 0D 0E 0F
      -- -- -- -- -- -- -- --  -- -- -- -- -- -- -- --
0020:                   20 01  1C 02 80 41 03 80 00 80         ....A....
0030: 02 10 02 00 41 04 80 05  80 02 10 03 00 41 03 80  ....A........A..
0040: 00 80 03 10 04 00 41 04  80 05 80 03 10 05 00 41  ......A........A
0050: 03 80 00 80 04 10 06 00  41 04 80 05 80 04 10 07  ........A.......
0060: 00 41 03 80 00 80 05 10  08 00 41 04 80 05 80 05  .A........A.....
0070: 10 09 00 41 03 80 00 80  06 10 0A 00 41 04 80 05  ...A........A...
0080: 80 06 10 0B 00 41 03 80  00 80 07 10 0C 00 41 04  .....A........A.
0090: 80 05 80 07 10 0D 00 41  03 80 00 80 08 10 0E 00  .......A........
00A0: 41 04 80 05 80 08 10 0F  00 41 03 80 00 80 09 10  A........A......
00B0: 10 00 41 04 80 05 80 09  10 11 00 03 03 10 02 00  ..A.............
00C0: 03 04 10 03 00 03 05 10  04 00 03 06 10 05 00 03  ................
00D0: 07 10 06 00 03 08 10 07  00 03 09 10 08 00 03 00  ................
00E0: 17 09 00 03 01 17 0A 00  03 02 17 0B 00 03 03 17  ................
00F0: 0C 00 03 04 17 0D 00 03  05 17 0E 00 03 06 17 0F  ................
0100: 00 03 07 17 10 00 03 08  17 11 00 03 00 00 03 80  ................
0110: 3C 00 00 03 80 06 80 02  03 00 03 80 02 26 01 3C  <............&.<
0120: 00 00 06 80 06 80 02 05  00 03 80 02 35 01 3C 00  ............5.<.
0130: 00 07 80 06 80 02 07 00  03 80 02 44 01 3C 00 00  ...........D.<..
0140: 08 80 06 80 02 09 00 03  80 02 53 01 3C 00 00 09  ..........S.<...
0150: 80 06 80 02 0B 00 03 80  02 62 01 3C 00 00 0A 80  .........b.<....
0160: 06 80 02 0D 00 03 80 02  71 01 3C 00 00 0B 80 06  ........q.<.....
0170: 80 02 0F 00 03 80 02 80  01 3C 00 00 0C 80 06 80  .........<......
0180: 02 11 00 03 80 02 8F 01  3C 00 00 0D 80 06 80 03  ........<.......
0190: 01 00 0E 80 0F 01 00 00  00 24 0F 80 03 80 01 00  .........$......
01A0: 25 02 00 10 03 80 00 B1  01 03 01 10 03 80 01 31  %..............1
01B0: 02 02 00 10 06 80 00 C1  01 03 01 10 06 80 01 31  ...............1
01C0: 02 02 00 10 07 80 00 D1  01 03 01 10 07 80 01 31  ...............1
01D0: 02 02 00 10 08 80 00 E1  01 03 01 10 08 80 01 31  ...............1
01E0: 02 02 00 10 09 80 00 F1  01 03 01 10 09 80 01 31  ...............1
01F0: 02 02 00 10 0A 80 00 01  02 03 01 10 0A 80 01 31  ...............1
0200: 02 02 00 10 0B 80 00 11  02 03 01 10 0B 80 01 31  ...............1
0210: 02 02 00 10 0C 80 00 21  02 03 01 10 0C 80 01 31  .......!.......1
0220: 02 02 00 10 0D 80 00 31  02 03 01 10 0D 80 01 31  .......1.......1
0230: 02 42 21 00                                       .B!.            
```

#### Opcodes

```
  0: 0x0026 [0x20] SET_CLI_EVENT_UC_FLAG: Lock player control
  1: 0x0028 [0x1C] WAIT(60* ticks)
  2: 0x002B [0x41] ExtData[1]->WorkLocal[2] = Work_Zone[2] (bits 0*-15*)
  3: 0x0034 [0x41] ExtData[1]->WorkLocal[3] = Work_Zone[2] (bits 16*-31*)
  4: 0x003D [0x41] ExtData[1]->WorkLocal[4] = Work_Zone[3] (bits 0*-15*)
  5: 0x0046 [0x41] ExtData[1]->WorkLocal[5] = Work_Zone[3] (bits 16*-31*)
  6: 0x004F [0x41] ExtData[1]->WorkLocal[6] = Work_Zone[4] (bits 0*-15*)
  7: 0x0058 [0x41] ExtData[1]->WorkLocal[7] = Work_Zone[4] (bits 16*-31*)
  8: 0x0061 [0x41] ExtData[1]->WorkLocal[8] = Work_Zone[5] (bits 0*-15*)
  9: 0x006A [0x41] ExtData[1]->WorkLocal[9] = Work_Zone[5] (bits 16*-31*)
 10: 0x0073 [0x41] ExtData[1]->WorkLocal[10] = Work_Zone[6] (bits 0*-15*)
 11: 0x007C [0x41] ExtData[1]->WorkLocal[11] = Work_Zone[6] (bits 16*-31*)
 12: 0x0085 [0x41] ExtData[1]->WorkLocal[12] = Work_Zone[7] (bits 0*-15*)
 13: 0x008E [0x41] ExtData[1]->WorkLocal[13] = Work_Zone[7] (bits 16*-31*)
 14: 0x0097 [0x41] ExtData[1]->WorkLocal[14] = Work_Zone[8] (bits 0*-15*)
 15: 0x00A0 [0x41] ExtData[1]->WorkLocal[15] = Work_Zone[8] (bits 16*-31*)
 16: 0x00A9 [0x41] ExtData[1]->WorkLocal[16] = Work_Zone[9] (bits 0*-15*)
 17: 0x00B2 [0x41] ExtData[1]->WorkLocal[17] = Work_Zone[9] (bits 16*-31*)
 18: 0x00BB [0x03] Work_Zone[3] = ExtData[1]->WorkLocal[2]
 19: 0x00C0 [0x03] Work_Zone[4] = ExtData[1]->WorkLocal[3]
 20: 0x00C5 [0x03] Work_Zone[5] = ExtData[1]->WorkLocal[4]
 21: 0x00CA [0x03] Work_Zone[6] = ExtData[1]->WorkLocal[5]
 22: 0x00CF [0x03] Work_Zone[7] = ExtData[1]->WorkLocal[6]
 23: 0x00D4 [0x03] Work_Zone[8] = ExtData[1]->WorkLocal[7]
 24: 0x00D9 [0x03] Work_Zone[9] = ExtData[1]->WorkLocal[8]
 25: 0x00DE [0x03] Work_Zone_1700[0] = ExtData[1]->WorkLocal[9]
 26: 0x00E3 [0x03] Work_Zone_1700[1] = ExtData[1]->WorkLocal[10]
 27: 0x00E8 [0x03] Work_Zone_1700[2] = ExtData[1]->WorkLocal[11]
 28: 0x00ED [0x03] Work_Zone_1700[3] = ExtData[1]->WorkLocal[12]
 29: 0x00F2 [0x03] Work_Zone_1700[4] = ExtData[1]->WorkLocal[13]
 30: 0x00F7 [0x03] Work_Zone_1700[5] = ExtData[1]->WorkLocal[14]
 31: 0x00FC [0x03] Work_Zone_1700[6] = ExtData[1]->WorkLocal[15]
 32: 0x0101 [0x03] Work_Zone_1700[7] = ExtData[1]->WorkLocal[16]
 33: 0x0106 [0x03] Work_Zone_1700[8] = ExtData[1]->WorkLocal[17]
 34: 0x010B [0x03] ExtData[1]->WorkLocal[0] = 0*
 35: 0x0110 [0x3C] SET_BIT_FLAG_CONDITIONAL(target_work_offset=ExtData[1]->WorkLocal[0], bit_index_work_offset=0*, condition_work_offset=1*)
 36: 0x0117 [0x02] IF !(ExtData[1]->WorkLocal[3] <= 0*) GOTO 0x0126
 37: 0x011F [0x3C] SET_BIT_FLAG_CONDITIONAL(target_work_offset=ExtData[1]->WorkLocal[0], bit_index_work_offset=1*, condition_work_offset=1*)
 38: 0x0126 [0x02] IF !(ExtData[1]->WorkLocal[5] <= 0*) GOTO 0x0135
 39: 0x012E [0x3C] SET_BIT_FLAG_CONDITIONAL(target_work_offset=ExtData[1]->WorkLocal[0], bit_index_work_offset=2*, condition_work_offset=1*)
 40: 0x0135 [0x02] IF !(ExtData[1]->WorkLocal[7] <= 0*) GOTO 0x0144
 41: 0x013D [0x3C] SET_BIT_FLAG_CONDITIONAL(target_work_offset=ExtData[1]->WorkLocal[0], bit_index_work_offset=3*, condition_work_offset=1*)
 42: 0x0144 [0x02] IF !(ExtData[1]->WorkLocal[9] <= 0*) GOTO 0x0153
 43: 0x014C [0x3C] SET_BIT_FLAG_CONDITIONAL(target_work_offset=ExtData[1]->WorkLocal[0], bit_index_work_offset=4*, condition_work_offset=1*)
 44: 0x0153 [0x02] IF !(ExtData[1]->WorkLocal[11] <= 0*) GOTO 0x0162
 45: 0x015B [0x3C] SET_BIT_FLAG_CONDITIONAL(target_work_offset=ExtData[1]->WorkLocal[0], bit_index_work_offset=5*, condition_work_offset=1*)
 46: 0x0162 [0x02] IF !(ExtData[1]->WorkLocal[13] <= 0*) GOTO 0x0171
 47: 0x016A [0x3C] SET_BIT_FLAG_CONDITIONAL(target_work_offset=ExtData[1]->WorkLocal[0], bit_index_work_offset=6*, condition_work_offset=1*)
 48: 0x0171 [0x02] IF !(ExtData[1]->WorkLocal[15] <= 0*) GOTO 0x0180
 49: 0x0179 [0x3C] SET_BIT_FLAG_CONDITIONAL(target_work_offset=ExtData[1]->WorkLocal[0], bit_index_work_offset=7*, condition_work_offset=1*)
 50: 0x0180 [0x02] IF !(ExtData[1]->WorkLocal[17] <= 0*) GOTO 0x018F
 51: 0x0188 [0x3C] SET_BIT_FLAG_CONDITIONAL(target_work_offset=ExtData[1]->WorkLocal[0], bit_index_work_offset=8*, condition_work_offset=1*)
 52: 0x018F [0x03] ExtData[1]->WorkLocal[1] = 4294967295*
 53: 0x0194 [0x0F] ExtData[1]->WorkLocal[1] ^= ExtData[1]->WorkLocal[0]
 54: 0x0199 [0x24] CREATE_DIALOG(message_id=7247*, default_option=0*, option_flags=ExtData[1]->WorkLocal[1])
    → "What do you take? [Nothing./$1 ($2 remaining)/$3 ($4 remaining)/$5 ($6 remaining)/$7 ($8 remaining)/$9 ($10 remaining)/$11 ($12 remaining)/$13 ($14 remaining)/$15 ($16 remaining)]"
 55: 0x01A0 [0x25] WAIT_DIALOG_SELECT()
 56: 0x01A1 [0x02] IF !(Work_Zone[0] == 0*) GOTO 0x01B1
 57: 0x01A9 [0x03] Work_Zone[1] = 0*
 58: 0x01AE [0x01] GOTO 0x0231
 59: 0x01B1 [0x02] IF !(Work_Zone[0] == 1*) GOTO 0x01C1
 60: 0x01B9 [0x03] Work_Zone[1] = 1*
 61: 0x01BE [0x01] GOTO 0x0231
 62: 0x01C1 [0x02] IF !(Work_Zone[0] == 2*) GOTO 0x01D1
 63: 0x01C9 [0x03] Work_Zone[1] = 2*
 64: 0x01CE [0x01] GOTO 0x0231
 65: 0x01D1 [0x02] IF !(Work_Zone[0] == 3*) GOTO 0x01E1
 66: 0x01D9 [0x03] Work_Zone[1] = 3*
 67: 0x01DE [0x01] GOTO 0x0231
 68: 0x01E1 [0x02] IF !(Work_Zone[0] == 4*) GOTO 0x01F1
 69: 0x01E9 [0x03] Work_Zone[1] = 4*
 70: 0x01EE [0x01] GOTO 0x0231
 71: 0x01F1 [0x02] IF !(Work_Zone[0] == 5*) GOTO 0x0201
 72: 0x01F9 [0x03] Work_Zone[1] = 5*
 73: 0x01FE [0x01] GOTO 0x0231
 74: 0x0201 [0x02] IF !(Work_Zone[0] == 6*) GOTO 0x0211
 75: 0x0209 [0x03] Work_Zone[1] = 6*
 76: 0x020E [0x01] GOTO 0x0231
 77: 0x0211 [0x02] IF !(Work_Zone[0] == 7*) GOTO 0x0221
 78: 0x0219 [0x03] Work_Zone[1] = 7*
 79: 0x021E [0x01] GOTO 0x0231
 80: 0x0221 [0x02] IF !(Work_Zone[0] == 8*) GOTO 0x0231
 81: 0x0229 [0x03] Work_Zone[1] = 8*
 82: 0x022E [0x01] GOTO 0x0231

SUBROUTINE_0231:
 83: 0x0231 [0x42] SET_CLI_EVENT_CANCEL_DATA()
 84: 0x0232 [0x21] END_EVENT
 85: 0x0233 [0x00] END_REQSTACK()
```
