# Event 65535

## Metadata

| Field           | Value    |
|-----------------|----------|
| Event Index     | 33/43    |
| Offset          | 0x0291   |
| Data Size       | 82 bytes |
| Calculated Size | 82 bytes |
| Instructions    | 14       |

```
      00 01 02 03 04 05 06 07  08 09 0A 0B 0C 0D 0E 0F
      -- -- -- -- -- -- -- --  -- -- -- -- -- -- -- --
0290:    4A F8 FF FF 7F 8B 02  05 01 1C 2F 80 4A F8 FF   J........./.J..
02A0: FF 7F 8D 02 05 01 1C 3A  80 4A F8 FF FF 7F 8B 02  .......:.J......
02B0: 05 01 1C 3A 80 4A F8 FF  FF 7F 8D 02 05 01 1C 2F  ...:.J........./
02C0: 80 4A F8 FF FF 7F 8B 02  05 01 1C 2F 80 4A F8 FF  .J........./.J..
02D0: FF 7F 8D 02 05 01 1C 3A  80 4A F8 FF FF 7F 8B 02  .......:.J......
02E0: 05 01 00                                          ...             
```

## Opcodes

```
  0: 0x0291 [0x4A] EventEntity looks at Mayakov (ID: 17105547/0x0105028B)
  1: 0x029A [0x1C] WAIT(60* ticks)
  2: 0x029D [0x4A] EventEntity looks at Unnamed NPC (ID: 17105549/0x0105028D)
  3: 0x02A6 [0x1C] WAIT(30* ticks)
  4: 0x02A9 [0x4A] EventEntity looks at Mayakov (ID: 17105547/0x0105028B)
  5: 0x02B2 [0x1C] WAIT(30* ticks)
  6: 0x02B5 [0x4A] EventEntity looks at Unnamed NPC (ID: 17105549/0x0105028D)
  7: 0x02BE [0x1C] WAIT(60* ticks)
  8: 0x02C1 [0x4A] EventEntity looks at Mayakov (ID: 17105547/0x0105028B)
  9: 0x02CA [0x1C] WAIT(60* ticks)
 10: 0x02CD [0x4A] EventEntity looks at Unnamed NPC (ID: 17105549/0x0105028D)
 11: 0x02D6 [0x1C] WAIT(30* ticks)
 12: 0x02D9 [0x4A] EventEntity looks at Mayakov (ID: 17105547/0x0105028B)
 13: 0x02E2 [0x00] END_REQSTACK()
```
