# Event 65535

## Metadata

| Field           | Value    |
|-----------------|----------|
| Event Index     | 31/43    |
| Offset          | 0x0242   |
| Data Size       | 32 bytes |
| Calculated Size | 32 bytes |
| Instructions    | 7        |

```
      00 01 02 03 04 05 06 07  08 09 0A 0B 0C 0D 0E 0F
      -- -- -- -- -- -- -- --  -- -- -- -- -- -- -- --
0240:       59 04 F8 FF FF 7F  04 80 1F 00 38 80 39 80    Y.........8.9.
0250: 36 80 1F 01 6F 1C 3A 80  4A F8 FF FF 7F 8B 02 05  6...o.:.J.......
0260: 01 00                                             ..              
```

## Opcodes

```
  0: 0x0242 [0x59] UPDATE_ENTITY_DATA: Set EventEntity main speed = 13* * 0.1
  1: 0x024A [0x1F] MOVE_ENTITY: EventEntity moves to X=93.985*, Z=126.795*, Y=1.000*
  2: 0x0252 [0x1F] MOVE_ENTITY: Update entity position (mode=1)
  3: 0x0254 [0x6F] WAIT_FRAME_DELAY: Yield until WaitTime reaches zero
  4: 0x0255 [0x1C] WAIT(30* ticks)
  5: 0x0258 [0x4A] EventEntity looks at Mayakov (ID: 17105547/0x0105028B)
  6: 0x0261 [0x00] END_REQSTACK()
```
