# Event 10018

## Metadata

| Field           | Value     |
|-----------------|-----------|
| Event Index     | 7/8       |
| Offset          | 0x1001    |
| Data Size       | 689 bytes |
| Calculated Size | 689 bytes |
| Instructions    | 11        |

```
      00 01 02 03 04 05 06 07  08 09 0A 0B 0C 0D 0E 0F
      -- -- -- -- -- -- -- --  -- -- -- -- -- -- -- --
1000:    1E F0 FF FF 7F 6F 70  5B 00 80 F8 FF FF 7F F8   .....op[.......
1010: FF FF 7F 74 68 6B 30 1D  6C 80 23 1D 6D 80 23 21  ...thk0.l.#.m.#!
1020: 00 45 2F 80 F0 FF FF 7F  F0 FF FF 7F 66 64 69 30  .E/.........fdi0
1030: 04 80 55 2F 80 F0 FF FF  7F F0 FF FF 7F 66 64 69  ..U/.........fdi
1040: 30 1B 45 2F 80 F0 FF FF  7F F0 FF FF 7F 66 64 6F  0.E/.........fdo
1050: 30 04 80 55 2F 80 F0 FF  FF 7F F0 FF FF 7F 66 64  0..U/.........fd
1060: 6F 30 1B 45 2F 80 F0 FF  FF 7F F0 FF FF 7F 66 64  o0.E/.........fd
1070: 69 31 04 80 55 2F 80 F0  FF FF 7F F0 FF FF 7F 66  i1..U/.........f
1080: 64 69 31 1B 45 2F 80 F0  FF FF 7F F0 FF FF 7F 66  di1.E/.........f
1090: 64 6F 31 04 80 55 2F 80  F0 FF FF 7F F0 FF FF 7F  do1..U/.........
10A0: 66 64 6F 31 1B 45 6B 80  F0 FF FF 7F F0 FF FF 7F  fdo1.Ek.........
10B0: 77 68 69 31 04 80 55 6B  80 F0 FF FF 7F F0 FF FF  whi1..Uk........
10C0: 7F 77 68 69 31 1B 45 6B  80 F0 FF FF 7F F0 FF FF  .whi1.Ek........
10D0: 7F 77 68 6F 31 04 80 55  6B 80 F0 FF FF 7F F0 FF  .who1..Uk.......
10E0: FF 7F 77 68 6F 31 1B 45  6B 80 F0 FF FF 7F F0 FF  ..who1.Ek.......
10F0: FF 7F 77 68 6F 32 04 80  55 6B 80 F0 FF FF 7F F0  ..who2..Uk......
1100: FF FF 7F 77 68 6F 32 1B  45 6B 80 F0 FF FF 7F F0  ...who2.Ek......
1110: FF FF 7F 77 68 6F 33 04  80 55 6B 80 F0 FF FF 7F  ...who3..Uk.....
1120: F0 FF FF 7F 77 68 6F 33  1B 62 03 80 F0 FF FF 7F  ....who3.b......
1130: F0 FF FF 7F 6D 61 69 6E  04 80 1C 6E 80 45 2F 80  ....main...n.E/.
1140: F0 FF FF 7F F0 FF FF 7F  66 64 6F 31 04 80 55 2F  ........fdo1..U/
1150: 80 F0 FF FF 7F F0 FF FF  7F 66 64 6F 31 1B 45 2F  .........fdo1.E/
1160: 80 F0 FF FF 7F F0 FF FF  7F 66 64 69 31 04 80 62  .........fdi1..b
1170: 6F 80 F0 FF FF 7F F0 FF  FF 7F 6D 61 69 6E 04 80  o.........main..
1180: 1C 0A 80 55 2F 80 F0 FF  FF 7F F0 FF FF 7F 66 64  ...U/.........fd
1190: 69 31 1B 45 2F 80 F0 FF  FF 7F F0 FF FF 7F 62 6C  i1.E/.........bl
11A0: 6F 6E 04 80 45 6B 80 F0  FF FF 7F F0 FF FF 7F 62  on..Ek.........b
11B0: 6C 6F 6E 04 80 1B 45 6B  80 F0 FF FF 7F F0 FF FF  lon...Ek........
11C0: 7F 77 68 69 30 04 80 55  6B 80 F0 FF FF 7F F0 FF  .whi0..Uk.......
11D0: FF 7F 77 68 69 30 1B 45  6B 80 F0 FF FF 7F F0 FF  ..whi0.Ek.......
11E0: FF 7F 77 68 6F 30 04 80  55 6B 80 F0 FF FF 7F F0  ..who0..Uk......
11F0: FF FF 7F 77 68 6F 30 1B  45 70 80 F0 FF FF 7F F0  ...who0.Ep......
1200: FF FF 7F 65 66 6F 6E 04  80 55 70 80 F0 FF FF 7F  ...efon..Up.....
1210: F0 FF FF 7F 65 66 6F 6E  1B 45 2F 80 F0 FF FF 7F  ....efon.E/.....
1220: F0 FF FF 7F 66 64 69 73  04 80 1B 45 2F 80 F0 FF  ....fdis...E/...
1230: FF 7F F0 FF FF 7F 66 64  6F 73 04 80 55 2F 80 F0  ......fdos..U/..
1240: FF FF 7F F0 FF FF 7F 66  64 6F 73 1B 45 2F 80 F0  .......fdos.E/..
1250: FF FF 7F F0 FF FF 7F 66  64 69 66 04 80 1B 45 2F  .......fdif...E/
1260: 80 F0 FF FF 7F F0 FF FF  7F 66 64 6F 66 04 80 55  .........fdof..U
1270: 2F 80 F0 FF FF 7F F0 FF  FF 7F 66 64 6F 66 1B 45  /.........fdof.E
1280: 2F 80 F0 FF FF 7F F0 FF  FF 7F 66 64 69 70 04 80  /.........fdip..
1290: 1B 45 2F 80 F0 FF FF 7F  F0 FF FF 7F 66 64 6F 70  .E/.........fdop
12A0: 04 80 55 2F 80 F0 FF FF  7F F0 FF FF 7F 66 64 6F  ..U/.........fdo
12B0: 70 1B                                             p.              
```

## Opcodes

```
  0: 0x1001 [0x1E] EventEntity looks at LocalPlayer and starts talking
  1: 0x1006 [0x6F] WAIT_FRAME_DELAY: Yield until WaitTime reaches zero
  2: 0x1007 [0x70] WAIT_ENTITY_RENDER_FLAG: Wait while EventEntity->Render.Flags3 bit 2 is set (cancel turn if not)
  3: 0x1008 [0x5B] LOAD_EXT_SCHEDULER(work_offset=80*, entity1=EventEntity, entity2=EventEntity, action="thk0")
  4: 0x1017 [0x1D] PRINT_EVENT_MESSAGE(message_id=8748*)
    → "I wonder if that Elvaan girl knows how Silver Comet and Shooting Star were married.\u007F1\u0000\u0007"
  5: 0x101A [0x23] WAIT_FOR_DIALOG_INTERACTION
  6: 0x101B [0x1D] PRINT_EVENT_MESSAGE(message_id=8749*)
    → "I would like to meet her again some day...\u007F1\u0000\u0007"
  7: 0x101E [0x23] WAIT_FOR_DIALOG_INTERACTION
  8: 0x101F [0x21] END_EVENT
  9: 0x1020 [0x00] END_REQSTACK()
```

## Data or dead code:

```
# Data Section: 0x1021 (657 bytes)
     0x1021: 45 2F 80 F0 FF FF 7F F0 FF FF 7F 66 64 69 30 04
     0x1031: 80 55 2F 80 F0 FF FF 7F F0 FF FF 7F 66 64 69 30
     0x1041: 1B 45 2F 80 F0 FF FF 7F F0 FF FF 7F 66 64 6F 30
     0x1051: 04 80 55 2F 80 F0 FF FF 7F F0 FF FF 7F 66 64 6F
     0x1061: 30 1B 45 2F 80 F0 FF FF 7F F0 FF FF 7F 66 64 69
     0x1071: 31 04 80 55 2F 80 F0 FF FF 7F F0 FF FF 7F 66 64
     0x1081: 69 31 1B 45 2F 80 F0 FF FF 7F F0 FF FF 7F 66 64
     0x1091: 6F 31 04 80 55 2F 80 F0 FF FF 7F F0 FF FF 7F 66
     0x10A1: 64 6F 31 1B 45 6B 80 F0 FF FF 7F F0 FF FF 7F 77
     0x10B1: 68 69 31 04 80 55 6B 80 F0 FF FF 7F F0 FF FF 7F
     0x10C1: 77 68 69 31 1B 45 6B 80 F0 FF FF 7F F0 FF FF 7F
     0x10D1: 77 68 6F 31 04 80 55 6B 80 F0 FF FF 7F F0 FF FF
     0x10E1: 7F 77 68 6F 31 1B 45 6B 80 F0 FF FF 7F F0 FF FF
     0x10F1: 7F 77 68 6F 32 04 80 55 6B 80 F0 FF FF 7F F0 FF
     0x1101: FF 7F 77 68 6F 32 1B 45 6B 80 F0 FF FF 7F F0 FF
     0x1111: FF 7F 77 68 6F 33 04 80 55 6B 80 F0 FF FF 7F F0
     0x1121: FF FF 7F 77 68 6F 33 1B 62 03 80 F0 FF FF 7F F0
     0x1131: FF FF 7F 6D 61 69 6E 04 80 1C 6E 80 45 2F 80 F0
     0x1141: FF FF 7F F0 FF FF 7F 66 64 6F 31 04 80 55 2F 80
     0x1151: F0 FF FF 7F F0 FF FF 7F 66 64 6F 31 1B 45 2F 80
     0x1161: F0 FF FF 7F F0 FF FF 7F 66 64 69 31 04 80 62 6F
     0x1171: 80 F0 FF FF 7F F0 FF FF 7F 6D 61 69 6E 04 80 1C
     0x1181: 0A 80 55 2F 80 F0 FF FF 7F F0 FF FF 7F 66 64 69
     0x1191: 31 1B 45 2F 80 F0 FF FF 7F F0 FF FF 7F 62 6C 6F
     0x11A1: 6E 04 80 45 6B 80 F0 FF FF 7F F0 FF FF 7F 62 6C
     0x11B1: 6F 6E 04 80 1B 45 6B 80 F0 FF FF 7F F0 FF FF 7F
     0x11C1: 77 68 69 30 04 80 55 6B 80 F0 FF FF 7F F0 FF FF
     0x11D1: 7F 77 68 69 30 1B 45 6B 80 F0 FF FF 7F F0 FF FF
     0x11E1: 7F 77 68 6F 30 04 80 55 6B 80 F0 FF FF 7F F0 FF
     0x11F1: FF 7F 77 68 6F 30 1B 45 70 80 F0 FF FF 7F F0 FF
     0x1201: FF 7F 65 66 6F 6E 04 80 55 70 80 F0 FF FF 7F F0
     0x1211: FF FF 7F 65 66 6F 6E 1B 45 2F 80 F0 FF FF 7F F0
     0x1221: FF FF 7F 66 64 69 73 04 80 1B 45 2F 80 F0 FF FF
     0x1231: 7F F0 FF FF 7F 66 64 6F 73 04 80 55 2F 80 F0 FF
     0x1241: FF 7F F0 FF FF 7F 66 64 6F 73 1B 45 2F 80 F0 FF
     0x1251: FF 7F F0 FF FF 7F 66 64 69 66 04 80 1B 45 2F 80
     0x1261: F0 FF FF 7F F0 FF FF 7F 66 64 6F 66 04 80 55 2F
     0x1271: 80 F0 FF FF 7F F0 FF FF 7F 66 64 6F 66 1B 45 2F
     0x1281: 80 F0 FF FF 7F F0 FF FF 7F 66 64 69 70 04 80 1B
     0x1291: 45 2F 80 F0 FF FF 7F F0 FF FF 7F 66 64 6F 70 04
     0x12A1: 80 55 2F 80 F0 FF FF 7F F0 FF FF 7F 66 64 6F 70
     0x12B1: 1B
```