# Event 192

## Metadata

| Field           | Value    |
|-----------------|----------|
| Event Index     | 12/126   |
| Offset          | 0x0139   |
| Data Size       | 29 bytes |
| Calculated Size | 29 bytes |
| Instructions    | 12       |

```
      00 01 02 03 04 05 06 07  08 09 0A 0B 0C 0D 0E 0F
      -- -- -- -- -- -- -- --  -- -- -- -- -- -- -- --
0130:                             20 01 1E F0 FF FF 7F            ......
0140: 6F 70 03 08 10 13 80 03  09 10 14 80 1D 18 80 23  op.............#
0150: 1D 19 80 23 21 00                                 ...#!.          
```

## Opcodes

```
  0: 0x0139 [0x20] SET_CLI_EVENT_UC_FLAG: Lock player control
  1: 0x013B [0x1E] EventEntity looks at LocalPlayer and starts talking
  2: 0x0140 [0x6F] WAIT_FRAME_DELAY: Yield until WaitTime reaches zero
  3: 0x0141 [0x70] WAIT_ENTITY_RENDER_FLAG: Wait while EventEntity->Render.Flags3 bit 2 is set (cancel turn if not)
  4: 0x0142 [0x03] Work_Zone[8] = 557*
  5: 0x0147 [0x03] Work_Zone[9] = 556*
  6: 0x014C [0x1D] PRINT_EVENT_MESSAGE(message_id=7503*)
    → "Why, this is \u0001\u0001\u0001 \u0001\u0005$\u0002\u0006\u0000\u0000 of high quality! Take this and immerse it in the pool of holy water inside the Maze of Shakhrami.\u007F1\u0000\u0007"
  7: 0x014F [0x23] WAIT_FOR_DIALOG_INTERACTION
  8: 0x0150 [0x1D] PRINT_EVENT_MESSAGE(message_id=7504*)
    → "Only then will it be purged of impurities, and become a \u0001\u0005#\u0002\u0007\u0000\u0000. Good luck!\u007F1\u0000\u0007"
  9: 0x0153 [0x23] WAIT_FOR_DIALOG_INTERACTION
 10: 0x0154 [0x21] END_EVENT
 11: 0x0155 [0x00] END_REQSTACK()
```
