# Event 203

## Metadata

| Field           | Value    |
|-----------------|----------|
| Event Index     | 14/126   |
| Offset          | 0x01A4   |
| Data Size       | 21 bytes |
| Calculated Size | 21 bytes |
| Instructions    | 10       |

```
      00 01 02 03 04 05 06 07  08 09 0A 0B 0C 0D 0E 0F
      -- -- -- -- -- -- -- --  -- -- -- -- -- -- -- --
01A0:             20 01 42 1E  F0 FF FF 7F 6F 70 03 09       .B.....op..
01B0: 10 1A 80 1D 21 80 23 21  00                       ....!.#!.       
```

## Opcodes

```
  0: 0x01A4 [0x20] SET_CLI_EVENT_UC_FLAG: Lock player control
  1: 0x01A6 [0x42] SET_CLI_EVENT_CANCEL_DATA()
  2: 0x01A7 [0x1E] EventEntity looks at LocalPlayer and starts talking
  3: 0x01AC [0x6F] WAIT_FRAME_DELAY: Yield until WaitTime reaches zero
  4: 0x01AD [0x70] WAIT_ENTITY_RENDER_FLAG: Wait while EventEntity->Render.Flags3 bit 2 is set (cancel turn if not)
  5: 0x01AE [0x03] Work_Zone[9] = 12507*
  6: 0x01B3 [0x1D] PRINT_EVENT_MESSAGE(message_id=7552*)
    → "I knew I could count on you. I can't sleep without my \u0001\u0005#\u0002\u0007\u0000\u0000!\u007F1\u0000\u0007"
  7: 0x01B6 [0x23] WAIT_FOR_DIALOG_INTERACTION
  8: 0x01B7 [0x21] END_EVENT
  9: 0x01B8 [0x00] END_REQSTACK()
```
