# Event 2521

## Metadata

| Field           | Value    |
|-----------------|----------|
| Event Index     | 3/6      |
| Offset          | 0x0039   |
| Data Size       | 44 bytes |
| Calculated Size | 44 bytes |
| Instructions    | 10       |

```
      00 01 02 03 04 05 06 07  08 09 0A 0B 0C 0D 0E 0F
      -- -- -- -- -- -- -- --  -- -- -- -- -- -- -- --
0030:                             42 1E F0 FF FF 7F 6F           B.....o
0040: 70 66 00 80 F8 FF FF 7F  F8 FF FF 7F 74 6C 62 30  pf..........tlb0
0050: 1D 04 80 23 66 00 80 F8  FF FF 7F F8 FF FF 7F 74  ...#f..........t
0060: 6C 62 31 21 00                                    lb1!.           
```

## Opcodes

```
  0: 0x0039 [0x42] SET_CLI_EVENT_CANCEL_DATA()
  1: 0x003A [0x1E] EventEntity looks at LocalPlayer and starts talking
  2: 0x003F [0x6F] WAIT_FRAME_DELAY: Yield until WaitTime reaches zero
  3: 0x0040 [0x70] WAIT_ENTITY_RENDER_FLAG: Wait while EventEntity->Render.Flags3 bit 2 is set (cancel turn if not)
  4: 0x0041 [0x66] LOAD_EXT_SCHEDULER_MAIN: Load scheduler "tlb0" with entities [EventEntity, EventEntity], work=34*
  5: 0x0050 [0x1D] PRINT_EVENT_MESSAGE(message_id=7510*)
    → "I've heard that ergon loci have the power to cleansy-weanse poison and other detrimentarus from the surrounding land. You should recognize one at first sight. Does that help?\u007F1\u0000\u0007"
  6: 0x0053 [0x23] WAIT_FOR_DIALOG_INTERACTION
  7: 0x0054 [0x66] LOAD_EXT_SCHEDULER_MAIN: Load scheduler "tlb1" with entities [EventEntity, EventEntity], work=34*
  8: 0x0063 [0x21] END_EVENT
  9: 0x0064 [0x00] END_REQSTACK()
```
