# Event 37

## Metadata

| Field           | Value    |
|-----------------|----------|
| Event Index     | 34/38    |
| Offset          | 0x02F8   |
| Data Size       | 33 bytes |
| Calculated Size | 33 bytes |
| Instructions    | 11       |

```
      00 01 02 03 04 05 06 07  08 09 0A 0B 0C 0D 0E 0F
      -- -- -- -- -- -- -- --  -- -- -- -- -- -- -- --
02F0:                          42 1E F0 FF FF 7F 6F 70          B.....op
0300: 03 03 10 11 80 29 08 03  93 10 01 06 1D 20 80 23  .....)....... .#
0310: 29 08 03 93 10 01 07 21  00                       )......!.       
```

## Opcodes

```
  0: 0x02F8 [0x42] SET_CLI_EVENT_CANCEL_DATA()
  1: 0x02F9 [0x1E] EventEntity looks at LocalPlayer and starts talking
  2: 0x02FE [0x6F] WAIT_FRAME_DELAY: Yield until WaitTime reaches zero
  3: 0x02FF [0x70] WAIT_ENTITY_RENDER_FLAG: Wait while EventEntity->Render.Flags3 bit 2 is set (cancel turn if not)
  4: 0x0300 [0x03] Work_Zone[3] = 2373*
  5: 0x0305 [0x29] REQ_SET_WAIT(priority=0x08, entity_id=Dabnorrin (ID: 17863427/0x01109303), tag_num=0x06)
  6: 0x030C [0x1D] PRINT_EVENT_MESSAGE(message_id=7919*)
    → "Well, well, so you're here for another \u0001\u00053\u0002\u0001\u0000\u0000. Don't screw it up this time, okay?\u007F1\u0000\u0007"
  7: 0x030F [0x23] WAIT_FOR_DIALOG_INTERACTION
  8: 0x0310 [0x29] REQ_SET_WAIT(priority=0x08, entity_id=Dabnorrin (ID: 17863427/0x01109303), tag_num=0x07)
  9: 0x0317 [0x21] END_EVENT
 10: 0x0318 [0x00] END_REQSTACK()
```
