# 17142567

## Common Data

| Field            | Value                 |
|------------------|-----------------------|
| Zone             | Grauberg [S] (ID: 89) |
| Block Size       | 896 bytes             |
| Total Events     | 31                    |
| References Count | 66                    |

## List of Events

| Event ID                   | Entrypoint   |   Size |   Instructions |
|----------------------------|--------------|--------|----------------|
| [65535](#event-65535)      | 0x0000       |      1 |              1 |
| [12](#event-12)            | 0x0001       |      5 |              2 |
| [65535.1](#event-655351)   | 0x0006       |     15 |              5 |
| [65535.2](#event-655352)   | 0x0015       |    108 |             23 |
| [65535.3](#event-655353)   | 0x0081       |      6 |              2 |
| [65535.4](#event-655354)   | 0x0087       |     14 |              4 |
| [19](#event-19)            | 0x0095       |      1 |              1 |
| [65535.5](#event-655355)   | 0x0096       |     22 |              6 |
| [21](#event-21)            | 0x00AC       |      1 |              1 |
| [65535.6](#event-655356)   | 0x00AD       |     44 |             10 |
| [26](#event-26)            | 0x00D9       |      1 |              1 |
| [27](#event-27)            | 0x00DA       |      1 |              1 |
| [65535.7](#event-655357)   | 0x00DB       |     22 |              6 |
| [65535.8](#event-655358)   | 0x00F1       |     24 |              6 |
| [65535.9](#event-655359)   | 0x0109       |     20 |              5 |
| [65535.10](#event-6553510) | 0x011D       |     24 |              6 |
| [65535.11](#event-6553511) | 0x0135       |     31 |              6 |
| [65535.12](#event-6553512) | 0x0154       |     31 |              6 |
| [65535.13](#event-6553513) | 0x0173       |     31 |              6 |
| [65535.14](#event-6553514) | 0x0192       |     19 |              4 |
| [28](#event-28)            | 0x01A5       |      1 |              1 |
| [65535.15](#event-6553515) | 0x01A6       |      1 |              1 |
| [65535.16](#event-6553516) | 0x01A7       |     18 |              4 |
| [65535.17](#event-6553517) | 0x01B9       |     10 |              2 |
| [65535.18](#event-6553518) | 0x01C3       |      9 |              3 |
| [65535.19](#event-6553519) | 0x01CC       |      9 |              3 |
| [65535.20](#event-6553520) | 0x01D5       |     10 |              2 |
| [65535.21](#event-6553521) | 0x01DF       |     10 |              2 |
| [34](#event-34)            | 0x01E9       |      1 |              1 |
| [35](#event-35)            | 0x01EA       |      1 |              1 |
| [36](#event-36)            | 0x01EB       |      1 |              1 |

## DAT References (imed_data)

|   Index | Hex Value   |   Dec Value |
|---------|-------------|-------------|
|       0 | 0x004B      |          75 |
|       1 | 0x000D      |          13 |
|       2 | 0xFFFE4FEC  |  4294856684 |
|       3 | 0x8DD7C     |      580988 |
|       4 | 0xFFFFE352  |  4294959954 |
|       5 | 0x0000      |           0 |
|       6 | 0xFFFE5111  |  4294856977 |
|       7 | 0x8E8AB     |      583851 |
|       8 | 0xFFFFE2CD  |  4294959821 |
|       9 | 0xFFFE4FC1  |  4294856641 |
|      10 | 0x8EE5B     |      585307 |
|      11 | 0xFFFFE264  |  4294959716 |
|      12 | 0xFFFE49D4  |  4294855124 |
|      13 | 0x8EBF3     |      584691 |
|      14 | 0xFFFFE391  |  4294960017 |
|      15 | 0xFFFE4634  |  4294854196 |
|      16 | 0x8E353     |      582483 |
|      17 | 0xFFFFE3E1  |  4294960097 |
|      18 | 0xFFFE46F7  |  4294854391 |
|      19 | 0x8DCD5     |      580821 |
|      20 | 0xFFFFE3D7  |  4294960087 |
|      21 | 0xFFFE4938  |  4294854968 |
|      22 | 0x8DBB5     |      580533 |
|      23 | 0xFFFE4F0B  |  4294856459 |
|      24 | 0x8DB81     |      580481 |
|      25 | 0xFFFFE369  |  4294959977 |
|      26 | 0x001E      |          30 |
|      27 | 0x0001      |           1 |
|      28 | 0x0028      |          40 |
|      29 | 0xFFFE5518  |  4294858008 |
|      30 | 0x8D20E     |      578062 |
|      31 | 0xFFFDD800  |  4294825984 |
|      32 | 0x8A18A     |      565642 |
|      33 | 0xFFFFE477  |  4294960247 |
|      34 | 0xFFFDE61A  |  4294829594 |
|      35 | 0x8A045     |      565317 |
|      36 | 0xFFFFE4A4  |  4294960292 |
|      37 | 0xFFFDEAEA  |  4294830826 |
|      38 | 0x89336     |      561974 |
|      39 | 0xFFFFE414  |  4294960148 |
|      40 | 0xFFFDDFEA  |  4294828010 |
|      41 | 0x888CA     |      559306 |
|      42 | 0xFFFFE3BD  |  4294960061 |
|      43 | 0xFFFDD3DE  |  4294824926 |
|      44 | 0x88F1F     |      560927 |
|      45 | 0xFFFFE45C  |  4294960220 |
|      46 | 0xFFFE1EF5  |  4294844149 |
|      47 | 0x8E411     |      582673 |
|      48 | 0xFFFFE4EE  |  4294960366 |
|      49 | 0xFFFDEB94  |  4294830996 |
|      50 | 0x8E62A     |      583210 |
|      51 | 0xFFFFE220  |  4294959648 |
|      52 | 0x003C      |          60 |
|      53 | 0x000F      |          15 |
|      54 | 0xFFFE35CC  |  4294849996 |
|      55 | 0x8D43C     |      578620 |
|      56 | 0xFFFE2200  |  4294844928 |
|      57 | 0x8E5E1     |      583137 |
|      58 | 0xFFFFE499  |  4294960281 |
|      59 | 0x07EE      |        2030 |
|      60 | 0x0080      |         128 |
|      61 | 0x08CF      |        2255 |
|      62 | 0x0034      |          52 |
|      63 | 0xFFFE2FF0  |  4294848496 |
|      64 | 0x8EB84     |      584580 |
|      65 | 0xFFFFE083  |  4294959235 |

## Events

### Event 65535

#### Metadata

| Field        | Value   |
|--------------|---------|
| Entrypoint   | 0x0000  |
| Data Size    | 1 bytes |
| Instructions | 1       |

```
      00 01 02 03 04 05 06 07  08 09 0A 0B 0C 0D 0E 0F
      -- -- -- -- -- -- -- --  -- -- -- -- -- -- -- --
0000: 00                                                .               
```

#### Opcodes

```
  0: 0x0000 [0x00] END_REQSTACK()
```

### Event 12

#### Metadata

| Field        | Value   |
|--------------|---------|
| Entrypoint   | 0x0001  |
| Data Size    | 5 bytes |
| Instructions | 2       |

```
      00 01 02 03 04 05 06 07  08 09 0A 0B 0C 0D 0E 0F
      -- -- -- -- -- -- -- --  -- -- -- -- -- -- -- --
0000:    B6 0F 00 80 00                                  .....          
```

#### Opcodes

```
  0: 0x0001 [0xB6] ENTITY_APPEARANCE_HANDLER(case=Model size, value=75*)
  1: 0x0005 [0x00] END_REQSTACK()
```

### Event 65535.1

#### Metadata

| Field        | Value    |
|--------------|----------|
| Entrypoint   | 0x0006   |
| Data Size    | 15 bytes |
| Instructions | 5        |

```
      00 01 02 03 04 05 06 07  08 09 0A 0B 0C 0D 0E 0F
      -- -- -- -- -- -- -- --  -- -- -- -- -- -- -- --
0000:                   32 01  80 1F 00 02 80 03 80 04        2.........
0010: 80 1F 01 6F 00                                    ...o.           
```

#### Opcodes

```
  0: 0x0006 [0x32] ExtData[1]->MainSpeed = 13* * 0.1
  1: 0x0009 [0x1F] MOVE_ENTITY: EventEntity moves to X=-110.612*, Z=580.988*, Y=-7.342*
  2: 0x0011 [0x1F] MOVE_ENTITY: Update entity position (mode=1)
  3: 0x0013 [0x6F] WAIT_FRAME_DELAY: Yield until WaitTime reaches zero
  4: 0x0014 [0x00] END_REQSTACK()
```

### Event 65535.2

#### Metadata

| Field        | Value     |
|--------------|-----------|
| Entrypoint   | 0x0015    |
| Data Size    | 108 bytes |
| Instructions | 23        |

```
      00 01 02 03 04 05 06 07  08 09 0A 0B 0C 0D 0E 0F
      -- -- -- -- -- -- -- --  -- -- -- -- -- -- -- --
0010:                03 00 00  05 80 02 00 00 05 80 00       ...........
0020: 78 00 32 01 80 1F 00 06  80 07 80 08 80 1F 01 1F  x.2.............
0030: 00 09 80 0A 80 0B 80 1F  01 1F 00 0C 80 0D 80 0E  ................
0040: 80 1F 01 1F 00 0F 80 10  80 11 80 1F 01 1F 00 12  ................
0050: 80 13 80 14 80 1F 01 1F  00 15 80 16 80 11 80 1F  ................
0060: 01 1F 00 17 80 18 80 19  80 1F 01 1F 00 02 80 03  ................
0070: 80 04 80 1F 01 01 1A 00  1E 23 93 05 01 1C 1A 80  .........#......
0080: 00                                                .               
```

#### Opcodes

```
  0: 0x0015 [0x03] ExtData[1]->WorkLocal[0] = 0*
  1: 0x001A [0x02] IF !(ExtData[1]->WorkLocal[0] == 0*) GOTO 0x0078
  2: 0x0022 [0x32] ExtData[1]->MainSpeed = 13* * 0.1
  3: 0x0025 [0x1F] MOVE_ENTITY: EventEntity moves to X=-110.319*, Z=583.851*, Y=-7.475*
  4: 0x002D [0x1F] MOVE_ENTITY: Update entity position (mode=1)
  5: 0x002F [0x1F] MOVE_ENTITY: EventEntity moves to X=-110.655*, Z=585.307*, Y=-7.580*
  6: 0x0037 [0x1F] MOVE_ENTITY: Update entity position (mode=1)
  7: 0x0039 [0x1F] MOVE_ENTITY: EventEntity moves to X=-112.172*, Z=584.691*, Y=-7.279*
  8: 0x0041 [0x1F] MOVE_ENTITY: Update entity position (mode=1)
  9: 0x0043 [0x1F] MOVE_ENTITY: EventEntity moves to X=-113.100*, Z=582.483*, Y=-7.199*
 10: 0x004B [0x1F] MOVE_ENTITY: Update entity position (mode=1)
 11: 0x004D [0x1F] MOVE_ENTITY: EventEntity moves to X=-112.905*, Z=580.821*, Y=-7.209*
 12: 0x0055 [0x1F] MOVE_ENTITY: Update entity position (mode=1)
 13: 0x0057 [0x1F] MOVE_ENTITY: EventEntity moves to X=-112.328*, Z=580.533*, Y=-7.199*
 14: 0x005F [0x1F] MOVE_ENTITY: Update entity position (mode=1)
 15: 0x0061 [0x1F] MOVE_ENTITY: EventEntity moves to X=-110.837*, Z=580.481*, Y=-7.319*
 16: 0x0069 [0x1F] MOVE_ENTITY: Update entity position (mode=1)
 17: 0x006B [0x1F] MOVE_ENTITY: EventEntity moves to X=-110.612*, Z=580.988*, Y=-7.342*
 18: 0x0073 [0x1F] MOVE_ENTITY: Update entity position (mode=1)
 19: 0x0075 [0x01] GOTO 0x001A
 20: 0x0078 [0x1E] EventEntity looks at Laila (ID: 17142563/0x01059323) and starts talking
 21: 0x007D [0x1C] WAIT(30* ticks)
 22: 0x0080 [0x00] END_REQSTACK()
```

### Event 65535.3

#### Metadata

| Field        | Value   |
|--------------|---------|
| Entrypoint   | 0x0081  |
| Data Size    | 6 bytes |
| Instructions | 2       |

```
      00 01 02 03 04 05 06 07  08 09 0A 0B 0C 0D 0E 0F
      -- -- -- -- -- -- -- --  -- -- -- -- -- -- -- --
0080:    03 00 00 1B 80 00                               ......         
```

#### Opcodes

```
  0: 0x0081 [0x03] ExtData[1]->WorkLocal[0] = 1*
  1: 0x0086 [0x00] END_REQSTACK()
```

### Event 65535.4

#### Metadata

| Field        | Value    |
|--------------|----------|
| Entrypoint   | 0x0087   |
| Data Size    | 14 bytes |
| Instructions | 4        |

```
      00 01 02 03 04 05 06 07  08 09 0A 0B 0C 0D 0E 0F
      -- -- -- -- -- -- -- --  -- -- -- -- -- -- -- --
0080:                      32  1C 80 1F 00 1D 80 1E 80         2........
0090: 08 80 1F 01 00                                    .....           
```

#### Opcodes

```
  0: 0x0087 [0x32] ExtData[1]->MainSpeed = 40* * 0.1
  1: 0x008A [0x1F] MOVE_ENTITY: EventEntity moves to X=-109.288*, Z=578.062*, Y=-7.475*
  2: 0x0092 [0x1F] MOVE_ENTITY: Update entity position (mode=1)
  3: 0x0094 [0x00] END_REQSTACK()
```

### Event 19

#### Metadata

| Field        | Value   |
|--------------|---------|
| Entrypoint   | 0x0095  |
| Data Size    | 1 bytes |
| Instructions | 1       |

```
      00 01 02 03 04 05 06 07  08 09 0A 0B 0C 0D 0E 0F
      -- -- -- -- -- -- -- --  -- -- -- -- -- -- -- --
0090:                00                                      .          
```

#### Opcodes

```
  0: 0x0095 [0x00] END_REQSTACK()
```

### Event 65535.5

#### Metadata

| Field        | Value    |
|--------------|----------|
| Entrypoint   | 0x0096   |
| Data Size    | 22 bytes |
| Instructions | 6        |

```
      00 01 02 03 04 05 06 07  08 09 0A 0B 0C 0D 0E 0F
      -- -- -- -- -- -- -- --  -- -- -- -- -- -- -- --
0090:                   32 1C  80 1F 00 1F 80 20 80 21        2...... .!
00A0: 80 1F 01 1E 28 93 05 01  1C 1A 80 00              ....(.......    
```

#### Opcodes

```
  0: 0x0096 [0x32] ExtData[1]->MainSpeed = 40* * 0.1
  1: 0x0099 [0x1F] MOVE_ENTITY: EventEntity moves to X=-141.312*, Z=565.642*, Y=-7.049*
  2: 0x00A1 [0x1F] MOVE_ENTITY: Update entity position (mode=1)
  3: 0x00A3 [0x1E] EventEntity looks at Unnamed NPC (ID: 17142568/0x01059328) and starts talking
  4: 0x00A8 [0x1C] WAIT(30* ticks)
  5: 0x00AB [0x00] END_REQSTACK()
```

### Event 21

#### Metadata

| Field        | Value   |
|--------------|---------|
| Entrypoint   | 0x00AC  |
| Data Size    | 1 bytes |
| Instructions | 1       |

```
      00 01 02 03 04 05 06 07  08 09 0A 0B 0C 0D 0E 0F
      -- -- -- -- -- -- -- --  -- -- -- -- -- -- -- --
00A0:                                      00                       .   
```

#### Opcodes

```
  0: 0x00AC [0x00] END_REQSTACK()
```

### Event 65535.6

#### Metadata

| Field        | Value    |
|--------------|----------|
| Entrypoint   | 0x00AD   |
| Data Size    | 44 bytes |
| Instructions | 10       |

```
      00 01 02 03 04 05 06 07  08 09 0A 0B 0C 0D 0E 0F
      -- -- -- -- -- -- -- --  -- -- -- -- -- -- -- --
00A0:                                         32 01 80               2..
00B0: 1F 00 22 80 23 80 24 80  1F 01 1F 00 25 80 26 80  ..".#.$.....%.&.
00C0: 27 80 1F 01 1F 00 28 80  29 80 2A 80 1F 01 1F 00  '.....(.).*.....
00D0: 2B 80 2C 80 2D 80 1F 01  00                       +.,.-....       
```

#### Opcodes

```
  0: 0x00AD [0x32] ExtData[1]->MainSpeed = 13* * 0.1
  1: 0x00B0 [0x1F] MOVE_ENTITY: EventEntity moves to X=-137.702*, Z=565.317*, Y=-7.004*
  2: 0x00B8 [0x1F] MOVE_ENTITY: Update entity position (mode=1)
  3: 0x00BA [0x1F] MOVE_ENTITY: EventEntity moves to X=-136.470*, Z=561.974*, Y=-7.148*
  4: 0x00C2 [0x1F] MOVE_ENTITY: Update entity position (mode=1)
  5: 0x00C4 [0x1F] MOVE_ENTITY: EventEntity moves to X=-139.286*, Z=559.306*, Y=-7.235*
  6: 0x00CC [0x1F] MOVE_ENTITY: Update entity position (mode=1)
  7: 0x00CE [0x1F] MOVE_ENTITY: EventEntity moves to X=-142.370*, Z=560.927*, Y=-7.076*
  8: 0x00D6 [0x1F] MOVE_ENTITY: Update entity position (mode=1)
  9: 0x00D8 [0x00] END_REQSTACK()
```

### Event 26

#### Metadata

| Field        | Value   |
|--------------|---------|
| Entrypoint   | 0x00D9  |
| Data Size    | 1 bytes |
| Instructions | 1       |

```
      00 01 02 03 04 05 06 07  08 09 0A 0B 0C 0D 0E 0F
      -- -- -- -- -- -- -- --  -- -- -- -- -- -- -- --
00D0:                             00                             .      
```

#### Opcodes

```
  0: 0x00D9 [0x00] END_REQSTACK()
```

### Event 27

#### Metadata

| Field        | Value   |
|--------------|---------|
| Entrypoint   | 0x00DA  |
| Data Size    | 1 bytes |
| Instructions | 1       |

```
      00 01 02 03 04 05 06 07  08 09 0A 0B 0C 0D 0E 0F
      -- -- -- -- -- -- -- --  -- -- -- -- -- -- -- --
00D0:                                00                           .     
```

#### Opcodes

```
  0: 0x00DA [0x00] END_REQSTACK()
```

### Event 65535.7

#### Metadata

| Field        | Value    |
|--------------|----------|
| Entrypoint   | 0x00DB   |
| Data Size    | 22 bytes |
| Instructions | 6        |

```
      00 01 02 03 04 05 06 07  08 09 0A 0B 0C 0D 0E 0F
      -- -- -- -- -- -- -- --  -- -- -- -- -- -- -- --
00D0:                                   32 1C 80 1F 00             2....
00E0: 2E 80 2F 80 30 80 1F 01  1E F0 FF FF 7F 1C 1A 80  ../.0...........
00F0: 00                                                .               
```

#### Opcodes

```
  0: 0x00DB [0x32] ExtData[1]->MainSpeed = 40* * 0.1
  1: 0x00DE [0x1F] MOVE_ENTITY: EventEntity moves to X=-123.147*, Z=582.673*, Y=-6.930*
  2: 0x00E6 [0x1F] MOVE_ENTITY: Update entity position (mode=1)
  3: 0x00E8 [0x1E] EventEntity looks at LocalPlayer and starts talking
  4: 0x00ED [0x1C] WAIT(30* ticks)
  5: 0x00F0 [0x00] END_REQSTACK()
```

### Event 65535.8

#### Metadata

| Field        | Value    |
|--------------|----------|
| Entrypoint   | 0x00F1   |
| Data Size    | 24 bytes |
| Instructions | 6        |

```
      00 01 02 03 04 05 06 07  08 09 0A 0B 0C 0D 0E 0F
      -- -- -- -- -- -- -- --  -- -- -- -- -- -- -- --
00F0:    1F 00 31 80 32 80 33  80 1F 01 6F 1C 34 80 4A   ..1.2.3...o.4.J
0100: F8 FF FF 7F F0 FF FF 7F  00                       .........       
```

#### Opcodes

```
  0: 0x00F1 [0x1F] MOVE_ENTITY: EventEntity moves to X=-136.300*, Z=583.210*, Y=-7.648*
  1: 0x00F9 [0x1F] MOVE_ENTITY: Update entity position (mode=1)
  2: 0x00FB [0x6F] WAIT_FRAME_DELAY: Yield until WaitTime reaches zero
  3: 0x00FC [0x1C] WAIT(60* ticks)
  4: 0x00FF [0x4A] EventEntity looks at LocalPlayer
  5: 0x0108 [0x00] END_REQSTACK()
```

### Event 65535.9

#### Metadata

| Field        | Value    |
|--------------|----------|
| Entrypoint   | 0x0109   |
| Data Size    | 20 bytes |
| Instructions | 5        |

```
      00 01 02 03 04 05 06 07  08 09 0A 0B 0C 0D 0E 0F
      -- -- -- -- -- -- -- --  -- -- -- -- -- -- -- --
0100:                             59 04 F8 FF FF 7F 35           Y.....5
0110: 80 1F 00 36 80 37 80 33  80 1F 01 6F 00           ...6.7.3...o.   
```

#### Opcodes

```
  0: 0x0109 [0x59] UPDATE_ENTITY_DATA: Set EventEntity main speed = 15* * 0.1
  1: 0x0111 [0x1F] MOVE_ENTITY: EventEntity moves to X=-117.300*, Z=578.620*, Y=-7.648*
  2: 0x0119 [0x1F] MOVE_ENTITY: Update entity position (mode=1)
  3: 0x011B [0x6F] WAIT_FRAME_DELAY: Yield until WaitTime reaches zero
  4: 0x011C [0x00] END_REQSTACK()
```

### Event 65535.10

#### Metadata

| Field        | Value    |
|--------------|----------|
| Entrypoint   | 0x011D   |
| Data Size    | 24 bytes |
| Instructions | 6        |

```
      00 01 02 03 04 05 06 07  08 09 0A 0B 0C 0D 0E 0F
      -- -- -- -- -- -- -- --  -- -- -- -- -- -- -- --
0110:                                         1F 00 38               ..8
0120: 80 39 80 3A 80 1F 01 6F  1C 1A 80 4A F8 FF FF 7F  .9.:...o...J....
0130: F0 FF FF 7F 00                                    .....           
```

#### Opcodes

```
  0: 0x011D [0x1F] MOVE_ENTITY: EventEntity moves to X=-122.368*, Z=583.137*, Y=-7.015*
  1: 0x0125 [0x1F] MOVE_ENTITY: Update entity position (mode=1)
  2: 0x0127 [0x6F] WAIT_FRAME_DELAY: Yield until WaitTime reaches zero
  3: 0x0128 [0x1C] WAIT(30* ticks)
  4: 0x012B [0x4A] EventEntity looks at LocalPlayer
  5: 0x0134 [0x00] END_REQSTACK()
```

### Event 65535.11

#### Metadata

| Field        | Value    |
|--------------|----------|
| Entrypoint   | 0x0135   |
| Data Size    | 31 bytes |
| Instructions | 6        |

```
      00 01 02 03 04 05 06 07  08 09 0A 0B 0C 0D 0E 0F
      -- -- -- -- -- -- -- --  -- -- -- -- -- -- -- --
0130:                B6 00 3B  80 80 F8 FF FF 7F 4E 00       ..;......N.
0140: F8 FF FF 7F 2F 00 F8 FF  FF 7F 6C F8 FF FF 7F 3C  ..../.....l....<
0150: 80 1B 80 00                                       ....            
```

#### Opcodes

```
  0: 0x0135 [0xB6] ENTITY_APPEARANCE_HANDLER(case=Hair style, value=2030*)
  1: 0x0139 [0x80] LOAD_WAIT(entity=EventEntity)
  2: 0x013E [0x4E] SET_ENTITY_HIDE_FLAG: Show EventEntity
  3: 0x0144 [0x2F] EventEntity->Render.Flags0 &= ~0x80000 // Bit 19
  4: 0x014A [0x6C] FADE_ENTITY_COLOR(entity_id=EventEntity, end_alpha=128*, fade_time=1*)
  5: 0x0153 [0x00] END_REQSTACK()
```

### Event 65535.12

#### Metadata

| Field        | Value    |
|--------------|----------|
| Entrypoint   | 0x0154   |
| Data Size    | 31 bytes |
| Instructions | 6        |

```
      00 01 02 03 04 05 06 07  08 09 0A 0B 0C 0D 0E 0F
      -- -- -- -- -- -- -- --  -- -- -- -- -- -- -- --
0150:             B6 00 3D 80  80 F8 FF FF 7F 4E 00 F8      ..=......N..
0160: FF FF 7F 2F 00 F8 FF FF  7F 6C F8 FF FF 7F 3C 80  .../.....l....<.
0170: 1B 80 00                                          ...             
```

#### Opcodes

```
  0: 0x0154 [0xB6] ENTITY_APPEARANCE_HANDLER(case=Hair style, value=2255*)
  1: 0x0158 [0x80] LOAD_WAIT(entity=EventEntity)
  2: 0x015D [0x4E] SET_ENTITY_HIDE_FLAG: Show EventEntity
  3: 0x0163 [0x2F] EventEntity->Render.Flags0 &= ~0x80000 // Bit 19
  4: 0x0169 [0x6C] FADE_ENTITY_COLOR(entity_id=EventEntity, end_alpha=128*, fade_time=1*)
  5: 0x0172 [0x00] END_REQSTACK()
```

### Event 65535.13

#### Metadata

| Field        | Value    |
|--------------|----------|
| Entrypoint   | 0x0173   |
| Data Size    | 31 bytes |
| Instructions | 6        |

```
      00 01 02 03 04 05 06 07  08 09 0A 0B 0C 0D 0E 0F
      -- -- -- -- -- -- -- --  -- -- -- -- -- -- -- --
0170:          B6 00 3E 80 80  F8 FF FF 7F 4E 00 F8 FF     ..>......N...
0180: FF 7F 2F 00 F8 FF FF 7F  6C F8 FF FF 7F 05 80 1B  ../.....l.......
0190: 80 00                                             ..              
```

#### Opcodes

```
  0: 0x0173 [0xB6] ENTITY_APPEARANCE_HANDLER(case=Hair style, value=52*)
  1: 0x0177 [0x80] LOAD_WAIT(entity=EventEntity)
  2: 0x017C [0x4E] SET_ENTITY_HIDE_FLAG: Show EventEntity
  3: 0x0182 [0x2F] EventEntity->Render.Flags0 &= ~0x80000 // Bit 19
  4: 0x0188 [0x6C] FADE_ENTITY_COLOR(entity_id=EventEntity, end_alpha=0*, fade_time=1*)
  5: 0x0191 [0x00] END_REQSTACK()
```

### Event 65535.14

#### Metadata

| Field        | Value    |
|--------------|----------|
| Entrypoint   | 0x0192   |
| Data Size    | 19 bytes |
| Instructions | 4        |

```
      00 01 02 03 04 05 06 07  08 09 0A 0B 0C 0D 0E 0F
      -- -- -- -- -- -- -- --  -- -- -- -- -- -- -- --
0190:       59 04 F8 FF FF 7F  01 80 5A 00 3F 80 40 80    Y.......Z.?.@.
01A0: 41 80 5A 01 00                                    A.Z..           
```

#### Opcodes

```
  0: 0x0192 [0x59] UPDATE_ENTITY_DATA: Set EventEntity main speed = 13* * 0.1
  1: 0x019A [0x5A] UPDATE_EVENT_POSITION: Set EventEntity MovePosition to X=-118.800*, Z=584.580*, Y=-8.061*
  2: 0x01A2 [0x5A] UPDATE_EVENT_POSITION: Move EventEntity incrementally towards MovePosition
  3: 0x01A4 [0x00] END_REQSTACK()
```

### Event 28

#### Metadata

| Field        | Value   |
|--------------|---------|
| Entrypoint   | 0x01A5  |
| Data Size    | 1 bytes |
| Instructions | 1       |

```
      00 01 02 03 04 05 06 07  08 09 0A 0B 0C 0D 0E 0F
      -- -- -- -- -- -- -- --  -- -- -- -- -- -- -- --
01A0:                00                                      .          
```

#### Opcodes

```
  0: 0x01A5 [0x00] END_REQSTACK()
```

### Event 65535.15

#### Metadata

| Field        | Value   |
|--------------|---------|
| Entrypoint   | 0x01A6  |
| Data Size    | 1 bytes |
| Instructions | 1       |

```
      00 01 02 03 04 05 06 07  08 09 0A 0B 0C 0D 0E 0F
      -- -- -- -- -- -- -- --  -- -- -- -- -- -- -- --
01A0:                   00                                    .         
```

#### Opcodes

```
  0: 0x01A6 [0x00] END_REQSTACK()
```

### Event 65535.16

#### Metadata

| Field        | Value    |
|--------------|----------|
| Entrypoint   | 0x01A7   |
| Data Size    | 18 bytes |
| Instructions | 4        |

```
      00 01 02 03 04 05 06 07  08 09 0A 0B 0C 0D 0E 0F
      -- -- -- -- -- -- -- --  -- -- -- -- -- -- -- --
01A0:                      22  00 2F 00 F8 FF FF 7F 6C         "./.....l
01B0: F8 FF FF 7F 05 80 1B 80  00                       .........       
```

#### Opcodes

```
  0: 0x01A7 [0x22] ENTITY_HIDE_FLAG(enabled=0x00)
  1: 0x01A9 [0x2F] EventEntity->Render.Flags0 &= ~0x80000 // Bit 19
  2: 0x01AF [0x6C] FADE_ENTITY_COLOR(entity_id=EventEntity, end_alpha=0*, fade_time=1*)
  3: 0x01B8 [0x00] END_REQSTACK()
```

### Event 65535.17

#### Metadata

| Field        | Value    |
|--------------|----------|
| Entrypoint   | 0x01B9   |
| Data Size    | 10 bytes |
| Instructions | 2        |

```
      00 01 02 03 04 05 06 07  08 09 0A 0B 0C 0D 0E 0F
      -- -- -- -- -- -- -- --  -- -- -- -- -- -- -- --
01B0:                             6C F8 FF FF 7F 3C 80           l....<.
01C0: 1B 80 00                                          ...             
```

#### Opcodes

```
  0: 0x01B9 [0x6C] FADE_ENTITY_COLOR(entity_id=EventEntity, end_alpha=128*, fade_time=1*)
  1: 0x01C2 [0x00] END_REQSTACK()
```

### Event 65535.18

#### Metadata

| Field        | Value   |
|--------------|---------|
| Entrypoint   | 0x01C3  |
| Data Size    | 9 bytes |
| Instructions | 3       |

```
      00 01 02 03 04 05 06 07  08 09 0A 0B 0C 0D 0E 0F
      -- -- -- -- -- -- -- --  -- -- -- -- -- -- -- --
01C0:          22 00 2F 00 F8  FF FF 7F 00                 "./......    
```

#### Opcodes

```
  0: 0x01C3 [0x22] ENTITY_HIDE_FLAG(enabled=0x00)
  1: 0x01C5 [0x2F] EventEntity->Render.Flags0 &= ~0x80000 // Bit 19
  2: 0x01CB [0x00] END_REQSTACK()
```

### Event 65535.19

#### Metadata

| Field        | Value   |
|--------------|---------|
| Entrypoint   | 0x01CC  |
| Data Size    | 9 bytes |
| Instructions | 3       |

```
      00 01 02 03 04 05 06 07  08 09 0A 0B 0C 0D 0E 0F
      -- -- -- -- -- -- -- --  -- -- -- -- -- -- -- --
01C0:                                      22 01 2F 01              "./.
01D0: F8 FF FF 7F 00                                    .....           
```

#### Opcodes

```
  0: 0x01CC [0x22] ENTITY_HIDE_FLAG(enabled=0x01)
  1: 0x01CE [0x2F] EventEntity->Render.Flags0 |= 0x80000 // Bit 19
  2: 0x01D4 [0x00] END_REQSTACK()
```

### Event 65535.20

#### Metadata

| Field        | Value    |
|--------------|----------|
| Entrypoint   | 0x01D5   |
| Data Size    | 10 bytes |
| Instructions | 2        |

```
      00 01 02 03 04 05 06 07  08 09 0A 0B 0C 0D 0E 0F
      -- -- -- -- -- -- -- --  -- -- -- -- -- -- -- --
01D0:                6C F8 FF  FF 7F 05 80 1B 80 00          l......... 
```

#### Opcodes

```
  0: 0x01D5 [0x6C] FADE_ENTITY_COLOR(entity_id=EventEntity, end_alpha=0*, fade_time=1*)
  1: 0x01DE [0x00] END_REQSTACK()
```

### Event 65535.21

#### Metadata

| Field        | Value    |
|--------------|----------|
| Entrypoint   | 0x01DF   |
| Data Size    | 10 bytes |
| Instructions | 2        |

```
      00 01 02 03 04 05 06 07  08 09 0A 0B 0C 0D 0E 0F
      -- -- -- -- -- -- -- --  -- -- -- -- -- -- -- --
01D0:                                               6C                 l
01E0: F8 FF FF 7F 3C 80 1B 80  00                       ....<....       
```

#### Opcodes

```
  0: 0x01DF [0x6C] FADE_ENTITY_COLOR(entity_id=EventEntity, end_alpha=128*, fade_time=1*)
  1: 0x01E8 [0x00] END_REQSTACK()
```

### Event 34

#### Metadata

| Field        | Value   |
|--------------|---------|
| Entrypoint   | 0x01E9  |
| Data Size    | 1 bytes |
| Instructions | 1       |

```
      00 01 02 03 04 05 06 07  08 09 0A 0B 0C 0D 0E 0F
      -- -- -- -- -- -- -- --  -- -- -- -- -- -- -- --
01E0:                             00                             .      
```

#### Opcodes

```
  0: 0x01E9 [0x00] END_REQSTACK()
```

### Event 35

#### Metadata

| Field        | Value   |
|--------------|---------|
| Entrypoint   | 0x01EA  |
| Data Size    | 1 bytes |
| Instructions | 1       |

```
      00 01 02 03 04 05 06 07  08 09 0A 0B 0C 0D 0E 0F
      -- -- -- -- -- -- -- --  -- -- -- -- -- -- -- --
01E0:                                00                           .     
```

#### Opcodes

```
  0: 0x01EA [0x00] END_REQSTACK()
```

### Event 36

#### Metadata

| Field        | Value   |
|--------------|---------|
| Entrypoint   | 0x01EB  |
| Data Size    | 1 bytes |
| Instructions | 1       |

```
      00 01 02 03 04 05 06 07  08 09 0A 0B 0C 0D 0E 0F
      -- -- -- -- -- -- -- --  -- -- -- -- -- -- -- --
01E0:                                   00                         .    
```

#### Opcodes

```
  0: 0x01EB [0x00] END_REQSTACK()
```
